{
	"src/eStock.sol": {
		"TransactionHistory": {
			"abi": [
				{
					"inputs": [
						{
							"internalType": "address",
							"name": "user",
							"type": "address"
						}
					],
					"name": "getTransactionCount",
					"outputs": [
						{
							"internalType": "uint256",
							"name": "",
							"type": "uint256"
						}
					],
					"stateMutability": "view",
					"type": "function"
				},
				{
					"inputs": [
						{
							"internalType": "address",
							"name": "user",
							"type": "address"
						},
						{
							"internalType": "uint256",
							"name": "startIndex",
							"type": "uint256"
						},
						{
							"internalType": "uint256",
							"name": "limit",
							"type": "uint256"
						}
					],
					"name": "getUserTransactions",
					"outputs": [
						{
							"components": [
								{
									"internalType": "string",
									"name": "txType",
									"type": "string"
								},
								{
									"internalType": "address",
									"name": "to",
									"type": "address"
								},
								{
									"internalType": "uint256",
									"name": "amount",
									"type": "uint256"
								},
								{
									"internalType": "uint256",
									"name": "timestamp",
									"type": "uint256"
								}
							],
							"internalType": "struct TransactionHistory.Transaction[]",
							"name": "",
							"type": "tuple[]"
						}
					],
					"stateMutability": "view",
					"type": "function"
				},
				{
					"inputs": [
						{
							"internalType": "address",
							"name": "user",
							"type": "address"
						},
						{
							"internalType": "uint256",
							"name": "startTime",
							"type": "uint256"
						},
						{
							"internalType": "uint256",
							"name": "endTime",
							"type": "uint256"
						},
						{
							"internalType": "uint256",
							"name": "limit",
							"type": "uint256"
						}
					],
					"name": "getUserTransactionsByTime",
					"outputs": [
						{
							"components": [
								{
									"internalType": "string",
									"name": "txType",
									"type": "string"
								},
								{
									"internalType": "address",
									"name": "to",
									"type": "address"
								},
								{
									"internalType": "uint256",
									"name": "amount",
									"type": "uint256"
								},
								{
									"internalType": "uint256",
									"name": "timestamp",
									"type": "uint256"
								}
							],
							"internalType": "struct TransactionHistory.Transaction[]",
							"name": "",
							"type": "tuple[]"
						}
					],
					"stateMutability": "view",
					"type": "function"
				},
				{
					"inputs": [
						{
							"internalType": "string",
							"name": "txType",
							"type": "string"
						},
						{
							"internalType": "address",
							"name": "user",
							"type": "address"
						},
						{
							"internalType": "address",
							"name": "to",
							"type": "address"
						},
						{
							"internalType": "uint256",
							"name": "amount",
							"type": "uint256"
						}
					],
					"name": "recordTransaction",
					"outputs": [],
					"stateMutability": "nonpayable",
					"type": "function"
				}
			],
			"devdoc": {
				"kind": "dev",
				"methods": {
					"getTransactionCount(address)": {
						"details": "Lấy tổng số giao dịch của user"
					},
					"getUserTransactions(address,uint256,uint256)": {
						"details": "Lấy lịch sử giao dịch theo phân trang với `startIndex`"
					},
					"getUserTransactionsByTime(address,uint256,uint256,uint256)": {
						"details": "Lấy lịch sử giao dịch theo phân trang (startTime, endTime, limit)"
					},
					"recordTransaction(string,address,address,uint256)": {
						"details": "Ghi nhận giao dịch của từng user"
					}
				},
				"version": 1
			},
			"evm": {
				"assembly": "    /* \"src/eStock.sol\":225:2759  contract TransactionHistory {... */\n  mstore(0x40, 0x80)\n  callvalue\n  dup1\n  iszero\n  tag_1\n  jumpi\n  0x00\n  dup1\n  revert\ntag_1:\n  pop\n  dataSize(sub_0)\n  dup1\n  dataOffset(sub_0)\n  0x00\n  codecopy\n  0x00\n  return\nstop\n\nsub_0: assembly {\n        /* \"src/eStock.sol\":225:2759  contract TransactionHistory {... */\n      mstore(0x40, 0x80)\n      callvalue\n      dup1\n      iszero\n      tag_1\n      jumpi\n      0x00\n      dup1\n      revert\n    tag_1:\n      pop\n      jumpi(tag_2, lt(calldatasize, 0x04))\n      shr(0xe0, calldataload(0x00))\n      dup1\n      0x23ca0cd2\n      eq\n      tag_3\n      jumpi\n      dup1\n      0x37526fca\n      eq\n      tag_4\n      jumpi\n      dup1\n      0x7437f9ab\n      eq\n      tag_5\n      jumpi\n      dup1\n      0xab0ee682\n      eq\n      tag_6\n      jumpi\n    tag_2:\n      0x00\n      dup1\n      revert\n        /* \"src/eStock.sol\":847:975  function getTransactionCount(address user) external view returns (uint256) {... */\n    tag_3:\n      tag_7\n      tag_8\n      calldatasize\n      0x04\n      tag_9\n      jump\t// in\n    tag_8:\n      sub(shl(0xa0, 0x01), 0x01)\n        /* \"src/eStock.sol\":939:961  userTransactions[user] */\n      and\n        /* \"src/eStock.sol\":913:920  uint256 */\n      0x00\n        /* \"src/eStock.sol\":939:961  userTransactions[user] */\n      swap1\n      dup2\n      mstore\n      0x20\n      dup2\n      swap1\n      mstore\n      0x40\n      swap1\n      keccak256\n        /* \"src/eStock.sol\":939:968  userTransactions[user].length */\n      sload\n      swap1\n        /* \"src/eStock.sol\":847:975  function getTransactionCount(address user) external view returns (uint256) {... */\n      jump\n    tag_7:\n      mload(0x40)\n        /* \"#utility.yul\":529:554   */\n      swap1\n      dup2\n      mstore\n        /* \"#utility.yul\":517:519   */\n      0x20\n        /* \"#utility.yul\":502:520   */\n      add\n        /* \"src/eStock.sol\":847:975  function getTransactionCount(address user) external view returns (uint256) {... */\n    tag_11:\n      mload(0x40)\n      dup1\n      swap2\n      sub\n      swap1\n      return\n        /* \"src/eStock.sol\":1060:1721  function getUserTransactions(... */\n    tag_4:\n      tag_13\n      tag_14\n      calldatasize\n      0x04\n      tag_15\n      jump\t// in\n    tag_14:\n      tag_16\n      jump\t// in\n    tag_13:\n      mload(0x40)\n      tag_11\n      swap2\n      swap1\n      tag_18\n      jump\t// in\n        /* \"src/eStock.sol\":1815:2757  function getUserTransactionsByTime(... */\n    tag_5:\n      tag_13\n      tag_20\n      calldatasize\n      0x04\n      tag_21\n      jump\t// in\n    tag_20:\n      tag_22\n      jump\t// in\n        /* \"src/eStock.sol\":555:787  function recordTransaction(... */\n    tag_6:\n      tag_24\n      tag_25\n      calldatasize\n      0x04\n      tag_26\n      jump\t// in\n    tag_25:\n      tag_27\n      jump\t// in\n    tag_24:\n      stop\n        /* \"src/eStock.sol\":1060:1721  function getUserTransactions(... */\n    tag_16:\n      sub(shl(0xa0, 0x01), 0x01)\n        /* \"src/eStock.sol\":1241:1263  userTransactions[user] */\n      dup4\n      and\n        /* \"src/eStock.sol\":1223:1238  uint256 totalTx */\n      0x00\n        /* \"src/eStock.sol\":1241:1263  userTransactions[user] */\n      swap1\n      dup2\n      mstore\n      0x20\n      dup2\n      swap1\n      mstore\n      0x40\n      swap1\n      keccak256\n        /* \"src/eStock.sol\":1241:1270  userTransactions[user].length */\n      sload\n        /* \"src/eStock.sol\":1191:1211  Transaction[] memory */\n      0x60\n      swap1\n        /* \"src/eStock.sol\":1284:1296  totalTx == 0 */\n      dup1\n      iszero\n      dup1\n        /* \"src/eStock.sol\":1284:1321  totalTx == 0 || startIndex >= totalTx */\n      tag_30\n      jumpi\n      pop\n        /* \"src/eStock.sol\":1314:1321  totalTx */\n      dup1\n        /* \"src/eStock.sol\":1300:1310  startIndex */\n      dup5\n        /* \"src/eStock.sol\":1300:1321  startIndex >= totalTx */\n      lt\n      iszero\n        /* \"src/eStock.sol\":1284:1321  totalTx == 0 || startIndex >= totalTx */\n    tag_30:\n        /* \"src/eStock.sol\":1280:1350  if (totalTx == 0 || startIndex >= totalTx) return new Transaction[](0) */\n      iszero\n      tag_31\n      jumpi\n        /* \"src/eStock.sol\":1330:1350  new Transaction[](0) */\n      0x40\n      dup1\n      mload\n        /* \"src/eStock.sol\":1348:1349  0 */\n      0x00\n        /* \"src/eStock.sol\":1330:1350  new Transaction[](0) */\n      dup1\n      dup3\n      mstore\n      0x20\n      dup3\n      add\n      swap1\n      swap3\n      mstore\n      swap1\n      jump(tag_35)\n    tag_36:\n      tag_37\n      tag_38\n      jump\t// in\n    tag_37:\n      dup2\n      mstore\n      0x20\n      add\n      swap1\n      0x01\n      swap1\n      sub\n      swap1\n      dup2\n      tag_36\n      jumpi\n      swap1\n      pop\n    tag_35:\n      pop\n        /* \"src/eStock.sol\":1323:1350  return new Transaction[](0) */\n      swap2\n      pop\n      pop\n      jump(tag_29)\n        /* \"src/eStock.sol\":1280:1350  if (totalTx == 0 || startIndex >= totalTx) return new Transaction[](0) */\n    tag_31:\n        /* \"src/eStock.sol\":1362:1378  uint256 endIndex */\n      0x00\n        /* \"src/eStock.sol\":1381:1399  startIndex + limit */\n      tag_39\n        /* \"src/eStock.sol\":1394:1399  limit */\n      dup5\n        /* \"src/eStock.sol\":1381:1391  startIndex */\n      dup7\n        /* \"src/eStock.sol\":1381:1399  startIndex + limit */\n      tag_40\n      jump\t// in\n    tag_39:\n        /* \"src/eStock.sol\":1362:1399  uint256 endIndex = startIndex + limit */\n      swap1\n      pop\n        /* \"src/eStock.sol\":1424:1431  totalTx */\n      dup2\n        /* \"src/eStock.sol\":1413:1421  endIndex */\n      dup2\n        /* \"src/eStock.sol\":1413:1431  endIndex > totalTx */\n      gt\n        /* \"src/eStock.sol\":1409:1476  if (endIndex > totalTx) {... */\n      iszero\n      tag_41\n      jumpi\n      pop\n        /* \"src/eStock.sol\":1458:1465  totalTx */\n      dup1\n        /* \"src/eStock.sol\":1409:1476  if (endIndex > totalTx) {... */\n    tag_41:\n        /* \"src/eStock.sol\":1486:1514  Transaction[] memory results */\n      0x00\n        /* \"src/eStock.sol\":1535:1556  endIndex - startIndex */\n      tag_42\n        /* \"src/eStock.sol\":1546:1556  startIndex */\n      dup7\n        /* \"src/eStock.sol\":1535:1543  endIndex */\n      dup4\n        /* \"src/eStock.sol\":1535:1556  endIndex - startIndex */\n      tag_43\n      jump\t// in\n    tag_42:\n      sub(shl(0x40, 0x01), 0x01)\n        /* \"src/eStock.sol\":1517:1557  new Transaction[](endIndex - startIndex) */\n      dup2\n      gt\n      iszero\n      tag_45\n      jumpi\n      tag_45\n      tag_34\n      jump\t// in\n    tag_45:\n      mload(0x40)\n      swap1\n      dup1\n      dup3\n      mstore\n      dup1\n      0x20\n      mul\n      0x20\n      add\n      dup3\n      add\n      0x40\n      mstore\n      dup1\n      iszero\n      tag_46\n      jumpi\n      dup2\n      0x20\n      add\n    tag_47:\n      tag_48\n      tag_38\n      jump\t// in\n    tag_48:\n      dup2\n      mstore\n      0x20\n      add\n      swap1\n      0x01\n      swap1\n      sub\n      swap1\n      dup2\n      tag_47\n      jumpi\n      swap1\n      pop\n    tag_46:\n      pop\n        /* \"src/eStock.sol\":1486:1557  Transaction[] memory results = new Transaction[](endIndex - startIndex) */\n      swap1\n      pop\n        /* \"src/eStock.sol\":1584:1594  startIndex */\n      dup6\n        /* \"src/eStock.sol\":1567:1691  for (uint256 i = startIndex; i < endIndex; i++) {... */\n    tag_49:\n        /* \"src/eStock.sol\":1600:1608  endIndex */\n      dup3\n        /* \"src/eStock.sol\":1596:1597  i */\n      dup2\n        /* \"src/eStock.sol\":1596:1608  i < endIndex */\n      lt\n        /* \"src/eStock.sol\":1567:1691  for (uint256 i = startIndex; i < endIndex; i++) {... */\n      iszero\n      tag_50\n      jumpi\n      sub(shl(0xa0, 0x01), 0x01)\n        /* \"src/eStock.sol\":1655:1677  userTransactions[user] */\n      dup9\n      and\n        /* \"src/eStock.sol\":1655:1671  userTransactions */\n      0x00\n        /* \"src/eStock.sol\":1655:1677  userTransactions[user] */\n      swap1\n      dup2\n      mstore\n      0x20\n      dup2\n      swap1\n      mstore\n      0x40\n      swap1\n      keccak256\n        /* \"src/eStock.sol\":1655:1680  userTransactions[user][i] */\n      dup1\n      sload\n        /* \"src/eStock.sol\":1678:1679  i */\n      dup3\n      swap1\n        /* \"src/eStock.sol\":1655:1680  userTransactions[user][i] */\n      dup2\n      lt\n      tag_53\n      jumpi\n      tag_53\n      tag_54\n      jump\t// in\n    tag_53:\n      swap1\n      0x00\n      mstore\n      keccak256(0x00, 0x20)\n      swap1\n      0x04\n      mul\n      add\n        /* \"src/eStock.sol\":1629:1680  results[i - startIndex] = userTransactions[user][i] */\n      mload(0x40)\n      dup1\n      0x80\n      add\n      0x40\n      mstore\n      swap1\n      dup2\n      0x00\n      dup3\n      add\n      dup1\n      sload\n      tag_56\n      swap1\n      tag_57\n      jump\t// in\n    tag_56:\n      dup1\n      0x1f\n      add\n      0x20\n      dup1\n      swap2\n      div\n      mul\n      0x20\n      add\n      mload(0x40)\n      swap1\n      dup2\n      add\n      0x40\n      mstore\n      dup1\n      swap3\n      swap2\n      swap1\n      dup2\n      dup2\n      mstore\n      0x20\n      add\n      dup3\n      dup1\n      sload\n      tag_58\n      swap1\n      tag_57\n      jump\t// in\n    tag_58:\n      dup1\n      iszero\n      tag_59\n      jumpi\n      dup1\n      0x1f\n      lt\n      tag_60\n      jumpi\n      0x0100\n      dup1\n      dup4\n      sload\n      div\n      mul\n      dup4\n      mstore\n      swap2\n      0x20\n      add\n      swap2\n      jump(tag_59)\n    tag_60:\n      dup3\n      add\n      swap2\n      swap1\n      0x00\n      mstore\n      keccak256(0x00, 0x20)\n      swap1\n    tag_61:\n      dup2\n      sload\n      dup2\n      mstore\n      swap1\n      0x01\n      add\n      swap1\n      0x20\n      add\n      dup1\n      dup4\n      gt\n      tag_61\n      jumpi\n      dup3\n      swap1\n      sub\n      0x1f\n      and\n      dup3\n      add\n      swap2\n    tag_59:\n      pop\n      pop\n      pop\n      swap2\n      dup4\n      mstore\n      pop\n      pop\n      0x01\n      dup3\n      add\n      sload\n      sub(shl(0xa0, 0x01), 0x01)\n      and\n      0x20\n      dup3\n      add\n      mstore\n      0x02\n      dup3\n      add\n      sload\n      0x40\n      dup3\n      add\n      mstore\n      0x03\n      swap1\n      swap2\n      add\n      sload\n      0x60\n      swap1\n      swap2\n      add\n      mstore\n        /* \"src/eStock.sol\":1629:1636  results */\n      dup3\n        /* \"src/eStock.sol\":1637:1651  i - startIndex */\n      tag_62\n        /* \"src/eStock.sol\":1641:1651  startIndex */\n      dup10\n        /* \"src/eStock.sol\":1637:1638  i */\n      dup5\n        /* \"src/eStock.sol\":1637:1651  i - startIndex */\n      tag_43\n      jump\t// in\n    tag_62:\n        /* \"src/eStock.sol\":1629:1652  results[i - startIndex] */\n      dup2\n      mload\n      dup2\n      lt\n      tag_64\n      jumpi\n      tag_64\n      tag_54\n      jump\t// in\n    tag_64:\n      0x20\n      swap1\n      dup2\n      mul\n      swap2\n      swap1\n      swap2\n      add\n      add\n        /* \"src/eStock.sol\":1629:1680  results[i - startIndex] = userTransactions[user][i] */\n      mstore\n        /* \"src/eStock.sol\":1610:1613  i++ */\n      0x01\n      add\n        /* \"src/eStock.sol\":1567:1691  for (uint256 i = startIndex; i < endIndex; i++) {... */\n      jump(tag_49)\n    tag_50:\n      pop\n        /* \"src/eStock.sol\":1707:1714  results */\n      swap3\n      pop\n      pop\n      pop\n        /* \"src/eStock.sol\":1060:1721  function getUserTransactions(... */\n    tag_29:\n      swap4\n      swap3\n      pop\n      pop\n      pop\n      jump\t// out\n        /* \"src/eStock.sol\":1815:2757  function getUserTransactionsByTime(... */\n    tag_22:\n      sub(shl(0xa0, 0x01), 0x01)\n        /* \"src/eStock.sol\":2081:2103  userTransactions[user] */\n      dup5\n      and\n        /* \"src/eStock.sol\":2008:2021  uint256 count */\n      0x00\n        /* \"src/eStock.sol\":2081:2103  userTransactions[user] */\n      swap1\n      dup2\n      mstore\n      0x20\n      dup2\n      swap1\n      mstore\n      0x40\n      dup2\n      keccak256\n        /* \"src/eStock.sol\":2081:2110  userTransactions[user].length */\n      sload\n        /* \"src/eStock.sol\":1976:1996  Transaction[] memory */\n      0x60\n      swap2\n        /* \"src/eStock.sol\":2008:2021  uint256 count */\n      swap1\n      dup2\n      swap1\n      sub(shl(0x40, 0x01), 0x01)\n        /* \"src/eStock.sol\":2063:2111  new Transaction[](userTransactions[user].length) */\n      dup2\n      gt\n      iszero\n      tag_67\n      jumpi\n      tag_67\n      tag_34\n      jump\t// in\n    tag_67:\n      mload(0x40)\n      swap1\n      dup1\n      dup3\n      mstore\n      dup1\n      0x20\n      mul\n      0x20\n      add\n      dup3\n      add\n      0x40\n      mstore\n      dup1\n      iszero\n      tag_68\n      jumpi\n      dup2\n      0x20\n      add\n    tag_69:\n      tag_70\n      tag_38\n      jump\t// in\n    tag_70:\n      dup2\n      mstore\n      0x20\n      add\n      swap1\n      0x01\n      swap1\n      sub\n      swap1\n      dup2\n      tag_69\n      jumpi\n      swap1\n      pop\n    tag_68:\n      pop\n      sub(shl(0xa0, 0x01), 0x01)\n        /* \"src/eStock.sol\":2185:2207  userTransactions[user] */\n      dup9\n      and\n        /* \"src/eStock.sol\":2173:2182  uint256 i */\n      0x00\n        /* \"src/eStock.sol\":2185:2207  userTransactions[user] */\n      swap1\n      dup2\n      mstore\n      0x20\n      dup2\n      swap1\n      mstore\n      0x40\n      swap1\n      keccak256\n        /* \"src/eStock.sol\":2185:2214  userTransactions[user].length */\n      sload\n        /* \"src/eStock.sol\":2035:2111  Transaction[] memory temp = new Transaction[](userTransactions[user].length) */\n      swap1\n      swap2\n      pop\n        /* \"src/eStock.sol\":2168:2526  for (uint256 i = userTransactions[user].length; i > 0; i--) {... */\n    tag_71:\n        /* \"src/eStock.sol\":2216:2221  i > 0 */\n      dup1\n      iszero\n        /* \"src/eStock.sol\":2168:2526  for (uint256 i = userTransactions[user].length; i > 0; i--) {... */\n      tag_72\n      jumpi\n      sub(shl(0xa0, 0x01), 0x01)\n        /* \"src/eStock.sol\":2270:2292  userTransactions[user] */\n      dup9\n      and\n        /* \"src/eStock.sol\":2242:2267  Transaction memory txData */\n      0x00\n        /* \"src/eStock.sol\":2270:2292  userTransactions[user] */\n      swap1\n      dup2\n      mstore\n      0x20\n      dup2\n      swap1\n      mstore\n      0x40\n      dup2\n      keccak256\n        /* \"src/eStock.sol\":2293:2298  i - 1 */\n      tag_74\n        /* \"src/eStock.sol\":2297:2298  1 */\n      0x01\n        /* \"src/eStock.sol\":2293:2294  i */\n      dup5\n        /* \"src/eStock.sol\":2293:2298  i - 1 */\n      tag_43\n      jump\t// in\n    tag_74:\n        /* \"src/eStock.sol\":2270:2299  userTransactions[user][i - 1] */\n      dup2\n      sload\n      dup2\n      lt\n      tag_76\n      jumpi\n      tag_76\n      tag_54\n      jump\t// in\n    tag_76:\n      swap1\n      0x00\n      mstore\n      keccak256(0x00, 0x20)\n      swap1\n      0x04\n      mul\n      add\n        /* \"src/eStock.sol\":2242:2299  Transaction memory txData = userTransactions[user][i - 1] */\n      mload(0x40)\n      dup1\n      0x80\n      add\n      0x40\n      mstore\n      swap1\n      dup2\n      0x00\n      dup3\n      add\n      dup1\n      sload\n      tag_78\n      swap1\n      tag_57\n      jump\t// in\n    tag_78:\n      dup1\n      0x1f\n      add\n      0x20\n      dup1\n      swap2\n      div\n      mul\n      0x20\n      add\n      mload(0x40)\n      swap1\n      dup2\n      add\n      0x40\n      mstore\n      dup1\n      swap3\n      swap2\n      swap1\n      dup2\n      dup2\n      mstore\n      0x20\n      add\n      dup3\n      dup1\n      sload\n      tag_79\n      swap1\n      tag_57\n      jump\t// in\n    tag_79:\n      dup1\n      iszero\n      tag_80\n      jumpi\n      dup1\n      0x1f\n      lt\n      tag_81\n      jumpi\n      0x0100\n      dup1\n      dup4\n      sload\n      div\n      mul\n      dup4\n      mstore\n      swap2\n      0x20\n      add\n      swap2\n      jump(tag_80)\n    tag_81:\n      dup3\n      add\n      swap2\n      swap1\n      0x00\n      mstore\n      keccak256(0x00, 0x20)\n      swap1\n    tag_82:\n      dup2\n      sload\n      dup2\n      mstore\n      swap1\n      0x01\n      add\n      swap1\n      0x20\n      add\n      dup1\n      dup4\n      gt\n      tag_82\n      jumpi\n      dup3\n      swap1\n      sub\n      0x1f\n      and\n      dup3\n      add\n      swap2\n    tag_80:\n      pop\n      pop\n      pop\n      swap2\n      dup4\n      mstore\n      pop\n      pop\n      0x01\n      dup3\n      add\n      sload\n      sub(shl(0xa0, 0x01), 0x01)\n      and\n      0x20\n      dup3\n      add\n      mstore\n      0x02\n      dup3\n      add\n      sload\n      0x40\n      dup3\n      add\n      mstore\n      0x03\n      swap1\n      swap2\n      add\n      sload\n      0x60\n      swap2\n      dup3\n      add\n      mstore\n        /* \"src/eStock.sol\":2317:2333  txData.timestamp */\n      dup2\n      add\n      mload\n        /* \"src/eStock.sol\":2242:2299  Transaction memory txData = userTransactions[user][i - 1] */\n      swap1\n      swap2\n      pop\n        /* \"src/eStock.sol\":2317:2345  txData.timestamp < startTime */\n      dup9\n      gt\n        /* \"src/eStock.sol\":2313:2352  if (txData.timestamp < startTime) break */\n      iszero\n      tag_83\n      jumpi\n        /* \"src/eStock.sol\":2347:2352  break */\n      pop\n      jump(tag_72)\n        /* \"src/eStock.sol\":2313:2352  if (txData.timestamp < startTime) break */\n    tag_83:\n        /* \"src/eStock.sol\":2390:2397  endTime */\n      dup7\n        /* \"src/eStock.sol\":2370:2376  txData */\n      dup2\n        /* \"src/eStock.sol\":2370:2386  txData.timestamp */\n      0x60\n      add\n      mload\n        /* \"src/eStock.sol\":2370:2397  txData.timestamp <= endTime */\n      gt\n        /* \"src/eStock.sol\":2366:2477  if (txData.timestamp <= endTime) {... */\n      tag_84\n      jumpi\n        /* \"src/eStock.sol\":2431:2437  txData */\n      dup1\n        /* \"src/eStock.sol\":2417:2421  temp */\n      dup4\n        /* \"src/eStock.sol\":2422:2427  count */\n      dup6\n        /* \"src/eStock.sol\":2417:2428  temp[count] */\n      dup2\n      mload\n      dup2\n      lt\n      tag_86\n      jumpi\n      tag_86\n      tag_54\n      jump\t// in\n    tag_86:\n      0x20\n      mul\n      0x20\n      add\n      add\n        /* \"src/eStock.sol\":2417:2437  temp[count] = txData */\n      dup2\n      swap1\n      mstore\n      pop\n        /* \"src/eStock.sol\":2455:2462  count++ */\n      dup4\n      dup1\n      tag_87\n      swap1\n      tag_88\n      jump\t// in\n    tag_87:\n      swap5\n      pop\n      pop\n        /* \"src/eStock.sol\":2366:2477  if (txData.timestamp <= endTime) {... */\n    tag_84:\n        /* \"src/eStock.sol\":2503:2508  limit */\n      dup6\n        /* \"src/eStock.sol\":2494:2499  count */\n      dup5\n        /* \"src/eStock.sol\":2494:2508  count >= limit */\n      lt\n        /* \"src/eStock.sol\":2490:2515  if (count >= limit) break */\n      tag_89\n      jumpi\n        /* \"src/eStock.sol\":2510:2515  break */\n      pop\n      jump(tag_72)\n        /* \"src/eStock.sol\":2490:2515  if (count >= limit) break */\n    tag_89:\n      pop\n        /* \"src/eStock.sol\":2223:2226  i-- */\n      dup1\n      tag_90\n      dup2\n      tag_91\n      jump\t// in\n    tag_90:\n      swap2\n      pop\n      pop\n        /* \"src/eStock.sol\":2168:2526  for (uint256 i = userTransactions[user].length; i > 0; i--) {... */\n      jump(tag_71)\n    tag_72:\n      pop\n        /* \"src/eStock.sol\":2581:2609  Transaction[] memory results */\n      0x00\n        /* \"src/eStock.sol\":2630:2635  count */\n      dup3\n      sub(shl(0x40, 0x01), 0x01)\n        /* \"src/eStock.sol\":2612:2636  new Transaction[](count) */\n      dup2\n      gt\n      iszero\n      tag_93\n      jumpi\n      tag_93\n      tag_34\n      jump\t// in\n    tag_93:\n      mload(0x40)\n      swap1\n      dup1\n      dup3\n      mstore\n      dup1\n      0x20\n      mul\n      0x20\n      add\n      dup3\n      add\n      0x40\n      mstore\n      dup1\n      iszero\n      tag_94\n      jumpi\n      dup2\n      0x20\n      add\n    tag_95:\n      tag_96\n      tag_38\n      jump\t// in\n    tag_96:\n      dup2\n      mstore\n      0x20\n      add\n      swap1\n      0x01\n      swap1\n      sub\n      swap1\n      dup2\n      tag_95\n      jumpi\n      swap1\n      pop\n    tag_94:\n      pop\n        /* \"src/eStock.sol\":2581:2636  Transaction[] memory results = new Transaction[](count) */\n      swap1\n      pop\n        /* \"src/eStock.sol\":2651:2660  uint256 i */\n      0x00\n        /* \"src/eStock.sol\":2646:2727  for (uint256 i = 0; i < count; i++) {... */\n    tag_97:\n        /* \"src/eStock.sol\":2670:2675  count */\n      dup4\n        /* \"src/eStock.sol\":2666:2667  i */\n      dup2\n        /* \"src/eStock.sol\":2666:2675  i < count */\n      lt\n        /* \"src/eStock.sol\":2646:2727  for (uint256 i = 0; i < count; i++) {... */\n      iszero\n      tag_98\n      jumpi\n        /* \"src/eStock.sol\":2709:2713  temp */\n      dup3\n        /* \"src/eStock.sol\":2714:2715  i */\n      dup2\n        /* \"src/eStock.sol\":2709:2716  temp[i] */\n      dup2\n      mload\n      dup2\n      lt\n      tag_101\n      jumpi\n      tag_101\n      tag_54\n      jump\t// in\n    tag_101:\n      0x20\n      mul\n      0x20\n      add\n      add\n      mload\n        /* \"src/eStock.sol\":2696:2703  results */\n      dup3\n        /* \"src/eStock.sol\":2704:2705  i */\n      dup3\n        /* \"src/eStock.sol\":2696:2706  results[i] */\n      dup2\n      mload\n      dup2\n      lt\n      tag_103\n      jumpi\n      tag_103\n      tag_54\n      jump\t// in\n    tag_103:\n      0x20\n      swap1\n      dup2\n      mul\n      swap2\n      swap1\n      swap2\n      add\n      add\n        /* \"src/eStock.sol\":2696:2716  results[i] = temp[i] */\n      mstore\n        /* \"src/eStock.sol\":2677:2680  i++ */\n      0x01\n      add\n        /* \"src/eStock.sol\":2646:2727  for (uint256 i = 0; i < count; i++) {... */\n      jump(tag_97)\n    tag_98:\n      pop\n        /* \"src/eStock.sol\":2743:2750  results */\n      swap8\n        /* \"src/eStock.sol\":1815:2757  function getUserTransactionsByTime(... */\n      swap7\n      pop\n      pop\n      pop\n      pop\n      pop\n      pop\n      pop\n      jump\t// out\n        /* \"src/eStock.sol\":555:787  function recordTransaction(... */\n    tag_27:\n      sub(shl(0xa0, 0x01), 0x01)\n        /* \"src/eStock.sol\":703:725  userTransactions[user] */\n      dup1\n      dup5\n      and\n        /* \"src/eStock.sol\":703:719  userTransactions */\n      0x00\n        /* \"src/eStock.sol\":703:725  userTransactions[user] */\n      swap1\n      dup2\n      mstore\n      0x20\n      dup2\n      dup2\n      mstore\n      0x40\n      dup1\n      dup4\n      keccak256\n        /* \"src/eStock.sol\":731:779  Transaction(txType, to, amount, block.timestamp) */\n      dup2\n      mload\n      0x80\n      dup2\n      add\n      dup4\n      mstore\n      dup10\n      dup2\n      mstore\n      swap5\n      dup8\n      and\n      dup6\n      dup5\n      add\n      mstore\n      swap1\n      dup5\n      add\n      dup6\n      swap1\n      mstore\n        /* \"src/eStock.sol\":763:778  block.timestamp */\n      timestamp\n        /* \"src/eStock.sol\":731:779  Transaction(txType, to, amount, block.timestamp) */\n      0x60\n      dup6\n      add\n      mstore\n        /* \"src/eStock.sol\":703:780  userTransactions[user].push(Transaction(txType, to, amount, block.timestamp)) */\n      dup1\n      sload\n      0x01\n      dup2\n      add\n      dup3\n      sstore\n      swap1\n      dup4\n      mstore\n      swap2\n      keccak256\n      dup3\n      mload\n      0x04\n      swap1\n      swap3\n      mul\n      add\n      swap1\n      dup2\n      swap1\n      tag_106\n      swap1\n      dup3\n      tag_107\n      jump\t// in\n    tag_106:\n      pop\n      0x20\n      dup3\n      add\n      mload\n      0x01\n      dup3\n      add\n      dup1\n      sload\n      not(sub(shl(0xa0, 0x01), 0x01))\n      and\n      sub(shl(0xa0, 0x01), 0x01)\n      swap1\n      swap3\n      and\n      swap2\n      swap1\n      swap2\n      or\n      swap1\n      sstore\n      0x40\n      dup3\n      add\n      mload\n      0x02\n      dup3\n      add\n      sstore\n      0x60\n      swap1\n      swap2\n      add\n      mload\n      0x03\n      swap1\n      swap2\n      add\n      sstore\n      pop\n      pop\n      pop\n      pop\n        /* \"src/eStock.sol\":555:787  function recordTransaction(... */\n      jump\t// out\n    tag_38:\n      mload(0x40)\n      dup1\n      0x80\n      add\n      0x40\n      mstore\n      dup1\n      0x60\n      dup2\n      mstore\n      0x20\n      add\n      and(sub(shl(0xa0, 0x01), 0x01), 0x00)\n      dup2\n      mstore\n      0x20\n      add\n      0x00\n      dup2\n      mstore\n      0x20\n      add\n      0x00\n      dup2\n      mstore\n      pop\n      swap1\n      jump\t// out\n        /* \"#utility.yul\":14:187   */\n    tag_108:\n        /* \"#utility.yul\":82:102   */\n      dup1\n      calldataload\n      sub(shl(0xa0, 0x01), 0x01)\n        /* \"#utility.yul\":131:162   */\n      dup2\n      and\n        /* \"#utility.yul\":121:163   */\n      dup2\n      eq\n        /* \"#utility.yul\":111:181   */\n      tag_115\n      jumpi\n        /* \"#utility.yul\":177:178   */\n      0x00\n        /* \"#utility.yul\":174:175   */\n      dup1\n        /* \"#utility.yul\":167:179   */\n      revert\n        /* \"#utility.yul\":111:181   */\n    tag_115:\n        /* \"#utility.yul\":14:187   */\n      swap2\n      swap1\n      pop\n      jump\t// out\n        /* \"#utility.yul\":192:378   */\n    tag_9:\n        /* \"#utility.yul\":251:257   */\n      0x00\n        /* \"#utility.yul\":304:306   */\n      0x20\n        /* \"#utility.yul\":292:301   */\n      dup3\n        /* \"#utility.yul\":283:290   */\n      dup5\n        /* \"#utility.yul\":279:302   */\n      sub\n        /* \"#utility.yul\":275:307   */\n      slt\n        /* \"#utility.yul\":272:324   */\n      iszero\n      tag_117\n      jumpi\n        /* \"#utility.yul\":320:321   */\n      0x00\n        /* \"#utility.yul\":317:318   */\n      dup1\n        /* \"#utility.yul\":310:322   */\n      revert\n        /* \"#utility.yul\":272:324   */\n    tag_117:\n        /* \"#utility.yul\":343:372   */\n      tag_29\n        /* \"#utility.yul\":362:371   */\n      dup3\n        /* \"#utility.yul\":343:372   */\n      tag_108\n      jump\t// in\n        /* \"#utility.yul\":565:985   */\n    tag_15:\n        /* \"#utility.yul\":642:648   */\n      0x00\n        /* \"#utility.yul\":650:656   */\n      dup1\n        /* \"#utility.yul\":658:664   */\n      0x00\n        /* \"#utility.yul\":711:713   */\n      0x60\n        /* \"#utility.yul\":699:708   */\n      dup5\n        /* \"#utility.yul\":690:697   */\n      dup7\n        /* \"#utility.yul\":686:709   */\n      sub\n        /* \"#utility.yul\":682:714   */\n      slt\n        /* \"#utility.yul\":679:731   */\n      iszero\n      tag_121\n      jumpi\n        /* \"#utility.yul\":727:728   */\n      0x00\n        /* \"#utility.yul\":724:725   */\n      dup1\n        /* \"#utility.yul\":717:729   */\n      revert\n        /* \"#utility.yul\":679:731   */\n    tag_121:\n        /* \"#utility.yul\":750:779   */\n      tag_122\n        /* \"#utility.yul\":769:778   */\n      dup5\n        /* \"#utility.yul\":750:779   */\n      tag_108\n      jump\t// in\n    tag_122:\n        /* \"#utility.yul\":740:779   */\n      swap6\n        /* \"#utility.yul\":848:850   */\n      0x20\n        /* \"#utility.yul\":833:851   */\n      dup6\n      add\n        /* \"#utility.yul\":820:852   */\n      calldataload\n      swap6\n      pop\n        /* \"#utility.yul\":949:951   */\n      0x40\n        /* \"#utility.yul\":934:952   */\n      swap1\n      swap5\n      add\n        /* \"#utility.yul\":921:953   */\n      calldataload\n      swap4\n        /* \"#utility.yul\":565:985   */\n      swap3\n      pop\n      pop\n      pop\n      jump\t// out\n        /* \"#utility.yul\":990:2351   */\n    tag_18:\n        /* \"#utility.yul\":1188:1192   */\n      0x00\n        /* \"#utility.yul\":1236:1238   */\n      0x20\n        /* \"#utility.yul\":1225:1234   */\n      dup3\n        /* \"#utility.yul\":1221:1239   */\n      add\n        /* \"#utility.yul\":1266:1268   */\n      0x20\n        /* \"#utility.yul\":1255:1264   */\n      dup4\n        /* \"#utility.yul\":1248:1269   */\n      mstore\n        /* \"#utility.yul\":1289:1295   */\n      dup1\n        /* \"#utility.yul\":1324:1330   */\n      dup5\n        /* \"#utility.yul\":1318:1331   */\n      mload\n        /* \"#utility.yul\":1355:1361   */\n      dup1\n        /* \"#utility.yul\":1347:1353   */\n      dup4\n        /* \"#utility.yul\":1340:1362   */\n      mstore\n        /* \"#utility.yul\":1393:1395   */\n      0x40\n        /* \"#utility.yul\":1382:1391   */\n      dup6\n        /* \"#utility.yul\":1378:1396   */\n      add\n        /* \"#utility.yul\":1371:1396   */\n      swap2\n      pop\n        /* \"#utility.yul\":1455:1457   */\n      0x40\n        /* \"#utility.yul\":1445:1451   */\n      dup2\n        /* \"#utility.yul\":1442:1443   */\n      0x05\n        /* \"#utility.yul\":1438:1452   */\n      shl\n        /* \"#utility.yul\":1427:1436   */\n      dup7\n        /* \"#utility.yul\":1423:1453   */\n      add\n        /* \"#utility.yul\":1419:1458   */\n      add\n        /* \"#utility.yul\":1405:1458   */\n      swap3\n      pop\n        /* \"#utility.yul\":1493:1495   */\n      0x20\n        /* \"#utility.yul\":1485:1491   */\n      dup7\n        /* \"#utility.yul\":1481:1496   */\n      add\n        /* \"#utility.yul\":1514:1515   */\n      0x00\n        /* \"#utility.yul\":1524:2322   */\n    tag_124:\n        /* \"#utility.yul\":1538:1544   */\n      dup3\n        /* \"#utility.yul\":1535:1536   */\n      dup2\n        /* \"#utility.yul\":1532:1545   */\n      lt\n        /* \"#utility.yul\":1524:2322   */\n      iszero\n      tag_126\n      jumpi\n        /* \"#utility.yul\":1631:1633   */\n      0x3f\n        /* \"#utility.yul\":1627:1634   */\n      not\n        /* \"#utility.yul\":1615:1624   */\n      dup8\n        /* \"#utility.yul\":1607:1613   */\n      dup7\n        /* \"#utility.yul\":1603:1625   */\n      sub\n        /* \"#utility.yul\":1599:1635   */\n      add\n        /* \"#utility.yul\":1594:1597   */\n      dup5\n        /* \"#utility.yul\":1587:1636   */\n      mstore\n        /* \"#utility.yul\":1665:1671   */\n      dup2\n        /* \"#utility.yul\":1659:1672   */\n      mload\n        /* \"#utility.yul\":1711:1713   */\n      dup1\n        /* \"#utility.yul\":1705:1714   */\n      mload\n        /* \"#utility.yul\":1742:1746   */\n      0x80\n        /* \"#utility.yul\":1734:1740   */\n      dup8\n        /* \"#utility.yul\":1727:1747   */\n      mstore\n        /* \"#utility.yul\":1782:1794   */\n      dup1\n        /* \"#utility.yul\":1776:1795   */\n      mload\n        /* \"#utility.yul\":1834:1842   */\n      dup1\n        /* \"#utility.yul\":1827:1831   */\n      0x80\n        /* \"#utility.yul\":1819:1825   */\n      dup10\n        /* \"#utility.yul\":1815:1832   */\n      add\n        /* \"#utility.yul\":1808:1843   */\n      mstore\n        /* \"#utility.yul\":1903:1911   */\n      dup1\n        /* \"#utility.yul\":1898:1900   */\n      0x20\n        /* \"#utility.yul\":1884:1896   */\n      dup4\n        /* \"#utility.yul\":1880:1901   */\n      add\n        /* \"#utility.yul\":1874:1877   */\n      0xa0\n        /* \"#utility.yul\":1866:1872   */\n      dup11\n        /* \"#utility.yul\":1862:1878   */\n      add\n        /* \"#utility.yul\":1856:1912   */\n      mcopy\n        /* \"#utility.yul\":1965:1966   */\n      0x00\n        /* \"#utility.yul\":1959:1962   */\n      0xa0\n        /* \"#utility.yul\":1948:1956   */\n      dup3\n        /* \"#utility.yul\":1940:1946   */\n      dup11\n        /* \"#utility.yul\":1936:1957   */\n      add\n        /* \"#utility.yul\":1932:1963   */\n      add\n        /* \"#utility.yul\":1925:1967   */\n      mstore\n        /* \"#utility.yul\":2045:2046   */\n      0x01\n        /* \"#utility.yul\":2041:2042   */\n      dup1\n        /* \"#utility.yul\":2036:2039   */\n      0xa0\n        /* \"#utility.yul\":2032:2043   */\n      shl\n        /* \"#utility.yul\":2028:2047   */\n      sub\n        /* \"#utility.yul\":2022:2024   */\n      0x20\n        /* \"#utility.yul\":2018:2020   */\n      dup5\n        /* \"#utility.yul\":2014:2025   */\n      add\n        /* \"#utility.yul\":2008:2026   */\n      mload\n        /* \"#utility.yul\":2004:2048   */\n      and\n        /* \"#utility.yul\":1999:2001   */\n      0x20\n        /* \"#utility.yul\":1991:1997   */\n      dup10\n        /* \"#utility.yul\":1987:2002   */\n      add\n        /* \"#utility.yul\":1980:2049   */\n      mstore\n        /* \"#utility.yul\":2100:2102   */\n      0x40\n        /* \"#utility.yul\":2096:2098   */\n      dup4\n        /* \"#utility.yul\":2092:2103   */\n      add\n        /* \"#utility.yul\":2086:2104   */\n      mload\n        /* \"#utility.yul\":2081:2083   */\n      0x40\n        /* \"#utility.yul\":2073:2079   */\n      dup10\n        /* \"#utility.yul\":2069:2084   */\n      add\n        /* \"#utility.yul\":2062:2105   */\n      mstore\n        /* \"#utility.yul\":2158:2162   */\n      0x60\n        /* \"#utility.yul\":2154:2156   */\n      dup4\n        /* \"#utility.yul\":2150:2163   */\n      add\n        /* \"#utility.yul\":2144:2164   */\n      mload\n        /* \"#utility.yul\":2137:2141   */\n      0x60\n        /* \"#utility.yul\":2129:2135   */\n      dup10\n        /* \"#utility.yul\":2125:2142   */\n      add\n        /* \"#utility.yul\":2118:2165   */\n      mstore\n        /* \"#utility.yul\":2238:2241   */\n      0xa0\n        /* \"#utility.yul\":2231:2233   */\n      0x1f\n        /* \"#utility.yul\":2227:2234   */\n      not\n        /* \"#utility.yul\":2222:2224   */\n      0x1f\n        /* \"#utility.yul\":2212:2220   */\n      dup4\n        /* \"#utility.yul\":2208:2225   */\n      add\n        /* \"#utility.yul\":2204:2235   */\n      and\n        /* \"#utility.yul\":2196:2202   */\n      dup10\n        /* \"#utility.yul\":2192:2236   */\n      add\n        /* \"#utility.yul\":2188:2242   */\n      add\n        /* \"#utility.yul\":2178:2242   */\n      swap8\n      pop\n      pop\n      pop\n      pop\n        /* \"#utility.yul\":2277:2279   */\n      0x20\n        /* \"#utility.yul\":2269:2275   */\n      dup3\n        /* \"#utility.yul\":2265:2280   */\n      add\n        /* \"#utility.yul\":2255:2280   */\n      swap2\n      pop\n        /* \"#utility.yul\":2309:2311   */\n      0x20\n        /* \"#utility.yul\":2304:2307   */\n      dup5\n        /* \"#utility.yul\":2300:2312   */\n      add\n        /* \"#utility.yul\":2293:2312   */\n      swap4\n      pop\n        /* \"#utility.yul\":1560:1561   */\n      0x01\n        /* \"#utility.yul\":1557:1558   */\n      dup2\n        /* \"#utility.yul\":1553:1562   */\n      add\n        /* \"#utility.yul\":1548:1562   */\n      swap1\n      pop\n        /* \"#utility.yul\":1524:2322   */\n      jump(tag_124)\n    tag_126:\n      pop\n        /* \"#utility.yul\":2339:2345   */\n      swap3\n      swap7\n        /* \"#utility.yul\":990:2351   */\n      swap6\n      pop\n      pop\n      pop\n      pop\n      pop\n      pop\n      jump\t// out\n        /* \"#utility.yul\":2356:2897   */\n    tag_21:\n        /* \"#utility.yul\":2442:2448   */\n      0x00\n        /* \"#utility.yul\":2450:2456   */\n      dup1\n        /* \"#utility.yul\":2458:2464   */\n      0x00\n        /* \"#utility.yul\":2466:2472   */\n      dup1\n        /* \"#utility.yul\":2519:2522   */\n      0x80\n        /* \"#utility.yul\":2507:2516   */\n      dup6\n        /* \"#utility.yul\":2498:2505   */\n      dup8\n        /* \"#utility.yul\":2494:2517   */\n      sub\n        /* \"#utility.yul\":2490:2523   */\n      slt\n        /* \"#utility.yul\":2487:2540   */\n      iszero\n      tag_128\n      jumpi\n        /* \"#utility.yul\":2536:2537   */\n      0x00\n        /* \"#utility.yul\":2533:2534   */\n      dup1\n        /* \"#utility.yul\":2526:2538   */\n      revert\n        /* \"#utility.yul\":2487:2540   */\n    tag_128:\n        /* \"#utility.yul\":2559:2588   */\n      tag_129\n        /* \"#utility.yul\":2578:2587   */\n      dup6\n        /* \"#utility.yul\":2559:2588   */\n      tag_108\n      jump\t// in\n    tag_129:\n        /* \"#utility.yul\":2549:2588   */\n      swap7\n        /* \"#utility.yul\":2657:2659   */\n      0x20\n        /* \"#utility.yul\":2642:2660   */\n      dup7\n      add\n        /* \"#utility.yul\":2629:2661   */\n      calldataload\n      swap7\n      pop\n        /* \"#utility.yul\":2758:2760   */\n      0x40\n        /* \"#utility.yul\":2743:2761   */\n      dup7\n      add\n        /* \"#utility.yul\":2730:2762   */\n      calldataload\n      swap6\n        /* \"#utility.yul\":2861:2863   */\n      0x60\n        /* \"#utility.yul\":2846:2864   */\n      add\n        /* \"#utility.yul\":2833:2865   */\n      calldataload\n      swap5\n      pop\n        /* \"#utility.yul\":2356:2897   */\n      swap3\n      pop\n      pop\n      pop\n      jump\t// out\n        /* \"#utility.yul\":2902:3029   */\n    tag_34:\n        /* \"#utility.yul\":2963:2973   */\n      0x4e487b71\n        /* \"#utility.yul\":2958:2961   */\n      0xe0\n        /* \"#utility.yul\":2954:2974   */\n      shl\n        /* \"#utility.yul\":2951:2952   */\n      0x00\n        /* \"#utility.yul\":2944:2975   */\n      mstore\n        /* \"#utility.yul\":2994:2998   */\n      0x41\n        /* \"#utility.yul\":2991:2992   */\n      0x04\n        /* \"#utility.yul\":2984:2999   */\n      mstore\n        /* \"#utility.yul\":3018:3022   */\n      0x24\n        /* \"#utility.yul\":3015:3016   */\n      0x00\n        /* \"#utility.yul\":3008:3023   */\n      revert\n        /* \"#utility.yul\":3034:4252   */\n    tag_26:\n        /* \"#utility.yul\":3130:3136   */\n      0x00\n        /* \"#utility.yul\":3138:3144   */\n      dup1\n        /* \"#utility.yul\":3146:3152   */\n      0x00\n        /* \"#utility.yul\":3154:3160   */\n      dup1\n        /* \"#utility.yul\":3207:3210   */\n      0x80\n        /* \"#utility.yul\":3195:3204   */\n      dup6\n        /* \"#utility.yul\":3186:3193   */\n      dup8\n        /* \"#utility.yul\":3182:3205   */\n      sub\n        /* \"#utility.yul\":3178:3211   */\n      slt\n        /* \"#utility.yul\":3175:3228   */\n      iszero\n      tag_132\n      jumpi\n        /* \"#utility.yul\":3224:3225   */\n      0x00\n        /* \"#utility.yul\":3221:3222   */\n      dup1\n        /* \"#utility.yul\":3214:3226   */\n      revert\n        /* \"#utility.yul\":3175:3228   */\n    tag_132:\n        /* \"#utility.yul\":3251:3274   */\n      dup5\n      calldataload\n      sub(shl(0x40, 0x01), 0x01)\n        /* \"#utility.yul\":3286:3316   */\n      dup2\n      gt\n        /* \"#utility.yul\":3283:3333   */\n      iszero\n      tag_133\n      jumpi\n        /* \"#utility.yul\":3329:3330   */\n      0x00\n        /* \"#utility.yul\":3326:3327   */\n      dup1\n        /* \"#utility.yul\":3319:3331   */\n      revert\n        /* \"#utility.yul\":3283:3333   */\n    tag_133:\n        /* \"#utility.yul\":3352:3374   */\n      dup6\n      add\n        /* \"#utility.yul\":3405:3409   */\n      0x1f\n        /* \"#utility.yul\":3397:3410   */\n      dup2\n      add\n        /* \"#utility.yul\":3393:3420   */\n      dup8\n      sgt\n        /* \"#utility.yul\":3383:3438   */\n      tag_134\n      jumpi\n        /* \"#utility.yul\":3434:3435   */\n      0x00\n        /* \"#utility.yul\":3431:3432   */\n      dup1\n        /* \"#utility.yul\":3424:3436   */\n      revert\n        /* \"#utility.yul\":3383:3438   */\n    tag_134:\n        /* \"#utility.yul\":3461:3477   */\n      dup1\n      calldataload\n      sub(shl(0x40, 0x01), 0x01)\n        /* \"#utility.yul\":3489:3519   */\n      dup2\n      gt\n        /* \"#utility.yul\":3486:3542   */\n      iszero\n      tag_136\n      jumpi\n        /* \"#utility.yul\":3522:3540   */\n      tag_136\n      tag_34\n      jump\t// in\n    tag_136:\n        /* \"#utility.yul\":3571:3573   */\n      0x40\n        /* \"#utility.yul\":3565:3574   */\n      mload\n        /* \"#utility.yul\":3663:3665   */\n      0x1f\n        /* \"#utility.yul\":3625:3642   */\n      dup3\n      add\n      not(0x1f)\n        /* \"#utility.yul\":3621:3652   */\n      swap1\n      dup2\n      and\n        /* \"#utility.yul\":3654:3656   */\n      0x3f\n        /* \"#utility.yul\":3617:3657   */\n      add\n        /* \"#utility.yul\":3613:3667   */\n      and\n        /* \"#utility.yul\":3601:3668   */\n      dup2\n      add\n      sub(shl(0x40, 0x01), 0x01)\n        /* \"#utility.yul\":3683:3717   */\n      dup2\n      gt\n        /* \"#utility.yul\":3719:3741   */\n      dup3\n      dup3\n      lt\n        /* \"#utility.yul\":3680:3742   */\n      or\n        /* \"#utility.yul\":3677:3765   */\n      iszero\n      tag_138\n      jumpi\n        /* \"#utility.yul\":3745:3763   */\n      tag_138\n      tag_34\n      jump\t// in\n    tag_138:\n        /* \"#utility.yul\":3781:3783   */\n      0x40\n        /* \"#utility.yul\":3774:3796   */\n      mstore\n        /* \"#utility.yul\":3805:3827   */\n      dup2\n      dup2\n      mstore\n        /* \"#utility.yul\":3846:3861   */\n      dup3\n      dup3\n      add\n        /* \"#utility.yul\":3863:3867   */\n      0x20\n        /* \"#utility.yul\":3842:3868   */\n      add\n        /* \"#utility.yul\":3839:3878   */\n      dup10\n      lt\n        /* \"#utility.yul\":3836:3895   */\n      iszero\n      tag_139\n      jumpi\n        /* \"#utility.yul\":3891:3892   */\n      0x00\n        /* \"#utility.yul\":3888:3889   */\n      dup1\n        /* \"#utility.yul\":3881:3893   */\n      revert\n        /* \"#utility.yul\":3836:3895   */\n    tag_139:\n        /* \"#utility.yul\":3951:3957   */\n      dup2\n        /* \"#utility.yul\":3944:3948   */\n      0x20\n        /* \"#utility.yul\":3940:3942   */\n      dup5\n        /* \"#utility.yul\":3936:3949   */\n      add\n        /* \"#utility.yul\":3929:3933   */\n      0x20\n        /* \"#utility.yul\":3921:3927   */\n      dup4\n        /* \"#utility.yul\":3917:3934   */\n      add\n        /* \"#utility.yul\":3904:3958   */\n      calldatacopy\n        /* \"#utility.yul\":4006:4007   */\n      0x00\n        /* \"#utility.yul\":3999:4003   */\n      0x20\n        /* \"#utility.yul\":3990:3996   */\n      dup4\n        /* \"#utility.yul\":3982:3988   */\n      dup4\n        /* \"#utility.yul\":3978:3997   */\n      add\n        /* \"#utility.yul\":3974:4004   */\n      add\n        /* \"#utility.yul\":3967:4008   */\n      mstore\n        /* \"#utility.yul\":4027:4033   */\n      dup1\n        /* \"#utility.yul\":4017:4033   */\n      swap7\n      pop\n      pop\n      pop\n      pop\n        /* \"#utility.yul\":4052:4092   */\n      tag_140\n        /* \"#utility.yul\":4086:4090   */\n      0x20\n        /* \"#utility.yul\":4075:4084   */\n      dup7\n        /* \"#utility.yul\":4071:4091   */\n      add\n        /* \"#utility.yul\":4052:4092   */\n      tag_108\n      jump\t// in\n    tag_140:\n        /* \"#utility.yul\":4042:4092   */\n      swap3\n      pop\n        /* \"#utility.yul\":4111:4149   */\n      tag_141\n        /* \"#utility.yul\":4145:4147   */\n      0x40\n        /* \"#utility.yul\":4134:4143   */\n      dup7\n        /* \"#utility.yul\":4130:4148   */\n      add\n        /* \"#utility.yul\":4111:4149   */\n      tag_108\n      jump\t// in\n    tag_141:\n        /* \"#utility.yul\":3034:4252   */\n      swap4\n      swap7\n      swap3\n      swap6\n      pop\n        /* \"#utility.yul\":4101:4149   */\n      swap3\n      swap4\n        /* \"#utility.yul\":4218:4220   */\n      0x60\n        /* \"#utility.yul\":4203:4221   */\n      add\n        /* \"#utility.yul\":4190:4222   */\n      calldataload\n      swap3\n      pop\n      pop\n        /* \"#utility.yul\":3034:4252   */\n      jump\t// out\n        /* \"#utility.yul\":4257:4384   */\n    tag_109:\n        /* \"#utility.yul\":4318:4328   */\n      0x4e487b71\n        /* \"#utility.yul\":4313:4316   */\n      0xe0\n        /* \"#utility.yul\":4309:4329   */\n      shl\n        /* \"#utility.yul\":4306:4307   */\n      0x00\n        /* \"#utility.yul\":4299:4330   */\n      mstore\n        /* \"#utility.yul\":4349:4353   */\n      0x11\n        /* \"#utility.yul\":4346:4347   */\n      0x04\n        /* \"#utility.yul\":4339:4354   */\n      mstore\n        /* \"#utility.yul\":4373:4377   */\n      0x24\n        /* \"#utility.yul\":4370:4371   */\n      0x00\n        /* \"#utility.yul\":4363:4378   */\n      revert\n        /* \"#utility.yul\":4389:4514   */\n    tag_40:\n        /* \"#utility.yul\":4454:4463   */\n      dup1\n      dup3\n      add\n        /* \"#utility.yul\":4475:4485   */\n      dup1\n      dup3\n      gt\n        /* \"#utility.yul\":4472:4508   */\n      iszero\n      tag_145\n      jumpi\n        /* \"#utility.yul\":4488:4506   */\n      tag_145\n      tag_109\n      jump\t// in\n    tag_145:\n        /* \"#utility.yul\":4389:4514   */\n      swap3\n      swap2\n      pop\n      pop\n      jump\t// out\n        /* \"#utility.yul\":4519:4647   */\n    tag_43:\n        /* \"#utility.yul\":4586:4595   */\n      dup2\n      dup2\n      sub\n        /* \"#utility.yul\":4607:4618   */\n      dup2\n      dup2\n      gt\n        /* \"#utility.yul\":4604:4641   */\n      iszero\n      tag_145\n      jumpi\n        /* \"#utility.yul\":4621:4639   */\n      tag_145\n      tag_109\n      jump\t// in\n        /* \"#utility.yul\":4652:4779   */\n    tag_54:\n        /* \"#utility.yul\":4713:4723   */\n      0x4e487b71\n        /* \"#utility.yul\":4708:4711   */\n      0xe0\n        /* \"#utility.yul\":4704:4724   */\n      shl\n        /* \"#utility.yul\":4701:4702   */\n      0x00\n        /* \"#utility.yul\":4694:4725   */\n      mstore\n        /* \"#utility.yul\":4744:4748   */\n      0x32\n        /* \"#utility.yul\":4741:4742   */\n      0x04\n        /* \"#utility.yul\":4734:4749   */\n      mstore\n        /* \"#utility.yul\":4768:4772   */\n      0x24\n        /* \"#utility.yul\":4765:4766   */\n      0x00\n        /* \"#utility.yul\":4758:4773   */\n      revert\n        /* \"#utility.yul\":4784:5164   */\n    tag_57:\n        /* \"#utility.yul\":4863:4864   */\n      0x01\n        /* \"#utility.yul\":4859:4871   */\n      dup2\n      dup2\n      shr\n      swap1\n        /* \"#utility.yul\":4906:4918   */\n      dup3\n      and\n      dup1\n        /* \"#utility.yul\":4927:4988   */\n      tag_151\n      jumpi\n        /* \"#utility.yul\":4981:4985   */\n      0x7f\n        /* \"#utility.yul\":4973:4979   */\n      dup3\n        /* \"#utility.yul\":4969:4986   */\n      and\n        /* \"#utility.yul\":4959:4986   */\n      swap2\n      pop\n        /* \"#utility.yul\":4927:4988   */\n    tag_151:\n        /* \"#utility.yul\":5034:5036   */\n      0x20\n        /* \"#utility.yul\":5026:5032   */\n      dup3\n        /* \"#utility.yul\":5023:5037   */\n      lt\n        /* \"#utility.yul\":5003:5021   */\n      dup2\n        /* \"#utility.yul\":5000:5038   */\n      sub\n        /* \"#utility.yul\":4997:5158   */\n      tag_152\n      jumpi\n        /* \"#utility.yul\":5080:5090   */\n      0x4e487b71\n        /* \"#utility.yul\":5075:5078   */\n      0xe0\n        /* \"#utility.yul\":5071:5091   */\n      shl\n        /* \"#utility.yul\":5068:5069   */\n      0x00\n        /* \"#utility.yul\":5061:5092   */\n      mstore\n        /* \"#utility.yul\":5115:5119   */\n      0x22\n        /* \"#utility.yul\":5112:5113   */\n      0x04\n        /* \"#utility.yul\":5105:5120   */\n      mstore\n        /* \"#utility.yul\":5143:5147   */\n      0x24\n        /* \"#utility.yul\":5140:5141   */\n      0x00\n        /* \"#utility.yul\":5133:5148   */\n      revert\n        /* \"#utility.yul\":4997:5158   */\n    tag_152:\n      pop\n        /* \"#utility.yul\":4784:5164   */\n      swap2\n      swap1\n      pop\n      jump\t// out\n        /* \"#utility.yul\":5169:5304   */\n    tag_88:\n        /* \"#utility.yul\":5208:5211   */\n      0x00\n        /* \"#utility.yul\":5229:5246   */\n      0x01\n      dup3\n      add\n        /* \"#utility.yul\":5226:5269   */\n      tag_155\n      jumpi\n        /* \"#utility.yul\":5249:5267   */\n      tag_155\n      tag_109\n      jump\t// in\n    tag_155:\n      pop\n        /* \"#utility.yul\":5296:5297   */\n      0x01\n        /* \"#utility.yul\":5285:5298   */\n      add\n      swap1\n        /* \"#utility.yul\":5169:5304   */\n      jump\t// out\n        /* \"#utility.yul\":5309:5445   */\n    tag_91:\n        /* \"#utility.yul\":5348:5351   */\n      0x00\n        /* \"#utility.yul\":5376:5381   */\n      dup2\n        /* \"#utility.yul\":5366:5405   */\n      tag_158\n      jumpi\n        /* \"#utility.yul\":5385:5403   */\n      tag_158\n      tag_109\n      jump\t// in\n    tag_158:\n      pop\n      not(0x00)\n        /* \"#utility.yul\":5421:5439   */\n      add\n      swap1\n        /* \"#utility.yul\":5309:5445   */\n      jump\t// out\n        /* \"#utility.yul\":5576:6094   */\n    tag_111:\n        /* \"#utility.yul\":5678:5680   */\n      0x1f\n        /* \"#utility.yul\":5673:5676   */\n      dup3\n        /* \"#utility.yul\":5670:5681   */\n      gt\n        /* \"#utility.yul\":5667:6088   */\n      iszero\n      tag_161\n      jumpi\n        /* \"#utility.yul\":5714:5719   */\n      dup1\n        /* \"#utility.yul\":5711:5712   */\n      0x00\n        /* \"#utility.yul\":5704:5720   */\n      mstore\n        /* \"#utility.yul\":5758:5762   */\n      0x20\n        /* \"#utility.yul\":5755:5756   */\n      0x00\n        /* \"#utility.yul\":5745:5763   */\n      keccak256\n        /* \"#utility.yul\":5828:5830   */\n      0x1f\n        /* \"#utility.yul\":5816:5826   */\n      dup5\n        /* \"#utility.yul\":5812:5831   */\n      add\n        /* \"#utility.yul\":5809:5810   */\n      0x05\n        /* \"#utility.yul\":5805:5832   */\n      shr\n        /* \"#utility.yul\":5799:5803   */\n      dup2\n        /* \"#utility.yul\":5795:5833   */\n      add\n        /* \"#utility.yul\":5864:5868   */\n      0x20\n        /* \"#utility.yul\":5852:5862   */\n      dup6\n        /* \"#utility.yul\":5849:5869   */\n      lt\n        /* \"#utility.yul\":5846:5893   */\n      iszero\n      tag_162\n      jumpi\n      pop\n        /* \"#utility.yul\":5887:5891   */\n      dup1\n        /* \"#utility.yul\":5846:5893   */\n    tag_162:\n        /* \"#utility.yul\":5942:5944   */\n      0x1f\n        /* \"#utility.yul\":5937:5940   */\n      dup5\n        /* \"#utility.yul\":5933:5945   */\n      add\n        /* \"#utility.yul\":5930:5931   */\n      0x05\n        /* \"#utility.yul\":5926:5946   */\n      shr\n        /* \"#utility.yul\":5920:5924   */\n      dup3\n        /* \"#utility.yul\":5916:5947   */\n      add\n        /* \"#utility.yul\":5906:5947   */\n      swap2\n      pop\n        /* \"#utility.yul\":5997:6078   */\n    tag_163:\n        /* \"#utility.yul\":6015:6017   */\n      dup2\n        /* \"#utility.yul\":6008:6013   */\n      dup2\n        /* \"#utility.yul\":6005:6018   */\n      lt\n        /* \"#utility.yul\":5997:6078   */\n      iszero\n      tag_165\n      jumpi\n        /* \"#utility.yul\":6074:6075   */\n      0x00\n        /* \"#utility.yul\":6060:6076   */\n      dup2\n      sstore\n        /* \"#utility.yul\":6041:6042   */\n      0x01\n        /* \"#utility.yul\":6030:6043   */\n      add\n        /* \"#utility.yul\":5997:6078   */\n      jump(tag_163)\n    tag_165:\n        /* \"#utility.yul\":6001:6004   */\n      pop\n      pop\n        /* \"#utility.yul\":5667:6088   */\n    tag_161:\n        /* \"#utility.yul\":5576:6094   */\n      pop\n      pop\n      pop\n      jump\t// out\n        /* \"#utility.yul\":6270:7569   */\n    tag_107:\n        /* \"#utility.yul\":6390:6400   */\n      dup2\n      mload\n      sub(shl(0x40, 0x01), 0x01)\n        /* \"#utility.yul\":6412:6442   */\n      dup2\n      gt\n        /* \"#utility.yul\":6409:6465   */\n      iszero\n      tag_169\n      jumpi\n        /* \"#utility.yul\":6445:6463   */\n      tag_169\n      tag_34\n      jump\t// in\n    tag_169:\n        /* \"#utility.yul\":6474:6571   */\n      tag_170\n        /* \"#utility.yul\":6564:6570   */\n      dup2\n        /* \"#utility.yul\":6524:6562   */\n      tag_171\n        /* \"#utility.yul\":6556:6560   */\n      dup5\n        /* \"#utility.yul\":6550:6561   */\n      sload\n        /* \"#utility.yul\":6524:6562   */\n      tag_57\n      jump\t// in\n    tag_171:\n        /* \"#utility.yul\":6518:6522   */\n      dup5\n        /* \"#utility.yul\":6474:6571   */\n      tag_111\n      jump\t// in\n    tag_170:\n        /* \"#utility.yul\":6620:6624   */\n      0x20\n        /* \"#utility.yul\":6651:6653   */\n      0x1f\n        /* \"#utility.yul\":6640:6654   */\n      dup3\n      gt\n        /* \"#utility.yul\":6668:6669   */\n      0x01\n        /* \"#utility.yul\":6663:7312   */\n      dup2\n      eq\n      tag_173\n      jumpi\n        /* \"#utility.yul\":7356:7357   */\n      0x00\n        /* \"#utility.yul\":7373:7379   */\n      dup4\n        /* \"#utility.yul\":7370:7459   */\n      iszero\n      tag_174\n      jumpi\n      pop\n        /* \"#utility.yul\":7425:7444   */\n      dup5\n      dup3\n      add\n        /* \"#utility.yul\":7419:7445   */\n      mload\n        /* \"#utility.yul\":7370:7459   */\n    tag_174:\n      not(0x00)\n        /* \"#utility.yul\":6227:6228   */\n      0x03\n        /* \"#utility.yul\":6223:6234   */\n      dup6\n      swap1\n      shl\n        /* \"#utility.yul\":6219:6243   */\n      shr\n        /* \"#utility.yul\":6215:6244   */\n      not\n        /* \"#utility.yul\":6205:6245   */\n      and\n        /* \"#utility.yul\":6251:6252   */\n      0x01\n        /* \"#utility.yul\":6247:6258   */\n      dup5\n      swap1\n      shl\n        /* \"#utility.yul\":6202:6259   */\n      or\n        /* \"#utility.yul\":7472:7553   */\n      dup5\n      sstore\n        /* \"#utility.yul\":6633:7563   */\n      jump(tag_165)\n        /* \"#utility.yul\":6663:7312   */\n    tag_173:\n        /* \"#utility.yul\":5523:5524   */\n      0x00\n        /* \"#utility.yul\":5516:5530   */\n      dup5\n      dup2\n      mstore\n        /* \"#utility.yul\":5560:5564   */\n      0x20\n        /* \"#utility.yul\":5547:5565   */\n      dup2\n      keccak256\n      not(0x1f)\n        /* \"#utility.yul\":6699:6719   */\n      dup6\n      and\n      swap2\n        /* \"#utility.yul\":6817:7039   */\n    tag_177:\n        /* \"#utility.yul\":6831:6838   */\n      dup3\n        /* \"#utility.yul\":6828:6829   */\n      dup2\n        /* \"#utility.yul\":6825:6839   */\n      lt\n        /* \"#utility.yul\":6817:7039   */\n      iszero\n      tag_179\n      jumpi\n        /* \"#utility.yul\":6913:6932   */\n      dup8\n      dup6\n      add\n        /* \"#utility.yul\":6907:6933   */\n      mload\n        /* \"#utility.yul\":6892:6934   */\n      dup3\n      sstore\n        /* \"#utility.yul\":7020:7024   */\n      0x20\n        /* \"#utility.yul\":7005:7025   */\n      swap5\n      dup6\n      add\n      swap5\n        /* \"#utility.yul\":6973:6974   */\n      0x01\n        /* \"#utility.yul\":6961:6975   */\n      swap1\n      swap3\n      add\n      swap2\n        /* \"#utility.yul\":6847:6859   */\n      add\n        /* \"#utility.yul\":6817:7039   */\n      jump(tag_177)\n    tag_179:\n        /* \"#utility.yul\":6821:6824   */\n      pop\n        /* \"#utility.yul\":7067:7073   */\n      dup5\n        /* \"#utility.yul\":7058:7065   */\n      dup3\n        /* \"#utility.yul\":7055:7074   */\n      lt\n        /* \"#utility.yul\":7052:7253   */\n      iszero\n      tag_180\n      jumpi\n        /* \"#utility.yul\":7128:7147   */\n      dup7\n      dup5\n      add\n        /* \"#utility.yul\":7122:7148   */\n      mload\n      not(0x00)\n        /* \"#utility.yul\":7211:7212   */\n      0x03\n        /* \"#utility.yul\":7207:7221   */\n      dup8\n      swap1\n      shl\n        /* \"#utility.yul\":7223:7226   */\n      0xf8\n        /* \"#utility.yul\":7203:7227   */\n      and\n        /* \"#utility.yul\":7199:7236   */\n      shr\n        /* \"#utility.yul\":7195:7237   */\n      not\n        /* \"#utility.yul\":7180:7238   */\n      and\n        /* \"#utility.yul\":7165:7239   */\n      dup2\n      sstore\n        /* \"#utility.yul\":7052:7253   */\n    tag_180:\n      pop\n      pop\n      pop\n      pop\n        /* \"#utility.yul\":7299:7300   */\n      0x01\n        /* \"#utility.yul\":7283:7297   */\n      swap1\n      dup2\n      shl\n        /* \"#utility.yul\":7279:7301   */\n      add\n        /* \"#utility.yul\":7266:7302   */\n      swap1\n      sstore\n      pop\n        /* \"#utility.yul\":6270:7569   */\n      jump\t// out\n\n    auxdata: 0xa264697066735822122055f5affba60f3e9ff5af76ea185d1631fd4b37311f14fcb439f27659704070c764736f6c634300081a0033\n}\n",
				"bytecode": {
					"linkReferences": {},
					"object": "6080604052348015600e575f80fd5b50610a898061001c5f395ff3fe608060405234801561000f575f80fd5b506004361061004a575f3560e01c806323ca0cd21461004e57806337526fca146100895780637437f9ab146100a9578063ab0ee682146100bc575b5f80fd5b61007661005c366004610675565b6001600160a01b03165f9081526020819052604090205490565b6040519081526020015b60405180910390f35b61009c61009736600461068e565b6100d1565b60405161008091906106be565b61009c6100b7366004610772565b6102e9565b6100cf6100ca3660046107bc565b610590565b005b6001600160a01b0383165f908152602081905260409020546060908015806100f95750808410155b1561013757604080515f808252602082019092529061012e565b61011b61062c565b8152602001906001900390816101135790505b509150506102e2565b5f61014284866108a8565b90508181111561014f5750805b5f61015a86836108c1565b6001600160401b03811115610171576101716107a8565b6040519080825280602002602001820160405280156101aa57816020015b61019761062c565b81526020019060019003908161018f5790505b509050855b828110156102dc576001600160a01b0388165f9081526020819052604090208054829081106101e0576101e06108d4565b905f5260205f2090600402016040518060800160405290815f82018054610206906108e8565b80601f0160208091040260200160405190810160405280929190818152602001828054610232906108e8565b801561027d5780601f106102545761010080835404028352916020019161027d565b820191905f5260205f20905b81548152906001019060200180831161026057829003601f168201915b505050918352505060018201546001600160a01b0316602082015260028201546040820152600390910154606090910152826102b989846108c1565b815181106102c9576102c96108d4565b60209081029190910101526001016101af565b50925050505b9392505050565b6001600160a01b0384165f908152602081905260408120546060919081906001600160401b0381111561031e5761031e6107a8565b60405190808252806020026020018201604052801561035757816020015b61034461062c565b81526020019060019003908161033c5790505b506001600160a01b0388165f908152602081905260409020549091505b80156104e5576001600160a01b0388165f90815260208190526040812061039c6001846108c1565b815481106103ac576103ac6108d4565b905f5260205f2090600402016040518060800160405290815f820180546103d2906108e8565b80601f01602080910402602001604051908101604052809291908181526020018280546103fe906108e8565b80156104495780601f1061042057610100808354040283529160200191610449565b820191905f5260205f20905b81548152906001019060200180831161042c57829003601f168201915b505050918352505060018201546001600160a01b031660208201526002820154604082015260039091015460609182015281015190915088111561048d57506104e5565b868160600151116104c557808385815181106104ab576104ab6108d4565b602002602001018190525083806104c190610920565b9450505b8584106104d257506104e5565b50806104dd81610938565b915050610374565b505f826001600160401b038111156104ff576104ff6107a8565b60405190808252806020026020018201604052801561053857816020015b61052561062c565b81526020019060019003908161051d5790505b5090505f5b8381101561058457828181518110610557576105576108d4565b6020026020010151828281518110610571576105716108d4565b602090810291909101015260010161053d565b50979650505050505050565b6001600160a01b038084165f908152602081815260408083208151608081018352898152948716858401529084018590524260608501528054600181018255908352912082516004909202019081906105e99082610999565b5060208201516001820180546001600160a01b0319166001600160a01b039092169190911790556040820151600282015560609091015160039091015550505050565b6040518060800160405280606081526020015f6001600160a01b031681526020015f81526020015f81525090565b80356001600160a01b0381168114610670575f80fd5b919050565b5f60208284031215610685575f80fd5b6102e28261065a565b5f805f606084860312156106a0575f80fd5b6106a98461065a565b95602085013595506040909401359392505050565b5f602082016020835280845180835260408501915060408160051b8601019250602086015f5b8281101561076657603f1987860301845281518051608087528051806080890152806020830160a08a015e5f60a0828a01015260018060a01b036020840151166020890152604083015160408901526060830151606089015260a0601f19601f83011689010197505050506020820191506020840193506001810190506106e4565b50929695505050505050565b5f805f8060808587031215610785575f80fd5b61078e8561065a565b966020860135965060408601359560600135945092505050565b634e487b7160e01b5f52604160045260245ffd5b5f805f80608085870312156107cf575f80fd5b84356001600160401b038111156107e4575f80fd5b8501601f810187136107f4575f80fd5b80356001600160401b0381111561080d5761080d6107a8565b604051601f8201601f19908116603f011681016001600160401b038111828210171561083b5761083b6107a8565b604052818152828201602001891015610852575f80fd5b816020840160208301375f602083830101528096505050506108766020860161065a565b92506108846040860161065a565b9396929550929360600135925050565b634e487b7160e01b5f52601160045260245ffd5b808201808211156108bb576108bb610894565b92915050565b818103818111156108bb576108bb610894565b634e487b7160e01b5f52603260045260245ffd5b600181811c908216806108fc57607f821691505b60208210810361091a57634e487b7160e01b5f52602260045260245ffd5b50919050565b5f6001820161093157610931610894565b5060010190565b5f8161094657610946610894565b505f190190565b601f82111561099457805f5260205f20601f840160051c810160208510156109725750805b601f840160051c820191505b81811015610991575f815560010161097e565b50505b505050565b81516001600160401b038111156109b2576109b26107a8565b6109c6816109c084546108e8565b8461094d565b6020601f8211600181146109f8575f83156109e15750848201515b5f19600385901b1c1916600184901b178455610991565b5f84815260208120601f198516915b82811015610a275787850151825560209485019460019092019101610a07565b5084821015610a4457868401515f19600387901b60f8161c191681555b50505050600190811b0190555056fea264697066735822122055f5affba60f3e9ff5af76ea185d1631fd4b37311f14fcb439f27659704070c764736f6c634300081a0033",
					"opcodes": "PUSH1 0x80 PUSH1 0x40 MSTORE CALLVALUE DUP1 ISZERO PUSH1 0xE JUMPI PUSH0 DUP1 REVERT JUMPDEST POP PUSH2 0xA89 DUP1 PUSH2 0x1C PUSH0 CODECOPY PUSH0 RETURN INVALID PUSH1 0x80 PUSH1 0x40 MSTORE CALLVALUE DUP1 ISZERO PUSH2 0xF JUMPI PUSH0 DUP1 REVERT JUMPDEST POP PUSH1 0x4 CALLDATASIZE LT PUSH2 0x4A JUMPI PUSH0 CALLDATALOAD PUSH1 0xE0 SHR DUP1 PUSH4 0x23CA0CD2 EQ PUSH2 0x4E JUMPI DUP1 PUSH4 0x37526FCA EQ PUSH2 0x89 JUMPI DUP1 PUSH4 0x7437F9AB EQ PUSH2 0xA9 JUMPI DUP1 PUSH4 0xAB0EE682 EQ PUSH2 0xBC JUMPI JUMPDEST PUSH0 DUP1 REVERT JUMPDEST PUSH2 0x76 PUSH2 0x5C CALLDATASIZE PUSH1 0x4 PUSH2 0x675 JUMP JUMPDEST PUSH1 0x1 PUSH1 0x1 PUSH1 0xA0 SHL SUB AND PUSH0 SWAP1 DUP2 MSTORE PUSH1 0x20 DUP2 SWAP1 MSTORE PUSH1 0x40 SWAP1 KECCAK256 SLOAD SWAP1 JUMP JUMPDEST PUSH1 0x40 MLOAD SWAP1 DUP2 MSTORE PUSH1 0x20 ADD JUMPDEST PUSH1 0x40 MLOAD DUP1 SWAP2 SUB SWAP1 RETURN JUMPDEST PUSH2 0x9C PUSH2 0x97 CALLDATASIZE PUSH1 0x4 PUSH2 0x68E JUMP JUMPDEST PUSH2 0xD1 JUMP JUMPDEST PUSH1 0x40 MLOAD PUSH2 0x80 SWAP2 SWAP1 PUSH2 0x6BE JUMP JUMPDEST PUSH2 0x9C PUSH2 0xB7 CALLDATASIZE PUSH1 0x4 PUSH2 0x772 JUMP JUMPDEST PUSH2 0x2E9 JUMP JUMPDEST PUSH2 0xCF PUSH2 0xCA CALLDATASIZE PUSH1 0x4 PUSH2 0x7BC JUMP JUMPDEST PUSH2 0x590 JUMP JUMPDEST STOP JUMPDEST PUSH1 0x1 PUSH1 0x1 PUSH1 0xA0 SHL SUB DUP4 AND PUSH0 SWAP1 DUP2 MSTORE PUSH1 0x20 DUP2 SWAP1 MSTORE PUSH1 0x40 SWAP1 KECCAK256 SLOAD PUSH1 0x60 SWAP1 DUP1 ISZERO DUP1 PUSH2 0xF9 JUMPI POP DUP1 DUP5 LT ISZERO JUMPDEST ISZERO PUSH2 0x137 JUMPI PUSH1 0x40 DUP1 MLOAD PUSH0 DUP1 DUP3 MSTORE PUSH1 0x20 DUP3 ADD SWAP1 SWAP3 MSTORE SWAP1 PUSH2 0x12E JUMP JUMPDEST PUSH2 0x11B PUSH2 0x62C JUMP JUMPDEST DUP2 MSTORE PUSH1 0x20 ADD SWAP1 PUSH1 0x1 SWAP1 SUB SWAP1 DUP2 PUSH2 0x113 JUMPI SWAP1 POP JUMPDEST POP SWAP2 POP POP PUSH2 0x2E2 JUMP JUMPDEST PUSH0 PUSH2 0x142 DUP5 DUP7 PUSH2 0x8A8 JUMP JUMPDEST SWAP1 POP DUP2 DUP2 GT ISZERO PUSH2 0x14F JUMPI POP DUP1 JUMPDEST PUSH0 PUSH2 0x15A DUP7 DUP4 PUSH2 0x8C1 JUMP JUMPDEST PUSH1 0x1 PUSH1 0x1 PUSH1 0x40 SHL SUB DUP2 GT ISZERO PUSH2 0x171 JUMPI PUSH2 0x171 PUSH2 0x7A8 JUMP JUMPDEST PUSH1 0x40 MLOAD SWAP1 DUP1 DUP3 MSTORE DUP1 PUSH1 0x20 MUL PUSH1 0x20 ADD DUP3 ADD PUSH1 0x40 MSTORE DUP1 ISZERO PUSH2 0x1AA JUMPI DUP2 PUSH1 0x20 ADD JUMPDEST PUSH2 0x197 PUSH2 0x62C JUMP JUMPDEST DUP2 MSTORE PUSH1 0x20 ADD SWAP1 PUSH1 0x1 SWAP1 SUB SWAP1 DUP2 PUSH2 0x18F JUMPI SWAP1 POP JUMPDEST POP SWAP1 POP DUP6 JUMPDEST DUP3 DUP2 LT ISZERO PUSH2 0x2DC JUMPI PUSH1 0x1 PUSH1 0x1 PUSH1 0xA0 SHL SUB DUP9 AND PUSH0 SWAP1 DUP2 MSTORE PUSH1 0x20 DUP2 SWAP1 MSTORE PUSH1 0x40 SWAP1 KECCAK256 DUP1 SLOAD DUP3 SWAP1 DUP2 LT PUSH2 0x1E0 JUMPI PUSH2 0x1E0 PUSH2 0x8D4 JUMP JUMPDEST SWAP1 PUSH0 MSTORE PUSH1 0x20 PUSH0 KECCAK256 SWAP1 PUSH1 0x4 MUL ADD PUSH1 0x40 MLOAD DUP1 PUSH1 0x80 ADD PUSH1 0x40 MSTORE SWAP1 DUP2 PUSH0 DUP3 ADD DUP1 SLOAD PUSH2 0x206 SWAP1 PUSH2 0x8E8 JUMP JUMPDEST DUP1 PUSH1 0x1F ADD PUSH1 0x20 DUP1 SWAP2 DIV MUL PUSH1 0x20 ADD PUSH1 0x40 MLOAD SWAP1 DUP2 ADD PUSH1 0x40 MSTORE DUP1 SWAP3 SWAP2 SWAP1 DUP2 DUP2 MSTORE PUSH1 0x20 ADD DUP3 DUP1 SLOAD PUSH2 0x232 SWAP1 PUSH2 0x8E8 JUMP JUMPDEST DUP1 ISZERO PUSH2 0x27D JUMPI DUP1 PUSH1 0x1F LT PUSH2 0x254 JUMPI PUSH2 0x100 DUP1 DUP4 SLOAD DIV MUL DUP4 MSTORE SWAP2 PUSH1 0x20 ADD SWAP2 PUSH2 0x27D JUMP JUMPDEST DUP3 ADD SWAP2 SWAP1 PUSH0 MSTORE PUSH1 0x20 PUSH0 KECCAK256 SWAP1 JUMPDEST DUP2 SLOAD DUP2 MSTORE SWAP1 PUSH1 0x1 ADD SWAP1 PUSH1 0x20 ADD DUP1 DUP4 GT PUSH2 0x260 JUMPI DUP3 SWAP1 SUB PUSH1 0x1F AND DUP3 ADD SWAP2 JUMPDEST POP POP POP SWAP2 DUP4 MSTORE POP POP PUSH1 0x1 DUP3 ADD SLOAD PUSH1 0x1 PUSH1 0x1 PUSH1 0xA0 SHL SUB AND PUSH1 0x20 DUP3 ADD MSTORE PUSH1 0x2 DUP3 ADD SLOAD PUSH1 0x40 DUP3 ADD MSTORE PUSH1 0x3 SWAP1 SWAP2 ADD SLOAD PUSH1 0x60 SWAP1 SWAP2 ADD MSTORE DUP3 PUSH2 0x2B9 DUP10 DUP5 PUSH2 0x8C1 JUMP JUMPDEST DUP2 MLOAD DUP2 LT PUSH2 0x2C9 JUMPI PUSH2 0x2C9 PUSH2 0x8D4 JUMP JUMPDEST PUSH1 0x20 SWAP1 DUP2 MUL SWAP2 SWAP1 SWAP2 ADD ADD MSTORE PUSH1 0x1 ADD PUSH2 0x1AF JUMP JUMPDEST POP SWAP3 POP POP POP JUMPDEST SWAP4 SWAP3 POP POP POP JUMP JUMPDEST PUSH1 0x1 PUSH1 0x1 PUSH1 0xA0 SHL SUB DUP5 AND PUSH0 SWAP1 DUP2 MSTORE PUSH1 0x20 DUP2 SWAP1 MSTORE PUSH1 0x40 DUP2 KECCAK256 SLOAD PUSH1 0x60 SWAP2 SWAP1 DUP2 SWAP1 PUSH1 0x1 PUSH1 0x1 PUSH1 0x40 SHL SUB DUP2 GT ISZERO PUSH2 0x31E JUMPI PUSH2 0x31E PUSH2 0x7A8 JUMP JUMPDEST PUSH1 0x40 MLOAD SWAP1 DUP1 DUP3 MSTORE DUP1 PUSH1 0x20 MUL PUSH1 0x20 ADD DUP3 ADD PUSH1 0x40 MSTORE DUP1 ISZERO PUSH2 0x357 JUMPI DUP2 PUSH1 0x20 ADD JUMPDEST PUSH2 0x344 PUSH2 0x62C JUMP JUMPDEST DUP2 MSTORE PUSH1 0x20 ADD SWAP1 PUSH1 0x1 SWAP1 SUB SWAP1 DUP2 PUSH2 0x33C JUMPI SWAP1 POP JUMPDEST POP PUSH1 0x1 PUSH1 0x1 PUSH1 0xA0 SHL SUB DUP9 AND PUSH0 SWAP1 DUP2 MSTORE PUSH1 0x20 DUP2 SWAP1 MSTORE PUSH1 0x40 SWAP1 KECCAK256 SLOAD SWAP1 SWAP2 POP JUMPDEST DUP1 ISZERO PUSH2 0x4E5 JUMPI PUSH1 0x1 PUSH1 0x1 PUSH1 0xA0 SHL SUB DUP9 AND PUSH0 SWAP1 DUP2 MSTORE PUSH1 0x20 DUP2 SWAP1 MSTORE PUSH1 0x40 DUP2 KECCAK256 PUSH2 0x39C PUSH1 0x1 DUP5 PUSH2 0x8C1 JUMP JUMPDEST DUP2 SLOAD DUP2 LT PUSH2 0x3AC JUMPI PUSH2 0x3AC PUSH2 0x8D4 JUMP JUMPDEST SWAP1 PUSH0 MSTORE PUSH1 0x20 PUSH0 KECCAK256 SWAP1 PUSH1 0x4 MUL ADD PUSH1 0x40 MLOAD DUP1 PUSH1 0x80 ADD PUSH1 0x40 MSTORE SWAP1 DUP2 PUSH0 DUP3 ADD DUP1 SLOAD PUSH2 0x3D2 SWAP1 PUSH2 0x8E8 JUMP JUMPDEST DUP1 PUSH1 0x1F ADD PUSH1 0x20 DUP1 SWAP2 DIV MUL PUSH1 0x20 ADD PUSH1 0x40 MLOAD SWAP1 DUP2 ADD PUSH1 0x40 MSTORE DUP1 SWAP3 SWAP2 SWAP1 DUP2 DUP2 MSTORE PUSH1 0x20 ADD DUP3 DUP1 SLOAD PUSH2 0x3FE SWAP1 PUSH2 0x8E8 JUMP JUMPDEST DUP1 ISZERO PUSH2 0x449 JUMPI DUP1 PUSH1 0x1F LT PUSH2 0x420 JUMPI PUSH2 0x100 DUP1 DUP4 SLOAD DIV MUL DUP4 MSTORE SWAP2 PUSH1 0x20 ADD SWAP2 PUSH2 0x449 JUMP JUMPDEST DUP3 ADD SWAP2 SWAP1 PUSH0 MSTORE PUSH1 0x20 PUSH0 KECCAK256 SWAP1 JUMPDEST DUP2 SLOAD DUP2 MSTORE SWAP1 PUSH1 0x1 ADD SWAP1 PUSH1 0x20 ADD DUP1 DUP4 GT PUSH2 0x42C JUMPI DUP3 SWAP1 SUB PUSH1 0x1F AND DUP3 ADD SWAP2 JUMPDEST POP POP POP SWAP2 DUP4 MSTORE POP POP PUSH1 0x1 DUP3 ADD SLOAD PUSH1 0x1 PUSH1 0x1 PUSH1 0xA0 SHL SUB AND PUSH1 0x20 DUP3 ADD MSTORE PUSH1 0x2 DUP3 ADD SLOAD PUSH1 0x40 DUP3 ADD MSTORE PUSH1 0x3 SWAP1 SWAP2 ADD SLOAD PUSH1 0x60 SWAP2 DUP3 ADD MSTORE DUP2 ADD MLOAD SWAP1 SWAP2 POP DUP9 GT ISZERO PUSH2 0x48D JUMPI POP PUSH2 0x4E5 JUMP JUMPDEST DUP7 DUP2 PUSH1 0x60 ADD MLOAD GT PUSH2 0x4C5 JUMPI DUP1 DUP4 DUP6 DUP2 MLOAD DUP2 LT PUSH2 0x4AB JUMPI PUSH2 0x4AB PUSH2 0x8D4 JUMP JUMPDEST PUSH1 0x20 MUL PUSH1 0x20 ADD ADD DUP2 SWAP1 MSTORE POP DUP4 DUP1 PUSH2 0x4C1 SWAP1 PUSH2 0x920 JUMP JUMPDEST SWAP5 POP POP JUMPDEST DUP6 DUP5 LT PUSH2 0x4D2 JUMPI POP PUSH2 0x4E5 JUMP JUMPDEST POP DUP1 PUSH2 0x4DD DUP2 PUSH2 0x938 JUMP JUMPDEST SWAP2 POP POP PUSH2 0x374 JUMP JUMPDEST POP PUSH0 DUP3 PUSH1 0x1 PUSH1 0x1 PUSH1 0x40 SHL SUB DUP2 GT ISZERO PUSH2 0x4FF JUMPI PUSH2 0x4FF PUSH2 0x7A8 JUMP JUMPDEST PUSH1 0x40 MLOAD SWAP1 DUP1 DUP3 MSTORE DUP1 PUSH1 0x20 MUL PUSH1 0x20 ADD DUP3 ADD PUSH1 0x40 MSTORE DUP1 ISZERO PUSH2 0x538 JUMPI DUP2 PUSH1 0x20 ADD JUMPDEST PUSH2 0x525 PUSH2 0x62C JUMP JUMPDEST DUP2 MSTORE PUSH1 0x20 ADD SWAP1 PUSH1 0x1 SWAP1 SUB SWAP1 DUP2 PUSH2 0x51D JUMPI SWAP1 POP JUMPDEST POP SWAP1 POP PUSH0 JUMPDEST DUP4 DUP2 LT ISZERO PUSH2 0x584 JUMPI DUP3 DUP2 DUP2 MLOAD DUP2 LT PUSH2 0x557 JUMPI PUSH2 0x557 PUSH2 0x8D4 JUMP JUMPDEST PUSH1 0x20 MUL PUSH1 0x20 ADD ADD MLOAD DUP3 DUP3 DUP2 MLOAD DUP2 LT PUSH2 0x571 JUMPI PUSH2 0x571 PUSH2 0x8D4 JUMP JUMPDEST PUSH1 0x20 SWAP1 DUP2 MUL SWAP2 SWAP1 SWAP2 ADD ADD MSTORE PUSH1 0x1 ADD PUSH2 0x53D JUMP JUMPDEST POP SWAP8 SWAP7 POP POP POP POP POP POP POP JUMP JUMPDEST PUSH1 0x1 PUSH1 0x1 PUSH1 0xA0 SHL SUB DUP1 DUP5 AND PUSH0 SWAP1 DUP2 MSTORE PUSH1 0x20 DUP2 DUP2 MSTORE PUSH1 0x40 DUP1 DUP4 KECCAK256 DUP2 MLOAD PUSH1 0x80 DUP2 ADD DUP4 MSTORE DUP10 DUP2 MSTORE SWAP5 DUP8 AND DUP6 DUP5 ADD MSTORE SWAP1 DUP5 ADD DUP6 SWAP1 MSTORE TIMESTAMP PUSH1 0x60 DUP6 ADD MSTORE DUP1 SLOAD PUSH1 0x1 DUP2 ADD DUP3 SSTORE SWAP1 DUP4 MSTORE SWAP2 KECCAK256 DUP3 MLOAD PUSH1 0x4 SWAP1 SWAP3 MUL ADD SWAP1 DUP2 SWAP1 PUSH2 0x5E9 SWAP1 DUP3 PUSH2 0x999 JUMP JUMPDEST POP PUSH1 0x20 DUP3 ADD MLOAD PUSH1 0x1 DUP3 ADD DUP1 SLOAD PUSH1 0x1 PUSH1 0x1 PUSH1 0xA0 SHL SUB NOT AND PUSH1 0x1 PUSH1 0x1 PUSH1 0xA0 SHL SUB SWAP1 SWAP3 AND SWAP2 SWAP1 SWAP2 OR SWAP1 SSTORE PUSH1 0x40 DUP3 ADD MLOAD PUSH1 0x2 DUP3 ADD SSTORE PUSH1 0x60 SWAP1 SWAP2 ADD MLOAD PUSH1 0x3 SWAP1 SWAP2 ADD SSTORE POP POP POP POP JUMP JUMPDEST PUSH1 0x40 MLOAD DUP1 PUSH1 0x80 ADD PUSH1 0x40 MSTORE DUP1 PUSH1 0x60 DUP2 MSTORE PUSH1 0x20 ADD PUSH0 PUSH1 0x1 PUSH1 0x1 PUSH1 0xA0 SHL SUB AND DUP2 MSTORE PUSH1 0x20 ADD PUSH0 DUP2 MSTORE PUSH1 0x20 ADD PUSH0 DUP2 MSTORE POP SWAP1 JUMP JUMPDEST DUP1 CALLDATALOAD PUSH1 0x1 PUSH1 0x1 PUSH1 0xA0 SHL SUB DUP2 AND DUP2 EQ PUSH2 0x670 JUMPI PUSH0 DUP1 REVERT JUMPDEST SWAP2 SWAP1 POP JUMP JUMPDEST PUSH0 PUSH1 0x20 DUP3 DUP5 SUB SLT ISZERO PUSH2 0x685 JUMPI PUSH0 DUP1 REVERT JUMPDEST PUSH2 0x2E2 DUP3 PUSH2 0x65A JUMP JUMPDEST PUSH0 DUP1 PUSH0 PUSH1 0x60 DUP5 DUP7 SUB SLT ISZERO PUSH2 0x6A0 JUMPI PUSH0 DUP1 REVERT JUMPDEST PUSH2 0x6A9 DUP5 PUSH2 0x65A JUMP JUMPDEST SWAP6 PUSH1 0x20 DUP6 ADD CALLDATALOAD SWAP6 POP PUSH1 0x40 SWAP1 SWAP5 ADD CALLDATALOAD SWAP4 SWAP3 POP POP POP JUMP JUMPDEST PUSH0 PUSH1 0x20 DUP3 ADD PUSH1 0x20 DUP4 MSTORE DUP1 DUP5 MLOAD DUP1 DUP4 MSTORE PUSH1 0x40 DUP6 ADD SWAP2 POP PUSH1 0x40 DUP2 PUSH1 0x5 SHL DUP7 ADD ADD SWAP3 POP PUSH1 0x20 DUP7 ADD PUSH0 JUMPDEST DUP3 DUP2 LT ISZERO PUSH2 0x766 JUMPI PUSH1 0x3F NOT DUP8 DUP7 SUB ADD DUP5 MSTORE DUP2 MLOAD DUP1 MLOAD PUSH1 0x80 DUP8 MSTORE DUP1 MLOAD DUP1 PUSH1 0x80 DUP10 ADD MSTORE DUP1 PUSH1 0x20 DUP4 ADD PUSH1 0xA0 DUP11 ADD MCOPY PUSH0 PUSH1 0xA0 DUP3 DUP11 ADD ADD MSTORE PUSH1 0x1 DUP1 PUSH1 0xA0 SHL SUB PUSH1 0x20 DUP5 ADD MLOAD AND PUSH1 0x20 DUP10 ADD MSTORE PUSH1 0x40 DUP4 ADD MLOAD PUSH1 0x40 DUP10 ADD MSTORE PUSH1 0x60 DUP4 ADD MLOAD PUSH1 0x60 DUP10 ADD MSTORE PUSH1 0xA0 PUSH1 0x1F NOT PUSH1 0x1F DUP4 ADD AND DUP10 ADD ADD SWAP8 POP POP POP POP PUSH1 0x20 DUP3 ADD SWAP2 POP PUSH1 0x20 DUP5 ADD SWAP4 POP PUSH1 0x1 DUP2 ADD SWAP1 POP PUSH2 0x6E4 JUMP JUMPDEST POP SWAP3 SWAP7 SWAP6 POP POP POP POP POP POP JUMP JUMPDEST PUSH0 DUP1 PUSH0 DUP1 PUSH1 0x80 DUP6 DUP8 SUB SLT ISZERO PUSH2 0x785 JUMPI PUSH0 DUP1 REVERT JUMPDEST PUSH2 0x78E DUP6 PUSH2 0x65A JUMP JUMPDEST SWAP7 PUSH1 0x20 DUP7 ADD CALLDATALOAD SWAP7 POP PUSH1 0x40 DUP7 ADD CALLDATALOAD SWAP6 PUSH1 0x60 ADD CALLDATALOAD SWAP5 POP SWAP3 POP POP POP JUMP JUMPDEST PUSH4 0x4E487B71 PUSH1 0xE0 SHL PUSH0 MSTORE PUSH1 0x41 PUSH1 0x4 MSTORE PUSH1 0x24 PUSH0 REVERT JUMPDEST PUSH0 DUP1 PUSH0 DUP1 PUSH1 0x80 DUP6 DUP8 SUB SLT ISZERO PUSH2 0x7CF JUMPI PUSH0 DUP1 REVERT JUMPDEST DUP5 CALLDATALOAD PUSH1 0x1 PUSH1 0x1 PUSH1 0x40 SHL SUB DUP2 GT ISZERO PUSH2 0x7E4 JUMPI PUSH0 DUP1 REVERT JUMPDEST DUP6 ADD PUSH1 0x1F DUP2 ADD DUP8 SGT PUSH2 0x7F4 JUMPI PUSH0 DUP1 REVERT JUMPDEST DUP1 CALLDATALOAD PUSH1 0x1 PUSH1 0x1 PUSH1 0x40 SHL SUB DUP2 GT ISZERO PUSH2 0x80D JUMPI PUSH2 0x80D PUSH2 0x7A8 JUMP JUMPDEST PUSH1 0x40 MLOAD PUSH1 0x1F DUP3 ADD PUSH1 0x1F NOT SWAP1 DUP2 AND PUSH1 0x3F ADD AND DUP2 ADD PUSH1 0x1 PUSH1 0x1 PUSH1 0x40 SHL SUB DUP2 GT DUP3 DUP3 LT OR ISZERO PUSH2 0x83B JUMPI PUSH2 0x83B PUSH2 0x7A8 JUMP JUMPDEST PUSH1 0x40 MSTORE DUP2 DUP2 MSTORE DUP3 DUP3 ADD PUSH1 0x20 ADD DUP10 LT ISZERO PUSH2 0x852 JUMPI PUSH0 DUP1 REVERT JUMPDEST DUP2 PUSH1 0x20 DUP5 ADD PUSH1 0x20 DUP4 ADD CALLDATACOPY PUSH0 PUSH1 0x20 DUP4 DUP4 ADD ADD MSTORE DUP1 SWAP7 POP POP POP POP PUSH2 0x876 PUSH1 0x20 DUP7 ADD PUSH2 0x65A JUMP JUMPDEST SWAP3 POP PUSH2 0x884 PUSH1 0x40 DUP7 ADD PUSH2 0x65A JUMP JUMPDEST SWAP4 SWAP7 SWAP3 SWAP6 POP SWAP3 SWAP4 PUSH1 0x60 ADD CALLDATALOAD SWAP3 POP POP JUMP JUMPDEST PUSH4 0x4E487B71 PUSH1 0xE0 SHL PUSH0 MSTORE PUSH1 0x11 PUSH1 0x4 MSTORE PUSH1 0x24 PUSH0 REVERT JUMPDEST DUP1 DUP3 ADD DUP1 DUP3 GT ISZERO PUSH2 0x8BB JUMPI PUSH2 0x8BB PUSH2 0x894 JUMP JUMPDEST SWAP3 SWAP2 POP POP JUMP JUMPDEST DUP2 DUP2 SUB DUP2 DUP2 GT ISZERO PUSH2 0x8BB JUMPI PUSH2 0x8BB PUSH2 0x894 JUMP JUMPDEST PUSH4 0x4E487B71 PUSH1 0xE0 SHL PUSH0 MSTORE PUSH1 0x32 PUSH1 0x4 MSTORE PUSH1 0x24 PUSH0 REVERT JUMPDEST PUSH1 0x1 DUP2 DUP2 SHR SWAP1 DUP3 AND DUP1 PUSH2 0x8FC JUMPI PUSH1 0x7F DUP3 AND SWAP2 POP JUMPDEST PUSH1 0x20 DUP3 LT DUP2 SUB PUSH2 0x91A JUMPI PUSH4 0x4E487B71 PUSH1 0xE0 SHL PUSH0 MSTORE PUSH1 0x22 PUSH1 0x4 MSTORE PUSH1 0x24 PUSH0 REVERT JUMPDEST POP SWAP2 SWAP1 POP JUMP JUMPDEST PUSH0 PUSH1 0x1 DUP3 ADD PUSH2 0x931 JUMPI PUSH2 0x931 PUSH2 0x894 JUMP JUMPDEST POP PUSH1 0x1 ADD SWAP1 JUMP JUMPDEST PUSH0 DUP2 PUSH2 0x946 JUMPI PUSH2 0x946 PUSH2 0x894 JUMP JUMPDEST POP PUSH0 NOT ADD SWAP1 JUMP JUMPDEST PUSH1 0x1F DUP3 GT ISZERO PUSH2 0x994 JUMPI DUP1 PUSH0 MSTORE PUSH1 0x20 PUSH0 KECCAK256 PUSH1 0x1F DUP5 ADD PUSH1 0x5 SHR DUP2 ADD PUSH1 0x20 DUP6 LT ISZERO PUSH2 0x972 JUMPI POP DUP1 JUMPDEST PUSH1 0x1F DUP5 ADD PUSH1 0x5 SHR DUP3 ADD SWAP2 POP JUMPDEST DUP2 DUP2 LT ISZERO PUSH2 0x991 JUMPI PUSH0 DUP2 SSTORE PUSH1 0x1 ADD PUSH2 0x97E JUMP JUMPDEST POP POP JUMPDEST POP POP POP JUMP JUMPDEST DUP2 MLOAD PUSH1 0x1 PUSH1 0x1 PUSH1 0x40 SHL SUB DUP2 GT ISZERO PUSH2 0x9B2 JUMPI PUSH2 0x9B2 PUSH2 0x7A8 JUMP JUMPDEST PUSH2 0x9C6 DUP2 PUSH2 0x9C0 DUP5 SLOAD PUSH2 0x8E8 JUMP JUMPDEST DUP5 PUSH2 0x94D JUMP JUMPDEST PUSH1 0x20 PUSH1 0x1F DUP3 GT PUSH1 0x1 DUP2 EQ PUSH2 0x9F8 JUMPI PUSH0 DUP4 ISZERO PUSH2 0x9E1 JUMPI POP DUP5 DUP3 ADD MLOAD JUMPDEST PUSH0 NOT PUSH1 0x3 DUP6 SWAP1 SHL SHR NOT AND PUSH1 0x1 DUP5 SWAP1 SHL OR DUP5 SSTORE PUSH2 0x991 JUMP JUMPDEST PUSH0 DUP5 DUP2 MSTORE PUSH1 0x20 DUP2 KECCAK256 PUSH1 0x1F NOT DUP6 AND SWAP2 JUMPDEST DUP3 DUP2 LT ISZERO PUSH2 0xA27 JUMPI DUP8 DUP6 ADD MLOAD DUP3 SSTORE PUSH1 0x20 SWAP5 DUP6 ADD SWAP5 PUSH1 0x1 SWAP1 SWAP3 ADD SWAP2 ADD PUSH2 0xA07 JUMP JUMPDEST POP DUP5 DUP3 LT ISZERO PUSH2 0xA44 JUMPI DUP7 DUP5 ADD MLOAD PUSH0 NOT PUSH1 0x3 DUP8 SWAP1 SHL PUSH1 0xF8 AND SHR NOT AND DUP2 SSTORE JUMPDEST POP POP POP POP PUSH1 0x1 SWAP1 DUP2 SHL ADD SWAP1 SSTORE POP JUMP INVALID LOG2 PUSH5 0x6970667358 0x22 SLT KECCAK256 SSTORE CREATE2 0xAF 0xFB 0xA6 0xF RETURNDATACOPY SWAP16 CREATE2 0xAF PUSH23 0xEA185D1631FD4B37311F14FCB439F27659704070C76473 PUSH16 0x6C634300081A00330000000000000000 "
				},
				"gasEstimates": {
					"creation": {
						"codeDepositCost": "539400",
						"executionCost": "573",
						"totalCost": "539973"
					},
					"external": {
						"getTransactionCount(address)": "2504",
						"getUserTransactions(address,uint256,uint256)": "infinite",
						"getUserTransactionsByTime(address,uint256,uint256,uint256)": "infinite",
						"recordTransaction(string,address,address,uint256)": "infinite"
					}
				},
				"methodIdentifiers": {
					"getTransactionCount(address)": "23ca0cd2",
					"getUserTransactions(address,uint256,uint256)": "37526fca",
					"getUserTransactionsByTime(address,uint256,uint256,uint256)": "7437f9ab",
					"recordTransaction(string,address,address,uint256)": "ab0ee682"
				}
			},
			"storageLayout": {
				"storage": [
					{
						"astId": 953,
						"contract": "src/eStock.sol:TransactionHistory",
						"label": "userTransactions",
						"offset": 0,
						"slot": "0",
						"type": "t_mapping(t_address,t_array(t_struct(Transaction)947_storage)dyn_storage)"
					}
				],
				"types": {
					"t_address": {
						"encoding": "inplace",
						"label": "address",
						"numberOfBytes": "20"
					},
					"t_array(t_struct(Transaction)947_storage)dyn_storage": {
						"base": "t_struct(Transaction)947_storage",
						"encoding": "dynamic_array",
						"label": "struct TransactionHistory.Transaction[]",
						"numberOfBytes": "32"
					},
					"t_mapping(t_address,t_array(t_struct(Transaction)947_storage)dyn_storage)": {
						"encoding": "mapping",
						"key": "t_address",
						"label": "mapping(address => struct TransactionHistory.Transaction[])",
						"numberOfBytes": "32",
						"value": "t_array(t_struct(Transaction)947_storage)dyn_storage"
					},
					"t_string_storage": {
						"encoding": "bytes",
						"label": "string",
						"numberOfBytes": "32"
					},
					"t_struct(Transaction)947_storage": {
						"encoding": "inplace",
						"label": "struct TransactionHistory.Transaction",
						"members": [
							{
								"astId": 940,
								"contract": "src/eStock.sol:TransactionHistory",
								"label": "txType",
								"offset": 0,
								"slot": "0",
								"type": "t_string_storage"
							},
							{
								"astId": 942,
								"contract": "src/eStock.sol:TransactionHistory",
								"label": "to",
								"offset": 0,
								"slot": "1",
								"type": "t_address"
							},
							{
								"astId": 944,
								"contract": "src/eStock.sol:TransactionHistory",
								"label": "amount",
								"offset": 0,
								"slot": "2",
								"type": "t_uint256"
							},
							{
								"astId": 946,
								"contract": "src/eStock.sol:TransactionHistory",
								"label": "timestamp",
								"offset": 0,
								"slot": "3",
								"type": "t_uint256"
							}
						],
						"numberOfBytes": "128"
					},
					"t_uint256": {
						"encoding": "inplace",
						"label": "uint256",
						"numberOfBytes": "32"
					}
				}
			},
			"userdoc": {
				"kind": "user",
				"methods": {},
				"version": 1
			}
		}
	}
}