{
	"src/eStock.sol": {
		"eStock": {
			"abi": [
				{
					"inputs": [
						{
							"internalType": "string",
							"name": "name",
							"type": "string"
						},
						{
							"internalType": "string",
							"name": "symbol",
							"type": "string"
						},
						{
							"internalType": "uint256",
							"name": "initialSupply",
							"type": "uint256"
						},
						{
							"internalType": "uint256",
							"name": "_exchangeRate",
							"type": "uint256"
						},
						{
							"internalType": "uint256",
							"name": "_saleQuota",
							"type": "uint256"
						},
						{
							"internalType": "address",
							"name": "_usdtAddress",
							"type": "address"
						},
						{
							"internalType": "address",
							"name": "_historyFactory",
							"type": "address"
						}
					],
					"stateMutability": "nonpayable",
					"type": "constructor"
				},
				{
					"inputs": [
						{
							"internalType": "address",
							"name": "spender",
							"type": "address"
						},
						{
							"internalType": "uint256",
							"name": "allowance",
							"type": "uint256"
						},
						{
							"internalType": "uint256",
							"name": "needed",
							"type": "uint256"
						}
					],
					"name": "ERC20InsufficientAllowance",
					"type": "error"
				},
				{
					"inputs": [
						{
							"internalType": "address",
							"name": "sender",
							"type": "address"
						},
						{
							"internalType": "uint256",
							"name": "balance",
							"type": "uint256"
						},
						{
							"internalType": "uint256",
							"name": "needed",
							"type": "uint256"
						}
					],
					"name": "ERC20InsufficientBalance",
					"type": "error"
				},
				{
					"inputs": [
						{
							"internalType": "address",
							"name": "approver",
							"type": "address"
						}
					],
					"name": "ERC20InvalidApprover",
					"type": "error"
				},
				{
					"inputs": [
						{
							"internalType": "address",
							"name": "receiver",
							"type": "address"
						}
					],
					"name": "ERC20InvalidReceiver",
					"type": "error"
				},
				{
					"inputs": [
						{
							"internalType": "address",
							"name": "sender",
							"type": "address"
						}
					],
					"name": "ERC20InvalidSender",
					"type": "error"
				},
				{
					"inputs": [
						{
							"internalType": "address",
							"name": "spender",
							"type": "address"
						}
					],
					"name": "ERC20InvalidSpender",
					"type": "error"
				},
				{
					"inputs": [
						{
							"internalType": "address",
							"name": "owner",
							"type": "address"
						}
					],
					"name": "OwnableInvalidOwner",
					"type": "error"
				},
				{
					"inputs": [
						{
							"internalType": "address",
							"name": "account",
							"type": "address"
						}
					],
					"name": "OwnableUnauthorizedAccount",
					"type": "error"
				},
				{
					"anonymous": false,
					"inputs": [
						{
							"indexed": true,
							"internalType": "address",
							"name": "owner",
							"type": "address"
						},
						{
							"indexed": true,
							"internalType": "address",
							"name": "spender",
							"type": "address"
						},
						{
							"indexed": false,
							"internalType": "uint256",
							"name": "value",
							"type": "uint256"
						}
					],
					"name": "Approval",
					"type": "event"
				},
				{
					"anonymous": false,
					"inputs": [
						{
							"indexed": false,
							"internalType": "uint256",
							"name": "newRate",
							"type": "uint256"
						}
					],
					"name": "ExchangeRateUpdated",
					"type": "event"
				},
				{
					"anonymous": false,
					"inputs": [
						{
							"indexed": true,
							"internalType": "address",
							"name": "previousOwner",
							"type": "address"
						},
						{
							"indexed": true,
							"internalType": "address",
							"name": "newOwner",
							"type": "address"
						}
					],
					"name": "OwnershipTransferred",
					"type": "event"
				},
				{
					"anonymous": false,
					"inputs": [
						{
							"indexed": true,
							"internalType": "address",
							"name": "source",
							"type": "address"
						},
						{
							"indexed": false,
							"internalType": "uint256",
							"name": "amount",
							"type": "uint256"
						}
					],
					"name": "ProfitReceived",
					"type": "event"
				},
				{
					"anonymous": false,
					"inputs": [
						{
							"indexed": false,
							"internalType": "uint256",
							"name": "newQuota",
							"type": "uint256"
						}
					],
					"name": "SaleQuotaUpdated",
					"type": "event"
				},
				{
					"anonymous": false,
					"inputs": [
						{
							"indexed": true,
							"internalType": "address",
							"name": "buyer",
							"type": "address"
						},
						{
							"indexed": false,
							"internalType": "uint256",
							"name": "amount",
							"type": "uint256"
						},
						{
							"indexed": false,
							"internalType": "uint256",
							"name": "usdtSpent",
							"type": "uint256"
						}
					],
					"name": "StockPurchased",
					"type": "event"
				},
				{
					"anonymous": false,
					"inputs": [
						{
							"indexed": true,
							"internalType": "address",
							"name": "from",
							"type": "address"
						},
						{
							"indexed": true,
							"internalType": "address",
							"name": "to",
							"type": "address"
						},
						{
							"indexed": false,
							"internalType": "uint256",
							"name": "amount",
							"type": "uint256"
						}
					],
					"name": "StockTransferred",
					"type": "event"
				},
				{
					"anonymous": false,
					"inputs": [
						{
							"indexed": true,
							"internalType": "address",
							"name": "from",
							"type": "address"
						},
						{
							"indexed": true,
							"internalType": "address",
							"name": "to",
							"type": "address"
						},
						{
							"indexed": false,
							"internalType": "uint256",
							"name": "value",
							"type": "uint256"
						}
					],
					"name": "Transfer",
					"type": "event"
				},
				{
					"anonymous": false,
					"inputs": [
						{
							"indexed": true,
							"internalType": "address",
							"name": "owner",
							"type": "address"
						},
						{
							"indexed": false,
							"internalType": "uint256",
							"name": "amount",
							"type": "uint256"
						}
					],
					"name": "USDTPurchaseWithdrawn",
					"type": "event"
				},
				{
					"anonymous": false,
					"inputs": [
						{
							"indexed": true,
							"internalType": "address",
							"name": "user",
							"type": "address"
						},
						{
							"indexed": false,
							"internalType": "uint256",
							"name": "amount",
							"type": "uint256"
						}
					],
					"name": "USDTWithdrawn",
					"type": "event"
				},
				{
					"inputs": [
						{
							"internalType": "address",
							"name": "owner",
							"type": "address"
						},
						{
							"internalType": "address",
							"name": "spender",
							"type": "address"
						}
					],
					"name": "allowance",
					"outputs": [
						{
							"internalType": "uint256",
							"name": "",
							"type": "uint256"
						}
					],
					"stateMutability": "view",
					"type": "function"
				},
				{
					"inputs": [
						{
							"internalType": "address",
							"name": "spender",
							"type": "address"
						},
						{
							"internalType": "uint256",
							"name": "value",
							"type": "uint256"
						}
					],
					"name": "approve",
					"outputs": [
						{
							"internalType": "bool",
							"name": "",
							"type": "bool"
						}
					],
					"stateMutability": "nonpayable",
					"type": "function"
				},
				{
					"inputs": [
						{
							"internalType": "address",
							"name": "account",
							"type": "address"
						}
					],
					"name": "balanceOf",
					"outputs": [
						{
							"internalType": "uint256",
							"name": "",
							"type": "uint256"
						}
					],
					"stateMutability": "view",
					"type": "function"
				},
				{
					"inputs": [
						{
							"internalType": "uint256",
							"name": "usdtAmount",
							"type": "uint256"
						},
						{
							"internalType": "uint256",
							"name": "expectedRate",
							"type": "uint256"
						}
					],
					"name": "buyStock",
					"outputs": [],
					"stateMutability": "nonpayable",
					"type": "function"
				},
				{
					"inputs": [
						{
							"internalType": "uint256",
							"name": "amount",
							"type": "uint256"
						}
					],
					"name": "claimUSDT",
					"outputs": [],
					"stateMutability": "nonpayable",
					"type": "function"
				},
				{
					"inputs": [],
					"name": "currentHistory",
					"outputs": [
						{
							"internalType": "address",
							"name": "",
							"type": "address"
						}
					],
					"stateMutability": "view",
					"type": "function"
				},
				{
					"inputs": [],
					"name": "decimals",
					"outputs": [
						{
							"internalType": "uint8",
							"name": "",
							"type": "uint8"
						}
					],
					"stateMutability": "view",
					"type": "function"
				},
				{
					"inputs": [],
					"name": "exchangeRate",
					"outputs": [
						{
							"internalType": "uint256",
							"name": "",
							"type": "uint256"
						}
					],
					"stateMutability": "view",
					"type": "function"
				},
				{
					"inputs": [],
					"name": "historyFactory",
					"outputs": [
						{
							"internalType": "contract TransactionHistoryFactory",
							"name": "",
							"type": "address"
						}
					],
					"stateMutability": "view",
					"type": "function"
				},
				{
					"inputs": [
						{
							"internalType": "address",
							"name": "",
							"type": "address"
						}
					],
					"name": "lastTotalUSDTReceived",
					"outputs": [
						{
							"internalType": "uint256",
							"name": "",
							"type": "uint256"
						}
					],
					"stateMutability": "view",
					"type": "function"
				},
				{
					"inputs": [],
					"name": "lastUpdatedMonth",
					"outputs": [
						{
							"internalType": "uint256",
							"name": "",
							"type": "uint256"
						}
					],
					"stateMutability": "view",
					"type": "function"
				},
				{
					"inputs": [],
					"name": "name",
					"outputs": [
						{
							"internalType": "string",
							"name": "",
							"type": "string"
						}
					],
					"stateMutability": "view",
					"type": "function"
				},
				{
					"inputs": [],
					"name": "owner",
					"outputs": [
						{
							"internalType": "address",
							"name": "",
							"type": "address"
						}
					],
					"stateMutability": "view",
					"type": "function"
				},
				{
					"inputs": [
						{
							"internalType": "uint256",
							"name": "amount",
							"type": "uint256"
						}
					],
					"name": "receiveProfitFromContract",
					"outputs": [],
					"stateMutability": "nonpayable",
					"type": "function"
				},
				{
					"inputs": [],
					"name": "renounceOwnership",
					"outputs": [],
					"stateMutability": "nonpayable",
					"type": "function"
				},
				{
					"inputs": [],
					"name": "saleQuota",
					"outputs": [
						{
							"internalType": "uint256",
							"name": "",
							"type": "uint256"
						}
					],
					"stateMutability": "view",
					"type": "function"
				},
				{
					"inputs": [
						{
							"internalType": "uint256",
							"name": "newRate",
							"type": "uint256"
						}
					],
					"name": "setExchangeRate",
					"outputs": [],
					"stateMutability": "nonpayable",
					"type": "function"
				},
				{
					"inputs": [
						{
							"internalType": "uint256",
							"name": "newQuota",
							"type": "uint256"
						}
					],
					"name": "setSaleQuota",
					"outputs": [],
					"stateMutability": "nonpayable",
					"type": "function"
				},
				{
					"inputs": [
						{
							"internalType": "address",
							"name": "_treeCom",
							"type": "address"
						}
					],
					"name": "setTreeCom",
					"outputs": [],
					"stateMutability": "nonpayable",
					"type": "function"
				},
				{
					"inputs": [],
					"name": "symbol",
					"outputs": [
						{
							"internalType": "string",
							"name": "",
							"type": "string"
						}
					],
					"stateMutability": "view",
					"type": "function"
				},
				{
					"inputs": [],
					"name": "totalSupply",
					"outputs": [
						{
							"internalType": "uint256",
							"name": "",
							"type": "uint256"
						}
					],
					"stateMutability": "view",
					"type": "function"
				},
				{
					"inputs": [],
					"name": "totalUSDTPurchased",
					"outputs": [
						{
							"internalType": "uint256",
							"name": "",
							"type": "uint256"
						}
					],
					"stateMutability": "view",
					"type": "function"
				},
				{
					"inputs": [],
					"name": "totalUSDTReceived",
					"outputs": [
						{
							"internalType": "uint256",
							"name": "",
							"type": "uint256"
						}
					],
					"stateMutability": "view",
					"type": "function"
				},
				{
					"inputs": [],
					"name": "totalUSDTWithdrawn",
					"outputs": [
						{
							"internalType": "uint256",
							"name": "",
							"type": "uint256"
						}
					],
					"stateMutability": "view",
					"type": "function"
				},
				{
					"inputs": [
						{
							"internalType": "address",
							"name": "recipient",
							"type": "address"
						},
						{
							"internalType": "uint256",
							"name": "amount",
							"type": "uint256"
						}
					],
					"name": "transfer",
					"outputs": [
						{
							"internalType": "bool",
							"name": "",
							"type": "bool"
						}
					],
					"stateMutability": "nonpayable",
					"type": "function"
				},
				{
					"inputs": [
						{
							"internalType": "address",
							"name": "from",
							"type": "address"
						},
						{
							"internalType": "address",
							"name": "to",
							"type": "address"
						},
						{
							"internalType": "uint256",
							"name": "value",
							"type": "uint256"
						}
					],
					"name": "transferFrom",
					"outputs": [
						{
							"internalType": "bool",
							"name": "",
							"type": "bool"
						}
					],
					"stateMutability": "nonpayable",
					"type": "function"
				},
				{
					"inputs": [
						{
							"internalType": "address",
							"name": "newOwner",
							"type": "address"
						}
					],
					"name": "transferOwnership",
					"outputs": [],
					"stateMutability": "nonpayable",
					"type": "function"
				},
				{
					"inputs": [],
					"name": "treeCommissionContract",
					"outputs": [
						{
							"internalType": "address",
							"name": "",
							"type": "address"
						}
					],
					"stateMutability": "view",
					"type": "function"
				},
				{
					"inputs": [],
					"name": "updateTransactionHistory",
					"outputs": [],
					"stateMutability": "nonpayable",
					"type": "function"
				},
				{
					"inputs": [],
					"name": "usdtToken",
					"outputs": [
						{
							"internalType": "contract IERC20",
							"name": "",
							"type": "address"
						}
					],
					"stateMutability": "view",
					"type": "function"
				},
				{
					"inputs": [
						{
							"internalType": "address",
							"name": "",
							"type": "address"
						}
					],
					"name": "userUSDTBalance",
					"outputs": [
						{
							"internalType": "uint256",
							"name": "",
							"type": "uint256"
						}
					],
					"stateMutability": "view",
					"type": "function"
				},
				{
					"inputs": [
						{
							"internalType": "address",
							"name": "",
							"type": "address"
						}
					],
					"name": "userUSDTWithdrawn",
					"outputs": [
						{
							"internalType": "uint256",
							"name": "",
							"type": "uint256"
						}
					],
					"stateMutability": "view",
					"type": "function"
				},
				{
					"inputs": [],
					"name": "withdrawUSDTCommission",
					"outputs": [],
					"stateMutability": "nonpayable",
					"type": "function"
				},
				{
					"inputs": [
						{
							"internalType": "uint256",
							"name": "amount",
							"type": "uint256"
						}
					],
					"name": "withdrawUSDTPurchased",
					"outputs": [],
					"stateMutability": "nonpayable",
					"type": "function"
				}
			],
			"devdoc": {
				"errors": {
					"ERC20InsufficientAllowance(address,uint256,uint256)": [
						{
							"details": "Indicates a failure with the `spender`’s `allowance`. Used in transfers.",
							"params": {
								"allowance": "Amount of tokens a `spender` is allowed to operate with.",
								"needed": "Minimum amount required to perform a transfer.",
								"spender": "Address that may be allowed to operate on tokens without being their owner."
							}
						}
					],
					"ERC20InsufficientBalance(address,uint256,uint256)": [
						{
							"details": "Indicates an error related to the current `balance` of a `sender`. Used in transfers.",
							"params": {
								"balance": "Current balance for the interacting account.",
								"needed": "Minimum amount required to perform a transfer.",
								"sender": "Address whose tokens are being transferred."
							}
						}
					],
					"ERC20InvalidApprover(address)": [
						{
							"details": "Indicates a failure with the `approver` of a token to be approved. Used in approvals.",
							"params": {
								"approver": "Address initiating an approval operation."
							}
						}
					],
					"ERC20InvalidReceiver(address)": [
						{
							"details": "Indicates a failure with the token `receiver`. Used in transfers.",
							"params": {
								"receiver": "Address to which tokens are being transferred."
							}
						}
					],
					"ERC20InvalidSender(address)": [
						{
							"details": "Indicates a failure with the token `sender`. Used in transfers.",
							"params": {
								"sender": "Address whose tokens are being transferred."
							}
						}
					],
					"ERC20InvalidSpender(address)": [
						{
							"details": "Indicates a failure with the `spender` to be approved. Used in approvals.",
							"params": {
								"spender": "Address that may be allowed to operate on tokens without being their owner."
							}
						}
					],
					"OwnableInvalidOwner(address)": [
						{
							"details": "The owner is not a valid owner account. (eg. `address(0)`)"
						}
					],
					"OwnableUnauthorizedAccount(address)": [
						{
							"details": "The caller account is not authorized to perform an operation."
						}
					]
				},
				"events": {
					"Approval(address,address,uint256)": {
						"details": "Emitted when the allowance of a `spender` for an `owner` is set by a call to {approve}. `value` is the new allowance."
					},
					"Transfer(address,address,uint256)": {
						"details": "Emitted when `value` tokens are moved from one account (`from`) to another (`to`). Note that `value` may be zero."
					}
				},
				"kind": "dev",
				"methods": {
					"allowance(address,address)": {
						"details": "See {IERC20-allowance}."
					},
					"approve(address,uint256)": {
						"details": "See {IERC20-approve}. NOTE: If `value` is the maximum `uint256`, the allowance is not updated on `transferFrom`. This is semantically equivalent to an infinite approval. Requirements: - `spender` cannot be the zero address."
					},
					"balanceOf(address)": {
						"details": "See {IERC20-balanceOf}."
					},
					"buyStock(uint256,uint256)": {
						"details": "User mua eStock bằng USDT"
					},
					"claimUSDT(uint256)": {
						"details": "User claim USDT từ lợi nhuận về ví cá nhân"
					},
					"decimals()": {
						"details": "Returns the number of decimals used to get its user representation. For example, if `decimals` equals `2`, a balance of `505` tokens should be displayed to a user as `5.05` (`505 / 10 ** 2`). Tokens usually opt for a value of 18, imitating the relationship between Ether and Wei. This is the default value returned by this function, unless it's overridden. NOTE: This information is only used for _display_ purposes: it in no way affects any of the arithmetic of the contract, including {IERC20-balanceOf} and {IERC20-transfer}."
					},
					"name()": {
						"details": "Returns the name of the token."
					},
					"owner()": {
						"details": "Returns the address of the current owner."
					},
					"receiveProfitFromContract(uint256)": {
						"details": "Nhận lợi nhuận từ hợp đồng khác bằng USDT(onlyTreecom)"
					},
					"renounceOwnership()": {
						"details": "Leaves the contract without owner. It will not be possible to call `onlyOwner` functions. Can only be called by the current owner. NOTE: Renouncing ownership will leave the contract without an owner, thereby disabling any functionality that is only available to the owner."
					},
					"setExchangeRate(uint256)": {
						"details": "Cập nhật tỷ giá quy đổi (chỉ Owner có thể thay đổi)"
					},
					"setSaleQuota(uint256)": {
						"details": "Cập nhật hạn mức bán eStock"
					},
					"symbol()": {
						"details": "Returns the symbol of the token, usually a shorter version of the name."
					},
					"totalSupply()": {
						"details": "See {IERC20-totalSupply}."
					},
					"transfer(address,uint256)": {
						"details": "Chuyển eStock giữa các user (bắt buộc rút lợi nhuận trước)"
					},
					"transferFrom(address,address,uint256)": {
						"details": "See {IERC20-transferFrom}. Skips emitting an {Approval} event indicating an allowance update. This is not required by the ERC. See {xref-ERC20-_approve-address-address-uint256-bool-}[_approve]. NOTE: Does not update the allowance if the current allowance is the maximum `uint256`. Requirements: - `from` and `to` cannot be the zero address. - `from` must have a balance of at least `value`. - the caller must have allowance for ``from``'s tokens of at least `value`."
					},
					"transferOwnership(address)": {
						"details": "Transfers ownership of the contract to a new account (`newOwner`). Can only be called by the current owner."
					},
					"withdrawUSDTCommission()": {
						"details": "Rút hoa hồng USDT (chỉ cập nhật số dư, không gửi ngay)"
					},
					"withdrawUSDTPurchased(uint256)": {
						"details": "Admin rút USDT từ user mua stock"
					}
				},
				"version": 1
			},
			"evm": {
				"assembly": "    /* \"src/eStock.sol\":3513:11663  contract eStock is ERC20, Ownable {... */\n  mstore(0x40, 0x80)\n    /* \"src/eStock.sol\":5069:5680  constructor(... */\n  callvalue\n  dup1\n  iszero\n  tag_1\n  jumpi\n  0x00\n  dup1\n  revert\ntag_1:\n  pop\n  mload(0x40)\n  sub(codesize, bytecodeSize)\n  dup1\n  bytecodeSize\n  dup4\n  codecopy\n  dup2\n  add\n  0x40\n  dup2\n  swap1\n  mstore\n  tag_2\n  swap2\n  tag_3\n  jump\t// in\ntag_2:\n    /* \"src/eStock.sol\":5326:5336  msg.sender */\n  caller\n    /* \"src/eStock.sol\":5304:5308  name */\n  dup8\n    /* \"src/eStock.sol\":5310:5316  symbol */\n  dup8\n    /* \"@openzeppelin/contracts/token/ERC20/ERC20.sol\":1667:1672  _name */\n  0x03\n    /* \"@openzeppelin/contracts/token/ERC20/ERC20.sol\":1667:1680  _name = name_ */\n  tag_8\n    /* \"src/eStock.sol\":5304:5308  name */\n  dup4\n    /* \"@openzeppelin/contracts/token/ERC20/ERC20.sol\":1667:1672  _name */\n  dup3\n    /* \"@openzeppelin/contracts/token/ERC20/ERC20.sol\":1667:1680  _name = name_ */\n  tag_9\n  jump\t// in\ntag_8:\n  pop\n    /* \"@openzeppelin/contracts/token/ERC20/ERC20.sol\":1690:1697  _symbol */\n  0x04\n    /* \"@openzeppelin/contracts/token/ERC20/ERC20.sol\":1690:1707  _symbol = symbol_ */\n  tag_10\n    /* \"@openzeppelin/contracts/token/ERC20/ERC20.sol\":1700:1707  symbol_ */\n  dup3\n    /* \"@openzeppelin/contracts/token/ERC20/ERC20.sol\":1690:1697  _symbol */\n  dup3\n    /* \"@openzeppelin/contracts/token/ERC20/ERC20.sol\":1690:1707  _symbol = symbol_ */\n  tag_9\n  jump\t// in\ntag_10:\n  pop\n  pop\n  pop\n  sub(shl(0xa0, 0x01), 0x01)\n    /* \"@openzeppelin/contracts/access/Ownable.sol\":1273:1299  initialOwner == address(0) */\n  dup2\n  and\n    /* \"@openzeppelin/contracts/access/Ownable.sol\":1269:1364  if (initialOwner == address(0)) {... */\n  tag_12\n  jumpi\n    /* \"@openzeppelin/contracts/access/Ownable.sol\":1350:1351  0 */\n  0x00\n    /* \"@openzeppelin/contracts/access/Ownable.sol\":1322:1353  OwnableInvalidOwner(address(0)) */\n  mload(0x40)\n  shl(0xe0, 0x1e4fbdf7)\n  dup2\n  mstore\n  0x04\n  add\n  tag_13\n  swap2\n  swap1\n  tag_14\n  jump\t// in\ntag_13:\n  mload(0x40)\n  dup1\n  swap2\n  sub\n  swap1\n  revert\n    /* \"@openzeppelin/contracts/access/Ownable.sol\":1269:1364  if (initialOwner == address(0)) {... */\ntag_12:\n    /* \"@openzeppelin/contracts/access/Ownable.sol\":1373:1405  _transferOwnership(initialOwner) */\n  tag_15\n    /* \"@openzeppelin/contracts/access/Ownable.sol\":1392:1404  initialOwner */\n  dup2\n    /* \"@openzeppelin/contracts/access/Ownable.sol\":1373:1391  _transferOwnership */\n  tag_16\n    /* \"@openzeppelin/contracts/access/Ownable.sol\":1373:1405  _transferOwnership(initialOwner) */\n  jump\t// in\ntag_15:\n  pop\n    /* \"src/eStock.sol\":5348:5401  _mint(msg.sender, initialSupply * (10 ** decimals())) */\n  tag_18\n    /* \"src/eStock.sol\":5354:5364  msg.sender */\n  caller\n    /* \"src/eStock.sol\":5383:5399  10 ** decimals() */\n  tag_21\n    /* \"@openzeppelin/contracts/token/ERC20/ERC20.sol\":2780:2782  18 */\n  0x12\n    /* \"src/eStock.sol\":5383:5385  10 */\n  0x0a\n    /* \"src/eStock.sol\":5383:5399  10 ** decimals() */\n  tag_22\n  jump\t// in\ntag_21:\n    /* \"src/eStock.sol\":5366:5400  initialSupply * (10 ** decimals()) */\n  tag_23\n  swap1\n    /* \"src/eStock.sol\":5366:5379  initialSupply */\n  dup9\n    /* \"src/eStock.sol\":5366:5400  initialSupply * (10 ** decimals()) */\n  tag_24\n  jump\t// in\ntag_23:\n    /* \"src/eStock.sol\":5348:5353  _mint */\n  tag_25\n    /* \"src/eStock.sol\":5348:5401  _mint(msg.sender, initialSupply * (10 ** decimals())) */\n  jump\t// in\ntag_18:\n    /* \"src/eStock.sol\":5443:5455  exchangeRate */\n  0x0a\n    /* \"src/eStock.sol\":5443:5471  exchangeRate = _exchangeRate */\n  dup5\n  swap1\n  sstore\n    /* \"src/eStock.sol\":5481:5490  saleQuota */\n  0x0b\n    /* \"src/eStock.sol\":5481:5503  saleQuota = _saleQuota */\n  dup4\n  swap1\n  sstore\n    /* \"src/eStock.sol\":5513:5522  usdtToken */\n  0x09\n    /* \"src/eStock.sol\":5513:5545  usdtToken = IERC20(_usdtAddress) */\n  dup1\n  sload\n  sub(shl(0xa0, 0x01), 0x01)\n  dup1\n  dup6\n  and\n  not(sub(shl(0xa0, 0x01), 0x01))\n  swap3\n  dup4\n  and\n  or\n  swap1\n  swap3\n  sstore\n    /* \"src/eStock.sol\":5578:5592  historyFactory */\n  0x06\n    /* \"src/eStock.sol\":5578:5637  historyFactory = TransactionHistoryFactory(_historyFactory) */\n  dup1\n  sload\n  swap3\n  dup5\n  and\n  swap3\n  swap1\n  swap2\n  and\n  swap2\n  swap1\n  swap2\n  or\n  swap1\n  sstore\n    /* \"src/eStock.sol\":5647:5673  updateTransactionHistory() */\n  tag_26\n    /* \"src/eStock.sol\":5647:5671  updateTransactionHistory */\n  tag_27\n    /* \"src/eStock.sol\":5647:5673  updateTransactionHistory() */\n  jump\t// in\ntag_26:\n    /* \"src/eStock.sol\":5069:5680  constructor(... */\n  pop\n  pop\n  pop\n  pop\n  pop\n  pop\n  pop\n    /* \"src/eStock.sol\":3513:11663  contract eStock is ERC20, Ownable {... */\n  jump(tag_68)\n    /* \"@openzeppelin/contracts/access/Ownable.sol\":2912:3099  function _transferOwnership(address newOwner) internal virtual {... */\ntag_16:\n    /* \"@openzeppelin/contracts/access/Ownable.sol\":3004:3010  _owner */\n  0x05\n  dup1\n  sload\n  sub(shl(0xa0, 0x01), 0x01)\n    /* \"@openzeppelin/contracts/access/Ownable.sol\":3020:3037  _owner = newOwner */\n  dup4\n  dup2\n  and\n  not(sub(shl(0xa0, 0x01), 0x01))\n  dup4\n  and\n  dup2\n  or\n  swap1\n  swap4\n  sstore\n    /* \"@openzeppelin/contracts/access/Ownable.sol\":3052:3092  OwnershipTransferred(oldOwner, newOwner) */\n  mload(0x40)\n    /* \"@openzeppelin/contracts/access/Ownable.sol\":3004:3010  _owner */\n  swap2\n  and\n  swap2\n    /* \"@openzeppelin/contracts/access/Ownable.sol\":3020:3037  _owner = newOwner */\n  swap1\n    /* \"@openzeppelin/contracts/access/Ownable.sol\":3004:3010  _owner */\n  dup3\n  swap1\n    /* \"@openzeppelin/contracts/access/Ownable.sol\":3052:3092  OwnershipTransferred(oldOwner, newOwner) */\n  0x8be0079c531659141344cd1fd0a4f28419497f9722a3daafe3b4186f6b6457e0\n  swap1\n    /* \"@openzeppelin/contracts/access/Ownable.sol\":2985:3001  address oldOwner */\n  0x00\n  swap1\n    /* \"@openzeppelin/contracts/access/Ownable.sol\":3052:3092  OwnershipTransferred(oldOwner, newOwner) */\n  log3\n    /* \"@openzeppelin/contracts/access/Ownable.sol\":2975:3099  {... */\n  pop\n    /* \"@openzeppelin/contracts/access/Ownable.sol\":2912:3099  function _transferOwnership(address newOwner) internal virtual {... */\n  pop\n  jump\t// out\n    /* \"@openzeppelin/contracts/token/ERC20/ERC20.sol\":7458:7666  function _mint(address account, uint256 value) internal {... */\ntag_25:\n  sub(shl(0xa0, 0x01), 0x01)\n    /* \"@openzeppelin/contracts/token/ERC20/ERC20.sol\":7528:7549  account == address(0) */\n  dup3\n  and\n    /* \"@openzeppelin/contracts/token/ERC20/ERC20.sol\":7524:7615  if (account == address(0)) {... */\n  tag_32\n  jumpi\n    /* \"@openzeppelin/contracts/token/ERC20/ERC20.sol\":7601:7602  0 */\n  0x00\n    /* \"@openzeppelin/contracts/token/ERC20/ERC20.sol\":7572:7604  ERC20InvalidReceiver(address(0)) */\n  mload(0x40)\n  shl(0xe0, 0xec442f05)\n  dup2\n  mstore\n  0x04\n  add\n  tag_13\n  swap2\n  swap1\n  tag_14\n  jump\t// in\n    /* \"@openzeppelin/contracts/token/ERC20/ERC20.sol\":7524:7615  if (account == address(0)) {... */\ntag_32:\n    /* \"@openzeppelin/contracts/token/ERC20/ERC20.sol\":7624:7659  _update(address(0), account, value) */\n  tag_34\n    /* \"@openzeppelin/contracts/token/ERC20/ERC20.sol\":7640:7641  0 */\n  0x00\n    /* \"@openzeppelin/contracts/token/ERC20/ERC20.sol\":7644:7651  account */\n  dup4\n    /* \"@openzeppelin/contracts/token/ERC20/ERC20.sol\":7653:7658  value */\n  dup4\n    /* \"@openzeppelin/contracts/token/ERC20/ERC20.sol\":7624:7631  _update */\n  tag_35\n    /* \"@openzeppelin/contracts/token/ERC20/ERC20.sol\":7624:7659  _update(address(0), account, value) */\n  jump\t// in\ntag_34:\n    /* \"@openzeppelin/contracts/token/ERC20/ERC20.sol\":7458:7666  function _mint(address account, uint256 value) internal {... */\n  pop\n  pop\n  jump\t// out\n    /* \"src/eStock.sol\":5981:6335  function updateTransactionHistory() public {... */\ntag_27:\n    /* \"src/eStock.sol\":6057:6071  historyFactory */\n  sload(0x06)\n    /* \"src/eStock.sol\":6057:6089  historyFactory.getCurrentMonth() */\n  0x40\n  dup1\n  mload\n  shl(0xe1, 0x6ee8db3f)\n  dup2\n  mstore\n  swap1\n  mload\n    /* \"src/eStock.sol\":6034:6054  uint256 currentMonth */\n  0x00\n  swap3\n  sub(shl(0xa0, 0x01), 0x01)\n    /* \"src/eStock.sol\":6057:6071  historyFactory */\n  and\n  swap2\n    /* \"src/eStock.sol\":6057:6087  historyFactory.getCurrentMonth */\n  0xddd1b67e\n  swap2\n    /* \"src/eStock.sol\":6057:6089  historyFactory.getCurrentMonth() */\n  0x04\n  dup1\n  dup4\n  add\n  swap3\n  0x20\n  swap3\n  swap2\n  swap1\n  dup3\n  swap1\n  sub\n  add\n  dup2\n    /* \"src/eStock.sol\":6057:6071  historyFactory */\n  dup7\n    /* \"src/eStock.sol\":6057:6089  historyFactory.getCurrentMonth() */\n  gas\n  staticcall\n  iszero\n  dup1\n  iszero\n  tag_38\n  jumpi\n  returndatasize\n  0x00\n  dup1\n  returndatacopy\n  revert(0x00, returndatasize)\ntag_38:\n  pop\n  pop\n  pop\n  pop\n  mload(0x40)\n  returndatasize\n  not(0x1f)\n  0x1f\n  dup3\n  add\n  and\n  dup3\n  add\n  dup1\n  0x40\n  mstore\n  pop\n  dup2\n  add\n  swap1\n  tag_39\n  swap2\n  swap1\n  tag_40\n  jump\t// in\ntag_39:\n    /* \"src/eStock.sol\":6034:6089  uint256 currentMonth = historyFactory.getCurrentMonth() */\n  swap1\n  pop\n    /* \"src/eStock.sol\":6118:6134  lastUpdatedMonth */\n  sload(0x08)\n    /* \"src/eStock.sol\":6103:6115  currentMonth */\n  dup2\n    /* \"src/eStock.sol\":6103:6134  currentMonth > lastUpdatedMonth */\n  gt\n    /* \"src/eStock.sol\":6099:6329  if (currentMonth > lastUpdatedMonth) {... */\n  iszero\n  tag_41\n  jumpi\n    /* \"src/eStock.sol\":6240:6254  historyFactory */\n  0x06\n  0x00\n  swap1\n  sload\n  swap1\n  0x0100\n  exp\n  swap1\n  div\n  sub(shl(0xa0, 0x01), 0x01)\n  and\n  sub(shl(0xa0, 0x01), 0x01)\n    /* \"src/eStock.sol\":6240:6271  historyFactory.createNewHistory */\n  and\n  0x27ebec60\n    /* \"src/eStock.sol\":6240:6273  historyFactory.createNewHistory() */\n  mload(0x40)\n  dup2\n  0xffffffff\n  and\n  0xe0\n  shl\n  dup2\n  mstore\n  0x04\n  add\n  0x20\n  mload(0x40)\n  dup1\n  dup4\n  sub\n  dup2\n  0x00\n  dup8\n  gas\n  call\n  iszero\n  dup1\n  iszero\n  tag_43\n  jumpi\n  returndatasize\n  0x00\n  dup1\n  returndatacopy\n  revert(0x00, returndatasize)\ntag_43:\n  pop\n  pop\n  pop\n  pop\n  mload(0x40)\n  returndatasize\n  not(0x1f)\n  0x1f\n  dup3\n  add\n  and\n  dup3\n  add\n  dup1\n  0x40\n  mstore\n  pop\n  dup2\n  add\n  swap1\n  tag_44\n  swap2\n  swap1\n  tag_45\n  jump\t// in\ntag_44:\n    /* \"src/eStock.sol\":6223:6237  currentHistory */\n  0x07\n    /* \"src/eStock.sol\":6223:6273  currentHistory = historyFactory.createNewHistory() */\n  dup1\n  sload\n  not(sub(shl(0xa0, 0x01), 0x01))\n  and\n  sub(shl(0xa0, 0x01), 0x01)\n  swap3\n  swap1\n  swap3\n  and\n  swap2\n  swap1\n  swap2\n  or\n  swap1\n  sstore\n    /* \"src/eStock.sol\":6287:6303  lastUpdatedMonth */\n  0x08\n    /* \"src/eStock.sol\":6287:6318  lastUpdatedMonth = currentMonth */\n  dup2\n  swap1\n  sstore\n    /* \"src/eStock.sol\":6099:6329  if (currentMonth > lastUpdatedMonth) {... */\ntag_41:\n    /* \"src/eStock.sol\":6024:6335  {... */\n  pop\n    /* \"src/eStock.sol\":5981:6335  function updateTransactionHistory() public {... */\n  jump\t// out\n    /* \"@openzeppelin/contracts/token/ERC20/ERC20.sol\":6008:7115  function _update(address from, address to, uint256 value) internal virtual {... */\ntag_35:\n  sub(shl(0xa0, 0x01), 0x01)\n    /* \"@openzeppelin/contracts/token/ERC20/ERC20.sol\":6097:6115  from == address(0) */\n  dup4\n  and\n    /* \"@openzeppelin/contracts/token/ERC20/ERC20.sol\":6093:6633  if (from == address(0)) {... */\n  tag_47\n  jumpi\n    /* \"@openzeppelin/contracts/token/ERC20/ERC20.sol\":6249:6254  value */\n  dup1\n    /* \"@openzeppelin/contracts/token/ERC20/ERC20.sol\":6233:6245  _totalSupply */\n  0x02\n  0x00\n    /* \"@openzeppelin/contracts/token/ERC20/ERC20.sol\":6233:6254  _totalSupply += value */\n  dup3\n  dup3\n  sload\n  tag_48\n  swap2\n  swap1\n  tag_49\n  jump\t// in\ntag_48:\n  swap1\n  swap2\n  sstore\n  pop\n    /* \"@openzeppelin/contracts/token/ERC20/ERC20.sol\":6093:6633  if (from == address(0)) {... */\n  tag_50\n  swap1\n  pop\n  jump\ntag_47:\n  sub(shl(0xa0, 0x01), 0x01)\n    /* \"@openzeppelin/contracts/token/ERC20/ERC20.sol\":6307:6322  _balances[from] */\n  dup4\n  and\n    /* \"@openzeppelin/contracts/token/ERC20/ERC20.sol\":6285:6304  uint256 fromBalance */\n  0x00\n    /* \"@openzeppelin/contracts/token/ERC20/ERC20.sol\":6307:6322  _balances[from] */\n  swap1\n  dup2\n  mstore\n  0x20\n  dup2\n  swap1\n  mstore\n  0x40\n  swap1\n  keccak256\n  sload\n    /* \"@openzeppelin/contracts/token/ERC20/ERC20.sol\":6340:6359  fromBalance < value */\n  dup2\n  dup2\n  lt\n    /* \"@openzeppelin/contracts/token/ERC20/ERC20.sol\":6336:6451  if (fromBalance < value) {... */\n  iszero\n  tag_51\n  jumpi\n    /* \"@openzeppelin/contracts/token/ERC20/ERC20.sol\":6386:6436  ERC20InsufficientBalance(from, fromBalance, value) */\n  mload(0x40)\n  shl(0xe2, 0x391434e3)\n  dup2\n  mstore\n  sub(shl(0xa0, 0x01), 0x01)\n    /* \"#utility.yul\":7377:7409   */\n  dup6\n  and\n    /* \"@openzeppelin/contracts/token/ERC20/ERC20.sol\":6386:6436  ERC20InsufficientBalance(from, fromBalance, value) */\n  0x04\n  dup3\n  add\n    /* \"#utility.yul\":7359:7410   */\n  mstore\n    /* \"#utility.yul\":7426:7444   */\n  0x24\n  dup2\n  add\n    /* \"#utility.yul\":7419:7453   */\n  dup3\n  swap1\n  mstore\n    /* \"#utility.yul\":7469:7487   */\n  0x44\n  dup2\n  add\n    /* \"#utility.yul\":7462:7496   */\n  dup4\n  swap1\n  mstore\n    /* \"#utility.yul\":7332:7350   */\n  0x64\n  add\n    /* \"@openzeppelin/contracts/token/ERC20/ERC20.sol\":6386:6436  ERC20InsufficientBalance(from, fromBalance, value) */\n  tag_13\n    /* \"#utility.yul\":7157:7502   */\n  jump\n    /* \"@openzeppelin/contracts/token/ERC20/ERC20.sol\":6336:6451  if (fromBalance < value) {... */\ntag_51:\n  sub(shl(0xa0, 0x01), 0x01)\n    /* \"@openzeppelin/contracts/token/ERC20/ERC20.sol\":6571:6586  _balances[from] */\n  dup5\n  and\n    /* \"@openzeppelin/contracts/token/ERC20/ERC20.sol\":6571:6580  _balances */\n  0x00\n    /* \"@openzeppelin/contracts/token/ERC20/ERC20.sol\":6571:6586  _balances[from] */\n  swap1\n  dup2\n  mstore\n  0x20\n  dup2\n  swap1\n  mstore\n  0x40\n  swap1\n  keccak256\n    /* \"@openzeppelin/contracts/token/ERC20/ERC20.sol\":6589:6608  fromBalance - value */\n  swap1\n  dup3\n  swap1\n  sub\n    /* \"@openzeppelin/contracts/token/ERC20/ERC20.sol\":6571:6608  _balances[from] = fromBalance - value */\n  swap1\n  sstore\n    /* \"@openzeppelin/contracts/token/ERC20/ERC20.sol\":6093:6633  if (from == address(0)) {... */\ntag_50:\n  sub(shl(0xa0, 0x01), 0x01)\n    /* \"@openzeppelin/contracts/token/ERC20/ERC20.sol\":6647:6663  to == address(0) */\n  dup3\n  and\n    /* \"@openzeppelin/contracts/token/ERC20/ERC20.sol\":6643:7068  if (to == address(0)) {... */\n  tag_54\n  jumpi\n    /* \"@openzeppelin/contracts/token/ERC20/ERC20.sol\":6810:6822  _totalSupply */\n  0x02\n    /* \"@openzeppelin/contracts/token/ERC20/ERC20.sol\":6810:6831  _totalSupply -= value */\n  dup1\n  sload\n  dup3\n  swap1\n  sub\n  swap1\n  sstore\n    /* \"@openzeppelin/contracts/token/ERC20/ERC20.sol\":6643:7068  if (to == address(0)) {... */\n  jump(tag_55)\ntag_54:\n  sub(shl(0xa0, 0x01), 0x01)\n    /* \"@openzeppelin/contracts/token/ERC20/ERC20.sol\":7021:7034  _balances[to] */\n  dup3\n  and\n    /* \"@openzeppelin/contracts/token/ERC20/ERC20.sol\":7021:7030  _balances */\n  0x00\n    /* \"@openzeppelin/contracts/token/ERC20/ERC20.sol\":7021:7034  _balances[to] */\n  swap1\n  dup2\n  mstore\n  0x20\n  dup2\n  swap1\n  mstore\n  0x40\n  swap1\n  keccak256\n    /* \"@openzeppelin/contracts/token/ERC20/ERC20.sol\":7021:7043  _balances[to] += value */\n  dup1\n  sload\n  dup3\n  add\n  swap1\n  sstore\n    /* \"@openzeppelin/contracts/token/ERC20/ERC20.sol\":6643:7068  if (to == address(0)) {... */\ntag_55:\n    /* \"@openzeppelin/contracts/token/ERC20/ERC20.sol\":7098:7100  to */\n  dup2\n  sub(shl(0xa0, 0x01), 0x01)\n    /* \"@openzeppelin/contracts/token/ERC20/ERC20.sol\":7083:7108  Transfer(from, to, value) */\n  and\n    /* \"@openzeppelin/contracts/token/ERC20/ERC20.sol\":7092:7096  from */\n  dup4\n  sub(shl(0xa0, 0x01), 0x01)\n    /* \"@openzeppelin/contracts/token/ERC20/ERC20.sol\":7083:7108  Transfer(from, to, value) */\n  and\n  0xddf252ad1be2c89b69c2b068fc378daa952ba7f163c4a11628f55a4df523b3ef\n    /* \"@openzeppelin/contracts/token/ERC20/ERC20.sol\":7102:7107  value */\n  dup4\n    /* \"@openzeppelin/contracts/token/ERC20/ERC20.sol\":7083:7108  Transfer(from, to, value) */\n  mload(0x40)\n  tag_56\n  swap2\n    /* \"#utility.yul\":7653:7678   */\n  dup2\n  mstore\n    /* \"#utility.yul\":7641:7643   */\n  0x20\n    /* \"#utility.yul\":7626:7644   */\n  add\n  swap1\n    /* \"#utility.yul\":7507:7684   */\n  jump\n    /* \"@openzeppelin/contracts/token/ERC20/ERC20.sol\":7083:7108  Transfer(from, to, value) */\ntag_56:\n  mload(0x40)\n  dup1\n  swap2\n  sub\n  swap1\n  log3\n    /* \"@openzeppelin/contracts/token/ERC20/ERC20.sol\":6008:7115  function _update(address from, address to, uint256 value) internal virtual {... */\n  pop\n  pop\n  pop\n  jump\t// out\n    /* \"#utility.yul\":14:141   */\ntag_58:\n    /* \"#utility.yul\":75:85   */\n  0x4e487b71\n    /* \"#utility.yul\":70:73   */\n  0xe0\n    /* \"#utility.yul\":66:86   */\n  shl\n    /* \"#utility.yul\":63:64   */\n  0x00\n    /* \"#utility.yul\":56:87   */\n  mstore\n    /* \"#utility.yul\":106:110   */\n  0x41\n    /* \"#utility.yul\":103:104   */\n  0x04\n    /* \"#utility.yul\":96:111   */\n  mstore\n    /* \"#utility.yul\":130:134   */\n  0x24\n    /* \"#utility.yul\":127:128   */\n  0x00\n    /* \"#utility.yul\":120:135   */\n  revert\n    /* \"#utility.yul\":146:869   */\ntag_59:\n    /* \"#utility.yul\":200:205   */\n  0x00\n    /* \"#utility.yul\":253:256   */\n  dup3\n    /* \"#utility.yul\":246:250   */\n  0x1f\n    /* \"#utility.yul\":238:244   */\n  dup4\n    /* \"#utility.yul\":234:251   */\n  add\n    /* \"#utility.yul\":230:257   */\n  slt\n    /* \"#utility.yul\":220:275   */\n  tag_71\n  jumpi\n    /* \"#utility.yul\":271:272   */\n  0x00\n    /* \"#utility.yul\":268:269   */\n  dup1\n    /* \"#utility.yul\":261:273   */\n  revert\n    /* \"#utility.yul\":220:275   */\ntag_71:\n    /* \"#utility.yul\":298:311   */\n  dup2\n  mload\n  sub(shl(0x40, 0x01), 0x01)\n    /* \"#utility.yul\":323:353   */\n  dup2\n  gt\n    /* \"#utility.yul\":320:376   */\n  iszero\n  tag_73\n  jumpi\n    /* \"#utility.yul\":356:374   */\n  tag_73\n  tag_58\n  jump\t// in\ntag_73:\n    /* \"#utility.yul\":405:407   */\n  0x40\n    /* \"#utility.yul\":399:408   */\n  mload\n    /* \"#utility.yul\":497:499   */\n  0x1f\n    /* \"#utility.yul\":459:476   */\n  dup3\n  add\n  not(0x1f)\n    /* \"#utility.yul\":455:486   */\n  swap1\n  dup2\n  and\n    /* \"#utility.yul\":488:490   */\n  0x3f\n    /* \"#utility.yul\":451:491   */\n  add\n    /* \"#utility.yul\":447:501   */\n  and\n    /* \"#utility.yul\":435:502   */\n  dup2\n  add\n  sub(shl(0x40, 0x01), 0x01)\n    /* \"#utility.yul\":517:551   */\n  dup2\n  gt\n    /* \"#utility.yul\":553:575   */\n  dup3\n  dup3\n  lt\n    /* \"#utility.yul\":514:576   */\n  or\n    /* \"#utility.yul\":511:599   */\n  iszero\n  tag_75\n  jumpi\n    /* \"#utility.yul\":579:597   */\n  tag_75\n  tag_58\n  jump\t// in\ntag_75:\n    /* \"#utility.yul\":615:617   */\n  0x40\n    /* \"#utility.yul\":608:630   */\n  mstore\n    /* \"#utility.yul\":639:661   */\n  dup2\n  dup2\n  mstore\n    /* \"#utility.yul\":680:699   */\n  dup4\n  dup3\n  add\n    /* \"#utility.yul\":701:705   */\n  0x20\n    /* \"#utility.yul\":676:706   */\n  add\n    /* \"#utility.yul\":673:712   */\n  dup6\n  lt\n    /* \"#utility.yul\":670:729   */\n  iszero\n  tag_76\n  jumpi\n    /* \"#utility.yul\":725:726   */\n  0x00\n    /* \"#utility.yul\":722:723   */\n  dup1\n    /* \"#utility.yul\":715:727   */\n  revert\n    /* \"#utility.yul\":670:729   */\ntag_76:\n    /* \"#utility.yul\":782:788   */\n  dup2\n    /* \"#utility.yul\":775:779   */\n  0x20\n    /* \"#utility.yul\":767:773   */\n  dup6\n    /* \"#utility.yul\":763:780   */\n  add\n    /* \"#utility.yul\":756:760   */\n  0x20\n    /* \"#utility.yul\":748:754   */\n  dup4\n    /* \"#utility.yul\":744:761   */\n  add\n    /* \"#utility.yul\":738:789   */\n  mcopy\n    /* \"#utility.yul\":837:838   */\n  0x00\n    /* \"#utility.yul\":809:828   */\n  swap2\n  dup2\n  add\n    /* \"#utility.yul\":830:834   */\n  0x20\n    /* \"#utility.yul\":805:835   */\n  add\n    /* \"#utility.yul\":798:839   */\n  swap2\n  swap1\n  swap2\n  mstore\n    /* \"#utility.yul\":813:819   */\n  swap4\n    /* \"#utility.yul\":146:869   */\n  swap3\n  pop\n  pop\n  pop\n  jump\t// out\n    /* \"#utility.yul\":874:1051   */\ntag_60:\n    /* \"#utility.yul\":953:966   */\n  dup1\n  mload\n  sub(shl(0xa0, 0x01), 0x01)\n    /* \"#utility.yul\":995:1026   */\n  dup2\n  and\n    /* \"#utility.yul\":985:1027   */\n  dup2\n  eq\n    /* \"#utility.yul\":975:1045   */\n  tag_78\n  jumpi\n    /* \"#utility.yul\":1041:1042   */\n  0x00\n    /* \"#utility.yul\":1038:1039   */\n  dup1\n    /* \"#utility.yul\":1031:1043   */\n  revert\n    /* \"#utility.yul\":975:1045   */\ntag_78:\n    /* \"#utility.yul\":874:1051   */\n  swap2\n  swap1\n  pop\n  jump\t// out\n    /* \"#utility.yul\":1056:2120   */\ntag_3:\n    /* \"#utility.yul\":1200:1206   */\n  0x00\n    /* \"#utility.yul\":1208:1214   */\n  dup1\n    /* \"#utility.yul\":1216:1222   */\n  0x00\n    /* \"#utility.yul\":1224:1230   */\n  dup1\n    /* \"#utility.yul\":1232:1238   */\n  0x00\n    /* \"#utility.yul\":1240:1246   */\n  dup1\n    /* \"#utility.yul\":1248:1254   */\n  0x00\n    /* \"#utility.yul\":1301:1304   */\n  0xe0\n    /* \"#utility.yul\":1289:1298   */\n  dup9\n    /* \"#utility.yul\":1280:1287   */\n  dup11\n    /* \"#utility.yul\":1276:1299   */\n  sub\n    /* \"#utility.yul\":1272:1305   */\n  slt\n    /* \"#utility.yul\":1269:1322   */\n  iszero\n  tag_80\n  jumpi\n    /* \"#utility.yul\":1318:1319   */\n  0x00\n    /* \"#utility.yul\":1315:1316   */\n  dup1\n    /* \"#utility.yul\":1308:1320   */\n  revert\n    /* \"#utility.yul\":1269:1322   */\ntag_80:\n    /* \"#utility.yul\":1345:1361   */\n  dup8\n  mload\n  sub(shl(0x40, 0x01), 0x01)\n    /* \"#utility.yul\":1373:1403   */\n  dup2\n  gt\n    /* \"#utility.yul\":1370:1420   */\n  iszero\n  tag_81\n  jumpi\n    /* \"#utility.yul\":1416:1417   */\n  0x00\n    /* \"#utility.yul\":1413:1414   */\n  dup1\n    /* \"#utility.yul\":1406:1418   */\n  revert\n    /* \"#utility.yul\":1370:1420   */\ntag_81:\n    /* \"#utility.yul\":1439:1500   */\n  tag_82\n    /* \"#utility.yul\":1492:1499   */\n  dup11\n    /* \"#utility.yul\":1483:1489   */\n  dup3\n    /* \"#utility.yul\":1472:1481   */\n  dup12\n    /* \"#utility.yul\":1468:1490   */\n  add\n    /* \"#utility.yul\":1439:1500   */\n  tag_59\n  jump\t// in\ntag_82:\n    /* \"#utility.yul\":1546:1548   */\n  0x20\n    /* \"#utility.yul\":1531:1549   */\n  dup11\n  add\n    /* \"#utility.yul\":1525:1550   */\n  mload\n    /* \"#utility.yul\":1429:1500   */\n  swap1\n  swap9\n  pop\n    /* \"#utility.yul\":1525:1550   */\n  swap1\n  pop\n  sub(shl(0x40, 0x01), 0x01)\n    /* \"#utility.yul\":1562:1594   */\n  dup2\n  gt\n    /* \"#utility.yul\":1559:1611   */\n  iszero\n  tag_83\n  jumpi\n    /* \"#utility.yul\":1607:1608   */\n  0x00\n    /* \"#utility.yul\":1604:1605   */\n  dup1\n    /* \"#utility.yul\":1597:1609   */\n  revert\n    /* \"#utility.yul\":1559:1611   */\ntag_83:\n    /* \"#utility.yul\":1630:1693   */\n  tag_84\n    /* \"#utility.yul\":1685:1692   */\n  dup11\n    /* \"#utility.yul\":1674:1682   */\n  dup3\n    /* \"#utility.yul\":1663:1672   */\n  dup12\n    /* \"#utility.yul\":1659:1683   */\n  add\n    /* \"#utility.yul\":1630:1693   */\n  tag_59\n  jump\t// in\ntag_84:\n    /* \"#utility.yul\":1755:1757   */\n  0x40\n    /* \"#utility.yul\":1740:1758   */\n  dup11\n  add\n    /* \"#utility.yul\":1734:1759   */\n  mload\n    /* \"#utility.yul\":1849:1851   */\n  0x60\n    /* \"#utility.yul\":1834:1852   */\n  dup12\n  add\n    /* \"#utility.yul\":1828:1853   */\n  mload\n    /* \"#utility.yul\":1945:1948   */\n  0x80\n    /* \"#utility.yul\":1930:1949   */\n  dup13\n  add\n    /* \"#utility.yul\":1924:1950   */\n  mload\n    /* \"#utility.yul\":1620:1693   */\n  swap3\n  swap10\n  pop\n    /* \"#utility.yul\":1734:1759   */\n  swap1\n  swap8\n  pop\n    /* \"#utility.yul\":1828:1853   */\n  swap6\n  pop\n    /* \"#utility.yul\":1924:1950   */\n  swap4\n  pop\n    /* \"#utility.yul\":1995:2045   */\n  tag_85\n  swap1\n  pop\n    /* \"#utility.yul\":2040:2043   */\n  0xa0\n    /* \"#utility.yul\":2025:2044   */\n  dup10\n  add\n    /* \"#utility.yul\":1995:2045   */\n  tag_60\n  jump\t// in\ntag_85:\n    /* \"#utility.yul\":1985:2045   */\n  swap2\n  pop\n    /* \"#utility.yul\":2064:2114   */\n  tag_86\n    /* \"#utility.yul\":2109:2112   */\n  0xc0\n    /* \"#utility.yul\":2098:2107   */\n  dup10\n    /* \"#utility.yul\":2094:2113   */\n  add\n    /* \"#utility.yul\":2064:2114   */\n  tag_60\n  jump\t// in\ntag_86:\n    /* \"#utility.yul\":2054:2114   */\n  swap1\n  pop\n    /* \"#utility.yul\":1056:2120   */\n  swap3\n  swap6\n  swap9\n  swap2\n  swap5\n  swap8\n  pop\n  swap3\n  swap6\n  pop\n  jump\t// out\n    /* \"#utility.yul\":2125:2505   */\ntag_61:\n    /* \"#utility.yul\":2204:2205   */\n  0x01\n    /* \"#utility.yul\":2200:2212   */\n  dup2\n  dup2\n  shr\n  swap1\n    /* \"#utility.yul\":2247:2259   */\n  dup3\n  and\n  dup1\n    /* \"#utility.yul\":2268:2329   */\n  tag_88\n  jumpi\n    /* \"#utility.yul\":2322:2326   */\n  0x7f\n    /* \"#utility.yul\":2314:2320   */\n  dup3\n    /* \"#utility.yul\":2310:2327   */\n  and\n    /* \"#utility.yul\":2300:2327   */\n  swap2\n  pop\n    /* \"#utility.yul\":2268:2329   */\ntag_88:\n    /* \"#utility.yul\":2375:2377   */\n  0x20\n    /* \"#utility.yul\":2367:2373   */\n  dup3\n    /* \"#utility.yul\":2364:2378   */\n  lt\n    /* \"#utility.yul\":2344:2362   */\n  dup2\n    /* \"#utility.yul\":2341:2379   */\n  sub\n    /* \"#utility.yul\":2338:2499   */\n  tag_89\n  jumpi\n    /* \"#utility.yul\":2421:2431   */\n  0x4e487b71\n    /* \"#utility.yul\":2416:2419   */\n  0xe0\n    /* \"#utility.yul\":2412:2432   */\n  shl\n    /* \"#utility.yul\":2409:2410   */\n  0x00\n    /* \"#utility.yul\":2402:2433   */\n  mstore\n    /* \"#utility.yul\":2456:2460   */\n  0x22\n    /* \"#utility.yul\":2453:2454   */\n  0x04\n    /* \"#utility.yul\":2446:2461   */\n  mstore\n    /* \"#utility.yul\":2484:2488   */\n  0x24\n    /* \"#utility.yul\":2481:2482   */\n  0x00\n    /* \"#utility.yul\":2474:2489   */\n  revert\n    /* \"#utility.yul\":2338:2499   */\ntag_89:\n  pop\n    /* \"#utility.yul\":2125:2505   */\n  swap2\n  swap1\n  pop\n  jump\t// out\n    /* \"#utility.yul\":2636:3154   */\ntag_63:\n    /* \"#utility.yul\":2738:2740   */\n  0x1f\n    /* \"#utility.yul\":2733:2736   */\n  dup3\n    /* \"#utility.yul\":2730:2741   */\n  gt\n    /* \"#utility.yul\":2727:3148   */\n  iszero\n  tag_92\n  jumpi\n    /* \"#utility.yul\":2774:2779   */\n  dup1\n    /* \"#utility.yul\":2771:2772   */\n  0x00\n    /* \"#utility.yul\":2764:2780   */\n  mstore\n    /* \"#utility.yul\":2818:2822   */\n  0x20\n    /* \"#utility.yul\":2815:2816   */\n  0x00\n    /* \"#utility.yul\":2805:2823   */\n  keccak256\n    /* \"#utility.yul\":2888:2890   */\n  0x1f\n    /* \"#utility.yul\":2876:2886   */\n  dup5\n    /* \"#utility.yul\":2872:2891   */\n  add\n    /* \"#utility.yul\":2869:2870   */\n  0x05\n    /* \"#utility.yul\":2865:2892   */\n  shr\n    /* \"#utility.yul\":2859:2863   */\n  dup2\n    /* \"#utility.yul\":2855:2893   */\n  add\n    /* \"#utility.yul\":2924:2928   */\n  0x20\n    /* \"#utility.yul\":2912:2922   */\n  dup6\n    /* \"#utility.yul\":2909:2929   */\n  lt\n    /* \"#utility.yul\":2906:2953   */\n  iszero\n  tag_93\n  jumpi\n  pop\n    /* \"#utility.yul\":2947:2951   */\n  dup1\n    /* \"#utility.yul\":2906:2953   */\ntag_93:\n    /* \"#utility.yul\":3002:3004   */\n  0x1f\n    /* \"#utility.yul\":2997:3000   */\n  dup5\n    /* \"#utility.yul\":2993:3005   */\n  add\n    /* \"#utility.yul\":2990:2991   */\n  0x05\n    /* \"#utility.yul\":2986:3006   */\n  shr\n    /* \"#utility.yul\":2980:2984   */\n  dup3\n    /* \"#utility.yul\":2976:3007   */\n  add\n    /* \"#utility.yul\":2966:3007   */\n  swap2\n  pop\n    /* \"#utility.yul\":3057:3138   */\ntag_94:\n    /* \"#utility.yul\":3075:3077   */\n  dup2\n    /* \"#utility.yul\":3068:3073   */\n  dup2\n    /* \"#utility.yul\":3065:3078   */\n  lt\n    /* \"#utility.yul\":3057:3138   */\n  iszero\n  tag_96\n  jumpi\n    /* \"#utility.yul\":3134:3135   */\n  0x00\n    /* \"#utility.yul\":3120:3136   */\n  dup2\n  sstore\n    /* \"#utility.yul\":3101:3102   */\n  0x01\n    /* \"#utility.yul\":3090:3103   */\n  add\n    /* \"#utility.yul\":3057:3138   */\n  jump(tag_94)\ntag_96:\n    /* \"#utility.yul\":3061:3064   */\n  pop\n  pop\n    /* \"#utility.yul\":2727:3148   */\ntag_92:\n    /* \"#utility.yul\":2636:3154   */\n  pop\n  pop\n  pop\n  jump\t// out\n    /* \"#utility.yul\":3330:4629   */\ntag_9:\n    /* \"#utility.yul\":3450:3460   */\n  dup2\n  mload\n  sub(shl(0x40, 0x01), 0x01)\n    /* \"#utility.yul\":3472:3502   */\n  dup2\n  gt\n    /* \"#utility.yul\":3469:3525   */\n  iszero\n  tag_100\n  jumpi\n    /* \"#utility.yul\":3505:3523   */\n  tag_100\n  tag_58\n  jump\t// in\ntag_100:\n    /* \"#utility.yul\":3534:3631   */\n  tag_101\n    /* \"#utility.yul\":3624:3630   */\n  dup2\n    /* \"#utility.yul\":3584:3622   */\n  tag_102\n    /* \"#utility.yul\":3616:3620   */\n  dup5\n    /* \"#utility.yul\":3610:3621   */\n  sload\n    /* \"#utility.yul\":3584:3622   */\n  tag_61\n  jump\t// in\ntag_102:\n    /* \"#utility.yul\":3578:3582   */\n  dup5\n    /* \"#utility.yul\":3534:3631   */\n  tag_63\n  jump\t// in\ntag_101:\n    /* \"#utility.yul\":3680:3684   */\n  0x20\n    /* \"#utility.yul\":3711:3713   */\n  0x1f\n    /* \"#utility.yul\":3700:3714   */\n  dup3\n  gt\n    /* \"#utility.yul\":3728:3729   */\n  0x01\n    /* \"#utility.yul\":3723:4372   */\n  dup2\n  eq\n  tag_104\n  jumpi\n    /* \"#utility.yul\":4416:4417   */\n  0x00\n    /* \"#utility.yul\":4433:4439   */\n  dup4\n    /* \"#utility.yul\":4430:4519   */\n  iszero\n  tag_105\n  jumpi\n  pop\n    /* \"#utility.yul\":4485:4504   */\n  dup5\n  dup3\n  add\n    /* \"#utility.yul\":4479:4505   */\n  mload\n    /* \"#utility.yul\":4430:4519   */\ntag_105:\n  not(0x00)\n    /* \"#utility.yul\":3287:3288   */\n  0x03\n    /* \"#utility.yul\":3283:3294   */\n  dup6\n  swap1\n  shl\n    /* \"#utility.yul\":3279:3303   */\n  shr\n    /* \"#utility.yul\":3275:3304   */\n  not\n    /* \"#utility.yul\":3265:3305   */\n  and\n    /* \"#utility.yul\":3311:3312   */\n  0x01\n    /* \"#utility.yul\":3307:3318   */\n  dup5\n  swap1\n  shl\n    /* \"#utility.yul\":3262:3319   */\n  or\n    /* \"#utility.yul\":4532:4613   */\n  dup5\n  sstore\n    /* \"#utility.yul\":3693:4623   */\n  jump(tag_96)\n    /* \"#utility.yul\":3723:4372   */\ntag_104:\n    /* \"#utility.yul\":2583:2584   */\n  0x00\n    /* \"#utility.yul\":2576:2590   */\n  dup5\n  dup2\n  mstore\n    /* \"#utility.yul\":2620:2624   */\n  0x20\n    /* \"#utility.yul\":2607:2625   */\n  dup2\n  keccak256\n  not(0x1f)\n    /* \"#utility.yul\":3759:3779   */\n  dup6\n  and\n  swap2\n    /* \"#utility.yul\":3877:4099   */\ntag_108:\n    /* \"#utility.yul\":3891:3898   */\n  dup3\n    /* \"#utility.yul\":3888:3889   */\n  dup2\n    /* \"#utility.yul\":3885:3899   */\n  lt\n    /* \"#utility.yul\":3877:4099   */\n  iszero\n  tag_110\n  jumpi\n    /* \"#utility.yul\":3973:3992   */\n  dup8\n  dup6\n  add\n    /* \"#utility.yul\":3967:3993   */\n  mload\n    /* \"#utility.yul\":3952:3994   */\n  dup3\n  sstore\n    /* \"#utility.yul\":4080:4084   */\n  0x20\n    /* \"#utility.yul\":4065:4085   */\n  swap5\n  dup6\n  add\n  swap5\n    /* \"#utility.yul\":4033:4034   */\n  0x01\n    /* \"#utility.yul\":4021:4035   */\n  swap1\n  swap3\n  add\n  swap2\n    /* \"#utility.yul\":3907:3919   */\n  add\n    /* \"#utility.yul\":3877:4099   */\n  jump(tag_108)\ntag_110:\n    /* \"#utility.yul\":3881:3884   */\n  pop\n    /* \"#utility.yul\":4127:4133   */\n  dup5\n    /* \"#utility.yul\":4118:4125   */\n  dup3\n    /* \"#utility.yul\":4115:4134   */\n  lt\n    /* \"#utility.yul\":4112:4313   */\n  iszero\n  tag_111\n  jumpi\n    /* \"#utility.yul\":4188:4207   */\n  dup7\n  dup5\n  add\n    /* \"#utility.yul\":4182:4208   */\n  mload\n  not(0x00)\n    /* \"#utility.yul\":4271:4272   */\n  0x03\n    /* \"#utility.yul\":4267:4281   */\n  dup8\n  swap1\n  shl\n    /* \"#utility.yul\":4283:4286   */\n  0xf8\n    /* \"#utility.yul\":4263:4287   */\n  and\n    /* \"#utility.yul\":4259:4296   */\n  shr\n    /* \"#utility.yul\":4255:4297   */\n  not\n    /* \"#utility.yul\":4240:4298   */\n  and\n    /* \"#utility.yul\":4225:4299   */\n  dup2\n  sstore\n    /* \"#utility.yul\":4112:4313   */\ntag_111:\n  pop\n  pop\n  pop\n  pop\n    /* \"#utility.yul\":4359:4360   */\n  0x01\n    /* \"#utility.yul\":4343:4357   */\n  swap1\n  dup2\n  shl\n    /* \"#utility.yul\":4339:4361   */\n  add\n    /* \"#utility.yul\":4326:4362   */\n  swap1\n  sstore\n  pop\n    /* \"#utility.yul\":3330:4629   */\n  jump\t// out\n    /* \"#utility.yul\":4634:4837   */\ntag_14:\n  sub(shl(0xa0, 0x01), 0x01)\n    /* \"#utility.yul\":4798:4830   */\n  swap2\n  swap1\n  swap2\n  and\n    /* \"#utility.yul\":4780:4831   */\n  dup2\n  mstore\n    /* \"#utility.yul\":4768:4770   */\n  0x20\n    /* \"#utility.yul\":4753:4771   */\n  add\n  swap1\n    /* \"#utility.yul\":4634:4837   */\n  jump\t// out\n    /* \"#utility.yul\":4842:4969   */\ntag_65:\n    /* \"#utility.yul\":4903:4913   */\n  0x4e487b71\n    /* \"#utility.yul\":4898:4901   */\n  0xe0\n    /* \"#utility.yul\":4894:4914   */\n  shl\n    /* \"#utility.yul\":4891:4892   */\n  0x00\n    /* \"#utility.yul\":4884:4915   */\n  mstore\n    /* \"#utility.yul\":4934:4938   */\n  0x11\n    /* \"#utility.yul\":4931:4932   */\n  0x04\n    /* \"#utility.yul\":4924:4939   */\n  mstore\n    /* \"#utility.yul\":4958:4962   */\n  0x24\n    /* \"#utility.yul\":4955:4956   */\n  0x00\n    /* \"#utility.yul\":4948:4963   */\n  revert\n    /* \"#utility.yul\":4974:5349   */\ntag_66:\n    /* \"#utility.yul\":5062:5063   */\n  0x01\n    /* \"#utility.yul\":5080:5085   */\n  dup2\n    /* \"#utility.yul\":5094:5343   */\ntag_115:\n    /* \"#utility.yul\":5115:5116   */\n  0x01\n    /* \"#utility.yul\":5105:5113   */\n  dup5\n    /* \"#utility.yul\":5102:5117   */\n  gt\n    /* \"#utility.yul\":5094:5343   */\n  iszero\n  tag_117\n  jumpi\n    /* \"#utility.yul\":5165:5169   */\n  dup1\n    /* \"#utility.yul\":5160:5163   */\n  dup6\n    /* \"#utility.yul\":5156:5170   */\n  div\n    /* \"#utility.yul\":5150:5154   */\n  dup2\n    /* \"#utility.yul\":5147:5171   */\n  gt\n    /* \"#utility.yul\":5144:5194   */\n  iszero\n  tag_119\n  jumpi\n    /* \"#utility.yul\":5174:5192   */\n  tag_119\n  tag_65\n  jump\t// in\ntag_119:\n    /* \"#utility.yul\":5224:5225   */\n  0x01\n    /* \"#utility.yul\":5214:5222   */\n  dup5\n    /* \"#utility.yul\":5210:5226   */\n  and\n    /* \"#utility.yul\":5207:5256   */\n  iszero\n  tag_120\n  jumpi\n    /* \"#utility.yul\":5238:5254   */\n  swap1\n  dup2\n  mul\n  swap1\n    /* \"#utility.yul\":5207:5256   */\ntag_120:\n    /* \"#utility.yul\":5321:5322   */\n  0x01\n    /* \"#utility.yul\":5317:5333   */\n  swap4\n  swap1\n  swap4\n  shr\n  swap3\n    /* \"#utility.yul\":5277:5292   */\n  dup1\n  mul\n    /* \"#utility.yul\":5094:5343   */\n  jump(tag_115)\ntag_117:\n    /* \"#utility.yul\":4974:5349   */\n  swap4\n  pop\n  swap4\n  swap2\n  pop\n  pop\n  jump\t// out\n    /* \"#utility.yul\":5354:6256   */\ntag_67:\n    /* \"#utility.yul\":5403:5408   */\n  0x00\n    /* \"#utility.yul\":5433:5441   */\n  dup3\n    /* \"#utility.yul\":5423:5503   */\n  tag_122\n  jumpi\n  pop\n    /* \"#utility.yul\":5474:5475   */\n  0x01\n    /* \"#utility.yul\":5488:5493   */\n  jump(tag_121)\n    /* \"#utility.yul\":5423:5503   */\ntag_122:\n    /* \"#utility.yul\":5522:5526   */\n  dup2\n    /* \"#utility.yul\":5512:5588   */\n  tag_123\n  jumpi\n  pop\n    /* \"#utility.yul\":5559:5560   */\n  0x00\n    /* \"#utility.yul\":5573:5578   */\n  jump(tag_121)\n    /* \"#utility.yul\":5512:5588   */\ntag_123:\n    /* \"#utility.yul\":5604:5608   */\n  dup2\n    /* \"#utility.yul\":5622:5623   */\n  0x01\n    /* \"#utility.yul\":5617:5676   */\n  dup2\n  eq\n  tag_125\n  jumpi\n    /* \"#utility.yul\":5690:5691   */\n  0x02\n    /* \"#utility.yul\":5685:5859   */\n  dup2\n  eq\n  tag_126\n  jumpi\n    /* \"#utility.yul\":5597:5859   */\n  jump(tag_124)\n    /* \"#utility.yul\":5617:5676   */\ntag_125:\n    /* \"#utility.yul\":5647:5648   */\n  0x01\n    /* \"#utility.yul\":5638:5648   */\n  swap2\n  pop\n    /* \"#utility.yul\":5661:5666   */\n  pop\n  jump(tag_121)\n    /* \"#utility.yul\":5685:5859   */\ntag_126:\n    /* \"#utility.yul\":5722:5725   */\n  0xff\n    /* \"#utility.yul\":5712:5720   */\n  dup5\n    /* \"#utility.yul\":5709:5726   */\n  gt\n    /* \"#utility.yul\":5706:5749   */\n  iszero\n  tag_128\n  jumpi\n    /* \"#utility.yul\":5729:5747   */\n  tag_128\n  tag_65\n  jump\t// in\ntag_128:\n  pop\n  pop\n    /* \"#utility.yul\":5785:5786   */\n  0x01\n    /* \"#utility.yul\":5771:5787   */\n  dup3\n  shl\n    /* \"#utility.yul\":5844:5849   */\n  jump(tag_121)\n    /* \"#utility.yul\":5597:5859   */\ntag_124:\n  pop\n    /* \"#utility.yul\":5943:5945   */\n  0x20\n    /* \"#utility.yul\":5933:5941   */\n  dup4\n    /* \"#utility.yul\":5930:5946   */\n  lt\n    /* \"#utility.yul\":5924:5927   */\n  0x0133\n    /* \"#utility.yul\":5918:5922   */\n  dup4\n    /* \"#utility.yul\":5915:5928   */\n  lt\n    /* \"#utility.yul\":5911:5947   */\n  and\n    /* \"#utility.yul\":5905:5907   */\n  0x4e\n    /* \"#utility.yul\":5895:5903   */\n  dup5\n    /* \"#utility.yul\":5892:5908   */\n  lt\n    /* \"#utility.yul\":5887:5889   */\n  0x0b\n    /* \"#utility.yul\":5881:5885   */\n  dup5\n    /* \"#utility.yul\":5878:5890   */\n  lt\n    /* \"#utility.yul\":5874:5909   */\n  and\n    /* \"#utility.yul\":5871:5948   */\n  or\n    /* \"#utility.yul\":5868:6071   */\n  iszero\n  tag_129\n  jumpi\n  pop\n    /* \"#utility.yul\":5980:5999   */\n  dup2\n  dup2\n  exp\n    /* \"#utility.yul\":6056:6061   */\n  jump(tag_121)\n    /* \"#utility.yul\":5868:6071   */\ntag_129:\n    /* \"#utility.yul\":6103:6145   */\n  tag_130\n  not(0x00)\n    /* \"#utility.yul\":6128:6136   */\n  dup5\n    /* \"#utility.yul\":6122:6126   */\n  dup5\n    /* \"#utility.yul\":6103:6145   */\n  tag_66\n  jump\t// in\ntag_130:\n    /* \"#utility.yul\":6181:6187   */\n  dup1\n    /* \"#utility.yul\":6177:6178   */\n  0x00\n    /* \"#utility.yul\":6173:6179   */\n  not\n    /* \"#utility.yul\":6169:6188   */\n  div\n    /* \"#utility.yul\":6160:6167   */\n  dup3\n    /* \"#utility.yul\":6157:6189   */\n  gt\n    /* \"#utility.yul\":6154:6212   */\n  iszero\n  tag_132\n  jumpi\n    /* \"#utility.yul\":6192:6210   */\n  tag_132\n  tag_65\n  jump\t// in\ntag_132:\n    /* \"#utility.yul\":6230:6250   */\n  mul\n  swap1\n  pop\n    /* \"#utility.yul\":5354:6256   */\ntag_121:\n  swap3\n  swap2\n  pop\n  pop\n  jump\t// out\n    /* \"#utility.yul\":6261:6401   */\ntag_22:\n    /* \"#utility.yul\":6319:6324   */\n  0x00\n    /* \"#utility.yul\":6348:6395   */\n  tag_134\n    /* \"#utility.yul\":6389:6393   */\n  0xff\n    /* \"#utility.yul\":6379:6387   */\n  dup5\n    /* \"#utility.yul\":6375:6394   */\n  and\n    /* \"#utility.yul\":6369:6373   */\n  dup4\n    /* \"#utility.yul\":6348:6395   */\n  tag_67\n  jump\t// in\ntag_134:\n    /* \"#utility.yul\":6339:6395   */\n  swap4\n    /* \"#utility.yul\":6261:6401   */\n  swap3\n  pop\n  pop\n  pop\n  jump\t// out\n    /* \"#utility.yul\":6406:6574   */\ntag_24:\n    /* \"#utility.yul\":6479:6488   */\n  dup1\n  dup3\n  mul\n    /* \"#utility.yul\":6510:6519   */\n  dup2\n  iszero\n    /* \"#utility.yul\":6527:6542   */\n  dup3\n  dup3\n  div\n    /* \"#utility.yul\":6521:6543   */\n  dup5\n  eq\n    /* \"#utility.yul\":6507:6544   */\n  or\n    /* \"#utility.yul\":6497:6568   */\n  tag_121\n  jumpi\n    /* \"#utility.yul\":6548:6566   */\n  tag_121\n  tag_65\n  jump\t// in\n    /* \"#utility.yul\":6579:6809   */\ntag_40:\n    /* \"#utility.yul\":6649:6655   */\n  0x00\n    /* \"#utility.yul\":6702:6704   */\n  0x20\n    /* \"#utility.yul\":6690:6699   */\n  dup3\n    /* \"#utility.yul\":6681:6688   */\n  dup5\n    /* \"#utility.yul\":6677:6700   */\n  sub\n    /* \"#utility.yul\":6673:6705   */\n  slt\n    /* \"#utility.yul\":6670:6722   */\n  iszero\n  tag_139\n  jumpi\n    /* \"#utility.yul\":6718:6719   */\n  0x00\n    /* \"#utility.yul\":6715:6716   */\n  dup1\n    /* \"#utility.yul\":6708:6720   */\n  revert\n    /* \"#utility.yul\":6670:6722   */\ntag_139:\n  pop\n    /* \"#utility.yul\":6763:6779   */\n  mload\n  swap2\n    /* \"#utility.yul\":6579:6809   */\n  swap1\n  pop\n  jump\t// out\n    /* \"#utility.yul\":6814:7022   */\ntag_45:\n    /* \"#utility.yul\":6884:6890   */\n  0x00\n    /* \"#utility.yul\":6937:6939   */\n  0x20\n    /* \"#utility.yul\":6925:6934   */\n  dup3\n    /* \"#utility.yul\":6916:6923   */\n  dup5\n    /* \"#utility.yul\":6912:6935   */\n  sub\n    /* \"#utility.yul\":6908:6940   */\n  slt\n    /* \"#utility.yul\":6905:6957   */\n  iszero\n  tag_141\n  jumpi\n    /* \"#utility.yul\":6953:6954   */\n  0x00\n    /* \"#utility.yul\":6950:6951   */\n  dup1\n    /* \"#utility.yul\":6943:6955   */\n  revert\n    /* \"#utility.yul\":6905:6957   */\ntag_141:\n    /* \"#utility.yul\":6976:7016   */\n  tag_134\n    /* \"#utility.yul\":7006:7015   */\n  dup3\n    /* \"#utility.yul\":6976:7016   */\n  tag_60\n  jump\t// in\n    /* \"#utility.yul\":7027:7152   */\ntag_49:\n    /* \"#utility.yul\":7092:7101   */\n  dup1\n  dup3\n  add\n    /* \"#utility.yul\":7113:7123   */\n  dup1\n  dup3\n  gt\n    /* \"#utility.yul\":7110:7146   */\n  iszero\n  tag_121\n  jumpi\n    /* \"#utility.yul\":7126:7144   */\n  tag_121\n  tag_65\n  jump\t// in\n    /* \"#utility.yul\":7507:7684   */\ntag_68:\n    /* \"src/eStock.sol\":3513:11663  contract eStock is ERC20, Ownable {... */\n  dataSize(sub_0)\n  dup1\n  dataOffset(sub_0)\n  0x00\n  codecopy\n  0x00\n  return\nstop\n\nsub_0: assembly {\n        /* \"src/eStock.sol\":3513:11663  contract eStock is ERC20, Ownable {... */\n      mstore(0x40, 0x80)\n      callvalue\n      dup1\n      iszero\n      tag_1\n      jumpi\n      0x00\n      dup1\n      revert\n    tag_1:\n      pop\n      jumpi(tag_2, lt(calldatasize, 0x04))\n      shr(0xe0, calldataload(0x00))\n      dup1\n      0x06865151\n      eq\n      tag_3\n      jumpi\n      dup1\n      0x06fdde03\n      eq\n      tag_4\n      jumpi\n      dup1\n      0x095ea7b3\n      eq\n      tag_5\n      jumpi\n      dup1\n      0x13d7281e\n      eq\n      tag_6\n      jumpi\n      dup1\n      0x18160ddd\n      eq\n      tag_7\n      jumpi\n      dup1\n      0x20f1c043\n      eq\n      tag_8\n      jumpi\n      dup1\n      0x23b872dd\n      eq\n      tag_9\n      jumpi\n      dup1\n      0x29f94fb8\n      eq\n      tag_10\n      jumpi\n      dup1\n      0x30015118\n      eq\n      tag_11\n      jumpi\n      dup1\n      0x313ce567\n      eq\n      tag_12\n      jumpi\n      dup1\n      0x366a1114\n      eq\n      tag_13\n      jumpi\n      dup1\n      0x371047cd\n      eq\n      tag_14\n      jumpi\n      dup1\n      0x3ba0b9a9\n      eq\n      tag_15\n      jumpi\n      dup1\n      0x45c91439\n      eq\n      tag_16\n      jumpi\n      dup1\n      0x70a08231\n      eq\n      tag_17\n      jumpi\n      dup1\n      0x715018a6\n      eq\n      tag_18\n      jumpi\n      dup1\n      0x73cb76ca\n      eq\n      tag_19\n      jumpi\n      dup1\n      0x88f6eac7\n      eq\n      tag_20\n      jumpi\n      dup1\n      0x8a9731dd\n      eq\n      tag_21\n      jumpi\n      dup1\n      0x8da5cb5b\n      eq\n      tag_22\n      jumpi\n      dup1\n      0x95d89b41\n      eq\n      tag_23\n      jumpi\n      dup1\n      0xa0815a54\n      eq\n      tag_24\n      jumpi\n      dup1\n      0xa0de1c37\n      eq\n      tag_25\n      jumpi\n      dup1\n      0xa1968579\n      eq\n      tag_26\n      jumpi\n      dup1\n      0xa9059cbb\n      eq\n      tag_27\n      jumpi\n      dup1\n      0xa98ad46c\n      eq\n      tag_28\n      jumpi\n      dup1\n      0xb0f9006a\n      eq\n      tag_29\n      jumpi\n      dup1\n      0xb9303dbd\n      eq\n      tag_30\n      jumpi\n      dup1\n      0xbb644776\n      eq\n      tag_31\n      jumpi\n      dup1\n      0xbe6172ce\n      eq\n      tag_32\n      jumpi\n      dup1\n      0xc28c2670\n      eq\n      tag_33\n      jumpi\n      dup1\n      0xdb068e0e\n      eq\n      tag_34\n      jumpi\n      dup1\n      0xdd62ed3e\n      eq\n      tag_35\n      jumpi\n      dup1\n      0xf2fde38b\n      eq\n      tag_36\n      jumpi\n    tag_2:\n      0x00\n      dup1\n      revert\n        /* \"src/eStock.sol\":4072:4104  uint256 public totalUSDTReceived */\n    tag_3:\n      tag_37\n      sload(0x0d)\n      dup2\n      jump\n    tag_37:\n      mload(0x40)\n        /* \"#utility.yul\":160:185   */\n      swap1\n      dup2\n      mstore\n        /* \"#utility.yul\":148:150   */\n      0x20\n        /* \"#utility.yul\":133:151   */\n      add\n        /* \"src/eStock.sol\":4072:4104  uint256 public totalUSDTReceived */\n    tag_39:\n      mload(0x40)\n      dup1\n      swap2\n      sub\n      swap1\n      return\n        /* \"@openzeppelin/contracts/token/ERC20/ERC20.sol\":1779:1868  function name() public view virtual returns (string memory) {... */\n    tag_4:\n      tag_41\n      tag_42\n      jump\t// in\n    tag_41:\n      mload(0x40)\n      tag_39\n      swap2\n      swap1\n      tag_44\n      jump\t// in\n        /* \"@openzeppelin/contracts/token/ERC20/ERC20.sol\":3998:4184  function approve(address spender, uint256 value) public virtual returns (bool) {... */\n    tag_5:\n      tag_45\n      tag_46\n      calldatasize\n      0x04\n      tag_47\n      jump\t// in\n    tag_46:\n      tag_48\n      jump\t// in\n    tag_45:\n      mload(0x40)\n        /* \"#utility.yul\":1292:1306   */\n      swap1\n      iszero\n        /* \"#utility.yul\":1285:1307   */\n      iszero\n        /* \"#utility.yul\":1267:1308   */\n      dup2\n      mstore\n        /* \"#utility.yul\":1255:1257   */\n      0x20\n        /* \"#utility.yul\":1240:1258   */\n      add\n        /* \"@openzeppelin/contracts/token/ERC20/ERC20.sol\":3998:4184  function approve(address spender, uint256 value) public virtual returns (bool) {... */\n      tag_39\n        /* \"#utility.yul\":1127:1314   */\n      jump\n        /* \"src/eStock.sol\":5812:5920  function setTreeCom (address _treeCom) external onlyOwner {... */\n    tag_6:\n      tag_51\n      tag_52\n      calldatasize\n      0x04\n      tag_53\n      jump\t// in\n    tag_52:\n      tag_54\n      jump\t// in\n    tag_51:\n      stop\n        /* \"@openzeppelin/contracts/token/ERC20/ERC20.sol\":2849:2946  function totalSupply() public view virtual returns (uint256) {... */\n    tag_7:\n        /* \"@openzeppelin/contracts/token/ERC20/ERC20.sol\":2927:2939  _totalSupply */\n      sload(0x02)\n        /* \"@openzeppelin/contracts/token/ERC20/ERC20.sol\":2849:2946  function totalSupply() public view virtual returns (uint256) {... */\n      jump(tag_37)\n        /* \"src/eStock.sol\":5981:6335  function updateTransactionHistory() public {... */\n    tag_8:\n      tag_51\n      tag_59\n      jump\t// in\n        /* \"@openzeppelin/contracts/token/ERC20/ERC20.sol\":4776:5020  function transferFrom(address from, address to, uint256 value) public virtual returns (bool) {... */\n    tag_9:\n      tag_45\n      tag_61\n      calldatasize\n      0x04\n      tag_62\n      jump\t// in\n    tag_61:\n      tag_63\n      jump\t// in\n        /* \"src/eStock.sol\":9108:9548  function receiveProfitFromContract(uint256 amount) external onlyTreeCommission {... */\n    tag_10:\n      tag_51\n      tag_66\n      calldatasize\n      0x04\n      tag_67\n      jump\t// in\n    tag_66:\n      tag_68\n      jump\t// in\n        /* \"src/eStock.sol\":4251:4301  mapping(address => uint256) public userUSDTBalance */\n    tag_11:\n      tag_37\n      tag_70\n      calldatasize\n      0x04\n      tag_53\n      jump\t// in\n    tag_70:\n      mstore(0x20, 0x0f)\n      0x00\n      swap1\n      dup2\n      mstore\n      0x40\n      swap1\n      keccak256\n      sload\n      dup2\n      jump\n        /* \"@openzeppelin/contracts/token/ERC20/ERC20.sol\":2707:2789  function decimals() public view virtual returns (uint8) {... */\n    tag_12:\n      mload(0x40)\n        /* \"@openzeppelin/contracts/token/ERC20/ERC20.sol\":2780:2782  18 */\n      0x12\n        /* \"#utility.yul\":2457:2493   */\n      dup2\n      mstore\n        /* \"#utility.yul\":2445:2447   */\n      0x20\n        /* \"#utility.yul\":2430:2448   */\n      add\n        /* \"@openzeppelin/contracts/token/ERC20/ERC20.sol\":2707:2789  function decimals() public view virtual returns (uint8) {... */\n      tag_39\n        /* \"#utility.yul\":2315:2499   */\n      jump\n        /* \"src/eStock.sol\":3886:3910  uint256 public saleQuota */\n    tag_13:\n      tag_37\n      sload(0x0b)\n      dup2\n      jump\n        /* \"src/eStock.sol\":4454:4510  mapping(address => uint256) public lastTotalUSDTReceived */\n    tag_14:\n      tag_37\n      tag_81\n      calldatasize\n      0x04\n      tag_53\n      jump\t// in\n    tag_81:\n      mstore(0x20, 0x11)\n      0x00\n      swap1\n      dup2\n      mstore\n      0x40\n      swap1\n      keccak256\n      sload\n      dup2\n      jump\n        /* \"src/eStock.sol\":3773:3800  uint256 public exchangeRate */\n    tag_15:\n      tag_37\n      sload(0x0a)\n      dup2\n      jump\n        /* \"src/eStock.sol\":3691:3722  uint256 public lastUpdatedMonth */\n    tag_16:\n      tag_37\n      sload(0x08)\n      dup2\n      jump\n        /* \"@openzeppelin/contracts/token/ERC20/ERC20.sol\":3004:3120  function balanceOf(address account) public view virtual returns (uint256) {... */\n    tag_17:\n      tag_37\n      tag_91\n      calldatasize\n      0x04\n      tag_53\n      jump\t// in\n    tag_91:\n      tag_92\n      jump\t// in\n        /* \"@openzeppelin/contracts/access/Ownable.sol\":2293:2394  function renounceOwnership() public virtual onlyOwner {... */\n    tag_18:\n      tag_51\n      tag_95\n      jump\t// in\n        /* \"src/eStock.sol\":4172:4205  uint256 public totalUSDTWithdrawn */\n    tag_19:\n      tag_37\n      sload(0x0e)\n      dup2\n      jump\n        /* \"src/eStock.sol\":3985:4018  uint256 public totalUSDTPurchased */\n    tag_20:\n      tag_37\n      sload(0x0c)\n      dup2\n      jump\n        /* \"src/eStock.sol\":3607:3636  address public currentHistory */\n    tag_21:\n      sload(0x07)\n      tag_102\n      swap1\n      sub(shl(0xa0, 0x01), 0x01)\n      and\n      dup2\n      jump\n    tag_102:\n      mload(0x40)\n      tag_39\n      swap2\n      swap1\n      tag_105\n      jump\t// in\n        /* \"@openzeppelin/contracts/access/Ownable.sol\":1638:1723  function owner() public view virtual returns (address) {... */\n    tag_22:\n      tag_102\n      tag_107\n      jump\t// in\n        /* \"@openzeppelin/contracts/token/ERC20/ERC20.sol\":1981:2074  function symbol() public view virtual returns (string memory) {... */\n    tag_23:\n      tag_41\n      tag_110\n      jump\t// in\n        /* \"src/eStock.sol\":4559:4596  address public treeCommissionContract */\n    tag_24:\n      sload(0x12)\n      tag_102\n      swap1\n      sub(shl(0xa0, 0x01), 0x01)\n      and\n      dup2\n      jump\n        /* \"src/eStock.sol\":9637:9924  function withdrawUSDTCommission() public {... */\n    tag_25:\n      tag_51\n      tag_116\n      jump\t// in\n        /* \"src/eStock.sol\":3554:3601  TransactionHistoryFactory public historyFactory */\n    tag_26:\n      sload(0x06)\n      tag_102\n      swap1\n      sub(shl(0xa0, 0x01), 0x01)\n      and\n      dup2\n      jump\n        /* \"src/eStock.sol\":11090:11661  function transfer(address recipient, uint256 amount) public override returns (bool) {... */\n    tag_27:\n      tag_45\n      tag_122\n      calldatasize\n      0x04\n      tag_47\n      jump\t// in\n    tag_122:\n      tag_123\n      jump\t// in\n        /* \"src/eStock.sol\":3729:3752  IERC20 public usdtToken */\n    tag_28:\n      sload(0x09)\n      tag_102\n      swap1\n      sub(shl(0xa0, 0x01), 0x01)\n      and\n      dup2\n      jump\n        /* \"src/eStock.sol\":9997:10553  function claimUSDT(uint256 amount) external {... */\n    tag_29:\n      tag_51\n      tag_130\n      calldatasize\n      0x04\n      tag_67\n      jump\t// in\n    tag_130:\n      tag_131\n      jump\t// in\n        /* \"src/eStock.sol\":7527:9018  function buyStock(uint256 usdtAmount, uint256 expectedRate) external {... */\n    tag_30:\n      tag_51\n      tag_133\n      calldatasize\n      0x04\n      tag_134\n      jump\t// in\n    tag_133:\n      tag_135\n      jump\t// in\n        /* \"src/eStock.sol\":6684:6821  function setSaleQuota(uint256 newQuota) external onlyOwner {... */\n    tag_31:\n      tag_51\n      tag_137\n      calldatasize\n      0x04\n      tag_67\n      jump\t// in\n    tag_137:\n      tag_138\n      jump\t// in\n        /* \"src/eStock.sol\":4356:4408  mapping(address => uint256) public userUSDTWithdrawn */\n    tag_32:\n      tag_37\n      tag_140\n      calldatasize\n      0x04\n      tag_53\n      jump\t// in\n    tag_140:\n      mstore(0x20, 0x10)\n      0x00\n      swap1\n      dup2\n      mstore\n      0x40\n      swap1\n      keccak256\n      sload\n      dup2\n      jump\n        /* \"src/eStock.sol\":10608:10995  function withdrawUSDTPurchased(uint256 amount) external onlyOwner {... */\n    tag_33:\n      tag_51\n      tag_144\n      calldatasize\n      0x04\n      tag_67\n      jump\t// in\n    tag_144:\n      tag_145\n      jump\t// in\n        /* \"src/eStock.sol\":6424:6628  function setExchangeRate(uint256 newRate) external onlyOwner {... */\n    tag_34:\n      tag_51\n      tag_147\n      calldatasize\n      0x04\n      tag_67\n      jump\t// in\n    tag_147:\n      tag_148\n      jump\t// in\n        /* \"@openzeppelin/contracts/token/ERC20/ERC20.sol\":3551:3691  function allowance(address owner, address spender) public view virtual returns (uint256) {... */\n    tag_35:\n      tag_37\n      tag_150\n      calldatasize\n      0x04\n      tag_151\n      jump\t// in\n    tag_150:\n      tag_152\n      jump\t// in\n        /* \"@openzeppelin/contracts/access/Ownable.sol\":2543:2758  function transferOwnership(address newOwner) public virtual onlyOwner {... */\n    tag_36:\n      tag_51\n      tag_155\n      calldatasize\n      0x04\n      tag_53\n      jump\t// in\n    tag_155:\n      tag_156\n      jump\t// in\n        /* \"@openzeppelin/contracts/token/ERC20/ERC20.sol\":1779:1868  function name() public view virtual returns (string memory) {... */\n    tag_42:\n        /* \"@openzeppelin/contracts/token/ERC20/ERC20.sol\":1824:1837  string memory */\n      0x60\n        /* \"@openzeppelin/contracts/token/ERC20/ERC20.sol\":1856:1861  _name */\n      0x03\n        /* \"@openzeppelin/contracts/token/ERC20/ERC20.sol\":1849:1861  return _name */\n      dup1\n      sload\n      tag_158\n      swap1\n      tag_159\n      jump\t// in\n    tag_158:\n      dup1\n      0x1f\n      add\n      0x20\n      dup1\n      swap2\n      div\n      mul\n      0x20\n      add\n      mload(0x40)\n      swap1\n      dup2\n      add\n      0x40\n      mstore\n      dup1\n      swap3\n      swap2\n      swap1\n      dup2\n      dup2\n      mstore\n      0x20\n      add\n      dup3\n      dup1\n      sload\n      tag_160\n      swap1\n      tag_159\n      jump\t// in\n    tag_160:\n      dup1\n      iszero\n      tag_161\n      jumpi\n      dup1\n      0x1f\n      lt\n      tag_162\n      jumpi\n      0x0100\n      dup1\n      dup4\n      sload\n      div\n      mul\n      dup4\n      mstore\n      swap2\n      0x20\n      add\n      swap2\n      jump(tag_161)\n    tag_162:\n      dup3\n      add\n      swap2\n      swap1\n      0x00\n      mstore\n      keccak256(0x00, 0x20)\n      swap1\n    tag_163:\n      dup2\n      sload\n      dup2\n      mstore\n      swap1\n      0x01\n      add\n      swap1\n      0x20\n      add\n      dup1\n      dup4\n      gt\n      tag_163\n      jumpi\n      dup3\n      swap1\n      sub\n      0x1f\n      and\n      dup3\n      add\n      swap2\n    tag_161:\n      pop\n      pop\n      pop\n      pop\n      pop\n      swap1\n      pop\n        /* \"@openzeppelin/contracts/token/ERC20/ERC20.sol\":1779:1868  function name() public view virtual returns (string memory) {... */\n      swap1\n      jump\t// out\n        /* \"@openzeppelin/contracts/token/ERC20/ERC20.sol\":3998:4184  function approve(address spender, uint256 value) public virtual returns (bool) {... */\n    tag_48:\n        /* \"@openzeppelin/contracts/token/ERC20/ERC20.sol\":4071:4075  bool */\n      0x00\n        /* \"@openzeppelin/contracts/utils/Context.sol\":735:745  msg.sender */\n      caller\n        /* \"@openzeppelin/contracts/token/ERC20/ERC20.sol\":4125:4156  _approve(owner, spender, value) */\n      tag_167\n        /* \"@openzeppelin/contracts/utils/Context.sol\":735:745  msg.sender */\n      dup2\n        /* \"@openzeppelin/contracts/token/ERC20/ERC20.sol\":4141:4148  spender */\n      dup6\n        /* \"@openzeppelin/contracts/token/ERC20/ERC20.sol\":4150:4155  value */\n      dup6\n        /* \"@openzeppelin/contracts/token/ERC20/ERC20.sol\":4125:4133  _approve */\n      tag_168\n        /* \"@openzeppelin/contracts/token/ERC20/ERC20.sol\":4125:4156  _approve(owner, spender, value) */\n      jump\t// in\n    tag_167:\n        /* \"@openzeppelin/contracts/token/ERC20/ERC20.sol\":4173:4177  true */\n      0x01\n        /* \"@openzeppelin/contracts/token/ERC20/ERC20.sol\":4166:4177  return true */\n      swap2\n      pop\n      pop\n        /* \"@openzeppelin/contracts/token/ERC20/ERC20.sol\":3998:4184  function approve(address spender, uint256 value) public virtual returns (bool) {... */\n    tag_164:\n      swap3\n      swap2\n      pop\n      pop\n      jump\t// out\n        /* \"src/eStock.sol\":5812:5920  function setTreeCom (address _treeCom) external onlyOwner {... */\n    tag_54:\n        /* \"@openzeppelin/contracts/access/Ownable.sol\":1531:1544  _checkOwner() */\n      tag_170\n        /* \"@openzeppelin/contracts/access/Ownable.sol\":1531:1542  _checkOwner */\n      tag_171\n        /* \"@openzeppelin/contracts/access/Ownable.sol\":1531:1544  _checkOwner() */\n      jump\t// in\n    tag_170:\n        /* \"src/eStock.sol\":5880:5902  treeCommissionContract */\n      0x12\n        /* \"src/eStock.sol\":5880:5913  treeCommissionContract = _treeCom */\n      dup1\n      sload\n      not(sub(shl(0xa0, 0x01), 0x01))\n      and\n      sub(shl(0xa0, 0x01), 0x01)\n      swap3\n      swap1\n      swap3\n      and\n      swap2\n      swap1\n      swap2\n      or\n      swap1\n      sstore\n        /* \"src/eStock.sol\":5812:5920  function setTreeCom (address _treeCom) external onlyOwner {... */\n      jump\t// out\n        /* \"src/eStock.sol\":5981:6335  function updateTransactionHistory() public {... */\n    tag_59:\n        /* \"src/eStock.sol\":6057:6071  historyFactory */\n      sload(0x06)\n        /* \"src/eStock.sol\":6057:6089  historyFactory.getCurrentMonth() */\n      0x40\n      dup1\n      mload\n      shl(0xe1, 0x6ee8db3f)\n      dup2\n      mstore\n      swap1\n      mload\n        /* \"src/eStock.sol\":6034:6054  uint256 currentMonth */\n      0x00\n      swap3\n      sub(shl(0xa0, 0x01), 0x01)\n        /* \"src/eStock.sol\":6057:6071  historyFactory */\n      and\n      swap2\n        /* \"src/eStock.sol\":6057:6087  historyFactory.getCurrentMonth */\n      0xddd1b67e\n      swap2\n        /* \"src/eStock.sol\":6057:6089  historyFactory.getCurrentMonth() */\n      0x04\n      dup1\n      dup4\n      add\n      swap3\n      0x20\n      swap3\n      swap2\n      swap1\n      dup3\n      swap1\n      sub\n      add\n      dup2\n        /* \"src/eStock.sol\":6057:6071  historyFactory */\n      dup7\n        /* \"src/eStock.sol\":6057:6089  historyFactory.getCurrentMonth() */\n      gas\n      staticcall\n      iszero\n      dup1\n      iszero\n      tag_176\n      jumpi\n      returndatasize\n      0x00\n      dup1\n      returndatacopy\n      revert(0x00, returndatasize)\n    tag_176:\n      pop\n      pop\n      pop\n      pop\n      mload(0x40)\n      returndatasize\n      not(0x1f)\n      0x1f\n      dup3\n      add\n      and\n      dup3\n      add\n      dup1\n      0x40\n      mstore\n      pop\n      dup2\n      add\n      swap1\n      tag_177\n      swap2\n      swap1\n      tag_178\n      jump\t// in\n    tag_177:\n        /* \"src/eStock.sol\":6034:6089  uint256 currentMonth = historyFactory.getCurrentMonth() */\n      swap1\n      pop\n        /* \"src/eStock.sol\":6118:6134  lastUpdatedMonth */\n      sload(0x08)\n        /* \"src/eStock.sol\":6103:6115  currentMonth */\n      dup2\n        /* \"src/eStock.sol\":6103:6134  currentMonth > lastUpdatedMonth */\n      gt\n        /* \"src/eStock.sol\":6099:6329  if (currentMonth > lastUpdatedMonth) {... */\n      iszero\n      tag_179\n      jumpi\n        /* \"src/eStock.sol\":6240:6254  historyFactory */\n      0x06\n      0x00\n      swap1\n      sload\n      swap1\n      0x0100\n      exp\n      swap1\n      div\n      sub(shl(0xa0, 0x01), 0x01)\n      and\n      sub(shl(0xa0, 0x01), 0x01)\n        /* \"src/eStock.sol\":6240:6271  historyFactory.createNewHistory */\n      and\n      0x27ebec60\n        /* \"src/eStock.sol\":6240:6273  historyFactory.createNewHistory() */\n      mload(0x40)\n      dup2\n      0xffffffff\n      and\n      0xe0\n      shl\n      dup2\n      mstore\n      0x04\n      add\n      0x20\n      mload(0x40)\n      dup1\n      dup4\n      sub\n      dup2\n      0x00\n      dup8\n      gas\n      call\n      iszero\n      dup1\n      iszero\n      tag_181\n      jumpi\n      returndatasize\n      0x00\n      dup1\n      returndatacopy\n      revert(0x00, returndatasize)\n    tag_181:\n      pop\n      pop\n      pop\n      pop\n      mload(0x40)\n      returndatasize\n      not(0x1f)\n      0x1f\n      dup3\n      add\n      and\n      dup3\n      add\n      dup1\n      0x40\n      mstore\n      pop\n      dup2\n      add\n      swap1\n      tag_182\n      swap2\n      swap1\n      tag_183\n      jump\t// in\n    tag_182:\n        /* \"src/eStock.sol\":6223:6237  currentHistory */\n      0x07\n        /* \"src/eStock.sol\":6223:6273  currentHistory = historyFactory.createNewHistory() */\n      dup1\n      sload\n      not(sub(shl(0xa0, 0x01), 0x01))\n      and\n      sub(shl(0xa0, 0x01), 0x01)\n      swap3\n      swap1\n      swap3\n      and\n      swap2\n      swap1\n      swap2\n      or\n      swap1\n      sstore\n        /* \"src/eStock.sol\":6287:6303  lastUpdatedMonth */\n      0x08\n        /* \"src/eStock.sol\":6287:6318  lastUpdatedMonth = currentMonth */\n      dup2\n      swap1\n      sstore\n        /* \"src/eStock.sol\":6099:6329  if (currentMonth > lastUpdatedMonth) {... */\n    tag_179:\n        /* \"src/eStock.sol\":6024:6335  {... */\n      pop\n        /* \"src/eStock.sol\":5981:6335  function updateTransactionHistory() public {... */\n      jump\t// out\n        /* \"@openzeppelin/contracts/token/ERC20/ERC20.sol\":4776:5020  function transferFrom(address from, address to, uint256 value) public virtual returns (bool) {... */\n    tag_63:\n        /* \"@openzeppelin/contracts/token/ERC20/ERC20.sol\":4863:4867  bool */\n      0x00\n        /* \"@openzeppelin/contracts/utils/Context.sol\":735:745  msg.sender */\n      caller\n        /* \"@openzeppelin/contracts/token/ERC20/ERC20.sol\":4919:4956  _spendAllowance(from, spender, value) */\n      tag_186\n        /* \"@openzeppelin/contracts/token/ERC20/ERC20.sol\":4935:4939  from */\n      dup6\n        /* \"@openzeppelin/contracts/utils/Context.sol\":735:745  msg.sender */\n      dup3\n        /* \"@openzeppelin/contracts/token/ERC20/ERC20.sol\":4950:4955  value */\n      dup6\n        /* \"@openzeppelin/contracts/token/ERC20/ERC20.sol\":4919:4934  _spendAllowance */\n      tag_187\n        /* \"@openzeppelin/contracts/token/ERC20/ERC20.sol\":4919:4956  _spendAllowance(from, spender, value) */\n      jump\t// in\n    tag_186:\n        /* \"@openzeppelin/contracts/token/ERC20/ERC20.sol\":4966:4992  _transfer(from, to, value) */\n      tag_188\n        /* \"@openzeppelin/contracts/token/ERC20/ERC20.sol\":4976:4980  from */\n      dup6\n        /* \"@openzeppelin/contracts/token/ERC20/ERC20.sol\":4982:4984  to */\n      dup6\n        /* \"@openzeppelin/contracts/token/ERC20/ERC20.sol\":4986:4991  value */\n      dup6\n        /* \"@openzeppelin/contracts/token/ERC20/ERC20.sol\":4966:4975  _transfer */\n      tag_189\n        /* \"@openzeppelin/contracts/token/ERC20/ERC20.sol\":4966:4992  _transfer(from, to, value) */\n      jump\t// in\n    tag_188:\n      pop\n        /* \"@openzeppelin/contracts/token/ERC20/ERC20.sol\":5009:5013  true */\n      0x01\n      swap5\n        /* \"@openzeppelin/contracts/token/ERC20/ERC20.sol\":4776:5020  function transferFrom(address from, address to, uint256 value) public virtual returns (bool) {... */\n      swap4\n      pop\n      pop\n      pop\n      pop\n      jump\t// out\n        /* \"src/eStock.sol\":9108:9548  function receiveProfitFromContract(uint256 amount) external onlyTreeCommission {... */\n    tag_68:\n        /* \"src/eStock.sol\":5747:5769  treeCommissionContract */\n      and(sub(shl(0xa0, 0x01), 0x01), sload(0x12))\n        /* \"src/eStock.sol\":5733:5743  msg.sender */\n      caller\n        /* \"src/eStock.sol\":5733:5769  msg.sender == treeCommissionContract */\n      eq\n        /* \"src/eStock.sol\":5725:5788  require(msg.sender == treeCommissionContract, \"Not authorized\") */\n      tag_191\n      jumpi\n      mload(0x40)\n      shl(0xe5, 0x461bcd)\n      dup2\n      mstore\n        /* \"#utility.yul\":4952:4954   */\n      0x20\n        /* \"src/eStock.sol\":5725:5788  require(msg.sender == treeCommissionContract, \"Not authorized\") */\n      0x04\n      dup3\n      add\n        /* \"#utility.yul\":4934:4955   */\n      mstore\n        /* \"#utility.yul\":4991:4993   */\n      0x0e\n        /* \"#utility.yul\":4971:4989   */\n      0x24\n      dup3\n      add\n        /* \"#utility.yul\":4964:4994   */\n      mstore\n      shl(0x92, 0x139bdd08185d5d1a1bdc9a5e9959)\n        /* \"#utility.yul\":5010:5028   */\n      0x44\n      dup3\n      add\n        /* \"#utility.yul\":5003:5047   */\n      mstore\n        /* \"#utility.yul\":5064:5082   */\n      0x64\n      add\n        /* \"src/eStock.sol\":5725:5788  require(msg.sender == treeCommissionContract, \"Not authorized\") */\n    tag_192:\n      mload(0x40)\n      dup1\n      swap2\n      sub\n      swap1\n      revert\n    tag_191:\n        /* \"src/eStock.sol\":9214:9215  0 */\n      0x00\n        /* \"src/eStock.sol\":9205:9211  amount */\n      dup2\n        /* \"src/eStock.sol\":9205:9215  amount > 0 */\n      gt\n        /* \"src/eStock.sol\":9197:9249  require(amount > 0, \"Amount must be greater than 0\") */\n      tag_195\n      jumpi\n      mload(0x40)\n      shl(0xe5, 0x461bcd)\n      dup2\n      mstore\n      0x04\n      add\n      tag_192\n      swap1\n      tag_197\n      jump\t// in\n    tag_195:\n        /* \"src/eStock.sol\":9267:9276  usdtToken */\n      sload(0x09)\n        /* \"src/eStock.sol\":9267:9324  usdtToken.transferFrom(msg.sender, address(this), amount) */\n      mload(0x40)\n      shl(0xe0, 0x23b872dd)\n      dup2\n      mstore\n      sub(shl(0xa0, 0x01), 0x01)\n        /* \"src/eStock.sol\":9267:9276  usdtToken */\n      swap1\n      swap2\n      and\n      swap1\n        /* \"src/eStock.sol\":9267:9289  usdtToken.transferFrom */\n      0x23b872dd\n      swap1\n        /* \"src/eStock.sol\":9267:9324  usdtToken.transferFrom(msg.sender, address(this), amount) */\n      tag_198\n      swap1\n        /* \"src/eStock.sol\":9290:9300  msg.sender */\n      caller\n      swap1\n        /* \"src/eStock.sol\":9310:9314  this */\n      address\n      swap1\n        /* \"src/eStock.sol\":9317:9323  amount */\n      dup7\n      swap1\n        /* \"src/eStock.sol\":9267:9324  usdtToken.transferFrom(msg.sender, address(this), amount) */\n      0x04\n      add\n      tag_199\n      jump\t// in\n    tag_198:\n      0x20\n      mload(0x40)\n      dup1\n      dup4\n      sub\n      dup2\n      0x00\n      dup8\n      gas\n      call\n      iszero\n      dup1\n      iszero\n      tag_201\n      jumpi\n      returndatasize\n      0x00\n      dup1\n      returndatacopy\n      revert(0x00, returndatasize)\n    tag_201:\n      pop\n      pop\n      pop\n      pop\n      mload(0x40)\n      returndatasize\n      not(0x1f)\n      0x1f\n      dup3\n      add\n      and\n      dup3\n      add\n      dup1\n      0x40\n      mstore\n      pop\n      dup2\n      add\n      swap1\n      tag_202\n      swap2\n      swap1\n      tag_203\n      jump\t// in\n    tag_202:\n        /* \"src/eStock.sol\":9259:9349  require(usdtToken.transferFrom(msg.sender, address(this), amount), \"USDT transfer failed\") */\n      tag_204\n      jumpi\n      mload(0x40)\n      shl(0xe5, 0x461bcd)\n      dup2\n      mstore\n      0x04\n      add\n      tag_192\n      swap1\n      tag_206\n      jump\t// in\n    tag_204:\n        /* \"src/eStock.sol\":9381:9387  amount */\n      dup1\n        /* \"src/eStock.sol\":9360:9377  totalUSDTReceived */\n      0x0d\n      0x00\n        /* \"src/eStock.sol\":9360:9387  totalUSDTReceived += amount */\n      dup3\n      dup3\n      sload\n      tag_207\n      swap2\n      swap1\n      tag_208\n      jump\t// in\n    tag_207:\n      swap1\n      swap2\n      sstore\n      pop\n      pop\n        /* \"src/eStock.sol\":9417:9431  currentHistory */\n      sload(0x07)\n        /* \"src/eStock.sol\":9398:9492  TransactionHistory(currentHistory).recordTransaction(\"REWARD\", msg.sender, address(0), amount) */\n      mload(0x40)\n      shl(0xe1, 0x55877341)\n      dup2\n      mstore\n        /* \"#utility.yul\":7006:7009   */\n      0x80\n        /* \"src/eStock.sol\":9398:9492  TransactionHistory(currentHistory).recordTransaction(\"REWARD\", msg.sender, address(0), amount) */\n      0x04\n      dup3\n      add\n        /* \"#utility.yul\":6988:7010   */\n      mstore\n        /* \"#utility.yul\":7047:7048   */\n      0x06\n        /* \"#utility.yul\":7026:7045   */\n      0x84\n      dup3\n      add\n        /* \"#utility.yul\":7019:7049   */\n      mstore\n      shl(0xd2, 0x149155d05491)\n        /* \"#utility.yul\":7065:7084   */\n      0xa4\n      dup3\n      add\n        /* \"#utility.yul\":7058:7095   */\n      mstore\n        /* \"src/eStock.sol\":9461:9471  msg.sender */\n      caller\n        /* \"#utility.yul\":7147:7167   */\n      0x24\n      dup3\n      add\n        /* \"#utility.yul\":7140:7202   */\n      mstore\n        /* \"src/eStock.sol\":9417:9431  currentHistory */\n      0x00\n        /* \"#utility.yul\":7218:7236   */\n      0x44\n      dup3\n      add\n        /* \"#utility.yul\":7211:7271   */\n      mstore\n        /* \"#utility.yul\":7287:7305   */\n      0x64\n      dup2\n      add\n        /* \"#utility.yul\":7280:7314   */\n      dup4\n      swap1\n      mstore\n      sub(shl(0xa0, 0x01), 0x01)\n        /* \"src/eStock.sol\":9417:9431  currentHistory */\n      swap1\n      swap2\n      and\n      swap1\n        /* \"src/eStock.sol\":9398:9450  TransactionHistory(currentHistory).recordTransaction */\n      0xab0ee682\n      swap1\n        /* \"#utility.yul\":7112:7131   */\n      0xc4\n      add\n        /* \"src/eStock.sol\":9398:9492  TransactionHistory(currentHistory).recordTransaction(\"REWARD\", msg.sender, address(0), amount) */\n      0x00\n      mload(0x40)\n      dup1\n      dup4\n      sub\n      dup2\n      0x00\n      dup8\n      dup1\n      extcodesize\n      iszero\n      dup1\n      iszero\n      tag_211\n      jumpi\n      0x00\n      dup1\n      revert\n    tag_211:\n      pop\n      gas\n      call\n      iszero\n      dup1\n      iszero\n      tag_213\n      jumpi\n      returndatasize\n      0x00\n      dup1\n      returndatacopy\n      revert(0x00, returndatasize)\n    tag_213:\n      pop\n      pop\n        /* \"src/eStock.sol\":9507:9541  ProfitReceived(msg.sender, amount) */\n      mload(0x40)\n        /* \"#utility.yul\":160:185   */\n      dup4\n      dup2\n      mstore\n        /* \"src/eStock.sol\":9522:9532  msg.sender */\n      caller\n      swap3\n      pop\n        /* \"src/eStock.sol\":9507:9541  ProfitReceived(msg.sender, amount) */\n      0xb4a46c1bd84f6ead56b19bd0d3788d827200b4d73024081f1c083f904f68f21c\n      swap2\n      pop\n        /* \"#utility.yul\":148:150   */\n      0x20\n        /* \"#utility.yul\":133:151   */\n      add\n        /* \"src/eStock.sol\":9507:9541  ProfitReceived(msg.sender, amount) */\n    tag_214:\n      mload(0x40)\n      dup1\n      swap2\n      sub\n      swap1\n      log2\n        /* \"src/eStock.sol\":9108:9548  function receiveProfitFromContract(uint256 amount) external onlyTreeCommission {... */\n      pop\n      jump\t// out\n        /* \"@openzeppelin/contracts/token/ERC20/ERC20.sol\":3004:3120  function balanceOf(address account) public view virtual returns (uint256) {... */\n    tag_92:\n      sub(shl(0xa0, 0x01), 0x01)\n        /* \"@openzeppelin/contracts/token/ERC20/ERC20.sol\":3095:3113  _balances[account] */\n      and\n        /* \"@openzeppelin/contracts/token/ERC20/ERC20.sol\":3069:3076  uint256 */\n      0x00\n        /* \"@openzeppelin/contracts/token/ERC20/ERC20.sol\":3095:3113  _balances[account] */\n      swap1\n      dup2\n      mstore\n      0x20\n      dup2\n      swap1\n      mstore\n      0x40\n      swap1\n      keccak256\n      sload\n      swap1\n        /* \"@openzeppelin/contracts/token/ERC20/ERC20.sol\":3004:3120  function balanceOf(address account) public view virtual returns (uint256) {... */\n      jump\t// out\n        /* \"@openzeppelin/contracts/access/Ownable.sol\":2293:2394  function renounceOwnership() public virtual onlyOwner {... */\n    tag_95:\n        /* \"@openzeppelin/contracts/access/Ownable.sol\":1531:1544  _checkOwner() */\n      tag_218\n        /* \"@openzeppelin/contracts/access/Ownable.sol\":1531:1542  _checkOwner */\n      tag_171\n        /* \"@openzeppelin/contracts/access/Ownable.sol\":1531:1544  _checkOwner() */\n      jump\t// in\n    tag_218:\n        /* \"@openzeppelin/contracts/access/Ownable.sol\":2357:2387  _transferOwnership(address(0)) */\n      tag_220\n        /* \"@openzeppelin/contracts/access/Ownable.sol\":2384:2385  0 */\n      0x00\n        /* \"@openzeppelin/contracts/access/Ownable.sol\":2357:2375  _transferOwnership */\n      tag_221\n        /* \"@openzeppelin/contracts/access/Ownable.sol\":2357:2387  _transferOwnership(address(0)) */\n      jump\t// in\n    tag_220:\n        /* \"@openzeppelin/contracts/access/Ownable.sol\":2293:2394  function renounceOwnership() public virtual onlyOwner {... */\n      jump\t// out\n        /* \"@openzeppelin/contracts/access/Ownable.sol\":1638:1723  function owner() public view virtual returns (address) {... */\n    tag_107:\n        /* \"@openzeppelin/contracts/access/Ownable.sol\":1710:1716  _owner */\n      and(sub(shl(0xa0, 0x01), 0x01), sload(0x05))\n      swap1\n        /* \"@openzeppelin/contracts/access/Ownable.sol\":1638:1723  function owner() public view virtual returns (address) {... */\n      jump\t// out\n        /* \"@openzeppelin/contracts/token/ERC20/ERC20.sol\":1981:2074  function symbol() public view virtual returns (string memory) {... */\n    tag_110:\n        /* \"@openzeppelin/contracts/token/ERC20/ERC20.sol\":2028:2041  string memory */\n      0x60\n        /* \"@openzeppelin/contracts/token/ERC20/ERC20.sol\":2060:2067  _symbol */\n      0x04\n        /* \"@openzeppelin/contracts/token/ERC20/ERC20.sol\":2053:2067  return _symbol */\n      dup1\n      sload\n      tag_158\n      swap1\n      tag_159\n      jump\t// in\n        /* \"src/eStock.sol\":9637:9924  function withdrawUSDTCommission() public {... */\n    tag_116:\n        /* \"src/eStock.sol\":9688:9720  updateUserCommission(msg.sender) */\n      tag_230\n        /* \"src/eStock.sol\":9709:9719  msg.sender */\n      caller\n        /* \"src/eStock.sol\":9688:9708  updateUserCommission */\n      tag_231\n        /* \"src/eStock.sol\":9688:9720  updateUserCommission(msg.sender) */\n      jump\t// in\n    tag_230:\n        /* \"src/eStock.sol\":9750:9764  currentHistory */\n      sload(0x07)\n        /* \"src/eStock.sol\":9796:9806  msg.sender */\n      caller\n        /* \"src/eStock.sol\":9750:9764  currentHistory */\n      0x00\n        /* \"src/eStock.sol\":9820:9847  userUSDTBalance[msg.sender] */\n      dup2\n      dup2\n      mstore\n        /* \"src/eStock.sol\":9820:9835  userUSDTBalance */\n      0x0f\n        /* \"src/eStock.sol\":9820:9847  userUSDTBalance[msg.sender] */\n      0x20\n      mstore\n      0x40\n      dup1\n      dup3\n      keccak256\n      sload\n        /* \"src/eStock.sol\":9731:9848  TransactionHistory(currentHistory).recordTransaction(\"WITHDRAW\", msg.sender, address(0), userUSDTBalance[msg.sender]) */\n      swap1\n      mload\n      shl(0xe1, 0x55877341)\n      dup2\n      mstore\n        /* \"#utility.yul\":7611:7614   */\n      0x80\n        /* \"src/eStock.sol\":9731:9848  TransactionHistory(currentHistory).recordTransaction(\"WITHDRAW\", msg.sender, address(0), userUSDTBalance[msg.sender]) */\n      0x04\n      dup3\n      add\n        /* \"#utility.yul\":7593:7615   */\n      mstore\n        /* \"#utility.yul\":7652:7653   */\n      0x08\n        /* \"#utility.yul\":7631:7650   */\n      0x84\n      dup3\n      add\n        /* \"#utility.yul\":7624:7654   */\n      mstore\n      shl(0xc0, 0x5749544844524157)\n        /* \"#utility.yul\":7670:7689   */\n      0xa4\n      dup3\n      add\n        /* \"#utility.yul\":7663:7702   */\n      mstore\n        /* \"#utility.yul\":7754:7774   */\n      0x24\n      dup2\n      add\n        /* \"#utility.yul\":7747:7809   */\n      swap4\n      swap1\n      swap4\n      mstore\n        /* \"#utility.yul\":7825:7843   */\n      0x44\n      dup4\n      add\n        /* \"#utility.yul\":7818:7878   */\n      swap2\n      swap1\n      swap2\n      mstore\n        /* \"#utility.yul\":7894:7912   */\n      0x64\n      dup3\n      add\n        /* \"#utility.yul\":7887:7921   */\n      mstore\n      sub(shl(0xa0, 0x01), 0x01)\n        /* \"src/eStock.sol\":9750:9764  currentHistory */\n      swap1\n      swap2\n      and\n      swap1\n        /* \"src/eStock.sol\":9731:9783  TransactionHistory(currentHistory).recordTransaction */\n      0xab0ee682\n      swap1\n        /* \"#utility.yul\":7719:7738   */\n      0xc4\n      add\n        /* \"src/eStock.sol\":9731:9848  TransactionHistory(currentHistory).recordTransaction(\"WITHDRAW\", msg.sender, address(0), userUSDTBalance[msg.sender]) */\n      0x00\n      mload(0x40)\n      dup1\n      dup4\n      sub\n      dup2\n      0x00\n      dup8\n      dup1\n      extcodesize\n      iszero\n      dup1\n      iszero\n      tag_234\n      jumpi\n      0x00\n      dup1\n      revert\n    tag_234:\n      pop\n      gas\n      call\n      iszero\n      dup1\n      iszero\n      tag_236\n      jumpi\n      returndatasize\n      0x00\n      dup1\n      returndatacopy\n      revert(0x00, returndatasize)\n    tag_236:\n      pop\n      pop\n        /* \"src/eStock.sol\":9877:9887  msg.sender */\n      caller\n        /* \"src/eStock.sol\":9889:9916  userUSDTBalance[msg.sender] */\n      0x00\n      dup2\n      dup2\n      mstore\n        /* \"src/eStock.sol\":9889:9904  userUSDTBalance */\n      0x0f\n        /* \"src/eStock.sol\":9889:9916  userUSDTBalance[msg.sender] */\n      0x20\n      swap1\n      dup2\n      mstore\n      0x40\n      swap2\n      dup3\n      swap1\n      keccak256\n      sload\n        /* \"src/eStock.sol\":9863:9917  USDTWithdrawn(msg.sender, userUSDTBalance[msg.sender]) */\n      swap2\n      mload\n        /* \"#utility.yul\":160:185   */\n      swap2\n      dup3\n      mstore\n        /* \"src/eStock.sol\":9877:9887  msg.sender */\n      swap2\n      swap4\n      pop\n      0x00\n      dup1\n      mload\n      0x20\n      data_bdc1c0965d326ef5f7fae07f33d96253771f5accc3ca72afa2bb5903a6f5bd8b\n      dup4\n      codecopy\n      dup2\n      mload\n      swap2\n      mstore\n        /* \"src/eStock.sol\":9863:9917  USDTWithdrawn(msg.sender, userUSDTBalance[msg.sender]) */\n      swap3\n      pop\n        /* \"#utility.yul\":133:151   */\n      add\n        /* \"src/eStock.sol\":9863:9917  USDTWithdrawn(msg.sender, userUSDTBalance[msg.sender]) */\n      mload(0x40)\n      dup1\n      swap2\n      sub\n      swap1\n      log2\n        /* \"src/eStock.sol\":9637:9924  function withdrawUSDTCommission() public {... */\n      jump\t// out\n        /* \"src/eStock.sol\":11090:11661  function transfer(address recipient, uint256 amount) public override returns (bool) {... */\n    tag_123:\n        /* \"src/eStock.sol\":11168:11172  bool */\n      0x00\n        /* \"src/eStock.sol\":11217:11223  amount */\n      dup2\n        /* \"src/eStock.sol\":11192:11213  balanceOf(msg.sender) */\n      tag_239\n        /* \"src/eStock.sol\":11202:11212  msg.sender */\n      caller\n        /* \"src/eStock.sol\":11192:11201  balanceOf */\n      tag_92\n        /* \"src/eStock.sol\":11192:11213  balanceOf(msg.sender) */\n      jump\t// in\n    tag_239:\n        /* \"src/eStock.sol\":11192:11223  balanceOf(msg.sender) >= amount */\n      lt\n      iszero\n        /* \"src/eStock.sol\":11184:11246  require(balanceOf(msg.sender) >= amount, \"Not enough balance\") */\n      tag_240\n      jumpi\n      mload(0x40)\n      shl(0xe5, 0x461bcd)\n      dup2\n      mstore\n        /* \"#utility.yul\":8134:8136   */\n      0x20\n        /* \"src/eStock.sol\":11184:11246  require(balanceOf(msg.sender) >= amount, \"Not enough balance\") */\n      0x04\n      dup3\n      add\n        /* \"#utility.yul\":8116:8137   */\n      mstore\n        /* \"#utility.yul\":8173:8175   */\n      0x12\n        /* \"#utility.yul\":8153:8171   */\n      0x24\n      dup3\n      add\n        /* \"#utility.yul\":8146:8176   */\n      mstore\n      shl(0x70, 0x4e6f7420656e6f7567682062616c616e6365)\n        /* \"#utility.yul\":8192:8210   */\n      0x44\n      dup3\n      add\n        /* \"#utility.yul\":8185:8233   */\n      mstore\n        /* \"#utility.yul\":8250:8268   */\n      0x64\n      add\n        /* \"src/eStock.sol\":11184:11246  require(balanceOf(msg.sender) >= amount, \"Not enough balance\") */\n      tag_192\n        /* \"#utility.yul\":7932:8274   */\n      jump\n        /* \"src/eStock.sol\":11184:11246  require(balanceOf(msg.sender) >= amount, \"Not enough balance\") */\n    tag_240:\n        /* \"src/eStock.sol\":11341:11373  updateUserCommission(msg.sender) */\n      tag_243\n        /* \"src/eStock.sol\":11362:11372  msg.sender */\n      caller\n        /* \"src/eStock.sol\":11341:11361  updateUserCommission */\n      tag_231\n        /* \"src/eStock.sol\":11341:11373  updateUserCommission(msg.sender) */\n      jump\t// in\n    tag_243:\n        /* \"src/eStock.sol\":11383:11414  updateUserCommission(recipient) */\n      tag_244\n        /* \"src/eStock.sol\":11404:11413  recipient */\n      dup4\n        /* \"src/eStock.sol\":11383:11403  updateUserCommission */\n      tag_231\n        /* \"src/eStock.sol\":11383:11414  updateUserCommission(recipient) */\n      jump\t// in\n    tag_244:\n        /* \"src/eStock.sol\":11425:11465  _transfer(msg.sender, recipient, amount) */\n      tag_245\n        /* \"src/eStock.sol\":11435:11445  msg.sender */\n      caller\n        /* \"src/eStock.sol\":11447:11456  recipient */\n      dup5\n        /* \"src/eStock.sol\":11458:11464  amount */\n      dup5\n        /* \"src/eStock.sol\":11425:11434  _transfer */\n      tag_189\n        /* \"src/eStock.sol\":11425:11465  _transfer(msg.sender, recipient, amount) */\n      jump\t// in\n    tag_245:\n        /* \"src/eStock.sol\":11495:11509  currentHistory */\n      sload(0x07)\n        /* \"src/eStock.sol\":11476:11571  TransactionHistory(currentHistory).recordTransaction(\"TRANSFER\", msg.sender, recipient, amount) */\n      mload(0x40)\n      shl(0xe1, 0x55877341)\n      dup2\n      mstore\n        /* \"#utility.yul\":8565:8568   */\n      0x80\n        /* \"src/eStock.sol\":11476:11571  TransactionHistory(currentHistory).recordTransaction(\"TRANSFER\", msg.sender, recipient, amount) */\n      0x04\n      dup3\n      add\n        /* \"#utility.yul\":8547:8569   */\n      mstore\n        /* \"#utility.yul\":8606:8607   */\n      0x08\n        /* \"#utility.yul\":8585:8604   */\n      0x84\n      dup3\n      add\n        /* \"#utility.yul\":8578:8608   */\n      mstore\n      shl(0xc1, 0x2a2920a729a322a9)\n        /* \"#utility.yul\":8624:8643   */\n      0xa4\n      dup3\n      add\n        /* \"#utility.yul\":8617:8656   */\n      mstore\n        /* \"src/eStock.sol\":11541:11551  msg.sender */\n      caller\n        /* \"#utility.yul\":8708:8728   */\n      0x24\n      dup3\n      add\n        /* \"#utility.yul\":8701:8763   */\n      mstore\n      sub(shl(0xa0, 0x01), 0x01)\n        /* \"#utility.yul\":8799:8831   */\n      dup6\n      dup2\n      and\n        /* \"#utility.yul\":8779:8797   */\n      0x44\n      dup4\n      add\n        /* \"#utility.yul\":8772:8832   */\n      mstore\n        /* \"#utility.yul\":8848:8866   */\n      0x64\n      dup3\n      add\n        /* \"#utility.yul\":8841:8875   */\n      dup6\n      swap1\n      mstore\n        /* \"src/eStock.sol\":11495:11509  currentHistory */\n      swap1\n      swap2\n      and\n      swap1\n        /* \"src/eStock.sol\":11476:11528  TransactionHistory(currentHistory).recordTransaction */\n      0xab0ee682\n      swap1\n        /* \"#utility.yul\":8673:8692   */\n      0xc4\n      add\n        /* \"src/eStock.sol\":11476:11571  TransactionHistory(currentHistory).recordTransaction(\"TRANSFER\", msg.sender, recipient, amount) */\n      0x00\n      mload(0x40)\n      dup1\n      dup4\n      sub\n      dup2\n      0x00\n      dup8\n      dup1\n      extcodesize\n      iszero\n      dup1\n      iszero\n      tag_248\n      jumpi\n      0x00\n      dup1\n      revert\n    tag_248:\n      pop\n      gas\n      call\n      iszero\n      dup1\n      iszero\n      tag_250\n      jumpi\n      returndatasize\n      0x00\n      dup1\n      returndatacopy\n      revert(0x00, returndatasize)\n    tag_250:\n      pop\n      pop\n        /* \"src/eStock.sol\":11586:11633  StockTransferred(msg.sender, recipient, amount) */\n      mload(0x40)\n        /* \"#utility.yul\":160:185   */\n      dup5\n      dup2\n      mstore\n      sub(shl(0xa0, 0x01), 0x01)\n        /* \"src/eStock.sol\":11586:11633  StockTransferred(msg.sender, recipient, amount) */\n      dup7\n      and\n      swap3\n      pop\n        /* \"src/eStock.sol\":11603:11613  msg.sender */\n      caller\n      swap2\n      pop\n        /* \"src/eStock.sol\":11586:11633  StockTransferred(msg.sender, recipient, amount) */\n      0x6bca8fa57973baecf480f0f784a6c6549e10cd7673db79b691a8051864dd29c9\n      swap1\n        /* \"#utility.yul\":148:150   */\n      0x20\n        /* \"#utility.yul\":133:151   */\n      add\n        /* \"src/eStock.sol\":11586:11633  StockTransferred(msg.sender, recipient, amount) */\n      mload(0x40)\n      dup1\n      swap2\n      sub\n      swap1\n      log3\n      pop\n        /* \"src/eStock.sol\":11650:11654  true */\n      0x01\n        /* \"src/eStock.sol\":11090:11661  function transfer(address recipient, uint256 amount) public override returns (bool) {... */\n      swap3\n      swap2\n      pop\n      pop\n      jump\t// out\n        /* \"src/eStock.sol\":9997:10553  function claimUSDT(uint256 amount) external {... */\n    tag_131:\n        /* \"src/eStock.sol\":10125:10135  msg.sender */\n      caller\n        /* \"src/eStock.sol\":10051:10074  uint256 availableAmount */\n      0x00\n        /* \"src/eStock.sol\":10107:10136  userUSDTWithdrawn[msg.sender] */\n      swap1\n      dup2\n      mstore\n        /* \"src/eStock.sol\":10107:10124  userUSDTWithdrawn */\n      0x10\n        /* \"src/eStock.sol\":10107:10136  userUSDTWithdrawn[msg.sender] */\n      0x20\n      swap1\n      dup2\n      mstore\n      0x40\n      dup1\n      dup4\n      keccak256\n      sload\n        /* \"src/eStock.sol\":10077:10092  userUSDTBalance */\n      0x0f\n        /* \"src/eStock.sol\":10077:10104  userUSDTBalance[msg.sender] */\n      swap1\n      swap3\n      mstore\n      dup3\n      keccak256\n      sload\n        /* \"src/eStock.sol\":10077:10136  userUSDTBalance[msg.sender] - userUSDTWithdrawn[msg.sender] */\n      tag_253\n      swap2\n        /* \"src/eStock.sol\":10107:10136  userUSDTWithdrawn[msg.sender] */\n      swap1\n        /* \"src/eStock.sol\":10077:10136  userUSDTBalance[msg.sender] - userUSDTWithdrawn[msg.sender] */\n      tag_254\n      jump\t// in\n    tag_253:\n        /* \"src/eStock.sol\":10051:10136  uint256 availableAmount = userUSDTBalance[msg.sender] - userUSDTWithdrawn[msg.sender] */\n      swap1\n      pop\n        /* \"src/eStock.sol\":10163:10164  0 */\n      0x00\n        /* \"src/eStock.sol\":10154:10160  amount */\n      dup3\n        /* \"src/eStock.sol\":10154:10164  amount > 0 */\n      gt\n        /* \"src/eStock.sol\":10154:10193  amount > 0 && amount <= availableAmount */\n      dup1\n      iszero\n      tag_255\n      jumpi\n      pop\n        /* \"src/eStock.sol\":10178:10193  availableAmount */\n      dup1\n        /* \"src/eStock.sol\":10168:10174  amount */\n      dup3\n        /* \"src/eStock.sol\":10168:10193  amount <= availableAmount */\n      gt\n      iszero\n        /* \"src/eStock.sol\":10154:10193  amount > 0 && amount <= availableAmount */\n    tag_255:\n        /* \"src/eStock.sol\":10146:10223  require(amount > 0 && amount <= availableAmount, \"Insufficient USDT balance\") */\n      tag_256\n      jumpi\n      mload(0x40)\n      shl(0xe5, 0x461bcd)\n      dup2\n      mstore\n        /* \"#utility.yul\":9221:9223   */\n      0x20\n        /* \"src/eStock.sol\":10146:10223  require(amount > 0 && amount <= availableAmount, \"Insufficient USDT balance\") */\n      0x04\n      dup3\n      add\n        /* \"#utility.yul\":9203:9224   */\n      mstore\n        /* \"#utility.yul\":9260:9262   */\n      0x19\n        /* \"#utility.yul\":9240:9258   */\n      0x24\n      dup3\n      add\n        /* \"#utility.yul\":9233:9263   */\n      mstore\n      shl(0x38, 0x496e73756666696369656e7420555344542062616c616e6365)\n        /* \"#utility.yul\":9279:9297   */\n      0x44\n      dup3\n      add\n        /* \"#utility.yul\":9272:9327   */\n      mstore\n        /* \"#utility.yul\":9344:9362   */\n      0x64\n      add\n        /* \"src/eStock.sol\":10146:10223  require(amount > 0 && amount <= availableAmount, \"Insufficient USDT balance\") */\n      tag_192\n        /* \"#utility.yul\":9019:9368   */\n      jump\n        /* \"src/eStock.sol\":10146:10223  require(amount > 0 && amount <= availableAmount, \"Insufficient USDT balance\") */\n    tag_256:\n        /* \"src/eStock.sol\":10252:10262  msg.sender */\n      caller\n        /* \"src/eStock.sol\":10234:10263  userUSDTWithdrawn[msg.sender] */\n      0x00\n      swap1\n      dup2\n      mstore\n        /* \"src/eStock.sol\":10234:10251  userUSDTWithdrawn */\n      0x10\n        /* \"src/eStock.sol\":10234:10263  userUSDTWithdrawn[msg.sender] */\n      0x20\n      mstore\n      0x40\n      dup2\n      keccak256\n        /* \"src/eStock.sol\":10234:10273  userUSDTWithdrawn[msg.sender] += amount */\n      dup1\n      sload\n        /* \"src/eStock.sol\":10267:10273  amount */\n      dup5\n      swap3\n        /* \"src/eStock.sol\":10234:10263  userUSDTWithdrawn[msg.sender] */\n      swap1\n        /* \"src/eStock.sol\":10234:10273  userUSDTWithdrawn[msg.sender] += amount */\n      tag_259\n      swap1\n        /* \"src/eStock.sol\":10267:10273  amount */\n      dup5\n      swap1\n        /* \"src/eStock.sol\":10234:10273  userUSDTWithdrawn[msg.sender] += amount */\n      tag_208\n      jump\t// in\n    tag_259:\n      swap3\n      pop\n      pop\n      dup2\n      swap1\n      sstore\n      pop\n        /* \"src/eStock.sol\":10305:10311  amount */\n      dup2\n        /* \"src/eStock.sol\":10283:10301  totalUSDTWithdrawn */\n      0x0e\n      0x00\n        /* \"src/eStock.sol\":10283:10311  totalUSDTWithdrawn += amount */\n      dup3\n      dup3\n      sload\n      tag_260\n      swap2\n      swap1\n      tag_208\n      jump\t// in\n    tag_260:\n      swap1\n      swap2\n      sstore\n      pop\n      pop\n        /* \"src/eStock.sol\":10330:10339  usdtToken */\n      sload(0x09)\n        /* \"src/eStock.sol\":10330:10368  usdtToken.transfer(msg.sender, amount) */\n      mload(0x40)\n      shl(0xe0, 0xa9059cbb)\n      dup2\n      mstore\n      sub(shl(0xa0, 0x01), 0x01)\n        /* \"src/eStock.sol\":10330:10339  usdtToken */\n      swap1\n      swap2\n      and\n      swap1\n        /* \"src/eStock.sol\":10330:10348  usdtToken.transfer */\n      0xa9059cbb\n      swap1\n        /* \"src/eStock.sol\":10330:10368  usdtToken.transfer(msg.sender, amount) */\n      tag_261\n      swap1\n        /* \"src/eStock.sol\":10349:10359  msg.sender */\n      caller\n      swap1\n        /* \"src/eStock.sol\":10361:10367  amount */\n      dup7\n      swap1\n        /* \"src/eStock.sol\":10330:10368  usdtToken.transfer(msg.sender, amount) */\n      0x04\n      add\n      tag_262\n      jump\t// in\n    tag_261:\n      0x20\n      mload(0x40)\n      dup1\n      dup4\n      sub\n      dup2\n      0x00\n      dup8\n      gas\n      call\n      iszero\n      dup1\n      iszero\n      tag_264\n      jumpi\n      returndatasize\n      0x00\n      dup1\n      returndatacopy\n      revert(0x00, returndatasize)\n    tag_264:\n      pop\n      pop\n      pop\n      pop\n      mload(0x40)\n      returndatasize\n      not(0x1f)\n      0x1f\n      dup3\n      add\n      and\n      dup3\n      add\n      dup1\n      0x40\n      mstore\n      pop\n      dup2\n      add\n      swap1\n      tag_265\n      swap2\n      swap1\n      tag_203\n      jump\t// in\n    tag_265:\n        /* \"src/eStock.sol\":10322:10393  require(usdtToken.transfer(msg.sender, amount), \"USDT transfer failed\") */\n      tag_266\n      jumpi\n      mload(0x40)\n      shl(0xe5, 0x461bcd)\n      dup2\n      mstore\n      0x04\n      add\n      tag_192\n      swap1\n      tag_206\n      jump\t// in\n    tag_266:\n        /* \"src/eStock.sol\":10423:10437  currentHistory */\n      sload(0x07)\n        /* \"src/eStock.sol\":10404:10497  TransactionHistory(currentHistory).recordTransaction(\"CLAIM\", msg.sender, address(0), amount) */\n      mload(0x40)\n      shl(0xe1, 0x55877341)\n      dup2\n      mstore\n        /* \"#utility.yul\":9938:9941   */\n      0x80\n        /* \"src/eStock.sol\":10404:10497  TransactionHistory(currentHistory).recordTransaction(\"CLAIM\", msg.sender, address(0), amount) */\n      0x04\n      dup3\n      add\n        /* \"#utility.yul\":9920:9942   */\n      mstore\n        /* \"#utility.yul\":9979:9980   */\n      0x05\n        /* \"#utility.yul\":9958:9977   */\n      0x84\n      dup3\n      add\n        /* \"#utility.yul\":9951:9981   */\n      mstore\n      shl(0xd8, 0x434c41494d)\n        /* \"#utility.yul\":9997:10016   */\n      0xa4\n      dup3\n      add\n        /* \"#utility.yul\":9990:10026   */\n      mstore\n        /* \"src/eStock.sol\":10466:10476  msg.sender */\n      caller\n        /* \"#utility.yul\":10078:10098   */\n      0x24\n      dup3\n      add\n        /* \"#utility.yul\":10071:10133   */\n      mstore\n        /* \"src/eStock.sol\":10423:10437  currentHistory */\n      0x00\n        /* \"#utility.yul\":10149:10167   */\n      0x44\n      dup3\n      add\n        /* \"#utility.yul\":10142:10202   */\n      mstore\n        /* \"#utility.yul\":10218:10236   */\n      0x64\n      dup2\n      add\n        /* \"#utility.yul\":10211:10245   */\n      dup5\n      swap1\n      mstore\n      sub(shl(0xa0, 0x01), 0x01)\n        /* \"src/eStock.sol\":10423:10437  currentHistory */\n      swap1\n      swap2\n      and\n      swap1\n        /* \"src/eStock.sol\":10404:10456  TransactionHistory(currentHistory).recordTransaction */\n      0xab0ee682\n      swap1\n        /* \"#utility.yul\":10043:10062   */\n      0xc4\n      add\n        /* \"src/eStock.sol\":10404:10497  TransactionHistory(currentHistory).recordTransaction(\"CLAIM\", msg.sender, address(0), amount) */\n      0x00\n      mload(0x40)\n      dup1\n      dup4\n      sub\n      dup2\n      0x00\n      dup8\n      dup1\n      extcodesize\n      iszero\n      dup1\n      iszero\n      tag_270\n      jumpi\n      0x00\n      dup1\n      revert\n    tag_270:\n      pop\n      gas\n      call\n      iszero\n      dup1\n      iszero\n      tag_272\n      jumpi\n      returndatasize\n      0x00\n      dup1\n      returndatacopy\n      revert(0x00, returndatasize)\n    tag_272:\n      pop\n      pop\n        /* \"src/eStock.sol\":10513:10546  USDTWithdrawn(msg.sender, amount) */\n      mload(0x40)\n        /* \"#utility.yul\":160:185   */\n      dup5\n      dup2\n      mstore\n        /* \"src/eStock.sol\":10527:10537  msg.sender */\n      caller\n      swap3\n      pop\n      0x00\n      dup1\n      mload\n      0x20\n      data_bdc1c0965d326ef5f7fae07f33d96253771f5accc3ca72afa2bb5903a6f5bd8b\n      dup4\n      codecopy\n      dup2\n      mload\n      swap2\n      mstore\n        /* \"src/eStock.sol\":10513:10546  USDTWithdrawn(msg.sender, amount) */\n      swap2\n      pop\n        /* \"#utility.yul\":148:150   */\n      0x20\n        /* \"#utility.yul\":133:151   */\n      add\n        /* \"src/eStock.sol\":10513:10546  USDTWithdrawn(msg.sender, amount) */\n      mload(0x40)\n      dup1\n      swap2\n      sub\n      swap1\n      log2\n        /* \"src/eStock.sol\":10041:10553  {... */\n      pop\n        /* \"src/eStock.sol\":9997:10553  function claimUSDT(uint256 amount) external {... */\n      pop\n      jump\t// out\n        /* \"src/eStock.sol\":7527:9018  function buyStock(uint256 usdtAmount, uint256 expectedRate) external {... */\n    tag_135:\n        /* \"src/eStock.sol\":7627:7628  0 */\n      0x00\n        /* \"src/eStock.sol\":7614:7624  usdtAmount */\n      dup3\n        /* \"src/eStock.sol\":7614:7628  usdtAmount > 0 */\n      gt\n        /* \"src/eStock.sol\":7606:7660  require(usdtAmount > 0, \"Must send USDT to buy stock\") */\n      tag_275\n      jumpi\n      mload(0x40)\n      shl(0xe5, 0x461bcd)\n      dup2\n      mstore\n        /* \"#utility.yul\":10458:10460   */\n      0x20\n        /* \"src/eStock.sol\":7606:7660  require(usdtAmount > 0, \"Must send USDT to buy stock\") */\n      0x04\n      dup3\n      add\n        /* \"#utility.yul\":10440:10461   */\n      mstore\n        /* \"#utility.yul\":10497:10499   */\n      0x1b\n        /* \"#utility.yul\":10477:10495   */\n      0x24\n      dup3\n      add\n        /* \"#utility.yul\":10470:10500   */\n      mstore\n      shl(0x28, 0x4d7573742073656e64205553445420746f206275792073746f636b)\n        /* \"#utility.yul\":10516:10534   */\n      0x44\n      dup3\n      add\n        /* \"#utility.yul\":10509:10566   */\n      mstore\n        /* \"#utility.yul\":10583:10601   */\n      0x64\n      add\n        /* \"src/eStock.sol\":7606:7660  require(usdtAmount > 0, \"Must send USDT to buy stock\") */\n      tag_192\n        /* \"#utility.yul\":10256:10607   */\n      jump\n        /* \"src/eStock.sol\":7606:7660  require(usdtAmount > 0, \"Must send USDT to buy stock\") */\n    tag_275:\n        /* \"src/eStock.sol\":7694:7706  expectedRate */\n      dup1\n        /* \"src/eStock.sol\":7678:7690  exchangeRate */\n      sload(0x0a)\n        /* \"src/eStock.sol\":7678:7706  exchangeRate == expectedRate */\n      eq\n        /* \"src/eStock.sol\":7670:7732  require(exchangeRate == expectedRate, \"Exchange rate changed\") */\n      tag_278\n      jumpi\n      mload(0x40)\n      shl(0xe5, 0x461bcd)\n      dup2\n      mstore\n        /* \"#utility.yul\":10814:10816   */\n      0x20\n        /* \"src/eStock.sol\":7670:7732  require(exchangeRate == expectedRate, \"Exchange rate changed\") */\n      0x04\n      dup3\n      add\n        /* \"#utility.yul\":10796:10817   */\n      mstore\n        /* \"#utility.yul\":10853:10855   */\n      0x15\n        /* \"#utility.yul\":10833:10851   */\n      0x24\n      dup3\n      add\n        /* \"#utility.yul\":10826:10856   */\n      mstore\n      shl(0x5a, 0x115e18da185b99d9481c985d194818da185b99d959)\n        /* \"#utility.yul\":10872:10890   */\n      0x44\n      dup3\n      add\n        /* \"#utility.yul\":10865:10916   */\n      mstore\n        /* \"#utility.yul\":10933:10951   */\n      0x64\n      add\n        /* \"src/eStock.sol\":7670:7732  require(exchangeRate == expectedRate, \"Exchange rate changed\") */\n      tag_192\n        /* \"#utility.yul\":10612:10957   */\n      jump\n        /* \"src/eStock.sol\":7670:7732  require(exchangeRate == expectedRate, \"Exchange rate changed\") */\n    tag_278:\n        /* \"src/eStock.sol\":7795:7827  updateUserCommission(msg.sender) */\n      tag_281\n        /* \"src/eStock.sol\":7816:7826  msg.sender */\n      caller\n        /* \"src/eStock.sol\":7795:7815  updateUserCommission */\n      tag_231\n        /* \"src/eStock.sol\":7795:7827  updateUserCommission(msg.sender) */\n      jump\t// in\n    tag_281:\n        /* \"src/eStock.sol\":7838:7857  uint256 stockAmount */\n      0x00\n        /* \"src/eStock.sol\":7891:7900  1e6 * 100 */\n      0x05f5e100\n        /* \"src/eStock.sol\":7874:7886  exchangeRate */\n      sload(0x0a)\n        /* \"src/eStock.sol\":7861:7871  usdtAmount */\n      dup5\n        /* \"src/eStock.sol\":7861:7886  usdtAmount * exchangeRate */\n      tag_282\n      swap2\n      swap1\n      tag_283\n      jump\t// in\n    tag_282:\n        /* \"src/eStock.sol\":7860:7901  (usdtAmount * exchangeRate) / (1e6 * 100) */\n      tag_284\n      swap2\n      swap1\n      tag_285\n      jump\t// in\n    tag_284:\n        /* \"src/eStock.sol\":7838:7901  uint256 stockAmount = (usdtAmount * exchangeRate) / (1e6 * 100) */\n      swap1\n      pop\n        /* \"src/eStock.sol\":7932:7943  stockAmount */\n      dup1\n        /* \"src/eStock.sol\":7919:7928  saleQuota */\n      sload(0x0b)\n        /* \"src/eStock.sol\":7919:7943  saleQuota >= stockAmount */\n      lt\n      iszero\n        /* \"src/eStock.sol\":7911:7977  require(saleQuota >= stockAmount, \"Not enough stock in this sale\") */\n      tag_286\n      jumpi\n      mload(0x40)\n      shl(0xe5, 0x461bcd)\n      dup2\n      mstore\n        /* \"#utility.yul\":11559:11561   */\n      0x20\n        /* \"src/eStock.sol\":7911:7977  require(saleQuota >= stockAmount, \"Not enough stock in this sale\") */\n      0x04\n      dup3\n      add\n        /* \"#utility.yul\":11541:11562   */\n      mstore\n        /* \"#utility.yul\":11598:11600   */\n      0x1d\n        /* \"#utility.yul\":11578:11596   */\n      0x24\n      dup3\n      add\n        /* \"#utility.yul\":11571:11601   */\n      mstore\n        /* \"#utility.yul\":11637:11668   */\n      0x4e6f7420656e6f7567682073746f636b20696e20746869732073616c65000000\n        /* \"#utility.yul\":11617:11635   */\n      0x44\n      dup3\n      add\n        /* \"#utility.yul\":11610:11669   */\n      mstore\n        /* \"#utility.yul\":11686:11704   */\n      0x64\n      add\n        /* \"src/eStock.sol\":7911:7977  require(saleQuota >= stockAmount, \"Not enough stock in this sale\") */\n      tag_192\n        /* \"#utility.yul\":11357:11710   */\n      jump\n        /* \"src/eStock.sol\":7911:7977  require(saleQuota >= stockAmount, \"Not enough stock in this sale\") */\n    tag_286:\n        /* \"src/eStock.sol\":8017:8028  stockAmount */\n      dup1\n        /* \"src/eStock.sol\":7995:8013  balanceOf(owner()) */\n      tag_289\n        /* \"src/eStock.sol\":8005:8012  owner() */\n      tag_91\n        /* \"src/eStock.sol\":8005:8010  owner */\n      tag_107\n        /* \"src/eStock.sol\":8005:8012  owner() */\n      jump\t// in\n        /* \"src/eStock.sol\":7995:8013  balanceOf(owner()) */\n    tag_289:\n        /* \"src/eStock.sol\":7995:8028  balanceOf(owner()) >= stockAmount */\n      lt\n      iszero\n        /* \"src/eStock.sol\":7987:8059  require(balanceOf(owner()) >= stockAmount, \"Not enough stock available\") */\n      tag_291\n      jumpi\n      mload(0x40)\n      shl(0xe5, 0x461bcd)\n      dup2\n      mstore\n        /* \"#utility.yul\":11917:11919   */\n      0x20\n        /* \"src/eStock.sol\":7987:8059  require(balanceOf(owner()) >= stockAmount, \"Not enough stock available\") */\n      0x04\n      dup3\n      add\n        /* \"#utility.yul\":11899:11920   */\n      mstore\n        /* \"#utility.yul\":11956:11958   */\n      0x1a\n        /* \"#utility.yul\":11936:11954   */\n      0x24\n      dup3\n      add\n        /* \"#utility.yul\":11929:11959   */\n      mstore\n      shl(0x30, 0x4e6f7420656e6f7567682073746f636b20617661696c61626c65)\n        /* \"#utility.yul\":11975:11993   */\n      0x44\n      dup3\n      add\n        /* \"#utility.yul\":11968:12024   */\n      mstore\n        /* \"#utility.yul\":12041:12059   */\n      0x64\n      add\n        /* \"src/eStock.sol\":7987:8059  require(balanceOf(owner()) >= stockAmount, \"Not enough stock available\") */\n      tag_192\n        /* \"#utility.yul\":11715:12065   */\n      jump\n        /* \"src/eStock.sol\":7987:8059  require(balanceOf(owner()) >= stockAmount, \"Not enough stock available\") */\n    tag_291:\n        /* \"src/eStock.sol\":8142:8151  usdtToken */\n      sload(0x09)\n        /* \"src/eStock.sol\":8142:8176  usdtToken.balanceOf(address(this)) */\n      mload(0x40)\n      shl(0xe0, 0x70a08231)\n      dup2\n      mstore\n        /* \"src/eStock.sol\":8118:8139  uint256 balanceBefore */\n      0x00\n      swap2\n      sub(shl(0xa0, 0x01), 0x01)\n        /* \"src/eStock.sol\":8142:8151  usdtToken */\n      and\n      swap1\n        /* \"src/eStock.sol\":8142:8161  usdtToken.balanceOf */\n      0x70a08231\n      swap1\n        /* \"src/eStock.sol\":8142:8176  usdtToken.balanceOf(address(this)) */\n      tag_294\n      swap1\n        /* \"src/eStock.sol\":8170:8174  this */\n      address\n      swap1\n        /* \"src/eStock.sol\":8142:8176  usdtToken.balanceOf(address(this)) */\n      0x04\n      add\n      tag_105\n      jump\t// in\n    tag_294:\n      0x20\n      mload(0x40)\n      dup1\n      dup4\n      sub\n      dup2\n      dup7\n      gas\n      staticcall\n      iszero\n      dup1\n      iszero\n      tag_296\n      jumpi\n      returndatasize\n      0x00\n      dup1\n      returndatacopy\n      revert(0x00, returndatasize)\n    tag_296:\n      pop\n      pop\n      pop\n      pop\n      mload(0x40)\n      returndatasize\n      not(0x1f)\n      0x1f\n      dup3\n      add\n      and\n      dup3\n      add\n      dup1\n      0x40\n      mstore\n      pop\n      dup2\n      add\n      swap1\n      tag_297\n      swap2\n      swap1\n      tag_178\n      jump\t// in\n    tag_297:\n        /* \"src/eStock.sol\":8194:8203  usdtToken */\n      sload(0x09)\n        /* \"src/eStock.sol\":8194:8255  usdtToken.transferFrom(msg.sender, address(this), usdtAmount) */\n      mload(0x40)\n      shl(0xe0, 0x23b872dd)\n      dup2\n      mstore\n        /* \"src/eStock.sol\":8118:8176  uint256 balanceBefore = usdtToken.balanceOf(address(this)) */\n      swap2\n      swap3\n      pop\n      sub(shl(0xa0, 0x01), 0x01)\n        /* \"src/eStock.sol\":8194:8203  usdtToken */\n      and\n      swap1\n        /* \"src/eStock.sol\":8194:8216  usdtToken.transferFrom */\n      0x23b872dd\n      swap1\n        /* \"src/eStock.sol\":8194:8255  usdtToken.transferFrom(msg.sender, address(this), usdtAmount) */\n      tag_298\n      swap1\n        /* \"src/eStock.sol\":8217:8227  msg.sender */\n      caller\n      swap1\n        /* \"src/eStock.sol\":8237:8241  this */\n      address\n      swap1\n        /* \"src/eStock.sol\":8244:8254  usdtAmount */\n      dup10\n      swap1\n        /* \"src/eStock.sol\":8194:8255  usdtToken.transferFrom(msg.sender, address(this), usdtAmount) */\n      0x04\n      add\n      tag_199\n      jump\t// in\n    tag_298:\n      0x20\n      mload(0x40)\n      dup1\n      dup4\n      sub\n      dup2\n      0x00\n      dup8\n      gas\n      call\n      iszero\n      dup1\n      iszero\n      tag_300\n      jumpi\n      returndatasize\n      0x00\n      dup1\n      returndatacopy\n      revert(0x00, returndatasize)\n    tag_300:\n      pop\n      pop\n      pop\n      pop\n      mload(0x40)\n      returndatasize\n      not(0x1f)\n      0x1f\n      dup3\n      add\n      and\n      dup3\n      add\n      dup1\n      0x40\n      mstore\n      pop\n      dup2\n      add\n      swap1\n      tag_301\n      swap2\n      swap1\n      tag_203\n      jump\t// in\n    tag_301:\n        /* \"src/eStock.sol\":8186:8280  require(usdtToken.transferFrom(msg.sender, address(this), usdtAmount), \"USDT transfer failed\") */\n      tag_302\n      jumpi\n      mload(0x40)\n      shl(0xe5, 0x461bcd)\n      dup2\n      mstore\n      0x04\n      add\n      tag_192\n      swap1\n      tag_206\n      jump\t// in\n    tag_302:\n        /* \"src/eStock.sol\":8313:8322  usdtToken */\n      sload(0x09)\n        /* \"src/eStock.sol\":8313:8347  usdtToken.balanceOf(address(this)) */\n      mload(0x40)\n      shl(0xe0, 0x70a08231)\n      dup2\n      mstore\n        /* \"src/eStock.sol\":8290:8310  uint256 receivedUSDT */\n      0x00\n      swap2\n        /* \"src/eStock.sol\":8350:8363  balanceBefore */\n      dup4\n      swap2\n      sub(shl(0xa0, 0x01), 0x01)\n        /* \"src/eStock.sol\":8313:8322  usdtToken */\n      swap1\n      swap2\n      and\n      swap1\n        /* \"src/eStock.sol\":8313:8332  usdtToken.balanceOf */\n      0x70a08231\n      swap1\n        /* \"src/eStock.sol\":8313:8347  usdtToken.balanceOf(address(this)) */\n      tag_304\n      swap1\n        /* \"src/eStock.sol\":8341:8345  this */\n      address\n      swap1\n        /* \"src/eStock.sol\":8313:8347  usdtToken.balanceOf(address(this)) */\n      0x04\n      add\n      tag_105\n      jump\t// in\n    tag_304:\n      0x20\n      mload(0x40)\n      dup1\n      dup4\n      sub\n      dup2\n      dup7\n      gas\n      staticcall\n      iszero\n      dup1\n      iszero\n      tag_306\n      jumpi\n      returndatasize\n      0x00\n      dup1\n      returndatacopy\n      revert(0x00, returndatasize)\n    tag_306:\n      pop\n      pop\n      pop\n      pop\n      mload(0x40)\n      returndatasize\n      not(0x1f)\n      0x1f\n      dup3\n      add\n      and\n      dup3\n      add\n      dup1\n      0x40\n      mstore\n      pop\n      dup2\n      add\n      swap1\n      tag_307\n      swap2\n      swap1\n      tag_178\n      jump\t// in\n    tag_307:\n        /* \"src/eStock.sol\":8313:8363  usdtToken.balanceOf(address(this)) - balanceBefore */\n      tag_308\n      swap2\n      swap1\n      tag_254\n      jump\t// in\n    tag_308:\n        /* \"src/eStock.sol\":8290:8363  uint256 receivedUSDT = usdtToken.balanceOf(address(this)) - balanceBefore */\n      swap1\n      pop\n        /* \"src/eStock.sol\":8397:8413  usdtAmount - 1e6 */\n      tag_309\n        /* \"src/eStock.sol\":8410:8413  1e6 */\n      0x0f4240\n        /* \"src/eStock.sol\":8397:8407  usdtAmount */\n      dup7\n        /* \"src/eStock.sol\":8397:8413  usdtAmount - 1e6 */\n      tag_254\n      jump\t// in\n    tag_309:\n        /* \"src/eStock.sol\":8381:8393  receivedUSDT */\n      dup2\n        /* \"src/eStock.sol\":8381:8413  receivedUSDT >= usdtAmount - 1e6 */\n      lt\n      iszero\n        /* \"src/eStock.sol\":8381:8449  receivedUSDT >= usdtAmount - 1e6 && receivedUSDT <= usdtAmount + 1e6 */\n      dup1\n      iszero\n      tag_310\n      jumpi\n      pop\n        /* \"src/eStock.sol\":8433:8449  usdtAmount + 1e6 */\n      tag_311\n        /* \"src/eStock.sol\":8433:8443  usdtAmount */\n      dup6\n        /* \"src/eStock.sol\":8446:8449  1e6 */\n      0x0f4240\n        /* \"src/eStock.sol\":8433:8449  usdtAmount + 1e6 */\n      tag_208\n      jump\t// in\n    tag_311:\n        /* \"src/eStock.sol\":8417:8429  receivedUSDT */\n      dup2\n        /* \"src/eStock.sol\":8417:8449  receivedUSDT <= usdtAmount + 1e6 */\n      gt\n      iszero\n        /* \"src/eStock.sol\":8381:8449  receivedUSDT >= usdtAmount - 1e6 && receivedUSDT <= usdtAmount + 1e6 */\n    tag_310:\n        /* \"src/eStock.sol\":8373:8484  require(receivedUSDT >= usdtAmount - 1e6 && receivedUSDT <= usdtAmount + 1e6, \"Incorrect USDT transfer amount\") */\n      tag_312\n      jumpi\n      mload(0x40)\n      shl(0xe5, 0x461bcd)\n      dup2\n      mstore\n        /* \"#utility.yul\":12272:12274   */\n      0x20\n        /* \"src/eStock.sol\":8373:8484  require(receivedUSDT >= usdtAmount - 1e6 && receivedUSDT <= usdtAmount + 1e6, \"Incorrect USDT transfer amount\") */\n      0x04\n      dup3\n      add\n        /* \"#utility.yul\":12254:12275   */\n      mstore\n        /* \"#utility.yul\":12311:12313   */\n      0x1e\n        /* \"#utility.yul\":12291:12309   */\n      0x24\n      dup3\n      add\n        /* \"#utility.yul\":12284:12314   */\n      mstore\n        /* \"#utility.yul\":12350:12382   */\n      0x496e636f72726563742055534454207472616e7366657220616d6f756e740000\n        /* \"#utility.yul\":12330:12348   */\n      0x44\n      dup3\n      add\n        /* \"#utility.yul\":12323:12383   */\n      mstore\n        /* \"#utility.yul\":12400:12418   */\n      0x64\n      add\n        /* \"src/eStock.sol\":8373:8484  require(receivedUSDT >= usdtAmount - 1e6 && receivedUSDT <= usdtAmount + 1e6, \"Incorrect USDT transfer amount\") */\n      tag_192\n        /* \"#utility.yul\":12070:12424   */\n      jump\n        /* \"src/eStock.sol\":8373:8484  require(receivedUSDT >= usdtAmount - 1e6 && receivedUSDT <= usdtAmount + 1e6, \"Incorrect USDT transfer amount\") */\n    tag_312:\n        /* \"src/eStock.sol\":8576:8586  usdtAmount */\n      dup5\n        /* \"src/eStock.sol\":8554:8572  totalUSDTPurchased */\n      0x0c\n      0x00\n        /* \"src/eStock.sol\":8554:8586  totalUSDTPurchased += usdtAmount */\n      dup3\n      dup3\n      sload\n      tag_315\n      swap2\n      swap1\n      tag_208\n      jump\t// in\n    tag_315:\n      swap3\n      pop\n      pop\n      dup2\n      swap1\n      sstore\n      pop\n        /* \"src/eStock.sol\":8610:8621  stockAmount */\n      dup3\n        /* \"src/eStock.sol\":8597:8606  saleQuota */\n      0x0b\n      0x00\n        /* \"src/eStock.sol\":8597:8621  saleQuota -= stockAmount */\n      dup3\n      dup3\n      sload\n      tag_316\n      swap2\n      swap1\n      tag_254\n      jump\t// in\n    tag_316:\n      swap1\n      swap2\n      sstore\n      pop\n        /* \"src/eStock.sol\":8631:8674  _transfer(owner(), msg.sender, stockAmount) */\n      tag_317\n      swap1\n      pop\n        /* \"src/eStock.sol\":8641:8648  owner() */\n      tag_318\n        /* \"src/eStock.sol\":8641:8646  owner */\n      tag_107\n        /* \"src/eStock.sol\":8641:8648  owner() */\n      jump\t// in\n    tag_318:\n        /* \"src/eStock.sol\":8650:8660  msg.sender */\n      caller\n        /* \"src/eStock.sol\":8662:8673  stockAmount */\n      dup6\n        /* \"src/eStock.sol\":8631:8640  _transfer */\n      tag_189\n        /* \"src/eStock.sol\":8631:8674  _transfer(owner(), msg.sender, stockAmount) */\n      jump\t// in\n    tag_317:\n        /* \"src/eStock.sol\":8704:8718  currentHistory */\n      sload(0x07)\n        /* \"src/eStock.sol\":8685:8784  TransactionHistory(currentHistory).recordTransaction(\"BUY\", msg.sender, address(this), stockAmount) */\n      mload(0x40)\n      shl(0xe1, 0x55877341)\n      dup2\n      mstore\n        /* \"#utility.yul\":12715:12718   */\n      0x80\n        /* \"src/eStock.sol\":8685:8784  TransactionHistory(currentHistory).recordTransaction(\"BUY\", msg.sender, address(this), stockAmount) */\n      0x04\n      dup3\n      add\n        /* \"#utility.yul\":12697:12719   */\n      mstore\n        /* \"#utility.yul\":12756:12757   */\n      0x03\n        /* \"#utility.yul\":12735:12754   */\n      0x84\n      dup3\n      add\n        /* \"#utility.yul\":12728:12758   */\n      mstore\n      shl(0xe8, 0x425559)\n        /* \"#utility.yul\":12774:12793   */\n      0xa4\n      dup3\n      add\n        /* \"#utility.yul\":12767:12801   */\n      mstore\n        /* \"src/eStock.sol\":8745:8755  msg.sender */\n      caller\n        /* \"#utility.yul\":12853:12873   */\n      0x24\n      dup3\n      add\n        /* \"#utility.yul\":12846:12908   */\n      mstore\n        /* \"src/eStock.sol\":8765:8769  this */\n      address\n        /* \"#utility.yul\":12924:12942   */\n      0x44\n      dup3\n      add\n        /* \"#utility.yul\":12917:12977   */\n      mstore\n        /* \"#utility.yul\":12993:13011   */\n      0x64\n      dup2\n      add\n        /* \"#utility.yul\":12986:13020   */\n      dup6\n      swap1\n      mstore\n      sub(shl(0xa0, 0x01), 0x01)\n        /* \"src/eStock.sol\":8704:8718  currentHistory */\n      swap1\n      swap2\n      and\n      swap1\n        /* \"src/eStock.sol\":8685:8737  TransactionHistory(currentHistory).recordTransaction */\n      0xab0ee682\n      swap1\n        /* \"#utility.yul\":12818:12837   */\n      0xc4\n      add\n        /* \"src/eStock.sol\":8685:8784  TransactionHistory(currentHistory).recordTransaction(\"BUY\", msg.sender, address(this), stockAmount) */\n      0x00\n      mload(0x40)\n      dup1\n      dup4\n      sub\n      dup2\n      0x00\n      dup8\n      dup1\n      extcodesize\n      iszero\n      dup1\n      iszero\n      tag_321\n      jumpi\n      0x00\n      dup1\n      revert\n    tag_321:\n      pop\n      gas\n      call\n      iszero\n      dup1\n      iszero\n      tag_323\n      jumpi\n      returndatasize\n      0x00\n      dup1\n      returndatacopy\n      revert(0x00, returndatasize)\n    tag_323:\n      pop\n      pop\n        /* \"src/eStock.sol\":8856:8870  currentHistory */\n      sload(0x07)\n        /* \"src/eStock.sol\":8837:8936  TransactionHistory(currentHistory).recordTransaction(\"SELL\", address(this), msg.sender, usdtAmount) */\n      mload(0x40)\n      shl(0xe1, 0x55877341)\n      dup2\n      mstore\n        /* \"#utility.yul\":13317:13320   */\n      0x80\n        /* \"src/eStock.sol\":8837:8936  TransactionHistory(currentHistory).recordTransaction(\"SELL\", address(this), msg.sender, usdtAmount) */\n      0x04\n      dup1\n      dup4\n      add\n        /* \"#utility.yul\":13299:13321   */\n      swap2\n      swap1\n      swap2\n      mstore\n        /* \"#utility.yul\":13337:13356   */\n      0x84\n      dup3\n      add\n        /* \"#utility.yul\":13330:13360   */\n      mstore\n      shl(0xe2, 0x14d15313)\n        /* \"#utility.yul\":13376:13395   */\n      0xa4\n      dup3\n      add\n        /* \"#utility.yul\":13369:13404   */\n      mstore\n        /* \"src/eStock.sol\":8906:8910  this */\n      address\n        /* \"#utility.yul\":13456:13476   */\n      0x24\n      dup3\n      add\n        /* \"#utility.yul\":13449:13511   */\n      mstore\n        /* \"src/eStock.sol\":8913:8923  msg.sender */\n      caller\n        /* \"#utility.yul\":13527:13545   */\n      0x44\n      dup3\n      add\n        /* \"#utility.yul\":13520:13580   */\n      mstore\n        /* \"#utility.yul\":13596:13614   */\n      0x64\n      dup2\n      add\n        /* \"#utility.yul\":13589:13623   */\n      dup10\n      swap1\n      mstore\n      sub(shl(0xa0, 0x01), 0x01)\n        /* \"src/eStock.sol\":8856:8870  currentHistory */\n      swap1\n      swap2\n      and\n      swap3\n      pop\n        /* \"src/eStock.sol\":8837:8889  TransactionHistory(currentHistory).recordTransaction */\n      0xab0ee682\n      swap2\n      pop\n        /* \"#utility.yul\":13421:13440   */\n      0xc4\n      add\n        /* \"src/eStock.sol\":8837:8936  TransactionHistory(currentHistory).recordTransaction(\"SELL\", address(this), msg.sender, usdtAmount) */\n      0x00\n      mload(0x40)\n      dup1\n      dup4\n      sub\n      dup2\n      0x00\n      dup8\n      dup1\n      extcodesize\n      iszero\n      dup1\n      iszero\n      tag_326\n      jumpi\n      0x00\n      dup1\n      revert\n    tag_326:\n      pop\n      gas\n      call\n      iszero\n      dup1\n      iszero\n      tag_328\n      jumpi\n      returndatasize\n      0x00\n      dup1\n      returndatacopy\n      revert(0x00, returndatasize)\n    tag_328:\n      pop\n      pop\n        /* \"src/eStock.sol\":8960:9011  StockPurchased(msg.sender, stockAmount, usdtAmount) */\n      0x40\n      dup1\n      mload\n        /* \"#utility.yul\":13808:13833   */\n      dup7\n      dup2\n      mstore\n        /* \"#utility.yul\":13864:13866   */\n      0x20\n        /* \"#utility.yul\":13849:13867   */\n      dup2\n      add\n        /* \"#utility.yul\":13842:13876   */\n      dup10\n      swap1\n      mstore\n        /* \"src/eStock.sol\":8975:8985  msg.sender */\n      caller\n      swap4\n      pop\n        /* \"src/eStock.sol\":8960:9011  StockPurchased(msg.sender, stockAmount, usdtAmount) */\n      0xc0bcdc28f6619d8ba6313614295a1f7b0477a1ad3f83ec463254630f3c5a306f\n      swap3\n      pop\n        /* \"#utility.yul\":13781:13799   */\n      add\n        /* \"src/eStock.sol\":8960:9011  StockPurchased(msg.sender, stockAmount, usdtAmount) */\n      mload(0x40)\n      dup1\n      swap2\n      sub\n      swap1\n      log2\n        /* \"src/eStock.sol\":7596:9018  {... */\n      pop\n      pop\n      pop\n        /* \"src/eStock.sol\":7527:9018  function buyStock(uint256 usdtAmount, uint256 expectedRate) external {... */\n      pop\n      pop\n      jump\t// out\n        /* \"src/eStock.sol\":6684:6821  function setSaleQuota(uint256 newQuota) external onlyOwner {... */\n    tag_138:\n        /* \"@openzeppelin/contracts/access/Ownable.sol\":1531:1544  _checkOwner() */\n      tag_332\n        /* \"@openzeppelin/contracts/access/Ownable.sol\":1531:1542  _checkOwner */\n      tag_171\n        /* \"@openzeppelin/contracts/access/Ownable.sol\":1531:1544  _checkOwner() */\n      jump\t// in\n    tag_332:\n        /* \"src/eStock.sol\":6753:6762  saleQuota */\n      0x0b\n        /* \"src/eStock.sol\":6753:6773  saleQuota = newQuota */\n      dup2\n      swap1\n      sstore\n        /* \"src/eStock.sol\":6788:6814  SaleQuotaUpdated(newQuota) */\n      mload(0x40)\n        /* \"#utility.yul\":160:185   */\n      dup2\n      dup2\n      mstore\n        /* \"src/eStock.sol\":6788:6814  SaleQuotaUpdated(newQuota) */\n      0xa1f96f7fa140217bc5d0a96ba383bef3818737e35a1f4017843a8bdd7862b86f\n      swap1\n        /* \"#utility.yul\":148:150   */\n      0x20\n        /* \"#utility.yul\":133:151   */\n      add\n        /* \"src/eStock.sol\":6788:6814  SaleQuotaUpdated(newQuota) */\n    tag_334:\n      mload(0x40)\n      dup1\n      swap2\n      sub\n      swap1\n      log1\n        /* \"src/eStock.sol\":6684:6821  function setSaleQuota(uint256 newQuota) external onlyOwner {... */\n      pop\n      jump\t// out\n        /* \"src/eStock.sol\":10608:10995  function withdrawUSDTPurchased(uint256 amount) external onlyOwner {... */\n    tag_145:\n        /* \"@openzeppelin/contracts/access/Ownable.sol\":1531:1544  _checkOwner() */\n      tag_336\n        /* \"@openzeppelin/contracts/access/Ownable.sol\":1531:1542  _checkOwner */\n      tag_171\n        /* \"@openzeppelin/contracts/access/Ownable.sol\":1531:1544  _checkOwner() */\n      jump\t// in\n    tag_336:\n        /* \"src/eStock.sol\":10701:10702  0 */\n      0x00\n        /* \"src/eStock.sol\":10692:10698  amount */\n      dup2\n        /* \"src/eStock.sol\":10692:10702  amount > 0 */\n      gt\n        /* \"src/eStock.sol\":10684:10736  require(amount > 0, \"Amount must be greater than 0\") */\n      tag_338\n      jumpi\n      mload(0x40)\n      shl(0xe5, 0x461bcd)\n      dup2\n      mstore\n      0x04\n      add\n      tag_192\n      swap1\n      tag_197\n      jump\t// in\n    tag_338:\n        /* \"src/eStock.sol\":10764:10782  totalUSDTPurchased */\n      sload(0x0c)\n        /* \"src/eStock.sol\":10754:10760  amount */\n      dup2\n        /* \"src/eStock.sol\":10754:10782  amount <= totalUSDTPurchased */\n      gt\n      iszero\n        /* \"src/eStock.sol\":10746:10817  require(amount <= totalUSDTPurchased, \"Not enough USDT from purchases\") */\n      tag_340\n      jumpi\n      mload(0x40)\n      shl(0xe5, 0x461bcd)\n      dup2\n      mstore\n        /* \"#utility.yul\":14089:14091   */\n      0x20\n        /* \"src/eStock.sol\":10746:10817  require(amount <= totalUSDTPurchased, \"Not enough USDT from purchases\") */\n      0x04\n      dup3\n      add\n        /* \"#utility.yul\":14071:14092   */\n      mstore\n        /* \"#utility.yul\":14128:14130   */\n      0x1e\n        /* \"#utility.yul\":14108:14126   */\n      0x24\n      dup3\n      add\n        /* \"#utility.yul\":14101:14131   */\n      mstore\n        /* \"#utility.yul\":14167:14199   */\n      0x4e6f7420656e6f75676820555344542066726f6d207075726368617365730000\n        /* \"#utility.yul\":14147:14165   */\n      0x44\n      dup3\n      add\n        /* \"#utility.yul\":14140:14200   */\n      mstore\n        /* \"#utility.yul\":14217:14235   */\n      0x64\n      add\n        /* \"src/eStock.sol\":10746:10817  require(amount <= totalUSDTPurchased, \"Not enough USDT from purchases\") */\n      tag_192\n        /* \"#utility.yul\":13887:14241   */\n      jump\n        /* \"src/eStock.sol\":10746:10817  require(amount <= totalUSDTPurchased, \"Not enough USDT from purchases\") */\n    tag_340:\n        /* \"src/eStock.sol\":10850:10856  amount */\n      dup1\n        /* \"src/eStock.sol\":10828:10846  totalUSDTPurchased */\n      0x0c\n      0x00\n        /* \"src/eStock.sol\":10828:10856  totalUSDTPurchased -= amount */\n      dup3\n      dup3\n      sload\n      tag_343\n      swap2\n      swap1\n      tag_254\n      jump\t// in\n    tag_343:\n      swap1\n      swap2\n      sstore\n      pop\n      pop\n        /* \"src/eStock.sol\":10874:10883  usdtToken */\n      and(sub(shl(0xa0, 0x01), 0x01), sload(0x09))\n        /* \"src/eStock.sol\":10874:10892  usdtToken.transfer */\n      0xa9059cbb\n        /* \"src/eStock.sol\":10893:10900  owner() */\n      tag_344\n        /* \"src/eStock.sol\":10893:10898  owner */\n      tag_107\n        /* \"src/eStock.sol\":10893:10900  owner() */\n      jump\t// in\n    tag_344:\n        /* \"src/eStock.sol\":10902:10908  amount */\n      dup4\n        /* \"src/eStock.sol\":10874:10909  usdtToken.transfer(owner(), amount) */\n      mload(0x40)\n      dup4\n      0xffffffff\n      and\n      0xe0\n      shl\n      dup2\n      mstore\n      0x04\n      add\n      tag_345\n      swap3\n      swap2\n      swap1\n      tag_262\n      jump\t// in\n    tag_345:\n      0x20\n      mload(0x40)\n      dup1\n      dup4\n      sub\n      dup2\n      0x00\n      dup8\n      gas\n      call\n      iszero\n      dup1\n      iszero\n      tag_347\n      jumpi\n      returndatasize\n      0x00\n      dup1\n      returndatacopy\n      revert(0x00, returndatasize)\n    tag_347:\n      pop\n      pop\n      pop\n      pop\n      mload(0x40)\n      returndatasize\n      not(0x1f)\n      0x1f\n      dup3\n      add\n      and\n      dup3\n      add\n      dup1\n      0x40\n      mstore\n      pop\n      dup2\n      add\n      swap1\n      tag_348\n      swap2\n      swap1\n      tag_203\n      jump\t// in\n    tag_348:\n        /* \"src/eStock.sol\":10866:10934  require(usdtToken.transfer(owner(), amount), \"USDT transfer failed\") */\n      tag_349\n      jumpi\n      mload(0x40)\n      shl(0xe5, 0x461bcd)\n      dup2\n      mstore\n      0x04\n      add\n      tag_192\n      swap1\n      tag_206\n      jump\t// in\n    tag_349:\n        /* \"src/eStock.sol\":10972:10979  owner() */\n      tag_351\n        /* \"src/eStock.sol\":10972:10977  owner */\n      tag_107\n        /* \"src/eStock.sol\":10972:10979  owner() */\n      jump\t// in\n    tag_351:\n      sub(shl(0xa0, 0x01), 0x01)\n        /* \"src/eStock.sol\":10950:10988  USDTPurchaseWithdrawn(owner(), amount) */\n      and\n      0xf8447aa22b3477c5230344f1eaacdb857516c66017e96d5f556345cdd1aca111\n        /* \"src/eStock.sol\":10981:10987  amount */\n      dup3\n        /* \"src/eStock.sol\":10950:10988  USDTPurchaseWithdrawn(owner(), amount) */\n      mload(0x40)\n      tag_214\n      swap2\n        /* \"#utility.yul\":160:185   */\n      dup2\n      mstore\n        /* \"#utility.yul\":148:150   */\n      0x20\n        /* \"#utility.yul\":133:151   */\n      add\n      swap1\n        /* \"#utility.yul\":14:191   */\n      jump\n        /* \"src/eStock.sol\":6424:6628  function setExchangeRate(uint256 newRate) external onlyOwner {... */\n    tag_148:\n        /* \"@openzeppelin/contracts/access/Ownable.sol\":1531:1544  _checkOwner() */\n      tag_354\n        /* \"@openzeppelin/contracts/access/Ownable.sol\":1531:1542  _checkOwner */\n      tag_171\n        /* \"@openzeppelin/contracts/access/Ownable.sol\":1531:1544  _checkOwner() */\n      jump\t// in\n    tag_354:\n        /* \"src/eStock.sol\":6513:6514  0 */\n      0x00\n        /* \"src/eStock.sol\":6503:6510  newRate */\n      dup2\n        /* \"src/eStock.sol\":6503:6514  newRate > 0 */\n      gt\n        /* \"src/eStock.sol\":6495:6546  require(newRate > 0, \"Rate must be greater than 0\") */\n      tag_356\n      jumpi\n      mload(0x40)\n      shl(0xe5, 0x461bcd)\n      dup2\n      mstore\n        /* \"#utility.yul\":14448:14450   */\n      0x20\n        /* \"src/eStock.sol\":6495:6546  require(newRate > 0, \"Rate must be greater than 0\") */\n      0x04\n      dup3\n      add\n        /* \"#utility.yul\":14430:14451   */\n      mstore\n        /* \"#utility.yul\":14487:14489   */\n      0x1b\n        /* \"#utility.yul\":14467:14485   */\n      0x24\n      dup3\n      add\n        /* \"#utility.yul\":14460:14490   */\n      mstore\n      shl(0x2c, 0x052617465206d7573742062652067726561746572207468616e203)\n        /* \"#utility.yul\":14506:14524   */\n      0x44\n      dup3\n      add\n        /* \"#utility.yul\":14499:14556   */\n      mstore\n        /* \"#utility.yul\":14573:14591   */\n      0x64\n      add\n        /* \"src/eStock.sol\":6495:6546  require(newRate > 0, \"Rate must be greater than 0\") */\n      tag_192\n        /* \"#utility.yul\":14246:14597   */\n      jump\n        /* \"src/eStock.sol\":6495:6546  require(newRate > 0, \"Rate must be greater than 0\") */\n    tag_356:\n        /* \"src/eStock.sol\":6556:6568  exchangeRate */\n      0x0a\n        /* \"src/eStock.sol\":6556:6578  exchangeRate = newRate */\n      dup2\n      swap1\n      sstore\n        /* \"src/eStock.sol\":6593:6621  ExchangeRateUpdated(newRate) */\n      mload(0x40)\n        /* \"#utility.yul\":160:185   */\n      dup2\n      dup2\n      mstore\n        /* \"src/eStock.sol\":6593:6621  ExchangeRateUpdated(newRate) */\n      0x388f446e9526fe5c9af20a5919b342370c8a7c0cb05245afe1e545658fa3cdba\n      swap1\n        /* \"#utility.yul\":148:150   */\n      0x20\n        /* \"#utility.yul\":133:151   */\n      add\n        /* \"src/eStock.sol\":6593:6621  ExchangeRateUpdated(newRate) */\n      tag_334\n        /* \"#utility.yul\":14:191   */\n      jump\n        /* \"@openzeppelin/contracts/token/ERC20/ERC20.sol\":3551:3691  function allowance(address owner, address spender) public view virtual returns (uint256) {... */\n    tag_152:\n      sub(shl(0xa0, 0x01), 0x01)\n        /* \"@openzeppelin/contracts/token/ERC20/ERC20.sol\":3657:3675  _allowances[owner] */\n      swap2\n      dup3\n      and\n        /* \"@openzeppelin/contracts/token/ERC20/ERC20.sol\":3631:3638  uint256 */\n      0x00\n        /* \"@openzeppelin/contracts/token/ERC20/ERC20.sol\":3657:3675  _allowances[owner] */\n      swap1\n      dup2\n      mstore\n        /* \"@openzeppelin/contracts/token/ERC20/ERC20.sol\":3657:3668  _allowances */\n      0x01\n        /* \"@openzeppelin/contracts/token/ERC20/ERC20.sol\":3657:3675  _allowances[owner] */\n      0x20\n      swap1\n      dup2\n      mstore\n      0x40\n      dup1\n      dup4\n      keccak256\n        /* \"@openzeppelin/contracts/token/ERC20/ERC20.sol\":3657:3684  _allowances[owner][spender] */\n      swap4\n      swap1\n      swap5\n      and\n      dup3\n      mstore\n      swap2\n      swap1\n      swap2\n      mstore\n      keccak256\n      sload\n      swap1\n        /* \"@openzeppelin/contracts/token/ERC20/ERC20.sol\":3551:3691  function allowance(address owner, address spender) public view virtual returns (uint256) {... */\n      jump\t// out\n        /* \"@openzeppelin/contracts/access/Ownable.sol\":2543:2758  function transferOwnership(address newOwner) public virtual onlyOwner {... */\n    tag_156:\n        /* \"@openzeppelin/contracts/access/Ownable.sol\":1531:1544  _checkOwner() */\n      tag_362\n        /* \"@openzeppelin/contracts/access/Ownable.sol\":1531:1542  _checkOwner */\n      tag_171\n        /* \"@openzeppelin/contracts/access/Ownable.sol\":1531:1544  _checkOwner() */\n      jump\t// in\n    tag_362:\n      sub(shl(0xa0, 0x01), 0x01)\n        /* \"@openzeppelin/contracts/access/Ownable.sol\":2627:2649  newOwner == address(0) */\n      dup2\n      and\n        /* \"@openzeppelin/contracts/access/Ownable.sol\":2623:2714  if (newOwner == address(0)) {... */\n      tag_364\n      jumpi\n        /* \"@openzeppelin/contracts/access/Ownable.sol\":2700:2701  0 */\n      0x00\n        /* \"@openzeppelin/contracts/access/Ownable.sol\":2672:2703  OwnableInvalidOwner(address(0)) */\n      mload(0x40)\n      shl(0xe0, 0x1e4fbdf7)\n      dup2\n      mstore\n      0x04\n      add\n      tag_192\n      swap2\n      swap1\n      tag_105\n      jump\t// in\n        /* \"@openzeppelin/contracts/access/Ownable.sol\":2623:2714  if (newOwner == address(0)) {... */\n    tag_364:\n        /* \"@openzeppelin/contracts/access/Ownable.sol\":2723:2751  _transferOwnership(newOwner) */\n      tag_179\n        /* \"@openzeppelin/contracts/access/Ownable.sol\":2742:2750  newOwner */\n      dup2\n        /* \"@openzeppelin/contracts/access/Ownable.sol\":2723:2741  _transferOwnership */\n      tag_221\n        /* \"@openzeppelin/contracts/access/Ownable.sol\":2723:2751  _transferOwnership(newOwner) */\n      jump\t// in\n        /* \"@openzeppelin/contracts/token/ERC20/ERC20.sol\":8726:8854  function _approve(address owner, address spender, uint256 value) internal {... */\n    tag_168:\n        /* \"@openzeppelin/contracts/token/ERC20/ERC20.sol\":8810:8847  _approve(owner, spender, value, true) */\n      tag_369\n        /* \"@openzeppelin/contracts/token/ERC20/ERC20.sol\":8819:8824  owner */\n      dup4\n        /* \"@openzeppelin/contracts/token/ERC20/ERC20.sol\":8826:8833  spender */\n      dup4\n        /* \"@openzeppelin/contracts/token/ERC20/ERC20.sol\":8835:8840  value */\n      dup4\n        /* \"@openzeppelin/contracts/token/ERC20/ERC20.sol\":8842:8846  true */\n      0x01\n        /* \"@openzeppelin/contracts/token/ERC20/ERC20.sol\":8810:8818  _approve */\n      tag_370\n        /* \"@openzeppelin/contracts/token/ERC20/ERC20.sol\":8810:8847  _approve(owner, spender, value, true) */\n      jump\t// in\n    tag_369:\n        /* \"@openzeppelin/contracts/token/ERC20/ERC20.sol\":8726:8854  function _approve(address owner, address spender, uint256 value) internal {... */\n      pop\n      pop\n      pop\n      jump\t// out\n        /* \"@openzeppelin/contracts/access/Ownable.sol\":1796:1958  function _checkOwner() internal view virtual {... */\n    tag_171:\n        /* \"@openzeppelin/contracts/utils/Context.sol\":735:745  msg.sender */\n      caller\n        /* \"@openzeppelin/contracts/access/Ownable.sol\":1855:1862  owner() */\n      tag_373\n        /* \"@openzeppelin/contracts/access/Ownable.sol\":1855:1860  owner */\n      tag_107\n        /* \"@openzeppelin/contracts/access/Ownable.sol\":1855:1862  owner() */\n      jump\t// in\n    tag_373:\n      sub(shl(0xa0, 0x01), 0x01)\n        /* \"@openzeppelin/contracts/access/Ownable.sol\":1855:1878  owner() != _msgSender() */\n      and\n      eq\n        /* \"@openzeppelin/contracts/access/Ownable.sol\":1851:1952  if (owner() != _msgSender()) {... */\n      tag_220\n      jumpi\n        /* \"@openzeppelin/contracts/utils/Context.sol\":735:745  msg.sender */\n      caller\n        /* \"@openzeppelin/contracts/access/Ownable.sol\":1901:1941  OwnableUnauthorizedAccount(_msgSender()) */\n      mload(0x40)\n      shl(0xe0, 0x118cdaa7)\n      dup2\n      mstore\n      0x04\n      add\n      tag_192\n      swap2\n      swap1\n      tag_105\n      jump\t// in\n        /* \"@openzeppelin/contracts/token/ERC20/ERC20.sol\":10415:10891  function _spendAllowance(address owner, address spender, uint256 value) internal virtual {... */\n    tag_187:\n        /* \"@openzeppelin/contracts/token/ERC20/ERC20.sol\":10514:10538  uint256 currentAllowance */\n      0x00\n        /* \"@openzeppelin/contracts/token/ERC20/ERC20.sol\":10541:10566  allowance(owner, spender) */\n      tag_378\n        /* \"@openzeppelin/contracts/token/ERC20/ERC20.sol\":10551:10556  owner */\n      dup5\n        /* \"@openzeppelin/contracts/token/ERC20/ERC20.sol\":10558:10565  spender */\n      dup5\n        /* \"@openzeppelin/contracts/token/ERC20/ERC20.sol\":10541:10550  allowance */\n      tag_152\n        /* \"@openzeppelin/contracts/token/ERC20/ERC20.sol\":10541:10566  allowance(owner, spender) */\n      jump\t// in\n    tag_378:\n        /* \"@openzeppelin/contracts/token/ERC20/ERC20.sol\":10514:10566  uint256 currentAllowance = allowance(owner, spender) */\n      swap1\n      pop\n      not(0x00)\n        /* \"@openzeppelin/contracts/token/ERC20/ERC20.sol\":10580:10596  currentAllowance */\n      dup2\n        /* \"@openzeppelin/contracts/token/ERC20/ERC20.sol\":10580:10616  currentAllowance < type(uint256).max */\n      lt\n        /* \"@openzeppelin/contracts/token/ERC20/ERC20.sol\":10576:10885  if (currentAllowance < type(uint256).max) {... */\n      iszero\n      tag_383\n      jumpi\n        /* \"@openzeppelin/contracts/token/ERC20/ERC20.sol\":10655:10660  value */\n      dup2\n        /* \"@openzeppelin/contracts/token/ERC20/ERC20.sol\":10636:10652  currentAllowance */\n      dup2\n        /* \"@openzeppelin/contracts/token/ERC20/ERC20.sol\":10636:10660  currentAllowance < value */\n      lt\n        /* \"@openzeppelin/contracts/token/ERC20/ERC20.sol\":10632:10762  if (currentAllowance < value) {... */\n      iszero\n      tag_380\n      jumpi\n        /* \"@openzeppelin/contracts/token/ERC20/ERC20.sol\":10714:10721  spender */\n      dup3\n        /* \"@openzeppelin/contracts/token/ERC20/ERC20.sol\":10723:10739  currentAllowance */\n      dup2\n        /* \"@openzeppelin/contracts/token/ERC20/ERC20.sol\":10741:10746  value */\n      dup4\n        /* \"@openzeppelin/contracts/token/ERC20/ERC20.sol\":10687:10747  ERC20InsufficientAllowance(spender, currentAllowance, value) */\n      mload(0x40)\n      shl(0xe1, 0x7dc7a0d9)\n      dup2\n      mstore\n      0x04\n      add\n      tag_192\n      swap4\n      swap3\n      swap2\n      swap1\n      tag_382\n      jump\t// in\n        /* \"@openzeppelin/contracts/token/ERC20/ERC20.sol\":10632:10762  if (currentAllowance < value) {... */\n    tag_380:\n        /* \"@openzeppelin/contracts/token/ERC20/ERC20.sol\":10803:10860  _approve(owner, spender, currentAllowance - value, false) */\n      tag_383\n        /* \"@openzeppelin/contracts/token/ERC20/ERC20.sol\":10812:10817  owner */\n      dup5\n        /* \"@openzeppelin/contracts/token/ERC20/ERC20.sol\":10819:10826  spender */\n      dup5\n        /* \"@openzeppelin/contracts/token/ERC20/ERC20.sol\":10847:10852  value */\n      dup5\n        /* \"@openzeppelin/contracts/token/ERC20/ERC20.sol\":10828:10844  currentAllowance */\n      dup5\n        /* \"@openzeppelin/contracts/token/ERC20/ERC20.sol\":10828:10852  currentAllowance - value */\n      sub\n        /* \"@openzeppelin/contracts/token/ERC20/ERC20.sol\":10854:10859  false */\n      0x00\n        /* \"@openzeppelin/contracts/token/ERC20/ERC20.sol\":10803:10811  _approve */\n      tag_370\n        /* \"@openzeppelin/contracts/token/ERC20/ERC20.sol\":10803:10860  _approve(owner, spender, currentAllowance - value, false) */\n      jump\t// in\n    tag_383:\n        /* \"@openzeppelin/contracts/token/ERC20/ERC20.sol\":10504:10891  {... */\n      pop\n        /* \"@openzeppelin/contracts/token/ERC20/ERC20.sol\":10415:10891  function _spendAllowance(address owner, address spender, uint256 value) internal virtual {... */\n      pop\n      pop\n      pop\n      jump\t// out\n        /* \"@openzeppelin/contracts/token/ERC20/ERC20.sol\":5393:5693  function _transfer(address from, address to, uint256 value) internal {... */\n    tag_189:\n      sub(shl(0xa0, 0x01), 0x01)\n        /* \"@openzeppelin/contracts/token/ERC20/ERC20.sol\":5476:5494  from == address(0) */\n      dup4\n      and\n        /* \"@openzeppelin/contracts/token/ERC20/ERC20.sol\":5472:5558  if (from == address(0)) {... */\n      tag_385\n      jumpi\n        /* \"@openzeppelin/contracts/token/ERC20/ERC20.sol\":5544:5545  0 */\n      0x00\n        /* \"@openzeppelin/contracts/token/ERC20/ERC20.sol\":5517:5547  ERC20InvalidSender(address(0)) */\n      mload(0x40)\n      shl(0xe1, 0x4b637e8f)\n      dup2\n      mstore\n      0x04\n      add\n      tag_192\n      swap2\n      swap1\n      tag_105\n      jump\t// in\n        /* \"@openzeppelin/contracts/token/ERC20/ERC20.sol\":5472:5558  if (from == address(0)) {... */\n    tag_385:\n      sub(shl(0xa0, 0x01), 0x01)\n        /* \"@openzeppelin/contracts/token/ERC20/ERC20.sol\":5571:5587  to == address(0) */\n      dup3\n      and\n        /* \"@openzeppelin/contracts/token/ERC20/ERC20.sol\":5567:5653  if (to == address(0)) {... */\n      tag_387\n      jumpi\n        /* \"@openzeppelin/contracts/token/ERC20/ERC20.sol\":5639:5640  0 */\n      0x00\n        /* \"@openzeppelin/contracts/token/ERC20/ERC20.sol\":5610:5642  ERC20InvalidReceiver(address(0)) */\n      mload(0x40)\n      shl(0xe0, 0xec442f05)\n      dup2\n      mstore\n      0x04\n      add\n      tag_192\n      swap2\n      swap1\n      tag_105\n      jump\t// in\n        /* \"@openzeppelin/contracts/token/ERC20/ERC20.sol\":5567:5653  if (to == address(0)) {... */\n    tag_387:\n        /* \"@openzeppelin/contracts/token/ERC20/ERC20.sol\":5662:5686  _update(from, to, value) */\n      tag_369\n        /* \"@openzeppelin/contracts/token/ERC20/ERC20.sol\":5670:5674  from */\n      dup4\n        /* \"@openzeppelin/contracts/token/ERC20/ERC20.sol\":5676:5678  to */\n      dup4\n        /* \"@openzeppelin/contracts/token/ERC20/ERC20.sol\":5680:5685  value */\n      dup4\n        /* \"@openzeppelin/contracts/token/ERC20/ERC20.sol\":5662:5669  _update */\n      tag_390\n        /* \"@openzeppelin/contracts/token/ERC20/ERC20.sol\":5662:5686  _update(from, to, value) */\n      jump\t// in\n        /* \"@openzeppelin/contracts/access/Ownable.sol\":2912:3099  function _transferOwnership(address newOwner) internal virtual {... */\n    tag_221:\n        /* \"@openzeppelin/contracts/access/Ownable.sol\":3004:3010  _owner */\n      0x05\n      dup1\n      sload\n      sub(shl(0xa0, 0x01), 0x01)\n        /* \"@openzeppelin/contracts/access/Ownable.sol\":3020:3037  _owner = newOwner */\n      dup4\n      dup2\n      and\n      not(sub(shl(0xa0, 0x01), 0x01))\n      dup4\n      and\n      dup2\n      or\n      swap1\n      swap4\n      sstore\n        /* \"@openzeppelin/contracts/access/Ownable.sol\":3052:3092  OwnershipTransferred(oldOwner, newOwner) */\n      mload(0x40)\n        /* \"@openzeppelin/contracts/access/Ownable.sol\":3004:3010  _owner */\n      swap2\n      and\n      swap2\n        /* \"@openzeppelin/contracts/access/Ownable.sol\":3020:3037  _owner = newOwner */\n      swap1\n        /* \"@openzeppelin/contracts/access/Ownable.sol\":3004:3010  _owner */\n      dup3\n      swap1\n        /* \"@openzeppelin/contracts/access/Ownable.sol\":3052:3092  OwnershipTransferred(oldOwner, newOwner) */\n      0x8be0079c531659141344cd1fd0a4f28419497f9722a3daafe3b4186f6b6457e0\n      swap1\n        /* \"@openzeppelin/contracts/access/Ownable.sol\":2985:3001  address oldOwner */\n      0x00\n      swap1\n        /* \"@openzeppelin/contracts/access/Ownable.sol\":3052:3092  OwnershipTransferred(oldOwner, newOwner) */\n      log3\n        /* \"@openzeppelin/contracts/access/Ownable.sol\":2975:3099  {... */\n      pop\n        /* \"@openzeppelin/contracts/access/Ownable.sol\":2912:3099  function _transferOwnership(address newOwner) internal virtual {... */\n      pop\n      jump\t// out\n        /* \"src/eStock.sol\":6921:7480  function updateUserCommission(address user) internal {... */\n    tag_231:\n        /* \"src/eStock.sol\":6984:7001  uint256 userStock */\n      0x00\n        /* \"src/eStock.sol\":7004:7019  balanceOf(user) */\n      tag_393\n        /* \"src/eStock.sol\":7014:7018  user */\n      dup3\n        /* \"src/eStock.sol\":7004:7013  balanceOf */\n      tag_92\n        /* \"src/eStock.sol\":7004:7019  balanceOf(user) */\n      jump\t// in\n    tag_393:\n        /* \"src/eStock.sol\":6984:7019  uint256 userStock = balanceOf(user) */\n      swap1\n      pop\n        /* \"src/eStock.sol\":7029:7047  uint256 totalStock */\n      0x00\n        /* \"src/eStock.sol\":7050:7063  totalSupply() */\n      tag_394\n        /* \"@openzeppelin/contracts/token/ERC20/ERC20.sol\":2927:2939  _totalSupply */\n      sload(0x02)\n      swap1\n        /* \"@openzeppelin/contracts/token/ERC20/ERC20.sol\":2849:2946  function totalSupply() public view virtual returns (uint256) {... */\n      jump\n        /* \"src/eStock.sol\":7050:7063  totalSupply() */\n    tag_394:\n        /* \"src/eStock.sol\":7029:7063  uint256 totalStock = totalSupply() */\n      swap1\n      pop\n        /* \"src/eStock.sol\":7077:7091  userStock == 0 */\n      dup2\n      iszero\n      dup1\n        /* \"src/eStock.sol\":7077:7110  userStock == 0 || totalStock == 0 */\n      tag_395\n      jumpi\n      pop\n        /* \"src/eStock.sol\":7095:7110  totalStock == 0 */\n      dup1\n      iszero\n        /* \"src/eStock.sol\":7077:7110  userStock == 0 || totalStock == 0 */\n    tag_395:\n        /* \"src/eStock.sol\":7073:7119  if (userStock == 0 || totalStock == 0) return; */\n      iszero\n      tag_396\n      jumpi\n        /* \"src/eStock.sol\":7112:7119  return; */\n      pop\n      pop\n        /* \"src/eStock.sol\":6921:7480  function updateUserCommission(address user) internal {... */\n      pop\n      jump\t// out\n        /* \"src/eStock.sol\":7073:7119  if (userStock == 0 || totalStock == 0) return; */\n    tag_396:\n      sub(shl(0xa0, 0x01), 0x01)\n        /* \"src/eStock.sol\":7225:7252  lastTotalUSDTReceived[user] */\n      dup4\n      and\n        /* \"src/eStock.sol\":7185:7202  uint256 newProfit */\n      0x00\n        /* \"src/eStock.sol\":7225:7252  lastTotalUSDTReceived[user] */\n      swap1\n      dup2\n      mstore\n        /* \"src/eStock.sol\":7225:7246  lastTotalUSDTReceived */\n      0x11\n        /* \"src/eStock.sol\":7225:7252  lastTotalUSDTReceived[user] */\n      0x20\n      mstore\n      0x40\n      dup2\n      keccak256\n      sload\n        /* \"src/eStock.sol\":7205:7222  totalUSDTReceived */\n      sload(0x0d)\n        /* \"src/eStock.sol\":7205:7252  totalUSDTReceived - lastTotalUSDTReceived[user] */\n      tag_397\n      swap2\n        /* \"src/eStock.sol\":7225:7252  lastTotalUSDTReceived[user] */\n      swap1\n        /* \"src/eStock.sol\":7205:7252  totalUSDTReceived - lastTotalUSDTReceived[user] */\n      tag_254\n      jump\t// in\n    tag_397:\n        /* \"src/eStock.sol\":7185:7252  uint256 newProfit = totalUSDTReceived - lastTotalUSDTReceived[user] */\n      swap1\n      pop\n        /* \"src/eStock.sol\":7262:7280  uint256 userProfit */\n      0x00\n        /* \"src/eStock.sol\":7309:7319  totalStock */\n      dup3\n        /* \"src/eStock.sol\":7284:7305  newProfit * userStock */\n      tag_398\n        /* \"src/eStock.sol\":7296:7305  userStock */\n      dup6\n        /* \"src/eStock.sol\":7185:7252  uint256 newProfit = totalUSDTReceived - lastTotalUSDTReceived[user] */\n      dup5\n        /* \"src/eStock.sol\":7284:7305  newProfit * userStock */\n      tag_283\n      jump\t// in\n    tag_398:\n        /* \"src/eStock.sol\":7283:7319  (newProfit * userStock) / totalStock */\n      tag_399\n      swap2\n      swap1\n      tag_285\n      jump\t// in\n    tag_399:\n      sub(shl(0xa0, 0x01), 0x01)\n        /* \"src/eStock.sol\":7330:7351  userUSDTBalance[user] */\n      dup7\n      and\n      0x00\n      swap1\n      dup2\n      mstore\n        /* \"src/eStock.sol\":7330:7345  userUSDTBalance */\n      0x0f\n        /* \"src/eStock.sol\":7330:7351  userUSDTBalance[user] */\n      0x20\n      mstore\n      0x40\n      dup2\n      keccak256\n        /* \"src/eStock.sol\":7330:7365  userUSDTBalance[user] += userProfit */\n      dup1\n      sload\n        /* \"src/eStock.sol\":7262:7319  uint256 userProfit = (newProfit * userStock) / totalStock */\n      swap3\n      swap4\n      pop\n      dup4\n      swap3\n        /* \"src/eStock.sol\":7330:7351  userUSDTBalance[user] */\n      swap1\n      swap2\n      swap1\n        /* \"src/eStock.sol\":7330:7365  userUSDTBalance[user] += userProfit */\n      tag_400\n      swap1\n        /* \"src/eStock.sol\":7262:7319  uint256 userProfit = (newProfit * userStock) / totalStock */\n      dup5\n      swap1\n        /* \"src/eStock.sol\":7330:7365  userUSDTBalance[user] += userProfit */\n      tag_208\n      jump\t// in\n    tag_400:\n      swap1\n      swap2\n      sstore\n      pop\n      pop\n        /* \"src/eStock.sol\":7456:7473  totalUSDTReceived */\n      sload(0x0d)\n      sub(shl(0xa0, 0x01), 0x01)\n        /* \"src/eStock.sol\":7426:7453  lastTotalUSDTReceived[user] */\n      swap1\n      swap6\n      and\n      0x00\n      swap1\n      dup2\n      mstore\n        /* \"src/eStock.sol\":7426:7447  lastTotalUSDTReceived */\n      0x11\n        /* \"src/eStock.sol\":7426:7453  lastTotalUSDTReceived[user] */\n      0x20\n      mstore\n      0x40\n      swap1\n      keccak256\n        /* \"src/eStock.sol\":7426:7473  lastTotalUSDTReceived[user] = totalUSDTReceived */\n      swap5\n      swap1\n      swap5\n      sstore\n      pop\n      pop\n      pop\n      pop\n        /* \"src/eStock.sol\":6921:7480  function updateUserCommission(address user) internal {... */\n      jump\t// out\n        /* \"@openzeppelin/contracts/token/ERC20/ERC20.sol\":9701:10133  function _approve(address owner, address spender, uint256 value, bool emitEvent) internal virtual {... */\n    tag_370:\n      sub(shl(0xa0, 0x01), 0x01)\n        /* \"@openzeppelin/contracts/token/ERC20/ERC20.sol\":9813:9832  owner == address(0) */\n      dup5\n      and\n        /* \"@openzeppelin/contracts/token/ERC20/ERC20.sol\":9809:9898  if (owner == address(0)) {... */\n      tag_402\n      jumpi\n        /* \"@openzeppelin/contracts/token/ERC20/ERC20.sol\":9884:9885  0 */\n      0x00\n        /* \"@openzeppelin/contracts/token/ERC20/ERC20.sol\":9855:9887  ERC20InvalidApprover(address(0)) */\n      mload(0x40)\n      shl(0xe0, 0xe602df05)\n      dup2\n      mstore\n      0x04\n      add\n      tag_192\n      swap2\n      swap1\n      tag_105\n      jump\t// in\n        /* \"@openzeppelin/contracts/token/ERC20/ERC20.sol\":9809:9898  if (owner == address(0)) {... */\n    tag_402:\n      sub(shl(0xa0, 0x01), 0x01)\n        /* \"@openzeppelin/contracts/token/ERC20/ERC20.sol\":9911:9932  spender == address(0) */\n      dup4\n      and\n        /* \"@openzeppelin/contracts/token/ERC20/ERC20.sol\":9907:9997  if (spender == address(0)) {... */\n      tag_404\n      jumpi\n        /* \"@openzeppelin/contracts/token/ERC20/ERC20.sol\":9983:9984  0 */\n      0x00\n        /* \"@openzeppelin/contracts/token/ERC20/ERC20.sol\":9955:9986  ERC20InvalidSpender(address(0)) */\n      mload(0x40)\n      shl(0xe1, 0x4a1406b1)\n      dup2\n      mstore\n      0x04\n      add\n      tag_192\n      swap2\n      swap1\n      tag_105\n      jump\t// in\n        /* \"@openzeppelin/contracts/token/ERC20/ERC20.sol\":9907:9997  if (spender == address(0)) {... */\n    tag_404:\n      sub(shl(0xa0, 0x01), 0x01)\n        /* \"@openzeppelin/contracts/token/ERC20/ERC20.sol\":10006:10024  _allowances[owner] */\n      dup1\n      dup6\n      and\n      0x00\n      swap1\n      dup2\n      mstore\n        /* \"@openzeppelin/contracts/token/ERC20/ERC20.sol\":10006:10017  _allowances */\n      0x01\n        /* \"@openzeppelin/contracts/token/ERC20/ERC20.sol\":10006:10024  _allowances[owner] */\n      0x20\n      swap1\n      dup2\n      mstore\n      0x40\n      dup1\n      dup4\n      keccak256\n        /* \"@openzeppelin/contracts/token/ERC20/ERC20.sol\":10006:10033  _allowances[owner][spender] */\n      swap4\n      dup8\n      and\n      dup4\n      mstore\n      swap3\n      swap1\n      mstore\n      keccak256\n        /* \"@openzeppelin/contracts/token/ERC20/ERC20.sol\":10006:10041  _allowances[owner][spender] = value */\n      dup3\n      swap1\n      sstore\n        /* \"@openzeppelin/contracts/token/ERC20/ERC20.sol\":10051:10127  if (emitEvent) {... */\n      dup1\n      iszero\n      tag_383\n      jumpi\n        /* \"@openzeppelin/contracts/token/ERC20/ERC20.sol\":10101:10108  spender */\n      dup3\n      sub(shl(0xa0, 0x01), 0x01)\n        /* \"@openzeppelin/contracts/token/ERC20/ERC20.sol\":10085:10116  Approval(owner, spender, value) */\n      and\n        /* \"@openzeppelin/contracts/token/ERC20/ERC20.sol\":10094:10099  owner */\n      dup5\n      sub(shl(0xa0, 0x01), 0x01)\n        /* \"@openzeppelin/contracts/token/ERC20/ERC20.sol\":10085:10116  Approval(owner, spender, value) */\n      and\n      0x8c5be1e5ebec7d5bd14f71427d1e84f3dd0314c0f7b2291e5b200ac8c7c3b925\n        /* \"@openzeppelin/contracts/token/ERC20/ERC20.sol\":10110:10115  value */\n      dup5\n        /* \"@openzeppelin/contracts/token/ERC20/ERC20.sol\":10085:10116  Approval(owner, spender, value) */\n      mload(0x40)\n      tag_407\n      swap2\n        /* \"#utility.yul\":160:185   */\n      dup2\n      mstore\n        /* \"#utility.yul\":148:150   */\n      0x20\n        /* \"#utility.yul\":133:151   */\n      add\n      swap1\n        /* \"#utility.yul\":14:191   */\n      jump\n        /* \"@openzeppelin/contracts/token/ERC20/ERC20.sol\":10085:10116  Approval(owner, spender, value) */\n    tag_407:\n      mload(0x40)\n      dup1\n      swap2\n      sub\n      swap1\n      log3\n        /* \"@openzeppelin/contracts/token/ERC20/ERC20.sol\":9701:10133  function _approve(address owner, address spender, uint256 value, bool emitEvent) internal virtual {... */\n      pop\n      pop\n      pop\n      pop\n      jump\t// out\n        /* \"@openzeppelin/contracts/token/ERC20/ERC20.sol\":6008:7115  function _update(address from, address to, uint256 value) internal virtual {... */\n    tag_390:\n      sub(shl(0xa0, 0x01), 0x01)\n        /* \"@openzeppelin/contracts/token/ERC20/ERC20.sol\":6097:6115  from == address(0) */\n      dup4\n      and\n        /* \"@openzeppelin/contracts/token/ERC20/ERC20.sol\":6093:6633  if (from == address(0)) {... */\n      tag_409\n      jumpi\n        /* \"@openzeppelin/contracts/token/ERC20/ERC20.sol\":6249:6254  value */\n      dup1\n        /* \"@openzeppelin/contracts/token/ERC20/ERC20.sol\":6233:6245  _totalSupply */\n      0x02\n      0x00\n        /* \"@openzeppelin/contracts/token/ERC20/ERC20.sol\":6233:6254  _totalSupply += value */\n      dup3\n      dup3\n      sload\n      tag_410\n      swap2\n      swap1\n      tag_208\n      jump\t// in\n    tag_410:\n      swap1\n      swap2\n      sstore\n      pop\n        /* \"@openzeppelin/contracts/token/ERC20/ERC20.sol\":6093:6633  if (from == address(0)) {... */\n      tag_411\n      swap1\n      pop\n      jump\n    tag_409:\n      sub(shl(0xa0, 0x01), 0x01)\n        /* \"@openzeppelin/contracts/token/ERC20/ERC20.sol\":6307:6322  _balances[from] */\n      dup4\n      and\n        /* \"@openzeppelin/contracts/token/ERC20/ERC20.sol\":6285:6304  uint256 fromBalance */\n      0x00\n        /* \"@openzeppelin/contracts/token/ERC20/ERC20.sol\":6307:6322  _balances[from] */\n      swap1\n      dup2\n      mstore\n      0x20\n      dup2\n      swap1\n      mstore\n      0x40\n      swap1\n      keccak256\n      sload\n        /* \"@openzeppelin/contracts/token/ERC20/ERC20.sol\":6340:6359  fromBalance < value */\n      dup2\n      dup2\n      lt\n        /* \"@openzeppelin/contracts/token/ERC20/ERC20.sol\":6336:6451  if (fromBalance < value) {... */\n      iszero\n      tag_412\n      jumpi\n        /* \"@openzeppelin/contracts/token/ERC20/ERC20.sol\":6411:6415  from */\n      dup4\n        /* \"@openzeppelin/contracts/token/ERC20/ERC20.sol\":6417:6428  fromBalance */\n      dup2\n        /* \"@openzeppelin/contracts/token/ERC20/ERC20.sol\":6430:6435  value */\n      dup4\n        /* \"@openzeppelin/contracts/token/ERC20/ERC20.sol\":6386:6436  ERC20InsufficientBalance(from, fromBalance, value) */\n      mload(0x40)\n      shl(0xe2, 0x391434e3)\n      dup2\n      mstore\n      0x04\n      add\n      tag_192\n      swap4\n      swap3\n      swap2\n      swap1\n      tag_382\n      jump\t// in\n        /* \"@openzeppelin/contracts/token/ERC20/ERC20.sol\":6336:6451  if (fromBalance < value) {... */\n    tag_412:\n      sub(shl(0xa0, 0x01), 0x01)\n        /* \"@openzeppelin/contracts/token/ERC20/ERC20.sol\":6571:6586  _balances[from] */\n      dup5\n      and\n        /* \"@openzeppelin/contracts/token/ERC20/ERC20.sol\":6571:6580  _balances */\n      0x00\n        /* \"@openzeppelin/contracts/token/ERC20/ERC20.sol\":6571:6586  _balances[from] */\n      swap1\n      dup2\n      mstore\n      0x20\n      dup2\n      swap1\n      mstore\n      0x40\n      swap1\n      keccak256\n        /* \"@openzeppelin/contracts/token/ERC20/ERC20.sol\":6589:6608  fromBalance - value */\n      swap1\n      dup3\n      swap1\n      sub\n        /* \"@openzeppelin/contracts/token/ERC20/ERC20.sol\":6571:6608  _balances[from] = fromBalance - value */\n      swap1\n      sstore\n        /* \"@openzeppelin/contracts/token/ERC20/ERC20.sol\":6093:6633  if (from == address(0)) {... */\n    tag_411:\n      sub(shl(0xa0, 0x01), 0x01)\n        /* \"@openzeppelin/contracts/token/ERC20/ERC20.sol\":6647:6663  to == address(0) */\n      dup3\n      and\n        /* \"@openzeppelin/contracts/token/ERC20/ERC20.sol\":6643:7068  if (to == address(0)) {... */\n      tag_414\n      jumpi\n        /* \"@openzeppelin/contracts/token/ERC20/ERC20.sol\":6810:6822  _totalSupply */\n      0x02\n        /* \"@openzeppelin/contracts/token/ERC20/ERC20.sol\":6810:6831  _totalSupply -= value */\n      dup1\n      sload\n      dup3\n      swap1\n      sub\n      swap1\n      sstore\n        /* \"@openzeppelin/contracts/token/ERC20/ERC20.sol\":6643:7068  if (to == address(0)) {... */\n      jump(tag_415)\n    tag_414:\n      sub(shl(0xa0, 0x01), 0x01)\n        /* \"@openzeppelin/contracts/token/ERC20/ERC20.sol\":7021:7034  _balances[to] */\n      dup3\n      and\n        /* \"@openzeppelin/contracts/token/ERC20/ERC20.sol\":7021:7030  _balances */\n      0x00\n        /* \"@openzeppelin/contracts/token/ERC20/ERC20.sol\":7021:7034  _balances[to] */\n      swap1\n      dup2\n      mstore\n      0x20\n      dup2\n      swap1\n      mstore\n      0x40\n      swap1\n      keccak256\n        /* \"@openzeppelin/contracts/token/ERC20/ERC20.sol\":7021:7043  _balances[to] += value */\n      dup1\n      sload\n      dup3\n      add\n      swap1\n      sstore\n        /* \"@openzeppelin/contracts/token/ERC20/ERC20.sol\":6643:7068  if (to == address(0)) {... */\n    tag_415:\n        /* \"@openzeppelin/contracts/token/ERC20/ERC20.sol\":7098:7100  to */\n      dup2\n      sub(shl(0xa0, 0x01), 0x01)\n        /* \"@openzeppelin/contracts/token/ERC20/ERC20.sol\":7083:7108  Transfer(from, to, value) */\n      and\n        /* \"@openzeppelin/contracts/token/ERC20/ERC20.sol\":7092:7096  from */\n      dup4\n      sub(shl(0xa0, 0x01), 0x01)\n        /* \"@openzeppelin/contracts/token/ERC20/ERC20.sol\":7083:7108  Transfer(from, to, value) */\n      and\n      0xddf252ad1be2c89b69c2b068fc378daa952ba7f163c4a11628f55a4df523b3ef\n        /* \"@openzeppelin/contracts/token/ERC20/ERC20.sol\":7102:7107  value */\n      dup4\n        /* \"@openzeppelin/contracts/token/ERC20/ERC20.sol\":7083:7108  Transfer(from, to, value) */\n      mload(0x40)\n      tag_416\n      swap2\n        /* \"#utility.yul\":160:185   */\n      dup2\n      mstore\n        /* \"#utility.yul\":148:150   */\n      0x20\n        /* \"#utility.yul\":133:151   */\n      add\n      swap1\n        /* \"#utility.yul\":14:191   */\n      jump\n        /* \"@openzeppelin/contracts/token/ERC20/ERC20.sol\":7083:7108  Transfer(from, to, value) */\n    tag_416:\n      mload(0x40)\n      dup1\n      swap2\n      sub\n      swap1\n      log3\n        /* \"@openzeppelin/contracts/token/ERC20/ERC20.sol\":6008:7115  function _update(address from, address to, uint256 value) internal virtual {... */\n      pop\n      pop\n      pop\n      jump\t// out\n        /* \"#utility.yul\":196:614   */\n    tag_44:\n        /* \"#utility.yul\":345:347   */\n      0x20\n        /* \"#utility.yul\":334:343   */\n      dup2\n        /* \"#utility.yul\":327:348   */\n      mstore\n        /* \"#utility.yul\":308:312   */\n      0x00\n        /* \"#utility.yul\":377:383   */\n      dup3\n        /* \"#utility.yul\":371:384   */\n      mload\n        /* \"#utility.yul\":420:426   */\n      dup1\n        /* \"#utility.yul\":415:417   */\n      0x20\n        /* \"#utility.yul\":404:413   */\n      dup5\n        /* \"#utility.yul\":400:418   */\n      add\n        /* \"#utility.yul\":393:427   */\n      mstore\n        /* \"#utility.yul\":479:485   */\n      dup1\n        /* \"#utility.yul\":474:476   */\n      0x20\n        /* \"#utility.yul\":466:472   */\n      dup6\n        /* \"#utility.yul\":462:477   */\n      add\n        /* \"#utility.yul\":457:459   */\n      0x40\n        /* \"#utility.yul\":446:455   */\n      dup6\n        /* \"#utility.yul\":442:460   */\n      add\n        /* \"#utility.yul\":436:486   */\n      mcopy\n        /* \"#utility.yul\":535:536   */\n      0x00\n        /* \"#utility.yul\":530:532   */\n      0x40\n        /* \"#utility.yul\":521:527   */\n      dup3\n        /* \"#utility.yul\":510:519   */\n      dup6\n        /* \"#utility.yul\":506:528   */\n      add\n        /* \"#utility.yul\":502:533   */\n      add\n        /* \"#utility.yul\":495:537   */\n      mstore\n        /* \"#utility.yul\":605:607   */\n      0x40\n        /* \"#utility.yul\":598:600   */\n      0x1f\n        /* \"#utility.yul\":594:601   */\n      not\n        /* \"#utility.yul\":589:591   */\n      0x1f\n        /* \"#utility.yul\":581:587   */\n      dup4\n        /* \"#utility.yul\":577:592   */\n      add\n        /* \"#utility.yul\":573:602   */\n      and\n        /* \"#utility.yul\":562:571   */\n      dup5\n        /* \"#utility.yul\":558:603   */\n      add\n        /* \"#utility.yul\":554:608   */\n      add\n        /* \"#utility.yul\":546:608   */\n      swap2\n      pop\n      pop\n        /* \"#utility.yul\":196:614   */\n      swap3\n      swap2\n      pop\n      pop\n      jump\t// out\n        /* \"#utility.yul\":619:750   */\n    tag_417:\n      sub(shl(0xa0, 0x01), 0x01)\n        /* \"#utility.yul\":694:725   */\n      dup2\n      and\n        /* \"#utility.yul\":684:726   */\n      dup2\n      eq\n        /* \"#utility.yul\":674:744   */\n      tag_179\n      jumpi\n        /* \"#utility.yul\":740:741   */\n      0x00\n        /* \"#utility.yul\":737:738   */\n      dup1\n        /* \"#utility.yul\":730:742   */\n      revert\n        /* \"#utility.yul\":755:1122   */\n    tag_47:\n        /* \"#utility.yul\":823:829   */\n      0x00\n        /* \"#utility.yul\":831:837   */\n      dup1\n        /* \"#utility.yul\":884:886   */\n      0x40\n        /* \"#utility.yul\":872:881   */\n      dup4\n        /* \"#utility.yul\":863:870   */\n      dup6\n        /* \"#utility.yul\":859:882   */\n      sub\n        /* \"#utility.yul\":855:887   */\n      slt\n        /* \"#utility.yul\":852:904   */\n      iszero\n      tag_425\n      jumpi\n        /* \"#utility.yul\":900:901   */\n      0x00\n        /* \"#utility.yul\":897:898   */\n      dup1\n        /* \"#utility.yul\":890:902   */\n      revert\n        /* \"#utility.yul\":852:904   */\n    tag_425:\n        /* \"#utility.yul\":939:948   */\n      dup3\n        /* \"#utility.yul\":926:949   */\n      calldataload\n        /* \"#utility.yul\":958:989   */\n      tag_426\n        /* \"#utility.yul\":983:988   */\n      dup2\n        /* \"#utility.yul\":958:989   */\n      tag_417\n      jump\t// in\n    tag_426:\n        /* \"#utility.yul\":1008:1013   */\n      swap5\n        /* \"#utility.yul\":1086:1088   */\n      0x20\n        /* \"#utility.yul\":1071:1089   */\n      swap4\n      swap1\n      swap4\n      add\n        /* \"#utility.yul\":1058:1090   */\n      calldataload\n      swap4\n      pop\n      pop\n      pop\n        /* \"#utility.yul\":755:1122   */\n      jump\t// out\n        /* \"#utility.yul\":1319:1566   */\n    tag_53:\n        /* \"#utility.yul\":1378:1384   */\n      0x00\n        /* \"#utility.yul\":1431:1433   */\n      0x20\n        /* \"#utility.yul\":1419:1428   */\n      dup3\n        /* \"#utility.yul\":1410:1417   */\n      dup5\n        /* \"#utility.yul\":1406:1429   */\n      sub\n        /* \"#utility.yul\":1402:1434   */\n      slt\n        /* \"#utility.yul\":1399:1451   */\n      iszero\n      tag_429\n      jumpi\n        /* \"#utility.yul\":1447:1448   */\n      0x00\n        /* \"#utility.yul\":1444:1445   */\n      dup1\n        /* \"#utility.yul\":1437:1449   */\n      revert\n        /* \"#utility.yul\":1399:1451   */\n    tag_429:\n        /* \"#utility.yul\":1486:1495   */\n      dup2\n        /* \"#utility.yul\":1473:1496   */\n      calldataload\n        /* \"#utility.yul\":1505:1536   */\n      tag_430\n        /* \"#utility.yul\":1530:1535   */\n      dup2\n        /* \"#utility.yul\":1505:1536   */\n      tag_417\n      jump\t// in\n    tag_430:\n        /* \"#utility.yul\":1555:1560   */\n      swap4\n        /* \"#utility.yul\":1319:1566   */\n      swap3\n      pop\n      pop\n      pop\n      jump\t// out\n        /* \"#utility.yul\":1571:2079   */\n    tag_62:\n        /* \"#utility.yul\":1648:1654   */\n      0x00\n        /* \"#utility.yul\":1656:1662   */\n      dup1\n        /* \"#utility.yul\":1664:1670   */\n      0x00\n        /* \"#utility.yul\":1717:1719   */\n      0x60\n        /* \"#utility.yul\":1705:1714   */\n      dup5\n        /* \"#utility.yul\":1696:1703   */\n      dup7\n        /* \"#utility.yul\":1692:1715   */\n      sub\n        /* \"#utility.yul\":1688:1720   */\n      slt\n        /* \"#utility.yul\":1685:1737   */\n      iszero\n      tag_432\n      jumpi\n        /* \"#utility.yul\":1733:1734   */\n      0x00\n        /* \"#utility.yul\":1730:1731   */\n      dup1\n        /* \"#utility.yul\":1723:1735   */\n      revert\n        /* \"#utility.yul\":1685:1737   */\n    tag_432:\n        /* \"#utility.yul\":1772:1781   */\n      dup4\n        /* \"#utility.yul\":1759:1782   */\n      calldataload\n        /* \"#utility.yul\":1791:1822   */\n      tag_433\n        /* \"#utility.yul\":1816:1821   */\n      dup2\n        /* \"#utility.yul\":1791:1822   */\n      tag_417\n      jump\t// in\n    tag_433:\n        /* \"#utility.yul\":1841:1846   */\n      swap3\n      pop\n        /* \"#utility.yul\":1898:1900   */\n      0x20\n        /* \"#utility.yul\":1883:1901   */\n      dup5\n      add\n        /* \"#utility.yul\":1870:1902   */\n      calldataload\n        /* \"#utility.yul\":1911:1944   */\n      tag_434\n        /* \"#utility.yul\":1870:1902   */\n      dup2\n        /* \"#utility.yul\":1911:1944   */\n      tag_417\n      jump\t// in\n    tag_434:\n        /* \"#utility.yul\":1571:2079   */\n      swap3\n      swap6\n        /* \"#utility.yul\":1963:1970   */\n      swap3\n      swap5\n      pop\n      pop\n      pop\n        /* \"#utility.yul\":2043:2045   */\n      0x40\n        /* \"#utility.yul\":2028:2046   */\n      swap2\n      swap1\n      swap2\n      add\n        /* \"#utility.yul\":2015:2047   */\n      calldataload\n      swap1\n        /* \"#utility.yul\":1571:2079   */\n      jump\t// out\n        /* \"#utility.yul\":2084:2310   */\n    tag_67:\n        /* \"#utility.yul\":2143:2149   */\n      0x00\n        /* \"#utility.yul\":2196:2198   */\n      0x20\n        /* \"#utility.yul\":2184:2193   */\n      dup3\n        /* \"#utility.yul\":2175:2182   */\n      dup5\n        /* \"#utility.yul\":2171:2194   */\n      sub\n        /* \"#utility.yul\":2167:2199   */\n      slt\n        /* \"#utility.yul\":2164:2216   */\n      iszero\n      tag_436\n      jumpi\n        /* \"#utility.yul\":2212:2213   */\n      0x00\n        /* \"#utility.yul\":2209:2210   */\n      dup1\n        /* \"#utility.yul\":2202:2214   */\n      revert\n        /* \"#utility.yul\":2164:2216   */\n    tag_436:\n      pop\n        /* \"#utility.yul\":2257:2280   */\n      calldataload\n      swap2\n        /* \"#utility.yul\":2084:2310   */\n      swap1\n      pop\n      jump\t// out\n        /* \"#utility.yul\":2504:2707   */\n    tag_105:\n      sub(shl(0xa0, 0x01), 0x01)\n        /* \"#utility.yul\":2668:2700   */\n      swap2\n      swap1\n      swap2\n      and\n        /* \"#utility.yul\":2650:2701   */\n      dup2\n      mstore\n        /* \"#utility.yul\":2638:2640   */\n      0x20\n        /* \"#utility.yul\":2623:2641   */\n      add\n      swap1\n        /* \"#utility.yul\":2504:2707   */\n      jump\t// out\n        /* \"#utility.yul\":3176:3522   */\n    tag_134:\n        /* \"#utility.yul\":3244:3250   */\n      0x00\n        /* \"#utility.yul\":3252:3258   */\n      dup1\n        /* \"#utility.yul\":3305:3307   */\n      0x40\n        /* \"#utility.yul\":3293:3302   */\n      dup4\n        /* \"#utility.yul\":3284:3291   */\n      dup6\n        /* \"#utility.yul\":3280:3303   */\n      sub\n        /* \"#utility.yul\":3276:3308   */\n      slt\n        /* \"#utility.yul\":3273:3325   */\n      iszero\n      tag_442\n      jumpi\n        /* \"#utility.yul\":3321:3322   */\n      0x00\n        /* \"#utility.yul\":3318:3319   */\n      dup1\n        /* \"#utility.yul\":3311:3323   */\n      revert\n        /* \"#utility.yul\":3273:3325   */\n    tag_442:\n      pop\n      pop\n        /* \"#utility.yul\":3366:3389   */\n      dup1\n      calldataload\n      swap3\n        /* \"#utility.yul\":3486:3488   */\n      0x20\n        /* \"#utility.yul\":3471:3489   */\n      swap1\n      swap2\n      add\n        /* \"#utility.yul\":3458:3490   */\n      calldataload\n      swap2\n      pop\n        /* \"#utility.yul\":3176:3522   */\n      jump\t// out\n        /* \"#utility.yul\":3527:3915   */\n    tag_151:\n        /* \"#utility.yul\":3595:3601   */\n      0x00\n        /* \"#utility.yul\":3603:3609   */\n      dup1\n        /* \"#utility.yul\":3656:3658   */\n      0x40\n        /* \"#utility.yul\":3644:3653   */\n      dup4\n        /* \"#utility.yul\":3635:3642   */\n      dup6\n        /* \"#utility.yul\":3631:3654   */\n      sub\n        /* \"#utility.yul\":3627:3659   */\n      slt\n        /* \"#utility.yul\":3624:3676   */\n      iszero\n      tag_444\n      jumpi\n        /* \"#utility.yul\":3672:3673   */\n      0x00\n        /* \"#utility.yul\":3669:3670   */\n      dup1\n        /* \"#utility.yul\":3662:3674   */\n      revert\n        /* \"#utility.yul\":3624:3676   */\n    tag_444:\n        /* \"#utility.yul\":3711:3720   */\n      dup3\n        /* \"#utility.yul\":3698:3721   */\n      calldataload\n        /* \"#utility.yul\":3730:3761   */\n      tag_445\n        /* \"#utility.yul\":3755:3760   */\n      dup2\n        /* \"#utility.yul\":3730:3761   */\n      tag_417\n      jump\t// in\n    tag_445:\n        /* \"#utility.yul\":3780:3785   */\n      swap2\n      pop\n        /* \"#utility.yul\":3837:3839   */\n      0x20\n        /* \"#utility.yul\":3822:3840   */\n      dup4\n      add\n        /* \"#utility.yul\":3809:3841   */\n      calldataload\n        /* \"#utility.yul\":3850:3883   */\n      tag_446\n        /* \"#utility.yul\":3809:3841   */\n      dup2\n        /* \"#utility.yul\":3850:3883   */\n      tag_417\n      jump\t// in\n    tag_446:\n        /* \"#utility.yul\":3902:3909   */\n      dup1\n        /* \"#utility.yul\":3892:3909   */\n      swap2\n      pop\n      pop\n        /* \"#utility.yul\":3527:3915   */\n      swap3\n      pop\n      swap3\n      swap1\n      pop\n      jump\t// out\n        /* \"#utility.yul\":3920:4300   */\n    tag_159:\n        /* \"#utility.yul\":3999:4000   */\n      0x01\n        /* \"#utility.yul\":3995:4007   */\n      dup2\n      dup2\n      shr\n      swap1\n        /* \"#utility.yul\":4042:4054   */\n      dup3\n      and\n      dup1\n        /* \"#utility.yul\":4063:4124   */\n      tag_448\n      jumpi\n        /* \"#utility.yul\":4117:4121   */\n      0x7f\n        /* \"#utility.yul\":4109:4115   */\n      dup3\n        /* \"#utility.yul\":4105:4122   */\n      and\n        /* \"#utility.yul\":4095:4122   */\n      swap2\n      pop\n        /* \"#utility.yul\":4063:4124   */\n    tag_448:\n        /* \"#utility.yul\":4170:4172   */\n      0x20\n        /* \"#utility.yul\":4162:4168   */\n      dup3\n        /* \"#utility.yul\":4159:4173   */\n      lt\n        /* \"#utility.yul\":4139:4157   */\n      dup2\n        /* \"#utility.yul\":4136:4174   */\n      sub\n        /* \"#utility.yul\":4133:4294   */\n      tag_449\n      jumpi\n        /* \"#utility.yul\":4216:4226   */\n      0x4e487b71\n        /* \"#utility.yul\":4211:4214   */\n      0xe0\n        /* \"#utility.yul\":4207:4227   */\n      shl\n        /* \"#utility.yul\":4204:4205   */\n      0x00\n        /* \"#utility.yul\":4197:4228   */\n      mstore\n        /* \"#utility.yul\":4251:4255   */\n      0x22\n        /* \"#utility.yul\":4248:4249   */\n      0x04\n        /* \"#utility.yul\":4241:4256   */\n      mstore\n        /* \"#utility.yul\":4279:4283   */\n      0x24\n        /* \"#utility.yul\":4276:4277   */\n      0x00\n        /* \"#utility.yul\":4269:4284   */\n      revert\n        /* \"#utility.yul\":4133:4294   */\n    tag_449:\n      pop\n        /* \"#utility.yul\":3920:4300   */\n      swap2\n      swap1\n      pop\n      jump\t// out\n        /* \"#utility.yul\":4305:4489   */\n    tag_178:\n        /* \"#utility.yul\":4375:4381   */\n      0x00\n        /* \"#utility.yul\":4428:4430   */\n      0x20\n        /* \"#utility.yul\":4416:4425   */\n      dup3\n        /* \"#utility.yul\":4407:4414   */\n      dup5\n        /* \"#utility.yul\":4403:4426   */\n      sub\n        /* \"#utility.yul\":4399:4431   */\n      slt\n        /* \"#utility.yul\":4396:4448   */\n      iszero\n      tag_451\n      jumpi\n        /* \"#utility.yul\":4444:4445   */\n      0x00\n        /* \"#utility.yul\":4441:4442   */\n      dup1\n        /* \"#utility.yul\":4434:4446   */\n      revert\n        /* \"#utility.yul\":4396:4448   */\n    tag_451:\n      pop\n        /* \"#utility.yul\":4467:4483   */\n      mload\n      swap2\n        /* \"#utility.yul\":4305:4489   */\n      swap1\n      pop\n      jump\t// out\n        /* \"#utility.yul\":4494:4745   */\n    tag_183:\n        /* \"#utility.yul\":4564:4570   */\n      0x00\n        /* \"#utility.yul\":4617:4619   */\n      0x20\n        /* \"#utility.yul\":4605:4614   */\n      dup3\n        /* \"#utility.yul\":4596:4603   */\n      dup5\n        /* \"#utility.yul\":4592:4615   */\n      sub\n        /* \"#utility.yul\":4588:4620   */\n      slt\n        /* \"#utility.yul\":4585:4637   */\n      iszero\n      tag_453\n      jumpi\n        /* \"#utility.yul\":4633:4634   */\n      0x00\n        /* \"#utility.yul\":4630:4631   */\n      dup1\n        /* \"#utility.yul\":4623:4635   */\n      revert\n        /* \"#utility.yul\":4585:4637   */\n    tag_453:\n        /* \"#utility.yul\":4665:4674   */\n      dup2\n        /* \"#utility.yul\":4659:4675   */\n      mload\n        /* \"#utility.yul\":4684:4715   */\n      tag_430\n        /* \"#utility.yul\":4709:4714   */\n      dup2\n        /* \"#utility.yul\":4684:4715   */\n      tag_417\n      jump\t// in\n        /* \"#utility.yul\":5093:5446   */\n    tag_197:\n        /* \"#utility.yul\":5295:5297   */\n      0x20\n        /* \"#utility.yul\":5277:5298   */\n      dup1\n      dup3\n      mstore\n        /* \"#utility.yul\":5334:5336   */\n      0x1d\n        /* \"#utility.yul\":5314:5332   */\n      swap1\n      dup3\n      add\n        /* \"#utility.yul\":5307:5337   */\n      mstore\n        /* \"#utility.yul\":5373:5404   */\n      0x416d6f756e74206d7573742062652067726561746572207468616e2030000000\n        /* \"#utility.yul\":5368:5370   */\n      0x40\n        /* \"#utility.yul\":5353:5371   */\n      dup3\n      add\n        /* \"#utility.yul\":5346:5405   */\n      mstore\n        /* \"#utility.yul\":5437:5439   */\n      0x60\n        /* \"#utility.yul\":5422:5440   */\n      add\n      swap1\n        /* \"#utility.yul\":5093:5446   */\n      jump\t// out\n        /* \"#utility.yul\":5451:5822   */\n    tag_199:\n      sub(shl(0xa0, 0x01), 0x01)\n        /* \"#utility.yul\":5671:5703   */\n      swap4\n      dup5\n      and\n        /* \"#utility.yul\":5653:5704   */\n      dup2\n      mstore\n        /* \"#utility.yul\":5740:5772   */\n      swap2\n      swap1\n      swap3\n      and\n        /* \"#utility.yul\":5735:5737   */\n      0x20\n        /* \"#utility.yul\":5720:5738   */\n      dup3\n      add\n        /* \"#utility.yul\":5713:5773   */\n      mstore\n        /* \"#utility.yul\":5804:5806   */\n      0x40\n        /* \"#utility.yul\":5789:5807   */\n      dup2\n      add\n        /* \"#utility.yul\":5782:5816   */\n      swap2\n      swap1\n      swap2\n      mstore\n        /* \"#utility.yul\":5641:5643   */\n      0x60\n        /* \"#utility.yul\":5626:5644   */\n      add\n      swap1\n        /* \"#utility.yul\":5451:5822   */\n      jump\t// out\n        /* \"#utility.yul\":5827:6104   */\n    tag_203:\n        /* \"#utility.yul\":5894:5900   */\n      0x00\n        /* \"#utility.yul\":5947:5949   */\n      0x20\n        /* \"#utility.yul\":5935:5944   */\n      dup3\n        /* \"#utility.yul\":5926:5933   */\n      dup5\n        /* \"#utility.yul\":5922:5945   */\n      sub\n        /* \"#utility.yul\":5918:5950   */\n      slt\n        /* \"#utility.yul\":5915:5967   */\n      iszero\n      tag_459\n      jumpi\n        /* \"#utility.yul\":5963:5964   */\n      0x00\n        /* \"#utility.yul\":5960:5961   */\n      dup1\n        /* \"#utility.yul\":5953:5965   */\n      revert\n        /* \"#utility.yul\":5915:5967   */\n    tag_459:\n        /* \"#utility.yul\":5995:6004   */\n      dup2\n        /* \"#utility.yul\":5989:6005   */\n      mload\n        /* \"#utility.yul\":6048:6053   */\n      dup1\n        /* \"#utility.yul\":6041:6054   */\n      iszero\n        /* \"#utility.yul\":6034:6055   */\n      iszero\n        /* \"#utility.yul\":6027:6032   */\n      dup2\n        /* \"#utility.yul\":6024:6056   */\n      eq\n        /* \"#utility.yul\":6014:6074   */\n      tag_430\n      jumpi\n        /* \"#utility.yul\":6070:6071   */\n      0x00\n        /* \"#utility.yul\":6067:6068   */\n      dup1\n        /* \"#utility.yul\":6060:6072   */\n      revert\n        /* \"#utility.yul\":6109:6453   */\n    tag_206:\n        /* \"#utility.yul\":6311:6313   */\n      0x20\n        /* \"#utility.yul\":6293:6314   */\n      dup1\n      dup3\n      mstore\n        /* \"#utility.yul\":6350:6352   */\n      0x14\n        /* \"#utility.yul\":6330:6348   */\n      swap1\n      dup3\n      add\n        /* \"#utility.yul\":6323:6353   */\n      mstore\n      shl(0x62, 0x1554d115081d1c985b9cd9995c8819985a5b1959)\n        /* \"#utility.yul\":6384:6386   */\n      0x40\n        /* \"#utility.yul\":6369:6387   */\n      dup3\n      add\n        /* \"#utility.yul\":6362:6412   */\n      mstore\n        /* \"#utility.yul\":6444:6446   */\n      0x60\n        /* \"#utility.yul\":6429:6447   */\n      add\n      swap1\n        /* \"#utility.yul\":6109:6453   */\n      jump\t// out\n        /* \"#utility.yul\":6458:6585   */\n    tag_418:\n        /* \"#utility.yul\":6519:6529   */\n      0x4e487b71\n        /* \"#utility.yul\":6514:6517   */\n      0xe0\n        /* \"#utility.yul\":6510:6530   */\n      shl\n        /* \"#utility.yul\":6507:6508   */\n      0x00\n        /* \"#utility.yul\":6500:6531   */\n      mstore\n        /* \"#utility.yul\":6550:6554   */\n      0x11\n        /* \"#utility.yul\":6547:6548   */\n      0x04\n        /* \"#utility.yul\":6540:6555   */\n      mstore\n        /* \"#utility.yul\":6574:6578   */\n      0x24\n        /* \"#utility.yul\":6571:6572   */\n      0x00\n        /* \"#utility.yul\":6564:6579   */\n      revert\n        /* \"#utility.yul\":6590:6715   */\n    tag_208:\n        /* \"#utility.yul\":6655:6664   */\n      dup1\n      dup3\n      add\n        /* \"#utility.yul\":6676:6686   */\n      dup1\n      dup3\n      gt\n        /* \"#utility.yul\":6673:6709   */\n      iszero\n      tag_164\n      jumpi\n        /* \"#utility.yul\":6689:6707   */\n      tag_164\n      tag_418\n      jump\t// in\n        /* \"#utility.yul\":8886:9014   */\n    tag_254:\n        /* \"#utility.yul\":8953:8962   */\n      dup2\n      dup2\n      sub\n        /* \"#utility.yul\":8974:8985   */\n      dup2\n      dup2\n      gt\n        /* \"#utility.yul\":8971:9008   */\n      iszero\n      tag_164\n      jumpi\n        /* \"#utility.yul\":8988:9006   */\n      tag_164\n      tag_418\n      jump\t// in\n        /* \"#utility.yul\":9373:9647   */\n    tag_262:\n      sub(shl(0xa0, 0x01), 0x01)\n        /* \"#utility.yul\":9565:9597   */\n      swap3\n      swap1\n      swap3\n      and\n        /* \"#utility.yul\":9547:9598   */\n      dup3\n      mstore\n        /* \"#utility.yul\":9629:9631   */\n      0x20\n        /* \"#utility.yul\":9614:9632   */\n      dup3\n      add\n        /* \"#utility.yul\":9607:9641   */\n      mstore\n        /* \"#utility.yul\":9535:9537   */\n      0x40\n        /* \"#utility.yul\":9520:9538   */\n      add\n      swap1\n        /* \"#utility.yul\":9373:9647   */\n      jump\t// out\n        /* \"#utility.yul\":10962:11130   */\n    tag_283:\n        /* \"#utility.yul\":11035:11044   */\n      dup1\n      dup3\n      mul\n        /* \"#utility.yul\":11066:11075   */\n      dup2\n      iszero\n        /* \"#utility.yul\":11083:11098   */\n      dup3\n      dup3\n      div\n        /* \"#utility.yul\":11077:11099   */\n      dup5\n      eq\n        /* \"#utility.yul\":11063:11100   */\n      or\n        /* \"#utility.yul\":11053:11124   */\n      tag_164\n      jumpi\n        /* \"#utility.yul\":11104:11122   */\n      tag_164\n      tag_418\n      jump\t// in\n        /* \"#utility.yul\":11135:11352   */\n    tag_285:\n        /* \"#utility.yul\":11175:11176   */\n      0x00\n        /* \"#utility.yul\":11201:11202   */\n      dup3\n        /* \"#utility.yul\":11191:11323   */\n      tag_482\n      jumpi\n        /* \"#utility.yul\":11245:11255   */\n      0x4e487b71\n        /* \"#utility.yul\":11240:11243   */\n      0xe0\n        /* \"#utility.yul\":11236:11256   */\n      shl\n        /* \"#utility.yul\":11233:11234   */\n      0x00\n        /* \"#utility.yul\":11226:11257   */\n      mstore\n        /* \"#utility.yul\":11280:11284   */\n      0x12\n        /* \"#utility.yul\":11277:11278   */\n      0x04\n        /* \"#utility.yul\":11270:11285   */\n      mstore\n        /* \"#utility.yul\":11308:11312   */\n      0x24\n        /* \"#utility.yul\":11305:11306   */\n      0x00\n        /* \"#utility.yul\":11298:11313   */\n      revert\n        /* \"#utility.yul\":11191:11323   */\n    tag_482:\n      pop\n        /* \"#utility.yul\":11337:11346   */\n      div\n      swap1\n        /* \"#utility.yul\":11135:11352   */\n      jump\t// out\n        /* \"#utility.yul\":14602:14947   */\n    tag_382:\n      sub(shl(0xa0, 0x01), 0x01)\n        /* \"#utility.yul\":14822:14854   */\n      swap4\n      swap1\n      swap4\n      and\n        /* \"#utility.yul\":14804:14855   */\n      dup4\n      mstore\n        /* \"#utility.yul\":14886:14888   */\n      0x20\n        /* \"#utility.yul\":14871:14889   */\n      dup4\n      add\n        /* \"#utility.yul\":14864:14898   */\n      swap2\n      swap1\n      swap2\n      mstore\n        /* \"#utility.yul\":14929:14931   */\n      0x40\n        /* \"#utility.yul\":14914:14932   */\n      dup3\n      add\n        /* \"#utility.yul\":14907:14941   */\n      mstore\n        /* \"#utility.yul\":14792:14794   */\n      0x60\n        /* \"#utility.yul\":14777:14795   */\n      add\n      swap1\n        /* \"#utility.yul\":14602:14947   */\n      jump\t// out\n    stop\n    data_bdc1c0965d326ef5f7fae07f33d96253771f5accc3ca72afa2bb5903a6f5bd8b b0bd88cdae83f74f918eb6bf26d99dcb3c1530530f339233b029e3b6a00ac50b\n\n    auxdata: 0xa2646970667358221220ea4145d4dc7faf94f70f4760b006724a1827115f157d15433c2370bed12f95f164736f6c634300081a0033\n}\n",
				"bytecode": {
					"linkReferences": {},
					"object": "608060405234801561000f575f80fd5b506040516122b33803806122b383398101604081905261002e91610472565b338787600361003d8382610599565b50600461004a8282610599565b5050506001600160a01b03811661007f575f604051631e4fbdf760e01b81526004016100769190610653565b60405180910390fd5b610088816100f6565b506100a8336100996012600a610760565b6100a39088610775565b610147565b600a849055600b839055600980546001600160a01b038085166001600160a01b03199283161790925560068054928416929091169190911790556100ea61017f565b505050505050506107cf565b600580546001600160a01b038381166001600160a01b0319831681179093556040519116919082907f8be0079c531659141344cd1fd0a4f28419497f9722a3daafe3b4186f6b6457e0905f90a35050565b6001600160a01b038216610170575f60405163ec442f0560e01b81526004016100769190610653565b61017b5f8383610294565b5050565b60065460408051636ee8db3f60e11b815290515f926001600160a01b03169163ddd1b67e9160048083019260209291908290030181865afa1580156101c6573d5f803e3d5ffd5b505050506040513d601f19601f820116820180604052508101906101ea919061078c565b90506008548111156102915760065f9054906101000a90046001600160a01b03166001600160a01b03166327ebec606040518163ffffffff1660e01b81526004016020604051808303815f875af1158015610247573d5f803e3d5ffd5b505050506040513d601f19601f8201168201806040525081019061026b91906107a3565b600780546001600160a01b0319166001600160a01b039290921691909117905560088190555b50565b6001600160a01b0383166102be578060025f8282546102b391906107bc565b9091555061032e9050565b6001600160a01b0383165f90815260208190526040902054818110156103105760405163391434e360e21b81526001600160a01b03851660048201526024810182905260448101839052606401610076565b6001600160a01b0384165f9081526020819052604090209082900390555b6001600160a01b03821661034a57600280548290039055610368565b6001600160a01b0382165f9081526020819052604090208054820190555b816001600160a01b0316836001600160a01b03167fddf252ad1be2c89b69c2b068fc378daa952ba7f163c4a11628f55a4df523b3ef836040516103ad91815260200190565b60405180910390a3505050565b634e487b7160e01b5f52604160045260245ffd5b5f82601f8301126103dd575f80fd5b81516001600160401b038111156103f6576103f66103ba565b604051601f8201601f19908116603f011681016001600160401b0381118282101715610424576104246103ba565b60405281815283820160200185101561043b575f80fd5b8160208501602083015e5f918101602001919091529392505050565b80516001600160a01b038116811461046d575f80fd5b919050565b5f805f805f805f60e0888a031215610488575f80fd5b87516001600160401b0381111561049d575f80fd5b6104a98a828b016103ce565b60208a015190985090506001600160401b038111156104c6575f80fd5b6104d28a828b016103ce565b60408a015160608b015160808c0151929950909750955093506104f9905060a08901610457565b915061050760c08901610457565b905092959891949750929550565b600181811c9082168061052957607f821691505b60208210810361054757634e487b7160e01b5f52602260045260245ffd5b50919050565b601f82111561059457805f5260205f20601f840160051c810160208510156105725750805b601f840160051c820191505b81811015610591575f815560010161057e565b50505b505050565b81516001600160401b038111156105b2576105b26103ba565b6105c6816105c08454610515565b8461054d565b6020601f8211600181146105f8575f83156105e15750848201515b5f19600385901b1c1916600184901b178455610591565b5f84815260208120601f198516915b828110156106275787850151825560209485019460019092019101610607565b508482101561064457868401515f19600387901b60f8161c191681555b50505050600190811b01905550565b6001600160a01b0391909116815260200190565b634e487b7160e01b5f52601160045260245ffd5b6001815b60018411156106b65780850481111561069a5761069a610667565b60018416156106a857908102905b60019390931c92800261067f565b935093915050565b5f826106cc5750600161075a565b816106d857505f61075a565b81600181146106ee57600281146106f857610714565b600191505061075a565b60ff84111561070957610709610667565b50506001821b61075a565b5060208310610133831016604e8410600b8410161715610737575081810a61075a565b6107435f19848461067b565b805f190482111561075657610756610667565b0290505b92915050565b5f61076e60ff8416836106be565b9392505050565b808202811582820484141761075a5761075a610667565b5f6020828403121561079c575f80fd5b5051919050565b5f602082840312156107b3575f80fd5b61076e82610457565b8082018082111561075a5761075a610667565b611ad7806107dc5f395ff3fe608060405234801561000f575f80fd5b5060043610610194575f3560e01c8063068651511461019857806306fdde03146101b4578063095ea7b3146101c957806313d7281e146101ec57806318160ddd1461020157806320f1c0431461020957806323b872dd1461021157806329f94fb8146102245780633001511814610237578063313ce56714610256578063366a111414610265578063371047cd1461026e5780633ba0b9a91461028d57806345c914391461029657806370a082311461029f578063715018a6146102b257806373cb76ca146102ba57806388f6eac7146102c35780638a9731dd146102cc5780638da5cb5b146102ec57806395d89b41146102f4578063a0815a54146102fc578063a0de1c371461030f578063a196857914610317578063a9059cbb1461032a578063a98ad46c1461033d578063b0f9006a14610350578063b9303dbd14610363578063bb64477614610376578063be6172ce14610389578063c28c2670146103a8578063db068e0e146103bb578063dd62ed3e146103ce578063f2fde38b146103e1575b5f80fd5b6101a1600d5481565b6040519081526020015b60405180910390f35b6101bc6103f4565b6040516101ab9190611770565b6101dc6101d73660046117b9565b610484565b60405190151581526020016101ab565b6101ff6101fa3660046117e3565b61049d565b005b6002546101a1565b6101ff6104c7565b6101dc61021f366004611805565b6105dc565b6101ff610232366004611843565b6105ff565b6101a16102453660046117e3565b600f6020525f908152604090205481565b604051601281526020016101ab565b6101a1600b5481565b6101a161027c3660046117e3565b60116020525f908152604090205481565b6101a1600a5481565b6101a160085481565b6101a16102ad3660046117e3565b6107cf565b6101ff6107e9565b6101a1600e5481565b6101a1600c5481565b6007546102df906001600160a01b031681565b6040516101ab919061185a565b6102df6107fc565b6101bc61080b565b6012546102df906001600160a01b031681565b6101ff61081a565b6006546102df906001600160a01b031681565b6101dc6103383660046117b9565b6108ec565b6009546102df906001600160a01b031681565b6101ff61035e366004611843565b610a26565b6101ff61037136600461186e565b610c13565b6101ff610384366004611843565b6110f2565b6101a16103973660046117e3565b60106020525f908152604090205481565b6101ff6103b6366004611843565b611136565b6101ff6103c9366004611843565b61129a565b6101a16103dc36600461188e565b611324565b6101ff6103ef3660046117e3565b61134e565b606060038054610403906118c5565b80601f016020809104026020016040519081016040528092919081815260200182805461042f906118c5565b801561047a5780601f106104515761010080835404028352916020019161047a565b820191905f5260205f20905b81548152906001019060200180831161045d57829003601f168201915b5050505050905090565b5f33610491818585611388565b60019150505b92915050565b6104a561139a565b601280546001600160a01b0319166001600160a01b0392909216919091179055565b60065460408051636ee8db3f60e11b815290515f926001600160a01b03169163ddd1b67e9160048083019260209291908290030181865afa15801561050e573d5f803e3d5ffd5b505050506040513d601f19601f8201168201806040525081019061053291906118fd565b90506008548111156105d95760065f9054906101000a90046001600160a01b03166001600160a01b03166327ebec606040518163ffffffff1660e01b81526004016020604051808303815f875af115801561058f573d5f803e3d5ffd5b505050506040513d601f19601f820116820180604052508101906105b39190611914565b600780546001600160a01b0319166001600160a01b039290921691909117905560088190555b50565b5f336105e98582856113cc565b6105f485858561141d565b506001949350505050565b6012546001600160a01b0316331461064f5760405162461bcd60e51b815260206004820152600e60248201526d139bdd08185d5d1a1bdc9a5e995960921b60448201526064015b60405180910390fd5b5f811161066e5760405162461bcd60e51b81526004016106469061192f565b6009546040516323b872dd60e01b81526001600160a01b03909116906323b872dd906106a290339030908690600401611966565b6020604051808303815f875af11580156106be573d5f803e3d5ffd5b505050506040513d601f19601f820116820180604052508101906106e2919061198a565b6106fe5760405162461bcd60e51b8152600401610646906119a9565b80600d5f82825461070f91906119eb565b9091555050600754604051635587734160e11b8152608060048201526006608482015265149155d0549160d21b60a48201523360248201525f6044820152606481018390526001600160a01b039091169063ab0ee6829060c4015f604051808303815f87803b158015610780575f80fd5b505af1158015610792573d5f803e3d5ffd5b50506040518381523392507fb4a46c1bd84f6ead56b19bd0d3788d827200b4d73024081f1c083f904f68f21c91506020015b60405180910390a250565b6001600160a01b03165f9081526020819052604090205490565b6107f161139a565b6107fa5f61147a565b565b6005546001600160a01b031690565b606060048054610403906118c5565b610823336114cb565b600754335f818152600f6020526040808220549051635587734160e11b8152608060048201526008608482015267574954484452415760c01b60a48201526024810193909352604483019190915260648201526001600160a01b039091169063ab0ee6829060c4015f604051808303815f87803b1580156108a2575f80fd5b505af11580156108b4573d5f803e3d5ffd5b5050335f818152600f60209081526040918290205491519182529193505f80516020611a8283398151915292500160405180910390a2565b5f816108f7336107cf565b101561093a5760405162461bcd60e51b81526020600482015260126024820152714e6f7420656e6f7567682062616c616e636560701b6044820152606401610646565b610943336114cb565b61094c836114cb565b61095733848461141d565b600754604051635587734160e11b81526080600482015260086084820152672a2920a729a322a960c11b60a48201523360248201526001600160a01b038581166044830152606482018590529091169063ab0ee6829060c4015f604051808303815f87803b1580156109c7575f80fd5b505af11580156109d9573d5f803e3d5ffd5b50506040518481526001600160a01b03861692503391507f6bca8fa57973baecf480f0f784a6c6549e10cd7673db79b691a8051864dd29c99060200160405180910390a350600192915050565b335f90815260106020908152604080832054600f909252822054610a4a91906119fe565b90505f82118015610a5b5750808211155b610aa35760405162461bcd60e51b8152602060048201526019602482015278496e73756666696369656e7420555344542062616c616e636560381b6044820152606401610646565b335f9081526010602052604081208054849290610ac19084906119eb565b9250508190555081600e5f828254610ad991906119eb565b909155505060095460405163a9059cbb60e01b81526001600160a01b039091169063a9059cbb90610b109033908690600401611a11565b6020604051808303815f875af1158015610b2c573d5f803e3d5ffd5b505050506040513d601f19601f82011682018060405250810190610b50919061198a565b610b6c5760405162461bcd60e51b8152600401610646906119a9565b600754604051635587734160e11b8152608060048201526005608482015264434c41494d60d81b60a48201523360248201525f6044820152606481018490526001600160a01b039091169063ab0ee6829060c4015f604051808303815f87803b158015610bd7575f80fd5b505af1158015610be9573d5f803e3d5ffd5b50506040518481523392505f80516020611a82833981519152915060200160405180910390a25050565b5f8211610c605760405162461bcd60e51b815260206004820152601b60248201527a4d7573742073656e64205553445420746f206275792073746f636b60281b6044820152606401610646565b80600a5414610ca95760405162461bcd60e51b8152602060048201526015602482015274115e18da185b99d9481c985d194818da185b99d959605a1b6044820152606401610646565b610cb2336114cb565b5f6305f5e100600a5484610cc69190611a2a565b610cd09190611a41565b905080600b541015610d245760405162461bcd60e51b815260206004820152601d60248201527f4e6f7420656e6f7567682073746f636b20696e20746869732073616c650000006044820152606401610646565b80610d306102ad6107fc565b1015610d7b5760405162461bcd60e51b815260206004820152601a6024820152794e6f7420656e6f7567682073746f636b20617661696c61626c6560301b6044820152606401610646565b6009546040516370a0823160e01b81525f916001600160a01b0316906370a0823190610dab90309060040161185a565b602060405180830381865afa158015610dc6573d5f803e3d5ffd5b505050506040513d601f19601f82011682018060405250810190610dea91906118fd565b6009546040516323b872dd60e01b81529192506001600160a01b0316906323b872dd90610e1f90339030908990600401611966565b6020604051808303815f875af1158015610e3b573d5f803e3d5ffd5b505050506040513d601f19601f82011682018060405250810190610e5f919061198a565b610e7b5760405162461bcd60e51b8152600401610646906119a9565b6009546040516370a0823160e01b81525f9183916001600160a01b03909116906370a0823190610eaf90309060040161185a565b602060405180830381865afa158015610eca573d5f803e3d5ffd5b505050506040513d601f19601f82011682018060405250810190610eee91906118fd565b610ef891906119fe565b9050610f07620f4240866119fe565b8110158015610f225750610f1e85620f42406119eb565b8111155b610f6e5760405162461bcd60e51b815260206004820152601e60248201527f496e636f72726563742055534454207472616e7366657220616d6f756e7400006044820152606401610646565b84600c5f828254610f7f91906119eb565b9250508190555082600b5f828254610f9791906119fe565b90915550610faf9050610fa86107fc565b338561141d565b600754604051635587734160e11b815260806004820152600360848201526242555960e81b60a4820152336024820152306044820152606481018590526001600160a01b039091169063ab0ee6829060c4015f604051808303815f87803b158015611018575f80fd5b505af115801561102a573d5f803e3d5ffd5b5050600754604051635587734160e11b8152608060048083019190915260848201526314d1531360e21b60a4820152306024820152336044820152606481018990526001600160a01b03909116925063ab0ee682915060c4015f604051808303815f87803b15801561109a575f80fd5b505af11580156110ac573d5f803e3d5ffd5b505060408051868152602081018990523393507fc0bcdc28f6619d8ba6313614295a1f7b0477a1ad3f83ec463254630f3c5a306f92500160405180910390a25050505050565b6110fa61139a565b600b8190556040518181527fa1f96f7fa140217bc5d0a96ba383bef3818737e35a1f4017843a8bdd7862b86f906020015b60405180910390a150565b61113e61139a565b5f811161115d5760405162461bcd60e51b81526004016106469061192f565b600c548111156111af5760405162461bcd60e51b815260206004820152601e60248201527f4e6f7420656e6f75676820555344542066726f6d2070757263686173657300006044820152606401610646565b80600c5f8282546111c091906119fe565b90915550506009546001600160a01b031663a9059cbb6111de6107fc565b836040518363ffffffff1660e01b81526004016111fc929190611a11565b6020604051808303815f875af1158015611218573d5f803e3d5ffd5b505050506040513d601f19601f8201168201806040525081019061123c919061198a565b6112585760405162461bcd60e51b8152600401610646906119a9565b6112606107fc565b6001600160a01b03167ff8447aa22b3477c5230344f1eaacdb857516c66017e96d5f556345cdd1aca111826040516107c491815260200190565b6112a261139a565b5f81116112ef5760405162461bcd60e51b815260206004820152601b60248201527a052617465206d7573742062652067726561746572207468616e203602c1b6044820152606401610646565b600a8190556040518181527f388f446e9526fe5c9af20a5919b342370c8a7c0cb05245afe1e545658fa3cdba9060200161112b565b6001600160a01b039182165f90815260016020908152604080832093909416825291909152205490565b61135661139a565b6001600160a01b03811661137f575f604051631e4fbdf760e01b8152600401610646919061185a565b6105d98161147a565b611395838383600161158b565b505050565b336113a36107fc565b6001600160a01b0316146107fa573360405163118cdaa760e01b8152600401610646919061185a565b5f6113d78484611324565b90505f19811015611417578181101561140957828183604051637dc7a0d960e11b815260040161064693929190611a60565b61141784848484035f61158b565b50505050565b6001600160a01b038316611446575f604051634b637e8f60e11b8152600401610646919061185a565b6001600160a01b03821661146f575f60405163ec442f0560e01b8152600401610646919061185a565b61139583838361165d565b600580546001600160a01b038381166001600160a01b0319831681179093556040519116919082907f8be0079c531659141344cd1fd0a4f28419497f9722a3daafe3b4186f6b6457e0905f90a35050565b5f6114d5826107cf565b90505f6114e160025490565b90508115806114ee575080155b156114f857505050565b6001600160a01b0383165f90815260116020526040812054600d5461151d91906119fe565b90505f8261152b8584611a2a565b6115359190611a41565b6001600160a01b0386165f908152600f60205260408120805492935083929091906115619084906119eb565b9091555050600d546001600160a01b039095165f9081526011602052604090209490945550505050565b6001600160a01b0384166115b4575f60405163e602df0560e01b8152600401610646919061185a565b6001600160a01b0383166115dd575f604051634a1406b160e11b8152600401610646919061185a565b6001600160a01b038085165f908152600160209081526040808320938716835292905220829055801561141757826001600160a01b0316846001600160a01b03167f8c5be1e5ebec7d5bd14f71427d1e84f3dd0314c0f7b2291e5b200ac8c7c3b9258460405161164f91815260200190565b60405180910390a350505050565b6001600160a01b038316611687578060025f82825461167c91906119eb565b909155506116e49050565b6001600160a01b0383165f90815260208190526040902054818110156116c65783818360405163391434e360e21b815260040161064693929190611a60565b6001600160a01b0384165f9081526020819052604090209082900390555b6001600160a01b0382166117005760028054829003905561171e565b6001600160a01b0382165f9081526020819052604090208054820190555b816001600160a01b0316836001600160a01b03167fddf252ad1be2c89b69c2b068fc378daa952ba7f163c4a11628f55a4df523b3ef8360405161176391815260200190565b60405180910390a3505050565b602081525f82518060208401528060208501604085015e5f604082850101526040601f19601f83011684010191505092915050565b6001600160a01b03811681146105d9575f80fd5b5f80604083850312156117ca575f80fd5b82356117d5816117a5565b946020939093013593505050565b5f602082840312156117f3575f80fd5b81356117fe816117a5565b9392505050565b5f805f60608486031215611817575f80fd5b8335611822816117a5565b92506020840135611832816117a5565b929592945050506040919091013590565b5f60208284031215611853575f80fd5b5035919050565b6001600160a01b0391909116815260200190565b5f806040838503121561187f575f80fd5b50508035926020909101359150565b5f806040838503121561189f575f80fd5b82356118aa816117a5565b915060208301356118ba816117a5565b809150509250929050565b600181811c908216806118d957607f821691505b6020821081036118f757634e487b7160e01b5f52602260045260245ffd5b50919050565b5f6020828403121561190d575f80fd5b5051919050565b5f60208284031215611924575f80fd5b81516117fe816117a5565b6020808252601d908201527f416d6f756e74206d7573742062652067726561746572207468616e2030000000604082015260600190565b6001600160a01b039384168152919092166020820152604081019190915260600190565b5f6020828403121561199a575f80fd5b815180151581146117fe575f80fd5b6020808252601490820152731554d115081d1c985b9cd9995c8819985a5b195960621b604082015260600190565b634e487b7160e01b5f52601160045260245ffd5b80820180821115610497576104976119d7565b81810381811115610497576104976119d7565b6001600160a01b03929092168252602082015260400190565b8082028115828204841417610497576104976119d7565b5f82611a5b57634e487b7160e01b5f52601260045260245ffd5b500490565b6001600160a01b03939093168352602083019190915260408201526060019056feb0bd88cdae83f74f918eb6bf26d99dcb3c1530530f339233b029e3b6a00ac50ba2646970667358221220ea4145d4dc7faf94f70f4760b006724a1827115f157d15433c2370bed12f95f164736f6c634300081a0033",
					"opcodes": "PUSH1 0x80 PUSH1 0x40 MSTORE CALLVALUE DUP1 ISZERO PUSH2 0xF JUMPI PUSH0 DUP1 REVERT JUMPDEST POP PUSH1 0x40 MLOAD PUSH2 0x22B3 CODESIZE SUB DUP1 PUSH2 0x22B3 DUP4 CODECOPY DUP2 ADD PUSH1 0x40 DUP2 SWAP1 MSTORE PUSH2 0x2E SWAP2 PUSH2 0x472 JUMP JUMPDEST CALLER DUP8 DUP8 PUSH1 0x3 PUSH2 0x3D DUP4 DUP3 PUSH2 0x599 JUMP JUMPDEST POP PUSH1 0x4 PUSH2 0x4A DUP3 DUP3 PUSH2 0x599 JUMP JUMPDEST POP POP POP PUSH1 0x1 PUSH1 0x1 PUSH1 0xA0 SHL SUB DUP2 AND PUSH2 0x7F JUMPI PUSH0 PUSH1 0x40 MLOAD PUSH4 0x1E4FBDF7 PUSH1 0xE0 SHL DUP2 MSTORE PUSH1 0x4 ADD PUSH2 0x76 SWAP2 SWAP1 PUSH2 0x653 JUMP JUMPDEST PUSH1 0x40 MLOAD DUP1 SWAP2 SUB SWAP1 REVERT JUMPDEST PUSH2 0x88 DUP2 PUSH2 0xF6 JUMP JUMPDEST POP PUSH2 0xA8 CALLER PUSH2 0x99 PUSH1 0x12 PUSH1 0xA PUSH2 0x760 JUMP JUMPDEST PUSH2 0xA3 SWAP1 DUP9 PUSH2 0x775 JUMP JUMPDEST PUSH2 0x147 JUMP JUMPDEST PUSH1 0xA DUP5 SWAP1 SSTORE PUSH1 0xB DUP4 SWAP1 SSTORE PUSH1 0x9 DUP1 SLOAD PUSH1 0x1 PUSH1 0x1 PUSH1 0xA0 SHL SUB DUP1 DUP6 AND PUSH1 0x1 PUSH1 0x1 PUSH1 0xA0 SHL SUB NOT SWAP3 DUP4 AND OR SWAP1 SWAP3 SSTORE PUSH1 0x6 DUP1 SLOAD SWAP3 DUP5 AND SWAP3 SWAP1 SWAP2 AND SWAP2 SWAP1 SWAP2 OR SWAP1 SSTORE PUSH2 0xEA PUSH2 0x17F JUMP JUMPDEST POP POP POP POP POP POP POP PUSH2 0x7CF JUMP JUMPDEST PUSH1 0x5 DUP1 SLOAD PUSH1 0x1 PUSH1 0x1 PUSH1 0xA0 SHL SUB DUP4 DUP2 AND PUSH1 0x1 PUSH1 0x1 PUSH1 0xA0 SHL SUB NOT DUP4 AND DUP2 OR SWAP1 SWAP4 SSTORE PUSH1 0x40 MLOAD SWAP2 AND SWAP2 SWAP1 DUP3 SWAP1 PUSH32 0x8BE0079C531659141344CD1FD0A4F28419497F9722A3DAAFE3B4186F6B6457E0 SWAP1 PUSH0 SWAP1 LOG3 POP POP JUMP JUMPDEST PUSH1 0x1 PUSH1 0x1 PUSH1 0xA0 SHL SUB DUP3 AND PUSH2 0x170 JUMPI PUSH0 PUSH1 0x40 MLOAD PUSH4 0xEC442F05 PUSH1 0xE0 SHL DUP2 MSTORE PUSH1 0x4 ADD PUSH2 0x76 SWAP2 SWAP1 PUSH2 0x653 JUMP JUMPDEST PUSH2 0x17B PUSH0 DUP4 DUP4 PUSH2 0x294 JUMP JUMPDEST POP POP JUMP JUMPDEST PUSH1 0x6 SLOAD PUSH1 0x40 DUP1 MLOAD PUSH4 0x6EE8DB3F PUSH1 0xE1 SHL DUP2 MSTORE SWAP1 MLOAD PUSH0 SWAP3 PUSH1 0x1 PUSH1 0x1 PUSH1 0xA0 SHL SUB AND SWAP2 PUSH4 0xDDD1B67E SWAP2 PUSH1 0x4 DUP1 DUP4 ADD SWAP3 PUSH1 0x20 SWAP3 SWAP2 SWAP1 DUP3 SWAP1 SUB ADD DUP2 DUP7 GAS STATICCALL ISZERO DUP1 ISZERO PUSH2 0x1C6 JUMPI RETURNDATASIZE PUSH0 DUP1 RETURNDATACOPY RETURNDATASIZE PUSH0 REVERT JUMPDEST POP POP POP POP PUSH1 0x40 MLOAD RETURNDATASIZE PUSH1 0x1F NOT PUSH1 0x1F DUP3 ADD AND DUP3 ADD DUP1 PUSH1 0x40 MSTORE POP DUP2 ADD SWAP1 PUSH2 0x1EA SWAP2 SWAP1 PUSH2 0x78C JUMP JUMPDEST SWAP1 POP PUSH1 0x8 SLOAD DUP2 GT ISZERO PUSH2 0x291 JUMPI PUSH1 0x6 PUSH0 SWAP1 SLOAD SWAP1 PUSH2 0x100 EXP SWAP1 DIV PUSH1 0x1 PUSH1 0x1 PUSH1 0xA0 SHL SUB AND PUSH1 0x1 PUSH1 0x1 PUSH1 0xA0 SHL SUB AND PUSH4 0x27EBEC60 PUSH1 0x40 MLOAD DUP2 PUSH4 0xFFFFFFFF AND PUSH1 0xE0 SHL DUP2 MSTORE PUSH1 0x4 ADD PUSH1 0x20 PUSH1 0x40 MLOAD DUP1 DUP4 SUB DUP2 PUSH0 DUP8 GAS CALL ISZERO DUP1 ISZERO PUSH2 0x247 JUMPI RETURNDATASIZE PUSH0 DUP1 RETURNDATACOPY RETURNDATASIZE PUSH0 REVERT JUMPDEST POP POP POP POP PUSH1 0x40 MLOAD RETURNDATASIZE PUSH1 0x1F NOT PUSH1 0x1F DUP3 ADD AND DUP3 ADD DUP1 PUSH1 0x40 MSTORE POP DUP2 ADD SWAP1 PUSH2 0x26B SWAP2 SWAP1 PUSH2 0x7A3 JUMP JUMPDEST PUSH1 0x7 DUP1 SLOAD PUSH1 0x1 PUSH1 0x1 PUSH1 0xA0 SHL SUB NOT AND PUSH1 0x1 PUSH1 0x1 PUSH1 0xA0 SHL SUB SWAP3 SWAP1 SWAP3 AND SWAP2 SWAP1 SWAP2 OR SWAP1 SSTORE PUSH1 0x8 DUP2 SWAP1 SSTORE JUMPDEST POP JUMP JUMPDEST PUSH1 0x1 PUSH1 0x1 PUSH1 0xA0 SHL SUB DUP4 AND PUSH2 0x2BE JUMPI DUP1 PUSH1 0x2 PUSH0 DUP3 DUP3 SLOAD PUSH2 0x2B3 SWAP2 SWAP1 PUSH2 0x7BC JUMP JUMPDEST SWAP1 SWAP2 SSTORE POP PUSH2 0x32E SWAP1 POP JUMP JUMPDEST PUSH1 0x1 PUSH1 0x1 PUSH1 0xA0 SHL SUB DUP4 AND PUSH0 SWAP1 DUP2 MSTORE PUSH1 0x20 DUP2 SWAP1 MSTORE PUSH1 0x40 SWAP1 KECCAK256 SLOAD DUP2 DUP2 LT ISZERO PUSH2 0x310 JUMPI PUSH1 0x40 MLOAD PUSH4 0x391434E3 PUSH1 0xE2 SHL DUP2 MSTORE PUSH1 0x1 PUSH1 0x1 PUSH1 0xA0 SHL SUB DUP6 AND PUSH1 0x4 DUP3 ADD MSTORE PUSH1 0x24 DUP2 ADD DUP3 SWAP1 MSTORE PUSH1 0x44 DUP2 ADD DUP4 SWAP1 MSTORE PUSH1 0x64 ADD PUSH2 0x76 JUMP JUMPDEST PUSH1 0x1 PUSH1 0x1 PUSH1 0xA0 SHL SUB DUP5 AND PUSH0 SWAP1 DUP2 MSTORE PUSH1 0x20 DUP2 SWAP1 MSTORE PUSH1 0x40 SWAP1 KECCAK256 SWAP1 DUP3 SWAP1 SUB SWAP1 SSTORE JUMPDEST PUSH1 0x1 PUSH1 0x1 PUSH1 0xA0 SHL SUB DUP3 AND PUSH2 0x34A JUMPI PUSH1 0x2 DUP1 SLOAD DUP3 SWAP1 SUB SWAP1 SSTORE PUSH2 0x368 JUMP JUMPDEST PUSH1 0x1 PUSH1 0x1 PUSH1 0xA0 SHL SUB DUP3 AND PUSH0 SWAP1 DUP2 MSTORE PUSH1 0x20 DUP2 SWAP1 MSTORE PUSH1 0x40 SWAP1 KECCAK256 DUP1 SLOAD DUP3 ADD SWAP1 SSTORE JUMPDEST DUP2 PUSH1 0x1 PUSH1 0x1 PUSH1 0xA0 SHL SUB AND DUP4 PUSH1 0x1 PUSH1 0x1 PUSH1 0xA0 SHL SUB AND PUSH32 0xDDF252AD1BE2C89B69C2B068FC378DAA952BA7F163C4A11628F55A4DF523B3EF DUP4 PUSH1 0x40 MLOAD PUSH2 0x3AD SWAP2 DUP2 MSTORE PUSH1 0x20 ADD SWAP1 JUMP JUMPDEST PUSH1 0x40 MLOAD DUP1 SWAP2 SUB SWAP1 LOG3 POP POP POP JUMP JUMPDEST PUSH4 0x4E487B71 PUSH1 0xE0 SHL PUSH0 MSTORE PUSH1 0x41 PUSH1 0x4 MSTORE PUSH1 0x24 PUSH0 REVERT JUMPDEST PUSH0 DUP3 PUSH1 0x1F DUP4 ADD SLT PUSH2 0x3DD JUMPI PUSH0 DUP1 REVERT JUMPDEST DUP2 MLOAD PUSH1 0x1 PUSH1 0x1 PUSH1 0x40 SHL SUB DUP2 GT ISZERO PUSH2 0x3F6 JUMPI PUSH2 0x3F6 PUSH2 0x3BA JUMP JUMPDEST PUSH1 0x40 MLOAD PUSH1 0x1F DUP3 ADD PUSH1 0x1F NOT SWAP1 DUP2 AND PUSH1 0x3F ADD AND DUP2 ADD PUSH1 0x1 PUSH1 0x1 PUSH1 0x40 SHL SUB DUP2 GT DUP3 DUP3 LT OR ISZERO PUSH2 0x424 JUMPI PUSH2 0x424 PUSH2 0x3BA JUMP JUMPDEST PUSH1 0x40 MSTORE DUP2 DUP2 MSTORE DUP4 DUP3 ADD PUSH1 0x20 ADD DUP6 LT ISZERO PUSH2 0x43B JUMPI PUSH0 DUP1 REVERT JUMPDEST DUP2 PUSH1 0x20 DUP6 ADD PUSH1 0x20 DUP4 ADD MCOPY PUSH0 SWAP2 DUP2 ADD PUSH1 0x20 ADD SWAP2 SWAP1 SWAP2 MSTORE SWAP4 SWAP3 POP POP POP JUMP JUMPDEST DUP1 MLOAD PUSH1 0x1 PUSH1 0x1 PUSH1 0xA0 SHL SUB DUP2 AND DUP2 EQ PUSH2 0x46D JUMPI PUSH0 DUP1 REVERT JUMPDEST SWAP2 SWAP1 POP JUMP JUMPDEST PUSH0 DUP1 PUSH0 DUP1 PUSH0 DUP1 PUSH0 PUSH1 0xE0 DUP9 DUP11 SUB SLT ISZERO PUSH2 0x488 JUMPI PUSH0 DUP1 REVERT JUMPDEST DUP8 MLOAD PUSH1 0x1 PUSH1 0x1 PUSH1 0x40 SHL SUB DUP2 GT ISZERO PUSH2 0x49D JUMPI PUSH0 DUP1 REVERT JUMPDEST PUSH2 0x4A9 DUP11 DUP3 DUP12 ADD PUSH2 0x3CE JUMP JUMPDEST PUSH1 0x20 DUP11 ADD MLOAD SWAP1 SWAP9 POP SWAP1 POP PUSH1 0x1 PUSH1 0x1 PUSH1 0x40 SHL SUB DUP2 GT ISZERO PUSH2 0x4C6 JUMPI PUSH0 DUP1 REVERT JUMPDEST PUSH2 0x4D2 DUP11 DUP3 DUP12 ADD PUSH2 0x3CE JUMP JUMPDEST PUSH1 0x40 DUP11 ADD MLOAD PUSH1 0x60 DUP12 ADD MLOAD PUSH1 0x80 DUP13 ADD MLOAD SWAP3 SWAP10 POP SWAP1 SWAP8 POP SWAP6 POP SWAP4 POP PUSH2 0x4F9 SWAP1 POP PUSH1 0xA0 DUP10 ADD PUSH2 0x457 JUMP JUMPDEST SWAP2 POP PUSH2 0x507 PUSH1 0xC0 DUP10 ADD PUSH2 0x457 JUMP JUMPDEST SWAP1 POP SWAP3 SWAP6 SWAP9 SWAP2 SWAP5 SWAP8 POP SWAP3 SWAP6 POP JUMP JUMPDEST PUSH1 0x1 DUP2 DUP2 SHR SWAP1 DUP3 AND DUP1 PUSH2 0x529 JUMPI PUSH1 0x7F DUP3 AND SWAP2 POP JUMPDEST PUSH1 0x20 DUP3 LT DUP2 SUB PUSH2 0x547 JUMPI PUSH4 0x4E487B71 PUSH1 0xE0 SHL PUSH0 MSTORE PUSH1 0x22 PUSH1 0x4 MSTORE PUSH1 0x24 PUSH0 REVERT JUMPDEST POP SWAP2 SWAP1 POP JUMP JUMPDEST PUSH1 0x1F DUP3 GT ISZERO PUSH2 0x594 JUMPI DUP1 PUSH0 MSTORE PUSH1 0x20 PUSH0 KECCAK256 PUSH1 0x1F DUP5 ADD PUSH1 0x5 SHR DUP2 ADD PUSH1 0x20 DUP6 LT ISZERO PUSH2 0x572 JUMPI POP DUP1 JUMPDEST PUSH1 0x1F DUP5 ADD PUSH1 0x5 SHR DUP3 ADD SWAP2 POP JUMPDEST DUP2 DUP2 LT ISZERO PUSH2 0x591 JUMPI PUSH0 DUP2 SSTORE PUSH1 0x1 ADD PUSH2 0x57E JUMP JUMPDEST POP POP JUMPDEST POP POP POP JUMP JUMPDEST DUP2 MLOAD PUSH1 0x1 PUSH1 0x1 PUSH1 0x40 SHL SUB DUP2 GT ISZERO PUSH2 0x5B2 JUMPI PUSH2 0x5B2 PUSH2 0x3BA JUMP JUMPDEST PUSH2 0x5C6 DUP2 PUSH2 0x5C0 DUP5 SLOAD PUSH2 0x515 JUMP JUMPDEST DUP5 PUSH2 0x54D JUMP JUMPDEST PUSH1 0x20 PUSH1 0x1F DUP3 GT PUSH1 0x1 DUP2 EQ PUSH2 0x5F8 JUMPI PUSH0 DUP4 ISZERO PUSH2 0x5E1 JUMPI POP DUP5 DUP3 ADD MLOAD JUMPDEST PUSH0 NOT PUSH1 0x3 DUP6 SWAP1 SHL SHR NOT AND PUSH1 0x1 DUP5 SWAP1 SHL OR DUP5 SSTORE PUSH2 0x591 JUMP JUMPDEST PUSH0 DUP5 DUP2 MSTORE PUSH1 0x20 DUP2 KECCAK256 PUSH1 0x1F NOT DUP6 AND SWAP2 JUMPDEST DUP3 DUP2 LT ISZERO PUSH2 0x627 JUMPI DUP8 DUP6 ADD MLOAD DUP3 SSTORE PUSH1 0x20 SWAP5 DUP6 ADD SWAP5 PUSH1 0x1 SWAP1 SWAP3 ADD SWAP2 ADD PUSH2 0x607 JUMP JUMPDEST POP DUP5 DUP3 LT ISZERO PUSH2 0x644 JUMPI DUP7 DUP5 ADD MLOAD PUSH0 NOT PUSH1 0x3 DUP8 SWAP1 SHL PUSH1 0xF8 AND SHR NOT AND DUP2 SSTORE JUMPDEST POP POP POP POP PUSH1 0x1 SWAP1 DUP2 SHL ADD SWAP1 SSTORE POP JUMP JUMPDEST PUSH1 0x1 PUSH1 0x1 PUSH1 0xA0 SHL SUB SWAP2 SWAP1 SWAP2 AND DUP2 MSTORE PUSH1 0x20 ADD SWAP1 JUMP JUMPDEST PUSH4 0x4E487B71 PUSH1 0xE0 SHL PUSH0 MSTORE PUSH1 0x11 PUSH1 0x4 MSTORE PUSH1 0x24 PUSH0 REVERT JUMPDEST PUSH1 0x1 DUP2 JUMPDEST PUSH1 0x1 DUP5 GT ISZERO PUSH2 0x6B6 JUMPI DUP1 DUP6 DIV DUP2 GT ISZERO PUSH2 0x69A JUMPI PUSH2 0x69A PUSH2 0x667 JUMP JUMPDEST PUSH1 0x1 DUP5 AND ISZERO PUSH2 0x6A8 JUMPI SWAP1 DUP2 MUL SWAP1 JUMPDEST PUSH1 0x1 SWAP4 SWAP1 SWAP4 SHR SWAP3 DUP1 MUL PUSH2 0x67F JUMP JUMPDEST SWAP4 POP SWAP4 SWAP2 POP POP JUMP JUMPDEST PUSH0 DUP3 PUSH2 0x6CC JUMPI POP PUSH1 0x1 PUSH2 0x75A JUMP JUMPDEST DUP2 PUSH2 0x6D8 JUMPI POP PUSH0 PUSH2 0x75A JUMP JUMPDEST DUP2 PUSH1 0x1 DUP2 EQ PUSH2 0x6EE JUMPI PUSH1 0x2 DUP2 EQ PUSH2 0x6F8 JUMPI PUSH2 0x714 JUMP JUMPDEST PUSH1 0x1 SWAP2 POP POP PUSH2 0x75A JUMP JUMPDEST PUSH1 0xFF DUP5 GT ISZERO PUSH2 0x709 JUMPI PUSH2 0x709 PUSH2 0x667 JUMP JUMPDEST POP POP PUSH1 0x1 DUP3 SHL PUSH2 0x75A JUMP JUMPDEST POP PUSH1 0x20 DUP4 LT PUSH2 0x133 DUP4 LT AND PUSH1 0x4E DUP5 LT PUSH1 0xB DUP5 LT AND OR ISZERO PUSH2 0x737 JUMPI POP DUP2 DUP2 EXP PUSH2 0x75A JUMP JUMPDEST PUSH2 0x743 PUSH0 NOT DUP5 DUP5 PUSH2 0x67B JUMP JUMPDEST DUP1 PUSH0 NOT DIV DUP3 GT ISZERO PUSH2 0x756 JUMPI PUSH2 0x756 PUSH2 0x667 JUMP JUMPDEST MUL SWAP1 POP JUMPDEST SWAP3 SWAP2 POP POP JUMP JUMPDEST PUSH0 PUSH2 0x76E PUSH1 0xFF DUP5 AND DUP4 PUSH2 0x6BE JUMP JUMPDEST SWAP4 SWAP3 POP POP POP JUMP JUMPDEST DUP1 DUP3 MUL DUP2 ISZERO DUP3 DUP3 DIV DUP5 EQ OR PUSH2 0x75A JUMPI PUSH2 0x75A PUSH2 0x667 JUMP JUMPDEST PUSH0 PUSH1 0x20 DUP3 DUP5 SUB SLT ISZERO PUSH2 0x79C JUMPI PUSH0 DUP1 REVERT JUMPDEST POP MLOAD SWAP2 SWAP1 POP JUMP JUMPDEST PUSH0 PUSH1 0x20 DUP3 DUP5 SUB SLT ISZERO PUSH2 0x7B3 JUMPI PUSH0 DUP1 REVERT JUMPDEST PUSH2 0x76E DUP3 PUSH2 0x457 JUMP JUMPDEST DUP1 DUP3 ADD DUP1 DUP3 GT ISZERO PUSH2 0x75A JUMPI PUSH2 0x75A PUSH2 0x667 JUMP JUMPDEST PUSH2 0x1AD7 DUP1 PUSH2 0x7DC PUSH0 CODECOPY PUSH0 RETURN INVALID PUSH1 0x80 PUSH1 0x40 MSTORE CALLVALUE DUP1 ISZERO PUSH2 0xF JUMPI PUSH0 DUP1 REVERT JUMPDEST POP PUSH1 0x4 CALLDATASIZE LT PUSH2 0x194 JUMPI PUSH0 CALLDATALOAD PUSH1 0xE0 SHR DUP1 PUSH4 0x6865151 EQ PUSH2 0x198 JUMPI DUP1 PUSH4 0x6FDDE03 EQ PUSH2 0x1B4 JUMPI DUP1 PUSH4 0x95EA7B3 EQ PUSH2 0x1C9 JUMPI DUP1 PUSH4 0x13D7281E EQ PUSH2 0x1EC JUMPI DUP1 PUSH4 0x18160DDD EQ PUSH2 0x201 JUMPI DUP1 PUSH4 0x20F1C043 EQ PUSH2 0x209 JUMPI DUP1 PUSH4 0x23B872DD EQ PUSH2 0x211 JUMPI DUP1 PUSH4 0x29F94FB8 EQ PUSH2 0x224 JUMPI DUP1 PUSH4 0x30015118 EQ PUSH2 0x237 JUMPI DUP1 PUSH4 0x313CE567 EQ PUSH2 0x256 JUMPI DUP1 PUSH4 0x366A1114 EQ PUSH2 0x265 JUMPI DUP1 PUSH4 0x371047CD EQ PUSH2 0x26E JUMPI DUP1 PUSH4 0x3BA0B9A9 EQ PUSH2 0x28D JUMPI DUP1 PUSH4 0x45C91439 EQ PUSH2 0x296 JUMPI DUP1 PUSH4 0x70A08231 EQ PUSH2 0x29F JUMPI DUP1 PUSH4 0x715018A6 EQ PUSH2 0x2B2 JUMPI DUP1 PUSH4 0x73CB76CA EQ PUSH2 0x2BA JUMPI DUP1 PUSH4 0x88F6EAC7 EQ PUSH2 0x2C3 JUMPI DUP1 PUSH4 0x8A9731DD EQ PUSH2 0x2CC JUMPI DUP1 PUSH4 0x8DA5CB5B EQ PUSH2 0x2EC JUMPI DUP1 PUSH4 0x95D89B41 EQ PUSH2 0x2F4 JUMPI DUP1 PUSH4 0xA0815A54 EQ PUSH2 0x2FC JUMPI DUP1 PUSH4 0xA0DE1C37 EQ PUSH2 0x30F JUMPI DUP1 PUSH4 0xA1968579 EQ PUSH2 0x317 JUMPI DUP1 PUSH4 0xA9059CBB EQ PUSH2 0x32A JUMPI DUP1 PUSH4 0xA98AD46C EQ PUSH2 0x33D JUMPI DUP1 PUSH4 0xB0F9006A EQ PUSH2 0x350 JUMPI DUP1 PUSH4 0xB9303DBD EQ PUSH2 0x363 JUMPI DUP1 PUSH4 0xBB644776 EQ PUSH2 0x376 JUMPI DUP1 PUSH4 0xBE6172CE EQ PUSH2 0x389 JUMPI DUP1 PUSH4 0xC28C2670 EQ PUSH2 0x3A8 JUMPI DUP1 PUSH4 0xDB068E0E EQ PUSH2 0x3BB JUMPI DUP1 PUSH4 0xDD62ED3E EQ PUSH2 0x3CE JUMPI DUP1 PUSH4 0xF2FDE38B EQ PUSH2 0x3E1 JUMPI JUMPDEST PUSH0 DUP1 REVERT JUMPDEST PUSH2 0x1A1 PUSH1 0xD SLOAD DUP2 JUMP JUMPDEST PUSH1 0x40 MLOAD SWAP1 DUP2 MSTORE PUSH1 0x20 ADD JUMPDEST PUSH1 0x40 MLOAD DUP1 SWAP2 SUB SWAP1 RETURN JUMPDEST PUSH2 0x1BC PUSH2 0x3F4 JUMP JUMPDEST PUSH1 0x40 MLOAD PUSH2 0x1AB SWAP2 SWAP1 PUSH2 0x1770 JUMP JUMPDEST PUSH2 0x1DC PUSH2 0x1D7 CALLDATASIZE PUSH1 0x4 PUSH2 0x17B9 JUMP JUMPDEST PUSH2 0x484 JUMP JUMPDEST PUSH1 0x40 MLOAD SWAP1 ISZERO ISZERO DUP2 MSTORE PUSH1 0x20 ADD PUSH2 0x1AB JUMP JUMPDEST PUSH2 0x1FF PUSH2 0x1FA CALLDATASIZE PUSH1 0x4 PUSH2 0x17E3 JUMP JUMPDEST PUSH2 0x49D JUMP JUMPDEST STOP JUMPDEST PUSH1 0x2 SLOAD PUSH2 0x1A1 JUMP JUMPDEST PUSH2 0x1FF PUSH2 0x4C7 JUMP JUMPDEST PUSH2 0x1DC PUSH2 0x21F CALLDATASIZE PUSH1 0x4 PUSH2 0x1805 JUMP JUMPDEST PUSH2 0x5DC JUMP JUMPDEST PUSH2 0x1FF PUSH2 0x232 CALLDATASIZE PUSH1 0x4 PUSH2 0x1843 JUMP JUMPDEST PUSH2 0x5FF JUMP JUMPDEST PUSH2 0x1A1 PUSH2 0x245 CALLDATASIZE PUSH1 0x4 PUSH2 0x17E3 JUMP JUMPDEST PUSH1 0xF PUSH1 0x20 MSTORE PUSH0 SWAP1 DUP2 MSTORE PUSH1 0x40 SWAP1 KECCAK256 SLOAD DUP2 JUMP JUMPDEST PUSH1 0x40 MLOAD PUSH1 0x12 DUP2 MSTORE PUSH1 0x20 ADD PUSH2 0x1AB JUMP JUMPDEST PUSH2 0x1A1 PUSH1 0xB SLOAD DUP2 JUMP JUMPDEST PUSH2 0x1A1 PUSH2 0x27C CALLDATASIZE PUSH1 0x4 PUSH2 0x17E3 JUMP JUMPDEST PUSH1 0x11 PUSH1 0x20 MSTORE PUSH0 SWAP1 DUP2 MSTORE PUSH1 0x40 SWAP1 KECCAK256 SLOAD DUP2 JUMP JUMPDEST PUSH2 0x1A1 PUSH1 0xA SLOAD DUP2 JUMP JUMPDEST PUSH2 0x1A1 PUSH1 0x8 SLOAD DUP2 JUMP JUMPDEST PUSH2 0x1A1 PUSH2 0x2AD CALLDATASIZE PUSH1 0x4 PUSH2 0x17E3 JUMP JUMPDEST PUSH2 0x7CF JUMP JUMPDEST PUSH2 0x1FF PUSH2 0x7E9 JUMP JUMPDEST PUSH2 0x1A1 PUSH1 0xE SLOAD DUP2 JUMP JUMPDEST PUSH2 0x1A1 PUSH1 0xC SLOAD DUP2 JUMP JUMPDEST PUSH1 0x7 SLOAD PUSH2 0x2DF SWAP1 PUSH1 0x1 PUSH1 0x1 PUSH1 0xA0 SHL SUB AND DUP2 JUMP JUMPDEST PUSH1 0x40 MLOAD PUSH2 0x1AB SWAP2 SWAP1 PUSH2 0x185A JUMP JUMPDEST PUSH2 0x2DF PUSH2 0x7FC JUMP JUMPDEST PUSH2 0x1BC PUSH2 0x80B JUMP JUMPDEST PUSH1 0x12 SLOAD PUSH2 0x2DF SWAP1 PUSH1 0x1 PUSH1 0x1 PUSH1 0xA0 SHL SUB AND DUP2 JUMP JUMPDEST PUSH2 0x1FF PUSH2 0x81A JUMP JUMPDEST PUSH1 0x6 SLOAD PUSH2 0x2DF SWAP1 PUSH1 0x1 PUSH1 0x1 PUSH1 0xA0 SHL SUB AND DUP2 JUMP JUMPDEST PUSH2 0x1DC PUSH2 0x338 CALLDATASIZE PUSH1 0x4 PUSH2 0x17B9 JUMP JUMPDEST PUSH2 0x8EC JUMP JUMPDEST PUSH1 0x9 SLOAD PUSH2 0x2DF SWAP1 PUSH1 0x1 PUSH1 0x1 PUSH1 0xA0 SHL SUB AND DUP2 JUMP JUMPDEST PUSH2 0x1FF PUSH2 0x35E CALLDATASIZE PUSH1 0x4 PUSH2 0x1843 JUMP JUMPDEST PUSH2 0xA26 JUMP JUMPDEST PUSH2 0x1FF PUSH2 0x371 CALLDATASIZE PUSH1 0x4 PUSH2 0x186E JUMP JUMPDEST PUSH2 0xC13 JUMP JUMPDEST PUSH2 0x1FF PUSH2 0x384 CALLDATASIZE PUSH1 0x4 PUSH2 0x1843 JUMP JUMPDEST PUSH2 0x10F2 JUMP JUMPDEST PUSH2 0x1A1 PUSH2 0x397 CALLDATASIZE PUSH1 0x4 PUSH2 0x17E3 JUMP JUMPDEST PUSH1 0x10 PUSH1 0x20 MSTORE PUSH0 SWAP1 DUP2 MSTORE PUSH1 0x40 SWAP1 KECCAK256 SLOAD DUP2 JUMP JUMPDEST PUSH2 0x1FF PUSH2 0x3B6 CALLDATASIZE PUSH1 0x4 PUSH2 0x1843 JUMP JUMPDEST PUSH2 0x1136 JUMP JUMPDEST PUSH2 0x1FF PUSH2 0x3C9 CALLDATASIZE PUSH1 0x4 PUSH2 0x1843 JUMP JUMPDEST PUSH2 0x129A JUMP JUMPDEST PUSH2 0x1A1 PUSH2 0x3DC CALLDATASIZE PUSH1 0x4 PUSH2 0x188E JUMP JUMPDEST PUSH2 0x1324 JUMP JUMPDEST PUSH2 0x1FF PUSH2 0x3EF CALLDATASIZE PUSH1 0x4 PUSH2 0x17E3 JUMP JUMPDEST PUSH2 0x134E JUMP JUMPDEST PUSH1 0x60 PUSH1 0x3 DUP1 SLOAD PUSH2 0x403 SWAP1 PUSH2 0x18C5 JUMP JUMPDEST DUP1 PUSH1 0x1F ADD PUSH1 0x20 DUP1 SWAP2 DIV MUL PUSH1 0x20 ADD PUSH1 0x40 MLOAD SWAP1 DUP2 ADD PUSH1 0x40 MSTORE DUP1 SWAP3 SWAP2 SWAP1 DUP2 DUP2 MSTORE PUSH1 0x20 ADD DUP3 DUP1 SLOAD PUSH2 0x42F SWAP1 PUSH2 0x18C5 JUMP JUMPDEST DUP1 ISZERO PUSH2 0x47A JUMPI DUP1 PUSH1 0x1F LT PUSH2 0x451 JUMPI PUSH2 0x100 DUP1 DUP4 SLOAD DIV MUL DUP4 MSTORE SWAP2 PUSH1 0x20 ADD SWAP2 PUSH2 0x47A JUMP JUMPDEST DUP3 ADD SWAP2 SWAP1 PUSH0 MSTORE PUSH1 0x20 PUSH0 KECCAK256 SWAP1 JUMPDEST DUP2 SLOAD DUP2 MSTORE SWAP1 PUSH1 0x1 ADD SWAP1 PUSH1 0x20 ADD DUP1 DUP4 GT PUSH2 0x45D JUMPI DUP3 SWAP1 SUB PUSH1 0x1F AND DUP3 ADD SWAP2 JUMPDEST POP POP POP POP POP SWAP1 POP SWAP1 JUMP JUMPDEST PUSH0 CALLER PUSH2 0x491 DUP2 DUP6 DUP6 PUSH2 0x1388 JUMP JUMPDEST PUSH1 0x1 SWAP2 POP POP JUMPDEST SWAP3 SWAP2 POP POP JUMP JUMPDEST PUSH2 0x4A5 PUSH2 0x139A JUMP JUMPDEST PUSH1 0x12 DUP1 SLOAD PUSH1 0x1 PUSH1 0x1 PUSH1 0xA0 SHL SUB NOT AND PUSH1 0x1 PUSH1 0x1 PUSH1 0xA0 SHL SUB SWAP3 SWAP1 SWAP3 AND SWAP2 SWAP1 SWAP2 OR SWAP1 SSTORE JUMP JUMPDEST PUSH1 0x6 SLOAD PUSH1 0x40 DUP1 MLOAD PUSH4 0x6EE8DB3F PUSH1 0xE1 SHL DUP2 MSTORE SWAP1 MLOAD PUSH0 SWAP3 PUSH1 0x1 PUSH1 0x1 PUSH1 0xA0 SHL SUB AND SWAP2 PUSH4 0xDDD1B67E SWAP2 PUSH1 0x4 DUP1 DUP4 ADD SWAP3 PUSH1 0x20 SWAP3 SWAP2 SWAP1 DUP3 SWAP1 SUB ADD DUP2 DUP7 GAS STATICCALL ISZERO DUP1 ISZERO PUSH2 0x50E JUMPI RETURNDATASIZE PUSH0 DUP1 RETURNDATACOPY RETURNDATASIZE PUSH0 REVERT JUMPDEST POP POP POP POP PUSH1 0x40 MLOAD RETURNDATASIZE PUSH1 0x1F NOT PUSH1 0x1F DUP3 ADD AND DUP3 ADD DUP1 PUSH1 0x40 MSTORE POP DUP2 ADD SWAP1 PUSH2 0x532 SWAP2 SWAP1 PUSH2 0x18FD JUMP JUMPDEST SWAP1 POP PUSH1 0x8 SLOAD DUP2 GT ISZERO PUSH2 0x5D9 JUMPI PUSH1 0x6 PUSH0 SWAP1 SLOAD SWAP1 PUSH2 0x100 EXP SWAP1 DIV PUSH1 0x1 PUSH1 0x1 PUSH1 0xA0 SHL SUB AND PUSH1 0x1 PUSH1 0x1 PUSH1 0xA0 SHL SUB AND PUSH4 0x27EBEC60 PUSH1 0x40 MLOAD DUP2 PUSH4 0xFFFFFFFF AND PUSH1 0xE0 SHL DUP2 MSTORE PUSH1 0x4 ADD PUSH1 0x20 PUSH1 0x40 MLOAD DUP1 DUP4 SUB DUP2 PUSH0 DUP8 GAS CALL ISZERO DUP1 ISZERO PUSH2 0x58F JUMPI RETURNDATASIZE PUSH0 DUP1 RETURNDATACOPY RETURNDATASIZE PUSH0 REVERT JUMPDEST POP POP POP POP PUSH1 0x40 MLOAD RETURNDATASIZE PUSH1 0x1F NOT PUSH1 0x1F DUP3 ADD AND DUP3 ADD DUP1 PUSH1 0x40 MSTORE POP DUP2 ADD SWAP1 PUSH2 0x5B3 SWAP2 SWAP1 PUSH2 0x1914 JUMP JUMPDEST PUSH1 0x7 DUP1 SLOAD PUSH1 0x1 PUSH1 0x1 PUSH1 0xA0 SHL SUB NOT AND PUSH1 0x1 PUSH1 0x1 PUSH1 0xA0 SHL SUB SWAP3 SWAP1 SWAP3 AND SWAP2 SWAP1 SWAP2 OR SWAP1 SSTORE PUSH1 0x8 DUP2 SWAP1 SSTORE JUMPDEST POP JUMP JUMPDEST PUSH0 CALLER PUSH2 0x5E9 DUP6 DUP3 DUP6 PUSH2 0x13CC JUMP JUMPDEST PUSH2 0x5F4 DUP6 DUP6 DUP6 PUSH2 0x141D JUMP JUMPDEST POP PUSH1 0x1 SWAP5 SWAP4 POP POP POP POP JUMP JUMPDEST PUSH1 0x12 SLOAD PUSH1 0x1 PUSH1 0x1 PUSH1 0xA0 SHL SUB AND CALLER EQ PUSH2 0x64F JUMPI PUSH1 0x40 MLOAD PUSH3 0x461BCD PUSH1 0xE5 SHL DUP2 MSTORE PUSH1 0x20 PUSH1 0x4 DUP3 ADD MSTORE PUSH1 0xE PUSH1 0x24 DUP3 ADD MSTORE PUSH14 0x139BDD08185D5D1A1BDC9A5E9959 PUSH1 0x92 SHL PUSH1 0x44 DUP3 ADD MSTORE PUSH1 0x64 ADD JUMPDEST PUSH1 0x40 MLOAD DUP1 SWAP2 SUB SWAP1 REVERT JUMPDEST PUSH0 DUP2 GT PUSH2 0x66E JUMPI PUSH1 0x40 MLOAD PUSH3 0x461BCD PUSH1 0xE5 SHL DUP2 MSTORE PUSH1 0x4 ADD PUSH2 0x646 SWAP1 PUSH2 0x192F JUMP JUMPDEST PUSH1 0x9 SLOAD PUSH1 0x40 MLOAD PUSH4 0x23B872DD PUSH1 0xE0 SHL DUP2 MSTORE PUSH1 0x1 PUSH1 0x1 PUSH1 0xA0 SHL SUB SWAP1 SWAP2 AND SWAP1 PUSH4 0x23B872DD SWAP1 PUSH2 0x6A2 SWAP1 CALLER SWAP1 ADDRESS SWAP1 DUP7 SWAP1 PUSH1 0x4 ADD PUSH2 0x1966 JUMP JUMPDEST PUSH1 0x20 PUSH1 0x40 MLOAD DUP1 DUP4 SUB DUP2 PUSH0 DUP8 GAS CALL ISZERO DUP1 ISZERO PUSH2 0x6BE JUMPI RETURNDATASIZE PUSH0 DUP1 RETURNDATACOPY RETURNDATASIZE PUSH0 REVERT JUMPDEST POP POP POP POP PUSH1 0x40 MLOAD RETURNDATASIZE PUSH1 0x1F NOT PUSH1 0x1F DUP3 ADD AND DUP3 ADD DUP1 PUSH1 0x40 MSTORE POP DUP2 ADD SWAP1 PUSH2 0x6E2 SWAP2 SWAP1 PUSH2 0x198A JUMP JUMPDEST PUSH2 0x6FE JUMPI PUSH1 0x40 MLOAD PUSH3 0x461BCD PUSH1 0xE5 SHL DUP2 MSTORE PUSH1 0x4 ADD PUSH2 0x646 SWAP1 PUSH2 0x19A9 JUMP JUMPDEST DUP1 PUSH1 0xD PUSH0 DUP3 DUP3 SLOAD PUSH2 0x70F SWAP2 SWAP1 PUSH2 0x19EB JUMP JUMPDEST SWAP1 SWAP2 SSTORE POP POP PUSH1 0x7 SLOAD PUSH1 0x40 MLOAD PUSH4 0x55877341 PUSH1 0xE1 SHL DUP2 MSTORE PUSH1 0x80 PUSH1 0x4 DUP3 ADD MSTORE PUSH1 0x6 PUSH1 0x84 DUP3 ADD MSTORE PUSH6 0x149155D05491 PUSH1 0xD2 SHL PUSH1 0xA4 DUP3 ADD MSTORE CALLER PUSH1 0x24 DUP3 ADD MSTORE PUSH0 PUSH1 0x44 DUP3 ADD MSTORE PUSH1 0x64 DUP2 ADD DUP4 SWAP1 MSTORE PUSH1 0x1 PUSH1 0x1 PUSH1 0xA0 SHL SUB SWAP1 SWAP2 AND SWAP1 PUSH4 0xAB0EE682 SWAP1 PUSH1 0xC4 ADD PUSH0 PUSH1 0x40 MLOAD DUP1 DUP4 SUB DUP2 PUSH0 DUP8 DUP1 EXTCODESIZE ISZERO DUP1 ISZERO PUSH2 0x780 JUMPI PUSH0 DUP1 REVERT JUMPDEST POP GAS CALL ISZERO DUP1 ISZERO PUSH2 0x792 JUMPI RETURNDATASIZE PUSH0 DUP1 RETURNDATACOPY RETURNDATASIZE PUSH0 REVERT JUMPDEST POP POP PUSH1 0x40 MLOAD DUP4 DUP2 MSTORE CALLER SWAP3 POP PUSH32 0xB4A46C1BD84F6EAD56B19BD0D3788D827200B4D73024081F1C083F904F68F21C SWAP2 POP PUSH1 0x20 ADD JUMPDEST PUSH1 0x40 MLOAD DUP1 SWAP2 SUB SWAP1 LOG2 POP JUMP JUMPDEST PUSH1 0x1 PUSH1 0x1 PUSH1 0xA0 SHL SUB AND PUSH0 SWAP1 DUP2 MSTORE PUSH1 0x20 DUP2 SWAP1 MSTORE PUSH1 0x40 SWAP1 KECCAK256 SLOAD SWAP1 JUMP JUMPDEST PUSH2 0x7F1 PUSH2 0x139A JUMP JUMPDEST PUSH2 0x7FA PUSH0 PUSH2 0x147A JUMP JUMPDEST JUMP JUMPDEST PUSH1 0x5 SLOAD PUSH1 0x1 PUSH1 0x1 PUSH1 0xA0 SHL SUB AND SWAP1 JUMP JUMPDEST PUSH1 0x60 PUSH1 0x4 DUP1 SLOAD PUSH2 0x403 SWAP1 PUSH2 0x18C5 JUMP JUMPDEST PUSH2 0x823 CALLER PUSH2 0x14CB JUMP JUMPDEST PUSH1 0x7 SLOAD CALLER PUSH0 DUP2 DUP2 MSTORE PUSH1 0xF PUSH1 0x20 MSTORE PUSH1 0x40 DUP1 DUP3 KECCAK256 SLOAD SWAP1 MLOAD PUSH4 0x55877341 PUSH1 0xE1 SHL DUP2 MSTORE PUSH1 0x80 PUSH1 0x4 DUP3 ADD MSTORE PUSH1 0x8 PUSH1 0x84 DUP3 ADD MSTORE PUSH8 0x5749544844524157 PUSH1 0xC0 SHL PUSH1 0xA4 DUP3 ADD MSTORE PUSH1 0x24 DUP2 ADD SWAP4 SWAP1 SWAP4 MSTORE PUSH1 0x44 DUP4 ADD SWAP2 SWAP1 SWAP2 MSTORE PUSH1 0x64 DUP3 ADD MSTORE PUSH1 0x1 PUSH1 0x1 PUSH1 0xA0 SHL SUB SWAP1 SWAP2 AND SWAP1 PUSH4 0xAB0EE682 SWAP1 PUSH1 0xC4 ADD PUSH0 PUSH1 0x40 MLOAD DUP1 DUP4 SUB DUP2 PUSH0 DUP8 DUP1 EXTCODESIZE ISZERO DUP1 ISZERO PUSH2 0x8A2 JUMPI PUSH0 DUP1 REVERT JUMPDEST POP GAS CALL ISZERO DUP1 ISZERO PUSH2 0x8B4 JUMPI RETURNDATASIZE PUSH0 DUP1 RETURNDATACOPY RETURNDATASIZE PUSH0 REVERT JUMPDEST POP POP CALLER PUSH0 DUP2 DUP2 MSTORE PUSH1 0xF PUSH1 0x20 SWAP1 DUP2 MSTORE PUSH1 0x40 SWAP2 DUP3 SWAP1 KECCAK256 SLOAD SWAP2 MLOAD SWAP2 DUP3 MSTORE SWAP2 SWAP4 POP PUSH0 DUP1 MLOAD PUSH1 0x20 PUSH2 0x1A82 DUP4 CODECOPY DUP2 MLOAD SWAP2 MSTORE SWAP3 POP ADD PUSH1 0x40 MLOAD DUP1 SWAP2 SUB SWAP1 LOG2 JUMP JUMPDEST PUSH0 DUP2 PUSH2 0x8F7 CALLER PUSH2 0x7CF JUMP JUMPDEST LT ISZERO PUSH2 0x93A JUMPI PUSH1 0x40 MLOAD PUSH3 0x461BCD PUSH1 0xE5 SHL DUP2 MSTORE PUSH1 0x20 PUSH1 0x4 DUP3 ADD MSTORE PUSH1 0x12 PUSH1 0x24 DUP3 ADD MSTORE PUSH18 0x4E6F7420656E6F7567682062616C616E6365 PUSH1 0x70 SHL PUSH1 0x44 DUP3 ADD MSTORE PUSH1 0x64 ADD PUSH2 0x646 JUMP JUMPDEST PUSH2 0x943 CALLER PUSH2 0x14CB JUMP JUMPDEST PUSH2 0x94C DUP4 PUSH2 0x14CB JUMP JUMPDEST PUSH2 0x957 CALLER DUP5 DUP5 PUSH2 0x141D JUMP JUMPDEST PUSH1 0x7 SLOAD PUSH1 0x40 MLOAD PUSH4 0x55877341 PUSH1 0xE1 SHL DUP2 MSTORE PUSH1 0x80 PUSH1 0x4 DUP3 ADD MSTORE PUSH1 0x8 PUSH1 0x84 DUP3 ADD MSTORE PUSH8 0x2A2920A729A322A9 PUSH1 0xC1 SHL PUSH1 0xA4 DUP3 ADD MSTORE CALLER PUSH1 0x24 DUP3 ADD MSTORE PUSH1 0x1 PUSH1 0x1 PUSH1 0xA0 SHL SUB DUP6 DUP2 AND PUSH1 0x44 DUP4 ADD MSTORE PUSH1 0x64 DUP3 ADD DUP6 SWAP1 MSTORE SWAP1 SWAP2 AND SWAP1 PUSH4 0xAB0EE682 SWAP1 PUSH1 0xC4 ADD PUSH0 PUSH1 0x40 MLOAD DUP1 DUP4 SUB DUP2 PUSH0 DUP8 DUP1 EXTCODESIZE ISZERO DUP1 ISZERO PUSH2 0x9C7 JUMPI PUSH0 DUP1 REVERT JUMPDEST POP GAS CALL ISZERO DUP1 ISZERO PUSH2 0x9D9 JUMPI RETURNDATASIZE PUSH0 DUP1 RETURNDATACOPY RETURNDATASIZE PUSH0 REVERT JUMPDEST POP POP PUSH1 0x40 MLOAD DUP5 DUP2 MSTORE PUSH1 0x1 PUSH1 0x1 PUSH1 0xA0 SHL SUB DUP7 AND SWAP3 POP CALLER SWAP2 POP PUSH32 0x6BCA8FA57973BAECF480F0F784A6C6549E10CD7673DB79B691A8051864DD29C9 SWAP1 PUSH1 0x20 ADD PUSH1 0x40 MLOAD DUP1 SWAP2 SUB SWAP1 LOG3 POP PUSH1 0x1 SWAP3 SWAP2 POP POP JUMP JUMPDEST CALLER PUSH0 SWAP1 DUP2 MSTORE PUSH1 0x10 PUSH1 0x20 SWAP1 DUP2 MSTORE PUSH1 0x40 DUP1 DUP4 KECCAK256 SLOAD PUSH1 0xF SWAP1 SWAP3 MSTORE DUP3 KECCAK256 SLOAD PUSH2 0xA4A SWAP2 SWAP1 PUSH2 0x19FE JUMP JUMPDEST SWAP1 POP PUSH0 DUP3 GT DUP1 ISZERO PUSH2 0xA5B JUMPI POP DUP1 DUP3 GT ISZERO JUMPDEST PUSH2 0xAA3 JUMPI PUSH1 0x40 MLOAD PUSH3 0x461BCD PUSH1 0xE5 SHL DUP2 MSTORE PUSH1 0x20 PUSH1 0x4 DUP3 ADD MSTORE PUSH1 0x19 PUSH1 0x24 DUP3 ADD MSTORE PUSH25 0x496E73756666696369656E7420555344542062616C616E6365 PUSH1 0x38 SHL PUSH1 0x44 DUP3 ADD MSTORE PUSH1 0x64 ADD PUSH2 0x646 JUMP JUMPDEST CALLER PUSH0 SWAP1 DUP2 MSTORE PUSH1 0x10 PUSH1 0x20 MSTORE PUSH1 0x40 DUP2 KECCAK256 DUP1 SLOAD DUP5 SWAP3 SWAP1 PUSH2 0xAC1 SWAP1 DUP5 SWAP1 PUSH2 0x19EB JUMP JUMPDEST SWAP3 POP POP DUP2 SWAP1 SSTORE POP DUP2 PUSH1 0xE PUSH0 DUP3 DUP3 SLOAD PUSH2 0xAD9 SWAP2 SWAP1 PUSH2 0x19EB JUMP JUMPDEST SWAP1 SWAP2 SSTORE POP POP PUSH1 0x9 SLOAD PUSH1 0x40 MLOAD PUSH4 0xA9059CBB PUSH1 0xE0 SHL DUP2 MSTORE PUSH1 0x1 PUSH1 0x1 PUSH1 0xA0 SHL SUB SWAP1 SWAP2 AND SWAP1 PUSH4 0xA9059CBB SWAP1 PUSH2 0xB10 SWAP1 CALLER SWAP1 DUP7 SWAP1 PUSH1 0x4 ADD PUSH2 0x1A11 JUMP JUMPDEST PUSH1 0x20 PUSH1 0x40 MLOAD DUP1 DUP4 SUB DUP2 PUSH0 DUP8 GAS CALL ISZERO DUP1 ISZERO PUSH2 0xB2C JUMPI RETURNDATASIZE PUSH0 DUP1 RETURNDATACOPY RETURNDATASIZE PUSH0 REVERT JUMPDEST POP POP POP POP PUSH1 0x40 MLOAD RETURNDATASIZE PUSH1 0x1F NOT PUSH1 0x1F DUP3 ADD AND DUP3 ADD DUP1 PUSH1 0x40 MSTORE POP DUP2 ADD SWAP1 PUSH2 0xB50 SWAP2 SWAP1 PUSH2 0x198A JUMP JUMPDEST PUSH2 0xB6C JUMPI PUSH1 0x40 MLOAD PUSH3 0x461BCD PUSH1 0xE5 SHL DUP2 MSTORE PUSH1 0x4 ADD PUSH2 0x646 SWAP1 PUSH2 0x19A9 JUMP JUMPDEST PUSH1 0x7 SLOAD PUSH1 0x40 MLOAD PUSH4 0x55877341 PUSH1 0xE1 SHL DUP2 MSTORE PUSH1 0x80 PUSH1 0x4 DUP3 ADD MSTORE PUSH1 0x5 PUSH1 0x84 DUP3 ADD MSTORE PUSH5 0x434C41494D PUSH1 0xD8 SHL PUSH1 0xA4 DUP3 ADD MSTORE CALLER PUSH1 0x24 DUP3 ADD MSTORE PUSH0 PUSH1 0x44 DUP3 ADD MSTORE PUSH1 0x64 DUP2 ADD DUP5 SWAP1 MSTORE PUSH1 0x1 PUSH1 0x1 PUSH1 0xA0 SHL SUB SWAP1 SWAP2 AND SWAP1 PUSH4 0xAB0EE682 SWAP1 PUSH1 0xC4 ADD PUSH0 PUSH1 0x40 MLOAD DUP1 DUP4 SUB DUP2 PUSH0 DUP8 DUP1 EXTCODESIZE ISZERO DUP1 ISZERO PUSH2 0xBD7 JUMPI PUSH0 DUP1 REVERT JUMPDEST POP GAS CALL ISZERO DUP1 ISZERO PUSH2 0xBE9 JUMPI RETURNDATASIZE PUSH0 DUP1 RETURNDATACOPY RETURNDATASIZE PUSH0 REVERT JUMPDEST POP POP PUSH1 0x40 MLOAD DUP5 DUP2 MSTORE CALLER SWAP3 POP PUSH0 DUP1 MLOAD PUSH1 0x20 PUSH2 0x1A82 DUP4 CODECOPY DUP2 MLOAD SWAP2 MSTORE SWAP2 POP PUSH1 0x20 ADD PUSH1 0x40 MLOAD DUP1 SWAP2 SUB SWAP1 LOG2 POP POP JUMP JUMPDEST PUSH0 DUP3 GT PUSH2 0xC60 JUMPI PUSH1 0x40 MLOAD PUSH3 0x461BCD PUSH1 0xE5 SHL DUP2 MSTORE PUSH1 0x20 PUSH1 0x4 DUP3 ADD MSTORE PUSH1 0x1B PUSH1 0x24 DUP3 ADD MSTORE PUSH27 0x4D7573742073656E64205553445420746F206275792073746F636B PUSH1 0x28 SHL PUSH1 0x44 DUP3 ADD MSTORE PUSH1 0x64 ADD PUSH2 0x646 JUMP JUMPDEST DUP1 PUSH1 0xA SLOAD EQ PUSH2 0xCA9 JUMPI PUSH1 0x40 MLOAD PUSH3 0x461BCD PUSH1 0xE5 SHL DUP2 MSTORE PUSH1 0x20 PUSH1 0x4 DUP3 ADD MSTORE PUSH1 0x15 PUSH1 0x24 DUP3 ADD MSTORE PUSH21 0x115E18DA185B99D9481C985D194818DA185B99D959 PUSH1 0x5A SHL PUSH1 0x44 DUP3 ADD MSTORE PUSH1 0x64 ADD PUSH2 0x646 JUMP JUMPDEST PUSH2 0xCB2 CALLER PUSH2 0x14CB JUMP JUMPDEST PUSH0 PUSH4 0x5F5E100 PUSH1 0xA SLOAD DUP5 PUSH2 0xCC6 SWAP2 SWAP1 PUSH2 0x1A2A JUMP JUMPDEST PUSH2 0xCD0 SWAP2 SWAP1 PUSH2 0x1A41 JUMP JUMPDEST SWAP1 POP DUP1 PUSH1 0xB SLOAD LT ISZERO PUSH2 0xD24 JUMPI PUSH1 0x40 MLOAD PUSH3 0x461BCD PUSH1 0xE5 SHL DUP2 MSTORE PUSH1 0x20 PUSH1 0x4 DUP3 ADD MSTORE PUSH1 0x1D PUSH1 0x24 DUP3 ADD MSTORE PUSH32 0x4E6F7420656E6F7567682073746F636B20696E20746869732073616C65000000 PUSH1 0x44 DUP3 ADD MSTORE PUSH1 0x64 ADD PUSH2 0x646 JUMP JUMPDEST DUP1 PUSH2 0xD30 PUSH2 0x2AD PUSH2 0x7FC JUMP JUMPDEST LT ISZERO PUSH2 0xD7B JUMPI PUSH1 0x40 MLOAD PUSH3 0x461BCD PUSH1 0xE5 SHL DUP2 MSTORE PUSH1 0x20 PUSH1 0x4 DUP3 ADD MSTORE PUSH1 0x1A PUSH1 0x24 DUP3 ADD MSTORE PUSH26 0x4E6F7420656E6F7567682073746F636B20617661696C61626C65 PUSH1 0x30 SHL PUSH1 0x44 DUP3 ADD MSTORE PUSH1 0x64 ADD PUSH2 0x646 JUMP JUMPDEST PUSH1 0x9 SLOAD PUSH1 0x40 MLOAD PUSH4 0x70A08231 PUSH1 0xE0 SHL DUP2 MSTORE PUSH0 SWAP2 PUSH1 0x1 PUSH1 0x1 PUSH1 0xA0 SHL SUB AND SWAP1 PUSH4 0x70A08231 SWAP1 PUSH2 0xDAB SWAP1 ADDRESS SWAP1 PUSH1 0x4 ADD PUSH2 0x185A JUMP JUMPDEST PUSH1 0x20 PUSH1 0x40 MLOAD DUP1 DUP4 SUB DUP2 DUP7 GAS STATICCALL ISZERO DUP1 ISZERO PUSH2 0xDC6 JUMPI RETURNDATASIZE PUSH0 DUP1 RETURNDATACOPY RETURNDATASIZE PUSH0 REVERT JUMPDEST POP POP POP POP PUSH1 0x40 MLOAD RETURNDATASIZE PUSH1 0x1F NOT PUSH1 0x1F DUP3 ADD AND DUP3 ADD DUP1 PUSH1 0x40 MSTORE POP DUP2 ADD SWAP1 PUSH2 0xDEA SWAP2 SWAP1 PUSH2 0x18FD JUMP JUMPDEST PUSH1 0x9 SLOAD PUSH1 0x40 MLOAD PUSH4 0x23B872DD PUSH1 0xE0 SHL DUP2 MSTORE SWAP2 SWAP3 POP PUSH1 0x1 PUSH1 0x1 PUSH1 0xA0 SHL SUB AND SWAP1 PUSH4 0x23B872DD SWAP1 PUSH2 0xE1F SWAP1 CALLER SWAP1 ADDRESS SWAP1 DUP10 SWAP1 PUSH1 0x4 ADD PUSH2 0x1966 JUMP JUMPDEST PUSH1 0x20 PUSH1 0x40 MLOAD DUP1 DUP4 SUB DUP2 PUSH0 DUP8 GAS CALL ISZERO DUP1 ISZERO PUSH2 0xE3B JUMPI RETURNDATASIZE PUSH0 DUP1 RETURNDATACOPY RETURNDATASIZE PUSH0 REVERT JUMPDEST POP POP POP POP PUSH1 0x40 MLOAD RETURNDATASIZE PUSH1 0x1F NOT PUSH1 0x1F DUP3 ADD AND DUP3 ADD DUP1 PUSH1 0x40 MSTORE POP DUP2 ADD SWAP1 PUSH2 0xE5F SWAP2 SWAP1 PUSH2 0x198A JUMP JUMPDEST PUSH2 0xE7B JUMPI PUSH1 0x40 MLOAD PUSH3 0x461BCD PUSH1 0xE5 SHL DUP2 MSTORE PUSH1 0x4 ADD PUSH2 0x646 SWAP1 PUSH2 0x19A9 JUMP JUMPDEST PUSH1 0x9 SLOAD PUSH1 0x40 MLOAD PUSH4 0x70A08231 PUSH1 0xE0 SHL DUP2 MSTORE PUSH0 SWAP2 DUP4 SWAP2 PUSH1 0x1 PUSH1 0x1 PUSH1 0xA0 SHL SUB SWAP1 SWAP2 AND SWAP1 PUSH4 0x70A08231 SWAP1 PUSH2 0xEAF SWAP1 ADDRESS SWAP1 PUSH1 0x4 ADD PUSH2 0x185A JUMP JUMPDEST PUSH1 0x20 PUSH1 0x40 MLOAD DUP1 DUP4 SUB DUP2 DUP7 GAS STATICCALL ISZERO DUP1 ISZERO PUSH2 0xECA JUMPI RETURNDATASIZE PUSH0 DUP1 RETURNDATACOPY RETURNDATASIZE PUSH0 REVERT JUMPDEST POP POP POP POP PUSH1 0x40 MLOAD RETURNDATASIZE PUSH1 0x1F NOT PUSH1 0x1F DUP3 ADD AND DUP3 ADD DUP1 PUSH1 0x40 MSTORE POP DUP2 ADD SWAP1 PUSH2 0xEEE SWAP2 SWAP1 PUSH2 0x18FD JUMP JUMPDEST PUSH2 0xEF8 SWAP2 SWAP1 PUSH2 0x19FE JUMP JUMPDEST SWAP1 POP PUSH2 0xF07 PUSH3 0xF4240 DUP7 PUSH2 0x19FE JUMP JUMPDEST DUP2 LT ISZERO DUP1 ISZERO PUSH2 0xF22 JUMPI POP PUSH2 0xF1E DUP6 PUSH3 0xF4240 PUSH2 0x19EB JUMP JUMPDEST DUP2 GT ISZERO JUMPDEST PUSH2 0xF6E JUMPI PUSH1 0x40 MLOAD PUSH3 0x461BCD PUSH1 0xE5 SHL DUP2 MSTORE PUSH1 0x20 PUSH1 0x4 DUP3 ADD MSTORE PUSH1 0x1E PUSH1 0x24 DUP3 ADD MSTORE PUSH32 0x496E636F72726563742055534454207472616E7366657220616D6F756E740000 PUSH1 0x44 DUP3 ADD MSTORE PUSH1 0x64 ADD PUSH2 0x646 JUMP JUMPDEST DUP5 PUSH1 0xC PUSH0 DUP3 DUP3 SLOAD PUSH2 0xF7F SWAP2 SWAP1 PUSH2 0x19EB JUMP JUMPDEST SWAP3 POP POP DUP2 SWAP1 SSTORE POP DUP3 PUSH1 0xB PUSH0 DUP3 DUP3 SLOAD PUSH2 0xF97 SWAP2 SWAP1 PUSH2 0x19FE JUMP JUMPDEST SWAP1 SWAP2 SSTORE POP PUSH2 0xFAF SWAP1 POP PUSH2 0xFA8 PUSH2 0x7FC JUMP JUMPDEST CALLER DUP6 PUSH2 0x141D JUMP JUMPDEST PUSH1 0x7 SLOAD PUSH1 0x40 MLOAD PUSH4 0x55877341 PUSH1 0xE1 SHL DUP2 MSTORE PUSH1 0x80 PUSH1 0x4 DUP3 ADD MSTORE PUSH1 0x3 PUSH1 0x84 DUP3 ADD MSTORE PUSH3 0x425559 PUSH1 0xE8 SHL PUSH1 0xA4 DUP3 ADD MSTORE CALLER PUSH1 0x24 DUP3 ADD MSTORE ADDRESS PUSH1 0x44 DUP3 ADD MSTORE PUSH1 0x64 DUP2 ADD DUP6 SWAP1 MSTORE PUSH1 0x1 PUSH1 0x1 PUSH1 0xA0 SHL SUB SWAP1 SWAP2 AND SWAP1 PUSH4 0xAB0EE682 SWAP1 PUSH1 0xC4 ADD PUSH0 PUSH1 0x40 MLOAD DUP1 DUP4 SUB DUP2 PUSH0 DUP8 DUP1 EXTCODESIZE ISZERO DUP1 ISZERO PUSH2 0x1018 JUMPI PUSH0 DUP1 REVERT JUMPDEST POP GAS CALL ISZERO DUP1 ISZERO PUSH2 0x102A JUMPI RETURNDATASIZE PUSH0 DUP1 RETURNDATACOPY RETURNDATASIZE PUSH0 REVERT JUMPDEST POP POP PUSH1 0x7 SLOAD PUSH1 0x40 MLOAD PUSH4 0x55877341 PUSH1 0xE1 SHL DUP2 MSTORE PUSH1 0x80 PUSH1 0x4 DUP1 DUP4 ADD SWAP2 SWAP1 SWAP2 MSTORE PUSH1 0x84 DUP3 ADD MSTORE PUSH4 0x14D15313 PUSH1 0xE2 SHL PUSH1 0xA4 DUP3 ADD MSTORE ADDRESS PUSH1 0x24 DUP3 ADD MSTORE CALLER PUSH1 0x44 DUP3 ADD MSTORE PUSH1 0x64 DUP2 ADD DUP10 SWAP1 MSTORE PUSH1 0x1 PUSH1 0x1 PUSH1 0xA0 SHL SUB SWAP1 SWAP2 AND SWAP3 POP PUSH4 0xAB0EE682 SWAP2 POP PUSH1 0xC4 ADD PUSH0 PUSH1 0x40 MLOAD DUP1 DUP4 SUB DUP2 PUSH0 DUP8 DUP1 EXTCODESIZE ISZERO DUP1 ISZERO PUSH2 0x109A JUMPI PUSH0 DUP1 REVERT JUMPDEST POP GAS CALL ISZERO DUP1 ISZERO PUSH2 0x10AC JUMPI RETURNDATASIZE PUSH0 DUP1 RETURNDATACOPY RETURNDATASIZE PUSH0 REVERT JUMPDEST POP POP PUSH1 0x40 DUP1 MLOAD DUP7 DUP2 MSTORE PUSH1 0x20 DUP2 ADD DUP10 SWAP1 MSTORE CALLER SWAP4 POP PUSH32 0xC0BCDC28F6619D8BA6313614295A1F7B0477A1AD3F83EC463254630F3C5A306F SWAP3 POP ADD PUSH1 0x40 MLOAD DUP1 SWAP2 SUB SWAP1 LOG2 POP POP POP POP POP JUMP JUMPDEST PUSH2 0x10FA PUSH2 0x139A JUMP JUMPDEST PUSH1 0xB DUP2 SWAP1 SSTORE PUSH1 0x40 MLOAD DUP2 DUP2 MSTORE PUSH32 0xA1F96F7FA140217BC5D0A96BA383BEF3818737E35A1F4017843A8BDD7862B86F SWAP1 PUSH1 0x20 ADD JUMPDEST PUSH1 0x40 MLOAD DUP1 SWAP2 SUB SWAP1 LOG1 POP JUMP JUMPDEST PUSH2 0x113E PUSH2 0x139A JUMP JUMPDEST PUSH0 DUP2 GT PUSH2 0x115D JUMPI PUSH1 0x40 MLOAD PUSH3 0x461BCD PUSH1 0xE5 SHL DUP2 MSTORE PUSH1 0x4 ADD PUSH2 0x646 SWAP1 PUSH2 0x192F JUMP JUMPDEST PUSH1 0xC SLOAD DUP2 GT ISZERO PUSH2 0x11AF JUMPI PUSH1 0x40 MLOAD PUSH3 0x461BCD PUSH1 0xE5 SHL DUP2 MSTORE PUSH1 0x20 PUSH1 0x4 DUP3 ADD MSTORE PUSH1 0x1E PUSH1 0x24 DUP3 ADD MSTORE PUSH32 0x4E6F7420656E6F75676820555344542066726F6D207075726368617365730000 PUSH1 0x44 DUP3 ADD MSTORE PUSH1 0x64 ADD PUSH2 0x646 JUMP JUMPDEST DUP1 PUSH1 0xC PUSH0 DUP3 DUP3 SLOAD PUSH2 0x11C0 SWAP2 SWAP1 PUSH2 0x19FE JUMP JUMPDEST SWAP1 SWAP2 SSTORE POP POP PUSH1 0x9 SLOAD PUSH1 0x1 PUSH1 0x1 PUSH1 0xA0 SHL SUB AND PUSH4 0xA9059CBB PUSH2 0x11DE PUSH2 0x7FC JUMP JUMPDEST DUP4 PUSH1 0x40 MLOAD DUP4 PUSH4 0xFFFFFFFF AND PUSH1 0xE0 SHL DUP2 MSTORE PUSH1 0x4 ADD PUSH2 0x11FC SWAP3 SWAP2 SWAP1 PUSH2 0x1A11 JUMP JUMPDEST PUSH1 0x20 PUSH1 0x40 MLOAD DUP1 DUP4 SUB DUP2 PUSH0 DUP8 GAS CALL ISZERO DUP1 ISZERO PUSH2 0x1218 JUMPI RETURNDATASIZE PUSH0 DUP1 RETURNDATACOPY RETURNDATASIZE PUSH0 REVERT JUMPDEST POP POP POP POP PUSH1 0x40 MLOAD RETURNDATASIZE PUSH1 0x1F NOT PUSH1 0x1F DUP3 ADD AND DUP3 ADD DUP1 PUSH1 0x40 MSTORE POP DUP2 ADD SWAP1 PUSH2 0x123C SWAP2 SWAP1 PUSH2 0x198A JUMP JUMPDEST PUSH2 0x1258 JUMPI PUSH1 0x40 MLOAD PUSH3 0x461BCD PUSH1 0xE5 SHL DUP2 MSTORE PUSH1 0x4 ADD PUSH2 0x646 SWAP1 PUSH2 0x19A9 JUMP JUMPDEST PUSH2 0x1260 PUSH2 0x7FC JUMP JUMPDEST PUSH1 0x1 PUSH1 0x1 PUSH1 0xA0 SHL SUB AND PUSH32 0xF8447AA22B3477C5230344F1EAACDB857516C66017E96D5F556345CDD1ACA111 DUP3 PUSH1 0x40 MLOAD PUSH2 0x7C4 SWAP2 DUP2 MSTORE PUSH1 0x20 ADD SWAP1 JUMP JUMPDEST PUSH2 0x12A2 PUSH2 0x139A JUMP JUMPDEST PUSH0 DUP2 GT PUSH2 0x12EF JUMPI PUSH1 0x40 MLOAD PUSH3 0x461BCD PUSH1 0xE5 SHL DUP2 MSTORE PUSH1 0x20 PUSH1 0x4 DUP3 ADD MSTORE PUSH1 0x1B PUSH1 0x24 DUP3 ADD MSTORE PUSH27 0x52617465206D7573742062652067726561746572207468616E203 PUSH1 0x2C SHL PUSH1 0x44 DUP3 ADD MSTORE PUSH1 0x64 ADD PUSH2 0x646 JUMP JUMPDEST PUSH1 0xA DUP2 SWAP1 SSTORE PUSH1 0x40 MLOAD DUP2 DUP2 MSTORE PUSH32 0x388F446E9526FE5C9AF20A5919B342370C8A7C0CB05245AFE1E545658FA3CDBA SWAP1 PUSH1 0x20 ADD PUSH2 0x112B JUMP JUMPDEST PUSH1 0x1 PUSH1 0x1 PUSH1 0xA0 SHL SUB SWAP2 DUP3 AND PUSH0 SWAP1 DUP2 MSTORE PUSH1 0x1 PUSH1 0x20 SWAP1 DUP2 MSTORE PUSH1 0x40 DUP1 DUP4 KECCAK256 SWAP4 SWAP1 SWAP5 AND DUP3 MSTORE SWAP2 SWAP1 SWAP2 MSTORE KECCAK256 SLOAD SWAP1 JUMP JUMPDEST PUSH2 0x1356 PUSH2 0x139A JUMP JUMPDEST PUSH1 0x1 PUSH1 0x1 PUSH1 0xA0 SHL SUB DUP2 AND PUSH2 0x137F JUMPI PUSH0 PUSH1 0x40 MLOAD PUSH4 0x1E4FBDF7 PUSH1 0xE0 SHL DUP2 MSTORE PUSH1 0x4 ADD PUSH2 0x646 SWAP2 SWAP1 PUSH2 0x185A JUMP JUMPDEST PUSH2 0x5D9 DUP2 PUSH2 0x147A JUMP JUMPDEST PUSH2 0x1395 DUP4 DUP4 DUP4 PUSH1 0x1 PUSH2 0x158B JUMP JUMPDEST POP POP POP JUMP JUMPDEST CALLER PUSH2 0x13A3 PUSH2 0x7FC JUMP JUMPDEST PUSH1 0x1 PUSH1 0x1 PUSH1 0xA0 SHL SUB AND EQ PUSH2 0x7FA JUMPI CALLER PUSH1 0x40 MLOAD PUSH4 0x118CDAA7 PUSH1 0xE0 SHL DUP2 MSTORE PUSH1 0x4 ADD PUSH2 0x646 SWAP2 SWAP1 PUSH2 0x185A JUMP JUMPDEST PUSH0 PUSH2 0x13D7 DUP5 DUP5 PUSH2 0x1324 JUMP JUMPDEST SWAP1 POP PUSH0 NOT DUP2 LT ISZERO PUSH2 0x1417 JUMPI DUP2 DUP2 LT ISZERO PUSH2 0x1409 JUMPI DUP3 DUP2 DUP4 PUSH1 0x40 MLOAD PUSH4 0x7DC7A0D9 PUSH1 0xE1 SHL DUP2 MSTORE PUSH1 0x4 ADD PUSH2 0x646 SWAP4 SWAP3 SWAP2 SWAP1 PUSH2 0x1A60 JUMP JUMPDEST PUSH2 0x1417 DUP5 DUP5 DUP5 DUP5 SUB PUSH0 PUSH2 0x158B JUMP JUMPDEST POP POP POP POP JUMP JUMPDEST PUSH1 0x1 PUSH1 0x1 PUSH1 0xA0 SHL SUB DUP4 AND PUSH2 0x1446 JUMPI PUSH0 PUSH1 0x40 MLOAD PUSH4 0x4B637E8F PUSH1 0xE1 SHL DUP2 MSTORE PUSH1 0x4 ADD PUSH2 0x646 SWAP2 SWAP1 PUSH2 0x185A JUMP JUMPDEST PUSH1 0x1 PUSH1 0x1 PUSH1 0xA0 SHL SUB DUP3 AND PUSH2 0x146F JUMPI PUSH0 PUSH1 0x40 MLOAD PUSH4 0xEC442F05 PUSH1 0xE0 SHL DUP2 MSTORE PUSH1 0x4 ADD PUSH2 0x646 SWAP2 SWAP1 PUSH2 0x185A JUMP JUMPDEST PUSH2 0x1395 DUP4 DUP4 DUP4 PUSH2 0x165D JUMP JUMPDEST PUSH1 0x5 DUP1 SLOAD PUSH1 0x1 PUSH1 0x1 PUSH1 0xA0 SHL SUB DUP4 DUP2 AND PUSH1 0x1 PUSH1 0x1 PUSH1 0xA0 SHL SUB NOT DUP4 AND DUP2 OR SWAP1 SWAP4 SSTORE PUSH1 0x40 MLOAD SWAP2 AND SWAP2 SWAP1 DUP3 SWAP1 PUSH32 0x8BE0079C531659141344CD1FD0A4F28419497F9722A3DAAFE3B4186F6B6457E0 SWAP1 PUSH0 SWAP1 LOG3 POP POP JUMP JUMPDEST PUSH0 PUSH2 0x14D5 DUP3 PUSH2 0x7CF JUMP JUMPDEST SWAP1 POP PUSH0 PUSH2 0x14E1 PUSH1 0x2 SLOAD SWAP1 JUMP JUMPDEST SWAP1 POP DUP2 ISZERO DUP1 PUSH2 0x14EE JUMPI POP DUP1 ISZERO JUMPDEST ISZERO PUSH2 0x14F8 JUMPI POP POP POP JUMP JUMPDEST PUSH1 0x1 PUSH1 0x1 PUSH1 0xA0 SHL SUB DUP4 AND PUSH0 SWAP1 DUP2 MSTORE PUSH1 0x11 PUSH1 0x20 MSTORE PUSH1 0x40 DUP2 KECCAK256 SLOAD PUSH1 0xD SLOAD PUSH2 0x151D SWAP2 SWAP1 PUSH2 0x19FE JUMP JUMPDEST SWAP1 POP PUSH0 DUP3 PUSH2 0x152B DUP6 DUP5 PUSH2 0x1A2A JUMP JUMPDEST PUSH2 0x1535 SWAP2 SWAP1 PUSH2 0x1A41 JUMP JUMPDEST PUSH1 0x1 PUSH1 0x1 PUSH1 0xA0 SHL SUB DUP7 AND PUSH0 SWAP1 DUP2 MSTORE PUSH1 0xF PUSH1 0x20 MSTORE PUSH1 0x40 DUP2 KECCAK256 DUP1 SLOAD SWAP3 SWAP4 POP DUP4 SWAP3 SWAP1 SWAP2 SWAP1 PUSH2 0x1561 SWAP1 DUP5 SWAP1 PUSH2 0x19EB JUMP JUMPDEST SWAP1 SWAP2 SSTORE POP POP PUSH1 0xD SLOAD PUSH1 0x1 PUSH1 0x1 PUSH1 0xA0 SHL SUB SWAP1 SWAP6 AND PUSH0 SWAP1 DUP2 MSTORE PUSH1 0x11 PUSH1 0x20 MSTORE PUSH1 0x40 SWAP1 KECCAK256 SWAP5 SWAP1 SWAP5 SSTORE POP POP POP POP JUMP JUMPDEST PUSH1 0x1 PUSH1 0x1 PUSH1 0xA0 SHL SUB DUP5 AND PUSH2 0x15B4 JUMPI PUSH0 PUSH1 0x40 MLOAD PUSH4 0xE602DF05 PUSH1 0xE0 SHL DUP2 MSTORE PUSH1 0x4 ADD PUSH2 0x646 SWAP2 SWAP1 PUSH2 0x185A JUMP JUMPDEST PUSH1 0x1 PUSH1 0x1 PUSH1 0xA0 SHL SUB DUP4 AND PUSH2 0x15DD JUMPI PUSH0 PUSH1 0x40 MLOAD PUSH4 0x4A1406B1 PUSH1 0xE1 SHL DUP2 MSTORE PUSH1 0x4 ADD PUSH2 0x646 SWAP2 SWAP1 PUSH2 0x185A JUMP JUMPDEST PUSH1 0x1 PUSH1 0x1 PUSH1 0xA0 SHL SUB DUP1 DUP6 AND PUSH0 SWAP1 DUP2 MSTORE PUSH1 0x1 PUSH1 0x20 SWAP1 DUP2 MSTORE PUSH1 0x40 DUP1 DUP4 KECCAK256 SWAP4 DUP8 AND DUP4 MSTORE SWAP3 SWAP1 MSTORE KECCAK256 DUP3 SWAP1 SSTORE DUP1 ISZERO PUSH2 0x1417 JUMPI DUP3 PUSH1 0x1 PUSH1 0x1 PUSH1 0xA0 SHL SUB AND DUP5 PUSH1 0x1 PUSH1 0x1 PUSH1 0xA0 SHL SUB AND PUSH32 0x8C5BE1E5EBEC7D5BD14F71427D1E84F3DD0314C0F7B2291E5B200AC8C7C3B925 DUP5 PUSH1 0x40 MLOAD PUSH2 0x164F SWAP2 DUP2 MSTORE PUSH1 0x20 ADD SWAP1 JUMP JUMPDEST PUSH1 0x40 MLOAD DUP1 SWAP2 SUB SWAP1 LOG3 POP POP POP POP JUMP JUMPDEST PUSH1 0x1 PUSH1 0x1 PUSH1 0xA0 SHL SUB DUP4 AND PUSH2 0x1687 JUMPI DUP1 PUSH1 0x2 PUSH0 DUP3 DUP3 SLOAD PUSH2 0x167C SWAP2 SWAP1 PUSH2 0x19EB JUMP JUMPDEST SWAP1 SWAP2 SSTORE POP PUSH2 0x16E4 SWAP1 POP JUMP JUMPDEST PUSH1 0x1 PUSH1 0x1 PUSH1 0xA0 SHL SUB DUP4 AND PUSH0 SWAP1 DUP2 MSTORE PUSH1 0x20 DUP2 SWAP1 MSTORE PUSH1 0x40 SWAP1 KECCAK256 SLOAD DUP2 DUP2 LT ISZERO PUSH2 0x16C6 JUMPI DUP4 DUP2 DUP4 PUSH1 0x40 MLOAD PUSH4 0x391434E3 PUSH1 0xE2 SHL DUP2 MSTORE PUSH1 0x4 ADD PUSH2 0x646 SWAP4 SWAP3 SWAP2 SWAP1 PUSH2 0x1A60 JUMP JUMPDEST PUSH1 0x1 PUSH1 0x1 PUSH1 0xA0 SHL SUB DUP5 AND PUSH0 SWAP1 DUP2 MSTORE PUSH1 0x20 DUP2 SWAP1 MSTORE PUSH1 0x40 SWAP1 KECCAK256 SWAP1 DUP3 SWAP1 SUB SWAP1 SSTORE JUMPDEST PUSH1 0x1 PUSH1 0x1 PUSH1 0xA0 SHL SUB DUP3 AND PUSH2 0x1700 JUMPI PUSH1 0x2 DUP1 SLOAD DUP3 SWAP1 SUB SWAP1 SSTORE PUSH2 0x171E JUMP JUMPDEST PUSH1 0x1 PUSH1 0x1 PUSH1 0xA0 SHL SUB DUP3 AND PUSH0 SWAP1 DUP2 MSTORE PUSH1 0x20 DUP2 SWAP1 MSTORE PUSH1 0x40 SWAP1 KECCAK256 DUP1 SLOAD DUP3 ADD SWAP1 SSTORE JUMPDEST DUP2 PUSH1 0x1 PUSH1 0x1 PUSH1 0xA0 SHL SUB AND DUP4 PUSH1 0x1 PUSH1 0x1 PUSH1 0xA0 SHL SUB AND PUSH32 0xDDF252AD1BE2C89B69C2B068FC378DAA952BA7F163C4A11628F55A4DF523B3EF DUP4 PUSH1 0x40 MLOAD PUSH2 0x1763 SWAP2 DUP2 MSTORE PUSH1 0x20 ADD SWAP1 JUMP JUMPDEST PUSH1 0x40 MLOAD DUP1 SWAP2 SUB SWAP1 LOG3 POP POP POP JUMP JUMPDEST PUSH1 0x20 DUP2 MSTORE PUSH0 DUP3 MLOAD DUP1 PUSH1 0x20 DUP5 ADD MSTORE DUP1 PUSH1 0x20 DUP6 ADD PUSH1 0x40 DUP6 ADD MCOPY PUSH0 PUSH1 0x40 DUP3 DUP6 ADD ADD MSTORE PUSH1 0x40 PUSH1 0x1F NOT PUSH1 0x1F DUP4 ADD AND DUP5 ADD ADD SWAP2 POP POP SWAP3 SWAP2 POP POP JUMP JUMPDEST PUSH1 0x1 PUSH1 0x1 PUSH1 0xA0 SHL SUB DUP2 AND DUP2 EQ PUSH2 0x5D9 JUMPI PUSH0 DUP1 REVERT JUMPDEST PUSH0 DUP1 PUSH1 0x40 DUP4 DUP6 SUB SLT ISZERO PUSH2 0x17CA JUMPI PUSH0 DUP1 REVERT JUMPDEST DUP3 CALLDATALOAD PUSH2 0x17D5 DUP2 PUSH2 0x17A5 JUMP JUMPDEST SWAP5 PUSH1 0x20 SWAP4 SWAP1 SWAP4 ADD CALLDATALOAD SWAP4 POP POP POP JUMP JUMPDEST PUSH0 PUSH1 0x20 DUP3 DUP5 SUB SLT ISZERO PUSH2 0x17F3 JUMPI PUSH0 DUP1 REVERT JUMPDEST DUP2 CALLDATALOAD PUSH2 0x17FE DUP2 PUSH2 0x17A5 JUMP JUMPDEST SWAP4 SWAP3 POP POP POP JUMP JUMPDEST PUSH0 DUP1 PUSH0 PUSH1 0x60 DUP5 DUP7 SUB SLT ISZERO PUSH2 0x1817 JUMPI PUSH0 DUP1 REVERT JUMPDEST DUP4 CALLDATALOAD PUSH2 0x1822 DUP2 PUSH2 0x17A5 JUMP JUMPDEST SWAP3 POP PUSH1 0x20 DUP5 ADD CALLDATALOAD PUSH2 0x1832 DUP2 PUSH2 0x17A5 JUMP JUMPDEST SWAP3 SWAP6 SWAP3 SWAP5 POP POP POP PUSH1 0x40 SWAP2 SWAP1 SWAP2 ADD CALLDATALOAD SWAP1 JUMP JUMPDEST PUSH0 PUSH1 0x20 DUP3 DUP5 SUB SLT ISZERO PUSH2 0x1853 JUMPI PUSH0 DUP1 REVERT JUMPDEST POP CALLDATALOAD SWAP2 SWAP1 POP JUMP JUMPDEST PUSH1 0x1 PUSH1 0x1 PUSH1 0xA0 SHL SUB SWAP2 SWAP1 SWAP2 AND DUP2 MSTORE PUSH1 0x20 ADD SWAP1 JUMP JUMPDEST PUSH0 DUP1 PUSH1 0x40 DUP4 DUP6 SUB SLT ISZERO PUSH2 0x187F JUMPI PUSH0 DUP1 REVERT JUMPDEST POP POP DUP1 CALLDATALOAD SWAP3 PUSH1 0x20 SWAP1 SWAP2 ADD CALLDATALOAD SWAP2 POP JUMP JUMPDEST PUSH0 DUP1 PUSH1 0x40 DUP4 DUP6 SUB SLT ISZERO PUSH2 0x189F JUMPI PUSH0 DUP1 REVERT JUMPDEST DUP3 CALLDATALOAD PUSH2 0x18AA DUP2 PUSH2 0x17A5 JUMP JUMPDEST SWAP2 POP PUSH1 0x20 DUP4 ADD CALLDATALOAD PUSH2 0x18BA DUP2 PUSH2 0x17A5 JUMP JUMPDEST DUP1 SWAP2 POP POP SWAP3 POP SWAP3 SWAP1 POP JUMP JUMPDEST PUSH1 0x1 DUP2 DUP2 SHR SWAP1 DUP3 AND DUP1 PUSH2 0x18D9 JUMPI PUSH1 0x7F DUP3 AND SWAP2 POP JUMPDEST PUSH1 0x20 DUP3 LT DUP2 SUB PUSH2 0x18F7 JUMPI PUSH4 0x4E487B71 PUSH1 0xE0 SHL PUSH0 MSTORE PUSH1 0x22 PUSH1 0x4 MSTORE PUSH1 0x24 PUSH0 REVERT JUMPDEST POP SWAP2 SWAP1 POP JUMP JUMPDEST PUSH0 PUSH1 0x20 DUP3 DUP5 SUB SLT ISZERO PUSH2 0x190D JUMPI PUSH0 DUP1 REVERT JUMPDEST POP MLOAD SWAP2 SWAP1 POP JUMP JUMPDEST PUSH0 PUSH1 0x20 DUP3 DUP5 SUB SLT ISZERO PUSH2 0x1924 JUMPI PUSH0 DUP1 REVERT JUMPDEST DUP2 MLOAD PUSH2 0x17FE DUP2 PUSH2 0x17A5 JUMP JUMPDEST PUSH1 0x20 DUP1 DUP3 MSTORE PUSH1 0x1D SWAP1 DUP3 ADD MSTORE PUSH32 0x416D6F756E74206D7573742062652067726561746572207468616E2030000000 PUSH1 0x40 DUP3 ADD MSTORE PUSH1 0x60 ADD SWAP1 JUMP JUMPDEST PUSH1 0x1 PUSH1 0x1 PUSH1 0xA0 SHL SUB SWAP4 DUP5 AND DUP2 MSTORE SWAP2 SWAP1 SWAP3 AND PUSH1 0x20 DUP3 ADD MSTORE PUSH1 0x40 DUP2 ADD SWAP2 SWAP1 SWAP2 MSTORE PUSH1 0x60 ADD SWAP1 JUMP JUMPDEST PUSH0 PUSH1 0x20 DUP3 DUP5 SUB SLT ISZERO PUSH2 0x199A JUMPI PUSH0 DUP1 REVERT JUMPDEST DUP2 MLOAD DUP1 ISZERO ISZERO DUP2 EQ PUSH2 0x17FE JUMPI PUSH0 DUP1 REVERT JUMPDEST PUSH1 0x20 DUP1 DUP3 MSTORE PUSH1 0x14 SWAP1 DUP3 ADD MSTORE PUSH20 0x1554D115081D1C985B9CD9995C8819985A5B1959 PUSH1 0x62 SHL PUSH1 0x40 DUP3 ADD MSTORE PUSH1 0x60 ADD SWAP1 JUMP JUMPDEST PUSH4 0x4E487B71 PUSH1 0xE0 SHL PUSH0 MSTORE PUSH1 0x11 PUSH1 0x4 MSTORE PUSH1 0x24 PUSH0 REVERT JUMPDEST DUP1 DUP3 ADD DUP1 DUP3 GT ISZERO PUSH2 0x497 JUMPI PUSH2 0x497 PUSH2 0x19D7 JUMP JUMPDEST DUP2 DUP2 SUB DUP2 DUP2 GT ISZERO PUSH2 0x497 JUMPI PUSH2 0x497 PUSH2 0x19D7 JUMP JUMPDEST PUSH1 0x1 PUSH1 0x1 PUSH1 0xA0 SHL SUB SWAP3 SWAP1 SWAP3 AND DUP3 MSTORE PUSH1 0x20 DUP3 ADD MSTORE PUSH1 0x40 ADD SWAP1 JUMP JUMPDEST DUP1 DUP3 MUL DUP2 ISZERO DUP3 DUP3 DIV DUP5 EQ OR PUSH2 0x497 JUMPI PUSH2 0x497 PUSH2 0x19D7 JUMP JUMPDEST PUSH0 DUP3 PUSH2 0x1A5B JUMPI PUSH4 0x4E487B71 PUSH1 0xE0 SHL PUSH0 MSTORE PUSH1 0x12 PUSH1 0x4 MSTORE PUSH1 0x24 PUSH0 REVERT JUMPDEST POP DIV SWAP1 JUMP JUMPDEST PUSH1 0x1 PUSH1 0x1 PUSH1 0xA0 SHL SUB SWAP4 SWAP1 SWAP4 AND DUP4 MSTORE PUSH1 0x20 DUP4 ADD SWAP2 SWAP1 SWAP2 MSTORE PUSH1 0x40 DUP3 ADD MSTORE PUSH1 0x60 ADD SWAP1 JUMP INVALID 0xB0 0xBD DUP9 0xCD 0xAE DUP4 0xF7 0x4F SWAP2 DUP15 0xB6 0xBF 0x26 0xD9 SWAP14 0xCB EXTCODECOPY ISZERO ADDRESS MSTORE8 0xF CALLER SWAP3 CALLER 0xB0 0x29 0xE3 0xB6 LOG0 EXP 0xC5 SIGNEXTEND LOG2 PUSH5 0x6970667358 0x22 SLT KECCAK256 0xEA COINBASE GASLIMIT 0xD4 0xDC PUSH32 0xAF94F70F4760B006724A1827115F157D15433C2370BED12F95F164736F6C6343 STOP ADDMOD BYTE STOP CALLER "
				},
				"gasEstimates": {
					"creation": {
						"codeDepositCost": "1374200",
						"executionCost": "infinite",
						"totalCost": "infinite"
					},
					"external": {
						"allowance(address,address)": "infinite",
						"approve(address,uint256)": "24728",
						"balanceOf(address)": "2818",
						"buyStock(uint256,uint256)": "infinite",
						"claimUSDT(uint256)": "infinite",
						"currentHistory()": "2734",
						"decimals()": "352",
						"exchangeRate()": "2525",
						"historyFactory()": "2844",
						"lastTotalUSDTReceived(address)": "2719",
						"lastUpdatedMonth()": "2547",
						"name()": "infinite",
						"owner()": "2765",
						"receiveProfitFromContract(uint256)": "infinite",
						"renounceOwnership()": "infinite",
						"saleQuota()": "2481",
						"setExchangeRate(uint256)": "26290",
						"setSaleQuota(uint256)": "26191",
						"setTreeCom(address)": "26816",
						"symbol()": "infinite",
						"totalSupply()": "2346",
						"totalUSDTPurchased()": "2635",
						"totalUSDTReceived()": "2261",
						"totalUSDTWithdrawn()": "2613",
						"transfer(address,uint256)": "infinite",
						"transferFrom(address,address,uint256)": "infinite",
						"transferOwnership(address)": "infinite",
						"treeCommissionContract()": "2800",
						"updateTransactionHistory()": "infinite",
						"usdtToken()": "2888",
						"userUSDTBalance(address)": "2653",
						"userUSDTWithdrawn(address)": "3115",
						"withdrawUSDTCommission()": "infinite",
						"withdrawUSDTPurchased(uint256)": "infinite"
					},
					"internal": {
						"updateUserCommission(address)": "infinite"
					}
				},
				"methodIdentifiers": {
					"allowance(address,address)": "dd62ed3e",
					"approve(address,uint256)": "095ea7b3",
					"balanceOf(address)": "70a08231",
					"buyStock(uint256,uint256)": "b9303dbd",
					"claimUSDT(uint256)": "b0f9006a",
					"currentHistory()": "8a9731dd",
					"decimals()": "313ce567",
					"exchangeRate()": "3ba0b9a9",
					"historyFactory()": "a1968579",
					"lastTotalUSDTReceived(address)": "371047cd",
					"lastUpdatedMonth()": "45c91439",
					"name()": "06fdde03",
					"owner()": "8da5cb5b",
					"receiveProfitFromContract(uint256)": "29f94fb8",
					"renounceOwnership()": "715018a6",
					"saleQuota()": "366a1114",
					"setExchangeRate(uint256)": "db068e0e",
					"setSaleQuota(uint256)": "bb644776",
					"setTreeCom(address)": "13d7281e",
					"symbol()": "95d89b41",
					"totalSupply()": "18160ddd",
					"totalUSDTPurchased()": "88f6eac7",
					"totalUSDTReceived()": "06865151",
					"totalUSDTWithdrawn()": "73cb76ca",
					"transfer(address,uint256)": "a9059cbb",
					"transferFrom(address,address,uint256)": "23b872dd",
					"transferOwnership(address)": "f2fde38b",
					"treeCommissionContract()": "a0815a54",
					"updateTransactionHistory()": "20f1c043",
					"usdtToken()": "a98ad46c",
					"userUSDTBalance(address)": "30015118",
					"userUSDTWithdrawn(address)": "be6172ce",
					"withdrawUSDTCommission()": "a0de1c37",
					"withdrawUSDTPurchased(uint256)": "c28c2670"
				}
			},
			"storageLayout": {
				"storage": [
					{
						"astId": 307,
						"contract": "src/eStock.sol:eStock",
						"label": "_balances",
						"offset": 0,
						"slot": "0",
						"type": "t_mapping(t_address,t_uint256)"
					},
					{
						"astId": 313,
						"contract": "src/eStock.sol:eStock",
						"label": "_allowances",
						"offset": 0,
						"slot": "1",
						"type": "t_mapping(t_address,t_mapping(t_address,t_uint256))"
					},
					{
						"astId": 315,
						"contract": "src/eStock.sol:eStock",
						"label": "_totalSupply",
						"offset": 0,
						"slot": "2",
						"type": "t_uint256"
					},
					{
						"astId": 317,
						"contract": "src/eStock.sol:eStock",
						"label": "_name",
						"offset": 0,
						"slot": "3",
						"type": "t_string_storage"
					},
					{
						"astId": 319,
						"contract": "src/eStock.sol:eStock",
						"label": "_symbol",
						"offset": 0,
						"slot": "4",
						"type": "t_string_storage"
					},
					{
						"astId": 8,
						"contract": "src/eStock.sol:eStock",
						"label": "_owner",
						"offset": 0,
						"slot": "5",
						"type": "t_address"
					},
					{
						"astId": 1288,
						"contract": "src/eStock.sol:eStock",
						"label": "historyFactory",
						"offset": 0,
						"slot": "6",
						"type": "t_contract(TransactionHistoryFactory)1281"
					},
					{
						"astId": 1290,
						"contract": "src/eStock.sol:eStock",
						"label": "currentHistory",
						"offset": 0,
						"slot": "7",
						"type": "t_address"
					},
					{
						"astId": 1292,
						"contract": "src/eStock.sol:eStock",
						"label": "lastUpdatedMonth",
						"offset": 0,
						"slot": "8",
						"type": "t_uint256"
					},
					{
						"astId": 1295,
						"contract": "src/eStock.sol:eStock",
						"label": "usdtToken",
						"offset": 0,
						"slot": "9",
						"type": "t_contract(IERC20)877"
					},
					{
						"astId": 1297,
						"contract": "src/eStock.sol:eStock",
						"label": "exchangeRate",
						"offset": 0,
						"slot": "10",
						"type": "t_uint256"
					},
					{
						"astId": 1299,
						"contract": "src/eStock.sol:eStock",
						"label": "saleQuota",
						"offset": 0,
						"slot": "11",
						"type": "t_uint256"
					},
					{
						"astId": 1301,
						"contract": "src/eStock.sol:eStock",
						"label": "totalUSDTPurchased",
						"offset": 0,
						"slot": "12",
						"type": "t_uint256"
					},
					{
						"astId": 1303,
						"contract": "src/eStock.sol:eStock",
						"label": "totalUSDTReceived",
						"offset": 0,
						"slot": "13",
						"type": "t_uint256"
					},
					{
						"astId": 1305,
						"contract": "src/eStock.sol:eStock",
						"label": "totalUSDTWithdrawn",
						"offset": 0,
						"slot": "14",
						"type": "t_uint256"
					},
					{
						"astId": 1309,
						"contract": "src/eStock.sol:eStock",
						"label": "userUSDTBalance",
						"offset": 0,
						"slot": "15",
						"type": "t_mapping(t_address,t_uint256)"
					},
					{
						"astId": 1313,
						"contract": "src/eStock.sol:eStock",
						"label": "userUSDTWithdrawn",
						"offset": 0,
						"slot": "16",
						"type": "t_mapping(t_address,t_uint256)"
					},
					{
						"astId": 1317,
						"contract": "src/eStock.sol:eStock",
						"label": "lastTotalUSDTReceived",
						"offset": 0,
						"slot": "17",
						"type": "t_mapping(t_address,t_uint256)"
					},
					{
						"astId": 1319,
						"contract": "src/eStock.sol:eStock",
						"label": "treeCommissionContract",
						"offset": 0,
						"slot": "18",
						"type": "t_address"
					}
				],
				"types": {
					"t_address": {
						"encoding": "inplace",
						"label": "address",
						"numberOfBytes": "20"
					},
					"t_contract(IERC20)877": {
						"encoding": "inplace",
						"label": "contract IERC20",
						"numberOfBytes": "20"
					},
					"t_contract(TransactionHistoryFactory)1281": {
						"encoding": "inplace",
						"label": "contract TransactionHistoryFactory",
						"numberOfBytes": "20"
					},
					"t_mapping(t_address,t_mapping(t_address,t_uint256))": {
						"encoding": "mapping",
						"key": "t_address",
						"label": "mapping(address => mapping(address => uint256))",
						"numberOfBytes": "32",
						"value": "t_mapping(t_address,t_uint256)"
					},
					"t_mapping(t_address,t_uint256)": {
						"encoding": "mapping",
						"key": "t_address",
						"label": "mapping(address => uint256)",
						"numberOfBytes": "32",
						"value": "t_uint256"
					},
					"t_string_storage": {
						"encoding": "bytes",
						"label": "string",
						"numberOfBytes": "32"
					},
					"t_uint256": {
						"encoding": "inplace",
						"label": "uint256",
						"numberOfBytes": "32"
					}
				}
			},
			"userdoc": {
				"kind": "user",
				"methods": {},
				"version": 1
			}
		}
	}
}