{
	"src/activeCode.sol": {
		"MerchantActiveCode": {
			"abi": [
				{
					"inputs": [],
					"stateMutability": "nonpayable",
					"type": "constructor"
				},
				{
					"anonymous": false,
					"inputs": [
						{
							"indexed": true,
							"internalType": "address",
							"name": "user",
							"type": "address"
						},
						{
							"indexed": false,
							"internalType": "uint256",
							"name": "activeCode",
							"type": "uint256"
						}
					],
					"name": "ActiveCodeUsed",
					"type": "event"
				},
				{
					"anonymous": false,
					"inputs": [
						{
							"indexed": true,
							"internalType": "address",
							"name": "device",
							"type": "address"
						},
						{
							"indexed": false,
							"internalType": "uint256",
							"name": "activeCode",
							"type": "uint256"
						}
					],
					"name": "DeviceRegistered",
					"type": "event"
				},
				{
					"anonymous": false,
					"inputs": [
						{
							"indexed": true,
							"internalType": "address",
							"name": "merchant",
							"type": "address"
						},
						{
							"indexed": false,
							"internalType": "string",
							"name": "domain",
							"type": "string"
						}
					],
					"name": "MerchantRegistered",
					"type": "event"
				},
				{
					"anonymous": false,
					"inputs": [
						{
							"indexed": true,
							"internalType": "address",
							"name": "merchant",
							"type": "address"
						}
					],
					"name": "MerchantRemoved",
					"type": "event"
				},
				{
					"anonymous": false,
					"inputs": [
						{
							"indexed": true,
							"internalType": "address",
							"name": "merchant",
							"type": "address"
						},
						{
							"indexed": false,
							"internalType": "string",
							"name": "domain",
							"type": "string"
						}
					],
					"name": "MerchantUpdated",
					"type": "event"
				},
				{
					"inputs": [
						{
							"internalType": "uint256",
							"name": "",
							"type": "uint256"
						}
					],
					"name": "activeCodeToDevice",
					"outputs": [
						{
							"internalType": "address",
							"name": "",
							"type": "address"
						}
					],
					"stateMutability": "view",
					"type": "function"
				},
				{
					"inputs": [
						{
							"internalType": "address",
							"name": "_merchant",
							"type": "address"
						},
						{
							"internalType": "string",
							"name": "_domain",
							"type": "string"
						},
						{
							"internalType": "string",
							"name": "_installUrl",
							"type": "string"
						},
						{
							"internalType": "string",
							"name": "_bundleId",
							"type": "string"
						},
						{
							"internalType": "string",
							"name": "_platform",
							"type": "string"
						}
					],
					"name": "addMerchant",
					"outputs": [],
					"stateMutability": "nonpayable",
					"type": "function"
				},
				{
					"inputs": [
						{
							"internalType": "address",
							"name": "",
							"type": "address"
						}
					],
					"name": "devices",
					"outputs": [
						{
							"internalType": "string",
							"name": "screenSize",
							"type": "string"
						},
						{
							"internalType": "string",
							"name": "os",
							"type": "string"
						},
						{
							"internalType": "string",
							"name": "versionOs",
							"type": "string"
						},
						{
							"internalType": "string",
							"name": "refCode",
							"type": "string"
						},
						{
							"internalType": "uint256",
							"name": "activeCode",
							"type": "uint256"
						},
						{
							"internalType": "uint256",
							"name": "timestamp",
							"type": "uint256"
						}
					],
					"stateMutability": "view",
					"type": "function"
				},
				{
					"inputs": [
						{
							"internalType": "uint256",
							"name": "_activeCode",
							"type": "uint256"
						}
					],
					"name": "getActiveCodeInfo",
					"outputs": [
						{
							"components": [
								{
									"internalType": "string",
									"name": "domain",
									"type": "string"
								},
								{
									"internalType": "string",
									"name": "installUrl",
									"type": "string"
								},
								{
									"internalType": "string",
									"name": "bundleId",
									"type": "string"
								},
								{
									"internalType": "string",
									"name": "platform",
									"type": "string"
								},
								{
									"internalType": "uint256",
									"name": "createTime",
									"type": "uint256"
								}
							],
							"internalType": "struct MerchantActiveCode.Merchant",
							"name": "",
							"type": "tuple"
						},
						{
							"components": [
								{
									"internalType": "string",
									"name": "screenSize",
									"type": "string"
								},
								{
									"internalType": "string",
									"name": "os",
									"type": "string"
								},
								{
									"internalType": "string",
									"name": "versionOs",
									"type": "string"
								},
								{
									"internalType": "string",
									"name": "refCode",
									"type": "string"
								},
								{
									"internalType": "uint256",
									"name": "activeCode",
									"type": "uint256"
								},
								{
									"internalType": "uint256",
									"name": "timestamp",
									"type": "uint256"
								}
							],
							"internalType": "struct MerchantActiveCode.Device",
							"name": "",
							"type": "tuple"
						}
					],
					"stateMutability": "view",
					"type": "function"
				},
				{
					"inputs": [],
					"name": "getRegisterDevice",
					"outputs": [
						{
							"internalType": "uint256",
							"name": "",
							"type": "uint256"
						}
					],
					"stateMutability": "view",
					"type": "function"
				},
				{
					"inputs": [
						{
							"internalType": "address",
							"name": "",
							"type": "address"
						}
					],
					"name": "merchants",
					"outputs": [
						{
							"internalType": "string",
							"name": "domain",
							"type": "string"
						},
						{
							"internalType": "string",
							"name": "installUrl",
							"type": "string"
						},
						{
							"internalType": "string",
							"name": "bundleId",
							"type": "string"
						},
						{
							"internalType": "string",
							"name": "platform",
							"type": "string"
						},
						{
							"internalType": "uint256",
							"name": "createTime",
							"type": "uint256"
						}
					],
					"stateMutability": "view",
					"type": "function"
				},
				{
					"inputs": [],
					"name": "owner",
					"outputs": [
						{
							"internalType": "address",
							"name": "",
							"type": "address"
						}
					],
					"stateMutability": "view",
					"type": "function"
				},
				{
					"inputs": [
						{
							"internalType": "string",
							"name": "_screenSize",
							"type": "string"
						},
						{
							"internalType": "string",
							"name": "_os",
							"type": "string"
						},
						{
							"internalType": "string",
							"name": "_versionOs",
							"type": "string"
						},
						{
							"internalType": "string",
							"name": "_refCode",
							"type": "string"
						}
					],
					"name": "registerDevice",
					"outputs": [
						{
							"internalType": "uint256",
							"name": "",
							"type": "uint256"
						}
					],
					"stateMutability": "nonpayable",
					"type": "function"
				},
				{
					"inputs": [],
					"name": "removeExpiredData",
					"outputs": [],
					"stateMutability": "nonpayable",
					"type": "function"
				},
				{
					"inputs": [
						{
							"internalType": "address",
							"name": "_merchant",
							"type": "address"
						}
					],
					"name": "removeMerchant",
					"outputs": [],
					"stateMutability": "nonpayable",
					"type": "function"
				},
				{
					"inputs": [
						{
							"internalType": "string",
							"name": "_domain",
							"type": "string"
						},
						{
							"internalType": "string",
							"name": "_installUrl",
							"type": "string"
						},
						{
							"internalType": "string",
							"name": "_bundleId",
							"type": "string"
						},
						{
							"internalType": "string",
							"name": "_platform",
							"type": "string"
						}
					],
					"name": "updateMerchant",
					"outputs": [],
					"stateMutability": "nonpayable",
					"type": "function"
				},
				{
					"inputs": [
						{
							"internalType": "uint256",
							"name": "_activeCode",
							"type": "uint256"
						}
					],
					"name": "useActiveCodeInfo",
					"outputs": [],
					"stateMutability": "nonpayable",
					"type": "function"
				}
			],
			"devdoc": {
				"kind": "dev",
				"methods": {},
				"version": 1
			},
			"evm": {
				"assembly": "    /* \"src/activeCode.sol\":1856:6120  contract MerchantActiveCode {... */\n  mstore(0x40, 0x80)\n    /* \"src/activeCode.sol\":2905:2954  constructor() {... */\n  callvalue\n  dup1\n  iszero\n  tag_1\n  jumpi\n  0x00\n  dup1\n  revert\ntag_1:\n  pop\n    /* \"src/activeCode.sol\":2937:2947  msg.sender */\n  caller\n    /* \"src/activeCode.sol\":2929:2934  owner */\n  0x00\n  dup1\n    /* \"src/activeCode.sol\":2929:2947  owner = msg.sender */\n  0x0100\n  exp\n  dup2\n  sload\n  dup2\n  0xffffffffffffffffffffffffffffffffffffffff\n  mul\n  not\n  and\n  swap1\n  dup4\n  0xffffffffffffffffffffffffffffffffffffffff\n  and\n  mul\n  or\n  swap1\n  sstore\n  pop\n    /* \"src/activeCode.sol\":1856:6120  contract MerchantActiveCode {... */\n  dataSize(sub_0)\n  dup1\n  dataOffset(sub_0)\n  0x00\n  codecopy\n  0x00\n  return\nstop\n\nsub_0: assembly {\n        /* \"src/activeCode.sol\":1856:6120  contract MerchantActiveCode {... */\n      mstore(0x40, 0x80)\n      callvalue\n      dup1\n      iszero\n      tag_1\n      jumpi\n      0x00\n      dup1\n      revert\n    tag_1:\n      pop\n      jumpi(tag_2, lt(calldatasize, 0x04))\n      shr(0xe0, calldataload(0x00))\n      dup1\n      0xcef33810\n      gt\n      tag_15\n      jumpi\n      dup1\n      0xcef33810\n      eq\n      tag_9\n      jumpi\n      dup1\n      0xd4dd4b47\n      eq\n      tag_10\n      jumpi\n      dup1\n      0xe7b4cac6\n      eq\n      tag_11\n      jumpi\n      dup1\n      0xee14e939\n      eq\n      tag_12\n      jumpi\n      dup1\n      0xeef814d3\n      eq\n      tag_13\n      jumpi\n      dup1\n      0xf4f97658\n      eq\n      tag_14\n      jumpi\n      jump(tag_2)\n    tag_15:\n      dup1\n      0x0b75c58f\n      eq\n      tag_3\n      jumpi\n      dup1\n      0x133adab6\n      eq\n      tag_4\n      jumpi\n      dup1\n      0x24e8779f\n      eq\n      tag_5\n      jumpi\n      dup1\n      0x3ab0639b\n      eq\n      tag_6\n      jumpi\n      dup1\n      0x8da5cb5b\n      eq\n      tag_7\n      jumpi\n      dup1\n      0xcecfe084\n      eq\n      tag_8\n      jumpi\n    tag_2:\n      0x00\n      dup1\n      revert\n        /* \"src/activeCode.sol\":2399:2452  mapping(uint256 => address) public activeCodeToDevice */\n    tag_3:\n      tag_16\n      0x04\n      dup1\n      calldatasize\n      sub\n      dup2\n      add\n      swap1\n      tag_17\n      swap2\n      swap1\n      tag_18\n      jump\t// in\n    tag_17:\n      tag_19\n      jump\t// in\n    tag_16:\n      mload(0x40)\n      tag_20\n      swap2\n      swap1\n      tag_21\n      jump\t// in\n    tag_20:\n      mload(0x40)\n      dup1\n      swap2\n      sub\n      swap1\n      return\n        /* \"src/activeCode.sol\":3988:4211  function removeMerchant(address _merchant) external onlyOwner {... */\n    tag_4:\n      tag_22\n      0x04\n      dup1\n      calldatasize\n      sub\n      dup2\n      add\n      swap1\n      tag_23\n      swap2\n      swap1\n      tag_24\n      jump\t// in\n    tag_23:\n      tag_25\n      jump\t// in\n    tag_22:\n      stop\n        /* \"src/activeCode.sol\":5424:5883  function useActiveCodeInfo(uint256 _activeCode) external {... */\n    tag_5:\n      tag_26\n      0x04\n      dup1\n      calldatasize\n      sub\n      dup2\n      add\n      swap1\n      tag_27\n      swap2\n      swap1\n      tag_18\n      jump\t// in\n    tag_27:\n      tag_28\n      jump\t// in\n    tag_26:\n      stop\n        /* \"src/activeCode.sol\":5893:6118  function removeExpiredData() external onlyOwner {... */\n    tag_6:\n      tag_29\n      tag_30\n      jump\t// in\n    tag_29:\n      stop\n        /* \"src/activeCode.sol\":1927:1947  address public owner */\n    tag_7:\n      tag_31\n      tag_32\n      jump\t// in\n    tag_31:\n      mload(0x40)\n      tag_33\n      swap2\n      swap1\n      tag_21\n      jump\t// in\n    tag_33:\n      mload(0x40)\n      dup1\n      swap2\n      sub\n      swap1\n      return\n        /* \"src/activeCode.sol\":4231:4842  function registerDevice(string memory _screenSize, string memory _os, string memory _versionOs, string memory _refCode) external returns (uint256) {... */\n    tag_8:\n      tag_34\n      0x04\n      dup1\n      calldatasize\n      sub\n      dup2\n      add\n      swap1\n      tag_35\n      swap2\n      swap1\n      tag_36\n      jump\t// in\n    tag_35:\n      tag_37\n      jump\t// in\n    tag_34:\n      mload(0x40)\n      tag_38\n      swap2\n      swap1\n      tag_39\n      jump\t// in\n    tag_38:\n      mload(0x40)\n      dup1\n      swap2\n      sub\n      swap1\n      return\n        /* \"src/activeCode.sol\":4977:5413  function getActiveCodeInfo(uint256 _activeCode) external view returns (Merchant memory, Device memory) {... */\n    tag_9:\n      tag_40\n      0x04\n      dup1\n      calldatasize\n      sub\n      dup2\n      add\n      swap1\n      tag_41\n      swap2\n      swap1\n      tag_18\n      jump\t// in\n    tag_41:\n      tag_42\n      jump\t// in\n    tag_40:\n      mload(0x40)\n      tag_43\n      swap3\n      swap2\n      swap1\n      tag_44\n      jump\t// in\n    tag_43:\n      mload(0x40)\n      dup1\n      swap2\n      sub\n      swap1\n      return\n        /* \"src/activeCode.sol\":2964:3492  function addMerchant(address _merchant, string memory _domain, string memory _installUrl, string memory _bundleId, string memory _platform) external onlyOwner {... */\n    tag_10:\n      tag_45\n      0x04\n      dup1\n      calldatasize\n      sub\n      dup2\n      add\n      swap1\n      tag_46\n      swap2\n      swap1\n      tag_47\n      jump\t// in\n    tag_46:\n      tag_48\n      jump\t// in\n    tag_45:\n      stop\n        /* \"src/activeCode.sol\":2352:2393  mapping(address => Device) public devices */\n    tag_11:\n      tag_49\n      0x04\n      dup1\n      calldatasize\n      sub\n      dup2\n      add\n      swap1\n      tag_50\n      swap2\n      swap1\n      tag_24\n      jump\t// in\n    tag_50:\n      tag_51\n      jump\t// in\n    tag_49:\n      mload(0x40)\n      tag_52\n      swap7\n      swap6\n      swap5\n      swap4\n      swap3\n      swap2\n      swap1\n      tag_53\n      jump\t// in\n    tag_52:\n      mload(0x40)\n      dup1\n      swap2\n      sub\n      swap1\n      return\n        /* \"src/activeCode.sol\":2301:2346  mapping(address => Merchant) public merchants */\n    tag_12:\n      tag_54\n      0x04\n      dup1\n      calldatasize\n      sub\n      dup2\n      add\n      swap1\n      tag_55\n      swap2\n      swap1\n      tag_24\n      jump\t// in\n    tag_55:\n      tag_56\n      jump\t// in\n    tag_54:\n      mload(0x40)\n      tag_57\n      swap6\n      swap5\n      swap4\n      swap3\n      swap2\n      swap1\n      tag_58\n      jump\t// in\n    tag_57:\n      mload(0x40)\n      dup1\n      swap2\n      sub\n      swap1\n      return\n        /* \"src/activeCode.sol\":4852:4967  function getRegisterDevice() external view returns (uint256) {... */\n    tag_13:\n      tag_59\n      tag_60\n      jump\t// in\n    tag_59:\n      mload(0x40)\n      tag_61\n      swap2\n      swap1\n      tag_39\n      jump\t// in\n    tag_61:\n      mload(0x40)\n      dup1\n      swap2\n      sub\n      swap1\n      return\n        /* \"src/activeCode.sol\":3502:3978  function updateMerchant(string memory _domain, string memory _installUrl, string memory _bundleId, string memory _platform) external {... */\n    tag_14:\n      tag_62\n      0x04\n      dup1\n      calldatasize\n      sub\n      dup2\n      add\n      swap1\n      tag_63\n      swap2\n      swap1\n      tag_36\n      jump\t// in\n    tag_63:\n      tag_64\n      jump\t// in\n    tag_62:\n      stop\n        /* \"src/activeCode.sol\":2399:2452  mapping(uint256 => address) public activeCodeToDevice */\n    tag_19:\n      mstore(0x20, 0x03)\n      dup1\n      0x00\n      mstore\n      keccak256(0x00, 0x40)\n      0x00\n      swap2\n      pop\n      sload\n      swap1\n      0x0100\n      exp\n      swap1\n      div\n      0xffffffffffffffffffffffffffffffffffffffff\n      and\n      dup2\n      jump\t// out\n        /* \"src/activeCode.sol\":3988:4211  function removeMerchant(address _merchant) external onlyOwner {... */\n    tag_25:\n        /* \"src/activeCode.sol\":2853:2858  owner */\n      0x00\n      dup1\n      sload\n      swap1\n      0x0100\n      exp\n      swap1\n      div\n      0xffffffffffffffffffffffffffffffffffffffff\n      and\n        /* \"src/activeCode.sol\":2839:2858  msg.sender == owner */\n      0xffffffffffffffffffffffffffffffffffffffff\n      and\n        /* \"src/activeCode.sol\":2839:2849  msg.sender */\n      caller\n        /* \"src/activeCode.sol\":2839:2858  msg.sender == owner */\n      0xffffffffffffffffffffffffffffffffffffffff\n      and\n      eq\n        /* \"src/activeCode.sol\":2831:2877  require(msg.sender == owner, \"Not authorized\") */\n      tag_66\n      jumpi\n      mload(0x40)\n      0x08c379a000000000000000000000000000000000000000000000000000000000\n      dup2\n      mstore\n      0x04\n      add\n      tag_67\n      swap1\n      tag_68\n      jump\t// in\n    tag_67:\n      mload(0x40)\n      dup1\n      swap2\n      sub\n      swap1\n      revert\n    tag_66:\n        /* \"src/activeCode.sol\":4102:4103  0 */\n      0x00\n        /* \"src/activeCode.sol\":4068:4077  merchants */\n      0x01\n        /* \"src/activeCode.sol\":4068:4088  merchants[_merchant] */\n      0x00\n        /* \"src/activeCode.sol\":4078:4087  _merchant */\n      dup4\n        /* \"src/activeCode.sol\":4068:4088  merchants[_merchant] */\n      0xffffffffffffffffffffffffffffffffffffffff\n      and\n      0xffffffffffffffffffffffffffffffffffffffff\n      and\n      dup2\n      mstore\n      0x20\n      add\n      swap1\n      dup2\n      mstore\n      0x20\n      add\n      0x00\n      keccak256\n        /* \"src/activeCode.sol\":4068:4099  merchants[_merchant].createTime */\n      0x04\n      add\n      sload\n        /* \"src/activeCode.sol\":4068:4103  merchants[_merchant].createTime > 0 */\n      gt\n        /* \"src/activeCode.sol\":4060:4126  require(merchants[_merchant].createTime > 0, \"Merchant not found\") */\n      tag_70\n      jumpi\n      mload(0x40)\n      0x08c379a000000000000000000000000000000000000000000000000000000000\n      dup2\n      mstore\n      0x04\n      add\n      tag_71\n      swap1\n      tag_72\n      jump\t// in\n    tag_71:\n      mload(0x40)\n      dup1\n      swap2\n      sub\n      swap1\n      revert\n    tag_70:\n        /* \"src/activeCode.sol\":4143:4152  merchants */\n      0x01\n        /* \"src/activeCode.sol\":4143:4163  merchants[_merchant] */\n      0x00\n        /* \"src/activeCode.sol\":4153:4162  _merchant */\n      dup3\n        /* \"src/activeCode.sol\":4143:4163  merchants[_merchant] */\n      0xffffffffffffffffffffffffffffffffffffffff\n      and\n      0xffffffffffffffffffffffffffffffffffffffff\n      and\n      dup2\n      mstore\n      0x20\n      add\n      swap1\n      dup2\n      mstore\n      0x20\n      add\n      0x00\n      keccak256\n      0x00\n        /* \"src/activeCode.sol\":4136:4163  delete merchants[_merchant] */\n      dup1\n      dup3\n      add\n      0x00\n      tag_73\n      swap2\n      swap1\n      tag_74\n      jump\t// in\n    tag_73:\n      0x01\n      dup3\n      add\n      0x00\n      tag_75\n      swap2\n      swap1\n      tag_74\n      jump\t// in\n    tag_75:\n      0x02\n      dup3\n      add\n      0x00\n      tag_76\n      swap2\n      swap1\n      tag_74\n      jump\t// in\n    tag_76:\n      0x03\n      dup3\n      add\n      0x00\n      tag_77\n      swap2\n      swap1\n      tag_74\n      jump\t// in\n    tag_77:\n      0x04\n      dup3\n      add\n      0x00\n      swap1\n      sstore\n      pop\n      pop\n        /* \"src/activeCode.sol\":4194:4203  _merchant */\n      dup1\n        /* \"src/activeCode.sol\":4178:4204  MerchantRemoved(_merchant) */\n      0xffffffffffffffffffffffffffffffffffffffff\n      and\n      0xae4bdf5adabafca6721399496d24fe50fb6564effcb386fbae92de33540763bc\n      mload(0x40)\n      mload(0x40)\n      dup1\n      swap2\n      sub\n      swap1\n      log2\n        /* \"src/activeCode.sol\":3988:4211  function removeMerchant(address _merchant) external onlyOwner {... */\n      pop\n      jump\t// out\n        /* \"src/activeCode.sol\":5424:5883  function useActiveCodeInfo(uint256 _activeCode) external {... */\n    tag_28:\n        /* \"src/activeCode.sol\":5529:5576  ActiveCodeGenerator.verifyChecksum(_activeCode) */\n      tag_79\n        /* \"src/activeCode.sol\":5564:5575  _activeCode */\n      dup2\n        /* \"src/activeCode.sol\":5529:5563  ActiveCodeGenerator.verifyChecksum */\n      tag_80\n        /* \"src/activeCode.sol\":5529:5576  ActiveCodeGenerator.verifyChecksum(_activeCode) */\n      jump\t// in\n    tag_79:\n        /* \"src/activeCode.sol\":5521:5603  require(ActiveCodeGenerator.verifyChecksum(_activeCode), \"Active code not exists\") */\n      tag_81\n      jumpi\n      mload(0x40)\n      0x08c379a000000000000000000000000000000000000000000000000000000000\n      dup2\n      mstore\n      0x04\n      add\n      tag_82\n      swap1\n      tag_83\n      jump\t// in\n    tag_82:\n      mload(0x40)\n      dup1\n      swap2\n      sub\n      swap1\n      revert\n    tag_81:\n        /* \"src/activeCode.sol\":5614:5633  address deviceOwner */\n      0x00\n        /* \"src/activeCode.sol\":5636:5654  activeCodeToDevice */\n      0x03\n        /* \"src/activeCode.sol\":5636:5667  activeCodeToDevice[_activeCode] */\n      0x00\n        /* \"src/activeCode.sol\":5655:5666  _activeCode */\n      dup4\n        /* \"src/activeCode.sol\":5636:5667  activeCodeToDevice[_activeCode] */\n      dup2\n      mstore\n      0x20\n      add\n      swap1\n      dup2\n      mstore\n      0x20\n      add\n      0x00\n      keccak256\n      0x00\n      swap1\n      sload\n      swap1\n      0x0100\n      exp\n      swap1\n      div\n      0xffffffffffffffffffffffffffffffffffffffff\n      and\n        /* \"src/activeCode.sol\":5614:5667  address deviceOwner = activeCodeToDevice[_activeCode] */\n      swap1\n      pop\n        /* \"src/activeCode.sol\":5708:5709  0 */\n      0x00\n        /* \"src/activeCode.sol\":5685:5710  deviceOwner != address(0) */\n      0xffffffffffffffffffffffffffffffffffffffff\n      and\n        /* \"src/activeCode.sol\":5685:5696  deviceOwner */\n      dup2\n        /* \"src/activeCode.sol\":5685:5710  deviceOwner != address(0) */\n      0xffffffffffffffffffffffffffffffffffffffff\n      and\n      sub\n        /* \"src/activeCode.sol\":5677:5736  require(deviceOwner != address(0), \"Active code not found\") */\n      tag_84\n      jumpi\n      mload(0x40)\n      0x08c379a000000000000000000000000000000000000000000000000000000000\n      dup2\n      mstore\n      0x04\n      add\n      tag_85\n      swap1\n      tag_86\n      jump\t// in\n    tag_85:\n      mload(0x40)\n      dup1\n      swap2\n      sub\n      swap1\n      revert\n    tag_84:\n        /* \"src/activeCode.sol\":5753:5760  devices */\n      0x02\n        /* \"src/activeCode.sol\":5753:5773  devices[deviceOwner] */\n      0x00\n        /* \"src/activeCode.sol\":5761:5772  deviceOwner */\n      dup3\n        /* \"src/activeCode.sol\":5753:5773  devices[deviceOwner] */\n      0xffffffffffffffffffffffffffffffffffffffff\n      and\n      0xffffffffffffffffffffffffffffffffffffffff\n      and\n      dup2\n      mstore\n      0x20\n      add\n      swap1\n      dup2\n      mstore\n      0x20\n      add\n      0x00\n      keccak256\n      0x00\n        /* \"src/activeCode.sol\":5746:5773  delete devices[deviceOwner] */\n      dup1\n      dup3\n      add\n      0x00\n      tag_87\n      swap2\n      swap1\n      tag_74\n      jump\t// in\n    tag_87:\n      0x01\n      dup3\n      add\n      0x00\n      tag_88\n      swap2\n      swap1\n      tag_74\n      jump\t// in\n    tag_88:\n      0x02\n      dup3\n      add\n      0x00\n      tag_89\n      swap2\n      swap1\n      tag_74\n      jump\t// in\n    tag_89:\n      0x03\n      dup3\n      add\n      0x00\n      tag_90\n      swap2\n      swap1\n      tag_74\n      jump\t// in\n    tag_90:\n      0x04\n      dup3\n      add\n      0x00\n      swap1\n      sstore\n      0x05\n      dup3\n      add\n      0x00\n      swap1\n      sstore\n      pop\n      pop\n        /* \"src/activeCode.sol\":5790:5808  activeCodeToDevice */\n      0x03\n        /* \"src/activeCode.sol\":5790:5821  activeCodeToDevice[_activeCode] */\n      0x00\n        /* \"src/activeCode.sol\":5809:5820  _activeCode */\n      dup4\n        /* \"src/activeCode.sol\":5790:5821  activeCodeToDevice[_activeCode] */\n      dup2\n      mstore\n      0x20\n      add\n      swap1\n      dup2\n      mstore\n      0x20\n      add\n      0x00\n      keccak256\n      0x00\n        /* \"src/activeCode.sol\":5783:5821  delete activeCodeToDevice[_activeCode] */\n      0x0100\n      exp\n      dup2\n      sload\n      swap1\n      0xffffffffffffffffffffffffffffffffffffffff\n      mul\n      not\n      and\n      swap1\n      sstore\n        /* \"src/activeCode.sol\":5851:5862  deviceOwner */\n      dup1\n        /* \"src/activeCode.sol\":5836:5876  ActiveCodeUsed(deviceOwner, _activeCode) */\n      0xffffffffffffffffffffffffffffffffffffffff\n      and\n      0xe9f653ab6dbfccfbf599e332a5cf4aa24c7d943d1fa32b4607a0ecc6063b3c04\n        /* \"src/activeCode.sol\":5864:5875  _activeCode */\n      dup4\n        /* \"src/activeCode.sol\":5836:5876  ActiveCodeUsed(deviceOwner, _activeCode) */\n      mload(0x40)\n      tag_91\n      swap2\n      swap1\n      tag_39\n      jump\t// in\n    tag_91:\n      mload(0x40)\n      dup1\n      swap2\n      sub\n      swap1\n      log2\n        /* \"src/activeCode.sol\":5481:5883  {... */\n      pop\n        /* \"src/activeCode.sol\":5424:5883  function useActiveCodeInfo(uint256 _activeCode) external {... */\n      pop\n      jump\t// out\n        /* \"src/activeCode.sol\":5893:6118  function removeExpiredData() external onlyOwner {... */\n    tag_30:\n        /* \"src/activeCode.sol\":2853:2858  owner */\n      0x00\n      dup1\n      sload\n      swap1\n      0x0100\n      exp\n      swap1\n      div\n      0xffffffffffffffffffffffffffffffffffffffff\n      and\n        /* \"src/activeCode.sol\":2839:2858  msg.sender == owner */\n      0xffffffffffffffffffffffffffffffffffffffff\n      and\n        /* \"src/activeCode.sol\":2839:2849  msg.sender */\n      caller\n        /* \"src/activeCode.sol\":2839:2858  msg.sender == owner */\n      0xffffffffffffffffffffffffffffffffffffffff\n      and\n      eq\n        /* \"src/activeCode.sol\":2831:2877  require(msg.sender == owner, \"Not authorized\") */\n      tag_93\n      jumpi\n      mload(0x40)\n      0x08c379a000000000000000000000000000000000000000000000000000000000\n      dup2\n      mstore\n      0x04\n      add\n      tag_94\n      swap1\n      tag_68\n      jump\t// in\n    tag_94:\n      mload(0x40)\n      dup1\n      swap2\n      sub\n      swap1\n      revert\n    tag_93:\n        /* \"src/activeCode.sol\":5951:5970  address deviceOwner */\n      0x00\n        /* \"src/activeCode.sol\":5973:5983  msg.sender */\n      caller\n        /* \"src/activeCode.sol\":5951:5983  address deviceOwner = msg.sender */\n      swap1\n      pop\n        /* \"src/activeCode.sol\":6048:6058  15 minutes */\n      0x0384\n        /* \"src/activeCode.sol\":6015:6022  devices */\n      0x02\n        /* \"src/activeCode.sol\":6015:6035  devices[deviceOwner] */\n      0x00\n        /* \"src/activeCode.sol\":6023:6034  deviceOwner */\n      dup4\n        /* \"src/activeCode.sol\":6015:6035  devices[deviceOwner] */\n      0xffffffffffffffffffffffffffffffffffffffff\n      and\n      0xffffffffffffffffffffffffffffffffffffffff\n      and\n      dup2\n      mstore\n      0x20\n      add\n      swap1\n      dup2\n      mstore\n      0x20\n      add\n      0x00\n      keccak256\n        /* \"src/activeCode.sol\":6015:6045  devices[deviceOwner].timestamp */\n      0x05\n      add\n      sload\n        /* \"src/activeCode.sol\":5997:6012  block.timestamp */\n      timestamp\n        /* \"src/activeCode.sol\":5997:6045  block.timestamp - devices[deviceOwner].timestamp */\n      tag_96\n      swap2\n      swap1\n      tag_97\n      jump\t// in\n    tag_96:\n        /* \"src/activeCode.sol\":5997:6058  block.timestamp - devices[deviceOwner].timestamp > 15 minutes */\n      gt\n        /* \"src/activeCode.sol\":5993:6112  if (block.timestamp - devices[deviceOwner].timestamp > 15 minutes) {... */\n      iszero\n      tag_98\n      jumpi\n        /* \"src/activeCode.sol\":6081:6088  devices */\n      0x02\n        /* \"src/activeCode.sol\":6081:6101  devices[deviceOwner] */\n      0x00\n        /* \"src/activeCode.sol\":6089:6100  deviceOwner */\n      dup3\n        /* \"src/activeCode.sol\":6081:6101  devices[deviceOwner] */\n      0xffffffffffffffffffffffffffffffffffffffff\n      and\n      0xffffffffffffffffffffffffffffffffffffffff\n      and\n      dup2\n      mstore\n      0x20\n      add\n      swap1\n      dup2\n      mstore\n      0x20\n      add\n      0x00\n      keccak256\n      0x00\n        /* \"src/activeCode.sol\":6074:6101  delete devices[deviceOwner] */\n      dup1\n      dup3\n      add\n      0x00\n      tag_99\n      swap2\n      swap1\n      tag_74\n      jump\t// in\n    tag_99:\n      0x01\n      dup3\n      add\n      0x00\n      tag_100\n      swap2\n      swap1\n      tag_74\n      jump\t// in\n    tag_100:\n      0x02\n      dup3\n      add\n      0x00\n      tag_101\n      swap2\n      swap1\n      tag_74\n      jump\t// in\n    tag_101:\n      0x03\n      dup3\n      add\n      0x00\n      tag_102\n      swap2\n      swap1\n      tag_74\n      jump\t// in\n    tag_102:\n      0x04\n      dup3\n      add\n      0x00\n      swap1\n      sstore\n      0x05\n      dup3\n      add\n      0x00\n      swap1\n      sstore\n      pop\n      pop\n        /* \"src/activeCode.sol\":5993:6112  if (block.timestamp - devices[deviceOwner].timestamp > 15 minutes) {... */\n    tag_98:\n        /* \"src/activeCode.sol\":5941:6118  {... */\n      pop\n        /* \"src/activeCode.sol\":5893:6118  function removeExpiredData() external onlyOwner {... */\n      jump\t// out\n        /* \"src/activeCode.sol\":1927:1947  address public owner */\n    tag_32:\n      0x00\n      dup1\n      sload\n      swap1\n      0x0100\n      exp\n      swap1\n      div\n      0xffffffffffffffffffffffffffffffffffffffff\n      and\n      dup2\n      jump\t// out\n        /* \"src/activeCode.sol\":4231:4842  function registerDevice(string memory _screenSize, string memory _os, string memory _versionOs, string memory _refCode) external returns (uint256) {... */\n    tag_37:\n        /* \"src/activeCode.sol\":4369:4376  uint256 */\n      0x00\n        /* \"src/activeCode.sol\":4388:4406  uint256 activeCode */\n      dup1\n        /* \"src/activeCode.sol\":4409:4449  ActiveCodeGenerator.generateActiveCode() */\n      tag_104\n        /* \"src/activeCode.sol\":4409:4447  ActiveCodeGenerator.generateActiveCode */\n      tag_105\n        /* \"src/activeCode.sol\":4409:4449  ActiveCodeGenerator.generateActiveCode() */\n      jump\t// in\n    tag_104:\n        /* \"src/activeCode.sol\":4388:4449  uint256 activeCode = ActiveCodeGenerator.generateActiveCode() */\n      swap1\n      pop\n        /* \"src/activeCode.sol\":4481:4699  Device({... */\n      mload(0x40)\n      dup1\n      0xc0\n      add\n      0x40\n      mstore\n      dup1\n        /* \"src/activeCode.sol\":4514:4525  _screenSize */\n      dup8\n        /* \"src/activeCode.sol\":4481:4699  Device({... */\n      dup2\n      mstore\n      0x20\n      add\n        /* \"src/activeCode.sol\":4543:4546  _os */\n      dup7\n        /* \"src/activeCode.sol\":4481:4699  Device({... */\n      dup2\n      mstore\n      0x20\n      add\n        /* \"src/activeCode.sol\":4571:4581  _versionOs */\n      dup6\n        /* \"src/activeCode.sol\":4481:4699  Device({... */\n      dup2\n      mstore\n      0x20\n      add\n        /* \"src/activeCode.sol\":4604:4612  _refCode */\n      dup5\n        /* \"src/activeCode.sol\":4481:4699  Device({... */\n      dup2\n      mstore\n      0x20\n      add\n        /* \"src/activeCode.sol\":4638:4648  activeCode */\n      dup3\n        /* \"src/activeCode.sol\":4481:4699  Device({... */\n      dup2\n      mstore\n      0x20\n      add\n        /* \"src/activeCode.sol\":4673:4688  block.timestamp */\n      timestamp\n        /* \"src/activeCode.sol\":4481:4699  Device({... */\n      dup2\n      mstore\n      pop\n        /* \"src/activeCode.sol\":4459:4466  devices */\n      0x02\n        /* \"src/activeCode.sol\":4459:4478  devices[msg.sender] */\n      0x00\n        /* \"src/activeCode.sol\":4467:4477  msg.sender */\n      caller\n        /* \"src/activeCode.sol\":4459:4478  devices[msg.sender] */\n      0xffffffffffffffffffffffffffffffffffffffff\n      and\n      0xffffffffffffffffffffffffffffffffffffffff\n      and\n      dup2\n      mstore\n      0x20\n      add\n      swap1\n      dup2\n      mstore\n      0x20\n      add\n      0x00\n      keccak256\n        /* \"src/activeCode.sol\":4459:4699  devices[msg.sender] = Device({... */\n      0x00\n      dup3\n      add\n      mload\n      dup2\n      0x00\n      add\n      swap1\n      dup2\n      tag_106\n      swap2\n      swap1\n      tag_107\n      jump\t// in\n    tag_106:\n      pop\n      0x20\n      dup3\n      add\n      mload\n      dup2\n      0x01\n      add\n      swap1\n      dup2\n      tag_108\n      swap2\n      swap1\n      tag_107\n      jump\t// in\n    tag_108:\n      pop\n      0x40\n      dup3\n      add\n      mload\n      dup2\n      0x02\n      add\n      swap1\n      dup2\n      tag_109\n      swap2\n      swap1\n      tag_107\n      jump\t// in\n    tag_109:\n      pop\n      0x60\n      dup3\n      add\n      mload\n      dup2\n      0x03\n      add\n      swap1\n      dup2\n      tag_110\n      swap2\n      swap1\n      tag_107\n      jump\t// in\n    tag_110:\n      pop\n      0x80\n      dup3\n      add\n      mload\n      dup2\n      0x04\n      add\n      sstore\n      0xa0\n      dup3\n      add\n      mload\n      dup2\n      0x05\n      add\n      sstore\n      swap1\n      pop\n      pop\n        /* \"src/activeCode.sol\":4742:4752  msg.sender */\n      caller\n        /* \"src/activeCode.sol\":4709:4727  activeCodeToDevice */\n      0x03\n        /* \"src/activeCode.sol\":4709:4739  activeCodeToDevice[activeCode] */\n      0x00\n        /* \"src/activeCode.sol\":4728:4738  activeCode */\n      dup4\n        /* \"src/activeCode.sol\":4709:4739  activeCodeToDevice[activeCode] */\n      dup2\n      mstore\n      0x20\n      add\n      swap1\n      dup2\n      mstore\n      0x20\n      add\n      0x00\n      keccak256\n      0x00\n        /* \"src/activeCode.sol\":4709:4752  activeCodeToDevice[activeCode] = msg.sender */\n      0x0100\n      exp\n      dup2\n      sload\n      dup2\n      0xffffffffffffffffffffffffffffffffffffffff\n      mul\n      not\n      and\n      swap1\n      dup4\n      0xffffffffffffffffffffffffffffffffffffffff\n      and\n      mul\n      or\n      swap1\n      sstore\n      pop\n        /* \"src/activeCode.sol\":4784:4794  msg.sender */\n      caller\n        /* \"src/activeCode.sol\":4767:4807  DeviceRegistered(msg.sender, activeCode) */\n      0xffffffffffffffffffffffffffffffffffffffff\n      and\n      0x0ec66eac7cc2b6555e1742961a9ee17e918d7ff81b635fac9cc6833245d279d6\n        /* \"src/activeCode.sol\":4796:4806  activeCode */\n      dup3\n        /* \"src/activeCode.sol\":4767:4807  DeviceRegistered(msg.sender, activeCode) */\n      mload(0x40)\n      tag_111\n      swap2\n      swap1\n      tag_39\n      jump\t// in\n    tag_111:\n      mload(0x40)\n      dup1\n      swap2\n      sub\n      swap1\n      log2\n        /* \"src/activeCode.sol\":4825:4835  activeCode */\n      dup1\n        /* \"src/activeCode.sol\":4818:4835  return activeCode */\n      swap2\n      pop\n      pop\n        /* \"src/activeCode.sol\":4231:4842  function registerDevice(string memory _screenSize, string memory _os, string memory _versionOs, string memory _refCode) external returns (uint256) {... */\n      swap5\n      swap4\n      pop\n      pop\n      pop\n      pop\n      jump\t// out\n        /* \"src/activeCode.sol\":4977:5413  function getActiveCodeInfo(uint256 _activeCode) external view returns (Merchant memory, Device memory) {... */\n    tag_42:\n        /* \"src/activeCode.sol\":5048:5063  Merchant memory */\n      tag_112\n      tag_113\n      jump\t// in\n    tag_112:\n        /* \"src/activeCode.sol\":5065:5078  Device memory */\n      tag_114\n      tag_115\n      jump\t// in\n    tag_114:\n        /* \"src/activeCode.sol\":5128:5175  ActiveCodeGenerator.verifyChecksum(_activeCode) */\n      tag_117\n        /* \"src/activeCode.sol\":5163:5174  _activeCode */\n      dup4\n        /* \"src/activeCode.sol\":5128:5162  ActiveCodeGenerator.verifyChecksum */\n      tag_80\n        /* \"src/activeCode.sol\":5128:5175  ActiveCodeGenerator.verifyChecksum(_activeCode) */\n      jump\t// in\n    tag_117:\n        /* \"src/activeCode.sol\":5120:5202  require(ActiveCodeGenerator.verifyChecksum(_activeCode), \"Active code not exists\") */\n      tag_118\n      jumpi\n      mload(0x40)\n      0x08c379a000000000000000000000000000000000000000000000000000000000\n      dup2\n      mstore\n      0x04\n      add\n      tag_119\n      swap1\n      tag_83\n      jump\t// in\n    tag_119:\n      mload(0x40)\n      dup1\n      swap2\n      sub\n      swap1\n      revert\n    tag_118:\n        /* \"src/activeCode.sol\":5221:5240  address deviceOwner */\n      0x00\n        /* \"src/activeCode.sol\":5243:5261  activeCodeToDevice */\n      0x03\n        /* \"src/activeCode.sol\":5243:5274  activeCodeToDevice[_activeCode] */\n      0x00\n        /* \"src/activeCode.sol\":5262:5273  _activeCode */\n      dup6\n        /* \"src/activeCode.sol\":5243:5274  activeCodeToDevice[_activeCode] */\n      dup2\n      mstore\n      0x20\n      add\n      swap1\n      dup2\n      mstore\n      0x20\n      add\n      0x00\n      keccak256\n      0x00\n      swap1\n      sload\n      swap1\n      0x0100\n      exp\n      swap1\n      div\n      0xffffffffffffffffffffffffffffffffffffffff\n      and\n        /* \"src/activeCode.sol\":5221:5274  address deviceOwner = activeCodeToDevice[_activeCode] */\n      swap1\n      pop\n        /* \"src/activeCode.sol\":5315:5316  0 */\n      0x00\n        /* \"src/activeCode.sol\":5292:5317  deviceOwner != address(0) */\n      0xffffffffffffffffffffffffffffffffffffffff\n      and\n        /* \"src/activeCode.sol\":5292:5303  deviceOwner */\n      dup2\n        /* \"src/activeCode.sol\":5292:5317  deviceOwner != address(0) */\n      0xffffffffffffffffffffffffffffffffffffffff\n      and\n      sub\n        /* \"src/activeCode.sol\":5284:5343  require(deviceOwner != address(0), \"Active code not found\") */\n      tag_120\n      jumpi\n      mload(0x40)\n      0x08c379a000000000000000000000000000000000000000000000000000000000\n      dup2\n      mstore\n      0x04\n      add\n      tag_121\n      swap1\n      tag_86\n      jump\t// in\n    tag_121:\n      mload(0x40)\n      dup1\n      swap2\n      sub\n      swap1\n      revert\n    tag_120:\n        /* \"src/activeCode.sol\":5361:5370  merchants */\n      0x01\n        /* \"src/activeCode.sol\":5361:5383  merchants[deviceOwner] */\n      0x00\n        /* \"src/activeCode.sol\":5371:5382  deviceOwner */\n      dup3\n        /* \"src/activeCode.sol\":5361:5383  merchants[deviceOwner] */\n      0xffffffffffffffffffffffffffffffffffffffff\n      and\n      0xffffffffffffffffffffffffffffffffffffffff\n      and\n      dup2\n      mstore\n      0x20\n      add\n      swap1\n      dup2\n      mstore\n      0x20\n      add\n      0x00\n      keccak256\n        /* \"src/activeCode.sol\":5385:5392  devices */\n      0x02\n        /* \"src/activeCode.sol\":5385:5405  devices[deviceOwner] */\n      0x00\n        /* \"src/activeCode.sol\":5393:5404  deviceOwner */\n      dup4\n        /* \"src/activeCode.sol\":5385:5405  devices[deviceOwner] */\n      0xffffffffffffffffffffffffffffffffffffffff\n      and\n      0xffffffffffffffffffffffffffffffffffffffff\n      and\n      dup2\n      mstore\n      0x20\n      add\n      swap1\n      dup2\n      mstore\n      0x20\n      add\n      0x00\n      keccak256\n        /* \"src/activeCode.sol\":5353:5406  return (merchants[deviceOwner], devices[deviceOwner]) */\n      dup2\n      mload(0x40)\n      dup1\n      0xa0\n      add\n      0x40\n      mstore\n      swap1\n      dup2\n      0x00\n      dup3\n      add\n      dup1\n      sload\n      tag_122\n      swap1\n      tag_123\n      jump\t// in\n    tag_122:\n      dup1\n      0x1f\n      add\n      0x20\n      dup1\n      swap2\n      div\n      mul\n      0x20\n      add\n      mload(0x40)\n      swap1\n      dup2\n      add\n      0x40\n      mstore\n      dup1\n      swap3\n      swap2\n      swap1\n      dup2\n      dup2\n      mstore\n      0x20\n      add\n      dup3\n      dup1\n      sload\n      tag_124\n      swap1\n      tag_123\n      jump\t// in\n    tag_124:\n      dup1\n      iszero\n      tag_125\n      jumpi\n      dup1\n      0x1f\n      lt\n      tag_126\n      jumpi\n      0x0100\n      dup1\n      dup4\n      sload\n      div\n      mul\n      dup4\n      mstore\n      swap2\n      0x20\n      add\n      swap2\n      jump(tag_125)\n    tag_126:\n      dup3\n      add\n      swap2\n      swap1\n      0x00\n      mstore\n      keccak256(0x00, 0x20)\n      swap1\n    tag_127:\n      dup2\n      sload\n      dup2\n      mstore\n      swap1\n      0x01\n      add\n      swap1\n      0x20\n      add\n      dup1\n      dup4\n      gt\n      tag_127\n      jumpi\n      dup3\n      swap1\n      sub\n      0x1f\n      and\n      dup3\n      add\n      swap2\n    tag_125:\n      pop\n      pop\n      pop\n      pop\n      pop\n      dup2\n      mstore\n      0x20\n      add\n      0x01\n      dup3\n      add\n      dup1\n      sload\n      tag_128\n      swap1\n      tag_123\n      jump\t// in\n    tag_128:\n      dup1\n      0x1f\n      add\n      0x20\n      dup1\n      swap2\n      div\n      mul\n      0x20\n      add\n      mload(0x40)\n      swap1\n      dup2\n      add\n      0x40\n      mstore\n      dup1\n      swap3\n      swap2\n      swap1\n      dup2\n      dup2\n      mstore\n      0x20\n      add\n      dup3\n      dup1\n      sload\n      tag_129\n      swap1\n      tag_123\n      jump\t// in\n    tag_129:\n      dup1\n      iszero\n      tag_130\n      jumpi\n      dup1\n      0x1f\n      lt\n      tag_131\n      jumpi\n      0x0100\n      dup1\n      dup4\n      sload\n      div\n      mul\n      dup4\n      mstore\n      swap2\n      0x20\n      add\n      swap2\n      jump(tag_130)\n    tag_131:\n      dup3\n      add\n      swap2\n      swap1\n      0x00\n      mstore\n      keccak256(0x00, 0x20)\n      swap1\n    tag_132:\n      dup2\n      sload\n      dup2\n      mstore\n      swap1\n      0x01\n      add\n      swap1\n      0x20\n      add\n      dup1\n      dup4\n      gt\n      tag_132\n      jumpi\n      dup3\n      swap1\n      sub\n      0x1f\n      and\n      dup3\n      add\n      swap2\n    tag_130:\n      pop\n      pop\n      pop\n      pop\n      pop\n      dup2\n      mstore\n      0x20\n      add\n      0x02\n      dup3\n      add\n      dup1\n      sload\n      tag_133\n      swap1\n      tag_123\n      jump\t// in\n    tag_133:\n      dup1\n      0x1f\n      add\n      0x20\n      dup1\n      swap2\n      div\n      mul\n      0x20\n      add\n      mload(0x40)\n      swap1\n      dup2\n      add\n      0x40\n      mstore\n      dup1\n      swap3\n      swap2\n      swap1\n      dup2\n      dup2\n      mstore\n      0x20\n      add\n      dup3\n      dup1\n      sload\n      tag_134\n      swap1\n      tag_123\n      jump\t// in\n    tag_134:\n      dup1\n      iszero\n      tag_135\n      jumpi\n      dup1\n      0x1f\n      lt\n      tag_136\n      jumpi\n      0x0100\n      dup1\n      dup4\n      sload\n      div\n      mul\n      dup4\n      mstore\n      swap2\n      0x20\n      add\n      swap2\n      jump(tag_135)\n    tag_136:\n      dup3\n      add\n      swap2\n      swap1\n      0x00\n      mstore\n      keccak256(0x00, 0x20)\n      swap1\n    tag_137:\n      dup2\n      sload\n      dup2\n      mstore\n      swap1\n      0x01\n      add\n      swap1\n      0x20\n      add\n      dup1\n      dup4\n      gt\n      tag_137\n      jumpi\n      dup3\n      swap1\n      sub\n      0x1f\n      and\n      dup3\n      add\n      swap2\n    tag_135:\n      pop\n      pop\n      pop\n      pop\n      pop\n      dup2\n      mstore\n      0x20\n      add\n      0x03\n      dup3\n      add\n      dup1\n      sload\n      tag_138\n      swap1\n      tag_123\n      jump\t// in\n    tag_138:\n      dup1\n      0x1f\n      add\n      0x20\n      dup1\n      swap2\n      div\n      mul\n      0x20\n      add\n      mload(0x40)\n      swap1\n      dup2\n      add\n      0x40\n      mstore\n      dup1\n      swap3\n      swap2\n      swap1\n      dup2\n      dup2\n      mstore\n      0x20\n      add\n      dup3\n      dup1\n      sload\n      tag_139\n      swap1\n      tag_123\n      jump\t// in\n    tag_139:\n      dup1\n      iszero\n      tag_140\n      jumpi\n      dup1\n      0x1f\n      lt\n      tag_141\n      jumpi\n      0x0100\n      dup1\n      dup4\n      sload\n      div\n      mul\n      dup4\n      mstore\n      swap2\n      0x20\n      add\n      swap2\n      jump(tag_140)\n    tag_141:\n      dup3\n      add\n      swap2\n      swap1\n      0x00\n      mstore\n      keccak256(0x00, 0x20)\n      swap1\n    tag_142:\n      dup2\n      sload\n      dup2\n      mstore\n      swap1\n      0x01\n      add\n      swap1\n      0x20\n      add\n      dup1\n      dup4\n      gt\n      tag_142\n      jumpi\n      dup3\n      swap1\n      sub\n      0x1f\n      and\n      dup3\n      add\n      swap2\n    tag_140:\n      pop\n      pop\n      pop\n      pop\n      pop\n      dup2\n      mstore\n      0x20\n      add\n      0x04\n      dup3\n      add\n      sload\n      dup2\n      mstore\n      pop\n      pop\n      swap2\n      pop\n      dup1\n      mload(0x40)\n      dup1\n      0xc0\n      add\n      0x40\n      mstore\n      swap1\n      dup2\n      0x00\n      dup3\n      add\n      dup1\n      sload\n      tag_143\n      swap1\n      tag_123\n      jump\t// in\n    tag_143:\n      dup1\n      0x1f\n      add\n      0x20\n      dup1\n      swap2\n      div\n      mul\n      0x20\n      add\n      mload(0x40)\n      swap1\n      dup2\n      add\n      0x40\n      mstore\n      dup1\n      swap3\n      swap2\n      swap1\n      dup2\n      dup2\n      mstore\n      0x20\n      add\n      dup3\n      dup1\n      sload\n      tag_144\n      swap1\n      tag_123\n      jump\t// in\n    tag_144:\n      dup1\n      iszero\n      tag_145\n      jumpi\n      dup1\n      0x1f\n      lt\n      tag_146\n      jumpi\n      0x0100\n      dup1\n      dup4\n      sload\n      div\n      mul\n      dup4\n      mstore\n      swap2\n      0x20\n      add\n      swap2\n      jump(tag_145)\n    tag_146:\n      dup3\n      add\n      swap2\n      swap1\n      0x00\n      mstore\n      keccak256(0x00, 0x20)\n      swap1\n    tag_147:\n      dup2\n      sload\n      dup2\n      mstore\n      swap1\n      0x01\n      add\n      swap1\n      0x20\n      add\n      dup1\n      dup4\n      gt\n      tag_147\n      jumpi\n      dup3\n      swap1\n      sub\n      0x1f\n      and\n      dup3\n      add\n      swap2\n    tag_145:\n      pop\n      pop\n      pop\n      pop\n      pop\n      dup2\n      mstore\n      0x20\n      add\n      0x01\n      dup3\n      add\n      dup1\n      sload\n      tag_148\n      swap1\n      tag_123\n      jump\t// in\n    tag_148:\n      dup1\n      0x1f\n      add\n      0x20\n      dup1\n      swap2\n      div\n      mul\n      0x20\n      add\n      mload(0x40)\n      swap1\n      dup2\n      add\n      0x40\n      mstore\n      dup1\n      swap3\n      swap2\n      swap1\n      dup2\n      dup2\n      mstore\n      0x20\n      add\n      dup3\n      dup1\n      sload\n      tag_149\n      swap1\n      tag_123\n      jump\t// in\n    tag_149:\n      dup1\n      iszero\n      tag_150\n      jumpi\n      dup1\n      0x1f\n      lt\n      tag_151\n      jumpi\n      0x0100\n      dup1\n      dup4\n      sload\n      div\n      mul\n      dup4\n      mstore\n      swap2\n      0x20\n      add\n      swap2\n      jump(tag_150)\n    tag_151:\n      dup3\n      add\n      swap2\n      swap1\n      0x00\n      mstore\n      keccak256(0x00, 0x20)\n      swap1\n    tag_152:\n      dup2\n      sload\n      dup2\n      mstore\n      swap1\n      0x01\n      add\n      swap1\n      0x20\n      add\n      dup1\n      dup4\n      gt\n      tag_152\n      jumpi\n      dup3\n      swap1\n      sub\n      0x1f\n      and\n      dup3\n      add\n      swap2\n    tag_150:\n      pop\n      pop\n      pop\n      pop\n      pop\n      dup2\n      mstore\n      0x20\n      add\n      0x02\n      dup3\n      add\n      dup1\n      sload\n      tag_153\n      swap1\n      tag_123\n      jump\t// in\n    tag_153:\n      dup1\n      0x1f\n      add\n      0x20\n      dup1\n      swap2\n      div\n      mul\n      0x20\n      add\n      mload(0x40)\n      swap1\n      dup2\n      add\n      0x40\n      mstore\n      dup1\n      swap3\n      swap2\n      swap1\n      dup2\n      dup2\n      mstore\n      0x20\n      add\n      dup3\n      dup1\n      sload\n      tag_154\n      swap1\n      tag_123\n      jump\t// in\n    tag_154:\n      dup1\n      iszero\n      tag_155\n      jumpi\n      dup1\n      0x1f\n      lt\n      tag_156\n      jumpi\n      0x0100\n      dup1\n      dup4\n      sload\n      div\n      mul\n      dup4\n      mstore\n      swap2\n      0x20\n      add\n      swap2\n      jump(tag_155)\n    tag_156:\n      dup3\n      add\n      swap2\n      swap1\n      0x00\n      mstore\n      keccak256(0x00, 0x20)\n      swap1\n    tag_157:\n      dup2\n      sload\n      dup2\n      mstore\n      swap1\n      0x01\n      add\n      swap1\n      0x20\n      add\n      dup1\n      dup4\n      gt\n      tag_157\n      jumpi\n      dup3\n      swap1\n      sub\n      0x1f\n      and\n      dup3\n      add\n      swap2\n    tag_155:\n      pop\n      pop\n      pop\n      pop\n      pop\n      dup2\n      mstore\n      0x20\n      add\n      0x03\n      dup3\n      add\n      dup1\n      sload\n      tag_158\n      swap1\n      tag_123\n      jump\t// in\n    tag_158:\n      dup1\n      0x1f\n      add\n      0x20\n      dup1\n      swap2\n      div\n      mul\n      0x20\n      add\n      mload(0x40)\n      swap1\n      dup2\n      add\n      0x40\n      mstore\n      dup1\n      swap3\n      swap2\n      swap1\n      dup2\n      dup2\n      mstore\n      0x20\n      add\n      dup3\n      dup1\n      sload\n      tag_159\n      swap1\n      tag_123\n      jump\t// in\n    tag_159:\n      dup1\n      iszero\n      tag_160\n      jumpi\n      dup1\n      0x1f\n      lt\n      tag_161\n      jumpi\n      0x0100\n      dup1\n      dup4\n      sload\n      div\n      mul\n      dup4\n      mstore\n      swap2\n      0x20\n      add\n      swap2\n      jump(tag_160)\n    tag_161:\n      dup3\n      add\n      swap2\n      swap1\n      0x00\n      mstore\n      keccak256(0x00, 0x20)\n      swap1\n    tag_162:\n      dup2\n      sload\n      dup2\n      mstore\n      swap1\n      0x01\n      add\n      swap1\n      0x20\n      add\n      dup1\n      dup4\n      gt\n      tag_162\n      jumpi\n      dup3\n      swap1\n      sub\n      0x1f\n      and\n      dup3\n      add\n      swap2\n    tag_160:\n      pop\n      pop\n      pop\n      pop\n      pop\n      dup2\n      mstore\n      0x20\n      add\n      0x04\n      dup3\n      add\n      sload\n      dup2\n      mstore\n      0x20\n      add\n      0x05\n      dup3\n      add\n      sload\n      dup2\n      mstore\n      pop\n      pop\n      swap1\n      pop\n      swap3\n      pop\n      swap3\n      pop\n      pop\n        /* \"src/activeCode.sol\":4977:5413  function getActiveCodeInfo(uint256 _activeCode) external view returns (Merchant memory, Device memory) {... */\n      swap2\n      pop\n      swap2\n      jump\t// out\n        /* \"src/activeCode.sol\":2964:3492  function addMerchant(address _merchant, string memory _domain, string memory _installUrl, string memory _bundleId, string memory _platform) external onlyOwner {... */\n    tag_48:\n        /* \"src/activeCode.sol\":2853:2858  owner */\n      0x00\n      dup1\n      sload\n      swap1\n      0x0100\n      exp\n      swap1\n      div\n      0xffffffffffffffffffffffffffffffffffffffff\n      and\n        /* \"src/activeCode.sol\":2839:2858  msg.sender == owner */\n      0xffffffffffffffffffffffffffffffffffffffff\n      and\n        /* \"src/activeCode.sol\":2839:2849  msg.sender */\n      caller\n        /* \"src/activeCode.sol\":2839:2858  msg.sender == owner */\n      0xffffffffffffffffffffffffffffffffffffffff\n      and\n      eq\n        /* \"src/activeCode.sol\":2831:2877  require(msg.sender == owner, \"Not authorized\") */\n      tag_164\n      jumpi\n      mload(0x40)\n      0x08c379a000000000000000000000000000000000000000000000000000000000\n      dup2\n      mstore\n      0x04\n      add\n      tag_165\n      swap1\n      tag_68\n      jump\t// in\n    tag_165:\n      mload(0x40)\n      dup1\n      swap2\n      sub\n      swap1\n      revert\n    tag_164:\n        /* \"src/activeCode.sol\":3176:3177  0 */\n      0x00\n        /* \"src/activeCode.sol\":3141:3150  merchants */\n      0x01\n        /* \"src/activeCode.sol\":3141:3161  merchants[_merchant] */\n      0x00\n        /* \"src/activeCode.sol\":3151:3160  _merchant */\n      dup8\n        /* \"src/activeCode.sol\":3141:3161  merchants[_merchant] */\n      0xffffffffffffffffffffffffffffffffffffffff\n      and\n      0xffffffffffffffffffffffffffffffffffffffff\n      and\n      dup2\n      mstore\n      0x20\n      add\n      swap1\n      dup2\n      mstore\n      0x20\n      add\n      0x00\n      keccak256\n        /* \"src/activeCode.sol\":3141:3172  merchants[_merchant].createTime */\n      0x04\n      add\n      sload\n        /* \"src/activeCode.sol\":3141:3177  merchants[_merchant].createTime == 0 */\n      eq\n        /* \"src/activeCode.sol\":3133:3205  require(merchants[_merchant].createTime == 0, \"Merchant already exists\") */\n      tag_167\n      jumpi\n      mload(0x40)\n      0x08c379a000000000000000000000000000000000000000000000000000000000\n      dup2\n      mstore\n      0x04\n      add\n      tag_168\n      swap1\n      tag_169\n      jump\t// in\n    tag_168:\n      mload(0x40)\n      dup1\n      swap2\n      sub\n      swap1\n      revert\n    tag_167:\n        /* \"src/activeCode.sol\":3238:3431  Merchant({... */\n      mload(0x40)\n      dup1\n      0xa0\n      add\n      0x40\n      mstore\n      dup1\n        /* \"src/activeCode.sol\":3269:3276  _domain */\n      dup6\n        /* \"src/activeCode.sol\":3238:3431  Merchant({... */\n      dup2\n      mstore\n      0x20\n      add\n        /* \"src/activeCode.sol\":3302:3313  _installUrl */\n      dup5\n        /* \"src/activeCode.sol\":3238:3431  Merchant({... */\n      dup2\n      mstore\n      0x20\n      add\n        /* \"src/activeCode.sol\":3337:3346  _bundleId */\n      dup4\n        /* \"src/activeCode.sol\":3238:3431  Merchant({... */\n      dup2\n      mstore\n      0x20\n      add\n        /* \"src/activeCode.sol\":3370:3379  _platform */\n      dup3\n        /* \"src/activeCode.sol\":3238:3431  Merchant({... */\n      dup2\n      mstore\n      0x20\n      add\n        /* \"src/activeCode.sol\":3405:3420  block.timestamp */\n      timestamp\n        /* \"src/activeCode.sol\":3238:3431  Merchant({... */\n      dup2\n      mstore\n      pop\n        /* \"src/activeCode.sol\":3215:3224  merchants */\n      0x01\n        /* \"src/activeCode.sol\":3215:3235  merchants[_merchant] */\n      0x00\n        /* \"src/activeCode.sol\":3225:3234  _merchant */\n      dup8\n        /* \"src/activeCode.sol\":3215:3235  merchants[_merchant] */\n      0xffffffffffffffffffffffffffffffffffffffff\n      and\n      0xffffffffffffffffffffffffffffffffffffffff\n      and\n      dup2\n      mstore\n      0x20\n      add\n      swap1\n      dup2\n      mstore\n      0x20\n      add\n      0x00\n      keccak256\n        /* \"src/activeCode.sol\":3215:3431  merchants[_merchant] = Merchant({... */\n      0x00\n      dup3\n      add\n      mload\n      dup2\n      0x00\n      add\n      swap1\n      dup2\n      tag_170\n      swap2\n      swap1\n      tag_107\n      jump\t// in\n    tag_170:\n      pop\n      0x20\n      dup3\n      add\n      mload\n      dup2\n      0x01\n      add\n      swap1\n      dup2\n      tag_171\n      swap2\n      swap1\n      tag_107\n      jump\t// in\n    tag_171:\n      pop\n      0x40\n      dup3\n      add\n      mload\n      dup2\n      0x02\n      add\n      swap1\n      dup2\n      tag_172\n      swap2\n      swap1\n      tag_107\n      jump\t// in\n    tag_172:\n      pop\n      0x60\n      dup3\n      add\n      mload\n      dup2\n      0x03\n      add\n      swap1\n      dup2\n      tag_173\n      swap2\n      swap1\n      tag_107\n      jump\t// in\n    tag_173:\n      pop\n      0x80\n      dup3\n      add\n      mload\n      dup2\n      0x04\n      add\n      sstore\n      swap1\n      pop\n      pop\n        /* \"src/activeCode.sol\":3465:3475  msg.sender */\n      caller\n        /* \"src/activeCode.sol\":3446:3485  MerchantRegistered(msg.sender, _domain) */\n      0xffffffffffffffffffffffffffffffffffffffff\n      and\n      0xec31b5c87ea82f60c8bc1dd8262f275183d0d7bc8c37cdbbfd74130441818fbc\n        /* \"src/activeCode.sol\":3477:3484  _domain */\n      dup6\n        /* \"src/activeCode.sol\":3446:3485  MerchantRegistered(msg.sender, _domain) */\n      mload(0x40)\n      tag_174\n      swap2\n      swap1\n      tag_175\n      jump\t// in\n    tag_174:\n      mload(0x40)\n      dup1\n      swap2\n      sub\n      swap1\n      log2\n        /* \"src/activeCode.sol\":2964:3492  function addMerchant(address _merchant, string memory _domain, string memory _installUrl, string memory _bundleId, string memory _platform) external onlyOwner {... */\n      pop\n      pop\n      pop\n      pop\n      pop\n      jump\t// out\n        /* \"src/activeCode.sol\":2352:2393  mapping(address => Device) public devices */\n    tag_51:\n      mstore(0x20, 0x02)\n      dup1\n      0x00\n      mstore\n      keccak256(0x00, 0x40)\n      0x00\n      swap2\n      pop\n      swap1\n      pop\n      dup1\n      0x00\n      add\n      dup1\n      sload\n      tag_176\n      swap1\n      tag_123\n      jump\t// in\n    tag_176:\n      dup1\n      0x1f\n      add\n      0x20\n      dup1\n      swap2\n      div\n      mul\n      0x20\n      add\n      mload(0x40)\n      swap1\n      dup2\n      add\n      0x40\n      mstore\n      dup1\n      swap3\n      swap2\n      swap1\n      dup2\n      dup2\n      mstore\n      0x20\n      add\n      dup3\n      dup1\n      sload\n      tag_177\n      swap1\n      tag_123\n      jump\t// in\n    tag_177:\n      dup1\n      iszero\n      tag_178\n      jumpi\n      dup1\n      0x1f\n      lt\n      tag_179\n      jumpi\n      0x0100\n      dup1\n      dup4\n      sload\n      div\n      mul\n      dup4\n      mstore\n      swap2\n      0x20\n      add\n      swap2\n      jump(tag_178)\n    tag_179:\n      dup3\n      add\n      swap2\n      swap1\n      0x00\n      mstore\n      keccak256(0x00, 0x20)\n      swap1\n    tag_180:\n      dup2\n      sload\n      dup2\n      mstore\n      swap1\n      0x01\n      add\n      swap1\n      0x20\n      add\n      dup1\n      dup4\n      gt\n      tag_180\n      jumpi\n      dup3\n      swap1\n      sub\n      0x1f\n      and\n      dup3\n      add\n      swap2\n    tag_178:\n      pop\n      pop\n      pop\n      pop\n      pop\n      swap1\n      dup1\n      0x01\n      add\n      dup1\n      sload\n      tag_181\n      swap1\n      tag_123\n      jump\t// in\n    tag_181:\n      dup1\n      0x1f\n      add\n      0x20\n      dup1\n      swap2\n      div\n      mul\n      0x20\n      add\n      mload(0x40)\n      swap1\n      dup2\n      add\n      0x40\n      mstore\n      dup1\n      swap3\n      swap2\n      swap1\n      dup2\n      dup2\n      mstore\n      0x20\n      add\n      dup3\n      dup1\n      sload\n      tag_182\n      swap1\n      tag_123\n      jump\t// in\n    tag_182:\n      dup1\n      iszero\n      tag_183\n      jumpi\n      dup1\n      0x1f\n      lt\n      tag_184\n      jumpi\n      0x0100\n      dup1\n      dup4\n      sload\n      div\n      mul\n      dup4\n      mstore\n      swap2\n      0x20\n      add\n      swap2\n      jump(tag_183)\n    tag_184:\n      dup3\n      add\n      swap2\n      swap1\n      0x00\n      mstore\n      keccak256(0x00, 0x20)\n      swap1\n    tag_185:\n      dup2\n      sload\n      dup2\n      mstore\n      swap1\n      0x01\n      add\n      swap1\n      0x20\n      add\n      dup1\n      dup4\n      gt\n      tag_185\n      jumpi\n      dup3\n      swap1\n      sub\n      0x1f\n      and\n      dup3\n      add\n      swap2\n    tag_183:\n      pop\n      pop\n      pop\n      pop\n      pop\n      swap1\n      dup1\n      0x02\n      add\n      dup1\n      sload\n      tag_186\n      swap1\n      tag_123\n      jump\t// in\n    tag_186:\n      dup1\n      0x1f\n      add\n      0x20\n      dup1\n      swap2\n      div\n      mul\n      0x20\n      add\n      mload(0x40)\n      swap1\n      dup2\n      add\n      0x40\n      mstore\n      dup1\n      swap3\n      swap2\n      swap1\n      dup2\n      dup2\n      mstore\n      0x20\n      add\n      dup3\n      dup1\n      sload\n      tag_187\n      swap1\n      tag_123\n      jump\t// in\n    tag_187:\n      dup1\n      iszero\n      tag_188\n      jumpi\n      dup1\n      0x1f\n      lt\n      tag_189\n      jumpi\n      0x0100\n      dup1\n      dup4\n      sload\n      div\n      mul\n      dup4\n      mstore\n      swap2\n      0x20\n      add\n      swap2\n      jump(tag_188)\n    tag_189:\n      dup3\n      add\n      swap2\n      swap1\n      0x00\n      mstore\n      keccak256(0x00, 0x20)\n      swap1\n    tag_190:\n      dup2\n      sload\n      dup2\n      mstore\n      swap1\n      0x01\n      add\n      swap1\n      0x20\n      add\n      dup1\n      dup4\n      gt\n      tag_190\n      jumpi\n      dup3\n      swap1\n      sub\n      0x1f\n      and\n      dup3\n      add\n      swap2\n    tag_188:\n      pop\n      pop\n      pop\n      pop\n      pop\n      swap1\n      dup1\n      0x03\n      add\n      dup1\n      sload\n      tag_191\n      swap1\n      tag_123\n      jump\t// in\n    tag_191:\n      dup1\n      0x1f\n      add\n      0x20\n      dup1\n      swap2\n      div\n      mul\n      0x20\n      add\n      mload(0x40)\n      swap1\n      dup2\n      add\n      0x40\n      mstore\n      dup1\n      swap3\n      swap2\n      swap1\n      dup2\n      dup2\n      mstore\n      0x20\n      add\n      dup3\n      dup1\n      sload\n      tag_192\n      swap1\n      tag_123\n      jump\t// in\n    tag_192:\n      dup1\n      iszero\n      tag_193\n      jumpi\n      dup1\n      0x1f\n      lt\n      tag_194\n      jumpi\n      0x0100\n      dup1\n      dup4\n      sload\n      div\n      mul\n      dup4\n      mstore\n      swap2\n      0x20\n      add\n      swap2\n      jump(tag_193)\n    tag_194:\n      dup3\n      add\n      swap2\n      swap1\n      0x00\n      mstore\n      keccak256(0x00, 0x20)\n      swap1\n    tag_195:\n      dup2\n      sload\n      dup2\n      mstore\n      swap1\n      0x01\n      add\n      swap1\n      0x20\n      add\n      dup1\n      dup4\n      gt\n      tag_195\n      jumpi\n      dup3\n      swap1\n      sub\n      0x1f\n      and\n      dup3\n      add\n      swap2\n    tag_193:\n      pop\n      pop\n      pop\n      pop\n      pop\n      swap1\n      dup1\n      0x04\n      add\n      sload\n      swap1\n      dup1\n      0x05\n      add\n      sload\n      swap1\n      pop\n      dup7\n      jump\t// out\n        /* \"src/activeCode.sol\":2301:2346  mapping(address => Merchant) public merchants */\n    tag_56:\n      mstore(0x20, 0x01)\n      dup1\n      0x00\n      mstore\n      keccak256(0x00, 0x40)\n      0x00\n      swap2\n      pop\n      swap1\n      pop\n      dup1\n      0x00\n      add\n      dup1\n      sload\n      tag_196\n      swap1\n      tag_123\n      jump\t// in\n    tag_196:\n      dup1\n      0x1f\n      add\n      0x20\n      dup1\n      swap2\n      div\n      mul\n      0x20\n      add\n      mload(0x40)\n      swap1\n      dup2\n      add\n      0x40\n      mstore\n      dup1\n      swap3\n      swap2\n      swap1\n      dup2\n      dup2\n      mstore\n      0x20\n      add\n      dup3\n      dup1\n      sload\n      tag_197\n      swap1\n      tag_123\n      jump\t// in\n    tag_197:\n      dup1\n      iszero\n      tag_198\n      jumpi\n      dup1\n      0x1f\n      lt\n      tag_199\n      jumpi\n      0x0100\n      dup1\n      dup4\n      sload\n      div\n      mul\n      dup4\n      mstore\n      swap2\n      0x20\n      add\n      swap2\n      jump(tag_198)\n    tag_199:\n      dup3\n      add\n      swap2\n      swap1\n      0x00\n      mstore\n      keccak256(0x00, 0x20)\n      swap1\n    tag_200:\n      dup2\n      sload\n      dup2\n      mstore\n      swap1\n      0x01\n      add\n      swap1\n      0x20\n      add\n      dup1\n      dup4\n      gt\n      tag_200\n      jumpi\n      dup3\n      swap1\n      sub\n      0x1f\n      and\n      dup3\n      add\n      swap2\n    tag_198:\n      pop\n      pop\n      pop\n      pop\n      pop\n      swap1\n      dup1\n      0x01\n      add\n      dup1\n      sload\n      tag_201\n      swap1\n      tag_123\n      jump\t// in\n    tag_201:\n      dup1\n      0x1f\n      add\n      0x20\n      dup1\n      swap2\n      div\n      mul\n      0x20\n      add\n      mload(0x40)\n      swap1\n      dup2\n      add\n      0x40\n      mstore\n      dup1\n      swap3\n      swap2\n      swap1\n      dup2\n      dup2\n      mstore\n      0x20\n      add\n      dup3\n      dup1\n      sload\n      tag_202\n      swap1\n      tag_123\n      jump\t// in\n    tag_202:\n      dup1\n      iszero\n      tag_203\n      jumpi\n      dup1\n      0x1f\n      lt\n      tag_204\n      jumpi\n      0x0100\n      dup1\n      dup4\n      sload\n      div\n      mul\n      dup4\n      mstore\n      swap2\n      0x20\n      add\n      swap2\n      jump(tag_203)\n    tag_204:\n      dup3\n      add\n      swap2\n      swap1\n      0x00\n      mstore\n      keccak256(0x00, 0x20)\n      swap1\n    tag_205:\n      dup2\n      sload\n      dup2\n      mstore\n      swap1\n      0x01\n      add\n      swap1\n      0x20\n      add\n      dup1\n      dup4\n      gt\n      tag_205\n      jumpi\n      dup3\n      swap1\n      sub\n      0x1f\n      and\n      dup3\n      add\n      swap2\n    tag_203:\n      pop\n      pop\n      pop\n      pop\n      pop\n      swap1\n      dup1\n      0x02\n      add\n      dup1\n      sload\n      tag_206\n      swap1\n      tag_123\n      jump\t// in\n    tag_206:\n      dup1\n      0x1f\n      add\n      0x20\n      dup1\n      swap2\n      div\n      mul\n      0x20\n      add\n      mload(0x40)\n      swap1\n      dup2\n      add\n      0x40\n      mstore\n      dup1\n      swap3\n      swap2\n      swap1\n      dup2\n      dup2\n      mstore\n      0x20\n      add\n      dup3\n      dup1\n      sload\n      tag_207\n      swap1\n      tag_123\n      jump\t// in\n    tag_207:\n      dup1\n      iszero\n      tag_208\n      jumpi\n      dup1\n      0x1f\n      lt\n      tag_209\n      jumpi\n      0x0100\n      dup1\n      dup4\n      sload\n      div\n      mul\n      dup4\n      mstore\n      swap2\n      0x20\n      add\n      swap2\n      jump(tag_208)\n    tag_209:\n      dup3\n      add\n      swap2\n      swap1\n      0x00\n      mstore\n      keccak256(0x00, 0x20)\n      swap1\n    tag_210:\n      dup2\n      sload\n      dup2\n      mstore\n      swap1\n      0x01\n      add\n      swap1\n      0x20\n      add\n      dup1\n      dup4\n      gt\n      tag_210\n      jumpi\n      dup3\n      swap1\n      sub\n      0x1f\n      and\n      dup3\n      add\n      swap2\n    tag_208:\n      pop\n      pop\n      pop\n      pop\n      pop\n      swap1\n      dup1\n      0x03\n      add\n      dup1\n      sload\n      tag_211\n      swap1\n      tag_123\n      jump\t// in\n    tag_211:\n      dup1\n      0x1f\n      add\n      0x20\n      dup1\n      swap2\n      div\n      mul\n      0x20\n      add\n      mload(0x40)\n      swap1\n      dup2\n      add\n      0x40\n      mstore\n      dup1\n      swap3\n      swap2\n      swap1\n      dup2\n      dup2\n      mstore\n      0x20\n      add\n      dup3\n      dup1\n      sload\n      tag_212\n      swap1\n      tag_123\n      jump\t// in\n    tag_212:\n      dup1\n      iszero\n      tag_213\n      jumpi\n      dup1\n      0x1f\n      lt\n      tag_214\n      jumpi\n      0x0100\n      dup1\n      dup4\n      sload\n      div\n      mul\n      dup4\n      mstore\n      swap2\n      0x20\n      add\n      swap2\n      jump(tag_213)\n    tag_214:\n      dup3\n      add\n      swap2\n      swap1\n      0x00\n      mstore\n      keccak256(0x00, 0x20)\n      swap1\n    tag_215:\n      dup2\n      sload\n      dup2\n      mstore\n      swap1\n      0x01\n      add\n      swap1\n      0x20\n      add\n      dup1\n      dup4\n      gt\n      tag_215\n      jumpi\n      dup3\n      swap1\n      sub\n      0x1f\n      and\n      dup3\n      add\n      swap2\n    tag_213:\n      pop\n      pop\n      pop\n      pop\n      pop\n      swap1\n      dup1\n      0x04\n      add\n      sload\n      swap1\n      pop\n      dup6\n      jump\t// out\n        /* \"src/activeCode.sol\":4852:4967  function getRegisterDevice() external view returns (uint256) {... */\n    tag_60:\n        /* \"src/activeCode.sol\":4904:4911  uint256 */\n      0x00\n        /* \"src/activeCode.sol\":4930:4937  devices */\n      0x02\n        /* \"src/activeCode.sol\":4930:4949  devices[msg.sender] */\n      0x00\n        /* \"src/activeCode.sol\":4938:4948  msg.sender */\n      caller\n        /* \"src/activeCode.sol\":4930:4949  devices[msg.sender] */\n      0xffffffffffffffffffffffffffffffffffffffff\n      and\n      0xffffffffffffffffffffffffffffffffffffffff\n      and\n      dup2\n      mstore\n      0x20\n      add\n      swap1\n      dup2\n      mstore\n      0x20\n      add\n      0x00\n      keccak256\n        /* \"src/activeCode.sol\":4930:4960  devices[msg.sender].activeCode */\n      0x04\n      add\n      sload\n        /* \"src/activeCode.sol\":4923:4960  return devices[msg.sender].activeCode */\n      swap1\n      pop\n        /* \"src/activeCode.sol\":4852:4967  function getRegisterDevice() external view returns (uint256) {... */\n      swap1\n      jump\t// out\n        /* \"src/activeCode.sol\":3502:3978  function updateMerchant(string memory _domain, string memory _installUrl, string memory _bundleId, string memory _platform) external {... */\n    tag_64:\n        /* \"src/activeCode.sol\":3688:3689  0 */\n      0x00\n        /* \"src/activeCode.sol\":3653:3662  merchants */\n      0x01\n        /* \"src/activeCode.sol\":3653:3674  merchants[msg.sender] */\n      0x00\n        /* \"src/activeCode.sol\":3663:3673  msg.sender */\n      caller\n        /* \"src/activeCode.sol\":3653:3674  merchants[msg.sender] */\n      0xffffffffffffffffffffffffffffffffffffffff\n      and\n      0xffffffffffffffffffffffffffffffffffffffff\n      and\n      dup2\n      mstore\n      0x20\n      add\n      swap1\n      dup2\n      mstore\n      0x20\n      add\n      0x00\n      keccak256\n        /* \"src/activeCode.sol\":3653:3685  merchants[msg.sender].createTime */\n      0x04\n      add\n      sload\n        /* \"src/activeCode.sol\":3653:3689  merchants[msg.sender].createTime > 0 */\n      gt\n        /* \"src/activeCode.sol\":3645:3712  require(merchants[msg.sender].createTime > 0, \"Merchant not found\") */\n      tag_218\n      jumpi\n      mload(0x40)\n      0x08c379a000000000000000000000000000000000000000000000000000000000\n      dup2\n      mstore\n      0x04\n      add\n      tag_219\n      swap1\n      tag_72\n      jump\t// in\n    tag_219:\n      mload(0x40)\n      dup1\n      swap2\n      sub\n      swap1\n      revert\n    tag_218:\n        /* \"src/activeCode.sol\":3753:3760  _domain */\n      dup4\n        /* \"src/activeCode.sol\":3722:3731  merchants */\n      0x01\n        /* \"src/activeCode.sol\":3722:3743  merchants[msg.sender] */\n      0x00\n        /* \"src/activeCode.sol\":3732:3742  msg.sender */\n      caller\n        /* \"src/activeCode.sol\":3722:3743  merchants[msg.sender] */\n      0xffffffffffffffffffffffffffffffffffffffff\n      and\n      0xffffffffffffffffffffffffffffffffffffffff\n      and\n      dup2\n      mstore\n      0x20\n      add\n      swap1\n      dup2\n      mstore\n      0x20\n      add\n      0x00\n      keccak256\n        /* \"src/activeCode.sol\":3722:3750  merchants[msg.sender].domain */\n      0x00\n      add\n        /* \"src/activeCode.sol\":3722:3760  merchants[msg.sender].domain = _domain */\n      swap1\n      dup2\n      tag_220\n      swap2\n      swap1\n      tag_107\n      jump\t// in\n    tag_220:\n      pop\n        /* \"src/activeCode.sol\":3805:3816  _installUrl */\n      dup3\n        /* \"src/activeCode.sol\":3770:3779  merchants */\n      0x01\n        /* \"src/activeCode.sol\":3770:3791  merchants[msg.sender] */\n      0x00\n        /* \"src/activeCode.sol\":3780:3790  msg.sender */\n      caller\n        /* \"src/activeCode.sol\":3770:3791  merchants[msg.sender] */\n      0xffffffffffffffffffffffffffffffffffffffff\n      and\n      0xffffffffffffffffffffffffffffffffffffffff\n      and\n      dup2\n      mstore\n      0x20\n      add\n      swap1\n      dup2\n      mstore\n      0x20\n      add\n      0x00\n      keccak256\n        /* \"src/activeCode.sol\":3770:3802  merchants[msg.sender].installUrl */\n      0x01\n      add\n        /* \"src/activeCode.sol\":3770:3816  merchants[msg.sender].installUrl = _installUrl */\n      swap1\n      dup2\n      tag_221\n      swap2\n      swap1\n      tag_107\n      jump\t// in\n    tag_221:\n      pop\n        /* \"src/activeCode.sol\":3859:3868  _bundleId */\n      dup2\n        /* \"src/activeCode.sol\":3826:3835  merchants */\n      0x01\n        /* \"src/activeCode.sol\":3826:3847  merchants[msg.sender] */\n      0x00\n        /* \"src/activeCode.sol\":3836:3846  msg.sender */\n      caller\n        /* \"src/activeCode.sol\":3826:3847  merchants[msg.sender] */\n      0xffffffffffffffffffffffffffffffffffffffff\n      and\n      0xffffffffffffffffffffffffffffffffffffffff\n      and\n      dup2\n      mstore\n      0x20\n      add\n      swap1\n      dup2\n      mstore\n      0x20\n      add\n      0x00\n      keccak256\n        /* \"src/activeCode.sol\":3826:3856  merchants[msg.sender].bundleId */\n      0x02\n      add\n        /* \"src/activeCode.sol\":3826:3868  merchants[msg.sender].bundleId = _bundleId */\n      swap1\n      dup2\n      tag_222\n      swap2\n      swap1\n      tag_107\n      jump\t// in\n    tag_222:\n      pop\n        /* \"src/activeCode.sol\":3911:3920  _platform */\n      dup1\n        /* \"src/activeCode.sol\":3878:3887  merchants */\n      0x01\n        /* \"src/activeCode.sol\":3878:3899  merchants[msg.sender] */\n      0x00\n        /* \"src/activeCode.sol\":3888:3898  msg.sender */\n      caller\n        /* \"src/activeCode.sol\":3878:3899  merchants[msg.sender] */\n      0xffffffffffffffffffffffffffffffffffffffff\n      and\n      0xffffffffffffffffffffffffffffffffffffffff\n      and\n      dup2\n      mstore\n      0x20\n      add\n      swap1\n      dup2\n      mstore\n      0x20\n      add\n      0x00\n      keccak256\n        /* \"src/activeCode.sol\":3878:3908  merchants[msg.sender].platform */\n      0x03\n      add\n        /* \"src/activeCode.sol\":3878:3920  merchants[msg.sender].platform = _platform */\n      swap1\n      dup2\n      tag_223\n      swap2\n      swap1\n      tag_107\n      jump\t// in\n    tag_223:\n      pop\n        /* \"src/activeCode.sol\":3951:3961  msg.sender */\n      caller\n        /* \"src/activeCode.sol\":3935:3971  MerchantUpdated(msg.sender, _domain) */\n      0xffffffffffffffffffffffffffffffffffffffff\n      and\n      0x78664930cfae4a1eb87c094f2b3013547dbb5e6b7cc7b9f0941766060298e126\n        /* \"src/activeCode.sol\":3963:3970  _domain */\n      dup6\n        /* \"src/activeCode.sol\":3935:3971  MerchantUpdated(msg.sender, _domain) */\n      mload(0x40)\n      tag_224\n      swap2\n      swap1\n      tag_175\n      jump\t// in\n    tag_224:\n      mload(0x40)\n      dup1\n      swap2\n      sub\n      swap1\n      log2\n        /* \"src/activeCode.sol\":3502:3978  function updateMerchant(string memory _domain, string memory _installUrl, string memory _bundleId, string memory _platform) external {... */\n      pop\n      pop\n      pop\n      pop\n      jump\t// out\n        /* \"src/activeCode.sol\":678:1071  function verifyChecksum(uint256 activeCode) internal pure returns (bool) {... */\n    tag_80:\n        /* \"src/activeCode.sol\":745:749  bool */\n      0x00\n        /* \"src/activeCode.sol\":783:792  100000000 */\n      0x05f5e100\n        /* \"src/activeCode.sol\":769:779  activeCode */\n      dup3\n        /* \"src/activeCode.sol\":769:792  activeCode >= 100000000 */\n      lt\n      iszero\n        /* \"src/activeCode.sol\":769:819  activeCode >= 100000000 && activeCode <= 999999999 */\n      dup1\n      iszero\n      tag_226\n      jumpi\n      pop\n        /* \"src/activeCode.sol\":810:819  999999999 */\n      0x3b9ac9ff\n        /* \"src/activeCode.sol\":796:806  activeCode */\n      dup3\n        /* \"src/activeCode.sol\":796:819  activeCode <= 999999999 */\n      gt\n      iszero\n        /* \"src/activeCode.sol\":769:819  activeCode >= 100000000 && activeCode <= 999999999 */\n    tag_226:\n        /* \"src/activeCode.sol\":761:854  require(activeCode >= 100000000 && activeCode <= 999999999, \"Invalid activation code format\") */\n      tag_227\n      jumpi\n      mload(0x40)\n      0x08c379a000000000000000000000000000000000000000000000000000000000\n      dup2\n      mstore\n      0x04\n      add\n      tag_228\n      swap1\n      tag_229\n      jump\t// in\n    tag_228:\n      mload(0x40)\n      dup1\n      swap2\n      sub\n      swap1\n      revert\n    tag_227:\n        /* \"src/activeCode.sol\":864:880  uint256 checksum */\n      0x00\n        /* \"src/activeCode.sol\":896:898  10 */\n      0x0a\n        /* \"src/activeCode.sol\":883:893  activeCode */\n      dup4\n        /* \"src/activeCode.sol\":883:898  activeCode % 10 */\n      tag_230\n      swap2\n      swap1\n      tag_231\n      jump\t// in\n    tag_230:\n        /* \"src/activeCode.sol\":864:898  uint256 checksum = activeCode % 10 */\n      swap1\n      pop\n        /* \"src/activeCode.sol\":908:927  uint256 interleaved */\n      0x00\n        /* \"src/activeCode.sol\":943:945  10 */\n      0x0a\n        /* \"src/activeCode.sol\":930:940  activeCode */\n      dup5\n        /* \"src/activeCode.sol\":930:945  activeCode / 10 */\n      tag_232\n      swap2\n      swap1\n      tag_233\n      jump\t// in\n    tag_232:\n        /* \"src/activeCode.sol\":908:945  uint256 interleaved = activeCode / 10 */\n      swap1\n      pop\n        /* \"src/activeCode.sol\":955:981  uint256 calculatedChecksum */\n      0x00\n        /* \"src/activeCode.sol\":984:1015  _calculateChecksum(interleaved) */\n      tag_234\n        /* \"src/activeCode.sol\":1003:1014  interleaved */\n      dup3\n        /* \"src/activeCode.sol\":984:1002  _calculateChecksum */\n      tag_235\n        /* \"src/activeCode.sol\":984:1015  _calculateChecksum(interleaved) */\n      jump\t// in\n    tag_234:\n        /* \"src/activeCode.sol\":955:1015  uint256 calculatedChecksum = _calculateChecksum(interleaved) */\n      swap1\n      pop\n        /* \"src/activeCode.sol\":1045:1063  calculatedChecksum */\n      dup1\n        /* \"src/activeCode.sol\":1033:1041  checksum */\n      dup4\n        /* \"src/activeCode.sol\":1033:1063  checksum == calculatedChecksum */\n      eq\n        /* \"src/activeCode.sol\":1025:1064  return (checksum == calculatedChecksum) */\n      swap4\n      pop\n      pop\n      pop\n      pop\n        /* \"src/activeCode.sol\":678:1071  function verifyChecksum(uint256 activeCode) internal pure returns (bool) {... */\n      swap2\n      swap1\n      pop\n      jump\t// out\n        /* \"src/activeCode.sol\":91:672  function generateActiveCode() internal view returns (uint256) {... */\n    tag_105:\n        /* \"src/activeCode.sol\":144:151  uint256 */\n      0x00\n        /* \"src/activeCode.sol\":163:177  uint256 minute */\n      dup1\n        /* \"src/activeCode.sol\":205:207  60 */\n      0x3c\n        /* \"src/activeCode.sol\":199:201  60 */\n      dup1\n        /* \"src/activeCode.sol\":181:196  block.timestamp */\n      timestamp\n        /* \"src/activeCode.sol\":181:201  block.timestamp / 60 */\n      tag_237\n      swap2\n      swap1\n      tag_233\n      jump\t// in\n    tag_237:\n        /* \"src/activeCode.sol\":180:207  (block.timestamp / 60) % 60 */\n      tag_238\n      swap2\n      swap1\n      tag_231\n      jump\t// in\n    tag_238:\n        /* \"src/activeCode.sol\":163:207  uint256 minute = (block.timestamp / 60) % 60 */\n      swap1\n      pop\n        /* \"src/activeCode.sol\":217:231  uint256 second */\n      0x00\n        /* \"src/activeCode.sol\":252:254  60 */\n      0x3c\n        /* \"src/activeCode.sol\":234:249  block.timestamp */\n      timestamp\n        /* \"src/activeCode.sol\":234:254  block.timestamp % 60 */\n      tag_239\n      swap2\n      swap1\n      tag_231\n      jump\t// in\n    tag_239:\n        /* \"src/activeCode.sol\":217:254  uint256 second = block.timestamp % 60 */\n      swap1\n      pop\n        /* \"src/activeCode.sol\":264:286  uint256 compressedTime */\n      0x00\n        /* \"src/activeCode.sol\":305:311  second */\n      dup2\n        /* \"src/activeCode.sol\":299:301  60 */\n      0x3c\n        /* \"src/activeCode.sol\":290:296  minute */\n      dup5\n        /* \"src/activeCode.sol\":290:301  minute * 60 */\n      tag_240\n      swap2\n      swap1\n      tag_241\n      jump\t// in\n    tag_240:\n        /* \"src/activeCode.sol\":289:311  (minute * 60) + second */\n      tag_242\n      swap2\n      swap1\n      tag_243\n      jump\t// in\n    tag_242:\n        /* \"src/activeCode.sol\":264:311  uint256 compressedTime = (minute * 60) + second */\n      swap1\n      pop\n        /* \"src/activeCode.sol\":321:340  uint256 encodedTime */\n      0x00\n        /* \"src/activeCode.sol\":369:373  3540 */\n      0x0dd4\n        /* \"src/activeCode.sol\":361:365  9999 */\n      0x270f\n        /* \"src/activeCode.sol\":344:358  compressedTime */\n      dup4\n        /* \"src/activeCode.sol\":344:365  compressedTime * 9999 */\n      tag_244\n      swap2\n      swap1\n      tag_241\n      jump\t// in\n    tag_244:\n        /* \"src/activeCode.sol\":343:373  (compressedTime * 9999) / 3540 */\n      tag_245\n      swap2\n      swap1\n      tag_233\n      jump\t// in\n    tag_245:\n        /* \"src/activeCode.sol\":321:373  uint256 encodedTime = (compressedTime * 9999) / 3540 */\n      swap1\n      pop\n        /* \"src/activeCode.sol\":383:401  uint256 randomPart */\n      0x00\n        /* \"src/activeCode.sol\":481:485  1000 */\n      0x03e8\n        /* \"src/activeCode.sol\":473:477  9000 */\n      0x2328\n        /* \"src/activeCode.sol\":440:455  block.timestamp */\n      timestamp\n        /* \"src/activeCode.sol\":457:467  msg.sender */\n      caller\n        /* \"src/activeCode.sol\":423:468  abi.encodePacked(block.timestamp, msg.sender) */\n      add(0x20, mload(0x40))\n      tag_246\n      swap3\n      swap2\n      swap1\n      tag_247\n      jump\t// in\n    tag_246:\n      mload(0x40)\n      0x20\n      dup2\n      dup4\n      sub\n      sub\n      dup2\n      mstore\n      swap1\n      0x40\n      mstore\n        /* \"src/activeCode.sol\":413:469  keccak256(abi.encodePacked(block.timestamp, msg.sender)) */\n      dup1\n      mload\n      swap1\n      0x20\n      add\n      keccak256\n        /* \"src/activeCode.sol\":405:470  uint256(keccak256(abi.encodePacked(block.timestamp, msg.sender))) */\n      0x00\n      shr\n        /* \"src/activeCode.sol\":405:477  uint256(keccak256(abi.encodePacked(block.timestamp, msg.sender))) % 9000 */\n      tag_248\n      swap2\n      swap1\n      tag_231\n      jump\t// in\n    tag_248:\n        /* \"src/activeCode.sol\":404:485  (uint256(keccak256(abi.encodePacked(block.timestamp, msg.sender))) % 9000) + 1000 */\n      tag_249\n      swap2\n      swap1\n      tag_243\n      jump\t// in\n    tag_249:\n        /* \"src/activeCode.sol\":383:485  uint256 randomPart = (uint256(keccak256(abi.encodePacked(block.timestamp, msg.sender))) % 9000) + 1000 */\n      swap1\n      pop\n        /* \"src/activeCode.sol\":495:514  uint256 interleaved */\n      0x00\n        /* \"src/activeCode.sol\":517:559  _interleaveDigits(encodedTime, randomPart) */\n      tag_250\n        /* \"src/activeCode.sol\":535:546  encodedTime */\n      dup4\n        /* \"src/activeCode.sol\":548:558  randomPart */\n      dup4\n        /* \"src/activeCode.sol\":517:534  _interleaveDigits */\n      tag_251\n        /* \"src/activeCode.sol\":517:559  _interleaveDigits(encodedTime, randomPart) */\n      jump\t// in\n    tag_250:\n        /* \"src/activeCode.sol\":495:559  uint256 interleaved = _interleaveDigits(encodedTime, randomPart) */\n      swap1\n      pop\n        /* \"src/activeCode.sol\":569:585  uint256 checksum */\n      0x00\n        /* \"src/activeCode.sol\":588:619  _calculateChecksum(interleaved) */\n      tag_252\n        /* \"src/activeCode.sol\":607:618  interleaved */\n      dup3\n        /* \"src/activeCode.sol\":588:606  _calculateChecksum */\n      tag_235\n        /* \"src/activeCode.sol\":588:619  _calculateChecksum(interleaved) */\n      jump\t// in\n    tag_252:\n        /* \"src/activeCode.sol\":569:619  uint256 checksum = _calculateChecksum(interleaved) */\n      swap1\n      pop\n        /* \"src/activeCode.sol\":657:665  checksum */\n      dup1\n        /* \"src/activeCode.sol\":651:653  10 */\n      0x0a\n        /* \"src/activeCode.sol\":637:648  interleaved */\n      dup4\n        /* \"src/activeCode.sol\":637:653  interleaved * 10 */\n      tag_253\n      swap2\n      swap1\n      tag_241\n      jump\t// in\n    tag_253:\n        /* \"src/activeCode.sol\":636:665  (interleaved * 10) + checksum */\n      tag_254\n      swap2\n      swap1\n      tag_243\n      jump\t// in\n    tag_254:\n        /* \"src/activeCode.sol\":629:665  return (interleaved * 10) + checksum */\n      swap8\n      pop\n      pop\n      pop\n      pop\n      pop\n      pop\n      pop\n      pop\n        /* \"src/activeCode.sol\":91:672  function generateActiveCode() internal view returns (uint256) {... */\n      swap1\n      jump\t// out\n        /* \"src/activeCode.sol\":1504:1635  function _calculateChecksum(uint256 interleaved) private pure returns (uint256) {... */\n    tag_235:\n        /* \"src/activeCode.sol\":1575:1582  uint256 */\n      0x00\n        /* \"src/activeCode.sol\":1626:1628  10 */\n      0x0a\n        /* \"src/activeCode.sol\":1601:1623  _digitSum(interleaved) */\n      tag_256\n        /* \"src/activeCode.sol\":1611:1622  interleaved */\n      dup4\n        /* \"src/activeCode.sol\":1601:1610  _digitSum */\n      tag_257\n        /* \"src/activeCode.sol\":1601:1623  _digitSum(interleaved) */\n      jump\t// in\n    tag_256:\n        /* \"src/activeCode.sol\":1601:1628  _digitSum(interleaved) % 10 */\n      tag_258\n      swap2\n      swap1\n      tag_231\n      jump\t// in\n    tag_258:\n        /* \"src/activeCode.sol\":1594:1628  return _digitSum(interleaved) % 10 */\n      swap1\n      pop\n        /* \"src/activeCode.sol\":1504:1635  function _calculateChecksum(uint256 interleaved) private pure returns (uint256) {... */\n      swap2\n      swap1\n      pop\n      jump\t// out\n        /* \"src/activeCode.sol\":1077:1498  function _interleaveDigits(uint256 encodedTime, uint256 randomPart) private pure returns (uint256) {... */\n    tag_251:\n        /* \"src/activeCode.sol\":1167:1174  uint256 */\n      0x00\n        /* \"src/activeCode.sol\":1186:1200  uint256 result */\n      dup1\n        /* \"src/activeCode.sol\":1203:1204  0 */\n      0x00\n        /* \"src/activeCode.sol\":1186:1204  uint256 result = 0 */\n      swap1\n      pop\n        /* \"src/activeCode.sol\":1219:1228  uint256 i */\n      0x00\n        /* \"src/activeCode.sol\":1214:1469  for (uint256 i = 0; i < 4; i++) {... */\n    tag_260:\n        /* \"src/activeCode.sol\":1238:1239  4 */\n      0x04\n        /* \"src/activeCode.sol\":1234:1235  i */\n      dup2\n        /* \"src/activeCode.sol\":1234:1239  i < 4 */\n      lt\n        /* \"src/activeCode.sol\":1214:1469  for (uint256 i = 0; i < 4; i++) {... */\n      iszero\n      tag_261\n      jumpi\n        /* \"src/activeCode.sol\":1260:1277  uint256 timeDigit */\n      0x00\n        /* \"src/activeCode.sol\":1306:1308  10 */\n      0x0a\n        /* \"src/activeCode.sol\":1300:1301  i */\n      dup3\n        /* \"src/activeCode.sol\":1296:1298  10 */\n      0x0a\n        /* \"src/activeCode.sol\":1296:1301  10**i */\n      tag_263\n      swap2\n      swap1\n      tag_264\n      jump\t// in\n    tag_263:\n        /* \"src/activeCode.sol\":1281:1292  encodedTime */\n      dup8\n        /* \"src/activeCode.sol\":1281:1302  encodedTime / (10**i) */\n      tag_265\n      swap2\n      swap1\n      tag_233\n      jump\t// in\n    tag_265:\n        /* \"src/activeCode.sol\":1280:1308  (encodedTime / (10**i)) % 10 */\n      tag_266\n      swap2\n      swap1\n      tag_231\n      jump\t// in\n    tag_266:\n        /* \"src/activeCode.sol\":1260:1308  uint256 timeDigit = (encodedTime / (10**i)) % 10 */\n      swap1\n      pop\n        /* \"src/activeCode.sol\":1322:1341  uint256 randomDigit */\n      0x00\n        /* \"src/activeCode.sol\":1369:1371  10 */\n      0x0a\n        /* \"src/activeCode.sol\":1363:1364  i */\n      dup4\n        /* \"src/activeCode.sol\":1359:1361  10 */\n      0x0a\n        /* \"src/activeCode.sol\":1359:1364  10**i */\n      tag_267\n      swap2\n      swap1\n      tag_264\n      jump\t// in\n    tag_267:\n        /* \"src/activeCode.sol\":1345:1355  randomPart */\n      dup8\n        /* \"src/activeCode.sol\":1345:1365  randomPart / (10**i) */\n      tag_268\n      swap2\n      swap1\n      tag_233\n      jump\t// in\n    tag_268:\n        /* \"src/activeCode.sol\":1344:1371  (randomPart / (10**i)) % 10 */\n      tag_269\n      swap2\n      swap1\n      tag_231\n      jump\t// in\n    tag_269:\n        /* \"src/activeCode.sol\":1322:1371  uint256 randomDigit = (randomPart / (10**i)) % 10 */\n      swap1\n      pop\n        /* \"src/activeCode.sol\":1454:1455  2 */\n      0x02\n        /* \"src/activeCode.sol\":1450:1451  i */\n      dup4\n        /* \"src/activeCode.sol\":1450:1455  i * 2 */\n      tag_270\n      swap2\n      swap1\n      tag_241\n      jump\t// in\n    tag_270:\n        /* \"src/activeCode.sol\":1445:1447  10 */\n      0x0a\n        /* \"src/activeCode.sol\":1445:1456  10**(i * 2) */\n      tag_271\n      swap2\n      swap1\n      tag_264\n      jump\t// in\n    tag_271:\n        /* \"src/activeCode.sol\":1432:1441  timeDigit */\n      dup3\n        /* \"src/activeCode.sol\":1432:1457  timeDigit * (10**(i * 2)) */\n      tag_272\n      swap2\n      swap1\n      tag_241\n      jump\t// in\n    tag_272:\n        /* \"src/activeCode.sol\":1424:1425  1 */\n      0x01\n        /* \"src/activeCode.sol\":1420:1421  2 */\n      0x02\n        /* \"src/activeCode.sol\":1416:1417  i */\n      dup6\n        /* \"src/activeCode.sol\":1416:1421  i * 2 */\n      tag_273\n      swap2\n      swap1\n      tag_241\n      jump\t// in\n    tag_273:\n        /* \"src/activeCode.sol\":1416:1425  i * 2 + 1 */\n      tag_274\n      swap2\n      swap1\n      tag_243\n      jump\t// in\n    tag_274:\n        /* \"src/activeCode.sol\":1411:1413  10 */\n      0x0a\n        /* \"src/activeCode.sol\":1411:1426  10**(i * 2 + 1) */\n      tag_275\n      swap2\n      swap1\n      tag_264\n      jump\t// in\n    tag_275:\n        /* \"src/activeCode.sol\":1396:1407  randomDigit */\n      dup3\n        /* \"src/activeCode.sol\":1396:1427  randomDigit * (10**(i * 2 + 1)) */\n      tag_276\n      swap2\n      swap1\n      tag_241\n      jump\t// in\n    tag_276:\n        /* \"src/activeCode.sol\":1395:1458  (randomDigit * (10**(i * 2 + 1))) + (timeDigit * (10**(i * 2))) */\n      tag_277\n      swap2\n      swap1\n      tag_243\n      jump\t// in\n    tag_277:\n        /* \"src/activeCode.sol\":1385:1458  result += (randomDigit * (10**(i * 2 + 1))) + (timeDigit * (10**(i * 2))) */\n      dup5\n      tag_278\n      swap2\n      swap1\n      tag_243\n      jump\t// in\n    tag_278:\n      swap4\n      pop\n        /* \"src/activeCode.sol\":1246:1469  {... */\n      pop\n      pop\n        /* \"src/activeCode.sol\":1241:1244  i++ */\n      dup1\n      dup1\n      0x01\n      add\n      swap2\n      pop\n      pop\n        /* \"src/activeCode.sol\":1214:1469  for (uint256 i = 0; i < 4; i++) {... */\n      jump(tag_260)\n    tag_261:\n      pop\n        /* \"src/activeCode.sol\":1485:1491  result */\n      dup1\n        /* \"src/activeCode.sol\":1478:1491  return result */\n      swap2\n      pop\n      pop\n        /* \"src/activeCode.sol\":1077:1498  function _interleaveDigits(uint256 encodedTime, uint256 randomPart) private pure returns (uint256) {... */\n      swap3\n      swap2\n      pop\n      pop\n      jump\t// out\n        /* \"src/activeCode.sol\":1641:1852  function _digitSum(uint256 value) private pure returns (uint256) {... */\n    tag_257:\n        /* \"src/activeCode.sol\":1697:1704  uint256 */\n      0x00\n        /* \"src/activeCode.sol\":1716:1727  uint256 sum */\n      dup1\n        /* \"src/activeCode.sol\":1730:1731  0 */\n      0x00\n        /* \"src/activeCode.sol\":1716:1731  uint256 sum = 0 */\n      swap1\n      pop\n        /* \"src/activeCode.sol\":1741:1826  while (value > 0) {... */\n    tag_280:\n        /* \"src/activeCode.sol\":1756:1757  0 */\n      0x00\n        /* \"src/activeCode.sol\":1748:1753  value */\n      dup4\n        /* \"src/activeCode.sol\":1748:1757  value > 0 */\n      gt\n        /* \"src/activeCode.sol\":1741:1826  while (value > 0) {... */\n      iszero\n      tag_281\n      jumpi\n        /* \"src/activeCode.sol\":1788:1790  10 */\n      0x0a\n        /* \"src/activeCode.sol\":1780:1785  value */\n      dup4\n        /* \"src/activeCode.sol\":1780:1790  value % 10 */\n      tag_282\n      swap2\n      swap1\n      tag_231\n      jump\t// in\n    tag_282:\n        /* \"src/activeCode.sol\":1773:1790  sum += value % 10 */\n      dup2\n      tag_283\n      swap2\n      swap1\n      tag_243\n      jump\t// in\n    tag_283:\n      swap1\n      pop\n        /* \"src/activeCode.sol\":1813:1815  10 */\n      0x0a\n        /* \"src/activeCode.sol\":1804:1815  value /= 10 */\n      dup4\n      tag_284\n      swap2\n      swap1\n      tag_233\n      jump\t// in\n    tag_284:\n      swap3\n      pop\n        /* \"src/activeCode.sol\":1741:1826  while (value > 0) {... */\n      jump(tag_280)\n    tag_281:\n        /* \"src/activeCode.sol\":1842:1845  sum */\n      dup1\n        /* \"src/activeCode.sol\":1835:1845  return sum */\n      swap2\n      pop\n      pop\n        /* \"src/activeCode.sol\":1641:1852  function _digitSum(uint256 value) private pure returns (uint256) {... */\n      swap2\n      swap1\n      pop\n      jump\t// out\n    tag_74:\n      pop\n      dup1\n      sload\n      tag_285\n      swap1\n      tag_123\n      jump\t// in\n    tag_285:\n      0x00\n      dup3\n      sstore\n      dup1\n      0x1f\n      lt\n      tag_287\n      jumpi\n      pop\n      jump(tag_286)\n    tag_287:\n      0x1f\n      add\n      0x20\n      swap1\n      div\n      swap1\n      0x00\n      mstore\n      keccak256(0x00, 0x20)\n      swap1\n      dup2\n      add\n      swap1\n      tag_288\n      swap2\n      swap1\n      tag_289\n      jump\t// in\n    tag_288:\n    tag_286:\n      pop\n      jump\t// out\n    tag_113:\n      mload(0x40)\n      dup1\n      0xa0\n      add\n      0x40\n      mstore\n      dup1\n      0x60\n      dup2\n      mstore\n      0x20\n      add\n      0x60\n      dup2\n      mstore\n      0x20\n      add\n      0x60\n      dup2\n      mstore\n      0x20\n      add\n      0x60\n      dup2\n      mstore\n      0x20\n      add\n      0x00\n      dup2\n      mstore\n      pop\n      swap1\n      jump\t// out\n    tag_115:\n      mload(0x40)\n      dup1\n      0xc0\n      add\n      0x40\n      mstore\n      dup1\n      0x60\n      dup2\n      mstore\n      0x20\n      add\n      0x60\n      dup2\n      mstore\n      0x20\n      add\n      0x60\n      dup2\n      mstore\n      0x20\n      add\n      0x60\n      dup2\n      mstore\n      0x20\n      add\n      0x00\n      dup2\n      mstore\n      0x20\n      add\n      0x00\n      dup2\n      mstore\n      pop\n      swap1\n      jump\t// out\n    tag_289:\n    tag_290:\n      dup1\n      dup3\n      gt\n      iszero\n      tag_291\n      jumpi\n      0x00\n      dup2\n      0x00\n      swap1\n      sstore\n      pop\n      0x01\n      add\n      jump(tag_290)\n    tag_291:\n      pop\n      swap1\n      jump\t// out\n        /* \"#utility.yul\":7:82   */\n    tag_292:\n        /* \"#utility.yul\":40:46   */\n      0x00\n        /* \"#utility.yul\":73:75   */\n      0x40\n        /* \"#utility.yul\":67:76   */\n      mload\n        /* \"#utility.yul\":57:76   */\n      swap1\n      pop\n        /* \"#utility.yul\":7:82   */\n      swap1\n      jump\t// out\n        /* \"#utility.yul\":88:205   */\n    tag_293:\n        /* \"#utility.yul\":197:198   */\n      0x00\n        /* \"#utility.yul\":194:195   */\n      dup1\n        /* \"#utility.yul\":187:199   */\n      revert\n        /* \"#utility.yul\":211:328   */\n    tag_294:\n        /* \"#utility.yul\":320:321   */\n      0x00\n        /* \"#utility.yul\":317:318   */\n      dup1\n        /* \"#utility.yul\":310:322   */\n      revert\n        /* \"#utility.yul\":334:411   */\n    tag_295:\n        /* \"#utility.yul\":371:378   */\n      0x00\n        /* \"#utility.yul\":400:405   */\n      dup2\n        /* \"#utility.yul\":389:405   */\n      swap1\n      pop\n        /* \"#utility.yul\":334:411   */\n      swap2\n      swap1\n      pop\n      jump\t// out\n        /* \"#utility.yul\":417:539   */\n    tag_296:\n        /* \"#utility.yul\":490:514   */\n      tag_368\n        /* \"#utility.yul\":508:513   */\n      dup2\n        /* \"#utility.yul\":490:514   */\n      tag_295\n      jump\t// in\n    tag_368:\n        /* \"#utility.yul\":483:488   */\n      dup2\n        /* \"#utility.yul\":480:515   */\n      eq\n        /* \"#utility.yul\":470:533   */\n      tag_369\n      jumpi\n        /* \"#utility.yul\":529:530   */\n      0x00\n        /* \"#utility.yul\":526:527   */\n      dup1\n        /* \"#utility.yul\":519:531   */\n      revert\n        /* \"#utility.yul\":470:533   */\n    tag_369:\n        /* \"#utility.yul\":417:539   */\n      pop\n      jump\t// out\n        /* \"#utility.yul\":545:684   */\n    tag_297:\n        /* \"#utility.yul\":591:596   */\n      0x00\n        /* \"#utility.yul\":629:635   */\n      dup2\n        /* \"#utility.yul\":616:636   */\n      calldataload\n        /* \"#utility.yul\":607:636   */\n      swap1\n      pop\n        /* \"#utility.yul\":645:678   */\n      tag_371\n        /* \"#utility.yul\":672:677   */\n      dup2\n        /* \"#utility.yul\":645:678   */\n      tag_296\n      jump\t// in\n    tag_371:\n        /* \"#utility.yul\":545:684   */\n      swap3\n      swap2\n      pop\n      pop\n      jump\t// out\n        /* \"#utility.yul\":690:1019   */\n    tag_18:\n        /* \"#utility.yul\":749:755   */\n      0x00\n        /* \"#utility.yul\":798:800   */\n      0x20\n        /* \"#utility.yul\":786:795   */\n      dup3\n        /* \"#utility.yul\":777:784   */\n      dup5\n        /* \"#utility.yul\":773:796   */\n      sub\n        /* \"#utility.yul\":769:801   */\n      slt\n        /* \"#utility.yul\":766:885   */\n      iszero\n      tag_373\n      jumpi\n        /* \"#utility.yul\":804:883   */\n      tag_374\n      tag_293\n      jump\t// in\n    tag_374:\n        /* \"#utility.yul\":766:885   */\n    tag_373:\n        /* \"#utility.yul\":924:925   */\n      0x00\n        /* \"#utility.yul\":949:1002   */\n      tag_375\n        /* \"#utility.yul\":994:1001   */\n      dup5\n        /* \"#utility.yul\":985:991   */\n      dup3\n        /* \"#utility.yul\":974:983   */\n      dup6\n        /* \"#utility.yul\":970:992   */\n      add\n        /* \"#utility.yul\":949:1002   */\n      tag_297\n      jump\t// in\n    tag_375:\n        /* \"#utility.yul\":939:1002   */\n      swap2\n      pop\n        /* \"#utility.yul\":895:1012   */\n      pop\n        /* \"#utility.yul\":690:1019   */\n      swap3\n      swap2\n      pop\n      pop\n      jump\t// out\n        /* \"#utility.yul\":1025:1151   */\n    tag_298:\n        /* \"#utility.yul\":1062:1069   */\n      0x00\n        /* \"#utility.yul\":1102:1144   */\n      0xffffffffffffffffffffffffffffffffffffffff\n        /* \"#utility.yul\":1095:1100   */\n      dup3\n        /* \"#utility.yul\":1091:1145   */\n      and\n        /* \"#utility.yul\":1080:1145   */\n      swap1\n      pop\n        /* \"#utility.yul\":1025:1151   */\n      swap2\n      swap1\n      pop\n      jump\t// out\n        /* \"#utility.yul\":1157:1253   */\n    tag_299:\n        /* \"#utility.yul\":1194:1201   */\n      0x00\n        /* \"#utility.yul\":1223:1247   */\n      tag_378\n        /* \"#utility.yul\":1241:1246   */\n      dup3\n        /* \"#utility.yul\":1223:1247   */\n      tag_298\n      jump\t// in\n    tag_378:\n        /* \"#utility.yul\":1212:1247   */\n      swap1\n      pop\n        /* \"#utility.yul\":1157:1253   */\n      swap2\n      swap1\n      pop\n      jump\t// out\n        /* \"#utility.yul\":1259:1377   */\n    tag_300:\n        /* \"#utility.yul\":1346:1370   */\n      tag_380\n        /* \"#utility.yul\":1364:1369   */\n      dup2\n        /* \"#utility.yul\":1346:1370   */\n      tag_299\n      jump\t// in\n    tag_380:\n        /* \"#utility.yul\":1341:1344   */\n      dup3\n        /* \"#utility.yul\":1334:1371   */\n      mstore\n        /* \"#utility.yul\":1259:1377   */\n      pop\n      pop\n      jump\t// out\n        /* \"#utility.yul\":1383:1605   */\n    tag_21:\n        /* \"#utility.yul\":1476:1480   */\n      0x00\n        /* \"#utility.yul\":1514:1516   */\n      0x20\n        /* \"#utility.yul\":1503:1512   */\n      dup3\n        /* \"#utility.yul\":1499:1517   */\n      add\n        /* \"#utility.yul\":1491:1517   */\n      swap1\n      pop\n        /* \"#utility.yul\":1527:1598   */\n      tag_382\n        /* \"#utility.yul\":1595:1596   */\n      0x00\n        /* \"#utility.yul\":1584:1593   */\n      dup4\n        /* \"#utility.yul\":1580:1597   */\n      add\n        /* \"#utility.yul\":1571:1577   */\n      dup5\n        /* \"#utility.yul\":1527:1598   */\n      tag_300\n      jump\t// in\n    tag_382:\n        /* \"#utility.yul\":1383:1605   */\n      swap3\n      swap2\n      pop\n      pop\n      jump\t// out\n        /* \"#utility.yul\":1611:1733   */\n    tag_301:\n        /* \"#utility.yul\":1684:1708   */\n      tag_384\n        /* \"#utility.yul\":1702:1707   */\n      dup2\n        /* \"#utility.yul\":1684:1708   */\n      tag_299\n      jump\t// in\n    tag_384:\n        /* \"#utility.yul\":1677:1682   */\n      dup2\n        /* \"#utility.yul\":1674:1709   */\n      eq\n        /* \"#utility.yul\":1664:1727   */\n      tag_385\n      jumpi\n        /* \"#utility.yul\":1723:1724   */\n      0x00\n        /* \"#utility.yul\":1720:1721   */\n      dup1\n        /* \"#utility.yul\":1713:1725   */\n      revert\n        /* \"#utility.yul\":1664:1727   */\n    tag_385:\n        /* \"#utility.yul\":1611:1733   */\n      pop\n      jump\t// out\n        /* \"#utility.yul\":1739:1878   */\n    tag_302:\n        /* \"#utility.yul\":1785:1790   */\n      0x00\n        /* \"#utility.yul\":1823:1829   */\n      dup2\n        /* \"#utility.yul\":1810:1830   */\n      calldataload\n        /* \"#utility.yul\":1801:1830   */\n      swap1\n      pop\n        /* \"#utility.yul\":1839:1872   */\n      tag_387\n        /* \"#utility.yul\":1866:1871   */\n      dup2\n        /* \"#utility.yul\":1839:1872   */\n      tag_301\n      jump\t// in\n    tag_387:\n        /* \"#utility.yul\":1739:1878   */\n      swap3\n      swap2\n      pop\n      pop\n      jump\t// out\n        /* \"#utility.yul\":1884:2213   */\n    tag_24:\n        /* \"#utility.yul\":1943:1949   */\n      0x00\n        /* \"#utility.yul\":1992:1994   */\n      0x20\n        /* \"#utility.yul\":1980:1989   */\n      dup3\n        /* \"#utility.yul\":1971:1978   */\n      dup5\n        /* \"#utility.yul\":1967:1990   */\n      sub\n        /* \"#utility.yul\":1963:1995   */\n      slt\n        /* \"#utility.yul\":1960:2079   */\n      iszero\n      tag_389\n      jumpi\n        /* \"#utility.yul\":1998:2077   */\n      tag_390\n      tag_293\n      jump\t// in\n    tag_390:\n        /* \"#utility.yul\":1960:2079   */\n    tag_389:\n        /* \"#utility.yul\":2118:2119   */\n      0x00\n        /* \"#utility.yul\":2143:2196   */\n      tag_391\n        /* \"#utility.yul\":2188:2195   */\n      dup5\n        /* \"#utility.yul\":2179:2185   */\n      dup3\n        /* \"#utility.yul\":2168:2177   */\n      dup6\n        /* \"#utility.yul\":2164:2186   */\n      add\n        /* \"#utility.yul\":2143:2196   */\n      tag_302\n      jump\t// in\n    tag_391:\n        /* \"#utility.yul\":2133:2196   */\n      swap2\n      pop\n        /* \"#utility.yul\":2089:2206   */\n      pop\n        /* \"#utility.yul\":1884:2213   */\n      swap3\n      swap2\n      pop\n      pop\n      jump\t// out\n        /* \"#utility.yul\":2219:2336   */\n    tag_303:\n        /* \"#utility.yul\":2328:2329   */\n      0x00\n        /* \"#utility.yul\":2325:2326   */\n      dup1\n        /* \"#utility.yul\":2318:2330   */\n      revert\n        /* \"#utility.yul\":2342:2459   */\n    tag_304:\n        /* \"#utility.yul\":2451:2452   */\n      0x00\n        /* \"#utility.yul\":2448:2449   */\n      dup1\n        /* \"#utility.yul\":2441:2453   */\n      revert\n        /* \"#utility.yul\":2465:2567   */\n    tag_305:\n        /* \"#utility.yul\":2506:2512   */\n      0x00\n        /* \"#utility.yul\":2557:2559   */\n      0x1f\n        /* \"#utility.yul\":2553:2560   */\n      not\n        /* \"#utility.yul\":2548:2550   */\n      0x1f\n        /* \"#utility.yul\":2541:2546   */\n      dup4\n        /* \"#utility.yul\":2537:2551   */\n      add\n        /* \"#utility.yul\":2533:2561   */\n      and\n        /* \"#utility.yul\":2523:2561   */\n      swap1\n      pop\n        /* \"#utility.yul\":2465:2567   */\n      swap2\n      swap1\n      pop\n      jump\t// out\n        /* \"#utility.yul\":2573:2753   */\n    tag_306:\n        /* \"#utility.yul\":2621:2698   */\n      0x4e487b7100000000000000000000000000000000000000000000000000000000\n        /* \"#utility.yul\":2618:2619   */\n      0x00\n        /* \"#utility.yul\":2611:2699   */\n      mstore\n        /* \"#utility.yul\":2718:2722   */\n      0x41\n        /* \"#utility.yul\":2715:2716   */\n      0x04\n        /* \"#utility.yul\":2708:2723   */\n      mstore\n        /* \"#utility.yul\":2742:2746   */\n      0x24\n        /* \"#utility.yul\":2739:2740   */\n      0x00\n        /* \"#utility.yul\":2732:2747   */\n      revert\n        /* \"#utility.yul\":2759:3040   */\n    tag_307:\n        /* \"#utility.yul\":2842:2869   */\n      tag_397\n        /* \"#utility.yul\":2864:2868   */\n      dup3\n        /* \"#utility.yul\":2842:2869   */\n      tag_305\n      jump\t// in\n    tag_397:\n        /* \"#utility.yul\":2834:2840   */\n      dup2\n        /* \"#utility.yul\":2830:2870   */\n      add\n        /* \"#utility.yul\":2972:2978   */\n      dup2\n        /* \"#utility.yul\":2960:2970   */\n      dup2\n        /* \"#utility.yul\":2957:2979   */\n      lt\n        /* \"#utility.yul\":2936:2954   */\n      0xffffffffffffffff\n        /* \"#utility.yul\":2924:2934   */\n      dup3\n        /* \"#utility.yul\":2921:2955   */\n      gt\n        /* \"#utility.yul\":2918:2980   */\n      or\n        /* \"#utility.yul\":2915:3003   */\n      iszero\n      tag_398\n      jumpi\n        /* \"#utility.yul\":2983:3001   */\n      tag_399\n      tag_306\n      jump\t// in\n    tag_399:\n        /* \"#utility.yul\":2915:3003   */\n    tag_398:\n        /* \"#utility.yul\":3023:3033   */\n      dup1\n        /* \"#utility.yul\":3019:3021   */\n      0x40\n        /* \"#utility.yul\":3012:3034   */\n      mstore\n        /* \"#utility.yul\":2802:3040   */\n      pop\n        /* \"#utility.yul\":2759:3040   */\n      pop\n      pop\n      jump\t// out\n        /* \"#utility.yul\":3046:3175   */\n    tag_308:\n        /* \"#utility.yul\":3080:3086   */\n      0x00\n        /* \"#utility.yul\":3107:3127   */\n      tag_401\n      tag_292\n      jump\t// in\n    tag_401:\n        /* \"#utility.yul\":3097:3127   */\n      swap1\n      pop\n        /* \"#utility.yul\":3136:3169   */\n      tag_402\n        /* \"#utility.yul\":3164:3168   */\n      dup3\n        /* \"#utility.yul\":3156:3162   */\n      dup3\n        /* \"#utility.yul\":3136:3169   */\n      tag_307\n      jump\t// in\n    tag_402:\n        /* \"#utility.yul\":3046:3175   */\n      swap2\n      swap1\n      pop\n      jump\t// out\n        /* \"#utility.yul\":3181:3489   */\n    tag_309:\n        /* \"#utility.yul\":3243:3247   */\n      0x00\n        /* \"#utility.yul\":3333:3351   */\n      0xffffffffffffffff\n        /* \"#utility.yul\":3325:3331   */\n      dup3\n        /* \"#utility.yul\":3322:3352   */\n      gt\n        /* \"#utility.yul\":3319:3375   */\n      iszero\n      tag_404\n      jumpi\n        /* \"#utility.yul\":3355:3373   */\n      tag_405\n      tag_306\n      jump\t// in\n    tag_405:\n        /* \"#utility.yul\":3319:3375   */\n    tag_404:\n        /* \"#utility.yul\":3393:3422   */\n      tag_406\n        /* \"#utility.yul\":3415:3421   */\n      dup3\n        /* \"#utility.yul\":3393:3422   */\n      tag_305\n      jump\t// in\n    tag_406:\n        /* \"#utility.yul\":3385:3422   */\n      swap1\n      pop\n        /* \"#utility.yul\":3477:3481   */\n      0x20\n        /* \"#utility.yul\":3471:3475   */\n      dup2\n        /* \"#utility.yul\":3467:3482   */\n      add\n        /* \"#utility.yul\":3459:3482   */\n      swap1\n      pop\n        /* \"#utility.yul\":3181:3489   */\n      swap2\n      swap1\n      pop\n      jump\t// out\n        /* \"#utility.yul\":3495:3643   */\n    tag_310:\n        /* \"#utility.yul\":3593:3599   */\n      dup3\n        /* \"#utility.yul\":3588:3591   */\n      dup2\n        /* \"#utility.yul\":3583:3586   */\n      dup4\n        /* \"#utility.yul\":3570:3600   */\n      calldatacopy\n        /* \"#utility.yul\":3634:3635   */\n      0x00\n        /* \"#utility.yul\":3625:3631   */\n      dup4\n        /* \"#utility.yul\":3620:3623   */\n      dup4\n        /* \"#utility.yul\":3616:3632   */\n      add\n        /* \"#utility.yul\":3609:3636   */\n      mstore\n        /* \"#utility.yul\":3495:3643   */\n      pop\n      pop\n      pop\n      jump\t// out\n        /* \"#utility.yul\":3649:4074   */\n    tag_311:\n        /* \"#utility.yul\":3727:3732   */\n      0x00\n        /* \"#utility.yul\":3752:3818   */\n      tag_409\n        /* \"#utility.yul\":3768:3817   */\n      tag_410\n        /* \"#utility.yul\":3810:3816   */\n      dup5\n        /* \"#utility.yul\":3768:3817   */\n      tag_309\n      jump\t// in\n    tag_410:\n        /* \"#utility.yul\":3752:3818   */\n      tag_308\n      jump\t// in\n    tag_409:\n        /* \"#utility.yul\":3743:3818   */\n      swap1\n      pop\n        /* \"#utility.yul\":3841:3847   */\n      dup3\n        /* \"#utility.yul\":3834:3839   */\n      dup2\n        /* \"#utility.yul\":3827:3848   */\n      mstore\n        /* \"#utility.yul\":3879:3883   */\n      0x20\n        /* \"#utility.yul\":3872:3877   */\n      dup2\n        /* \"#utility.yul\":3868:3884   */\n      add\n        /* \"#utility.yul\":3917:3920   */\n      dup5\n        /* \"#utility.yul\":3908:3914   */\n      dup5\n        /* \"#utility.yul\":3903:3906   */\n      dup5\n        /* \"#utility.yul\":3899:3915   */\n      add\n        /* \"#utility.yul\":3896:3921   */\n      gt\n        /* \"#utility.yul\":3893:4005   */\n      iszero\n      tag_411\n      jumpi\n        /* \"#utility.yul\":3924:4003   */\n      tag_412\n      tag_304\n      jump\t// in\n    tag_412:\n        /* \"#utility.yul\":3893:4005   */\n    tag_411:\n        /* \"#utility.yul\":4014:4068   */\n      tag_413\n        /* \"#utility.yul\":4061:4067   */\n      dup5\n        /* \"#utility.yul\":4056:4059   */\n      dup3\n        /* \"#utility.yul\":4051:4054   */\n      dup6\n        /* \"#utility.yul\":4014:4068   */\n      tag_310\n      jump\t// in\n    tag_413:\n        /* \"#utility.yul\":3733:4074   */\n      pop\n        /* \"#utility.yul\":3649:4074   */\n      swap4\n      swap3\n      pop\n      pop\n      pop\n      jump\t// out\n        /* \"#utility.yul\":4094:4434   */\n    tag_312:\n        /* \"#utility.yul\":4150:4155   */\n      0x00\n        /* \"#utility.yul\":4199:4202   */\n      dup3\n        /* \"#utility.yul\":4192:4196   */\n      0x1f\n        /* \"#utility.yul\":4184:4190   */\n      dup4\n        /* \"#utility.yul\":4180:4197   */\n      add\n        /* \"#utility.yul\":4176:4203   */\n      slt\n        /* \"#utility.yul\":4166:4288   */\n      tag_415\n      jumpi\n        /* \"#utility.yul\":4207:4286   */\n      tag_416\n      tag_303\n      jump\t// in\n    tag_416:\n        /* \"#utility.yul\":4166:4288   */\n    tag_415:\n        /* \"#utility.yul\":4324:4330   */\n      dup2\n        /* \"#utility.yul\":4311:4331   */\n      calldataload\n        /* \"#utility.yul\":4349:4428   */\n      tag_417\n        /* \"#utility.yul\":4424:4427   */\n      dup5\n        /* \"#utility.yul\":4416:4422   */\n      dup3\n        /* \"#utility.yul\":4409:4413   */\n      0x20\n        /* \"#utility.yul\":4401:4407   */\n      dup7\n        /* \"#utility.yul\":4397:4414   */\n      add\n        /* \"#utility.yul\":4349:4428   */\n      tag_311\n      jump\t// in\n    tag_417:\n        /* \"#utility.yul\":4340:4428   */\n      swap2\n      pop\n        /* \"#utility.yul\":4156:4434   */\n      pop\n        /* \"#utility.yul\":4094:4434   */\n      swap3\n      swap2\n      pop\n      pop\n      jump\t// out\n        /* \"#utility.yul\":4440:5925   */\n    tag_36:\n        /* \"#utility.yul\":4566:4572   */\n      0x00\n        /* \"#utility.yul\":4574:4580   */\n      dup1\n        /* \"#utility.yul\":4582:4588   */\n      0x00\n        /* \"#utility.yul\":4590:4596   */\n      dup1\n        /* \"#utility.yul\":4639:4642   */\n      0x80\n        /* \"#utility.yul\":4627:4636   */\n      dup6\n        /* \"#utility.yul\":4618:4625   */\n      dup8\n        /* \"#utility.yul\":4614:4637   */\n      sub\n        /* \"#utility.yul\":4610:4643   */\n      slt\n        /* \"#utility.yul\":4607:4727   */\n      iszero\n      tag_419\n      jumpi\n        /* \"#utility.yul\":4646:4725   */\n      tag_420\n      tag_293\n      jump\t// in\n    tag_420:\n        /* \"#utility.yul\":4607:4727   */\n    tag_419:\n        /* \"#utility.yul\":4794:4795   */\n      0x00\n        /* \"#utility.yul\":4783:4792   */\n      dup6\n        /* \"#utility.yul\":4779:4796   */\n      add\n        /* \"#utility.yul\":4766:4797   */\n      calldataload\n        /* \"#utility.yul\":4824:4842   */\n      0xffffffffffffffff\n        /* \"#utility.yul\":4816:4822   */\n      dup2\n        /* \"#utility.yul\":4813:4843   */\n      gt\n        /* \"#utility.yul\":4810:4927   */\n      iszero\n      tag_421\n      jumpi\n        /* \"#utility.yul\":4846:4925   */\n      tag_422\n      tag_294\n      jump\t// in\n    tag_422:\n        /* \"#utility.yul\":4810:4927   */\n    tag_421:\n        /* \"#utility.yul\":4951:5014   */\n      tag_423\n        /* \"#utility.yul\":5006:5013   */\n      dup8\n        /* \"#utility.yul\":4997:5003   */\n      dup3\n        /* \"#utility.yul\":4986:4995   */\n      dup9\n        /* \"#utility.yul\":4982:5004   */\n      add\n        /* \"#utility.yul\":4951:5014   */\n      tag_312\n      jump\t// in\n    tag_423:\n        /* \"#utility.yul\":4941:5014   */\n      swap5\n      pop\n        /* \"#utility.yul\":4737:5024   */\n      pop\n        /* \"#utility.yul\":5091:5093   */\n      0x20\n        /* \"#utility.yul\":5080:5089   */\n      dup6\n        /* \"#utility.yul\":5076:5094   */\n      add\n        /* \"#utility.yul\":5063:5095   */\n      calldataload\n        /* \"#utility.yul\":5122:5140   */\n      0xffffffffffffffff\n        /* \"#utility.yul\":5114:5120   */\n      dup2\n        /* \"#utility.yul\":5111:5141   */\n      gt\n        /* \"#utility.yul\":5108:5225   */\n      iszero\n      tag_424\n      jumpi\n        /* \"#utility.yul\":5144:5223   */\n      tag_425\n      tag_294\n      jump\t// in\n    tag_425:\n        /* \"#utility.yul\":5108:5225   */\n    tag_424:\n        /* \"#utility.yul\":5249:5312   */\n      tag_426\n        /* \"#utility.yul\":5304:5311   */\n      dup8\n        /* \"#utility.yul\":5295:5301   */\n      dup3\n        /* \"#utility.yul\":5284:5293   */\n      dup9\n        /* \"#utility.yul\":5280:5302   */\n      add\n        /* \"#utility.yul\":5249:5312   */\n      tag_312\n      jump\t// in\n    tag_426:\n        /* \"#utility.yul\":5239:5312   */\n      swap4\n      pop\n        /* \"#utility.yul\":5034:5322   */\n      pop\n        /* \"#utility.yul\":5389:5391   */\n      0x40\n        /* \"#utility.yul\":5378:5387   */\n      dup6\n        /* \"#utility.yul\":5374:5392   */\n      add\n        /* \"#utility.yul\":5361:5393   */\n      calldataload\n        /* \"#utility.yul\":5420:5438   */\n      0xffffffffffffffff\n        /* \"#utility.yul\":5412:5418   */\n      dup2\n        /* \"#utility.yul\":5409:5439   */\n      gt\n        /* \"#utility.yul\":5406:5523   */\n      iszero\n      tag_427\n      jumpi\n        /* \"#utility.yul\":5442:5521   */\n      tag_428\n      tag_294\n      jump\t// in\n    tag_428:\n        /* \"#utility.yul\":5406:5523   */\n    tag_427:\n        /* \"#utility.yul\":5547:5610   */\n      tag_429\n        /* \"#utility.yul\":5602:5609   */\n      dup8\n        /* \"#utility.yul\":5593:5599   */\n      dup3\n        /* \"#utility.yul\":5582:5591   */\n      dup9\n        /* \"#utility.yul\":5578:5600   */\n      add\n        /* \"#utility.yul\":5547:5610   */\n      tag_312\n      jump\t// in\n    tag_429:\n        /* \"#utility.yul\":5537:5610   */\n      swap3\n      pop\n        /* \"#utility.yul\":5332:5620   */\n      pop\n        /* \"#utility.yul\":5687:5689   */\n      0x60\n        /* \"#utility.yul\":5676:5685   */\n      dup6\n        /* \"#utility.yul\":5672:5690   */\n      add\n        /* \"#utility.yul\":5659:5691   */\n      calldataload\n        /* \"#utility.yul\":5718:5736   */\n      0xffffffffffffffff\n        /* \"#utility.yul\":5710:5716   */\n      dup2\n        /* \"#utility.yul\":5707:5737   */\n      gt\n        /* \"#utility.yul\":5704:5821   */\n      iszero\n      tag_430\n      jumpi\n        /* \"#utility.yul\":5740:5819   */\n      tag_431\n      tag_294\n      jump\t// in\n    tag_431:\n        /* \"#utility.yul\":5704:5821   */\n    tag_430:\n        /* \"#utility.yul\":5845:5908   */\n      tag_432\n        /* \"#utility.yul\":5900:5907   */\n      dup8\n        /* \"#utility.yul\":5891:5897   */\n      dup3\n        /* \"#utility.yul\":5880:5889   */\n      dup9\n        /* \"#utility.yul\":5876:5898   */\n      add\n        /* \"#utility.yul\":5845:5908   */\n      tag_312\n      jump\t// in\n    tag_432:\n        /* \"#utility.yul\":5835:5908   */\n      swap2\n      pop\n        /* \"#utility.yul\":5630:5918   */\n      pop\n        /* \"#utility.yul\":4440:5925   */\n      swap3\n      swap6\n      swap2\n      swap5\n      pop\n      swap3\n      pop\n      jump\t// out\n        /* \"#utility.yul\":5931:6049   */\n    tag_313:\n        /* \"#utility.yul\":6018:6042   */\n      tag_434\n        /* \"#utility.yul\":6036:6041   */\n      dup2\n        /* \"#utility.yul\":6018:6042   */\n      tag_295\n      jump\t// in\n    tag_434:\n        /* \"#utility.yul\":6013:6016   */\n      dup3\n        /* \"#utility.yul\":6006:6043   */\n      mstore\n        /* \"#utility.yul\":5931:6049   */\n      pop\n      pop\n      jump\t// out\n        /* \"#utility.yul\":6055:6277   */\n    tag_39:\n        /* \"#utility.yul\":6148:6152   */\n      0x00\n        /* \"#utility.yul\":6186:6188   */\n      0x20\n        /* \"#utility.yul\":6175:6184   */\n      dup3\n        /* \"#utility.yul\":6171:6189   */\n      add\n        /* \"#utility.yul\":6163:6189   */\n      swap1\n      pop\n        /* \"#utility.yul\":6199:6270   */\n      tag_436\n        /* \"#utility.yul\":6267:6268   */\n      0x00\n        /* \"#utility.yul\":6256:6265   */\n      dup4\n        /* \"#utility.yul\":6252:6269   */\n      add\n        /* \"#utility.yul\":6243:6249   */\n      dup5\n        /* \"#utility.yul\":6199:6270   */\n      tag_313\n      jump\t// in\n    tag_436:\n        /* \"#utility.yul\":6055:6277   */\n      swap3\n      swap2\n      pop\n      pop\n      jump\t// out\n        /* \"#utility.yul\":6283:6382   */\n    tag_314:\n        /* \"#utility.yul\":6335:6341   */\n      0x00\n        /* \"#utility.yul\":6369:6374   */\n      dup2\n        /* \"#utility.yul\":6363:6375   */\n      mload\n        /* \"#utility.yul\":6353:6375   */\n      swap1\n      pop\n        /* \"#utility.yul\":6283:6382   */\n      swap2\n      swap1\n      pop\n      jump\t// out\n        /* \"#utility.yul\":6388:6547   */\n    tag_315:\n        /* \"#utility.yul\":6462:6473   */\n      0x00\n        /* \"#utility.yul\":6496:6502   */\n      dup3\n        /* \"#utility.yul\":6491:6494   */\n      dup3\n        /* \"#utility.yul\":6484:6503   */\n      mstore\n        /* \"#utility.yul\":6536:6540   */\n      0x20\n        /* \"#utility.yul\":6531:6534   */\n      dup3\n        /* \"#utility.yul\":6527:6541   */\n      add\n        /* \"#utility.yul\":6512:6541   */\n      swap1\n      pop\n        /* \"#utility.yul\":6388:6547   */\n      swap3\n      swap2\n      pop\n      pop\n      jump\t// out\n        /* \"#utility.yul\":6553:6692   */\n    tag_316:\n        /* \"#utility.yul\":6642:6648   */\n      dup3\n        /* \"#utility.yul\":6637:6640   */\n      dup2\n        /* \"#utility.yul\":6632:6635   */\n      dup4\n        /* \"#utility.yul\":6626:6649   */\n      mcopy\n        /* \"#utility.yul\":6683:6684   */\n      0x00\n        /* \"#utility.yul\":6674:6680   */\n      dup4\n        /* \"#utility.yul\":6669:6672   */\n      dup4\n        /* \"#utility.yul\":6665:6681   */\n      add\n        /* \"#utility.yul\":6658:6685   */\n      mstore\n        /* \"#utility.yul\":6553:6692   */\n      pop\n      pop\n      pop\n      jump\t// out\n        /* \"#utility.yul\":6698:7055   */\n    tag_317:\n        /* \"#utility.yul\":6776:6779   */\n      0x00\n        /* \"#utility.yul\":6804:6843   */\n      tag_441\n        /* \"#utility.yul\":6837:6842   */\n      dup3\n        /* \"#utility.yul\":6804:6843   */\n      tag_314\n      jump\t// in\n    tag_441:\n        /* \"#utility.yul\":6859:6920   */\n      tag_442\n        /* \"#utility.yul\":6913:6919   */\n      dup2\n        /* \"#utility.yul\":6908:6911   */\n      dup6\n        /* \"#utility.yul\":6859:6920   */\n      tag_315\n      jump\t// in\n    tag_442:\n        /* \"#utility.yul\":6852:6920   */\n      swap4\n      pop\n        /* \"#utility.yul\":6929:6994   */\n      tag_443\n        /* \"#utility.yul\":6987:6993   */\n      dup2\n        /* \"#utility.yul\":6982:6985   */\n      dup6\n        /* \"#utility.yul\":6975:6979   */\n      0x20\n        /* \"#utility.yul\":6968:6973   */\n      dup7\n        /* \"#utility.yul\":6964:6980   */\n      add\n        /* \"#utility.yul\":6929:6994   */\n      tag_316\n      jump\t// in\n    tag_443:\n        /* \"#utility.yul\":7019:7048   */\n      tag_444\n        /* \"#utility.yul\":7041:7047   */\n      dup2\n        /* \"#utility.yul\":7019:7048   */\n      tag_305\n      jump\t// in\n    tag_444:\n        /* \"#utility.yul\":7014:7017   */\n      dup5\n        /* \"#utility.yul\":7010:7049   */\n      add\n        /* \"#utility.yul\":7003:7049   */\n      swap2\n      pop\n        /* \"#utility.yul\":6780:7055   */\n      pop\n        /* \"#utility.yul\":6698:7055   */\n      swap3\n      swap2\n      pop\n      pop\n      jump\t// out\n        /* \"#utility.yul\":7061:7169   */\n    tag_318:\n        /* \"#utility.yul\":7138:7162   */\n      tag_446\n        /* \"#utility.yul\":7156:7161   */\n      dup2\n        /* \"#utility.yul\":7138:7162   */\n      tag_295\n      jump\t// in\n    tag_446:\n        /* \"#utility.yul\":7133:7136   */\n      dup3\n        /* \"#utility.yul\":7126:7163   */\n      mstore\n        /* \"#utility.yul\":7061:7169   */\n      pop\n      pop\n      jump\t// out\n        /* \"#utility.yul\":7255:8618   */\n    tag_319:\n        /* \"#utility.yul\":7374:7377   */\n      0x00\n        /* \"#utility.yul\":7410:7414   */\n      0xa0\n        /* \"#utility.yul\":7405:7408   */\n      dup4\n        /* \"#utility.yul\":7401:7415   */\n      add\n        /* \"#utility.yul\":7499:7503   */\n      0x00\n        /* \"#utility.yul\":7492:7497   */\n      dup4\n        /* \"#utility.yul\":7488:7504   */\n      add\n        /* \"#utility.yul\":7482:7505   */\n      mload\n        /* \"#utility.yul\":7552:7555   */\n      dup5\n        /* \"#utility.yul\":7546:7550   */\n      dup3\n        /* \"#utility.yul\":7542:7556   */\n      sub\n        /* \"#utility.yul\":7535:7539   */\n      0x00\n        /* \"#utility.yul\":7530:7533   */\n      dup7\n        /* \"#utility.yul\":7526:7540   */\n      add\n        /* \"#utility.yul\":7519:7557   */\n      mstore\n        /* \"#utility.yul\":7578:7651   */\n      tag_448\n        /* \"#utility.yul\":7646:7650   */\n      dup3\n        /* \"#utility.yul\":7632:7644   */\n      dup3\n        /* \"#utility.yul\":7578:7651   */\n      tag_317\n      jump\t// in\n    tag_448:\n        /* \"#utility.yul\":7570:7651   */\n      swap2\n      pop\n        /* \"#utility.yul\":7425:7662   */\n      pop\n        /* \"#utility.yul\":7750:7754   */\n      0x20\n        /* \"#utility.yul\":7743:7748   */\n      dup4\n        /* \"#utility.yul\":7739:7755   */\n      add\n        /* \"#utility.yul\":7733:7756   */\n      mload\n        /* \"#utility.yul\":7803:7806   */\n      dup5\n        /* \"#utility.yul\":7797:7801   */\n      dup3\n        /* \"#utility.yul\":7793:7807   */\n      sub\n        /* \"#utility.yul\":7786:7790   */\n      0x20\n        /* \"#utility.yul\":7781:7784   */\n      dup7\n        /* \"#utility.yul\":7777:7791   */\n      add\n        /* \"#utility.yul\":7770:7808   */\n      mstore\n        /* \"#utility.yul\":7829:7902   */\n      tag_449\n        /* \"#utility.yul\":7897:7901   */\n      dup3\n        /* \"#utility.yul\":7883:7895   */\n      dup3\n        /* \"#utility.yul\":7829:7902   */\n      tag_317\n      jump\t// in\n    tag_449:\n        /* \"#utility.yul\":7821:7902   */\n      swap2\n      pop\n        /* \"#utility.yul\":7672:7913   */\n      pop\n        /* \"#utility.yul\":7999:8003   */\n      0x40\n        /* \"#utility.yul\":7992:7997   */\n      dup4\n        /* \"#utility.yul\":7988:8004   */\n      add\n        /* \"#utility.yul\":7982:8005   */\n      mload\n        /* \"#utility.yul\":8052:8055   */\n      dup5\n        /* \"#utility.yul\":8046:8050   */\n      dup3\n        /* \"#utility.yul\":8042:8056   */\n      sub\n        /* \"#utility.yul\":8035:8039   */\n      0x40\n        /* \"#utility.yul\":8030:8033   */\n      dup7\n        /* \"#utility.yul\":8026:8040   */\n      add\n        /* \"#utility.yul\":8019:8057   */\n      mstore\n        /* \"#utility.yul\":8078:8151   */\n      tag_450\n        /* \"#utility.yul\":8146:8150   */\n      dup3\n        /* \"#utility.yul\":8132:8144   */\n      dup3\n        /* \"#utility.yul\":8078:8151   */\n      tag_317\n      jump\t// in\n    tag_450:\n        /* \"#utility.yul\":8070:8151   */\n      swap2\n      pop\n        /* \"#utility.yul\":7923:8162   */\n      pop\n        /* \"#utility.yul\":8248:8252   */\n      0x60\n        /* \"#utility.yul\":8241:8246   */\n      dup4\n        /* \"#utility.yul\":8237:8253   */\n      add\n        /* \"#utility.yul\":8231:8254   */\n      mload\n        /* \"#utility.yul\":8301:8304   */\n      dup5\n        /* \"#utility.yul\":8295:8299   */\n      dup3\n        /* \"#utility.yul\":8291:8305   */\n      sub\n        /* \"#utility.yul\":8284:8288   */\n      0x60\n        /* \"#utility.yul\":8279:8282   */\n      dup7\n        /* \"#utility.yul\":8275:8289   */\n      add\n        /* \"#utility.yul\":8268:8306   */\n      mstore\n        /* \"#utility.yul\":8327:8400   */\n      tag_451\n        /* \"#utility.yul\":8395:8399   */\n      dup3\n        /* \"#utility.yul\":8381:8393   */\n      dup3\n        /* \"#utility.yul\":8327:8400   */\n      tag_317\n      jump\t// in\n    tag_451:\n        /* \"#utility.yul\":8319:8400   */\n      swap2\n      pop\n        /* \"#utility.yul\":8172:8411   */\n      pop\n        /* \"#utility.yul\":8499:8503   */\n      0x80\n        /* \"#utility.yul\":8492:8497   */\n      dup4\n        /* \"#utility.yul\":8488:8504   */\n      add\n        /* \"#utility.yul\":8482:8505   */\n      mload\n        /* \"#utility.yul\":8518:8581   */\n      tag_452\n        /* \"#utility.yul\":8575:8579   */\n      0x80\n        /* \"#utility.yul\":8570:8573   */\n      dup7\n        /* \"#utility.yul\":8566:8580   */\n      add\n        /* \"#utility.yul\":8552:8564   */\n      dup3\n        /* \"#utility.yul\":8518:8581   */\n      tag_318\n      jump\t// in\n    tag_452:\n        /* \"#utility.yul\":8421:8591   */\n      pop\n        /* \"#utility.yul\":8608:8612   */\n      dup1\n        /* \"#utility.yul\":8601:8612   */\n      swap2\n      pop\n        /* \"#utility.yul\":7379:8618   */\n      pop\n        /* \"#utility.yul\":7255:8618   */\n      swap3\n      swap2\n      pop\n      pop\n      jump\t// out\n        /* \"#utility.yul\":8700:10234   */\n    tag_320:\n        /* \"#utility.yul\":8815:8818   */\n      0x00\n        /* \"#utility.yul\":8851:8855   */\n      0xc0\n        /* \"#utility.yul\":8846:8849   */\n      dup4\n        /* \"#utility.yul\":8842:8856   */\n      add\n        /* \"#utility.yul\":8944:8948   */\n      0x00\n        /* \"#utility.yul\":8937:8942   */\n      dup4\n        /* \"#utility.yul\":8933:8949   */\n      add\n        /* \"#utility.yul\":8927:8950   */\n      mload\n        /* \"#utility.yul\":8997:9000   */\n      dup5\n        /* \"#utility.yul\":8991:8995   */\n      dup3\n        /* \"#utility.yul\":8987:9001   */\n      sub\n        /* \"#utility.yul\":8980:8984   */\n      0x00\n        /* \"#utility.yul\":8975:8978   */\n      dup7\n        /* \"#utility.yul\":8971:8985   */\n      add\n        /* \"#utility.yul\":8964:9002   */\n      mstore\n        /* \"#utility.yul\":9023:9096   */\n      tag_454\n        /* \"#utility.yul\":9091:9095   */\n      dup3\n        /* \"#utility.yul\":9077:9089   */\n      dup3\n        /* \"#utility.yul\":9023:9096   */\n      tag_317\n      jump\t// in\n    tag_454:\n        /* \"#utility.yul\":9015:9096   */\n      swap2\n      pop\n        /* \"#utility.yul\":8866:9107   */\n      pop\n        /* \"#utility.yul\":9187:9191   */\n      0x20\n        /* \"#utility.yul\":9180:9185   */\n      dup4\n        /* \"#utility.yul\":9176:9192   */\n      add\n        /* \"#utility.yul\":9170:9193   */\n      mload\n        /* \"#utility.yul\":9240:9243   */\n      dup5\n        /* \"#utility.yul\":9234:9238   */\n      dup3\n        /* \"#utility.yul\":9230:9244   */\n      sub\n        /* \"#utility.yul\":9223:9227   */\n      0x20\n        /* \"#utility.yul\":9218:9221   */\n      dup7\n        /* \"#utility.yul\":9214:9228   */\n      add\n        /* \"#utility.yul\":9207:9245   */\n      mstore\n        /* \"#utility.yul\":9266:9339   */\n      tag_455\n        /* \"#utility.yul\":9334:9338   */\n      dup3\n        /* \"#utility.yul\":9320:9332   */\n      dup3\n        /* \"#utility.yul\":9266:9339   */\n      tag_317\n      jump\t// in\n    tag_455:\n        /* \"#utility.yul\":9258:9339   */\n      swap2\n      pop\n        /* \"#utility.yul\":9117:9350   */\n      pop\n        /* \"#utility.yul\":9437:9441   */\n      0x40\n        /* \"#utility.yul\":9430:9435   */\n      dup4\n        /* \"#utility.yul\":9426:9442   */\n      add\n        /* \"#utility.yul\":9420:9443   */\n      mload\n        /* \"#utility.yul\":9490:9493   */\n      dup5\n        /* \"#utility.yul\":9484:9488   */\n      dup3\n        /* \"#utility.yul\":9480:9494   */\n      sub\n        /* \"#utility.yul\":9473:9477   */\n      0x40\n        /* \"#utility.yul\":9468:9471   */\n      dup7\n        /* \"#utility.yul\":9464:9478   */\n      add\n        /* \"#utility.yul\":9457:9495   */\n      mstore\n        /* \"#utility.yul\":9516:9589   */\n      tag_456\n        /* \"#utility.yul\":9584:9588   */\n      dup3\n        /* \"#utility.yul\":9570:9582   */\n      dup3\n        /* \"#utility.yul\":9516:9589   */\n      tag_317\n      jump\t// in\n    tag_456:\n        /* \"#utility.yul\":9508:9589   */\n      swap2\n      pop\n        /* \"#utility.yul\":9360:9600   */\n      pop\n        /* \"#utility.yul\":9685:9689   */\n      0x60\n        /* \"#utility.yul\":9678:9683   */\n      dup4\n        /* \"#utility.yul\":9674:9690   */\n      add\n        /* \"#utility.yul\":9668:9691   */\n      mload\n        /* \"#utility.yul\":9738:9741   */\n      dup5\n        /* \"#utility.yul\":9732:9736   */\n      dup3\n        /* \"#utility.yul\":9728:9742   */\n      sub\n        /* \"#utility.yul\":9721:9725   */\n      0x60\n        /* \"#utility.yul\":9716:9719   */\n      dup7\n        /* \"#utility.yul\":9712:9726   */\n      add\n        /* \"#utility.yul\":9705:9743   */\n      mstore\n        /* \"#utility.yul\":9764:9837   */\n      tag_457\n        /* \"#utility.yul\":9832:9836   */\n      dup3\n        /* \"#utility.yul\":9818:9830   */\n      dup3\n        /* \"#utility.yul\":9764:9837   */\n      tag_317\n      jump\t// in\n    tag_457:\n        /* \"#utility.yul\":9756:9837   */\n      swap2\n      pop\n        /* \"#utility.yul\":9610:9848   */\n      pop\n        /* \"#utility.yul\":9936:9940   */\n      0x80\n        /* \"#utility.yul\":9929:9934   */\n      dup4\n        /* \"#utility.yul\":9925:9941   */\n      add\n        /* \"#utility.yul\":9919:9942   */\n      mload\n        /* \"#utility.yul\":9955:10018   */\n      tag_458\n        /* \"#utility.yul\":10012:10016   */\n      0x80\n        /* \"#utility.yul\":10007:10010   */\n      dup7\n        /* \"#utility.yul\":10003:10017   */\n      add\n        /* \"#utility.yul\":9989:10001   */\n      dup3\n        /* \"#utility.yul\":9955:10018   */\n      tag_318\n      jump\t// in\n    tag_458:\n        /* \"#utility.yul\":9858:10028   */\n      pop\n        /* \"#utility.yul\":10115:10119   */\n      0xa0\n        /* \"#utility.yul\":10108:10113   */\n      dup4\n        /* \"#utility.yul\":10104:10120   */\n      add\n        /* \"#utility.yul\":10098:10121   */\n      mload\n        /* \"#utility.yul\":10134:10197   */\n      tag_459\n        /* \"#utility.yul\":10191:10195   */\n      0xa0\n        /* \"#utility.yul\":10186:10189   */\n      dup7\n        /* \"#utility.yul\":10182:10196   */\n      add\n        /* \"#utility.yul\":10168:10180   */\n      dup3\n        /* \"#utility.yul\":10134:10197   */\n      tag_318\n      jump\t// in\n    tag_459:\n        /* \"#utility.yul\":10038:10207   */\n      pop\n        /* \"#utility.yul\":10224:10228   */\n      dup1\n        /* \"#utility.yul\":10217:10228   */\n      swap2\n      pop\n        /* \"#utility.yul\":8820:10234   */\n      pop\n        /* \"#utility.yul\":8700:10234   */\n      swap3\n      swap2\n      pop\n      pop\n      jump\t// out\n        /* \"#utility.yul\":10240:10866   */\n    tag_44:\n        /* \"#utility.yul\":10457:10461   */\n      0x00\n        /* \"#utility.yul\":10495:10497   */\n      0x40\n        /* \"#utility.yul\":10484:10493   */\n      dup3\n        /* \"#utility.yul\":10480:10498   */\n      add\n        /* \"#utility.yul\":10472:10498   */\n      swap1\n      pop\n        /* \"#utility.yul\":10544:10553   */\n      dup2\n        /* \"#utility.yul\":10538:10542   */\n      dup2\n        /* \"#utility.yul\":10534:10554   */\n      sub\n        /* \"#utility.yul\":10530:10531   */\n      0x00\n        /* \"#utility.yul\":10519:10528   */\n      dup4\n        /* \"#utility.yul\":10515:10532   */\n      add\n        /* \"#utility.yul\":10508:10555   */\n      mstore\n        /* \"#utility.yul\":10572:10680   */\n      tag_461\n        /* \"#utility.yul\":10675:10679   */\n      dup2\n        /* \"#utility.yul\":10666:10672   */\n      dup6\n        /* \"#utility.yul\":10572:10680   */\n      tag_319\n      jump\t// in\n    tag_461:\n        /* \"#utility.yul\":10564:10680   */\n      swap1\n      pop\n        /* \"#utility.yul\":10727:10736   */\n      dup2\n        /* \"#utility.yul\":10721:10725   */\n      dup2\n        /* \"#utility.yul\":10717:10737   */\n      sub\n        /* \"#utility.yul\":10712:10714   */\n      0x20\n        /* \"#utility.yul\":10701:10710   */\n      dup4\n        /* \"#utility.yul\":10697:10715   */\n      add\n        /* \"#utility.yul\":10690:10738   */\n      mstore\n        /* \"#utility.yul\":10755:10859   */\n      tag_462\n        /* \"#utility.yul\":10854:10858   */\n      dup2\n        /* \"#utility.yul\":10845:10851   */\n      dup5\n        /* \"#utility.yul\":10755:10859   */\n      tag_320\n      jump\t// in\n    tag_462:\n        /* \"#utility.yul\":10747:10859   */\n      swap1\n      pop\n        /* \"#utility.yul\":10240:10866   */\n      swap4\n      swap3\n      pop\n      pop\n      pop\n      jump\t// out\n        /* \"#utility.yul\":10872:12503   */\n    tag_47:\n        /* \"#utility.yul\":11007:11013   */\n      0x00\n        /* \"#utility.yul\":11015:11021   */\n      dup1\n        /* \"#utility.yul\":11023:11029   */\n      0x00\n        /* \"#utility.yul\":11031:11037   */\n      dup1\n        /* \"#utility.yul\":11039:11045   */\n      0x00\n        /* \"#utility.yul\":11088:11091   */\n      0xa0\n        /* \"#utility.yul\":11076:11085   */\n      dup7\n        /* \"#utility.yul\":11067:11074   */\n      dup9\n        /* \"#utility.yul\":11063:11086   */\n      sub\n        /* \"#utility.yul\":11059:11092   */\n      slt\n        /* \"#utility.yul\":11056:11176   */\n      iszero\n      tag_464\n      jumpi\n        /* \"#utility.yul\":11095:11174   */\n      tag_465\n      tag_293\n      jump\t// in\n    tag_465:\n        /* \"#utility.yul\":11056:11176   */\n    tag_464:\n        /* \"#utility.yul\":11215:11216   */\n      0x00\n        /* \"#utility.yul\":11240:11293   */\n      tag_466\n        /* \"#utility.yul\":11285:11292   */\n      dup9\n        /* \"#utility.yul\":11276:11282   */\n      dup3\n        /* \"#utility.yul\":11265:11274   */\n      dup10\n        /* \"#utility.yul\":11261:11283   */\n      add\n        /* \"#utility.yul\":11240:11293   */\n      tag_302\n      jump\t// in\n    tag_466:\n        /* \"#utility.yul\":11230:11293   */\n      swap6\n      pop\n        /* \"#utility.yul\":11186:11303   */\n      pop\n        /* \"#utility.yul\":11370:11372   */\n      0x20\n        /* \"#utility.yul\":11359:11368   */\n      dup7\n        /* \"#utility.yul\":11355:11373   */\n      add\n        /* \"#utility.yul\":11342:11374   */\n      calldataload\n        /* \"#utility.yul\":11401:11419   */\n      0xffffffffffffffff\n        /* \"#utility.yul\":11393:11399   */\n      dup2\n        /* \"#utility.yul\":11390:11420   */\n      gt\n        /* \"#utility.yul\":11387:11504   */\n      iszero\n      tag_467\n      jumpi\n        /* \"#utility.yul\":11423:11502   */\n      tag_468\n      tag_294\n      jump\t// in\n    tag_468:\n        /* \"#utility.yul\":11387:11504   */\n    tag_467:\n        /* \"#utility.yul\":11528:11591   */\n      tag_469\n        /* \"#utility.yul\":11583:11590   */\n      dup9\n        /* \"#utility.yul\":11574:11580   */\n      dup3\n        /* \"#utility.yul\":11563:11572   */\n      dup10\n        /* \"#utility.yul\":11559:11581   */\n      add\n        /* \"#utility.yul\":11528:11591   */\n      tag_312\n      jump\t// in\n    tag_469:\n        /* \"#utility.yul\":11518:11591   */\n      swap5\n      pop\n        /* \"#utility.yul\":11313:11601   */\n      pop\n        /* \"#utility.yul\":11668:11670   */\n      0x40\n        /* \"#utility.yul\":11657:11666   */\n      dup7\n        /* \"#utility.yul\":11653:11671   */\n      add\n        /* \"#utility.yul\":11640:11672   */\n      calldataload\n        /* \"#utility.yul\":11699:11717   */\n      0xffffffffffffffff\n        /* \"#utility.yul\":11691:11697   */\n      dup2\n        /* \"#utility.yul\":11688:11718   */\n      gt\n        /* \"#utility.yul\":11685:11802   */\n      iszero\n      tag_470\n      jumpi\n        /* \"#utility.yul\":11721:11800   */\n      tag_471\n      tag_294\n      jump\t// in\n    tag_471:\n        /* \"#utility.yul\":11685:11802   */\n    tag_470:\n        /* \"#utility.yul\":11826:11889   */\n      tag_472\n        /* \"#utility.yul\":11881:11888   */\n      dup9\n        /* \"#utility.yul\":11872:11878   */\n      dup3\n        /* \"#utility.yul\":11861:11870   */\n      dup10\n        /* \"#utility.yul\":11857:11879   */\n      add\n        /* \"#utility.yul\":11826:11889   */\n      tag_312\n      jump\t// in\n    tag_472:\n        /* \"#utility.yul\":11816:11889   */\n      swap4\n      pop\n        /* \"#utility.yul\":11611:11899   */\n      pop\n        /* \"#utility.yul\":11966:11968   */\n      0x60\n        /* \"#utility.yul\":11955:11964   */\n      dup7\n        /* \"#utility.yul\":11951:11969   */\n      add\n        /* \"#utility.yul\":11938:11970   */\n      calldataload\n        /* \"#utility.yul\":11997:12015   */\n      0xffffffffffffffff\n        /* \"#utility.yul\":11989:11995   */\n      dup2\n        /* \"#utility.yul\":11986:12016   */\n      gt\n        /* \"#utility.yul\":11983:12100   */\n      iszero\n      tag_473\n      jumpi\n        /* \"#utility.yul\":12019:12098   */\n      tag_474\n      tag_294\n      jump\t// in\n    tag_474:\n        /* \"#utility.yul\":11983:12100   */\n    tag_473:\n        /* \"#utility.yul\":12124:12187   */\n      tag_475\n        /* \"#utility.yul\":12179:12186   */\n      dup9\n        /* \"#utility.yul\":12170:12176   */\n      dup3\n        /* \"#utility.yul\":12159:12168   */\n      dup10\n        /* \"#utility.yul\":12155:12177   */\n      add\n        /* \"#utility.yul\":12124:12187   */\n      tag_312\n      jump\t// in\n    tag_475:\n        /* \"#utility.yul\":12114:12187   */\n      swap3\n      pop\n        /* \"#utility.yul\":11909:12197   */\n      pop\n        /* \"#utility.yul\":12264:12267   */\n      0x80\n        /* \"#utility.yul\":12253:12262   */\n      dup7\n        /* \"#utility.yul\":12249:12268   */\n      add\n        /* \"#utility.yul\":12236:12269   */\n      calldataload\n        /* \"#utility.yul\":12296:12314   */\n      0xffffffffffffffff\n        /* \"#utility.yul\":12288:12294   */\n      dup2\n        /* \"#utility.yul\":12285:12315   */\n      gt\n        /* \"#utility.yul\":12282:12399   */\n      iszero\n      tag_476\n      jumpi\n        /* \"#utility.yul\":12318:12397   */\n      tag_477\n      tag_294\n      jump\t// in\n    tag_477:\n        /* \"#utility.yul\":12282:12399   */\n    tag_476:\n        /* \"#utility.yul\":12423:12486   */\n      tag_478\n        /* \"#utility.yul\":12478:12485   */\n      dup9\n        /* \"#utility.yul\":12469:12475   */\n      dup3\n        /* \"#utility.yul\":12458:12467   */\n      dup10\n        /* \"#utility.yul\":12454:12476   */\n      add\n        /* \"#utility.yul\":12423:12486   */\n      tag_312\n      jump\t// in\n    tag_478:\n        /* \"#utility.yul\":12413:12486   */\n      swap2\n      pop\n        /* \"#utility.yul\":12207:12496   */\n      pop\n        /* \"#utility.yul\":10872:12503   */\n      swap3\n      swap6\n      pop\n      swap3\n      swap6\n      swap1\n      swap4\n      pop\n      jump\t// out\n        /* \"#utility.yul\":12509:12678   */\n    tag_321:\n        /* \"#utility.yul\":12593:12604   */\n      0x00\n        /* \"#utility.yul\":12627:12633   */\n      dup3\n        /* \"#utility.yul\":12622:12625   */\n      dup3\n        /* \"#utility.yul\":12615:12634   */\n      mstore\n        /* \"#utility.yul\":12667:12671   */\n      0x20\n        /* \"#utility.yul\":12662:12665   */\n      dup3\n        /* \"#utility.yul\":12658:12672   */\n      add\n        /* \"#utility.yul\":12643:12672   */\n      swap1\n      pop\n        /* \"#utility.yul\":12509:12678   */\n      swap3\n      swap2\n      pop\n      pop\n      jump\t// out\n        /* \"#utility.yul\":12684:13061   */\n    tag_322:\n        /* \"#utility.yul\":12772:12775   */\n      0x00\n        /* \"#utility.yul\":12800:12839   */\n      tag_481\n        /* \"#utility.yul\":12833:12838   */\n      dup3\n        /* \"#utility.yul\":12800:12839   */\n      tag_314\n      jump\t// in\n    tag_481:\n        /* \"#utility.yul\":12855:12926   */\n      tag_482\n        /* \"#utility.yul\":12919:12925   */\n      dup2\n        /* \"#utility.yul\":12914:12917   */\n      dup6\n        /* \"#utility.yul\":12855:12926   */\n      tag_321\n      jump\t// in\n    tag_482:\n        /* \"#utility.yul\":12848:12926   */\n      swap4\n      pop\n        /* \"#utility.yul\":12935:13000   */\n      tag_483\n        /* \"#utility.yul\":12993:12999   */\n      dup2\n        /* \"#utility.yul\":12988:12991   */\n      dup6\n        /* \"#utility.yul\":12981:12985   */\n      0x20\n        /* \"#utility.yul\":12974:12979   */\n      dup7\n        /* \"#utility.yul\":12970:12986   */\n      add\n        /* \"#utility.yul\":12935:13000   */\n      tag_316\n      jump\t// in\n    tag_483:\n        /* \"#utility.yul\":13025:13054   */\n      tag_484\n        /* \"#utility.yul\":13047:13053   */\n      dup2\n        /* \"#utility.yul\":13025:13054   */\n      tag_305\n      jump\t// in\n    tag_484:\n        /* \"#utility.yul\":13020:13023   */\n      dup5\n        /* \"#utility.yul\":13016:13055   */\n      add\n        /* \"#utility.yul\":13009:13055   */\n      swap2\n      pop\n        /* \"#utility.yul\":12776:13061   */\n      pop\n        /* \"#utility.yul\":12684:13061   */\n      swap3\n      swap2\n      pop\n      pop\n      jump\t// out\n        /* \"#utility.yul\":13067:14206   */\n    tag_53:\n        /* \"#utility.yul\":13380:13384   */\n      0x00\n        /* \"#utility.yul\":13418:13421   */\n      0xc0\n        /* \"#utility.yul\":13407:13416   */\n      dup3\n        /* \"#utility.yul\":13403:13422   */\n      add\n        /* \"#utility.yul\":13395:13422   */\n      swap1\n      pop\n        /* \"#utility.yul\":13468:13477   */\n      dup2\n        /* \"#utility.yul\":13462:13466   */\n      dup2\n        /* \"#utility.yul\":13458:13478   */\n      sub\n        /* \"#utility.yul\":13454:13455   */\n      0x00\n        /* \"#utility.yul\":13443:13452   */\n      dup4\n        /* \"#utility.yul\":13439:13456   */\n      add\n        /* \"#utility.yul\":13432:13479   */\n      mstore\n        /* \"#utility.yul\":13496:13574   */\n      tag_486\n        /* \"#utility.yul\":13569:13573   */\n      dup2\n        /* \"#utility.yul\":13560:13566   */\n      dup10\n        /* \"#utility.yul\":13496:13574   */\n      tag_322\n      jump\t// in\n    tag_486:\n        /* \"#utility.yul\":13488:13574   */\n      swap1\n      pop\n        /* \"#utility.yul\":13621:13630   */\n      dup2\n        /* \"#utility.yul\":13615:13619   */\n      dup2\n        /* \"#utility.yul\":13611:13631   */\n      sub\n        /* \"#utility.yul\":13606:13608   */\n      0x20\n        /* \"#utility.yul\":13595:13604   */\n      dup4\n        /* \"#utility.yul\":13591:13609   */\n      add\n        /* \"#utility.yul\":13584:13632   */\n      mstore\n        /* \"#utility.yul\":13649:13727   */\n      tag_487\n        /* \"#utility.yul\":13722:13726   */\n      dup2\n        /* \"#utility.yul\":13713:13719   */\n      dup9\n        /* \"#utility.yul\":13649:13727   */\n      tag_322\n      jump\t// in\n    tag_487:\n        /* \"#utility.yul\":13641:13727   */\n      swap1\n      pop\n        /* \"#utility.yul\":13774:13783   */\n      dup2\n        /* \"#utility.yul\":13768:13772   */\n      dup2\n        /* \"#utility.yul\":13764:13784   */\n      sub\n        /* \"#utility.yul\":13759:13761   */\n      0x40\n        /* \"#utility.yul\":13748:13757   */\n      dup4\n        /* \"#utility.yul\":13744:13762   */\n      add\n        /* \"#utility.yul\":13737:13785   */\n      mstore\n        /* \"#utility.yul\":13802:13880   */\n      tag_488\n        /* \"#utility.yul\":13875:13879   */\n      dup2\n        /* \"#utility.yul\":13866:13872   */\n      dup8\n        /* \"#utility.yul\":13802:13880   */\n      tag_322\n      jump\t// in\n    tag_488:\n        /* \"#utility.yul\":13794:13880   */\n      swap1\n      pop\n        /* \"#utility.yul\":13927:13936   */\n      dup2\n        /* \"#utility.yul\":13921:13925   */\n      dup2\n        /* \"#utility.yul\":13917:13937   */\n      sub\n        /* \"#utility.yul\":13912:13914   */\n      0x60\n        /* \"#utility.yul\":13901:13910   */\n      dup4\n        /* \"#utility.yul\":13897:13915   */\n      add\n        /* \"#utility.yul\":13890:13938   */\n      mstore\n        /* \"#utility.yul\":13955:14033   */\n      tag_489\n        /* \"#utility.yul\":14028:14032   */\n      dup2\n        /* \"#utility.yul\":14019:14025   */\n      dup7\n        /* \"#utility.yul\":13955:14033   */\n      tag_322\n      jump\t// in\n    tag_489:\n        /* \"#utility.yul\":13947:14033   */\n      swap1\n      pop\n        /* \"#utility.yul\":14043:14116   */\n      tag_490\n        /* \"#utility.yul\":14111:14114   */\n      0x80\n        /* \"#utility.yul\":14100:14109   */\n      dup4\n        /* \"#utility.yul\":14096:14115   */\n      add\n        /* \"#utility.yul\":14087:14093   */\n      dup6\n        /* \"#utility.yul\":14043:14116   */\n      tag_313\n      jump\t// in\n    tag_490:\n        /* \"#utility.yul\":14126:14199   */\n      tag_491\n        /* \"#utility.yul\":14194:14197   */\n      0xa0\n        /* \"#utility.yul\":14183:14192   */\n      dup4\n        /* \"#utility.yul\":14179:14198   */\n      add\n        /* \"#utility.yul\":14170:14176   */\n      dup5\n        /* \"#utility.yul\":14126:14199   */\n      tag_313\n      jump\t// in\n    tag_491:\n        /* \"#utility.yul\":13067:14206   */\n      swap8\n      swap7\n      pop\n      pop\n      pop\n      pop\n      pop\n      pop\n      pop\n      jump\t// out\n        /* \"#utility.yul\":14212:15240   */\n    tag_58:\n        /* \"#utility.yul\":14497:14501   */\n      0x00\n        /* \"#utility.yul\":14535:14538   */\n      0xa0\n        /* \"#utility.yul\":14524:14533   */\n      dup3\n        /* \"#utility.yul\":14520:14539   */\n      add\n        /* \"#utility.yul\":14512:14539   */\n      swap1\n      pop\n        /* \"#utility.yul\":14585:14594   */\n      dup2\n        /* \"#utility.yul\":14579:14583   */\n      dup2\n        /* \"#utility.yul\":14575:14595   */\n      sub\n        /* \"#utility.yul\":14571:14572   */\n      0x00\n        /* \"#utility.yul\":14560:14569   */\n      dup4\n        /* \"#utility.yul\":14556:14573   */\n      add\n        /* \"#utility.yul\":14549:14596   */\n      mstore\n        /* \"#utility.yul\":14613:14691   */\n      tag_493\n        /* \"#utility.yul\":14686:14690   */\n      dup2\n        /* \"#utility.yul\":14677:14683   */\n      dup9\n        /* \"#utility.yul\":14613:14691   */\n      tag_322\n      jump\t// in\n    tag_493:\n        /* \"#utility.yul\":14605:14691   */\n      swap1\n      pop\n        /* \"#utility.yul\":14738:14747   */\n      dup2\n        /* \"#utility.yul\":14732:14736   */\n      dup2\n        /* \"#utility.yul\":14728:14748   */\n      sub\n        /* \"#utility.yul\":14723:14725   */\n      0x20\n        /* \"#utility.yul\":14712:14721   */\n      dup4\n        /* \"#utility.yul\":14708:14726   */\n      add\n        /* \"#utility.yul\":14701:14749   */\n      mstore\n        /* \"#utility.yul\":14766:14844   */\n      tag_494\n        /* \"#utility.yul\":14839:14843   */\n      dup2\n        /* \"#utility.yul\":14830:14836   */\n      dup8\n        /* \"#utility.yul\":14766:14844   */\n      tag_322\n      jump\t// in\n    tag_494:\n        /* \"#utility.yul\":14758:14844   */\n      swap1\n      pop\n        /* \"#utility.yul\":14891:14900   */\n      dup2\n        /* \"#utility.yul\":14885:14889   */\n      dup2\n        /* \"#utility.yul\":14881:14901   */\n      sub\n        /* \"#utility.yul\":14876:14878   */\n      0x40\n        /* \"#utility.yul\":14865:14874   */\n      dup4\n        /* \"#utility.yul\":14861:14879   */\n      add\n        /* \"#utility.yul\":14854:14902   */\n      mstore\n        /* \"#utility.yul\":14919:14997   */\n      tag_495\n        /* \"#utility.yul\":14992:14996   */\n      dup2\n        /* \"#utility.yul\":14983:14989   */\n      dup7\n        /* \"#utility.yul\":14919:14997   */\n      tag_322\n      jump\t// in\n    tag_495:\n        /* \"#utility.yul\":14911:14997   */\n      swap1\n      pop\n        /* \"#utility.yul\":15044:15053   */\n      dup2\n        /* \"#utility.yul\":15038:15042   */\n      dup2\n        /* \"#utility.yul\":15034:15054   */\n      sub\n        /* \"#utility.yul\":15029:15031   */\n      0x60\n        /* \"#utility.yul\":15018:15027   */\n      dup4\n        /* \"#utility.yul\":15014:15032   */\n      add\n        /* \"#utility.yul\":15007:15055   */\n      mstore\n        /* \"#utility.yul\":15072:15150   */\n      tag_496\n        /* \"#utility.yul\":15145:15149   */\n      dup2\n        /* \"#utility.yul\":15136:15142   */\n      dup6\n        /* \"#utility.yul\":15072:15150   */\n      tag_322\n      jump\t// in\n    tag_496:\n        /* \"#utility.yul\":15064:15150   */\n      swap1\n      pop\n        /* \"#utility.yul\":15160:15233   */\n      tag_497\n        /* \"#utility.yul\":15228:15231   */\n      0x80\n        /* \"#utility.yul\":15217:15226   */\n      dup4\n        /* \"#utility.yul\":15213:15232   */\n      add\n        /* \"#utility.yul\":15204:15210   */\n      dup5\n        /* \"#utility.yul\":15160:15233   */\n      tag_313\n      jump\t// in\n    tag_497:\n        /* \"#utility.yul\":14212:15240   */\n      swap7\n      swap6\n      pop\n      pop\n      pop\n      pop\n      pop\n      pop\n      jump\t// out\n        /* \"#utility.yul\":15246:15410   */\n    tag_323:\n        /* \"#utility.yul\":15386:15402   */\n      0x4e6f7420617574686f72697a6564000000000000000000000000000000000000\n        /* \"#utility.yul\":15382:15383   */\n      0x00\n        /* \"#utility.yul\":15374:15380   */\n      dup3\n        /* \"#utility.yul\":15370:15384   */\n      add\n        /* \"#utility.yul\":15363:15403   */\n      mstore\n        /* \"#utility.yul\":15246:15410   */\n      pop\n      jump\t// out\n        /* \"#utility.yul\":15416:15782   */\n    tag_324:\n        /* \"#utility.yul\":15558:15561   */\n      0x00\n        /* \"#utility.yul\":15579:15646   */\n      tag_500\n        /* \"#utility.yul\":15643:15645   */\n      0x0e\n        /* \"#utility.yul\":15638:15641   */\n      dup4\n        /* \"#utility.yul\":15579:15646   */\n      tag_321\n      jump\t// in\n    tag_500:\n        /* \"#utility.yul\":15572:15646   */\n      swap2\n      pop\n        /* \"#utility.yul\":15655:15748   */\n      tag_501\n        /* \"#utility.yul\":15744:15747   */\n      dup3\n        /* \"#utility.yul\":15655:15748   */\n      tag_323\n      jump\t// in\n    tag_501:\n        /* \"#utility.yul\":15773:15775   */\n      0x20\n        /* \"#utility.yul\":15768:15771   */\n      dup3\n        /* \"#utility.yul\":15764:15776   */\n      add\n        /* \"#utility.yul\":15757:15776   */\n      swap1\n      pop\n        /* \"#utility.yul\":15416:15782   */\n      swap2\n      swap1\n      pop\n      jump\t// out\n        /* \"#utility.yul\":15788:16207   */\n    tag_68:\n        /* \"#utility.yul\":15954:15958   */\n      0x00\n        /* \"#utility.yul\":15992:15994   */\n      0x20\n        /* \"#utility.yul\":15981:15990   */\n      dup3\n        /* \"#utility.yul\":15977:15995   */\n      add\n        /* \"#utility.yul\":15969:15995   */\n      swap1\n      pop\n        /* \"#utility.yul\":16041:16050   */\n      dup2\n        /* \"#utility.yul\":16035:16039   */\n      dup2\n        /* \"#utility.yul\":16031:16051   */\n      sub\n        /* \"#utility.yul\":16027:16028   */\n      0x00\n        /* \"#utility.yul\":16016:16025   */\n      dup4\n        /* \"#utility.yul\":16012:16029   */\n      add\n        /* \"#utility.yul\":16005:16052   */\n      mstore\n        /* \"#utility.yul\":16069:16200   */\n      tag_503\n        /* \"#utility.yul\":16195:16199   */\n      dup2\n        /* \"#utility.yul\":16069:16200   */\n      tag_324\n      jump\t// in\n    tag_503:\n        /* \"#utility.yul\":16061:16200   */\n      swap1\n      pop\n        /* \"#utility.yul\":15788:16207   */\n      swap2\n      swap1\n      pop\n      jump\t// out\n        /* \"#utility.yul\":16213:16381   */\n    tag_325:\n        /* \"#utility.yul\":16353:16373   */\n      0x4d65726368616e74206e6f7420666f756e640000000000000000000000000000\n        /* \"#utility.yul\":16349:16350   */\n      0x00\n        /* \"#utility.yul\":16341:16347   */\n      dup3\n        /* \"#utility.yul\":16337:16351   */\n      add\n        /* \"#utility.yul\":16330:16374   */\n      mstore\n        /* \"#utility.yul\":16213:16381   */\n      pop\n      jump\t// out\n        /* \"#utility.yul\":16387:16753   */\n    tag_326:\n        /* \"#utility.yul\":16529:16532   */\n      0x00\n        /* \"#utility.yul\":16550:16617   */\n      tag_506\n        /* \"#utility.yul\":16614:16616   */\n      0x12\n        /* \"#utility.yul\":16609:16612   */\n      dup4\n        /* \"#utility.yul\":16550:16617   */\n      tag_321\n      jump\t// in\n    tag_506:\n        /* \"#utility.yul\":16543:16617   */\n      swap2\n      pop\n        /* \"#utility.yul\":16626:16719   */\n      tag_507\n        /* \"#utility.yul\":16715:16718   */\n      dup3\n        /* \"#utility.yul\":16626:16719   */\n      tag_325\n      jump\t// in\n    tag_507:\n        /* \"#utility.yul\":16744:16746   */\n      0x20\n        /* \"#utility.yul\":16739:16742   */\n      dup3\n        /* \"#utility.yul\":16735:16747   */\n      add\n        /* \"#utility.yul\":16728:16747   */\n      swap1\n      pop\n        /* \"#utility.yul\":16387:16753   */\n      swap2\n      swap1\n      pop\n      jump\t// out\n        /* \"#utility.yul\":16759:17178   */\n    tag_72:\n        /* \"#utility.yul\":16925:16929   */\n      0x00\n        /* \"#utility.yul\":16963:16965   */\n      0x20\n        /* \"#utility.yul\":16952:16961   */\n      dup3\n        /* \"#utility.yul\":16948:16966   */\n      add\n        /* \"#utility.yul\":16940:16966   */\n      swap1\n      pop\n        /* \"#utility.yul\":17012:17021   */\n      dup2\n        /* \"#utility.yul\":17006:17010   */\n      dup2\n        /* \"#utility.yul\":17002:17022   */\n      sub\n        /* \"#utility.yul\":16998:16999   */\n      0x00\n        /* \"#utility.yul\":16987:16996   */\n      dup4\n        /* \"#utility.yul\":16983:17000   */\n      add\n        /* \"#utility.yul\":16976:17023   */\n      mstore\n        /* \"#utility.yul\":17040:17171   */\n      tag_509\n        /* \"#utility.yul\":17166:17170   */\n      dup2\n        /* \"#utility.yul\":17040:17171   */\n      tag_326\n      jump\t// in\n    tag_509:\n        /* \"#utility.yul\":17032:17171   */\n      swap1\n      pop\n        /* \"#utility.yul\":16759:17178   */\n      swap2\n      swap1\n      pop\n      jump\t// out\n        /* \"#utility.yul\":17184:17356   */\n    tag_327:\n        /* \"#utility.yul\":17324:17348   */\n      0x41637469766520636f6465206e6f742065786973747300000000000000000000\n        /* \"#utility.yul\":17320:17321   */\n      0x00\n        /* \"#utility.yul\":17312:17318   */\n      dup3\n        /* \"#utility.yul\":17308:17322   */\n      add\n        /* \"#utility.yul\":17301:17349   */\n      mstore\n        /* \"#utility.yul\":17184:17356   */\n      pop\n      jump\t// out\n        /* \"#utility.yul\":17362:17728   */\n    tag_328:\n        /* \"#utility.yul\":17504:17507   */\n      0x00\n        /* \"#utility.yul\":17525:17592   */\n      tag_512\n        /* \"#utility.yul\":17589:17591   */\n      0x16\n        /* \"#utility.yul\":17584:17587   */\n      dup4\n        /* \"#utility.yul\":17525:17592   */\n      tag_321\n      jump\t// in\n    tag_512:\n        /* \"#utility.yul\":17518:17592   */\n      swap2\n      pop\n        /* \"#utility.yul\":17601:17694   */\n      tag_513\n        /* \"#utility.yul\":17690:17693   */\n      dup3\n        /* \"#utility.yul\":17601:17694   */\n      tag_327\n      jump\t// in\n    tag_513:\n        /* \"#utility.yul\":17719:17721   */\n      0x20\n        /* \"#utility.yul\":17714:17717   */\n      dup3\n        /* \"#utility.yul\":17710:17722   */\n      add\n        /* \"#utility.yul\":17703:17722   */\n      swap1\n      pop\n        /* \"#utility.yul\":17362:17728   */\n      swap2\n      swap1\n      pop\n      jump\t// out\n        /* \"#utility.yul\":17734:18153   */\n    tag_83:\n        /* \"#utility.yul\":17900:17904   */\n      0x00\n        /* \"#utility.yul\":17938:17940   */\n      0x20\n        /* \"#utility.yul\":17927:17936   */\n      dup3\n        /* \"#utility.yul\":17923:17941   */\n      add\n        /* \"#utility.yul\":17915:17941   */\n      swap1\n      pop\n        /* \"#utility.yul\":17987:17996   */\n      dup2\n        /* \"#utility.yul\":17981:17985   */\n      dup2\n        /* \"#utility.yul\":17977:17997   */\n      sub\n        /* \"#utility.yul\":17973:17974   */\n      0x00\n        /* \"#utility.yul\":17962:17971   */\n      dup4\n        /* \"#utility.yul\":17958:17975   */\n      add\n        /* \"#utility.yul\":17951:17998   */\n      mstore\n        /* \"#utility.yul\":18015:18146   */\n      tag_515\n        /* \"#utility.yul\":18141:18145   */\n      dup2\n        /* \"#utility.yul\":18015:18146   */\n      tag_328\n      jump\t// in\n    tag_515:\n        /* \"#utility.yul\":18007:18146   */\n      swap1\n      pop\n        /* \"#utility.yul\":17734:18153   */\n      swap2\n      swap1\n      pop\n      jump\t// out\n        /* \"#utility.yul\":18159:18330   */\n    tag_329:\n        /* \"#utility.yul\":18299:18322   */\n      0x41637469766520636f6465206e6f7420666f756e640000000000000000000000\n        /* \"#utility.yul\":18295:18296   */\n      0x00\n        /* \"#utility.yul\":18287:18293   */\n      dup3\n        /* \"#utility.yul\":18283:18297   */\n      add\n        /* \"#utility.yul\":18276:18323   */\n      mstore\n        /* \"#utility.yul\":18159:18330   */\n      pop\n      jump\t// out\n        /* \"#utility.yul\":18336:18702   */\n    tag_330:\n        /* \"#utility.yul\":18478:18481   */\n      0x00\n        /* \"#utility.yul\":18499:18566   */\n      tag_518\n        /* \"#utility.yul\":18563:18565   */\n      0x15\n        /* \"#utility.yul\":18558:18561   */\n      dup4\n        /* \"#utility.yul\":18499:18566   */\n      tag_321\n      jump\t// in\n    tag_518:\n        /* \"#utility.yul\":18492:18566   */\n      swap2\n      pop\n        /* \"#utility.yul\":18575:18668   */\n      tag_519\n        /* \"#utility.yul\":18664:18667   */\n      dup3\n        /* \"#utility.yul\":18575:18668   */\n      tag_329\n      jump\t// in\n    tag_519:\n        /* \"#utility.yul\":18693:18695   */\n      0x20\n        /* \"#utility.yul\":18688:18691   */\n      dup3\n        /* \"#utility.yul\":18684:18696   */\n      add\n        /* \"#utility.yul\":18677:18696   */\n      swap1\n      pop\n        /* \"#utility.yul\":18336:18702   */\n      swap2\n      swap1\n      pop\n      jump\t// out\n        /* \"#utility.yul\":18708:19127   */\n    tag_86:\n        /* \"#utility.yul\":18874:18878   */\n      0x00\n        /* \"#utility.yul\":18912:18914   */\n      0x20\n        /* \"#utility.yul\":18901:18910   */\n      dup3\n        /* \"#utility.yul\":18897:18915   */\n      add\n        /* \"#utility.yul\":18889:18915   */\n      swap1\n      pop\n        /* \"#utility.yul\":18961:18970   */\n      dup2\n        /* \"#utility.yul\":18955:18959   */\n      dup2\n        /* \"#utility.yul\":18951:18971   */\n      sub\n        /* \"#utility.yul\":18947:18948   */\n      0x00\n        /* \"#utility.yul\":18936:18945   */\n      dup4\n        /* \"#utility.yul\":18932:18949   */\n      add\n        /* \"#utility.yul\":18925:18972   */\n      mstore\n        /* \"#utility.yul\":18989:19120   */\n      tag_521\n        /* \"#utility.yul\":19115:19119   */\n      dup2\n        /* \"#utility.yul\":18989:19120   */\n      tag_330\n      jump\t// in\n    tag_521:\n        /* \"#utility.yul\":18981:19120   */\n      swap1\n      pop\n        /* \"#utility.yul\":18708:19127   */\n      swap2\n      swap1\n      pop\n      jump\t// out\n        /* \"#utility.yul\":19133:19313   */\n    tag_331:\n        /* \"#utility.yul\":19181:19258   */\n      0x4e487b7100000000000000000000000000000000000000000000000000000000\n        /* \"#utility.yul\":19178:19179   */\n      0x00\n        /* \"#utility.yul\":19171:19259   */\n      mstore\n        /* \"#utility.yul\":19278:19282   */\n      0x11\n        /* \"#utility.yul\":19275:19276   */\n      0x04\n        /* \"#utility.yul\":19268:19283   */\n      mstore\n        /* \"#utility.yul\":19302:19306   */\n      0x24\n        /* \"#utility.yul\":19299:19300   */\n      0x00\n        /* \"#utility.yul\":19292:19307   */\n      revert\n        /* \"#utility.yul\":19319:19513   */\n    tag_97:\n        /* \"#utility.yul\":19359:19363   */\n      0x00\n        /* \"#utility.yul\":19379:19399   */\n      tag_524\n        /* \"#utility.yul\":19397:19398   */\n      dup3\n        /* \"#utility.yul\":19379:19399   */\n      tag_295\n      jump\t// in\n    tag_524:\n        /* \"#utility.yul\":19374:19399   */\n      swap2\n      pop\n        /* \"#utility.yul\":19413:19433   */\n      tag_525\n        /* \"#utility.yul\":19431:19432   */\n      dup4\n        /* \"#utility.yul\":19413:19433   */\n      tag_295\n      jump\t// in\n    tag_525:\n        /* \"#utility.yul\":19408:19433   */\n      swap3\n      pop\n        /* \"#utility.yul\":19457:19458   */\n      dup3\n        /* \"#utility.yul\":19454:19455   */\n      dup3\n        /* \"#utility.yul\":19450:19459   */\n      sub\n        /* \"#utility.yul\":19442:19459   */\n      swap1\n      pop\n        /* \"#utility.yul\":19481:19482   */\n      dup2\n        /* \"#utility.yul\":19475:19479   */\n      dup2\n        /* \"#utility.yul\":19472:19483   */\n      gt\n        /* \"#utility.yul\":19469:19506   */\n      iszero\n      tag_526\n      jumpi\n        /* \"#utility.yul\":19486:19504   */\n      tag_527\n      tag_331\n      jump\t// in\n    tag_527:\n        /* \"#utility.yul\":19469:19506   */\n    tag_526:\n        /* \"#utility.yul\":19319:19513   */\n      swap3\n      swap2\n      pop\n      pop\n      jump\t// out\n        /* \"#utility.yul\":19519:19699   */\n    tag_332:\n        /* \"#utility.yul\":19567:19644   */\n      0x4e487b7100000000000000000000000000000000000000000000000000000000\n        /* \"#utility.yul\":19564:19565   */\n      0x00\n        /* \"#utility.yul\":19557:19645   */\n      mstore\n        /* \"#utility.yul\":19664:19668   */\n      0x22\n        /* \"#utility.yul\":19661:19662   */\n      0x04\n        /* \"#utility.yul\":19654:19669   */\n      mstore\n        /* \"#utility.yul\":19688:19692   */\n      0x24\n        /* \"#utility.yul\":19685:19686   */\n      0x00\n        /* \"#utility.yul\":19678:19693   */\n      revert\n        /* \"#utility.yul\":19705:20025   */\n    tag_123:\n        /* \"#utility.yul\":19749:19755   */\n      0x00\n        /* \"#utility.yul\":19786:19787   */\n      0x02\n        /* \"#utility.yul\":19780:19784   */\n      dup3\n        /* \"#utility.yul\":19776:19788   */\n      div\n        /* \"#utility.yul\":19766:19788   */\n      swap1\n      pop\n        /* \"#utility.yul\":19833:19834   */\n      0x01\n        /* \"#utility.yul\":19827:19831   */\n      dup3\n        /* \"#utility.yul\":19823:19835   */\n      and\n        /* \"#utility.yul\":19854:19872   */\n      dup1\n        /* \"#utility.yul\":19844:19925   */\n      tag_530\n      jumpi\n        /* \"#utility.yul\":19910:19914   */\n      0x7f\n        /* \"#utility.yul\":19902:19908   */\n      dup3\n        /* \"#utility.yul\":19898:19915   */\n      and\n        /* \"#utility.yul\":19888:19915   */\n      swap2\n      pop\n        /* \"#utility.yul\":19844:19925   */\n    tag_530:\n        /* \"#utility.yul\":19972:19974   */\n      0x20\n        /* \"#utility.yul\":19964:19970   */\n      dup3\n        /* \"#utility.yul\":19961:19975   */\n      lt\n        /* \"#utility.yul\":19941:19959   */\n      dup2\n        /* \"#utility.yul\":19938:19976   */\n      sub\n        /* \"#utility.yul\":19935:20019   */\n      tag_531\n      jumpi\n        /* \"#utility.yul\":19991:20009   */\n      tag_532\n      tag_332\n      jump\t// in\n    tag_532:\n        /* \"#utility.yul\":19935:20019   */\n    tag_531:\n        /* \"#utility.yul\":19756:20025   */\n      pop\n        /* \"#utility.yul\":19705:20025   */\n      swap2\n      swap1\n      pop\n      jump\t// out\n        /* \"#utility.yul\":20031:20172   */\n    tag_333:\n        /* \"#utility.yul\":20080:20084   */\n      0x00\n        /* \"#utility.yul\":20103:20106   */\n      dup2\n        /* \"#utility.yul\":20095:20106   */\n      swap1\n      pop\n        /* \"#utility.yul\":20126:20129   */\n      dup2\n        /* \"#utility.yul\":20123:20124   */\n      0x00\n        /* \"#utility.yul\":20116:20130   */\n      mstore\n        /* \"#utility.yul\":20160:20164   */\n      0x20\n        /* \"#utility.yul\":20157:20158   */\n      0x00\n        /* \"#utility.yul\":20147:20165   */\n      keccak256\n        /* \"#utility.yul\":20139:20165   */\n      swap1\n      pop\n        /* \"#utility.yul\":20031:20172   */\n      swap2\n      swap1\n      pop\n      jump\t// out\n        /* \"#utility.yul\":20178:20271   */\n    tag_334:\n        /* \"#utility.yul\":20215:20221   */\n      0x00\n        /* \"#utility.yul\":20262:20264   */\n      0x20\n        /* \"#utility.yul\":20257:20259   */\n      0x1f\n        /* \"#utility.yul\":20250:20255   */\n      dup4\n        /* \"#utility.yul\":20246:20260   */\n      add\n        /* \"#utility.yul\":20242:20265   */\n      div\n        /* \"#utility.yul\":20232:20265   */\n      swap1\n      pop\n        /* \"#utility.yul\":20178:20271   */\n      swap2\n      swap1\n      pop\n      jump\t// out\n        /* \"#utility.yul\":20277:20384   */\n    tag_335:\n        /* \"#utility.yul\":20321:20329   */\n      0x00\n        /* \"#utility.yul\":20371:20376   */\n      dup3\n        /* \"#utility.yul\":20365:20369   */\n      dup3\n        /* \"#utility.yul\":20361:20377   */\n      shl\n        /* \"#utility.yul\":20340:20377   */\n      swap1\n      pop\n        /* \"#utility.yul\":20277:20384   */\n      swap3\n      swap2\n      pop\n      pop\n      jump\t// out\n        /* \"#utility.yul\":20390:20783   */\n    tag_336:\n        /* \"#utility.yul\":20459:20465   */\n      0x00\n        /* \"#utility.yul\":20509:20510   */\n      0x08\n        /* \"#utility.yul\":20497:20507   */\n      dup4\n        /* \"#utility.yul\":20493:20511   */\n      mul\n        /* \"#utility.yul\":20532:20629   */\n      tag_537\n        /* \"#utility.yul\":20562:20628   */\n      0xffffffffffffffffffffffffffffffffffffffffffffffffffffffffffffffff\n        /* \"#utility.yul\":20551:20560   */\n      dup3\n        /* \"#utility.yul\":20532:20629   */\n      tag_335\n      jump\t// in\n    tag_537:\n        /* \"#utility.yul\":20650:20689   */\n      tag_538\n        /* \"#utility.yul\":20680:20688   */\n      dup7\n        /* \"#utility.yul\":20669:20678   */\n      dup4\n        /* \"#utility.yul\":20650:20689   */\n      tag_335\n      jump\t// in\n    tag_538:\n        /* \"#utility.yul\":20638:20689   */\n      swap6\n      pop\n        /* \"#utility.yul\":20722:20726   */\n      dup1\n        /* \"#utility.yul\":20718:20727   */\n      not\n        /* \"#utility.yul\":20711:20716   */\n      dup5\n        /* \"#utility.yul\":20707:20728   */\n      and\n        /* \"#utility.yul\":20698:20728   */\n      swap4\n      pop\n        /* \"#utility.yul\":20771:20775   */\n      dup1\n        /* \"#utility.yul\":20761:20769   */\n      dup7\n        /* \"#utility.yul\":20757:20776   */\n      and\n        /* \"#utility.yul\":20750:20755   */\n      dup5\n        /* \"#utility.yul\":20747:20777   */\n      or\n        /* \"#utility.yul\":20737:20777   */\n      swap3\n      pop\n        /* \"#utility.yul\":20466:20783   */\n      pop\n      pop\n        /* \"#utility.yul\":20390:20783   */\n      swap4\n      swap3\n      pop\n      pop\n      pop\n      jump\t// out\n        /* \"#utility.yul\":20789:20849   */\n    tag_337:\n        /* \"#utility.yul\":20817:20820   */\n      0x00\n        /* \"#utility.yul\":20838:20843   */\n      dup2\n        /* \"#utility.yul\":20831:20843   */\n      swap1\n      pop\n        /* \"#utility.yul\":20789:20849   */\n      swap2\n      swap1\n      pop\n      jump\t// out\n        /* \"#utility.yul\":20855:20997   */\n    tag_338:\n        /* \"#utility.yul\":20905:20914   */\n      0x00\n        /* \"#utility.yul\":20938:20991   */\n      tag_541\n        /* \"#utility.yul\":20956:20990   */\n      tag_542\n        /* \"#utility.yul\":20965:20989   */\n      tag_543\n        /* \"#utility.yul\":20983:20988   */\n      dup5\n        /* \"#utility.yul\":20965:20989   */\n      tag_295\n      jump\t// in\n    tag_543:\n        /* \"#utility.yul\":20956:20990   */\n      tag_337\n      jump\t// in\n    tag_542:\n        /* \"#utility.yul\":20938:20991   */\n      tag_295\n      jump\t// in\n    tag_541:\n        /* \"#utility.yul\":20925:20991   */\n      swap1\n      pop\n        /* \"#utility.yul\":20855:20997   */\n      swap2\n      swap1\n      pop\n      jump\t// out\n        /* \"#utility.yul\":21003:21078   */\n    tag_339:\n        /* \"#utility.yul\":21046:21049   */\n      0x00\n        /* \"#utility.yul\":21067:21072   */\n      dup2\n        /* \"#utility.yul\":21060:21072   */\n      swap1\n      pop\n        /* \"#utility.yul\":21003:21078   */\n      swap2\n      swap1\n      pop\n      jump\t// out\n        /* \"#utility.yul\":21084:21353   */\n    tag_340:\n        /* \"#utility.yul\":21194:21233   */\n      tag_546\n        /* \"#utility.yul\":21225:21232   */\n      dup4\n        /* \"#utility.yul\":21194:21233   */\n      tag_338\n      jump\t// in\n    tag_546:\n        /* \"#utility.yul\":21255:21346   */\n      tag_547\n        /* \"#utility.yul\":21304:21345   */\n      tag_548\n        /* \"#utility.yul\":21328:21344   */\n      dup3\n        /* \"#utility.yul\":21304:21345   */\n      tag_339\n      jump\t// in\n    tag_548:\n        /* \"#utility.yul\":21296:21302   */\n      dup5\n        /* \"#utility.yul\":21289:21293   */\n      dup5\n        /* \"#utility.yul\":21283:21294   */\n      sload\n        /* \"#utility.yul\":21255:21346   */\n      tag_336\n      jump\t// in\n    tag_547:\n        /* \"#utility.yul\":21249:21253   */\n      dup3\n        /* \"#utility.yul\":21242:21347   */\n      sstore\n        /* \"#utility.yul\":21160:21353   */\n      pop\n        /* \"#utility.yul\":21084:21353   */\n      pop\n      pop\n      pop\n      jump\t// out\n        /* \"#utility.yul\":21359:21432   */\n    tag_341:\n        /* \"#utility.yul\":21404:21407   */\n      0x00\n        /* \"#utility.yul\":21359:21432   */\n      swap1\n      jump\t// out\n        /* \"#utility.yul\":21438:21627   */\n    tag_342:\n        /* \"#utility.yul\":21515:21547   */\n      tag_551\n      tag_341\n      jump\t// in\n    tag_551:\n        /* \"#utility.yul\":21556:21621   */\n      tag_552\n        /* \"#utility.yul\":21614:21620   */\n      dup2\n        /* \"#utility.yul\":21606:21612   */\n      dup5\n        /* \"#utility.yul\":21600:21604   */\n      dup5\n        /* \"#utility.yul\":21556:21621   */\n      tag_340\n      jump\t// in\n    tag_552:\n        /* \"#utility.yul\":21491:21627   */\n      pop\n        /* \"#utility.yul\":21438:21627   */\n      pop\n      pop\n      jump\t// out\n        /* \"#utility.yul\":21633:21819   */\n    tag_343:\n        /* \"#utility.yul\":21693:21813   */\n    tag_554:\n        /* \"#utility.yul\":21710:21713   */\n      dup2\n        /* \"#utility.yul\":21703:21708   */\n      dup2\n        /* \"#utility.yul\":21700:21714   */\n      lt\n        /* \"#utility.yul\":21693:21813   */\n      iszero\n      tag_556\n      jumpi\n        /* \"#utility.yul\":21764:21803   */\n      tag_557\n        /* \"#utility.yul\":21801:21802   */\n      0x00\n        /* \"#utility.yul\":21794:21799   */\n      dup3\n        /* \"#utility.yul\":21764:21803   */\n      tag_342\n      jump\t// in\n    tag_557:\n        /* \"#utility.yul\":21737:21738   */\n      0x01\n        /* \"#utility.yul\":21730:21735   */\n      dup2\n        /* \"#utility.yul\":21726:21739   */\n      add\n        /* \"#utility.yul\":21717:21739   */\n      swap1\n      pop\n        /* \"#utility.yul\":21693:21813   */\n      jump(tag_554)\n    tag_556:\n        /* \"#utility.yul\":21633:21819   */\n      pop\n      pop\n      jump\t// out\n        /* \"#utility.yul\":21825:22368   */\n    tag_344:\n        /* \"#utility.yul\":21926:21928   */\n      0x1f\n        /* \"#utility.yul\":21921:21924   */\n      dup3\n        /* \"#utility.yul\":21918:21929   */\n      gt\n        /* \"#utility.yul\":21915:22361   */\n      iszero\n      tag_559\n      jumpi\n        /* \"#utility.yul\":21960:21998   */\n      tag_560\n        /* \"#utility.yul\":21992:21997   */\n      dup2\n        /* \"#utility.yul\":21960:21998   */\n      tag_333\n      jump\t// in\n    tag_560:\n        /* \"#utility.yul\":22044:22073   */\n      tag_561\n        /* \"#utility.yul\":22062:22072   */\n      dup5\n        /* \"#utility.yul\":22044:22073   */\n      tag_334\n      jump\t// in\n    tag_561:\n        /* \"#utility.yul\":22034:22042   */\n      dup2\n        /* \"#utility.yul\":22030:22074   */\n      add\n        /* \"#utility.yul\":22227:22229   */\n      0x20\n        /* \"#utility.yul\":22215:22225   */\n      dup6\n        /* \"#utility.yul\":22212:22230   */\n      lt\n        /* \"#utility.yul\":22209:22258   */\n      iszero\n      tag_562\n      jumpi\n        /* \"#utility.yul\":22248:22256   */\n      dup2\n        /* \"#utility.yul\":22233:22256   */\n      swap1\n      pop\n        /* \"#utility.yul\":22209:22258   */\n    tag_562:\n        /* \"#utility.yul\":22271:22351   */\n      tag_563\n        /* \"#utility.yul\":22327:22349   */\n      tag_564\n        /* \"#utility.yul\":22345:22348   */\n      dup6\n        /* \"#utility.yul\":22327:22349   */\n      tag_334\n      jump\t// in\n    tag_564:\n        /* \"#utility.yul\":22317:22325   */\n      dup4\n        /* \"#utility.yul\":22313:22350   */\n      add\n        /* \"#utility.yul\":22300:22311   */\n      dup3\n        /* \"#utility.yul\":22271:22351   */\n      tag_343\n      jump\t// in\n    tag_563:\n        /* \"#utility.yul\":21930:22361   */\n      pop\n      pop\n        /* \"#utility.yul\":21915:22361   */\n    tag_559:\n        /* \"#utility.yul\":21825:22368   */\n      pop\n      pop\n      pop\n      jump\t// out\n        /* \"#utility.yul\":22374:22491   */\n    tag_345:\n        /* \"#utility.yul\":22428:22436   */\n      0x00\n        /* \"#utility.yul\":22478:22483   */\n      dup3\n        /* \"#utility.yul\":22472:22476   */\n      dup3\n        /* \"#utility.yul\":22468:22484   */\n      shr\n        /* \"#utility.yul\":22447:22484   */\n      swap1\n      pop\n        /* \"#utility.yul\":22374:22491   */\n      swap3\n      swap2\n      pop\n      pop\n      jump\t// out\n        /* \"#utility.yul\":22497:22666   */\n    tag_346:\n        /* \"#utility.yul\":22541:22547   */\n      0x00\n        /* \"#utility.yul\":22574:22625   */\n      tag_567\n        /* \"#utility.yul\":22622:22623   */\n      0x00\n        /* \"#utility.yul\":22618:22624   */\n      not\n        /* \"#utility.yul\":22610:22615   */\n      dup5\n        /* \"#utility.yul\":22607:22608   */\n      0x08\n        /* \"#utility.yul\":22603:22616   */\n      mul\n        /* \"#utility.yul\":22574:22625   */\n      tag_345\n      jump\t// in\n    tag_567:\n        /* \"#utility.yul\":22570:22626   */\n      not\n        /* \"#utility.yul\":22655:22659   */\n      dup1\n        /* \"#utility.yul\":22649:22653   */\n      dup4\n        /* \"#utility.yul\":22645:22660   */\n      and\n        /* \"#utility.yul\":22635:22660   */\n      swap2\n      pop\n        /* \"#utility.yul\":22548:22666   */\n      pop\n        /* \"#utility.yul\":22497:22666   */\n      swap3\n      swap2\n      pop\n      pop\n      jump\t// out\n        /* \"#utility.yul\":22671:22966   */\n    tag_347:\n        /* \"#utility.yul\":22747:22751   */\n      0x00\n        /* \"#utility.yul\":22893:22922   */\n      tag_569\n        /* \"#utility.yul\":22918:22921   */\n      dup4\n        /* \"#utility.yul\":22912:22916   */\n      dup4\n        /* \"#utility.yul\":22893:22922   */\n      tag_346\n      jump\t// in\n    tag_569:\n        /* \"#utility.yul\":22885:22922   */\n      swap2\n      pop\n        /* \"#utility.yul\":22955:22958   */\n      dup3\n        /* \"#utility.yul\":22952:22953   */\n      0x02\n        /* \"#utility.yul\":22948:22959   */\n      mul\n        /* \"#utility.yul\":22942:22946   */\n      dup3\n        /* \"#utility.yul\":22939:22960   */\n      or\n        /* \"#utility.yul\":22931:22960   */\n      swap1\n      pop\n        /* \"#utility.yul\":22671:22966   */\n      swap3\n      swap2\n      pop\n      pop\n      jump\t// out\n        /* \"#utility.yul\":22971:24366   */\n    tag_107:\n        /* \"#utility.yul\":23088:23125   */\n      tag_571\n        /* \"#utility.yul\":23121:23124   */\n      dup3\n        /* \"#utility.yul\":23088:23125   */\n      tag_314\n      jump\t// in\n    tag_571:\n        /* \"#utility.yul\":23190:23208   */\n      0xffffffffffffffff\n        /* \"#utility.yul\":23182:23188   */\n      dup2\n        /* \"#utility.yul\":23179:23209   */\n      gt\n        /* \"#utility.yul\":23176:23232   */\n      iszero\n      tag_572\n      jumpi\n        /* \"#utility.yul\":23212:23230   */\n      tag_573\n      tag_306\n      jump\t// in\n    tag_573:\n        /* \"#utility.yul\":23176:23232   */\n    tag_572:\n        /* \"#utility.yul\":23256:23294   */\n      tag_574\n        /* \"#utility.yul\":23288:23292   */\n      dup3\n        /* \"#utility.yul\":23282:23293   */\n      sload\n        /* \"#utility.yul\":23256:23294   */\n      tag_123\n      jump\t// in\n    tag_574:\n        /* \"#utility.yul\":23341:23408   */\n      tag_575\n        /* \"#utility.yul\":23401:23407   */\n      dup3\n        /* \"#utility.yul\":23393:23399   */\n      dup3\n        /* \"#utility.yul\":23387:23391   */\n      dup6\n        /* \"#utility.yul\":23341:23408   */\n      tag_344\n      jump\t// in\n    tag_575:\n        /* \"#utility.yul\":23435:23436   */\n      0x00\n        /* \"#utility.yul\":23459:23463   */\n      0x20\n        /* \"#utility.yul\":23446:23463   */\n      swap1\n      pop\n        /* \"#utility.yul\":23491:23493   */\n      0x1f\n        /* \"#utility.yul\":23483:23489   */\n      dup4\n        /* \"#utility.yul\":23480:23494   */\n      gt\n        /* \"#utility.yul\":23508:23509   */\n      0x01\n        /* \"#utility.yul\":23503:24121   */\n      dup2\n      eq\n      tag_577\n      jumpi\n        /* \"#utility.yul\":24165:24166   */\n      0x00\n        /* \"#utility.yul\":24182:24188   */\n      dup5\n        /* \"#utility.yul\":24179:24256   */\n      iszero\n      tag_578\n      jumpi\n        /* \"#utility.yul\":24231:24240   */\n      dup3\n        /* \"#utility.yul\":24226:24229   */\n      dup8\n        /* \"#utility.yul\":24222:24241   */\n      add\n        /* \"#utility.yul\":24216:24242   */\n      mload\n        /* \"#utility.yul\":24207:24242   */\n      swap1\n      pop\n        /* \"#utility.yul\":24179:24256   */\n    tag_578:\n        /* \"#utility.yul\":24282:24349   */\n      tag_579\n        /* \"#utility.yul\":24342:24348   */\n      dup6\n        /* \"#utility.yul\":24335:24340   */\n      dup3\n        /* \"#utility.yul\":24282:24349   */\n      tag_347\n      jump\t// in\n    tag_579:\n        /* \"#utility.yul\":24276:24280   */\n      dup7\n        /* \"#utility.yul\":24269:24350   */\n      sstore\n        /* \"#utility.yul\":24138:24360   */\n      pop\n        /* \"#utility.yul\":23473:24360   */\n      jump(tag_576)\n        /* \"#utility.yul\":23503:24121   */\n    tag_577:\n        /* \"#utility.yul\":23555:23559   */\n      0x1f\n        /* \"#utility.yul\":23551:23560   */\n      not\n        /* \"#utility.yul\":23543:23549   */\n      dup5\n        /* \"#utility.yul\":23539:23561   */\n      and\n        /* \"#utility.yul\":23589:23626   */\n      tag_580\n        /* \"#utility.yul\":23621:23625   */\n      dup7\n        /* \"#utility.yul\":23589:23626   */\n      tag_333\n      jump\t// in\n    tag_580:\n        /* \"#utility.yul\":23648:23649   */\n      0x00\n        /* \"#utility.yul\":23662:23870   */\n    tag_581:\n        /* \"#utility.yul\":23676:23683   */\n      dup3\n        /* \"#utility.yul\":23673:23674   */\n      dup2\n        /* \"#utility.yul\":23670:23684   */\n      lt\n        /* \"#utility.yul\":23662:23870   */\n      iszero\n      tag_583\n      jumpi\n        /* \"#utility.yul\":23755:23764   */\n      dup5\n        /* \"#utility.yul\":23750:23753   */\n      dup10\n        /* \"#utility.yul\":23746:23765   */\n      add\n        /* \"#utility.yul\":23740:23766   */\n      mload\n        /* \"#utility.yul\":23732:23738   */\n      dup3\n        /* \"#utility.yul\":23725:23767   */\n      sstore\n        /* \"#utility.yul\":23806:23807   */\n      0x01\n        /* \"#utility.yul\":23798:23804   */\n      dup3\n        /* \"#utility.yul\":23794:23808   */\n      add\n        /* \"#utility.yul\":23784:23808   */\n      swap2\n      pop\n        /* \"#utility.yul\":23853:23855   */\n      0x20\n        /* \"#utility.yul\":23842:23851   */\n      dup6\n        /* \"#utility.yul\":23838:23856   */\n      add\n        /* \"#utility.yul\":23825:23856   */\n      swap5\n      pop\n        /* \"#utility.yul\":23699:23703   */\n      0x20\n        /* \"#utility.yul\":23696:23697   */\n      dup2\n        /* \"#utility.yul\":23692:23704   */\n      add\n        /* \"#utility.yul\":23687:23704   */\n      swap1\n      pop\n        /* \"#utility.yul\":23662:23870   */\n      jump(tag_581)\n    tag_583:\n        /* \"#utility.yul\":23898:23904   */\n      dup7\n        /* \"#utility.yul\":23889:23896   */\n      dup4\n        /* \"#utility.yul\":23886:23905   */\n      lt\n        /* \"#utility.yul\":23883:24062   */\n      iszero\n      tag_584\n      jumpi\n        /* \"#utility.yul\":23956:23965   */\n      dup5\n        /* \"#utility.yul\":23951:23954   */\n      dup10\n        /* \"#utility.yul\":23947:23966   */\n      add\n        /* \"#utility.yul\":23941:23967   */\n      mload\n        /* \"#utility.yul\":23999:24047   */\n      tag_585\n        /* \"#utility.yul\":24041:24045   */\n      0x1f\n        /* \"#utility.yul\":24033:24039   */\n      dup10\n        /* \"#utility.yul\":24029:24046   */\n      and\n        /* \"#utility.yul\":24018:24027   */\n      dup3\n        /* \"#utility.yul\":23999:24047   */\n      tag_346\n      jump\t// in\n    tag_585:\n        /* \"#utility.yul\":23991:23997   */\n      dup4\n        /* \"#utility.yul\":23984:24048   */\n      sstore\n        /* \"#utility.yul\":23906:24062   */\n      pop\n        /* \"#utility.yul\":23883:24062   */\n    tag_584:\n        /* \"#utility.yul\":24108:24109   */\n      0x01\n        /* \"#utility.yul\":24104:24105   */\n      0x02\n        /* \"#utility.yul\":24096:24102   */\n      dup9\n        /* \"#utility.yul\":24092:24106   */\n      mul\n        /* \"#utility.yul\":24088:24110   */\n      add\n        /* \"#utility.yul\":24082:24086   */\n      dup9\n        /* \"#utility.yul\":24075:24111   */\n      sstore\n        /* \"#utility.yul\":23510:24121   */\n      pop\n      pop\n      pop\n        /* \"#utility.yul\":23473:24360   */\n    tag_576:\n      pop\n        /* \"#utility.yul\":23063:24366   */\n      pop\n      pop\n      pop\n        /* \"#utility.yul\":22971:24366   */\n      pop\n      pop\n      jump\t// out\n        /* \"#utility.yul\":24372:24545   */\n    tag_348:\n        /* \"#utility.yul\":24512:24537   */\n      0x4d65726368616e7420616c726561647920657869737473000000000000000000\n        /* \"#utility.yul\":24508:24509   */\n      0x00\n        /* \"#utility.yul\":24500:24506   */\n      dup3\n        /* \"#utility.yul\":24496:24510   */\n      add\n        /* \"#utility.yul\":24489:24538   */\n      mstore\n        /* \"#utility.yul\":24372:24545   */\n      pop\n      jump\t// out\n        /* \"#utility.yul\":24551:24917   */\n    tag_349:\n        /* \"#utility.yul\":24693:24696   */\n      0x00\n        /* \"#utility.yul\":24714:24781   */\n      tag_588\n        /* \"#utility.yul\":24778:24780   */\n      0x17\n        /* \"#utility.yul\":24773:24776   */\n      dup4\n        /* \"#utility.yul\":24714:24781   */\n      tag_321\n      jump\t// in\n    tag_588:\n        /* \"#utility.yul\":24707:24781   */\n      swap2\n      pop\n        /* \"#utility.yul\":24790:24883   */\n      tag_589\n        /* \"#utility.yul\":24879:24882   */\n      dup3\n        /* \"#utility.yul\":24790:24883   */\n      tag_348\n      jump\t// in\n    tag_589:\n        /* \"#utility.yul\":24908:24910   */\n      0x20\n        /* \"#utility.yul\":24903:24906   */\n      dup3\n        /* \"#utility.yul\":24899:24911   */\n      add\n        /* \"#utility.yul\":24892:24911   */\n      swap1\n      pop\n        /* \"#utility.yul\":24551:24917   */\n      swap2\n      swap1\n      pop\n      jump\t// out\n        /* \"#utility.yul\":24923:25342   */\n    tag_169:\n        /* \"#utility.yul\":25089:25093   */\n      0x00\n        /* \"#utility.yul\":25127:25129   */\n      0x20\n        /* \"#utility.yul\":25116:25125   */\n      dup3\n        /* \"#utility.yul\":25112:25130   */\n      add\n        /* \"#utility.yul\":25104:25130   */\n      swap1\n      pop\n        /* \"#utility.yul\":25176:25185   */\n      dup2\n        /* \"#utility.yul\":25170:25174   */\n      dup2\n        /* \"#utility.yul\":25166:25186   */\n      sub\n        /* \"#utility.yul\":25162:25163   */\n      0x00\n        /* \"#utility.yul\":25151:25160   */\n      dup4\n        /* \"#utility.yul\":25147:25164   */\n      add\n        /* \"#utility.yul\":25140:25187   */\n      mstore\n        /* \"#utility.yul\":25204:25335   */\n      tag_591\n        /* \"#utility.yul\":25330:25334   */\n      dup2\n        /* \"#utility.yul\":25204:25335   */\n      tag_349\n      jump\t// in\n    tag_591:\n        /* \"#utility.yul\":25196:25335   */\n      swap1\n      pop\n        /* \"#utility.yul\":24923:25342   */\n      swap2\n      swap1\n      pop\n      jump\t// out\n        /* \"#utility.yul\":25348:25661   */\n    tag_175:\n        /* \"#utility.yul\":25461:25465   */\n      0x00\n        /* \"#utility.yul\":25499:25501   */\n      0x20\n        /* \"#utility.yul\":25488:25497   */\n      dup3\n        /* \"#utility.yul\":25484:25502   */\n      add\n        /* \"#utility.yul\":25476:25502   */\n      swap1\n      pop\n        /* \"#utility.yul\":25548:25557   */\n      dup2\n        /* \"#utility.yul\":25542:25546   */\n      dup2\n        /* \"#utility.yul\":25538:25558   */\n      sub\n        /* \"#utility.yul\":25534:25535   */\n      0x00\n        /* \"#utility.yul\":25523:25532   */\n      dup4\n        /* \"#utility.yul\":25519:25536   */\n      add\n        /* \"#utility.yul\":25512:25559   */\n      mstore\n        /* \"#utility.yul\":25576:25654   */\n      tag_593\n        /* \"#utility.yul\":25649:25653   */\n      dup2\n        /* \"#utility.yul\":25640:25646   */\n      dup5\n        /* \"#utility.yul\":25576:25654   */\n      tag_322\n      jump\t// in\n    tag_593:\n        /* \"#utility.yul\":25568:25654   */\n      swap1\n      pop\n        /* \"#utility.yul\":25348:25661   */\n      swap3\n      swap2\n      pop\n      pop\n      jump\t// out\n        /* \"#utility.yul\":25667:25847   */\n    tag_350:\n        /* \"#utility.yul\":25807:25839   */\n      0x496e76616c69642061637469766174696f6e20636f646520666f726d61740000\n        /* \"#utility.yul\":25803:25804   */\n      0x00\n        /* \"#utility.yul\":25795:25801   */\n      dup3\n        /* \"#utility.yul\":25791:25805   */\n      add\n        /* \"#utility.yul\":25784:25840   */\n      mstore\n        /* \"#utility.yul\":25667:25847   */\n      pop\n      jump\t// out\n        /* \"#utility.yul\":25853:26219   */\n    tag_351:\n        /* \"#utility.yul\":25995:25998   */\n      0x00\n        /* \"#utility.yul\":26016:26083   */\n      tag_596\n        /* \"#utility.yul\":26080:26082   */\n      0x1e\n        /* \"#utility.yul\":26075:26078   */\n      dup4\n        /* \"#utility.yul\":26016:26083   */\n      tag_321\n      jump\t// in\n    tag_596:\n        /* \"#utility.yul\":26009:26083   */\n      swap2\n      pop\n        /* \"#utility.yul\":26092:26185   */\n      tag_597\n        /* \"#utility.yul\":26181:26184   */\n      dup3\n        /* \"#utility.yul\":26092:26185   */\n      tag_350\n      jump\t// in\n    tag_597:\n        /* \"#utility.yul\":26210:26212   */\n      0x20\n        /* \"#utility.yul\":26205:26208   */\n      dup3\n        /* \"#utility.yul\":26201:26213   */\n      add\n        /* \"#utility.yul\":26194:26213   */\n      swap1\n      pop\n        /* \"#utility.yul\":25853:26219   */\n      swap2\n      swap1\n      pop\n      jump\t// out\n        /* \"#utility.yul\":26225:26644   */\n    tag_229:\n        /* \"#utility.yul\":26391:26395   */\n      0x00\n        /* \"#utility.yul\":26429:26431   */\n      0x20\n        /* \"#utility.yul\":26418:26427   */\n      dup3\n        /* \"#utility.yul\":26414:26432   */\n      add\n        /* \"#utility.yul\":26406:26432   */\n      swap1\n      pop\n        /* \"#utility.yul\":26478:26487   */\n      dup2\n        /* \"#utility.yul\":26472:26476   */\n      dup2\n        /* \"#utility.yul\":26468:26488   */\n      sub\n        /* \"#utility.yul\":26464:26465   */\n      0x00\n        /* \"#utility.yul\":26453:26462   */\n      dup4\n        /* \"#utility.yul\":26449:26466   */\n      add\n        /* \"#utility.yul\":26442:26489   */\n      mstore\n        /* \"#utility.yul\":26506:26637   */\n      tag_599\n        /* \"#utility.yul\":26632:26636   */\n      dup2\n        /* \"#utility.yul\":26506:26637   */\n      tag_351\n      jump\t// in\n    tag_599:\n        /* \"#utility.yul\":26498:26637   */\n      swap1\n      pop\n        /* \"#utility.yul\":26225:26644   */\n      swap2\n      swap1\n      pop\n      jump\t// out\n        /* \"#utility.yul\":26650:26830   */\n    tag_352:\n        /* \"#utility.yul\":26698:26775   */\n      0x4e487b7100000000000000000000000000000000000000000000000000000000\n        /* \"#utility.yul\":26695:26696   */\n      0x00\n        /* \"#utility.yul\":26688:26776   */\n      mstore\n        /* \"#utility.yul\":26795:26799   */\n      0x12\n        /* \"#utility.yul\":26792:26793   */\n      0x04\n        /* \"#utility.yul\":26785:26800   */\n      mstore\n        /* \"#utility.yul\":26819:26823   */\n      0x24\n        /* \"#utility.yul\":26816:26817   */\n      0x00\n        /* \"#utility.yul\":26809:26824   */\n      revert\n        /* \"#utility.yul\":26836:27012   */\n    tag_231:\n        /* \"#utility.yul\":26868:26869   */\n      0x00\n        /* \"#utility.yul\":26885:26905   */\n      tag_602\n        /* \"#utility.yul\":26903:26904   */\n      dup3\n        /* \"#utility.yul\":26885:26905   */\n      tag_295\n      jump\t// in\n    tag_602:\n        /* \"#utility.yul\":26880:26905   */\n      swap2\n      pop\n        /* \"#utility.yul\":26919:26939   */\n      tag_603\n        /* \"#utility.yul\":26937:26938   */\n      dup4\n        /* \"#utility.yul\":26919:26939   */\n      tag_295\n      jump\t// in\n    tag_603:\n        /* \"#utility.yul\":26914:26939   */\n      swap3\n      pop\n        /* \"#utility.yul\":26958:26959   */\n      dup3\n        /* \"#utility.yul\":26948:26983   */\n      tag_604\n      jumpi\n        /* \"#utility.yul\":26963:26981   */\n      tag_605\n      tag_352\n      jump\t// in\n    tag_605:\n        /* \"#utility.yul\":26948:26983   */\n    tag_604:\n        /* \"#utility.yul\":27004:27005   */\n      dup3\n        /* \"#utility.yul\":27001:27002   */\n      dup3\n        /* \"#utility.yul\":26997:27006   */\n      mod\n        /* \"#utility.yul\":26992:27006   */\n      swap1\n      pop\n        /* \"#utility.yul\":26836:27012   */\n      swap3\n      swap2\n      pop\n      pop\n      jump\t// out\n        /* \"#utility.yul\":27018:27203   */\n    tag_233:\n        /* \"#utility.yul\":27058:27059   */\n      0x00\n        /* \"#utility.yul\":27075:27095   */\n      tag_607\n        /* \"#utility.yul\":27093:27094   */\n      dup3\n        /* \"#utility.yul\":27075:27095   */\n      tag_295\n      jump\t// in\n    tag_607:\n        /* \"#utility.yul\":27070:27095   */\n      swap2\n      pop\n        /* \"#utility.yul\":27109:27129   */\n      tag_608\n        /* \"#utility.yul\":27127:27128   */\n      dup4\n        /* \"#utility.yul\":27109:27129   */\n      tag_295\n      jump\t// in\n    tag_608:\n        /* \"#utility.yul\":27104:27129   */\n      swap3\n      pop\n        /* \"#utility.yul\":27148:27149   */\n      dup3\n        /* \"#utility.yul\":27138:27173   */\n      tag_609\n      jumpi\n        /* \"#utility.yul\":27153:27171   */\n      tag_610\n      tag_352\n      jump\t// in\n    tag_610:\n        /* \"#utility.yul\":27138:27173   */\n    tag_609:\n        /* \"#utility.yul\":27195:27196   */\n      dup3\n        /* \"#utility.yul\":27192:27193   */\n      dup3\n        /* \"#utility.yul\":27188:27197   */\n      div\n        /* \"#utility.yul\":27183:27197   */\n      swap1\n      pop\n        /* \"#utility.yul\":27018:27203   */\n      swap3\n      swap2\n      pop\n      pop\n      jump\t// out\n        /* \"#utility.yul\":27209:27619   */\n    tag_241:\n        /* \"#utility.yul\":27249:27256   */\n      0x00\n        /* \"#utility.yul\":27272:27292   */\n      tag_612\n        /* \"#utility.yul\":27290:27291   */\n      dup3\n        /* \"#utility.yul\":27272:27292   */\n      tag_295\n      jump\t// in\n    tag_612:\n        /* \"#utility.yul\":27267:27292   */\n      swap2\n      pop\n        /* \"#utility.yul\":27306:27326   */\n      tag_613\n        /* \"#utility.yul\":27324:27325   */\n      dup4\n        /* \"#utility.yul\":27306:27326   */\n      tag_295\n      jump\t// in\n    tag_613:\n        /* \"#utility.yul\":27301:27326   */\n      swap3\n      pop\n        /* \"#utility.yul\":27361:27362   */\n      dup3\n        /* \"#utility.yul\":27358:27359   */\n      dup3\n        /* \"#utility.yul\":27354:27363   */\n      mul\n        /* \"#utility.yul\":27383:27413   */\n      tag_614\n        /* \"#utility.yul\":27401:27412   */\n      dup2\n        /* \"#utility.yul\":27383:27413   */\n      tag_295\n      jump\t// in\n    tag_614:\n        /* \"#utility.yul\":27372:27413   */\n      swap2\n      pop\n        /* \"#utility.yul\":27562:27563   */\n      dup3\n        /* \"#utility.yul\":27553:27560   */\n      dup3\n        /* \"#utility.yul\":27549:27564   */\n      div\n        /* \"#utility.yul\":27546:27547   */\n      dup5\n        /* \"#utility.yul\":27543:27565   */\n      eq\n        /* \"#utility.yul\":27523:27524   */\n      dup4\n        /* \"#utility.yul\":27516:27525   */\n      iszero\n        /* \"#utility.yul\":27496:27579   */\n      or\n        /* \"#utility.yul\":27473:27612   */\n      tag_615\n      jumpi\n        /* \"#utility.yul\":27592:27610   */\n      tag_616\n      tag_331\n      jump\t// in\n    tag_616:\n        /* \"#utility.yul\":27473:27612   */\n    tag_615:\n        /* \"#utility.yul\":27257:27619   */\n      pop\n        /* \"#utility.yul\":27209:27619   */\n      swap3\n      swap2\n      pop\n      pop\n      jump\t// out\n        /* \"#utility.yul\":27625:27816   */\n    tag_243:\n        /* \"#utility.yul\":27665:27668   */\n      0x00\n        /* \"#utility.yul\":27684:27704   */\n      tag_618\n        /* \"#utility.yul\":27702:27703   */\n      dup3\n        /* \"#utility.yul\":27684:27704   */\n      tag_295\n      jump\t// in\n    tag_618:\n        /* \"#utility.yul\":27679:27704   */\n      swap2\n      pop\n        /* \"#utility.yul\":27718:27738   */\n      tag_619\n        /* \"#utility.yul\":27736:27737   */\n      dup4\n        /* \"#utility.yul\":27718:27738   */\n      tag_295\n      jump\t// in\n    tag_619:\n        /* \"#utility.yul\":27713:27738   */\n      swap3\n      pop\n        /* \"#utility.yul\":27761:27762   */\n      dup3\n        /* \"#utility.yul\":27758:27759   */\n      dup3\n        /* \"#utility.yul\":27754:27763   */\n      add\n        /* \"#utility.yul\":27747:27763   */\n      swap1\n      pop\n        /* \"#utility.yul\":27782:27785   */\n      dup1\n        /* \"#utility.yul\":27779:27780   */\n      dup3\n        /* \"#utility.yul\":27776:27786   */\n      gt\n        /* \"#utility.yul\":27773:27809   */\n      iszero\n      tag_620\n      jumpi\n        /* \"#utility.yul\":27789:27807   */\n      tag_621\n      tag_331\n      jump\t// in\n    tag_621:\n        /* \"#utility.yul\":27773:27809   */\n    tag_620:\n        /* \"#utility.yul\":27625:27816   */\n      swap3\n      swap2\n      pop\n      pop\n      jump\t// out\n        /* \"#utility.yul\":27822:27901   */\n    tag_353:\n        /* \"#utility.yul\":27861:27868   */\n      0x00\n        /* \"#utility.yul\":27890:27895   */\n      dup2\n        /* \"#utility.yul\":27879:27895   */\n      swap1\n      pop\n        /* \"#utility.yul\":27822:27901   */\n      swap2\n      swap1\n      pop\n      jump\t// out\n        /* \"#utility.yul\":27907:28064   */\n    tag_354:\n        /* \"#utility.yul\":28012:28057   */\n      tag_624\n        /* \"#utility.yul\":28032:28056   */\n      tag_625\n        /* \"#utility.yul\":28050:28055   */\n      dup3\n        /* \"#utility.yul\":28032:28056   */\n      tag_295\n      jump\t// in\n    tag_625:\n        /* \"#utility.yul\":28012:28057   */\n      tag_353\n      jump\t// in\n    tag_624:\n        /* \"#utility.yul\":28007:28010   */\n      dup3\n        /* \"#utility.yul\":28000:28058   */\n      mstore\n        /* \"#utility.yul\":27907:28064   */\n      pop\n      pop\n      jump\t// out\n        /* \"#utility.yul\":28070:28164   */\n    tag_355:\n        /* \"#utility.yul\":28103:28111   */\n      0x00\n        /* \"#utility.yul\":28151:28156   */\n      dup2\n        /* \"#utility.yul\":28147:28149   */\n      0x60\n        /* \"#utility.yul\":28143:28157   */\n      shl\n        /* \"#utility.yul\":28122:28157   */\n      swap1\n      pop\n        /* \"#utility.yul\":28070:28164   */\n      swap2\n      swap1\n      pop\n      jump\t// out\n        /* \"#utility.yul\":28170:28264   */\n    tag_356:\n        /* \"#utility.yul\":28209:28216   */\n      0x00\n        /* \"#utility.yul\":28238:28258   */\n      tag_628\n        /* \"#utility.yul\":28252:28257   */\n      dup3\n        /* \"#utility.yul\":28238:28258   */\n      tag_355\n      jump\t// in\n    tag_628:\n        /* \"#utility.yul\":28227:28258   */\n      swap1\n      pop\n        /* \"#utility.yul\":28170:28264   */\n      swap2\n      swap1\n      pop\n      jump\t// out\n        /* \"#utility.yul\":28270:28370   */\n    tag_357:\n        /* \"#utility.yul\":28309:28316   */\n      0x00\n        /* \"#utility.yul\":28338:28364   */\n      tag_630\n        /* \"#utility.yul\":28358:28363   */\n      dup3\n        /* \"#utility.yul\":28338:28364   */\n      tag_356\n      jump\t// in\n    tag_630:\n        /* \"#utility.yul\":28327:28364   */\n      swap1\n      pop\n        /* \"#utility.yul\":28270:28370   */\n      swap2\n      swap1\n      pop\n      jump\t// out\n        /* \"#utility.yul\":28376:28533   */\n    tag_358:\n        /* \"#utility.yul\":28481:28526   */\n      tag_632\n        /* \"#utility.yul\":28501:28525   */\n      tag_633\n        /* \"#utility.yul\":28519:28524   */\n      dup3\n        /* \"#utility.yul\":28501:28525   */\n      tag_299\n      jump\t// in\n    tag_633:\n        /* \"#utility.yul\":28481:28526   */\n      tag_357\n      jump\t// in\n    tag_632:\n        /* \"#utility.yul\":28476:28479   */\n      dup3\n        /* \"#utility.yul\":28469:28527   */\n      mstore\n        /* \"#utility.yul\":28376:28533   */\n      pop\n      pop\n      jump\t// out\n        /* \"#utility.yul\":28539:28936   */\n    tag_247:\n        /* \"#utility.yul\":28679:28682   */\n      0x00\n        /* \"#utility.yul\":28694:28769   */\n      tag_635\n        /* \"#utility.yul\":28765:28768   */\n      dup3\n        /* \"#utility.yul\":28756:28762   */\n      dup6\n        /* \"#utility.yul\":28694:28769   */\n      tag_354\n      jump\t// in\n    tag_635:\n        /* \"#utility.yul\":28794:28796   */\n      0x20\n        /* \"#utility.yul\":28789:28792   */\n      dup3\n        /* \"#utility.yul\":28785:28797   */\n      add\n        /* \"#utility.yul\":28778:28797   */\n      swap2\n      pop\n        /* \"#utility.yul\":28807:28882   */\n      tag_636\n        /* \"#utility.yul\":28878:28881   */\n      dup3\n        /* \"#utility.yul\":28869:28875   */\n      dup5\n        /* \"#utility.yul\":28807:28882   */\n      tag_358\n      jump\t// in\n    tag_636:\n        /* \"#utility.yul\":28907:28909   */\n      0x14\n        /* \"#utility.yul\":28902:28905   */\n      dup3\n        /* \"#utility.yul\":28898:28910   */\n      add\n        /* \"#utility.yul\":28891:28910   */\n      swap2\n      pop\n        /* \"#utility.yul\":28927:28930   */\n      dup2\n        /* \"#utility.yul\":28920:28930   */\n      swap1\n      pop\n        /* \"#utility.yul\":28539:28936   */\n      swap4\n      swap3\n      pop\n      pop\n      pop\n      jump\t// out\n        /* \"#utility.yul\":28942:29044   */\n    tag_359:\n        /* \"#utility.yul\":28984:28992   */\n      0x00\n        /* \"#utility.yul\":29031:29036   */\n      dup2\n        /* \"#utility.yul\":29028:29029   */\n      0x01\n        /* \"#utility.yul\":29024:29037   */\n      shr\n        /* \"#utility.yul\":29003:29037   */\n      swap1\n      pop\n        /* \"#utility.yul\":28942:29044   */\n      swap2\n      swap1\n      pop\n      jump\t// out\n        /* \"#utility.yul\":29050:29898   */\n    tag_360:\n        /* \"#utility.yul\":29111:29116   */\n      0x00\n        /* \"#utility.yul\":29118:29122   */\n      dup1\n        /* \"#utility.yul\":29142:29148   */\n      dup3\n        /* \"#utility.yul\":29133:29148   */\n      swap2\n      pop\n        /* \"#utility.yul\":29166:29171   */\n      dup4\n        /* \"#utility.yul\":29157:29171   */\n      swap1\n      pop\n        /* \"#utility.yul\":29180:29892   */\n    tag_639:\n        /* \"#utility.yul\":29201:29202   */\n      0x01\n        /* \"#utility.yul\":29191:29199   */\n      dup6\n        /* \"#utility.yul\":29188:29203   */\n      gt\n        /* \"#utility.yul\":29180:29892   */\n      iszero\n      tag_641\n      jumpi\n        /* \"#utility.yul\":29296:29300   */\n      dup1\n        /* \"#utility.yul\":29291:29294   */\n      dup7\n        /* \"#utility.yul\":29287:29301   */\n      div\n        /* \"#utility.yul\":29281:29285   */\n      dup2\n        /* \"#utility.yul\":29278:29302   */\n      gt\n        /* \"#utility.yul\":29275:29325   */\n      iszero\n      tag_642\n      jumpi\n        /* \"#utility.yul\":29305:29323   */\n      tag_643\n      tag_331\n      jump\t// in\n    tag_643:\n        /* \"#utility.yul\":29275:29325   */\n    tag_642:\n        /* \"#utility.yul\":29355:29356   */\n      0x01\n        /* \"#utility.yul\":29345:29353   */\n      dup6\n        /* \"#utility.yul\":29341:29357   */\n      and\n        /* \"#utility.yul\":29338:29789   */\n      iszero\n      tag_644\n      jumpi\n        /* \"#utility.yul\":29770:29774   */\n      dup1\n        /* \"#utility.yul\":29763:29768   */\n      dup3\n        /* \"#utility.yul\":29759:29775   */\n      mul\n        /* \"#utility.yul\":29750:29775   */\n      swap2\n      pop\n        /* \"#utility.yul\":29338:29789   */\n    tag_644:\n        /* \"#utility.yul\":29820:29824   */\n      dup1\n        /* \"#utility.yul\":29814:29818   */\n      dup2\n        /* \"#utility.yul\":29810:29825   */\n      mul\n        /* \"#utility.yul\":29802:29825   */\n      swap1\n      pop\n        /* \"#utility.yul\":29850:29882   */\n      tag_645\n        /* \"#utility.yul\":29873:29881   */\n      dup6\n        /* \"#utility.yul\":29850:29882   */\n      tag_359\n      jump\t// in\n    tag_645:\n        /* \"#utility.yul\":29838:29882   */\n      swap5\n      pop\n        /* \"#utility.yul\":29180:29892   */\n      jump(tag_639)\n    tag_641:\n        /* \"#utility.yul\":29050:29898   */\n      swap5\n      pop\n      swap5\n      swap3\n      pop\n      pop\n      pop\n      jump\t// out\n        /* \"#utility.yul\":29904:30977   */\n    tag_361:\n        /* \"#utility.yul\":29958:29963   */\n      0x00\n        /* \"#utility.yul\":30149:30157   */\n      dup3\n        /* \"#utility.yul\":30139:30179   */\n      tag_647\n      jumpi\n        /* \"#utility.yul\":30170:30171   */\n      0x01\n        /* \"#utility.yul\":30161:30171   */\n      swap1\n      pop\n        /* \"#utility.yul\":30172:30177   */\n      jump(tag_646)\n        /* \"#utility.yul\":30139:30179   */\n    tag_647:\n        /* \"#utility.yul\":30198:30202   */\n      dup2\n        /* \"#utility.yul\":30188:30224   */\n      tag_648\n      jumpi\n        /* \"#utility.yul\":30215:30216   */\n      0x00\n        /* \"#utility.yul\":30206:30216   */\n      swap1\n      pop\n        /* \"#utility.yul\":30217:30222   */\n      jump(tag_646)\n        /* \"#utility.yul\":30188:30224   */\n    tag_648:\n        /* \"#utility.yul\":30284:30288   */\n      dup2\n        /* \"#utility.yul\":30332:30333   */\n      0x01\n        /* \"#utility.yul\":30327:30354   */\n      dup2\n      eq\n      tag_650\n      jumpi\n        /* \"#utility.yul\":30368:30369   */\n      0x02\n        /* \"#utility.yul\":30363:30554   */\n      dup2\n      eq\n      tag_651\n      jumpi\n        /* \"#utility.yul\":30277:30554   */\n      jump(tag_649)\n        /* \"#utility.yul\":30327:30354   */\n    tag_650:\n        /* \"#utility.yul\":30345:30346   */\n      0x01\n        /* \"#utility.yul\":30336:30346   */\n      swap2\n      pop\n        /* \"#utility.yul\":30347:30352   */\n      pop\n      jump(tag_646)\n        /* \"#utility.yul\":30363:30554   */\n    tag_651:\n        /* \"#utility.yul\":30408:30411   */\n      0xff\n        /* \"#utility.yul\":30398:30406   */\n      dup5\n        /* \"#utility.yul\":30395:30412   */\n      gt\n        /* \"#utility.yul\":30392:30435   */\n      iszero\n      tag_652\n      jumpi\n        /* \"#utility.yul\":30415:30433   */\n      tag_653\n      tag_331\n      jump\t// in\n    tag_653:\n        /* \"#utility.yul\":30392:30435   */\n    tag_652:\n        /* \"#utility.yul\":30464:30472   */\n      dup4\n        /* \"#utility.yul\":30461:30462   */\n      0x02\n        /* \"#utility.yul\":30457:30473   */\n      exp\n        /* \"#utility.yul\":30448:30473   */\n      swap2\n      pop\n        /* \"#utility.yul\":30499:30502   */\n      dup5\n        /* \"#utility.yul\":30492:30497   */\n      dup3\n        /* \"#utility.yul\":30489:30503   */\n      gt\n        /* \"#utility.yul\":30486:30526   */\n      iszero\n      tag_654\n      jumpi\n        /* \"#utility.yul\":30506:30524   */\n      tag_655\n      tag_331\n      jump\t// in\n    tag_655:\n        /* \"#utility.yul\":30486:30526   */\n    tag_654:\n        /* \"#utility.yul\":30539:30544   */\n      pop\n      jump(tag_646)\n        /* \"#utility.yul\":30277:30554   */\n    tag_649:\n      pop\n        /* \"#utility.yul\":30663:30665   */\n      0x20\n        /* \"#utility.yul\":30653:30661   */\n      dup4\n        /* \"#utility.yul\":30650:30666   */\n      lt\n        /* \"#utility.yul\":30644:30647   */\n      0x0133\n        /* \"#utility.yul\":30638:30642   */\n      dup4\n        /* \"#utility.yul\":30635:30648   */\n      lt\n        /* \"#utility.yul\":30631:30667   */\n      and\n        /* \"#utility.yul\":30613:30615   */\n      0x4e\n        /* \"#utility.yul\":30603:30611   */\n      dup5\n        /* \"#utility.yul\":30600:30616   */\n      lt\n        /* \"#utility.yul\":30595:30597   */\n      0x0b\n        /* \"#utility.yul\":30589:30593   */\n      dup5\n        /* \"#utility.yul\":30586:30598   */\n      lt\n        /* \"#utility.yul\":30582:30617   */\n      and\n        /* \"#utility.yul\":30566:30677   */\n      or\n        /* \"#utility.yul\":30563:30809   */\n      iszero\n      tag_656\n      jumpi\n        /* \"#utility.yul\":30719:30727   */\n      dup3\n        /* \"#utility.yul\":30713:30717   */\n      dup3\n        /* \"#utility.yul\":30709:30728   */\n      exp\n        /* \"#utility.yul\":30700:30728   */\n      swap1\n      pop\n        /* \"#utility.yul\":30754:30757   */\n      dup4\n        /* \"#utility.yul\":30747:30752   */\n      dup2\n        /* \"#utility.yul\":30744:30758   */\n      gt\n        /* \"#utility.yul\":30741:30781   */\n      iszero\n      tag_657\n      jumpi\n        /* \"#utility.yul\":30761:30779   */\n      tag_658\n      tag_331\n      jump\t// in\n    tag_658:\n        /* \"#utility.yul\":30741:30781   */\n    tag_657:\n        /* \"#utility.yul\":30794:30799   */\n      jump(tag_646)\n        /* \"#utility.yul\":30563:30809   */\n    tag_656:\n        /* \"#utility.yul\":30834:30876   */\n      tag_659\n        /* \"#utility.yul\":30872:30875   */\n      dup5\n        /* \"#utility.yul\":30862:30870   */\n      dup5\n        /* \"#utility.yul\":30856:30860   */\n      dup5\n        /* \"#utility.yul\":30853:30854   */\n      0x01\n        /* \"#utility.yul\":30834:30876   */\n      tag_360\n      jump\t// in\n    tag_659:\n        /* \"#utility.yul\":30819:30876   */\n      swap3\n      pop\n      swap1\n      pop\n        /* \"#utility.yul\":30908:30912   */\n      dup2\n        /* \"#utility.yul\":30903:30906   */\n      dup5\n        /* \"#utility.yul\":30899:30913   */\n      div\n        /* \"#utility.yul\":30892:30897   */\n      dup2\n        /* \"#utility.yul\":30889:30914   */\n      gt\n        /* \"#utility.yul\":30886:30937   */\n      iszero\n      tag_660\n      jumpi\n        /* \"#utility.yul\":30917:30935   */\n      tag_661\n      tag_331\n      jump\t// in\n    tag_661:\n        /* \"#utility.yul\":30886:30937   */\n    tag_660:\n        /* \"#utility.yul\":30966:30970   */\n      dup2\n        /* \"#utility.yul\":30959:30964   */\n      dup2\n        /* \"#utility.yul\":30955:30971   */\n      mul\n        /* \"#utility.yul\":30946:30971   */\n      swap1\n      pop\n        /* \"#utility.yul\":29904:30977   */\n    tag_646:\n      swap4\n      swap3\n      pop\n      pop\n      pop\n      jump\t// out\n        /* \"#utility.yul\":30983:31268   */\n    tag_264:\n        /* \"#utility.yul\":31043:31048   */\n      0x00\n        /* \"#utility.yul\":31067:31090   */\n      tag_663\n        /* \"#utility.yul\":31085:31089   */\n      dup3\n        /* \"#utility.yul\":31067:31090   */\n      tag_295\n      jump\t// in\n    tag_663:\n        /* \"#utility.yul\":31059:31090   */\n      swap2\n      pop\n        /* \"#utility.yul\":31111:31138   */\n      tag_664\n        /* \"#utility.yul\":31129:31137   */\n      dup4\n        /* \"#utility.yul\":31111:31138   */\n      tag_295\n      jump\t// in\n    tag_664:\n        /* \"#utility.yul\":31099:31138   */\n      swap3\n      pop\n        /* \"#utility.yul\":31157:31261   */\n      tag_665\n        /* \"#utility.yul\":31194:31260   */\n      0xffffffffffffffffffffffffffffffffffffffffffffffffffffffffffffffff\n        /* \"#utility.yul\":31184:31192   */\n      dup5\n        /* \"#utility.yul\":31178:31182   */\n      dup5\n        /* \"#utility.yul\":31157:31261   */\n      tag_361\n      jump\t// in\n    tag_665:\n        /* \"#utility.yul\":31148:31261   */\n      swap1\n      pop\n        /* \"#utility.yul\":30983:31268   */\n      swap3\n      swap2\n      pop\n      pop\n      jump\t// out\n\n    auxdata: 0xa26469706673582212202e1ad2d28d1c059305acb38e12e4bb91f1501b3ae7481737b41ac0cb1472aa9864736f6c634300081a0033\n}\n",
				"bytecode": {
					"linkReferences": {},
					"object": "6080604052348015600e575f80fd5b50335f806101000a81548173ffffffffffffffffffffffffffffffffffffffff021916908373ffffffffffffffffffffffffffffffffffffffff160217905550612c7b8061005b5f395ff3fe608060405234801561000f575f80fd5b50600436106100b2575f3560e01c8063cef338101161006f578063cef3381014610176578063d4dd4b47146101a7578063e7b4cac6146101c3578063ee14e939146101f8578063eef814d31461022c578063f4f976581461024a576100b2565b80630b75c58f146100b6578063133adab6146100e657806324e8779f146101025780633ab0639b1461011e5780638da5cb5b14610128578063cecfe08414610146575b5f80fd5b6100d060048036038101906100cb9190611c94565b610266565b6040516100dd9190611cfe565b60405180910390f35b61010060048036038101906100fb9190611d41565b610296565b005b61011c60048036038101906101179190611c94565b61046d565b005b610126610665565b005b6101306107d8565b60405161013d9190611cfe565b60405180910390f35b610160600480360381019061015b9190611ea8565b6107fb565b60405161016d9190611f8b565b60405180910390f35b610190600480360381019061018b9190611c94565b610987565b60405161019e929190612136565b60405180910390f35b6101c160048036038101906101bc919061216b565b610fbd565b005b6101dd60048036038101906101d89190611d41565b6111e8565b6040516101ef9695949392919061229a565b60405180910390f35b610212600480360381019061020d9190611d41565b611438565b604051610223959493929190612315565b60405180910390f35b610234611682565b6040516102419190611f8b565b60405180910390f35b610264600480360381019061025f9190611ea8565b6116c9565b005b6003602052805f5260405f205f915054906101000a900473ffffffffffffffffffffffffffffffffffffffff1681565b5f8054906101000a900473ffffffffffffffffffffffffffffffffffffffff1673ffffffffffffffffffffffffffffffffffffffff163373ffffffffffffffffffffffffffffffffffffffff1614610323576040517f08c379a000000000000000000000000000000000000000000000000000000000815260040161031a906123cc565b60405180910390fd5b5f60015f8373ffffffffffffffffffffffffffffffffffffffff1673ffffffffffffffffffffffffffffffffffffffff1681526020019081526020015f2060040154116103a5576040517f08c379a000000000000000000000000000000000000000000000000000000000815260040161039c90612434565b60405180910390fd5b60015f8273ffffffffffffffffffffffffffffffffffffffff1673ffffffffffffffffffffffffffffffffffffffff1681526020019081526020015f205f8082015f6103f19190611b96565b600182015f6104009190611b96565b600282015f61040f9190611b96565b600382015f61041e9190611b96565b600482015f905550508073ffffffffffffffffffffffffffffffffffffffff167fae4bdf5adabafca6721399496d24fe50fb6564effcb386fbae92de33540763bc60405160405180910390a250565b610476816118d6565b6104b5576040517f08c379a00000000000000000000000000000000000000000000000000000000081526004016104ac9061249c565b60405180910390fd5b5f60035f8381526020019081526020015f205f9054906101000a900473ffffffffffffffffffffffffffffffffffffffff1690505f73ffffffffffffffffffffffffffffffffffffffff168173ffffffffffffffffffffffffffffffffffffffff1603610557576040517f08c379a000000000000000000000000000000000000000000000000000000000815260040161054e90612504565b60405180910390fd5b60025f8273ffffffffffffffffffffffffffffffffffffffff1673ffffffffffffffffffffffffffffffffffffffff1681526020019081526020015f205f8082015f6105a39190611b96565b600182015f6105b29190611b96565b600282015f6105c19190611b96565b600382015f6105d09190611b96565b600482015f9055600582015f9055505060035f8381526020019081526020015f205f6101000a81549073ffffffffffffffffffffffffffffffffffffffff02191690558073ffffffffffffffffffffffffffffffffffffffff167fe9f653ab6dbfccfbf599e332a5cf4aa24c7d943d1fa32b4607a0ecc6063b3c04836040516106599190611f8b565b60405180910390a25050565b5f8054906101000a900473ffffffffffffffffffffffffffffffffffffffff1673ffffffffffffffffffffffffffffffffffffffff163373ffffffffffffffffffffffffffffffffffffffff16146106f2576040517f08c379a00000000000000000000000000000000000000000000000000000000081526004016106e9906123cc565b60405180910390fd5b5f33905061038460025f8373ffffffffffffffffffffffffffffffffffffffff1673ffffffffffffffffffffffffffffffffffffffff1681526020019081526020015f206005015442610745919061254f565b11156107d55760025f8273ffffffffffffffffffffffffffffffffffffffff1673ffffffffffffffffffffffffffffffffffffffff1681526020019081526020015f205f8082015f6107979190611b96565b600182015f6107a69190611b96565b600282015f6107b59190611b96565b600382015f6107c49190611b96565b600482015f9055600582015f905550505b50565b5f8054906101000a900473ffffffffffffffffffffffffffffffffffffffff1681565b5f80610805611967565b90506040518060c001604052808781526020018681526020018581526020018481526020018281526020014281525060025f3373ffffffffffffffffffffffffffffffffffffffff1673ffffffffffffffffffffffffffffffffffffffff1681526020019081526020015f205f820151815f019081610884919061277c565b50602082015181600101908161089a919061277c565b5060408201518160020190816108b0919061277c565b5060608201518160030190816108c6919061277c565b506080820151816004015560a082015181600501559050503360035f8381526020019081526020015f205f6101000a81548173ffffffffffffffffffffffffffffffffffffffff021916908373ffffffffffffffffffffffffffffffffffffffff1602179055503373ffffffffffffffffffffffffffffffffffffffff167f0ec66eac7cc2b6555e1742961a9ee17e918d7ff81b635fac9cc6833245d279d6826040516109739190611f8b565b60405180910390a280915050949350505050565b61098f611bd3565b610997611c01565b6109a0836118d6565b6109df576040517f08c379a00000000000000000000000000000000000000000000000000000000081526004016109d69061249c565b60405180910390fd5b5f60035f8581526020019081526020015f205f9054906101000a900473ffffffffffffffffffffffffffffffffffffffff1690505f73ffffffffffffffffffffffffffffffffffffffff168173ffffffffffffffffffffffffffffffffffffffff1603610a81576040517f08c379a0000000000000000000000000000000000000000000000000000000008152600401610a7890612504565b60405180910390fd5b60015f8273ffffffffffffffffffffffffffffffffffffffff1673ffffffffffffffffffffffffffffffffffffffff1681526020019081526020015f2060025f8373ffffffffffffffffffffffffffffffffffffffff1673ffffffffffffffffffffffffffffffffffffffff1681526020019081526020015f20816040518060a00160405290815f82018054610b16906125af565b80601f0160208091040260200160405190810160405280929190818152602001828054610b42906125af565b8015610b8d5780601f10610b6457610100808354040283529160200191610b8d565b820191905f5260205f20905b815481529060010190602001808311610b7057829003601f168201915b50505050508152602001600182018054610ba6906125af565b80601f0160208091040260200160405190810160405280929190818152602001828054610bd2906125af565b8015610c1d5780601f10610bf457610100808354040283529160200191610c1d565b820191905f5260205f20905b815481529060010190602001808311610c0057829003601f168201915b50505050508152602001600282018054610c36906125af565b80601f0160208091040260200160405190810160405280929190818152602001828054610c62906125af565b8015610cad5780601f10610c8457610100808354040283529160200191610cad565b820191905f5260205f20905b815481529060010190602001808311610c9057829003601f168201915b50505050508152602001600382018054610cc6906125af565b80601f0160208091040260200160405190810160405280929190818152602001828054610cf2906125af565b8015610d3d5780601f10610d1457610100808354040283529160200191610d3d565b820191905f5260205f20905b815481529060010190602001808311610d2057829003601f168201915b505050505081526020016004820154815250509150806040518060c00160405290815f82018054610d6d906125af565b80601f0160208091040260200160405190810160405280929190818152602001828054610d99906125af565b8015610de45780601f10610dbb57610100808354040283529160200191610de4565b820191905f5260205f20905b815481529060010190602001808311610dc757829003601f168201915b50505050508152602001600182018054610dfd906125af565b80601f0160208091040260200160405190810160405280929190818152602001828054610e29906125af565b8015610e745780601f10610e4b57610100808354040283529160200191610e74565b820191905f5260205f20905b815481529060010190602001808311610e5757829003601f168201915b50505050508152602001600282018054610e8d906125af565b80601f0160208091040260200160405190810160405280929190818152602001828054610eb9906125af565b8015610f045780601f10610edb57610100808354040283529160200191610f04565b820191905f5260205f20905b815481529060010190602001808311610ee757829003601f168201915b50505050508152602001600382018054610f1d906125af565b80601f0160208091040260200160405190810160405280929190818152602001828054610f49906125af565b8015610f945780601f10610f6b57610100808354040283529160200191610f94565b820191905f5260205f20905b815481529060010190602001808311610f7757829003601f168201915b505050505081526020016004820154815260200160058201548152505090509250925050915091565b5f8054906101000a900473ffffffffffffffffffffffffffffffffffffffff1673ffffffffffffffffffffffffffffffffffffffff163373ffffffffffffffffffffffffffffffffffffffff161461104a576040517f08c379a0000000000000000000000000000000000000000000000000000000008152600401611041906123cc565b60405180910390fd5b5f60015f8773ffffffffffffffffffffffffffffffffffffffff1673ffffffffffffffffffffffffffffffffffffffff1681526020019081526020015f2060040154146110cc576040517f08c379a00000000000000000000000000000000000000000000000000000000081526004016110c390612895565b60405180910390fd5b6040518060a001604052808581526020018481526020018381526020018281526020014281525060015f8773ffffffffffffffffffffffffffffffffffffffff1673ffffffffffffffffffffffffffffffffffffffff1681526020019081526020015f205f820151815f019081611143919061277c565b506020820151816001019081611159919061277c565b50604082015181600201908161116f919061277c565b506060820151816003019081611185919061277c565b50608082015181600401559050503373ffffffffffffffffffffffffffffffffffffffff167fec31b5c87ea82f60c8bc1dd8262f275183d0d7bc8c37cdbbfd74130441818fbc856040516111d991906128b3565b60405180910390a25050505050565b6002602052805f5260405f205f91509050805f018054611207906125af565b80601f0160208091040260200160405190810160405280929190818152602001828054611233906125af565b801561127e5780601f106112555761010080835404028352916020019161127e565b820191905f5260205f20905b81548152906001019060200180831161126157829003601f168201915b505050505090806001018054611293906125af565b80601f01602080910402602001604051908101604052809291908181526020018280546112bf906125af565b801561130a5780601f106112e15761010080835404028352916020019161130a565b820191905f5260205f20905b8154815290600101906020018083116112ed57829003601f168201915b50505050509080600201805461131f906125af565b80601f016020809104026020016040519081016040528092919081815260200182805461134b906125af565b80156113965780601f1061136d57610100808354040283529160200191611396565b820191905f5260205f20905b81548152906001019060200180831161137957829003601f168201915b5050505050908060030180546113ab906125af565b80601f01602080910402602001604051908101604052809291908181526020018280546113d7906125af565b80156114225780601f106113f957610100808354040283529160200191611422565b820191905f5260205f20905b81548152906001019060200180831161140557829003601f168201915b5050505050908060040154908060050154905086565b6001602052805f5260405f205f91509050805f018054611457906125af565b80601f0160208091040260200160405190810160405280929190818152602001828054611483906125af565b80156114ce5780601f106114a5576101008083540402835291602001916114ce565b820191905f5260205f20905b8154815290600101906020018083116114b157829003601f168201915b5050505050908060010180546114e3906125af565b80601f016020809104026020016040519081016040528092919081815260200182805461150f906125af565b801561155a5780601f106115315761010080835404028352916020019161155a565b820191905f5260205f20905b81548152906001019060200180831161153d57829003601f168201915b50505050509080600201805461156f906125af565b80601f016020809104026020016040519081016040528092919081815260200182805461159b906125af565b80156115e65780601f106115bd576101008083540402835291602001916115e6565b820191905f5260205f20905b8154815290600101906020018083116115c957829003601f168201915b5050505050908060030180546115fb906125af565b80601f0160208091040260200160405190810160405280929190818152602001828054611627906125af565b80156116725780601f1061164957610100808354040283529160200191611672565b820191905f5260205f20905b81548152906001019060200180831161165557829003601f168201915b5050505050908060040154905085565b5f60025f3373ffffffffffffffffffffffffffffffffffffffff1673ffffffffffffffffffffffffffffffffffffffff1681526020019081526020015f2060040154905090565b5f60015f3373ffffffffffffffffffffffffffffffffffffffff1673ffffffffffffffffffffffffffffffffffffffff1681526020019081526020015f20600401541161174b576040517f08c379a000000000000000000000000000000000000000000000000000000000815260040161174290612434565b60405180910390fd5b8360015f3373ffffffffffffffffffffffffffffffffffffffff1673ffffffffffffffffffffffffffffffffffffffff1681526020019081526020015f205f019081611797919061277c565b508260015f3373ffffffffffffffffffffffffffffffffffffffff1673ffffffffffffffffffffffffffffffffffffffff1681526020019081526020015f2060010190816117e5919061277c565b508160015f3373ffffffffffffffffffffffffffffffffffffffff1673ffffffffffffffffffffffffffffffffffffffff1681526020019081526020015f206002019081611833919061277c565b508060015f3373ffffffffffffffffffffffffffffffffffffffff1673ffffffffffffffffffffffffffffffffffffffff1681526020019081526020015f206003019081611881919061277c565b503373ffffffffffffffffffffffffffffffffffffffff167f78664930cfae4a1eb87c094f2b3013547dbb5e6b7cc7b9f0941766060298e126856040516118c891906128b3565b60405180910390a250505050565b5f6305f5e10082101580156118ef5750633b9ac9ff8211155b61192e576040517f08c379a00000000000000000000000000000000000000000000000000000000081526004016119259061291d565b60405180910390fd5b5f600a8361193c9190612968565b90505f600a8461194c9190612998565b90505f61195882611a51565b90508083149350505050919050565b5f80603c80426119779190612998565b6119819190612968565b90505f603c426119919190612968565b90505f81603c846119a291906129c8565b6119ac9190612a09565b90505f610dd461270f836119c091906129c8565b6119ca9190612998565b90505f6103e861232842336040516020016119e6929190612aa1565b604051602081830303815290604052805190602001205f1c611a089190612968565b611a129190612a09565b90505f611a1f8383611a6e565b90505f611a2b82611a51565b905080600a83611a3b91906129c8565b611a459190612a09565b97505050505050505090565b5f600a611a5d83611b51565b611a679190612968565b9050919050565b5f805f90505f5b6004811015611b46575f600a82600a611a8e9190612bfb565b87611a999190612998565b611aa39190612968565b90505f600a83600a611ab59190612bfb565b87611ac09190612998565b611aca9190612968565b9050600283611ad991906129c8565b600a611ae59190612bfb565b82611af091906129c8565b6001600285611aff91906129c8565b611b099190612a09565b600a611b159190612bfb565b82611b2091906129c8565b611b2a9190612a09565b84611b359190612a09565b935050508080600101915050611a75565b508091505092915050565b5f805f90505b5f831115611b8d57600a83611b6c9190612968565b81611b779190612a09565b9050600a83611b869190612998565b9250611b57565b80915050919050565b508054611ba2906125af565b5f825580601f10611bb35750611bd0565b601f0160209004905f5260205f2090810190611bcf9190611c35565b5b50565b6040518060a00160405280606081526020016060815260200160608152602001606081526020015f81525090565b6040518060c00160405280606081526020016060815260200160608152602001606081526020015f81526020015f81525090565b5b80821115611c4c575f815f905550600101611c36565b5090565b5f604051905090565b5f80fd5b5f80fd5b5f819050919050565b611c7381611c61565b8114611c7d575f80fd5b50565b5f81359050611c8e81611c6a565b92915050565b5f60208284031215611ca957611ca8611c59565b5b5f611cb684828501611c80565b91505092915050565b5f73ffffffffffffffffffffffffffffffffffffffff82169050919050565b5f611ce882611cbf565b9050919050565b611cf881611cde565b82525050565b5f602082019050611d115f830184611cef565b92915050565b611d2081611cde565b8114611d2a575f80fd5b50565b5f81359050611d3b81611d17565b92915050565b5f60208284031215611d5657611d55611c59565b5b5f611d6384828501611d2d565b91505092915050565b5f80fd5b5f80fd5b5f601f19601f8301169050919050565b7f4e487b71000000000000000000000000000000000000000000000000000000005f52604160045260245ffd5b611dba82611d74565b810181811067ffffffffffffffff82111715611dd957611dd8611d84565b5b80604052505050565b5f611deb611c50565b9050611df78282611db1565b919050565b5f67ffffffffffffffff821115611e1657611e15611d84565b5b611e1f82611d74565b9050602081019050919050565b828183375f83830152505050565b5f611e4c611e4784611dfc565b611de2565b905082815260208101848484011115611e6857611e67611d70565b5b611e73848285611e2c565b509392505050565b5f82601f830112611e8f57611e8e611d6c565b5b8135611e9f848260208601611e3a565b91505092915050565b5f805f8060808587031215611ec057611ebf611c59565b5b5f85013567ffffffffffffffff811115611edd57611edc611c5d565b5b611ee987828801611e7b565b945050602085013567ffffffffffffffff811115611f0a57611f09611c5d565b5b611f1687828801611e7b565b935050604085013567ffffffffffffffff811115611f3757611f36611c5d565b5b611f4387828801611e7b565b925050606085013567ffffffffffffffff811115611f6457611f63611c5d565b5b611f7087828801611e7b565b91505092959194509250565b611f8581611c61565b82525050565b5f602082019050611f9e5f830184611f7c565b92915050565b5f81519050919050565b5f82825260208201905092915050565b8281835e5f83830152505050565b5f611fd682611fa4565b611fe08185611fae565b9350611ff0818560208601611fbe565b611ff981611d74565b840191505092915050565b61200d81611c61565b82525050565b5f60a083015f8301518482035f86015261202d8282611fcc565b915050602083015184820360208601526120478282611fcc565b915050604083015184820360408601526120618282611fcc565b9150506060830151848203606086015261207b8282611fcc565b91505060808301516120906080860182612004565b508091505092915050565b5f60c083015f8301518482035f8601526120b58282611fcc565b915050602083015184820360208601526120cf8282611fcc565b915050604083015184820360408601526120e98282611fcc565b915050606083015184820360608601526121038282611fcc565b91505060808301516121186080860182612004565b5060a083015161212b60a0860182612004565b508091505092915050565b5f6040820190508181035f83015261214e8185612013565b90508181036020830152612162818461209b565b90509392505050565b5f805f805f60a0868803121561218457612183611c59565b5b5f61219188828901611d2d565b955050602086013567ffffffffffffffff8111156121b2576121b1611c5d565b5b6121be88828901611e7b565b945050604086013567ffffffffffffffff8111156121df576121de611c5d565b5b6121eb88828901611e7b565b935050606086013567ffffffffffffffff81111561220c5761220b611c5d565b5b61221888828901611e7b565b925050608086013567ffffffffffffffff81111561223957612238611c5d565b5b61224588828901611e7b565b9150509295509295909350565b5f82825260208201905092915050565b5f61226c82611fa4565b6122768185612252565b9350612286818560208601611fbe565b61228f81611d74565b840191505092915050565b5f60c0820190508181035f8301526122b28189612262565b905081810360208301526122c68188612262565b905081810360408301526122da8187612262565b905081810360608301526122ee8186612262565b90506122fd6080830185611f7c565b61230a60a0830184611f7c565b979650505050505050565b5f60a0820190508181035f83015261232d8188612262565b905081810360208301526123418187612262565b905081810360408301526123558186612262565b905081810360608301526123698185612262565b90506123786080830184611f7c565b9695505050505050565b7f4e6f7420617574686f72697a65640000000000000000000000000000000000005f82015250565b5f6123b6600e83612252565b91506123c182612382565b602082019050919050565b5f6020820190508181035f8301526123e3816123aa565b9050919050565b7f4d65726368616e74206e6f7420666f756e6400000000000000000000000000005f82015250565b5f61241e601283612252565b9150612429826123ea565b602082019050919050565b5f6020820190508181035f83015261244b81612412565b9050919050565b7f41637469766520636f6465206e6f7420657869737473000000000000000000005f82015250565b5f612486601683612252565b915061249182612452565b602082019050919050565b5f6020820190508181035f8301526124b38161247a565b9050919050565b7f41637469766520636f6465206e6f7420666f756e6400000000000000000000005f82015250565b5f6124ee601583612252565b91506124f9826124ba565b602082019050919050565b5f6020820190508181035f83015261251b816124e2565b9050919050565b7f4e487b71000000000000000000000000000000000000000000000000000000005f52601160045260245ffd5b5f61255982611c61565b915061256483611c61565b925082820390508181111561257c5761257b612522565b5b92915050565b7f4e487b71000000000000000000000000000000000000000000000000000000005f52602260045260245ffd5b5f60028204905060018216806125c657607f821691505b6020821081036125d9576125d8612582565b5b50919050565b5f819050815f5260205f209050919050565b5f6020601f8301049050919050565b5f82821b905092915050565b5f6008830261263b7fffffffffffffffffffffffffffffffffffffffffffffffffffffffffffffffff82612600565b6126458683612600565b95508019841693508086168417925050509392505050565b5f819050919050565b5f61268061267b61267684611c61565b61265d565b611c61565b9050919050565b5f819050919050565b61269983612666565b6126ad6126a582612687565b84845461260c565b825550505050565b5f90565b6126c16126b5565b6126cc818484612690565b505050565b5b818110156126ef576126e45f826126b9565b6001810190506126d2565b5050565b601f82111561273457612705816125df565b61270e846125f1565b8101602085101561271d578190505b612731612729856125f1565b8301826126d1565b50505b505050565b5f82821c905092915050565b5f6127545f1984600802612739565b1980831691505092915050565b5f61276c8383612745565b9150826002028217905092915050565b61278582611fa4565b67ffffffffffffffff81111561279e5761279d611d84565b5b6127a882546125af565b6127b38282856126f3565b5f60209050601f8311600181146127e4575f84156127d2578287015190505b6127dc8582612761565b865550612843565b601f1984166127f2866125df565b5f5b82811015612819578489015182556001820191506020850194506020810190506127f4565b868310156128365784890151612832601f891682612745565b8355505b6001600288020188555050505b505050505050565b7f4d65726368616e7420616c7265616479206578697374730000000000000000005f82015250565b5f61287f601783612252565b915061288a8261284b565b602082019050919050565b5f6020820190508181035f8301526128ac81612873565b9050919050565b5f6020820190508181035f8301526128cb8184612262565b905092915050565b7f496e76616c69642061637469766174696f6e20636f646520666f726d617400005f82015250565b5f612907601e83612252565b9150612912826128d3565b602082019050919050565b5f6020820190508181035f830152612934816128fb565b9050919050565b7f4e487b71000000000000000000000000000000000000000000000000000000005f52601260045260245ffd5b5f61297282611c61565b915061297d83611c61565b92508261298d5761298c61293b565b5b828206905092915050565b5f6129a282611c61565b91506129ad83611c61565b9250826129bd576129bc61293b565b5b828204905092915050565b5f6129d282611c61565b91506129dd83611c61565b92508282026129eb81611c61565b91508282048414831517612a0257612a01612522565b5b5092915050565b5f612a1382611c61565b9150612a1e83611c61565b9250828201905080821115612a3657612a35612522565b5b92915050565b5f819050919050565b612a56612a5182611c61565b612a3c565b82525050565b5f8160601b9050919050565b5f612a7282612a5c565b9050919050565b5f612a8382612a68565b9050919050565b612a9b612a9682611cde565b612a79565b82525050565b5f612aac8285612a45565b602082019150612abc8284612a8a565b6014820191508190509392505050565b5f8160011c9050919050565b5f808291508390505b6001851115612b2157808604811115612afd57612afc612522565b5b6001851615612b0c5780820291505b8081029050612b1a85612acc565b9450612ae1565b94509492505050565b5f82612b395760019050612bf4565b81612b46575f9050612bf4565b8160018114612b5c5760028114612b6657612b95565b6001915050612bf4565b60ff841115612b7857612b77612522565b5b8360020a915084821115612b8f57612b8e612522565b5b50612bf4565b5060208310610133831016604e8410600b8410161715612bca5782820a905083811115612bc557612bc4612522565b5b612bf4565b612bd78484846001612ad8565b92509050818404811115612bee57612bed612522565b5b81810290505b9392505050565b5f612c0582611c61565b9150612c1083611c61565b9250612c3d7fffffffffffffffffffffffffffffffffffffffffffffffffffffffffffffffff8484612b2a565b90509291505056fea26469706673582212202e1ad2d28d1c059305acb38e12e4bb91f1501b3ae7481737b41ac0cb1472aa9864736f6c634300081a0033",
					"opcodes": "PUSH1 0x80 PUSH1 0x40 MSTORE CALLVALUE DUP1 ISZERO PUSH1 0xE JUMPI PUSH0 DUP1 REVERT JUMPDEST POP CALLER PUSH0 DUP1 PUSH2 0x100 EXP DUP2 SLOAD DUP2 PUSH20 0xFFFFFFFFFFFFFFFFFFFFFFFFFFFFFFFFFFFFFFFF MUL NOT AND SWAP1 DUP4 PUSH20 0xFFFFFFFFFFFFFFFFFFFFFFFFFFFFFFFFFFFFFFFF AND MUL OR SWAP1 SSTORE POP PUSH2 0x2C7B DUP1 PUSH2 0x5B PUSH0 CODECOPY PUSH0 RETURN INVALID PUSH1 0x80 PUSH1 0x40 MSTORE CALLVALUE DUP1 ISZERO PUSH2 0xF JUMPI PUSH0 DUP1 REVERT JUMPDEST POP PUSH1 0x4 CALLDATASIZE LT PUSH2 0xB2 JUMPI PUSH0 CALLDATALOAD PUSH1 0xE0 SHR DUP1 PUSH4 0xCEF33810 GT PUSH2 0x6F JUMPI DUP1 PUSH4 0xCEF33810 EQ PUSH2 0x176 JUMPI DUP1 PUSH4 0xD4DD4B47 EQ PUSH2 0x1A7 JUMPI DUP1 PUSH4 0xE7B4CAC6 EQ PUSH2 0x1C3 JUMPI DUP1 PUSH4 0xEE14E939 EQ PUSH2 0x1F8 JUMPI DUP1 PUSH4 0xEEF814D3 EQ PUSH2 0x22C JUMPI DUP1 PUSH4 0xF4F97658 EQ PUSH2 0x24A JUMPI PUSH2 0xB2 JUMP JUMPDEST DUP1 PUSH4 0xB75C58F EQ PUSH2 0xB6 JUMPI DUP1 PUSH4 0x133ADAB6 EQ PUSH2 0xE6 JUMPI DUP1 PUSH4 0x24E8779F EQ PUSH2 0x102 JUMPI DUP1 PUSH4 0x3AB0639B EQ PUSH2 0x11E JUMPI DUP1 PUSH4 0x8DA5CB5B EQ PUSH2 0x128 JUMPI DUP1 PUSH4 0xCECFE084 EQ PUSH2 0x146 JUMPI JUMPDEST PUSH0 DUP1 REVERT JUMPDEST PUSH2 0xD0 PUSH1 0x4 DUP1 CALLDATASIZE SUB DUP2 ADD SWAP1 PUSH2 0xCB SWAP2 SWAP1 PUSH2 0x1C94 JUMP JUMPDEST PUSH2 0x266 JUMP JUMPDEST PUSH1 0x40 MLOAD PUSH2 0xDD SWAP2 SWAP1 PUSH2 0x1CFE JUMP JUMPDEST PUSH1 0x40 MLOAD DUP1 SWAP2 SUB SWAP1 RETURN JUMPDEST PUSH2 0x100 PUSH1 0x4 DUP1 CALLDATASIZE SUB DUP2 ADD SWAP1 PUSH2 0xFB SWAP2 SWAP1 PUSH2 0x1D41 JUMP JUMPDEST PUSH2 0x296 JUMP JUMPDEST STOP JUMPDEST PUSH2 0x11C PUSH1 0x4 DUP1 CALLDATASIZE SUB DUP2 ADD SWAP1 PUSH2 0x117 SWAP2 SWAP1 PUSH2 0x1C94 JUMP JUMPDEST PUSH2 0x46D JUMP JUMPDEST STOP JUMPDEST PUSH2 0x126 PUSH2 0x665 JUMP JUMPDEST STOP JUMPDEST PUSH2 0x130 PUSH2 0x7D8 JUMP JUMPDEST PUSH1 0x40 MLOAD PUSH2 0x13D SWAP2 SWAP1 PUSH2 0x1CFE JUMP JUMPDEST PUSH1 0x40 MLOAD DUP1 SWAP2 SUB SWAP1 RETURN JUMPDEST PUSH2 0x160 PUSH1 0x4 DUP1 CALLDATASIZE SUB DUP2 ADD SWAP1 PUSH2 0x15B SWAP2 SWAP1 PUSH2 0x1EA8 JUMP JUMPDEST PUSH2 0x7FB JUMP JUMPDEST PUSH1 0x40 MLOAD PUSH2 0x16D SWAP2 SWAP1 PUSH2 0x1F8B JUMP JUMPDEST PUSH1 0x40 MLOAD DUP1 SWAP2 SUB SWAP1 RETURN JUMPDEST PUSH2 0x190 PUSH1 0x4 DUP1 CALLDATASIZE SUB DUP2 ADD SWAP1 PUSH2 0x18B SWAP2 SWAP1 PUSH2 0x1C94 JUMP JUMPDEST PUSH2 0x987 JUMP JUMPDEST PUSH1 0x40 MLOAD PUSH2 0x19E SWAP3 SWAP2 SWAP1 PUSH2 0x2136 JUMP JUMPDEST PUSH1 0x40 MLOAD DUP1 SWAP2 SUB SWAP1 RETURN JUMPDEST PUSH2 0x1C1 PUSH1 0x4 DUP1 CALLDATASIZE SUB DUP2 ADD SWAP1 PUSH2 0x1BC SWAP2 SWAP1 PUSH2 0x216B JUMP JUMPDEST PUSH2 0xFBD JUMP JUMPDEST STOP JUMPDEST PUSH2 0x1DD PUSH1 0x4 DUP1 CALLDATASIZE SUB DUP2 ADD SWAP1 PUSH2 0x1D8 SWAP2 SWAP1 PUSH2 0x1D41 JUMP JUMPDEST PUSH2 0x11E8 JUMP JUMPDEST PUSH1 0x40 MLOAD PUSH2 0x1EF SWAP7 SWAP6 SWAP5 SWAP4 SWAP3 SWAP2 SWAP1 PUSH2 0x229A JUMP JUMPDEST PUSH1 0x40 MLOAD DUP1 SWAP2 SUB SWAP1 RETURN JUMPDEST PUSH2 0x212 PUSH1 0x4 DUP1 CALLDATASIZE SUB DUP2 ADD SWAP1 PUSH2 0x20D SWAP2 SWAP1 PUSH2 0x1D41 JUMP JUMPDEST PUSH2 0x1438 JUMP JUMPDEST PUSH1 0x40 MLOAD PUSH2 0x223 SWAP6 SWAP5 SWAP4 SWAP3 SWAP2 SWAP1 PUSH2 0x2315 JUMP JUMPDEST PUSH1 0x40 MLOAD DUP1 SWAP2 SUB SWAP1 RETURN JUMPDEST PUSH2 0x234 PUSH2 0x1682 JUMP JUMPDEST PUSH1 0x40 MLOAD PUSH2 0x241 SWAP2 SWAP1 PUSH2 0x1F8B JUMP JUMPDEST PUSH1 0x40 MLOAD DUP1 SWAP2 SUB SWAP1 RETURN JUMPDEST PUSH2 0x264 PUSH1 0x4 DUP1 CALLDATASIZE SUB DUP2 ADD SWAP1 PUSH2 0x25F SWAP2 SWAP1 PUSH2 0x1EA8 JUMP JUMPDEST PUSH2 0x16C9 JUMP JUMPDEST STOP JUMPDEST PUSH1 0x3 PUSH1 0x20 MSTORE DUP1 PUSH0 MSTORE PUSH1 0x40 PUSH0 KECCAK256 PUSH0 SWAP2 POP SLOAD SWAP1 PUSH2 0x100 EXP SWAP1 DIV PUSH20 0xFFFFFFFFFFFFFFFFFFFFFFFFFFFFFFFFFFFFFFFF AND DUP2 JUMP JUMPDEST PUSH0 DUP1 SLOAD SWAP1 PUSH2 0x100 EXP SWAP1 DIV PUSH20 0xFFFFFFFFFFFFFFFFFFFFFFFFFFFFFFFFFFFFFFFF AND PUSH20 0xFFFFFFFFFFFFFFFFFFFFFFFFFFFFFFFFFFFFFFFF AND CALLER PUSH20 0xFFFFFFFFFFFFFFFFFFFFFFFFFFFFFFFFFFFFFFFF AND EQ PUSH2 0x323 JUMPI PUSH1 0x40 MLOAD PUSH32 0x8C379A000000000000000000000000000000000000000000000000000000000 DUP2 MSTORE PUSH1 0x4 ADD PUSH2 0x31A SWAP1 PUSH2 0x23CC JUMP JUMPDEST PUSH1 0x40 MLOAD DUP1 SWAP2 SUB SWAP1 REVERT JUMPDEST PUSH0 PUSH1 0x1 PUSH0 DUP4 PUSH20 0xFFFFFFFFFFFFFFFFFFFFFFFFFFFFFFFFFFFFFFFF AND PUSH20 0xFFFFFFFFFFFFFFFFFFFFFFFFFFFFFFFFFFFFFFFF AND DUP2 MSTORE PUSH1 0x20 ADD SWAP1 DUP2 MSTORE PUSH1 0x20 ADD PUSH0 KECCAK256 PUSH1 0x4 ADD SLOAD GT PUSH2 0x3A5 JUMPI PUSH1 0x40 MLOAD PUSH32 0x8C379A000000000000000000000000000000000000000000000000000000000 DUP2 MSTORE PUSH1 0x4 ADD PUSH2 0x39C SWAP1 PUSH2 0x2434 JUMP JUMPDEST PUSH1 0x40 MLOAD DUP1 SWAP2 SUB SWAP1 REVERT JUMPDEST PUSH1 0x1 PUSH0 DUP3 PUSH20 0xFFFFFFFFFFFFFFFFFFFFFFFFFFFFFFFFFFFFFFFF AND PUSH20 0xFFFFFFFFFFFFFFFFFFFFFFFFFFFFFFFFFFFFFFFF AND DUP2 MSTORE PUSH1 0x20 ADD SWAP1 DUP2 MSTORE PUSH1 0x20 ADD PUSH0 KECCAK256 PUSH0 DUP1 DUP3 ADD PUSH0 PUSH2 0x3F1 SWAP2 SWAP1 PUSH2 0x1B96 JUMP JUMPDEST PUSH1 0x1 DUP3 ADD PUSH0 PUSH2 0x400 SWAP2 SWAP1 PUSH2 0x1B96 JUMP JUMPDEST PUSH1 0x2 DUP3 ADD PUSH0 PUSH2 0x40F SWAP2 SWAP1 PUSH2 0x1B96 JUMP JUMPDEST PUSH1 0x3 DUP3 ADD PUSH0 PUSH2 0x41E SWAP2 SWAP1 PUSH2 0x1B96 JUMP JUMPDEST PUSH1 0x4 DUP3 ADD PUSH0 SWAP1 SSTORE POP POP DUP1 PUSH20 0xFFFFFFFFFFFFFFFFFFFFFFFFFFFFFFFFFFFFFFFF AND PUSH32 0xAE4BDF5ADABAFCA6721399496D24FE50FB6564EFFCB386FBAE92DE33540763BC PUSH1 0x40 MLOAD PUSH1 0x40 MLOAD DUP1 SWAP2 SUB SWAP1 LOG2 POP JUMP JUMPDEST PUSH2 0x476 DUP2 PUSH2 0x18D6 JUMP JUMPDEST PUSH2 0x4B5 JUMPI PUSH1 0x40 MLOAD PUSH32 0x8C379A000000000000000000000000000000000000000000000000000000000 DUP2 MSTORE PUSH1 0x4 ADD PUSH2 0x4AC SWAP1 PUSH2 0x249C JUMP JUMPDEST PUSH1 0x40 MLOAD DUP1 SWAP2 SUB SWAP1 REVERT JUMPDEST PUSH0 PUSH1 0x3 PUSH0 DUP4 DUP2 MSTORE PUSH1 0x20 ADD SWAP1 DUP2 MSTORE PUSH1 0x20 ADD PUSH0 KECCAK256 PUSH0 SWAP1 SLOAD SWAP1 PUSH2 0x100 EXP SWAP1 DIV PUSH20 0xFFFFFFFFFFFFFFFFFFFFFFFFFFFFFFFFFFFFFFFF AND SWAP1 POP PUSH0 PUSH20 0xFFFFFFFFFFFFFFFFFFFFFFFFFFFFFFFFFFFFFFFF AND DUP2 PUSH20 0xFFFFFFFFFFFFFFFFFFFFFFFFFFFFFFFFFFFFFFFF AND SUB PUSH2 0x557 JUMPI PUSH1 0x40 MLOAD PUSH32 0x8C379A000000000000000000000000000000000000000000000000000000000 DUP2 MSTORE PUSH1 0x4 ADD PUSH2 0x54E SWAP1 PUSH2 0x2504 JUMP JUMPDEST PUSH1 0x40 MLOAD DUP1 SWAP2 SUB SWAP1 REVERT JUMPDEST PUSH1 0x2 PUSH0 DUP3 PUSH20 0xFFFFFFFFFFFFFFFFFFFFFFFFFFFFFFFFFFFFFFFF AND PUSH20 0xFFFFFFFFFFFFFFFFFFFFFFFFFFFFFFFFFFFFFFFF AND DUP2 MSTORE PUSH1 0x20 ADD SWAP1 DUP2 MSTORE PUSH1 0x20 ADD PUSH0 KECCAK256 PUSH0 DUP1 DUP3 ADD PUSH0 PUSH2 0x5A3 SWAP2 SWAP1 PUSH2 0x1B96 JUMP JUMPDEST PUSH1 0x1 DUP3 ADD PUSH0 PUSH2 0x5B2 SWAP2 SWAP1 PUSH2 0x1B96 JUMP JUMPDEST PUSH1 0x2 DUP3 ADD PUSH0 PUSH2 0x5C1 SWAP2 SWAP1 PUSH2 0x1B96 JUMP JUMPDEST PUSH1 0x3 DUP3 ADD PUSH0 PUSH2 0x5D0 SWAP2 SWAP1 PUSH2 0x1B96 JUMP JUMPDEST PUSH1 0x4 DUP3 ADD PUSH0 SWAP1 SSTORE PUSH1 0x5 DUP3 ADD PUSH0 SWAP1 SSTORE POP POP PUSH1 0x3 PUSH0 DUP4 DUP2 MSTORE PUSH1 0x20 ADD SWAP1 DUP2 MSTORE PUSH1 0x20 ADD PUSH0 KECCAK256 PUSH0 PUSH2 0x100 EXP DUP2 SLOAD SWAP1 PUSH20 0xFFFFFFFFFFFFFFFFFFFFFFFFFFFFFFFFFFFFFFFF MUL NOT AND SWAP1 SSTORE DUP1 PUSH20 0xFFFFFFFFFFFFFFFFFFFFFFFFFFFFFFFFFFFFFFFF AND PUSH32 0xE9F653AB6DBFCCFBF599E332A5CF4AA24C7D943D1FA32B4607A0ECC6063B3C04 DUP4 PUSH1 0x40 MLOAD PUSH2 0x659 SWAP2 SWAP1 PUSH2 0x1F8B JUMP JUMPDEST PUSH1 0x40 MLOAD DUP1 SWAP2 SUB SWAP1 LOG2 POP POP JUMP JUMPDEST PUSH0 DUP1 SLOAD SWAP1 PUSH2 0x100 EXP SWAP1 DIV PUSH20 0xFFFFFFFFFFFFFFFFFFFFFFFFFFFFFFFFFFFFFFFF AND PUSH20 0xFFFFFFFFFFFFFFFFFFFFFFFFFFFFFFFFFFFFFFFF AND CALLER PUSH20 0xFFFFFFFFFFFFFFFFFFFFFFFFFFFFFFFFFFFFFFFF AND EQ PUSH2 0x6F2 JUMPI PUSH1 0x40 MLOAD PUSH32 0x8C379A000000000000000000000000000000000000000000000000000000000 DUP2 MSTORE PUSH1 0x4 ADD PUSH2 0x6E9 SWAP1 PUSH2 0x23CC JUMP JUMPDEST PUSH1 0x40 MLOAD DUP1 SWAP2 SUB SWAP1 REVERT JUMPDEST PUSH0 CALLER SWAP1 POP PUSH2 0x384 PUSH1 0x2 PUSH0 DUP4 PUSH20 0xFFFFFFFFFFFFFFFFFFFFFFFFFFFFFFFFFFFFFFFF AND PUSH20 0xFFFFFFFFFFFFFFFFFFFFFFFFFFFFFFFFFFFFFFFF AND DUP2 MSTORE PUSH1 0x20 ADD SWAP1 DUP2 MSTORE PUSH1 0x20 ADD PUSH0 KECCAK256 PUSH1 0x5 ADD SLOAD TIMESTAMP PUSH2 0x745 SWAP2 SWAP1 PUSH2 0x254F JUMP JUMPDEST GT ISZERO PUSH2 0x7D5 JUMPI PUSH1 0x2 PUSH0 DUP3 PUSH20 0xFFFFFFFFFFFFFFFFFFFFFFFFFFFFFFFFFFFFFFFF AND PUSH20 0xFFFFFFFFFFFFFFFFFFFFFFFFFFFFFFFFFFFFFFFF AND DUP2 MSTORE PUSH1 0x20 ADD SWAP1 DUP2 MSTORE PUSH1 0x20 ADD PUSH0 KECCAK256 PUSH0 DUP1 DUP3 ADD PUSH0 PUSH2 0x797 SWAP2 SWAP1 PUSH2 0x1B96 JUMP JUMPDEST PUSH1 0x1 DUP3 ADD PUSH0 PUSH2 0x7A6 SWAP2 SWAP1 PUSH2 0x1B96 JUMP JUMPDEST PUSH1 0x2 DUP3 ADD PUSH0 PUSH2 0x7B5 SWAP2 SWAP1 PUSH2 0x1B96 JUMP JUMPDEST PUSH1 0x3 DUP3 ADD PUSH0 PUSH2 0x7C4 SWAP2 SWAP1 PUSH2 0x1B96 JUMP JUMPDEST PUSH1 0x4 DUP3 ADD PUSH0 SWAP1 SSTORE PUSH1 0x5 DUP3 ADD PUSH0 SWAP1 SSTORE POP POP JUMPDEST POP JUMP JUMPDEST PUSH0 DUP1 SLOAD SWAP1 PUSH2 0x100 EXP SWAP1 DIV PUSH20 0xFFFFFFFFFFFFFFFFFFFFFFFFFFFFFFFFFFFFFFFF AND DUP2 JUMP JUMPDEST PUSH0 DUP1 PUSH2 0x805 PUSH2 0x1967 JUMP JUMPDEST SWAP1 POP PUSH1 0x40 MLOAD DUP1 PUSH1 0xC0 ADD PUSH1 0x40 MSTORE DUP1 DUP8 DUP2 MSTORE PUSH1 0x20 ADD DUP7 DUP2 MSTORE PUSH1 0x20 ADD DUP6 DUP2 MSTORE PUSH1 0x20 ADD DUP5 DUP2 MSTORE PUSH1 0x20 ADD DUP3 DUP2 MSTORE PUSH1 0x20 ADD TIMESTAMP DUP2 MSTORE POP PUSH1 0x2 PUSH0 CALLER PUSH20 0xFFFFFFFFFFFFFFFFFFFFFFFFFFFFFFFFFFFFFFFF AND PUSH20 0xFFFFFFFFFFFFFFFFFFFFFFFFFFFFFFFFFFFFFFFF AND DUP2 MSTORE PUSH1 0x20 ADD SWAP1 DUP2 MSTORE PUSH1 0x20 ADD PUSH0 KECCAK256 PUSH0 DUP3 ADD MLOAD DUP2 PUSH0 ADD SWAP1 DUP2 PUSH2 0x884 SWAP2 SWAP1 PUSH2 0x277C JUMP JUMPDEST POP PUSH1 0x20 DUP3 ADD MLOAD DUP2 PUSH1 0x1 ADD SWAP1 DUP2 PUSH2 0x89A SWAP2 SWAP1 PUSH2 0x277C JUMP JUMPDEST POP PUSH1 0x40 DUP3 ADD MLOAD DUP2 PUSH1 0x2 ADD SWAP1 DUP2 PUSH2 0x8B0 SWAP2 SWAP1 PUSH2 0x277C JUMP JUMPDEST POP PUSH1 0x60 DUP3 ADD MLOAD DUP2 PUSH1 0x3 ADD SWAP1 DUP2 PUSH2 0x8C6 SWAP2 SWAP1 PUSH2 0x277C JUMP JUMPDEST POP PUSH1 0x80 DUP3 ADD MLOAD DUP2 PUSH1 0x4 ADD SSTORE PUSH1 0xA0 DUP3 ADD MLOAD DUP2 PUSH1 0x5 ADD SSTORE SWAP1 POP POP CALLER PUSH1 0x3 PUSH0 DUP4 DUP2 MSTORE PUSH1 0x20 ADD SWAP1 DUP2 MSTORE PUSH1 0x20 ADD PUSH0 KECCAK256 PUSH0 PUSH2 0x100 EXP DUP2 SLOAD DUP2 PUSH20 0xFFFFFFFFFFFFFFFFFFFFFFFFFFFFFFFFFFFFFFFF MUL NOT AND SWAP1 DUP4 PUSH20 0xFFFFFFFFFFFFFFFFFFFFFFFFFFFFFFFFFFFFFFFF AND MUL OR SWAP1 SSTORE POP CALLER PUSH20 0xFFFFFFFFFFFFFFFFFFFFFFFFFFFFFFFFFFFFFFFF AND PUSH32 0xEC66EAC7CC2B6555E1742961A9EE17E918D7FF81B635FAC9CC6833245D279D6 DUP3 PUSH1 0x40 MLOAD PUSH2 0x973 SWAP2 SWAP1 PUSH2 0x1F8B JUMP JUMPDEST PUSH1 0x40 MLOAD DUP1 SWAP2 SUB SWAP1 LOG2 DUP1 SWAP2 POP POP SWAP5 SWAP4 POP POP POP POP JUMP JUMPDEST PUSH2 0x98F PUSH2 0x1BD3 JUMP JUMPDEST PUSH2 0x997 PUSH2 0x1C01 JUMP JUMPDEST PUSH2 0x9A0 DUP4 PUSH2 0x18D6 JUMP JUMPDEST PUSH2 0x9DF JUMPI PUSH1 0x40 MLOAD PUSH32 0x8C379A000000000000000000000000000000000000000000000000000000000 DUP2 MSTORE PUSH1 0x4 ADD PUSH2 0x9D6 SWAP1 PUSH2 0x249C JUMP JUMPDEST PUSH1 0x40 MLOAD DUP1 SWAP2 SUB SWAP1 REVERT JUMPDEST PUSH0 PUSH1 0x3 PUSH0 DUP6 DUP2 MSTORE PUSH1 0x20 ADD SWAP1 DUP2 MSTORE PUSH1 0x20 ADD PUSH0 KECCAK256 PUSH0 SWAP1 SLOAD SWAP1 PUSH2 0x100 EXP SWAP1 DIV PUSH20 0xFFFFFFFFFFFFFFFFFFFFFFFFFFFFFFFFFFFFFFFF AND SWAP1 POP PUSH0 PUSH20 0xFFFFFFFFFFFFFFFFFFFFFFFFFFFFFFFFFFFFFFFF AND DUP2 PUSH20 0xFFFFFFFFFFFFFFFFFFFFFFFFFFFFFFFFFFFFFFFF AND SUB PUSH2 0xA81 JUMPI PUSH1 0x40 MLOAD PUSH32 0x8C379A000000000000000000000000000000000000000000000000000000000 DUP2 MSTORE PUSH1 0x4 ADD PUSH2 0xA78 SWAP1 PUSH2 0x2504 JUMP JUMPDEST PUSH1 0x40 MLOAD DUP1 SWAP2 SUB SWAP1 REVERT JUMPDEST PUSH1 0x1 PUSH0 DUP3 PUSH20 0xFFFFFFFFFFFFFFFFFFFFFFFFFFFFFFFFFFFFFFFF AND PUSH20 0xFFFFFFFFFFFFFFFFFFFFFFFFFFFFFFFFFFFFFFFF AND DUP2 MSTORE PUSH1 0x20 ADD SWAP1 DUP2 MSTORE PUSH1 0x20 ADD PUSH0 KECCAK256 PUSH1 0x2 PUSH0 DUP4 PUSH20 0xFFFFFFFFFFFFFFFFFFFFFFFFFFFFFFFFFFFFFFFF AND PUSH20 0xFFFFFFFFFFFFFFFFFFFFFFFFFFFFFFFFFFFFFFFF AND DUP2 MSTORE PUSH1 0x20 ADD SWAP1 DUP2 MSTORE PUSH1 0x20 ADD PUSH0 KECCAK256 DUP2 PUSH1 0x40 MLOAD DUP1 PUSH1 0xA0 ADD PUSH1 0x40 MSTORE SWAP1 DUP2 PUSH0 DUP3 ADD DUP1 SLOAD PUSH2 0xB16 SWAP1 PUSH2 0x25AF JUMP JUMPDEST DUP1 PUSH1 0x1F ADD PUSH1 0x20 DUP1 SWAP2 DIV MUL PUSH1 0x20 ADD PUSH1 0x40 MLOAD SWAP1 DUP2 ADD PUSH1 0x40 MSTORE DUP1 SWAP3 SWAP2 SWAP1 DUP2 DUP2 MSTORE PUSH1 0x20 ADD DUP3 DUP1 SLOAD PUSH2 0xB42 SWAP1 PUSH2 0x25AF JUMP JUMPDEST DUP1 ISZERO PUSH2 0xB8D JUMPI DUP1 PUSH1 0x1F LT PUSH2 0xB64 JUMPI PUSH2 0x100 DUP1 DUP4 SLOAD DIV MUL DUP4 MSTORE SWAP2 PUSH1 0x20 ADD SWAP2 PUSH2 0xB8D JUMP JUMPDEST DUP3 ADD SWAP2 SWAP1 PUSH0 MSTORE PUSH1 0x20 PUSH0 KECCAK256 SWAP1 JUMPDEST DUP2 SLOAD DUP2 MSTORE SWAP1 PUSH1 0x1 ADD SWAP1 PUSH1 0x20 ADD DUP1 DUP4 GT PUSH2 0xB70 JUMPI DUP3 SWAP1 SUB PUSH1 0x1F AND DUP3 ADD SWAP2 JUMPDEST POP POP POP POP POP DUP2 MSTORE PUSH1 0x20 ADD PUSH1 0x1 DUP3 ADD DUP1 SLOAD PUSH2 0xBA6 SWAP1 PUSH2 0x25AF JUMP JUMPDEST DUP1 PUSH1 0x1F ADD PUSH1 0x20 DUP1 SWAP2 DIV MUL PUSH1 0x20 ADD PUSH1 0x40 MLOAD SWAP1 DUP2 ADD PUSH1 0x40 MSTORE DUP1 SWAP3 SWAP2 SWAP1 DUP2 DUP2 MSTORE PUSH1 0x20 ADD DUP3 DUP1 SLOAD PUSH2 0xBD2 SWAP1 PUSH2 0x25AF JUMP JUMPDEST DUP1 ISZERO PUSH2 0xC1D JUMPI DUP1 PUSH1 0x1F LT PUSH2 0xBF4 JUMPI PUSH2 0x100 DUP1 DUP4 SLOAD DIV MUL DUP4 MSTORE SWAP2 PUSH1 0x20 ADD SWAP2 PUSH2 0xC1D JUMP JUMPDEST DUP3 ADD SWAP2 SWAP1 PUSH0 MSTORE PUSH1 0x20 PUSH0 KECCAK256 SWAP1 JUMPDEST DUP2 SLOAD DUP2 MSTORE SWAP1 PUSH1 0x1 ADD SWAP1 PUSH1 0x20 ADD DUP1 DUP4 GT PUSH2 0xC00 JUMPI DUP3 SWAP1 SUB PUSH1 0x1F AND DUP3 ADD SWAP2 JUMPDEST POP POP POP POP POP DUP2 MSTORE PUSH1 0x20 ADD PUSH1 0x2 DUP3 ADD DUP1 SLOAD PUSH2 0xC36 SWAP1 PUSH2 0x25AF JUMP JUMPDEST DUP1 PUSH1 0x1F ADD PUSH1 0x20 DUP1 SWAP2 DIV MUL PUSH1 0x20 ADD PUSH1 0x40 MLOAD SWAP1 DUP2 ADD PUSH1 0x40 MSTORE DUP1 SWAP3 SWAP2 SWAP1 DUP2 DUP2 MSTORE PUSH1 0x20 ADD DUP3 DUP1 SLOAD PUSH2 0xC62 SWAP1 PUSH2 0x25AF JUMP JUMPDEST DUP1 ISZERO PUSH2 0xCAD JUMPI DUP1 PUSH1 0x1F LT PUSH2 0xC84 JUMPI PUSH2 0x100 DUP1 DUP4 SLOAD DIV MUL DUP4 MSTORE SWAP2 PUSH1 0x20 ADD SWAP2 PUSH2 0xCAD JUMP JUMPDEST DUP3 ADD SWAP2 SWAP1 PUSH0 MSTORE PUSH1 0x20 PUSH0 KECCAK256 SWAP1 JUMPDEST DUP2 SLOAD DUP2 MSTORE SWAP1 PUSH1 0x1 ADD SWAP1 PUSH1 0x20 ADD DUP1 DUP4 GT PUSH2 0xC90 JUMPI DUP3 SWAP1 SUB PUSH1 0x1F AND DUP3 ADD SWAP2 JUMPDEST POP POP POP POP POP DUP2 MSTORE PUSH1 0x20 ADD PUSH1 0x3 DUP3 ADD DUP1 SLOAD PUSH2 0xCC6 SWAP1 PUSH2 0x25AF JUMP JUMPDEST DUP1 PUSH1 0x1F ADD PUSH1 0x20 DUP1 SWAP2 DIV MUL PUSH1 0x20 ADD PUSH1 0x40 MLOAD SWAP1 DUP2 ADD PUSH1 0x40 MSTORE DUP1 SWAP3 SWAP2 SWAP1 DUP2 DUP2 MSTORE PUSH1 0x20 ADD DUP3 DUP1 SLOAD PUSH2 0xCF2 SWAP1 PUSH2 0x25AF JUMP JUMPDEST DUP1 ISZERO PUSH2 0xD3D JUMPI DUP1 PUSH1 0x1F LT PUSH2 0xD14 JUMPI PUSH2 0x100 DUP1 DUP4 SLOAD DIV MUL DUP4 MSTORE SWAP2 PUSH1 0x20 ADD SWAP2 PUSH2 0xD3D JUMP JUMPDEST DUP3 ADD SWAP2 SWAP1 PUSH0 MSTORE PUSH1 0x20 PUSH0 KECCAK256 SWAP1 JUMPDEST DUP2 SLOAD DUP2 MSTORE SWAP1 PUSH1 0x1 ADD SWAP1 PUSH1 0x20 ADD DUP1 DUP4 GT PUSH2 0xD20 JUMPI DUP3 SWAP1 SUB PUSH1 0x1F AND DUP3 ADD SWAP2 JUMPDEST POP POP POP POP POP DUP2 MSTORE PUSH1 0x20 ADD PUSH1 0x4 DUP3 ADD SLOAD DUP2 MSTORE POP POP SWAP2 POP DUP1 PUSH1 0x40 MLOAD DUP1 PUSH1 0xC0 ADD PUSH1 0x40 MSTORE SWAP1 DUP2 PUSH0 DUP3 ADD DUP1 SLOAD PUSH2 0xD6D SWAP1 PUSH2 0x25AF JUMP JUMPDEST DUP1 PUSH1 0x1F ADD PUSH1 0x20 DUP1 SWAP2 DIV MUL PUSH1 0x20 ADD PUSH1 0x40 MLOAD SWAP1 DUP2 ADD PUSH1 0x40 MSTORE DUP1 SWAP3 SWAP2 SWAP1 DUP2 DUP2 MSTORE PUSH1 0x20 ADD DUP3 DUP1 SLOAD PUSH2 0xD99 SWAP1 PUSH2 0x25AF JUMP JUMPDEST DUP1 ISZERO PUSH2 0xDE4 JUMPI DUP1 PUSH1 0x1F LT PUSH2 0xDBB JUMPI PUSH2 0x100 DUP1 DUP4 SLOAD DIV MUL DUP4 MSTORE SWAP2 PUSH1 0x20 ADD SWAP2 PUSH2 0xDE4 JUMP JUMPDEST DUP3 ADD SWAP2 SWAP1 PUSH0 MSTORE PUSH1 0x20 PUSH0 KECCAK256 SWAP1 JUMPDEST DUP2 SLOAD DUP2 MSTORE SWAP1 PUSH1 0x1 ADD SWAP1 PUSH1 0x20 ADD DUP1 DUP4 GT PUSH2 0xDC7 JUMPI DUP3 SWAP1 SUB PUSH1 0x1F AND DUP3 ADD SWAP2 JUMPDEST POP POP POP POP POP DUP2 MSTORE PUSH1 0x20 ADD PUSH1 0x1 DUP3 ADD DUP1 SLOAD PUSH2 0xDFD SWAP1 PUSH2 0x25AF JUMP JUMPDEST DUP1 PUSH1 0x1F ADD PUSH1 0x20 DUP1 SWAP2 DIV MUL PUSH1 0x20 ADD PUSH1 0x40 MLOAD SWAP1 DUP2 ADD PUSH1 0x40 MSTORE DUP1 SWAP3 SWAP2 SWAP1 DUP2 DUP2 MSTORE PUSH1 0x20 ADD DUP3 DUP1 SLOAD PUSH2 0xE29 SWAP1 PUSH2 0x25AF JUMP JUMPDEST DUP1 ISZERO PUSH2 0xE74 JUMPI DUP1 PUSH1 0x1F LT PUSH2 0xE4B JUMPI PUSH2 0x100 DUP1 DUP4 SLOAD DIV MUL DUP4 MSTORE SWAP2 PUSH1 0x20 ADD SWAP2 PUSH2 0xE74 JUMP JUMPDEST DUP3 ADD SWAP2 SWAP1 PUSH0 MSTORE PUSH1 0x20 PUSH0 KECCAK256 SWAP1 JUMPDEST DUP2 SLOAD DUP2 MSTORE SWAP1 PUSH1 0x1 ADD SWAP1 PUSH1 0x20 ADD DUP1 DUP4 GT PUSH2 0xE57 JUMPI DUP3 SWAP1 SUB PUSH1 0x1F AND DUP3 ADD SWAP2 JUMPDEST POP POP POP POP POP DUP2 MSTORE PUSH1 0x20 ADD PUSH1 0x2 DUP3 ADD DUP1 SLOAD PUSH2 0xE8D SWAP1 PUSH2 0x25AF JUMP JUMPDEST DUP1 PUSH1 0x1F ADD PUSH1 0x20 DUP1 SWAP2 DIV MUL PUSH1 0x20 ADD PUSH1 0x40 MLOAD SWAP1 DUP2 ADD PUSH1 0x40 MSTORE DUP1 SWAP3 SWAP2 SWAP1 DUP2 DUP2 MSTORE PUSH1 0x20 ADD DUP3 DUP1 SLOAD PUSH2 0xEB9 SWAP1 PUSH2 0x25AF JUMP JUMPDEST DUP1 ISZERO PUSH2 0xF04 JUMPI DUP1 PUSH1 0x1F LT PUSH2 0xEDB JUMPI PUSH2 0x100 DUP1 DUP4 SLOAD DIV MUL DUP4 MSTORE SWAP2 PUSH1 0x20 ADD SWAP2 PUSH2 0xF04 JUMP JUMPDEST DUP3 ADD SWAP2 SWAP1 PUSH0 MSTORE PUSH1 0x20 PUSH0 KECCAK256 SWAP1 JUMPDEST DUP2 SLOAD DUP2 MSTORE SWAP1 PUSH1 0x1 ADD SWAP1 PUSH1 0x20 ADD DUP1 DUP4 GT PUSH2 0xEE7 JUMPI DUP3 SWAP1 SUB PUSH1 0x1F AND DUP3 ADD SWAP2 JUMPDEST POP POP POP POP POP DUP2 MSTORE PUSH1 0x20 ADD PUSH1 0x3 DUP3 ADD DUP1 SLOAD PUSH2 0xF1D SWAP1 PUSH2 0x25AF JUMP JUMPDEST DUP1 PUSH1 0x1F ADD PUSH1 0x20 DUP1 SWAP2 DIV MUL PUSH1 0x20 ADD PUSH1 0x40 MLOAD SWAP1 DUP2 ADD PUSH1 0x40 MSTORE DUP1 SWAP3 SWAP2 SWAP1 DUP2 DUP2 MSTORE PUSH1 0x20 ADD DUP3 DUP1 SLOAD PUSH2 0xF49 SWAP1 PUSH2 0x25AF JUMP JUMPDEST DUP1 ISZERO PUSH2 0xF94 JUMPI DUP1 PUSH1 0x1F LT PUSH2 0xF6B JUMPI PUSH2 0x100 DUP1 DUP4 SLOAD DIV MUL DUP4 MSTORE SWAP2 PUSH1 0x20 ADD SWAP2 PUSH2 0xF94 JUMP JUMPDEST DUP3 ADD SWAP2 SWAP1 PUSH0 MSTORE PUSH1 0x20 PUSH0 KECCAK256 SWAP1 JUMPDEST DUP2 SLOAD DUP2 MSTORE SWAP1 PUSH1 0x1 ADD SWAP1 PUSH1 0x20 ADD DUP1 DUP4 GT PUSH2 0xF77 JUMPI DUP3 SWAP1 SUB PUSH1 0x1F AND DUP3 ADD SWAP2 JUMPDEST POP POP POP POP POP DUP2 MSTORE PUSH1 0x20 ADD PUSH1 0x4 DUP3 ADD SLOAD DUP2 MSTORE PUSH1 0x20 ADD PUSH1 0x5 DUP3 ADD SLOAD DUP2 MSTORE POP POP SWAP1 POP SWAP3 POP SWAP3 POP POP SWAP2 POP SWAP2 JUMP JUMPDEST PUSH0 DUP1 SLOAD SWAP1 PUSH2 0x100 EXP SWAP1 DIV PUSH20 0xFFFFFFFFFFFFFFFFFFFFFFFFFFFFFFFFFFFFFFFF AND PUSH20 0xFFFFFFFFFFFFFFFFFFFFFFFFFFFFFFFFFFFFFFFF AND CALLER PUSH20 0xFFFFFFFFFFFFFFFFFFFFFFFFFFFFFFFFFFFFFFFF AND EQ PUSH2 0x104A JUMPI PUSH1 0x40 MLOAD PUSH32 0x8C379A000000000000000000000000000000000000000000000000000000000 DUP2 MSTORE PUSH1 0x4 ADD PUSH2 0x1041 SWAP1 PUSH2 0x23CC JUMP JUMPDEST PUSH1 0x40 MLOAD DUP1 SWAP2 SUB SWAP1 REVERT JUMPDEST PUSH0 PUSH1 0x1 PUSH0 DUP8 PUSH20 0xFFFFFFFFFFFFFFFFFFFFFFFFFFFFFFFFFFFFFFFF AND PUSH20 0xFFFFFFFFFFFFFFFFFFFFFFFFFFFFFFFFFFFFFFFF AND DUP2 MSTORE PUSH1 0x20 ADD SWAP1 DUP2 MSTORE PUSH1 0x20 ADD PUSH0 KECCAK256 PUSH1 0x4 ADD SLOAD EQ PUSH2 0x10CC JUMPI PUSH1 0x40 MLOAD PUSH32 0x8C379A000000000000000000000000000000000000000000000000000000000 DUP2 MSTORE PUSH1 0x4 ADD PUSH2 0x10C3 SWAP1 PUSH2 0x2895 JUMP JUMPDEST PUSH1 0x40 MLOAD DUP1 SWAP2 SUB SWAP1 REVERT JUMPDEST PUSH1 0x40 MLOAD DUP1 PUSH1 0xA0 ADD PUSH1 0x40 MSTORE DUP1 DUP6 DUP2 MSTORE PUSH1 0x20 ADD DUP5 DUP2 MSTORE PUSH1 0x20 ADD DUP4 DUP2 MSTORE PUSH1 0x20 ADD DUP3 DUP2 MSTORE PUSH1 0x20 ADD TIMESTAMP DUP2 MSTORE POP PUSH1 0x1 PUSH0 DUP8 PUSH20 0xFFFFFFFFFFFFFFFFFFFFFFFFFFFFFFFFFFFFFFFF AND PUSH20 0xFFFFFFFFFFFFFFFFFFFFFFFFFFFFFFFFFFFFFFFF AND DUP2 MSTORE PUSH1 0x20 ADD SWAP1 DUP2 MSTORE PUSH1 0x20 ADD PUSH0 KECCAK256 PUSH0 DUP3 ADD MLOAD DUP2 PUSH0 ADD SWAP1 DUP2 PUSH2 0x1143 SWAP2 SWAP1 PUSH2 0x277C JUMP JUMPDEST POP PUSH1 0x20 DUP3 ADD MLOAD DUP2 PUSH1 0x1 ADD SWAP1 DUP2 PUSH2 0x1159 SWAP2 SWAP1 PUSH2 0x277C JUMP JUMPDEST POP PUSH1 0x40 DUP3 ADD MLOAD DUP2 PUSH1 0x2 ADD SWAP1 DUP2 PUSH2 0x116F SWAP2 SWAP1 PUSH2 0x277C JUMP JUMPDEST POP PUSH1 0x60 DUP3 ADD MLOAD DUP2 PUSH1 0x3 ADD SWAP1 DUP2 PUSH2 0x1185 SWAP2 SWAP1 PUSH2 0x277C JUMP JUMPDEST POP PUSH1 0x80 DUP3 ADD MLOAD DUP2 PUSH1 0x4 ADD SSTORE SWAP1 POP POP CALLER PUSH20 0xFFFFFFFFFFFFFFFFFFFFFFFFFFFFFFFFFFFFFFFF AND PUSH32 0xEC31B5C87EA82F60C8BC1DD8262F275183D0D7BC8C37CDBBFD74130441818FBC DUP6 PUSH1 0x40 MLOAD PUSH2 0x11D9 SWAP2 SWAP1 PUSH2 0x28B3 JUMP JUMPDEST PUSH1 0x40 MLOAD DUP1 SWAP2 SUB SWAP1 LOG2 POP POP POP POP POP JUMP JUMPDEST PUSH1 0x2 PUSH1 0x20 MSTORE DUP1 PUSH0 MSTORE PUSH1 0x40 PUSH0 KECCAK256 PUSH0 SWAP2 POP SWAP1 POP DUP1 PUSH0 ADD DUP1 SLOAD PUSH2 0x1207 SWAP1 PUSH2 0x25AF JUMP JUMPDEST DUP1 PUSH1 0x1F ADD PUSH1 0x20 DUP1 SWAP2 DIV MUL PUSH1 0x20 ADD PUSH1 0x40 MLOAD SWAP1 DUP2 ADD PUSH1 0x40 MSTORE DUP1 SWAP3 SWAP2 SWAP1 DUP2 DUP2 MSTORE PUSH1 0x20 ADD DUP3 DUP1 SLOAD PUSH2 0x1233 SWAP1 PUSH2 0x25AF JUMP JUMPDEST DUP1 ISZERO PUSH2 0x127E JUMPI DUP1 PUSH1 0x1F LT PUSH2 0x1255 JUMPI PUSH2 0x100 DUP1 DUP4 SLOAD DIV MUL DUP4 MSTORE SWAP2 PUSH1 0x20 ADD SWAP2 PUSH2 0x127E JUMP JUMPDEST DUP3 ADD SWAP2 SWAP1 PUSH0 MSTORE PUSH1 0x20 PUSH0 KECCAK256 SWAP1 JUMPDEST DUP2 SLOAD DUP2 MSTORE SWAP1 PUSH1 0x1 ADD SWAP1 PUSH1 0x20 ADD DUP1 DUP4 GT PUSH2 0x1261 JUMPI DUP3 SWAP1 SUB PUSH1 0x1F AND DUP3 ADD SWAP2 JUMPDEST POP POP POP POP POP SWAP1 DUP1 PUSH1 0x1 ADD DUP1 SLOAD PUSH2 0x1293 SWAP1 PUSH2 0x25AF JUMP JUMPDEST DUP1 PUSH1 0x1F ADD PUSH1 0x20 DUP1 SWAP2 DIV MUL PUSH1 0x20 ADD PUSH1 0x40 MLOAD SWAP1 DUP2 ADD PUSH1 0x40 MSTORE DUP1 SWAP3 SWAP2 SWAP1 DUP2 DUP2 MSTORE PUSH1 0x20 ADD DUP3 DUP1 SLOAD PUSH2 0x12BF SWAP1 PUSH2 0x25AF JUMP JUMPDEST DUP1 ISZERO PUSH2 0x130A JUMPI DUP1 PUSH1 0x1F LT PUSH2 0x12E1 JUMPI PUSH2 0x100 DUP1 DUP4 SLOAD DIV MUL DUP4 MSTORE SWAP2 PUSH1 0x20 ADD SWAP2 PUSH2 0x130A JUMP JUMPDEST DUP3 ADD SWAP2 SWAP1 PUSH0 MSTORE PUSH1 0x20 PUSH0 KECCAK256 SWAP1 JUMPDEST DUP2 SLOAD DUP2 MSTORE SWAP1 PUSH1 0x1 ADD SWAP1 PUSH1 0x20 ADD DUP1 DUP4 GT PUSH2 0x12ED JUMPI DUP3 SWAP1 SUB PUSH1 0x1F AND DUP3 ADD SWAP2 JUMPDEST POP POP POP POP POP SWAP1 DUP1 PUSH1 0x2 ADD DUP1 SLOAD PUSH2 0x131F SWAP1 PUSH2 0x25AF JUMP JUMPDEST DUP1 PUSH1 0x1F ADD PUSH1 0x20 DUP1 SWAP2 DIV MUL PUSH1 0x20 ADD PUSH1 0x40 MLOAD SWAP1 DUP2 ADD PUSH1 0x40 MSTORE DUP1 SWAP3 SWAP2 SWAP1 DUP2 DUP2 MSTORE PUSH1 0x20 ADD DUP3 DUP1 SLOAD PUSH2 0x134B SWAP1 PUSH2 0x25AF JUMP JUMPDEST DUP1 ISZERO PUSH2 0x1396 JUMPI DUP1 PUSH1 0x1F LT PUSH2 0x136D JUMPI PUSH2 0x100 DUP1 DUP4 SLOAD DIV MUL DUP4 MSTORE SWAP2 PUSH1 0x20 ADD SWAP2 PUSH2 0x1396 JUMP JUMPDEST DUP3 ADD SWAP2 SWAP1 PUSH0 MSTORE PUSH1 0x20 PUSH0 KECCAK256 SWAP1 JUMPDEST DUP2 SLOAD DUP2 MSTORE SWAP1 PUSH1 0x1 ADD SWAP1 PUSH1 0x20 ADD DUP1 DUP4 GT PUSH2 0x1379 JUMPI DUP3 SWAP1 SUB PUSH1 0x1F AND DUP3 ADD SWAP2 JUMPDEST POP POP POP POP POP SWAP1 DUP1 PUSH1 0x3 ADD DUP1 SLOAD PUSH2 0x13AB SWAP1 PUSH2 0x25AF JUMP JUMPDEST DUP1 PUSH1 0x1F ADD PUSH1 0x20 DUP1 SWAP2 DIV MUL PUSH1 0x20 ADD PUSH1 0x40 MLOAD SWAP1 DUP2 ADD PUSH1 0x40 MSTORE DUP1 SWAP3 SWAP2 SWAP1 DUP2 DUP2 MSTORE PUSH1 0x20 ADD DUP3 DUP1 SLOAD PUSH2 0x13D7 SWAP1 PUSH2 0x25AF JUMP JUMPDEST DUP1 ISZERO PUSH2 0x1422 JUMPI DUP1 PUSH1 0x1F LT PUSH2 0x13F9 JUMPI PUSH2 0x100 DUP1 DUP4 SLOAD DIV MUL DUP4 MSTORE SWAP2 PUSH1 0x20 ADD SWAP2 PUSH2 0x1422 JUMP JUMPDEST DUP3 ADD SWAP2 SWAP1 PUSH0 MSTORE PUSH1 0x20 PUSH0 KECCAK256 SWAP1 JUMPDEST DUP2 SLOAD DUP2 MSTORE SWAP1 PUSH1 0x1 ADD SWAP1 PUSH1 0x20 ADD DUP1 DUP4 GT PUSH2 0x1405 JUMPI DUP3 SWAP1 SUB PUSH1 0x1F AND DUP3 ADD SWAP2 JUMPDEST POP POP POP POP POP SWAP1 DUP1 PUSH1 0x4 ADD SLOAD SWAP1 DUP1 PUSH1 0x5 ADD SLOAD SWAP1 POP DUP7 JUMP JUMPDEST PUSH1 0x1 PUSH1 0x20 MSTORE DUP1 PUSH0 MSTORE PUSH1 0x40 PUSH0 KECCAK256 PUSH0 SWAP2 POP SWAP1 POP DUP1 PUSH0 ADD DUP1 SLOAD PUSH2 0x1457 SWAP1 PUSH2 0x25AF JUMP JUMPDEST DUP1 PUSH1 0x1F ADD PUSH1 0x20 DUP1 SWAP2 DIV MUL PUSH1 0x20 ADD PUSH1 0x40 MLOAD SWAP1 DUP2 ADD PUSH1 0x40 MSTORE DUP1 SWAP3 SWAP2 SWAP1 DUP2 DUP2 MSTORE PUSH1 0x20 ADD DUP3 DUP1 SLOAD PUSH2 0x1483 SWAP1 PUSH2 0x25AF JUMP JUMPDEST DUP1 ISZERO PUSH2 0x14CE JUMPI DUP1 PUSH1 0x1F LT PUSH2 0x14A5 JUMPI PUSH2 0x100 DUP1 DUP4 SLOAD DIV MUL DUP4 MSTORE SWAP2 PUSH1 0x20 ADD SWAP2 PUSH2 0x14CE JUMP JUMPDEST DUP3 ADD SWAP2 SWAP1 PUSH0 MSTORE PUSH1 0x20 PUSH0 KECCAK256 SWAP1 JUMPDEST DUP2 SLOAD DUP2 MSTORE SWAP1 PUSH1 0x1 ADD SWAP1 PUSH1 0x20 ADD DUP1 DUP4 GT PUSH2 0x14B1 JUMPI DUP3 SWAP1 SUB PUSH1 0x1F AND DUP3 ADD SWAP2 JUMPDEST POP POP POP POP POP SWAP1 DUP1 PUSH1 0x1 ADD DUP1 SLOAD PUSH2 0x14E3 SWAP1 PUSH2 0x25AF JUMP JUMPDEST DUP1 PUSH1 0x1F ADD PUSH1 0x20 DUP1 SWAP2 DIV MUL PUSH1 0x20 ADD PUSH1 0x40 MLOAD SWAP1 DUP2 ADD PUSH1 0x40 MSTORE DUP1 SWAP3 SWAP2 SWAP1 DUP2 DUP2 MSTORE PUSH1 0x20 ADD DUP3 DUP1 SLOAD PUSH2 0x150F SWAP1 PUSH2 0x25AF JUMP JUMPDEST DUP1 ISZERO PUSH2 0x155A JUMPI DUP1 PUSH1 0x1F LT PUSH2 0x1531 JUMPI PUSH2 0x100 DUP1 DUP4 SLOAD DIV MUL DUP4 MSTORE SWAP2 PUSH1 0x20 ADD SWAP2 PUSH2 0x155A JUMP JUMPDEST DUP3 ADD SWAP2 SWAP1 PUSH0 MSTORE PUSH1 0x20 PUSH0 KECCAK256 SWAP1 JUMPDEST DUP2 SLOAD DUP2 MSTORE SWAP1 PUSH1 0x1 ADD SWAP1 PUSH1 0x20 ADD DUP1 DUP4 GT PUSH2 0x153D JUMPI DUP3 SWAP1 SUB PUSH1 0x1F AND DUP3 ADD SWAP2 JUMPDEST POP POP POP POP POP SWAP1 DUP1 PUSH1 0x2 ADD DUP1 SLOAD PUSH2 0x156F SWAP1 PUSH2 0x25AF JUMP JUMPDEST DUP1 PUSH1 0x1F ADD PUSH1 0x20 DUP1 SWAP2 DIV MUL PUSH1 0x20 ADD PUSH1 0x40 MLOAD SWAP1 DUP2 ADD PUSH1 0x40 MSTORE DUP1 SWAP3 SWAP2 SWAP1 DUP2 DUP2 MSTORE PUSH1 0x20 ADD DUP3 DUP1 SLOAD PUSH2 0x159B SWAP1 PUSH2 0x25AF JUMP JUMPDEST DUP1 ISZERO PUSH2 0x15E6 JUMPI DUP1 PUSH1 0x1F LT PUSH2 0x15BD JUMPI PUSH2 0x100 DUP1 DUP4 SLOAD DIV MUL DUP4 MSTORE SWAP2 PUSH1 0x20 ADD SWAP2 PUSH2 0x15E6 JUMP JUMPDEST DUP3 ADD SWAP2 SWAP1 PUSH0 MSTORE PUSH1 0x20 PUSH0 KECCAK256 SWAP1 JUMPDEST DUP2 SLOAD DUP2 MSTORE SWAP1 PUSH1 0x1 ADD SWAP1 PUSH1 0x20 ADD DUP1 DUP4 GT PUSH2 0x15C9 JUMPI DUP3 SWAP1 SUB PUSH1 0x1F AND DUP3 ADD SWAP2 JUMPDEST POP POP POP POP POP SWAP1 DUP1 PUSH1 0x3 ADD DUP1 SLOAD PUSH2 0x15FB SWAP1 PUSH2 0x25AF JUMP JUMPDEST DUP1 PUSH1 0x1F ADD PUSH1 0x20 DUP1 SWAP2 DIV MUL PUSH1 0x20 ADD PUSH1 0x40 MLOAD SWAP1 DUP2 ADD PUSH1 0x40 MSTORE DUP1 SWAP3 SWAP2 SWAP1 DUP2 DUP2 MSTORE PUSH1 0x20 ADD DUP3 DUP1 SLOAD PUSH2 0x1627 SWAP1 PUSH2 0x25AF JUMP JUMPDEST DUP1 ISZERO PUSH2 0x1672 JUMPI DUP1 PUSH1 0x1F LT PUSH2 0x1649 JUMPI PUSH2 0x100 DUP1 DUP4 SLOAD DIV MUL DUP4 MSTORE SWAP2 PUSH1 0x20 ADD SWAP2 PUSH2 0x1672 JUMP JUMPDEST DUP3 ADD SWAP2 SWAP1 PUSH0 MSTORE PUSH1 0x20 PUSH0 KECCAK256 SWAP1 JUMPDEST DUP2 SLOAD DUP2 MSTORE SWAP1 PUSH1 0x1 ADD SWAP1 PUSH1 0x20 ADD DUP1 DUP4 GT PUSH2 0x1655 JUMPI DUP3 SWAP1 SUB PUSH1 0x1F AND DUP3 ADD SWAP2 JUMPDEST POP POP POP POP POP SWAP1 DUP1 PUSH1 0x4 ADD SLOAD SWAP1 POP DUP6 JUMP JUMPDEST PUSH0 PUSH1 0x2 PUSH0 CALLER PUSH20 0xFFFFFFFFFFFFFFFFFFFFFFFFFFFFFFFFFFFFFFFF AND PUSH20 0xFFFFFFFFFFFFFFFFFFFFFFFFFFFFFFFFFFFFFFFF AND DUP2 MSTORE PUSH1 0x20 ADD SWAP1 DUP2 MSTORE PUSH1 0x20 ADD PUSH0 KECCAK256 PUSH1 0x4 ADD SLOAD SWAP1 POP SWAP1 JUMP JUMPDEST PUSH0 PUSH1 0x1 PUSH0 CALLER PUSH20 0xFFFFFFFFFFFFFFFFFFFFFFFFFFFFFFFFFFFFFFFF AND PUSH20 0xFFFFFFFFFFFFFFFFFFFFFFFFFFFFFFFFFFFFFFFF AND DUP2 MSTORE PUSH1 0x20 ADD SWAP1 DUP2 MSTORE PUSH1 0x20 ADD PUSH0 KECCAK256 PUSH1 0x4 ADD SLOAD GT PUSH2 0x174B JUMPI PUSH1 0x40 MLOAD PUSH32 0x8C379A000000000000000000000000000000000000000000000000000000000 DUP2 MSTORE PUSH1 0x4 ADD PUSH2 0x1742 SWAP1 PUSH2 0x2434 JUMP JUMPDEST PUSH1 0x40 MLOAD DUP1 SWAP2 SUB SWAP1 REVERT JUMPDEST DUP4 PUSH1 0x1 PUSH0 CALLER PUSH20 0xFFFFFFFFFFFFFFFFFFFFFFFFFFFFFFFFFFFFFFFF AND PUSH20 0xFFFFFFFFFFFFFFFFFFFFFFFFFFFFFFFFFFFFFFFF AND DUP2 MSTORE PUSH1 0x20 ADD SWAP1 DUP2 MSTORE PUSH1 0x20 ADD PUSH0 KECCAK256 PUSH0 ADD SWAP1 DUP2 PUSH2 0x1797 SWAP2 SWAP1 PUSH2 0x277C JUMP JUMPDEST POP DUP3 PUSH1 0x1 PUSH0 CALLER PUSH20 0xFFFFFFFFFFFFFFFFFFFFFFFFFFFFFFFFFFFFFFFF AND PUSH20 0xFFFFFFFFFFFFFFFFFFFFFFFFFFFFFFFFFFFFFFFF AND DUP2 MSTORE PUSH1 0x20 ADD SWAP1 DUP2 MSTORE PUSH1 0x20 ADD PUSH0 KECCAK256 PUSH1 0x1 ADD SWAP1 DUP2 PUSH2 0x17E5 SWAP2 SWAP1 PUSH2 0x277C JUMP JUMPDEST POP DUP2 PUSH1 0x1 PUSH0 CALLER PUSH20 0xFFFFFFFFFFFFFFFFFFFFFFFFFFFFFFFFFFFFFFFF AND PUSH20 0xFFFFFFFFFFFFFFFFFFFFFFFFFFFFFFFFFFFFFFFF AND DUP2 MSTORE PUSH1 0x20 ADD SWAP1 DUP2 MSTORE PUSH1 0x20 ADD PUSH0 KECCAK256 PUSH1 0x2 ADD SWAP1 DUP2 PUSH2 0x1833 SWAP2 SWAP1 PUSH2 0x277C JUMP JUMPDEST POP DUP1 PUSH1 0x1 PUSH0 CALLER PUSH20 0xFFFFFFFFFFFFFFFFFFFFFFFFFFFFFFFFFFFFFFFF AND PUSH20 0xFFFFFFFFFFFFFFFFFFFFFFFFFFFFFFFFFFFFFFFF AND DUP2 MSTORE PUSH1 0x20 ADD SWAP1 DUP2 MSTORE PUSH1 0x20 ADD PUSH0 KECCAK256 PUSH1 0x3 ADD SWAP1 DUP2 PUSH2 0x1881 SWAP2 SWAP1 PUSH2 0x277C JUMP JUMPDEST POP CALLER PUSH20 0xFFFFFFFFFFFFFFFFFFFFFFFFFFFFFFFFFFFFFFFF AND PUSH32 0x78664930CFAE4A1EB87C094F2B3013547DBB5E6B7CC7B9F0941766060298E126 DUP6 PUSH1 0x40 MLOAD PUSH2 0x18C8 SWAP2 SWAP1 PUSH2 0x28B3 JUMP JUMPDEST PUSH1 0x40 MLOAD DUP1 SWAP2 SUB SWAP1 LOG2 POP POP POP POP JUMP JUMPDEST PUSH0 PUSH4 0x5F5E100 DUP3 LT ISZERO DUP1 ISZERO PUSH2 0x18EF JUMPI POP PUSH4 0x3B9AC9FF DUP3 GT ISZERO JUMPDEST PUSH2 0x192E JUMPI PUSH1 0x40 MLOAD PUSH32 0x8C379A000000000000000000000000000000000000000000000000000000000 DUP2 MSTORE PUSH1 0x4 ADD PUSH2 0x1925 SWAP1 PUSH2 0x291D JUMP JUMPDEST PUSH1 0x40 MLOAD DUP1 SWAP2 SUB SWAP1 REVERT JUMPDEST PUSH0 PUSH1 0xA DUP4 PUSH2 0x193C SWAP2 SWAP1 PUSH2 0x2968 JUMP JUMPDEST SWAP1 POP PUSH0 PUSH1 0xA DUP5 PUSH2 0x194C SWAP2 SWAP1 PUSH2 0x2998 JUMP JUMPDEST SWAP1 POP PUSH0 PUSH2 0x1958 DUP3 PUSH2 0x1A51 JUMP JUMPDEST SWAP1 POP DUP1 DUP4 EQ SWAP4 POP POP POP POP SWAP2 SWAP1 POP JUMP JUMPDEST PUSH0 DUP1 PUSH1 0x3C DUP1 TIMESTAMP PUSH2 0x1977 SWAP2 SWAP1 PUSH2 0x2998 JUMP JUMPDEST PUSH2 0x1981 SWAP2 SWAP1 PUSH2 0x2968 JUMP JUMPDEST SWAP1 POP PUSH0 PUSH1 0x3C TIMESTAMP PUSH2 0x1991 SWAP2 SWAP1 PUSH2 0x2968 JUMP JUMPDEST SWAP1 POP PUSH0 DUP2 PUSH1 0x3C DUP5 PUSH2 0x19A2 SWAP2 SWAP1 PUSH2 0x29C8 JUMP JUMPDEST PUSH2 0x19AC SWAP2 SWAP1 PUSH2 0x2A09 JUMP JUMPDEST SWAP1 POP PUSH0 PUSH2 0xDD4 PUSH2 0x270F DUP4 PUSH2 0x19C0 SWAP2 SWAP1 PUSH2 0x29C8 JUMP JUMPDEST PUSH2 0x19CA SWAP2 SWAP1 PUSH2 0x2998 JUMP JUMPDEST SWAP1 POP PUSH0 PUSH2 0x3E8 PUSH2 0x2328 TIMESTAMP CALLER PUSH1 0x40 MLOAD PUSH1 0x20 ADD PUSH2 0x19E6 SWAP3 SWAP2 SWAP1 PUSH2 0x2AA1 JUMP JUMPDEST PUSH1 0x40 MLOAD PUSH1 0x20 DUP2 DUP4 SUB SUB DUP2 MSTORE SWAP1 PUSH1 0x40 MSTORE DUP1 MLOAD SWAP1 PUSH1 0x20 ADD KECCAK256 PUSH0 SHR PUSH2 0x1A08 SWAP2 SWAP1 PUSH2 0x2968 JUMP JUMPDEST PUSH2 0x1A12 SWAP2 SWAP1 PUSH2 0x2A09 JUMP JUMPDEST SWAP1 POP PUSH0 PUSH2 0x1A1F DUP4 DUP4 PUSH2 0x1A6E JUMP JUMPDEST SWAP1 POP PUSH0 PUSH2 0x1A2B DUP3 PUSH2 0x1A51 JUMP JUMPDEST SWAP1 POP DUP1 PUSH1 0xA DUP4 PUSH2 0x1A3B SWAP2 SWAP1 PUSH2 0x29C8 JUMP JUMPDEST PUSH2 0x1A45 SWAP2 SWAP1 PUSH2 0x2A09 JUMP JUMPDEST SWAP8 POP POP POP POP POP POP POP POP SWAP1 JUMP JUMPDEST PUSH0 PUSH1 0xA PUSH2 0x1A5D DUP4 PUSH2 0x1B51 JUMP JUMPDEST PUSH2 0x1A67 SWAP2 SWAP1 PUSH2 0x2968 JUMP JUMPDEST SWAP1 POP SWAP2 SWAP1 POP JUMP JUMPDEST PUSH0 DUP1 PUSH0 SWAP1 POP PUSH0 JUMPDEST PUSH1 0x4 DUP2 LT ISZERO PUSH2 0x1B46 JUMPI PUSH0 PUSH1 0xA DUP3 PUSH1 0xA PUSH2 0x1A8E SWAP2 SWAP1 PUSH2 0x2BFB JUMP JUMPDEST DUP8 PUSH2 0x1A99 SWAP2 SWAP1 PUSH2 0x2998 JUMP JUMPDEST PUSH2 0x1AA3 SWAP2 SWAP1 PUSH2 0x2968 JUMP JUMPDEST SWAP1 POP PUSH0 PUSH1 0xA DUP4 PUSH1 0xA PUSH2 0x1AB5 SWAP2 SWAP1 PUSH2 0x2BFB JUMP JUMPDEST DUP8 PUSH2 0x1AC0 SWAP2 SWAP1 PUSH2 0x2998 JUMP JUMPDEST PUSH2 0x1ACA SWAP2 SWAP1 PUSH2 0x2968 JUMP JUMPDEST SWAP1 POP PUSH1 0x2 DUP4 PUSH2 0x1AD9 SWAP2 SWAP1 PUSH2 0x29C8 JUMP JUMPDEST PUSH1 0xA PUSH2 0x1AE5 SWAP2 SWAP1 PUSH2 0x2BFB JUMP JUMPDEST DUP3 PUSH2 0x1AF0 SWAP2 SWAP1 PUSH2 0x29C8 JUMP JUMPDEST PUSH1 0x1 PUSH1 0x2 DUP6 PUSH2 0x1AFF SWAP2 SWAP1 PUSH2 0x29C8 JUMP JUMPDEST PUSH2 0x1B09 SWAP2 SWAP1 PUSH2 0x2A09 JUMP JUMPDEST PUSH1 0xA PUSH2 0x1B15 SWAP2 SWAP1 PUSH2 0x2BFB JUMP JUMPDEST DUP3 PUSH2 0x1B20 SWAP2 SWAP1 PUSH2 0x29C8 JUMP JUMPDEST PUSH2 0x1B2A SWAP2 SWAP1 PUSH2 0x2A09 JUMP JUMPDEST DUP5 PUSH2 0x1B35 SWAP2 SWAP1 PUSH2 0x2A09 JUMP JUMPDEST SWAP4 POP POP POP DUP1 DUP1 PUSH1 0x1 ADD SWAP2 POP POP PUSH2 0x1A75 JUMP JUMPDEST POP DUP1 SWAP2 POP POP SWAP3 SWAP2 POP POP JUMP JUMPDEST PUSH0 DUP1 PUSH0 SWAP1 POP JUMPDEST PUSH0 DUP4 GT ISZERO PUSH2 0x1B8D JUMPI PUSH1 0xA DUP4 PUSH2 0x1B6C SWAP2 SWAP1 PUSH2 0x2968 JUMP JUMPDEST DUP2 PUSH2 0x1B77 SWAP2 SWAP1 PUSH2 0x2A09 JUMP JUMPDEST SWAP1 POP PUSH1 0xA DUP4 PUSH2 0x1B86 SWAP2 SWAP1 PUSH2 0x2998 JUMP JUMPDEST SWAP3 POP PUSH2 0x1B57 JUMP JUMPDEST DUP1 SWAP2 POP POP SWAP2 SWAP1 POP JUMP JUMPDEST POP DUP1 SLOAD PUSH2 0x1BA2 SWAP1 PUSH2 0x25AF JUMP JUMPDEST PUSH0 DUP3 SSTORE DUP1 PUSH1 0x1F LT PUSH2 0x1BB3 JUMPI POP PUSH2 0x1BD0 JUMP JUMPDEST PUSH1 0x1F ADD PUSH1 0x20 SWAP1 DIV SWAP1 PUSH0 MSTORE PUSH1 0x20 PUSH0 KECCAK256 SWAP1 DUP2 ADD SWAP1 PUSH2 0x1BCF SWAP2 SWAP1 PUSH2 0x1C35 JUMP JUMPDEST JUMPDEST POP JUMP JUMPDEST PUSH1 0x40 MLOAD DUP1 PUSH1 0xA0 ADD PUSH1 0x40 MSTORE DUP1 PUSH1 0x60 DUP2 MSTORE PUSH1 0x20 ADD PUSH1 0x60 DUP2 MSTORE PUSH1 0x20 ADD PUSH1 0x60 DUP2 MSTORE PUSH1 0x20 ADD PUSH1 0x60 DUP2 MSTORE PUSH1 0x20 ADD PUSH0 DUP2 MSTORE POP SWAP1 JUMP JUMPDEST PUSH1 0x40 MLOAD DUP1 PUSH1 0xC0 ADD PUSH1 0x40 MSTORE DUP1 PUSH1 0x60 DUP2 MSTORE PUSH1 0x20 ADD PUSH1 0x60 DUP2 MSTORE PUSH1 0x20 ADD PUSH1 0x60 DUP2 MSTORE PUSH1 0x20 ADD PUSH1 0x60 DUP2 MSTORE PUSH1 0x20 ADD PUSH0 DUP2 MSTORE PUSH1 0x20 ADD PUSH0 DUP2 MSTORE POP SWAP1 JUMP JUMPDEST JUMPDEST DUP1 DUP3 GT ISZERO PUSH2 0x1C4C JUMPI PUSH0 DUP2 PUSH0 SWAP1 SSTORE POP PUSH1 0x1 ADD PUSH2 0x1C36 JUMP JUMPDEST POP SWAP1 JUMP JUMPDEST PUSH0 PUSH1 0x40 MLOAD SWAP1 POP SWAP1 JUMP JUMPDEST PUSH0 DUP1 REVERT JUMPDEST PUSH0 DUP1 REVERT JUMPDEST PUSH0 DUP2 SWAP1 POP SWAP2 SWAP1 POP JUMP JUMPDEST PUSH2 0x1C73 DUP2 PUSH2 0x1C61 JUMP JUMPDEST DUP2 EQ PUSH2 0x1C7D JUMPI PUSH0 DUP1 REVERT JUMPDEST POP JUMP JUMPDEST PUSH0 DUP2 CALLDATALOAD SWAP1 POP PUSH2 0x1C8E DUP2 PUSH2 0x1C6A JUMP JUMPDEST SWAP3 SWAP2 POP POP JUMP JUMPDEST PUSH0 PUSH1 0x20 DUP3 DUP5 SUB SLT ISZERO PUSH2 0x1CA9 JUMPI PUSH2 0x1CA8 PUSH2 0x1C59 JUMP JUMPDEST JUMPDEST PUSH0 PUSH2 0x1CB6 DUP5 DUP3 DUP6 ADD PUSH2 0x1C80 JUMP JUMPDEST SWAP2 POP POP SWAP3 SWAP2 POP POP JUMP JUMPDEST PUSH0 PUSH20 0xFFFFFFFFFFFFFFFFFFFFFFFFFFFFFFFFFFFFFFFF DUP3 AND SWAP1 POP SWAP2 SWAP1 POP JUMP JUMPDEST PUSH0 PUSH2 0x1CE8 DUP3 PUSH2 0x1CBF JUMP JUMPDEST SWAP1 POP SWAP2 SWAP1 POP JUMP JUMPDEST PUSH2 0x1CF8 DUP2 PUSH2 0x1CDE JUMP JUMPDEST DUP3 MSTORE POP POP JUMP JUMPDEST PUSH0 PUSH1 0x20 DUP3 ADD SWAP1 POP PUSH2 0x1D11 PUSH0 DUP4 ADD DUP5 PUSH2 0x1CEF JUMP JUMPDEST SWAP3 SWAP2 POP POP JUMP JUMPDEST PUSH2 0x1D20 DUP2 PUSH2 0x1CDE JUMP JUMPDEST DUP2 EQ PUSH2 0x1D2A JUMPI PUSH0 DUP1 REVERT JUMPDEST POP JUMP JUMPDEST PUSH0 DUP2 CALLDATALOAD SWAP1 POP PUSH2 0x1D3B DUP2 PUSH2 0x1D17 JUMP JUMPDEST SWAP3 SWAP2 POP POP JUMP JUMPDEST PUSH0 PUSH1 0x20 DUP3 DUP5 SUB SLT ISZERO PUSH2 0x1D56 JUMPI PUSH2 0x1D55 PUSH2 0x1C59 JUMP JUMPDEST JUMPDEST PUSH0 PUSH2 0x1D63 DUP5 DUP3 DUP6 ADD PUSH2 0x1D2D JUMP JUMPDEST SWAP2 POP POP SWAP3 SWAP2 POP POP JUMP JUMPDEST PUSH0 DUP1 REVERT JUMPDEST PUSH0 DUP1 REVERT JUMPDEST PUSH0 PUSH1 0x1F NOT PUSH1 0x1F DUP4 ADD AND SWAP1 POP SWAP2 SWAP1 POP JUMP JUMPDEST PUSH32 0x4E487B7100000000000000000000000000000000000000000000000000000000 PUSH0 MSTORE PUSH1 0x41 PUSH1 0x4 MSTORE PUSH1 0x24 PUSH0 REVERT JUMPDEST PUSH2 0x1DBA DUP3 PUSH2 0x1D74 JUMP JUMPDEST DUP2 ADD DUP2 DUP2 LT PUSH8 0xFFFFFFFFFFFFFFFF DUP3 GT OR ISZERO PUSH2 0x1DD9 JUMPI PUSH2 0x1DD8 PUSH2 0x1D84 JUMP JUMPDEST JUMPDEST DUP1 PUSH1 0x40 MSTORE POP POP POP JUMP JUMPDEST PUSH0 PUSH2 0x1DEB PUSH2 0x1C50 JUMP JUMPDEST SWAP1 POP PUSH2 0x1DF7 DUP3 DUP3 PUSH2 0x1DB1 JUMP JUMPDEST SWAP2 SWAP1 POP JUMP JUMPDEST PUSH0 PUSH8 0xFFFFFFFFFFFFFFFF DUP3 GT ISZERO PUSH2 0x1E16 JUMPI PUSH2 0x1E15 PUSH2 0x1D84 JUMP JUMPDEST JUMPDEST PUSH2 0x1E1F DUP3 PUSH2 0x1D74 JUMP JUMPDEST SWAP1 POP PUSH1 0x20 DUP2 ADD SWAP1 POP SWAP2 SWAP1 POP JUMP JUMPDEST DUP3 DUP2 DUP4 CALLDATACOPY PUSH0 DUP4 DUP4 ADD MSTORE POP POP POP JUMP JUMPDEST PUSH0 PUSH2 0x1E4C PUSH2 0x1E47 DUP5 PUSH2 0x1DFC JUMP JUMPDEST PUSH2 0x1DE2 JUMP JUMPDEST SWAP1 POP DUP3 DUP2 MSTORE PUSH1 0x20 DUP2 ADD DUP5 DUP5 DUP5 ADD GT ISZERO PUSH2 0x1E68 JUMPI PUSH2 0x1E67 PUSH2 0x1D70 JUMP JUMPDEST JUMPDEST PUSH2 0x1E73 DUP5 DUP3 DUP6 PUSH2 0x1E2C JUMP JUMPDEST POP SWAP4 SWAP3 POP POP POP JUMP JUMPDEST PUSH0 DUP3 PUSH1 0x1F DUP4 ADD SLT PUSH2 0x1E8F JUMPI PUSH2 0x1E8E PUSH2 0x1D6C JUMP JUMPDEST JUMPDEST DUP2 CALLDATALOAD PUSH2 0x1E9F DUP5 DUP3 PUSH1 0x20 DUP7 ADD PUSH2 0x1E3A JUMP JUMPDEST SWAP2 POP POP SWAP3 SWAP2 POP POP JUMP JUMPDEST PUSH0 DUP1 PUSH0 DUP1 PUSH1 0x80 DUP6 DUP8 SUB SLT ISZERO PUSH2 0x1EC0 JUMPI PUSH2 0x1EBF PUSH2 0x1C59 JUMP JUMPDEST JUMPDEST PUSH0 DUP6 ADD CALLDATALOAD PUSH8 0xFFFFFFFFFFFFFFFF DUP2 GT ISZERO PUSH2 0x1EDD JUMPI PUSH2 0x1EDC PUSH2 0x1C5D JUMP JUMPDEST JUMPDEST PUSH2 0x1EE9 DUP8 DUP3 DUP9 ADD PUSH2 0x1E7B JUMP JUMPDEST SWAP5 POP POP PUSH1 0x20 DUP6 ADD CALLDATALOAD PUSH8 0xFFFFFFFFFFFFFFFF DUP2 GT ISZERO PUSH2 0x1F0A JUMPI PUSH2 0x1F09 PUSH2 0x1C5D JUMP JUMPDEST JUMPDEST PUSH2 0x1F16 DUP8 DUP3 DUP9 ADD PUSH2 0x1E7B JUMP JUMPDEST SWAP4 POP POP PUSH1 0x40 DUP6 ADD CALLDATALOAD PUSH8 0xFFFFFFFFFFFFFFFF DUP2 GT ISZERO PUSH2 0x1F37 JUMPI PUSH2 0x1F36 PUSH2 0x1C5D JUMP JUMPDEST JUMPDEST PUSH2 0x1F43 DUP8 DUP3 DUP9 ADD PUSH2 0x1E7B JUMP JUMPDEST SWAP3 POP POP PUSH1 0x60 DUP6 ADD CALLDATALOAD PUSH8 0xFFFFFFFFFFFFFFFF DUP2 GT ISZERO PUSH2 0x1F64 JUMPI PUSH2 0x1F63 PUSH2 0x1C5D JUMP JUMPDEST JUMPDEST PUSH2 0x1F70 DUP8 DUP3 DUP9 ADD PUSH2 0x1E7B JUMP JUMPDEST SWAP2 POP POP SWAP3 SWAP6 SWAP2 SWAP5 POP SWAP3 POP JUMP JUMPDEST PUSH2 0x1F85 DUP2 PUSH2 0x1C61 JUMP JUMPDEST DUP3 MSTORE POP POP JUMP JUMPDEST PUSH0 PUSH1 0x20 DUP3 ADD SWAP1 POP PUSH2 0x1F9E PUSH0 DUP4 ADD DUP5 PUSH2 0x1F7C JUMP JUMPDEST SWAP3 SWAP2 POP POP JUMP JUMPDEST PUSH0 DUP2 MLOAD SWAP1 POP SWAP2 SWAP1 POP JUMP JUMPDEST PUSH0 DUP3 DUP3 MSTORE PUSH1 0x20 DUP3 ADD SWAP1 POP SWAP3 SWAP2 POP POP JUMP JUMPDEST DUP3 DUP2 DUP4 MCOPY PUSH0 DUP4 DUP4 ADD MSTORE POP POP POP JUMP JUMPDEST PUSH0 PUSH2 0x1FD6 DUP3 PUSH2 0x1FA4 JUMP JUMPDEST PUSH2 0x1FE0 DUP2 DUP6 PUSH2 0x1FAE JUMP JUMPDEST SWAP4 POP PUSH2 0x1FF0 DUP2 DUP6 PUSH1 0x20 DUP7 ADD PUSH2 0x1FBE JUMP JUMPDEST PUSH2 0x1FF9 DUP2 PUSH2 0x1D74 JUMP JUMPDEST DUP5 ADD SWAP2 POP POP SWAP3 SWAP2 POP POP JUMP JUMPDEST PUSH2 0x200D DUP2 PUSH2 0x1C61 JUMP JUMPDEST DUP3 MSTORE POP POP JUMP JUMPDEST PUSH0 PUSH1 0xA0 DUP4 ADD PUSH0 DUP4 ADD MLOAD DUP5 DUP3 SUB PUSH0 DUP7 ADD MSTORE PUSH2 0x202D DUP3 DUP3 PUSH2 0x1FCC JUMP JUMPDEST SWAP2 POP POP PUSH1 0x20 DUP4 ADD MLOAD DUP5 DUP3 SUB PUSH1 0x20 DUP7 ADD MSTORE PUSH2 0x2047 DUP3 DUP3 PUSH2 0x1FCC JUMP JUMPDEST SWAP2 POP POP PUSH1 0x40 DUP4 ADD MLOAD DUP5 DUP3 SUB PUSH1 0x40 DUP7 ADD MSTORE PUSH2 0x2061 DUP3 DUP3 PUSH2 0x1FCC JUMP JUMPDEST SWAP2 POP POP PUSH1 0x60 DUP4 ADD MLOAD DUP5 DUP3 SUB PUSH1 0x60 DUP7 ADD MSTORE PUSH2 0x207B DUP3 DUP3 PUSH2 0x1FCC JUMP JUMPDEST SWAP2 POP POP PUSH1 0x80 DUP4 ADD MLOAD PUSH2 0x2090 PUSH1 0x80 DUP7 ADD DUP3 PUSH2 0x2004 JUMP JUMPDEST POP DUP1 SWAP2 POP POP SWAP3 SWAP2 POP POP JUMP JUMPDEST PUSH0 PUSH1 0xC0 DUP4 ADD PUSH0 DUP4 ADD MLOAD DUP5 DUP3 SUB PUSH0 DUP7 ADD MSTORE PUSH2 0x20B5 DUP3 DUP3 PUSH2 0x1FCC JUMP JUMPDEST SWAP2 POP POP PUSH1 0x20 DUP4 ADD MLOAD DUP5 DUP3 SUB PUSH1 0x20 DUP7 ADD MSTORE PUSH2 0x20CF DUP3 DUP3 PUSH2 0x1FCC JUMP JUMPDEST SWAP2 POP POP PUSH1 0x40 DUP4 ADD MLOAD DUP5 DUP3 SUB PUSH1 0x40 DUP7 ADD MSTORE PUSH2 0x20E9 DUP3 DUP3 PUSH2 0x1FCC JUMP JUMPDEST SWAP2 POP POP PUSH1 0x60 DUP4 ADD MLOAD DUP5 DUP3 SUB PUSH1 0x60 DUP7 ADD MSTORE PUSH2 0x2103 DUP3 DUP3 PUSH2 0x1FCC JUMP JUMPDEST SWAP2 POP POP PUSH1 0x80 DUP4 ADD MLOAD PUSH2 0x2118 PUSH1 0x80 DUP7 ADD DUP3 PUSH2 0x2004 JUMP JUMPDEST POP PUSH1 0xA0 DUP4 ADD MLOAD PUSH2 0x212B PUSH1 0xA0 DUP7 ADD DUP3 PUSH2 0x2004 JUMP JUMPDEST POP DUP1 SWAP2 POP POP SWAP3 SWAP2 POP POP JUMP JUMPDEST PUSH0 PUSH1 0x40 DUP3 ADD SWAP1 POP DUP2 DUP2 SUB PUSH0 DUP4 ADD MSTORE PUSH2 0x214E DUP2 DUP6 PUSH2 0x2013 JUMP JUMPDEST SWAP1 POP DUP2 DUP2 SUB PUSH1 0x20 DUP4 ADD MSTORE PUSH2 0x2162 DUP2 DUP5 PUSH2 0x209B JUMP JUMPDEST SWAP1 POP SWAP4 SWAP3 POP POP POP JUMP JUMPDEST PUSH0 DUP1 PUSH0 DUP1 PUSH0 PUSH1 0xA0 DUP7 DUP9 SUB SLT ISZERO PUSH2 0x2184 JUMPI PUSH2 0x2183 PUSH2 0x1C59 JUMP JUMPDEST JUMPDEST PUSH0 PUSH2 0x2191 DUP9 DUP3 DUP10 ADD PUSH2 0x1D2D JUMP JUMPDEST SWAP6 POP POP PUSH1 0x20 DUP7 ADD CALLDATALOAD PUSH8 0xFFFFFFFFFFFFFFFF DUP2 GT ISZERO PUSH2 0x21B2 JUMPI PUSH2 0x21B1 PUSH2 0x1C5D JUMP JUMPDEST JUMPDEST PUSH2 0x21BE DUP9 DUP3 DUP10 ADD PUSH2 0x1E7B JUMP JUMPDEST SWAP5 POP POP PUSH1 0x40 DUP7 ADD CALLDATALOAD PUSH8 0xFFFFFFFFFFFFFFFF DUP2 GT ISZERO PUSH2 0x21DF JUMPI PUSH2 0x21DE PUSH2 0x1C5D JUMP JUMPDEST JUMPDEST PUSH2 0x21EB DUP9 DUP3 DUP10 ADD PUSH2 0x1E7B JUMP JUMPDEST SWAP4 POP POP PUSH1 0x60 DUP7 ADD CALLDATALOAD PUSH8 0xFFFFFFFFFFFFFFFF DUP2 GT ISZERO PUSH2 0x220C JUMPI PUSH2 0x220B PUSH2 0x1C5D JUMP JUMPDEST JUMPDEST PUSH2 0x2218 DUP9 DUP3 DUP10 ADD PUSH2 0x1E7B JUMP JUMPDEST SWAP3 POP POP PUSH1 0x80 DUP7 ADD CALLDATALOAD PUSH8 0xFFFFFFFFFFFFFFFF DUP2 GT ISZERO PUSH2 0x2239 JUMPI PUSH2 0x2238 PUSH2 0x1C5D JUMP JUMPDEST JUMPDEST PUSH2 0x2245 DUP9 DUP3 DUP10 ADD PUSH2 0x1E7B JUMP JUMPDEST SWAP2 POP POP SWAP3 SWAP6 POP SWAP3 SWAP6 SWAP1 SWAP4 POP JUMP JUMPDEST PUSH0 DUP3 DUP3 MSTORE PUSH1 0x20 DUP3 ADD SWAP1 POP SWAP3 SWAP2 POP POP JUMP JUMPDEST PUSH0 PUSH2 0x226C DUP3 PUSH2 0x1FA4 JUMP JUMPDEST PUSH2 0x2276 DUP2 DUP6 PUSH2 0x2252 JUMP JUMPDEST SWAP4 POP PUSH2 0x2286 DUP2 DUP6 PUSH1 0x20 DUP7 ADD PUSH2 0x1FBE JUMP JUMPDEST PUSH2 0x228F DUP2 PUSH2 0x1D74 JUMP JUMPDEST DUP5 ADD SWAP2 POP POP SWAP3 SWAP2 POP POP JUMP JUMPDEST PUSH0 PUSH1 0xC0 DUP3 ADD SWAP1 POP DUP2 DUP2 SUB PUSH0 DUP4 ADD MSTORE PUSH2 0x22B2 DUP2 DUP10 PUSH2 0x2262 JUMP JUMPDEST SWAP1 POP DUP2 DUP2 SUB PUSH1 0x20 DUP4 ADD MSTORE PUSH2 0x22C6 DUP2 DUP9 PUSH2 0x2262 JUMP JUMPDEST SWAP1 POP DUP2 DUP2 SUB PUSH1 0x40 DUP4 ADD MSTORE PUSH2 0x22DA DUP2 DUP8 PUSH2 0x2262 JUMP JUMPDEST SWAP1 POP DUP2 DUP2 SUB PUSH1 0x60 DUP4 ADD MSTORE PUSH2 0x22EE DUP2 DUP7 PUSH2 0x2262 JUMP JUMPDEST SWAP1 POP PUSH2 0x22FD PUSH1 0x80 DUP4 ADD DUP6 PUSH2 0x1F7C JUMP JUMPDEST PUSH2 0x230A PUSH1 0xA0 DUP4 ADD DUP5 PUSH2 0x1F7C JUMP JUMPDEST SWAP8 SWAP7 POP POP POP POP POP POP POP JUMP JUMPDEST PUSH0 PUSH1 0xA0 DUP3 ADD SWAP1 POP DUP2 DUP2 SUB PUSH0 DUP4 ADD MSTORE PUSH2 0x232D DUP2 DUP9 PUSH2 0x2262 JUMP JUMPDEST SWAP1 POP DUP2 DUP2 SUB PUSH1 0x20 DUP4 ADD MSTORE PUSH2 0x2341 DUP2 DUP8 PUSH2 0x2262 JUMP JUMPDEST SWAP1 POP DUP2 DUP2 SUB PUSH1 0x40 DUP4 ADD MSTORE PUSH2 0x2355 DUP2 DUP7 PUSH2 0x2262 JUMP JUMPDEST SWAP1 POP DUP2 DUP2 SUB PUSH1 0x60 DUP4 ADD MSTORE PUSH2 0x2369 DUP2 DUP6 PUSH2 0x2262 JUMP JUMPDEST SWAP1 POP PUSH2 0x2378 PUSH1 0x80 DUP4 ADD DUP5 PUSH2 0x1F7C JUMP JUMPDEST SWAP7 SWAP6 POP POP POP POP POP POP JUMP JUMPDEST PUSH32 0x4E6F7420617574686F72697A6564000000000000000000000000000000000000 PUSH0 DUP3 ADD MSTORE POP JUMP JUMPDEST PUSH0 PUSH2 0x23B6 PUSH1 0xE DUP4 PUSH2 0x2252 JUMP JUMPDEST SWAP2 POP PUSH2 0x23C1 DUP3 PUSH2 0x2382 JUMP JUMPDEST PUSH1 0x20 DUP3 ADD SWAP1 POP SWAP2 SWAP1 POP JUMP JUMPDEST PUSH0 PUSH1 0x20 DUP3 ADD SWAP1 POP DUP2 DUP2 SUB PUSH0 DUP4 ADD MSTORE PUSH2 0x23E3 DUP2 PUSH2 0x23AA JUMP JUMPDEST SWAP1 POP SWAP2 SWAP1 POP JUMP JUMPDEST PUSH32 0x4D65726368616E74206E6F7420666F756E640000000000000000000000000000 PUSH0 DUP3 ADD MSTORE POP JUMP JUMPDEST PUSH0 PUSH2 0x241E PUSH1 0x12 DUP4 PUSH2 0x2252 JUMP JUMPDEST SWAP2 POP PUSH2 0x2429 DUP3 PUSH2 0x23EA JUMP JUMPDEST PUSH1 0x20 DUP3 ADD SWAP1 POP SWAP2 SWAP1 POP JUMP JUMPDEST PUSH0 PUSH1 0x20 DUP3 ADD SWAP1 POP DUP2 DUP2 SUB PUSH0 DUP4 ADD MSTORE PUSH2 0x244B DUP2 PUSH2 0x2412 JUMP JUMPDEST SWAP1 POP SWAP2 SWAP1 POP JUMP JUMPDEST PUSH32 0x41637469766520636F6465206E6F742065786973747300000000000000000000 PUSH0 DUP3 ADD MSTORE POP JUMP JUMPDEST PUSH0 PUSH2 0x2486 PUSH1 0x16 DUP4 PUSH2 0x2252 JUMP JUMPDEST SWAP2 POP PUSH2 0x2491 DUP3 PUSH2 0x2452 JUMP JUMPDEST PUSH1 0x20 DUP3 ADD SWAP1 POP SWAP2 SWAP1 POP JUMP JUMPDEST PUSH0 PUSH1 0x20 DUP3 ADD SWAP1 POP DUP2 DUP2 SUB PUSH0 DUP4 ADD MSTORE PUSH2 0x24B3 DUP2 PUSH2 0x247A JUMP JUMPDEST SWAP1 POP SWAP2 SWAP1 POP JUMP JUMPDEST PUSH32 0x41637469766520636F6465206E6F7420666F756E640000000000000000000000 PUSH0 DUP3 ADD MSTORE POP JUMP JUMPDEST PUSH0 PUSH2 0x24EE PUSH1 0x15 DUP4 PUSH2 0x2252 JUMP JUMPDEST SWAP2 POP PUSH2 0x24F9 DUP3 PUSH2 0x24BA JUMP JUMPDEST PUSH1 0x20 DUP3 ADD SWAP1 POP SWAP2 SWAP1 POP JUMP JUMPDEST PUSH0 PUSH1 0x20 DUP3 ADD SWAP1 POP DUP2 DUP2 SUB PUSH0 DUP4 ADD MSTORE PUSH2 0x251B DUP2 PUSH2 0x24E2 JUMP JUMPDEST SWAP1 POP SWAP2 SWAP1 POP JUMP JUMPDEST PUSH32 0x4E487B7100000000000000000000000000000000000000000000000000000000 PUSH0 MSTORE PUSH1 0x11 PUSH1 0x4 MSTORE PUSH1 0x24 PUSH0 REVERT JUMPDEST PUSH0 PUSH2 0x2559 DUP3 PUSH2 0x1C61 JUMP JUMPDEST SWAP2 POP PUSH2 0x2564 DUP4 PUSH2 0x1C61 JUMP JUMPDEST SWAP3 POP DUP3 DUP3 SUB SWAP1 POP DUP2 DUP2 GT ISZERO PUSH2 0x257C JUMPI PUSH2 0x257B PUSH2 0x2522 JUMP JUMPDEST JUMPDEST SWAP3 SWAP2 POP POP JUMP JUMPDEST PUSH32 0x4E487B7100000000000000000000000000000000000000000000000000000000 PUSH0 MSTORE PUSH1 0x22 PUSH1 0x4 MSTORE PUSH1 0x24 PUSH0 REVERT JUMPDEST PUSH0 PUSH1 0x2 DUP3 DIV SWAP1 POP PUSH1 0x1 DUP3 AND DUP1 PUSH2 0x25C6 JUMPI PUSH1 0x7F DUP3 AND SWAP2 POP JUMPDEST PUSH1 0x20 DUP3 LT DUP2 SUB PUSH2 0x25D9 JUMPI PUSH2 0x25D8 PUSH2 0x2582 JUMP JUMPDEST JUMPDEST POP SWAP2 SWAP1 POP JUMP JUMPDEST PUSH0 DUP2 SWAP1 POP DUP2 PUSH0 MSTORE PUSH1 0x20 PUSH0 KECCAK256 SWAP1 POP SWAP2 SWAP1 POP JUMP JUMPDEST PUSH0 PUSH1 0x20 PUSH1 0x1F DUP4 ADD DIV SWAP1 POP SWAP2 SWAP1 POP JUMP JUMPDEST PUSH0 DUP3 DUP3 SHL SWAP1 POP SWAP3 SWAP2 POP POP JUMP JUMPDEST PUSH0 PUSH1 0x8 DUP4 MUL PUSH2 0x263B PUSH32 0xFFFFFFFFFFFFFFFFFFFFFFFFFFFFFFFFFFFFFFFFFFFFFFFFFFFFFFFFFFFFFFFF DUP3 PUSH2 0x2600 JUMP JUMPDEST PUSH2 0x2645 DUP7 DUP4 PUSH2 0x2600 JUMP JUMPDEST SWAP6 POP DUP1 NOT DUP5 AND SWAP4 POP DUP1 DUP7 AND DUP5 OR SWAP3 POP POP POP SWAP4 SWAP3 POP POP POP JUMP JUMPDEST PUSH0 DUP2 SWAP1 POP SWAP2 SWAP1 POP JUMP JUMPDEST PUSH0 PUSH2 0x2680 PUSH2 0x267B PUSH2 0x2676 DUP5 PUSH2 0x1C61 JUMP JUMPDEST PUSH2 0x265D JUMP JUMPDEST PUSH2 0x1C61 JUMP JUMPDEST SWAP1 POP SWAP2 SWAP1 POP JUMP JUMPDEST PUSH0 DUP2 SWAP1 POP SWAP2 SWAP1 POP JUMP JUMPDEST PUSH2 0x2699 DUP4 PUSH2 0x2666 JUMP JUMPDEST PUSH2 0x26AD PUSH2 0x26A5 DUP3 PUSH2 0x2687 JUMP JUMPDEST DUP5 DUP5 SLOAD PUSH2 0x260C JUMP JUMPDEST DUP3 SSTORE POP POP POP POP JUMP JUMPDEST PUSH0 SWAP1 JUMP JUMPDEST PUSH2 0x26C1 PUSH2 0x26B5 JUMP JUMPDEST PUSH2 0x26CC DUP2 DUP5 DUP5 PUSH2 0x2690 JUMP JUMPDEST POP POP POP JUMP JUMPDEST JUMPDEST DUP2 DUP2 LT ISZERO PUSH2 0x26EF JUMPI PUSH2 0x26E4 PUSH0 DUP3 PUSH2 0x26B9 JUMP JUMPDEST PUSH1 0x1 DUP2 ADD SWAP1 POP PUSH2 0x26D2 JUMP JUMPDEST POP POP JUMP JUMPDEST PUSH1 0x1F DUP3 GT ISZERO PUSH2 0x2734 JUMPI PUSH2 0x2705 DUP2 PUSH2 0x25DF JUMP JUMPDEST PUSH2 0x270E DUP5 PUSH2 0x25F1 JUMP JUMPDEST DUP2 ADD PUSH1 0x20 DUP6 LT ISZERO PUSH2 0x271D JUMPI DUP2 SWAP1 POP JUMPDEST PUSH2 0x2731 PUSH2 0x2729 DUP6 PUSH2 0x25F1 JUMP JUMPDEST DUP4 ADD DUP3 PUSH2 0x26D1 JUMP JUMPDEST POP POP JUMPDEST POP POP POP JUMP JUMPDEST PUSH0 DUP3 DUP3 SHR SWAP1 POP SWAP3 SWAP2 POP POP JUMP JUMPDEST PUSH0 PUSH2 0x2754 PUSH0 NOT DUP5 PUSH1 0x8 MUL PUSH2 0x2739 JUMP JUMPDEST NOT DUP1 DUP4 AND SWAP2 POP POP SWAP3 SWAP2 POP POP JUMP JUMPDEST PUSH0 PUSH2 0x276C DUP4 DUP4 PUSH2 0x2745 JUMP JUMPDEST SWAP2 POP DUP3 PUSH1 0x2 MUL DUP3 OR SWAP1 POP SWAP3 SWAP2 POP POP JUMP JUMPDEST PUSH2 0x2785 DUP3 PUSH2 0x1FA4 JUMP JUMPDEST PUSH8 0xFFFFFFFFFFFFFFFF DUP2 GT ISZERO PUSH2 0x279E JUMPI PUSH2 0x279D PUSH2 0x1D84 JUMP JUMPDEST JUMPDEST PUSH2 0x27A8 DUP3 SLOAD PUSH2 0x25AF JUMP JUMPDEST PUSH2 0x27B3 DUP3 DUP3 DUP6 PUSH2 0x26F3 JUMP JUMPDEST PUSH0 PUSH1 0x20 SWAP1 POP PUSH1 0x1F DUP4 GT PUSH1 0x1 DUP2 EQ PUSH2 0x27E4 JUMPI PUSH0 DUP5 ISZERO PUSH2 0x27D2 JUMPI DUP3 DUP8 ADD MLOAD SWAP1 POP JUMPDEST PUSH2 0x27DC DUP6 DUP3 PUSH2 0x2761 JUMP JUMPDEST DUP7 SSTORE POP PUSH2 0x2843 JUMP JUMPDEST PUSH1 0x1F NOT DUP5 AND PUSH2 0x27F2 DUP7 PUSH2 0x25DF JUMP JUMPDEST PUSH0 JUMPDEST DUP3 DUP2 LT ISZERO PUSH2 0x2819 JUMPI DUP5 DUP10 ADD MLOAD DUP3 SSTORE PUSH1 0x1 DUP3 ADD SWAP2 POP PUSH1 0x20 DUP6 ADD SWAP5 POP PUSH1 0x20 DUP2 ADD SWAP1 POP PUSH2 0x27F4 JUMP JUMPDEST DUP7 DUP4 LT ISZERO PUSH2 0x2836 JUMPI DUP5 DUP10 ADD MLOAD PUSH2 0x2832 PUSH1 0x1F DUP10 AND DUP3 PUSH2 0x2745 JUMP JUMPDEST DUP4 SSTORE POP JUMPDEST PUSH1 0x1 PUSH1 0x2 DUP9 MUL ADD DUP9 SSTORE POP POP POP JUMPDEST POP POP POP POP POP POP JUMP JUMPDEST PUSH32 0x4D65726368616E7420616C726561647920657869737473000000000000000000 PUSH0 DUP3 ADD MSTORE POP JUMP JUMPDEST PUSH0 PUSH2 0x287F PUSH1 0x17 DUP4 PUSH2 0x2252 JUMP JUMPDEST SWAP2 POP PUSH2 0x288A DUP3 PUSH2 0x284B JUMP JUMPDEST PUSH1 0x20 DUP3 ADD SWAP1 POP SWAP2 SWAP1 POP JUMP JUMPDEST PUSH0 PUSH1 0x20 DUP3 ADD SWAP1 POP DUP2 DUP2 SUB PUSH0 DUP4 ADD MSTORE PUSH2 0x28AC DUP2 PUSH2 0x2873 JUMP JUMPDEST SWAP1 POP SWAP2 SWAP1 POP JUMP JUMPDEST PUSH0 PUSH1 0x20 DUP3 ADD SWAP1 POP DUP2 DUP2 SUB PUSH0 DUP4 ADD MSTORE PUSH2 0x28CB DUP2 DUP5 PUSH2 0x2262 JUMP JUMPDEST SWAP1 POP SWAP3 SWAP2 POP POP JUMP JUMPDEST PUSH32 0x496E76616C69642061637469766174696F6E20636F646520666F726D61740000 PUSH0 DUP3 ADD MSTORE POP JUMP JUMPDEST PUSH0 PUSH2 0x2907 PUSH1 0x1E DUP4 PUSH2 0x2252 JUMP JUMPDEST SWAP2 POP PUSH2 0x2912 DUP3 PUSH2 0x28D3 JUMP JUMPDEST PUSH1 0x20 DUP3 ADD SWAP1 POP SWAP2 SWAP1 POP JUMP JUMPDEST PUSH0 PUSH1 0x20 DUP3 ADD SWAP1 POP DUP2 DUP2 SUB PUSH0 DUP4 ADD MSTORE PUSH2 0x2934 DUP2 PUSH2 0x28FB JUMP JUMPDEST SWAP1 POP SWAP2 SWAP1 POP JUMP JUMPDEST PUSH32 0x4E487B7100000000000000000000000000000000000000000000000000000000 PUSH0 MSTORE PUSH1 0x12 PUSH1 0x4 MSTORE PUSH1 0x24 PUSH0 REVERT JUMPDEST PUSH0 PUSH2 0x2972 DUP3 PUSH2 0x1C61 JUMP JUMPDEST SWAP2 POP PUSH2 0x297D DUP4 PUSH2 0x1C61 JUMP JUMPDEST SWAP3 POP DUP3 PUSH2 0x298D JUMPI PUSH2 0x298C PUSH2 0x293B JUMP JUMPDEST JUMPDEST DUP3 DUP3 MOD SWAP1 POP SWAP3 SWAP2 POP POP JUMP JUMPDEST PUSH0 PUSH2 0x29A2 DUP3 PUSH2 0x1C61 JUMP JUMPDEST SWAP2 POP PUSH2 0x29AD DUP4 PUSH2 0x1C61 JUMP JUMPDEST SWAP3 POP DUP3 PUSH2 0x29BD JUMPI PUSH2 0x29BC PUSH2 0x293B JUMP JUMPDEST JUMPDEST DUP3 DUP3 DIV SWAP1 POP SWAP3 SWAP2 POP POP JUMP JUMPDEST PUSH0 PUSH2 0x29D2 DUP3 PUSH2 0x1C61 JUMP JUMPDEST SWAP2 POP PUSH2 0x29DD DUP4 PUSH2 0x1C61 JUMP JUMPDEST SWAP3 POP DUP3 DUP3 MUL PUSH2 0x29EB DUP2 PUSH2 0x1C61 JUMP JUMPDEST SWAP2 POP DUP3 DUP3 DIV DUP5 EQ DUP4 ISZERO OR PUSH2 0x2A02 JUMPI PUSH2 0x2A01 PUSH2 0x2522 JUMP JUMPDEST JUMPDEST POP SWAP3 SWAP2 POP POP JUMP JUMPDEST PUSH0 PUSH2 0x2A13 DUP3 PUSH2 0x1C61 JUMP JUMPDEST SWAP2 POP PUSH2 0x2A1E DUP4 PUSH2 0x1C61 JUMP JUMPDEST SWAP3 POP DUP3 DUP3 ADD SWAP1 POP DUP1 DUP3 GT ISZERO PUSH2 0x2A36 JUMPI PUSH2 0x2A35 PUSH2 0x2522 JUMP JUMPDEST JUMPDEST SWAP3 SWAP2 POP POP JUMP JUMPDEST PUSH0 DUP2 SWAP1 POP SWAP2 SWAP1 POP JUMP JUMPDEST PUSH2 0x2A56 PUSH2 0x2A51 DUP3 PUSH2 0x1C61 JUMP JUMPDEST PUSH2 0x2A3C JUMP JUMPDEST DUP3 MSTORE POP POP JUMP JUMPDEST PUSH0 DUP2 PUSH1 0x60 SHL SWAP1 POP SWAP2 SWAP1 POP JUMP JUMPDEST PUSH0 PUSH2 0x2A72 DUP3 PUSH2 0x2A5C JUMP JUMPDEST SWAP1 POP SWAP2 SWAP1 POP JUMP JUMPDEST PUSH0 PUSH2 0x2A83 DUP3 PUSH2 0x2A68 JUMP JUMPDEST SWAP1 POP SWAP2 SWAP1 POP JUMP JUMPDEST PUSH2 0x2A9B PUSH2 0x2A96 DUP3 PUSH2 0x1CDE JUMP JUMPDEST PUSH2 0x2A79 JUMP JUMPDEST DUP3 MSTORE POP POP JUMP JUMPDEST PUSH0 PUSH2 0x2AAC DUP3 DUP6 PUSH2 0x2A45 JUMP JUMPDEST PUSH1 0x20 DUP3 ADD SWAP2 POP PUSH2 0x2ABC DUP3 DUP5 PUSH2 0x2A8A JUMP JUMPDEST PUSH1 0x14 DUP3 ADD SWAP2 POP DUP2 SWAP1 POP SWAP4 SWAP3 POP POP POP JUMP JUMPDEST PUSH0 DUP2 PUSH1 0x1 SHR SWAP1 POP SWAP2 SWAP1 POP JUMP JUMPDEST PUSH0 DUP1 DUP3 SWAP2 POP DUP4 SWAP1 POP JUMPDEST PUSH1 0x1 DUP6 GT ISZERO PUSH2 0x2B21 JUMPI DUP1 DUP7 DIV DUP2 GT ISZERO PUSH2 0x2AFD JUMPI PUSH2 0x2AFC PUSH2 0x2522 JUMP JUMPDEST JUMPDEST PUSH1 0x1 DUP6 AND ISZERO PUSH2 0x2B0C JUMPI DUP1 DUP3 MUL SWAP2 POP JUMPDEST DUP1 DUP2 MUL SWAP1 POP PUSH2 0x2B1A DUP6 PUSH2 0x2ACC JUMP JUMPDEST SWAP5 POP PUSH2 0x2AE1 JUMP JUMPDEST SWAP5 POP SWAP5 SWAP3 POP POP POP JUMP JUMPDEST PUSH0 DUP3 PUSH2 0x2B39 JUMPI PUSH1 0x1 SWAP1 POP PUSH2 0x2BF4 JUMP JUMPDEST DUP2 PUSH2 0x2B46 JUMPI PUSH0 SWAP1 POP PUSH2 0x2BF4 JUMP JUMPDEST DUP2 PUSH1 0x1 DUP2 EQ PUSH2 0x2B5C JUMPI PUSH1 0x2 DUP2 EQ PUSH2 0x2B66 JUMPI PUSH2 0x2B95 JUMP JUMPDEST PUSH1 0x1 SWAP2 POP POP PUSH2 0x2BF4 JUMP JUMPDEST PUSH1 0xFF DUP5 GT ISZERO PUSH2 0x2B78 JUMPI PUSH2 0x2B77 PUSH2 0x2522 JUMP JUMPDEST JUMPDEST DUP4 PUSH1 0x2 EXP SWAP2 POP DUP5 DUP3 GT ISZERO PUSH2 0x2B8F JUMPI PUSH2 0x2B8E PUSH2 0x2522 JUMP JUMPDEST JUMPDEST POP PUSH2 0x2BF4 JUMP JUMPDEST POP PUSH1 0x20 DUP4 LT PUSH2 0x133 DUP4 LT AND PUSH1 0x4E DUP5 LT PUSH1 0xB DUP5 LT AND OR ISZERO PUSH2 0x2BCA JUMPI DUP3 DUP3 EXP SWAP1 POP DUP4 DUP2 GT ISZERO PUSH2 0x2BC5 JUMPI PUSH2 0x2BC4 PUSH2 0x2522 JUMP JUMPDEST JUMPDEST PUSH2 0x2BF4 JUMP JUMPDEST PUSH2 0x2BD7 DUP5 DUP5 DUP5 PUSH1 0x1 PUSH2 0x2AD8 JUMP JUMPDEST SWAP3 POP SWAP1 POP DUP2 DUP5 DIV DUP2 GT ISZERO PUSH2 0x2BEE JUMPI PUSH2 0x2BED PUSH2 0x2522 JUMP JUMPDEST JUMPDEST DUP2 DUP2 MUL SWAP1 POP JUMPDEST SWAP4 SWAP3 POP POP POP JUMP JUMPDEST PUSH0 PUSH2 0x2C05 DUP3 PUSH2 0x1C61 JUMP JUMPDEST SWAP2 POP PUSH2 0x2C10 DUP4 PUSH2 0x1C61 JUMP JUMPDEST SWAP3 POP PUSH2 0x2C3D PUSH32 0xFFFFFFFFFFFFFFFFFFFFFFFFFFFFFFFFFFFFFFFFFFFFFFFFFFFFFFFFFFFFFFFF DUP5 DUP5 PUSH2 0x2B2A JUMP JUMPDEST SWAP1 POP SWAP3 SWAP2 POP POP JUMP INVALID LOG2 PUSH5 0x6970667358 0x22 SLT KECCAK256 0x2E BYTE 0xD2 0xD2 DUP14 SHR SDIV SWAP4 SDIV 0xAC 0xB3 DUP15 SLT 0xE4 0xBB SWAP2 CALL POP SHL GASPRICE 0xE7 BASEFEE OR CALLDATACOPY 0xB4 BYTE 0xC0 0xCB EQ PUSH19 0xAA9864736F6C634300081A0033000000000000 "
				},
				"gasEstimates": {
					"creation": {
						"codeDepositCost": "2277400",
						"executionCost": "26697",
						"totalCost": "2304097"
					},
					"external": {
						"activeCodeToDevice(uint256)": "2828",
						"addMerchant(address,string,string,string,string)": "infinite",
						"devices(address)": "infinite",
						"getActiveCodeInfo(uint256)": "infinite",
						"getRegisterDevice()": "2613",
						"merchants(address)": "infinite",
						"owner()": "2594",
						"registerDevice(string,string,string,string)": "infinite",
						"removeExpiredData()": "infinite",
						"removeMerchant(address)": "infinite",
						"updateMerchant(string,string,string,string)": "infinite",
						"useActiveCodeInfo(uint256)": "infinite"
					}
				},
				"methodIdentifiers": {
					"activeCodeToDevice(uint256)": "0b75c58f",
					"addMerchant(address,string,string,string,string)": "d4dd4b47",
					"devices(address)": "e7b4cac6",
					"getActiveCodeInfo(uint256)": "cef33810",
					"getRegisterDevice()": "eef814d3",
					"merchants(address)": "ee14e939",
					"owner()": "8da5cb5b",
					"registerDevice(string,string,string,string)": "cecfe084",
					"removeExpiredData()": "3ab0639b",
					"removeMerchant(address)": "133adab6",
					"updateMerchant(string,string,string,string)": "f4f97658",
					"useActiveCodeInfo(uint256)": "24e8779f"
				}
			},
			"storageLayout": {
				"storage": [
					{
						"astId": 250,
						"contract": "src/activeCode.sol:MerchantActiveCode",
						"label": "owner",
						"offset": 0,
						"slot": "0",
						"type": "t_address"
					},
					{
						"astId": 279,
						"contract": "src/activeCode.sol:MerchantActiveCode",
						"label": "merchants",
						"offset": 0,
						"slot": "1",
						"type": "t_mapping(t_address,t_struct(Merchant)261_storage)"
					},
					{
						"astId": 284,
						"contract": "src/activeCode.sol:MerchantActiveCode",
						"label": "devices",
						"offset": 0,
						"slot": "2",
						"type": "t_mapping(t_address,t_struct(Device)274_storage)"
					},
					{
						"astId": 288,
						"contract": "src/activeCode.sol:MerchantActiveCode",
						"label": "activeCodeToDevice",
						"offset": 0,
						"slot": "3",
						"type": "t_mapping(t_uint256,t_address)"
					}
				],
				"types": {
					"t_address": {
						"encoding": "inplace",
						"label": "address",
						"numberOfBytes": "20"
					},
					"t_mapping(t_address,t_struct(Device)274_storage)": {
						"encoding": "mapping",
						"key": "t_address",
						"label": "mapping(address => struct MerchantActiveCode.Device)",
						"numberOfBytes": "32",
						"value": "t_struct(Device)274_storage"
					},
					"t_mapping(t_address,t_struct(Merchant)261_storage)": {
						"encoding": "mapping",
						"key": "t_address",
						"label": "mapping(address => struct MerchantActiveCode.Merchant)",
						"numberOfBytes": "32",
						"value": "t_struct(Merchant)261_storage"
					},
					"t_mapping(t_uint256,t_address)": {
						"encoding": "mapping",
						"key": "t_uint256",
						"label": "mapping(uint256 => address)",
						"numberOfBytes": "32",
						"value": "t_address"
					},
					"t_string_storage": {
						"encoding": "bytes",
						"label": "string",
						"numberOfBytes": "32"
					},
					"t_struct(Device)274_storage": {
						"encoding": "inplace",
						"label": "struct MerchantActiveCode.Device",
						"members": [
							{
								"astId": 263,
								"contract": "src/activeCode.sol:MerchantActiveCode",
								"label": "screenSize",
								"offset": 0,
								"slot": "0",
								"type": "t_string_storage"
							},
							{
								"astId": 265,
								"contract": "src/activeCode.sol:MerchantActiveCode",
								"label": "os",
								"offset": 0,
								"slot": "1",
								"type": "t_string_storage"
							},
							{
								"astId": 267,
								"contract": "src/activeCode.sol:MerchantActiveCode",
								"label": "versionOs",
								"offset": 0,
								"slot": "2",
								"type": "t_string_storage"
							},
							{
								"astId": 269,
								"contract": "src/activeCode.sol:MerchantActiveCode",
								"label": "refCode",
								"offset": 0,
								"slot": "3",
								"type": "t_string_storage"
							},
							{
								"astId": 271,
								"contract": "src/activeCode.sol:MerchantActiveCode",
								"label": "activeCode",
								"offset": 0,
								"slot": "4",
								"type": "t_uint256"
							},
							{
								"astId": 273,
								"contract": "src/activeCode.sol:MerchantActiveCode",
								"label": "timestamp",
								"offset": 0,
								"slot": "5",
								"type": "t_uint256"
							}
						],
						"numberOfBytes": "192"
					},
					"t_struct(Merchant)261_storage": {
						"encoding": "inplace",
						"label": "struct MerchantActiveCode.Merchant",
						"members": [
							{
								"astId": 252,
								"contract": "src/activeCode.sol:MerchantActiveCode",
								"label": "domain",
								"offset": 0,
								"slot": "0",
								"type": "t_string_storage"
							},
							{
								"astId": 254,
								"contract": "src/activeCode.sol:MerchantActiveCode",
								"label": "installUrl",
								"offset": 0,
								"slot": "1",
								"type": "t_string_storage"
							},
							{
								"astId": 256,
								"contract": "src/activeCode.sol:MerchantActiveCode",
								"label": "bundleId",
								"offset": 0,
								"slot": "2",
								"type": "t_string_storage"
							},
							{
								"astId": 258,
								"contract": "src/activeCode.sol:MerchantActiveCode",
								"label": "platform",
								"offset": 0,
								"slot": "3",
								"type": "t_string_storage"
							},
							{
								"astId": 260,
								"contract": "src/activeCode.sol:MerchantActiveCode",
								"label": "createTime",
								"offset": 0,
								"slot": "4",
								"type": "t_uint256"
							}
						],
						"numberOfBytes": "160"
					},
					"t_uint256": {
						"encoding": "inplace",
						"label": "uint256",
						"numberOfBytes": "32"
					}
				}
			},
			"userdoc": {
				"kind": "user",
				"methods": {},
				"version": 1
			}
		}
	}
}