{
	"src/activeCode_10.3.sol": {
		"MerchantActiveCode": {
			"abi": [
				{
					"inputs": [],
					"stateMutability": "nonpayable",
					"type": "constructor"
				},
				{
					"anonymous": false,
					"inputs": [
						{
							"indexed": true,
							"internalType": "address",
							"name": "user",
							"type": "address"
						},
						{
							"indexed": false,
							"internalType": "uint256",
							"name": "activeCode",
							"type": "uint256"
						}
					],
					"name": "ActiveCodeUsed",
					"type": "event"
				},
				{
					"anonymous": false,
					"inputs": [
						{
							"indexed": true,
							"internalType": "address",
							"name": "device",
							"type": "address"
						},
						{
							"indexed": false,
							"internalType": "uint256",
							"name": "activeCode",
							"type": "uint256"
						}
					],
					"name": "DeviceRegistered",
					"type": "event"
				},
				{
					"anonymous": false,
					"inputs": [
						{
							"indexed": true,
							"internalType": "address",
							"name": "merchant",
							"type": "address"
						},
						{
							"indexed": false,
							"internalType": "string",
							"name": "domain",
							"type": "string"
						}
					],
					"name": "MerchantRegistered",
					"type": "event"
				},
				{
					"anonymous": false,
					"inputs": [
						{
							"indexed": true,
							"internalType": "address",
							"name": "merchant",
							"type": "address"
						}
					],
					"name": "MerchantRemoved",
					"type": "event"
				},
				{
					"anonymous": false,
					"inputs": [
						{
							"indexed": true,
							"internalType": "address",
							"name": "merchant",
							"type": "address"
						},
						{
							"indexed": false,
							"internalType": "string",
							"name": "domain",
							"type": "string"
						}
					],
					"name": "MerchantUpdated",
					"type": "event"
				},
				{
					"inputs": [
						{
							"internalType": "uint256",
							"name": "",
							"type": "uint256"
						}
					],
					"name": "activeCodeToDevice",
					"outputs": [
						{
							"internalType": "address",
							"name": "",
							"type": "address"
						}
					],
					"stateMutability": "view",
					"type": "function"
				},
				{
					"inputs": [
						{
							"internalType": "address",
							"name": "_merchant",
							"type": "address"
						},
						{
							"internalType": "string",
							"name": "_domain",
							"type": "string"
						},
						{
							"internalType": "string",
							"name": "_installUrl",
							"type": "string"
						},
						{
							"internalType": "string",
							"name": "_bundleId",
							"type": "string"
						},
						{
							"internalType": "string",
							"name": "_platform",
							"type": "string"
						}
					],
					"name": "addMerchant",
					"outputs": [],
					"stateMutability": "nonpayable",
					"type": "function"
				},
				{
					"inputs": [
						{
							"internalType": "address",
							"name": "",
							"type": "address"
						}
					],
					"name": "devices",
					"outputs": [
						{
							"internalType": "string",
							"name": "IP",
							"type": "string"
						},
						{
							"internalType": "string",
							"name": "screenSize",
							"type": "string"
						},
						{
							"internalType": "string",
							"name": "os",
							"type": "string"
						},
						{
							"internalType": "string",
							"name": "versionOs",
							"type": "string"
						},
						{
							"internalType": "string",
							"name": "refCode",
							"type": "string"
						},
						{
							"internalType": "uint256",
							"name": "activeCode",
							"type": "uint256"
						},
						{
							"internalType": "uint256",
							"name": "timestamp",
							"type": "uint256"
						}
					],
					"stateMutability": "view",
					"type": "function"
				},
				{
					"inputs": [
						{
							"internalType": "uint256",
							"name": "_activeCode",
							"type": "uint256"
						}
					],
					"name": "getActiveCodeInfo",
					"outputs": [
						{
							"components": [
								{
									"internalType": "string",
									"name": "domain",
									"type": "string"
								},
								{
									"internalType": "string",
									"name": "installUrl",
									"type": "string"
								},
								{
									"internalType": "string",
									"name": "bundleId",
									"type": "string"
								},
								{
									"internalType": "string",
									"name": "platform",
									"type": "string"
								},
								{
									"internalType": "uint256",
									"name": "createTime",
									"type": "uint256"
								}
							],
							"internalType": "struct MerchantActiveCode.Merchant",
							"name": "",
							"type": "tuple"
						},
						{
							"components": [
								{
									"internalType": "string",
									"name": "IP",
									"type": "string"
								},
								{
									"internalType": "string",
									"name": "screenSize",
									"type": "string"
								},
								{
									"internalType": "string",
									"name": "os",
									"type": "string"
								},
								{
									"internalType": "string",
									"name": "versionOs",
									"type": "string"
								},
								{
									"internalType": "string",
									"name": "refCode",
									"type": "string"
								},
								{
									"internalType": "uint256",
									"name": "activeCode",
									"type": "uint256"
								},
								{
									"internalType": "uint256",
									"name": "timestamp",
									"type": "uint256"
								}
							],
							"internalType": "struct MerchantActiveCode.Device",
							"name": "",
							"type": "tuple"
						}
					],
					"stateMutability": "view",
					"type": "function"
				},
				{
					"inputs": [
						{
							"internalType": "string",
							"name": "_IP",
							"type": "string"
						},
						{
							"internalType": "string",
							"name": "_screenSize",
							"type": "string"
						},
						{
							"internalType": "string",
							"name": "_os",
							"type": "string"
						},
						{
							"internalType": "string",
							"name": "_versionOs",
							"type": "string"
						}
					],
					"name": "getActiveCodesByDeviceInfo",
					"outputs": [
						{
							"internalType": "uint256[]",
							"name": "",
							"type": "uint256[]"
						}
					],
					"stateMutability": "view",
					"type": "function"
				},
				{
					"inputs": [],
					"name": "getRegisterDevice",
					"outputs": [
						{
							"internalType": "uint256",
							"name": "",
							"type": "uint256"
						}
					],
					"stateMutability": "view",
					"type": "function"
				},
				{
					"inputs": [
						{
							"internalType": "address",
							"name": "",
							"type": "address"
						}
					],
					"name": "isAdmin",
					"outputs": [
						{
							"internalType": "bool",
							"name": "",
							"type": "bool"
						}
					],
					"stateMutability": "view",
					"type": "function"
				},
				{
					"inputs": [
						{
							"internalType": "address",
							"name": "",
							"type": "address"
						}
					],
					"name": "merchants",
					"outputs": [
						{
							"internalType": "string",
							"name": "domain",
							"type": "string"
						},
						{
							"internalType": "string",
							"name": "installUrl",
							"type": "string"
						},
						{
							"internalType": "string",
							"name": "bundleId",
							"type": "string"
						},
						{
							"internalType": "string",
							"name": "platform",
							"type": "string"
						},
						{
							"internalType": "uint256",
							"name": "createTime",
							"type": "uint256"
						}
					],
					"stateMutability": "view",
					"type": "function"
				},
				{
					"inputs": [],
					"name": "owner",
					"outputs": [
						{
							"internalType": "address",
							"name": "",
							"type": "address"
						}
					],
					"stateMutability": "view",
					"type": "function"
				},
				{
					"inputs": [
						{
							"internalType": "string",
							"name": "_IP",
							"type": "string"
						},
						{
							"internalType": "string",
							"name": "_screenSize",
							"type": "string"
						},
						{
							"internalType": "string",
							"name": "_os",
							"type": "string"
						},
						{
							"internalType": "string",
							"name": "_versionOs",
							"type": "string"
						},
						{
							"internalType": "string",
							"name": "_refCode",
							"type": "string"
						}
					],
					"name": "registerDevice",
					"outputs": [
						{
							"internalType": "uint256",
							"name": "",
							"type": "uint256"
						}
					],
					"stateMutability": "nonpayable",
					"type": "function"
				},
				{
					"inputs": [],
					"name": "removeExpiredData",
					"outputs": [],
					"stateMutability": "nonpayable",
					"type": "function"
				},
				{
					"inputs": [
						{
							"internalType": "address",
							"name": "_merchant",
							"type": "address"
						}
					],
					"name": "removeMerchant",
					"outputs": [],
					"stateMutability": "nonpayable",
					"type": "function"
				},
				{
					"inputs": [
						{
							"internalType": "address",
							"name": "_admin",
							"type": "address"
						}
					],
					"name": "setAdmin",
					"outputs": [],
					"stateMutability": "nonpayable",
					"type": "function"
				},
				{
					"inputs": [
						{
							"internalType": "string",
							"name": "_domain",
							"type": "string"
						},
						{
							"internalType": "string",
							"name": "_installUrl",
							"type": "string"
						},
						{
							"internalType": "string",
							"name": "_bundleId",
							"type": "string"
						},
						{
							"internalType": "string",
							"name": "_platform",
							"type": "string"
						}
					],
					"name": "updateMerchant",
					"outputs": [],
					"stateMutability": "nonpayable",
					"type": "function"
				},
				{
					"inputs": [
						{
							"internalType": "uint256",
							"name": "_activeCode",
							"type": "uint256"
						}
					],
					"name": "useActiveCodeInfo",
					"outputs": [],
					"stateMutability": "nonpayable",
					"type": "function"
				}
			],
			"devdoc": {
				"kind": "dev",
				"methods": {},
				"version": 1
			},
			"evm": {
				"assembly": "    /* \"src/activeCode_10.3.sol\":1856:8794  contract MerchantActiveCode {... */\n  mstore(0x40, 0x80)\n    /* \"src/activeCode_10.3.sol\":3123:3276  constructor() {... */\n  callvalue\n  dup1\n  iszero\n  tag_1\n  jumpi\n  0x00\n  dup1\n  revert\ntag_1:\n  pop\n    /* \"src/activeCode_10.3.sol\":3155:3165  msg.sender */\n  caller\n    /* \"src/activeCode_10.3.sol\":3147:3152  owner */\n  0x00\n  dup1\n    /* \"src/activeCode_10.3.sol\":3147:3165  owner = msg.sender */\n  0x0100\n  exp\n  dup2\n  sload\n  dup2\n  0xffffffffffffffffffffffffffffffffffffffff\n  mul\n  not\n  and\n  swap1\n  dup4\n  0xffffffffffffffffffffffffffffffffffffffff\n  and\n  mul\n  or\n  swap1\n  sstore\n  pop\n    /* \"src/activeCode_10.3.sol\":3197:3201  true */\n  0x01\n    /* \"src/activeCode_10.3.sol\":3175:3182  isAdmin */\n  0x05\n    /* \"src/activeCode_10.3.sol\":3175:3194  isAdmin[msg.sender] */\n  0x00\n    /* \"src/activeCode_10.3.sol\":3183:3193  msg.sender */\n  caller\n    /* \"src/activeCode_10.3.sol\":3175:3194  isAdmin[msg.sender] */\n  0xffffffffffffffffffffffffffffffffffffffff\n  and\n  0xffffffffffffffffffffffffffffffffffffffff\n  and\n  dup2\n  mstore\n  0x20\n  add\n  swap1\n  dup2\n  mstore\n  0x20\n  add\n  0x00\n  keccak256\n  0x00\n    /* \"src/activeCode_10.3.sol\":3175:3201  isAdmin[msg.sender] = true */\n  0x0100\n  exp\n  dup2\n  sload\n  dup2\n  0xff\n  mul\n  not\n  and\n  swap1\n  dup4\n  iszero\n  iszero\n  mul\n  or\n  swap1\n  sstore\n  pop\n    /* \"src/activeCode_10.3.sol\":3265:3269  true */\n  0x01\n    /* \"src/activeCode_10.3.sol\":3211:3218  isAdmin */\n  0x05\n    /* \"src/activeCode_10.3.sol\":3211:3262  isAdmin[0xB50b908fFd42d2eDb12b325e75330c1AaAf35dc0] */\n  0x00\n    /* \"src/activeCode_10.3.sol\":3219:3261  0xB50b908fFd42d2eDb12b325e75330c1AaAf35dc0 */\n  0xb50b908ffd42d2edb12b325e75330c1aaaf35dc0\n    /* \"src/activeCode_10.3.sol\":3211:3262  isAdmin[0xB50b908fFd42d2eDb12b325e75330c1AaAf35dc0] */\n  0xffffffffffffffffffffffffffffffffffffffff\n  and\n  0xffffffffffffffffffffffffffffffffffffffff\n  and\n  dup2\n  mstore\n  0x20\n  add\n  swap1\n  dup2\n  mstore\n  0x20\n  add\n  0x00\n  keccak256\n  0x00\n    /* \"src/activeCode_10.3.sol\":3211:3269  isAdmin[0xB50b908fFd42d2eDb12b325e75330c1AaAf35dc0] = true */\n  0x0100\n  exp\n  dup2\n  sload\n  dup2\n  0xff\n  mul\n  not\n  and\n  swap1\n  dup4\n  iszero\n  iszero\n  mul\n  or\n  swap1\n  sstore\n  pop\n    /* \"src/activeCode_10.3.sol\":1856:8794  contract MerchantActiveCode {... */\n  dataSize(sub_0)\n  dup1\n  dataOffset(sub_0)\n  0x00\n  codecopy\n  0x00\n  return\nstop\n\nsub_0: assembly {\n        /* \"src/activeCode_10.3.sol\":1856:8794  contract MerchantActiveCode {... */\n      mstore(0x40, 0x80)\n      callvalue\n      dup1\n      iszero\n      tag_1\n      jumpi\n      0x00\n      dup1\n      revert\n    tag_1:\n      pop\n      jumpi(tag_2, lt(calldatasize, 0x04))\n      shr(0xe0, calldataload(0x00))\n      dup1\n      0x704b6c02\n      gt\n      tag_18\n      jumpi\n      dup1\n      0xe7b4cac6\n      gt\n      tag_19\n      jumpi\n      dup1\n      0xe7b4cac6\n      eq\n      tag_14\n      jumpi\n      dup1\n      0xee14e939\n      eq\n      tag_15\n      jumpi\n      dup1\n      0xeef814d3\n      eq\n      tag_16\n      jumpi\n      dup1\n      0xf4f97658\n      eq\n      tag_17\n      jumpi\n      jump(tag_2)\n    tag_19:\n      dup1\n      0x704b6c02\n      eq\n      tag_10\n      jumpi\n      dup1\n      0x8da5cb5b\n      eq\n      tag_11\n      jumpi\n      dup1\n      0xcef33810\n      eq\n      tag_12\n      jumpi\n      dup1\n      0xd4dd4b47\n      eq\n      tag_13\n      jumpi\n      jump(tag_2)\n    tag_18:\n      dup1\n      0x24d7806c\n      gt\n      tag_20\n      jumpi\n      dup1\n      0x24d7806c\n      eq\n      tag_6\n      jumpi\n      dup1\n      0x24e8779f\n      eq\n      tag_7\n      jumpi\n      dup1\n      0x3ab0639b\n      eq\n      tag_8\n      jumpi\n      dup1\n      0x53929cec\n      eq\n      tag_9\n      jumpi\n      jump(tag_2)\n    tag_20:\n      dup1\n      0x044866cc\n      eq\n      tag_3\n      jumpi\n      dup1\n      0x0b75c58f\n      eq\n      tag_4\n      jumpi\n      dup1\n      0x133adab6\n      eq\n      tag_5\n      jumpi\n    tag_2:\n      0x00\n      dup1\n      revert\n        /* \"src/activeCode_10.3.sol\":5476:6597  function getActiveCodesByDeviceInfo(... */\n    tag_3:\n      tag_21\n      0x04\n      dup1\n      calldatasize\n      sub\n      dup2\n      add\n      swap1\n      tag_22\n      swap2\n      swap1\n      tag_23\n      jump\t// in\n    tag_22:\n      tag_24\n      jump\t// in\n    tag_21:\n      mload(0x40)\n      tag_25\n      swap2\n      swap1\n      tag_26\n      jump\t// in\n    tag_25:\n      mload(0x40)\n      dup1\n      swap2\n      sub\n      swap1\n      return\n        /* \"src/activeCode_10.3.sol\":2418:2471  mapping(uint256 => address) public activeCodeToDevice */\n    tag_4:\n      tag_27\n      0x04\n      dup1\n      calldatasize\n      sub\n      dup2\n      add\n      swap1\n      tag_28\n      swap2\n      swap1\n      tag_29\n      jump\t// in\n    tag_28:\n      tag_30\n      jump\t// in\n    tag_27:\n      mload(0x40)\n      tag_31\n      swap2\n      swap1\n      tag_32\n      jump\t// in\n    tag_31:\n      mload(0x40)\n      dup1\n      swap2\n      sub\n      swap1\n      return\n        /* \"src/activeCode_10.3.sol\":4400:4623  function removeMerchant(address _merchant) external onlyAdmin {... */\n    tag_5:\n      tag_33\n      0x04\n      dup1\n      calldatasize\n      sub\n      dup2\n      add\n      swap1\n      tag_34\n      swap2\n      swap1\n      tag_35\n      jump\t// in\n    tag_34:\n      tag_36\n      jump\t// in\n    tag_33:\n      stop\n        /* \"src/activeCode_10.3.sol\":2872:2911  mapping(address => bool) public isAdmin */\n    tag_6:\n      tag_37\n      0x04\n      dup1\n      calldatasize\n      sub\n      dup2\n      add\n      swap1\n      tag_38\n      swap2\n      swap1\n      tag_35\n      jump\t// in\n    tag_38:\n      tag_39\n      jump\t// in\n    tag_37:\n      mload(0x40)\n      tag_40\n      swap2\n      swap1\n      tag_41\n      jump\t// in\n    tag_40:\n      mload(0x40)\n      dup1\n      swap2\n      sub\n      swap1\n      return\n        /* \"src/activeCode_10.3.sol\":7631:8557  function useActiveCodeInfo(uint256 _activeCode) external {... */\n    tag_7:\n      tag_42\n      0x04\n      dup1\n      calldatasize\n      sub\n      dup2\n      add\n      swap1\n      tag_43\n      swap2\n      swap1\n      tag_29\n      jump\t// in\n    tag_43:\n      tag_44\n      jump\t// in\n    tag_42:\n      stop\n        /* \"src/activeCode_10.3.sol\":8567:8792  function removeExpiredData() external onlyAdmin {... */\n    tag_8:\n      tag_45\n      tag_46\n      jump\t// in\n    tag_45:\n      stop\n        /* \"src/activeCode_10.3.sol\":4643:5341  function registerDevice(string memory _IP, string memory _screenSize, string memory _os, string memory _versionOs, string memory _refCode) external returns (uint256) {... */\n    tag_9:\n      tag_47\n      0x04\n      dup1\n      calldatasize\n      sub\n      dup2\n      add\n      swap1\n      tag_48\n      swap2\n      swap1\n      tag_49\n      jump\t// in\n    tag_48:\n      tag_50\n      jump\t// in\n    tag_47:\n      mload(0x40)\n      tag_51\n      swap2\n      swap1\n      tag_52\n      jump\t// in\n    tag_51:\n      mload(0x40)\n      dup1\n      swap2\n      sub\n      swap1\n      return\n        /* \"src/activeCode_10.3.sol\":3281:3371  function setAdmin(address _admin)external onlyAdmin{... */\n    tag_10:\n      tag_53\n      0x04\n      dup1\n      calldatasize\n      sub\n      dup2\n      add\n      swap1\n      tag_54\n      swap2\n      swap1\n      tag_35\n      jump\t// in\n    tag_54:\n      tag_55\n      jump\t// in\n    tag_53:\n      stop\n        /* \"src/activeCode_10.3.sol\":1927:1947  address public owner */\n    tag_11:\n      tag_56\n      tag_57\n      jump\t// in\n    tag_56:\n      mload(0x40)\n      tag_58\n      swap2\n      swap1\n      tag_32\n      jump\t// in\n    tag_58:\n      mload(0x40)\n      dup1\n      swap2\n      sub\n      swap1\n      return\n        /* \"src/activeCode_10.3.sol\":7184:7620  function getActiveCodeInfo(uint256 _activeCode) external view returns (Merchant memory, Device memory) {... */\n    tag_12:\n      tag_59\n      0x04\n      dup1\n      calldatasize\n      sub\n      dup2\n      add\n      swap1\n      tag_60\n      swap2\n      swap1\n      tag_29\n      jump\t// in\n    tag_60:\n      tag_61\n      jump\t// in\n    tag_59:\n      mload(0x40)\n      tag_62\n      swap3\n      swap2\n      swap1\n      tag_63\n      jump\t// in\n    tag_62:\n      mload(0x40)\n      dup1\n      swap2\n      sub\n      swap1\n      return\n        /* \"src/activeCode_10.3.sol\":3376:3904  function addMerchant(address _merchant, string memory _domain, string memory _installUrl, string memory _bundleId, string memory _platform) external onlyAdmin {... */\n    tag_13:\n      tag_64\n      0x04\n      dup1\n      calldatasize\n      sub\n      dup2\n      add\n      swap1\n      tag_65\n      swap2\n      swap1\n      tag_66\n      jump\t// in\n    tag_65:\n      tag_67\n      jump\t// in\n    tag_64:\n      stop\n        /* \"src/activeCode_10.3.sol\":2371:2412  mapping(address => Device) public devices */\n    tag_14:\n      tag_68\n      0x04\n      dup1\n      calldatasize\n      sub\n      dup2\n      add\n      swap1\n      tag_69\n      swap2\n      swap1\n      tag_35\n      jump\t// in\n    tag_69:\n      tag_70\n      jump\t// in\n    tag_68:\n      mload(0x40)\n      tag_71\n      swap8\n      swap7\n      swap6\n      swap5\n      swap4\n      swap3\n      swap2\n      swap1\n      tag_72\n      jump\t// in\n    tag_71:\n      mload(0x40)\n      dup1\n      swap2\n      sub\n      swap1\n      return\n        /* \"src/activeCode_10.3.sol\":2320:2365  mapping(address => Merchant) public merchants */\n    tag_15:\n      tag_73\n      0x04\n      dup1\n      calldatasize\n      sub\n      dup2\n      add\n      swap1\n      tag_74\n      swap2\n      swap1\n      tag_35\n      jump\t// in\n    tag_74:\n      tag_75\n      jump\t// in\n    tag_73:\n      mload(0x40)\n      tag_76\n      swap6\n      swap5\n      swap4\n      swap3\n      swap2\n      swap1\n      tag_77\n      jump\t// in\n    tag_76:\n      mload(0x40)\n      dup1\n      swap2\n      sub\n      swap1\n      return\n        /* \"src/activeCode_10.3.sol\":5351:5466  function getRegisterDevice() external view returns (uint256) {... */\n    tag_16:\n      tag_78\n      tag_79\n      jump\t// in\n    tag_78:\n      mload(0x40)\n      tag_80\n      swap2\n      swap1\n      tag_52\n      jump\t// in\n    tag_80:\n      mload(0x40)\n      dup1\n      swap2\n      sub\n      swap1\n      return\n        /* \"src/activeCode_10.3.sol\":3914:4390  function updateMerchant(string memory _domain, string memory _installUrl, string memory _bundleId, string memory _platform) external {... */\n    tag_17:\n      tag_81\n      0x04\n      dup1\n      calldatasize\n      sub\n      dup2\n      add\n      swap1\n      tag_82\n      swap2\n      swap1\n      tag_23\n      jump\t// in\n    tag_82:\n      tag_83\n      jump\t// in\n    tag_81:\n      stop\n        /* \"src/activeCode_10.3.sol\":5476:6597  function getActiveCodesByDeviceInfo(... */\n    tag_24:\n        /* \"src/activeCode_10.3.sol\":5667:5683  uint256[] memory */\n      0x60\n        /* \"src/activeCode_10.3.sol\":5695:5718  uint256[] storage codes */\n      0x00\n        /* \"src/activeCode_10.3.sol\":5721:5735  activeCodeByIP */\n      0x04\n        /* \"src/activeCode_10.3.sol\":5736:5739  _IP */\n      dup7\n        /* \"src/activeCode_10.3.sol\":5721:5740  activeCodeByIP[_IP] */\n      mload(0x40)\n      tag_85\n      swap2\n      swap1\n      tag_86\n      jump\t// in\n    tag_85:\n      swap1\n      dup2\n      mstore\n      0x20\n      add\n      mload(0x40)\n      dup1\n      swap2\n      sub\n      swap1\n      keccak256\n        /* \"src/activeCode_10.3.sol\":5695:5740  uint256[] storage codes = activeCodeByIP[_IP] */\n      swap1\n      pop\n        /* \"src/activeCode_10.3.sol\":5750:5780  uint256[] memory matchingCodes */\n      0x00\n        /* \"src/activeCode_10.3.sol\":5797:5802  codes */\n      dup2\n        /* \"src/activeCode_10.3.sol\":5797:5809  codes.length */\n      dup1\n      sload\n      swap1\n      pop\n        /* \"src/activeCode_10.3.sol\":5783:5810  new uint256[](codes.length) */\n      0xffffffffffffffff\n      dup2\n      gt\n      iszero\n      tag_87\n      jumpi\n      tag_88\n      tag_89\n      jump\t// in\n    tag_88:\n    tag_87:\n      mload(0x40)\n      swap1\n      dup1\n      dup3\n      mstore\n      dup1\n      0x20\n      mul\n      0x20\n      add\n      dup3\n      add\n      0x40\n      mstore\n      dup1\n      iszero\n      tag_90\n      jumpi\n      dup2\n      0x20\n      add\n      0x20\n      dup3\n      mul\n      dup1\n      calldatasize\n      dup4\n      calldatacopy\n      dup1\n      dup3\n      add\n      swap2\n      pop\n      pop\n      swap1\n      pop\n    tag_90:\n      pop\n        /* \"src/activeCode_10.3.sol\":5750:5810  uint256[] memory matchingCodes = new uint256[](codes.length) */\n      swap1\n      pop\n        /* \"src/activeCode_10.3.sol\":5820:5833  uint256 count */\n      0x00\n        /* \"src/activeCode_10.3.sol\":5853:5862  uint256 i */\n      dup1\n        /* \"src/activeCode_10.3.sol\":5848:6403  for (uint256 i = 0; i < codes.length; i++) {... */\n    tag_91:\n        /* \"src/activeCode_10.3.sol\":5872:5877  codes */\n      dup4\n        /* \"src/activeCode_10.3.sol\":5872:5884  codes.length */\n      dup1\n      sload\n      swap1\n      pop\n        /* \"src/activeCode_10.3.sol\":5868:5869  i */\n      dup2\n        /* \"src/activeCode_10.3.sol\":5868:5884  i < codes.length */\n      lt\n        /* \"src/activeCode_10.3.sol\":5848:6403  for (uint256 i = 0; i < codes.length; i++) {... */\n      iszero\n      tag_92\n      jumpi\n        /* \"src/activeCode_10.3.sol\":5905:5924  address deviceOwner */\n      0x00\n        /* \"src/activeCode_10.3.sol\":5927:5945  activeCodeToDevice */\n      0x03\n        /* \"src/activeCode_10.3.sol\":5927:5955  activeCodeToDevice[codes[i]] */\n      0x00\n        /* \"src/activeCode_10.3.sol\":5946:5951  codes */\n      dup7\n        /* \"src/activeCode_10.3.sol\":5952:5953  i */\n      dup5\n        /* \"src/activeCode_10.3.sol\":5946:5954  codes[i] */\n      dup2\n      sload\n      dup2\n      lt\n      tag_94\n      jumpi\n      tag_95\n      tag_96\n      jump\t// in\n    tag_95:\n    tag_94:\n      swap1\n      0x00\n      mstore\n      keccak256(0x00, 0x20)\n      add\n      sload\n        /* \"src/activeCode_10.3.sol\":5927:5955  activeCodeToDevice[codes[i]] */\n      dup2\n      mstore\n      0x20\n      add\n      swap1\n      dup2\n      mstore\n      0x20\n      add\n      0x00\n      keccak256\n      0x00\n      swap1\n      sload\n      swap1\n      0x0100\n      exp\n      swap1\n      div\n      0xffffffffffffffffffffffffffffffffffffffff\n      and\n        /* \"src/activeCode_10.3.sol\":5905:5955  address deviceOwner = activeCodeToDevice[codes[i]] */\n      swap1\n      pop\n        /* \"src/activeCode_10.3.sol\":5969:5994  Device storage deviceInfo */\n      0x00\n        /* \"src/activeCode_10.3.sol\":5997:6004  devices */\n      0x02\n        /* \"src/activeCode_10.3.sol\":5997:6017  devices[deviceOwner] */\n      0x00\n        /* \"src/activeCode_10.3.sol\":6005:6016  deviceOwner */\n      dup4\n        /* \"src/activeCode_10.3.sol\":5997:6017  devices[deviceOwner] */\n      0xffffffffffffffffffffffffffffffffffffffff\n      and\n      0xffffffffffffffffffffffffffffffffffffffff\n      and\n      dup2\n      mstore\n      0x20\n      add\n      swap1\n      dup2\n      mstore\n      0x20\n      add\n      0x00\n      keccak256\n        /* \"src/activeCode_10.3.sol\":5969:6017  Device storage deviceInfo = devices[deviceOwner] */\n      swap1\n      pop\n        /* \"src/activeCode_10.3.sol\":6117:6167  compareStrings(deviceInfo.screenSize, _screenSize) */\n      tag_98\n        /* \"src/activeCode_10.3.sol\":6132:6142  deviceInfo */\n      dup2\n        /* \"src/activeCode_10.3.sol\":6132:6153  deviceInfo.screenSize */\n      0x01\n      add\n        /* \"src/activeCode_10.3.sol\":6117:6167  compareStrings(deviceInfo.screenSize, _screenSize) */\n      dup1\n      sload\n      tag_99\n      swap1\n      tag_100\n      jump\t// in\n    tag_99:\n      dup1\n      0x1f\n      add\n      0x20\n      dup1\n      swap2\n      div\n      mul\n      0x20\n      add\n      mload(0x40)\n      swap1\n      dup2\n      add\n      0x40\n      mstore\n      dup1\n      swap3\n      swap2\n      swap1\n      dup2\n      dup2\n      mstore\n      0x20\n      add\n      dup3\n      dup1\n      sload\n      tag_101\n      swap1\n      tag_100\n      jump\t// in\n    tag_101:\n      dup1\n      iszero\n      tag_102\n      jumpi\n      dup1\n      0x1f\n      lt\n      tag_103\n      jumpi\n      0x0100\n      dup1\n      dup4\n      sload\n      div\n      mul\n      dup4\n      mstore\n      swap2\n      0x20\n      add\n      swap2\n      jump(tag_102)\n    tag_103:\n      dup3\n      add\n      swap2\n      swap1\n      0x00\n      mstore\n      keccak256(0x00, 0x20)\n      swap1\n    tag_104:\n      dup2\n      sload\n      dup2\n      mstore\n      swap1\n      0x01\n      add\n      swap1\n      0x20\n      add\n      dup1\n      dup4\n      gt\n      tag_104\n      jumpi\n      dup3\n      swap1\n      sub\n      0x1f\n      and\n      dup3\n      add\n      swap2\n    tag_102:\n      pop\n      pop\n      pop\n      pop\n      pop\n        /* \"src/activeCode_10.3.sol\":6155:6166  _screenSize */\n      dup12\n        /* \"src/activeCode_10.3.sol\":6117:6131  compareStrings */\n      tag_105\n        /* \"src/activeCode_10.3.sol\":6117:6167  compareStrings(deviceInfo.screenSize, _screenSize) */\n      jump\t// in\n    tag_98:\n        /* \"src/activeCode_10.3.sol\":6117:6221  compareStrings(deviceInfo.screenSize, _screenSize) &&... */\n      dup1\n      iszero\n      tag_106\n      jumpi\n      pop\n        /* \"src/activeCode_10.3.sol\":6187:6221  compareStrings(deviceInfo.os, _os) */\n      tag_107\n        /* \"src/activeCode_10.3.sol\":6202:6212  deviceInfo */\n      dup2\n        /* \"src/activeCode_10.3.sol\":6202:6215  deviceInfo.os */\n      0x02\n      add\n        /* \"src/activeCode_10.3.sol\":6187:6221  compareStrings(deviceInfo.os, _os) */\n      dup1\n      sload\n      tag_108\n      swap1\n      tag_100\n      jump\t// in\n    tag_108:\n      dup1\n      0x1f\n      add\n      0x20\n      dup1\n      swap2\n      div\n      mul\n      0x20\n      add\n      mload(0x40)\n      swap1\n      dup2\n      add\n      0x40\n      mstore\n      dup1\n      swap3\n      swap2\n      swap1\n      dup2\n      dup2\n      mstore\n      0x20\n      add\n      dup3\n      dup1\n      sload\n      tag_109\n      swap1\n      tag_100\n      jump\t// in\n    tag_109:\n      dup1\n      iszero\n      tag_110\n      jumpi\n      dup1\n      0x1f\n      lt\n      tag_111\n      jumpi\n      0x0100\n      dup1\n      dup4\n      sload\n      div\n      mul\n      dup4\n      mstore\n      swap2\n      0x20\n      add\n      swap2\n      jump(tag_110)\n    tag_111:\n      dup3\n      add\n      swap2\n      swap1\n      0x00\n      mstore\n      keccak256(0x00, 0x20)\n      swap1\n    tag_112:\n      dup2\n      sload\n      dup2\n      mstore\n      swap1\n      0x01\n      add\n      swap1\n      0x20\n      add\n      dup1\n      dup4\n      gt\n      tag_112\n      jumpi\n      dup3\n      swap1\n      sub\n      0x1f\n      and\n      dup3\n      add\n      swap2\n    tag_110:\n      pop\n      pop\n      pop\n      pop\n      pop\n        /* \"src/activeCode_10.3.sol\":6217:6220  _os */\n      dup11\n        /* \"src/activeCode_10.3.sol\":6187:6201  compareStrings */\n      tag_105\n        /* \"src/activeCode_10.3.sol\":6187:6221  compareStrings(deviceInfo.os, _os) */\n      jump\t// in\n    tag_107:\n        /* \"src/activeCode_10.3.sol\":6117:6221  compareStrings(deviceInfo.screenSize, _screenSize) &&... */\n    tag_106:\n        /* \"src/activeCode_10.3.sol\":6117:6289  compareStrings(deviceInfo.screenSize, _screenSize) &&... */\n      dup1\n      iszero\n      tag_113\n      jumpi\n      pop\n        /* \"src/activeCode_10.3.sol\":6241:6289  compareStrings(deviceInfo.versionOs, _versionOs) */\n      tag_114\n        /* \"src/activeCode_10.3.sol\":6256:6266  deviceInfo */\n      dup2\n        /* \"src/activeCode_10.3.sol\":6256:6276  deviceInfo.versionOs */\n      0x03\n      add\n        /* \"src/activeCode_10.3.sol\":6241:6289  compareStrings(deviceInfo.versionOs, _versionOs) */\n      dup1\n      sload\n      tag_115\n      swap1\n      tag_100\n      jump\t// in\n    tag_115:\n      dup1\n      0x1f\n      add\n      0x20\n      dup1\n      swap2\n      div\n      mul\n      0x20\n      add\n      mload(0x40)\n      swap1\n      dup2\n      add\n      0x40\n      mstore\n      dup1\n      swap3\n      swap2\n      swap1\n      dup2\n      dup2\n      mstore\n      0x20\n      add\n      dup3\n      dup1\n      sload\n      tag_116\n      swap1\n      tag_100\n      jump\t// in\n    tag_116:\n      dup1\n      iszero\n      tag_117\n      jumpi\n      dup1\n      0x1f\n      lt\n      tag_118\n      jumpi\n      0x0100\n      dup1\n      dup4\n      sload\n      div\n      mul\n      dup4\n      mstore\n      swap2\n      0x20\n      add\n      swap2\n      jump(tag_117)\n    tag_118:\n      dup3\n      add\n      swap2\n      swap1\n      0x00\n      mstore\n      keccak256(0x00, 0x20)\n      swap1\n    tag_119:\n      dup2\n      sload\n      dup2\n      mstore\n      swap1\n      0x01\n      add\n      swap1\n      0x20\n      add\n      dup1\n      dup4\n      gt\n      tag_119\n      jumpi\n      dup3\n      swap1\n      sub\n      0x1f\n      and\n      dup3\n      add\n      swap2\n    tag_117:\n      pop\n      pop\n      pop\n      pop\n      pop\n        /* \"src/activeCode_10.3.sol\":6278:6288  _versionOs */\n      dup10\n        /* \"src/activeCode_10.3.sol\":6241:6255  compareStrings */\n      tag_105\n        /* \"src/activeCode_10.3.sol\":6241:6289  compareStrings(deviceInfo.versionOs, _versionOs) */\n      jump\t// in\n    tag_114:\n        /* \"src/activeCode_10.3.sol\":6117:6289  compareStrings(deviceInfo.screenSize, _screenSize) &&... */\n    tag_113:\n        /* \"src/activeCode_10.3.sol\":6096:6393  if (... */\n      iszero\n      tag_120\n      jumpi\n        /* \"src/activeCode_10.3.sol\":6345:6350  codes */\n      dup6\n        /* \"src/activeCode_10.3.sol\":6351:6352  i */\n      dup4\n        /* \"src/activeCode_10.3.sol\":6345:6353  codes[i] */\n      dup2\n      sload\n      dup2\n      lt\n      tag_121\n      jumpi\n      tag_122\n      tag_96\n      jump\t// in\n    tag_122:\n    tag_121:\n      swap1\n      0x00\n      mstore\n      keccak256(0x00, 0x20)\n      add\n      sload\n        /* \"src/activeCode_10.3.sol\":6322:6335  matchingCodes */\n      dup6\n        /* \"src/activeCode_10.3.sol\":6336:6341  count */\n      dup6\n        /* \"src/activeCode_10.3.sol\":6322:6342  matchingCodes[count] */\n      dup2\n      mload\n      dup2\n      lt\n      tag_124\n      jumpi\n      tag_125\n      tag_96\n      jump\t// in\n    tag_125:\n    tag_124:\n      0x20\n      mul\n      0x20\n      add\n      add\n        /* \"src/activeCode_10.3.sol\":6322:6353  matchingCodes[count] = codes[i] */\n      dup2\n      dup2\n      mstore\n      pop\n      pop\n        /* \"src/activeCode_10.3.sol\":6371:6378  count++ */\n      dup4\n      dup1\n      tag_126\n      swap1\n      tag_127\n      jump\t// in\n    tag_126:\n      swap5\n      pop\n      pop\n        /* \"src/activeCode_10.3.sol\":6096:6393  if (... */\n    tag_120:\n        /* \"src/activeCode_10.3.sol\":5891:6403  {... */\n      pop\n      pop\n        /* \"src/activeCode_10.3.sol\":5886:5889  i++ */\n      dup1\n      dup1\n      0x01\n      add\n      swap2\n      pop\n      pop\n        /* \"src/activeCode_10.3.sol\":5848:6403  for (uint256 i = 0; i < codes.length; i++) {... */\n      jump(tag_91)\n    tag_92:\n      pop\n        /* \"src/activeCode_10.3.sol\":6544:6549  count */\n      dup1\n        /* \"src/activeCode_10.3.sol\":6529:6542  matchingCodes */\n      dup3\n        /* \"src/activeCode_10.3.sol\":6522:6550  mstore(matchingCodes, count) */\n      mstore\n        /* \"src/activeCode_10.3.sol\":6577:6590  matchingCodes */\n      dup2\n        /* \"src/activeCode_10.3.sol\":6570:6590  return matchingCodes */\n      swap4\n      pop\n      pop\n      pop\n      pop\n        /* \"src/activeCode_10.3.sol\":5476:6597  function getActiveCodesByDeviceInfo(... */\n      swap5\n      swap4\n      pop\n      pop\n      pop\n      pop\n      jump\t// out\n        /* \"src/activeCode_10.3.sol\":2418:2471  mapping(uint256 => address) public activeCodeToDevice */\n    tag_30:\n      mstore(0x20, 0x03)\n      dup1\n      0x00\n      mstore\n      keccak256(0x00, 0x40)\n      0x00\n      swap2\n      pop\n      sload\n      swap1\n      0x0100\n      exp\n      swap1\n      div\n      0xffffffffffffffffffffffffffffffffffffffff\n      and\n      dup2\n      jump\t// out\n        /* \"src/activeCode_10.3.sol\":4400:4623  function removeMerchant(address _merchant) external onlyAdmin {... */\n    tag_36:\n        /* \"src/activeCode_10.3.sol\":3075:3079  true */\n      0x01\n        /* \"src/activeCode_10.3.sol\":3052:3079  isAdmin[msg.sender] == true */\n      iszero\n      iszero\n        /* \"src/activeCode_10.3.sol\":3052:3059  isAdmin */\n      0x05\n        /* \"src/activeCode_10.3.sol\":3052:3071  isAdmin[msg.sender] */\n      0x00\n        /* \"src/activeCode_10.3.sol\":3060:3070  msg.sender */\n      caller\n        /* \"src/activeCode_10.3.sol\":3052:3071  isAdmin[msg.sender] */\n      0xffffffffffffffffffffffffffffffffffffffff\n      and\n      0xffffffffffffffffffffffffffffffffffffffff\n      and\n      dup2\n      mstore\n      0x20\n      add\n      swap1\n      dup2\n      mstore\n      0x20\n      add\n      0x00\n      keccak256\n      0x00\n      swap1\n      sload\n      swap1\n      0x0100\n      exp\n      swap1\n      div\n      0xff\n      and\n        /* \"src/activeCode_10.3.sol\":3052:3079  isAdmin[msg.sender] == true */\n      iszero\n      iszero\n      eq\n        /* \"src/activeCode_10.3.sol\":3044:3099  require(isAdmin[msg.sender] == true , \"Not authorized\") */\n      tag_129\n      jumpi\n      mload(0x40)\n      0x08c379a000000000000000000000000000000000000000000000000000000000\n      dup2\n      mstore\n      0x04\n      add\n      tag_130\n      swap1\n      tag_131\n      jump\t// in\n    tag_130:\n      mload(0x40)\n      dup1\n      swap2\n      sub\n      swap1\n      revert\n    tag_129:\n        /* \"src/activeCode_10.3.sol\":4514:4515  0 */\n      0x00\n        /* \"src/activeCode_10.3.sol\":4480:4489  merchants */\n      0x01\n        /* \"src/activeCode_10.3.sol\":4480:4500  merchants[_merchant] */\n      0x00\n        /* \"src/activeCode_10.3.sol\":4490:4499  _merchant */\n      dup4\n        /* \"src/activeCode_10.3.sol\":4480:4500  merchants[_merchant] */\n      0xffffffffffffffffffffffffffffffffffffffff\n      and\n      0xffffffffffffffffffffffffffffffffffffffff\n      and\n      dup2\n      mstore\n      0x20\n      add\n      swap1\n      dup2\n      mstore\n      0x20\n      add\n      0x00\n      keccak256\n        /* \"src/activeCode_10.3.sol\":4480:4511  merchants[_merchant].createTime */\n      0x04\n      add\n      sload\n        /* \"src/activeCode_10.3.sol\":4480:4515  merchants[_merchant].createTime > 0 */\n      gt\n        /* \"src/activeCode_10.3.sol\":4472:4538  require(merchants[_merchant].createTime > 0, \"Merchant not found\") */\n      tag_133\n      jumpi\n      mload(0x40)\n      0x08c379a000000000000000000000000000000000000000000000000000000000\n      dup2\n      mstore\n      0x04\n      add\n      tag_134\n      swap1\n      tag_135\n      jump\t// in\n    tag_134:\n      mload(0x40)\n      dup1\n      swap2\n      sub\n      swap1\n      revert\n    tag_133:\n        /* \"src/activeCode_10.3.sol\":4555:4564  merchants */\n      0x01\n        /* \"src/activeCode_10.3.sol\":4555:4575  merchants[_merchant] */\n      0x00\n        /* \"src/activeCode_10.3.sol\":4565:4574  _merchant */\n      dup3\n        /* \"src/activeCode_10.3.sol\":4555:4575  merchants[_merchant] */\n      0xffffffffffffffffffffffffffffffffffffffff\n      and\n      0xffffffffffffffffffffffffffffffffffffffff\n      and\n      dup2\n      mstore\n      0x20\n      add\n      swap1\n      dup2\n      mstore\n      0x20\n      add\n      0x00\n      keccak256\n      0x00\n        /* \"src/activeCode_10.3.sol\":4548:4575  delete merchants[_merchant] */\n      dup1\n      dup3\n      add\n      0x00\n      tag_136\n      swap2\n      swap1\n      tag_137\n      jump\t// in\n    tag_136:\n      0x01\n      dup3\n      add\n      0x00\n      tag_138\n      swap2\n      swap1\n      tag_137\n      jump\t// in\n    tag_138:\n      0x02\n      dup3\n      add\n      0x00\n      tag_139\n      swap2\n      swap1\n      tag_137\n      jump\t// in\n    tag_139:\n      0x03\n      dup3\n      add\n      0x00\n      tag_140\n      swap2\n      swap1\n      tag_137\n      jump\t// in\n    tag_140:\n      0x04\n      dup3\n      add\n      0x00\n      swap1\n      sstore\n      pop\n      pop\n        /* \"src/activeCode_10.3.sol\":4606:4615  _merchant */\n      dup1\n        /* \"src/activeCode_10.3.sol\":4590:4616  MerchantRemoved(_merchant) */\n      0xffffffffffffffffffffffffffffffffffffffff\n      and\n      0xae4bdf5adabafca6721399496d24fe50fb6564effcb386fbae92de33540763bc\n      mload(0x40)\n      mload(0x40)\n      dup1\n      swap2\n      sub\n      swap1\n      log2\n        /* \"src/activeCode_10.3.sol\":4400:4623  function removeMerchant(address _merchant) external onlyAdmin {... */\n      pop\n      jump\t// out\n        /* \"src/activeCode_10.3.sol\":2872:2911  mapping(address => bool) public isAdmin */\n    tag_39:\n      mstore(0x20, 0x05)\n      dup1\n      0x00\n      mstore\n      keccak256(0x00, 0x40)\n      0x00\n      swap2\n      pop\n      sload\n      swap1\n      0x0100\n      exp\n      swap1\n      div\n      0xff\n      and\n      dup2\n      jump\t// out\n        /* \"src/activeCode_10.3.sol\":7631:8557  function useActiveCodeInfo(uint256 _activeCode) external {... */\n    tag_44:\n        /* \"src/activeCode_10.3.sol\":7736:7783  ActiveCodeGenerator.verifyChecksum(_activeCode) */\n      tag_142\n        /* \"src/activeCode_10.3.sol\":7771:7782  _activeCode */\n      dup2\n        /* \"src/activeCode_10.3.sol\":7736:7770  ActiveCodeGenerator.verifyChecksum */\n      tag_143\n        /* \"src/activeCode_10.3.sol\":7736:7783  ActiveCodeGenerator.verifyChecksum(_activeCode) */\n      jump\t// in\n    tag_142:\n        /* \"src/activeCode_10.3.sol\":7728:7810  require(ActiveCodeGenerator.verifyChecksum(_activeCode), \"Active code not exists\") */\n      tag_144\n      jumpi\n      mload(0x40)\n      0x08c379a000000000000000000000000000000000000000000000000000000000\n      dup2\n      mstore\n      0x04\n      add\n      tag_145\n      swap1\n      tag_146\n      jump\t// in\n    tag_145:\n      mload(0x40)\n      dup1\n      swap2\n      sub\n      swap1\n      revert\n    tag_144:\n        /* \"src/activeCode_10.3.sol\":7821:7840  address deviceOwner */\n      0x00\n        /* \"src/activeCode_10.3.sol\":7843:7861  activeCodeToDevice */\n      0x03\n        /* \"src/activeCode_10.3.sol\":7843:7874  activeCodeToDevice[_activeCode] */\n      0x00\n        /* \"src/activeCode_10.3.sol\":7862:7873  _activeCode */\n      dup4\n        /* \"src/activeCode_10.3.sol\":7843:7874  activeCodeToDevice[_activeCode] */\n      dup2\n      mstore\n      0x20\n      add\n      swap1\n      dup2\n      mstore\n      0x20\n      add\n      0x00\n      keccak256\n      0x00\n      swap1\n      sload\n      swap1\n      0x0100\n      exp\n      swap1\n      div\n      0xffffffffffffffffffffffffffffffffffffffff\n      and\n        /* \"src/activeCode_10.3.sol\":7821:7874  address deviceOwner = activeCodeToDevice[_activeCode] */\n      swap1\n      pop\n        /* \"src/activeCode_10.3.sol\":7915:7916  0 */\n      0x00\n        /* \"src/activeCode_10.3.sol\":7892:7917  deviceOwner != address(0) */\n      0xffffffffffffffffffffffffffffffffffffffff\n      and\n        /* \"src/activeCode_10.3.sol\":7892:7903  deviceOwner */\n      dup2\n        /* \"src/activeCode_10.3.sol\":7892:7917  deviceOwner != address(0) */\n      0xffffffffffffffffffffffffffffffffffffffff\n      and\n      sub\n        /* \"src/activeCode_10.3.sol\":7884:7943  require(deviceOwner != address(0), \"Active code not found\") */\n      tag_147\n      jumpi\n      mload(0x40)\n      0x08c379a000000000000000000000000000000000000000000000000000000000\n      dup2\n      mstore\n      0x04\n      add\n      tag_148\n      swap1\n      tag_149\n      jump\t// in\n    tag_148:\n      mload(0x40)\n      dup1\n      swap2\n      sub\n      swap1\n      revert\n    tag_147:\n        /* \"src/activeCode_10.3.sol\":7954:7970  string memory ip */\n      0x00\n        /* \"src/activeCode_10.3.sol\":7973:7980  devices */\n      0x02\n        /* \"src/activeCode_10.3.sol\":7973:7993  devices[deviceOwner] */\n      0x00\n        /* \"src/activeCode_10.3.sol\":7981:7992  deviceOwner */\n      dup4\n        /* \"src/activeCode_10.3.sol\":7973:7993  devices[deviceOwner] */\n      0xffffffffffffffffffffffffffffffffffffffff\n      and\n      0xffffffffffffffffffffffffffffffffffffffff\n      and\n      dup2\n      mstore\n      0x20\n      add\n      swap1\n      dup2\n      mstore\n      0x20\n      add\n      0x00\n      keccak256\n        /* \"src/activeCode_10.3.sol\":7973:7996  devices[deviceOwner].IP */\n      0x00\n      add\n        /* \"src/activeCode_10.3.sol\":7954:7996  string memory ip = devices[deviceOwner].IP */\n      dup1\n      sload\n      tag_150\n      swap1\n      tag_100\n      jump\t// in\n    tag_150:\n      dup1\n      0x1f\n      add\n      0x20\n      dup1\n      swap2\n      div\n      mul\n      0x20\n      add\n      mload(0x40)\n      swap1\n      dup2\n      add\n      0x40\n      mstore\n      dup1\n      swap3\n      swap2\n      swap1\n      dup2\n      dup2\n      mstore\n      0x20\n      add\n      dup3\n      dup1\n      sload\n      tag_151\n      swap1\n      tag_100\n      jump\t// in\n    tag_151:\n      dup1\n      iszero\n      tag_152\n      jumpi\n      dup1\n      0x1f\n      lt\n      tag_153\n      jumpi\n      0x0100\n      dup1\n      dup4\n      sload\n      div\n      mul\n      dup4\n      mstore\n      swap2\n      0x20\n      add\n      swap2\n      jump(tag_152)\n    tag_153:\n      dup3\n      add\n      swap2\n      swap1\n      0x00\n      mstore\n      keccak256(0x00, 0x20)\n      swap1\n    tag_154:\n      dup2\n      sload\n      dup2\n      mstore\n      swap1\n      0x01\n      add\n      swap1\n      0x20\n      add\n      dup1\n      dup4\n      gt\n      tag_154\n      jumpi\n      dup3\n      swap1\n      sub\n      0x1f\n      and\n      dup3\n      add\n      swap2\n    tag_152:\n      pop\n      pop\n      pop\n      pop\n      pop\n      swap1\n      pop\n        /* \"src/activeCode_10.3.sol\":8060:8083  uint256[] storage codes */\n      0x00\n        /* \"src/activeCode_10.3.sol\":8086:8100  activeCodeByIP */\n      0x04\n        /* \"src/activeCode_10.3.sol\":8101:8103  ip */\n      dup3\n        /* \"src/activeCode_10.3.sol\":8086:8104  activeCodeByIP[ip] */\n      mload(0x40)\n      tag_155\n      swap2\n      swap1\n      tag_86\n      jump\t// in\n    tag_155:\n      swap1\n      dup2\n      mstore\n      0x20\n      add\n      mload(0x40)\n      dup1\n      swap2\n      sub\n      swap1\n      keccak256\n        /* \"src/activeCode_10.3.sol\":8060:8104  uint256[] storage codes = activeCodeByIP[ip] */\n      swap1\n      pop\n        /* \"src/activeCode_10.3.sol\":8119:8128  uint256 i */\n      0x00\n        /* \"src/activeCode_10.3.sol\":8114:8402  for (uint256 i = 0; i < codes.length; i++) {... */\n    tag_156:\n        /* \"src/activeCode_10.3.sol\":8138:8143  codes */\n      dup2\n        /* \"src/activeCode_10.3.sol\":8138:8150  codes.length */\n      dup1\n      sload\n      swap1\n      pop\n        /* \"src/activeCode_10.3.sol\":8134:8135  i */\n      dup2\n        /* \"src/activeCode_10.3.sol\":8134:8150  i < codes.length */\n      lt\n        /* \"src/activeCode_10.3.sol\":8114:8402  for (uint256 i = 0; i < codes.length; i++) {... */\n      iszero\n      tag_157\n      jumpi\n        /* \"src/activeCode_10.3.sol\":8187:8198  _activeCode */\n      dup5\n        /* \"src/activeCode_10.3.sol\":8175:8180  codes */\n      dup3\n        /* \"src/activeCode_10.3.sol\":8181:8182  i */\n      dup3\n        /* \"src/activeCode_10.3.sol\":8175:8183  codes[i] */\n      dup2\n      sload\n      dup2\n      lt\n      tag_159\n      jumpi\n      tag_160\n      tag_96\n      jump\t// in\n    tag_160:\n    tag_159:\n      swap1\n      0x00\n      mstore\n      keccak256(0x00, 0x20)\n      add\n      sload\n        /* \"src/activeCode_10.3.sol\":8175:8198  codes[i] == _activeCode */\n      sub\n        /* \"src/activeCode_10.3.sol\":8171:8392  if (codes[i] == _activeCode) {... */\n      tag_162\n      jumpi\n        /* \"src/activeCode_10.3.sol\":8229:8234  codes */\n      dup2\n        /* \"src/activeCode_10.3.sol\":8250:8251  1 */\n      0x01\n        /* \"src/activeCode_10.3.sol\":8235:8240  codes */\n      dup4\n        /* \"src/activeCode_10.3.sol\":8235:8247  codes.length */\n      dup1\n      sload\n      swap1\n      pop\n        /* \"src/activeCode_10.3.sol\":8235:8251  codes.length - 1 */\n      tag_163\n      swap2\n      swap1\n      tag_164\n      jump\t// in\n    tag_163:\n        /* \"src/activeCode_10.3.sol\":8229:8252  codes[codes.length - 1] */\n      dup2\n      sload\n      dup2\n      lt\n      tag_165\n      jumpi\n      tag_166\n      tag_96\n      jump\t// in\n    tag_166:\n    tag_165:\n      swap1\n      0x00\n      mstore\n      keccak256(0x00, 0x20)\n      add\n      sload\n        /* \"src/activeCode_10.3.sol\":8218:8223  codes */\n      dup3\n        /* \"src/activeCode_10.3.sol\":8224:8225  i */\n      dup3\n        /* \"src/activeCode_10.3.sol\":8218:8226  codes[i] */\n      dup2\n      sload\n      dup2\n      lt\n      tag_168\n      jumpi\n      tag_169\n      tag_96\n      jump\t// in\n    tag_169:\n    tag_168:\n      swap1\n      0x00\n      mstore\n      keccak256(0x00, 0x20)\n      add\n        /* \"src/activeCode_10.3.sol\":8218:8252  codes[i] = codes[codes.length - 1] */\n      dup2\n      swap1\n      sstore\n      pop\n        /* \"src/activeCode_10.3.sol\":8316:8321  codes */\n      dup2\n        /* \"src/activeCode_10.3.sol\":8316:8327  codes.pop() */\n      dup1\n      sload\n      dup1\n      tag_171\n      jumpi\n      tag_172\n      tag_173\n      jump\t// in\n    tag_172:\n    tag_171:\n      0x01\n      swap1\n      sub\n      dup2\n      dup2\n      swap1\n      0x00\n      mstore\n      keccak256(0x00, 0x20)\n      add\n      0x00\n      swap1\n      sstore\n      swap1\n      sstore\n        /* \"src/activeCode_10.3.sol\":8372:8377  break */\n      jump(tag_157)\n        /* \"src/activeCode_10.3.sol\":8171:8392  if (codes[i] == _activeCode) {... */\n    tag_162:\n        /* \"src/activeCode_10.3.sol\":8152:8155  i++ */\n      dup1\n      dup1\n      0x01\n      add\n      swap2\n      pop\n      pop\n        /* \"src/activeCode_10.3.sol\":8114:8402  for (uint256 i = 0; i < codes.length; i++) {... */\n      jump(tag_156)\n    tag_157:\n      pop\n        /* \"src/activeCode_10.3.sol\":8427:8434  devices */\n      0x02\n        /* \"src/activeCode_10.3.sol\":8427:8447  devices[deviceOwner] */\n      0x00\n        /* \"src/activeCode_10.3.sol\":8435:8446  deviceOwner */\n      dup5\n        /* \"src/activeCode_10.3.sol\":8427:8447  devices[deviceOwner] */\n      0xffffffffffffffffffffffffffffffffffffffff\n      and\n      0xffffffffffffffffffffffffffffffffffffffff\n      and\n      dup2\n      mstore\n      0x20\n      add\n      swap1\n      dup2\n      mstore\n      0x20\n      add\n      0x00\n      keccak256\n      0x00\n        /* \"src/activeCode_10.3.sol\":8420:8447  delete devices[deviceOwner] */\n      dup1\n      dup3\n      add\n      0x00\n      tag_175\n      swap2\n      swap1\n      tag_137\n      jump\t// in\n    tag_175:\n      0x01\n      dup3\n      add\n      0x00\n      tag_176\n      swap2\n      swap1\n      tag_137\n      jump\t// in\n    tag_176:\n      0x02\n      dup3\n      add\n      0x00\n      tag_177\n      swap2\n      swap1\n      tag_137\n      jump\t// in\n    tag_177:\n      0x03\n      dup3\n      add\n      0x00\n      tag_178\n      swap2\n      swap1\n      tag_137\n      jump\t// in\n    tag_178:\n      0x04\n      dup3\n      add\n      0x00\n      tag_179\n      swap2\n      swap1\n      tag_137\n      jump\t// in\n    tag_179:\n      0x05\n      dup3\n      add\n      0x00\n      swap1\n      sstore\n      0x06\n      dup3\n      add\n      0x00\n      swap1\n      sstore\n      pop\n      pop\n        /* \"src/activeCode_10.3.sol\":8464:8482  activeCodeToDevice */\n      0x03\n        /* \"src/activeCode_10.3.sol\":8464:8495  activeCodeToDevice[_activeCode] */\n      0x00\n        /* \"src/activeCode_10.3.sol\":8483:8494  _activeCode */\n      dup6\n        /* \"src/activeCode_10.3.sol\":8464:8495  activeCodeToDevice[_activeCode] */\n      dup2\n      mstore\n      0x20\n      add\n      swap1\n      dup2\n      mstore\n      0x20\n      add\n      0x00\n      keccak256\n      0x00\n        /* \"src/activeCode_10.3.sol\":8457:8495  delete activeCodeToDevice[_activeCode] */\n      0x0100\n      exp\n      dup2\n      sload\n      swap1\n      0xffffffffffffffffffffffffffffffffffffffff\n      mul\n      not\n      and\n      swap1\n      sstore\n        /* \"src/activeCode_10.3.sol\":8525:8536  deviceOwner */\n      dup3\n        /* \"src/activeCode_10.3.sol\":8510:8550  ActiveCodeUsed(deviceOwner, _activeCode) */\n      0xffffffffffffffffffffffffffffffffffffffff\n      and\n      0xe9f653ab6dbfccfbf599e332a5cf4aa24c7d943d1fa32b4607a0ecc6063b3c04\n        /* \"src/activeCode_10.3.sol\":8538:8549  _activeCode */\n      dup6\n        /* \"src/activeCode_10.3.sol\":8510:8550  ActiveCodeUsed(deviceOwner, _activeCode) */\n      mload(0x40)\n      tag_180\n      swap2\n      swap1\n      tag_52\n      jump\t// in\n    tag_180:\n      mload(0x40)\n      dup1\n      swap2\n      sub\n      swap1\n      log2\n        /* \"src/activeCode_10.3.sol\":7688:8557  {... */\n      pop\n      pop\n      pop\n        /* \"src/activeCode_10.3.sol\":7631:8557  function useActiveCodeInfo(uint256 _activeCode) external {... */\n      pop\n      jump\t// out\n        /* \"src/activeCode_10.3.sol\":8567:8792  function removeExpiredData() external onlyAdmin {... */\n    tag_46:\n        /* \"src/activeCode_10.3.sol\":3075:3079  true */\n      0x01\n        /* \"src/activeCode_10.3.sol\":3052:3079  isAdmin[msg.sender] == true */\n      iszero\n      iszero\n        /* \"src/activeCode_10.3.sol\":3052:3059  isAdmin */\n      0x05\n        /* \"src/activeCode_10.3.sol\":3052:3071  isAdmin[msg.sender] */\n      0x00\n        /* \"src/activeCode_10.3.sol\":3060:3070  msg.sender */\n      caller\n        /* \"src/activeCode_10.3.sol\":3052:3071  isAdmin[msg.sender] */\n      0xffffffffffffffffffffffffffffffffffffffff\n      and\n      0xffffffffffffffffffffffffffffffffffffffff\n      and\n      dup2\n      mstore\n      0x20\n      add\n      swap1\n      dup2\n      mstore\n      0x20\n      add\n      0x00\n      keccak256\n      0x00\n      swap1\n      sload\n      swap1\n      0x0100\n      exp\n      swap1\n      div\n      0xff\n      and\n        /* \"src/activeCode_10.3.sol\":3052:3079  isAdmin[msg.sender] == true */\n      iszero\n      iszero\n      eq\n        /* \"src/activeCode_10.3.sol\":3044:3099  require(isAdmin[msg.sender] == true , \"Not authorized\") */\n      tag_182\n      jumpi\n      mload(0x40)\n      0x08c379a000000000000000000000000000000000000000000000000000000000\n      dup2\n      mstore\n      0x04\n      add\n      tag_183\n      swap1\n      tag_131\n      jump\t// in\n    tag_183:\n      mload(0x40)\n      dup1\n      swap2\n      sub\n      swap1\n      revert\n    tag_182:\n        /* \"src/activeCode_10.3.sol\":8625:8644  address deviceOwner */\n      0x00\n        /* \"src/activeCode_10.3.sol\":8647:8657  msg.sender */\n      caller\n        /* \"src/activeCode_10.3.sol\":8625:8657  address deviceOwner = msg.sender */\n      swap1\n      pop\n        /* \"src/activeCode_10.3.sol\":8722:8732  15 minutes */\n      0x0384\n        /* \"src/activeCode_10.3.sol\":8689:8696  devices */\n      0x02\n        /* \"src/activeCode_10.3.sol\":8689:8709  devices[deviceOwner] */\n      0x00\n        /* \"src/activeCode_10.3.sol\":8697:8708  deviceOwner */\n      dup4\n        /* \"src/activeCode_10.3.sol\":8689:8709  devices[deviceOwner] */\n      0xffffffffffffffffffffffffffffffffffffffff\n      and\n      0xffffffffffffffffffffffffffffffffffffffff\n      and\n      dup2\n      mstore\n      0x20\n      add\n      swap1\n      dup2\n      mstore\n      0x20\n      add\n      0x00\n      keccak256\n        /* \"src/activeCode_10.3.sol\":8689:8719  devices[deviceOwner].timestamp */\n      0x06\n      add\n      sload\n        /* \"src/activeCode_10.3.sol\":8671:8686  block.timestamp */\n      timestamp\n        /* \"src/activeCode_10.3.sol\":8671:8719  block.timestamp - devices[deviceOwner].timestamp */\n      tag_185\n      swap2\n      swap1\n      tag_164\n      jump\t// in\n    tag_185:\n        /* \"src/activeCode_10.3.sol\":8671:8732  block.timestamp - devices[deviceOwner].timestamp > 15 minutes */\n      gt\n        /* \"src/activeCode_10.3.sol\":8667:8786  if (block.timestamp - devices[deviceOwner].timestamp > 15 minutes) {... */\n      iszero\n      tag_186\n      jumpi\n        /* \"src/activeCode_10.3.sol\":8755:8762  devices */\n      0x02\n        /* \"src/activeCode_10.3.sol\":8755:8775  devices[deviceOwner] */\n      0x00\n        /* \"src/activeCode_10.3.sol\":8763:8774  deviceOwner */\n      dup3\n        /* \"src/activeCode_10.3.sol\":8755:8775  devices[deviceOwner] */\n      0xffffffffffffffffffffffffffffffffffffffff\n      and\n      0xffffffffffffffffffffffffffffffffffffffff\n      and\n      dup2\n      mstore\n      0x20\n      add\n      swap1\n      dup2\n      mstore\n      0x20\n      add\n      0x00\n      keccak256\n      0x00\n        /* \"src/activeCode_10.3.sol\":8748:8775  delete devices[deviceOwner] */\n      dup1\n      dup3\n      add\n      0x00\n      tag_187\n      swap2\n      swap1\n      tag_137\n      jump\t// in\n    tag_187:\n      0x01\n      dup3\n      add\n      0x00\n      tag_188\n      swap2\n      swap1\n      tag_137\n      jump\t// in\n    tag_188:\n      0x02\n      dup3\n      add\n      0x00\n      tag_189\n      swap2\n      swap1\n      tag_137\n      jump\t// in\n    tag_189:\n      0x03\n      dup3\n      add\n      0x00\n      tag_190\n      swap2\n      swap1\n      tag_137\n      jump\t// in\n    tag_190:\n      0x04\n      dup3\n      add\n      0x00\n      tag_191\n      swap2\n      swap1\n      tag_137\n      jump\t// in\n    tag_191:\n      0x05\n      dup3\n      add\n      0x00\n      swap1\n      sstore\n      0x06\n      dup3\n      add\n      0x00\n      swap1\n      sstore\n      pop\n      pop\n        /* \"src/activeCode_10.3.sol\":8667:8786  if (block.timestamp - devices[deviceOwner].timestamp > 15 minutes) {... */\n    tag_186:\n        /* \"src/activeCode_10.3.sol\":8615:8792  {... */\n      pop\n        /* \"src/activeCode_10.3.sol\":8567:8792  function removeExpiredData() external onlyAdmin {... */\n      jump\t// out\n        /* \"src/activeCode_10.3.sol\":4643:5341  function registerDevice(string memory _IP, string memory _screenSize, string memory _os, string memory _versionOs, string memory _refCode) external returns (uint256) {... */\n    tag_50:\n        /* \"src/activeCode_10.3.sol\":4800:4807  uint256 */\n      0x00\n        /* \"src/activeCode_10.3.sol\":4819:4837  uint256 activeCode */\n      dup1\n        /* \"src/activeCode_10.3.sol\":4840:4880  ActiveCodeGenerator.generateActiveCode() */\n      tag_193\n        /* \"src/activeCode_10.3.sol\":4840:4878  ActiveCodeGenerator.generateActiveCode */\n      tag_194\n        /* \"src/activeCode_10.3.sol\":4840:4880  ActiveCodeGenerator.generateActiveCode() */\n      jump\t// in\n    tag_193:\n        /* \"src/activeCode_10.3.sol\":4819:4880  uint256 activeCode = ActiveCodeGenerator.generateActiveCode() */\n      swap1\n      pop\n        /* \"src/activeCode_10.3.sol\":4912:5151  Device({... */\n      mload(0x40)\n      dup1\n      0xe0\n      add\n      0x40\n      mstore\n      dup1\n        /* \"src/activeCode_10.3.sol\":4937:4940  _IP */\n      dup9\n        /* \"src/activeCode_10.3.sol\":4912:5151  Device({... */\n      dup2\n      mstore\n      0x20\n      add\n        /* \"src/activeCode_10.3.sol\":4966:4977  _screenSize */\n      dup8\n        /* \"src/activeCode_10.3.sol\":4912:5151  Device({... */\n      dup2\n      mstore\n      0x20\n      add\n        /* \"src/activeCode_10.3.sol\":4995:4998  _os */\n      dup7\n        /* \"src/activeCode_10.3.sol\":4912:5151  Device({... */\n      dup2\n      mstore\n      0x20\n      add\n        /* \"src/activeCode_10.3.sol\":5023:5033  _versionOs */\n      dup6\n        /* \"src/activeCode_10.3.sol\":4912:5151  Device({... */\n      dup2\n      mstore\n      0x20\n      add\n        /* \"src/activeCode_10.3.sol\":5056:5064  _refCode */\n      dup5\n        /* \"src/activeCode_10.3.sol\":4912:5151  Device({... */\n      dup2\n      mstore\n      0x20\n      add\n        /* \"src/activeCode_10.3.sol\":5090:5100  activeCode */\n      dup3\n        /* \"src/activeCode_10.3.sol\":4912:5151  Device({... */\n      dup2\n      mstore\n      0x20\n      add\n        /* \"src/activeCode_10.3.sol\":5125:5140  block.timestamp */\n      timestamp\n        /* \"src/activeCode_10.3.sol\":4912:5151  Device({... */\n      dup2\n      mstore\n      pop\n        /* \"src/activeCode_10.3.sol\":4890:4897  devices */\n      0x02\n        /* \"src/activeCode_10.3.sol\":4890:4909  devices[msg.sender] */\n      0x00\n        /* \"src/activeCode_10.3.sol\":4898:4908  msg.sender */\n      caller\n        /* \"src/activeCode_10.3.sol\":4890:4909  devices[msg.sender] */\n      0xffffffffffffffffffffffffffffffffffffffff\n      and\n      0xffffffffffffffffffffffffffffffffffffffff\n      and\n      dup2\n      mstore\n      0x20\n      add\n      swap1\n      dup2\n      mstore\n      0x20\n      add\n      0x00\n      keccak256\n        /* \"src/activeCode_10.3.sol\":4890:5151  devices[msg.sender] = Device({... */\n      0x00\n      dup3\n      add\n      mload\n      dup2\n      0x00\n      add\n      swap1\n      dup2\n      tag_195\n      swap2\n      swap1\n      tag_196\n      jump\t// in\n    tag_195:\n      pop\n      0x20\n      dup3\n      add\n      mload\n      dup2\n      0x01\n      add\n      swap1\n      dup2\n      tag_197\n      swap2\n      swap1\n      tag_196\n      jump\t// in\n    tag_197:\n      pop\n      0x40\n      dup3\n      add\n      mload\n      dup2\n      0x02\n      add\n      swap1\n      dup2\n      tag_198\n      swap2\n      swap1\n      tag_196\n      jump\t// in\n    tag_198:\n      pop\n      0x60\n      dup3\n      add\n      mload\n      dup2\n      0x03\n      add\n      swap1\n      dup2\n      tag_199\n      swap2\n      swap1\n      tag_196\n      jump\t// in\n    tag_199:\n      pop\n      0x80\n      dup3\n      add\n      mload\n      dup2\n      0x04\n      add\n      swap1\n      dup2\n      tag_200\n      swap2\n      swap1\n      tag_196\n      jump\t// in\n    tag_200:\n      pop\n      0xa0\n      dup3\n      add\n      mload\n      dup2\n      0x05\n      add\n      sstore\n      0xc0\n      dup3\n      add\n      mload\n      dup2\n      0x06\n      add\n      sstore\n      swap1\n      pop\n      pop\n        /* \"src/activeCode_10.3.sol\":5194:5204  msg.sender */\n      caller\n        /* \"src/activeCode_10.3.sol\":5161:5179  activeCodeToDevice */\n      0x03\n        /* \"src/activeCode_10.3.sol\":5161:5191  activeCodeToDevice[activeCode] */\n      0x00\n        /* \"src/activeCode_10.3.sol\":5180:5190  activeCode */\n      dup4\n        /* \"src/activeCode_10.3.sol\":5161:5191  activeCodeToDevice[activeCode] */\n      dup2\n      mstore\n      0x20\n      add\n      swap1\n      dup2\n      mstore\n      0x20\n      add\n      0x00\n      keccak256\n      0x00\n        /* \"src/activeCode_10.3.sol\":5161:5204  activeCodeToDevice[activeCode] = msg.sender */\n      0x0100\n      exp\n      dup2\n      sload\n      dup2\n      0xffffffffffffffffffffffffffffffffffffffff\n      mul\n      not\n      and\n      swap1\n      dup4\n      0xffffffffffffffffffffffffffffffffffffffff\n      and\n      mul\n      or\n      swap1\n      sstore\n      pop\n        /* \"src/activeCode_10.3.sol\":5214:5228  activeCodeByIP */\n      0x04\n        /* \"src/activeCode_10.3.sol\":5229:5232  _IP */\n      dup8\n        /* \"src/activeCode_10.3.sol\":5214:5233  activeCodeByIP[_IP] */\n      mload(0x40)\n      tag_201\n      swap2\n      swap1\n      tag_86\n      jump\t// in\n    tag_201:\n      swap1\n      dup2\n      mstore\n      0x20\n      add\n      mload(0x40)\n      dup1\n      swap2\n      sub\n      swap1\n      keccak256\n        /* \"src/activeCode_10.3.sol\":5239:5249  activeCode */\n      dup2\n        /* \"src/activeCode_10.3.sol\":5214:5250  activeCodeByIP[_IP].push(activeCode) */\n      swap1\n      dup1\n      0x01\n      dup2\n      sload\n      add\n      dup1\n      dup3\n      sstore\n      dup1\n      swap2\n      pop\n      pop\n      0x01\n      swap1\n      sub\n      swap1\n      0x00\n      mstore\n      keccak256(0x00, 0x20)\n      add\n      0x00\n      swap1\n      swap2\n      swap1\n      swap2\n      swap1\n      swap2\n      pop\n      sstore\n        /* \"src/activeCode_10.3.sol\":5283:5293  msg.sender */\n      caller\n        /* \"src/activeCode_10.3.sol\":5266:5306  DeviceRegistered(msg.sender, activeCode) */\n      0xffffffffffffffffffffffffffffffffffffffff\n      and\n      0x0ec66eac7cc2b6555e1742961a9ee17e918d7ff81b635fac9cc6833245d279d6\n        /* \"src/activeCode_10.3.sol\":5295:5305  activeCode */\n      dup3\n        /* \"src/activeCode_10.3.sol\":5266:5306  DeviceRegistered(msg.sender, activeCode) */\n      mload(0x40)\n      tag_203\n      swap2\n      swap1\n      tag_52\n      jump\t// in\n    tag_203:\n      mload(0x40)\n      dup1\n      swap2\n      sub\n      swap1\n      log2\n        /* \"src/activeCode_10.3.sol\":5324:5334  activeCode */\n      dup1\n        /* \"src/activeCode_10.3.sol\":5317:5334  return activeCode */\n      swap2\n      pop\n      pop\n        /* \"src/activeCode_10.3.sol\":4643:5341  function registerDevice(string memory _IP, string memory _screenSize, string memory _os, string memory _versionOs, string memory _refCode) external returns (uint256) {... */\n      swap6\n      swap5\n      pop\n      pop\n      pop\n      pop\n      pop\n      jump\t// out\n        /* \"src/activeCode_10.3.sol\":3281:3371  function setAdmin(address _admin)external onlyAdmin{... */\n    tag_55:\n        /* \"src/activeCode_10.3.sol\":3075:3079  true */\n      0x01\n        /* \"src/activeCode_10.3.sol\":3052:3079  isAdmin[msg.sender] == true */\n      iszero\n      iszero\n        /* \"src/activeCode_10.3.sol\":3052:3059  isAdmin */\n      0x05\n        /* \"src/activeCode_10.3.sol\":3052:3071  isAdmin[msg.sender] */\n      0x00\n        /* \"src/activeCode_10.3.sol\":3060:3070  msg.sender */\n      caller\n        /* \"src/activeCode_10.3.sol\":3052:3071  isAdmin[msg.sender] */\n      0xffffffffffffffffffffffffffffffffffffffff\n      and\n      0xffffffffffffffffffffffffffffffffffffffff\n      and\n      dup2\n      mstore\n      0x20\n      add\n      swap1\n      dup2\n      mstore\n      0x20\n      add\n      0x00\n      keccak256\n      0x00\n      swap1\n      sload\n      swap1\n      0x0100\n      exp\n      swap1\n      div\n      0xff\n      and\n        /* \"src/activeCode_10.3.sol\":3052:3079  isAdmin[msg.sender] == true */\n      iszero\n      iszero\n      eq\n        /* \"src/activeCode_10.3.sol\":3044:3099  require(isAdmin[msg.sender] == true , \"Not authorized\") */\n      tag_205\n      jumpi\n      mload(0x40)\n      0x08c379a000000000000000000000000000000000000000000000000000000000\n      dup2\n      mstore\n      0x04\n      add\n      tag_206\n      swap1\n      tag_131\n      jump\t// in\n    tag_206:\n      mload(0x40)\n      dup1\n      swap2\n      sub\n      swap1\n      revert\n    tag_205:\n        /* \"src/activeCode_10.3.sol\":3360:3364  true */\n      0x01\n        /* \"src/activeCode_10.3.sol\":3342:3349  isAdmin */\n      0x05\n        /* \"src/activeCode_10.3.sol\":3342:3357  isAdmin[_admin] */\n      0x00\n        /* \"src/activeCode_10.3.sol\":3350:3356  _admin */\n      dup4\n        /* \"src/activeCode_10.3.sol\":3342:3357  isAdmin[_admin] */\n      0xffffffffffffffffffffffffffffffffffffffff\n      and\n      0xffffffffffffffffffffffffffffffffffffffff\n      and\n      dup2\n      mstore\n      0x20\n      add\n      swap1\n      dup2\n      mstore\n      0x20\n      add\n      0x00\n      keccak256\n      0x00\n        /* \"src/activeCode_10.3.sol\":3342:3364  isAdmin[_admin] = true */\n      0x0100\n      exp\n      dup2\n      sload\n      dup2\n      0xff\n      mul\n      not\n      and\n      swap1\n      dup4\n      iszero\n      iszero\n      mul\n      or\n      swap1\n      sstore\n      pop\n        /* \"src/activeCode_10.3.sol\":3281:3371  function setAdmin(address _admin)external onlyAdmin{... */\n      pop\n      jump\t// out\n        /* \"src/activeCode_10.3.sol\":1927:1947  address public owner */\n    tag_57:\n      0x00\n      dup1\n      sload\n      swap1\n      0x0100\n      exp\n      swap1\n      div\n      0xffffffffffffffffffffffffffffffffffffffff\n      and\n      dup2\n      jump\t// out\n        /* \"src/activeCode_10.3.sol\":7184:7620  function getActiveCodeInfo(uint256 _activeCode) external view returns (Merchant memory, Device memory) {... */\n    tag_61:\n        /* \"src/activeCode_10.3.sol\":7255:7270  Merchant memory */\n      tag_208\n      tag_209\n      jump\t// in\n    tag_208:\n        /* \"src/activeCode_10.3.sol\":7272:7285  Device memory */\n      tag_210\n      tag_211\n      jump\t// in\n    tag_210:\n        /* \"src/activeCode_10.3.sol\":7335:7382  ActiveCodeGenerator.verifyChecksum(_activeCode) */\n      tag_213\n        /* \"src/activeCode_10.3.sol\":7370:7381  _activeCode */\n      dup4\n        /* \"src/activeCode_10.3.sol\":7335:7369  ActiveCodeGenerator.verifyChecksum */\n      tag_143\n        /* \"src/activeCode_10.3.sol\":7335:7382  ActiveCodeGenerator.verifyChecksum(_activeCode) */\n      jump\t// in\n    tag_213:\n        /* \"src/activeCode_10.3.sol\":7327:7409  require(ActiveCodeGenerator.verifyChecksum(_activeCode), \"Active code not exists\") */\n      tag_214\n      jumpi\n      mload(0x40)\n      0x08c379a000000000000000000000000000000000000000000000000000000000\n      dup2\n      mstore\n      0x04\n      add\n      tag_215\n      swap1\n      tag_146\n      jump\t// in\n    tag_215:\n      mload(0x40)\n      dup1\n      swap2\n      sub\n      swap1\n      revert\n    tag_214:\n        /* \"src/activeCode_10.3.sol\":7428:7447  address deviceOwner */\n      0x00\n        /* \"src/activeCode_10.3.sol\":7450:7468  activeCodeToDevice */\n      0x03\n        /* \"src/activeCode_10.3.sol\":7450:7481  activeCodeToDevice[_activeCode] */\n      0x00\n        /* \"src/activeCode_10.3.sol\":7469:7480  _activeCode */\n      dup6\n        /* \"src/activeCode_10.3.sol\":7450:7481  activeCodeToDevice[_activeCode] */\n      dup2\n      mstore\n      0x20\n      add\n      swap1\n      dup2\n      mstore\n      0x20\n      add\n      0x00\n      keccak256\n      0x00\n      swap1\n      sload\n      swap1\n      0x0100\n      exp\n      swap1\n      div\n      0xffffffffffffffffffffffffffffffffffffffff\n      and\n        /* \"src/activeCode_10.3.sol\":7428:7481  address deviceOwner = activeCodeToDevice[_activeCode] */\n      swap1\n      pop\n        /* \"src/activeCode_10.3.sol\":7522:7523  0 */\n      0x00\n        /* \"src/activeCode_10.3.sol\":7499:7524  deviceOwner != address(0) */\n      0xffffffffffffffffffffffffffffffffffffffff\n      and\n        /* \"src/activeCode_10.3.sol\":7499:7510  deviceOwner */\n      dup2\n        /* \"src/activeCode_10.3.sol\":7499:7524  deviceOwner != address(0) */\n      0xffffffffffffffffffffffffffffffffffffffff\n      and\n      sub\n        /* \"src/activeCode_10.3.sol\":7491:7550  require(deviceOwner != address(0), \"Active code not found\") */\n      tag_216\n      jumpi\n      mload(0x40)\n      0x08c379a000000000000000000000000000000000000000000000000000000000\n      dup2\n      mstore\n      0x04\n      add\n      tag_217\n      swap1\n      tag_149\n      jump\t// in\n    tag_217:\n      mload(0x40)\n      dup1\n      swap2\n      sub\n      swap1\n      revert\n    tag_216:\n        /* \"src/activeCode_10.3.sol\":7568:7577  merchants */\n      0x01\n        /* \"src/activeCode_10.3.sol\":7568:7590  merchants[deviceOwner] */\n      0x00\n        /* \"src/activeCode_10.3.sol\":7578:7589  deviceOwner */\n      dup3\n        /* \"src/activeCode_10.3.sol\":7568:7590  merchants[deviceOwner] */\n      0xffffffffffffffffffffffffffffffffffffffff\n      and\n      0xffffffffffffffffffffffffffffffffffffffff\n      and\n      dup2\n      mstore\n      0x20\n      add\n      swap1\n      dup2\n      mstore\n      0x20\n      add\n      0x00\n      keccak256\n        /* \"src/activeCode_10.3.sol\":7592:7599  devices */\n      0x02\n        /* \"src/activeCode_10.3.sol\":7592:7612  devices[deviceOwner] */\n      0x00\n        /* \"src/activeCode_10.3.sol\":7600:7611  deviceOwner */\n      dup4\n        /* \"src/activeCode_10.3.sol\":7592:7612  devices[deviceOwner] */\n      0xffffffffffffffffffffffffffffffffffffffff\n      and\n      0xffffffffffffffffffffffffffffffffffffffff\n      and\n      dup2\n      mstore\n      0x20\n      add\n      swap1\n      dup2\n      mstore\n      0x20\n      add\n      0x00\n      keccak256\n        /* \"src/activeCode_10.3.sol\":7560:7613  return (merchants[deviceOwner], devices[deviceOwner]) */\n      dup2\n      mload(0x40)\n      dup1\n      0xa0\n      add\n      0x40\n      mstore\n      swap1\n      dup2\n      0x00\n      dup3\n      add\n      dup1\n      sload\n      tag_218\n      swap1\n      tag_100\n      jump\t// in\n    tag_218:\n      dup1\n      0x1f\n      add\n      0x20\n      dup1\n      swap2\n      div\n      mul\n      0x20\n      add\n      mload(0x40)\n      swap1\n      dup2\n      add\n      0x40\n      mstore\n      dup1\n      swap3\n      swap2\n      swap1\n      dup2\n      dup2\n      mstore\n      0x20\n      add\n      dup3\n      dup1\n      sload\n      tag_219\n      swap1\n      tag_100\n      jump\t// in\n    tag_219:\n      dup1\n      iszero\n      tag_220\n      jumpi\n      dup1\n      0x1f\n      lt\n      tag_221\n      jumpi\n      0x0100\n      dup1\n      dup4\n      sload\n      div\n      mul\n      dup4\n      mstore\n      swap2\n      0x20\n      add\n      swap2\n      jump(tag_220)\n    tag_221:\n      dup3\n      add\n      swap2\n      swap1\n      0x00\n      mstore\n      keccak256(0x00, 0x20)\n      swap1\n    tag_222:\n      dup2\n      sload\n      dup2\n      mstore\n      swap1\n      0x01\n      add\n      swap1\n      0x20\n      add\n      dup1\n      dup4\n      gt\n      tag_222\n      jumpi\n      dup3\n      swap1\n      sub\n      0x1f\n      and\n      dup3\n      add\n      swap2\n    tag_220:\n      pop\n      pop\n      pop\n      pop\n      pop\n      dup2\n      mstore\n      0x20\n      add\n      0x01\n      dup3\n      add\n      dup1\n      sload\n      tag_223\n      swap1\n      tag_100\n      jump\t// in\n    tag_223:\n      dup1\n      0x1f\n      add\n      0x20\n      dup1\n      swap2\n      div\n      mul\n      0x20\n      add\n      mload(0x40)\n      swap1\n      dup2\n      add\n      0x40\n      mstore\n      dup1\n      swap3\n      swap2\n      swap1\n      dup2\n      dup2\n      mstore\n      0x20\n      add\n      dup3\n      dup1\n      sload\n      tag_224\n      swap1\n      tag_100\n      jump\t// in\n    tag_224:\n      dup1\n      iszero\n      tag_225\n      jumpi\n      dup1\n      0x1f\n      lt\n      tag_226\n      jumpi\n      0x0100\n      dup1\n      dup4\n      sload\n      div\n      mul\n      dup4\n      mstore\n      swap2\n      0x20\n      add\n      swap2\n      jump(tag_225)\n    tag_226:\n      dup3\n      add\n      swap2\n      swap1\n      0x00\n      mstore\n      keccak256(0x00, 0x20)\n      swap1\n    tag_227:\n      dup2\n      sload\n      dup2\n      mstore\n      swap1\n      0x01\n      add\n      swap1\n      0x20\n      add\n      dup1\n      dup4\n      gt\n      tag_227\n      jumpi\n      dup3\n      swap1\n      sub\n      0x1f\n      and\n      dup3\n      add\n      swap2\n    tag_225:\n      pop\n      pop\n      pop\n      pop\n      pop\n      dup2\n      mstore\n      0x20\n      add\n      0x02\n      dup3\n      add\n      dup1\n      sload\n      tag_228\n      swap1\n      tag_100\n      jump\t// in\n    tag_228:\n      dup1\n      0x1f\n      add\n      0x20\n      dup1\n      swap2\n      div\n      mul\n      0x20\n      add\n      mload(0x40)\n      swap1\n      dup2\n      add\n      0x40\n      mstore\n      dup1\n      swap3\n      swap2\n      swap1\n      dup2\n      dup2\n      mstore\n      0x20\n      add\n      dup3\n      dup1\n      sload\n      tag_229\n      swap1\n      tag_100\n      jump\t// in\n    tag_229:\n      dup1\n      iszero\n      tag_230\n      jumpi\n      dup1\n      0x1f\n      lt\n      tag_231\n      jumpi\n      0x0100\n      dup1\n      dup4\n      sload\n      div\n      mul\n      dup4\n      mstore\n      swap2\n      0x20\n      add\n      swap2\n      jump(tag_230)\n    tag_231:\n      dup3\n      add\n      swap2\n      swap1\n      0x00\n      mstore\n      keccak256(0x00, 0x20)\n      swap1\n    tag_232:\n      dup2\n      sload\n      dup2\n      mstore\n      swap1\n      0x01\n      add\n      swap1\n      0x20\n      add\n      dup1\n      dup4\n      gt\n      tag_232\n      jumpi\n      dup3\n      swap1\n      sub\n      0x1f\n      and\n      dup3\n      add\n      swap2\n    tag_230:\n      pop\n      pop\n      pop\n      pop\n      pop\n      dup2\n      mstore\n      0x20\n      add\n      0x03\n      dup3\n      add\n      dup1\n      sload\n      tag_233\n      swap1\n      tag_100\n      jump\t// in\n    tag_233:\n      dup1\n      0x1f\n      add\n      0x20\n      dup1\n      swap2\n      div\n      mul\n      0x20\n      add\n      mload(0x40)\n      swap1\n      dup2\n      add\n      0x40\n      mstore\n      dup1\n      swap3\n      swap2\n      swap1\n      dup2\n      dup2\n      mstore\n      0x20\n      add\n      dup3\n      dup1\n      sload\n      tag_234\n      swap1\n      tag_100\n      jump\t// in\n    tag_234:\n      dup1\n      iszero\n      tag_235\n      jumpi\n      dup1\n      0x1f\n      lt\n      tag_236\n      jumpi\n      0x0100\n      dup1\n      dup4\n      sload\n      div\n      mul\n      dup4\n      mstore\n      swap2\n      0x20\n      add\n      swap2\n      jump(tag_235)\n    tag_236:\n      dup3\n      add\n      swap2\n      swap1\n      0x00\n      mstore\n      keccak256(0x00, 0x20)\n      swap1\n    tag_237:\n      dup2\n      sload\n      dup2\n      mstore\n      swap1\n      0x01\n      add\n      swap1\n      0x20\n      add\n      dup1\n      dup4\n      gt\n      tag_237\n      jumpi\n      dup3\n      swap1\n      sub\n      0x1f\n      and\n      dup3\n      add\n      swap2\n    tag_235:\n      pop\n      pop\n      pop\n      pop\n      pop\n      dup2\n      mstore\n      0x20\n      add\n      0x04\n      dup3\n      add\n      sload\n      dup2\n      mstore\n      pop\n      pop\n      swap2\n      pop\n      dup1\n      mload(0x40)\n      dup1\n      0xe0\n      add\n      0x40\n      mstore\n      swap1\n      dup2\n      0x00\n      dup3\n      add\n      dup1\n      sload\n      tag_238\n      swap1\n      tag_100\n      jump\t// in\n    tag_238:\n      dup1\n      0x1f\n      add\n      0x20\n      dup1\n      swap2\n      div\n      mul\n      0x20\n      add\n      mload(0x40)\n      swap1\n      dup2\n      add\n      0x40\n      mstore\n      dup1\n      swap3\n      swap2\n      swap1\n      dup2\n      dup2\n      mstore\n      0x20\n      add\n      dup3\n      dup1\n      sload\n      tag_239\n      swap1\n      tag_100\n      jump\t// in\n    tag_239:\n      dup1\n      iszero\n      tag_240\n      jumpi\n      dup1\n      0x1f\n      lt\n      tag_241\n      jumpi\n      0x0100\n      dup1\n      dup4\n      sload\n      div\n      mul\n      dup4\n      mstore\n      swap2\n      0x20\n      add\n      swap2\n      jump(tag_240)\n    tag_241:\n      dup3\n      add\n      swap2\n      swap1\n      0x00\n      mstore\n      keccak256(0x00, 0x20)\n      swap1\n    tag_242:\n      dup2\n      sload\n      dup2\n      mstore\n      swap1\n      0x01\n      add\n      swap1\n      0x20\n      add\n      dup1\n      dup4\n      gt\n      tag_242\n      jumpi\n      dup3\n      swap1\n      sub\n      0x1f\n      and\n      dup3\n      add\n      swap2\n    tag_240:\n      pop\n      pop\n      pop\n      pop\n      pop\n      dup2\n      mstore\n      0x20\n      add\n      0x01\n      dup3\n      add\n      dup1\n      sload\n      tag_243\n      swap1\n      tag_100\n      jump\t// in\n    tag_243:\n      dup1\n      0x1f\n      add\n      0x20\n      dup1\n      swap2\n      div\n      mul\n      0x20\n      add\n      mload(0x40)\n      swap1\n      dup2\n      add\n      0x40\n      mstore\n      dup1\n      swap3\n      swap2\n      swap1\n      dup2\n      dup2\n      mstore\n      0x20\n      add\n      dup3\n      dup1\n      sload\n      tag_244\n      swap1\n      tag_100\n      jump\t// in\n    tag_244:\n      dup1\n      iszero\n      tag_245\n      jumpi\n      dup1\n      0x1f\n      lt\n      tag_246\n      jumpi\n      0x0100\n      dup1\n      dup4\n      sload\n      div\n      mul\n      dup4\n      mstore\n      swap2\n      0x20\n      add\n      swap2\n      jump(tag_245)\n    tag_246:\n      dup3\n      add\n      swap2\n      swap1\n      0x00\n      mstore\n      keccak256(0x00, 0x20)\n      swap1\n    tag_247:\n      dup2\n      sload\n      dup2\n      mstore\n      swap1\n      0x01\n      add\n      swap1\n      0x20\n      add\n      dup1\n      dup4\n      gt\n      tag_247\n      jumpi\n      dup3\n      swap1\n      sub\n      0x1f\n      and\n      dup3\n      add\n      swap2\n    tag_245:\n      pop\n      pop\n      pop\n      pop\n      pop\n      dup2\n      mstore\n      0x20\n      add\n      0x02\n      dup3\n      add\n      dup1\n      sload\n      tag_248\n      swap1\n      tag_100\n      jump\t// in\n    tag_248:\n      dup1\n      0x1f\n      add\n      0x20\n      dup1\n      swap2\n      div\n      mul\n      0x20\n      add\n      mload(0x40)\n      swap1\n      dup2\n      add\n      0x40\n      mstore\n      dup1\n      swap3\n      swap2\n      swap1\n      dup2\n      dup2\n      mstore\n      0x20\n      add\n      dup3\n      dup1\n      sload\n      tag_249\n      swap1\n      tag_100\n      jump\t// in\n    tag_249:\n      dup1\n      iszero\n      tag_250\n      jumpi\n      dup1\n      0x1f\n      lt\n      tag_251\n      jumpi\n      0x0100\n      dup1\n      dup4\n      sload\n      div\n      mul\n      dup4\n      mstore\n      swap2\n      0x20\n      add\n      swap2\n      jump(tag_250)\n    tag_251:\n      dup3\n      add\n      swap2\n      swap1\n      0x00\n      mstore\n      keccak256(0x00, 0x20)\n      swap1\n    tag_252:\n      dup2\n      sload\n      dup2\n      mstore\n      swap1\n      0x01\n      add\n      swap1\n      0x20\n      add\n      dup1\n      dup4\n      gt\n      tag_252\n      jumpi\n      dup3\n      swap1\n      sub\n      0x1f\n      and\n      dup3\n      add\n      swap2\n    tag_250:\n      pop\n      pop\n      pop\n      pop\n      pop\n      dup2\n      mstore\n      0x20\n      add\n      0x03\n      dup3\n      add\n      dup1\n      sload\n      tag_253\n      swap1\n      tag_100\n      jump\t// in\n    tag_253:\n      dup1\n      0x1f\n      add\n      0x20\n      dup1\n      swap2\n      div\n      mul\n      0x20\n      add\n      mload(0x40)\n      swap1\n      dup2\n      add\n      0x40\n      mstore\n      dup1\n      swap3\n      swap2\n      swap1\n      dup2\n      dup2\n      mstore\n      0x20\n      add\n      dup3\n      dup1\n      sload\n      tag_254\n      swap1\n      tag_100\n      jump\t// in\n    tag_254:\n      dup1\n      iszero\n      tag_255\n      jumpi\n      dup1\n      0x1f\n      lt\n      tag_256\n      jumpi\n      0x0100\n      dup1\n      dup4\n      sload\n      div\n      mul\n      dup4\n      mstore\n      swap2\n      0x20\n      add\n      swap2\n      jump(tag_255)\n    tag_256:\n      dup3\n      add\n      swap2\n      swap1\n      0x00\n      mstore\n      keccak256(0x00, 0x20)\n      swap1\n    tag_257:\n      dup2\n      sload\n      dup2\n      mstore\n      swap1\n      0x01\n      add\n      swap1\n      0x20\n      add\n      dup1\n      dup4\n      gt\n      tag_257\n      jumpi\n      dup3\n      swap1\n      sub\n      0x1f\n      and\n      dup3\n      add\n      swap2\n    tag_255:\n      pop\n      pop\n      pop\n      pop\n      pop\n      dup2\n      mstore\n      0x20\n      add\n      0x04\n      dup3\n      add\n      dup1\n      sload\n      tag_258\n      swap1\n      tag_100\n      jump\t// in\n    tag_258:\n      dup1\n      0x1f\n      add\n      0x20\n      dup1\n      swap2\n      div\n      mul\n      0x20\n      add\n      mload(0x40)\n      swap1\n      dup2\n      add\n      0x40\n      mstore\n      dup1\n      swap3\n      swap2\n      swap1\n      dup2\n      dup2\n      mstore\n      0x20\n      add\n      dup3\n      dup1\n      sload\n      tag_259\n      swap1\n      tag_100\n      jump\t// in\n    tag_259:\n      dup1\n      iszero\n      tag_260\n      jumpi\n      dup1\n      0x1f\n      lt\n      tag_261\n      jumpi\n      0x0100\n      dup1\n      dup4\n      sload\n      div\n      mul\n      dup4\n      mstore\n      swap2\n      0x20\n      add\n      swap2\n      jump(tag_260)\n    tag_261:\n      dup3\n      add\n      swap2\n      swap1\n      0x00\n      mstore\n      keccak256(0x00, 0x20)\n      swap1\n    tag_262:\n      dup2\n      sload\n      dup2\n      mstore\n      swap1\n      0x01\n      add\n      swap1\n      0x20\n      add\n      dup1\n      dup4\n      gt\n      tag_262\n      jumpi\n      dup3\n      swap1\n      sub\n      0x1f\n      and\n      dup3\n      add\n      swap2\n    tag_260:\n      pop\n      pop\n      pop\n      pop\n      pop\n      dup2\n      mstore\n      0x20\n      add\n      0x05\n      dup3\n      add\n      sload\n      dup2\n      mstore\n      0x20\n      add\n      0x06\n      dup3\n      add\n      sload\n      dup2\n      mstore\n      pop\n      pop\n      swap1\n      pop\n      swap3\n      pop\n      swap3\n      pop\n      pop\n        /* \"src/activeCode_10.3.sol\":7184:7620  function getActiveCodeInfo(uint256 _activeCode) external view returns (Merchant memory, Device memory) {... */\n      swap2\n      pop\n      swap2\n      jump\t// out\n        /* \"src/activeCode_10.3.sol\":3376:3904  function addMerchant(address _merchant, string memory _domain, string memory _installUrl, string memory _bundleId, string memory _platform) external onlyAdmin {... */\n    tag_67:\n        /* \"src/activeCode_10.3.sol\":3075:3079  true */\n      0x01\n        /* \"src/activeCode_10.3.sol\":3052:3079  isAdmin[msg.sender] == true */\n      iszero\n      iszero\n        /* \"src/activeCode_10.3.sol\":3052:3059  isAdmin */\n      0x05\n        /* \"src/activeCode_10.3.sol\":3052:3071  isAdmin[msg.sender] */\n      0x00\n        /* \"src/activeCode_10.3.sol\":3060:3070  msg.sender */\n      caller\n        /* \"src/activeCode_10.3.sol\":3052:3071  isAdmin[msg.sender] */\n      0xffffffffffffffffffffffffffffffffffffffff\n      and\n      0xffffffffffffffffffffffffffffffffffffffff\n      and\n      dup2\n      mstore\n      0x20\n      add\n      swap1\n      dup2\n      mstore\n      0x20\n      add\n      0x00\n      keccak256\n      0x00\n      swap1\n      sload\n      swap1\n      0x0100\n      exp\n      swap1\n      div\n      0xff\n      and\n        /* \"src/activeCode_10.3.sol\":3052:3079  isAdmin[msg.sender] == true */\n      iszero\n      iszero\n      eq\n        /* \"src/activeCode_10.3.sol\":3044:3099  require(isAdmin[msg.sender] == true , \"Not authorized\") */\n      tag_264\n      jumpi\n      mload(0x40)\n      0x08c379a000000000000000000000000000000000000000000000000000000000\n      dup2\n      mstore\n      0x04\n      add\n      tag_265\n      swap1\n      tag_131\n      jump\t// in\n    tag_265:\n      mload(0x40)\n      dup1\n      swap2\n      sub\n      swap1\n      revert\n    tag_264:\n        /* \"src/activeCode_10.3.sol\":3588:3589  0 */\n      0x00\n        /* \"src/activeCode_10.3.sol\":3553:3562  merchants */\n      0x01\n        /* \"src/activeCode_10.3.sol\":3553:3573  merchants[_merchant] */\n      0x00\n        /* \"src/activeCode_10.3.sol\":3563:3572  _merchant */\n      dup8\n        /* \"src/activeCode_10.3.sol\":3553:3573  merchants[_merchant] */\n      0xffffffffffffffffffffffffffffffffffffffff\n      and\n      0xffffffffffffffffffffffffffffffffffffffff\n      and\n      dup2\n      mstore\n      0x20\n      add\n      swap1\n      dup2\n      mstore\n      0x20\n      add\n      0x00\n      keccak256\n        /* \"src/activeCode_10.3.sol\":3553:3584  merchants[_merchant].createTime */\n      0x04\n      add\n      sload\n        /* \"src/activeCode_10.3.sol\":3553:3589  merchants[_merchant].createTime == 0 */\n      eq\n        /* \"src/activeCode_10.3.sol\":3545:3617  require(merchants[_merchant].createTime == 0, \"Merchant already exists\") */\n      tag_267\n      jumpi\n      mload(0x40)\n      0x08c379a000000000000000000000000000000000000000000000000000000000\n      dup2\n      mstore\n      0x04\n      add\n      tag_268\n      swap1\n      tag_269\n      jump\t// in\n    tag_268:\n      mload(0x40)\n      dup1\n      swap2\n      sub\n      swap1\n      revert\n    tag_267:\n        /* \"src/activeCode_10.3.sol\":3650:3843  Merchant({... */\n      mload(0x40)\n      dup1\n      0xa0\n      add\n      0x40\n      mstore\n      dup1\n        /* \"src/activeCode_10.3.sol\":3681:3688  _domain */\n      dup6\n        /* \"src/activeCode_10.3.sol\":3650:3843  Merchant({... */\n      dup2\n      mstore\n      0x20\n      add\n        /* \"src/activeCode_10.3.sol\":3714:3725  _installUrl */\n      dup5\n        /* \"src/activeCode_10.3.sol\":3650:3843  Merchant({... */\n      dup2\n      mstore\n      0x20\n      add\n        /* \"src/activeCode_10.3.sol\":3749:3758  _bundleId */\n      dup4\n        /* \"src/activeCode_10.3.sol\":3650:3843  Merchant({... */\n      dup2\n      mstore\n      0x20\n      add\n        /* \"src/activeCode_10.3.sol\":3782:3791  _platform */\n      dup3\n        /* \"src/activeCode_10.3.sol\":3650:3843  Merchant({... */\n      dup2\n      mstore\n      0x20\n      add\n        /* \"src/activeCode_10.3.sol\":3817:3832  block.timestamp */\n      timestamp\n        /* \"src/activeCode_10.3.sol\":3650:3843  Merchant({... */\n      dup2\n      mstore\n      pop\n        /* \"src/activeCode_10.3.sol\":3627:3636  merchants */\n      0x01\n        /* \"src/activeCode_10.3.sol\":3627:3647  merchants[_merchant] */\n      0x00\n        /* \"src/activeCode_10.3.sol\":3637:3646  _merchant */\n      dup8\n        /* \"src/activeCode_10.3.sol\":3627:3647  merchants[_merchant] */\n      0xffffffffffffffffffffffffffffffffffffffff\n      and\n      0xffffffffffffffffffffffffffffffffffffffff\n      and\n      dup2\n      mstore\n      0x20\n      add\n      swap1\n      dup2\n      mstore\n      0x20\n      add\n      0x00\n      keccak256\n        /* \"src/activeCode_10.3.sol\":3627:3843  merchants[_merchant] = Merchant({... */\n      0x00\n      dup3\n      add\n      mload\n      dup2\n      0x00\n      add\n      swap1\n      dup2\n      tag_270\n      swap2\n      swap1\n      tag_196\n      jump\t// in\n    tag_270:\n      pop\n      0x20\n      dup3\n      add\n      mload\n      dup2\n      0x01\n      add\n      swap1\n      dup2\n      tag_271\n      swap2\n      swap1\n      tag_196\n      jump\t// in\n    tag_271:\n      pop\n      0x40\n      dup3\n      add\n      mload\n      dup2\n      0x02\n      add\n      swap1\n      dup2\n      tag_272\n      swap2\n      swap1\n      tag_196\n      jump\t// in\n    tag_272:\n      pop\n      0x60\n      dup3\n      add\n      mload\n      dup2\n      0x03\n      add\n      swap1\n      dup2\n      tag_273\n      swap2\n      swap1\n      tag_196\n      jump\t// in\n    tag_273:\n      pop\n      0x80\n      dup3\n      add\n      mload\n      dup2\n      0x04\n      add\n      sstore\n      swap1\n      pop\n      pop\n        /* \"src/activeCode_10.3.sol\":3877:3887  msg.sender */\n      caller\n        /* \"src/activeCode_10.3.sol\":3858:3897  MerchantRegistered(msg.sender, _domain) */\n      0xffffffffffffffffffffffffffffffffffffffff\n      and\n      0xec31b5c87ea82f60c8bc1dd8262f275183d0d7bc8c37cdbbfd74130441818fbc\n        /* \"src/activeCode_10.3.sol\":3889:3896  _domain */\n      dup6\n        /* \"src/activeCode_10.3.sol\":3858:3897  MerchantRegistered(msg.sender, _domain) */\n      mload(0x40)\n      tag_274\n      swap2\n      swap1\n      tag_275\n      jump\t// in\n    tag_274:\n      mload(0x40)\n      dup1\n      swap2\n      sub\n      swap1\n      log2\n        /* \"src/activeCode_10.3.sol\":3376:3904  function addMerchant(address _merchant, string memory _domain, string memory _installUrl, string memory _bundleId, string memory _platform) external onlyAdmin {... */\n      pop\n      pop\n      pop\n      pop\n      pop\n      jump\t// out\n        /* \"src/activeCode_10.3.sol\":2371:2412  mapping(address => Device) public devices */\n    tag_70:\n      mstore(0x20, 0x02)\n      dup1\n      0x00\n      mstore\n      keccak256(0x00, 0x40)\n      0x00\n      swap2\n      pop\n      swap1\n      pop\n      dup1\n      0x00\n      add\n      dup1\n      sload\n      tag_276\n      swap1\n      tag_100\n      jump\t// in\n    tag_276:\n      dup1\n      0x1f\n      add\n      0x20\n      dup1\n      swap2\n      div\n      mul\n      0x20\n      add\n      mload(0x40)\n      swap1\n      dup2\n      add\n      0x40\n      mstore\n      dup1\n      swap3\n      swap2\n      swap1\n      dup2\n      dup2\n      mstore\n      0x20\n      add\n      dup3\n      dup1\n      sload\n      tag_277\n      swap1\n      tag_100\n      jump\t// in\n    tag_277:\n      dup1\n      iszero\n      tag_278\n      jumpi\n      dup1\n      0x1f\n      lt\n      tag_279\n      jumpi\n      0x0100\n      dup1\n      dup4\n      sload\n      div\n      mul\n      dup4\n      mstore\n      swap2\n      0x20\n      add\n      swap2\n      jump(tag_278)\n    tag_279:\n      dup3\n      add\n      swap2\n      swap1\n      0x00\n      mstore\n      keccak256(0x00, 0x20)\n      swap1\n    tag_280:\n      dup2\n      sload\n      dup2\n      mstore\n      swap1\n      0x01\n      add\n      swap1\n      0x20\n      add\n      dup1\n      dup4\n      gt\n      tag_280\n      jumpi\n      dup3\n      swap1\n      sub\n      0x1f\n      and\n      dup3\n      add\n      swap2\n    tag_278:\n      pop\n      pop\n      pop\n      pop\n      pop\n      swap1\n      dup1\n      0x01\n      add\n      dup1\n      sload\n      tag_281\n      swap1\n      tag_100\n      jump\t// in\n    tag_281:\n      dup1\n      0x1f\n      add\n      0x20\n      dup1\n      swap2\n      div\n      mul\n      0x20\n      add\n      mload(0x40)\n      swap1\n      dup2\n      add\n      0x40\n      mstore\n      dup1\n      swap3\n      swap2\n      swap1\n      dup2\n      dup2\n      mstore\n      0x20\n      add\n      dup3\n      dup1\n      sload\n      tag_282\n      swap1\n      tag_100\n      jump\t// in\n    tag_282:\n      dup1\n      iszero\n      tag_283\n      jumpi\n      dup1\n      0x1f\n      lt\n      tag_284\n      jumpi\n      0x0100\n      dup1\n      dup4\n      sload\n      div\n      mul\n      dup4\n      mstore\n      swap2\n      0x20\n      add\n      swap2\n      jump(tag_283)\n    tag_284:\n      dup3\n      add\n      swap2\n      swap1\n      0x00\n      mstore\n      keccak256(0x00, 0x20)\n      swap1\n    tag_285:\n      dup2\n      sload\n      dup2\n      mstore\n      swap1\n      0x01\n      add\n      swap1\n      0x20\n      add\n      dup1\n      dup4\n      gt\n      tag_285\n      jumpi\n      dup3\n      swap1\n      sub\n      0x1f\n      and\n      dup3\n      add\n      swap2\n    tag_283:\n      pop\n      pop\n      pop\n      pop\n      pop\n      swap1\n      dup1\n      0x02\n      add\n      dup1\n      sload\n      tag_286\n      swap1\n      tag_100\n      jump\t// in\n    tag_286:\n      dup1\n      0x1f\n      add\n      0x20\n      dup1\n      swap2\n      div\n      mul\n      0x20\n      add\n      mload(0x40)\n      swap1\n      dup2\n      add\n      0x40\n      mstore\n      dup1\n      swap3\n      swap2\n      swap1\n      dup2\n      dup2\n      mstore\n      0x20\n      add\n      dup3\n      dup1\n      sload\n      tag_287\n      swap1\n      tag_100\n      jump\t// in\n    tag_287:\n      dup1\n      iszero\n      tag_288\n      jumpi\n      dup1\n      0x1f\n      lt\n      tag_289\n      jumpi\n      0x0100\n      dup1\n      dup4\n      sload\n      div\n      mul\n      dup4\n      mstore\n      swap2\n      0x20\n      add\n      swap2\n      jump(tag_288)\n    tag_289:\n      dup3\n      add\n      swap2\n      swap1\n      0x00\n      mstore\n      keccak256(0x00, 0x20)\n      swap1\n    tag_290:\n      dup2\n      sload\n      dup2\n      mstore\n      swap1\n      0x01\n      add\n      swap1\n      0x20\n      add\n      dup1\n      dup4\n      gt\n      tag_290\n      jumpi\n      dup3\n      swap1\n      sub\n      0x1f\n      and\n      dup3\n      add\n      swap2\n    tag_288:\n      pop\n      pop\n      pop\n      pop\n      pop\n      swap1\n      dup1\n      0x03\n      add\n      dup1\n      sload\n      tag_291\n      swap1\n      tag_100\n      jump\t// in\n    tag_291:\n      dup1\n      0x1f\n      add\n      0x20\n      dup1\n      swap2\n      div\n      mul\n      0x20\n      add\n      mload(0x40)\n      swap1\n      dup2\n      add\n      0x40\n      mstore\n      dup1\n      swap3\n      swap2\n      swap1\n      dup2\n      dup2\n      mstore\n      0x20\n      add\n      dup3\n      dup1\n      sload\n      tag_292\n      swap1\n      tag_100\n      jump\t// in\n    tag_292:\n      dup1\n      iszero\n      tag_293\n      jumpi\n      dup1\n      0x1f\n      lt\n      tag_294\n      jumpi\n      0x0100\n      dup1\n      dup4\n      sload\n      div\n      mul\n      dup4\n      mstore\n      swap2\n      0x20\n      add\n      swap2\n      jump(tag_293)\n    tag_294:\n      dup3\n      add\n      swap2\n      swap1\n      0x00\n      mstore\n      keccak256(0x00, 0x20)\n      swap1\n    tag_295:\n      dup2\n      sload\n      dup2\n      mstore\n      swap1\n      0x01\n      add\n      swap1\n      0x20\n      add\n      dup1\n      dup4\n      gt\n      tag_295\n      jumpi\n      dup3\n      swap1\n      sub\n      0x1f\n      and\n      dup3\n      add\n      swap2\n    tag_293:\n      pop\n      pop\n      pop\n      pop\n      pop\n      swap1\n      dup1\n      0x04\n      add\n      dup1\n      sload\n      tag_296\n      swap1\n      tag_100\n      jump\t// in\n    tag_296:\n      dup1\n      0x1f\n      add\n      0x20\n      dup1\n      swap2\n      div\n      mul\n      0x20\n      add\n      mload(0x40)\n      swap1\n      dup2\n      add\n      0x40\n      mstore\n      dup1\n      swap3\n      swap2\n      swap1\n      dup2\n      dup2\n      mstore\n      0x20\n      add\n      dup3\n      dup1\n      sload\n      tag_297\n      swap1\n      tag_100\n      jump\t// in\n    tag_297:\n      dup1\n      iszero\n      tag_298\n      jumpi\n      dup1\n      0x1f\n      lt\n      tag_299\n      jumpi\n      0x0100\n      dup1\n      dup4\n      sload\n      div\n      mul\n      dup4\n      mstore\n      swap2\n      0x20\n      add\n      swap2\n      jump(tag_298)\n    tag_299:\n      dup3\n      add\n      swap2\n      swap1\n      0x00\n      mstore\n      keccak256(0x00, 0x20)\n      swap1\n    tag_300:\n      dup2\n      sload\n      dup2\n      mstore\n      swap1\n      0x01\n      add\n      swap1\n      0x20\n      add\n      dup1\n      dup4\n      gt\n      tag_300\n      jumpi\n      dup3\n      swap1\n      sub\n      0x1f\n      and\n      dup3\n      add\n      swap2\n    tag_298:\n      pop\n      pop\n      pop\n      pop\n      pop\n      swap1\n      dup1\n      0x05\n      add\n      sload\n      swap1\n      dup1\n      0x06\n      add\n      sload\n      swap1\n      pop\n      dup8\n      jump\t// out\n        /* \"src/activeCode_10.3.sol\":2320:2365  mapping(address => Merchant) public merchants */\n    tag_75:\n      mstore(0x20, 0x01)\n      dup1\n      0x00\n      mstore\n      keccak256(0x00, 0x40)\n      0x00\n      swap2\n      pop\n      swap1\n      pop\n      dup1\n      0x00\n      add\n      dup1\n      sload\n      tag_301\n      swap1\n      tag_100\n      jump\t// in\n    tag_301:\n      dup1\n      0x1f\n      add\n      0x20\n      dup1\n      swap2\n      div\n      mul\n      0x20\n      add\n      mload(0x40)\n      swap1\n      dup2\n      add\n      0x40\n      mstore\n      dup1\n      swap3\n      swap2\n      swap1\n      dup2\n      dup2\n      mstore\n      0x20\n      add\n      dup3\n      dup1\n      sload\n      tag_302\n      swap1\n      tag_100\n      jump\t// in\n    tag_302:\n      dup1\n      iszero\n      tag_303\n      jumpi\n      dup1\n      0x1f\n      lt\n      tag_304\n      jumpi\n      0x0100\n      dup1\n      dup4\n      sload\n      div\n      mul\n      dup4\n      mstore\n      swap2\n      0x20\n      add\n      swap2\n      jump(tag_303)\n    tag_304:\n      dup3\n      add\n      swap2\n      swap1\n      0x00\n      mstore\n      keccak256(0x00, 0x20)\n      swap1\n    tag_305:\n      dup2\n      sload\n      dup2\n      mstore\n      swap1\n      0x01\n      add\n      swap1\n      0x20\n      add\n      dup1\n      dup4\n      gt\n      tag_305\n      jumpi\n      dup3\n      swap1\n      sub\n      0x1f\n      and\n      dup3\n      add\n      swap2\n    tag_303:\n      pop\n      pop\n      pop\n      pop\n      pop\n      swap1\n      dup1\n      0x01\n      add\n      dup1\n      sload\n      tag_306\n      swap1\n      tag_100\n      jump\t// in\n    tag_306:\n      dup1\n      0x1f\n      add\n      0x20\n      dup1\n      swap2\n      div\n      mul\n      0x20\n      add\n      mload(0x40)\n      swap1\n      dup2\n      add\n      0x40\n      mstore\n      dup1\n      swap3\n      swap2\n      swap1\n      dup2\n      dup2\n      mstore\n      0x20\n      add\n      dup3\n      dup1\n      sload\n      tag_307\n      swap1\n      tag_100\n      jump\t// in\n    tag_307:\n      dup1\n      iszero\n      tag_308\n      jumpi\n      dup1\n      0x1f\n      lt\n      tag_309\n      jumpi\n      0x0100\n      dup1\n      dup4\n      sload\n      div\n      mul\n      dup4\n      mstore\n      swap2\n      0x20\n      add\n      swap2\n      jump(tag_308)\n    tag_309:\n      dup3\n      add\n      swap2\n      swap1\n      0x00\n      mstore\n      keccak256(0x00, 0x20)\n      swap1\n    tag_310:\n      dup2\n      sload\n      dup2\n      mstore\n      swap1\n      0x01\n      add\n      swap1\n      0x20\n      add\n      dup1\n      dup4\n      gt\n      tag_310\n      jumpi\n      dup3\n      swap1\n      sub\n      0x1f\n      and\n      dup3\n      add\n      swap2\n    tag_308:\n      pop\n      pop\n      pop\n      pop\n      pop\n      swap1\n      dup1\n      0x02\n      add\n      dup1\n      sload\n      tag_311\n      swap1\n      tag_100\n      jump\t// in\n    tag_311:\n      dup1\n      0x1f\n      add\n      0x20\n      dup1\n      swap2\n      div\n      mul\n      0x20\n      add\n      mload(0x40)\n      swap1\n      dup2\n      add\n      0x40\n      mstore\n      dup1\n      swap3\n      swap2\n      swap1\n      dup2\n      dup2\n      mstore\n      0x20\n      add\n      dup3\n      dup1\n      sload\n      tag_312\n      swap1\n      tag_100\n      jump\t// in\n    tag_312:\n      dup1\n      iszero\n      tag_313\n      jumpi\n      dup1\n      0x1f\n      lt\n      tag_314\n      jumpi\n      0x0100\n      dup1\n      dup4\n      sload\n      div\n      mul\n      dup4\n      mstore\n      swap2\n      0x20\n      add\n      swap2\n      jump(tag_313)\n    tag_314:\n      dup3\n      add\n      swap2\n      swap1\n      0x00\n      mstore\n      keccak256(0x00, 0x20)\n      swap1\n    tag_315:\n      dup2\n      sload\n      dup2\n      mstore\n      swap1\n      0x01\n      add\n      swap1\n      0x20\n      add\n      dup1\n      dup4\n      gt\n      tag_315\n      jumpi\n      dup3\n      swap1\n      sub\n      0x1f\n      and\n      dup3\n      add\n      swap2\n    tag_313:\n      pop\n      pop\n      pop\n      pop\n      pop\n      swap1\n      dup1\n      0x03\n      add\n      dup1\n      sload\n      tag_316\n      swap1\n      tag_100\n      jump\t// in\n    tag_316:\n      dup1\n      0x1f\n      add\n      0x20\n      dup1\n      swap2\n      div\n      mul\n      0x20\n      add\n      mload(0x40)\n      swap1\n      dup2\n      add\n      0x40\n      mstore\n      dup1\n      swap3\n      swap2\n      swap1\n      dup2\n      dup2\n      mstore\n      0x20\n      add\n      dup3\n      dup1\n      sload\n      tag_317\n      swap1\n      tag_100\n      jump\t// in\n    tag_317:\n      dup1\n      iszero\n      tag_318\n      jumpi\n      dup1\n      0x1f\n      lt\n      tag_319\n      jumpi\n      0x0100\n      dup1\n      dup4\n      sload\n      div\n      mul\n      dup4\n      mstore\n      swap2\n      0x20\n      add\n      swap2\n      jump(tag_318)\n    tag_319:\n      dup3\n      add\n      swap2\n      swap1\n      0x00\n      mstore\n      keccak256(0x00, 0x20)\n      swap1\n    tag_320:\n      dup2\n      sload\n      dup2\n      mstore\n      swap1\n      0x01\n      add\n      swap1\n      0x20\n      add\n      dup1\n      dup4\n      gt\n      tag_320\n      jumpi\n      dup3\n      swap1\n      sub\n      0x1f\n      and\n      dup3\n      add\n      swap2\n    tag_318:\n      pop\n      pop\n      pop\n      pop\n      pop\n      swap1\n      dup1\n      0x04\n      add\n      sload\n      swap1\n      pop\n      dup6\n      jump\t// out\n        /* \"src/activeCode_10.3.sol\":5351:5466  function getRegisterDevice() external view returns (uint256) {... */\n    tag_79:\n        /* \"src/activeCode_10.3.sol\":5403:5410  uint256 */\n      0x00\n        /* \"src/activeCode_10.3.sol\":5429:5436  devices */\n      0x02\n        /* \"src/activeCode_10.3.sol\":5429:5448  devices[msg.sender] */\n      0x00\n        /* \"src/activeCode_10.3.sol\":5437:5447  msg.sender */\n      caller\n        /* \"src/activeCode_10.3.sol\":5429:5448  devices[msg.sender] */\n      0xffffffffffffffffffffffffffffffffffffffff\n      and\n      0xffffffffffffffffffffffffffffffffffffffff\n      and\n      dup2\n      mstore\n      0x20\n      add\n      swap1\n      dup2\n      mstore\n      0x20\n      add\n      0x00\n      keccak256\n        /* \"src/activeCode_10.3.sol\":5429:5459  devices[msg.sender].activeCode */\n      0x05\n      add\n      sload\n        /* \"src/activeCode_10.3.sol\":5422:5459  return devices[msg.sender].activeCode */\n      swap1\n      pop\n        /* \"src/activeCode_10.3.sol\":5351:5466  function getRegisterDevice() external view returns (uint256) {... */\n      swap1\n      jump\t// out\n        /* \"src/activeCode_10.3.sol\":3914:4390  function updateMerchant(string memory _domain, string memory _installUrl, string memory _bundleId, string memory _platform) external {... */\n    tag_83:\n        /* \"src/activeCode_10.3.sol\":4100:4101  0 */\n      0x00\n        /* \"src/activeCode_10.3.sol\":4065:4074  merchants */\n      0x01\n        /* \"src/activeCode_10.3.sol\":4065:4086  merchants[msg.sender] */\n      0x00\n        /* \"src/activeCode_10.3.sol\":4075:4085  msg.sender */\n      caller\n        /* \"src/activeCode_10.3.sol\":4065:4086  merchants[msg.sender] */\n      0xffffffffffffffffffffffffffffffffffffffff\n      and\n      0xffffffffffffffffffffffffffffffffffffffff\n      and\n      dup2\n      mstore\n      0x20\n      add\n      swap1\n      dup2\n      mstore\n      0x20\n      add\n      0x00\n      keccak256\n        /* \"src/activeCode_10.3.sol\":4065:4097  merchants[msg.sender].createTime */\n      0x04\n      add\n      sload\n        /* \"src/activeCode_10.3.sol\":4065:4101  merchants[msg.sender].createTime > 0 */\n      gt\n        /* \"src/activeCode_10.3.sol\":4057:4124  require(merchants[msg.sender].createTime > 0, \"Merchant not found\") */\n      tag_323\n      jumpi\n      mload(0x40)\n      0x08c379a000000000000000000000000000000000000000000000000000000000\n      dup2\n      mstore\n      0x04\n      add\n      tag_324\n      swap1\n      tag_135\n      jump\t// in\n    tag_324:\n      mload(0x40)\n      dup1\n      swap2\n      sub\n      swap1\n      revert\n    tag_323:\n        /* \"src/activeCode_10.3.sol\":4165:4172  _domain */\n      dup4\n        /* \"src/activeCode_10.3.sol\":4134:4143  merchants */\n      0x01\n        /* \"src/activeCode_10.3.sol\":4134:4155  merchants[msg.sender] */\n      0x00\n        /* \"src/activeCode_10.3.sol\":4144:4154  msg.sender */\n      caller\n        /* \"src/activeCode_10.3.sol\":4134:4155  merchants[msg.sender] */\n      0xffffffffffffffffffffffffffffffffffffffff\n      and\n      0xffffffffffffffffffffffffffffffffffffffff\n      and\n      dup2\n      mstore\n      0x20\n      add\n      swap1\n      dup2\n      mstore\n      0x20\n      add\n      0x00\n      keccak256\n        /* \"src/activeCode_10.3.sol\":4134:4162  merchants[msg.sender].domain */\n      0x00\n      add\n        /* \"src/activeCode_10.3.sol\":4134:4172  merchants[msg.sender].domain = _domain */\n      swap1\n      dup2\n      tag_325\n      swap2\n      swap1\n      tag_196\n      jump\t// in\n    tag_325:\n      pop\n        /* \"src/activeCode_10.3.sol\":4217:4228  _installUrl */\n      dup3\n        /* \"src/activeCode_10.3.sol\":4182:4191  merchants */\n      0x01\n        /* \"src/activeCode_10.3.sol\":4182:4203  merchants[msg.sender] */\n      0x00\n        /* \"src/activeCode_10.3.sol\":4192:4202  msg.sender */\n      caller\n        /* \"src/activeCode_10.3.sol\":4182:4203  merchants[msg.sender] */\n      0xffffffffffffffffffffffffffffffffffffffff\n      and\n      0xffffffffffffffffffffffffffffffffffffffff\n      and\n      dup2\n      mstore\n      0x20\n      add\n      swap1\n      dup2\n      mstore\n      0x20\n      add\n      0x00\n      keccak256\n        /* \"src/activeCode_10.3.sol\":4182:4214  merchants[msg.sender].installUrl */\n      0x01\n      add\n        /* \"src/activeCode_10.3.sol\":4182:4228  merchants[msg.sender].installUrl = _installUrl */\n      swap1\n      dup2\n      tag_326\n      swap2\n      swap1\n      tag_196\n      jump\t// in\n    tag_326:\n      pop\n        /* \"src/activeCode_10.3.sol\":4271:4280  _bundleId */\n      dup2\n        /* \"src/activeCode_10.3.sol\":4238:4247  merchants */\n      0x01\n        /* \"src/activeCode_10.3.sol\":4238:4259  merchants[msg.sender] */\n      0x00\n        /* \"src/activeCode_10.3.sol\":4248:4258  msg.sender */\n      caller\n        /* \"src/activeCode_10.3.sol\":4238:4259  merchants[msg.sender] */\n      0xffffffffffffffffffffffffffffffffffffffff\n      and\n      0xffffffffffffffffffffffffffffffffffffffff\n      and\n      dup2\n      mstore\n      0x20\n      add\n      swap1\n      dup2\n      mstore\n      0x20\n      add\n      0x00\n      keccak256\n        /* \"src/activeCode_10.3.sol\":4238:4268  merchants[msg.sender].bundleId */\n      0x02\n      add\n        /* \"src/activeCode_10.3.sol\":4238:4280  merchants[msg.sender].bundleId = _bundleId */\n      swap1\n      dup2\n      tag_327\n      swap2\n      swap1\n      tag_196\n      jump\t// in\n    tag_327:\n      pop\n        /* \"src/activeCode_10.3.sol\":4323:4332  _platform */\n      dup1\n        /* \"src/activeCode_10.3.sol\":4290:4299  merchants */\n      0x01\n        /* \"src/activeCode_10.3.sol\":4290:4311  merchants[msg.sender] */\n      0x00\n        /* \"src/activeCode_10.3.sol\":4300:4310  msg.sender */\n      caller\n        /* \"src/activeCode_10.3.sol\":4290:4311  merchants[msg.sender] */\n      0xffffffffffffffffffffffffffffffffffffffff\n      and\n      0xffffffffffffffffffffffffffffffffffffffff\n      and\n      dup2\n      mstore\n      0x20\n      add\n      swap1\n      dup2\n      mstore\n      0x20\n      add\n      0x00\n      keccak256\n        /* \"src/activeCode_10.3.sol\":4290:4320  merchants[msg.sender].platform */\n      0x03\n      add\n        /* \"src/activeCode_10.3.sol\":4290:4332  merchants[msg.sender].platform = _platform */\n      swap1\n      dup2\n      tag_328\n      swap2\n      swap1\n      tag_196\n      jump\t// in\n    tag_328:\n      pop\n        /* \"src/activeCode_10.3.sol\":4363:4373  msg.sender */\n      caller\n        /* \"src/activeCode_10.3.sol\":4347:4383  MerchantUpdated(msg.sender, _domain) */\n      0xffffffffffffffffffffffffffffffffffffffff\n      and\n      0x78664930cfae4a1eb87c094f2b3013547dbb5e6b7cc7b9f0941766060298e126\n        /* \"src/activeCode_10.3.sol\":4375:4382  _domain */\n      dup6\n        /* \"src/activeCode_10.3.sol\":4347:4383  MerchantUpdated(msg.sender, _domain) */\n      mload(0x40)\n      tag_329\n      swap2\n      swap1\n      tag_275\n      jump\t// in\n    tag_329:\n      mload(0x40)\n      dup1\n      swap2\n      sub\n      swap1\n      log2\n        /* \"src/activeCode_10.3.sol\":3914:4390  function updateMerchant(string memory _domain, string memory _installUrl, string memory _bundleId, string memory _platform) external {... */\n      pop\n      pop\n      pop\n      pop\n      jump\t// out\n        /* \"src/activeCode_10.3.sol\":6645:7178  function compareStrings(string memory a, string memory b) private pure returns (bool) {... */\n    tag_105:\n        /* \"src/activeCode_10.3.sol\":6725:6729  bool */\n      0x00\n        /* \"src/activeCode_10.3.sol\":6741:6760  bytes memory aBytes */\n      dup1\n        /* \"src/activeCode_10.3.sol\":6769:6770  a */\n      dup4\n        /* \"src/activeCode_10.3.sol\":6741:6771  bytes memory aBytes = bytes(a) */\n      swap1\n      pop\n        /* \"src/activeCode_10.3.sol\":6781:6800  bytes memory bBytes */\n      0x00\n        /* \"src/activeCode_10.3.sol\":6809:6810  b */\n      dup4\n        /* \"src/activeCode_10.3.sol\":6781:6811  bytes memory bBytes = bytes(b) */\n      swap1\n      pop\n        /* \"src/activeCode_10.3.sol\":6843:6849  bBytes */\n      dup1\n        /* \"src/activeCode_10.3.sol\":6843:6856  bBytes.length */\n      mload\n        /* \"src/activeCode_10.3.sol\":6826:6832  aBytes */\n      dup3\n        /* \"src/activeCode_10.3.sol\":6826:6839  aBytes.length */\n      mload\n        /* \"src/activeCode_10.3.sol\":6826:6856  aBytes.length != bBytes.length */\n      eq\n        /* \"src/activeCode_10.3.sol\":6822:6895  if (aBytes.length != bBytes.length) {... */\n      tag_331\n      jumpi\n        /* \"src/activeCode_10.3.sol\":6879:6884  false */\n      0x00\n        /* \"src/activeCode_10.3.sol\":6872:6884  return false */\n      swap3\n      pop\n      pop\n      pop\n      jump(tag_330)\n        /* \"src/activeCode_10.3.sol\":6822:6895  if (aBytes.length != bBytes.length) {... */\n    tag_331:\n        /* \"src/activeCode_10.3.sol\":6910:6919  uint256 i */\n      0x00\n        /* \"src/activeCode_10.3.sol\":6905:7046  for (uint256 i = 0; i < aBytes.length; i++) {... */\n    tag_332:\n        /* \"src/activeCode_10.3.sol\":6929:6935  aBytes */\n      dup3\n        /* \"src/activeCode_10.3.sol\":6929:6942  aBytes.length */\n      mload\n        /* \"src/activeCode_10.3.sol\":6925:6926  i */\n      dup2\n        /* \"src/activeCode_10.3.sol\":6925:6942  i < aBytes.length */\n      lt\n        /* \"src/activeCode_10.3.sol\":6905:7046  for (uint256 i = 0; i < aBytes.length; i++) {... */\n      iszero\n      tag_333\n      jumpi\n        /* \"src/activeCode_10.3.sol\":6980:6986  bBytes */\n      dup2\n        /* \"src/activeCode_10.3.sol\":6987:6988  i */\n      dup2\n        /* \"src/activeCode_10.3.sol\":6980:6989  bBytes[i] */\n      dup2\n      mload\n      dup2\n      lt\n      tag_335\n      jumpi\n      tag_336\n      tag_96\n      jump\t// in\n    tag_336:\n    tag_335:\n      0x20\n      add\n      add\n      mload\n      0xf8\n      shr\n      0xf8\n      shl\n        /* \"src/activeCode_10.3.sol\":6967:6989  aBytes[i] != bBytes[i] */\n      not(0xffffffffffffffffffffffffffffffffffffffffffffffffffffffffffffff)\n      and\n        /* \"src/activeCode_10.3.sol\":6967:6973  aBytes */\n      dup4\n        /* \"src/activeCode_10.3.sol\":6974:6975  i */\n      dup3\n        /* \"src/activeCode_10.3.sol\":6967:6976  aBytes[i] */\n      dup2\n      mload\n      dup2\n      lt\n      tag_337\n      jumpi\n      tag_338\n      tag_96\n      jump\t// in\n    tag_338:\n    tag_337:\n      0x20\n      add\n      add\n      mload\n      0xf8\n      shr\n      0xf8\n      shl\n        /* \"src/activeCode_10.3.sol\":6967:6989  aBytes[i] != bBytes[i] */\n      not(0xffffffffffffffffffffffffffffffffffffffffffffffffffffffffffffff)\n      and\n      eq\n        /* \"src/activeCode_10.3.sol\":6963:7036  if (aBytes[i] != bBytes[i]) {... */\n      tag_339\n      jumpi\n        /* \"src/activeCode_10.3.sol\":7016:7021  false */\n      0x00\n        /* \"src/activeCode_10.3.sol\":7009:7021  return false */\n      swap4\n      pop\n      pop\n      pop\n      pop\n      jump(tag_330)\n        /* \"src/activeCode_10.3.sol\":6963:7036  if (aBytes[i] != bBytes[i]) {... */\n    tag_339:\n        /* \"src/activeCode_10.3.sol\":6944:6947  i++ */\n      dup1\n      dup1\n      0x01\n      add\n      swap2\n      pop\n      pop\n        /* \"src/activeCode_10.3.sol\":6905:7046  for (uint256 i = 0; i < aBytes.length; i++) {... */\n      jump(tag_332)\n    tag_333:\n      pop\n        /* \"src/activeCode_10.3.sol\":7063:7067  true */\n      0x01\n        /* \"src/activeCode_10.3.sol\":7056:7067  return true */\n      swap3\n      pop\n      pop\n      pop\n        /* \"src/activeCode_10.3.sol\":6645:7178  function compareStrings(string memory a, string memory b) private pure returns (bool) {... */\n    tag_330:\n      swap3\n      swap2\n      pop\n      pop\n      jump\t// out\n        /* \"src/activeCode_10.3.sol\":678:1071  function verifyChecksum(uint256 activeCode) internal pure returns (bool) {... */\n    tag_143:\n        /* \"src/activeCode_10.3.sol\":745:749  bool */\n      0x00\n        /* \"src/activeCode_10.3.sol\":783:792  100000000 */\n      0x05f5e100\n        /* \"src/activeCode_10.3.sol\":769:779  activeCode */\n      dup3\n        /* \"src/activeCode_10.3.sol\":769:792  activeCode >= 100000000 */\n      lt\n      iszero\n        /* \"src/activeCode_10.3.sol\":769:819  activeCode >= 100000000 && activeCode <= 999999999 */\n      dup1\n      iszero\n      tag_341\n      jumpi\n      pop\n        /* \"src/activeCode_10.3.sol\":810:819  999999999 */\n      0x3b9ac9ff\n        /* \"src/activeCode_10.3.sol\":796:806  activeCode */\n      dup3\n        /* \"src/activeCode_10.3.sol\":796:819  activeCode <= 999999999 */\n      gt\n      iszero\n        /* \"src/activeCode_10.3.sol\":769:819  activeCode >= 100000000 && activeCode <= 999999999 */\n    tag_341:\n        /* \"src/activeCode_10.3.sol\":761:854  require(activeCode >= 100000000 && activeCode <= 999999999, \"Invalid activation code format\") */\n      tag_342\n      jumpi\n      mload(0x40)\n      0x08c379a000000000000000000000000000000000000000000000000000000000\n      dup2\n      mstore\n      0x04\n      add\n      tag_343\n      swap1\n      tag_344\n      jump\t// in\n    tag_343:\n      mload(0x40)\n      dup1\n      swap2\n      sub\n      swap1\n      revert\n    tag_342:\n        /* \"src/activeCode_10.3.sol\":864:880  uint256 checksum */\n      0x00\n        /* \"src/activeCode_10.3.sol\":896:898  10 */\n      0x0a\n        /* \"src/activeCode_10.3.sol\":883:893  activeCode */\n      dup4\n        /* \"src/activeCode_10.3.sol\":883:898  activeCode % 10 */\n      tag_345\n      swap2\n      swap1\n      tag_346\n      jump\t// in\n    tag_345:\n        /* \"src/activeCode_10.3.sol\":864:898  uint256 checksum = activeCode % 10 */\n      swap1\n      pop\n        /* \"src/activeCode_10.3.sol\":908:927  uint256 interleaved */\n      0x00\n        /* \"src/activeCode_10.3.sol\":943:945  10 */\n      0x0a\n        /* \"src/activeCode_10.3.sol\":930:940  activeCode */\n      dup5\n        /* \"src/activeCode_10.3.sol\":930:945  activeCode / 10 */\n      tag_347\n      swap2\n      swap1\n      tag_348\n      jump\t// in\n    tag_347:\n        /* \"src/activeCode_10.3.sol\":908:945  uint256 interleaved = activeCode / 10 */\n      swap1\n      pop\n        /* \"src/activeCode_10.3.sol\":955:981  uint256 calculatedChecksum */\n      0x00\n        /* \"src/activeCode_10.3.sol\":984:1015  _calculateChecksum(interleaved) */\n      tag_349\n        /* \"src/activeCode_10.3.sol\":1003:1014  interleaved */\n      dup3\n        /* \"src/activeCode_10.3.sol\":984:1002  _calculateChecksum */\n      tag_350\n        /* \"src/activeCode_10.3.sol\":984:1015  _calculateChecksum(interleaved) */\n      jump\t// in\n    tag_349:\n        /* \"src/activeCode_10.3.sol\":955:1015  uint256 calculatedChecksum = _calculateChecksum(interleaved) */\n      swap1\n      pop\n        /* \"src/activeCode_10.3.sol\":1045:1063  calculatedChecksum */\n      dup1\n        /* \"src/activeCode_10.3.sol\":1033:1041  checksum */\n      dup4\n        /* \"src/activeCode_10.3.sol\":1033:1063  checksum == calculatedChecksum */\n      eq\n        /* \"src/activeCode_10.3.sol\":1025:1064  return (checksum == calculatedChecksum) */\n      swap4\n      pop\n      pop\n      pop\n      pop\n        /* \"src/activeCode_10.3.sol\":678:1071  function verifyChecksum(uint256 activeCode) internal pure returns (bool) {... */\n      swap2\n      swap1\n      pop\n      jump\t// out\n        /* \"src/activeCode_10.3.sol\":91:672  function generateActiveCode() internal view returns (uint256) {... */\n    tag_194:\n        /* \"src/activeCode_10.3.sol\":144:151  uint256 */\n      0x00\n        /* \"src/activeCode_10.3.sol\":163:177  uint256 minute */\n      dup1\n        /* \"src/activeCode_10.3.sol\":205:207  60 */\n      0x3c\n        /* \"src/activeCode_10.3.sol\":199:201  60 */\n      dup1\n        /* \"src/activeCode_10.3.sol\":181:196  block.timestamp */\n      timestamp\n        /* \"src/activeCode_10.3.sol\":181:201  block.timestamp / 60 */\n      tag_352\n      swap2\n      swap1\n      tag_348\n      jump\t// in\n    tag_352:\n        /* \"src/activeCode_10.3.sol\":180:207  (block.timestamp / 60) % 60 */\n      tag_353\n      swap2\n      swap1\n      tag_346\n      jump\t// in\n    tag_353:\n        /* \"src/activeCode_10.3.sol\":163:207  uint256 minute = (block.timestamp / 60) % 60 */\n      swap1\n      pop\n        /* \"src/activeCode_10.3.sol\":217:231  uint256 second */\n      0x00\n        /* \"src/activeCode_10.3.sol\":252:254  60 */\n      0x3c\n        /* \"src/activeCode_10.3.sol\":234:249  block.timestamp */\n      timestamp\n        /* \"src/activeCode_10.3.sol\":234:254  block.timestamp % 60 */\n      tag_354\n      swap2\n      swap1\n      tag_346\n      jump\t// in\n    tag_354:\n        /* \"src/activeCode_10.3.sol\":217:254  uint256 second = block.timestamp % 60 */\n      swap1\n      pop\n        /* \"src/activeCode_10.3.sol\":264:286  uint256 compressedTime */\n      0x00\n        /* \"src/activeCode_10.3.sol\":305:311  second */\n      dup2\n        /* \"src/activeCode_10.3.sol\":299:301  60 */\n      0x3c\n        /* \"src/activeCode_10.3.sol\":290:296  minute */\n      dup5\n        /* \"src/activeCode_10.3.sol\":290:301  minute * 60 */\n      tag_355\n      swap2\n      swap1\n      tag_356\n      jump\t// in\n    tag_355:\n        /* \"src/activeCode_10.3.sol\":289:311  (minute * 60) + second */\n      tag_357\n      swap2\n      swap1\n      tag_358\n      jump\t// in\n    tag_357:\n        /* \"src/activeCode_10.3.sol\":264:311  uint256 compressedTime = (minute * 60) + second */\n      swap1\n      pop\n        /* \"src/activeCode_10.3.sol\":321:340  uint256 encodedTime */\n      0x00\n        /* \"src/activeCode_10.3.sol\":369:373  3540 */\n      0x0dd4\n        /* \"src/activeCode_10.3.sol\":361:365  9999 */\n      0x270f\n        /* \"src/activeCode_10.3.sol\":344:358  compressedTime */\n      dup4\n        /* \"src/activeCode_10.3.sol\":344:365  compressedTime * 9999 */\n      tag_359\n      swap2\n      swap1\n      tag_356\n      jump\t// in\n    tag_359:\n        /* \"src/activeCode_10.3.sol\":343:373  (compressedTime * 9999) / 3540 */\n      tag_360\n      swap2\n      swap1\n      tag_348\n      jump\t// in\n    tag_360:\n        /* \"src/activeCode_10.3.sol\":321:373  uint256 encodedTime = (compressedTime * 9999) / 3540 */\n      swap1\n      pop\n        /* \"src/activeCode_10.3.sol\":383:401  uint256 randomPart */\n      0x00\n        /* \"src/activeCode_10.3.sol\":481:485  1000 */\n      0x03e8\n        /* \"src/activeCode_10.3.sol\":473:477  9000 */\n      0x2328\n        /* \"src/activeCode_10.3.sol\":440:455  block.timestamp */\n      timestamp\n        /* \"src/activeCode_10.3.sol\":457:467  msg.sender */\n      caller\n        /* \"src/activeCode_10.3.sol\":423:468  abi.encodePacked(block.timestamp, msg.sender) */\n      add(0x20, mload(0x40))\n      tag_361\n      swap3\n      swap2\n      swap1\n      tag_362\n      jump\t// in\n    tag_361:\n      mload(0x40)\n      0x20\n      dup2\n      dup4\n      sub\n      sub\n      dup2\n      mstore\n      swap1\n      0x40\n      mstore\n        /* \"src/activeCode_10.3.sol\":413:469  keccak256(abi.encodePacked(block.timestamp, msg.sender)) */\n      dup1\n      mload\n      swap1\n      0x20\n      add\n      keccak256\n        /* \"src/activeCode_10.3.sol\":405:470  uint256(keccak256(abi.encodePacked(block.timestamp, msg.sender))) */\n      0x00\n      shr\n        /* \"src/activeCode_10.3.sol\":405:477  uint256(keccak256(abi.encodePacked(block.timestamp, msg.sender))) % 9000 */\n      tag_363\n      swap2\n      swap1\n      tag_346\n      jump\t// in\n    tag_363:\n        /* \"src/activeCode_10.3.sol\":404:485  (uint256(keccak256(abi.encodePacked(block.timestamp, msg.sender))) % 9000) + 1000 */\n      tag_364\n      swap2\n      swap1\n      tag_358\n      jump\t// in\n    tag_364:\n        /* \"src/activeCode_10.3.sol\":383:485  uint256 randomPart = (uint256(keccak256(abi.encodePacked(block.timestamp, msg.sender))) % 9000) + 1000 */\n      swap1\n      pop\n        /* \"src/activeCode_10.3.sol\":495:514  uint256 interleaved */\n      0x00\n        /* \"src/activeCode_10.3.sol\":517:559  _interleaveDigits(encodedTime, randomPart) */\n      tag_365\n        /* \"src/activeCode_10.3.sol\":535:546  encodedTime */\n      dup4\n        /* \"src/activeCode_10.3.sol\":548:558  randomPart */\n      dup4\n        /* \"src/activeCode_10.3.sol\":517:534  _interleaveDigits */\n      tag_366\n        /* \"src/activeCode_10.3.sol\":517:559  _interleaveDigits(encodedTime, randomPart) */\n      jump\t// in\n    tag_365:\n        /* \"src/activeCode_10.3.sol\":495:559  uint256 interleaved = _interleaveDigits(encodedTime, randomPart) */\n      swap1\n      pop\n        /* \"src/activeCode_10.3.sol\":569:585  uint256 checksum */\n      0x00\n        /* \"src/activeCode_10.3.sol\":588:619  _calculateChecksum(interleaved) */\n      tag_367\n        /* \"src/activeCode_10.3.sol\":607:618  interleaved */\n      dup3\n        /* \"src/activeCode_10.3.sol\":588:606  _calculateChecksum */\n      tag_350\n        /* \"src/activeCode_10.3.sol\":588:619  _calculateChecksum(interleaved) */\n      jump\t// in\n    tag_367:\n        /* \"src/activeCode_10.3.sol\":569:619  uint256 checksum = _calculateChecksum(interleaved) */\n      swap1\n      pop\n        /* \"src/activeCode_10.3.sol\":657:665  checksum */\n      dup1\n        /* \"src/activeCode_10.3.sol\":651:653  10 */\n      0x0a\n        /* \"src/activeCode_10.3.sol\":637:648  interleaved */\n      dup4\n        /* \"src/activeCode_10.3.sol\":637:653  interleaved * 10 */\n      tag_368\n      swap2\n      swap1\n      tag_356\n      jump\t// in\n    tag_368:\n        /* \"src/activeCode_10.3.sol\":636:665  (interleaved * 10) + checksum */\n      tag_369\n      swap2\n      swap1\n      tag_358\n      jump\t// in\n    tag_369:\n        /* \"src/activeCode_10.3.sol\":629:665  return (interleaved * 10) + checksum */\n      swap8\n      pop\n      pop\n      pop\n      pop\n      pop\n      pop\n      pop\n      pop\n        /* \"src/activeCode_10.3.sol\":91:672  function generateActiveCode() internal view returns (uint256) {... */\n      swap1\n      jump\t// out\n        /* \"src/activeCode_10.3.sol\":1504:1635  function _calculateChecksum(uint256 interleaved) private pure returns (uint256) {... */\n    tag_350:\n        /* \"src/activeCode_10.3.sol\":1575:1582  uint256 */\n      0x00\n        /* \"src/activeCode_10.3.sol\":1626:1628  10 */\n      0x0a\n        /* \"src/activeCode_10.3.sol\":1601:1623  _digitSum(interleaved) */\n      tag_371\n        /* \"src/activeCode_10.3.sol\":1611:1622  interleaved */\n      dup4\n        /* \"src/activeCode_10.3.sol\":1601:1610  _digitSum */\n      tag_372\n        /* \"src/activeCode_10.3.sol\":1601:1623  _digitSum(interleaved) */\n      jump\t// in\n    tag_371:\n        /* \"src/activeCode_10.3.sol\":1601:1628  _digitSum(interleaved) % 10 */\n      tag_373\n      swap2\n      swap1\n      tag_346\n      jump\t// in\n    tag_373:\n        /* \"src/activeCode_10.3.sol\":1594:1628  return _digitSum(interleaved) % 10 */\n      swap1\n      pop\n        /* \"src/activeCode_10.3.sol\":1504:1635  function _calculateChecksum(uint256 interleaved) private pure returns (uint256) {... */\n      swap2\n      swap1\n      pop\n      jump\t// out\n        /* \"src/activeCode_10.3.sol\":1077:1498  function _interleaveDigits(uint256 encodedTime, uint256 randomPart) private pure returns (uint256) {... */\n    tag_366:\n        /* \"src/activeCode_10.3.sol\":1167:1174  uint256 */\n      0x00\n        /* \"src/activeCode_10.3.sol\":1186:1200  uint256 result */\n      dup1\n        /* \"src/activeCode_10.3.sol\":1203:1204  0 */\n      0x00\n        /* \"src/activeCode_10.3.sol\":1186:1204  uint256 result = 0 */\n      swap1\n      pop\n        /* \"src/activeCode_10.3.sol\":1219:1228  uint256 i */\n      0x00\n        /* \"src/activeCode_10.3.sol\":1214:1469  for (uint256 i = 0; i < 4; i++) {... */\n    tag_375:\n        /* \"src/activeCode_10.3.sol\":1238:1239  4 */\n      0x04\n        /* \"src/activeCode_10.3.sol\":1234:1235  i */\n      dup2\n        /* \"src/activeCode_10.3.sol\":1234:1239  i < 4 */\n      lt\n        /* \"src/activeCode_10.3.sol\":1214:1469  for (uint256 i = 0; i < 4; i++) {... */\n      iszero\n      tag_376\n      jumpi\n        /* \"src/activeCode_10.3.sol\":1260:1277  uint256 timeDigit */\n      0x00\n        /* \"src/activeCode_10.3.sol\":1306:1308  10 */\n      0x0a\n        /* \"src/activeCode_10.3.sol\":1300:1301  i */\n      dup3\n        /* \"src/activeCode_10.3.sol\":1296:1298  10 */\n      0x0a\n        /* \"src/activeCode_10.3.sol\":1296:1301  10**i */\n      tag_378\n      swap2\n      swap1\n      tag_379\n      jump\t// in\n    tag_378:\n        /* \"src/activeCode_10.3.sol\":1281:1292  encodedTime */\n      dup8\n        /* \"src/activeCode_10.3.sol\":1281:1302  encodedTime / (10**i) */\n      tag_380\n      swap2\n      swap1\n      tag_348\n      jump\t// in\n    tag_380:\n        /* \"src/activeCode_10.3.sol\":1280:1308  (encodedTime / (10**i)) % 10 */\n      tag_381\n      swap2\n      swap1\n      tag_346\n      jump\t// in\n    tag_381:\n        /* \"src/activeCode_10.3.sol\":1260:1308  uint256 timeDigit = (encodedTime / (10**i)) % 10 */\n      swap1\n      pop\n        /* \"src/activeCode_10.3.sol\":1322:1341  uint256 randomDigit */\n      0x00\n        /* \"src/activeCode_10.3.sol\":1369:1371  10 */\n      0x0a\n        /* \"src/activeCode_10.3.sol\":1363:1364  i */\n      dup4\n        /* \"src/activeCode_10.3.sol\":1359:1361  10 */\n      0x0a\n        /* \"src/activeCode_10.3.sol\":1359:1364  10**i */\n      tag_382\n      swap2\n      swap1\n      tag_379\n      jump\t// in\n    tag_382:\n        /* \"src/activeCode_10.3.sol\":1345:1355  randomPart */\n      dup8\n        /* \"src/activeCode_10.3.sol\":1345:1365  randomPart / (10**i) */\n      tag_383\n      swap2\n      swap1\n      tag_348\n      jump\t// in\n    tag_383:\n        /* \"src/activeCode_10.3.sol\":1344:1371  (randomPart / (10**i)) % 10 */\n      tag_384\n      swap2\n      swap1\n      tag_346\n      jump\t// in\n    tag_384:\n        /* \"src/activeCode_10.3.sol\":1322:1371  uint256 randomDigit = (randomPart / (10**i)) % 10 */\n      swap1\n      pop\n        /* \"src/activeCode_10.3.sol\":1454:1455  2 */\n      0x02\n        /* \"src/activeCode_10.3.sol\":1450:1451  i */\n      dup4\n        /* \"src/activeCode_10.3.sol\":1450:1455  i * 2 */\n      tag_385\n      swap2\n      swap1\n      tag_356\n      jump\t// in\n    tag_385:\n        /* \"src/activeCode_10.3.sol\":1445:1447  10 */\n      0x0a\n        /* \"src/activeCode_10.3.sol\":1445:1456  10**(i * 2) */\n      tag_386\n      swap2\n      swap1\n      tag_379\n      jump\t// in\n    tag_386:\n        /* \"src/activeCode_10.3.sol\":1432:1441  timeDigit */\n      dup3\n        /* \"src/activeCode_10.3.sol\":1432:1457  timeDigit * (10**(i * 2)) */\n      tag_387\n      swap2\n      swap1\n      tag_356\n      jump\t// in\n    tag_387:\n        /* \"src/activeCode_10.3.sol\":1424:1425  1 */\n      0x01\n        /* \"src/activeCode_10.3.sol\":1420:1421  2 */\n      0x02\n        /* \"src/activeCode_10.3.sol\":1416:1417  i */\n      dup6\n        /* \"src/activeCode_10.3.sol\":1416:1421  i * 2 */\n      tag_388\n      swap2\n      swap1\n      tag_356\n      jump\t// in\n    tag_388:\n        /* \"src/activeCode_10.3.sol\":1416:1425  i * 2 + 1 */\n      tag_389\n      swap2\n      swap1\n      tag_358\n      jump\t// in\n    tag_389:\n        /* \"src/activeCode_10.3.sol\":1411:1413  10 */\n      0x0a\n        /* \"src/activeCode_10.3.sol\":1411:1426  10**(i * 2 + 1) */\n      tag_390\n      swap2\n      swap1\n      tag_379\n      jump\t// in\n    tag_390:\n        /* \"src/activeCode_10.3.sol\":1396:1407  randomDigit */\n      dup3\n        /* \"src/activeCode_10.3.sol\":1396:1427  randomDigit * (10**(i * 2 + 1)) */\n      tag_391\n      swap2\n      swap1\n      tag_356\n      jump\t// in\n    tag_391:\n        /* \"src/activeCode_10.3.sol\":1395:1458  (randomDigit * (10**(i * 2 + 1))) + (timeDigit * (10**(i * 2))) */\n      tag_392\n      swap2\n      swap1\n      tag_358\n      jump\t// in\n    tag_392:\n        /* \"src/activeCode_10.3.sol\":1385:1458  result += (randomDigit * (10**(i * 2 + 1))) + (timeDigit * (10**(i * 2))) */\n      dup5\n      tag_393\n      swap2\n      swap1\n      tag_358\n      jump\t// in\n    tag_393:\n      swap4\n      pop\n        /* \"src/activeCode_10.3.sol\":1246:1469  {... */\n      pop\n      pop\n        /* \"src/activeCode_10.3.sol\":1241:1244  i++ */\n      dup1\n      dup1\n      0x01\n      add\n      swap2\n      pop\n      pop\n        /* \"src/activeCode_10.3.sol\":1214:1469  for (uint256 i = 0; i < 4; i++) {... */\n      jump(tag_375)\n    tag_376:\n      pop\n        /* \"src/activeCode_10.3.sol\":1485:1491  result */\n      dup1\n        /* \"src/activeCode_10.3.sol\":1478:1491  return result */\n      swap2\n      pop\n      pop\n        /* \"src/activeCode_10.3.sol\":1077:1498  function _interleaveDigits(uint256 encodedTime, uint256 randomPart) private pure returns (uint256) {... */\n      swap3\n      swap2\n      pop\n      pop\n      jump\t// out\n        /* \"src/activeCode_10.3.sol\":1641:1852  function _digitSum(uint256 value) private pure returns (uint256) {... */\n    tag_372:\n        /* \"src/activeCode_10.3.sol\":1697:1704  uint256 */\n      0x00\n        /* \"src/activeCode_10.3.sol\":1716:1727  uint256 sum */\n      dup1\n        /* \"src/activeCode_10.3.sol\":1730:1731  0 */\n      0x00\n        /* \"src/activeCode_10.3.sol\":1716:1731  uint256 sum = 0 */\n      swap1\n      pop\n        /* \"src/activeCode_10.3.sol\":1741:1826  while (value > 0) {... */\n    tag_395:\n        /* \"src/activeCode_10.3.sol\":1756:1757  0 */\n      0x00\n        /* \"src/activeCode_10.3.sol\":1748:1753  value */\n      dup4\n        /* \"src/activeCode_10.3.sol\":1748:1757  value > 0 */\n      gt\n        /* \"src/activeCode_10.3.sol\":1741:1826  while (value > 0) {... */\n      iszero\n      tag_396\n      jumpi\n        /* \"src/activeCode_10.3.sol\":1788:1790  10 */\n      0x0a\n        /* \"src/activeCode_10.3.sol\":1780:1785  value */\n      dup4\n        /* \"src/activeCode_10.3.sol\":1780:1790  value % 10 */\n      tag_397\n      swap2\n      swap1\n      tag_346\n      jump\t// in\n    tag_397:\n        /* \"src/activeCode_10.3.sol\":1773:1790  sum += value % 10 */\n      dup2\n      tag_398\n      swap2\n      swap1\n      tag_358\n      jump\t// in\n    tag_398:\n      swap1\n      pop\n        /* \"src/activeCode_10.3.sol\":1813:1815  10 */\n      0x0a\n        /* \"src/activeCode_10.3.sol\":1804:1815  value /= 10 */\n      dup4\n      tag_399\n      swap2\n      swap1\n      tag_348\n      jump\t// in\n    tag_399:\n      swap3\n      pop\n        /* \"src/activeCode_10.3.sol\":1741:1826  while (value > 0) {... */\n      jump(tag_395)\n    tag_396:\n        /* \"src/activeCode_10.3.sol\":1842:1845  sum */\n      dup1\n        /* \"src/activeCode_10.3.sol\":1835:1845  return sum */\n      swap2\n      pop\n      pop\n        /* \"src/activeCode_10.3.sol\":1641:1852  function _digitSum(uint256 value) private pure returns (uint256) {... */\n      swap2\n      swap1\n      pop\n      jump\t// out\n    tag_137:\n      pop\n      dup1\n      sload\n      tag_400\n      swap1\n      tag_100\n      jump\t// in\n    tag_400:\n      0x00\n      dup3\n      sstore\n      dup1\n      0x1f\n      lt\n      tag_402\n      jumpi\n      pop\n      jump(tag_401)\n    tag_402:\n      0x1f\n      add\n      0x20\n      swap1\n      div\n      swap1\n      0x00\n      mstore\n      keccak256(0x00, 0x20)\n      swap1\n      dup2\n      add\n      swap1\n      tag_403\n      swap2\n      swap1\n      tag_404\n      jump\t// in\n    tag_403:\n    tag_401:\n      pop\n      jump\t// out\n    tag_209:\n      mload(0x40)\n      dup1\n      0xa0\n      add\n      0x40\n      mstore\n      dup1\n      0x60\n      dup2\n      mstore\n      0x20\n      add\n      0x60\n      dup2\n      mstore\n      0x20\n      add\n      0x60\n      dup2\n      mstore\n      0x20\n      add\n      0x60\n      dup2\n      mstore\n      0x20\n      add\n      0x00\n      dup2\n      mstore\n      pop\n      swap1\n      jump\t// out\n    tag_211:\n      mload(0x40)\n      dup1\n      0xe0\n      add\n      0x40\n      mstore\n      dup1\n      0x60\n      dup2\n      mstore\n      0x20\n      add\n      0x60\n      dup2\n      mstore\n      0x20\n      add\n      0x60\n      dup2\n      mstore\n      0x20\n      add\n      0x60\n      dup2\n      mstore\n      0x20\n      add\n      0x60\n      dup2\n      mstore\n      0x20\n      add\n      0x00\n      dup2\n      mstore\n      0x20\n      add\n      0x00\n      dup2\n      mstore\n      pop\n      swap1\n      jump\t// out\n    tag_404:\n    tag_405:\n      dup1\n      dup3\n      gt\n      iszero\n      tag_406\n      jumpi\n      0x00\n      dup2\n      0x00\n      swap1\n      sstore\n      pop\n      0x01\n      add\n      jump(tag_405)\n    tag_406:\n      pop\n      swap1\n      jump\t// out\n        /* \"#utility.yul\":7:82   */\n    tag_407:\n        /* \"#utility.yul\":40:46   */\n      0x00\n        /* \"#utility.yul\":73:75   */\n      0x40\n        /* \"#utility.yul\":67:76   */\n      mload\n        /* \"#utility.yul\":57:76   */\n      swap1\n      pop\n        /* \"#utility.yul\":7:82   */\n      swap1\n      jump\t// out\n        /* \"#utility.yul\":88:205   */\n    tag_408:\n        /* \"#utility.yul\":197:198   */\n      0x00\n        /* \"#utility.yul\":194:195   */\n      dup1\n        /* \"#utility.yul\":187:199   */\n      revert\n        /* \"#utility.yul\":211:328   */\n    tag_409:\n        /* \"#utility.yul\":320:321   */\n      0x00\n        /* \"#utility.yul\":317:318   */\n      dup1\n        /* \"#utility.yul\":310:322   */\n      revert\n        /* \"#utility.yul\":334:451   */\n    tag_410:\n        /* \"#utility.yul\":443:444   */\n      0x00\n        /* \"#utility.yul\":440:441   */\n      dup1\n        /* \"#utility.yul\":433:445   */\n      revert\n        /* \"#utility.yul\":457:574   */\n    tag_411:\n        /* \"#utility.yul\":566:567   */\n      0x00\n        /* \"#utility.yul\":563:564   */\n      dup1\n        /* \"#utility.yul\":556:568   */\n      revert\n        /* \"#utility.yul\":580:682   */\n    tag_412:\n        /* \"#utility.yul\":621:627   */\n      0x00\n        /* \"#utility.yul\":672:674   */\n      0x1f\n        /* \"#utility.yul\":668:675   */\n      not\n        /* \"#utility.yul\":663:665   */\n      0x1f\n        /* \"#utility.yul\":656:661   */\n      dup4\n        /* \"#utility.yul\":652:666   */\n      add\n        /* \"#utility.yul\":648:676   */\n      and\n        /* \"#utility.yul\":638:676   */\n      swap1\n      pop\n        /* \"#utility.yul\":580:682   */\n      swap2\n      swap1\n      pop\n      jump\t// out\n        /* \"#utility.yul\":688:868   */\n    tag_89:\n        /* \"#utility.yul\":736:813   */\n      0x4e487b7100000000000000000000000000000000000000000000000000000000\n        /* \"#utility.yul\":733:734   */\n      0x00\n        /* \"#utility.yul\":726:814   */\n      mstore\n        /* \"#utility.yul\":833:837   */\n      0x41\n        /* \"#utility.yul\":830:831   */\n      0x04\n        /* \"#utility.yul\":823:838   */\n      mstore\n        /* \"#utility.yul\":857:861   */\n      0x24\n        /* \"#utility.yul\":854:855   */\n      0x00\n        /* \"#utility.yul\":847:862   */\n      revert\n        /* \"#utility.yul\":874:1155   */\n    tag_413:\n        /* \"#utility.yul\":957:984   */\n      tag_495\n        /* \"#utility.yul\":979:983   */\n      dup3\n        /* \"#utility.yul\":957:984   */\n      tag_412\n      jump\t// in\n    tag_495:\n        /* \"#utility.yul\":949:955   */\n      dup2\n        /* \"#utility.yul\":945:985   */\n      add\n        /* \"#utility.yul\":1087:1093   */\n      dup2\n        /* \"#utility.yul\":1075:1085   */\n      dup2\n        /* \"#utility.yul\":1072:1094   */\n      lt\n        /* \"#utility.yul\":1051:1069   */\n      0xffffffffffffffff\n        /* \"#utility.yul\":1039:1049   */\n      dup3\n        /* \"#utility.yul\":1036:1070   */\n      gt\n        /* \"#utility.yul\":1033:1095   */\n      or\n        /* \"#utility.yul\":1030:1118   */\n      iszero\n      tag_496\n      jumpi\n        /* \"#utility.yul\":1098:1116   */\n      tag_497\n      tag_89\n      jump\t// in\n    tag_497:\n        /* \"#utility.yul\":1030:1118   */\n    tag_496:\n        /* \"#utility.yul\":1138:1148   */\n      dup1\n        /* \"#utility.yul\":1134:1136   */\n      0x40\n        /* \"#utility.yul\":1127:1149   */\n      mstore\n        /* \"#utility.yul\":917:1155   */\n      pop\n        /* \"#utility.yul\":874:1155   */\n      pop\n      pop\n      jump\t// out\n        /* \"#utility.yul\":1161:1290   */\n    tag_414:\n        /* \"#utility.yul\":1195:1201   */\n      0x00\n        /* \"#utility.yul\":1222:1242   */\n      tag_499\n      tag_407\n      jump\t// in\n    tag_499:\n        /* \"#utility.yul\":1212:1242   */\n      swap1\n      pop\n        /* \"#utility.yul\":1251:1284   */\n      tag_500\n        /* \"#utility.yul\":1279:1283   */\n      dup3\n        /* \"#utility.yul\":1271:1277   */\n      dup3\n        /* \"#utility.yul\":1251:1284   */\n      tag_413\n      jump\t// in\n    tag_500:\n        /* \"#utility.yul\":1161:1290   */\n      swap2\n      swap1\n      pop\n      jump\t// out\n        /* \"#utility.yul\":1296:1604   */\n    tag_415:\n        /* \"#utility.yul\":1358:1362   */\n      0x00\n        /* \"#utility.yul\":1448:1466   */\n      0xffffffffffffffff\n        /* \"#utility.yul\":1440:1446   */\n      dup3\n        /* \"#utility.yul\":1437:1467   */\n      gt\n        /* \"#utility.yul\":1434:1490   */\n      iszero\n      tag_502\n      jumpi\n        /* \"#utility.yul\":1470:1488   */\n      tag_503\n      tag_89\n      jump\t// in\n    tag_503:\n        /* \"#utility.yul\":1434:1490   */\n    tag_502:\n        /* \"#utility.yul\":1508:1537   */\n      tag_504\n        /* \"#utility.yul\":1530:1536   */\n      dup3\n        /* \"#utility.yul\":1508:1537   */\n      tag_412\n      jump\t// in\n    tag_504:\n        /* \"#utility.yul\":1500:1537   */\n      swap1\n      pop\n        /* \"#utility.yul\":1592:1596   */\n      0x20\n        /* \"#utility.yul\":1586:1590   */\n      dup2\n        /* \"#utility.yul\":1582:1597   */\n      add\n        /* \"#utility.yul\":1574:1597   */\n      swap1\n      pop\n        /* \"#utility.yul\":1296:1604   */\n      swap2\n      swap1\n      pop\n      jump\t// out\n        /* \"#utility.yul\":1610:1758   */\n    tag_416:\n        /* \"#utility.yul\":1708:1714   */\n      dup3\n        /* \"#utility.yul\":1703:1706   */\n      dup2\n        /* \"#utility.yul\":1698:1701   */\n      dup4\n        /* \"#utility.yul\":1685:1715   */\n      calldatacopy\n        /* \"#utility.yul\":1749:1750   */\n      0x00\n        /* \"#utility.yul\":1740:1746   */\n      dup4\n        /* \"#utility.yul\":1735:1738   */\n      dup4\n        /* \"#utility.yul\":1731:1747   */\n      add\n        /* \"#utility.yul\":1724:1751   */\n      mstore\n        /* \"#utility.yul\":1610:1758   */\n      pop\n      pop\n      pop\n      jump\t// out\n        /* \"#utility.yul\":1764:2189   */\n    tag_417:\n        /* \"#utility.yul\":1842:1847   */\n      0x00\n        /* \"#utility.yul\":1867:1933   */\n      tag_507\n        /* \"#utility.yul\":1883:1932   */\n      tag_508\n        /* \"#utility.yul\":1925:1931   */\n      dup5\n        /* \"#utility.yul\":1883:1932   */\n      tag_415\n      jump\t// in\n    tag_508:\n        /* \"#utility.yul\":1867:1933   */\n      tag_414\n      jump\t// in\n    tag_507:\n        /* \"#utility.yul\":1858:1933   */\n      swap1\n      pop\n        /* \"#utility.yul\":1956:1962   */\n      dup3\n        /* \"#utility.yul\":1949:1954   */\n      dup2\n        /* \"#utility.yul\":1942:1963   */\n      mstore\n        /* \"#utility.yul\":1994:1998   */\n      0x20\n        /* \"#utility.yul\":1987:1992   */\n      dup2\n        /* \"#utility.yul\":1983:1999   */\n      add\n        /* \"#utility.yul\":2032:2035   */\n      dup5\n        /* \"#utility.yul\":2023:2029   */\n      dup5\n        /* \"#utility.yul\":2018:2021   */\n      dup5\n        /* \"#utility.yul\":2014:2030   */\n      add\n        /* \"#utility.yul\":2011:2036   */\n      gt\n        /* \"#utility.yul\":2008:2120   */\n      iszero\n      tag_509\n      jumpi\n        /* \"#utility.yul\":2039:2118   */\n      tag_510\n      tag_411\n      jump\t// in\n    tag_510:\n        /* \"#utility.yul\":2008:2120   */\n    tag_509:\n        /* \"#utility.yul\":2129:2183   */\n      tag_511\n        /* \"#utility.yul\":2176:2182   */\n      dup5\n        /* \"#utility.yul\":2171:2174   */\n      dup3\n        /* \"#utility.yul\":2166:2169   */\n      dup6\n        /* \"#utility.yul\":2129:2183   */\n      tag_416\n      jump\t// in\n    tag_511:\n        /* \"#utility.yul\":1848:2189   */\n      pop\n        /* \"#utility.yul\":1764:2189   */\n      swap4\n      swap3\n      pop\n      pop\n      pop\n      jump\t// out\n        /* \"#utility.yul\":2209:2549   */\n    tag_418:\n        /* \"#utility.yul\":2265:2270   */\n      0x00\n        /* \"#utility.yul\":2314:2317   */\n      dup3\n        /* \"#utility.yul\":2307:2311   */\n      0x1f\n        /* \"#utility.yul\":2299:2305   */\n      dup4\n        /* \"#utility.yul\":2295:2312   */\n      add\n        /* \"#utility.yul\":2291:2318   */\n      slt\n        /* \"#utility.yul\":2281:2403   */\n      tag_513\n      jumpi\n        /* \"#utility.yul\":2322:2401   */\n      tag_514\n      tag_410\n      jump\t// in\n    tag_514:\n        /* \"#utility.yul\":2281:2403   */\n    tag_513:\n        /* \"#utility.yul\":2439:2445   */\n      dup2\n        /* \"#utility.yul\":2426:2446   */\n      calldataload\n        /* \"#utility.yul\":2464:2543   */\n      tag_515\n        /* \"#utility.yul\":2539:2542   */\n      dup5\n        /* \"#utility.yul\":2531:2537   */\n      dup3\n        /* \"#utility.yul\":2524:2528   */\n      0x20\n        /* \"#utility.yul\":2516:2522   */\n      dup7\n        /* \"#utility.yul\":2512:2529   */\n      add\n        /* \"#utility.yul\":2464:2543   */\n      tag_417\n      jump\t// in\n    tag_515:\n        /* \"#utility.yul\":2455:2543   */\n      swap2\n      pop\n        /* \"#utility.yul\":2271:2549   */\n      pop\n        /* \"#utility.yul\":2209:2549   */\n      swap3\n      swap2\n      pop\n      pop\n      jump\t// out\n        /* \"#utility.yul\":2555:4040   */\n    tag_23:\n        /* \"#utility.yul\":2681:2687   */\n      0x00\n        /* \"#utility.yul\":2689:2695   */\n      dup1\n        /* \"#utility.yul\":2697:2703   */\n      0x00\n        /* \"#utility.yul\":2705:2711   */\n      dup1\n        /* \"#utility.yul\":2754:2757   */\n      0x80\n        /* \"#utility.yul\":2742:2751   */\n      dup6\n        /* \"#utility.yul\":2733:2740   */\n      dup8\n        /* \"#utility.yul\":2729:2752   */\n      sub\n        /* \"#utility.yul\":2725:2758   */\n      slt\n        /* \"#utility.yul\":2722:2842   */\n      iszero\n      tag_517\n      jumpi\n        /* \"#utility.yul\":2761:2840   */\n      tag_518\n      tag_408\n      jump\t// in\n    tag_518:\n        /* \"#utility.yul\":2722:2842   */\n    tag_517:\n        /* \"#utility.yul\":2909:2910   */\n      0x00\n        /* \"#utility.yul\":2898:2907   */\n      dup6\n        /* \"#utility.yul\":2894:2911   */\n      add\n        /* \"#utility.yul\":2881:2912   */\n      calldataload\n        /* \"#utility.yul\":2939:2957   */\n      0xffffffffffffffff\n        /* \"#utility.yul\":2931:2937   */\n      dup2\n        /* \"#utility.yul\":2928:2958   */\n      gt\n        /* \"#utility.yul\":2925:3042   */\n      iszero\n      tag_519\n      jumpi\n        /* \"#utility.yul\":2961:3040   */\n      tag_520\n      tag_409\n      jump\t// in\n    tag_520:\n        /* \"#utility.yul\":2925:3042   */\n    tag_519:\n        /* \"#utility.yul\":3066:3129   */\n      tag_521\n        /* \"#utility.yul\":3121:3128   */\n      dup8\n        /* \"#utility.yul\":3112:3118   */\n      dup3\n        /* \"#utility.yul\":3101:3110   */\n      dup9\n        /* \"#utility.yul\":3097:3119   */\n      add\n        /* \"#utility.yul\":3066:3129   */\n      tag_418\n      jump\t// in\n    tag_521:\n        /* \"#utility.yul\":3056:3129   */\n      swap5\n      pop\n        /* \"#utility.yul\":2852:3139   */\n      pop\n        /* \"#utility.yul\":3206:3208   */\n      0x20\n        /* \"#utility.yul\":3195:3204   */\n      dup6\n        /* \"#utility.yul\":3191:3209   */\n      add\n        /* \"#utility.yul\":3178:3210   */\n      calldataload\n        /* \"#utility.yul\":3237:3255   */\n      0xffffffffffffffff\n        /* \"#utility.yul\":3229:3235   */\n      dup2\n        /* \"#utility.yul\":3226:3256   */\n      gt\n        /* \"#utility.yul\":3223:3340   */\n      iszero\n      tag_522\n      jumpi\n        /* \"#utility.yul\":3259:3338   */\n      tag_523\n      tag_409\n      jump\t// in\n    tag_523:\n        /* \"#utility.yul\":3223:3340   */\n    tag_522:\n        /* \"#utility.yul\":3364:3427   */\n      tag_524\n        /* \"#utility.yul\":3419:3426   */\n      dup8\n        /* \"#utility.yul\":3410:3416   */\n      dup3\n        /* \"#utility.yul\":3399:3408   */\n      dup9\n        /* \"#utility.yul\":3395:3417   */\n      add\n        /* \"#utility.yul\":3364:3427   */\n      tag_418\n      jump\t// in\n    tag_524:\n        /* \"#utility.yul\":3354:3427   */\n      swap4\n      pop\n        /* \"#utility.yul\":3149:3437   */\n      pop\n        /* \"#utility.yul\":3504:3506   */\n      0x40\n        /* \"#utility.yul\":3493:3502   */\n      dup6\n        /* \"#utility.yul\":3489:3507   */\n      add\n        /* \"#utility.yul\":3476:3508   */\n      calldataload\n        /* \"#utility.yul\":3535:3553   */\n      0xffffffffffffffff\n        /* \"#utility.yul\":3527:3533   */\n      dup2\n        /* \"#utility.yul\":3524:3554   */\n      gt\n        /* \"#utility.yul\":3521:3638   */\n      iszero\n      tag_525\n      jumpi\n        /* \"#utility.yul\":3557:3636   */\n      tag_526\n      tag_409\n      jump\t// in\n    tag_526:\n        /* \"#utility.yul\":3521:3638   */\n    tag_525:\n        /* \"#utility.yul\":3662:3725   */\n      tag_527\n        /* \"#utility.yul\":3717:3724   */\n      dup8\n        /* \"#utility.yul\":3708:3714   */\n      dup3\n        /* \"#utility.yul\":3697:3706   */\n      dup9\n        /* \"#utility.yul\":3693:3715   */\n      add\n        /* \"#utility.yul\":3662:3725   */\n      tag_418\n      jump\t// in\n    tag_527:\n        /* \"#utility.yul\":3652:3725   */\n      swap3\n      pop\n        /* \"#utility.yul\":3447:3735   */\n      pop\n        /* \"#utility.yul\":3802:3804   */\n      0x60\n        /* \"#utility.yul\":3791:3800   */\n      dup6\n        /* \"#utility.yul\":3787:3805   */\n      add\n        /* \"#utility.yul\":3774:3806   */\n      calldataload\n        /* \"#utility.yul\":3833:3851   */\n      0xffffffffffffffff\n        /* \"#utility.yul\":3825:3831   */\n      dup2\n        /* \"#utility.yul\":3822:3852   */\n      gt\n        /* \"#utility.yul\":3819:3936   */\n      iszero\n      tag_528\n      jumpi\n        /* \"#utility.yul\":3855:3934   */\n      tag_529\n      tag_409\n      jump\t// in\n    tag_529:\n        /* \"#utility.yul\":3819:3936   */\n    tag_528:\n        /* \"#utility.yul\":3960:4023   */\n      tag_530\n        /* \"#utility.yul\":4015:4022   */\n      dup8\n        /* \"#utility.yul\":4006:4012   */\n      dup3\n        /* \"#utility.yul\":3995:4004   */\n      dup9\n        /* \"#utility.yul\":3991:4013   */\n      add\n        /* \"#utility.yul\":3960:4023   */\n      tag_418\n      jump\t// in\n    tag_530:\n        /* \"#utility.yul\":3950:4023   */\n      swap2\n      pop\n        /* \"#utility.yul\":3745:4033   */\n      pop\n        /* \"#utility.yul\":2555:4040   */\n      swap3\n      swap6\n      swap2\n      swap5\n      pop\n      swap3\n      pop\n      jump\t// out\n        /* \"#utility.yul\":4046:4160   */\n    tag_419:\n        /* \"#utility.yul\":4113:4119   */\n      0x00\n        /* \"#utility.yul\":4147:4152   */\n      dup2\n        /* \"#utility.yul\":4141:4153   */\n      mload\n        /* \"#utility.yul\":4131:4153   */\n      swap1\n      pop\n        /* \"#utility.yul\":4046:4160   */\n      swap2\n      swap1\n      pop\n      jump\t// out\n        /* \"#utility.yul\":4166:4350   */\n    tag_420:\n        /* \"#utility.yul\":4265:4276   */\n      0x00\n        /* \"#utility.yul\":4299:4305   */\n      dup3\n        /* \"#utility.yul\":4294:4297   */\n      dup3\n        /* \"#utility.yul\":4287:4306   */\n      mstore\n        /* \"#utility.yul\":4339:4343   */\n      0x20\n        /* \"#utility.yul\":4334:4337   */\n      dup3\n        /* \"#utility.yul\":4330:4344   */\n      add\n        /* \"#utility.yul\":4315:4344   */\n      swap1\n      pop\n        /* \"#utility.yul\":4166:4350   */\n      swap3\n      swap2\n      pop\n      pop\n      jump\t// out\n        /* \"#utility.yul\":4356:4488   */\n    tag_421:\n        /* \"#utility.yul\":4423:4427   */\n      0x00\n        /* \"#utility.yul\":4446:4449   */\n      dup2\n        /* \"#utility.yul\":4438:4449   */\n      swap1\n      pop\n        /* \"#utility.yul\":4476:4480   */\n      0x20\n        /* \"#utility.yul\":4471:4474   */\n      dup3\n        /* \"#utility.yul\":4467:4481   */\n      add\n        /* \"#utility.yul\":4459:4481   */\n      swap1\n      pop\n        /* \"#utility.yul\":4356:4488   */\n      swap2\n      swap1\n      pop\n      jump\t// out\n        /* \"#utility.yul\":4494:4571   */\n    tag_422:\n        /* \"#utility.yul\":4531:4538   */\n      0x00\n        /* \"#utility.yul\":4560:4565   */\n      dup2\n        /* \"#utility.yul\":4549:4565   */\n      swap1\n      pop\n        /* \"#utility.yul\":4494:4571   */\n      swap2\n      swap1\n      pop\n      jump\t// out\n        /* \"#utility.yul\":4577:4685   */\n    tag_423:\n        /* \"#utility.yul\":4654:4678   */\n      tag_536\n        /* \"#utility.yul\":4672:4677   */\n      dup2\n        /* \"#utility.yul\":4654:4678   */\n      tag_422\n      jump\t// in\n    tag_536:\n        /* \"#utility.yul\":4649:4652   */\n      dup3\n        /* \"#utility.yul\":4642:4679   */\n      mstore\n        /* \"#utility.yul\":4577:4685   */\n      pop\n      pop\n      jump\t// out\n        /* \"#utility.yul\":4691:4870   */\n    tag_424:\n        /* \"#utility.yul\":4760:4770   */\n      0x00\n        /* \"#utility.yul\":4781:4827   */\n      tag_538\n        /* \"#utility.yul\":4823:4826   */\n      dup4\n        /* \"#utility.yul\":4815:4821   */\n      dup4\n        /* \"#utility.yul\":4781:4827   */\n      tag_423\n      jump\t// in\n    tag_538:\n        /* \"#utility.yul\":4859:4863   */\n      0x20\n        /* \"#utility.yul\":4854:4857   */\n      dup4\n        /* \"#utility.yul\":4850:4864   */\n      add\n        /* \"#utility.yul\":4836:4864   */\n      swap1\n      pop\n        /* \"#utility.yul\":4691:4870   */\n      swap3\n      swap2\n      pop\n      pop\n      jump\t// out\n        /* \"#utility.yul\":4876:4989   */\n    tag_425:\n        /* \"#utility.yul\":4946:4950   */\n      0x00\n        /* \"#utility.yul\":4978:4982   */\n      0x20\n        /* \"#utility.yul\":4973:4976   */\n      dup3\n        /* \"#utility.yul\":4969:4983   */\n      add\n        /* \"#utility.yul\":4961:4983   */\n      swap1\n      pop\n        /* \"#utility.yul\":4876:4989   */\n      swap2\n      swap1\n      pop\n      jump\t// out\n        /* \"#utility.yul\":5025:5757   */\n    tag_426:\n        /* \"#utility.yul\":5144:5147   */\n      0x00\n        /* \"#utility.yul\":5173:5227   */\n      tag_541\n        /* \"#utility.yul\":5221:5226   */\n      dup3\n        /* \"#utility.yul\":5173:5227   */\n      tag_419\n      jump\t// in\n    tag_541:\n        /* \"#utility.yul\":5243:5329   */\n      tag_542\n        /* \"#utility.yul\":5322:5328   */\n      dup2\n        /* \"#utility.yul\":5317:5320   */\n      dup6\n        /* \"#utility.yul\":5243:5329   */\n      tag_420\n      jump\t// in\n    tag_542:\n        /* \"#utility.yul\":5236:5329   */\n      swap4\n      pop\n        /* \"#utility.yul\":5353:5409   */\n      tag_543\n        /* \"#utility.yul\":5403:5408   */\n      dup4\n        /* \"#utility.yul\":5353:5409   */\n      tag_421\n      jump\t// in\n    tag_543:\n        /* \"#utility.yul\":5432:5439   */\n      dup1\n        /* \"#utility.yul\":5463:5464   */\n      0x00\n        /* \"#utility.yul\":5448:5732   */\n    tag_544:\n        /* \"#utility.yul\":5473:5479   */\n      dup4\n        /* \"#utility.yul\":5470:5471   */\n      dup2\n        /* \"#utility.yul\":5467:5480   */\n      lt\n        /* \"#utility.yul\":5448:5732   */\n      iszero\n      tag_546\n      jumpi\n        /* \"#utility.yul\":5549:5555   */\n      dup2\n        /* \"#utility.yul\":5543:5556   */\n      mload\n        /* \"#utility.yul\":5576:5639   */\n      tag_547\n        /* \"#utility.yul\":5635:5638   */\n      dup9\n        /* \"#utility.yul\":5620:5633   */\n      dup3\n        /* \"#utility.yul\":5576:5639   */\n      tag_424\n      jump\t// in\n    tag_547:\n        /* \"#utility.yul\":5569:5639   */\n      swap8\n      pop\n        /* \"#utility.yul\":5662:5722   */\n      tag_548\n        /* \"#utility.yul\":5715:5721   */\n      dup4\n        /* \"#utility.yul\":5662:5722   */\n      tag_425\n      jump\t// in\n    tag_548:\n        /* \"#utility.yul\":5652:5722   */\n      swap3\n      pop\n        /* \"#utility.yul\":5508:5732   */\n      pop\n        /* \"#utility.yul\":5495:5496   */\n      0x01\n        /* \"#utility.yul\":5492:5493   */\n      dup2\n        /* \"#utility.yul\":5488:5497   */\n      add\n        /* \"#utility.yul\":5483:5497   */\n      swap1\n      pop\n        /* \"#utility.yul\":5448:5732   */\n      jump(tag_544)\n    tag_546:\n        /* \"#utility.yul\":5452:5466   */\n      pop\n        /* \"#utility.yul\":5748:5751   */\n      dup6\n        /* \"#utility.yul\":5741:5751   */\n      swap4\n      pop\n        /* \"#utility.yul\":5149:5757   */\n      pop\n      pop\n      pop\n        /* \"#utility.yul\":5025:5757   */\n      swap3\n      swap2\n      pop\n      pop\n      jump\t// out\n        /* \"#utility.yul\":5763:6136   */\n    tag_26:\n        /* \"#utility.yul\":5906:5910   */\n      0x00\n        /* \"#utility.yul\":5944:5946   */\n      0x20\n        /* \"#utility.yul\":5933:5942   */\n      dup3\n        /* \"#utility.yul\":5929:5947   */\n      add\n        /* \"#utility.yul\":5921:5947   */\n      swap1\n      pop\n        /* \"#utility.yul\":5993:6002   */\n      dup2\n        /* \"#utility.yul\":5987:5991   */\n      dup2\n        /* \"#utility.yul\":5983:6003   */\n      sub\n        /* \"#utility.yul\":5979:5980   */\n      0x00\n        /* \"#utility.yul\":5968:5977   */\n      dup4\n        /* \"#utility.yul\":5964:5981   */\n      add\n        /* \"#utility.yul\":5957:6004   */\n      mstore\n        /* \"#utility.yul\":6021:6129   */\n      tag_550\n        /* \"#utility.yul\":6124:6128   */\n      dup2\n        /* \"#utility.yul\":6115:6121   */\n      dup5\n        /* \"#utility.yul\":6021:6129   */\n      tag_426\n      jump\t// in\n    tag_550:\n        /* \"#utility.yul\":6013:6129   */\n      swap1\n      pop\n        /* \"#utility.yul\":5763:6136   */\n      swap3\n      swap2\n      pop\n      pop\n      jump\t// out\n        /* \"#utility.yul\":6142:6264   */\n    tag_427:\n        /* \"#utility.yul\":6215:6239   */\n      tag_552\n        /* \"#utility.yul\":6233:6238   */\n      dup2\n        /* \"#utility.yul\":6215:6239   */\n      tag_422\n      jump\t// in\n    tag_552:\n        /* \"#utility.yul\":6208:6213   */\n      dup2\n        /* \"#utility.yul\":6205:6240   */\n      eq\n        /* \"#utility.yul\":6195:6258   */\n      tag_553\n      jumpi\n        /* \"#utility.yul\":6254:6255   */\n      0x00\n        /* \"#utility.yul\":6251:6252   */\n      dup1\n        /* \"#utility.yul\":6244:6256   */\n      revert\n        /* \"#utility.yul\":6195:6258   */\n    tag_553:\n        /* \"#utility.yul\":6142:6264   */\n      pop\n      jump\t// out\n        /* \"#utility.yul\":6270:6409   */\n    tag_428:\n        /* \"#utility.yul\":6316:6321   */\n      0x00\n        /* \"#utility.yul\":6354:6360   */\n      dup2\n        /* \"#utility.yul\":6341:6361   */\n      calldataload\n        /* \"#utility.yul\":6332:6361   */\n      swap1\n      pop\n        /* \"#utility.yul\":6370:6403   */\n      tag_555\n        /* \"#utility.yul\":6397:6402   */\n      dup2\n        /* \"#utility.yul\":6370:6403   */\n      tag_427\n      jump\t// in\n    tag_555:\n        /* \"#utility.yul\":6270:6409   */\n      swap3\n      swap2\n      pop\n      pop\n      jump\t// out\n        /* \"#utility.yul\":6415:6744   */\n    tag_29:\n        /* \"#utility.yul\":6474:6480   */\n      0x00\n        /* \"#utility.yul\":6523:6525   */\n      0x20\n        /* \"#utility.yul\":6511:6520   */\n      dup3\n        /* \"#utility.yul\":6502:6509   */\n      dup5\n        /* \"#utility.yul\":6498:6521   */\n      sub\n        /* \"#utility.yul\":6494:6526   */\n      slt\n        /* \"#utility.yul\":6491:6610   */\n      iszero\n      tag_557\n      jumpi\n        /* \"#utility.yul\":6529:6608   */\n      tag_558\n      tag_408\n      jump\t// in\n    tag_558:\n        /* \"#utility.yul\":6491:6610   */\n    tag_557:\n        /* \"#utility.yul\":6649:6650   */\n      0x00\n        /* \"#utility.yul\":6674:6727   */\n      tag_559\n        /* \"#utility.yul\":6719:6726   */\n      dup5\n        /* \"#utility.yul\":6710:6716   */\n      dup3\n        /* \"#utility.yul\":6699:6708   */\n      dup6\n        /* \"#utility.yul\":6695:6717   */\n      add\n        /* \"#utility.yul\":6674:6727   */\n      tag_428\n      jump\t// in\n    tag_559:\n        /* \"#utility.yul\":6664:6727   */\n      swap2\n      pop\n        /* \"#utility.yul\":6620:6737   */\n      pop\n        /* \"#utility.yul\":6415:6744   */\n      swap3\n      swap2\n      pop\n      pop\n      jump\t// out\n        /* \"#utility.yul\":6750:6876   */\n    tag_429:\n        /* \"#utility.yul\":6787:6794   */\n      0x00\n        /* \"#utility.yul\":6827:6869   */\n      0xffffffffffffffffffffffffffffffffffffffff\n        /* \"#utility.yul\":6820:6825   */\n      dup3\n        /* \"#utility.yul\":6816:6870   */\n      and\n        /* \"#utility.yul\":6805:6870   */\n      swap1\n      pop\n        /* \"#utility.yul\":6750:6876   */\n      swap2\n      swap1\n      pop\n      jump\t// out\n        /* \"#utility.yul\":6882:6978   */\n    tag_430:\n        /* \"#utility.yul\":6919:6926   */\n      0x00\n        /* \"#utility.yul\":6948:6972   */\n      tag_562\n        /* \"#utility.yul\":6966:6971   */\n      dup3\n        /* \"#utility.yul\":6948:6972   */\n      tag_429\n      jump\t// in\n    tag_562:\n        /* \"#utility.yul\":6937:6972   */\n      swap1\n      pop\n        /* \"#utility.yul\":6882:6978   */\n      swap2\n      swap1\n      pop\n      jump\t// out\n        /* \"#utility.yul\":6984:7102   */\n    tag_431:\n        /* \"#utility.yul\":7071:7095   */\n      tag_564\n        /* \"#utility.yul\":7089:7094   */\n      dup2\n        /* \"#utility.yul\":7071:7095   */\n      tag_430\n      jump\t// in\n    tag_564:\n        /* \"#utility.yul\":7066:7069   */\n      dup3\n        /* \"#utility.yul\":7059:7096   */\n      mstore\n        /* \"#utility.yul\":6984:7102   */\n      pop\n      pop\n      jump\t// out\n        /* \"#utility.yul\":7108:7330   */\n    tag_32:\n        /* \"#utility.yul\":7201:7205   */\n      0x00\n        /* \"#utility.yul\":7239:7241   */\n      0x20\n        /* \"#utility.yul\":7228:7237   */\n      dup3\n        /* \"#utility.yul\":7224:7242   */\n      add\n        /* \"#utility.yul\":7216:7242   */\n      swap1\n      pop\n        /* \"#utility.yul\":7252:7323   */\n      tag_566\n        /* \"#utility.yul\":7320:7321   */\n      0x00\n        /* \"#utility.yul\":7309:7318   */\n      dup4\n        /* \"#utility.yul\":7305:7322   */\n      add\n        /* \"#utility.yul\":7296:7302   */\n      dup5\n        /* \"#utility.yul\":7252:7323   */\n      tag_431\n      jump\t// in\n    tag_566:\n        /* \"#utility.yul\":7108:7330   */\n      swap3\n      swap2\n      pop\n      pop\n      jump\t// out\n        /* \"#utility.yul\":7336:7458   */\n    tag_432:\n        /* \"#utility.yul\":7409:7433   */\n      tag_568\n        /* \"#utility.yul\":7427:7432   */\n      dup2\n        /* \"#utility.yul\":7409:7433   */\n      tag_430\n      jump\t// in\n    tag_568:\n        /* \"#utility.yul\":7402:7407   */\n      dup2\n        /* \"#utility.yul\":7399:7434   */\n      eq\n        /* \"#utility.yul\":7389:7452   */\n      tag_569\n      jumpi\n        /* \"#utility.yul\":7448:7449   */\n      0x00\n        /* \"#utility.yul\":7445:7446   */\n      dup1\n        /* \"#utility.yul\":7438:7450   */\n      revert\n        /* \"#utility.yul\":7389:7452   */\n    tag_569:\n        /* \"#utility.yul\":7336:7458   */\n      pop\n      jump\t// out\n        /* \"#utility.yul\":7464:7603   */\n    tag_433:\n        /* \"#utility.yul\":7510:7515   */\n      0x00\n        /* \"#utility.yul\":7548:7554   */\n      dup2\n        /* \"#utility.yul\":7535:7555   */\n      calldataload\n        /* \"#utility.yul\":7526:7555   */\n      swap1\n      pop\n        /* \"#utility.yul\":7564:7597   */\n      tag_571\n        /* \"#utility.yul\":7591:7596   */\n      dup2\n        /* \"#utility.yul\":7564:7597   */\n      tag_432\n      jump\t// in\n    tag_571:\n        /* \"#utility.yul\":7464:7603   */\n      swap3\n      swap2\n      pop\n      pop\n      jump\t// out\n        /* \"#utility.yul\":7609:7938   */\n    tag_35:\n        /* \"#utility.yul\":7668:7674   */\n      0x00\n        /* \"#utility.yul\":7717:7719   */\n      0x20\n        /* \"#utility.yul\":7705:7714   */\n      dup3\n        /* \"#utility.yul\":7696:7703   */\n      dup5\n        /* \"#utility.yul\":7692:7715   */\n      sub\n        /* \"#utility.yul\":7688:7720   */\n      slt\n        /* \"#utility.yul\":7685:7804   */\n      iszero\n      tag_573\n      jumpi\n        /* \"#utility.yul\":7723:7802   */\n      tag_574\n      tag_408\n      jump\t// in\n    tag_574:\n        /* \"#utility.yul\":7685:7804   */\n    tag_573:\n        /* \"#utility.yul\":7843:7844   */\n      0x00\n        /* \"#utility.yul\":7868:7921   */\n      tag_575\n        /* \"#utility.yul\":7913:7920   */\n      dup5\n        /* \"#utility.yul\":7904:7910   */\n      dup3\n        /* \"#utility.yul\":7893:7902   */\n      dup6\n        /* \"#utility.yul\":7889:7911   */\n      add\n        /* \"#utility.yul\":7868:7921   */\n      tag_433\n      jump\t// in\n    tag_575:\n        /* \"#utility.yul\":7858:7921   */\n      swap2\n      pop\n        /* \"#utility.yul\":7814:7931   */\n      pop\n        /* \"#utility.yul\":7609:7938   */\n      swap3\n      swap2\n      pop\n      pop\n      jump\t// out\n        /* \"#utility.yul\":7944:8034   */\n    tag_434:\n        /* \"#utility.yul\":7978:7985   */\n      0x00\n        /* \"#utility.yul\":8021:8026   */\n      dup2\n        /* \"#utility.yul\":8014:8027   */\n      iszero\n        /* \"#utility.yul\":8007:8028   */\n      iszero\n        /* \"#utility.yul\":7996:8028   */\n      swap1\n      pop\n        /* \"#utility.yul\":7944:8034   */\n      swap2\n      swap1\n      pop\n      jump\t// out\n        /* \"#utility.yul\":8040:8149   */\n    tag_435:\n        /* \"#utility.yul\":8121:8142   */\n      tag_578\n        /* \"#utility.yul\":8136:8141   */\n      dup2\n        /* \"#utility.yul\":8121:8142   */\n      tag_434\n      jump\t// in\n    tag_578:\n        /* \"#utility.yul\":8116:8119   */\n      dup3\n        /* \"#utility.yul\":8109:8143   */\n      mstore\n        /* \"#utility.yul\":8040:8149   */\n      pop\n      pop\n      jump\t// out\n        /* \"#utility.yul\":8155:8365   */\n    tag_41:\n        /* \"#utility.yul\":8242:8246   */\n      0x00\n        /* \"#utility.yul\":8280:8282   */\n      0x20\n        /* \"#utility.yul\":8269:8278   */\n      dup3\n        /* \"#utility.yul\":8265:8283   */\n      add\n        /* \"#utility.yul\":8257:8283   */\n      swap1\n      pop\n        /* \"#utility.yul\":8293:8358   */\n      tag_580\n        /* \"#utility.yul\":8355:8356   */\n      0x00\n        /* \"#utility.yul\":8344:8353   */\n      dup4\n        /* \"#utility.yul\":8340:8357   */\n      add\n        /* \"#utility.yul\":8331:8337   */\n      dup5\n        /* \"#utility.yul\":8293:8358   */\n      tag_435\n      jump\t// in\n    tag_580:\n        /* \"#utility.yul\":8155:8365   */\n      swap3\n      swap2\n      pop\n      pop\n      jump\t// out\n        /* \"#utility.yul\":8371:10182   */\n    tag_49:\n        /* \"#utility.yul\":8516:8522   */\n      0x00\n        /* \"#utility.yul\":8524:8530   */\n      dup1\n        /* \"#utility.yul\":8532:8538   */\n      0x00\n        /* \"#utility.yul\":8540:8546   */\n      dup1\n        /* \"#utility.yul\":8548:8554   */\n      0x00\n        /* \"#utility.yul\":8597:8600   */\n      0xa0\n        /* \"#utility.yul\":8585:8594   */\n      dup7\n        /* \"#utility.yul\":8576:8583   */\n      dup9\n        /* \"#utility.yul\":8572:8595   */\n      sub\n        /* \"#utility.yul\":8568:8601   */\n      slt\n        /* \"#utility.yul\":8565:8685   */\n      iszero\n      tag_582\n      jumpi\n        /* \"#utility.yul\":8604:8683   */\n      tag_583\n      tag_408\n      jump\t// in\n    tag_583:\n        /* \"#utility.yul\":8565:8685   */\n    tag_582:\n        /* \"#utility.yul\":8752:8753   */\n      0x00\n        /* \"#utility.yul\":8741:8750   */\n      dup7\n        /* \"#utility.yul\":8737:8754   */\n      add\n        /* \"#utility.yul\":8724:8755   */\n      calldataload\n        /* \"#utility.yul\":8782:8800   */\n      0xffffffffffffffff\n        /* \"#utility.yul\":8774:8780   */\n      dup2\n        /* \"#utility.yul\":8771:8801   */\n      gt\n        /* \"#utility.yul\":8768:8885   */\n      iszero\n      tag_584\n      jumpi\n        /* \"#utility.yul\":8804:8883   */\n      tag_585\n      tag_409\n      jump\t// in\n    tag_585:\n        /* \"#utility.yul\":8768:8885   */\n    tag_584:\n        /* \"#utility.yul\":8909:8972   */\n      tag_586\n        /* \"#utility.yul\":8964:8971   */\n      dup9\n        /* \"#utility.yul\":8955:8961   */\n      dup3\n        /* \"#utility.yul\":8944:8953   */\n      dup10\n        /* \"#utility.yul\":8940:8962   */\n      add\n        /* \"#utility.yul\":8909:8972   */\n      tag_418\n      jump\t// in\n    tag_586:\n        /* \"#utility.yul\":8899:8972   */\n      swap6\n      pop\n        /* \"#utility.yul\":8695:8982   */\n      pop\n        /* \"#utility.yul\":9049:9051   */\n      0x20\n        /* \"#utility.yul\":9038:9047   */\n      dup7\n        /* \"#utility.yul\":9034:9052   */\n      add\n        /* \"#utility.yul\":9021:9053   */\n      calldataload\n        /* \"#utility.yul\":9080:9098   */\n      0xffffffffffffffff\n        /* \"#utility.yul\":9072:9078   */\n      dup2\n        /* \"#utility.yul\":9069:9099   */\n      gt\n        /* \"#utility.yul\":9066:9183   */\n      iszero\n      tag_587\n      jumpi\n        /* \"#utility.yul\":9102:9181   */\n      tag_588\n      tag_409\n      jump\t// in\n    tag_588:\n        /* \"#utility.yul\":9066:9183   */\n    tag_587:\n        /* \"#utility.yul\":9207:9270   */\n      tag_589\n        /* \"#utility.yul\":9262:9269   */\n      dup9\n        /* \"#utility.yul\":9253:9259   */\n      dup3\n        /* \"#utility.yul\":9242:9251   */\n      dup10\n        /* \"#utility.yul\":9238:9260   */\n      add\n        /* \"#utility.yul\":9207:9270   */\n      tag_418\n      jump\t// in\n    tag_589:\n        /* \"#utility.yul\":9197:9270   */\n      swap5\n      pop\n        /* \"#utility.yul\":8992:9280   */\n      pop\n        /* \"#utility.yul\":9347:9349   */\n      0x40\n        /* \"#utility.yul\":9336:9345   */\n      dup7\n        /* \"#utility.yul\":9332:9350   */\n      add\n        /* \"#utility.yul\":9319:9351   */\n      calldataload\n        /* \"#utility.yul\":9378:9396   */\n      0xffffffffffffffff\n        /* \"#utility.yul\":9370:9376   */\n      dup2\n        /* \"#utility.yul\":9367:9397   */\n      gt\n        /* \"#utility.yul\":9364:9481   */\n      iszero\n      tag_590\n      jumpi\n        /* \"#utility.yul\":9400:9479   */\n      tag_591\n      tag_409\n      jump\t// in\n    tag_591:\n        /* \"#utility.yul\":9364:9481   */\n    tag_590:\n        /* \"#utility.yul\":9505:9568   */\n      tag_592\n        /* \"#utility.yul\":9560:9567   */\n      dup9\n        /* \"#utility.yul\":9551:9557   */\n      dup3\n        /* \"#utility.yul\":9540:9549   */\n      dup10\n        /* \"#utility.yul\":9536:9558   */\n      add\n        /* \"#utility.yul\":9505:9568   */\n      tag_418\n      jump\t// in\n    tag_592:\n        /* \"#utility.yul\":9495:9568   */\n      swap4\n      pop\n        /* \"#utility.yul\":9290:9578   */\n      pop\n        /* \"#utility.yul\":9645:9647   */\n      0x60\n        /* \"#utility.yul\":9634:9643   */\n      dup7\n        /* \"#utility.yul\":9630:9648   */\n      add\n        /* \"#utility.yul\":9617:9649   */\n      calldataload\n        /* \"#utility.yul\":9676:9694   */\n      0xffffffffffffffff\n        /* \"#utility.yul\":9668:9674   */\n      dup2\n        /* \"#utility.yul\":9665:9695   */\n      gt\n        /* \"#utility.yul\":9662:9779   */\n      iszero\n      tag_593\n      jumpi\n        /* \"#utility.yul\":9698:9777   */\n      tag_594\n      tag_409\n      jump\t// in\n    tag_594:\n        /* \"#utility.yul\":9662:9779   */\n    tag_593:\n        /* \"#utility.yul\":9803:9866   */\n      tag_595\n        /* \"#utility.yul\":9858:9865   */\n      dup9\n        /* \"#utility.yul\":9849:9855   */\n      dup3\n        /* \"#utility.yul\":9838:9847   */\n      dup10\n        /* \"#utility.yul\":9834:9856   */\n      add\n        /* \"#utility.yul\":9803:9866   */\n      tag_418\n      jump\t// in\n    tag_595:\n        /* \"#utility.yul\":9793:9866   */\n      swap3\n      pop\n        /* \"#utility.yul\":9588:9876   */\n      pop\n        /* \"#utility.yul\":9943:9946   */\n      0x80\n        /* \"#utility.yul\":9932:9941   */\n      dup7\n        /* \"#utility.yul\":9928:9947   */\n      add\n        /* \"#utility.yul\":9915:9948   */\n      calldataload\n        /* \"#utility.yul\":9975:9993   */\n      0xffffffffffffffff\n        /* \"#utility.yul\":9967:9973   */\n      dup2\n        /* \"#utility.yul\":9964:9994   */\n      gt\n        /* \"#utility.yul\":9961:10078   */\n      iszero\n      tag_596\n      jumpi\n        /* \"#utility.yul\":9997:10076   */\n      tag_597\n      tag_409\n      jump\t// in\n    tag_597:\n        /* \"#utility.yul\":9961:10078   */\n    tag_596:\n        /* \"#utility.yul\":10102:10165   */\n      tag_598\n        /* \"#utility.yul\":10157:10164   */\n      dup9\n        /* \"#utility.yul\":10148:10154   */\n      dup3\n        /* \"#utility.yul\":10137:10146   */\n      dup10\n        /* \"#utility.yul\":10133:10155   */\n      add\n        /* \"#utility.yul\":10102:10165   */\n      tag_418\n      jump\t// in\n    tag_598:\n        /* \"#utility.yul\":10092:10165   */\n      swap2\n      pop\n        /* \"#utility.yul\":9886:10175   */\n      pop\n        /* \"#utility.yul\":8371:10182   */\n      swap3\n      swap6\n      pop\n      swap3\n      swap6\n      swap1\n      swap4\n      pop\n      jump\t// out\n        /* \"#utility.yul\":10188:10306   */\n    tag_436:\n        /* \"#utility.yul\":10275:10299   */\n      tag_600\n        /* \"#utility.yul\":10293:10298   */\n      dup2\n        /* \"#utility.yul\":10275:10299   */\n      tag_422\n      jump\t// in\n    tag_600:\n        /* \"#utility.yul\":10270:10273   */\n      dup3\n        /* \"#utility.yul\":10263:10300   */\n      mstore\n        /* \"#utility.yul\":10188:10306   */\n      pop\n      pop\n      jump\t// out\n        /* \"#utility.yul\":10312:10534   */\n    tag_52:\n        /* \"#utility.yul\":10405:10409   */\n      0x00\n        /* \"#utility.yul\":10443:10445   */\n      0x20\n        /* \"#utility.yul\":10432:10441   */\n      dup3\n        /* \"#utility.yul\":10428:10446   */\n      add\n        /* \"#utility.yul\":10420:10446   */\n      swap1\n      pop\n        /* \"#utility.yul\":10456:10527   */\n      tag_602\n        /* \"#utility.yul\":10524:10525   */\n      0x00\n        /* \"#utility.yul\":10513:10522   */\n      dup4\n        /* \"#utility.yul\":10509:10526   */\n      add\n        /* \"#utility.yul\":10500:10506   */\n      dup5\n        /* \"#utility.yul\":10456:10527   */\n      tag_436\n      jump\t// in\n    tag_602:\n        /* \"#utility.yul\":10312:10534   */\n      swap3\n      swap2\n      pop\n      pop\n      jump\t// out\n        /* \"#utility.yul\":10540:10639   */\n    tag_437:\n        /* \"#utility.yul\":10592:10598   */\n      0x00\n        /* \"#utility.yul\":10626:10631   */\n      dup2\n        /* \"#utility.yul\":10620:10632   */\n      mload\n        /* \"#utility.yul\":10610:10632   */\n      swap1\n      pop\n        /* \"#utility.yul\":10540:10639   */\n      swap2\n      swap1\n      pop\n      jump\t// out\n        /* \"#utility.yul\":10645:10804   */\n    tag_438:\n        /* \"#utility.yul\":10719:10730   */\n      0x00\n        /* \"#utility.yul\":10753:10759   */\n      dup3\n        /* \"#utility.yul\":10748:10751   */\n      dup3\n        /* \"#utility.yul\":10741:10760   */\n      mstore\n        /* \"#utility.yul\":10793:10797   */\n      0x20\n        /* \"#utility.yul\":10788:10791   */\n      dup3\n        /* \"#utility.yul\":10784:10798   */\n      add\n        /* \"#utility.yul\":10769:10798   */\n      swap1\n      pop\n        /* \"#utility.yul\":10645:10804   */\n      swap3\n      swap2\n      pop\n      pop\n      jump\t// out\n        /* \"#utility.yul\":10810:10949   */\n    tag_439:\n        /* \"#utility.yul\":10899:10905   */\n      dup3\n        /* \"#utility.yul\":10894:10897   */\n      dup2\n        /* \"#utility.yul\":10889:10892   */\n      dup4\n        /* \"#utility.yul\":10883:10906   */\n      mcopy\n        /* \"#utility.yul\":10940:10941   */\n      0x00\n        /* \"#utility.yul\":10931:10937   */\n      dup4\n        /* \"#utility.yul\":10926:10929   */\n      dup4\n        /* \"#utility.yul\":10922:10938   */\n      add\n        /* \"#utility.yul\":10915:10942   */\n      mstore\n        /* \"#utility.yul\":10810:10949   */\n      pop\n      pop\n      pop\n      jump\t// out\n        /* \"#utility.yul\":10955:11312   */\n    tag_440:\n        /* \"#utility.yul\":11033:11036   */\n      0x00\n        /* \"#utility.yul\":11061:11100   */\n      tag_607\n        /* \"#utility.yul\":11094:11099   */\n      dup3\n        /* \"#utility.yul\":11061:11100   */\n      tag_437\n      jump\t// in\n    tag_607:\n        /* \"#utility.yul\":11116:11177   */\n      tag_608\n        /* \"#utility.yul\":11170:11176   */\n      dup2\n        /* \"#utility.yul\":11165:11168   */\n      dup6\n        /* \"#utility.yul\":11116:11177   */\n      tag_438\n      jump\t// in\n    tag_608:\n        /* \"#utility.yul\":11109:11177   */\n      swap4\n      pop\n        /* \"#utility.yul\":11186:11251   */\n      tag_609\n        /* \"#utility.yul\":11244:11250   */\n      dup2\n        /* \"#utility.yul\":11239:11242   */\n      dup6\n        /* \"#utility.yul\":11232:11236   */\n      0x20\n        /* \"#utility.yul\":11225:11230   */\n      dup7\n        /* \"#utility.yul\":11221:11237   */\n      add\n        /* \"#utility.yul\":11186:11251   */\n      tag_439\n      jump\t// in\n    tag_609:\n        /* \"#utility.yul\":11276:11305   */\n      tag_610\n        /* \"#utility.yul\":11298:11304   */\n      dup2\n        /* \"#utility.yul\":11276:11305   */\n      tag_412\n      jump\t// in\n    tag_610:\n        /* \"#utility.yul\":11271:11274   */\n      dup5\n        /* \"#utility.yul\":11267:11306   */\n      add\n        /* \"#utility.yul\":11260:11306   */\n      swap2\n      pop\n        /* \"#utility.yul\":11037:11312   */\n      pop\n        /* \"#utility.yul\":10955:11312   */\n      swap3\n      swap2\n      pop\n      pop\n      jump\t// out\n        /* \"#utility.yul\":11398:12761   */\n    tag_441:\n        /* \"#utility.yul\":11517:11520   */\n      0x00\n        /* \"#utility.yul\":11553:11557   */\n      0xa0\n        /* \"#utility.yul\":11548:11551   */\n      dup4\n        /* \"#utility.yul\":11544:11558   */\n      add\n        /* \"#utility.yul\":11642:11646   */\n      0x00\n        /* \"#utility.yul\":11635:11640   */\n      dup4\n        /* \"#utility.yul\":11631:11647   */\n      add\n        /* \"#utility.yul\":11625:11648   */\n      mload\n        /* \"#utility.yul\":11695:11698   */\n      dup5\n        /* \"#utility.yul\":11689:11693   */\n      dup3\n        /* \"#utility.yul\":11685:11699   */\n      sub\n        /* \"#utility.yul\":11678:11682   */\n      0x00\n        /* \"#utility.yul\":11673:11676   */\n      dup7\n        /* \"#utility.yul\":11669:11683   */\n      add\n        /* \"#utility.yul\":11662:11700   */\n      mstore\n        /* \"#utility.yul\":11721:11794   */\n      tag_612\n        /* \"#utility.yul\":11789:11793   */\n      dup3\n        /* \"#utility.yul\":11775:11787   */\n      dup3\n        /* \"#utility.yul\":11721:11794   */\n      tag_440\n      jump\t// in\n    tag_612:\n        /* \"#utility.yul\":11713:11794   */\n      swap2\n      pop\n        /* \"#utility.yul\":11568:11805   */\n      pop\n        /* \"#utility.yul\":11893:11897   */\n      0x20\n        /* \"#utility.yul\":11886:11891   */\n      dup4\n        /* \"#utility.yul\":11882:11898   */\n      add\n        /* \"#utility.yul\":11876:11899   */\n      mload\n        /* \"#utility.yul\":11946:11949   */\n      dup5\n        /* \"#utility.yul\":11940:11944   */\n      dup3\n        /* \"#utility.yul\":11936:11950   */\n      sub\n        /* \"#utility.yul\":11929:11933   */\n      0x20\n        /* \"#utility.yul\":11924:11927   */\n      dup7\n        /* \"#utility.yul\":11920:11934   */\n      add\n        /* \"#utility.yul\":11913:11951   */\n      mstore\n        /* \"#utility.yul\":11972:12045   */\n      tag_613\n        /* \"#utility.yul\":12040:12044   */\n      dup3\n        /* \"#utility.yul\":12026:12038   */\n      dup3\n        /* \"#utility.yul\":11972:12045   */\n      tag_440\n      jump\t// in\n    tag_613:\n        /* \"#utility.yul\":11964:12045   */\n      swap2\n      pop\n        /* \"#utility.yul\":11815:12056   */\n      pop\n        /* \"#utility.yul\":12142:12146   */\n      0x40\n        /* \"#utility.yul\":12135:12140   */\n      dup4\n        /* \"#utility.yul\":12131:12147   */\n      add\n        /* \"#utility.yul\":12125:12148   */\n      mload\n        /* \"#utility.yul\":12195:12198   */\n      dup5\n        /* \"#utility.yul\":12189:12193   */\n      dup3\n        /* \"#utility.yul\":12185:12199   */\n      sub\n        /* \"#utility.yul\":12178:12182   */\n      0x40\n        /* \"#utility.yul\":12173:12176   */\n      dup7\n        /* \"#utility.yul\":12169:12183   */\n      add\n        /* \"#utility.yul\":12162:12200   */\n      mstore\n        /* \"#utility.yul\":12221:12294   */\n      tag_614\n        /* \"#utility.yul\":12289:12293   */\n      dup3\n        /* \"#utility.yul\":12275:12287   */\n      dup3\n        /* \"#utility.yul\":12221:12294   */\n      tag_440\n      jump\t// in\n    tag_614:\n        /* \"#utility.yul\":12213:12294   */\n      swap2\n      pop\n        /* \"#utility.yul\":12066:12305   */\n      pop\n        /* \"#utility.yul\":12391:12395   */\n      0x60\n        /* \"#utility.yul\":12384:12389   */\n      dup4\n        /* \"#utility.yul\":12380:12396   */\n      add\n        /* \"#utility.yul\":12374:12397   */\n      mload\n        /* \"#utility.yul\":12444:12447   */\n      dup5\n        /* \"#utility.yul\":12438:12442   */\n      dup3\n        /* \"#utility.yul\":12434:12448   */\n      sub\n        /* \"#utility.yul\":12427:12431   */\n      0x60\n        /* \"#utility.yul\":12422:12425   */\n      dup7\n        /* \"#utility.yul\":12418:12432   */\n      add\n        /* \"#utility.yul\":12411:12449   */\n      mstore\n        /* \"#utility.yul\":12470:12543   */\n      tag_615\n        /* \"#utility.yul\":12538:12542   */\n      dup3\n        /* \"#utility.yul\":12524:12536   */\n      dup3\n        /* \"#utility.yul\":12470:12543   */\n      tag_440\n      jump\t// in\n    tag_615:\n        /* \"#utility.yul\":12462:12543   */\n      swap2\n      pop\n        /* \"#utility.yul\":12315:12554   */\n      pop\n        /* \"#utility.yul\":12642:12646   */\n      0x80\n        /* \"#utility.yul\":12635:12640   */\n      dup4\n        /* \"#utility.yul\":12631:12647   */\n      add\n        /* \"#utility.yul\":12625:12648   */\n      mload\n        /* \"#utility.yul\":12661:12724   */\n      tag_616\n        /* \"#utility.yul\":12718:12722   */\n      0x80\n        /* \"#utility.yul\":12713:12716   */\n      dup7\n        /* \"#utility.yul\":12709:12723   */\n      add\n        /* \"#utility.yul\":12695:12707   */\n      dup3\n        /* \"#utility.yul\":12661:12724   */\n      tag_423\n      jump\t// in\n    tag_616:\n        /* \"#utility.yul\":12564:12734   */\n      pop\n        /* \"#utility.yul\":12751:12755   */\n      dup1\n        /* \"#utility.yul\":12744:12755   */\n      swap2\n      pop\n        /* \"#utility.yul\":11522:12761   */\n      pop\n        /* \"#utility.yul\":11398:12761   */\n      swap3\n      swap2\n      pop\n      pop\n      jump\t// out\n        /* \"#utility.yul\":12843:14620   */\n    tag_442:\n        /* \"#utility.yul\":12958:12961   */\n      0x00\n        /* \"#utility.yul\":12994:12998   */\n      0xe0\n        /* \"#utility.yul\":12989:12992   */\n      dup4\n        /* \"#utility.yul\":12985:12999   */\n      add\n        /* \"#utility.yul\":13079:13083   */\n      0x00\n        /* \"#utility.yul\":13072:13077   */\n      dup4\n        /* \"#utility.yul\":13068:13084   */\n      add\n        /* \"#utility.yul\":13062:13085   */\n      mload\n        /* \"#utility.yul\":13132:13135   */\n      dup5\n        /* \"#utility.yul\":13126:13130   */\n      dup3\n        /* \"#utility.yul\":13122:13136   */\n      sub\n        /* \"#utility.yul\":13115:13119   */\n      0x00\n        /* \"#utility.yul\":13110:13113   */\n      dup7\n        /* \"#utility.yul\":13106:13120   */\n      add\n        /* \"#utility.yul\":13099:13137   */\n      mstore\n        /* \"#utility.yul\":13158:13231   */\n      tag_618\n        /* \"#utility.yul\":13226:13230   */\n      dup3\n        /* \"#utility.yul\":13212:13224   */\n      dup3\n        /* \"#utility.yul\":13158:13231   */\n      tag_440\n      jump\t// in\n    tag_618:\n        /* \"#utility.yul\":13150:13231   */\n      swap2\n      pop\n        /* \"#utility.yul\":13009:13242   */\n      pop\n        /* \"#utility.yul\":13330:13334   */\n      0x20\n        /* \"#utility.yul\":13323:13328   */\n      dup4\n        /* \"#utility.yul\":13319:13335   */\n      add\n        /* \"#utility.yul\":13313:13336   */\n      mload\n        /* \"#utility.yul\":13383:13386   */\n      dup5\n        /* \"#utility.yul\":13377:13381   */\n      dup3\n        /* \"#utility.yul\":13373:13387   */\n      sub\n        /* \"#utility.yul\":13366:13370   */\n      0x20\n        /* \"#utility.yul\":13361:13364   */\n      dup7\n        /* \"#utility.yul\":13357:13371   */\n      add\n        /* \"#utility.yul\":13350:13388   */\n      mstore\n        /* \"#utility.yul\":13409:13482   */\n      tag_619\n        /* \"#utility.yul\":13477:13481   */\n      dup3\n        /* \"#utility.yul\":13463:13475   */\n      dup3\n        /* \"#utility.yul\":13409:13482   */\n      tag_440\n      jump\t// in\n    tag_619:\n        /* \"#utility.yul\":13401:13482   */\n      swap2\n      pop\n        /* \"#utility.yul\":13252:13493   */\n      pop\n        /* \"#utility.yul\":13573:13577   */\n      0x40\n        /* \"#utility.yul\":13566:13571   */\n      dup4\n        /* \"#utility.yul\":13562:13578   */\n      add\n        /* \"#utility.yul\":13556:13579   */\n      mload\n        /* \"#utility.yul\":13626:13629   */\n      dup5\n        /* \"#utility.yul\":13620:13624   */\n      dup3\n        /* \"#utility.yul\":13616:13630   */\n      sub\n        /* \"#utility.yul\":13609:13613   */\n      0x40\n        /* \"#utility.yul\":13604:13607   */\n      dup7\n        /* \"#utility.yul\":13600:13614   */\n      add\n        /* \"#utility.yul\":13593:13631   */\n      mstore\n        /* \"#utility.yul\":13652:13725   */\n      tag_620\n        /* \"#utility.yul\":13720:13724   */\n      dup3\n        /* \"#utility.yul\":13706:13718   */\n      dup3\n        /* \"#utility.yul\":13652:13725   */\n      tag_440\n      jump\t// in\n    tag_620:\n        /* \"#utility.yul\":13644:13725   */\n      swap2\n      pop\n        /* \"#utility.yul\":13503:13736   */\n      pop\n        /* \"#utility.yul\":13823:13827   */\n      0x60\n        /* \"#utility.yul\":13816:13821   */\n      dup4\n        /* \"#utility.yul\":13812:13828   */\n      add\n        /* \"#utility.yul\":13806:13829   */\n      mload\n        /* \"#utility.yul\":13876:13879   */\n      dup5\n        /* \"#utility.yul\":13870:13874   */\n      dup3\n        /* \"#utility.yul\":13866:13880   */\n      sub\n        /* \"#utility.yul\":13859:13863   */\n      0x60\n        /* \"#utility.yul\":13854:13857   */\n      dup7\n        /* \"#utility.yul\":13850:13864   */\n      add\n        /* \"#utility.yul\":13843:13881   */\n      mstore\n        /* \"#utility.yul\":13902:13975   */\n      tag_621\n        /* \"#utility.yul\":13970:13974   */\n      dup3\n        /* \"#utility.yul\":13956:13968   */\n      dup3\n        /* \"#utility.yul\":13902:13975   */\n      tag_440\n      jump\t// in\n    tag_621:\n        /* \"#utility.yul\":13894:13975   */\n      swap2\n      pop\n        /* \"#utility.yul\":13746:13986   */\n      pop\n        /* \"#utility.yul\":14071:14075   */\n      0x80\n        /* \"#utility.yul\":14064:14069   */\n      dup4\n        /* \"#utility.yul\":14060:14076   */\n      add\n        /* \"#utility.yul\":14054:14077   */\n      mload\n        /* \"#utility.yul\":14124:14127   */\n      dup5\n        /* \"#utility.yul\":14118:14122   */\n      dup3\n        /* \"#utility.yul\":14114:14128   */\n      sub\n        /* \"#utility.yul\":14107:14111   */\n      0x80\n        /* \"#utility.yul\":14102:14105   */\n      dup7\n        /* \"#utility.yul\":14098:14112   */\n      add\n        /* \"#utility.yul\":14091:14129   */\n      mstore\n        /* \"#utility.yul\":14150:14223   */\n      tag_622\n        /* \"#utility.yul\":14218:14222   */\n      dup3\n        /* \"#utility.yul\":14204:14216   */\n      dup3\n        /* \"#utility.yul\":14150:14223   */\n      tag_440\n      jump\t// in\n    tag_622:\n        /* \"#utility.yul\":14142:14223   */\n      swap2\n      pop\n        /* \"#utility.yul\":13996:14234   */\n      pop\n        /* \"#utility.yul\":14322:14326   */\n      0xa0\n        /* \"#utility.yul\":14315:14320   */\n      dup4\n        /* \"#utility.yul\":14311:14327   */\n      add\n        /* \"#utility.yul\":14305:14328   */\n      mload\n        /* \"#utility.yul\":14341:14404   */\n      tag_623\n        /* \"#utility.yul\":14398:14402   */\n      0xa0\n        /* \"#utility.yul\":14393:14396   */\n      dup7\n        /* \"#utility.yul\":14389:14403   */\n      add\n        /* \"#utility.yul\":14375:14387   */\n      dup3\n        /* \"#utility.yul\":14341:14404   */\n      tag_423\n      jump\t// in\n    tag_623:\n        /* \"#utility.yul\":14244:14414   */\n      pop\n        /* \"#utility.yul\":14501:14505   */\n      0xc0\n        /* \"#utility.yul\":14494:14499   */\n      dup4\n        /* \"#utility.yul\":14490:14506   */\n      add\n        /* \"#utility.yul\":14484:14507   */\n      mload\n        /* \"#utility.yul\":14520:14583   */\n      tag_624\n        /* \"#utility.yul\":14577:14581   */\n      0xc0\n        /* \"#utility.yul\":14572:14575   */\n      dup7\n        /* \"#utility.yul\":14568:14582   */\n      add\n        /* \"#utility.yul\":14554:14566   */\n      dup3\n        /* \"#utility.yul\":14520:14583   */\n      tag_423\n      jump\t// in\n    tag_624:\n        /* \"#utility.yul\":14424:14593   */\n      pop\n        /* \"#utility.yul\":14610:14614   */\n      dup1\n        /* \"#utility.yul\":14603:14614   */\n      swap2\n      pop\n        /* \"#utility.yul\":12963:14620   */\n      pop\n        /* \"#utility.yul\":12843:14620   */\n      swap3\n      swap2\n      pop\n      pop\n      jump\t// out\n        /* \"#utility.yul\":14626:15252   */\n    tag_63:\n        /* \"#utility.yul\":14843:14847   */\n      0x00\n        /* \"#utility.yul\":14881:14883   */\n      0x40\n        /* \"#utility.yul\":14870:14879   */\n      dup3\n        /* \"#utility.yul\":14866:14884   */\n      add\n        /* \"#utility.yul\":14858:14884   */\n      swap1\n      pop\n        /* \"#utility.yul\":14930:14939   */\n      dup2\n        /* \"#utility.yul\":14924:14928   */\n      dup2\n        /* \"#utility.yul\":14920:14940   */\n      sub\n        /* \"#utility.yul\":14916:14917   */\n      0x00\n        /* \"#utility.yul\":14905:14914   */\n      dup4\n        /* \"#utility.yul\":14901:14918   */\n      add\n        /* \"#utility.yul\":14894:14941   */\n      mstore\n        /* \"#utility.yul\":14958:15066   */\n      tag_626\n        /* \"#utility.yul\":15061:15065   */\n      dup2\n        /* \"#utility.yul\":15052:15058   */\n      dup6\n        /* \"#utility.yul\":14958:15066   */\n      tag_441\n      jump\t// in\n    tag_626:\n        /* \"#utility.yul\":14950:15066   */\n      swap1\n      pop\n        /* \"#utility.yul\":15113:15122   */\n      dup2\n        /* \"#utility.yul\":15107:15111   */\n      dup2\n        /* \"#utility.yul\":15103:15123   */\n      sub\n        /* \"#utility.yul\":15098:15100   */\n      0x20\n        /* \"#utility.yul\":15087:15096   */\n      dup4\n        /* \"#utility.yul\":15083:15101   */\n      add\n        /* \"#utility.yul\":15076:15124   */\n      mstore\n        /* \"#utility.yul\":15141:15245   */\n      tag_627\n        /* \"#utility.yul\":15240:15244   */\n      dup2\n        /* \"#utility.yul\":15231:15237   */\n      dup5\n        /* \"#utility.yul\":15141:15245   */\n      tag_442\n      jump\t// in\n    tag_627:\n        /* \"#utility.yul\":15133:15245   */\n      swap1\n      pop\n        /* \"#utility.yul\":14626:15252   */\n      swap4\n      swap3\n      pop\n      pop\n      pop\n      jump\t// out\n        /* \"#utility.yul\":15258:16889   */\n    tag_66:\n        /* \"#utility.yul\":15393:15399   */\n      0x00\n        /* \"#utility.yul\":15401:15407   */\n      dup1\n        /* \"#utility.yul\":15409:15415   */\n      0x00\n        /* \"#utility.yul\":15417:15423   */\n      dup1\n        /* \"#utility.yul\":15425:15431   */\n      0x00\n        /* \"#utility.yul\":15474:15477   */\n      0xa0\n        /* \"#utility.yul\":15462:15471   */\n      dup7\n        /* \"#utility.yul\":15453:15460   */\n      dup9\n        /* \"#utility.yul\":15449:15472   */\n      sub\n        /* \"#utility.yul\":15445:15478   */\n      slt\n        /* \"#utility.yul\":15442:15562   */\n      iszero\n      tag_629\n      jumpi\n        /* \"#utility.yul\":15481:15560   */\n      tag_630\n      tag_408\n      jump\t// in\n    tag_630:\n        /* \"#utility.yul\":15442:15562   */\n    tag_629:\n        /* \"#utility.yul\":15601:15602   */\n      0x00\n        /* \"#utility.yul\":15626:15679   */\n      tag_631\n        /* \"#utility.yul\":15671:15678   */\n      dup9\n        /* \"#utility.yul\":15662:15668   */\n      dup3\n        /* \"#utility.yul\":15651:15660   */\n      dup10\n        /* \"#utility.yul\":15647:15669   */\n      add\n        /* \"#utility.yul\":15626:15679   */\n      tag_433\n      jump\t// in\n    tag_631:\n        /* \"#utility.yul\":15616:15679   */\n      swap6\n      pop\n        /* \"#utility.yul\":15572:15689   */\n      pop\n        /* \"#utility.yul\":15756:15758   */\n      0x20\n        /* \"#utility.yul\":15745:15754   */\n      dup7\n        /* \"#utility.yul\":15741:15759   */\n      add\n        /* \"#utility.yul\":15728:15760   */\n      calldataload\n        /* \"#utility.yul\":15787:15805   */\n      0xffffffffffffffff\n        /* \"#utility.yul\":15779:15785   */\n      dup2\n        /* \"#utility.yul\":15776:15806   */\n      gt\n        /* \"#utility.yul\":15773:15890   */\n      iszero\n      tag_632\n      jumpi\n        /* \"#utility.yul\":15809:15888   */\n      tag_633\n      tag_409\n      jump\t// in\n    tag_633:\n        /* \"#utility.yul\":15773:15890   */\n    tag_632:\n        /* \"#utility.yul\":15914:15977   */\n      tag_634\n        /* \"#utility.yul\":15969:15976   */\n      dup9\n        /* \"#utility.yul\":15960:15966   */\n      dup3\n        /* \"#utility.yul\":15949:15958   */\n      dup10\n        /* \"#utility.yul\":15945:15967   */\n      add\n        /* \"#utility.yul\":15914:15977   */\n      tag_418\n      jump\t// in\n    tag_634:\n        /* \"#utility.yul\":15904:15977   */\n      swap5\n      pop\n        /* \"#utility.yul\":15699:15987   */\n      pop\n        /* \"#utility.yul\":16054:16056   */\n      0x40\n        /* \"#utility.yul\":16043:16052   */\n      dup7\n        /* \"#utility.yul\":16039:16057   */\n      add\n        /* \"#utility.yul\":16026:16058   */\n      calldataload\n        /* \"#utility.yul\":16085:16103   */\n      0xffffffffffffffff\n        /* \"#utility.yul\":16077:16083   */\n      dup2\n        /* \"#utility.yul\":16074:16104   */\n      gt\n        /* \"#utility.yul\":16071:16188   */\n      iszero\n      tag_635\n      jumpi\n        /* \"#utility.yul\":16107:16186   */\n      tag_636\n      tag_409\n      jump\t// in\n    tag_636:\n        /* \"#utility.yul\":16071:16188   */\n    tag_635:\n        /* \"#utility.yul\":16212:16275   */\n      tag_637\n        /* \"#utility.yul\":16267:16274   */\n      dup9\n        /* \"#utility.yul\":16258:16264   */\n      dup3\n        /* \"#utility.yul\":16247:16256   */\n      dup10\n        /* \"#utility.yul\":16243:16265   */\n      add\n        /* \"#utility.yul\":16212:16275   */\n      tag_418\n      jump\t// in\n    tag_637:\n        /* \"#utility.yul\":16202:16275   */\n      swap4\n      pop\n        /* \"#utility.yul\":15997:16285   */\n      pop\n        /* \"#utility.yul\":16352:16354   */\n      0x60\n        /* \"#utility.yul\":16341:16350   */\n      dup7\n        /* \"#utility.yul\":16337:16355   */\n      add\n        /* \"#utility.yul\":16324:16356   */\n      calldataload\n        /* \"#utility.yul\":16383:16401   */\n      0xffffffffffffffff\n        /* \"#utility.yul\":16375:16381   */\n      dup2\n        /* \"#utility.yul\":16372:16402   */\n      gt\n        /* \"#utility.yul\":16369:16486   */\n      iszero\n      tag_638\n      jumpi\n        /* \"#utility.yul\":16405:16484   */\n      tag_639\n      tag_409\n      jump\t// in\n    tag_639:\n        /* \"#utility.yul\":16369:16486   */\n    tag_638:\n        /* \"#utility.yul\":16510:16573   */\n      tag_640\n        /* \"#utility.yul\":16565:16572   */\n      dup9\n        /* \"#utility.yul\":16556:16562   */\n      dup3\n        /* \"#utility.yul\":16545:16554   */\n      dup10\n        /* \"#utility.yul\":16541:16563   */\n      add\n        /* \"#utility.yul\":16510:16573   */\n      tag_418\n      jump\t// in\n    tag_640:\n        /* \"#utility.yul\":16500:16573   */\n      swap3\n      pop\n        /* \"#utility.yul\":16295:16583   */\n      pop\n        /* \"#utility.yul\":16650:16653   */\n      0x80\n        /* \"#utility.yul\":16639:16648   */\n      dup7\n        /* \"#utility.yul\":16635:16654   */\n      add\n        /* \"#utility.yul\":16622:16655   */\n      calldataload\n        /* \"#utility.yul\":16682:16700   */\n      0xffffffffffffffff\n        /* \"#utility.yul\":16674:16680   */\n      dup2\n        /* \"#utility.yul\":16671:16701   */\n      gt\n        /* \"#utility.yul\":16668:16785   */\n      iszero\n      tag_641\n      jumpi\n        /* \"#utility.yul\":16704:16783   */\n      tag_642\n      tag_409\n      jump\t// in\n    tag_642:\n        /* \"#utility.yul\":16668:16785   */\n    tag_641:\n        /* \"#utility.yul\":16809:16872   */\n      tag_643\n        /* \"#utility.yul\":16864:16871   */\n      dup9\n        /* \"#utility.yul\":16855:16861   */\n      dup3\n        /* \"#utility.yul\":16844:16853   */\n      dup10\n        /* \"#utility.yul\":16840:16862   */\n      add\n        /* \"#utility.yul\":16809:16872   */\n      tag_418\n      jump\t// in\n    tag_643:\n        /* \"#utility.yul\":16799:16872   */\n      swap2\n      pop\n        /* \"#utility.yul\":16593:16882   */\n      pop\n        /* \"#utility.yul\":15258:16889   */\n      swap3\n      swap6\n      pop\n      swap3\n      swap6\n      swap1\n      swap4\n      pop\n      jump\t// out\n        /* \"#utility.yul\":16895:17064   */\n    tag_443:\n        /* \"#utility.yul\":16979:16990   */\n      0x00\n        /* \"#utility.yul\":17013:17019   */\n      dup3\n        /* \"#utility.yul\":17008:17011   */\n      dup3\n        /* \"#utility.yul\":17001:17020   */\n      mstore\n        /* \"#utility.yul\":17053:17057   */\n      0x20\n        /* \"#utility.yul\":17048:17051   */\n      dup3\n        /* \"#utility.yul\":17044:17058   */\n      add\n        /* \"#utility.yul\":17029:17058   */\n      swap1\n      pop\n        /* \"#utility.yul\":16895:17064   */\n      swap3\n      swap2\n      pop\n      pop\n      jump\t// out\n        /* \"#utility.yul\":17070:17447   */\n    tag_444:\n        /* \"#utility.yul\":17158:17161   */\n      0x00\n        /* \"#utility.yul\":17186:17225   */\n      tag_646\n        /* \"#utility.yul\":17219:17224   */\n      dup3\n        /* \"#utility.yul\":17186:17225   */\n      tag_437\n      jump\t// in\n    tag_646:\n        /* \"#utility.yul\":17241:17312   */\n      tag_647\n        /* \"#utility.yul\":17305:17311   */\n      dup2\n        /* \"#utility.yul\":17300:17303   */\n      dup6\n        /* \"#utility.yul\":17241:17312   */\n      tag_443\n      jump\t// in\n    tag_647:\n        /* \"#utility.yul\":17234:17312   */\n      swap4\n      pop\n        /* \"#utility.yul\":17321:17386   */\n      tag_648\n        /* \"#utility.yul\":17379:17385   */\n      dup2\n        /* \"#utility.yul\":17374:17377   */\n      dup6\n        /* \"#utility.yul\":17367:17371   */\n      0x20\n        /* \"#utility.yul\":17360:17365   */\n      dup7\n        /* \"#utility.yul\":17356:17372   */\n      add\n        /* \"#utility.yul\":17321:17386   */\n      tag_439\n      jump\t// in\n    tag_648:\n        /* \"#utility.yul\":17411:17440   */\n      tag_649\n        /* \"#utility.yul\":17433:17439   */\n      dup2\n        /* \"#utility.yul\":17411:17440   */\n      tag_412\n      jump\t// in\n    tag_649:\n        /* \"#utility.yul\":17406:17409   */\n      dup5\n        /* \"#utility.yul\":17402:17441   */\n      add\n        /* \"#utility.yul\":17395:17441   */\n      swap2\n      pop\n        /* \"#utility.yul\":17162:17447   */\n      pop\n        /* \"#utility.yul\":17070:17447   */\n      swap3\n      swap2\n      pop\n      pop\n      jump\t// out\n        /* \"#utility.yul\":17453:18794   */\n    tag_72:\n        /* \"#utility.yul\":17814:17818   */\n      0x00\n        /* \"#utility.yul\":17852:17855   */\n      0xe0\n        /* \"#utility.yul\":17841:17850   */\n      dup3\n        /* \"#utility.yul\":17837:17856   */\n      add\n        /* \"#utility.yul\":17829:17856   */\n      swap1\n      pop\n        /* \"#utility.yul\":17902:17911   */\n      dup2\n        /* \"#utility.yul\":17896:17900   */\n      dup2\n        /* \"#utility.yul\":17892:17912   */\n      sub\n        /* \"#utility.yul\":17888:17889   */\n      0x00\n        /* \"#utility.yul\":17877:17886   */\n      dup4\n        /* \"#utility.yul\":17873:17890   */\n      add\n        /* \"#utility.yul\":17866:17913   */\n      mstore\n        /* \"#utility.yul\":17930:18008   */\n      tag_651\n        /* \"#utility.yul\":18003:18007   */\n      dup2\n        /* \"#utility.yul\":17994:18000   */\n      dup11\n        /* \"#utility.yul\":17930:18008   */\n      tag_444\n      jump\t// in\n    tag_651:\n        /* \"#utility.yul\":17922:18008   */\n      swap1\n      pop\n        /* \"#utility.yul\":18055:18064   */\n      dup2\n        /* \"#utility.yul\":18049:18053   */\n      dup2\n        /* \"#utility.yul\":18045:18065   */\n      sub\n        /* \"#utility.yul\":18040:18042   */\n      0x20\n        /* \"#utility.yul\":18029:18038   */\n      dup4\n        /* \"#utility.yul\":18025:18043   */\n      add\n        /* \"#utility.yul\":18018:18066   */\n      mstore\n        /* \"#utility.yul\":18083:18161   */\n      tag_652\n        /* \"#utility.yul\":18156:18160   */\n      dup2\n        /* \"#utility.yul\":18147:18153   */\n      dup10\n        /* \"#utility.yul\":18083:18161   */\n      tag_444\n      jump\t// in\n    tag_652:\n        /* \"#utility.yul\":18075:18161   */\n      swap1\n      pop\n        /* \"#utility.yul\":18208:18217   */\n      dup2\n        /* \"#utility.yul\":18202:18206   */\n      dup2\n        /* \"#utility.yul\":18198:18218   */\n      sub\n        /* \"#utility.yul\":18193:18195   */\n      0x40\n        /* \"#utility.yul\":18182:18191   */\n      dup4\n        /* \"#utility.yul\":18178:18196   */\n      add\n        /* \"#utility.yul\":18171:18219   */\n      mstore\n        /* \"#utility.yul\":18236:18314   */\n      tag_653\n        /* \"#utility.yul\":18309:18313   */\n      dup2\n        /* \"#utility.yul\":18300:18306   */\n      dup9\n        /* \"#utility.yul\":18236:18314   */\n      tag_444\n      jump\t// in\n    tag_653:\n        /* \"#utility.yul\":18228:18314   */\n      swap1\n      pop\n        /* \"#utility.yul\":18361:18370   */\n      dup2\n        /* \"#utility.yul\":18355:18359   */\n      dup2\n        /* \"#utility.yul\":18351:18371   */\n      sub\n        /* \"#utility.yul\":18346:18348   */\n      0x60\n        /* \"#utility.yul\":18335:18344   */\n      dup4\n        /* \"#utility.yul\":18331:18349   */\n      add\n        /* \"#utility.yul\":18324:18372   */\n      mstore\n        /* \"#utility.yul\":18389:18467   */\n      tag_654\n        /* \"#utility.yul\":18462:18466   */\n      dup2\n        /* \"#utility.yul\":18453:18459   */\n      dup8\n        /* \"#utility.yul\":18389:18467   */\n      tag_444\n      jump\t// in\n    tag_654:\n        /* \"#utility.yul\":18381:18467   */\n      swap1\n      pop\n        /* \"#utility.yul\":18515:18524   */\n      dup2\n        /* \"#utility.yul\":18509:18513   */\n      dup2\n        /* \"#utility.yul\":18505:18525   */\n      sub\n        /* \"#utility.yul\":18499:18502   */\n      0x80\n        /* \"#utility.yul\":18488:18497   */\n      dup4\n        /* \"#utility.yul\":18484:18503   */\n      add\n        /* \"#utility.yul\":18477:18526   */\n      mstore\n        /* \"#utility.yul\":18543:18621   */\n      tag_655\n        /* \"#utility.yul\":18616:18620   */\n      dup2\n        /* \"#utility.yul\":18607:18613   */\n      dup7\n        /* \"#utility.yul\":18543:18621   */\n      tag_444\n      jump\t// in\n    tag_655:\n        /* \"#utility.yul\":18535:18621   */\n      swap1\n      pop\n        /* \"#utility.yul\":18631:18704   */\n      tag_656\n        /* \"#utility.yul\":18699:18702   */\n      0xa0\n        /* \"#utility.yul\":18688:18697   */\n      dup4\n        /* \"#utility.yul\":18684:18703   */\n      add\n        /* \"#utility.yul\":18675:18681   */\n      dup6\n        /* \"#utility.yul\":18631:18704   */\n      tag_436\n      jump\t// in\n    tag_656:\n        /* \"#utility.yul\":18714:18787   */\n      tag_657\n        /* \"#utility.yul\":18782:18785   */\n      0xc0\n        /* \"#utility.yul\":18771:18780   */\n      dup4\n        /* \"#utility.yul\":18767:18786   */\n      add\n        /* \"#utility.yul\":18758:18764   */\n      dup5\n        /* \"#utility.yul\":18714:18787   */\n      tag_436\n      jump\t// in\n    tag_657:\n        /* \"#utility.yul\":17453:18794   */\n      swap9\n      swap8\n      pop\n      pop\n      pop\n      pop\n      pop\n      pop\n      pop\n      pop\n      jump\t// out\n        /* \"#utility.yul\":18800:19828   */\n    tag_77:\n        /* \"#utility.yul\":19085:19089   */\n      0x00\n        /* \"#utility.yul\":19123:19126   */\n      0xa0\n        /* \"#utility.yul\":19112:19121   */\n      dup3\n        /* \"#utility.yul\":19108:19127   */\n      add\n        /* \"#utility.yul\":19100:19127   */\n      swap1\n      pop\n        /* \"#utility.yul\":19173:19182   */\n      dup2\n        /* \"#utility.yul\":19167:19171   */\n      dup2\n        /* \"#utility.yul\":19163:19183   */\n      sub\n        /* \"#utility.yul\":19159:19160   */\n      0x00\n        /* \"#utility.yul\":19148:19157   */\n      dup4\n        /* \"#utility.yul\":19144:19161   */\n      add\n        /* \"#utility.yul\":19137:19184   */\n      mstore\n        /* \"#utility.yul\":19201:19279   */\n      tag_659\n        /* \"#utility.yul\":19274:19278   */\n      dup2\n        /* \"#utility.yul\":19265:19271   */\n      dup9\n        /* \"#utility.yul\":19201:19279   */\n      tag_444\n      jump\t// in\n    tag_659:\n        /* \"#utility.yul\":19193:19279   */\n      swap1\n      pop\n        /* \"#utility.yul\":19326:19335   */\n      dup2\n        /* \"#utility.yul\":19320:19324   */\n      dup2\n        /* \"#utility.yul\":19316:19336   */\n      sub\n        /* \"#utility.yul\":19311:19313   */\n      0x20\n        /* \"#utility.yul\":19300:19309   */\n      dup4\n        /* \"#utility.yul\":19296:19314   */\n      add\n        /* \"#utility.yul\":19289:19337   */\n      mstore\n        /* \"#utility.yul\":19354:19432   */\n      tag_660\n        /* \"#utility.yul\":19427:19431   */\n      dup2\n        /* \"#utility.yul\":19418:19424   */\n      dup8\n        /* \"#utility.yul\":19354:19432   */\n      tag_444\n      jump\t// in\n    tag_660:\n        /* \"#utility.yul\":19346:19432   */\n      swap1\n      pop\n        /* \"#utility.yul\":19479:19488   */\n      dup2\n        /* \"#utility.yul\":19473:19477   */\n      dup2\n        /* \"#utility.yul\":19469:19489   */\n      sub\n        /* \"#utility.yul\":19464:19466   */\n      0x40\n        /* \"#utility.yul\":19453:19462   */\n      dup4\n        /* \"#utility.yul\":19449:19467   */\n      add\n        /* \"#utility.yul\":19442:19490   */\n      mstore\n        /* \"#utility.yul\":19507:19585   */\n      tag_661\n        /* \"#utility.yul\":19580:19584   */\n      dup2\n        /* \"#utility.yul\":19571:19577   */\n      dup7\n        /* \"#utility.yul\":19507:19585   */\n      tag_444\n      jump\t// in\n    tag_661:\n        /* \"#utility.yul\":19499:19585   */\n      swap1\n      pop\n        /* \"#utility.yul\":19632:19641   */\n      dup2\n        /* \"#utility.yul\":19626:19630   */\n      dup2\n        /* \"#utility.yul\":19622:19642   */\n      sub\n        /* \"#utility.yul\":19617:19619   */\n      0x60\n        /* \"#utility.yul\":19606:19615   */\n      dup4\n        /* \"#utility.yul\":19602:19620   */\n      add\n        /* \"#utility.yul\":19595:19643   */\n      mstore\n        /* \"#utility.yul\":19660:19738   */\n      tag_662\n        /* \"#utility.yul\":19733:19737   */\n      dup2\n        /* \"#utility.yul\":19724:19730   */\n      dup6\n        /* \"#utility.yul\":19660:19738   */\n      tag_444\n      jump\t// in\n    tag_662:\n        /* \"#utility.yul\":19652:19738   */\n      swap1\n      pop\n        /* \"#utility.yul\":19748:19821   */\n      tag_663\n        /* \"#utility.yul\":19816:19819   */\n      0x80\n        /* \"#utility.yul\":19805:19814   */\n      dup4\n        /* \"#utility.yul\":19801:19820   */\n      add\n        /* \"#utility.yul\":19792:19798   */\n      dup5\n        /* \"#utility.yul\":19748:19821   */\n      tag_436\n      jump\t// in\n    tag_663:\n        /* \"#utility.yul\":18800:19828   */\n      swap7\n      swap6\n      pop\n      pop\n      pop\n      pop\n      pop\n      pop\n      jump\t// out\n        /* \"#utility.yul\":19834:19982   */\n    tag_445:\n        /* \"#utility.yul\":19936:19947   */\n      0x00\n        /* \"#utility.yul\":19973:19976   */\n      dup2\n        /* \"#utility.yul\":19958:19976   */\n      swap1\n      pop\n        /* \"#utility.yul\":19834:19982   */\n      swap3\n      swap2\n      pop\n      pop\n      jump\t// out\n        /* \"#utility.yul\":19988:20378   */\n    tag_446:\n        /* \"#utility.yul\":20094:20097   */\n      0x00\n        /* \"#utility.yul\":20122:20161   */\n      tag_666\n        /* \"#utility.yul\":20155:20160   */\n      dup3\n        /* \"#utility.yul\":20122:20161   */\n      tag_437\n      jump\t// in\n    tag_666:\n        /* \"#utility.yul\":20177:20266   */\n      tag_667\n        /* \"#utility.yul\":20259:20265   */\n      dup2\n        /* \"#utility.yul\":20254:20257   */\n      dup6\n        /* \"#utility.yul\":20177:20266   */\n      tag_445\n      jump\t// in\n    tag_667:\n        /* \"#utility.yul\":20170:20266   */\n      swap4\n      pop\n        /* \"#utility.yul\":20275:20340   */\n      tag_668\n        /* \"#utility.yul\":20333:20339   */\n      dup2\n        /* \"#utility.yul\":20328:20331   */\n      dup6\n        /* \"#utility.yul\":20321:20325   */\n      0x20\n        /* \"#utility.yul\":20314:20319   */\n      dup7\n        /* \"#utility.yul\":20310:20326   */\n      add\n        /* \"#utility.yul\":20275:20340   */\n      tag_439\n      jump\t// in\n    tag_668:\n        /* \"#utility.yul\":20365:20371   */\n      dup1\n        /* \"#utility.yul\":20360:20363   */\n      dup5\n        /* \"#utility.yul\":20356:20372   */\n      add\n        /* \"#utility.yul\":20349:20372   */\n      swap2\n      pop\n        /* \"#utility.yul\":20098:20378   */\n      pop\n        /* \"#utility.yul\":19988:20378   */\n      swap3\n      swap2\n      pop\n      pop\n      jump\t// out\n        /* \"#utility.yul\":20384:20659   */\n    tag_86:\n        /* \"#utility.yul\":20516:20519   */\n      0x00\n        /* \"#utility.yul\":20538:20633   */\n      tag_670\n        /* \"#utility.yul\":20629:20632   */\n      dup3\n        /* \"#utility.yul\":20620:20626   */\n      dup5\n        /* \"#utility.yul\":20538:20633   */\n      tag_446\n      jump\t// in\n    tag_670:\n        /* \"#utility.yul\":20531:20633   */\n      swap2\n      pop\n        /* \"#utility.yul\":20650:20653   */\n      dup2\n        /* \"#utility.yul\":20643:20653   */\n      swap1\n      pop\n        /* \"#utility.yul\":20384:20659   */\n      swap3\n      swap2\n      pop\n      pop\n      jump\t// out\n        /* \"#utility.yul\":20665:20845   */\n    tag_96:\n        /* \"#utility.yul\":20713:20790   */\n      0x4e487b7100000000000000000000000000000000000000000000000000000000\n        /* \"#utility.yul\":20710:20711   */\n      0x00\n        /* \"#utility.yul\":20703:20791   */\n      mstore\n        /* \"#utility.yul\":20810:20814   */\n      0x32\n        /* \"#utility.yul\":20807:20808   */\n      0x04\n        /* \"#utility.yul\":20800:20815   */\n      mstore\n        /* \"#utility.yul\":20834:20838   */\n      0x24\n        /* \"#utility.yul\":20831:20832   */\n      0x00\n        /* \"#utility.yul\":20824:20839   */\n      revert\n        /* \"#utility.yul\":20851:21031   */\n    tag_447:\n        /* \"#utility.yul\":20899:20976   */\n      0x4e487b7100000000000000000000000000000000000000000000000000000000\n        /* \"#utility.yul\":20896:20897   */\n      0x00\n        /* \"#utility.yul\":20889:20977   */\n      mstore\n        /* \"#utility.yul\":20996:21000   */\n      0x22\n        /* \"#utility.yul\":20993:20994   */\n      0x04\n        /* \"#utility.yul\":20986:21001   */\n      mstore\n        /* \"#utility.yul\":21020:21024   */\n      0x24\n        /* \"#utility.yul\":21017:21018   */\n      0x00\n        /* \"#utility.yul\":21010:21025   */\n      revert\n        /* \"#utility.yul\":21037:21357   */\n    tag_100:\n        /* \"#utility.yul\":21081:21087   */\n      0x00\n        /* \"#utility.yul\":21118:21119   */\n      0x02\n        /* \"#utility.yul\":21112:21116   */\n      dup3\n        /* \"#utility.yul\":21108:21120   */\n      div\n        /* \"#utility.yul\":21098:21120   */\n      swap1\n      pop\n        /* \"#utility.yul\":21165:21166   */\n      0x01\n        /* \"#utility.yul\":21159:21163   */\n      dup3\n        /* \"#utility.yul\":21155:21167   */\n      and\n        /* \"#utility.yul\":21186:21204   */\n      dup1\n        /* \"#utility.yul\":21176:21257   */\n      tag_674\n      jumpi\n        /* \"#utility.yul\":21242:21246   */\n      0x7f\n        /* \"#utility.yul\":21234:21240   */\n      dup3\n        /* \"#utility.yul\":21230:21247   */\n      and\n        /* \"#utility.yul\":21220:21247   */\n      swap2\n      pop\n        /* \"#utility.yul\":21176:21257   */\n    tag_674:\n        /* \"#utility.yul\":21304:21306   */\n      0x20\n        /* \"#utility.yul\":21296:21302   */\n      dup3\n        /* \"#utility.yul\":21293:21307   */\n      lt\n        /* \"#utility.yul\":21273:21291   */\n      dup2\n        /* \"#utility.yul\":21270:21308   */\n      sub\n        /* \"#utility.yul\":21267:21351   */\n      tag_675\n      jumpi\n        /* \"#utility.yul\":21323:21341   */\n      tag_676\n      tag_447\n      jump\t// in\n    tag_676:\n        /* \"#utility.yul\":21267:21351   */\n    tag_675:\n        /* \"#utility.yul\":21088:21357   */\n      pop\n        /* \"#utility.yul\":21037:21357   */\n      swap2\n      swap1\n      pop\n      jump\t// out\n        /* \"#utility.yul\":21363:21543   */\n    tag_448:\n        /* \"#utility.yul\":21411:21488   */\n      0x4e487b7100000000000000000000000000000000000000000000000000000000\n        /* \"#utility.yul\":21408:21409   */\n      0x00\n        /* \"#utility.yul\":21401:21489   */\n      mstore\n        /* \"#utility.yul\":21508:21512   */\n      0x11\n        /* \"#utility.yul\":21505:21506   */\n      0x04\n        /* \"#utility.yul\":21498:21513   */\n      mstore\n        /* \"#utility.yul\":21532:21536   */\n      0x24\n        /* \"#utility.yul\":21529:21530   */\n      0x00\n        /* \"#utility.yul\":21522:21537   */\n      revert\n        /* \"#utility.yul\":21549:21782   */\n    tag_127:\n        /* \"#utility.yul\":21588:21591   */\n      0x00\n        /* \"#utility.yul\":21611:21635   */\n      tag_679\n        /* \"#utility.yul\":21629:21634   */\n      dup3\n        /* \"#utility.yul\":21611:21635   */\n      tag_422\n      jump\t// in\n    tag_679:\n        /* \"#utility.yul\":21602:21635   */\n      swap2\n      pop\n        /* \"#utility.yul\":21657:21723   */\n      0xffffffffffffffffffffffffffffffffffffffffffffffffffffffffffffffff\n        /* \"#utility.yul\":21650:21655   */\n      dup3\n        /* \"#utility.yul\":21647:21724   */\n      sub\n        /* \"#utility.yul\":21644:21747   */\n      tag_680\n      jumpi\n        /* \"#utility.yul\":21727:21745   */\n      tag_681\n      tag_448\n      jump\t// in\n    tag_681:\n        /* \"#utility.yul\":21644:21747   */\n    tag_680:\n        /* \"#utility.yul\":21774:21775   */\n      0x01\n        /* \"#utility.yul\":21767:21772   */\n      dup3\n        /* \"#utility.yul\":21763:21776   */\n      add\n        /* \"#utility.yul\":21756:21776   */\n      swap1\n      pop\n        /* \"#utility.yul\":21549:21782   */\n      swap2\n      swap1\n      pop\n      jump\t// out\n        /* \"#utility.yul\":21788:21952   */\n    tag_449:\n        /* \"#utility.yul\":21928:21944   */\n      0x4e6f7420617574686f72697a6564000000000000000000000000000000000000\n        /* \"#utility.yul\":21924:21925   */\n      0x00\n        /* \"#utility.yul\":21916:21922   */\n      dup3\n        /* \"#utility.yul\":21912:21926   */\n      add\n        /* \"#utility.yul\":21905:21945   */\n      mstore\n        /* \"#utility.yul\":21788:21952   */\n      pop\n      jump\t// out\n        /* \"#utility.yul\":21958:22324   */\n    tag_450:\n        /* \"#utility.yul\":22100:22103   */\n      0x00\n        /* \"#utility.yul\":22121:22188   */\n      tag_684\n        /* \"#utility.yul\":22185:22187   */\n      0x0e\n        /* \"#utility.yul\":22180:22183   */\n      dup4\n        /* \"#utility.yul\":22121:22188   */\n      tag_443\n      jump\t// in\n    tag_684:\n        /* \"#utility.yul\":22114:22188   */\n      swap2\n      pop\n        /* \"#utility.yul\":22197:22290   */\n      tag_685\n        /* \"#utility.yul\":22286:22289   */\n      dup3\n        /* \"#utility.yul\":22197:22290   */\n      tag_449\n      jump\t// in\n    tag_685:\n        /* \"#utility.yul\":22315:22317   */\n      0x20\n        /* \"#utility.yul\":22310:22313   */\n      dup3\n        /* \"#utility.yul\":22306:22318   */\n      add\n        /* \"#utility.yul\":22299:22318   */\n      swap1\n      pop\n        /* \"#utility.yul\":21958:22324   */\n      swap2\n      swap1\n      pop\n      jump\t// out\n        /* \"#utility.yul\":22330:22749   */\n    tag_131:\n        /* \"#utility.yul\":22496:22500   */\n      0x00\n        /* \"#utility.yul\":22534:22536   */\n      0x20\n        /* \"#utility.yul\":22523:22532   */\n      dup3\n        /* \"#utility.yul\":22519:22537   */\n      add\n        /* \"#utility.yul\":22511:22537   */\n      swap1\n      pop\n        /* \"#utility.yul\":22583:22592   */\n      dup2\n        /* \"#utility.yul\":22577:22581   */\n      dup2\n        /* \"#utility.yul\":22573:22593   */\n      sub\n        /* \"#utility.yul\":22569:22570   */\n      0x00\n        /* \"#utility.yul\":22558:22567   */\n      dup4\n        /* \"#utility.yul\":22554:22571   */\n      add\n        /* \"#utility.yul\":22547:22594   */\n      mstore\n        /* \"#utility.yul\":22611:22742   */\n      tag_687\n        /* \"#utility.yul\":22737:22741   */\n      dup2\n        /* \"#utility.yul\":22611:22742   */\n      tag_450\n      jump\t// in\n    tag_687:\n        /* \"#utility.yul\":22603:22742   */\n      swap1\n      pop\n        /* \"#utility.yul\":22330:22749   */\n      swap2\n      swap1\n      pop\n      jump\t// out\n        /* \"#utility.yul\":22755:22923   */\n    tag_451:\n        /* \"#utility.yul\":22895:22915   */\n      0x4d65726368616e74206e6f7420666f756e640000000000000000000000000000\n        /* \"#utility.yul\":22891:22892   */\n      0x00\n        /* \"#utility.yul\":22883:22889   */\n      dup3\n        /* \"#utility.yul\":22879:22893   */\n      add\n        /* \"#utility.yul\":22872:22916   */\n      mstore\n        /* \"#utility.yul\":22755:22923   */\n      pop\n      jump\t// out\n        /* \"#utility.yul\":22929:23295   */\n    tag_452:\n        /* \"#utility.yul\":23071:23074   */\n      0x00\n        /* \"#utility.yul\":23092:23159   */\n      tag_690\n        /* \"#utility.yul\":23156:23158   */\n      0x12\n        /* \"#utility.yul\":23151:23154   */\n      dup4\n        /* \"#utility.yul\":23092:23159   */\n      tag_443\n      jump\t// in\n    tag_690:\n        /* \"#utility.yul\":23085:23159   */\n      swap2\n      pop\n        /* \"#utility.yul\":23168:23261   */\n      tag_691\n        /* \"#utility.yul\":23257:23260   */\n      dup3\n        /* \"#utility.yul\":23168:23261   */\n      tag_451\n      jump\t// in\n    tag_691:\n        /* \"#utility.yul\":23286:23288   */\n      0x20\n        /* \"#utility.yul\":23281:23284   */\n      dup3\n        /* \"#utility.yul\":23277:23289   */\n      add\n        /* \"#utility.yul\":23270:23289   */\n      swap1\n      pop\n        /* \"#utility.yul\":22929:23295   */\n      swap2\n      swap1\n      pop\n      jump\t// out\n        /* \"#utility.yul\":23301:23720   */\n    tag_135:\n        /* \"#utility.yul\":23467:23471   */\n      0x00\n        /* \"#utility.yul\":23505:23507   */\n      0x20\n        /* \"#utility.yul\":23494:23503   */\n      dup3\n        /* \"#utility.yul\":23490:23508   */\n      add\n        /* \"#utility.yul\":23482:23508   */\n      swap1\n      pop\n        /* \"#utility.yul\":23554:23563   */\n      dup2\n        /* \"#utility.yul\":23548:23552   */\n      dup2\n        /* \"#utility.yul\":23544:23564   */\n      sub\n        /* \"#utility.yul\":23540:23541   */\n      0x00\n        /* \"#utility.yul\":23529:23538   */\n      dup4\n        /* \"#utility.yul\":23525:23542   */\n      add\n        /* \"#utility.yul\":23518:23565   */\n      mstore\n        /* \"#utility.yul\":23582:23713   */\n      tag_693\n        /* \"#utility.yul\":23708:23712   */\n      dup2\n        /* \"#utility.yul\":23582:23713   */\n      tag_452\n      jump\t// in\n    tag_693:\n        /* \"#utility.yul\":23574:23713   */\n      swap1\n      pop\n        /* \"#utility.yul\":23301:23720   */\n      swap2\n      swap1\n      pop\n      jump\t// out\n        /* \"#utility.yul\":23726:23898   */\n    tag_453:\n        /* \"#utility.yul\":23866:23890   */\n      0x41637469766520636f6465206e6f742065786973747300000000000000000000\n        /* \"#utility.yul\":23862:23863   */\n      0x00\n        /* \"#utility.yul\":23854:23860   */\n      dup3\n        /* \"#utility.yul\":23850:23864   */\n      add\n        /* \"#utility.yul\":23843:23891   */\n      mstore\n        /* \"#utility.yul\":23726:23898   */\n      pop\n      jump\t// out\n        /* \"#utility.yul\":23904:24270   */\n    tag_454:\n        /* \"#utility.yul\":24046:24049   */\n      0x00\n        /* \"#utility.yul\":24067:24134   */\n      tag_696\n        /* \"#utility.yul\":24131:24133   */\n      0x16\n        /* \"#utility.yul\":24126:24129   */\n      dup4\n        /* \"#utility.yul\":24067:24134   */\n      tag_443\n      jump\t// in\n    tag_696:\n        /* \"#utility.yul\":24060:24134   */\n      swap2\n      pop\n        /* \"#utility.yul\":24143:24236   */\n      tag_697\n        /* \"#utility.yul\":24232:24235   */\n      dup3\n        /* \"#utility.yul\":24143:24236   */\n      tag_453\n      jump\t// in\n    tag_697:\n        /* \"#utility.yul\":24261:24263   */\n      0x20\n        /* \"#utility.yul\":24256:24259   */\n      dup3\n        /* \"#utility.yul\":24252:24264   */\n      add\n        /* \"#utility.yul\":24245:24264   */\n      swap1\n      pop\n        /* \"#utility.yul\":23904:24270   */\n      swap2\n      swap1\n      pop\n      jump\t// out\n        /* \"#utility.yul\":24276:24695   */\n    tag_146:\n        /* \"#utility.yul\":24442:24446   */\n      0x00\n        /* \"#utility.yul\":24480:24482   */\n      0x20\n        /* \"#utility.yul\":24469:24478   */\n      dup3\n        /* \"#utility.yul\":24465:24483   */\n      add\n        /* \"#utility.yul\":24457:24483   */\n      swap1\n      pop\n        /* \"#utility.yul\":24529:24538   */\n      dup2\n        /* \"#utility.yul\":24523:24527   */\n      dup2\n        /* \"#utility.yul\":24519:24539   */\n      sub\n        /* \"#utility.yul\":24515:24516   */\n      0x00\n        /* \"#utility.yul\":24504:24513   */\n      dup4\n        /* \"#utility.yul\":24500:24517   */\n      add\n        /* \"#utility.yul\":24493:24540   */\n      mstore\n        /* \"#utility.yul\":24557:24688   */\n      tag_699\n        /* \"#utility.yul\":24683:24687   */\n      dup2\n        /* \"#utility.yul\":24557:24688   */\n      tag_454\n      jump\t// in\n    tag_699:\n        /* \"#utility.yul\":24549:24688   */\n      swap1\n      pop\n        /* \"#utility.yul\":24276:24695   */\n      swap2\n      swap1\n      pop\n      jump\t// out\n        /* \"#utility.yul\":24701:24872   */\n    tag_455:\n        /* \"#utility.yul\":24841:24864   */\n      0x41637469766520636f6465206e6f7420666f756e640000000000000000000000\n        /* \"#utility.yul\":24837:24838   */\n      0x00\n        /* \"#utility.yul\":24829:24835   */\n      dup3\n        /* \"#utility.yul\":24825:24839   */\n      add\n        /* \"#utility.yul\":24818:24865   */\n      mstore\n        /* \"#utility.yul\":24701:24872   */\n      pop\n      jump\t// out\n        /* \"#utility.yul\":24878:25244   */\n    tag_456:\n        /* \"#utility.yul\":25020:25023   */\n      0x00\n        /* \"#utility.yul\":25041:25108   */\n      tag_702\n        /* \"#utility.yul\":25105:25107   */\n      0x15\n        /* \"#utility.yul\":25100:25103   */\n      dup4\n        /* \"#utility.yul\":25041:25108   */\n      tag_443\n      jump\t// in\n    tag_702:\n        /* \"#utility.yul\":25034:25108   */\n      swap2\n      pop\n        /* \"#utility.yul\":25117:25210   */\n      tag_703\n        /* \"#utility.yul\":25206:25209   */\n      dup3\n        /* \"#utility.yul\":25117:25210   */\n      tag_455\n      jump\t// in\n    tag_703:\n        /* \"#utility.yul\":25235:25237   */\n      0x20\n        /* \"#utility.yul\":25230:25233   */\n      dup3\n        /* \"#utility.yul\":25226:25238   */\n      add\n        /* \"#utility.yul\":25219:25238   */\n      swap1\n      pop\n        /* \"#utility.yul\":24878:25244   */\n      swap2\n      swap1\n      pop\n      jump\t// out\n        /* \"#utility.yul\":25250:25669   */\n    tag_149:\n        /* \"#utility.yul\":25416:25420   */\n      0x00\n        /* \"#utility.yul\":25454:25456   */\n      0x20\n        /* \"#utility.yul\":25443:25452   */\n      dup3\n        /* \"#utility.yul\":25439:25457   */\n      add\n        /* \"#utility.yul\":25431:25457   */\n      swap1\n      pop\n        /* \"#utility.yul\":25503:25512   */\n      dup2\n        /* \"#utility.yul\":25497:25501   */\n      dup2\n        /* \"#utility.yul\":25493:25513   */\n      sub\n        /* \"#utility.yul\":25489:25490   */\n      0x00\n        /* \"#utility.yul\":25478:25487   */\n      dup4\n        /* \"#utility.yul\":25474:25491   */\n      add\n        /* \"#utility.yul\":25467:25514   */\n      mstore\n        /* \"#utility.yul\":25531:25662   */\n      tag_705\n        /* \"#utility.yul\":25657:25661   */\n      dup2\n        /* \"#utility.yul\":25531:25662   */\n      tag_456\n      jump\t// in\n    tag_705:\n        /* \"#utility.yul\":25523:25662   */\n      swap1\n      pop\n        /* \"#utility.yul\":25250:25669   */\n      swap2\n      swap1\n      pop\n      jump\t// out\n        /* \"#utility.yul\":25675:25869   */\n    tag_164:\n        /* \"#utility.yul\":25715:25719   */\n      0x00\n        /* \"#utility.yul\":25735:25755   */\n      tag_707\n        /* \"#utility.yul\":25753:25754   */\n      dup3\n        /* \"#utility.yul\":25735:25755   */\n      tag_422\n      jump\t// in\n    tag_707:\n        /* \"#utility.yul\":25730:25755   */\n      swap2\n      pop\n        /* \"#utility.yul\":25769:25789   */\n      tag_708\n        /* \"#utility.yul\":25787:25788   */\n      dup4\n        /* \"#utility.yul\":25769:25789   */\n      tag_422\n      jump\t// in\n    tag_708:\n        /* \"#utility.yul\":25764:25789   */\n      swap3\n      pop\n        /* \"#utility.yul\":25813:25814   */\n      dup3\n        /* \"#utility.yul\":25810:25811   */\n      dup3\n        /* \"#utility.yul\":25806:25815   */\n      sub\n        /* \"#utility.yul\":25798:25815   */\n      swap1\n      pop\n        /* \"#utility.yul\":25837:25838   */\n      dup2\n        /* \"#utility.yul\":25831:25835   */\n      dup2\n        /* \"#utility.yul\":25828:25839   */\n      gt\n        /* \"#utility.yul\":25825:25862   */\n      iszero\n      tag_709\n      jumpi\n        /* \"#utility.yul\":25842:25860   */\n      tag_710\n      tag_448\n      jump\t// in\n    tag_710:\n        /* \"#utility.yul\":25825:25862   */\n    tag_709:\n        /* \"#utility.yul\":25675:25869   */\n      swap3\n      swap2\n      pop\n      pop\n      jump\t// out\n        /* \"#utility.yul\":25875:26055   */\n    tag_173:\n        /* \"#utility.yul\":25923:26000   */\n      0x4e487b7100000000000000000000000000000000000000000000000000000000\n        /* \"#utility.yul\":25920:25921   */\n      0x00\n        /* \"#utility.yul\":25913:26001   */\n      mstore\n        /* \"#utility.yul\":26020:26024   */\n      0x31\n        /* \"#utility.yul\":26017:26018   */\n      0x04\n        /* \"#utility.yul\":26010:26025   */\n      mstore\n        /* \"#utility.yul\":26044:26048   */\n      0x24\n        /* \"#utility.yul\":26041:26042   */\n      0x00\n        /* \"#utility.yul\":26034:26049   */\n      revert\n        /* \"#utility.yul\":26061:26202   */\n    tag_457:\n        /* \"#utility.yul\":26110:26114   */\n      0x00\n        /* \"#utility.yul\":26133:26136   */\n      dup2\n        /* \"#utility.yul\":26125:26136   */\n      swap1\n      pop\n        /* \"#utility.yul\":26156:26159   */\n      dup2\n        /* \"#utility.yul\":26153:26154   */\n      0x00\n        /* \"#utility.yul\":26146:26160   */\n      mstore\n        /* \"#utility.yul\":26190:26194   */\n      0x20\n        /* \"#utility.yul\":26187:26188   */\n      0x00\n        /* \"#utility.yul\":26177:26195   */\n      keccak256\n        /* \"#utility.yul\":26169:26195   */\n      swap1\n      pop\n        /* \"#utility.yul\":26061:26202   */\n      swap2\n      swap1\n      pop\n      jump\t// out\n        /* \"#utility.yul\":26208:26301   */\n    tag_458:\n        /* \"#utility.yul\":26245:26251   */\n      0x00\n        /* \"#utility.yul\":26292:26294   */\n      0x20\n        /* \"#utility.yul\":26287:26289   */\n      0x1f\n        /* \"#utility.yul\":26280:26285   */\n      dup4\n        /* \"#utility.yul\":26276:26290   */\n      add\n        /* \"#utility.yul\":26272:26295   */\n      div\n        /* \"#utility.yul\":26262:26295   */\n      swap1\n      pop\n        /* \"#utility.yul\":26208:26301   */\n      swap2\n      swap1\n      pop\n      jump\t// out\n        /* \"#utility.yul\":26307:26414   */\n    tag_459:\n        /* \"#utility.yul\":26351:26359   */\n      0x00\n        /* \"#utility.yul\":26401:26406   */\n      dup3\n        /* \"#utility.yul\":26395:26399   */\n      dup3\n        /* \"#utility.yul\":26391:26407   */\n      shl\n        /* \"#utility.yul\":26370:26407   */\n      swap1\n      pop\n        /* \"#utility.yul\":26307:26414   */\n      swap3\n      swap2\n      pop\n      pop\n      jump\t// out\n        /* \"#utility.yul\":26420:26813   */\n    tag_460:\n        /* \"#utility.yul\":26489:26495   */\n      0x00\n        /* \"#utility.yul\":26539:26540   */\n      0x08\n        /* \"#utility.yul\":26527:26537   */\n      dup4\n        /* \"#utility.yul\":26523:26541   */\n      mul\n        /* \"#utility.yul\":26562:26659   */\n      tag_716\n        /* \"#utility.yul\":26592:26658   */\n      0xffffffffffffffffffffffffffffffffffffffffffffffffffffffffffffffff\n        /* \"#utility.yul\":26581:26590   */\n      dup3\n        /* \"#utility.yul\":26562:26659   */\n      tag_459\n      jump\t// in\n    tag_716:\n        /* \"#utility.yul\":26680:26719   */\n      tag_717\n        /* \"#utility.yul\":26710:26718   */\n      dup7\n        /* \"#utility.yul\":26699:26708   */\n      dup4\n        /* \"#utility.yul\":26680:26719   */\n      tag_459\n      jump\t// in\n    tag_717:\n        /* \"#utility.yul\":26668:26719   */\n      swap6\n      pop\n        /* \"#utility.yul\":26752:26756   */\n      dup1\n        /* \"#utility.yul\":26748:26757   */\n      not\n        /* \"#utility.yul\":26741:26746   */\n      dup5\n        /* \"#utility.yul\":26737:26758   */\n      and\n        /* \"#utility.yul\":26728:26758   */\n      swap4\n      pop\n        /* \"#utility.yul\":26801:26805   */\n      dup1\n        /* \"#utility.yul\":26791:26799   */\n      dup7\n        /* \"#utility.yul\":26787:26806   */\n      and\n        /* \"#utility.yul\":26780:26785   */\n      dup5\n        /* \"#utility.yul\":26777:26807   */\n      or\n        /* \"#utility.yul\":26767:26807   */\n      swap3\n      pop\n        /* \"#utility.yul\":26496:26813   */\n      pop\n      pop\n        /* \"#utility.yul\":26420:26813   */\n      swap4\n      swap3\n      pop\n      pop\n      pop\n      jump\t// out\n        /* \"#utility.yul\":26819:26879   */\n    tag_461:\n        /* \"#utility.yul\":26847:26850   */\n      0x00\n        /* \"#utility.yul\":26868:26873   */\n      dup2\n        /* \"#utility.yul\":26861:26873   */\n      swap1\n      pop\n        /* \"#utility.yul\":26819:26879   */\n      swap2\n      swap1\n      pop\n      jump\t// out\n        /* \"#utility.yul\":26885:27027   */\n    tag_462:\n        /* \"#utility.yul\":26935:26944   */\n      0x00\n        /* \"#utility.yul\":26968:27021   */\n      tag_720\n        /* \"#utility.yul\":26986:27020   */\n      tag_721\n        /* \"#utility.yul\":26995:27019   */\n      tag_722\n        /* \"#utility.yul\":27013:27018   */\n      dup5\n        /* \"#utility.yul\":26995:27019   */\n      tag_422\n      jump\t// in\n    tag_722:\n        /* \"#utility.yul\":26986:27020   */\n      tag_461\n      jump\t// in\n    tag_721:\n        /* \"#utility.yul\":26968:27021   */\n      tag_422\n      jump\t// in\n    tag_720:\n        /* \"#utility.yul\":26955:27021   */\n      swap1\n      pop\n        /* \"#utility.yul\":26885:27027   */\n      swap2\n      swap1\n      pop\n      jump\t// out\n        /* \"#utility.yul\":27033:27108   */\n    tag_463:\n        /* \"#utility.yul\":27076:27079   */\n      0x00\n        /* \"#utility.yul\":27097:27102   */\n      dup2\n        /* \"#utility.yul\":27090:27102   */\n      swap1\n      pop\n        /* \"#utility.yul\":27033:27108   */\n      swap2\n      swap1\n      pop\n      jump\t// out\n        /* \"#utility.yul\":27114:27383   */\n    tag_464:\n        /* \"#utility.yul\":27224:27263   */\n      tag_725\n        /* \"#utility.yul\":27255:27262   */\n      dup4\n        /* \"#utility.yul\":27224:27263   */\n      tag_462\n      jump\t// in\n    tag_725:\n        /* \"#utility.yul\":27285:27376   */\n      tag_726\n        /* \"#utility.yul\":27334:27375   */\n      tag_727\n        /* \"#utility.yul\":27358:27374   */\n      dup3\n        /* \"#utility.yul\":27334:27375   */\n      tag_463\n      jump\t// in\n    tag_727:\n        /* \"#utility.yul\":27326:27332   */\n      dup5\n        /* \"#utility.yul\":27319:27323   */\n      dup5\n        /* \"#utility.yul\":27313:27324   */\n      sload\n        /* \"#utility.yul\":27285:27376   */\n      tag_460\n      jump\t// in\n    tag_726:\n        /* \"#utility.yul\":27279:27283   */\n      dup3\n        /* \"#utility.yul\":27272:27377   */\n      sstore\n        /* \"#utility.yul\":27190:27383   */\n      pop\n        /* \"#utility.yul\":27114:27383   */\n      pop\n      pop\n      pop\n      jump\t// out\n        /* \"#utility.yul\":27389:27462   */\n    tag_465:\n        /* \"#utility.yul\":27434:27437   */\n      0x00\n        /* \"#utility.yul\":27389:27462   */\n      swap1\n      jump\t// out\n        /* \"#utility.yul\":27468:27657   */\n    tag_466:\n        /* \"#utility.yul\":27545:27577   */\n      tag_730\n      tag_465\n      jump\t// in\n    tag_730:\n        /* \"#utility.yul\":27586:27651   */\n      tag_731\n        /* \"#utility.yul\":27644:27650   */\n      dup2\n        /* \"#utility.yul\":27636:27642   */\n      dup5\n        /* \"#utility.yul\":27630:27634   */\n      dup5\n        /* \"#utility.yul\":27586:27651   */\n      tag_464\n      jump\t// in\n    tag_731:\n        /* \"#utility.yul\":27521:27657   */\n      pop\n        /* \"#utility.yul\":27468:27657   */\n      pop\n      pop\n      jump\t// out\n        /* \"#utility.yul\":27663:27849   */\n    tag_467:\n        /* \"#utility.yul\":27723:27843   */\n    tag_733:\n        /* \"#utility.yul\":27740:27743   */\n      dup2\n        /* \"#utility.yul\":27733:27738   */\n      dup2\n        /* \"#utility.yul\":27730:27744   */\n      lt\n        /* \"#utility.yul\":27723:27843   */\n      iszero\n      tag_735\n      jumpi\n        /* \"#utility.yul\":27794:27833   */\n      tag_736\n        /* \"#utility.yul\":27831:27832   */\n      0x00\n        /* \"#utility.yul\":27824:27829   */\n      dup3\n        /* \"#utility.yul\":27794:27833   */\n      tag_466\n      jump\t// in\n    tag_736:\n        /* \"#utility.yul\":27767:27768   */\n      0x01\n        /* \"#utility.yul\":27760:27765   */\n      dup2\n        /* \"#utility.yul\":27756:27769   */\n      add\n        /* \"#utility.yul\":27747:27769   */\n      swap1\n      pop\n        /* \"#utility.yul\":27723:27843   */\n      jump(tag_733)\n    tag_735:\n        /* \"#utility.yul\":27663:27849   */\n      pop\n      pop\n      jump\t// out\n        /* \"#utility.yul\":27855:28398   */\n    tag_468:\n        /* \"#utility.yul\":27956:27958   */\n      0x1f\n        /* \"#utility.yul\":27951:27954   */\n      dup3\n        /* \"#utility.yul\":27948:27959   */\n      gt\n        /* \"#utility.yul\":27945:28391   */\n      iszero\n      tag_738\n      jumpi\n        /* \"#utility.yul\":27990:28028   */\n      tag_739\n        /* \"#utility.yul\":28022:28027   */\n      dup2\n        /* \"#utility.yul\":27990:28028   */\n      tag_457\n      jump\t// in\n    tag_739:\n        /* \"#utility.yul\":28074:28103   */\n      tag_740\n        /* \"#utility.yul\":28092:28102   */\n      dup5\n        /* \"#utility.yul\":28074:28103   */\n      tag_458\n      jump\t// in\n    tag_740:\n        /* \"#utility.yul\":28064:28072   */\n      dup2\n        /* \"#utility.yul\":28060:28104   */\n      add\n        /* \"#utility.yul\":28257:28259   */\n      0x20\n        /* \"#utility.yul\":28245:28255   */\n      dup6\n        /* \"#utility.yul\":28242:28260   */\n      lt\n        /* \"#utility.yul\":28239:28288   */\n      iszero\n      tag_741\n      jumpi\n        /* \"#utility.yul\":28278:28286   */\n      dup2\n        /* \"#utility.yul\":28263:28286   */\n      swap1\n      pop\n        /* \"#utility.yul\":28239:28288   */\n    tag_741:\n        /* \"#utility.yul\":28301:28381   */\n      tag_742\n        /* \"#utility.yul\":28357:28379   */\n      tag_743\n        /* \"#utility.yul\":28375:28378   */\n      dup6\n        /* \"#utility.yul\":28357:28379   */\n      tag_458\n      jump\t// in\n    tag_743:\n        /* \"#utility.yul\":28347:28355   */\n      dup4\n        /* \"#utility.yul\":28343:28380   */\n      add\n        /* \"#utility.yul\":28330:28341   */\n      dup3\n        /* \"#utility.yul\":28301:28381   */\n      tag_467\n      jump\t// in\n    tag_742:\n        /* \"#utility.yul\":27960:28391   */\n      pop\n      pop\n        /* \"#utility.yul\":27945:28391   */\n    tag_738:\n        /* \"#utility.yul\":27855:28398   */\n      pop\n      pop\n      pop\n      jump\t// out\n        /* \"#utility.yul\":28404:28521   */\n    tag_469:\n        /* \"#utility.yul\":28458:28466   */\n      0x00\n        /* \"#utility.yul\":28508:28513   */\n      dup3\n        /* \"#utility.yul\":28502:28506   */\n      dup3\n        /* \"#utility.yul\":28498:28514   */\n      shr\n        /* \"#utility.yul\":28477:28514   */\n      swap1\n      pop\n        /* \"#utility.yul\":28404:28521   */\n      swap3\n      swap2\n      pop\n      pop\n      jump\t// out\n        /* \"#utility.yul\":28527:28696   */\n    tag_470:\n        /* \"#utility.yul\":28571:28577   */\n      0x00\n        /* \"#utility.yul\":28604:28655   */\n      tag_746\n        /* \"#utility.yul\":28652:28653   */\n      0x00\n        /* \"#utility.yul\":28648:28654   */\n      not\n        /* \"#utility.yul\":28640:28645   */\n      dup5\n        /* \"#utility.yul\":28637:28638   */\n      0x08\n        /* \"#utility.yul\":28633:28646   */\n      mul\n        /* \"#utility.yul\":28604:28655   */\n      tag_469\n      jump\t// in\n    tag_746:\n        /* \"#utility.yul\":28600:28656   */\n      not\n        /* \"#utility.yul\":28685:28689   */\n      dup1\n        /* \"#utility.yul\":28679:28683   */\n      dup4\n        /* \"#utility.yul\":28675:28690   */\n      and\n        /* \"#utility.yul\":28665:28690   */\n      swap2\n      pop\n        /* \"#utility.yul\":28578:28696   */\n      pop\n        /* \"#utility.yul\":28527:28696   */\n      swap3\n      swap2\n      pop\n      pop\n      jump\t// out\n        /* \"#utility.yul\":28701:28996   */\n    tag_471:\n        /* \"#utility.yul\":28777:28781   */\n      0x00\n        /* \"#utility.yul\":28923:28952   */\n      tag_748\n        /* \"#utility.yul\":28948:28951   */\n      dup4\n        /* \"#utility.yul\":28942:28946   */\n      dup4\n        /* \"#utility.yul\":28923:28952   */\n      tag_470\n      jump\t// in\n    tag_748:\n        /* \"#utility.yul\":28915:28952   */\n      swap2\n      pop\n        /* \"#utility.yul\":28985:28988   */\n      dup3\n        /* \"#utility.yul\":28982:28983   */\n      0x02\n        /* \"#utility.yul\":28978:28989   */\n      mul\n        /* \"#utility.yul\":28972:28976   */\n      dup3\n        /* \"#utility.yul\":28969:28990   */\n      or\n        /* \"#utility.yul\":28961:28990   */\n      swap1\n      pop\n        /* \"#utility.yul\":28701:28996   */\n      swap3\n      swap2\n      pop\n      pop\n      jump\t// out\n        /* \"#utility.yul\":29001:30396   */\n    tag_196:\n        /* \"#utility.yul\":29118:29155   */\n      tag_750\n        /* \"#utility.yul\":29151:29154   */\n      dup3\n        /* \"#utility.yul\":29118:29155   */\n      tag_437\n      jump\t// in\n    tag_750:\n        /* \"#utility.yul\":29220:29238   */\n      0xffffffffffffffff\n        /* \"#utility.yul\":29212:29218   */\n      dup2\n        /* \"#utility.yul\":29209:29239   */\n      gt\n        /* \"#utility.yul\":29206:29262   */\n      iszero\n      tag_751\n      jumpi\n        /* \"#utility.yul\":29242:29260   */\n      tag_752\n      tag_89\n      jump\t// in\n    tag_752:\n        /* \"#utility.yul\":29206:29262   */\n    tag_751:\n        /* \"#utility.yul\":29286:29324   */\n      tag_753\n        /* \"#utility.yul\":29318:29322   */\n      dup3\n        /* \"#utility.yul\":29312:29323   */\n      sload\n        /* \"#utility.yul\":29286:29324   */\n      tag_100\n      jump\t// in\n    tag_753:\n        /* \"#utility.yul\":29371:29438   */\n      tag_754\n        /* \"#utility.yul\":29431:29437   */\n      dup3\n        /* \"#utility.yul\":29423:29429   */\n      dup3\n        /* \"#utility.yul\":29417:29421   */\n      dup6\n        /* \"#utility.yul\":29371:29438   */\n      tag_468\n      jump\t// in\n    tag_754:\n        /* \"#utility.yul\":29465:29466   */\n      0x00\n        /* \"#utility.yul\":29489:29493   */\n      0x20\n        /* \"#utility.yul\":29476:29493   */\n      swap1\n      pop\n        /* \"#utility.yul\":29521:29523   */\n      0x1f\n        /* \"#utility.yul\":29513:29519   */\n      dup4\n        /* \"#utility.yul\":29510:29524   */\n      gt\n        /* \"#utility.yul\":29538:29539   */\n      0x01\n        /* \"#utility.yul\":29533:30151   */\n      dup2\n      eq\n      tag_756\n      jumpi\n        /* \"#utility.yul\":30195:30196   */\n      0x00\n        /* \"#utility.yul\":30212:30218   */\n      dup5\n        /* \"#utility.yul\":30209:30286   */\n      iszero\n      tag_757\n      jumpi\n        /* \"#utility.yul\":30261:30270   */\n      dup3\n        /* \"#utility.yul\":30256:30259   */\n      dup8\n        /* \"#utility.yul\":30252:30271   */\n      add\n        /* \"#utility.yul\":30246:30272   */\n      mload\n        /* \"#utility.yul\":30237:30272   */\n      swap1\n      pop\n        /* \"#utility.yul\":30209:30286   */\n    tag_757:\n        /* \"#utility.yul\":30312:30379   */\n      tag_758\n        /* \"#utility.yul\":30372:30378   */\n      dup6\n        /* \"#utility.yul\":30365:30370   */\n      dup3\n        /* \"#utility.yul\":30312:30379   */\n      tag_471\n      jump\t// in\n    tag_758:\n        /* \"#utility.yul\":30306:30310   */\n      dup7\n        /* \"#utility.yul\":30299:30380   */\n      sstore\n        /* \"#utility.yul\":30168:30390   */\n      pop\n        /* \"#utility.yul\":29503:30390   */\n      jump(tag_755)\n        /* \"#utility.yul\":29533:30151   */\n    tag_756:\n        /* \"#utility.yul\":29585:29589   */\n      0x1f\n        /* \"#utility.yul\":29581:29590   */\n      not\n        /* \"#utility.yul\":29573:29579   */\n      dup5\n        /* \"#utility.yul\":29569:29591   */\n      and\n        /* \"#utility.yul\":29619:29656   */\n      tag_759\n        /* \"#utility.yul\":29651:29655   */\n      dup7\n        /* \"#utility.yul\":29619:29656   */\n      tag_457\n      jump\t// in\n    tag_759:\n        /* \"#utility.yul\":29678:29679   */\n      0x00\n        /* \"#utility.yul\":29692:29900   */\n    tag_760:\n        /* \"#utility.yul\":29706:29713   */\n      dup3\n        /* \"#utility.yul\":29703:29704   */\n      dup2\n        /* \"#utility.yul\":29700:29714   */\n      lt\n        /* \"#utility.yul\":29692:29900   */\n      iszero\n      tag_762\n      jumpi\n        /* \"#utility.yul\":29785:29794   */\n      dup5\n        /* \"#utility.yul\":29780:29783   */\n      dup10\n        /* \"#utility.yul\":29776:29795   */\n      add\n        /* \"#utility.yul\":29770:29796   */\n      mload\n        /* \"#utility.yul\":29762:29768   */\n      dup3\n        /* \"#utility.yul\":29755:29797   */\n      sstore\n        /* \"#utility.yul\":29836:29837   */\n      0x01\n        /* \"#utility.yul\":29828:29834   */\n      dup3\n        /* \"#utility.yul\":29824:29838   */\n      add\n        /* \"#utility.yul\":29814:29838   */\n      swap2\n      pop\n        /* \"#utility.yul\":29883:29885   */\n      0x20\n        /* \"#utility.yul\":29872:29881   */\n      dup6\n        /* \"#utility.yul\":29868:29886   */\n      add\n        /* \"#utility.yul\":29855:29886   */\n      swap5\n      pop\n        /* \"#utility.yul\":29729:29733   */\n      0x20\n        /* \"#utility.yul\":29726:29727   */\n      dup2\n        /* \"#utility.yul\":29722:29734   */\n      add\n        /* \"#utility.yul\":29717:29734   */\n      swap1\n      pop\n        /* \"#utility.yul\":29692:29900   */\n      jump(tag_760)\n    tag_762:\n        /* \"#utility.yul\":29928:29934   */\n      dup7\n        /* \"#utility.yul\":29919:29926   */\n      dup4\n        /* \"#utility.yul\":29916:29935   */\n      lt\n        /* \"#utility.yul\":29913:30092   */\n      iszero\n      tag_763\n      jumpi\n        /* \"#utility.yul\":29986:29995   */\n      dup5\n        /* \"#utility.yul\":29981:29984   */\n      dup10\n        /* \"#utility.yul\":29977:29996   */\n      add\n        /* \"#utility.yul\":29971:29997   */\n      mload\n        /* \"#utility.yul\":30029:30077   */\n      tag_764\n        /* \"#utility.yul\":30071:30075   */\n      0x1f\n        /* \"#utility.yul\":30063:30069   */\n      dup10\n        /* \"#utility.yul\":30059:30076   */\n      and\n        /* \"#utility.yul\":30048:30057   */\n      dup3\n        /* \"#utility.yul\":30029:30077   */\n      tag_470\n      jump\t// in\n    tag_764:\n        /* \"#utility.yul\":30021:30027   */\n      dup4\n        /* \"#utility.yul\":30014:30078   */\n      sstore\n        /* \"#utility.yul\":29936:30092   */\n      pop\n        /* \"#utility.yul\":29913:30092   */\n    tag_763:\n        /* \"#utility.yul\":30138:30139   */\n      0x01\n        /* \"#utility.yul\":30134:30135   */\n      0x02\n        /* \"#utility.yul\":30126:30132   */\n      dup9\n        /* \"#utility.yul\":30122:30136   */\n      mul\n        /* \"#utility.yul\":30118:30140   */\n      add\n        /* \"#utility.yul\":30112:30116   */\n      dup9\n        /* \"#utility.yul\":30105:30141   */\n      sstore\n        /* \"#utility.yul\":29540:30151   */\n      pop\n      pop\n      pop\n        /* \"#utility.yul\":29503:30390   */\n    tag_755:\n      pop\n        /* \"#utility.yul\":29093:30396   */\n      pop\n      pop\n      pop\n        /* \"#utility.yul\":29001:30396   */\n      pop\n      pop\n      jump\t// out\n        /* \"#utility.yul\":30402:30575   */\n    tag_472:\n        /* \"#utility.yul\":30542:30567   */\n      0x4d65726368616e7420616c726561647920657869737473000000000000000000\n        /* \"#utility.yul\":30538:30539   */\n      0x00\n        /* \"#utility.yul\":30530:30536   */\n      dup3\n        /* \"#utility.yul\":30526:30540   */\n      add\n        /* \"#utility.yul\":30519:30568   */\n      mstore\n        /* \"#utility.yul\":30402:30575   */\n      pop\n      jump\t// out\n        /* \"#utility.yul\":30581:30947   */\n    tag_473:\n        /* \"#utility.yul\":30723:30726   */\n      0x00\n        /* \"#utility.yul\":30744:30811   */\n      tag_767\n        /* \"#utility.yul\":30808:30810   */\n      0x17\n        /* \"#utility.yul\":30803:30806   */\n      dup4\n        /* \"#utility.yul\":30744:30811   */\n      tag_443\n      jump\t// in\n    tag_767:\n        /* \"#utility.yul\":30737:30811   */\n      swap2\n      pop\n        /* \"#utility.yul\":30820:30913   */\n      tag_768\n        /* \"#utility.yul\":30909:30912   */\n      dup3\n        /* \"#utility.yul\":30820:30913   */\n      tag_472\n      jump\t// in\n    tag_768:\n        /* \"#utility.yul\":30938:30940   */\n      0x20\n        /* \"#utility.yul\":30933:30936   */\n      dup3\n        /* \"#utility.yul\":30929:30941   */\n      add\n        /* \"#utility.yul\":30922:30941   */\n      swap1\n      pop\n        /* \"#utility.yul\":30581:30947   */\n      swap2\n      swap1\n      pop\n      jump\t// out\n        /* \"#utility.yul\":30953:31372   */\n    tag_269:\n        /* \"#utility.yul\":31119:31123   */\n      0x00\n        /* \"#utility.yul\":31157:31159   */\n      0x20\n        /* \"#utility.yul\":31146:31155   */\n      dup3\n        /* \"#utility.yul\":31142:31160   */\n      add\n        /* \"#utility.yul\":31134:31160   */\n      swap1\n      pop\n        /* \"#utility.yul\":31206:31215   */\n      dup2\n        /* \"#utility.yul\":31200:31204   */\n      dup2\n        /* \"#utility.yul\":31196:31216   */\n      sub\n        /* \"#utility.yul\":31192:31193   */\n      0x00\n        /* \"#utility.yul\":31181:31190   */\n      dup4\n        /* \"#utility.yul\":31177:31194   */\n      add\n        /* \"#utility.yul\":31170:31217   */\n      mstore\n        /* \"#utility.yul\":31234:31365   */\n      tag_770\n        /* \"#utility.yul\":31360:31364   */\n      dup2\n        /* \"#utility.yul\":31234:31365   */\n      tag_473\n      jump\t// in\n    tag_770:\n        /* \"#utility.yul\":31226:31365   */\n      swap1\n      pop\n        /* \"#utility.yul\":30953:31372   */\n      swap2\n      swap1\n      pop\n      jump\t// out\n        /* \"#utility.yul\":31378:31691   */\n    tag_275:\n        /* \"#utility.yul\":31491:31495   */\n      0x00\n        /* \"#utility.yul\":31529:31531   */\n      0x20\n        /* \"#utility.yul\":31518:31527   */\n      dup3\n        /* \"#utility.yul\":31514:31532   */\n      add\n        /* \"#utility.yul\":31506:31532   */\n      swap1\n      pop\n        /* \"#utility.yul\":31578:31587   */\n      dup2\n        /* \"#utility.yul\":31572:31576   */\n      dup2\n        /* \"#utility.yul\":31568:31588   */\n      sub\n        /* \"#utility.yul\":31564:31565   */\n      0x00\n        /* \"#utility.yul\":31553:31562   */\n      dup4\n        /* \"#utility.yul\":31549:31566   */\n      add\n        /* \"#utility.yul\":31542:31589   */\n      mstore\n        /* \"#utility.yul\":31606:31684   */\n      tag_772\n        /* \"#utility.yul\":31679:31683   */\n      dup2\n        /* \"#utility.yul\":31670:31676   */\n      dup5\n        /* \"#utility.yul\":31606:31684   */\n      tag_444\n      jump\t// in\n    tag_772:\n        /* \"#utility.yul\":31598:31684   */\n      swap1\n      pop\n        /* \"#utility.yul\":31378:31691   */\n      swap3\n      swap2\n      pop\n      pop\n      jump\t// out\n        /* \"#utility.yul\":31697:31877   */\n    tag_474:\n        /* \"#utility.yul\":31837:31869   */\n      0x496e76616c69642061637469766174696f6e20636f646520666f726d61740000\n        /* \"#utility.yul\":31833:31834   */\n      0x00\n        /* \"#utility.yul\":31825:31831   */\n      dup3\n        /* \"#utility.yul\":31821:31835   */\n      add\n        /* \"#utility.yul\":31814:31870   */\n      mstore\n        /* \"#utility.yul\":31697:31877   */\n      pop\n      jump\t// out\n        /* \"#utility.yul\":31883:32249   */\n    tag_475:\n        /* \"#utility.yul\":32025:32028   */\n      0x00\n        /* \"#utility.yul\":32046:32113   */\n      tag_775\n        /* \"#utility.yul\":32110:32112   */\n      0x1e\n        /* \"#utility.yul\":32105:32108   */\n      dup4\n        /* \"#utility.yul\":32046:32113   */\n      tag_443\n      jump\t// in\n    tag_775:\n        /* \"#utility.yul\":32039:32113   */\n      swap2\n      pop\n        /* \"#utility.yul\":32122:32215   */\n      tag_776\n        /* \"#utility.yul\":32211:32214   */\n      dup3\n        /* \"#utility.yul\":32122:32215   */\n      tag_474\n      jump\t// in\n    tag_776:\n        /* \"#utility.yul\":32240:32242   */\n      0x20\n        /* \"#utility.yul\":32235:32238   */\n      dup3\n        /* \"#utility.yul\":32231:32243   */\n      add\n        /* \"#utility.yul\":32224:32243   */\n      swap1\n      pop\n        /* \"#utility.yul\":31883:32249   */\n      swap2\n      swap1\n      pop\n      jump\t// out\n        /* \"#utility.yul\":32255:32674   */\n    tag_344:\n        /* \"#utility.yul\":32421:32425   */\n      0x00\n        /* \"#utility.yul\":32459:32461   */\n      0x20\n        /* \"#utility.yul\":32448:32457   */\n      dup3\n        /* \"#utility.yul\":32444:32462   */\n      add\n        /* \"#utility.yul\":32436:32462   */\n      swap1\n      pop\n        /* \"#utility.yul\":32508:32517   */\n      dup2\n        /* \"#utility.yul\":32502:32506   */\n      dup2\n        /* \"#utility.yul\":32498:32518   */\n      sub\n        /* \"#utility.yul\":32494:32495   */\n      0x00\n        /* \"#utility.yul\":32483:32492   */\n      dup4\n        /* \"#utility.yul\":32479:32496   */\n      add\n        /* \"#utility.yul\":32472:32519   */\n      mstore\n        /* \"#utility.yul\":32536:32667   */\n      tag_778\n        /* \"#utility.yul\":32662:32666   */\n      dup2\n        /* \"#utility.yul\":32536:32667   */\n      tag_475\n      jump\t// in\n    tag_778:\n        /* \"#utility.yul\":32528:32667   */\n      swap1\n      pop\n        /* \"#utility.yul\":32255:32674   */\n      swap2\n      swap1\n      pop\n      jump\t// out\n        /* \"#utility.yul\":32680:32860   */\n    tag_476:\n        /* \"#utility.yul\":32728:32805   */\n      0x4e487b7100000000000000000000000000000000000000000000000000000000\n        /* \"#utility.yul\":32725:32726   */\n      0x00\n        /* \"#utility.yul\":32718:32806   */\n      mstore\n        /* \"#utility.yul\":32825:32829   */\n      0x12\n        /* \"#utility.yul\":32822:32823   */\n      0x04\n        /* \"#utility.yul\":32815:32830   */\n      mstore\n        /* \"#utility.yul\":32849:32853   */\n      0x24\n        /* \"#utility.yul\":32846:32847   */\n      0x00\n        /* \"#utility.yul\":32839:32854   */\n      revert\n        /* \"#utility.yul\":32866:33042   */\n    tag_346:\n        /* \"#utility.yul\":32898:32899   */\n      0x00\n        /* \"#utility.yul\":32915:32935   */\n      tag_781\n        /* \"#utility.yul\":32933:32934   */\n      dup3\n        /* \"#utility.yul\":32915:32935   */\n      tag_422\n      jump\t// in\n    tag_781:\n        /* \"#utility.yul\":32910:32935   */\n      swap2\n      pop\n        /* \"#utility.yul\":32949:32969   */\n      tag_782\n        /* \"#utility.yul\":32967:32968   */\n      dup4\n        /* \"#utility.yul\":32949:32969   */\n      tag_422\n      jump\t// in\n    tag_782:\n        /* \"#utility.yul\":32944:32969   */\n      swap3\n      pop\n        /* \"#utility.yul\":32988:32989   */\n      dup3\n        /* \"#utility.yul\":32978:33013   */\n      tag_783\n      jumpi\n        /* \"#utility.yul\":32993:33011   */\n      tag_784\n      tag_476\n      jump\t// in\n    tag_784:\n        /* \"#utility.yul\":32978:33013   */\n    tag_783:\n        /* \"#utility.yul\":33034:33035   */\n      dup3\n        /* \"#utility.yul\":33031:33032   */\n      dup3\n        /* \"#utility.yul\":33027:33036   */\n      mod\n        /* \"#utility.yul\":33022:33036   */\n      swap1\n      pop\n        /* \"#utility.yul\":32866:33042   */\n      swap3\n      swap2\n      pop\n      pop\n      jump\t// out\n        /* \"#utility.yul\":33048:33233   */\n    tag_348:\n        /* \"#utility.yul\":33088:33089   */\n      0x00\n        /* \"#utility.yul\":33105:33125   */\n      tag_786\n        /* \"#utility.yul\":33123:33124   */\n      dup3\n        /* \"#utility.yul\":33105:33125   */\n      tag_422\n      jump\t// in\n    tag_786:\n        /* \"#utility.yul\":33100:33125   */\n      swap2\n      pop\n        /* \"#utility.yul\":33139:33159   */\n      tag_787\n        /* \"#utility.yul\":33157:33158   */\n      dup4\n        /* \"#utility.yul\":33139:33159   */\n      tag_422\n      jump\t// in\n    tag_787:\n        /* \"#utility.yul\":33134:33159   */\n      swap3\n      pop\n        /* \"#utility.yul\":33178:33179   */\n      dup3\n        /* \"#utility.yul\":33168:33203   */\n      tag_788\n      jumpi\n        /* \"#utility.yul\":33183:33201   */\n      tag_789\n      tag_476\n      jump\t// in\n    tag_789:\n        /* \"#utility.yul\":33168:33203   */\n    tag_788:\n        /* \"#utility.yul\":33225:33226   */\n      dup3\n        /* \"#utility.yul\":33222:33223   */\n      dup3\n        /* \"#utility.yul\":33218:33227   */\n      div\n        /* \"#utility.yul\":33213:33227   */\n      swap1\n      pop\n        /* \"#utility.yul\":33048:33233   */\n      swap3\n      swap2\n      pop\n      pop\n      jump\t// out\n        /* \"#utility.yul\":33239:33649   */\n    tag_356:\n        /* \"#utility.yul\":33279:33286   */\n      0x00\n        /* \"#utility.yul\":33302:33322   */\n      tag_791\n        /* \"#utility.yul\":33320:33321   */\n      dup3\n        /* \"#utility.yul\":33302:33322   */\n      tag_422\n      jump\t// in\n    tag_791:\n        /* \"#utility.yul\":33297:33322   */\n      swap2\n      pop\n        /* \"#utility.yul\":33336:33356   */\n      tag_792\n        /* \"#utility.yul\":33354:33355   */\n      dup4\n        /* \"#utility.yul\":33336:33356   */\n      tag_422\n      jump\t// in\n    tag_792:\n        /* \"#utility.yul\":33331:33356   */\n      swap3\n      pop\n        /* \"#utility.yul\":33391:33392   */\n      dup3\n        /* \"#utility.yul\":33388:33389   */\n      dup3\n        /* \"#utility.yul\":33384:33393   */\n      mul\n        /* \"#utility.yul\":33413:33443   */\n      tag_793\n        /* \"#utility.yul\":33431:33442   */\n      dup2\n        /* \"#utility.yul\":33413:33443   */\n      tag_422\n      jump\t// in\n    tag_793:\n        /* \"#utility.yul\":33402:33443   */\n      swap2\n      pop\n        /* \"#utility.yul\":33592:33593   */\n      dup3\n        /* \"#utility.yul\":33583:33590   */\n      dup3\n        /* \"#utility.yul\":33579:33594   */\n      div\n        /* \"#utility.yul\":33576:33577   */\n      dup5\n        /* \"#utility.yul\":33573:33595   */\n      eq\n        /* \"#utility.yul\":33553:33554   */\n      dup4\n        /* \"#utility.yul\":33546:33555   */\n      iszero\n        /* \"#utility.yul\":33526:33609   */\n      or\n        /* \"#utility.yul\":33503:33642   */\n      tag_794\n      jumpi\n        /* \"#utility.yul\":33622:33640   */\n      tag_795\n      tag_448\n      jump\t// in\n    tag_795:\n        /* \"#utility.yul\":33503:33642   */\n    tag_794:\n        /* \"#utility.yul\":33287:33649   */\n      pop\n        /* \"#utility.yul\":33239:33649   */\n      swap3\n      swap2\n      pop\n      pop\n      jump\t// out\n        /* \"#utility.yul\":33655:33846   */\n    tag_358:\n        /* \"#utility.yul\":33695:33698   */\n      0x00\n        /* \"#utility.yul\":33714:33734   */\n      tag_797\n        /* \"#utility.yul\":33732:33733   */\n      dup3\n        /* \"#utility.yul\":33714:33734   */\n      tag_422\n      jump\t// in\n    tag_797:\n        /* \"#utility.yul\":33709:33734   */\n      swap2\n      pop\n        /* \"#utility.yul\":33748:33768   */\n      tag_798\n        /* \"#utility.yul\":33766:33767   */\n      dup4\n        /* \"#utility.yul\":33748:33768   */\n      tag_422\n      jump\t// in\n    tag_798:\n        /* \"#utility.yul\":33743:33768   */\n      swap3\n      pop\n        /* \"#utility.yul\":33791:33792   */\n      dup3\n        /* \"#utility.yul\":33788:33789   */\n      dup3\n        /* \"#utility.yul\":33784:33793   */\n      add\n        /* \"#utility.yul\":33777:33793   */\n      swap1\n      pop\n        /* \"#utility.yul\":33812:33815   */\n      dup1\n        /* \"#utility.yul\":33809:33810   */\n      dup3\n        /* \"#utility.yul\":33806:33816   */\n      gt\n        /* \"#utility.yul\":33803:33839   */\n      iszero\n      tag_799\n      jumpi\n        /* \"#utility.yul\":33819:33837   */\n      tag_800\n      tag_448\n      jump\t// in\n    tag_800:\n        /* \"#utility.yul\":33803:33839   */\n    tag_799:\n        /* \"#utility.yul\":33655:33846   */\n      swap3\n      swap2\n      pop\n      pop\n      jump\t// out\n        /* \"#utility.yul\":33852:33931   */\n    tag_477:\n        /* \"#utility.yul\":33891:33898   */\n      0x00\n        /* \"#utility.yul\":33920:33925   */\n      dup2\n        /* \"#utility.yul\":33909:33925   */\n      swap1\n      pop\n        /* \"#utility.yul\":33852:33931   */\n      swap2\n      swap1\n      pop\n      jump\t// out\n        /* \"#utility.yul\":33937:34094   */\n    tag_478:\n        /* \"#utility.yul\":34042:34087   */\n      tag_803\n        /* \"#utility.yul\":34062:34086   */\n      tag_804\n        /* \"#utility.yul\":34080:34085   */\n      dup3\n        /* \"#utility.yul\":34062:34086   */\n      tag_422\n      jump\t// in\n    tag_804:\n        /* \"#utility.yul\":34042:34087   */\n      tag_477\n      jump\t// in\n    tag_803:\n        /* \"#utility.yul\":34037:34040   */\n      dup3\n        /* \"#utility.yul\":34030:34088   */\n      mstore\n        /* \"#utility.yul\":33937:34094   */\n      pop\n      pop\n      jump\t// out\n        /* \"#utility.yul\":34100:34194   */\n    tag_479:\n        /* \"#utility.yul\":34133:34141   */\n      0x00\n        /* \"#utility.yul\":34181:34186   */\n      dup2\n        /* \"#utility.yul\":34177:34179   */\n      0x60\n        /* \"#utility.yul\":34173:34187   */\n      shl\n        /* \"#utility.yul\":34152:34187   */\n      swap1\n      pop\n        /* \"#utility.yul\":34100:34194   */\n      swap2\n      swap1\n      pop\n      jump\t// out\n        /* \"#utility.yul\":34200:34294   */\n    tag_480:\n        /* \"#utility.yul\":34239:34246   */\n      0x00\n        /* \"#utility.yul\":34268:34288   */\n      tag_807\n        /* \"#utility.yul\":34282:34287   */\n      dup3\n        /* \"#utility.yul\":34268:34288   */\n      tag_479\n      jump\t// in\n    tag_807:\n        /* \"#utility.yul\":34257:34288   */\n      swap1\n      pop\n        /* \"#utility.yul\":34200:34294   */\n      swap2\n      swap1\n      pop\n      jump\t// out\n        /* \"#utility.yul\":34300:34400   */\n    tag_481:\n        /* \"#utility.yul\":34339:34346   */\n      0x00\n        /* \"#utility.yul\":34368:34394   */\n      tag_809\n        /* \"#utility.yul\":34388:34393   */\n      dup3\n        /* \"#utility.yul\":34368:34394   */\n      tag_480\n      jump\t// in\n    tag_809:\n        /* \"#utility.yul\":34357:34394   */\n      swap1\n      pop\n        /* \"#utility.yul\":34300:34400   */\n      swap2\n      swap1\n      pop\n      jump\t// out\n        /* \"#utility.yul\":34406:34563   */\n    tag_482:\n        /* \"#utility.yul\":34511:34556   */\n      tag_811\n        /* \"#utility.yul\":34531:34555   */\n      tag_812\n        /* \"#utility.yul\":34549:34554   */\n      dup3\n        /* \"#utility.yul\":34531:34555   */\n      tag_430\n      jump\t// in\n    tag_812:\n        /* \"#utility.yul\":34511:34556   */\n      tag_481\n      jump\t// in\n    tag_811:\n        /* \"#utility.yul\":34506:34509   */\n      dup3\n        /* \"#utility.yul\":34499:34557   */\n      mstore\n        /* \"#utility.yul\":34406:34563   */\n      pop\n      pop\n      jump\t// out\n        /* \"#utility.yul\":34569:34966   */\n    tag_362:\n        /* \"#utility.yul\":34709:34712   */\n      0x00\n        /* \"#utility.yul\":34724:34799   */\n      tag_814\n        /* \"#utility.yul\":34795:34798   */\n      dup3\n        /* \"#utility.yul\":34786:34792   */\n      dup6\n        /* \"#utility.yul\":34724:34799   */\n      tag_478\n      jump\t// in\n    tag_814:\n        /* \"#utility.yul\":34824:34826   */\n      0x20\n        /* \"#utility.yul\":34819:34822   */\n      dup3\n        /* \"#utility.yul\":34815:34827   */\n      add\n        /* \"#utility.yul\":34808:34827   */\n      swap2\n      pop\n        /* \"#utility.yul\":34837:34912   */\n      tag_815\n        /* \"#utility.yul\":34908:34911   */\n      dup3\n        /* \"#utility.yul\":34899:34905   */\n      dup5\n        /* \"#utility.yul\":34837:34912   */\n      tag_482\n      jump\t// in\n    tag_815:\n        /* \"#utility.yul\":34937:34939   */\n      0x14\n        /* \"#utility.yul\":34932:34935   */\n      dup3\n        /* \"#utility.yul\":34928:34940   */\n      add\n        /* \"#utility.yul\":34921:34940   */\n      swap2\n      pop\n        /* \"#utility.yul\":34957:34960   */\n      dup2\n        /* \"#utility.yul\":34950:34960   */\n      swap1\n      pop\n        /* \"#utility.yul\":34569:34966   */\n      swap4\n      swap3\n      pop\n      pop\n      pop\n      jump\t// out\n        /* \"#utility.yul\":34972:35074   */\n    tag_483:\n        /* \"#utility.yul\":35014:35022   */\n      0x00\n        /* \"#utility.yul\":35061:35066   */\n      dup2\n        /* \"#utility.yul\":35058:35059   */\n      0x01\n        /* \"#utility.yul\":35054:35067   */\n      shr\n        /* \"#utility.yul\":35033:35067   */\n      swap1\n      pop\n        /* \"#utility.yul\":34972:35074   */\n      swap2\n      swap1\n      pop\n      jump\t// out\n        /* \"#utility.yul\":35080:35928   */\n    tag_484:\n        /* \"#utility.yul\":35141:35146   */\n      0x00\n        /* \"#utility.yul\":35148:35152   */\n      dup1\n        /* \"#utility.yul\":35172:35178   */\n      dup3\n        /* \"#utility.yul\":35163:35178   */\n      swap2\n      pop\n        /* \"#utility.yul\":35196:35201   */\n      dup4\n        /* \"#utility.yul\":35187:35201   */\n      swap1\n      pop\n        /* \"#utility.yul\":35210:35922   */\n    tag_818:\n        /* \"#utility.yul\":35231:35232   */\n      0x01\n        /* \"#utility.yul\":35221:35229   */\n      dup6\n        /* \"#utility.yul\":35218:35233   */\n      gt\n        /* \"#utility.yul\":35210:35922   */\n      iszero\n      tag_820\n      jumpi\n        /* \"#utility.yul\":35326:35330   */\n      dup1\n        /* \"#utility.yul\":35321:35324   */\n      dup7\n        /* \"#utility.yul\":35317:35331   */\n      div\n        /* \"#utility.yul\":35311:35315   */\n      dup2\n        /* \"#utility.yul\":35308:35332   */\n      gt\n        /* \"#utility.yul\":35305:35355   */\n      iszero\n      tag_821\n      jumpi\n        /* \"#utility.yul\":35335:35353   */\n      tag_822\n      tag_448\n      jump\t// in\n    tag_822:\n        /* \"#utility.yul\":35305:35355   */\n    tag_821:\n        /* \"#utility.yul\":35385:35386   */\n      0x01\n        /* \"#utility.yul\":35375:35383   */\n      dup6\n        /* \"#utility.yul\":35371:35387   */\n      and\n        /* \"#utility.yul\":35368:35819   */\n      iszero\n      tag_823\n      jumpi\n        /* \"#utility.yul\":35800:35804   */\n      dup1\n        /* \"#utility.yul\":35793:35798   */\n      dup3\n        /* \"#utility.yul\":35789:35805   */\n      mul\n        /* \"#utility.yul\":35780:35805   */\n      swap2\n      pop\n        /* \"#utility.yul\":35368:35819   */\n    tag_823:\n        /* \"#utility.yul\":35850:35854   */\n      dup1\n        /* \"#utility.yul\":35844:35848   */\n      dup2\n        /* \"#utility.yul\":35840:35855   */\n      mul\n        /* \"#utility.yul\":35832:35855   */\n      swap1\n      pop\n        /* \"#utility.yul\":35880:35912   */\n      tag_824\n        /* \"#utility.yul\":35903:35911   */\n      dup6\n        /* \"#utility.yul\":35880:35912   */\n      tag_483\n      jump\t// in\n    tag_824:\n        /* \"#utility.yul\":35868:35912   */\n      swap5\n      pop\n        /* \"#utility.yul\":35210:35922   */\n      jump(tag_818)\n    tag_820:\n        /* \"#utility.yul\":35080:35928   */\n      swap5\n      pop\n      swap5\n      swap3\n      pop\n      pop\n      pop\n      jump\t// out\n        /* \"#utility.yul\":35934:37007   */\n    tag_485:\n        /* \"#utility.yul\":35988:35993   */\n      0x00\n        /* \"#utility.yul\":36179:36187   */\n      dup3\n        /* \"#utility.yul\":36169:36209   */\n      tag_826\n      jumpi\n        /* \"#utility.yul\":36200:36201   */\n      0x01\n        /* \"#utility.yul\":36191:36201   */\n      swap1\n      pop\n        /* \"#utility.yul\":36202:36207   */\n      jump(tag_825)\n        /* \"#utility.yul\":36169:36209   */\n    tag_826:\n        /* \"#utility.yul\":36228:36232   */\n      dup2\n        /* \"#utility.yul\":36218:36254   */\n      tag_827\n      jumpi\n        /* \"#utility.yul\":36245:36246   */\n      0x00\n        /* \"#utility.yul\":36236:36246   */\n      swap1\n      pop\n        /* \"#utility.yul\":36247:36252   */\n      jump(tag_825)\n        /* \"#utility.yul\":36218:36254   */\n    tag_827:\n        /* \"#utility.yul\":36314:36318   */\n      dup2\n        /* \"#utility.yul\":36362:36363   */\n      0x01\n        /* \"#utility.yul\":36357:36384   */\n      dup2\n      eq\n      tag_829\n      jumpi\n        /* \"#utility.yul\":36398:36399   */\n      0x02\n        /* \"#utility.yul\":36393:36584   */\n      dup2\n      eq\n      tag_830\n      jumpi\n        /* \"#utility.yul\":36307:36584   */\n      jump(tag_828)\n        /* \"#utility.yul\":36357:36384   */\n    tag_829:\n        /* \"#utility.yul\":36375:36376   */\n      0x01\n        /* \"#utility.yul\":36366:36376   */\n      swap2\n      pop\n        /* \"#utility.yul\":36377:36382   */\n      pop\n      jump(tag_825)\n        /* \"#utility.yul\":36393:36584   */\n    tag_830:\n        /* \"#utility.yul\":36438:36441   */\n      0xff\n        /* \"#utility.yul\":36428:36436   */\n      dup5\n        /* \"#utility.yul\":36425:36442   */\n      gt\n        /* \"#utility.yul\":36422:36465   */\n      iszero\n      tag_831\n      jumpi\n        /* \"#utility.yul\":36445:36463   */\n      tag_832\n      tag_448\n      jump\t// in\n    tag_832:\n        /* \"#utility.yul\":36422:36465   */\n    tag_831:\n        /* \"#utility.yul\":36494:36502   */\n      dup4\n        /* \"#utility.yul\":36491:36492   */\n      0x02\n        /* \"#utility.yul\":36487:36503   */\n      exp\n        /* \"#utility.yul\":36478:36503   */\n      swap2\n      pop\n        /* \"#utility.yul\":36529:36532   */\n      dup5\n        /* \"#utility.yul\":36522:36527   */\n      dup3\n        /* \"#utility.yul\":36519:36533   */\n      gt\n        /* \"#utility.yul\":36516:36556   */\n      iszero\n      tag_833\n      jumpi\n        /* \"#utility.yul\":36536:36554   */\n      tag_834\n      tag_448\n      jump\t// in\n    tag_834:\n        /* \"#utility.yul\":36516:36556   */\n    tag_833:\n        /* \"#utility.yul\":36569:36574   */\n      pop\n      jump(tag_825)\n        /* \"#utility.yul\":36307:36584   */\n    tag_828:\n      pop\n        /* \"#utility.yul\":36693:36695   */\n      0x20\n        /* \"#utility.yul\":36683:36691   */\n      dup4\n        /* \"#utility.yul\":36680:36696   */\n      lt\n        /* \"#utility.yul\":36674:36677   */\n      0x0133\n        /* \"#utility.yul\":36668:36672   */\n      dup4\n        /* \"#utility.yul\":36665:36678   */\n      lt\n        /* \"#utility.yul\":36661:36697   */\n      and\n        /* \"#utility.yul\":36643:36645   */\n      0x4e\n        /* \"#utility.yul\":36633:36641   */\n      dup5\n        /* \"#utility.yul\":36630:36646   */\n      lt\n        /* \"#utility.yul\":36625:36627   */\n      0x0b\n        /* \"#utility.yul\":36619:36623   */\n      dup5\n        /* \"#utility.yul\":36616:36628   */\n      lt\n        /* \"#utility.yul\":36612:36647   */\n      and\n        /* \"#utility.yul\":36596:36707   */\n      or\n        /* \"#utility.yul\":36593:36839   */\n      iszero\n      tag_835\n      jumpi\n        /* \"#utility.yul\":36749:36757   */\n      dup3\n        /* \"#utility.yul\":36743:36747   */\n      dup3\n        /* \"#utility.yul\":36739:36758   */\n      exp\n        /* \"#utility.yul\":36730:36758   */\n      swap1\n      pop\n        /* \"#utility.yul\":36784:36787   */\n      dup4\n        /* \"#utility.yul\":36777:36782   */\n      dup2\n        /* \"#utility.yul\":36774:36788   */\n      gt\n        /* \"#utility.yul\":36771:36811   */\n      iszero\n      tag_836\n      jumpi\n        /* \"#utility.yul\":36791:36809   */\n      tag_837\n      tag_448\n      jump\t// in\n    tag_837:\n        /* \"#utility.yul\":36771:36811   */\n    tag_836:\n        /* \"#utility.yul\":36824:36829   */\n      jump(tag_825)\n        /* \"#utility.yul\":36593:36839   */\n    tag_835:\n        /* \"#utility.yul\":36864:36906   */\n      tag_838\n        /* \"#utility.yul\":36902:36905   */\n      dup5\n        /* \"#utility.yul\":36892:36900   */\n      dup5\n        /* \"#utility.yul\":36886:36890   */\n      dup5\n        /* \"#utility.yul\":36883:36884   */\n      0x01\n        /* \"#utility.yul\":36864:36906   */\n      tag_484\n      jump\t// in\n    tag_838:\n        /* \"#utility.yul\":36849:36906   */\n      swap3\n      pop\n      swap1\n      pop\n        /* \"#utility.yul\":36938:36942   */\n      dup2\n        /* \"#utility.yul\":36933:36936   */\n      dup5\n        /* \"#utility.yul\":36929:36943   */\n      div\n        /* \"#utility.yul\":36922:36927   */\n      dup2\n        /* \"#utility.yul\":36919:36944   */\n      gt\n        /* \"#utility.yul\":36916:36967   */\n      iszero\n      tag_839\n      jumpi\n        /* \"#utility.yul\":36947:36965   */\n      tag_840\n      tag_448\n      jump\t// in\n    tag_840:\n        /* \"#utility.yul\":36916:36967   */\n    tag_839:\n        /* \"#utility.yul\":36996:37000   */\n      dup2\n        /* \"#utility.yul\":36989:36994   */\n      dup2\n        /* \"#utility.yul\":36985:37001   */\n      mul\n        /* \"#utility.yul\":36976:37001   */\n      swap1\n      pop\n        /* \"#utility.yul\":35934:37007   */\n    tag_825:\n      swap4\n      swap3\n      pop\n      pop\n      pop\n      jump\t// out\n        /* \"#utility.yul\":37013:37298   */\n    tag_379:\n        /* \"#utility.yul\":37073:37078   */\n      0x00\n        /* \"#utility.yul\":37097:37120   */\n      tag_842\n        /* \"#utility.yul\":37115:37119   */\n      dup3\n        /* \"#utility.yul\":37097:37120   */\n      tag_422\n      jump\t// in\n    tag_842:\n        /* \"#utility.yul\":37089:37120   */\n      swap2\n      pop\n        /* \"#utility.yul\":37141:37168   */\n      tag_843\n        /* \"#utility.yul\":37159:37167   */\n      dup4\n        /* \"#utility.yul\":37141:37168   */\n      tag_422\n      jump\t// in\n    tag_843:\n        /* \"#utility.yul\":37129:37168   */\n      swap3\n      pop\n        /* \"#utility.yul\":37187:37291   */\n      tag_844\n        /* \"#utility.yul\":37224:37290   */\n      0xffffffffffffffffffffffffffffffffffffffffffffffffffffffffffffffff\n        /* \"#utility.yul\":37214:37222   */\n      dup5\n        /* \"#utility.yul\":37208:37212   */\n      dup5\n        /* \"#utility.yul\":37187:37291   */\n      tag_485\n      jump\t// in\n    tag_844:\n        /* \"#utility.yul\":37178:37291   */\n      swap1\n      pop\n        /* \"#utility.yul\":37013:37298   */\n      swap3\n      swap2\n      pop\n      pop\n      jump\t// out\n\n    auxdata: 0xa264697066735822122026b16e441db2186aeb0da1c597bdfe979c3e3a9e4f82693102555fb3a380237f64736f6c634300081a0033\n}\n",
				"bytecode": {
					"linkReferences": {},
					"object": "608060405234801561000f575f80fd5b50335f806101000a81548173ffffffffffffffffffffffffffffffffffffffff021916908373ffffffffffffffffffffffffffffffffffffffff160217905550600160055f3373ffffffffffffffffffffffffffffffffffffffff1673ffffffffffffffffffffffffffffffffffffffff1681526020019081526020015f205f6101000a81548160ff021916908315150217905550600160055f73b50b908ffd42d2edb12b325e75330c1aaaf35dc073ffffffffffffffffffffffffffffffffffffffff1673ffffffffffffffffffffffffffffffffffffffff1681526020019081526020015f205f6101000a81548160ff0219169083151502179055506138c28061011a5f395ff3fe608060405234801561000f575f80fd5b50600436106100f3575f3560e01c8063704b6c0211610095578063e7b4cac611610064578063e7b4cac614610280578063ee14e939146102b6578063eef814d3146102ea578063f4f9765814610308576100f3565b8063704b6c02146101f95780638da5cb5b14610215578063cef3381014610233578063d4dd4b4714610264576100f3565b806324d7806c116100d157806324d7806c1461017357806324e8779f146101a35780633ab0639b146101bf57806353929cec146101c9576100f3565b8063044866cc146100f75780630b75c58f14610127578063133adab614610157575b5f80fd5b610111600480360381019061010c91906126c6565b610324565b60405161011e919061285a565b60405180910390f35b610141600480360381019061013c91906128a4565b610671565b60405161014e919061290e565b60405180910390f35b610171600480360381019061016c9190612951565b6106a1565b005b61018d60048036038101906101889190612951565b61087b565b60405161019a9190612996565b60405180910390f35b6101bd60048036038101906101b891906128a4565b610898565b005b6101c7610c3d565b005b6101e360048036038101906101de91906129af565b610dc2565b6040516101f09190612ac1565b60405180910390f35b610213600480360381019061020e9190612951565b610fad565b005b61021d611095565b60405161022a919061290e565b60405180910390f35b61024d600480360381019061024891906128a4565b6110b8565b60405161025b929190612c77565b60405180910390f35b61027e60048036038101906102799190612cac565b61177e565b005b61029a60048036038101906102959190612951565b6119ac565b6040516102ad9796959493929190612ddb565b60405180910390f35b6102d060048036038101906102cb9190612951565b611c88565b6040516102e1959493929190612e6b565b60405180910390f35b6102f2611ed2565b6040516102ff9190612ac1565b60405180910390f35b610322600480360381019061031d91906126c6565b611f19565b005b60605f6004866040516103379190612f12565b908152602001604051809103902090505f818054905067ffffffffffffffff811115610366576103656125a2565b5b6040519080825280602002602001820160405280156103945781602001602082028036833780820191505090505b5090505f805b838054905081101561065f575f60035f8684815481106103bd576103bc612f28565b5b905f5260205f20015481526020019081526020015f205f9054906101000a900473ffffffffffffffffffffffffffffffffffffffff1690505f60025f8373ffffffffffffffffffffffffffffffffffffffff1673ffffffffffffffffffffffffffffffffffffffff1681526020019081526020015f2090506104c981600101805461044790612f82565b80601f016020809104026020016040519081016040528092919081815260200182805461047390612f82565b80156104be5780601f10610495576101008083540402835291602001916104be565b820191905f5260205f20905b8154815290600101906020018083116104a157829003601f168201915b50505050508b612126565b801561056557506105648160020180546104e290612f82565b80601f016020809104026020016040519081016040528092919081815260200182805461050e90612f82565b80156105595780601f1061053057610100808354040283529160200191610559565b820191905f5260205f20905b81548152906001019060200180831161053c57829003601f168201915b50505050508a612126565b5b8015610601575061060081600301805461057e90612f82565b80601f01602080910402602001604051908101604052809291908181526020018280546105aa90612f82565b80156105f55780601f106105cc576101008083540402835291602001916105f5565b820191905f5260205f20905b8154815290600101906020018083116105d857829003601f168201915b505050505089612126565b5b156106505785838154811061061957610618612f28565b5b905f5260205f20015485858151811061063557610634612f28565b5b602002602001018181525050838061064c90612fdf565b9450505b5050808060010191505061039a565b50808252819350505050949350505050565b6003602052805f5260405f205f915054906101000a900473ffffffffffffffffffffffffffffffffffffffff1681565b6001151560055f3373ffffffffffffffffffffffffffffffffffffffff1673ffffffffffffffffffffffffffffffffffffffff1681526020019081526020015f205f9054906101000a900460ff16151514610731576040517f08c379a000000000000000000000000000000000000000000000000000000000815260040161072890613070565b60405180910390fd5b5f60015f8373ffffffffffffffffffffffffffffffffffffffff1673ffffffffffffffffffffffffffffffffffffffff1681526020019081526020015f2060040154116107b3576040517f08c379a00000000000000000000000000000000000000000000000000000000081526004016107aa906130d8565b60405180910390fd5b60015f8273ffffffffffffffffffffffffffffffffffffffff1673ffffffffffffffffffffffffffffffffffffffff1681526020019081526020015f205f8082015f6107ff91906124b8565b600182015f61080e91906124b8565b600282015f61081d91906124b8565b600382015f61082c91906124b8565b600482015f905550508073ffffffffffffffffffffffffffffffffffffffff167fae4bdf5adabafca6721399496d24fe50fb6564effcb386fbae92de33540763bc60405160405180910390a250565b6005602052805f5260405f205f915054906101000a900460ff1681565b6108a1816121f8565b6108e0576040517f08c379a00000000000000000000000000000000000000000000000000000000081526004016108d790613140565b60405180910390fd5b5f60035f8381526020019081526020015f205f9054906101000a900473ffffffffffffffffffffffffffffffffffffffff1690505f73ffffffffffffffffffffffffffffffffffffffff168173ffffffffffffffffffffffffffffffffffffffff1603610982576040517f08c379a0000000000000000000000000000000000000000000000000000000008152600401610979906131a8565b60405180910390fd5b5f60025f8373ffffffffffffffffffffffffffffffffffffffff1673ffffffffffffffffffffffffffffffffffffffff1681526020019081526020015f205f0180546109cd90612f82565b80601f01602080910402602001604051908101604052809291908181526020018280546109f990612f82565b8015610a445780601f10610a1b57610100808354040283529160200191610a44565b820191905f5260205f20905b815481529060010190602001808311610a2757829003601f168201915b505050505090505f600482604051610a5c9190612f12565b908152602001604051809103902090505f5b8180549050811015610b1d5784828281548110610a8e57610a8d612f28565b5b905f5260205f20015403610b10578160018380549050610aae91906131c6565b81548110610abf57610abe612f28565b5b905f5260205f200154828281548110610adb57610ada612f28565b5b905f5260205f20018190555081805480610af857610af76131f9565b5b600190038181905f5260205f20015f90559055610b1d565b8080600101915050610a6e565b5060025f8473ffffffffffffffffffffffffffffffffffffffff1673ffffffffffffffffffffffffffffffffffffffff1681526020019081526020015f205f8082015f610b6a91906124b8565b600182015f610b7991906124b8565b600282015f610b8891906124b8565b600382015f610b9791906124b8565b600482015f610ba691906124b8565b600582015f9055600682015f9055505060035f8581526020019081526020015f205f6101000a81549073ffffffffffffffffffffffffffffffffffffffff02191690558273ffffffffffffffffffffffffffffffffffffffff167fe9f653ab6dbfccfbf599e332a5cf4aa24c7d943d1fa32b4607a0ecc6063b3c0485604051610c2f9190612ac1565b60405180910390a250505050565b6001151560055f3373ffffffffffffffffffffffffffffffffffffffff1673ffffffffffffffffffffffffffffffffffffffff1681526020019081526020015f205f9054906101000a900460ff16151514610ccd576040517f08c379a0000000000000000000000000000000000000000000000000000000008152600401610cc490613070565b60405180910390fd5b5f33905061038460025f8373ffffffffffffffffffffffffffffffffffffffff1673ffffffffffffffffffffffffffffffffffffffff1681526020019081526020015f206006015442610d2091906131c6565b1115610dbf5760025f8273ffffffffffffffffffffffffffffffffffffffff1673ffffffffffffffffffffffffffffffffffffffff1681526020019081526020015f205f8082015f610d7291906124b8565b600182015f610d8191906124b8565b600282015f610d9091906124b8565b600382015f610d9f91906124b8565b600482015f610dae91906124b8565b600582015f9055600682015f905550505b50565b5f80610dcc612289565b90506040518060e001604052808881526020018781526020018681526020018581526020018481526020018281526020014281525060025f3373ffffffffffffffffffffffffffffffffffffffff1673ffffffffffffffffffffffffffffffffffffffff1681526020019081526020015f205f820151815f019081610e5191906133c3565b506020820151816001019081610e6791906133c3565b506040820151816002019081610e7d91906133c3565b506060820151816003019081610e9391906133c3565b506080820151816004019081610ea991906133c3565b5060a0820151816005015560c082015181600601559050503360035f8381526020019081526020015f205f6101000a81548173ffffffffffffffffffffffffffffffffffffffff021916908373ffffffffffffffffffffffffffffffffffffffff160217905550600487604051610f209190612f12565b908152602001604051809103902081908060018154018082558091505060019003905f5260205f20015f90919091909150553373ffffffffffffffffffffffffffffffffffffffff167f0ec66eac7cc2b6555e1742961a9ee17e918d7ff81b635fac9cc6833245d279d682604051610f989190612ac1565b60405180910390a28091505095945050505050565b6001151560055f3373ffffffffffffffffffffffffffffffffffffffff1673ffffffffffffffffffffffffffffffffffffffff1681526020019081526020015f205f9054906101000a900460ff1615151461103d576040517f08c379a000000000000000000000000000000000000000000000000000000000815260040161103490613070565b60405180910390fd5b600160055f8373ffffffffffffffffffffffffffffffffffffffff1673ffffffffffffffffffffffffffffffffffffffff1681526020019081526020015f205f6101000a81548160ff02191690831515021790555050565b5f8054906101000a900473ffffffffffffffffffffffffffffffffffffffff1681565b6110c06124f5565b6110c8612523565b6110d1836121f8565b611110576040517f08c379a000000000000000000000000000000000000000000000000000000000815260040161110790613140565b60405180910390fd5b5f60035f8581526020019081526020015f205f9054906101000a900473ffffffffffffffffffffffffffffffffffffffff1690505f73ffffffffffffffffffffffffffffffffffffffff168173ffffffffffffffffffffffffffffffffffffffff16036111b2576040517f08c379a00000000000000000000000000000000000000000000000000000000081526004016111a9906131a8565b60405180910390fd5b60015f8273ffffffffffffffffffffffffffffffffffffffff1673ffffffffffffffffffffffffffffffffffffffff1681526020019081526020015f2060025f8373ffffffffffffffffffffffffffffffffffffffff1673ffffffffffffffffffffffffffffffffffffffff1681526020019081526020015f20816040518060a00160405290815f8201805461124790612f82565b80601f016020809104026020016040519081016040528092919081815260200182805461127390612f82565b80156112be5780601f10611295576101008083540402835291602001916112be565b820191905f5260205f20905b8154815290600101906020018083116112a157829003601f168201915b505050505081526020016001820180546112d790612f82565b80601f016020809104026020016040519081016040528092919081815260200182805461130390612f82565b801561134e5780601f106113255761010080835404028352916020019161134e565b820191905f5260205f20905b81548152906001019060200180831161133157829003601f168201915b5050505050815260200160028201805461136790612f82565b80601f016020809104026020016040519081016040528092919081815260200182805461139390612f82565b80156113de5780601f106113b5576101008083540402835291602001916113de565b820191905f5260205f20905b8154815290600101906020018083116113c157829003601f168201915b505050505081526020016003820180546113f790612f82565b80601f016020809104026020016040519081016040528092919081815260200182805461142390612f82565b801561146e5780601f106114455761010080835404028352916020019161146e565b820191905f5260205f20905b81548152906001019060200180831161145157829003601f168201915b505050505081526020016004820154815250509150806040518060e00160405290815f8201805461149e90612f82565b80601f01602080910402602001604051908101604052809291908181526020018280546114ca90612f82565b80156115155780601f106114ec57610100808354040283529160200191611515565b820191905f5260205f20905b8154815290600101906020018083116114f857829003601f168201915b5050505050815260200160018201805461152e90612f82565b80601f016020809104026020016040519081016040528092919081815260200182805461155a90612f82565b80156115a55780601f1061157c576101008083540402835291602001916115a5565b820191905f5260205f20905b81548152906001019060200180831161158857829003601f168201915b505050505081526020016002820180546115be90612f82565b80601f01602080910402602001604051908101604052809291908181526020018280546115ea90612f82565b80156116355780601f1061160c57610100808354040283529160200191611635565b820191905f5260205f20905b81548152906001019060200180831161161857829003601f168201915b5050505050815260200160038201805461164e90612f82565b80601f016020809104026020016040519081016040528092919081815260200182805461167a90612f82565b80156116c55780601f1061169c576101008083540402835291602001916116c5565b820191905f5260205f20905b8154815290600101906020018083116116a857829003601f168201915b505050505081526020016004820180546116de90612f82565b80601f016020809104026020016040519081016040528092919081815260200182805461170a90612f82565b80156117555780601f1061172c57610100808354040283529160200191611755565b820191905f5260205f20905b81548152906001019060200180831161173857829003601f168201915b505050505081526020016005820154815260200160068201548152505090509250925050915091565b6001151560055f3373ffffffffffffffffffffffffffffffffffffffff1673ffffffffffffffffffffffffffffffffffffffff1681526020019081526020015f205f9054906101000a900460ff1615151461180e576040517f08c379a000000000000000000000000000000000000000000000000000000000815260040161180590613070565b60405180910390fd5b5f60015f8773ffffffffffffffffffffffffffffffffffffffff1673ffffffffffffffffffffffffffffffffffffffff1681526020019081526020015f206004015414611890576040517f08c379a0000000000000000000000000000000000000000000000000000000008152600401611887906134dc565b60405180910390fd5b6040518060a001604052808581526020018481526020018381526020018281526020014281525060015f8773ffffffffffffffffffffffffffffffffffffffff1673ffffffffffffffffffffffffffffffffffffffff1681526020019081526020015f205f820151815f01908161190791906133c3565b50602082015181600101908161191d91906133c3565b50604082015181600201908161193391906133c3565b50606082015181600301908161194991906133c3565b50608082015181600401559050503373ffffffffffffffffffffffffffffffffffffffff167fec31b5c87ea82f60c8bc1dd8262f275183d0d7bc8c37cdbbfd74130441818fbc8560405161199d91906134fa565b60405180910390a25050505050565b6002602052805f5260405f205f91509050805f0180546119cb90612f82565b80601f01602080910402602001604051908101604052809291908181526020018280546119f790612f82565b8015611a425780601f10611a1957610100808354040283529160200191611a42565b820191905f5260205f20905b815481529060010190602001808311611a2557829003601f168201915b505050505090806001018054611a5790612f82565b80601f0160208091040260200160405190810160405280929190818152602001828054611a8390612f82565b8015611ace5780601f10611aa557610100808354040283529160200191611ace565b820191905f5260205f20905b815481529060010190602001808311611ab157829003601f168201915b505050505090806002018054611ae390612f82565b80601f0160208091040260200160405190810160405280929190818152602001828054611b0f90612f82565b8015611b5a5780601f10611b3157610100808354040283529160200191611b5a565b820191905f5260205f20905b815481529060010190602001808311611b3d57829003601f168201915b505050505090806003018054611b6f90612f82565b80601f0160208091040260200160405190810160405280929190818152602001828054611b9b90612f82565b8015611be65780601f10611bbd57610100808354040283529160200191611be6565b820191905f5260205f20905b815481529060010190602001808311611bc957829003601f168201915b505050505090806004018054611bfb90612f82565b80601f0160208091040260200160405190810160405280929190818152602001828054611c2790612f82565b8015611c725780601f10611c4957610100808354040283529160200191611c72565b820191905f5260205f20905b815481529060010190602001808311611c5557829003601f168201915b5050505050908060050154908060060154905087565b6001602052805f5260405f205f91509050805f018054611ca790612f82565b80601f0160208091040260200160405190810160405280929190818152602001828054611cd390612f82565b8015611d1e5780601f10611cf557610100808354040283529160200191611d1e565b820191905f5260205f20905b815481529060010190602001808311611d0157829003601f168201915b505050505090806001018054611d3390612f82565b80601f0160208091040260200160405190810160405280929190818152602001828054611d5f90612f82565b8015611daa5780601f10611d8157610100808354040283529160200191611daa565b820191905f5260205f20905b815481529060010190602001808311611d8d57829003601f168201915b505050505090806002018054611dbf90612f82565b80601f0160208091040260200160405190810160405280929190818152602001828054611deb90612f82565b8015611e365780601f10611e0d57610100808354040283529160200191611e36565b820191905f5260205f20905b815481529060010190602001808311611e1957829003601f168201915b505050505090806003018054611e4b90612f82565b80601f0160208091040260200160405190810160405280929190818152602001828054611e7790612f82565b8015611ec25780601f10611e9957610100808354040283529160200191611ec2565b820191905f5260205f20905b815481529060010190602001808311611ea557829003601f168201915b5050505050908060040154905085565b5f60025f3373ffffffffffffffffffffffffffffffffffffffff1673ffffffffffffffffffffffffffffffffffffffff1681526020019081526020015f2060050154905090565b5f60015f3373ffffffffffffffffffffffffffffffffffffffff1673ffffffffffffffffffffffffffffffffffffffff1681526020019081526020015f206004015411611f9b576040517f08c379a0000000000000000000000000000000000000000000000000000000008152600401611f92906130d8565b60405180910390fd5b8360015f3373ffffffffffffffffffffffffffffffffffffffff1673ffffffffffffffffffffffffffffffffffffffff1681526020019081526020015f205f019081611fe791906133c3565b508260015f3373ffffffffffffffffffffffffffffffffffffffff1673ffffffffffffffffffffffffffffffffffffffff1681526020019081526020015f20600101908161203591906133c3565b508160015f3373ffffffffffffffffffffffffffffffffffffffff1673ffffffffffffffffffffffffffffffffffffffff1681526020019081526020015f20600201908161208391906133c3565b508060015f3373ffffffffffffffffffffffffffffffffffffffff1673ffffffffffffffffffffffffffffffffffffffff1681526020019081526020015f2060030190816120d191906133c3565b503373ffffffffffffffffffffffffffffffffffffffff167f78664930cfae4a1eb87c094f2b3013547dbb5e6b7cc7b9f0941766060298e1268560405161211891906134fa565b60405180910390a250505050565b5f808390505f8390508051825114612142575f925050506121f2565b5f5b82518110156121ea578181815181106121605761215f612f28565b5b602001015160f81c60f81b7effffffffffffffffffffffffffffffffffffffffffffffffffffffffffffff19168382815181106121a05761219f612f28565b5b602001015160f81c60f81b7effffffffffffffffffffffffffffffffffffffffffffffffffffffffffffff1916146121dd575f93505050506121f2565b8080600101915050612144565b506001925050505b92915050565b5f6305f5e10082101580156122115750633b9ac9ff8211155b612250576040517f08c379a000000000000000000000000000000000000000000000000000000000815260040161224790613564565b60405180910390fd5b5f600a8361225e91906135af565b90505f600a8461226e91906135df565b90505f61227a82612373565b90508083149350505050919050565b5f80603c804261229991906135df565b6122a391906135af565b90505f603c426122b391906135af565b90505f81603c846122c4919061360f565b6122ce9190613650565b90505f610dd461270f836122e2919061360f565b6122ec91906135df565b90505f6103e861232842336040516020016123089291906136e8565b604051602081830303815290604052805190602001205f1c61232a91906135af565b6123349190613650565b90505f6123418383612390565b90505f61234d82612373565b905080600a8361235d919061360f565b6123679190613650565b97505050505050505090565b5f600a61237f83612473565b61238991906135af565b9050919050565b5f805f90505f5b6004811015612468575f600a82600a6123b09190613842565b876123bb91906135df565b6123c591906135af565b90505f600a83600a6123d79190613842565b876123e291906135df565b6123ec91906135af565b90506002836123fb919061360f565b600a6124079190613842565b82612412919061360f565b6001600285612421919061360f565b61242b9190613650565b600a6124379190613842565b82612442919061360f565b61244c9190613650565b846124579190613650565b935050508080600101915050612397565b508091505092915050565b5f805f90505b5f8311156124af57600a8361248e91906135af565b816124999190613650565b9050600a836124a891906135df565b9250612479565b80915050919050565b5080546124c490612f82565b5f825580601f106124d557506124f2565b601f0160209004905f5260205f20908101906124f1919061255e565b5b50565b6040518060a00160405280606081526020016060815260200160608152602001606081526020015f81525090565b6040518060e0016040528060608152602001606081526020016060815260200160608152602001606081526020015f81526020015f81525090565b5b80821115612575575f815f90555060010161255f565b5090565b5f604051905090565b5f80fd5b5f80fd5b5f80fd5b5f80fd5b5f601f19601f8301169050919050565b7f4e487b71000000000000000000000000000000000000000000000000000000005f52604160045260245ffd5b6125d882612592565b810181811067ffffffffffffffff821117156125f7576125f66125a2565b5b80604052505050565b5f612609612579565b905061261582826125cf565b919050565b5f67ffffffffffffffff821115612634576126336125a2565b5b61263d82612592565b9050602081019050919050565b828183375f83830152505050565b5f61266a6126658461261a565b612600565b9050828152602081018484840111156126865761268561258e565b5b61269184828561264a565b509392505050565b5f82601f8301126126ad576126ac61258a565b5b81356126bd848260208601612658565b91505092915050565b5f805f80608085870312156126de576126dd612582565b5b5f85013567ffffffffffffffff8111156126fb576126fa612586565b5b61270787828801612699565b945050602085013567ffffffffffffffff81111561272857612727612586565b5b61273487828801612699565b935050604085013567ffffffffffffffff81111561275557612754612586565b5b61276187828801612699565b925050606085013567ffffffffffffffff81111561278257612781612586565b5b61278e87828801612699565b91505092959194509250565b5f81519050919050565b5f82825260208201905092915050565b5f819050602082019050919050565b5f819050919050565b6127d5816127c3565b82525050565b5f6127e683836127cc565b60208301905092915050565b5f602082019050919050565b5f6128088261279a565b61281281856127a4565b935061281d836127b4565b805f5b8381101561284d57815161283488826127db565b975061283f836127f2565b925050600181019050612820565b5085935050505092915050565b5f6020820190508181035f83015261287281846127fe565b905092915050565b612883816127c3565b811461288d575f80fd5b50565b5f8135905061289e8161287a565b92915050565b5f602082840312156128b9576128b8612582565b5b5f6128c684828501612890565b91505092915050565b5f73ffffffffffffffffffffffffffffffffffffffff82169050919050565b5f6128f8826128cf565b9050919050565b612908816128ee565b82525050565b5f6020820190506129215f8301846128ff565b92915050565b612930816128ee565b811461293a575f80fd5b50565b5f8135905061294b81612927565b92915050565b5f6020828403121561296657612965612582565b5b5f6129738482850161293d565b91505092915050565b5f8115159050919050565b6129908161297c565b82525050565b5f6020820190506129a95f830184612987565b92915050565b5f805f805f60a086880312156129c8576129c7612582565b5b5f86013567ffffffffffffffff8111156129e5576129e4612586565b5b6129f188828901612699565b955050602086013567ffffffffffffffff811115612a1257612a11612586565b5b612a1e88828901612699565b945050604086013567ffffffffffffffff811115612a3f57612a3e612586565b5b612a4b88828901612699565b935050606086013567ffffffffffffffff811115612a6c57612a6b612586565b5b612a7888828901612699565b925050608086013567ffffffffffffffff811115612a9957612a98612586565b5b612aa588828901612699565b9150509295509295909350565b612abb816127c3565b82525050565b5f602082019050612ad45f830184612ab2565b92915050565b5f81519050919050565b5f82825260208201905092915050565b8281835e5f83830152505050565b5f612b0c82612ada565b612b168185612ae4565b9350612b26818560208601612af4565b612b2f81612592565b840191505092915050565b5f60a083015f8301518482035f860152612b548282612b02565b91505060208301518482036020860152612b6e8282612b02565b91505060408301518482036040860152612b888282612b02565b91505060608301518482036060860152612ba28282612b02565b9150506080830151612bb760808601826127cc565b508091505092915050565b5f60e083015f8301518482035f860152612bdc8282612b02565b91505060208301518482036020860152612bf68282612b02565b91505060408301518482036040860152612c108282612b02565b91505060608301518482036060860152612c2a8282612b02565b91505060808301518482036080860152612c448282612b02565b91505060a0830151612c5960a08601826127cc565b5060c0830151612c6c60c08601826127cc565b508091505092915050565b5f6040820190508181035f830152612c8f8185612b3a565b90508181036020830152612ca38184612bc2565b90509392505050565b5f805f805f60a08688031215612cc557612cc4612582565b5b5f612cd28882890161293d565b955050602086013567ffffffffffffffff811115612cf357612cf2612586565b5b612cff88828901612699565b945050604086013567ffffffffffffffff811115612d2057612d1f612586565b5b612d2c88828901612699565b935050606086013567ffffffffffffffff811115612d4d57612d4c612586565b5b612d5988828901612699565b925050608086013567ffffffffffffffff811115612d7a57612d79612586565b5b612d8688828901612699565b9150509295509295909350565b5f82825260208201905092915050565b5f612dad82612ada565b612db78185612d93565b9350612dc7818560208601612af4565b612dd081612592565b840191505092915050565b5f60e0820190508181035f830152612df3818a612da3565b90508181036020830152612e078189612da3565b90508181036040830152612e1b8188612da3565b90508181036060830152612e2f8187612da3565b90508181036080830152612e438186612da3565b9050612e5260a0830185612ab2565b612e5f60c0830184612ab2565b98975050505050505050565b5f60a0820190508181035f830152612e838188612da3565b90508181036020830152612e978187612da3565b90508181036040830152612eab8186612da3565b90508181036060830152612ebf8185612da3565b9050612ece6080830184612ab2565b9695505050505050565b5f81905092915050565b5f612eec82612ada565b612ef68185612ed8565b9350612f06818560208601612af4565b80840191505092915050565b5f612f1d8284612ee2565b915081905092915050565b7f4e487b71000000000000000000000000000000000000000000000000000000005f52603260045260245ffd5b7f4e487b71000000000000000000000000000000000000000000000000000000005f52602260045260245ffd5b5f6002820490506001821680612f9957607f821691505b602082108103612fac57612fab612f55565b5b50919050565b7f4e487b71000000000000000000000000000000000000000000000000000000005f52601160045260245ffd5b5f612fe9826127c3565b91507fffffffffffffffffffffffffffffffffffffffffffffffffffffffffffffffff820361301b5761301a612fb2565b5b600182019050919050565b7f4e6f7420617574686f72697a65640000000000000000000000000000000000005f82015250565b5f61305a600e83612d93565b915061306582613026565b602082019050919050565b5f6020820190508181035f8301526130878161304e565b9050919050565b7f4d65726368616e74206e6f7420666f756e6400000000000000000000000000005f82015250565b5f6130c2601283612d93565b91506130cd8261308e565b602082019050919050565b5f6020820190508181035f8301526130ef816130b6565b9050919050565b7f41637469766520636f6465206e6f7420657869737473000000000000000000005f82015250565b5f61312a601683612d93565b9150613135826130f6565b602082019050919050565b5f6020820190508181035f8301526131578161311e565b9050919050565b7f41637469766520636f6465206e6f7420666f756e6400000000000000000000005f82015250565b5f613192601583612d93565b915061319d8261315e565b602082019050919050565b5f6020820190508181035f8301526131bf81613186565b9050919050565b5f6131d0826127c3565b91506131db836127c3565b92508282039050818111156131f3576131f2612fb2565b5b92915050565b7f4e487b71000000000000000000000000000000000000000000000000000000005f52603160045260245ffd5b5f819050815f5260205f209050919050565b5f6020601f8301049050919050565b5f82821b905092915050565b5f600883026132827fffffffffffffffffffffffffffffffffffffffffffffffffffffffffffffffff82613247565b61328c8683613247565b95508019841693508086168417925050509392505050565b5f819050919050565b5f6132c76132c26132bd846127c3565b6132a4565b6127c3565b9050919050565b5f819050919050565b6132e0836132ad565b6132f46132ec826132ce565b848454613253565b825550505050565b5f90565b6133086132fc565b6133138184846132d7565b505050565b5b818110156133365761332b5f82613300565b600181019050613319565b5050565b601f82111561337b5761334c81613226565b61335584613238565b81016020851015613364578190505b61337861337085613238565b830182613318565b50505b505050565b5f82821c905092915050565b5f61339b5f1984600802613380565b1980831691505092915050565b5f6133b3838361338c565b9150826002028217905092915050565b6133cc82612ada565b67ffffffffffffffff8111156133e5576133e46125a2565b5b6133ef8254612f82565b6133fa82828561333a565b5f60209050601f83116001811461342b575f8415613419578287015190505b61342385826133a8565b86555061348a565b601f19841661343986613226565b5f5b828110156134605784890151825560018201915060208501945060208101905061343b565b8683101561347d5784890151613479601f89168261338c565b8355505b6001600288020188555050505b505050505050565b7f4d65726368616e7420616c7265616479206578697374730000000000000000005f82015250565b5f6134c6601783612d93565b91506134d182613492565b602082019050919050565b5f6020820190508181035f8301526134f3816134ba565b9050919050565b5f6020820190508181035f8301526135128184612da3565b905092915050565b7f496e76616c69642061637469766174696f6e20636f646520666f726d617400005f82015250565b5f61354e601e83612d93565b91506135598261351a565b602082019050919050565b5f6020820190508181035f83015261357b81613542565b9050919050565b7f4e487b71000000000000000000000000000000000000000000000000000000005f52601260045260245ffd5b5f6135b9826127c3565b91506135c4836127c3565b9250826135d4576135d3613582565b5b828206905092915050565b5f6135e9826127c3565b91506135f4836127c3565b92508261360457613603613582565b5b828204905092915050565b5f613619826127c3565b9150613624836127c3565b9250828202613632816127c3565b9150828204841483151761364957613648612fb2565b5b5092915050565b5f61365a826127c3565b9150613665836127c3565b925082820190508082111561367d5761367c612fb2565b5b92915050565b5f819050919050565b61369d613698826127c3565b613683565b82525050565b5f8160601b9050919050565b5f6136b9826136a3565b9050919050565b5f6136ca826136af565b9050919050565b6136e26136dd826128ee565b6136c0565b82525050565b5f6136f3828561368c565b60208201915061370382846136d1565b6014820191508190509392505050565b5f8160011c9050919050565b5f808291508390505b60018511156137685780860481111561374457613743612fb2565b5b60018516156137535780820291505b808102905061376185613713565b9450613728565b94509492505050565b5f82613780576001905061383b565b8161378d575f905061383b565b81600181146137a357600281146137ad576137dc565b600191505061383b565b60ff8411156137bf576137be612fb2565b5b8360020a9150848211156137d6576137d5612fb2565b5b5061383b565b5060208310610133831016604e8410600b84101617156138115782820a90508381111561380c5761380b612fb2565b5b61383b565b61381e848484600161371f565b9250905081840481111561383557613834612fb2565b5b81810290505b9392505050565b5f61384c826127c3565b9150613857836127c3565b92506138847fffffffffffffffffffffffffffffffffffffffffffffffffffffffffffffffff8484613771565b90509291505056fea264697066735822122026b16e441db2186aeb0da1c597bdfe979c3e3a9e4f82693102555fb3a380237f64736f6c634300081a0033",
					"opcodes": "PUSH1 0x80 PUSH1 0x40 MSTORE CALLVALUE DUP1 ISZERO PUSH2 0xF JUMPI PUSH0 DUP1 REVERT JUMPDEST POP CALLER PUSH0 DUP1 PUSH2 0x100 EXP DUP2 SLOAD DUP2 PUSH20 0xFFFFFFFFFFFFFFFFFFFFFFFFFFFFFFFFFFFFFFFF MUL NOT AND SWAP1 DUP4 PUSH20 0xFFFFFFFFFFFFFFFFFFFFFFFFFFFFFFFFFFFFFFFF AND MUL OR SWAP1 SSTORE POP PUSH1 0x1 PUSH1 0x5 PUSH0 CALLER PUSH20 0xFFFFFFFFFFFFFFFFFFFFFFFFFFFFFFFFFFFFFFFF AND PUSH20 0xFFFFFFFFFFFFFFFFFFFFFFFFFFFFFFFFFFFFFFFF AND DUP2 MSTORE PUSH1 0x20 ADD SWAP1 DUP2 MSTORE PUSH1 0x20 ADD PUSH0 KECCAK256 PUSH0 PUSH2 0x100 EXP DUP2 SLOAD DUP2 PUSH1 0xFF MUL NOT AND SWAP1 DUP4 ISZERO ISZERO MUL OR SWAP1 SSTORE POP PUSH1 0x1 PUSH1 0x5 PUSH0 PUSH20 0xB50B908FFD42D2EDB12B325E75330C1AAAF35DC0 PUSH20 0xFFFFFFFFFFFFFFFFFFFFFFFFFFFFFFFFFFFFFFFF AND PUSH20 0xFFFFFFFFFFFFFFFFFFFFFFFFFFFFFFFFFFFFFFFF AND DUP2 MSTORE PUSH1 0x20 ADD SWAP1 DUP2 MSTORE PUSH1 0x20 ADD PUSH0 KECCAK256 PUSH0 PUSH2 0x100 EXP DUP2 SLOAD DUP2 PUSH1 0xFF MUL NOT AND SWAP1 DUP4 ISZERO ISZERO MUL OR SWAP1 SSTORE POP PUSH2 0x38C2 DUP1 PUSH2 0x11A PUSH0 CODECOPY PUSH0 RETURN INVALID PUSH1 0x80 PUSH1 0x40 MSTORE CALLVALUE DUP1 ISZERO PUSH2 0xF JUMPI PUSH0 DUP1 REVERT JUMPDEST POP PUSH1 0x4 CALLDATASIZE LT PUSH2 0xF3 JUMPI PUSH0 CALLDATALOAD PUSH1 0xE0 SHR DUP1 PUSH4 0x704B6C02 GT PUSH2 0x95 JUMPI DUP1 PUSH4 0xE7B4CAC6 GT PUSH2 0x64 JUMPI DUP1 PUSH4 0xE7B4CAC6 EQ PUSH2 0x280 JUMPI DUP1 PUSH4 0xEE14E939 EQ PUSH2 0x2B6 JUMPI DUP1 PUSH4 0xEEF814D3 EQ PUSH2 0x2EA JUMPI DUP1 PUSH4 0xF4F97658 EQ PUSH2 0x308 JUMPI PUSH2 0xF3 JUMP JUMPDEST DUP1 PUSH4 0x704B6C02 EQ PUSH2 0x1F9 JUMPI DUP1 PUSH4 0x8DA5CB5B EQ PUSH2 0x215 JUMPI DUP1 PUSH4 0xCEF33810 EQ PUSH2 0x233 JUMPI DUP1 PUSH4 0xD4DD4B47 EQ PUSH2 0x264 JUMPI PUSH2 0xF3 JUMP JUMPDEST DUP1 PUSH4 0x24D7806C GT PUSH2 0xD1 JUMPI DUP1 PUSH4 0x24D7806C EQ PUSH2 0x173 JUMPI DUP1 PUSH4 0x24E8779F EQ PUSH2 0x1A3 JUMPI DUP1 PUSH4 0x3AB0639B EQ PUSH2 0x1BF JUMPI DUP1 PUSH4 0x53929CEC EQ PUSH2 0x1C9 JUMPI PUSH2 0xF3 JUMP JUMPDEST DUP1 PUSH4 0x44866CC EQ PUSH2 0xF7 JUMPI DUP1 PUSH4 0xB75C58F EQ PUSH2 0x127 JUMPI DUP1 PUSH4 0x133ADAB6 EQ PUSH2 0x157 JUMPI JUMPDEST PUSH0 DUP1 REVERT JUMPDEST PUSH2 0x111 PUSH1 0x4 DUP1 CALLDATASIZE SUB DUP2 ADD SWAP1 PUSH2 0x10C SWAP2 SWAP1 PUSH2 0x26C6 JUMP JUMPDEST PUSH2 0x324 JUMP JUMPDEST PUSH1 0x40 MLOAD PUSH2 0x11E SWAP2 SWAP1 PUSH2 0x285A JUMP JUMPDEST PUSH1 0x40 MLOAD DUP1 SWAP2 SUB SWAP1 RETURN JUMPDEST PUSH2 0x141 PUSH1 0x4 DUP1 CALLDATASIZE SUB DUP2 ADD SWAP1 PUSH2 0x13C SWAP2 SWAP1 PUSH2 0x28A4 JUMP JUMPDEST PUSH2 0x671 JUMP JUMPDEST PUSH1 0x40 MLOAD PUSH2 0x14E SWAP2 SWAP1 PUSH2 0x290E JUMP JUMPDEST PUSH1 0x40 MLOAD DUP1 SWAP2 SUB SWAP1 RETURN JUMPDEST PUSH2 0x171 PUSH1 0x4 DUP1 CALLDATASIZE SUB DUP2 ADD SWAP1 PUSH2 0x16C SWAP2 SWAP1 PUSH2 0x2951 JUMP JUMPDEST PUSH2 0x6A1 JUMP JUMPDEST STOP JUMPDEST PUSH2 0x18D PUSH1 0x4 DUP1 CALLDATASIZE SUB DUP2 ADD SWAP1 PUSH2 0x188 SWAP2 SWAP1 PUSH2 0x2951 JUMP JUMPDEST PUSH2 0x87B JUMP JUMPDEST PUSH1 0x40 MLOAD PUSH2 0x19A SWAP2 SWAP1 PUSH2 0x2996 JUMP JUMPDEST PUSH1 0x40 MLOAD DUP1 SWAP2 SUB SWAP1 RETURN JUMPDEST PUSH2 0x1BD PUSH1 0x4 DUP1 CALLDATASIZE SUB DUP2 ADD SWAP1 PUSH2 0x1B8 SWAP2 SWAP1 PUSH2 0x28A4 JUMP JUMPDEST PUSH2 0x898 JUMP JUMPDEST STOP JUMPDEST PUSH2 0x1C7 PUSH2 0xC3D JUMP JUMPDEST STOP JUMPDEST PUSH2 0x1E3 PUSH1 0x4 DUP1 CALLDATASIZE SUB DUP2 ADD SWAP1 PUSH2 0x1DE SWAP2 SWAP1 PUSH2 0x29AF JUMP JUMPDEST PUSH2 0xDC2 JUMP JUMPDEST PUSH1 0x40 MLOAD PUSH2 0x1F0 SWAP2 SWAP1 PUSH2 0x2AC1 JUMP JUMPDEST PUSH1 0x40 MLOAD DUP1 SWAP2 SUB SWAP1 RETURN JUMPDEST PUSH2 0x213 PUSH1 0x4 DUP1 CALLDATASIZE SUB DUP2 ADD SWAP1 PUSH2 0x20E SWAP2 SWAP1 PUSH2 0x2951 JUMP JUMPDEST PUSH2 0xFAD JUMP JUMPDEST STOP JUMPDEST PUSH2 0x21D PUSH2 0x1095 JUMP JUMPDEST PUSH1 0x40 MLOAD PUSH2 0x22A SWAP2 SWAP1 PUSH2 0x290E JUMP JUMPDEST PUSH1 0x40 MLOAD DUP1 SWAP2 SUB SWAP1 RETURN JUMPDEST PUSH2 0x24D PUSH1 0x4 DUP1 CALLDATASIZE SUB DUP2 ADD SWAP1 PUSH2 0x248 SWAP2 SWAP1 PUSH2 0x28A4 JUMP JUMPDEST PUSH2 0x10B8 JUMP JUMPDEST PUSH1 0x40 MLOAD PUSH2 0x25B SWAP3 SWAP2 SWAP1 PUSH2 0x2C77 JUMP JUMPDEST PUSH1 0x40 MLOAD DUP1 SWAP2 SUB SWAP1 RETURN JUMPDEST PUSH2 0x27E PUSH1 0x4 DUP1 CALLDATASIZE SUB DUP2 ADD SWAP1 PUSH2 0x279 SWAP2 SWAP1 PUSH2 0x2CAC JUMP JUMPDEST PUSH2 0x177E JUMP JUMPDEST STOP JUMPDEST PUSH2 0x29A PUSH1 0x4 DUP1 CALLDATASIZE SUB DUP2 ADD SWAP1 PUSH2 0x295 SWAP2 SWAP1 PUSH2 0x2951 JUMP JUMPDEST PUSH2 0x19AC JUMP JUMPDEST PUSH1 0x40 MLOAD PUSH2 0x2AD SWAP8 SWAP7 SWAP6 SWAP5 SWAP4 SWAP3 SWAP2 SWAP1 PUSH2 0x2DDB JUMP JUMPDEST PUSH1 0x40 MLOAD DUP1 SWAP2 SUB SWAP1 RETURN JUMPDEST PUSH2 0x2D0 PUSH1 0x4 DUP1 CALLDATASIZE SUB DUP2 ADD SWAP1 PUSH2 0x2CB SWAP2 SWAP1 PUSH2 0x2951 JUMP JUMPDEST PUSH2 0x1C88 JUMP JUMPDEST PUSH1 0x40 MLOAD PUSH2 0x2E1 SWAP6 SWAP5 SWAP4 SWAP3 SWAP2 SWAP1 PUSH2 0x2E6B JUMP JUMPDEST PUSH1 0x40 MLOAD DUP1 SWAP2 SUB SWAP1 RETURN JUMPDEST PUSH2 0x2F2 PUSH2 0x1ED2 JUMP JUMPDEST PUSH1 0x40 MLOAD PUSH2 0x2FF SWAP2 SWAP1 PUSH2 0x2AC1 JUMP JUMPDEST PUSH1 0x40 MLOAD DUP1 SWAP2 SUB SWAP1 RETURN JUMPDEST PUSH2 0x322 PUSH1 0x4 DUP1 CALLDATASIZE SUB DUP2 ADD SWAP1 PUSH2 0x31D SWAP2 SWAP1 PUSH2 0x26C6 JUMP JUMPDEST PUSH2 0x1F19 JUMP JUMPDEST STOP JUMPDEST PUSH1 0x60 PUSH0 PUSH1 0x4 DUP7 PUSH1 0x40 MLOAD PUSH2 0x337 SWAP2 SWAP1 PUSH2 0x2F12 JUMP JUMPDEST SWAP1 DUP2 MSTORE PUSH1 0x20 ADD PUSH1 0x40 MLOAD DUP1 SWAP2 SUB SWAP1 KECCAK256 SWAP1 POP PUSH0 DUP2 DUP1 SLOAD SWAP1 POP PUSH8 0xFFFFFFFFFFFFFFFF DUP2 GT ISZERO PUSH2 0x366 JUMPI PUSH2 0x365 PUSH2 0x25A2 JUMP JUMPDEST JUMPDEST PUSH1 0x40 MLOAD SWAP1 DUP1 DUP3 MSTORE DUP1 PUSH1 0x20 MUL PUSH1 0x20 ADD DUP3 ADD PUSH1 0x40 MSTORE DUP1 ISZERO PUSH2 0x394 JUMPI DUP2 PUSH1 0x20 ADD PUSH1 0x20 DUP3 MUL DUP1 CALLDATASIZE DUP4 CALLDATACOPY DUP1 DUP3 ADD SWAP2 POP POP SWAP1 POP JUMPDEST POP SWAP1 POP PUSH0 DUP1 JUMPDEST DUP4 DUP1 SLOAD SWAP1 POP DUP2 LT ISZERO PUSH2 0x65F JUMPI PUSH0 PUSH1 0x3 PUSH0 DUP7 DUP5 DUP2 SLOAD DUP2 LT PUSH2 0x3BD JUMPI PUSH2 0x3BC PUSH2 0x2F28 JUMP JUMPDEST JUMPDEST SWAP1 PUSH0 MSTORE PUSH1 0x20 PUSH0 KECCAK256 ADD SLOAD DUP2 MSTORE PUSH1 0x20 ADD SWAP1 DUP2 MSTORE PUSH1 0x20 ADD PUSH0 KECCAK256 PUSH0 SWAP1 SLOAD SWAP1 PUSH2 0x100 EXP SWAP1 DIV PUSH20 0xFFFFFFFFFFFFFFFFFFFFFFFFFFFFFFFFFFFFFFFF AND SWAP1 POP PUSH0 PUSH1 0x2 PUSH0 DUP4 PUSH20 0xFFFFFFFFFFFFFFFFFFFFFFFFFFFFFFFFFFFFFFFF AND PUSH20 0xFFFFFFFFFFFFFFFFFFFFFFFFFFFFFFFFFFFFFFFF AND DUP2 MSTORE PUSH1 0x20 ADD SWAP1 DUP2 MSTORE PUSH1 0x20 ADD PUSH0 KECCAK256 SWAP1 POP PUSH2 0x4C9 DUP2 PUSH1 0x1 ADD DUP1 SLOAD PUSH2 0x447 SWAP1 PUSH2 0x2F82 JUMP JUMPDEST DUP1 PUSH1 0x1F ADD PUSH1 0x20 DUP1 SWAP2 DIV MUL PUSH1 0x20 ADD PUSH1 0x40 MLOAD SWAP1 DUP2 ADD PUSH1 0x40 MSTORE DUP1 SWAP3 SWAP2 SWAP1 DUP2 DUP2 MSTORE PUSH1 0x20 ADD DUP3 DUP1 SLOAD PUSH2 0x473 SWAP1 PUSH2 0x2F82 JUMP JUMPDEST DUP1 ISZERO PUSH2 0x4BE JUMPI DUP1 PUSH1 0x1F LT PUSH2 0x495 JUMPI PUSH2 0x100 DUP1 DUP4 SLOAD DIV MUL DUP4 MSTORE SWAP2 PUSH1 0x20 ADD SWAP2 PUSH2 0x4BE JUMP JUMPDEST DUP3 ADD SWAP2 SWAP1 PUSH0 MSTORE PUSH1 0x20 PUSH0 KECCAK256 SWAP1 JUMPDEST DUP2 SLOAD DUP2 MSTORE SWAP1 PUSH1 0x1 ADD SWAP1 PUSH1 0x20 ADD DUP1 DUP4 GT PUSH2 0x4A1 JUMPI DUP3 SWAP1 SUB PUSH1 0x1F AND DUP3 ADD SWAP2 JUMPDEST POP POP POP POP POP DUP12 PUSH2 0x2126 JUMP JUMPDEST DUP1 ISZERO PUSH2 0x565 JUMPI POP PUSH2 0x564 DUP2 PUSH1 0x2 ADD DUP1 SLOAD PUSH2 0x4E2 SWAP1 PUSH2 0x2F82 JUMP JUMPDEST DUP1 PUSH1 0x1F ADD PUSH1 0x20 DUP1 SWAP2 DIV MUL PUSH1 0x20 ADD PUSH1 0x40 MLOAD SWAP1 DUP2 ADD PUSH1 0x40 MSTORE DUP1 SWAP3 SWAP2 SWAP1 DUP2 DUP2 MSTORE PUSH1 0x20 ADD DUP3 DUP1 SLOAD PUSH2 0x50E SWAP1 PUSH2 0x2F82 JUMP JUMPDEST DUP1 ISZERO PUSH2 0x559 JUMPI DUP1 PUSH1 0x1F LT PUSH2 0x530 JUMPI PUSH2 0x100 DUP1 DUP4 SLOAD DIV MUL DUP4 MSTORE SWAP2 PUSH1 0x20 ADD SWAP2 PUSH2 0x559 JUMP JUMPDEST DUP3 ADD SWAP2 SWAP1 PUSH0 MSTORE PUSH1 0x20 PUSH0 KECCAK256 SWAP1 JUMPDEST DUP2 SLOAD DUP2 MSTORE SWAP1 PUSH1 0x1 ADD SWAP1 PUSH1 0x20 ADD DUP1 DUP4 GT PUSH2 0x53C JUMPI DUP3 SWAP1 SUB PUSH1 0x1F AND DUP3 ADD SWAP2 JUMPDEST POP POP POP POP POP DUP11 PUSH2 0x2126 JUMP JUMPDEST JUMPDEST DUP1 ISZERO PUSH2 0x601 JUMPI POP PUSH2 0x600 DUP2 PUSH1 0x3 ADD DUP1 SLOAD PUSH2 0x57E SWAP1 PUSH2 0x2F82 JUMP JUMPDEST DUP1 PUSH1 0x1F ADD PUSH1 0x20 DUP1 SWAP2 DIV MUL PUSH1 0x20 ADD PUSH1 0x40 MLOAD SWAP1 DUP2 ADD PUSH1 0x40 MSTORE DUP1 SWAP3 SWAP2 SWAP1 DUP2 DUP2 MSTORE PUSH1 0x20 ADD DUP3 DUP1 SLOAD PUSH2 0x5AA SWAP1 PUSH2 0x2F82 JUMP JUMPDEST DUP1 ISZERO PUSH2 0x5F5 JUMPI DUP1 PUSH1 0x1F LT PUSH2 0x5CC JUMPI PUSH2 0x100 DUP1 DUP4 SLOAD DIV MUL DUP4 MSTORE SWAP2 PUSH1 0x20 ADD SWAP2 PUSH2 0x5F5 JUMP JUMPDEST DUP3 ADD SWAP2 SWAP1 PUSH0 MSTORE PUSH1 0x20 PUSH0 KECCAK256 SWAP1 JUMPDEST DUP2 SLOAD DUP2 MSTORE SWAP1 PUSH1 0x1 ADD SWAP1 PUSH1 0x20 ADD DUP1 DUP4 GT PUSH2 0x5D8 JUMPI DUP3 SWAP1 SUB PUSH1 0x1F AND DUP3 ADD SWAP2 JUMPDEST POP POP POP POP POP DUP10 PUSH2 0x2126 JUMP JUMPDEST JUMPDEST ISZERO PUSH2 0x650 JUMPI DUP6 DUP4 DUP2 SLOAD DUP2 LT PUSH2 0x619 JUMPI PUSH2 0x618 PUSH2 0x2F28 JUMP JUMPDEST JUMPDEST SWAP1 PUSH0 MSTORE PUSH1 0x20 PUSH0 KECCAK256 ADD SLOAD DUP6 DUP6 DUP2 MLOAD DUP2 LT PUSH2 0x635 JUMPI PUSH2 0x634 PUSH2 0x2F28 JUMP JUMPDEST JUMPDEST PUSH1 0x20 MUL PUSH1 0x20 ADD ADD DUP2 DUP2 MSTORE POP POP DUP4 DUP1 PUSH2 0x64C SWAP1 PUSH2 0x2FDF JUMP JUMPDEST SWAP5 POP POP JUMPDEST POP POP DUP1 DUP1 PUSH1 0x1 ADD SWAP2 POP POP PUSH2 0x39A JUMP JUMPDEST POP DUP1 DUP3 MSTORE DUP2 SWAP4 POP POP POP POP SWAP5 SWAP4 POP POP POP POP JUMP JUMPDEST PUSH1 0x3 PUSH1 0x20 MSTORE DUP1 PUSH0 MSTORE PUSH1 0x40 PUSH0 KECCAK256 PUSH0 SWAP2 POP SLOAD SWAP1 PUSH2 0x100 EXP SWAP1 DIV PUSH20 0xFFFFFFFFFFFFFFFFFFFFFFFFFFFFFFFFFFFFFFFF AND DUP2 JUMP JUMPDEST PUSH1 0x1 ISZERO ISZERO PUSH1 0x5 PUSH0 CALLER PUSH20 0xFFFFFFFFFFFFFFFFFFFFFFFFFFFFFFFFFFFFFFFF AND PUSH20 0xFFFFFFFFFFFFFFFFFFFFFFFFFFFFFFFFFFFFFFFF AND DUP2 MSTORE PUSH1 0x20 ADD SWAP1 DUP2 MSTORE PUSH1 0x20 ADD PUSH0 KECCAK256 PUSH0 SWAP1 SLOAD SWAP1 PUSH2 0x100 EXP SWAP1 DIV PUSH1 0xFF AND ISZERO ISZERO EQ PUSH2 0x731 JUMPI PUSH1 0x40 MLOAD PUSH32 0x8C379A000000000000000000000000000000000000000000000000000000000 DUP2 MSTORE PUSH1 0x4 ADD PUSH2 0x728 SWAP1 PUSH2 0x3070 JUMP JUMPDEST PUSH1 0x40 MLOAD DUP1 SWAP2 SUB SWAP1 REVERT JUMPDEST PUSH0 PUSH1 0x1 PUSH0 DUP4 PUSH20 0xFFFFFFFFFFFFFFFFFFFFFFFFFFFFFFFFFFFFFFFF AND PUSH20 0xFFFFFFFFFFFFFFFFFFFFFFFFFFFFFFFFFFFFFFFF AND DUP2 MSTORE PUSH1 0x20 ADD SWAP1 DUP2 MSTORE PUSH1 0x20 ADD PUSH0 KECCAK256 PUSH1 0x4 ADD SLOAD GT PUSH2 0x7B3 JUMPI PUSH1 0x40 MLOAD PUSH32 0x8C379A000000000000000000000000000000000000000000000000000000000 DUP2 MSTORE PUSH1 0x4 ADD PUSH2 0x7AA SWAP1 PUSH2 0x30D8 JUMP JUMPDEST PUSH1 0x40 MLOAD DUP1 SWAP2 SUB SWAP1 REVERT JUMPDEST PUSH1 0x1 PUSH0 DUP3 PUSH20 0xFFFFFFFFFFFFFFFFFFFFFFFFFFFFFFFFFFFFFFFF AND PUSH20 0xFFFFFFFFFFFFFFFFFFFFFFFFFFFFFFFFFFFFFFFF AND DUP2 MSTORE PUSH1 0x20 ADD SWAP1 DUP2 MSTORE PUSH1 0x20 ADD PUSH0 KECCAK256 PUSH0 DUP1 DUP3 ADD PUSH0 PUSH2 0x7FF SWAP2 SWAP1 PUSH2 0x24B8 JUMP JUMPDEST PUSH1 0x1 DUP3 ADD PUSH0 PUSH2 0x80E SWAP2 SWAP1 PUSH2 0x24B8 JUMP JUMPDEST PUSH1 0x2 DUP3 ADD PUSH0 PUSH2 0x81D SWAP2 SWAP1 PUSH2 0x24B8 JUMP JUMPDEST PUSH1 0x3 DUP3 ADD PUSH0 PUSH2 0x82C SWAP2 SWAP1 PUSH2 0x24B8 JUMP JUMPDEST PUSH1 0x4 DUP3 ADD PUSH0 SWAP1 SSTORE POP POP DUP1 PUSH20 0xFFFFFFFFFFFFFFFFFFFFFFFFFFFFFFFFFFFFFFFF AND PUSH32 0xAE4BDF5ADABAFCA6721399496D24FE50FB6564EFFCB386FBAE92DE33540763BC PUSH1 0x40 MLOAD PUSH1 0x40 MLOAD DUP1 SWAP2 SUB SWAP1 LOG2 POP JUMP JUMPDEST PUSH1 0x5 PUSH1 0x20 MSTORE DUP1 PUSH0 MSTORE PUSH1 0x40 PUSH0 KECCAK256 PUSH0 SWAP2 POP SLOAD SWAP1 PUSH2 0x100 EXP SWAP1 DIV PUSH1 0xFF AND DUP2 JUMP JUMPDEST PUSH2 0x8A1 DUP2 PUSH2 0x21F8 JUMP JUMPDEST PUSH2 0x8E0 JUMPI PUSH1 0x40 MLOAD PUSH32 0x8C379A000000000000000000000000000000000000000000000000000000000 DUP2 MSTORE PUSH1 0x4 ADD PUSH2 0x8D7 SWAP1 PUSH2 0x3140 JUMP JUMPDEST PUSH1 0x40 MLOAD DUP1 SWAP2 SUB SWAP1 REVERT JUMPDEST PUSH0 PUSH1 0x3 PUSH0 DUP4 DUP2 MSTORE PUSH1 0x20 ADD SWAP1 DUP2 MSTORE PUSH1 0x20 ADD PUSH0 KECCAK256 PUSH0 SWAP1 SLOAD SWAP1 PUSH2 0x100 EXP SWAP1 DIV PUSH20 0xFFFFFFFFFFFFFFFFFFFFFFFFFFFFFFFFFFFFFFFF AND SWAP1 POP PUSH0 PUSH20 0xFFFFFFFFFFFFFFFFFFFFFFFFFFFFFFFFFFFFFFFF AND DUP2 PUSH20 0xFFFFFFFFFFFFFFFFFFFFFFFFFFFFFFFFFFFFFFFF AND SUB PUSH2 0x982 JUMPI PUSH1 0x40 MLOAD PUSH32 0x8C379A000000000000000000000000000000000000000000000000000000000 DUP2 MSTORE PUSH1 0x4 ADD PUSH2 0x979 SWAP1 PUSH2 0x31A8 JUMP JUMPDEST PUSH1 0x40 MLOAD DUP1 SWAP2 SUB SWAP1 REVERT JUMPDEST PUSH0 PUSH1 0x2 PUSH0 DUP4 PUSH20 0xFFFFFFFFFFFFFFFFFFFFFFFFFFFFFFFFFFFFFFFF AND PUSH20 0xFFFFFFFFFFFFFFFFFFFFFFFFFFFFFFFFFFFFFFFF AND DUP2 MSTORE PUSH1 0x20 ADD SWAP1 DUP2 MSTORE PUSH1 0x20 ADD PUSH0 KECCAK256 PUSH0 ADD DUP1 SLOAD PUSH2 0x9CD SWAP1 PUSH2 0x2F82 JUMP JUMPDEST DUP1 PUSH1 0x1F ADD PUSH1 0x20 DUP1 SWAP2 DIV MUL PUSH1 0x20 ADD PUSH1 0x40 MLOAD SWAP1 DUP2 ADD PUSH1 0x40 MSTORE DUP1 SWAP3 SWAP2 SWAP1 DUP2 DUP2 MSTORE PUSH1 0x20 ADD DUP3 DUP1 SLOAD PUSH2 0x9F9 SWAP1 PUSH2 0x2F82 JUMP JUMPDEST DUP1 ISZERO PUSH2 0xA44 JUMPI DUP1 PUSH1 0x1F LT PUSH2 0xA1B JUMPI PUSH2 0x100 DUP1 DUP4 SLOAD DIV MUL DUP4 MSTORE SWAP2 PUSH1 0x20 ADD SWAP2 PUSH2 0xA44 JUMP JUMPDEST DUP3 ADD SWAP2 SWAP1 PUSH0 MSTORE PUSH1 0x20 PUSH0 KECCAK256 SWAP1 JUMPDEST DUP2 SLOAD DUP2 MSTORE SWAP1 PUSH1 0x1 ADD SWAP1 PUSH1 0x20 ADD DUP1 DUP4 GT PUSH2 0xA27 JUMPI DUP3 SWAP1 SUB PUSH1 0x1F AND DUP3 ADD SWAP2 JUMPDEST POP POP POP POP POP SWAP1 POP PUSH0 PUSH1 0x4 DUP3 PUSH1 0x40 MLOAD PUSH2 0xA5C SWAP2 SWAP1 PUSH2 0x2F12 JUMP JUMPDEST SWAP1 DUP2 MSTORE PUSH1 0x20 ADD PUSH1 0x40 MLOAD DUP1 SWAP2 SUB SWAP1 KECCAK256 SWAP1 POP PUSH0 JUMPDEST DUP2 DUP1 SLOAD SWAP1 POP DUP2 LT ISZERO PUSH2 0xB1D JUMPI DUP5 DUP3 DUP3 DUP2 SLOAD DUP2 LT PUSH2 0xA8E JUMPI PUSH2 0xA8D PUSH2 0x2F28 JUMP JUMPDEST JUMPDEST SWAP1 PUSH0 MSTORE PUSH1 0x20 PUSH0 KECCAK256 ADD SLOAD SUB PUSH2 0xB10 JUMPI DUP2 PUSH1 0x1 DUP4 DUP1 SLOAD SWAP1 POP PUSH2 0xAAE SWAP2 SWAP1 PUSH2 0x31C6 JUMP JUMPDEST DUP2 SLOAD DUP2 LT PUSH2 0xABF JUMPI PUSH2 0xABE PUSH2 0x2F28 JUMP JUMPDEST JUMPDEST SWAP1 PUSH0 MSTORE PUSH1 0x20 PUSH0 KECCAK256 ADD SLOAD DUP3 DUP3 DUP2 SLOAD DUP2 LT PUSH2 0xADB JUMPI PUSH2 0xADA PUSH2 0x2F28 JUMP JUMPDEST JUMPDEST SWAP1 PUSH0 MSTORE PUSH1 0x20 PUSH0 KECCAK256 ADD DUP2 SWAP1 SSTORE POP DUP2 DUP1 SLOAD DUP1 PUSH2 0xAF8 JUMPI PUSH2 0xAF7 PUSH2 0x31F9 JUMP JUMPDEST JUMPDEST PUSH1 0x1 SWAP1 SUB DUP2 DUP2 SWAP1 PUSH0 MSTORE PUSH1 0x20 PUSH0 KECCAK256 ADD PUSH0 SWAP1 SSTORE SWAP1 SSTORE PUSH2 0xB1D JUMP JUMPDEST DUP1 DUP1 PUSH1 0x1 ADD SWAP2 POP POP PUSH2 0xA6E JUMP JUMPDEST POP PUSH1 0x2 PUSH0 DUP5 PUSH20 0xFFFFFFFFFFFFFFFFFFFFFFFFFFFFFFFFFFFFFFFF AND PUSH20 0xFFFFFFFFFFFFFFFFFFFFFFFFFFFFFFFFFFFFFFFF AND DUP2 MSTORE PUSH1 0x20 ADD SWAP1 DUP2 MSTORE PUSH1 0x20 ADD PUSH0 KECCAK256 PUSH0 DUP1 DUP3 ADD PUSH0 PUSH2 0xB6A SWAP2 SWAP1 PUSH2 0x24B8 JUMP JUMPDEST PUSH1 0x1 DUP3 ADD PUSH0 PUSH2 0xB79 SWAP2 SWAP1 PUSH2 0x24B8 JUMP JUMPDEST PUSH1 0x2 DUP3 ADD PUSH0 PUSH2 0xB88 SWAP2 SWAP1 PUSH2 0x24B8 JUMP JUMPDEST PUSH1 0x3 DUP3 ADD PUSH0 PUSH2 0xB97 SWAP2 SWAP1 PUSH2 0x24B8 JUMP JUMPDEST PUSH1 0x4 DUP3 ADD PUSH0 PUSH2 0xBA6 SWAP2 SWAP1 PUSH2 0x24B8 JUMP JUMPDEST PUSH1 0x5 DUP3 ADD PUSH0 SWAP1 SSTORE PUSH1 0x6 DUP3 ADD PUSH0 SWAP1 SSTORE POP POP PUSH1 0x3 PUSH0 DUP6 DUP2 MSTORE PUSH1 0x20 ADD SWAP1 DUP2 MSTORE PUSH1 0x20 ADD PUSH0 KECCAK256 PUSH0 PUSH2 0x100 EXP DUP2 SLOAD SWAP1 PUSH20 0xFFFFFFFFFFFFFFFFFFFFFFFFFFFFFFFFFFFFFFFF MUL NOT AND SWAP1 SSTORE DUP3 PUSH20 0xFFFFFFFFFFFFFFFFFFFFFFFFFFFFFFFFFFFFFFFF AND PUSH32 0xE9F653AB6DBFCCFBF599E332A5CF4AA24C7D943D1FA32B4607A0ECC6063B3C04 DUP6 PUSH1 0x40 MLOAD PUSH2 0xC2F SWAP2 SWAP1 PUSH2 0x2AC1 JUMP JUMPDEST PUSH1 0x40 MLOAD DUP1 SWAP2 SUB SWAP1 LOG2 POP POP POP POP JUMP JUMPDEST PUSH1 0x1 ISZERO ISZERO PUSH1 0x5 PUSH0 CALLER PUSH20 0xFFFFFFFFFFFFFFFFFFFFFFFFFFFFFFFFFFFFFFFF AND PUSH20 0xFFFFFFFFFFFFFFFFFFFFFFFFFFFFFFFFFFFFFFFF AND DUP2 MSTORE PUSH1 0x20 ADD SWAP1 DUP2 MSTORE PUSH1 0x20 ADD PUSH0 KECCAK256 PUSH0 SWAP1 SLOAD SWAP1 PUSH2 0x100 EXP SWAP1 DIV PUSH1 0xFF AND ISZERO ISZERO EQ PUSH2 0xCCD JUMPI PUSH1 0x40 MLOAD PUSH32 0x8C379A000000000000000000000000000000000000000000000000000000000 DUP2 MSTORE PUSH1 0x4 ADD PUSH2 0xCC4 SWAP1 PUSH2 0x3070 JUMP JUMPDEST PUSH1 0x40 MLOAD DUP1 SWAP2 SUB SWAP1 REVERT JUMPDEST PUSH0 CALLER SWAP1 POP PUSH2 0x384 PUSH1 0x2 PUSH0 DUP4 PUSH20 0xFFFFFFFFFFFFFFFFFFFFFFFFFFFFFFFFFFFFFFFF AND PUSH20 0xFFFFFFFFFFFFFFFFFFFFFFFFFFFFFFFFFFFFFFFF AND DUP2 MSTORE PUSH1 0x20 ADD SWAP1 DUP2 MSTORE PUSH1 0x20 ADD PUSH0 KECCAK256 PUSH1 0x6 ADD SLOAD TIMESTAMP PUSH2 0xD20 SWAP2 SWAP1 PUSH2 0x31C6 JUMP JUMPDEST GT ISZERO PUSH2 0xDBF JUMPI PUSH1 0x2 PUSH0 DUP3 PUSH20 0xFFFFFFFFFFFFFFFFFFFFFFFFFFFFFFFFFFFFFFFF AND PUSH20 0xFFFFFFFFFFFFFFFFFFFFFFFFFFFFFFFFFFFFFFFF AND DUP2 MSTORE PUSH1 0x20 ADD SWAP1 DUP2 MSTORE PUSH1 0x20 ADD PUSH0 KECCAK256 PUSH0 DUP1 DUP3 ADD PUSH0 PUSH2 0xD72 SWAP2 SWAP1 PUSH2 0x24B8 JUMP JUMPDEST PUSH1 0x1 DUP3 ADD PUSH0 PUSH2 0xD81 SWAP2 SWAP1 PUSH2 0x24B8 JUMP JUMPDEST PUSH1 0x2 DUP3 ADD PUSH0 PUSH2 0xD90 SWAP2 SWAP1 PUSH2 0x24B8 JUMP JUMPDEST PUSH1 0x3 DUP3 ADD PUSH0 PUSH2 0xD9F SWAP2 SWAP1 PUSH2 0x24B8 JUMP JUMPDEST PUSH1 0x4 DUP3 ADD PUSH0 PUSH2 0xDAE SWAP2 SWAP1 PUSH2 0x24B8 JUMP JUMPDEST PUSH1 0x5 DUP3 ADD PUSH0 SWAP1 SSTORE PUSH1 0x6 DUP3 ADD PUSH0 SWAP1 SSTORE POP POP JUMPDEST POP JUMP JUMPDEST PUSH0 DUP1 PUSH2 0xDCC PUSH2 0x2289 JUMP JUMPDEST SWAP1 POP PUSH1 0x40 MLOAD DUP1 PUSH1 0xE0 ADD PUSH1 0x40 MSTORE DUP1 DUP9 DUP2 MSTORE PUSH1 0x20 ADD DUP8 DUP2 MSTORE PUSH1 0x20 ADD DUP7 DUP2 MSTORE PUSH1 0x20 ADD DUP6 DUP2 MSTORE PUSH1 0x20 ADD DUP5 DUP2 MSTORE PUSH1 0x20 ADD DUP3 DUP2 MSTORE PUSH1 0x20 ADD TIMESTAMP DUP2 MSTORE POP PUSH1 0x2 PUSH0 CALLER PUSH20 0xFFFFFFFFFFFFFFFFFFFFFFFFFFFFFFFFFFFFFFFF AND PUSH20 0xFFFFFFFFFFFFFFFFFFFFFFFFFFFFFFFFFFFFFFFF AND DUP2 MSTORE PUSH1 0x20 ADD SWAP1 DUP2 MSTORE PUSH1 0x20 ADD PUSH0 KECCAK256 PUSH0 DUP3 ADD MLOAD DUP2 PUSH0 ADD SWAP1 DUP2 PUSH2 0xE51 SWAP2 SWAP1 PUSH2 0x33C3 JUMP JUMPDEST POP PUSH1 0x20 DUP3 ADD MLOAD DUP2 PUSH1 0x1 ADD SWAP1 DUP2 PUSH2 0xE67 SWAP2 SWAP1 PUSH2 0x33C3 JUMP JUMPDEST POP PUSH1 0x40 DUP3 ADD MLOAD DUP2 PUSH1 0x2 ADD SWAP1 DUP2 PUSH2 0xE7D SWAP2 SWAP1 PUSH2 0x33C3 JUMP JUMPDEST POP PUSH1 0x60 DUP3 ADD MLOAD DUP2 PUSH1 0x3 ADD SWAP1 DUP2 PUSH2 0xE93 SWAP2 SWAP1 PUSH2 0x33C3 JUMP JUMPDEST POP PUSH1 0x80 DUP3 ADD MLOAD DUP2 PUSH1 0x4 ADD SWAP1 DUP2 PUSH2 0xEA9 SWAP2 SWAP1 PUSH2 0x33C3 JUMP JUMPDEST POP PUSH1 0xA0 DUP3 ADD MLOAD DUP2 PUSH1 0x5 ADD SSTORE PUSH1 0xC0 DUP3 ADD MLOAD DUP2 PUSH1 0x6 ADD SSTORE SWAP1 POP POP CALLER PUSH1 0x3 PUSH0 DUP4 DUP2 MSTORE PUSH1 0x20 ADD SWAP1 DUP2 MSTORE PUSH1 0x20 ADD PUSH0 KECCAK256 PUSH0 PUSH2 0x100 EXP DUP2 SLOAD DUP2 PUSH20 0xFFFFFFFFFFFFFFFFFFFFFFFFFFFFFFFFFFFFFFFF MUL NOT AND SWAP1 DUP4 PUSH20 0xFFFFFFFFFFFFFFFFFFFFFFFFFFFFFFFFFFFFFFFF AND MUL OR SWAP1 SSTORE POP PUSH1 0x4 DUP8 PUSH1 0x40 MLOAD PUSH2 0xF20 SWAP2 SWAP1 PUSH2 0x2F12 JUMP JUMPDEST SWAP1 DUP2 MSTORE PUSH1 0x20 ADD PUSH1 0x40 MLOAD DUP1 SWAP2 SUB SWAP1 KECCAK256 DUP2 SWAP1 DUP1 PUSH1 0x1 DUP2 SLOAD ADD DUP1 DUP3 SSTORE DUP1 SWAP2 POP POP PUSH1 0x1 SWAP1 SUB SWAP1 PUSH0 MSTORE PUSH1 0x20 PUSH0 KECCAK256 ADD PUSH0 SWAP1 SWAP2 SWAP1 SWAP2 SWAP1 SWAP2 POP SSTORE CALLER PUSH20 0xFFFFFFFFFFFFFFFFFFFFFFFFFFFFFFFFFFFFFFFF AND PUSH32 0xEC66EAC7CC2B6555E1742961A9EE17E918D7FF81B635FAC9CC6833245D279D6 DUP3 PUSH1 0x40 MLOAD PUSH2 0xF98 SWAP2 SWAP1 PUSH2 0x2AC1 JUMP JUMPDEST PUSH1 0x40 MLOAD DUP1 SWAP2 SUB SWAP1 LOG2 DUP1 SWAP2 POP POP SWAP6 SWAP5 POP POP POP POP POP JUMP JUMPDEST PUSH1 0x1 ISZERO ISZERO PUSH1 0x5 PUSH0 CALLER PUSH20 0xFFFFFFFFFFFFFFFFFFFFFFFFFFFFFFFFFFFFFFFF AND PUSH20 0xFFFFFFFFFFFFFFFFFFFFFFFFFFFFFFFFFFFFFFFF AND DUP2 MSTORE PUSH1 0x20 ADD SWAP1 DUP2 MSTORE PUSH1 0x20 ADD PUSH0 KECCAK256 PUSH0 SWAP1 SLOAD SWAP1 PUSH2 0x100 EXP SWAP1 DIV PUSH1 0xFF AND ISZERO ISZERO EQ PUSH2 0x103D JUMPI PUSH1 0x40 MLOAD PUSH32 0x8C379A000000000000000000000000000000000000000000000000000000000 DUP2 MSTORE PUSH1 0x4 ADD PUSH2 0x1034 SWAP1 PUSH2 0x3070 JUMP JUMPDEST PUSH1 0x40 MLOAD DUP1 SWAP2 SUB SWAP1 REVERT JUMPDEST PUSH1 0x1 PUSH1 0x5 PUSH0 DUP4 PUSH20 0xFFFFFFFFFFFFFFFFFFFFFFFFFFFFFFFFFFFFFFFF AND PUSH20 0xFFFFFFFFFFFFFFFFFFFFFFFFFFFFFFFFFFFFFFFF AND DUP2 MSTORE PUSH1 0x20 ADD SWAP1 DUP2 MSTORE PUSH1 0x20 ADD PUSH0 KECCAK256 PUSH0 PUSH2 0x100 EXP DUP2 SLOAD DUP2 PUSH1 0xFF MUL NOT AND SWAP1 DUP4 ISZERO ISZERO MUL OR SWAP1 SSTORE POP POP JUMP JUMPDEST PUSH0 DUP1 SLOAD SWAP1 PUSH2 0x100 EXP SWAP1 DIV PUSH20 0xFFFFFFFFFFFFFFFFFFFFFFFFFFFFFFFFFFFFFFFF AND DUP2 JUMP JUMPDEST PUSH2 0x10C0 PUSH2 0x24F5 JUMP JUMPDEST PUSH2 0x10C8 PUSH2 0x2523 JUMP JUMPDEST PUSH2 0x10D1 DUP4 PUSH2 0x21F8 JUMP JUMPDEST PUSH2 0x1110 JUMPI PUSH1 0x40 MLOAD PUSH32 0x8C379A000000000000000000000000000000000000000000000000000000000 DUP2 MSTORE PUSH1 0x4 ADD PUSH2 0x1107 SWAP1 PUSH2 0x3140 JUMP JUMPDEST PUSH1 0x40 MLOAD DUP1 SWAP2 SUB SWAP1 REVERT JUMPDEST PUSH0 PUSH1 0x3 PUSH0 DUP6 DUP2 MSTORE PUSH1 0x20 ADD SWAP1 DUP2 MSTORE PUSH1 0x20 ADD PUSH0 KECCAK256 PUSH0 SWAP1 SLOAD SWAP1 PUSH2 0x100 EXP SWAP1 DIV PUSH20 0xFFFFFFFFFFFFFFFFFFFFFFFFFFFFFFFFFFFFFFFF AND SWAP1 POP PUSH0 PUSH20 0xFFFFFFFFFFFFFFFFFFFFFFFFFFFFFFFFFFFFFFFF AND DUP2 PUSH20 0xFFFFFFFFFFFFFFFFFFFFFFFFFFFFFFFFFFFFFFFF AND SUB PUSH2 0x11B2 JUMPI PUSH1 0x40 MLOAD PUSH32 0x8C379A000000000000000000000000000000000000000000000000000000000 DUP2 MSTORE PUSH1 0x4 ADD PUSH2 0x11A9 SWAP1 PUSH2 0x31A8 JUMP JUMPDEST PUSH1 0x40 MLOAD DUP1 SWAP2 SUB SWAP1 REVERT JUMPDEST PUSH1 0x1 PUSH0 DUP3 PUSH20 0xFFFFFFFFFFFFFFFFFFFFFFFFFFFFFFFFFFFFFFFF AND PUSH20 0xFFFFFFFFFFFFFFFFFFFFFFFFFFFFFFFFFFFFFFFF AND DUP2 MSTORE PUSH1 0x20 ADD SWAP1 DUP2 MSTORE PUSH1 0x20 ADD PUSH0 KECCAK256 PUSH1 0x2 PUSH0 DUP4 PUSH20 0xFFFFFFFFFFFFFFFFFFFFFFFFFFFFFFFFFFFFFFFF AND PUSH20 0xFFFFFFFFFFFFFFFFFFFFFFFFFFFFFFFFFFFFFFFF AND DUP2 MSTORE PUSH1 0x20 ADD SWAP1 DUP2 MSTORE PUSH1 0x20 ADD PUSH0 KECCAK256 DUP2 PUSH1 0x40 MLOAD DUP1 PUSH1 0xA0 ADD PUSH1 0x40 MSTORE SWAP1 DUP2 PUSH0 DUP3 ADD DUP1 SLOAD PUSH2 0x1247 SWAP1 PUSH2 0x2F82 JUMP JUMPDEST DUP1 PUSH1 0x1F ADD PUSH1 0x20 DUP1 SWAP2 DIV MUL PUSH1 0x20 ADD PUSH1 0x40 MLOAD SWAP1 DUP2 ADD PUSH1 0x40 MSTORE DUP1 SWAP3 SWAP2 SWAP1 DUP2 DUP2 MSTORE PUSH1 0x20 ADD DUP3 DUP1 SLOAD PUSH2 0x1273 SWAP1 PUSH2 0x2F82 JUMP JUMPDEST DUP1 ISZERO PUSH2 0x12BE JUMPI DUP1 PUSH1 0x1F LT PUSH2 0x1295 JUMPI PUSH2 0x100 DUP1 DUP4 SLOAD DIV MUL DUP4 MSTORE SWAP2 PUSH1 0x20 ADD SWAP2 PUSH2 0x12BE JUMP JUMPDEST DUP3 ADD SWAP2 SWAP1 PUSH0 MSTORE PUSH1 0x20 PUSH0 KECCAK256 SWAP1 JUMPDEST DUP2 SLOAD DUP2 MSTORE SWAP1 PUSH1 0x1 ADD SWAP1 PUSH1 0x20 ADD DUP1 DUP4 GT PUSH2 0x12A1 JUMPI DUP3 SWAP1 SUB PUSH1 0x1F AND DUP3 ADD SWAP2 JUMPDEST POP POP POP POP POP DUP2 MSTORE PUSH1 0x20 ADD PUSH1 0x1 DUP3 ADD DUP1 SLOAD PUSH2 0x12D7 SWAP1 PUSH2 0x2F82 JUMP JUMPDEST DUP1 PUSH1 0x1F ADD PUSH1 0x20 DUP1 SWAP2 DIV MUL PUSH1 0x20 ADD PUSH1 0x40 MLOAD SWAP1 DUP2 ADD PUSH1 0x40 MSTORE DUP1 SWAP3 SWAP2 SWAP1 DUP2 DUP2 MSTORE PUSH1 0x20 ADD DUP3 DUP1 SLOAD PUSH2 0x1303 SWAP1 PUSH2 0x2F82 JUMP JUMPDEST DUP1 ISZERO PUSH2 0x134E JUMPI DUP1 PUSH1 0x1F LT PUSH2 0x1325 JUMPI PUSH2 0x100 DUP1 DUP4 SLOAD DIV MUL DUP4 MSTORE SWAP2 PUSH1 0x20 ADD SWAP2 PUSH2 0x134E JUMP JUMPDEST DUP3 ADD SWAP2 SWAP1 PUSH0 MSTORE PUSH1 0x20 PUSH0 KECCAK256 SWAP1 JUMPDEST DUP2 SLOAD DUP2 MSTORE SWAP1 PUSH1 0x1 ADD SWAP1 PUSH1 0x20 ADD DUP1 DUP4 GT PUSH2 0x1331 JUMPI DUP3 SWAP1 SUB PUSH1 0x1F AND DUP3 ADD SWAP2 JUMPDEST POP POP POP POP POP DUP2 MSTORE PUSH1 0x20 ADD PUSH1 0x2 DUP3 ADD DUP1 SLOAD PUSH2 0x1367 SWAP1 PUSH2 0x2F82 JUMP JUMPDEST DUP1 PUSH1 0x1F ADD PUSH1 0x20 DUP1 SWAP2 DIV MUL PUSH1 0x20 ADD PUSH1 0x40 MLOAD SWAP1 DUP2 ADD PUSH1 0x40 MSTORE DUP1 SWAP3 SWAP2 SWAP1 DUP2 DUP2 MSTORE PUSH1 0x20 ADD DUP3 DUP1 SLOAD PUSH2 0x1393 SWAP1 PUSH2 0x2F82 JUMP JUMPDEST DUP1 ISZERO PUSH2 0x13DE JUMPI DUP1 PUSH1 0x1F LT PUSH2 0x13B5 JUMPI PUSH2 0x100 DUP1 DUP4 SLOAD DIV MUL DUP4 MSTORE SWAP2 PUSH1 0x20 ADD SWAP2 PUSH2 0x13DE JUMP JUMPDEST DUP3 ADD SWAP2 SWAP1 PUSH0 MSTORE PUSH1 0x20 PUSH0 KECCAK256 SWAP1 JUMPDEST DUP2 SLOAD DUP2 MSTORE SWAP1 PUSH1 0x1 ADD SWAP1 PUSH1 0x20 ADD DUP1 DUP4 GT PUSH2 0x13C1 JUMPI DUP3 SWAP1 SUB PUSH1 0x1F AND DUP3 ADD SWAP2 JUMPDEST POP POP POP POP POP DUP2 MSTORE PUSH1 0x20 ADD PUSH1 0x3 DUP3 ADD DUP1 SLOAD PUSH2 0x13F7 SWAP1 PUSH2 0x2F82 JUMP JUMPDEST DUP1 PUSH1 0x1F ADD PUSH1 0x20 DUP1 SWAP2 DIV MUL PUSH1 0x20 ADD PUSH1 0x40 MLOAD SWAP1 DUP2 ADD PUSH1 0x40 MSTORE DUP1 SWAP3 SWAP2 SWAP1 DUP2 DUP2 MSTORE PUSH1 0x20 ADD DUP3 DUP1 SLOAD PUSH2 0x1423 SWAP1 PUSH2 0x2F82 JUMP JUMPDEST DUP1 ISZERO PUSH2 0x146E JUMPI DUP1 PUSH1 0x1F LT PUSH2 0x1445 JUMPI PUSH2 0x100 DUP1 DUP4 SLOAD DIV MUL DUP4 MSTORE SWAP2 PUSH1 0x20 ADD SWAP2 PUSH2 0x146E JUMP JUMPDEST DUP3 ADD SWAP2 SWAP1 PUSH0 MSTORE PUSH1 0x20 PUSH0 KECCAK256 SWAP1 JUMPDEST DUP2 SLOAD DUP2 MSTORE SWAP1 PUSH1 0x1 ADD SWAP1 PUSH1 0x20 ADD DUP1 DUP4 GT PUSH2 0x1451 JUMPI DUP3 SWAP1 SUB PUSH1 0x1F AND DUP3 ADD SWAP2 JUMPDEST POP POP POP POP POP DUP2 MSTORE PUSH1 0x20 ADD PUSH1 0x4 DUP3 ADD SLOAD DUP2 MSTORE POP POP SWAP2 POP DUP1 PUSH1 0x40 MLOAD DUP1 PUSH1 0xE0 ADD PUSH1 0x40 MSTORE SWAP1 DUP2 PUSH0 DUP3 ADD DUP1 SLOAD PUSH2 0x149E SWAP1 PUSH2 0x2F82 JUMP JUMPDEST DUP1 PUSH1 0x1F ADD PUSH1 0x20 DUP1 SWAP2 DIV MUL PUSH1 0x20 ADD PUSH1 0x40 MLOAD SWAP1 DUP2 ADD PUSH1 0x40 MSTORE DUP1 SWAP3 SWAP2 SWAP1 DUP2 DUP2 MSTORE PUSH1 0x20 ADD DUP3 DUP1 SLOAD PUSH2 0x14CA SWAP1 PUSH2 0x2F82 JUMP JUMPDEST DUP1 ISZERO PUSH2 0x1515 JUMPI DUP1 PUSH1 0x1F LT PUSH2 0x14EC JUMPI PUSH2 0x100 DUP1 DUP4 SLOAD DIV MUL DUP4 MSTORE SWAP2 PUSH1 0x20 ADD SWAP2 PUSH2 0x1515 JUMP JUMPDEST DUP3 ADD SWAP2 SWAP1 PUSH0 MSTORE PUSH1 0x20 PUSH0 KECCAK256 SWAP1 JUMPDEST DUP2 SLOAD DUP2 MSTORE SWAP1 PUSH1 0x1 ADD SWAP1 PUSH1 0x20 ADD DUP1 DUP4 GT PUSH2 0x14F8 JUMPI DUP3 SWAP1 SUB PUSH1 0x1F AND DUP3 ADD SWAP2 JUMPDEST POP POP POP POP POP DUP2 MSTORE PUSH1 0x20 ADD PUSH1 0x1 DUP3 ADD DUP1 SLOAD PUSH2 0x152E SWAP1 PUSH2 0x2F82 JUMP JUMPDEST DUP1 PUSH1 0x1F ADD PUSH1 0x20 DUP1 SWAP2 DIV MUL PUSH1 0x20 ADD PUSH1 0x40 MLOAD SWAP1 DUP2 ADD PUSH1 0x40 MSTORE DUP1 SWAP3 SWAP2 SWAP1 DUP2 DUP2 MSTORE PUSH1 0x20 ADD DUP3 DUP1 SLOAD PUSH2 0x155A SWAP1 PUSH2 0x2F82 JUMP JUMPDEST DUP1 ISZERO PUSH2 0x15A5 JUMPI DUP1 PUSH1 0x1F LT PUSH2 0x157C JUMPI PUSH2 0x100 DUP1 DUP4 SLOAD DIV MUL DUP4 MSTORE SWAP2 PUSH1 0x20 ADD SWAP2 PUSH2 0x15A5 JUMP JUMPDEST DUP3 ADD SWAP2 SWAP1 PUSH0 MSTORE PUSH1 0x20 PUSH0 KECCAK256 SWAP1 JUMPDEST DUP2 SLOAD DUP2 MSTORE SWAP1 PUSH1 0x1 ADD SWAP1 PUSH1 0x20 ADD DUP1 DUP4 GT PUSH2 0x1588 JUMPI DUP3 SWAP1 SUB PUSH1 0x1F AND DUP3 ADD SWAP2 JUMPDEST POP POP POP POP POP DUP2 MSTORE PUSH1 0x20 ADD PUSH1 0x2 DUP3 ADD DUP1 SLOAD PUSH2 0x15BE SWAP1 PUSH2 0x2F82 JUMP JUMPDEST DUP1 PUSH1 0x1F ADD PUSH1 0x20 DUP1 SWAP2 DIV MUL PUSH1 0x20 ADD PUSH1 0x40 MLOAD SWAP1 DUP2 ADD PUSH1 0x40 MSTORE DUP1 SWAP3 SWAP2 SWAP1 DUP2 DUP2 MSTORE PUSH1 0x20 ADD DUP3 DUP1 SLOAD PUSH2 0x15EA SWAP1 PUSH2 0x2F82 JUMP JUMPDEST DUP1 ISZERO PUSH2 0x1635 JUMPI DUP1 PUSH1 0x1F LT PUSH2 0x160C JUMPI PUSH2 0x100 DUP1 DUP4 SLOAD DIV MUL DUP4 MSTORE SWAP2 PUSH1 0x20 ADD SWAP2 PUSH2 0x1635 JUMP JUMPDEST DUP3 ADD SWAP2 SWAP1 PUSH0 MSTORE PUSH1 0x20 PUSH0 KECCAK256 SWAP1 JUMPDEST DUP2 SLOAD DUP2 MSTORE SWAP1 PUSH1 0x1 ADD SWAP1 PUSH1 0x20 ADD DUP1 DUP4 GT PUSH2 0x1618 JUMPI DUP3 SWAP1 SUB PUSH1 0x1F AND DUP3 ADD SWAP2 JUMPDEST POP POP POP POP POP DUP2 MSTORE PUSH1 0x20 ADD PUSH1 0x3 DUP3 ADD DUP1 SLOAD PUSH2 0x164E SWAP1 PUSH2 0x2F82 JUMP JUMPDEST DUP1 PUSH1 0x1F ADD PUSH1 0x20 DUP1 SWAP2 DIV MUL PUSH1 0x20 ADD PUSH1 0x40 MLOAD SWAP1 DUP2 ADD PUSH1 0x40 MSTORE DUP1 SWAP3 SWAP2 SWAP1 DUP2 DUP2 MSTORE PUSH1 0x20 ADD DUP3 DUP1 SLOAD PUSH2 0x167A SWAP1 PUSH2 0x2F82 JUMP JUMPDEST DUP1 ISZERO PUSH2 0x16C5 JUMPI DUP1 PUSH1 0x1F LT PUSH2 0x169C JUMPI PUSH2 0x100 DUP1 DUP4 SLOAD DIV MUL DUP4 MSTORE SWAP2 PUSH1 0x20 ADD SWAP2 PUSH2 0x16C5 JUMP JUMPDEST DUP3 ADD SWAP2 SWAP1 PUSH0 MSTORE PUSH1 0x20 PUSH0 KECCAK256 SWAP1 JUMPDEST DUP2 SLOAD DUP2 MSTORE SWAP1 PUSH1 0x1 ADD SWAP1 PUSH1 0x20 ADD DUP1 DUP4 GT PUSH2 0x16A8 JUMPI DUP3 SWAP1 SUB PUSH1 0x1F AND DUP3 ADD SWAP2 JUMPDEST POP POP POP POP POP DUP2 MSTORE PUSH1 0x20 ADD PUSH1 0x4 DUP3 ADD DUP1 SLOAD PUSH2 0x16DE SWAP1 PUSH2 0x2F82 JUMP JUMPDEST DUP1 PUSH1 0x1F ADD PUSH1 0x20 DUP1 SWAP2 DIV MUL PUSH1 0x20 ADD PUSH1 0x40 MLOAD SWAP1 DUP2 ADD PUSH1 0x40 MSTORE DUP1 SWAP3 SWAP2 SWAP1 DUP2 DUP2 MSTORE PUSH1 0x20 ADD DUP3 DUP1 SLOAD PUSH2 0x170A SWAP1 PUSH2 0x2F82 JUMP JUMPDEST DUP1 ISZERO PUSH2 0x1755 JUMPI DUP1 PUSH1 0x1F LT PUSH2 0x172C JUMPI PUSH2 0x100 DUP1 DUP4 SLOAD DIV MUL DUP4 MSTORE SWAP2 PUSH1 0x20 ADD SWAP2 PUSH2 0x1755 JUMP JUMPDEST DUP3 ADD SWAP2 SWAP1 PUSH0 MSTORE PUSH1 0x20 PUSH0 KECCAK256 SWAP1 JUMPDEST DUP2 SLOAD DUP2 MSTORE SWAP1 PUSH1 0x1 ADD SWAP1 PUSH1 0x20 ADD DUP1 DUP4 GT PUSH2 0x1738 JUMPI DUP3 SWAP1 SUB PUSH1 0x1F AND DUP3 ADD SWAP2 JUMPDEST POP POP POP POP POP DUP2 MSTORE PUSH1 0x20 ADD PUSH1 0x5 DUP3 ADD SLOAD DUP2 MSTORE PUSH1 0x20 ADD PUSH1 0x6 DUP3 ADD SLOAD DUP2 MSTORE POP POP SWAP1 POP SWAP3 POP SWAP3 POP POP SWAP2 POP SWAP2 JUMP JUMPDEST PUSH1 0x1 ISZERO ISZERO PUSH1 0x5 PUSH0 CALLER PUSH20 0xFFFFFFFFFFFFFFFFFFFFFFFFFFFFFFFFFFFFFFFF AND PUSH20 0xFFFFFFFFFFFFFFFFFFFFFFFFFFFFFFFFFFFFFFFF AND DUP2 MSTORE PUSH1 0x20 ADD SWAP1 DUP2 MSTORE PUSH1 0x20 ADD PUSH0 KECCAK256 PUSH0 SWAP1 SLOAD SWAP1 PUSH2 0x100 EXP SWAP1 DIV PUSH1 0xFF AND ISZERO ISZERO EQ PUSH2 0x180E JUMPI PUSH1 0x40 MLOAD PUSH32 0x8C379A000000000000000000000000000000000000000000000000000000000 DUP2 MSTORE PUSH1 0x4 ADD PUSH2 0x1805 SWAP1 PUSH2 0x3070 JUMP JUMPDEST PUSH1 0x40 MLOAD DUP1 SWAP2 SUB SWAP1 REVERT JUMPDEST PUSH0 PUSH1 0x1 PUSH0 DUP8 PUSH20 0xFFFFFFFFFFFFFFFFFFFFFFFFFFFFFFFFFFFFFFFF AND PUSH20 0xFFFFFFFFFFFFFFFFFFFFFFFFFFFFFFFFFFFFFFFF AND DUP2 MSTORE PUSH1 0x20 ADD SWAP1 DUP2 MSTORE PUSH1 0x20 ADD PUSH0 KECCAK256 PUSH1 0x4 ADD SLOAD EQ PUSH2 0x1890 JUMPI PUSH1 0x40 MLOAD PUSH32 0x8C379A000000000000000000000000000000000000000000000000000000000 DUP2 MSTORE PUSH1 0x4 ADD PUSH2 0x1887 SWAP1 PUSH2 0x34DC JUMP JUMPDEST PUSH1 0x40 MLOAD DUP1 SWAP2 SUB SWAP1 REVERT JUMPDEST PUSH1 0x40 MLOAD DUP1 PUSH1 0xA0 ADD PUSH1 0x40 MSTORE DUP1 DUP6 DUP2 MSTORE PUSH1 0x20 ADD DUP5 DUP2 MSTORE PUSH1 0x20 ADD DUP4 DUP2 MSTORE PUSH1 0x20 ADD DUP3 DUP2 MSTORE PUSH1 0x20 ADD TIMESTAMP DUP2 MSTORE POP PUSH1 0x1 PUSH0 DUP8 PUSH20 0xFFFFFFFFFFFFFFFFFFFFFFFFFFFFFFFFFFFFFFFF AND PUSH20 0xFFFFFFFFFFFFFFFFFFFFFFFFFFFFFFFFFFFFFFFF AND DUP2 MSTORE PUSH1 0x20 ADD SWAP1 DUP2 MSTORE PUSH1 0x20 ADD PUSH0 KECCAK256 PUSH0 DUP3 ADD MLOAD DUP2 PUSH0 ADD SWAP1 DUP2 PUSH2 0x1907 SWAP2 SWAP1 PUSH2 0x33C3 JUMP JUMPDEST POP PUSH1 0x20 DUP3 ADD MLOAD DUP2 PUSH1 0x1 ADD SWAP1 DUP2 PUSH2 0x191D SWAP2 SWAP1 PUSH2 0x33C3 JUMP JUMPDEST POP PUSH1 0x40 DUP3 ADD MLOAD DUP2 PUSH1 0x2 ADD SWAP1 DUP2 PUSH2 0x1933 SWAP2 SWAP1 PUSH2 0x33C3 JUMP JUMPDEST POP PUSH1 0x60 DUP3 ADD MLOAD DUP2 PUSH1 0x3 ADD SWAP1 DUP2 PUSH2 0x1949 SWAP2 SWAP1 PUSH2 0x33C3 JUMP JUMPDEST POP PUSH1 0x80 DUP3 ADD MLOAD DUP2 PUSH1 0x4 ADD SSTORE SWAP1 POP POP CALLER PUSH20 0xFFFFFFFFFFFFFFFFFFFFFFFFFFFFFFFFFFFFFFFF AND PUSH32 0xEC31B5C87EA82F60C8BC1DD8262F275183D0D7BC8C37CDBBFD74130441818FBC DUP6 PUSH1 0x40 MLOAD PUSH2 0x199D SWAP2 SWAP1 PUSH2 0x34FA JUMP JUMPDEST PUSH1 0x40 MLOAD DUP1 SWAP2 SUB SWAP1 LOG2 POP POP POP POP POP JUMP JUMPDEST PUSH1 0x2 PUSH1 0x20 MSTORE DUP1 PUSH0 MSTORE PUSH1 0x40 PUSH0 KECCAK256 PUSH0 SWAP2 POP SWAP1 POP DUP1 PUSH0 ADD DUP1 SLOAD PUSH2 0x19CB SWAP1 PUSH2 0x2F82 JUMP JUMPDEST DUP1 PUSH1 0x1F ADD PUSH1 0x20 DUP1 SWAP2 DIV MUL PUSH1 0x20 ADD PUSH1 0x40 MLOAD SWAP1 DUP2 ADD PUSH1 0x40 MSTORE DUP1 SWAP3 SWAP2 SWAP1 DUP2 DUP2 MSTORE PUSH1 0x20 ADD DUP3 DUP1 SLOAD PUSH2 0x19F7 SWAP1 PUSH2 0x2F82 JUMP JUMPDEST DUP1 ISZERO PUSH2 0x1A42 JUMPI DUP1 PUSH1 0x1F LT PUSH2 0x1A19 JUMPI PUSH2 0x100 DUP1 DUP4 SLOAD DIV MUL DUP4 MSTORE SWAP2 PUSH1 0x20 ADD SWAP2 PUSH2 0x1A42 JUMP JUMPDEST DUP3 ADD SWAP2 SWAP1 PUSH0 MSTORE PUSH1 0x20 PUSH0 KECCAK256 SWAP1 JUMPDEST DUP2 SLOAD DUP2 MSTORE SWAP1 PUSH1 0x1 ADD SWAP1 PUSH1 0x20 ADD DUP1 DUP4 GT PUSH2 0x1A25 JUMPI DUP3 SWAP1 SUB PUSH1 0x1F AND DUP3 ADD SWAP2 JUMPDEST POP POP POP POP POP SWAP1 DUP1 PUSH1 0x1 ADD DUP1 SLOAD PUSH2 0x1A57 SWAP1 PUSH2 0x2F82 JUMP JUMPDEST DUP1 PUSH1 0x1F ADD PUSH1 0x20 DUP1 SWAP2 DIV MUL PUSH1 0x20 ADD PUSH1 0x40 MLOAD SWAP1 DUP2 ADD PUSH1 0x40 MSTORE DUP1 SWAP3 SWAP2 SWAP1 DUP2 DUP2 MSTORE PUSH1 0x20 ADD DUP3 DUP1 SLOAD PUSH2 0x1A83 SWAP1 PUSH2 0x2F82 JUMP JUMPDEST DUP1 ISZERO PUSH2 0x1ACE JUMPI DUP1 PUSH1 0x1F LT PUSH2 0x1AA5 JUMPI PUSH2 0x100 DUP1 DUP4 SLOAD DIV MUL DUP4 MSTORE SWAP2 PUSH1 0x20 ADD SWAP2 PUSH2 0x1ACE JUMP JUMPDEST DUP3 ADD SWAP2 SWAP1 PUSH0 MSTORE PUSH1 0x20 PUSH0 KECCAK256 SWAP1 JUMPDEST DUP2 SLOAD DUP2 MSTORE SWAP1 PUSH1 0x1 ADD SWAP1 PUSH1 0x20 ADD DUP1 DUP4 GT PUSH2 0x1AB1 JUMPI DUP3 SWAP1 SUB PUSH1 0x1F AND DUP3 ADD SWAP2 JUMPDEST POP POP POP POP POP SWAP1 DUP1 PUSH1 0x2 ADD DUP1 SLOAD PUSH2 0x1AE3 SWAP1 PUSH2 0x2F82 JUMP JUMPDEST DUP1 PUSH1 0x1F ADD PUSH1 0x20 DUP1 SWAP2 DIV MUL PUSH1 0x20 ADD PUSH1 0x40 MLOAD SWAP1 DUP2 ADD PUSH1 0x40 MSTORE DUP1 SWAP3 SWAP2 SWAP1 DUP2 DUP2 MSTORE PUSH1 0x20 ADD DUP3 DUP1 SLOAD PUSH2 0x1B0F SWAP1 PUSH2 0x2F82 JUMP JUMPDEST DUP1 ISZERO PUSH2 0x1B5A JUMPI DUP1 PUSH1 0x1F LT PUSH2 0x1B31 JUMPI PUSH2 0x100 DUP1 DUP4 SLOAD DIV MUL DUP4 MSTORE SWAP2 PUSH1 0x20 ADD SWAP2 PUSH2 0x1B5A JUMP JUMPDEST DUP3 ADD SWAP2 SWAP1 PUSH0 MSTORE PUSH1 0x20 PUSH0 KECCAK256 SWAP1 JUMPDEST DUP2 SLOAD DUP2 MSTORE SWAP1 PUSH1 0x1 ADD SWAP1 PUSH1 0x20 ADD DUP1 DUP4 GT PUSH2 0x1B3D JUMPI DUP3 SWAP1 SUB PUSH1 0x1F AND DUP3 ADD SWAP2 JUMPDEST POP POP POP POP POP SWAP1 DUP1 PUSH1 0x3 ADD DUP1 SLOAD PUSH2 0x1B6F SWAP1 PUSH2 0x2F82 JUMP JUMPDEST DUP1 PUSH1 0x1F ADD PUSH1 0x20 DUP1 SWAP2 DIV MUL PUSH1 0x20 ADD PUSH1 0x40 MLOAD SWAP1 DUP2 ADD PUSH1 0x40 MSTORE DUP1 SWAP3 SWAP2 SWAP1 DUP2 DUP2 MSTORE PUSH1 0x20 ADD DUP3 DUP1 SLOAD PUSH2 0x1B9B SWAP1 PUSH2 0x2F82 JUMP JUMPDEST DUP1 ISZERO PUSH2 0x1BE6 JUMPI DUP1 PUSH1 0x1F LT PUSH2 0x1BBD JUMPI PUSH2 0x100 DUP1 DUP4 SLOAD DIV MUL DUP4 MSTORE SWAP2 PUSH1 0x20 ADD SWAP2 PUSH2 0x1BE6 JUMP JUMPDEST DUP3 ADD SWAP2 SWAP1 PUSH0 MSTORE PUSH1 0x20 PUSH0 KECCAK256 SWAP1 JUMPDEST DUP2 SLOAD DUP2 MSTORE SWAP1 PUSH1 0x1 ADD SWAP1 PUSH1 0x20 ADD DUP1 DUP4 GT PUSH2 0x1BC9 JUMPI DUP3 SWAP1 SUB PUSH1 0x1F AND DUP3 ADD SWAP2 JUMPDEST POP POP POP POP POP SWAP1 DUP1 PUSH1 0x4 ADD DUP1 SLOAD PUSH2 0x1BFB SWAP1 PUSH2 0x2F82 JUMP JUMPDEST DUP1 PUSH1 0x1F ADD PUSH1 0x20 DUP1 SWAP2 DIV MUL PUSH1 0x20 ADD PUSH1 0x40 MLOAD SWAP1 DUP2 ADD PUSH1 0x40 MSTORE DUP1 SWAP3 SWAP2 SWAP1 DUP2 DUP2 MSTORE PUSH1 0x20 ADD DUP3 DUP1 SLOAD PUSH2 0x1C27 SWAP1 PUSH2 0x2F82 JUMP JUMPDEST DUP1 ISZERO PUSH2 0x1C72 JUMPI DUP1 PUSH1 0x1F LT PUSH2 0x1C49 JUMPI PUSH2 0x100 DUP1 DUP4 SLOAD DIV MUL DUP4 MSTORE SWAP2 PUSH1 0x20 ADD SWAP2 PUSH2 0x1C72 JUMP JUMPDEST DUP3 ADD SWAP2 SWAP1 PUSH0 MSTORE PUSH1 0x20 PUSH0 KECCAK256 SWAP1 JUMPDEST DUP2 SLOAD DUP2 MSTORE SWAP1 PUSH1 0x1 ADD SWAP1 PUSH1 0x20 ADD DUP1 DUP4 GT PUSH2 0x1C55 JUMPI DUP3 SWAP1 SUB PUSH1 0x1F AND DUP3 ADD SWAP2 JUMPDEST POP POP POP POP POP SWAP1 DUP1 PUSH1 0x5 ADD SLOAD SWAP1 DUP1 PUSH1 0x6 ADD SLOAD SWAP1 POP DUP8 JUMP JUMPDEST PUSH1 0x1 PUSH1 0x20 MSTORE DUP1 PUSH0 MSTORE PUSH1 0x40 PUSH0 KECCAK256 PUSH0 SWAP2 POP SWAP1 POP DUP1 PUSH0 ADD DUP1 SLOAD PUSH2 0x1CA7 SWAP1 PUSH2 0x2F82 JUMP JUMPDEST DUP1 PUSH1 0x1F ADD PUSH1 0x20 DUP1 SWAP2 DIV MUL PUSH1 0x20 ADD PUSH1 0x40 MLOAD SWAP1 DUP2 ADD PUSH1 0x40 MSTORE DUP1 SWAP3 SWAP2 SWAP1 DUP2 DUP2 MSTORE PUSH1 0x20 ADD DUP3 DUP1 SLOAD PUSH2 0x1CD3 SWAP1 PUSH2 0x2F82 JUMP JUMPDEST DUP1 ISZERO PUSH2 0x1D1E JUMPI DUP1 PUSH1 0x1F LT PUSH2 0x1CF5 JUMPI PUSH2 0x100 DUP1 DUP4 SLOAD DIV MUL DUP4 MSTORE SWAP2 PUSH1 0x20 ADD SWAP2 PUSH2 0x1D1E JUMP JUMPDEST DUP3 ADD SWAP2 SWAP1 PUSH0 MSTORE PUSH1 0x20 PUSH0 KECCAK256 SWAP1 JUMPDEST DUP2 SLOAD DUP2 MSTORE SWAP1 PUSH1 0x1 ADD SWAP1 PUSH1 0x20 ADD DUP1 DUP4 GT PUSH2 0x1D01 JUMPI DUP3 SWAP1 SUB PUSH1 0x1F AND DUP3 ADD SWAP2 JUMPDEST POP POP POP POP POP SWAP1 DUP1 PUSH1 0x1 ADD DUP1 SLOAD PUSH2 0x1D33 SWAP1 PUSH2 0x2F82 JUMP JUMPDEST DUP1 PUSH1 0x1F ADD PUSH1 0x20 DUP1 SWAP2 DIV MUL PUSH1 0x20 ADD PUSH1 0x40 MLOAD SWAP1 DUP2 ADD PUSH1 0x40 MSTORE DUP1 SWAP3 SWAP2 SWAP1 DUP2 DUP2 MSTORE PUSH1 0x20 ADD DUP3 DUP1 SLOAD PUSH2 0x1D5F SWAP1 PUSH2 0x2F82 JUMP JUMPDEST DUP1 ISZERO PUSH2 0x1DAA JUMPI DUP1 PUSH1 0x1F LT PUSH2 0x1D81 JUMPI PUSH2 0x100 DUP1 DUP4 SLOAD DIV MUL DUP4 MSTORE SWAP2 PUSH1 0x20 ADD SWAP2 PUSH2 0x1DAA JUMP JUMPDEST DUP3 ADD SWAP2 SWAP1 PUSH0 MSTORE PUSH1 0x20 PUSH0 KECCAK256 SWAP1 JUMPDEST DUP2 SLOAD DUP2 MSTORE SWAP1 PUSH1 0x1 ADD SWAP1 PUSH1 0x20 ADD DUP1 DUP4 GT PUSH2 0x1D8D JUMPI DUP3 SWAP1 SUB PUSH1 0x1F AND DUP3 ADD SWAP2 JUMPDEST POP POP POP POP POP SWAP1 DUP1 PUSH1 0x2 ADD DUP1 SLOAD PUSH2 0x1DBF SWAP1 PUSH2 0x2F82 JUMP JUMPDEST DUP1 PUSH1 0x1F ADD PUSH1 0x20 DUP1 SWAP2 DIV MUL PUSH1 0x20 ADD PUSH1 0x40 MLOAD SWAP1 DUP2 ADD PUSH1 0x40 MSTORE DUP1 SWAP3 SWAP2 SWAP1 DUP2 DUP2 MSTORE PUSH1 0x20 ADD DUP3 DUP1 SLOAD PUSH2 0x1DEB SWAP1 PUSH2 0x2F82 JUMP JUMPDEST DUP1 ISZERO PUSH2 0x1E36 JUMPI DUP1 PUSH1 0x1F LT PUSH2 0x1E0D JUMPI PUSH2 0x100 DUP1 DUP4 SLOAD DIV MUL DUP4 MSTORE SWAP2 PUSH1 0x20 ADD SWAP2 PUSH2 0x1E36 JUMP JUMPDEST DUP3 ADD SWAP2 SWAP1 PUSH0 MSTORE PUSH1 0x20 PUSH0 KECCAK256 SWAP1 JUMPDEST DUP2 SLOAD DUP2 MSTORE SWAP1 PUSH1 0x1 ADD SWAP1 PUSH1 0x20 ADD DUP1 DUP4 GT PUSH2 0x1E19 JUMPI DUP3 SWAP1 SUB PUSH1 0x1F AND DUP3 ADD SWAP2 JUMPDEST POP POP POP POP POP SWAP1 DUP1 PUSH1 0x3 ADD DUP1 SLOAD PUSH2 0x1E4B SWAP1 PUSH2 0x2F82 JUMP JUMPDEST DUP1 PUSH1 0x1F ADD PUSH1 0x20 DUP1 SWAP2 DIV MUL PUSH1 0x20 ADD PUSH1 0x40 MLOAD SWAP1 DUP2 ADD PUSH1 0x40 MSTORE DUP1 SWAP3 SWAP2 SWAP1 DUP2 DUP2 MSTORE PUSH1 0x20 ADD DUP3 DUP1 SLOAD PUSH2 0x1E77 SWAP1 PUSH2 0x2F82 JUMP JUMPDEST DUP1 ISZERO PUSH2 0x1EC2 JUMPI DUP1 PUSH1 0x1F LT PUSH2 0x1E99 JUMPI PUSH2 0x100 DUP1 DUP4 SLOAD DIV MUL DUP4 MSTORE SWAP2 PUSH1 0x20 ADD SWAP2 PUSH2 0x1EC2 JUMP JUMPDEST DUP3 ADD SWAP2 SWAP1 PUSH0 MSTORE PUSH1 0x20 PUSH0 KECCAK256 SWAP1 JUMPDEST DUP2 SLOAD DUP2 MSTORE SWAP1 PUSH1 0x1 ADD SWAP1 PUSH1 0x20 ADD DUP1 DUP4 GT PUSH2 0x1EA5 JUMPI DUP3 SWAP1 SUB PUSH1 0x1F AND DUP3 ADD SWAP2 JUMPDEST POP POP POP POP POP SWAP1 DUP1 PUSH1 0x4 ADD SLOAD SWAP1 POP DUP6 JUMP JUMPDEST PUSH0 PUSH1 0x2 PUSH0 CALLER PUSH20 0xFFFFFFFFFFFFFFFFFFFFFFFFFFFFFFFFFFFFFFFF AND PUSH20 0xFFFFFFFFFFFFFFFFFFFFFFFFFFFFFFFFFFFFFFFF AND DUP2 MSTORE PUSH1 0x20 ADD SWAP1 DUP2 MSTORE PUSH1 0x20 ADD PUSH0 KECCAK256 PUSH1 0x5 ADD SLOAD SWAP1 POP SWAP1 JUMP JUMPDEST PUSH0 PUSH1 0x1 PUSH0 CALLER PUSH20 0xFFFFFFFFFFFFFFFFFFFFFFFFFFFFFFFFFFFFFFFF AND PUSH20 0xFFFFFFFFFFFFFFFFFFFFFFFFFFFFFFFFFFFFFFFF AND DUP2 MSTORE PUSH1 0x20 ADD SWAP1 DUP2 MSTORE PUSH1 0x20 ADD PUSH0 KECCAK256 PUSH1 0x4 ADD SLOAD GT PUSH2 0x1F9B JUMPI PUSH1 0x40 MLOAD PUSH32 0x8C379A000000000000000000000000000000000000000000000000000000000 DUP2 MSTORE PUSH1 0x4 ADD PUSH2 0x1F92 SWAP1 PUSH2 0x30D8 JUMP JUMPDEST PUSH1 0x40 MLOAD DUP1 SWAP2 SUB SWAP1 REVERT JUMPDEST DUP4 PUSH1 0x1 PUSH0 CALLER PUSH20 0xFFFFFFFFFFFFFFFFFFFFFFFFFFFFFFFFFFFFFFFF AND PUSH20 0xFFFFFFFFFFFFFFFFFFFFFFFFFFFFFFFFFFFFFFFF AND DUP2 MSTORE PUSH1 0x20 ADD SWAP1 DUP2 MSTORE PUSH1 0x20 ADD PUSH0 KECCAK256 PUSH0 ADD SWAP1 DUP2 PUSH2 0x1FE7 SWAP2 SWAP1 PUSH2 0x33C3 JUMP JUMPDEST POP DUP3 PUSH1 0x1 PUSH0 CALLER PUSH20 0xFFFFFFFFFFFFFFFFFFFFFFFFFFFFFFFFFFFFFFFF AND PUSH20 0xFFFFFFFFFFFFFFFFFFFFFFFFFFFFFFFFFFFFFFFF AND DUP2 MSTORE PUSH1 0x20 ADD SWAP1 DUP2 MSTORE PUSH1 0x20 ADD PUSH0 KECCAK256 PUSH1 0x1 ADD SWAP1 DUP2 PUSH2 0x2035 SWAP2 SWAP1 PUSH2 0x33C3 JUMP JUMPDEST POP DUP2 PUSH1 0x1 PUSH0 CALLER PUSH20 0xFFFFFFFFFFFFFFFFFFFFFFFFFFFFFFFFFFFFFFFF AND PUSH20 0xFFFFFFFFFFFFFFFFFFFFFFFFFFFFFFFFFFFFFFFF AND DUP2 MSTORE PUSH1 0x20 ADD SWAP1 DUP2 MSTORE PUSH1 0x20 ADD PUSH0 KECCAK256 PUSH1 0x2 ADD SWAP1 DUP2 PUSH2 0x2083 SWAP2 SWAP1 PUSH2 0x33C3 JUMP JUMPDEST POP DUP1 PUSH1 0x1 PUSH0 CALLER PUSH20 0xFFFFFFFFFFFFFFFFFFFFFFFFFFFFFFFFFFFFFFFF AND PUSH20 0xFFFFFFFFFFFFFFFFFFFFFFFFFFFFFFFFFFFFFFFF AND DUP2 MSTORE PUSH1 0x20 ADD SWAP1 DUP2 MSTORE PUSH1 0x20 ADD PUSH0 KECCAK256 PUSH1 0x3 ADD SWAP1 DUP2 PUSH2 0x20D1 SWAP2 SWAP1 PUSH2 0x33C3 JUMP JUMPDEST POP CALLER PUSH20 0xFFFFFFFFFFFFFFFFFFFFFFFFFFFFFFFFFFFFFFFF AND PUSH32 0x78664930CFAE4A1EB87C094F2B3013547DBB5E6B7CC7B9F0941766060298E126 DUP6 PUSH1 0x40 MLOAD PUSH2 0x2118 SWAP2 SWAP1 PUSH2 0x34FA JUMP JUMPDEST PUSH1 0x40 MLOAD DUP1 SWAP2 SUB SWAP1 LOG2 POP POP POP POP JUMP JUMPDEST PUSH0 DUP1 DUP4 SWAP1 POP PUSH0 DUP4 SWAP1 POP DUP1 MLOAD DUP3 MLOAD EQ PUSH2 0x2142 JUMPI PUSH0 SWAP3 POP POP POP PUSH2 0x21F2 JUMP JUMPDEST PUSH0 JUMPDEST DUP3 MLOAD DUP2 LT ISZERO PUSH2 0x21EA JUMPI DUP2 DUP2 DUP2 MLOAD DUP2 LT PUSH2 0x2160 JUMPI PUSH2 0x215F PUSH2 0x2F28 JUMP JUMPDEST JUMPDEST PUSH1 0x20 ADD ADD MLOAD PUSH1 0xF8 SHR PUSH1 0xF8 SHL PUSH31 0xFFFFFFFFFFFFFFFFFFFFFFFFFFFFFFFFFFFFFFFFFFFFFFFFFFFFFFFFFFFFFF NOT AND DUP4 DUP3 DUP2 MLOAD DUP2 LT PUSH2 0x21A0 JUMPI PUSH2 0x219F PUSH2 0x2F28 JUMP JUMPDEST JUMPDEST PUSH1 0x20 ADD ADD MLOAD PUSH1 0xF8 SHR PUSH1 0xF8 SHL PUSH31 0xFFFFFFFFFFFFFFFFFFFFFFFFFFFFFFFFFFFFFFFFFFFFFFFFFFFFFFFFFFFFFF NOT AND EQ PUSH2 0x21DD JUMPI PUSH0 SWAP4 POP POP POP POP PUSH2 0x21F2 JUMP JUMPDEST DUP1 DUP1 PUSH1 0x1 ADD SWAP2 POP POP PUSH2 0x2144 JUMP JUMPDEST POP PUSH1 0x1 SWAP3 POP POP POP JUMPDEST SWAP3 SWAP2 POP POP JUMP JUMPDEST PUSH0 PUSH4 0x5F5E100 DUP3 LT ISZERO DUP1 ISZERO PUSH2 0x2211 JUMPI POP PUSH4 0x3B9AC9FF DUP3 GT ISZERO JUMPDEST PUSH2 0x2250 JUMPI PUSH1 0x40 MLOAD PUSH32 0x8C379A000000000000000000000000000000000000000000000000000000000 DUP2 MSTORE PUSH1 0x4 ADD PUSH2 0x2247 SWAP1 PUSH2 0x3564 JUMP JUMPDEST PUSH1 0x40 MLOAD DUP1 SWAP2 SUB SWAP1 REVERT JUMPDEST PUSH0 PUSH1 0xA DUP4 PUSH2 0x225E SWAP2 SWAP1 PUSH2 0x35AF JUMP JUMPDEST SWAP1 POP PUSH0 PUSH1 0xA DUP5 PUSH2 0x226E SWAP2 SWAP1 PUSH2 0x35DF JUMP JUMPDEST SWAP1 POP PUSH0 PUSH2 0x227A DUP3 PUSH2 0x2373 JUMP JUMPDEST SWAP1 POP DUP1 DUP4 EQ SWAP4 POP POP POP POP SWAP2 SWAP1 POP JUMP JUMPDEST PUSH0 DUP1 PUSH1 0x3C DUP1 TIMESTAMP PUSH2 0x2299 SWAP2 SWAP1 PUSH2 0x35DF JUMP JUMPDEST PUSH2 0x22A3 SWAP2 SWAP1 PUSH2 0x35AF JUMP JUMPDEST SWAP1 POP PUSH0 PUSH1 0x3C TIMESTAMP PUSH2 0x22B3 SWAP2 SWAP1 PUSH2 0x35AF JUMP JUMPDEST SWAP1 POP PUSH0 DUP2 PUSH1 0x3C DUP5 PUSH2 0x22C4 SWAP2 SWAP1 PUSH2 0x360F JUMP JUMPDEST PUSH2 0x22CE SWAP2 SWAP1 PUSH2 0x3650 JUMP JUMPDEST SWAP1 POP PUSH0 PUSH2 0xDD4 PUSH2 0x270F DUP4 PUSH2 0x22E2 SWAP2 SWAP1 PUSH2 0x360F JUMP JUMPDEST PUSH2 0x22EC SWAP2 SWAP1 PUSH2 0x35DF JUMP JUMPDEST SWAP1 POP PUSH0 PUSH2 0x3E8 PUSH2 0x2328 TIMESTAMP CALLER PUSH1 0x40 MLOAD PUSH1 0x20 ADD PUSH2 0x2308 SWAP3 SWAP2 SWAP1 PUSH2 0x36E8 JUMP JUMPDEST PUSH1 0x40 MLOAD PUSH1 0x20 DUP2 DUP4 SUB SUB DUP2 MSTORE SWAP1 PUSH1 0x40 MSTORE DUP1 MLOAD SWAP1 PUSH1 0x20 ADD KECCAK256 PUSH0 SHR PUSH2 0x232A SWAP2 SWAP1 PUSH2 0x35AF JUMP JUMPDEST PUSH2 0x2334 SWAP2 SWAP1 PUSH2 0x3650 JUMP JUMPDEST SWAP1 POP PUSH0 PUSH2 0x2341 DUP4 DUP4 PUSH2 0x2390 JUMP JUMPDEST SWAP1 POP PUSH0 PUSH2 0x234D DUP3 PUSH2 0x2373 JUMP JUMPDEST SWAP1 POP DUP1 PUSH1 0xA DUP4 PUSH2 0x235D SWAP2 SWAP1 PUSH2 0x360F JUMP JUMPDEST PUSH2 0x2367 SWAP2 SWAP1 PUSH2 0x3650 JUMP JUMPDEST SWAP8 POP POP POP POP POP POP POP POP SWAP1 JUMP JUMPDEST PUSH0 PUSH1 0xA PUSH2 0x237F DUP4 PUSH2 0x2473 JUMP JUMPDEST PUSH2 0x2389 SWAP2 SWAP1 PUSH2 0x35AF JUMP JUMPDEST SWAP1 POP SWAP2 SWAP1 POP JUMP JUMPDEST PUSH0 DUP1 PUSH0 SWAP1 POP PUSH0 JUMPDEST PUSH1 0x4 DUP2 LT ISZERO PUSH2 0x2468 JUMPI PUSH0 PUSH1 0xA DUP3 PUSH1 0xA PUSH2 0x23B0 SWAP2 SWAP1 PUSH2 0x3842 JUMP JUMPDEST DUP8 PUSH2 0x23BB SWAP2 SWAP1 PUSH2 0x35DF JUMP JUMPDEST PUSH2 0x23C5 SWAP2 SWAP1 PUSH2 0x35AF JUMP JUMPDEST SWAP1 POP PUSH0 PUSH1 0xA DUP4 PUSH1 0xA PUSH2 0x23D7 SWAP2 SWAP1 PUSH2 0x3842 JUMP JUMPDEST DUP8 PUSH2 0x23E2 SWAP2 SWAP1 PUSH2 0x35DF JUMP JUMPDEST PUSH2 0x23EC SWAP2 SWAP1 PUSH2 0x35AF JUMP JUMPDEST SWAP1 POP PUSH1 0x2 DUP4 PUSH2 0x23FB SWAP2 SWAP1 PUSH2 0x360F JUMP JUMPDEST PUSH1 0xA PUSH2 0x2407 SWAP2 SWAP1 PUSH2 0x3842 JUMP JUMPDEST DUP3 PUSH2 0x2412 SWAP2 SWAP1 PUSH2 0x360F JUMP JUMPDEST PUSH1 0x1 PUSH1 0x2 DUP6 PUSH2 0x2421 SWAP2 SWAP1 PUSH2 0x360F JUMP JUMPDEST PUSH2 0x242B SWAP2 SWAP1 PUSH2 0x3650 JUMP JUMPDEST PUSH1 0xA PUSH2 0x2437 SWAP2 SWAP1 PUSH2 0x3842 JUMP JUMPDEST DUP3 PUSH2 0x2442 SWAP2 SWAP1 PUSH2 0x360F JUMP JUMPDEST PUSH2 0x244C SWAP2 SWAP1 PUSH2 0x3650 JUMP JUMPDEST DUP5 PUSH2 0x2457 SWAP2 SWAP1 PUSH2 0x3650 JUMP JUMPDEST SWAP4 POP POP POP DUP1 DUP1 PUSH1 0x1 ADD SWAP2 POP POP PUSH2 0x2397 JUMP JUMPDEST POP DUP1 SWAP2 POP POP SWAP3 SWAP2 POP POP JUMP JUMPDEST PUSH0 DUP1 PUSH0 SWAP1 POP JUMPDEST PUSH0 DUP4 GT ISZERO PUSH2 0x24AF JUMPI PUSH1 0xA DUP4 PUSH2 0x248E SWAP2 SWAP1 PUSH2 0x35AF JUMP JUMPDEST DUP2 PUSH2 0x2499 SWAP2 SWAP1 PUSH2 0x3650 JUMP JUMPDEST SWAP1 POP PUSH1 0xA DUP4 PUSH2 0x24A8 SWAP2 SWAP1 PUSH2 0x35DF JUMP JUMPDEST SWAP3 POP PUSH2 0x2479 JUMP JUMPDEST DUP1 SWAP2 POP POP SWAP2 SWAP1 POP JUMP JUMPDEST POP DUP1 SLOAD PUSH2 0x24C4 SWAP1 PUSH2 0x2F82 JUMP JUMPDEST PUSH0 DUP3 SSTORE DUP1 PUSH1 0x1F LT PUSH2 0x24D5 JUMPI POP PUSH2 0x24F2 JUMP JUMPDEST PUSH1 0x1F ADD PUSH1 0x20 SWAP1 DIV SWAP1 PUSH0 MSTORE PUSH1 0x20 PUSH0 KECCAK256 SWAP1 DUP2 ADD SWAP1 PUSH2 0x24F1 SWAP2 SWAP1 PUSH2 0x255E JUMP JUMPDEST JUMPDEST POP JUMP JUMPDEST PUSH1 0x40 MLOAD DUP1 PUSH1 0xA0 ADD PUSH1 0x40 MSTORE DUP1 PUSH1 0x60 DUP2 MSTORE PUSH1 0x20 ADD PUSH1 0x60 DUP2 MSTORE PUSH1 0x20 ADD PUSH1 0x60 DUP2 MSTORE PUSH1 0x20 ADD PUSH1 0x60 DUP2 MSTORE PUSH1 0x20 ADD PUSH0 DUP2 MSTORE POP SWAP1 JUMP JUMPDEST PUSH1 0x40 MLOAD DUP1 PUSH1 0xE0 ADD PUSH1 0x40 MSTORE DUP1 PUSH1 0x60 DUP2 MSTORE PUSH1 0x20 ADD PUSH1 0x60 DUP2 MSTORE PUSH1 0x20 ADD PUSH1 0x60 DUP2 MSTORE PUSH1 0x20 ADD PUSH1 0x60 DUP2 MSTORE PUSH1 0x20 ADD PUSH1 0x60 DUP2 MSTORE PUSH1 0x20 ADD PUSH0 DUP2 MSTORE PUSH1 0x20 ADD PUSH0 DUP2 MSTORE POP SWAP1 JUMP JUMPDEST JUMPDEST DUP1 DUP3 GT ISZERO PUSH2 0x2575 JUMPI PUSH0 DUP2 PUSH0 SWAP1 SSTORE POP PUSH1 0x1 ADD PUSH2 0x255F JUMP JUMPDEST POP SWAP1 JUMP JUMPDEST PUSH0 PUSH1 0x40 MLOAD SWAP1 POP SWAP1 JUMP JUMPDEST PUSH0 DUP1 REVERT JUMPDEST PUSH0 DUP1 REVERT JUMPDEST PUSH0 DUP1 REVERT JUMPDEST PUSH0 DUP1 REVERT JUMPDEST PUSH0 PUSH1 0x1F NOT PUSH1 0x1F DUP4 ADD AND SWAP1 POP SWAP2 SWAP1 POP JUMP JUMPDEST PUSH32 0x4E487B7100000000000000000000000000000000000000000000000000000000 PUSH0 MSTORE PUSH1 0x41 PUSH1 0x4 MSTORE PUSH1 0x24 PUSH0 REVERT JUMPDEST PUSH2 0x25D8 DUP3 PUSH2 0x2592 JUMP JUMPDEST DUP2 ADD DUP2 DUP2 LT PUSH8 0xFFFFFFFFFFFFFFFF DUP3 GT OR ISZERO PUSH2 0x25F7 JUMPI PUSH2 0x25F6 PUSH2 0x25A2 JUMP JUMPDEST JUMPDEST DUP1 PUSH1 0x40 MSTORE POP POP POP JUMP JUMPDEST PUSH0 PUSH2 0x2609 PUSH2 0x2579 JUMP JUMPDEST SWAP1 POP PUSH2 0x2615 DUP3 DUP3 PUSH2 0x25CF JUMP JUMPDEST SWAP2 SWAP1 POP JUMP JUMPDEST PUSH0 PUSH8 0xFFFFFFFFFFFFFFFF DUP3 GT ISZERO PUSH2 0x2634 JUMPI PUSH2 0x2633 PUSH2 0x25A2 JUMP JUMPDEST JUMPDEST PUSH2 0x263D DUP3 PUSH2 0x2592 JUMP JUMPDEST SWAP1 POP PUSH1 0x20 DUP2 ADD SWAP1 POP SWAP2 SWAP1 POP JUMP JUMPDEST DUP3 DUP2 DUP4 CALLDATACOPY PUSH0 DUP4 DUP4 ADD MSTORE POP POP POP JUMP JUMPDEST PUSH0 PUSH2 0x266A PUSH2 0x2665 DUP5 PUSH2 0x261A JUMP JUMPDEST PUSH2 0x2600 JUMP JUMPDEST SWAP1 POP DUP3 DUP2 MSTORE PUSH1 0x20 DUP2 ADD DUP5 DUP5 DUP5 ADD GT ISZERO PUSH2 0x2686 JUMPI PUSH2 0x2685 PUSH2 0x258E JUMP JUMPDEST JUMPDEST PUSH2 0x2691 DUP5 DUP3 DUP6 PUSH2 0x264A JUMP JUMPDEST POP SWAP4 SWAP3 POP POP POP JUMP JUMPDEST PUSH0 DUP3 PUSH1 0x1F DUP4 ADD SLT PUSH2 0x26AD JUMPI PUSH2 0x26AC PUSH2 0x258A JUMP JUMPDEST JUMPDEST DUP2 CALLDATALOAD PUSH2 0x26BD DUP5 DUP3 PUSH1 0x20 DUP7 ADD PUSH2 0x2658 JUMP JUMPDEST SWAP2 POP POP SWAP3 SWAP2 POP POP JUMP JUMPDEST PUSH0 DUP1 PUSH0 DUP1 PUSH1 0x80 DUP6 DUP8 SUB SLT ISZERO PUSH2 0x26DE JUMPI PUSH2 0x26DD PUSH2 0x2582 JUMP JUMPDEST JUMPDEST PUSH0 DUP6 ADD CALLDATALOAD PUSH8 0xFFFFFFFFFFFFFFFF DUP2 GT ISZERO PUSH2 0x26FB JUMPI PUSH2 0x26FA PUSH2 0x2586 JUMP JUMPDEST JUMPDEST PUSH2 0x2707 DUP8 DUP3 DUP9 ADD PUSH2 0x2699 JUMP JUMPDEST SWAP5 POP POP PUSH1 0x20 DUP6 ADD CALLDATALOAD PUSH8 0xFFFFFFFFFFFFFFFF DUP2 GT ISZERO PUSH2 0x2728 JUMPI PUSH2 0x2727 PUSH2 0x2586 JUMP JUMPDEST JUMPDEST PUSH2 0x2734 DUP8 DUP3 DUP9 ADD PUSH2 0x2699 JUMP JUMPDEST SWAP4 POP POP PUSH1 0x40 DUP6 ADD CALLDATALOAD PUSH8 0xFFFFFFFFFFFFFFFF DUP2 GT ISZERO PUSH2 0x2755 JUMPI PUSH2 0x2754 PUSH2 0x2586 JUMP JUMPDEST JUMPDEST PUSH2 0x2761 DUP8 DUP3 DUP9 ADD PUSH2 0x2699 JUMP JUMPDEST SWAP3 POP POP PUSH1 0x60 DUP6 ADD CALLDATALOAD PUSH8 0xFFFFFFFFFFFFFFFF DUP2 GT ISZERO PUSH2 0x2782 JUMPI PUSH2 0x2781 PUSH2 0x2586 JUMP JUMPDEST JUMPDEST PUSH2 0x278E DUP8 DUP3 DUP9 ADD PUSH2 0x2699 JUMP JUMPDEST SWAP2 POP POP SWAP3 SWAP6 SWAP2 SWAP5 POP SWAP3 POP JUMP JUMPDEST PUSH0 DUP2 MLOAD SWAP1 POP SWAP2 SWAP1 POP JUMP JUMPDEST PUSH0 DUP3 DUP3 MSTORE PUSH1 0x20 DUP3 ADD SWAP1 POP SWAP3 SWAP2 POP POP JUMP JUMPDEST PUSH0 DUP2 SWAP1 POP PUSH1 0x20 DUP3 ADD SWAP1 POP SWAP2 SWAP1 POP JUMP JUMPDEST PUSH0 DUP2 SWAP1 POP SWAP2 SWAP1 POP JUMP JUMPDEST PUSH2 0x27D5 DUP2 PUSH2 0x27C3 JUMP JUMPDEST DUP3 MSTORE POP POP JUMP JUMPDEST PUSH0 PUSH2 0x27E6 DUP4 DUP4 PUSH2 0x27CC JUMP JUMPDEST PUSH1 0x20 DUP4 ADD SWAP1 POP SWAP3 SWAP2 POP POP JUMP JUMPDEST PUSH0 PUSH1 0x20 DUP3 ADD SWAP1 POP SWAP2 SWAP1 POP JUMP JUMPDEST PUSH0 PUSH2 0x2808 DUP3 PUSH2 0x279A JUMP JUMPDEST PUSH2 0x2812 DUP2 DUP6 PUSH2 0x27A4 JUMP JUMPDEST SWAP4 POP PUSH2 0x281D DUP4 PUSH2 0x27B4 JUMP JUMPDEST DUP1 PUSH0 JUMPDEST DUP4 DUP2 LT ISZERO PUSH2 0x284D JUMPI DUP2 MLOAD PUSH2 0x2834 DUP9 DUP3 PUSH2 0x27DB JUMP JUMPDEST SWAP8 POP PUSH2 0x283F DUP4 PUSH2 0x27F2 JUMP JUMPDEST SWAP3 POP POP PUSH1 0x1 DUP2 ADD SWAP1 POP PUSH2 0x2820 JUMP JUMPDEST POP DUP6 SWAP4 POP POP POP POP SWAP3 SWAP2 POP POP JUMP JUMPDEST PUSH0 PUSH1 0x20 DUP3 ADD SWAP1 POP DUP2 DUP2 SUB PUSH0 DUP4 ADD MSTORE PUSH2 0x2872 DUP2 DUP5 PUSH2 0x27FE JUMP JUMPDEST SWAP1 POP SWAP3 SWAP2 POP POP JUMP JUMPDEST PUSH2 0x2883 DUP2 PUSH2 0x27C3 JUMP JUMPDEST DUP2 EQ PUSH2 0x288D JUMPI PUSH0 DUP1 REVERT JUMPDEST POP JUMP JUMPDEST PUSH0 DUP2 CALLDATALOAD SWAP1 POP PUSH2 0x289E DUP2 PUSH2 0x287A JUMP JUMPDEST SWAP3 SWAP2 POP POP JUMP JUMPDEST PUSH0 PUSH1 0x20 DUP3 DUP5 SUB SLT ISZERO PUSH2 0x28B9 JUMPI PUSH2 0x28B8 PUSH2 0x2582 JUMP JUMPDEST JUMPDEST PUSH0 PUSH2 0x28C6 DUP5 DUP3 DUP6 ADD PUSH2 0x2890 JUMP JUMPDEST SWAP2 POP POP SWAP3 SWAP2 POP POP JUMP JUMPDEST PUSH0 PUSH20 0xFFFFFFFFFFFFFFFFFFFFFFFFFFFFFFFFFFFFFFFF DUP3 AND SWAP1 POP SWAP2 SWAP1 POP JUMP JUMPDEST PUSH0 PUSH2 0x28F8 DUP3 PUSH2 0x28CF JUMP JUMPDEST SWAP1 POP SWAP2 SWAP1 POP JUMP JUMPDEST PUSH2 0x2908 DUP2 PUSH2 0x28EE JUMP JUMPDEST DUP3 MSTORE POP POP JUMP JUMPDEST PUSH0 PUSH1 0x20 DUP3 ADD SWAP1 POP PUSH2 0x2921 PUSH0 DUP4 ADD DUP5 PUSH2 0x28FF JUMP JUMPDEST SWAP3 SWAP2 POP POP JUMP JUMPDEST PUSH2 0x2930 DUP2 PUSH2 0x28EE JUMP JUMPDEST DUP2 EQ PUSH2 0x293A JUMPI PUSH0 DUP1 REVERT JUMPDEST POP JUMP JUMPDEST PUSH0 DUP2 CALLDATALOAD SWAP1 POP PUSH2 0x294B DUP2 PUSH2 0x2927 JUMP JUMPDEST SWAP3 SWAP2 POP POP JUMP JUMPDEST PUSH0 PUSH1 0x20 DUP3 DUP5 SUB SLT ISZERO PUSH2 0x2966 JUMPI PUSH2 0x2965 PUSH2 0x2582 JUMP JUMPDEST JUMPDEST PUSH0 PUSH2 0x2973 DUP5 DUP3 DUP6 ADD PUSH2 0x293D JUMP JUMPDEST SWAP2 POP POP SWAP3 SWAP2 POP POP JUMP JUMPDEST PUSH0 DUP2 ISZERO ISZERO SWAP1 POP SWAP2 SWAP1 POP JUMP JUMPDEST PUSH2 0x2990 DUP2 PUSH2 0x297C JUMP JUMPDEST DUP3 MSTORE POP POP JUMP JUMPDEST PUSH0 PUSH1 0x20 DUP3 ADD SWAP1 POP PUSH2 0x29A9 PUSH0 DUP4 ADD DUP5 PUSH2 0x2987 JUMP JUMPDEST SWAP3 SWAP2 POP POP JUMP JUMPDEST PUSH0 DUP1 PUSH0 DUP1 PUSH0 PUSH1 0xA0 DUP7 DUP9 SUB SLT ISZERO PUSH2 0x29C8 JUMPI PUSH2 0x29C7 PUSH2 0x2582 JUMP JUMPDEST JUMPDEST PUSH0 DUP7 ADD CALLDATALOAD PUSH8 0xFFFFFFFFFFFFFFFF DUP2 GT ISZERO PUSH2 0x29E5 JUMPI PUSH2 0x29E4 PUSH2 0x2586 JUMP JUMPDEST JUMPDEST PUSH2 0x29F1 DUP9 DUP3 DUP10 ADD PUSH2 0x2699 JUMP JUMPDEST SWAP6 POP POP PUSH1 0x20 DUP7 ADD CALLDATALOAD PUSH8 0xFFFFFFFFFFFFFFFF DUP2 GT ISZERO PUSH2 0x2A12 JUMPI PUSH2 0x2A11 PUSH2 0x2586 JUMP JUMPDEST JUMPDEST PUSH2 0x2A1E DUP9 DUP3 DUP10 ADD PUSH2 0x2699 JUMP JUMPDEST SWAP5 POP POP PUSH1 0x40 DUP7 ADD CALLDATALOAD PUSH8 0xFFFFFFFFFFFFFFFF DUP2 GT ISZERO PUSH2 0x2A3F JUMPI PUSH2 0x2A3E PUSH2 0x2586 JUMP JUMPDEST JUMPDEST PUSH2 0x2A4B DUP9 DUP3 DUP10 ADD PUSH2 0x2699 JUMP JUMPDEST SWAP4 POP POP PUSH1 0x60 DUP7 ADD CALLDATALOAD PUSH8 0xFFFFFFFFFFFFFFFF DUP2 GT ISZERO PUSH2 0x2A6C JUMPI PUSH2 0x2A6B PUSH2 0x2586 JUMP JUMPDEST JUMPDEST PUSH2 0x2A78 DUP9 DUP3 DUP10 ADD PUSH2 0x2699 JUMP JUMPDEST SWAP3 POP POP PUSH1 0x80 DUP7 ADD CALLDATALOAD PUSH8 0xFFFFFFFFFFFFFFFF DUP2 GT ISZERO PUSH2 0x2A99 JUMPI PUSH2 0x2A98 PUSH2 0x2586 JUMP JUMPDEST JUMPDEST PUSH2 0x2AA5 DUP9 DUP3 DUP10 ADD PUSH2 0x2699 JUMP JUMPDEST SWAP2 POP POP SWAP3 SWAP6 POP SWAP3 SWAP6 SWAP1 SWAP4 POP JUMP JUMPDEST PUSH2 0x2ABB DUP2 PUSH2 0x27C3 JUMP JUMPDEST DUP3 MSTORE POP POP JUMP JUMPDEST PUSH0 PUSH1 0x20 DUP3 ADD SWAP1 POP PUSH2 0x2AD4 PUSH0 DUP4 ADD DUP5 PUSH2 0x2AB2 JUMP JUMPDEST SWAP3 SWAP2 POP POP JUMP JUMPDEST PUSH0 DUP2 MLOAD SWAP1 POP SWAP2 SWAP1 POP JUMP JUMPDEST PUSH0 DUP3 DUP3 MSTORE PUSH1 0x20 DUP3 ADD SWAP1 POP SWAP3 SWAP2 POP POP JUMP JUMPDEST DUP3 DUP2 DUP4 MCOPY PUSH0 DUP4 DUP4 ADD MSTORE POP POP POP JUMP JUMPDEST PUSH0 PUSH2 0x2B0C DUP3 PUSH2 0x2ADA JUMP JUMPDEST PUSH2 0x2B16 DUP2 DUP6 PUSH2 0x2AE4 JUMP JUMPDEST SWAP4 POP PUSH2 0x2B26 DUP2 DUP6 PUSH1 0x20 DUP7 ADD PUSH2 0x2AF4 JUMP JUMPDEST PUSH2 0x2B2F DUP2 PUSH2 0x2592 JUMP JUMPDEST DUP5 ADD SWAP2 POP POP SWAP3 SWAP2 POP POP JUMP JUMPDEST PUSH0 PUSH1 0xA0 DUP4 ADD PUSH0 DUP4 ADD MLOAD DUP5 DUP3 SUB PUSH0 DUP7 ADD MSTORE PUSH2 0x2B54 DUP3 DUP3 PUSH2 0x2B02 JUMP JUMPDEST SWAP2 POP POP PUSH1 0x20 DUP4 ADD MLOAD DUP5 DUP3 SUB PUSH1 0x20 DUP7 ADD MSTORE PUSH2 0x2B6E DUP3 DUP3 PUSH2 0x2B02 JUMP JUMPDEST SWAP2 POP POP PUSH1 0x40 DUP4 ADD MLOAD DUP5 DUP3 SUB PUSH1 0x40 DUP7 ADD MSTORE PUSH2 0x2B88 DUP3 DUP3 PUSH2 0x2B02 JUMP JUMPDEST SWAP2 POP POP PUSH1 0x60 DUP4 ADD MLOAD DUP5 DUP3 SUB PUSH1 0x60 DUP7 ADD MSTORE PUSH2 0x2BA2 DUP3 DUP3 PUSH2 0x2B02 JUMP JUMPDEST SWAP2 POP POP PUSH1 0x80 DUP4 ADD MLOAD PUSH2 0x2BB7 PUSH1 0x80 DUP7 ADD DUP3 PUSH2 0x27CC JUMP JUMPDEST POP DUP1 SWAP2 POP POP SWAP3 SWAP2 POP POP JUMP JUMPDEST PUSH0 PUSH1 0xE0 DUP4 ADD PUSH0 DUP4 ADD MLOAD DUP5 DUP3 SUB PUSH0 DUP7 ADD MSTORE PUSH2 0x2BDC DUP3 DUP3 PUSH2 0x2B02 JUMP JUMPDEST SWAP2 POP POP PUSH1 0x20 DUP4 ADD MLOAD DUP5 DUP3 SUB PUSH1 0x20 DUP7 ADD MSTORE PUSH2 0x2BF6 DUP3 DUP3 PUSH2 0x2B02 JUMP JUMPDEST SWAP2 POP POP PUSH1 0x40 DUP4 ADD MLOAD DUP5 DUP3 SUB PUSH1 0x40 DUP7 ADD MSTORE PUSH2 0x2C10 DUP3 DUP3 PUSH2 0x2B02 JUMP JUMPDEST SWAP2 POP POP PUSH1 0x60 DUP4 ADD MLOAD DUP5 DUP3 SUB PUSH1 0x60 DUP7 ADD MSTORE PUSH2 0x2C2A DUP3 DUP3 PUSH2 0x2B02 JUMP JUMPDEST SWAP2 POP POP PUSH1 0x80 DUP4 ADD MLOAD DUP5 DUP3 SUB PUSH1 0x80 DUP7 ADD MSTORE PUSH2 0x2C44 DUP3 DUP3 PUSH2 0x2B02 JUMP JUMPDEST SWAP2 POP POP PUSH1 0xA0 DUP4 ADD MLOAD PUSH2 0x2C59 PUSH1 0xA0 DUP7 ADD DUP3 PUSH2 0x27CC JUMP JUMPDEST POP PUSH1 0xC0 DUP4 ADD MLOAD PUSH2 0x2C6C PUSH1 0xC0 DUP7 ADD DUP3 PUSH2 0x27CC JUMP JUMPDEST POP DUP1 SWAP2 POP POP SWAP3 SWAP2 POP POP JUMP JUMPDEST PUSH0 PUSH1 0x40 DUP3 ADD SWAP1 POP DUP2 DUP2 SUB PUSH0 DUP4 ADD MSTORE PUSH2 0x2C8F DUP2 DUP6 PUSH2 0x2B3A JUMP JUMPDEST SWAP1 POP DUP2 DUP2 SUB PUSH1 0x20 DUP4 ADD MSTORE PUSH2 0x2CA3 DUP2 DUP5 PUSH2 0x2BC2 JUMP JUMPDEST SWAP1 POP SWAP4 SWAP3 POP POP POP JUMP JUMPDEST PUSH0 DUP1 PUSH0 DUP1 PUSH0 PUSH1 0xA0 DUP7 DUP9 SUB SLT ISZERO PUSH2 0x2CC5 JUMPI PUSH2 0x2CC4 PUSH2 0x2582 JUMP JUMPDEST JUMPDEST PUSH0 PUSH2 0x2CD2 DUP9 DUP3 DUP10 ADD PUSH2 0x293D JUMP JUMPDEST SWAP6 POP POP PUSH1 0x20 DUP7 ADD CALLDATALOAD PUSH8 0xFFFFFFFFFFFFFFFF DUP2 GT ISZERO PUSH2 0x2CF3 JUMPI PUSH2 0x2CF2 PUSH2 0x2586 JUMP JUMPDEST JUMPDEST PUSH2 0x2CFF DUP9 DUP3 DUP10 ADD PUSH2 0x2699 JUMP JUMPDEST SWAP5 POP POP PUSH1 0x40 DUP7 ADD CALLDATALOAD PUSH8 0xFFFFFFFFFFFFFFFF DUP2 GT ISZERO PUSH2 0x2D20 JUMPI PUSH2 0x2D1F PUSH2 0x2586 JUMP JUMPDEST JUMPDEST PUSH2 0x2D2C DUP9 DUP3 DUP10 ADD PUSH2 0x2699 JUMP JUMPDEST SWAP4 POP POP PUSH1 0x60 DUP7 ADD CALLDATALOAD PUSH8 0xFFFFFFFFFFFFFFFF DUP2 GT ISZERO PUSH2 0x2D4D JUMPI PUSH2 0x2D4C PUSH2 0x2586 JUMP JUMPDEST JUMPDEST PUSH2 0x2D59 DUP9 DUP3 DUP10 ADD PUSH2 0x2699 JUMP JUMPDEST SWAP3 POP POP PUSH1 0x80 DUP7 ADD CALLDATALOAD PUSH8 0xFFFFFFFFFFFFFFFF DUP2 GT ISZERO PUSH2 0x2D7A JUMPI PUSH2 0x2D79 PUSH2 0x2586 JUMP JUMPDEST JUMPDEST PUSH2 0x2D86 DUP9 DUP3 DUP10 ADD PUSH2 0x2699 JUMP JUMPDEST SWAP2 POP POP SWAP3 SWAP6 POP SWAP3 SWAP6 SWAP1 SWAP4 POP JUMP JUMPDEST PUSH0 DUP3 DUP3 MSTORE PUSH1 0x20 DUP3 ADD SWAP1 POP SWAP3 SWAP2 POP POP JUMP JUMPDEST PUSH0 PUSH2 0x2DAD DUP3 PUSH2 0x2ADA JUMP JUMPDEST PUSH2 0x2DB7 DUP2 DUP6 PUSH2 0x2D93 JUMP JUMPDEST SWAP4 POP PUSH2 0x2DC7 DUP2 DUP6 PUSH1 0x20 DUP7 ADD PUSH2 0x2AF4 JUMP JUMPDEST PUSH2 0x2DD0 DUP2 PUSH2 0x2592 JUMP JUMPDEST DUP5 ADD SWAP2 POP POP SWAP3 SWAP2 POP POP JUMP JUMPDEST PUSH0 PUSH1 0xE0 DUP3 ADD SWAP1 POP DUP2 DUP2 SUB PUSH0 DUP4 ADD MSTORE PUSH2 0x2DF3 DUP2 DUP11 PUSH2 0x2DA3 JUMP JUMPDEST SWAP1 POP DUP2 DUP2 SUB PUSH1 0x20 DUP4 ADD MSTORE PUSH2 0x2E07 DUP2 DUP10 PUSH2 0x2DA3 JUMP JUMPDEST SWAP1 POP DUP2 DUP2 SUB PUSH1 0x40 DUP4 ADD MSTORE PUSH2 0x2E1B DUP2 DUP9 PUSH2 0x2DA3 JUMP JUMPDEST SWAP1 POP DUP2 DUP2 SUB PUSH1 0x60 DUP4 ADD MSTORE PUSH2 0x2E2F DUP2 DUP8 PUSH2 0x2DA3 JUMP JUMPDEST SWAP1 POP DUP2 DUP2 SUB PUSH1 0x80 DUP4 ADD MSTORE PUSH2 0x2E43 DUP2 DUP7 PUSH2 0x2DA3 JUMP JUMPDEST SWAP1 POP PUSH2 0x2E52 PUSH1 0xA0 DUP4 ADD DUP6 PUSH2 0x2AB2 JUMP JUMPDEST PUSH2 0x2E5F PUSH1 0xC0 DUP4 ADD DUP5 PUSH2 0x2AB2 JUMP JUMPDEST SWAP9 SWAP8 POP POP POP POP POP POP POP POP JUMP JUMPDEST PUSH0 PUSH1 0xA0 DUP3 ADD SWAP1 POP DUP2 DUP2 SUB PUSH0 DUP4 ADD MSTORE PUSH2 0x2E83 DUP2 DUP9 PUSH2 0x2DA3 JUMP JUMPDEST SWAP1 POP DUP2 DUP2 SUB PUSH1 0x20 DUP4 ADD MSTORE PUSH2 0x2E97 DUP2 DUP8 PUSH2 0x2DA3 JUMP JUMPDEST SWAP1 POP DUP2 DUP2 SUB PUSH1 0x40 DUP4 ADD MSTORE PUSH2 0x2EAB DUP2 DUP7 PUSH2 0x2DA3 JUMP JUMPDEST SWAP1 POP DUP2 DUP2 SUB PUSH1 0x60 DUP4 ADD MSTORE PUSH2 0x2EBF DUP2 DUP6 PUSH2 0x2DA3 JUMP JUMPDEST SWAP1 POP PUSH2 0x2ECE PUSH1 0x80 DUP4 ADD DUP5 PUSH2 0x2AB2 JUMP JUMPDEST SWAP7 SWAP6 POP POP POP POP POP POP JUMP JUMPDEST PUSH0 DUP2 SWAP1 POP SWAP3 SWAP2 POP POP JUMP JUMPDEST PUSH0 PUSH2 0x2EEC DUP3 PUSH2 0x2ADA JUMP JUMPDEST PUSH2 0x2EF6 DUP2 DUP6 PUSH2 0x2ED8 JUMP JUMPDEST SWAP4 POP PUSH2 0x2F06 DUP2 DUP6 PUSH1 0x20 DUP7 ADD PUSH2 0x2AF4 JUMP JUMPDEST DUP1 DUP5 ADD SWAP2 POP POP SWAP3 SWAP2 POP POP JUMP JUMPDEST PUSH0 PUSH2 0x2F1D DUP3 DUP5 PUSH2 0x2EE2 JUMP JUMPDEST SWAP2 POP DUP2 SWAP1 POP SWAP3 SWAP2 POP POP JUMP JUMPDEST PUSH32 0x4E487B7100000000000000000000000000000000000000000000000000000000 PUSH0 MSTORE PUSH1 0x32 PUSH1 0x4 MSTORE PUSH1 0x24 PUSH0 REVERT JUMPDEST PUSH32 0x4E487B7100000000000000000000000000000000000000000000000000000000 PUSH0 MSTORE PUSH1 0x22 PUSH1 0x4 MSTORE PUSH1 0x24 PUSH0 REVERT JUMPDEST PUSH0 PUSH1 0x2 DUP3 DIV SWAP1 POP PUSH1 0x1 DUP3 AND DUP1 PUSH2 0x2F99 JUMPI PUSH1 0x7F DUP3 AND SWAP2 POP JUMPDEST PUSH1 0x20 DUP3 LT DUP2 SUB PUSH2 0x2FAC JUMPI PUSH2 0x2FAB PUSH2 0x2F55 JUMP JUMPDEST JUMPDEST POP SWAP2 SWAP1 POP JUMP JUMPDEST PUSH32 0x4E487B7100000000000000000000000000000000000000000000000000000000 PUSH0 MSTORE PUSH1 0x11 PUSH1 0x4 MSTORE PUSH1 0x24 PUSH0 REVERT JUMPDEST PUSH0 PUSH2 0x2FE9 DUP3 PUSH2 0x27C3 JUMP JUMPDEST SWAP2 POP PUSH32 0xFFFFFFFFFFFFFFFFFFFFFFFFFFFFFFFFFFFFFFFFFFFFFFFFFFFFFFFFFFFFFFFF DUP3 SUB PUSH2 0x301B JUMPI PUSH2 0x301A PUSH2 0x2FB2 JUMP JUMPDEST JUMPDEST PUSH1 0x1 DUP3 ADD SWAP1 POP SWAP2 SWAP1 POP JUMP JUMPDEST PUSH32 0x4E6F7420617574686F72697A6564000000000000000000000000000000000000 PUSH0 DUP3 ADD MSTORE POP JUMP JUMPDEST PUSH0 PUSH2 0x305A PUSH1 0xE DUP4 PUSH2 0x2D93 JUMP JUMPDEST SWAP2 POP PUSH2 0x3065 DUP3 PUSH2 0x3026 JUMP JUMPDEST PUSH1 0x20 DUP3 ADD SWAP1 POP SWAP2 SWAP1 POP JUMP JUMPDEST PUSH0 PUSH1 0x20 DUP3 ADD SWAP1 POP DUP2 DUP2 SUB PUSH0 DUP4 ADD MSTORE PUSH2 0x3087 DUP2 PUSH2 0x304E JUMP JUMPDEST SWAP1 POP SWAP2 SWAP1 POP JUMP JUMPDEST PUSH32 0x4D65726368616E74206E6F7420666F756E640000000000000000000000000000 PUSH0 DUP3 ADD MSTORE POP JUMP JUMPDEST PUSH0 PUSH2 0x30C2 PUSH1 0x12 DUP4 PUSH2 0x2D93 JUMP JUMPDEST SWAP2 POP PUSH2 0x30CD DUP3 PUSH2 0x308E JUMP JUMPDEST PUSH1 0x20 DUP3 ADD SWAP1 POP SWAP2 SWAP1 POP JUMP JUMPDEST PUSH0 PUSH1 0x20 DUP3 ADD SWAP1 POP DUP2 DUP2 SUB PUSH0 DUP4 ADD MSTORE PUSH2 0x30EF DUP2 PUSH2 0x30B6 JUMP JUMPDEST SWAP1 POP SWAP2 SWAP1 POP JUMP JUMPDEST PUSH32 0x41637469766520636F6465206E6F742065786973747300000000000000000000 PUSH0 DUP3 ADD MSTORE POP JUMP JUMPDEST PUSH0 PUSH2 0x312A PUSH1 0x16 DUP4 PUSH2 0x2D93 JUMP JUMPDEST SWAP2 POP PUSH2 0x3135 DUP3 PUSH2 0x30F6 JUMP JUMPDEST PUSH1 0x20 DUP3 ADD SWAP1 POP SWAP2 SWAP1 POP JUMP JUMPDEST PUSH0 PUSH1 0x20 DUP3 ADD SWAP1 POP DUP2 DUP2 SUB PUSH0 DUP4 ADD MSTORE PUSH2 0x3157 DUP2 PUSH2 0x311E JUMP JUMPDEST SWAP1 POP SWAP2 SWAP1 POP JUMP JUMPDEST PUSH32 0x41637469766520636F6465206E6F7420666F756E640000000000000000000000 PUSH0 DUP3 ADD MSTORE POP JUMP JUMPDEST PUSH0 PUSH2 0x3192 PUSH1 0x15 DUP4 PUSH2 0x2D93 JUMP JUMPDEST SWAP2 POP PUSH2 0x319D DUP3 PUSH2 0x315E JUMP JUMPDEST PUSH1 0x20 DUP3 ADD SWAP1 POP SWAP2 SWAP1 POP JUMP JUMPDEST PUSH0 PUSH1 0x20 DUP3 ADD SWAP1 POP DUP2 DUP2 SUB PUSH0 DUP4 ADD MSTORE PUSH2 0x31BF DUP2 PUSH2 0x3186 JUMP JUMPDEST SWAP1 POP SWAP2 SWAP1 POP JUMP JUMPDEST PUSH0 PUSH2 0x31D0 DUP3 PUSH2 0x27C3 JUMP JUMPDEST SWAP2 POP PUSH2 0x31DB DUP4 PUSH2 0x27C3 JUMP JUMPDEST SWAP3 POP DUP3 DUP3 SUB SWAP1 POP DUP2 DUP2 GT ISZERO PUSH2 0x31F3 JUMPI PUSH2 0x31F2 PUSH2 0x2FB2 JUMP JUMPDEST JUMPDEST SWAP3 SWAP2 POP POP JUMP JUMPDEST PUSH32 0x4E487B7100000000000000000000000000000000000000000000000000000000 PUSH0 MSTORE PUSH1 0x31 PUSH1 0x4 MSTORE PUSH1 0x24 PUSH0 REVERT JUMPDEST PUSH0 DUP2 SWAP1 POP DUP2 PUSH0 MSTORE PUSH1 0x20 PUSH0 KECCAK256 SWAP1 POP SWAP2 SWAP1 POP JUMP JUMPDEST PUSH0 PUSH1 0x20 PUSH1 0x1F DUP4 ADD DIV SWAP1 POP SWAP2 SWAP1 POP JUMP JUMPDEST PUSH0 DUP3 DUP3 SHL SWAP1 POP SWAP3 SWAP2 POP POP JUMP JUMPDEST PUSH0 PUSH1 0x8 DUP4 MUL PUSH2 0x3282 PUSH32 0xFFFFFFFFFFFFFFFFFFFFFFFFFFFFFFFFFFFFFFFFFFFFFFFFFFFFFFFFFFFFFFFF DUP3 PUSH2 0x3247 JUMP JUMPDEST PUSH2 0x328C DUP7 DUP4 PUSH2 0x3247 JUMP JUMPDEST SWAP6 POP DUP1 NOT DUP5 AND SWAP4 POP DUP1 DUP7 AND DUP5 OR SWAP3 POP POP POP SWAP4 SWAP3 POP POP POP JUMP JUMPDEST PUSH0 DUP2 SWAP1 POP SWAP2 SWAP1 POP JUMP JUMPDEST PUSH0 PUSH2 0x32C7 PUSH2 0x32C2 PUSH2 0x32BD DUP5 PUSH2 0x27C3 JUMP JUMPDEST PUSH2 0x32A4 JUMP JUMPDEST PUSH2 0x27C3 JUMP JUMPDEST SWAP1 POP SWAP2 SWAP1 POP JUMP JUMPDEST PUSH0 DUP2 SWAP1 POP SWAP2 SWAP1 POP JUMP JUMPDEST PUSH2 0x32E0 DUP4 PUSH2 0x32AD JUMP JUMPDEST PUSH2 0x32F4 PUSH2 0x32EC DUP3 PUSH2 0x32CE JUMP JUMPDEST DUP5 DUP5 SLOAD PUSH2 0x3253 JUMP JUMPDEST DUP3 SSTORE POP POP POP POP JUMP JUMPDEST PUSH0 SWAP1 JUMP JUMPDEST PUSH2 0x3308 PUSH2 0x32FC JUMP JUMPDEST PUSH2 0x3313 DUP2 DUP5 DUP5 PUSH2 0x32D7 JUMP JUMPDEST POP POP POP JUMP JUMPDEST JUMPDEST DUP2 DUP2 LT ISZERO PUSH2 0x3336 JUMPI PUSH2 0x332B PUSH0 DUP3 PUSH2 0x3300 JUMP JUMPDEST PUSH1 0x1 DUP2 ADD SWAP1 POP PUSH2 0x3319 JUMP JUMPDEST POP POP JUMP JUMPDEST PUSH1 0x1F DUP3 GT ISZERO PUSH2 0x337B JUMPI PUSH2 0x334C DUP2 PUSH2 0x3226 JUMP JUMPDEST PUSH2 0x3355 DUP5 PUSH2 0x3238 JUMP JUMPDEST DUP2 ADD PUSH1 0x20 DUP6 LT ISZERO PUSH2 0x3364 JUMPI DUP2 SWAP1 POP JUMPDEST PUSH2 0x3378 PUSH2 0x3370 DUP6 PUSH2 0x3238 JUMP JUMPDEST DUP4 ADD DUP3 PUSH2 0x3318 JUMP JUMPDEST POP POP JUMPDEST POP POP POP JUMP JUMPDEST PUSH0 DUP3 DUP3 SHR SWAP1 POP SWAP3 SWAP2 POP POP JUMP JUMPDEST PUSH0 PUSH2 0x339B PUSH0 NOT DUP5 PUSH1 0x8 MUL PUSH2 0x3380 JUMP JUMPDEST NOT DUP1 DUP4 AND SWAP2 POP POP SWAP3 SWAP2 POP POP JUMP JUMPDEST PUSH0 PUSH2 0x33B3 DUP4 DUP4 PUSH2 0x338C JUMP JUMPDEST SWAP2 POP DUP3 PUSH1 0x2 MUL DUP3 OR SWAP1 POP SWAP3 SWAP2 POP POP JUMP JUMPDEST PUSH2 0x33CC DUP3 PUSH2 0x2ADA JUMP JUMPDEST PUSH8 0xFFFFFFFFFFFFFFFF DUP2 GT ISZERO PUSH2 0x33E5 JUMPI PUSH2 0x33E4 PUSH2 0x25A2 JUMP JUMPDEST JUMPDEST PUSH2 0x33EF DUP3 SLOAD PUSH2 0x2F82 JUMP JUMPDEST PUSH2 0x33FA DUP3 DUP3 DUP6 PUSH2 0x333A JUMP JUMPDEST PUSH0 PUSH1 0x20 SWAP1 POP PUSH1 0x1F DUP4 GT PUSH1 0x1 DUP2 EQ PUSH2 0x342B JUMPI PUSH0 DUP5 ISZERO PUSH2 0x3419 JUMPI DUP3 DUP8 ADD MLOAD SWAP1 POP JUMPDEST PUSH2 0x3423 DUP6 DUP3 PUSH2 0x33A8 JUMP JUMPDEST DUP7 SSTORE POP PUSH2 0x348A JUMP JUMPDEST PUSH1 0x1F NOT DUP5 AND PUSH2 0x3439 DUP7 PUSH2 0x3226 JUMP JUMPDEST PUSH0 JUMPDEST DUP3 DUP2 LT ISZERO PUSH2 0x3460 JUMPI DUP5 DUP10 ADD MLOAD DUP3 SSTORE PUSH1 0x1 DUP3 ADD SWAP2 POP PUSH1 0x20 DUP6 ADD SWAP5 POP PUSH1 0x20 DUP2 ADD SWAP1 POP PUSH2 0x343B JUMP JUMPDEST DUP7 DUP4 LT ISZERO PUSH2 0x347D JUMPI DUP5 DUP10 ADD MLOAD PUSH2 0x3479 PUSH1 0x1F DUP10 AND DUP3 PUSH2 0x338C JUMP JUMPDEST DUP4 SSTORE POP JUMPDEST PUSH1 0x1 PUSH1 0x2 DUP9 MUL ADD DUP9 SSTORE POP POP POP JUMPDEST POP POP POP POP POP POP JUMP JUMPDEST PUSH32 0x4D65726368616E7420616C726561647920657869737473000000000000000000 PUSH0 DUP3 ADD MSTORE POP JUMP JUMPDEST PUSH0 PUSH2 0x34C6 PUSH1 0x17 DUP4 PUSH2 0x2D93 JUMP JUMPDEST SWAP2 POP PUSH2 0x34D1 DUP3 PUSH2 0x3492 JUMP JUMPDEST PUSH1 0x20 DUP3 ADD SWAP1 POP SWAP2 SWAP1 POP JUMP JUMPDEST PUSH0 PUSH1 0x20 DUP3 ADD SWAP1 POP DUP2 DUP2 SUB PUSH0 DUP4 ADD MSTORE PUSH2 0x34F3 DUP2 PUSH2 0x34BA JUMP JUMPDEST SWAP1 POP SWAP2 SWAP1 POP JUMP JUMPDEST PUSH0 PUSH1 0x20 DUP3 ADD SWAP1 POP DUP2 DUP2 SUB PUSH0 DUP4 ADD MSTORE PUSH2 0x3512 DUP2 DUP5 PUSH2 0x2DA3 JUMP JUMPDEST SWAP1 POP SWAP3 SWAP2 POP POP JUMP JUMPDEST PUSH32 0x496E76616C69642061637469766174696F6E20636F646520666F726D61740000 PUSH0 DUP3 ADD MSTORE POP JUMP JUMPDEST PUSH0 PUSH2 0x354E PUSH1 0x1E DUP4 PUSH2 0x2D93 JUMP JUMPDEST SWAP2 POP PUSH2 0x3559 DUP3 PUSH2 0x351A JUMP JUMPDEST PUSH1 0x20 DUP3 ADD SWAP1 POP SWAP2 SWAP1 POP JUMP JUMPDEST PUSH0 PUSH1 0x20 DUP3 ADD SWAP1 POP DUP2 DUP2 SUB PUSH0 DUP4 ADD MSTORE PUSH2 0x357B DUP2 PUSH2 0x3542 JUMP JUMPDEST SWAP1 POP SWAP2 SWAP1 POP JUMP JUMPDEST PUSH32 0x4E487B7100000000000000000000000000000000000000000000000000000000 PUSH0 MSTORE PUSH1 0x12 PUSH1 0x4 MSTORE PUSH1 0x24 PUSH0 REVERT JUMPDEST PUSH0 PUSH2 0x35B9 DUP3 PUSH2 0x27C3 JUMP JUMPDEST SWAP2 POP PUSH2 0x35C4 DUP4 PUSH2 0x27C3 JUMP JUMPDEST SWAP3 POP DUP3 PUSH2 0x35D4 JUMPI PUSH2 0x35D3 PUSH2 0x3582 JUMP JUMPDEST JUMPDEST DUP3 DUP3 MOD SWAP1 POP SWAP3 SWAP2 POP POP JUMP JUMPDEST PUSH0 PUSH2 0x35E9 DUP3 PUSH2 0x27C3 JUMP JUMPDEST SWAP2 POP PUSH2 0x35F4 DUP4 PUSH2 0x27C3 JUMP JUMPDEST SWAP3 POP DUP3 PUSH2 0x3604 JUMPI PUSH2 0x3603 PUSH2 0x3582 JUMP JUMPDEST JUMPDEST DUP3 DUP3 DIV SWAP1 POP SWAP3 SWAP2 POP POP JUMP JUMPDEST PUSH0 PUSH2 0x3619 DUP3 PUSH2 0x27C3 JUMP JUMPDEST SWAP2 POP PUSH2 0x3624 DUP4 PUSH2 0x27C3 JUMP JUMPDEST SWAP3 POP DUP3 DUP3 MUL PUSH2 0x3632 DUP2 PUSH2 0x27C3 JUMP JUMPDEST SWAP2 POP DUP3 DUP3 DIV DUP5 EQ DUP4 ISZERO OR PUSH2 0x3649 JUMPI PUSH2 0x3648 PUSH2 0x2FB2 JUMP JUMPDEST JUMPDEST POP SWAP3 SWAP2 POP POP JUMP JUMPDEST PUSH0 PUSH2 0x365A DUP3 PUSH2 0x27C3 JUMP JUMPDEST SWAP2 POP PUSH2 0x3665 DUP4 PUSH2 0x27C3 JUMP JUMPDEST SWAP3 POP DUP3 DUP3 ADD SWAP1 POP DUP1 DUP3 GT ISZERO PUSH2 0x367D JUMPI PUSH2 0x367C PUSH2 0x2FB2 JUMP JUMPDEST JUMPDEST SWAP3 SWAP2 POP POP JUMP JUMPDEST PUSH0 DUP2 SWAP1 POP SWAP2 SWAP1 POP JUMP JUMPDEST PUSH2 0x369D PUSH2 0x3698 DUP3 PUSH2 0x27C3 JUMP JUMPDEST PUSH2 0x3683 JUMP JUMPDEST DUP3 MSTORE POP POP JUMP JUMPDEST PUSH0 DUP2 PUSH1 0x60 SHL SWAP1 POP SWAP2 SWAP1 POP JUMP JUMPDEST PUSH0 PUSH2 0x36B9 DUP3 PUSH2 0x36A3 JUMP JUMPDEST SWAP1 POP SWAP2 SWAP1 POP JUMP JUMPDEST PUSH0 PUSH2 0x36CA DUP3 PUSH2 0x36AF JUMP JUMPDEST SWAP1 POP SWAP2 SWAP1 POP JUMP JUMPDEST PUSH2 0x36E2 PUSH2 0x36DD DUP3 PUSH2 0x28EE JUMP JUMPDEST PUSH2 0x36C0 JUMP JUMPDEST DUP3 MSTORE POP POP JUMP JUMPDEST PUSH0 PUSH2 0x36F3 DUP3 DUP6 PUSH2 0x368C JUMP JUMPDEST PUSH1 0x20 DUP3 ADD SWAP2 POP PUSH2 0x3703 DUP3 DUP5 PUSH2 0x36D1 JUMP JUMPDEST PUSH1 0x14 DUP3 ADD SWAP2 POP DUP2 SWAP1 POP SWAP4 SWAP3 POP POP POP JUMP JUMPDEST PUSH0 DUP2 PUSH1 0x1 SHR SWAP1 POP SWAP2 SWAP1 POP JUMP JUMPDEST PUSH0 DUP1 DUP3 SWAP2 POP DUP4 SWAP1 POP JUMPDEST PUSH1 0x1 DUP6 GT ISZERO PUSH2 0x3768 JUMPI DUP1 DUP7 DIV DUP2 GT ISZERO PUSH2 0x3744 JUMPI PUSH2 0x3743 PUSH2 0x2FB2 JUMP JUMPDEST JUMPDEST PUSH1 0x1 DUP6 AND ISZERO PUSH2 0x3753 JUMPI DUP1 DUP3 MUL SWAP2 POP JUMPDEST DUP1 DUP2 MUL SWAP1 POP PUSH2 0x3761 DUP6 PUSH2 0x3713 JUMP JUMPDEST SWAP5 POP PUSH2 0x3728 JUMP JUMPDEST SWAP5 POP SWAP5 SWAP3 POP POP POP JUMP JUMPDEST PUSH0 DUP3 PUSH2 0x3780 JUMPI PUSH1 0x1 SWAP1 POP PUSH2 0x383B JUMP JUMPDEST DUP2 PUSH2 0x378D JUMPI PUSH0 SWAP1 POP PUSH2 0x383B JUMP JUMPDEST DUP2 PUSH1 0x1 DUP2 EQ PUSH2 0x37A3 JUMPI PUSH1 0x2 DUP2 EQ PUSH2 0x37AD JUMPI PUSH2 0x37DC JUMP JUMPDEST PUSH1 0x1 SWAP2 POP POP PUSH2 0x383B JUMP JUMPDEST PUSH1 0xFF DUP5 GT ISZERO PUSH2 0x37BF JUMPI PUSH2 0x37BE PUSH2 0x2FB2 JUMP JUMPDEST JUMPDEST DUP4 PUSH1 0x2 EXP SWAP2 POP DUP5 DUP3 GT ISZERO PUSH2 0x37D6 JUMPI PUSH2 0x37D5 PUSH2 0x2FB2 JUMP JUMPDEST JUMPDEST POP PUSH2 0x383B JUMP JUMPDEST POP PUSH1 0x20 DUP4 LT PUSH2 0x133 DUP4 LT AND PUSH1 0x4E DUP5 LT PUSH1 0xB DUP5 LT AND OR ISZERO PUSH2 0x3811 JUMPI DUP3 DUP3 EXP SWAP1 POP DUP4 DUP2 GT ISZERO PUSH2 0x380C JUMPI PUSH2 0x380B PUSH2 0x2FB2 JUMP JUMPDEST JUMPDEST PUSH2 0x383B JUMP JUMPDEST PUSH2 0x381E DUP5 DUP5 DUP5 PUSH1 0x1 PUSH2 0x371F JUMP JUMPDEST SWAP3 POP SWAP1 POP DUP2 DUP5 DIV DUP2 GT ISZERO PUSH2 0x3835 JUMPI PUSH2 0x3834 PUSH2 0x2FB2 JUMP JUMPDEST JUMPDEST DUP2 DUP2 MUL SWAP1 POP JUMPDEST SWAP4 SWAP3 POP POP POP JUMP JUMPDEST PUSH0 PUSH2 0x384C DUP3 PUSH2 0x27C3 JUMP JUMPDEST SWAP2 POP PUSH2 0x3857 DUP4 PUSH2 0x27C3 JUMP JUMPDEST SWAP3 POP PUSH2 0x3884 PUSH32 0xFFFFFFFFFFFFFFFFFFFFFFFFFFFFFFFFFFFFFFFFFFFFFFFFFFFFFFFFFFFFFFFF DUP5 DUP5 PUSH2 0x3771 JUMP JUMPDEST SWAP1 POP SWAP3 SWAP2 POP POP JUMP INVALID LOG2 PUSH5 0x6970667358 0x22 SLT KECCAK256 0x26 0xB1 PUSH15 0x441DB2186AEB0DA1C597BDFE979C3E GASPRICE SWAP15 0x4F DUP3 PUSH10 0x3102555FB3A380237F64 PUSH20 0x6F6C634300081A00330000000000000000000000 "
				},
				"gasEstimates": {
					"creation": {
						"codeDepositCost": "2906000",
						"executionCost": "76155",
						"totalCost": "2982155"
					},
					"external": {
						"activeCodeToDevice(uint256)": "2873",
						"addMerchant(address,string,string,string,string)": "infinite",
						"devices(address)": "infinite",
						"getActiveCodeInfo(uint256)": "infinite",
						"getActiveCodesByDeviceInfo(string,string,string,string)": "infinite",
						"getRegisterDevice()": "2591",
						"isAdmin(address)": "2856",
						"merchants(address)": "infinite",
						"owner()": "2550",
						"registerDevice(string,string,string,string,string)": "infinite",
						"removeExpiredData()": "infinite",
						"removeMerchant(address)": "infinite",
						"setAdmin(address)": "27083",
						"updateMerchant(string,string,string,string)": "infinite",
						"useActiveCodeInfo(uint256)": "infinite"
					},
					"internal": {
						"compareStrings(string memory,string memory)": "infinite"
					}
				},
				"methodIdentifiers": {
					"activeCodeToDevice(uint256)": "0b75c58f",
					"addMerchant(address,string,string,string,string)": "d4dd4b47",
					"devices(address)": "e7b4cac6",
					"getActiveCodeInfo(uint256)": "cef33810",
					"getActiveCodesByDeviceInfo(string,string,string,string)": "044866cc",
					"getRegisterDevice()": "eef814d3",
					"isAdmin(address)": "24d7806c",
					"merchants(address)": "ee14e939",
					"owner()": "8da5cb5b",
					"registerDevice(string,string,string,string,string)": "53929cec",
					"removeExpiredData()": "3ab0639b",
					"removeMerchant(address)": "133adab6",
					"setAdmin(address)": "704b6c02",
					"updateMerchant(string,string,string,string)": "f4f97658",
					"useActiveCodeInfo(uint256)": "24e8779f"
				}
			},
			"storageLayout": {
				"storage": [
					{
						"astId": 250,
						"contract": "src/activeCode_10.3.sol:MerchantActiveCode",
						"label": "owner",
						"offset": 0,
						"slot": "0",
						"type": "t_address"
					},
					{
						"astId": 281,
						"contract": "src/activeCode_10.3.sol:MerchantActiveCode",
						"label": "merchants",
						"offset": 0,
						"slot": "1",
						"type": "t_mapping(t_address,t_struct(Merchant)261_storage)"
					},
					{
						"astId": 286,
						"contract": "src/activeCode_10.3.sol:MerchantActiveCode",
						"label": "devices",
						"offset": 0,
						"slot": "2",
						"type": "t_mapping(t_address,t_struct(Device)276_storage)"
					},
					{
						"astId": 290,
						"contract": "src/activeCode_10.3.sol:MerchantActiveCode",
						"label": "activeCodeToDevice",
						"offset": 0,
						"slot": "3",
						"type": "t_mapping(t_uint256,t_address)"
					},
					{
						"astId": 295,
						"contract": "src/activeCode_10.3.sol:MerchantActiveCode",
						"label": "activeCodeByIP",
						"offset": 0,
						"slot": "4",
						"type": "t_mapping(t_string_memory_ptr,t_array(t_uint256)dyn_storage)"
					},
					{
						"astId": 327,
						"contract": "src/activeCode_10.3.sol:MerchantActiveCode",
						"label": "isAdmin",
						"offset": 0,
						"slot": "5",
						"type": "t_mapping(t_address,t_bool)"
					}
				],
				"types": {
					"t_address": {
						"encoding": "inplace",
						"label": "address",
						"numberOfBytes": "20"
					},
					"t_array(t_uint256)dyn_storage": {
						"base": "t_uint256",
						"encoding": "dynamic_array",
						"label": "uint256[]",
						"numberOfBytes": "32"
					},
					"t_bool": {
						"encoding": "inplace",
						"label": "bool",
						"numberOfBytes": "1"
					},
					"t_mapping(t_address,t_bool)": {
						"encoding": "mapping",
						"key": "t_address",
						"label": "mapping(address => bool)",
						"numberOfBytes": "32",
						"value": "t_bool"
					},
					"t_mapping(t_address,t_struct(Device)276_storage)": {
						"encoding": "mapping",
						"key": "t_address",
						"label": "mapping(address => struct MerchantActiveCode.Device)",
						"numberOfBytes": "32",
						"value": "t_struct(Device)276_storage"
					},
					"t_mapping(t_address,t_struct(Merchant)261_storage)": {
						"encoding": "mapping",
						"key": "t_address",
						"label": "mapping(address => struct MerchantActiveCode.Merchant)",
						"numberOfBytes": "32",
						"value": "t_struct(Merchant)261_storage"
					},
					"t_mapping(t_string_memory_ptr,t_array(t_uint256)dyn_storage)": {
						"encoding": "mapping",
						"key": "t_string_memory_ptr",
						"label": "mapping(string => uint256[])",
						"numberOfBytes": "32",
						"value": "t_array(t_uint256)dyn_storage"
					},
					"t_mapping(t_uint256,t_address)": {
						"encoding": "mapping",
						"key": "t_uint256",
						"label": "mapping(uint256 => address)",
						"numberOfBytes": "32",
						"value": "t_address"
					},
					"t_string_memory_ptr": {
						"encoding": "bytes",
						"label": "string",
						"numberOfBytes": "32"
					},
					"t_string_storage": {
						"encoding": "bytes",
						"label": "string",
						"numberOfBytes": "32"
					},
					"t_struct(Device)276_storage": {
						"encoding": "inplace",
						"label": "struct MerchantActiveCode.Device",
						"members": [
							{
								"astId": 263,
								"contract": "src/activeCode_10.3.sol:MerchantActiveCode",
								"label": "IP",
								"offset": 0,
								"slot": "0",
								"type": "t_string_storage"
							},
							{
								"astId": 265,
								"contract": "src/activeCode_10.3.sol:MerchantActiveCode",
								"label": "screenSize",
								"offset": 0,
								"slot": "1",
								"type": "t_string_storage"
							},
							{
								"astId": 267,
								"contract": "src/activeCode_10.3.sol:MerchantActiveCode",
								"label": "os",
								"offset": 0,
								"slot": "2",
								"type": "t_string_storage"
							},
							{
								"astId": 269,
								"contract": "src/activeCode_10.3.sol:MerchantActiveCode",
								"label": "versionOs",
								"offset": 0,
								"slot": "3",
								"type": "t_string_storage"
							},
							{
								"astId": 271,
								"contract": "src/activeCode_10.3.sol:MerchantActiveCode",
								"label": "refCode",
								"offset": 0,
								"slot": "4",
								"type": "t_string_storage"
							},
							{
								"astId": 273,
								"contract": "src/activeCode_10.3.sol:MerchantActiveCode",
								"label": "activeCode",
								"offset": 0,
								"slot": "5",
								"type": "t_uint256"
							},
							{
								"astId": 275,
								"contract": "src/activeCode_10.3.sol:MerchantActiveCode",
								"label": "timestamp",
								"offset": 0,
								"slot": "6",
								"type": "t_uint256"
							}
						],
						"numberOfBytes": "224"
					},
					"t_struct(Merchant)261_storage": {
						"encoding": "inplace",
						"label": "struct MerchantActiveCode.Merchant",
						"members": [
							{
								"astId": 252,
								"contract": "src/activeCode_10.3.sol:MerchantActiveCode",
								"label": "domain",
								"offset": 0,
								"slot": "0",
								"type": "t_string_storage"
							},
							{
								"astId": 254,
								"contract": "src/activeCode_10.3.sol:MerchantActiveCode",
								"label": "installUrl",
								"offset": 0,
								"slot": "1",
								"type": "t_string_storage"
							},
							{
								"astId": 256,
								"contract": "src/activeCode_10.3.sol:MerchantActiveCode",
								"label": "bundleId",
								"offset": 0,
								"slot": "2",
								"type": "t_string_storage"
							},
							{
								"astId": 258,
								"contract": "src/activeCode_10.3.sol:MerchantActiveCode",
								"label": "platform",
								"offset": 0,
								"slot": "3",
								"type": "t_string_storage"
							},
							{
								"astId": 260,
								"contract": "src/activeCode_10.3.sol:MerchantActiveCode",
								"label": "createTime",
								"offset": 0,
								"slot": "4",
								"type": "t_uint256"
							}
						],
						"numberOfBytes": "160"
					},
					"t_uint256": {
						"encoding": "inplace",
						"label": "uint256",
						"numberOfBytes": "32"
					}
				}
			},
			"userdoc": {
				"kind": "user",
				"methods": {},
				"version": 1
			}
		}
	}
}