{
	"src/noti.sol": {
		"NotiFactory": {
			"abi": [
				{
					"inputs": [],
					"stateMutability": "nonpayable",
					"type": "constructor"
				},
				{
					"inputs": [
						{
							"internalType": "address",
							"name": "owner",
							"type": "address"
						}
					],
					"name": "OwnableInvalidOwner",
					"type": "error"
				},
				{
					"inputs": [
						{
							"internalType": "address",
							"name": "account",
							"type": "address"
						}
					],
					"name": "OwnableUnauthorizedAccount",
					"type": "error"
				},
				{
					"anonymous": false,
					"inputs": [
						{
							"indexed": true,
							"internalType": "address",
							"name": "dappOwner",
							"type": "address"
						},
						{
							"indexed": false,
							"internalType": "address",
							"name": "permissionManager",
							"type": "address"
						},
						{
							"indexed": false,
							"internalType": "address",
							"name": "notiStorage",
							"type": "address"
						}
					],
					"name": "DappRegistered",
					"type": "event"
				},
				{
					"anonymous": false,
					"inputs": [
						{
							"indexed": true,
							"internalType": "address",
							"name": "previousOwner",
							"type": "address"
						},
						{
							"indexed": true,
							"internalType": "address",
							"name": "newOwner",
							"type": "address"
						}
					],
					"name": "OwnershipTransferred",
					"type": "event"
				},
				{
					"anonymous": false,
					"inputs": [
						{
							"indexed": true,
							"internalType": "address",
							"name": "user",
							"type": "address"
						},
						{
							"indexed": true,
							"internalType": "address",
							"name": "dapp",
							"type": "address"
						},
						{
							"indexed": false,
							"internalType": "address",
							"name": "permissionManager",
							"type": "address"
						},
						{
							"indexed": false,
							"internalType": "bytes32",
							"name": "publicKey",
							"type": "bytes32"
						},
						{
							"indexed": false,
							"internalType": "bytes",
							"name": "encryptedDeviceToken",
							"type": "bytes"
						}
					],
					"name": "UserSubscribed",
					"type": "event"
				},
				{
					"anonymous": false,
					"inputs": [
						{
							"indexed": true,
							"internalType": "address",
							"name": "user",
							"type": "address"
						},
						{
							"indexed": true,
							"internalType": "address",
							"name": "dapp",
							"type": "address"
						},
						{
							"indexed": false,
							"internalType": "address",
							"name": "permissionManager",
							"type": "address"
						}
					],
					"name": "UserSubscribed",
					"type": "event"
				},
				{
					"inputs": [
						{
							"internalType": "uint256",
							"name": "",
							"type": "uint256"
						}
					],
					"name": "dappList",
					"outputs": [
						{
							"internalType": "address",
							"name": "",
							"type": "address"
						}
					],
					"stateMutability": "view",
					"type": "function"
				},
				{
					"inputs": [
						{
							"internalType": "address",
							"name": "",
							"type": "address"
						}
					],
					"name": "dappToContracts",
					"outputs": [
						{
							"internalType": "address",
							"name": "permissionManager",
							"type": "address"
						},
						{
							"internalType": "address",
							"name": "notiStorage",
							"type": "address"
						}
					],
					"stateMutability": "view",
					"type": "function"
				},
				{
					"inputs": [],
					"name": "getAllDapps",
					"outputs": [
						{
							"internalType": "address[]",
							"name": "",
							"type": "address[]"
						}
					],
					"stateMutability": "view",
					"type": "function"
				},
				{
					"inputs": [
						{
							"internalType": "address",
							"name": "dappOwner",
							"type": "address"
						}
					],
					"name": "getDappContracts",
					"outputs": [
						{
							"internalType": "address",
							"name": "",
							"type": "address"
						},
						{
							"internalType": "address",
							"name": "",
							"type": "address"
						}
					],
					"stateMutability": "view",
					"type": "function"
				},
				{
					"inputs": [],
					"name": "notiHub",
					"outputs": [
						{
							"internalType": "contract NotiHub",
							"name": "",
							"type": "address"
						}
					],
					"stateMutability": "view",
					"type": "function"
				},
				{
					"inputs": [],
					"name": "owner",
					"outputs": [
						{
							"internalType": "address",
							"name": "",
							"type": "address"
						}
					],
					"stateMutability": "view",
					"type": "function"
				},
				{
					"inputs": [],
					"name": "registerDapp",
					"outputs": [],
					"stateMutability": "nonpayable",
					"type": "function"
				},
				{
					"inputs": [],
					"name": "renounceOwnership",
					"outputs": [],
					"stateMutability": "nonpayable",
					"type": "function"
				},
				{
					"inputs": [
						{
							"internalType": "address",
							"name": "_notiHub",
							"type": "address"
						}
					],
					"name": "setNotiHub",
					"outputs": [],
					"stateMutability": "nonpayable",
					"type": "function"
				},
				{
					"inputs": [
						{
							"internalType": "address",
							"name": "dappOwner",
							"type": "address"
						},
						{
							"internalType": "bytes32",
							"name": "publicKey",
							"type": "bytes32"
						},
						{
							"internalType": "bytes",
							"name": "encryptedDeviceToken",
							"type": "bytes"
						}
					],
					"name": "subscribeUser",
					"outputs": [],
					"stateMutability": "nonpayable",
					"type": "function"
				},
				{
					"inputs": [
						{
							"internalType": "address",
							"name": "newOwner",
							"type": "address"
						}
					],
					"name": "transferOwnership",
					"outputs": [],
					"stateMutability": "nonpayable",
					"type": "function"
				}
			],
			"devdoc": {
				"errors": {
					"OwnableInvalidOwner(address)": [
						{
							"details": "The owner is not a valid owner account. (eg. `address(0)`)"
						}
					],
					"OwnableUnauthorizedAccount(address)": [
						{
							"details": "The caller account is not authorized to perform an operation."
						}
					]
				},
				"events": {
					"UserSubscribed(address,address,address,bytes32,bytes)": {
						"params": {
							"dapp": "Äá»‹a chá»‰ Dapp",
							"encryptedDeviceToken": "Token cá»§a device Ä‘Ã£ mÃ£ hÃ³a",
							"permissionManager": "Äá»‹a chá»‰ contract PermissionManager cá»§a Dapp",
							"publicKey": "Public key ngáº«u nhiÃªn cá»§a user dÃ¹ng Ä‘á»ƒ mÃ£ hÃ³a ECDH",
							"user": "Äá»‹a chá»‰ user Ä‘Äƒng kÃ½"
						}
					}
				},
				"kind": "dev",
				"methods": {
					"getAllDapps()": {
						"returns": {
							"_0": "address[] Danh sÃ¡ch Dapp"
						}
					},
					"getDappContracts(address)": {
						"params": {
							"dappOwner": "Äá»‹a chá»‰ Dapp"
						},
						"returns": {
							"_0": "(address, address) Äá»‹a chá»‰ PermissionManager & NotiStorage"
						}
					},
					"owner()": {
						"details": "Returns the address of the current owner."
					},
					"registerDapp()": {
						"details": "Chá»‰ cáº§n gá»i 1 láº§n duy nháº¥t, sáº½ triá»ƒn khai PermissionManager & NotiStorage"
					},
					"renounceOwnership()": {
						"details": "Leaves the contract without owner. It will not be possible to call `onlyOwner` functions. Can only be called by the current owner. NOTE: Renouncing ownership will leave the contract without an owner, thereby disabling any functionality that is only available to the owner."
					},
					"subscribeUser(address,bytes32,bytes)": {
						"details": "Gá»­i kÃ¨m token cá»§a device (Ä‘Ã£ mÃ£ hÃ³a báº±ng ECDH) + public key cá»§a user",
						"params": {
							"dappOwner": "Äá»‹a chá»‰ cá»§a Dapp cáº§n Ä‘Äƒng kÃ½",
							"encryptedDeviceToken": "Token cá»§a device Ä‘Ã£ mÃ£ hÃ³a",
							"publicKey": "Public key ngáº«u nhiÃªn cá»§a user Ä‘á»ƒ backend dÃ¹ng ECDH giáº£i mÃ£"
						}
					},
					"transferOwnership(address)": {
						"details": "Transfers ownership of the contract to a new account (`newOwner`). Can only be called by the current owner."
					}
				},
				"version": 1
			},
			"evm": {
				"assembly": "    /* \"src/noti.sol\":8465:12334  contract NotiFactory is Ownable {... */\n  mstore(0x40, 0x80)\n    /* \"src/noti.sol\":9660:9695  constructor() Ownable(msg.sender){} */\n  callvalue\n  dup1\n  iszero\n  tag_1\n  jumpi\n  0x00\n  dup1\n  revert\ntag_1:\n  pop\n    /* \"src/noti.sol\":9682:9692  msg.sender */\n  caller\n  dup1\n    /* \"@openzeppelin/contracts/access/Ownable.sol\":1269:1364  if (initialOwner == address(0)) {... */\n  tag_5\n  jumpi\n    /* \"@openzeppelin/contracts/access/Ownable.sol\":1322:1353  OwnableInvalidOwner(address(0)) */\n  mload(0x40)\n  shl(0xe0, 0x1e4fbdf7)\n  dup2\n  mstore\n    /* \"@openzeppelin/contracts/access/Ownable.sol\":1350:1351  0 */\n  0x00\n    /* \"@openzeppelin/contracts/access/Ownable.sol\":1322:1353  OwnableInvalidOwner(address(0)) */\n  0x04\n  dup3\n  add\n    /* \"#utility.yul\":160:211   */\n  mstore\n    /* \"#utility.yul\":133:151   */\n  0x24\n  add\n    /* \"@openzeppelin/contracts/access/Ownable.sol\":1322:1353  OwnableInvalidOwner(address(0)) */\n  mload(0x40)\n  dup1\n  swap2\n  sub\n  swap1\n  revert\n    /* \"@openzeppelin/contracts/access/Ownable.sol\":1269:1364  if (initialOwner == address(0)) {... */\ntag_5:\n    /* \"@openzeppelin/contracts/access/Ownable.sol\":1373:1405  _transferOwnership(initialOwner) */\n  tag_8\n    /* \"@openzeppelin/contracts/access/Ownable.sol\":1392:1404  initialOwner */\n  dup2\n    /* \"@openzeppelin/contracts/access/Ownable.sol\":1373:1391  _transferOwnership */\n  tag_9\n    /* \"@openzeppelin/contracts/access/Ownable.sol\":1373:1405  _transferOwnership(initialOwner) */\n  jump\t// in\ntag_8:\n    /* \"@openzeppelin/contracts/access/Ownable.sol\":1225:1412  constructor(address initialOwner) {... */\n  pop\n    /* \"src/noti.sol\":8465:12334  contract NotiFactory is Ownable {... */\n  jump(tag_13)\n    /* \"@openzeppelin/contracts/access/Ownable.sol\":2912:3099  function _transferOwnership(address newOwner) internal virtual {... */\ntag_9:\n    /* \"@openzeppelin/contracts/access/Ownable.sol\":2985:3001  address oldOwner */\n  0x00\n    /* \"@openzeppelin/contracts/access/Ownable.sol\":3004:3010  _owner */\n  dup1\n  sload\n  sub(shl(0xa0, 0x01), 0x01)\n    /* \"@openzeppelin/contracts/access/Ownable.sol\":3020:3037  _owner = newOwner */\n  dup4\n  dup2\n  and\n  not(sub(shl(0xa0, 0x01), 0x01))\n  dup4\n  and\n  dup2\n  or\n  dup5\n  sstore\n    /* \"@openzeppelin/contracts/access/Ownable.sol\":3052:3092  OwnershipTransferred(oldOwner, newOwner) */\n  mload(0x40)\n    /* \"@openzeppelin/contracts/access/Ownable.sol\":3004:3010  _owner */\n  swap2\n  swap1\n  swap3\n  and\n  swap3\n  dup4\n  swap2\n    /* \"@openzeppelin/contracts/access/Ownable.sol\":3052:3092  OwnershipTransferred(oldOwner, newOwner) */\n  0x8be0079c531659141344cd1fd0a4f28419497f9722a3daafe3b4186f6b6457e0\n  swap2\n    /* \"@openzeppelin/contracts/access/Ownable.sol\":2985:3001  address oldOwner */\n  swap1\n    /* \"@openzeppelin/contracts/access/Ownable.sol\":3052:3092  OwnershipTransferred(oldOwner, newOwner) */\n  log3\n    /* \"@openzeppelin/contracts/access/Ownable.sol\":2975:3099  {... */\n  pop\n    /* \"@openzeppelin/contracts/access/Ownable.sol\":2912:3099  function _transferOwnership(address newOwner) internal virtual {... */\n  pop\n  jump\t// out\n    /* \"#utility.yul\":14:217   */\ntag_13:\n    /* \"src/noti.sol\":8465:12334  contract NotiFactory is Ownable {... */\n  dataSize(sub_0)\n  dup1\n  dataOffset(sub_0)\n  0x00\n  codecopy\n  0x00\n  return\nstop\n\nsub_0: assembly {\n        /* \"src/noti.sol\":8465:12334  contract NotiFactory is Ownable {... */\n      mstore(0x40, 0x80)\n      callvalue\n      dup1\n      iszero\n      tag_1\n      jumpi\n      0x00\n      dup1\n      revert\n    tag_1:\n      pop\n      jumpi(tag_2, lt(calldatasize, 0x04))\n      shr(0xe0, calldataload(0x00))\n      dup1\n      0x86dc758d\n      gt\n      tag_14\n      jumpi\n      dup1\n      0x86dc758d\n      eq\n      tag_8\n      jumpi\n      dup1\n      0x8da5cb5b\n      eq\n      tag_9\n      jumpi\n      dup1\n      0xaec5ab08\n      eq\n      tag_10\n      jumpi\n      dup1\n      0xb1a3a16f\n      eq\n      tag_11\n      jumpi\n      dup1\n      0xbba53087\n      eq\n      tag_12\n      jumpi\n      dup1\n      0xf2fde38b\n      eq\n      tag_13\n      jumpi\n      0x00\n      dup1\n      revert\n    tag_14:\n      dup1\n      0x3ca94181\n      eq\n      tag_3\n      jumpi\n      dup1\n      0x50fb11e5\n      eq\n      tag_4\n      jumpi\n      dup1\n      0x6b6e6eb3\n      eq\n      tag_5\n      jumpi\n      dup1\n      0x715018a6\n      eq\n      tag_6\n      jumpi\n      dup1\n      0x8240a49b\n      eq\n      tag_7\n      jumpi\n    tag_2:\n      0x00\n      dup1\n      revert\n        /* \"src/noti.sol\":9700:9801  function setNotiHub(address _notiHub) external onlyOwner {... */\n    tag_3:\n      tag_15\n      tag_16\n      calldatasize\n      0x04\n      tag_17\n      jump\t// in\n    tag_16:\n      tag_18\n      jump\t// in\n    tag_15:\n      stop\n        /* \"src/noti.sol\":11854:12084  function getDappContracts(address dappOwner) external view returns (address, address) {... */\n    tag_4:\n      tag_19\n      tag_20\n      calldatasize\n      0x04\n      tag_17\n      jump\t// in\n    tag_20:\n      sub(shl(0xa0, 0x01), 0x01)\n        /* \"src/noti.sol\":11971:11997  dappToContracts[dappOwner] */\n      swap1\n      dup2\n      and\n        /* \"src/noti.sol\":11922:11929  address */\n      0x00\n        /* \"src/noti.sol\":11971:11997  dappToContracts[dappOwner] */\n      swap1\n      dup2\n      mstore\n        /* \"src/noti.sol\":11971:11986  dappToContracts */\n      0x01\n        /* \"src/noti.sol\":11971:11997  dappToContracts[dappOwner] */\n      0x20\n      dup2\n      swap1\n      mstore\n      0x40\n      swap1\n      swap2\n      keccak256\n        /* \"src/noti.sol\":11971:12015  dappToContracts[dappOwner].permissionManager */\n      dup1\n      sload\n        /* \"src/noti.sol\":12029:12067  dappToContracts[dappOwner].notiStorage */\n      swap2\n      add\n      sload\n        /* \"src/noti.sol\":11971:12015  dappToContracts[dappOwner].permissionManager */\n      swap1\n      dup3\n      and\n      swap3\n        /* \"src/noti.sol\":12029:12067  dappToContracts[dappOwner].notiStorage */\n      swap2\n      and\n      swap1\n        /* \"src/noti.sol\":11854:12084  function getDappContracts(address dappOwner) external view returns (address, address) {... */\n      jump\n    tag_19:\n      0x40\n      dup1\n      mload\n      sub(shl(0xa0, 0x01), 0x01)\n        /* \"#utility.yul\":575:607   */\n      swap4\n      dup5\n      and\n        /* \"#utility.yul\":557:608   */\n      dup2\n      mstore\n        /* \"#utility.yul\":644:676   */\n      swap3\n      swap1\n      swap2\n      and\n        /* \"#utility.yul\":639:641   */\n      0x20\n        /* \"#utility.yul\":624:642   */\n      dup4\n      add\n        /* \"#utility.yul\":617:677   */\n      mstore\n        /* \"#utility.yul\":530:548   */\n      add\n        /* \"src/noti.sol\":11854:12084  function getDappContracts(address dappOwner) external view returns (address, address) {... */\n    tag_22:\n      mload(0x40)\n      dup1\n      swap2\n      sub\n      swap1\n      return\n        /* \"src/noti.sol\":9984:10673  function registerDapp() external {... */\n    tag_5:\n      tag_15\n      tag_25\n      jump\t// in\n        /* \"@openzeppelin/contracts/access/Ownable.sol\":2293:2394  function renounceOwnership() public virtual onlyOwner {... */\n    tag_6:\n      tag_15\n      tag_27\n      jump\t// in\n        /* \"src/noti.sol\":9281:9306  address[] public dappList */\n    tag_7:\n      tag_28\n      tag_29\n      calldatasize\n      0x04\n      tag_30\n      jump\t// in\n    tag_29:\n      tag_31\n      jump\t// in\n    tag_28:\n      mload(0x40)\n      sub(shl(0xa0, 0x01), 0x01)\n        /* \"#utility.yul\":1037:1069   */\n      swap1\n      swap2\n      and\n        /* \"#utility.yul\":1019:1070   */\n      dup2\n      mstore\n        /* \"#utility.yul\":1007:1009   */\n      0x20\n        /* \"#utility.yul\":992:1010   */\n      add\n        /* \"src/noti.sol\":9281:9306  address[] public dappList */\n      tag_22\n        /* \"#utility.yul\":873:1076   */\n      jump\n        /* \"src/noti.sol\":9312:9334  NotiHub public notiHub */\n    tag_8:\n      sload(0x03)\n      tag_28\n      swap1\n      sub(shl(0xa0, 0x01), 0x01)\n      and\n      dup2\n      jump\n        /* \"@openzeppelin/contracts/access/Ownable.sol\":1638:1723  function owner() public view virtual returns (address) {... */\n    tag_9:\n        /* \"@openzeppelin/contracts/access/Ownable.sol\":1684:1691  address */\n      0x00\n        /* \"@openzeppelin/contracts/access/Ownable.sol\":1710:1716  _owner */\n      sload\n      sub(shl(0xa0, 0x01), 0x01)\n      and\n        /* \"@openzeppelin/contracts/access/Ownable.sol\":1638:1723  function owner() public view virtual returns (address) {... */\n      jump(tag_28)\n        /* \"src/noti.sol\":12236:12332  function getAllDapps() external view returns (address[] memory) {... */\n    tag_10:\n      tag_41\n      tag_42\n      jump\t// in\n    tag_41:\n      mload(0x40)\n      tag_22\n      swap2\n      swap1\n      tag_44\n      jump\t// in\n        /* \"src/noti.sol\":9219:9275  mapping(address => DappContracts) public dappToContracts */\n    tag_11:\n      tag_19\n      tag_46\n      calldatasize\n      0x04\n      tag_17\n      jump\t// in\n    tag_46:\n      0x01\n      0x20\n      dup2\n      swap1\n      mstore\n      0x00\n      swap2\n      dup3\n      mstore\n      0x40\n      swap1\n      swap2\n      keccak256\n      dup1\n      sload\n      swap2\n      add\n      sload\n      sub(shl(0xa0, 0x01), 0x01)\n      swap2\n      dup3\n      and\n      swap2\n      and\n      dup3\n      jump\n        /* \"src/noti.sol\":11098:11622  function subscribeUser(... */\n    tag_12:\n      tag_15\n      tag_50\n      calldatasize\n      0x04\n      tag_51\n      jump\t// in\n    tag_50:\n      tag_52\n      jump\t// in\n        /* \"@openzeppelin/contracts/access/Ownable.sol\":2543:2758  function transferOwnership(address newOwner) public virtual onlyOwner {... */\n    tag_13:\n      tag_15\n      tag_54\n      calldatasize\n      0x04\n      tag_17\n      jump\t// in\n    tag_54:\n      tag_55\n      jump\t// in\n        /* \"src/noti.sol\":9700:9801  function setNotiHub(address _notiHub) external onlyOwner {... */\n    tag_18:\n        /* \"@openzeppelin/contracts/access/Ownable.sol\":1531:1544  _checkOwner() */\n      tag_57\n        /* \"@openzeppelin/contracts/access/Ownable.sol\":1531:1542  _checkOwner */\n      tag_58\n        /* \"@openzeppelin/contracts/access/Ownable.sol\":1531:1544  _checkOwner() */\n      jump\t// in\n    tag_57:\n        /* \"src/noti.sol\":9767:9774  notiHub */\n      0x03\n        /* \"src/noti.sol\":9767:9794  notiHub = NotiHub(_notiHub) */\n      dup1\n      sload\n      not(sub(shl(0xa0, 0x01), 0x01))\n      and\n      sub(shl(0xa0, 0x01), 0x01)\n      swap3\n      swap1\n      swap3\n      and\n      swap2\n      swap1\n      swap2\n      or\n      swap1\n      sstore\n        /* \"src/noti.sol\":9700:9801  function setNotiHub(address _notiHub) external onlyOwner {... */\n      jump\t// out\n        /* \"src/noti.sol\":9984:10673  function registerDapp() external {... */\n    tag_25:\n        /* \"src/noti.sol\":10051:10061  msg.sender */\n      caller\n        /* \"src/noti.sol\":10092:10093  0 */\n      0x00\n        /* \"src/noti.sol\":10035:10062  dappToContracts[msg.sender] */\n      swap1\n      dup2\n      mstore\n        /* \"src/noti.sol\":10035:10050  dappToContracts */\n      0x01\n        /* \"src/noti.sol\":10035:10062  dappToContracts[msg.sender] */\n      0x20\n      mstore\n      0x40\n      swap1\n      keccak256\n        /* \"src/noti.sol\":10035:10080  dappToContracts[msg.sender].permissionManager */\n      sload\n      sub(shl(0xa0, 0x01), 0x01)\n      and\n        /* \"src/noti.sol\":10035:10094  dappToContracts[msg.sender].permissionManager == address(0) */\n      iszero\n        /* \"src/noti.sol\":10027:10122  require(dappToContracts[msg.sender].permissionManager == address(0), \"Dapp already registered\") */\n      tag_62\n      jumpi\n      mload(0x40)\n      shl(0xe5, 0x461bcd)\n      dup2\n      mstore\n        /* \"#utility.yul\":2881:2883   */\n      0x20\n        /* \"src/noti.sol\":10027:10122  require(dappToContracts[msg.sender].permissionManager == address(0), \"Dapp already registered\") */\n      0x04\n      dup3\n      add\n        /* \"#utility.yul\":2863:2884   */\n      mstore\n        /* \"#utility.yul\":2920:2922   */\n      0x17\n        /* \"#utility.yul\":2900:2918   */\n      0x24\n      dup3\n      add\n        /* \"#utility.yul\":2893:2923   */\n      mstore\n        /* \"#utility.yul\":2959:2984   */\n      0x4461707020616c72656164792072656769737465726564000000000000000000\n        /* \"#utility.yul\":2939:2957   */\n      0x44\n      dup3\n      add\n        /* \"#utility.yul\":2932:2985   */\n      mstore\n        /* \"#utility.yul\":3002:3020   */\n      0x64\n      add\n        /* \"src/noti.sol\":10027:10122  require(dappToContracts[msg.sender].permissionManager == address(0), \"Dapp already registered\") */\n    tag_63:\n      mload(0x40)\n      dup1\n      swap2\n      sub\n      swap1\n      revert\n    tag_62:\n        /* \"src/noti.sol\":10133:10168  PermissionManager permissionManager */\n      0x00\n        /* \"src/noti.sol\":10193:10203  msg.sender */\n      caller\n        /* \"src/noti.sol\":10213:10217  this */\n      address\n        /* \"src/noti.sol\":10171:10219  new PermissionManager(msg.sender, address(this)) */\n      mload(0x40)\n      tag_65\n      swap1\n      tag_66\n      jump\t// in\n    tag_65:\n      sub(shl(0xa0, 0x01), 0x01)\n        /* \"#utility.yul\":575:607   */\n      swap3\n      dup4\n      and\n        /* \"#utility.yul\":557:608   */\n      dup2\n      mstore\n        /* \"#utility.yul\":644:676   */\n      swap2\n      and\n        /* \"#utility.yul\":639:641   */\n      0x20\n        /* \"#utility.yul\":624:642   */\n      dup3\n      add\n        /* \"#utility.yul\":617:677   */\n      mstore\n        /* \"#utility.yul\":545:547   */\n      0x40\n        /* \"#utility.yul\":530:548   */\n      add\n        /* \"src/noti.sol\":10171:10219  new PermissionManager(msg.sender, address(this)) */\n      mload(0x40)\n      dup1\n      swap2\n      sub\n      swap1\n      0x00\n      create\n      dup1\n      iszero\n      dup1\n      iszero\n      tag_68\n      jumpi\n      returndatasize\n      0x00\n      dup1\n      returndatacopy\n      revert(0x00, returndatasize)\n    tag_68:\n      pop\n        /* \"src/noti.sol\":10133:10219  PermissionManager permissionManager = new PermissionManager(msg.sender, address(this)) */\n      swap1\n      pop\n        /* \"src/noti.sol\":10229:10252  NotiStorage notiStorage */\n      0x00\n        /* \"src/noti.sol\":10271:10281  msg.sender */\n      caller\n        /* \"src/noti.sol\":10291:10308  permissionManager */\n      dup3\n        /* \"src/noti.sol\":10319:10326  notiHub */\n      0x03\n      0x00\n      swap1\n      sload\n      swap1\n      0x0100\n      exp\n      swap1\n      div\n      sub(shl(0xa0, 0x01), 0x01)\n      and\n        /* \"src/noti.sol\":10255:10328  new NotiStorage(msg.sender, address(permissionManager), address(notiHub)) */\n      mload(0x40)\n      tag_69\n      swap1\n      tag_70\n      jump\t// in\n    tag_69:\n      sub(shl(0xa0, 0x01), 0x01)\n        /* \"#utility.yul\":3251:3283   */\n      swap4\n      dup5\n      and\n        /* \"#utility.yul\":3233:3284   */\n      dup2\n      mstore\n        /* \"#utility.yul\":3320:3352   */\n      swap2\n      dup4\n      and\n        /* \"#utility.yul\":3315:3317   */\n      0x20\n        /* \"#utility.yul\":3300:3318   */\n      dup4\n      add\n        /* \"#utility.yul\":3293:3353   */\n      mstore\n        /* \"#utility.yul\":3389:3421   */\n      swap1\n      swap2\n      and\n        /* \"#utility.yul\":3384:3386   */\n      0x40\n        /* \"#utility.yul\":3369:3387   */\n      dup3\n      add\n        /* \"#utility.yul\":3362:3422   */\n      mstore\n        /* \"#utility.yul\":3221:3223   */\n      0x60\n        /* \"#utility.yul\":3206:3224   */\n      add\n        /* \"src/noti.sol\":10255:10328  new NotiStorage(msg.sender, address(permissionManager), address(notiHub)) */\n      mload(0x40)\n      dup1\n      swap2\n      sub\n      swap1\n      0x00\n      create\n      dup1\n      iszero\n      dup1\n      iszero\n      tag_73\n      jumpi\n      returndatasize\n      0x00\n      dup1\n      returndatacopy\n      revert(0x00, returndatasize)\n    tag_73:\n      pop\n        /* \"src/noti.sol\":10369:10432  DappContracts(address(permissionManager), address(notiStorage)) */\n      0x40\n      dup1\n      mload\n      dup1\n      dup3\n      add\n      dup3\n      mstore\n      sub(shl(0xa0, 0x01), 0x01)\n      dup6\n      dup2\n      and\n      dup3\n      mstore\n      dup4\n      dup2\n      and\n      0x20\n      dup1\n      dup5\n      add\n      dup3\n      dup2\n      mstore\n        /* \"src/noti.sol\":10355:10365  msg.sender */\n      caller\n      0x00\n        /* \"src/noti.sol\":10339:10366  dappToContracts[msg.sender] */\n      dup2\n      dup2\n      mstore\n        /* \"src/noti.sol\":10339:10354  dappToContracts */\n      0x01\n        /* \"src/noti.sol\":10339:10366  dappToContracts[msg.sender] */\n      swap4\n      dup5\n      swap1\n      mstore\n      dup8\n      dup2\n      keccak256\n        /* \"src/noti.sol\":10339:10432  dappToContracts[msg.sender] = DappContracts(address(permissionManager), address(notiStorage)) */\n      swap7\n      mload\n      dup8\n      sload\n      swap1\n      dup8\n      and\n      not(sub(shl(0xa0, 0x01), 0x01))\n      swap2\n      dup3\n      and\n      or\n      dup9\n      sstore\n      swap3\n      mload\n      swap7\n      dup5\n      add\n      dup1\n      sload\n      swap8\n      dup8\n      and\n      swap8\n      dup5\n      and\n      swap8\n      swap1\n      swap8\n      or\n      swap1\n      swap7\n      sstore\n        /* \"src/noti.sol\":10442:10450  dappList */\n      0x02\n        /* \"src/noti.sol\":10442:10467  dappList.push(msg.sender) */\n      dup1\n      sload\n      swap4\n      dup5\n      add\n      dup2\n      sstore\n      swap1\n      swap6\n      mstore\n      0x405787fa12a823e0f2b7631cc41b3ba8828b3321ca811111fa75cd3aa3bb5ace\n      swap1\n      swap2\n      add\n      dup1\n      sload\n      swap1\n      swap2\n      and\n      swap1\n      swap4\n      or\n      swap1\n      swap3\n      sstore\n        /* \"src/noti.sol\":10525:10532  notiHub */\n      sload(0x03)\n        /* \"src/noti.sol\":10525:10574  notiHub.registerNotiStorage(address(notiStorage)) */\n      swap3\n      mload\n      shl(0xe1, 0x3b7dccf3)\n      dup2\n      mstore\n      0x04\n      dup2\n      add\n        /* \"#utility.yul\":1019:1070   */\n      swap3\n      swap1\n      swap3\n      mstore\n        /* \"src/noti.sol\":10369:10432  DappContracts(address(permissionManager), address(notiStorage)) */\n      swap3\n      swap4\n      pop\n        /* \"src/noti.sol\":10525:10532  notiHub */\n      swap2\n      and\n      swap1\n        /* \"src/noti.sol\":10525:10552  notiHub.registerNotiStorage */\n      0x76fb99e6\n      swap1\n        /* \"#utility.yul\":992:1010   */\n      0x24\n      add\n        /* \"src/noti.sol\":10525:10574  notiHub.registerNotiStorage(address(notiStorage)) */\n      0x00\n      mload(0x40)\n      dup1\n      dup4\n      sub\n      dup2\n      0x00\n      dup8\n      dup1\n      extcodesize\n      iszero\n      dup1\n      iszero\n      tag_76\n      jumpi\n      0x00\n      dup1\n      revert\n    tag_76:\n      pop\n      gas\n      call\n      iszero\n      dup1\n      iszero\n      tag_78\n      jumpi\n      returndatasize\n      0x00\n      dup1\n      returndatacopy\n      revert(0x00, returndatasize)\n    tag_78:\n      pop\n      pop\n        /* \"src/noti.sol\":10590:10666  DappRegistered(msg.sender, address(permissionManager), address(notiStorage)) */\n      0x40\n      dup1\n      mload\n      sub(shl(0xa0, 0x01), 0x01)\n        /* \"#utility.yul\":575:607   */\n      dup7\n      dup2\n      and\n        /* \"#utility.yul\":557:608   */\n      dup3\n      mstore\n        /* \"#utility.yul\":644:676   */\n      dup6\n      and\n        /* \"#utility.yul\":639:641   */\n      0x20\n        /* \"#utility.yul\":624:642   */\n      dup3\n      add\n        /* \"#utility.yul\":617:677   */\n      mstore\n        /* \"src/noti.sol\":10605:10615  msg.sender */\n      caller\n      swap4\n      pop\n        /* \"src/noti.sol\":10590:10666  DappRegistered(msg.sender, address(permissionManager), address(notiStorage)) */\n      0x9884a393f54ac129685f7bc0b2d11b1e55caad8872f36317f324d7527fbbbd03\n      swap3\n      pop\n        /* \"#utility.yul\":530:548   */\n      add\n        /* \"src/noti.sol\":10590:10666  DappRegistered(msg.sender, address(permissionManager), address(notiStorage)) */\n      mload(0x40)\n      dup1\n      swap2\n      sub\n      swap1\n      log2\n        /* \"src/noti.sol\":10017:10673  {... */\n      pop\n      pop\n        /* \"src/noti.sol\":9984:10673  function registerDapp() external {... */\n      jump\t// out\n        /* \"@openzeppelin/contracts/access/Ownable.sol\":2293:2394  function renounceOwnership() public virtual onlyOwner {... */\n    tag_27:\n        /* \"@openzeppelin/contracts/access/Ownable.sol\":1531:1544  _checkOwner() */\n      tag_81\n        /* \"@openzeppelin/contracts/access/Ownable.sol\":1531:1542  _checkOwner */\n      tag_58\n        /* \"@openzeppelin/contracts/access/Ownable.sol\":1531:1544  _checkOwner() */\n      jump\t// in\n    tag_81:\n        /* \"@openzeppelin/contracts/access/Ownable.sol\":2357:2387  _transferOwnership(address(0)) */\n      tag_83\n        /* \"@openzeppelin/contracts/access/Ownable.sol\":2384:2385  0 */\n      0x00\n        /* \"@openzeppelin/contracts/access/Ownable.sol\":2357:2375  _transferOwnership */\n      tag_84\n        /* \"@openzeppelin/contracts/access/Ownable.sol\":2357:2387  _transferOwnership(address(0)) */\n      jump\t// in\n    tag_83:\n        /* \"@openzeppelin/contracts/access/Ownable.sol\":2293:2394  function renounceOwnership() public virtual onlyOwner {... */\n      jump\t// out\n        /* \"src/noti.sol\":9281:9306  address[] public dappList */\n    tag_31:\n      0x02\n      dup2\n      dup2\n      sload\n      dup2\n      lt\n      tag_85\n      jumpi\n      0x00\n      dup1\n      revert\n    tag_85:\n      0x00\n      swap2\n      dup3\n      mstore\n      0x20\n      swap1\n      swap2\n      keccak256\n      add\n      sload\n      sub(shl(0xa0, 0x01), 0x01)\n      and\n      swap1\n      pop\n      dup2\n      jump\t// out\n        /* \"src/noti.sol\":12236:12332  function getAllDapps() external view returns (address[] memory) {... */\n    tag_42:\n        /* \"src/noti.sol\":12282:12298  address[] memory */\n      0x60\n        /* \"src/noti.sol\":12317:12325  dappList */\n      0x02\n        /* \"src/noti.sol\":12310:12325  return dappList */\n      dup1\n      sload\n      dup1\n      0x20\n      mul\n      0x20\n      add\n      mload(0x40)\n      swap1\n      dup2\n      add\n      0x40\n      mstore\n      dup1\n      swap3\n      swap2\n      swap1\n      dup2\n      dup2\n      mstore\n      0x20\n      add\n      dup3\n      dup1\n      sload\n      dup1\n      iszero\n      tag_89\n      jumpi\n      0x20\n      mul\n      dup3\n      add\n      swap2\n      swap1\n      0x00\n      mstore\n      keccak256(0x00, 0x20)\n      swap1\n    tag_90:\n      dup2\n      sload\n      sub(shl(0xa0, 0x01), 0x01)\n      and\n      dup2\n      mstore\n      0x01\n      swap1\n      swap2\n      add\n      swap1\n      0x20\n      add\n      dup1\n      dup4\n      gt\n      tag_90\n      jumpi\n    tag_89:\n      pop\n      pop\n      pop\n      pop\n      pop\n      swap1\n      pop\n        /* \"src/noti.sol\":12236:12332  function getAllDapps() external view returns (address[] memory) {... */\n      swap1\n      jump\t// out\n        /* \"src/noti.sol\":11098:11622  function subscribeUser(... */\n    tag_52:\n      sub(shl(0xa0, 0x01), 0x01)\n        /* \"src/noti.sol\":11255:11281  dappToContracts[dappOwner] */\n      dup5\n      dup2\n      and\n        /* \"src/noti.sol\":11311:11312  0 */\n      0x00\n        /* \"src/noti.sol\":11255:11281  dappToContracts[dappOwner] */\n      swap1\n      dup2\n      mstore\n        /* \"src/noti.sol\":11255:11270  dappToContracts */\n      0x01\n        /* \"src/noti.sol\":11255:11281  dappToContracts[dappOwner] */\n      0x20\n      mstore\n      0x40\n      swap1\n      keccak256\n        /* \"src/noti.sol\":11255:11299  dappToContracts[dappOwner].permissionManager */\n      sload\n      and\n        /* \"src/noti.sol\":11247:11337  require(dappToContracts[dappOwner].permissionManager != address(0), \"Dapp not registered\") */\n      tag_92\n      jumpi\n      mload(0x40)\n      shl(0xe5, 0x461bcd)\n      dup2\n      mstore\n        /* \"#utility.yul\":3635:3637   */\n      0x20\n        /* \"src/noti.sol\":11247:11337  require(dappToContracts[dappOwner].permissionManager != address(0), \"Dapp not registered\") */\n      0x04\n      dup3\n      add\n        /* \"#utility.yul\":3617:3638   */\n      mstore\n        /* \"#utility.yul\":3674:3676   */\n      0x13\n        /* \"#utility.yul\":3654:3672   */\n      0x24\n      dup3\n      add\n        /* \"#utility.yul\":3647:3677   */\n      mstore\n      shl(0x6a, 0x11185c1c081b9bdd081c9959da5cdd195c9959)\n        /* \"#utility.yul\":3693:3711   */\n      0x44\n      dup3\n      add\n        /* \"#utility.yul\":3686:3735   */\n      mstore\n        /* \"#utility.yul\":3752:3770   */\n      0x64\n      add\n        /* \"src/noti.sol\":11247:11337  require(dappToContracts[dappOwner].permissionManager != address(0), \"Dapp not registered\") */\n      tag_63\n        /* \"#utility.yul\":3433:3776   */\n      jump\n        /* \"src/noti.sol\":11247:11337  require(dappToContracts[dappOwner].permissionManager != address(0), \"Dapp not registered\") */\n    tag_92:\n      sub(shl(0xa0, 0x01), 0x01)\n        /* \"src/noti.sol\":11404:11430  dappToContracts[dappOwner] */\n      dup5\n      dup2\n      and\n        /* \"src/noti.sol\":11348:11383  PermissionManager permissionManager */\n      0x00\n        /* \"src/noti.sol\":11404:11430  dappToContracts[dappOwner] */\n      swap1\n      dup2\n      mstore\n        /* \"src/noti.sol\":11404:11419  dappToContracts */\n      0x01\n        /* \"src/noti.sol\":11404:11430  dappToContracts[dappOwner] */\n      0x20\n      mstore\n      0x40\n      swap1\n      dup2\n      swap1\n      keccak256\n        /* \"src/noti.sol\":11404:11448  dappToContracts[dappOwner].permissionManager */\n      sload\n        /* \"src/noti.sol\":11459:11501  permissionManager.registerUser(msg.sender) */\n      swap1\n      mload\n      shl(0xe0, 0x2199d5cd)\n      dup2\n      mstore\n        /* \"src/noti.sol\":11490:11500  msg.sender */\n      caller\n        /* \"src/noti.sol\":11459:11501  permissionManager.registerUser(msg.sender) */\n      0x04\n      dup3\n      add\n        /* \"#utility.yul\":1019:1070   */\n      mstore\n        /* \"src/noti.sol\":11404:11448  dappToContracts[dappOwner].permissionManager */\n      swap2\n      and\n      swap1\n      dup2\n      swap1\n        /* \"src/noti.sol\":11459:11489  permissionManager.registerUser */\n      0x2199d5cd\n      swap1\n        /* \"#utility.yul\":992:1010   */\n      0x24\n      add\n        /* \"src/noti.sol\":11459:11501  permissionManager.registerUser(msg.sender) */\n      0x00\n      mload(0x40)\n      dup1\n      dup4\n      sub\n      dup2\n      0x00\n      dup8\n      dup1\n      extcodesize\n      iszero\n      dup1\n      iszero\n      tag_96\n      jumpi\n      0x00\n      dup1\n      revert\n    tag_96:\n      pop\n      gas\n      call\n      iszero\n      dup1\n      iszero\n      tag_98\n      jumpi\n      returndatasize\n      0x00\n      dup1\n      returndatacopy\n      revert(0x00, returndatasize)\n    tag_98:\n      pop\n      pop\n      pop\n      pop\n        /* \"src/noti.sol\":11544:11553  dappOwner */\n      dup5\n      sub(shl(0xa0, 0x01), 0x01)\n        /* \"src/noti.sol\":11517:11615  UserSubscribed(msg.sender, dappOwner, address(permissionManager), publicKey, encryptedDeviceToken) */\n      and\n        /* \"src/noti.sol\":11532:11542  msg.sender */\n      caller\n      sub(shl(0xa0, 0x01), 0x01)\n        /* \"src/noti.sol\":11517:11615  UserSubscribed(msg.sender, dappOwner, address(permissionManager), publicKey, encryptedDeviceToken) */\n      and\n      0x9ada1e6e19142d7c85cea7eba1d1104b99f280ea4d96abe628109c6b538fec86\n        /* \"src/noti.sol\":11563:11580  permissionManager */\n      dup4\n        /* \"src/noti.sol\":11583:11592  publicKey */\n      dup8\n        /* \"src/noti.sol\":11594:11614  encryptedDeviceToken */\n      dup8\n      dup8\n        /* \"src/noti.sol\":11517:11615  UserSubscribed(msg.sender, dappOwner, address(permissionManager), publicKey, encryptedDeviceToken) */\n      mload(0x40)\n      tag_99\n      swap5\n      swap4\n      swap3\n      swap2\n      swap1\n      tag_100\n      jump\t// in\n    tag_99:\n      mload(0x40)\n      dup1\n      swap2\n      sub\n      swap1\n      log3\n        /* \"src/noti.sol\":11237:11622  {... */\n      pop\n        /* \"src/noti.sol\":11098:11622  function subscribeUser(... */\n      pop\n      pop\n      pop\n      pop\n      jump\t// out\n        /* \"@openzeppelin/contracts/access/Ownable.sol\":2543:2758  function transferOwnership(address newOwner) public virtual onlyOwner {... */\n    tag_55:\n        /* \"@openzeppelin/contracts/access/Ownable.sol\":1531:1544  _checkOwner() */\n      tag_102\n        /* \"@openzeppelin/contracts/access/Ownable.sol\":1531:1542  _checkOwner */\n      tag_58\n        /* \"@openzeppelin/contracts/access/Ownable.sol\":1531:1544  _checkOwner() */\n      jump\t// in\n    tag_102:\n      sub(shl(0xa0, 0x01), 0x01)\n        /* \"@openzeppelin/contracts/access/Ownable.sol\":2627:2649  newOwner == address(0) */\n      dup2\n      and\n        /* \"@openzeppelin/contracts/access/Ownable.sol\":2623:2714  if (newOwner == address(0)) {... */\n      tag_104\n      jumpi\n        /* \"@openzeppelin/contracts/access/Ownable.sol\":2672:2703  OwnableInvalidOwner(address(0)) */\n      mload(0x40)\n      shl(0xe0, 0x1e4fbdf7)\n      dup2\n      mstore\n        /* \"@openzeppelin/contracts/access/Ownable.sol\":2700:2701  0 */\n      0x00\n        /* \"@openzeppelin/contracts/access/Ownable.sol\":2672:2703  OwnableInvalidOwner(address(0)) */\n      0x04\n      dup3\n      add\n        /* \"#utility.yul\":1019:1070   */\n      mstore\n        /* \"#utility.yul\":992:1010   */\n      0x24\n      add\n        /* \"@openzeppelin/contracts/access/Ownable.sol\":2672:2703  OwnableInvalidOwner(address(0)) */\n      tag_63\n        /* \"#utility.yul\":873:1076   */\n      jump\n        /* \"@openzeppelin/contracts/access/Ownable.sol\":2623:2714  if (newOwner == address(0)) {... */\n    tag_104:\n        /* \"@openzeppelin/contracts/access/Ownable.sol\":2723:2751  _transferOwnership(newOwner) */\n      tag_106\n        /* \"@openzeppelin/contracts/access/Ownable.sol\":2742:2750  newOwner */\n      dup2\n        /* \"@openzeppelin/contracts/access/Ownable.sol\":2723:2741  _transferOwnership */\n      tag_84\n        /* \"@openzeppelin/contracts/access/Ownable.sol\":2723:2751  _transferOwnership(newOwner) */\n      jump\t// in\n    tag_106:\n        /* \"@openzeppelin/contracts/access/Ownable.sol\":2543:2758  function transferOwnership(address newOwner) public virtual onlyOwner {... */\n      pop\n      jump\t// out\n        /* \"@openzeppelin/contracts/access/Ownable.sol\":1796:1958  function _checkOwner() internal view virtual {... */\n    tag_58:\n        /* \"@openzeppelin/contracts/access/Ownable.sol\":1684:1691  address */\n      0x00\n        /* \"@openzeppelin/contracts/access/Ownable.sol\":1710:1716  _owner */\n      sload\n      sub(shl(0xa0, 0x01), 0x01)\n      and\n        /* \"@openzeppelin/contracts/utils/Context.sol\":735:745  msg.sender */\n      caller\n        /* \"@openzeppelin/contracts/access/Ownable.sol\":1855:1878  owner() != _msgSender() */\n      eq\n        /* \"@openzeppelin/contracts/access/Ownable.sol\":1851:1952  if (owner() != _msgSender()) {... */\n      tag_83\n      jumpi\n        /* \"@openzeppelin/contracts/access/Ownable.sol\":1901:1941  OwnableUnauthorizedAccount(_msgSender()) */\n      mload(0x40)\n      shl(0xe0, 0x118cdaa7)\n      dup2\n      mstore\n        /* \"@openzeppelin/contracts/utils/Context.sol\":735:745  msg.sender */\n      caller\n        /* \"@openzeppelin/contracts/access/Ownable.sol\":1901:1941  OwnableUnauthorizedAccount(_msgSender()) */\n      0x04\n      dup3\n      add\n        /* \"#utility.yul\":1019:1070   */\n      mstore\n        /* \"#utility.yul\":992:1010   */\n      0x24\n      add\n        /* \"@openzeppelin/contracts/access/Ownable.sol\":1901:1941  OwnableUnauthorizedAccount(_msgSender()) */\n      tag_63\n        /* \"#utility.yul\":873:1076   */\n      jump\n        /* \"@openzeppelin/contracts/access/Ownable.sol\":2912:3099  function _transferOwnership(address newOwner) internal virtual {... */\n    tag_84:\n        /* \"@openzeppelin/contracts/access/Ownable.sol\":2985:3001  address oldOwner */\n      0x00\n        /* \"@openzeppelin/contracts/access/Ownable.sol\":3004:3010  _owner */\n      dup1\n      sload\n      sub(shl(0xa0, 0x01), 0x01)\n        /* \"@openzeppelin/contracts/access/Ownable.sol\":3020:3037  _owner = newOwner */\n      dup4\n      dup2\n      and\n      not(sub(shl(0xa0, 0x01), 0x01))\n      dup4\n      and\n      dup2\n      or\n      dup5\n      sstore\n        /* \"@openzeppelin/contracts/access/Ownable.sol\":3052:3092  OwnershipTransferred(oldOwner, newOwner) */\n      mload(0x40)\n        /* \"@openzeppelin/contracts/access/Ownable.sol\":3004:3010  _owner */\n      swap2\n      swap1\n      swap3\n      and\n      swap3\n      dup4\n      swap2\n        /* \"@openzeppelin/contracts/access/Ownable.sol\":3052:3092  OwnershipTransferred(oldOwner, newOwner) */\n      0x8be0079c531659141344cd1fd0a4f28419497f9722a3daafe3b4186f6b6457e0\n      swap2\n        /* \"@openzeppelin/contracts/access/Ownable.sol\":2985:3001  address oldOwner */\n      swap1\n        /* \"@openzeppelin/contracts/access/Ownable.sol\":3052:3092  OwnershipTransferred(oldOwner, newOwner) */\n      log3\n        /* \"@openzeppelin/contracts/access/Ownable.sol\":2975:3099  {... */\n      pop\n        /* \"@openzeppelin/contracts/access/Ownable.sol\":2912:3099  function _transferOwnership(address newOwner) internal virtual {... */\n      pop\n      jump\t// out\n    tag_66:\n      dataSize(sub_0)\n      dup1\n      dataOffset(sub_0)\n      dup4\n      codecopy\n      add\n      swap1\n      jump\t// out\n    tag_70:\n      dataSize(sub_1)\n      dup1\n      dataOffset(sub_1)\n      dup4\n      codecopy\n      add\n      swap1\n      jump\t// out\n        /* \"#utility.yul\":14:187   */\n    tag_116:\n        /* \"#utility.yul\":82:102   */\n      dup1\n      calldataload\n      sub(shl(0xa0, 0x01), 0x01)\n        /* \"#utility.yul\":131:162   */\n      dup2\n      and\n        /* \"#utility.yul\":121:163   */\n      dup2\n      eq\n        /* \"#utility.yul\":111:181   */\n      tag_119\n      jumpi\n        /* \"#utility.yul\":177:178   */\n      0x00\n        /* \"#utility.yul\":174:175   */\n      dup1\n        /* \"#utility.yul\":167:179   */\n      revert\n        /* \"#utility.yul\":111:181   */\n    tag_119:\n        /* \"#utility.yul\":14:187   */\n      swap2\n      swap1\n      pop\n      jump\t// out\n        /* \"#utility.yul\":192:378   */\n    tag_17:\n        /* \"#utility.yul\":251:257   */\n      0x00\n        /* \"#utility.yul\":304:306   */\n      0x20\n        /* \"#utility.yul\":292:301   */\n      dup3\n        /* \"#utility.yul\":283:290   */\n      dup5\n        /* \"#utility.yul\":279:302   */\n      sub\n        /* \"#utility.yul\":275:307   */\n      slt\n        /* \"#utility.yul\":272:324   */\n      iszero\n      tag_121\n      jumpi\n        /* \"#utility.yul\":320:321   */\n      0x00\n        /* \"#utility.yul\":317:318   */\n      dup1\n        /* \"#utility.yul\":310:322   */\n      revert\n        /* \"#utility.yul\":272:324   */\n    tag_121:\n        /* \"#utility.yul\":343:372   */\n      tag_122\n        /* \"#utility.yul\":362:371   */\n      dup3\n        /* \"#utility.yul\":343:372   */\n      tag_116\n      jump\t// in\n    tag_122:\n        /* \"#utility.yul\":333:372   */\n      swap4\n        /* \"#utility.yul\":192:378   */\n      swap3\n      pop\n      pop\n      pop\n      jump\t// out\n        /* \"#utility.yul\":688:868   */\n    tag_30:\n        /* \"#utility.yul\":747:753   */\n      0x00\n        /* \"#utility.yul\":800:802   */\n      0x20\n        /* \"#utility.yul\":788:797   */\n      dup3\n        /* \"#utility.yul\":779:786   */\n      dup5\n        /* \"#utility.yul\":775:798   */\n      sub\n        /* \"#utility.yul\":771:803   */\n      slt\n        /* \"#utility.yul\":768:820   */\n      iszero\n      tag_125\n      jumpi\n        /* \"#utility.yul\":816:817   */\n      0x00\n        /* \"#utility.yul\":813:814   */\n      dup1\n        /* \"#utility.yul\":806:818   */\n      revert\n        /* \"#utility.yul\":768:820   */\n    tag_125:\n      pop\n        /* \"#utility.yul\":839:862   */\n      calldataload\n      swap2\n        /* \"#utility.yul\":688:868   */\n      swap1\n      pop\n      jump\t// out\n        /* \"#utility.yul\":1304:1941   */\n    tag_44:\n        /* \"#utility.yul\":1494:1496   */\n      0x20\n        /* \"#utility.yul\":1506:1527   */\n      dup1\n      dup3\n      mstore\n        /* \"#utility.yul\":1576:1589   */\n      dup3\n      mload\n        /* \"#utility.yul\":1479:1497   */\n      dup3\n      dup3\n      add\n        /* \"#utility.yul\":1598:1620   */\n      dup2\n      swap1\n      mstore\n        /* \"#utility.yul\":1446:1450   */\n      0x00\n      swap2\n        /* \"#utility.yul\":1677:1692   */\n      dup5\n      add\n      swap1\n        /* \"#utility.yul\":1651:1653   */\n      0x40\n        /* \"#utility.yul\":1636:1654   */\n      dup5\n      add\n      swap1\n        /* \"#utility.yul\":1446:1450   */\n      dup4\n        /* \"#utility.yul\":1720:1915   */\n    tag_129:\n        /* \"#utility.yul\":1734:1740   */\n      dup2\n        /* \"#utility.yul\":1731:1732   */\n      dup2\n        /* \"#utility.yul\":1728:1741   */\n      lt\n        /* \"#utility.yul\":1720:1915   */\n      iszero\n      tag_131\n      jumpi\n        /* \"#utility.yul\":1799:1812   */\n      dup4\n      mload\n      sub(shl(0xa0, 0x01), 0x01)\n        /* \"#utility.yul\":1795:1834   */\n      and\n        /* \"#utility.yul\":1783:1835   */\n      dup4\n      mstore\n        /* \"#utility.yul\":1864:1866   */\n      0x20\n        /* \"#utility.yul\":1890:1905   */\n      swap4\n      dup5\n      add\n      swap4\n        /* \"#utility.yul\":1855:1867   */\n      swap1\n      swap3\n      add\n      swap2\n        /* \"#utility.yul\":1831:1832   */\n      0x01\n        /* \"#utility.yul\":1749:1758   */\n      add\n        /* \"#utility.yul\":1720:1915   */\n      jump(tag_129)\n    tag_131:\n      pop\n        /* \"#utility.yul\":1932:1935   */\n      swap1\n      swap6\n        /* \"#utility.yul\":1304:1941   */\n      swap5\n      pop\n      pop\n      pop\n      pop\n      pop\n      jump\t// out\n        /* \"#utility.yul\":1946:2674   */\n    tag_51:\n        /* \"#utility.yul\":2034:2040   */\n      0x00\n        /* \"#utility.yul\":2042:2048   */\n      dup1\n        /* \"#utility.yul\":2050:2056   */\n      0x00\n        /* \"#utility.yul\":2058:2064   */\n      dup1\n        /* \"#utility.yul\":2111:2113   */\n      0x60\n        /* \"#utility.yul\":2099:2108   */\n      dup6\n        /* \"#utility.yul\":2090:2097   */\n      dup8\n        /* \"#utility.yul\":2086:2109   */\n      sub\n        /* \"#utility.yul\":2082:2114   */\n      slt\n        /* \"#utility.yul\":2079:2131   */\n      iszero\n      tag_133\n      jumpi\n        /* \"#utility.yul\":2127:2128   */\n      0x00\n        /* \"#utility.yul\":2124:2125   */\n      dup1\n        /* \"#utility.yul\":2117:2129   */\n      revert\n        /* \"#utility.yul\":2079:2131   */\n    tag_133:\n        /* \"#utility.yul\":2150:2179   */\n      tag_134\n        /* \"#utility.yul\":2169:2178   */\n      dup6\n        /* \"#utility.yul\":2150:2179   */\n      tag_116\n      jump\t// in\n    tag_134:\n        /* \"#utility.yul\":2140:2179   */\n      swap4\n      pop\n        /* \"#utility.yul\":2226:2228   */\n      0x20\n        /* \"#utility.yul\":2215:2224   */\n      dup6\n        /* \"#utility.yul\":2211:2229   */\n      add\n        /* \"#utility.yul\":2198:2230   */\n      calldataload\n        /* \"#utility.yul\":2188:2230   */\n      swap3\n      pop\n        /* \"#utility.yul\":2281:2283   */\n      0x40\n        /* \"#utility.yul\":2270:2279   */\n      dup6\n        /* \"#utility.yul\":2266:2284   */\n      add\n        /* \"#utility.yul\":2253:2285   */\n      calldataload\n        /* \"#utility.yul\":2308:2326   */\n      0xffffffffffffffff\n        /* \"#utility.yul\":2300:2306   */\n      dup2\n        /* \"#utility.yul\":2297:2327   */\n      gt\n        /* \"#utility.yul\":2294:2344   */\n      iszero\n      tag_135\n      jumpi\n        /* \"#utility.yul\":2340:2341   */\n      0x00\n        /* \"#utility.yul\":2337:2338   */\n      dup1\n        /* \"#utility.yul\":2330:2342   */\n      revert\n        /* \"#utility.yul\":2294:2344   */\n    tag_135:\n        /* \"#utility.yul\":2363:2385   */\n      dup6\n      add\n        /* \"#utility.yul\":2416:2420   */\n      0x1f\n        /* \"#utility.yul\":2408:2421   */\n      dup2\n      add\n        /* \"#utility.yul\":2404:2431   */\n      dup8\n      sgt\n        /* \"#utility.yul\":2394:2449   */\n      tag_136\n      jumpi\n        /* \"#utility.yul\":2445:2446   */\n      0x00\n        /* \"#utility.yul\":2442:2443   */\n      dup1\n        /* \"#utility.yul\":2435:2447   */\n      revert\n        /* \"#utility.yul\":2394:2449   */\n    tag_136:\n        /* \"#utility.yul\":2485:2487   */\n      dup1\n        /* \"#utility.yul\":2472:2488   */\n      calldataload\n        /* \"#utility.yul\":2511:2529   */\n      0xffffffffffffffff\n        /* \"#utility.yul\":2503:2509   */\n      dup2\n        /* \"#utility.yul\":2500:2530   */\n      gt\n        /* \"#utility.yul\":2497:2547   */\n      iszero\n      tag_137\n      jumpi\n        /* \"#utility.yul\":2543:2544   */\n      0x00\n        /* \"#utility.yul\":2540:2541   */\n      dup1\n        /* \"#utility.yul\":2533:2545   */\n      revert\n        /* \"#utility.yul\":2497:2547   */\n    tag_137:\n        /* \"#utility.yul\":2588:2595   */\n      dup8\n        /* \"#utility.yul\":2583:2585   */\n      0x20\n        /* \"#utility.yul\":2574:2580   */\n      dup3\n        /* \"#utility.yul\":2570:2572   */\n      dup5\n        /* \"#utility.yul\":2566:2581   */\n      add\n        /* \"#utility.yul\":2562:2586   */\n      add\n        /* \"#utility.yul\":2559:2596   */\n      gt\n        /* \"#utility.yul\":2556:2613   */\n      iszero\n      tag_138\n      jumpi\n        /* \"#utility.yul\":2609:2610   */\n      0x00\n        /* \"#utility.yul\":2606:2607   */\n      dup1\n        /* \"#utility.yul\":2599:2611   */\n      revert\n        /* \"#utility.yul\":2556:2613   */\n    tag_138:\n        /* \"#utility.yul\":1946:2674   */\n      swap5\n      swap8\n      swap4\n      swap7\n      pop\n        /* \"#utility.yul\":2640:2642   */\n      0x20\n        /* \"#utility.yul\":2632:2643   */\n      add\n      swap5\n      pop\n      pop\n      pop\n        /* \"#utility.yul\":1946:2674   */\n      jump\t// out\n        /* \"#utility.yul\":3781:4340   */\n    tag_100:\n      sub(shl(0xa0, 0x01), 0x01)\n        /* \"#utility.yul\":3994:4026   */\n      dup6\n      and\n        /* \"#utility.yul\":3976:4027   */\n      dup2\n      mstore\n        /* \"#utility.yul\":4058:4060   */\n      0x20\n        /* \"#utility.yul\":4043:4061   */\n      dup2\n      add\n        /* \"#utility.yul\":4036:4070   */\n      dup5\n      swap1\n      mstore\n        /* \"#utility.yul\":4106:4108   */\n      0x60\n        /* \"#utility.yul\":4101:4103   */\n      0x40\n        /* \"#utility.yul\":4086:4104   */\n      dup3\n      add\n        /* \"#utility.yul\":4079:4109   */\n      dup2\n      swap1\n      mstore\n        /* \"#utility.yul\":4125:4143   */\n      dup2\n      add\n        /* \"#utility.yul\":4118:4152   */\n      dup3\n      swap1\n      mstore\n        /* \"#utility.yul\":4145:4151   */\n      dup2\n        /* \"#utility.yul\":4195:4201   */\n      dup4\n        /* \"#utility.yul\":4189:4192   */\n      0x80\n        /* \"#utility.yul\":4174:4193   */\n      dup4\n      add\n        /* \"#utility.yul\":4161:4210   */\n      calldatacopy\n        /* \"#utility.yul\":4260:4261   */\n      0x00\n        /* \"#utility.yul\":4230:4252   */\n      dup2\n      dup4\n      add\n        /* \"#utility.yul\":4254:4257   */\n      0x80\n        /* \"#utility.yul\":4226:4258   */\n      swap1\n      dup2\n      add\n        /* \"#utility.yul\":4219:4262   */\n      swap2\n      swap1\n      swap2\n      mstore\n        /* \"#utility.yul\":4323:4325   */\n      0x1f\n        /* \"#utility.yul\":4302:4317   */\n      swap1\n      swap3\n      add\n      not(0x1f)\n        /* \"#utility.yul\":4298:4327   */\n      and\n        /* \"#utility.yul\":4283:4328   */\n      add\n        /* \"#utility.yul\":4279:4334   */\n      add\n      swap4\n        /* \"#utility.yul\":3781:4340   */\n      swap3\n      pop\n      pop\n      pop\n      jump\t// out\n    stop\n\n    sub_0: assembly {\n            /* \"src/noti.sol\":2360:3866  contract PermissionManager {... */\n          mstore(0x40, 0x80)\n            /* \"src/noti.sol\":2784:2913  constructor(address _dappOwner, address _notiFactory) {... */\n          callvalue\n          dup1\n          iszero\n          tag_1\n          jumpi\n          0x00\n          dup1\n          revert\n        tag_1:\n          pop\n          mload(0x40)\n          sub(codesize, bytecodeSize)\n          dup1\n          bytecodeSize\n          dup4\n          codecopy\n          dup2\n          add\n          0x40\n          dup2\n          swap1\n          mstore\n          tag_2\n          swap2\n          tag_3\n          jump\t// in\n        tag_2:\n            /* \"src/noti.sol\":2848:2857  dappOwner */\n          0x01\n            /* \"src/noti.sol\":2848:2870  dappOwner = _dappOwner */\n          dup1\n          sload\n          sub(shl(0xa0, 0x01), 0x01)\n          swap4\n          dup5\n          and\n          not(sub(shl(0xa0, 0x01), 0x01))\n          swap2\n          dup3\n          and\n          or\n          swap1\n          swap2\n          sstore\n            /* \"src/noti.sol\":2848:2857  dappOwner */\n          0x00\n            /* \"src/noti.sol\":2880:2906  notiFactory = _notiFactory */\n          dup1\n          sload\n          swap3\n          swap1\n          swap4\n          and\n          swap2\n          and\n          or\n          swap1\n          sstore\n            /* \"src/noti.sol\":2360:3866  contract PermissionManager {... */\n          jump(tag_8)\n            /* \"#utility.yul\":14:191   */\n        tag_7:\n            /* \"#utility.yul\":93:106   */\n          dup1\n          mload\n          sub(shl(0xa0, 0x01), 0x01)\n            /* \"#utility.yul\":135:166   */\n          dup2\n          and\n            /* \"#utility.yul\":125:167   */\n          dup2\n          eq\n            /* \"#utility.yul\":115:185   */\n          tag_10\n          jumpi\n            /* \"#utility.yul\":181:182   */\n          0x00\n            /* \"#utility.yul\":178:179   */\n          dup1\n            /* \"#utility.yul\":171:183   */\n          revert\n            /* \"#utility.yul\":115:185   */\n        tag_10:\n            /* \"#utility.yul\":14:191   */\n          swap2\n          swap1\n          pop\n          jump\t// out\n            /* \"#utility.yul\":196:489   */\n        tag_3:\n            /* \"#utility.yul\":275:281   */\n          0x00\n            /* \"#utility.yul\":283:289   */\n          dup1\n            /* \"#utility.yul\":336:338   */\n          0x40\n            /* \"#utility.yul\":324:333   */\n          dup4\n            /* \"#utility.yul\":315:322   */\n          dup6\n            /* \"#utility.yul\":311:334   */\n          sub\n            /* \"#utility.yul\":307:339   */\n          slt\n            /* \"#utility.yul\":304:356   */\n          iszero\n          tag_12\n          jumpi\n            /* \"#utility.yul\":352:353   */\n          0x00\n            /* \"#utility.yul\":349:350   */\n          dup1\n            /* \"#utility.yul\":342:354   */\n          revert\n            /* \"#utility.yul\":304:356   */\n        tag_12:\n            /* \"#utility.yul\":375:415   */\n          tag_13\n            /* \"#utility.yul\":405:414   */\n          dup4\n            /* \"#utility.yul\":375:415   */\n          tag_7\n          jump\t// in\n        tag_13:\n            /* \"#utility.yul\":365:415   */\n          swap2\n          pop\n            /* \"#utility.yul\":434:483   */\n          tag_14\n            /* \"#utility.yul\":479:481   */\n          0x20\n            /* \"#utility.yul\":468:477   */\n          dup5\n            /* \"#utility.yul\":464:482   */\n          add\n            /* \"#utility.yul\":434:483   */\n          tag_7\n          jump\t// in\n        tag_14:\n            /* \"#utility.yul\":424:483   */\n          swap1\n          pop\n            /* \"#utility.yul\":196:489   */\n          swap3\n          pop\n          swap3\n          swap1\n          pop\n          jump\t// out\n        tag_8:\n            /* \"src/noti.sol\":2360:3866  contract PermissionManager {... */\n          dataSize(sub_0)\n          dup1\n          dataOffset(sub_0)\n          0x00\n          codecopy\n          0x00\n          return\n        stop\n\n        sub_0: assembly {\n                /* \"src/noti.sol\":2360:3866  contract PermissionManager {... */\n              mstore(0x40, 0x80)\n              callvalue\n              dup1\n              iszero\n              tag_1\n              jumpi\n              0x00\n              dup1\n              revert\n            tag_1:\n              pop\n              jumpi(tag_2, lt(calldatasize, 0x04))\n              shr(0xe0, calldataload(0x00))\n              dup1\n              0x12c670f9\n              eq\n              tag_3\n              jumpi\n              dup1\n              0x163f7522\n              eq\n              tag_4\n              jumpi\n              dup1\n              0x1bb71db2\n              eq\n              tag_5\n              jumpi\n              dup1\n              0x2199d5cd\n              eq\n              tag_6\n              jumpi\n              dup1\n              0x9ac7c29c\n              eq\n              tag_7\n              jumpi\n              dup1\n              0xa87430ba\n              eq\n              tag_8\n              jumpi\n            tag_2:\n              0x00\n              dup1\n              revert\n                /* \"src/noti.sol\":2393:2419  address public notiFactory */\n            tag_3:\n              sload(0x00)\n              tag_9\n              swap1\n              sub(shl(0xa0, 0x01), 0x01)\n              and\n              dup2\n              jump\n            tag_9:\n              mload(0x40)\n              sub(shl(0xa0, 0x01), 0x01)\n                /* \"#utility.yul\":178:210   */\n              swap1\n              swap2\n              and\n                /* \"#utility.yul\":160:211   */\n              dup2\n              mstore\n                /* \"#utility.yul\":148:150   */\n              0x20\n                /* \"#utility.yul\":133:151   */\n              add\n                /* \"src/noti.sol\":2393:2419  address public notiFactory */\n            tag_11:\n              mload(0x40)\n              dup1\n              swap2\n              sub\n              swap1\n              return\n                /* \"src/noti.sol\":3740:3864  function isUserRegistered(address _user) external view onlyDappOwner returns (bool) {... */\n            tag_4:\n              tag_13\n              tag_14\n              calldatasize\n              0x04\n              tag_15\n              jump\t// in\n            tag_14:\n              tag_16\n              jump\t// in\n            tag_13:\n              mload(0x40)\n                /* \"#utility.yul\":678:692   */\n              swap1\n              iszero\n                /* \"#utility.yul\":671:693   */\n              iszero\n                /* \"#utility.yul\":653:694   */\n              dup2\n              mstore\n                /* \"#utility.yul\":641:643   */\n              0x20\n                /* \"#utility.yul\":626:644   */\n              add\n                /* \"src/noti.sol\":3740:3864  function isUserRegistered(address _user) external view onlyDappOwner returns (bool) {... */\n              tag_11\n                /* \"#utility.yul\":513:700   */\n              jump\n                /* \"src/noti.sol\":3407:3536  function unregisterUser() external {... */\n            tag_5:\n              tag_19\n              tag_20\n              jump\t// in\n            tag_19:\n              stop\n                /* \"src/noti.sol\":3151:3260  function registerUser(address _user) external onlyNotiFactory {... */\n            tag_6:\n              tag_19\n              tag_22\n              calldatasize\n              0x04\n              tag_15\n              jump\t// in\n            tag_22:\n              tag_23\n              jump\t// in\n                /* \"src/noti.sol\":2425:2449  address public dappOwner */\n            tag_7:\n              sload(0x01)\n              tag_9\n              swap1\n              sub(shl(0xa0, 0x01), 0x01)\n              and\n              dup2\n              jump\n                /* \"src/noti.sol\":2455:2495  mapping(address => uint256) public users */\n            tag_8:\n              tag_27\n              tag_28\n              calldatasize\n              0x04\n              tag_15\n              jump\t// in\n            tag_28:\n              mstore(0x20, 0x02)\n              0x00\n              swap1\n              dup2\n              mstore\n              0x40\n              swap1\n              keccak256\n              sload\n              dup2\n              jump\n            tag_27:\n              mload(0x40)\n                /* \"#utility.yul\":851:876   */\n              swap1\n              dup2\n              mstore\n                /* \"#utility.yul\":839:841   */\n              0x20\n                /* \"#utility.yul\":824:842   */\n              add\n                /* \"src/noti.sol\":2455:2495  mapping(address => uint256) public users */\n              tag_11\n                /* \"#utility.yul\":705:882   */\n              jump\n                /* \"src/noti.sol\":3740:3864  function isUserRegistered(address _user) external view onlyDappOwner returns (bool) {... */\n            tag_16:\n                /* \"src/noti.sol\":2598:2607  dappOwner */\n              sload(0x01)\n                /* \"src/noti.sol\":3818:3822  bool */\n              0x00\n              swap1\n              sub(shl(0xa0, 0x01), 0x01)\n                /* \"src/noti.sol\":2598:2607  dappOwner */\n              and\n                /* \"src/noti.sol\":2584:2594  msg.sender */\n              caller\n                /* \"src/noti.sol\":2584:2607  msg.sender == dappOwner */\n              eq\n                /* \"src/noti.sol\":2576:2626  require(msg.sender == dappOwner, \"Not authorized\") */\n              tag_33\n              jumpi\n              mload(0x40)\n              shl(0xe5, 0x461bcd)\n              dup2\n              mstore\n                /* \"#utility.yul\":1089:1091   */\n              0x20\n                /* \"src/noti.sol\":2576:2626  require(msg.sender == dappOwner, \"Not authorized\") */\n              0x04\n              dup3\n              add\n                /* \"#utility.yul\":1071:1092   */\n              mstore\n                /* \"#utility.yul\":1128:1130   */\n              0x0e\n                /* \"#utility.yul\":1108:1126   */\n              0x24\n              dup3\n              add\n                /* \"#utility.yul\":1101:1131   */\n              mstore\n              shl(0x92, 0x139bdd08185d5d1a1bdc9a5e9959)\n                /* \"#utility.yul\":1147:1165   */\n              0x44\n              dup3\n              add\n                /* \"#utility.yul\":1140:1184   */\n              mstore\n                /* \"#utility.yul\":1201:1219   */\n              0x64\n              add\n                /* \"src/noti.sol\":2576:2626  require(msg.sender == dappOwner, \"Not authorized\") */\n            tag_34:\n              mload(0x40)\n              dup1\n              swap2\n              sub\n              swap1\n              revert\n            tag_33:\n              pop\n              sub(shl(0xa0, 0x01), 0x01)\n                /* \"src/noti.sol\":3841:3853  users[_user] */\n              and\n                /* \"src/noti.sol\":3856:3857  0 */\n              0x00\n                /* \"src/noti.sol\":3841:3853  users[_user] */\n              swap1\n              dup2\n              mstore\n                /* \"src/noti.sol\":3841:3846  users */\n              0x02\n                /* \"src/noti.sol\":3841:3853  users[_user] */\n              0x20\n              mstore\n              0x40\n              swap1\n              keccak256\n              sload\n                /* \"src/noti.sol\":3841:3857  users[_user] > 0 */\n              iszero\n              iszero\n              swap1\n                /* \"src/noti.sol\":3740:3864  function isUserRegistered(address _user) external view onlyDappOwner returns (bool) {... */\n              jump\t// out\n                /* \"src/noti.sol\":3407:3536  function unregisterUser() external {... */\n            tag_20:\n                /* \"src/noti.sol\":3466:3476  msg.sender */\n              caller\n                /* \"src/noti.sol\":3480:3481  0 */\n              0x00\n                /* \"src/noti.sol\":3460:3477  users[msg.sender] */\n              swap1\n              dup2\n              mstore\n                /* \"src/noti.sol\":3460:3465  users */\n              0x02\n                /* \"src/noti.sol\":3460:3477  users[msg.sender] */\n              0x20\n              mstore\n              0x40\n              swap1\n              keccak256\n              sload\n                /* \"src/noti.sol\":3452:3498  require(users[msg.sender] > 0, \"Unauthorized\") */\n              tag_38\n              jumpi\n              mload(0x40)\n              shl(0xe5, 0x461bcd)\n              dup2\n              mstore\n                /* \"#utility.yul\":1432:1434   */\n              0x20\n                /* \"src/noti.sol\":3452:3498  require(users[msg.sender] > 0, \"Unauthorized\") */\n              0x04\n              dup3\n              add\n                /* \"#utility.yul\":1414:1435   */\n              mstore\n                /* \"#utility.yul\":1471:1473   */\n              0x0c\n                /* \"#utility.yul\":1451:1469   */\n              0x24\n              dup3\n              add\n                /* \"#utility.yul\":1444:1474   */\n              mstore\n              shl(0xa2, 0x155b985d5d1a1bdc9a5e9959)\n                /* \"#utility.yul\":1490:1508   */\n              0x44\n              dup3\n              add\n                /* \"#utility.yul\":1483:1525   */\n              mstore\n                /* \"#utility.yul\":1542:1560   */\n              0x64\n              add\n                /* \"src/noti.sol\":3452:3498  require(users[msg.sender] > 0, \"Unauthorized\") */\n              tag_34\n                /* \"#utility.yul\":1230:1566   */\n              jump\n                /* \"src/noti.sol\":3452:3498  require(users[msg.sender] > 0, \"Unauthorized\") */\n            tag_38:\n                /* \"src/noti.sol\":3514:3524  msg.sender */\n              caller\n                /* \"src/noti.sol\":3528:3529  0 */\n              0x00\n                /* \"src/noti.sol\":3508:3525  users[msg.sender] */\n              swap1\n              dup2\n              mstore\n                /* \"src/noti.sol\":3508:3513  users */\n              0x02\n                /* \"src/noti.sol\":3508:3525  users[msg.sender] */\n              0x20\n              mstore\n              0x40\n              dup2\n              keccak256\n                /* \"src/noti.sol\":3508:3529  users[msg.sender] = 0 */\n              sstore\n                /* \"src/noti.sol\":3407:3536  function unregisterUser() external {... */\n              jump\t// out\n                /* \"src/noti.sol\":3151:3260  function registerUser(address _user) external onlyNotiFactory {... */\n            tag_23:\n                /* \"src/noti.sol\":2709:2720  notiFactory */\n              and(sub(shl(0xa0, 0x01), 0x01), sload(0x00))\n                /* \"src/noti.sol\":2695:2705  msg.sender */\n              caller\n                /* \"src/noti.sol\":2695:2720  msg.sender == notiFactory */\n              eq\n                /* \"src/noti.sol\":2687:2760  require(msg.sender == notiFactory, \"Only NotiFactory can register users\") */\n              tag_42\n              jumpi\n              mload(0x40)\n              shl(0xe5, 0x461bcd)\n              dup2\n              mstore\n                /* \"#utility.yul\":1773:1775   */\n              0x20\n                /* \"src/noti.sol\":2687:2760  require(msg.sender == notiFactory, \"Only NotiFactory can register users\") */\n              0x04\n              dup3\n              add\n                /* \"#utility.yul\":1755:1776   */\n              mstore\n                /* \"#utility.yul\":1812:1814   */\n              0x23\n                /* \"#utility.yul\":1792:1810   */\n              0x24\n              dup3\n              add\n                /* \"#utility.yul\":1785:1815   */\n              mstore\n                /* \"#utility.yul\":1851:1885   */\n              0x4f6e6c79204e6f7469466163746f72792063616e207265676973746572207573\n                /* \"#utility.yul\":1831:1849   */\n              0x44\n              dup3\n              add\n                /* \"#utility.yul\":1824:1886   */\n              mstore\n              shl(0xe8, 0x657273)\n                /* \"#utility.yul\":1902:1920   */\n              0x64\n              dup3\n              add\n                /* \"#utility.yul\":1895:1928   */\n              mstore\n                /* \"#utility.yul\":1945:1964   */\n              0x84\n              add\n                /* \"src/noti.sol\":2687:2760  require(msg.sender == notiFactory, \"Only NotiFactory can register users\") */\n              tag_34\n                /* \"#utility.yul\":1571:1970   */\n              jump\n                /* \"src/noti.sol\":2687:2760  require(msg.sender == notiFactory, \"Only NotiFactory can register users\") */\n            tag_42:\n              sub(shl(0xa0, 0x01), 0x01)\n                /* \"src/noti.sol\":3223:3235  users[_user] */\n              and\n              0x00\n              swap1\n              dup2\n              mstore\n                /* \"src/noti.sol\":3223:3228  users */\n              0x02\n                /* \"src/noti.sol\":3223:3235  users[_user] */\n              0x20\n              mstore\n              0x40\n              swap1\n              keccak256\n                /* \"src/noti.sol\":3238:3253  block.timestamp */\n              timestamp\n                /* \"src/noti.sol\":3223:3253  users[_user] = block.timestamp */\n              swap1\n              sstore\n                /* \"src/noti.sol\":3151:3260  function registerUser(address _user) external onlyNotiFactory {... */\n              jump\t// out\n                /* \"#utility.yul\":222:508   */\n            tag_15:\n                /* \"#utility.yul\":281:287   */\n              0x00\n                /* \"#utility.yul\":334:336   */\n              0x20\n                /* \"#utility.yul\":322:331   */\n              dup3\n                /* \"#utility.yul\":313:320   */\n              dup5\n                /* \"#utility.yul\":309:332   */\n              sub\n                /* \"#utility.yul\":305:337   */\n              slt\n                /* \"#utility.yul\":302:354   */\n              iszero\n              tag_49\n              jumpi\n                /* \"#utility.yul\":350:351   */\n              0x00\n                /* \"#utility.yul\":347:348   */\n              dup1\n                /* \"#utility.yul\":340:352   */\n              revert\n                /* \"#utility.yul\":302:354   */\n            tag_49:\n                /* \"#utility.yul\":376:399   */\n              dup2\n              calldataload\n              sub(shl(0xa0, 0x01), 0x01)\n                /* \"#utility.yul\":428:459   */\n              dup2\n              and\n                /* \"#utility.yul\":418:460   */\n              dup2\n              eq\n                /* \"#utility.yul\":408:478   */\n              tag_50\n              jumpi\n                /* \"#utility.yul\":474:475   */\n              0x00\n                /* \"#utility.yul\":471:472   */\n              dup1\n                /* \"#utility.yul\":464:476   */\n              revert\n                /* \"#utility.yul\":408:478   */\n            tag_50:\n                /* \"#utility.yul\":497:502   */\n              swap4\n                /* \"#utility.yul\":222:508   */\n              swap3\n              pop\n              pop\n              pop\n              jump\t// out\n\n            auxdata: 0xa2646970667358221220813e0a5416310ac8a9edc0d3f7a955886d630a6f8eff3b07b6d6663cc9a34de564736f6c634300081a0033\n        }\n    }\n\n    sub_1: assembly {\n            /* \"src/noti.sol\":5599:8463  contract NotiStorage {... */\n          mstore(0x40, 0x80)\n            /* \"src/noti.sol\":6342:6600  constructor(address _dappOwner, address _permissionManager, address _notiHub) {... */\n          callvalue\n          dup1\n          iszero\n          tag_1\n          jumpi\n          0x00\n          dup1\n          revert\n        tag_1:\n          pop\n          mload(0x40)\n          sub(codesize, bytecodeSize)\n          dup1\n          bytecodeSize\n          dup4\n          codecopy\n          dup2\n          add\n          0x40\n          dup2\n          swap1\n          mstore\n          tag_2\n          swap2\n          tag_3\n          jump\t// in\n        tag_2:\n            /* \"src/noti.sol\":6430:6439  dappOwner */\n          0x00\n            /* \"src/noti.sol\":6430:6452  dappOwner = _dappOwner */\n          dup1\n          sload\n          sub(shl(0xa0, 0x01), 0x01)\n          swap5\n          dup6\n          and\n          not(sub(shl(0xa0, 0x01), 0x01))\n          swap2\n          dup3\n          and\n          or\n          swap1\n          swap2\n          sstore\n          0x01\n            /* \"src/noti.sol\":6462:6519  permissionManager = PermissionManager(_permissionManager) */\n          dup1\n          sload\n          swap4\n          dup6\n          and\n          swap4\n          dup3\n          and\n          swap4\n          swap1\n          swap4\n          or\n          swap1\n          swap3\n          sstore\n            /* \"src/noti.sol\":6529:6536  notiHub */\n          0x02\n            /* \"src/noti.sol\":6529:6556  notiHub = NotiHub(_notiHub) */\n          dup1\n          sload\n          swap2\n          swap1\n          swap4\n          and\n          swap2\n          and\n          or\n          swap1\n          sstore\n            /* \"src/noti.sol\":5599:8463  contract NotiStorage {... */\n          jump(tag_8)\n            /* \"#utility.yul\":14:191   */\n        tag_7:\n            /* \"#utility.yul\":93:106   */\n          dup1\n          mload\n          sub(shl(0xa0, 0x01), 0x01)\n            /* \"#utility.yul\":135:166   */\n          dup2\n          and\n            /* \"#utility.yul\":125:167   */\n          dup2\n          eq\n            /* \"#utility.yul\":115:185   */\n          tag_10\n          jumpi\n            /* \"#utility.yul\":181:182   */\n          0x00\n            /* \"#utility.yul\":178:179   */\n          dup1\n            /* \"#utility.yul\":171:183   */\n          revert\n            /* \"#utility.yul\":115:185   */\n        tag_10:\n            /* \"#utility.yul\":14:191   */\n          swap2\n          swap1\n          pop\n          jump\t// out\n            /* \"#utility.yul\":196:574   */\n        tag_3:\n            /* \"#utility.yul\":284:290   */\n          0x00\n            /* \"#utility.yul\":292:298   */\n          dup1\n            /* \"#utility.yul\":300:306   */\n          0x00\n            /* \"#utility.yul\":353:355   */\n          0x60\n            /* \"#utility.yul\":341:350   */\n          dup5\n            /* \"#utility.yul\":332:339   */\n          dup7\n            /* \"#utility.yul\":328:351   */\n          sub\n            /* \"#utility.yul\":324:356   */\n          slt\n            /* \"#utility.yul\":321:373   */\n          iszero\n          tag_12\n          jumpi\n            /* \"#utility.yul\":369:370   */\n          0x00\n            /* \"#utility.yul\":366:367   */\n          dup1\n            /* \"#utility.yul\":359:371   */\n          revert\n            /* \"#utility.yul\":321:373   */\n        tag_12:\n            /* \"#utility.yul\":392:432   */\n          tag_13\n            /* \"#utility.yul\":422:431   */\n          dup5\n            /* \"#utility.yul\":392:432   */\n          tag_7\n          jump\t// in\n        tag_13:\n            /* \"#utility.yul\":382:432   */\n          swap3\n          pop\n            /* \"#utility.yul\":451:500   */\n          tag_14\n            /* \"#utility.yul\":496:498   */\n          0x20\n            /* \"#utility.yul\":485:494   */\n          dup6\n            /* \"#utility.yul\":481:499   */\n          add\n            /* \"#utility.yul\":451:500   */\n          tag_7\n          jump\t// in\n        tag_14:\n            /* \"#utility.yul\":441:500   */\n          swap2\n          pop\n            /* \"#utility.yul\":519:568   */\n          tag_15\n            /* \"#utility.yul\":564:566   */\n          0x40\n            /* \"#utility.yul\":553:562   */\n          dup6\n            /* \"#utility.yul\":549:567   */\n          add\n            /* \"#utility.yul\":519:568   */\n          tag_7\n          jump\t// in\n        tag_15:\n            /* \"#utility.yul\":509:568   */\n          swap1\n          pop\n            /* \"#utility.yul\":196:574   */\n          swap3\n          pop\n          swap3\n          pop\n          swap3\n          jump\t// out\n        tag_8:\n            /* \"src/noti.sol\":5599:8463  contract NotiStorage {... */\n          dataSize(sub_0)\n          dup1\n          dataOffset(sub_0)\n          0x00\n          codecopy\n          0x00\n          return\n        stop\n\n        sub_0: assembly {\n                /* \"src/noti.sol\":5599:8463  contract NotiStorage {... */\n              mstore(0x40, 0x80)\n              callvalue\n              dup1\n              iszero\n              tag_1\n              jumpi\n              0x00\n              dup1\n              revert\n            tag_1:\n              pop\n              jumpi(tag_2, lt(calldatasize, 0x04))\n              shr(0xe0, calldataload(0x00))\n              dup1\n              0x49f66a2c\n              eq\n              tag_3\n              jumpi\n              dup1\n              0x86dc758d\n              eq\n              tag_4\n              jumpi\n              dup1\n              0x9ac7c29c\n              eq\n              tag_5\n              jumpi\n              dup1\n              0xcc7a2049\n              eq\n              tag_6\n              jumpi\n              dup1\n              0xde61d238\n              eq\n              tag_7\n              jumpi\n            tag_2:\n              0x00\n              dup1\n              revert\n                /* \"src/noti.sol\":6837:7508  function sendNotification(address _user, string calldata _message) external onlyDappOwner {... */\n            tag_3:\n              tag_8\n              tag_9\n              calldatasize\n              0x04\n              tag_10\n              jump\t// in\n            tag_9:\n              tag_11\n              jump\t// in\n            tag_8:\n              stop\n                /* \"src/noti.sol\":5704:5726  NotiHub public notiHub */\n            tag_4:\n              sload(0x02)\n              tag_12\n              swap1\n              sub(shl(0xa0, 0x01), 0x01)\n              and\n              dup2\n              jump\n            tag_12:\n              mload(0x40)\n              sub(shl(0xa0, 0x01), 0x01)\n                /* \"#utility.yul\":1037:1069   */\n              swap1\n              swap2\n              and\n                /* \"#utility.yul\":1019:1070   */\n              dup2\n              mstore\n                /* \"#utility.yul\":1007:1009   */\n              0x20\n                /* \"#utility.yul\":992:1010   */\n              add\n                /* \"src/noti.sol\":5704:5726  NotiHub public notiHub */\n            tag_14:\n              mload(0x40)\n              dup1\n              swap2\n              sub\n              swap1\n              return\n                /* \"src/noti.sol\":5626:5650  address public dappOwner */\n            tag_5:\n              sload(0x00)\n              tag_12\n              swap1\n              sub(shl(0xa0, 0x01), 0x01)\n              and\n              dup2\n              jump\n                /* \"src/noti.sol\":5656:5698  PermissionManager public permissionManager */\n            tag_6:\n              sload(0x01)\n              tag_12\n              swap1\n              sub(shl(0xa0, 0x01), 0x01)\n              and\n              dup2\n              jump\n                /* \"src/noti.sol\":7816:8461  function getNotiList(address _user, uint256 startIndex, uint256 limit) external view returns (Notification[] memory) {... */\n            tag_7:\n              tag_24\n              tag_25\n              calldatasize\n              0x04\n              tag_26\n              jump\t// in\n            tag_25:\n              tag_27\n              jump\t// in\n            tag_24:\n              mload(0x40)\n              tag_14\n              swap2\n              swap1\n              tag_29\n              jump\t// in\n                /* \"src/noti.sol\":6837:7508  function sendNotification(address _user, string calldata _message) external onlyDappOwner {... */\n            tag_11:\n                /* \"src/noti.sol\":6290:6299  dappOwner */\n              and(sub(shl(0xa0, 0x01), 0x01), sload(0x00))\n                /* \"src/noti.sol\":6276:6286  msg.sender */\n              caller\n                /* \"src/noti.sol\":6276:6299  msg.sender == dappOwner */\n              eq\n                /* \"src/noti.sol\":6268:6318  require(msg.sender == dappOwner, \"Not authorized\") */\n              tag_31\n              jumpi\n              mload(0x40)\n              shl(0xe5, 0x461bcd)\n              dup2\n              mstore\n                /* \"#utility.yul\":3507:3509   */\n              0x20\n                /* \"src/noti.sol\":6268:6318  require(msg.sender == dappOwner, \"Not authorized\") */\n              0x04\n              dup3\n              add\n                /* \"#utility.yul\":3489:3510   */\n              mstore\n                /* \"#utility.yul\":3546:3548   */\n              0x0e\n                /* \"#utility.yul\":3526:3544   */\n              0x24\n              dup3\n              add\n                /* \"#utility.yul\":3519:3549   */\n              mstore\n              shl(0x92, 0x139bdd08185d5d1a1bdc9a5e9959)\n                /* \"#utility.yul\":3565:3583   */\n              0x44\n              dup3\n              add\n                /* \"#utility.yul\":3558:3602   */\n              mstore\n                /* \"#utility.yul\":3619:3637   */\n              0x64\n              add\n                /* \"src/noti.sol\":6268:6318  require(msg.sender == dappOwner, \"Not authorized\") */\n            tag_32:\n              mload(0x40)\n              dup1\n              swap2\n              sub\n              swap1\n              revert\n            tag_31:\n                /* \"src/noti.sol\":6945:6962  permissionManager */\n              sload(0x01)\n                /* \"src/noti.sol\":6945:6986  permissionManager.isUserRegistered(_user) */\n              mload(0x40)\n              shl(0xe1, 0x0b1fba91)\n              dup2\n              mstore\n              sub(shl(0xa0, 0x01), 0x01)\n                /* \"#utility.yul\":1037:1069   */\n              dup6\n              dup2\n              and\n                /* \"src/noti.sol\":6945:6986  permissionManager.isUserRegistered(_user) */\n              0x04\n              dup4\n              add\n                /* \"#utility.yul\":1019:1070   */\n              mstore\n                /* \"src/noti.sol\":6945:6962  permissionManager */\n              swap1\n              swap2\n              and\n              swap1\n                /* \"src/noti.sol\":6945:6979  permissionManager.isUserRegistered */\n              0x163f7522\n              swap1\n                /* \"#utility.yul\":992:1010   */\n              0x24\n              add\n                /* \"src/noti.sol\":6945:6986  permissionManager.isUserRegistered(_user) */\n              0x20\n              mload(0x40)\n              dup1\n              dup4\n              sub\n              dup2\n              dup7\n              gas\n              staticcall\n              iszero\n              dup1\n              iszero\n              tag_37\n              jumpi\n              returndatasize\n              0x00\n              dup1\n              returndatacopy\n              revert(0x00, returndatasize)\n            tag_37:\n              pop\n              pop\n              pop\n              pop\n              mload(0x40)\n              returndatasize\n              not(0x1f)\n              0x1f\n              dup3\n              add\n              and\n              dup3\n              add\n              dup1\n              0x40\n              mstore\n              pop\n              dup2\n              add\n              swap1\n              tag_38\n              swap2\n              swap1\n              tag_39\n              jump\t// in\n            tag_38:\n                /* \"src/noti.sol\":6937:7010  require(permissionManager.isUserRegistered(_user), \"User not registered\") */\n              tag_40\n              jumpi\n              mload(0x40)\n              shl(0xe5, 0x461bcd)\n              dup2\n              mstore\n                /* \"#utility.yul\":4132:4134   */\n              0x20\n                /* \"src/noti.sol\":6937:7010  require(permissionManager.isUserRegistered(_user), \"User not registered\") */\n              0x04\n              dup3\n              add\n                /* \"#utility.yul\":4114:4135   */\n              mstore\n                /* \"#utility.yul\":4171:4173   */\n              0x13\n                /* \"#utility.yul\":4151:4169   */\n              0x24\n              dup3\n              add\n                /* \"#utility.yul\":4144:4174   */\n              mstore\n              shl(0x6a, 0x155cd95c881b9bdd081c9959da5cdd195c9959)\n                /* \"#utility.yul\":4190:4208   */\n              0x44\n              dup3\n              add\n                /* \"#utility.yul\":4183:4232   */\n              mstore\n                /* \"#utility.yul\":4249:4267   */\n              0x64\n              add\n                /* \"src/noti.sol\":6937:7010  require(permissionManager.isUserRegistered(_user), \"User not registered\") */\n              tag_32\n                /* \"#utility.yul\":3930:4273   */\n              jump\n                /* \"src/noti.sol\":6937:7010  require(permissionManager.isUserRegistered(_user), \"User not registered\") */\n            tag_40:\n                /* \"src/noti.sol\":7021:7036  uint256 eventId */\n              0x00\n                /* \"src/noti.sol\":7074:7089  block.timestamp */\n              timestamp\n                /* \"src/noti.sol\":7091:7096  _user */\n              dup5\n                /* \"src/noti.sol\":7098:7106  _message */\n              dup5\n              dup5\n                /* \"src/noti.sol\":7057:7107  abi.encodePacked(block.timestamp, _user, _message) */\n              add(0x20, mload(0x40))\n              tag_43\n              swap5\n              swap4\n              swap3\n              swap2\n              swap1\n              tag_44\n              jump\t// in\n            tag_43:\n              0x40\n              dup1\n              mload\n              not(0x1f)\n              dup2\n              dup5\n              sub\n              add\n              dup2\n              mstore\n              dup3\n              dup3\n              mstore\n                /* \"src/noti.sol\":7047:7108  keccak256(abi.encodePacked(block.timestamp, _user, _message)) */\n              dup1\n              mload\n                /* \"src/noti.sol\":7057:7107  abi.encodePacked(block.timestamp, _user, _message) */\n              0x20\n                /* \"src/noti.sol\":7047:7108  keccak256(abi.encodePacked(block.timestamp, _user, _message)) */\n              swap2\n              dup3\n              add\n              keccak256\n                /* \"src/noti.sol\":7149:7204  Notification(eventId, _message, block.timestamp, false) */\n              0x80\n              dup5\n              add\n              dup4\n              mstore\n              dup1\n              dup5\n              mstore\n              dup3\n              mload\n              0x1f\n              dup8\n              add\n              dup4\n              swap1\n              div\n              dup4\n              mul\n              dup2\n              add\n              dup4\n              add\n              swap1\n              swap4\n              mstore\n              dup6\n              dup4\n              mstore\n                /* \"src/noti.sol\":7047:7108  keccak256(abi.encodePacked(block.timestamp, _user, _message)) */\n              swap4\n              pop\n                /* \"src/noti.sol\":7039:7109  uint256(keccak256(abi.encodePacked(block.timestamp, _user, _message))) */\n              0x00\n              swap3\n                /* \"src/noti.sol\":7057:7107  abi.encodePacked(block.timestamp, _user, _message) */\n              swap2\n                /* \"src/noti.sol\":7149:7204  Notification(eventId, _message, block.timestamp, false) */\n              dup3\n              dup3\n              add\n              swap2\n                /* \"src/noti.sol\":7171:7179  _message */\n              dup8\n              swap1\n              dup8\n              swap1\n              dup2\n              swap1\n                /* \"src/noti.sol\":7149:7204  Notification(eventId, _message, block.timestamp, false) */\n              dup5\n              add\n                /* \"src/noti.sol\":7171:7179  _message */\n              dup4\n              dup3\n              dup1\n              dup3\n                /* \"src/noti.sol\":7149:7204  Notification(eventId, _message, block.timestamp, false) */\n              dup5\n              calldatacopy\n              0x00\n              swap3\n              add\n              dup3\n              swap1\n              mstore\n              pop\n              swap4\n              dup6\n              mstore\n              pop\n              pop\n                /* \"src/noti.sol\":7181:7196  block.timestamp */\n              timestamp\n                /* \"src/noti.sol\":7149:7204  Notification(eventId, _message, block.timestamp, false) */\n              0x20\n              dup1\n              dup6\n              add\n              swap2\n              swap1\n              swap2\n              mstore\n              0x40\n              swap4\n              dup5\n              add\n              dup4\n              swap1\n              mstore\n                /* \"src/noti.sol\":7215:7234  mEventInfo[eventId] */\n              dup7\n              dup4\n              mstore\n                /* \"src/noti.sol\":7215:7225  mEventInfo */\n              0x04\n                /* \"src/noti.sol\":7215:7234  mEventInfo[eventId] */\n              dup2\n              mstore\n              swap3\n              swap1\n              swap2\n              keccak256\n                /* \"src/noti.sol\":7215:7244  mEventInfo[eventId] = newNoti */\n              dup4\n              mload\n              dup2\n              sstore\n              swap2\n              dup4\n              add\n              mload\n                /* \"src/noti.sol\":7119:7204  Notification memory newNoti = Notification(eventId, _message, block.timestamp, false) */\n              swap3\n              swap4\n              pop\n              dup4\n              swap3\n                /* \"src/noti.sol\":7149:7204  Notification(eventId, _message, block.timestamp, false) */\n              0x01\n                /* \"src/noti.sol\":7215:7244  mEventInfo[eventId] = newNoti */\n              dup4\n              add\n              swap2\n              pop\n              tag_45\n              swap1\n              dup3\n              tag_46\n              jump\t// in\n            tag_45:\n              pop\n              0x40\n              dup3\n              dup2\n              add\n              mload\n              0x02\n              dup4\n              add\n              sstore\n              0x60\n              swap1\n              swap3\n              add\n              mload\n              0x03\n              swap2\n              dup3\n              add\n              dup1\n              sload\n              not(0xff)\n              and\n              swap2\n              iszero\n              iszero\n              swap2\n              swap1\n              swap2\n              or\n              swap1\n              sstore\n              sub(shl(0xa0, 0x01), 0x01)\n                /* \"src/noti.sol\":7254:7271  mEventList[_user] */\n              dup8\n              and\n              0x00\n              dup2\n              dup2\n              mstore\n              0x20\n              swap3\n              dup4\n              mstore\n              dup4\n              dup2\n              keccak256\n                /* \"src/noti.sol\":7254:7285  mEventList[_user].push(eventId) */\n              dup1\n              sload\n              0x01\n              dup2\n              add\n              dup3\n              sstore\n              swap1\n              dup3\n              mstore\n              swap3\n              swap1\n              keccak256\n              swap1\n              swap2\n              add\n              dup5\n              swap1\n              sstore\n                /* \"src/noti.sol\":7301:7343  NotificationSent(_user, eventId, _message) */\n              swap1\n              mload\n              0x40576715f6f18072aa1f0fcde1555973f23891fb010ef4576f2a4df7960e1d41\n              swap1\n              tag_48\n              swap1\n                /* \"src/noti.sol\":7254:7285  mEventList[_user].push(eventId) */\n              dup6\n              swap1\n                /* \"src/noti.sol\":7334:7342  _message */\n              dup9\n              swap1\n              dup9\n              swap1\n                /* \"src/noti.sol\":7301:7343  NotificationSent(_user, eventId, _message) */\n              tag_49\n              jump\t// in\n            tag_48:\n              mload(0x40)\n              dup1\n              swap2\n              sub\n              swap1\n              log2\n                /* \"src/noti.sol\":7440:7447  notiHub */\n              sload(0x02)\n              0x00\n                /* \"src/noti.sol\":7465:7474  dappOwner */\n              sload\n                /* \"src/noti.sol\":7440:7501  notiHub.emitNotification(dappOwner, _user, eventId, _message) */\n              mload(0x40)\n              shl(0xe3, 0x137dcd39)\n              dup2\n              mstore\n              sub(shl(0xa0, 0x01), 0x01)\n                /* \"src/noti.sol\":7440:7447  notiHub */\n              swap3\n              dup4\n              and\n              swap3\n                /* \"src/noti.sol\":7440:7464  notiHub.emitNotification */\n              0x9bee69c8\n              swap3\n                /* \"src/noti.sol\":7440:7501  notiHub.emitNotification(dappOwner, _user, eventId, _message) */\n              tag_50\n              swap3\n                /* \"src/noti.sol\":7465:7474  dappOwner */\n              swap2\n              and\n              swap1\n                /* \"src/noti.sol\":7476:7481  _user */\n              dup10\n              swap1\n                /* \"src/noti.sol\":7483:7490  eventId */\n              dup8\n              swap1\n                /* \"src/noti.sol\":7492:7500  _message */\n              dup11\n              swap1\n              dup11\n              swap1\n                /* \"src/noti.sol\":7440:7501  notiHub.emitNotification(dappOwner, _user, eventId, _message) */\n              0x04\n              add\n              tag_51\n              jump\t// in\n            tag_50:\n              0x00\n              mload(0x40)\n              dup1\n              dup4\n              sub\n              dup2\n              0x00\n              dup8\n              dup1\n              extcodesize\n              iszero\n              dup1\n              iszero\n              tag_52\n              jumpi\n              0x00\n              dup1\n              revert\n            tag_52:\n              pop\n              gas\n              call\n              iszero\n              dup1\n              iszero\n              tag_54\n              jumpi\n              returndatasize\n              0x00\n              dup1\n              returndatacopy\n              revert(0x00, returndatasize)\n            tag_54:\n              pop\n              pop\n              pop\n              pop\n                /* \"src/noti.sol\":6927:7508  {... */\n              pop\n              pop\n                /* \"src/noti.sol\":6837:7508  function sendNotification(address _user, string calldata _message) external onlyDappOwner {... */\n              pop\n              pop\n              pop\n              jump\t// out\n                /* \"src/noti.sol\":7816:8461  function getNotiList(address _user, uint256 startIndex, uint256 limit) external view returns (Notification[] memory) {... */\n            tag_27:\n                /* \"src/noti.sol\":7951:7968  permissionManager */\n              sload(0x01)\n                /* \"src/noti.sol\":7951:7992  permissionManager.isUserRegistered(_user) */\n              mload(0x40)\n              shl(0xe1, 0x0b1fba91)\n              dup2\n              mstore\n              sub(shl(0xa0, 0x01), 0x01)\n                /* \"#utility.yul\":1037:1069   */\n              dup6\n              dup2\n              and\n                /* \"src/noti.sol\":7951:7992  permissionManager.isUserRegistered(_user) */\n              0x04\n              dup4\n              add\n                /* \"#utility.yul\":1019:1070   */\n              mstore\n                /* \"src/noti.sol\":7910:7931  Notification[] memory */\n              0x60\n              swap3\n                /* \"src/noti.sol\":7951:7968  permissionManager */\n              and\n              swap1\n                /* \"src/noti.sol\":7951:7985  permissionManager.isUserRegistered */\n              0x163f7522\n              swap1\n                /* \"#utility.yul\":992:1010   */\n              0x24\n              add\n                /* \"src/noti.sol\":7951:7992  permissionManager.isUserRegistered(_user) */\n              0x20\n              mload(0x40)\n              dup1\n              dup4\n              sub\n              dup2\n              dup7\n              gas\n              staticcall\n              iszero\n              dup1\n              iszero\n              tag_58\n              jumpi\n              returndatasize\n              0x00\n              dup1\n              returndatacopy\n              revert(0x00, returndatasize)\n            tag_58:\n              pop\n              pop\n              pop\n              pop\n              mload(0x40)\n              returndatasize\n              not(0x1f)\n              0x1f\n              dup3\n              add\n              and\n              dup3\n              add\n              dup1\n              0x40\n              mstore\n              pop\n              dup2\n              add\n              swap1\n              tag_59\n              swap2\n              swap1\n              tag_39\n              jump\t// in\n            tag_59:\n                /* \"src/noti.sol\":7943:8016  require(permissionManager.isUserRegistered(_user), \"User not registered\") */\n              tag_60\n              jumpi\n              mload(0x40)\n              shl(0xe5, 0x461bcd)\n              dup2\n              mstore\n                /* \"#utility.yul\":4132:4134   */\n              0x20\n                /* \"src/noti.sol\":7943:8016  require(permissionManager.isUserRegistered(_user), \"User not registered\") */\n              0x04\n              dup3\n              add\n                /* \"#utility.yul\":4114:4135   */\n              mstore\n                /* \"#utility.yul\":4171:4173   */\n              0x13\n                /* \"#utility.yul\":4151:4169   */\n              0x24\n              dup3\n              add\n                /* \"#utility.yul\":4144:4174   */\n              mstore\n              shl(0x6a, 0x155cd95c881b9bdd081c9959da5cdd195c9959)\n                /* \"#utility.yul\":4190:4208   */\n              0x44\n              dup3\n              add\n                /* \"#utility.yul\":4183:4232   */\n              mstore\n                /* \"#utility.yul\":4249:4267   */\n              0x64\n              add\n                /* \"src/noti.sol\":7943:8016  require(permissionManager.isUserRegistered(_user), \"User not registered\") */\n              tag_32\n                /* \"#utility.yul\":3930:4273   */\n              jump\n                /* \"src/noti.sol\":7943:8016  require(permissionManager.isUserRegistered(_user), \"User not registered\") */\n            tag_60:\n              sub(shl(0xa0, 0x01), 0x01)\n                /* \"src/noti.sol\":8043:8060  mEventList[_user] */\n              dup5\n              and\n                /* \"src/noti.sol\":8027:8040  uint256 total */\n              0x00\n                /* \"src/noti.sol\":8043:8060  mEventList[_user] */\n              swap1\n              dup2\n              mstore\n                /* \"src/noti.sol\":8043:8053  mEventList */\n              0x03\n                /* \"src/noti.sol\":8043:8060  mEventList[_user] */\n              0x20\n              mstore\n              0x40\n              swap1\n              keccak256\n                /* \"src/noti.sol\":8043:8067  mEventList[_user].length */\n              sload\n                /* \"src/noti.sol\":8081:8100  startIndex >= total */\n              dup1\n              dup5\n              lt\n                /* \"src/noti.sol\":8077:8130  if (startIndex >= total) return new Notification[](0) */\n              tag_62\n              jumpi\n                /* \"src/noti.sol\":8109:8130  new Notification[](0) */\n              0x40\n              dup1\n              mload\n                /* \"src/noti.sol\":8128:8129  0 */\n              0x00\n                /* \"src/noti.sol\":8109:8130  new Notification[](0) */\n              dup1\n              dup3\n              mstore\n              0x20\n              dup3\n              add\n              swap1\n              swap3\n              mstore\n              swap1\n              jump(tag_66)\n            tag_67:\n              tag_68\n              mload(0x40)\n              dup1\n              0x80\n              add\n              0x40\n              mstore\n              dup1\n              0x00\n              dup2\n              mstore\n              0x20\n              add\n              0x60\n              dup2\n              mstore\n              0x20\n              add\n              0x00\n              dup2\n              mstore\n              0x20\n              add\n              iszero(iszero(0x00))\n              dup2\n              mstore\n              pop\n              swap1\n              jump\n            tag_68:\n              dup2\n              mstore\n              0x20\n              add\n              swap1\n              0x01\n              swap1\n              sub\n              swap1\n              dup2\n              tag_67\n              jumpi\n              swap1\n              pop\n            tag_66:\n              pop\n                /* \"src/noti.sol\":8102:8130  return new Notification[](0) */\n              swap2\n              pop\n              pop\n              jump(tag_55)\n                /* \"src/noti.sol\":8077:8130  if (startIndex >= total) return new Notification[](0) */\n            tag_62:\n                /* \"src/noti.sol\":8142:8160  uint256 fetchCount */\n              0x00\n                /* \"src/noti.sol\":8185:8190  limit */\n              dup4\n                /* \"src/noti.sol\":8164:8182  total - startIndex */\n              tag_70\n                /* \"src/noti.sol\":8172:8182  startIndex */\n              dup7\n                /* \"src/noti.sol\":8164:8169  total */\n              dup5\n                /* \"src/noti.sol\":8164:8182  total - startIndex */\n              tag_71\n              jump\t// in\n            tag_70:\n                /* \"src/noti.sol\":8164:8190  total - startIndex > limit */\n              gt\n                /* \"src/noti.sol\":8163:8220  (total - startIndex > limit) ? limit : total - startIndex */\n              tag_72\n              jumpi\n                /* \"src/noti.sol\":8202:8220  total - startIndex */\n              tag_73\n                /* \"src/noti.sol\":8210:8220  startIndex */\n              dup6\n                /* \"src/noti.sol\":8202:8207  total */\n              dup4\n                /* \"src/noti.sol\":8202:8220  total - startIndex */\n              tag_71\n              jump\t// in\n            tag_73:\n                /* \"src/noti.sol\":8163:8220  (total - startIndex > limit) ? limit : total - startIndex */\n              jump(tag_74)\n            tag_72:\n                /* \"src/noti.sol\":8194:8199  limit */\n              dup4\n                /* \"src/noti.sol\":8163:8220  (total - startIndex > limit) ? limit : total - startIndex */\n            tag_74:\n                /* \"src/noti.sol\":8142:8220  uint256 fetchCount = (total - startIndex > limit) ? limit : total - startIndex */\n              swap1\n              pop\n                /* \"src/noti.sol\":8230:8260  Notification[] memory notiList */\n              0x00\n                /* \"src/noti.sol\":8282:8292  fetchCount */\n              dup2\n                /* \"src/noti.sol\":8263:8293  new Notification[](fetchCount) */\n              0xffffffffffffffff\n              dup2\n              gt\n              iszero\n              tag_76\n              jumpi\n              tag_76\n              tag_65\n              jump\t// in\n            tag_76:\n              mload(0x40)\n              swap1\n              dup1\n              dup3\n              mstore\n              dup1\n              0x20\n              mul\n              0x20\n              add\n              dup3\n              add\n              0x40\n              mstore\n              dup1\n              iszero\n              tag_77\n              jumpi\n              dup2\n              0x20\n              add\n            tag_78:\n              tag_79\n              mload(0x40)\n              dup1\n              0x80\n              add\n              0x40\n              mstore\n              dup1\n              0x00\n              dup2\n              mstore\n              0x20\n              add\n              0x60\n              dup2\n              mstore\n              0x20\n              add\n              0x00\n              dup2\n              mstore\n              0x20\n              add\n              iszero(iszero(0x00))\n              dup2\n              mstore\n              pop\n              swap1\n              jump\n            tag_79:\n              dup2\n              mstore\n              0x20\n              add\n              swap1\n              0x01\n              swap1\n              sub\n              swap1\n              dup2\n              tag_78\n              jumpi\n              swap1\n              pop\n            tag_77:\n              pop\n                /* \"src/noti.sol\":8230:8293  Notification[] memory notiList = new Notification[](fetchCount) */\n              swap1\n              pop\n                /* \"src/noti.sol\":8309:8318  uint256 i */\n              0x00\n                /* \"src/noti.sol\":8304:8429  for (uint256 i = 0; i < fetchCount; i++) {... */\n            tag_80:\n                /* \"src/noti.sol\":8328:8338  fetchCount */\n              dup3\n                /* \"src/noti.sol\":8324:8325  i */\n              dup2\n                /* \"src/noti.sol\":8324:8338  i < fetchCount */\n              lt\n                /* \"src/noti.sol\":8304:8429  for (uint256 i = 0; i < fetchCount; i++) {... */\n              iszero\n              tag_81\n              jumpi\n              sub(shl(0xa0, 0x01), 0x01)\n                /* \"src/noti.sol\":8384:8401  mEventList[_user] */\n              dup9\n              and\n                /* \"src/noti.sol\":8373:8418  mEventInfo[mEventList[_user][startIndex + i]] */\n              0x00\n                /* \"src/noti.sol\":8384:8401  mEventList[_user] */\n              swap1\n              dup2\n              mstore\n                /* \"src/noti.sol\":8384:8394  mEventList */\n              0x03\n                /* \"src/noti.sol\":8384:8401  mEventList[_user] */\n              0x20\n              mstore\n              0x40\n              dup2\n              keccak256\n                /* \"src/noti.sol\":8373:8383  mEventInfo */\n              0x04\n              swap2\n                /* \"src/noti.sol\":8373:8418  mEventInfo[mEventList[_user][startIndex + i]] */\n              swap1\n                /* \"src/noti.sol\":8402:8416  startIndex + i */\n              tag_83\n                /* \"src/noti.sol\":8415:8416  i */\n              dup5\n                /* \"src/noti.sol\":8402:8412  startIndex */\n              dup12\n                /* \"src/noti.sol\":8402:8416  startIndex + i */\n              tag_84\n              jump\t// in\n            tag_83:\n                /* \"src/noti.sol\":8384:8417  mEventList[_user][startIndex + i] */\n              dup2\n              sload\n              dup2\n              lt\n              tag_86\n              jumpi\n              tag_86\n              tag_87\n              jump\t// in\n            tag_86:\n              swap1\n              0x00\n              mstore\n              keccak256(0x00, 0x20)\n              add\n              sload\n                /* \"src/noti.sol\":8373:8418  mEventInfo[mEventList[_user][startIndex + i]] */\n              dup2\n              mstore\n              0x20\n              add\n              swap1\n              dup2\n              mstore\n              0x20\n              add\n              0x00\n              keccak256\n                /* \"src/noti.sol\":8359:8418  notiList[i] = mEventInfo[mEventList[_user][startIndex + i]] */\n              mload(0x40)\n              dup1\n              0x80\n              add\n              0x40\n              mstore\n              swap1\n              dup2\n              0x00\n              dup3\n              add\n              sload\n              dup2\n              mstore\n              0x20\n              add\n              0x01\n              dup3\n              add\n              dup1\n              sload\n              tag_89\n              swap1\n              tag_90\n              jump\t// in\n            tag_89:\n              dup1\n              0x1f\n              add\n              0x20\n              dup1\n              swap2\n              div\n              mul\n              0x20\n              add\n              mload(0x40)\n              swap1\n              dup2\n              add\n              0x40\n              mstore\n              dup1\n              swap3\n              swap2\n              swap1\n              dup2\n              dup2\n              mstore\n              0x20\n              add\n              dup3\n              dup1\n              sload\n              tag_91\n              swap1\n              tag_90\n              jump\t// in\n            tag_91:\n              dup1\n              iszero\n              tag_92\n              jumpi\n              dup1\n              0x1f\n              lt\n              tag_93\n              jumpi\n              0x0100\n              dup1\n              dup4\n              sload\n              div\n              mul\n              dup4\n              mstore\n              swap2\n              0x20\n              add\n              swap2\n              jump(tag_92)\n            tag_93:\n              dup3\n              add\n              swap2\n              swap1\n              0x00\n              mstore\n              keccak256(0x00, 0x20)\n              swap1\n            tag_94:\n              dup2\n              sload\n              dup2\n              mstore\n              swap1\n              0x01\n              add\n              swap1\n              0x20\n              add\n              dup1\n              dup4\n              gt\n              tag_94\n              jumpi\n              dup3\n              swap1\n              sub\n              0x1f\n              and\n              dup3\n              add\n              swap2\n            tag_92:\n              pop\n              pop\n              pop\n              swap2\n              dup4\n              mstore\n              pop\n              pop\n              0x02\n              dup3\n              add\n              sload\n              0x20\n              dup3\n              add\n              mstore\n              0x03\n              swap1\n              swap2\n              add\n              sload\n              0xff\n              and\n              iszero\n              iszero\n              0x40\n              swap1\n              swap2\n              add\n              mstore\n                /* \"src/noti.sol\":8359:8370  notiList[i] */\n              dup3\n              mload\n                /* \"src/noti.sol\":8359:8367  notiList */\n              dup4\n              swap1\n                /* \"src/noti.sol\":8368:8369  i */\n              dup4\n              swap1\n                /* \"src/noti.sol\":8359:8370  notiList[i] */\n              dup2\n              lt\n              tag_96\n              jumpi\n              tag_96\n              tag_87\n              jump\t// in\n            tag_96:\n              0x20\n              swap1\n              dup2\n              mul\n              swap2\n              swap1\n              swap2\n              add\n              add\n                /* \"src/noti.sol\":8359:8418  notiList[i] = mEventInfo[mEventList[_user][startIndex + i]] */\n              mstore\n                /* \"src/noti.sol\":8340:8343  i++ */\n              0x01\n              add\n                /* \"src/noti.sol\":8304:8429  for (uint256 i = 0; i < fetchCount; i++) {... */\n              jump(tag_80)\n            tag_81:\n              pop\n                /* \"src/noti.sol\":8446:8454  notiList */\n              swap3\n              pop\n              pop\n              pop\n                /* \"src/noti.sol\":7816:8461  function getNotiList(address _user, uint256 startIndex, uint256 limit) external view returns (Notification[] memory) {... */\n            tag_55:\n              swap4\n              swap3\n              pop\n              pop\n              pop\n              jump\t// out\n                /* \"#utility.yul\":14:187   */\n            tag_97:\n                /* \"#utility.yul\":82:102   */\n              dup1\n              calldataload\n              sub(shl(0xa0, 0x01), 0x01)\n                /* \"#utility.yul\":131:162   */\n              dup2\n              and\n                /* \"#utility.yul\":121:163   */\n              dup2\n              eq\n                /* \"#utility.yul\":111:181   */\n              tag_105\n              jumpi\n                /* \"#utility.yul\":177:178   */\n              0x00\n                /* \"#utility.yul\":174:175   */\n              dup1\n                /* \"#utility.yul\":167:179   */\n              revert\n                /* \"#utility.yul\":111:181   */\n            tag_105:\n                /* \"#utility.yul\":14:187   */\n              swap2\n              swap1\n              pop\n              jump\t// out\n                /* \"#utility.yul\":192:853   */\n            tag_10:\n                /* \"#utility.yul\":272:278   */\n              0x00\n                /* \"#utility.yul\":280:286   */\n              dup1\n                /* \"#utility.yul\":288:294   */\n              0x00\n                /* \"#utility.yul\":341:343   */\n              0x40\n                /* \"#utility.yul\":329:338   */\n              dup5\n                /* \"#utility.yul\":320:327   */\n              dup7\n                /* \"#utility.yul\":316:339   */\n              sub\n                /* \"#utility.yul\":312:344   */\n              slt\n                /* \"#utility.yul\":309:361   */\n              iszero\n              tag_107\n              jumpi\n                /* \"#utility.yul\":357:358   */\n              0x00\n                /* \"#utility.yul\":354:355   */\n              dup1\n                /* \"#utility.yul\":347:359   */\n              revert\n                /* \"#utility.yul\":309:361   */\n            tag_107:\n                /* \"#utility.yul\":380:409   */\n              tag_108\n                /* \"#utility.yul\":399:408   */\n              dup5\n                /* \"#utility.yul\":380:409   */\n              tag_97\n              jump\t// in\n            tag_108:\n                /* \"#utility.yul\":370:409   */\n              swap3\n              pop\n                /* \"#utility.yul\":460:462   */\n              0x20\n                /* \"#utility.yul\":449:458   */\n              dup5\n                /* \"#utility.yul\":445:463   */\n              add\n                /* \"#utility.yul\":432:464   */\n              calldataload\n                /* \"#utility.yul\":487:505   */\n              0xffffffffffffffff\n                /* \"#utility.yul\":479:485   */\n              dup2\n                /* \"#utility.yul\":476:506   */\n              gt\n                /* \"#utility.yul\":473:523   */\n              iszero\n              tag_109\n              jumpi\n                /* \"#utility.yul\":519:520   */\n              0x00\n                /* \"#utility.yul\":516:517   */\n              dup1\n                /* \"#utility.yul\":509:521   */\n              revert\n                /* \"#utility.yul\":473:523   */\n            tag_109:\n                /* \"#utility.yul\":542:564   */\n              dup5\n              add\n                /* \"#utility.yul\":595:599   */\n              0x1f\n                /* \"#utility.yul\":587:600   */\n              dup2\n              add\n                /* \"#utility.yul\":583:610   */\n              dup7\n              sgt\n                /* \"#utility.yul\":573:628   */\n              tag_110\n              jumpi\n                /* \"#utility.yul\":624:625   */\n              0x00\n                /* \"#utility.yul\":621:622   */\n              dup1\n                /* \"#utility.yul\":614:626   */\n              revert\n                /* \"#utility.yul\":573:628   */\n            tag_110:\n                /* \"#utility.yul\":664:666   */\n              dup1\n                /* \"#utility.yul\":651:667   */\n              calldataload\n                /* \"#utility.yul\":690:708   */\n              0xffffffffffffffff\n                /* \"#utility.yul\":682:688   */\n              dup2\n                /* \"#utility.yul\":679:709   */\n              gt\n                /* \"#utility.yul\":676:726   */\n              iszero\n              tag_111\n              jumpi\n                /* \"#utility.yul\":722:723   */\n              0x00\n                /* \"#utility.yul\":719:720   */\n              dup1\n                /* \"#utility.yul\":712:724   */\n              revert\n                /* \"#utility.yul\":676:726   */\n            tag_111:\n                /* \"#utility.yul\":767:774   */\n              dup7\n                /* \"#utility.yul\":762:764   */\n              0x20\n                /* \"#utility.yul\":753:759   */\n              dup3\n                /* \"#utility.yul\":749:751   */\n              dup5\n                /* \"#utility.yul\":745:760   */\n              add\n                /* \"#utility.yul\":741:765   */\n              add\n                /* \"#utility.yul\":738:775   */\n              gt\n                /* \"#utility.yul\":735:792   */\n              iszero\n              tag_112\n              jumpi\n                /* \"#utility.yul\":788:789   */\n              0x00\n                /* \"#utility.yul\":785:786   */\n              dup1\n                /* \"#utility.yul\":778:790   */\n              revert\n                /* \"#utility.yul\":735:792   */\n            tag_112:\n                /* \"#utility.yul\":192:853   */\n              swap4\n              swap7\n                /* \"#utility.yul\":819:821   */\n              0x20\n                /* \"#utility.yul\":811:822   */\n              swap2\n              swap1\n              swap2\n              add\n              swap6\n              pop\n                /* \"#utility.yul\":841:847   */\n              swap3\n              swap4\n              pop\n              pop\n              pop\n                /* \"#utility.yul\":192:853   */\n              jump\t// out\n                /* \"#utility.yul\":1522:1942   */\n            tag_26:\n                /* \"#utility.yul\":1599:1605   */\n              0x00\n                /* \"#utility.yul\":1607:1613   */\n              dup1\n                /* \"#utility.yul\":1615:1621   */\n              0x00\n                /* \"#utility.yul\":1668:1670   */\n              0x60\n                /* \"#utility.yul\":1656:1665   */\n              dup5\n                /* \"#utility.yul\":1647:1654   */\n              dup7\n                /* \"#utility.yul\":1643:1666   */\n              sub\n                /* \"#utility.yul\":1639:1671   */\n              slt\n                /* \"#utility.yul\":1636:1688   */\n              iszero\n              tag_117\n              jumpi\n                /* \"#utility.yul\":1684:1685   */\n              0x00\n                /* \"#utility.yul\":1681:1682   */\n              dup1\n                /* \"#utility.yul\":1674:1686   */\n              revert\n                /* \"#utility.yul\":1636:1688   */\n            tag_117:\n                /* \"#utility.yul\":1707:1736   */\n              tag_118\n                /* \"#utility.yul\":1726:1735   */\n              dup5\n                /* \"#utility.yul\":1707:1736   */\n              tag_97\n              jump\t// in\n            tag_118:\n                /* \"#utility.yul\":1697:1736   */\n              swap6\n                /* \"#utility.yul\":1805:1807   */\n              0x20\n                /* \"#utility.yul\":1790:1808   */\n              dup6\n              add\n                /* \"#utility.yul\":1777:1809   */\n              calldataload\n              swap6\n              pop\n                /* \"#utility.yul\":1906:1908   */\n              0x40\n                /* \"#utility.yul\":1891:1909   */\n              swap1\n              swap5\n              add\n                /* \"#utility.yul\":1878:1910   */\n              calldataload\n              swap4\n                /* \"#utility.yul\":1522:1942   */\n              swap3\n              pop\n              pop\n              pop\n              jump\t// out\n                /* \"#utility.yul\":1947:3300   */\n            tag_29:\n                /* \"#utility.yul\":2147:2151   */\n              0x00\n                /* \"#utility.yul\":2195:2197   */\n              0x20\n                /* \"#utility.yul\":2184:2193   */\n              dup3\n                /* \"#utility.yul\":2180:2198   */\n              add\n                /* \"#utility.yul\":2225:2227   */\n              0x20\n                /* \"#utility.yul\":2214:2223   */\n              dup4\n                /* \"#utility.yul\":2207:2228   */\n              mstore\n                /* \"#utility.yul\":2248:2254   */\n              dup1\n                /* \"#utility.yul\":2283:2289   */\n              dup5\n                /* \"#utility.yul\":2277:2290   */\n              mload\n                /* \"#utility.yul\":2314:2320   */\n              dup1\n                /* \"#utility.yul\":2306:2312   */\n              dup4\n                /* \"#utility.yul\":2299:2321   */\n              mstore\n                /* \"#utility.yul\":2352:2354   */\n              0x40\n                /* \"#utility.yul\":2341:2350   */\n              dup6\n                /* \"#utility.yul\":2337:2355   */\n              add\n                /* \"#utility.yul\":2330:2355   */\n              swap2\n              pop\n                /* \"#utility.yul\":2414:2416   */\n              0x40\n                /* \"#utility.yul\":2404:2410   */\n              dup2\n                /* \"#utility.yul\":2401:2402   */\n              0x05\n                /* \"#utility.yul\":2397:2411   */\n              shl\n                /* \"#utility.yul\":2386:2395   */\n              dup7\n                /* \"#utility.yul\":2382:2412   */\n              add\n                /* \"#utility.yul\":2378:2417   */\n              add\n                /* \"#utility.yul\":2364:2417   */\n              swap3\n              pop\n                /* \"#utility.yul\":2452:2454   */\n              0x20\n                /* \"#utility.yul\":2444:2450   */\n              dup7\n                /* \"#utility.yul\":2440:2455   */\n              add\n                /* \"#utility.yul\":2473:2474   */\n              0x00\n                /* \"#utility.yul\":2483:3271   */\n            tag_120:\n                /* \"#utility.yul\":2497:2503   */\n              dup3\n                /* \"#utility.yul\":2494:2495   */\n              dup2\n                /* \"#utility.yul\":2491:2504   */\n              lt\n                /* \"#utility.yul\":2483:3271   */\n              iszero\n              tag_122\n              jumpi\n                /* \"#utility.yul\":2590:2592   */\n              0x3f\n                /* \"#utility.yul\":2586:2593   */\n              not\n                /* \"#utility.yul\":2574:2583   */\n              dup8\n                /* \"#utility.yul\":2566:2572   */\n              dup7\n                /* \"#utility.yul\":2562:2584   */\n              sub\n                /* \"#utility.yul\":2558:2594   */\n              add\n                /* \"#utility.yul\":2553:2556   */\n              dup5\n                /* \"#utility.yul\":2546:2595   */\n              mstore\n                /* \"#utility.yul\":2624:2630   */\n              dup2\n                /* \"#utility.yul\":2618:2631   */\n              mload\n                /* \"#utility.yul\":2665:2667   */\n              dup1\n                /* \"#utility.yul\":2659:2668   */\n              mload\n                /* \"#utility.yul\":2651:2657   */\n              dup7\n                /* \"#utility.yul\":2644:2669   */\n              mstore\n                /* \"#utility.yul\":2716:2718   */\n              0x20\n                /* \"#utility.yul\":2712:2714   */\n              dup2\n                /* \"#utility.yul\":2708:2719   */\n              add\n                /* \"#utility.yul\":2702:2720   */\n              mload\n                /* \"#utility.yul\":2757:2761   */\n              0x80\n                /* \"#utility.yul\":2752:2754   */\n              0x20\n                /* \"#utility.yul\":2744:2750   */\n              dup9\n                /* \"#utility.yul\":2740:2755   */\n              add\n                /* \"#utility.yul\":2733:2762   */\n              mstore\n                /* \"#utility.yul\":2797:2809   */\n              dup1\n                /* \"#utility.yul\":2791:2810   */\n              mload\n                /* \"#utility.yul\":2849:2857   */\n              dup1\n                /* \"#utility.yul\":2842:2846   */\n              0x80\n                /* \"#utility.yul\":2834:2840   */\n              dup10\n                /* \"#utility.yul\":2830:2847   */\n              add\n                /* \"#utility.yul\":2823:2858   */\n              mstore\n                /* \"#utility.yul\":2918:2926   */\n              dup1\n                /* \"#utility.yul\":2913:2915   */\n              0x20\n                /* \"#utility.yul\":2899:2911   */\n              dup4\n                /* \"#utility.yul\":2895:2916   */\n              add\n                /* \"#utility.yul\":2889:2892   */\n              0xa0\n                /* \"#utility.yul\":2881:2887   */\n              dup11\n                /* \"#utility.yul\":2877:2893   */\n              add\n                /* \"#utility.yul\":2871:2927   */\n              mcopy\n                /* \"#utility.yul\":2980:2981   */\n              0x00\n                /* \"#utility.yul\":2974:2977   */\n              0xa0\n                /* \"#utility.yul\":2963:2971   */\n              dup3\n                /* \"#utility.yul\":2955:2961   */\n              dup11\n                /* \"#utility.yul\":2951:2972   */\n              add\n                /* \"#utility.yul\":2947:2978   */\n              add\n                /* \"#utility.yul\":2940:2982   */\n              mstore\n                /* \"#utility.yul\":3033:3035   */\n              0x40\n                /* \"#utility.yul\":3029:3031   */\n              dup4\n                /* \"#utility.yul\":3025:3036   */\n              add\n                /* \"#utility.yul\":3019:3037   */\n              mload\n                /* \"#utility.yul\":3014:3016   */\n              0x40\n                /* \"#utility.yul\":3006:3012   */\n              dup10\n                /* \"#utility.yul\":3002:3017   */\n              add\n                /* \"#utility.yul\":2995:3038   */\n              mstore\n                /* \"#utility.yul\":3105:3109   */\n              0x60\n                /* \"#utility.yul\":3101:3103   */\n              dup4\n                /* \"#utility.yul\":3097:3110   */\n              add\n                /* \"#utility.yul\":3091:3111   */\n              mload\n                /* \"#utility.yul\":3084:3112   */\n              iszero\n                /* \"#utility.yul\":3077:3113   */\n              iszero\n                /* \"#utility.yul\":3070:3074   */\n              0x60\n                /* \"#utility.yul\":3062:3068   */\n              dup10\n                /* \"#utility.yul\":3058:3075   */\n              add\n                /* \"#utility.yul\":3051:3114   */\n              mstore\n                /* \"#utility.yul\":3187:3190   */\n              0xa0\n                /* \"#utility.yul\":3180:3182   */\n              0x1f\n                /* \"#utility.yul\":3176:3183   */\n              not\n                /* \"#utility.yul\":3171:3173   */\n              0x1f\n                /* \"#utility.yul\":3161:3169   */\n              dup4\n                /* \"#utility.yul\":3157:3174   */\n              add\n                /* \"#utility.yul\":3153:3184   */\n              and\n                /* \"#utility.yul\":3145:3151   */\n              dup10\n                /* \"#utility.yul\":3141:3185   */\n              add\n                /* \"#utility.yul\":3137:3191   */\n              add\n                /* \"#utility.yul\":3127:3191   */\n              swap8\n              pop\n              pop\n              pop\n              pop\n                /* \"#utility.yul\":3226:3228   */\n              0x20\n                /* \"#utility.yul\":3218:3224   */\n              dup3\n                /* \"#utility.yul\":3214:3229   */\n              add\n                /* \"#utility.yul\":3204:3229   */\n              swap2\n              pop\n                /* \"#utility.yul\":3258:3260   */\n              0x20\n                /* \"#utility.yul\":3253:3256   */\n              dup5\n                /* \"#utility.yul\":3249:3261   */\n              add\n                /* \"#utility.yul\":3242:3261   */\n              swap4\n              pop\n                /* \"#utility.yul\":2519:2520   */\n              0x01\n                /* \"#utility.yul\":2516:2517   */\n              dup2\n                /* \"#utility.yul\":2512:2521   */\n              add\n                /* \"#utility.yul\":2507:2521   */\n              swap1\n              pop\n                /* \"#utility.yul\":2483:3271   */\n              jump(tag_120)\n            tag_122:\n              pop\n                /* \"#utility.yul\":3288:3294   */\n              swap3\n              swap7\n                /* \"#utility.yul\":1947:3300   */\n              swap6\n              pop\n              pop\n              pop\n              pop\n              pop\n              pop\n              jump\t// out\n                /* \"#utility.yul\":3648:3925   */\n            tag_39:\n                /* \"#utility.yul\":3715:3721   */\n              0x00\n                /* \"#utility.yul\":3768:3770   */\n              0x20\n                /* \"#utility.yul\":3756:3765   */\n              dup3\n                /* \"#utility.yul\":3747:3754   */\n              dup5\n                /* \"#utility.yul\":3743:3766   */\n              sub\n                /* \"#utility.yul\":3739:3771   */\n              slt\n                /* \"#utility.yul\":3736:3788   */\n              iszero\n              tag_125\n              jumpi\n                /* \"#utility.yul\":3784:3785   */\n              0x00\n                /* \"#utility.yul\":3781:3782   */\n              dup1\n                /* \"#utility.yul\":3774:3786   */\n              revert\n                /* \"#utility.yul\":3736:3788   */\n            tag_125:\n                /* \"#utility.yul\":3816:3825   */\n              dup2\n                /* \"#utility.yul\":3810:3826   */\n              mload\n                /* \"#utility.yul\":3869:3874   */\n              dup1\n                /* \"#utility.yul\":3862:3875   */\n              iszero\n                /* \"#utility.yul\":3855:3876   */\n              iszero\n                /* \"#utility.yul\":3848:3853   */\n              dup2\n                /* \"#utility.yul\":3845:3877   */\n              eq\n                /* \"#utility.yul\":3835:3895   */\n              tag_55\n              jumpi\n                /* \"#utility.yul\":3891:3892   */\n              0x00\n                /* \"#utility.yul\":3888:3889   */\n              dup1\n                /* \"#utility.yul\":3881:3893   */\n              revert\n                /* \"#utility.yul\":4278:4737   */\n            tag_44:\n                /* \"#utility.yul\":4505:4511   */\n              dup5\n                /* \"#utility.yul\":4500:4503   */\n              dup2\n                /* \"#utility.yul\":4493:4512   */\n              mstore\n                /* \"#utility.yul\":4567:4593   */\n              0xffffffffffffffffffffffff\n                /* \"#utility.yul\":4563:4594   */\n              not\n                /* \"#utility.yul\":4554:4560   */\n              dup5\n                /* \"#utility.yul\":4550:4552   */\n              0x60\n                /* \"#utility.yul\":4546:4561   */\n              shl\n                /* \"#utility.yul\":4542:4595   */\n              and\n                /* \"#utility.yul\":4537:4539   */\n              0x20\n                /* \"#utility.yul\":4532:4535   */\n              dup3\n                /* \"#utility.yul\":4528:4540   */\n              add\n                /* \"#utility.yul\":4521:4596   */\n              mstore\n                /* \"#utility.yul\":4640:4646   */\n              dup2\n                /* \"#utility.yul\":4632:4638   */\n              dup4\n                /* \"#utility.yul\":4627:4629   */\n              0x34\n                /* \"#utility.yul\":4622:4625   */\n              dup4\n                /* \"#utility.yul\":4618:4630   */\n              add\n                /* \"#utility.yul\":4605:4647   */\n              calldatacopy\n                /* \"#utility.yul\":4475:4478   */\n              0x00\n                /* \"#utility.yul\":4670:4686   */\n              swap2\n              add\n                /* \"#utility.yul\":4688:4690   */\n              0x34\n                /* \"#utility.yul\":4666:4691   */\n              add\n                /* \"#utility.yul\":4700:4713   */\n              swap1\n              dup2\n              mstore\n                /* \"#utility.yul\":4666:4691   */\n              swap4\n                /* \"#utility.yul\":4278:4737   */\n              swap3\n              pop\n              pop\n              pop\n              jump\t// out\n                /* \"#utility.yul\":4742:4869   */\n            tag_65:\n                /* \"#utility.yul\":4803:4813   */\n              0x4e487b71\n                /* \"#utility.yul\":4798:4801   */\n              0xe0\n                /* \"#utility.yul\":4794:4814   */\n              shl\n                /* \"#utility.yul\":4791:4792   */\n              0x00\n                /* \"#utility.yul\":4784:4815   */\n              mstore\n                /* \"#utility.yul\":4834:4838   */\n              0x41\n                /* \"#utility.yul\":4831:4832   */\n              0x04\n                /* \"#utility.yul\":4824:4839   */\n              mstore\n                /* \"#utility.yul\":4858:4862   */\n              0x24\n                /* \"#utility.yul\":4855:4856   */\n              0x00\n                /* \"#utility.yul\":4848:4863   */\n              revert\n                /* \"#utility.yul\":4874:5254   */\n            tag_90:\n                /* \"#utility.yul\":4953:4954   */\n              0x01\n                /* \"#utility.yul\":4949:4961   */\n              dup2\n              dup2\n              shr\n              swap1\n                /* \"#utility.yul\":4996:5008   */\n              dup3\n              and\n              dup1\n                /* \"#utility.yul\":5017:5078   */\n              tag_131\n              jumpi\n                /* \"#utility.yul\":5071:5075   */\n              0x7f\n                /* \"#utility.yul\":5063:5069   */\n              dup3\n                /* \"#utility.yul\":5059:5076   */\n              and\n                /* \"#utility.yul\":5049:5076   */\n              swap2\n              pop\n                /* \"#utility.yul\":5017:5078   */\n            tag_131:\n                /* \"#utility.yul\":5124:5126   */\n              0x20\n                /* \"#utility.yul\":5116:5122   */\n              dup3\n                /* \"#utility.yul\":5113:5127   */\n              lt\n                /* \"#utility.yul\":5093:5111   */\n              dup2\n                /* \"#utility.yul\":5090:5128   */\n              sub\n                /* \"#utility.yul\":5087:5248   */\n              tag_132\n              jumpi\n                /* \"#utility.yul\":5170:5180   */\n              0x4e487b71\n                /* \"#utility.yul\":5165:5168   */\n              0xe0\n                /* \"#utility.yul\":5161:5181   */\n              shl\n                /* \"#utility.yul\":5158:5159   */\n              0x00\n                /* \"#utility.yul\":5151:5182   */\n              mstore\n                /* \"#utility.yul\":5205:5209   */\n              0x22\n                /* \"#utility.yul\":5202:5203   */\n              0x04\n                /* \"#utility.yul\":5195:5210   */\n              mstore\n                /* \"#utility.yul\":5233:5237   */\n              0x24\n                /* \"#utility.yul\":5230:5231   */\n              0x00\n                /* \"#utility.yul\":5223:5238   */\n              revert\n                /* \"#utility.yul\":5087:5248   */\n            tag_132:\n              pop\n                /* \"#utility.yul\":4874:5254   */\n              swap2\n              swap1\n              pop\n              jump\t// out\n                /* \"#utility.yul\":5385:5903   */\n            tag_99:\n                /* \"#utility.yul\":5487:5489   */\n              0x1f\n                /* \"#utility.yul\":5482:5485   */\n              dup3\n                /* \"#utility.yul\":5479:5490   */\n              gt\n                /* \"#utility.yul\":5476:5897   */\n              iszero\n              tag_135\n              jumpi\n                /* \"#utility.yul\":5523:5528   */\n              dup1\n                /* \"#utility.yul\":5520:5521   */\n              0x00\n                /* \"#utility.yul\":5513:5529   */\n              mstore\n                /* \"#utility.yul\":5567:5571   */\n              0x20\n                /* \"#utility.yul\":5564:5565   */\n              0x00\n                /* \"#utility.yul\":5554:5572   */\n              keccak256\n                /* \"#utility.yul\":5637:5639   */\n              0x1f\n                /* \"#utility.yul\":5625:5635   */\n              dup5\n                /* \"#utility.yul\":5621:5640   */\n              add\n                /* \"#utility.yul\":5618:5619   */\n              0x05\n                /* \"#utility.yul\":5614:5641   */\n              shr\n                /* \"#utility.yul\":5608:5612   */\n              dup2\n                /* \"#utility.yul\":5604:5642   */\n              add\n                /* \"#utility.yul\":5673:5677   */\n              0x20\n                /* \"#utility.yul\":5661:5671   */\n              dup6\n                /* \"#utility.yul\":5658:5678   */\n              lt\n                /* \"#utility.yul\":5655:5702   */\n              iszero\n              tag_136\n              jumpi\n              pop\n                /* \"#utility.yul\":5696:5700   */\n              dup1\n                /* \"#utility.yul\":5655:5702   */\n            tag_136:\n                /* \"#utility.yul\":5751:5753   */\n              0x1f\n                /* \"#utility.yul\":5746:5749   */\n              dup5\n                /* \"#utility.yul\":5742:5754   */\n              add\n                /* \"#utility.yul\":5739:5740   */\n              0x05\n                /* \"#utility.yul\":5735:5755   */\n              shr\n                /* \"#utility.yul\":5729:5733   */\n              dup3\n                /* \"#utility.yul\":5725:5756   */\n              add\n                /* \"#utility.yul\":5715:5756   */\n              swap2\n              pop\n                /* \"#utility.yul\":5806:5887   */\n            tag_137:\n                /* \"#utility.yul\":5824:5826   */\n              dup2\n                /* \"#utility.yul\":5817:5822   */\n              dup2\n                /* \"#utility.yul\":5814:5827   */\n              lt\n                /* \"#utility.yul\":5806:5887   */\n              iszero\n              tag_139\n              jumpi\n                /* \"#utility.yul\":5883:5884   */\n              0x00\n                /* \"#utility.yul\":5869:5885   */\n              dup2\n              sstore\n                /* \"#utility.yul\":5850:5851   */\n              0x01\n                /* \"#utility.yul\":5839:5852   */\n              add\n                /* \"#utility.yul\":5806:5887   */\n              jump(tag_137)\n            tag_139:\n                /* \"#utility.yul\":5810:5813   */\n              pop\n              pop\n                /* \"#utility.yul\":5476:5897   */\n            tag_135:\n                /* \"#utility.yul\":5385:5903   */\n              pop\n              pop\n              pop\n              jump\t// out\n                /* \"#utility.yul\":6079:7378   */\n            tag_46:\n                /* \"#utility.yul\":6205:6208   */\n              dup2\n                /* \"#utility.yul\":6199:6209   */\n              mload\n                /* \"#utility.yul\":6232:6250   */\n              0xffffffffffffffff\n                /* \"#utility.yul\":6224:6230   */\n              dup2\n                /* \"#utility.yul\":6221:6251   */\n              gt\n                /* \"#utility.yul\":6218:6274   */\n              iszero\n              tag_143\n              jumpi\n                /* \"#utility.yul\":6254:6272   */\n              tag_143\n              tag_65\n              jump\t// in\n            tag_143:\n                /* \"#utility.yul\":6283:6380   */\n              tag_144\n                /* \"#utility.yul\":6373:6379   */\n              dup2\n                /* \"#utility.yul\":6333:6371   */\n              tag_145\n                /* \"#utility.yul\":6365:6369   */\n              dup5\n                /* \"#utility.yul\":6359:6370   */\n              sload\n                /* \"#utility.yul\":6333:6371   */\n              tag_90\n              jump\t// in\n            tag_145:\n                /* \"#utility.yul\":6327:6331   */\n              dup5\n                /* \"#utility.yul\":6283:6380   */\n              tag_99\n              jump\t// in\n            tag_144:\n                /* \"#utility.yul\":6429:6433   */\n              0x20\n                /* \"#utility.yul\":6460:6462   */\n              0x1f\n                /* \"#utility.yul\":6449:6463   */\n              dup3\n              gt\n                /* \"#utility.yul\":6477:6478   */\n              0x01\n                /* \"#utility.yul\":6472:7121   */\n              dup2\n              eq\n              tag_147\n              jumpi\n                /* \"#utility.yul\":7165:7166   */\n              0x00\n                /* \"#utility.yul\":7182:7188   */\n              dup4\n                /* \"#utility.yul\":7179:7268   */\n              iszero\n              tag_148\n              jumpi\n              pop\n                /* \"#utility.yul\":7234:7253   */\n              dup5\n              dup3\n              add\n                /* \"#utility.yul\":7228:7254   */\n              mload\n                /* \"#utility.yul\":7179:7268   */\n            tag_148:\n              not(0x00)\n                /* \"#utility.yul\":6036:6037   */\n              0x03\n                /* \"#utility.yul\":6032:6043   */\n              dup6\n              swap1\n              shl\n                /* \"#utility.yul\":6028:6052   */\n              shr\n                /* \"#utility.yul\":6024:6053   */\n              not\n                /* \"#utility.yul\":6014:6054   */\n              and\n                /* \"#utility.yul\":6060:6061   */\n              0x01\n                /* \"#utility.yul\":6056:6067   */\n              dup5\n              swap1\n              shl\n                /* \"#utility.yul\":6011:6068   */\n              or\n                /* \"#utility.yul\":7281:7362   */\n              dup5\n              sstore\n                /* \"#utility.yul\":6442:7372   */\n              jump(tag_139)\n                /* \"#utility.yul\":6472:7121   */\n            tag_147:\n                /* \"#utility.yul\":5332:5333   */\n              0x00\n                /* \"#utility.yul\":5325:5339   */\n              dup5\n              dup2\n              mstore\n                /* \"#utility.yul\":5369:5373   */\n              0x20\n                /* \"#utility.yul\":5356:5374   */\n              dup2\n              keccak256\n              not(0x1f)\n                /* \"#utility.yul\":6508:6528   */\n              dup6\n              and\n              swap2\n                /* \"#utility.yul\":6626:6848   */\n            tag_151:\n                /* \"#utility.yul\":6640:6647   */\n              dup3\n                /* \"#utility.yul\":6637:6638   */\n              dup2\n                /* \"#utility.yul\":6634:6648   */\n              lt\n                /* \"#utility.yul\":6626:6848   */\n              iszero\n              tag_153\n              jumpi\n                /* \"#utility.yul\":6722:6741   */\n              dup8\n              dup6\n              add\n                /* \"#utility.yul\":6716:6742   */\n              mload\n                /* \"#utility.yul\":6701:6743   */\n              dup3\n              sstore\n                /* \"#utility.yul\":6829:6833   */\n              0x20\n                /* \"#utility.yul\":6814:6834   */\n              swap5\n              dup6\n              add\n              swap5\n                /* \"#utility.yul\":6782:6783   */\n              0x01\n                /* \"#utility.yul\":6770:6784   */\n              swap1\n              swap3\n              add\n              swap2\n                /* \"#utility.yul\":6656:6668   */\n              add\n                /* \"#utility.yul\":6626:6848   */\n              jump(tag_151)\n            tag_153:\n                /* \"#utility.yul\":6630:6633   */\n              pop\n                /* \"#utility.yul\":6876:6882   */\n              dup5\n                /* \"#utility.yul\":6867:6874   */\n              dup3\n                /* \"#utility.yul\":6864:6883   */\n              lt\n                /* \"#utility.yul\":6861:7062   */\n              iszero\n              tag_154\n              jumpi\n                /* \"#utility.yul\":6937:6956   */\n              dup7\n              dup5\n              add\n                /* \"#utility.yul\":6931:6957   */\n              mload\n              not(0x00)\n                /* \"#utility.yul\":7020:7021   */\n              0x03\n                /* \"#utility.yul\":7016:7030   */\n              dup8\n              swap1\n              shl\n                /* \"#utility.yul\":7032:7035   */\n              0xf8\n                /* \"#utility.yul\":7012:7036   */\n              and\n                /* \"#utility.yul\":7008:7045   */\n              shr\n                /* \"#utility.yul\":7004:7046   */\n              not\n                /* \"#utility.yul\":6989:7047   */\n              and\n                /* \"#utility.yul\":6974:7048   */\n              dup2\n              sstore\n                /* \"#utility.yul\":6861:7062   */\n            tag_154:\n              pop\n              pop\n              pop\n              pop\n                /* \"#utility.yul\":7108:7109   */\n              0x01\n                /* \"#utility.yul\":7092:7106   */\n              swap1\n              dup2\n              shl\n                /* \"#utility.yul\":7088:7110   */\n              add\n                /* \"#utility.yul\":7075:7111   */\n              swap1\n              sstore\n              pop\n                /* \"#utility.yul\":6079:7378   */\n              jump\t// out\n                /* \"#utility.yul\":7383:7650   */\n            tag_101:\n                /* \"#utility.yul\":7472:7478   */\n              dup2\n                /* \"#utility.yul\":7467:7470   */\n              dup4\n                /* \"#utility.yul\":7460:7479   */\n              mstore\n                /* \"#utility.yul\":7524:7530   */\n              dup2\n                /* \"#utility.yul\":7517:7522   */\n              dup2\n                /* \"#utility.yul\":7510:7514   */\n              0x20\n                /* \"#utility.yul\":7505:7508   */\n              dup6\n                /* \"#utility.yul\":7501:7515   */\n              add\n                /* \"#utility.yul\":7488:7531   */\n              calldatacopy\n              pop\n                /* \"#utility.yul\":7576:7577   */\n              0x00\n                /* \"#utility.yul\":7551:7567   */\n              dup3\n              dup3\n              add\n                /* \"#utility.yul\":7569:7573   */\n              0x20\n                /* \"#utility.yul\":7547:7574   */\n              swap1\n              dup2\n              add\n                /* \"#utility.yul\":7540:7578   */\n              swap2\n              swap1\n              swap2\n              mstore\n                /* \"#utility.yul\":7632:7634   */\n              0x1f\n                /* \"#utility.yul\":7611:7626   */\n              swap1\n              swap2\n              add\n              not(0x1f)\n                /* \"#utility.yul\":7607:7636   */\n              and\n                /* \"#utility.yul\":7598:7637   */\n              swap1\n              swap2\n              add\n                /* \"#utility.yul\":7594:7644   */\n              add\n              swap1\n                /* \"#utility.yul\":7383:7650   */\n              jump\t// out\n                /* \"#utility.yul\":7655:7973   */\n            tag_49:\n                /* \"#utility.yul\":7842:7848   */\n              dup4\n                /* \"#utility.yul\":7831:7840   */\n              dup2\n                /* \"#utility.yul\":7824:7849   */\n              mstore\n                /* \"#utility.yul\":7885:7887   */\n              0x40\n                /* \"#utility.yul\":7880:7882   */\n              0x20\n                /* \"#utility.yul\":7869:7878   */\n              dup3\n                /* \"#utility.yul\":7865:7883   */\n              add\n                /* \"#utility.yul\":7858:7888   */\n              mstore\n                /* \"#utility.yul\":7805:7809   */\n              0x00\n                /* \"#utility.yul\":7905:7967   */\n              tag_157\n                /* \"#utility.yul\":7963:7965   */\n              0x40\n                /* \"#utility.yul\":7952:7961   */\n              dup4\n                /* \"#utility.yul\":7948:7966   */\n              add\n                /* \"#utility.yul\":7940:7946   */\n              dup5\n                /* \"#utility.yul\":7932:7938   */\n              dup7\n                /* \"#utility.yul\":7905:7967   */\n              tag_101\n              jump\t// in\n            tag_157:\n                /* \"#utility.yul\":7897:7967   */\n              swap6\n                /* \"#utility.yul\":7655:7973   */\n              swap5\n              pop\n              pop\n              pop\n              pop\n              pop\n              jump\t// out\n                /* \"#utility.yul\":7978:8492   */\n            tag_51:\n              sub(shl(0xa0, 0x01), 0x01)\n                /* \"#utility.yul\":8221:8253   */\n              dup7\n              dup2\n              and\n                /* \"#utility.yul\":8203:8254   */\n              dup3\n              mstore\n                /* \"#utility.yul\":8290:8322   */\n              dup6\n              and\n                /* \"#utility.yul\":8285:8287   */\n              0x20\n                /* \"#utility.yul\":8270:8288   */\n              dup3\n              add\n                /* \"#utility.yul\":8263:8323   */\n              mstore\n                /* \"#utility.yul\":8354:8356   */\n              0x40\n                /* \"#utility.yul\":8339:8357   */\n              dup2\n              add\n                /* \"#utility.yul\":8332:8366   */\n              dup5\n              swap1\n              mstore\n                /* \"#utility.yul\":8402:8405   */\n              0x80\n                /* \"#utility.yul\":8397:8399   */\n              0x60\n                /* \"#utility.yul\":8382:8400   */\n              dup3\n              add\n                /* \"#utility.yul\":8375:8406   */\n              dup2\n              swap1\n              mstore\n              0x00\n              swap1\n                /* \"#utility.yul\":8423:8486   */\n              tag_159\n              swap1\n                /* \"#utility.yul\":8466:8485   */\n              dup4\n              add\n                /* \"#utility.yul\":8458:8464   */\n              dup5\n                /* \"#utility.yul\":8450:8456   */\n              dup7\n                /* \"#utility.yul\":8423:8486   */\n              tag_101\n              jump\t// in\n            tag_159:\n                /* \"#utility.yul\":8415:8486   */\n              swap8\n                /* \"#utility.yul\":7978:8492   */\n              swap7\n              pop\n              pop\n              pop\n              pop\n              pop\n              pop\n              pop\n              jump\t// out\n                /* \"#utility.yul\":8497:8624   */\n            tag_102:\n                /* \"#utility.yul\":8558:8568   */\n              0x4e487b71\n                /* \"#utility.yul\":8553:8556   */\n              0xe0\n                /* \"#utility.yul\":8549:8569   */\n              shl\n                /* \"#utility.yul\":8546:8547   */\n              0x00\n                /* \"#utility.yul\":8539:8570   */\n              mstore\n                /* \"#utility.yul\":8589:8593   */\n              0x11\n                /* \"#utility.yul\":8586:8587   */\n              0x04\n                /* \"#utility.yul\":8579:8594   */\n              mstore\n                /* \"#utility.yul\":8613:8617   */\n              0x24\n                /* \"#utility.yul\":8610:8611   */\n              0x00\n                /* \"#utility.yul\":8603:8618   */\n              revert\n                /* \"#utility.yul\":8629:8757   */\n            tag_71:\n                /* \"#utility.yul\":8696:8705   */\n              dup2\n              dup2\n              sub\n                /* \"#utility.yul\":8717:8728   */\n              dup2\n              dup2\n              gt\n                /* \"#utility.yul\":8714:8751   */\n              iszero\n              tag_163\n              jumpi\n                /* \"#utility.yul\":8731:8749   */\n              tag_163\n              tag_102\n              jump\t// in\n            tag_163:\n                /* \"#utility.yul\":8629:8757   */\n              swap3\n              swap2\n              pop\n              pop\n              jump\t// out\n                /* \"#utility.yul\":8762:8887   */\n            tag_84:\n                /* \"#utility.yul\":8827:8836   */\n              dup1\n              dup3\n              add\n                /* \"#utility.yul\":8848:8858   */\n              dup1\n              dup3\n              gt\n                /* \"#utility.yul\":8845:8881   */\n              iszero\n              tag_163\n              jumpi\n                /* \"#utility.yul\":8861:8879   */\n              tag_163\n              tag_102\n              jump\t// in\n                /* \"#utility.yul\":8892:9019   */\n            tag_87:\n                /* \"#utility.yul\":8953:8963   */\n              0x4e487b71\n                /* \"#utility.yul\":8948:8951   */\n              0xe0\n                /* \"#utility.yul\":8944:8964   */\n              shl\n                /* \"#utility.yul\":8941:8942   */\n              0x00\n                /* \"#utility.yul\":8934:8965   */\n              mstore\n                /* \"#utility.yul\":8984:8988   */\n              0x32\n                /* \"#utility.yul\":8981:8982   */\n              0x04\n                /* \"#utility.yul\":8974:8989   */\n              mstore\n                /* \"#utility.yul\":9008:9012   */\n              0x24\n                /* \"#utility.yul\":9005:9006   */\n              0x00\n                /* \"#utility.yul\":8998:9013   */\n              revert\n\n            auxdata: 0xa26469706673582212204d0c355b33a8d1ee8260cf66f2e95ed303cbe12accdcfee42bdf905a9b5396a164736f6c634300081a0033\n        }\n    }\n\n    auxdata: 0xa2646970667358221220e96b6175c4431f7a09420f3ffae7be5908eb4560c8a2d2c4fb02c16148078f4464736f6c634300081a0033\n}\n",
				"bytecode": {
					"linkReferences": {},
					"object": "6080604052348015600e575f80fd5b503380603357604051631e4fbdf760e01b81525f600482015260240160405180910390fd5b603a81603f565b50608e565b5f80546001600160a01b038381166001600160a01b0319831681178455604051919092169283917f8be0079c531659141344cd1fd0a4f28419497f9722a3daafe3b4186f6b6457e09190a35050565b6117678061009b5f395ff3fe608060405234801561000f575f80fd5b50600436106100a6575f3560e01c806386dc758d1161006e57806386dc758d146101565780638da5cb5b14610169578063aec5ab0814610179578063b1a3a16f1461018e578063bba53087146101c1578063f2fde38b146101d4575f80fd5b80633ca94181146100aa57806350fb11e5146100bf5780636b6e6eb31461011b578063715018a6146101235780638240a49b1461012b575b5f80fd5b6100bd6100b83660046106ef565b6101e7565b005b6100f66100cd3660046106ef565b6001600160a01b039081165f908152600160208190526040909120805491015490821692911690565b604080516001600160a01b039384168152929091166020830152015b60405180910390f35b6100bd610211565b6100bd61044b565b61013e61013936600461070f565b61045e565b6040516001600160a01b039091168152602001610112565b60035461013e906001600160a01b031681565b5f546001600160a01b031661013e565b610181610486565b6040516101129190610726565b6100f661019c3660046106ef565b600160208190525f918252604090912080549101546001600160a01b03918216911682565b6100bd6101cf366004610771565b6104e6565b6100bd6101e23660046106ef565b610602565b6101ef61063f565b600380546001600160a01b0319166001600160a01b0392909216919091179055565b335f908152600160205260409020546001600160a01b03161561027b5760405162461bcd60e51b815260206004820152601760248201527f4461707020616c7265616479207265676973746572656400000000000000000060448201526064015b60405180910390fd5b5f333060405161028a906106ba565b6001600160a01b03928316815291166020820152604001604051809103905ff0801580156102ba573d5f803e3d5ffd5b5090505f338260035f9054906101000a90046001600160a01b03166040516102e1906106c7565b6001600160a01b03938416815291831660208301529091166040820152606001604051809103905ff08015801561031a573d5f803e3d5ffd5b506040805180820182526001600160a01b0385811682528381166020808401828152335f818152600193849052878120965187549087166001600160a01b031991821617885592519684018054978716978416979097179096556002805493840181559095527f405787fa12a823e0f2b7631cc41b3ba8828b3321ca811111fa75cd3aa3bb5ace90910180549091169093179092556003549251633b7dccf360e11b815260048101929092529293509116906376fb99e6906024015f604051808303815f87803b1580156103ec575f80fd5b505af11580156103fe573d5f803e3d5ffd5b5050604080516001600160a01b038681168252851660208201523393507f9884a393f54ac129685f7bc0b2d11b1e55caad8872f36317f324d7527fbbbd0392500160405180910390a25050565b61045361063f565b61045c5f61066b565b565b6002818154811061046d575f80fd5b5f918252602090912001546001600160a01b0316905081565b606060028054806020026020016040519081016040528092919081815260200182805480156104dc57602002820191905f5260205f20905b81546001600160a01b031681526001909101906020018083116104be575b5050505050905090565b6001600160a01b038481165f90815260016020526040902054166105425760405162461bcd60e51b815260206004820152601360248201527211185c1c081b9bdd081c9959da5cdd195c9959606a1b6044820152606401610272565b6001600160a01b038481165f9081526001602052604090819020549051632199d5cd60e01b81523360048201529116908190632199d5cd906024015f604051808303815f87803b158015610594575f80fd5b505af11580156105a6573d5f803e3d5ffd5b50505050846001600160a01b0316336001600160a01b03167f9ada1e6e19142d7c85cea7eba1d1104b99f280ea4d96abe628109c6b538fec86838787876040516105f394939291906107f4565b60405180910390a35050505050565b61060a61063f565b6001600160a01b03811661063357604051631e4fbdf760e01b81525f6004820152602401610272565b61063c8161066b565b50565b5f546001600160a01b0316331461045c5760405163118cdaa760e01b8152336004820152602401610272565b5f80546001600160a01b038381166001600160a01b0319831681178455604051919092169283917f8be0079c531659141344cd1fd0a4f28419497f9722a3daafe3b4186f6b6457e09190a35050565b61036d8061083c83390190565b610b8980610ba983390190565b80356001600160a01b03811681146106ea575f80fd5b919050565b5f602082840312156106ff575f80fd5b610708826106d4565b9392505050565b5f6020828403121561071f575f80fd5b5035919050565b602080825282518282018190525f918401906040840190835b818110156107665783516001600160a01b031683526020938401939092019160010161073f565b509095945050505050565b5f805f8060608587031215610784575f80fd5b61078d856106d4565b935060208501359250604085013567ffffffffffffffff8111156107af575f80fd5b8501601f810187136107bf575f80fd5b803567ffffffffffffffff8111156107d5575f80fd5b8760208284010111156107e6575f80fd5b949793965060200194505050565b6001600160a01b0385168152602081018490526060604082018190528101829052818360808301375f818301608090810191909152601f909201601f19160101939250505056fe6080604052348015600e575f80fd5b5060405161036d38038061036d833981016040819052602b916074565b600180546001600160a01b039384166001600160a01b0319918216179091555f805492909316911617905560a0565b80516001600160a01b0381168114606f575f80fd5b919050565b5f80604083850312156084575f80fd5b608b83605a565b9150609760208401605a565b90509250929050565b6102c0806100ad5f395ff3fe608060405234801561000f575f80fd5b5060043610610060575f3560e01c806312c670f914610064578063163f7522146100935780631bb71db2146100b65780632199d5cd146100c05780639ac7c29c146100d3578063a87430ba146100e6575b5f80fd5b5f54610076906001600160a01b031681565b6040516001600160a01b0390911681526020015b60405180910390f35b6100a66100a136600461025d565b610113565b604051901515815260200161008a565b6100be610182565b005b6100be6100ce36600461025d565b6101dd565b600154610076906001600160a01b031681565b6101056100f436600461025d565b60026020525f908152604090205481565b60405190815260200161008a565b6001545f906001600160a01b031633146101655760405162461bcd60e51b815260206004820152600e60248201526d139bdd08185d5d1a1bdc9a5e995960921b60448201526064015b60405180910390fd5b506001600160a01b03165f90815260026020526040902054151590565b335f908152600260205260409020546101cc5760405162461bcd60e51b815260206004820152600c60248201526b155b985d5d1a1bdc9a5e995960a21b604482015260640161015c565b335f90815260026020526040812055565b5f546001600160a01b031633146102425760405162461bcd60e51b815260206004820152602360248201527f4f6e6c79204e6f7469466163746f72792063616e20726567697374657220757360448201526265727360e81b606482015260840161015c565b6001600160a01b03165f908152600260205260409020429055565b5f6020828403121561026d575f80fd5b81356001600160a01b0381168114610283575f80fd5b939250505056fea2646970667358221220813e0a5416310ac8a9edc0d3f7a955886d630a6f8eff3b07b6d6663cc9a34de564736f6c634300081a00336080604052348015600e575f80fd5b50604051610b89380380610b89833981016040819052602b916085565b5f80546001600160a01b039485166001600160a01b03199182161790915560018054938516938216939093179092556002805491909316911617905560be565b80516001600160a01b03811681146080575f80fd5b919050565b5f805f606084860312156096575f80fd5b609d84606b565b925060a960208501606b565b915060b560408501606b565b90509250925092565b610abe806100cb5f395ff3fe608060405234801561000f575f80fd5b5060043610610055575f3560e01c806349f66a2c1461005957806386dc758d1461006e5780639ac7c29c1461009e578063cc7a2049146100b0578063de61d238146100c3575b5f80fd5b61006c6100673660046106ac565b6100e3565b005b600254610081906001600160a01b031681565b6040516001600160a01b0390911681526020015b60405180910390f35b5f54610081906001600160a01b031681565b600154610081906001600160a01b031681565b6100d66100d136600461072a565b610385565b604051610095919061075a565b5f546001600160a01b031633146101325760405162461bcd60e51b815260206004820152600e60248201526d139bdd08185d5d1a1bdc9a5e995960921b60448201526064015b60405180910390fd5b600154604051630b1fba9160e11b81526001600160a01b0385811660048301529091169063163f752290602401602060405180830381865afa15801561017a573d5f803e3d5ffd5b505050506040513d601f19601f8201168201806040525081019061019e9190610808565b6101e05760405162461bcd60e51b8152602060048201526013602482015272155cd95c881b9bdd081c9959da5cdd195c9959606a1b6044820152606401610129565b5f428484846040516020016101f89493929190610827565b60408051601f1981840301815282825280516020918201206080840183528084528251601f870183900483028101830190935285835293505f92918282019187908790819084018382808284375f920182905250938552505042602080850191909152604093840183905286835260048152929091208351815591830151929350839260018301915061028b90826108f1565b5060408281015160028301556060909201516003918201805460ff19169115159190911790556001600160a01b0387165f8181526020928352838120805460018101825590825292902090910184905590517f40576715f6f18072aa1f0fcde1555973f23891fb010ef4576f2a4df7960e1d419061030e908590889088906109d4565b60405180910390a26002545f5460405163137dcd3960e31b81526001600160a01b0392831692639bee69c89261035192911690899087908a908a906004016109f6565b5f604051808303815f87803b158015610368575f80fd5b505af115801561037a573d5f803e3d5ffd5b505050505050505050565b600154604051630b1fba9160e11b81526001600160a01b038581166004830152606092169063163f752290602401602060405180830381865afa1580156103ce573d5f803e3d5ffd5b505050506040513d601f19601f820116820180604052508101906103f29190610808565b6104345760405162461bcd60e51b8152602060048201526013602482015272155cd95c881b9bdd081c9959da5cdd195c9959606a1b6044820152606401610129565b6001600160a01b0384165f908152600360205260409020548084106104ae57604080515f80825260208201909252906104a5565b61049260405180608001604052805f8152602001606081526020015f81526020015f151581525090565b8152602001906001900390816104685790505b5091505061068a565b5f836104ba8684610a48565b116104ce576104c98583610a48565b6104d0565b835b90505f8167ffffffffffffffff8111156104ec576104ec610859565b60405190808252806020026020018201604052801561054757816020015b61053460405180608001604052805f8152602001606081526020015f81526020015f151581525090565b81526020019060019003908161050a5790505b5090505f5b82811015610684576001600160a01b0388165f90815260036020526040812060049190610579848b610a61565b8154811061058957610589610a74565b905f5260205f20015481526020019081526020015f206040518060800160405290815f82015481526020016001820180546105c39061086d565b80601f01602080910402602001604051908101604052809291908181526020018280546105ef9061086d565b801561063a5780601f106106115761010080835404028352916020019161063a565b820191905f5260205f20905b81548152906001019060200180831161061d57829003601f168201915b50505091835250506002820154602082015260039091015460ff161515604090910152825183908390811061067157610671610a74565b602090810291909101015260010161054c565b50925050505b9392505050565b80356001600160a01b03811681146106a7575f80fd5b919050565b5f805f604084860312156106be575f80fd5b6106c784610691565b9250602084013567ffffffffffffffff8111156106e2575f80fd5b8401601f810186136106f2575f80fd5b803567ffffffffffffffff811115610708575f80fd5b866020828401011115610719575f80fd5b939660209190910195509293505050565b5f805f6060848603121561073c575f80fd5b61074584610691565b95602085013595506040909401359392505050565b5f602082016020835280845180835260408501915060408160051b8601019250602086015f5b828110156107fc57603f198786030184528151805186526020810151608060208801528051806080890152806020830160a08a015e5f60a0828a0101526040830151604089015260608301511515606089015260a0601f19601f8301168901019750505050602082019150602084019350600181019050610780565b50929695505050505050565b5f60208284031215610818575f80fd5b8151801515811461068a575f80fd5b8481526bffffffffffffffffffffffff198460601b166020820152818360348301375f91016034019081529392505050565b634e487b7160e01b5f52604160045260245ffd5b600181811c9082168061088157607f821691505b60208210810361089f57634e487b7160e01b5f52602260045260245ffd5b50919050565b601f8211156108ec57805f5260205f20601f840160051c810160208510156108ca5750805b601f840160051c820191505b818110156108e9575f81556001016108d6565b50505b505050565b815167ffffffffffffffff81111561090b5761090b610859565b61091f81610919845461086d565b846108a5565b6020601f821160018114610951575f831561093a5750848201515b5f19600385901b1c1916600184901b1784556108e9565b5f84815260208120601f198516915b828110156109805787850151825560209485019460019092019101610960565b508482101561099d57868401515f19600387901b60f8161c191681555b50505050600190811b01905550565b81835281816020850137505f828201602090810191909152601f909101601f19169091010190565b838152604060208201525f6109ed6040830184866109ac565b95945050505050565b6001600160a01b03868116825285166020820152604081018490526080606082018190525f90610a2990830184866109ac565b979650505050505050565b634e487b7160e01b5f52601160045260245ffd5b81810381811115610a5b57610a5b610a34565b92915050565b80820180821115610a5b57610a5b610a34565b634e487b7160e01b5f52603260045260245ffdfea26469706673582212204d0c355b33a8d1ee8260cf66f2e95ed303cbe12accdcfee42bdf905a9b5396a164736f6c634300081a0033a2646970667358221220e96b6175c4431f7a09420f3ffae7be5908eb4560c8a2d2c4fb02c16148078f4464736f6c634300081a0033",
					"opcodes": "PUSH1 0x80 PUSH1 0x40 MSTORE CALLVALUE DUP1 ISZERO PUSH1 0xE JUMPI PUSH0 DUP1 REVERT JUMPDEST POP CALLER DUP1 PUSH1 0x33 JUMPI PUSH1 0x40 MLOAD PUSH4 0x1E4FBDF7 PUSH1 0xE0 SHL DUP2 MSTORE PUSH0 PUSH1 0x4 DUP3 ADD MSTORE PUSH1 0x24 ADD PUSH1 0x40 MLOAD DUP1 SWAP2 SUB SWAP1 REVERT JUMPDEST PUSH1 0x3A DUP2 PUSH1 0x3F JUMP JUMPDEST POP PUSH1 0x8E JUMP JUMPDEST PUSH0 DUP1 SLOAD PUSH1 0x1 PUSH1 0x1 PUSH1 0xA0 SHL SUB DUP4 DUP2 AND PUSH1 0x1 PUSH1 0x1 PUSH1 0xA0 SHL SUB NOT DUP4 AND DUP2 OR DUP5 SSTORE PUSH1 0x40 MLOAD SWAP2 SWAP1 SWAP3 AND SWAP3 DUP4 SWAP2 PUSH32 0x8BE0079C531659141344CD1FD0A4F28419497F9722A3DAAFE3B4186F6B6457E0 SWAP2 SWAP1 LOG3 POP POP JUMP JUMPDEST PUSH2 0x1767 DUP1 PUSH2 0x9B PUSH0 CODECOPY PUSH0 RETURN INVALID PUSH1 0x80 PUSH1 0x40 MSTORE CALLVALUE DUP1 ISZERO PUSH2 0xF JUMPI PUSH0 DUP1 REVERT JUMPDEST POP PUSH1 0x4 CALLDATASIZE LT PUSH2 0xA6 JUMPI PUSH0 CALLDATALOAD PUSH1 0xE0 SHR DUP1 PUSH4 0x86DC758D GT PUSH2 0x6E JUMPI DUP1 PUSH4 0x86DC758D EQ PUSH2 0x156 JUMPI DUP1 PUSH4 0x8DA5CB5B EQ PUSH2 0x169 JUMPI DUP1 PUSH4 0xAEC5AB08 EQ PUSH2 0x179 JUMPI DUP1 PUSH4 0xB1A3A16F EQ PUSH2 0x18E JUMPI DUP1 PUSH4 0xBBA53087 EQ PUSH2 0x1C1 JUMPI DUP1 PUSH4 0xF2FDE38B EQ PUSH2 0x1D4 JUMPI PUSH0 DUP1 REVERT JUMPDEST DUP1 PUSH4 0x3CA94181 EQ PUSH2 0xAA JUMPI DUP1 PUSH4 0x50FB11E5 EQ PUSH2 0xBF JUMPI DUP1 PUSH4 0x6B6E6EB3 EQ PUSH2 0x11B JUMPI DUP1 PUSH4 0x715018A6 EQ PUSH2 0x123 JUMPI DUP1 PUSH4 0x8240A49B EQ PUSH2 0x12B JUMPI JUMPDEST PUSH0 DUP1 REVERT JUMPDEST PUSH2 0xBD PUSH2 0xB8 CALLDATASIZE PUSH1 0x4 PUSH2 0x6EF JUMP JUMPDEST PUSH2 0x1E7 JUMP JUMPDEST STOP JUMPDEST PUSH2 0xF6 PUSH2 0xCD CALLDATASIZE PUSH1 0x4 PUSH2 0x6EF JUMP JUMPDEST PUSH1 0x1 PUSH1 0x1 PUSH1 0xA0 SHL SUB SWAP1 DUP2 AND PUSH0 SWAP1 DUP2 MSTORE PUSH1 0x1 PUSH1 0x20 DUP2 SWAP1 MSTORE PUSH1 0x40 SWAP1 SWAP2 KECCAK256 DUP1 SLOAD SWAP2 ADD SLOAD SWAP1 DUP3 AND SWAP3 SWAP2 AND SWAP1 JUMP JUMPDEST PUSH1 0x40 DUP1 MLOAD PUSH1 0x1 PUSH1 0x1 PUSH1 0xA0 SHL SUB SWAP4 DUP5 AND DUP2 MSTORE SWAP3 SWAP1 SWAP2 AND PUSH1 0x20 DUP4 ADD MSTORE ADD JUMPDEST PUSH1 0x40 MLOAD DUP1 SWAP2 SUB SWAP1 RETURN JUMPDEST PUSH2 0xBD PUSH2 0x211 JUMP JUMPDEST PUSH2 0xBD PUSH2 0x44B JUMP JUMPDEST PUSH2 0x13E PUSH2 0x139 CALLDATASIZE PUSH1 0x4 PUSH2 0x70F JUMP JUMPDEST PUSH2 0x45E JUMP JUMPDEST PUSH1 0x40 MLOAD PUSH1 0x1 PUSH1 0x1 PUSH1 0xA0 SHL SUB SWAP1 SWAP2 AND DUP2 MSTORE PUSH1 0x20 ADD PUSH2 0x112 JUMP JUMPDEST PUSH1 0x3 SLOAD PUSH2 0x13E SWAP1 PUSH1 0x1 PUSH1 0x1 PUSH1 0xA0 SHL SUB AND DUP2 JUMP JUMPDEST PUSH0 SLOAD PUSH1 0x1 PUSH1 0x1 PUSH1 0xA0 SHL SUB AND PUSH2 0x13E JUMP JUMPDEST PUSH2 0x181 PUSH2 0x486 JUMP JUMPDEST PUSH1 0x40 MLOAD PUSH2 0x112 SWAP2 SWAP1 PUSH2 0x726 JUMP JUMPDEST PUSH2 0xF6 PUSH2 0x19C CALLDATASIZE PUSH1 0x4 PUSH2 0x6EF JUMP JUMPDEST PUSH1 0x1 PUSH1 0x20 DUP2 SWAP1 MSTORE PUSH0 SWAP2 DUP3 MSTORE PUSH1 0x40 SWAP1 SWAP2 KECCAK256 DUP1 SLOAD SWAP2 ADD SLOAD PUSH1 0x1 PUSH1 0x1 PUSH1 0xA0 SHL SUB SWAP2 DUP3 AND SWAP2 AND DUP3 JUMP JUMPDEST PUSH2 0xBD PUSH2 0x1CF CALLDATASIZE PUSH1 0x4 PUSH2 0x771 JUMP JUMPDEST PUSH2 0x4E6 JUMP JUMPDEST PUSH2 0xBD PUSH2 0x1E2 CALLDATASIZE PUSH1 0x4 PUSH2 0x6EF JUMP JUMPDEST PUSH2 0x602 JUMP JUMPDEST PUSH2 0x1EF PUSH2 0x63F JUMP JUMPDEST PUSH1 0x3 DUP1 SLOAD PUSH1 0x1 PUSH1 0x1 PUSH1 0xA0 SHL SUB NOT AND PUSH1 0x1 PUSH1 0x1 PUSH1 0xA0 SHL SUB SWAP3 SWAP1 SWAP3 AND SWAP2 SWAP1 SWAP2 OR SWAP1 SSTORE JUMP JUMPDEST CALLER PUSH0 SWAP1 DUP2 MSTORE PUSH1 0x1 PUSH1 0x20 MSTORE PUSH1 0x40 SWAP1 KECCAK256 SLOAD PUSH1 0x1 PUSH1 0x1 PUSH1 0xA0 SHL SUB AND ISZERO PUSH2 0x27B JUMPI PUSH1 0x40 MLOAD PUSH3 0x461BCD PUSH1 0xE5 SHL DUP2 MSTORE PUSH1 0x20 PUSH1 0x4 DUP3 ADD MSTORE PUSH1 0x17 PUSH1 0x24 DUP3 ADD MSTORE PUSH32 0x4461707020616C72656164792072656769737465726564000000000000000000 PUSH1 0x44 DUP3 ADD MSTORE PUSH1 0x64 ADD JUMPDEST PUSH1 0x40 MLOAD DUP1 SWAP2 SUB SWAP1 REVERT JUMPDEST PUSH0 CALLER ADDRESS PUSH1 0x40 MLOAD PUSH2 0x28A SWAP1 PUSH2 0x6BA JUMP JUMPDEST PUSH1 0x1 PUSH1 0x1 PUSH1 0xA0 SHL SUB SWAP3 DUP4 AND DUP2 MSTORE SWAP2 AND PUSH1 0x20 DUP3 ADD MSTORE PUSH1 0x40 ADD PUSH1 0x40 MLOAD DUP1 SWAP2 SUB SWAP1 PUSH0 CREATE DUP1 ISZERO DUP1 ISZERO PUSH2 0x2BA JUMPI RETURNDATASIZE PUSH0 DUP1 RETURNDATACOPY RETURNDATASIZE PUSH0 REVERT JUMPDEST POP SWAP1 POP PUSH0 CALLER DUP3 PUSH1 0x3 PUSH0 SWAP1 SLOAD SWAP1 PUSH2 0x100 EXP SWAP1 DIV PUSH1 0x1 PUSH1 0x1 PUSH1 0xA0 SHL SUB AND PUSH1 0x40 MLOAD PUSH2 0x2E1 SWAP1 PUSH2 0x6C7 JUMP JUMPDEST PUSH1 0x1 PUSH1 0x1 PUSH1 0xA0 SHL SUB SWAP4 DUP5 AND DUP2 MSTORE SWAP2 DUP4 AND PUSH1 0x20 DUP4 ADD MSTORE SWAP1 SWAP2 AND PUSH1 0x40 DUP3 ADD MSTORE PUSH1 0x60 ADD PUSH1 0x40 MLOAD DUP1 SWAP2 SUB SWAP1 PUSH0 CREATE DUP1 ISZERO DUP1 ISZERO PUSH2 0x31A JUMPI RETURNDATASIZE PUSH0 DUP1 RETURNDATACOPY RETURNDATASIZE PUSH0 REVERT JUMPDEST POP PUSH1 0x40 DUP1 MLOAD DUP1 DUP3 ADD DUP3 MSTORE PUSH1 0x1 PUSH1 0x1 PUSH1 0xA0 SHL SUB DUP6 DUP2 AND DUP3 MSTORE DUP4 DUP2 AND PUSH1 0x20 DUP1 DUP5 ADD DUP3 DUP2 MSTORE CALLER PUSH0 DUP2 DUP2 MSTORE PUSH1 0x1 SWAP4 DUP5 SWAP1 MSTORE DUP8 DUP2 KECCAK256 SWAP7 MLOAD DUP8 SLOAD SWAP1 DUP8 AND PUSH1 0x1 PUSH1 0x1 PUSH1 0xA0 SHL SUB NOT SWAP2 DUP3 AND OR DUP9 SSTORE SWAP3 MLOAD SWAP7 DUP5 ADD DUP1 SLOAD SWAP8 DUP8 AND SWAP8 DUP5 AND SWAP8 SWAP1 SWAP8 OR SWAP1 SWAP7 SSTORE PUSH1 0x2 DUP1 SLOAD SWAP4 DUP5 ADD DUP2 SSTORE SWAP1 SWAP6 MSTORE PUSH32 0x405787FA12A823E0F2B7631CC41B3BA8828B3321CA811111FA75CD3AA3BB5ACE SWAP1 SWAP2 ADD DUP1 SLOAD SWAP1 SWAP2 AND SWAP1 SWAP4 OR SWAP1 SWAP3 SSTORE PUSH1 0x3 SLOAD SWAP3 MLOAD PUSH4 0x3B7DCCF3 PUSH1 0xE1 SHL DUP2 MSTORE PUSH1 0x4 DUP2 ADD SWAP3 SWAP1 SWAP3 MSTORE SWAP3 SWAP4 POP SWAP2 AND SWAP1 PUSH4 0x76FB99E6 SWAP1 PUSH1 0x24 ADD PUSH0 PUSH1 0x40 MLOAD DUP1 DUP4 SUB DUP2 PUSH0 DUP8 DUP1 EXTCODESIZE ISZERO DUP1 ISZERO PUSH2 0x3EC JUMPI PUSH0 DUP1 REVERT JUMPDEST POP GAS CALL ISZERO DUP1 ISZERO PUSH2 0x3FE JUMPI RETURNDATASIZE PUSH0 DUP1 RETURNDATACOPY RETURNDATASIZE PUSH0 REVERT JUMPDEST POP POP PUSH1 0x40 DUP1 MLOAD PUSH1 0x1 PUSH1 0x1 PUSH1 0xA0 SHL SUB DUP7 DUP2 AND DUP3 MSTORE DUP6 AND PUSH1 0x20 DUP3 ADD MSTORE CALLER SWAP4 POP PUSH32 0x9884A393F54AC129685F7BC0B2D11B1E55CAAD8872F36317F324D7527FBBBD03 SWAP3 POP ADD PUSH1 0x40 MLOAD DUP1 SWAP2 SUB SWAP1 LOG2 POP POP JUMP JUMPDEST PUSH2 0x453 PUSH2 0x63F JUMP JUMPDEST PUSH2 0x45C PUSH0 PUSH2 0x66B JUMP JUMPDEST JUMP JUMPDEST PUSH1 0x2 DUP2 DUP2 SLOAD DUP2 LT PUSH2 0x46D JUMPI PUSH0 DUP1 REVERT JUMPDEST PUSH0 SWAP2 DUP3 MSTORE PUSH1 0x20 SWAP1 SWAP2 KECCAK256 ADD SLOAD PUSH1 0x1 PUSH1 0x1 PUSH1 0xA0 SHL SUB AND SWAP1 POP DUP2 JUMP JUMPDEST PUSH1 0x60 PUSH1 0x2 DUP1 SLOAD DUP1 PUSH1 0x20 MUL PUSH1 0x20 ADD PUSH1 0x40 MLOAD SWAP1 DUP2 ADD PUSH1 0x40 MSTORE DUP1 SWAP3 SWAP2 SWAP1 DUP2 DUP2 MSTORE PUSH1 0x20 ADD DUP3 DUP1 SLOAD DUP1 ISZERO PUSH2 0x4DC JUMPI PUSH1 0x20 MUL DUP3 ADD SWAP2 SWAP1 PUSH0 MSTORE PUSH1 0x20 PUSH0 KECCAK256 SWAP1 JUMPDEST DUP2 SLOAD PUSH1 0x1 PUSH1 0x1 PUSH1 0xA0 SHL SUB AND DUP2 MSTORE PUSH1 0x1 SWAP1 SWAP2 ADD SWAP1 PUSH1 0x20 ADD DUP1 DUP4 GT PUSH2 0x4BE JUMPI JUMPDEST POP POP POP POP POP SWAP1 POP SWAP1 JUMP JUMPDEST PUSH1 0x1 PUSH1 0x1 PUSH1 0xA0 SHL SUB DUP5 DUP2 AND PUSH0 SWAP1 DUP2 MSTORE PUSH1 0x1 PUSH1 0x20 MSTORE PUSH1 0x40 SWAP1 KECCAK256 SLOAD AND PUSH2 0x542 JUMPI PUSH1 0x40 MLOAD PUSH3 0x461BCD PUSH1 0xE5 SHL DUP2 MSTORE PUSH1 0x20 PUSH1 0x4 DUP3 ADD MSTORE PUSH1 0x13 PUSH1 0x24 DUP3 ADD MSTORE PUSH19 0x11185C1C081B9BDD081C9959DA5CDD195C9959 PUSH1 0x6A SHL PUSH1 0x44 DUP3 ADD MSTORE PUSH1 0x64 ADD PUSH2 0x272 JUMP JUMPDEST PUSH1 0x1 PUSH1 0x1 PUSH1 0xA0 SHL SUB DUP5 DUP2 AND PUSH0 SWAP1 DUP2 MSTORE PUSH1 0x1 PUSH1 0x20 MSTORE PUSH1 0x40 SWAP1 DUP2 SWAP1 KECCAK256 SLOAD SWAP1 MLOAD PUSH4 0x2199D5CD PUSH1 0xE0 SHL DUP2 MSTORE CALLER PUSH1 0x4 DUP3 ADD MSTORE SWAP2 AND SWAP1 DUP2 SWAP1 PUSH4 0x2199D5CD SWAP1 PUSH1 0x24 ADD PUSH0 PUSH1 0x40 MLOAD DUP1 DUP4 SUB DUP2 PUSH0 DUP8 DUP1 EXTCODESIZE ISZERO DUP1 ISZERO PUSH2 0x594 JUMPI PUSH0 DUP1 REVERT JUMPDEST POP GAS CALL ISZERO DUP1 ISZERO PUSH2 0x5A6 JUMPI RETURNDATASIZE PUSH0 DUP1 RETURNDATACOPY RETURNDATASIZE PUSH0 REVERT JUMPDEST POP POP POP POP DUP5 PUSH1 0x1 PUSH1 0x1 PUSH1 0xA0 SHL SUB AND CALLER PUSH1 0x1 PUSH1 0x1 PUSH1 0xA0 SHL SUB AND PUSH32 0x9ADA1E6E19142D7C85CEA7EBA1D1104B99F280EA4D96ABE628109C6B538FEC86 DUP4 DUP8 DUP8 DUP8 PUSH1 0x40 MLOAD PUSH2 0x5F3 SWAP5 SWAP4 SWAP3 SWAP2 SWAP1 PUSH2 0x7F4 JUMP JUMPDEST PUSH1 0x40 MLOAD DUP1 SWAP2 SUB SWAP1 LOG3 POP POP POP POP POP JUMP JUMPDEST PUSH2 0x60A PUSH2 0x63F JUMP JUMPDEST PUSH1 0x1 PUSH1 0x1 PUSH1 0xA0 SHL SUB DUP2 AND PUSH2 0x633 JUMPI PUSH1 0x40 MLOAD PUSH4 0x1E4FBDF7 PUSH1 0xE0 SHL DUP2 MSTORE PUSH0 PUSH1 0x4 DUP3 ADD MSTORE PUSH1 0x24 ADD PUSH2 0x272 JUMP JUMPDEST PUSH2 0x63C DUP2 PUSH2 0x66B JUMP JUMPDEST POP JUMP JUMPDEST PUSH0 SLOAD PUSH1 0x1 PUSH1 0x1 PUSH1 0xA0 SHL SUB AND CALLER EQ PUSH2 0x45C JUMPI PUSH1 0x40 MLOAD PUSH4 0x118CDAA7 PUSH1 0xE0 SHL DUP2 MSTORE CALLER PUSH1 0x4 DUP3 ADD MSTORE PUSH1 0x24 ADD PUSH2 0x272 JUMP JUMPDEST PUSH0 DUP1 SLOAD PUSH1 0x1 PUSH1 0x1 PUSH1 0xA0 SHL SUB DUP4 DUP2 AND PUSH1 0x1 PUSH1 0x1 PUSH1 0xA0 SHL SUB NOT DUP4 AND DUP2 OR DUP5 SSTORE PUSH1 0x40 MLOAD SWAP2 SWAP1 SWAP3 AND SWAP3 DUP4 SWAP2 PUSH32 0x8BE0079C531659141344CD1FD0A4F28419497F9722A3DAAFE3B4186F6B6457E0 SWAP2 SWAP1 LOG3 POP POP JUMP JUMPDEST PUSH2 0x36D DUP1 PUSH2 0x83C DUP4 CODECOPY ADD SWAP1 JUMP JUMPDEST PUSH2 0xB89 DUP1 PUSH2 0xBA9 DUP4 CODECOPY ADD SWAP1 JUMP JUMPDEST DUP1 CALLDATALOAD PUSH1 0x1 PUSH1 0x1 PUSH1 0xA0 SHL SUB DUP2 AND DUP2 EQ PUSH2 0x6EA JUMPI PUSH0 DUP1 REVERT JUMPDEST SWAP2 SWAP1 POP JUMP JUMPDEST PUSH0 PUSH1 0x20 DUP3 DUP5 SUB SLT ISZERO PUSH2 0x6FF JUMPI PUSH0 DUP1 REVERT JUMPDEST PUSH2 0x708 DUP3 PUSH2 0x6D4 JUMP JUMPDEST SWAP4 SWAP3 POP POP POP JUMP JUMPDEST PUSH0 PUSH1 0x20 DUP3 DUP5 SUB SLT ISZERO PUSH2 0x71F JUMPI PUSH0 DUP1 REVERT JUMPDEST POP CALLDATALOAD SWAP2 SWAP1 POP JUMP JUMPDEST PUSH1 0x20 DUP1 DUP3 MSTORE DUP3 MLOAD DUP3 DUP3 ADD DUP2 SWAP1 MSTORE PUSH0 SWAP2 DUP5 ADD SWAP1 PUSH1 0x40 DUP5 ADD SWAP1 DUP4 JUMPDEST DUP2 DUP2 LT ISZERO PUSH2 0x766 JUMPI DUP4 MLOAD PUSH1 0x1 PUSH1 0x1 PUSH1 0xA0 SHL SUB AND DUP4 MSTORE PUSH1 0x20 SWAP4 DUP5 ADD SWAP4 SWAP1 SWAP3 ADD SWAP2 PUSH1 0x1 ADD PUSH2 0x73F JUMP JUMPDEST POP SWAP1 SWAP6 SWAP5 POP POP POP POP POP JUMP JUMPDEST PUSH0 DUP1 PUSH0 DUP1 PUSH1 0x60 DUP6 DUP8 SUB SLT ISZERO PUSH2 0x784 JUMPI PUSH0 DUP1 REVERT JUMPDEST PUSH2 0x78D DUP6 PUSH2 0x6D4 JUMP JUMPDEST SWAP4 POP PUSH1 0x20 DUP6 ADD CALLDATALOAD SWAP3 POP PUSH1 0x40 DUP6 ADD CALLDATALOAD PUSH8 0xFFFFFFFFFFFFFFFF DUP2 GT ISZERO PUSH2 0x7AF JUMPI PUSH0 DUP1 REVERT JUMPDEST DUP6 ADD PUSH1 0x1F DUP2 ADD DUP8 SGT PUSH2 0x7BF JUMPI PUSH0 DUP1 REVERT JUMPDEST DUP1 CALLDATALOAD PUSH8 0xFFFFFFFFFFFFFFFF DUP2 GT ISZERO PUSH2 0x7D5 JUMPI PUSH0 DUP1 REVERT JUMPDEST DUP8 PUSH1 0x20 DUP3 DUP5 ADD ADD GT ISZERO PUSH2 0x7E6 JUMPI PUSH0 DUP1 REVERT JUMPDEST SWAP5 SWAP8 SWAP4 SWAP7 POP PUSH1 0x20 ADD SWAP5 POP POP POP JUMP JUMPDEST PUSH1 0x1 PUSH1 0x1 PUSH1 0xA0 SHL SUB DUP6 AND DUP2 MSTORE PUSH1 0x20 DUP2 ADD DUP5 SWAP1 MSTORE PUSH1 0x60 PUSH1 0x40 DUP3 ADD DUP2 SWAP1 MSTORE DUP2 ADD DUP3 SWAP1 MSTORE DUP2 DUP4 PUSH1 0x80 DUP4 ADD CALLDATACOPY PUSH0 DUP2 DUP4 ADD PUSH1 0x80 SWAP1 DUP2 ADD SWAP2 SWAP1 SWAP2 MSTORE PUSH1 0x1F SWAP1 SWAP3 ADD PUSH1 0x1F NOT AND ADD ADD SWAP4 SWAP3 POP POP POP JUMP INVALID PUSH1 0x80 PUSH1 0x40 MSTORE CALLVALUE DUP1 ISZERO PUSH1 0xE JUMPI PUSH0 DUP1 REVERT JUMPDEST POP PUSH1 0x40 MLOAD PUSH2 0x36D CODESIZE SUB DUP1 PUSH2 0x36D DUP4 CODECOPY DUP2 ADD PUSH1 0x40 DUP2 SWAP1 MSTORE PUSH1 0x2B SWAP2 PUSH1 0x74 JUMP JUMPDEST PUSH1 0x1 DUP1 SLOAD PUSH1 0x1 PUSH1 0x1 PUSH1 0xA0 SHL SUB SWAP4 DUP5 AND PUSH1 0x1 PUSH1 0x1 PUSH1 0xA0 SHL SUB NOT SWAP2 DUP3 AND OR SWAP1 SWAP2 SSTORE PUSH0 DUP1 SLOAD SWAP3 SWAP1 SWAP4 AND SWAP2 AND OR SWAP1 SSTORE PUSH1 0xA0 JUMP JUMPDEST DUP1 MLOAD PUSH1 0x1 PUSH1 0x1 PUSH1 0xA0 SHL SUB DUP2 AND DUP2 EQ PUSH1 0x6F JUMPI PUSH0 DUP1 REVERT JUMPDEST SWAP2 SWAP1 POP JUMP JUMPDEST PUSH0 DUP1 PUSH1 0x40 DUP4 DUP6 SUB SLT ISZERO PUSH1 0x84 JUMPI PUSH0 DUP1 REVERT JUMPDEST PUSH1 0x8B DUP4 PUSH1 0x5A JUMP JUMPDEST SWAP2 POP PUSH1 0x97 PUSH1 0x20 DUP5 ADD PUSH1 0x5A JUMP JUMPDEST SWAP1 POP SWAP3 POP SWAP3 SWAP1 POP JUMP JUMPDEST PUSH2 0x2C0 DUP1 PUSH2 0xAD PUSH0 CODECOPY PUSH0 RETURN INVALID PUSH1 0x80 PUSH1 0x40 MSTORE CALLVALUE DUP1 ISZERO PUSH2 0xF JUMPI PUSH0 DUP1 REVERT JUMPDEST POP PUSH1 0x4 CALLDATASIZE LT PUSH2 0x60 JUMPI PUSH0 CALLDATALOAD PUSH1 0xE0 SHR DUP1 PUSH4 0x12C670F9 EQ PUSH2 0x64 JUMPI DUP1 PUSH4 0x163F7522 EQ PUSH2 0x93 JUMPI DUP1 PUSH4 0x1BB71DB2 EQ PUSH2 0xB6 JUMPI DUP1 PUSH4 0x2199D5CD EQ PUSH2 0xC0 JUMPI DUP1 PUSH4 0x9AC7C29C EQ PUSH2 0xD3 JUMPI DUP1 PUSH4 0xA87430BA EQ PUSH2 0xE6 JUMPI JUMPDEST PUSH0 DUP1 REVERT JUMPDEST PUSH0 SLOAD PUSH2 0x76 SWAP1 PUSH1 0x1 PUSH1 0x1 PUSH1 0xA0 SHL SUB AND DUP2 JUMP JUMPDEST PUSH1 0x40 MLOAD PUSH1 0x1 PUSH1 0x1 PUSH1 0xA0 SHL SUB SWAP1 SWAP2 AND DUP2 MSTORE PUSH1 0x20 ADD JUMPDEST PUSH1 0x40 MLOAD DUP1 SWAP2 SUB SWAP1 RETURN JUMPDEST PUSH2 0xA6 PUSH2 0xA1 CALLDATASIZE PUSH1 0x4 PUSH2 0x25D JUMP JUMPDEST PUSH2 0x113 JUMP JUMPDEST PUSH1 0x40 MLOAD SWAP1 ISZERO ISZERO DUP2 MSTORE PUSH1 0x20 ADD PUSH2 0x8A JUMP JUMPDEST PUSH2 0xBE PUSH2 0x182 JUMP JUMPDEST STOP JUMPDEST PUSH2 0xBE PUSH2 0xCE CALLDATASIZE PUSH1 0x4 PUSH2 0x25D JUMP JUMPDEST PUSH2 0x1DD JUMP JUMPDEST PUSH1 0x1 SLOAD PUSH2 0x76 SWAP1 PUSH1 0x1 PUSH1 0x1 PUSH1 0xA0 SHL SUB AND DUP2 JUMP JUMPDEST PUSH2 0x105 PUSH2 0xF4 CALLDATASIZE PUSH1 0x4 PUSH2 0x25D JUMP JUMPDEST PUSH1 0x2 PUSH1 0x20 MSTORE PUSH0 SWAP1 DUP2 MSTORE PUSH1 0x40 SWAP1 KECCAK256 SLOAD DUP2 JUMP JUMPDEST PUSH1 0x40 MLOAD SWAP1 DUP2 MSTORE PUSH1 0x20 ADD PUSH2 0x8A JUMP JUMPDEST PUSH1 0x1 SLOAD PUSH0 SWAP1 PUSH1 0x1 PUSH1 0x1 PUSH1 0xA0 SHL SUB AND CALLER EQ PUSH2 0x165 JUMPI PUSH1 0x40 MLOAD PUSH3 0x461BCD PUSH1 0xE5 SHL DUP2 MSTORE PUSH1 0x20 PUSH1 0x4 DUP3 ADD MSTORE PUSH1 0xE PUSH1 0x24 DUP3 ADD MSTORE PUSH14 0x139BDD08185D5D1A1BDC9A5E9959 PUSH1 0x92 SHL PUSH1 0x44 DUP3 ADD MSTORE PUSH1 0x64 ADD JUMPDEST PUSH1 0x40 MLOAD DUP1 SWAP2 SUB SWAP1 REVERT JUMPDEST POP PUSH1 0x1 PUSH1 0x1 PUSH1 0xA0 SHL SUB AND PUSH0 SWAP1 DUP2 MSTORE PUSH1 0x2 PUSH1 0x20 MSTORE PUSH1 0x40 SWAP1 KECCAK256 SLOAD ISZERO ISZERO SWAP1 JUMP JUMPDEST CALLER PUSH0 SWAP1 DUP2 MSTORE PUSH1 0x2 PUSH1 0x20 MSTORE PUSH1 0x40 SWAP1 KECCAK256 SLOAD PUSH2 0x1CC JUMPI PUSH1 0x40 MLOAD PUSH3 0x461BCD PUSH1 0xE5 SHL DUP2 MSTORE PUSH1 0x20 PUSH1 0x4 DUP3 ADD MSTORE PUSH1 0xC PUSH1 0x24 DUP3 ADD MSTORE PUSH12 0x155B985D5D1A1BDC9A5E9959 PUSH1 0xA2 SHL PUSH1 0x44 DUP3 ADD MSTORE PUSH1 0x64 ADD PUSH2 0x15C JUMP JUMPDEST CALLER PUSH0 SWAP1 DUP2 MSTORE PUSH1 0x2 PUSH1 0x20 MSTORE PUSH1 0x40 DUP2 KECCAK256 SSTORE JUMP JUMPDEST PUSH0 SLOAD PUSH1 0x1 PUSH1 0x1 PUSH1 0xA0 SHL SUB AND CALLER EQ PUSH2 0x242 JUMPI PUSH1 0x40 MLOAD PUSH3 0x461BCD PUSH1 0xE5 SHL DUP2 MSTORE PUSH1 0x20 PUSH1 0x4 DUP3 ADD MSTORE PUSH1 0x23 PUSH1 0x24 DUP3 ADD MSTORE PUSH32 0x4F6E6C79204E6F7469466163746F72792063616E207265676973746572207573 PUSH1 0x44 DUP3 ADD MSTORE PUSH3 0x657273 PUSH1 0xE8 SHL PUSH1 0x64 DUP3 ADD MSTORE PUSH1 0x84 ADD PUSH2 0x15C JUMP JUMPDEST PUSH1 0x1 PUSH1 0x1 PUSH1 0xA0 SHL SUB AND PUSH0 SWAP1 DUP2 MSTORE PUSH1 0x2 PUSH1 0x20 MSTORE PUSH1 0x40 SWAP1 KECCAK256 TIMESTAMP SWAP1 SSTORE JUMP JUMPDEST PUSH0 PUSH1 0x20 DUP3 DUP5 SUB SLT ISZERO PUSH2 0x26D JUMPI PUSH0 DUP1 REVERT JUMPDEST DUP2 CALLDATALOAD PUSH1 0x1 PUSH1 0x1 PUSH1 0xA0 SHL SUB DUP2 AND DUP2 EQ PUSH2 0x283 JUMPI PUSH0 DUP1 REVERT JUMPDEST SWAP4 SWAP3 POP POP POP JUMP INVALID LOG2 PUSH5 0x6970667358 0x22 SLT KECCAK256 DUP2 RETURNDATACOPY EXP SLOAD AND BALANCE EXP 0xC8 0xA9 0xED 0xC0 0xD3 0xF7 0xA9 SSTORE DUP9 PUSH14 0x630A6F8EFF3B07B6D6663CC9A34D 0xE5 PUSH5 0x736F6C6343 STOP ADDMOD BYTE STOP CALLER PUSH1 0x80 PUSH1 0x40 MSTORE CALLVALUE DUP1 ISZERO PUSH1 0xE JUMPI PUSH0 DUP1 REVERT JUMPDEST POP PUSH1 0x40 MLOAD PUSH2 0xB89 CODESIZE SUB DUP1 PUSH2 0xB89 DUP4 CODECOPY DUP2 ADD PUSH1 0x40 DUP2 SWAP1 MSTORE PUSH1 0x2B SWAP2 PUSH1 0x85 JUMP JUMPDEST PUSH0 DUP1 SLOAD PUSH1 0x1 PUSH1 0x1 PUSH1 0xA0 SHL SUB SWAP5 DUP6 AND PUSH1 0x1 PUSH1 0x1 PUSH1 0xA0 SHL SUB NOT SWAP2 DUP3 AND OR SWAP1 SWAP2 SSTORE PUSH1 0x1 DUP1 SLOAD SWAP4 DUP6 AND SWAP4 DUP3 AND SWAP4 SWAP1 SWAP4 OR SWAP1 SWAP3 SSTORE PUSH1 0x2 DUP1 SLOAD SWAP2 SWAP1 SWAP4 AND SWAP2 AND OR SWAP1 SSTORE PUSH1 0xBE JUMP JUMPDEST DUP1 MLOAD PUSH1 0x1 PUSH1 0x1 PUSH1 0xA0 SHL SUB DUP2 AND DUP2 EQ PUSH1 0x80 JUMPI PUSH0 DUP1 REVERT JUMPDEST SWAP2 SWAP1 POP JUMP JUMPDEST PUSH0 DUP1 PUSH0 PUSH1 0x60 DUP5 DUP7 SUB SLT ISZERO PUSH1 0x96 JUMPI PUSH0 DUP1 REVERT JUMPDEST PUSH1 0x9D DUP5 PUSH1 0x6B JUMP JUMPDEST SWAP3 POP PUSH1 0xA9 PUSH1 0x20 DUP6 ADD PUSH1 0x6B JUMP JUMPDEST SWAP2 POP PUSH1 0xB5 PUSH1 0x40 DUP6 ADD PUSH1 0x6B JUMP JUMPDEST SWAP1 POP SWAP3 POP SWAP3 POP SWAP3 JUMP JUMPDEST PUSH2 0xABE DUP1 PUSH2 0xCB PUSH0 CODECOPY PUSH0 RETURN INVALID PUSH1 0x80 PUSH1 0x40 MSTORE CALLVALUE DUP1 ISZERO PUSH2 0xF JUMPI PUSH0 DUP1 REVERT JUMPDEST POP PUSH1 0x4 CALLDATASIZE LT PUSH2 0x55 JUMPI PUSH0 CALLDATALOAD PUSH1 0xE0 SHR DUP1 PUSH4 0x49F66A2C EQ PUSH2 0x59 JUMPI DUP1 PUSH4 0x86DC758D EQ PUSH2 0x6E JUMPI DUP1 PUSH4 0x9AC7C29C EQ PUSH2 0x9E JUMPI DUP1 PUSH4 0xCC7A2049 EQ PUSH2 0xB0 JUMPI DUP1 PUSH4 0xDE61D238 EQ PUSH2 0xC3 JUMPI JUMPDEST PUSH0 DUP1 REVERT JUMPDEST PUSH2 0x6C PUSH2 0x67 CALLDATASIZE PUSH1 0x4 PUSH2 0x6AC JUMP JUMPDEST PUSH2 0xE3 JUMP JUMPDEST STOP JUMPDEST PUSH1 0x2 SLOAD PUSH2 0x81 SWAP1 PUSH1 0x1 PUSH1 0x1 PUSH1 0xA0 SHL SUB AND DUP2 JUMP JUMPDEST PUSH1 0x40 MLOAD PUSH1 0x1 PUSH1 0x1 PUSH1 0xA0 SHL SUB SWAP1 SWAP2 AND DUP2 MSTORE PUSH1 0x20 ADD JUMPDEST PUSH1 0x40 MLOAD DUP1 SWAP2 SUB SWAP1 RETURN JUMPDEST PUSH0 SLOAD PUSH2 0x81 SWAP1 PUSH1 0x1 PUSH1 0x1 PUSH1 0xA0 SHL SUB AND DUP2 JUMP JUMPDEST PUSH1 0x1 SLOAD PUSH2 0x81 SWAP1 PUSH1 0x1 PUSH1 0x1 PUSH1 0xA0 SHL SUB AND DUP2 JUMP JUMPDEST PUSH2 0xD6 PUSH2 0xD1 CALLDATASIZE PUSH1 0x4 PUSH2 0x72A JUMP JUMPDEST PUSH2 0x385 JUMP JUMPDEST PUSH1 0x40 MLOAD PUSH2 0x95 SWAP2 SWAP1 PUSH2 0x75A JUMP JUMPDEST PUSH0 SLOAD PUSH1 0x1 PUSH1 0x1 PUSH1 0xA0 SHL SUB AND CALLER EQ PUSH2 0x132 JUMPI PUSH1 0x40 MLOAD PUSH3 0x461BCD PUSH1 0xE5 SHL DUP2 MSTORE PUSH1 0x20 PUSH1 0x4 DUP3 ADD MSTORE PUSH1 0xE PUSH1 0x24 DUP3 ADD MSTORE PUSH14 0x139BDD08185D5D1A1BDC9A5E9959 PUSH1 0x92 SHL PUSH1 0x44 DUP3 ADD MSTORE PUSH1 0x64 ADD JUMPDEST PUSH1 0x40 MLOAD DUP1 SWAP2 SUB SWAP1 REVERT JUMPDEST PUSH1 0x1 SLOAD PUSH1 0x40 MLOAD PUSH4 0xB1FBA91 PUSH1 0xE1 SHL DUP2 MSTORE PUSH1 0x1 PUSH1 0x1 PUSH1 0xA0 SHL SUB DUP6 DUP2 AND PUSH1 0x4 DUP4 ADD MSTORE SWAP1 SWAP2 AND SWAP1 PUSH4 0x163F7522 SWAP1 PUSH1 0x24 ADD PUSH1 0x20 PUSH1 0x40 MLOAD DUP1 DUP4 SUB DUP2 DUP7 GAS STATICCALL ISZERO DUP1 ISZERO PUSH2 0x17A JUMPI RETURNDATASIZE PUSH0 DUP1 RETURNDATACOPY RETURNDATASIZE PUSH0 REVERT JUMPDEST POP POP POP POP PUSH1 0x40 MLOAD RETURNDATASIZE PUSH1 0x1F NOT PUSH1 0x1F DUP3 ADD AND DUP3 ADD DUP1 PUSH1 0x40 MSTORE POP DUP2 ADD SWAP1 PUSH2 0x19E SWAP2 SWAP1 PUSH2 0x808 JUMP JUMPDEST PUSH2 0x1E0 JUMPI PUSH1 0x40 MLOAD PUSH3 0x461BCD PUSH1 0xE5 SHL DUP2 MSTORE PUSH1 0x20 PUSH1 0x4 DUP3 ADD MSTORE PUSH1 0x13 PUSH1 0x24 DUP3 ADD MSTORE PUSH19 0x155CD95C881B9BDD081C9959DA5CDD195C9959 PUSH1 0x6A SHL PUSH1 0x44 DUP3 ADD MSTORE PUSH1 0x64 ADD PUSH2 0x129 JUMP JUMPDEST PUSH0 TIMESTAMP DUP5 DUP5 DUP5 PUSH1 0x40 MLOAD PUSH1 0x20 ADD PUSH2 0x1F8 SWAP5 SWAP4 SWAP3 SWAP2 SWAP1 PUSH2 0x827 JUMP JUMPDEST PUSH1 0x40 DUP1 MLOAD PUSH1 0x1F NOT DUP2 DUP5 SUB ADD DUP2 MSTORE DUP3 DUP3 MSTORE DUP1 MLOAD PUSH1 0x20 SWAP2 DUP3 ADD KECCAK256 PUSH1 0x80 DUP5 ADD DUP4 MSTORE DUP1 DUP5 MSTORE DUP3 MLOAD PUSH1 0x1F DUP8 ADD DUP4 SWAP1 DIV DUP4 MUL DUP2 ADD DUP4 ADD SWAP1 SWAP4 MSTORE DUP6 DUP4 MSTORE SWAP4 POP PUSH0 SWAP3 SWAP2 DUP3 DUP3 ADD SWAP2 DUP8 SWAP1 DUP8 SWAP1 DUP2 SWAP1 DUP5 ADD DUP4 DUP3 DUP1 DUP3 DUP5 CALLDATACOPY PUSH0 SWAP3 ADD DUP3 SWAP1 MSTORE POP SWAP4 DUP6 MSTORE POP POP TIMESTAMP PUSH1 0x20 DUP1 DUP6 ADD SWAP2 SWAP1 SWAP2 MSTORE PUSH1 0x40 SWAP4 DUP5 ADD DUP4 SWAP1 MSTORE DUP7 DUP4 MSTORE PUSH1 0x4 DUP2 MSTORE SWAP3 SWAP1 SWAP2 KECCAK256 DUP4 MLOAD DUP2 SSTORE SWAP2 DUP4 ADD MLOAD SWAP3 SWAP4 POP DUP4 SWAP3 PUSH1 0x1 DUP4 ADD SWAP2 POP PUSH2 0x28B SWAP1 DUP3 PUSH2 0x8F1 JUMP JUMPDEST POP PUSH1 0x40 DUP3 DUP2 ADD MLOAD PUSH1 0x2 DUP4 ADD SSTORE PUSH1 0x60 SWAP1 SWAP3 ADD MLOAD PUSH1 0x3 SWAP2 DUP3 ADD DUP1 SLOAD PUSH1 0xFF NOT AND SWAP2 ISZERO ISZERO SWAP2 SWAP1 SWAP2 OR SWAP1 SSTORE PUSH1 0x1 PUSH1 0x1 PUSH1 0xA0 SHL SUB DUP8 AND PUSH0 DUP2 DUP2 MSTORE PUSH1 0x20 SWAP3 DUP4 MSTORE DUP4 DUP2 KECCAK256 DUP1 SLOAD PUSH1 0x1 DUP2 ADD DUP3 SSTORE SWAP1 DUP3 MSTORE SWAP3 SWAP1 KECCAK256 SWAP1 SWAP2 ADD DUP5 SWAP1 SSTORE SWAP1 MLOAD PUSH32 0x40576715F6F18072AA1F0FCDE1555973F23891FB010EF4576F2A4DF7960E1D41 SWAP1 PUSH2 0x30E SWAP1 DUP6 SWAP1 DUP9 SWAP1 DUP9 SWAP1 PUSH2 0x9D4 JUMP JUMPDEST PUSH1 0x40 MLOAD DUP1 SWAP2 SUB SWAP1 LOG2 PUSH1 0x2 SLOAD PUSH0 SLOAD PUSH1 0x40 MLOAD PUSH4 0x137DCD39 PUSH1 0xE3 SHL DUP2 MSTORE PUSH1 0x1 PUSH1 0x1 PUSH1 0xA0 SHL SUB SWAP3 DUP4 AND SWAP3 PUSH4 0x9BEE69C8 SWAP3 PUSH2 0x351 SWAP3 SWAP2 AND SWAP1 DUP10 SWAP1 DUP8 SWAP1 DUP11 SWAP1 DUP11 SWAP1 PUSH1 0x4 ADD PUSH2 0x9F6 JUMP JUMPDEST PUSH0 PUSH1 0x40 MLOAD DUP1 DUP4 SUB DUP2 PUSH0 DUP8 DUP1 EXTCODESIZE ISZERO DUP1 ISZERO PUSH2 0x368 JUMPI PUSH0 DUP1 REVERT JUMPDEST POP GAS CALL ISZERO DUP1 ISZERO PUSH2 0x37A JUMPI RETURNDATASIZE PUSH0 DUP1 RETURNDATACOPY RETURNDATASIZE PUSH0 REVERT JUMPDEST POP POP POP POP POP POP POP POP POP JUMP JUMPDEST PUSH1 0x1 SLOAD PUSH1 0x40 MLOAD PUSH4 0xB1FBA91 PUSH1 0xE1 SHL DUP2 MSTORE PUSH1 0x1 PUSH1 0x1 PUSH1 0xA0 SHL SUB DUP6 DUP2 AND PUSH1 0x4 DUP4 ADD MSTORE PUSH1 0x60 SWAP3 AND SWAP1 PUSH4 0x163F7522 SWAP1 PUSH1 0x24 ADD PUSH1 0x20 PUSH1 0x40 MLOAD DUP1 DUP4 SUB DUP2 DUP7 GAS STATICCALL ISZERO DUP1 ISZERO PUSH2 0x3CE JUMPI RETURNDATASIZE PUSH0 DUP1 RETURNDATACOPY RETURNDATASIZE PUSH0 REVERT JUMPDEST POP POP POP POP PUSH1 0x40 MLOAD RETURNDATASIZE PUSH1 0x1F NOT PUSH1 0x1F DUP3 ADD AND DUP3 ADD DUP1 PUSH1 0x40 MSTORE POP DUP2 ADD SWAP1 PUSH2 0x3F2 SWAP2 SWAP1 PUSH2 0x808 JUMP JUMPDEST PUSH2 0x434 JUMPI PUSH1 0x40 MLOAD PUSH3 0x461BCD PUSH1 0xE5 SHL DUP2 MSTORE PUSH1 0x20 PUSH1 0x4 DUP3 ADD MSTORE PUSH1 0x13 PUSH1 0x24 DUP3 ADD MSTORE PUSH19 0x155CD95C881B9BDD081C9959DA5CDD195C9959 PUSH1 0x6A SHL PUSH1 0x44 DUP3 ADD MSTORE PUSH1 0x64 ADD PUSH2 0x129 JUMP JUMPDEST PUSH1 0x1 PUSH1 0x1 PUSH1 0xA0 SHL SUB DUP5 AND PUSH0 SWAP1 DUP2 MSTORE PUSH1 0x3 PUSH1 0x20 MSTORE PUSH1 0x40 SWAP1 KECCAK256 SLOAD DUP1 DUP5 LT PUSH2 0x4AE JUMPI PUSH1 0x40 DUP1 MLOAD PUSH0 DUP1 DUP3 MSTORE PUSH1 0x20 DUP3 ADD SWAP1 SWAP3 MSTORE SWAP1 PUSH2 0x4A5 JUMP JUMPDEST PUSH2 0x492 PUSH1 0x40 MLOAD DUP1 PUSH1 0x80 ADD PUSH1 0x40 MSTORE DUP1 PUSH0 DUP2 MSTORE PUSH1 0x20 ADD PUSH1 0x60 DUP2 MSTORE PUSH1 0x20 ADD PUSH0 DUP2 MSTORE PUSH1 0x20 ADD PUSH0 ISZERO ISZERO DUP2 MSTORE POP SWAP1 JUMP JUMPDEST DUP2 MSTORE PUSH1 0x20 ADD SWAP1 PUSH1 0x1 SWAP1 SUB SWAP1 DUP2 PUSH2 0x468 JUMPI SWAP1 POP JUMPDEST POP SWAP2 POP POP PUSH2 0x68A JUMP JUMPDEST PUSH0 DUP4 PUSH2 0x4BA DUP7 DUP5 PUSH2 0xA48 JUMP JUMPDEST GT PUSH2 0x4CE JUMPI PUSH2 0x4C9 DUP6 DUP4 PUSH2 0xA48 JUMP JUMPDEST PUSH2 0x4D0 JUMP JUMPDEST DUP4 JUMPDEST SWAP1 POP PUSH0 DUP2 PUSH8 0xFFFFFFFFFFFFFFFF DUP2 GT ISZERO PUSH2 0x4EC JUMPI PUSH2 0x4EC PUSH2 0x859 JUMP JUMPDEST PUSH1 0x40 MLOAD SWAP1 DUP1 DUP3 MSTORE DUP1 PUSH1 0x20 MUL PUSH1 0x20 ADD DUP3 ADD PUSH1 0x40 MSTORE DUP1 ISZERO PUSH2 0x547 JUMPI DUP2 PUSH1 0x20 ADD JUMPDEST PUSH2 0x534 PUSH1 0x40 MLOAD DUP1 PUSH1 0x80 ADD PUSH1 0x40 MSTORE DUP1 PUSH0 DUP2 MSTORE PUSH1 0x20 ADD PUSH1 0x60 DUP2 MSTORE PUSH1 0x20 ADD PUSH0 DUP2 MSTORE PUSH1 0x20 ADD PUSH0 ISZERO ISZERO DUP2 MSTORE POP SWAP1 JUMP JUMPDEST DUP2 MSTORE PUSH1 0x20 ADD SWAP1 PUSH1 0x1 SWAP1 SUB SWAP1 DUP2 PUSH2 0x50A JUMPI SWAP1 POP JUMPDEST POP SWAP1 POP PUSH0 JUMPDEST DUP3 DUP2 LT ISZERO PUSH2 0x684 JUMPI PUSH1 0x1 PUSH1 0x1 PUSH1 0xA0 SHL SUB DUP9 AND PUSH0 SWAP1 DUP2 MSTORE PUSH1 0x3 PUSH1 0x20 MSTORE PUSH1 0x40 DUP2 KECCAK256 PUSH1 0x4 SWAP2 SWAP1 PUSH2 0x579 DUP5 DUP12 PUSH2 0xA61 JUMP JUMPDEST DUP2 SLOAD DUP2 LT PUSH2 0x589 JUMPI PUSH2 0x589 PUSH2 0xA74 JUMP JUMPDEST SWAP1 PUSH0 MSTORE PUSH1 0x20 PUSH0 KECCAK256 ADD SLOAD DUP2 MSTORE PUSH1 0x20 ADD SWAP1 DUP2 MSTORE PUSH1 0x20 ADD PUSH0 KECCAK256 PUSH1 0x40 MLOAD DUP1 PUSH1 0x80 ADD PUSH1 0x40 MSTORE SWAP1 DUP2 PUSH0 DUP3 ADD SLOAD DUP2 MSTORE PUSH1 0x20 ADD PUSH1 0x1 DUP3 ADD DUP1 SLOAD PUSH2 0x5C3 SWAP1 PUSH2 0x86D JUMP JUMPDEST DUP1 PUSH1 0x1F ADD PUSH1 0x20 DUP1 SWAP2 DIV MUL PUSH1 0x20 ADD PUSH1 0x40 MLOAD SWAP1 DUP2 ADD PUSH1 0x40 MSTORE DUP1 SWAP3 SWAP2 SWAP1 DUP2 DUP2 MSTORE PUSH1 0x20 ADD DUP3 DUP1 SLOAD PUSH2 0x5EF SWAP1 PUSH2 0x86D JUMP JUMPDEST DUP1 ISZERO PUSH2 0x63A JUMPI DUP1 PUSH1 0x1F LT PUSH2 0x611 JUMPI PUSH2 0x100 DUP1 DUP4 SLOAD DIV MUL DUP4 MSTORE SWAP2 PUSH1 0x20 ADD SWAP2 PUSH2 0x63A JUMP JUMPDEST DUP3 ADD SWAP2 SWAP1 PUSH0 MSTORE PUSH1 0x20 PUSH0 KECCAK256 SWAP1 JUMPDEST DUP2 SLOAD DUP2 MSTORE SWAP1 PUSH1 0x1 ADD SWAP1 PUSH1 0x20 ADD DUP1 DUP4 GT PUSH2 0x61D JUMPI DUP3 SWAP1 SUB PUSH1 0x1F AND DUP3 ADD SWAP2 JUMPDEST POP POP POP SWAP2 DUP4 MSTORE POP POP PUSH1 0x2 DUP3 ADD SLOAD PUSH1 0x20 DUP3 ADD MSTORE PUSH1 0x3 SWAP1 SWAP2 ADD SLOAD PUSH1 0xFF AND ISZERO ISZERO PUSH1 0x40 SWAP1 SWAP2 ADD MSTORE DUP3 MLOAD DUP4 SWAP1 DUP4 SWAP1 DUP2 LT PUSH2 0x671 JUMPI PUSH2 0x671 PUSH2 0xA74 JUMP JUMPDEST PUSH1 0x20 SWAP1 DUP2 MUL SWAP2 SWAP1 SWAP2 ADD ADD MSTORE PUSH1 0x1 ADD PUSH2 0x54C JUMP JUMPDEST POP SWAP3 POP POP POP JUMPDEST SWAP4 SWAP3 POP POP POP JUMP JUMPDEST DUP1 CALLDATALOAD PUSH1 0x1 PUSH1 0x1 PUSH1 0xA0 SHL SUB DUP2 AND DUP2 EQ PUSH2 0x6A7 JUMPI PUSH0 DUP1 REVERT JUMPDEST SWAP2 SWAP1 POP JUMP JUMPDEST PUSH0 DUP1 PUSH0 PUSH1 0x40 DUP5 DUP7 SUB SLT ISZERO PUSH2 0x6BE JUMPI PUSH0 DUP1 REVERT JUMPDEST PUSH2 0x6C7 DUP5 PUSH2 0x691 JUMP JUMPDEST SWAP3 POP PUSH1 0x20 DUP5 ADD CALLDATALOAD PUSH8 0xFFFFFFFFFFFFFFFF DUP2 GT ISZERO PUSH2 0x6E2 JUMPI PUSH0 DUP1 REVERT JUMPDEST DUP5 ADD PUSH1 0x1F DUP2 ADD DUP7 SGT PUSH2 0x6F2 JUMPI PUSH0 DUP1 REVERT JUMPDEST DUP1 CALLDATALOAD PUSH8 0xFFFFFFFFFFFFFFFF DUP2 GT ISZERO PUSH2 0x708 JUMPI PUSH0 DUP1 REVERT JUMPDEST DUP7 PUSH1 0x20 DUP3 DUP5 ADD ADD GT ISZERO PUSH2 0x719 JUMPI PUSH0 DUP1 REVERT JUMPDEST SWAP4 SWAP7 PUSH1 0x20 SWAP2 SWAP1 SWAP2 ADD SWAP6 POP SWAP3 SWAP4 POP POP POP JUMP JUMPDEST PUSH0 DUP1 PUSH0 PUSH1 0x60 DUP5 DUP7 SUB SLT ISZERO PUSH2 0x73C JUMPI PUSH0 DUP1 REVERT JUMPDEST PUSH2 0x745 DUP5 PUSH2 0x691 JUMP JUMPDEST SWAP6 PUSH1 0x20 DUP6 ADD CALLDATALOAD SWAP6 POP PUSH1 0x40 SWAP1 SWAP5 ADD CALLDATALOAD SWAP4 SWAP3 POP POP POP JUMP JUMPDEST PUSH0 PUSH1 0x20 DUP3 ADD PUSH1 0x20 DUP4 MSTORE DUP1 DUP5 MLOAD DUP1 DUP4 MSTORE PUSH1 0x40 DUP6 ADD SWAP2 POP PUSH1 0x40 DUP2 PUSH1 0x5 SHL DUP7 ADD ADD SWAP3 POP PUSH1 0x20 DUP7 ADD PUSH0 JUMPDEST DUP3 DUP2 LT ISZERO PUSH2 0x7FC JUMPI PUSH1 0x3F NOT DUP8 DUP7 SUB ADD DUP5 MSTORE DUP2 MLOAD DUP1 MLOAD DUP7 MSTORE PUSH1 0x20 DUP2 ADD MLOAD PUSH1 0x80 PUSH1 0x20 DUP9 ADD MSTORE DUP1 MLOAD DUP1 PUSH1 0x80 DUP10 ADD MSTORE DUP1 PUSH1 0x20 DUP4 ADD PUSH1 0xA0 DUP11 ADD MCOPY PUSH0 PUSH1 0xA0 DUP3 DUP11 ADD ADD MSTORE PUSH1 0x40 DUP4 ADD MLOAD PUSH1 0x40 DUP10 ADD MSTORE PUSH1 0x60 DUP4 ADD MLOAD ISZERO ISZERO PUSH1 0x60 DUP10 ADD MSTORE PUSH1 0xA0 PUSH1 0x1F NOT PUSH1 0x1F DUP4 ADD AND DUP10 ADD ADD SWAP8 POP POP POP POP PUSH1 0x20 DUP3 ADD SWAP2 POP PUSH1 0x20 DUP5 ADD SWAP4 POP PUSH1 0x1 DUP2 ADD SWAP1 POP PUSH2 0x780 JUMP JUMPDEST POP SWAP3 SWAP7 SWAP6 POP POP POP POP POP POP JUMP JUMPDEST PUSH0 PUSH1 0x20 DUP3 DUP5 SUB SLT ISZERO PUSH2 0x818 JUMPI PUSH0 DUP1 REVERT JUMPDEST DUP2 MLOAD DUP1 ISZERO ISZERO DUP2 EQ PUSH2 0x68A JUMPI PUSH0 DUP1 REVERT JUMPDEST DUP5 DUP2 MSTORE PUSH12 0xFFFFFFFFFFFFFFFFFFFFFFFF NOT DUP5 PUSH1 0x60 SHL AND PUSH1 0x20 DUP3 ADD MSTORE DUP2 DUP4 PUSH1 0x34 DUP4 ADD CALLDATACOPY PUSH0 SWAP2 ADD PUSH1 0x34 ADD SWAP1 DUP2 MSTORE SWAP4 SWAP3 POP POP POP JUMP JUMPDEST PUSH4 0x4E487B71 PUSH1 0xE0 SHL PUSH0 MSTORE PUSH1 0x41 PUSH1 0x4 MSTORE PUSH1 0x24 PUSH0 REVERT JUMPDEST PUSH1 0x1 DUP2 DUP2 SHR SWAP1 DUP3 AND DUP1 PUSH2 0x881 JUMPI PUSH1 0x7F DUP3 AND SWAP2 POP JUMPDEST PUSH1 0x20 DUP3 LT DUP2 SUB PUSH2 0x89F JUMPI PUSH4 0x4E487B71 PUSH1 0xE0 SHL PUSH0 MSTORE PUSH1 0x22 PUSH1 0x4 MSTORE PUSH1 0x24 PUSH0 REVERT JUMPDEST POP SWAP2 SWAP1 POP JUMP JUMPDEST PUSH1 0x1F DUP3 GT ISZERO PUSH2 0x8EC JUMPI DUP1 PUSH0 MSTORE PUSH1 0x20 PUSH0 KECCAK256 PUSH1 0x1F DUP5 ADD PUSH1 0x5 SHR DUP2 ADD PUSH1 0x20 DUP6 LT ISZERO PUSH2 0x8CA JUMPI POP DUP1 JUMPDEST PUSH1 0x1F DUP5 ADD PUSH1 0x5 SHR DUP3 ADD SWAP2 POP JUMPDEST DUP2 DUP2 LT ISZERO PUSH2 0x8E9 JUMPI PUSH0 DUP2 SSTORE PUSH1 0x1 ADD PUSH2 0x8D6 JUMP JUMPDEST POP POP JUMPDEST POP POP POP JUMP JUMPDEST DUP2 MLOAD PUSH8 0xFFFFFFFFFFFFFFFF DUP2 GT ISZERO PUSH2 0x90B JUMPI PUSH2 0x90B PUSH2 0x859 JUMP JUMPDEST PUSH2 0x91F DUP2 PUSH2 0x919 DUP5 SLOAD PUSH2 0x86D JUMP JUMPDEST DUP5 PUSH2 0x8A5 JUMP JUMPDEST PUSH1 0x20 PUSH1 0x1F DUP3 GT PUSH1 0x1 DUP2 EQ PUSH2 0x951 JUMPI PUSH0 DUP4 ISZERO PUSH2 0x93A JUMPI POP DUP5 DUP3 ADD MLOAD JUMPDEST PUSH0 NOT PUSH1 0x3 DUP6 SWAP1 SHL SHR NOT AND PUSH1 0x1 DUP5 SWAP1 SHL OR DUP5 SSTORE PUSH2 0x8E9 JUMP JUMPDEST PUSH0 DUP5 DUP2 MSTORE PUSH1 0x20 DUP2 KECCAK256 PUSH1 0x1F NOT DUP6 AND SWAP2 JUMPDEST DUP3 DUP2 LT ISZERO PUSH2 0x980 JUMPI DUP8 DUP6 ADD MLOAD DUP3 SSTORE PUSH1 0x20 SWAP5 DUP6 ADD SWAP5 PUSH1 0x1 SWAP1 SWAP3 ADD SWAP2 ADD PUSH2 0x960 JUMP JUMPDEST POP DUP5 DUP3 LT ISZERO PUSH2 0x99D JUMPI DUP7 DUP5 ADD MLOAD PUSH0 NOT PUSH1 0x3 DUP8 SWAP1 SHL PUSH1 0xF8 AND SHR NOT AND DUP2 SSTORE JUMPDEST POP POP POP POP PUSH1 0x1 SWAP1 DUP2 SHL ADD SWAP1 SSTORE POP JUMP JUMPDEST DUP2 DUP4 MSTORE DUP2 DUP2 PUSH1 0x20 DUP6 ADD CALLDATACOPY POP PUSH0 DUP3 DUP3 ADD PUSH1 0x20 SWAP1 DUP2 ADD SWAP2 SWAP1 SWAP2 MSTORE PUSH1 0x1F SWAP1 SWAP2 ADD PUSH1 0x1F NOT AND SWAP1 SWAP2 ADD ADD SWAP1 JUMP JUMPDEST DUP4 DUP2 MSTORE PUSH1 0x40 PUSH1 0x20 DUP3 ADD MSTORE PUSH0 PUSH2 0x9ED PUSH1 0x40 DUP4 ADD DUP5 DUP7 PUSH2 0x9AC JUMP JUMPDEST SWAP6 SWAP5 POP POP POP POP POP JUMP JUMPDEST PUSH1 0x1 PUSH1 0x1 PUSH1 0xA0 SHL SUB DUP7 DUP2 AND DUP3 MSTORE DUP6 AND PUSH1 0x20 DUP3 ADD MSTORE PUSH1 0x40 DUP2 ADD DUP5 SWAP1 MSTORE PUSH1 0x80 PUSH1 0x60 DUP3 ADD DUP2 SWAP1 MSTORE PUSH0 SWAP1 PUSH2 0xA29 SWAP1 DUP4 ADD DUP5 DUP7 PUSH2 0x9AC JUMP JUMPDEST SWAP8 SWAP7 POP POP POP POP POP POP POP JUMP JUMPDEST PUSH4 0x4E487B71 PUSH1 0xE0 SHL PUSH0 MSTORE PUSH1 0x11 PUSH1 0x4 MSTORE PUSH1 0x24 PUSH0 REVERT JUMPDEST DUP2 DUP2 SUB DUP2 DUP2 GT ISZERO PUSH2 0xA5B JUMPI PUSH2 0xA5B PUSH2 0xA34 JUMP JUMPDEST SWAP3 SWAP2 POP POP JUMP JUMPDEST DUP1 DUP3 ADD DUP1 DUP3 GT ISZERO PUSH2 0xA5B JUMPI PUSH2 0xA5B PUSH2 0xA34 JUMP JUMPDEST PUSH4 0x4E487B71 PUSH1 0xE0 SHL PUSH0 MSTORE PUSH1 0x32 PUSH1 0x4 MSTORE PUSH1 0x24 PUSH0 REVERT INVALID LOG2 PUSH5 0x6970667358 0x22 SLT KECCAK256 0x4D 0xC CALLDATALOAD JUMPDEST CALLER 0xA8 0xD1 0xEE DUP3 PUSH1 0xCF PUSH7 0xF2E95ED303CBE1 0x2A 0xCC 0xDC INVALID 0xE4 0x2B 0xDF SWAP1 GAS SWAP12 MSTORE8 SWAP7 LOG1 PUSH5 0x736F6C6343 STOP ADDMOD BYTE STOP CALLER LOG2 PUSH5 0x6970667358 0x22 SLT KECCAK256 0xE9 PUSH12 0x6175C4431F7A09420F3FFAE7 0xBE MSIZE ADDMOD 0xEB GASLIMIT PUSH1 0xC8 LOG2 0xD2 0xC4 0xFB MUL 0xC1 PUSH2 0x4807 DUP16 PREVRANDAO PUSH5 0x736F6C6343 STOP ADDMOD BYTE STOP CALLER "
				},
				"gasEstimates": {
					"creation": {
						"codeDepositCost": "1198200",
						"executionCost": "27108",
						"totalCost": "1225308"
					},
					"external": {
						"dappList(uint256)": "4700",
						"dappToContracts(address)": "4767",
						"getAllDapps()": "infinite",
						"getDappContracts(address)": "4736",
						"notiHub()": "2336",
						"owner()": "2351",
						"registerDapp()": "infinite",
						"renounceOwnership()": "infinite",
						"setNotiHub(address)": "26733",
						"subscribeUser(address,bytes32,bytes)": "infinite",
						"transferOwnership(address)": "28439"
					}
				},
				"methodIdentifiers": {
					"dappList(uint256)": "8240a49b",
					"dappToContracts(address)": "b1a3a16f",
					"getAllDapps()": "aec5ab08",
					"getDappContracts(address)": "50fb11e5",
					"notiHub()": "86dc758d",
					"owner()": "8da5cb5b",
					"registerDapp()": "6b6e6eb3",
					"renounceOwnership()": "715018a6",
					"setNotiHub(address)": "3ca94181",
					"subscribeUser(address,bytes32,bytes)": "bba53087",
					"transferOwnership(address)": "f2fde38b"
				}
			},
			"storageLayout": {
				"storage": [
					{
						"astId": 8,
						"contract": "src/noti.sol:NotiFactory",
						"label": "_owner",
						"offset": 0,
						"slot": "0",
						"type": "t_address"
					},
					{
						"astId": 664,
						"contract": "src/noti.sol:NotiFactory",
						"label": "dappToContracts",
						"offset": 0,
						"slot": "1",
						"type": "t_mapping(t_address,t_struct(DappContracts)646_storage)"
					},
					{
						"astId": 667,
						"contract": "src/noti.sol:NotiFactory",
						"label": "dappList",
						"offset": 0,
						"slot": "2",
						"type": "t_array(t_address)dyn_storage"
					},
					{
						"astId": 670,
						"contract": "src/noti.sol:NotiFactory",
						"label": "notiHub",
						"offset": 0,
						"slot": "3",
						"type": "t_contract(NotiHub)385"
					}
				],
				"types": {
					"t_address": {
						"encoding": "inplace",
						"label": "address",
						"numberOfBytes": "20"
					},
					"t_array(t_address)dyn_storage": {
						"base": "t_address",
						"encoding": "dynamic_array",
						"label": "address[]",
						"numberOfBytes": "32"
					},
					"t_contract(NotiHub)385": {
						"encoding": "inplace",
						"label": "contract NotiHub",
						"numberOfBytes": "20"
					},
					"t_mapping(t_address,t_struct(DappContracts)646_storage)": {
						"encoding": "mapping",
						"key": "t_address",
						"label": "mapping(address => struct NotiFactory.DappContracts)",
						"numberOfBytes": "32",
						"value": "t_struct(DappContracts)646_storage"
					},
					"t_struct(DappContracts)646_storage": {
						"encoding": "inplace",
						"label": "struct NotiFactory.DappContracts",
						"members": [
							{
								"astId": 643,
								"contract": "src/noti.sol:NotiFactory",
								"label": "permissionManager",
								"offset": 0,
								"slot": "0",
								"type": "t_address"
							},
							{
								"astId": 645,
								"contract": "src/noti.sol:NotiFactory",
								"label": "notiStorage",
								"offset": 0,
								"slot": "1",
								"type": "t_address"
							}
						],
						"numberOfBytes": "64"
					}
				}
			},
			"userdoc": {
				"events": {
					"UserSubscribed(address,address,address,bytes32,bytes)": {
						"notice": "Sá»± kiá»‡n phÃ¡t ra khi user Ä‘Äƒng kÃ½ nháº­n thÃ´ng bÃ¡o tá»« Dapp"
					}
				},
				"kind": "user",
				"methods": {
					"getAllDapps()": {
						"notice": "Láº¥y danh sÃ¡ch táº¥t cáº£ Dapp Ä‘Ã£ Ä‘Äƒng kÃ½ há»‡ thá»‘ng thÃ´ng bÃ¡o"
					},
					"getDappContracts(address)": {
						"notice": "Láº¥y Ä‘á»‹a chá»‰ cá»§a PermissionManager & NotiStorage cá»§a má»™t Dapp"
					},
					"registerDapp()": {
						"notice": "ÄÄƒng kÃ½ Dapp vá»›i há»‡ thá»‘ng thÃ´ng bÃ¡o"
					},
					"subscribeUser(address,bytes32,bytes)": {
						"notice": "NgÆ°á»i dÃ¹ng Ä‘Äƒng kÃ½ nháº­n thÃ´ng bÃ¡o tá»« má»™t Dapp"
					}
				},
				"version": 1
			}
		}
	}
}