{
	"src/noti.sol": {
		"PermissionManager": {
			"abi": [
				{
					"inputs": [
						{
							"internalType": "address",
							"name": "_dappOwner",
							"type": "address"
						},
						{
							"internalType": "address",
							"name": "_notiFactory",
							"type": "address"
						}
					],
					"stateMutability": "nonpayable",
					"type": "constructor"
				},
				{
					"inputs": [],
					"name": "dappOwner",
					"outputs": [
						{
							"internalType": "address",
							"name": "",
							"type": "address"
						}
					],
					"stateMutability": "view",
					"type": "function"
				},
				{
					"inputs": [
						{
							"internalType": "address",
							"name": "_user",
							"type": "address"
						}
					],
					"name": "isUserRegistered",
					"outputs": [
						{
							"internalType": "bool",
							"name": "",
							"type": "bool"
						}
					],
					"stateMutability": "view",
					"type": "function"
				},
				{
					"inputs": [],
					"name": "notiFactory",
					"outputs": [
						{
							"internalType": "address",
							"name": "",
							"type": "address"
						}
					],
					"stateMutability": "view",
					"type": "function"
				},
				{
					"inputs": [
						{
							"internalType": "address",
							"name": "_user",
							"type": "address"
						}
					],
					"name": "registerUser",
					"outputs": [],
					"stateMutability": "nonpayable",
					"type": "function"
				},
				{
					"inputs": [],
					"name": "unregisterUser",
					"outputs": [],
					"stateMutability": "nonpayable",
					"type": "function"
				},
				{
					"inputs": [
						{
							"internalType": "address",
							"name": "",
							"type": "address"
						}
					],
					"name": "users",
					"outputs": [
						{
							"internalType": "uint256",
							"name": "",
							"type": "uint256"
						}
					],
					"stateMutability": "view",
					"type": "function"
				}
			],
			"devdoc": {
				"kind": "dev",
				"methods": {
					"isUserRegistered(address)": {
						"params": {
							"_user": "Äá»‹a chá»‰ ngÆ°á»i dÃ¹ng"
						},
						"returns": {
							"_0": "bool True náº¿u user Ä‘Ã£ Ä‘Äƒng kÃ½, False náº¿u chÆ°a"
						}
					},
					"registerUser(address)": {
						"details": "Chá»‰ Dapp hoáº·c chÃ­nh user cÃ³ thá»ƒ Ä‘Äƒng kÃ½",
						"params": {
							"_user": "Äá»‹a chá»‰ cá»§a ngÆ°á»i dÃ¹ng cáº§n Ä‘Äƒng kÃ½"
						}
					},
					"unregisterUser()": {
						"details": "Chá»‰ Dapp hoáº·c chÃ­nh user cÃ³ thá»ƒ há»§y"
					}
				},
				"version": 1
			},
			"evm": {
				"assembly": "    /* \"src/noti.sol\":2360:3866  contract PermissionManager {... */\n  mstore(0x40, 0x80)\n    /* \"src/noti.sol\":2784:2913  constructor(address _dappOwner, address _notiFactory) {... */\n  callvalue\n  dup1\n  iszero\n  tag_1\n  jumpi\n  0x00\n  dup1\n  revert\ntag_1:\n  pop\n  mload(0x40)\n  sub(codesize, bytecodeSize)\n  dup1\n  bytecodeSize\n  dup4\n  codecopy\n  dup2\n  add\n  0x40\n  dup2\n  swap1\n  mstore\n  tag_2\n  swap2\n  tag_3\n  jump\t// in\ntag_2:\n    /* \"src/noti.sol\":2848:2857  dappOwner */\n  0x01\n    /* \"src/noti.sol\":2848:2870  dappOwner = _dappOwner */\n  dup1\n  sload\n  sub(shl(0xa0, 0x01), 0x01)\n  swap4\n  dup5\n  and\n  not(sub(shl(0xa0, 0x01), 0x01))\n  swap2\n  dup3\n  and\n  or\n  swap1\n  swap2\n  sstore\n    /* \"src/noti.sol\":2848:2857  dappOwner */\n  0x00\n    /* \"src/noti.sol\":2880:2906  notiFactory = _notiFactory */\n  dup1\n  sload\n  swap3\n  swap1\n  swap4\n  and\n  swap2\n  and\n  or\n  swap1\n  sstore\n    /* \"src/noti.sol\":2360:3866  contract PermissionManager {... */\n  jump(tag_8)\n    /* \"#utility.yul\":14:191   */\ntag_7:\n    /* \"#utility.yul\":93:106   */\n  dup1\n  mload\n  sub(shl(0xa0, 0x01), 0x01)\n    /* \"#utility.yul\":135:166   */\n  dup2\n  and\n    /* \"#utility.yul\":125:167   */\n  dup2\n  eq\n    /* \"#utility.yul\":115:185   */\n  tag_10\n  jumpi\n    /* \"#utility.yul\":181:182   */\n  0x00\n    /* \"#utility.yul\":178:179   */\n  dup1\n    /* \"#utility.yul\":171:183   */\n  revert\n    /* \"#utility.yul\":115:185   */\ntag_10:\n    /* \"#utility.yul\":14:191   */\n  swap2\n  swap1\n  pop\n  jump\t// out\n    /* \"#utility.yul\":196:489   */\ntag_3:\n    /* \"#utility.yul\":275:281   */\n  0x00\n    /* \"#utility.yul\":283:289   */\n  dup1\n    /* \"#utility.yul\":336:338   */\n  0x40\n    /* \"#utility.yul\":324:333   */\n  dup4\n    /* \"#utility.yul\":315:322   */\n  dup6\n    /* \"#utility.yul\":311:334   */\n  sub\n    /* \"#utility.yul\":307:339   */\n  slt\n    /* \"#utility.yul\":304:356   */\n  iszero\n  tag_12\n  jumpi\n    /* \"#utility.yul\":352:353   */\n  0x00\n    /* \"#utility.yul\":349:350   */\n  dup1\n    /* \"#utility.yul\":342:354   */\n  revert\n    /* \"#utility.yul\":304:356   */\ntag_12:\n    /* \"#utility.yul\":375:415   */\n  tag_13\n    /* \"#utility.yul\":405:414   */\n  dup4\n    /* \"#utility.yul\":375:415   */\n  tag_7\n  jump\t// in\ntag_13:\n    /* \"#utility.yul\":365:415   */\n  swap2\n  pop\n    /* \"#utility.yul\":434:483   */\n  tag_14\n    /* \"#utility.yul\":479:481   */\n  0x20\n    /* \"#utility.yul\":468:477   */\n  dup5\n    /* \"#utility.yul\":464:482   */\n  add\n    /* \"#utility.yul\":434:483   */\n  tag_7\n  jump\t// in\ntag_14:\n    /* \"#utility.yul\":424:483   */\n  swap1\n  pop\n    /* \"#utility.yul\":196:489   */\n  swap3\n  pop\n  swap3\n  swap1\n  pop\n  jump\t// out\ntag_8:\n    /* \"src/noti.sol\":2360:3866  contract PermissionManager {... */\n  dataSize(sub_0)\n  dup1\n  dataOffset(sub_0)\n  0x00\n  codecopy\n  0x00\n  return\nstop\n\nsub_0: assembly {\n        /* \"src/noti.sol\":2360:3866  contract PermissionManager {... */\n      mstore(0x40, 0x80)\n      callvalue\n      dup1\n      iszero\n      tag_1\n      jumpi\n      0x00\n      dup1\n      revert\n    tag_1:\n      pop\n      jumpi(tag_2, lt(calldatasize, 0x04))\n      shr(0xe0, calldataload(0x00))\n      dup1\n      0x12c670f9\n      eq\n      tag_3\n      jumpi\n      dup1\n      0x163f7522\n      eq\n      tag_4\n      jumpi\n      dup1\n      0x1bb71db2\n      eq\n      tag_5\n      jumpi\n      dup1\n      0x2199d5cd\n      eq\n      tag_6\n      jumpi\n      dup1\n      0x9ac7c29c\n      eq\n      tag_7\n      jumpi\n      dup1\n      0xa87430ba\n      eq\n      tag_8\n      jumpi\n    tag_2:\n      0x00\n      dup1\n      revert\n        /* \"src/noti.sol\":2393:2419  address public notiFactory */\n    tag_3:\n      sload(0x00)\n      tag_9\n      swap1\n      sub(shl(0xa0, 0x01), 0x01)\n      and\n      dup2\n      jump\n    tag_9:\n      mload(0x40)\n      sub(shl(0xa0, 0x01), 0x01)\n        /* \"#utility.yul\":178:210   */\n      swap1\n      swap2\n      and\n        /* \"#utility.yul\":160:211   */\n      dup2\n      mstore\n        /* \"#utility.yul\":148:150   */\n      0x20\n        /* \"#utility.yul\":133:151   */\n      add\n        /* \"src/noti.sol\":2393:2419  address public notiFactory */\n    tag_11:\n      mload(0x40)\n      dup1\n      swap2\n      sub\n      swap1\n      return\n        /* \"src/noti.sol\":3740:3864  function isUserRegistered(address _user) external view onlyDappOwner returns (bool) {... */\n    tag_4:\n      tag_13\n      tag_14\n      calldatasize\n      0x04\n      tag_15\n      jump\t// in\n    tag_14:\n      tag_16\n      jump\t// in\n    tag_13:\n      mload(0x40)\n        /* \"#utility.yul\":678:692   */\n      swap1\n      iszero\n        /* \"#utility.yul\":671:693   */\n      iszero\n        /* \"#utility.yul\":653:694   */\n      dup2\n      mstore\n        /* \"#utility.yul\":641:643   */\n      0x20\n        /* \"#utility.yul\":626:644   */\n      add\n        /* \"src/noti.sol\":3740:3864  function isUserRegistered(address _user) external view onlyDappOwner returns (bool) {... */\n      tag_11\n        /* \"#utility.yul\":513:700   */\n      jump\n        /* \"src/noti.sol\":3407:3536  function unregisterUser() external {... */\n    tag_5:\n      tag_19\n      tag_20\n      jump\t// in\n    tag_19:\n      stop\n        /* \"src/noti.sol\":3151:3260  function registerUser(address _user) external onlyNotiFactory {... */\n    tag_6:\n      tag_19\n      tag_22\n      calldatasize\n      0x04\n      tag_15\n      jump\t// in\n    tag_22:\n      tag_23\n      jump\t// in\n        /* \"src/noti.sol\":2425:2449  address public dappOwner */\n    tag_7:\n      sload(0x01)\n      tag_9\n      swap1\n      sub(shl(0xa0, 0x01), 0x01)\n      and\n      dup2\n      jump\n        /* \"src/noti.sol\":2455:2495  mapping(address => uint256) public users */\n    tag_8:\n      tag_27\n      tag_28\n      calldatasize\n      0x04\n      tag_15\n      jump\t// in\n    tag_28:\n      mstore(0x20, 0x02)\n      0x00\n      swap1\n      dup2\n      mstore\n      0x40\n      swap1\n      keccak256\n      sload\n      dup2\n      jump\n    tag_27:\n      mload(0x40)\n        /* \"#utility.yul\":851:876   */\n      swap1\n      dup2\n      mstore\n        /* \"#utility.yul\":839:841   */\n      0x20\n        /* \"#utility.yul\":824:842   */\n      add\n        /* \"src/noti.sol\":2455:2495  mapping(address => uint256) public users */\n      tag_11\n        /* \"#utility.yul\":705:882   */\n      jump\n        /* \"src/noti.sol\":3740:3864  function isUserRegistered(address _user) external view onlyDappOwner returns (bool) {... */\n    tag_16:\n        /* \"src/noti.sol\":2598:2607  dappOwner */\n      sload(0x01)\n        /* \"src/noti.sol\":3818:3822  bool */\n      0x00\n      swap1\n      sub(shl(0xa0, 0x01), 0x01)\n        /* \"src/noti.sol\":2598:2607  dappOwner */\n      and\n        /* \"src/noti.sol\":2584:2594  msg.sender */\n      caller\n        /* \"src/noti.sol\":2584:2607  msg.sender == dappOwner */\n      eq\n        /* \"src/noti.sol\":2576:2626  require(msg.sender == dappOwner, \"Not authorized\") */\n      tag_33\n      jumpi\n      mload(0x40)\n      shl(0xe5, 0x461bcd)\n      dup2\n      mstore\n        /* \"#utility.yul\":1089:1091   */\n      0x20\n        /* \"src/noti.sol\":2576:2626  require(msg.sender == dappOwner, \"Not authorized\") */\n      0x04\n      dup3\n      add\n        /* \"#utility.yul\":1071:1092   */\n      mstore\n        /* \"#utility.yul\":1128:1130   */\n      0x0e\n        /* \"#utility.yul\":1108:1126   */\n      0x24\n      dup3\n      add\n        /* \"#utility.yul\":1101:1131   */\n      mstore\n      shl(0x92, 0x139bdd08185d5d1a1bdc9a5e9959)\n        /* \"#utility.yul\":1147:1165   */\n      0x44\n      dup3\n      add\n        /* \"#utility.yul\":1140:1184   */\n      mstore\n        /* \"#utility.yul\":1201:1219   */\n      0x64\n      add\n        /* \"src/noti.sol\":2576:2626  require(msg.sender == dappOwner, \"Not authorized\") */\n    tag_34:\n      mload(0x40)\n      dup1\n      swap2\n      sub\n      swap1\n      revert\n    tag_33:\n      pop\n      sub(shl(0xa0, 0x01), 0x01)\n        /* \"src/noti.sol\":3841:3853  users[_user] */\n      and\n        /* \"src/noti.sol\":3856:3857  0 */\n      0x00\n        /* \"src/noti.sol\":3841:3853  users[_user] */\n      swap1\n      dup2\n      mstore\n        /* \"src/noti.sol\":3841:3846  users */\n      0x02\n        /* \"src/noti.sol\":3841:3853  users[_user] */\n      0x20\n      mstore\n      0x40\n      swap1\n      keccak256\n      sload\n        /* \"src/noti.sol\":3841:3857  users[_user] > 0 */\n      iszero\n      iszero\n      swap1\n        /* \"src/noti.sol\":3740:3864  function isUserRegistered(address _user) external view onlyDappOwner returns (bool) {... */\n      jump\t// out\n        /* \"src/noti.sol\":3407:3536  function unregisterUser() external {... */\n    tag_20:\n        /* \"src/noti.sol\":3466:3476  msg.sender */\n      caller\n        /* \"src/noti.sol\":3480:3481  0 */\n      0x00\n        /* \"src/noti.sol\":3460:3477  users[msg.sender] */\n      swap1\n      dup2\n      mstore\n        /* \"src/noti.sol\":3460:3465  users */\n      0x02\n        /* \"src/noti.sol\":3460:3477  users[msg.sender] */\n      0x20\n      mstore\n      0x40\n      swap1\n      keccak256\n      sload\n        /* \"src/noti.sol\":3452:3498  require(users[msg.sender] > 0, \"Unauthorized\") */\n      tag_38\n      jumpi\n      mload(0x40)\n      shl(0xe5, 0x461bcd)\n      dup2\n      mstore\n        /* \"#utility.yul\":1432:1434   */\n      0x20\n        /* \"src/noti.sol\":3452:3498  require(users[msg.sender] > 0, \"Unauthorized\") */\n      0x04\n      dup3\n      add\n        /* \"#utility.yul\":1414:1435   */\n      mstore\n        /* \"#utility.yul\":1471:1473   */\n      0x0c\n        /* \"#utility.yul\":1451:1469   */\n      0x24\n      dup3\n      add\n        /* \"#utility.yul\":1444:1474   */\n      mstore\n      shl(0xa2, 0x155b985d5d1a1bdc9a5e9959)\n        /* \"#utility.yul\":1490:1508   */\n      0x44\n      dup3\n      add\n        /* \"#utility.yul\":1483:1525   */\n      mstore\n        /* \"#utility.yul\":1542:1560   */\n      0x64\n      add\n        /* \"src/noti.sol\":3452:3498  require(users[msg.sender] > 0, \"Unauthorized\") */\n      tag_34\n        /* \"#utility.yul\":1230:1566   */\n      jump\n        /* \"src/noti.sol\":3452:3498  require(users[msg.sender] > 0, \"Unauthorized\") */\n    tag_38:\n        /* \"src/noti.sol\":3514:3524  msg.sender */\n      caller\n        /* \"src/noti.sol\":3528:3529  0 */\n      0x00\n        /* \"src/noti.sol\":3508:3525  users[msg.sender] */\n      swap1\n      dup2\n      mstore\n        /* \"src/noti.sol\":3508:3513  users */\n      0x02\n        /* \"src/noti.sol\":3508:3525  users[msg.sender] */\n      0x20\n      mstore\n      0x40\n      dup2\n      keccak256\n        /* \"src/noti.sol\":3508:3529  users[msg.sender] = 0 */\n      sstore\n        /* \"src/noti.sol\":3407:3536  function unregisterUser() external {... */\n      jump\t// out\n        /* \"src/noti.sol\":3151:3260  function registerUser(address _user) external onlyNotiFactory {... */\n    tag_23:\n        /* \"src/noti.sol\":2709:2720  notiFactory */\n      and(sub(shl(0xa0, 0x01), 0x01), sload(0x00))\n        /* \"src/noti.sol\":2695:2705  msg.sender */\n      caller\n        /* \"src/noti.sol\":2695:2720  msg.sender == notiFactory */\n      eq\n        /* \"src/noti.sol\":2687:2760  require(msg.sender == notiFactory, \"Only NotiFactory can register users\") */\n      tag_42\n      jumpi\n      mload(0x40)\n      shl(0xe5, 0x461bcd)\n      dup2\n      mstore\n        /* \"#utility.yul\":1773:1775   */\n      0x20\n        /* \"src/noti.sol\":2687:2760  require(msg.sender == notiFactory, \"Only NotiFactory can register users\") */\n      0x04\n      dup3\n      add\n        /* \"#utility.yul\":1755:1776   */\n      mstore\n        /* \"#utility.yul\":1812:1814   */\n      0x23\n        /* \"#utility.yul\":1792:1810   */\n      0x24\n      dup3\n      add\n        /* \"#utility.yul\":1785:1815   */\n      mstore\n        /* \"#utility.yul\":1851:1885   */\n      0x4f6e6c79204e6f7469466163746f72792063616e207265676973746572207573\n        /* \"#utility.yul\":1831:1849   */\n      0x44\n      dup3\n      add\n        /* \"#utility.yul\":1824:1886   */\n      mstore\n      shl(0xe8, 0x657273)\n        /* \"#utility.yul\":1902:1920   */\n      0x64\n      dup3\n      add\n        /* \"#utility.yul\":1895:1928   */\n      mstore\n        /* \"#utility.yul\":1945:1964   */\n      0x84\n      add\n        /* \"src/noti.sol\":2687:2760  require(msg.sender == notiFactory, \"Only NotiFactory can register users\") */\n      tag_34\n        /* \"#utility.yul\":1571:1970   */\n      jump\n        /* \"src/noti.sol\":2687:2760  require(msg.sender == notiFactory, \"Only NotiFactory can register users\") */\n    tag_42:\n      sub(shl(0xa0, 0x01), 0x01)\n        /* \"src/noti.sol\":3223:3235  users[_user] */\n      and\n      0x00\n      swap1\n      dup2\n      mstore\n        /* \"src/noti.sol\":3223:3228  users */\n      0x02\n        /* \"src/noti.sol\":3223:3235  users[_user] */\n      0x20\n      mstore\n      0x40\n      swap1\n      keccak256\n        /* \"src/noti.sol\":3238:3253  block.timestamp */\n      timestamp\n        /* \"src/noti.sol\":3223:3253  users[_user] = block.timestamp */\n      swap1\n      sstore\n        /* \"src/noti.sol\":3151:3260  function registerUser(address _user) external onlyNotiFactory {... */\n      jump\t// out\n        /* \"#utility.yul\":222:508   */\n    tag_15:\n        /* \"#utility.yul\":281:287   */\n      0x00\n        /* \"#utility.yul\":334:336   */\n      0x20\n        /* \"#utility.yul\":322:331   */\n      dup3\n        /* \"#utility.yul\":313:320   */\n      dup5\n        /* \"#utility.yul\":309:332   */\n      sub\n        /* \"#utility.yul\":305:337   */\n      slt\n        /* \"#utility.yul\":302:354   */\n      iszero\n      tag_49\n      jumpi\n        /* \"#utility.yul\":350:351   */\n      0x00\n        /* \"#utility.yul\":347:348   */\n      dup1\n        /* \"#utility.yul\":340:352   */\n      revert\n        /* \"#utility.yul\":302:354   */\n    tag_49:\n        /* \"#utility.yul\":376:399   */\n      dup2\n      calldataload\n      sub(shl(0xa0, 0x01), 0x01)\n        /* \"#utility.yul\":428:459   */\n      dup2\n      and\n        /* \"#utility.yul\":418:460   */\n      dup2\n      eq\n        /* \"#utility.yul\":408:478   */\n      tag_50\n      jumpi\n        /* \"#utility.yul\":474:475   */\n      0x00\n        /* \"#utility.yul\":471:472   */\n      dup1\n        /* \"#utility.yul\":464:476   */\n      revert\n        /* \"#utility.yul\":408:478   */\n    tag_50:\n        /* \"#utility.yul\":497:502   */\n      swap4\n        /* \"#utility.yul\":222:508   */\n      swap3\n      pop\n      pop\n      pop\n      jump\t// out\n\n    auxdata: 0xa2646970667358221220813e0a5416310ac8a9edc0d3f7a955886d630a6f8eff3b07b6d6663cc9a34de564736f6c634300081a0033\n}\n",
				"bytecode": {
					"linkReferences": {},
					"object": "6080604052348015600e575f80fd5b5060405161036d38038061036d833981016040819052602b916074565b600180546001600160a01b039384166001600160a01b0319918216179091555f805492909316911617905560a0565b80516001600160a01b0381168114606f575f80fd5b919050565b5f80604083850312156084575f80fd5b608b83605a565b9150609760208401605a565b90509250929050565b6102c0806100ad5f395ff3fe608060405234801561000f575f80fd5b5060043610610060575f3560e01c806312c670f914610064578063163f7522146100935780631bb71db2146100b65780632199d5cd146100c05780639ac7c29c146100d3578063a87430ba146100e6575b5f80fd5b5f54610076906001600160a01b031681565b6040516001600160a01b0390911681526020015b60405180910390f35b6100a66100a136600461025d565b610113565b604051901515815260200161008a565b6100be610182565b005b6100be6100ce36600461025d565b6101dd565b600154610076906001600160a01b031681565b6101056100f436600461025d565b60026020525f908152604090205481565b60405190815260200161008a565b6001545f906001600160a01b031633146101655760405162461bcd60e51b815260206004820152600e60248201526d139bdd08185d5d1a1bdc9a5e995960921b60448201526064015b60405180910390fd5b506001600160a01b03165f90815260026020526040902054151590565b335f908152600260205260409020546101cc5760405162461bcd60e51b815260206004820152600c60248201526b155b985d5d1a1bdc9a5e995960a21b604482015260640161015c565b335f90815260026020526040812055565b5f546001600160a01b031633146102425760405162461bcd60e51b815260206004820152602360248201527f4f6e6c79204e6f7469466163746f72792063616e20726567697374657220757360448201526265727360e81b606482015260840161015c565b6001600160a01b03165f908152600260205260409020429055565b5f6020828403121561026d575f80fd5b81356001600160a01b0381168114610283575f80fd5b939250505056fea2646970667358221220813e0a5416310ac8a9edc0d3f7a955886d630a6f8eff3b07b6d6663cc9a34de564736f6c634300081a0033",
					"opcodes": "PUSH1 0x80 PUSH1 0x40 MSTORE CALLVALUE DUP1 ISZERO PUSH1 0xE JUMPI PUSH0 DUP1 REVERT JUMPDEST POP PUSH1 0x40 MLOAD PUSH2 0x36D CODESIZE SUB DUP1 PUSH2 0x36D DUP4 CODECOPY DUP2 ADD PUSH1 0x40 DUP2 SWAP1 MSTORE PUSH1 0x2B SWAP2 PUSH1 0x74 JUMP JUMPDEST PUSH1 0x1 DUP1 SLOAD PUSH1 0x1 PUSH1 0x1 PUSH1 0xA0 SHL SUB SWAP4 DUP5 AND PUSH1 0x1 PUSH1 0x1 PUSH1 0xA0 SHL SUB NOT SWAP2 DUP3 AND OR SWAP1 SWAP2 SSTORE PUSH0 DUP1 SLOAD SWAP3 SWAP1 SWAP4 AND SWAP2 AND OR SWAP1 SSTORE PUSH1 0xA0 JUMP JUMPDEST DUP1 MLOAD PUSH1 0x1 PUSH1 0x1 PUSH1 0xA0 SHL SUB DUP2 AND DUP2 EQ PUSH1 0x6F JUMPI PUSH0 DUP1 REVERT JUMPDEST SWAP2 SWAP1 POP JUMP JUMPDEST PUSH0 DUP1 PUSH1 0x40 DUP4 DUP6 SUB SLT ISZERO PUSH1 0x84 JUMPI PUSH0 DUP1 REVERT JUMPDEST PUSH1 0x8B DUP4 PUSH1 0x5A JUMP JUMPDEST SWAP2 POP PUSH1 0x97 PUSH1 0x20 DUP5 ADD PUSH1 0x5A JUMP JUMPDEST SWAP1 POP SWAP3 POP SWAP3 SWAP1 POP JUMP JUMPDEST PUSH2 0x2C0 DUP1 PUSH2 0xAD PUSH0 CODECOPY PUSH0 RETURN INVALID PUSH1 0x80 PUSH1 0x40 MSTORE CALLVALUE DUP1 ISZERO PUSH2 0xF JUMPI PUSH0 DUP1 REVERT JUMPDEST POP PUSH1 0x4 CALLDATASIZE LT PUSH2 0x60 JUMPI PUSH0 CALLDATALOAD PUSH1 0xE0 SHR DUP1 PUSH4 0x12C670F9 EQ PUSH2 0x64 JUMPI DUP1 PUSH4 0x163F7522 EQ PUSH2 0x93 JUMPI DUP1 PUSH4 0x1BB71DB2 EQ PUSH2 0xB6 JUMPI DUP1 PUSH4 0x2199D5CD EQ PUSH2 0xC0 JUMPI DUP1 PUSH4 0x9AC7C29C EQ PUSH2 0xD3 JUMPI DUP1 PUSH4 0xA87430BA EQ PUSH2 0xE6 JUMPI JUMPDEST PUSH0 DUP1 REVERT JUMPDEST PUSH0 SLOAD PUSH2 0x76 SWAP1 PUSH1 0x1 PUSH1 0x1 PUSH1 0xA0 SHL SUB AND DUP2 JUMP JUMPDEST PUSH1 0x40 MLOAD PUSH1 0x1 PUSH1 0x1 PUSH1 0xA0 SHL SUB SWAP1 SWAP2 AND DUP2 MSTORE PUSH1 0x20 ADD JUMPDEST PUSH1 0x40 MLOAD DUP1 SWAP2 SUB SWAP1 RETURN JUMPDEST PUSH2 0xA6 PUSH2 0xA1 CALLDATASIZE PUSH1 0x4 PUSH2 0x25D JUMP JUMPDEST PUSH2 0x113 JUMP JUMPDEST PUSH1 0x40 MLOAD SWAP1 ISZERO ISZERO DUP2 MSTORE PUSH1 0x20 ADD PUSH2 0x8A JUMP JUMPDEST PUSH2 0xBE PUSH2 0x182 JUMP JUMPDEST STOP JUMPDEST PUSH2 0xBE PUSH2 0xCE CALLDATASIZE PUSH1 0x4 PUSH2 0x25D JUMP JUMPDEST PUSH2 0x1DD JUMP JUMPDEST PUSH1 0x1 SLOAD PUSH2 0x76 SWAP1 PUSH1 0x1 PUSH1 0x1 PUSH1 0xA0 SHL SUB AND DUP2 JUMP JUMPDEST PUSH2 0x105 PUSH2 0xF4 CALLDATASIZE PUSH1 0x4 PUSH2 0x25D JUMP JUMPDEST PUSH1 0x2 PUSH1 0x20 MSTORE PUSH0 SWAP1 DUP2 MSTORE PUSH1 0x40 SWAP1 KECCAK256 SLOAD DUP2 JUMP JUMPDEST PUSH1 0x40 MLOAD SWAP1 DUP2 MSTORE PUSH1 0x20 ADD PUSH2 0x8A JUMP JUMPDEST PUSH1 0x1 SLOAD PUSH0 SWAP1 PUSH1 0x1 PUSH1 0x1 PUSH1 0xA0 SHL SUB AND CALLER EQ PUSH2 0x165 JUMPI PUSH1 0x40 MLOAD PUSH3 0x461BCD PUSH1 0xE5 SHL DUP2 MSTORE PUSH1 0x20 PUSH1 0x4 DUP3 ADD MSTORE PUSH1 0xE PUSH1 0x24 DUP3 ADD MSTORE PUSH14 0x139BDD08185D5D1A1BDC9A5E9959 PUSH1 0x92 SHL PUSH1 0x44 DUP3 ADD MSTORE PUSH1 0x64 ADD JUMPDEST PUSH1 0x40 MLOAD DUP1 SWAP2 SUB SWAP1 REVERT JUMPDEST POP PUSH1 0x1 PUSH1 0x1 PUSH1 0xA0 SHL SUB AND PUSH0 SWAP1 DUP2 MSTORE PUSH1 0x2 PUSH1 0x20 MSTORE PUSH1 0x40 SWAP1 KECCAK256 SLOAD ISZERO ISZERO SWAP1 JUMP JUMPDEST CALLER PUSH0 SWAP1 DUP2 MSTORE PUSH1 0x2 PUSH1 0x20 MSTORE PUSH1 0x40 SWAP1 KECCAK256 SLOAD PUSH2 0x1CC JUMPI PUSH1 0x40 MLOAD PUSH3 0x461BCD PUSH1 0xE5 SHL DUP2 MSTORE PUSH1 0x20 PUSH1 0x4 DUP3 ADD MSTORE PUSH1 0xC PUSH1 0x24 DUP3 ADD MSTORE PUSH12 0x155B985D5D1A1BDC9A5E9959 PUSH1 0xA2 SHL PUSH1 0x44 DUP3 ADD MSTORE PUSH1 0x64 ADD PUSH2 0x15C JUMP JUMPDEST CALLER PUSH0 SWAP1 DUP2 MSTORE PUSH1 0x2 PUSH1 0x20 MSTORE PUSH1 0x40 DUP2 KECCAK256 SSTORE JUMP JUMPDEST PUSH0 SLOAD PUSH1 0x1 PUSH1 0x1 PUSH1 0xA0 SHL SUB AND CALLER EQ PUSH2 0x242 JUMPI PUSH1 0x40 MLOAD PUSH3 0x461BCD PUSH1 0xE5 SHL DUP2 MSTORE PUSH1 0x20 PUSH1 0x4 DUP3 ADD MSTORE PUSH1 0x23 PUSH1 0x24 DUP3 ADD MSTORE PUSH32 0x4F6E6C79204E6F7469466163746F72792063616E207265676973746572207573 PUSH1 0x44 DUP3 ADD MSTORE PUSH3 0x657273 PUSH1 0xE8 SHL PUSH1 0x64 DUP3 ADD MSTORE PUSH1 0x84 ADD PUSH2 0x15C JUMP JUMPDEST PUSH1 0x1 PUSH1 0x1 PUSH1 0xA0 SHL SUB AND PUSH0 SWAP1 DUP2 MSTORE PUSH1 0x2 PUSH1 0x20 MSTORE PUSH1 0x40 SWAP1 KECCAK256 TIMESTAMP SWAP1 SSTORE JUMP JUMPDEST PUSH0 PUSH1 0x20 DUP3 DUP5 SUB SLT ISZERO PUSH2 0x26D JUMPI PUSH0 DUP1 REVERT JUMPDEST DUP2 CALLDATALOAD PUSH1 0x1 PUSH1 0x1 PUSH1 0xA0 SHL SUB DUP2 AND DUP2 EQ PUSH2 0x283 JUMPI PUSH0 DUP1 REVERT JUMPDEST SWAP4 SWAP3 POP POP POP JUMP INVALID LOG2 PUSH5 0x6970667358 0x22 SLT KECCAK256 DUP2 RETURNDATACOPY EXP SLOAD AND BALANCE EXP 0xC8 0xA9 0xED 0xC0 0xD3 0xF7 0xA9 SSTORE DUP9 PUSH14 0x630A6F8EFF3B07B6D6663CC9A34D 0xE5 PUSH5 0x736F6C6343 STOP ADDMOD BYTE STOP CALLER "
				},
				"gasEstimates": {
					"creation": {
						"codeDepositCost": "140800",
						"executionCost": "infinite",
						"totalCost": "infinite"
					},
					"external": {
						"dappOwner()": "2391",
						"isUserRegistered(address)": "4670",
						"notiFactory()": "2302",
						"registerUser(address)": "24639",
						"unregisterUser()": "7419",
						"users(address)": "2569"
					}
				},
				"methodIdentifiers": {
					"dappOwner()": "9ac7c29c",
					"isUserRegistered(address)": "163f7522",
					"notiFactory()": "12c670f9",
					"registerUser(address)": "2199d5cd",
					"unregisterUser()": "1bb71db2",
					"users(address)": "a87430ba"
				}
			},
			"storageLayout": {
				"storage": [
					{
						"astId": 182,
						"contract": "src/noti.sol:PermissionManager",
						"label": "notiFactory",
						"offset": 0,
						"slot": "0",
						"type": "t_address"
					},
					{
						"astId": 184,
						"contract": "src/noti.sol:PermissionManager",
						"label": "dappOwner",
						"offset": 0,
						"slot": "1",
						"type": "t_address"
					},
					{
						"astId": 188,
						"contract": "src/noti.sol:PermissionManager",
						"label": "users",
						"offset": 0,
						"slot": "2",
						"type": "t_mapping(t_address,t_uint256)"
					}
				],
				"types": {
					"t_address": {
						"encoding": "inplace",
						"label": "address",
						"numberOfBytes": "20"
					},
					"t_mapping(t_address,t_uint256)": {
						"encoding": "mapping",
						"key": "t_address",
						"label": "mapping(address => uint256)",
						"numberOfBytes": "32",
						"value": "t_uint256"
					},
					"t_uint256": {
						"encoding": "inplace",
						"label": "uint256",
						"numberOfBytes": "32"
					}
				}
			},
			"userdoc": {
				"kind": "user",
				"methods": {
					"isUserRegistered(address)": {
						"notice": "Kiá»ƒm tra ngÆ°á»i dÃ¹ng cÃ³ Ä‘Äƒng kÃ½ khÃ´ng"
					},
					"registerUser(address)": {
						"notice": "ÄÄƒng kÃ½ ngÆ°á»i dÃ¹ng vÃ o há»‡ thá»‘ng thÃ´ng bÃ¡o cá»§a Dapp"
					},
					"unregisterUser()": {
						"notice": "Há»§y Ä‘Äƒng kÃ½ ngÆ°á»i dÃ¹ng khá»i há»‡ thá»‘ng"
					}
				},
				"version": 1
			}
		}
	}
}