{
	"src/noti.sol": {
		"NotiHub": {
			"abi": [
				{
					"inputs": [],
					"stateMutability": "nonpayable",
					"type": "constructor"
				},
				{
					"inputs": [
						{
							"internalType": "address",
							"name": "owner",
							"type": "address"
						}
					],
					"name": "OwnableInvalidOwner",
					"type": "error"
				},
				{
					"inputs": [
						{
							"internalType": "address",
							"name": "account",
							"type": "address"
						}
					],
					"name": "OwnableUnauthorizedAccount",
					"type": "error"
				},
				{
					"anonymous": false,
					"inputs": [
						{
							"indexed": true,
							"internalType": "address",
							"name": "dappOwner",
							"type": "address"
						},
						{
							"indexed": true,
							"internalType": "address",
							"name": "user",
							"type": "address"
						},
						{
							"indexed": false,
							"internalType": "uint256",
							"name": "eventId",
							"type": "uint256"
						},
						{
							"indexed": false,
							"internalType": "string",
							"name": "message",
							"type": "string"
						}
					],
					"name": "GlobalNotification",
					"type": "event"
				},
				{
					"anonymous": false,
					"inputs": [
						{
							"indexed": true,
							"internalType": "address",
							"name": "previousOwner",
							"type": "address"
						},
						{
							"indexed": true,
							"internalType": "address",
							"name": "newOwner",
							"type": "address"
						}
					],
					"name": "OwnershipTransferred",
					"type": "event"
				},
				{
					"inputs": [
						{
							"internalType": "address",
							"name": "",
							"type": "address"
						}
					],
					"name": "allowedNotiStorages",
					"outputs": [
						{
							"internalType": "bool",
							"name": "",
							"type": "bool"
						}
					],
					"stateMutability": "view",
					"type": "function"
				},
				{
					"inputs": [
						{
							"internalType": "address",
							"name": "dappOwner",
							"type": "address"
						},
						{
							"internalType": "address",
							"name": "user",
							"type": "address"
						},
						{
							"internalType": "uint256",
							"name": "eventId",
							"type": "uint256"
						},
						{
							"internalType": "string",
							"name": "message",
							"type": "string"
						}
					],
					"name": "emitNotification",
					"outputs": [],
					"stateMutability": "nonpayable",
					"type": "function"
				},
				{
					"inputs": [],
					"name": "notiFactory",
					"outputs": [
						{
							"internalType": "address",
							"name": "",
							"type": "address"
						}
					],
					"stateMutability": "view",
					"type": "function"
				},
				{
					"inputs": [],
					"name": "owner",
					"outputs": [
						{
							"internalType": "address",
							"name": "",
							"type": "address"
						}
					],
					"stateMutability": "view",
					"type": "function"
				},
				{
					"inputs": [
						{
							"internalType": "address",
							"name": "notiStorage",
							"type": "address"
						}
					],
					"name": "registerNotiStorage",
					"outputs": [],
					"stateMutability": "nonpayable",
					"type": "function"
				},
				{
					"inputs": [],
					"name": "renounceOwnership",
					"outputs": [],
					"stateMutability": "nonpayable",
					"type": "function"
				},
				{
					"inputs": [
						{
							"internalType": "address",
							"name": "_notiFactory",
							"type": "address"
						}
					],
					"name": "setNotiFactory",
					"outputs": [],
					"stateMutability": "nonpayable",
					"type": "function"
				},
				{
					"inputs": [
						{
							"internalType": "address",
							"name": "newOwner",
							"type": "address"
						}
					],
					"name": "transferOwnership",
					"outputs": [],
					"stateMutability": "nonpayable",
					"type": "function"
				}
			],
			"devdoc": {
				"details": "Chá»‰ nháº­n thÃ´ng bÃ¡o tá»« cÃ¡c NotiStorage há»£p lá»‡ do NotiFactory Ä‘Äƒng kÃ½.",
				"errors": {
					"OwnableInvalidOwner(address)": [
						{
							"details": "The owner is not a valid owner account. (eg. `address(0)`)"
						}
					],
					"OwnableUnauthorizedAccount(address)": [
						{
							"details": "The caller account is not authorized to perform an operation."
						}
					]
				},
				"kind": "dev",
				"methods": {
					"emitNotification(address,address,uint256,string)": {
						"details": "Chá»‰ cháº¥p nháº­n tá»« cÃ¡c NotiStorage há»£p lá»‡"
					},
					"owner()": {
						"details": "Returns the address of the current owner."
					},
					"registerNotiStorage(address)": {
						"params": {
							"notiStorage": "Äá»‹a chá»‰ NotiStorage cáº§n cáº¥p quyá»n"
						}
					},
					"renounceOwnership()": {
						"details": "Leaves the contract without owner. It will not be possible to call `onlyOwner` functions. Can only be called by the current owner. NOTE: Renouncing ownership will leave the contract without an owner, thereby disabling any functionality that is only available to the owner."
					},
					"transferOwnership(address)": {
						"details": "Transfers ownership of the contract to a new account (`newOwner`). Can only be called by the current owner."
					}
				},
				"title": "NotiHub",
				"version": 1
			},
			"evm": {
				"assembly": "    /* \"src/noti.sol\":4062:5596  contract NotiHub is Ownable{... */\n  mstore(0x40, 0x80)\n    /* \"src/noti.sol\":4751:4785  constructor()Ownable(msg.sender){} */\n  callvalue\n  dup1\n  iszero\n  tag_1\n  jumpi\n  0x00\n  dup1\n  revert\ntag_1:\n  pop\n    /* \"src/noti.sol\":4772:4782  msg.sender */\n  caller\n  dup1\n    /* \"@openzeppelin/contracts/access/Ownable.sol\":1269:1364  if (initialOwner == address(0)) {... */\n  tag_5\n  jumpi\n    /* \"@openzeppelin/contracts/access/Ownable.sol\":1322:1353  OwnableInvalidOwner(address(0)) */\n  mload(0x40)\n  shl(0xe0, 0x1e4fbdf7)\n  dup2\n  mstore\n    /* \"@openzeppelin/contracts/access/Ownable.sol\":1350:1351  0 */\n  0x00\n    /* \"@openzeppelin/contracts/access/Ownable.sol\":1322:1353  OwnableInvalidOwner(address(0)) */\n  0x04\n  dup3\n  add\n    /* \"#utility.yul\":160:211   */\n  mstore\n    /* \"#utility.yul\":133:151   */\n  0x24\n  add\n    /* \"@openzeppelin/contracts/access/Ownable.sol\":1322:1353  OwnableInvalidOwner(address(0)) */\n  mload(0x40)\n  dup1\n  swap2\n  sub\n  swap1\n  revert\n    /* \"@openzeppelin/contracts/access/Ownable.sol\":1269:1364  if (initialOwner == address(0)) {... */\ntag_5:\n    /* \"@openzeppelin/contracts/access/Ownable.sol\":1373:1405  _transferOwnership(initialOwner) */\n  tag_8\n    /* \"@openzeppelin/contracts/access/Ownable.sol\":1392:1404  initialOwner */\n  dup2\n    /* \"@openzeppelin/contracts/access/Ownable.sol\":1373:1391  _transferOwnership */\n  tag_9\n    /* \"@openzeppelin/contracts/access/Ownable.sol\":1373:1405  _transferOwnership(initialOwner) */\n  jump\t// in\ntag_8:\n    /* \"@openzeppelin/contracts/access/Ownable.sol\":1225:1412  constructor(address initialOwner) {... */\n  pop\n    /* \"src/noti.sol\":4062:5596  contract NotiHub is Ownable{... */\n  jump(tag_13)\n    /* \"@openzeppelin/contracts/access/Ownable.sol\":2912:3099  function _transferOwnership(address newOwner) internal virtual {... */\ntag_9:\n    /* \"@openzeppelin/contracts/access/Ownable.sol\":2985:3001  address oldOwner */\n  0x00\n    /* \"@openzeppelin/contracts/access/Ownable.sol\":3004:3010  _owner */\n  dup1\n  sload\n  sub(shl(0xa0, 0x01), 0x01)\n    /* \"@openzeppelin/contracts/access/Ownable.sol\":3020:3037  _owner = newOwner */\n  dup4\n  dup2\n  and\n  not(sub(shl(0xa0, 0x01), 0x01))\n  dup4\n  and\n  dup2\n  or\n  dup5\n  sstore\n    /* \"@openzeppelin/contracts/access/Ownable.sol\":3052:3092  OwnershipTransferred(oldOwner, newOwner) */\n  mload(0x40)\n    /* \"@openzeppelin/contracts/access/Ownable.sol\":3004:3010  _owner */\n  swap2\n  swap1\n  swap3\n  and\n  swap3\n  dup4\n  swap2\n    /* \"@openzeppelin/contracts/access/Ownable.sol\":3052:3092  OwnershipTransferred(oldOwner, newOwner) */\n  0x8be0079c531659141344cd1fd0a4f28419497f9722a3daafe3b4186f6b6457e0\n  swap2\n    /* \"@openzeppelin/contracts/access/Ownable.sol\":2985:3001  address oldOwner */\n  swap1\n    /* \"@openzeppelin/contracts/access/Ownable.sol\":3052:3092  OwnershipTransferred(oldOwner, newOwner) */\n  log3\n    /* \"@openzeppelin/contracts/access/Ownable.sol\":2975:3099  {... */\n  pop\n    /* \"@openzeppelin/contracts/access/Ownable.sol\":2912:3099  function _transferOwnership(address newOwner) internal virtual {... */\n  pop\n  jump\t// out\n    /* \"#utility.yul\":14:217   */\ntag_13:\n    /* \"src/noti.sol\":4062:5596  contract NotiHub is Ownable{... */\n  dataSize(sub_0)\n  dup1\n  dataOffset(sub_0)\n  0x00\n  codecopy\n  0x00\n  return\nstop\n\nsub_0: assembly {\n        /* \"src/noti.sol\":4062:5596  contract NotiHub is Ownable{... */\n      mstore(0x40, 0x80)\n      callvalue\n      dup1\n      iszero\n      tag_1\n      jumpi\n      0x00\n      dup1\n      revert\n    tag_1:\n      pop\n      jumpi(tag_2, lt(calldatasize, 0x04))\n      shr(0xe0, calldataload(0x00))\n      dup1\n      0x8da5cb5b\n      gt\n      tag_11\n      jumpi\n      dup1\n      0x8da5cb5b\n      eq\n      tag_7\n      jumpi\n      dup1\n      0x96e8ca4e\n      eq\n      tag_8\n      jumpi\n      dup1\n      0x9bee69c8\n      eq\n      tag_9\n      jumpi\n      dup1\n      0xf2fde38b\n      eq\n      tag_10\n      jumpi\n      0x00\n      dup1\n      revert\n    tag_11:\n      dup1\n      0x12c670f9\n      eq\n      tag_3\n      jumpi\n      dup1\n      0x715018a6\n      eq\n      tag_4\n      jumpi\n      dup1\n      0x76fb99e6\n      eq\n      tag_5\n      jumpi\n      dup1\n      0x7ace4071\n      eq\n      tag_6\n      jumpi\n    tag_2:\n      0x00\n      dup1\n      revert\n        /* \"src/noti.sol\":4194:4220  address public notiFactory */\n    tag_3:\n      sload(0x02)\n      tag_12\n      swap1\n      sub(shl(0xa0, 0x01), 0x01)\n      and\n      dup2\n      jump\n    tag_12:\n      mload(0x40)\n      sub(shl(0xa0, 0x01), 0x01)\n        /* \"#utility.yul\":178:210   */\n      swap1\n      swap2\n      and\n        /* \"#utility.yul\":160:211   */\n      dup2\n      mstore\n        /* \"#utility.yul\":148:150   */\n      0x20\n        /* \"#utility.yul\":133:151   */\n      add\n        /* \"src/noti.sol\":4194:4220  address public notiFactory */\n    tag_14:\n      mload(0x40)\n      dup1\n      swap2\n      sub\n      swap1\n      return\n        /* \"@openzeppelin/contracts/access/Ownable.sol\":2293:2394  function renounceOwnership() public virtual onlyOwner {... */\n    tag_4:\n      tag_16\n      tag_17\n      jump\t// in\n    tag_16:\n      stop\n        /* \"src/noti.sol\":5071:5202  function registerNotiStorage(address notiStorage) external onlyNotiFactory {... */\n    tag_5:\n      tag_16\n      tag_19\n      calldatasize\n      0x04\n      tag_20\n      jump\t// in\n    tag_19:\n      tag_21\n      jump\t// in\n        /* \"src/noti.sol\":4095:4146  mapping(address => bool) public allowedNotiStorages */\n    tag_6:\n      tag_22\n      tag_23\n      calldatasize\n      0x04\n      tag_20\n      jump\t// in\n    tag_23:\n      mstore(0x20, 0x01)\n      0x00\n      swap1\n      dup2\n      mstore\n      0x40\n      swap1\n      keccak256\n      sload\n      0xff\n      and\n      dup2\n      jump\n    tag_22:\n      mload(0x40)\n        /* \"#utility.yul\":756:770   */\n      swap1\n      iszero\n        /* \"#utility.yul\":749:771   */\n      iszero\n        /* \"#utility.yul\":731:772   */\n      dup2\n      mstore\n        /* \"#utility.yul\":719:721   */\n      0x20\n        /* \"#utility.yul\":704:722   */\n      add\n        /* \"src/noti.sol\":4095:4146  mapping(address => bool) public allowedNotiStorages */\n      tag_14\n        /* \"#utility.yul\":591:778   */\n      jump\n        /* \"@openzeppelin/contracts/access/Ownable.sol\":1638:1723  function owner() public view virtual returns (address) {... */\n    tag_7:\n        /* \"@openzeppelin/contracts/access/Ownable.sol\":1684:1691  address */\n      0x00\n        /* \"@openzeppelin/contracts/access/Ownable.sol\":1710:1716  _owner */\n      sload\n      sub(shl(0xa0, 0x01), 0x01)\n      and\n        /* \"@openzeppelin/contracts/access/Ownable.sol\":1638:1723  function owner() public view virtual returns (address) {... */\n      jump(tag_12)\n        /* \"src/noti.sol\":4791:4898  function setNotiFactory(address _notiFactory)external onlyOwner{... */\n    tag_8:\n      tag_16\n      tag_31\n      calldatasize\n      0x04\n      tag_20\n      jump\t// in\n    tag_31:\n      tag_32\n      jump\t// in\n        /* \"src/noti.sol\":5348:5594  function emitNotification(... */\n    tag_9:\n      tag_16\n      tag_34\n      calldatasize\n      0x04\n      tag_35\n      jump\t// in\n    tag_34:\n      tag_36\n      jump\t// in\n        /* \"@openzeppelin/contracts/access/Ownable.sol\":2543:2758  function transferOwnership(address newOwner) public virtual onlyOwner {... */\n    tag_10:\n      tag_16\n      tag_38\n      calldatasize\n      0x04\n      tag_20\n      jump\t// in\n    tag_38:\n      tag_39\n      jump\t// in\n        /* \"@openzeppelin/contracts/access/Ownable.sol\":2293:2394  function renounceOwnership() public virtual onlyOwner {... */\n    tag_17:\n        /* \"@openzeppelin/contracts/access/Ownable.sol\":1531:1544  _checkOwner() */\n      tag_41\n        /* \"@openzeppelin/contracts/access/Ownable.sol\":1531:1542  _checkOwner */\n      tag_42\n        /* \"@openzeppelin/contracts/access/Ownable.sol\":1531:1544  _checkOwner() */\n      jump\t// in\n    tag_41:\n        /* \"@openzeppelin/contracts/access/Ownable.sol\":2357:2387  _transferOwnership(address(0)) */\n      tag_44\n        /* \"@openzeppelin/contracts/access/Ownable.sol\":2384:2385  0 */\n      0x00\n        /* \"@openzeppelin/contracts/access/Ownable.sol\":2357:2375  _transferOwnership */\n      tag_45\n        /* \"@openzeppelin/contracts/access/Ownable.sol\":2357:2387  _transferOwnership(address(0)) */\n      jump\t// in\n    tag_44:\n        /* \"@openzeppelin/contracts/access/Ownable.sol\":2293:2394  function renounceOwnership() public virtual onlyOwner {... */\n      jump\t// out\n        /* \"src/noti.sol\":5071:5202  function registerNotiStorage(address notiStorage) external onlyNotiFactory {... */\n    tag_21:\n        /* \"src/noti.sol\":4591:4602  notiFactory */\n      and(sub(shl(0xa0, 0x01), 0x01), sload(0x02))\n        /* \"src/noti.sol\":4577:4587  msg.sender */\n      caller\n        /* \"src/noti.sol\":4577:4602  msg.sender == notiFactory */\n      eq\n        /* \"src/noti.sol\":4569:4636  require(msg.sender == notiFactory, \"Only NotiFactory can register\") */\n      tag_47\n      jumpi\n      mload(0x40)\n      shl(0xe5, 0x461bcd)\n      dup2\n      mstore\n        /* \"#utility.yul\":1794:1796   */\n      0x20\n        /* \"src/noti.sol\":4569:4636  require(msg.sender == notiFactory, \"Only NotiFactory can register\") */\n      0x04\n      dup3\n      add\n        /* \"#utility.yul\":1776:1797   */\n      mstore\n        /* \"#utility.yul\":1833:1835   */\n      0x1d\n        /* \"#utility.yul\":1813:1831   */\n      0x24\n      dup3\n      add\n        /* \"#utility.yul\":1806:1836   */\n      mstore\n        /* \"#utility.yul\":1872:1903   */\n      0x4f6e6c79204e6f7469466163746f72792063616e207265676973746572000000\n        /* \"#utility.yul\":1852:1870   */\n      0x44\n      dup3\n      add\n        /* \"#utility.yul\":1845:1904   */\n      mstore\n        /* \"#utility.yul\":1921:1939   */\n      0x64\n      add\n        /* \"src/noti.sol\":4569:4636  require(msg.sender == notiFactory, \"Only NotiFactory can register\") */\n    tag_48:\n      mload(0x40)\n      dup1\n      swap2\n      sub\n      swap1\n      revert\n    tag_47:\n      sub(shl(0xa0, 0x01), 0x01)\n        /* \"src/noti.sol\":5156:5188  allowedNotiStorages[notiStorage] */\n      and\n      0x00\n      swap1\n      dup2\n      mstore\n        /* \"src/noti.sol\":5191:5195  true */\n      0x01\n        /* \"src/noti.sol\":5156:5188  allowedNotiStorages[notiStorage] */\n      0x20\n      dup2\n      swap1\n      mstore\n      0x40\n      swap1\n      swap2\n      keccak256\n        /* \"src/noti.sol\":5156:5195  allowedNotiStorages[notiStorage] = true */\n      dup1\n      sload\n      not(0xff)\n      and\n      swap1\n      swap2\n      or\n      swap1\n      sstore\n        /* \"src/noti.sol\":5071:5202  function registerNotiStorage(address notiStorage) external onlyNotiFactory {... */\n      jump\t// out\n        /* \"src/noti.sol\":4791:4898  function setNotiFactory(address _notiFactory)external onlyOwner{... */\n    tag_32:\n        /* \"@openzeppelin/contracts/access/Ownable.sol\":1531:1544  _checkOwner() */\n      tag_53\n        /* \"@openzeppelin/contracts/access/Ownable.sol\":1531:1542  _checkOwner */\n      tag_42\n        /* \"@openzeppelin/contracts/access/Ownable.sol\":1531:1544  _checkOwner() */\n      jump\t// in\n    tag_53:\n        /* \"src/noti.sol\":4864:4875  notiFactory */\n      0x02\n        /* \"src/noti.sol\":4864:4891  notiFactory =  _notiFactory */\n      dup1\n      sload\n      not(sub(shl(0xa0, 0x01), 0x01))\n      and\n      sub(shl(0xa0, 0x01), 0x01)\n      swap3\n      swap1\n      swap3\n      and\n      swap2\n      swap1\n      swap2\n      or\n      swap1\n      sstore\n        /* \"src/noti.sol\":4791:4898  function setNotiFactory(address _notiFactory)external onlyOwner{... */\n      jump\t// out\n        /* \"src/noti.sol\":5348:5594  function emitNotification(... */\n    tag_36:\n        /* \"src/noti.sol\":4478:4488  msg.sender */\n      caller\n        /* \"src/noti.sol\":4458:4489  allowedNotiStorages[msg.sender] */\n      0x00\n      swap1\n      dup2\n      mstore\n        /* \"src/noti.sol\":4458:4477  allowedNotiStorages */\n      0x01\n        /* \"src/noti.sol\":4458:4489  allowedNotiStorages[msg.sender] */\n      0x20\n      mstore\n      0x40\n      swap1\n      keccak256\n      sload\n      0xff\n      and\n        /* \"src/noti.sol\":4450:4508  require(allowedNotiStorages[msg.sender], \"Not authorized\") */\n      tag_56\n      jumpi\n      mload(0x40)\n      shl(0xe5, 0x461bcd)\n      dup2\n      mstore\n        /* \"#utility.yul\":2152:2154   */\n      0x20\n        /* \"src/noti.sol\":4450:4508  require(allowedNotiStorages[msg.sender], \"Not authorized\") */\n      0x04\n      dup3\n      add\n        /* \"#utility.yul\":2134:2155   */\n      mstore\n        /* \"#utility.yul\":2191:2193   */\n      0x0e\n        /* \"#utility.yul\":2171:2189   */\n      0x24\n      dup3\n      add\n        /* \"#utility.yul\":2164:2194   */\n      mstore\n      shl(0x92, 0x139bdd08185d5d1a1bdc9a5e9959)\n        /* \"#utility.yul\":2210:2228   */\n      0x44\n      dup3\n      add\n        /* \"#utility.yul\":2203:2247   */\n      mstore\n        /* \"#utility.yul\":2264:2282   */\n      0x64\n      add\n        /* \"src/noti.sol\":4450:4508  require(allowedNotiStorages[msg.sender], \"Not authorized\") */\n      tag_48\n        /* \"#utility.yul\":1950:2288   */\n      jump\n        /* \"src/noti.sol\":4450:4508  require(allowedNotiStorages[msg.sender], \"Not authorized\") */\n    tag_56:\n        /* \"src/noti.sol\":5564:5568  user */\n      dup4\n      sub(shl(0xa0, 0x01), 0x01)\n        /* \"src/noti.sol\":5534:5587  GlobalNotification(dappOwner, user, eventId, message) */\n      and\n        /* \"src/noti.sol\":5553:5562  dappOwner */\n      dup6\n      sub(shl(0xa0, 0x01), 0x01)\n        /* \"src/noti.sol\":5534:5587  GlobalNotification(dappOwner, user, eventId, message) */\n      and\n      0xd1f044e0da1c2abf54e651054aae4e584dfece57bbbe340a8a9742033d847827\n        /* \"src/noti.sol\":5570:5577  eventId */\n      dup6\n        /* \"src/noti.sol\":5579:5586  message */\n      dup6\n      dup6\n        /* \"src/noti.sol\":5534:5587  GlobalNotification(dappOwner, user, eventId, message) */\n      mload(0x40)\n      tag_60\n      swap4\n      swap3\n      swap2\n      swap1\n      tag_61\n      jump\t// in\n    tag_60:\n      mload(0x40)\n      dup1\n      swap2\n      sub\n      swap1\n      log3\n        /* \"src/noti.sol\":5348:5594  function emitNotification(... */\n      pop\n      pop\n      pop\n      pop\n      pop\n      jump\t// out\n        /* \"@openzeppelin/contracts/access/Ownable.sol\":2543:2758  function transferOwnership(address newOwner) public virtual onlyOwner {... */\n    tag_39:\n        /* \"@openzeppelin/contracts/access/Ownable.sol\":1531:1544  _checkOwner() */\n      tag_63\n        /* \"@openzeppelin/contracts/access/Ownable.sol\":1531:1542  _checkOwner */\n      tag_42\n        /* \"@openzeppelin/contracts/access/Ownable.sol\":1531:1544  _checkOwner() */\n      jump\t// in\n    tag_63:\n      sub(shl(0xa0, 0x01), 0x01)\n        /* \"@openzeppelin/contracts/access/Ownable.sol\":2627:2649  newOwner == address(0) */\n      dup2\n      and\n        /* \"@openzeppelin/contracts/access/Ownable.sol\":2623:2714  if (newOwner == address(0)) {... */\n      tag_65\n      jumpi\n        /* \"@openzeppelin/contracts/access/Ownable.sol\":2672:2703  OwnableInvalidOwner(address(0)) */\n      mload(0x40)\n      shl(0xe0, 0x1e4fbdf7)\n      dup2\n      mstore\n        /* \"@openzeppelin/contracts/access/Ownable.sol\":2700:2701  0 */\n      0x00\n        /* \"@openzeppelin/contracts/access/Ownable.sol\":2672:2703  OwnableInvalidOwner(address(0)) */\n      0x04\n      dup3\n      add\n        /* \"#utility.yul\":160:211   */\n      mstore\n        /* \"#utility.yul\":133:151   */\n      0x24\n      add\n        /* \"@openzeppelin/contracts/access/Ownable.sol\":2672:2703  OwnableInvalidOwner(address(0)) */\n      tag_48\n        /* \"#utility.yul\":14:217   */\n      jump\n        /* \"@openzeppelin/contracts/access/Ownable.sol\":2623:2714  if (newOwner == address(0)) {... */\n    tag_65:\n        /* \"@openzeppelin/contracts/access/Ownable.sol\":2723:2751  _transferOwnership(newOwner) */\n      tag_67\n        /* \"@openzeppelin/contracts/access/Ownable.sol\":2742:2750  newOwner */\n      dup2\n        /* \"@openzeppelin/contracts/access/Ownable.sol\":2723:2741  _transferOwnership */\n      tag_45\n        /* \"@openzeppelin/contracts/access/Ownable.sol\":2723:2751  _transferOwnership(newOwner) */\n      jump\t// in\n    tag_67:\n        /* \"@openzeppelin/contracts/access/Ownable.sol\":2543:2758  function transferOwnership(address newOwner) public virtual onlyOwner {... */\n      pop\n      jump\t// out\n        /* \"@openzeppelin/contracts/access/Ownable.sol\":1796:1958  function _checkOwner() internal view virtual {... */\n    tag_42:\n        /* \"@openzeppelin/contracts/access/Ownable.sol\":1684:1691  address */\n      0x00\n        /* \"@openzeppelin/contracts/access/Ownable.sol\":1710:1716  _owner */\n      sload\n      sub(shl(0xa0, 0x01), 0x01)\n      and\n        /* \"@openzeppelin/contracts/utils/Context.sol\":735:745  msg.sender */\n      caller\n        /* \"@openzeppelin/contracts/access/Ownable.sol\":1855:1878  owner() != _msgSender() */\n      eq\n        /* \"@openzeppelin/contracts/access/Ownable.sol\":1851:1952  if (owner() != _msgSender()) {... */\n      tag_44\n      jumpi\n        /* \"@openzeppelin/contracts/access/Ownable.sol\":1901:1941  OwnableUnauthorizedAccount(_msgSender()) */\n      mload(0x40)\n      shl(0xe0, 0x118cdaa7)\n      dup2\n      mstore\n        /* \"@openzeppelin/contracts/utils/Context.sol\":735:745  msg.sender */\n      caller\n        /* \"@openzeppelin/contracts/access/Ownable.sol\":1901:1941  OwnableUnauthorizedAccount(_msgSender()) */\n      0x04\n      dup3\n      add\n        /* \"#utility.yul\":160:211   */\n      mstore\n        /* \"#utility.yul\":133:151   */\n      0x24\n      add\n        /* \"@openzeppelin/contracts/access/Ownable.sol\":1901:1941  OwnableUnauthorizedAccount(_msgSender()) */\n      tag_48\n        /* \"#utility.yul\":14:217   */\n      jump\n        /* \"@openzeppelin/contracts/access/Ownable.sol\":2912:3099  function _transferOwnership(address newOwner) internal virtual {... */\n    tag_45:\n        /* \"@openzeppelin/contracts/access/Ownable.sol\":2985:3001  address oldOwner */\n      0x00\n        /* \"@openzeppelin/contracts/access/Ownable.sol\":3004:3010  _owner */\n      dup1\n      sload\n      sub(shl(0xa0, 0x01), 0x01)\n        /* \"@openzeppelin/contracts/access/Ownable.sol\":3020:3037  _owner = newOwner */\n      dup4\n      dup2\n      and\n      not(sub(shl(0xa0, 0x01), 0x01))\n      dup4\n      and\n      dup2\n      or\n      dup5\n      sstore\n        /* \"@openzeppelin/contracts/access/Ownable.sol\":3052:3092  OwnershipTransferred(oldOwner, newOwner) */\n      mload(0x40)\n        /* \"@openzeppelin/contracts/access/Ownable.sol\":3004:3010  _owner */\n      swap2\n      swap1\n      swap3\n      and\n      swap3\n      dup4\n      swap2\n        /* \"@openzeppelin/contracts/access/Ownable.sol\":3052:3092  OwnershipTransferred(oldOwner, newOwner) */\n      0x8be0079c531659141344cd1fd0a4f28419497f9722a3daafe3b4186f6b6457e0\n      swap2\n        /* \"@openzeppelin/contracts/access/Ownable.sol\":2985:3001  address oldOwner */\n      swap1\n        /* \"@openzeppelin/contracts/access/Ownable.sol\":3052:3092  OwnershipTransferred(oldOwner, newOwner) */\n      log3\n        /* \"@openzeppelin/contracts/access/Ownable.sol\":2975:3099  {... */\n      pop\n        /* \"@openzeppelin/contracts/access/Ownable.sol\":2912:3099  function _transferOwnership(address newOwner) internal virtual {... */\n      pop\n      jump\t// out\n        /* \"#utility.yul\":222:395   */\n    tag_77:\n        /* \"#utility.yul\":290:310   */\n      dup1\n      calldataload\n      sub(shl(0xa0, 0x01), 0x01)\n        /* \"#utility.yul\":339:370   */\n      dup2\n      and\n        /* \"#utility.yul\":329:371   */\n      dup2\n      eq\n        /* \"#utility.yul\":319:389   */\n      tag_81\n      jumpi\n        /* \"#utility.yul\":385:386   */\n      0x00\n        /* \"#utility.yul\":382:383   */\n      dup1\n        /* \"#utility.yul\":375:387   */\n      revert\n        /* \"#utility.yul\":319:389   */\n    tag_81:\n        /* \"#utility.yul\":222:395   */\n      swap2\n      swap1\n      pop\n      jump\t// out\n        /* \"#utility.yul\":400:586   */\n    tag_20:\n        /* \"#utility.yul\":459:465   */\n      0x00\n        /* \"#utility.yul\":512:514   */\n      0x20\n        /* \"#utility.yul\":500:509   */\n      dup3\n        /* \"#utility.yul\":491:498   */\n      dup5\n        /* \"#utility.yul\":487:510   */\n      sub\n        /* \"#utility.yul\":483:515   */\n      slt\n        /* \"#utility.yul\":480:532   */\n      iszero\n      tag_83\n      jumpi\n        /* \"#utility.yul\":528:529   */\n      0x00\n        /* \"#utility.yul\":525:526   */\n      dup1\n        /* \"#utility.yul\":518:530   */\n      revert\n        /* \"#utility.yul\":480:532   */\n    tag_83:\n        /* \"#utility.yul\":551:580   */\n      tag_84\n        /* \"#utility.yul\":570:579   */\n      dup3\n        /* \"#utility.yul\":551:580   */\n      tag_77\n      jump\t// in\n    tag_84:\n        /* \"#utility.yul\":541:580   */\n      swap4\n        /* \"#utility.yul\":400:586   */\n      swap3\n      pop\n      pop\n      pop\n      jump\t// out\n        /* \"#utility.yul\":783:1587   */\n    tag_35:\n        /* \"#utility.yul\":881:887   */\n      0x00\n        /* \"#utility.yul\":889:895   */\n      dup1\n        /* \"#utility.yul\":897:903   */\n      0x00\n        /* \"#utility.yul\":905:911   */\n      dup1\n        /* \"#utility.yul\":913:919   */\n      0x00\n        /* \"#utility.yul\":966:969   */\n      0x80\n        /* \"#utility.yul\":954:963   */\n      dup7\n        /* \"#utility.yul\":945:952   */\n      dup9\n        /* \"#utility.yul\":941:964   */\n      sub\n        /* \"#utility.yul\":937:970   */\n      slt\n        /* \"#utility.yul\":934:987   */\n      iszero\n      tag_87\n      jumpi\n        /* \"#utility.yul\":983:984   */\n      0x00\n        /* \"#utility.yul\":980:981   */\n      dup1\n        /* \"#utility.yul\":973:985   */\n      revert\n        /* \"#utility.yul\":934:987   */\n    tag_87:\n        /* \"#utility.yul\":1006:1035   */\n      tag_88\n        /* \"#utility.yul\":1025:1034   */\n      dup7\n        /* \"#utility.yul\":1006:1035   */\n      tag_77\n      jump\t// in\n    tag_88:\n        /* \"#utility.yul\":996:1035   */\n      swap5\n      pop\n        /* \"#utility.yul\":1054:1092   */\n      tag_89\n        /* \"#utility.yul\":1088:1090   */\n      0x20\n        /* \"#utility.yul\":1077:1086   */\n      dup8\n        /* \"#utility.yul\":1073:1091   */\n      add\n        /* \"#utility.yul\":1054:1092   */\n      tag_77\n      jump\t// in\n    tag_89:\n        /* \"#utility.yul\":1044:1092   */\n      swap4\n      pop\n        /* \"#utility.yul\":1139:1141   */\n      0x40\n        /* \"#utility.yul\":1128:1137   */\n      dup7\n        /* \"#utility.yul\":1124:1142   */\n      add\n        /* \"#utility.yul\":1111:1143   */\n      calldataload\n        /* \"#utility.yul\":1101:1143   */\n      swap3\n      pop\n        /* \"#utility.yul\":1194:1196   */\n      0x60\n        /* \"#utility.yul\":1183:1192   */\n      dup7\n        /* \"#utility.yul\":1179:1197   */\n      add\n        /* \"#utility.yul\":1166:1198   */\n      calldataload\n        /* \"#utility.yul\":1221:1239   */\n      0xffffffffffffffff\n        /* \"#utility.yul\":1213:1219   */\n      dup2\n        /* \"#utility.yul\":1210:1240   */\n      gt\n        /* \"#utility.yul\":1207:1257   */\n      iszero\n      tag_90\n      jumpi\n        /* \"#utility.yul\":1253:1254   */\n      0x00\n        /* \"#utility.yul\":1250:1251   */\n      dup1\n        /* \"#utility.yul\":1243:1255   */\n      revert\n        /* \"#utility.yul\":1207:1257   */\n    tag_90:\n        /* \"#utility.yul\":1276:1298   */\n      dup7\n      add\n        /* \"#utility.yul\":1329:1333   */\n      0x1f\n        /* \"#utility.yul\":1321:1334   */\n      dup2\n      add\n        /* \"#utility.yul\":1317:1344   */\n      dup9\n      sgt\n        /* \"#utility.yul\":1307:1362   */\n      tag_91\n      jumpi\n        /* \"#utility.yul\":1358:1359   */\n      0x00\n        /* \"#utility.yul\":1355:1356   */\n      dup1\n        /* \"#utility.yul\":1348:1360   */\n      revert\n        /* \"#utility.yul\":1307:1362   */\n    tag_91:\n        /* \"#utility.yul\":1398:1400   */\n      dup1\n        /* \"#utility.yul\":1385:1401   */\n      calldataload\n        /* \"#utility.yul\":1424:1442   */\n      0xffffffffffffffff\n        /* \"#utility.yul\":1416:1422   */\n      dup2\n        /* \"#utility.yul\":1413:1443   */\n      gt\n        /* \"#utility.yul\":1410:1460   */\n      iszero\n      tag_92\n      jumpi\n        /* \"#utility.yul\":1456:1457   */\n      0x00\n        /* \"#utility.yul\":1453:1454   */\n      dup1\n        /* \"#utility.yul\":1446:1458   */\n      revert\n        /* \"#utility.yul\":1410:1460   */\n    tag_92:\n        /* \"#utility.yul\":1501:1508   */\n      dup9\n        /* \"#utility.yul\":1496:1498   */\n      0x20\n        /* \"#utility.yul\":1487:1493   */\n      dup3\n        /* \"#utility.yul\":1483:1485   */\n      dup5\n        /* \"#utility.yul\":1479:1494   */\n      add\n        /* \"#utility.yul\":1475:1499   */\n      add\n        /* \"#utility.yul\":1472:1509   */\n      gt\n        /* \"#utility.yul\":1469:1526   */\n      iszero\n      tag_93\n      jumpi\n        /* \"#utility.yul\":1522:1523   */\n      0x00\n        /* \"#utility.yul\":1519:1520   */\n      dup1\n        /* \"#utility.yul\":1512:1524   */\n      revert\n        /* \"#utility.yul\":1469:1526   */\n    tag_93:\n        /* \"#utility.yul\":783:1587   */\n      swap6\n      swap9\n      swap5\n      swap8\n      pop\n      swap3\n      swap6\n      pop\n      pop\n      pop\n        /* \"#utility.yul\":1553:1555   */\n      0x20\n        /* \"#utility.yul\":1545:1556   */\n      add\n      swap2\n        /* \"#utility.yul\":1575:1581   */\n      swap1\n        /* \"#utility.yul\":783:1587   */\n      jump\t// out\n        /* \"#utility.yul\":2293:2754   */\n    tag_61:\n        /* \"#utility.yul\":2480:2486   */\n      dup4\n        /* \"#utility.yul\":2469:2478   */\n      dup2\n        /* \"#utility.yul\":2462:2487   */\n      mstore\n        /* \"#utility.yul\":2523:2525   */\n      0x40\n        /* \"#utility.yul\":2518:2520   */\n      0x20\n        /* \"#utility.yul\":2507:2516   */\n      dup3\n        /* \"#utility.yul\":2503:2521   */\n      add\n        /* \"#utility.yul\":2496:2526   */\n      mstore\n        /* \"#utility.yul\":2562:2568   */\n      dup2\n        /* \"#utility.yul\":2557:2559   */\n      0x40\n        /* \"#utility.yul\":2546:2555   */\n      dup3\n        /* \"#utility.yul\":2542:2560   */\n      add\n        /* \"#utility.yul\":2535:2569   */\n      mstore\n        /* \"#utility.yul\":2619:2625   */\n      dup2\n        /* \"#utility.yul\":2611:2617   */\n      dup4\n        /* \"#utility.yul\":2606:2608   */\n      0x60\n        /* \"#utility.yul\":2595:2604   */\n      dup4\n        /* \"#utility.yul\":2591:2609   */\n      add\n        /* \"#utility.yul\":2578:2626   */\n      calldatacopy\n        /* \"#utility.yul\":2675:2676   */\n      0x00\n        /* \"#utility.yul\":2646:2668   */\n      dup2\n      dup4\n      add\n        /* \"#utility.yul\":2670:2672   */\n      0x60\n        /* \"#utility.yul\":2642:2673   */\n      swap1\n      dup2\n      add\n        /* \"#utility.yul\":2635:2677   */\n      swap2\n      swap1\n      swap2\n      mstore\n        /* \"#utility.yul\":2738:2740   */\n      0x1f\n        /* \"#utility.yul\":2717:2732   */\n      swap1\n      swap3\n      add\n      not(0x1f)\n        /* \"#utility.yul\":2713:2742   */\n      and\n        /* \"#utility.yul\":2698:2743   */\n      add\n        /* \"#utility.yul\":2694:2748   */\n      add\n      swap3\n        /* \"#utility.yul\":2293:2754   */\n      swap2\n      pop\n      pop\n      jump\t// out\n\n    auxdata: 0xa2646970667358221220e615807d4cbb6135a1c381491c7b963263106991c41a35b5e4719642709827ff64736f6c634300081a0033\n}\n",
				"bytecode": {
					"linkReferences": {},
					"object": "6080604052348015600e575f80fd5b503380603357604051631e4fbdf760e01b81525f600482015260240160405180910390fd5b603a81603f565b50608e565b5f80546001600160a01b038381166001600160a01b0319831681178455604051919092169283917f8be0079c531659141344cd1fd0a4f28419497f9722a3daafe3b4186f6b6457e09190a35050565b6104ab8061009b5f395ff3fe608060405234801561000f575f80fd5b5060043610610085575f3560e01c80638da5cb5b116100585780638da5cb5b1461010857806396e8ca4e146101185780639bee69c81461012b578063f2fde38b1461013e575f80fd5b806312c670f914610089578063715018a6146100b957806376fb99e6146100c35780637ace4071146100d6575b5f80fd5b60025461009c906001600160a01b031681565b6040516001600160a01b0390911681526020015b60405180910390f35b6100c1610151565b005b6100c16100d136600461038b565b610164565b6100f86100e436600461038b565b60016020525f908152604090205460ff1681565b60405190151581526020016100b0565b5f546001600160a01b031661009c565b6100c161012636600461038b565b6101e9565b6100c16101393660046103ab565b610213565b6100c161014c36600461038b565b6102b8565b6101596102f5565b6101625f610321565b565b6002546001600160a01b031633146101c35760405162461bcd60e51b815260206004820152601d60248201527f4f6e6c79204e6f7469466163746f72792063616e20726567697374657200000060448201526064015b60405180910390fd5b6001600160a01b03165f908152600160208190526040909120805460ff19169091179055565b6101f16102f5565b600280546001600160a01b0319166001600160a01b0392909216919091179055565b335f9081526001602052604090205460ff166102625760405162461bcd60e51b815260206004820152600e60248201526d139bdd08185d5d1a1bdc9a5e995960921b60448201526064016101ba565b836001600160a01b0316856001600160a01b03167fd1f044e0da1c2abf54e651054aae4e584dfece57bbbe340a8a9742033d8478278585856040516102a993929190610440565b60405180910390a35050505050565b6102c06102f5565b6001600160a01b0381166102e957604051631e4fbdf760e01b81525f60048201526024016101ba565b6102f281610321565b50565b5f546001600160a01b031633146101625760405163118cdaa760e01b81523360048201526024016101ba565b5f80546001600160a01b038381166001600160a01b0319831681178455604051919092169283917f8be0079c531659141344cd1fd0a4f28419497f9722a3daafe3b4186f6b6457e09190a35050565b80356001600160a01b0381168114610386575f80fd5b919050565b5f6020828403121561039b575f80fd5b6103a482610370565b9392505050565b5f805f805f608086880312156103bf575f80fd5b6103c886610370565b94506103d660208701610370565b935060408601359250606086013567ffffffffffffffff8111156103f8575f80fd5b8601601f81018813610408575f80fd5b803567ffffffffffffffff81111561041e575f80fd5b88602082840101111561042f575f80fd5b959894975092955050506020019190565b83815260406020820152816040820152818360608301375f818301606090810191909152601f909201601f191601019291505056fea2646970667358221220e615807d4cbb6135a1c381491c7b963263106991c41a35b5e4719642709827ff64736f6c634300081a0033",
					"opcodes": "PUSH1 0x80 PUSH1 0x40 MSTORE CALLVALUE DUP1 ISZERO PUSH1 0xE JUMPI PUSH0 DUP1 REVERT JUMPDEST POP CALLER DUP1 PUSH1 0x33 JUMPI PUSH1 0x40 MLOAD PUSH4 0x1E4FBDF7 PUSH1 0xE0 SHL DUP2 MSTORE PUSH0 PUSH1 0x4 DUP3 ADD MSTORE PUSH1 0x24 ADD PUSH1 0x40 MLOAD DUP1 SWAP2 SUB SWAP1 REVERT JUMPDEST PUSH1 0x3A DUP2 PUSH1 0x3F JUMP JUMPDEST POP PUSH1 0x8E JUMP JUMPDEST PUSH0 DUP1 SLOAD PUSH1 0x1 PUSH1 0x1 PUSH1 0xA0 SHL SUB DUP4 DUP2 AND PUSH1 0x1 PUSH1 0x1 PUSH1 0xA0 SHL SUB NOT DUP4 AND DUP2 OR DUP5 SSTORE PUSH1 0x40 MLOAD SWAP2 SWAP1 SWAP3 AND SWAP3 DUP4 SWAP2 PUSH32 0x8BE0079C531659141344CD1FD0A4F28419497F9722A3DAAFE3B4186F6B6457E0 SWAP2 SWAP1 LOG3 POP POP JUMP JUMPDEST PUSH2 0x4AB DUP1 PUSH2 0x9B PUSH0 CODECOPY PUSH0 RETURN INVALID PUSH1 0x80 PUSH1 0x40 MSTORE CALLVALUE DUP1 ISZERO PUSH2 0xF JUMPI PUSH0 DUP1 REVERT JUMPDEST POP PUSH1 0x4 CALLDATASIZE LT PUSH2 0x85 JUMPI PUSH0 CALLDATALOAD PUSH1 0xE0 SHR DUP1 PUSH4 0x8DA5CB5B GT PUSH2 0x58 JUMPI DUP1 PUSH4 0x8DA5CB5B EQ PUSH2 0x108 JUMPI DUP1 PUSH4 0x96E8CA4E EQ PUSH2 0x118 JUMPI DUP1 PUSH4 0x9BEE69C8 EQ PUSH2 0x12B JUMPI DUP1 PUSH4 0xF2FDE38B EQ PUSH2 0x13E JUMPI PUSH0 DUP1 REVERT JUMPDEST DUP1 PUSH4 0x12C670F9 EQ PUSH2 0x89 JUMPI DUP1 PUSH4 0x715018A6 EQ PUSH2 0xB9 JUMPI DUP1 PUSH4 0x76FB99E6 EQ PUSH2 0xC3 JUMPI DUP1 PUSH4 0x7ACE4071 EQ PUSH2 0xD6 JUMPI JUMPDEST PUSH0 DUP1 REVERT JUMPDEST PUSH1 0x2 SLOAD PUSH2 0x9C SWAP1 PUSH1 0x1 PUSH1 0x1 PUSH1 0xA0 SHL SUB AND DUP2 JUMP JUMPDEST PUSH1 0x40 MLOAD PUSH1 0x1 PUSH1 0x1 PUSH1 0xA0 SHL SUB SWAP1 SWAP2 AND DUP2 MSTORE PUSH1 0x20 ADD JUMPDEST PUSH1 0x40 MLOAD DUP1 SWAP2 SUB SWAP1 RETURN JUMPDEST PUSH2 0xC1 PUSH2 0x151 JUMP JUMPDEST STOP JUMPDEST PUSH2 0xC1 PUSH2 0xD1 CALLDATASIZE PUSH1 0x4 PUSH2 0x38B JUMP JUMPDEST PUSH2 0x164 JUMP JUMPDEST PUSH2 0xF8 PUSH2 0xE4 CALLDATASIZE PUSH1 0x4 PUSH2 0x38B JUMP JUMPDEST PUSH1 0x1 PUSH1 0x20 MSTORE PUSH0 SWAP1 DUP2 MSTORE PUSH1 0x40 SWAP1 KECCAK256 SLOAD PUSH1 0xFF AND DUP2 JUMP JUMPDEST PUSH1 0x40 MLOAD SWAP1 ISZERO ISZERO DUP2 MSTORE PUSH1 0x20 ADD PUSH2 0xB0 JUMP JUMPDEST PUSH0 SLOAD PUSH1 0x1 PUSH1 0x1 PUSH1 0xA0 SHL SUB AND PUSH2 0x9C JUMP JUMPDEST PUSH2 0xC1 PUSH2 0x126 CALLDATASIZE PUSH1 0x4 PUSH2 0x38B JUMP JUMPDEST PUSH2 0x1E9 JUMP JUMPDEST PUSH2 0xC1 PUSH2 0x139 CALLDATASIZE PUSH1 0x4 PUSH2 0x3AB JUMP JUMPDEST PUSH2 0x213 JUMP JUMPDEST PUSH2 0xC1 PUSH2 0x14C CALLDATASIZE PUSH1 0x4 PUSH2 0x38B JUMP JUMPDEST PUSH2 0x2B8 JUMP JUMPDEST PUSH2 0x159 PUSH2 0x2F5 JUMP JUMPDEST PUSH2 0x162 PUSH0 PUSH2 0x321 JUMP JUMPDEST JUMP JUMPDEST PUSH1 0x2 SLOAD PUSH1 0x1 PUSH1 0x1 PUSH1 0xA0 SHL SUB AND CALLER EQ PUSH2 0x1C3 JUMPI PUSH1 0x40 MLOAD PUSH3 0x461BCD PUSH1 0xE5 SHL DUP2 MSTORE PUSH1 0x20 PUSH1 0x4 DUP3 ADD MSTORE PUSH1 0x1D PUSH1 0x24 DUP3 ADD MSTORE PUSH32 0x4F6E6C79204E6F7469466163746F72792063616E207265676973746572000000 PUSH1 0x44 DUP3 ADD MSTORE PUSH1 0x64 ADD JUMPDEST PUSH1 0x40 MLOAD DUP1 SWAP2 SUB SWAP1 REVERT JUMPDEST PUSH1 0x1 PUSH1 0x1 PUSH1 0xA0 SHL SUB AND PUSH0 SWAP1 DUP2 MSTORE PUSH1 0x1 PUSH1 0x20 DUP2 SWAP1 MSTORE PUSH1 0x40 SWAP1 SWAP2 KECCAK256 DUP1 SLOAD PUSH1 0xFF NOT AND SWAP1 SWAP2 OR SWAP1 SSTORE JUMP JUMPDEST PUSH2 0x1F1 PUSH2 0x2F5 JUMP JUMPDEST PUSH1 0x2 DUP1 SLOAD PUSH1 0x1 PUSH1 0x1 PUSH1 0xA0 SHL SUB NOT AND PUSH1 0x1 PUSH1 0x1 PUSH1 0xA0 SHL SUB SWAP3 SWAP1 SWAP3 AND SWAP2 SWAP1 SWAP2 OR SWAP1 SSTORE JUMP JUMPDEST CALLER PUSH0 SWAP1 DUP2 MSTORE PUSH1 0x1 PUSH1 0x20 MSTORE PUSH1 0x40 SWAP1 KECCAK256 SLOAD PUSH1 0xFF AND PUSH2 0x262 JUMPI PUSH1 0x40 MLOAD PUSH3 0x461BCD PUSH1 0xE5 SHL DUP2 MSTORE PUSH1 0x20 PUSH1 0x4 DUP3 ADD MSTORE PUSH1 0xE PUSH1 0x24 DUP3 ADD MSTORE PUSH14 0x139BDD08185D5D1A1BDC9A5E9959 PUSH1 0x92 SHL PUSH1 0x44 DUP3 ADD MSTORE PUSH1 0x64 ADD PUSH2 0x1BA JUMP JUMPDEST DUP4 PUSH1 0x1 PUSH1 0x1 PUSH1 0xA0 SHL SUB AND DUP6 PUSH1 0x1 PUSH1 0x1 PUSH1 0xA0 SHL SUB AND PUSH32 0xD1F044E0DA1C2ABF54E651054AAE4E584DFECE57BBBE340A8A9742033D847827 DUP6 DUP6 DUP6 PUSH1 0x40 MLOAD PUSH2 0x2A9 SWAP4 SWAP3 SWAP2 SWAP1 PUSH2 0x440 JUMP JUMPDEST PUSH1 0x40 MLOAD DUP1 SWAP2 SUB SWAP1 LOG3 POP POP POP POP POP JUMP JUMPDEST PUSH2 0x2C0 PUSH2 0x2F5 JUMP JUMPDEST PUSH1 0x1 PUSH1 0x1 PUSH1 0xA0 SHL SUB DUP2 AND PUSH2 0x2E9 JUMPI PUSH1 0x40 MLOAD PUSH4 0x1E4FBDF7 PUSH1 0xE0 SHL DUP2 MSTORE PUSH0 PUSH1 0x4 DUP3 ADD MSTORE PUSH1 0x24 ADD PUSH2 0x1BA JUMP JUMPDEST PUSH2 0x2F2 DUP2 PUSH2 0x321 JUMP JUMPDEST POP JUMP JUMPDEST PUSH0 SLOAD PUSH1 0x1 PUSH1 0x1 PUSH1 0xA0 SHL SUB AND CALLER EQ PUSH2 0x162 JUMPI PUSH1 0x40 MLOAD PUSH4 0x118CDAA7 PUSH1 0xE0 SHL DUP2 MSTORE CALLER PUSH1 0x4 DUP3 ADD MSTORE PUSH1 0x24 ADD PUSH2 0x1BA JUMP JUMPDEST PUSH0 DUP1 SLOAD PUSH1 0x1 PUSH1 0x1 PUSH1 0xA0 SHL SUB DUP4 DUP2 AND PUSH1 0x1 PUSH1 0x1 PUSH1 0xA0 SHL SUB NOT DUP4 AND DUP2 OR DUP5 SSTORE PUSH1 0x40 MLOAD SWAP2 SWAP1 SWAP3 AND SWAP3 DUP4 SWAP2 PUSH32 0x8BE0079C531659141344CD1FD0A4F28419497F9722A3DAAFE3B4186F6B6457E0 SWAP2 SWAP1 LOG3 POP POP JUMP JUMPDEST DUP1 CALLDATALOAD PUSH1 0x1 PUSH1 0x1 PUSH1 0xA0 SHL SUB DUP2 AND DUP2 EQ PUSH2 0x386 JUMPI PUSH0 DUP1 REVERT JUMPDEST SWAP2 SWAP1 POP JUMP JUMPDEST PUSH0 PUSH1 0x20 DUP3 DUP5 SUB SLT ISZERO PUSH2 0x39B JUMPI PUSH0 DUP1 REVERT JUMPDEST PUSH2 0x3A4 DUP3 PUSH2 0x370 JUMP JUMPDEST SWAP4 SWAP3 POP POP POP JUMP JUMPDEST PUSH0 DUP1 PUSH0 DUP1 PUSH0 PUSH1 0x80 DUP7 DUP9 SUB SLT ISZERO PUSH2 0x3BF JUMPI PUSH0 DUP1 REVERT JUMPDEST PUSH2 0x3C8 DUP7 PUSH2 0x370 JUMP JUMPDEST SWAP5 POP PUSH2 0x3D6 PUSH1 0x20 DUP8 ADD PUSH2 0x370 JUMP JUMPDEST SWAP4 POP PUSH1 0x40 DUP7 ADD CALLDATALOAD SWAP3 POP PUSH1 0x60 DUP7 ADD CALLDATALOAD PUSH8 0xFFFFFFFFFFFFFFFF DUP2 GT ISZERO PUSH2 0x3F8 JUMPI PUSH0 DUP1 REVERT JUMPDEST DUP7 ADD PUSH1 0x1F DUP2 ADD DUP9 SGT PUSH2 0x408 JUMPI PUSH0 DUP1 REVERT JUMPDEST DUP1 CALLDATALOAD PUSH8 0xFFFFFFFFFFFFFFFF DUP2 GT ISZERO PUSH2 0x41E JUMPI PUSH0 DUP1 REVERT JUMPDEST DUP9 PUSH1 0x20 DUP3 DUP5 ADD ADD GT ISZERO PUSH2 0x42F JUMPI PUSH0 DUP1 REVERT JUMPDEST SWAP6 SWAP9 SWAP5 SWAP8 POP SWAP3 SWAP6 POP POP POP PUSH1 0x20 ADD SWAP2 SWAP1 JUMP JUMPDEST DUP4 DUP2 MSTORE PUSH1 0x40 PUSH1 0x20 DUP3 ADD MSTORE DUP2 PUSH1 0x40 DUP3 ADD MSTORE DUP2 DUP4 PUSH1 0x60 DUP4 ADD CALLDATACOPY PUSH0 DUP2 DUP4 ADD PUSH1 0x60 SWAP1 DUP2 ADD SWAP2 SWAP1 SWAP2 MSTORE PUSH1 0x1F SWAP1 SWAP3 ADD PUSH1 0x1F NOT AND ADD ADD SWAP3 SWAP2 POP POP JUMP INVALID LOG2 PUSH5 0x6970667358 0x22 SLT KECCAK256 0xE6 ISZERO DUP1 PUSH30 0x4CBB6135A1C381491C7B963263106991C41A35B5E4719642709827FF6473 PUSH16 0x6C634300081A00330000000000000000 "
				},
				"gasEstimates": {
					"creation": {
						"codeDepositCost": "239000",
						"executionCost": "26141",
						"totalCost": "265141"
					},
					"external": {
						"allowedNotiStorages(address)": "2595",
						"emitNotification(address,address,uint256,string)": "infinite",
						"notiFactory()": "2326",
						"owner()": "2318",
						"registerNotiStorage(address)": "26804",
						"renounceOwnership()": "infinite",
						"setNotiFactory(address)": "26754",
						"transferOwnership(address)": "28395"
					}
				},
				"methodIdentifiers": {
					"allowedNotiStorages(address)": "7ace4071",
					"emitNotification(address,address,uint256,string)": "9bee69c8",
					"notiFactory()": "12c670f9",
					"owner()": "8da5cb5b",
					"registerNotiStorage(address)": "76fb99e6",
					"renounceOwnership()": "715018a6",
					"setNotiFactory(address)": "96e8ca4e",
					"transferOwnership(address)": "f2fde38b"
				}
			},
			"storageLayout": {
				"storage": [
					{
						"astId": 8,
						"contract": "src/noti.sol:NotiHub",
						"label": "_owner",
						"offset": 0,
						"slot": "0",
						"type": "t_address"
					},
					{
						"astId": 291,
						"contract": "src/noti.sol:NotiHub",
						"label": "allowedNotiStorages",
						"offset": 0,
						"slot": "1",
						"type": "t_mapping(t_address,t_bool)"
					},
					{
						"astId": 293,
						"contract": "src/noti.sol:NotiHub",
						"label": "notiFactory",
						"offset": 0,
						"slot": "2",
						"type": "t_address"
					}
				],
				"types": {
					"t_address": {
						"encoding": "inplace",
						"label": "address",
						"numberOfBytes": "20"
					},
					"t_bool": {
						"encoding": "inplace",
						"label": "bool",
						"numberOfBytes": "1"
					},
					"t_mapping(t_address,t_bool)": {
						"encoding": "mapping",
						"key": "t_address",
						"label": "mapping(address => bool)",
						"numberOfBytes": "32",
						"value": "t_bool"
					}
				}
			},
			"userdoc": {
				"kind": "user",
				"methods": {
					"emitNotification(address,address,uint256,string)": {
						"notice": "PhÃ¡t sá»± kiá»‡n khi cÃ³ thÃ´ng bÃ¡o má»›i"
					},
					"registerNotiStorage(address)": {
						"notice": "Chá»‰ NotiFactory cÃ³ thá»ƒ Ä‘Äƒng kÃ½ NotiStorage há»£p lá»‡"
					}
				},
				"notice": "Trung tÃ¢m tiáº¿p nháº­n táº¥t cáº£ thÃ´ng bÃ¡o tá»« cÃ¡c Dapp.",
				"version": 1
			}
		}
	}
}