{
	"data": {
		"bytecode": {
			"linkReferences": {},
			"object": "608060405234801561001057600080fd5b50611c40806100206000396000f3fe608060405234801561001057600080fd5b50600436106101375760003560e01c80637bbb7570116100b8578063be9afac71161007c578063be9afac714610417578063c0ad332814610447578063c7b6fd6a14610477578063c8dc5a22146104a7578063cf6a169c146104d7578063eee32dff1461050757610137565b80637bbb75701461031e57806384a98eb91461035057806390c9f84414610382578063a2df2245146103b2578063a434f137146103e757610137565b806356551f26116100ff57806356551f261461022e578063576b26411461025e5780636986182d1461028e5780636afa9dc5146102be5780637217523c146102ee57610137565b806309d308ce1461013c57806311f909651461016c578063126a4bf31461019d5780634b31311a146101cd5780634c323edd146101fd575b600080fd5b61015660048036038101906101519190611303565b610537565b6040516101639190611352565b60405180910390f35b61018660048036038101906101819190611303565b610588565b6040516101949291906113fd565b60405180910390f35b6101b760048036038101906101b29190611303565b610675565b6040516101c49190611352565b60405180910390f35b6101e760048036038101906101e29190611434565b6106aa565b6040516101f49190611461565b60405180910390f35b61021760048036038101906102129190611303565b610706565b604051610225929190611483565b60405180910390f35b61024860048036038101906102439190611303565b610733565b6040516102559190611352565b60405180910390f35b61027860048036038101906102739190611303565b61075f565b6040516102859190611352565b60405180910390f35b6102a860048036038101906102a39190611303565b61078d565b6040516102b59190611352565b60405180910390f35b6102d860048036038101906102d39190611303565b6107ba565b6040516102e59190611461565b60405180910390f35b610308600480360381019061030391906114ac565b610880565b6040516103159190611352565b60405180910390f35b61033860048036038101906103339190611434565b6108a1565b604051610347939291906114ec565b60405180910390f35b61036a60048036038101906103659190611303565b6108e6565b604051610379939291906114ec565b60405180910390f35b61039c60048036038101906103979190611523565b61090d565b6040516103a99190611352565b60405180910390f35b6103cc60048036038101906103c79190611303565b61093f565b6040516103de969594939291906115c5565b60405180910390f35b61040160048036038101906103fc9190611626565b610973565b60405161040e9190611352565b60405180910390f35b610431600480360381019061042c91906114ac565b61098b565b60405161043e9190611352565b60405180910390f35b610461600480360381019061045c9190611626565b61099f565b60405161046e9190611352565b60405180910390f35b610491600480360381019061048c91906114ac565b6109cb565b60405161049e9190611352565b60405180910390f35b6104c160048036038101906104bc9190611303565b6109ec565b6040516104ce9190611352565b60405180910390f35b6104f160048036038101906104ec9190611303565b610a22565b6040516104fe9190611461565b60405180910390f35b610521600480360381019061051c9190611303565b610a80565b60405161052e9190611352565b60405180910390f35b60008060008061054786866108e6565b9250925092508060648361055b91906116bc565b6127108561056991906116bc565b61057391906116fe565b61057d91906116fe565b935050505092915050565b606080600080600080600061059d898961093f565b50945094509450945094506105b183610aad565b6105ba85610aad565b6105c387610aad565b6040516020016105d593929190611794565b6040516020818303038152906040529650600c82111561063457610604600c836105ff91906117e3565b610aad565b61060d82610aad565b60405160200161061e929190611863565b6040516020818303038152906040529550610669565b61063d82610aad565b61064682610aad565b6040516020016106579291906118cb565b60405160208183030381529060405295505b50505050509250929050565b60008082610e10610686919061190d565b846106919190611985565b9050600081136106a057600080fd5b8091505092915050565b606060008060006106ba856108a1565b9250925092506106c981610aad565b6106d283610aad565b6106db85610aad565b6040516020016106ed93929190611794565b6040516020818303038152906040529350505050919050565b6000806107138484610537565b915061071f848461078d565b8461072a91906117e3565b90509250929050565b600080600080610742866108a1565b9250925092506107548383838861099f565b935050505092915050565b6000600162015180610771858561078d565b61077b91906116fe565b61078591906117e3565b905092915050565b60008060008061079d86866108e6565b9250925092506107af8383838861099f565b935050505092915050565b606060008060008060006107ce888861093f565b509450945094509450945060006107e484610aad565b6107ed86610aad565b6107f688610aad565b60405160200161080893929190611794565b6040516020818303038152906040529050600061082484610aad565b61082d84610aad565b60405160200161083e9291906119c9565b60405160208183030381529060405290508082604051602001610862929190611a22565b60405160208183030381529060405297505050505050505092915050565b600061088c8383610b7b565b90508281101561089b57600080fd5b92915050565b6000806000612710846108b49190611a84565b9250606480856108c49190611a84565b6108ce9190611ab5565b91506064846108dd9190611ab5565b90509193909250565b60008060006108f58585610675565b945061090085610bac565b9250925092509250925092565b600061091d888888888888610bdb565b9050610932818361092d90611ae6565b610675565b9050979650505050505050565b6000806000806000806109528888610675565b975061095d88610c3c565b9550955095509550955095509295509295509295565b60006109818585858561099f565b9050949350505050565b60006109978383610cc3565b905092915050565b60006109ac858585610cd7565b90506109c181836109bc90611ae6565b610675565b9050949350505050565b60006109d78383610cfb565b9050828111156109e657600080fd5b92915050565b60008060006109fb85856108e6565b509150915080606483610a0e91906116bc565b610a1891906116fe565b9250505092915050565b60606000806000610a3386866108e6565b925092509250610a4281610aad565b610a4b83610aad565b610a5485610aad565b604051602001610a6693929190611794565b604051602081830303815290604052935050505092915050565b600080610a8d8484610733565b9050610a998184610675565b9050610aa481610d2c565b91505092915050565b606060006001610abc84610d6d565b01905060008167ffffffffffffffff811115610adb57610ada611b2e565b5b6040519080825280601f01601f191660200182016040528015610b0d5781602001600182028036833780820191505090505b509050600082602001820190505b600115610b70578080600190039150507f3031323334353637383961626364656600000000000000000000000000000000600a86061a8153600a8581610b6457610b63611a55565b5b04945060008503610b1b575b819350505050919050565b60006201518082610b8c91906116bc565b83610b9791906116fe565b905082811015610ba657600080fd5b92915050565b6000806000610bc86201518085610bc39190611a84565b610ec0565b8093508194508295505050509193909250565b600081603c84610beb91906116bc565b610e1086610bf991906116bc565b62015180610c088b8b8b61105f565b610c1291906116bc565b610c1c91906116fe565b610c2691906116fe565b610c3091906116fe565b90509695505050505050565b600080600080600080610c5c6201518088610c579190611a84565b610ec0565b80965081975082985050505060006201518088610c799190611ab5565b9050610e1081610c899190611a84565b9350610e1081610c999190611ab5565b9050603c81610ca89190611a84565b9250603c81610cb79190611ab5565b91505091939550919395565b6000610ccf83836111be565b905092915050565b600062015180610ce885858561105f565b610cf291906116bc565b90509392505050565b60006201518082610d0c91906116bc565b83610d1791906117e3565b905082811115610d2657600080fd5b92915050565b6000806201518083610d3e9190611a84565b905060016007600383610d5191906116fe565b610d5b9190611ab5565b610d6591906116fe565b915050919050565b600080600090507a184f03e93ff9f4daa797ed6e38ed64bf6a1f0100000000000000008310610dcb577a184f03e93ff9f4daa797ed6e38ed64bf6a1f0100000000000000008381610dc157610dc0611a55565b5b0492506040810190505b6d04ee2d6d415b85acef81000000008310610e08576d04ee2d6d415b85acef81000000008381610dfe57610dfd611a55565b5b0492506020810190505b662386f26fc100008310610e3757662386f26fc100008381610e2d57610e2c611a55565b5b0492506010810190505b6305f5e1008310610e60576305f5e1008381610e5657610e55611a55565b5b0492506008810190505b6127108310610e85576127108381610e7b57610e7a611a55565b5b0492506004810190505b60648310610ea85760648381610e9e57610e9d611a55565b5b0492506002810190505b600a8310610eb7576001810190505b80915050919050565b600080600080849050600062253d8c62010bd983610ede9190611985565b610ee89190611985565b9050600062023ab1826004610efd919061190d565b610f079190611b5d565b9050600460038262023ab1610f1c919061190d565b610f269190611985565b610f309190611b5d565b82610f3b9190611bc7565b9150600062164b09600184610f509190611985565b610fa0610f5d919061190d565b610f679190611b5d565b9050601f6004826105b5610f7b919061190d565b610f859190611b5d565b84610f909190611bc7565b610f9a9190611985565b9250600061098f846050610fae919061190d565b610fb89190611b5d565b9050600060508261098f610fcc919061190d565b610fd69190611b5d565b85610fe19190611bc7565b9050600b82610ff09190611b5d565b945084600c610fff919061190d565b60028361100c9190611985565b6110169190611bc7565b915084836031866110279190611bc7565b6064611033919061190d565b61103d9190611985565b6110479190611985565b92508298508197508096505050505050509193909250565b60006107b284101561107057600080fd5b600084905060008490506000849050600062253d8c60046064600c600e876110989190611bc7565b6110a29190611b5d565b611324886110b09190611985565b6110ba9190611985565b6110c49190611b5d565b60036110d0919061190d565b6110da9190611b5d565b600c80600c600e886110ec9190611bc7565b6110f69190611b5d565b611100919061190d565b60028761110d9190611bc7565b6111179190611bc7565b61016f611124919061190d565b61112e9190611b5d565b6004600c600e8861113f9190611bc7565b6111499190611b5d565b6112c0896111579190611985565b6111619190611985565b6105b561116e919061190d565b6111789190611b5d565b617d4b866111869190611bc7565b6111909190611985565b61119a9190611985565b6111a49190611bc7565b6111ae9190611bc7565b9050809450505050509392505050565b600060018214806111cf5750600382145b806111da5750600582145b806111e55750600782145b806111f05750600882145b806111fb5750600a82145b806112065750600c82145b1561121457601f9050611243565b6002821461122557601e9050611242565b61122e83611249565b61123957601c61123c565b601d5b60ff1690505b5b92915050565b6000806004836112599190611ab5565b148015611273575060006064836112709190611ab5565b14155b8061128b57506000610190836112899190611ab5565b145b9050919050565b600080fd5b6000819050919050565b6112aa81611297565b81146112b557600080fd5b50565b6000813590506112c7816112a1565b92915050565b6000819050919050565b6112e0816112cd565b81146112eb57600080fd5b50565b6000813590506112fd816112d7565b92915050565b6000806040838503121561131a57611319611292565b5b6000611328858286016112b8565b9250506020611339858286016112ee565b9150509250929050565b61134c81611297565b82525050565b60006020820190506113676000830184611343565b92915050565b600081519050919050565b600082825260208201905092915050565b60005b838110156113a757808201518184015260208101905061138c565b60008484015250505050565b6000601f19601f8301169050919050565b60006113cf8261136d565b6113d98185611378565b93506113e9818560208601611389565b6113f2816113b3565b840191505092915050565b6000604082019050818103600083015261141781856113c4565b9050818103602083015261142b81846113c4565b90509392505050565b60006020828403121561144a57611449611292565b5b6000611458848285016112b8565b91505092915050565b6000602082019050818103600083015261147b81846113c4565b905092915050565b60006040820190506114986000830185611343565b6114a56020830184611343565b9392505050565b600080604083850312156114c3576114c2611292565b5b60006114d1858286016112b8565b92505060206114e2858286016112b8565b9150509250929050565b60006060820190506115016000830186611343565b61150e6020830185611343565b61151b6040830184611343565b949350505050565b600080600080600080600060e0888a03121561154257611541611292565b5b60006115508a828b016112b8565b97505060206115618a828b016112b8565b96505060406115728a828b016112b8565b95505060606115838a828b016112b8565b94505060806115948a828b016112b8565b93505060a06115a58a828b016112b8565b92505060c06115b68a828b016112ee565b91505092959891949750929550565b600060c0820190506115da6000830189611343565b6115e76020830188611343565b6115f46040830187611343565b6116016060830186611343565b61160e6080830185611343565b61161b60a0830184611343565b979650505050505050565b600080600080608085870312156116405761163f611292565b5b600061164e878288016112b8565b945050602061165f878288016112b8565b9350506040611670878288016112b8565b9250506060611681878288016112ee565b91505092959194509250565b7f4e487b7100000000000000000000000000000000000000000000000000000000600052601160045260246000fd5b60006116c782611297565b91506116d283611297565b92508282026116e081611297565b915082820484148315176116f7576116f661168d565b5b5092915050565b600061170982611297565b915061171483611297565b925082820190508082111561172c5761172b61168d565b5b92915050565b600081905092915050565b60006117488261136d565b6117528185611732565b9350611762818560208601611389565b80840191505092915050565b7f2f00000000000000000000000000000000000000000000000000000000000000815250565b60006117a0828661173d565b91506117ab8261176e565b6001820191506117bb828561173d565b91506117c68261176e565b6001820191506117d6828461173d565b9150819050949350505050565b60006117ee82611297565b91506117f983611297565b92508282039050818111156118115761181061168d565b5b92915050565b7f3a00000000000000000000000000000000000000000000000000000000000000815250565b7f20504d0000000000000000000000000000000000000000000000000000000000815250565b600061186f828561173d565b915061187a82611817565b60018201915061188a828461173d565b91506118958261183d565b6003820191508190509392505050565b7f20414d0000000000000000000000000000000000000000000000000000000000815250565b60006118d7828561173d565b91506118e282611817565b6001820191506118f2828461173d565b91506118fd826118a5565b6003820191508190509392505050565b6000611918826112cd565b9150611923836112cd565b9250828202611931816112cd565b91507f800000000000000000000000000000000000000000000000000000000000000084146000841216156119695761196861168d565b5b828205841483151761197e5761197d61168d565b5b5092915050565b6000611990826112cd565b915061199b836112cd565b9250828201905082811215600083121683821260008412151617156119c3576119c261168d565b5b92915050565b60006119d5828561173d565b91506119e082611817565b6001820191506119f0828461173d565b91508190509392505050565b7f2000000000000000000000000000000000000000000000000000000000000000815250565b6000611a2e828561173d565b9150611a39826119fc565b600182019150611a49828461173d565b91508190509392505050565b7f4e487b7100000000000000000000000000000000000000000000000000000000600052601260045260246000fd5b6000611a8f82611297565b9150611a9a83611297565b925082611aaa57611aa9611a55565b5b828204905092915050565b6000611ac082611297565b9150611acb83611297565b925082611adb57611ada611a55565b5b828206905092915050565b6000611af1826112cd565b91507f80000000000000000000000000000000000000000000000000000000000000008203611b2357611b2261168d565b5b816000039050919050565b7f4e487b7100000000000000000000000000000000000000000000000000000000600052604160045260246000fd5b6000611b68826112cd565b9150611b73836112cd565b925082611b8357611b82611a55565b5b600160000383147f800000000000000000000000000000000000000000000000000000000000000083141615611bbc57611bbb61168d565b5b828205905092915050565b6000611bd2826112cd565b9150611bdd836112cd565b9250828203905081811260008412168282136000851215161715611c0457611c0361168d565b5b9291505056fea264697066735822122020a5b983e925535bea0ca2a8d1533a6999ea51d2480e985a56b664cb922eb3fe64736f6c63430008130033",
			"opcodes": "PUSH1 0x80 PUSH1 0x40 MSTORE CALLVALUE DUP1 ISZERO PUSH2 0x10 JUMPI PUSH1 0x0 DUP1 REVERT JUMPDEST POP PUSH2 0x1C40 DUP1 PUSH2 0x20 PUSH1 0x0 CODECOPY PUSH1 0x0 RETURN INVALID PUSH1 0x80 PUSH1 0x40 MSTORE CALLVALUE DUP1 ISZERO PUSH2 0x10 JUMPI PUSH1 0x0 DUP1 REVERT JUMPDEST POP PUSH1 0x4 CALLDATASIZE LT PUSH2 0x137 JUMPI PUSH1 0x0 CALLDATALOAD PUSH1 0xE0 SHR DUP1 PUSH4 0x7BBB7570 GT PUSH2 0xB8 JUMPI DUP1 PUSH4 0xBE9AFAC7 GT PUSH2 0x7C JUMPI DUP1 PUSH4 0xBE9AFAC7 EQ PUSH2 0x417 JUMPI DUP1 PUSH4 0xC0AD3328 EQ PUSH2 0x447 JUMPI DUP1 PUSH4 0xC7B6FD6A EQ PUSH2 0x477 JUMPI DUP1 PUSH4 0xC8DC5A22 EQ PUSH2 0x4A7 JUMPI DUP1 PUSH4 0xCF6A169C EQ PUSH2 0x4D7 JUMPI DUP1 PUSH4 0xEEE32DFF EQ PUSH2 0x507 JUMPI PUSH2 0x137 JUMP JUMPDEST DUP1 PUSH4 0x7BBB7570 EQ PUSH2 0x31E JUMPI DUP1 PUSH4 0x84A98EB9 EQ PUSH2 0x350 JUMPI DUP1 PUSH4 0x90C9F844 EQ PUSH2 0x382 JUMPI DUP1 PUSH4 0xA2DF2245 EQ PUSH2 0x3B2 JUMPI DUP1 PUSH4 0xA434F137 EQ PUSH2 0x3E7 JUMPI PUSH2 0x137 JUMP JUMPDEST DUP1 PUSH4 0x56551F26 GT PUSH2 0xFF JUMPI DUP1 PUSH4 0x56551F26 EQ PUSH2 0x22E JUMPI DUP1 PUSH4 0x576B2641 EQ PUSH2 0x25E JUMPI DUP1 PUSH4 0x6986182D EQ PUSH2 0x28E JUMPI DUP1 PUSH4 0x6AFA9DC5 EQ PUSH2 0x2BE JUMPI DUP1 PUSH4 0x7217523C EQ PUSH2 0x2EE JUMPI PUSH2 0x137 JUMP JUMPDEST DUP1 PUSH4 0x9D308CE EQ PUSH2 0x13C JUMPI DUP1 PUSH4 0x11F90965 EQ PUSH2 0x16C JUMPI DUP1 PUSH4 0x126A4BF3 EQ PUSH2 0x19D JUMPI DUP1 PUSH4 0x4B31311A EQ PUSH2 0x1CD JUMPI DUP1 PUSH4 0x4C323EDD EQ PUSH2 0x1FD JUMPI JUMPDEST PUSH1 0x0 DUP1 REVERT JUMPDEST PUSH2 0x156 PUSH1 0x4 DUP1 CALLDATASIZE SUB DUP2 ADD SWAP1 PUSH2 0x151 SWAP2 SWAP1 PUSH2 0x1303 JUMP JUMPDEST PUSH2 0x537 JUMP JUMPDEST PUSH1 0x40 MLOAD PUSH2 0x163 SWAP2 SWAP1 PUSH2 0x1352 JUMP JUMPDEST PUSH1 0x40 MLOAD DUP1 SWAP2 SUB SWAP1 RETURN JUMPDEST PUSH2 0x186 PUSH1 0x4 DUP1 CALLDATASIZE SUB DUP2 ADD SWAP1 PUSH2 0x181 SWAP2 SWAP1 PUSH2 0x1303 JUMP JUMPDEST PUSH2 0x588 JUMP JUMPDEST PUSH1 0x40 MLOAD PUSH2 0x194 SWAP3 SWAP2 SWAP1 PUSH2 0x13FD JUMP JUMPDEST PUSH1 0x40 MLOAD DUP1 SWAP2 SUB SWAP1 RETURN JUMPDEST PUSH2 0x1B7 PUSH1 0x4 DUP1 CALLDATASIZE SUB DUP2 ADD SWAP1 PUSH2 0x1B2 SWAP2 SWAP1 PUSH2 0x1303 JUMP JUMPDEST PUSH2 0x675 JUMP JUMPDEST PUSH1 0x40 MLOAD PUSH2 0x1C4 SWAP2 SWAP1 PUSH2 0x1352 JUMP JUMPDEST PUSH1 0x40 MLOAD DUP1 SWAP2 SUB SWAP1 RETURN JUMPDEST PUSH2 0x1E7 PUSH1 0x4 DUP1 CALLDATASIZE SUB DUP2 ADD SWAP1 PUSH2 0x1E2 SWAP2 SWAP1 PUSH2 0x1434 JUMP JUMPDEST PUSH2 0x6AA JUMP JUMPDEST PUSH1 0x40 MLOAD PUSH2 0x1F4 SWAP2 SWAP1 PUSH2 0x1461 JUMP JUMPDEST PUSH1 0x40 MLOAD DUP1 SWAP2 SUB SWAP1 RETURN JUMPDEST PUSH2 0x217 PUSH1 0x4 DUP1 CALLDATASIZE SUB DUP2 ADD SWAP1 PUSH2 0x212 SWAP2 SWAP1 PUSH2 0x1303 JUMP JUMPDEST PUSH2 0x706 JUMP JUMPDEST PUSH1 0x40 MLOAD PUSH2 0x225 SWAP3 SWAP2 SWAP1 PUSH2 0x1483 JUMP JUMPDEST PUSH1 0x40 MLOAD DUP1 SWAP2 SUB SWAP1 RETURN JUMPDEST PUSH2 0x248 PUSH1 0x4 DUP1 CALLDATASIZE SUB DUP2 ADD SWAP1 PUSH2 0x243 SWAP2 SWAP1 PUSH2 0x1303 JUMP JUMPDEST PUSH2 0x733 JUMP JUMPDEST PUSH1 0x40 MLOAD PUSH2 0x255 SWAP2 SWAP1 PUSH2 0x1352 JUMP JUMPDEST PUSH1 0x40 MLOAD DUP1 SWAP2 SUB SWAP1 RETURN JUMPDEST PUSH2 0x278 PUSH1 0x4 DUP1 CALLDATASIZE SUB DUP2 ADD SWAP1 PUSH2 0x273 SWAP2 SWAP1 PUSH2 0x1303 JUMP JUMPDEST PUSH2 0x75F JUMP JUMPDEST PUSH1 0x40 MLOAD PUSH2 0x285 SWAP2 SWAP1 PUSH2 0x1352 JUMP JUMPDEST PUSH1 0x40 MLOAD DUP1 SWAP2 SUB SWAP1 RETURN JUMPDEST PUSH2 0x2A8 PUSH1 0x4 DUP1 CALLDATASIZE SUB DUP2 ADD SWAP1 PUSH2 0x2A3 SWAP2 SWAP1 PUSH2 0x1303 JUMP JUMPDEST PUSH2 0x78D JUMP JUMPDEST PUSH1 0x40 MLOAD PUSH2 0x2B5 SWAP2 SWAP1 PUSH2 0x1352 JUMP JUMPDEST PUSH1 0x40 MLOAD DUP1 SWAP2 SUB SWAP1 RETURN JUMPDEST PUSH2 0x2D8 PUSH1 0x4 DUP1 CALLDATASIZE SUB DUP2 ADD SWAP1 PUSH2 0x2D3 SWAP2 SWAP1 PUSH2 0x1303 JUMP JUMPDEST PUSH2 0x7BA JUMP JUMPDEST PUSH1 0x40 MLOAD PUSH2 0x2E5 SWAP2 SWAP1 PUSH2 0x1461 JUMP JUMPDEST PUSH1 0x40 MLOAD DUP1 SWAP2 SUB SWAP1 RETURN JUMPDEST PUSH2 0x308 PUSH1 0x4 DUP1 CALLDATASIZE SUB DUP2 ADD SWAP1 PUSH2 0x303 SWAP2 SWAP1 PUSH2 0x14AC JUMP JUMPDEST PUSH2 0x880 JUMP JUMPDEST PUSH1 0x40 MLOAD PUSH2 0x315 SWAP2 SWAP1 PUSH2 0x1352 JUMP JUMPDEST PUSH1 0x40 MLOAD DUP1 SWAP2 SUB SWAP1 RETURN JUMPDEST PUSH2 0x338 PUSH1 0x4 DUP1 CALLDATASIZE SUB DUP2 ADD SWAP1 PUSH2 0x333 SWAP2 SWAP1 PUSH2 0x1434 JUMP JUMPDEST PUSH2 0x8A1 JUMP JUMPDEST PUSH1 0x40 MLOAD PUSH2 0x347 SWAP4 SWAP3 SWAP2 SWAP1 PUSH2 0x14EC JUMP JUMPDEST PUSH1 0x40 MLOAD DUP1 SWAP2 SUB SWAP1 RETURN JUMPDEST PUSH2 0x36A PUSH1 0x4 DUP1 CALLDATASIZE SUB DUP2 ADD SWAP1 PUSH2 0x365 SWAP2 SWAP1 PUSH2 0x1303 JUMP JUMPDEST PUSH2 0x8E6 JUMP JUMPDEST PUSH1 0x40 MLOAD PUSH2 0x379 SWAP4 SWAP3 SWAP2 SWAP1 PUSH2 0x14EC JUMP JUMPDEST PUSH1 0x40 MLOAD DUP1 SWAP2 SUB SWAP1 RETURN JUMPDEST PUSH2 0x39C PUSH1 0x4 DUP1 CALLDATASIZE SUB DUP2 ADD SWAP1 PUSH2 0x397 SWAP2 SWAP1 PUSH2 0x1523 JUMP JUMPDEST PUSH2 0x90D JUMP JUMPDEST PUSH1 0x40 MLOAD PUSH2 0x3A9 SWAP2 SWAP1 PUSH2 0x1352 JUMP JUMPDEST PUSH1 0x40 MLOAD DUP1 SWAP2 SUB SWAP1 RETURN JUMPDEST PUSH2 0x3CC PUSH1 0x4 DUP1 CALLDATASIZE SUB DUP2 ADD SWAP1 PUSH2 0x3C7 SWAP2 SWAP1 PUSH2 0x1303 JUMP JUMPDEST PUSH2 0x93F JUMP JUMPDEST PUSH1 0x40 MLOAD PUSH2 0x3DE SWAP7 SWAP6 SWAP5 SWAP4 SWAP3 SWAP2 SWAP1 PUSH2 0x15C5 JUMP JUMPDEST PUSH1 0x40 MLOAD DUP1 SWAP2 SUB SWAP1 RETURN JUMPDEST PUSH2 0x401 PUSH1 0x4 DUP1 CALLDATASIZE SUB DUP2 ADD SWAP1 PUSH2 0x3FC SWAP2 SWAP1 PUSH2 0x1626 JUMP JUMPDEST PUSH2 0x973 JUMP JUMPDEST PUSH1 0x40 MLOAD PUSH2 0x40E SWAP2 SWAP1 PUSH2 0x1352 JUMP JUMPDEST PUSH1 0x40 MLOAD DUP1 SWAP2 SUB SWAP1 RETURN JUMPDEST PUSH2 0x431 PUSH1 0x4 DUP1 CALLDATASIZE SUB DUP2 ADD SWAP1 PUSH2 0x42C SWAP2 SWAP1 PUSH2 0x14AC JUMP JUMPDEST PUSH2 0x98B JUMP JUMPDEST PUSH1 0x40 MLOAD PUSH2 0x43E SWAP2 SWAP1 PUSH2 0x1352 JUMP JUMPDEST PUSH1 0x40 MLOAD DUP1 SWAP2 SUB SWAP1 RETURN JUMPDEST PUSH2 0x461 PUSH1 0x4 DUP1 CALLDATASIZE SUB DUP2 ADD SWAP1 PUSH2 0x45C SWAP2 SWAP1 PUSH2 0x1626 JUMP JUMPDEST PUSH2 0x99F JUMP JUMPDEST PUSH1 0x40 MLOAD PUSH2 0x46E SWAP2 SWAP1 PUSH2 0x1352 JUMP JUMPDEST PUSH1 0x40 MLOAD DUP1 SWAP2 SUB SWAP1 RETURN JUMPDEST PUSH2 0x491 PUSH1 0x4 DUP1 CALLDATASIZE SUB DUP2 ADD SWAP1 PUSH2 0x48C SWAP2 SWAP1 PUSH2 0x14AC JUMP JUMPDEST PUSH2 0x9CB JUMP JUMPDEST PUSH1 0x40 MLOAD PUSH2 0x49E SWAP2 SWAP1 PUSH2 0x1352 JUMP JUMPDEST PUSH1 0x40 MLOAD DUP1 SWAP2 SUB SWAP1 RETURN JUMPDEST PUSH2 0x4C1 PUSH1 0x4 DUP1 CALLDATASIZE SUB DUP2 ADD SWAP1 PUSH2 0x4BC SWAP2 SWAP1 PUSH2 0x1303 JUMP JUMPDEST PUSH2 0x9EC JUMP JUMPDEST PUSH1 0x40 MLOAD PUSH2 0x4CE SWAP2 SWAP1 PUSH2 0x1352 JUMP JUMPDEST PUSH1 0x40 MLOAD DUP1 SWAP2 SUB SWAP1 RETURN JUMPDEST PUSH2 0x4F1 PUSH1 0x4 DUP1 CALLDATASIZE SUB DUP2 ADD SWAP1 PUSH2 0x4EC SWAP2 SWAP1 PUSH2 0x1303 JUMP JUMPDEST PUSH2 0xA22 JUMP JUMPDEST PUSH1 0x40 MLOAD PUSH2 0x4FE SWAP2 SWAP1 PUSH2 0x1461 JUMP JUMPDEST PUSH1 0x40 MLOAD DUP1 SWAP2 SUB SWAP1 RETURN JUMPDEST PUSH2 0x521 PUSH1 0x4 DUP1 CALLDATASIZE SUB DUP2 ADD SWAP1 PUSH2 0x51C SWAP2 SWAP1 PUSH2 0x1303 JUMP JUMPDEST PUSH2 0xA80 JUMP JUMPDEST PUSH1 0x40 MLOAD PUSH2 0x52E SWAP2 SWAP1 PUSH2 0x1352 JUMP JUMPDEST PUSH1 0x40 MLOAD DUP1 SWAP2 SUB SWAP1 RETURN JUMPDEST PUSH1 0x0 DUP1 PUSH1 0x0 DUP1 PUSH2 0x547 DUP7 DUP7 PUSH2 0x8E6 JUMP JUMPDEST SWAP3 POP SWAP3 POP SWAP3 POP DUP1 PUSH1 0x64 DUP4 PUSH2 0x55B SWAP2 SWAP1 PUSH2 0x16BC JUMP JUMPDEST PUSH2 0x2710 DUP6 PUSH2 0x569 SWAP2 SWAP1 PUSH2 0x16BC JUMP JUMPDEST PUSH2 0x573 SWAP2 SWAP1 PUSH2 0x16FE JUMP JUMPDEST PUSH2 0x57D SWAP2 SWAP1 PUSH2 0x16FE JUMP JUMPDEST SWAP4 POP POP POP POP SWAP3 SWAP2 POP POP JUMP JUMPDEST PUSH1 0x60 DUP1 PUSH1 0x0 DUP1 PUSH1 0x0 DUP1 PUSH1 0x0 PUSH2 0x59D DUP10 DUP10 PUSH2 0x93F JUMP JUMPDEST POP SWAP5 POP SWAP5 POP SWAP5 POP SWAP5 POP SWAP5 POP PUSH2 0x5B1 DUP4 PUSH2 0xAAD JUMP JUMPDEST PUSH2 0x5BA DUP6 PUSH2 0xAAD JUMP JUMPDEST PUSH2 0x5C3 DUP8 PUSH2 0xAAD JUMP JUMPDEST PUSH1 0x40 MLOAD PUSH1 0x20 ADD PUSH2 0x5D5 SWAP4 SWAP3 SWAP2 SWAP1 PUSH2 0x1794 JUMP JUMPDEST PUSH1 0x40 MLOAD PUSH1 0x20 DUP2 DUP4 SUB SUB DUP2 MSTORE SWAP1 PUSH1 0x40 MSTORE SWAP7 POP PUSH1 0xC DUP3 GT ISZERO PUSH2 0x634 JUMPI PUSH2 0x604 PUSH1 0xC DUP4 PUSH2 0x5FF SWAP2 SWAP1 PUSH2 0x17E3 JUMP JUMPDEST PUSH2 0xAAD JUMP JUMPDEST PUSH2 0x60D DUP3 PUSH2 0xAAD JUMP JUMPDEST PUSH1 0x40 MLOAD PUSH1 0x20 ADD PUSH2 0x61E SWAP3 SWAP2 SWAP1 PUSH2 0x1863 JUMP JUMPDEST PUSH1 0x40 MLOAD PUSH1 0x20 DUP2 DUP4 SUB SUB DUP2 MSTORE SWAP1 PUSH1 0x40 MSTORE SWAP6 POP PUSH2 0x669 JUMP JUMPDEST PUSH2 0x63D DUP3 PUSH2 0xAAD JUMP JUMPDEST PUSH2 0x646 DUP3 PUSH2 0xAAD JUMP JUMPDEST PUSH1 0x40 MLOAD PUSH1 0x20 ADD PUSH2 0x657 SWAP3 SWAP2 SWAP1 PUSH2 0x18CB JUMP JUMPDEST PUSH1 0x40 MLOAD PUSH1 0x20 DUP2 DUP4 SUB SUB DUP2 MSTORE SWAP1 PUSH1 0x40 MSTORE SWAP6 POP JUMPDEST POP POP POP POP POP SWAP3 POP SWAP3 SWAP1 POP JUMP JUMPDEST PUSH1 0x0 DUP1 DUP3 PUSH2 0xE10 PUSH2 0x686 SWAP2 SWAP1 PUSH2 0x190D JUMP JUMPDEST DUP5 PUSH2 0x691 SWAP2 SWAP1 PUSH2 0x1985 JUMP JUMPDEST SWAP1 POP PUSH1 0x0 DUP2 SGT PUSH2 0x6A0 JUMPI PUSH1 0x0 DUP1 REVERT JUMPDEST DUP1 SWAP2 POP POP SWAP3 SWAP2 POP POP JUMP JUMPDEST PUSH1 0x60 PUSH1 0x0 DUP1 PUSH1 0x0 PUSH2 0x6BA DUP6 PUSH2 0x8A1 JUMP JUMPDEST SWAP3 POP SWAP3 POP SWAP3 POP PUSH2 0x6C9 DUP2 PUSH2 0xAAD JUMP JUMPDEST PUSH2 0x6D2 DUP4 PUSH2 0xAAD JUMP JUMPDEST PUSH2 0x6DB DUP6 PUSH2 0xAAD JUMP JUMPDEST PUSH1 0x40 MLOAD PUSH1 0x20 ADD PUSH2 0x6ED SWAP4 SWAP3 SWAP2 SWAP1 PUSH2 0x1794 JUMP JUMPDEST PUSH1 0x40 MLOAD PUSH1 0x20 DUP2 DUP4 SUB SUB DUP2 MSTORE SWAP1 PUSH1 0x40 MSTORE SWAP4 POP POP POP POP SWAP2 SWAP1 POP JUMP JUMPDEST PUSH1 0x0 DUP1 PUSH2 0x713 DUP5 DUP5 PUSH2 0x537 JUMP JUMPDEST SWAP2 POP PUSH2 0x71F DUP5 DUP5 PUSH2 0x78D JUMP JUMPDEST DUP5 PUSH2 0x72A SWAP2 SWAP1 PUSH2 0x17E3 JUMP JUMPDEST SWAP1 POP SWAP3 POP SWAP3 SWAP1 POP JUMP JUMPDEST PUSH1 0x0 DUP1 PUSH1 0x0 DUP1 PUSH2 0x742 DUP7 PUSH2 0x8A1 JUMP JUMPDEST SWAP3 POP SWAP3 POP SWAP3 POP PUSH2 0x754 DUP4 DUP4 DUP4 DUP9 PUSH2 0x99F JUMP JUMPDEST SWAP4 POP POP POP POP SWAP3 SWAP2 POP POP JUMP JUMPDEST PUSH1 0x0 PUSH1 0x1 PUSH3 0x15180 PUSH2 0x771 DUP6 DUP6 PUSH2 0x78D JUMP JUMPDEST PUSH2 0x77B SWAP2 SWAP1 PUSH2 0x16FE JUMP JUMPDEST PUSH2 0x785 SWAP2 SWAP1 PUSH2 0x17E3 JUMP JUMPDEST SWAP1 POP SWAP3 SWAP2 POP POP JUMP JUMPDEST PUSH1 0x0 DUP1 PUSH1 0x0 DUP1 PUSH2 0x79D DUP7 DUP7 PUSH2 0x8E6 JUMP JUMPDEST SWAP3 POP SWAP3 POP SWAP3 POP PUSH2 0x7AF DUP4 DUP4 DUP4 DUP9 PUSH2 0x99F JUMP JUMPDEST SWAP4 POP POP POP POP SWAP3 SWAP2 POP POP JUMP JUMPDEST PUSH1 0x60 PUSH1 0x0 DUP1 PUSH1 0x0 DUP1 PUSH1 0x0 PUSH2 0x7CE DUP9 DUP9 PUSH2 0x93F JUMP JUMPDEST POP SWAP5 POP SWAP5 POP SWAP5 POP SWAP5 POP SWAP5 POP PUSH1 0x0 PUSH2 0x7E4 DUP5 PUSH2 0xAAD JUMP JUMPDEST PUSH2 0x7ED DUP7 PUSH2 0xAAD JUMP JUMPDEST PUSH2 0x7F6 DUP9 PUSH2 0xAAD JUMP JUMPDEST PUSH1 0x40 MLOAD PUSH1 0x20 ADD PUSH2 0x808 SWAP4 SWAP3 SWAP2 SWAP1 PUSH2 0x1794 JUMP JUMPDEST PUSH1 0x40 MLOAD PUSH1 0x20 DUP2 DUP4 SUB SUB DUP2 MSTORE SWAP1 PUSH1 0x40 MSTORE SWAP1 POP PUSH1 0x0 PUSH2 0x824 DUP5 PUSH2 0xAAD JUMP JUMPDEST PUSH2 0x82D DUP5 PUSH2 0xAAD JUMP JUMPDEST PUSH1 0x40 MLOAD PUSH1 0x20 ADD PUSH2 0x83E SWAP3 SWAP2 SWAP1 PUSH2 0x19C9 JUMP JUMPDEST PUSH1 0x40 MLOAD PUSH1 0x20 DUP2 DUP4 SUB SUB DUP2 MSTORE SWAP1 PUSH1 0x40 MSTORE SWAP1 POP DUP1 DUP3 PUSH1 0x40 MLOAD PUSH1 0x20 ADD PUSH2 0x862 SWAP3 SWAP2 SWAP1 PUSH2 0x1A22 JUMP JUMPDEST PUSH1 0x40 MLOAD PUSH1 0x20 DUP2 DUP4 SUB SUB DUP2 MSTORE SWAP1 PUSH1 0x40 MSTORE SWAP8 POP POP POP POP POP POP POP POP SWAP3 SWAP2 POP POP JUMP JUMPDEST PUSH1 0x0 PUSH2 0x88C DUP4 DUP4 PUSH2 0xB7B JUMP JUMPDEST SWAP1 POP DUP3 DUP2 LT ISZERO PUSH2 0x89B JUMPI PUSH1 0x0 DUP1 REVERT JUMPDEST SWAP3 SWAP2 POP POP JUMP JUMPDEST PUSH1 0x0 DUP1 PUSH1 0x0 PUSH2 0x2710 DUP5 PUSH2 0x8B4 SWAP2 SWAP1 PUSH2 0x1A84 JUMP JUMPDEST SWAP3 POP PUSH1 0x64 DUP1 DUP6 PUSH2 0x8C4 SWAP2 SWAP1 PUSH2 0x1A84 JUMP JUMPDEST PUSH2 0x8CE SWAP2 SWAP1 PUSH2 0x1AB5 JUMP JUMPDEST SWAP2 POP PUSH1 0x64 DUP5 PUSH2 0x8DD SWAP2 SWAP1 PUSH2 0x1AB5 JUMP JUMPDEST SWAP1 POP SWAP2 SWAP4 SWAP1 SWAP3 POP JUMP JUMPDEST PUSH1 0x0 DUP1 PUSH1 0x0 PUSH2 0x8F5 DUP6 DUP6 PUSH2 0x675 JUMP JUMPDEST SWAP5 POP PUSH2 0x900 DUP6 PUSH2 0xBAC JUMP JUMPDEST SWAP3 POP SWAP3 POP SWAP3 POP SWAP3 POP SWAP3 POP SWAP3 JUMP JUMPDEST PUSH1 0x0 PUSH2 0x91D DUP9 DUP9 DUP9 DUP9 DUP9 DUP9 PUSH2 0xBDB JUMP JUMPDEST SWAP1 POP PUSH2 0x932 DUP2 DUP4 PUSH2 0x92D SWAP1 PUSH2 0x1AE6 JUMP JUMPDEST PUSH2 0x675 JUMP JUMPDEST SWAP1 POP SWAP8 SWAP7 POP POP POP POP POP POP POP JUMP JUMPDEST PUSH1 0x0 DUP1 PUSH1 0x0 DUP1 PUSH1 0x0 DUP1 PUSH2 0x952 DUP9 DUP9 PUSH2 0x675 JUMP JUMPDEST SWAP8 POP PUSH2 0x95D DUP9 PUSH2 0xC3C JUMP JUMPDEST SWAP6 POP SWAP6 POP SWAP6 POP SWAP6 POP SWAP6 POP SWAP6 POP SWAP3 SWAP6 POP SWAP3 SWAP6 POP SWAP3 SWAP6 JUMP JUMPDEST PUSH1 0x0 PUSH2 0x981 DUP6 DUP6 DUP6 DUP6 PUSH2 0x99F JUMP JUMPDEST SWAP1 POP SWAP5 SWAP4 POP POP POP POP JUMP JUMPDEST PUSH1 0x0 PUSH2 0x997 DUP4 DUP4 PUSH2 0xCC3 JUMP JUMPDEST SWAP1 POP SWAP3 SWAP2 POP POP JUMP JUMPDEST PUSH1 0x0 PUSH2 0x9AC DUP6 DUP6 DUP6 PUSH2 0xCD7 JUMP JUMPDEST SWAP1 POP PUSH2 0x9C1 DUP2 DUP4 PUSH2 0x9BC SWAP1 PUSH2 0x1AE6 JUMP JUMPDEST PUSH2 0x675 JUMP JUMPDEST SWAP1 POP SWAP5 SWAP4 POP POP POP POP JUMP JUMPDEST PUSH1 0x0 PUSH2 0x9D7 DUP4 DUP4 PUSH2 0xCFB JUMP JUMPDEST SWAP1 POP DUP3 DUP2 GT ISZERO PUSH2 0x9E6 JUMPI PUSH1 0x0 DUP1 REVERT JUMPDEST SWAP3 SWAP2 POP POP JUMP JUMPDEST PUSH1 0x0 DUP1 PUSH1 0x0 PUSH2 0x9FB DUP6 DUP6 PUSH2 0x8E6 JUMP JUMPDEST POP SWAP2 POP SWAP2 POP DUP1 PUSH1 0x64 DUP4 PUSH2 0xA0E SWAP2 SWAP1 PUSH2 0x16BC JUMP JUMPDEST PUSH2 0xA18 SWAP2 SWAP1 PUSH2 0x16FE JUMP JUMPDEST SWAP3 POP POP POP SWAP3 SWAP2 POP POP JUMP JUMPDEST PUSH1 0x60 PUSH1 0x0 DUP1 PUSH1 0x0 PUSH2 0xA33 DUP7 DUP7 PUSH2 0x8E6 JUMP JUMPDEST SWAP3 POP SWAP3 POP SWAP3 POP PUSH2 0xA42 DUP2 PUSH2 0xAAD JUMP JUMPDEST PUSH2 0xA4B DUP4 PUSH2 0xAAD JUMP JUMPDEST PUSH2 0xA54 DUP6 PUSH2 0xAAD JUMP JUMPDEST PUSH1 0x40 MLOAD PUSH1 0x20 ADD PUSH2 0xA66 SWAP4 SWAP3 SWAP2 SWAP1 PUSH2 0x1794 JUMP JUMPDEST PUSH1 0x40 MLOAD PUSH1 0x20 DUP2 DUP4 SUB SUB DUP2 MSTORE SWAP1 PUSH1 0x40 MSTORE SWAP4 POP POP POP POP SWAP3 SWAP2 POP POP JUMP JUMPDEST PUSH1 0x0 DUP1 PUSH2 0xA8D DUP5 DUP5 PUSH2 0x733 JUMP JUMPDEST SWAP1 POP PUSH2 0xA99 DUP2 DUP5 PUSH2 0x675 JUMP JUMPDEST SWAP1 POP PUSH2 0xAA4 DUP2 PUSH2 0xD2C JUMP JUMPDEST SWAP2 POP POP SWAP3 SWAP2 POP POP JUMP JUMPDEST PUSH1 0x60 PUSH1 0x0 PUSH1 0x1 PUSH2 0xABC DUP5 PUSH2 0xD6D JUMP JUMPDEST ADD SWAP1 POP PUSH1 0x0 DUP2 PUSH8 0xFFFFFFFFFFFFFFFF DUP2 GT ISZERO PUSH2 0xADB JUMPI PUSH2 0xADA PUSH2 0x1B2E JUMP JUMPDEST JUMPDEST PUSH1 0x40 MLOAD SWAP1 DUP1 DUP3 MSTORE DUP1 PUSH1 0x1F ADD PUSH1 0x1F NOT AND PUSH1 0x20 ADD DUP3 ADD PUSH1 0x40 MSTORE DUP1 ISZERO PUSH2 0xB0D JUMPI DUP2 PUSH1 0x20 ADD PUSH1 0x1 DUP3 MUL DUP1 CALLDATASIZE DUP4 CALLDATACOPY DUP1 DUP3 ADD SWAP2 POP POP SWAP1 POP JUMPDEST POP SWAP1 POP PUSH1 0x0 DUP3 PUSH1 0x20 ADD DUP3 ADD SWAP1 POP JUMPDEST PUSH1 0x1 ISZERO PUSH2 0xB70 JUMPI DUP1 DUP1 PUSH1 0x1 SWAP1 SUB SWAP2 POP POP PUSH32 0x3031323334353637383961626364656600000000000000000000000000000000 PUSH1 0xA DUP7 MOD BYTE DUP2 MSTORE8 PUSH1 0xA DUP6 DUP2 PUSH2 0xB64 JUMPI PUSH2 0xB63 PUSH2 0x1A55 JUMP JUMPDEST JUMPDEST DIV SWAP5 POP PUSH1 0x0 DUP6 SUB PUSH2 0xB1B JUMPI JUMPDEST DUP2 SWAP4 POP POP POP POP SWAP2 SWAP1 POP JUMP JUMPDEST PUSH1 0x0 PUSH3 0x15180 DUP3 PUSH2 0xB8C SWAP2 SWAP1 PUSH2 0x16BC JUMP JUMPDEST DUP4 PUSH2 0xB97 SWAP2 SWAP1 PUSH2 0x16FE JUMP JUMPDEST SWAP1 POP DUP3 DUP2 LT ISZERO PUSH2 0xBA6 JUMPI PUSH1 0x0 DUP1 REVERT JUMPDEST SWAP3 SWAP2 POP POP JUMP JUMPDEST PUSH1 0x0 DUP1 PUSH1 0x0 PUSH2 0xBC8 PUSH3 0x15180 DUP6 PUSH2 0xBC3 SWAP2 SWAP1 PUSH2 0x1A84 JUMP JUMPDEST PUSH2 0xEC0 JUMP JUMPDEST DUP1 SWAP4 POP DUP2 SWAP5 POP DUP3 SWAP6 POP POP POP POP SWAP2 SWAP4 SWAP1 SWAP3 POP JUMP JUMPDEST PUSH1 0x0 DUP2 PUSH1 0x3C DUP5 PUSH2 0xBEB SWAP2 SWAP1 PUSH2 0x16BC JUMP JUMPDEST PUSH2 0xE10 DUP7 PUSH2 0xBF9 SWAP2 SWAP1 PUSH2 0x16BC JUMP JUMPDEST PUSH3 0x15180 PUSH2 0xC08 DUP12 DUP12 DUP12 PUSH2 0x105F JUMP JUMPDEST PUSH2 0xC12 SWAP2 SWAP1 PUSH2 0x16BC JUMP JUMPDEST PUSH2 0xC1C SWAP2 SWAP1 PUSH2 0x16FE JUMP JUMPDEST PUSH2 0xC26 SWAP2 SWAP1 PUSH2 0x16FE JUMP JUMPDEST PUSH2 0xC30 SWAP2 SWAP1 PUSH2 0x16FE JUMP JUMPDEST SWAP1 POP SWAP7 SWAP6 POP POP POP POP POP POP JUMP JUMPDEST PUSH1 0x0 DUP1 PUSH1 0x0 DUP1 PUSH1 0x0 DUP1 PUSH2 0xC5C PUSH3 0x15180 DUP9 PUSH2 0xC57 SWAP2 SWAP1 PUSH2 0x1A84 JUMP JUMPDEST PUSH2 0xEC0 JUMP JUMPDEST DUP1 SWAP7 POP DUP2 SWAP8 POP DUP3 SWAP9 POP POP POP POP PUSH1 0x0 PUSH3 0x15180 DUP9 PUSH2 0xC79 SWAP2 SWAP1 PUSH2 0x1AB5 JUMP JUMPDEST SWAP1 POP PUSH2 0xE10 DUP2 PUSH2 0xC89 SWAP2 SWAP1 PUSH2 0x1A84 JUMP JUMPDEST SWAP4 POP PUSH2 0xE10 DUP2 PUSH2 0xC99 SWAP2 SWAP1 PUSH2 0x1AB5 JUMP JUMPDEST SWAP1 POP PUSH1 0x3C DUP2 PUSH2 0xCA8 SWAP2 SWAP1 PUSH2 0x1A84 JUMP JUMPDEST SWAP3 POP PUSH1 0x3C DUP2 PUSH2 0xCB7 SWAP2 SWAP1 PUSH2 0x1AB5 JUMP JUMPDEST SWAP2 POP POP SWAP2 SWAP4 SWAP6 POP SWAP2 SWAP4 SWAP6 JUMP JUMPDEST PUSH1 0x0 PUSH2 0xCCF DUP4 DUP4 PUSH2 0x11BE JUMP JUMPDEST SWAP1 POP SWAP3 SWAP2 POP POP JUMP JUMPDEST PUSH1 0x0 PUSH3 0x15180 PUSH2 0xCE8 DUP6 DUP6 DUP6 PUSH2 0x105F JUMP JUMPDEST PUSH2 0xCF2 SWAP2 SWAP1 PUSH2 0x16BC JUMP JUMPDEST SWAP1 POP SWAP4 SWAP3 POP POP POP JUMP JUMPDEST PUSH1 0x0 PUSH3 0x15180 DUP3 PUSH2 0xD0C SWAP2 SWAP1 PUSH2 0x16BC JUMP JUMPDEST DUP4 PUSH2 0xD17 SWAP2 SWAP1 PUSH2 0x17E3 JUMP JUMPDEST SWAP1 POP DUP3 DUP2 GT ISZERO PUSH2 0xD26 JUMPI PUSH1 0x0 DUP1 REVERT JUMPDEST SWAP3 SWAP2 POP POP JUMP JUMPDEST PUSH1 0x0 DUP1 PUSH3 0x15180 DUP4 PUSH2 0xD3E SWAP2 SWAP1 PUSH2 0x1A84 JUMP JUMPDEST SWAP1 POP PUSH1 0x1 PUSH1 0x7 PUSH1 0x3 DUP4 PUSH2 0xD51 SWAP2 SWAP1 PUSH2 0x16FE JUMP JUMPDEST PUSH2 0xD5B SWAP2 SWAP1 PUSH2 0x1AB5 JUMP JUMPDEST PUSH2 0xD65 SWAP2 SWAP1 PUSH2 0x16FE JUMP JUMPDEST SWAP2 POP POP SWAP2 SWAP1 POP JUMP JUMPDEST PUSH1 0x0 DUP1 PUSH1 0x0 SWAP1 POP PUSH27 0x184F03E93FF9F4DAA797ED6E38ED64BF6A1F010000000000000000 DUP4 LT PUSH2 0xDCB JUMPI PUSH27 0x184F03E93FF9F4DAA797ED6E38ED64BF6A1F010000000000000000 DUP4 DUP2 PUSH2 0xDC1 JUMPI PUSH2 0xDC0 PUSH2 0x1A55 JUMP JUMPDEST JUMPDEST DIV SWAP3 POP PUSH1 0x40 DUP2 ADD SWAP1 POP JUMPDEST PUSH14 0x4EE2D6D415B85ACEF8100000000 DUP4 LT PUSH2 0xE08 JUMPI PUSH14 0x4EE2D6D415B85ACEF8100000000 DUP4 DUP2 PUSH2 0xDFE JUMPI PUSH2 0xDFD PUSH2 0x1A55 JUMP JUMPDEST JUMPDEST DIV SWAP3 POP PUSH1 0x20 DUP2 ADD SWAP1 POP JUMPDEST PUSH7 0x2386F26FC10000 DUP4 LT PUSH2 0xE37 JUMPI PUSH7 0x2386F26FC10000 DUP4 DUP2 PUSH2 0xE2D JUMPI PUSH2 0xE2C PUSH2 0x1A55 JUMP JUMPDEST JUMPDEST DIV SWAP3 POP PUSH1 0x10 DUP2 ADD SWAP1 POP JUMPDEST PUSH4 0x5F5E100 DUP4 LT PUSH2 0xE60 JUMPI PUSH4 0x5F5E100 DUP4 DUP2 PUSH2 0xE56 JUMPI PUSH2 0xE55 PUSH2 0x1A55 JUMP JUMPDEST JUMPDEST DIV SWAP3 POP PUSH1 0x8 DUP2 ADD SWAP1 POP JUMPDEST PUSH2 0x2710 DUP4 LT PUSH2 0xE85 JUMPI PUSH2 0x2710 DUP4 DUP2 PUSH2 0xE7B JUMPI PUSH2 0xE7A PUSH2 0x1A55 JUMP JUMPDEST JUMPDEST DIV SWAP3 POP PUSH1 0x4 DUP2 ADD SWAP1 POP JUMPDEST PUSH1 0x64 DUP4 LT PUSH2 0xEA8 JUMPI PUSH1 0x64 DUP4 DUP2 PUSH2 0xE9E JUMPI PUSH2 0xE9D PUSH2 0x1A55 JUMP JUMPDEST JUMPDEST DIV SWAP3 POP PUSH1 0x2 DUP2 ADD SWAP1 POP JUMPDEST PUSH1 0xA DUP4 LT PUSH2 0xEB7 JUMPI PUSH1 0x1 DUP2 ADD SWAP1 POP JUMPDEST DUP1 SWAP2 POP POP SWAP2 SWAP1 POP JUMP JUMPDEST PUSH1 0x0 DUP1 PUSH1 0x0 DUP1 DUP5 SWAP1 POP PUSH1 0x0 PUSH3 0x253D8C PUSH3 0x10BD9 DUP4 PUSH2 0xEDE SWAP2 SWAP1 PUSH2 0x1985 JUMP JUMPDEST PUSH2 0xEE8 SWAP2 SWAP1 PUSH2 0x1985 JUMP JUMPDEST SWAP1 POP PUSH1 0x0 PUSH3 0x23AB1 DUP3 PUSH1 0x4 PUSH2 0xEFD SWAP2 SWAP1 PUSH2 0x190D JUMP JUMPDEST PUSH2 0xF07 SWAP2 SWAP1 PUSH2 0x1B5D JUMP JUMPDEST SWAP1 POP PUSH1 0x4 PUSH1 0x3 DUP3 PUSH3 0x23AB1 PUSH2 0xF1C SWAP2 SWAP1 PUSH2 0x190D JUMP JUMPDEST PUSH2 0xF26 SWAP2 SWAP1 PUSH2 0x1985 JUMP JUMPDEST PUSH2 0xF30 SWAP2 SWAP1 PUSH2 0x1B5D JUMP JUMPDEST DUP3 PUSH2 0xF3B SWAP2 SWAP1 PUSH2 0x1BC7 JUMP JUMPDEST SWAP2 POP PUSH1 0x0 PUSH3 0x164B09 PUSH1 0x1 DUP5 PUSH2 0xF50 SWAP2 SWAP1 PUSH2 0x1985 JUMP JUMPDEST PUSH2 0xFA0 PUSH2 0xF5D SWAP2 SWAP1 PUSH2 0x190D JUMP JUMPDEST PUSH2 0xF67 SWAP2 SWAP1 PUSH2 0x1B5D JUMP JUMPDEST SWAP1 POP PUSH1 0x1F PUSH1 0x4 DUP3 PUSH2 0x5B5 PUSH2 0xF7B SWAP2 SWAP1 PUSH2 0x190D JUMP JUMPDEST PUSH2 0xF85 SWAP2 SWAP1 PUSH2 0x1B5D JUMP JUMPDEST DUP5 PUSH2 0xF90 SWAP2 SWAP1 PUSH2 0x1BC7 JUMP JUMPDEST PUSH2 0xF9A SWAP2 SWAP1 PUSH2 0x1985 JUMP JUMPDEST SWAP3 POP PUSH1 0x0 PUSH2 0x98F DUP5 PUSH1 0x50 PUSH2 0xFAE SWAP2 SWAP1 PUSH2 0x190D JUMP JUMPDEST PUSH2 0xFB8 SWAP2 SWAP1 PUSH2 0x1B5D JUMP JUMPDEST SWAP1 POP PUSH1 0x0 PUSH1 0x50 DUP3 PUSH2 0x98F PUSH2 0xFCC SWAP2 SWAP1 PUSH2 0x190D JUMP JUMPDEST PUSH2 0xFD6 SWAP2 SWAP1 PUSH2 0x1B5D JUMP JUMPDEST DUP6 PUSH2 0xFE1 SWAP2 SWAP1 PUSH2 0x1BC7 JUMP JUMPDEST SWAP1 POP PUSH1 0xB DUP3 PUSH2 0xFF0 SWAP2 SWAP1 PUSH2 0x1B5D JUMP JUMPDEST SWAP5 POP DUP5 PUSH1 0xC PUSH2 0xFFF SWAP2 SWAP1 PUSH2 0x190D JUMP JUMPDEST PUSH1 0x2 DUP4 PUSH2 0x100C SWAP2 SWAP1 PUSH2 0x1985 JUMP JUMPDEST PUSH2 0x1016 SWAP2 SWAP1 PUSH2 0x1BC7 JUMP JUMPDEST SWAP2 POP DUP5 DUP4 PUSH1 0x31 DUP7 PUSH2 0x1027 SWAP2 SWAP1 PUSH2 0x1BC7 JUMP JUMPDEST PUSH1 0x64 PUSH2 0x1033 SWAP2 SWAP1 PUSH2 0x190D JUMP JUMPDEST PUSH2 0x103D SWAP2 SWAP1 PUSH2 0x1985 JUMP JUMPDEST PUSH2 0x1047 SWAP2 SWAP1 PUSH2 0x1985 JUMP JUMPDEST SWAP3 POP DUP3 SWAP9 POP DUP2 SWAP8 POP DUP1 SWAP7 POP POP POP POP POP POP POP SWAP2 SWAP4 SWAP1 SWAP3 POP JUMP JUMPDEST PUSH1 0x0 PUSH2 0x7B2 DUP5 LT ISZERO PUSH2 0x1070 JUMPI PUSH1 0x0 DUP1 REVERT JUMPDEST PUSH1 0x0 DUP5 SWAP1 POP PUSH1 0x0 DUP5 SWAP1 POP PUSH1 0x0 DUP5 SWAP1 POP PUSH1 0x0 PUSH3 0x253D8C PUSH1 0x4 PUSH1 0x64 PUSH1 0xC PUSH1 0xE DUP8 PUSH2 0x1098 SWAP2 SWAP1 PUSH2 0x1BC7 JUMP JUMPDEST PUSH2 0x10A2 SWAP2 SWAP1 PUSH2 0x1B5D JUMP JUMPDEST PUSH2 0x1324 DUP9 PUSH2 0x10B0 SWAP2 SWAP1 PUSH2 0x1985 JUMP JUMPDEST PUSH2 0x10BA SWAP2 SWAP1 PUSH2 0x1985 JUMP JUMPDEST PUSH2 0x10C4 SWAP2 SWAP1 PUSH2 0x1B5D JUMP JUMPDEST PUSH1 0x3 PUSH2 0x10D0 SWAP2 SWAP1 PUSH2 0x190D JUMP JUMPDEST PUSH2 0x10DA SWAP2 SWAP1 PUSH2 0x1B5D JUMP JUMPDEST PUSH1 0xC DUP1 PUSH1 0xC PUSH1 0xE DUP9 PUSH2 0x10EC SWAP2 SWAP1 PUSH2 0x1BC7 JUMP JUMPDEST PUSH2 0x10F6 SWAP2 SWAP1 PUSH2 0x1B5D JUMP JUMPDEST PUSH2 0x1100 SWAP2 SWAP1 PUSH2 0x190D JUMP JUMPDEST PUSH1 0x2 DUP8 PUSH2 0x110D SWAP2 SWAP1 PUSH2 0x1BC7 JUMP JUMPDEST PUSH2 0x1117 SWAP2 SWAP1 PUSH2 0x1BC7 JUMP JUMPDEST PUSH2 0x16F PUSH2 0x1124 SWAP2 SWAP1 PUSH2 0x190D JUMP JUMPDEST PUSH2 0x112E SWAP2 SWAP1 PUSH2 0x1B5D JUMP JUMPDEST PUSH1 0x4 PUSH1 0xC PUSH1 0xE DUP9 PUSH2 0x113F SWAP2 SWAP1 PUSH2 0x1BC7 JUMP JUMPDEST PUSH2 0x1149 SWAP2 SWAP1 PUSH2 0x1B5D JUMP JUMPDEST PUSH2 0x12C0 DUP10 PUSH2 0x1157 SWAP2 SWAP1 PUSH2 0x1985 JUMP JUMPDEST PUSH2 0x1161 SWAP2 SWAP1 PUSH2 0x1985 JUMP JUMPDEST PUSH2 0x5B5 PUSH2 0x116E SWAP2 SWAP1 PUSH2 0x190D JUMP JUMPDEST PUSH2 0x1178 SWAP2 SWAP1 PUSH2 0x1B5D JUMP JUMPDEST PUSH2 0x7D4B DUP7 PUSH2 0x1186 SWAP2 SWAP1 PUSH2 0x1BC7 JUMP JUMPDEST PUSH2 0x1190 SWAP2 SWAP1 PUSH2 0x1985 JUMP JUMPDEST PUSH2 0x119A SWAP2 SWAP1 PUSH2 0x1985 JUMP JUMPDEST PUSH2 0x11A4 SWAP2 SWAP1 PUSH2 0x1BC7 JUMP JUMPDEST PUSH2 0x11AE SWAP2 SWAP1 PUSH2 0x1BC7 JUMP JUMPDEST SWAP1 POP DUP1 SWAP5 POP POP POP POP POP SWAP4 SWAP3 POP POP POP JUMP JUMPDEST PUSH1 0x0 PUSH1 0x1 DUP3 EQ DUP1 PUSH2 0x11CF JUMPI POP PUSH1 0x3 DUP3 EQ JUMPDEST DUP1 PUSH2 0x11DA JUMPI POP PUSH1 0x5 DUP3 EQ JUMPDEST DUP1 PUSH2 0x11E5 JUMPI POP PUSH1 0x7 DUP3 EQ JUMPDEST DUP1 PUSH2 0x11F0 JUMPI POP PUSH1 0x8 DUP3 EQ JUMPDEST DUP1 PUSH2 0x11FB JUMPI POP PUSH1 0xA DUP3 EQ JUMPDEST DUP1 PUSH2 0x1206 JUMPI POP PUSH1 0xC DUP3 EQ JUMPDEST ISZERO PUSH2 0x1214 JUMPI PUSH1 0x1F SWAP1 POP PUSH2 0x1243 JUMP JUMPDEST PUSH1 0x2 DUP3 EQ PUSH2 0x1225 JUMPI PUSH1 0x1E SWAP1 POP PUSH2 0x1242 JUMP JUMPDEST PUSH2 0x122E DUP4 PUSH2 0x1249 JUMP JUMPDEST PUSH2 0x1239 JUMPI PUSH1 0x1C PUSH2 0x123C JUMP JUMPDEST PUSH1 0x1D JUMPDEST PUSH1 0xFF AND SWAP1 POP JUMPDEST JUMPDEST SWAP3 SWAP2 POP POP JUMP JUMPDEST PUSH1 0x0 DUP1 PUSH1 0x4 DUP4 PUSH2 0x1259 SWAP2 SWAP1 PUSH2 0x1AB5 JUMP JUMPDEST EQ DUP1 ISZERO PUSH2 0x1273 JUMPI POP PUSH1 0x0 PUSH1 0x64 DUP4 PUSH2 0x1270 SWAP2 SWAP1 PUSH2 0x1AB5 JUMP JUMPDEST EQ ISZERO JUMPDEST DUP1 PUSH2 0x128B JUMPI POP PUSH1 0x0 PUSH2 0x190 DUP4 PUSH2 0x1289 SWAP2 SWAP1 PUSH2 0x1AB5 JUMP JUMPDEST EQ JUMPDEST SWAP1 POP SWAP2 SWAP1 POP JUMP JUMPDEST PUSH1 0x0 DUP1 REVERT JUMPDEST PUSH1 0x0 DUP2 SWAP1 POP SWAP2 SWAP1 POP JUMP JUMPDEST PUSH2 0x12AA DUP2 PUSH2 0x1297 JUMP JUMPDEST DUP2 EQ PUSH2 0x12B5 JUMPI PUSH1 0x0 DUP1 REVERT JUMPDEST POP JUMP JUMPDEST PUSH1 0x0 DUP2 CALLDATALOAD SWAP1 POP PUSH2 0x12C7 DUP2 PUSH2 0x12A1 JUMP JUMPDEST SWAP3 SWAP2 POP POP JUMP JUMPDEST PUSH1 0x0 DUP2 SWAP1 POP SWAP2 SWAP1 POP JUMP JUMPDEST PUSH2 0x12E0 DUP2 PUSH2 0x12CD JUMP JUMPDEST DUP2 EQ PUSH2 0x12EB JUMPI PUSH1 0x0 DUP1 REVERT JUMPDEST POP JUMP JUMPDEST PUSH1 0x0 DUP2 CALLDATALOAD SWAP1 POP PUSH2 0x12FD DUP2 PUSH2 0x12D7 JUMP JUMPDEST SWAP3 SWAP2 POP POP JUMP JUMPDEST PUSH1 0x0 DUP1 PUSH1 0x40 DUP4 DUP6 SUB SLT ISZERO PUSH2 0x131A JUMPI PUSH2 0x1319 PUSH2 0x1292 JUMP JUMPDEST JUMPDEST PUSH1 0x0 PUSH2 0x1328 DUP6 DUP3 DUP7 ADD PUSH2 0x12B8 JUMP JUMPDEST SWAP3 POP POP PUSH1 0x20 PUSH2 0x1339 DUP6 DUP3 DUP7 ADD PUSH2 0x12EE JUMP JUMPDEST SWAP2 POP POP SWAP3 POP SWAP3 SWAP1 POP JUMP JUMPDEST PUSH2 0x134C DUP2 PUSH2 0x1297 JUMP JUMPDEST DUP3 MSTORE POP POP JUMP JUMPDEST PUSH1 0x0 PUSH1 0x20 DUP3 ADD SWAP1 POP PUSH2 0x1367 PUSH1 0x0 DUP4 ADD DUP5 PUSH2 0x1343 JUMP JUMPDEST SWAP3 SWAP2 POP POP JUMP JUMPDEST PUSH1 0x0 DUP2 MLOAD SWAP1 POP SWAP2 SWAP1 POP JUMP JUMPDEST PUSH1 0x0 DUP3 DUP3 MSTORE PUSH1 0x20 DUP3 ADD SWAP1 POP SWAP3 SWAP2 POP POP JUMP JUMPDEST PUSH1 0x0 JUMPDEST DUP4 DUP2 LT ISZERO PUSH2 0x13A7 JUMPI DUP1 DUP3 ADD MLOAD DUP2 DUP5 ADD MSTORE PUSH1 0x20 DUP2 ADD SWAP1 POP PUSH2 0x138C JUMP JUMPDEST PUSH1 0x0 DUP5 DUP5 ADD MSTORE POP POP POP POP JUMP JUMPDEST PUSH1 0x0 PUSH1 0x1F NOT PUSH1 0x1F DUP4 ADD AND SWAP1 POP SWAP2 SWAP1 POP JUMP JUMPDEST PUSH1 0x0 PUSH2 0x13CF DUP3 PUSH2 0x136D JUMP JUMPDEST PUSH2 0x13D9 DUP2 DUP6 PUSH2 0x1378 JUMP JUMPDEST SWAP4 POP PUSH2 0x13E9 DUP2 DUP6 PUSH1 0x20 DUP7 ADD PUSH2 0x1389 JUMP JUMPDEST PUSH2 0x13F2 DUP2 PUSH2 0x13B3 JUMP JUMPDEST DUP5 ADD SWAP2 POP POP SWAP3 SWAP2 POP POP JUMP JUMPDEST PUSH1 0x0 PUSH1 0x40 DUP3 ADD SWAP1 POP DUP2 DUP2 SUB PUSH1 0x0 DUP4 ADD MSTORE PUSH2 0x1417 DUP2 DUP6 PUSH2 0x13C4 JUMP JUMPDEST SWAP1 POP DUP2 DUP2 SUB PUSH1 0x20 DUP4 ADD MSTORE PUSH2 0x142B DUP2 DUP5 PUSH2 0x13C4 JUMP JUMPDEST SWAP1 POP SWAP4 SWAP3 POP POP POP JUMP JUMPDEST PUSH1 0x0 PUSH1 0x20 DUP3 DUP5 SUB SLT ISZERO PUSH2 0x144A JUMPI PUSH2 0x1449 PUSH2 0x1292 JUMP JUMPDEST JUMPDEST PUSH1 0x0 PUSH2 0x1458 DUP5 DUP3 DUP6 ADD PUSH2 0x12B8 JUMP JUMPDEST SWAP2 POP POP SWAP3 SWAP2 POP POP JUMP JUMPDEST PUSH1 0x0 PUSH1 0x20 DUP3 ADD SWAP1 POP DUP2 DUP2 SUB PUSH1 0x0 DUP4 ADD MSTORE PUSH2 0x147B DUP2 DUP5 PUSH2 0x13C4 JUMP JUMPDEST SWAP1 POP SWAP3 SWAP2 POP POP JUMP JUMPDEST PUSH1 0x0 PUSH1 0x40 DUP3 ADD SWAP1 POP PUSH2 0x1498 PUSH1 0x0 DUP4 ADD DUP6 PUSH2 0x1343 JUMP JUMPDEST PUSH2 0x14A5 PUSH1 0x20 DUP4 ADD DUP5 PUSH2 0x1343 JUMP JUMPDEST SWAP4 SWAP3 POP POP POP JUMP JUMPDEST PUSH1 0x0 DUP1 PUSH1 0x40 DUP4 DUP6 SUB SLT ISZERO PUSH2 0x14C3 JUMPI PUSH2 0x14C2 PUSH2 0x1292 JUMP JUMPDEST JUMPDEST PUSH1 0x0 PUSH2 0x14D1 DUP6 DUP3 DUP7 ADD PUSH2 0x12B8 JUMP JUMPDEST SWAP3 POP POP PUSH1 0x20 PUSH2 0x14E2 DUP6 DUP3 DUP7 ADD PUSH2 0x12B8 JUMP JUMPDEST SWAP2 POP POP SWAP3 POP SWAP3 SWAP1 POP JUMP JUMPDEST PUSH1 0x0 PUSH1 0x60 DUP3 ADD SWAP1 POP PUSH2 0x1501 PUSH1 0x0 DUP4 ADD DUP7 PUSH2 0x1343 JUMP JUMPDEST PUSH2 0x150E PUSH1 0x20 DUP4 ADD DUP6 PUSH2 0x1343 JUMP JUMPDEST PUSH2 0x151B PUSH1 0x40 DUP4 ADD DUP5 PUSH2 0x1343 JUMP JUMPDEST SWAP5 SWAP4 POP POP POP POP JUMP JUMPDEST PUSH1 0x0 DUP1 PUSH1 0x0 DUP1 PUSH1 0x0 DUP1 PUSH1 0x0 PUSH1 0xE0 DUP9 DUP11 SUB SLT ISZERO PUSH2 0x1542 JUMPI PUSH2 0x1541 PUSH2 0x1292 JUMP JUMPDEST JUMPDEST PUSH1 0x0 PUSH2 0x1550 DUP11 DUP3 DUP12 ADD PUSH2 0x12B8 JUMP JUMPDEST SWAP8 POP POP PUSH1 0x20 PUSH2 0x1561 DUP11 DUP3 DUP12 ADD PUSH2 0x12B8 JUMP JUMPDEST SWAP7 POP POP PUSH1 0x40 PUSH2 0x1572 DUP11 DUP3 DUP12 ADD PUSH2 0x12B8 JUMP JUMPDEST SWAP6 POP POP PUSH1 0x60 PUSH2 0x1583 DUP11 DUP3 DUP12 ADD PUSH2 0x12B8 JUMP JUMPDEST SWAP5 POP POP PUSH1 0x80 PUSH2 0x1594 DUP11 DUP3 DUP12 ADD PUSH2 0x12B8 JUMP JUMPDEST SWAP4 POP POP PUSH1 0xA0 PUSH2 0x15A5 DUP11 DUP3 DUP12 ADD PUSH2 0x12B8 JUMP JUMPDEST SWAP3 POP POP PUSH1 0xC0 PUSH2 0x15B6 DUP11 DUP3 DUP12 ADD PUSH2 0x12EE JUMP JUMPDEST SWAP2 POP POP SWAP3 SWAP6 SWAP9 SWAP2 SWAP5 SWAP8 POP SWAP3 SWAP6 POP JUMP JUMPDEST PUSH1 0x0 PUSH1 0xC0 DUP3 ADD SWAP1 POP PUSH2 0x15DA PUSH1 0x0 DUP4 ADD DUP10 PUSH2 0x1343 JUMP JUMPDEST PUSH2 0x15E7 PUSH1 0x20 DUP4 ADD DUP9 PUSH2 0x1343 JUMP JUMPDEST PUSH2 0x15F4 PUSH1 0x40 DUP4 ADD DUP8 PUSH2 0x1343 JUMP JUMPDEST PUSH2 0x1601 PUSH1 0x60 DUP4 ADD DUP7 PUSH2 0x1343 JUMP JUMPDEST PUSH2 0x160E PUSH1 0x80 DUP4 ADD DUP6 PUSH2 0x1343 JUMP JUMPDEST PUSH2 0x161B PUSH1 0xA0 DUP4 ADD DUP5 PUSH2 0x1343 JUMP JUMPDEST SWAP8 SWAP7 POP POP POP POP POP POP POP JUMP JUMPDEST PUSH1 0x0 DUP1 PUSH1 0x0 DUP1 PUSH1 0x80 DUP6 DUP8 SUB SLT ISZERO PUSH2 0x1640 JUMPI PUSH2 0x163F PUSH2 0x1292 JUMP JUMPDEST JUMPDEST PUSH1 0x0 PUSH2 0x164E DUP8 DUP3 DUP9 ADD PUSH2 0x12B8 JUMP JUMPDEST SWAP5 POP POP PUSH1 0x20 PUSH2 0x165F DUP8 DUP3 DUP9 ADD PUSH2 0x12B8 JUMP JUMPDEST SWAP4 POP POP PUSH1 0x40 PUSH2 0x1670 DUP8 DUP3 DUP9 ADD PUSH2 0x12B8 JUMP JUMPDEST SWAP3 POP POP PUSH1 0x60 PUSH2 0x1681 DUP8 DUP3 DUP9 ADD PUSH2 0x12EE JUMP JUMPDEST SWAP2 POP POP SWAP3 SWAP6 SWAP2 SWAP5 POP SWAP3 POP JUMP JUMPDEST PUSH32 0x4E487B7100000000000000000000000000000000000000000000000000000000 PUSH1 0x0 MSTORE PUSH1 0x11 PUSH1 0x4 MSTORE PUSH1 0x24 PUSH1 0x0 REVERT JUMPDEST PUSH1 0x0 PUSH2 0x16C7 DUP3 PUSH2 0x1297 JUMP JUMPDEST SWAP2 POP PUSH2 0x16D2 DUP4 PUSH2 0x1297 JUMP JUMPDEST SWAP3 POP DUP3 DUP3 MUL PUSH2 0x16E0 DUP2 PUSH2 0x1297 JUMP JUMPDEST SWAP2 POP DUP3 DUP3 DIV DUP5 EQ DUP4 ISZERO OR PUSH2 0x16F7 JUMPI PUSH2 0x16F6 PUSH2 0x168D JUMP JUMPDEST JUMPDEST POP SWAP3 SWAP2 POP POP JUMP JUMPDEST PUSH1 0x0 PUSH2 0x1709 DUP3 PUSH2 0x1297 JUMP JUMPDEST SWAP2 POP PUSH2 0x1714 DUP4 PUSH2 0x1297 JUMP JUMPDEST SWAP3 POP DUP3 DUP3 ADD SWAP1 POP DUP1 DUP3 GT ISZERO PUSH2 0x172C JUMPI PUSH2 0x172B PUSH2 0x168D JUMP JUMPDEST JUMPDEST SWAP3 SWAP2 POP POP JUMP JUMPDEST PUSH1 0x0 DUP2 SWAP1 POP SWAP3 SWAP2 POP POP JUMP JUMPDEST PUSH1 0x0 PUSH2 0x1748 DUP3 PUSH2 0x136D JUMP JUMPDEST PUSH2 0x1752 DUP2 DUP6 PUSH2 0x1732 JUMP JUMPDEST SWAP4 POP PUSH2 0x1762 DUP2 DUP6 PUSH1 0x20 DUP7 ADD PUSH2 0x1389 JUMP JUMPDEST DUP1 DUP5 ADD SWAP2 POP POP SWAP3 SWAP2 POP POP JUMP JUMPDEST PUSH32 0x2F00000000000000000000000000000000000000000000000000000000000000 DUP2 MSTORE POP JUMP JUMPDEST PUSH1 0x0 PUSH2 0x17A0 DUP3 DUP7 PUSH2 0x173D JUMP JUMPDEST SWAP2 POP PUSH2 0x17AB DUP3 PUSH2 0x176E JUMP JUMPDEST PUSH1 0x1 DUP3 ADD SWAP2 POP PUSH2 0x17BB DUP3 DUP6 PUSH2 0x173D JUMP JUMPDEST SWAP2 POP PUSH2 0x17C6 DUP3 PUSH2 0x176E JUMP JUMPDEST PUSH1 0x1 DUP3 ADD SWAP2 POP PUSH2 0x17D6 DUP3 DUP5 PUSH2 0x173D JUMP JUMPDEST SWAP2 POP DUP2 SWAP1 POP SWAP5 SWAP4 POP POP POP POP JUMP JUMPDEST PUSH1 0x0 PUSH2 0x17EE DUP3 PUSH2 0x1297 JUMP JUMPDEST SWAP2 POP PUSH2 0x17F9 DUP4 PUSH2 0x1297 JUMP JUMPDEST SWAP3 POP DUP3 DUP3 SUB SWAP1 POP DUP2 DUP2 GT ISZERO PUSH2 0x1811 JUMPI PUSH2 0x1810 PUSH2 0x168D JUMP JUMPDEST JUMPDEST SWAP3 SWAP2 POP POP JUMP JUMPDEST PUSH32 0x3A00000000000000000000000000000000000000000000000000000000000000 DUP2 MSTORE POP JUMP JUMPDEST PUSH32 0x20504D0000000000000000000000000000000000000000000000000000000000 DUP2 MSTORE POP JUMP JUMPDEST PUSH1 0x0 PUSH2 0x186F DUP3 DUP6 PUSH2 0x173D JUMP JUMPDEST SWAP2 POP PUSH2 0x187A DUP3 PUSH2 0x1817 JUMP JUMPDEST PUSH1 0x1 DUP3 ADD SWAP2 POP PUSH2 0x188A DUP3 DUP5 PUSH2 0x173D JUMP JUMPDEST SWAP2 POP PUSH2 0x1895 DUP3 PUSH2 0x183D JUMP JUMPDEST PUSH1 0x3 DUP3 ADD SWAP2 POP DUP2 SWAP1 POP SWAP4 SWAP3 POP POP POP JUMP JUMPDEST PUSH32 0x20414D0000000000000000000000000000000000000000000000000000000000 DUP2 MSTORE POP JUMP JUMPDEST PUSH1 0x0 PUSH2 0x18D7 DUP3 DUP6 PUSH2 0x173D JUMP JUMPDEST SWAP2 POP PUSH2 0x18E2 DUP3 PUSH2 0x1817 JUMP JUMPDEST PUSH1 0x1 DUP3 ADD SWAP2 POP PUSH2 0x18F2 DUP3 DUP5 PUSH2 0x173D JUMP JUMPDEST SWAP2 POP PUSH2 0x18FD DUP3 PUSH2 0x18A5 JUMP JUMPDEST PUSH1 0x3 DUP3 ADD SWAP2 POP DUP2 SWAP1 POP SWAP4 SWAP3 POP POP POP JUMP JUMPDEST PUSH1 0x0 PUSH2 0x1918 DUP3 PUSH2 0x12CD JUMP JUMPDEST SWAP2 POP PUSH2 0x1923 DUP4 PUSH2 0x12CD JUMP JUMPDEST SWAP3 POP DUP3 DUP3 MUL PUSH2 0x1931 DUP2 PUSH2 0x12CD JUMP JUMPDEST SWAP2 POP PUSH32 0x8000000000000000000000000000000000000000000000000000000000000000 DUP5 EQ PUSH1 0x0 DUP5 SLT AND ISZERO PUSH2 0x1969 JUMPI PUSH2 0x1968 PUSH2 0x168D JUMP JUMPDEST JUMPDEST DUP3 DUP3 SDIV DUP5 EQ DUP4 ISZERO OR PUSH2 0x197E JUMPI PUSH2 0x197D PUSH2 0x168D JUMP JUMPDEST JUMPDEST POP SWAP3 SWAP2 POP POP JUMP JUMPDEST PUSH1 0x0 PUSH2 0x1990 DUP3 PUSH2 0x12CD JUMP JUMPDEST SWAP2 POP PUSH2 0x199B DUP4 PUSH2 0x12CD JUMP JUMPDEST SWAP3 POP DUP3 DUP3 ADD SWAP1 POP DUP3 DUP2 SLT ISZERO PUSH1 0x0 DUP4 SLT AND DUP4 DUP3 SLT PUSH1 0x0 DUP5 SLT ISZERO AND OR ISZERO PUSH2 0x19C3 JUMPI PUSH2 0x19C2 PUSH2 0x168D JUMP JUMPDEST JUMPDEST SWAP3 SWAP2 POP POP JUMP JUMPDEST PUSH1 0x0 PUSH2 0x19D5 DUP3 DUP6 PUSH2 0x173D JUMP JUMPDEST SWAP2 POP PUSH2 0x19E0 DUP3 PUSH2 0x1817 JUMP JUMPDEST PUSH1 0x1 DUP3 ADD SWAP2 POP PUSH2 0x19F0 DUP3 DUP5 PUSH2 0x173D JUMP JUMPDEST SWAP2 POP DUP2 SWAP1 POP SWAP4 SWAP3 POP POP POP JUMP JUMPDEST PUSH32 0x2000000000000000000000000000000000000000000000000000000000000000 DUP2 MSTORE POP JUMP JUMPDEST PUSH1 0x0 PUSH2 0x1A2E DUP3 DUP6 PUSH2 0x173D JUMP JUMPDEST SWAP2 POP PUSH2 0x1A39 DUP3 PUSH2 0x19FC JUMP JUMPDEST PUSH1 0x1 DUP3 ADD SWAP2 POP PUSH2 0x1A49 DUP3 DUP5 PUSH2 0x173D JUMP JUMPDEST SWAP2 POP DUP2 SWAP1 POP SWAP4 SWAP3 POP POP POP JUMP JUMPDEST PUSH32 0x4E487B7100000000000000000000000000000000000000000000000000000000 PUSH1 0x0 MSTORE PUSH1 0x12 PUSH1 0x4 MSTORE PUSH1 0x24 PUSH1 0x0 REVERT JUMPDEST PUSH1 0x0 PUSH2 0x1A8F DUP3 PUSH2 0x1297 JUMP JUMPDEST SWAP2 POP PUSH2 0x1A9A DUP4 PUSH2 0x1297 JUMP JUMPDEST SWAP3 POP DUP3 PUSH2 0x1AAA JUMPI PUSH2 0x1AA9 PUSH2 0x1A55 JUMP JUMPDEST JUMPDEST DUP3 DUP3 DIV SWAP1 POP SWAP3 SWAP2 POP POP JUMP JUMPDEST PUSH1 0x0 PUSH2 0x1AC0 DUP3 PUSH2 0x1297 JUMP JUMPDEST SWAP2 POP PUSH2 0x1ACB DUP4 PUSH2 0x1297 JUMP JUMPDEST SWAP3 POP DUP3 PUSH2 0x1ADB JUMPI PUSH2 0x1ADA PUSH2 0x1A55 JUMP JUMPDEST JUMPDEST DUP3 DUP3 MOD SWAP1 POP SWAP3 SWAP2 POP POP JUMP JUMPDEST PUSH1 0x0 PUSH2 0x1AF1 DUP3 PUSH2 0x12CD JUMP JUMPDEST SWAP2 POP PUSH32 0x8000000000000000000000000000000000000000000000000000000000000000 DUP3 SUB PUSH2 0x1B23 JUMPI PUSH2 0x1B22 PUSH2 0x168D JUMP JUMPDEST JUMPDEST DUP2 PUSH1 0x0 SUB SWAP1 POP SWAP2 SWAP1 POP JUMP JUMPDEST PUSH32 0x4E487B7100000000000000000000000000000000000000000000000000000000 PUSH1 0x0 MSTORE PUSH1 0x41 PUSH1 0x4 MSTORE PUSH1 0x24 PUSH1 0x0 REVERT JUMPDEST PUSH1 0x0 PUSH2 0x1B68 DUP3 PUSH2 0x12CD JUMP JUMPDEST SWAP2 POP PUSH2 0x1B73 DUP4 PUSH2 0x12CD JUMP JUMPDEST SWAP3 POP DUP3 PUSH2 0x1B83 JUMPI PUSH2 0x1B82 PUSH2 0x1A55 JUMP JUMPDEST JUMPDEST PUSH1 0x1 PUSH1 0x0 SUB DUP4 EQ PUSH32 0x8000000000000000000000000000000000000000000000000000000000000000 DUP4 EQ AND ISZERO PUSH2 0x1BBC JUMPI PUSH2 0x1BBB PUSH2 0x168D JUMP JUMPDEST JUMPDEST DUP3 DUP3 SDIV SWAP1 POP SWAP3 SWAP2 POP POP JUMP JUMPDEST PUSH1 0x0 PUSH2 0x1BD2 DUP3 PUSH2 0x12CD JUMP JUMPDEST SWAP2 POP PUSH2 0x1BDD DUP4 PUSH2 0x12CD JUMP JUMPDEST SWAP3 POP DUP3 DUP3 SUB SWAP1 POP DUP2 DUP2 SLT PUSH1 0x0 DUP5 SLT AND DUP3 DUP3 SGT PUSH1 0x0 DUP6 SLT ISZERO AND OR ISZERO PUSH2 0x1C04 JUMPI PUSH2 0x1C03 PUSH2 0x168D JUMP JUMPDEST JUMPDEST SWAP3 SWAP2 POP POP JUMP INVALID LOG2 PUSH5 0x6970667358 0x22 SLT KECCAK256 KECCAK256 0xA5 0xB9 DUP4 0xE9 0x25 MSTORE8 JUMPDEST 0xEA 0xC LOG2 0xA8 0xD1 MSTORE8 GASPRICE PUSH10 0x99EA51D2480E985A56B6 PUSH5 0xCB922EB3FE PUSH5 0x736F6C6343 STOP ADDMOD SGT STOP CALLER "
		},
		"gasEstimates": {
			"creation": {
				"codeDepositCost": "1446400",
				"executionCost": "1506",
				"totalCost": "1447906"
			},
			"external": {
				"addDays(uint256,uint256)": "infinite",
				"addTimezone(uint256,int256)": "infinite",
				"extractYMD(uint256)": "infinite",
				"getDayOfWeekFromYMD(uint256,int256)": "infinite",
				"getDaysInMonth(uint256,uint256)": "infinite",
				"getEndOfDate(uint256,int256)": "infinite",
				"getStartOfDate(uint256,int256)": "infinite",
				"getYM(uint256,int256)": "infinite",
				"getYMD(uint256,int256)": "infinite",
				"getYYYYMMDDAndTime(uint256,int256)": "infinite",
				"subDays(uint256,uint256)": "infinite",
				"timestampFromDate(uint256,uint256,uint256,int256)": "infinite",
				"timestampFromDateTime(uint256,uint256,uint256,uint256,uint256,uint256,int256)": "infinite",
				"timestampFromYMD(uint256,int256)": "infinite",
				"timestampFromYMD(uint256,uint256,uint256,int256)": "infinite",
				"timestampToDate(uint256,int256)": "infinite",
				"timestampToDateAndTimeString(uint256,int256)": "infinite",
				"timestampToDateTime(uint256,int256)": "infinite",
				"timestampToDetailString(uint256,int256)": "infinite",
				"timestampToString(uint256,int256)": "infinite",
				"ymdToString(uint256)": "infinite"
			}
		},
		"methodIdentifiers": {
			"addDays(uint256,uint256)": "7217523c",
			"addTimezone(uint256,int256)": "126a4bf3",
			"extractYMD(uint256)": "7bbb7570",
			"getDayOfWeekFromYMD(uint256,int256)": "eee32dff",
			"getDaysInMonth(uint256,uint256)": "be9afac7",
			"getEndOfDate(uint256,int256)": "576b2641",
			"getStartOfDate(uint256,int256)": "6986182d",
			"getYM(uint256,int256)": "c8dc5a22",
			"getYMD(uint256,int256)": "09d308ce",
			"getYYYYMMDDAndTime(uint256,int256)": "4c323edd",
			"subDays(uint256,uint256)": "c7b6fd6a",
			"timestampFromDate(uint256,uint256,uint256,int256)": "c0ad3328",
			"timestampFromDateTime(uint256,uint256,uint256,uint256,uint256,uint256,int256)": "90c9f844",
			"timestampFromYMD(uint256,int256)": "56551f26",
			"timestampFromYMD(uint256,uint256,uint256,int256)": "a434f137",
			"timestampToDate(uint256,int256)": "84a98eb9",
			"timestampToDateAndTimeString(uint256,int256)": "11f90965",
			"timestampToDateTime(uint256,int256)": "a2df2245",
			"timestampToDetailString(uint256,int256)": "6afa9dc5",
			"timestampToString(uint256,int256)": "cf6a169c",
			"ymdToString(uint256)": "4b31311a"
		}
	},
	"abi": [
		{
			"inputs": [
				{
					"internalType": "uint256",
					"name": "timestamp",
					"type": "uint256"
				},
				{
					"internalType": "uint256",
					"name": "_days",
					"type": "uint256"
				}
			],
			"name": "addDays",
			"outputs": [
				{
					"internalType": "uint256",
					"name": "newTimestamp",
					"type": "uint256"
				}
			],
			"stateMutability": "pure",
			"type": "function"
		},
		{
			"inputs": [
				{
					"internalType": "uint256",
					"name": "timestamp",
					"type": "uint256"
				},
				{
					"internalType": "int256",
					"name": "tz",
					"type": "int256"
				}
			],
			"name": "addTimezone",
			"outputs": [
				{
					"internalType": "uint256",
					"name": "",
					"type": "uint256"
				}
			],
			"stateMutability": "pure",
			"type": "function"
		},
		{
			"inputs": [
				{
					"internalType": "uint256",
					"name": "_ymd",
					"type": "uint256"
				}
			],
			"name": "extractYMD",
			"outputs": [
				{
					"internalType": "uint256",
					"name": "year",
					"type": "uint256"
				},
				{
					"internalType": "uint256",
					"name": "month",
					"type": "uint256"
				},
				{
					"internalType": "uint256",
					"name": "day",
					"type": "uint256"
				}
			],
			"stateMutability": "pure",
			"type": "function"
		},
		{
			"inputs": [
				{
					"internalType": "uint256",
					"name": "_ymd",
					"type": "uint256"
				},
				{
					"internalType": "int256",
					"name": "tz",
					"type": "int256"
				}
			],
			"name": "getDayOfWeekFromYMD",
			"outputs": [
				{
					"internalType": "uint256",
					"name": "dayOfWeek",
					"type": "uint256"
				}
			],
			"stateMutability": "pure",
			"type": "function"
		},
		{
			"inputs": [
				{
					"internalType": "uint256",
					"name": "year",
					"type": "uint256"
				},
				{
					"internalType": "uint256",
					"name": "month",
					"type": "uint256"
				}
			],
			"name": "getDaysInMonth",
			"outputs": [
				{
					"internalType": "uint256",
					"name": "daysInMonth",
					"type": "uint256"
				}
			],
			"stateMutability": "pure",
			"type": "function"
		},
		{
			"inputs": [
				{
					"internalType": "uint256",
					"name": "timestamp",
					"type": "uint256"
				},
				{
					"internalType": "int256",
					"name": "tz",
					"type": "int256"
				}
			],
			"name": "getEndOfDate",
			"outputs": [
				{
					"internalType": "uint256",
					"name": "endOfDate",
					"type": "uint256"
				}
			],
			"stateMutability": "pure",
			"type": "function"
		},
		{
			"inputs": [
				{
					"internalType": "uint256",
					"name": "timestamp",
					"type": "uint256"
				},
				{
					"internalType": "int256",
					"name": "tz",
					"type": "int256"
				}
			],
			"name": "getStartOfDate",
			"outputs": [
				{
					"internalType": "uint256",
					"name": "startOfDate",
					"type": "uint256"
				}
			],
			"stateMutability": "pure",
			"type": "function"
		},
		{
			"inputs": [
				{
					"internalType": "uint256",
					"name": "timestamp",
					"type": "uint256"
				},
				{
					"internalType": "int256",
					"name": "tz",
					"type": "int256"
				}
			],
			"name": "getYM",
			"outputs": [
				{
					"internalType": "uint256",
					"name": "",
					"type": "uint256"
				}
			],
			"stateMutability": "pure",
			"type": "function"
		},
		{
			"inputs": [
				{
					"internalType": "uint256",
					"name": "timestamp",
					"type": "uint256"
				},
				{
					"internalType": "int256",
					"name": "tz",
					"type": "int256"
				}
			],
			"name": "getYMD",
			"outputs": [
				{
					"internalType": "uint256",
					"name": "",
					"type": "uint256"
				}
			],
			"stateMutability": "pure",
			"type": "function"
		},
		{
			"inputs": [
				{
					"internalType": "uint256",
					"name": "timestamp",
					"type": "uint256"
				},
				{
					"internalType": "int256",
					"name": "tz",
					"type": "int256"
				}
			],
			"name": "getYYYYMMDDAndTime",
			"outputs": [
				{
					"internalType": "uint256",
					"name": "ymd",
					"type": "uint256"
				},
				{
					"internalType": "uint256",
					"name": "time",
					"type": "uint256"
				}
			],
			"stateMutability": "pure",
			"type": "function"
		},
		{
			"inputs": [
				{
					"internalType": "uint256",
					"name": "timestamp",
					"type": "uint256"
				},
				{
					"internalType": "uint256",
					"name": "_days",
					"type": "uint256"
				}
			],
			"name": "subDays",
			"outputs": [
				{
					"internalType": "uint256",
					"name": "newTimestamp",
					"type": "uint256"
				}
			],
			"stateMutability": "pure",
			"type": "function"
		},
		{
			"inputs": [
				{
					"internalType": "uint256",
					"name": "year",
					"type": "uint256"
				},
				{
					"internalType": "uint256",
					"name": "month",
					"type": "uint256"
				},
				{
					"internalType": "uint256",
					"name": "day",
					"type": "uint256"
				},
				{
					"internalType": "int256",
					"name": "tz",
					"type": "int256"
				}
			],
			"name": "timestampFromDate",
			"outputs": [
				{
					"internalType": "uint256",
					"name": "timestamp",
					"type": "uint256"
				}
			],
			"stateMutability": "pure",
			"type": "function"
		},
		{
			"inputs": [
				{
					"internalType": "uint256",
					"name": "year",
					"type": "uint256"
				},
				{
					"internalType": "uint256",
					"name": "month",
					"type": "uint256"
				},
				{
					"internalType": "uint256",
					"name": "day",
					"type": "uint256"
				},
				{
					"internalType": "uint256",
					"name": "hour",
					"type": "uint256"
				},
				{
					"internalType": "uint256",
					"name": "minute",
					"type": "uint256"
				},
				{
					"internalType": "uint256",
					"name": "second",
					"type": "uint256"
				},
				{
					"internalType": "int256",
					"name": "tz",
					"type": "int256"
				}
			],
			"name": "timestampFromDateTime",
			"outputs": [
				{
					"internalType": "uint256",
					"name": "timestamp",
					"type": "uint256"
				}
			],
			"stateMutability": "pure",
			"type": "function"
		},
		{
			"inputs": [
				{
					"internalType": "uint256",
					"name": "_ymd",
					"type": "uint256"
				},
				{
					"internalType": "int256",
					"name": "tz",
					"type": "int256"
				}
			],
			"name": "timestampFromYMD",
			"outputs": [
				{
					"internalType": "uint256",
					"name": "timestamp",
					"type": "uint256"
				}
			],
			"stateMutability": "pure",
			"type": "function"
		},
		{
			"inputs": [
				{
					"internalType": "uint256",
					"name": "year",
					"type": "uint256"
				},
				{
					"internalType": "uint256",
					"name": "month",
					"type": "uint256"
				},
				{
					"internalType": "uint256",
					"name": "day",
					"type": "uint256"
				},
				{
					"internalType": "int256",
					"name": "tz",
					"type": "int256"
				}
			],
			"name": "timestampFromYMD",
			"outputs": [
				{
					"internalType": "uint256",
					"name": "timestamp",
					"type": "uint256"
				}
			],
			"stateMutability": "pure",
			"type": "function"
		},
		{
			"inputs": [
				{
					"internalType": "uint256",
					"name": "timestamp",
					"type": "uint256"
				},
				{
					"internalType": "int256",
					"name": "tz",
					"type": "int256"
				}
			],
			"name": "timestampToDate",
			"outputs": [
				{
					"internalType": "uint256",
					"name": "year",
					"type": "uint256"
				},
				{
					"internalType": "uint256",
					"name": "month",
					"type": "uint256"
				},
				{
					"internalType": "uint256",
					"name": "day",
					"type": "uint256"
				}
			],
			"stateMutability": "pure",
			"type": "function"
		},
		{
			"inputs": [
				{
					"internalType": "uint256",
					"name": "timestamp",
					"type": "uint256"
				},
				{
					"internalType": "int256",
					"name": "tz",
					"type": "int256"
				}
			],
			"name": "timestampToDateAndTimeString",
			"outputs": [
				{
					"internalType": "string",
					"name": "date",
					"type": "string"
				},
				{
					"internalType": "string",
					"name": "time",
					"type": "string"
				}
			],
			"stateMutability": "pure",
			"type": "function"
		},
		{
			"inputs": [
				{
					"internalType": "uint256",
					"name": "timestamp",
					"type": "uint256"
				},
				{
					"internalType": "int256",
					"name": "tz",
					"type": "int256"
				}
			],
			"name": "timestampToDateTime",
			"outputs": [
				{
					"internalType": "uint256",
					"name": "year",
					"type": "uint256"
				},
				{
					"internalType": "uint256",
					"name": "month",
					"type": "uint256"
				},
				{
					"internalType": "uint256",
					"name": "day",
					"type": "uint256"
				},
				{
					"internalType": "uint256",
					"name": "hour",
					"type": "uint256"
				},
				{
					"internalType": "uint256",
					"name": "minute",
					"type": "uint256"
				},
				{
					"internalType": "uint256",
					"name": "second",
					"type": "uint256"
				}
			],
			"stateMutability": "pure",
			"type": "function"
		},
		{
			"inputs": [
				{
					"internalType": "uint256",
					"name": "timestamp",
					"type": "uint256"
				},
				{
					"internalType": "int256",
					"name": "tz",
					"type": "int256"
				}
			],
			"name": "timestampToDetailString",
			"outputs": [
				{
					"internalType": "string",
					"name": "",
					"type": "string"
				}
			],
			"stateMutability": "pure",
			"type": "function"
		},
		{
			"inputs": [
				{
					"internalType": "uint256",
					"name": "timestamp",
					"type": "uint256"
				},
				{
					"internalType": "int256",
					"name": "tz",
					"type": "int256"
				}
			],
			"name": "timestampToString",
			"outputs": [
				{
					"internalType": "string",
					"name": "",
					"type": "string"
				}
			],
			"stateMutability": "pure",
			"type": "function"
		},
		{
			"inputs": [
				{
					"internalType": "uint256",
					"name": "ymd",
					"type": "uint256"
				}
			],
			"name": "ymdToString",
			"outputs": [
				{
					"internalType": "string",
					"name": "",
					"type": "string"
				}
			],
			"stateMutability": "pure",
			"type": "function"
		}
	]
}