{
	"data": {
		"bytecode": {
			"linkReferences": {},
			"object": "6080604052601680546001600160a01b03191633179055619575806100235f395ff3fe608060405234801561000f575f80fd5b5060043610610259575f3560e01c8062e6af7f1461025d57806302b572d6146102d4578063040f1d72146102f557806308a53b211461030a5780631fda90a21461032d5780632248632a1461034d5780632d8206fe1461036d5780632e2dc43e1461045957806330d51a321461046e578063399cfa1e1461048157806344d80330146104a157806346e115c0146104a95780634b5ba409146104be5780634d5c5fd7146104d15780634e8781cd146104f15780635a7f48f81461050457806362de62301461051757806363c69f081461052a57806376d6e7ef1461053d5780637ce4734514610550578063834f9ed31461056357806386cb0d92146105835780638a8869e2146105965780638da5cb5b146105a957806393c26229146105bc57806396e98874146105dc5780639a377a3714610628578063a354f1b21461063b578063a4e176ea1461064e578063a559934e14610661578063a875588d14610674578063ab238f1f14610687578063b814f77b146106a7578063bfbe3ef7146106ba578063c006e9a9146106d9578063c54e44eb146106ec578063cac0e650146106ff578063cf9796ec14610712578063cf99136414610734578063d09ef24114610747578063d71f81811461075a578063da31f88a1461077a578063ddcd64081461079d578063e217866c146107b0578063e5e00e93146107d0578063e5fc4ac2146107e3578063ea68ba99146107f6578063f29155ef14610809578063f894196e1461081c578063fb08e12e1461082f578063fb7ef3771461084e578063ffafe92914610861575b5f80fd5b6102a161026b3660046175c5565b60066020525f908152604090208054600282015460039092015490916001600160a01b03811691600160a01b90910460ff169084565b604080519485526001600160a01b0390931660208501529015159183019190915260608201526080015b60405180910390f35b6102e76102e23660046175fd565b610874565b6040519081526020016102cb565b61030861030336600461795c565b61089f565b005b61031d610318366004617b81565b610ab9565b60405190151581526020016102cb565b61034061033b366004617bcd565b610c79565b6040516102cb9190617c18565b61036061035b366004617c84565b610d45565b6040516102cb9190617cf5565b6103e861037b3660046175c5565b600160208190525f918252604090912080549181015460028201546003830154600b840154600c850154600d860154600e870154600f88015460108901546011909901546001600160a01b039889169997909816979596949560ff8086169661010090960481169516908c565b604080519c8d526001600160a01b039b8c1660208e015299909a16988b019890985260608a0196909652608089019490945260ff92831660a089015290821660c088015260e087015261010086019190915261012085019190915216610140830152610160820152610180016102cb565b610461610d7f565b6040516102cb9190617ec0565b61031d61047c366004617f23565b61112a565b61049461048f366004617f6f565b611179565b6040516102cb9190617f98565b610340611652565b6104b161171b565b6040516102cb91906180b0565b61031d6104cc366004617bcd565b6119f5565b6012546104e4906001600160a01b031681565b6040516102cb9190618107565b6103086104ff3660046175c5565b611a49565b6102e76105123660046175fd565b611a56565b61031d610525366004617bcd565b611a6f565b610461610538366004617bcd565b611ac3565b6102e761054b36600461817b565b611ecd565b61049461055e366004618347565b6124f3565b6105766105713660046175c5565b612809565b6040516102cb9190618457565b61031d610591366004618497565b612d88565b61031d6105a4366004617bcd565b612dc8565b6016546104e4906001600160a01b031681565b6105cf6105ca3660046184c8565b612e1c565b6040516102cb9190618587565b61060b6105ea366004617bcd565b5f60208190529081526040902080546001909101546001600160a01b031682565b604080519283526001600160a01b039091166020830152016102cb565b61031d610636366004617bcd565b612f0c565b6011546104e4906001600160a01b031681565b61031d61065c366004618497565b612f60565b61031d61066f366004617bcd565b612f97565b6102e76106823660046185d4565b612feb565b61069a6106953660046175c5565b6131a0565b6040516102cb9190618615565b6013546104e4906001600160a01b031681565b6102e76106c83660046175c5565b60096020525f908152604090205481565b61031d6106e73660046175c5565b6134b1565b6015546104e4906001600160a01b031681565b61031d61070d366004617bcd565b613694565b6107256107203660046175c5565b6136e8565b6040516102cb93929190618691565b6103086107423660046186c1565b613cbb565b61069a6107553660046175c5565b613d46565b61076d6107683660046175c5565b614049565b6040516102cb9190618710565b61078d6107883660046175c5565b614269565b6040516102cb9493929190618722565b61031d6107ab366004617bcd565b6147b9565b6107c36107be3660046175c5565b61480d565b6040516102cb919061874e565b6104b16107de366004617bcd565b614f4e565b6014546104e4906001600160a01b031681565b6102e76108043660046175fd565b61523b565b6017546104e4906001600160a01b031681565b61030861082a3660046175c5565b615254565b6102e761083d3660046175c5565b5f9081526004602052604090205490565b6018546104e4906001600160a01b031681565b6105cf61086f36600461887c565b615c42565b600a602052815f5260405f20818154811061088d575f80fd5b905f5260205f20015f91509150505481565b600c8054905f6108ae8361893b565b909155505060408051608081018252600c5480825260208083018681526001600160a01b03868116858701908152606086018a81525f958652600890945295909320845181559051600182015593516002850180546001600160a01b0319169190931617909155518051919283929091906003830190819061093090826189d1565b506020820151600182019061094590826189d1565b506040820151600282019061095a90826189d1565b506060820151600382019061096f90826189d1565b506080820151600482019061098490826189d1565b5060a0820151600582019061099990826189d1565b5060c082015160068201906109ae90826189d1565b5060e082015160078201906109c390826189d1565b5061010082015160088201906109d990826189d1565b505050905050600c5460095f8581526020019081526020015f2081905550600a5f836001600160a01b03166001600160a01b031681526020019081526020015f20600c54908060018154018082558091505060019003905f5260205f20015f90919091909150557f6cbe635891bad406edfda1cd61005929db6c504109c59b9afe10f74944de95cb600c548484875f0151886020015189604001518a606001518b608001518c60a001518d60c001518e60e001518f6101000151604051610aab9c9b9a99989796959493929190618a8b565b60405180910390a150505050565b5f83815260066020526040812060028101546001600160a01b03163314610afb5760405162461bcd60e51b8152600401610af290618b6d565b60405180910390fd5b805415801590610b1757506002810154600160a01b900460ff16155b610b875760405162461bcd60e51b815260206004820152605b60248201525f8051602061952083398151915260448201525f805160206194d483398151915260648201527a656c696e6b206f7220616c7265616479206578656375746564227d60281b608482015260a401610af2565b610b9081615d0d565b50610b9e600182015f6172ef565b610ba784615e79565b505f5b8451811015610c685781600101858281518110610bc957610bc9618bd8565b60209081029190910181015182546001810184555f9384529282902081518051929460050290910192610c019284929091019061730d565b506020828101518051610c1a926001850192019061730d565b5060408201518051610c3691600284019160209091019061730d565b5060608201518051610c5291600384019160209091019061730d565b5060809190910151600490910155600101610baa565b506003018290555060019392505050565b610c81617352565b6001600160a01b038083165f9081526020818152604080832081516060810183528154815260018201549095168584015260028101805483518186028101860185528181529295938701949293919290919084015b82821015610d37578382905f5260205f2090600502016040518060a00160405290815f820154815260200160018201548152602001600282015481526020016003820154815260200160048201548152505081526020019060010190610cd6565b505050915250909392505050565b60605f610d51846162a8565b90508083604051602001610d66929190618c03565b6040516020818303038152906040529150505b92915050565b6003546060906001600160401b03811115610d9c57610d9c617627565b604051908082528060200260200182016040528015610dd557816020015b610dc261737a565b815260200190600190039081610dba5790505b5090505f5b6003548110156111265760015f60038381548110610dfa57610dfa618bd8565b5f918252602080832090910154835282810193909352604091820190208151610260810183528154815260018201546001600160a01b03908116828601526002830154168184015260038201546060820152600482018054845181870281018701909552808552919492936080860193909290830182828015610e9a57602002820191905f5260205f20905b815481526020019060010190808311610e86575b5050505050815260200160058201805480602002602001604051908101604052809291908181526020018280548015610ef057602002820191905f5260205f20905b815481526020019060010190808311610edc575b5050505050815260200160068201805480602002602001604051908101604052809291908181526020018280548015610f4657602002820191905f5260205f20905b815481526020019060010190808311610f32575b5050505050815260200160078201805480602002602001604051908101604052809291908181526020018280548015610f9c57602002820191905f5260205f20905b815481526020019060010190808311610f88575b5050505050815260200160088201805480602002602001604051908101604052809291908181526020018280548015610ff257602002820191905f5260205f20905b815481526020019060010190808311610fde575b505050505081526020016009820180548060200260200160405190810160405280929190818152602001828054801561104857602002820191905f5260205f20905b815481526020019060010190808311611034575b50505050508152602001600a820180548060200260200160405190810160405280929190818152602001828054801561109e57602002820191905f5260205f20905b81548152602001906001019080831161108a575b5050509183525050600b8201546020820152600c82015460ff80821660408401526101009182900481166060840152600d8401546080840152600e84015460a0840152600f84015460c084015260108401541660e0830152601190920154910152825183908390811061111357611113618bd8565b6020908102919091010152600101610dda565b5090565b5f80828060200190518101906111409190618c7f565b5f818152600760205260409020600a01549091506001600160a01b03161561116b5750600192915050565b505f92915050565b50919050565b61118161741e565b601154604051632e76c56d60e21b8152600481018690525f916001600160a01b03169063b9db15b4906024015f60405180830381865afa1580156111c7573d5f803e3d5ffd5b505050506040513d5f823e601f3d908101601f191682016040526111ee9190810190618df5565b6011546040516241c62960e01b81529192505f916001600160a01b03909116906241c6299061122390899089906004016190cf565b60c060405180830381865afa15801561123e573d5f803e3d5ffd5b505050506040513d601f19601f8201168201806040525081019061126291906190dd565b9050815f01515f141561129f600360405180604001604052806011815260200170141c9bd91d58dd081b9bdd08199bdd5b99607a1b815250610d45565b906112bd5760405162461bcd60e51b8152600401610af29190617cf5565b50805160408051808201909152601181527015985c9a585b9d081b9bdd08199bdd5b99607a1b6020820152901515906112f890600690610d45565b906113165760405162461bcd60e51b8152600401610af29190617cf5565b5080602001516080015184111561134660056040518060600160405280602c81526020016194f4602c9139610d45565b906113645760405162461bcd60e51b8152600401610af29190617cf5565b5060108054905f6113748361893b565b90915550506040805160a0810182526010548152602080820189905281830187905260608201889052426080830152335f90815290819052918220549091036113c5576113c081613cbb565b61150a565b5f805b335f9081526020819052604090206002015481101561146d57335f90815260208190526040902060020180548a91908390811061140757611407618bd8565b905f5260205f209060050201600101541480156114575750335f90815260208190526040902060020180548991908390811061144557611445618bd8565b905f5260205f20906005020160030154145b15611465576001915061146d565b6001016113c8565b50801561149360066040518060600160405280602a81526020016194aa602a9139610d45565b906114b15760405162461bcd60e51b8152600401610af29190617cf5565b5050335f9081526020818152604080832060029081018054600181810183559186529484902086516005909602019485559285015192840192909255830151908201556060820151600382015560808201516004909101555b6013546040516322a8e4eb60e21b81526001600160a01b0390911690638aa393ac906115459033908b908a905f90819060019060040161915d565b5f604051808303815f87803b15801561155c575f80fd5b505af115801561156e573d5f803e3d5ffd5b5050601354602086015161018001516040516322a8e4eb60e21b81526001600160a01b039092169350638aa393ac92506115b59133918c918b91905f90819060040161915d565b5f604051808303815f87803b1580156115cc575f80fd5b505af11580156115de573d5f803e3d5ffd5b50506013546020860151610180015160405163f954ed2d60e01b81526001600160a01b03909216935063f954ed2d925061161a91600401618107565b5f604051808303815f87803b158015611631575f80fd5b505af1158015611643573d5f803e3d5ffd5b50929998505050505050505050565b61165a617352565b335f9081526020818152604080832081516060810183528154815260018201546001600160a01b031681850152600282018054845181870281018701865281815292969395948701949293919290919084015b8282101561170e578382905f5260205f2090600502016040518060a00160405290815f8201548152602001600182015481526020016002820154815260200160038201548152602001600482015481525050815260200190600101906116ad565b5050505081525050905090565b335f90815260056020526040812054606091906001600160401b0381111561174557611745617627565b60405190808252806020026020018201604052801561177e57816020015b61176b61744b565b8152602001906001900390816117635790505b50335f9081526005602052604081209192505b81548110156119ed5760065f8383815481106117af576117af618bd8565b905f5260205f20015481526020019081526020015f206040518060a00160405290815f820154815260200160018201805480602002602001604051908101604052809291908181526020015f905b8282101561198e578382905f5260205f2090600502016040518060a00160405290815f820180548060200260200160405190810160405280929190818152602001828054801561186a57602002820191905f5260205f20905b815481526020019060010190808311611856575b50505050508152602001600182018054806020026020016040519081016040528092919081815260200182805480156118c057602002820191905f5260205f20905b8154815260200190600101908083116118ac575b505050505081526020016002820180548060200260200160405190810160405280929190818152602001828054801561191657602002820191905f5260205f20905b815481526020019060010190808311611902575b505050505081526020016003820180548060200260200160405190810160405280929190818152602001828054801561196c57602002820191905f5260205f20905b815481526020019060010190808311611958575b50505050508152602001600482015481525050815260200190600101906117fd565b5050509082525060028201546001600160a01b0381166020830152600160a01b900460ff161515604082015260039091015460609091015283518490839081106119da576119da618bd8565b6020908102919091010152600101611791565b509092915050565b6016545f906001600160a01b0316338114611a225760405162461bcd60e51b8152600401610af2906191a5565b601480546001600160a01b0385166001600160a01b03199091161790556001915050919050565b611a533382616338565b50565b6005602052815f5260405f20818154811061088d575f80fd5b6016545f906001600160a01b0316338114611a9c5760405162461bcd60e51b8152600401610af2906191a5565b601180546001600160a01b0385166001600160a01b03199091161790556001915050919050565b6001600160a01b0381165f908152600260209081526040808320805482518185028101850190935280835260609493830182828015611b1f57602002820191905f5260205f20905b815481526020019060010190808311611b0b575b5050505050905080516001600160401b03811115611b3f57611b3f617627565b604051908082528060200260200182016040528015611b7857816020015b611b6561737a565b815260200190600190039081611b5d5790505b5091505f5b8251811015611ec65760015f838381518110611b9b57611b9b618bd8565b60209081029190910181015182528181019290925260409081015f208151610260810183528154815260018201546001600160a01b03908116828601526002830154168184015260038201546060820152600482018054845181870281018701909552808552919492936080860193909290830182828015611c3a57602002820191905f5260205f20905b815481526020019060010190808311611c26575b5050505050815260200160058201805480602002602001604051908101604052809291908181526020018280548015611c9057602002820191905f5260205f20905b815481526020019060010190808311611c7c575b5050505050815260200160068201805480602002602001604051908101604052809291908181526020018280548015611ce657602002820191905f5260205f20905b815481526020019060010190808311611cd2575b5050505050815260200160078201805480602002602001604051908101604052809291908181526020018280548015611d3c57602002820191905f5260205f20905b815481526020019060010190808311611d28575b5050505050815260200160088201805480602002602001604051908101604052809291908181526020018280548015611d9257602002820191905f5260205f20905b815481526020019060010190808311611d7e575b5050505050815260200160098201805480602002602001604051908101604052809291908181526020018280548015611de857602002820191905f5260205f20905b815481526020019060010190808311611dd4575b50505050508152602001600a8201805480602002602001604051908101604052809291908181526020018280548015611e3e57602002820191905f5260205f20905b815481526020019060010190808311611e2a575b5050509183525050600b8201546020820152600c82015460ff80821660408401526101009182900481166060840152600d8401546080840152600e84015460a0840152600f84015460c084015260108401541660e08301526011909201549101528351849083908110611eb357611eb3618bd8565b6020908102919091010152600101611b7d565b5050919050565b5f80845111611f405760405162461bcd60e51b815260206004820152604660248201525f8051602061952083398151915260448201527f223a2031312c20226d657373616765223a224f726465722068617665206e6f206064820152656974656d227d60d01b608482015260a401610af2565b6064845110611fb45760405162461bcd60e51b815260206004820152604760248201525f8051602061952083398151915260448201527f223a2031312c20226d657373616765223a224f726465722068617665206d6178606482015266206974656d227d60c81b608482015260a401610af2565b600182606001516001811115611fcc57611fcc618627565b14611ff0600c60405180606001604052806035815260200161944b60359139610d45565b9061200e5760405162461bcd60e51b8152600401610af29190617cf5565b5060125460405163700786d760e11b81525f916001600160a01b03169063e00f0dae9061203f903390600401618107565b602060405180830381865afa15801561205a573d5f803e3d5ffd5b505050506040513d601f19601f8201168201806040525081019061207e9190619201565b90506001600160a01b0381166120f45760405162461bcd60e51b815260206004820152604260248201525f8051602061952083398151915260448201527f223a2031322c20226d657373616765223a2255736572206e6f74206578697374606482015261227d60f01b608482015260a401610af2565b600d8054905f6121038361893b565b91905055505f61211386336169e1565b90505f604051806102600160405280600d548152602001846001600160a01b03168152602001336001600160a01b031681526020015f81526020018360c001518152602001835f01518152602001836020015181526020018360400151815260200183606001518152602001836080015181526020018360a0015181526020018360e001518152602001866040015160018111156121b3576121b3618627565b60ff1681526020016001876040015160018111156121d3576121d3618627565b146121df5760016121e2565b60045b60ff168152602001866020015181526020015f81526020015f81526020018660600151600181111561221657612216618627565b60ff16815242602091820152600d545f9081526001808352604091829020845181558484015191810180546001600160a01b039384166001600160a01b0319918216179091559285015160028201805491909316931692909217905560608301516003820155608083015180519394508493919261229c9260048501929091019061730d565b5060a082015180516122b891600584019160209091019061730d565b5060c082015180516122d491600684019160209091019061730d565b5060e082015180516122f091600784019160209091019061730d565b50610100820151805161230d91600884019160209091019061730d565b50610120820151805161232a91600984019160209091019061730d565b50610140820151805161234791600a84019160209091019061730d565b50610160820151600b820155610180820151600c820180546101a085015160ff9081166101000261ffff19909216938116939093171790556101c0830151600d8301556101e0830151600e830155610200830151600f8301556102208301516010830180549190921660ff1991909116179055610240909101516011909101555f856040015160018111156123de576123de618627565b036123f0576123f086600d543361089f565b600d546040805142602080830191909152438284015233606083015260808083019490945282518083038501815260a09092019092528051910120908201515115612479575f5b8260800151518110156124775761246f83602001518460800151838151811061246257612462618bd8565b602002602001015161720c565b600101612437565b505b6020918201516001600160a01b03165f908152600283526040808220600d80548254600180820185559386528786200155546003805492830190557fc2575a0e9e593c00f959f8c92f12db2869c3395a3b0502d05e2516446f71f85b90910181905583835260049094529020919091559695505050505050565b6124fb61741e565b5f821161253e60066040518060400160405280601f81526020017f5175616e74697479206d7573742062652067726561746572207468616e203000815250610d45565b9061255c5760405162461bcd60e51b8152600401610af29190617cf5565b50335f908152602081815260409182902080548351808501909452601384527210d85c9d08191bd95cc81b9bdd08195e1a5cdd606a1b9284019290925291901515906125aa90600790610d45565b906125c85760405162461bcd60e51b8152600401610af29190617cf5565b505f805b60028301548110156127a757858360020182815481106125ee576125ee618bd8565b905f5260205f2090600502015f01540361279f576011546002840180545f926001600160a01b0316916241c629918590811061262c5761262c618bd8565b905f5260205f2090600502016001015486600201858154811061265157612651618bd8565b905f5260205f209060050201600301546040518363ffffffff1660e01b815260040161267e9291906190cf565b60c060405180830381865afa158015612699573d5f803e3d5ffd5b505050506040513d601f19601f820116820180604052508101906126bd91906190dd565b90508581602001516080015110156126ee60086040518060600160405280602c81526020016194f4602c9139610d45565b9061270c5760405162461bcd60e51b8152600401610af29190617cf5565b508584600201838154811061272357612723618bd8565b905f5260205f2090600502016002018190555083600201828154811061274b5761274b618bd8565b905f5260205f2090600502016040518060a00160405290815f8201548152602001600182015481526020016002820154815260200160038201548152602001600482015481525050945060019250506127a7565b6001016125cc565b50806127e2600960405180604001604052806016815260200175125d195b481b9bdd08199bdd5b99081a5b8818d85c9d60521b815250610d45565b906128005760405162461bcd60e51b8152600401610af29190617cf5565b50505092915050565b612811617481565b5f828152600960209081526040808320548352600882529182902082516080810184528154815260018201549281019290925260028101546001600160a01b0316828401528251610120810190935260038101805492939192606085019291908290829061287e90618953565b80601f01602080910402602001604051908101604052809291908181526020018280546128aa90618953565b80156128f55780601f106128cc576101008083540402835291602001916128f5565b820191905f5260205f20905b8154815290600101906020018083116128d857829003601f168201915b5050505050815260200160018201805461290e90618953565b80601f016020809104026020016040519081016040528092919081815260200182805461293a90618953565b80156129855780601f1061295c57610100808354040283529160200191612985565b820191905f5260205f20905b81548152906001019060200180831161296857829003601f168201915b5050505050815260200160028201805461299e90618953565b80601f01602080910402602001604051908101604052809291908181526020018280546129ca90618953565b8015612a155780601f106129ec57610100808354040283529160200191612a15565b820191905f5260205f20905b8154815290600101906020018083116129f857829003601f168201915b50505050508152602001600382018054612a2e90618953565b80601f0160208091040260200160405190810160405280929190818152602001828054612a5a90618953565b8015612aa55780601f10612a7c57610100808354040283529160200191612aa5565b820191905f5260205f20905b815481529060010190602001808311612a8857829003601f168201915b50505050508152602001600482018054612abe90618953565b80601f0160208091040260200160405190810160405280929190818152602001828054612aea90618953565b8015612b355780601f10612b0c57610100808354040283529160200191612b35565b820191905f5260205f20905b815481529060010190602001808311612b1857829003601f168201915b50505050508152602001600582018054612b4e90618953565b80601f0160208091040260200160405190810160405280929190818152602001828054612b7a90618953565b8015612bc55780601f10612b9c57610100808354040283529160200191612bc5565b820191905f5260205f20905b815481529060010190602001808311612ba857829003601f168201915b50505050508152602001600682018054612bde90618953565b80601f0160208091040260200160405190810160405280929190818152602001828054612c0a90618953565b8015612c555780601f10612c2c57610100808354040283529160200191612c55565b820191905f5260205f20905b815481529060010190602001808311612c3857829003601f168201915b50505050508152602001600782018054612c6e90618953565b80601f0160208091040260200160405190810160405280929190818152602001828054612c9a90618953565b8015612ce55780601f10612cbc57610100808354040283529160200191612ce5565b820191905f5260205f20905b815481529060010190602001808311612cc857829003601f168201915b50505050508152602001600882018054612cfe90618953565b80601f0160208091040260200160405190810160405280929190818152602001828054612d2a90618953565b8015612d755780601f10612d4c57610100808354040283529160200191612d75565b820191905f5260205f20905b815481529060010190602001808311612d5857829003601f168201915b5050509190925250505090525092915050565b5f805b8251811015612dbf57612db733848381518110612daa57612daa618bd8565b6020026020010151616338565b600101612d8b565b50600192915050565b6016545f906001600160a01b0316338114612df55760405162461bcd60e51b8152600401610af2906191a5565b601380546001600160a01b0385166001600160a01b03199091161790556001915050919050565b60605f82516001600160401b03811115612e3857612e38617627565b604051908082528060200260200182016040528015612e7157816020015b612e5e61741e565b815260200190600190039081612e565790505b5090505f5b8351811015612f0557612ee0848281518110612e9457612e94618bd8565b60200260200101515f0151858381518110612eb157612eb1618bd8565b602002602001015160200151868481518110612ecf57612ecf618bd8565b602002602001015160400151611179565b828281518110612ef257612ef2618bd8565b6020908102919091010152600101612e76565b5092915050565b6016545f906001600160a01b0316338114612f395760405162461bcd60e51b8152600401610af2906191a5565b601780546001600160a01b0385166001600160a01b03199091161790556001915050919050565b5f805b8251811015612dbf57612f8e838281518110612f8157612f81618bd8565b60200260200101516134b1565b50600101612f63565b6016545f906001600160a01b0316338114612fc45760405162461bcd60e51b8152600401610af2906191a5565b601880546001600160a01b0385166001600160a01b03199091161790556001915050919050565b5f80835111613030602d6040518060400160405280602081526020017f5368617265206c696e6b20706172616d73206d757374206e6f7420656d707479815250610d45565b9061304e5760405162461bcd60e51b8152600401610af29190617cf5565b5061305883615e79565b50600b8054905f6130688361893b565b91905055505f5b835181101561313f5760065f600b5481526020019081526020015f206001018482815181106130a0576130a0618bd8565b60209081029190910181015182546001810184555f93845292829020815180519294600502909101926130d89284929091019061730d565b5060208281015180516130f1926001850192019061730d565b506040820151805161310d91600284019160209091019061730d565b506060820151805161312991600384019160209091019061730d565b506080919091015160049091015560010161306f565b5050600b80545f81815260066020908152604080832093845560039093018590558354825282822060020180546001600160a01b03191633908117909155825260058152918120835481546001810183559183529290912001555492915050565b6131a861737a565b5f8281526004602081815260408084205480855260018084529482902082516102608101845281548152958101546001600160a01b039081168786015260028201541686840152600381015460608701529384018054835181860281018601909452808452919594936080860193929083018282801561324557602002820191905f5260205f20905b815481526020019060010190808311613231575b505050505081526020016005820180548060200260200160405190810160405280929190818152602001828054801561329b57602002820191905f5260205f20905b815481526020019060010190808311613287575b50505050508152602001600682018054806020026020016040519081016040528092919081815260200182805480156132f157602002820191905f5260205f20905b8154815260200190600101908083116132dd575b505050505081526020016007820180548060200260200160405190810160405280929190818152602001828054801561334757602002820191905f5260205f20905b815481526020019060010190808311613333575b505050505081526020016008820180548060200260200160405190810160405280929190818152602001828054801561339d57602002820191905f5260205f20905b815481526020019060010190808311613389575b50505050508152602001600982018054806020026020016040519081016040528092919081815260200182805480156133f357602002820191905f5260205f20905b8154815260200190600101908083116133df575b50505050508152602001600a820180548060200260200160405190810160405280929190818152602001828054801561344957602002820191905f5260205f20905b815481526020019060010190808311613435575b5050509183525050600b8201546020820152600c82015460ff80821660408401526101009182900481166060840152600d8401546080840152600e84015460a0840152600f84015460c084015260108401541660e08301526011909201549101529392505050565b5f81815260066020526040812060028101546001600160a01b031633146134ea5760405162461bcd60e51b8152600401610af290618b6d565b80546135485760405162461bcd60e51b815260206004820152604760248201525f8051602061952083398151915260448201525f805160206194d4833981519152606482015266656c696e6b227d60c81b608482015260a401610af2565b6002810154600160a01b900460ff166135665761356481615d0d565b505b5f5b335f9081526005602052604090205481101561365257335f9081526005602052604090208054859190839081106135a1576135a1618bd8565b905f5260205f2001540361364a57335f90815260056020526040902080546135cb9060019061921c565b815481106135db576135db618bd8565b5f9182526020808320909101543383526005909152604090912080548390811061360757613607618bd8565b5f9182526020808320909101929092553381526005909152604090208054806136325761363261922f565b600190038181905f5260205f20015f90559055613652565b600101613568565b505f8381526006602052604081208181559061367160018301826172ef565b506002810180546001600160a81b03191690555f60039091015550600192915050565b6016545f906001600160a01b03163381146136c15760405162461bcd60e51b8152600401610af2906191a5565b601280546001600160a01b0385166001600160a01b03199091161790556001915050919050565b6007602052805f5260405f205f9150905080600101604051806101200160405290815f8201805461371890618953565b80601f016020809104026020016040519081016040528092919081815260200182805461374490618953565b801561378f5780601f106137665761010080835404028352916020019161378f565b820191905f5260205f20905b81548152906001019060200180831161377257829003601f168201915b505050505081526020016001820180546137a890618953565b80601f01602080910402602001604051908101604052809291908181526020018280546137d490618953565b801561381f5780601f106137f65761010080835404028352916020019161381f565b820191905f5260205f20905b81548152906001019060200180831161380257829003601f168201915b5050505050815260200160028201805461383890618953565b80601f016020809104026020016040519081016040528092919081815260200182805461386490618953565b80156138af5780601f10613886576101008083540402835291602001916138af565b820191905f5260205f20905b81548152906001019060200180831161389257829003601f168201915b505050505081526020016003820180546138c890618953565b80601f01602080910402602001604051908101604052809291908181526020018280546138f490618953565b801561393f5780601f106139165761010080835404028352916020019161393f565b820191905f5260205f20905b81548152906001019060200180831161392257829003601f168201915b5050505050815260200160048201805461395890618953565b80601f016020809104026020016040519081016040528092919081815260200182805461398490618953565b80156139cf5780601f106139a6576101008083540402835291602001916139cf565b820191905f5260205f20905b8154815290600101906020018083116139b257829003601f168201915b505050505081526020016005820180546139e890618953565b80601f0160208091040260200160405190810160405280929190818152602001828054613a1490618953565b8015613a5f5780601f10613a3657610100808354040283529160200191613a5f565b820191905f5260205f20905b815481529060010190602001808311613a4257829003601f168201915b50505050508152602001600682018054613a7890618953565b80601f0160208091040260200160405190810160405280929190818152602001828054613aa490618953565b8015613aef5780601f10613ac657610100808354040283529160200191613aef565b820191905f5260205f20905b815481529060010190602001808311613ad257829003601f168201915b50505050508152602001600782018054613b0890618953565b80601f0160208091040260200160405190810160405280929190818152602001828054613b3490618953565b8015613b7f5780601f10613b5657610100808354040283529160200191613b7f565b820191905f5260205f20905b815481529060010190602001808311613b6257829003601f168201915b50505050508152602001600882018054613b9890618953565b80601f0160208091040260200160405190810160405280929190818152602001828054613bc490618953565b8015613c0f5780601f10613be657610100808354040283529160200191613c0f565b820191905f5260205f20905b815481529060010190602001808311613bf257829003601f168201915b50505091909252505050600a82015460408051608081018252600b850180548252600c8601546020830152600d86015494956001600160a01b0390941694919290919083019060ff166001811115613c6957613c69618627565b6001811115613c7a57613c7a618627565b81526020016002820160019054906101000a900460ff166001811115613ca257613ca2618627565b6001811115613cb357613cb3618627565b905250905083565b600f8054905f613cca8361893b565b9091555050335f81815260208181526040808320600f548155600180820180546001600160a01b0319169096179095556002908101805480870182559085529383902086516005909502019384559185015193830193909355918301519181019190915560608201516003820155608090910151600490910155565b613d4e61737a565b5f8281526001602081815260409283902083516102608101855281548152928101546001600160a01b03908116848401526002820154168385015260038101546060840152600481018054855181850281018501909652808652939491936080860193830182828015613dde57602002820191905f5260205f20905b815481526020019060010190808311613dca575b5050505050815260200160058201805480602002602001604051908101604052809291908181526020018280548015613e3457602002820191905f5260205f20905b815481526020019060010190808311613e20575b5050505050815260200160068201805480602002602001604051908101604052809291908181526020018280548015613e8a57602002820191905f5260205f20905b815481526020019060010190808311613e76575b5050505050815260200160078201805480602002602001604051908101604052809291908181526020018280548015613ee057602002820191905f5260205f20905b815481526020019060010190808311613ecc575b5050505050815260200160088201805480602002602001604051908101604052809291908181526020018280548015613f3657602002820191905f5260205f20905b815481526020019060010190808311613f22575b5050505050815260200160098201805480602002602001604051908101604052809291908181526020018280548015613f8c57602002820191905f5260205f20905b815481526020019060010190808311613f78575b50505050508152602001600a8201805480602002602001604051908101604052809291908181526020018280548015613fe257602002820191905f5260205f20905b815481526020019060010190808311613fce575b5050509183525050600b8201546020820152600c82015460ff80821660408401526101009182900481166060840152600d8401546080840152600e84015460a0840152600f84015460c084015260108401541660e083015260119092015491015292915050565b61405161744b565b60065f8381526020019081526020015f206040518060a00160405290815f820154815260200160018201805480602002602001604051908101604052809291908181526020015f905b8282101561422b578382905f5260205f2090600502016040518060a00160405290815f820180548060200260200160405190810160405280929190818152602001828054801561410757602002820191905f5260205f20905b8154815260200190600101908083116140f3575b505050505081526020016001820180548060200260200160405190810160405280929190818152602001828054801561415d57602002820191905f5260205f20905b815481526020019060010190808311614149575b50505050508152602001600282018054806020026020016040519081016040528092919081815260200182805480156141b357602002820191905f5260205f20905b81548152602001906001019080831161419f575b505050505081526020016003820180548060200260200160405190810160405280929190818152602001828054801561420957602002820191905f5260205f20905b8154815260200190600101908083116141f5575b505050505081526020016004820154815250508152602001906001019061409a565b5050509082525060028201546001600160a01b0381166020830152600160a01b900460ff161515604082015260039091015460609091015292915050565b60086020525f90815260409081902080546001820154600283015484516101208101909552600384018054939592946001600160a01b0390921693919291829082906142b490618953565b80601f01602080910402602001604051908101604052809291908181526020018280546142e090618953565b801561432b5780601f106143025761010080835404028352916020019161432b565b820191905f5260205f20905b81548152906001019060200180831161430e57829003601f168201915b5050505050815260200160018201805461434490618953565b80601f016020809104026020016040519081016040528092919081815260200182805461437090618953565b80156143bb5780601f10614392576101008083540402835291602001916143bb565b820191905f5260205f20905b81548152906001019060200180831161439e57829003601f168201915b505050505081526020016002820180546143d490618953565b80601f016020809104026020016040519081016040528092919081815260200182805461440090618953565b801561444b5780601f106144225761010080835404028352916020019161444b565b820191905f5260205f20905b81548152906001019060200180831161442e57829003601f168201915b5050505050815260200160038201805461446490618953565b80601f016020809104026020016040519081016040528092919081815260200182805461449090618953565b80156144db5780601f106144b2576101008083540402835291602001916144db565b820191905f5260205f20905b8154815290600101906020018083116144be57829003601f168201915b505050505081526020016004820180546144f490618953565b80601f016020809104026020016040519081016040528092919081815260200182805461452090618953565b801561456b5780601f106145425761010080835404028352916020019161456b565b820191905f5260205f20905b81548152906001019060200180831161454e57829003601f168201915b5050505050815260200160058201805461458490618953565b80601f01602080910402602001604051908101604052809291908181526020018280546145b090618953565b80156145fb5780601f106145d2576101008083540402835291602001916145fb565b820191905f5260205f20905b8154815290600101906020018083116145de57829003601f168201915b5050505050815260200160068201805461461490618953565b80601f016020809104026020016040519081016040528092919081815260200182805461464090618953565b801561468b5780601f106146625761010080835404028352916020019161468b565b820191905f5260205f20905b81548152906001019060200180831161466e57829003601f168201915b505050505081526020016007820180546146a490618953565b80601f01602080910402602001604051908101604052809291908181526020018280546146d090618953565b801561471b5780601f106146f25761010080835404028352916020019161471b565b820191905f5260205f20905b8154815290600101906020018083116146fe57829003601f168201915b5050505050815260200160088201805461473490618953565b80601f016020809104026020016040519081016040528092919081815260200182805461476090618953565b80156147ab5780601f10614782576101008083540402835291602001916147ab565b820191905f5260205f20905b81548152906001019060200180831161478e57829003601f168201915b505050505081525050905084565b6016545f906001600160a01b03163381146147e65760405162461bcd60e51b8152600401610af2906191a5565b601580546001600160a01b0385166001600160a01b03199091161790556001915050919050565b6148156174b4565b5f8281526007602090815260408083208151815460a09481028201850190935260808101838152909491938593919285929185015b82821015614975578382905f5260205f2090600502016040518060a00160405290815f820154815260200160018201548152602001600282015481526020016003820154815260200160048201805480602002602001604051908101604052809291908181526020015f905b8282101561495e578382905f5260205f200180546148d390618953565b80601f01602080910402602001604051908101604052809291908181526020018280546148ff90618953565b801561494a5780601f106149215761010080835404028352916020019161494a565b820191905f5260205f20905b81548152906001019060200180831161492d57829003601f168201915b5050505050815260200190600101906148b6565b50505050815250508152602001906001019061484a565b50505050815260200160018201604051806101200160405290815f8201805461499d90618953565b80601f01602080910402602001604051908101604052809291908181526020018280546149c990618953565b8015614a145780601f106149eb57610100808354040283529160200191614a14565b820191905f5260205f20905b8154815290600101906020018083116149f757829003601f168201915b50505050508152602001600182018054614a2d90618953565b80601f0160208091040260200160405190810160405280929190818152602001828054614a5990618953565b8015614aa45780601f10614a7b57610100808354040283529160200191614aa4565b820191905f5260205f20905b815481529060010190602001808311614a8757829003601f168201915b50505050508152602001600282018054614abd90618953565b80601f0160208091040260200160405190810160405280929190818152602001828054614ae990618953565b8015614b345780601f10614b0b57610100808354040283529160200191614b34565b820191905f5260205f20905b815481529060010190602001808311614b1757829003601f168201915b50505050508152602001600382018054614b4d90618953565b80601f0160208091040260200160405190810160405280929190818152602001828054614b7990618953565b8015614bc45780601f10614b9b57610100808354040283529160200191614bc4565b820191905f5260205f20905b815481529060010190602001808311614ba757829003601f168201915b50505050508152602001600482018054614bdd90618953565b80601f0160208091040260200160405190810160405280929190818152602001828054614c0990618953565b8015614c545780601f10614c2b57610100808354040283529160200191614c54565b820191905f5260205f20905b815481529060010190602001808311614c3757829003601f168201915b50505050508152602001600582018054614c6d90618953565b80601f0160208091040260200160405190810160405280929190818152602001828054614c9990618953565b8015614ce45780601f10614cbb57610100808354040283529160200191614ce4565b820191905f5260205f20905b815481529060010190602001808311614cc757829003601f168201915b50505050508152602001600682018054614cfd90618953565b80601f0160208091040260200160405190810160405280929190818152602001828054614d2990618953565b8015614d745780601f10614d4b57610100808354040283529160200191614d74565b820191905f5260205f20905b815481529060010190602001808311614d5757829003601f168201915b50505050508152602001600782018054614d8d90618953565b80601f0160208091040260200160405190810160405280929190818152602001828054614db990618953565b8015614e045780601f10614ddb57610100808354040283529160200191614e04565b820191905f5260205f20905b815481529060010190602001808311614de757829003601f168201915b50505050508152602001600882018054614e1d90618953565b80601f0160208091040260200160405190810160405280929190818152602001828054614e4990618953565b8015614e945780601f10614e6b57610100808354040283529160200191614e94565b820191905f5260205f20905b815481529060010190602001808311614e7757829003601f168201915b505050919092525050508152600a8201546001600160a01b031660208083019190915260408051608081018252600b850180548252600c86015493820193909352600d8501549382019390929183019060ff166001811115614ef857614ef8618627565b6001811115614f0957614f09618627565b81526020016002820160019054906101000a900460ff166001811115614f3157614f31618627565b6001811115614f4257614f42618627565b90525090525092915050565b6001600160a01b0381165f90815260056020526040812054606091906001600160401b03811115614f8157614f81617627565b604051908082528060200260200182016040528015614fba57816020015b614fa761744b565b815260200190600190039081614f9f5790505b506001600160a01b0384165f9081526005602052604081209192505b81548110156152325760065f838381548110614ff457614ff4618bd8565b905f5260205f20015481526020019081526020015f206040518060a00160405290815f820154815260200160018201805480602002602001604051908101604052809291908181526020015f905b828210156151d3578382905f5260205f2090600502016040518060a00160405290815f82018054806020026020016040519081016040528092919081815260200182805480156150af57602002820191905f5260205f20905b81548152602001906001019080831161509b575b505050505081526020016001820180548060200260200160405190810160405280929190818152602001828054801561510557602002820191905f5260205f20905b8154815260200190600101908083116150f1575b505050505081526020016002820180548060200260200160405190810160405280929190818152602001828054801561515b57602002820191905f5260205f20905b815481526020019060010190808311615147575b50505050508152602001600382018054806020026020016040519081016040528092919081815260200182805480156151b157602002820191905f5260205f20905b81548152602001906001019080831161519d575b5050505050815260200160048201548152505081526020019060010190615042565b5050509082525060028201546001600160a01b0381166020830152600160a01b900460ff1615156040820152600390910154606090910152835184908390811061521f5761521f618bd8565b6020908102919091010152600101614fd6565b50909392505050565b6002602052815f5260405f20818154811061088d575f80fd5b6017546001600160a01b031633811461527f5760405162461bcd60e51b8152600401610af2906191a5565b5f82815260046020526040902054806152cb5760405162461bcd60e51b815260206004820152600e60248201526d1ddc9bdb99c81bdc99195c88125160921b6044820152606401610af2565b5f81815260016020818152604080842081516102608101835281548152938101546001600160a01b0390811685850152600282015416848301526003810154606085015260048101805483518186028101860190945280845291936080860193929083018282801561535a57602002820191905f5260205f20905b815481526020019060010190808311615346575b50505050508152602001600582018054806020026020016040519081016040528092919081815260200182805480156153b057602002820191905f5260205f20905b81548152602001906001019080831161539c575b505050505081526020016006820180548060200260200160405190810160405280929190818152602001828054801561540657602002820191905f5260205f20905b8154815260200190600101908083116153f2575b505050505081526020016007820180548060200260200160405190810160405280929190818152602001828054801561545c57602002820191905f5260205f20905b815481526020019060010190808311615448575b50505050508152602001600882018054806020026020016040519081016040528092919081815260200182805480156154b257602002820191905f5260205f20905b81548152602001906001019080831161549e575b505050505081526020016009820180548060200260200160405190810160405280929190818152602001828054801561550857602002820191905f5260205f20905b8154815260200190600101908083116154f4575b50505050508152602001600a820180548060200260200160405190810160405280929190818152602001828054801561555e57602002820191905f5260205f20905b81548152602001906001019080831161554a575b5050509183525050600b8201546020820152600c82015460ff80821660408401526101009182900481166060840152600d840154608080850191909152600e85015460a0850152600f85015460c0850152601085015490911660e08401526011909301549101528101515190915061560a5760405162461bcd60e51b815260206004820152600f60248201526e3737ba103337bab7321037b93232b960891b6044820152606401610af2565b5f5b8160a00151518160ff161015615a715760115460a083015180515f926001600160a01b0316916241c6299160ff861690811061564a5761564a618bd8565b60200260200101518560c001518560ff168151811061566b5761566b618bd8565b60200260200101516040518363ffffffff1660e01b81526004016156909291906190cf565b60c060405180830381865afa1580156156ab573d5f803e3d5ffd5b505050506040513d601f19601f820116820180604052508101906156cf91906190dd565b90508260e001518260ff16815181106156ea576156ea618bd8565b6020026020010151816020015160800151615705919061921c565b60208201516080015260115460a084015180516001600160a01b0390921691631d068976919060ff861690811061573e5761573e618bd8565b60200260200101518560c001518560ff168151811061575f5761575f618bd8565b60200260200101518460200151608001518760e001518760ff168151811061578957615789618bd8565b60200260200101516040518563ffffffff1660e01b81526004016157c6949392919093845260208401929092526040830152606082015260800190565b5f604051808303815f87803b1580156157dd575f80fd5b505af11580156157ef573d5f803e3d5ffd5b505060135460a086015180516001600160a01b039092169350638286980c92509060ff861690811061582357615823618bd8565b60200260200101516040518263ffffffff1660e01b815260040161584991815260200190565b5f604051808303815f87803b158015615860575f80fd5b505af1158015615872573d5f803e3d5ffd5b5050601354602086015160a087015180516001600160a01b039093169450635b9566279350909160ff87169081106158ac576158ac618bd8565b60200260200101516040518363ffffffff1660e01b81526004016158e59291906001600160a01b03929092168252602082015260400190565b5f604051808303815f87803b1580156158fc575f80fd5b505af115801561590e573d5f803e3d5ffd5b506001925061591b915050565b60ff1683610180015160ff16146159da575f61593685612809565b90505f60405180604001604052808660a001518660ff168151811061595d5761595d618bd8565b60209081029190910181015182524291015260135460608085015101516040516307a752e960e31b81529293506001600160a01b0390911691633d3a9748916159aa918590600401619243565b5f604051808303815f87803b1580156159c1575f80fd5b505af11580156159d3573d5f803e3d5ffd5b5050505050505b60135460a084015180516001600160a01b039092169163b34210e1919060ff8616908110615a0a57615a0a618bd8565b60200260200101516040518263ffffffff1660e01b8152600401615a3091815260200190565b5f604051808303815f87803b158015615a47575f80fd5b505af1158015615a59573d5f803e3d5ffd5b50505050508080615a699061926f565b91505061560c565b506040805160608101825261022083015160ff90811682526101608401516020808401918252858501516001600160a01b0390811685870190815260125492880151965163025f36e560e01b815296821660048801528551909416602487015291516044860152915181166064850152919291169063025f36e5906084015f604051808303815f87803b158015615b06575f80fd5b505af1158015615b18573d5f803e3d5ffd5b505060125484515f87815260016020819052604091829020015460115460a089015192516366573f6160e01b81526001600160a01b03958616975063e205d94e96509394918216939116916366573f6191615b76919060040161928d565b5f60405180830381865afa158015615b90573d5f803e3d5ffd5b505050506040513d5f823e601f3d908101601f19168201604052615bb791908101906192c4565b6040518463ffffffff1660e01b8152600401615bd593929190619353565b5f604051808303815f87803b158015615bec575f80fd5b505af1158015615bfe573d5f803e3d5ffd5b505050507f88227f5acc5172d082ff1158c7e6b54727dddce3806e3ce09aacfbda6a8e4d3983604051615c3391815260200190565b60405180910390a15050505050565b60605f82516001600160401b03811115615c5e57615c5e617627565b604051908082528060200260200182016040528015615c9757816020015b615c8461741e565b815260200190600190039081615c7c5790505b5090505f5b8351811015612f0557615ce8848281518110615cba57615cba618bd8565b60200260200101515f0151858381518110615cd757615cd7618bd8565b6020026020010151602001516124f3565b828281518110615cfa57615cfa618bd8565b6020908102919091010152600101615c9c565b5f805b6001830154811015612dbf575f836001018281548110615d3257615d32618bd8565b5f918252602080832060046005909302019182015483526001905260408220909250905b6001830154811015615e6e575f836001018281548110615d7857615d78618bd8565b905f5260205f20015490505f845f018381548110615d9857615d98618bd8565b905f5260205f20015490505f856002018481548110615db957615db9618bd8565b905f5260205f20015490505f5b6005860154811015615e5e5783866005018281548110615de857615de8618bd8565b905f5260205f200154148015615e1a575081866006018281548110615e0f57615e0f618bd8565b905f5260205f200154145b15615e565782866007018281548110615e3557615e35618bd8565b905f5260205f20015f828254615e4b91906193ba565b90915550615e5e9050565b600101615dc6565b505060019092019150615d569050565b505050600101615d10565b5f805b8251811015612dbf575f60015f858481518110615e9b57615e9b618bd8565b60200260200101516080015181526020019081526020015f209050805f01545f03615f2f5760405162461bcd60e51b815260206004820152604b60248201525f8051602061952083398151915260448201527f223a20313030322c20226d657373616765223a224f7264657220646f6573206e60648201526a6f7420657869737473227d60a81b608482015260a401610af2565b60018101546001600160a01b03163314615fbb5760405162461bcd60e51b815260206004820152605460248201525f8051602061952083398151915260448201527f223a20313030332c20226d657373616765223a22596f7520617265206e6f74206064820152736f776e6572206f6620746865206f72646572227d60601b608482015260a401610af2565b600c81015460ff1660011461603e5760405162461bcd60e51b815260206004820152605060248201525f8051602061952083398151915260448201527f223a20313030332c20226d657373616765223a224f72646572206973206e6f7460648201526f2073746f72616765206f72646572227d60801b608482015260a401610af2565b5f5b84838151811061605257616052618bd8565b6020026020010151602001515181101561629e575f85848151811061607957616079618bd8565b602002602001015160200151828151811061609657616096618bd8565b602002602001015190505f8685815181106160b3576160b3618bd8565b60200260200101515f015183815181106160cf576160cf618bd8565b602002602001015190505f8786815181106160ec576160ec618bd8565b602002602001015160400151848151811061610957616109618bd8565b602002602001015190505f805f90505b600587015481101561622e578487600501828154811061613b5761613b618bd8565b905f5260205f20015414801561616d57508287600601828154811061616257616162618bd8565b905f5260205f200154145b15616226578387600701828154811061618857616188618bd8565b905f5260205f20015410156161eb5760405162461bcd60e51b815260206004820152602360248201527f6e6f7420656e6f756768207175616e7469747920696e20706172656e74206f726044820152623232b960e91b6064820152608401610af2565b8387600701828154811061620157616201618bd8565b905f5260205f20015f828254616217919061921c565b909155506001925061622e9050565b600101616119565b508061628e5760405162461bcd60e51b815260206004820152602960248201527f70726f6475637420494420646f6573206e6f7420657869737420696e2070617260448201526832b73a1037b93232b960b91b6064820152608401610af2565b5050600190920191506160409050565b5050600101615e7c565b60605f6162b48361721a565b60010190505f816001600160401b038111156162d2576162d2617627565b6040519080825280601f01601f1916602001820160405280156162fc576020820181803683370190505b5090508181016020015b5f19016f181899199a1a9b1b9c1cb0b131b232b360811b600a86061a8153600a8504945084616306575b509392505050565b5f80805b6001600160a01b0385165f908152602081905260409020600201548110156163b5576001600160a01b0385165f90815260208190526040902060020180548591908390811061638d5761638d618bd8565b905f5260205f2090600502015f0154036163ad57809250600191506163b5565b60010161633c565b508061643b5760405162461bcd60e51b815260206004820152605c60248201525f8051602061952083398151915260448201527f223a2031302c20226d657373616765223a225468652063617274206974656d2060648201527b646f6573206e6f7420657869737420696e207468652063617274227d60201b608482015260a401610af2565b6001600160a01b0384165f9081526020819052604090206002015482106164c75760405162461bcd60e51b815260206004820152604760248201525f8051602061952083398151915260448201527f223a2031312c20226d657373616765223a22496e646578206f7574206f6620626064820152666f756e6473227d60c81b608482015260a401610af2565b6013546001600160a01b038581165f9081526020819052604090206002018054919092169163d24043cb918791908690811061650557616505618bd8565b905f5260205f209060050201600101545f60016040518563ffffffff1660e01b815260040161653794939291906193cd565b5f604051808303815f87803b15801561654e575f80fd5b505af1158015616560573d5f803e3d5ffd5b50506013546001600160a01b038781165f908152602081905260409020600201805491909216935063d24043cb9250879190869081106165a2576165a2618bd8565b905f5260205f2090600502016001015460115f9054906101000a90046001600160a01b03166001600160a01b031663b9db15b45f808b6001600160a01b03166001600160a01b031681526020019081526020015f20600201888154811061660b5761660b618bd8565b905f5260205f209060050201600101546040518263ffffffff1660e01b815260040161663991815260200190565b5f60405180830381865afa158015616653573d5f803e3d5ffd5b505050506040513d5f823e601f3d908101601f1916820160405261667a9190810190618df5565b6020015161018001515f6040518563ffffffff1660e01b81526004016166a394939291906193cd565b5f604051808303815f87803b1580156166ba575f80fd5b505af11580156166cc573d5f803e3d5ffd5b50506013546011546001600160a01b038881165f908152602081905260409020600201805493821695506392a198d5945091169163b9db15b491908790811061671757616717618bd8565b905f5260205f209060050201600101546040518263ffffffff1660e01b815260040161674591815260200190565b5f60405180830381865afa15801561675f573d5f803e3d5ffd5b505050506040513d5f823e601f3d908101601f191682016040526167869190810190618df5565b6020015161018001516040518263ffffffff1660e01b81526004016167ab9190618107565b5f604051808303815f87803b1580156167c2575f80fd5b505af11580156167d4573d5f803e3d5ffd5b5050506001600160a01b0385165f908152602081905260409020600201546167ff915060019061921c565b8210156168f557815b6001600160a01b0385165f9081526020819052604090206002015461682f9060019061921c565b8110156168f3576001600160a01b0385165f90815260208190526040902060020161685b8260016193ba565b8154811061686b5761686b618bd8565b905f5260205f2090600502015f80876001600160a01b03166001600160a01b031681526020019081526020015f2060020182815481106168ad576168ad618bd8565b5f91825260209091208254600590920201908155600180830154818301556002808401549083015560038084015490830155600492830154929091019190915501616808565b505b6001600160a01b0384165f908152602081905260409020600201546169815760405162461bcd60e51b815260206004820152604960248201525f8051602061952083398151915260448201527f223a2031322c20226d657373616765223a224361727420697320616c726561646064820152687920656d707479227d60b81b608482015260a401610af2565b6001600160a01b0384165f9081526020819052604090206002018054806169aa576169aa61922f565b5f8281526020812060055f199093019283020181815560018101829055600281018290556003810182905560040155905550505050565b616a28604051806101000160405280606081526020016060815260200160608152602001606081526020016060815260200160608152602001606081526020015f81525090565b6014546040516345ace91f60e11b81525f916001600160a01b031690638b59d23e90616a58908690600401618107565b602060405180830381865afa158015616a73573d5f803e3d5ffd5b505050506040513d601f19601f82011682018060405250810190616a9791906193f7565b8451909150806001600160401b03811115616ab457616ab4617627565b604051908082528060200260200182016040528015616add578160200160208202803683370190505b508352806001600160401b03811115616af857616af8617627565b604051908082528060200260200182016040528015616b21578160200160208202803683370190505b506020840152806001600160401b03811115616b3f57616b3f617627565b604051908082528060200260200182016040528015616b68578160200160208202803683370190505b506040840152806001600160401b03811115616b8657616b86617627565b604051908082528060200260200182016040528015616baf578160200160208202803683370190505b5060c0840152806001600160401b03811115616bcd57616bcd617627565b604051908082528060200260200182016040528015616bf6578160200160208202803683370190505b506080840152806001600160401b03811115616c1457616c14617627565b604051908082528060200260200182016040528015616c3d578160200160208202803683370190505b506060840152806001600160401b03811115616c5b57616c5b617627565b604051908082528060200260200182016040528015616c84578160200160208202803683370190505b5060a08401525f5b81811015612800575f805b6001600160a01b0387165f90815260208190526040902060020154811015616d3257878381518110616ccb57616ccb618bd8565b6020026020010151606001515f80896001600160a01b03166001600160a01b031681526020019081526020015f206002018281548110616d0d57616d0d618bd8565b905f5260205f2090600502015f015403616d2a5760019150616d32565b600101616c97565b5080616db65760405162461bcd60e51b815260206004820152605a60248201525f8051602061952083398151915260448201527f223a2031332c20226d657373616765223a2022636172744974656d496420646f6064820152796573206e6f7420657869737420696e207468652063617274227d60301b608482015260a401610af2565b60115487516001600160a01b039091169063b9db15b490899085908110616ddf57616ddf618bd8565b60200260200101515f01516040518263ffffffff1660e01b8152600401616e0891815260200190565b5f60405180830381865afa158015616e22573d5f803e3d5ffd5b505050506040513d5f823e601f3d908101601f19168201604052616e499190810190618df5565b602001516102c00151616e75600f60405180606001604052806023815260200161942860239139610d45565b90616e935760405162461bcd60e51b8152600401610af29190617cf5565b5060115487515f916001600160a01b0316906241c629908a9086908110616ebc57616ebc618bd8565b60200260200101515f01518a8681518110616ed957616ed9618bd8565b6020026020010151604001516040518363ffffffff1660e01b8152600401616f029291906190cf565b60c060405180830381865afa158015616f1d573d5f803e3d5ffd5b505050506040513d601f19601f82011682018060405250810190616f4191906190dd565b90505f808615616f5957506020808301510151616fe4565b506020808301516040810151910151616f72908261921c565b91505f8211616fe45760405162461bcd60e51b8152602060048201526044602482018190525f80516020619520833981519152908201527f223a2031332c20226d657373616765223a202277726f6e6720646966665072696064820152636365227d60e01b608482015260a401610af2565b898581518110616ff657616ff6618bd8565b6020026020010151602001518161700d9190619410565b8860e00181815161701e91906193ba565b9052506020830151608001518a518b908790811061703e5761703e618bd8565b602002602001015160200151111561706f600d6040518060600160405280602a8152602001619480602a9139610d45565b9061708d5760405162461bcd60e51b8152600401610af29190617cf5565b508985815181106170a0576170a0618bd8565b60200260200101515f0151885f015186815181106170c0576170c0618bd8565b6020026020010181815250508985815181106170de576170de618bd8565b6020026020010151604001518860200151868151811061710057617100618bd8565b60200260200101818152505089858151811061711e5761711e618bd8565b6020026020010151602001518860400151868151811061714057617140618bd8565b602002602001018181525050818860600151868151811061716357617163618bd8565b602002602001018181525050808860800151868151811061718657617186618bd8565b6020026020010181815250508260200151606001518860a0015186815181106171b1576171b1618bd8565b6020026020010181815250508985815181106171cf576171cf618bd8565b6020026020010151606001518860c0015186815181106171f1576171f1618bd8565b6020908102919091010152505060019092019150616c8c9050565b6172168282616338565b5050565b5f8072184f03e93ff9f4daa797ed6e38ed64bf6a1f0160401b83106172585772184f03e93ff9f4daa797ed6e38ed64bf6a1f0160401b830492506040015b6904ee2d6d415b85acef8160201b8310617282576904ee2d6d415b85acef8160201b830492506020015b662386f26fc1000083106172a057662386f26fc10000830492506010015b6305f5e10083106172b8576305f5e100830492506008015b61271083106172cc57612710830492506004015b606483106172de576064830492506002015b600a8310610d795760010192915050565b5080545f8255600502905f5260205f2090810190611a539190617501565b828054828255905f5260205f20908101928215617346579160200282015b8281111561734657825182559160200191906001019061732b565b5061112692915061754a565b60405180606001604052805f81526020015f6001600160a01b03168152602001606081525090565b6040518061026001604052805f81526020015f6001600160a01b031681526020015f6001600160a01b031681526020015f8152602001606081526020016060815260200160608152602001606081526020016060815260200160608152602001606081526020015f81526020015f60ff1681526020015f60ff1681526020015f80191681526020015f81526020015f81526020015f60ff1681526020015f81525090565b6040518060a001604052805f81526020015f81526020015f81526020015f80191681526020015f81525090565b6040518060a001604052805f8152602001606081526020015f6001600160a01b031681526020015f151581526020015f81525090565b60405180608001604052805f81526020015f81526020015f6001600160a01b031681526020016174af61755e565b905290565b6040518060800160405280606081526020016174ce61755e565b81525f60208201526040016174af604080516080810182525f80825260208201819052909182019081526020015f905290565b80821115611126575f61751482826175aa565b617521600183015f6175aa565b61752e600283015f6175aa565b61753b600383015f6175aa565b505f6004820155600501617501565b5b80821115611126575f815560010161754b565b6040518061012001604052806060815260200160608152602001606081526020016060815260200160608152602001606081526020016060815260200160608152602001606081525090565b5080545f8255905f5260205f2090810190611a53919061754a565b5f602082840312156175d5575f80fd5b5035919050565b6001600160a01b03169052565b6001600160a01b0381168114611a53575f80fd5b5f806040838503121561760e575f80fd5b8235617619816175e9565b946020939093013593505050565b634e487b7160e01b5f52604160045260245ffd5b60405161012081016001600160401b038111828210171561765e5761765e617627565b60405290565b60405160a081016001600160401b038111828210171561765e5761765e617627565b604051608081016001600160401b038111828210171561765e5761765e617627565b604051606081016001600160401b038111828210171561765e5761765e617627565b604080519081016001600160401b038111828210171561765e5761765e617627565b60405161030081016001600160401b038111828210171561765e5761765e617627565b604051601f8201601f191681016001600160401b038111828210171561773757617737617627565b604052919050565b5f6001600160401b0382111561775757617757617627565b50601f01601f191660200190565b5f6177776177728461773f565b61770f565b905082815283838301111561778a575f80fd5b828260208301375f602084830101529392505050565b5f82601f8301126177af575f80fd5b6177be83833560208501617765565b9392505050565b5f61012082840312156177d6575f80fd5b6177de61763b565b905081356001600160401b038111156177f5575f80fd5b617801848285016177a0565b82525060208201356001600160401b0381111561781c575f80fd5b617828848285016177a0565b60208301525060408201356001600160401b03811115617846575f80fd5b617852848285016177a0565b60408301525060608201356001600160401b03811115617870575f80fd5b61787c848285016177a0565b60608301525060808201356001600160401b0381111561789a575f80fd5b6178a6848285016177a0565b60808301525060a08201356001600160401b038111156178c4575f80fd5b6178d0848285016177a0565b60a08301525060c08201356001600160401b038111156178ee575f80fd5b6178fa848285016177a0565b60c08301525060e08201356001600160401b03811115617918575f80fd5b617924848285016177a0565b60e0830152506101008201356001600160401b03811115617943575f80fd5b61794f848285016177a0565b6101008301525092915050565b5f805f6060848603121561796e575f80fd5b83356001600160401b03811115617983575f80fd5b61798f868287016177c5565b9350506020840135915060408401356179a7816175e9565b809150509250925092565b5f6001600160401b038211156179ca576179ca617627565b5060051b60200190565b5f82601f8301126179e3575f80fd5b81356179f1617772826179b2565b8082825260208201915060208360051b860101925085831115617a12575f80fd5b602085015b83811015617a2f578035835260209283019201617a17565b5095945050505050565b5f82601f830112617a48575f80fd5b8135617a56617772826179b2565b8082825260208201915060208360051b860101925085831115617a77575f80fd5b602085015b83811015617a2f5780356001600160401b03811115617a99575f80fd5b860160a0818903601f19011215617aae575f80fd5b617ab6617664565b60208201356001600160401b03811115617ace575f80fd5b617add8a6020838601016179d4565b82525060408201356001600160401b03811115617af8575f80fd5b617b078a6020838601016179d4565b60208301525060608201356001600160401b03811115617b25575f80fd5b617b348a6020838601016179d4565b60408301525060808201356001600160401b03811115617b52575f80fd5b617b618a6020838601016179d4565b60608301525060a091909101356080820152835260209283019201617a7c565b5f805f60608486031215617b93575f80fd5b8335925060208401356001600160401b03811115617baf575f80fd5b617bbb86828701617a39565b93969395505050506040919091013590565b5f60208284031215617bdd575f80fd5b81356177be816175e9565b80518252602081015160208301526040810151604083015260608101516060830152608081015160808301525050565b6020808252825182820152828101516001600160a01b03166040808401919091528301516060808401528051608084018190525f929190910190829060a08501905b80831015617a2f57617c6d828551617be8565b60a082019150602084019350600183019250617c5a565b5f8060408385031215617c95575f80fd5b8235915060208301356001600160401b03811115617cb1575f80fd5b617cbd858286016177a0565b9150509250929050565b5f81518084528060208401602086015e5f602082860101526020601f19601f83011685010191505092915050565b602081525f6177be6020830184617cc7565b5f8151808452602084019350602083015f5b82811015617d37578151865260209586019590910190600101617d19565b5093949350505050565b805182525f6020820151617d5860208501826175dc565b506040820151617d6b60408501826175dc565b506060820151606084015260808201516102606080850152617d91610260850182617d07565b905060a083015184820360a0860152617daa8282617d07565b91505060c083015184820360c0860152617dc48282617d07565b91505060e083015184820360e0860152617dde8282617d07565b915050610100830151848203610100860152617dfa8282617d07565b915050610120830151848203610120860152617e168282617d07565b915050610140830151848203610140860152617e328282617d07565b915050610160830151610160850152610180830151617e5761018086018260ff169052565b506101a0830151617e6e6101a086018260ff169052565b506101c08301516101c08501526101e08301516101e0850152610200830151610200850152610220830151617ea961022086018260ff169052565b506102408301516102408501528091505092915050565b5f602082016020835280845180835260408501915060408160051b8601019250602086015f5b82811015617f1757603f19878603018452617f02858351617d41565b94506020938401939190910190600101617ee6565b50929695505050505050565b5f60208284031215617f33575f80fd5b81356001600160401b03811115617f48575f80fd5b8201601f81018413617f58575f80fd5b617f6784823560208401617765565b949350505050565b5f805f60608486031215617f81575f80fd5b505081359360208301359350604090920135919050565b60a08101610d798284617be8565b5f60a0830182518452602083015160a0602086015281815180845260c08701915060c08160051b88010193506020830192505f5b818110156180715760bf198886030183528351805160a0875261800060a0880182617d07565b9050602082015187820360208901526180198282617d07565b915050604082015187820360408901526180338282617d07565b9150506060820151878203606089015261804d8282617d07565b60809384015198909301979097525094506020938401939290920191600101617fda565b50505050604083015161808760408601826175dc565b50606083015161809b606086018215159052565b50608083015160808501528091505092915050565b5f602082016020835280845180835260408501915060408160051b8601019250602086015f5b82811015617f1757603f198786030184526180f2858351617fa6565b945060209384019391909101906001016180d6565b6001600160a01b0391909116815260200190565b60028110611a53575f80fd5b5f60808284031215618137575f80fd5b61813f617686565b82358152602080840135908201529050604082013561815d8161811b565b604082015260608201356181708161811b565b606082015292915050565b5f805f60c0848603121561818d575f80fd5b6001600160401b03843511156181a1575f80fd5b8335840185601f8201126181b3575f80fd5b6181c061777282356179b2565b81358082526020808301929160051b8401018810156181dd575f80fd5b602083015b6020843560051b850101811015618303576001600160401b0381351115618207575f80fd5b8035840160a0818b03601f1901121561821e575f80fd5b618226617664565b602082810135825260408084013591830191909152606080840135918301919091526080830135908201526001600160401b0360a08301351115618268575f80fd5b602060a083013583010191508a601f830112618282575f80fd5b61828f61777283356179b2565b82358082526020808301929160051b8501018d8111156182ad575f80fd5b602085015b818110156182ec576001600160401b03813511156182ce575f80fd5b6182de8f602083358901016177a0565b8452602093840193016182b2565b5050608083015250845250602092830192016181e2565b50945050506001600160401b036020850135111561831f575f80fd5b61832f85602086013586016177c5565b915061833e8560408601618127565b90509250925092565b5f8060408385031215618358575f80fd5b50508035926020909101359150565b5f8151610120845261837d610120850182617cc7565b9050602083015184820360208601526183968282617cc7565b915050604083015184820360408601526183b08282617cc7565b915050606083015184820360608601526183ca8282617cc7565b915050608083015184820360808601526183e48282617cc7565b91505060a083015184820360a08601526183fe8282617cc7565b91505060c083015184820360c08601526184188282617cc7565b91505060e083015184820360e08601526184328282617cc7565b91505061010083015184820361010086015261844e8282617cc7565b95945050505050565b60208152815160208201526020820151604082015260018060a01b0360408301511660608201525f6060830151608080840152617f6760a0840182618367565b5f602082840312156184a7575f80fd5b81356001600160401b038111156184bc575f80fd5b617f67848285016179d4565b5f602082840312156184d8575f80fd5b81356001600160401b038111156184ed575f80fd5b8201601f810184136184fd575f80fd5b803561850b617772826179b2565b8082825260208201915060206060840285010192508683111561852c575f80fd5b6020840193505b8284101561857d576060848803121561854a575f80fd5b6185526176a8565b8435815260208086013581830152604080870135908301529083526060909401939190910190618533565b9695505050505050565b602080825282518282018190525f918401906040840190835b818110156185c9576185b3838551617be8565b6020939093019260a092909201916001016185a0565b509095945050505050565b5f80604083850312156185e5575f80fd5b82356001600160401b038111156185fa575f80fd5b61860685828601617a39565b95602094909401359450505050565b602081525f6177be6020830184617d41565b634e487b7160e01b5f52602160045260245ffd5b60028110611a5357634e487b7160e01b5f52602160045260245ffd5b805182526020810151602083015260408101516186738161863b565b604083015260608101516186868161863b565b806060840152505050565b60c081525f6186a360c0830186618367565b6001600160a01b03851660208401529050617f676040830184618657565b5f60a08284031280156186d2575f80fd5b506186db617664565b823581526020808401359082015260408084013590820152606080840135908201526080928301359281019290925250919050565b602081525f6177be6020830184617fa6565b84815283602082015260018060a01b0383166040820152608060608201525f61857d6080830184618367565b602081525f6101008201835160e06020850152818151808452610120860191506101208160051b87010193506020830192505f5b818110156188355761011f19878603018352835160a08601815187526020820151602088015260408201516040880152606082015160608801526080820151915060a0608088015280825180835260c08901915060c08160051b8a010192506020840193505f5b8181101561881b5760bf198a8503018352618805848651617cc7565b60209586019590945092909201916001016187e9565b509197505050602094850194939093019250600101618782565b505050506020840151838203601f190160408501526188548282618367565b915050604084015161886960608501826175dc565b5060608401516163306080850182618657565b5f6020828403121561888c575f80fd5b81356001600160401b038111156188a1575f80fd5b8201601f810184136188b1575f80fd5b80356188bf617772826179b2565b8082825260208201915060208360061b8501019250868311156188e0575f80fd5b6020840193505b8284101561857d57604084880312156188fe575f80fd5b6189066176ca565b843581526020808601358183015290835260409094019391909101906188e7565b634e487b7160e01b5f52601160045260245ffd5b5f6001820161894c5761894c618927565b5060010190565b600181811c9082168061896757607f821691505b60208210810361117357634e487b7160e01b5f52602260045260245ffd5b601f8211156189cc57805f5260205f20601f840160051c810160208510156189aa5750805b601f840160051c820191505b818110156189c9575f81556001016189b6565b50505b505050565b81516001600160401b038111156189ea576189ea617627565b6189fe816189f88454618953565b84618985565b6020601f821160018114618a30575f8315618a195750848201515b5f19600385901b1c1916600184901b1784556189c9565b5f84815260208120601f198516915b82811015618a5f5787850151825560209485019460019092019101618a3f565b5084821015618a7c57868401515f19600387901b60f8161c191681555b50505050600190811b01905550565b8c81528b6020820152618aa1604082018c6175dc565b61018060608201525f618ab861018083018c617cc7565b8281036080840152618aca818c617cc7565b905082810360a0840152618ade818b617cc7565b905082810360c0840152618af2818a617cc7565b905082810360e0840152618b068189617cc7565b9050828103610100840152618b1b8188617cc7565b9050828103610120840152618b308187617cc7565b9050828103610140840152618b458186617cc7565b9050828103610160840152618b5a8185617cc7565b9f9e505050505050505050505050505050565b60208082526058908201525f8051602061952083398151915260408201527f223a20313030322c20226d657373616765223a22596f7520617265206e6f74206060820152776f776e6572206f66207468652073686172656c696e6b227d60401b608082015260a00190565b634e487b7160e01b5f52603260045260245ffd5b5f81518060208401855e5f93019283525090919050565b781ec8999c9bdb488e88089158dbdb53dc99195c8b9cdbdb088b603a1b81526701131b7b232911d160c51b60198201525f618c416021830185618bec565b61016160f51b81526b1136b2b9b9b0b3b2911d101160a11b6002820152618c6b600e820185618bec565b61227d60f01b815260020195945050505050565b5f60208284031215618c8f575f80fd5b5051919050565b5f618ca36177728461773f565b9050828152838383011115618cb6575f80fd5b8282602083015e5f602084830101529392505050565b5f82601f830112618cdb575f80fd5b6177be83835160208501618c96565b5f82601f830112618cf9575f80fd5b8151618d07617772826179b2565b8082825260208201915060208360051b860101925085831115618d28575f80fd5b602085015b83811015617a2f578051835260209283019201618d2d565b5f82601f830112618d54575f80fd5b8151618d62617772826179b2565b8082825260208201915060208360051b860101925085831115618d83575f80fd5b602085015b83811015617a2f5780516001600160401b03811115618da5575f80fd5b8601603f81018813618db5575f80fd5b618dc788602083015160408401618c96565b84525060209283019201618d88565b8051618de1816175e9565b919050565b80518015158114618de1575f80fd5b5f60208284031215618e05575f80fd5b81516001600160401b03811115618e1a575f80fd5b820160808185031215618e2b575f80fd5b618e33617686565b8151815260208201516001600160401b03811115618e4f575f80fd5b82016103008187031215618e61575f80fd5b618e696176ec565b81516001600160401b03811115618e7e575f80fd5b618e8a88828501618ccc565b8252506020828101519082015260408201516001600160401b03811115618eaf575f80fd5b618ebb88828501618ccc565b604083015250606082810151908201526080808301519082015260a0808301519082015260c0808301519082015260e08201516001600160401b03811115618f01575f80fd5b618f0d88828501618cea565b60e0830152506101008201516001600160401b03811115618f2c575f80fd5b618f3888828501618d45565b61010083015250610120828101519082015261014080830151908201526101608201516001600160401b03811115618f6e575f80fd5b618f7a88828501618d45565b61016083015250618f8e6101808301618dd6565b6101808201526101a08201516001600160401b03811115618fad575f80fd5b618fb988828501618ccc565b6101a0830152506101c08201516001600160401b03811115618fd9575f80fd5b618fe588828501618ccc565b6101c083015250618ff96101e08301618de6565b6101e08201526102008201516001600160401b03811115619018575f80fd5b61902488828501618d45565b610200830152506102208201516001600160401b03811115619044575f80fd5b61905088828501618ccc565b610220830152506102408281015190820152610260808301519082015261028080830151908201526190856102a08301618de6565b6102a08201526190986102c08301618de6565b6102c08201526102e09182015191810191909152602082015260408281015190820152606091820151918101919091529392505050565b918252602082015260400190565b5f81830360c0811280156190ef575f80fd5b506190f86176ca565b8351815260a0601f198301121561910d575f80fd5b619115617664565b602085810151825260408087015182840152606080880151918401919091526080808801519184019190915260a0909601519582019590955293810193909352509092915050565b6001600160a01b03878116825260208201879052604082018690528416606082015260c0810161918c8461863b565b83608083015282151560a0830152979650505050505050565b60208082526049908201525f8051602061952083398151915260408201527f223a2035352c20226d657373616765223a2022596f7520617265206e6f7420616060820152686c6c6f7765642e227d60b81b608082015260a00190565b5f60208284031215619211575f80fd5b81516177be816175e9565b81810381811115610d7957610d79618927565b634e487b7160e01b5f52603160045260245ffd5b606081525f6192556060830185617cc7565b905082516020830152602083015160408301529392505050565b5f60ff821660ff810361928457619284618927565b60010192915050565b602080825282518282018190525f918401906040840190835b818110156185c95783518352602093840193909201916001016192a6565b5f602082840312156192d4575f80fd5b81516001600160401b038111156192e9575f80fd5b8201601f810184136192f9575f80fd5b8051619307617772826179b2565b8082825260208201915060208360051b850101925086831115619328575f80fd5b6020840193505b8284101561857d578351619342816175e9565b82526020938401939091019061932f565b8381526001600160a01b03831660208083019190915260606040830181905283519083018190525f918401906080840190835b818110156193ad5783516001600160a01b0316835260209384019390920191600101619386565b5090979650505050505050565b80820180821115610d7957610d79618927565b6001600160a01b039485168152602081019390935292166040820152901515606082015260800190565b5f60208284031215619407575f80fd5b6177be82618de6565b8082028115828204841417610d7957610d7961892756fe546869732070726f6475637420686173206e6f74206265656e20617070726f7665642e496e76616c6964207061796d656e7420747970652c207061796d656e7420747970652073686f756c64206d65206d6574616e6f6465526571756573746564207175616e74697479206578636565647320617661696c61626c652073746f636b50726f6475637420616e642076617269616e7420616c72656164792065786973747320696e2063617274223a20313030332c20226d657373616765223a22496e76616c69642073686172496e73756666696369656e74207175616e7469747920617661696c61626c6520666f722070757263686173657b2266726f6d223a202245636f6d50726f647563742e736f6c222c22636f6465a2646970667358221220c114cca5c0060c4df26a5013e1fdde7ca4e80824f57f7f8414da69321390dc0864736f6c634300081a0033",
			"opcodes": "PUSH1 0x80 PUSH1 0x40 MSTORE PUSH1 0x16 DUP1 SLOAD PUSH1 0x1 PUSH1 0x1 PUSH1 0xA0 SHL SUB NOT AND CALLER OR SWAP1 SSTORE PUSH2 0x9575 DUP1 PUSH2 0x23 PUSH0 CODECOPY PUSH0 RETURN INVALID PUSH1 0x80 PUSH1 0x40 MSTORE CALLVALUE DUP1 ISZERO PUSH2 0xF JUMPI PUSH0 DUP1 REVERT JUMPDEST POP PUSH1 0x4 CALLDATASIZE LT PUSH2 0x259 JUMPI PUSH0 CALLDATALOAD PUSH1 0xE0 SHR DUP1 PUSH3 0xE6AF7F EQ PUSH2 0x25D JUMPI DUP1 PUSH4 0x2B572D6 EQ PUSH2 0x2D4 JUMPI DUP1 PUSH4 0x40F1D72 EQ PUSH2 0x2F5 JUMPI DUP1 PUSH4 0x8A53B21 EQ PUSH2 0x30A JUMPI DUP1 PUSH4 0x1FDA90A2 EQ PUSH2 0x32D JUMPI DUP1 PUSH4 0x2248632A EQ PUSH2 0x34D JUMPI DUP1 PUSH4 0x2D8206FE EQ PUSH2 0x36D JUMPI DUP1 PUSH4 0x2E2DC43E EQ PUSH2 0x459 JUMPI DUP1 PUSH4 0x30D51A32 EQ PUSH2 0x46E JUMPI DUP1 PUSH4 0x399CFA1E EQ PUSH2 0x481 JUMPI DUP1 PUSH4 0x44D80330 EQ PUSH2 0x4A1 JUMPI DUP1 PUSH4 0x46E115C0 EQ PUSH2 0x4A9 JUMPI DUP1 PUSH4 0x4B5BA409 EQ PUSH2 0x4BE JUMPI DUP1 PUSH4 0x4D5C5FD7 EQ PUSH2 0x4D1 JUMPI DUP1 PUSH4 0x4E8781CD EQ PUSH2 0x4F1 JUMPI DUP1 PUSH4 0x5A7F48F8 EQ PUSH2 0x504 JUMPI DUP1 PUSH4 0x62DE6230 EQ PUSH2 0x517 JUMPI DUP1 PUSH4 0x63C69F08 EQ PUSH2 0x52A JUMPI DUP1 PUSH4 0x76D6E7EF EQ PUSH2 0x53D JUMPI DUP1 PUSH4 0x7CE47345 EQ PUSH2 0x550 JUMPI DUP1 PUSH4 0x834F9ED3 EQ PUSH2 0x563 JUMPI DUP1 PUSH4 0x86CB0D92 EQ PUSH2 0x583 JUMPI DUP1 PUSH4 0x8A8869E2 EQ PUSH2 0x596 JUMPI DUP1 PUSH4 0x8DA5CB5B EQ PUSH2 0x5A9 JUMPI DUP1 PUSH4 0x93C26229 EQ PUSH2 0x5BC JUMPI DUP1 PUSH4 0x96E98874 EQ PUSH2 0x5DC JUMPI DUP1 PUSH4 0x9A377A37 EQ PUSH2 0x628 JUMPI DUP1 PUSH4 0xA354F1B2 EQ PUSH2 0x63B JUMPI DUP1 PUSH4 0xA4E176EA EQ PUSH2 0x64E JUMPI DUP1 PUSH4 0xA559934E EQ PUSH2 0x661 JUMPI DUP1 PUSH4 0xA875588D EQ PUSH2 0x674 JUMPI DUP1 PUSH4 0xAB238F1F EQ PUSH2 0x687 JUMPI DUP1 PUSH4 0xB814F77B EQ PUSH2 0x6A7 JUMPI DUP1 PUSH4 0xBFBE3EF7 EQ PUSH2 0x6BA JUMPI DUP1 PUSH4 0xC006E9A9 EQ PUSH2 0x6D9 JUMPI DUP1 PUSH4 0xC54E44EB EQ PUSH2 0x6EC JUMPI DUP1 PUSH4 0xCAC0E650 EQ PUSH2 0x6FF JUMPI DUP1 PUSH4 0xCF9796EC EQ PUSH2 0x712 JUMPI DUP1 PUSH4 0xCF991364 EQ PUSH2 0x734 JUMPI DUP1 PUSH4 0xD09EF241 EQ PUSH2 0x747 JUMPI DUP1 PUSH4 0xD71F8181 EQ PUSH2 0x75A JUMPI DUP1 PUSH4 0xDA31F88A EQ PUSH2 0x77A JUMPI DUP1 PUSH4 0xDDCD6408 EQ PUSH2 0x79D JUMPI DUP1 PUSH4 0xE217866C EQ PUSH2 0x7B0 JUMPI DUP1 PUSH4 0xE5E00E93 EQ PUSH2 0x7D0 JUMPI DUP1 PUSH4 0xE5FC4AC2 EQ PUSH2 0x7E3 JUMPI DUP1 PUSH4 0xEA68BA99 EQ PUSH2 0x7F6 JUMPI DUP1 PUSH4 0xF29155EF EQ PUSH2 0x809 JUMPI DUP1 PUSH4 0xF894196E EQ PUSH2 0x81C JUMPI DUP1 PUSH4 0xFB08E12E EQ PUSH2 0x82F JUMPI DUP1 PUSH4 0xFB7EF377 EQ PUSH2 0x84E JUMPI DUP1 PUSH4 0xFFAFE929 EQ PUSH2 0x861 JUMPI JUMPDEST PUSH0 DUP1 REVERT JUMPDEST PUSH2 0x2A1 PUSH2 0x26B CALLDATASIZE PUSH1 0x4 PUSH2 0x75C5 JUMP JUMPDEST PUSH1 0x6 PUSH1 0x20 MSTORE PUSH0 SWAP1 DUP2 MSTORE PUSH1 0x40 SWAP1 KECCAK256 DUP1 SLOAD PUSH1 0x2 DUP3 ADD SLOAD PUSH1 0x3 SWAP1 SWAP3 ADD SLOAD SWAP1 SWAP2 PUSH1 0x1 PUSH1 0x1 PUSH1 0xA0 SHL SUB DUP2 AND SWAP2 PUSH1 0x1 PUSH1 0xA0 SHL SWAP1 SWAP2 DIV PUSH1 0xFF AND SWAP1 DUP5 JUMP JUMPDEST PUSH1 0x40 DUP1 MLOAD SWAP5 DUP6 MSTORE PUSH1 0x1 PUSH1 0x1 PUSH1 0xA0 SHL SUB SWAP1 SWAP4 AND PUSH1 0x20 DUP6 ADD MSTORE SWAP1 ISZERO ISZERO SWAP2 DUP4 ADD SWAP2 SWAP1 SWAP2 MSTORE PUSH1 0x60 DUP3 ADD MSTORE PUSH1 0x80 ADD JUMPDEST PUSH1 0x40 MLOAD DUP1 SWAP2 SUB SWAP1 RETURN JUMPDEST PUSH2 0x2E7 PUSH2 0x2E2 CALLDATASIZE PUSH1 0x4 PUSH2 0x75FD JUMP JUMPDEST PUSH2 0x874 JUMP JUMPDEST PUSH1 0x40 MLOAD SWAP1 DUP2 MSTORE PUSH1 0x20 ADD PUSH2 0x2CB JUMP JUMPDEST PUSH2 0x308 PUSH2 0x303 CALLDATASIZE PUSH1 0x4 PUSH2 0x795C JUMP JUMPDEST PUSH2 0x89F JUMP JUMPDEST STOP JUMPDEST PUSH2 0x31D PUSH2 0x318 CALLDATASIZE PUSH1 0x4 PUSH2 0x7B81 JUMP JUMPDEST PUSH2 0xAB9 JUMP JUMPDEST PUSH1 0x40 MLOAD SWAP1 ISZERO ISZERO DUP2 MSTORE PUSH1 0x20 ADD PUSH2 0x2CB JUMP JUMPDEST PUSH2 0x340 PUSH2 0x33B CALLDATASIZE PUSH1 0x4 PUSH2 0x7BCD JUMP JUMPDEST PUSH2 0xC79 JUMP JUMPDEST PUSH1 0x40 MLOAD PUSH2 0x2CB SWAP2 SWAP1 PUSH2 0x7C18 JUMP JUMPDEST PUSH2 0x360 PUSH2 0x35B CALLDATASIZE PUSH1 0x4 PUSH2 0x7C84 JUMP JUMPDEST PUSH2 0xD45 JUMP JUMPDEST PUSH1 0x40 MLOAD PUSH2 0x2CB SWAP2 SWAP1 PUSH2 0x7CF5 JUMP JUMPDEST PUSH2 0x3E8 PUSH2 0x37B CALLDATASIZE PUSH1 0x4 PUSH2 0x75C5 JUMP JUMPDEST PUSH1 0x1 PUSH1 0x20 DUP2 SWAP1 MSTORE PUSH0 SWAP2 DUP3 MSTORE PUSH1 0x40 SWAP1 SWAP2 KECCAK256 DUP1 SLOAD SWAP2 DUP2 ADD SLOAD PUSH1 0x2 DUP3 ADD SLOAD PUSH1 0x3 DUP4 ADD SLOAD PUSH1 0xB DUP5 ADD SLOAD PUSH1 0xC DUP6 ADD SLOAD PUSH1 0xD DUP7 ADD SLOAD PUSH1 0xE DUP8 ADD SLOAD PUSH1 0xF DUP9 ADD SLOAD PUSH1 0x10 DUP10 ADD SLOAD PUSH1 0x11 SWAP1 SWAP10 ADD SLOAD PUSH1 0x1 PUSH1 0x1 PUSH1 0xA0 SHL SUB SWAP9 DUP10 AND SWAP10 SWAP8 SWAP1 SWAP9 AND SWAP8 SWAP6 SWAP7 SWAP5 SWAP6 PUSH1 0xFF DUP1 DUP7 AND SWAP7 PUSH2 0x100 SWAP1 SWAP7 DIV DUP2 AND SWAP6 AND SWAP1 DUP13 JUMP JUMPDEST PUSH1 0x40 DUP1 MLOAD SWAP13 DUP14 MSTORE PUSH1 0x1 PUSH1 0x1 PUSH1 0xA0 SHL SUB SWAP12 DUP13 AND PUSH1 0x20 DUP15 ADD MSTORE SWAP10 SWAP1 SWAP11 AND SWAP9 DUP12 ADD SWAP9 SWAP1 SWAP9 MSTORE PUSH1 0x60 DUP11 ADD SWAP7 SWAP1 SWAP7 MSTORE PUSH1 0x80 DUP10 ADD SWAP5 SWAP1 SWAP5 MSTORE PUSH1 0xFF SWAP3 DUP4 AND PUSH1 0xA0 DUP10 ADD MSTORE SWAP1 DUP3 AND PUSH1 0xC0 DUP9 ADD MSTORE PUSH1 0xE0 DUP8 ADD MSTORE PUSH2 0x100 DUP7 ADD SWAP2 SWAP1 SWAP2 MSTORE PUSH2 0x120 DUP6 ADD SWAP2 SWAP1 SWAP2 MSTORE AND PUSH2 0x140 DUP4 ADD MSTORE PUSH2 0x160 DUP3 ADD MSTORE PUSH2 0x180 ADD PUSH2 0x2CB JUMP JUMPDEST PUSH2 0x461 PUSH2 0xD7F JUMP JUMPDEST PUSH1 0x40 MLOAD PUSH2 0x2CB SWAP2 SWAP1 PUSH2 0x7EC0 JUMP JUMPDEST PUSH2 0x31D PUSH2 0x47C CALLDATASIZE PUSH1 0x4 PUSH2 0x7F23 JUMP JUMPDEST PUSH2 0x112A JUMP JUMPDEST PUSH2 0x494 PUSH2 0x48F CALLDATASIZE PUSH1 0x4 PUSH2 0x7F6F JUMP JUMPDEST PUSH2 0x1179 JUMP JUMPDEST PUSH1 0x40 MLOAD PUSH2 0x2CB SWAP2 SWAP1 PUSH2 0x7F98 JUMP JUMPDEST PUSH2 0x340 PUSH2 0x1652 JUMP JUMPDEST PUSH2 0x4B1 PUSH2 0x171B JUMP JUMPDEST PUSH1 0x40 MLOAD PUSH2 0x2CB SWAP2 SWAP1 PUSH2 0x80B0 JUMP JUMPDEST PUSH2 0x31D PUSH2 0x4CC CALLDATASIZE PUSH1 0x4 PUSH2 0x7BCD JUMP JUMPDEST PUSH2 0x19F5 JUMP JUMPDEST PUSH1 0x12 SLOAD PUSH2 0x4E4 SWAP1 PUSH1 0x1 PUSH1 0x1 PUSH1 0xA0 SHL SUB AND DUP2 JUMP JUMPDEST PUSH1 0x40 MLOAD PUSH2 0x2CB SWAP2 SWAP1 PUSH2 0x8107 JUMP JUMPDEST PUSH2 0x308 PUSH2 0x4FF CALLDATASIZE PUSH1 0x4 PUSH2 0x75C5 JUMP JUMPDEST PUSH2 0x1A49 JUMP JUMPDEST PUSH2 0x2E7 PUSH2 0x512 CALLDATASIZE PUSH1 0x4 PUSH2 0x75FD JUMP JUMPDEST PUSH2 0x1A56 JUMP JUMPDEST PUSH2 0x31D PUSH2 0x525 CALLDATASIZE PUSH1 0x4 PUSH2 0x7BCD JUMP JUMPDEST PUSH2 0x1A6F JUMP JUMPDEST PUSH2 0x461 PUSH2 0x538 CALLDATASIZE PUSH1 0x4 PUSH2 0x7BCD JUMP JUMPDEST PUSH2 0x1AC3 JUMP JUMPDEST PUSH2 0x2E7 PUSH2 0x54B CALLDATASIZE PUSH1 0x4 PUSH2 0x817B JUMP JUMPDEST PUSH2 0x1ECD JUMP JUMPDEST PUSH2 0x494 PUSH2 0x55E CALLDATASIZE PUSH1 0x4 PUSH2 0x8347 JUMP JUMPDEST PUSH2 0x24F3 JUMP JUMPDEST PUSH2 0x576 PUSH2 0x571 CALLDATASIZE PUSH1 0x4 PUSH2 0x75C5 JUMP JUMPDEST PUSH2 0x2809 JUMP JUMPDEST PUSH1 0x40 MLOAD PUSH2 0x2CB SWAP2 SWAP1 PUSH2 0x8457 JUMP JUMPDEST PUSH2 0x31D PUSH2 0x591 CALLDATASIZE PUSH1 0x4 PUSH2 0x8497 JUMP JUMPDEST PUSH2 0x2D88 JUMP JUMPDEST PUSH2 0x31D PUSH2 0x5A4 CALLDATASIZE PUSH1 0x4 PUSH2 0x7BCD JUMP JUMPDEST PUSH2 0x2DC8 JUMP JUMPDEST PUSH1 0x16 SLOAD PUSH2 0x4E4 SWAP1 PUSH1 0x1 PUSH1 0x1 PUSH1 0xA0 SHL SUB AND DUP2 JUMP JUMPDEST PUSH2 0x5CF PUSH2 0x5CA CALLDATASIZE PUSH1 0x4 PUSH2 0x84C8 JUMP JUMPDEST PUSH2 0x2E1C JUMP JUMPDEST PUSH1 0x40 MLOAD PUSH2 0x2CB SWAP2 SWAP1 PUSH2 0x8587 JUMP JUMPDEST PUSH2 0x60B PUSH2 0x5EA CALLDATASIZE PUSH1 0x4 PUSH2 0x7BCD JUMP JUMPDEST PUSH0 PUSH1 0x20 DUP2 SWAP1 MSTORE SWAP1 DUP2 MSTORE PUSH1 0x40 SWAP1 KECCAK256 DUP1 SLOAD PUSH1 0x1 SWAP1 SWAP2 ADD SLOAD PUSH1 0x1 PUSH1 0x1 PUSH1 0xA0 SHL SUB AND DUP3 JUMP JUMPDEST PUSH1 0x40 DUP1 MLOAD SWAP3 DUP4 MSTORE PUSH1 0x1 PUSH1 0x1 PUSH1 0xA0 SHL SUB SWAP1 SWAP2 AND PUSH1 0x20 DUP4 ADD MSTORE ADD PUSH2 0x2CB JUMP JUMPDEST PUSH2 0x31D PUSH2 0x636 CALLDATASIZE PUSH1 0x4 PUSH2 0x7BCD JUMP JUMPDEST PUSH2 0x2F0C JUMP JUMPDEST PUSH1 0x11 SLOAD PUSH2 0x4E4 SWAP1 PUSH1 0x1 PUSH1 0x1 PUSH1 0xA0 SHL SUB AND DUP2 JUMP JUMPDEST PUSH2 0x31D PUSH2 0x65C CALLDATASIZE PUSH1 0x4 PUSH2 0x8497 JUMP JUMPDEST PUSH2 0x2F60 JUMP JUMPDEST PUSH2 0x31D PUSH2 0x66F CALLDATASIZE PUSH1 0x4 PUSH2 0x7BCD JUMP JUMPDEST PUSH2 0x2F97 JUMP JUMPDEST PUSH2 0x2E7 PUSH2 0x682 CALLDATASIZE PUSH1 0x4 PUSH2 0x85D4 JUMP JUMPDEST PUSH2 0x2FEB JUMP JUMPDEST PUSH2 0x69A PUSH2 0x695 CALLDATASIZE PUSH1 0x4 PUSH2 0x75C5 JUMP JUMPDEST PUSH2 0x31A0 JUMP JUMPDEST PUSH1 0x40 MLOAD PUSH2 0x2CB SWAP2 SWAP1 PUSH2 0x8615 JUMP JUMPDEST PUSH1 0x13 SLOAD PUSH2 0x4E4 SWAP1 PUSH1 0x1 PUSH1 0x1 PUSH1 0xA0 SHL SUB AND DUP2 JUMP JUMPDEST PUSH2 0x2E7 PUSH2 0x6C8 CALLDATASIZE PUSH1 0x4 PUSH2 0x75C5 JUMP JUMPDEST PUSH1 0x9 PUSH1 0x20 MSTORE PUSH0 SWAP1 DUP2 MSTORE PUSH1 0x40 SWAP1 KECCAK256 SLOAD DUP2 JUMP JUMPDEST PUSH2 0x31D PUSH2 0x6E7 CALLDATASIZE PUSH1 0x4 PUSH2 0x75C5 JUMP JUMPDEST PUSH2 0x34B1 JUMP JUMPDEST PUSH1 0x15 SLOAD PUSH2 0x4E4 SWAP1 PUSH1 0x1 PUSH1 0x1 PUSH1 0xA0 SHL SUB AND DUP2 JUMP JUMPDEST PUSH2 0x31D PUSH2 0x70D CALLDATASIZE PUSH1 0x4 PUSH2 0x7BCD JUMP JUMPDEST PUSH2 0x3694 JUMP JUMPDEST PUSH2 0x725 PUSH2 0x720 CALLDATASIZE PUSH1 0x4 PUSH2 0x75C5 JUMP JUMPDEST PUSH2 0x36E8 JUMP JUMPDEST PUSH1 0x40 MLOAD PUSH2 0x2CB SWAP4 SWAP3 SWAP2 SWAP1 PUSH2 0x8691 JUMP JUMPDEST PUSH2 0x308 PUSH2 0x742 CALLDATASIZE PUSH1 0x4 PUSH2 0x86C1 JUMP JUMPDEST PUSH2 0x3CBB JUMP JUMPDEST PUSH2 0x69A PUSH2 0x755 CALLDATASIZE PUSH1 0x4 PUSH2 0x75C5 JUMP JUMPDEST PUSH2 0x3D46 JUMP JUMPDEST PUSH2 0x76D PUSH2 0x768 CALLDATASIZE PUSH1 0x4 PUSH2 0x75C5 JUMP JUMPDEST PUSH2 0x4049 JUMP JUMPDEST PUSH1 0x40 MLOAD PUSH2 0x2CB SWAP2 SWAP1 PUSH2 0x8710 JUMP JUMPDEST PUSH2 0x78D PUSH2 0x788 CALLDATASIZE PUSH1 0x4 PUSH2 0x75C5 JUMP JUMPDEST PUSH2 0x4269 JUMP JUMPDEST PUSH1 0x40 MLOAD PUSH2 0x2CB SWAP5 SWAP4 SWAP3 SWAP2 SWAP1 PUSH2 0x8722 JUMP JUMPDEST PUSH2 0x31D PUSH2 0x7AB CALLDATASIZE PUSH1 0x4 PUSH2 0x7BCD JUMP JUMPDEST PUSH2 0x47B9 JUMP JUMPDEST PUSH2 0x7C3 PUSH2 0x7BE CALLDATASIZE PUSH1 0x4 PUSH2 0x75C5 JUMP JUMPDEST PUSH2 0x480D JUMP JUMPDEST PUSH1 0x40 MLOAD PUSH2 0x2CB SWAP2 SWAP1 PUSH2 0x874E JUMP JUMPDEST PUSH2 0x4B1 PUSH2 0x7DE CALLDATASIZE PUSH1 0x4 PUSH2 0x7BCD JUMP JUMPDEST PUSH2 0x4F4E JUMP JUMPDEST PUSH1 0x14 SLOAD PUSH2 0x4E4 SWAP1 PUSH1 0x1 PUSH1 0x1 PUSH1 0xA0 SHL SUB AND DUP2 JUMP JUMPDEST PUSH2 0x2E7 PUSH2 0x804 CALLDATASIZE PUSH1 0x4 PUSH2 0x75FD JUMP JUMPDEST PUSH2 0x523B JUMP JUMPDEST PUSH1 0x17 SLOAD PUSH2 0x4E4 SWAP1 PUSH1 0x1 PUSH1 0x1 PUSH1 0xA0 SHL SUB AND DUP2 JUMP JUMPDEST PUSH2 0x308 PUSH2 0x82A CALLDATASIZE PUSH1 0x4 PUSH2 0x75C5 JUMP JUMPDEST PUSH2 0x5254 JUMP JUMPDEST PUSH2 0x2E7 PUSH2 0x83D CALLDATASIZE PUSH1 0x4 PUSH2 0x75C5 JUMP JUMPDEST PUSH0 SWAP1 DUP2 MSTORE PUSH1 0x4 PUSH1 0x20 MSTORE PUSH1 0x40 SWAP1 KECCAK256 SLOAD SWAP1 JUMP JUMPDEST PUSH1 0x18 SLOAD PUSH2 0x4E4 SWAP1 PUSH1 0x1 PUSH1 0x1 PUSH1 0xA0 SHL SUB AND DUP2 JUMP JUMPDEST PUSH2 0x5CF PUSH2 0x86F CALLDATASIZE PUSH1 0x4 PUSH2 0x887C JUMP JUMPDEST PUSH2 0x5C42 JUMP JUMPDEST PUSH1 0xA PUSH1 0x20 MSTORE DUP2 PUSH0 MSTORE PUSH1 0x40 PUSH0 KECCAK256 DUP2 DUP2 SLOAD DUP2 LT PUSH2 0x88D JUMPI PUSH0 DUP1 REVERT JUMPDEST SWAP1 PUSH0 MSTORE PUSH1 0x20 PUSH0 KECCAK256 ADD PUSH0 SWAP2 POP SWAP2 POP POP SLOAD DUP2 JUMP JUMPDEST PUSH1 0xC DUP1 SLOAD SWAP1 PUSH0 PUSH2 0x8AE DUP4 PUSH2 0x893B JUMP JUMPDEST SWAP1 SWAP2 SSTORE POP POP PUSH1 0x40 DUP1 MLOAD PUSH1 0x80 DUP2 ADD DUP3 MSTORE PUSH1 0xC SLOAD DUP1 DUP3 MSTORE PUSH1 0x20 DUP1 DUP4 ADD DUP7 DUP2 MSTORE PUSH1 0x1 PUSH1 0x1 PUSH1 0xA0 SHL SUB DUP7 DUP2 AND DUP6 DUP8 ADD SWAP1 DUP2 MSTORE PUSH1 0x60 DUP7 ADD DUP11 DUP2 MSTORE PUSH0 SWAP6 DUP7 MSTORE PUSH1 0x8 SWAP1 SWAP5 MSTORE SWAP6 SWAP1 SWAP4 KECCAK256 DUP5 MLOAD DUP2 SSTORE SWAP1 MLOAD PUSH1 0x1 DUP3 ADD SSTORE SWAP4 MLOAD PUSH1 0x2 DUP6 ADD DUP1 SLOAD PUSH1 0x1 PUSH1 0x1 PUSH1 0xA0 SHL SUB NOT AND SWAP2 SWAP1 SWAP4 AND OR SWAP1 SWAP2 SSTORE MLOAD DUP1 MLOAD SWAP2 SWAP3 DUP4 SWAP3 SWAP1 SWAP2 SWAP1 PUSH1 0x3 DUP4 ADD SWAP1 DUP2 SWAP1 PUSH2 0x930 SWAP1 DUP3 PUSH2 0x89D1 JUMP JUMPDEST POP PUSH1 0x20 DUP3 ADD MLOAD PUSH1 0x1 DUP3 ADD SWAP1 PUSH2 0x945 SWAP1 DUP3 PUSH2 0x89D1 JUMP JUMPDEST POP PUSH1 0x40 DUP3 ADD MLOAD PUSH1 0x2 DUP3 ADD SWAP1 PUSH2 0x95A SWAP1 DUP3 PUSH2 0x89D1 JUMP JUMPDEST POP PUSH1 0x60 DUP3 ADD MLOAD PUSH1 0x3 DUP3 ADD SWAP1 PUSH2 0x96F SWAP1 DUP3 PUSH2 0x89D1 JUMP JUMPDEST POP PUSH1 0x80 DUP3 ADD MLOAD PUSH1 0x4 DUP3 ADD SWAP1 PUSH2 0x984 SWAP1 DUP3 PUSH2 0x89D1 JUMP JUMPDEST POP PUSH1 0xA0 DUP3 ADD MLOAD PUSH1 0x5 DUP3 ADD SWAP1 PUSH2 0x999 SWAP1 DUP3 PUSH2 0x89D1 JUMP JUMPDEST POP PUSH1 0xC0 DUP3 ADD MLOAD PUSH1 0x6 DUP3 ADD SWAP1 PUSH2 0x9AE SWAP1 DUP3 PUSH2 0x89D1 JUMP JUMPDEST POP PUSH1 0xE0 DUP3 ADD MLOAD PUSH1 0x7 DUP3 ADD SWAP1 PUSH2 0x9C3 SWAP1 DUP3 PUSH2 0x89D1 JUMP JUMPDEST POP PUSH2 0x100 DUP3 ADD MLOAD PUSH1 0x8 DUP3 ADD SWAP1 PUSH2 0x9D9 SWAP1 DUP3 PUSH2 0x89D1 JUMP JUMPDEST POP POP POP SWAP1 POP POP PUSH1 0xC SLOAD PUSH1 0x9 PUSH0 DUP6 DUP2 MSTORE PUSH1 0x20 ADD SWAP1 DUP2 MSTORE PUSH1 0x20 ADD PUSH0 KECCAK256 DUP2 SWAP1 SSTORE POP PUSH1 0xA PUSH0 DUP4 PUSH1 0x1 PUSH1 0x1 PUSH1 0xA0 SHL SUB AND PUSH1 0x1 PUSH1 0x1 PUSH1 0xA0 SHL SUB AND DUP2 MSTORE PUSH1 0x20 ADD SWAP1 DUP2 MSTORE PUSH1 0x20 ADD PUSH0 KECCAK256 PUSH1 0xC SLOAD SWAP1 DUP1 PUSH1 0x1 DUP2 SLOAD ADD DUP1 DUP3 SSTORE DUP1 SWAP2 POP POP PUSH1 0x1 SWAP1 SUB SWAP1 PUSH0 MSTORE PUSH1 0x20 PUSH0 KECCAK256 ADD PUSH0 SWAP1 SWAP2 SWAP1 SWAP2 SWAP1 SWAP2 POP SSTORE PUSH32 0x6CBE635891BAD406EDFDA1CD61005929DB6C504109C59B9AFE10F74944DE95CB PUSH1 0xC SLOAD DUP5 DUP5 DUP8 PUSH0 ADD MLOAD DUP9 PUSH1 0x20 ADD MLOAD DUP10 PUSH1 0x40 ADD MLOAD DUP11 PUSH1 0x60 ADD MLOAD DUP12 PUSH1 0x80 ADD MLOAD DUP13 PUSH1 0xA0 ADD MLOAD DUP14 PUSH1 0xC0 ADD MLOAD DUP15 PUSH1 0xE0 ADD MLOAD DUP16 PUSH2 0x100 ADD MLOAD PUSH1 0x40 MLOAD PUSH2 0xAAB SWAP13 SWAP12 SWAP11 SWAP10 SWAP9 SWAP8 SWAP7 SWAP6 SWAP5 SWAP4 SWAP3 SWAP2 SWAP1 PUSH2 0x8A8B JUMP JUMPDEST PUSH1 0x40 MLOAD DUP1 SWAP2 SUB SWAP1 LOG1 POP POP POP POP JUMP JUMPDEST PUSH0 DUP4 DUP2 MSTORE PUSH1 0x6 PUSH1 0x20 MSTORE PUSH1 0x40 DUP2 KECCAK256 PUSH1 0x2 DUP2 ADD SLOAD PUSH1 0x1 PUSH1 0x1 PUSH1 0xA0 SHL SUB AND CALLER EQ PUSH2 0xAFB JUMPI PUSH1 0x40 MLOAD PUSH3 0x461BCD PUSH1 0xE5 SHL DUP2 MSTORE PUSH1 0x4 ADD PUSH2 0xAF2 SWAP1 PUSH2 0x8B6D JUMP JUMPDEST PUSH1 0x40 MLOAD DUP1 SWAP2 SUB SWAP1 REVERT JUMPDEST DUP1 SLOAD ISZERO DUP1 ISZERO SWAP1 PUSH2 0xB17 JUMPI POP PUSH1 0x2 DUP2 ADD SLOAD PUSH1 0x1 PUSH1 0xA0 SHL SWAP1 DIV PUSH1 0xFF AND ISZERO JUMPDEST PUSH2 0xB87 JUMPI PUSH1 0x40 MLOAD PUSH3 0x461BCD PUSH1 0xE5 SHL DUP2 MSTORE PUSH1 0x20 PUSH1 0x4 DUP3 ADD MSTORE PUSH1 0x5B PUSH1 0x24 DUP3 ADD MSTORE PUSH0 DUP1 MLOAD PUSH1 0x20 PUSH2 0x9520 DUP4 CODECOPY DUP2 MLOAD SWAP2 MSTORE PUSH1 0x44 DUP3 ADD MSTORE PUSH0 DUP1 MLOAD PUSH1 0x20 PUSH2 0x94D4 DUP4 CODECOPY DUP2 MLOAD SWAP2 MSTORE PUSH1 0x64 DUP3 ADD MSTORE PUSH27 0x656C696E6B206F7220616C7265616479206578656375746564227D PUSH1 0x28 SHL PUSH1 0x84 DUP3 ADD MSTORE PUSH1 0xA4 ADD PUSH2 0xAF2 JUMP JUMPDEST PUSH2 0xB90 DUP2 PUSH2 0x5D0D JUMP JUMPDEST POP PUSH2 0xB9E PUSH1 0x1 DUP3 ADD PUSH0 PUSH2 0x72EF JUMP JUMPDEST PUSH2 0xBA7 DUP5 PUSH2 0x5E79 JUMP JUMPDEST POP PUSH0 JUMPDEST DUP5 MLOAD DUP2 LT ISZERO PUSH2 0xC68 JUMPI DUP2 PUSH1 0x1 ADD DUP6 DUP3 DUP2 MLOAD DUP2 LT PUSH2 0xBC9 JUMPI PUSH2 0xBC9 PUSH2 0x8BD8 JUMP JUMPDEST PUSH1 0x20 SWAP1 DUP2 MUL SWAP2 SWAP1 SWAP2 ADD DUP2 ADD MLOAD DUP3 SLOAD PUSH1 0x1 DUP2 ADD DUP5 SSTORE PUSH0 SWAP4 DUP5 MSTORE SWAP3 DUP3 SWAP1 KECCAK256 DUP2 MLOAD DUP1 MLOAD SWAP3 SWAP5 PUSH1 0x5 MUL SWAP1 SWAP2 ADD SWAP3 PUSH2 0xC01 SWAP3 DUP5 SWAP3 SWAP1 SWAP2 ADD SWAP1 PUSH2 0x730D JUMP JUMPDEST POP PUSH1 0x20 DUP3 DUP2 ADD MLOAD DUP1 MLOAD PUSH2 0xC1A SWAP3 PUSH1 0x1 DUP6 ADD SWAP3 ADD SWAP1 PUSH2 0x730D JUMP JUMPDEST POP PUSH1 0x40 DUP3 ADD MLOAD DUP1 MLOAD PUSH2 0xC36 SWAP2 PUSH1 0x2 DUP5 ADD SWAP2 PUSH1 0x20 SWAP1 SWAP2 ADD SWAP1 PUSH2 0x730D JUMP JUMPDEST POP PUSH1 0x60 DUP3 ADD MLOAD DUP1 MLOAD PUSH2 0xC52 SWAP2 PUSH1 0x3 DUP5 ADD SWAP2 PUSH1 0x20 SWAP1 SWAP2 ADD SWAP1 PUSH2 0x730D JUMP JUMPDEST POP PUSH1 0x80 SWAP2 SWAP1 SWAP2 ADD MLOAD PUSH1 0x4 SWAP1 SWAP2 ADD SSTORE PUSH1 0x1 ADD PUSH2 0xBAA JUMP JUMPDEST POP PUSH1 0x3 ADD DUP3 SWAP1 SSTORE POP PUSH1 0x1 SWAP4 SWAP3 POP POP POP JUMP JUMPDEST PUSH2 0xC81 PUSH2 0x7352 JUMP JUMPDEST PUSH1 0x1 PUSH1 0x1 PUSH1 0xA0 SHL SUB DUP1 DUP4 AND PUSH0 SWAP1 DUP2 MSTORE PUSH1 0x20 DUP2 DUP2 MSTORE PUSH1 0x40 DUP1 DUP4 KECCAK256 DUP2 MLOAD PUSH1 0x60 DUP2 ADD DUP4 MSTORE DUP2 SLOAD DUP2 MSTORE PUSH1 0x1 DUP3 ADD SLOAD SWAP1 SWAP6 AND DUP6 DUP5 ADD MSTORE PUSH1 0x2 DUP2 ADD DUP1 SLOAD DUP4 MLOAD DUP2 DUP7 MUL DUP2 ADD DUP7 ADD DUP6 MSTORE DUP2 DUP2 MSTORE SWAP3 SWAP6 SWAP4 DUP8 ADD SWAP5 SWAP3 SWAP4 SWAP2 SWAP3 SWAP1 SWAP2 SWAP1 DUP5 ADD JUMPDEST DUP3 DUP3 LT ISZERO PUSH2 0xD37 JUMPI DUP4 DUP3 SWAP1 PUSH0 MSTORE PUSH1 0x20 PUSH0 KECCAK256 SWAP1 PUSH1 0x5 MUL ADD PUSH1 0x40 MLOAD DUP1 PUSH1 0xA0 ADD PUSH1 0x40 MSTORE SWAP1 DUP2 PUSH0 DUP3 ADD SLOAD DUP2 MSTORE PUSH1 0x20 ADD PUSH1 0x1 DUP3 ADD SLOAD DUP2 MSTORE PUSH1 0x20 ADD PUSH1 0x2 DUP3 ADD SLOAD DUP2 MSTORE PUSH1 0x20 ADD PUSH1 0x3 DUP3 ADD SLOAD DUP2 MSTORE PUSH1 0x20 ADD PUSH1 0x4 DUP3 ADD SLOAD DUP2 MSTORE POP POP DUP2 MSTORE PUSH1 0x20 ADD SWAP1 PUSH1 0x1 ADD SWAP1 PUSH2 0xCD6 JUMP JUMPDEST POP POP POP SWAP2 MSTORE POP SWAP1 SWAP4 SWAP3 POP POP POP JUMP JUMPDEST PUSH1 0x60 PUSH0 PUSH2 0xD51 DUP5 PUSH2 0x62A8 JUMP JUMPDEST SWAP1 POP DUP1 DUP4 PUSH1 0x40 MLOAD PUSH1 0x20 ADD PUSH2 0xD66 SWAP3 SWAP2 SWAP1 PUSH2 0x8C03 JUMP JUMPDEST PUSH1 0x40 MLOAD PUSH1 0x20 DUP2 DUP4 SUB SUB DUP2 MSTORE SWAP1 PUSH1 0x40 MSTORE SWAP2 POP POP JUMPDEST SWAP3 SWAP2 POP POP JUMP JUMPDEST PUSH1 0x3 SLOAD PUSH1 0x60 SWAP1 PUSH1 0x1 PUSH1 0x1 PUSH1 0x40 SHL SUB DUP2 GT ISZERO PUSH2 0xD9C JUMPI PUSH2 0xD9C PUSH2 0x7627 JUMP JUMPDEST PUSH1 0x40 MLOAD SWAP1 DUP1 DUP3 MSTORE DUP1 PUSH1 0x20 MUL PUSH1 0x20 ADD DUP3 ADD PUSH1 0x40 MSTORE DUP1 ISZERO PUSH2 0xDD5 JUMPI DUP2 PUSH1 0x20 ADD JUMPDEST PUSH2 0xDC2 PUSH2 0x737A JUMP JUMPDEST DUP2 MSTORE PUSH1 0x20 ADD SWAP1 PUSH1 0x1 SWAP1 SUB SWAP1 DUP2 PUSH2 0xDBA JUMPI SWAP1 POP JUMPDEST POP SWAP1 POP PUSH0 JUMPDEST PUSH1 0x3 SLOAD DUP2 LT ISZERO PUSH2 0x1126 JUMPI PUSH1 0x1 PUSH0 PUSH1 0x3 DUP4 DUP2 SLOAD DUP2 LT PUSH2 0xDFA JUMPI PUSH2 0xDFA PUSH2 0x8BD8 JUMP JUMPDEST PUSH0 SWAP2 DUP3 MSTORE PUSH1 0x20 DUP1 DUP4 KECCAK256 SWAP1 SWAP2 ADD SLOAD DUP4 MSTORE DUP3 DUP2 ADD SWAP4 SWAP1 SWAP4 MSTORE PUSH1 0x40 SWAP2 DUP3 ADD SWAP1 KECCAK256 DUP2 MLOAD PUSH2 0x260 DUP2 ADD DUP4 MSTORE DUP2 SLOAD DUP2 MSTORE PUSH1 0x1 DUP3 ADD SLOAD PUSH1 0x1 PUSH1 0x1 PUSH1 0xA0 SHL SUB SWAP1 DUP2 AND DUP3 DUP7 ADD MSTORE PUSH1 0x2 DUP4 ADD SLOAD AND DUP2 DUP5 ADD MSTORE PUSH1 0x3 DUP3 ADD SLOAD PUSH1 0x60 DUP3 ADD MSTORE PUSH1 0x4 DUP3 ADD DUP1 SLOAD DUP5 MLOAD DUP2 DUP8 MUL DUP2 ADD DUP8 ADD SWAP1 SWAP6 MSTORE DUP1 DUP6 MSTORE SWAP2 SWAP5 SWAP3 SWAP4 PUSH1 0x80 DUP7 ADD SWAP4 SWAP1 SWAP3 SWAP1 DUP4 ADD DUP3 DUP3 DUP1 ISZERO PUSH2 0xE9A JUMPI PUSH1 0x20 MUL DUP3 ADD SWAP2 SWAP1 PUSH0 MSTORE PUSH1 0x20 PUSH0 KECCAK256 SWAP1 JUMPDEST DUP2 SLOAD DUP2 MSTORE PUSH1 0x20 ADD SWAP1 PUSH1 0x1 ADD SWAP1 DUP1 DUP4 GT PUSH2 0xE86 JUMPI JUMPDEST POP POP POP POP POP DUP2 MSTORE PUSH1 0x20 ADD PUSH1 0x5 DUP3 ADD DUP1 SLOAD DUP1 PUSH1 0x20 MUL PUSH1 0x20 ADD PUSH1 0x40 MLOAD SWAP1 DUP2 ADD PUSH1 0x40 MSTORE DUP1 SWAP3 SWAP2 SWAP1 DUP2 DUP2 MSTORE PUSH1 0x20 ADD DUP3 DUP1 SLOAD DUP1 ISZERO PUSH2 0xEF0 JUMPI PUSH1 0x20 MUL DUP3 ADD SWAP2 SWAP1 PUSH0 MSTORE PUSH1 0x20 PUSH0 KECCAK256 SWAP1 JUMPDEST DUP2 SLOAD DUP2 MSTORE PUSH1 0x20 ADD SWAP1 PUSH1 0x1 ADD SWAP1 DUP1 DUP4 GT PUSH2 0xEDC JUMPI JUMPDEST POP POP POP POP POP DUP2 MSTORE PUSH1 0x20 ADD PUSH1 0x6 DUP3 ADD DUP1 SLOAD DUP1 PUSH1 0x20 MUL PUSH1 0x20 ADD PUSH1 0x40 MLOAD SWAP1 DUP2 ADD PUSH1 0x40 MSTORE DUP1 SWAP3 SWAP2 SWAP1 DUP2 DUP2 MSTORE PUSH1 0x20 ADD DUP3 DUP1 SLOAD DUP1 ISZERO PUSH2 0xF46 JUMPI PUSH1 0x20 MUL DUP3 ADD SWAP2 SWAP1 PUSH0 MSTORE PUSH1 0x20 PUSH0 KECCAK256 SWAP1 JUMPDEST DUP2 SLOAD DUP2 MSTORE PUSH1 0x20 ADD SWAP1 PUSH1 0x1 ADD SWAP1 DUP1 DUP4 GT PUSH2 0xF32 JUMPI JUMPDEST POP POP POP POP POP DUP2 MSTORE PUSH1 0x20 ADD PUSH1 0x7 DUP3 ADD DUP1 SLOAD DUP1 PUSH1 0x20 MUL PUSH1 0x20 ADD PUSH1 0x40 MLOAD SWAP1 DUP2 ADD PUSH1 0x40 MSTORE DUP1 SWAP3 SWAP2 SWAP1 DUP2 DUP2 MSTORE PUSH1 0x20 ADD DUP3 DUP1 SLOAD DUP1 ISZERO PUSH2 0xF9C JUMPI PUSH1 0x20 MUL DUP3 ADD SWAP2 SWAP1 PUSH0 MSTORE PUSH1 0x20 PUSH0 KECCAK256 SWAP1 JUMPDEST DUP2 SLOAD DUP2 MSTORE PUSH1 0x20 ADD SWAP1 PUSH1 0x1 ADD SWAP1 DUP1 DUP4 GT PUSH2 0xF88 JUMPI JUMPDEST POP POP POP POP POP DUP2 MSTORE PUSH1 0x20 ADD PUSH1 0x8 DUP3 ADD DUP1 SLOAD DUP1 PUSH1 0x20 MUL PUSH1 0x20 ADD PUSH1 0x40 MLOAD SWAP1 DUP2 ADD PUSH1 0x40 MSTORE DUP1 SWAP3 SWAP2 SWAP1 DUP2 DUP2 MSTORE PUSH1 0x20 ADD DUP3 DUP1 SLOAD DUP1 ISZERO PUSH2 0xFF2 JUMPI PUSH1 0x20 MUL DUP3 ADD SWAP2 SWAP1 PUSH0 MSTORE PUSH1 0x20 PUSH0 KECCAK256 SWAP1 JUMPDEST DUP2 SLOAD DUP2 MSTORE PUSH1 0x20 ADD SWAP1 PUSH1 0x1 ADD SWAP1 DUP1 DUP4 GT PUSH2 0xFDE JUMPI JUMPDEST POP POP POP POP POP DUP2 MSTORE PUSH1 0x20 ADD PUSH1 0x9 DUP3 ADD DUP1 SLOAD DUP1 PUSH1 0x20 MUL PUSH1 0x20 ADD PUSH1 0x40 MLOAD SWAP1 DUP2 ADD PUSH1 0x40 MSTORE DUP1 SWAP3 SWAP2 SWAP1 DUP2 DUP2 MSTORE PUSH1 0x20 ADD DUP3 DUP1 SLOAD DUP1 ISZERO PUSH2 0x1048 JUMPI PUSH1 0x20 MUL DUP3 ADD SWAP2 SWAP1 PUSH0 MSTORE PUSH1 0x20 PUSH0 KECCAK256 SWAP1 JUMPDEST DUP2 SLOAD DUP2 MSTORE PUSH1 0x20 ADD SWAP1 PUSH1 0x1 ADD SWAP1 DUP1 DUP4 GT PUSH2 0x1034 JUMPI JUMPDEST POP POP POP POP POP DUP2 MSTORE PUSH1 0x20 ADD PUSH1 0xA DUP3 ADD DUP1 SLOAD DUP1 PUSH1 0x20 MUL PUSH1 0x20 ADD PUSH1 0x40 MLOAD SWAP1 DUP2 ADD PUSH1 0x40 MSTORE DUP1 SWAP3 SWAP2 SWAP1 DUP2 DUP2 MSTORE PUSH1 0x20 ADD DUP3 DUP1 SLOAD DUP1 ISZERO PUSH2 0x109E JUMPI PUSH1 0x20 MUL DUP3 ADD SWAP2 SWAP1 PUSH0 MSTORE PUSH1 0x20 PUSH0 KECCAK256 SWAP1 JUMPDEST DUP2 SLOAD DUP2 MSTORE PUSH1 0x20 ADD SWAP1 PUSH1 0x1 ADD SWAP1 DUP1 DUP4 GT PUSH2 0x108A JUMPI JUMPDEST POP POP POP SWAP2 DUP4 MSTORE POP POP PUSH1 0xB DUP3 ADD SLOAD PUSH1 0x20 DUP3 ADD MSTORE PUSH1 0xC DUP3 ADD SLOAD PUSH1 0xFF DUP1 DUP3 AND PUSH1 0x40 DUP5 ADD MSTORE PUSH2 0x100 SWAP2 DUP3 SWAP1 DIV DUP2 AND PUSH1 0x60 DUP5 ADD MSTORE PUSH1 0xD DUP5 ADD SLOAD PUSH1 0x80 DUP5 ADD MSTORE PUSH1 0xE DUP5 ADD SLOAD PUSH1 0xA0 DUP5 ADD MSTORE PUSH1 0xF DUP5 ADD SLOAD PUSH1 0xC0 DUP5 ADD MSTORE PUSH1 0x10 DUP5 ADD SLOAD AND PUSH1 0xE0 DUP4 ADD MSTORE PUSH1 0x11 SWAP1 SWAP3 ADD SLOAD SWAP2 ADD MSTORE DUP3 MLOAD DUP4 SWAP1 DUP4 SWAP1 DUP2 LT PUSH2 0x1113 JUMPI PUSH2 0x1113 PUSH2 0x8BD8 JUMP JUMPDEST PUSH1 0x20 SWAP1 DUP2 MUL SWAP2 SWAP1 SWAP2 ADD ADD MSTORE PUSH1 0x1 ADD PUSH2 0xDDA JUMP JUMPDEST POP SWAP1 JUMP JUMPDEST PUSH0 DUP1 DUP3 DUP1 PUSH1 0x20 ADD SWAP1 MLOAD DUP2 ADD SWAP1 PUSH2 0x1140 SWAP2 SWAP1 PUSH2 0x8C7F JUMP JUMPDEST PUSH0 DUP2 DUP2 MSTORE PUSH1 0x7 PUSH1 0x20 MSTORE PUSH1 0x40 SWAP1 KECCAK256 PUSH1 0xA ADD SLOAD SWAP1 SWAP2 POP PUSH1 0x1 PUSH1 0x1 PUSH1 0xA0 SHL SUB AND ISZERO PUSH2 0x116B JUMPI POP PUSH1 0x1 SWAP3 SWAP2 POP POP JUMP JUMPDEST POP PUSH0 SWAP3 SWAP2 POP POP JUMP JUMPDEST POP SWAP2 SWAP1 POP JUMP JUMPDEST PUSH2 0x1181 PUSH2 0x741E JUMP JUMPDEST PUSH1 0x11 SLOAD PUSH1 0x40 MLOAD PUSH4 0x2E76C56D PUSH1 0xE2 SHL DUP2 MSTORE PUSH1 0x4 DUP2 ADD DUP7 SWAP1 MSTORE PUSH0 SWAP2 PUSH1 0x1 PUSH1 0x1 PUSH1 0xA0 SHL SUB AND SWAP1 PUSH4 0xB9DB15B4 SWAP1 PUSH1 0x24 ADD PUSH0 PUSH1 0x40 MLOAD DUP1 DUP4 SUB DUP2 DUP7 GAS STATICCALL ISZERO DUP1 ISZERO PUSH2 0x11C7 JUMPI RETURNDATASIZE PUSH0 DUP1 RETURNDATACOPY RETURNDATASIZE PUSH0 REVERT JUMPDEST POP POP POP POP PUSH1 0x40 MLOAD RETURNDATASIZE PUSH0 DUP3 RETURNDATACOPY PUSH1 0x1F RETURNDATASIZE SWAP1 DUP2 ADD PUSH1 0x1F NOT AND DUP3 ADD PUSH1 0x40 MSTORE PUSH2 0x11EE SWAP2 SWAP1 DUP2 ADD SWAP1 PUSH2 0x8DF5 JUMP JUMPDEST PUSH1 0x11 SLOAD PUSH1 0x40 MLOAD PUSH3 0x41C629 PUSH1 0xE0 SHL DUP2 MSTORE SWAP2 SWAP3 POP PUSH0 SWAP2 PUSH1 0x1 PUSH1 0x1 PUSH1 0xA0 SHL SUB SWAP1 SWAP2 AND SWAP1 PUSH3 0x41C629 SWAP1 PUSH2 0x1223 SWAP1 DUP10 SWAP1 DUP10 SWAP1 PUSH1 0x4 ADD PUSH2 0x90CF JUMP JUMPDEST PUSH1 0xC0 PUSH1 0x40 MLOAD DUP1 DUP4 SUB DUP2 DUP7 GAS STATICCALL ISZERO DUP1 ISZERO PUSH2 0x123E JUMPI RETURNDATASIZE PUSH0 DUP1 RETURNDATACOPY RETURNDATASIZE PUSH0 REVERT JUMPDEST POP POP POP POP PUSH1 0x40 MLOAD RETURNDATASIZE PUSH1 0x1F NOT PUSH1 0x1F DUP3 ADD AND DUP3 ADD DUP1 PUSH1 0x40 MSTORE POP DUP2 ADD SWAP1 PUSH2 0x1262 SWAP2 SWAP1 PUSH2 0x90DD JUMP JUMPDEST SWAP1 POP DUP2 PUSH0 ADD MLOAD PUSH0 EQ ISZERO PUSH2 0x129F PUSH1 0x3 PUSH1 0x40 MLOAD DUP1 PUSH1 0x40 ADD PUSH1 0x40 MSTORE DUP1 PUSH1 0x11 DUP2 MSTORE PUSH1 0x20 ADD PUSH17 0x141C9BD91D58DD081B9BDD08199BDD5B99 PUSH1 0x7A SHL DUP2 MSTORE POP PUSH2 0xD45 JUMP JUMPDEST SWAP1 PUSH2 0x12BD JUMPI PUSH1 0x40 MLOAD PUSH3 0x461BCD PUSH1 0xE5 SHL DUP2 MSTORE PUSH1 0x4 ADD PUSH2 0xAF2 SWAP2 SWAP1 PUSH2 0x7CF5 JUMP JUMPDEST POP DUP1 MLOAD PUSH1 0x40 DUP1 MLOAD DUP1 DUP3 ADD SWAP1 SWAP2 MSTORE PUSH1 0x11 DUP2 MSTORE PUSH17 0x15985C9A585B9D081B9BDD08199BDD5B99 PUSH1 0x7A SHL PUSH1 0x20 DUP3 ADD MSTORE SWAP1 ISZERO ISZERO SWAP1 PUSH2 0x12F8 SWAP1 PUSH1 0x6 SWAP1 PUSH2 0xD45 JUMP JUMPDEST SWAP1 PUSH2 0x1316 JUMPI PUSH1 0x40 MLOAD PUSH3 0x461BCD PUSH1 0xE5 SHL DUP2 MSTORE PUSH1 0x4 ADD PUSH2 0xAF2 SWAP2 SWAP1 PUSH2 0x7CF5 JUMP JUMPDEST POP DUP1 PUSH1 0x20 ADD MLOAD PUSH1 0x80 ADD MLOAD DUP5 GT ISZERO PUSH2 0x1346 PUSH1 0x5 PUSH1 0x40 MLOAD DUP1 PUSH1 0x60 ADD PUSH1 0x40 MSTORE DUP1 PUSH1 0x2C DUP2 MSTORE PUSH1 0x20 ADD PUSH2 0x94F4 PUSH1 0x2C SWAP2 CODECOPY PUSH2 0xD45 JUMP JUMPDEST SWAP1 PUSH2 0x1364 JUMPI PUSH1 0x40 MLOAD PUSH3 0x461BCD PUSH1 0xE5 SHL DUP2 MSTORE PUSH1 0x4 ADD PUSH2 0xAF2 SWAP2 SWAP1 PUSH2 0x7CF5 JUMP JUMPDEST POP PUSH1 0x10 DUP1 SLOAD SWAP1 PUSH0 PUSH2 0x1374 DUP4 PUSH2 0x893B JUMP JUMPDEST SWAP1 SWAP2 SSTORE POP POP PUSH1 0x40 DUP1 MLOAD PUSH1 0xA0 DUP2 ADD DUP3 MSTORE PUSH1 0x10 SLOAD DUP2 MSTORE PUSH1 0x20 DUP1 DUP3 ADD DUP10 SWAP1 MSTORE DUP2 DUP4 ADD DUP8 SWAP1 MSTORE PUSH1 0x60 DUP3 ADD DUP9 SWAP1 MSTORE TIMESTAMP PUSH1 0x80 DUP4 ADD MSTORE CALLER PUSH0 SWAP1 DUP2 MSTORE SWAP1 DUP2 SWAP1 MSTORE SWAP2 DUP3 KECCAK256 SLOAD SWAP1 SWAP2 SUB PUSH2 0x13C5 JUMPI PUSH2 0x13C0 DUP2 PUSH2 0x3CBB JUMP JUMPDEST PUSH2 0x150A JUMP JUMPDEST PUSH0 DUP1 JUMPDEST CALLER PUSH0 SWAP1 DUP2 MSTORE PUSH1 0x20 DUP2 SWAP1 MSTORE PUSH1 0x40 SWAP1 KECCAK256 PUSH1 0x2 ADD SLOAD DUP2 LT ISZERO PUSH2 0x146D JUMPI CALLER PUSH0 SWAP1 DUP2 MSTORE PUSH1 0x20 DUP2 SWAP1 MSTORE PUSH1 0x40 SWAP1 KECCAK256 PUSH1 0x2 ADD DUP1 SLOAD DUP11 SWAP2 SWAP1 DUP4 SWAP1 DUP2 LT PUSH2 0x1407 JUMPI PUSH2 0x1407 PUSH2 0x8BD8 JUMP JUMPDEST SWAP1 PUSH0 MSTORE PUSH1 0x20 PUSH0 KECCAK256 SWAP1 PUSH1 0x5 MUL ADD PUSH1 0x1 ADD SLOAD EQ DUP1 ISZERO PUSH2 0x1457 JUMPI POP CALLER PUSH0 SWAP1 DUP2 MSTORE PUSH1 0x20 DUP2 SWAP1 MSTORE PUSH1 0x40 SWAP1 KECCAK256 PUSH1 0x2 ADD DUP1 SLOAD DUP10 SWAP2 SWAP1 DUP4 SWAP1 DUP2 LT PUSH2 0x1445 JUMPI PUSH2 0x1445 PUSH2 0x8BD8 JUMP JUMPDEST SWAP1 PUSH0 MSTORE PUSH1 0x20 PUSH0 KECCAK256 SWAP1 PUSH1 0x5 MUL ADD PUSH1 0x3 ADD SLOAD EQ JUMPDEST ISZERO PUSH2 0x1465 JUMPI PUSH1 0x1 SWAP2 POP PUSH2 0x146D JUMP JUMPDEST PUSH1 0x1 ADD PUSH2 0x13C8 JUMP JUMPDEST POP DUP1 ISZERO PUSH2 0x1493 PUSH1 0x6 PUSH1 0x40 MLOAD DUP1 PUSH1 0x60 ADD PUSH1 0x40 MSTORE DUP1 PUSH1 0x2A DUP2 MSTORE PUSH1 0x20 ADD PUSH2 0x94AA PUSH1 0x2A SWAP2 CODECOPY PUSH2 0xD45 JUMP JUMPDEST SWAP1 PUSH2 0x14B1 JUMPI PUSH1 0x40 MLOAD PUSH3 0x461BCD PUSH1 0xE5 SHL DUP2 MSTORE PUSH1 0x4 ADD PUSH2 0xAF2 SWAP2 SWAP1 PUSH2 0x7CF5 JUMP JUMPDEST POP POP CALLER PUSH0 SWAP1 DUP2 MSTORE PUSH1 0x20 DUP2 DUP2 MSTORE PUSH1 0x40 DUP1 DUP4 KECCAK256 PUSH1 0x2 SWAP1 DUP2 ADD DUP1 SLOAD PUSH1 0x1 DUP2 DUP2 ADD DUP4 SSTORE SWAP2 DUP7 MSTORE SWAP5 DUP5 SWAP1 KECCAK256 DUP7 MLOAD PUSH1 0x5 SWAP1 SWAP7 MUL ADD SWAP5 DUP6 SSTORE SWAP3 DUP6 ADD MLOAD SWAP3 DUP5 ADD SWAP3 SWAP1 SWAP3 SSTORE DUP4 ADD MLOAD SWAP1 DUP3 ADD SSTORE PUSH1 0x60 DUP3 ADD MLOAD PUSH1 0x3 DUP3 ADD SSTORE PUSH1 0x80 DUP3 ADD MLOAD PUSH1 0x4 SWAP1 SWAP2 ADD SSTORE JUMPDEST PUSH1 0x13 SLOAD PUSH1 0x40 MLOAD PUSH4 0x22A8E4EB PUSH1 0xE2 SHL DUP2 MSTORE PUSH1 0x1 PUSH1 0x1 PUSH1 0xA0 SHL SUB SWAP1 SWAP2 AND SWAP1 PUSH4 0x8AA393AC SWAP1 PUSH2 0x1545 SWAP1 CALLER SWAP1 DUP12 SWAP1 DUP11 SWAP1 PUSH0 SWAP1 DUP2 SWAP1 PUSH1 0x1 SWAP1 PUSH1 0x4 ADD PUSH2 0x915D JUMP JUMPDEST PUSH0 PUSH1 0x40 MLOAD DUP1 DUP4 SUB DUP2 PUSH0 DUP8 DUP1 EXTCODESIZE ISZERO DUP1 ISZERO PUSH2 0x155C JUMPI PUSH0 DUP1 REVERT JUMPDEST POP GAS CALL ISZERO DUP1 ISZERO PUSH2 0x156E JUMPI RETURNDATASIZE PUSH0 DUP1 RETURNDATACOPY RETURNDATASIZE PUSH0 REVERT JUMPDEST POP POP PUSH1 0x13 SLOAD PUSH1 0x20 DUP7 ADD MLOAD PUSH2 0x180 ADD MLOAD PUSH1 0x40 MLOAD PUSH4 0x22A8E4EB PUSH1 0xE2 SHL DUP2 MSTORE PUSH1 0x1 PUSH1 0x1 PUSH1 0xA0 SHL SUB SWAP1 SWAP3 AND SWAP4 POP PUSH4 0x8AA393AC SWAP3 POP PUSH2 0x15B5 SWAP2 CALLER SWAP2 DUP13 SWAP2 DUP12 SWAP2 SWAP1 PUSH0 SWAP1 DUP2 SWAP1 PUSH1 0x4 ADD PUSH2 0x915D JUMP JUMPDEST PUSH0 PUSH1 0x40 MLOAD DUP1 DUP4 SUB DUP2 PUSH0 DUP8 DUP1 EXTCODESIZE ISZERO DUP1 ISZERO PUSH2 0x15CC JUMPI PUSH0 DUP1 REVERT JUMPDEST POP GAS CALL ISZERO DUP1 ISZERO PUSH2 0x15DE JUMPI RETURNDATASIZE PUSH0 DUP1 RETURNDATACOPY RETURNDATASIZE PUSH0 REVERT JUMPDEST POP POP PUSH1 0x13 SLOAD PUSH1 0x20 DUP7 ADD MLOAD PUSH2 0x180 ADD MLOAD PUSH1 0x40 MLOAD PUSH4 0xF954ED2D PUSH1 0xE0 SHL DUP2 MSTORE PUSH1 0x1 PUSH1 0x1 PUSH1 0xA0 SHL SUB SWAP1 SWAP3 AND SWAP4 POP PUSH4 0xF954ED2D SWAP3 POP PUSH2 0x161A SWAP2 PUSH1 0x4 ADD PUSH2 0x8107 JUMP JUMPDEST PUSH0 PUSH1 0x40 MLOAD DUP1 DUP4 SUB DUP2 PUSH0 DUP8 DUP1 EXTCODESIZE ISZERO DUP1 ISZERO PUSH2 0x1631 JUMPI PUSH0 DUP1 REVERT JUMPDEST POP GAS CALL ISZERO DUP1 ISZERO PUSH2 0x1643 JUMPI RETURNDATASIZE PUSH0 DUP1 RETURNDATACOPY RETURNDATASIZE PUSH0 REVERT JUMPDEST POP SWAP3 SWAP10 SWAP9 POP POP POP POP POP POP POP POP POP JUMP JUMPDEST PUSH2 0x165A PUSH2 0x7352 JUMP JUMPDEST CALLER PUSH0 SWAP1 DUP2 MSTORE PUSH1 0x20 DUP2 DUP2 MSTORE PUSH1 0x40 DUP1 DUP4 KECCAK256 DUP2 MLOAD PUSH1 0x60 DUP2 ADD DUP4 MSTORE DUP2 SLOAD DUP2 MSTORE PUSH1 0x1 DUP3 ADD SLOAD PUSH1 0x1 PUSH1 0x1 PUSH1 0xA0 SHL SUB AND DUP2 DUP6 ADD MSTORE PUSH1 0x2 DUP3 ADD DUP1 SLOAD DUP5 MLOAD DUP2 DUP8 MUL DUP2 ADD DUP8 ADD DUP7 MSTORE DUP2 DUP2 MSTORE SWAP3 SWAP7 SWAP4 SWAP6 SWAP5 DUP8 ADD SWAP5 SWAP3 SWAP4 SWAP2 SWAP3 SWAP1 SWAP2 SWAP1 DUP5 ADD JUMPDEST DUP3 DUP3 LT ISZERO PUSH2 0x170E JUMPI DUP4 DUP3 SWAP1 PUSH0 MSTORE PUSH1 0x20 PUSH0 KECCAK256 SWAP1 PUSH1 0x5 MUL ADD PUSH1 0x40 MLOAD DUP1 PUSH1 0xA0 ADD PUSH1 0x40 MSTORE SWAP1 DUP2 PUSH0 DUP3 ADD SLOAD DUP2 MSTORE PUSH1 0x20 ADD PUSH1 0x1 DUP3 ADD SLOAD DUP2 MSTORE PUSH1 0x20 ADD PUSH1 0x2 DUP3 ADD SLOAD DUP2 MSTORE PUSH1 0x20 ADD PUSH1 0x3 DUP3 ADD SLOAD DUP2 MSTORE PUSH1 0x20 ADD PUSH1 0x4 DUP3 ADD SLOAD DUP2 MSTORE POP POP DUP2 MSTORE PUSH1 0x20 ADD SWAP1 PUSH1 0x1 ADD SWAP1 PUSH2 0x16AD JUMP JUMPDEST POP POP POP POP DUP2 MSTORE POP POP SWAP1 POP SWAP1 JUMP JUMPDEST CALLER PUSH0 SWAP1 DUP2 MSTORE PUSH1 0x5 PUSH1 0x20 MSTORE PUSH1 0x40 DUP2 KECCAK256 SLOAD PUSH1 0x60 SWAP2 SWAP1 PUSH1 0x1 PUSH1 0x1 PUSH1 0x40 SHL SUB DUP2 GT ISZERO PUSH2 0x1745 JUMPI PUSH2 0x1745 PUSH2 0x7627 JUMP JUMPDEST PUSH1 0x40 MLOAD SWAP1 DUP1 DUP3 MSTORE DUP1 PUSH1 0x20 MUL PUSH1 0x20 ADD DUP3 ADD PUSH1 0x40 MSTORE DUP1 ISZERO PUSH2 0x177E JUMPI DUP2 PUSH1 0x20 ADD JUMPDEST PUSH2 0x176B PUSH2 0x744B JUMP JUMPDEST DUP2 MSTORE PUSH1 0x20 ADD SWAP1 PUSH1 0x1 SWAP1 SUB SWAP1 DUP2 PUSH2 0x1763 JUMPI SWAP1 POP JUMPDEST POP CALLER PUSH0 SWAP1 DUP2 MSTORE PUSH1 0x5 PUSH1 0x20 MSTORE PUSH1 0x40 DUP2 KECCAK256 SWAP2 SWAP3 POP JUMPDEST DUP2 SLOAD DUP2 LT ISZERO PUSH2 0x19ED JUMPI PUSH1 0x6 PUSH0 DUP4 DUP4 DUP2 SLOAD DUP2 LT PUSH2 0x17AF JUMPI PUSH2 0x17AF PUSH2 0x8BD8 JUMP JUMPDEST SWAP1 PUSH0 MSTORE PUSH1 0x20 PUSH0 KECCAK256 ADD SLOAD DUP2 MSTORE PUSH1 0x20 ADD SWAP1 DUP2 MSTORE PUSH1 0x20 ADD PUSH0 KECCAK256 PUSH1 0x40 MLOAD DUP1 PUSH1 0xA0 ADD PUSH1 0x40 MSTORE SWAP1 DUP2 PUSH0 DUP3 ADD SLOAD DUP2 MSTORE PUSH1 0x20 ADD PUSH1 0x1 DUP3 ADD DUP1 SLOAD DUP1 PUSH1 0x20 MUL PUSH1 0x20 ADD PUSH1 0x40 MLOAD SWAP1 DUP2 ADD PUSH1 0x40 MSTORE DUP1 SWAP3 SWAP2 SWAP1 DUP2 DUP2 MSTORE PUSH1 0x20 ADD PUSH0 SWAP1 JUMPDEST DUP3 DUP3 LT ISZERO PUSH2 0x198E JUMPI DUP4 DUP3 SWAP1 PUSH0 MSTORE PUSH1 0x20 PUSH0 KECCAK256 SWAP1 PUSH1 0x5 MUL ADD PUSH1 0x40 MLOAD DUP1 PUSH1 0xA0 ADD PUSH1 0x40 MSTORE SWAP1 DUP2 PUSH0 DUP3 ADD DUP1 SLOAD DUP1 PUSH1 0x20 MUL PUSH1 0x20 ADD PUSH1 0x40 MLOAD SWAP1 DUP2 ADD PUSH1 0x40 MSTORE DUP1 SWAP3 SWAP2 SWAP1 DUP2 DUP2 MSTORE PUSH1 0x20 ADD DUP3 DUP1 SLOAD DUP1 ISZERO PUSH2 0x186A JUMPI PUSH1 0x20 MUL DUP3 ADD SWAP2 SWAP1 PUSH0 MSTORE PUSH1 0x20 PUSH0 KECCAK256 SWAP1 JUMPDEST DUP2 SLOAD DUP2 MSTORE PUSH1 0x20 ADD SWAP1 PUSH1 0x1 ADD SWAP1 DUP1 DUP4 GT PUSH2 0x1856 JUMPI JUMPDEST POP POP POP POP POP DUP2 MSTORE PUSH1 0x20 ADD PUSH1 0x1 DUP3 ADD DUP1 SLOAD DUP1 PUSH1 0x20 MUL PUSH1 0x20 ADD PUSH1 0x40 MLOAD SWAP1 DUP2 ADD PUSH1 0x40 MSTORE DUP1 SWAP3 SWAP2 SWAP1 DUP2 DUP2 MSTORE PUSH1 0x20 ADD DUP3 DUP1 SLOAD DUP1 ISZERO PUSH2 0x18C0 JUMPI PUSH1 0x20 MUL DUP3 ADD SWAP2 SWAP1 PUSH0 MSTORE PUSH1 0x20 PUSH0 KECCAK256 SWAP1 JUMPDEST DUP2 SLOAD DUP2 MSTORE PUSH1 0x20 ADD SWAP1 PUSH1 0x1 ADD SWAP1 DUP1 DUP4 GT PUSH2 0x18AC JUMPI JUMPDEST POP POP POP POP POP DUP2 MSTORE PUSH1 0x20 ADD PUSH1 0x2 DUP3 ADD DUP1 SLOAD DUP1 PUSH1 0x20 MUL PUSH1 0x20 ADD PUSH1 0x40 MLOAD SWAP1 DUP2 ADD PUSH1 0x40 MSTORE DUP1 SWAP3 SWAP2 SWAP1 DUP2 DUP2 MSTORE PUSH1 0x20 ADD DUP3 DUP1 SLOAD DUP1 ISZERO PUSH2 0x1916 JUMPI PUSH1 0x20 MUL DUP3 ADD SWAP2 SWAP1 PUSH0 MSTORE PUSH1 0x20 PUSH0 KECCAK256 SWAP1 JUMPDEST DUP2 SLOAD DUP2 MSTORE PUSH1 0x20 ADD SWAP1 PUSH1 0x1 ADD SWAP1 DUP1 DUP4 GT PUSH2 0x1902 JUMPI JUMPDEST POP POP POP POP POP DUP2 MSTORE PUSH1 0x20 ADD PUSH1 0x3 DUP3 ADD DUP1 SLOAD DUP1 PUSH1 0x20 MUL PUSH1 0x20 ADD PUSH1 0x40 MLOAD SWAP1 DUP2 ADD PUSH1 0x40 MSTORE DUP1 SWAP3 SWAP2 SWAP1 DUP2 DUP2 MSTORE PUSH1 0x20 ADD DUP3 DUP1 SLOAD DUP1 ISZERO PUSH2 0x196C JUMPI PUSH1 0x20 MUL DUP3 ADD SWAP2 SWAP1 PUSH0 MSTORE PUSH1 0x20 PUSH0 KECCAK256 SWAP1 JUMPDEST DUP2 SLOAD DUP2 MSTORE PUSH1 0x20 ADD SWAP1 PUSH1 0x1 ADD SWAP1 DUP1 DUP4 GT PUSH2 0x1958 JUMPI JUMPDEST POP POP POP POP POP DUP2 MSTORE PUSH1 0x20 ADD PUSH1 0x4 DUP3 ADD SLOAD DUP2 MSTORE POP POP DUP2 MSTORE PUSH1 0x20 ADD SWAP1 PUSH1 0x1 ADD SWAP1 PUSH2 0x17FD JUMP JUMPDEST POP POP POP SWAP1 DUP3 MSTORE POP PUSH1 0x2 DUP3 ADD SLOAD PUSH1 0x1 PUSH1 0x1 PUSH1 0xA0 SHL SUB DUP2 AND PUSH1 0x20 DUP4 ADD MSTORE PUSH1 0x1 PUSH1 0xA0 SHL SWAP1 DIV PUSH1 0xFF AND ISZERO ISZERO PUSH1 0x40 DUP3 ADD MSTORE PUSH1 0x3 SWAP1 SWAP2 ADD SLOAD PUSH1 0x60 SWAP1 SWAP2 ADD MSTORE DUP4 MLOAD DUP5 SWAP1 DUP4 SWAP1 DUP2 LT PUSH2 0x19DA JUMPI PUSH2 0x19DA PUSH2 0x8BD8 JUMP JUMPDEST PUSH1 0x20 SWAP1 DUP2 MUL SWAP2 SWAP1 SWAP2 ADD ADD MSTORE PUSH1 0x1 ADD PUSH2 0x1791 JUMP JUMPDEST POP SWAP1 SWAP3 SWAP2 POP POP JUMP JUMPDEST PUSH1 0x16 SLOAD PUSH0 SWAP1 PUSH1 0x1 PUSH1 0x1 PUSH1 0xA0 SHL SUB AND CALLER DUP2 EQ PUSH2 0x1A22 JUMPI PUSH1 0x40 MLOAD PUSH3 0x461BCD PUSH1 0xE5 SHL DUP2 MSTORE PUSH1 0x4 ADD PUSH2 0xAF2 SWAP1 PUSH2 0x91A5 JUMP JUMPDEST PUSH1 0x14 DUP1 SLOAD PUSH1 0x1 PUSH1 0x1 PUSH1 0xA0 SHL SUB DUP6 AND PUSH1 0x1 PUSH1 0x1 PUSH1 0xA0 SHL SUB NOT SWAP1 SWAP2 AND OR SWAP1 SSTORE PUSH1 0x1 SWAP2 POP POP SWAP2 SWAP1 POP JUMP JUMPDEST PUSH2 0x1A53 CALLER DUP3 PUSH2 0x6338 JUMP JUMPDEST POP JUMP JUMPDEST PUSH1 0x5 PUSH1 0x20 MSTORE DUP2 PUSH0 MSTORE PUSH1 0x40 PUSH0 KECCAK256 DUP2 DUP2 SLOAD DUP2 LT PUSH2 0x88D JUMPI PUSH0 DUP1 REVERT JUMPDEST PUSH1 0x16 SLOAD PUSH0 SWAP1 PUSH1 0x1 PUSH1 0x1 PUSH1 0xA0 SHL SUB AND CALLER DUP2 EQ PUSH2 0x1A9C JUMPI PUSH1 0x40 MLOAD PUSH3 0x461BCD PUSH1 0xE5 SHL DUP2 MSTORE PUSH1 0x4 ADD PUSH2 0xAF2 SWAP1 PUSH2 0x91A5 JUMP JUMPDEST PUSH1 0x11 DUP1 SLOAD PUSH1 0x1 PUSH1 0x1 PUSH1 0xA0 SHL SUB DUP6 AND PUSH1 0x1 PUSH1 0x1 PUSH1 0xA0 SHL SUB NOT SWAP1 SWAP2 AND OR SWAP1 SSTORE PUSH1 0x1 SWAP2 POP POP SWAP2 SWAP1 POP JUMP JUMPDEST PUSH1 0x1 PUSH1 0x1 PUSH1 0xA0 SHL SUB DUP2 AND PUSH0 SWAP1 DUP2 MSTORE PUSH1 0x2 PUSH1 0x20 SWAP1 DUP2 MSTORE PUSH1 0x40 DUP1 DUP4 KECCAK256 DUP1 SLOAD DUP3 MLOAD DUP2 DUP6 MUL DUP2 ADD DUP6 ADD SWAP1 SWAP4 MSTORE DUP1 DUP4 MSTORE PUSH1 0x60 SWAP5 SWAP4 DUP4 ADD DUP3 DUP3 DUP1 ISZERO PUSH2 0x1B1F JUMPI PUSH1 0x20 MUL DUP3 ADD SWAP2 SWAP1 PUSH0 MSTORE PUSH1 0x20 PUSH0 KECCAK256 SWAP1 JUMPDEST DUP2 SLOAD DUP2 MSTORE PUSH1 0x20 ADD SWAP1 PUSH1 0x1 ADD SWAP1 DUP1 DUP4 GT PUSH2 0x1B0B JUMPI JUMPDEST POP POP POP POP POP SWAP1 POP DUP1 MLOAD PUSH1 0x1 PUSH1 0x1 PUSH1 0x40 SHL SUB DUP2 GT ISZERO PUSH2 0x1B3F JUMPI PUSH2 0x1B3F PUSH2 0x7627 JUMP JUMPDEST PUSH1 0x40 MLOAD SWAP1 DUP1 DUP3 MSTORE DUP1 PUSH1 0x20 MUL PUSH1 0x20 ADD DUP3 ADD PUSH1 0x40 MSTORE DUP1 ISZERO PUSH2 0x1B78 JUMPI DUP2 PUSH1 0x20 ADD JUMPDEST PUSH2 0x1B65 PUSH2 0x737A JUMP JUMPDEST DUP2 MSTORE PUSH1 0x20 ADD SWAP1 PUSH1 0x1 SWAP1 SUB SWAP1 DUP2 PUSH2 0x1B5D JUMPI SWAP1 POP JUMPDEST POP SWAP2 POP PUSH0 JUMPDEST DUP3 MLOAD DUP2 LT ISZERO PUSH2 0x1EC6 JUMPI PUSH1 0x1 PUSH0 DUP4 DUP4 DUP2 MLOAD DUP2 LT PUSH2 0x1B9B JUMPI PUSH2 0x1B9B PUSH2 0x8BD8 JUMP JUMPDEST PUSH1 0x20 SWAP1 DUP2 MUL SWAP2 SWAP1 SWAP2 ADD DUP2 ADD MLOAD DUP3 MSTORE DUP2 DUP2 ADD SWAP3 SWAP1 SWAP3 MSTORE PUSH1 0x40 SWAP1 DUP2 ADD PUSH0 KECCAK256 DUP2 MLOAD PUSH2 0x260 DUP2 ADD DUP4 MSTORE DUP2 SLOAD DUP2 MSTORE PUSH1 0x1 DUP3 ADD SLOAD PUSH1 0x1 PUSH1 0x1 PUSH1 0xA0 SHL SUB SWAP1 DUP2 AND DUP3 DUP7 ADD MSTORE PUSH1 0x2 DUP4 ADD SLOAD AND DUP2 DUP5 ADD MSTORE PUSH1 0x3 DUP3 ADD SLOAD PUSH1 0x60 DUP3 ADD MSTORE PUSH1 0x4 DUP3 ADD DUP1 SLOAD DUP5 MLOAD DUP2 DUP8 MUL DUP2 ADD DUP8 ADD SWAP1 SWAP6 MSTORE DUP1 DUP6 MSTORE SWAP2 SWAP5 SWAP3 SWAP4 PUSH1 0x80 DUP7 ADD SWAP4 SWAP1 SWAP3 SWAP1 DUP4 ADD DUP3 DUP3 DUP1 ISZERO PUSH2 0x1C3A JUMPI PUSH1 0x20 MUL DUP3 ADD SWAP2 SWAP1 PUSH0 MSTORE PUSH1 0x20 PUSH0 KECCAK256 SWAP1 JUMPDEST DUP2 SLOAD DUP2 MSTORE PUSH1 0x20 ADD SWAP1 PUSH1 0x1 ADD SWAP1 DUP1 DUP4 GT PUSH2 0x1C26 JUMPI JUMPDEST POP POP POP POP POP DUP2 MSTORE PUSH1 0x20 ADD PUSH1 0x5 DUP3 ADD DUP1 SLOAD DUP1 PUSH1 0x20 MUL PUSH1 0x20 ADD PUSH1 0x40 MLOAD SWAP1 DUP2 ADD PUSH1 0x40 MSTORE DUP1 SWAP3 SWAP2 SWAP1 DUP2 DUP2 MSTORE PUSH1 0x20 ADD DUP3 DUP1 SLOAD DUP1 ISZERO PUSH2 0x1C90 JUMPI PUSH1 0x20 MUL DUP3 ADD SWAP2 SWAP1 PUSH0 MSTORE PUSH1 0x20 PUSH0 KECCAK256 SWAP1 JUMPDEST DUP2 SLOAD DUP2 MSTORE PUSH1 0x20 ADD SWAP1 PUSH1 0x1 ADD SWAP1 DUP1 DUP4 GT PUSH2 0x1C7C JUMPI JUMPDEST POP POP POP POP POP DUP2 MSTORE PUSH1 0x20 ADD PUSH1 0x6 DUP3 ADD DUP1 SLOAD DUP1 PUSH1 0x20 MUL PUSH1 0x20 ADD PUSH1 0x40 MLOAD SWAP1 DUP2 ADD PUSH1 0x40 MSTORE DUP1 SWAP3 SWAP2 SWAP1 DUP2 DUP2 MSTORE PUSH1 0x20 ADD DUP3 DUP1 SLOAD DUP1 ISZERO PUSH2 0x1CE6 JUMPI PUSH1 0x20 MUL DUP3 ADD SWAP2 SWAP1 PUSH0 MSTORE PUSH1 0x20 PUSH0 KECCAK256 SWAP1 JUMPDEST DUP2 SLOAD DUP2 MSTORE PUSH1 0x20 ADD SWAP1 PUSH1 0x1 ADD SWAP1 DUP1 DUP4 GT PUSH2 0x1CD2 JUMPI JUMPDEST POP POP POP POP POP DUP2 MSTORE PUSH1 0x20 ADD PUSH1 0x7 DUP3 ADD DUP1 SLOAD DUP1 PUSH1 0x20 MUL PUSH1 0x20 ADD PUSH1 0x40 MLOAD SWAP1 DUP2 ADD PUSH1 0x40 MSTORE DUP1 SWAP3 SWAP2 SWAP1 DUP2 DUP2 MSTORE PUSH1 0x20 ADD DUP3 DUP1 SLOAD DUP1 ISZERO PUSH2 0x1D3C JUMPI PUSH1 0x20 MUL DUP3 ADD SWAP2 SWAP1 PUSH0 MSTORE PUSH1 0x20 PUSH0 KECCAK256 SWAP1 JUMPDEST DUP2 SLOAD DUP2 MSTORE PUSH1 0x20 ADD SWAP1 PUSH1 0x1 ADD SWAP1 DUP1 DUP4 GT PUSH2 0x1D28 JUMPI JUMPDEST POP POP POP POP POP DUP2 MSTORE PUSH1 0x20 ADD PUSH1 0x8 DUP3 ADD DUP1 SLOAD DUP1 PUSH1 0x20 MUL PUSH1 0x20 ADD PUSH1 0x40 MLOAD SWAP1 DUP2 ADD PUSH1 0x40 MSTORE DUP1 SWAP3 SWAP2 SWAP1 DUP2 DUP2 MSTORE PUSH1 0x20 ADD DUP3 DUP1 SLOAD DUP1 ISZERO PUSH2 0x1D92 JUMPI PUSH1 0x20 MUL DUP3 ADD SWAP2 SWAP1 PUSH0 MSTORE PUSH1 0x20 PUSH0 KECCAK256 SWAP1 JUMPDEST DUP2 SLOAD DUP2 MSTORE PUSH1 0x20 ADD SWAP1 PUSH1 0x1 ADD SWAP1 DUP1 DUP4 GT PUSH2 0x1D7E JUMPI JUMPDEST POP POP POP POP POP DUP2 MSTORE PUSH1 0x20 ADD PUSH1 0x9 DUP3 ADD DUP1 SLOAD DUP1 PUSH1 0x20 MUL PUSH1 0x20 ADD PUSH1 0x40 MLOAD SWAP1 DUP2 ADD PUSH1 0x40 MSTORE DUP1 SWAP3 SWAP2 SWAP1 DUP2 DUP2 MSTORE PUSH1 0x20 ADD DUP3 DUP1 SLOAD DUP1 ISZERO PUSH2 0x1DE8 JUMPI PUSH1 0x20 MUL DUP3 ADD SWAP2 SWAP1 PUSH0 MSTORE PUSH1 0x20 PUSH0 KECCAK256 SWAP1 JUMPDEST DUP2 SLOAD DUP2 MSTORE PUSH1 0x20 ADD SWAP1 PUSH1 0x1 ADD SWAP1 DUP1 DUP4 GT PUSH2 0x1DD4 JUMPI JUMPDEST POP POP POP POP POP DUP2 MSTORE PUSH1 0x20 ADD PUSH1 0xA DUP3 ADD DUP1 SLOAD DUP1 PUSH1 0x20 MUL PUSH1 0x20 ADD PUSH1 0x40 MLOAD SWAP1 DUP2 ADD PUSH1 0x40 MSTORE DUP1 SWAP3 SWAP2 SWAP1 DUP2 DUP2 MSTORE PUSH1 0x20 ADD DUP3 DUP1 SLOAD DUP1 ISZERO PUSH2 0x1E3E JUMPI PUSH1 0x20 MUL DUP3 ADD SWAP2 SWAP1 PUSH0 MSTORE PUSH1 0x20 PUSH0 KECCAK256 SWAP1 JUMPDEST DUP2 SLOAD DUP2 MSTORE PUSH1 0x20 ADD SWAP1 PUSH1 0x1 ADD SWAP1 DUP1 DUP4 GT PUSH2 0x1E2A JUMPI JUMPDEST POP POP POP SWAP2 DUP4 MSTORE POP POP PUSH1 0xB DUP3 ADD SLOAD PUSH1 0x20 DUP3 ADD MSTORE PUSH1 0xC DUP3 ADD SLOAD PUSH1 0xFF DUP1 DUP3 AND PUSH1 0x40 DUP5 ADD MSTORE PUSH2 0x100 SWAP2 DUP3 SWAP1 DIV DUP2 AND PUSH1 0x60 DUP5 ADD MSTORE PUSH1 0xD DUP5 ADD SLOAD PUSH1 0x80 DUP5 ADD MSTORE PUSH1 0xE DUP5 ADD SLOAD PUSH1 0xA0 DUP5 ADD MSTORE PUSH1 0xF DUP5 ADD SLOAD PUSH1 0xC0 DUP5 ADD MSTORE PUSH1 0x10 DUP5 ADD SLOAD AND PUSH1 0xE0 DUP4 ADD MSTORE PUSH1 0x11 SWAP1 SWAP3 ADD SLOAD SWAP2 ADD MSTORE DUP4 MLOAD DUP5 SWAP1 DUP4 SWAP1 DUP2 LT PUSH2 0x1EB3 JUMPI PUSH2 0x1EB3 PUSH2 0x8BD8 JUMP JUMPDEST PUSH1 0x20 SWAP1 DUP2 MUL SWAP2 SWAP1 SWAP2 ADD ADD MSTORE PUSH1 0x1 ADD PUSH2 0x1B7D JUMP JUMPDEST POP POP SWAP2 SWAP1 POP JUMP JUMPDEST PUSH0 DUP1 DUP5 MLOAD GT PUSH2 0x1F40 JUMPI PUSH1 0x40 MLOAD PUSH3 0x461BCD PUSH1 0xE5 SHL DUP2 MSTORE PUSH1 0x20 PUSH1 0x4 DUP3 ADD MSTORE PUSH1 0x46 PUSH1 0x24 DUP3 ADD MSTORE PUSH0 DUP1 MLOAD PUSH1 0x20 PUSH2 0x9520 DUP4 CODECOPY DUP2 MLOAD SWAP2 MSTORE PUSH1 0x44 DUP3 ADD MSTORE PUSH32 0x223A2031312C20226D657373616765223A224F726465722068617665206E6F20 PUSH1 0x64 DUP3 ADD MSTORE PUSH6 0x6974656D227D PUSH1 0xD0 SHL PUSH1 0x84 DUP3 ADD MSTORE PUSH1 0xA4 ADD PUSH2 0xAF2 JUMP JUMPDEST PUSH1 0x64 DUP5 MLOAD LT PUSH2 0x1FB4 JUMPI PUSH1 0x40 MLOAD PUSH3 0x461BCD PUSH1 0xE5 SHL DUP2 MSTORE PUSH1 0x20 PUSH1 0x4 DUP3 ADD MSTORE PUSH1 0x47 PUSH1 0x24 DUP3 ADD MSTORE PUSH0 DUP1 MLOAD PUSH1 0x20 PUSH2 0x9520 DUP4 CODECOPY DUP2 MLOAD SWAP2 MSTORE PUSH1 0x44 DUP3 ADD MSTORE PUSH32 0x223A2031312C20226D657373616765223A224F726465722068617665206D6178 PUSH1 0x64 DUP3 ADD MSTORE PUSH7 0x206974656D227D PUSH1 0xC8 SHL PUSH1 0x84 DUP3 ADD MSTORE PUSH1 0xA4 ADD PUSH2 0xAF2 JUMP JUMPDEST PUSH1 0x1 DUP3 PUSH1 0x60 ADD MLOAD PUSH1 0x1 DUP2 GT ISZERO PUSH2 0x1FCC JUMPI PUSH2 0x1FCC PUSH2 0x8627 JUMP JUMPDEST EQ PUSH2 0x1FF0 PUSH1 0xC PUSH1 0x40 MLOAD DUP1 PUSH1 0x60 ADD PUSH1 0x40 MSTORE DUP1 PUSH1 0x35 DUP2 MSTORE PUSH1 0x20 ADD PUSH2 0x944B PUSH1 0x35 SWAP2 CODECOPY PUSH2 0xD45 JUMP JUMPDEST SWAP1 PUSH2 0x200E JUMPI PUSH1 0x40 MLOAD PUSH3 0x461BCD PUSH1 0xE5 SHL DUP2 MSTORE PUSH1 0x4 ADD PUSH2 0xAF2 SWAP2 SWAP1 PUSH2 0x7CF5 JUMP JUMPDEST POP PUSH1 0x12 SLOAD PUSH1 0x40 MLOAD PUSH4 0x700786D7 PUSH1 0xE1 SHL DUP2 MSTORE PUSH0 SWAP2 PUSH1 0x1 PUSH1 0x1 PUSH1 0xA0 SHL SUB AND SWAP1 PUSH4 0xE00F0DAE SWAP1 PUSH2 0x203F SWAP1 CALLER SWAP1 PUSH1 0x4 ADD PUSH2 0x8107 JUMP JUMPDEST PUSH1 0x20 PUSH1 0x40 MLOAD DUP1 DUP4 SUB DUP2 DUP7 GAS STATICCALL ISZERO DUP1 ISZERO PUSH2 0x205A JUMPI RETURNDATASIZE PUSH0 DUP1 RETURNDATACOPY RETURNDATASIZE PUSH0 REVERT JUMPDEST POP POP POP POP PUSH1 0x40 MLOAD RETURNDATASIZE PUSH1 0x1F NOT PUSH1 0x1F DUP3 ADD AND DUP3 ADD DUP1 PUSH1 0x40 MSTORE POP DUP2 ADD SWAP1 PUSH2 0x207E SWAP2 SWAP1 PUSH2 0x9201 JUMP JUMPDEST SWAP1 POP PUSH1 0x1 PUSH1 0x1 PUSH1 0xA0 SHL SUB DUP2 AND PUSH2 0x20F4 JUMPI PUSH1 0x40 MLOAD PUSH3 0x461BCD PUSH1 0xE5 SHL DUP2 MSTORE PUSH1 0x20 PUSH1 0x4 DUP3 ADD MSTORE PUSH1 0x42 PUSH1 0x24 DUP3 ADD MSTORE PUSH0 DUP1 MLOAD PUSH1 0x20 PUSH2 0x9520 DUP4 CODECOPY DUP2 MLOAD SWAP2 MSTORE PUSH1 0x44 DUP3 ADD MSTORE PUSH32 0x223A2031322C20226D657373616765223A2255736572206E6F74206578697374 PUSH1 0x64 DUP3 ADD MSTORE PUSH2 0x227D PUSH1 0xF0 SHL PUSH1 0x84 DUP3 ADD MSTORE PUSH1 0xA4 ADD PUSH2 0xAF2 JUMP JUMPDEST PUSH1 0xD DUP1 SLOAD SWAP1 PUSH0 PUSH2 0x2103 DUP4 PUSH2 0x893B JUMP JUMPDEST SWAP2 SWAP1 POP SSTORE POP PUSH0 PUSH2 0x2113 DUP7 CALLER PUSH2 0x69E1 JUMP JUMPDEST SWAP1 POP PUSH0 PUSH1 0x40 MLOAD DUP1 PUSH2 0x260 ADD PUSH1 0x40 MSTORE DUP1 PUSH1 0xD SLOAD DUP2 MSTORE PUSH1 0x20 ADD DUP5 PUSH1 0x1 PUSH1 0x1 PUSH1 0xA0 SHL SUB AND DUP2 MSTORE PUSH1 0x20 ADD CALLER PUSH1 0x1 PUSH1 0x1 PUSH1 0xA0 SHL SUB AND DUP2 MSTORE PUSH1 0x20 ADD PUSH0 DUP2 MSTORE PUSH1 0x20 ADD DUP4 PUSH1 0xC0 ADD MLOAD DUP2 MSTORE PUSH1 0x20 ADD DUP4 PUSH0 ADD MLOAD DUP2 MSTORE PUSH1 0x20 ADD DUP4 PUSH1 0x20 ADD MLOAD DUP2 MSTORE PUSH1 0x20 ADD DUP4 PUSH1 0x40 ADD MLOAD DUP2 MSTORE PUSH1 0x20 ADD DUP4 PUSH1 0x60 ADD MLOAD DUP2 MSTORE PUSH1 0x20 ADD DUP4 PUSH1 0x80 ADD MLOAD DUP2 MSTORE PUSH1 0x20 ADD DUP4 PUSH1 0xA0 ADD MLOAD DUP2 MSTORE PUSH1 0x20 ADD DUP4 PUSH1 0xE0 ADD MLOAD DUP2 MSTORE PUSH1 0x20 ADD DUP7 PUSH1 0x40 ADD MLOAD PUSH1 0x1 DUP2 GT ISZERO PUSH2 0x21B3 JUMPI PUSH2 0x21B3 PUSH2 0x8627 JUMP JUMPDEST PUSH1 0xFF AND DUP2 MSTORE PUSH1 0x20 ADD PUSH1 0x1 DUP8 PUSH1 0x40 ADD MLOAD PUSH1 0x1 DUP2 GT ISZERO PUSH2 0x21D3 JUMPI PUSH2 0x21D3 PUSH2 0x8627 JUMP JUMPDEST EQ PUSH2 0x21DF JUMPI PUSH1 0x1 PUSH2 0x21E2 JUMP JUMPDEST PUSH1 0x4 JUMPDEST PUSH1 0xFF AND DUP2 MSTORE PUSH1 0x20 ADD DUP7 PUSH1 0x20 ADD MLOAD DUP2 MSTORE PUSH1 0x20 ADD PUSH0 DUP2 MSTORE PUSH1 0x20 ADD PUSH0 DUP2 MSTORE PUSH1 0x20 ADD DUP7 PUSH1 0x60 ADD MLOAD PUSH1 0x1 DUP2 GT ISZERO PUSH2 0x2216 JUMPI PUSH2 0x2216 PUSH2 0x8627 JUMP JUMPDEST PUSH1 0xFF AND DUP2 MSTORE TIMESTAMP PUSH1 0x20 SWAP2 DUP3 ADD MSTORE PUSH1 0xD SLOAD PUSH0 SWAP1 DUP2 MSTORE PUSH1 0x1 DUP1 DUP4 MSTORE PUSH1 0x40 SWAP2 DUP3 SWAP1 KECCAK256 DUP5 MLOAD DUP2 SSTORE DUP5 DUP5 ADD MLOAD SWAP2 DUP2 ADD DUP1 SLOAD PUSH1 0x1 PUSH1 0x1 PUSH1 0xA0 SHL SUB SWAP4 DUP5 AND PUSH1 0x1 PUSH1 0x1 PUSH1 0xA0 SHL SUB NOT SWAP2 DUP3 AND OR SWAP1 SWAP2 SSTORE SWAP3 DUP6 ADD MLOAD PUSH1 0x2 DUP3 ADD DUP1 SLOAD SWAP2 SWAP1 SWAP4 AND SWAP4 AND SWAP3 SWAP1 SWAP3 OR SWAP1 SSTORE PUSH1 0x60 DUP4 ADD MLOAD PUSH1 0x3 DUP3 ADD SSTORE PUSH1 0x80 DUP4 ADD MLOAD DUP1 MLOAD SWAP4 SWAP5 POP DUP5 SWAP4 SWAP2 SWAP3 PUSH2 0x229C SWAP3 PUSH1 0x4 DUP6 ADD SWAP3 SWAP1 SWAP2 ADD SWAP1 PUSH2 0x730D JUMP JUMPDEST POP PUSH1 0xA0 DUP3 ADD MLOAD DUP1 MLOAD PUSH2 0x22B8 SWAP2 PUSH1 0x5 DUP5 ADD SWAP2 PUSH1 0x20 SWAP1 SWAP2 ADD SWAP1 PUSH2 0x730D JUMP JUMPDEST POP PUSH1 0xC0 DUP3 ADD MLOAD DUP1 MLOAD PUSH2 0x22D4 SWAP2 PUSH1 0x6 DUP5 ADD SWAP2 PUSH1 0x20 SWAP1 SWAP2 ADD SWAP1 PUSH2 0x730D JUMP JUMPDEST POP PUSH1 0xE0 DUP3 ADD MLOAD DUP1 MLOAD PUSH2 0x22F0 SWAP2 PUSH1 0x7 DUP5 ADD SWAP2 PUSH1 0x20 SWAP1 SWAP2 ADD SWAP1 PUSH2 0x730D JUMP JUMPDEST POP PUSH2 0x100 DUP3 ADD MLOAD DUP1 MLOAD PUSH2 0x230D SWAP2 PUSH1 0x8 DUP5 ADD SWAP2 PUSH1 0x20 SWAP1 SWAP2 ADD SWAP1 PUSH2 0x730D JUMP JUMPDEST POP PUSH2 0x120 DUP3 ADD MLOAD DUP1 MLOAD PUSH2 0x232A SWAP2 PUSH1 0x9 DUP5 ADD SWAP2 PUSH1 0x20 SWAP1 SWAP2 ADD SWAP1 PUSH2 0x730D JUMP JUMPDEST POP PUSH2 0x140 DUP3 ADD MLOAD DUP1 MLOAD PUSH2 0x2347 SWAP2 PUSH1 0xA DUP5 ADD SWAP2 PUSH1 0x20 SWAP1 SWAP2 ADD SWAP1 PUSH2 0x730D JUMP JUMPDEST POP PUSH2 0x160 DUP3 ADD MLOAD PUSH1 0xB DUP3 ADD SSTORE PUSH2 0x180 DUP3 ADD MLOAD PUSH1 0xC DUP3 ADD DUP1 SLOAD PUSH2 0x1A0 DUP6 ADD MLOAD PUSH1 0xFF SWAP1 DUP2 AND PUSH2 0x100 MUL PUSH2 0xFFFF NOT SWAP1 SWAP3 AND SWAP4 DUP2 AND SWAP4 SWAP1 SWAP4 OR OR SWAP1 SSTORE PUSH2 0x1C0 DUP4 ADD MLOAD PUSH1 0xD DUP4 ADD SSTORE PUSH2 0x1E0 DUP4 ADD MLOAD PUSH1 0xE DUP4 ADD SSTORE PUSH2 0x200 DUP4 ADD MLOAD PUSH1 0xF DUP4 ADD SSTORE PUSH2 0x220 DUP4 ADD MLOAD PUSH1 0x10 DUP4 ADD DUP1 SLOAD SWAP2 SWAP1 SWAP3 AND PUSH1 0xFF NOT SWAP2 SWAP1 SWAP2 AND OR SWAP1 SSTORE PUSH2 0x240 SWAP1 SWAP2 ADD MLOAD PUSH1 0x11 SWAP1 SWAP2 ADD SSTORE PUSH0 DUP6 PUSH1 0x40 ADD MLOAD PUSH1 0x1 DUP2 GT ISZERO PUSH2 0x23DE JUMPI PUSH2 0x23DE PUSH2 0x8627 JUMP JUMPDEST SUB PUSH2 0x23F0 JUMPI PUSH2 0x23F0 DUP7 PUSH1 0xD SLOAD CALLER PUSH2 0x89F JUMP JUMPDEST PUSH1 0xD SLOAD PUSH1 0x40 DUP1 MLOAD TIMESTAMP PUSH1 0x20 DUP1 DUP4 ADD SWAP2 SWAP1 SWAP2 MSTORE NUMBER DUP3 DUP5 ADD MSTORE CALLER PUSH1 0x60 DUP4 ADD MSTORE PUSH1 0x80 DUP1 DUP4 ADD SWAP5 SWAP1 SWAP5 MSTORE DUP3 MLOAD DUP1 DUP4 SUB DUP6 ADD DUP2 MSTORE PUSH1 0xA0 SWAP1 SWAP3 ADD SWAP1 SWAP3 MSTORE DUP1 MLOAD SWAP2 ADD KECCAK256 SWAP1 DUP3 ADD MLOAD MLOAD ISZERO PUSH2 0x2479 JUMPI PUSH0 JUMPDEST DUP3 PUSH1 0x80 ADD MLOAD MLOAD DUP2 LT ISZERO PUSH2 0x2477 JUMPI PUSH2 0x246F DUP4 PUSH1 0x20 ADD MLOAD DUP5 PUSH1 0x80 ADD MLOAD DUP4 DUP2 MLOAD DUP2 LT PUSH2 0x2462 JUMPI PUSH2 0x2462 PUSH2 0x8BD8 JUMP JUMPDEST PUSH1 0x20 MUL PUSH1 0x20 ADD ADD MLOAD PUSH2 0x720C JUMP JUMPDEST PUSH1 0x1 ADD PUSH2 0x2437 JUMP JUMPDEST POP JUMPDEST PUSH1 0x20 SWAP2 DUP3 ADD MLOAD PUSH1 0x1 PUSH1 0x1 PUSH1 0xA0 SHL SUB AND PUSH0 SWAP1 DUP2 MSTORE PUSH1 0x2 DUP4 MSTORE PUSH1 0x40 DUP1 DUP3 KECCAK256 PUSH1 0xD DUP1 SLOAD DUP3 SLOAD PUSH1 0x1 DUP1 DUP3 ADD DUP6 SSTORE SWAP4 DUP7 MSTORE DUP8 DUP7 KECCAK256 ADD SSTORE SLOAD PUSH1 0x3 DUP1 SLOAD SWAP3 DUP4 ADD SWAP1 SSTORE PUSH32 0xC2575A0E9E593C00F959F8C92F12DB2869C3395A3B0502D05E2516446F71F85B SWAP1 SWAP2 ADD DUP2 SWAP1 SSTORE DUP4 DUP4 MSTORE PUSH1 0x4 SWAP1 SWAP5 MSTORE SWAP1 KECCAK256 SWAP2 SWAP1 SWAP2 SSTORE SWAP7 SWAP6 POP POP POP POP POP POP JUMP JUMPDEST PUSH2 0x24FB PUSH2 0x741E JUMP JUMPDEST PUSH0 DUP3 GT PUSH2 0x253E PUSH1 0x6 PUSH1 0x40 MLOAD DUP1 PUSH1 0x40 ADD PUSH1 0x40 MSTORE DUP1 PUSH1 0x1F DUP2 MSTORE PUSH1 0x20 ADD PUSH32 0x5175616E74697479206D7573742062652067726561746572207468616E203000 DUP2 MSTORE POP PUSH2 0xD45 JUMP JUMPDEST SWAP1 PUSH2 0x255C JUMPI PUSH1 0x40 MLOAD PUSH3 0x461BCD PUSH1 0xE5 SHL DUP2 MSTORE PUSH1 0x4 ADD PUSH2 0xAF2 SWAP2 SWAP1 PUSH2 0x7CF5 JUMP JUMPDEST POP CALLER PUSH0 SWAP1 DUP2 MSTORE PUSH1 0x20 DUP2 DUP2 MSTORE PUSH1 0x40 SWAP2 DUP3 SWAP1 KECCAK256 DUP1 SLOAD DUP4 MLOAD DUP1 DUP6 ADD SWAP1 SWAP5 MSTORE PUSH1 0x13 DUP5 MSTORE PUSH19 0x10D85C9D08191BD95CC81B9BDD08195E1A5CDD PUSH1 0x6A SHL SWAP3 DUP5 ADD SWAP3 SWAP1 SWAP3 MSTORE SWAP2 SWAP1 ISZERO ISZERO SWAP1 PUSH2 0x25AA SWAP1 PUSH1 0x7 SWAP1 PUSH2 0xD45 JUMP JUMPDEST SWAP1 PUSH2 0x25C8 JUMPI PUSH1 0x40 MLOAD PUSH3 0x461BCD PUSH1 0xE5 SHL DUP2 MSTORE PUSH1 0x4 ADD PUSH2 0xAF2 SWAP2 SWAP1 PUSH2 0x7CF5 JUMP JUMPDEST POP PUSH0 DUP1 JUMPDEST PUSH1 0x2 DUP4 ADD SLOAD DUP2 LT ISZERO PUSH2 0x27A7 JUMPI DUP6 DUP4 PUSH1 0x2 ADD DUP3 DUP2 SLOAD DUP2 LT PUSH2 0x25EE JUMPI PUSH2 0x25EE PUSH2 0x8BD8 JUMP JUMPDEST SWAP1 PUSH0 MSTORE PUSH1 0x20 PUSH0 KECCAK256 SWAP1 PUSH1 0x5 MUL ADD PUSH0 ADD SLOAD SUB PUSH2 0x279F JUMPI PUSH1 0x11 SLOAD PUSH1 0x2 DUP5 ADD DUP1 SLOAD PUSH0 SWAP3 PUSH1 0x1 PUSH1 0x1 PUSH1 0xA0 SHL SUB AND SWAP2 PUSH3 0x41C629 SWAP2 DUP6 SWAP1 DUP2 LT PUSH2 0x262C JUMPI PUSH2 0x262C PUSH2 0x8BD8 JUMP JUMPDEST SWAP1 PUSH0 MSTORE PUSH1 0x20 PUSH0 KECCAK256 SWAP1 PUSH1 0x5 MUL ADD PUSH1 0x1 ADD SLOAD DUP7 PUSH1 0x2 ADD DUP6 DUP2 SLOAD DUP2 LT PUSH2 0x2651 JUMPI PUSH2 0x2651 PUSH2 0x8BD8 JUMP JUMPDEST SWAP1 PUSH0 MSTORE PUSH1 0x20 PUSH0 KECCAK256 SWAP1 PUSH1 0x5 MUL ADD PUSH1 0x3 ADD SLOAD PUSH1 0x40 MLOAD DUP4 PUSH4 0xFFFFFFFF AND PUSH1 0xE0 SHL DUP2 MSTORE PUSH1 0x4 ADD PUSH2 0x267E SWAP3 SWAP2 SWAP1 PUSH2 0x90CF JUMP JUMPDEST PUSH1 0xC0 PUSH1 0x40 MLOAD DUP1 DUP4 SUB DUP2 DUP7 GAS STATICCALL ISZERO DUP1 ISZERO PUSH2 0x2699 JUMPI RETURNDATASIZE PUSH0 DUP1 RETURNDATACOPY RETURNDATASIZE PUSH0 REVERT JUMPDEST POP POP POP POP PUSH1 0x40 MLOAD RETURNDATASIZE PUSH1 0x1F NOT PUSH1 0x1F DUP3 ADD AND DUP3 ADD DUP1 PUSH1 0x40 MSTORE POP DUP2 ADD SWAP1 PUSH2 0x26BD SWAP2 SWAP1 PUSH2 0x90DD JUMP JUMPDEST SWAP1 POP DUP6 DUP2 PUSH1 0x20 ADD MLOAD PUSH1 0x80 ADD MLOAD LT ISZERO PUSH2 0x26EE PUSH1 0x8 PUSH1 0x40 MLOAD DUP1 PUSH1 0x60 ADD PUSH1 0x40 MSTORE DUP1 PUSH1 0x2C DUP2 MSTORE PUSH1 0x20 ADD PUSH2 0x94F4 PUSH1 0x2C SWAP2 CODECOPY PUSH2 0xD45 JUMP JUMPDEST SWAP1 PUSH2 0x270C JUMPI PUSH1 0x40 MLOAD PUSH3 0x461BCD PUSH1 0xE5 SHL DUP2 MSTORE PUSH1 0x4 ADD PUSH2 0xAF2 SWAP2 SWAP1 PUSH2 0x7CF5 JUMP JUMPDEST POP DUP6 DUP5 PUSH1 0x2 ADD DUP4 DUP2 SLOAD DUP2 LT PUSH2 0x2723 JUMPI PUSH2 0x2723 PUSH2 0x8BD8 JUMP JUMPDEST SWAP1 PUSH0 MSTORE PUSH1 0x20 PUSH0 KECCAK256 SWAP1 PUSH1 0x5 MUL ADD PUSH1 0x2 ADD DUP2 SWAP1 SSTORE POP DUP4 PUSH1 0x2 ADD DUP3 DUP2 SLOAD DUP2 LT PUSH2 0x274B JUMPI PUSH2 0x274B PUSH2 0x8BD8 JUMP JUMPDEST SWAP1 PUSH0 MSTORE PUSH1 0x20 PUSH0 KECCAK256 SWAP1 PUSH1 0x5 MUL ADD PUSH1 0x40 MLOAD DUP1 PUSH1 0xA0 ADD PUSH1 0x40 MSTORE SWAP1 DUP2 PUSH0 DUP3 ADD SLOAD DUP2 MSTORE PUSH1 0x20 ADD PUSH1 0x1 DUP3 ADD SLOAD DUP2 MSTORE PUSH1 0x20 ADD PUSH1 0x2 DUP3 ADD SLOAD DUP2 MSTORE PUSH1 0x20 ADD PUSH1 0x3 DUP3 ADD SLOAD DUP2 MSTORE PUSH1 0x20 ADD PUSH1 0x4 DUP3 ADD SLOAD DUP2 MSTORE POP POP SWAP5 POP PUSH1 0x1 SWAP3 POP POP PUSH2 0x27A7 JUMP JUMPDEST PUSH1 0x1 ADD PUSH2 0x25CC JUMP JUMPDEST POP DUP1 PUSH2 0x27E2 PUSH1 0x9 PUSH1 0x40 MLOAD DUP1 PUSH1 0x40 ADD PUSH1 0x40 MSTORE DUP1 PUSH1 0x16 DUP2 MSTORE PUSH1 0x20 ADD PUSH22 0x125D195B481B9BDD08199BDD5B99081A5B8818D85C9D PUSH1 0x52 SHL DUP2 MSTORE POP PUSH2 0xD45 JUMP JUMPDEST SWAP1 PUSH2 0x2800 JUMPI PUSH1 0x40 MLOAD PUSH3 0x461BCD PUSH1 0xE5 SHL DUP2 MSTORE PUSH1 0x4 ADD PUSH2 0xAF2 SWAP2 SWAP1 PUSH2 0x7CF5 JUMP JUMPDEST POP POP POP SWAP3 SWAP2 POP POP JUMP JUMPDEST PUSH2 0x2811 PUSH2 0x7481 JUMP JUMPDEST PUSH0 DUP3 DUP2 MSTORE PUSH1 0x9 PUSH1 0x20 SWAP1 DUP2 MSTORE PUSH1 0x40 DUP1 DUP4 KECCAK256 SLOAD DUP4 MSTORE PUSH1 0x8 DUP3 MSTORE SWAP2 DUP3 SWAP1 KECCAK256 DUP3 MLOAD PUSH1 0x80 DUP2 ADD DUP5 MSTORE DUP2 SLOAD DUP2 MSTORE PUSH1 0x1 DUP3 ADD SLOAD SWAP3 DUP2 ADD SWAP3 SWAP1 SWAP3 MSTORE PUSH1 0x2 DUP2 ADD SLOAD PUSH1 0x1 PUSH1 0x1 PUSH1 0xA0 SHL SUB AND DUP3 DUP5 ADD MSTORE DUP3 MLOAD PUSH2 0x120 DUP2 ADD SWAP1 SWAP4 MSTORE PUSH1 0x3 DUP2 ADD DUP1 SLOAD SWAP3 SWAP4 SWAP2 SWAP3 PUSH1 0x60 DUP6 ADD SWAP3 SWAP2 SWAP1 DUP3 SWAP1 DUP3 SWAP1 PUSH2 0x287E SWAP1 PUSH2 0x8953 JUMP JUMPDEST DUP1 PUSH1 0x1F ADD PUSH1 0x20 DUP1 SWAP2 DIV MUL PUSH1 0x20 ADD PUSH1 0x40 MLOAD SWAP1 DUP2 ADD PUSH1 0x40 MSTORE DUP1 SWAP3 SWAP2 SWAP1 DUP2 DUP2 MSTORE PUSH1 0x20 ADD DUP3 DUP1 SLOAD PUSH2 0x28AA SWAP1 PUSH2 0x8953 JUMP JUMPDEST DUP1 ISZERO PUSH2 0x28F5 JUMPI DUP1 PUSH1 0x1F LT PUSH2 0x28CC JUMPI PUSH2 0x100 DUP1 DUP4 SLOAD DIV MUL DUP4 MSTORE SWAP2 PUSH1 0x20 ADD SWAP2 PUSH2 0x28F5 JUMP JUMPDEST DUP3 ADD SWAP2 SWAP1 PUSH0 MSTORE PUSH1 0x20 PUSH0 KECCAK256 SWAP1 JUMPDEST DUP2 SLOAD DUP2 MSTORE SWAP1 PUSH1 0x1 ADD SWAP1 PUSH1 0x20 ADD DUP1 DUP4 GT PUSH2 0x28D8 JUMPI DUP3 SWAP1 SUB PUSH1 0x1F AND DUP3 ADD SWAP2 JUMPDEST POP POP POP POP POP DUP2 MSTORE PUSH1 0x20 ADD PUSH1 0x1 DUP3 ADD DUP1 SLOAD PUSH2 0x290E SWAP1 PUSH2 0x8953 JUMP JUMPDEST DUP1 PUSH1 0x1F ADD PUSH1 0x20 DUP1 SWAP2 DIV MUL PUSH1 0x20 ADD PUSH1 0x40 MLOAD SWAP1 DUP2 ADD PUSH1 0x40 MSTORE DUP1 SWAP3 SWAP2 SWAP1 DUP2 DUP2 MSTORE PUSH1 0x20 ADD DUP3 DUP1 SLOAD PUSH2 0x293A SWAP1 PUSH2 0x8953 JUMP JUMPDEST DUP1 ISZERO PUSH2 0x2985 JUMPI DUP1 PUSH1 0x1F LT PUSH2 0x295C JUMPI PUSH2 0x100 DUP1 DUP4 SLOAD DIV MUL DUP4 MSTORE SWAP2 PUSH1 0x20 ADD SWAP2 PUSH2 0x2985 JUMP JUMPDEST DUP3 ADD SWAP2 SWAP1 PUSH0 MSTORE PUSH1 0x20 PUSH0 KECCAK256 SWAP1 JUMPDEST DUP2 SLOAD DUP2 MSTORE SWAP1 PUSH1 0x1 ADD SWAP1 PUSH1 0x20 ADD DUP1 DUP4 GT PUSH2 0x2968 JUMPI DUP3 SWAP1 SUB PUSH1 0x1F AND DUP3 ADD SWAP2 JUMPDEST POP POP POP POP POP DUP2 MSTORE PUSH1 0x20 ADD PUSH1 0x2 DUP3 ADD DUP1 SLOAD PUSH2 0x299E SWAP1 PUSH2 0x8953 JUMP JUMPDEST DUP1 PUSH1 0x1F ADD PUSH1 0x20 DUP1 SWAP2 DIV MUL PUSH1 0x20 ADD PUSH1 0x40 MLOAD SWAP1 DUP2 ADD PUSH1 0x40 MSTORE DUP1 SWAP3 SWAP2 SWAP1 DUP2 DUP2 MSTORE PUSH1 0x20 ADD DUP3 DUP1 SLOAD PUSH2 0x29CA SWAP1 PUSH2 0x8953 JUMP JUMPDEST DUP1 ISZERO PUSH2 0x2A15 JUMPI DUP1 PUSH1 0x1F LT PUSH2 0x29EC JUMPI PUSH2 0x100 DUP1 DUP4 SLOAD DIV MUL DUP4 MSTORE SWAP2 PUSH1 0x20 ADD SWAP2 PUSH2 0x2A15 JUMP JUMPDEST DUP3 ADD SWAP2 SWAP1 PUSH0 MSTORE PUSH1 0x20 PUSH0 KECCAK256 SWAP1 JUMPDEST DUP2 SLOAD DUP2 MSTORE SWAP1 PUSH1 0x1 ADD SWAP1 PUSH1 0x20 ADD DUP1 DUP4 GT PUSH2 0x29F8 JUMPI DUP3 SWAP1 SUB PUSH1 0x1F AND DUP3 ADD SWAP2 JUMPDEST POP POP POP POP POP DUP2 MSTORE PUSH1 0x20 ADD PUSH1 0x3 DUP3 ADD DUP1 SLOAD PUSH2 0x2A2E SWAP1 PUSH2 0x8953 JUMP JUMPDEST DUP1 PUSH1 0x1F ADD PUSH1 0x20 DUP1 SWAP2 DIV MUL PUSH1 0x20 ADD PUSH1 0x40 MLOAD SWAP1 DUP2 ADD PUSH1 0x40 MSTORE DUP1 SWAP3 SWAP2 SWAP1 DUP2 DUP2 MSTORE PUSH1 0x20 ADD DUP3 DUP1 SLOAD PUSH2 0x2A5A SWAP1 PUSH2 0x8953 JUMP JUMPDEST DUP1 ISZERO PUSH2 0x2AA5 JUMPI DUP1 PUSH1 0x1F LT PUSH2 0x2A7C JUMPI PUSH2 0x100 DUP1 DUP4 SLOAD DIV MUL DUP4 MSTORE SWAP2 PUSH1 0x20 ADD SWAP2 PUSH2 0x2AA5 JUMP JUMPDEST DUP3 ADD SWAP2 SWAP1 PUSH0 MSTORE PUSH1 0x20 PUSH0 KECCAK256 SWAP1 JUMPDEST DUP2 SLOAD DUP2 MSTORE SWAP1 PUSH1 0x1 ADD SWAP1 PUSH1 0x20 ADD DUP1 DUP4 GT PUSH2 0x2A88 JUMPI DUP3 SWAP1 SUB PUSH1 0x1F AND DUP3 ADD SWAP2 JUMPDEST POP POP POP POP POP DUP2 MSTORE PUSH1 0x20 ADD PUSH1 0x4 DUP3 ADD DUP1 SLOAD PUSH2 0x2ABE SWAP1 PUSH2 0x8953 JUMP JUMPDEST DUP1 PUSH1 0x1F ADD PUSH1 0x20 DUP1 SWAP2 DIV MUL PUSH1 0x20 ADD PUSH1 0x40 MLOAD SWAP1 DUP2 ADD PUSH1 0x40 MSTORE DUP1 SWAP3 SWAP2 SWAP1 DUP2 DUP2 MSTORE PUSH1 0x20 ADD DUP3 DUP1 SLOAD PUSH2 0x2AEA SWAP1 PUSH2 0x8953 JUMP JUMPDEST DUP1 ISZERO PUSH2 0x2B35 JUMPI DUP1 PUSH1 0x1F LT PUSH2 0x2B0C JUMPI PUSH2 0x100 DUP1 DUP4 SLOAD DIV MUL DUP4 MSTORE SWAP2 PUSH1 0x20 ADD SWAP2 PUSH2 0x2B35 JUMP JUMPDEST DUP3 ADD SWAP2 SWAP1 PUSH0 MSTORE PUSH1 0x20 PUSH0 KECCAK256 SWAP1 JUMPDEST DUP2 SLOAD DUP2 MSTORE SWAP1 PUSH1 0x1 ADD SWAP1 PUSH1 0x20 ADD DUP1 DUP4 GT PUSH2 0x2B18 JUMPI DUP3 SWAP1 SUB PUSH1 0x1F AND DUP3 ADD SWAP2 JUMPDEST POP POP POP POP POP DUP2 MSTORE PUSH1 0x20 ADD PUSH1 0x5 DUP3 ADD DUP1 SLOAD PUSH2 0x2B4E SWAP1 PUSH2 0x8953 JUMP JUMPDEST DUP1 PUSH1 0x1F ADD PUSH1 0x20 DUP1 SWAP2 DIV MUL PUSH1 0x20 ADD PUSH1 0x40 MLOAD SWAP1 DUP2 ADD PUSH1 0x40 MSTORE DUP1 SWAP3 SWAP2 SWAP1 DUP2 DUP2 MSTORE PUSH1 0x20 ADD DUP3 DUP1 SLOAD PUSH2 0x2B7A SWAP1 PUSH2 0x8953 JUMP JUMPDEST DUP1 ISZERO PUSH2 0x2BC5 JUMPI DUP1 PUSH1 0x1F LT PUSH2 0x2B9C JUMPI PUSH2 0x100 DUP1 DUP4 SLOAD DIV MUL DUP4 MSTORE SWAP2 PUSH1 0x20 ADD SWAP2 PUSH2 0x2BC5 JUMP JUMPDEST DUP3 ADD SWAP2 SWAP1 PUSH0 MSTORE PUSH1 0x20 PUSH0 KECCAK256 SWAP1 JUMPDEST DUP2 SLOAD DUP2 MSTORE SWAP1 PUSH1 0x1 ADD SWAP1 PUSH1 0x20 ADD DUP1 DUP4 GT PUSH2 0x2BA8 JUMPI DUP3 SWAP1 SUB PUSH1 0x1F AND DUP3 ADD SWAP2 JUMPDEST POP POP POP POP POP DUP2 MSTORE PUSH1 0x20 ADD PUSH1 0x6 DUP3 ADD DUP1 SLOAD PUSH2 0x2BDE SWAP1 PUSH2 0x8953 JUMP JUMPDEST DUP1 PUSH1 0x1F ADD PUSH1 0x20 DUP1 SWAP2 DIV MUL PUSH1 0x20 ADD PUSH1 0x40 MLOAD SWAP1 DUP2 ADD PUSH1 0x40 MSTORE DUP1 SWAP3 SWAP2 SWAP1 DUP2 DUP2 MSTORE PUSH1 0x20 ADD DUP3 DUP1 SLOAD PUSH2 0x2C0A SWAP1 PUSH2 0x8953 JUMP JUMPDEST DUP1 ISZERO PUSH2 0x2C55 JUMPI DUP1 PUSH1 0x1F LT PUSH2 0x2C2C JUMPI PUSH2 0x100 DUP1 DUP4 SLOAD DIV MUL DUP4 MSTORE SWAP2 PUSH1 0x20 ADD SWAP2 PUSH2 0x2C55 JUMP JUMPDEST DUP3 ADD SWAP2 SWAP1 PUSH0 MSTORE PUSH1 0x20 PUSH0 KECCAK256 SWAP1 JUMPDEST DUP2 SLOAD DUP2 MSTORE SWAP1 PUSH1 0x1 ADD SWAP1 PUSH1 0x20 ADD DUP1 DUP4 GT PUSH2 0x2C38 JUMPI DUP3 SWAP1 SUB PUSH1 0x1F AND DUP3 ADD SWAP2 JUMPDEST POP POP POP POP POP DUP2 MSTORE PUSH1 0x20 ADD PUSH1 0x7 DUP3 ADD DUP1 SLOAD PUSH2 0x2C6E SWAP1 PUSH2 0x8953 JUMP JUMPDEST DUP1 PUSH1 0x1F ADD PUSH1 0x20 DUP1 SWAP2 DIV MUL PUSH1 0x20 ADD PUSH1 0x40 MLOAD SWAP1 DUP2 ADD PUSH1 0x40 MSTORE DUP1 SWAP3 SWAP2 SWAP1 DUP2 DUP2 MSTORE PUSH1 0x20 ADD DUP3 DUP1 SLOAD PUSH2 0x2C9A SWAP1 PUSH2 0x8953 JUMP JUMPDEST DUP1 ISZERO PUSH2 0x2CE5 JUMPI DUP1 PUSH1 0x1F LT PUSH2 0x2CBC JUMPI PUSH2 0x100 DUP1 DUP4 SLOAD DIV MUL DUP4 MSTORE SWAP2 PUSH1 0x20 ADD SWAP2 PUSH2 0x2CE5 JUMP JUMPDEST DUP3 ADD SWAP2 SWAP1 PUSH0 MSTORE PUSH1 0x20 PUSH0 KECCAK256 SWAP1 JUMPDEST DUP2 SLOAD DUP2 MSTORE SWAP1 PUSH1 0x1 ADD SWAP1 PUSH1 0x20 ADD DUP1 DUP4 GT PUSH2 0x2CC8 JUMPI DUP3 SWAP1 SUB PUSH1 0x1F AND DUP3 ADD SWAP2 JUMPDEST POP POP POP POP POP DUP2 MSTORE PUSH1 0x20 ADD PUSH1 0x8 DUP3 ADD DUP1 SLOAD PUSH2 0x2CFE SWAP1 PUSH2 0x8953 JUMP JUMPDEST DUP1 PUSH1 0x1F ADD PUSH1 0x20 DUP1 SWAP2 DIV MUL PUSH1 0x20 ADD PUSH1 0x40 MLOAD SWAP1 DUP2 ADD PUSH1 0x40 MSTORE DUP1 SWAP3 SWAP2 SWAP1 DUP2 DUP2 MSTORE PUSH1 0x20 ADD DUP3 DUP1 SLOAD PUSH2 0x2D2A SWAP1 PUSH2 0x8953 JUMP JUMPDEST DUP1 ISZERO PUSH2 0x2D75 JUMPI DUP1 PUSH1 0x1F LT PUSH2 0x2D4C JUMPI PUSH2 0x100 DUP1 DUP4 SLOAD DIV MUL DUP4 MSTORE SWAP2 PUSH1 0x20 ADD SWAP2 PUSH2 0x2D75 JUMP JUMPDEST DUP3 ADD SWAP2 SWAP1 PUSH0 MSTORE PUSH1 0x20 PUSH0 KECCAK256 SWAP1 JUMPDEST DUP2 SLOAD DUP2 MSTORE SWAP1 PUSH1 0x1 ADD SWAP1 PUSH1 0x20 ADD DUP1 DUP4 GT PUSH2 0x2D58 JUMPI DUP3 SWAP1 SUB PUSH1 0x1F AND DUP3 ADD SWAP2 JUMPDEST POP POP POP SWAP2 SWAP1 SWAP3 MSTORE POP POP POP SWAP1 MSTORE POP SWAP3 SWAP2 POP POP JUMP JUMPDEST PUSH0 DUP1 JUMPDEST DUP3 MLOAD DUP2 LT ISZERO PUSH2 0x2DBF JUMPI PUSH2 0x2DB7 CALLER DUP5 DUP4 DUP2 MLOAD DUP2 LT PUSH2 0x2DAA JUMPI PUSH2 0x2DAA PUSH2 0x8BD8 JUMP JUMPDEST PUSH1 0x20 MUL PUSH1 0x20 ADD ADD MLOAD PUSH2 0x6338 JUMP JUMPDEST PUSH1 0x1 ADD PUSH2 0x2D8B JUMP JUMPDEST POP PUSH1 0x1 SWAP3 SWAP2 POP POP JUMP JUMPDEST PUSH1 0x16 SLOAD PUSH0 SWAP1 PUSH1 0x1 PUSH1 0x1 PUSH1 0xA0 SHL SUB AND CALLER DUP2 EQ PUSH2 0x2DF5 JUMPI PUSH1 0x40 MLOAD PUSH3 0x461BCD PUSH1 0xE5 SHL DUP2 MSTORE PUSH1 0x4 ADD PUSH2 0xAF2 SWAP1 PUSH2 0x91A5 JUMP JUMPDEST PUSH1 0x13 DUP1 SLOAD PUSH1 0x1 PUSH1 0x1 PUSH1 0xA0 SHL SUB DUP6 AND PUSH1 0x1 PUSH1 0x1 PUSH1 0xA0 SHL SUB NOT SWAP1 SWAP2 AND OR SWAP1 SSTORE PUSH1 0x1 SWAP2 POP POP SWAP2 SWAP1 POP JUMP JUMPDEST PUSH1 0x60 PUSH0 DUP3 MLOAD PUSH1 0x1 PUSH1 0x1 PUSH1 0x40 SHL SUB DUP2 GT ISZERO PUSH2 0x2E38 JUMPI PUSH2 0x2E38 PUSH2 0x7627 JUMP JUMPDEST PUSH1 0x40 MLOAD SWAP1 DUP1 DUP3 MSTORE DUP1 PUSH1 0x20 MUL PUSH1 0x20 ADD DUP3 ADD PUSH1 0x40 MSTORE DUP1 ISZERO PUSH2 0x2E71 JUMPI DUP2 PUSH1 0x20 ADD JUMPDEST PUSH2 0x2E5E PUSH2 0x741E JUMP JUMPDEST DUP2 MSTORE PUSH1 0x20 ADD SWAP1 PUSH1 0x1 SWAP1 SUB SWAP1 DUP2 PUSH2 0x2E56 JUMPI SWAP1 POP JUMPDEST POP SWAP1 POP PUSH0 JUMPDEST DUP4 MLOAD DUP2 LT ISZERO PUSH2 0x2F05 JUMPI PUSH2 0x2EE0 DUP5 DUP3 DUP2 MLOAD DUP2 LT PUSH2 0x2E94 JUMPI PUSH2 0x2E94 PUSH2 0x8BD8 JUMP JUMPDEST PUSH1 0x20 MUL PUSH1 0x20 ADD ADD MLOAD PUSH0 ADD MLOAD DUP6 DUP4 DUP2 MLOAD DUP2 LT PUSH2 0x2EB1 JUMPI PUSH2 0x2EB1 PUSH2 0x8BD8 JUMP JUMPDEST PUSH1 0x20 MUL PUSH1 0x20 ADD ADD MLOAD PUSH1 0x20 ADD MLOAD DUP7 DUP5 DUP2 MLOAD DUP2 LT PUSH2 0x2ECF JUMPI PUSH2 0x2ECF PUSH2 0x8BD8 JUMP JUMPDEST PUSH1 0x20 MUL PUSH1 0x20 ADD ADD MLOAD PUSH1 0x40 ADD MLOAD PUSH2 0x1179 JUMP JUMPDEST DUP3 DUP3 DUP2 MLOAD DUP2 LT PUSH2 0x2EF2 JUMPI PUSH2 0x2EF2 PUSH2 0x8BD8 JUMP JUMPDEST PUSH1 0x20 SWAP1 DUP2 MUL SWAP2 SWAP1 SWAP2 ADD ADD MSTORE PUSH1 0x1 ADD PUSH2 0x2E76 JUMP JUMPDEST POP SWAP3 SWAP2 POP POP JUMP JUMPDEST PUSH1 0x16 SLOAD PUSH0 SWAP1 PUSH1 0x1 PUSH1 0x1 PUSH1 0xA0 SHL SUB AND CALLER DUP2 EQ PUSH2 0x2F39 JUMPI PUSH1 0x40 MLOAD PUSH3 0x461BCD PUSH1 0xE5 SHL DUP2 MSTORE PUSH1 0x4 ADD PUSH2 0xAF2 SWAP1 PUSH2 0x91A5 JUMP JUMPDEST PUSH1 0x17 DUP1 SLOAD PUSH1 0x1 PUSH1 0x1 PUSH1 0xA0 SHL SUB DUP6 AND PUSH1 0x1 PUSH1 0x1 PUSH1 0xA0 SHL SUB NOT SWAP1 SWAP2 AND OR SWAP1 SSTORE PUSH1 0x1 SWAP2 POP POP SWAP2 SWAP1 POP JUMP JUMPDEST PUSH0 DUP1 JUMPDEST DUP3 MLOAD DUP2 LT ISZERO PUSH2 0x2DBF JUMPI PUSH2 0x2F8E DUP4 DUP3 DUP2 MLOAD DUP2 LT PUSH2 0x2F81 JUMPI PUSH2 0x2F81 PUSH2 0x8BD8 JUMP JUMPDEST PUSH1 0x20 MUL PUSH1 0x20 ADD ADD MLOAD PUSH2 0x34B1 JUMP JUMPDEST POP PUSH1 0x1 ADD PUSH2 0x2F63 JUMP JUMPDEST PUSH1 0x16 SLOAD PUSH0 SWAP1 PUSH1 0x1 PUSH1 0x1 PUSH1 0xA0 SHL SUB AND CALLER DUP2 EQ PUSH2 0x2FC4 JUMPI PUSH1 0x40 MLOAD PUSH3 0x461BCD PUSH1 0xE5 SHL DUP2 MSTORE PUSH1 0x4 ADD PUSH2 0xAF2 SWAP1 PUSH2 0x91A5 JUMP JUMPDEST PUSH1 0x18 DUP1 SLOAD PUSH1 0x1 PUSH1 0x1 PUSH1 0xA0 SHL SUB DUP6 AND PUSH1 0x1 PUSH1 0x1 PUSH1 0xA0 SHL SUB NOT SWAP1 SWAP2 AND OR SWAP1 SSTORE PUSH1 0x1 SWAP2 POP POP SWAP2 SWAP1 POP JUMP JUMPDEST PUSH0 DUP1 DUP4 MLOAD GT PUSH2 0x3030 PUSH1 0x2D PUSH1 0x40 MLOAD DUP1 PUSH1 0x40 ADD PUSH1 0x40 MSTORE DUP1 PUSH1 0x20 DUP2 MSTORE PUSH1 0x20 ADD PUSH32 0x5368617265206C696E6B20706172616D73206D757374206E6F7420656D707479 DUP2 MSTORE POP PUSH2 0xD45 JUMP JUMPDEST SWAP1 PUSH2 0x304E JUMPI PUSH1 0x40 MLOAD PUSH3 0x461BCD PUSH1 0xE5 SHL DUP2 MSTORE PUSH1 0x4 ADD PUSH2 0xAF2 SWAP2 SWAP1 PUSH2 0x7CF5 JUMP JUMPDEST POP PUSH2 0x3058 DUP4 PUSH2 0x5E79 JUMP JUMPDEST POP PUSH1 0xB DUP1 SLOAD SWAP1 PUSH0 PUSH2 0x3068 DUP4 PUSH2 0x893B JUMP JUMPDEST SWAP2 SWAP1 POP SSTORE POP PUSH0 JUMPDEST DUP4 MLOAD DUP2 LT ISZERO PUSH2 0x313F JUMPI PUSH1 0x6 PUSH0 PUSH1 0xB SLOAD DUP2 MSTORE PUSH1 0x20 ADD SWAP1 DUP2 MSTORE PUSH1 0x20 ADD PUSH0 KECCAK256 PUSH1 0x1 ADD DUP5 DUP3 DUP2 MLOAD DUP2 LT PUSH2 0x30A0 JUMPI PUSH2 0x30A0 PUSH2 0x8BD8 JUMP JUMPDEST PUSH1 0x20 SWAP1 DUP2 MUL SWAP2 SWAP1 SWAP2 ADD DUP2 ADD MLOAD DUP3 SLOAD PUSH1 0x1 DUP2 ADD DUP5 SSTORE PUSH0 SWAP4 DUP5 MSTORE SWAP3 DUP3 SWAP1 KECCAK256 DUP2 MLOAD DUP1 MLOAD SWAP3 SWAP5 PUSH1 0x5 MUL SWAP1 SWAP2 ADD SWAP3 PUSH2 0x30D8 SWAP3 DUP5 SWAP3 SWAP1 SWAP2 ADD SWAP1 PUSH2 0x730D JUMP JUMPDEST POP PUSH1 0x20 DUP3 DUP2 ADD MLOAD DUP1 MLOAD PUSH2 0x30F1 SWAP3 PUSH1 0x1 DUP6 ADD SWAP3 ADD SWAP1 PUSH2 0x730D JUMP JUMPDEST POP PUSH1 0x40 DUP3 ADD MLOAD DUP1 MLOAD PUSH2 0x310D SWAP2 PUSH1 0x2 DUP5 ADD SWAP2 PUSH1 0x20 SWAP1 SWAP2 ADD SWAP1 PUSH2 0x730D JUMP JUMPDEST POP PUSH1 0x60 DUP3 ADD MLOAD DUP1 MLOAD PUSH2 0x3129 SWAP2 PUSH1 0x3 DUP5 ADD SWAP2 PUSH1 0x20 SWAP1 SWAP2 ADD SWAP1 PUSH2 0x730D JUMP JUMPDEST POP PUSH1 0x80 SWAP2 SWAP1 SWAP2 ADD MLOAD PUSH1 0x4 SWAP1 SWAP2 ADD SSTORE PUSH1 0x1 ADD PUSH2 0x306F JUMP JUMPDEST POP POP PUSH1 0xB DUP1 SLOAD PUSH0 DUP2 DUP2 MSTORE PUSH1 0x6 PUSH1 0x20 SWAP1 DUP2 MSTORE PUSH1 0x40 DUP1 DUP4 KECCAK256 SWAP4 DUP5 SSTORE PUSH1 0x3 SWAP1 SWAP4 ADD DUP6 SWAP1 SSTORE DUP4 SLOAD DUP3 MSTORE DUP3 DUP3 KECCAK256 PUSH1 0x2 ADD DUP1 SLOAD PUSH1 0x1 PUSH1 0x1 PUSH1 0xA0 SHL SUB NOT AND CALLER SWAP1 DUP2 OR SWAP1 SWAP2 SSTORE DUP3 MSTORE PUSH1 0x5 DUP2 MSTORE SWAP2 DUP2 KECCAK256 DUP4 SLOAD DUP2 SLOAD PUSH1 0x1 DUP2 ADD DUP4 SSTORE SWAP2 DUP4 MSTORE SWAP3 SWAP1 SWAP2 KECCAK256 ADD SSTORE SLOAD SWAP3 SWAP2 POP POP JUMP JUMPDEST PUSH2 0x31A8 PUSH2 0x737A JUMP JUMPDEST PUSH0 DUP3 DUP2 MSTORE PUSH1 0x4 PUSH1 0x20 DUP2 DUP2 MSTORE PUSH1 0x40 DUP1 DUP5 KECCAK256 SLOAD DUP1 DUP6 MSTORE PUSH1 0x1 DUP1 DUP5 MSTORE SWAP5 DUP3 SWAP1 KECCAK256 DUP3 MLOAD PUSH2 0x260 DUP2 ADD DUP5 MSTORE DUP2 SLOAD DUP2 MSTORE SWAP6 DUP2 ADD SLOAD PUSH1 0x1 PUSH1 0x1 PUSH1 0xA0 SHL SUB SWAP1 DUP2 AND DUP8 DUP7 ADD MSTORE PUSH1 0x2 DUP3 ADD SLOAD AND DUP7 DUP5 ADD MSTORE PUSH1 0x3 DUP2 ADD SLOAD PUSH1 0x60 DUP8 ADD MSTORE SWAP4 DUP5 ADD DUP1 SLOAD DUP4 MLOAD DUP2 DUP7 MUL DUP2 ADD DUP7 ADD SWAP1 SWAP5 MSTORE DUP1 DUP5 MSTORE SWAP2 SWAP6 SWAP5 SWAP4 PUSH1 0x80 DUP7 ADD SWAP4 SWAP3 SWAP1 DUP4 ADD DUP3 DUP3 DUP1 ISZERO PUSH2 0x3245 JUMPI PUSH1 0x20 MUL DUP3 ADD SWAP2 SWAP1 PUSH0 MSTORE PUSH1 0x20 PUSH0 KECCAK256 SWAP1 JUMPDEST DUP2 SLOAD DUP2 MSTORE PUSH1 0x20 ADD SWAP1 PUSH1 0x1 ADD SWAP1 DUP1 DUP4 GT PUSH2 0x3231 JUMPI JUMPDEST POP POP POP POP POP DUP2 MSTORE PUSH1 0x20 ADD PUSH1 0x5 DUP3 ADD DUP1 SLOAD DUP1 PUSH1 0x20 MUL PUSH1 0x20 ADD PUSH1 0x40 MLOAD SWAP1 DUP2 ADD PUSH1 0x40 MSTORE DUP1 SWAP3 SWAP2 SWAP1 DUP2 DUP2 MSTORE PUSH1 0x20 ADD DUP3 DUP1 SLOAD DUP1 ISZERO PUSH2 0x329B JUMPI PUSH1 0x20 MUL DUP3 ADD SWAP2 SWAP1 PUSH0 MSTORE PUSH1 0x20 PUSH0 KECCAK256 SWAP1 JUMPDEST DUP2 SLOAD DUP2 MSTORE PUSH1 0x20 ADD SWAP1 PUSH1 0x1 ADD SWAP1 DUP1 DUP4 GT PUSH2 0x3287 JUMPI JUMPDEST POP POP POP POP POP DUP2 MSTORE PUSH1 0x20 ADD PUSH1 0x6 DUP3 ADD DUP1 SLOAD DUP1 PUSH1 0x20 MUL PUSH1 0x20 ADD PUSH1 0x40 MLOAD SWAP1 DUP2 ADD PUSH1 0x40 MSTORE DUP1 SWAP3 SWAP2 SWAP1 DUP2 DUP2 MSTORE PUSH1 0x20 ADD DUP3 DUP1 SLOAD DUP1 ISZERO PUSH2 0x32F1 JUMPI PUSH1 0x20 MUL DUP3 ADD SWAP2 SWAP1 PUSH0 MSTORE PUSH1 0x20 PUSH0 KECCAK256 SWAP1 JUMPDEST DUP2 SLOAD DUP2 MSTORE PUSH1 0x20 ADD SWAP1 PUSH1 0x1 ADD SWAP1 DUP1 DUP4 GT PUSH2 0x32DD JUMPI JUMPDEST POP POP POP POP POP DUP2 MSTORE PUSH1 0x20 ADD PUSH1 0x7 DUP3 ADD DUP1 SLOAD DUP1 PUSH1 0x20 MUL PUSH1 0x20 ADD PUSH1 0x40 MLOAD SWAP1 DUP2 ADD PUSH1 0x40 MSTORE DUP1 SWAP3 SWAP2 SWAP1 DUP2 DUP2 MSTORE PUSH1 0x20 ADD DUP3 DUP1 SLOAD DUP1 ISZERO PUSH2 0x3347 JUMPI PUSH1 0x20 MUL DUP3 ADD SWAP2 SWAP1 PUSH0 MSTORE PUSH1 0x20 PUSH0 KECCAK256 SWAP1 JUMPDEST DUP2 SLOAD DUP2 MSTORE PUSH1 0x20 ADD SWAP1 PUSH1 0x1 ADD SWAP1 DUP1 DUP4 GT PUSH2 0x3333 JUMPI JUMPDEST POP POP POP POP POP DUP2 MSTORE PUSH1 0x20 ADD PUSH1 0x8 DUP3 ADD DUP1 SLOAD DUP1 PUSH1 0x20 MUL PUSH1 0x20 ADD PUSH1 0x40 MLOAD SWAP1 DUP2 ADD PUSH1 0x40 MSTORE DUP1 SWAP3 SWAP2 SWAP1 DUP2 DUP2 MSTORE PUSH1 0x20 ADD DUP3 DUP1 SLOAD DUP1 ISZERO PUSH2 0x339D JUMPI PUSH1 0x20 MUL DUP3 ADD SWAP2 SWAP1 PUSH0 MSTORE PUSH1 0x20 PUSH0 KECCAK256 SWAP1 JUMPDEST DUP2 SLOAD DUP2 MSTORE PUSH1 0x20 ADD SWAP1 PUSH1 0x1 ADD SWAP1 DUP1 DUP4 GT PUSH2 0x3389 JUMPI JUMPDEST POP POP POP POP POP DUP2 MSTORE PUSH1 0x20 ADD PUSH1 0x9 DUP3 ADD DUP1 SLOAD DUP1 PUSH1 0x20 MUL PUSH1 0x20 ADD PUSH1 0x40 MLOAD SWAP1 DUP2 ADD PUSH1 0x40 MSTORE DUP1 SWAP3 SWAP2 SWAP1 DUP2 DUP2 MSTORE PUSH1 0x20 ADD DUP3 DUP1 SLOAD DUP1 ISZERO PUSH2 0x33F3 JUMPI PUSH1 0x20 MUL DUP3 ADD SWAP2 SWAP1 PUSH0 MSTORE PUSH1 0x20 PUSH0 KECCAK256 SWAP1 JUMPDEST DUP2 SLOAD DUP2 MSTORE PUSH1 0x20 ADD SWAP1 PUSH1 0x1 ADD SWAP1 DUP1 DUP4 GT PUSH2 0x33DF JUMPI JUMPDEST POP POP POP POP POP DUP2 MSTORE PUSH1 0x20 ADD PUSH1 0xA DUP3 ADD DUP1 SLOAD DUP1 PUSH1 0x20 MUL PUSH1 0x20 ADD PUSH1 0x40 MLOAD SWAP1 DUP2 ADD PUSH1 0x40 MSTORE DUP1 SWAP3 SWAP2 SWAP1 DUP2 DUP2 MSTORE PUSH1 0x20 ADD DUP3 DUP1 SLOAD DUP1 ISZERO PUSH2 0x3449 JUMPI PUSH1 0x20 MUL DUP3 ADD SWAP2 SWAP1 PUSH0 MSTORE PUSH1 0x20 PUSH0 KECCAK256 SWAP1 JUMPDEST DUP2 SLOAD DUP2 MSTORE PUSH1 0x20 ADD SWAP1 PUSH1 0x1 ADD SWAP1 DUP1 DUP4 GT PUSH2 0x3435 JUMPI JUMPDEST POP POP POP SWAP2 DUP4 MSTORE POP POP PUSH1 0xB DUP3 ADD SLOAD PUSH1 0x20 DUP3 ADD MSTORE PUSH1 0xC DUP3 ADD SLOAD PUSH1 0xFF DUP1 DUP3 AND PUSH1 0x40 DUP5 ADD MSTORE PUSH2 0x100 SWAP2 DUP3 SWAP1 DIV DUP2 AND PUSH1 0x60 DUP5 ADD MSTORE PUSH1 0xD DUP5 ADD SLOAD PUSH1 0x80 DUP5 ADD MSTORE PUSH1 0xE DUP5 ADD SLOAD PUSH1 0xA0 DUP5 ADD MSTORE PUSH1 0xF DUP5 ADD SLOAD PUSH1 0xC0 DUP5 ADD MSTORE PUSH1 0x10 DUP5 ADD SLOAD AND PUSH1 0xE0 DUP4 ADD MSTORE PUSH1 0x11 SWAP1 SWAP3 ADD SLOAD SWAP2 ADD MSTORE SWAP4 SWAP3 POP POP POP JUMP JUMPDEST PUSH0 DUP2 DUP2 MSTORE PUSH1 0x6 PUSH1 0x20 MSTORE PUSH1 0x40 DUP2 KECCAK256 PUSH1 0x2 DUP2 ADD SLOAD PUSH1 0x1 PUSH1 0x1 PUSH1 0xA0 SHL SUB AND CALLER EQ PUSH2 0x34EA JUMPI PUSH1 0x40 MLOAD PUSH3 0x461BCD PUSH1 0xE5 SHL DUP2 MSTORE PUSH1 0x4 ADD PUSH2 0xAF2 SWAP1 PUSH2 0x8B6D JUMP JUMPDEST DUP1 SLOAD PUSH2 0x3548 JUMPI PUSH1 0x40 MLOAD PUSH3 0x461BCD PUSH1 0xE5 SHL DUP2 MSTORE PUSH1 0x20 PUSH1 0x4 DUP3 ADD MSTORE PUSH1 0x47 PUSH1 0x24 DUP3 ADD MSTORE PUSH0 DUP1 MLOAD PUSH1 0x20 PUSH2 0x9520 DUP4 CODECOPY DUP2 MLOAD SWAP2 MSTORE PUSH1 0x44 DUP3 ADD MSTORE PUSH0 DUP1 MLOAD PUSH1 0x20 PUSH2 0x94D4 DUP4 CODECOPY DUP2 MLOAD SWAP2 MSTORE PUSH1 0x64 DUP3 ADD MSTORE PUSH7 0x656C696E6B227D PUSH1 0xC8 SHL PUSH1 0x84 DUP3 ADD MSTORE PUSH1 0xA4 ADD PUSH2 0xAF2 JUMP JUMPDEST PUSH1 0x2 DUP2 ADD SLOAD PUSH1 0x1 PUSH1 0xA0 SHL SWAP1 DIV PUSH1 0xFF AND PUSH2 0x3566 JUMPI PUSH2 0x3564 DUP2 PUSH2 0x5D0D JUMP JUMPDEST POP JUMPDEST PUSH0 JUMPDEST CALLER PUSH0 SWAP1 DUP2 MSTORE PUSH1 0x5 PUSH1 0x20 MSTORE PUSH1 0x40 SWAP1 KECCAK256 SLOAD DUP2 LT ISZERO PUSH2 0x3652 JUMPI CALLER PUSH0 SWAP1 DUP2 MSTORE PUSH1 0x5 PUSH1 0x20 MSTORE PUSH1 0x40 SWAP1 KECCAK256 DUP1 SLOAD DUP6 SWAP2 SWAP1 DUP4 SWAP1 DUP2 LT PUSH2 0x35A1 JUMPI PUSH2 0x35A1 PUSH2 0x8BD8 JUMP JUMPDEST SWAP1 PUSH0 MSTORE PUSH1 0x20 PUSH0 KECCAK256 ADD SLOAD SUB PUSH2 0x364A JUMPI CALLER PUSH0 SWAP1 DUP2 MSTORE PUSH1 0x5 PUSH1 0x20 MSTORE PUSH1 0x40 SWAP1 KECCAK256 DUP1 SLOAD PUSH2 0x35CB SWAP1 PUSH1 0x1 SWAP1 PUSH2 0x921C JUMP JUMPDEST DUP2 SLOAD DUP2 LT PUSH2 0x35DB JUMPI PUSH2 0x35DB PUSH2 0x8BD8 JUMP JUMPDEST PUSH0 SWAP2 DUP3 MSTORE PUSH1 0x20 DUP1 DUP4 KECCAK256 SWAP1 SWAP2 ADD SLOAD CALLER DUP4 MSTORE PUSH1 0x5 SWAP1 SWAP2 MSTORE PUSH1 0x40 SWAP1 SWAP2 KECCAK256 DUP1 SLOAD DUP4 SWAP1 DUP2 LT PUSH2 0x3607 JUMPI PUSH2 0x3607 PUSH2 0x8BD8 JUMP JUMPDEST PUSH0 SWAP2 DUP3 MSTORE PUSH1 0x20 DUP1 DUP4 KECCAK256 SWAP1 SWAP2 ADD SWAP3 SWAP1 SWAP3 SSTORE CALLER DUP2 MSTORE PUSH1 0x5 SWAP1 SWAP2 MSTORE PUSH1 0x40 SWAP1 KECCAK256 DUP1 SLOAD DUP1 PUSH2 0x3632 JUMPI PUSH2 0x3632 PUSH2 0x922F JUMP JUMPDEST PUSH1 0x1 SWAP1 SUB DUP2 DUP2 SWAP1 PUSH0 MSTORE PUSH1 0x20 PUSH0 KECCAK256 ADD PUSH0 SWAP1 SSTORE SWAP1 SSTORE PUSH2 0x3652 JUMP JUMPDEST PUSH1 0x1 ADD PUSH2 0x3568 JUMP JUMPDEST POP PUSH0 DUP4 DUP2 MSTORE PUSH1 0x6 PUSH1 0x20 MSTORE PUSH1 0x40 DUP2 KECCAK256 DUP2 DUP2 SSTORE SWAP1 PUSH2 0x3671 PUSH1 0x1 DUP4 ADD DUP3 PUSH2 0x72EF JUMP JUMPDEST POP PUSH1 0x2 DUP2 ADD DUP1 SLOAD PUSH1 0x1 PUSH1 0x1 PUSH1 0xA8 SHL SUB NOT AND SWAP1 SSTORE PUSH0 PUSH1 0x3 SWAP1 SWAP2 ADD SSTORE POP PUSH1 0x1 SWAP3 SWAP2 POP POP JUMP JUMPDEST PUSH1 0x16 SLOAD PUSH0 SWAP1 PUSH1 0x1 PUSH1 0x1 PUSH1 0xA0 SHL SUB AND CALLER DUP2 EQ PUSH2 0x36C1 JUMPI PUSH1 0x40 MLOAD PUSH3 0x461BCD PUSH1 0xE5 SHL DUP2 MSTORE PUSH1 0x4 ADD PUSH2 0xAF2 SWAP1 PUSH2 0x91A5 JUMP JUMPDEST PUSH1 0x12 DUP1 SLOAD PUSH1 0x1 PUSH1 0x1 PUSH1 0xA0 SHL SUB DUP6 AND PUSH1 0x1 PUSH1 0x1 PUSH1 0xA0 SHL SUB NOT SWAP1 SWAP2 AND OR SWAP1 SSTORE PUSH1 0x1 SWAP2 POP POP SWAP2 SWAP1 POP JUMP JUMPDEST PUSH1 0x7 PUSH1 0x20 MSTORE DUP1 PUSH0 MSTORE PUSH1 0x40 PUSH0 KECCAK256 PUSH0 SWAP2 POP SWAP1 POP DUP1 PUSH1 0x1 ADD PUSH1 0x40 MLOAD DUP1 PUSH2 0x120 ADD PUSH1 0x40 MSTORE SWAP1 DUP2 PUSH0 DUP3 ADD DUP1 SLOAD PUSH2 0x3718 SWAP1 PUSH2 0x8953 JUMP JUMPDEST DUP1 PUSH1 0x1F ADD PUSH1 0x20 DUP1 SWAP2 DIV MUL PUSH1 0x20 ADD PUSH1 0x40 MLOAD SWAP1 DUP2 ADD PUSH1 0x40 MSTORE DUP1 SWAP3 SWAP2 SWAP1 DUP2 DUP2 MSTORE PUSH1 0x20 ADD DUP3 DUP1 SLOAD PUSH2 0x3744 SWAP1 PUSH2 0x8953 JUMP JUMPDEST DUP1 ISZERO PUSH2 0x378F JUMPI DUP1 PUSH1 0x1F LT PUSH2 0x3766 JUMPI PUSH2 0x100 DUP1 DUP4 SLOAD DIV MUL DUP4 MSTORE SWAP2 PUSH1 0x20 ADD SWAP2 PUSH2 0x378F JUMP JUMPDEST DUP3 ADD SWAP2 SWAP1 PUSH0 MSTORE PUSH1 0x20 PUSH0 KECCAK256 SWAP1 JUMPDEST DUP2 SLOAD DUP2 MSTORE SWAP1 PUSH1 0x1 ADD SWAP1 PUSH1 0x20 ADD DUP1 DUP4 GT PUSH2 0x3772 JUMPI DUP3 SWAP1 SUB PUSH1 0x1F AND DUP3 ADD SWAP2 JUMPDEST POP POP POP POP POP DUP2 MSTORE PUSH1 0x20 ADD PUSH1 0x1 DUP3 ADD DUP1 SLOAD PUSH2 0x37A8 SWAP1 PUSH2 0x8953 JUMP JUMPDEST DUP1 PUSH1 0x1F ADD PUSH1 0x20 DUP1 SWAP2 DIV MUL PUSH1 0x20 ADD PUSH1 0x40 MLOAD SWAP1 DUP2 ADD PUSH1 0x40 MSTORE DUP1 SWAP3 SWAP2 SWAP1 DUP2 DUP2 MSTORE PUSH1 0x20 ADD DUP3 DUP1 SLOAD PUSH2 0x37D4 SWAP1 PUSH2 0x8953 JUMP JUMPDEST DUP1 ISZERO PUSH2 0x381F JUMPI DUP1 PUSH1 0x1F LT PUSH2 0x37F6 JUMPI PUSH2 0x100 DUP1 DUP4 SLOAD DIV MUL DUP4 MSTORE SWAP2 PUSH1 0x20 ADD SWAP2 PUSH2 0x381F JUMP JUMPDEST DUP3 ADD SWAP2 SWAP1 PUSH0 MSTORE PUSH1 0x20 PUSH0 KECCAK256 SWAP1 JUMPDEST DUP2 SLOAD DUP2 MSTORE SWAP1 PUSH1 0x1 ADD SWAP1 PUSH1 0x20 ADD DUP1 DUP4 GT PUSH2 0x3802 JUMPI DUP3 SWAP1 SUB PUSH1 0x1F AND DUP3 ADD SWAP2 JUMPDEST POP POP POP POP POP DUP2 MSTORE PUSH1 0x20 ADD PUSH1 0x2 DUP3 ADD DUP1 SLOAD PUSH2 0x3838 SWAP1 PUSH2 0x8953 JUMP JUMPDEST DUP1 PUSH1 0x1F ADD PUSH1 0x20 DUP1 SWAP2 DIV MUL PUSH1 0x20 ADD PUSH1 0x40 MLOAD SWAP1 DUP2 ADD PUSH1 0x40 MSTORE DUP1 SWAP3 SWAP2 SWAP1 DUP2 DUP2 MSTORE PUSH1 0x20 ADD DUP3 DUP1 SLOAD PUSH2 0x3864 SWAP1 PUSH2 0x8953 JUMP JUMPDEST DUP1 ISZERO PUSH2 0x38AF JUMPI DUP1 PUSH1 0x1F LT PUSH2 0x3886 JUMPI PUSH2 0x100 DUP1 DUP4 SLOAD DIV MUL DUP4 MSTORE SWAP2 PUSH1 0x20 ADD SWAP2 PUSH2 0x38AF JUMP JUMPDEST DUP3 ADD SWAP2 SWAP1 PUSH0 MSTORE PUSH1 0x20 PUSH0 KECCAK256 SWAP1 JUMPDEST DUP2 SLOAD DUP2 MSTORE SWAP1 PUSH1 0x1 ADD SWAP1 PUSH1 0x20 ADD DUP1 DUP4 GT PUSH2 0x3892 JUMPI DUP3 SWAP1 SUB PUSH1 0x1F AND DUP3 ADD SWAP2 JUMPDEST POP POP POP POP POP DUP2 MSTORE PUSH1 0x20 ADD PUSH1 0x3 DUP3 ADD DUP1 SLOAD PUSH2 0x38C8 SWAP1 PUSH2 0x8953 JUMP JUMPDEST DUP1 PUSH1 0x1F ADD PUSH1 0x20 DUP1 SWAP2 DIV MUL PUSH1 0x20 ADD PUSH1 0x40 MLOAD SWAP1 DUP2 ADD PUSH1 0x40 MSTORE DUP1 SWAP3 SWAP2 SWAP1 DUP2 DUP2 MSTORE PUSH1 0x20 ADD DUP3 DUP1 SLOAD PUSH2 0x38F4 SWAP1 PUSH2 0x8953 JUMP JUMPDEST DUP1 ISZERO PUSH2 0x393F JUMPI DUP1 PUSH1 0x1F LT PUSH2 0x3916 JUMPI PUSH2 0x100 DUP1 DUP4 SLOAD DIV MUL DUP4 MSTORE SWAP2 PUSH1 0x20 ADD SWAP2 PUSH2 0x393F JUMP JUMPDEST DUP3 ADD SWAP2 SWAP1 PUSH0 MSTORE PUSH1 0x20 PUSH0 KECCAK256 SWAP1 JUMPDEST DUP2 SLOAD DUP2 MSTORE SWAP1 PUSH1 0x1 ADD SWAP1 PUSH1 0x20 ADD DUP1 DUP4 GT PUSH2 0x3922 JUMPI DUP3 SWAP1 SUB PUSH1 0x1F AND DUP3 ADD SWAP2 JUMPDEST POP POP POP POP POP DUP2 MSTORE PUSH1 0x20 ADD PUSH1 0x4 DUP3 ADD DUP1 SLOAD PUSH2 0x3958 SWAP1 PUSH2 0x8953 JUMP JUMPDEST DUP1 PUSH1 0x1F ADD PUSH1 0x20 DUP1 SWAP2 DIV MUL PUSH1 0x20 ADD PUSH1 0x40 MLOAD SWAP1 DUP2 ADD PUSH1 0x40 MSTORE DUP1 SWAP3 SWAP2 SWAP1 DUP2 DUP2 MSTORE PUSH1 0x20 ADD DUP3 DUP1 SLOAD PUSH2 0x3984 SWAP1 PUSH2 0x8953 JUMP JUMPDEST DUP1 ISZERO PUSH2 0x39CF JUMPI DUP1 PUSH1 0x1F LT PUSH2 0x39A6 JUMPI PUSH2 0x100 DUP1 DUP4 SLOAD DIV MUL DUP4 MSTORE SWAP2 PUSH1 0x20 ADD SWAP2 PUSH2 0x39CF JUMP JUMPDEST DUP3 ADD SWAP2 SWAP1 PUSH0 MSTORE PUSH1 0x20 PUSH0 KECCAK256 SWAP1 JUMPDEST DUP2 SLOAD DUP2 MSTORE SWAP1 PUSH1 0x1 ADD SWAP1 PUSH1 0x20 ADD DUP1 DUP4 GT PUSH2 0x39B2 JUMPI DUP3 SWAP1 SUB PUSH1 0x1F AND DUP3 ADD SWAP2 JUMPDEST POP POP POP POP POP DUP2 MSTORE PUSH1 0x20 ADD PUSH1 0x5 DUP3 ADD DUP1 SLOAD PUSH2 0x39E8 SWAP1 PUSH2 0x8953 JUMP JUMPDEST DUP1 PUSH1 0x1F ADD PUSH1 0x20 DUP1 SWAP2 DIV MUL PUSH1 0x20 ADD PUSH1 0x40 MLOAD SWAP1 DUP2 ADD PUSH1 0x40 MSTORE DUP1 SWAP3 SWAP2 SWAP1 DUP2 DUP2 MSTORE PUSH1 0x20 ADD DUP3 DUP1 SLOAD PUSH2 0x3A14 SWAP1 PUSH2 0x8953 JUMP JUMPDEST DUP1 ISZERO PUSH2 0x3A5F JUMPI DUP1 PUSH1 0x1F LT PUSH2 0x3A36 JUMPI PUSH2 0x100 DUP1 DUP4 SLOAD DIV MUL DUP4 MSTORE SWAP2 PUSH1 0x20 ADD SWAP2 PUSH2 0x3A5F JUMP JUMPDEST DUP3 ADD SWAP2 SWAP1 PUSH0 MSTORE PUSH1 0x20 PUSH0 KECCAK256 SWAP1 JUMPDEST DUP2 SLOAD DUP2 MSTORE SWAP1 PUSH1 0x1 ADD SWAP1 PUSH1 0x20 ADD DUP1 DUP4 GT PUSH2 0x3A42 JUMPI DUP3 SWAP1 SUB PUSH1 0x1F AND DUP3 ADD SWAP2 JUMPDEST POP POP POP POP POP DUP2 MSTORE PUSH1 0x20 ADD PUSH1 0x6 DUP3 ADD DUP1 SLOAD PUSH2 0x3A78 SWAP1 PUSH2 0x8953 JUMP JUMPDEST DUP1 PUSH1 0x1F ADD PUSH1 0x20 DUP1 SWAP2 DIV MUL PUSH1 0x20 ADD PUSH1 0x40 MLOAD SWAP1 DUP2 ADD PUSH1 0x40 MSTORE DUP1 SWAP3 SWAP2 SWAP1 DUP2 DUP2 MSTORE PUSH1 0x20 ADD DUP3 DUP1 SLOAD PUSH2 0x3AA4 SWAP1 PUSH2 0x8953 JUMP JUMPDEST DUP1 ISZERO PUSH2 0x3AEF JUMPI DUP1 PUSH1 0x1F LT PUSH2 0x3AC6 JUMPI PUSH2 0x100 DUP1 DUP4 SLOAD DIV MUL DUP4 MSTORE SWAP2 PUSH1 0x20 ADD SWAP2 PUSH2 0x3AEF JUMP JUMPDEST DUP3 ADD SWAP2 SWAP1 PUSH0 MSTORE PUSH1 0x20 PUSH0 KECCAK256 SWAP1 JUMPDEST DUP2 SLOAD DUP2 MSTORE SWAP1 PUSH1 0x1 ADD SWAP1 PUSH1 0x20 ADD DUP1 DUP4 GT PUSH2 0x3AD2 JUMPI DUP3 SWAP1 SUB PUSH1 0x1F AND DUP3 ADD SWAP2 JUMPDEST POP POP POP POP POP DUP2 MSTORE PUSH1 0x20 ADD PUSH1 0x7 DUP3 ADD DUP1 SLOAD PUSH2 0x3B08 SWAP1 PUSH2 0x8953 JUMP JUMPDEST DUP1 PUSH1 0x1F ADD PUSH1 0x20 DUP1 SWAP2 DIV MUL PUSH1 0x20 ADD PUSH1 0x40 MLOAD SWAP1 DUP2 ADD PUSH1 0x40 MSTORE DUP1 SWAP3 SWAP2 SWAP1 DUP2 DUP2 MSTORE PUSH1 0x20 ADD DUP3 DUP1 SLOAD PUSH2 0x3B34 SWAP1 PUSH2 0x8953 JUMP JUMPDEST DUP1 ISZERO PUSH2 0x3B7F JUMPI DUP1 PUSH1 0x1F LT PUSH2 0x3B56 JUMPI PUSH2 0x100 DUP1 DUP4 SLOAD DIV MUL DUP4 MSTORE SWAP2 PUSH1 0x20 ADD SWAP2 PUSH2 0x3B7F JUMP JUMPDEST DUP3 ADD SWAP2 SWAP1 PUSH0 MSTORE PUSH1 0x20 PUSH0 KECCAK256 SWAP1 JUMPDEST DUP2 SLOAD DUP2 MSTORE SWAP1 PUSH1 0x1 ADD SWAP1 PUSH1 0x20 ADD DUP1 DUP4 GT PUSH2 0x3B62 JUMPI DUP3 SWAP1 SUB PUSH1 0x1F AND DUP3 ADD SWAP2 JUMPDEST POP POP POP POP POP DUP2 MSTORE PUSH1 0x20 ADD PUSH1 0x8 DUP3 ADD DUP1 SLOAD PUSH2 0x3B98 SWAP1 PUSH2 0x8953 JUMP JUMPDEST DUP1 PUSH1 0x1F ADD PUSH1 0x20 DUP1 SWAP2 DIV MUL PUSH1 0x20 ADD PUSH1 0x40 MLOAD SWAP1 DUP2 ADD PUSH1 0x40 MSTORE DUP1 SWAP3 SWAP2 SWAP1 DUP2 DUP2 MSTORE PUSH1 0x20 ADD DUP3 DUP1 SLOAD PUSH2 0x3BC4 SWAP1 PUSH2 0x8953 JUMP JUMPDEST DUP1 ISZERO PUSH2 0x3C0F JUMPI DUP1 PUSH1 0x1F LT PUSH2 0x3BE6 JUMPI PUSH2 0x100 DUP1 DUP4 SLOAD DIV MUL DUP4 MSTORE SWAP2 PUSH1 0x20 ADD SWAP2 PUSH2 0x3C0F JUMP JUMPDEST DUP3 ADD SWAP2 SWAP1 PUSH0 MSTORE PUSH1 0x20 PUSH0 KECCAK256 SWAP1 JUMPDEST DUP2 SLOAD DUP2 MSTORE SWAP1 PUSH1 0x1 ADD SWAP1 PUSH1 0x20 ADD DUP1 DUP4 GT PUSH2 0x3BF2 JUMPI DUP3 SWAP1 SUB PUSH1 0x1F AND DUP3 ADD SWAP2 JUMPDEST POP POP POP SWAP2 SWAP1 SWAP3 MSTORE POP POP POP PUSH1 0xA DUP3 ADD SLOAD PUSH1 0x40 DUP1 MLOAD PUSH1 0x80 DUP2 ADD DUP3 MSTORE PUSH1 0xB DUP6 ADD DUP1 SLOAD DUP3 MSTORE PUSH1 0xC DUP7 ADD SLOAD PUSH1 0x20 DUP4 ADD MSTORE PUSH1 0xD DUP7 ADD SLOAD SWAP5 SWAP6 PUSH1 0x1 PUSH1 0x1 PUSH1 0xA0 SHL SUB SWAP1 SWAP5 AND SWAP5 SWAP2 SWAP3 SWAP1 SWAP2 SWAP1 DUP4 ADD SWAP1 PUSH1 0xFF AND PUSH1 0x1 DUP2 GT ISZERO PUSH2 0x3C69 JUMPI PUSH2 0x3C69 PUSH2 0x8627 JUMP JUMPDEST PUSH1 0x1 DUP2 GT ISZERO PUSH2 0x3C7A JUMPI PUSH2 0x3C7A PUSH2 0x8627 JUMP JUMPDEST DUP2 MSTORE PUSH1 0x20 ADD PUSH1 0x2 DUP3 ADD PUSH1 0x1 SWAP1 SLOAD SWAP1 PUSH2 0x100 EXP SWAP1 DIV PUSH1 0xFF AND PUSH1 0x1 DUP2 GT ISZERO PUSH2 0x3CA2 JUMPI PUSH2 0x3CA2 PUSH2 0x8627 JUMP JUMPDEST PUSH1 0x1 DUP2 GT ISZERO PUSH2 0x3CB3 JUMPI PUSH2 0x3CB3 PUSH2 0x8627 JUMP JUMPDEST SWAP1 MSTORE POP SWAP1 POP DUP4 JUMP JUMPDEST PUSH1 0xF DUP1 SLOAD SWAP1 PUSH0 PUSH2 0x3CCA DUP4 PUSH2 0x893B JUMP JUMPDEST SWAP1 SWAP2 SSTORE POP POP CALLER PUSH0 DUP2 DUP2 MSTORE PUSH1 0x20 DUP2 DUP2 MSTORE PUSH1 0x40 DUP1 DUP4 KECCAK256 PUSH1 0xF SLOAD DUP2 SSTORE PUSH1 0x1 DUP1 DUP3 ADD DUP1 SLOAD PUSH1 0x1 PUSH1 0x1 PUSH1 0xA0 SHL SUB NOT AND SWAP1 SWAP7 OR SWAP1 SWAP6 SSTORE PUSH1 0x2 SWAP1 DUP2 ADD DUP1 SLOAD DUP1 DUP8 ADD DUP3 SSTORE SWAP1 DUP6 MSTORE SWAP4 DUP4 SWAP1 KECCAK256 DUP7 MLOAD PUSH1 0x5 SWAP1 SWAP6 MUL ADD SWAP4 DUP5 SSTORE SWAP2 DUP6 ADD MLOAD SWAP4 DUP4 ADD SWAP4 SWAP1 SWAP4 SSTORE SWAP2 DUP4 ADD MLOAD SWAP2 DUP2 ADD SWAP2 SWAP1 SWAP2 SSTORE PUSH1 0x60 DUP3 ADD MLOAD PUSH1 0x3 DUP3 ADD SSTORE PUSH1 0x80 SWAP1 SWAP2 ADD MLOAD PUSH1 0x4 SWAP1 SWAP2 ADD SSTORE JUMP JUMPDEST PUSH2 0x3D4E PUSH2 0x737A JUMP JUMPDEST PUSH0 DUP3 DUP2 MSTORE PUSH1 0x1 PUSH1 0x20 DUP2 DUP2 MSTORE PUSH1 0x40 SWAP3 DUP4 SWAP1 KECCAK256 DUP4 MLOAD PUSH2 0x260 DUP2 ADD DUP6 MSTORE DUP2 SLOAD DUP2 MSTORE SWAP3 DUP2 ADD SLOAD PUSH1 0x1 PUSH1 0x1 PUSH1 0xA0 SHL SUB SWAP1 DUP2 AND DUP5 DUP5 ADD MSTORE PUSH1 0x2 DUP3 ADD SLOAD AND DUP4 DUP6 ADD MSTORE PUSH1 0x3 DUP2 ADD SLOAD PUSH1 0x60 DUP5 ADD MSTORE PUSH1 0x4 DUP2 ADD DUP1 SLOAD DUP6 MLOAD DUP2 DUP6 MUL DUP2 ADD DUP6 ADD SWAP1 SWAP7 MSTORE DUP1 DUP7 MSTORE SWAP4 SWAP5 SWAP2 SWAP4 PUSH1 0x80 DUP7 ADD SWAP4 DUP4 ADD DUP3 DUP3 DUP1 ISZERO PUSH2 0x3DDE JUMPI PUSH1 0x20 MUL DUP3 ADD SWAP2 SWAP1 PUSH0 MSTORE PUSH1 0x20 PUSH0 KECCAK256 SWAP1 JUMPDEST DUP2 SLOAD DUP2 MSTORE PUSH1 0x20 ADD SWAP1 PUSH1 0x1 ADD SWAP1 DUP1 DUP4 GT PUSH2 0x3DCA JUMPI JUMPDEST POP POP POP POP POP DUP2 MSTORE PUSH1 0x20 ADD PUSH1 0x5 DUP3 ADD DUP1 SLOAD DUP1 PUSH1 0x20 MUL PUSH1 0x20 ADD PUSH1 0x40 MLOAD SWAP1 DUP2 ADD PUSH1 0x40 MSTORE DUP1 SWAP3 SWAP2 SWAP1 DUP2 DUP2 MSTORE PUSH1 0x20 ADD DUP3 DUP1 SLOAD DUP1 ISZERO PUSH2 0x3E34 JUMPI PUSH1 0x20 MUL DUP3 ADD SWAP2 SWAP1 PUSH0 MSTORE PUSH1 0x20 PUSH0 KECCAK256 SWAP1 JUMPDEST DUP2 SLOAD DUP2 MSTORE PUSH1 0x20 ADD SWAP1 PUSH1 0x1 ADD SWAP1 DUP1 DUP4 GT PUSH2 0x3E20 JUMPI JUMPDEST POP POP POP POP POP DUP2 MSTORE PUSH1 0x20 ADD PUSH1 0x6 DUP3 ADD DUP1 SLOAD DUP1 PUSH1 0x20 MUL PUSH1 0x20 ADD PUSH1 0x40 MLOAD SWAP1 DUP2 ADD PUSH1 0x40 MSTORE DUP1 SWAP3 SWAP2 SWAP1 DUP2 DUP2 MSTORE PUSH1 0x20 ADD DUP3 DUP1 SLOAD DUP1 ISZERO PUSH2 0x3E8A JUMPI PUSH1 0x20 MUL DUP3 ADD SWAP2 SWAP1 PUSH0 MSTORE PUSH1 0x20 PUSH0 KECCAK256 SWAP1 JUMPDEST DUP2 SLOAD DUP2 MSTORE PUSH1 0x20 ADD SWAP1 PUSH1 0x1 ADD SWAP1 DUP1 DUP4 GT PUSH2 0x3E76 JUMPI JUMPDEST POP POP POP POP POP DUP2 MSTORE PUSH1 0x20 ADD PUSH1 0x7 DUP3 ADD DUP1 SLOAD DUP1 PUSH1 0x20 MUL PUSH1 0x20 ADD PUSH1 0x40 MLOAD SWAP1 DUP2 ADD PUSH1 0x40 MSTORE DUP1 SWAP3 SWAP2 SWAP1 DUP2 DUP2 MSTORE PUSH1 0x20 ADD DUP3 DUP1 SLOAD DUP1 ISZERO PUSH2 0x3EE0 JUMPI PUSH1 0x20 MUL DUP3 ADD SWAP2 SWAP1 PUSH0 MSTORE PUSH1 0x20 PUSH0 KECCAK256 SWAP1 JUMPDEST DUP2 SLOAD DUP2 MSTORE PUSH1 0x20 ADD SWAP1 PUSH1 0x1 ADD SWAP1 DUP1 DUP4 GT PUSH2 0x3ECC JUMPI JUMPDEST POP POP POP POP POP DUP2 MSTORE PUSH1 0x20 ADD PUSH1 0x8 DUP3 ADD DUP1 SLOAD DUP1 PUSH1 0x20 MUL PUSH1 0x20 ADD PUSH1 0x40 MLOAD SWAP1 DUP2 ADD PUSH1 0x40 MSTORE DUP1 SWAP3 SWAP2 SWAP1 DUP2 DUP2 MSTORE PUSH1 0x20 ADD DUP3 DUP1 SLOAD DUP1 ISZERO PUSH2 0x3F36 JUMPI PUSH1 0x20 MUL DUP3 ADD SWAP2 SWAP1 PUSH0 MSTORE PUSH1 0x20 PUSH0 KECCAK256 SWAP1 JUMPDEST DUP2 SLOAD DUP2 MSTORE PUSH1 0x20 ADD SWAP1 PUSH1 0x1 ADD SWAP1 DUP1 DUP4 GT PUSH2 0x3F22 JUMPI JUMPDEST POP POP POP POP POP DUP2 MSTORE PUSH1 0x20 ADD PUSH1 0x9 DUP3 ADD DUP1 SLOAD DUP1 PUSH1 0x20 MUL PUSH1 0x20 ADD PUSH1 0x40 MLOAD SWAP1 DUP2 ADD PUSH1 0x40 MSTORE DUP1 SWAP3 SWAP2 SWAP1 DUP2 DUP2 MSTORE PUSH1 0x20 ADD DUP3 DUP1 SLOAD DUP1 ISZERO PUSH2 0x3F8C JUMPI PUSH1 0x20 MUL DUP3 ADD SWAP2 SWAP1 PUSH0 MSTORE PUSH1 0x20 PUSH0 KECCAK256 SWAP1 JUMPDEST DUP2 SLOAD DUP2 MSTORE PUSH1 0x20 ADD SWAP1 PUSH1 0x1 ADD SWAP1 DUP1 DUP4 GT PUSH2 0x3F78 JUMPI JUMPDEST POP POP POP POP POP DUP2 MSTORE PUSH1 0x20 ADD PUSH1 0xA DUP3 ADD DUP1 SLOAD DUP1 PUSH1 0x20 MUL PUSH1 0x20 ADD PUSH1 0x40 MLOAD SWAP1 DUP2 ADD PUSH1 0x40 MSTORE DUP1 SWAP3 SWAP2 SWAP1 DUP2 DUP2 MSTORE PUSH1 0x20 ADD DUP3 DUP1 SLOAD DUP1 ISZERO PUSH2 0x3FE2 JUMPI PUSH1 0x20 MUL DUP3 ADD SWAP2 SWAP1 PUSH0 MSTORE PUSH1 0x20 PUSH0 KECCAK256 SWAP1 JUMPDEST DUP2 SLOAD DUP2 MSTORE PUSH1 0x20 ADD SWAP1 PUSH1 0x1 ADD SWAP1 DUP1 DUP4 GT PUSH2 0x3FCE JUMPI JUMPDEST POP POP POP SWAP2 DUP4 MSTORE POP POP PUSH1 0xB DUP3 ADD SLOAD PUSH1 0x20 DUP3 ADD MSTORE PUSH1 0xC DUP3 ADD SLOAD PUSH1 0xFF DUP1 DUP3 AND PUSH1 0x40 DUP5 ADD MSTORE PUSH2 0x100 SWAP2 DUP3 SWAP1 DIV DUP2 AND PUSH1 0x60 DUP5 ADD MSTORE PUSH1 0xD DUP5 ADD SLOAD PUSH1 0x80 DUP5 ADD MSTORE PUSH1 0xE DUP5 ADD SLOAD PUSH1 0xA0 DUP5 ADD MSTORE PUSH1 0xF DUP5 ADD SLOAD PUSH1 0xC0 DUP5 ADD MSTORE PUSH1 0x10 DUP5 ADD SLOAD AND PUSH1 0xE0 DUP4 ADD MSTORE PUSH1 0x11 SWAP1 SWAP3 ADD SLOAD SWAP2 ADD MSTORE SWAP3 SWAP2 POP POP JUMP JUMPDEST PUSH2 0x4051 PUSH2 0x744B JUMP JUMPDEST PUSH1 0x6 PUSH0 DUP4 DUP2 MSTORE PUSH1 0x20 ADD SWAP1 DUP2 MSTORE PUSH1 0x20 ADD PUSH0 KECCAK256 PUSH1 0x40 MLOAD DUP1 PUSH1 0xA0 ADD PUSH1 0x40 MSTORE SWAP1 DUP2 PUSH0 DUP3 ADD SLOAD DUP2 MSTORE PUSH1 0x20 ADD PUSH1 0x1 DUP3 ADD DUP1 SLOAD DUP1 PUSH1 0x20 MUL PUSH1 0x20 ADD PUSH1 0x40 MLOAD SWAP1 DUP2 ADD PUSH1 0x40 MSTORE DUP1 SWAP3 SWAP2 SWAP1 DUP2 DUP2 MSTORE PUSH1 0x20 ADD PUSH0 SWAP1 JUMPDEST DUP3 DUP3 LT ISZERO PUSH2 0x422B JUMPI DUP4 DUP3 SWAP1 PUSH0 MSTORE PUSH1 0x20 PUSH0 KECCAK256 SWAP1 PUSH1 0x5 MUL ADD PUSH1 0x40 MLOAD DUP1 PUSH1 0xA0 ADD PUSH1 0x40 MSTORE SWAP1 DUP2 PUSH0 DUP3 ADD DUP1 SLOAD DUP1 PUSH1 0x20 MUL PUSH1 0x20 ADD PUSH1 0x40 MLOAD SWAP1 DUP2 ADD PUSH1 0x40 MSTORE DUP1 SWAP3 SWAP2 SWAP1 DUP2 DUP2 MSTORE PUSH1 0x20 ADD DUP3 DUP1 SLOAD DUP1 ISZERO PUSH2 0x4107 JUMPI PUSH1 0x20 MUL DUP3 ADD SWAP2 SWAP1 PUSH0 MSTORE PUSH1 0x20 PUSH0 KECCAK256 SWAP1 JUMPDEST DUP2 SLOAD DUP2 MSTORE PUSH1 0x20 ADD SWAP1 PUSH1 0x1 ADD SWAP1 DUP1 DUP4 GT PUSH2 0x40F3 JUMPI JUMPDEST POP POP POP POP POP DUP2 MSTORE PUSH1 0x20 ADD PUSH1 0x1 DUP3 ADD DUP1 SLOAD DUP1 PUSH1 0x20 MUL PUSH1 0x20 ADD PUSH1 0x40 MLOAD SWAP1 DUP2 ADD PUSH1 0x40 MSTORE DUP1 SWAP3 SWAP2 SWAP1 DUP2 DUP2 MSTORE PUSH1 0x20 ADD DUP3 DUP1 SLOAD DUP1 ISZERO PUSH2 0x415D JUMPI PUSH1 0x20 MUL DUP3 ADD SWAP2 SWAP1 PUSH0 MSTORE PUSH1 0x20 PUSH0 KECCAK256 SWAP1 JUMPDEST DUP2 SLOAD DUP2 MSTORE PUSH1 0x20 ADD SWAP1 PUSH1 0x1 ADD SWAP1 DUP1 DUP4 GT PUSH2 0x4149 JUMPI JUMPDEST POP POP POP POP POP DUP2 MSTORE PUSH1 0x20 ADD PUSH1 0x2 DUP3 ADD DUP1 SLOAD DUP1 PUSH1 0x20 MUL PUSH1 0x20 ADD PUSH1 0x40 MLOAD SWAP1 DUP2 ADD PUSH1 0x40 MSTORE DUP1 SWAP3 SWAP2 SWAP1 DUP2 DUP2 MSTORE PUSH1 0x20 ADD DUP3 DUP1 SLOAD DUP1 ISZERO PUSH2 0x41B3 JUMPI PUSH1 0x20 MUL DUP3 ADD SWAP2 SWAP1 PUSH0 MSTORE PUSH1 0x20 PUSH0 KECCAK256 SWAP1 JUMPDEST DUP2 SLOAD DUP2 MSTORE PUSH1 0x20 ADD SWAP1 PUSH1 0x1 ADD SWAP1 DUP1 DUP4 GT PUSH2 0x419F JUMPI JUMPDEST POP POP POP POP POP DUP2 MSTORE PUSH1 0x20 ADD PUSH1 0x3 DUP3 ADD DUP1 SLOAD DUP1 PUSH1 0x20 MUL PUSH1 0x20 ADD PUSH1 0x40 MLOAD SWAP1 DUP2 ADD PUSH1 0x40 MSTORE DUP1 SWAP3 SWAP2 SWAP1 DUP2 DUP2 MSTORE PUSH1 0x20 ADD DUP3 DUP1 SLOAD DUP1 ISZERO PUSH2 0x4209 JUMPI PUSH1 0x20 MUL DUP3 ADD SWAP2 SWAP1 PUSH0 MSTORE PUSH1 0x20 PUSH0 KECCAK256 SWAP1 JUMPDEST DUP2 SLOAD DUP2 MSTORE PUSH1 0x20 ADD SWAP1 PUSH1 0x1 ADD SWAP1 DUP1 DUP4 GT PUSH2 0x41F5 JUMPI JUMPDEST POP POP POP POP POP DUP2 MSTORE PUSH1 0x20 ADD PUSH1 0x4 DUP3 ADD SLOAD DUP2 MSTORE POP POP DUP2 MSTORE PUSH1 0x20 ADD SWAP1 PUSH1 0x1 ADD SWAP1 PUSH2 0x409A JUMP JUMPDEST POP POP POP SWAP1 DUP3 MSTORE POP PUSH1 0x2 DUP3 ADD SLOAD PUSH1 0x1 PUSH1 0x1 PUSH1 0xA0 SHL SUB DUP2 AND PUSH1 0x20 DUP4 ADD MSTORE PUSH1 0x1 PUSH1 0xA0 SHL SWAP1 DIV PUSH1 0xFF AND ISZERO ISZERO PUSH1 0x40 DUP3 ADD MSTORE PUSH1 0x3 SWAP1 SWAP2 ADD SLOAD PUSH1 0x60 SWAP1 SWAP2 ADD MSTORE SWAP3 SWAP2 POP POP JUMP JUMPDEST PUSH1 0x8 PUSH1 0x20 MSTORE PUSH0 SWAP1 DUP2 MSTORE PUSH1 0x40 SWAP1 DUP2 SWAP1 KECCAK256 DUP1 SLOAD PUSH1 0x1 DUP3 ADD SLOAD PUSH1 0x2 DUP4 ADD SLOAD DUP5 MLOAD PUSH2 0x120 DUP2 ADD SWAP1 SWAP6 MSTORE PUSH1 0x3 DUP5 ADD DUP1 SLOAD SWAP4 SWAP6 SWAP3 SWAP5 PUSH1 0x1 PUSH1 0x1 PUSH1 0xA0 SHL SUB SWAP1 SWAP3 AND SWAP4 SWAP2 SWAP3 SWAP2 DUP3 SWAP1 DUP3 SWAP1 PUSH2 0x42B4 SWAP1 PUSH2 0x8953 JUMP JUMPDEST DUP1 PUSH1 0x1F ADD PUSH1 0x20 DUP1 SWAP2 DIV MUL PUSH1 0x20 ADD PUSH1 0x40 MLOAD SWAP1 DUP2 ADD PUSH1 0x40 MSTORE DUP1 SWAP3 SWAP2 SWAP1 DUP2 DUP2 MSTORE PUSH1 0x20 ADD DUP3 DUP1 SLOAD PUSH2 0x42E0 SWAP1 PUSH2 0x8953 JUMP JUMPDEST DUP1 ISZERO PUSH2 0x432B JUMPI DUP1 PUSH1 0x1F LT PUSH2 0x4302 JUMPI PUSH2 0x100 DUP1 DUP4 SLOAD DIV MUL DUP4 MSTORE SWAP2 PUSH1 0x20 ADD SWAP2 PUSH2 0x432B JUMP JUMPDEST DUP3 ADD SWAP2 SWAP1 PUSH0 MSTORE PUSH1 0x20 PUSH0 KECCAK256 SWAP1 JUMPDEST DUP2 SLOAD DUP2 MSTORE SWAP1 PUSH1 0x1 ADD SWAP1 PUSH1 0x20 ADD DUP1 DUP4 GT PUSH2 0x430E JUMPI DUP3 SWAP1 SUB PUSH1 0x1F AND DUP3 ADD SWAP2 JUMPDEST POP POP POP POP POP DUP2 MSTORE PUSH1 0x20 ADD PUSH1 0x1 DUP3 ADD DUP1 SLOAD PUSH2 0x4344 SWAP1 PUSH2 0x8953 JUMP JUMPDEST DUP1 PUSH1 0x1F ADD PUSH1 0x20 DUP1 SWAP2 DIV MUL PUSH1 0x20 ADD PUSH1 0x40 MLOAD SWAP1 DUP2 ADD PUSH1 0x40 MSTORE DUP1 SWAP3 SWAP2 SWAP1 DUP2 DUP2 MSTORE PUSH1 0x20 ADD DUP3 DUP1 SLOAD PUSH2 0x4370 SWAP1 PUSH2 0x8953 JUMP JUMPDEST DUP1 ISZERO PUSH2 0x43BB JUMPI DUP1 PUSH1 0x1F LT PUSH2 0x4392 JUMPI PUSH2 0x100 DUP1 DUP4 SLOAD DIV MUL DUP4 MSTORE SWAP2 PUSH1 0x20 ADD SWAP2 PUSH2 0x43BB JUMP JUMPDEST DUP3 ADD SWAP2 SWAP1 PUSH0 MSTORE PUSH1 0x20 PUSH0 KECCAK256 SWAP1 JUMPDEST DUP2 SLOAD DUP2 MSTORE SWAP1 PUSH1 0x1 ADD SWAP1 PUSH1 0x20 ADD DUP1 DUP4 GT PUSH2 0x439E JUMPI DUP3 SWAP1 SUB PUSH1 0x1F AND DUP3 ADD SWAP2 JUMPDEST POP POP POP POP POP DUP2 MSTORE PUSH1 0x20 ADD PUSH1 0x2 DUP3 ADD DUP1 SLOAD PUSH2 0x43D4 SWAP1 PUSH2 0x8953 JUMP JUMPDEST DUP1 PUSH1 0x1F ADD PUSH1 0x20 DUP1 SWAP2 DIV MUL PUSH1 0x20 ADD PUSH1 0x40 MLOAD SWAP1 DUP2 ADD PUSH1 0x40 MSTORE DUP1 SWAP3 SWAP2 SWAP1 DUP2 DUP2 MSTORE PUSH1 0x20 ADD DUP3 DUP1 SLOAD PUSH2 0x4400 SWAP1 PUSH2 0x8953 JUMP JUMPDEST DUP1 ISZERO PUSH2 0x444B JUMPI DUP1 PUSH1 0x1F LT PUSH2 0x4422 JUMPI PUSH2 0x100 DUP1 DUP4 SLOAD DIV MUL DUP4 MSTORE SWAP2 PUSH1 0x20 ADD SWAP2 PUSH2 0x444B JUMP JUMPDEST DUP3 ADD SWAP2 SWAP1 PUSH0 MSTORE PUSH1 0x20 PUSH0 KECCAK256 SWAP1 JUMPDEST DUP2 SLOAD DUP2 MSTORE SWAP1 PUSH1 0x1 ADD SWAP1 PUSH1 0x20 ADD DUP1 DUP4 GT PUSH2 0x442E JUMPI DUP3 SWAP1 SUB PUSH1 0x1F AND DUP3 ADD SWAP2 JUMPDEST POP POP POP POP POP DUP2 MSTORE PUSH1 0x20 ADD PUSH1 0x3 DUP3 ADD DUP1 SLOAD PUSH2 0x4464 SWAP1 PUSH2 0x8953 JUMP JUMPDEST DUP1 PUSH1 0x1F ADD PUSH1 0x20 DUP1 SWAP2 DIV MUL PUSH1 0x20 ADD PUSH1 0x40 MLOAD SWAP1 DUP2 ADD PUSH1 0x40 MSTORE DUP1 SWAP3 SWAP2 SWAP1 DUP2 DUP2 MSTORE PUSH1 0x20 ADD DUP3 DUP1 SLOAD PUSH2 0x4490 SWAP1 PUSH2 0x8953 JUMP JUMPDEST DUP1 ISZERO PUSH2 0x44DB JUMPI DUP1 PUSH1 0x1F LT PUSH2 0x44B2 JUMPI PUSH2 0x100 DUP1 DUP4 SLOAD DIV MUL DUP4 MSTORE SWAP2 PUSH1 0x20 ADD SWAP2 PUSH2 0x44DB JUMP JUMPDEST DUP3 ADD SWAP2 SWAP1 PUSH0 MSTORE PUSH1 0x20 PUSH0 KECCAK256 SWAP1 JUMPDEST DUP2 SLOAD DUP2 MSTORE SWAP1 PUSH1 0x1 ADD SWAP1 PUSH1 0x20 ADD DUP1 DUP4 GT PUSH2 0x44BE JUMPI DUP3 SWAP1 SUB PUSH1 0x1F AND DUP3 ADD SWAP2 JUMPDEST POP POP POP POP POP DUP2 MSTORE PUSH1 0x20 ADD PUSH1 0x4 DUP3 ADD DUP1 SLOAD PUSH2 0x44F4 SWAP1 PUSH2 0x8953 JUMP JUMPDEST DUP1 PUSH1 0x1F ADD PUSH1 0x20 DUP1 SWAP2 DIV MUL PUSH1 0x20 ADD PUSH1 0x40 MLOAD SWAP1 DUP2 ADD PUSH1 0x40 MSTORE DUP1 SWAP3 SWAP2 SWAP1 DUP2 DUP2 MSTORE PUSH1 0x20 ADD DUP3 DUP1 SLOAD PUSH2 0x4520 SWAP1 PUSH2 0x8953 JUMP JUMPDEST DUP1 ISZERO PUSH2 0x456B JUMPI DUP1 PUSH1 0x1F LT PUSH2 0x4542 JUMPI PUSH2 0x100 DUP1 DUP4 SLOAD DIV MUL DUP4 MSTORE SWAP2 PUSH1 0x20 ADD SWAP2 PUSH2 0x456B JUMP JUMPDEST DUP3 ADD SWAP2 SWAP1 PUSH0 MSTORE PUSH1 0x20 PUSH0 KECCAK256 SWAP1 JUMPDEST DUP2 SLOAD DUP2 MSTORE SWAP1 PUSH1 0x1 ADD SWAP1 PUSH1 0x20 ADD DUP1 DUP4 GT PUSH2 0x454E JUMPI DUP3 SWAP1 SUB PUSH1 0x1F AND DUP3 ADD SWAP2 JUMPDEST POP POP POP POP POP DUP2 MSTORE PUSH1 0x20 ADD PUSH1 0x5 DUP3 ADD DUP1 SLOAD PUSH2 0x4584 SWAP1 PUSH2 0x8953 JUMP JUMPDEST DUP1 PUSH1 0x1F ADD PUSH1 0x20 DUP1 SWAP2 DIV MUL PUSH1 0x20 ADD PUSH1 0x40 MLOAD SWAP1 DUP2 ADD PUSH1 0x40 MSTORE DUP1 SWAP3 SWAP2 SWAP1 DUP2 DUP2 MSTORE PUSH1 0x20 ADD DUP3 DUP1 SLOAD PUSH2 0x45B0 SWAP1 PUSH2 0x8953 JUMP JUMPDEST DUP1 ISZERO PUSH2 0x45FB JUMPI DUP1 PUSH1 0x1F LT PUSH2 0x45D2 JUMPI PUSH2 0x100 DUP1 DUP4 SLOAD DIV MUL DUP4 MSTORE SWAP2 PUSH1 0x20 ADD SWAP2 PUSH2 0x45FB JUMP JUMPDEST DUP3 ADD SWAP2 SWAP1 PUSH0 MSTORE PUSH1 0x20 PUSH0 KECCAK256 SWAP1 JUMPDEST DUP2 SLOAD DUP2 MSTORE SWAP1 PUSH1 0x1 ADD SWAP1 PUSH1 0x20 ADD DUP1 DUP4 GT PUSH2 0x45DE JUMPI DUP3 SWAP1 SUB PUSH1 0x1F AND DUP3 ADD SWAP2 JUMPDEST POP POP POP POP POP DUP2 MSTORE PUSH1 0x20 ADD PUSH1 0x6 DUP3 ADD DUP1 SLOAD PUSH2 0x4614 SWAP1 PUSH2 0x8953 JUMP JUMPDEST DUP1 PUSH1 0x1F ADD PUSH1 0x20 DUP1 SWAP2 DIV MUL PUSH1 0x20 ADD PUSH1 0x40 MLOAD SWAP1 DUP2 ADD PUSH1 0x40 MSTORE DUP1 SWAP3 SWAP2 SWAP1 DUP2 DUP2 MSTORE PUSH1 0x20 ADD DUP3 DUP1 SLOAD PUSH2 0x4640 SWAP1 PUSH2 0x8953 JUMP JUMPDEST DUP1 ISZERO PUSH2 0x468B JUMPI DUP1 PUSH1 0x1F LT PUSH2 0x4662 JUMPI PUSH2 0x100 DUP1 DUP4 SLOAD DIV MUL DUP4 MSTORE SWAP2 PUSH1 0x20 ADD SWAP2 PUSH2 0x468B JUMP JUMPDEST DUP3 ADD SWAP2 SWAP1 PUSH0 MSTORE PUSH1 0x20 PUSH0 KECCAK256 SWAP1 JUMPDEST DUP2 SLOAD DUP2 MSTORE SWAP1 PUSH1 0x1 ADD SWAP1 PUSH1 0x20 ADD DUP1 DUP4 GT PUSH2 0x466E JUMPI DUP3 SWAP1 SUB PUSH1 0x1F AND DUP3 ADD SWAP2 JUMPDEST POP POP POP POP POP DUP2 MSTORE PUSH1 0x20 ADD PUSH1 0x7 DUP3 ADD DUP1 SLOAD PUSH2 0x46A4 SWAP1 PUSH2 0x8953 JUMP JUMPDEST DUP1 PUSH1 0x1F ADD PUSH1 0x20 DUP1 SWAP2 DIV MUL PUSH1 0x20 ADD PUSH1 0x40 MLOAD SWAP1 DUP2 ADD PUSH1 0x40 MSTORE DUP1 SWAP3 SWAP2 SWAP1 DUP2 DUP2 MSTORE PUSH1 0x20 ADD DUP3 DUP1 SLOAD PUSH2 0x46D0 SWAP1 PUSH2 0x8953 JUMP JUMPDEST DUP1 ISZERO PUSH2 0x471B JUMPI DUP1 PUSH1 0x1F LT PUSH2 0x46F2 JUMPI PUSH2 0x100 DUP1 DUP4 SLOAD DIV MUL DUP4 MSTORE SWAP2 PUSH1 0x20 ADD SWAP2 PUSH2 0x471B JUMP JUMPDEST DUP3 ADD SWAP2 SWAP1 PUSH0 MSTORE PUSH1 0x20 PUSH0 KECCAK256 SWAP1 JUMPDEST DUP2 SLOAD DUP2 MSTORE SWAP1 PUSH1 0x1 ADD SWAP1 PUSH1 0x20 ADD DUP1 DUP4 GT PUSH2 0x46FE JUMPI DUP3 SWAP1 SUB PUSH1 0x1F AND DUP3 ADD SWAP2 JUMPDEST POP POP POP POP POP DUP2 MSTORE PUSH1 0x20 ADD PUSH1 0x8 DUP3 ADD DUP1 SLOAD PUSH2 0x4734 SWAP1 PUSH2 0x8953 JUMP JUMPDEST DUP1 PUSH1 0x1F ADD PUSH1 0x20 DUP1 SWAP2 DIV MUL PUSH1 0x20 ADD PUSH1 0x40 MLOAD SWAP1 DUP2 ADD PUSH1 0x40 MSTORE DUP1 SWAP3 SWAP2 SWAP1 DUP2 DUP2 MSTORE PUSH1 0x20 ADD DUP3 DUP1 SLOAD PUSH2 0x4760 SWAP1 PUSH2 0x8953 JUMP JUMPDEST DUP1 ISZERO PUSH2 0x47AB JUMPI DUP1 PUSH1 0x1F LT PUSH2 0x4782 JUMPI PUSH2 0x100 DUP1 DUP4 SLOAD DIV MUL DUP4 MSTORE SWAP2 PUSH1 0x20 ADD SWAP2 PUSH2 0x47AB JUMP JUMPDEST DUP3 ADD SWAP2 SWAP1 PUSH0 MSTORE PUSH1 0x20 PUSH0 KECCAK256 SWAP1 JUMPDEST DUP2 SLOAD DUP2 MSTORE SWAP1 PUSH1 0x1 ADD SWAP1 PUSH1 0x20 ADD DUP1 DUP4 GT PUSH2 0x478E JUMPI DUP3 SWAP1 SUB PUSH1 0x1F AND DUP3 ADD SWAP2 JUMPDEST POP POP POP POP POP DUP2 MSTORE POP POP SWAP1 POP DUP5 JUMP JUMPDEST PUSH1 0x16 SLOAD PUSH0 SWAP1 PUSH1 0x1 PUSH1 0x1 PUSH1 0xA0 SHL SUB AND CALLER DUP2 EQ PUSH2 0x47E6 JUMPI PUSH1 0x40 MLOAD PUSH3 0x461BCD PUSH1 0xE5 SHL DUP2 MSTORE PUSH1 0x4 ADD PUSH2 0xAF2 SWAP1 PUSH2 0x91A5 JUMP JUMPDEST PUSH1 0x15 DUP1 SLOAD PUSH1 0x1 PUSH1 0x1 PUSH1 0xA0 SHL SUB DUP6 AND PUSH1 0x1 PUSH1 0x1 PUSH1 0xA0 SHL SUB NOT SWAP1 SWAP2 AND OR SWAP1 SSTORE PUSH1 0x1 SWAP2 POP POP SWAP2 SWAP1 POP JUMP JUMPDEST PUSH2 0x4815 PUSH2 0x74B4 JUMP JUMPDEST PUSH0 DUP3 DUP2 MSTORE PUSH1 0x7 PUSH1 0x20 SWAP1 DUP2 MSTORE PUSH1 0x40 DUP1 DUP4 KECCAK256 DUP2 MLOAD DUP2 SLOAD PUSH1 0xA0 SWAP5 DUP2 MUL DUP3 ADD DUP6 ADD SWAP1 SWAP4 MSTORE PUSH1 0x80 DUP2 ADD DUP4 DUP2 MSTORE SWAP1 SWAP5 SWAP2 SWAP4 DUP6 SWAP4 SWAP2 SWAP3 DUP6 SWAP3 SWAP2 DUP6 ADD JUMPDEST DUP3 DUP3 LT ISZERO PUSH2 0x4975 JUMPI DUP4 DUP3 SWAP1 PUSH0 MSTORE PUSH1 0x20 PUSH0 KECCAK256 SWAP1 PUSH1 0x5 MUL ADD PUSH1 0x40 MLOAD DUP1 PUSH1 0xA0 ADD PUSH1 0x40 MSTORE SWAP1 DUP2 PUSH0 DUP3 ADD SLOAD DUP2 MSTORE PUSH1 0x20 ADD PUSH1 0x1 DUP3 ADD SLOAD DUP2 MSTORE PUSH1 0x20 ADD PUSH1 0x2 DUP3 ADD SLOAD DUP2 MSTORE PUSH1 0x20 ADD PUSH1 0x3 DUP3 ADD SLOAD DUP2 MSTORE PUSH1 0x20 ADD PUSH1 0x4 DUP3 ADD DUP1 SLOAD DUP1 PUSH1 0x20 MUL PUSH1 0x20 ADD PUSH1 0x40 MLOAD SWAP1 DUP2 ADD PUSH1 0x40 MSTORE DUP1 SWAP3 SWAP2 SWAP1 DUP2 DUP2 MSTORE PUSH1 0x20 ADD PUSH0 SWAP1 JUMPDEST DUP3 DUP3 LT ISZERO PUSH2 0x495E JUMPI DUP4 DUP3 SWAP1 PUSH0 MSTORE PUSH1 0x20 PUSH0 KECCAK256 ADD DUP1 SLOAD PUSH2 0x48D3 SWAP1 PUSH2 0x8953 JUMP JUMPDEST DUP1 PUSH1 0x1F ADD PUSH1 0x20 DUP1 SWAP2 DIV MUL PUSH1 0x20 ADD PUSH1 0x40 MLOAD SWAP1 DUP2 ADD PUSH1 0x40 MSTORE DUP1 SWAP3 SWAP2 SWAP1 DUP2 DUP2 MSTORE PUSH1 0x20 ADD DUP3 DUP1 SLOAD PUSH2 0x48FF SWAP1 PUSH2 0x8953 JUMP JUMPDEST DUP1 ISZERO PUSH2 0x494A JUMPI DUP1 PUSH1 0x1F LT PUSH2 0x4921 JUMPI PUSH2 0x100 DUP1 DUP4 SLOAD DIV MUL DUP4 MSTORE SWAP2 PUSH1 0x20 ADD SWAP2 PUSH2 0x494A JUMP JUMPDEST DUP3 ADD SWAP2 SWAP1 PUSH0 MSTORE PUSH1 0x20 PUSH0 KECCAK256 SWAP1 JUMPDEST DUP2 SLOAD DUP2 MSTORE SWAP1 PUSH1 0x1 ADD SWAP1 PUSH1 0x20 ADD DUP1 DUP4 GT PUSH2 0x492D JUMPI DUP3 SWAP1 SUB PUSH1 0x1F AND DUP3 ADD SWAP2 JUMPDEST POP POP POP POP POP DUP2 MSTORE PUSH1 0x20 ADD SWAP1 PUSH1 0x1 ADD SWAP1 PUSH2 0x48B6 JUMP JUMPDEST POP POP POP POP DUP2 MSTORE POP POP DUP2 MSTORE PUSH1 0x20 ADD SWAP1 PUSH1 0x1 ADD SWAP1 PUSH2 0x484A JUMP JUMPDEST POP POP POP POP DUP2 MSTORE PUSH1 0x20 ADD PUSH1 0x1 DUP3 ADD PUSH1 0x40 MLOAD DUP1 PUSH2 0x120 ADD PUSH1 0x40 MSTORE SWAP1 DUP2 PUSH0 DUP3 ADD DUP1 SLOAD PUSH2 0x499D SWAP1 PUSH2 0x8953 JUMP JUMPDEST DUP1 PUSH1 0x1F ADD PUSH1 0x20 DUP1 SWAP2 DIV MUL PUSH1 0x20 ADD PUSH1 0x40 MLOAD SWAP1 DUP2 ADD PUSH1 0x40 MSTORE DUP1 SWAP3 SWAP2 SWAP1 DUP2 DUP2 MSTORE PUSH1 0x20 ADD DUP3 DUP1 SLOAD PUSH2 0x49C9 SWAP1 PUSH2 0x8953 JUMP JUMPDEST DUP1 ISZERO PUSH2 0x4A14 JUMPI DUP1 PUSH1 0x1F LT PUSH2 0x49EB JUMPI PUSH2 0x100 DUP1 DUP4 SLOAD DIV MUL DUP4 MSTORE SWAP2 PUSH1 0x20 ADD SWAP2 PUSH2 0x4A14 JUMP JUMPDEST DUP3 ADD SWAP2 SWAP1 PUSH0 MSTORE PUSH1 0x20 PUSH0 KECCAK256 SWAP1 JUMPDEST DUP2 SLOAD DUP2 MSTORE SWAP1 PUSH1 0x1 ADD SWAP1 PUSH1 0x20 ADD DUP1 DUP4 GT PUSH2 0x49F7 JUMPI DUP3 SWAP1 SUB PUSH1 0x1F AND DUP3 ADD SWAP2 JUMPDEST POP POP POP POP POP DUP2 MSTORE PUSH1 0x20 ADD PUSH1 0x1 DUP3 ADD DUP1 SLOAD PUSH2 0x4A2D SWAP1 PUSH2 0x8953 JUMP JUMPDEST DUP1 PUSH1 0x1F ADD PUSH1 0x20 DUP1 SWAP2 DIV MUL PUSH1 0x20 ADD PUSH1 0x40 MLOAD SWAP1 DUP2 ADD PUSH1 0x40 MSTORE DUP1 SWAP3 SWAP2 SWAP1 DUP2 DUP2 MSTORE PUSH1 0x20 ADD DUP3 DUP1 SLOAD PUSH2 0x4A59 SWAP1 PUSH2 0x8953 JUMP JUMPDEST DUP1 ISZERO PUSH2 0x4AA4 JUMPI DUP1 PUSH1 0x1F LT PUSH2 0x4A7B JUMPI PUSH2 0x100 DUP1 DUP4 SLOAD DIV MUL DUP4 MSTORE SWAP2 PUSH1 0x20 ADD SWAP2 PUSH2 0x4AA4 JUMP JUMPDEST DUP3 ADD SWAP2 SWAP1 PUSH0 MSTORE PUSH1 0x20 PUSH0 KECCAK256 SWAP1 JUMPDEST DUP2 SLOAD DUP2 MSTORE SWAP1 PUSH1 0x1 ADD SWAP1 PUSH1 0x20 ADD DUP1 DUP4 GT PUSH2 0x4A87 JUMPI DUP3 SWAP1 SUB PUSH1 0x1F AND DUP3 ADD SWAP2 JUMPDEST POP POP POP POP POP DUP2 MSTORE PUSH1 0x20 ADD PUSH1 0x2 DUP3 ADD DUP1 SLOAD PUSH2 0x4ABD SWAP1 PUSH2 0x8953 JUMP JUMPDEST DUP1 PUSH1 0x1F ADD PUSH1 0x20 DUP1 SWAP2 DIV MUL PUSH1 0x20 ADD PUSH1 0x40 MLOAD SWAP1 DUP2 ADD PUSH1 0x40 MSTORE DUP1 SWAP3 SWAP2 SWAP1 DUP2 DUP2 MSTORE PUSH1 0x20 ADD DUP3 DUP1 SLOAD PUSH2 0x4AE9 SWAP1 PUSH2 0x8953 JUMP JUMPDEST DUP1 ISZERO PUSH2 0x4B34 JUMPI DUP1 PUSH1 0x1F LT PUSH2 0x4B0B JUMPI PUSH2 0x100 DUP1 DUP4 SLOAD DIV MUL DUP4 MSTORE SWAP2 PUSH1 0x20 ADD SWAP2 PUSH2 0x4B34 JUMP JUMPDEST DUP3 ADD SWAP2 SWAP1 PUSH0 MSTORE PUSH1 0x20 PUSH0 KECCAK256 SWAP1 JUMPDEST DUP2 SLOAD DUP2 MSTORE SWAP1 PUSH1 0x1 ADD SWAP1 PUSH1 0x20 ADD DUP1 DUP4 GT PUSH2 0x4B17 JUMPI DUP3 SWAP1 SUB PUSH1 0x1F AND DUP3 ADD SWAP2 JUMPDEST POP POP POP POP POP DUP2 MSTORE PUSH1 0x20 ADD PUSH1 0x3 DUP3 ADD DUP1 SLOAD PUSH2 0x4B4D SWAP1 PUSH2 0x8953 JUMP JUMPDEST DUP1 PUSH1 0x1F ADD PUSH1 0x20 DUP1 SWAP2 DIV MUL PUSH1 0x20 ADD PUSH1 0x40 MLOAD SWAP1 DUP2 ADD PUSH1 0x40 MSTORE DUP1 SWAP3 SWAP2 SWAP1 DUP2 DUP2 MSTORE PUSH1 0x20 ADD DUP3 DUP1 SLOAD PUSH2 0x4B79 SWAP1 PUSH2 0x8953 JUMP JUMPDEST DUP1 ISZERO PUSH2 0x4BC4 JUMPI DUP1 PUSH1 0x1F LT PUSH2 0x4B9B JUMPI PUSH2 0x100 DUP1 DUP4 SLOAD DIV MUL DUP4 MSTORE SWAP2 PUSH1 0x20 ADD SWAP2 PUSH2 0x4BC4 JUMP JUMPDEST DUP3 ADD SWAP2 SWAP1 PUSH0 MSTORE PUSH1 0x20 PUSH0 KECCAK256 SWAP1 JUMPDEST DUP2 SLOAD DUP2 MSTORE SWAP1 PUSH1 0x1 ADD SWAP1 PUSH1 0x20 ADD DUP1 DUP4 GT PUSH2 0x4BA7 JUMPI DUP3 SWAP1 SUB PUSH1 0x1F AND DUP3 ADD SWAP2 JUMPDEST POP POP POP POP POP DUP2 MSTORE PUSH1 0x20 ADD PUSH1 0x4 DUP3 ADD DUP1 SLOAD PUSH2 0x4BDD SWAP1 PUSH2 0x8953 JUMP JUMPDEST DUP1 PUSH1 0x1F ADD PUSH1 0x20 DUP1 SWAP2 DIV MUL PUSH1 0x20 ADD PUSH1 0x40 MLOAD SWAP1 DUP2 ADD PUSH1 0x40 MSTORE DUP1 SWAP3 SWAP2 SWAP1 DUP2 DUP2 MSTORE PUSH1 0x20 ADD DUP3 DUP1 SLOAD PUSH2 0x4C09 SWAP1 PUSH2 0x8953 JUMP JUMPDEST DUP1 ISZERO PUSH2 0x4C54 JUMPI DUP1 PUSH1 0x1F LT PUSH2 0x4C2B JUMPI PUSH2 0x100 DUP1 DUP4 SLOAD DIV MUL DUP4 MSTORE SWAP2 PUSH1 0x20 ADD SWAP2 PUSH2 0x4C54 JUMP JUMPDEST DUP3 ADD SWAP2 SWAP1 PUSH0 MSTORE PUSH1 0x20 PUSH0 KECCAK256 SWAP1 JUMPDEST DUP2 SLOAD DUP2 MSTORE SWAP1 PUSH1 0x1 ADD SWAP1 PUSH1 0x20 ADD DUP1 DUP4 GT PUSH2 0x4C37 JUMPI DUP3 SWAP1 SUB PUSH1 0x1F AND DUP3 ADD SWAP2 JUMPDEST POP POP POP POP POP DUP2 MSTORE PUSH1 0x20 ADD PUSH1 0x5 DUP3 ADD DUP1 SLOAD PUSH2 0x4C6D SWAP1 PUSH2 0x8953 JUMP JUMPDEST DUP1 PUSH1 0x1F ADD PUSH1 0x20 DUP1 SWAP2 DIV MUL PUSH1 0x20 ADD PUSH1 0x40 MLOAD SWAP1 DUP2 ADD PUSH1 0x40 MSTORE DUP1 SWAP3 SWAP2 SWAP1 DUP2 DUP2 MSTORE PUSH1 0x20 ADD DUP3 DUP1 SLOAD PUSH2 0x4C99 SWAP1 PUSH2 0x8953 JUMP JUMPDEST DUP1 ISZERO PUSH2 0x4CE4 JUMPI DUP1 PUSH1 0x1F LT PUSH2 0x4CBB JUMPI PUSH2 0x100 DUP1 DUP4 SLOAD DIV MUL DUP4 MSTORE SWAP2 PUSH1 0x20 ADD SWAP2 PUSH2 0x4CE4 JUMP JUMPDEST DUP3 ADD SWAP2 SWAP1 PUSH0 MSTORE PUSH1 0x20 PUSH0 KECCAK256 SWAP1 JUMPDEST DUP2 SLOAD DUP2 MSTORE SWAP1 PUSH1 0x1 ADD SWAP1 PUSH1 0x20 ADD DUP1 DUP4 GT PUSH2 0x4CC7 JUMPI DUP3 SWAP1 SUB PUSH1 0x1F AND DUP3 ADD SWAP2 JUMPDEST POP POP POP POP POP DUP2 MSTORE PUSH1 0x20 ADD PUSH1 0x6 DUP3 ADD DUP1 SLOAD PUSH2 0x4CFD SWAP1 PUSH2 0x8953 JUMP JUMPDEST DUP1 PUSH1 0x1F ADD PUSH1 0x20 DUP1 SWAP2 DIV MUL PUSH1 0x20 ADD PUSH1 0x40 MLOAD SWAP1 DUP2 ADD PUSH1 0x40 MSTORE DUP1 SWAP3 SWAP2 SWAP1 DUP2 DUP2 MSTORE PUSH1 0x20 ADD DUP3 DUP1 SLOAD PUSH2 0x4D29 SWAP1 PUSH2 0x8953 JUMP JUMPDEST DUP1 ISZERO PUSH2 0x4D74 JUMPI DUP1 PUSH1 0x1F LT PUSH2 0x4D4B JUMPI PUSH2 0x100 DUP1 DUP4 SLOAD DIV MUL DUP4 MSTORE SWAP2 PUSH1 0x20 ADD SWAP2 PUSH2 0x4D74 JUMP JUMPDEST DUP3 ADD SWAP2 SWAP1 PUSH0 MSTORE PUSH1 0x20 PUSH0 KECCAK256 SWAP1 JUMPDEST DUP2 SLOAD DUP2 MSTORE SWAP1 PUSH1 0x1 ADD SWAP1 PUSH1 0x20 ADD DUP1 DUP4 GT PUSH2 0x4D57 JUMPI DUP3 SWAP1 SUB PUSH1 0x1F AND DUP3 ADD SWAP2 JUMPDEST POP POP POP POP POP DUP2 MSTORE PUSH1 0x20 ADD PUSH1 0x7 DUP3 ADD DUP1 SLOAD PUSH2 0x4D8D SWAP1 PUSH2 0x8953 JUMP JUMPDEST DUP1 PUSH1 0x1F ADD PUSH1 0x20 DUP1 SWAP2 DIV MUL PUSH1 0x20 ADD PUSH1 0x40 MLOAD SWAP1 DUP2 ADD PUSH1 0x40 MSTORE DUP1 SWAP3 SWAP2 SWAP1 DUP2 DUP2 MSTORE PUSH1 0x20 ADD DUP3 DUP1 SLOAD PUSH2 0x4DB9 SWAP1 PUSH2 0x8953 JUMP JUMPDEST DUP1 ISZERO PUSH2 0x4E04 JUMPI DUP1 PUSH1 0x1F LT PUSH2 0x4DDB JUMPI PUSH2 0x100 DUP1 DUP4 SLOAD DIV MUL DUP4 MSTORE SWAP2 PUSH1 0x20 ADD SWAP2 PUSH2 0x4E04 JUMP JUMPDEST DUP3 ADD SWAP2 SWAP1 PUSH0 MSTORE PUSH1 0x20 PUSH0 KECCAK256 SWAP1 JUMPDEST DUP2 SLOAD DUP2 MSTORE SWAP1 PUSH1 0x1 ADD SWAP1 PUSH1 0x20 ADD DUP1 DUP4 GT PUSH2 0x4DE7 JUMPI DUP3 SWAP1 SUB PUSH1 0x1F AND DUP3 ADD SWAP2 JUMPDEST POP POP POP POP POP DUP2 MSTORE PUSH1 0x20 ADD PUSH1 0x8 DUP3 ADD DUP1 SLOAD PUSH2 0x4E1D SWAP1 PUSH2 0x8953 JUMP JUMPDEST DUP1 PUSH1 0x1F ADD PUSH1 0x20 DUP1 SWAP2 DIV MUL PUSH1 0x20 ADD PUSH1 0x40 MLOAD SWAP1 DUP2 ADD PUSH1 0x40 MSTORE DUP1 SWAP3 SWAP2 SWAP1 DUP2 DUP2 MSTORE PUSH1 0x20 ADD DUP3 DUP1 SLOAD PUSH2 0x4E49 SWAP1 PUSH2 0x8953 JUMP JUMPDEST DUP1 ISZERO PUSH2 0x4E94 JUMPI DUP1 PUSH1 0x1F LT PUSH2 0x4E6B JUMPI PUSH2 0x100 DUP1 DUP4 SLOAD DIV MUL DUP4 MSTORE SWAP2 PUSH1 0x20 ADD SWAP2 PUSH2 0x4E94 JUMP JUMPDEST DUP3 ADD SWAP2 SWAP1 PUSH0 MSTORE PUSH1 0x20 PUSH0 KECCAK256 SWAP1 JUMPDEST DUP2 SLOAD DUP2 MSTORE SWAP1 PUSH1 0x1 ADD SWAP1 PUSH1 0x20 ADD DUP1 DUP4 GT PUSH2 0x4E77 JUMPI DUP3 SWAP1 SUB PUSH1 0x1F AND DUP3 ADD SWAP2 JUMPDEST POP POP POP SWAP2 SWAP1 SWAP3 MSTORE POP POP POP DUP2 MSTORE PUSH1 0xA DUP3 ADD SLOAD PUSH1 0x1 PUSH1 0x1 PUSH1 0xA0 SHL SUB AND PUSH1 0x20 DUP1 DUP4 ADD SWAP2 SWAP1 SWAP2 MSTORE PUSH1 0x40 DUP1 MLOAD PUSH1 0x80 DUP2 ADD DUP3 MSTORE PUSH1 0xB DUP6 ADD DUP1 SLOAD DUP3 MSTORE PUSH1 0xC DUP7 ADD SLOAD SWAP4 DUP3 ADD SWAP4 SWAP1 SWAP4 MSTORE PUSH1 0xD DUP6 ADD SLOAD SWAP4 DUP3 ADD SWAP4 SWAP1 SWAP3 SWAP2 DUP4 ADD SWAP1 PUSH1 0xFF AND PUSH1 0x1 DUP2 GT ISZERO PUSH2 0x4EF8 JUMPI PUSH2 0x4EF8 PUSH2 0x8627 JUMP JUMPDEST PUSH1 0x1 DUP2 GT ISZERO PUSH2 0x4F09 JUMPI PUSH2 0x4F09 PUSH2 0x8627 JUMP JUMPDEST DUP2 MSTORE PUSH1 0x20 ADD PUSH1 0x2 DUP3 ADD PUSH1 0x1 SWAP1 SLOAD SWAP1 PUSH2 0x100 EXP SWAP1 DIV PUSH1 0xFF AND PUSH1 0x1 DUP2 GT ISZERO PUSH2 0x4F31 JUMPI PUSH2 0x4F31 PUSH2 0x8627 JUMP JUMPDEST PUSH1 0x1 DUP2 GT ISZERO PUSH2 0x4F42 JUMPI PUSH2 0x4F42 PUSH2 0x8627 JUMP JUMPDEST SWAP1 MSTORE POP SWAP1 MSTORE POP SWAP3 SWAP2 POP POP JUMP JUMPDEST PUSH1 0x1 PUSH1 0x1 PUSH1 0xA0 SHL SUB DUP2 AND PUSH0 SWAP1 DUP2 MSTORE PUSH1 0x5 PUSH1 0x20 MSTORE PUSH1 0x40 DUP2 KECCAK256 SLOAD PUSH1 0x60 SWAP2 SWAP1 PUSH1 0x1 PUSH1 0x1 PUSH1 0x40 SHL SUB DUP2 GT ISZERO PUSH2 0x4F81 JUMPI PUSH2 0x4F81 PUSH2 0x7627 JUMP JUMPDEST PUSH1 0x40 MLOAD SWAP1 DUP1 DUP3 MSTORE DUP1 PUSH1 0x20 MUL PUSH1 0x20 ADD DUP3 ADD PUSH1 0x40 MSTORE DUP1 ISZERO PUSH2 0x4FBA JUMPI DUP2 PUSH1 0x20 ADD JUMPDEST PUSH2 0x4FA7 PUSH2 0x744B JUMP JUMPDEST DUP2 MSTORE PUSH1 0x20 ADD SWAP1 PUSH1 0x1 SWAP1 SUB SWAP1 DUP2 PUSH2 0x4F9F JUMPI SWAP1 POP JUMPDEST POP PUSH1 0x1 PUSH1 0x1 PUSH1 0xA0 SHL SUB DUP5 AND PUSH0 SWAP1 DUP2 MSTORE PUSH1 0x5 PUSH1 0x20 MSTORE PUSH1 0x40 DUP2 KECCAK256 SWAP2 SWAP3 POP JUMPDEST DUP2 SLOAD DUP2 LT ISZERO PUSH2 0x5232 JUMPI PUSH1 0x6 PUSH0 DUP4 DUP4 DUP2 SLOAD DUP2 LT PUSH2 0x4FF4 JUMPI PUSH2 0x4FF4 PUSH2 0x8BD8 JUMP JUMPDEST SWAP1 PUSH0 MSTORE PUSH1 0x20 PUSH0 KECCAK256 ADD SLOAD DUP2 MSTORE PUSH1 0x20 ADD SWAP1 DUP2 MSTORE PUSH1 0x20 ADD PUSH0 KECCAK256 PUSH1 0x40 MLOAD DUP1 PUSH1 0xA0 ADD PUSH1 0x40 MSTORE SWAP1 DUP2 PUSH0 DUP3 ADD SLOAD DUP2 MSTORE PUSH1 0x20 ADD PUSH1 0x1 DUP3 ADD DUP1 SLOAD DUP1 PUSH1 0x20 MUL PUSH1 0x20 ADD PUSH1 0x40 MLOAD SWAP1 DUP2 ADD PUSH1 0x40 MSTORE DUP1 SWAP3 SWAP2 SWAP1 DUP2 DUP2 MSTORE PUSH1 0x20 ADD PUSH0 SWAP1 JUMPDEST DUP3 DUP3 LT ISZERO PUSH2 0x51D3 JUMPI DUP4 DUP3 SWAP1 PUSH0 MSTORE PUSH1 0x20 PUSH0 KECCAK256 SWAP1 PUSH1 0x5 MUL ADD PUSH1 0x40 MLOAD DUP1 PUSH1 0xA0 ADD PUSH1 0x40 MSTORE SWAP1 DUP2 PUSH0 DUP3 ADD DUP1 SLOAD DUP1 PUSH1 0x20 MUL PUSH1 0x20 ADD PUSH1 0x40 MLOAD SWAP1 DUP2 ADD PUSH1 0x40 MSTORE DUP1 SWAP3 SWAP2 SWAP1 DUP2 DUP2 MSTORE PUSH1 0x20 ADD DUP3 DUP1 SLOAD DUP1 ISZERO PUSH2 0x50AF JUMPI PUSH1 0x20 MUL DUP3 ADD SWAP2 SWAP1 PUSH0 MSTORE PUSH1 0x20 PUSH0 KECCAK256 SWAP1 JUMPDEST DUP2 SLOAD DUP2 MSTORE PUSH1 0x20 ADD SWAP1 PUSH1 0x1 ADD SWAP1 DUP1 DUP4 GT PUSH2 0x509B JUMPI JUMPDEST POP POP POP POP POP DUP2 MSTORE PUSH1 0x20 ADD PUSH1 0x1 DUP3 ADD DUP1 SLOAD DUP1 PUSH1 0x20 MUL PUSH1 0x20 ADD PUSH1 0x40 MLOAD SWAP1 DUP2 ADD PUSH1 0x40 MSTORE DUP1 SWAP3 SWAP2 SWAP1 DUP2 DUP2 MSTORE PUSH1 0x20 ADD DUP3 DUP1 SLOAD DUP1 ISZERO PUSH2 0x5105 JUMPI PUSH1 0x20 MUL DUP3 ADD SWAP2 SWAP1 PUSH0 MSTORE PUSH1 0x20 PUSH0 KECCAK256 SWAP1 JUMPDEST DUP2 SLOAD DUP2 MSTORE PUSH1 0x20 ADD SWAP1 PUSH1 0x1 ADD SWAP1 DUP1 DUP4 GT PUSH2 0x50F1 JUMPI JUMPDEST POP POP POP POP POP DUP2 MSTORE PUSH1 0x20 ADD PUSH1 0x2 DUP3 ADD DUP1 SLOAD DUP1 PUSH1 0x20 MUL PUSH1 0x20 ADD PUSH1 0x40 MLOAD SWAP1 DUP2 ADD PUSH1 0x40 MSTORE DUP1 SWAP3 SWAP2 SWAP1 DUP2 DUP2 MSTORE PUSH1 0x20 ADD DUP3 DUP1 SLOAD DUP1 ISZERO PUSH2 0x515B JUMPI PUSH1 0x20 MUL DUP3 ADD SWAP2 SWAP1 PUSH0 MSTORE PUSH1 0x20 PUSH0 KECCAK256 SWAP1 JUMPDEST DUP2 SLOAD DUP2 MSTORE PUSH1 0x20 ADD SWAP1 PUSH1 0x1 ADD SWAP1 DUP1 DUP4 GT PUSH2 0x5147 JUMPI JUMPDEST POP POP POP POP POP DUP2 MSTORE PUSH1 0x20 ADD PUSH1 0x3 DUP3 ADD DUP1 SLOAD DUP1 PUSH1 0x20 MUL PUSH1 0x20 ADD PUSH1 0x40 MLOAD SWAP1 DUP2 ADD PUSH1 0x40 MSTORE DUP1 SWAP3 SWAP2 SWAP1 DUP2 DUP2 MSTORE PUSH1 0x20 ADD DUP3 DUP1 SLOAD DUP1 ISZERO PUSH2 0x51B1 JUMPI PUSH1 0x20 MUL DUP3 ADD SWAP2 SWAP1 PUSH0 MSTORE PUSH1 0x20 PUSH0 KECCAK256 SWAP1 JUMPDEST DUP2 SLOAD DUP2 MSTORE PUSH1 0x20 ADD SWAP1 PUSH1 0x1 ADD SWAP1 DUP1 DUP4 GT PUSH2 0x519D JUMPI JUMPDEST POP POP POP POP POP DUP2 MSTORE PUSH1 0x20 ADD PUSH1 0x4 DUP3 ADD SLOAD DUP2 MSTORE POP POP DUP2 MSTORE PUSH1 0x20 ADD SWAP1 PUSH1 0x1 ADD SWAP1 PUSH2 0x5042 JUMP JUMPDEST POP POP POP SWAP1 DUP3 MSTORE POP PUSH1 0x2 DUP3 ADD SLOAD PUSH1 0x1 PUSH1 0x1 PUSH1 0xA0 SHL SUB DUP2 AND PUSH1 0x20 DUP4 ADD MSTORE PUSH1 0x1 PUSH1 0xA0 SHL SWAP1 DIV PUSH1 0xFF AND ISZERO ISZERO PUSH1 0x40 DUP3 ADD MSTORE PUSH1 0x3 SWAP1 SWAP2 ADD SLOAD PUSH1 0x60 SWAP1 SWAP2 ADD MSTORE DUP4 MLOAD DUP5 SWAP1 DUP4 SWAP1 DUP2 LT PUSH2 0x521F JUMPI PUSH2 0x521F PUSH2 0x8BD8 JUMP JUMPDEST PUSH1 0x20 SWAP1 DUP2 MUL SWAP2 SWAP1 SWAP2 ADD ADD MSTORE PUSH1 0x1 ADD PUSH2 0x4FD6 JUMP JUMPDEST POP SWAP1 SWAP4 SWAP3 POP POP POP JUMP JUMPDEST PUSH1 0x2 PUSH1 0x20 MSTORE DUP2 PUSH0 MSTORE PUSH1 0x40 PUSH0 KECCAK256 DUP2 DUP2 SLOAD DUP2 LT PUSH2 0x88D JUMPI PUSH0 DUP1 REVERT JUMPDEST PUSH1 0x17 SLOAD PUSH1 0x1 PUSH1 0x1 PUSH1 0xA0 SHL SUB AND CALLER DUP2 EQ PUSH2 0x527F JUMPI PUSH1 0x40 MLOAD PUSH3 0x461BCD PUSH1 0xE5 SHL DUP2 MSTORE PUSH1 0x4 ADD PUSH2 0xAF2 SWAP1 PUSH2 0x91A5 JUMP JUMPDEST PUSH0 DUP3 DUP2 MSTORE PUSH1 0x4 PUSH1 0x20 MSTORE PUSH1 0x40 SWAP1 KECCAK256 SLOAD DUP1 PUSH2 0x52CB JUMPI PUSH1 0x40 MLOAD PUSH3 0x461BCD PUSH1 0xE5 SHL DUP2 MSTORE PUSH1 0x20 PUSH1 0x4 DUP3 ADD MSTORE PUSH1 0xE PUSH1 0x24 DUP3 ADD MSTORE PUSH14 0x1DDC9BDB99C81BDC99195C881251 PUSH1 0x92 SHL PUSH1 0x44 DUP3 ADD MSTORE PUSH1 0x64 ADD PUSH2 0xAF2 JUMP JUMPDEST PUSH0 DUP2 DUP2 MSTORE PUSH1 0x1 PUSH1 0x20 DUP2 DUP2 MSTORE PUSH1 0x40 DUP1 DUP5 KECCAK256 DUP2 MLOAD PUSH2 0x260 DUP2 ADD DUP4 MSTORE DUP2 SLOAD DUP2 MSTORE SWAP4 DUP2 ADD SLOAD PUSH1 0x1 PUSH1 0x1 PUSH1 0xA0 SHL SUB SWAP1 DUP2 AND DUP6 DUP6 ADD MSTORE PUSH1 0x2 DUP3 ADD SLOAD AND DUP5 DUP4 ADD MSTORE PUSH1 0x3 DUP2 ADD SLOAD PUSH1 0x60 DUP6 ADD MSTORE PUSH1 0x4 DUP2 ADD DUP1 SLOAD DUP4 MLOAD DUP2 DUP7 MUL DUP2 ADD DUP7 ADD SWAP1 SWAP5 MSTORE DUP1 DUP5 MSTORE SWAP2 SWAP4 PUSH1 0x80 DUP7 ADD SWAP4 SWAP3 SWAP1 DUP4 ADD DUP3 DUP3 DUP1 ISZERO PUSH2 0x535A JUMPI PUSH1 0x20 MUL DUP3 ADD SWAP2 SWAP1 PUSH0 MSTORE PUSH1 0x20 PUSH0 KECCAK256 SWAP1 JUMPDEST DUP2 SLOAD DUP2 MSTORE PUSH1 0x20 ADD SWAP1 PUSH1 0x1 ADD SWAP1 DUP1 DUP4 GT PUSH2 0x5346 JUMPI JUMPDEST POP POP POP POP POP DUP2 MSTORE PUSH1 0x20 ADD PUSH1 0x5 DUP3 ADD DUP1 SLOAD DUP1 PUSH1 0x20 MUL PUSH1 0x20 ADD PUSH1 0x40 MLOAD SWAP1 DUP2 ADD PUSH1 0x40 MSTORE DUP1 SWAP3 SWAP2 SWAP1 DUP2 DUP2 MSTORE PUSH1 0x20 ADD DUP3 DUP1 SLOAD DUP1 ISZERO PUSH2 0x53B0 JUMPI PUSH1 0x20 MUL DUP3 ADD SWAP2 SWAP1 PUSH0 MSTORE PUSH1 0x20 PUSH0 KECCAK256 SWAP1 JUMPDEST DUP2 SLOAD DUP2 MSTORE PUSH1 0x20 ADD SWAP1 PUSH1 0x1 ADD SWAP1 DUP1 DUP4 GT PUSH2 0x539C JUMPI JUMPDEST POP POP POP POP POP DUP2 MSTORE PUSH1 0x20 ADD PUSH1 0x6 DUP3 ADD DUP1 SLOAD DUP1 PUSH1 0x20 MUL PUSH1 0x20 ADD PUSH1 0x40 MLOAD SWAP1 DUP2 ADD PUSH1 0x40 MSTORE DUP1 SWAP3 SWAP2 SWAP1 DUP2 DUP2 MSTORE PUSH1 0x20 ADD DUP3 DUP1 SLOAD DUP1 ISZERO PUSH2 0x5406 JUMPI PUSH1 0x20 MUL DUP3 ADD SWAP2 SWAP1 PUSH0 MSTORE PUSH1 0x20 PUSH0 KECCAK256 SWAP1 JUMPDEST DUP2 SLOAD DUP2 MSTORE PUSH1 0x20 ADD SWAP1 PUSH1 0x1 ADD SWAP1 DUP1 DUP4 GT PUSH2 0x53F2 JUMPI JUMPDEST POP POP POP POP POP DUP2 MSTORE PUSH1 0x20 ADD PUSH1 0x7 DUP3 ADD DUP1 SLOAD DUP1 PUSH1 0x20 MUL PUSH1 0x20 ADD PUSH1 0x40 MLOAD SWAP1 DUP2 ADD PUSH1 0x40 MSTORE DUP1 SWAP3 SWAP2 SWAP1 DUP2 DUP2 MSTORE PUSH1 0x20 ADD DUP3 DUP1 SLOAD DUP1 ISZERO PUSH2 0x545C JUMPI PUSH1 0x20 MUL DUP3 ADD SWAP2 SWAP1 PUSH0 MSTORE PUSH1 0x20 PUSH0 KECCAK256 SWAP1 JUMPDEST DUP2 SLOAD DUP2 MSTORE PUSH1 0x20 ADD SWAP1 PUSH1 0x1 ADD SWAP1 DUP1 DUP4 GT PUSH2 0x5448 JUMPI JUMPDEST POP POP POP POP POP DUP2 MSTORE PUSH1 0x20 ADD PUSH1 0x8 DUP3 ADD DUP1 SLOAD DUP1 PUSH1 0x20 MUL PUSH1 0x20 ADD PUSH1 0x40 MLOAD SWAP1 DUP2 ADD PUSH1 0x40 MSTORE DUP1 SWAP3 SWAP2 SWAP1 DUP2 DUP2 MSTORE PUSH1 0x20 ADD DUP3 DUP1 SLOAD DUP1 ISZERO PUSH2 0x54B2 JUMPI PUSH1 0x20 MUL DUP3 ADD SWAP2 SWAP1 PUSH0 MSTORE PUSH1 0x20 PUSH0 KECCAK256 SWAP1 JUMPDEST DUP2 SLOAD DUP2 MSTORE PUSH1 0x20 ADD SWAP1 PUSH1 0x1 ADD SWAP1 DUP1 DUP4 GT PUSH2 0x549E JUMPI JUMPDEST POP POP POP POP POP DUP2 MSTORE PUSH1 0x20 ADD PUSH1 0x9 DUP3 ADD DUP1 SLOAD DUP1 PUSH1 0x20 MUL PUSH1 0x20 ADD PUSH1 0x40 MLOAD SWAP1 DUP2 ADD PUSH1 0x40 MSTORE DUP1 SWAP3 SWAP2 SWAP1 DUP2 DUP2 MSTORE PUSH1 0x20 ADD DUP3 DUP1 SLOAD DUP1 ISZERO PUSH2 0x5508 JUMPI PUSH1 0x20 MUL DUP3 ADD SWAP2 SWAP1 PUSH0 MSTORE PUSH1 0x20 PUSH0 KECCAK256 SWAP1 JUMPDEST DUP2 SLOAD DUP2 MSTORE PUSH1 0x20 ADD SWAP1 PUSH1 0x1 ADD SWAP1 DUP1 DUP4 GT PUSH2 0x54F4 JUMPI JUMPDEST POP POP POP POP POP DUP2 MSTORE PUSH1 0x20 ADD PUSH1 0xA DUP3 ADD DUP1 SLOAD DUP1 PUSH1 0x20 MUL PUSH1 0x20 ADD PUSH1 0x40 MLOAD SWAP1 DUP2 ADD PUSH1 0x40 MSTORE DUP1 SWAP3 SWAP2 SWAP1 DUP2 DUP2 MSTORE PUSH1 0x20 ADD DUP3 DUP1 SLOAD DUP1 ISZERO PUSH2 0x555E JUMPI PUSH1 0x20 MUL DUP3 ADD SWAP2 SWAP1 PUSH0 MSTORE PUSH1 0x20 PUSH0 KECCAK256 SWAP1 JUMPDEST DUP2 SLOAD DUP2 MSTORE PUSH1 0x20 ADD SWAP1 PUSH1 0x1 ADD SWAP1 DUP1 DUP4 GT PUSH2 0x554A JUMPI JUMPDEST POP POP POP SWAP2 DUP4 MSTORE POP POP PUSH1 0xB DUP3 ADD SLOAD PUSH1 0x20 DUP3 ADD MSTORE PUSH1 0xC DUP3 ADD SLOAD PUSH1 0xFF DUP1 DUP3 AND PUSH1 0x40 DUP5 ADD MSTORE PUSH2 0x100 SWAP2 DUP3 SWAP1 DIV DUP2 AND PUSH1 0x60 DUP5 ADD MSTORE PUSH1 0xD DUP5 ADD SLOAD PUSH1 0x80 DUP1 DUP6 ADD SWAP2 SWAP1 SWAP2 MSTORE PUSH1 0xE DUP6 ADD SLOAD PUSH1 0xA0 DUP6 ADD MSTORE PUSH1 0xF DUP6 ADD SLOAD PUSH1 0xC0 DUP6 ADD MSTORE PUSH1 0x10 DUP6 ADD SLOAD SWAP1 SWAP2 AND PUSH1 0xE0 DUP5 ADD MSTORE PUSH1 0x11 SWAP1 SWAP4 ADD SLOAD SWAP2 ADD MSTORE DUP2 ADD MLOAD MLOAD SWAP1 SWAP2 POP PUSH2 0x560A JUMPI PUSH1 0x40 MLOAD PUSH3 0x461BCD PUSH1 0xE5 SHL DUP2 MSTORE PUSH1 0x20 PUSH1 0x4 DUP3 ADD MSTORE PUSH1 0xF PUSH1 0x24 DUP3 ADD MSTORE PUSH15 0x3737BA103337BAB7321037B93232B9 PUSH1 0x89 SHL PUSH1 0x44 DUP3 ADD MSTORE PUSH1 0x64 ADD PUSH2 0xAF2 JUMP JUMPDEST PUSH0 JUMPDEST DUP2 PUSH1 0xA0 ADD MLOAD MLOAD DUP2 PUSH1 0xFF AND LT ISZERO PUSH2 0x5A71 JUMPI PUSH1 0x11 SLOAD PUSH1 0xA0 DUP4 ADD MLOAD DUP1 MLOAD PUSH0 SWAP3 PUSH1 0x1 PUSH1 0x1 PUSH1 0xA0 SHL SUB AND SWAP2 PUSH3 0x41C629 SWAP2 PUSH1 0xFF DUP7 AND SWAP1 DUP2 LT PUSH2 0x564A JUMPI PUSH2 0x564A PUSH2 0x8BD8 JUMP JUMPDEST PUSH1 0x20 MUL PUSH1 0x20 ADD ADD MLOAD DUP6 PUSH1 0xC0 ADD MLOAD DUP6 PUSH1 0xFF AND DUP2 MLOAD DUP2 LT PUSH2 0x566B JUMPI PUSH2 0x566B PUSH2 0x8BD8 JUMP JUMPDEST PUSH1 0x20 MUL PUSH1 0x20 ADD ADD MLOAD PUSH1 0x40 MLOAD DUP4 PUSH4 0xFFFFFFFF AND PUSH1 0xE0 SHL DUP2 MSTORE PUSH1 0x4 ADD PUSH2 0x5690 SWAP3 SWAP2 SWAP1 PUSH2 0x90CF JUMP JUMPDEST PUSH1 0xC0 PUSH1 0x40 MLOAD DUP1 DUP4 SUB DUP2 DUP7 GAS STATICCALL ISZERO DUP1 ISZERO PUSH2 0x56AB JUMPI RETURNDATASIZE PUSH0 DUP1 RETURNDATACOPY RETURNDATASIZE PUSH0 REVERT JUMPDEST POP POP POP POP PUSH1 0x40 MLOAD RETURNDATASIZE PUSH1 0x1F NOT PUSH1 0x1F DUP3 ADD AND DUP3 ADD DUP1 PUSH1 0x40 MSTORE POP DUP2 ADD SWAP1 PUSH2 0x56CF SWAP2 SWAP1 PUSH2 0x90DD JUMP JUMPDEST SWAP1 POP DUP3 PUSH1 0xE0 ADD MLOAD DUP3 PUSH1 0xFF AND DUP2 MLOAD DUP2 LT PUSH2 0x56EA JUMPI PUSH2 0x56EA PUSH2 0x8BD8 JUMP JUMPDEST PUSH1 0x20 MUL PUSH1 0x20 ADD ADD MLOAD DUP2 PUSH1 0x20 ADD MLOAD PUSH1 0x80 ADD MLOAD PUSH2 0x5705 SWAP2 SWAP1 PUSH2 0x921C JUMP JUMPDEST PUSH1 0x20 DUP3 ADD MLOAD PUSH1 0x80 ADD MSTORE PUSH1 0x11 SLOAD PUSH1 0xA0 DUP5 ADD MLOAD DUP1 MLOAD PUSH1 0x1 PUSH1 0x1 PUSH1 0xA0 SHL SUB SWAP1 SWAP3 AND SWAP2 PUSH4 0x1D068976 SWAP2 SWAP1 PUSH1 0xFF DUP7 AND SWAP1 DUP2 LT PUSH2 0x573E JUMPI PUSH2 0x573E PUSH2 0x8BD8 JUMP JUMPDEST PUSH1 0x20 MUL PUSH1 0x20 ADD ADD MLOAD DUP6 PUSH1 0xC0 ADD MLOAD DUP6 PUSH1 0xFF AND DUP2 MLOAD DUP2 LT PUSH2 0x575F JUMPI PUSH2 0x575F PUSH2 0x8BD8 JUMP JUMPDEST PUSH1 0x20 MUL PUSH1 0x20 ADD ADD MLOAD DUP5 PUSH1 0x20 ADD MLOAD PUSH1 0x80 ADD MLOAD DUP8 PUSH1 0xE0 ADD MLOAD DUP8 PUSH1 0xFF AND DUP2 MLOAD DUP2 LT PUSH2 0x5789 JUMPI PUSH2 0x5789 PUSH2 0x8BD8 JUMP JUMPDEST PUSH1 0x20 MUL PUSH1 0x20 ADD ADD MLOAD PUSH1 0x40 MLOAD DUP6 PUSH4 0xFFFFFFFF AND PUSH1 0xE0 SHL DUP2 MSTORE PUSH1 0x4 ADD PUSH2 0x57C6 SWAP5 SWAP4 SWAP3 SWAP2 SWAP1 SWAP4 DUP5 MSTORE PUSH1 0x20 DUP5 ADD SWAP3 SWAP1 SWAP3 MSTORE PUSH1 0x40 DUP4 ADD MSTORE PUSH1 0x60 DUP3 ADD MSTORE PUSH1 0x80 ADD SWAP1 JUMP JUMPDEST PUSH0 PUSH1 0x40 MLOAD DUP1 DUP4 SUB DUP2 PUSH0 DUP8 DUP1 EXTCODESIZE ISZERO DUP1 ISZERO PUSH2 0x57DD JUMPI PUSH0 DUP1 REVERT JUMPDEST POP GAS CALL ISZERO DUP1 ISZERO PUSH2 0x57EF JUMPI RETURNDATASIZE PUSH0 DUP1 RETURNDATACOPY RETURNDATASIZE PUSH0 REVERT JUMPDEST POP POP PUSH1 0x13 SLOAD PUSH1 0xA0 DUP7 ADD MLOAD DUP1 MLOAD PUSH1 0x1 PUSH1 0x1 PUSH1 0xA0 SHL SUB SWAP1 SWAP3 AND SWAP4 POP PUSH4 0x8286980C SWAP3 POP SWAP1 PUSH1 0xFF DUP7 AND SWAP1 DUP2 LT PUSH2 0x5823 JUMPI PUSH2 0x5823 PUSH2 0x8BD8 JUMP JUMPDEST PUSH1 0x20 MUL PUSH1 0x20 ADD ADD MLOAD PUSH1 0x40 MLOAD DUP3 PUSH4 0xFFFFFFFF AND PUSH1 0xE0 SHL DUP2 MSTORE PUSH1 0x4 ADD PUSH2 0x5849 SWAP2 DUP2 MSTORE PUSH1 0x20 ADD SWAP1 JUMP JUMPDEST PUSH0 PUSH1 0x40 MLOAD DUP1 DUP4 SUB DUP2 PUSH0 DUP8 DUP1 EXTCODESIZE ISZERO DUP1 ISZERO PUSH2 0x5860 JUMPI PUSH0 DUP1 REVERT JUMPDEST POP GAS CALL ISZERO DUP1 ISZERO PUSH2 0x5872 JUMPI RETURNDATASIZE PUSH0 DUP1 RETURNDATACOPY RETURNDATASIZE PUSH0 REVERT JUMPDEST POP POP PUSH1 0x13 SLOAD PUSH1 0x20 DUP7 ADD MLOAD PUSH1 0xA0 DUP8 ADD MLOAD DUP1 MLOAD PUSH1 0x1 PUSH1 0x1 PUSH1 0xA0 SHL SUB SWAP1 SWAP4 AND SWAP5 POP PUSH4 0x5B956627 SWAP4 POP SWAP1 SWAP2 PUSH1 0xFF DUP8 AND SWAP1 DUP2 LT PUSH2 0x58AC JUMPI PUSH2 0x58AC PUSH2 0x8BD8 JUMP JUMPDEST PUSH1 0x20 MUL PUSH1 0x20 ADD ADD MLOAD PUSH1 0x40 MLOAD DUP4 PUSH4 0xFFFFFFFF AND PUSH1 0xE0 SHL DUP2 MSTORE PUSH1 0x4 ADD PUSH2 0x58E5 SWAP3 SWAP2 SWAP1 PUSH1 0x1 PUSH1 0x1 PUSH1 0xA0 SHL SUB SWAP3 SWAP1 SWAP3 AND DUP3 MSTORE PUSH1 0x20 DUP3 ADD MSTORE PUSH1 0x40 ADD SWAP1 JUMP JUMPDEST PUSH0 PUSH1 0x40 MLOAD DUP1 DUP4 SUB DUP2 PUSH0 DUP8 DUP1 EXTCODESIZE ISZERO DUP1 ISZERO PUSH2 0x58FC JUMPI PUSH0 DUP1 REVERT JUMPDEST POP GAS CALL ISZERO DUP1 ISZERO PUSH2 0x590E JUMPI RETURNDATASIZE PUSH0 DUP1 RETURNDATACOPY RETURNDATASIZE PUSH0 REVERT JUMPDEST POP PUSH1 0x1 SWAP3 POP PUSH2 0x591B SWAP2 POP POP JUMP JUMPDEST PUSH1 0xFF AND DUP4 PUSH2 0x180 ADD MLOAD PUSH1 0xFF AND EQ PUSH2 0x59DA JUMPI PUSH0 PUSH2 0x5936 DUP6 PUSH2 0x2809 JUMP JUMPDEST SWAP1 POP PUSH0 PUSH1 0x40 MLOAD DUP1 PUSH1 0x40 ADD PUSH1 0x40 MSTORE DUP1 DUP7 PUSH1 0xA0 ADD MLOAD DUP7 PUSH1 0xFF AND DUP2 MLOAD DUP2 LT PUSH2 0x595D JUMPI PUSH2 0x595D PUSH2 0x8BD8 JUMP JUMPDEST PUSH1 0x20 SWAP1 DUP2 MUL SWAP2 SWAP1 SWAP2 ADD DUP2 ADD MLOAD DUP3 MSTORE TIMESTAMP SWAP2 ADD MSTORE PUSH1 0x13 SLOAD PUSH1 0x60 DUP1 DUP6 ADD MLOAD ADD MLOAD PUSH1 0x40 MLOAD PUSH4 0x7A752E9 PUSH1 0xE3 SHL DUP2 MSTORE SWAP3 SWAP4 POP PUSH1 0x1 PUSH1 0x1 PUSH1 0xA0 SHL SUB SWAP1 SWAP2 AND SWAP2 PUSH4 0x3D3A9748 SWAP2 PUSH2 0x59AA SWAP2 DUP6 SWAP1 PUSH1 0x4 ADD PUSH2 0x9243 JUMP JUMPDEST PUSH0 PUSH1 0x40 MLOAD DUP1 DUP4 SUB DUP2 PUSH0 DUP8 DUP1 EXTCODESIZE ISZERO DUP1 ISZERO PUSH2 0x59C1 JUMPI PUSH0 DUP1 REVERT JUMPDEST POP GAS CALL ISZERO DUP1 ISZERO PUSH2 0x59D3 JUMPI RETURNDATASIZE PUSH0 DUP1 RETURNDATACOPY RETURNDATASIZE PUSH0 REVERT JUMPDEST POP POP POP POP POP POP JUMPDEST PUSH1 0x13 SLOAD PUSH1 0xA0 DUP5 ADD MLOAD DUP1 MLOAD PUSH1 0x1 PUSH1 0x1 PUSH1 0xA0 SHL SUB SWAP1 SWAP3 AND SWAP2 PUSH4 0xB34210E1 SWAP2 SWAP1 PUSH1 0xFF DUP7 AND SWAP1 DUP2 LT PUSH2 0x5A0A JUMPI PUSH2 0x5A0A PUSH2 0x8BD8 JUMP JUMPDEST PUSH1 0x20 MUL PUSH1 0x20 ADD ADD MLOAD PUSH1 0x40 MLOAD DUP3 PUSH4 0xFFFFFFFF AND PUSH1 0xE0 SHL DUP2 MSTORE PUSH1 0x4 ADD PUSH2 0x5A30 SWAP2 DUP2 MSTORE PUSH1 0x20 ADD SWAP1 JUMP JUMPDEST PUSH0 PUSH1 0x40 MLOAD DUP1 DUP4 SUB DUP2 PUSH0 DUP8 DUP1 EXTCODESIZE ISZERO DUP1 ISZERO PUSH2 0x5A47 JUMPI PUSH0 DUP1 REVERT JUMPDEST POP GAS CALL ISZERO DUP1 ISZERO PUSH2 0x5A59 JUMPI RETURNDATASIZE PUSH0 DUP1 RETURNDATACOPY RETURNDATASIZE PUSH0 REVERT JUMPDEST POP POP POP POP POP DUP1 DUP1 PUSH2 0x5A69 SWAP1 PUSH2 0x926F JUMP JUMPDEST SWAP2 POP POP PUSH2 0x560C JUMP JUMPDEST POP PUSH1 0x40 DUP1 MLOAD PUSH1 0x60 DUP2 ADD DUP3 MSTORE PUSH2 0x220 DUP4 ADD MLOAD PUSH1 0xFF SWAP1 DUP2 AND DUP3 MSTORE PUSH2 0x160 DUP5 ADD MLOAD PUSH1 0x20 DUP1 DUP5 ADD SWAP2 DUP3 MSTORE DUP6 DUP6 ADD MLOAD PUSH1 0x1 PUSH1 0x1 PUSH1 0xA0 SHL SUB SWAP1 DUP2 AND DUP6 DUP8 ADD SWAP1 DUP2 MSTORE PUSH1 0x12 SLOAD SWAP3 DUP9 ADD MLOAD SWAP7 MLOAD PUSH4 0x25F36E5 PUSH1 0xE0 SHL DUP2 MSTORE SWAP7 DUP3 AND PUSH1 0x4 DUP9 ADD MSTORE DUP6 MLOAD SWAP1 SWAP5 AND PUSH1 0x24 DUP8 ADD MSTORE SWAP2 MLOAD PUSH1 0x44 DUP7 ADD MSTORE SWAP2 MLOAD DUP2 AND PUSH1 0x64 DUP6 ADD MSTORE SWAP2 SWAP3 SWAP2 AND SWAP1 PUSH4 0x25F36E5 SWAP1 PUSH1 0x84 ADD PUSH0 PUSH1 0x40 MLOAD DUP1 DUP4 SUB DUP2 PUSH0 DUP8 DUP1 EXTCODESIZE ISZERO DUP1 ISZERO PUSH2 0x5B06 JUMPI PUSH0 DUP1 REVERT JUMPDEST POP GAS CALL ISZERO DUP1 ISZERO PUSH2 0x5B18 JUMPI RETURNDATASIZE PUSH0 DUP1 RETURNDATACOPY RETURNDATASIZE PUSH0 REVERT JUMPDEST POP POP PUSH1 0x12 SLOAD DUP5 MLOAD PUSH0 DUP8 DUP2 MSTORE PUSH1 0x1 PUSH1 0x20 DUP2 SWAP1 MSTORE PUSH1 0x40 SWAP2 DUP3 SWAP1 KECCAK256 ADD SLOAD PUSH1 0x11 SLOAD PUSH1 0xA0 DUP10 ADD MLOAD SWAP3 MLOAD PUSH4 0x66573F61 PUSH1 0xE0 SHL DUP2 MSTORE PUSH1 0x1 PUSH1 0x1 PUSH1 0xA0 SHL SUB SWAP6 DUP7 AND SWAP8 POP PUSH4 0xE205D94E SWAP7 POP SWAP4 SWAP5 SWAP2 DUP3 AND SWAP4 SWAP2 AND SWAP2 PUSH4 0x66573F61 SWAP2 PUSH2 0x5B76 SWAP2 SWAP1 PUSH1 0x4 ADD PUSH2 0x928D JUMP JUMPDEST PUSH0 PUSH1 0x40 MLOAD DUP1 DUP4 SUB DUP2 DUP7 GAS STATICCALL ISZERO DUP1 ISZERO PUSH2 0x5B90 JUMPI RETURNDATASIZE PUSH0 DUP1 RETURNDATACOPY RETURNDATASIZE PUSH0 REVERT JUMPDEST POP POP POP POP PUSH1 0x40 MLOAD RETURNDATASIZE PUSH0 DUP3 RETURNDATACOPY PUSH1 0x1F RETURNDATASIZE SWAP1 DUP2 ADD PUSH1 0x1F NOT AND DUP3 ADD PUSH1 0x40 MSTORE PUSH2 0x5BB7 SWAP2 SWAP1 DUP2 ADD SWAP1 PUSH2 0x92C4 JUMP JUMPDEST PUSH1 0x40 MLOAD DUP5 PUSH4 0xFFFFFFFF AND PUSH1 0xE0 SHL DUP2 MSTORE PUSH1 0x4 ADD PUSH2 0x5BD5 SWAP4 SWAP3 SWAP2 SWAP1 PUSH2 0x9353 JUMP JUMPDEST PUSH0 PUSH1 0x40 MLOAD DUP1 DUP4 SUB DUP2 PUSH0 DUP8 DUP1 EXTCODESIZE ISZERO DUP1 ISZERO PUSH2 0x5BEC JUMPI PUSH0 DUP1 REVERT JUMPDEST POP GAS CALL ISZERO DUP1 ISZERO PUSH2 0x5BFE JUMPI RETURNDATASIZE PUSH0 DUP1 RETURNDATACOPY RETURNDATASIZE PUSH0 REVERT JUMPDEST POP POP POP POP PUSH32 0x88227F5ACC5172D082FF1158C7E6B54727DDDCE3806E3CE09AACFBDA6A8E4D39 DUP4 PUSH1 0x40 MLOAD PUSH2 0x5C33 SWAP2 DUP2 MSTORE PUSH1 0x20 ADD SWAP1 JUMP JUMPDEST PUSH1 0x40 MLOAD DUP1 SWAP2 SUB SWAP1 LOG1 POP POP POP POP POP JUMP JUMPDEST PUSH1 0x60 PUSH0 DUP3 MLOAD PUSH1 0x1 PUSH1 0x1 PUSH1 0x40 SHL SUB DUP2 GT ISZERO PUSH2 0x5C5E JUMPI PUSH2 0x5C5E PUSH2 0x7627 JUMP JUMPDEST PUSH1 0x40 MLOAD SWAP1 DUP1 DUP3 MSTORE DUP1 PUSH1 0x20 MUL PUSH1 0x20 ADD DUP3 ADD PUSH1 0x40 MSTORE DUP1 ISZERO PUSH2 0x5C97 JUMPI DUP2 PUSH1 0x20 ADD JUMPDEST PUSH2 0x5C84 PUSH2 0x741E JUMP JUMPDEST DUP2 MSTORE PUSH1 0x20 ADD SWAP1 PUSH1 0x1 SWAP1 SUB SWAP1 DUP2 PUSH2 0x5C7C JUMPI SWAP1 POP JUMPDEST POP SWAP1 POP PUSH0 JUMPDEST DUP4 MLOAD DUP2 LT ISZERO PUSH2 0x2F05 JUMPI PUSH2 0x5CE8 DUP5 DUP3 DUP2 MLOAD DUP2 LT PUSH2 0x5CBA JUMPI PUSH2 0x5CBA PUSH2 0x8BD8 JUMP JUMPDEST PUSH1 0x20 MUL PUSH1 0x20 ADD ADD MLOAD PUSH0 ADD MLOAD DUP6 DUP4 DUP2 MLOAD DUP2 LT PUSH2 0x5CD7 JUMPI PUSH2 0x5CD7 PUSH2 0x8BD8 JUMP JUMPDEST PUSH1 0x20 MUL PUSH1 0x20 ADD ADD MLOAD PUSH1 0x20 ADD MLOAD PUSH2 0x24F3 JUMP JUMPDEST DUP3 DUP3 DUP2 MLOAD DUP2 LT PUSH2 0x5CFA JUMPI PUSH2 0x5CFA PUSH2 0x8BD8 JUMP JUMPDEST PUSH1 0x20 SWAP1 DUP2 MUL SWAP2 SWAP1 SWAP2 ADD ADD MSTORE PUSH1 0x1 ADD PUSH2 0x5C9C JUMP JUMPDEST PUSH0 DUP1 JUMPDEST PUSH1 0x1 DUP4 ADD SLOAD DUP2 LT ISZERO PUSH2 0x2DBF JUMPI PUSH0 DUP4 PUSH1 0x1 ADD DUP3 DUP2 SLOAD DUP2 LT PUSH2 0x5D32 JUMPI PUSH2 0x5D32 PUSH2 0x8BD8 JUMP JUMPDEST PUSH0 SWAP2 DUP3 MSTORE PUSH1 0x20 DUP1 DUP4 KECCAK256 PUSH1 0x4 PUSH1 0x5 SWAP1 SWAP4 MUL ADD SWAP2 DUP3 ADD SLOAD DUP4 MSTORE PUSH1 0x1 SWAP1 MSTORE PUSH1 0x40 DUP3 KECCAK256 SWAP1 SWAP3 POP SWAP1 JUMPDEST PUSH1 0x1 DUP4 ADD SLOAD DUP2 LT ISZERO PUSH2 0x5E6E JUMPI PUSH0 DUP4 PUSH1 0x1 ADD DUP3 DUP2 SLOAD DUP2 LT PUSH2 0x5D78 JUMPI PUSH2 0x5D78 PUSH2 0x8BD8 JUMP JUMPDEST SWAP1 PUSH0 MSTORE PUSH1 0x20 PUSH0 KECCAK256 ADD SLOAD SWAP1 POP PUSH0 DUP5 PUSH0 ADD DUP4 DUP2 SLOAD DUP2 LT PUSH2 0x5D98 JUMPI PUSH2 0x5D98 PUSH2 0x8BD8 JUMP JUMPDEST SWAP1 PUSH0 MSTORE PUSH1 0x20 PUSH0 KECCAK256 ADD SLOAD SWAP1 POP PUSH0 DUP6 PUSH1 0x2 ADD DUP5 DUP2 SLOAD DUP2 LT PUSH2 0x5DB9 JUMPI PUSH2 0x5DB9 PUSH2 0x8BD8 JUMP JUMPDEST SWAP1 PUSH0 MSTORE PUSH1 0x20 PUSH0 KECCAK256 ADD SLOAD SWAP1 POP PUSH0 JUMPDEST PUSH1 0x5 DUP7 ADD SLOAD DUP2 LT ISZERO PUSH2 0x5E5E JUMPI DUP4 DUP7 PUSH1 0x5 ADD DUP3 DUP2 SLOAD DUP2 LT PUSH2 0x5DE8 JUMPI PUSH2 0x5DE8 PUSH2 0x8BD8 JUMP JUMPDEST SWAP1 PUSH0 MSTORE PUSH1 0x20 PUSH0 KECCAK256 ADD SLOAD EQ DUP1 ISZERO PUSH2 0x5E1A JUMPI POP DUP2 DUP7 PUSH1 0x6 ADD DUP3 DUP2 SLOAD DUP2 LT PUSH2 0x5E0F JUMPI PUSH2 0x5E0F PUSH2 0x8BD8 JUMP JUMPDEST SWAP1 PUSH0 MSTORE PUSH1 0x20 PUSH0 KECCAK256 ADD SLOAD EQ JUMPDEST ISZERO PUSH2 0x5E56 JUMPI DUP3 DUP7 PUSH1 0x7 ADD DUP3 DUP2 SLOAD DUP2 LT PUSH2 0x5E35 JUMPI PUSH2 0x5E35 PUSH2 0x8BD8 JUMP JUMPDEST SWAP1 PUSH0 MSTORE PUSH1 0x20 PUSH0 KECCAK256 ADD PUSH0 DUP3 DUP3 SLOAD PUSH2 0x5E4B SWAP2 SWAP1 PUSH2 0x93BA JUMP JUMPDEST SWAP1 SWAP2 SSTORE POP PUSH2 0x5E5E SWAP1 POP JUMP JUMPDEST PUSH1 0x1 ADD PUSH2 0x5DC6 JUMP JUMPDEST POP POP PUSH1 0x1 SWAP1 SWAP3 ADD SWAP2 POP PUSH2 0x5D56 SWAP1 POP JUMP JUMPDEST POP POP POP PUSH1 0x1 ADD PUSH2 0x5D10 JUMP JUMPDEST PUSH0 DUP1 JUMPDEST DUP3 MLOAD DUP2 LT ISZERO PUSH2 0x2DBF JUMPI PUSH0 PUSH1 0x1 PUSH0 DUP6 DUP5 DUP2 MLOAD DUP2 LT PUSH2 0x5E9B JUMPI PUSH2 0x5E9B PUSH2 0x8BD8 JUMP JUMPDEST PUSH1 0x20 MUL PUSH1 0x20 ADD ADD MLOAD PUSH1 0x80 ADD MLOAD DUP2 MSTORE PUSH1 0x20 ADD SWAP1 DUP2 MSTORE PUSH1 0x20 ADD PUSH0 KECCAK256 SWAP1 POP DUP1 PUSH0 ADD SLOAD PUSH0 SUB PUSH2 0x5F2F JUMPI PUSH1 0x40 MLOAD PUSH3 0x461BCD PUSH1 0xE5 SHL DUP2 MSTORE PUSH1 0x20 PUSH1 0x4 DUP3 ADD MSTORE PUSH1 0x4B PUSH1 0x24 DUP3 ADD MSTORE PUSH0 DUP1 MLOAD PUSH1 0x20 PUSH2 0x9520 DUP4 CODECOPY DUP2 MLOAD SWAP2 MSTORE PUSH1 0x44 DUP3 ADD MSTORE PUSH32 0x223A20313030322C20226D657373616765223A224F7264657220646F6573206E PUSH1 0x64 DUP3 ADD MSTORE PUSH11 0x6F7420657869737473227D PUSH1 0xA8 SHL PUSH1 0x84 DUP3 ADD MSTORE PUSH1 0xA4 ADD PUSH2 0xAF2 JUMP JUMPDEST PUSH1 0x1 DUP2 ADD SLOAD PUSH1 0x1 PUSH1 0x1 PUSH1 0xA0 SHL SUB AND CALLER EQ PUSH2 0x5FBB JUMPI PUSH1 0x40 MLOAD PUSH3 0x461BCD PUSH1 0xE5 SHL DUP2 MSTORE PUSH1 0x20 PUSH1 0x4 DUP3 ADD MSTORE PUSH1 0x54 PUSH1 0x24 DUP3 ADD MSTORE PUSH0 DUP1 MLOAD PUSH1 0x20 PUSH2 0x9520 DUP4 CODECOPY DUP2 MLOAD SWAP2 MSTORE PUSH1 0x44 DUP3 ADD MSTORE PUSH32 0x223A20313030332C20226D657373616765223A22596F7520617265206E6F7420 PUSH1 0x64 DUP3 ADD MSTORE PUSH20 0x6F776E6572206F6620746865206F72646572227D PUSH1 0x60 SHL PUSH1 0x84 DUP3 ADD MSTORE PUSH1 0xA4 ADD PUSH2 0xAF2 JUMP JUMPDEST PUSH1 0xC DUP2 ADD SLOAD PUSH1 0xFF AND PUSH1 0x1 EQ PUSH2 0x603E JUMPI PUSH1 0x40 MLOAD PUSH3 0x461BCD PUSH1 0xE5 SHL DUP2 MSTORE PUSH1 0x20 PUSH1 0x4 DUP3 ADD MSTORE PUSH1 0x50 PUSH1 0x24 DUP3 ADD MSTORE PUSH0 DUP1 MLOAD PUSH1 0x20 PUSH2 0x9520 DUP4 CODECOPY DUP2 MLOAD SWAP2 MSTORE PUSH1 0x44 DUP3 ADD MSTORE PUSH32 0x223A20313030332C20226D657373616765223A224F72646572206973206E6F74 PUSH1 0x64 DUP3 ADD MSTORE PUSH16 0x2073746F72616765206F72646572227D PUSH1 0x80 SHL PUSH1 0x84 DUP3 ADD MSTORE PUSH1 0xA4 ADD PUSH2 0xAF2 JUMP JUMPDEST PUSH0 JUMPDEST DUP5 DUP4 DUP2 MLOAD DUP2 LT PUSH2 0x6052 JUMPI PUSH2 0x6052 PUSH2 0x8BD8 JUMP JUMPDEST PUSH1 0x20 MUL PUSH1 0x20 ADD ADD MLOAD PUSH1 0x20 ADD MLOAD MLOAD DUP2 LT ISZERO PUSH2 0x629E JUMPI PUSH0 DUP6 DUP5 DUP2 MLOAD DUP2 LT PUSH2 0x6079 JUMPI PUSH2 0x6079 PUSH2 0x8BD8 JUMP JUMPDEST PUSH1 0x20 MUL PUSH1 0x20 ADD ADD MLOAD PUSH1 0x20 ADD MLOAD DUP3 DUP2 MLOAD DUP2 LT PUSH2 0x6096 JUMPI PUSH2 0x6096 PUSH2 0x8BD8 JUMP JUMPDEST PUSH1 0x20 MUL PUSH1 0x20 ADD ADD MLOAD SWAP1 POP PUSH0 DUP7 DUP6 DUP2 MLOAD DUP2 LT PUSH2 0x60B3 JUMPI PUSH2 0x60B3 PUSH2 0x8BD8 JUMP JUMPDEST PUSH1 0x20 MUL PUSH1 0x20 ADD ADD MLOAD PUSH0 ADD MLOAD DUP4 DUP2 MLOAD DUP2 LT PUSH2 0x60CF JUMPI PUSH2 0x60CF PUSH2 0x8BD8 JUMP JUMPDEST PUSH1 0x20 MUL PUSH1 0x20 ADD ADD MLOAD SWAP1 POP PUSH0 DUP8 DUP7 DUP2 MLOAD DUP2 LT PUSH2 0x60EC JUMPI PUSH2 0x60EC PUSH2 0x8BD8 JUMP JUMPDEST PUSH1 0x20 MUL PUSH1 0x20 ADD ADD MLOAD PUSH1 0x40 ADD MLOAD DUP5 DUP2 MLOAD DUP2 LT PUSH2 0x6109 JUMPI PUSH2 0x6109 PUSH2 0x8BD8 JUMP JUMPDEST PUSH1 0x20 MUL PUSH1 0x20 ADD ADD MLOAD SWAP1 POP PUSH0 DUP1 PUSH0 SWAP1 POP JUMPDEST PUSH1 0x5 DUP8 ADD SLOAD DUP2 LT ISZERO PUSH2 0x622E JUMPI DUP5 DUP8 PUSH1 0x5 ADD DUP3 DUP2 SLOAD DUP2 LT PUSH2 0x613B JUMPI PUSH2 0x613B PUSH2 0x8BD8 JUMP JUMPDEST SWAP1 PUSH0 MSTORE PUSH1 0x20 PUSH0 KECCAK256 ADD SLOAD EQ DUP1 ISZERO PUSH2 0x616D JUMPI POP DUP3 DUP8 PUSH1 0x6 ADD DUP3 DUP2 SLOAD DUP2 LT PUSH2 0x6162 JUMPI PUSH2 0x6162 PUSH2 0x8BD8 JUMP JUMPDEST SWAP1 PUSH0 MSTORE PUSH1 0x20 PUSH0 KECCAK256 ADD SLOAD EQ JUMPDEST ISZERO PUSH2 0x6226 JUMPI DUP4 DUP8 PUSH1 0x7 ADD DUP3 DUP2 SLOAD DUP2 LT PUSH2 0x6188 JUMPI PUSH2 0x6188 PUSH2 0x8BD8 JUMP JUMPDEST SWAP1 PUSH0 MSTORE PUSH1 0x20 PUSH0 KECCAK256 ADD SLOAD LT ISZERO PUSH2 0x61EB JUMPI PUSH1 0x40 MLOAD PUSH3 0x461BCD PUSH1 0xE5 SHL DUP2 MSTORE PUSH1 0x20 PUSH1 0x4 DUP3 ADD MSTORE PUSH1 0x23 PUSH1 0x24 DUP3 ADD MSTORE PUSH32 0x6E6F7420656E6F756768207175616E7469747920696E20706172656E74206F72 PUSH1 0x44 DUP3 ADD MSTORE PUSH3 0x3232B9 PUSH1 0xE9 SHL PUSH1 0x64 DUP3 ADD MSTORE PUSH1 0x84 ADD PUSH2 0xAF2 JUMP JUMPDEST DUP4 DUP8 PUSH1 0x7 ADD DUP3 DUP2 SLOAD DUP2 LT PUSH2 0x6201 JUMPI PUSH2 0x6201 PUSH2 0x8BD8 JUMP JUMPDEST SWAP1 PUSH0 MSTORE PUSH1 0x20 PUSH0 KECCAK256 ADD PUSH0 DUP3 DUP3 SLOAD PUSH2 0x6217 SWAP2 SWAP1 PUSH2 0x921C JUMP JUMPDEST SWAP1 SWAP2 SSTORE POP PUSH1 0x1 SWAP3 POP PUSH2 0x622E SWAP1 POP JUMP JUMPDEST PUSH1 0x1 ADD PUSH2 0x6119 JUMP JUMPDEST POP DUP1 PUSH2 0x628E JUMPI PUSH1 0x40 MLOAD PUSH3 0x461BCD PUSH1 0xE5 SHL DUP2 MSTORE PUSH1 0x20 PUSH1 0x4 DUP3 ADD MSTORE PUSH1 0x29 PUSH1 0x24 DUP3 ADD MSTORE PUSH32 0x70726F6475637420494420646F6573206E6F7420657869737420696E20706172 PUSH1 0x44 DUP3 ADD MSTORE PUSH9 0x32B73A1037B93232B9 PUSH1 0xB9 SHL PUSH1 0x64 DUP3 ADD MSTORE PUSH1 0x84 ADD PUSH2 0xAF2 JUMP JUMPDEST POP POP PUSH1 0x1 SWAP1 SWAP3 ADD SWAP2 POP PUSH2 0x6040 SWAP1 POP JUMP JUMPDEST POP POP PUSH1 0x1 ADD PUSH2 0x5E7C JUMP JUMPDEST PUSH1 0x60 PUSH0 PUSH2 0x62B4 DUP4 PUSH2 0x721A JUMP JUMPDEST PUSH1 0x1 ADD SWAP1 POP PUSH0 DUP2 PUSH1 0x1 PUSH1 0x1 PUSH1 0x40 SHL SUB DUP2 GT ISZERO PUSH2 0x62D2 JUMPI PUSH2 0x62D2 PUSH2 0x7627 JUMP JUMPDEST PUSH1 0x40 MLOAD SWAP1 DUP1 DUP3 MSTORE DUP1 PUSH1 0x1F ADD PUSH1 0x1F NOT AND PUSH1 0x20 ADD DUP3 ADD PUSH1 0x40 MSTORE DUP1 ISZERO PUSH2 0x62FC JUMPI PUSH1 0x20 DUP3 ADD DUP2 DUP1 CALLDATASIZE DUP4 CALLDATACOPY ADD SWAP1 POP JUMPDEST POP SWAP1 POP DUP2 DUP2 ADD PUSH1 0x20 ADD JUMPDEST PUSH0 NOT ADD PUSH16 0x181899199A1A9B1B9C1CB0B131B232B3 PUSH1 0x81 SHL PUSH1 0xA DUP7 MOD BYTE DUP2 MSTORE8 PUSH1 0xA DUP6 DIV SWAP5 POP DUP5 PUSH2 0x6306 JUMPI JUMPDEST POP SWAP4 SWAP3 POP POP POP JUMP JUMPDEST PUSH0 DUP1 DUP1 JUMPDEST PUSH1 0x1 PUSH1 0x1 PUSH1 0xA0 SHL SUB DUP6 AND PUSH0 SWAP1 DUP2 MSTORE PUSH1 0x20 DUP2 SWAP1 MSTORE PUSH1 0x40 SWAP1 KECCAK256 PUSH1 0x2 ADD SLOAD DUP2 LT ISZERO PUSH2 0x63B5 JUMPI PUSH1 0x1 PUSH1 0x1 PUSH1 0xA0 SHL SUB DUP6 AND PUSH0 SWAP1 DUP2 MSTORE PUSH1 0x20 DUP2 SWAP1 MSTORE PUSH1 0x40 SWAP1 KECCAK256 PUSH1 0x2 ADD DUP1 SLOAD DUP6 SWAP2 SWAP1 DUP4 SWAP1 DUP2 LT PUSH2 0x638D JUMPI PUSH2 0x638D PUSH2 0x8BD8 JUMP JUMPDEST SWAP1 PUSH0 MSTORE PUSH1 0x20 PUSH0 KECCAK256 SWAP1 PUSH1 0x5 MUL ADD PUSH0 ADD SLOAD SUB PUSH2 0x63AD JUMPI DUP1 SWAP3 POP PUSH1 0x1 SWAP2 POP PUSH2 0x63B5 JUMP JUMPDEST PUSH1 0x1 ADD PUSH2 0x633C JUMP JUMPDEST POP DUP1 PUSH2 0x643B JUMPI PUSH1 0x40 MLOAD PUSH3 0x461BCD PUSH1 0xE5 SHL DUP2 MSTORE PUSH1 0x20 PUSH1 0x4 DUP3 ADD MSTORE PUSH1 0x5C PUSH1 0x24 DUP3 ADD MSTORE PUSH0 DUP1 MLOAD PUSH1 0x20 PUSH2 0x9520 DUP4 CODECOPY DUP2 MLOAD SWAP2 MSTORE PUSH1 0x44 DUP3 ADD MSTORE PUSH32 0x223A2031302C20226D657373616765223A225468652063617274206974656D20 PUSH1 0x64 DUP3 ADD MSTORE PUSH28 0x646F6573206E6F7420657869737420696E207468652063617274227D PUSH1 0x20 SHL PUSH1 0x84 DUP3 ADD MSTORE PUSH1 0xA4 ADD PUSH2 0xAF2 JUMP JUMPDEST PUSH1 0x1 PUSH1 0x1 PUSH1 0xA0 SHL SUB DUP5 AND PUSH0 SWAP1 DUP2 MSTORE PUSH1 0x20 DUP2 SWAP1 MSTORE PUSH1 0x40 SWAP1 KECCAK256 PUSH1 0x2 ADD SLOAD DUP3 LT PUSH2 0x64C7 JUMPI PUSH1 0x40 MLOAD PUSH3 0x461BCD PUSH1 0xE5 SHL DUP2 MSTORE PUSH1 0x20 PUSH1 0x4 DUP3 ADD MSTORE PUSH1 0x47 PUSH1 0x24 DUP3 ADD MSTORE PUSH0 DUP1 MLOAD PUSH1 0x20 PUSH2 0x9520 DUP4 CODECOPY DUP2 MLOAD SWAP2 MSTORE PUSH1 0x44 DUP3 ADD MSTORE PUSH32 0x223A2031312C20226D657373616765223A22496E646578206F7574206F662062 PUSH1 0x64 DUP3 ADD MSTORE PUSH7 0x6F756E6473227D PUSH1 0xC8 SHL PUSH1 0x84 DUP3 ADD MSTORE PUSH1 0xA4 ADD PUSH2 0xAF2 JUMP JUMPDEST PUSH1 0x13 SLOAD PUSH1 0x1 PUSH1 0x1 PUSH1 0xA0 SHL SUB DUP6 DUP2 AND PUSH0 SWAP1 DUP2 MSTORE PUSH1 0x20 DUP2 SWAP1 MSTORE PUSH1 0x40 SWAP1 KECCAK256 PUSH1 0x2 ADD DUP1 SLOAD SWAP2 SWAP1 SWAP3 AND SWAP2 PUSH4 0xD24043CB SWAP2 DUP8 SWAP2 SWAP1 DUP7 SWAP1 DUP2 LT PUSH2 0x6505 JUMPI PUSH2 0x6505 PUSH2 0x8BD8 JUMP JUMPDEST SWAP1 PUSH0 MSTORE PUSH1 0x20 PUSH0 KECCAK256 SWAP1 PUSH1 0x5 MUL ADD PUSH1 0x1 ADD SLOAD PUSH0 PUSH1 0x1 PUSH1 0x40 MLOAD DUP6 PUSH4 0xFFFFFFFF AND PUSH1 0xE0 SHL DUP2 MSTORE PUSH1 0x4 ADD PUSH2 0x6537 SWAP5 SWAP4 SWAP3 SWAP2 SWAP1 PUSH2 0x93CD JUMP JUMPDEST PUSH0 PUSH1 0x40 MLOAD DUP1 DUP4 SUB DUP2 PUSH0 DUP8 DUP1 EXTCODESIZE ISZERO DUP1 ISZERO PUSH2 0x654E JUMPI PUSH0 DUP1 REVERT JUMPDEST POP GAS CALL ISZERO DUP1 ISZERO PUSH2 0x6560 JUMPI RETURNDATASIZE PUSH0 DUP1 RETURNDATACOPY RETURNDATASIZE PUSH0 REVERT JUMPDEST POP POP PUSH1 0x13 SLOAD PUSH1 0x1 PUSH1 0x1 PUSH1 0xA0 SHL SUB DUP8 DUP2 AND PUSH0 SWAP1 DUP2 MSTORE PUSH1 0x20 DUP2 SWAP1 MSTORE PUSH1 0x40 SWAP1 KECCAK256 PUSH1 0x2 ADD DUP1 SLOAD SWAP2 SWAP1 SWAP3 AND SWAP4 POP PUSH4 0xD24043CB SWAP3 POP DUP8 SWAP2 SWAP1 DUP7 SWAP1 DUP2 LT PUSH2 0x65A2 JUMPI PUSH2 0x65A2 PUSH2 0x8BD8 JUMP JUMPDEST SWAP1 PUSH0 MSTORE PUSH1 0x20 PUSH0 KECCAK256 SWAP1 PUSH1 0x5 MUL ADD PUSH1 0x1 ADD SLOAD PUSH1 0x11 PUSH0 SWAP1 SLOAD SWAP1 PUSH2 0x100 EXP SWAP1 DIV PUSH1 0x1 PUSH1 0x1 PUSH1 0xA0 SHL SUB AND PUSH1 0x1 PUSH1 0x1 PUSH1 0xA0 SHL SUB AND PUSH4 0xB9DB15B4 PUSH0 DUP1 DUP12 PUSH1 0x1 PUSH1 0x1 PUSH1 0xA0 SHL SUB AND PUSH1 0x1 PUSH1 0x1 PUSH1 0xA0 SHL SUB AND DUP2 MSTORE PUSH1 0x20 ADD SWAP1 DUP2 MSTORE PUSH1 0x20 ADD PUSH0 KECCAK256 PUSH1 0x2 ADD DUP9 DUP2 SLOAD DUP2 LT PUSH2 0x660B JUMPI PUSH2 0x660B PUSH2 0x8BD8 JUMP JUMPDEST SWAP1 PUSH0 MSTORE PUSH1 0x20 PUSH0 KECCAK256 SWAP1 PUSH1 0x5 MUL ADD PUSH1 0x1 ADD SLOAD PUSH1 0x40 MLOAD DUP3 PUSH4 0xFFFFFFFF AND PUSH1 0xE0 SHL DUP2 MSTORE PUSH1 0x4 ADD PUSH2 0x6639 SWAP2 DUP2 MSTORE PUSH1 0x20 ADD SWAP1 JUMP JUMPDEST PUSH0 PUSH1 0x40 MLOAD DUP1 DUP4 SUB DUP2 DUP7 GAS STATICCALL ISZERO DUP1 ISZERO PUSH2 0x6653 JUMPI RETURNDATASIZE PUSH0 DUP1 RETURNDATACOPY RETURNDATASIZE PUSH0 REVERT JUMPDEST POP POP POP POP PUSH1 0x40 MLOAD RETURNDATASIZE PUSH0 DUP3 RETURNDATACOPY PUSH1 0x1F RETURNDATASIZE SWAP1 DUP2 ADD PUSH1 0x1F NOT AND DUP3 ADD PUSH1 0x40 MSTORE PUSH2 0x667A SWAP2 SWAP1 DUP2 ADD SWAP1 PUSH2 0x8DF5 JUMP JUMPDEST PUSH1 0x20 ADD MLOAD PUSH2 0x180 ADD MLOAD PUSH0 PUSH1 0x40 MLOAD DUP6 PUSH4 0xFFFFFFFF AND PUSH1 0xE0 SHL DUP2 MSTORE PUSH1 0x4 ADD PUSH2 0x66A3 SWAP5 SWAP4 SWAP3 SWAP2 SWAP1 PUSH2 0x93CD JUMP JUMPDEST PUSH0 PUSH1 0x40 MLOAD DUP1 DUP4 SUB DUP2 PUSH0 DUP8 DUP1 EXTCODESIZE ISZERO DUP1 ISZERO PUSH2 0x66BA JUMPI PUSH0 DUP1 REVERT JUMPDEST POP GAS CALL ISZERO DUP1 ISZERO PUSH2 0x66CC JUMPI RETURNDATASIZE PUSH0 DUP1 RETURNDATACOPY RETURNDATASIZE PUSH0 REVERT JUMPDEST POP POP PUSH1 0x13 SLOAD PUSH1 0x11 SLOAD PUSH1 0x1 PUSH1 0x1 PUSH1 0xA0 SHL SUB DUP9 DUP2 AND PUSH0 SWAP1 DUP2 MSTORE PUSH1 0x20 DUP2 SWAP1 MSTORE PUSH1 0x40 SWAP1 KECCAK256 PUSH1 0x2 ADD DUP1 SLOAD SWAP4 DUP3 AND SWAP6 POP PUSH4 0x92A198D5 SWAP5 POP SWAP2 AND SWAP2 PUSH4 0xB9DB15B4 SWAP2 SWAP1 DUP8 SWAP1 DUP2 LT PUSH2 0x6717 JUMPI PUSH2 0x6717 PUSH2 0x8BD8 JUMP JUMPDEST SWAP1 PUSH0 MSTORE PUSH1 0x20 PUSH0 KECCAK256 SWAP1 PUSH1 0x5 MUL ADD PUSH1 0x1 ADD SLOAD PUSH1 0x40 MLOAD DUP3 PUSH4 0xFFFFFFFF AND PUSH1 0xE0 SHL DUP2 MSTORE PUSH1 0x4 ADD PUSH2 0x6745 SWAP2 DUP2 MSTORE PUSH1 0x20 ADD SWAP1 JUMP JUMPDEST PUSH0 PUSH1 0x40 MLOAD DUP1 DUP4 SUB DUP2 DUP7 GAS STATICCALL ISZERO DUP1 ISZERO PUSH2 0x675F JUMPI RETURNDATASIZE PUSH0 DUP1 RETURNDATACOPY RETURNDATASIZE PUSH0 REVERT JUMPDEST POP POP POP POP PUSH1 0x40 MLOAD RETURNDATASIZE PUSH0 DUP3 RETURNDATACOPY PUSH1 0x1F RETURNDATASIZE SWAP1 DUP2 ADD PUSH1 0x1F NOT AND DUP3 ADD PUSH1 0x40 MSTORE PUSH2 0x6786 SWAP2 SWAP1 DUP2 ADD SWAP1 PUSH2 0x8DF5 JUMP JUMPDEST PUSH1 0x20 ADD MLOAD PUSH2 0x180 ADD MLOAD PUSH1 0x40 MLOAD DUP3 PUSH4 0xFFFFFFFF AND PUSH1 0xE0 SHL DUP2 MSTORE PUSH1 0x4 ADD PUSH2 0x67AB SWAP2 SWAP1 PUSH2 0x8107 JUMP JUMPDEST PUSH0 PUSH1 0x40 MLOAD DUP1 DUP4 SUB DUP2 PUSH0 DUP8 DUP1 EXTCODESIZE ISZERO DUP1 ISZERO PUSH2 0x67C2 JUMPI PUSH0 DUP1 REVERT JUMPDEST POP GAS CALL ISZERO DUP1 ISZERO PUSH2 0x67D4 JUMPI RETURNDATASIZE PUSH0 DUP1 RETURNDATACOPY RETURNDATASIZE PUSH0 REVERT JUMPDEST POP POP POP PUSH1 0x1 PUSH1 0x1 PUSH1 0xA0 SHL SUB DUP6 AND PUSH0 SWAP1 DUP2 MSTORE PUSH1 0x20 DUP2 SWAP1 MSTORE PUSH1 0x40 SWAP1 KECCAK256 PUSH1 0x2 ADD SLOAD PUSH2 0x67FF SWAP2 POP PUSH1 0x1 SWAP1 PUSH2 0x921C JUMP JUMPDEST DUP3 LT ISZERO PUSH2 0x68F5 JUMPI DUP2 JUMPDEST PUSH1 0x1 PUSH1 0x1 PUSH1 0xA0 SHL SUB DUP6 AND PUSH0 SWAP1 DUP2 MSTORE PUSH1 0x20 DUP2 SWAP1 MSTORE PUSH1 0x40 SWAP1 KECCAK256 PUSH1 0x2 ADD SLOAD PUSH2 0x682F SWAP1 PUSH1 0x1 SWAP1 PUSH2 0x921C JUMP JUMPDEST DUP2 LT ISZERO PUSH2 0x68F3 JUMPI PUSH1 0x1 PUSH1 0x1 PUSH1 0xA0 SHL SUB DUP6 AND PUSH0 SWAP1 DUP2 MSTORE PUSH1 0x20 DUP2 SWAP1 MSTORE PUSH1 0x40 SWAP1 KECCAK256 PUSH1 0x2 ADD PUSH2 0x685B DUP3 PUSH1 0x1 PUSH2 0x93BA JUMP JUMPDEST DUP2 SLOAD DUP2 LT PUSH2 0x686B JUMPI PUSH2 0x686B PUSH2 0x8BD8 JUMP JUMPDEST SWAP1 PUSH0 MSTORE PUSH1 0x20 PUSH0 KECCAK256 SWAP1 PUSH1 0x5 MUL ADD PUSH0 DUP1 DUP8 PUSH1 0x1 PUSH1 0x1 PUSH1 0xA0 SHL SUB AND PUSH1 0x1 PUSH1 0x1 PUSH1 0xA0 SHL SUB AND DUP2 MSTORE PUSH1 0x20 ADD SWAP1 DUP2 MSTORE PUSH1 0x20 ADD PUSH0 KECCAK256 PUSH1 0x2 ADD DUP3 DUP2 SLOAD DUP2 LT PUSH2 0x68AD JUMPI PUSH2 0x68AD PUSH2 0x8BD8 JUMP JUMPDEST PUSH0 SWAP2 DUP3 MSTORE PUSH1 0x20 SWAP1 SWAP2 KECCAK256 DUP3 SLOAD PUSH1 0x5 SWAP1 SWAP3 MUL ADD SWAP1 DUP2 SSTORE PUSH1 0x1 DUP1 DUP4 ADD SLOAD DUP2 DUP4 ADD SSTORE PUSH1 0x2 DUP1 DUP5 ADD SLOAD SWAP1 DUP4 ADD SSTORE PUSH1 0x3 DUP1 DUP5 ADD SLOAD SWAP1 DUP4 ADD SSTORE PUSH1 0x4 SWAP3 DUP4 ADD SLOAD SWAP3 SWAP1 SWAP2 ADD SWAP2 SWAP1 SWAP2 SSTORE ADD PUSH2 0x6808 JUMP JUMPDEST POP JUMPDEST PUSH1 0x1 PUSH1 0x1 PUSH1 0xA0 SHL SUB DUP5 AND PUSH0 SWAP1 DUP2 MSTORE PUSH1 0x20 DUP2 SWAP1 MSTORE PUSH1 0x40 SWAP1 KECCAK256 PUSH1 0x2 ADD SLOAD PUSH2 0x6981 JUMPI PUSH1 0x40 MLOAD PUSH3 0x461BCD PUSH1 0xE5 SHL DUP2 MSTORE PUSH1 0x20 PUSH1 0x4 DUP3 ADD MSTORE PUSH1 0x49 PUSH1 0x24 DUP3 ADD MSTORE PUSH0 DUP1 MLOAD PUSH1 0x20 PUSH2 0x9520 DUP4 CODECOPY DUP2 MLOAD SWAP2 MSTORE PUSH1 0x44 DUP3 ADD MSTORE PUSH32 0x223A2031322C20226D657373616765223A224361727420697320616C72656164 PUSH1 0x64 DUP3 ADD MSTORE PUSH9 0x7920656D707479227D PUSH1 0xB8 SHL PUSH1 0x84 DUP3 ADD MSTORE PUSH1 0xA4 ADD PUSH2 0xAF2 JUMP JUMPDEST PUSH1 0x1 PUSH1 0x1 PUSH1 0xA0 SHL SUB DUP5 AND PUSH0 SWAP1 DUP2 MSTORE PUSH1 0x20 DUP2 SWAP1 MSTORE PUSH1 0x40 SWAP1 KECCAK256 PUSH1 0x2 ADD DUP1 SLOAD DUP1 PUSH2 0x69AA JUMPI PUSH2 0x69AA PUSH2 0x922F JUMP JUMPDEST PUSH0 DUP3 DUP2 MSTORE PUSH1 0x20 DUP2 KECCAK256 PUSH1 0x5 PUSH0 NOT SWAP1 SWAP4 ADD SWAP3 DUP4 MUL ADD DUP2 DUP2 SSTORE PUSH1 0x1 DUP2 ADD DUP3 SWAP1 SSTORE PUSH1 0x2 DUP2 ADD DUP3 SWAP1 SSTORE PUSH1 0x3 DUP2 ADD DUP3 SWAP1 SSTORE PUSH1 0x4 ADD SSTORE SWAP1 SSTORE POP POP POP POP JUMP JUMPDEST PUSH2 0x6A28 PUSH1 0x40 MLOAD DUP1 PUSH2 0x100 ADD PUSH1 0x40 MSTORE DUP1 PUSH1 0x60 DUP2 MSTORE PUSH1 0x20 ADD PUSH1 0x60 DUP2 MSTORE PUSH1 0x20 ADD PUSH1 0x60 DUP2 MSTORE PUSH1 0x20 ADD PUSH1 0x60 DUP2 MSTORE PUSH1 0x20 ADD PUSH1 0x60 DUP2 MSTORE PUSH1 0x20 ADD PUSH1 0x60 DUP2 MSTORE PUSH1 0x20 ADD PUSH1 0x60 DUP2 MSTORE PUSH1 0x20 ADD PUSH0 DUP2 MSTORE POP SWAP1 JUMP JUMPDEST PUSH1 0x14 SLOAD PUSH1 0x40 MLOAD PUSH4 0x45ACE91F PUSH1 0xE1 SHL DUP2 MSTORE PUSH0 SWAP2 PUSH1 0x1 PUSH1 0x1 PUSH1 0xA0 SHL SUB AND SWAP1 PUSH4 0x8B59D23E SWAP1 PUSH2 0x6A58 SWAP1 DUP7 SWAP1 PUSH1 0x4 ADD PUSH2 0x8107 JUMP JUMPDEST PUSH1 0x20 PUSH1 0x40 MLOAD DUP1 DUP4 SUB DUP2 DUP7 GAS STATICCALL ISZERO DUP1 ISZERO PUSH2 0x6A73 JUMPI RETURNDATASIZE PUSH0 DUP1 RETURNDATACOPY RETURNDATASIZE PUSH0 REVERT JUMPDEST POP POP POP POP PUSH1 0x40 MLOAD RETURNDATASIZE PUSH1 0x1F NOT PUSH1 0x1F DUP3 ADD AND DUP3 ADD DUP1 PUSH1 0x40 MSTORE POP DUP2 ADD SWAP1 PUSH2 0x6A97 SWAP2 SWAP1 PUSH2 0x93F7 JUMP JUMPDEST DUP5 MLOAD SWAP1 SWAP2 POP DUP1 PUSH1 0x1 PUSH1 0x1 PUSH1 0x40 SHL SUB DUP2 GT ISZERO PUSH2 0x6AB4 JUMPI PUSH2 0x6AB4 PUSH2 0x7627 JUMP JUMPDEST PUSH1 0x40 MLOAD SWAP1 DUP1 DUP3 MSTORE DUP1 PUSH1 0x20 MUL PUSH1 0x20 ADD DUP3 ADD PUSH1 0x40 MSTORE DUP1 ISZERO PUSH2 0x6ADD JUMPI DUP2 PUSH1 0x20 ADD PUSH1 0x20 DUP3 MUL DUP1 CALLDATASIZE DUP4 CALLDATACOPY ADD SWAP1 POP JUMPDEST POP DUP4 MSTORE DUP1 PUSH1 0x1 PUSH1 0x1 PUSH1 0x40 SHL SUB DUP2 GT ISZERO PUSH2 0x6AF8 JUMPI PUSH2 0x6AF8 PUSH2 0x7627 JUMP JUMPDEST PUSH1 0x40 MLOAD SWAP1 DUP1 DUP3 MSTORE DUP1 PUSH1 0x20 MUL PUSH1 0x20 ADD DUP3 ADD PUSH1 0x40 MSTORE DUP1 ISZERO PUSH2 0x6B21 JUMPI DUP2 PUSH1 0x20 ADD PUSH1 0x20 DUP3 MUL DUP1 CALLDATASIZE DUP4 CALLDATACOPY ADD SWAP1 POP JUMPDEST POP PUSH1 0x20 DUP5 ADD MSTORE DUP1 PUSH1 0x1 PUSH1 0x1 PUSH1 0x40 SHL SUB DUP2 GT ISZERO PUSH2 0x6B3F JUMPI PUSH2 0x6B3F PUSH2 0x7627 JUMP JUMPDEST PUSH1 0x40 MLOAD SWAP1 DUP1 DUP3 MSTORE DUP1 PUSH1 0x20 MUL PUSH1 0x20 ADD DUP3 ADD PUSH1 0x40 MSTORE DUP1 ISZERO PUSH2 0x6B68 JUMPI DUP2 PUSH1 0x20 ADD PUSH1 0x20 DUP3 MUL DUP1 CALLDATASIZE DUP4 CALLDATACOPY ADD SWAP1 POP JUMPDEST POP PUSH1 0x40 DUP5 ADD MSTORE DUP1 PUSH1 0x1 PUSH1 0x1 PUSH1 0x40 SHL SUB DUP2 GT ISZERO PUSH2 0x6B86 JUMPI PUSH2 0x6B86 PUSH2 0x7627 JUMP JUMPDEST PUSH1 0x40 MLOAD SWAP1 DUP1 DUP3 MSTORE DUP1 PUSH1 0x20 MUL PUSH1 0x20 ADD DUP3 ADD PUSH1 0x40 MSTORE DUP1 ISZERO PUSH2 0x6BAF JUMPI DUP2 PUSH1 0x20 ADD PUSH1 0x20 DUP3 MUL DUP1 CALLDATASIZE DUP4 CALLDATACOPY ADD SWAP1 POP JUMPDEST POP PUSH1 0xC0 DUP5 ADD MSTORE DUP1 PUSH1 0x1 PUSH1 0x1 PUSH1 0x40 SHL SUB DUP2 GT ISZERO PUSH2 0x6BCD JUMPI PUSH2 0x6BCD PUSH2 0x7627 JUMP JUMPDEST PUSH1 0x40 MLOAD SWAP1 DUP1 DUP3 MSTORE DUP1 PUSH1 0x20 MUL PUSH1 0x20 ADD DUP3 ADD PUSH1 0x40 MSTORE DUP1 ISZERO PUSH2 0x6BF6 JUMPI DUP2 PUSH1 0x20 ADD PUSH1 0x20 DUP3 MUL DUP1 CALLDATASIZE DUP4 CALLDATACOPY ADD SWAP1 POP JUMPDEST POP PUSH1 0x80 DUP5 ADD MSTORE DUP1 PUSH1 0x1 PUSH1 0x1 PUSH1 0x40 SHL SUB DUP2 GT ISZERO PUSH2 0x6C14 JUMPI PUSH2 0x6C14 PUSH2 0x7627 JUMP JUMPDEST PUSH1 0x40 MLOAD SWAP1 DUP1 DUP3 MSTORE DUP1 PUSH1 0x20 MUL PUSH1 0x20 ADD DUP3 ADD PUSH1 0x40 MSTORE DUP1 ISZERO PUSH2 0x6C3D JUMPI DUP2 PUSH1 0x20 ADD PUSH1 0x20 DUP3 MUL DUP1 CALLDATASIZE DUP4 CALLDATACOPY ADD SWAP1 POP JUMPDEST POP PUSH1 0x60 DUP5 ADD MSTORE DUP1 PUSH1 0x1 PUSH1 0x1 PUSH1 0x40 SHL SUB DUP2 GT ISZERO PUSH2 0x6C5B JUMPI PUSH2 0x6C5B PUSH2 0x7627 JUMP JUMPDEST PUSH1 0x40 MLOAD SWAP1 DUP1 DUP3 MSTORE DUP1 PUSH1 0x20 MUL PUSH1 0x20 ADD DUP3 ADD PUSH1 0x40 MSTORE DUP1 ISZERO PUSH2 0x6C84 JUMPI DUP2 PUSH1 0x20 ADD PUSH1 0x20 DUP3 MUL DUP1 CALLDATASIZE DUP4 CALLDATACOPY ADD SWAP1 POP JUMPDEST POP PUSH1 0xA0 DUP5 ADD MSTORE PUSH0 JUMPDEST DUP2 DUP2 LT ISZERO PUSH2 0x2800 JUMPI PUSH0 DUP1 JUMPDEST PUSH1 0x1 PUSH1 0x1 PUSH1 0xA0 SHL SUB DUP8 AND PUSH0 SWAP1 DUP2 MSTORE PUSH1 0x20 DUP2 SWAP1 MSTORE PUSH1 0x40 SWAP1 KECCAK256 PUSH1 0x2 ADD SLOAD DUP2 LT ISZERO PUSH2 0x6D32 JUMPI DUP8 DUP4 DUP2 MLOAD DUP2 LT PUSH2 0x6CCB JUMPI PUSH2 0x6CCB PUSH2 0x8BD8 JUMP JUMPDEST PUSH1 0x20 MUL PUSH1 0x20 ADD ADD MLOAD PUSH1 0x60 ADD MLOAD PUSH0 DUP1 DUP10 PUSH1 0x1 PUSH1 0x1 PUSH1 0xA0 SHL SUB AND PUSH1 0x1 PUSH1 0x1 PUSH1 0xA0 SHL SUB AND DUP2 MSTORE PUSH1 0x20 ADD SWAP1 DUP2 MSTORE PUSH1 0x20 ADD PUSH0 KECCAK256 PUSH1 0x2 ADD DUP3 DUP2 SLOAD DUP2 LT PUSH2 0x6D0D JUMPI PUSH2 0x6D0D PUSH2 0x8BD8 JUMP JUMPDEST SWAP1 PUSH0 MSTORE PUSH1 0x20 PUSH0 KECCAK256 SWAP1 PUSH1 0x5 MUL ADD PUSH0 ADD SLOAD SUB PUSH2 0x6D2A JUMPI PUSH1 0x1 SWAP2 POP PUSH2 0x6D32 JUMP JUMPDEST PUSH1 0x1 ADD PUSH2 0x6C97 JUMP JUMPDEST POP DUP1 PUSH2 0x6DB6 JUMPI PUSH1 0x40 MLOAD PUSH3 0x461BCD PUSH1 0xE5 SHL DUP2 MSTORE PUSH1 0x20 PUSH1 0x4 DUP3 ADD MSTORE PUSH1 0x5A PUSH1 0x24 DUP3 ADD MSTORE PUSH0 DUP1 MLOAD PUSH1 0x20 PUSH2 0x9520 DUP4 CODECOPY DUP2 MLOAD SWAP2 MSTORE PUSH1 0x44 DUP3 ADD MSTORE PUSH32 0x223A2031332C20226D657373616765223A2022636172744974656D496420646F PUSH1 0x64 DUP3 ADD MSTORE PUSH26 0x6573206E6F7420657869737420696E207468652063617274227D PUSH1 0x30 SHL PUSH1 0x84 DUP3 ADD MSTORE PUSH1 0xA4 ADD PUSH2 0xAF2 JUMP JUMPDEST PUSH1 0x11 SLOAD DUP8 MLOAD PUSH1 0x1 PUSH1 0x1 PUSH1 0xA0 SHL SUB SWAP1 SWAP2 AND SWAP1 PUSH4 0xB9DB15B4 SWAP1 DUP10 SWAP1 DUP6 SWAP1 DUP2 LT PUSH2 0x6DDF JUMPI PUSH2 0x6DDF PUSH2 0x8BD8 JUMP JUMPDEST PUSH1 0x20 MUL PUSH1 0x20 ADD ADD MLOAD PUSH0 ADD MLOAD PUSH1 0x40 MLOAD DUP3 PUSH4 0xFFFFFFFF AND PUSH1 0xE0 SHL DUP2 MSTORE PUSH1 0x4 ADD PUSH2 0x6E08 SWAP2 DUP2 MSTORE PUSH1 0x20 ADD SWAP1 JUMP JUMPDEST PUSH0 PUSH1 0x40 MLOAD DUP1 DUP4 SUB DUP2 DUP7 GAS STATICCALL ISZERO DUP1 ISZERO PUSH2 0x6E22 JUMPI RETURNDATASIZE PUSH0 DUP1 RETURNDATACOPY RETURNDATASIZE PUSH0 REVERT JUMPDEST POP POP POP POP PUSH1 0x40 MLOAD RETURNDATASIZE PUSH0 DUP3 RETURNDATACOPY PUSH1 0x1F RETURNDATASIZE SWAP1 DUP2 ADD PUSH1 0x1F NOT AND DUP3 ADD PUSH1 0x40 MSTORE PUSH2 0x6E49 SWAP2 SWAP1 DUP2 ADD SWAP1 PUSH2 0x8DF5 JUMP JUMPDEST PUSH1 0x20 ADD MLOAD PUSH2 0x2C0 ADD MLOAD PUSH2 0x6E75 PUSH1 0xF PUSH1 0x40 MLOAD DUP1 PUSH1 0x60 ADD PUSH1 0x40 MSTORE DUP1 PUSH1 0x23 DUP2 MSTORE PUSH1 0x20 ADD PUSH2 0x9428 PUSH1 0x23 SWAP2 CODECOPY PUSH2 0xD45 JUMP JUMPDEST SWAP1 PUSH2 0x6E93 JUMPI PUSH1 0x40 MLOAD PUSH3 0x461BCD PUSH1 0xE5 SHL DUP2 MSTORE PUSH1 0x4 ADD PUSH2 0xAF2 SWAP2 SWAP1 PUSH2 0x7CF5 JUMP JUMPDEST POP PUSH1 0x11 SLOAD DUP8 MLOAD PUSH0 SWAP2 PUSH1 0x1 PUSH1 0x1 PUSH1 0xA0 SHL SUB AND SWAP1 PUSH3 0x41C629 SWAP1 DUP11 SWAP1 DUP7 SWAP1 DUP2 LT PUSH2 0x6EBC JUMPI PUSH2 0x6EBC PUSH2 0x8BD8 JUMP JUMPDEST PUSH1 0x20 MUL PUSH1 0x20 ADD ADD MLOAD PUSH0 ADD MLOAD DUP11 DUP7 DUP2 MLOAD DUP2 LT PUSH2 0x6ED9 JUMPI PUSH2 0x6ED9 PUSH2 0x8BD8 JUMP JUMPDEST PUSH1 0x20 MUL PUSH1 0x20 ADD ADD MLOAD PUSH1 0x40 ADD MLOAD PUSH1 0x40 MLOAD DUP4 PUSH4 0xFFFFFFFF AND PUSH1 0xE0 SHL DUP2 MSTORE PUSH1 0x4 ADD PUSH2 0x6F02 SWAP3 SWAP2 SWAP1 PUSH2 0x90CF JUMP JUMPDEST PUSH1 0xC0 PUSH1 0x40 MLOAD DUP1 DUP4 SUB DUP2 DUP7 GAS STATICCALL ISZERO DUP1 ISZERO PUSH2 0x6F1D JUMPI RETURNDATASIZE PUSH0 DUP1 RETURNDATACOPY RETURNDATASIZE PUSH0 REVERT JUMPDEST POP POP POP POP PUSH1 0x40 MLOAD RETURNDATASIZE PUSH1 0x1F NOT PUSH1 0x1F DUP3 ADD AND DUP3 ADD DUP1 PUSH1 0x40 MSTORE POP DUP2 ADD SWAP1 PUSH2 0x6F41 SWAP2 SWAP1 PUSH2 0x90DD JUMP JUMPDEST SWAP1 POP PUSH0 DUP1 DUP7 ISZERO PUSH2 0x6F59 JUMPI POP PUSH1 0x20 DUP1 DUP4 ADD MLOAD ADD MLOAD PUSH2 0x6FE4 JUMP JUMPDEST POP PUSH1 0x20 DUP1 DUP4 ADD MLOAD PUSH1 0x40 DUP2 ADD MLOAD SWAP2 ADD MLOAD PUSH2 0x6F72 SWAP1 DUP3 PUSH2 0x921C JUMP JUMPDEST SWAP2 POP PUSH0 DUP3 GT PUSH2 0x6FE4 JUMPI PUSH1 0x40 MLOAD PUSH3 0x461BCD PUSH1 0xE5 SHL DUP2 MSTORE PUSH1 0x20 PUSH1 0x4 DUP3 ADD MSTORE PUSH1 0x44 PUSH1 0x24 DUP3 ADD DUP2 SWAP1 MSTORE PUSH0 DUP1 MLOAD PUSH1 0x20 PUSH2 0x9520 DUP4 CODECOPY DUP2 MLOAD SWAP2 MSTORE SWAP1 DUP3 ADD MSTORE PUSH32 0x223A2031332C20226D657373616765223A202277726F6E672064696666507269 PUSH1 0x64 DUP3 ADD MSTORE PUSH4 0x6365227D PUSH1 0xE0 SHL PUSH1 0x84 DUP3 ADD MSTORE PUSH1 0xA4 ADD PUSH2 0xAF2 JUMP JUMPDEST DUP10 DUP6 DUP2 MLOAD DUP2 LT PUSH2 0x6FF6 JUMPI PUSH2 0x6FF6 PUSH2 0x8BD8 JUMP JUMPDEST PUSH1 0x20 MUL PUSH1 0x20 ADD ADD MLOAD PUSH1 0x20 ADD MLOAD DUP2 PUSH2 0x700D SWAP2 SWAP1 PUSH2 0x9410 JUMP JUMPDEST DUP9 PUSH1 0xE0 ADD DUP2 DUP2 MLOAD PUSH2 0x701E SWAP2 SWAP1 PUSH2 0x93BA JUMP JUMPDEST SWAP1 MSTORE POP PUSH1 0x20 DUP4 ADD MLOAD PUSH1 0x80 ADD MLOAD DUP11 MLOAD DUP12 SWAP1 DUP8 SWAP1 DUP2 LT PUSH2 0x703E JUMPI PUSH2 0x703E PUSH2 0x8BD8 JUMP JUMPDEST PUSH1 0x20 MUL PUSH1 0x20 ADD ADD MLOAD PUSH1 0x20 ADD MLOAD GT ISZERO PUSH2 0x706F PUSH1 0xD PUSH1 0x40 MLOAD DUP1 PUSH1 0x60 ADD PUSH1 0x40 MSTORE DUP1 PUSH1 0x2A DUP2 MSTORE PUSH1 0x20 ADD PUSH2 0x9480 PUSH1 0x2A SWAP2 CODECOPY PUSH2 0xD45 JUMP JUMPDEST SWAP1 PUSH2 0x708D JUMPI PUSH1 0x40 MLOAD PUSH3 0x461BCD PUSH1 0xE5 SHL DUP2 MSTORE PUSH1 0x4 ADD PUSH2 0xAF2 SWAP2 SWAP1 PUSH2 0x7CF5 JUMP JUMPDEST POP DUP10 DUP6 DUP2 MLOAD DUP2 LT PUSH2 0x70A0 JUMPI PUSH2 0x70A0 PUSH2 0x8BD8 JUMP JUMPDEST PUSH1 0x20 MUL PUSH1 0x20 ADD ADD MLOAD PUSH0 ADD MLOAD DUP9 PUSH0 ADD MLOAD DUP7 DUP2 MLOAD DUP2 LT PUSH2 0x70C0 JUMPI PUSH2 0x70C0 PUSH2 0x8BD8 JUMP JUMPDEST PUSH1 0x20 MUL PUSH1 0x20 ADD ADD DUP2 DUP2 MSTORE POP POP DUP10 DUP6 DUP2 MLOAD DUP2 LT PUSH2 0x70DE JUMPI PUSH2 0x70DE PUSH2 0x8BD8 JUMP JUMPDEST PUSH1 0x20 MUL PUSH1 0x20 ADD ADD MLOAD PUSH1 0x40 ADD MLOAD DUP9 PUSH1 0x20 ADD MLOAD DUP7 DUP2 MLOAD DUP2 LT PUSH2 0x7100 JUMPI PUSH2 0x7100 PUSH2 0x8BD8 JUMP JUMPDEST PUSH1 0x20 MUL PUSH1 0x20 ADD ADD DUP2 DUP2 MSTORE POP POP DUP10 DUP6 DUP2 MLOAD DUP2 LT PUSH2 0x711E JUMPI PUSH2 0x711E PUSH2 0x8BD8 JUMP JUMPDEST PUSH1 0x20 MUL PUSH1 0x20 ADD ADD MLOAD PUSH1 0x20 ADD MLOAD DUP9 PUSH1 0x40 ADD MLOAD DUP7 DUP2 MLOAD DUP2 LT PUSH2 0x7140 JUMPI PUSH2 0x7140 PUSH2 0x8BD8 JUMP JUMPDEST PUSH1 0x20 MUL PUSH1 0x20 ADD ADD DUP2 DUP2 MSTORE POP POP DUP2 DUP9 PUSH1 0x60 ADD MLOAD DUP7 DUP2 MLOAD DUP2 LT PUSH2 0x7163 JUMPI PUSH2 0x7163 PUSH2 0x8BD8 JUMP JUMPDEST PUSH1 0x20 MUL PUSH1 0x20 ADD ADD DUP2 DUP2 MSTORE POP POP DUP1 DUP9 PUSH1 0x80 ADD MLOAD DUP7 DUP2 MLOAD DUP2 LT PUSH2 0x7186 JUMPI PUSH2 0x7186 PUSH2 0x8BD8 JUMP JUMPDEST PUSH1 0x20 MUL PUSH1 0x20 ADD ADD DUP2 DUP2 MSTORE POP POP DUP3 PUSH1 0x20 ADD MLOAD PUSH1 0x60 ADD MLOAD DUP9 PUSH1 0xA0 ADD MLOAD DUP7 DUP2 MLOAD DUP2 LT PUSH2 0x71B1 JUMPI PUSH2 0x71B1 PUSH2 0x8BD8 JUMP JUMPDEST PUSH1 0x20 MUL PUSH1 0x20 ADD ADD DUP2 DUP2 MSTORE POP POP DUP10 DUP6 DUP2 MLOAD DUP2 LT PUSH2 0x71CF JUMPI PUSH2 0x71CF PUSH2 0x8BD8 JUMP JUMPDEST PUSH1 0x20 MUL PUSH1 0x20 ADD ADD MLOAD PUSH1 0x60 ADD MLOAD DUP9 PUSH1 0xC0 ADD MLOAD DUP7 DUP2 MLOAD DUP2 LT PUSH2 0x71F1 JUMPI PUSH2 0x71F1 PUSH2 0x8BD8 JUMP JUMPDEST PUSH1 0x20 SWAP1 DUP2 MUL SWAP2 SWAP1 SWAP2 ADD ADD MSTORE POP POP PUSH1 0x1 SWAP1 SWAP3 ADD SWAP2 POP PUSH2 0x6C8C SWAP1 POP JUMP JUMPDEST PUSH2 0x7216 DUP3 DUP3 PUSH2 0x6338 JUMP JUMPDEST POP POP JUMP JUMPDEST PUSH0 DUP1 PUSH19 0x184F03E93FF9F4DAA797ED6E38ED64BF6A1F01 PUSH1 0x40 SHL DUP4 LT PUSH2 0x7258 JUMPI PUSH19 0x184F03E93FF9F4DAA797ED6E38ED64BF6A1F01 PUSH1 0x40 SHL DUP4 DIV SWAP3 POP PUSH1 0x40 ADD JUMPDEST PUSH10 0x4EE2D6D415B85ACEF81 PUSH1 0x20 SHL DUP4 LT PUSH2 0x7282 JUMPI PUSH10 0x4EE2D6D415B85ACEF81 PUSH1 0x20 SHL DUP4 DIV SWAP3 POP PUSH1 0x20 ADD JUMPDEST PUSH7 0x2386F26FC10000 DUP4 LT PUSH2 0x72A0 JUMPI PUSH7 0x2386F26FC10000 DUP4 DIV SWAP3 POP PUSH1 0x10 ADD JUMPDEST PUSH4 0x5F5E100 DUP4 LT PUSH2 0x72B8 JUMPI PUSH4 0x5F5E100 DUP4 DIV SWAP3 POP PUSH1 0x8 ADD JUMPDEST PUSH2 0x2710 DUP4 LT PUSH2 0x72CC JUMPI PUSH2 0x2710 DUP4 DIV SWAP3 POP PUSH1 0x4 ADD JUMPDEST PUSH1 0x64 DUP4 LT PUSH2 0x72DE JUMPI PUSH1 0x64 DUP4 DIV SWAP3 POP PUSH1 0x2 ADD JUMPDEST PUSH1 0xA DUP4 LT PUSH2 0xD79 JUMPI PUSH1 0x1 ADD SWAP3 SWAP2 POP POP JUMP JUMPDEST POP DUP1 SLOAD PUSH0 DUP3 SSTORE PUSH1 0x5 MUL SWAP1 PUSH0 MSTORE PUSH1 0x20 PUSH0 KECCAK256 SWAP1 DUP2 ADD SWAP1 PUSH2 0x1A53 SWAP2 SWAP1 PUSH2 0x7501 JUMP JUMPDEST DUP3 DUP1 SLOAD DUP3 DUP3 SSTORE SWAP1 PUSH0 MSTORE PUSH1 0x20 PUSH0 KECCAK256 SWAP1 DUP2 ADD SWAP3 DUP3 ISZERO PUSH2 0x7346 JUMPI SWAP2 PUSH1 0x20 MUL DUP3 ADD JUMPDEST DUP3 DUP2 GT ISZERO PUSH2 0x7346 JUMPI DUP3 MLOAD DUP3 SSTORE SWAP2 PUSH1 0x20 ADD SWAP2 SWAP1 PUSH1 0x1 ADD SWAP1 PUSH2 0x732B JUMP JUMPDEST POP PUSH2 0x1126 SWAP3 SWAP2 POP PUSH2 0x754A JUMP JUMPDEST PUSH1 0x40 MLOAD DUP1 PUSH1 0x60 ADD PUSH1 0x40 MSTORE DUP1 PUSH0 DUP2 MSTORE PUSH1 0x20 ADD PUSH0 PUSH1 0x1 PUSH1 0x1 PUSH1 0xA0 SHL SUB AND DUP2 MSTORE PUSH1 0x20 ADD PUSH1 0x60 DUP2 MSTORE POP SWAP1 JUMP JUMPDEST PUSH1 0x40 MLOAD DUP1 PUSH2 0x260 ADD PUSH1 0x40 MSTORE DUP1 PUSH0 DUP2 MSTORE PUSH1 0x20 ADD PUSH0 PUSH1 0x1 PUSH1 0x1 PUSH1 0xA0 SHL SUB AND DUP2 MSTORE PUSH1 0x20 ADD PUSH0 PUSH1 0x1 PUSH1 0x1 PUSH1 0xA0 SHL SUB AND DUP2 MSTORE PUSH1 0x20 ADD PUSH0 DUP2 MSTORE PUSH1 0x20 ADD PUSH1 0x60 DUP2 MSTORE PUSH1 0x20 ADD PUSH1 0x60 DUP2 MSTORE PUSH1 0x20 ADD PUSH1 0x60 DUP2 MSTORE PUSH1 0x20 ADD PUSH1 0x60 DUP2 MSTORE PUSH1 0x20 ADD PUSH1 0x60 DUP2 MSTORE PUSH1 0x20 ADD PUSH1 0x60 DUP2 MSTORE PUSH1 0x20 ADD PUSH1 0x60 DUP2 MSTORE PUSH1 0x20 ADD PUSH0 DUP2 MSTORE PUSH1 0x20 ADD PUSH0 PUSH1 0xFF AND DUP2 MSTORE PUSH1 0x20 ADD PUSH0 PUSH1 0xFF AND DUP2 MSTORE PUSH1 0x20 ADD PUSH0 DUP1 NOT AND DUP2 MSTORE PUSH1 0x20 ADD PUSH0 DUP2 MSTORE PUSH1 0x20 ADD PUSH0 DUP2 MSTORE PUSH1 0x20 ADD PUSH0 PUSH1 0xFF AND DUP2 MSTORE PUSH1 0x20 ADD PUSH0 DUP2 MSTORE POP SWAP1 JUMP JUMPDEST PUSH1 0x40 MLOAD DUP1 PUSH1 0xA0 ADD PUSH1 0x40 MSTORE DUP1 PUSH0 DUP2 MSTORE PUSH1 0x20 ADD PUSH0 DUP2 MSTORE PUSH1 0x20 ADD PUSH0 DUP2 MSTORE PUSH1 0x20 ADD PUSH0 DUP1 NOT AND DUP2 MSTORE PUSH1 0x20 ADD PUSH0 DUP2 MSTORE POP SWAP1 JUMP JUMPDEST PUSH1 0x40 MLOAD DUP1 PUSH1 0xA0 ADD PUSH1 0x40 MSTORE DUP1 PUSH0 DUP2 MSTORE PUSH1 0x20 ADD PUSH1 0x60 DUP2 MSTORE PUSH1 0x20 ADD PUSH0 PUSH1 0x1 PUSH1 0x1 PUSH1 0xA0 SHL SUB AND DUP2 MSTORE PUSH1 0x20 ADD PUSH0 ISZERO ISZERO DUP2 MSTORE PUSH1 0x20 ADD PUSH0 DUP2 MSTORE POP SWAP1 JUMP JUMPDEST PUSH1 0x40 MLOAD DUP1 PUSH1 0x80 ADD PUSH1 0x40 MSTORE DUP1 PUSH0 DUP2 MSTORE PUSH1 0x20 ADD PUSH0 DUP2 MSTORE PUSH1 0x20 ADD PUSH0 PUSH1 0x1 PUSH1 0x1 PUSH1 0xA0 SHL SUB AND DUP2 MSTORE PUSH1 0x20 ADD PUSH2 0x74AF PUSH2 0x755E JUMP JUMPDEST SWAP1 MSTORE SWAP1 JUMP JUMPDEST PUSH1 0x40 MLOAD DUP1 PUSH1 0x80 ADD PUSH1 0x40 MSTORE DUP1 PUSH1 0x60 DUP2 MSTORE PUSH1 0x20 ADD PUSH2 0x74CE PUSH2 0x755E JUMP JUMPDEST DUP2 MSTORE PUSH0 PUSH1 0x20 DUP3 ADD MSTORE PUSH1 0x40 ADD PUSH2 0x74AF PUSH1 0x40 DUP1 MLOAD PUSH1 0x80 DUP2 ADD DUP3 MSTORE PUSH0 DUP1 DUP3 MSTORE PUSH1 0x20 DUP3 ADD DUP2 SWAP1 MSTORE SWAP1 SWAP2 DUP3 ADD SWAP1 DUP2 MSTORE PUSH1 0x20 ADD PUSH0 SWAP1 MSTORE SWAP1 JUMP JUMPDEST DUP1 DUP3 GT ISZERO PUSH2 0x1126 JUMPI PUSH0 PUSH2 0x7514 DUP3 DUP3 PUSH2 0x75AA JUMP JUMPDEST PUSH2 0x7521 PUSH1 0x1 DUP4 ADD PUSH0 PUSH2 0x75AA JUMP JUMPDEST PUSH2 0x752E PUSH1 0x2 DUP4 ADD PUSH0 PUSH2 0x75AA JUMP JUMPDEST PUSH2 0x753B PUSH1 0x3 DUP4 ADD PUSH0 PUSH2 0x75AA JUMP JUMPDEST POP PUSH0 PUSH1 0x4 DUP3 ADD SSTORE PUSH1 0x5 ADD PUSH2 0x7501 JUMP JUMPDEST JUMPDEST DUP1 DUP3 GT ISZERO PUSH2 0x1126 JUMPI PUSH0 DUP2 SSTORE PUSH1 0x1 ADD PUSH2 0x754B JUMP JUMPDEST PUSH1 0x40 MLOAD DUP1 PUSH2 0x120 ADD PUSH1 0x40 MSTORE DUP1 PUSH1 0x60 DUP2 MSTORE PUSH1 0x20 ADD PUSH1 0x60 DUP2 MSTORE PUSH1 0x20 ADD PUSH1 0x60 DUP2 MSTORE PUSH1 0x20 ADD PUSH1 0x60 DUP2 MSTORE PUSH1 0x20 ADD PUSH1 0x60 DUP2 MSTORE PUSH1 0x20 ADD PUSH1 0x60 DUP2 MSTORE PUSH1 0x20 ADD PUSH1 0x60 DUP2 MSTORE PUSH1 0x20 ADD PUSH1 0x60 DUP2 MSTORE PUSH1 0x20 ADD PUSH1 0x60 DUP2 MSTORE POP SWAP1 JUMP JUMPDEST POP DUP1 SLOAD PUSH0 DUP3 SSTORE SWAP1 PUSH0 MSTORE PUSH1 0x20 PUSH0 KECCAK256 SWAP1 DUP2 ADD SWAP1 PUSH2 0x1A53 SWAP2 SWAP1 PUSH2 0x754A JUMP JUMPDEST PUSH0 PUSH1 0x20 DUP3 DUP5 SUB SLT ISZERO PUSH2 0x75D5 JUMPI PUSH0 DUP1 REVERT JUMPDEST POP CALLDATALOAD SWAP2 SWAP1 POP JUMP JUMPDEST PUSH1 0x1 PUSH1 0x1 PUSH1 0xA0 SHL SUB AND SWAP1 MSTORE JUMP JUMPDEST PUSH1 0x1 PUSH1 0x1 PUSH1 0xA0 SHL SUB DUP2 AND DUP2 EQ PUSH2 0x1A53 JUMPI PUSH0 DUP1 REVERT JUMPDEST PUSH0 DUP1 PUSH1 0x40 DUP4 DUP6 SUB SLT ISZERO PUSH2 0x760E JUMPI PUSH0 DUP1 REVERT JUMPDEST DUP3 CALLDATALOAD PUSH2 0x7619 DUP2 PUSH2 0x75E9 JUMP JUMPDEST SWAP5 PUSH1 0x20 SWAP4 SWAP1 SWAP4 ADD CALLDATALOAD SWAP4 POP POP POP JUMP JUMPDEST PUSH4 0x4E487B71 PUSH1 0xE0 SHL PUSH0 MSTORE PUSH1 0x41 PUSH1 0x4 MSTORE PUSH1 0x24 PUSH0 REVERT JUMPDEST PUSH1 0x40 MLOAD PUSH2 0x120 DUP2 ADD PUSH1 0x1 PUSH1 0x1 PUSH1 0x40 SHL SUB DUP2 GT DUP3 DUP3 LT OR ISZERO PUSH2 0x765E JUMPI PUSH2 0x765E PUSH2 0x7627 JUMP JUMPDEST PUSH1 0x40 MSTORE SWAP1 JUMP JUMPDEST PUSH1 0x40 MLOAD PUSH1 0xA0 DUP2 ADD PUSH1 0x1 PUSH1 0x1 PUSH1 0x40 SHL SUB DUP2 GT DUP3 DUP3 LT OR ISZERO PUSH2 0x765E JUMPI PUSH2 0x765E PUSH2 0x7627 JUMP JUMPDEST PUSH1 0x40 MLOAD PUSH1 0x80 DUP2 ADD PUSH1 0x1 PUSH1 0x1 PUSH1 0x40 SHL SUB DUP2 GT DUP3 DUP3 LT OR ISZERO PUSH2 0x765E JUMPI PUSH2 0x765E PUSH2 0x7627 JUMP JUMPDEST PUSH1 0x40 MLOAD PUSH1 0x60 DUP2 ADD PUSH1 0x1 PUSH1 0x1 PUSH1 0x40 SHL SUB DUP2 GT DUP3 DUP3 LT OR ISZERO PUSH2 0x765E JUMPI PUSH2 0x765E PUSH2 0x7627 JUMP JUMPDEST PUSH1 0x40 DUP1 MLOAD SWAP1 DUP2 ADD PUSH1 0x1 PUSH1 0x1 PUSH1 0x40 SHL SUB DUP2 GT DUP3 DUP3 LT OR ISZERO PUSH2 0x765E JUMPI PUSH2 0x765E PUSH2 0x7627 JUMP JUMPDEST PUSH1 0x40 MLOAD PUSH2 0x300 DUP2 ADD PUSH1 0x1 PUSH1 0x1 PUSH1 0x40 SHL SUB DUP2 GT DUP3 DUP3 LT OR ISZERO PUSH2 0x765E JUMPI PUSH2 0x765E PUSH2 0x7627 JUMP JUMPDEST PUSH1 0x40 MLOAD PUSH1 0x1F DUP3 ADD PUSH1 0x1F NOT AND DUP2 ADD PUSH1 0x1 PUSH1 0x1 PUSH1 0x40 SHL SUB DUP2 GT DUP3 DUP3 LT OR ISZERO PUSH2 0x7737 JUMPI PUSH2 0x7737 PUSH2 0x7627 JUMP JUMPDEST PUSH1 0x40 MSTORE SWAP2 SWAP1 POP JUMP JUMPDEST PUSH0 PUSH1 0x1 PUSH1 0x1 PUSH1 0x40 SHL SUB DUP3 GT ISZERO PUSH2 0x7757 JUMPI PUSH2 0x7757 PUSH2 0x7627 JUMP JUMPDEST POP PUSH1 0x1F ADD PUSH1 0x1F NOT AND PUSH1 0x20 ADD SWAP1 JUMP JUMPDEST PUSH0 PUSH2 0x7777 PUSH2 0x7772 DUP5 PUSH2 0x773F JUMP JUMPDEST PUSH2 0x770F JUMP JUMPDEST SWAP1 POP DUP3 DUP2 MSTORE DUP4 DUP4 DUP4 ADD GT ISZERO PUSH2 0x778A JUMPI PUSH0 DUP1 REVERT JUMPDEST DUP3 DUP3 PUSH1 0x20 DUP4 ADD CALLDATACOPY PUSH0 PUSH1 0x20 DUP5 DUP4 ADD ADD MSTORE SWAP4 SWAP3 POP POP POP JUMP JUMPDEST PUSH0 DUP3 PUSH1 0x1F DUP4 ADD SLT PUSH2 0x77AF JUMPI PUSH0 DUP1 REVERT JUMPDEST PUSH2 0x77BE DUP4 DUP4 CALLDATALOAD PUSH1 0x20 DUP6 ADD PUSH2 0x7765 JUMP JUMPDEST SWAP4 SWAP3 POP POP POP JUMP JUMPDEST PUSH0 PUSH2 0x120 DUP3 DUP5 SUB SLT ISZERO PUSH2 0x77D6 JUMPI PUSH0 DUP1 REVERT JUMPDEST PUSH2 0x77DE PUSH2 0x763B JUMP JUMPDEST SWAP1 POP DUP2 CALLDATALOAD PUSH1 0x1 PUSH1 0x1 PUSH1 0x40 SHL SUB DUP2 GT ISZERO PUSH2 0x77F5 JUMPI PUSH0 DUP1 REVERT JUMPDEST PUSH2 0x7801 DUP5 DUP3 DUP6 ADD PUSH2 0x77A0 JUMP JUMPDEST DUP3 MSTORE POP PUSH1 0x20 DUP3 ADD CALLDATALOAD PUSH1 0x1 PUSH1 0x1 PUSH1 0x40 SHL SUB DUP2 GT ISZERO PUSH2 0x781C JUMPI PUSH0 DUP1 REVERT JUMPDEST PUSH2 0x7828 DUP5 DUP3 DUP6 ADD PUSH2 0x77A0 JUMP JUMPDEST PUSH1 0x20 DUP4 ADD MSTORE POP PUSH1 0x40 DUP3 ADD CALLDATALOAD PUSH1 0x1 PUSH1 0x1 PUSH1 0x40 SHL SUB DUP2 GT ISZERO PUSH2 0x7846 JUMPI PUSH0 DUP1 REVERT JUMPDEST PUSH2 0x7852 DUP5 DUP3 DUP6 ADD PUSH2 0x77A0 JUMP JUMPDEST PUSH1 0x40 DUP4 ADD MSTORE POP PUSH1 0x60 DUP3 ADD CALLDATALOAD PUSH1 0x1 PUSH1 0x1 PUSH1 0x40 SHL SUB DUP2 GT ISZERO PUSH2 0x7870 JUMPI PUSH0 DUP1 REVERT JUMPDEST PUSH2 0x787C DUP5 DUP3 DUP6 ADD PUSH2 0x77A0 JUMP JUMPDEST PUSH1 0x60 DUP4 ADD MSTORE POP PUSH1 0x80 DUP3 ADD CALLDATALOAD PUSH1 0x1 PUSH1 0x1 PUSH1 0x40 SHL SUB DUP2 GT ISZERO PUSH2 0x789A JUMPI PUSH0 DUP1 REVERT JUMPDEST PUSH2 0x78A6 DUP5 DUP3 DUP6 ADD PUSH2 0x77A0 JUMP JUMPDEST PUSH1 0x80 DUP4 ADD MSTORE POP PUSH1 0xA0 DUP3 ADD CALLDATALOAD PUSH1 0x1 PUSH1 0x1 PUSH1 0x40 SHL SUB DUP2 GT ISZERO PUSH2 0x78C4 JUMPI PUSH0 DUP1 REVERT JUMPDEST PUSH2 0x78D0 DUP5 DUP3 DUP6 ADD PUSH2 0x77A0 JUMP JUMPDEST PUSH1 0xA0 DUP4 ADD MSTORE POP PUSH1 0xC0 DUP3 ADD CALLDATALOAD PUSH1 0x1 PUSH1 0x1 PUSH1 0x40 SHL SUB DUP2 GT ISZERO PUSH2 0x78EE JUMPI PUSH0 DUP1 REVERT JUMPDEST PUSH2 0x78FA DUP5 DUP3 DUP6 ADD PUSH2 0x77A0 JUMP JUMPDEST PUSH1 0xC0 DUP4 ADD MSTORE POP PUSH1 0xE0 DUP3 ADD CALLDATALOAD PUSH1 0x1 PUSH1 0x1 PUSH1 0x40 SHL SUB DUP2 GT ISZERO PUSH2 0x7918 JUMPI PUSH0 DUP1 REVERT JUMPDEST PUSH2 0x7924 DUP5 DUP3 DUP6 ADD PUSH2 0x77A0 JUMP JUMPDEST PUSH1 0xE0 DUP4 ADD MSTORE POP PUSH2 0x100 DUP3 ADD CALLDATALOAD PUSH1 0x1 PUSH1 0x1 PUSH1 0x40 SHL SUB DUP2 GT ISZERO PUSH2 0x7943 JUMPI PUSH0 DUP1 REVERT JUMPDEST PUSH2 0x794F DUP5 DUP3 DUP6 ADD PUSH2 0x77A0 JUMP JUMPDEST PUSH2 0x100 DUP4 ADD MSTORE POP SWAP3 SWAP2 POP POP JUMP JUMPDEST PUSH0 DUP1 PUSH0 PUSH1 0x60 DUP5 DUP7 SUB SLT ISZERO PUSH2 0x796E JUMPI PUSH0 DUP1 REVERT JUMPDEST DUP4 CALLDATALOAD PUSH1 0x1 PUSH1 0x1 PUSH1 0x40 SHL SUB DUP2 GT ISZERO PUSH2 0x7983 JUMPI PUSH0 DUP1 REVERT JUMPDEST PUSH2 0x798F DUP7 DUP3 DUP8 ADD PUSH2 0x77C5 JUMP JUMPDEST SWAP4 POP POP PUSH1 0x20 DUP5 ADD CALLDATALOAD SWAP2 POP PUSH1 0x40 DUP5 ADD CALLDATALOAD PUSH2 0x79A7 DUP2 PUSH2 0x75E9 JUMP JUMPDEST DUP1 SWAP2 POP POP SWAP3 POP SWAP3 POP SWAP3 JUMP JUMPDEST PUSH0 PUSH1 0x1 PUSH1 0x1 PUSH1 0x40 SHL SUB DUP3 GT ISZERO PUSH2 0x79CA JUMPI PUSH2 0x79CA PUSH2 0x7627 JUMP JUMPDEST POP PUSH1 0x5 SHL PUSH1 0x20 ADD SWAP1 JUMP JUMPDEST PUSH0 DUP3 PUSH1 0x1F DUP4 ADD SLT PUSH2 0x79E3 JUMPI PUSH0 DUP1 REVERT JUMPDEST DUP2 CALLDATALOAD PUSH2 0x79F1 PUSH2 0x7772 DUP3 PUSH2 0x79B2 JUMP JUMPDEST DUP1 DUP3 DUP3 MSTORE PUSH1 0x20 DUP3 ADD SWAP2 POP PUSH1 0x20 DUP4 PUSH1 0x5 SHL DUP7 ADD ADD SWAP3 POP DUP6 DUP4 GT ISZERO PUSH2 0x7A12 JUMPI PUSH0 DUP1 REVERT JUMPDEST PUSH1 0x20 DUP6 ADD JUMPDEST DUP4 DUP2 LT ISZERO PUSH2 0x7A2F JUMPI DUP1 CALLDATALOAD DUP4 MSTORE PUSH1 0x20 SWAP3 DUP4 ADD SWAP3 ADD PUSH2 0x7A17 JUMP JUMPDEST POP SWAP6 SWAP5 POP POP POP POP POP JUMP JUMPDEST PUSH0 DUP3 PUSH1 0x1F DUP4 ADD SLT PUSH2 0x7A48 JUMPI PUSH0 DUP1 REVERT JUMPDEST DUP2 CALLDATALOAD PUSH2 0x7A56 PUSH2 0x7772 DUP3 PUSH2 0x79B2 JUMP JUMPDEST DUP1 DUP3 DUP3 MSTORE PUSH1 0x20 DUP3 ADD SWAP2 POP PUSH1 0x20 DUP4 PUSH1 0x5 SHL DUP7 ADD ADD SWAP3 POP DUP6 DUP4 GT ISZERO PUSH2 0x7A77 JUMPI PUSH0 DUP1 REVERT JUMPDEST PUSH1 0x20 DUP6 ADD JUMPDEST DUP4 DUP2 LT ISZERO PUSH2 0x7A2F JUMPI DUP1 CALLDATALOAD PUSH1 0x1 PUSH1 0x1 PUSH1 0x40 SHL SUB DUP2 GT ISZERO PUSH2 0x7A99 JUMPI PUSH0 DUP1 REVERT JUMPDEST DUP7 ADD PUSH1 0xA0 DUP2 DUP10 SUB PUSH1 0x1F NOT ADD SLT ISZERO PUSH2 0x7AAE JUMPI PUSH0 DUP1 REVERT JUMPDEST PUSH2 0x7AB6 PUSH2 0x7664 JUMP JUMPDEST PUSH1 0x20 DUP3 ADD CALLDATALOAD PUSH1 0x1 PUSH1 0x1 PUSH1 0x40 SHL SUB DUP2 GT ISZERO PUSH2 0x7ACE JUMPI PUSH0 DUP1 REVERT JUMPDEST PUSH2 0x7ADD DUP11 PUSH1 0x20 DUP4 DUP7 ADD ADD PUSH2 0x79D4 JUMP JUMPDEST DUP3 MSTORE POP PUSH1 0x40 DUP3 ADD CALLDATALOAD PUSH1 0x1 PUSH1 0x1 PUSH1 0x40 SHL SUB DUP2 GT ISZERO PUSH2 0x7AF8 JUMPI PUSH0 DUP1 REVERT JUMPDEST PUSH2 0x7B07 DUP11 PUSH1 0x20 DUP4 DUP7 ADD ADD PUSH2 0x79D4 JUMP JUMPDEST PUSH1 0x20 DUP4 ADD MSTORE POP PUSH1 0x60 DUP3 ADD CALLDATALOAD PUSH1 0x1 PUSH1 0x1 PUSH1 0x40 SHL SUB DUP2 GT ISZERO PUSH2 0x7B25 JUMPI PUSH0 DUP1 REVERT JUMPDEST PUSH2 0x7B34 DUP11 PUSH1 0x20 DUP4 DUP7 ADD ADD PUSH2 0x79D4 JUMP JUMPDEST PUSH1 0x40 DUP4 ADD MSTORE POP PUSH1 0x80 DUP3 ADD CALLDATALOAD PUSH1 0x1 PUSH1 0x1 PUSH1 0x40 SHL SUB DUP2 GT ISZERO PUSH2 0x7B52 JUMPI PUSH0 DUP1 REVERT JUMPDEST PUSH2 0x7B61 DUP11 PUSH1 0x20 DUP4 DUP7 ADD ADD PUSH2 0x79D4 JUMP JUMPDEST PUSH1 0x60 DUP4 ADD MSTORE POP PUSH1 0xA0 SWAP2 SWAP1 SWAP2 ADD CALLDATALOAD PUSH1 0x80 DUP3 ADD MSTORE DUP4 MSTORE PUSH1 0x20 SWAP3 DUP4 ADD SWAP3 ADD PUSH2 0x7A7C JUMP JUMPDEST PUSH0 DUP1 PUSH0 PUSH1 0x60 DUP5 DUP7 SUB SLT ISZERO PUSH2 0x7B93 JUMPI PUSH0 DUP1 REVERT JUMPDEST DUP4 CALLDATALOAD SWAP3 POP PUSH1 0x20 DUP5 ADD CALLDATALOAD PUSH1 0x1 PUSH1 0x1 PUSH1 0x40 SHL SUB DUP2 GT ISZERO PUSH2 0x7BAF JUMPI PUSH0 DUP1 REVERT JUMPDEST PUSH2 0x7BBB DUP7 DUP3 DUP8 ADD PUSH2 0x7A39 JUMP JUMPDEST SWAP4 SWAP7 SWAP4 SWAP6 POP POP POP POP PUSH1 0x40 SWAP2 SWAP1 SWAP2 ADD CALLDATALOAD SWAP1 JUMP JUMPDEST PUSH0 PUSH1 0x20 DUP3 DUP5 SUB SLT ISZERO PUSH2 0x7BDD JUMPI PUSH0 DUP1 REVERT JUMPDEST DUP2 CALLDATALOAD PUSH2 0x77BE DUP2 PUSH2 0x75E9 JUMP JUMPDEST DUP1 MLOAD DUP3 MSTORE PUSH1 0x20 DUP2 ADD MLOAD PUSH1 0x20 DUP4 ADD MSTORE PUSH1 0x40 DUP2 ADD MLOAD PUSH1 0x40 DUP4 ADD MSTORE PUSH1 0x60 DUP2 ADD MLOAD PUSH1 0x60 DUP4 ADD MSTORE PUSH1 0x80 DUP2 ADD MLOAD PUSH1 0x80 DUP4 ADD MSTORE POP POP JUMP JUMPDEST PUSH1 0x20 DUP1 DUP3 MSTORE DUP3 MLOAD DUP3 DUP3 ADD MSTORE DUP3 DUP2 ADD MLOAD PUSH1 0x1 PUSH1 0x1 PUSH1 0xA0 SHL SUB AND PUSH1 0x40 DUP1 DUP5 ADD SWAP2 SWAP1 SWAP2 MSTORE DUP4 ADD MLOAD PUSH1 0x60 DUP1 DUP5 ADD MSTORE DUP1 MLOAD PUSH1 0x80 DUP5 ADD DUP2 SWAP1 MSTORE PUSH0 SWAP3 SWAP2 SWAP1 SWAP2 ADD SWAP1 DUP3 SWAP1 PUSH1 0xA0 DUP6 ADD SWAP1 JUMPDEST DUP1 DUP4 LT ISZERO PUSH2 0x7A2F JUMPI PUSH2 0x7C6D DUP3 DUP6 MLOAD PUSH2 0x7BE8 JUMP JUMPDEST PUSH1 0xA0 DUP3 ADD SWAP2 POP PUSH1 0x20 DUP5 ADD SWAP4 POP PUSH1 0x1 DUP4 ADD SWAP3 POP PUSH2 0x7C5A JUMP JUMPDEST PUSH0 DUP1 PUSH1 0x40 DUP4 DUP6 SUB SLT ISZERO PUSH2 0x7C95 JUMPI PUSH0 DUP1 REVERT JUMPDEST DUP3 CALLDATALOAD SWAP2 POP PUSH1 0x20 DUP4 ADD CALLDATALOAD PUSH1 0x1 PUSH1 0x1 PUSH1 0x40 SHL SUB DUP2 GT ISZERO PUSH2 0x7CB1 JUMPI PUSH0 DUP1 REVERT JUMPDEST PUSH2 0x7CBD DUP6 DUP3 DUP7 ADD PUSH2 0x77A0 JUMP JUMPDEST SWAP2 POP POP SWAP3 POP SWAP3 SWAP1 POP JUMP JUMPDEST PUSH0 DUP2 MLOAD DUP1 DUP5 MSTORE DUP1 PUSH1 0x20 DUP5 ADD PUSH1 0x20 DUP7 ADD MCOPY PUSH0 PUSH1 0x20 DUP3 DUP7 ADD ADD MSTORE PUSH1 0x20 PUSH1 0x1F NOT PUSH1 0x1F DUP4 ADD AND DUP6 ADD ADD SWAP2 POP POP SWAP3 SWAP2 POP POP JUMP JUMPDEST PUSH1 0x20 DUP2 MSTORE PUSH0 PUSH2 0x77BE PUSH1 0x20 DUP4 ADD DUP5 PUSH2 0x7CC7 JUMP JUMPDEST PUSH0 DUP2 MLOAD DUP1 DUP5 MSTORE PUSH1 0x20 DUP5 ADD SWAP4 POP PUSH1 0x20 DUP4 ADD PUSH0 JUMPDEST DUP3 DUP2 LT ISZERO PUSH2 0x7D37 JUMPI DUP2 MLOAD DUP7 MSTORE PUSH1 0x20 SWAP6 DUP7 ADD SWAP6 SWAP1 SWAP2 ADD SWAP1 PUSH1 0x1 ADD PUSH2 0x7D19 JUMP JUMPDEST POP SWAP4 SWAP5 SWAP4 POP POP POP POP JUMP JUMPDEST DUP1 MLOAD DUP3 MSTORE PUSH0 PUSH1 0x20 DUP3 ADD MLOAD PUSH2 0x7D58 PUSH1 0x20 DUP6 ADD DUP3 PUSH2 0x75DC JUMP JUMPDEST POP PUSH1 0x40 DUP3 ADD MLOAD PUSH2 0x7D6B PUSH1 0x40 DUP6 ADD DUP3 PUSH2 0x75DC JUMP JUMPDEST POP PUSH1 0x60 DUP3 ADD MLOAD PUSH1 0x60 DUP5 ADD MSTORE PUSH1 0x80 DUP3 ADD MLOAD PUSH2 0x260 PUSH1 0x80 DUP6 ADD MSTORE PUSH2 0x7D91 PUSH2 0x260 DUP6 ADD DUP3 PUSH2 0x7D07 JUMP JUMPDEST SWAP1 POP PUSH1 0xA0 DUP4 ADD MLOAD DUP5 DUP3 SUB PUSH1 0xA0 DUP7 ADD MSTORE PUSH2 0x7DAA DUP3 DUP3 PUSH2 0x7D07 JUMP JUMPDEST SWAP2 POP POP PUSH1 0xC0 DUP4 ADD MLOAD DUP5 DUP3 SUB PUSH1 0xC0 DUP7 ADD MSTORE PUSH2 0x7DC4 DUP3 DUP3 PUSH2 0x7D07 JUMP JUMPDEST SWAP2 POP POP PUSH1 0xE0 DUP4 ADD MLOAD DUP5 DUP3 SUB PUSH1 0xE0 DUP7 ADD MSTORE PUSH2 0x7DDE DUP3 DUP3 PUSH2 0x7D07 JUMP JUMPDEST SWAP2 POP POP PUSH2 0x100 DUP4 ADD MLOAD DUP5 DUP3 SUB PUSH2 0x100 DUP7 ADD MSTORE PUSH2 0x7DFA DUP3 DUP3 PUSH2 0x7D07 JUMP JUMPDEST SWAP2 POP POP PUSH2 0x120 DUP4 ADD MLOAD DUP5 DUP3 SUB PUSH2 0x120 DUP7 ADD MSTORE PUSH2 0x7E16 DUP3 DUP3 PUSH2 0x7D07 JUMP JUMPDEST SWAP2 POP POP PUSH2 0x140 DUP4 ADD MLOAD DUP5 DUP3 SUB PUSH2 0x140 DUP7 ADD MSTORE PUSH2 0x7E32 DUP3 DUP3 PUSH2 0x7D07 JUMP JUMPDEST SWAP2 POP POP PUSH2 0x160 DUP4 ADD MLOAD PUSH2 0x160 DUP6 ADD MSTORE PUSH2 0x180 DUP4 ADD MLOAD PUSH2 0x7E57 PUSH2 0x180 DUP7 ADD DUP3 PUSH1 0xFF AND SWAP1 MSTORE JUMP JUMPDEST POP PUSH2 0x1A0 DUP4 ADD MLOAD PUSH2 0x7E6E PUSH2 0x1A0 DUP7 ADD DUP3 PUSH1 0xFF AND SWAP1 MSTORE JUMP JUMPDEST POP PUSH2 0x1C0 DUP4 ADD MLOAD PUSH2 0x1C0 DUP6 ADD MSTORE PUSH2 0x1E0 DUP4 ADD MLOAD PUSH2 0x1E0 DUP6 ADD MSTORE PUSH2 0x200 DUP4 ADD MLOAD PUSH2 0x200 DUP6 ADD MSTORE PUSH2 0x220 DUP4 ADD MLOAD PUSH2 0x7EA9 PUSH2 0x220 DUP7 ADD DUP3 PUSH1 0xFF AND SWAP1 MSTORE JUMP JUMPDEST POP PUSH2 0x240 DUP4 ADD MLOAD PUSH2 0x240 DUP6 ADD MSTORE DUP1 SWAP2 POP POP SWAP3 SWAP2 POP POP JUMP JUMPDEST PUSH0 PUSH1 0x20 DUP3 ADD PUSH1 0x20 DUP4 MSTORE DUP1 DUP5 MLOAD DUP1 DUP4 MSTORE PUSH1 0x40 DUP6 ADD SWAP2 POP PUSH1 0x40 DUP2 PUSH1 0x5 SHL DUP7 ADD ADD SWAP3 POP PUSH1 0x20 DUP7 ADD PUSH0 JUMPDEST DUP3 DUP2 LT ISZERO PUSH2 0x7F17 JUMPI PUSH1 0x3F NOT DUP8 DUP7 SUB ADD DUP5 MSTORE PUSH2 0x7F02 DUP6 DUP4 MLOAD PUSH2 0x7D41 JUMP JUMPDEST SWAP5 POP PUSH1 0x20 SWAP4 DUP5 ADD SWAP4 SWAP2 SWAP1 SWAP2 ADD SWAP1 PUSH1 0x1 ADD PUSH2 0x7EE6 JUMP JUMPDEST POP SWAP3 SWAP7 SWAP6 POP POP POP POP POP POP JUMP JUMPDEST PUSH0 PUSH1 0x20 DUP3 DUP5 SUB SLT ISZERO PUSH2 0x7F33 JUMPI PUSH0 DUP1 REVERT JUMPDEST DUP2 CALLDATALOAD PUSH1 0x1 PUSH1 0x1 PUSH1 0x40 SHL SUB DUP2 GT ISZERO PUSH2 0x7F48 JUMPI PUSH0 DUP1 REVERT JUMPDEST DUP3 ADD PUSH1 0x1F DUP2 ADD DUP5 SGT PUSH2 0x7F58 JUMPI PUSH0 DUP1 REVERT JUMPDEST PUSH2 0x7F67 DUP5 DUP3 CALLDATALOAD PUSH1 0x20 DUP5 ADD PUSH2 0x7765 JUMP JUMPDEST SWAP5 SWAP4 POP POP POP POP JUMP JUMPDEST PUSH0 DUP1 PUSH0 PUSH1 0x60 DUP5 DUP7 SUB SLT ISZERO PUSH2 0x7F81 JUMPI PUSH0 DUP1 REVERT JUMPDEST POP POP DUP2 CALLDATALOAD SWAP4 PUSH1 0x20 DUP4 ADD CALLDATALOAD SWAP4 POP PUSH1 0x40 SWAP1 SWAP3 ADD CALLDATALOAD SWAP2 SWAP1 POP JUMP JUMPDEST PUSH1 0xA0 DUP2 ADD PUSH2 0xD79 DUP3 DUP5 PUSH2 0x7BE8 JUMP JUMPDEST PUSH0 PUSH1 0xA0 DUP4 ADD DUP3 MLOAD DUP5 MSTORE PUSH1 0x20 DUP4 ADD MLOAD PUSH1 0xA0 PUSH1 0x20 DUP7 ADD MSTORE DUP2 DUP2 MLOAD DUP1 DUP5 MSTORE PUSH1 0xC0 DUP8 ADD SWAP2 POP PUSH1 0xC0 DUP2 PUSH1 0x5 SHL DUP9 ADD ADD SWAP4 POP PUSH1 0x20 DUP4 ADD SWAP3 POP PUSH0 JUMPDEST DUP2 DUP2 LT ISZERO PUSH2 0x8071 JUMPI PUSH1 0xBF NOT DUP9 DUP7 SUB ADD DUP4 MSTORE DUP4 MLOAD DUP1 MLOAD PUSH1 0xA0 DUP8 MSTORE PUSH2 0x8000 PUSH1 0xA0 DUP9 ADD DUP3 PUSH2 0x7D07 JUMP JUMPDEST SWAP1 POP PUSH1 0x20 DUP3 ADD MLOAD DUP8 DUP3 SUB PUSH1 0x20 DUP10 ADD MSTORE PUSH2 0x8019 DUP3 DUP3 PUSH2 0x7D07 JUMP JUMPDEST SWAP2 POP POP PUSH1 0x40 DUP3 ADD MLOAD DUP8 DUP3 SUB PUSH1 0x40 DUP10 ADD MSTORE PUSH2 0x8033 DUP3 DUP3 PUSH2 0x7D07 JUMP JUMPDEST SWAP2 POP POP PUSH1 0x60 DUP3 ADD MLOAD DUP8 DUP3 SUB PUSH1 0x60 DUP10 ADD MSTORE PUSH2 0x804D DUP3 DUP3 PUSH2 0x7D07 JUMP JUMPDEST PUSH1 0x80 SWAP4 DUP5 ADD MLOAD SWAP9 SWAP1 SWAP4 ADD SWAP8 SWAP1 SWAP8 MSTORE POP SWAP5 POP PUSH1 0x20 SWAP4 DUP5 ADD SWAP4 SWAP3 SWAP1 SWAP3 ADD SWAP2 PUSH1 0x1 ADD PUSH2 0x7FDA JUMP JUMPDEST POP POP POP POP PUSH1 0x40 DUP4 ADD MLOAD PUSH2 0x8087 PUSH1 0x40 DUP7 ADD DUP3 PUSH2 0x75DC JUMP JUMPDEST POP PUSH1 0x60 DUP4 ADD MLOAD PUSH2 0x809B PUSH1 0x60 DUP7 ADD DUP3 ISZERO ISZERO SWAP1 MSTORE JUMP JUMPDEST POP PUSH1 0x80 DUP4 ADD MLOAD PUSH1 0x80 DUP6 ADD MSTORE DUP1 SWAP2 POP POP SWAP3 SWAP2 POP POP JUMP JUMPDEST PUSH0 PUSH1 0x20 DUP3 ADD PUSH1 0x20 DUP4 MSTORE DUP1 DUP5 MLOAD DUP1 DUP4 MSTORE PUSH1 0x40 DUP6 ADD SWAP2 POP PUSH1 0x40 DUP2 PUSH1 0x5 SHL DUP7 ADD ADD SWAP3 POP PUSH1 0x20 DUP7 ADD PUSH0 JUMPDEST DUP3 DUP2 LT ISZERO PUSH2 0x7F17 JUMPI PUSH1 0x3F NOT DUP8 DUP7 SUB ADD DUP5 MSTORE PUSH2 0x80F2 DUP6 DUP4 MLOAD PUSH2 0x7FA6 JUMP JUMPDEST SWAP5 POP PUSH1 0x20 SWAP4 DUP5 ADD SWAP4 SWAP2 SWAP1 SWAP2 ADD SWAP1 PUSH1 0x1 ADD PUSH2 0x80D6 JUMP JUMPDEST PUSH1 0x1 PUSH1 0x1 PUSH1 0xA0 SHL SUB SWAP2 SWAP1 SWAP2 AND DUP2 MSTORE PUSH1 0x20 ADD SWAP1 JUMP JUMPDEST PUSH1 0x2 DUP2 LT PUSH2 0x1A53 JUMPI PUSH0 DUP1 REVERT JUMPDEST PUSH0 PUSH1 0x80 DUP3 DUP5 SUB SLT ISZERO PUSH2 0x8137 JUMPI PUSH0 DUP1 REVERT JUMPDEST PUSH2 0x813F PUSH2 0x7686 JUMP JUMPDEST DUP3 CALLDATALOAD DUP2 MSTORE PUSH1 0x20 DUP1 DUP5 ADD CALLDATALOAD SWAP1 DUP3 ADD MSTORE SWAP1 POP PUSH1 0x40 DUP3 ADD CALLDATALOAD PUSH2 0x815D DUP2 PUSH2 0x811B JUMP JUMPDEST PUSH1 0x40 DUP3 ADD MSTORE PUSH1 0x60 DUP3 ADD CALLDATALOAD PUSH2 0x8170 DUP2 PUSH2 0x811B JUMP JUMPDEST PUSH1 0x60 DUP3 ADD MSTORE SWAP3 SWAP2 POP POP JUMP JUMPDEST PUSH0 DUP1 PUSH0 PUSH1 0xC0 DUP5 DUP7 SUB SLT ISZERO PUSH2 0x818D JUMPI PUSH0 DUP1 REVERT JUMPDEST PUSH1 0x1 PUSH1 0x1 PUSH1 0x40 SHL SUB DUP5 CALLDATALOAD GT ISZERO PUSH2 0x81A1 JUMPI PUSH0 DUP1 REVERT JUMPDEST DUP4 CALLDATALOAD DUP5 ADD DUP6 PUSH1 0x1F DUP3 ADD SLT PUSH2 0x81B3 JUMPI PUSH0 DUP1 REVERT JUMPDEST PUSH2 0x81C0 PUSH2 0x7772 DUP3 CALLDATALOAD PUSH2 0x79B2 JUMP JUMPDEST DUP2 CALLDATALOAD DUP1 DUP3 MSTORE PUSH1 0x20 DUP1 DUP4 ADD SWAP3 SWAP2 PUSH1 0x5 SHL DUP5 ADD ADD DUP9 LT ISZERO PUSH2 0x81DD JUMPI PUSH0 DUP1 REVERT JUMPDEST PUSH1 0x20 DUP4 ADD JUMPDEST PUSH1 0x20 DUP5 CALLDATALOAD PUSH1 0x5 SHL DUP6 ADD ADD DUP2 LT ISZERO PUSH2 0x8303 JUMPI PUSH1 0x1 PUSH1 0x1 PUSH1 0x40 SHL SUB DUP2 CALLDATALOAD GT ISZERO PUSH2 0x8207 JUMPI PUSH0 DUP1 REVERT JUMPDEST DUP1 CALLDATALOAD DUP5 ADD PUSH1 0xA0 DUP2 DUP12 SUB PUSH1 0x1F NOT ADD SLT ISZERO PUSH2 0x821E JUMPI PUSH0 DUP1 REVERT JUMPDEST PUSH2 0x8226 PUSH2 0x7664 JUMP JUMPDEST PUSH1 0x20 DUP3 DUP2 ADD CALLDATALOAD DUP3 MSTORE PUSH1 0x40 DUP1 DUP5 ADD CALLDATALOAD SWAP2 DUP4 ADD SWAP2 SWAP1 SWAP2 MSTORE PUSH1 0x60 DUP1 DUP5 ADD CALLDATALOAD SWAP2 DUP4 ADD SWAP2 SWAP1 SWAP2 MSTORE PUSH1 0x80 DUP4 ADD CALLDATALOAD SWAP1 DUP3 ADD MSTORE PUSH1 0x1 PUSH1 0x1 PUSH1 0x40 SHL SUB PUSH1 0xA0 DUP4 ADD CALLDATALOAD GT ISZERO PUSH2 0x8268 JUMPI PUSH0 DUP1 REVERT JUMPDEST PUSH1 0x20 PUSH1 0xA0 DUP4 ADD CALLDATALOAD DUP4 ADD ADD SWAP2 POP DUP11 PUSH1 0x1F DUP4 ADD SLT PUSH2 0x8282 JUMPI PUSH0 DUP1 REVERT JUMPDEST PUSH2 0x828F PUSH2 0x7772 DUP4 CALLDATALOAD PUSH2 0x79B2 JUMP JUMPDEST DUP3 CALLDATALOAD DUP1 DUP3 MSTORE PUSH1 0x20 DUP1 DUP4 ADD SWAP3 SWAP2 PUSH1 0x5 SHL DUP6 ADD ADD DUP14 DUP2 GT ISZERO PUSH2 0x82AD JUMPI PUSH0 DUP1 REVERT JUMPDEST PUSH1 0x20 DUP6 ADD JUMPDEST DUP2 DUP2 LT ISZERO PUSH2 0x82EC JUMPI PUSH1 0x1 PUSH1 0x1 PUSH1 0x40 SHL SUB DUP2 CALLDATALOAD GT ISZERO PUSH2 0x82CE JUMPI PUSH0 DUP1 REVERT JUMPDEST PUSH2 0x82DE DUP16 PUSH1 0x20 DUP4 CALLDATALOAD DUP10 ADD ADD PUSH2 0x77A0 JUMP JUMPDEST DUP5 MSTORE PUSH1 0x20 SWAP4 DUP5 ADD SWAP4 ADD PUSH2 0x82B2 JUMP JUMPDEST POP POP PUSH1 0x80 DUP4 ADD MSTORE POP DUP5 MSTORE POP PUSH1 0x20 SWAP3 DUP4 ADD SWAP3 ADD PUSH2 0x81E2 JUMP JUMPDEST POP SWAP5 POP POP POP PUSH1 0x1 PUSH1 0x1 PUSH1 0x40 SHL SUB PUSH1 0x20 DUP6 ADD CALLDATALOAD GT ISZERO PUSH2 0x831F JUMPI PUSH0 DUP1 REVERT JUMPDEST PUSH2 0x832F DUP6 PUSH1 0x20 DUP7 ADD CALLDATALOAD DUP7 ADD PUSH2 0x77C5 JUMP JUMPDEST SWAP2 POP PUSH2 0x833E DUP6 PUSH1 0x40 DUP7 ADD PUSH2 0x8127 JUMP JUMPDEST SWAP1 POP SWAP3 POP SWAP3 POP SWAP3 JUMP JUMPDEST PUSH0 DUP1 PUSH1 0x40 DUP4 DUP6 SUB SLT ISZERO PUSH2 0x8358 JUMPI PUSH0 DUP1 REVERT JUMPDEST POP POP DUP1 CALLDATALOAD SWAP3 PUSH1 0x20 SWAP1 SWAP2 ADD CALLDATALOAD SWAP2 POP JUMP JUMPDEST PUSH0 DUP2 MLOAD PUSH2 0x120 DUP5 MSTORE PUSH2 0x837D PUSH2 0x120 DUP6 ADD DUP3 PUSH2 0x7CC7 JUMP JUMPDEST SWAP1 POP PUSH1 0x20 DUP4 ADD MLOAD DUP5 DUP3 SUB PUSH1 0x20 DUP7 ADD MSTORE PUSH2 0x8396 DUP3 DUP3 PUSH2 0x7CC7 JUMP JUMPDEST SWAP2 POP POP PUSH1 0x40 DUP4 ADD MLOAD DUP5 DUP3 SUB PUSH1 0x40 DUP7 ADD MSTORE PUSH2 0x83B0 DUP3 DUP3 PUSH2 0x7CC7 JUMP JUMPDEST SWAP2 POP POP PUSH1 0x60 DUP4 ADD MLOAD DUP5 DUP3 SUB PUSH1 0x60 DUP7 ADD MSTORE PUSH2 0x83CA DUP3 DUP3 PUSH2 0x7CC7 JUMP JUMPDEST SWAP2 POP POP PUSH1 0x80 DUP4 ADD MLOAD DUP5 DUP3 SUB PUSH1 0x80 DUP7 ADD MSTORE PUSH2 0x83E4 DUP3 DUP3 PUSH2 0x7CC7 JUMP JUMPDEST SWAP2 POP POP PUSH1 0xA0 DUP4 ADD MLOAD DUP5 DUP3 SUB PUSH1 0xA0 DUP7 ADD MSTORE PUSH2 0x83FE DUP3 DUP3 PUSH2 0x7CC7 JUMP JUMPDEST SWAP2 POP POP PUSH1 0xC0 DUP4 ADD MLOAD DUP5 DUP3 SUB PUSH1 0xC0 DUP7 ADD MSTORE PUSH2 0x8418 DUP3 DUP3 PUSH2 0x7CC7 JUMP JUMPDEST SWAP2 POP POP PUSH1 0xE0 DUP4 ADD MLOAD DUP5 DUP3 SUB PUSH1 0xE0 DUP7 ADD MSTORE PUSH2 0x8432 DUP3 DUP3 PUSH2 0x7CC7 JUMP JUMPDEST SWAP2 POP POP PUSH2 0x100 DUP4 ADD MLOAD DUP5 DUP3 SUB PUSH2 0x100 DUP7 ADD MSTORE PUSH2 0x844E DUP3 DUP3 PUSH2 0x7CC7 JUMP JUMPDEST SWAP6 SWAP5 POP POP POP POP POP JUMP JUMPDEST PUSH1 0x20 DUP2 MSTORE DUP2 MLOAD PUSH1 0x20 DUP3 ADD MSTORE PUSH1 0x20 DUP3 ADD MLOAD PUSH1 0x40 DUP3 ADD MSTORE PUSH1 0x1 DUP1 PUSH1 0xA0 SHL SUB PUSH1 0x40 DUP4 ADD MLOAD AND PUSH1 0x60 DUP3 ADD MSTORE PUSH0 PUSH1 0x60 DUP4 ADD MLOAD PUSH1 0x80 DUP1 DUP5 ADD MSTORE PUSH2 0x7F67 PUSH1 0xA0 DUP5 ADD DUP3 PUSH2 0x8367 JUMP JUMPDEST PUSH0 PUSH1 0x20 DUP3 DUP5 SUB SLT ISZERO PUSH2 0x84A7 JUMPI PUSH0 DUP1 REVERT JUMPDEST DUP2 CALLDATALOAD PUSH1 0x1 PUSH1 0x1 PUSH1 0x40 SHL SUB DUP2 GT ISZERO PUSH2 0x84BC JUMPI PUSH0 DUP1 REVERT JUMPDEST PUSH2 0x7F67 DUP5 DUP3 DUP6 ADD PUSH2 0x79D4 JUMP JUMPDEST PUSH0 PUSH1 0x20 DUP3 DUP5 SUB SLT ISZERO PUSH2 0x84D8 JUMPI PUSH0 DUP1 REVERT JUMPDEST DUP2 CALLDATALOAD PUSH1 0x1 PUSH1 0x1 PUSH1 0x40 SHL SUB DUP2 GT ISZERO PUSH2 0x84ED JUMPI PUSH0 DUP1 REVERT JUMPDEST DUP3 ADD PUSH1 0x1F DUP2 ADD DUP5 SGT PUSH2 0x84FD JUMPI PUSH0 DUP1 REVERT JUMPDEST DUP1 CALLDATALOAD PUSH2 0x850B PUSH2 0x7772 DUP3 PUSH2 0x79B2 JUMP JUMPDEST DUP1 DUP3 DUP3 MSTORE PUSH1 0x20 DUP3 ADD SWAP2 POP PUSH1 0x20 PUSH1 0x60 DUP5 MUL DUP6 ADD ADD SWAP3 POP DUP7 DUP4 GT ISZERO PUSH2 0x852C JUMPI PUSH0 DUP1 REVERT JUMPDEST PUSH1 0x20 DUP5 ADD SWAP4 POP JUMPDEST DUP3 DUP5 LT ISZERO PUSH2 0x857D JUMPI PUSH1 0x60 DUP5 DUP9 SUB SLT ISZERO PUSH2 0x854A JUMPI PUSH0 DUP1 REVERT JUMPDEST PUSH2 0x8552 PUSH2 0x76A8 JUMP JUMPDEST DUP5 CALLDATALOAD DUP2 MSTORE PUSH1 0x20 DUP1 DUP7 ADD CALLDATALOAD DUP2 DUP4 ADD MSTORE PUSH1 0x40 DUP1 DUP8 ADD CALLDATALOAD SWAP1 DUP4 ADD MSTORE SWAP1 DUP4 MSTORE PUSH1 0x60 SWAP1 SWAP5 ADD SWAP4 SWAP2 SWAP1 SWAP2 ADD SWAP1 PUSH2 0x8533 JUMP JUMPDEST SWAP7 SWAP6 POP POP POP POP POP POP JUMP JUMPDEST PUSH1 0x20 DUP1 DUP3 MSTORE DUP3 MLOAD DUP3 DUP3 ADD DUP2 SWAP1 MSTORE PUSH0 SWAP2 DUP5 ADD SWAP1 PUSH1 0x40 DUP5 ADD SWAP1 DUP4 JUMPDEST DUP2 DUP2 LT ISZERO PUSH2 0x85C9 JUMPI PUSH2 0x85B3 DUP4 DUP6 MLOAD PUSH2 0x7BE8 JUMP JUMPDEST PUSH1 0x20 SWAP4 SWAP1 SWAP4 ADD SWAP3 PUSH1 0xA0 SWAP3 SWAP1 SWAP3 ADD SWAP2 PUSH1 0x1 ADD PUSH2 0x85A0 JUMP JUMPDEST POP SWAP1 SWAP6 SWAP5 POP POP POP POP POP JUMP JUMPDEST PUSH0 DUP1 PUSH1 0x40 DUP4 DUP6 SUB SLT ISZERO PUSH2 0x85E5 JUMPI PUSH0 DUP1 REVERT JUMPDEST DUP3 CALLDATALOAD PUSH1 0x1 PUSH1 0x1 PUSH1 0x40 SHL SUB DUP2 GT ISZERO PUSH2 0x85FA JUMPI PUSH0 DUP1 REVERT JUMPDEST PUSH2 0x8606 DUP6 DUP3 DUP7 ADD PUSH2 0x7A39 JUMP JUMPDEST SWAP6 PUSH1 0x20 SWAP5 SWAP1 SWAP5 ADD CALLDATALOAD SWAP5 POP POP POP POP JUMP JUMPDEST PUSH1 0x20 DUP2 MSTORE PUSH0 PUSH2 0x77BE PUSH1 0x20 DUP4 ADD DUP5 PUSH2 0x7D41 JUMP JUMPDEST PUSH4 0x4E487B71 PUSH1 0xE0 SHL PUSH0 MSTORE PUSH1 0x21 PUSH1 0x4 MSTORE PUSH1 0x24 PUSH0 REVERT JUMPDEST PUSH1 0x2 DUP2 LT PUSH2 0x1A53 JUMPI PUSH4 0x4E487B71 PUSH1 0xE0 SHL PUSH0 MSTORE PUSH1 0x21 PUSH1 0x4 MSTORE PUSH1 0x24 PUSH0 REVERT JUMPDEST DUP1 MLOAD DUP3 MSTORE PUSH1 0x20 DUP2 ADD MLOAD PUSH1 0x20 DUP4 ADD MSTORE PUSH1 0x40 DUP2 ADD MLOAD PUSH2 0x8673 DUP2 PUSH2 0x863B JUMP JUMPDEST PUSH1 0x40 DUP4 ADD MSTORE PUSH1 0x60 DUP2 ADD MLOAD PUSH2 0x8686 DUP2 PUSH2 0x863B JUMP JUMPDEST DUP1 PUSH1 0x60 DUP5 ADD MSTORE POP POP POP JUMP JUMPDEST PUSH1 0xC0 DUP2 MSTORE PUSH0 PUSH2 0x86A3 PUSH1 0xC0 DUP4 ADD DUP7 PUSH2 0x8367 JUMP JUMPDEST PUSH1 0x1 PUSH1 0x1 PUSH1 0xA0 SHL SUB DUP6 AND PUSH1 0x20 DUP5 ADD MSTORE SWAP1 POP PUSH2 0x7F67 PUSH1 0x40 DUP4 ADD DUP5 PUSH2 0x8657 JUMP JUMPDEST PUSH0 PUSH1 0xA0 DUP3 DUP5 SUB SLT DUP1 ISZERO PUSH2 0x86D2 JUMPI PUSH0 DUP1 REVERT JUMPDEST POP PUSH2 0x86DB PUSH2 0x7664 JUMP JUMPDEST DUP3 CALLDATALOAD DUP2 MSTORE PUSH1 0x20 DUP1 DUP5 ADD CALLDATALOAD SWAP1 DUP3 ADD MSTORE PUSH1 0x40 DUP1 DUP5 ADD CALLDATALOAD SWAP1 DUP3 ADD MSTORE PUSH1 0x60 DUP1 DUP5 ADD CALLDATALOAD SWAP1 DUP3 ADD MSTORE PUSH1 0x80 SWAP3 DUP4 ADD CALLDATALOAD SWAP3 DUP2 ADD SWAP3 SWAP1 SWAP3 MSTORE POP SWAP2 SWAP1 POP JUMP JUMPDEST PUSH1 0x20 DUP2 MSTORE PUSH0 PUSH2 0x77BE PUSH1 0x20 DUP4 ADD DUP5 PUSH2 0x7FA6 JUMP JUMPDEST DUP5 DUP2 MSTORE DUP4 PUSH1 0x20 DUP3 ADD MSTORE PUSH1 0x1 DUP1 PUSH1 0xA0 SHL SUB DUP4 AND PUSH1 0x40 DUP3 ADD MSTORE PUSH1 0x80 PUSH1 0x60 DUP3 ADD MSTORE PUSH0 PUSH2 0x857D PUSH1 0x80 DUP4 ADD DUP5 PUSH2 0x8367 JUMP JUMPDEST PUSH1 0x20 DUP2 MSTORE PUSH0 PUSH2 0x100 DUP3 ADD DUP4 MLOAD PUSH1 0xE0 PUSH1 0x20 DUP6 ADD MSTORE DUP2 DUP2 MLOAD DUP1 DUP5 MSTORE PUSH2 0x120 DUP7 ADD SWAP2 POP PUSH2 0x120 DUP2 PUSH1 0x5 SHL DUP8 ADD ADD SWAP4 POP PUSH1 0x20 DUP4 ADD SWAP3 POP PUSH0 JUMPDEST DUP2 DUP2 LT ISZERO PUSH2 0x8835 JUMPI PUSH2 0x11F NOT DUP8 DUP7 SUB ADD DUP4 MSTORE DUP4 MLOAD PUSH1 0xA0 DUP7 ADD DUP2 MLOAD DUP8 MSTORE PUSH1 0x20 DUP3 ADD MLOAD PUSH1 0x20 DUP9 ADD MSTORE PUSH1 0x40 DUP3 ADD MLOAD PUSH1 0x40 DUP9 ADD MSTORE PUSH1 0x60 DUP3 ADD MLOAD PUSH1 0x60 DUP9 ADD MSTORE PUSH1 0x80 DUP3 ADD MLOAD SWAP2 POP PUSH1 0xA0 PUSH1 0x80 DUP9 ADD MSTORE DUP1 DUP3 MLOAD DUP1 DUP4 MSTORE PUSH1 0xC0 DUP10 ADD SWAP2 POP PUSH1 0xC0 DUP2 PUSH1 0x5 SHL DUP11 ADD ADD SWAP3 POP PUSH1 0x20 DUP5 ADD SWAP4 POP PUSH0 JUMPDEST DUP2 DUP2 LT ISZERO PUSH2 0x881B JUMPI PUSH1 0xBF NOT DUP11 DUP6 SUB ADD DUP4 MSTORE PUSH2 0x8805 DUP5 DUP7 MLOAD PUSH2 0x7CC7 JUMP JUMPDEST PUSH1 0x20 SWAP6 DUP7 ADD SWAP6 SWAP1 SWAP5 POP SWAP3 SWAP1 SWAP3 ADD SWAP2 PUSH1 0x1 ADD PUSH2 0x87E9 JUMP JUMPDEST POP SWAP2 SWAP8 POP POP POP PUSH1 0x20 SWAP5 DUP6 ADD SWAP5 SWAP4 SWAP1 SWAP4 ADD SWAP3 POP PUSH1 0x1 ADD PUSH2 0x8782 JUMP JUMPDEST POP POP POP POP PUSH1 0x20 DUP5 ADD MLOAD DUP4 DUP3 SUB PUSH1 0x1F NOT ADD PUSH1 0x40 DUP6 ADD MSTORE PUSH2 0x8854 DUP3 DUP3 PUSH2 0x8367 JUMP JUMPDEST SWAP2 POP POP PUSH1 0x40 DUP5 ADD MLOAD PUSH2 0x8869 PUSH1 0x60 DUP6 ADD DUP3 PUSH2 0x75DC JUMP JUMPDEST POP PUSH1 0x60 DUP5 ADD MLOAD PUSH2 0x6330 PUSH1 0x80 DUP6 ADD DUP3 PUSH2 0x8657 JUMP JUMPDEST PUSH0 PUSH1 0x20 DUP3 DUP5 SUB SLT ISZERO PUSH2 0x888C JUMPI PUSH0 DUP1 REVERT JUMPDEST DUP2 CALLDATALOAD PUSH1 0x1 PUSH1 0x1 PUSH1 0x40 SHL SUB DUP2 GT ISZERO PUSH2 0x88A1 JUMPI PUSH0 DUP1 REVERT JUMPDEST DUP3 ADD PUSH1 0x1F DUP2 ADD DUP5 SGT PUSH2 0x88B1 JUMPI PUSH0 DUP1 REVERT JUMPDEST DUP1 CALLDATALOAD PUSH2 0x88BF PUSH2 0x7772 DUP3 PUSH2 0x79B2 JUMP JUMPDEST DUP1 DUP3 DUP3 MSTORE PUSH1 0x20 DUP3 ADD SWAP2 POP PUSH1 0x20 DUP4 PUSH1 0x6 SHL DUP6 ADD ADD SWAP3 POP DUP7 DUP4 GT ISZERO PUSH2 0x88E0 JUMPI PUSH0 DUP1 REVERT JUMPDEST PUSH1 0x20 DUP5 ADD SWAP4 POP JUMPDEST DUP3 DUP5 LT ISZERO PUSH2 0x857D JUMPI PUSH1 0x40 DUP5 DUP9 SUB SLT ISZERO PUSH2 0x88FE JUMPI PUSH0 DUP1 REVERT JUMPDEST PUSH2 0x8906 PUSH2 0x76CA JUMP JUMPDEST DUP5 CALLDATALOAD DUP2 MSTORE PUSH1 0x20 DUP1 DUP7 ADD CALLDATALOAD DUP2 DUP4 ADD MSTORE SWAP1 DUP4 MSTORE PUSH1 0x40 SWAP1 SWAP5 ADD SWAP4 SWAP2 SWAP1 SWAP2 ADD SWAP1 PUSH2 0x88E7 JUMP JUMPDEST PUSH4 0x4E487B71 PUSH1 0xE0 SHL PUSH0 MSTORE PUSH1 0x11 PUSH1 0x4 MSTORE PUSH1 0x24 PUSH0 REVERT JUMPDEST PUSH0 PUSH1 0x1 DUP3 ADD PUSH2 0x894C JUMPI PUSH2 0x894C PUSH2 0x8927 JUMP JUMPDEST POP PUSH1 0x1 ADD SWAP1 JUMP JUMPDEST PUSH1 0x1 DUP2 DUP2 SHR SWAP1 DUP3 AND DUP1 PUSH2 0x8967 JUMPI PUSH1 0x7F DUP3 AND SWAP2 POP JUMPDEST PUSH1 0x20 DUP3 LT DUP2 SUB PUSH2 0x1173 JUMPI PUSH4 0x4E487B71 PUSH1 0xE0 SHL PUSH0 MSTORE PUSH1 0x22 PUSH1 0x4 MSTORE PUSH1 0x24 PUSH0 REVERT JUMPDEST PUSH1 0x1F DUP3 GT ISZERO PUSH2 0x89CC JUMPI DUP1 PUSH0 MSTORE PUSH1 0x20 PUSH0 KECCAK256 PUSH1 0x1F DUP5 ADD PUSH1 0x5 SHR DUP2 ADD PUSH1 0x20 DUP6 LT ISZERO PUSH2 0x89AA JUMPI POP DUP1 JUMPDEST PUSH1 0x1F DUP5 ADD PUSH1 0x5 SHR DUP3 ADD SWAP2 POP JUMPDEST DUP2 DUP2 LT ISZERO PUSH2 0x89C9 JUMPI PUSH0 DUP2 SSTORE PUSH1 0x1 ADD PUSH2 0x89B6 JUMP JUMPDEST POP POP JUMPDEST POP POP POP JUMP JUMPDEST DUP2 MLOAD PUSH1 0x1 PUSH1 0x1 PUSH1 0x40 SHL SUB DUP2 GT ISZERO PUSH2 0x89EA JUMPI PUSH2 0x89EA PUSH2 0x7627 JUMP JUMPDEST PUSH2 0x89FE DUP2 PUSH2 0x89F8 DUP5 SLOAD PUSH2 0x8953 JUMP JUMPDEST DUP5 PUSH2 0x8985 JUMP JUMPDEST PUSH1 0x20 PUSH1 0x1F DUP3 GT PUSH1 0x1 DUP2 EQ PUSH2 0x8A30 JUMPI PUSH0 DUP4 ISZERO PUSH2 0x8A19 JUMPI POP DUP5 DUP3 ADD MLOAD JUMPDEST PUSH0 NOT PUSH1 0x3 DUP6 SWAP1 SHL SHR NOT AND PUSH1 0x1 DUP5 SWAP1 SHL OR DUP5 SSTORE PUSH2 0x89C9 JUMP JUMPDEST PUSH0 DUP5 DUP2 MSTORE PUSH1 0x20 DUP2 KECCAK256 PUSH1 0x1F NOT DUP6 AND SWAP2 JUMPDEST DUP3 DUP2 LT ISZERO PUSH2 0x8A5F JUMPI DUP8 DUP6 ADD MLOAD DUP3 SSTORE PUSH1 0x20 SWAP5 DUP6 ADD SWAP5 PUSH1 0x1 SWAP1 SWAP3 ADD SWAP2 ADD PUSH2 0x8A3F JUMP JUMPDEST POP DUP5 DUP3 LT ISZERO PUSH2 0x8A7C JUMPI DUP7 DUP5 ADD MLOAD PUSH0 NOT PUSH1 0x3 DUP8 SWAP1 SHL PUSH1 0xF8 AND SHR NOT AND DUP2 SSTORE JUMPDEST POP POP POP POP PUSH1 0x1 SWAP1 DUP2 SHL ADD SWAP1 SSTORE POP JUMP JUMPDEST DUP13 DUP2 MSTORE DUP12 PUSH1 0x20 DUP3 ADD MSTORE PUSH2 0x8AA1 PUSH1 0x40 DUP3 ADD DUP13 PUSH2 0x75DC JUMP JUMPDEST PUSH2 0x180 PUSH1 0x60 DUP3 ADD MSTORE PUSH0 PUSH2 0x8AB8 PUSH2 0x180 DUP4 ADD DUP13 PUSH2 0x7CC7 JUMP JUMPDEST DUP3 DUP2 SUB PUSH1 0x80 DUP5 ADD MSTORE PUSH2 0x8ACA DUP2 DUP13 PUSH2 0x7CC7 JUMP JUMPDEST SWAP1 POP DUP3 DUP2 SUB PUSH1 0xA0 DUP5 ADD MSTORE PUSH2 0x8ADE DUP2 DUP12 PUSH2 0x7CC7 JUMP JUMPDEST SWAP1 POP DUP3 DUP2 SUB PUSH1 0xC0 DUP5 ADD MSTORE PUSH2 0x8AF2 DUP2 DUP11 PUSH2 0x7CC7 JUMP JUMPDEST SWAP1 POP DUP3 DUP2 SUB PUSH1 0xE0 DUP5 ADD MSTORE PUSH2 0x8B06 DUP2 DUP10 PUSH2 0x7CC7 JUMP JUMPDEST SWAP1 POP DUP3 DUP2 SUB PUSH2 0x100 DUP5 ADD MSTORE PUSH2 0x8B1B DUP2 DUP9 PUSH2 0x7CC7 JUMP JUMPDEST SWAP1 POP DUP3 DUP2 SUB PUSH2 0x120 DUP5 ADD MSTORE PUSH2 0x8B30 DUP2 DUP8 PUSH2 0x7CC7 JUMP JUMPDEST SWAP1 POP DUP3 DUP2 SUB PUSH2 0x140 DUP5 ADD MSTORE PUSH2 0x8B45 DUP2 DUP7 PUSH2 0x7CC7 JUMP JUMPDEST SWAP1 POP DUP3 DUP2 SUB PUSH2 0x160 DUP5 ADD MSTORE PUSH2 0x8B5A DUP2 DUP6 PUSH2 0x7CC7 JUMP JUMPDEST SWAP16 SWAP15 POP POP POP POP POP POP POP POP POP POP POP POP POP POP POP JUMP JUMPDEST PUSH1 0x20 DUP1 DUP3 MSTORE PUSH1 0x58 SWAP1 DUP3 ADD MSTORE PUSH0 DUP1 MLOAD PUSH1 0x20 PUSH2 0x9520 DUP4 CODECOPY DUP2 MLOAD SWAP2 MSTORE PUSH1 0x40 DUP3 ADD MSTORE PUSH32 0x223A20313030322C20226D657373616765223A22596F7520617265206E6F7420 PUSH1 0x60 DUP3 ADD MSTORE PUSH24 0x6F776E6572206F66207468652073686172656C696E6B227D PUSH1 0x40 SHL PUSH1 0x80 DUP3 ADD MSTORE PUSH1 0xA0 ADD SWAP1 JUMP JUMPDEST PUSH4 0x4E487B71 PUSH1 0xE0 SHL PUSH0 MSTORE PUSH1 0x32 PUSH1 0x4 MSTORE PUSH1 0x24 PUSH0 REVERT JUMPDEST PUSH0 DUP2 MLOAD DUP1 PUSH1 0x20 DUP5 ADD DUP6 MCOPY PUSH0 SWAP4 ADD SWAP3 DUP4 MSTORE POP SWAP1 SWAP2 SWAP1 POP JUMP JUMPDEST PUSH25 0x1EC8999C9BDB488E88089158DBDB53DC99195C8B9CDBDB088B PUSH1 0x3A SHL DUP2 MSTORE PUSH8 0x1131B7B232911D1 PUSH1 0xC5 SHL PUSH1 0x19 DUP3 ADD MSTORE PUSH0 PUSH2 0x8C41 PUSH1 0x21 DUP4 ADD DUP6 PUSH2 0x8BEC JUMP JUMPDEST PUSH2 0x161 PUSH1 0xF5 SHL DUP2 MSTORE PUSH12 0x1136B2B9B9B0B3B2911D1011 PUSH1 0xA1 SHL PUSH1 0x2 DUP3 ADD MSTORE PUSH2 0x8C6B PUSH1 0xE DUP3 ADD DUP6 PUSH2 0x8BEC JUMP JUMPDEST PUSH2 0x227D PUSH1 0xF0 SHL DUP2 MSTORE PUSH1 0x2 ADD SWAP6 SWAP5 POP POP POP POP POP JUMP JUMPDEST PUSH0 PUSH1 0x20 DUP3 DUP5 SUB SLT ISZERO PUSH2 0x8C8F JUMPI PUSH0 DUP1 REVERT JUMPDEST POP MLOAD SWAP2 SWAP1 POP JUMP JUMPDEST PUSH0 PUSH2 0x8CA3 PUSH2 0x7772 DUP5 PUSH2 0x773F JUMP JUMPDEST SWAP1 POP DUP3 DUP2 MSTORE DUP4 DUP4 DUP4 ADD GT ISZERO PUSH2 0x8CB6 JUMPI PUSH0 DUP1 REVERT JUMPDEST DUP3 DUP3 PUSH1 0x20 DUP4 ADD MCOPY PUSH0 PUSH1 0x20 DUP5 DUP4 ADD ADD MSTORE SWAP4 SWAP3 POP POP POP JUMP JUMPDEST PUSH0 DUP3 PUSH1 0x1F DUP4 ADD SLT PUSH2 0x8CDB JUMPI PUSH0 DUP1 REVERT JUMPDEST PUSH2 0x77BE DUP4 DUP4 MLOAD PUSH1 0x20 DUP6 ADD PUSH2 0x8C96 JUMP JUMPDEST PUSH0 DUP3 PUSH1 0x1F DUP4 ADD SLT PUSH2 0x8CF9 JUMPI PUSH0 DUP1 REVERT JUMPDEST DUP2 MLOAD PUSH2 0x8D07 PUSH2 0x7772 DUP3 PUSH2 0x79B2 JUMP JUMPDEST DUP1 DUP3 DUP3 MSTORE PUSH1 0x20 DUP3 ADD SWAP2 POP PUSH1 0x20 DUP4 PUSH1 0x5 SHL DUP7 ADD ADD SWAP3 POP DUP6 DUP4 GT ISZERO PUSH2 0x8D28 JUMPI PUSH0 DUP1 REVERT JUMPDEST PUSH1 0x20 DUP6 ADD JUMPDEST DUP4 DUP2 LT ISZERO PUSH2 0x7A2F JUMPI DUP1 MLOAD DUP4 MSTORE PUSH1 0x20 SWAP3 DUP4 ADD SWAP3 ADD PUSH2 0x8D2D JUMP JUMPDEST PUSH0 DUP3 PUSH1 0x1F DUP4 ADD SLT PUSH2 0x8D54 JUMPI PUSH0 DUP1 REVERT JUMPDEST DUP2 MLOAD PUSH2 0x8D62 PUSH2 0x7772 DUP3 PUSH2 0x79B2 JUMP JUMPDEST DUP1 DUP3 DUP3 MSTORE PUSH1 0x20 DUP3 ADD SWAP2 POP PUSH1 0x20 DUP4 PUSH1 0x5 SHL DUP7 ADD ADD SWAP3 POP DUP6 DUP4 GT ISZERO PUSH2 0x8D83 JUMPI PUSH0 DUP1 REVERT JUMPDEST PUSH1 0x20 DUP6 ADD JUMPDEST DUP4 DUP2 LT ISZERO PUSH2 0x7A2F JUMPI DUP1 MLOAD PUSH1 0x1 PUSH1 0x1 PUSH1 0x40 SHL SUB DUP2 GT ISZERO PUSH2 0x8DA5 JUMPI PUSH0 DUP1 REVERT JUMPDEST DUP7 ADD PUSH1 0x3F DUP2 ADD DUP9 SGT PUSH2 0x8DB5 JUMPI PUSH0 DUP1 REVERT JUMPDEST PUSH2 0x8DC7 DUP9 PUSH1 0x20 DUP4 ADD MLOAD PUSH1 0x40 DUP5 ADD PUSH2 0x8C96 JUMP JUMPDEST DUP5 MSTORE POP PUSH1 0x20 SWAP3 DUP4 ADD SWAP3 ADD PUSH2 0x8D88 JUMP JUMPDEST DUP1 MLOAD PUSH2 0x8DE1 DUP2 PUSH2 0x75E9 JUMP JUMPDEST SWAP2 SWAP1 POP JUMP JUMPDEST DUP1 MLOAD DUP1 ISZERO ISZERO DUP2 EQ PUSH2 0x8DE1 JUMPI PUSH0 DUP1 REVERT JUMPDEST PUSH0 PUSH1 0x20 DUP3 DUP5 SUB SLT ISZERO PUSH2 0x8E05 JUMPI PUSH0 DUP1 REVERT JUMPDEST DUP2 MLOAD PUSH1 0x1 PUSH1 0x1 PUSH1 0x40 SHL SUB DUP2 GT ISZERO PUSH2 0x8E1A JUMPI PUSH0 DUP1 REVERT JUMPDEST DUP3 ADD PUSH1 0x80 DUP2 DUP6 SUB SLT ISZERO PUSH2 0x8E2B JUMPI PUSH0 DUP1 REVERT JUMPDEST PUSH2 0x8E33 PUSH2 0x7686 JUMP JUMPDEST DUP2 MLOAD DUP2 MSTORE PUSH1 0x20 DUP3 ADD MLOAD PUSH1 0x1 PUSH1 0x1 PUSH1 0x40 SHL SUB DUP2 GT ISZERO PUSH2 0x8E4F JUMPI PUSH0 DUP1 REVERT JUMPDEST DUP3 ADD PUSH2 0x300 DUP2 DUP8 SUB SLT ISZERO PUSH2 0x8E61 JUMPI PUSH0 DUP1 REVERT JUMPDEST PUSH2 0x8E69 PUSH2 0x76EC JUMP JUMPDEST DUP2 MLOAD PUSH1 0x1 PUSH1 0x1 PUSH1 0x40 SHL SUB DUP2 GT ISZERO PUSH2 0x8E7E JUMPI PUSH0 DUP1 REVERT JUMPDEST PUSH2 0x8E8A DUP9 DUP3 DUP6 ADD PUSH2 0x8CCC JUMP JUMPDEST DUP3 MSTORE POP PUSH1 0x20 DUP3 DUP2 ADD MLOAD SWAP1 DUP3 ADD MSTORE PUSH1 0x40 DUP3 ADD MLOAD PUSH1 0x1 PUSH1 0x1 PUSH1 0x40 SHL SUB DUP2 GT ISZERO PUSH2 0x8EAF JUMPI PUSH0 DUP1 REVERT JUMPDEST PUSH2 0x8EBB DUP9 DUP3 DUP6 ADD PUSH2 0x8CCC JUMP JUMPDEST PUSH1 0x40 DUP4 ADD MSTORE POP PUSH1 0x60 DUP3 DUP2 ADD MLOAD SWAP1 DUP3 ADD MSTORE PUSH1 0x80 DUP1 DUP4 ADD MLOAD SWAP1 DUP3 ADD MSTORE PUSH1 0xA0 DUP1 DUP4 ADD MLOAD SWAP1 DUP3 ADD MSTORE PUSH1 0xC0 DUP1 DUP4 ADD MLOAD SWAP1 DUP3 ADD MSTORE PUSH1 0xE0 DUP3 ADD MLOAD PUSH1 0x1 PUSH1 0x1 PUSH1 0x40 SHL SUB DUP2 GT ISZERO PUSH2 0x8F01 JUMPI PUSH0 DUP1 REVERT JUMPDEST PUSH2 0x8F0D DUP9 DUP3 DUP6 ADD PUSH2 0x8CEA JUMP JUMPDEST PUSH1 0xE0 DUP4 ADD MSTORE POP PUSH2 0x100 DUP3 ADD MLOAD PUSH1 0x1 PUSH1 0x1 PUSH1 0x40 SHL SUB DUP2 GT ISZERO PUSH2 0x8F2C JUMPI PUSH0 DUP1 REVERT JUMPDEST PUSH2 0x8F38 DUP9 DUP3 DUP6 ADD PUSH2 0x8D45 JUMP JUMPDEST PUSH2 0x100 DUP4 ADD MSTORE POP PUSH2 0x120 DUP3 DUP2 ADD MLOAD SWAP1 DUP3 ADD MSTORE PUSH2 0x140 DUP1 DUP4 ADD MLOAD SWAP1 DUP3 ADD MSTORE PUSH2 0x160 DUP3 ADD MLOAD PUSH1 0x1 PUSH1 0x1 PUSH1 0x40 SHL SUB DUP2 GT ISZERO PUSH2 0x8F6E JUMPI PUSH0 DUP1 REVERT JUMPDEST PUSH2 0x8F7A DUP9 DUP3 DUP6 ADD PUSH2 0x8D45 JUMP JUMPDEST PUSH2 0x160 DUP4 ADD MSTORE POP PUSH2 0x8F8E PUSH2 0x180 DUP4 ADD PUSH2 0x8DD6 JUMP JUMPDEST PUSH2 0x180 DUP3 ADD MSTORE PUSH2 0x1A0 DUP3 ADD MLOAD PUSH1 0x1 PUSH1 0x1 PUSH1 0x40 SHL SUB DUP2 GT ISZERO PUSH2 0x8FAD JUMPI PUSH0 DUP1 REVERT JUMPDEST PUSH2 0x8FB9 DUP9 DUP3 DUP6 ADD PUSH2 0x8CCC JUMP JUMPDEST PUSH2 0x1A0 DUP4 ADD MSTORE POP PUSH2 0x1C0 DUP3 ADD MLOAD PUSH1 0x1 PUSH1 0x1 PUSH1 0x40 SHL SUB DUP2 GT ISZERO PUSH2 0x8FD9 JUMPI PUSH0 DUP1 REVERT JUMPDEST PUSH2 0x8FE5 DUP9 DUP3 DUP6 ADD PUSH2 0x8CCC JUMP JUMPDEST PUSH2 0x1C0 DUP4 ADD MSTORE POP PUSH2 0x8FF9 PUSH2 0x1E0 DUP4 ADD PUSH2 0x8DE6 JUMP JUMPDEST PUSH2 0x1E0 DUP3 ADD MSTORE PUSH2 0x200 DUP3 ADD MLOAD PUSH1 0x1 PUSH1 0x1 PUSH1 0x40 SHL SUB DUP2 GT ISZERO PUSH2 0x9018 JUMPI PUSH0 DUP1 REVERT JUMPDEST PUSH2 0x9024 DUP9 DUP3 DUP6 ADD PUSH2 0x8D45 JUMP JUMPDEST PUSH2 0x200 DUP4 ADD MSTORE POP PUSH2 0x220 DUP3 ADD MLOAD PUSH1 0x1 PUSH1 0x1 PUSH1 0x40 SHL SUB DUP2 GT ISZERO PUSH2 0x9044 JUMPI PUSH0 DUP1 REVERT JUMPDEST PUSH2 0x9050 DUP9 DUP3 DUP6 ADD PUSH2 0x8CCC JUMP JUMPDEST PUSH2 0x220 DUP4 ADD MSTORE POP PUSH2 0x240 DUP3 DUP2 ADD MLOAD SWAP1 DUP3 ADD MSTORE PUSH2 0x260 DUP1 DUP4 ADD MLOAD SWAP1 DUP3 ADD MSTORE PUSH2 0x280 DUP1 DUP4 ADD MLOAD SWAP1 DUP3 ADD MSTORE PUSH2 0x9085 PUSH2 0x2A0 DUP4 ADD PUSH2 0x8DE6 JUMP JUMPDEST PUSH2 0x2A0 DUP3 ADD MSTORE PUSH2 0x9098 PUSH2 0x2C0 DUP4 ADD PUSH2 0x8DE6 JUMP JUMPDEST PUSH2 0x2C0 DUP3 ADD MSTORE PUSH2 0x2E0 SWAP2 DUP3 ADD MLOAD SWAP2 DUP2 ADD SWAP2 SWAP1 SWAP2 MSTORE PUSH1 0x20 DUP3 ADD MSTORE PUSH1 0x40 DUP3 DUP2 ADD MLOAD SWAP1 DUP3 ADD MSTORE PUSH1 0x60 SWAP2 DUP3 ADD MLOAD SWAP2 DUP2 ADD SWAP2 SWAP1 SWAP2 MSTORE SWAP4 SWAP3 POP POP POP JUMP JUMPDEST SWAP2 DUP3 MSTORE PUSH1 0x20 DUP3 ADD MSTORE PUSH1 0x40 ADD SWAP1 JUMP JUMPDEST PUSH0 DUP2 DUP4 SUB PUSH1 0xC0 DUP2 SLT DUP1 ISZERO PUSH2 0x90EF JUMPI PUSH0 DUP1 REVERT JUMPDEST POP PUSH2 0x90F8 PUSH2 0x76CA JUMP JUMPDEST DUP4 MLOAD DUP2 MSTORE PUSH1 0xA0 PUSH1 0x1F NOT DUP4 ADD SLT ISZERO PUSH2 0x910D JUMPI PUSH0 DUP1 REVERT JUMPDEST PUSH2 0x9115 PUSH2 0x7664 JUMP JUMPDEST PUSH1 0x20 DUP6 DUP2 ADD MLOAD DUP3 MSTORE PUSH1 0x40 DUP1 DUP8 ADD MLOAD DUP3 DUP5 ADD MSTORE PUSH1 0x60 DUP1 DUP9 ADD MLOAD SWAP2 DUP5 ADD SWAP2 SWAP1 SWAP2 MSTORE PUSH1 0x80 DUP1 DUP9 ADD MLOAD SWAP2 DUP5 ADD SWAP2 SWAP1 SWAP2 MSTORE PUSH1 0xA0 SWAP1 SWAP7 ADD MLOAD SWAP6 DUP3 ADD SWAP6 SWAP1 SWAP6 MSTORE SWAP4 DUP2 ADD SWAP4 SWAP1 SWAP4 MSTORE POP SWAP1 SWAP3 SWAP2 POP POP JUMP JUMPDEST PUSH1 0x1 PUSH1 0x1 PUSH1 0xA0 SHL SUB DUP8 DUP2 AND DUP3 MSTORE PUSH1 0x20 DUP3 ADD DUP8 SWAP1 MSTORE PUSH1 0x40 DUP3 ADD DUP7 SWAP1 MSTORE DUP5 AND PUSH1 0x60 DUP3 ADD MSTORE PUSH1 0xC0 DUP2 ADD PUSH2 0x918C DUP5 PUSH2 0x863B JUMP JUMPDEST DUP4 PUSH1 0x80 DUP4 ADD MSTORE DUP3 ISZERO ISZERO PUSH1 0xA0 DUP4 ADD MSTORE SWAP8 SWAP7 POP POP POP POP POP POP POP JUMP JUMPDEST PUSH1 0x20 DUP1 DUP3 MSTORE PUSH1 0x49 SWAP1 DUP3 ADD MSTORE PUSH0 DUP1 MLOAD PUSH1 0x20 PUSH2 0x9520 DUP4 CODECOPY DUP2 MLOAD SWAP2 MSTORE PUSH1 0x40 DUP3 ADD MSTORE PUSH32 0x223A2035352C20226D657373616765223A2022596F7520617265206E6F742061 PUSH1 0x60 DUP3 ADD MSTORE PUSH9 0x6C6C6F7765642E227D PUSH1 0xB8 SHL PUSH1 0x80 DUP3 ADD MSTORE PUSH1 0xA0 ADD SWAP1 JUMP JUMPDEST PUSH0 PUSH1 0x20 DUP3 DUP5 SUB SLT ISZERO PUSH2 0x9211 JUMPI PUSH0 DUP1 REVERT JUMPDEST DUP2 MLOAD PUSH2 0x77BE DUP2 PUSH2 0x75E9 JUMP JUMPDEST DUP2 DUP2 SUB DUP2 DUP2 GT ISZERO PUSH2 0xD79 JUMPI PUSH2 0xD79 PUSH2 0x8927 JUMP JUMPDEST PUSH4 0x4E487B71 PUSH1 0xE0 SHL PUSH0 MSTORE PUSH1 0x31 PUSH1 0x4 MSTORE PUSH1 0x24 PUSH0 REVERT JUMPDEST PUSH1 0x60 DUP2 MSTORE PUSH0 PUSH2 0x9255 PUSH1 0x60 DUP4 ADD DUP6 PUSH2 0x7CC7 JUMP JUMPDEST SWAP1 POP DUP3 MLOAD PUSH1 0x20 DUP4 ADD MSTORE PUSH1 0x20 DUP4 ADD MLOAD PUSH1 0x40 DUP4 ADD MSTORE SWAP4 SWAP3 POP POP POP JUMP JUMPDEST PUSH0 PUSH1 0xFF DUP3 AND PUSH1 0xFF DUP2 SUB PUSH2 0x9284 JUMPI PUSH2 0x9284 PUSH2 0x8927 JUMP JUMPDEST PUSH1 0x1 ADD SWAP3 SWAP2 POP POP JUMP JUMPDEST PUSH1 0x20 DUP1 DUP3 MSTORE DUP3 MLOAD DUP3 DUP3 ADD DUP2 SWAP1 MSTORE PUSH0 SWAP2 DUP5 ADD SWAP1 PUSH1 0x40 DUP5 ADD SWAP1 DUP4 JUMPDEST DUP2 DUP2 LT ISZERO PUSH2 0x85C9 JUMPI DUP4 MLOAD DUP4 MSTORE PUSH1 0x20 SWAP4 DUP5 ADD SWAP4 SWAP1 SWAP3 ADD SWAP2 PUSH1 0x1 ADD PUSH2 0x92A6 JUMP JUMPDEST PUSH0 PUSH1 0x20 DUP3 DUP5 SUB SLT ISZERO PUSH2 0x92D4 JUMPI PUSH0 DUP1 REVERT JUMPDEST DUP2 MLOAD PUSH1 0x1 PUSH1 0x1 PUSH1 0x40 SHL SUB DUP2 GT ISZERO PUSH2 0x92E9 JUMPI PUSH0 DUP1 REVERT JUMPDEST DUP3 ADD PUSH1 0x1F DUP2 ADD DUP5 SGT PUSH2 0x92F9 JUMPI PUSH0 DUP1 REVERT JUMPDEST DUP1 MLOAD PUSH2 0x9307 PUSH2 0x7772 DUP3 PUSH2 0x79B2 JUMP JUMPDEST DUP1 DUP3 DUP3 MSTORE PUSH1 0x20 DUP3 ADD SWAP2 POP PUSH1 0x20 DUP4 PUSH1 0x5 SHL DUP6 ADD ADD SWAP3 POP DUP7 DUP4 GT ISZERO PUSH2 0x9328 JUMPI PUSH0 DUP1 REVERT JUMPDEST PUSH1 0x20 DUP5 ADD SWAP4 POP JUMPDEST DUP3 DUP5 LT ISZERO PUSH2 0x857D JUMPI DUP4 MLOAD PUSH2 0x9342 DUP2 PUSH2 0x75E9 JUMP JUMPDEST DUP3 MSTORE PUSH1 0x20 SWAP4 DUP5 ADD SWAP4 SWAP1 SWAP2 ADD SWAP1 PUSH2 0x932F JUMP JUMPDEST DUP4 DUP2 MSTORE PUSH1 0x1 PUSH1 0x1 PUSH1 0xA0 SHL SUB DUP4 AND PUSH1 0x20 DUP1 DUP4 ADD SWAP2 SWAP1 SWAP2 MSTORE PUSH1 0x60 PUSH1 0x40 DUP4 ADD DUP2 SWAP1 MSTORE DUP4 MLOAD SWAP1 DUP4 ADD DUP2 SWAP1 MSTORE PUSH0 SWAP2 DUP5 ADD SWAP1 PUSH1 0x80 DUP5 ADD SWAP1 DUP4 JUMPDEST DUP2 DUP2 LT ISZERO PUSH2 0x93AD JUMPI DUP4 MLOAD PUSH1 0x1 PUSH1 0x1 PUSH1 0xA0 SHL SUB AND DUP4 MSTORE PUSH1 0x20 SWAP4 DUP5 ADD SWAP4 SWAP1 SWAP3 ADD SWAP2 PUSH1 0x1 ADD PUSH2 0x9386 JUMP JUMPDEST POP SWAP1 SWAP8 SWAP7 POP POP POP POP POP POP POP JUMP JUMPDEST DUP1 DUP3 ADD DUP1 DUP3 GT ISZERO PUSH2 0xD79 JUMPI PUSH2 0xD79 PUSH2 0x8927 JUMP JUMPDEST PUSH1 0x1 PUSH1 0x1 PUSH1 0xA0 SHL SUB SWAP5 DUP6 AND DUP2 MSTORE PUSH1 0x20 DUP2 ADD SWAP4 SWAP1 SWAP4 MSTORE SWAP3 AND PUSH1 0x40 DUP3 ADD MSTORE SWAP1 ISZERO ISZERO PUSH1 0x60 DUP3 ADD MSTORE PUSH1 0x80 ADD SWAP1 JUMP JUMPDEST PUSH0 PUSH1 0x20 DUP3 DUP5 SUB SLT ISZERO PUSH2 0x9407 JUMPI PUSH0 DUP1 REVERT JUMPDEST PUSH2 0x77BE DUP3 PUSH2 0x8DE6 JUMP JUMPDEST DUP1 DUP3 MUL DUP2 ISZERO DUP3 DUP3 DIV DUP5 EQ OR PUSH2 0xD79 JUMPI PUSH2 0xD79 PUSH2 0x8927 JUMP INVALID SLOAD PUSH9 0x69732070726F647563 PUSH21 0x20686173206E6F74206265656E20617070726F7665 PUSH5 0x2E496E7661 PUSH13 0x6964207061796D656E74207479 PUSH17 0x652C207061796D656E7420747970652073 PUSH9 0x6F756C64206D65206D PUSH6 0x74616E6F6465 MSTORE PUSH6 0x717565737465 PUSH5 0x207175616E PUSH21 0x697479206578636565647320617661696C61626C65 KECCAK256 PUSH20 0x746F636B50726F6475637420616E642076617269 PUSH2 0x6E74 KECCAK256 PUSH2 0x6C72 PUSH6 0x616479206578 PUSH10 0x73747320696E20636172 PUSH21 0x223A20313030332C20226D657373616765223A2249 PUSH15 0x76616C69642073686172496E737566 PUSH7 0x696369656E7420 PUSH18 0x75616E7469747920617661696C61626C6520 PUSH7 0x6F722070757263 PUSH9 0x6173657B2266726F6D 0x22 GASPRICE KECCAK256 0x22 GASLIMIT PUSH4 0x6F6D5072 PUSH16 0x647563742E736F6C222C22636F6465A2 PUSH5 0x6970667358 0x22 SLT KECCAK256 0xC1 EQ 0xCC 0xA5 0xC0 MOD 0xC 0x4D CALLCODE PUSH11 0x5013E1FDDE7CA4E80824F5 PUSH32 0x7F8414DA69321390DC0864736F6C634300081A00330000000000000000000000 "
		},
		"gasEstimates": {
			"creation": {
				"codeDepositCost": "7652200",
				"executionCost": "34229",
				"totalCost": "7686429"
			},
			"external": {
				"CheckCallData(bytes)": "infinite",
				"ConfirmPaymentForOrderCode(bytes32)": "infinite",
				"EcomInfo()": "3042",
				"EcomProduct()": "2932",
				"EcomUser()": "2624",
				"ExecuteOrder((uint256,uint256,bytes32,uint256,string[])[],(string,string,string,string,string,string,string,string,string),(uint256,bytes32,uint8,uint8))": "infinite",
				"GetOrderInfo(uint256)": "infinite",
				"GetOrderInfoFromOrderCode(bytes32)": "infinite",
				"MasterPool()": "3438",
				"POS()": "3372",
				"SetEcomInfo(address)": "infinite",
				"SetEcomProduct(address)": "infinite",
				"SetEcomUser(address)": "infinite",
				"SetMasterPool(address)": "infinite",
				"SetPos(address)": "infinite",
				"SetTreeCom(address)": "infinite",
				"SetUsdt(address)": "infinite",
				"TreeCom()": "3328",
				"USDT()": "3108",
				"addItemToCart(uint256,bytes32,uint256)": "infinite",
				"addItemsToCart((uint256,bytes32,uint256)[])": "infinite",
				"createCart((uint256,uint256,uint256,bytes32,uint256))": "209015",
				"createShareLink((uint256[],uint256[],bytes32[],uint256[],uint256)[],uint256)": "infinite",
				"createShippingInfo((string,string,string,string,string,string,string,string,string),uint256,address)": "infinite",
				"deleteItemInCart(uint256)": "infinite",
				"deleteItemsInCart(uint256[])": "infinite",
				"deleteMultipleShareLink(uint256[])": "infinite",
				"deleteShareLink(uint256)": "infinite",
				"getErrorMessage(uint256,string)": "infinite",
				"getOrder(uint256)": "infinite",
				"getOrderCode(bytes32)": "3491",
				"getOrders()": "infinite",
				"getShareLink(uint256)": "infinite",
				"getShareLinks()": "infinite",
				"getShippingInfoByOrderID(uint256)": "infinite",
				"getUserCart()": "infinite",
				"getUserCartInfo(address)": "infinite",
				"getUserOrders(address)": "infinite",
				"getUserShareLinks(address)": "infinite",
				"mOrder(uint256)": "24021",
				"mOrderInfo(uint256)": "infinite",
				"mOrders(address,uint256)": "5721",
				"mShareLink(uint256)": "6775",
				"mShippingInfo(uint256)": "infinite",
				"mShippingInfoByAddress(address,uint256)": "4731",
				"mShippingInfoByOrder(uint256)": "3139",
				"mUserCart(address)": "5213",
				"mUserShareLink(address,uint256)": "5039",
				"owner()": "2844",
				"updateItemInCart(uint256,uint256)": "infinite",
				"updateItemsToCart((uint256,uint256)[])": "infinite",
				"updateShareLink(uint256,(uint256[],uint256[],bytes32[],uint256[],uint256)[],uint256)": "infinite"
			},
			"internal": {
				"ProcessOrder(struct CreateOrderParams memory[] memory,address)": "infinite",
				"_deleteItemInCart(address,uint256)": "infinite",
				"_deleteParamsForExecuteOrder(uint256)": "infinite",
				"checkValidShareLinkParams(struct ShareLinkParams memory[] memory)": "infinite",
				"deleteItemInCartBySmc(address,uint256)": "infinite",
				"recoverParentOrder(struct ShareLink storage pointer)": "infinite"
			}
		},
		"methodIdentifiers": {
			"CheckCallData(bytes)": "30d51a32",
			"ConfirmPaymentForOrderCode(bytes32)": "f894196e",
			"EcomInfo()": "b814f77b",
			"EcomProduct()": "a354f1b2",
			"EcomUser()": "4d5c5fd7",
			"ExecuteOrder((uint256,uint256,bytes32,uint256,string[])[],(string,string,string,string,string,string,string,string,string),(uint256,bytes32,uint8,uint8))": "76d6e7ef",
			"GetOrderInfo(uint256)": "e217866c",
			"GetOrderInfoFromOrderCode(bytes32)": "ab238f1f",
			"MasterPool()": "fb7ef377",
			"POS()": "f29155ef",
			"SetEcomInfo(address)": "8a8869e2",
			"SetEcomProduct(address)": "62de6230",
			"SetEcomUser(address)": "cac0e650",
			"SetMasterPool(address)": "a559934e",
			"SetPos(address)": "9a377a37",
			"SetTreeCom(address)": "4b5ba409",
			"SetUsdt(address)": "ddcd6408",
			"TreeCom()": "e5fc4ac2",
			"USDT()": "c54e44eb",
			"addItemToCart(uint256,bytes32,uint256)": "399cfa1e",
			"addItemsToCart((uint256,bytes32,uint256)[])": "93c26229",
			"createCart((uint256,uint256,uint256,bytes32,uint256))": "cf991364",
			"createShareLink((uint256[],uint256[],bytes32[],uint256[],uint256)[],uint256)": "a875588d",
			"createShippingInfo((string,string,string,string,string,string,string,string,string),uint256,address)": "040f1d72",
			"deleteItemInCart(uint256)": "4e8781cd",
			"deleteItemsInCart(uint256[])": "86cb0d92",
			"deleteMultipleShareLink(uint256[])": "a4e176ea",
			"deleteShareLink(uint256)": "c006e9a9",
			"getErrorMessage(uint256,string)": "2248632a",
			"getOrder(uint256)": "d09ef241",
			"getOrderCode(bytes32)": "fb08e12e",
			"getOrders()": "2e2dc43e",
			"getShareLink(uint256)": "d71f8181",
			"getShareLinks()": "46e115c0",
			"getShippingInfoByOrderID(uint256)": "834f9ed3",
			"getUserCart()": "44d80330",
			"getUserCartInfo(address)": "1fda90a2",
			"getUserOrders(address)": "63c69f08",
			"getUserShareLinks(address)": "e5e00e93",
			"mOrder(uint256)": "2d8206fe",
			"mOrderInfo(uint256)": "cf9796ec",
			"mOrders(address,uint256)": "ea68ba99",
			"mShareLink(uint256)": "00e6af7f",
			"mShippingInfo(uint256)": "da31f88a",
			"mShippingInfoByAddress(address,uint256)": "02b572d6",
			"mShippingInfoByOrder(uint256)": "bfbe3ef7",
			"mUserCart(address)": "96e98874",
			"mUserShareLink(address,uint256)": "5a7f48f8",
			"owner()": "8da5cb5b",
			"updateItemInCart(uint256,uint256)": "7ce47345",
			"updateItemsToCart((uint256,uint256)[])": "ffafe929",
			"updateShareLink(uint256,(uint256[],uint256[],bytes32[],uint256[],uint256)[],uint256)": "08a53b21"
		}
	},
	"abi": [
		{
			"inputs": [],
			"stateMutability": "payable",
			"type": "constructor"
		},
		{
			"anonymous": false,
			"inputs": [
				{
					"indexed": false,
					"internalType": "uint256",
					"name": "orderID",
					"type": "uint256"
				}
			],
			"name": "eCreateOrder",
			"type": "event"
		},
		{
			"anonymous": false,
			"inputs": [
				{
					"indexed": false,
					"internalType": "uint256",
					"name": "id",
					"type": "uint256"
				},
				{
					"indexed": false,
					"internalType": "uint256",
					"name": "orderID",
					"type": "uint256"
				},
				{
					"indexed": false,
					"internalType": "address",
					"name": "userAddress",
					"type": "address"
				},
				{
					"indexed": false,
					"internalType": "string",
					"name": "firstName",
					"type": "string"
				},
				{
					"indexed": false,
					"internalType": "string",
					"name": "lastName",
					"type": "string"
				},
				{
					"indexed": false,
					"internalType": "string",
					"name": "email",
					"type": "string"
				},
				{
					"indexed": false,
					"internalType": "string",
					"name": "country",
					"type": "string"
				},
				{
					"indexed": false,
					"internalType": "string",
					"name": "city",
					"type": "string"
				},
				{
					"indexed": false,
					"internalType": "string",
					"name": "stateOrProvince",
					"type": "string"
				},
				{
					"indexed": false,
					"internalType": "string",
					"name": "postalCode",
					"type": "string"
				},
				{
					"indexed": false,
					"internalType": "string",
					"name": "phone",
					"type": "string"
				},
				{
					"indexed": false,
					"internalType": "string",
					"name": "addressDetail",
					"type": "string"
				}
			],
			"name": "eCreateShipping",
			"type": "event"
		},
		{
			"anonymous": false,
			"inputs": [
				{
					"indexed": false,
					"internalType": "uint256",
					"name": "id",
					"type": "uint256"
				}
			],
			"name": "eExecuteOrder",
			"type": "event"
		},
		{
			"inputs": [
				{
					"internalType": "bytes",
					"name": "callData",
					"type": "bytes"
				}
			],
			"name": "CheckCallData",
			"outputs": [
				{
					"internalType": "bool",
					"name": "",
					"type": "bool"
				}
			],
			"stateMutability": "view",
			"type": "function"
		},
		{
			"inputs": [
				{
					"internalType": "bytes32",
					"name": "orderCode",
					"type": "bytes32"
				}
			],
			"name": "ConfirmPaymentForOrderCode",
			"outputs": [],
			"stateMutability": "nonpayable",
			"type": "function"
		},
		{
			"inputs": [],
			"name": "EcomInfo",
			"outputs": [
				{
					"internalType": "contract IEcomInfo",
					"name": "",
					"type": "address"
				}
			],
			"stateMutability": "view",
			"type": "function"
		},
		{
			"inputs": [],
			"name": "EcomProduct",
			"outputs": [
				{
					"internalType": "contract IEcomProduct",
					"name": "",
					"type": "address"
				}
			],
			"stateMutability": "view",
			"type": "function"
		},
		{
			"inputs": [],
			"name": "EcomUser",
			"outputs": [
				{
					"internalType": "contract IEcomUser",
					"name": "",
					"type": "address"
				}
			],
			"stateMutability": "view",
			"type": "function"
		},
		{
			"inputs": [
				{
					"components": [
						{
							"internalType": "uint256",
							"name": "productID",
							"type": "uint256"
						},
						{
							"internalType": "uint256",
							"name": "quantity",
							"type": "uint256"
						},
						{
							"internalType": "bytes32",
							"name": "variantID",
							"type": "bytes32"
						},
						{
							"internalType": "uint256",
							"name": "cartItemId",
							"type": "uint256"
						},
						{
							"internalType": "string[]",
							"name": "discountCodes",
							"type": "string[]"
						}
					],
					"internalType": "struct CreateOrderParams[]",
					"name": "params",
					"type": "tuple[]"
				},
				{
					"components": [
						{
							"internalType": "string",
							"name": "firstName",
							"type": "string"
						},
						{
							"internalType": "string",
							"name": "lastName",
							"type": "string"
						},
						{
							"internalType": "string",
							"name": "email",
							"type": "string"
						},
						{
							"internalType": "string",
							"name": "country",
							"type": "string"
						},
						{
							"internalType": "string",
							"name": "city",
							"type": "string"
						},
						{
							"internalType": "string",
							"name": "stateOrProvince",
							"type": "string"
						},
						{
							"internalType": "string",
							"name": "postalCode",
							"type": "string"
						},
						{
							"internalType": "string",
							"name": "phone",
							"type": "string"
						},
						{
							"internalType": "string",
							"name": "addressDetail",
							"type": "string"
						}
					],
					"internalType": "struct ShippingParams",
					"name": "shippingParams",
					"type": "tuple"
				},
				{
					"components": [
						{
							"internalType": "uint256",
							"name": "totalPriceWithoutDiscount",
							"type": "uint256"
						},
						{
							"internalType": "bytes32",
							"name": "codeRef",
							"type": "bytes32"
						},
						{
							"internalType": "enum CheckoutType",
							"name": "checkoutType",
							"type": "uint8"
						},
						{
							"internalType": "enum PaymentType",
							"name": "paymentType",
							"type": "uint8"
						}
					],
					"internalType": "struct orderDetails",
					"name": "details",
					"type": "tuple"
				}
			],
			"name": "ExecuteOrder",
			"outputs": [
				{
					"internalType": "bytes32",
					"name": "",
					"type": "bytes32"
				}
			],
			"stateMutability": "nonpayable",
			"type": "function"
		},
		{
			"inputs": [
				{
					"internalType": "uint256",
					"name": "_id",
					"type": "uint256"
				}
			],
			"name": "GetOrderInfo",
			"outputs": [
				{
					"components": [
						{
							"components": [
								{
									"internalType": "uint256",
									"name": "productID",
									"type": "uint256"
								},
								{
									"internalType": "uint256",
									"name": "quantity",
									"type": "uint256"
								},
								{
									"internalType": "bytes32",
									"name": "variantID",
									"type": "bytes32"
								},
								{
									"internalType": "uint256",
									"name": "cartItemId",
									"type": "uint256"
								},
								{
									"internalType": "string[]",
									"name": "discountCodes",
									"type": "string[]"
								}
							],
							"internalType": "struct CreateOrderParams[]",
							"name": "params",
							"type": "tuple[]"
						},
						{
							"components": [
								{
									"internalType": "string",
									"name": "firstName",
									"type": "string"
								},
								{
									"internalType": "string",
									"name": "lastName",
									"type": "string"
								},
								{
									"internalType": "string",
									"name": "email",
									"type": "string"
								},
								{
									"internalType": "string",
									"name": "country",
									"type": "string"
								},
								{
									"internalType": "string",
									"name": "city",
									"type": "string"
								},
								{
									"internalType": "string",
									"name": "stateOrProvince",
									"type": "string"
								},
								{
									"internalType": "string",
									"name": "postalCode",
									"type": "string"
								},
								{
									"internalType": "string",
									"name": "phone",
									"type": "string"
								},
								{
									"internalType": "string",
									"name": "addressDetail",
									"type": "string"
								}
							],
							"internalType": "struct ShippingParams",
							"name": "shippingParams",
							"type": "tuple"
						},
						{
							"internalType": "address",
							"name": "user",
							"type": "address"
						},
						{
							"components": [
								{
									"internalType": "uint256",
									"name": "totalPriceWithoutDiscount",
									"type": "uint256"
								},
								{
									"internalType": "bytes32",
									"name": "codeRef",
									"type": "bytes32"
								},
								{
									"internalType": "enum CheckoutType",
									"name": "checkoutType",
									"type": "uint8"
								},
								{
									"internalType": "enum PaymentType",
									"name": "paymentType",
									"type": "uint8"
								}
							],
							"internalType": "struct orderDetails",
							"name": "details",
							"type": "tuple"
						}
					],
					"internalType": "struct DecodedParams",
					"name": "",
					"type": "tuple"
				}
			],
			"stateMutability": "view",
			"type": "function"
		},
		{
			"inputs": [
				{
					"internalType": "bytes32",
					"name": "_orderCode",
					"type": "bytes32"
				}
			],
			"name": "GetOrderInfoFromOrderCode",
			"outputs": [
				{
					"components": [
						{
							"internalType": "uint256",
							"name": "orderID",
							"type": "uint256"
						},
						{
							"internalType": "address",
							"name": "user",
							"type": "address"
						},
						{
							"internalType": "address",
							"name": "buyer",
							"type": "address"
						},
						{
							"internalType": "uint256",
							"name": "discountID",
							"type": "uint256"
						},
						{
							"internalType": "uint256[]",
							"name": "cartItemIds",
							"type": "uint256[]"
						},
						{
							"internalType": "uint256[]",
							"name": "productIds",
							"type": "uint256[]"
						},
						{
							"internalType": "bytes32[]",
							"name": "variantIds",
							"type": "bytes32[]"
						},
						{
							"internalType": "uint256[]",
							"name": "quantities",
							"type": "uint256[]"
						},
						{
							"internalType": "uint256[]",
							"name": "diffPrices",
							"type": "uint256[]"
						},
						{
							"internalType": "uint256[]",
							"name": "prices",
							"type": "uint256[]"
						},
						{
							"internalType": "uint256[]",
							"name": "rewards",
							"type": "uint256[]"
						},
						{
							"internalType": "uint256",
							"name": "totalPrice",
							"type": "uint256"
						},
						{
							"internalType": "uint8",
							"name": "checkoutType",
							"type": "uint8"
						},
						{
							"internalType": "uint8",
							"name": "orderStatus",
							"type": "uint8"
						},
						{
							"internalType": "bytes32",
							"name": "codeRef",
							"type": "bytes32"
						},
						{
							"internalType": "uint256",
							"name": "afterDiscountPrice",
							"type": "uint256"
						},
						{
							"internalType": "uint256",
							"name": "shippingPrice",
							"type": "uint256"
						},
						{
							"internalType": "uint8",
							"name": "paymentType",
							"type": "uint8"
						},
						{
							"internalType": "uint256",
							"name": "createdAt",
							"type": "uint256"
						}
					],
					"internalType": "struct Order",
					"name": "res",
					"type": "tuple"
				}
			],
			"stateMutability": "view",
			"type": "function"
		},
		{
			"inputs": [],
			"name": "MasterPool",
			"outputs": [
				{
					"internalType": "address",
					"name": "",
					"type": "address"
				}
			],
			"stateMutability": "view",
			"type": "function"
		},
		{
			"inputs": [],
			"name": "POS",
			"outputs": [
				{
					"internalType": "address",
					"name": "",
					"type": "address"
				}
			],
			"stateMutability": "view",
			"type": "function"
		},
		{
			"inputs": [
				{
					"internalType": "address",
					"name": "_ecomInfo",
					"type": "address"
				}
			],
			"name": "SetEcomInfo",
			"outputs": [
				{
					"internalType": "bool",
					"name": "",
					"type": "bool"
				}
			],
			"stateMutability": "nonpayable",
			"type": "function"
		},
		{
			"inputs": [
				{
					"internalType": "address",
					"name": "_ecomProduct",
					"type": "address"
				}
			],
			"name": "SetEcomProduct",
			"outputs": [
				{
					"internalType": "bool",
					"name": "",
					"type": "bool"
				}
			],
			"stateMutability": "nonpayable",
			"type": "function"
		},
		{
			"inputs": [
				{
					"internalType": "address",
					"name": "_ecomUser",
					"type": "address"
				}
			],
			"name": "SetEcomUser",
			"outputs": [
				{
					"internalType": "bool",
					"name": "",
					"type": "bool"
				}
			],
			"stateMutability": "nonpayable",
			"type": "function"
		},
		{
			"inputs": [
				{
					"internalType": "address",
					"name": "_masterPool",
					"type": "address"
				}
			],
			"name": "SetMasterPool",
			"outputs": [
				{
					"internalType": "bool",
					"name": "",
					"type": "bool"
				}
			],
			"stateMutability": "nonpayable",
			"type": "function"
		},
		{
			"inputs": [
				{
					"internalType": "address",
					"name": "_pos",
					"type": "address"
				}
			],
			"name": "SetPos",
			"outputs": [
				{
					"internalType": "bool",
					"name": "",
					"type": "bool"
				}
			],
			"stateMutability": "nonpayable",
			"type": "function"
		},
		{
			"inputs": [
				{
					"internalType": "address",
					"name": "_treecom",
					"type": "address"
				}
			],
			"name": "SetTreeCom",
			"outputs": [
				{
					"internalType": "bool",
					"name": "",
					"type": "bool"
				}
			],
			"stateMutability": "nonpayable",
			"type": "function"
		},
		{
			"inputs": [
				{
					"internalType": "address",
					"name": "_usdt",
					"type": "address"
				}
			],
			"name": "SetUsdt",
			"outputs": [
				{
					"internalType": "bool",
					"name": "",
					"type": "bool"
				}
			],
			"stateMutability": "nonpayable",
			"type": "function"
		},
		{
			"inputs": [],
			"name": "TreeCom",
			"outputs": [
				{
					"internalType": "contract ITreeCom",
					"name": "",
					"type": "address"
				}
			],
			"stateMutability": "view",
			"type": "function"
		},
		{
			"inputs": [],
			"name": "USDT",
			"outputs": [
				{
					"internalType": "contract IERC20",
					"name": "",
					"type": "address"
				}
			],
			"stateMutability": "view",
			"type": "function"
		},
		{
			"inputs": [
				{
					"internalType": "uint256",
					"name": "_productID",
					"type": "uint256"
				},
				{
					"internalType": "bytes32",
					"name": "_variantID",
					"type": "bytes32"
				},
				{
					"internalType": "uint256",
					"name": "_quantity",
					"type": "uint256"
				}
			],
			"name": "addItemToCart",
			"outputs": [
				{
					"components": [
						{
							"internalType": "uint256",
							"name": "id",
							"type": "uint256"
						},
						{
							"internalType": "uint256",
							"name": "productID",
							"type": "uint256"
						},
						{
							"internalType": "uint256",
							"name": "quantity",
							"type": "uint256"
						},
						{
							"internalType": "bytes32",
							"name": "variantID",
							"type": "bytes32"
						},
						{
							"internalType": "uint256",
							"name": "createAt",
							"type": "uint256"
						}
					],
					"internalType": "struct CartItem",
					"name": "",
					"type": "tuple"
				}
			],
			"stateMutability": "nonpayable",
			"type": "function"
		},
		{
			"inputs": [
				{
					"components": [
						{
							"internalType": "uint256",
							"name": "_productID",
							"type": "uint256"
						},
						{
							"internalType": "bytes32",
							"name": "_variantID",
							"type": "bytes32"
						},
						{
							"internalType": "uint256",
							"name": "quantity",
							"type": "uint256"
						}
					],
					"internalType": "struct AddItemToCartParams[]",
					"name": "params",
					"type": "tuple[]"
				}
			],
			"name": "addItemsToCart",
			"outputs": [
				{
					"components": [
						{
							"internalType": "uint256",
							"name": "id",
							"type": "uint256"
						},
						{
							"internalType": "uint256",
							"name": "productID",
							"type": "uint256"
						},
						{
							"internalType": "uint256",
							"name": "quantity",
							"type": "uint256"
						},
						{
							"internalType": "bytes32",
							"name": "variantID",
							"type": "bytes32"
						},
						{
							"internalType": "uint256",
							"name": "createAt",
							"type": "uint256"
						}
					],
					"internalType": "struct CartItem[]",
					"name": "_items",
					"type": "tuple[]"
				}
			],
			"stateMutability": "nonpayable",
			"type": "function"
		},
		{
			"inputs": [
				{
					"components": [
						{
							"internalType": "uint256",
							"name": "id",
							"type": "uint256"
						},
						{
							"internalType": "uint256",
							"name": "productID",
							"type": "uint256"
						},
						{
							"internalType": "uint256",
							"name": "quantity",
							"type": "uint256"
						},
						{
							"internalType": "bytes32",
							"name": "variantID",
							"type": "bytes32"
						},
						{
							"internalType": "uint256",
							"name": "createAt",
							"type": "uint256"
						}
					],
					"internalType": "struct CartItem",
					"name": "cartItem",
					"type": "tuple"
				}
			],
			"name": "createCart",
			"outputs": [],
			"stateMutability": "nonpayable",
			"type": "function"
		},
		{
			"inputs": [
				{
					"components": [
						{
							"internalType": "uint256[]",
							"name": "quantities",
							"type": "uint256[]"
						},
						{
							"internalType": "uint256[]",
							"name": "productIds",
							"type": "uint256[]"
						},
						{
							"internalType": "bytes32[]",
							"name": "variantIds",
							"type": "bytes32[]"
						},
						{
							"internalType": "uint256[]",
							"name": "prices",
							"type": "uint256[]"
						},
						{
							"internalType": "uint256",
							"name": "parentOrderID",
							"type": "uint256"
						}
					],
					"internalType": "struct ShareLinkParams[]",
					"name": "params",
					"type": "tuple[]"
				},
				{
					"internalType": "uint256",
					"name": "expiredTime",
					"type": "uint256"
				}
			],
			"name": "createShareLink",
			"outputs": [
				{
					"internalType": "uint256",
					"name": "",
					"type": "uint256"
				}
			],
			"stateMutability": "nonpayable",
			"type": "function"
		},
		{
			"inputs": [
				{
					"components": [
						{
							"internalType": "string",
							"name": "firstName",
							"type": "string"
						},
						{
							"internalType": "string",
							"name": "lastName",
							"type": "string"
						},
						{
							"internalType": "string",
							"name": "email",
							"type": "string"
						},
						{
							"internalType": "string",
							"name": "country",
							"type": "string"
						},
						{
							"internalType": "string",
							"name": "city",
							"type": "string"
						},
						{
							"internalType": "string",
							"name": "stateOrProvince",
							"type": "string"
						},
						{
							"internalType": "string",
							"name": "postalCode",
							"type": "string"
						},
						{
							"internalType": "string",
							"name": "phone",
							"type": "string"
						},
						{
							"internalType": "string",
							"name": "addressDetail",
							"type": "string"
						}
					],
					"internalType": "struct ShippingParams",
					"name": "shippingParams",
					"type": "tuple"
				},
				{
					"internalType": "uint256",
					"name": "_orderID",
					"type": "uint256"
				},
				{
					"internalType": "address",
					"name": "user",
					"type": "address"
				}
			],
			"name": "createShippingInfo",
			"outputs": [],
			"stateMutability": "nonpayable",
			"type": "function"
		},
		{
			"inputs": [
				{
					"internalType": "uint256",
					"name": "itemID",
					"type": "uint256"
				}
			],
			"name": "deleteItemInCart",
			"outputs": [],
			"stateMutability": "nonpayable",
			"type": "function"
		},
		{
			"inputs": [
				{
					"internalType": "uint256[]",
					"name": "itemIds",
					"type": "uint256[]"
				}
			],
			"name": "deleteItemsInCart",
			"outputs": [
				{
					"internalType": "bool",
					"name": "",
					"type": "bool"
				}
			],
			"stateMutability": "nonpayable",
			"type": "function"
		},
		{
			"inputs": [
				{
					"internalType": "uint256[]",
					"name": "_shareLinkIds",
					"type": "uint256[]"
				}
			],
			"name": "deleteMultipleShareLink",
			"outputs": [
				{
					"internalType": "bool",
					"name": "",
					"type": "bool"
				}
			],
			"stateMutability": "nonpayable",
			"type": "function"
		},
		{
			"inputs": [
				{
					"internalType": "uint256",
					"name": "_shareLinkID",
					"type": "uint256"
				}
			],
			"name": "deleteShareLink",
			"outputs": [
				{
					"internalType": "bool",
					"name": "",
					"type": "bool"
				}
			],
			"stateMutability": "nonpayable",
			"type": "function"
		},
		{
			"inputs": [
				{
					"internalType": "uint256",
					"name": "code",
					"type": "uint256"
				},
				{
					"internalType": "string",
					"name": "message",
					"type": "string"
				}
			],
			"name": "getErrorMessage",
			"outputs": [
				{
					"internalType": "string",
					"name": "",
					"type": "string"
				}
			],
			"stateMutability": "pure",
			"type": "function"
		},
		{
			"inputs": [
				{
					"internalType": "uint256",
					"name": "_orderID",
					"type": "uint256"
				}
			],
			"name": "getOrder",
			"outputs": [
				{
					"components": [
						{
							"internalType": "uint256",
							"name": "orderID",
							"type": "uint256"
						},
						{
							"internalType": "address",
							"name": "user",
							"type": "address"
						},
						{
							"internalType": "address",
							"name": "buyer",
							"type": "address"
						},
						{
							"internalType": "uint256",
							"name": "discountID",
							"type": "uint256"
						},
						{
							"internalType": "uint256[]",
							"name": "cartItemIds",
							"type": "uint256[]"
						},
						{
							"internalType": "uint256[]",
							"name": "productIds",
							"type": "uint256[]"
						},
						{
							"internalType": "bytes32[]",
							"name": "variantIds",
							"type": "bytes32[]"
						},
						{
							"internalType": "uint256[]",
							"name": "quantities",
							"type": "uint256[]"
						},
						{
							"internalType": "uint256[]",
							"name": "diffPrices",
							"type": "uint256[]"
						},
						{
							"internalType": "uint256[]",
							"name": "prices",
							"type": "uint256[]"
						},
						{
							"internalType": "uint256[]",
							"name": "rewards",
							"type": "uint256[]"
						},
						{
							"internalType": "uint256",
							"name": "totalPrice",
							"type": "uint256"
						},
						{
							"internalType": "uint8",
							"name": "checkoutType",
							"type": "uint8"
						},
						{
							"internalType": "uint8",
							"name": "orderStatus",
							"type": "uint8"
						},
						{
							"internalType": "bytes32",
							"name": "codeRef",
							"type": "bytes32"
						},
						{
							"internalType": "uint256",
							"name": "afterDiscountPrice",
							"type": "uint256"
						},
						{
							"internalType": "uint256",
							"name": "shippingPrice",
							"type": "uint256"
						},
						{
							"internalType": "uint8",
							"name": "paymentType",
							"type": "uint8"
						},
						{
							"internalType": "uint256",
							"name": "createdAt",
							"type": "uint256"
						}
					],
					"internalType": "struct Order",
					"name": "",
					"type": "tuple"
				}
			],
			"stateMutability": "view",
			"type": "function"
		},
		{
			"inputs": [
				{
					"internalType": "bytes32",
					"name": "orderCode",
					"type": "bytes32"
				}
			],
			"name": "getOrderCode",
			"outputs": [
				{
					"internalType": "uint256",
					"name": "",
					"type": "uint256"
				}
			],
			"stateMutability": "view",
			"type": "function"
		},
		{
			"inputs": [],
			"name": "getOrders",
			"outputs": [
				{
					"components": [
						{
							"internalType": "uint256",
							"name": "orderID",
							"type": "uint256"
						},
						{
							"internalType": "address",
							"name": "user",
							"type": "address"
						},
						{
							"internalType": "address",
							"name": "buyer",
							"type": "address"
						},
						{
							"internalType": "uint256",
							"name": "discountID",
							"type": "uint256"
						},
						{
							"internalType": "uint256[]",
							"name": "cartItemIds",
							"type": "uint256[]"
						},
						{
							"internalType": "uint256[]",
							"name": "productIds",
							"type": "uint256[]"
						},
						{
							"internalType": "bytes32[]",
							"name": "variantIds",
							"type": "bytes32[]"
						},
						{
							"internalType": "uint256[]",
							"name": "quantities",
							"type": "uint256[]"
						},
						{
							"internalType": "uint256[]",
							"name": "diffPrices",
							"type": "uint256[]"
						},
						{
							"internalType": "uint256[]",
							"name": "prices",
							"type": "uint256[]"
						},
						{
							"internalType": "uint256[]",
							"name": "rewards",
							"type": "uint256[]"
						},
						{
							"internalType": "uint256",
							"name": "totalPrice",
							"type": "uint256"
						},
						{
							"internalType": "uint8",
							"name": "checkoutType",
							"type": "uint8"
						},
						{
							"internalType": "uint8",
							"name": "orderStatus",
							"type": "uint8"
						},
						{
							"internalType": "bytes32",
							"name": "codeRef",
							"type": "bytes32"
						},
						{
							"internalType": "uint256",
							"name": "afterDiscountPrice",
							"type": "uint256"
						},
						{
							"internalType": "uint256",
							"name": "shippingPrice",
							"type": "uint256"
						},
						{
							"internalType": "uint8",
							"name": "paymentType",
							"type": "uint8"
						},
						{
							"internalType": "uint256",
							"name": "createdAt",
							"type": "uint256"
						}
					],
					"internalType": "struct Order[]",
					"name": "res",
					"type": "tuple[]"
				}
			],
			"stateMutability": "view",
			"type": "function"
		},
		{
			"inputs": [
				{
					"internalType": "uint256",
					"name": "_id",
					"type": "uint256"
				}
			],
			"name": "getShareLink",
			"outputs": [
				{
					"components": [
						{
							"internalType": "uint256",
							"name": "ID",
							"type": "uint256"
						},
						{
							"components": [
								{
									"internalType": "uint256[]",
									"name": "quantities",
									"type": "uint256[]"
								},
								{
									"internalType": "uint256[]",
									"name": "productIds",
									"type": "uint256[]"
								},
								{
									"internalType": "bytes32[]",
									"name": "variantIds",
									"type": "bytes32[]"
								},
								{
									"internalType": "uint256[]",
									"name": "prices",
									"type": "uint256[]"
								},
								{
									"internalType": "uint256",
									"name": "parentOrderID",
									"type": "uint256"
								}
							],
							"internalType": "struct ShareLinkParams[]",
							"name": "params",
							"type": "tuple[]"
						},
						{
							"internalType": "address",
							"name": "owner",
							"type": "address"
						},
						{
							"internalType": "bool",
							"name": "isExecuted",
							"type": "bool"
						},
						{
							"internalType": "uint256",
							"name": "expiredTime",
							"type": "uint256"
						}
					],
					"internalType": "struct ShareLink",
					"name": "",
					"type": "tuple"
				}
			],
			"stateMutability": "view",
			"type": "function"
		},
		{
			"inputs": [],
			"name": "getShareLinks",
			"outputs": [
				{
					"components": [
						{
							"internalType": "uint256",
							"name": "ID",
							"type": "uint256"
						},
						{
							"components": [
								{
									"internalType": "uint256[]",
									"name": "quantities",
									"type": "uint256[]"
								},
								{
									"internalType": "uint256[]",
									"name": "productIds",
									"type": "uint256[]"
								},
								{
									"internalType": "bytes32[]",
									"name": "variantIds",
									"type": "bytes32[]"
								},
								{
									"internalType": "uint256[]",
									"name": "prices",
									"type": "uint256[]"
								},
								{
									"internalType": "uint256",
									"name": "parentOrderID",
									"type": "uint256"
								}
							],
							"internalType": "struct ShareLinkParams[]",
							"name": "params",
							"type": "tuple[]"
						},
						{
							"internalType": "address",
							"name": "owner",
							"type": "address"
						},
						{
							"internalType": "bool",
							"name": "isExecuted",
							"type": "bool"
						},
						{
							"internalType": "uint256",
							"name": "expiredTime",
							"type": "uint256"
						}
					],
					"internalType": "struct ShareLink[]",
					"name": "",
					"type": "tuple[]"
				}
			],
			"stateMutability": "view",
			"type": "function"
		},
		{
			"inputs": [
				{
					"internalType": "uint256",
					"name": "_orderID",
					"type": "uint256"
				}
			],
			"name": "getShippingInfoByOrderID",
			"outputs": [
				{
					"components": [
						{
							"internalType": "uint256",
							"name": "id",
							"type": "uint256"
						},
						{
							"internalType": "uint256",
							"name": "orderID",
							"type": "uint256"
						},
						{
							"internalType": "address",
							"name": "userAddress",
							"type": "address"
						},
						{
							"components": [
								{
									"internalType": "string",
									"name": "firstName",
									"type": "string"
								},
								{
									"internalType": "string",
									"name": "lastName",
									"type": "string"
								},
								{
									"internalType": "string",
									"name": "email",
									"type": "string"
								},
								{
									"internalType": "string",
									"name": "country",
									"type": "string"
								},
								{
									"internalType": "string",
									"name": "city",
									"type": "string"
								},
								{
									"internalType": "string",
									"name": "stateOrProvince",
									"type": "string"
								},
								{
									"internalType": "string",
									"name": "postalCode",
									"type": "string"
								},
								{
									"internalType": "string",
									"name": "phone",
									"type": "string"
								},
								{
									"internalType": "string",
									"name": "addressDetail",
									"type": "string"
								}
							],
							"internalType": "struct ShippingParams",
							"name": "params",
							"type": "tuple"
						}
					],
					"internalType": "struct ShippingInfo",
					"name": "",
					"type": "tuple"
				}
			],
			"stateMutability": "view",
			"type": "function"
		},
		{
			"inputs": [],
			"name": "getUserCart",
			"outputs": [
				{
					"components": [
						{
							"internalType": "uint256",
							"name": "id",
							"type": "uint256"
						},
						{
							"internalType": "address",
							"name": "owner",
							"type": "address"
						},
						{
							"components": [
								{
									"internalType": "uint256",
									"name": "id",
									"type": "uint256"
								},
								{
									"internalType": "uint256",
									"name": "productID",
									"type": "uint256"
								},
								{
									"internalType": "uint256",
									"name": "quantity",
									"type": "uint256"
								},
								{
									"internalType": "bytes32",
									"name": "variantID",
									"type": "bytes32"
								},
								{
									"internalType": "uint256",
									"name": "createAt",
									"type": "uint256"
								}
							],
							"internalType": "struct CartItem[]",
							"name": "items",
							"type": "tuple[]"
						}
					],
					"internalType": "struct Cart",
					"name": "",
					"type": "tuple"
				}
			],
			"stateMutability": "view",
			"type": "function"
		},
		{
			"inputs": [
				{
					"internalType": "address",
					"name": "_user",
					"type": "address"
				}
			],
			"name": "getUserCartInfo",
			"outputs": [
				{
					"components": [
						{
							"internalType": "uint256",
							"name": "id",
							"type": "uint256"
						},
						{
							"internalType": "address",
							"name": "owner",
							"type": "address"
						},
						{
							"components": [
								{
									"internalType": "uint256",
									"name": "id",
									"type": "uint256"
								},
								{
									"internalType": "uint256",
									"name": "productID",
									"type": "uint256"
								},
								{
									"internalType": "uint256",
									"name": "quantity",
									"type": "uint256"
								},
								{
									"internalType": "bytes32",
									"name": "variantID",
									"type": "bytes32"
								},
								{
									"internalType": "uint256",
									"name": "createAt",
									"type": "uint256"
								}
							],
							"internalType": "struct CartItem[]",
							"name": "items",
							"type": "tuple[]"
						}
					],
					"internalType": "struct Cart",
					"name": "",
					"type": "tuple"
				}
			],
			"stateMutability": "view",
			"type": "function"
		},
		{
			"inputs": [
				{
					"internalType": "address",
					"name": "_user",
					"type": "address"
				}
			],
			"name": "getUserOrders",
			"outputs": [
				{
					"components": [
						{
							"internalType": "uint256",
							"name": "orderID",
							"type": "uint256"
						},
						{
							"internalType": "address",
							"name": "user",
							"type": "address"
						},
						{
							"internalType": "address",
							"name": "buyer",
							"type": "address"
						},
						{
							"internalType": "uint256",
							"name": "discountID",
							"type": "uint256"
						},
						{
							"internalType": "uint256[]",
							"name": "cartItemIds",
							"type": "uint256[]"
						},
						{
							"internalType": "uint256[]",
							"name": "productIds",
							"type": "uint256[]"
						},
						{
							"internalType": "bytes32[]",
							"name": "variantIds",
							"type": "bytes32[]"
						},
						{
							"internalType": "uint256[]",
							"name": "quantities",
							"type": "uint256[]"
						},
						{
							"internalType": "uint256[]",
							"name": "diffPrices",
							"type": "uint256[]"
						},
						{
							"internalType": "uint256[]",
							"name": "prices",
							"type": "uint256[]"
						},
						{
							"internalType": "uint256[]",
							"name": "rewards",
							"type": "uint256[]"
						},
						{
							"internalType": "uint256",
							"name": "totalPrice",
							"type": "uint256"
						},
						{
							"internalType": "uint8",
							"name": "checkoutType",
							"type": "uint8"
						},
						{
							"internalType": "uint8",
							"name": "orderStatus",
							"type": "uint8"
						},
						{
							"internalType": "bytes32",
							"name": "codeRef",
							"type": "bytes32"
						},
						{
							"internalType": "uint256",
							"name": "afterDiscountPrice",
							"type": "uint256"
						},
						{
							"internalType": "uint256",
							"name": "shippingPrice",
							"type": "uint256"
						},
						{
							"internalType": "uint8",
							"name": "paymentType",
							"type": "uint8"
						},
						{
							"internalType": "uint256",
							"name": "createdAt",
							"type": "uint256"
						}
					],
					"internalType": "struct Order[]",
					"name": "res",
					"type": "tuple[]"
				}
			],
			"stateMutability": "view",
			"type": "function"
		},
		{
			"inputs": [
				{
					"internalType": "address",
					"name": "_user",
					"type": "address"
				}
			],
			"name": "getUserShareLinks",
			"outputs": [
				{
					"components": [
						{
							"internalType": "uint256",
							"name": "ID",
							"type": "uint256"
						},
						{
							"components": [
								{
									"internalType": "uint256[]",
									"name": "quantities",
									"type": "uint256[]"
								},
								{
									"internalType": "uint256[]",
									"name": "productIds",
									"type": "uint256[]"
								},
								{
									"internalType": "bytes32[]",
									"name": "variantIds",
									"type": "bytes32[]"
								},
								{
									"internalType": "uint256[]",
									"name": "prices",
									"type": "uint256[]"
								},
								{
									"internalType": "uint256",
									"name": "parentOrderID",
									"type": "uint256"
								}
							],
							"internalType": "struct ShareLinkParams[]",
							"name": "params",
							"type": "tuple[]"
						},
						{
							"internalType": "address",
							"name": "owner",
							"type": "address"
						},
						{
							"internalType": "bool",
							"name": "isExecuted",
							"type": "bool"
						},
						{
							"internalType": "uint256",
							"name": "expiredTime",
							"type": "uint256"
						}
					],
					"internalType": "struct ShareLink[]",
					"name": "",
					"type": "tuple[]"
				}
			],
			"stateMutability": "view",
			"type": "function"
		},
		{
			"inputs": [
				{
					"internalType": "uint256",
					"name": "",
					"type": "uint256"
				}
			],
			"name": "mOrder",
			"outputs": [
				{
					"internalType": "uint256",
					"name": "orderID",
					"type": "uint256"
				},
				{
					"internalType": "address",
					"name": "user",
					"type": "address"
				},
				{
					"internalType": "address",
					"name": "buyer",
					"type": "address"
				},
				{
					"internalType": "uint256",
					"name": "discountID",
					"type": "uint256"
				},
				{
					"internalType": "uint256",
					"name": "totalPrice",
					"type": "uint256"
				},
				{
					"internalType": "uint8",
					"name": "checkoutType",
					"type": "uint8"
				},
				{
					"internalType": "uint8",
					"name": "orderStatus",
					"type": "uint8"
				},
				{
					"internalType": "bytes32",
					"name": "codeRef",
					"type": "bytes32"
				},
				{
					"internalType": "uint256",
					"name": "afterDiscountPrice",
					"type": "uint256"
				},
				{
					"internalType": "uint256",
					"name": "shippingPrice",
					"type": "uint256"
				},
				{
					"internalType": "uint8",
					"name": "paymentType",
					"type": "uint8"
				},
				{
					"internalType": "uint256",
					"name": "createdAt",
					"type": "uint256"
				}
			],
			"stateMutability": "view",
			"type": "function"
		},
		{
			"inputs": [
				{
					"internalType": "uint256",
					"name": "",
					"type": "uint256"
				}
			],
			"name": "mOrderInfo",
			"outputs": [
				{
					"components": [
						{
							"internalType": "string",
							"name": "firstName",
							"type": "string"
						},
						{
							"internalType": "string",
							"name": "lastName",
							"type": "string"
						},
						{
							"internalType": "string",
							"name": "email",
							"type": "string"
						},
						{
							"internalType": "string",
							"name": "country",
							"type": "string"
						},
						{
							"internalType": "string",
							"name": "city",
							"type": "string"
						},
						{
							"internalType": "string",
							"name": "stateOrProvince",
							"type": "string"
						},
						{
							"internalType": "string",
							"name": "postalCode",
							"type": "string"
						},
						{
							"internalType": "string",
							"name": "phone",
							"type": "string"
						},
						{
							"internalType": "string",
							"name": "addressDetail",
							"type": "string"
						}
					],
					"internalType": "struct ShippingParams",
					"name": "shippingParams",
					"type": "tuple"
				},
				{
					"internalType": "address",
					"name": "user",
					"type": "address"
				},
				{
					"components": [
						{
							"internalType": "uint256",
							"name": "totalPriceWithoutDiscount",
							"type": "uint256"
						},
						{
							"internalType": "bytes32",
							"name": "codeRef",
							"type": "bytes32"
						},
						{
							"internalType": "enum CheckoutType",
							"name": "checkoutType",
							"type": "uint8"
						},
						{
							"internalType": "enum PaymentType",
							"name": "paymentType",
							"type": "uint8"
						}
					],
					"internalType": "struct orderDetails",
					"name": "details",
					"type": "tuple"
				}
			],
			"stateMutability": "view",
			"type": "function"
		},
		{
			"inputs": [
				{
					"internalType": "address",
					"name": "",
					"type": "address"
				},
				{
					"internalType": "uint256",
					"name": "",
					"type": "uint256"
				}
			],
			"name": "mOrders",
			"outputs": [
				{
					"internalType": "uint256",
					"name": "",
					"type": "uint256"
				}
			],
			"stateMutability": "view",
			"type": "function"
		},
		{
			"inputs": [
				{
					"internalType": "uint256",
					"name": "",
					"type": "uint256"
				}
			],
			"name": "mShareLink",
			"outputs": [
				{
					"internalType": "uint256",
					"name": "ID",
					"type": "uint256"
				},
				{
					"internalType": "address",
					"name": "owner",
					"type": "address"
				},
				{
					"internalType": "bool",
					"name": "isExecuted",
					"type": "bool"
				},
				{
					"internalType": "uint256",
					"name": "expiredTime",
					"type": "uint256"
				}
			],
			"stateMutability": "view",
			"type": "function"
		},
		{
			"inputs": [
				{
					"internalType": "uint256",
					"name": "",
					"type": "uint256"
				}
			],
			"name": "mShippingInfo",
			"outputs": [
				{
					"internalType": "uint256",
					"name": "id",
					"type": "uint256"
				},
				{
					"internalType": "uint256",
					"name": "orderID",
					"type": "uint256"
				},
				{
					"internalType": "address",
					"name": "userAddress",
					"type": "address"
				},
				{
					"components": [
						{
							"internalType": "string",
							"name": "firstName",
							"type": "string"
						},
						{
							"internalType": "string",
							"name": "lastName",
							"type": "string"
						},
						{
							"internalType": "string",
							"name": "email",
							"type": "string"
						},
						{
							"internalType": "string",
							"name": "country",
							"type": "string"
						},
						{
							"internalType": "string",
							"name": "city",
							"type": "string"
						},
						{
							"internalType": "string",
							"name": "stateOrProvince",
							"type": "string"
						},
						{
							"internalType": "string",
							"name": "postalCode",
							"type": "string"
						},
						{
							"internalType": "string",
							"name": "phone",
							"type": "string"
						},
						{
							"internalType": "string",
							"name": "addressDetail",
							"type": "string"
						}
					],
					"internalType": "struct ShippingParams",
					"name": "params",
					"type": "tuple"
				}
			],
			"stateMutability": "view",
			"type": "function"
		},
		{
			"inputs": [
				{
					"internalType": "address",
					"name": "",
					"type": "address"
				},
				{
					"internalType": "uint256",
					"name": "",
					"type": "uint256"
				}
			],
			"name": "mShippingInfoByAddress",
			"outputs": [
				{
					"internalType": "uint256",
					"name": "",
					"type": "uint256"
				}
			],
			"stateMutability": "view",
			"type": "function"
		},
		{
			"inputs": [
				{
					"internalType": "uint256",
					"name": "",
					"type": "uint256"
				}
			],
			"name": "mShippingInfoByOrder",
			"outputs": [
				{
					"internalType": "uint256",
					"name": "",
					"type": "uint256"
				}
			],
			"stateMutability": "view",
			"type": "function"
		},
		{
			"inputs": [
				{
					"internalType": "address",
					"name": "",
					"type": "address"
				}
			],
			"name": "mUserCart",
			"outputs": [
				{
					"internalType": "uint256",
					"name": "id",
					"type": "uint256"
				},
				{
					"internalType": "address",
					"name": "owner",
					"type": "address"
				}
			],
			"stateMutability": "view",
			"type": "function"
		},
		{
			"inputs": [
				{
					"internalType": "address",
					"name": "",
					"type": "address"
				},
				{
					"internalType": "uint256",
					"name": "",
					"type": "uint256"
				}
			],
			"name": "mUserShareLink",
			"outputs": [
				{
					"internalType": "uint256",
					"name": "",
					"type": "uint256"
				}
			],
			"stateMutability": "view",
			"type": "function"
		},
		{
			"inputs": [],
			"name": "owner",
			"outputs": [
				{
					"internalType": "address",
					"name": "",
					"type": "address"
				}
			],
			"stateMutability": "view",
			"type": "function"
		},
		{
			"inputs": [
				{
					"internalType": "uint256",
					"name": "itemID",
					"type": "uint256"
				},
				{
					"internalType": "uint256",
					"name": "quantity",
					"type": "uint256"
				}
			],
			"name": "updateItemInCart",
			"outputs": [
				{
					"components": [
						{
							"internalType": "uint256",
							"name": "id",
							"type": "uint256"
						},
						{
							"internalType": "uint256",
							"name": "productID",
							"type": "uint256"
						},
						{
							"internalType": "uint256",
							"name": "quantity",
							"type": "uint256"
						},
						{
							"internalType": "bytes32",
							"name": "variantID",
							"type": "bytes32"
						},
						{
							"internalType": "uint256",
							"name": "createAt",
							"type": "uint256"
						}
					],
					"internalType": "struct CartItem",
					"name": "_item",
					"type": "tuple"
				}
			],
			"stateMutability": "nonpayable",
			"type": "function"
		},
		{
			"inputs": [
				{
					"components": [
						{
							"internalType": "uint256",
							"name": "itemID",
							"type": "uint256"
						},
						{
							"internalType": "uint256",
							"name": "quantity",
							"type": "uint256"
						}
					],
					"internalType": "struct UpdateItemsToCartParams[]",
					"name": "params",
					"type": "tuple[]"
				}
			],
			"name": "updateItemsToCart",
			"outputs": [
				{
					"components": [
						{
							"internalType": "uint256",
							"name": "id",
							"type": "uint256"
						},
						{
							"internalType": "uint256",
							"name": "productID",
							"type": "uint256"
						},
						{
							"internalType": "uint256",
							"name": "quantity",
							"type": "uint256"
						},
						{
							"internalType": "bytes32",
							"name": "variantID",
							"type": "bytes32"
						},
						{
							"internalType": "uint256",
							"name": "createAt",
							"type": "uint256"
						}
					],
					"internalType": "struct CartItem[]",
					"name": "_items",
					"type": "tuple[]"
				}
			],
			"stateMutability": "nonpayable",
			"type": "function"
		},
		{
			"inputs": [
				{
					"internalType": "uint256",
					"name": "_shareLinkID",
					"type": "uint256"
				},
				{
					"components": [
						{
							"internalType": "uint256[]",
							"name": "quantities",
							"type": "uint256[]"
						},
						{
							"internalType": "uint256[]",
							"name": "productIds",
							"type": "uint256[]"
						},
						{
							"internalType": "bytes32[]",
							"name": "variantIds",
							"type": "bytes32[]"
						},
						{
							"internalType": "uint256[]",
							"name": "prices",
							"type": "uint256[]"
						},
						{
							"internalType": "uint256",
							"name": "parentOrderID",
							"type": "uint256"
						}
					],
					"internalType": "struct ShareLinkParams[]",
					"name": "params",
					"type": "tuple[]"
				},
				{
					"internalType": "uint256",
					"name": "expiredTime",
					"type": "uint256"
				}
			],
			"name": "updateShareLink",
			"outputs": [
				{
					"internalType": "bool",
					"name": "",
					"type": "bool"
				}
			],
			"stateMutability": "nonpayable",
			"type": "function"
		}
	]
}