{
	"data": {
		"bytecode": {
			"linkReferences": {},
			"object": "60806040908152601580546001600160a01b0319908116339081179092555f8281526013602052928320805460ff191660019081179091556014805491820181559093527fce6d7b5282bd9a3661ae061feed1dbda4e52ab073b1f9285be6e155d9c38d4ec9092018054909216179055615cc38061007c5f395ff3fe608060405234801561000f575f80fd5b50600436106103d5575f3560e01c80638aa393ac11610200578063b94aead51161011f578063e27ea4a7116100b4578063f53bc6e311610084578063f53bc6e314610915578063f55488991461091d578063f62dd1ee14610925578063f857d6171461092e578063f954ed2d14610936575f80fd5b8063e27ea4a7146108c5578063e6801ac7146108d8578063eda162e7146108fa578063edafaf631461090d575f80fd5b8063cac0e650116100ef578063cac0e65014610877578063cece999f1461088a578063d24043cb14610893578063d6376aea146108a6575f80fd5b8063b94aead514610826578063bc43b9cc14610839578063c0a2277114610851578063ca6a750214610864575f80fd5b80639ddf2e9511610195578063ac3b394f11610165578063ac3b394f146107cf578063ac5fae69146107e6578063b34210e1146107ee578063b34d644a1461081e575f80fd5b80639ddf2e9514610771578063a354f1b214610793578063aa29eac7146107a6578063abb4ca99146107ba575f80fd5b806392a198d5116101d057806392a198d514610729578063989868ed1461073c5780639a761c4d146107605780639cde636e14610768575f80fd5b80638aa393ac146106dd5780638da5cb5b146106f05780638ef58635146107035780639075c29014610716575f80fd5b8063467956ef116102f75780636f2069f01161028c57806379d3f7761161025c57806379d3f776146106855780637be740c91461068d5780637e0833ca146106ac5780638286980c146106b557806386acd564146106c8575f80fd5b80636f2069f014610640578063704b6c021461064857806370e8e53c1461065b578063795ec6d41461066e575f80fd5b80635b956627116102c75780635b956627146105ff57806362de6230146106125780636a7434e5146106255780636cb69f4214610638575f80fd5b8063467956ef1461059c5780634d5c5fd7146105b15780634e581680146105c45780634fa3c56f146105ec575f80fd5b806332aca62b1161036d5780633d3a97481161033d5780633d3a97481461052f578063409b2cdf146105425780634323323a1461057057806344089cd114610579575f80fd5b806332aca62b146104d357806332f39436146104e857806332fd9850146104fb57806335890aad1461051b575f80fd5b80631738408d116103a85780631738408d146104665780632075bd3c146104855780632248632a1461049e5780632c9aefe9146104be575f80fd5b8063022de34c146103d957806313badcb81461041257806314bfd6d014610428578063158d347414610453575b5f80fd5b6103ec6103e7366004613cbb565b610949565b604080516001600160a01b03909316835260ff9091166020830152015b60405180910390f35b61041a61098d565b604051908152602001610409565b61043b610436366004613ce5565b6109ca565b6040516001600160a01b039091168152602001610409565b61041a610461366004613cfc565b6109f2565b61041a610474366004613ce5565b600e6020525f908152604090205481565b61048d610a1d565b604051610409959493929190613f19565b6104b16104ac36600461411c565b610a5d565b604051610409919061415f565b6104c6610a97565b6040516104099190614171565b6104e66104e1366004613ce5565b610b10565b005b60165461043b906001600160a01b031681565b61050e610509366004613ce5565b610b50565b60405161040991906141cf565b335f9081526007602052604090205461041a565b6104e661053d3660046141e1565b610baf565b610555610550366004613ce5565b610bf9565b60408051938452602084019290925290820152606001610409565b61041a60025481565b61058c610587366004614280565b610c2a565b6040519015158152602001610409565b6105a4610c7d565b604051610409919061429b565b60185461043b906001600160a01b031681565b6105d76105d2366004613cbb565b610df8565b60408051928352602083019190915201610409565b61041a6105fa366004613ce5565b610e30565b6104e661060d366004613cbb565b610e4f565b61058c610620366004614280565b610fa0565b6104e66106333660046142ad565b610ff4565b610555611605565b6104e6611649565b61058c610656366004614280565b6116a6565b61050e610669366004613ce5565b61173d565b61067661179a565b604051610409939291906142e6565b61041a5f5481565b61041a61069b366004614280565b60066020525f908152604090205481565b61041a60045481565b6104e66106c3366004613ce5565b611a8d565b6106d0611bc7565b6040516104099190614328565b6104e66106eb366004614347565b611e43565b60155461043b906001600160a01b031681565b6104e6610711366004614456565b612131565b6105d7610724366004614536565b61266b565b6104e6610737366004614280565b612695565b61074f61074a366004613cbb565b612783565b604051610409959493929190614577565b6105a46128eb565b61041a60015481565b61058c61077f366004614280565b60136020525f908152604090205460ff1681565b60175461043b906001600160a01b031681565b335f9081526006602052604090205461041a565b6107c2612a8a565b6040516104099190614602565b6107d7612afb565b604051610409939291906147dd565b61041a612bea565b6104e66107fc366004613ce5565b5f908152600b6020908152604082208054600181018255908352912042910155565b6104e6612c1f565b61041a610834366004613cfc565b612c2e565b610841612c47565b604051610409949392919061486d565b6104e661085f366004614280565b612c95565b6103ec610872366004613ce5565b612d96565b61058c610885366004614280565b612dce565b61041a60055481565b6104e66108a136600461489d565b612e22565b61041a6108b4366004614280565b60076020525f908152604090205481565b61074f6108d3366004613ce5565b612f7a565b6108eb6108e6366004614280565b612fa8565b604051610409939291906148ed565b6104e6610908366004614280565b613149565b6106d061317f565b61050e6133d7565b6104e661345c565b61041a60035481565b6104e661346b565b6104e6610944366004614280565b61347a565b600d602052815f5260405f208181548110610962575f80fd5b5f9182526020909120600490910201546001600160a01b0381169250600160a01b900460ff16905082565b335f9081526013602052604081205460ff166109c45760405162461bcd60e51b81526004016109bb906149b2565b60405180910390fd5b505f5490565b601481815481106109d9575f80fd5b5f918252602090912001546001600160a01b0316905081565b600a602052815f5260405f208181548110610a0b575f80fd5b905f5260205f20015f91509150505481565b60605f80606080610a2c611bc7565b9450610a3661098d565b9350610a40612bea565b9250610a4a6128eb565b9150610a546133d7565b90509091929394565b60605f610a69846134b1565b90508083604051602001610a7e929190614a38565b6040516020818303038152906040529150505b92915050565b6060600f805480602002602001604051908101604052809291908181526020015f905b82821015610b07578382905f5260205f2090600302016040518060600160405290815f82015481526020016001820154815260200160028201548152505081526020019060010190610aba565b50505050905090565b5f818152600e60205260408120805491610b2983614acc565b90915550505f908152600a6020908152604082208054600181018255908352912042910155565b5f818152600a6020908152604091829020805483518184028101840190945280845260609392830182828015610ba357602002820191905f5260205f20905b815481526020019060010190808311610b8f575b50505050509050919050565b60118383604051610bc1929190614ae4565b908152604051602091819003820190208054600180820183555f92835291839020845160029092020190815592909101519101555050565b600f8181548110610c08575f80fd5b5f91825260209091206003909102018054600182015460029092015490925083565b6015545f906001600160a01b0316338114610c575760405162461bcd60e51b81526004016109bb90614af3565b601680546001600160a01b0319166001600160a01b038516179055600191505b50919050565b335f908152600d60209081526040808320805482518185028101850190935280835260609492939192909184015b82821015610b07575f8481526020908190206040805160a0810182526004860290920180546001600160a01b0381168452600160a01b900460ff16838501526001810180548351818702810187018552818152949592949386019392830182828015610d3457602002820191905f5260205f20905b815481526020019060010190808311610d20575b5050505050815260200160028201805480602002602001604051908101604052809291908181526020018280548015610d8a57602002820191905f5260205f20905b815481526020019060010190808311610d76575b5050505050815260200160038201805480602002602001604051908101604052809291908181526020018280548015610de057602002820191905f5260205f20905b815481526020019060010190808311610dcc575b50505050508152505081526020019060010190610cab565b6010602052815f5260405f208181548110610e11575f80fd5b5f91825260209091206002909102018054600190910154909250905082565b60128181548110610e3f575f80fd5b5f91825260209091200154905081565b5f805b6001600160a01b0384165f9081526010602052604090205460ff82161015610f14576001600160a01b0384165f908152601060205260409020805484919060ff8416908110610ea357610ea3614b62565b905f5260205f2090600202015f015403610f02576001600160a01b0384165f908152601060205260409020805442919060ff8416908110610ee657610ee6614b62565b905f5260205f2090600202016001018190555060019150610f14565b80610f0c81614b76565b915050610e52565b5080610f66576040805180820182528381524260208083019182526001600160a01b0387165f908152601082529384208054600181810183559186529190942092516002909102909201918255519101555b5050601280546001810182555f91909152427fbb8a6a4669ba250d26cd7a459eca9d215f8307e33aebe50379bc5a3617ec34449091015550565b6015545f906001600160a01b0316338114610fcd5760405162461bcd60e51b81526004016109bb90614af3565b601780546001600160a01b0385166001600160a01b03199091161790556001915050919050565b6008545f9081906001600160401b0381111561101257611012613f69565b60405190808252806020026020018201604052801561103b578160200160208202803683370190505b5090505f5b600854811015611389576110fb6008828154811061106057611060614b62565b905f5260205f2090600602015f01805461107990614b94565b80601f01602080910402602001604051908101604052809291908181526020018280546110a590614b94565b80156110f05780601f106110c7576101008083540402835291602001916110f0565b820191905f5260205f20905b8154815290600101906020018083116110d357829003601f168201915b505050505085613540565b15611381576008818154811061111357611113614b62565b5f918252602082206004600690920201015493505b8381101561122057601754600880545f926001600160a01b03169163b9db15b4918690811061115957611159614b62565b905f5260205f209060060201600401848154811061117957611179614b62565b905f5260205f2001546040518263ffffffff1660e01b81526004016111a091815260200190565b5f60405180830381865afa1580156111ba573d5f803e3d5ffd5b505050506040513d5f823e601f3d908101601f191682016040526111e19190810190614fd1565b9050806020015161018001518483815181106111ff576111ff614b62565b6001600160a01b039092166020928302919091019091015250600101611128565b506008805461123190600190615002565b8154811061124157611241614b62565b905f5260205f2090600602016008828154811061126057611260614b62565b5f91825260209091206006909102018061127a838261505e565b5060018281018054918301805460ff19811660ff909416938417825591546001600160a01b036101009182900416026001600160a81b03199092169092171790556002808201906112cd9084018261505e565b506003820154816003015560048201816004019080546112ee929190613ba9565b50600582810180546113039284019190613ba9565b50905050600880548061131857611318615135565b5f828152602081205f19909201916006830201906113368282613bf5565b6001820180546001600160a81b0319169055611355600283015f613bf5565b600382015f9055600482015f61136b9190613c2f565b611378600583015f613c2f565b50509055611389565b600101611040565b505f5b81518110156115ff575f8282815181106113a8576113a8614b62565b6020908102919091018101516001600160a01b0381165f908152600990925260408220909250905b81548110156115f4576114898282815481106113ee576113ee614b62565b905f5260205f2090600602015f01805461140790614b94565b80601f016020809104026020016040519081016040528092919081815260200182805461143390614b94565b801561147e5780601f106114555761010080835404028352916020019161147e565b820191905f5260205f20905b81548152906001019060200180831161146157829003601f168201915b505050505088613540565b156115ec578154829061149e90600190615002565b815481106114ae576114ae614b62565b905f5260205f2090600602018282815481106114cc576114cc614b62565b5f9182526020909120600690910201806114e6838261505e565b5060018281018054918301805460ff19811660ff909416938417825591546001600160a01b036101009182900416026001600160a81b03199092169092171790556002808201906115399084018261505e565b5060038201548160030155600482018160040190805461155a929190613ba9565b506005828101805461156f9284019190613ba9565b509050508180548061158357611583615135565b5f828152602081205f19909201916006830201906115a18282613bf5565b6001820180546001600160a81b03191690556115c0600283015f613bf5565b600382015f9055600482015f6115d69190613c2f565b6115e3600583015f613c2f565b505090556115f4565b6001016113d0565b50505060010161138c565b50505050565b335f908152601360205260408120548190819060ff166116375760405162461bcd60e51b81526004016109bb906149b2565b50506003546004546005549193909250565b5f600454116116716001604051806060016040528060238152602001615bf960239139610a5d565b9061168f5760405162461bcd60e51b81526004016109bb919061415f565b5060048054905f61169f83615149565b9190505550565b6015545f906001600160a01b03163381146116d35760405162461bcd60e51b81526004016109bb90614af3565b50506001600160a01b03165f818152601360205260408120805460ff1916600190811790915560148054808301825592527fce6d7b5282bd9a3661ae061feed1dbda4e52ab073b1f9285be6e155d9c38d4ec90910180546001600160a01b03191690921790915590565b5f818152600b6020908152604091829020805483518184028101840190945280845260609392830182828015610ba357602002820191905f5260205f2090815481526020019060010190808311610b8f5750505050509050919050565b60608060605f60175f9054906101000a90046001600160a01b03166001600160a01b031663c29b2f206040518163ffffffff1660e01b81526004015f60405180830381865afa1580156117ef573d5f803e3d5ffd5b505050506040513d5f823e601f3d908101601f19168201604052611816919081019061515e565b90505f81516001600160401b0381111561183257611832613f69565b60405190808252806020026020018201604052801561185b578160200160208202803683370190505b5090505f82516001600160401b0381111561187857611878613f69565b6040519080825280602002602001820160405280156118a1578160200160208202803683370190505b50905082516001600160401b038111156118bd576118bd613f69565b6040519080825280602002602001820160405280156118e6578160200160208202803683370190505b5093505f5b8351811015611a815783818151811061190657611906614b62565b60200260200101515f015183828151811061192357611923614b62565b602002602001018181525050600e5f85838151811061194457611944614b62565b60200260200101515f015181526020019081526020015f205482828151811061196f5761196f614b62565b6020026020010181815250505f600a5f86848151811061199157611991614b62565b60200260200101515f015181526020019081526020015f20805490501115611a5957600a5f8583815181106119c8576119c8614b62565b60200260200101515f015181526020019081526020015f206001600a5f8785815181106119f7576119f7614b62565b60200260200101515f015181526020019081526020015f2080549050611a1d9190615002565b81548110611a2d57611a2d614b62565b905f5260205f200154858281518110611a4857611a48614b62565b602002602001018181525050611a79565b5f858281518110611a6c57611a6c614b62565b6020026020010181815250505b6001016118eb565b50909590945091925050565b5f805b600f5460ff82161015611b1b5782600f8260ff1681548110611ab457611ab4614b62565b905f5260205f2090600302015f015403611b0957600f8160ff1681548110611ade57611ade614b62565b5f91825260208220600160039092020101805491611afb83614acc565b919050555060019150611b1b565b80611b1381614b76565b915050611a90565b5080611bc3576040805160608101825283815260016020820181815242938301938452600f805492830181555f5291517f8d1108e10bcb7c27dddfc02ed9d693a074039d026cf4ea4240b40f7d581ac80260039092029182015590517f8d1108e10bcb7c27dddfc02ed9d693a074039d026cf4ea4240b40f7d581ac80382015590517f8d1108e10bcb7c27dddfc02ed9d693a074039d026cf4ea4240b40f7d581ac804909101555b5050565b335f9081526013602052604090205460609060ff16611bf85760405162461bcd60e51b81526004016109bb906149b2565b6008805480602002602001604051908101604052809291908181526020015f905b82821015610b07578382905f5260205f2090600602016040518060e00160405290815f82018054611c4990614b94565b80601f0160208091040260200160405190810160405280929190818152602001828054611c7590614b94565b8015611cc05780601f10611c9757610100808354040283529160200191611cc0565b820191905f5260205f20905b815481529060010190602001808311611ca357829003601f168201915b5050509183525050600182015460ff8116602083015261010090046001600160a01b03166040820152600282018054606090920191611cfe90614b94565b80601f0160208091040260200160405190810160405280929190818152602001828054611d2a90614b94565b8015611d755780601f10611d4c57610100808354040283529160200191611d75565b820191905f5260205f20905b815481529060010190602001808311611d5857829003601f168201915b505050505081526020016003820154815260200160048201805480602002602001604051908101604052809291908181526020018280548015611dd557602002820191905f5260205f20905b815481526020019060010190808311611dc1575b5050505050815260200160058201805480602002602001604051908101604052809291908181526020018280548015611e2b57602002820191905f5260205f20905b815481526020019060010190808311611e17575b50505050508152505081526020019060010190611c19565b5f81611e65576001600160a01b0384165f908152600d60205260409020611e68565b600c5b90505f805b825481101561207057886001600160a01b0316838281548110611e9257611e92614b62565b5f9182526020909120600490910201546001600160a01b03160361206857600191505f805b848381548110611ec957611ec9614b62565b905f5260205f20906004020160010180549050811015611fb25789858481548110611ef657611ef6614b62565b905f5260205f2090600402016001018281548110611f1657611f16614b62565b905f5260205f20015403611faa5742858481548110611f3757611f37614b62565b905f5260205f2090600402016003018281548110611f5757611f57614b62565b905f5260205f20018190555088858481548110611f7657611f76614b62565b905f5260205f2090600402016002018281548110611f9657611f96614b62565b5f9182526020909120015560019150611fb2565b600101611eb7565b508061206257838281548110611fca57611fca614b62565b5f91825260208083206001600490930201820180549283018155835290912001899055835484908390811061200157612001614b62565b5f91825260208083206003600490930201919091018054600181018255908352912042910155835484908390811061203b5761203b614b62565b5f918252602080832060026004909302019190910180546001810182559083529120018890555b50612070565b600101611e6d565b5080612127575f612082888887613566565b8354600181810186555f868152602090819020845160049094020180548286015160ff16600160a01b026001600160a81b03199091166001600160a01b03909516949094179390931783556040840151805194955085946120ea938501929190910190613c4a565b5060608201518051612106916002840191602090910190613c4a565b5060808201518051612122916003840191602090910190613c4a565b505050505b5050505050505050565b60175460608201516040516366573f6160e01b81525f926001600160a01b0316916366573f619161216591906004016141cf565b5f60405180830381865afa15801561217f573d5f803e3d5ffd5b505050506040513d5f823e601f3d908101601f191682016040526121a6919081019061520d565b90505f6121b2826136a7565b6040805160e0810182528551815260208087015160ff1690820152858201516001600160a01b0316918101919091526060808201839052426080808401919091529086015160a083015285015160c0820152600880546001810182555f919091528151929350909182916006027ff3f7a9fe364faab93b216da50a3214154f22a0a2b415b23a84c8169e8b636ee30190819061224e908261529c565b50602082015160018201805460408501516001600160a01b0316610100026001600160a81b031990911660ff909316929092179190911790556060820151600282019061229b908261529c565b506080820151600382015560a082015180516122c1916004840191602090910190613c4a565b5060c082015180516122dd916005840191602090910190613c4a565b5050505f5b84606001515181101561266457601754606086015180515f926001600160a01b03169163b9db15b4918590811061231b5761231b614b62565b60200260200101516040518263ffffffff1660e01b815260040161234191815260200190565b5f60405180830381865afa15801561235b573d5f803e3d5ffd5b505050506040513d5f823e601f3d908101601f191682016040526123829190810190614fd1565b60185460208201516101800151604051636386c1c760e01b81526001600160a01b0391821660048201529293505f92911690636386c1c7906024015f60405180830381865afa1580156123d7573d5f803e3d5ffd5b505050506040513d5f823e601f3d908101601f191682016040526123fe91908101906154d1565b5090505f6040518060e00160405280895f01518152602001896020015160ff16815260200189604001516001600160a01b03168152602001836020015160405160200161244b919061415f565b60405160208183030381529060405281526020014281526020018960600151516001600160401b0381111561248257612482613f69565b6040519080825280602002602001820160405280156124ab578160200160208202803683370190505b5081526020018960600151516001600160401b038111156124ce576124ce613f69565b6040519080825280602002602001820160405280156124f7578160200160208202803683370190505b5081525090508760600151848151811061251357612513614b62565b60200260200101518160a00151858151811061253157612531614b62565b6020026020010181815250508760800151848151811061255357612553614b62565b60200260200101518160c00151858151811061257157612571614b62565b6020908102919091018101919091528381015161018001516001600160a01b03165f90815260098252604081208054600181018255908252919020825183926006029091019081906125c3908261529c565b50602082015160018201805460408501516001600160a01b0316610100026001600160a81b031990911660ff9093169290921791909117905560608201516002820190612610908261529c565b506080820151600382015560a08201518051612636916004840191602090910190613c4a565b5060c08201518051612652916005840191602090910190613c4a565b5050600190940193506122e292505050565b5050505050565b81516020818401810180516011825292820191850191909120919052805482908110610e11575f80fd5b5f600154116126bd6001604051806060016040528060298152602001615c1c60299139610a5d565b906126db5760405162461bcd60e51b81526004016109bb919061415f565b505f60075f836001600160a01b03166001600160a01b031681526020019081526020015f2054116127256002604051806060016040528060258152602001615c6960259139610a5d565b906127435760405162461bcd60e51b81526004016109bb919061415f565b5060018054905f61275383615149565b90915550506001600160a01b0381165f90815260076020526040812080549161277b83615149565b919050555050565b6009602052815f5260405f20818154811061279c575f80fd5b905f5260205f2090600602015f9150915050805f0180546127bc90614b94565b80601f01602080910402602001604051908101604052809291908181526020018280546127e890614b94565b80156128335780601f1061280a57610100808354040283529160200191612833565b820191905f5260205f20905b81548152906001019060200180831161281657829003601f168201915b505050506001830154600284018054939460ff8316946101009093046001600160a01b031693509161286490614b94565b80601f016020809104026020016040519081016040528092919081815260200182805461289090614b94565b80156128db5780601f106128b2576101008083540402835291602001916128db565b820191905f5260205f20905b8154815290600101906020018083116128be57829003601f168201915b5050505050908060030154905085565b335f9081526013602052604090205460609060ff1661291c5760405162461bcd60e51b81526004016109bb906149b2565b600c805480602002602001604051908101604052809291908181526020015f905b82821015610b07575f8481526020908190206040805160a0810182526004860290920180546001600160a01b0381168452600160a01b900460ff168385015260018101805483518187028101870185528181529495929493860193928301828280156129c657602002820191905f5260205f20905b8154815260200190600101908083116129b2575b5050505050815260200160028201805480602002602001604051908101604052809291908181526020018280548015612a1c57602002820191905f5260205f20905b815481526020019060010190808311612a08575b5050505050815260200160038201805480602002602001604051908101604052809291908181526020018280548015612a7257602002820191905f5260205f20905b815481526020019060010190808311612a5e575b5050505050815250508152602001906001019061293d565b335f908152601060209081526040808320805482518185028101850190935280835260609492939192909184015b82821015610b07578382905f5260205f2090600202016040518060400160405290815f820154815260200160018201548152505081526020019060010190612ab8565b601654604051630c78d3e160e31b8152336004820152606091829182916001600160a01b0316906363c69f08906024015f60405180830381865afa158015612b45573d5f803e3d5ffd5b505050506040513d5f823e601f3d908101601f19168201604052612b6c9190810190615637565b6018546040516313fff5ab60e21b81523360048201529194506001600160a01b031690634fffd6ac906024015f60405180830381865afa158015612bb2573d5f803e3d5ffd5b505050506040513d5f823e601f3d908101601f19168201604052612bd991908101906158d6565b9150612be3612a8a565b9050909192565b335f9081526013602052604081205460ff16612c185760405162461bcd60e51b81526004016109bb906149b2565b5060015490565b60058054905f61169f83614acc565b600b602052815f5260405f208181548110610a0b575f80fd5b60605f806060612c5561317f565b9350612c6c335f9081526006602052604090205490565b9250612c83335f9081526007602052604090205490565b9150612c8d610c7d565b905090919293565b5f805411612cbc6001604051806060016040528060248152602001615c4560249139610a5d565b90612cda5760405162461bcd60e51b81526004016109bb919061415f565b505f60065f836001600160a01b03166001600160a01b031681526020019081526020015f205411612d4160026040518060400160405280602081526020017f496e76616c696420636f756e743a2072657461696c6572206661766f72697465815250610a5d565b90612d5f5760405162461bcd60e51b81526004016109bb919061415f565b505f80549080612d6e83615149565b90915550506001600160a01b0381165f90815260066020526040812080549161277b83615149565b600c8181548110612da5575f80fd5b5f9182526020909120600490910201546001600160a01b0381169150600160a01b900460ff1682565b6015545f906001600160a01b0316338114612dfb5760405162461bcd60e51b81526004016109bb90614af3565b601880546001600160a01b0385166001600160a01b03199091161790556001915050919050565b5f81612e44576001600160a01b0383165f908152600d60205260409020612e47565b600c5b90505f5b8154811015612f7257856001600160a01b0316828281548110612e7057612e70614b62565b5f9182526020909120600490910201546001600160a01b031603612f6a575f5b828281548110612ea257612ea2614b62565b905f5260205f20906004020160010180549050811015612f685785838381548110612ecf57612ecf614b62565b905f5260205f2090600402016001018281548110612eef57612eef614b62565b905f5260205f20015403612f6057612f24838381548110612f1257612f12614b62565b905f5260205f209060040201826137f8565b828281548110612f3657612f36614b62565b5f91825260208220600160049092020101549003612f5857612f588383613979565b5050506115ff565b600101612e90565b505b600101612e4b565b505050505050565b60088181548110612f89575f80fd5b905f5260205f2090600602015f91509050805f0180546127bc90614b94565b60408051606081810183525f8083526020830152918101829052335f9081526013602052604090205460609060ff16612ff35760405162461bcd60e51b81526004016109bb906149b2565b601654604051630c78d3e160e31b81526001600160a01b038681166004830152909116906363c69f08906024015f60405180830381865afa15801561303a573d5f803e3d5ffd5b505050506040513d5f823e601f3d908101601f191682016040526130619190810190615637565b601654604051630fed485160e11b81526001600160a01b038781166004830152929550911690631fda90a2906024015f60405180830381865afa1580156130aa573d5f803e3d5ffd5b505050506040513d5f823e601f3d908101601f191682016040526130d1919081019061599e565b6017546040516318f0a62960e31b81526001600160a01b03878116600483015292945091169063c7853148906024015f60405180830381865afa15801561311a573d5f803e3d5ffd5b505050506040513d5f823e601f3d908101601f191682016040526131419190810190615ac3565b929491935050565b5f8054908061315783614acc565b90915550506001600160a01b0381165f90815260066020526040812080549161277b83614acc565b335f908152600960209081526040808320805482518185028101850190935280835260609492939192909184015b82821015610b07578382905f5260205f2090600602016040518060e00160405290815f820180546131dd90614b94565b80601f016020809104026020016040519081016040528092919081815260200182805461320990614b94565b80156132545780601f1061322b57610100808354040283529160200191613254565b820191905f5260205f20905b81548152906001019060200180831161323757829003601f168201915b5050509183525050600182015460ff8116602083015261010090046001600160a01b0316604082015260028201805460609092019161329290614b94565b80601f01602080910402602001604051908101604052809291908181526020018280546132be90614b94565b80156133095780601f106132e057610100808354040283529160200191613309565b820191905f5260205f20905b8154815290600101906020018083116132ec57829003601f168201915b50505050508152602001600382015481526020016004820180548060200260200160405190810160405280929190818152602001828054801561336957602002820191905f5260205f20905b815481526020019060010190808311613355575b50505050508152602001600582018054806020026020016040519081016040528092919081815260200182805480156133bf57602002820191905f5260205f20905b8154815260200190600101908083116133ab575b505050505081525050815260200190600101906131ad565b335f9081526013602052604090205460609060ff166134085760405162461bcd60e51b81526004016109bb906149b2565b601280548060200260200160405190810160405280929190818152602001828054801561345257602002820191905f5260205f20905b81548152602001906001019080831161343e575b5050505050905090565b60038054905f61169f83614acc565b60048054905f61169f83614acc565b60018054905f61348983614acc565b90915550506001600160a01b0381165f90815260076020526040812080549161277b83614acc565b60605f6134bd83613ad2565b60010190505f816001600160401b038111156134db576134db613f69565b6040519080825280601f01601f191660200182016040528015613505576020820181803683370190505b5090508181016020015b5f19016f181899199a1a9b1b9c1cb0b131b232b360811b600a86061a8153600a850494508461350f57509392505050565b5f8151835114801561355f575081805190602001208380519060200120145b9392505050565b6040805160a0810182525f808252602082018190526060828401819052808301819052608083015282516001808252818501909452919290919081602001602082028036833750506040805160018082528183019092529293505f9291506020808301908036833750506040805160018082528183019092529293505f9291506020808301908036833701905050905086835f8151811061360957613609614b62565b60200260200101818152505085825f8151811061362857613628614b62565b60200260200101818152505042815f8151811061364757613647614b62565b6020026020010181815250505f6040518060a00160405280336001600160a01b0316815260200187600181111561368057613680615b6e565b60ff1681526020810195909552604085019390935250606090920191909152949350505050565b60605f82516001600160401b038111156136c3576136c3613f69565b6040519080825280602002602001820160405280156136f657816020015b60608152602001906001900390816136e15790505b5090505f5b83518110156137cf5760185484515f916001600160a01b031690636386c1c79087908590811061372d5761372d614b62565b60200260200101516040518263ffffffff1660e01b815260040161376091906001600160a01b0391909116815260200190565b5f60405180830381865afa15801561377a573d5f803e3d5ffd5b505050506040513d5f823e601f3d908101601f191682016040526137a191908101906154d1565b50905080602001518383815181106137bb576137bb614b62565b6020908102919091010152506001016136fb565b50806040516020016137e19190615b82565b604051602081830303815290604052915050919050565b60018201548110613807575050565b805b6001838101546138199190615002565b81101561390257826001018160016138319190615be5565b8154811061384157613841614b62565b905f5260205f20015483600101828154811061385f5761385f614b62565b5f9182526020909120015560028301613879826001615be5565b8154811061388957613889614b62565b905f5260205f2001548360020182815481106138a7576138a7614b62565b5f91825260209091200155600383016138c1826001615be5565b815481106138d1576138d1614b62565b905f5260205f2001548360030182815481106138ef576138ef614b62565b5f91825260209091200155600101613809565b508160010180548061391657613916615135565b600190038181905f5260205f20015f905590558160020180548061393c5761393c615135565b600190038181905f5260205f20015f905590558160030180548061396257613962615135565b600190038181905f5260205f20015f905590555050565b81548110613985575050565b805b825461399590600190615002565b811015613a7057826139a8826001615be5565b815481106139b8576139b8614b62565b905f5260205f2090600402018382815481106139d6576139d6614b62565b5f9182526020909120825460049092020180546001600160a01b039092166001600160a01b031983168117825583546001600160a81b031990931617600160a01b9283900460ff1690920291909117815560018083018054613a3b9284019190613ba9565b5060028281018054613a509284019190613ba9565b5060038281018054613a659284019190613ba9565b505050600101613987565b5081805480613a8157613a81615135565b5f8281526020812060045f199093019283020180546001600160a81b031916815590613ab06001830182613c2f565b613abd600283015f613c2f565b613aca600383015f613c2f565b505090555050565b5f8072184f03e93ff9f4daa797ed6e38ed64bf6a1f0160401b8310613b105772184f03e93ff9f4daa797ed6e38ed64bf6a1f0160401b830492506040015b6d04ee2d6d415b85acef81000000008310613b3c576d04ee2d6d415b85acef8100000000830492506020015b662386f26fc100008310613b5a57662386f26fc10000830492506010015b6305f5e1008310613b72576305f5e100830492506008015b6127108310613b8657612710830492506004015b60648310613b98576064830492506002015b600a8310610a915760010192915050565b828054828255905f5260205f20908101928215613be5575f5260205f209182015b82811115613be5578254825591600101919060010190613bca565b50613bf1929150613c83565b5090565b508054613c0190614b94565b5f825580601f10613c10575050565b601f0160209004905f5260205f2090810190613c2c9190613c83565b50565b5080545f8255905f5260205f2090810190613c2c9190613c83565b828054828255905f5260205f20908101928215613be5579160200282015b82811115613be5578251825591602001919060010190613c68565b5b80821115613bf1575f8155600101613c84565b6001600160a01b0381168114613c2c575f80fd5b8035613cb681613c97565b919050565b5f8060408385031215613ccc575f80fd5b8235613cd781613c97565b946020939093013593505050565b5f60208284031215613cf5575f80fd5b5035919050565b5f8060408385031215613d0d575f80fd5b50508035926020909101359150565b5f81518084528060208401602086015e5f602082860101526020601f19601f83011685010191505092915050565b5f8151808452602084019350602083015f5b82811015613d7a578151865260209586019590910190600101613d5c565b5093949350505050565b5f82825180855260208501945060208160051b830101602085015f5b83811015613e5f57601f198584030188528151805160e08552613dc660e0860182613d1c565b905060ff60208301511660208601526040820151613def60408701826001600160a01b03169052565b5060608201518582036060870152613e078282613d1c565b9150506080820151608086015260a082015185820360a0870152613e2b8282613d4a565b91505060c0820151915084810360c0860152613e478183613d4a565b60209a8b019a90955093909301925050600101613da0565b50909695505050505050565b5f82825180855260208501945060208160051b830101602085015f5b83811015613e5f57601f19858403018852815160018060a01b03815116845260ff6020820151166020850152604081015160a06040860152613ecc60a0860182613d4a565b905060608201518582036060870152613ee58282613d4a565b915050608082015191508481036080860152613f018183613d4a565b60209a8b019a90955093909301925050600101613e87565b60a081525f613f2b60a0830188613d84565b8660208401528560408401528281036060840152613f498186613e6b565b90508281036080840152613f5d8185613d4a565b98975050505050505050565b634e487b7160e01b5f52604160045260245ffd5b604080519081016001600160401b0381118282101715613f9f57613f9f613f69565b60405290565b60405160a081016001600160401b0381118282101715613f9f57613f9f613f69565b604051608081016001600160401b0381118282101715613f9f57613f9f613f69565b60405161030081016001600160401b0381118282101715613f9f57613f9f613f69565b60405161014081016001600160401b0381118282101715613f9f57613f9f613f69565b60405161026081016001600160401b0381118282101715613f9f57613f9f613f69565b604051606081016001600160401b0381118282101715613f9f57613f9f613f69565b604051601f8201601f191681016001600160401b038111828210171561409c5761409c613f69565b604052919050565b5f6001600160401b038211156140bc576140bc613f69565b50601f01601f191660200190565b5f82601f8301126140d9575f80fd5b81356140ec6140e7826140a4565b614074565b818152846020838601011115614100575f80fd5b816020850160208301375f918101602001919091529392505050565b5f806040838503121561412d575f80fd5b8235915060208301356001600160401b03811115614149575f80fd5b614155858286016140ca565b9150509250929050565b602081525f61355f6020830184613d1c565b602080825282518282018190525f918401906040840190835b818110156141c45783518051845260208101516020850152604081015160408501525060608301925060208401935060018101905061418a565b509095945050505050565b602081525f61355f6020830184613d4a565b5f805f83850360608112156141f4575f80fd5b84356001600160401b03811115614209575f80fd5b8501601f81018713614219575f80fd5b80356001600160401b0381111561422e575f80fd5b87602082840101111561423f575f80fd5b602091909101945092506040601f198201121561425a575f80fd5b50614263613f7d565b602085810135825260409095013594810194909452509093909250565b5f60208284031215614290575f80fd5b813561355f81613c97565b602081525f61355f6020830184613e6b565b5f602082840312156142bd575f80fd5b81356001600160401b038111156142d2575f80fd5b6142de848285016140ca565b949350505050565b606081525f6142f86060830186613d4a565b828103602084015261430a8186613d4a565b9050828103604084015261431e8185613d4a565b9695505050505050565b602081525f61355f6020830184613d84565b8015158114613c2c575f80fd5b5f805f805f8060c0878903121561435c575f80fd5b863561436781613c97565b95506020870135945060408701359350606087013561438581613c97565b9250608087013560028110614398575f80fd5b915060a08701356143a88161433a565b809150509295509295509295565b60ff81168114613c2c575f80fd5b8035613cb6816143b6565b5f6001600160401b038211156143e7576143e7613f69565b5060051b60200190565b5f82601f830112614400575f80fd5b813561440e6140e7826143cf565b8082825260208201915060208360051b86010192508583111561442f575f80fd5b602085015b8381101561444c578035835260209283019201614434565b5095945050505050565b5f60208284031215614466575f80fd5b81356001600160401b0381111561447b575f80fd5b820160a0818503121561448c575f80fd5b614494613fa5565b81356001600160401b038111156144a9575f80fd5b6144b5868285016140ca565b8252506144c4602083016143c4565b60208201526144d560408301613cab565b604082015260608201356001600160401b038111156144f2575f80fd5b6144fe868285016143f1565b60608301525060808201356001600160401b0381111561451c575f80fd5b614528868285016143f1565b608083015250949350505050565b5f8060408385031215614547575f80fd5b82356001600160401b0381111561455c575f80fd5b614568858286016140ca565b95602094909401359450505050565b60a081525f61458960a0830188613d1c565b60ff871660208401526001600160a01b038616604084015282810360608401526145b38186613d1c565b9150508260808301529695505050505050565b5f8151808452602084019350602083015f5b82811015613d7a5781518051875260209081015181880152604090960195909101906001016145d8565b602081525f61355f60208301846145c6565b5f82825180855260208501945060208160051b830101602085015f5b83811015613e5f57601f19858403018852815180518452602081015161466160208601826001600160a01b03169052565b50604081015161467c60408601826001600160a01b03169052565b5060608101516060850152608081015161026060808601526146a2610260860182613d4a565b905060a082015185820360a08701526146bb8282613d4a565b91505060c082015185820360c08701526146d58282613d4a565b91505060e082015185820360e08701526146ef8282613d4a565b91505061010082015185820361010087015261470b8282613d4a565b9150506101208201518582036101208701526147278282613d4a565b9150506101408201518582036101408701526147438282613d4a565b91505061016082015161016086015261018082015161476861018087018260ff169052565b506101a082015161477f6101a087018260ff169052565b506101c08201516101c08601526101e08201516101e08601526102008201516102008601526102208201516147ba61022087018260ff169052565b506102409182015194909101939093526020978801979190910190600101614630565b606081525f6147ef6060830186614614565b82810360208401528085518083526020830191506020870192505f5b8181101561484e578351805160ff168452602080820151818601526040918201516001600160a01b0316918501919091529093019260609092019160010161480b565b5050838103604085015261486281866145c6565b979650505050505050565b608081525f61487f6080830187613d84565b85602084015284604084015282810360608401526148628185613e6b565b5f805f80608085870312156148b0575f80fd5b84356148bb81613c97565b93506020850135925060408501356148d281613c97565b915060608501356148e28161433a565b939692955090935050565b606081525f6148ff6060830186614614565b8281036020840152606081018551825260018060a01b0360208701511660208301526040860151606060408401528181518084526080850191506020830194505f93505b808410156149925784519250825182526020830151602083015260408301516040830152606083015160608301526080830151608083015260a082019150602085019450600184019350614943565b5085810360408701526149a581886145c6565b9998505050505050505050565b60208082526049908201527f7b2266726f6d223a202245636f6d50726f647563742e736f6c222c22636f646560408201527f223a2035332c20226d657373616765223a2022596f7520617265206e6f7420616060820152686c6c6f7765642e227d60b81b608082015260a00190565b5f81518060208401855e5f93019283525090919050565b7f7b2266726f6d223a202245636f6d496e666f2e736f6c222c000000000000000081526701131b7b232911d160c51b60188201525f614a7a6020830185614a21565b61016160f51b81526b1136b2b9b9b0b3b2911d101160a11b6002820152614aa4600e820185614a21565b61227d60f01b815260020195945050505050565b634e487b7160e01b5f52601160045260245ffd5b5f60018201614add57614add614ab8565b5060010190565b818382375f9101908152919050565b60208082526049908201527f7b2266726f6d223a202245636f6d50726f647563742e736f6c222c22636f646560408201527f223a2035352c20226d657373616765223a2022596f7520617265206e6f7420616060820152686c6c6f7765642e227d60b81b608082015260a00190565b634e487b7160e01b5f52603260045260245ffd5b5f60ff821660ff8103614b8b57614b8b614ab8565b60010192915050565b600181811c90821680614ba857607f821691505b602082108103610c7757634e487b7160e01b5f52602260045260245ffd5b5f614bd36140e7846140a4565b9050828152838383011115614be6575f80fd5b8282602083015e5f602084830101529392505050565b5f82601f830112614c0b575f80fd5b61355f83835160208501614bc6565b5f82601f830112614c29575f80fd5b8151614c376140e7826143cf565b8082825260208201915060208360051b860101925085831115614c58575f80fd5b602085015b8381101561444c578051835260209283019201614c5d565b5f82601f830112614c84575f80fd5b8151614c926140e7826143cf565b8082825260208201915060208360051b860101925085831115614cb3575f80fd5b602085015b8381101561444c5780516001600160401b03811115614cd5575f80fd5b8601603f81018813614ce5575f80fd5b614cf788602083015160408401614bc6565b84525060209283019201614cb8565b8051613cb681613c97565b8051613cb68161433a565b5f60808284031215614d2c575f80fd5b614d34613fc7565b8251815260208301519091506001600160401b03811115614d53575f80fd5b82016103008185031215614d65575f80fd5b614d6d613fe9565b81516001600160401b03811115614d82575f80fd5b614d8e86828501614bfc565b8252506020828101519082015260408201516001600160401b03811115614db3575f80fd5b614dbf86828501614bfc565b604083015250606082810151908201526080808301519082015260a0808301519082015260c0808301519082015260e08201516001600160401b03811115614e05575f80fd5b614e1186828501614c1a565b60e0830152506101008201516001600160401b03811115614e30575f80fd5b614e3c86828501614c75565b61010083015250610120828101519082015261014080830151908201526101608201516001600160401b03811115614e72575f80fd5b614e7e86828501614c75565b61016083015250614e926101808301614d06565b6101808201526101a08201516001600160401b03811115614eb1575f80fd5b614ebd86828501614bfc565b6101a0830152506101c08201516001600160401b03811115614edd575f80fd5b614ee986828501614bfc565b6101c083015250614efd6101e08301614d11565b6101e08201526102008201516001600160401b03811115614f1c575f80fd5b614f2886828501614c75565b610200830152506102208201516001600160401b03811115614f48575f80fd5b614f5486828501614bfc565b61022083015250610240828101519082015261026080830151908201526102808083015190820152614f896102a08301614d11565b6102a0820152614f9c6102c08301614d11565b6102c08201526102e0918201519181019190915260208201526040828101519082015260609182015191810191909152919050565b5f60208284031215614fe1575f80fd5b81516001600160401b03811115614ff6575f80fd5b6142de84828501614d1c565b81810381811115610a9157610a91614ab8565b601f82111561505957805f5260205f20601f840160051c8101602085101561503a5750805b601f840160051c820191505b81811015612664575f8155600101615046565b505050565b818103615069575050565b6150738254614b94565b6001600160401b0381111561508a5761508a613f69565b61509e816150988454614b94565b84615015565b5f601f8211600181146150d2575f83156150b85750848201545b600184901b5f19600386901b1c198216175b855550612664565b5f8581526020808220868352908220601f198616925b8381101561510857828601548255600195860195909101906020016150e8565b508583101561512557818501545f19600388901b60f8161c191681555b5050505050600190811b01905550565b634e487b7160e01b5f52603160045260245ffd5b5f8161515757615157614ab8565b505f190190565b5f6020828403121561516e575f80fd5b81516001600160401b03811115615183575f80fd5b8201601f81018413615193575f80fd5b80516151a16140e7826143cf565b8082825260208201915060208360051b8501019250868311156151c2575f80fd5b602084015b838110156152025780516001600160401b038111156151e4575f80fd5b6151f389602083890101614d1c565b845250602092830192016151c7565b509695505050505050565b5f6020828403121561521d575f80fd5b81516001600160401b03811115615232575f80fd5b8201601f81018413615242575f80fd5b80516152506140e7826143cf565b8082825260208201915060208360051b850101925086831115615271575f80fd5b6020840193505b8284101561431e57835161528b81613c97565b825260209384019390910190615278565b81516001600160401b038111156152b5576152b5613f69565b6152c3816150988454614b94565b6020601f8211600181146152f3575f83156150b8575081850151600184901b5f19600386901b1c198216176150ca565b5f84815260208120601f198516915b828110156153225787850151825560209485019460019092019101615302565b508482101561533f57868401515f19600387901b60f8161c191681555b50505050600190811b01905550565b8051613cb6816143b6565b805160038110613cb6575f80fd5b5f82601f830112615376575f80fd5b81516153846140e7826143cf565b8082825260208201915060208360051b8601019250858311156153a5575f80fd5b602085015b8381101561444c5780516001600160401b038111156153c7575f80fd5b860160a0818903601f190112156153dc575f80fd5b6153e4613fa5565b60208201516001600160401b038111156153fc575f80fd5b61540b8a602083860101614bfc565b82525060408201516001600160401b03811115615426575f80fd5b6154358a602083860101614bfc565b60208301525060608201516001600160401b03811115615453575f80fd5b6154628a602083860101614bfc565b60408301525060808201516001600160401b03811115615480575f80fd5b61548f8a602083860101614bfc565b60608301525060a08201516001600160401b038111156154ad575f80fd5b6154bc8a602083860101614bfc565b608083015250845250602092830192016153aa565b5f80604083850312156154e2575f80fd5b82516001600160401b038111156154f7575f80fd5b83016101408186031215615509575f80fd5b61551161400c565b61551a82614d06565b815260208201516001600160401b03811115615534575f80fd5b61554087828501614bfc565b60208301525060408201516001600160401b0381111561555e575f80fd5b61556a87828501614bfc565b60408301525061557c6060830161534e565b60608201526080828101519082015260a08201516001600160401b038111156155a3575f80fd5b6155af87828501614bfc565b60a08301525060c08201516001600160401b038111156155cd575f80fd5b6155d987828501614bfc565b60c0830152506155eb60e08301615359565b60e082015261010082810151908201526156086101208301614d06565b610120820152809350505060208301516001600160401b0381111561562b575f80fd5b61415585828601615367565b5f60208284031215615647575f80fd5b81516001600160401b0381111561565c575f80fd5b8201601f8101841361566c575f80fd5b805161567a6140e7826143cf565b8082825260208201915060208360051b85010192508683111561569b575f80fd5b602084015b838110156152025780516001600160401b038111156156bd575f80fd5b8501610260818a03601f190112156156d3575f80fd5b6156db61402f565b602082015181526156ee60408301614d06565b60208201526156ff60608301614d06565b60408201526080820151606082015260a08201516001600160401b03811115615726575f80fd5b6157358b602083860101614c1a565b60808301525060c08201516001600160401b03811115615753575f80fd5b6157628b602083860101614c1a565b60a08301525060e08201516001600160401b03811115615780575f80fd5b61578f8b602083860101614c1a565b60c0830152506101008201516001600160401b038111156157ae575f80fd5b6157bd8b602083860101614c1a565b60e0830152506101208201516001600160401b038111156157dc575f80fd5b6157eb8b602083860101614c1a565b610100830152506101408201516001600160401b0381111561580b575f80fd5b61581a8b602083860101614c1a565b610120830152506101608201516001600160401b0381111561583a575f80fd5b6158498b602083860101614c1a565b610140830152506101808201516101608201526158696101a0830161534e565b61018082015261587c6101c0830161534e565b6101a08201526101e0828101516101c08301526102008084015191830191909152610220830151908201526158b4610240830161534e565b61022082015261026091909101516102408201528352602092830192016156a0565b5f602082840312156158e6575f80fd5b81516001600160401b038111156158fb575f80fd5b8201601f8101841361590b575f80fd5b80516159196140e7826143cf565b8082825260208201915060206060840285010192508683111561593a575f80fd5b6020840193505b8284101561431e5760608488031215615958575f80fd5b615960614052565b845161596b816143b6565b815260208581015190820152604085015161598581613c97565b6040820152825260609390930192602090910190615941565b5f602082840312156159ae575f80fd5b81516001600160401b038111156159c3575f80fd5b8201606081850312156159d4575f80fd5b6159dc614052565b8151815260208201516159ee81613c97565b602082015260408201516001600160401b03811115615a0b575f80fd5b80830192505084601f830112615a1f575f80fd5b8151615a2d6140e7826143cf565b80828252602082019150602060a08402860101925087831115615a4e575f80fd5b6020850194505b82851015615ab35760a08589031215615a6c575f80fd5b615a74613fa5565b855181526020808701518183015260408088015190830152606080880151908301526080808801519083015290835260a0909501949190910190615a55565b6040840152509095945050505050565b5f60208284031215615ad3575f80fd5b81516001600160401b03811115615ae8575f80fd5b8201601f81018413615af8575f80fd5b8051615b066140e7826143cf565b8082825260208201915060208360061b850101925086831115615b27575f80fd5b6020840193505b8284101561431e5760408488031215615b45575f80fd5b615b4d613f7d565b84518152602080860151818301529083526040909401939190910190615b2e565b634e487b7160e01b5f52602160045260245ffd5b5f602082016020835280845180835260408501915060408160051b8601019250602086015f5b82811015615bd957603f19878603018452615bc4858351613d1c565b94506020938401939190910190600101615ba8565b50929695505050505050565b80820180821115610a9157610a91614ab856fe496e76616c696420636f756e7420746f74616c20636f6d6d656e7420616e6420666171496e76616c696420636f756e743a20746f74616c2073797374656d20616464656420746f2063617274496e76616c696420636f756e743a20746f74616c2073797374656d206661766f72697465496e76616c696420636f756e743a2072657461696c657220616464656420746f2063617274a264697066735822122066718cab97eaa8158e3ff896f4b6e9aa9cc50ad4de3928c5c0ede2cdf79b141864736f6c634300081a0033",
			"opcodes": "PUSH1 0x80 PUSH1 0x40 SWAP1 DUP2 MSTORE PUSH1 0x15 DUP1 SLOAD PUSH1 0x1 PUSH1 0x1 PUSH1 0xA0 SHL SUB NOT SWAP1 DUP2 AND CALLER SWAP1 DUP2 OR SWAP1 SWAP3 SSTORE PUSH0 DUP3 DUP2 MSTORE PUSH1 0x13 PUSH1 0x20 MSTORE SWAP3 DUP4 KECCAK256 DUP1 SLOAD PUSH1 0xFF NOT AND PUSH1 0x1 SWAP1 DUP2 OR SWAP1 SWAP2 SSTORE PUSH1 0x14 DUP1 SLOAD SWAP2 DUP3 ADD DUP2 SSTORE SWAP1 SWAP4 MSTORE PUSH32 0xCE6D7B5282BD9A3661AE061FEED1DBDA4E52AB073B1F9285BE6E155D9C38D4EC SWAP1 SWAP3 ADD DUP1 SLOAD SWAP1 SWAP3 AND OR SWAP1 SSTORE PUSH2 0x5CC3 DUP1 PUSH2 0x7C PUSH0 CODECOPY PUSH0 RETURN INVALID PUSH1 0x80 PUSH1 0x40 MSTORE CALLVALUE DUP1 ISZERO PUSH2 0xF JUMPI PUSH0 DUP1 REVERT JUMPDEST POP PUSH1 0x4 CALLDATASIZE LT PUSH2 0x3D5 JUMPI PUSH0 CALLDATALOAD PUSH1 0xE0 SHR DUP1 PUSH4 0x8AA393AC GT PUSH2 0x200 JUMPI DUP1 PUSH4 0xB94AEAD5 GT PUSH2 0x11F JUMPI DUP1 PUSH4 0xE27EA4A7 GT PUSH2 0xB4 JUMPI DUP1 PUSH4 0xF53BC6E3 GT PUSH2 0x84 JUMPI DUP1 PUSH4 0xF53BC6E3 EQ PUSH2 0x915 JUMPI DUP1 PUSH4 0xF5548899 EQ PUSH2 0x91D JUMPI DUP1 PUSH4 0xF62DD1EE EQ PUSH2 0x925 JUMPI DUP1 PUSH4 0xF857D617 EQ PUSH2 0x92E JUMPI DUP1 PUSH4 0xF954ED2D EQ PUSH2 0x936 JUMPI PUSH0 DUP1 REVERT JUMPDEST DUP1 PUSH4 0xE27EA4A7 EQ PUSH2 0x8C5 JUMPI DUP1 PUSH4 0xE6801AC7 EQ PUSH2 0x8D8 JUMPI DUP1 PUSH4 0xEDA162E7 EQ PUSH2 0x8FA JUMPI DUP1 PUSH4 0xEDAFAF63 EQ PUSH2 0x90D JUMPI PUSH0 DUP1 REVERT JUMPDEST DUP1 PUSH4 0xCAC0E650 GT PUSH2 0xEF JUMPI DUP1 PUSH4 0xCAC0E650 EQ PUSH2 0x877 JUMPI DUP1 PUSH4 0xCECE999F EQ PUSH2 0x88A JUMPI DUP1 PUSH4 0xD24043CB EQ PUSH2 0x893 JUMPI DUP1 PUSH4 0xD6376AEA EQ PUSH2 0x8A6 JUMPI PUSH0 DUP1 REVERT JUMPDEST DUP1 PUSH4 0xB94AEAD5 EQ PUSH2 0x826 JUMPI DUP1 PUSH4 0xBC43B9CC EQ PUSH2 0x839 JUMPI DUP1 PUSH4 0xC0A22771 EQ PUSH2 0x851 JUMPI DUP1 PUSH4 0xCA6A7502 EQ PUSH2 0x864 JUMPI PUSH0 DUP1 REVERT JUMPDEST DUP1 PUSH4 0x9DDF2E95 GT PUSH2 0x195 JUMPI DUP1 PUSH4 0xAC3B394F GT PUSH2 0x165 JUMPI DUP1 PUSH4 0xAC3B394F EQ PUSH2 0x7CF JUMPI DUP1 PUSH4 0xAC5FAE69 EQ PUSH2 0x7E6 JUMPI DUP1 PUSH4 0xB34210E1 EQ PUSH2 0x7EE JUMPI DUP1 PUSH4 0xB34D644A EQ PUSH2 0x81E JUMPI PUSH0 DUP1 REVERT JUMPDEST DUP1 PUSH4 0x9DDF2E95 EQ PUSH2 0x771 JUMPI DUP1 PUSH4 0xA354F1B2 EQ PUSH2 0x793 JUMPI DUP1 PUSH4 0xAA29EAC7 EQ PUSH2 0x7A6 JUMPI DUP1 PUSH4 0xABB4CA99 EQ PUSH2 0x7BA JUMPI PUSH0 DUP1 REVERT JUMPDEST DUP1 PUSH4 0x92A198D5 GT PUSH2 0x1D0 JUMPI DUP1 PUSH4 0x92A198D5 EQ PUSH2 0x729 JUMPI DUP1 PUSH4 0x989868ED EQ PUSH2 0x73C JUMPI DUP1 PUSH4 0x9A761C4D EQ PUSH2 0x760 JUMPI DUP1 PUSH4 0x9CDE636E EQ PUSH2 0x768 JUMPI PUSH0 DUP1 REVERT JUMPDEST DUP1 PUSH4 0x8AA393AC EQ PUSH2 0x6DD JUMPI DUP1 PUSH4 0x8DA5CB5B EQ PUSH2 0x6F0 JUMPI DUP1 PUSH4 0x8EF58635 EQ PUSH2 0x703 JUMPI DUP1 PUSH4 0x9075C290 EQ PUSH2 0x716 JUMPI PUSH0 DUP1 REVERT JUMPDEST DUP1 PUSH4 0x467956EF GT PUSH2 0x2F7 JUMPI DUP1 PUSH4 0x6F2069F0 GT PUSH2 0x28C JUMPI DUP1 PUSH4 0x79D3F776 GT PUSH2 0x25C JUMPI DUP1 PUSH4 0x79D3F776 EQ PUSH2 0x685 JUMPI DUP1 PUSH4 0x7BE740C9 EQ PUSH2 0x68D JUMPI DUP1 PUSH4 0x7E0833CA EQ PUSH2 0x6AC JUMPI DUP1 PUSH4 0x8286980C EQ PUSH2 0x6B5 JUMPI DUP1 PUSH4 0x86ACD564 EQ PUSH2 0x6C8 JUMPI PUSH0 DUP1 REVERT JUMPDEST DUP1 PUSH4 0x6F2069F0 EQ PUSH2 0x640 JUMPI DUP1 PUSH4 0x704B6C02 EQ PUSH2 0x648 JUMPI DUP1 PUSH4 0x70E8E53C EQ PUSH2 0x65B JUMPI DUP1 PUSH4 0x795EC6D4 EQ PUSH2 0x66E JUMPI PUSH0 DUP1 REVERT JUMPDEST DUP1 PUSH4 0x5B956627 GT PUSH2 0x2C7 JUMPI DUP1 PUSH4 0x5B956627 EQ PUSH2 0x5FF JUMPI DUP1 PUSH4 0x62DE6230 EQ PUSH2 0x612 JUMPI DUP1 PUSH4 0x6A7434E5 EQ PUSH2 0x625 JUMPI DUP1 PUSH4 0x6CB69F42 EQ PUSH2 0x638 JUMPI PUSH0 DUP1 REVERT JUMPDEST DUP1 PUSH4 0x467956EF EQ PUSH2 0x59C JUMPI DUP1 PUSH4 0x4D5C5FD7 EQ PUSH2 0x5B1 JUMPI DUP1 PUSH4 0x4E581680 EQ PUSH2 0x5C4 JUMPI DUP1 PUSH4 0x4FA3C56F EQ PUSH2 0x5EC JUMPI PUSH0 DUP1 REVERT JUMPDEST DUP1 PUSH4 0x32ACA62B GT PUSH2 0x36D JUMPI DUP1 PUSH4 0x3D3A9748 GT PUSH2 0x33D JUMPI DUP1 PUSH4 0x3D3A9748 EQ PUSH2 0x52F JUMPI DUP1 PUSH4 0x409B2CDF EQ PUSH2 0x542 JUMPI DUP1 PUSH4 0x4323323A EQ PUSH2 0x570 JUMPI DUP1 PUSH4 0x44089CD1 EQ PUSH2 0x579 JUMPI PUSH0 DUP1 REVERT JUMPDEST DUP1 PUSH4 0x32ACA62B EQ PUSH2 0x4D3 JUMPI DUP1 PUSH4 0x32F39436 EQ PUSH2 0x4E8 JUMPI DUP1 PUSH4 0x32FD9850 EQ PUSH2 0x4FB JUMPI DUP1 PUSH4 0x35890AAD EQ PUSH2 0x51B JUMPI PUSH0 DUP1 REVERT JUMPDEST DUP1 PUSH4 0x1738408D GT PUSH2 0x3A8 JUMPI DUP1 PUSH4 0x1738408D EQ PUSH2 0x466 JUMPI DUP1 PUSH4 0x2075BD3C EQ PUSH2 0x485 JUMPI DUP1 PUSH4 0x2248632A EQ PUSH2 0x49E JUMPI DUP1 PUSH4 0x2C9AEFE9 EQ PUSH2 0x4BE JUMPI PUSH0 DUP1 REVERT JUMPDEST DUP1 PUSH4 0x22DE34C EQ PUSH2 0x3D9 JUMPI DUP1 PUSH4 0x13BADCB8 EQ PUSH2 0x412 JUMPI DUP1 PUSH4 0x14BFD6D0 EQ PUSH2 0x428 JUMPI DUP1 PUSH4 0x158D3474 EQ PUSH2 0x453 JUMPI JUMPDEST PUSH0 DUP1 REVERT JUMPDEST PUSH2 0x3EC PUSH2 0x3E7 CALLDATASIZE PUSH1 0x4 PUSH2 0x3CBB JUMP JUMPDEST PUSH2 0x949 JUMP JUMPDEST PUSH1 0x40 DUP1 MLOAD PUSH1 0x1 PUSH1 0x1 PUSH1 0xA0 SHL SUB SWAP1 SWAP4 AND DUP4 MSTORE PUSH1 0xFF SWAP1 SWAP2 AND PUSH1 0x20 DUP4 ADD MSTORE ADD JUMPDEST PUSH1 0x40 MLOAD DUP1 SWAP2 SUB SWAP1 RETURN JUMPDEST PUSH2 0x41A PUSH2 0x98D JUMP JUMPDEST PUSH1 0x40 MLOAD SWAP1 DUP2 MSTORE PUSH1 0x20 ADD PUSH2 0x409 JUMP JUMPDEST PUSH2 0x43B PUSH2 0x436 CALLDATASIZE PUSH1 0x4 PUSH2 0x3CE5 JUMP JUMPDEST PUSH2 0x9CA JUMP JUMPDEST PUSH1 0x40 MLOAD PUSH1 0x1 PUSH1 0x1 PUSH1 0xA0 SHL SUB SWAP1 SWAP2 AND DUP2 MSTORE PUSH1 0x20 ADD PUSH2 0x409 JUMP JUMPDEST PUSH2 0x41A PUSH2 0x461 CALLDATASIZE PUSH1 0x4 PUSH2 0x3CFC JUMP JUMPDEST PUSH2 0x9F2 JUMP JUMPDEST PUSH2 0x41A PUSH2 0x474 CALLDATASIZE PUSH1 0x4 PUSH2 0x3CE5 JUMP JUMPDEST PUSH1 0xE PUSH1 0x20 MSTORE PUSH0 SWAP1 DUP2 MSTORE PUSH1 0x40 SWAP1 KECCAK256 SLOAD DUP2 JUMP JUMPDEST PUSH2 0x48D PUSH2 0xA1D JUMP JUMPDEST PUSH1 0x40 MLOAD PUSH2 0x409 SWAP6 SWAP5 SWAP4 SWAP3 SWAP2 SWAP1 PUSH2 0x3F19 JUMP JUMPDEST PUSH2 0x4B1 PUSH2 0x4AC CALLDATASIZE PUSH1 0x4 PUSH2 0x411C JUMP JUMPDEST PUSH2 0xA5D JUMP JUMPDEST PUSH1 0x40 MLOAD PUSH2 0x409 SWAP2 SWAP1 PUSH2 0x415F JUMP JUMPDEST PUSH2 0x4C6 PUSH2 0xA97 JUMP JUMPDEST PUSH1 0x40 MLOAD PUSH2 0x409 SWAP2 SWAP1 PUSH2 0x4171 JUMP JUMPDEST PUSH2 0x4E6 PUSH2 0x4E1 CALLDATASIZE PUSH1 0x4 PUSH2 0x3CE5 JUMP JUMPDEST PUSH2 0xB10 JUMP JUMPDEST STOP JUMPDEST PUSH1 0x16 SLOAD PUSH2 0x43B SWAP1 PUSH1 0x1 PUSH1 0x1 PUSH1 0xA0 SHL SUB AND DUP2 JUMP JUMPDEST PUSH2 0x50E PUSH2 0x509 CALLDATASIZE PUSH1 0x4 PUSH2 0x3CE5 JUMP JUMPDEST PUSH2 0xB50 JUMP JUMPDEST PUSH1 0x40 MLOAD PUSH2 0x409 SWAP2 SWAP1 PUSH2 0x41CF JUMP JUMPDEST CALLER PUSH0 SWAP1 DUP2 MSTORE PUSH1 0x7 PUSH1 0x20 MSTORE PUSH1 0x40 SWAP1 KECCAK256 SLOAD PUSH2 0x41A JUMP JUMPDEST PUSH2 0x4E6 PUSH2 0x53D CALLDATASIZE PUSH1 0x4 PUSH2 0x41E1 JUMP JUMPDEST PUSH2 0xBAF JUMP JUMPDEST PUSH2 0x555 PUSH2 0x550 CALLDATASIZE PUSH1 0x4 PUSH2 0x3CE5 JUMP JUMPDEST PUSH2 0xBF9 JUMP JUMPDEST PUSH1 0x40 DUP1 MLOAD SWAP4 DUP5 MSTORE PUSH1 0x20 DUP5 ADD SWAP3 SWAP1 SWAP3 MSTORE SWAP1 DUP3 ADD MSTORE PUSH1 0x60 ADD PUSH2 0x409 JUMP JUMPDEST PUSH2 0x41A PUSH1 0x2 SLOAD DUP2 JUMP JUMPDEST PUSH2 0x58C PUSH2 0x587 CALLDATASIZE PUSH1 0x4 PUSH2 0x4280 JUMP JUMPDEST PUSH2 0xC2A JUMP JUMPDEST PUSH1 0x40 MLOAD SWAP1 ISZERO ISZERO DUP2 MSTORE PUSH1 0x20 ADD PUSH2 0x409 JUMP JUMPDEST PUSH2 0x5A4 PUSH2 0xC7D JUMP JUMPDEST PUSH1 0x40 MLOAD PUSH2 0x409 SWAP2 SWAP1 PUSH2 0x429B JUMP JUMPDEST PUSH1 0x18 SLOAD PUSH2 0x43B SWAP1 PUSH1 0x1 PUSH1 0x1 PUSH1 0xA0 SHL SUB AND DUP2 JUMP JUMPDEST PUSH2 0x5D7 PUSH2 0x5D2 CALLDATASIZE PUSH1 0x4 PUSH2 0x3CBB JUMP JUMPDEST PUSH2 0xDF8 JUMP JUMPDEST PUSH1 0x40 DUP1 MLOAD SWAP3 DUP4 MSTORE PUSH1 0x20 DUP4 ADD SWAP2 SWAP1 SWAP2 MSTORE ADD PUSH2 0x409 JUMP JUMPDEST PUSH2 0x41A PUSH2 0x5FA CALLDATASIZE PUSH1 0x4 PUSH2 0x3CE5 JUMP JUMPDEST PUSH2 0xE30 JUMP JUMPDEST PUSH2 0x4E6 PUSH2 0x60D CALLDATASIZE PUSH1 0x4 PUSH2 0x3CBB JUMP JUMPDEST PUSH2 0xE4F JUMP JUMPDEST PUSH2 0x58C PUSH2 0x620 CALLDATASIZE PUSH1 0x4 PUSH2 0x4280 JUMP JUMPDEST PUSH2 0xFA0 JUMP JUMPDEST PUSH2 0x4E6 PUSH2 0x633 CALLDATASIZE PUSH1 0x4 PUSH2 0x42AD JUMP JUMPDEST PUSH2 0xFF4 JUMP JUMPDEST PUSH2 0x555 PUSH2 0x1605 JUMP JUMPDEST PUSH2 0x4E6 PUSH2 0x1649 JUMP JUMPDEST PUSH2 0x58C PUSH2 0x656 CALLDATASIZE PUSH1 0x4 PUSH2 0x4280 JUMP JUMPDEST PUSH2 0x16A6 JUMP JUMPDEST PUSH2 0x50E PUSH2 0x669 CALLDATASIZE PUSH1 0x4 PUSH2 0x3CE5 JUMP JUMPDEST PUSH2 0x173D JUMP JUMPDEST PUSH2 0x676 PUSH2 0x179A JUMP JUMPDEST PUSH1 0x40 MLOAD PUSH2 0x409 SWAP4 SWAP3 SWAP2 SWAP1 PUSH2 0x42E6 JUMP JUMPDEST PUSH2 0x41A PUSH0 SLOAD DUP2 JUMP JUMPDEST PUSH2 0x41A PUSH2 0x69B CALLDATASIZE PUSH1 0x4 PUSH2 0x4280 JUMP JUMPDEST PUSH1 0x6 PUSH1 0x20 MSTORE PUSH0 SWAP1 DUP2 MSTORE PUSH1 0x40 SWAP1 KECCAK256 SLOAD DUP2 JUMP JUMPDEST PUSH2 0x41A PUSH1 0x4 SLOAD DUP2 JUMP JUMPDEST PUSH2 0x4E6 PUSH2 0x6C3 CALLDATASIZE PUSH1 0x4 PUSH2 0x3CE5 JUMP JUMPDEST PUSH2 0x1A8D JUMP JUMPDEST PUSH2 0x6D0 PUSH2 0x1BC7 JUMP JUMPDEST PUSH1 0x40 MLOAD PUSH2 0x409 SWAP2 SWAP1 PUSH2 0x4328 JUMP JUMPDEST PUSH2 0x4E6 PUSH2 0x6EB CALLDATASIZE PUSH1 0x4 PUSH2 0x4347 JUMP JUMPDEST PUSH2 0x1E43 JUMP JUMPDEST PUSH1 0x15 SLOAD PUSH2 0x43B SWAP1 PUSH1 0x1 PUSH1 0x1 PUSH1 0xA0 SHL SUB AND DUP2 JUMP JUMPDEST PUSH2 0x4E6 PUSH2 0x711 CALLDATASIZE PUSH1 0x4 PUSH2 0x4456 JUMP JUMPDEST PUSH2 0x2131 JUMP JUMPDEST PUSH2 0x5D7 PUSH2 0x724 CALLDATASIZE PUSH1 0x4 PUSH2 0x4536 JUMP JUMPDEST PUSH2 0x266B JUMP JUMPDEST PUSH2 0x4E6 PUSH2 0x737 CALLDATASIZE PUSH1 0x4 PUSH2 0x4280 JUMP JUMPDEST PUSH2 0x2695 JUMP JUMPDEST PUSH2 0x74F PUSH2 0x74A CALLDATASIZE PUSH1 0x4 PUSH2 0x3CBB JUMP JUMPDEST PUSH2 0x2783 JUMP JUMPDEST PUSH1 0x40 MLOAD PUSH2 0x409 SWAP6 SWAP5 SWAP4 SWAP3 SWAP2 SWAP1 PUSH2 0x4577 JUMP JUMPDEST PUSH2 0x5A4 PUSH2 0x28EB JUMP JUMPDEST PUSH2 0x41A PUSH1 0x1 SLOAD DUP2 JUMP JUMPDEST PUSH2 0x58C PUSH2 0x77F CALLDATASIZE PUSH1 0x4 PUSH2 0x4280 JUMP JUMPDEST PUSH1 0x13 PUSH1 0x20 MSTORE PUSH0 SWAP1 DUP2 MSTORE PUSH1 0x40 SWAP1 KECCAK256 SLOAD PUSH1 0xFF AND DUP2 JUMP JUMPDEST PUSH1 0x17 SLOAD PUSH2 0x43B SWAP1 PUSH1 0x1 PUSH1 0x1 PUSH1 0xA0 SHL SUB AND DUP2 JUMP JUMPDEST CALLER PUSH0 SWAP1 DUP2 MSTORE PUSH1 0x6 PUSH1 0x20 MSTORE PUSH1 0x40 SWAP1 KECCAK256 SLOAD PUSH2 0x41A JUMP JUMPDEST PUSH2 0x7C2 PUSH2 0x2A8A JUMP JUMPDEST PUSH1 0x40 MLOAD PUSH2 0x409 SWAP2 SWAP1 PUSH2 0x4602 JUMP JUMPDEST PUSH2 0x7D7 PUSH2 0x2AFB JUMP JUMPDEST PUSH1 0x40 MLOAD PUSH2 0x409 SWAP4 SWAP3 SWAP2 SWAP1 PUSH2 0x47DD JUMP JUMPDEST PUSH2 0x41A PUSH2 0x2BEA JUMP JUMPDEST PUSH2 0x4E6 PUSH2 0x7FC CALLDATASIZE PUSH1 0x4 PUSH2 0x3CE5 JUMP JUMPDEST PUSH0 SWAP1 DUP2 MSTORE PUSH1 0xB PUSH1 0x20 SWAP1 DUP2 MSTORE PUSH1 0x40 DUP3 KECCAK256 DUP1 SLOAD PUSH1 0x1 DUP2 ADD DUP3 SSTORE SWAP1 DUP4 MSTORE SWAP2 KECCAK256 TIMESTAMP SWAP2 ADD SSTORE JUMP JUMPDEST PUSH2 0x4E6 PUSH2 0x2C1F JUMP JUMPDEST PUSH2 0x41A PUSH2 0x834 CALLDATASIZE PUSH1 0x4 PUSH2 0x3CFC JUMP JUMPDEST PUSH2 0x2C2E JUMP JUMPDEST PUSH2 0x841 PUSH2 0x2C47 JUMP JUMPDEST PUSH1 0x40 MLOAD PUSH2 0x409 SWAP5 SWAP4 SWAP3 SWAP2 SWAP1 PUSH2 0x486D JUMP JUMPDEST PUSH2 0x4E6 PUSH2 0x85F CALLDATASIZE PUSH1 0x4 PUSH2 0x4280 JUMP JUMPDEST PUSH2 0x2C95 JUMP JUMPDEST PUSH2 0x3EC PUSH2 0x872 CALLDATASIZE PUSH1 0x4 PUSH2 0x3CE5 JUMP JUMPDEST PUSH2 0x2D96 JUMP JUMPDEST PUSH2 0x58C PUSH2 0x885 CALLDATASIZE PUSH1 0x4 PUSH2 0x4280 JUMP JUMPDEST PUSH2 0x2DCE JUMP JUMPDEST PUSH2 0x41A PUSH1 0x5 SLOAD DUP2 JUMP JUMPDEST PUSH2 0x4E6 PUSH2 0x8A1 CALLDATASIZE PUSH1 0x4 PUSH2 0x489D JUMP JUMPDEST PUSH2 0x2E22 JUMP JUMPDEST PUSH2 0x41A PUSH2 0x8B4 CALLDATASIZE PUSH1 0x4 PUSH2 0x4280 JUMP JUMPDEST PUSH1 0x7 PUSH1 0x20 MSTORE PUSH0 SWAP1 DUP2 MSTORE PUSH1 0x40 SWAP1 KECCAK256 SLOAD DUP2 JUMP JUMPDEST PUSH2 0x74F PUSH2 0x8D3 CALLDATASIZE PUSH1 0x4 PUSH2 0x3CE5 JUMP JUMPDEST PUSH2 0x2F7A JUMP JUMPDEST PUSH2 0x8EB PUSH2 0x8E6 CALLDATASIZE PUSH1 0x4 PUSH2 0x4280 JUMP JUMPDEST PUSH2 0x2FA8 JUMP JUMPDEST PUSH1 0x40 MLOAD PUSH2 0x409 SWAP4 SWAP3 SWAP2 SWAP1 PUSH2 0x48ED JUMP JUMPDEST PUSH2 0x4E6 PUSH2 0x908 CALLDATASIZE PUSH1 0x4 PUSH2 0x4280 JUMP JUMPDEST PUSH2 0x3149 JUMP JUMPDEST PUSH2 0x6D0 PUSH2 0x317F JUMP JUMPDEST PUSH2 0x50E PUSH2 0x33D7 JUMP JUMPDEST PUSH2 0x4E6 PUSH2 0x345C JUMP JUMPDEST PUSH2 0x41A PUSH1 0x3 SLOAD DUP2 JUMP JUMPDEST PUSH2 0x4E6 PUSH2 0x346B JUMP JUMPDEST PUSH2 0x4E6 PUSH2 0x944 CALLDATASIZE PUSH1 0x4 PUSH2 0x4280 JUMP JUMPDEST PUSH2 0x347A JUMP JUMPDEST PUSH1 0xD PUSH1 0x20 MSTORE DUP2 PUSH0 MSTORE PUSH1 0x40 PUSH0 KECCAK256 DUP2 DUP2 SLOAD DUP2 LT PUSH2 0x962 JUMPI PUSH0 DUP1 REVERT JUMPDEST PUSH0 SWAP2 DUP3 MSTORE PUSH1 0x20 SWAP1 SWAP2 KECCAK256 PUSH1 0x4 SWAP1 SWAP2 MUL ADD SLOAD PUSH1 0x1 PUSH1 0x1 PUSH1 0xA0 SHL SUB DUP2 AND SWAP3 POP PUSH1 0x1 PUSH1 0xA0 SHL SWAP1 DIV PUSH1 0xFF AND SWAP1 POP DUP3 JUMP JUMPDEST CALLER PUSH0 SWAP1 DUP2 MSTORE PUSH1 0x13 PUSH1 0x20 MSTORE PUSH1 0x40 DUP2 KECCAK256 SLOAD PUSH1 0xFF AND PUSH2 0x9C4 JUMPI PUSH1 0x40 MLOAD PUSH3 0x461BCD PUSH1 0xE5 SHL DUP2 MSTORE PUSH1 0x4 ADD PUSH2 0x9BB SWAP1 PUSH2 0x49B2 JUMP JUMPDEST PUSH1 0x40 MLOAD DUP1 SWAP2 SUB SWAP1 REVERT JUMPDEST POP PUSH0 SLOAD SWAP1 JUMP JUMPDEST PUSH1 0x14 DUP2 DUP2 SLOAD DUP2 LT PUSH2 0x9D9 JUMPI PUSH0 DUP1 REVERT JUMPDEST PUSH0 SWAP2 DUP3 MSTORE PUSH1 0x20 SWAP1 SWAP2 KECCAK256 ADD SLOAD PUSH1 0x1 PUSH1 0x1 PUSH1 0xA0 SHL SUB AND SWAP1 POP DUP2 JUMP JUMPDEST PUSH1 0xA PUSH1 0x20 MSTORE DUP2 PUSH0 MSTORE PUSH1 0x40 PUSH0 KECCAK256 DUP2 DUP2 SLOAD DUP2 LT PUSH2 0xA0B JUMPI PUSH0 DUP1 REVERT JUMPDEST SWAP1 PUSH0 MSTORE PUSH1 0x20 PUSH0 KECCAK256 ADD PUSH0 SWAP2 POP SWAP2 POP POP SLOAD DUP2 JUMP JUMPDEST PUSH1 0x60 PUSH0 DUP1 PUSH1 0x60 DUP1 PUSH2 0xA2C PUSH2 0x1BC7 JUMP JUMPDEST SWAP5 POP PUSH2 0xA36 PUSH2 0x98D JUMP JUMPDEST SWAP4 POP PUSH2 0xA40 PUSH2 0x2BEA JUMP JUMPDEST SWAP3 POP PUSH2 0xA4A PUSH2 0x28EB JUMP JUMPDEST SWAP2 POP PUSH2 0xA54 PUSH2 0x33D7 JUMP JUMPDEST SWAP1 POP SWAP1 SWAP2 SWAP3 SWAP4 SWAP5 JUMP JUMPDEST PUSH1 0x60 PUSH0 PUSH2 0xA69 DUP5 PUSH2 0x34B1 JUMP JUMPDEST SWAP1 POP DUP1 DUP4 PUSH1 0x40 MLOAD PUSH1 0x20 ADD PUSH2 0xA7E SWAP3 SWAP2 SWAP1 PUSH2 0x4A38 JUMP JUMPDEST PUSH1 0x40 MLOAD PUSH1 0x20 DUP2 DUP4 SUB SUB DUP2 MSTORE SWAP1 PUSH1 0x40 MSTORE SWAP2 POP POP JUMPDEST SWAP3 SWAP2 POP POP JUMP JUMPDEST PUSH1 0x60 PUSH1 0xF DUP1 SLOAD DUP1 PUSH1 0x20 MUL PUSH1 0x20 ADD PUSH1 0x40 MLOAD SWAP1 DUP2 ADD PUSH1 0x40 MSTORE DUP1 SWAP3 SWAP2 SWAP1 DUP2 DUP2 MSTORE PUSH1 0x20 ADD PUSH0 SWAP1 JUMPDEST DUP3 DUP3 LT ISZERO PUSH2 0xB07 JUMPI DUP4 DUP3 SWAP1 PUSH0 MSTORE PUSH1 0x20 PUSH0 KECCAK256 SWAP1 PUSH1 0x3 MUL ADD PUSH1 0x40 MLOAD DUP1 PUSH1 0x60 ADD PUSH1 0x40 MSTORE SWAP1 DUP2 PUSH0 DUP3 ADD SLOAD DUP2 MSTORE PUSH1 0x20 ADD PUSH1 0x1 DUP3 ADD SLOAD DUP2 MSTORE PUSH1 0x20 ADD PUSH1 0x2 DUP3 ADD SLOAD DUP2 MSTORE POP POP DUP2 MSTORE PUSH1 0x20 ADD SWAP1 PUSH1 0x1 ADD SWAP1 PUSH2 0xABA JUMP JUMPDEST POP POP POP POP SWAP1 POP SWAP1 JUMP JUMPDEST PUSH0 DUP2 DUP2 MSTORE PUSH1 0xE PUSH1 0x20 MSTORE PUSH1 0x40 DUP2 KECCAK256 DUP1 SLOAD SWAP2 PUSH2 0xB29 DUP4 PUSH2 0x4ACC JUMP JUMPDEST SWAP1 SWAP2 SSTORE POP POP PUSH0 SWAP1 DUP2 MSTORE PUSH1 0xA PUSH1 0x20 SWAP1 DUP2 MSTORE PUSH1 0x40 DUP3 KECCAK256 DUP1 SLOAD PUSH1 0x1 DUP2 ADD DUP3 SSTORE SWAP1 DUP4 MSTORE SWAP2 KECCAK256 TIMESTAMP SWAP2 ADD SSTORE JUMP JUMPDEST PUSH0 DUP2 DUP2 MSTORE PUSH1 0xA PUSH1 0x20 SWAP1 DUP2 MSTORE PUSH1 0x40 SWAP2 DUP3 SWAP1 KECCAK256 DUP1 SLOAD DUP4 MLOAD DUP2 DUP5 MUL DUP2 ADD DUP5 ADD SWAP1 SWAP5 MSTORE DUP1 DUP5 MSTORE PUSH1 0x60 SWAP4 SWAP3 DUP4 ADD DUP3 DUP3 DUP1 ISZERO PUSH2 0xBA3 JUMPI PUSH1 0x20 MUL DUP3 ADD SWAP2 SWAP1 PUSH0 MSTORE PUSH1 0x20 PUSH0 KECCAK256 SWAP1 JUMPDEST DUP2 SLOAD DUP2 MSTORE PUSH1 0x20 ADD SWAP1 PUSH1 0x1 ADD SWAP1 DUP1 DUP4 GT PUSH2 0xB8F JUMPI JUMPDEST POP POP POP POP POP SWAP1 POP SWAP2 SWAP1 POP JUMP JUMPDEST PUSH1 0x11 DUP4 DUP4 PUSH1 0x40 MLOAD PUSH2 0xBC1 SWAP3 SWAP2 SWAP1 PUSH2 0x4AE4 JUMP JUMPDEST SWAP1 DUP2 MSTORE PUSH1 0x40 MLOAD PUSH1 0x20 SWAP2 DUP2 SWAP1 SUB DUP3 ADD SWAP1 KECCAK256 DUP1 SLOAD PUSH1 0x1 DUP1 DUP3 ADD DUP4 SSTORE PUSH0 SWAP3 DUP4 MSTORE SWAP2 DUP4 SWAP1 KECCAK256 DUP5 MLOAD PUSH1 0x2 SWAP1 SWAP3 MUL ADD SWAP1 DUP2 SSTORE SWAP3 SWAP1 SWAP2 ADD MLOAD SWAP2 ADD SSTORE POP POP JUMP JUMPDEST PUSH1 0xF DUP2 DUP2 SLOAD DUP2 LT PUSH2 0xC08 JUMPI PUSH0 DUP1 REVERT JUMPDEST PUSH0 SWAP2 DUP3 MSTORE PUSH1 0x20 SWAP1 SWAP2 KECCAK256 PUSH1 0x3 SWAP1 SWAP2 MUL ADD DUP1 SLOAD PUSH1 0x1 DUP3 ADD SLOAD PUSH1 0x2 SWAP1 SWAP3 ADD SLOAD SWAP1 SWAP3 POP DUP4 JUMP JUMPDEST PUSH1 0x15 SLOAD PUSH0 SWAP1 PUSH1 0x1 PUSH1 0x1 PUSH1 0xA0 SHL SUB AND CALLER DUP2 EQ PUSH2 0xC57 JUMPI PUSH1 0x40 MLOAD PUSH3 0x461BCD PUSH1 0xE5 SHL DUP2 MSTORE PUSH1 0x4 ADD PUSH2 0x9BB SWAP1 PUSH2 0x4AF3 JUMP JUMPDEST PUSH1 0x16 DUP1 SLOAD PUSH1 0x1 PUSH1 0x1 PUSH1 0xA0 SHL SUB NOT AND PUSH1 0x1 PUSH1 0x1 PUSH1 0xA0 SHL SUB DUP6 AND OR SWAP1 SSTORE PUSH1 0x1 SWAP2 POP JUMPDEST POP SWAP2 SWAP1 POP JUMP JUMPDEST CALLER PUSH0 SWAP1 DUP2 MSTORE PUSH1 0xD PUSH1 0x20 SWAP1 DUP2 MSTORE PUSH1 0x40 DUP1 DUP4 KECCAK256 DUP1 SLOAD DUP3 MLOAD DUP2 DUP6 MUL DUP2 ADD DUP6 ADD SWAP1 SWAP4 MSTORE DUP1 DUP4 MSTORE PUSH1 0x60 SWAP5 SWAP3 SWAP4 SWAP2 SWAP3 SWAP1 SWAP2 DUP5 ADD JUMPDEST DUP3 DUP3 LT ISZERO PUSH2 0xB07 JUMPI PUSH0 DUP5 DUP2 MSTORE PUSH1 0x20 SWAP1 DUP2 SWAP1 KECCAK256 PUSH1 0x40 DUP1 MLOAD PUSH1 0xA0 DUP2 ADD DUP3 MSTORE PUSH1 0x4 DUP7 MUL SWAP1 SWAP3 ADD DUP1 SLOAD PUSH1 0x1 PUSH1 0x1 PUSH1 0xA0 SHL SUB DUP2 AND DUP5 MSTORE PUSH1 0x1 PUSH1 0xA0 SHL SWAP1 DIV PUSH1 0xFF AND DUP4 DUP6 ADD MSTORE PUSH1 0x1 DUP2 ADD DUP1 SLOAD DUP4 MLOAD DUP2 DUP8 MUL DUP2 ADD DUP8 ADD DUP6 MSTORE DUP2 DUP2 MSTORE SWAP5 SWAP6 SWAP3 SWAP5 SWAP4 DUP7 ADD SWAP4 SWAP3 DUP4 ADD DUP3 DUP3 DUP1 ISZERO PUSH2 0xD34 JUMPI PUSH1 0x20 MUL DUP3 ADD SWAP2 SWAP1 PUSH0 MSTORE PUSH1 0x20 PUSH0 KECCAK256 SWAP1 JUMPDEST DUP2 SLOAD DUP2 MSTORE PUSH1 0x20 ADD SWAP1 PUSH1 0x1 ADD SWAP1 DUP1 DUP4 GT PUSH2 0xD20 JUMPI JUMPDEST POP POP POP POP POP DUP2 MSTORE PUSH1 0x20 ADD PUSH1 0x2 DUP3 ADD DUP1 SLOAD DUP1 PUSH1 0x20 MUL PUSH1 0x20 ADD PUSH1 0x40 MLOAD SWAP1 DUP2 ADD PUSH1 0x40 MSTORE DUP1 SWAP3 SWAP2 SWAP1 DUP2 DUP2 MSTORE PUSH1 0x20 ADD DUP3 DUP1 SLOAD DUP1 ISZERO PUSH2 0xD8A JUMPI PUSH1 0x20 MUL DUP3 ADD SWAP2 SWAP1 PUSH0 MSTORE PUSH1 0x20 PUSH0 KECCAK256 SWAP1 JUMPDEST DUP2 SLOAD DUP2 MSTORE PUSH1 0x20 ADD SWAP1 PUSH1 0x1 ADD SWAP1 DUP1 DUP4 GT PUSH2 0xD76 JUMPI JUMPDEST POP POP POP POP POP DUP2 MSTORE PUSH1 0x20 ADD PUSH1 0x3 DUP3 ADD DUP1 SLOAD DUP1 PUSH1 0x20 MUL PUSH1 0x20 ADD PUSH1 0x40 MLOAD SWAP1 DUP2 ADD PUSH1 0x40 MSTORE DUP1 SWAP3 SWAP2 SWAP1 DUP2 DUP2 MSTORE PUSH1 0x20 ADD DUP3 DUP1 SLOAD DUP1 ISZERO PUSH2 0xDE0 JUMPI PUSH1 0x20 MUL DUP3 ADD SWAP2 SWAP1 PUSH0 MSTORE PUSH1 0x20 PUSH0 KECCAK256 SWAP1 JUMPDEST DUP2 SLOAD DUP2 MSTORE PUSH1 0x20 ADD SWAP1 PUSH1 0x1 ADD SWAP1 DUP1 DUP4 GT PUSH2 0xDCC JUMPI JUMPDEST POP POP POP POP POP DUP2 MSTORE POP POP DUP2 MSTORE PUSH1 0x20 ADD SWAP1 PUSH1 0x1 ADD SWAP1 PUSH2 0xCAB JUMP JUMPDEST PUSH1 0x10 PUSH1 0x20 MSTORE DUP2 PUSH0 MSTORE PUSH1 0x40 PUSH0 KECCAK256 DUP2 DUP2 SLOAD DUP2 LT PUSH2 0xE11 JUMPI PUSH0 DUP1 REVERT JUMPDEST PUSH0 SWAP2 DUP3 MSTORE PUSH1 0x20 SWAP1 SWAP2 KECCAK256 PUSH1 0x2 SWAP1 SWAP2 MUL ADD DUP1 SLOAD PUSH1 0x1 SWAP1 SWAP2 ADD SLOAD SWAP1 SWAP3 POP SWAP1 POP DUP3 JUMP JUMPDEST PUSH1 0x12 DUP2 DUP2 SLOAD DUP2 LT PUSH2 0xE3F JUMPI PUSH0 DUP1 REVERT JUMPDEST PUSH0 SWAP2 DUP3 MSTORE PUSH1 0x20 SWAP1 SWAP2 KECCAK256 ADD SLOAD SWAP1 POP DUP2 JUMP JUMPDEST PUSH0 DUP1 JUMPDEST PUSH1 0x1 PUSH1 0x1 PUSH1 0xA0 SHL SUB DUP5 AND PUSH0 SWAP1 DUP2 MSTORE PUSH1 0x10 PUSH1 0x20 MSTORE PUSH1 0x40 SWAP1 KECCAK256 SLOAD PUSH1 0xFF DUP3 AND LT ISZERO PUSH2 0xF14 JUMPI PUSH1 0x1 PUSH1 0x1 PUSH1 0xA0 SHL SUB DUP5 AND PUSH0 SWAP1 DUP2 MSTORE PUSH1 0x10 PUSH1 0x20 MSTORE PUSH1 0x40 SWAP1 KECCAK256 DUP1 SLOAD DUP5 SWAP2 SWAP1 PUSH1 0xFF DUP5 AND SWAP1 DUP2 LT PUSH2 0xEA3 JUMPI PUSH2 0xEA3 PUSH2 0x4B62 JUMP JUMPDEST SWAP1 PUSH0 MSTORE PUSH1 0x20 PUSH0 KECCAK256 SWAP1 PUSH1 0x2 MUL ADD PUSH0 ADD SLOAD SUB PUSH2 0xF02 JUMPI PUSH1 0x1 PUSH1 0x1 PUSH1 0xA0 SHL SUB DUP5 AND PUSH0 SWAP1 DUP2 MSTORE PUSH1 0x10 PUSH1 0x20 MSTORE PUSH1 0x40 SWAP1 KECCAK256 DUP1 SLOAD TIMESTAMP SWAP2 SWAP1 PUSH1 0xFF DUP5 AND SWAP1 DUP2 LT PUSH2 0xEE6 JUMPI PUSH2 0xEE6 PUSH2 0x4B62 JUMP JUMPDEST SWAP1 PUSH0 MSTORE PUSH1 0x20 PUSH0 KECCAK256 SWAP1 PUSH1 0x2 MUL ADD PUSH1 0x1 ADD DUP2 SWAP1 SSTORE POP PUSH1 0x1 SWAP2 POP PUSH2 0xF14 JUMP JUMPDEST DUP1 PUSH2 0xF0C DUP2 PUSH2 0x4B76 JUMP JUMPDEST SWAP2 POP POP PUSH2 0xE52 JUMP JUMPDEST POP DUP1 PUSH2 0xF66 JUMPI PUSH1 0x40 DUP1 MLOAD DUP1 DUP3 ADD DUP3 MSTORE DUP4 DUP2 MSTORE TIMESTAMP PUSH1 0x20 DUP1 DUP4 ADD SWAP2 DUP3 MSTORE PUSH1 0x1 PUSH1 0x1 PUSH1 0xA0 SHL SUB DUP8 AND PUSH0 SWAP1 DUP2 MSTORE PUSH1 0x10 DUP3 MSTORE SWAP4 DUP5 KECCAK256 DUP1 SLOAD PUSH1 0x1 DUP2 DUP2 ADD DUP4 SSTORE SWAP2 DUP7 MSTORE SWAP2 SWAP1 SWAP5 KECCAK256 SWAP3 MLOAD PUSH1 0x2 SWAP1 SWAP2 MUL SWAP1 SWAP3 ADD SWAP2 DUP3 SSTORE MLOAD SWAP2 ADD SSTORE JUMPDEST POP POP PUSH1 0x12 DUP1 SLOAD PUSH1 0x1 DUP2 ADD DUP3 SSTORE PUSH0 SWAP2 SWAP1 SWAP2 MSTORE TIMESTAMP PUSH32 0xBB8A6A4669BA250D26CD7A459ECA9D215F8307E33AEBE50379BC5A3617EC3444 SWAP1 SWAP2 ADD SSTORE POP JUMP JUMPDEST PUSH1 0x15 SLOAD PUSH0 SWAP1 PUSH1 0x1 PUSH1 0x1 PUSH1 0xA0 SHL SUB AND CALLER DUP2 EQ PUSH2 0xFCD JUMPI PUSH1 0x40 MLOAD PUSH3 0x461BCD PUSH1 0xE5 SHL DUP2 MSTORE PUSH1 0x4 ADD PUSH2 0x9BB SWAP1 PUSH2 0x4AF3 JUMP JUMPDEST PUSH1 0x17 DUP1 SLOAD PUSH1 0x1 PUSH1 0x1 PUSH1 0xA0 SHL SUB DUP6 AND PUSH1 0x1 PUSH1 0x1 PUSH1 0xA0 SHL SUB NOT SWAP1 SWAP2 AND OR SWAP1 SSTORE PUSH1 0x1 SWAP2 POP POP SWAP2 SWAP1 POP JUMP JUMPDEST PUSH1 0x8 SLOAD PUSH0 SWAP1 DUP2 SWAP1 PUSH1 0x1 PUSH1 0x1 PUSH1 0x40 SHL SUB DUP2 GT ISZERO PUSH2 0x1012 JUMPI PUSH2 0x1012 PUSH2 0x3F69 JUMP JUMPDEST PUSH1 0x40 MLOAD SWAP1 DUP1 DUP3 MSTORE DUP1 PUSH1 0x20 MUL PUSH1 0x20 ADD DUP3 ADD PUSH1 0x40 MSTORE DUP1 ISZERO PUSH2 0x103B JUMPI DUP2 PUSH1 0x20 ADD PUSH1 0x20 DUP3 MUL DUP1 CALLDATASIZE DUP4 CALLDATACOPY ADD SWAP1 POP JUMPDEST POP SWAP1 POP PUSH0 JUMPDEST PUSH1 0x8 SLOAD DUP2 LT ISZERO PUSH2 0x1389 JUMPI PUSH2 0x10FB PUSH1 0x8 DUP3 DUP2 SLOAD DUP2 LT PUSH2 0x1060 JUMPI PUSH2 0x1060 PUSH2 0x4B62 JUMP JUMPDEST SWAP1 PUSH0 MSTORE PUSH1 0x20 PUSH0 KECCAK256 SWAP1 PUSH1 0x6 MUL ADD PUSH0 ADD DUP1 SLOAD PUSH2 0x1079 SWAP1 PUSH2 0x4B94 JUMP JUMPDEST DUP1 PUSH1 0x1F ADD PUSH1 0x20 DUP1 SWAP2 DIV MUL PUSH1 0x20 ADD PUSH1 0x40 MLOAD SWAP1 DUP2 ADD PUSH1 0x40 MSTORE DUP1 SWAP3 SWAP2 SWAP1 DUP2 DUP2 MSTORE PUSH1 0x20 ADD DUP3 DUP1 SLOAD PUSH2 0x10A5 SWAP1 PUSH2 0x4B94 JUMP JUMPDEST DUP1 ISZERO PUSH2 0x10F0 JUMPI DUP1 PUSH1 0x1F LT PUSH2 0x10C7 JUMPI PUSH2 0x100 DUP1 DUP4 SLOAD DIV MUL DUP4 MSTORE SWAP2 PUSH1 0x20 ADD SWAP2 PUSH2 0x10F0 JUMP JUMPDEST DUP3 ADD SWAP2 SWAP1 PUSH0 MSTORE PUSH1 0x20 PUSH0 KECCAK256 SWAP1 JUMPDEST DUP2 SLOAD DUP2 MSTORE SWAP1 PUSH1 0x1 ADD SWAP1 PUSH1 0x20 ADD DUP1 DUP4 GT PUSH2 0x10D3 JUMPI DUP3 SWAP1 SUB PUSH1 0x1F AND DUP3 ADD SWAP2 JUMPDEST POP POP POP POP POP DUP6 PUSH2 0x3540 JUMP JUMPDEST ISZERO PUSH2 0x1381 JUMPI PUSH1 0x8 DUP2 DUP2 SLOAD DUP2 LT PUSH2 0x1113 JUMPI PUSH2 0x1113 PUSH2 0x4B62 JUMP JUMPDEST PUSH0 SWAP2 DUP3 MSTORE PUSH1 0x20 DUP3 KECCAK256 PUSH1 0x4 PUSH1 0x6 SWAP1 SWAP3 MUL ADD ADD SLOAD SWAP4 POP JUMPDEST DUP4 DUP2 LT ISZERO PUSH2 0x1220 JUMPI PUSH1 0x17 SLOAD PUSH1 0x8 DUP1 SLOAD PUSH0 SWAP3 PUSH1 0x1 PUSH1 0x1 PUSH1 0xA0 SHL SUB AND SWAP2 PUSH4 0xB9DB15B4 SWAP2 DUP7 SWAP1 DUP2 LT PUSH2 0x1159 JUMPI PUSH2 0x1159 PUSH2 0x4B62 JUMP JUMPDEST SWAP1 PUSH0 MSTORE PUSH1 0x20 PUSH0 KECCAK256 SWAP1 PUSH1 0x6 MUL ADD PUSH1 0x4 ADD DUP5 DUP2 SLOAD DUP2 LT PUSH2 0x1179 JUMPI PUSH2 0x1179 PUSH2 0x4B62 JUMP JUMPDEST SWAP1 PUSH0 MSTORE PUSH1 0x20 PUSH0 KECCAK256 ADD SLOAD PUSH1 0x40 MLOAD DUP3 PUSH4 0xFFFFFFFF AND PUSH1 0xE0 SHL DUP2 MSTORE PUSH1 0x4 ADD PUSH2 0x11A0 SWAP2 DUP2 MSTORE PUSH1 0x20 ADD SWAP1 JUMP JUMPDEST PUSH0 PUSH1 0x40 MLOAD DUP1 DUP4 SUB DUP2 DUP7 GAS STATICCALL ISZERO DUP1 ISZERO PUSH2 0x11BA JUMPI RETURNDATASIZE PUSH0 DUP1 RETURNDATACOPY RETURNDATASIZE PUSH0 REVERT JUMPDEST POP POP POP POP PUSH1 0x40 MLOAD RETURNDATASIZE PUSH0 DUP3 RETURNDATACOPY PUSH1 0x1F RETURNDATASIZE SWAP1 DUP2 ADD PUSH1 0x1F NOT AND DUP3 ADD PUSH1 0x40 MSTORE PUSH2 0x11E1 SWAP2 SWAP1 DUP2 ADD SWAP1 PUSH2 0x4FD1 JUMP JUMPDEST SWAP1 POP DUP1 PUSH1 0x20 ADD MLOAD PUSH2 0x180 ADD MLOAD DUP5 DUP4 DUP2 MLOAD DUP2 LT PUSH2 0x11FF JUMPI PUSH2 0x11FF PUSH2 0x4B62 JUMP JUMPDEST PUSH1 0x1 PUSH1 0x1 PUSH1 0xA0 SHL SUB SWAP1 SWAP3 AND PUSH1 0x20 SWAP3 DUP4 MUL SWAP2 SWAP1 SWAP2 ADD SWAP1 SWAP2 ADD MSTORE POP PUSH1 0x1 ADD PUSH2 0x1128 JUMP JUMPDEST POP PUSH1 0x8 DUP1 SLOAD PUSH2 0x1231 SWAP1 PUSH1 0x1 SWAP1 PUSH2 0x5002 JUMP JUMPDEST DUP2 SLOAD DUP2 LT PUSH2 0x1241 JUMPI PUSH2 0x1241 PUSH2 0x4B62 JUMP JUMPDEST SWAP1 PUSH0 MSTORE PUSH1 0x20 PUSH0 KECCAK256 SWAP1 PUSH1 0x6 MUL ADD PUSH1 0x8 DUP3 DUP2 SLOAD DUP2 LT PUSH2 0x1260 JUMPI PUSH2 0x1260 PUSH2 0x4B62 JUMP JUMPDEST PUSH0 SWAP2 DUP3 MSTORE PUSH1 0x20 SWAP1 SWAP2 KECCAK256 PUSH1 0x6 SWAP1 SWAP2 MUL ADD DUP1 PUSH2 0x127A DUP4 DUP3 PUSH2 0x505E JUMP JUMPDEST POP PUSH1 0x1 DUP3 DUP2 ADD DUP1 SLOAD SWAP2 DUP4 ADD DUP1 SLOAD PUSH1 0xFF NOT DUP2 AND PUSH1 0xFF SWAP1 SWAP5 AND SWAP4 DUP5 OR DUP3 SSTORE SWAP2 SLOAD PUSH1 0x1 PUSH1 0x1 PUSH1 0xA0 SHL SUB PUSH2 0x100 SWAP2 DUP3 SWAP1 DIV AND MUL PUSH1 0x1 PUSH1 0x1 PUSH1 0xA8 SHL SUB NOT SWAP1 SWAP3 AND SWAP1 SWAP3 OR OR SWAP1 SSTORE PUSH1 0x2 DUP1 DUP3 ADD SWAP1 PUSH2 0x12CD SWAP1 DUP5 ADD DUP3 PUSH2 0x505E JUMP JUMPDEST POP PUSH1 0x3 DUP3 ADD SLOAD DUP2 PUSH1 0x3 ADD SSTORE PUSH1 0x4 DUP3 ADD DUP2 PUSH1 0x4 ADD SWAP1 DUP1 SLOAD PUSH2 0x12EE SWAP3 SWAP2 SWAP1 PUSH2 0x3BA9 JUMP JUMPDEST POP PUSH1 0x5 DUP3 DUP2 ADD DUP1 SLOAD PUSH2 0x1303 SWAP3 DUP5 ADD SWAP2 SWAP1 PUSH2 0x3BA9 JUMP JUMPDEST POP SWAP1 POP POP PUSH1 0x8 DUP1 SLOAD DUP1 PUSH2 0x1318 JUMPI PUSH2 0x1318 PUSH2 0x5135 JUMP JUMPDEST PUSH0 DUP3 DUP2 MSTORE PUSH1 0x20 DUP2 KECCAK256 PUSH0 NOT SWAP1 SWAP3 ADD SWAP2 PUSH1 0x6 DUP4 MUL ADD SWAP1 PUSH2 0x1336 DUP3 DUP3 PUSH2 0x3BF5 JUMP JUMPDEST PUSH1 0x1 DUP3 ADD DUP1 SLOAD PUSH1 0x1 PUSH1 0x1 PUSH1 0xA8 SHL SUB NOT AND SWAP1 SSTORE PUSH2 0x1355 PUSH1 0x2 DUP4 ADD PUSH0 PUSH2 0x3BF5 JUMP JUMPDEST PUSH1 0x3 DUP3 ADD PUSH0 SWAP1 SSTORE PUSH1 0x4 DUP3 ADD PUSH0 PUSH2 0x136B SWAP2 SWAP1 PUSH2 0x3C2F JUMP JUMPDEST PUSH2 0x1378 PUSH1 0x5 DUP4 ADD PUSH0 PUSH2 0x3C2F JUMP JUMPDEST POP POP SWAP1 SSTORE PUSH2 0x1389 JUMP JUMPDEST PUSH1 0x1 ADD PUSH2 0x1040 JUMP JUMPDEST POP PUSH0 JUMPDEST DUP2 MLOAD DUP2 LT ISZERO PUSH2 0x15FF JUMPI PUSH0 DUP3 DUP3 DUP2 MLOAD DUP2 LT PUSH2 0x13A8 JUMPI PUSH2 0x13A8 PUSH2 0x4B62 JUMP JUMPDEST PUSH1 0x20 SWAP1 DUP2 MUL SWAP2 SWAP1 SWAP2 ADD DUP2 ADD MLOAD PUSH1 0x1 PUSH1 0x1 PUSH1 0xA0 SHL SUB DUP2 AND PUSH0 SWAP1 DUP2 MSTORE PUSH1 0x9 SWAP1 SWAP3 MSTORE PUSH1 0x40 DUP3 KECCAK256 SWAP1 SWAP3 POP SWAP1 JUMPDEST DUP2 SLOAD DUP2 LT ISZERO PUSH2 0x15F4 JUMPI PUSH2 0x1489 DUP3 DUP3 DUP2 SLOAD DUP2 LT PUSH2 0x13EE JUMPI PUSH2 0x13EE PUSH2 0x4B62 JUMP JUMPDEST SWAP1 PUSH0 MSTORE PUSH1 0x20 PUSH0 KECCAK256 SWAP1 PUSH1 0x6 MUL ADD PUSH0 ADD DUP1 SLOAD PUSH2 0x1407 SWAP1 PUSH2 0x4B94 JUMP JUMPDEST DUP1 PUSH1 0x1F ADD PUSH1 0x20 DUP1 SWAP2 DIV MUL PUSH1 0x20 ADD PUSH1 0x40 MLOAD SWAP1 DUP2 ADD PUSH1 0x40 MSTORE DUP1 SWAP3 SWAP2 SWAP1 DUP2 DUP2 MSTORE PUSH1 0x20 ADD DUP3 DUP1 SLOAD PUSH2 0x1433 SWAP1 PUSH2 0x4B94 JUMP JUMPDEST DUP1 ISZERO PUSH2 0x147E JUMPI DUP1 PUSH1 0x1F LT PUSH2 0x1455 JUMPI PUSH2 0x100 DUP1 DUP4 SLOAD DIV MUL DUP4 MSTORE SWAP2 PUSH1 0x20 ADD SWAP2 PUSH2 0x147E JUMP JUMPDEST DUP3 ADD SWAP2 SWAP1 PUSH0 MSTORE PUSH1 0x20 PUSH0 KECCAK256 SWAP1 JUMPDEST DUP2 SLOAD DUP2 MSTORE SWAP1 PUSH1 0x1 ADD SWAP1 PUSH1 0x20 ADD DUP1 DUP4 GT PUSH2 0x1461 JUMPI DUP3 SWAP1 SUB PUSH1 0x1F AND DUP3 ADD SWAP2 JUMPDEST POP POP POP POP POP DUP9 PUSH2 0x3540 JUMP JUMPDEST ISZERO PUSH2 0x15EC JUMPI DUP2 SLOAD DUP3 SWAP1 PUSH2 0x149E SWAP1 PUSH1 0x1 SWAP1 PUSH2 0x5002 JUMP JUMPDEST DUP2 SLOAD DUP2 LT PUSH2 0x14AE JUMPI PUSH2 0x14AE PUSH2 0x4B62 JUMP JUMPDEST SWAP1 PUSH0 MSTORE PUSH1 0x20 PUSH0 KECCAK256 SWAP1 PUSH1 0x6 MUL ADD DUP3 DUP3 DUP2 SLOAD DUP2 LT PUSH2 0x14CC JUMPI PUSH2 0x14CC PUSH2 0x4B62 JUMP JUMPDEST PUSH0 SWAP2 DUP3 MSTORE PUSH1 0x20 SWAP1 SWAP2 KECCAK256 PUSH1 0x6 SWAP1 SWAP2 MUL ADD DUP1 PUSH2 0x14E6 DUP4 DUP3 PUSH2 0x505E JUMP JUMPDEST POP PUSH1 0x1 DUP3 DUP2 ADD DUP1 SLOAD SWAP2 DUP4 ADD DUP1 SLOAD PUSH1 0xFF NOT DUP2 AND PUSH1 0xFF SWAP1 SWAP5 AND SWAP4 DUP5 OR DUP3 SSTORE SWAP2 SLOAD PUSH1 0x1 PUSH1 0x1 PUSH1 0xA0 SHL SUB PUSH2 0x100 SWAP2 DUP3 SWAP1 DIV AND MUL PUSH1 0x1 PUSH1 0x1 PUSH1 0xA8 SHL SUB NOT SWAP1 SWAP3 AND SWAP1 SWAP3 OR OR SWAP1 SSTORE PUSH1 0x2 DUP1 DUP3 ADD SWAP1 PUSH2 0x1539 SWAP1 DUP5 ADD DUP3 PUSH2 0x505E JUMP JUMPDEST POP PUSH1 0x3 DUP3 ADD SLOAD DUP2 PUSH1 0x3 ADD SSTORE PUSH1 0x4 DUP3 ADD DUP2 PUSH1 0x4 ADD SWAP1 DUP1 SLOAD PUSH2 0x155A SWAP3 SWAP2 SWAP1 PUSH2 0x3BA9 JUMP JUMPDEST POP PUSH1 0x5 DUP3 DUP2 ADD DUP1 SLOAD PUSH2 0x156F SWAP3 DUP5 ADD SWAP2 SWAP1 PUSH2 0x3BA9 JUMP JUMPDEST POP SWAP1 POP POP DUP2 DUP1 SLOAD DUP1 PUSH2 0x1583 JUMPI PUSH2 0x1583 PUSH2 0x5135 JUMP JUMPDEST PUSH0 DUP3 DUP2 MSTORE PUSH1 0x20 DUP2 KECCAK256 PUSH0 NOT SWAP1 SWAP3 ADD SWAP2 PUSH1 0x6 DUP4 MUL ADD SWAP1 PUSH2 0x15A1 DUP3 DUP3 PUSH2 0x3BF5 JUMP JUMPDEST PUSH1 0x1 DUP3 ADD DUP1 SLOAD PUSH1 0x1 PUSH1 0x1 PUSH1 0xA8 SHL SUB NOT AND SWAP1 SSTORE PUSH2 0x15C0 PUSH1 0x2 DUP4 ADD PUSH0 PUSH2 0x3BF5 JUMP JUMPDEST PUSH1 0x3 DUP3 ADD PUSH0 SWAP1 SSTORE PUSH1 0x4 DUP3 ADD PUSH0 PUSH2 0x15D6 SWAP2 SWAP1 PUSH2 0x3C2F JUMP JUMPDEST PUSH2 0x15E3 PUSH1 0x5 DUP4 ADD PUSH0 PUSH2 0x3C2F JUMP JUMPDEST POP POP SWAP1 SSTORE PUSH2 0x15F4 JUMP JUMPDEST PUSH1 0x1 ADD PUSH2 0x13D0 JUMP JUMPDEST POP POP POP PUSH1 0x1 ADD PUSH2 0x138C JUMP JUMPDEST POP POP POP POP JUMP JUMPDEST CALLER PUSH0 SWAP1 DUP2 MSTORE PUSH1 0x13 PUSH1 0x20 MSTORE PUSH1 0x40 DUP2 KECCAK256 SLOAD DUP2 SWAP1 DUP2 SWAP1 PUSH1 0xFF AND PUSH2 0x1637 JUMPI PUSH1 0x40 MLOAD PUSH3 0x461BCD PUSH1 0xE5 SHL DUP2 MSTORE PUSH1 0x4 ADD PUSH2 0x9BB SWAP1 PUSH2 0x49B2 JUMP JUMPDEST POP POP PUSH1 0x3 SLOAD PUSH1 0x4 SLOAD PUSH1 0x5 SLOAD SWAP2 SWAP4 SWAP1 SWAP3 POP JUMP JUMPDEST PUSH0 PUSH1 0x4 SLOAD GT PUSH2 0x1671 PUSH1 0x1 PUSH1 0x40 MLOAD DUP1 PUSH1 0x60 ADD PUSH1 0x40 MSTORE DUP1 PUSH1 0x23 DUP2 MSTORE PUSH1 0x20 ADD PUSH2 0x5BF9 PUSH1 0x23 SWAP2 CODECOPY PUSH2 0xA5D JUMP JUMPDEST SWAP1 PUSH2 0x168F JUMPI PUSH1 0x40 MLOAD PUSH3 0x461BCD PUSH1 0xE5 SHL DUP2 MSTORE PUSH1 0x4 ADD PUSH2 0x9BB SWAP2 SWAP1 PUSH2 0x415F JUMP JUMPDEST POP PUSH1 0x4 DUP1 SLOAD SWAP1 PUSH0 PUSH2 0x169F DUP4 PUSH2 0x5149 JUMP JUMPDEST SWAP2 SWAP1 POP SSTORE POP JUMP JUMPDEST PUSH1 0x15 SLOAD PUSH0 SWAP1 PUSH1 0x1 PUSH1 0x1 PUSH1 0xA0 SHL SUB AND CALLER DUP2 EQ PUSH2 0x16D3 JUMPI PUSH1 0x40 MLOAD PUSH3 0x461BCD PUSH1 0xE5 SHL DUP2 MSTORE PUSH1 0x4 ADD PUSH2 0x9BB SWAP1 PUSH2 0x4AF3 JUMP JUMPDEST POP POP PUSH1 0x1 PUSH1 0x1 PUSH1 0xA0 SHL SUB AND PUSH0 DUP2 DUP2 MSTORE PUSH1 0x13 PUSH1 0x20 MSTORE PUSH1 0x40 DUP2 KECCAK256 DUP1 SLOAD PUSH1 0xFF NOT AND PUSH1 0x1 SWAP1 DUP2 OR SWAP1 SWAP2 SSTORE PUSH1 0x14 DUP1 SLOAD DUP1 DUP4 ADD DUP3 SSTORE SWAP3 MSTORE PUSH32 0xCE6D7B5282BD9A3661AE061FEED1DBDA4E52AB073B1F9285BE6E155D9C38D4EC SWAP1 SWAP2 ADD DUP1 SLOAD PUSH1 0x1 PUSH1 0x1 PUSH1 0xA0 SHL SUB NOT AND SWAP1 SWAP3 OR SWAP1 SWAP2 SSTORE SWAP1 JUMP JUMPDEST PUSH0 DUP2 DUP2 MSTORE PUSH1 0xB PUSH1 0x20 SWAP1 DUP2 MSTORE PUSH1 0x40 SWAP2 DUP3 SWAP1 KECCAK256 DUP1 SLOAD DUP4 MLOAD DUP2 DUP5 MUL DUP2 ADD DUP5 ADD SWAP1 SWAP5 MSTORE DUP1 DUP5 MSTORE PUSH1 0x60 SWAP4 SWAP3 DUP4 ADD DUP3 DUP3 DUP1 ISZERO PUSH2 0xBA3 JUMPI PUSH1 0x20 MUL DUP3 ADD SWAP2 SWAP1 PUSH0 MSTORE PUSH1 0x20 PUSH0 KECCAK256 SWAP1 DUP2 SLOAD DUP2 MSTORE PUSH1 0x20 ADD SWAP1 PUSH1 0x1 ADD SWAP1 DUP1 DUP4 GT PUSH2 0xB8F JUMPI POP POP POP POP POP SWAP1 POP SWAP2 SWAP1 POP JUMP JUMPDEST PUSH1 0x60 DUP1 PUSH1 0x60 PUSH0 PUSH1 0x17 PUSH0 SWAP1 SLOAD SWAP1 PUSH2 0x100 EXP SWAP1 DIV PUSH1 0x1 PUSH1 0x1 PUSH1 0xA0 SHL SUB AND PUSH1 0x1 PUSH1 0x1 PUSH1 0xA0 SHL SUB AND PUSH4 0xC29B2F20 PUSH1 0x40 MLOAD DUP2 PUSH4 0xFFFFFFFF AND PUSH1 0xE0 SHL DUP2 MSTORE PUSH1 0x4 ADD PUSH0 PUSH1 0x40 MLOAD DUP1 DUP4 SUB DUP2 DUP7 GAS STATICCALL ISZERO DUP1 ISZERO PUSH2 0x17EF JUMPI RETURNDATASIZE PUSH0 DUP1 RETURNDATACOPY RETURNDATASIZE PUSH0 REVERT JUMPDEST POP POP POP POP PUSH1 0x40 MLOAD RETURNDATASIZE PUSH0 DUP3 RETURNDATACOPY PUSH1 0x1F RETURNDATASIZE SWAP1 DUP2 ADD PUSH1 0x1F NOT AND DUP3 ADD PUSH1 0x40 MSTORE PUSH2 0x1816 SWAP2 SWAP1 DUP2 ADD SWAP1 PUSH2 0x515E JUMP JUMPDEST SWAP1 POP PUSH0 DUP2 MLOAD PUSH1 0x1 PUSH1 0x1 PUSH1 0x40 SHL SUB DUP2 GT ISZERO PUSH2 0x1832 JUMPI PUSH2 0x1832 PUSH2 0x3F69 JUMP JUMPDEST PUSH1 0x40 MLOAD SWAP1 DUP1 DUP3 MSTORE DUP1 PUSH1 0x20 MUL PUSH1 0x20 ADD DUP3 ADD PUSH1 0x40 MSTORE DUP1 ISZERO PUSH2 0x185B JUMPI DUP2 PUSH1 0x20 ADD PUSH1 0x20 DUP3 MUL DUP1 CALLDATASIZE DUP4 CALLDATACOPY ADD SWAP1 POP JUMPDEST POP SWAP1 POP PUSH0 DUP3 MLOAD PUSH1 0x1 PUSH1 0x1 PUSH1 0x40 SHL SUB DUP2 GT ISZERO PUSH2 0x1878 JUMPI PUSH2 0x1878 PUSH2 0x3F69 JUMP JUMPDEST PUSH1 0x40 MLOAD SWAP1 DUP1 DUP3 MSTORE DUP1 PUSH1 0x20 MUL PUSH1 0x20 ADD DUP3 ADD PUSH1 0x40 MSTORE DUP1 ISZERO PUSH2 0x18A1 JUMPI DUP2 PUSH1 0x20 ADD PUSH1 0x20 DUP3 MUL DUP1 CALLDATASIZE DUP4 CALLDATACOPY ADD SWAP1 POP JUMPDEST POP SWAP1 POP DUP3 MLOAD PUSH1 0x1 PUSH1 0x1 PUSH1 0x40 SHL SUB DUP2 GT ISZERO PUSH2 0x18BD JUMPI PUSH2 0x18BD PUSH2 0x3F69 JUMP JUMPDEST PUSH1 0x40 MLOAD SWAP1 DUP1 DUP3 MSTORE DUP1 PUSH1 0x20 MUL PUSH1 0x20 ADD DUP3 ADD PUSH1 0x40 MSTORE DUP1 ISZERO PUSH2 0x18E6 JUMPI DUP2 PUSH1 0x20 ADD PUSH1 0x20 DUP3 MUL DUP1 CALLDATASIZE DUP4 CALLDATACOPY ADD SWAP1 POP JUMPDEST POP SWAP4 POP PUSH0 JUMPDEST DUP4 MLOAD DUP2 LT ISZERO PUSH2 0x1A81 JUMPI DUP4 DUP2 DUP2 MLOAD DUP2 LT PUSH2 0x1906 JUMPI PUSH2 0x1906 PUSH2 0x4B62 JUMP JUMPDEST PUSH1 0x20 MUL PUSH1 0x20 ADD ADD MLOAD PUSH0 ADD MLOAD DUP4 DUP3 DUP2 MLOAD DUP2 LT PUSH2 0x1923 JUMPI PUSH2 0x1923 PUSH2 0x4B62 JUMP JUMPDEST PUSH1 0x20 MUL PUSH1 0x20 ADD ADD DUP2 DUP2 MSTORE POP POP PUSH1 0xE PUSH0 DUP6 DUP4 DUP2 MLOAD DUP2 LT PUSH2 0x1944 JUMPI PUSH2 0x1944 PUSH2 0x4B62 JUMP JUMPDEST PUSH1 0x20 MUL PUSH1 0x20 ADD ADD MLOAD PUSH0 ADD MLOAD DUP2 MSTORE PUSH1 0x20 ADD SWAP1 DUP2 MSTORE PUSH1 0x20 ADD PUSH0 KECCAK256 SLOAD DUP3 DUP3 DUP2 MLOAD DUP2 LT PUSH2 0x196F JUMPI PUSH2 0x196F PUSH2 0x4B62 JUMP JUMPDEST PUSH1 0x20 MUL PUSH1 0x20 ADD ADD DUP2 DUP2 MSTORE POP POP PUSH0 PUSH1 0xA PUSH0 DUP7 DUP5 DUP2 MLOAD DUP2 LT PUSH2 0x1991 JUMPI PUSH2 0x1991 PUSH2 0x4B62 JUMP JUMPDEST PUSH1 0x20 MUL PUSH1 0x20 ADD ADD MLOAD PUSH0 ADD MLOAD DUP2 MSTORE PUSH1 0x20 ADD SWAP1 DUP2 MSTORE PUSH1 0x20 ADD PUSH0 KECCAK256 DUP1 SLOAD SWAP1 POP GT ISZERO PUSH2 0x1A59 JUMPI PUSH1 0xA PUSH0 DUP6 DUP4 DUP2 MLOAD DUP2 LT PUSH2 0x19C8 JUMPI PUSH2 0x19C8 PUSH2 0x4B62 JUMP JUMPDEST PUSH1 0x20 MUL PUSH1 0x20 ADD ADD MLOAD PUSH0 ADD MLOAD DUP2 MSTORE PUSH1 0x20 ADD SWAP1 DUP2 MSTORE PUSH1 0x20 ADD PUSH0 KECCAK256 PUSH1 0x1 PUSH1 0xA PUSH0 DUP8 DUP6 DUP2 MLOAD DUP2 LT PUSH2 0x19F7 JUMPI PUSH2 0x19F7 PUSH2 0x4B62 JUMP JUMPDEST PUSH1 0x20 MUL PUSH1 0x20 ADD ADD MLOAD PUSH0 ADD MLOAD DUP2 MSTORE PUSH1 0x20 ADD SWAP1 DUP2 MSTORE PUSH1 0x20 ADD PUSH0 KECCAK256 DUP1 SLOAD SWAP1 POP PUSH2 0x1A1D SWAP2 SWAP1 PUSH2 0x5002 JUMP JUMPDEST DUP2 SLOAD DUP2 LT PUSH2 0x1A2D JUMPI PUSH2 0x1A2D PUSH2 0x4B62 JUMP JUMPDEST SWAP1 PUSH0 MSTORE PUSH1 0x20 PUSH0 KECCAK256 ADD SLOAD DUP6 DUP3 DUP2 MLOAD DUP2 LT PUSH2 0x1A48 JUMPI PUSH2 0x1A48 PUSH2 0x4B62 JUMP JUMPDEST PUSH1 0x20 MUL PUSH1 0x20 ADD ADD DUP2 DUP2 MSTORE POP POP PUSH2 0x1A79 JUMP JUMPDEST PUSH0 DUP6 DUP3 DUP2 MLOAD DUP2 LT PUSH2 0x1A6C JUMPI PUSH2 0x1A6C PUSH2 0x4B62 JUMP JUMPDEST PUSH1 0x20 MUL PUSH1 0x20 ADD ADD DUP2 DUP2 MSTORE POP POP JUMPDEST PUSH1 0x1 ADD PUSH2 0x18EB JUMP JUMPDEST POP SWAP1 SWAP6 SWAP1 SWAP5 POP SWAP2 SWAP3 POP POP JUMP JUMPDEST PUSH0 DUP1 JUMPDEST PUSH1 0xF SLOAD PUSH1 0xFF DUP3 AND LT ISZERO PUSH2 0x1B1B JUMPI DUP3 PUSH1 0xF DUP3 PUSH1 0xFF AND DUP2 SLOAD DUP2 LT PUSH2 0x1AB4 JUMPI PUSH2 0x1AB4 PUSH2 0x4B62 JUMP JUMPDEST SWAP1 PUSH0 MSTORE PUSH1 0x20 PUSH0 KECCAK256 SWAP1 PUSH1 0x3 MUL ADD PUSH0 ADD SLOAD SUB PUSH2 0x1B09 JUMPI PUSH1 0xF DUP2 PUSH1 0xFF AND DUP2 SLOAD DUP2 LT PUSH2 0x1ADE JUMPI PUSH2 0x1ADE PUSH2 0x4B62 JUMP JUMPDEST PUSH0 SWAP2 DUP3 MSTORE PUSH1 0x20 DUP3 KECCAK256 PUSH1 0x1 PUSH1 0x3 SWAP1 SWAP3 MUL ADD ADD DUP1 SLOAD SWAP2 PUSH2 0x1AFB DUP4 PUSH2 0x4ACC JUMP JUMPDEST SWAP2 SWAP1 POP SSTORE POP PUSH1 0x1 SWAP2 POP PUSH2 0x1B1B JUMP JUMPDEST DUP1 PUSH2 0x1B13 DUP2 PUSH2 0x4B76 JUMP JUMPDEST SWAP2 POP POP PUSH2 0x1A90 JUMP JUMPDEST POP DUP1 PUSH2 0x1BC3 JUMPI PUSH1 0x40 DUP1 MLOAD PUSH1 0x60 DUP2 ADD DUP3 MSTORE DUP4 DUP2 MSTORE PUSH1 0x1 PUSH1 0x20 DUP3 ADD DUP2 DUP2 MSTORE TIMESTAMP SWAP4 DUP4 ADD SWAP4 DUP5 MSTORE PUSH1 0xF DUP1 SLOAD SWAP3 DUP4 ADD DUP2 SSTORE PUSH0 MSTORE SWAP2 MLOAD PUSH32 0x8D1108E10BCB7C27DDDFC02ED9D693A074039D026CF4EA4240B40F7D581AC802 PUSH1 0x3 SWAP1 SWAP3 MUL SWAP2 DUP3 ADD SSTORE SWAP1 MLOAD PUSH32 0x8D1108E10BCB7C27DDDFC02ED9D693A074039D026CF4EA4240B40F7D581AC803 DUP3 ADD SSTORE SWAP1 MLOAD PUSH32 0x8D1108E10BCB7C27DDDFC02ED9D693A074039D026CF4EA4240B40F7D581AC804 SWAP1 SWAP2 ADD SSTORE JUMPDEST POP POP JUMP JUMPDEST CALLER PUSH0 SWAP1 DUP2 MSTORE PUSH1 0x13 PUSH1 0x20 MSTORE PUSH1 0x40 SWAP1 KECCAK256 SLOAD PUSH1 0x60 SWAP1 PUSH1 0xFF AND PUSH2 0x1BF8 JUMPI PUSH1 0x40 MLOAD PUSH3 0x461BCD PUSH1 0xE5 SHL DUP2 MSTORE PUSH1 0x4 ADD PUSH2 0x9BB SWAP1 PUSH2 0x49B2 JUMP JUMPDEST PUSH1 0x8 DUP1 SLOAD DUP1 PUSH1 0x20 MUL PUSH1 0x20 ADD PUSH1 0x40 MLOAD SWAP1 DUP2 ADD PUSH1 0x40 MSTORE DUP1 SWAP3 SWAP2 SWAP1 DUP2 DUP2 MSTORE PUSH1 0x20 ADD PUSH0 SWAP1 JUMPDEST DUP3 DUP3 LT ISZERO PUSH2 0xB07 JUMPI DUP4 DUP3 SWAP1 PUSH0 MSTORE PUSH1 0x20 PUSH0 KECCAK256 SWAP1 PUSH1 0x6 MUL ADD PUSH1 0x40 MLOAD DUP1 PUSH1 0xE0 ADD PUSH1 0x40 MSTORE SWAP1 DUP2 PUSH0 DUP3 ADD DUP1 SLOAD PUSH2 0x1C49 SWAP1 PUSH2 0x4B94 JUMP JUMPDEST DUP1 PUSH1 0x1F ADD PUSH1 0x20 DUP1 SWAP2 DIV MUL PUSH1 0x20 ADD PUSH1 0x40 MLOAD SWAP1 DUP2 ADD PUSH1 0x40 MSTORE DUP1 SWAP3 SWAP2 SWAP1 DUP2 DUP2 MSTORE PUSH1 0x20 ADD DUP3 DUP1 SLOAD PUSH2 0x1C75 SWAP1 PUSH2 0x4B94 JUMP JUMPDEST DUP1 ISZERO PUSH2 0x1CC0 JUMPI DUP1 PUSH1 0x1F LT PUSH2 0x1C97 JUMPI PUSH2 0x100 DUP1 DUP4 SLOAD DIV MUL DUP4 MSTORE SWAP2 PUSH1 0x20 ADD SWAP2 PUSH2 0x1CC0 JUMP JUMPDEST DUP3 ADD SWAP2 SWAP1 PUSH0 MSTORE PUSH1 0x20 PUSH0 KECCAK256 SWAP1 JUMPDEST DUP2 SLOAD DUP2 MSTORE SWAP1 PUSH1 0x1 ADD SWAP1 PUSH1 0x20 ADD DUP1 DUP4 GT PUSH2 0x1CA3 JUMPI DUP3 SWAP1 SUB PUSH1 0x1F AND DUP3 ADD SWAP2 JUMPDEST POP POP POP SWAP2 DUP4 MSTORE POP POP PUSH1 0x1 DUP3 ADD SLOAD PUSH1 0xFF DUP2 AND PUSH1 0x20 DUP4 ADD MSTORE PUSH2 0x100 SWAP1 DIV PUSH1 0x1 PUSH1 0x1 PUSH1 0xA0 SHL SUB AND PUSH1 0x40 DUP3 ADD MSTORE PUSH1 0x2 DUP3 ADD DUP1 SLOAD PUSH1 0x60 SWAP1 SWAP3 ADD SWAP2 PUSH2 0x1CFE SWAP1 PUSH2 0x4B94 JUMP JUMPDEST DUP1 PUSH1 0x1F ADD PUSH1 0x20 DUP1 SWAP2 DIV MUL PUSH1 0x20 ADD PUSH1 0x40 MLOAD SWAP1 DUP2 ADD PUSH1 0x40 MSTORE DUP1 SWAP3 SWAP2 SWAP1 DUP2 DUP2 MSTORE PUSH1 0x20 ADD DUP3 DUP1 SLOAD PUSH2 0x1D2A SWAP1 PUSH2 0x4B94 JUMP JUMPDEST DUP1 ISZERO PUSH2 0x1D75 JUMPI DUP1 PUSH1 0x1F LT PUSH2 0x1D4C JUMPI PUSH2 0x100 DUP1 DUP4 SLOAD DIV MUL DUP4 MSTORE SWAP2 PUSH1 0x20 ADD SWAP2 PUSH2 0x1D75 JUMP JUMPDEST DUP3 ADD SWAP2 SWAP1 PUSH0 MSTORE PUSH1 0x20 PUSH0 KECCAK256 SWAP1 JUMPDEST DUP2 SLOAD DUP2 MSTORE SWAP1 PUSH1 0x1 ADD SWAP1 PUSH1 0x20 ADD DUP1 DUP4 GT PUSH2 0x1D58 JUMPI DUP3 SWAP1 SUB PUSH1 0x1F AND DUP3 ADD SWAP2 JUMPDEST POP POP POP POP POP DUP2 MSTORE PUSH1 0x20 ADD PUSH1 0x3 DUP3 ADD SLOAD DUP2 MSTORE PUSH1 0x20 ADD PUSH1 0x4 DUP3 ADD DUP1 SLOAD DUP1 PUSH1 0x20 MUL PUSH1 0x20 ADD PUSH1 0x40 MLOAD SWAP1 DUP2 ADD PUSH1 0x40 MSTORE DUP1 SWAP3 SWAP2 SWAP1 DUP2 DUP2 MSTORE PUSH1 0x20 ADD DUP3 DUP1 SLOAD DUP1 ISZERO PUSH2 0x1DD5 JUMPI PUSH1 0x20 MUL DUP3 ADD SWAP2 SWAP1 PUSH0 MSTORE PUSH1 0x20 PUSH0 KECCAK256 SWAP1 JUMPDEST DUP2 SLOAD DUP2 MSTORE PUSH1 0x20 ADD SWAP1 PUSH1 0x1 ADD SWAP1 DUP1 DUP4 GT PUSH2 0x1DC1 JUMPI JUMPDEST POP POP POP POP POP DUP2 MSTORE PUSH1 0x20 ADD PUSH1 0x5 DUP3 ADD DUP1 SLOAD DUP1 PUSH1 0x20 MUL PUSH1 0x20 ADD PUSH1 0x40 MLOAD SWAP1 DUP2 ADD PUSH1 0x40 MSTORE DUP1 SWAP3 SWAP2 SWAP1 DUP2 DUP2 MSTORE PUSH1 0x20 ADD DUP3 DUP1 SLOAD DUP1 ISZERO PUSH2 0x1E2B JUMPI PUSH1 0x20 MUL DUP3 ADD SWAP2 SWAP1 PUSH0 MSTORE PUSH1 0x20 PUSH0 KECCAK256 SWAP1 JUMPDEST DUP2 SLOAD DUP2 MSTORE PUSH1 0x20 ADD SWAP1 PUSH1 0x1 ADD SWAP1 DUP1 DUP4 GT PUSH2 0x1E17 JUMPI JUMPDEST POP POP POP POP POP DUP2 MSTORE POP POP DUP2 MSTORE PUSH1 0x20 ADD SWAP1 PUSH1 0x1 ADD SWAP1 PUSH2 0x1C19 JUMP JUMPDEST PUSH0 DUP2 PUSH2 0x1E65 JUMPI PUSH1 0x1 PUSH1 0x1 PUSH1 0xA0 SHL SUB DUP5 AND PUSH0 SWAP1 DUP2 MSTORE PUSH1 0xD PUSH1 0x20 MSTORE PUSH1 0x40 SWAP1 KECCAK256 PUSH2 0x1E68 JUMP JUMPDEST PUSH1 0xC JUMPDEST SWAP1 POP PUSH0 DUP1 JUMPDEST DUP3 SLOAD DUP2 LT ISZERO PUSH2 0x2070 JUMPI DUP9 PUSH1 0x1 PUSH1 0x1 PUSH1 0xA0 SHL SUB AND DUP4 DUP3 DUP2 SLOAD DUP2 LT PUSH2 0x1E92 JUMPI PUSH2 0x1E92 PUSH2 0x4B62 JUMP JUMPDEST PUSH0 SWAP2 DUP3 MSTORE PUSH1 0x20 SWAP1 SWAP2 KECCAK256 PUSH1 0x4 SWAP1 SWAP2 MUL ADD SLOAD PUSH1 0x1 PUSH1 0x1 PUSH1 0xA0 SHL SUB AND SUB PUSH2 0x2068 JUMPI PUSH1 0x1 SWAP2 POP PUSH0 DUP1 JUMPDEST DUP5 DUP4 DUP2 SLOAD DUP2 LT PUSH2 0x1EC9 JUMPI PUSH2 0x1EC9 PUSH2 0x4B62 JUMP JUMPDEST SWAP1 PUSH0 MSTORE PUSH1 0x20 PUSH0 KECCAK256 SWAP1 PUSH1 0x4 MUL ADD PUSH1 0x1 ADD DUP1 SLOAD SWAP1 POP DUP2 LT ISZERO PUSH2 0x1FB2 JUMPI DUP10 DUP6 DUP5 DUP2 SLOAD DUP2 LT PUSH2 0x1EF6 JUMPI PUSH2 0x1EF6 PUSH2 0x4B62 JUMP JUMPDEST SWAP1 PUSH0 MSTORE PUSH1 0x20 PUSH0 KECCAK256 SWAP1 PUSH1 0x4 MUL ADD PUSH1 0x1 ADD DUP3 DUP2 SLOAD DUP2 LT PUSH2 0x1F16 JUMPI PUSH2 0x1F16 PUSH2 0x4B62 JUMP JUMPDEST SWAP1 PUSH0 MSTORE PUSH1 0x20 PUSH0 KECCAK256 ADD SLOAD SUB PUSH2 0x1FAA JUMPI TIMESTAMP DUP6 DUP5 DUP2 SLOAD DUP2 LT PUSH2 0x1F37 JUMPI PUSH2 0x1F37 PUSH2 0x4B62 JUMP JUMPDEST SWAP1 PUSH0 MSTORE PUSH1 0x20 PUSH0 KECCAK256 SWAP1 PUSH1 0x4 MUL ADD PUSH1 0x3 ADD DUP3 DUP2 SLOAD DUP2 LT PUSH2 0x1F57 JUMPI PUSH2 0x1F57 PUSH2 0x4B62 JUMP JUMPDEST SWAP1 PUSH0 MSTORE PUSH1 0x20 PUSH0 KECCAK256 ADD DUP2 SWAP1 SSTORE POP DUP9 DUP6 DUP5 DUP2 SLOAD DUP2 LT PUSH2 0x1F76 JUMPI PUSH2 0x1F76 PUSH2 0x4B62 JUMP JUMPDEST SWAP1 PUSH0 MSTORE PUSH1 0x20 PUSH0 KECCAK256 SWAP1 PUSH1 0x4 MUL ADD PUSH1 0x2 ADD DUP3 DUP2 SLOAD DUP2 LT PUSH2 0x1F96 JUMPI PUSH2 0x1F96 PUSH2 0x4B62 JUMP JUMPDEST PUSH0 SWAP2 DUP3 MSTORE PUSH1 0x20 SWAP1 SWAP2 KECCAK256 ADD SSTORE PUSH1 0x1 SWAP2 POP PUSH2 0x1FB2 JUMP JUMPDEST PUSH1 0x1 ADD PUSH2 0x1EB7 JUMP JUMPDEST POP DUP1 PUSH2 0x2062 JUMPI DUP4 DUP3 DUP2 SLOAD DUP2 LT PUSH2 0x1FCA JUMPI PUSH2 0x1FCA PUSH2 0x4B62 JUMP JUMPDEST PUSH0 SWAP2 DUP3 MSTORE PUSH1 0x20 DUP1 DUP4 KECCAK256 PUSH1 0x1 PUSH1 0x4 SWAP1 SWAP4 MUL ADD DUP3 ADD DUP1 SLOAD SWAP3 DUP4 ADD DUP2 SSTORE DUP4 MSTORE SWAP1 SWAP2 KECCAK256 ADD DUP10 SWAP1 SSTORE DUP4 SLOAD DUP5 SWAP1 DUP4 SWAP1 DUP2 LT PUSH2 0x2001 JUMPI PUSH2 0x2001 PUSH2 0x4B62 JUMP JUMPDEST PUSH0 SWAP2 DUP3 MSTORE PUSH1 0x20 DUP1 DUP4 KECCAK256 PUSH1 0x3 PUSH1 0x4 SWAP1 SWAP4 MUL ADD SWAP2 SWAP1 SWAP2 ADD DUP1 SLOAD PUSH1 0x1 DUP2 ADD DUP3 SSTORE SWAP1 DUP4 MSTORE SWAP2 KECCAK256 TIMESTAMP SWAP2 ADD SSTORE DUP4 SLOAD DUP5 SWAP1 DUP4 SWAP1 DUP2 LT PUSH2 0x203B JUMPI PUSH2 0x203B PUSH2 0x4B62 JUMP JUMPDEST PUSH0 SWAP2 DUP3 MSTORE PUSH1 0x20 DUP1 DUP4 KECCAK256 PUSH1 0x2 PUSH1 0x4 SWAP1 SWAP4 MUL ADD SWAP2 SWAP1 SWAP2 ADD DUP1 SLOAD PUSH1 0x1 DUP2 ADD DUP3 SSTORE SWAP1 DUP4 MSTORE SWAP2 KECCAK256 ADD DUP9 SWAP1 SSTORE JUMPDEST POP PUSH2 0x2070 JUMP JUMPDEST PUSH1 0x1 ADD PUSH2 0x1E6D JUMP JUMPDEST POP DUP1 PUSH2 0x2127 JUMPI PUSH0 PUSH2 0x2082 DUP9 DUP9 DUP8 PUSH2 0x3566 JUMP JUMPDEST DUP4 SLOAD PUSH1 0x1 DUP2 DUP2 ADD DUP7 SSTORE PUSH0 DUP7 DUP2 MSTORE PUSH1 0x20 SWAP1 DUP2 SWAP1 KECCAK256 DUP5 MLOAD PUSH1 0x4 SWAP1 SWAP5 MUL ADD DUP1 SLOAD DUP3 DUP7 ADD MLOAD PUSH1 0xFF AND PUSH1 0x1 PUSH1 0xA0 SHL MUL PUSH1 0x1 PUSH1 0x1 PUSH1 0xA8 SHL SUB NOT SWAP1 SWAP2 AND PUSH1 0x1 PUSH1 0x1 PUSH1 0xA0 SHL SUB SWAP1 SWAP6 AND SWAP5 SWAP1 SWAP5 OR SWAP4 SWAP1 SWAP4 OR DUP4 SSTORE PUSH1 0x40 DUP5 ADD MLOAD DUP1 MLOAD SWAP5 SWAP6 POP DUP6 SWAP5 PUSH2 0x20EA SWAP4 DUP6 ADD SWAP3 SWAP2 SWAP1 SWAP2 ADD SWAP1 PUSH2 0x3C4A JUMP JUMPDEST POP PUSH1 0x60 DUP3 ADD MLOAD DUP1 MLOAD PUSH2 0x2106 SWAP2 PUSH1 0x2 DUP5 ADD SWAP2 PUSH1 0x20 SWAP1 SWAP2 ADD SWAP1 PUSH2 0x3C4A JUMP JUMPDEST POP PUSH1 0x80 DUP3 ADD MLOAD DUP1 MLOAD PUSH2 0x2122 SWAP2 PUSH1 0x3 DUP5 ADD SWAP2 PUSH1 0x20 SWAP1 SWAP2 ADD SWAP1 PUSH2 0x3C4A JUMP JUMPDEST POP POP POP POP JUMPDEST POP POP POP POP POP POP POP POP JUMP JUMPDEST PUSH1 0x17 SLOAD PUSH1 0x60 DUP3 ADD MLOAD PUSH1 0x40 MLOAD PUSH4 0x66573F61 PUSH1 0xE0 SHL DUP2 MSTORE PUSH0 SWAP3 PUSH1 0x1 PUSH1 0x1 PUSH1 0xA0 SHL SUB AND SWAP2 PUSH4 0x66573F61 SWAP2 PUSH2 0x2165 SWAP2 SWAP1 PUSH1 0x4 ADD PUSH2 0x41CF JUMP JUMPDEST PUSH0 PUSH1 0x40 MLOAD DUP1 DUP4 SUB DUP2 DUP7 GAS STATICCALL ISZERO DUP1 ISZERO PUSH2 0x217F JUMPI RETURNDATASIZE PUSH0 DUP1 RETURNDATACOPY RETURNDATASIZE PUSH0 REVERT JUMPDEST POP POP POP POP PUSH1 0x40 MLOAD RETURNDATASIZE PUSH0 DUP3 RETURNDATACOPY PUSH1 0x1F RETURNDATASIZE SWAP1 DUP2 ADD PUSH1 0x1F NOT AND DUP3 ADD PUSH1 0x40 MSTORE PUSH2 0x21A6 SWAP2 SWAP1 DUP2 ADD SWAP1 PUSH2 0x520D JUMP JUMPDEST SWAP1 POP PUSH0 PUSH2 0x21B2 DUP3 PUSH2 0x36A7 JUMP JUMPDEST PUSH1 0x40 DUP1 MLOAD PUSH1 0xE0 DUP2 ADD DUP3 MSTORE DUP6 MLOAD DUP2 MSTORE PUSH1 0x20 DUP1 DUP8 ADD MLOAD PUSH1 0xFF AND SWAP1 DUP3 ADD MSTORE DUP6 DUP3 ADD MLOAD PUSH1 0x1 PUSH1 0x1 PUSH1 0xA0 SHL SUB AND SWAP2 DUP2 ADD SWAP2 SWAP1 SWAP2 MSTORE PUSH1 0x60 DUP1 DUP3 ADD DUP4 SWAP1 MSTORE TIMESTAMP PUSH1 0x80 DUP1 DUP5 ADD SWAP2 SWAP1 SWAP2 MSTORE SWAP1 DUP7 ADD MLOAD PUSH1 0xA0 DUP4 ADD MSTORE DUP6 ADD MLOAD PUSH1 0xC0 DUP3 ADD MSTORE PUSH1 0x8 DUP1 SLOAD PUSH1 0x1 DUP2 ADD DUP3 SSTORE PUSH0 SWAP2 SWAP1 SWAP2 MSTORE DUP2 MLOAD SWAP3 SWAP4 POP SWAP1 SWAP2 DUP3 SWAP2 PUSH1 0x6 MUL PUSH32 0xF3F7A9FE364FAAB93B216DA50A3214154F22A0A2B415B23A84C8169E8B636EE3 ADD SWAP1 DUP2 SWAP1 PUSH2 0x224E SWAP1 DUP3 PUSH2 0x529C JUMP JUMPDEST POP PUSH1 0x20 DUP3 ADD MLOAD PUSH1 0x1 DUP3 ADD DUP1 SLOAD PUSH1 0x40 DUP6 ADD MLOAD PUSH1 0x1 PUSH1 0x1 PUSH1 0xA0 SHL SUB AND PUSH2 0x100 MUL PUSH1 0x1 PUSH1 0x1 PUSH1 0xA8 SHL SUB NOT SWAP1 SWAP2 AND PUSH1 0xFF SWAP1 SWAP4 AND SWAP3 SWAP1 SWAP3 OR SWAP2 SWAP1 SWAP2 OR SWAP1 SSTORE PUSH1 0x60 DUP3 ADD MLOAD PUSH1 0x2 DUP3 ADD SWAP1 PUSH2 0x229B SWAP1 DUP3 PUSH2 0x529C JUMP JUMPDEST POP PUSH1 0x80 DUP3 ADD MLOAD PUSH1 0x3 DUP3 ADD SSTORE PUSH1 0xA0 DUP3 ADD MLOAD DUP1 MLOAD PUSH2 0x22C1 SWAP2 PUSH1 0x4 DUP5 ADD SWAP2 PUSH1 0x20 SWAP1 SWAP2 ADD SWAP1 PUSH2 0x3C4A JUMP JUMPDEST POP PUSH1 0xC0 DUP3 ADD MLOAD DUP1 MLOAD PUSH2 0x22DD SWAP2 PUSH1 0x5 DUP5 ADD SWAP2 PUSH1 0x20 SWAP1 SWAP2 ADD SWAP1 PUSH2 0x3C4A JUMP JUMPDEST POP POP POP PUSH0 JUMPDEST DUP5 PUSH1 0x60 ADD MLOAD MLOAD DUP2 LT ISZERO PUSH2 0x2664 JUMPI PUSH1 0x17 SLOAD PUSH1 0x60 DUP7 ADD MLOAD DUP1 MLOAD PUSH0 SWAP3 PUSH1 0x1 PUSH1 0x1 PUSH1 0xA0 SHL SUB AND SWAP2 PUSH4 0xB9DB15B4 SWAP2 DUP6 SWAP1 DUP2 LT PUSH2 0x231B JUMPI PUSH2 0x231B PUSH2 0x4B62 JUMP JUMPDEST PUSH1 0x20 MUL PUSH1 0x20 ADD ADD MLOAD PUSH1 0x40 MLOAD DUP3 PUSH4 0xFFFFFFFF AND PUSH1 0xE0 SHL DUP2 MSTORE PUSH1 0x4 ADD PUSH2 0x2341 SWAP2 DUP2 MSTORE PUSH1 0x20 ADD SWAP1 JUMP JUMPDEST PUSH0 PUSH1 0x40 MLOAD DUP1 DUP4 SUB DUP2 DUP7 GAS STATICCALL ISZERO DUP1 ISZERO PUSH2 0x235B JUMPI RETURNDATASIZE PUSH0 DUP1 RETURNDATACOPY RETURNDATASIZE PUSH0 REVERT JUMPDEST POP POP POP POP PUSH1 0x40 MLOAD RETURNDATASIZE PUSH0 DUP3 RETURNDATACOPY PUSH1 0x1F RETURNDATASIZE SWAP1 DUP2 ADD PUSH1 0x1F NOT AND DUP3 ADD PUSH1 0x40 MSTORE PUSH2 0x2382 SWAP2 SWAP1 DUP2 ADD SWAP1 PUSH2 0x4FD1 JUMP JUMPDEST PUSH1 0x18 SLOAD PUSH1 0x20 DUP3 ADD MLOAD PUSH2 0x180 ADD MLOAD PUSH1 0x40 MLOAD PUSH4 0x6386C1C7 PUSH1 0xE0 SHL DUP2 MSTORE PUSH1 0x1 PUSH1 0x1 PUSH1 0xA0 SHL SUB SWAP2 DUP3 AND PUSH1 0x4 DUP3 ADD MSTORE SWAP3 SWAP4 POP PUSH0 SWAP3 SWAP2 AND SWAP1 PUSH4 0x6386C1C7 SWAP1 PUSH1 0x24 ADD PUSH0 PUSH1 0x40 MLOAD DUP1 DUP4 SUB DUP2 DUP7 GAS STATICCALL ISZERO DUP1 ISZERO PUSH2 0x23D7 JUMPI RETURNDATASIZE PUSH0 DUP1 RETURNDATACOPY RETURNDATASIZE PUSH0 REVERT JUMPDEST POP POP POP POP PUSH1 0x40 MLOAD RETURNDATASIZE PUSH0 DUP3 RETURNDATACOPY PUSH1 0x1F RETURNDATASIZE SWAP1 DUP2 ADD PUSH1 0x1F NOT AND DUP3 ADD PUSH1 0x40 MSTORE PUSH2 0x23FE SWAP2 SWAP1 DUP2 ADD SWAP1 PUSH2 0x54D1 JUMP JUMPDEST POP SWAP1 POP PUSH0 PUSH1 0x40 MLOAD DUP1 PUSH1 0xE0 ADD PUSH1 0x40 MSTORE DUP1 DUP10 PUSH0 ADD MLOAD DUP2 MSTORE PUSH1 0x20 ADD DUP10 PUSH1 0x20 ADD MLOAD PUSH1 0xFF AND DUP2 MSTORE PUSH1 0x20 ADD DUP10 PUSH1 0x40 ADD MLOAD PUSH1 0x1 PUSH1 0x1 PUSH1 0xA0 SHL SUB AND DUP2 MSTORE PUSH1 0x20 ADD DUP4 PUSH1 0x20 ADD MLOAD PUSH1 0x40 MLOAD PUSH1 0x20 ADD PUSH2 0x244B SWAP2 SWAP1 PUSH2 0x415F JUMP JUMPDEST PUSH1 0x40 MLOAD PUSH1 0x20 DUP2 DUP4 SUB SUB DUP2 MSTORE SWAP1 PUSH1 0x40 MSTORE DUP2 MSTORE PUSH1 0x20 ADD TIMESTAMP DUP2 MSTORE PUSH1 0x20 ADD DUP10 PUSH1 0x60 ADD MLOAD MLOAD PUSH1 0x1 PUSH1 0x1 PUSH1 0x40 SHL SUB DUP2 GT ISZERO PUSH2 0x2482 JUMPI PUSH2 0x2482 PUSH2 0x3F69 JUMP JUMPDEST PUSH1 0x40 MLOAD SWAP1 DUP1 DUP3 MSTORE DUP1 PUSH1 0x20 MUL PUSH1 0x20 ADD DUP3 ADD PUSH1 0x40 MSTORE DUP1 ISZERO PUSH2 0x24AB JUMPI DUP2 PUSH1 0x20 ADD PUSH1 0x20 DUP3 MUL DUP1 CALLDATASIZE DUP4 CALLDATACOPY ADD SWAP1 POP JUMPDEST POP DUP2 MSTORE PUSH1 0x20 ADD DUP10 PUSH1 0x60 ADD MLOAD MLOAD PUSH1 0x1 PUSH1 0x1 PUSH1 0x40 SHL SUB DUP2 GT ISZERO PUSH2 0x24CE JUMPI PUSH2 0x24CE PUSH2 0x3F69 JUMP JUMPDEST PUSH1 0x40 MLOAD SWAP1 DUP1 DUP3 MSTORE DUP1 PUSH1 0x20 MUL PUSH1 0x20 ADD DUP3 ADD PUSH1 0x40 MSTORE DUP1 ISZERO PUSH2 0x24F7 JUMPI DUP2 PUSH1 0x20 ADD PUSH1 0x20 DUP3 MUL DUP1 CALLDATASIZE DUP4 CALLDATACOPY ADD SWAP1 POP JUMPDEST POP DUP2 MSTORE POP SWAP1 POP DUP8 PUSH1 0x60 ADD MLOAD DUP5 DUP2 MLOAD DUP2 LT PUSH2 0x2513 JUMPI PUSH2 0x2513 PUSH2 0x4B62 JUMP JUMPDEST PUSH1 0x20 MUL PUSH1 0x20 ADD ADD MLOAD DUP2 PUSH1 0xA0 ADD MLOAD DUP6 DUP2 MLOAD DUP2 LT PUSH2 0x2531 JUMPI PUSH2 0x2531 PUSH2 0x4B62 JUMP JUMPDEST PUSH1 0x20 MUL PUSH1 0x20 ADD ADD DUP2 DUP2 MSTORE POP POP DUP8 PUSH1 0x80 ADD MLOAD DUP5 DUP2 MLOAD DUP2 LT PUSH2 0x2553 JUMPI PUSH2 0x2553 PUSH2 0x4B62 JUMP JUMPDEST PUSH1 0x20 MUL PUSH1 0x20 ADD ADD MLOAD DUP2 PUSH1 0xC0 ADD MLOAD DUP6 DUP2 MLOAD DUP2 LT PUSH2 0x2571 JUMPI PUSH2 0x2571 PUSH2 0x4B62 JUMP JUMPDEST PUSH1 0x20 SWAP1 DUP2 MUL SWAP2 SWAP1 SWAP2 ADD DUP2 ADD SWAP2 SWAP1 SWAP2 MSTORE DUP4 DUP2 ADD MLOAD PUSH2 0x180 ADD MLOAD PUSH1 0x1 PUSH1 0x1 PUSH1 0xA0 SHL SUB AND PUSH0 SWAP1 DUP2 MSTORE PUSH1 0x9 DUP3 MSTORE PUSH1 0x40 DUP2 KECCAK256 DUP1 SLOAD PUSH1 0x1 DUP2 ADD DUP3 SSTORE SWAP1 DUP3 MSTORE SWAP2 SWAP1 KECCAK256 DUP3 MLOAD DUP4 SWAP3 PUSH1 0x6 MUL SWAP1 SWAP2 ADD SWAP1 DUP2 SWAP1 PUSH2 0x25C3 SWAP1 DUP3 PUSH2 0x529C JUMP JUMPDEST POP PUSH1 0x20 DUP3 ADD MLOAD PUSH1 0x1 DUP3 ADD DUP1 SLOAD PUSH1 0x40 DUP6 ADD MLOAD PUSH1 0x1 PUSH1 0x1 PUSH1 0xA0 SHL SUB AND PUSH2 0x100 MUL PUSH1 0x1 PUSH1 0x1 PUSH1 0xA8 SHL SUB NOT SWAP1 SWAP2 AND PUSH1 0xFF SWAP1 SWAP4 AND SWAP3 SWAP1 SWAP3 OR SWAP2 SWAP1 SWAP2 OR SWAP1 SSTORE PUSH1 0x60 DUP3 ADD MLOAD PUSH1 0x2 DUP3 ADD SWAP1 PUSH2 0x2610 SWAP1 DUP3 PUSH2 0x529C JUMP JUMPDEST POP PUSH1 0x80 DUP3 ADD MLOAD PUSH1 0x3 DUP3 ADD SSTORE PUSH1 0xA0 DUP3 ADD MLOAD DUP1 MLOAD PUSH2 0x2636 SWAP2 PUSH1 0x4 DUP5 ADD SWAP2 PUSH1 0x20 SWAP1 SWAP2 ADD SWAP1 PUSH2 0x3C4A JUMP JUMPDEST POP PUSH1 0xC0 DUP3 ADD MLOAD DUP1 MLOAD PUSH2 0x2652 SWAP2 PUSH1 0x5 DUP5 ADD SWAP2 PUSH1 0x20 SWAP1 SWAP2 ADD SWAP1 PUSH2 0x3C4A JUMP JUMPDEST POP POP PUSH1 0x1 SWAP1 SWAP5 ADD SWAP4 POP PUSH2 0x22E2 SWAP3 POP POP POP JUMP JUMPDEST POP POP POP POP POP JUMP JUMPDEST DUP2 MLOAD PUSH1 0x20 DUP2 DUP5 ADD DUP2 ADD DUP1 MLOAD PUSH1 0x11 DUP3 MSTORE SWAP3 DUP3 ADD SWAP2 DUP6 ADD SWAP2 SWAP1 SWAP2 KECCAK256 SWAP2 SWAP1 MSTORE DUP1 SLOAD DUP3 SWAP1 DUP2 LT PUSH2 0xE11 JUMPI PUSH0 DUP1 REVERT JUMPDEST PUSH0 PUSH1 0x1 SLOAD GT PUSH2 0x26BD PUSH1 0x1 PUSH1 0x40 MLOAD DUP1 PUSH1 0x60 ADD PUSH1 0x40 MSTORE DUP1 PUSH1 0x29 DUP2 MSTORE PUSH1 0x20 ADD PUSH2 0x5C1C PUSH1 0x29 SWAP2 CODECOPY PUSH2 0xA5D JUMP JUMPDEST SWAP1 PUSH2 0x26DB JUMPI PUSH1 0x40 MLOAD PUSH3 0x461BCD PUSH1 0xE5 SHL DUP2 MSTORE PUSH1 0x4 ADD PUSH2 0x9BB SWAP2 SWAP1 PUSH2 0x415F JUMP JUMPDEST POP PUSH0 PUSH1 0x7 PUSH0 DUP4 PUSH1 0x1 PUSH1 0x1 PUSH1 0xA0 SHL SUB AND PUSH1 0x1 PUSH1 0x1 PUSH1 0xA0 SHL SUB AND DUP2 MSTORE PUSH1 0x20 ADD SWAP1 DUP2 MSTORE PUSH1 0x20 ADD PUSH0 KECCAK256 SLOAD GT PUSH2 0x2725 PUSH1 0x2 PUSH1 0x40 MLOAD DUP1 PUSH1 0x60 ADD PUSH1 0x40 MSTORE DUP1 PUSH1 0x25 DUP2 MSTORE PUSH1 0x20 ADD PUSH2 0x5C69 PUSH1 0x25 SWAP2 CODECOPY PUSH2 0xA5D JUMP JUMPDEST SWAP1 PUSH2 0x2743 JUMPI PUSH1 0x40 MLOAD PUSH3 0x461BCD PUSH1 0xE5 SHL DUP2 MSTORE PUSH1 0x4 ADD PUSH2 0x9BB SWAP2 SWAP1 PUSH2 0x415F JUMP JUMPDEST POP PUSH1 0x1 DUP1 SLOAD SWAP1 PUSH0 PUSH2 0x2753 DUP4 PUSH2 0x5149 JUMP JUMPDEST SWAP1 SWAP2 SSTORE POP POP PUSH1 0x1 PUSH1 0x1 PUSH1 0xA0 SHL SUB DUP2 AND PUSH0 SWAP1 DUP2 MSTORE PUSH1 0x7 PUSH1 0x20 MSTORE PUSH1 0x40 DUP2 KECCAK256 DUP1 SLOAD SWAP2 PUSH2 0x277B DUP4 PUSH2 0x5149 JUMP JUMPDEST SWAP2 SWAP1 POP SSTORE POP POP JUMP JUMPDEST PUSH1 0x9 PUSH1 0x20 MSTORE DUP2 PUSH0 MSTORE PUSH1 0x40 PUSH0 KECCAK256 DUP2 DUP2 SLOAD DUP2 LT PUSH2 0x279C JUMPI PUSH0 DUP1 REVERT JUMPDEST SWAP1 PUSH0 MSTORE PUSH1 0x20 PUSH0 KECCAK256 SWAP1 PUSH1 0x6 MUL ADD PUSH0 SWAP2 POP SWAP2 POP POP DUP1 PUSH0 ADD DUP1 SLOAD PUSH2 0x27BC SWAP1 PUSH2 0x4B94 JUMP JUMPDEST DUP1 PUSH1 0x1F ADD PUSH1 0x20 DUP1 SWAP2 DIV MUL PUSH1 0x20 ADD PUSH1 0x40 MLOAD SWAP1 DUP2 ADD PUSH1 0x40 MSTORE DUP1 SWAP3 SWAP2 SWAP1 DUP2 DUP2 MSTORE PUSH1 0x20 ADD DUP3 DUP1 SLOAD PUSH2 0x27E8 SWAP1 PUSH2 0x4B94 JUMP JUMPDEST DUP1 ISZERO PUSH2 0x2833 JUMPI DUP1 PUSH1 0x1F LT PUSH2 0x280A JUMPI PUSH2 0x100 DUP1 DUP4 SLOAD DIV MUL DUP4 MSTORE SWAP2 PUSH1 0x20 ADD SWAP2 PUSH2 0x2833 JUMP JUMPDEST DUP3 ADD SWAP2 SWAP1 PUSH0 MSTORE PUSH1 0x20 PUSH0 KECCAK256 SWAP1 JUMPDEST DUP2 SLOAD DUP2 MSTORE SWAP1 PUSH1 0x1 ADD SWAP1 PUSH1 0x20 ADD DUP1 DUP4 GT PUSH2 0x2816 JUMPI DUP3 SWAP1 SUB PUSH1 0x1F AND DUP3 ADD SWAP2 JUMPDEST POP POP POP POP PUSH1 0x1 DUP4 ADD SLOAD PUSH1 0x2 DUP5 ADD DUP1 SLOAD SWAP4 SWAP5 PUSH1 0xFF DUP4 AND SWAP5 PUSH2 0x100 SWAP1 SWAP4 DIV PUSH1 0x1 PUSH1 0x1 PUSH1 0xA0 SHL SUB AND SWAP4 POP SWAP2 PUSH2 0x2864 SWAP1 PUSH2 0x4B94 JUMP JUMPDEST DUP1 PUSH1 0x1F ADD PUSH1 0x20 DUP1 SWAP2 DIV MUL PUSH1 0x20 ADD PUSH1 0x40 MLOAD SWAP1 DUP2 ADD PUSH1 0x40 MSTORE DUP1 SWAP3 SWAP2 SWAP1 DUP2 DUP2 MSTORE PUSH1 0x20 ADD DUP3 DUP1 SLOAD PUSH2 0x2890 SWAP1 PUSH2 0x4B94 JUMP JUMPDEST DUP1 ISZERO PUSH2 0x28DB JUMPI DUP1 PUSH1 0x1F LT PUSH2 0x28B2 JUMPI PUSH2 0x100 DUP1 DUP4 SLOAD DIV MUL DUP4 MSTORE SWAP2 PUSH1 0x20 ADD SWAP2 PUSH2 0x28DB JUMP JUMPDEST DUP3 ADD SWAP2 SWAP1 PUSH0 MSTORE PUSH1 0x20 PUSH0 KECCAK256 SWAP1 JUMPDEST DUP2 SLOAD DUP2 MSTORE SWAP1 PUSH1 0x1 ADD SWAP1 PUSH1 0x20 ADD DUP1 DUP4 GT PUSH2 0x28BE JUMPI DUP3 SWAP1 SUB PUSH1 0x1F AND DUP3 ADD SWAP2 JUMPDEST POP POP POP POP POP SWAP1 DUP1 PUSH1 0x3 ADD SLOAD SWAP1 POP DUP6 JUMP JUMPDEST CALLER PUSH0 SWAP1 DUP2 MSTORE PUSH1 0x13 PUSH1 0x20 MSTORE PUSH1 0x40 SWAP1 KECCAK256 SLOAD PUSH1 0x60 SWAP1 PUSH1 0xFF AND PUSH2 0x291C JUMPI PUSH1 0x40 MLOAD PUSH3 0x461BCD PUSH1 0xE5 SHL DUP2 MSTORE PUSH1 0x4 ADD PUSH2 0x9BB SWAP1 PUSH2 0x49B2 JUMP JUMPDEST PUSH1 0xC DUP1 SLOAD DUP1 PUSH1 0x20 MUL PUSH1 0x20 ADD PUSH1 0x40 MLOAD SWAP1 DUP2 ADD PUSH1 0x40 MSTORE DUP1 SWAP3 SWAP2 SWAP1 DUP2 DUP2 MSTORE PUSH1 0x20 ADD PUSH0 SWAP1 JUMPDEST DUP3 DUP3 LT ISZERO PUSH2 0xB07 JUMPI PUSH0 DUP5 DUP2 MSTORE PUSH1 0x20 SWAP1 DUP2 SWAP1 KECCAK256 PUSH1 0x40 DUP1 MLOAD PUSH1 0xA0 DUP2 ADD DUP3 MSTORE PUSH1 0x4 DUP7 MUL SWAP1 SWAP3 ADD DUP1 SLOAD PUSH1 0x1 PUSH1 0x1 PUSH1 0xA0 SHL SUB DUP2 AND DUP5 MSTORE PUSH1 0x1 PUSH1 0xA0 SHL SWAP1 DIV PUSH1 0xFF AND DUP4 DUP6 ADD MSTORE PUSH1 0x1 DUP2 ADD DUP1 SLOAD DUP4 MLOAD DUP2 DUP8 MUL DUP2 ADD DUP8 ADD DUP6 MSTORE DUP2 DUP2 MSTORE SWAP5 SWAP6 SWAP3 SWAP5 SWAP4 DUP7 ADD SWAP4 SWAP3 DUP4 ADD DUP3 DUP3 DUP1 ISZERO PUSH2 0x29C6 JUMPI PUSH1 0x20 MUL DUP3 ADD SWAP2 SWAP1 PUSH0 MSTORE PUSH1 0x20 PUSH0 KECCAK256 SWAP1 JUMPDEST DUP2 SLOAD DUP2 MSTORE PUSH1 0x20 ADD SWAP1 PUSH1 0x1 ADD SWAP1 DUP1 DUP4 GT PUSH2 0x29B2 JUMPI JUMPDEST POP POP POP POP POP DUP2 MSTORE PUSH1 0x20 ADD PUSH1 0x2 DUP3 ADD DUP1 SLOAD DUP1 PUSH1 0x20 MUL PUSH1 0x20 ADD PUSH1 0x40 MLOAD SWAP1 DUP2 ADD PUSH1 0x40 MSTORE DUP1 SWAP3 SWAP2 SWAP1 DUP2 DUP2 MSTORE PUSH1 0x20 ADD DUP3 DUP1 SLOAD DUP1 ISZERO PUSH2 0x2A1C JUMPI PUSH1 0x20 MUL DUP3 ADD SWAP2 SWAP1 PUSH0 MSTORE PUSH1 0x20 PUSH0 KECCAK256 SWAP1 JUMPDEST DUP2 SLOAD DUP2 MSTORE PUSH1 0x20 ADD SWAP1 PUSH1 0x1 ADD SWAP1 DUP1 DUP4 GT PUSH2 0x2A08 JUMPI JUMPDEST POP POP POP POP POP DUP2 MSTORE PUSH1 0x20 ADD PUSH1 0x3 DUP3 ADD DUP1 SLOAD DUP1 PUSH1 0x20 MUL PUSH1 0x20 ADD PUSH1 0x40 MLOAD SWAP1 DUP2 ADD PUSH1 0x40 MSTORE DUP1 SWAP3 SWAP2 SWAP1 DUP2 DUP2 MSTORE PUSH1 0x20 ADD DUP3 DUP1 SLOAD DUP1 ISZERO PUSH2 0x2A72 JUMPI PUSH1 0x20 MUL DUP3 ADD SWAP2 SWAP1 PUSH0 MSTORE PUSH1 0x20 PUSH0 KECCAK256 SWAP1 JUMPDEST DUP2 SLOAD DUP2 MSTORE PUSH1 0x20 ADD SWAP1 PUSH1 0x1 ADD SWAP1 DUP1 DUP4 GT PUSH2 0x2A5E JUMPI JUMPDEST POP POP POP POP POP DUP2 MSTORE POP POP DUP2 MSTORE PUSH1 0x20 ADD SWAP1 PUSH1 0x1 ADD SWAP1 PUSH2 0x293D JUMP JUMPDEST CALLER PUSH0 SWAP1 DUP2 MSTORE PUSH1 0x10 PUSH1 0x20 SWAP1 DUP2 MSTORE PUSH1 0x40 DUP1 DUP4 KECCAK256 DUP1 SLOAD DUP3 MLOAD DUP2 DUP6 MUL DUP2 ADD DUP6 ADD SWAP1 SWAP4 MSTORE DUP1 DUP4 MSTORE PUSH1 0x60 SWAP5 SWAP3 SWAP4 SWAP2 SWAP3 SWAP1 SWAP2 DUP5 ADD JUMPDEST DUP3 DUP3 LT ISZERO PUSH2 0xB07 JUMPI DUP4 DUP3 SWAP1 PUSH0 MSTORE PUSH1 0x20 PUSH0 KECCAK256 SWAP1 PUSH1 0x2 MUL ADD PUSH1 0x40 MLOAD DUP1 PUSH1 0x40 ADD PUSH1 0x40 MSTORE SWAP1 DUP2 PUSH0 DUP3 ADD SLOAD DUP2 MSTORE PUSH1 0x20 ADD PUSH1 0x1 DUP3 ADD SLOAD DUP2 MSTORE POP POP DUP2 MSTORE PUSH1 0x20 ADD SWAP1 PUSH1 0x1 ADD SWAP1 PUSH2 0x2AB8 JUMP JUMPDEST PUSH1 0x16 SLOAD PUSH1 0x40 MLOAD PUSH4 0xC78D3E1 PUSH1 0xE3 SHL DUP2 MSTORE CALLER PUSH1 0x4 DUP3 ADD MSTORE PUSH1 0x60 SWAP2 DUP3 SWAP2 DUP3 SWAP2 PUSH1 0x1 PUSH1 0x1 PUSH1 0xA0 SHL SUB AND SWAP1 PUSH4 0x63C69F08 SWAP1 PUSH1 0x24 ADD PUSH0 PUSH1 0x40 MLOAD DUP1 DUP4 SUB DUP2 DUP7 GAS STATICCALL ISZERO DUP1 ISZERO PUSH2 0x2B45 JUMPI RETURNDATASIZE PUSH0 DUP1 RETURNDATACOPY RETURNDATASIZE PUSH0 REVERT JUMPDEST POP POP POP POP PUSH1 0x40 MLOAD RETURNDATASIZE PUSH0 DUP3 RETURNDATACOPY PUSH1 0x1F RETURNDATASIZE SWAP1 DUP2 ADD PUSH1 0x1F NOT AND DUP3 ADD PUSH1 0x40 MSTORE PUSH2 0x2B6C SWAP2 SWAP1 DUP2 ADD SWAP1 PUSH2 0x5637 JUMP JUMPDEST PUSH1 0x18 SLOAD PUSH1 0x40 MLOAD PUSH4 0x13FFF5AB PUSH1 0xE2 SHL DUP2 MSTORE CALLER PUSH1 0x4 DUP3 ADD MSTORE SWAP2 SWAP5 POP PUSH1 0x1 PUSH1 0x1 PUSH1 0xA0 SHL SUB AND SWAP1 PUSH4 0x4FFFD6AC SWAP1 PUSH1 0x24 ADD PUSH0 PUSH1 0x40 MLOAD DUP1 DUP4 SUB DUP2 DUP7 GAS STATICCALL ISZERO DUP1 ISZERO PUSH2 0x2BB2 JUMPI RETURNDATASIZE PUSH0 DUP1 RETURNDATACOPY RETURNDATASIZE PUSH0 REVERT JUMPDEST POP POP POP POP PUSH1 0x40 MLOAD RETURNDATASIZE PUSH0 DUP3 RETURNDATACOPY PUSH1 0x1F RETURNDATASIZE SWAP1 DUP2 ADD PUSH1 0x1F NOT AND DUP3 ADD PUSH1 0x40 MSTORE PUSH2 0x2BD9 SWAP2 SWAP1 DUP2 ADD SWAP1 PUSH2 0x58D6 JUMP JUMPDEST SWAP2 POP PUSH2 0x2BE3 PUSH2 0x2A8A JUMP JUMPDEST SWAP1 POP SWAP1 SWAP2 SWAP3 JUMP JUMPDEST CALLER PUSH0 SWAP1 DUP2 MSTORE PUSH1 0x13 PUSH1 0x20 MSTORE PUSH1 0x40 DUP2 KECCAK256 SLOAD PUSH1 0xFF AND PUSH2 0x2C18 JUMPI PUSH1 0x40 MLOAD PUSH3 0x461BCD PUSH1 0xE5 SHL DUP2 MSTORE PUSH1 0x4 ADD PUSH2 0x9BB SWAP1 PUSH2 0x49B2 JUMP JUMPDEST POP PUSH1 0x1 SLOAD SWAP1 JUMP JUMPDEST PUSH1 0x5 DUP1 SLOAD SWAP1 PUSH0 PUSH2 0x169F DUP4 PUSH2 0x4ACC JUMP JUMPDEST PUSH1 0xB PUSH1 0x20 MSTORE DUP2 PUSH0 MSTORE PUSH1 0x40 PUSH0 KECCAK256 DUP2 DUP2 SLOAD DUP2 LT PUSH2 0xA0B JUMPI PUSH0 DUP1 REVERT JUMPDEST PUSH1 0x60 PUSH0 DUP1 PUSH1 0x60 PUSH2 0x2C55 PUSH2 0x317F JUMP JUMPDEST SWAP4 POP PUSH2 0x2C6C CALLER PUSH0 SWAP1 DUP2 MSTORE PUSH1 0x6 PUSH1 0x20 MSTORE PUSH1 0x40 SWAP1 KECCAK256 SLOAD SWAP1 JUMP JUMPDEST SWAP3 POP PUSH2 0x2C83 CALLER PUSH0 SWAP1 DUP2 MSTORE PUSH1 0x7 PUSH1 0x20 MSTORE PUSH1 0x40 SWAP1 KECCAK256 SLOAD SWAP1 JUMP JUMPDEST SWAP2 POP PUSH2 0x2C8D PUSH2 0xC7D JUMP JUMPDEST SWAP1 POP SWAP1 SWAP2 SWAP3 SWAP4 JUMP JUMPDEST PUSH0 DUP1 SLOAD GT PUSH2 0x2CBC PUSH1 0x1 PUSH1 0x40 MLOAD DUP1 PUSH1 0x60 ADD PUSH1 0x40 MSTORE DUP1 PUSH1 0x24 DUP2 MSTORE PUSH1 0x20 ADD PUSH2 0x5C45 PUSH1 0x24 SWAP2 CODECOPY PUSH2 0xA5D JUMP JUMPDEST SWAP1 PUSH2 0x2CDA JUMPI PUSH1 0x40 MLOAD PUSH3 0x461BCD PUSH1 0xE5 SHL DUP2 MSTORE PUSH1 0x4 ADD PUSH2 0x9BB SWAP2 SWAP1 PUSH2 0x415F JUMP JUMPDEST POP PUSH0 PUSH1 0x6 PUSH0 DUP4 PUSH1 0x1 PUSH1 0x1 PUSH1 0xA0 SHL SUB AND PUSH1 0x1 PUSH1 0x1 PUSH1 0xA0 SHL SUB AND DUP2 MSTORE PUSH1 0x20 ADD SWAP1 DUP2 MSTORE PUSH1 0x20 ADD PUSH0 KECCAK256 SLOAD GT PUSH2 0x2D41 PUSH1 0x2 PUSH1 0x40 MLOAD DUP1 PUSH1 0x40 ADD PUSH1 0x40 MSTORE DUP1 PUSH1 0x20 DUP2 MSTORE PUSH1 0x20 ADD PUSH32 0x496E76616C696420636F756E743A2072657461696C6572206661766F72697465 DUP2 MSTORE POP PUSH2 0xA5D JUMP JUMPDEST SWAP1 PUSH2 0x2D5F JUMPI PUSH1 0x40 MLOAD PUSH3 0x461BCD PUSH1 0xE5 SHL DUP2 MSTORE PUSH1 0x4 ADD PUSH2 0x9BB SWAP2 SWAP1 PUSH2 0x415F JUMP JUMPDEST POP PUSH0 DUP1 SLOAD SWAP1 DUP1 PUSH2 0x2D6E DUP4 PUSH2 0x5149 JUMP JUMPDEST SWAP1 SWAP2 SSTORE POP POP PUSH1 0x1 PUSH1 0x1 PUSH1 0xA0 SHL SUB DUP2 AND PUSH0 SWAP1 DUP2 MSTORE PUSH1 0x6 PUSH1 0x20 MSTORE PUSH1 0x40 DUP2 KECCAK256 DUP1 SLOAD SWAP2 PUSH2 0x277B DUP4 PUSH2 0x5149 JUMP JUMPDEST PUSH1 0xC DUP2 DUP2 SLOAD DUP2 LT PUSH2 0x2DA5 JUMPI PUSH0 DUP1 REVERT JUMPDEST PUSH0 SWAP2 DUP3 MSTORE PUSH1 0x20 SWAP1 SWAP2 KECCAK256 PUSH1 0x4 SWAP1 SWAP2 MUL ADD SLOAD PUSH1 0x1 PUSH1 0x1 PUSH1 0xA0 SHL SUB DUP2 AND SWAP2 POP PUSH1 0x1 PUSH1 0xA0 SHL SWAP1 DIV PUSH1 0xFF AND DUP3 JUMP JUMPDEST PUSH1 0x15 SLOAD PUSH0 SWAP1 PUSH1 0x1 PUSH1 0x1 PUSH1 0xA0 SHL SUB AND CALLER DUP2 EQ PUSH2 0x2DFB JUMPI PUSH1 0x40 MLOAD PUSH3 0x461BCD PUSH1 0xE5 SHL DUP2 MSTORE PUSH1 0x4 ADD PUSH2 0x9BB SWAP1 PUSH2 0x4AF3 JUMP JUMPDEST PUSH1 0x18 DUP1 SLOAD PUSH1 0x1 PUSH1 0x1 PUSH1 0xA0 SHL SUB DUP6 AND PUSH1 0x1 PUSH1 0x1 PUSH1 0xA0 SHL SUB NOT SWAP1 SWAP2 AND OR SWAP1 SSTORE PUSH1 0x1 SWAP2 POP POP SWAP2 SWAP1 POP JUMP JUMPDEST PUSH0 DUP2 PUSH2 0x2E44 JUMPI PUSH1 0x1 PUSH1 0x1 PUSH1 0xA0 SHL SUB DUP4 AND PUSH0 SWAP1 DUP2 MSTORE PUSH1 0xD PUSH1 0x20 MSTORE PUSH1 0x40 SWAP1 KECCAK256 PUSH2 0x2E47 JUMP JUMPDEST PUSH1 0xC JUMPDEST SWAP1 POP PUSH0 JUMPDEST DUP2 SLOAD DUP2 LT ISZERO PUSH2 0x2F72 JUMPI DUP6 PUSH1 0x1 PUSH1 0x1 PUSH1 0xA0 SHL SUB AND DUP3 DUP3 DUP2 SLOAD DUP2 LT PUSH2 0x2E70 JUMPI PUSH2 0x2E70 PUSH2 0x4B62 JUMP JUMPDEST PUSH0 SWAP2 DUP3 MSTORE PUSH1 0x20 SWAP1 SWAP2 KECCAK256 PUSH1 0x4 SWAP1 SWAP2 MUL ADD SLOAD PUSH1 0x1 PUSH1 0x1 PUSH1 0xA0 SHL SUB AND SUB PUSH2 0x2F6A JUMPI PUSH0 JUMPDEST DUP3 DUP3 DUP2 SLOAD DUP2 LT PUSH2 0x2EA2 JUMPI PUSH2 0x2EA2 PUSH2 0x4B62 JUMP JUMPDEST SWAP1 PUSH0 MSTORE PUSH1 0x20 PUSH0 KECCAK256 SWAP1 PUSH1 0x4 MUL ADD PUSH1 0x1 ADD DUP1 SLOAD SWAP1 POP DUP2 LT ISZERO PUSH2 0x2F68 JUMPI DUP6 DUP4 DUP4 DUP2 SLOAD DUP2 LT PUSH2 0x2ECF JUMPI PUSH2 0x2ECF PUSH2 0x4B62 JUMP JUMPDEST SWAP1 PUSH0 MSTORE PUSH1 0x20 PUSH0 KECCAK256 SWAP1 PUSH1 0x4 MUL ADD PUSH1 0x1 ADD DUP3 DUP2 SLOAD DUP2 LT PUSH2 0x2EEF JUMPI PUSH2 0x2EEF PUSH2 0x4B62 JUMP JUMPDEST SWAP1 PUSH0 MSTORE PUSH1 0x20 PUSH0 KECCAK256 ADD SLOAD SUB PUSH2 0x2F60 JUMPI PUSH2 0x2F24 DUP4 DUP4 DUP2 SLOAD DUP2 LT PUSH2 0x2F12 JUMPI PUSH2 0x2F12 PUSH2 0x4B62 JUMP JUMPDEST SWAP1 PUSH0 MSTORE PUSH1 0x20 PUSH0 KECCAK256 SWAP1 PUSH1 0x4 MUL ADD DUP3 PUSH2 0x37F8 JUMP JUMPDEST DUP3 DUP3 DUP2 SLOAD DUP2 LT PUSH2 0x2F36 JUMPI PUSH2 0x2F36 PUSH2 0x4B62 JUMP JUMPDEST PUSH0 SWAP2 DUP3 MSTORE PUSH1 0x20 DUP3 KECCAK256 PUSH1 0x1 PUSH1 0x4 SWAP1 SWAP3 MUL ADD ADD SLOAD SWAP1 SUB PUSH2 0x2F58 JUMPI PUSH2 0x2F58 DUP4 DUP4 PUSH2 0x3979 JUMP JUMPDEST POP POP POP PUSH2 0x15FF JUMP JUMPDEST PUSH1 0x1 ADD PUSH2 0x2E90 JUMP JUMPDEST POP JUMPDEST PUSH1 0x1 ADD PUSH2 0x2E4B JUMP JUMPDEST POP POP POP POP POP POP JUMP JUMPDEST PUSH1 0x8 DUP2 DUP2 SLOAD DUP2 LT PUSH2 0x2F89 JUMPI PUSH0 DUP1 REVERT JUMPDEST SWAP1 PUSH0 MSTORE PUSH1 0x20 PUSH0 KECCAK256 SWAP1 PUSH1 0x6 MUL ADD PUSH0 SWAP2 POP SWAP1 POP DUP1 PUSH0 ADD DUP1 SLOAD PUSH2 0x27BC SWAP1 PUSH2 0x4B94 JUMP JUMPDEST PUSH1 0x40 DUP1 MLOAD PUSH1 0x60 DUP2 DUP2 ADD DUP4 MSTORE PUSH0 DUP1 DUP4 MSTORE PUSH1 0x20 DUP4 ADD MSTORE SWAP2 DUP2 ADD DUP3 SWAP1 MSTORE CALLER PUSH0 SWAP1 DUP2 MSTORE PUSH1 0x13 PUSH1 0x20 MSTORE PUSH1 0x40 SWAP1 KECCAK256 SLOAD PUSH1 0x60 SWAP1 PUSH1 0xFF AND PUSH2 0x2FF3 JUMPI PUSH1 0x40 MLOAD PUSH3 0x461BCD PUSH1 0xE5 SHL DUP2 MSTORE PUSH1 0x4 ADD PUSH2 0x9BB SWAP1 PUSH2 0x49B2 JUMP JUMPDEST PUSH1 0x16 SLOAD PUSH1 0x40 MLOAD PUSH4 0xC78D3E1 PUSH1 0xE3 SHL DUP2 MSTORE PUSH1 0x1 PUSH1 0x1 PUSH1 0xA0 SHL SUB DUP7 DUP2 AND PUSH1 0x4 DUP4 ADD MSTORE SWAP1 SWAP2 AND SWAP1 PUSH4 0x63C69F08 SWAP1 PUSH1 0x24 ADD PUSH0 PUSH1 0x40 MLOAD DUP1 DUP4 SUB DUP2 DUP7 GAS STATICCALL ISZERO DUP1 ISZERO PUSH2 0x303A JUMPI RETURNDATASIZE PUSH0 DUP1 RETURNDATACOPY RETURNDATASIZE PUSH0 REVERT JUMPDEST POP POP POP POP PUSH1 0x40 MLOAD RETURNDATASIZE PUSH0 DUP3 RETURNDATACOPY PUSH1 0x1F RETURNDATASIZE SWAP1 DUP2 ADD PUSH1 0x1F NOT AND DUP3 ADD PUSH1 0x40 MSTORE PUSH2 0x3061 SWAP2 SWAP1 DUP2 ADD SWAP1 PUSH2 0x5637 JUMP JUMPDEST PUSH1 0x16 SLOAD PUSH1 0x40 MLOAD PUSH4 0xFED4851 PUSH1 0xE1 SHL DUP2 MSTORE PUSH1 0x1 PUSH1 0x1 PUSH1 0xA0 SHL SUB DUP8 DUP2 AND PUSH1 0x4 DUP4 ADD MSTORE SWAP3 SWAP6 POP SWAP2 AND SWAP1 PUSH4 0x1FDA90A2 SWAP1 PUSH1 0x24 ADD PUSH0 PUSH1 0x40 MLOAD DUP1 DUP4 SUB DUP2 DUP7 GAS STATICCALL ISZERO DUP1 ISZERO PUSH2 0x30AA JUMPI RETURNDATASIZE PUSH0 DUP1 RETURNDATACOPY RETURNDATASIZE PUSH0 REVERT JUMPDEST POP POP POP POP PUSH1 0x40 MLOAD RETURNDATASIZE PUSH0 DUP3 RETURNDATACOPY PUSH1 0x1F RETURNDATASIZE SWAP1 DUP2 ADD PUSH1 0x1F NOT AND DUP3 ADD PUSH1 0x40 MSTORE PUSH2 0x30D1 SWAP2 SWAP1 DUP2 ADD SWAP1 PUSH2 0x599E JUMP JUMPDEST PUSH1 0x17 SLOAD PUSH1 0x40 MLOAD PUSH4 0x18F0A629 PUSH1 0xE3 SHL DUP2 MSTORE PUSH1 0x1 PUSH1 0x1 PUSH1 0xA0 SHL SUB DUP8 DUP2 AND PUSH1 0x4 DUP4 ADD MSTORE SWAP3 SWAP5 POP SWAP2 AND SWAP1 PUSH4 0xC7853148 SWAP1 PUSH1 0x24 ADD PUSH0 PUSH1 0x40 MLOAD DUP1 DUP4 SUB DUP2 DUP7 GAS STATICCALL ISZERO DUP1 ISZERO PUSH2 0x311A JUMPI RETURNDATASIZE PUSH0 DUP1 RETURNDATACOPY RETURNDATASIZE PUSH0 REVERT JUMPDEST POP POP POP POP PUSH1 0x40 MLOAD RETURNDATASIZE PUSH0 DUP3 RETURNDATACOPY PUSH1 0x1F RETURNDATASIZE SWAP1 DUP2 ADD PUSH1 0x1F NOT AND DUP3 ADD PUSH1 0x40 MSTORE PUSH2 0x3141 SWAP2 SWAP1 DUP2 ADD SWAP1 PUSH2 0x5AC3 JUMP JUMPDEST SWAP3 SWAP5 SWAP2 SWAP4 POP POP JUMP JUMPDEST PUSH0 DUP1 SLOAD SWAP1 DUP1 PUSH2 0x3157 DUP4 PUSH2 0x4ACC JUMP JUMPDEST SWAP1 SWAP2 SSTORE POP POP PUSH1 0x1 PUSH1 0x1 PUSH1 0xA0 SHL SUB DUP2 AND PUSH0 SWAP1 DUP2 MSTORE PUSH1 0x6 PUSH1 0x20 MSTORE PUSH1 0x40 DUP2 KECCAK256 DUP1 SLOAD SWAP2 PUSH2 0x277B DUP4 PUSH2 0x4ACC JUMP JUMPDEST CALLER PUSH0 SWAP1 DUP2 MSTORE PUSH1 0x9 PUSH1 0x20 SWAP1 DUP2 MSTORE PUSH1 0x40 DUP1 DUP4 KECCAK256 DUP1 SLOAD DUP3 MLOAD DUP2 DUP6 MUL DUP2 ADD DUP6 ADD SWAP1 SWAP4 MSTORE DUP1 DUP4 MSTORE PUSH1 0x60 SWAP5 SWAP3 SWAP4 SWAP2 SWAP3 SWAP1 SWAP2 DUP5 ADD JUMPDEST DUP3 DUP3 LT ISZERO PUSH2 0xB07 JUMPI DUP4 DUP3 SWAP1 PUSH0 MSTORE PUSH1 0x20 PUSH0 KECCAK256 SWAP1 PUSH1 0x6 MUL ADD PUSH1 0x40 MLOAD DUP1 PUSH1 0xE0 ADD PUSH1 0x40 MSTORE SWAP1 DUP2 PUSH0 DUP3 ADD DUP1 SLOAD PUSH2 0x31DD SWAP1 PUSH2 0x4B94 JUMP JUMPDEST DUP1 PUSH1 0x1F ADD PUSH1 0x20 DUP1 SWAP2 DIV MUL PUSH1 0x20 ADD PUSH1 0x40 MLOAD SWAP1 DUP2 ADD PUSH1 0x40 MSTORE DUP1 SWAP3 SWAP2 SWAP1 DUP2 DUP2 MSTORE PUSH1 0x20 ADD DUP3 DUP1 SLOAD PUSH2 0x3209 SWAP1 PUSH2 0x4B94 JUMP JUMPDEST DUP1 ISZERO PUSH2 0x3254 JUMPI DUP1 PUSH1 0x1F LT PUSH2 0x322B JUMPI PUSH2 0x100 DUP1 DUP4 SLOAD DIV MUL DUP4 MSTORE SWAP2 PUSH1 0x20 ADD SWAP2 PUSH2 0x3254 JUMP JUMPDEST DUP3 ADD SWAP2 SWAP1 PUSH0 MSTORE PUSH1 0x20 PUSH0 KECCAK256 SWAP1 JUMPDEST DUP2 SLOAD DUP2 MSTORE SWAP1 PUSH1 0x1 ADD SWAP1 PUSH1 0x20 ADD DUP1 DUP4 GT PUSH2 0x3237 JUMPI DUP3 SWAP1 SUB PUSH1 0x1F AND DUP3 ADD SWAP2 JUMPDEST POP POP POP SWAP2 DUP4 MSTORE POP POP PUSH1 0x1 DUP3 ADD SLOAD PUSH1 0xFF DUP2 AND PUSH1 0x20 DUP4 ADD MSTORE PUSH2 0x100 SWAP1 DIV PUSH1 0x1 PUSH1 0x1 PUSH1 0xA0 SHL SUB AND PUSH1 0x40 DUP3 ADD MSTORE PUSH1 0x2 DUP3 ADD DUP1 SLOAD PUSH1 0x60 SWAP1 SWAP3 ADD SWAP2 PUSH2 0x3292 SWAP1 PUSH2 0x4B94 JUMP JUMPDEST DUP1 PUSH1 0x1F ADD PUSH1 0x20 DUP1 SWAP2 DIV MUL PUSH1 0x20 ADD PUSH1 0x40 MLOAD SWAP1 DUP2 ADD PUSH1 0x40 MSTORE DUP1 SWAP3 SWAP2 SWAP1 DUP2 DUP2 MSTORE PUSH1 0x20 ADD DUP3 DUP1 SLOAD PUSH2 0x32BE SWAP1 PUSH2 0x4B94 JUMP JUMPDEST DUP1 ISZERO PUSH2 0x3309 JUMPI DUP1 PUSH1 0x1F LT PUSH2 0x32E0 JUMPI PUSH2 0x100 DUP1 DUP4 SLOAD DIV MUL DUP4 MSTORE SWAP2 PUSH1 0x20 ADD SWAP2 PUSH2 0x3309 JUMP JUMPDEST DUP3 ADD SWAP2 SWAP1 PUSH0 MSTORE PUSH1 0x20 PUSH0 KECCAK256 SWAP1 JUMPDEST DUP2 SLOAD DUP2 MSTORE SWAP1 PUSH1 0x1 ADD SWAP1 PUSH1 0x20 ADD DUP1 DUP4 GT PUSH2 0x32EC JUMPI DUP3 SWAP1 SUB PUSH1 0x1F AND DUP3 ADD SWAP2 JUMPDEST POP POP POP POP POP DUP2 MSTORE PUSH1 0x20 ADD PUSH1 0x3 DUP3 ADD SLOAD DUP2 MSTORE PUSH1 0x20 ADD PUSH1 0x4 DUP3 ADD DUP1 SLOAD DUP1 PUSH1 0x20 MUL PUSH1 0x20 ADD PUSH1 0x40 MLOAD SWAP1 DUP2 ADD PUSH1 0x40 MSTORE DUP1 SWAP3 SWAP2 SWAP1 DUP2 DUP2 MSTORE PUSH1 0x20 ADD DUP3 DUP1 SLOAD DUP1 ISZERO PUSH2 0x3369 JUMPI PUSH1 0x20 MUL DUP3 ADD SWAP2 SWAP1 PUSH0 MSTORE PUSH1 0x20 PUSH0 KECCAK256 SWAP1 JUMPDEST DUP2 SLOAD DUP2 MSTORE PUSH1 0x20 ADD SWAP1 PUSH1 0x1 ADD SWAP1 DUP1 DUP4 GT PUSH2 0x3355 JUMPI JUMPDEST POP POP POP POP POP DUP2 MSTORE PUSH1 0x20 ADD PUSH1 0x5 DUP3 ADD DUP1 SLOAD DUP1 PUSH1 0x20 MUL PUSH1 0x20 ADD PUSH1 0x40 MLOAD SWAP1 DUP2 ADD PUSH1 0x40 MSTORE DUP1 SWAP3 SWAP2 SWAP1 DUP2 DUP2 MSTORE PUSH1 0x20 ADD DUP3 DUP1 SLOAD DUP1 ISZERO PUSH2 0x33BF JUMPI PUSH1 0x20 MUL DUP3 ADD SWAP2 SWAP1 PUSH0 MSTORE PUSH1 0x20 PUSH0 KECCAK256 SWAP1 JUMPDEST DUP2 SLOAD DUP2 MSTORE PUSH1 0x20 ADD SWAP1 PUSH1 0x1 ADD SWAP1 DUP1 DUP4 GT PUSH2 0x33AB JUMPI JUMPDEST POP POP POP POP POP DUP2 MSTORE POP POP DUP2 MSTORE PUSH1 0x20 ADD SWAP1 PUSH1 0x1 ADD SWAP1 PUSH2 0x31AD JUMP JUMPDEST CALLER PUSH0 SWAP1 DUP2 MSTORE PUSH1 0x13 PUSH1 0x20 MSTORE PUSH1 0x40 SWAP1 KECCAK256 SLOAD PUSH1 0x60 SWAP1 PUSH1 0xFF AND PUSH2 0x3408 JUMPI PUSH1 0x40 MLOAD PUSH3 0x461BCD PUSH1 0xE5 SHL DUP2 MSTORE PUSH1 0x4 ADD PUSH2 0x9BB SWAP1 PUSH2 0x49B2 JUMP JUMPDEST PUSH1 0x12 DUP1 SLOAD DUP1 PUSH1 0x20 MUL PUSH1 0x20 ADD PUSH1 0x40 MLOAD SWAP1 DUP2 ADD PUSH1 0x40 MSTORE DUP1 SWAP3 SWAP2 SWAP1 DUP2 DUP2 MSTORE PUSH1 0x20 ADD DUP3 DUP1 SLOAD DUP1 ISZERO PUSH2 0x3452 JUMPI PUSH1 0x20 MUL DUP3 ADD SWAP2 SWAP1 PUSH0 MSTORE PUSH1 0x20 PUSH0 KECCAK256 SWAP1 JUMPDEST DUP2 SLOAD DUP2 MSTORE PUSH1 0x20 ADD SWAP1 PUSH1 0x1 ADD SWAP1 DUP1 DUP4 GT PUSH2 0x343E JUMPI JUMPDEST POP POP POP POP POP SWAP1 POP SWAP1 JUMP JUMPDEST PUSH1 0x3 DUP1 SLOAD SWAP1 PUSH0 PUSH2 0x169F DUP4 PUSH2 0x4ACC JUMP JUMPDEST PUSH1 0x4 DUP1 SLOAD SWAP1 PUSH0 PUSH2 0x169F DUP4 PUSH2 0x4ACC JUMP JUMPDEST PUSH1 0x1 DUP1 SLOAD SWAP1 PUSH0 PUSH2 0x3489 DUP4 PUSH2 0x4ACC JUMP JUMPDEST SWAP1 SWAP2 SSTORE POP POP PUSH1 0x1 PUSH1 0x1 PUSH1 0xA0 SHL SUB DUP2 AND PUSH0 SWAP1 DUP2 MSTORE PUSH1 0x7 PUSH1 0x20 MSTORE PUSH1 0x40 DUP2 KECCAK256 DUP1 SLOAD SWAP2 PUSH2 0x277B DUP4 PUSH2 0x4ACC JUMP JUMPDEST PUSH1 0x60 PUSH0 PUSH2 0x34BD DUP4 PUSH2 0x3AD2 JUMP JUMPDEST PUSH1 0x1 ADD SWAP1 POP PUSH0 DUP2 PUSH1 0x1 PUSH1 0x1 PUSH1 0x40 SHL SUB DUP2 GT ISZERO PUSH2 0x34DB JUMPI PUSH2 0x34DB PUSH2 0x3F69 JUMP JUMPDEST PUSH1 0x40 MLOAD SWAP1 DUP1 DUP3 MSTORE DUP1 PUSH1 0x1F ADD PUSH1 0x1F NOT AND PUSH1 0x20 ADD DUP3 ADD PUSH1 0x40 MSTORE DUP1 ISZERO PUSH2 0x3505 JUMPI PUSH1 0x20 DUP3 ADD DUP2 DUP1 CALLDATASIZE DUP4 CALLDATACOPY ADD SWAP1 POP JUMPDEST POP SWAP1 POP DUP2 DUP2 ADD PUSH1 0x20 ADD JUMPDEST PUSH0 NOT ADD PUSH16 0x181899199A1A9B1B9C1CB0B131B232B3 PUSH1 0x81 SHL PUSH1 0xA DUP7 MOD BYTE DUP2 MSTORE8 PUSH1 0xA DUP6 DIV SWAP5 POP DUP5 PUSH2 0x350F JUMPI POP SWAP4 SWAP3 POP POP POP JUMP JUMPDEST PUSH0 DUP2 MLOAD DUP4 MLOAD EQ DUP1 ISZERO PUSH2 0x355F JUMPI POP DUP2 DUP1 MLOAD SWAP1 PUSH1 0x20 ADD KECCAK256 DUP4 DUP1 MLOAD SWAP1 PUSH1 0x20 ADD KECCAK256 EQ JUMPDEST SWAP4 SWAP3 POP POP POP JUMP JUMPDEST PUSH1 0x40 DUP1 MLOAD PUSH1 0xA0 DUP2 ADD DUP3 MSTORE PUSH0 DUP1 DUP3 MSTORE PUSH1 0x20 DUP3 ADD DUP2 SWAP1 MSTORE PUSH1 0x60 DUP3 DUP5 ADD DUP2 SWAP1 MSTORE DUP1 DUP4 ADD DUP2 SWAP1 MSTORE PUSH1 0x80 DUP4 ADD MSTORE DUP3 MLOAD PUSH1 0x1 DUP1 DUP3 MSTORE DUP2 DUP6 ADD SWAP1 SWAP5 MSTORE SWAP2 SWAP3 SWAP1 SWAP2 SWAP1 DUP2 PUSH1 0x20 ADD PUSH1 0x20 DUP3 MUL DUP1 CALLDATASIZE DUP4 CALLDATACOPY POP POP PUSH1 0x40 DUP1 MLOAD PUSH1 0x1 DUP1 DUP3 MSTORE DUP2 DUP4 ADD SWAP1 SWAP3 MSTORE SWAP3 SWAP4 POP PUSH0 SWAP3 SWAP2 POP PUSH1 0x20 DUP1 DUP4 ADD SWAP1 DUP1 CALLDATASIZE DUP4 CALLDATACOPY POP POP PUSH1 0x40 DUP1 MLOAD PUSH1 0x1 DUP1 DUP3 MSTORE DUP2 DUP4 ADD SWAP1 SWAP3 MSTORE SWAP3 SWAP4 POP PUSH0 SWAP3 SWAP2 POP PUSH1 0x20 DUP1 DUP4 ADD SWAP1 DUP1 CALLDATASIZE DUP4 CALLDATACOPY ADD SWAP1 POP POP SWAP1 POP DUP7 DUP4 PUSH0 DUP2 MLOAD DUP2 LT PUSH2 0x3609 JUMPI PUSH2 0x3609 PUSH2 0x4B62 JUMP JUMPDEST PUSH1 0x20 MUL PUSH1 0x20 ADD ADD DUP2 DUP2 MSTORE POP POP DUP6 DUP3 PUSH0 DUP2 MLOAD DUP2 LT PUSH2 0x3628 JUMPI PUSH2 0x3628 PUSH2 0x4B62 JUMP JUMPDEST PUSH1 0x20 MUL PUSH1 0x20 ADD ADD DUP2 DUP2 MSTORE POP POP TIMESTAMP DUP2 PUSH0 DUP2 MLOAD DUP2 LT PUSH2 0x3647 JUMPI PUSH2 0x3647 PUSH2 0x4B62 JUMP JUMPDEST PUSH1 0x20 MUL PUSH1 0x20 ADD ADD DUP2 DUP2 MSTORE POP POP PUSH0 PUSH1 0x40 MLOAD DUP1 PUSH1 0xA0 ADD PUSH1 0x40 MSTORE DUP1 CALLER PUSH1 0x1 PUSH1 0x1 PUSH1 0xA0 SHL SUB AND DUP2 MSTORE PUSH1 0x20 ADD DUP8 PUSH1 0x1 DUP2 GT ISZERO PUSH2 0x3680 JUMPI PUSH2 0x3680 PUSH2 0x5B6E JUMP JUMPDEST PUSH1 0xFF AND DUP2 MSTORE PUSH1 0x20 DUP2 ADD SWAP6 SWAP1 SWAP6 MSTORE PUSH1 0x40 DUP6 ADD SWAP4 SWAP1 SWAP4 MSTORE POP PUSH1 0x60 SWAP1 SWAP3 ADD SWAP2 SWAP1 SWAP2 MSTORE SWAP5 SWAP4 POP POP POP POP JUMP JUMPDEST PUSH1 0x60 PUSH0 DUP3 MLOAD PUSH1 0x1 PUSH1 0x1 PUSH1 0x40 SHL SUB DUP2 GT ISZERO PUSH2 0x36C3 JUMPI PUSH2 0x36C3 PUSH2 0x3F69 JUMP JUMPDEST PUSH1 0x40 MLOAD SWAP1 DUP1 DUP3 MSTORE DUP1 PUSH1 0x20 MUL PUSH1 0x20 ADD DUP3 ADD PUSH1 0x40 MSTORE DUP1 ISZERO PUSH2 0x36F6 JUMPI DUP2 PUSH1 0x20 ADD JUMPDEST PUSH1 0x60 DUP2 MSTORE PUSH1 0x20 ADD SWAP1 PUSH1 0x1 SWAP1 SUB SWAP1 DUP2 PUSH2 0x36E1 JUMPI SWAP1 POP JUMPDEST POP SWAP1 POP PUSH0 JUMPDEST DUP4 MLOAD DUP2 LT ISZERO PUSH2 0x37CF JUMPI PUSH1 0x18 SLOAD DUP5 MLOAD PUSH0 SWAP2 PUSH1 0x1 PUSH1 0x1 PUSH1 0xA0 SHL SUB AND SWAP1 PUSH4 0x6386C1C7 SWAP1 DUP8 SWAP1 DUP6 SWAP1 DUP2 LT PUSH2 0x372D JUMPI PUSH2 0x372D PUSH2 0x4B62 JUMP JUMPDEST PUSH1 0x20 MUL PUSH1 0x20 ADD ADD MLOAD PUSH1 0x40 MLOAD DUP3 PUSH4 0xFFFFFFFF AND PUSH1 0xE0 SHL DUP2 MSTORE PUSH1 0x4 ADD PUSH2 0x3760 SWAP2 SWAP1 PUSH1 0x1 PUSH1 0x1 PUSH1 0xA0 SHL SUB SWAP2 SWAP1 SWAP2 AND DUP2 MSTORE PUSH1 0x20 ADD SWAP1 JUMP JUMPDEST PUSH0 PUSH1 0x40 MLOAD DUP1 DUP4 SUB DUP2 DUP7 GAS STATICCALL ISZERO DUP1 ISZERO PUSH2 0x377A JUMPI RETURNDATASIZE PUSH0 DUP1 RETURNDATACOPY RETURNDATASIZE PUSH0 REVERT JUMPDEST POP POP POP POP PUSH1 0x40 MLOAD RETURNDATASIZE PUSH0 DUP3 RETURNDATACOPY PUSH1 0x1F RETURNDATASIZE SWAP1 DUP2 ADD PUSH1 0x1F NOT AND DUP3 ADD PUSH1 0x40 MSTORE PUSH2 0x37A1 SWAP2 SWAP1 DUP2 ADD SWAP1 PUSH2 0x54D1 JUMP JUMPDEST POP SWAP1 POP DUP1 PUSH1 0x20 ADD MLOAD DUP4 DUP4 DUP2 MLOAD DUP2 LT PUSH2 0x37BB JUMPI PUSH2 0x37BB PUSH2 0x4B62 JUMP JUMPDEST PUSH1 0x20 SWAP1 DUP2 MUL SWAP2 SWAP1 SWAP2 ADD ADD MSTORE POP PUSH1 0x1 ADD PUSH2 0x36FB JUMP JUMPDEST POP DUP1 PUSH1 0x40 MLOAD PUSH1 0x20 ADD PUSH2 0x37E1 SWAP2 SWAP1 PUSH2 0x5B82 JUMP JUMPDEST PUSH1 0x40 MLOAD PUSH1 0x20 DUP2 DUP4 SUB SUB DUP2 MSTORE SWAP1 PUSH1 0x40 MSTORE SWAP2 POP POP SWAP2 SWAP1 POP JUMP JUMPDEST PUSH1 0x1 DUP3 ADD SLOAD DUP2 LT PUSH2 0x3807 JUMPI POP POP JUMP JUMPDEST DUP1 JUMPDEST PUSH1 0x1 DUP4 DUP2 ADD SLOAD PUSH2 0x3819 SWAP2 SWAP1 PUSH2 0x5002 JUMP JUMPDEST DUP2 LT ISZERO PUSH2 0x3902 JUMPI DUP3 PUSH1 0x1 ADD DUP2 PUSH1 0x1 PUSH2 0x3831 SWAP2 SWAP1 PUSH2 0x5BE5 JUMP JUMPDEST DUP2 SLOAD DUP2 LT PUSH2 0x3841 JUMPI PUSH2 0x3841 PUSH2 0x4B62 JUMP JUMPDEST SWAP1 PUSH0 MSTORE PUSH1 0x20 PUSH0 KECCAK256 ADD SLOAD DUP4 PUSH1 0x1 ADD DUP3 DUP2 SLOAD DUP2 LT PUSH2 0x385F JUMPI PUSH2 0x385F PUSH2 0x4B62 JUMP JUMPDEST PUSH0 SWAP2 DUP3 MSTORE PUSH1 0x20 SWAP1 SWAP2 KECCAK256 ADD SSTORE PUSH1 0x2 DUP4 ADD PUSH2 0x3879 DUP3 PUSH1 0x1 PUSH2 0x5BE5 JUMP JUMPDEST DUP2 SLOAD DUP2 LT PUSH2 0x3889 JUMPI PUSH2 0x3889 PUSH2 0x4B62 JUMP JUMPDEST SWAP1 PUSH0 MSTORE PUSH1 0x20 PUSH0 KECCAK256 ADD SLOAD DUP4 PUSH1 0x2 ADD DUP3 DUP2 SLOAD DUP2 LT PUSH2 0x38A7 JUMPI PUSH2 0x38A7 PUSH2 0x4B62 JUMP JUMPDEST PUSH0 SWAP2 DUP3 MSTORE PUSH1 0x20 SWAP1 SWAP2 KECCAK256 ADD SSTORE PUSH1 0x3 DUP4 ADD PUSH2 0x38C1 DUP3 PUSH1 0x1 PUSH2 0x5BE5 JUMP JUMPDEST DUP2 SLOAD DUP2 LT PUSH2 0x38D1 JUMPI PUSH2 0x38D1 PUSH2 0x4B62 JUMP JUMPDEST SWAP1 PUSH0 MSTORE PUSH1 0x20 PUSH0 KECCAK256 ADD SLOAD DUP4 PUSH1 0x3 ADD DUP3 DUP2 SLOAD DUP2 LT PUSH2 0x38EF JUMPI PUSH2 0x38EF PUSH2 0x4B62 JUMP JUMPDEST PUSH0 SWAP2 DUP3 MSTORE PUSH1 0x20 SWAP1 SWAP2 KECCAK256 ADD SSTORE PUSH1 0x1 ADD PUSH2 0x3809 JUMP JUMPDEST POP DUP2 PUSH1 0x1 ADD DUP1 SLOAD DUP1 PUSH2 0x3916 JUMPI PUSH2 0x3916 PUSH2 0x5135 JUMP JUMPDEST PUSH1 0x1 SWAP1 SUB DUP2 DUP2 SWAP1 PUSH0 MSTORE PUSH1 0x20 PUSH0 KECCAK256 ADD PUSH0 SWAP1 SSTORE SWAP1 SSTORE DUP2 PUSH1 0x2 ADD DUP1 SLOAD DUP1 PUSH2 0x393C JUMPI PUSH2 0x393C PUSH2 0x5135 JUMP JUMPDEST PUSH1 0x1 SWAP1 SUB DUP2 DUP2 SWAP1 PUSH0 MSTORE PUSH1 0x20 PUSH0 KECCAK256 ADD PUSH0 SWAP1 SSTORE SWAP1 SSTORE DUP2 PUSH1 0x3 ADD DUP1 SLOAD DUP1 PUSH2 0x3962 JUMPI PUSH2 0x3962 PUSH2 0x5135 JUMP JUMPDEST PUSH1 0x1 SWAP1 SUB DUP2 DUP2 SWAP1 PUSH0 MSTORE PUSH1 0x20 PUSH0 KECCAK256 ADD PUSH0 SWAP1 SSTORE SWAP1 SSTORE POP POP JUMP JUMPDEST DUP2 SLOAD DUP2 LT PUSH2 0x3985 JUMPI POP POP JUMP JUMPDEST DUP1 JUMPDEST DUP3 SLOAD PUSH2 0x3995 SWAP1 PUSH1 0x1 SWAP1 PUSH2 0x5002 JUMP JUMPDEST DUP2 LT ISZERO PUSH2 0x3A70 JUMPI DUP3 PUSH2 0x39A8 DUP3 PUSH1 0x1 PUSH2 0x5BE5 JUMP JUMPDEST DUP2 SLOAD DUP2 LT PUSH2 0x39B8 JUMPI PUSH2 0x39B8 PUSH2 0x4B62 JUMP JUMPDEST SWAP1 PUSH0 MSTORE PUSH1 0x20 PUSH0 KECCAK256 SWAP1 PUSH1 0x4 MUL ADD DUP4 DUP3 DUP2 SLOAD DUP2 LT PUSH2 0x39D6 JUMPI PUSH2 0x39D6 PUSH2 0x4B62 JUMP JUMPDEST PUSH0 SWAP2 DUP3 MSTORE PUSH1 0x20 SWAP1 SWAP2 KECCAK256 DUP3 SLOAD PUSH1 0x4 SWAP1 SWAP3 MUL ADD DUP1 SLOAD PUSH1 0x1 PUSH1 0x1 PUSH1 0xA0 SHL SUB SWAP1 SWAP3 AND PUSH1 0x1 PUSH1 0x1 PUSH1 0xA0 SHL SUB NOT DUP4 AND DUP2 OR DUP3 SSTORE DUP4 SLOAD PUSH1 0x1 PUSH1 0x1 PUSH1 0xA8 SHL SUB NOT SWAP1 SWAP4 AND OR PUSH1 0x1 PUSH1 0xA0 SHL SWAP3 DUP4 SWAP1 DIV PUSH1 0xFF AND SWAP1 SWAP3 MUL SWAP2 SWAP1 SWAP2 OR DUP2 SSTORE PUSH1 0x1 DUP1 DUP4 ADD DUP1 SLOAD PUSH2 0x3A3B SWAP3 DUP5 ADD SWAP2 SWAP1 PUSH2 0x3BA9 JUMP JUMPDEST POP PUSH1 0x2 DUP3 DUP2 ADD DUP1 SLOAD PUSH2 0x3A50 SWAP3 DUP5 ADD SWAP2 SWAP1 PUSH2 0x3BA9 JUMP JUMPDEST POP PUSH1 0x3 DUP3 DUP2 ADD DUP1 SLOAD PUSH2 0x3A65 SWAP3 DUP5 ADD SWAP2 SWAP1 PUSH2 0x3BA9 JUMP JUMPDEST POP POP POP PUSH1 0x1 ADD PUSH2 0x3987 JUMP JUMPDEST POP DUP2 DUP1 SLOAD DUP1 PUSH2 0x3A81 JUMPI PUSH2 0x3A81 PUSH2 0x5135 JUMP JUMPDEST PUSH0 DUP3 DUP2 MSTORE PUSH1 0x20 DUP2 KECCAK256 PUSH1 0x4 PUSH0 NOT SWAP1 SWAP4 ADD SWAP3 DUP4 MUL ADD DUP1 SLOAD PUSH1 0x1 PUSH1 0x1 PUSH1 0xA8 SHL SUB NOT AND DUP2 SSTORE SWAP1 PUSH2 0x3AB0 PUSH1 0x1 DUP4 ADD DUP3 PUSH2 0x3C2F JUMP JUMPDEST PUSH2 0x3ABD PUSH1 0x2 DUP4 ADD PUSH0 PUSH2 0x3C2F JUMP JUMPDEST PUSH2 0x3ACA PUSH1 0x3 DUP4 ADD PUSH0 PUSH2 0x3C2F JUMP JUMPDEST POP POP SWAP1 SSTORE POP POP JUMP JUMPDEST PUSH0 DUP1 PUSH19 0x184F03E93FF9F4DAA797ED6E38ED64BF6A1F01 PUSH1 0x40 SHL DUP4 LT PUSH2 0x3B10 JUMPI PUSH19 0x184F03E93FF9F4DAA797ED6E38ED64BF6A1F01 PUSH1 0x40 SHL DUP4 DIV SWAP3 POP PUSH1 0x40 ADD JUMPDEST PUSH14 0x4EE2D6D415B85ACEF8100000000 DUP4 LT PUSH2 0x3B3C JUMPI PUSH14 0x4EE2D6D415B85ACEF8100000000 DUP4 DIV SWAP3 POP PUSH1 0x20 ADD JUMPDEST PUSH7 0x2386F26FC10000 DUP4 LT PUSH2 0x3B5A JUMPI PUSH7 0x2386F26FC10000 DUP4 DIV SWAP3 POP PUSH1 0x10 ADD JUMPDEST PUSH4 0x5F5E100 DUP4 LT PUSH2 0x3B72 JUMPI PUSH4 0x5F5E100 DUP4 DIV SWAP3 POP PUSH1 0x8 ADD JUMPDEST PUSH2 0x2710 DUP4 LT PUSH2 0x3B86 JUMPI PUSH2 0x2710 DUP4 DIV SWAP3 POP PUSH1 0x4 ADD JUMPDEST PUSH1 0x64 DUP4 LT PUSH2 0x3B98 JUMPI PUSH1 0x64 DUP4 DIV SWAP3 POP PUSH1 0x2 ADD JUMPDEST PUSH1 0xA DUP4 LT PUSH2 0xA91 JUMPI PUSH1 0x1 ADD SWAP3 SWAP2 POP POP JUMP JUMPDEST DUP3 DUP1 SLOAD DUP3 DUP3 SSTORE SWAP1 PUSH0 MSTORE PUSH1 0x20 PUSH0 KECCAK256 SWAP1 DUP2 ADD SWAP3 DUP3 ISZERO PUSH2 0x3BE5 JUMPI PUSH0 MSTORE PUSH1 0x20 PUSH0 KECCAK256 SWAP2 DUP3 ADD JUMPDEST DUP3 DUP2 GT ISZERO PUSH2 0x3BE5 JUMPI DUP3 SLOAD DUP3 SSTORE SWAP2 PUSH1 0x1 ADD SWAP2 SWAP1 PUSH1 0x1 ADD SWAP1 PUSH2 0x3BCA JUMP JUMPDEST POP PUSH2 0x3BF1 SWAP3 SWAP2 POP PUSH2 0x3C83 JUMP JUMPDEST POP SWAP1 JUMP JUMPDEST POP DUP1 SLOAD PUSH2 0x3C01 SWAP1 PUSH2 0x4B94 JUMP JUMPDEST PUSH0 DUP3 SSTORE DUP1 PUSH1 0x1F LT PUSH2 0x3C10 JUMPI POP POP JUMP JUMPDEST PUSH1 0x1F ADD PUSH1 0x20 SWAP1 DIV SWAP1 PUSH0 MSTORE PUSH1 0x20 PUSH0 KECCAK256 SWAP1 DUP2 ADD SWAP1 PUSH2 0x3C2C SWAP2 SWAP1 PUSH2 0x3C83 JUMP JUMPDEST POP JUMP JUMPDEST POP DUP1 SLOAD PUSH0 DUP3 SSTORE SWAP1 PUSH0 MSTORE PUSH1 0x20 PUSH0 KECCAK256 SWAP1 DUP2 ADD SWAP1 PUSH2 0x3C2C SWAP2 SWAP1 PUSH2 0x3C83 JUMP JUMPDEST DUP3 DUP1 SLOAD DUP3 DUP3 SSTORE SWAP1 PUSH0 MSTORE PUSH1 0x20 PUSH0 KECCAK256 SWAP1 DUP2 ADD SWAP3 DUP3 ISZERO PUSH2 0x3BE5 JUMPI SWAP2 PUSH1 0x20 MUL DUP3 ADD JUMPDEST DUP3 DUP2 GT ISZERO PUSH2 0x3BE5 JUMPI DUP3 MLOAD DUP3 SSTORE SWAP2 PUSH1 0x20 ADD SWAP2 SWAP1 PUSH1 0x1 ADD SWAP1 PUSH2 0x3C68 JUMP JUMPDEST JUMPDEST DUP1 DUP3 GT ISZERO PUSH2 0x3BF1 JUMPI PUSH0 DUP2 SSTORE PUSH1 0x1 ADD PUSH2 0x3C84 JUMP JUMPDEST PUSH1 0x1 PUSH1 0x1 PUSH1 0xA0 SHL SUB DUP2 AND DUP2 EQ PUSH2 0x3C2C JUMPI PUSH0 DUP1 REVERT JUMPDEST DUP1 CALLDATALOAD PUSH2 0x3CB6 DUP2 PUSH2 0x3C97 JUMP JUMPDEST SWAP2 SWAP1 POP JUMP JUMPDEST PUSH0 DUP1 PUSH1 0x40 DUP4 DUP6 SUB SLT ISZERO PUSH2 0x3CCC JUMPI PUSH0 DUP1 REVERT JUMPDEST DUP3 CALLDATALOAD PUSH2 0x3CD7 DUP2 PUSH2 0x3C97 JUMP JUMPDEST SWAP5 PUSH1 0x20 SWAP4 SWAP1 SWAP4 ADD CALLDATALOAD SWAP4 POP POP POP JUMP JUMPDEST PUSH0 PUSH1 0x20 DUP3 DUP5 SUB SLT ISZERO PUSH2 0x3CF5 JUMPI PUSH0 DUP1 REVERT JUMPDEST POP CALLDATALOAD SWAP2 SWAP1 POP JUMP JUMPDEST PUSH0 DUP1 PUSH1 0x40 DUP4 DUP6 SUB SLT ISZERO PUSH2 0x3D0D JUMPI PUSH0 DUP1 REVERT JUMPDEST POP POP DUP1 CALLDATALOAD SWAP3 PUSH1 0x20 SWAP1 SWAP2 ADD CALLDATALOAD SWAP2 POP JUMP JUMPDEST PUSH0 DUP2 MLOAD DUP1 DUP5 MSTORE DUP1 PUSH1 0x20 DUP5 ADD PUSH1 0x20 DUP7 ADD MCOPY PUSH0 PUSH1 0x20 DUP3 DUP7 ADD ADD MSTORE PUSH1 0x20 PUSH1 0x1F NOT PUSH1 0x1F DUP4 ADD AND DUP6 ADD ADD SWAP2 POP POP SWAP3 SWAP2 POP POP JUMP JUMPDEST PUSH0 DUP2 MLOAD DUP1 DUP5 MSTORE PUSH1 0x20 DUP5 ADD SWAP4 POP PUSH1 0x20 DUP4 ADD PUSH0 JUMPDEST DUP3 DUP2 LT ISZERO PUSH2 0x3D7A JUMPI DUP2 MLOAD DUP7 MSTORE PUSH1 0x20 SWAP6 DUP7 ADD SWAP6 SWAP1 SWAP2 ADD SWAP1 PUSH1 0x1 ADD PUSH2 0x3D5C JUMP JUMPDEST POP SWAP4 SWAP5 SWAP4 POP POP POP POP JUMP JUMPDEST PUSH0 DUP3 DUP3 MLOAD DUP1 DUP6 MSTORE PUSH1 0x20 DUP6 ADD SWAP5 POP PUSH1 0x20 DUP2 PUSH1 0x5 SHL DUP4 ADD ADD PUSH1 0x20 DUP6 ADD PUSH0 JUMPDEST DUP4 DUP2 LT ISZERO PUSH2 0x3E5F JUMPI PUSH1 0x1F NOT DUP6 DUP5 SUB ADD DUP9 MSTORE DUP2 MLOAD DUP1 MLOAD PUSH1 0xE0 DUP6 MSTORE PUSH2 0x3DC6 PUSH1 0xE0 DUP7 ADD DUP3 PUSH2 0x3D1C JUMP JUMPDEST SWAP1 POP PUSH1 0xFF PUSH1 0x20 DUP4 ADD MLOAD AND PUSH1 0x20 DUP7 ADD MSTORE PUSH1 0x40 DUP3 ADD MLOAD PUSH2 0x3DEF PUSH1 0x40 DUP8 ADD DUP3 PUSH1 0x1 PUSH1 0x1 PUSH1 0xA0 SHL SUB AND SWAP1 MSTORE JUMP JUMPDEST POP PUSH1 0x60 DUP3 ADD MLOAD DUP6 DUP3 SUB PUSH1 0x60 DUP8 ADD MSTORE PUSH2 0x3E07 DUP3 DUP3 PUSH2 0x3D1C JUMP JUMPDEST SWAP2 POP POP PUSH1 0x80 DUP3 ADD MLOAD PUSH1 0x80 DUP7 ADD MSTORE PUSH1 0xA0 DUP3 ADD MLOAD DUP6 DUP3 SUB PUSH1 0xA0 DUP8 ADD MSTORE PUSH2 0x3E2B DUP3 DUP3 PUSH2 0x3D4A JUMP JUMPDEST SWAP2 POP POP PUSH1 0xC0 DUP3 ADD MLOAD SWAP2 POP DUP5 DUP2 SUB PUSH1 0xC0 DUP7 ADD MSTORE PUSH2 0x3E47 DUP2 DUP4 PUSH2 0x3D4A JUMP JUMPDEST PUSH1 0x20 SWAP11 DUP12 ADD SWAP11 SWAP1 SWAP6 POP SWAP4 SWAP1 SWAP4 ADD SWAP3 POP POP PUSH1 0x1 ADD PUSH2 0x3DA0 JUMP JUMPDEST POP SWAP1 SWAP7 SWAP6 POP POP POP POP POP POP JUMP JUMPDEST PUSH0 DUP3 DUP3 MLOAD DUP1 DUP6 MSTORE PUSH1 0x20 DUP6 ADD SWAP5 POP PUSH1 0x20 DUP2 PUSH1 0x5 SHL DUP4 ADD ADD PUSH1 0x20 DUP6 ADD PUSH0 JUMPDEST DUP4 DUP2 LT ISZERO PUSH2 0x3E5F JUMPI PUSH1 0x1F NOT DUP6 DUP5 SUB ADD DUP9 MSTORE DUP2 MLOAD PUSH1 0x1 DUP1 PUSH1 0xA0 SHL SUB DUP2 MLOAD AND DUP5 MSTORE PUSH1 0xFF PUSH1 0x20 DUP3 ADD MLOAD AND PUSH1 0x20 DUP6 ADD MSTORE PUSH1 0x40 DUP2 ADD MLOAD PUSH1 0xA0 PUSH1 0x40 DUP7 ADD MSTORE PUSH2 0x3ECC PUSH1 0xA0 DUP7 ADD DUP3 PUSH2 0x3D4A JUMP JUMPDEST SWAP1 POP PUSH1 0x60 DUP3 ADD MLOAD DUP6 DUP3 SUB PUSH1 0x60 DUP8 ADD MSTORE PUSH2 0x3EE5 DUP3 DUP3 PUSH2 0x3D4A JUMP JUMPDEST SWAP2 POP POP PUSH1 0x80 DUP3 ADD MLOAD SWAP2 POP DUP5 DUP2 SUB PUSH1 0x80 DUP7 ADD MSTORE PUSH2 0x3F01 DUP2 DUP4 PUSH2 0x3D4A JUMP JUMPDEST PUSH1 0x20 SWAP11 DUP12 ADD SWAP11 SWAP1 SWAP6 POP SWAP4 SWAP1 SWAP4 ADD SWAP3 POP POP PUSH1 0x1 ADD PUSH2 0x3E87 JUMP JUMPDEST PUSH1 0xA0 DUP2 MSTORE PUSH0 PUSH2 0x3F2B PUSH1 0xA0 DUP4 ADD DUP9 PUSH2 0x3D84 JUMP JUMPDEST DUP7 PUSH1 0x20 DUP5 ADD MSTORE DUP6 PUSH1 0x40 DUP5 ADD MSTORE DUP3 DUP2 SUB PUSH1 0x60 DUP5 ADD MSTORE PUSH2 0x3F49 DUP2 DUP7 PUSH2 0x3E6B JUMP JUMPDEST SWAP1 POP DUP3 DUP2 SUB PUSH1 0x80 DUP5 ADD MSTORE PUSH2 0x3F5D DUP2 DUP6 PUSH2 0x3D4A JUMP JUMPDEST SWAP9 SWAP8 POP POP POP POP POP POP POP POP JUMP JUMPDEST PUSH4 0x4E487B71 PUSH1 0xE0 SHL PUSH0 MSTORE PUSH1 0x41 PUSH1 0x4 MSTORE PUSH1 0x24 PUSH0 REVERT JUMPDEST PUSH1 0x40 DUP1 MLOAD SWAP1 DUP2 ADD PUSH1 0x1 PUSH1 0x1 PUSH1 0x40 SHL SUB DUP2 GT DUP3 DUP3 LT OR ISZERO PUSH2 0x3F9F JUMPI PUSH2 0x3F9F PUSH2 0x3F69 JUMP JUMPDEST PUSH1 0x40 MSTORE SWAP1 JUMP JUMPDEST PUSH1 0x40 MLOAD PUSH1 0xA0 DUP2 ADD PUSH1 0x1 PUSH1 0x1 PUSH1 0x40 SHL SUB DUP2 GT DUP3 DUP3 LT OR ISZERO PUSH2 0x3F9F JUMPI PUSH2 0x3F9F PUSH2 0x3F69 JUMP JUMPDEST PUSH1 0x40 MLOAD PUSH1 0x80 DUP2 ADD PUSH1 0x1 PUSH1 0x1 PUSH1 0x40 SHL SUB DUP2 GT DUP3 DUP3 LT OR ISZERO PUSH2 0x3F9F JUMPI PUSH2 0x3F9F PUSH2 0x3F69 JUMP JUMPDEST PUSH1 0x40 MLOAD PUSH2 0x300 DUP2 ADD PUSH1 0x1 PUSH1 0x1 PUSH1 0x40 SHL SUB DUP2 GT DUP3 DUP3 LT OR ISZERO PUSH2 0x3F9F JUMPI PUSH2 0x3F9F PUSH2 0x3F69 JUMP JUMPDEST PUSH1 0x40 MLOAD PUSH2 0x140 DUP2 ADD PUSH1 0x1 PUSH1 0x1 PUSH1 0x40 SHL SUB DUP2 GT DUP3 DUP3 LT OR ISZERO PUSH2 0x3F9F JUMPI PUSH2 0x3F9F PUSH2 0x3F69 JUMP JUMPDEST PUSH1 0x40 MLOAD PUSH2 0x260 DUP2 ADD PUSH1 0x1 PUSH1 0x1 PUSH1 0x40 SHL SUB DUP2 GT DUP3 DUP3 LT OR ISZERO PUSH2 0x3F9F JUMPI PUSH2 0x3F9F PUSH2 0x3F69 JUMP JUMPDEST PUSH1 0x40 MLOAD PUSH1 0x60 DUP2 ADD PUSH1 0x1 PUSH1 0x1 PUSH1 0x40 SHL SUB DUP2 GT DUP3 DUP3 LT OR ISZERO PUSH2 0x3F9F JUMPI PUSH2 0x3F9F PUSH2 0x3F69 JUMP JUMPDEST PUSH1 0x40 MLOAD PUSH1 0x1F DUP3 ADD PUSH1 0x1F NOT AND DUP2 ADD PUSH1 0x1 PUSH1 0x1 PUSH1 0x40 SHL SUB DUP2 GT DUP3 DUP3 LT OR ISZERO PUSH2 0x409C JUMPI PUSH2 0x409C PUSH2 0x3F69 JUMP JUMPDEST PUSH1 0x40 MSTORE SWAP2 SWAP1 POP JUMP JUMPDEST PUSH0 PUSH1 0x1 PUSH1 0x1 PUSH1 0x40 SHL SUB DUP3 GT ISZERO PUSH2 0x40BC JUMPI PUSH2 0x40BC PUSH2 0x3F69 JUMP JUMPDEST POP PUSH1 0x1F ADD PUSH1 0x1F NOT AND PUSH1 0x20 ADD SWAP1 JUMP JUMPDEST PUSH0 DUP3 PUSH1 0x1F DUP4 ADD SLT PUSH2 0x40D9 JUMPI PUSH0 DUP1 REVERT JUMPDEST DUP2 CALLDATALOAD PUSH2 0x40EC PUSH2 0x40E7 DUP3 PUSH2 0x40A4 JUMP JUMPDEST PUSH2 0x4074 JUMP JUMPDEST DUP2 DUP2 MSTORE DUP5 PUSH1 0x20 DUP4 DUP7 ADD ADD GT ISZERO PUSH2 0x4100 JUMPI PUSH0 DUP1 REVERT JUMPDEST DUP2 PUSH1 0x20 DUP6 ADD PUSH1 0x20 DUP4 ADD CALLDATACOPY PUSH0 SWAP2 DUP2 ADD PUSH1 0x20 ADD SWAP2 SWAP1 SWAP2 MSTORE SWAP4 SWAP3 POP POP POP JUMP JUMPDEST PUSH0 DUP1 PUSH1 0x40 DUP4 DUP6 SUB SLT ISZERO PUSH2 0x412D JUMPI PUSH0 DUP1 REVERT JUMPDEST DUP3 CALLDATALOAD SWAP2 POP PUSH1 0x20 DUP4 ADD CALLDATALOAD PUSH1 0x1 PUSH1 0x1 PUSH1 0x40 SHL SUB DUP2 GT ISZERO PUSH2 0x4149 JUMPI PUSH0 DUP1 REVERT JUMPDEST PUSH2 0x4155 DUP6 DUP3 DUP7 ADD PUSH2 0x40CA JUMP JUMPDEST SWAP2 POP POP SWAP3 POP SWAP3 SWAP1 POP JUMP JUMPDEST PUSH1 0x20 DUP2 MSTORE PUSH0 PUSH2 0x355F PUSH1 0x20 DUP4 ADD DUP5 PUSH2 0x3D1C JUMP JUMPDEST PUSH1 0x20 DUP1 DUP3 MSTORE DUP3 MLOAD DUP3 DUP3 ADD DUP2 SWAP1 MSTORE PUSH0 SWAP2 DUP5 ADD SWAP1 PUSH1 0x40 DUP5 ADD SWAP1 DUP4 JUMPDEST DUP2 DUP2 LT ISZERO PUSH2 0x41C4 JUMPI DUP4 MLOAD DUP1 MLOAD DUP5 MSTORE PUSH1 0x20 DUP2 ADD MLOAD PUSH1 0x20 DUP6 ADD MSTORE PUSH1 0x40 DUP2 ADD MLOAD PUSH1 0x40 DUP6 ADD MSTORE POP PUSH1 0x60 DUP4 ADD SWAP3 POP PUSH1 0x20 DUP5 ADD SWAP4 POP PUSH1 0x1 DUP2 ADD SWAP1 POP PUSH2 0x418A JUMP JUMPDEST POP SWAP1 SWAP6 SWAP5 POP POP POP POP POP JUMP JUMPDEST PUSH1 0x20 DUP2 MSTORE PUSH0 PUSH2 0x355F PUSH1 0x20 DUP4 ADD DUP5 PUSH2 0x3D4A JUMP JUMPDEST PUSH0 DUP1 PUSH0 DUP4 DUP6 SUB PUSH1 0x60 DUP2 SLT ISZERO PUSH2 0x41F4 JUMPI PUSH0 DUP1 REVERT JUMPDEST DUP5 CALLDATALOAD PUSH1 0x1 PUSH1 0x1 PUSH1 0x40 SHL SUB DUP2 GT ISZERO PUSH2 0x4209 JUMPI PUSH0 DUP1 REVERT JUMPDEST DUP6 ADD PUSH1 0x1F DUP2 ADD DUP8 SGT PUSH2 0x4219 JUMPI PUSH0 DUP1 REVERT JUMPDEST DUP1 CALLDATALOAD PUSH1 0x1 PUSH1 0x1 PUSH1 0x40 SHL SUB DUP2 GT ISZERO PUSH2 0x422E JUMPI PUSH0 DUP1 REVERT JUMPDEST DUP8 PUSH1 0x20 DUP3 DUP5 ADD ADD GT ISZERO PUSH2 0x423F JUMPI PUSH0 DUP1 REVERT JUMPDEST PUSH1 0x20 SWAP2 SWAP1 SWAP2 ADD SWAP5 POP SWAP3 POP PUSH1 0x40 PUSH1 0x1F NOT DUP3 ADD SLT ISZERO PUSH2 0x425A JUMPI PUSH0 DUP1 REVERT JUMPDEST POP PUSH2 0x4263 PUSH2 0x3F7D JUMP JUMPDEST PUSH1 0x20 DUP6 DUP2 ADD CALLDATALOAD DUP3 MSTORE PUSH1 0x40 SWAP1 SWAP6 ADD CALLDATALOAD SWAP5 DUP2 ADD SWAP5 SWAP1 SWAP5 MSTORE POP SWAP1 SWAP4 SWAP1 SWAP3 POP JUMP JUMPDEST PUSH0 PUSH1 0x20 DUP3 DUP5 SUB SLT ISZERO PUSH2 0x4290 JUMPI PUSH0 DUP1 REVERT JUMPDEST DUP2 CALLDATALOAD PUSH2 0x355F DUP2 PUSH2 0x3C97 JUMP JUMPDEST PUSH1 0x20 DUP2 MSTORE PUSH0 PUSH2 0x355F PUSH1 0x20 DUP4 ADD DUP5 PUSH2 0x3E6B JUMP JUMPDEST PUSH0 PUSH1 0x20 DUP3 DUP5 SUB SLT ISZERO PUSH2 0x42BD JUMPI PUSH0 DUP1 REVERT JUMPDEST DUP2 CALLDATALOAD PUSH1 0x1 PUSH1 0x1 PUSH1 0x40 SHL SUB DUP2 GT ISZERO PUSH2 0x42D2 JUMPI PUSH0 DUP1 REVERT JUMPDEST PUSH2 0x42DE DUP5 DUP3 DUP6 ADD PUSH2 0x40CA JUMP JUMPDEST SWAP5 SWAP4 POP POP POP POP JUMP JUMPDEST PUSH1 0x60 DUP2 MSTORE PUSH0 PUSH2 0x42F8 PUSH1 0x60 DUP4 ADD DUP7 PUSH2 0x3D4A JUMP JUMPDEST DUP3 DUP2 SUB PUSH1 0x20 DUP5 ADD MSTORE PUSH2 0x430A DUP2 DUP7 PUSH2 0x3D4A JUMP JUMPDEST SWAP1 POP DUP3 DUP2 SUB PUSH1 0x40 DUP5 ADD MSTORE PUSH2 0x431E DUP2 DUP6 PUSH2 0x3D4A JUMP JUMPDEST SWAP7 SWAP6 POP POP POP POP POP POP JUMP JUMPDEST PUSH1 0x20 DUP2 MSTORE PUSH0 PUSH2 0x355F PUSH1 0x20 DUP4 ADD DUP5 PUSH2 0x3D84 JUMP JUMPDEST DUP1 ISZERO ISZERO DUP2 EQ PUSH2 0x3C2C JUMPI PUSH0 DUP1 REVERT JUMPDEST PUSH0 DUP1 PUSH0 DUP1 PUSH0 DUP1 PUSH1 0xC0 DUP8 DUP10 SUB SLT ISZERO PUSH2 0x435C JUMPI PUSH0 DUP1 REVERT JUMPDEST DUP7 CALLDATALOAD PUSH2 0x4367 DUP2 PUSH2 0x3C97 JUMP JUMPDEST SWAP6 POP PUSH1 0x20 DUP8 ADD CALLDATALOAD SWAP5 POP PUSH1 0x40 DUP8 ADD CALLDATALOAD SWAP4 POP PUSH1 0x60 DUP8 ADD CALLDATALOAD PUSH2 0x4385 DUP2 PUSH2 0x3C97 JUMP JUMPDEST SWAP3 POP PUSH1 0x80 DUP8 ADD CALLDATALOAD PUSH1 0x2 DUP2 LT PUSH2 0x4398 JUMPI PUSH0 DUP1 REVERT JUMPDEST SWAP2 POP PUSH1 0xA0 DUP8 ADD CALLDATALOAD PUSH2 0x43A8 DUP2 PUSH2 0x433A JUMP JUMPDEST DUP1 SWAP2 POP POP SWAP3 SWAP6 POP SWAP3 SWAP6 POP SWAP3 SWAP6 JUMP JUMPDEST PUSH1 0xFF DUP2 AND DUP2 EQ PUSH2 0x3C2C JUMPI PUSH0 DUP1 REVERT JUMPDEST DUP1 CALLDATALOAD PUSH2 0x3CB6 DUP2 PUSH2 0x43B6 JUMP JUMPDEST PUSH0 PUSH1 0x1 PUSH1 0x1 PUSH1 0x40 SHL SUB DUP3 GT ISZERO PUSH2 0x43E7 JUMPI PUSH2 0x43E7 PUSH2 0x3F69 JUMP JUMPDEST POP PUSH1 0x5 SHL PUSH1 0x20 ADD SWAP1 JUMP JUMPDEST PUSH0 DUP3 PUSH1 0x1F DUP4 ADD SLT PUSH2 0x4400 JUMPI PUSH0 DUP1 REVERT JUMPDEST DUP2 CALLDATALOAD PUSH2 0x440E PUSH2 0x40E7 DUP3 PUSH2 0x43CF JUMP JUMPDEST DUP1 DUP3 DUP3 MSTORE PUSH1 0x20 DUP3 ADD SWAP2 POP PUSH1 0x20 DUP4 PUSH1 0x5 SHL DUP7 ADD ADD SWAP3 POP DUP6 DUP4 GT ISZERO PUSH2 0x442F JUMPI PUSH0 DUP1 REVERT JUMPDEST PUSH1 0x20 DUP6 ADD JUMPDEST DUP4 DUP2 LT ISZERO PUSH2 0x444C JUMPI DUP1 CALLDATALOAD DUP4 MSTORE PUSH1 0x20 SWAP3 DUP4 ADD SWAP3 ADD PUSH2 0x4434 JUMP JUMPDEST POP SWAP6 SWAP5 POP POP POP POP POP JUMP JUMPDEST PUSH0 PUSH1 0x20 DUP3 DUP5 SUB SLT ISZERO PUSH2 0x4466 JUMPI PUSH0 DUP1 REVERT JUMPDEST DUP2 CALLDATALOAD PUSH1 0x1 PUSH1 0x1 PUSH1 0x40 SHL SUB DUP2 GT ISZERO PUSH2 0x447B JUMPI PUSH0 DUP1 REVERT JUMPDEST DUP3 ADD PUSH1 0xA0 DUP2 DUP6 SUB SLT ISZERO PUSH2 0x448C JUMPI PUSH0 DUP1 REVERT JUMPDEST PUSH2 0x4494 PUSH2 0x3FA5 JUMP JUMPDEST DUP2 CALLDATALOAD PUSH1 0x1 PUSH1 0x1 PUSH1 0x40 SHL SUB DUP2 GT ISZERO PUSH2 0x44A9 JUMPI PUSH0 DUP1 REVERT JUMPDEST PUSH2 0x44B5 DUP7 DUP3 DUP6 ADD PUSH2 0x40CA JUMP JUMPDEST DUP3 MSTORE POP PUSH2 0x44C4 PUSH1 0x20 DUP4 ADD PUSH2 0x43C4 JUMP JUMPDEST PUSH1 0x20 DUP3 ADD MSTORE PUSH2 0x44D5 PUSH1 0x40 DUP4 ADD PUSH2 0x3CAB JUMP JUMPDEST PUSH1 0x40 DUP3 ADD MSTORE PUSH1 0x60 DUP3 ADD CALLDATALOAD PUSH1 0x1 PUSH1 0x1 PUSH1 0x40 SHL SUB DUP2 GT ISZERO PUSH2 0x44F2 JUMPI PUSH0 DUP1 REVERT JUMPDEST PUSH2 0x44FE DUP7 DUP3 DUP6 ADD PUSH2 0x43F1 JUMP JUMPDEST PUSH1 0x60 DUP4 ADD MSTORE POP PUSH1 0x80 DUP3 ADD CALLDATALOAD PUSH1 0x1 PUSH1 0x1 PUSH1 0x40 SHL SUB DUP2 GT ISZERO PUSH2 0x451C JUMPI PUSH0 DUP1 REVERT JUMPDEST PUSH2 0x4528 DUP7 DUP3 DUP6 ADD PUSH2 0x43F1 JUMP JUMPDEST PUSH1 0x80 DUP4 ADD MSTORE POP SWAP5 SWAP4 POP POP POP POP JUMP JUMPDEST PUSH0 DUP1 PUSH1 0x40 DUP4 DUP6 SUB SLT ISZERO PUSH2 0x4547 JUMPI PUSH0 DUP1 REVERT JUMPDEST DUP3 CALLDATALOAD PUSH1 0x1 PUSH1 0x1 PUSH1 0x40 SHL SUB DUP2 GT ISZERO PUSH2 0x455C JUMPI PUSH0 DUP1 REVERT JUMPDEST PUSH2 0x4568 DUP6 DUP3 DUP7 ADD PUSH2 0x40CA JUMP JUMPDEST SWAP6 PUSH1 0x20 SWAP5 SWAP1 SWAP5 ADD CALLDATALOAD SWAP5 POP POP POP POP JUMP JUMPDEST PUSH1 0xA0 DUP2 MSTORE PUSH0 PUSH2 0x4589 PUSH1 0xA0 DUP4 ADD DUP9 PUSH2 0x3D1C JUMP JUMPDEST PUSH1 0xFF DUP8 AND PUSH1 0x20 DUP5 ADD MSTORE PUSH1 0x1 PUSH1 0x1 PUSH1 0xA0 SHL SUB DUP7 AND PUSH1 0x40 DUP5 ADD MSTORE DUP3 DUP2 SUB PUSH1 0x60 DUP5 ADD MSTORE PUSH2 0x45B3 DUP2 DUP7 PUSH2 0x3D1C JUMP JUMPDEST SWAP2 POP POP DUP3 PUSH1 0x80 DUP4 ADD MSTORE SWAP7 SWAP6 POP POP POP POP POP POP JUMP JUMPDEST PUSH0 DUP2 MLOAD DUP1 DUP5 MSTORE PUSH1 0x20 DUP5 ADD SWAP4 POP PUSH1 0x20 DUP4 ADD PUSH0 JUMPDEST DUP3 DUP2 LT ISZERO PUSH2 0x3D7A JUMPI DUP2 MLOAD DUP1 MLOAD DUP8 MSTORE PUSH1 0x20 SWAP1 DUP2 ADD MLOAD DUP2 DUP9 ADD MSTORE PUSH1 0x40 SWAP1 SWAP7 ADD SWAP6 SWAP1 SWAP2 ADD SWAP1 PUSH1 0x1 ADD PUSH2 0x45D8 JUMP JUMPDEST PUSH1 0x20 DUP2 MSTORE PUSH0 PUSH2 0x355F PUSH1 0x20 DUP4 ADD DUP5 PUSH2 0x45C6 JUMP JUMPDEST PUSH0 DUP3 DUP3 MLOAD DUP1 DUP6 MSTORE PUSH1 0x20 DUP6 ADD SWAP5 POP PUSH1 0x20 DUP2 PUSH1 0x5 SHL DUP4 ADD ADD PUSH1 0x20 DUP6 ADD PUSH0 JUMPDEST DUP4 DUP2 LT ISZERO PUSH2 0x3E5F JUMPI PUSH1 0x1F NOT DUP6 DUP5 SUB ADD DUP9 MSTORE DUP2 MLOAD DUP1 MLOAD DUP5 MSTORE PUSH1 0x20 DUP2 ADD MLOAD PUSH2 0x4661 PUSH1 0x20 DUP7 ADD DUP3 PUSH1 0x1 PUSH1 0x1 PUSH1 0xA0 SHL SUB AND SWAP1 MSTORE JUMP JUMPDEST POP PUSH1 0x40 DUP2 ADD MLOAD PUSH2 0x467C PUSH1 0x40 DUP7 ADD DUP3 PUSH1 0x1 PUSH1 0x1 PUSH1 0xA0 SHL SUB AND SWAP1 MSTORE JUMP JUMPDEST POP PUSH1 0x60 DUP2 ADD MLOAD PUSH1 0x60 DUP6 ADD MSTORE PUSH1 0x80 DUP2 ADD MLOAD PUSH2 0x260 PUSH1 0x80 DUP7 ADD MSTORE PUSH2 0x46A2 PUSH2 0x260 DUP7 ADD DUP3 PUSH2 0x3D4A JUMP JUMPDEST SWAP1 POP PUSH1 0xA0 DUP3 ADD MLOAD DUP6 DUP3 SUB PUSH1 0xA0 DUP8 ADD MSTORE PUSH2 0x46BB DUP3 DUP3 PUSH2 0x3D4A JUMP JUMPDEST SWAP2 POP POP PUSH1 0xC0 DUP3 ADD MLOAD DUP6 DUP3 SUB PUSH1 0xC0 DUP8 ADD MSTORE PUSH2 0x46D5 DUP3 DUP3 PUSH2 0x3D4A JUMP JUMPDEST SWAP2 POP POP PUSH1 0xE0 DUP3 ADD MLOAD DUP6 DUP3 SUB PUSH1 0xE0 DUP8 ADD MSTORE PUSH2 0x46EF DUP3 DUP3 PUSH2 0x3D4A JUMP JUMPDEST SWAP2 POP POP PUSH2 0x100 DUP3 ADD MLOAD DUP6 DUP3 SUB PUSH2 0x100 DUP8 ADD MSTORE PUSH2 0x470B DUP3 DUP3 PUSH2 0x3D4A JUMP JUMPDEST SWAP2 POP POP PUSH2 0x120 DUP3 ADD MLOAD DUP6 DUP3 SUB PUSH2 0x120 DUP8 ADD MSTORE PUSH2 0x4727 DUP3 DUP3 PUSH2 0x3D4A JUMP JUMPDEST SWAP2 POP POP PUSH2 0x140 DUP3 ADD MLOAD DUP6 DUP3 SUB PUSH2 0x140 DUP8 ADD MSTORE PUSH2 0x4743 DUP3 DUP3 PUSH2 0x3D4A JUMP JUMPDEST SWAP2 POP POP PUSH2 0x160 DUP3 ADD MLOAD PUSH2 0x160 DUP7 ADD MSTORE PUSH2 0x180 DUP3 ADD MLOAD PUSH2 0x4768 PUSH2 0x180 DUP8 ADD DUP3 PUSH1 0xFF AND SWAP1 MSTORE JUMP JUMPDEST POP PUSH2 0x1A0 DUP3 ADD MLOAD PUSH2 0x477F PUSH2 0x1A0 DUP8 ADD DUP3 PUSH1 0xFF AND SWAP1 MSTORE JUMP JUMPDEST POP PUSH2 0x1C0 DUP3 ADD MLOAD PUSH2 0x1C0 DUP7 ADD MSTORE PUSH2 0x1E0 DUP3 ADD MLOAD PUSH2 0x1E0 DUP7 ADD MSTORE PUSH2 0x200 DUP3 ADD MLOAD PUSH2 0x200 DUP7 ADD MSTORE PUSH2 0x220 DUP3 ADD MLOAD PUSH2 0x47BA PUSH2 0x220 DUP8 ADD DUP3 PUSH1 0xFF AND SWAP1 MSTORE JUMP JUMPDEST POP PUSH2 0x240 SWAP2 DUP3 ADD MLOAD SWAP5 SWAP1 SWAP2 ADD SWAP4 SWAP1 SWAP4 MSTORE PUSH1 0x20 SWAP8 DUP9 ADD SWAP8 SWAP2 SWAP1 SWAP2 ADD SWAP1 PUSH1 0x1 ADD PUSH2 0x4630 JUMP JUMPDEST PUSH1 0x60 DUP2 MSTORE PUSH0 PUSH2 0x47EF PUSH1 0x60 DUP4 ADD DUP7 PUSH2 0x4614 JUMP JUMPDEST DUP3 DUP2 SUB PUSH1 0x20 DUP5 ADD MSTORE DUP1 DUP6 MLOAD DUP1 DUP4 MSTORE PUSH1 0x20 DUP4 ADD SWAP2 POP PUSH1 0x20 DUP8 ADD SWAP3 POP PUSH0 JUMPDEST DUP2 DUP2 LT ISZERO PUSH2 0x484E JUMPI DUP4 MLOAD DUP1 MLOAD PUSH1 0xFF AND DUP5 MSTORE PUSH1 0x20 DUP1 DUP3 ADD MLOAD DUP2 DUP7 ADD MSTORE PUSH1 0x40 SWAP2 DUP3 ADD MLOAD PUSH1 0x1 PUSH1 0x1 PUSH1 0xA0 SHL SUB AND SWAP2 DUP6 ADD SWAP2 SWAP1 SWAP2 MSTORE SWAP1 SWAP4 ADD SWAP3 PUSH1 0x60 SWAP1 SWAP3 ADD SWAP2 PUSH1 0x1 ADD PUSH2 0x480B JUMP JUMPDEST POP POP DUP4 DUP2 SUB PUSH1 0x40 DUP6 ADD MSTORE PUSH2 0x4862 DUP2 DUP7 PUSH2 0x45C6 JUMP JUMPDEST SWAP8 SWAP7 POP POP POP POP POP POP POP JUMP JUMPDEST PUSH1 0x80 DUP2 MSTORE PUSH0 PUSH2 0x487F PUSH1 0x80 DUP4 ADD DUP8 PUSH2 0x3D84 JUMP JUMPDEST DUP6 PUSH1 0x20 DUP5 ADD MSTORE DUP5 PUSH1 0x40 DUP5 ADD MSTORE DUP3 DUP2 SUB PUSH1 0x60 DUP5 ADD MSTORE PUSH2 0x4862 DUP2 DUP6 PUSH2 0x3E6B JUMP JUMPDEST PUSH0 DUP1 PUSH0 DUP1 PUSH1 0x80 DUP6 DUP8 SUB SLT ISZERO PUSH2 0x48B0 JUMPI PUSH0 DUP1 REVERT JUMPDEST DUP5 CALLDATALOAD PUSH2 0x48BB DUP2 PUSH2 0x3C97 JUMP JUMPDEST SWAP4 POP PUSH1 0x20 DUP6 ADD CALLDATALOAD SWAP3 POP PUSH1 0x40 DUP6 ADD CALLDATALOAD PUSH2 0x48D2 DUP2 PUSH2 0x3C97 JUMP JUMPDEST SWAP2 POP PUSH1 0x60 DUP6 ADD CALLDATALOAD PUSH2 0x48E2 DUP2 PUSH2 0x433A JUMP JUMPDEST SWAP4 SWAP7 SWAP3 SWAP6 POP SWAP1 SWAP4 POP POP JUMP JUMPDEST PUSH1 0x60 DUP2 MSTORE PUSH0 PUSH2 0x48FF PUSH1 0x60 DUP4 ADD DUP7 PUSH2 0x4614 JUMP JUMPDEST DUP3 DUP2 SUB PUSH1 0x20 DUP5 ADD MSTORE PUSH1 0x60 DUP2 ADD DUP6 MLOAD DUP3 MSTORE PUSH1 0x1 DUP1 PUSH1 0xA0 SHL SUB PUSH1 0x20 DUP8 ADD MLOAD AND PUSH1 0x20 DUP4 ADD MSTORE PUSH1 0x40 DUP7 ADD MLOAD PUSH1 0x60 PUSH1 0x40 DUP5 ADD MSTORE DUP2 DUP2 MLOAD DUP1 DUP5 MSTORE PUSH1 0x80 DUP6 ADD SWAP2 POP PUSH1 0x20 DUP4 ADD SWAP5 POP PUSH0 SWAP4 POP JUMPDEST DUP1 DUP5 LT ISZERO PUSH2 0x4992 JUMPI DUP5 MLOAD SWAP3 POP DUP3 MLOAD DUP3 MSTORE PUSH1 0x20 DUP4 ADD MLOAD PUSH1 0x20 DUP4 ADD MSTORE PUSH1 0x40 DUP4 ADD MLOAD PUSH1 0x40 DUP4 ADD MSTORE PUSH1 0x60 DUP4 ADD MLOAD PUSH1 0x60 DUP4 ADD MSTORE PUSH1 0x80 DUP4 ADD MLOAD PUSH1 0x80 DUP4 ADD MSTORE PUSH1 0xA0 DUP3 ADD SWAP2 POP PUSH1 0x20 DUP6 ADD SWAP5 POP PUSH1 0x1 DUP5 ADD SWAP4 POP PUSH2 0x4943 JUMP JUMPDEST POP DUP6 DUP2 SUB PUSH1 0x40 DUP8 ADD MSTORE PUSH2 0x49A5 DUP2 DUP9 PUSH2 0x45C6 JUMP JUMPDEST SWAP10 SWAP9 POP POP POP POP POP POP POP POP POP JUMP JUMPDEST PUSH1 0x20 DUP1 DUP3 MSTORE PUSH1 0x49 SWAP1 DUP3 ADD MSTORE PUSH32 0x7B2266726F6D223A202245636F6D50726F647563742E736F6C222C22636F6465 PUSH1 0x40 DUP3 ADD MSTORE PUSH32 0x223A2035332C20226D657373616765223A2022596F7520617265206E6F742061 PUSH1 0x60 DUP3 ADD MSTORE PUSH9 0x6C6C6F7765642E227D PUSH1 0xB8 SHL PUSH1 0x80 DUP3 ADD MSTORE PUSH1 0xA0 ADD SWAP1 JUMP JUMPDEST PUSH0 DUP2 MLOAD DUP1 PUSH1 0x20 DUP5 ADD DUP6 MCOPY PUSH0 SWAP4 ADD SWAP3 DUP4 MSTORE POP SWAP1 SWAP2 SWAP1 POP JUMP JUMPDEST PUSH32 0x7B2266726F6D223A202245636F6D496E666F2E736F6C222C0000000000000000 DUP2 MSTORE PUSH8 0x1131B7B232911D1 PUSH1 0xC5 SHL PUSH1 0x18 DUP3 ADD MSTORE PUSH0 PUSH2 0x4A7A PUSH1 0x20 DUP4 ADD DUP6 PUSH2 0x4A21 JUMP JUMPDEST PUSH2 0x161 PUSH1 0xF5 SHL DUP2 MSTORE PUSH12 0x1136B2B9B9B0B3B2911D1011 PUSH1 0xA1 SHL PUSH1 0x2 DUP3 ADD MSTORE PUSH2 0x4AA4 PUSH1 0xE DUP3 ADD DUP6 PUSH2 0x4A21 JUMP JUMPDEST PUSH2 0x227D PUSH1 0xF0 SHL DUP2 MSTORE PUSH1 0x2 ADD SWAP6 SWAP5 POP POP POP POP POP JUMP JUMPDEST PUSH4 0x4E487B71 PUSH1 0xE0 SHL PUSH0 MSTORE PUSH1 0x11 PUSH1 0x4 MSTORE PUSH1 0x24 PUSH0 REVERT JUMPDEST PUSH0 PUSH1 0x1 DUP3 ADD PUSH2 0x4ADD JUMPI PUSH2 0x4ADD PUSH2 0x4AB8 JUMP JUMPDEST POP PUSH1 0x1 ADD SWAP1 JUMP JUMPDEST DUP2 DUP4 DUP3 CALLDATACOPY PUSH0 SWAP2 ADD SWAP1 DUP2 MSTORE SWAP2 SWAP1 POP JUMP JUMPDEST PUSH1 0x20 DUP1 DUP3 MSTORE PUSH1 0x49 SWAP1 DUP3 ADD MSTORE PUSH32 0x7B2266726F6D223A202245636F6D50726F647563742E736F6C222C22636F6465 PUSH1 0x40 DUP3 ADD MSTORE PUSH32 0x223A2035352C20226D657373616765223A2022596F7520617265206E6F742061 PUSH1 0x60 DUP3 ADD MSTORE PUSH9 0x6C6C6F7765642E227D PUSH1 0xB8 SHL PUSH1 0x80 DUP3 ADD MSTORE PUSH1 0xA0 ADD SWAP1 JUMP JUMPDEST PUSH4 0x4E487B71 PUSH1 0xE0 SHL PUSH0 MSTORE PUSH1 0x32 PUSH1 0x4 MSTORE PUSH1 0x24 PUSH0 REVERT JUMPDEST PUSH0 PUSH1 0xFF DUP3 AND PUSH1 0xFF DUP2 SUB PUSH2 0x4B8B JUMPI PUSH2 0x4B8B PUSH2 0x4AB8 JUMP JUMPDEST PUSH1 0x1 ADD SWAP3 SWAP2 POP POP JUMP JUMPDEST PUSH1 0x1 DUP2 DUP2 SHR SWAP1 DUP3 AND DUP1 PUSH2 0x4BA8 JUMPI PUSH1 0x7F DUP3 AND SWAP2 POP JUMPDEST PUSH1 0x20 DUP3 LT DUP2 SUB PUSH2 0xC77 JUMPI PUSH4 0x4E487B71 PUSH1 0xE0 SHL PUSH0 MSTORE PUSH1 0x22 PUSH1 0x4 MSTORE PUSH1 0x24 PUSH0 REVERT JUMPDEST PUSH0 PUSH2 0x4BD3 PUSH2 0x40E7 DUP5 PUSH2 0x40A4 JUMP JUMPDEST SWAP1 POP DUP3 DUP2 MSTORE DUP4 DUP4 DUP4 ADD GT ISZERO PUSH2 0x4BE6 JUMPI PUSH0 DUP1 REVERT JUMPDEST DUP3 DUP3 PUSH1 0x20 DUP4 ADD MCOPY PUSH0 PUSH1 0x20 DUP5 DUP4 ADD ADD MSTORE SWAP4 SWAP3 POP POP POP JUMP JUMPDEST PUSH0 DUP3 PUSH1 0x1F DUP4 ADD SLT PUSH2 0x4C0B JUMPI PUSH0 DUP1 REVERT JUMPDEST PUSH2 0x355F DUP4 DUP4 MLOAD PUSH1 0x20 DUP6 ADD PUSH2 0x4BC6 JUMP JUMPDEST PUSH0 DUP3 PUSH1 0x1F DUP4 ADD SLT PUSH2 0x4C29 JUMPI PUSH0 DUP1 REVERT JUMPDEST DUP2 MLOAD PUSH2 0x4C37 PUSH2 0x40E7 DUP3 PUSH2 0x43CF JUMP JUMPDEST DUP1 DUP3 DUP3 MSTORE PUSH1 0x20 DUP3 ADD SWAP2 POP PUSH1 0x20 DUP4 PUSH1 0x5 SHL DUP7 ADD ADD SWAP3 POP DUP6 DUP4 GT ISZERO PUSH2 0x4C58 JUMPI PUSH0 DUP1 REVERT JUMPDEST PUSH1 0x20 DUP6 ADD JUMPDEST DUP4 DUP2 LT ISZERO PUSH2 0x444C JUMPI DUP1 MLOAD DUP4 MSTORE PUSH1 0x20 SWAP3 DUP4 ADD SWAP3 ADD PUSH2 0x4C5D JUMP JUMPDEST PUSH0 DUP3 PUSH1 0x1F DUP4 ADD SLT PUSH2 0x4C84 JUMPI PUSH0 DUP1 REVERT JUMPDEST DUP2 MLOAD PUSH2 0x4C92 PUSH2 0x40E7 DUP3 PUSH2 0x43CF JUMP JUMPDEST DUP1 DUP3 DUP3 MSTORE PUSH1 0x20 DUP3 ADD SWAP2 POP PUSH1 0x20 DUP4 PUSH1 0x5 SHL DUP7 ADD ADD SWAP3 POP DUP6 DUP4 GT ISZERO PUSH2 0x4CB3 JUMPI PUSH0 DUP1 REVERT JUMPDEST PUSH1 0x20 DUP6 ADD JUMPDEST DUP4 DUP2 LT ISZERO PUSH2 0x444C JUMPI DUP1 MLOAD PUSH1 0x1 PUSH1 0x1 PUSH1 0x40 SHL SUB DUP2 GT ISZERO PUSH2 0x4CD5 JUMPI PUSH0 DUP1 REVERT JUMPDEST DUP7 ADD PUSH1 0x3F DUP2 ADD DUP9 SGT PUSH2 0x4CE5 JUMPI PUSH0 DUP1 REVERT JUMPDEST PUSH2 0x4CF7 DUP9 PUSH1 0x20 DUP4 ADD MLOAD PUSH1 0x40 DUP5 ADD PUSH2 0x4BC6 JUMP JUMPDEST DUP5 MSTORE POP PUSH1 0x20 SWAP3 DUP4 ADD SWAP3 ADD PUSH2 0x4CB8 JUMP JUMPDEST DUP1 MLOAD PUSH2 0x3CB6 DUP2 PUSH2 0x3C97 JUMP JUMPDEST DUP1 MLOAD PUSH2 0x3CB6 DUP2 PUSH2 0x433A JUMP JUMPDEST PUSH0 PUSH1 0x80 DUP3 DUP5 SUB SLT ISZERO PUSH2 0x4D2C JUMPI PUSH0 DUP1 REVERT JUMPDEST PUSH2 0x4D34 PUSH2 0x3FC7 JUMP JUMPDEST DUP3 MLOAD DUP2 MSTORE PUSH1 0x20 DUP4 ADD MLOAD SWAP1 SWAP2 POP PUSH1 0x1 PUSH1 0x1 PUSH1 0x40 SHL SUB DUP2 GT ISZERO PUSH2 0x4D53 JUMPI PUSH0 DUP1 REVERT JUMPDEST DUP3 ADD PUSH2 0x300 DUP2 DUP6 SUB SLT ISZERO PUSH2 0x4D65 JUMPI PUSH0 DUP1 REVERT JUMPDEST PUSH2 0x4D6D PUSH2 0x3FE9 JUMP JUMPDEST DUP2 MLOAD PUSH1 0x1 PUSH1 0x1 PUSH1 0x40 SHL SUB DUP2 GT ISZERO PUSH2 0x4D82 JUMPI PUSH0 DUP1 REVERT JUMPDEST PUSH2 0x4D8E DUP7 DUP3 DUP6 ADD PUSH2 0x4BFC JUMP JUMPDEST DUP3 MSTORE POP PUSH1 0x20 DUP3 DUP2 ADD MLOAD SWAP1 DUP3 ADD MSTORE PUSH1 0x40 DUP3 ADD MLOAD PUSH1 0x1 PUSH1 0x1 PUSH1 0x40 SHL SUB DUP2 GT ISZERO PUSH2 0x4DB3 JUMPI PUSH0 DUP1 REVERT JUMPDEST PUSH2 0x4DBF DUP7 DUP3 DUP6 ADD PUSH2 0x4BFC JUMP JUMPDEST PUSH1 0x40 DUP4 ADD MSTORE POP PUSH1 0x60 DUP3 DUP2 ADD MLOAD SWAP1 DUP3 ADD MSTORE PUSH1 0x80 DUP1 DUP4 ADD MLOAD SWAP1 DUP3 ADD MSTORE PUSH1 0xA0 DUP1 DUP4 ADD MLOAD SWAP1 DUP3 ADD MSTORE PUSH1 0xC0 DUP1 DUP4 ADD MLOAD SWAP1 DUP3 ADD MSTORE PUSH1 0xE0 DUP3 ADD MLOAD PUSH1 0x1 PUSH1 0x1 PUSH1 0x40 SHL SUB DUP2 GT ISZERO PUSH2 0x4E05 JUMPI PUSH0 DUP1 REVERT JUMPDEST PUSH2 0x4E11 DUP7 DUP3 DUP6 ADD PUSH2 0x4C1A JUMP JUMPDEST PUSH1 0xE0 DUP4 ADD MSTORE POP PUSH2 0x100 DUP3 ADD MLOAD PUSH1 0x1 PUSH1 0x1 PUSH1 0x40 SHL SUB DUP2 GT ISZERO PUSH2 0x4E30 JUMPI PUSH0 DUP1 REVERT JUMPDEST PUSH2 0x4E3C DUP7 DUP3 DUP6 ADD PUSH2 0x4C75 JUMP JUMPDEST PUSH2 0x100 DUP4 ADD MSTORE POP PUSH2 0x120 DUP3 DUP2 ADD MLOAD SWAP1 DUP3 ADD MSTORE PUSH2 0x140 DUP1 DUP4 ADD MLOAD SWAP1 DUP3 ADD MSTORE PUSH2 0x160 DUP3 ADD MLOAD PUSH1 0x1 PUSH1 0x1 PUSH1 0x40 SHL SUB DUP2 GT ISZERO PUSH2 0x4E72 JUMPI PUSH0 DUP1 REVERT JUMPDEST PUSH2 0x4E7E DUP7 DUP3 DUP6 ADD PUSH2 0x4C75 JUMP JUMPDEST PUSH2 0x160 DUP4 ADD MSTORE POP PUSH2 0x4E92 PUSH2 0x180 DUP4 ADD PUSH2 0x4D06 JUMP JUMPDEST PUSH2 0x180 DUP3 ADD MSTORE PUSH2 0x1A0 DUP3 ADD MLOAD PUSH1 0x1 PUSH1 0x1 PUSH1 0x40 SHL SUB DUP2 GT ISZERO PUSH2 0x4EB1 JUMPI PUSH0 DUP1 REVERT JUMPDEST PUSH2 0x4EBD DUP7 DUP3 DUP6 ADD PUSH2 0x4BFC JUMP JUMPDEST PUSH2 0x1A0 DUP4 ADD MSTORE POP PUSH2 0x1C0 DUP3 ADD MLOAD PUSH1 0x1 PUSH1 0x1 PUSH1 0x40 SHL SUB DUP2 GT ISZERO PUSH2 0x4EDD JUMPI PUSH0 DUP1 REVERT JUMPDEST PUSH2 0x4EE9 DUP7 DUP3 DUP6 ADD PUSH2 0x4BFC JUMP JUMPDEST PUSH2 0x1C0 DUP4 ADD MSTORE POP PUSH2 0x4EFD PUSH2 0x1E0 DUP4 ADD PUSH2 0x4D11 JUMP JUMPDEST PUSH2 0x1E0 DUP3 ADD MSTORE PUSH2 0x200 DUP3 ADD MLOAD PUSH1 0x1 PUSH1 0x1 PUSH1 0x40 SHL SUB DUP2 GT ISZERO PUSH2 0x4F1C JUMPI PUSH0 DUP1 REVERT JUMPDEST PUSH2 0x4F28 DUP7 DUP3 DUP6 ADD PUSH2 0x4C75 JUMP JUMPDEST PUSH2 0x200 DUP4 ADD MSTORE POP PUSH2 0x220 DUP3 ADD MLOAD PUSH1 0x1 PUSH1 0x1 PUSH1 0x40 SHL SUB DUP2 GT ISZERO PUSH2 0x4F48 JUMPI PUSH0 DUP1 REVERT JUMPDEST PUSH2 0x4F54 DUP7 DUP3 DUP6 ADD PUSH2 0x4BFC JUMP JUMPDEST PUSH2 0x220 DUP4 ADD MSTORE POP PUSH2 0x240 DUP3 DUP2 ADD MLOAD SWAP1 DUP3 ADD MSTORE PUSH2 0x260 DUP1 DUP4 ADD MLOAD SWAP1 DUP3 ADD MSTORE PUSH2 0x280 DUP1 DUP4 ADD MLOAD SWAP1 DUP3 ADD MSTORE PUSH2 0x4F89 PUSH2 0x2A0 DUP4 ADD PUSH2 0x4D11 JUMP JUMPDEST PUSH2 0x2A0 DUP3 ADD MSTORE PUSH2 0x4F9C PUSH2 0x2C0 DUP4 ADD PUSH2 0x4D11 JUMP JUMPDEST PUSH2 0x2C0 DUP3 ADD MSTORE PUSH2 0x2E0 SWAP2 DUP3 ADD MLOAD SWAP2 DUP2 ADD SWAP2 SWAP1 SWAP2 MSTORE PUSH1 0x20 DUP3 ADD MSTORE PUSH1 0x40 DUP3 DUP2 ADD MLOAD SWAP1 DUP3 ADD MSTORE PUSH1 0x60 SWAP2 DUP3 ADD MLOAD SWAP2 DUP2 ADD SWAP2 SWAP1 SWAP2 MSTORE SWAP2 SWAP1 POP JUMP JUMPDEST PUSH0 PUSH1 0x20 DUP3 DUP5 SUB SLT ISZERO PUSH2 0x4FE1 JUMPI PUSH0 DUP1 REVERT JUMPDEST DUP2 MLOAD PUSH1 0x1 PUSH1 0x1 PUSH1 0x40 SHL SUB DUP2 GT ISZERO PUSH2 0x4FF6 JUMPI PUSH0 DUP1 REVERT JUMPDEST PUSH2 0x42DE DUP5 DUP3 DUP6 ADD PUSH2 0x4D1C JUMP JUMPDEST DUP2 DUP2 SUB DUP2 DUP2 GT ISZERO PUSH2 0xA91 JUMPI PUSH2 0xA91 PUSH2 0x4AB8 JUMP JUMPDEST PUSH1 0x1F DUP3 GT ISZERO PUSH2 0x5059 JUMPI DUP1 PUSH0 MSTORE PUSH1 0x20 PUSH0 KECCAK256 PUSH1 0x1F DUP5 ADD PUSH1 0x5 SHR DUP2 ADD PUSH1 0x20 DUP6 LT ISZERO PUSH2 0x503A JUMPI POP DUP1 JUMPDEST PUSH1 0x1F DUP5 ADD PUSH1 0x5 SHR DUP3 ADD SWAP2 POP JUMPDEST DUP2 DUP2 LT ISZERO PUSH2 0x2664 JUMPI PUSH0 DUP2 SSTORE PUSH1 0x1 ADD PUSH2 0x5046 JUMP JUMPDEST POP POP POP JUMP JUMPDEST DUP2 DUP2 SUB PUSH2 0x5069 JUMPI POP POP JUMP JUMPDEST PUSH2 0x5073 DUP3 SLOAD PUSH2 0x4B94 JUMP JUMPDEST PUSH1 0x1 PUSH1 0x1 PUSH1 0x40 SHL SUB DUP2 GT ISZERO PUSH2 0x508A JUMPI PUSH2 0x508A PUSH2 0x3F69 JUMP JUMPDEST PUSH2 0x509E DUP2 PUSH2 0x5098 DUP5 SLOAD PUSH2 0x4B94 JUMP JUMPDEST DUP5 PUSH2 0x5015 JUMP JUMPDEST PUSH0 PUSH1 0x1F DUP3 GT PUSH1 0x1 DUP2 EQ PUSH2 0x50D2 JUMPI PUSH0 DUP4 ISZERO PUSH2 0x50B8 JUMPI POP DUP5 DUP3 ADD SLOAD JUMPDEST PUSH1 0x1 DUP5 SWAP1 SHL PUSH0 NOT PUSH1 0x3 DUP7 SWAP1 SHL SHR NOT DUP3 AND OR JUMPDEST DUP6 SSTORE POP PUSH2 0x2664 JUMP JUMPDEST PUSH0 DUP6 DUP2 MSTORE PUSH1 0x20 DUP1 DUP3 KECCAK256 DUP7 DUP4 MSTORE SWAP1 DUP3 KECCAK256 PUSH1 0x1F NOT DUP7 AND SWAP3 JUMPDEST DUP4 DUP2 LT ISZERO PUSH2 0x5108 JUMPI DUP3 DUP7 ADD SLOAD DUP3 SSTORE PUSH1 0x1 SWAP6 DUP7 ADD SWAP6 SWAP1 SWAP2 ADD SWAP1 PUSH1 0x20 ADD PUSH2 0x50E8 JUMP JUMPDEST POP DUP6 DUP4 LT ISZERO PUSH2 0x5125 JUMPI DUP2 DUP6 ADD SLOAD PUSH0 NOT PUSH1 0x3 DUP9 SWAP1 SHL PUSH1 0xF8 AND SHR NOT AND DUP2 SSTORE JUMPDEST POP POP POP POP POP PUSH1 0x1 SWAP1 DUP2 SHL ADD SWAP1 SSTORE POP JUMP JUMPDEST PUSH4 0x4E487B71 PUSH1 0xE0 SHL PUSH0 MSTORE PUSH1 0x31 PUSH1 0x4 MSTORE PUSH1 0x24 PUSH0 REVERT JUMPDEST PUSH0 DUP2 PUSH2 0x5157 JUMPI PUSH2 0x5157 PUSH2 0x4AB8 JUMP JUMPDEST POP PUSH0 NOT ADD SWAP1 JUMP JUMPDEST PUSH0 PUSH1 0x20 DUP3 DUP5 SUB SLT ISZERO PUSH2 0x516E JUMPI PUSH0 DUP1 REVERT JUMPDEST DUP2 MLOAD PUSH1 0x1 PUSH1 0x1 PUSH1 0x40 SHL SUB DUP2 GT ISZERO PUSH2 0x5183 JUMPI PUSH0 DUP1 REVERT JUMPDEST DUP3 ADD PUSH1 0x1F DUP2 ADD DUP5 SGT PUSH2 0x5193 JUMPI PUSH0 DUP1 REVERT JUMPDEST DUP1 MLOAD PUSH2 0x51A1 PUSH2 0x40E7 DUP3 PUSH2 0x43CF JUMP JUMPDEST DUP1 DUP3 DUP3 MSTORE PUSH1 0x20 DUP3 ADD SWAP2 POP PUSH1 0x20 DUP4 PUSH1 0x5 SHL DUP6 ADD ADD SWAP3 POP DUP7 DUP4 GT ISZERO PUSH2 0x51C2 JUMPI PUSH0 DUP1 REVERT JUMPDEST PUSH1 0x20 DUP5 ADD JUMPDEST DUP4 DUP2 LT ISZERO PUSH2 0x5202 JUMPI DUP1 MLOAD PUSH1 0x1 PUSH1 0x1 PUSH1 0x40 SHL SUB DUP2 GT ISZERO PUSH2 0x51E4 JUMPI PUSH0 DUP1 REVERT JUMPDEST PUSH2 0x51F3 DUP10 PUSH1 0x20 DUP4 DUP10 ADD ADD PUSH2 0x4D1C JUMP JUMPDEST DUP5 MSTORE POP PUSH1 0x20 SWAP3 DUP4 ADD SWAP3 ADD PUSH2 0x51C7 JUMP JUMPDEST POP SWAP7 SWAP6 POP POP POP POP POP POP JUMP JUMPDEST PUSH0 PUSH1 0x20 DUP3 DUP5 SUB SLT ISZERO PUSH2 0x521D JUMPI PUSH0 DUP1 REVERT JUMPDEST DUP2 MLOAD PUSH1 0x1 PUSH1 0x1 PUSH1 0x40 SHL SUB DUP2 GT ISZERO PUSH2 0x5232 JUMPI PUSH0 DUP1 REVERT JUMPDEST DUP3 ADD PUSH1 0x1F DUP2 ADD DUP5 SGT PUSH2 0x5242 JUMPI PUSH0 DUP1 REVERT JUMPDEST DUP1 MLOAD PUSH2 0x5250 PUSH2 0x40E7 DUP3 PUSH2 0x43CF JUMP JUMPDEST DUP1 DUP3 DUP3 MSTORE PUSH1 0x20 DUP3 ADD SWAP2 POP PUSH1 0x20 DUP4 PUSH1 0x5 SHL DUP6 ADD ADD SWAP3 POP DUP7 DUP4 GT ISZERO PUSH2 0x5271 JUMPI PUSH0 DUP1 REVERT JUMPDEST PUSH1 0x20 DUP5 ADD SWAP4 POP JUMPDEST DUP3 DUP5 LT ISZERO PUSH2 0x431E JUMPI DUP4 MLOAD PUSH2 0x528B DUP2 PUSH2 0x3C97 JUMP JUMPDEST DUP3 MSTORE PUSH1 0x20 SWAP4 DUP5 ADD SWAP4 SWAP1 SWAP2 ADD SWAP1 PUSH2 0x5278 JUMP JUMPDEST DUP2 MLOAD PUSH1 0x1 PUSH1 0x1 PUSH1 0x40 SHL SUB DUP2 GT ISZERO PUSH2 0x52B5 JUMPI PUSH2 0x52B5 PUSH2 0x3F69 JUMP JUMPDEST PUSH2 0x52C3 DUP2 PUSH2 0x5098 DUP5 SLOAD PUSH2 0x4B94 JUMP JUMPDEST PUSH1 0x20 PUSH1 0x1F DUP3 GT PUSH1 0x1 DUP2 EQ PUSH2 0x52F3 JUMPI PUSH0 DUP4 ISZERO PUSH2 0x50B8 JUMPI POP DUP2 DUP6 ADD MLOAD PUSH1 0x1 DUP5 SWAP1 SHL PUSH0 NOT PUSH1 0x3 DUP7 SWAP1 SHL SHR NOT DUP3 AND OR PUSH2 0x50CA JUMP JUMPDEST PUSH0 DUP5 DUP2 MSTORE PUSH1 0x20 DUP2 KECCAK256 PUSH1 0x1F NOT DUP6 AND SWAP2 JUMPDEST DUP3 DUP2 LT ISZERO PUSH2 0x5322 JUMPI DUP8 DUP6 ADD MLOAD DUP3 SSTORE PUSH1 0x20 SWAP5 DUP6 ADD SWAP5 PUSH1 0x1 SWAP1 SWAP3 ADD SWAP2 ADD PUSH2 0x5302 JUMP JUMPDEST POP DUP5 DUP3 LT ISZERO PUSH2 0x533F JUMPI DUP7 DUP5 ADD MLOAD PUSH0 NOT PUSH1 0x3 DUP8 SWAP1 SHL PUSH1 0xF8 AND SHR NOT AND DUP2 SSTORE JUMPDEST POP POP POP POP PUSH1 0x1 SWAP1 DUP2 SHL ADD SWAP1 SSTORE POP JUMP JUMPDEST DUP1 MLOAD PUSH2 0x3CB6 DUP2 PUSH2 0x43B6 JUMP JUMPDEST DUP1 MLOAD PUSH1 0x3 DUP2 LT PUSH2 0x3CB6 JUMPI PUSH0 DUP1 REVERT JUMPDEST PUSH0 DUP3 PUSH1 0x1F DUP4 ADD SLT PUSH2 0x5376 JUMPI PUSH0 DUP1 REVERT JUMPDEST DUP2 MLOAD PUSH2 0x5384 PUSH2 0x40E7 DUP3 PUSH2 0x43CF JUMP JUMPDEST DUP1 DUP3 DUP3 MSTORE PUSH1 0x20 DUP3 ADD SWAP2 POP PUSH1 0x20 DUP4 PUSH1 0x5 SHL DUP7 ADD ADD SWAP3 POP DUP6 DUP4 GT ISZERO PUSH2 0x53A5 JUMPI PUSH0 DUP1 REVERT JUMPDEST PUSH1 0x20 DUP6 ADD JUMPDEST DUP4 DUP2 LT ISZERO PUSH2 0x444C JUMPI DUP1 MLOAD PUSH1 0x1 PUSH1 0x1 PUSH1 0x40 SHL SUB DUP2 GT ISZERO PUSH2 0x53C7 JUMPI PUSH0 DUP1 REVERT JUMPDEST DUP7 ADD PUSH1 0xA0 DUP2 DUP10 SUB PUSH1 0x1F NOT ADD SLT ISZERO PUSH2 0x53DC JUMPI PUSH0 DUP1 REVERT JUMPDEST PUSH2 0x53E4 PUSH2 0x3FA5 JUMP JUMPDEST PUSH1 0x20 DUP3 ADD MLOAD PUSH1 0x1 PUSH1 0x1 PUSH1 0x40 SHL SUB DUP2 GT ISZERO PUSH2 0x53FC JUMPI PUSH0 DUP1 REVERT JUMPDEST PUSH2 0x540B DUP11 PUSH1 0x20 DUP4 DUP7 ADD ADD PUSH2 0x4BFC JUMP JUMPDEST DUP3 MSTORE POP PUSH1 0x40 DUP3 ADD MLOAD PUSH1 0x1 PUSH1 0x1 PUSH1 0x40 SHL SUB DUP2 GT ISZERO PUSH2 0x5426 JUMPI PUSH0 DUP1 REVERT JUMPDEST PUSH2 0x5435 DUP11 PUSH1 0x20 DUP4 DUP7 ADD ADD PUSH2 0x4BFC JUMP JUMPDEST PUSH1 0x20 DUP4 ADD MSTORE POP PUSH1 0x60 DUP3 ADD MLOAD PUSH1 0x1 PUSH1 0x1 PUSH1 0x40 SHL SUB DUP2 GT ISZERO PUSH2 0x5453 JUMPI PUSH0 DUP1 REVERT JUMPDEST PUSH2 0x5462 DUP11 PUSH1 0x20 DUP4 DUP7 ADD ADD PUSH2 0x4BFC JUMP JUMPDEST PUSH1 0x40 DUP4 ADD MSTORE POP PUSH1 0x80 DUP3 ADD MLOAD PUSH1 0x1 PUSH1 0x1 PUSH1 0x40 SHL SUB DUP2 GT ISZERO PUSH2 0x5480 JUMPI PUSH0 DUP1 REVERT JUMPDEST PUSH2 0x548F DUP11 PUSH1 0x20 DUP4 DUP7 ADD ADD PUSH2 0x4BFC JUMP JUMPDEST PUSH1 0x60 DUP4 ADD MSTORE POP PUSH1 0xA0 DUP3 ADD MLOAD PUSH1 0x1 PUSH1 0x1 PUSH1 0x40 SHL SUB DUP2 GT ISZERO PUSH2 0x54AD JUMPI PUSH0 DUP1 REVERT JUMPDEST PUSH2 0x54BC DUP11 PUSH1 0x20 DUP4 DUP7 ADD ADD PUSH2 0x4BFC JUMP JUMPDEST PUSH1 0x80 DUP4 ADD MSTORE POP DUP5 MSTORE POP PUSH1 0x20 SWAP3 DUP4 ADD SWAP3 ADD PUSH2 0x53AA JUMP JUMPDEST PUSH0 DUP1 PUSH1 0x40 DUP4 DUP6 SUB SLT ISZERO PUSH2 0x54E2 JUMPI PUSH0 DUP1 REVERT JUMPDEST DUP3 MLOAD PUSH1 0x1 PUSH1 0x1 PUSH1 0x40 SHL SUB DUP2 GT ISZERO PUSH2 0x54F7 JUMPI PUSH0 DUP1 REVERT JUMPDEST DUP4 ADD PUSH2 0x140 DUP2 DUP7 SUB SLT ISZERO PUSH2 0x5509 JUMPI PUSH0 DUP1 REVERT JUMPDEST PUSH2 0x5511 PUSH2 0x400C JUMP JUMPDEST PUSH2 0x551A DUP3 PUSH2 0x4D06 JUMP JUMPDEST DUP2 MSTORE PUSH1 0x20 DUP3 ADD MLOAD PUSH1 0x1 PUSH1 0x1 PUSH1 0x40 SHL SUB DUP2 GT ISZERO PUSH2 0x5534 JUMPI PUSH0 DUP1 REVERT JUMPDEST PUSH2 0x5540 DUP8 DUP3 DUP6 ADD PUSH2 0x4BFC JUMP JUMPDEST PUSH1 0x20 DUP4 ADD MSTORE POP PUSH1 0x40 DUP3 ADD MLOAD PUSH1 0x1 PUSH1 0x1 PUSH1 0x40 SHL SUB DUP2 GT ISZERO PUSH2 0x555E JUMPI PUSH0 DUP1 REVERT JUMPDEST PUSH2 0x556A DUP8 DUP3 DUP6 ADD PUSH2 0x4BFC JUMP JUMPDEST PUSH1 0x40 DUP4 ADD MSTORE POP PUSH2 0x557C PUSH1 0x60 DUP4 ADD PUSH2 0x534E JUMP JUMPDEST PUSH1 0x60 DUP3 ADD MSTORE PUSH1 0x80 DUP3 DUP2 ADD MLOAD SWAP1 DUP3 ADD MSTORE PUSH1 0xA0 DUP3 ADD MLOAD PUSH1 0x1 PUSH1 0x1 PUSH1 0x40 SHL SUB DUP2 GT ISZERO PUSH2 0x55A3 JUMPI PUSH0 DUP1 REVERT JUMPDEST PUSH2 0x55AF DUP8 DUP3 DUP6 ADD PUSH2 0x4BFC JUMP JUMPDEST PUSH1 0xA0 DUP4 ADD MSTORE POP PUSH1 0xC0 DUP3 ADD MLOAD PUSH1 0x1 PUSH1 0x1 PUSH1 0x40 SHL SUB DUP2 GT ISZERO PUSH2 0x55CD JUMPI PUSH0 DUP1 REVERT JUMPDEST PUSH2 0x55D9 DUP8 DUP3 DUP6 ADD PUSH2 0x4BFC JUMP JUMPDEST PUSH1 0xC0 DUP4 ADD MSTORE POP PUSH2 0x55EB PUSH1 0xE0 DUP4 ADD PUSH2 0x5359 JUMP JUMPDEST PUSH1 0xE0 DUP3 ADD MSTORE PUSH2 0x100 DUP3 DUP2 ADD MLOAD SWAP1 DUP3 ADD MSTORE PUSH2 0x5608 PUSH2 0x120 DUP4 ADD PUSH2 0x4D06 JUMP JUMPDEST PUSH2 0x120 DUP3 ADD MSTORE DUP1 SWAP4 POP POP POP PUSH1 0x20 DUP4 ADD MLOAD PUSH1 0x1 PUSH1 0x1 PUSH1 0x40 SHL SUB DUP2 GT ISZERO PUSH2 0x562B JUMPI PUSH0 DUP1 REVERT JUMPDEST PUSH2 0x4155 DUP6 DUP3 DUP7 ADD PUSH2 0x5367 JUMP JUMPDEST PUSH0 PUSH1 0x20 DUP3 DUP5 SUB SLT ISZERO PUSH2 0x5647 JUMPI PUSH0 DUP1 REVERT JUMPDEST DUP2 MLOAD PUSH1 0x1 PUSH1 0x1 PUSH1 0x40 SHL SUB DUP2 GT ISZERO PUSH2 0x565C JUMPI PUSH0 DUP1 REVERT JUMPDEST DUP3 ADD PUSH1 0x1F DUP2 ADD DUP5 SGT PUSH2 0x566C JUMPI PUSH0 DUP1 REVERT JUMPDEST DUP1 MLOAD PUSH2 0x567A PUSH2 0x40E7 DUP3 PUSH2 0x43CF JUMP JUMPDEST DUP1 DUP3 DUP3 MSTORE PUSH1 0x20 DUP3 ADD SWAP2 POP PUSH1 0x20 DUP4 PUSH1 0x5 SHL DUP6 ADD ADD SWAP3 POP DUP7 DUP4 GT ISZERO PUSH2 0x569B JUMPI PUSH0 DUP1 REVERT JUMPDEST PUSH1 0x20 DUP5 ADD JUMPDEST DUP4 DUP2 LT ISZERO PUSH2 0x5202 JUMPI DUP1 MLOAD PUSH1 0x1 PUSH1 0x1 PUSH1 0x40 SHL SUB DUP2 GT ISZERO PUSH2 0x56BD JUMPI PUSH0 DUP1 REVERT JUMPDEST DUP6 ADD PUSH2 0x260 DUP2 DUP11 SUB PUSH1 0x1F NOT ADD SLT ISZERO PUSH2 0x56D3 JUMPI PUSH0 DUP1 REVERT JUMPDEST PUSH2 0x56DB PUSH2 0x402F JUMP JUMPDEST PUSH1 0x20 DUP3 ADD MLOAD DUP2 MSTORE PUSH2 0x56EE PUSH1 0x40 DUP4 ADD PUSH2 0x4D06 JUMP JUMPDEST PUSH1 0x20 DUP3 ADD MSTORE PUSH2 0x56FF PUSH1 0x60 DUP4 ADD PUSH2 0x4D06 JUMP JUMPDEST PUSH1 0x40 DUP3 ADD MSTORE PUSH1 0x80 DUP3 ADD MLOAD PUSH1 0x60 DUP3 ADD MSTORE PUSH1 0xA0 DUP3 ADD MLOAD PUSH1 0x1 PUSH1 0x1 PUSH1 0x40 SHL SUB DUP2 GT ISZERO PUSH2 0x5726 JUMPI PUSH0 DUP1 REVERT JUMPDEST PUSH2 0x5735 DUP12 PUSH1 0x20 DUP4 DUP7 ADD ADD PUSH2 0x4C1A JUMP JUMPDEST PUSH1 0x80 DUP4 ADD MSTORE POP PUSH1 0xC0 DUP3 ADD MLOAD PUSH1 0x1 PUSH1 0x1 PUSH1 0x40 SHL SUB DUP2 GT ISZERO PUSH2 0x5753 JUMPI PUSH0 DUP1 REVERT JUMPDEST PUSH2 0x5762 DUP12 PUSH1 0x20 DUP4 DUP7 ADD ADD PUSH2 0x4C1A JUMP JUMPDEST PUSH1 0xA0 DUP4 ADD MSTORE POP PUSH1 0xE0 DUP3 ADD MLOAD PUSH1 0x1 PUSH1 0x1 PUSH1 0x40 SHL SUB DUP2 GT ISZERO PUSH2 0x5780 JUMPI PUSH0 DUP1 REVERT JUMPDEST PUSH2 0x578F DUP12 PUSH1 0x20 DUP4 DUP7 ADD ADD PUSH2 0x4C1A JUMP JUMPDEST PUSH1 0xC0 DUP4 ADD MSTORE POP PUSH2 0x100 DUP3 ADD MLOAD PUSH1 0x1 PUSH1 0x1 PUSH1 0x40 SHL SUB DUP2 GT ISZERO PUSH2 0x57AE JUMPI PUSH0 DUP1 REVERT JUMPDEST PUSH2 0x57BD DUP12 PUSH1 0x20 DUP4 DUP7 ADD ADD PUSH2 0x4C1A JUMP JUMPDEST PUSH1 0xE0 DUP4 ADD MSTORE POP PUSH2 0x120 DUP3 ADD MLOAD PUSH1 0x1 PUSH1 0x1 PUSH1 0x40 SHL SUB DUP2 GT ISZERO PUSH2 0x57DC JUMPI PUSH0 DUP1 REVERT JUMPDEST PUSH2 0x57EB DUP12 PUSH1 0x20 DUP4 DUP7 ADD ADD PUSH2 0x4C1A JUMP JUMPDEST PUSH2 0x100 DUP4 ADD MSTORE POP PUSH2 0x140 DUP3 ADD MLOAD PUSH1 0x1 PUSH1 0x1 PUSH1 0x40 SHL SUB DUP2 GT ISZERO PUSH2 0x580B JUMPI PUSH0 DUP1 REVERT JUMPDEST PUSH2 0x581A DUP12 PUSH1 0x20 DUP4 DUP7 ADD ADD PUSH2 0x4C1A JUMP JUMPDEST PUSH2 0x120 DUP4 ADD MSTORE POP PUSH2 0x160 DUP3 ADD MLOAD PUSH1 0x1 PUSH1 0x1 PUSH1 0x40 SHL SUB DUP2 GT ISZERO PUSH2 0x583A JUMPI PUSH0 DUP1 REVERT JUMPDEST PUSH2 0x5849 DUP12 PUSH1 0x20 DUP4 DUP7 ADD ADD PUSH2 0x4C1A JUMP JUMPDEST PUSH2 0x140 DUP4 ADD MSTORE POP PUSH2 0x180 DUP3 ADD MLOAD PUSH2 0x160 DUP3 ADD MSTORE PUSH2 0x5869 PUSH2 0x1A0 DUP4 ADD PUSH2 0x534E JUMP JUMPDEST PUSH2 0x180 DUP3 ADD MSTORE PUSH2 0x587C PUSH2 0x1C0 DUP4 ADD PUSH2 0x534E JUMP JUMPDEST PUSH2 0x1A0 DUP3 ADD MSTORE PUSH2 0x1E0 DUP3 DUP2 ADD MLOAD PUSH2 0x1C0 DUP4 ADD MSTORE PUSH2 0x200 DUP1 DUP5 ADD MLOAD SWAP2 DUP4 ADD SWAP2 SWAP1 SWAP2 MSTORE PUSH2 0x220 DUP4 ADD MLOAD SWAP1 DUP3 ADD MSTORE PUSH2 0x58B4 PUSH2 0x240 DUP4 ADD PUSH2 0x534E JUMP JUMPDEST PUSH2 0x220 DUP3 ADD MSTORE PUSH2 0x260 SWAP2 SWAP1 SWAP2 ADD MLOAD PUSH2 0x240 DUP3 ADD MSTORE DUP4 MSTORE PUSH1 0x20 SWAP3 DUP4 ADD SWAP3 ADD PUSH2 0x56A0 JUMP JUMPDEST PUSH0 PUSH1 0x20 DUP3 DUP5 SUB SLT ISZERO PUSH2 0x58E6 JUMPI PUSH0 DUP1 REVERT JUMPDEST DUP2 MLOAD PUSH1 0x1 PUSH1 0x1 PUSH1 0x40 SHL SUB DUP2 GT ISZERO PUSH2 0x58FB JUMPI PUSH0 DUP1 REVERT JUMPDEST DUP3 ADD PUSH1 0x1F DUP2 ADD DUP5 SGT PUSH2 0x590B JUMPI PUSH0 DUP1 REVERT JUMPDEST DUP1 MLOAD PUSH2 0x5919 PUSH2 0x40E7 DUP3 PUSH2 0x43CF JUMP JUMPDEST DUP1 DUP3 DUP3 MSTORE PUSH1 0x20 DUP3 ADD SWAP2 POP PUSH1 0x20 PUSH1 0x60 DUP5 MUL DUP6 ADD ADD SWAP3 POP DUP7 DUP4 GT ISZERO PUSH2 0x593A JUMPI PUSH0 DUP1 REVERT JUMPDEST PUSH1 0x20 DUP5 ADD SWAP4 POP JUMPDEST DUP3 DUP5 LT ISZERO PUSH2 0x431E JUMPI PUSH1 0x60 DUP5 DUP9 SUB SLT ISZERO PUSH2 0x5958 JUMPI PUSH0 DUP1 REVERT JUMPDEST PUSH2 0x5960 PUSH2 0x4052 JUMP JUMPDEST DUP5 MLOAD PUSH2 0x596B DUP2 PUSH2 0x43B6 JUMP JUMPDEST DUP2 MSTORE PUSH1 0x20 DUP6 DUP2 ADD MLOAD SWAP1 DUP3 ADD MSTORE PUSH1 0x40 DUP6 ADD MLOAD PUSH2 0x5985 DUP2 PUSH2 0x3C97 JUMP JUMPDEST PUSH1 0x40 DUP3 ADD MSTORE DUP3 MSTORE PUSH1 0x60 SWAP4 SWAP1 SWAP4 ADD SWAP3 PUSH1 0x20 SWAP1 SWAP2 ADD SWAP1 PUSH2 0x5941 JUMP JUMPDEST PUSH0 PUSH1 0x20 DUP3 DUP5 SUB SLT ISZERO PUSH2 0x59AE JUMPI PUSH0 DUP1 REVERT JUMPDEST DUP2 MLOAD PUSH1 0x1 PUSH1 0x1 PUSH1 0x40 SHL SUB DUP2 GT ISZERO PUSH2 0x59C3 JUMPI PUSH0 DUP1 REVERT JUMPDEST DUP3 ADD PUSH1 0x60 DUP2 DUP6 SUB SLT ISZERO PUSH2 0x59D4 JUMPI PUSH0 DUP1 REVERT JUMPDEST PUSH2 0x59DC PUSH2 0x4052 JUMP JUMPDEST DUP2 MLOAD DUP2 MSTORE PUSH1 0x20 DUP3 ADD MLOAD PUSH2 0x59EE DUP2 PUSH2 0x3C97 JUMP JUMPDEST PUSH1 0x20 DUP3 ADD MSTORE PUSH1 0x40 DUP3 ADD MLOAD PUSH1 0x1 PUSH1 0x1 PUSH1 0x40 SHL SUB DUP2 GT ISZERO PUSH2 0x5A0B JUMPI PUSH0 DUP1 REVERT JUMPDEST DUP1 DUP4 ADD SWAP3 POP POP DUP5 PUSH1 0x1F DUP4 ADD SLT PUSH2 0x5A1F JUMPI PUSH0 DUP1 REVERT JUMPDEST DUP2 MLOAD PUSH2 0x5A2D PUSH2 0x40E7 DUP3 PUSH2 0x43CF JUMP JUMPDEST DUP1 DUP3 DUP3 MSTORE PUSH1 0x20 DUP3 ADD SWAP2 POP PUSH1 0x20 PUSH1 0xA0 DUP5 MUL DUP7 ADD ADD SWAP3 POP DUP8 DUP4 GT ISZERO PUSH2 0x5A4E JUMPI PUSH0 DUP1 REVERT JUMPDEST PUSH1 0x20 DUP6 ADD SWAP5 POP JUMPDEST DUP3 DUP6 LT ISZERO PUSH2 0x5AB3 JUMPI PUSH1 0xA0 DUP6 DUP10 SUB SLT ISZERO PUSH2 0x5A6C JUMPI PUSH0 DUP1 REVERT JUMPDEST PUSH2 0x5A74 PUSH2 0x3FA5 JUMP JUMPDEST DUP6 MLOAD DUP2 MSTORE PUSH1 0x20 DUP1 DUP8 ADD MLOAD DUP2 DUP4 ADD MSTORE PUSH1 0x40 DUP1 DUP9 ADD MLOAD SWAP1 DUP4 ADD MSTORE PUSH1 0x60 DUP1 DUP9 ADD MLOAD SWAP1 DUP4 ADD MSTORE PUSH1 0x80 DUP1 DUP9 ADD MLOAD SWAP1 DUP4 ADD MSTORE SWAP1 DUP4 MSTORE PUSH1 0xA0 SWAP1 SWAP6 ADD SWAP5 SWAP2 SWAP1 SWAP2 ADD SWAP1 PUSH2 0x5A55 JUMP JUMPDEST PUSH1 0x40 DUP5 ADD MSTORE POP SWAP1 SWAP6 SWAP5 POP POP POP POP POP JUMP JUMPDEST PUSH0 PUSH1 0x20 DUP3 DUP5 SUB SLT ISZERO PUSH2 0x5AD3 JUMPI PUSH0 DUP1 REVERT JUMPDEST DUP2 MLOAD PUSH1 0x1 PUSH1 0x1 PUSH1 0x40 SHL SUB DUP2 GT ISZERO PUSH2 0x5AE8 JUMPI PUSH0 DUP1 REVERT JUMPDEST DUP3 ADD PUSH1 0x1F DUP2 ADD DUP5 SGT PUSH2 0x5AF8 JUMPI PUSH0 DUP1 REVERT JUMPDEST DUP1 MLOAD PUSH2 0x5B06 PUSH2 0x40E7 DUP3 PUSH2 0x43CF JUMP JUMPDEST DUP1 DUP3 DUP3 MSTORE PUSH1 0x20 DUP3 ADD SWAP2 POP PUSH1 0x20 DUP4 PUSH1 0x6 SHL DUP6 ADD ADD SWAP3 POP DUP7 DUP4 GT ISZERO PUSH2 0x5B27 JUMPI PUSH0 DUP1 REVERT JUMPDEST PUSH1 0x20 DUP5 ADD SWAP4 POP JUMPDEST DUP3 DUP5 LT ISZERO PUSH2 0x431E JUMPI PUSH1 0x40 DUP5 DUP9 SUB SLT ISZERO PUSH2 0x5B45 JUMPI PUSH0 DUP1 REVERT JUMPDEST PUSH2 0x5B4D PUSH2 0x3F7D JUMP JUMPDEST DUP5 MLOAD DUP2 MSTORE PUSH1 0x20 DUP1 DUP7 ADD MLOAD DUP2 DUP4 ADD MSTORE SWAP1 DUP4 MSTORE PUSH1 0x40 SWAP1 SWAP5 ADD SWAP4 SWAP2 SWAP1 SWAP2 ADD SWAP1 PUSH2 0x5B2E JUMP JUMPDEST PUSH4 0x4E487B71 PUSH1 0xE0 SHL PUSH0 MSTORE PUSH1 0x21 PUSH1 0x4 MSTORE PUSH1 0x24 PUSH0 REVERT JUMPDEST PUSH0 PUSH1 0x20 DUP3 ADD PUSH1 0x20 DUP4 MSTORE DUP1 DUP5 MLOAD DUP1 DUP4 MSTORE PUSH1 0x40 DUP6 ADD SWAP2 POP PUSH1 0x40 DUP2 PUSH1 0x5 SHL DUP7 ADD ADD SWAP3 POP PUSH1 0x20 DUP7 ADD PUSH0 JUMPDEST DUP3 DUP2 LT ISZERO PUSH2 0x5BD9 JUMPI PUSH1 0x3F NOT DUP8 DUP7 SUB ADD DUP5 MSTORE PUSH2 0x5BC4 DUP6 DUP4 MLOAD PUSH2 0x3D1C JUMP JUMPDEST SWAP5 POP PUSH1 0x20 SWAP4 DUP5 ADD SWAP4 SWAP2 SWAP1 SWAP2 ADD SWAP1 PUSH1 0x1 ADD PUSH2 0x5BA8 JUMP JUMPDEST POP SWAP3 SWAP7 SWAP6 POP POP POP POP POP POP JUMP JUMPDEST DUP1 DUP3 ADD DUP1 DUP3 GT ISZERO PUSH2 0xA91 JUMPI PUSH2 0xA91 PUSH2 0x4AB8 JUMP INVALID BLOBHASH PUSH15 0x76616C696420636F756E7420746F74 PUSH2 0x6C20 PUSH4 0x6F6D6D65 PUSH15 0x7420616E6420666171496E76616C69 PUSH5 0x20636F756E PUSH21 0x3A20746F74616C2073797374656D20616464656420 PUSH21 0x6F2063617274496E76616C696420636F756E743A20 PUSH21 0x6F74616C2073797374656D206661766F7269746549 PUSH15 0x76616C696420636F756E743A207265 PUSH21 0x61696C657220616464656420746F2063617274A264 PUSH10 0x7066735822122066718C 0xAB SWAP8 0xEA 0xA8 ISZERO DUP15 EXTCODEHASH 0xF8 SWAP7 DELEGATECALL 0xB6 0xE9 0xAA SWAP13 0xC5 EXP 0xD4 0xDE CODECOPY 0x28 0xC5 0xC0 0xED 0xE2 0xCD 0xF7 SWAP12 EQ XOR PUSH5 0x736F6C6343 STOP ADDMOD BYTE STOP CALLER "
		},
		"gasEstimates": {
			"creation": {
				"codeDepositCost": "4749400",
				"executionCost": "102572",
				"totalCost": "4851972"
			},
			"external": {
				"EcomOrder()": "2427",
				"EcomProduct()": "2426",
				"EcomUser()": "2427",
				"SetEcomOrder(address)": "26912",
				"SetEcomProduct(address)": "26873",
				"SetEcomUser(address)": "26850",
				"admins(uint256)": "4725",
				"bestSellers(uint256)": "8945",
				"createListTrackUser((string,uint8,address,uint256[],uint256[]))": "infinite",
				"decreaseTotalAddedToCart(address)": "infinite",
				"decreaseTotalCommentAndFaq()": "infinite",
				"decreaseTotalFavorite(address)": "infinite",
				"deleteListTrackUser(string)": "infinite",
				"getBestSeller()": "infinite",
				"getErrorMessage(uint256,string)": "infinite",
				"getListTrackAdmin()": "infinite",
				"getListTrackRetailer()": "infinite",
				"getListTrackUser()": "infinite",
				"getListTrackUserActivityRetailer()": "infinite",
				"getListTrackUserActivitySystem()": "infinite",
				"getListTrackUserRetailer()": "infinite",
				"getOrderHistoryDetail()": "infinite",
				"getProductPurchaseTrend(uint256)": "infinite",
				"getProductTrend(uint256)": "infinite",
				"getRecentPurchases()": "infinite",
				"getRetailerAddedToCart()": "2493",
				"getRetailerFavorite()": "2470",
				"getSystemAddedToCart()": "4587",
				"getSystemFavorite()": "4589",
				"getSystemInfo()": "8905",
				"getSystemProductPurchase()": "infinite",
				"getTotalProductViewCount()": "infinite",
				"getUserPurchaseInfo(address)": "infinite",
				"increaseBestSeller(uint256)": "infinite",
				"increaseCountryPurchases(string,(uint256,uint256))": "infinite",
				"increaseProductPurchaseTrend(uint256)": "46763",
				"increasePurchases(address,uint256)": "infinite",
				"increaseTotalAddedToCart(address)": "infinite",
				"increaseTotalCommentAndFaq()": "24559",
				"increaseTotalFavorite(address)": "infinite",
				"listTrackUserActivityRetailer(address,uint256)": "4899",
				"listTrackUserActivitySystem(uint256)": "4801",
				"listTrackUserSystem(uint256)": "infinite",
				"mAdmin(address)": "2590",
				"mCountryPurchases(string,uint256)": "infinite",
				"mListTrackUserRetailer(address,uint256)": "infinite",
				"mProductPurchaseTrend(uint256,uint256)": "4726",
				"mProductSearchTrend(uint256,uint256)": "4794",
				"mProductViewCount(uint256)": "2504",
				"mPurchases(address,uint256)": "7003",
				"owner()": "2427",
				"removeUserActivity(address,uint256,address,bool)": "infinite",
				"setAdmin(address)": "75393",
				"systemPurchases(uint256)": "4707",
				"totalCommentAndFAQ()": "2405",
				"totalRetailerAddedToCart(address)": "2643",
				"totalRetailerFavorite(address)": "2599",
				"totalSystemAddedToCart()": "2428",
				"totalSystemFavorite()": "2360",
				"totalSystemProductShare()": "2383",
				"totalSystemPurchasePrice()": "2406",
				"totalSystemVisitors()": "2404",
				"trackUserActivity(address,uint256,uint256,address,uint8,bool)": "infinite",
				"updateProductShare()": "24560",
				"updateViewCount(uint256)": "71080",
				"updateWebsiteVisitors()": "24515"
			},
			"internal": {
				"createNewUserActivity(uint256,uint256,enum TrackActivityType)": "infinite",
				"getRetailersUsername(address[] memory)": "infinite",
				"removeUserActivityItem(struct AddedToCartAndWishList storage pointer,uint256)": "infinite",
				"removeUserFromActivityList(struct AddedToCartAndWishList storage ref[] storage pointer,uint256)": "infinite"
			}
		},
		"methodIdentifiers": {
			"EcomOrder()": "32f39436",
			"EcomProduct()": "a354f1b2",
			"EcomUser()": "4d5c5fd7",
			"SetEcomOrder(address)": "44089cd1",
			"SetEcomProduct(address)": "62de6230",
			"SetEcomUser(address)": "cac0e650",
			"admins(uint256)": "14bfd6d0",
			"bestSellers(uint256)": "409b2cdf",
			"createListTrackUser((string,uint8,address,uint256[],uint256[]))": "8ef58635",
			"decreaseTotalAddedToCart(address)": "92a198d5",
			"decreaseTotalCommentAndFaq()": "6f2069f0",
			"decreaseTotalFavorite(address)": "c0a22771",
			"deleteListTrackUser(string)": "6a7434e5",
			"getBestSeller()": "2c9aefe9",
			"getErrorMessage(uint256,string)": "2248632a",
			"getListTrackAdmin()": "2075bd3c",
			"getListTrackRetailer()": "bc43b9cc",
			"getListTrackUser()": "86acd564",
			"getListTrackUserActivityRetailer()": "467956ef",
			"getListTrackUserActivitySystem()": "9a761c4d",
			"getListTrackUserRetailer()": "edafaf63",
			"getOrderHistoryDetail()": "ac3b394f",
			"getProductPurchaseTrend(uint256)": "70e8e53c",
			"getProductTrend(uint256)": "32fd9850",
			"getRecentPurchases()": "abb4ca99",
			"getRetailerAddedToCart()": "35890aad",
			"getRetailerFavorite()": "aa29eac7",
			"getSystemAddedToCart()": "ac5fae69",
			"getSystemFavorite()": "13badcb8",
			"getSystemInfo()": "6cb69f42",
			"getSystemProductPurchase()": "f53bc6e3",
			"getTotalProductViewCount()": "795ec6d4",
			"getUserPurchaseInfo(address)": "e6801ac7",
			"increaseBestSeller(uint256)": "8286980c",
			"increaseCountryPurchases(string,(uint256,uint256))": "3d3a9748",
			"increaseProductPurchaseTrend(uint256)": "b34210e1",
			"increasePurchases(address,uint256)": "5b956627",
			"increaseTotalAddedToCart(address)": "f954ed2d",
			"increaseTotalCommentAndFaq()": "f857d617",
			"increaseTotalFavorite(address)": "eda162e7",
			"listTrackUserActivityRetailer(address,uint256)": "022de34c",
			"listTrackUserActivitySystem(uint256)": "ca6a7502",
			"listTrackUserSystem(uint256)": "e27ea4a7",
			"mAdmin(address)": "9ddf2e95",
			"mCountryPurchases(string,uint256)": "9075c290",
			"mListTrackUserRetailer(address,uint256)": "989868ed",
			"mProductPurchaseTrend(uint256,uint256)": "b94aead5",
			"mProductSearchTrend(uint256,uint256)": "158d3474",
			"mProductViewCount(uint256)": "1738408d",
			"mPurchases(address,uint256)": "4e581680",
			"owner()": "8da5cb5b",
			"removeUserActivity(address,uint256,address,bool)": "d24043cb",
			"setAdmin(address)": "704b6c02",
			"systemPurchases(uint256)": "4fa3c56f",
			"totalCommentAndFAQ()": "7e0833ca",
			"totalRetailerAddedToCart(address)": "d6376aea",
			"totalRetailerFavorite(address)": "7be740c9",
			"totalSystemAddedToCart()": "9cde636e",
			"totalSystemFavorite()": "79d3f776",
			"totalSystemProductShare()": "cece999f",
			"totalSystemPurchasePrice()": "4323323a",
			"totalSystemVisitors()": "f62dd1ee",
			"trackUserActivity(address,uint256,uint256,address,uint8,bool)": "8aa393ac",
			"updateProductShare()": "b34d644a",
			"updateViewCount(uint256)": "32aca62b",
			"updateWebsiteVisitors()": "f5548899"
		}
	},
	"abi": [
		{
			"inputs": [],
			"stateMutability": "payable",
			"type": "constructor"
		},
		{
			"inputs": [],
			"name": "EcomOrder",
			"outputs": [
				{
					"internalType": "contract IEcomOrder",
					"name": "",
					"type": "address"
				}
			],
			"stateMutability": "view",
			"type": "function"
		},
		{
			"inputs": [],
			"name": "EcomProduct",
			"outputs": [
				{
					"internalType": "contract IEcomProduct",
					"name": "",
					"type": "address"
				}
			],
			"stateMutability": "view",
			"type": "function"
		},
		{
			"inputs": [],
			"name": "EcomUser",
			"outputs": [
				{
					"internalType": "contract IEcomUser",
					"name": "",
					"type": "address"
				}
			],
			"stateMutability": "view",
			"type": "function"
		},
		{
			"inputs": [
				{
					"internalType": "address",
					"name": "_ecomOrder",
					"type": "address"
				}
			],
			"name": "SetEcomOrder",
			"outputs": [
				{
					"internalType": "bool",
					"name": "",
					"type": "bool"
				}
			],
			"stateMutability": "nonpayable",
			"type": "function"
		},
		{
			"inputs": [
				{
					"internalType": "address",
					"name": "_ecomProduct",
					"type": "address"
				}
			],
			"name": "SetEcomProduct",
			"outputs": [
				{
					"internalType": "bool",
					"name": "",
					"type": "bool"
				}
			],
			"stateMutability": "nonpayable",
			"type": "function"
		},
		{
			"inputs": [
				{
					"internalType": "address",
					"name": "_ecomUser",
					"type": "address"
				}
			],
			"name": "SetEcomUser",
			"outputs": [
				{
					"internalType": "bool",
					"name": "",
					"type": "bool"
				}
			],
			"stateMutability": "nonpayable",
			"type": "function"
		},
		{
			"inputs": [
				{
					"internalType": "uint256",
					"name": "",
					"type": "uint256"
				}
			],
			"name": "admins",
			"outputs": [
				{
					"internalType": "address",
					"name": "",
					"type": "address"
				}
			],
			"stateMutability": "view",
			"type": "function"
		},
		{
			"inputs": [
				{
					"internalType": "uint256",
					"name": "",
					"type": "uint256"
				}
			],
			"name": "bestSellers",
			"outputs": [
				{
					"internalType": "uint256",
					"name": "productID",
					"type": "uint256"
				},
				{
					"internalType": "uint256",
					"name": "sold",
					"type": "uint256"
				},
				{
					"internalType": "uint256",
					"name": "timestamp",
					"type": "uint256"
				}
			],
			"stateMutability": "view",
			"type": "function"
		},
		{
			"inputs": [
				{
					"components": [
						{
							"internalType": "string",
							"name": "orderID",
							"type": "string"
						},
						{
							"internalType": "uint8",
							"name": "trackType",
							"type": "uint8"
						},
						{
							"internalType": "address",
							"name": "customer",
							"type": "address"
						},
						{
							"internalType": "uint256[]",
							"name": "productIds",
							"type": "uint256[]"
						},
						{
							"internalType": "uint256[]",
							"name": "quantities",
							"type": "uint256[]"
						}
					],
					"internalType": "struct createListTrackUserParams",
					"name": "params",
					"type": "tuple"
				}
			],
			"name": "createListTrackUser",
			"outputs": [],
			"stateMutability": "nonpayable",
			"type": "function"
		},
		{
			"inputs": [
				{
					"internalType": "address",
					"name": "_retailer",
					"type": "address"
				}
			],
			"name": "decreaseTotalAddedToCart",
			"outputs": [],
			"stateMutability": "nonpayable",
			"type": "function"
		},
		{
			"inputs": [],
			"name": "decreaseTotalCommentAndFaq",
			"outputs": [],
			"stateMutability": "nonpayable",
			"type": "function"
		},
		{
			"inputs": [
				{
					"internalType": "address",
					"name": "_retailer",
					"type": "address"
				}
			],
			"name": "decreaseTotalFavorite",
			"outputs": [],
			"stateMutability": "nonpayable",
			"type": "function"
		},
		{
			"inputs": [
				{
					"internalType": "string",
					"name": "_orderID",
					"type": "string"
				}
			],
			"name": "deleteListTrackUser",
			"outputs": [],
			"stateMutability": "nonpayable",
			"type": "function"
		},
		{
			"inputs": [],
			"name": "getBestSeller",
			"outputs": [
				{
					"components": [
						{
							"internalType": "uint256",
							"name": "productID",
							"type": "uint256"
						},
						{
							"internalType": "uint256",
							"name": "sold",
							"type": "uint256"
						},
						{
							"internalType": "uint256",
							"name": "timestamp",
							"type": "uint256"
						}
					],
					"internalType": "struct BestSeller[]",
					"name": "",
					"type": "tuple[]"
				}
			],
			"stateMutability": "view",
			"type": "function"
		},
		{
			"inputs": [
				{
					"internalType": "uint256",
					"name": "code",
					"type": "uint256"
				},
				{
					"internalType": "string",
					"name": "message",
					"type": "string"
				}
			],
			"name": "getErrorMessage",
			"outputs": [
				{
					"internalType": "string",
					"name": "",
					"type": "string"
				}
			],
			"stateMutability": "pure",
			"type": "function"
		},
		{
			"inputs": [],
			"name": "getListTrackAdmin",
			"outputs": [
				{
					"components": [
						{
							"internalType": "string",
							"name": "orderID",
							"type": "string"
						},
						{
							"internalType": "uint8",
							"name": "trackType",
							"type": "uint8"
						},
						{
							"internalType": "address",
							"name": "customer",
							"type": "address"
						},
						{
							"internalType": "bytes",
							"name": "retailerName",
							"type": "bytes"
						},
						{
							"internalType": "uint256",
							"name": "timestamp",
							"type": "uint256"
						},
						{
							"internalType": "uint256[]",
							"name": "productIds",
							"type": "uint256[]"
						},
						{
							"internalType": "uint256[]",
							"name": "quantities",
							"type": "uint256[]"
						}
					],
					"internalType": "struct ListTrackUser[]",
					"name": "_listTracks",
					"type": "tuple[]"
				},
				{
					"internalType": "uint256",
					"name": "_favorites",
					"type": "uint256"
				},
				{
					"internalType": "uint256",
					"name": "_addedToCarts",
					"type": "uint256"
				},
				{
					"components": [
						{
							"internalType": "address",
							"name": "customer",
							"type": "address"
						},
						{
							"internalType": "uint8",
							"name": "activityType",
							"type": "uint8"
						},
						{
							"internalType": "uint256[]",
							"name": "productIds",
							"type": "uint256[]"
						},
						{
							"internalType": "uint256[]",
							"name": "quantities",
							"type": "uint256[]"
						},
						{
							"internalType": "uint256[]",
							"name": "addedAt",
							"type": "uint256[]"
						}
					],
					"internalType": "struct AddedToCartAndWishList[]",
					"name": "_totalCartWishList",
					"type": "tuple[]"
				},
				{
					"internalType": "uint256[]",
					"name": "_systemPurchases",
					"type": "uint256[]"
				}
			],
			"stateMutability": "view",
			"type": "function"
		},
		{
			"inputs": [],
			"name": "getListTrackRetailer",
			"outputs": [
				{
					"components": [
						{
							"internalType": "string",
							"name": "orderID",
							"type": "string"
						},
						{
							"internalType": "uint8",
							"name": "trackType",
							"type": "uint8"
						},
						{
							"internalType": "address",
							"name": "customer",
							"type": "address"
						},
						{
							"internalType": "bytes",
							"name": "retailerName",
							"type": "bytes"
						},
						{
							"internalType": "uint256",
							"name": "timestamp",
							"type": "uint256"
						},
						{
							"internalType": "uint256[]",
							"name": "productIds",
							"type": "uint256[]"
						},
						{
							"internalType": "uint256[]",
							"name": "quantities",
							"type": "uint256[]"
						}
					],
					"internalType": "struct ListTrackUser[]",
					"name": "_listTracks",
					"type": "tuple[]"
				},
				{
					"internalType": "uint256",
					"name": "_favorites",
					"type": "uint256"
				},
				{
					"internalType": "uint256",
					"name": "_addedToCarts",
					"type": "uint256"
				},
				{
					"components": [
						{
							"internalType": "address",
							"name": "customer",
							"type": "address"
						},
						{
							"internalType": "uint8",
							"name": "activityType",
							"type": "uint8"
						},
						{
							"internalType": "uint256[]",
							"name": "productIds",
							"type": "uint256[]"
						},
						{
							"internalType": "uint256[]",
							"name": "quantities",
							"type": "uint256[]"
						},
						{
							"internalType": "uint256[]",
							"name": "addedAt",
							"type": "uint256[]"
						}
					],
					"internalType": "struct AddedToCartAndWishList[]",
					"name": "_totalCartWishList",
					"type": "tuple[]"
				}
			],
			"stateMutability": "view",
			"type": "function"
		},
		{
			"inputs": [],
			"name": "getListTrackUser",
			"outputs": [
				{
					"components": [
						{
							"internalType": "string",
							"name": "orderID",
							"type": "string"
						},
						{
							"internalType": "uint8",
							"name": "trackType",
							"type": "uint8"
						},
						{
							"internalType": "address",
							"name": "customer",
							"type": "address"
						},
						{
							"internalType": "bytes",
							"name": "retailerName",
							"type": "bytes"
						},
						{
							"internalType": "uint256",
							"name": "timestamp",
							"type": "uint256"
						},
						{
							"internalType": "uint256[]",
							"name": "productIds",
							"type": "uint256[]"
						},
						{
							"internalType": "uint256[]",
							"name": "quantities",
							"type": "uint256[]"
						}
					],
					"internalType": "struct ListTrackUser[]",
					"name": "",
					"type": "tuple[]"
				}
			],
			"stateMutability": "view",
			"type": "function"
		},
		{
			"inputs": [],
			"name": "getListTrackUserActivityRetailer",
			"outputs": [
				{
					"components": [
						{
							"internalType": "address",
							"name": "customer",
							"type": "address"
						},
						{
							"internalType": "uint8",
							"name": "activityType",
							"type": "uint8"
						},
						{
							"internalType": "uint256[]",
							"name": "productIds",
							"type": "uint256[]"
						},
						{
							"internalType": "uint256[]",
							"name": "quantities",
							"type": "uint256[]"
						},
						{
							"internalType": "uint256[]",
							"name": "addedAt",
							"type": "uint256[]"
						}
					],
					"internalType": "struct AddedToCartAndWishList[]",
					"name": "",
					"type": "tuple[]"
				}
			],
			"stateMutability": "view",
			"type": "function"
		},
		{
			"inputs": [],
			"name": "getListTrackUserActivitySystem",
			"outputs": [
				{
					"components": [
						{
							"internalType": "address",
							"name": "customer",
							"type": "address"
						},
						{
							"internalType": "uint8",
							"name": "activityType",
							"type": "uint8"
						},
						{
							"internalType": "uint256[]",
							"name": "productIds",
							"type": "uint256[]"
						},
						{
							"internalType": "uint256[]",
							"name": "quantities",
							"type": "uint256[]"
						},
						{
							"internalType": "uint256[]",
							"name": "addedAt",
							"type": "uint256[]"
						}
					],
					"internalType": "struct AddedToCartAndWishList[]",
					"name": "",
					"type": "tuple[]"
				}
			],
			"stateMutability": "view",
			"type": "function"
		},
		{
			"inputs": [],
			"name": "getListTrackUserRetailer",
			"outputs": [
				{
					"components": [
						{
							"internalType": "string",
							"name": "orderID",
							"type": "string"
						},
						{
							"internalType": "uint8",
							"name": "trackType",
							"type": "uint8"
						},
						{
							"internalType": "address",
							"name": "customer",
							"type": "address"
						},
						{
							"internalType": "bytes",
							"name": "retailerName",
							"type": "bytes"
						},
						{
							"internalType": "uint256",
							"name": "timestamp",
							"type": "uint256"
						},
						{
							"internalType": "uint256[]",
							"name": "productIds",
							"type": "uint256[]"
						},
						{
							"internalType": "uint256[]",
							"name": "quantities",
							"type": "uint256[]"
						}
					],
					"internalType": "struct ListTrackUser[]",
					"name": "",
					"type": "tuple[]"
				}
			],
			"stateMutability": "view",
			"type": "function"
		},
		{
			"inputs": [],
			"name": "getOrderHistoryDetail",
			"outputs": [
				{
					"components": [
						{
							"internalType": "uint256",
							"name": "orderID",
							"type": "uint256"
						},
						{
							"internalType": "address",
							"name": "user",
							"type": "address"
						},
						{
							"internalType": "address",
							"name": "buyer",
							"type": "address"
						},
						{
							"internalType": "uint256",
							"name": "discountID",
							"type": "uint256"
						},
						{
							"internalType": "uint256[]",
							"name": "cartItemIds",
							"type": "uint256[]"
						},
						{
							"internalType": "uint256[]",
							"name": "productIds",
							"type": "uint256[]"
						},
						{
							"internalType": "bytes32[]",
							"name": "variantIds",
							"type": "bytes32[]"
						},
						{
							"internalType": "uint256[]",
							"name": "quantities",
							"type": "uint256[]"
						},
						{
							"internalType": "uint256[]",
							"name": "diffPrices",
							"type": "uint256[]"
						},
						{
							"internalType": "uint256[]",
							"name": "prices",
							"type": "uint256[]"
						},
						{
							"internalType": "uint256[]",
							"name": "rewards",
							"type": "uint256[]"
						},
						{
							"internalType": "uint256",
							"name": "totalPrice",
							"type": "uint256"
						},
						{
							"internalType": "uint8",
							"name": "checkoutType",
							"type": "uint8"
						},
						{
							"internalType": "uint8",
							"name": "orderStatus",
							"type": "uint8"
						},
						{
							"internalType": "bytes32",
							"name": "codeRef",
							"type": "bytes32"
						},
						{
							"internalType": "uint256",
							"name": "afterDiscountPrice",
							"type": "uint256"
						},
						{
							"internalType": "uint256",
							"name": "shippingPrice",
							"type": "uint256"
						},
						{
							"internalType": "uint8",
							"name": "paymentType",
							"type": "uint8"
						},
						{
							"internalType": "uint256",
							"name": "createdAt",
							"type": "uint256"
						}
					],
					"internalType": "struct Order[]",
					"name": "_orders",
					"type": "tuple[]"
				},
				{
					"components": [
						{
							"internalType": "uint8",
							"name": "paymentType",
							"type": "uint8"
						},
						{
							"internalType": "uint256",
							"name": "totalPayment",
							"type": "uint256"
						},
						{
							"internalType": "address",
							"name": "buyer",
							"type": "address"
						}
					],
					"internalType": "struct PaymentHistory[]",
					"name": "_payments",
					"type": "tuple[]"
				},
				{
					"components": [
						{
							"internalType": "uint256",
							"name": "productID",
							"type": "uint256"
						},
						{
							"internalType": "uint256",
							"name": "buyAt",
							"type": "uint256"
						}
					],
					"internalType": "struct Purchase[]",
					"name": "_purchases",
					"type": "tuple[]"
				}
			],
			"stateMutability": "view",
			"type": "function"
		},
		{
			"inputs": [
				{
					"internalType": "uint256",
					"name": "_productID",
					"type": "uint256"
				}
			],
			"name": "getProductPurchaseTrend",
			"outputs": [
				{
					"internalType": "uint256[]",
					"name": "",
					"type": "uint256[]"
				}
			],
			"stateMutability": "view",
			"type": "function"
		},
		{
			"inputs": [
				{
					"internalType": "uint256",
					"name": "_productID",
					"type": "uint256"
				}
			],
			"name": "getProductTrend",
			"outputs": [
				{
					"internalType": "uint256[]",
					"name": "",
					"type": "uint256[]"
				}
			],
			"stateMutability": "view",
			"type": "function"
		},
		{
			"inputs": [],
			"name": "getRecentPurchases",
			"outputs": [
				{
					"components": [
						{
							"internalType": "uint256",
							"name": "productID",
							"type": "uint256"
						},
						{
							"internalType": "uint256",
							"name": "buyAt",
							"type": "uint256"
						}
					],
					"internalType": "struct Purchase[]",
					"name": "",
					"type": "tuple[]"
				}
			],
			"stateMutability": "view",
			"type": "function"
		},
		{
			"inputs": [],
			"name": "getRetailerAddedToCart",
			"outputs": [
				{
					"internalType": "uint256",
					"name": "",
					"type": "uint256"
				}
			],
			"stateMutability": "view",
			"type": "function"
		},
		{
			"inputs": [],
			"name": "getRetailerFavorite",
			"outputs": [
				{
					"internalType": "uint256",
					"name": "",
					"type": "uint256"
				}
			],
			"stateMutability": "view",
			"type": "function"
		},
		{
			"inputs": [],
			"name": "getSystemAddedToCart",
			"outputs": [
				{
					"internalType": "uint256",
					"name": "",
					"type": "uint256"
				}
			],
			"stateMutability": "view",
			"type": "function"
		},
		{
			"inputs": [],
			"name": "getSystemFavorite",
			"outputs": [
				{
					"internalType": "uint256",
					"name": "",
					"type": "uint256"
				}
			],
			"stateMutability": "view",
			"type": "function"
		},
		{
			"inputs": [],
			"name": "getSystemInfo",
			"outputs": [
				{
					"internalType": "uint256",
					"name": "totalVistors",
					"type": "uint256"
				},
				{
					"internalType": "uint256",
					"name": "totalCfs",
					"type": "uint256"
				},
				{
					"internalType": "uint256",
					"name": "totalShares",
					"type": "uint256"
				}
			],
			"stateMutability": "view",
			"type": "function"
		},
		{
			"inputs": [],
			"name": "getSystemProductPurchase",
			"outputs": [
				{
					"internalType": "uint256[]",
					"name": "",
					"type": "uint256[]"
				}
			],
			"stateMutability": "view",
			"type": "function"
		},
		{
			"inputs": [],
			"name": "getTotalProductViewCount",
			"outputs": [
				{
					"internalType": "uint256[]",
					"name": "_productIds",
					"type": "uint256[]"
				},
				{
					"internalType": "uint256[]",
					"name": "_productCount",
					"type": "uint256[]"
				},
				{
					"internalType": "uint256[]",
					"name": "_time",
					"type": "uint256[]"
				}
			],
			"stateMutability": "view",
			"type": "function"
		},
		{
			"inputs": [
				{
					"internalType": "address",
					"name": "_user",
					"type": "address"
				}
			],
			"name": "getUserPurchaseInfo",
			"outputs": [
				{
					"components": [
						{
							"internalType": "uint256",
							"name": "orderID",
							"type": "uint256"
						},
						{
							"internalType": "address",
							"name": "user",
							"type": "address"
						},
						{
							"internalType": "address",
							"name": "buyer",
							"type": "address"
						},
						{
							"internalType": "uint256",
							"name": "discountID",
							"type": "uint256"
						},
						{
							"internalType": "uint256[]",
							"name": "cartItemIds",
							"type": "uint256[]"
						},
						{
							"internalType": "uint256[]",
							"name": "productIds",
							"type": "uint256[]"
						},
						{
							"internalType": "bytes32[]",
							"name": "variantIds",
							"type": "bytes32[]"
						},
						{
							"internalType": "uint256[]",
							"name": "quantities",
							"type": "uint256[]"
						},
						{
							"internalType": "uint256[]",
							"name": "diffPrices",
							"type": "uint256[]"
						},
						{
							"internalType": "uint256[]",
							"name": "prices",
							"type": "uint256[]"
						},
						{
							"internalType": "uint256[]",
							"name": "rewards",
							"type": "uint256[]"
						},
						{
							"internalType": "uint256",
							"name": "totalPrice",
							"type": "uint256"
						},
						{
							"internalType": "uint8",
							"name": "checkoutType",
							"type": "uint8"
						},
						{
							"internalType": "uint8",
							"name": "orderStatus",
							"type": "uint8"
						},
						{
							"internalType": "bytes32",
							"name": "codeRef",
							"type": "bytes32"
						},
						{
							"internalType": "uint256",
							"name": "afterDiscountPrice",
							"type": "uint256"
						},
						{
							"internalType": "uint256",
							"name": "shippingPrice",
							"type": "uint256"
						},
						{
							"internalType": "uint8",
							"name": "paymentType",
							"type": "uint8"
						},
						{
							"internalType": "uint256",
							"name": "createdAt",
							"type": "uint256"
						}
					],
					"internalType": "struct Order[]",
					"name": "_orders",
					"type": "tuple[]"
				},
				{
					"components": [
						{
							"internalType": "uint256",
							"name": "id",
							"type": "uint256"
						},
						{
							"internalType": "address",
							"name": "owner",
							"type": "address"
						},
						{
							"components": [
								{
									"internalType": "uint256",
									"name": "id",
									"type": "uint256"
								},
								{
									"internalType": "uint256",
									"name": "productID",
									"type": "uint256"
								},
								{
									"internalType": "uint256",
									"name": "quantity",
									"type": "uint256"
								},
								{
									"internalType": "bytes32",
									"name": "variantID",
									"type": "bytes32"
								},
								{
									"internalType": "uint256",
									"name": "createAt",
									"type": "uint256"
								}
							],
							"internalType": "struct CartItem[]",
							"name": "items",
							"type": "tuple[]"
						}
					],
					"internalType": "struct Cart",
					"name": "_cart",
					"type": "tuple"
				},
				{
					"components": [
						{
							"internalType": "uint256",
							"name": "productID",
							"type": "uint256"
						},
						{
							"internalType": "uint256",
							"name": "createdAt",
							"type": "uint256"
						}
					],
					"internalType": "struct Favorite[]",
					"name": "_productIds",
					"type": "tuple[]"
				}
			],
			"stateMutability": "view",
			"type": "function"
		},
		{
			"inputs": [
				{
					"internalType": "uint256",
					"name": "_productID",
					"type": "uint256"
				}
			],
			"name": "increaseBestSeller",
			"outputs": [],
			"stateMutability": "nonpayable",
			"type": "function"
		},
		{
			"inputs": [
				{
					"internalType": "string",
					"name": "_country",
					"type": "string"
				},
				{
					"components": [
						{
							"internalType": "uint256",
							"name": "productID",
							"type": "uint256"
						},
						{
							"internalType": "uint256",
							"name": "buyAt",
							"type": "uint256"
						}
					],
					"internalType": "struct Purchase",
					"name": "_purchase",
					"type": "tuple"
				}
			],
			"name": "increaseCountryPurchases",
			"outputs": [],
			"stateMutability": "nonpayable",
			"type": "function"
		},
		{
			"inputs": [
				{
					"internalType": "uint256",
					"name": "_productID",
					"type": "uint256"
				}
			],
			"name": "increaseProductPurchaseTrend",
			"outputs": [],
			"stateMutability": "nonpayable",
			"type": "function"
		},
		{
			"inputs": [
				{
					"internalType": "address",
					"name": "user",
					"type": "address"
				},
				{
					"internalType": "uint256",
					"name": "_productID",
					"type": "uint256"
				}
			],
			"name": "increasePurchases",
			"outputs": [],
			"stateMutability": "nonpayable",
			"type": "function"
		},
		{
			"inputs": [
				{
					"internalType": "address",
					"name": "_retailer",
					"type": "address"
				}
			],
			"name": "increaseTotalAddedToCart",
			"outputs": [],
			"stateMutability": "nonpayable",
			"type": "function"
		},
		{
			"inputs": [],
			"name": "increaseTotalCommentAndFaq",
			"outputs": [],
			"stateMutability": "nonpayable",
			"type": "function"
		},
		{
			"inputs": [
				{
					"internalType": "address",
					"name": "_retailer",
					"type": "address"
				}
			],
			"name": "increaseTotalFavorite",
			"outputs": [],
			"stateMutability": "nonpayable",
			"type": "function"
		},
		{
			"inputs": [
				{
					"internalType": "address",
					"name": "",
					"type": "address"
				},
				{
					"internalType": "uint256",
					"name": "",
					"type": "uint256"
				}
			],
			"name": "listTrackUserActivityRetailer",
			"outputs": [
				{
					"internalType": "address",
					"name": "customer",
					"type": "address"
				},
				{
					"internalType": "uint8",
					"name": "activityType",
					"type": "uint8"
				}
			],
			"stateMutability": "view",
			"type": "function"
		},
		{
			"inputs": [
				{
					"internalType": "uint256",
					"name": "",
					"type": "uint256"
				}
			],
			"name": "listTrackUserActivitySystem",
			"outputs": [
				{
					"internalType": "address",
					"name": "customer",
					"type": "address"
				},
				{
					"internalType": "uint8",
					"name": "activityType",
					"type": "uint8"
				}
			],
			"stateMutability": "view",
			"type": "function"
		},
		{
			"inputs": [
				{
					"internalType": "uint256",
					"name": "",
					"type": "uint256"
				}
			],
			"name": "listTrackUserSystem",
			"outputs": [
				{
					"internalType": "string",
					"name": "orderID",
					"type": "string"
				},
				{
					"internalType": "uint8",
					"name": "trackType",
					"type": "uint8"
				},
				{
					"internalType": "address",
					"name": "customer",
					"type": "address"
				},
				{
					"internalType": "bytes",
					"name": "retailerName",
					"type": "bytes"
				},
				{
					"internalType": "uint256",
					"name": "timestamp",
					"type": "uint256"
				}
			],
			"stateMutability": "view",
			"type": "function"
		},
		{
			"inputs": [
				{
					"internalType": "address",
					"name": "",
					"type": "address"
				}
			],
			"name": "mAdmin",
			"outputs": [
				{
					"internalType": "bool",
					"name": "",
					"type": "bool"
				}
			],
			"stateMutability": "view",
			"type": "function"
		},
		{
			"inputs": [
				{
					"internalType": "string",
					"name": "",
					"type": "string"
				},
				{
					"internalType": "uint256",
					"name": "",
					"type": "uint256"
				}
			],
			"name": "mCountryPurchases",
			"outputs": [
				{
					"internalType": "uint256",
					"name": "productID",
					"type": "uint256"
				},
				{
					"internalType": "uint256",
					"name": "buyAt",
					"type": "uint256"
				}
			],
			"stateMutability": "view",
			"type": "function"
		},
		{
			"inputs": [
				{
					"internalType": "address",
					"name": "",
					"type": "address"
				},
				{
					"internalType": "uint256",
					"name": "",
					"type": "uint256"
				}
			],
			"name": "mListTrackUserRetailer",
			"outputs": [
				{
					"internalType": "string",
					"name": "orderID",
					"type": "string"
				},
				{
					"internalType": "uint8",
					"name": "trackType",
					"type": "uint8"
				},
				{
					"internalType": "address",
					"name": "customer",
					"type": "address"
				},
				{
					"internalType": "bytes",
					"name": "retailerName",
					"type": "bytes"
				},
				{
					"internalType": "uint256",
					"name": "timestamp",
					"type": "uint256"
				}
			],
			"stateMutability": "view",
			"type": "function"
		},
		{
			"inputs": [
				{
					"internalType": "uint256",
					"name": "",
					"type": "uint256"
				},
				{
					"internalType": "uint256",
					"name": "",
					"type": "uint256"
				}
			],
			"name": "mProductPurchaseTrend",
			"outputs": [
				{
					"internalType": "uint256",
					"name": "",
					"type": "uint256"
				}
			],
			"stateMutability": "view",
			"type": "function"
		},
		{
			"inputs": [
				{
					"internalType": "uint256",
					"name": "",
					"type": "uint256"
				},
				{
					"internalType": "uint256",
					"name": "",
					"type": "uint256"
				}
			],
			"name": "mProductSearchTrend",
			"outputs": [
				{
					"internalType": "uint256",
					"name": "",
					"type": "uint256"
				}
			],
			"stateMutability": "view",
			"type": "function"
		},
		{
			"inputs": [
				{
					"internalType": "uint256",
					"name": "",
					"type": "uint256"
				}
			],
			"name": "mProductViewCount",
			"outputs": [
				{
					"internalType": "uint256",
					"name": "",
					"type": "uint256"
				}
			],
			"stateMutability": "view",
			"type": "function"
		},
		{
			"inputs": [
				{
					"internalType": "address",
					"name": "",
					"type": "address"
				},
				{
					"internalType": "uint256",
					"name": "",
					"type": "uint256"
				}
			],
			"name": "mPurchases",
			"outputs": [
				{
					"internalType": "uint256",
					"name": "productID",
					"type": "uint256"
				},
				{
					"internalType": "uint256",
					"name": "buyAt",
					"type": "uint256"
				}
			],
			"stateMutability": "view",
			"type": "function"
		},
		{
			"inputs": [],
			"name": "owner",
			"outputs": [
				{
					"internalType": "address",
					"name": "",
					"type": "address"
				}
			],
			"stateMutability": "view",
			"type": "function"
		},
		{
			"inputs": [
				{
					"internalType": "address",
					"name": "user",
					"type": "address"
				},
				{
					"internalType": "uint256",
					"name": "_productID",
					"type": "uint256"
				},
				{
					"internalType": "address",
					"name": "retailer",
					"type": "address"
				},
				{
					"internalType": "bool",
					"name": "isSystem",
					"type": "bool"
				}
			],
			"name": "removeUserActivity",
			"outputs": [],
			"stateMutability": "nonpayable",
			"type": "function"
		},
		{
			"inputs": [
				{
					"internalType": "address",
					"name": "user",
					"type": "address"
				}
			],
			"name": "setAdmin",
			"outputs": [
				{
					"internalType": "bool",
					"name": "",
					"type": "bool"
				}
			],
			"stateMutability": "nonpayable",
			"type": "function"
		},
		{
			"inputs": [
				{
					"internalType": "uint256",
					"name": "",
					"type": "uint256"
				}
			],
			"name": "systemPurchases",
			"outputs": [
				{
					"internalType": "uint256",
					"name": "",
					"type": "uint256"
				}
			],
			"stateMutability": "view",
			"type": "function"
		},
		{
			"inputs": [],
			"name": "totalCommentAndFAQ",
			"outputs": [
				{
					"internalType": "uint256",
					"name": "",
					"type": "uint256"
				}
			],
			"stateMutability": "view",
			"type": "function"
		},
		{
			"inputs": [
				{
					"internalType": "address",
					"name": "",
					"type": "address"
				}
			],
			"name": "totalRetailerAddedToCart",
			"outputs": [
				{
					"internalType": "uint256",
					"name": "",
					"type": "uint256"
				}
			],
			"stateMutability": "view",
			"type": "function"
		},
		{
			"inputs": [
				{
					"internalType": "address",
					"name": "",
					"type": "address"
				}
			],
			"name": "totalRetailerFavorite",
			"outputs": [
				{
					"internalType": "uint256",
					"name": "",
					"type": "uint256"
				}
			],
			"stateMutability": "view",
			"type": "function"
		},
		{
			"inputs": [],
			"name": "totalSystemAddedToCart",
			"outputs": [
				{
					"internalType": "uint256",
					"name": "",
					"type": "uint256"
				}
			],
			"stateMutability": "view",
			"type": "function"
		},
		{
			"inputs": [],
			"name": "totalSystemFavorite",
			"outputs": [
				{
					"internalType": "uint256",
					"name": "",
					"type": "uint256"
				}
			],
			"stateMutability": "view",
			"type": "function"
		},
		{
			"inputs": [],
			"name": "totalSystemProductShare",
			"outputs": [
				{
					"internalType": "uint256",
					"name": "",
					"type": "uint256"
				}
			],
			"stateMutability": "view",
			"type": "function"
		},
		{
			"inputs": [],
			"name": "totalSystemPurchasePrice",
			"outputs": [
				{
					"internalType": "uint256",
					"name": "",
					"type": "uint256"
				}
			],
			"stateMutability": "view",
			"type": "function"
		},
		{
			"inputs": [],
			"name": "totalSystemVisitors",
			"outputs": [
				{
					"internalType": "uint256",
					"name": "",
					"type": "uint256"
				}
			],
			"stateMutability": "view",
			"type": "function"
		},
		{
			"inputs": [
				{
					"internalType": "address",
					"name": "user",
					"type": "address"
				},
				{
					"internalType": "uint256",
					"name": "_productID",
					"type": "uint256"
				},
				{
					"internalType": "uint256",
					"name": "quantity",
					"type": "uint256"
				},
				{
					"internalType": "address",
					"name": "retailer",
					"type": "address"
				},
				{
					"internalType": "enum TrackActivityType",
					"name": "activityType",
					"type": "uint8"
				},
				{
					"internalType": "bool",
					"name": "isSystem",
					"type": "bool"
				}
			],
			"name": "trackUserActivity",
			"outputs": [],
			"stateMutability": "nonpayable",
			"type": "function"
		},
		{
			"inputs": [],
			"name": "updateProductShare",
			"outputs": [],
			"stateMutability": "nonpayable",
			"type": "function"
		},
		{
			"inputs": [
				{
					"internalType": "uint256",
					"name": "_productID",
					"type": "uint256"
				}
			],
			"name": "updateViewCount",
			"outputs": [],
			"stateMutability": "nonpayable",
			"type": "function"
		},
		{
			"inputs": [],
			"name": "updateWebsiteVisitors",
			"outputs": [],
			"stateMutability": "nonpayable",
			"type": "function"
		}
	]
}