{
	"data": {
		"bytecode": {
			"linkReferences": {},
			"object": "60c0604052600460809081526345434f4d60e01b60a052600e90610023908261018c565b505f80546001600160a01b03191633908117909155610043906003610048565b61025a565b6001600160a01b0382165f81815260056020526040902080546001600160a01b0319169091178155600701805482919060ff1916600183600381111561009057610090610246565b0217905550506001600160a01b03165f818152600560205260408120426008909101556009805460018101825591527f6e1540171b6c0c960b71a7020d9f60077f6af931a8bbf590da0223dacf75c7af0180546001600160a01b0319169091179055565b634e487b7160e01b5f52604160045260245ffd5b600181811c9082168061011c57607f821691505b60208210810361013a57634e487b7160e01b5f52602260045260245ffd5b50919050565b601f82111561018757805f5260205f20601f840160051c810160208510156101655750805b601f840160051c820191505b81811015610184575f8155600101610171565b50505b505050565b81516001600160401b038111156101a5576101a56100f4565b6101b9816101b38454610108565b84610140565b6020601f8211600181146101eb575f83156101d45750848201515b5f19600385901b1c1916600184901b178455610184565b5f84815260208120601f198516915b8281101561021a57878501518255602094850194600190920191016101fa565b508482101561023757868401515f19600387901b60f8161c191681555b50505050600190811b01905550565b634e487b7160e01b5f52602160045260245ffd5b615cf1806102675f395ff3fe608060405234801561000f575f80fd5b506004361061024f575f3560e01c8063025f36e514610253578063026ff05e146102d15780630316e0eb146102ee5780630b6b8edc146103015780630cfe4d0e1461031457806314bfd6d0146103275780632248632a1461034757806323398aab1461036757806325b4436d1461037a578063278208511461039e57806327e1f7df146103be57806327f444e4146103d157806330cbfb24146103e657806332f39436146103f9578063371c0fc71461040c57806344089cd11461041f5780634a1f6125146104325780634b5ba409146104455780634d5d6ad0146104585780634fffd6ac146105705780635182104c14610583578063630e8b30146105ac5780636386c1c7146105bf578063656952ad146105e0578063704b6c02146105f357806372b1d45214610606578063832880e7146106915780638a8869e2146106995780638da5cb5b146106ac5780638fd58a7d146106be57806392eefe9b146106d157806395564309146106e457806396b170f5146106f75780639ddf2e951461070a5780639f2e6a0c1461072c5780639f4216e814610734578063a36afc6614610747578063a702a64c14610782578063aaa3de2614610795578063b11e3c1a146107ab578063b3a6404e146107be578063b3dd67fe146107d1578063b4e81660146107f3578063b618a35f14610806578063b814f77b14610819578063d4dbdcce1461082c578063e00f0dae1461083f578063e205d94e1461086d578063e5fc4ac214610880578063e94b0dd214610893578063eaf4ee9a146108a6575b5f80fd5b6102cf6102613660046145d5565b6001600160a01b039182165f908152600860209081526040808320805460018082018355918552938390208551600390950201805460ff191660ff90951694909417845591840151918301919091559190910151600290910180546001600160a01b03191691909216179055565b005b6102d96108b9565b60405190151581526020015b60405180910390f35b6102d96102fc36600461465d565b610a56565b6102d961030f366004614734565b610a7e565b6102d9610322366004614797565b610c40565b61033a6103353660046147b7565b610d8b565b6040516102e591906147db565b61035a6103553660046147ef565b610db3565b6040516102e5919061484a565b6102d9610375366004614869565b610dec565b61038d6103883660046148c2565b610f58565b6040516102e59594939291906148ea565b6103b16103ac366004614797565b611242565b6040516102e5919061498a565b6102d96103cc366004614797565b6112e2565b6103d96113fc565b6040516102e59190614998565b6102d96103f4366004614797565b61148a565b600c5461033a906001600160a01b031681565b6102cf61041a3660046149ff565b6114dc565b6102d961042d366004614797565b611744565b6102d9610440366004614797565b611796565b6102d9610453366004614797565b6117d5565b610519610466366004614797565b6040805160c0810182525f80825260208201819052918101829052606081018290526080810182905260a0810191909152506001600160a01b03165f90815260076020908152604091829020825160c081018452905460ff8082161515835261010082048116151593830193909352620100008104831615159382019390935263010000008304821615156060820152600160201b8304821615156080820152600160281b90920416151560a082015290565b6040516102e591905f60c08201905082511515825260208301511515602083015260408301511515604083015260608301511515606083015260808301511515608083015260a0830151151560a083015292915050565b6103d961057e366004614797565b611827565b610596610591366004614797565b6118c0565b6040516102e59a99989796959493929190614a3a565b600b5461033a906001600160a01b031681565b6105d26105cd366004614797565b611b45565b6040516102e5929190614ba8565b6102d96105ee366004614797565b612163565b6102d9610601366004614797565b61219d565b610658610614366004614797565b60076020525f908152604090205460ff80821691610100810482169162010000820481169163010000008104821691600160201b8204811691600160281b90041686565b604080519615158752941515602087015292151593850193909352151560608401529015156080830152151560a082015260c0016102e5565b6105d2612235565b6102d96106a7366004614797565b612851565b5f5461033a906001600160a01b031681565b6102d96106cc366004614797565b6128a3565b6102d96106df366004614797565b612a75565b6102d96106f2366004614c92565b612b0f565b6102cf610705366004614d10565b612c11565b6102d9610718366004614797565b60016020525f908152604090205460ff1681565b61035a612f1d565b61033a6107423660046147b7565b612fa9565b61075a6107553660046148c2565b612fb8565b6040805160ff909416845260208401929092526001600160a01b0316908201526060016102e5565b6102cf610790366004614e3f565b613003565b61079d6134e2565b6040516102e5929190614edc565b6102d96107b9366004614797565b613913565b6102d96107cc366004614797565b61391a565b6102d96107df366004614797565b60026020525f908152604090205460ff1681565b6102d961080136600461506b565b613922565b6102d9610814366004614c92565b613c90565b600d5461033a906001600160a01b031681565b6102d961083a3660046150a4565b613e01565b61033a61084d366004614797565b6001600160a01b039081165f908152600560205260409020600901541690565b6102cf61087b36600461526b565b613ff9565b600a5461033a906001600160a01b031681565b61033a6108a13660046147b7565b614146565b6102cf6108b43660046152bd565b614155565b335f90815260056020526040812080546001600160a01b0319168155816108e360018301826143f1565b6108f0600283015f6143f1565b60038201805460ff191690555f600483018190556109129060058401906143f1565b61091f600683015f6143f1565b5060078101805460ff191690555f60088201819055600990910180546001600160a01b031916905533815260066020526040812061095c9161442b565b5f5b600954811015610a4e57336001600160a01b031660098281548110610985576109856152df565b5f918252602090912001546001600160a01b031603610a4657600980546109ae90600190615307565b815481106109be576109be6152df565b5f91825260209091200154600980546001600160a01b0390921691839081106109e9576109e96152df565b905f5260205f20015f6101000a8154816001600160a01b0302191690836001600160a01b031602179055506009805480610a2557610a2561531a565b5f8281526020902081015f1990810180546001600160a01b03191690550190555b60010161095e565b506001905090565b335f908152600560205260408120600601610a728385836153c0565b50600190505b92915050565b5f80546001600160a01b0316338114610ab25760405162461bcd60e51b8152600401610aa990615474565b60405180910390fd5b6002335f9081526005602052604090206007015460ff166003811115610ada57610ada614956565b03610b605760405162461bcd60e51b815260206004820152605e60248201525f80516020615a9083398151915260448201527f312c20226d657373616765223a2022546865207573657220697320616c72656160648201527f6479207265676973746572656420617320612072657461696c65722e227d0000608482015260a401610aa9565b7ff59b872b58a4b9c40138ef35ea4f4f2ef4210f22be84a47a65205b6779e6fe88843385604051610b93939291906154cd565b60405180910390a1335f908152600560205260409020600101610bb6858261550a565b50335f90815260056020819052604090912001610bd3848261550a565b5050335f81815260056020526040812060078101805460ff1916600217905580546001600160a01b031990811684178255426008909201919091556009805460018181018355919093525f80516020615b8883398151915290920180549091169092179091559392505050565b5f80546001600160a01b0316338114610c6b5760405162461bcd60e51b8152600401610aa990615474565b6001600160a01b0383165f908152600260205260408120805460ff191690555b600454811015610d7f57836001600160a01b031660048281548110610cb257610cb26152df565b5f918252602090912001546001600160a01b031603610d775760048054610cdb90600190615307565b81548110610ceb57610ceb6152df565b5f91825260209091200154600480546001600160a01b039092169183908110610d1657610d166152df565b905f5260205f20015f6101000a8154816001600160a01b0302191690836001600160a01b031602179055506004805480610d5257610d5261531a565b5f8281526020902081015f1990810180546001600160a01b0319169055019055610d7f565b600101610c8b565b50600191505b50919050565b60038181548110610d9a575f80fd5b5f918252602090912001546001600160a01b0316905081565b60605f610dbf846141f3565b90508083604051602001610dd49291906155d6565b60405160208183030381529060405291505092915050565b5f6001335f9081526005602052604090206007015460ff166003811115610e1557610e15614956565b14610e875760405162461bcd60e51b815260206004820152604960248201525f80516020615a9083398151915260448201527f35312c20226d657373616765223a2022596f7520617265206e6f74206120637560648201526873746f6d65722e227d60b81b608482015260a401610aa9565b506040805160c08101825294151585529215156020808601918252921515858501908152911515606086019081525f6080870181815260a088018281523383526007909652959020955186549251935191519551945161ffff1990931690151561ff00191617610100931515939093029290921763ffff00001916620100009215159290920263ff0000001916919091176301000000931515939093029290921761ffff60201b1916600160201b9115159190910260ff60281b191617600160281b91151591909102179055600190565b6006602052815f5260405f208181548110610f71575f80fd5b905f5260205f2090600502015f9150915050805f018054610f919061532e565b80601f0160208091040260200160405190810160405280929190818152602001828054610fbd9061532e565b80156110085780601f10610fdf57610100808354040283529160200191611008565b820191905f5260205f20905b815481529060010190602001808311610feb57829003601f168201915b50505050509080600101805461101d9061532e565b80601f01602080910402602001604051908101604052809291908181526020018280546110499061532e565b80156110945780601f1061106b57610100808354040283529160200191611094565b820191905f5260205f20905b81548152906001019060200180831161107757829003601f168201915b5050505050908060020180546110a99061532e565b80601f01602080910402602001604051908101604052809291908181526020018280546110d59061532e565b80156111205780601f106110f757610100808354040283529160200191611120565b820191905f5260205f20905b81548152906001019060200180831161110357829003601f168201915b5050505050908060030180546111359061532e565b80601f01602080910402602001604051908101604052809291908181526020018280546111619061532e565b80156111ac5780601f10611183576101008083540402835291602001916111ac565b820191905f5260205f20905b81548152906001019060200180831161118f57829003601f168201915b5050505050908060040180546111c19061532e565b80601f01602080910402602001604051908101604052809291908181526020018280546111ed9061532e565b80156112385780601f1061120f57610100808354040283529160200191611238565b820191905f5260205f20905b81548152906001019060200180831161121b57829003601f168201915b5050505050905085565b335f908152600560209081526040808320548151808301909252601e82527f55736572206d75737420726567697374657220746f2067657420726f6c650000928201929092526001600160a01b039091161515906112a290600290610db3565b906112c05760405162461bcd60e51b8152600401610aa9919061484a565b50506001600160a01b03165f9081526005602052604090206007015460ff1690565b5f80546001600160a01b031633811461130d5760405162461bcd60e51b8152600401610aa990615474565b6001600160a01b0383165f908152600160205260408120805460ff191690555b600354811015610d7f57836001600160a01b031660038281548110611354576113546152df565b5f918252602090912001546001600160a01b0316036113f4576003805461137d90600190615307565b8154811061138d5761138d6152df565b5f91825260209091200154600380546001600160a01b0390921691839081106113b8576113b86152df565b905f5260205f20015f6101000a8154816001600160a01b0302191690836001600160a01b031602179055506003805480610d5257610d5261531a565b60010161132d565b335f908152600860209081526040808320805482518185028101850190935280835260609492939192909184015b82821015611481575f8481526020908190206040805160608101825260038602909201805460ff168352600180820154848601526002909101546001600160a01b031691830191909152908352909201910161142a565b50505050905090565b5f80546001600160a01b03163381146114b55760405162461bcd60e51b8152600401610aa990615474565b600b80546001600160a01b0385166001600160a01b03199091161790556001915050919050565b5f6114e6846141f3565b90506115a4816040516020016114fc9190615651565b60408051601f1981840301815260c08301909152608680835290919061592d6020830139600980548060200260200160405190810160405280929190818152602001828054801561157457602002820191905f5260205f20905b81546001600160a01b03168152600190910190602001808311611556575b50505050506040518060400160405280600d81526020016c10dc99585d19541c9bd91d58dd609a1b815250613003565b611608816040516020016115b8919061567d565b60408051601f1981840301815260a08301909152607b8083529091906159b36020830139846040518060400160405280600d81526020016c10dc99585d19541c9bd91d58dd609a1b815250612c11565b6116778160405160200161161c919061567d565b60408051601f1981840301815260a083019091526077808352909190615ab060208301395f5460408051808201909152600d81526c10dc99585d19541c9bd91d58dd609a1b60208201526001600160a01b0390911690612c11565b821561173e5761173e8160405160200161169191906156ad565b60408051601f198184030181526080830190915260478083529091906158e66020830139600980548060200260200160405190810160405280929190818152602001828054801561170957602002820191905f5260205f20905b81546001600160a01b031681526001909101906020018083116116eb575b50505050506040518060400160405280601281526020017150726f6d6f74696f6e616c50726f6772616d60701b815250613003565b50505050565b5f80546001600160a01b031633811461176f5760405162461bcd60e51b8152600401610aa990615474565b600c80546001600160a01b0385166001600160a01b03199091161790556001915050919050565b5f80546001600160a01b03163381146117c15760405162461bcd60e51b8152600401610aa990615474565b6117cc836002614283565b50600192915050565b5f80546001600160a01b03163381146118005760405162461bcd60e51b8152600401610aa990615474565b600a80546001600160a01b0385166001600160a01b03199091161790556001915050919050565b6001600160a01b0381165f908152600860209081526040808320805482518185028101850190935280835260609492939192909184015b828210156118b5575f8481526020908190206040805160608101825260038602909201805460ff168352600180820154848601526002909101546001600160a01b031691830191909152908352909201910161185e565b505050509050919050565b60056020525f9081526040902080546001820180546001600160a01b0390921692916118eb9061532e565b80601f01602080910402602001604051908101604052809291908181526020018280546119179061532e565b80156119625780601f1061193957610100808354040283529160200191611962565b820191905f5260205f20905b81548152906001019060200180831161194557829003601f168201915b5050505050908060020180546119779061532e565b80601f01602080910402602001604051908101604052809291908181526020018280546119a39061532e565b80156119ee5780601f106119c5576101008083540402835291602001916119ee565b820191905f5260205f20905b8154815290600101906020018083116119d157829003601f168201915b5050505060038301546004840154600585018054949560ff9093169491935090611a179061532e565b80601f0160208091040260200160405190810160405280929190818152602001828054611a439061532e565b8015611a8e5780601f10611a6557610100808354040283529160200191611a8e565b820191905f5260205f20905b815481529060010190602001808311611a7157829003601f168201915b505050505090806006018054611aa39061532e565b80601f0160208091040260200160405190810160405280929190818152602001828054611acf9061532e565b8015611b1a5780601f10611af157610100808354040283529160200191611b1a565b820191905f5260205f20905b815481529060010190602001808311611afd57829003601f168201915b5050505060078301546008840154600990940154929360ff909116929091506001600160a01b03168a565b611b4d614449565b6001600160a01b038083165f9081526005602090815260408083206006835292819020815161014081019092528354909416815260018301805460609593859290840191611b9a9061532e565b80601f0160208091040260200160405190810160405280929190818152602001828054611bc69061532e565b8015611c115780601f10611be857610100808354040283529160200191611c11565b820191905f5260205f20905b815481529060010190602001808311611bf457829003601f168201915b50505050508152602001600282018054611c2a9061532e565b80601f0160208091040260200160405190810160405280929190818152602001828054611c569061532e565b8015611ca15780601f10611c7857610100808354040283529160200191611ca1565b820191905f5260205f20905b815481529060010190602001808311611c8457829003601f168201915b5050509183525050600382015460ff16602082015260048201546040820152600582018054606090920191611cd59061532e565b80601f0160208091040260200160405190810160405280929190818152602001828054611d019061532e565b8015611d4c5780601f10611d2357610100808354040283529160200191611d4c565b820191905f5260205f20905b815481529060010190602001808311611d2f57829003601f168201915b50505050508152602001600682018054611d659061532e565b80601f0160208091040260200160405190810160405280929190818152602001828054611d919061532e565b8015611ddc5780601f10611db357610100808354040283529160200191611ddc565b820191905f5260205f20905b815481529060010190602001808311611dbf57829003601f168201915b5050509183525050600782015460209091019060ff166003811115611e0357611e03614956565b6003811115611e1457611e14614956565b815260088201546020808301919091526009909201546001600160a01b031660409182015283548151818402810184019092528082529294509183915f9084015b82821015612154578382905f5260205f2090600502016040518060a00160405290815f82018054611e859061532e565b80601f0160208091040260200160405190810160405280929190818152602001828054611eb19061532e565b8015611efc5780601f10611ed357610100808354040283529160200191611efc565b820191905f5260205f20905b815481529060010190602001808311611edf57829003601f168201915b50505050508152602001600182018054611f159061532e565b80601f0160208091040260200160405190810160405280929190818152602001828054611f419061532e565b8015611f8c5780601f10611f6357610100808354040283529160200191611f8c565b820191905f5260205f20905b815481529060010190602001808311611f6f57829003601f168201915b50505050508152602001600282018054611fa59061532e565b80601f0160208091040260200160405190810160405280929190818152602001828054611fd19061532e565b801561201c5780601f10611ff35761010080835404028352916020019161201c565b820191905f5260205f20905b815481529060010190602001808311611fff57829003601f168201915b505050505081526020016003820180546120359061532e565b80601f01602080910402602001604051908101604052809291908181526020018280546120619061532e565b80156120ac5780601f10612083576101008083540402835291602001916120ac565b820191905f5260205f20905b81548152906001019060200180831161208f57829003601f168201915b505050505081526020016004820180546120c59061532e565b80601f01602080910402602001604051908101604052809291908181526020018280546120f19061532e565b801561213c5780601f106121135761010080835404028352916020019161213c565b820191905f5260205f20905b81548152906001019060200180831161211f57829003601f168201915b50505050508152505081526020019060010190611e55565b50505050905091509150915091565b5f60035b6001600160a01b0383165f9081526005602052604090206007015460ff16600381111561219657612196614956565b1492915050565b5f80546001600160a01b03163381146121c85760405162461bcd60e51b8152600401610aa990615474565b6001600160a01b0383165f8181526001602081905260408220805460ff19168217905560038054918201815582527fc2575a0e9e593c00f959f8c92f12db2869c3395a3b0502d05e2516446f71f85b0180546001600160a01b0319169092179091556117cc908490614283565b61223d614449565b335f90815260056020908152604080832060068352928190208151610140810190925283546001600160a01b03168252600184018054606095949293928592908401916122899061532e565b80601f01602080910402602001604051908101604052809291908181526020018280546122b59061532e565b80156123005780601f106122d757610100808354040283529160200191612300565b820191905f5260205f20905b8154815290600101906020018083116122e357829003601f168201915b505050505081526020016002820180546123199061532e565b80601f01602080910402602001604051908101604052809291908181526020018280546123459061532e565b80156123905780601f1061236757610100808354040283529160200191612390565b820191905f5260205f20905b81548152906001019060200180831161237357829003601f168201915b5050509183525050600382015460ff166020820152600482015460408201526005820180546060909201916123c49061532e565b80601f01602080910402602001604051908101604052809291908181526020018280546123f09061532e565b801561243b5780601f106124125761010080835404028352916020019161243b565b820191905f5260205f20905b81548152906001019060200180831161241e57829003601f168201915b505050505081526020016006820180546124549061532e565b80601f01602080910402602001604051908101604052809291908181526020018280546124809061532e565b80156124cb5780601f106124a2576101008083540402835291602001916124cb565b820191905f5260205f20905b8154815290600101906020018083116124ae57829003601f168201915b5050509183525050600782015460209091019060ff1660038111156124f2576124f2614956565b600381111561250357612503614956565b815260088201546020808301919091526009909201546001600160a01b031660409182015283548151818402810184019092528082529294509183915f9084015b82821015612843578382905f5260205f2090600502016040518060a00160405290815f820180546125749061532e565b80601f01602080910402602001604051908101604052809291908181526020018280546125a09061532e565b80156125eb5780601f106125c2576101008083540402835291602001916125eb565b820191905f5260205f20905b8154815290600101906020018083116125ce57829003601f168201915b505050505081526020016001820180546126049061532e565b80601f01602080910402602001604051908101604052809291908181526020018280546126309061532e565b801561267b5780601f106126525761010080835404028352916020019161267b565b820191905f5260205f20905b81548152906001019060200180831161265e57829003601f168201915b505050505081526020016002820180546126949061532e565b80601f01602080910402602001604051908101604052809291908181526020018280546126c09061532e565b801561270b5780601f106126e25761010080835404028352916020019161270b565b820191905f5260205f20905b8154815290600101906020018083116126ee57829003601f168201915b505050505081526020016003820180546127249061532e565b80601f01602080910402602001604051908101604052809291908181526020018280546127509061532e565b801561279b5780601f106127725761010080835404028352916020019161279b565b820191905f5260205f20905b81548152906001019060200180831161277e57829003601f168201915b505050505081526020016004820180546127b49061532e565b80601f01602080910402602001604051908101604052809291908181526020018280546127e09061532e565b801561282b5780601f106128025761010080835404028352916020019161282b565b820191905f5260205f20905b81548152906001019060200180831161280e57829003601f168201915b50505050508152505081526020019060010190612544565b505050509050915091509091565b5f80546001600160a01b031633811461287c5760405162461bcd60e51b8152600401610aa990615474565b600d80546001600160a01b0385166001600160a01b03199091161790556001915050919050565b5f80546001600160a01b03163381146128ce5760405162461bcd60e51b8152600401610aa990615474565b6001600160a01b0383165f90815260056020526040812080546001600160a01b03191681559061290160018301826143f1565b61290e600283015f6143f1565b60038201805460ff191690555f600483018190556129309060058401906143f1565b61293d600683015f6143f1565b5060078101805460ff191690555f60088201819055600990910180546001600160a01b03191690556001600160a01b03841681526006602052604081206129839161442b565b5f5b600954811015610d7f57836001600160a01b0316600982815481106129ac576129ac6152df565b5f918252602090912001546001600160a01b031603612a6d57600980546129d590600190615307565b815481106129e5576129e56152df565b5f91825260209091200154600980546001600160a01b039092169183908110612a1057612a106152df565b905f5260205f20015f6101000a8154816001600160a01b0302191690836001600160a01b031602179055506009805480612a4c57612a4c61531a565b5f8281526020902081015f1990810180546001600160a01b03191690550190555b600101612985565b5f80546001600160a01b0316338114612aa05760405162461bcd60e51b8152600401610aa990615474565b6001600160a01b0383165f818152600260205260408120805460ff191660019081179091556004805491820181559091527f8a35acfbc15ff81a39ae7d344fd709f28e8600b4aa8c65c6b64bfe7fe36bd19b0180546001600160a01b03191690911790556117cc836003614283565b5f80546001600160a01b0316338114612b3a5760405162461bcd60e51b8152600401610aa990615474565b50506040805160c08101825296151587529415156020808801918252941515878701908152931515606088019081529215156080880190815291151560a08801908152335f908152600790965295909420955186549451935192519151955161ffff1990951690151561ff00191617610100931515939093029290921763ffff00001916620100009115159190910263ff0000001916176301000000911515919091021761ffff60201b1916600160201b9215159290920260ff60281b191691909117600160281b91151591909102179055600190565b6001600160a01b0382165f908152600760209081526040808320815160c081018352905460ff8082161515835261010082048116151583860152620100008204811615158385015263010000008204811615156060840152600160201b8204811615156080840152600160281b90910416151560a08201529051909291612c9891016156d7565b6040516020818303038152906040528051906020012083604051602001612cbf91906156f0565b60405160208183030381529060405280519060200120148015612ce3575081606001515b15612cf057506001612e88565b604051602001612cff906156fb565b6040516020818303038152906040528051906020012083604051602001612d2691906156f0565b60405160208183030381529060405280519060200120148015612d4a575081602001515b15612d5757506001612e88565b604051602001612d6690615712565b6040516020818303038152906040528051906020012083604051602001612d8d91906156f0565b60405160208183030381529060405280519060200120148015612db1575081604001515b15612dbe57506001612e88565b604051602001612dcd90615730565b6040516020818303038152906040528051906020012083604051602001612df491906156f0565b60405160208183030381529060405280519060200120148015612e18575081608001515b15612e2557506001612e88565b604051602001612e349061574f565b6040516020818303038152906040528051906020012083604051602001612e5b91906156f0565b60405160208183030381529060405280519060200120148015612e7f57508160a001515b15612e88575060015b8015612f155760408051808201825287815260208101879052600b54915163fe47726160e01b815290916001600160a01b03169063fe47726190612ed2908490899060040161579e565b6020604051808303815f875af1158015612eee573d5f803e3d5ffd5b505050506040513d601f19601f82011682018060405250810190612f1291906157c7565b50505b505050505050565b600e8054612f2a9061532e565b80601f0160208091040260200160405190810160405280929190818152602001828054612f569061532e565b8015612fa15780601f10612f7857610100808354040283529160200191612fa1565b820191905f5260205f20905b815481529060010190602001808311612f8457829003601f168201915b505050505081565b60098181548110610d9a575f80fd5b6008602052815f5260405f208181548110612fd1575f80fd5b5f91825260209091206003909102018054600182015460029092015460ff90911693509091506001600160a01b031683565b5f82516001600160401b0381111561301d5761301d614537565b604051908082528060200260200182016040528015613046578160200160208202803683370190505b5090505f805b84518110156133b0575f60075f87848151811061306b5761306b6152df565b6020908102919091018101516001600160a01b031682528181019290925260409081015f20815160c081018352905460ff8082161515835261010082048116151583860152620100008204811615158385015263010000008204811615156060840152600160201b8204811615156080840152600160281b90910416151560a082015290519092506130fd91016156d7565b604051602081830303815290604052805190602001208560405160200161312491906156f0565b60405160208183030381529060405280519060200120148015613148575080606001515b156131a35785828151811061315f5761315f6152df565b6020026020010151848481518110613179576131796152df565b6001600160a01b03909216602092830291909101909101528261319b816157e2565b9350506133a7565b6040516020016131b2906156fb565b60405160208183030381529060405280519060200120856040516020016131d991906156f0565b604051602081830303815290604052805190602001201480156131fd575080602001515b156132145785828151811061315f5761315f6152df565b60405160200161322390615712565b604051602081830303815290604052805190602001208560405160200161324a91906156f0565b6040516020818303038152906040528051906020012014801561326e575080604001515b156132855785828151811061315f5761315f6152df565b60405160200161329490615730565b60405160208183030381529060405280519060200120856040516020016132bb91906156f0565b604051602081830303815290604052805190602001201480156132df575080608001515b156132f65785828151811061315f5761315f6152df565b6040516020016133059061574f565b604051602081830303815290604052805190602001208560405160200161332c91906156f0565b6040516020818303038152906040528051906020012014801561335057508060a001515b156133a757858281518110613367576133676152df565b6020026020010151848481518110613381576133816152df565b6001600160a01b0390921660209283029190910190910152826133a3816157e2565b9350505b5060010161304c565b508015612f15575f816001600160401b038111156133d0576133d0614537565b6040519080825280602002602001820160405280156133f9578160200160208202803683370190505b5090505f5b8281101561345257838181518110613418576134186152df565b6020026020010151828281518110613432576134326152df565b6001600160a01b03909216602092830291909101909101526001016133fe565b5060408051808201825288815260208101889052600b5491516390cc960360e01b815290916001600160a01b0316906390cc96039061349790849086906004016157fa565b6020604051808303815f875af11580156134b3573d5f803e3d5ffd5b505050506040513d601f19601f820116820180604052508101906134d791906157c7565b505050505050505050565b6009546060908190806001600160401b0381111561350257613502614537565b60405190808252806020026020018201604052801561353b57816020015b613528614449565b8152602001906001900390816135205790505b509250806001600160401b0381111561355657613556614537565b60405190808252806020026020018201604052801561357f578160200160208202803683370190505b5091505f5b8181101561390d5760055f600983815481106135a2576135a26152df565b5f9182526020808320909101546001600160a01b0390811684528382019490945260409283019091208251610140810190935280549093168252600183018054929392918401916135f29061532e565b80601f016020809104026020016040519081016040528092919081815260200182805461361e9061532e565b80156136695780601f1061364057610100808354040283529160200191613669565b820191905f5260205f20905b81548152906001019060200180831161364c57829003601f168201915b505050505081526020016002820180546136829061532e565b80601f01602080910402602001604051908101604052809291908181526020018280546136ae9061532e565b80156136f95780601f106136d0576101008083540402835291602001916136f9565b820191905f5260205f20905b8154815290600101906020018083116136dc57829003601f168201915b5050509183525050600382015460ff1660208201526004820154604082015260058201805460609092019161372d9061532e565b80601f01602080910402602001604051908101604052809291908181526020018280546137599061532e565b80156137a45780601f1061377b576101008083540402835291602001916137a4565b820191905f5260205f20905b81548152906001019060200180831161378757829003601f168201915b505050505081526020016006820180546137bd9061532e565b80601f01602080910402602001604051908101604052809291908181526020018280546137e99061532e565b80156138345780601f1061380b57610100808354040283529160200191613834565b820191905f5260205f20905b81548152906001019060200180831161381757829003601f168201915b5050509183525050600782015460209091019060ff16600381111561385b5761385b614956565b600381111561386c5761386c614956565b8152600882015460208201526009909101546001600160a01b031660409091015284518590839081106138a1576138a16152df565b602002602001018190525060085f600983815481106138c2576138c26152df565b5f9182526020808320909101546001600160a01b0316835282019290925260400190205483518490839081106138fa576138fa6152df565b6020908102919091010152600101613584565b50509091565b5f80612167565b5f6002612167565b8051515f906139905760405162461bcd60e51b815260206004820152604160248201525f80516020615a9083398151915260448201527f34372c226d657373616765223a2022496e76616c696420757365726e616d65226064820152607d60f81b608482015260a401610aa9565b335f9081526005602052604090206008015415613a025760405162461bcd60e51b815260206004820152603e60248201525f80516020615a9083398151915260448201527f3130322c20226d657373616765223a20225573657220657869737473227d00006064820152608401610aa9565b60a08201516001600160a01b0316613a6f5760405162461bcd60e51b815260206004820152603f60248201525f80516020615a9083398151915260448201527f3130312c20226d657373616765223a2022506172656e7420656d707479227d006064820152608401610aa9565b600a5460a08301516040516345ace91f60e11b81526001600160a01b0390921691638b59d23e91613aa2916004016147db565b602060405180830381865afa158015613abd573d5f803e3d5ffd5b505050506040513d601f19601f82011682018060405250810190613ae191906157c7565b613b5c5760405162461bcd60e51b815260206004820152605360248201525f80516020615a9083398151915260448201527f3130312c20226d657373616765223a2022506172656e74206e6f7420657869736064820152727473222b20706172616d732e706172656e747d60681b608482015260a401610aa9565b335f81815260056020526040902080546001600160a01b03191690911781558251600190910190613b8d908261550a565b5060a0820151335f9081526005602090815260409091206009810180546001600160a01b0319166001600160a01b0390941693909317909255830151600290910190613bd9908261550a565b50604082810151335f9081526005602081905292902060038101805460ff191660ff90931692909217909155606084015160048201556080840151910190613c21908261550a565b50335f90815260056020526040902060078101805460ff1916600117905542600882015560c0830151600690910190613c5a908261550a565b505060098054600181810183555f929092525f80516020615b888339815191520180546001600160a01b03191633179055919050565b5f6002335f9081526005602052604090206007015460ff166003811115613cb957613cb9614956565b14613d2b5760405162461bcd60e51b815260206004820152604960248201525f80516020615a9083398151915260448201527f35312c20226d657373616765223a2022596f7520617265206e6f7420612072656064820152687461696c65722e227d60b81b608482015260a401610aa9565b506040805160c08101825296151587529415156020808801918252941515878701908152931515606088019081529215156080880190815291151560a08801908152335f908152600790965295909420955186549451935192519151955161ffff1990951690151561ff00191617610100931515939093029290921763ffff00001916620100009115159190910263ff0000001916176301000000911515919091021761ffff60201b1916600160201b9215159290920260ff60281b191691909117600160281b91151591909102179055600190565b335f908152600560205260408120546001600160a01b0316613e785760405162461bcd60e51b815260206004820152603d60248201525f80516020615a9083398151915260448201527f34332c226d657373616765223a2022496e76616c69642075736572227d0000006064820152608401610aa9565b8251335f90815260056020526040902060010190613e96908261550a565b50602080840151335f9081526005909252604090912060020190613eba908261550a565b50604083810151335f9081526005602081905292902060038101805460ff191660ff90931692909217909155606085015160048201556080850151910190613f02908261550a565b5060c0830151335f90815260056020526040902060060190613f24908261550a565b50335f908152600660205260408120613f3c9161442b565b5f5b8251811015610a7257335f9081526006602052604090208351849083908110613f6957613f696152df565b60209081029190910181015182546001810184555f938452919092208251600590920201908190613f9a908261550a565b5060208201516001820190613faf908261550a565b5060408201516002820190613fc4908261550a565b5060608201516003820190613fd9908261550a565b5060808201516004820190613fee908261550a565b505050600101613f3e565b5f614003846141f3565b905061406781604051602001614019919061584f565b60408051601f1981840301815260c083019091526086808352909190615c366020830139856040518060400160405280600b81526020016a4f7264657255706461746560a81b815250612c11565b6140d18160405160200161407b919061584f565b60408051601f1981840301815260a083019091526061808352909190615b2760208301398460405180604001604052806013815260200172437573746f6d65724f7264657255706461746560681b815250613003565b61173e816040516020016140e5919061586f565b60408051601f1981840301815260c08301909152608e808352909190615ba860208301395f54604080518082019091526013815272437573746f6d65724f7264657255706461746560681b60208201526001600160a01b0390911690612c11565b60048181548110610d9a575f80fd5b5f61415f846141f3565b90506141cb81604051602001614175919061584f565b60408051601f1981840301815260a083019091526062808352909190615a2e60208301398460405180604001604052806013815260200172437573746f6d65724f7264657255706461746560681b815250612c11565b6141df816040516020016140199190615895565b61173e816040516020016140e591906158bc565b60605f6141ff8361431c565b60010190505f816001600160401b0381111561421d5761421d614537565b6040519080825280601f01601f191660200182016040528015614247576020820181803683370190505b5090508181016020015b5f19016f181899199a1a9b1b9c1cb0b131b232b360811b600a86061a8153600a8504945084614251575b509392505050565b6001600160a01b0382165f81815260056020526040902080546001600160a01b0319169091178155600701805482919060ff191660018360038111156142cb576142cb614956565b0217905550506001600160a01b03165f818152600560205260408120426008909101556009805460018101825591525f80516020615b888339815191520180546001600160a01b0319169091179055565b5f8072184f03e93ff9f4daa797ed6e38ed64bf6a1f0160401b831061435a5772184f03e93ff9f4daa797ed6e38ed64bf6a1f0160401b830492506040015b6904ee2d6d415b85acef8160201b8310614384576904ee2d6d415b85acef8160201b830492506020015b662386f26fc1000083106143a257662386f26fc10000830492506010015b6305f5e10083106143ba576305f5e100830492506008015b61271083106143ce57612710830492506004015b606483106143e0576064830492506002015b600a8310610a785760010192915050565b5080546143fd9061532e565b5f825580601f1061440c575050565b601f0160209004905f5260205f209081019061442891906144b4565b50565b5080545f8255600502905f5260205f209081019061442891906144cc565b6040518061014001604052805f6001600160a01b0316815260200160608152602001606081526020015f60ff1681526020015f815260200160608152602001606081526020015f60038111156144a1576144a1614956565b81525f6020820181905260409091015290565b5b808211156144c8575f81556001016144b5565b5090565b808211156144c8575f6144df82826143f1565b6144ec600183015f6143f1565b6144f9600283015f6143f1565b614506600383015f6143f1565b614513600483015f6143f1565b506005016144cc565b80356001600160a01b0381168114614532575f80fd5b919050565b634e487b7160e01b5f52604160045260245ffd5b60405160e081016001600160401b038111828210171561456d5761456d614537565b60405290565b60405160a081016001600160401b038111828210171561456d5761456d614537565b604051601f8201601f191681016001600160401b03811182821017156145bd576145bd614537565b604052919050565b803560ff81168114614532575f80fd5b5f8082840360808112156145e7575f80fd5b6145f08461451c565b92506060601f1982011215614603575f80fd5b50604051606081016001600160401b038111828210171561462657614626614537565b604052614635602085016145c5565b81526040840135602082015261464d6060850161451c565b6040820152809150509250929050565b5f806020838503121561466e575f80fd5b82356001600160401b03811115614683575f80fd5b8301601f81018513614693575f80fd5b80356001600160401b038111156146a8575f80fd5b8560208284010111156146b9575f80fd5b6020919091019590945092505050565b5f82601f8301126146d8575f80fd5b81356001600160401b038111156146f1576146f1614537565b614704601f8201601f1916602001614595565b818152846020838601011115614718575f80fd5b816020850160208301375f918101602001919091529392505050565b5f8060408385031215614745575f80fd5b82356001600160401b0381111561475a575f80fd5b614766858286016146c9565b92505060208301356001600160401b03811115614781575f80fd5b61478d858286016146c9565b9150509250929050565b5f602082840312156147a7575f80fd5b6147b08261451c565b9392505050565b5f602082840312156147c7575f80fd5b5035919050565b6001600160a01b03169052565b6001600160a01b0391909116815260200190565b5f8060408385031215614800575f80fd5b8235915060208301356001600160401b03811115614781575f80fd5b5f81518084528060208401602086015e5f602082860101526020601f19601f83011685010191505092915050565b602081525f6147b0602083018461481c565b8015158114614428575f80fd5b5f805f806080858703121561487c575f80fd5b84356148878161485c565b935060208501356148978161485c565b925060408501356148a78161485c565b915060608501356148b78161485c565b939692955090935050565b5f80604083850312156148d3575f80fd5b6148dc8361451c565b946020939093013593505050565b60a081525f6148fc60a083018861481c565b828103602084015261490e818861481c565b90508281036040840152614922818761481c565b90508281036060840152614936818661481c565b9050828103608084015261494a818561481c565b98975050505050505050565b634e487b7160e01b5f52602160045260245ffd5b6004811061498657634e487b7160e01b5f52602160045260245ffd5b9052565b60208101610a78828461496a565b602080825282518282018190525f918401906040840190835b818110156149f4578351805160ff168452602080820151818601526040918201516001600160a01b031691850191909152909301926060909201916001016149b1565b509095945050505050565b5f805f60608486031215614a11575f80fd5b833592506020840135614a238161485c565b9150614a316040850161451c565b90509250925092565b6001600160a01b038b168152610140602082018190525f90614a5e9083018c61481c565b8281036040840152614a70818c61481c565b905060ff8a16606084015288608084015282810360a0840152614a93818961481c565b905082810360c0840152614aa7818861481c565b915050614ab760e083018661496a565b6101008201939093526001600160a01b03919091166101209091015298975050505050505050565b614aea8282516147ce565b5f60208201516101406020850152614b0661014085018261481c565b905060408301518482036040860152614b1f828261481c565b9150506060830151614b36606086018260ff169052565b506080830151608085015260a083015184820360a0860152614b58828261481c565b91505060c083015184820360c0860152614b72828261481c565b91505060e0830151614b8760e086018261496a565b5061010083015161010085015261012083015161427b6101208601826147ce565b604081525f614bba6040830185614adf565b828103602084015280845180835260208301915060208160051b840101602087015f5b83811015614c8457601f198684030185528151805160a08552614c0360a086018261481c565b905060208201518582036020870152614c1c828261481c565b91505060408201518582036040870152614c36828261481c565b91505060608201518582036060870152614c50828261481c565b915050608082015191508481036080860152614c6c818361481c565b60209788019790955093909301925050600101614bdd565b509098975050505050505050565b5f805f805f8060c08789031215614ca7575f80fd5b8635614cb28161485c565b95506020870135614cc28161485c565b94506040870135614cd28161485c565b93506060870135614ce28161485c565b92506080870135614cf28161485c565b915060a0870135614d028161485c565b809150509295509295509295565b5f805f8060808587031215614d23575f80fd5b84356001600160401b03811115614d38575f80fd5b614d44878288016146c9565b94505060208501356001600160401b03811115614d5f575f80fd5b614d6b878288016146c9565b935050614d7a6040860161451c565b915060608501356001600160401b03811115614d94575f80fd5b614da0878288016146c9565b91505092959194509250565b5f6001600160401b03821115614dc457614dc4614537565b5060051b60200190565b5f82601f830112614ddd575f80fd5b8135614df0614deb82614dac565b614595565b8082825260208201915060208360051b860101925085831115614e11575f80fd5b602085015b83811015614e3557614e278161451c565b835260209283019201614e16565b5095945050505050565b5f805f8060808587031215614e52575f80fd5b84356001600160401b03811115614e67575f80fd5b614e73878288016146c9565b94505060208501356001600160401b03811115614e8e575f80fd5b614e9a878288016146c9565b93505060408501356001600160401b03811115614eb5575f80fd5b614ec187828801614dce565b92505060608501356001600160401b03811115614d94575f80fd5b5f604082016040835280855180835260608501915060608160051b8601019250602087015f5b82811015614f3357605f19878603018452614f1e858351614adf565b94506020938401939190910190600101614f02565b5050505082810360208401528084518083526020830191506020860192505f5b81811015614f71578351835260209384019390920191600101614f53565b50909695505050505050565b5f60e08284031215614f8d575f80fd5b614f9561454b565b905081356001600160401b03811115614fac575f80fd5b614fb8848285016146c9565b82525060208201356001600160401b03811115614fd3575f80fd5b614fdf848285016146c9565b602083015250614ff1604083016145c5565b60408201526060828101359082015260808201356001600160401b03811115615018575f80fd5b615024848285016146c9565b60808301525061503660a0830161451c565b60a082015260c08201356001600160401b03811115615053575f80fd5b61505f848285016146c9565b60c08301525092915050565b5f6020828403121561507b575f80fd5b81356001600160401b03811115615090575f80fd5b61509c84828501614f7d565b949350505050565b5f80604083850312156150b5575f80fd5b82356001600160401b038111156150ca575f80fd5b6150d685828601614f7d565b92505060208301356001600160401b038111156150f1575f80fd5b8301601f81018513615101575f80fd5b803561510f614deb82614dac565b8082825260208201915060208360051b850101925087831115615130575f80fd5b602084015b8381101561525c5780356001600160401b03811115615152575f80fd5b850160a0818b03601f19011215615167575f80fd5b61516f614573565b60208201356001600160401b03811115615187575f80fd5b6151968c6020838601016146c9565b82525060408201356001600160401b038111156151b1575f80fd5b6151c08c6020838601016146c9565b60208301525060608201356001600160401b038111156151de575f80fd5b6151ed8c6020838601016146c9565b60408301525060808201356001600160401b0381111561520b575f80fd5b61521a8c6020838601016146c9565b60608301525060a08201356001600160401b03811115615238575f80fd5b6152478c6020838601016146c9565b60808301525084525060209283019201615135565b50809450505050509250929050565b5f805f6060848603121561527d575f80fd5b8335925061528d6020850161451c565b915060408401356001600160401b038111156152a7575f80fd5b6152b386828701614dce565b9150509250925092565b5f805f606084860312156152cf575f80fd5b83359250614a236020850161451c565b634e487b7160e01b5f52603260045260245ffd5b634e487b7160e01b5f52601160045260245ffd5b81810381811115610a7857610a786152f3565b634e487b7160e01b5f52603160045260245ffd5b600181811c9082168061534257607f821691505b602082108103610d8557634e487b7160e01b5f52602260045260245ffd5b601f8211156153a757805f5260205f20601f840160051c810160208510156153855750805b601f840160051c820191505b818110156153a4575f8155600101615391565b50505b505050565b5f19600383901b1c191660019190911b1790565b6001600160401b038311156153d7576153d7614537565b6153eb836153e5835461532e565b83615360565b5f601f841160018114615417575f85156154055750838201355b61540f86826153ac565b8455506153a4565b5f83815260208120601f198716915b828110156154465786850135825560209485019460019092019101615426565b5086821015615462575f1960f88860031b161c19848701351681555b505060018560011b0183555050505050565b60208082526046908201525f80516020615a9083398151915260408201527f35352c20226d657373616765223a2022596f7520617265206e6f7420616c6c6f6060820152657765642e227d60d01b608082015260a00190565b606081525f6154df606083018661481c565b6001600160a01b03851660208401528281036040840152615500818561481c565b9695505050505050565b81516001600160401b0381111561552357615523614537565b61553781615531845461532e565b84615360565b6020601f821160018114615564575f83156155525750848201515b61555c84826153ac565b8555506153a4565b5f84815260208120601f198516915b828110156155935787850151825560209485019460019092019101615573565b50848210156155b057868401515f19600387901b60f8161c191681555b50505050600190811b01905550565b5f81518060208401855e5f93019283525090919050565b771ec8999c9bdb488e88089158dbdb555cd95c8b9cdbdb088b60421b81526701131b7b232911d160c51b60188201525f61561360208301856155bf565b61016160f51b81526b1136b2b9b9b0b3b2911d101160a11b600282015261563d600e8201856155bf565b61227d60f01b815260020195945050505050565b77496e74726f647563696e67204e65772050726f647563742160401b81525f6147b060188301846155bf565b7b4e65772050726f6475637420506f7374205375636365737366756c2160201b81525f6147b0601c8301846155bf565b75466c6173682053616c6520537461727473204e6f772160501b81525f6147b060168301846155bf565b6c10dc99585d19541c9bd91d58dd609a1b8152600d0190565b5f6147b082846155bf565b6a4f7264657255706461746560a81b8152600b0190565b7150726f6d6f74696f6e616c50726f6772616d60701b815260120190565b72437573746f6d65724f7264657255706461746560681b815260130190565b6c436f6d6d656e7455706461746560981b8152600d0190565b5f81516040845261577c604085018261481c565b905060208301518482036020860152615795828261481c565b95945050505050565b604081525f6157b06040830185615768565b905060018060a01b03831660208301529392505050565b5f602082840312156157d7575f80fd5b81516147b08161485c565b5f600182016157f3576157f36152f3565b5060010190565b604081525f61580c6040830185615768565b82810360208401528084518083526020830191506020860192505f5b81811015614f715783516001600160a01b0316835260209384019390920191600101615828565b6b4e657720507572636861736560a01b81525f6147b0600c8301846155bf565b7113995dc813dc99195c88149958d95a5d995960721b81525f6147b060128301846155bf565b72141d5c98da185cd94814dd58d8d95cdcd99d5b606a1b81525f6147b060138301846155bf565b741048141d5c98da185cd94814dd58d8d95cdcd99d5b605a1b81525f6147b060158301846155bf56fe4570696320536176696e677320417761697421204f757220466c6173682053616c6520697320686572652077697468206a61772d64726f7070696e6720646973636f756e747321576520617265206578636974656420746f20696e74726f647563652061206e65772070726f647563742120446f6e2774206d69737320746865206368616e636520746f20657870657269656e636520746865206c61746573742070726f64756374732e20436865636b206974206f7574206e6f7720666f72206d6f72652064657461696c732e596f7572206e65772070726f6475637420686173206265656e207375636365737366756c6c7920706f737465642120436865636b206974206f7574206e6f77206f6e20796f75722073746f7265207061676520616e642067657420726561647920746f2061747472616374206d6f726520637573746f6d6572732e596f757220637573746f6d657220686173207375636365737366756c6c7920706c6163656420616e206f7264657220666f7220796f75722070726f6475637421205468616e6b20796f7520666f7220706172746e6572696e6720776974682075732e7b2266726f6d223a202245636f6d557365722e736f6c222c22636f6465223a2041206e65772070726f6475637420686173206265656e207375636365737366756c6c7920706f7374656420627920612072657461696c65722120436865636b206974206f7574206f6e20746865207765627369746520616e6420656e737572652065766572797468696e6720697320696e206f72646572596f757220637573746f6d657220686173207375636365737366756c6c7920706c6163656420616e206f7264657220666f7220796f75722070726f6475637421205468616e6b20796f7520666f7220706172746e6572696e6720776974682075736e1540171b6c0c960b71a7020d9f60077f6af931a8bbf590da0223dacf75c7af416e206f7264657220686173206265656e207375636365737366756c6c7920706c61636564206279206120637573746f6d657220666f72206f6e65206f6620796f75722070726f64756374732e20506c656173652072657669657720746865206f726465722064657461696c7320746f20656e737572652065766572797468696e6720697320696e206f72646572596f7572206f7264657220686173206265656e207375636365737366756c6c7920706c61636564212057652077696c6c2070726f6365737320616e64207368697020796f7572206f7264657220617320736f6f6e20617320706f737369626c652e205468616e6b20796f7520666f72207472757374696e6720616e642073686f7070696e672ea2646970667358221220b9b63da7a52e0731a0d28cc9d3c681371d0f9c6da73d64e8b43d4392b776991064736f6c634300081a0033",
			"opcodes": "PUSH1 0xC0 PUSH1 0x40 MSTORE PUSH1 0x4 PUSH1 0x80 SWAP1 DUP2 MSTORE PUSH4 0x45434F4D PUSH1 0xE0 SHL PUSH1 0xA0 MSTORE PUSH1 0xE SWAP1 PUSH2 0x23 SWAP1 DUP3 PUSH2 0x18C JUMP JUMPDEST POP PUSH0 DUP1 SLOAD PUSH1 0x1 PUSH1 0x1 PUSH1 0xA0 SHL SUB NOT AND CALLER SWAP1 DUP2 OR SWAP1 SWAP2 SSTORE PUSH2 0x43 SWAP1 PUSH1 0x3 PUSH2 0x48 JUMP JUMPDEST PUSH2 0x25A JUMP JUMPDEST PUSH1 0x1 PUSH1 0x1 PUSH1 0xA0 SHL SUB DUP3 AND PUSH0 DUP2 DUP2 MSTORE PUSH1 0x5 PUSH1 0x20 MSTORE PUSH1 0x40 SWAP1 KECCAK256 DUP1 SLOAD PUSH1 0x1 PUSH1 0x1 PUSH1 0xA0 SHL SUB NOT AND SWAP1 SWAP2 OR DUP2 SSTORE PUSH1 0x7 ADD DUP1 SLOAD DUP3 SWAP2 SWAP1 PUSH1 0xFF NOT AND PUSH1 0x1 DUP4 PUSH1 0x3 DUP2 GT ISZERO PUSH2 0x90 JUMPI PUSH2 0x90 PUSH2 0x246 JUMP JUMPDEST MUL OR SWAP1 SSTORE POP POP PUSH1 0x1 PUSH1 0x1 PUSH1 0xA0 SHL SUB AND PUSH0 DUP2 DUP2 MSTORE PUSH1 0x5 PUSH1 0x20 MSTORE PUSH1 0x40 DUP2 KECCAK256 TIMESTAMP PUSH1 0x8 SWAP1 SWAP2 ADD SSTORE PUSH1 0x9 DUP1 SLOAD PUSH1 0x1 DUP2 ADD DUP3 SSTORE SWAP2 MSTORE PUSH32 0x6E1540171B6C0C960B71A7020D9F60077F6AF931A8BBF590DA0223DACF75C7AF ADD DUP1 SLOAD PUSH1 0x1 PUSH1 0x1 PUSH1 0xA0 SHL SUB NOT AND SWAP1 SWAP2 OR SWAP1 SSTORE JUMP JUMPDEST PUSH4 0x4E487B71 PUSH1 0xE0 SHL PUSH0 MSTORE PUSH1 0x41 PUSH1 0x4 MSTORE PUSH1 0x24 PUSH0 REVERT JUMPDEST PUSH1 0x1 DUP2 DUP2 SHR SWAP1 DUP3 AND DUP1 PUSH2 0x11C JUMPI PUSH1 0x7F DUP3 AND SWAP2 POP JUMPDEST PUSH1 0x20 DUP3 LT DUP2 SUB PUSH2 0x13A JUMPI PUSH4 0x4E487B71 PUSH1 0xE0 SHL PUSH0 MSTORE PUSH1 0x22 PUSH1 0x4 MSTORE PUSH1 0x24 PUSH0 REVERT JUMPDEST POP SWAP2 SWAP1 POP JUMP JUMPDEST PUSH1 0x1F DUP3 GT ISZERO PUSH2 0x187 JUMPI DUP1 PUSH0 MSTORE PUSH1 0x20 PUSH0 KECCAK256 PUSH1 0x1F DUP5 ADD PUSH1 0x5 SHR DUP2 ADD PUSH1 0x20 DUP6 LT ISZERO PUSH2 0x165 JUMPI POP DUP1 JUMPDEST PUSH1 0x1F DUP5 ADD PUSH1 0x5 SHR DUP3 ADD SWAP2 POP JUMPDEST DUP2 DUP2 LT ISZERO PUSH2 0x184 JUMPI PUSH0 DUP2 SSTORE PUSH1 0x1 ADD PUSH2 0x171 JUMP JUMPDEST POP POP JUMPDEST POP POP POP JUMP JUMPDEST DUP2 MLOAD PUSH1 0x1 PUSH1 0x1 PUSH1 0x40 SHL SUB DUP2 GT ISZERO PUSH2 0x1A5 JUMPI PUSH2 0x1A5 PUSH2 0xF4 JUMP JUMPDEST PUSH2 0x1B9 DUP2 PUSH2 0x1B3 DUP5 SLOAD PUSH2 0x108 JUMP JUMPDEST DUP5 PUSH2 0x140 JUMP JUMPDEST PUSH1 0x20 PUSH1 0x1F DUP3 GT PUSH1 0x1 DUP2 EQ PUSH2 0x1EB JUMPI PUSH0 DUP4 ISZERO PUSH2 0x1D4 JUMPI POP DUP5 DUP3 ADD MLOAD JUMPDEST PUSH0 NOT PUSH1 0x3 DUP6 SWAP1 SHL SHR NOT AND PUSH1 0x1 DUP5 SWAP1 SHL OR DUP5 SSTORE PUSH2 0x184 JUMP JUMPDEST PUSH0 DUP5 DUP2 MSTORE PUSH1 0x20 DUP2 KECCAK256 PUSH1 0x1F NOT DUP6 AND SWAP2 JUMPDEST DUP3 DUP2 LT ISZERO PUSH2 0x21A JUMPI DUP8 DUP6 ADD MLOAD DUP3 SSTORE PUSH1 0x20 SWAP5 DUP6 ADD SWAP5 PUSH1 0x1 SWAP1 SWAP3 ADD SWAP2 ADD PUSH2 0x1FA JUMP JUMPDEST POP DUP5 DUP3 LT ISZERO PUSH2 0x237 JUMPI DUP7 DUP5 ADD MLOAD PUSH0 NOT PUSH1 0x3 DUP8 SWAP1 SHL PUSH1 0xF8 AND SHR NOT AND DUP2 SSTORE JUMPDEST POP POP POP POP PUSH1 0x1 SWAP1 DUP2 SHL ADD SWAP1 SSTORE POP JUMP JUMPDEST PUSH4 0x4E487B71 PUSH1 0xE0 SHL PUSH0 MSTORE PUSH1 0x21 PUSH1 0x4 MSTORE PUSH1 0x24 PUSH0 REVERT JUMPDEST PUSH2 0x5CF1 DUP1 PUSH2 0x267 PUSH0 CODECOPY PUSH0 RETURN INVALID PUSH1 0x80 PUSH1 0x40 MSTORE CALLVALUE DUP1 ISZERO PUSH2 0xF JUMPI PUSH0 DUP1 REVERT JUMPDEST POP PUSH1 0x4 CALLDATASIZE LT PUSH2 0x24F JUMPI PUSH0 CALLDATALOAD PUSH1 0xE0 SHR DUP1 PUSH4 0x25F36E5 EQ PUSH2 0x253 JUMPI DUP1 PUSH4 0x26FF05E EQ PUSH2 0x2D1 JUMPI DUP1 PUSH4 0x316E0EB EQ PUSH2 0x2EE JUMPI DUP1 PUSH4 0xB6B8EDC EQ PUSH2 0x301 JUMPI DUP1 PUSH4 0xCFE4D0E EQ PUSH2 0x314 JUMPI DUP1 PUSH4 0x14BFD6D0 EQ PUSH2 0x327 JUMPI DUP1 PUSH4 0x2248632A EQ PUSH2 0x347 JUMPI DUP1 PUSH4 0x23398AAB EQ PUSH2 0x367 JUMPI DUP1 PUSH4 0x25B4436D EQ PUSH2 0x37A JUMPI DUP1 PUSH4 0x27820851 EQ PUSH2 0x39E JUMPI DUP1 PUSH4 0x27E1F7DF EQ PUSH2 0x3BE JUMPI DUP1 PUSH4 0x27F444E4 EQ PUSH2 0x3D1 JUMPI DUP1 PUSH4 0x30CBFB24 EQ PUSH2 0x3E6 JUMPI DUP1 PUSH4 0x32F39436 EQ PUSH2 0x3F9 JUMPI DUP1 PUSH4 0x371C0FC7 EQ PUSH2 0x40C JUMPI DUP1 PUSH4 0x44089CD1 EQ PUSH2 0x41F JUMPI DUP1 PUSH4 0x4A1F6125 EQ PUSH2 0x432 JUMPI DUP1 PUSH4 0x4B5BA409 EQ PUSH2 0x445 JUMPI DUP1 PUSH4 0x4D5D6AD0 EQ PUSH2 0x458 JUMPI DUP1 PUSH4 0x4FFFD6AC EQ PUSH2 0x570 JUMPI DUP1 PUSH4 0x5182104C EQ PUSH2 0x583 JUMPI DUP1 PUSH4 0x630E8B30 EQ PUSH2 0x5AC JUMPI DUP1 PUSH4 0x6386C1C7 EQ PUSH2 0x5BF JUMPI DUP1 PUSH4 0x656952AD EQ PUSH2 0x5E0 JUMPI DUP1 PUSH4 0x704B6C02 EQ PUSH2 0x5F3 JUMPI DUP1 PUSH4 0x72B1D452 EQ PUSH2 0x606 JUMPI DUP1 PUSH4 0x832880E7 EQ PUSH2 0x691 JUMPI DUP1 PUSH4 0x8A8869E2 EQ PUSH2 0x699 JUMPI DUP1 PUSH4 0x8DA5CB5B EQ PUSH2 0x6AC JUMPI DUP1 PUSH4 0x8FD58A7D EQ PUSH2 0x6BE JUMPI DUP1 PUSH4 0x92EEFE9B EQ PUSH2 0x6D1 JUMPI DUP1 PUSH4 0x95564309 EQ PUSH2 0x6E4 JUMPI DUP1 PUSH4 0x96B170F5 EQ PUSH2 0x6F7 JUMPI DUP1 PUSH4 0x9DDF2E95 EQ PUSH2 0x70A JUMPI DUP1 PUSH4 0x9F2E6A0C EQ PUSH2 0x72C JUMPI DUP1 PUSH4 0x9F4216E8 EQ PUSH2 0x734 JUMPI DUP1 PUSH4 0xA36AFC66 EQ PUSH2 0x747 JUMPI DUP1 PUSH4 0xA702A64C EQ PUSH2 0x782 JUMPI DUP1 PUSH4 0xAAA3DE26 EQ PUSH2 0x795 JUMPI DUP1 PUSH4 0xB11E3C1A EQ PUSH2 0x7AB JUMPI DUP1 PUSH4 0xB3A6404E EQ PUSH2 0x7BE JUMPI DUP1 PUSH4 0xB3DD67FE EQ PUSH2 0x7D1 JUMPI DUP1 PUSH4 0xB4E81660 EQ PUSH2 0x7F3 JUMPI DUP1 PUSH4 0xB618A35F EQ PUSH2 0x806 JUMPI DUP1 PUSH4 0xB814F77B EQ PUSH2 0x819 JUMPI DUP1 PUSH4 0xD4DBDCCE EQ PUSH2 0x82C JUMPI DUP1 PUSH4 0xE00F0DAE EQ PUSH2 0x83F JUMPI DUP1 PUSH4 0xE205D94E EQ PUSH2 0x86D JUMPI DUP1 PUSH4 0xE5FC4AC2 EQ PUSH2 0x880 JUMPI DUP1 PUSH4 0xE94B0DD2 EQ PUSH2 0x893 JUMPI DUP1 PUSH4 0xEAF4EE9A EQ PUSH2 0x8A6 JUMPI JUMPDEST PUSH0 DUP1 REVERT JUMPDEST PUSH2 0x2CF PUSH2 0x261 CALLDATASIZE PUSH1 0x4 PUSH2 0x45D5 JUMP JUMPDEST PUSH1 0x1 PUSH1 0x1 PUSH1 0xA0 SHL SUB SWAP2 DUP3 AND PUSH0 SWAP1 DUP2 MSTORE PUSH1 0x8 PUSH1 0x20 SWAP1 DUP2 MSTORE PUSH1 0x40 DUP1 DUP4 KECCAK256 DUP1 SLOAD PUSH1 0x1 DUP1 DUP3 ADD DUP4 SSTORE SWAP2 DUP6 MSTORE SWAP4 DUP4 SWAP1 KECCAK256 DUP6 MLOAD PUSH1 0x3 SWAP1 SWAP6 MUL ADD DUP1 SLOAD PUSH1 0xFF NOT AND PUSH1 0xFF SWAP1 SWAP6 AND SWAP5 SWAP1 SWAP5 OR DUP5 SSTORE SWAP2 DUP5 ADD MLOAD SWAP2 DUP4 ADD SWAP2 SWAP1 SWAP2 SSTORE SWAP2 SWAP1 SWAP2 ADD MLOAD PUSH1 0x2 SWAP1 SWAP2 ADD DUP1 SLOAD PUSH1 0x1 PUSH1 0x1 PUSH1 0xA0 SHL SUB NOT AND SWAP2 SWAP1 SWAP3 AND OR SWAP1 SSTORE JUMP JUMPDEST STOP JUMPDEST PUSH2 0x2D9 PUSH2 0x8B9 JUMP JUMPDEST PUSH1 0x40 MLOAD SWAP1 ISZERO ISZERO DUP2 MSTORE PUSH1 0x20 ADD JUMPDEST PUSH1 0x40 MLOAD DUP1 SWAP2 SUB SWAP1 RETURN JUMPDEST PUSH2 0x2D9 PUSH2 0x2FC CALLDATASIZE PUSH1 0x4 PUSH2 0x465D JUMP JUMPDEST PUSH2 0xA56 JUMP JUMPDEST PUSH2 0x2D9 PUSH2 0x30F CALLDATASIZE PUSH1 0x4 PUSH2 0x4734 JUMP JUMPDEST PUSH2 0xA7E JUMP JUMPDEST PUSH2 0x2D9 PUSH2 0x322 CALLDATASIZE PUSH1 0x4 PUSH2 0x4797 JUMP JUMPDEST PUSH2 0xC40 JUMP JUMPDEST PUSH2 0x33A PUSH2 0x335 CALLDATASIZE PUSH1 0x4 PUSH2 0x47B7 JUMP JUMPDEST PUSH2 0xD8B JUMP JUMPDEST PUSH1 0x40 MLOAD PUSH2 0x2E5 SWAP2 SWAP1 PUSH2 0x47DB JUMP JUMPDEST PUSH2 0x35A PUSH2 0x355 CALLDATASIZE PUSH1 0x4 PUSH2 0x47EF JUMP JUMPDEST PUSH2 0xDB3 JUMP JUMPDEST PUSH1 0x40 MLOAD PUSH2 0x2E5 SWAP2 SWAP1 PUSH2 0x484A JUMP JUMPDEST PUSH2 0x2D9 PUSH2 0x375 CALLDATASIZE PUSH1 0x4 PUSH2 0x4869 JUMP JUMPDEST PUSH2 0xDEC JUMP JUMPDEST PUSH2 0x38D PUSH2 0x388 CALLDATASIZE PUSH1 0x4 PUSH2 0x48C2 JUMP JUMPDEST PUSH2 0xF58 JUMP JUMPDEST PUSH1 0x40 MLOAD PUSH2 0x2E5 SWAP6 SWAP5 SWAP4 SWAP3 SWAP2 SWAP1 PUSH2 0x48EA JUMP JUMPDEST PUSH2 0x3B1 PUSH2 0x3AC CALLDATASIZE PUSH1 0x4 PUSH2 0x4797 JUMP JUMPDEST PUSH2 0x1242 JUMP JUMPDEST PUSH1 0x40 MLOAD PUSH2 0x2E5 SWAP2 SWAP1 PUSH2 0x498A JUMP JUMPDEST PUSH2 0x2D9 PUSH2 0x3CC CALLDATASIZE PUSH1 0x4 PUSH2 0x4797 JUMP JUMPDEST PUSH2 0x12E2 JUMP JUMPDEST PUSH2 0x3D9 PUSH2 0x13FC JUMP JUMPDEST PUSH1 0x40 MLOAD PUSH2 0x2E5 SWAP2 SWAP1 PUSH2 0x4998 JUMP JUMPDEST PUSH2 0x2D9 PUSH2 0x3F4 CALLDATASIZE PUSH1 0x4 PUSH2 0x4797 JUMP JUMPDEST PUSH2 0x148A JUMP JUMPDEST PUSH1 0xC SLOAD PUSH2 0x33A SWAP1 PUSH1 0x1 PUSH1 0x1 PUSH1 0xA0 SHL SUB AND DUP2 JUMP JUMPDEST PUSH2 0x2CF PUSH2 0x41A CALLDATASIZE PUSH1 0x4 PUSH2 0x49FF JUMP JUMPDEST PUSH2 0x14DC JUMP JUMPDEST PUSH2 0x2D9 PUSH2 0x42D CALLDATASIZE PUSH1 0x4 PUSH2 0x4797 JUMP JUMPDEST PUSH2 0x1744 JUMP JUMPDEST PUSH2 0x2D9 PUSH2 0x440 CALLDATASIZE PUSH1 0x4 PUSH2 0x4797 JUMP JUMPDEST PUSH2 0x1796 JUMP JUMPDEST PUSH2 0x2D9 PUSH2 0x453 CALLDATASIZE PUSH1 0x4 PUSH2 0x4797 JUMP JUMPDEST PUSH2 0x17D5 JUMP JUMPDEST PUSH2 0x519 PUSH2 0x466 CALLDATASIZE PUSH1 0x4 PUSH2 0x4797 JUMP JUMPDEST PUSH1 0x40 DUP1 MLOAD PUSH1 0xC0 DUP2 ADD DUP3 MSTORE PUSH0 DUP1 DUP3 MSTORE PUSH1 0x20 DUP3 ADD DUP2 SWAP1 MSTORE SWAP2 DUP2 ADD DUP3 SWAP1 MSTORE PUSH1 0x60 DUP2 ADD DUP3 SWAP1 MSTORE PUSH1 0x80 DUP2 ADD DUP3 SWAP1 MSTORE PUSH1 0xA0 DUP2 ADD SWAP2 SWAP1 SWAP2 MSTORE POP PUSH1 0x1 PUSH1 0x1 PUSH1 0xA0 SHL SUB AND PUSH0 SWAP1 DUP2 MSTORE PUSH1 0x7 PUSH1 0x20 SWAP1 DUP2 MSTORE PUSH1 0x40 SWAP2 DUP3 SWAP1 KECCAK256 DUP3 MLOAD PUSH1 0xC0 DUP2 ADD DUP5 MSTORE SWAP1 SLOAD PUSH1 0xFF DUP1 DUP3 AND ISZERO ISZERO DUP4 MSTORE PUSH2 0x100 DUP3 DIV DUP2 AND ISZERO ISZERO SWAP4 DUP4 ADD SWAP4 SWAP1 SWAP4 MSTORE PUSH3 0x10000 DUP2 DIV DUP4 AND ISZERO ISZERO SWAP4 DUP3 ADD SWAP4 SWAP1 SWAP4 MSTORE PUSH4 0x1000000 DUP4 DIV DUP3 AND ISZERO ISZERO PUSH1 0x60 DUP3 ADD MSTORE PUSH1 0x1 PUSH1 0x20 SHL DUP4 DIV DUP3 AND ISZERO ISZERO PUSH1 0x80 DUP3 ADD MSTORE PUSH1 0x1 PUSH1 0x28 SHL SWAP1 SWAP3 DIV AND ISZERO ISZERO PUSH1 0xA0 DUP3 ADD MSTORE SWAP1 JUMP JUMPDEST PUSH1 0x40 MLOAD PUSH2 0x2E5 SWAP2 SWAP1 PUSH0 PUSH1 0xC0 DUP3 ADD SWAP1 POP DUP3 MLOAD ISZERO ISZERO DUP3 MSTORE PUSH1 0x20 DUP4 ADD MLOAD ISZERO ISZERO PUSH1 0x20 DUP4 ADD MSTORE PUSH1 0x40 DUP4 ADD MLOAD ISZERO ISZERO PUSH1 0x40 DUP4 ADD MSTORE PUSH1 0x60 DUP4 ADD MLOAD ISZERO ISZERO PUSH1 0x60 DUP4 ADD MSTORE PUSH1 0x80 DUP4 ADD MLOAD ISZERO ISZERO PUSH1 0x80 DUP4 ADD MSTORE PUSH1 0xA0 DUP4 ADD MLOAD ISZERO ISZERO PUSH1 0xA0 DUP4 ADD MSTORE SWAP3 SWAP2 POP POP JUMP JUMPDEST PUSH2 0x3D9 PUSH2 0x57E CALLDATASIZE PUSH1 0x4 PUSH2 0x4797 JUMP JUMPDEST PUSH2 0x1827 JUMP JUMPDEST PUSH2 0x596 PUSH2 0x591 CALLDATASIZE PUSH1 0x4 PUSH2 0x4797 JUMP JUMPDEST PUSH2 0x18C0 JUMP JUMPDEST PUSH1 0x40 MLOAD PUSH2 0x2E5 SWAP11 SWAP10 SWAP9 SWAP8 SWAP7 SWAP6 SWAP5 SWAP4 SWAP3 SWAP2 SWAP1 PUSH2 0x4A3A JUMP JUMPDEST PUSH1 0xB SLOAD PUSH2 0x33A SWAP1 PUSH1 0x1 PUSH1 0x1 PUSH1 0xA0 SHL SUB AND DUP2 JUMP JUMPDEST PUSH2 0x5D2 PUSH2 0x5CD CALLDATASIZE PUSH1 0x4 PUSH2 0x4797 JUMP JUMPDEST PUSH2 0x1B45 JUMP JUMPDEST PUSH1 0x40 MLOAD PUSH2 0x2E5 SWAP3 SWAP2 SWAP1 PUSH2 0x4BA8 JUMP JUMPDEST PUSH2 0x2D9 PUSH2 0x5EE CALLDATASIZE PUSH1 0x4 PUSH2 0x4797 JUMP JUMPDEST PUSH2 0x2163 JUMP JUMPDEST PUSH2 0x2D9 PUSH2 0x601 CALLDATASIZE PUSH1 0x4 PUSH2 0x4797 JUMP JUMPDEST PUSH2 0x219D JUMP JUMPDEST PUSH2 0x658 PUSH2 0x614 CALLDATASIZE PUSH1 0x4 PUSH2 0x4797 JUMP JUMPDEST PUSH1 0x7 PUSH1 0x20 MSTORE PUSH0 SWAP1 DUP2 MSTORE PUSH1 0x40 SWAP1 KECCAK256 SLOAD PUSH1 0xFF DUP1 DUP3 AND SWAP2 PUSH2 0x100 DUP2 DIV DUP3 AND SWAP2 PUSH3 0x10000 DUP3 DIV DUP2 AND SWAP2 PUSH4 0x1000000 DUP2 DIV DUP3 AND SWAP2 PUSH1 0x1 PUSH1 0x20 SHL DUP3 DIV DUP2 AND SWAP2 PUSH1 0x1 PUSH1 0x28 SHL SWAP1 DIV AND DUP7 JUMP JUMPDEST PUSH1 0x40 DUP1 MLOAD SWAP7 ISZERO ISZERO DUP8 MSTORE SWAP5 ISZERO ISZERO PUSH1 0x20 DUP8 ADD MSTORE SWAP3 ISZERO ISZERO SWAP4 DUP6 ADD SWAP4 SWAP1 SWAP4 MSTORE ISZERO ISZERO PUSH1 0x60 DUP5 ADD MSTORE SWAP1 ISZERO ISZERO PUSH1 0x80 DUP4 ADD MSTORE ISZERO ISZERO PUSH1 0xA0 DUP3 ADD MSTORE PUSH1 0xC0 ADD PUSH2 0x2E5 JUMP JUMPDEST PUSH2 0x5D2 PUSH2 0x2235 JUMP JUMPDEST PUSH2 0x2D9 PUSH2 0x6A7 CALLDATASIZE PUSH1 0x4 PUSH2 0x4797 JUMP JUMPDEST PUSH2 0x2851 JUMP JUMPDEST PUSH0 SLOAD PUSH2 0x33A SWAP1 PUSH1 0x1 PUSH1 0x1 PUSH1 0xA0 SHL SUB AND DUP2 JUMP JUMPDEST PUSH2 0x2D9 PUSH2 0x6CC CALLDATASIZE PUSH1 0x4 PUSH2 0x4797 JUMP JUMPDEST PUSH2 0x28A3 JUMP JUMPDEST PUSH2 0x2D9 PUSH2 0x6DF CALLDATASIZE PUSH1 0x4 PUSH2 0x4797 JUMP JUMPDEST PUSH2 0x2A75 JUMP JUMPDEST PUSH2 0x2D9 PUSH2 0x6F2 CALLDATASIZE PUSH1 0x4 PUSH2 0x4C92 JUMP JUMPDEST PUSH2 0x2B0F JUMP JUMPDEST PUSH2 0x2CF PUSH2 0x705 CALLDATASIZE PUSH1 0x4 PUSH2 0x4D10 JUMP JUMPDEST PUSH2 0x2C11 JUMP JUMPDEST PUSH2 0x2D9 PUSH2 0x718 CALLDATASIZE PUSH1 0x4 PUSH2 0x4797 JUMP JUMPDEST PUSH1 0x1 PUSH1 0x20 MSTORE PUSH0 SWAP1 DUP2 MSTORE PUSH1 0x40 SWAP1 KECCAK256 SLOAD PUSH1 0xFF AND DUP2 JUMP JUMPDEST PUSH2 0x35A PUSH2 0x2F1D JUMP JUMPDEST PUSH2 0x33A PUSH2 0x742 CALLDATASIZE PUSH1 0x4 PUSH2 0x47B7 JUMP JUMPDEST PUSH2 0x2FA9 JUMP JUMPDEST PUSH2 0x75A PUSH2 0x755 CALLDATASIZE PUSH1 0x4 PUSH2 0x48C2 JUMP JUMPDEST PUSH2 0x2FB8 JUMP JUMPDEST PUSH1 0x40 DUP1 MLOAD PUSH1 0xFF SWAP1 SWAP5 AND DUP5 MSTORE PUSH1 0x20 DUP5 ADD SWAP3 SWAP1 SWAP3 MSTORE PUSH1 0x1 PUSH1 0x1 PUSH1 0xA0 SHL SUB AND SWAP1 DUP3 ADD MSTORE PUSH1 0x60 ADD PUSH2 0x2E5 JUMP JUMPDEST PUSH2 0x2CF PUSH2 0x790 CALLDATASIZE PUSH1 0x4 PUSH2 0x4E3F JUMP JUMPDEST PUSH2 0x3003 JUMP JUMPDEST PUSH2 0x79D PUSH2 0x34E2 JUMP JUMPDEST PUSH1 0x40 MLOAD PUSH2 0x2E5 SWAP3 SWAP2 SWAP1 PUSH2 0x4EDC JUMP JUMPDEST PUSH2 0x2D9 PUSH2 0x7B9 CALLDATASIZE PUSH1 0x4 PUSH2 0x4797 JUMP JUMPDEST PUSH2 0x3913 JUMP JUMPDEST PUSH2 0x2D9 PUSH2 0x7CC CALLDATASIZE PUSH1 0x4 PUSH2 0x4797 JUMP JUMPDEST PUSH2 0x391A JUMP JUMPDEST PUSH2 0x2D9 PUSH2 0x7DF CALLDATASIZE PUSH1 0x4 PUSH2 0x4797 JUMP JUMPDEST PUSH1 0x2 PUSH1 0x20 MSTORE PUSH0 SWAP1 DUP2 MSTORE PUSH1 0x40 SWAP1 KECCAK256 SLOAD PUSH1 0xFF AND DUP2 JUMP JUMPDEST PUSH2 0x2D9 PUSH2 0x801 CALLDATASIZE PUSH1 0x4 PUSH2 0x506B JUMP JUMPDEST PUSH2 0x3922 JUMP JUMPDEST PUSH2 0x2D9 PUSH2 0x814 CALLDATASIZE PUSH1 0x4 PUSH2 0x4C92 JUMP JUMPDEST PUSH2 0x3C90 JUMP JUMPDEST PUSH1 0xD SLOAD PUSH2 0x33A SWAP1 PUSH1 0x1 PUSH1 0x1 PUSH1 0xA0 SHL SUB AND DUP2 JUMP JUMPDEST PUSH2 0x2D9 PUSH2 0x83A CALLDATASIZE PUSH1 0x4 PUSH2 0x50A4 JUMP JUMPDEST PUSH2 0x3E01 JUMP JUMPDEST PUSH2 0x33A PUSH2 0x84D CALLDATASIZE PUSH1 0x4 PUSH2 0x4797 JUMP JUMPDEST PUSH1 0x1 PUSH1 0x1 PUSH1 0xA0 SHL SUB SWAP1 DUP2 AND PUSH0 SWAP1 DUP2 MSTORE PUSH1 0x5 PUSH1 0x20 MSTORE PUSH1 0x40 SWAP1 KECCAK256 PUSH1 0x9 ADD SLOAD AND SWAP1 JUMP JUMPDEST PUSH2 0x2CF PUSH2 0x87B CALLDATASIZE PUSH1 0x4 PUSH2 0x526B JUMP JUMPDEST PUSH2 0x3FF9 JUMP JUMPDEST PUSH1 0xA SLOAD PUSH2 0x33A SWAP1 PUSH1 0x1 PUSH1 0x1 PUSH1 0xA0 SHL SUB AND DUP2 JUMP JUMPDEST PUSH2 0x33A PUSH2 0x8A1 CALLDATASIZE PUSH1 0x4 PUSH2 0x47B7 JUMP JUMPDEST PUSH2 0x4146 JUMP JUMPDEST PUSH2 0x2CF PUSH2 0x8B4 CALLDATASIZE PUSH1 0x4 PUSH2 0x52BD JUMP JUMPDEST PUSH2 0x4155 JUMP JUMPDEST CALLER PUSH0 SWAP1 DUP2 MSTORE PUSH1 0x5 PUSH1 0x20 MSTORE PUSH1 0x40 DUP2 KECCAK256 DUP1 SLOAD PUSH1 0x1 PUSH1 0x1 PUSH1 0xA0 SHL SUB NOT AND DUP2 SSTORE DUP2 PUSH2 0x8E3 PUSH1 0x1 DUP4 ADD DUP3 PUSH2 0x43F1 JUMP JUMPDEST PUSH2 0x8F0 PUSH1 0x2 DUP4 ADD PUSH0 PUSH2 0x43F1 JUMP JUMPDEST PUSH1 0x3 DUP3 ADD DUP1 SLOAD PUSH1 0xFF NOT AND SWAP1 SSTORE PUSH0 PUSH1 0x4 DUP4 ADD DUP2 SWAP1 SSTORE PUSH2 0x912 SWAP1 PUSH1 0x5 DUP5 ADD SWAP1 PUSH2 0x43F1 JUMP JUMPDEST PUSH2 0x91F PUSH1 0x6 DUP4 ADD PUSH0 PUSH2 0x43F1 JUMP JUMPDEST POP PUSH1 0x7 DUP2 ADD DUP1 SLOAD PUSH1 0xFF NOT AND SWAP1 SSTORE PUSH0 PUSH1 0x8 DUP3 ADD DUP2 SWAP1 SSTORE PUSH1 0x9 SWAP1 SWAP2 ADD DUP1 SLOAD PUSH1 0x1 PUSH1 0x1 PUSH1 0xA0 SHL SUB NOT AND SWAP1 SSTORE CALLER DUP2 MSTORE PUSH1 0x6 PUSH1 0x20 MSTORE PUSH1 0x40 DUP2 KECCAK256 PUSH2 0x95C SWAP2 PUSH2 0x442B JUMP JUMPDEST PUSH0 JUMPDEST PUSH1 0x9 SLOAD DUP2 LT ISZERO PUSH2 0xA4E JUMPI CALLER PUSH1 0x1 PUSH1 0x1 PUSH1 0xA0 SHL SUB AND PUSH1 0x9 DUP3 DUP2 SLOAD DUP2 LT PUSH2 0x985 JUMPI PUSH2 0x985 PUSH2 0x52DF JUMP JUMPDEST PUSH0 SWAP2 DUP3 MSTORE PUSH1 0x20 SWAP1 SWAP2 KECCAK256 ADD SLOAD PUSH1 0x1 PUSH1 0x1 PUSH1 0xA0 SHL SUB AND SUB PUSH2 0xA46 JUMPI PUSH1 0x9 DUP1 SLOAD PUSH2 0x9AE SWAP1 PUSH1 0x1 SWAP1 PUSH2 0x5307 JUMP JUMPDEST DUP2 SLOAD DUP2 LT PUSH2 0x9BE JUMPI PUSH2 0x9BE PUSH2 0x52DF JUMP JUMPDEST PUSH0 SWAP2 DUP3 MSTORE PUSH1 0x20 SWAP1 SWAP2 KECCAK256 ADD SLOAD PUSH1 0x9 DUP1 SLOAD PUSH1 0x1 PUSH1 0x1 PUSH1 0xA0 SHL SUB SWAP1 SWAP3 AND SWAP2 DUP4 SWAP1 DUP2 LT PUSH2 0x9E9 JUMPI PUSH2 0x9E9 PUSH2 0x52DF JUMP JUMPDEST SWAP1 PUSH0 MSTORE PUSH1 0x20 PUSH0 KECCAK256 ADD PUSH0 PUSH2 0x100 EXP DUP2 SLOAD DUP2 PUSH1 0x1 PUSH1 0x1 PUSH1 0xA0 SHL SUB MUL NOT AND SWAP1 DUP4 PUSH1 0x1 PUSH1 0x1 PUSH1 0xA0 SHL SUB AND MUL OR SWAP1 SSTORE POP PUSH1 0x9 DUP1 SLOAD DUP1 PUSH2 0xA25 JUMPI PUSH2 0xA25 PUSH2 0x531A JUMP JUMPDEST PUSH0 DUP3 DUP2 MSTORE PUSH1 0x20 SWAP1 KECCAK256 DUP2 ADD PUSH0 NOT SWAP1 DUP2 ADD DUP1 SLOAD PUSH1 0x1 PUSH1 0x1 PUSH1 0xA0 SHL SUB NOT AND SWAP1 SSTORE ADD SWAP1 SSTORE JUMPDEST PUSH1 0x1 ADD PUSH2 0x95E JUMP JUMPDEST POP PUSH1 0x1 SWAP1 POP SWAP1 JUMP JUMPDEST CALLER PUSH0 SWAP1 DUP2 MSTORE PUSH1 0x5 PUSH1 0x20 MSTORE PUSH1 0x40 DUP2 KECCAK256 PUSH1 0x6 ADD PUSH2 0xA72 DUP4 DUP6 DUP4 PUSH2 0x53C0 JUMP JUMPDEST POP PUSH1 0x1 SWAP1 POP JUMPDEST SWAP3 SWAP2 POP POP JUMP JUMPDEST PUSH0 DUP1 SLOAD PUSH1 0x1 PUSH1 0x1 PUSH1 0xA0 SHL SUB AND CALLER DUP2 EQ PUSH2 0xAB2 JUMPI PUSH1 0x40 MLOAD PUSH3 0x461BCD PUSH1 0xE5 SHL DUP2 MSTORE PUSH1 0x4 ADD PUSH2 0xAA9 SWAP1 PUSH2 0x5474 JUMP JUMPDEST PUSH1 0x40 MLOAD DUP1 SWAP2 SUB SWAP1 REVERT JUMPDEST PUSH1 0x2 CALLER PUSH0 SWAP1 DUP2 MSTORE PUSH1 0x5 PUSH1 0x20 MSTORE PUSH1 0x40 SWAP1 KECCAK256 PUSH1 0x7 ADD SLOAD PUSH1 0xFF AND PUSH1 0x3 DUP2 GT ISZERO PUSH2 0xADA JUMPI PUSH2 0xADA PUSH2 0x4956 JUMP JUMPDEST SUB PUSH2 0xB60 JUMPI PUSH1 0x40 MLOAD PUSH3 0x461BCD PUSH1 0xE5 SHL DUP2 MSTORE PUSH1 0x20 PUSH1 0x4 DUP3 ADD MSTORE PUSH1 0x5E PUSH1 0x24 DUP3 ADD MSTORE PUSH0 DUP1 MLOAD PUSH1 0x20 PUSH2 0x5A90 DUP4 CODECOPY DUP2 MLOAD SWAP2 MSTORE PUSH1 0x44 DUP3 ADD MSTORE PUSH32 0x312C20226D657373616765223A2022546865207573657220697320616C726561 PUSH1 0x64 DUP3 ADD MSTORE PUSH32 0x6479207265676973746572656420617320612072657461696C65722E227D0000 PUSH1 0x84 DUP3 ADD MSTORE PUSH1 0xA4 ADD PUSH2 0xAA9 JUMP JUMPDEST PUSH32 0xF59B872B58A4B9C40138EF35EA4F4F2EF4210F22BE84A47A65205B6779E6FE88 DUP5 CALLER DUP6 PUSH1 0x40 MLOAD PUSH2 0xB93 SWAP4 SWAP3 SWAP2 SWAP1 PUSH2 0x54CD JUMP JUMPDEST PUSH1 0x40 MLOAD DUP1 SWAP2 SUB SWAP1 LOG1 CALLER PUSH0 SWAP1 DUP2 MSTORE PUSH1 0x5 PUSH1 0x20 MSTORE PUSH1 0x40 SWAP1 KECCAK256 PUSH1 0x1 ADD PUSH2 0xBB6 DUP6 DUP3 PUSH2 0x550A JUMP JUMPDEST POP CALLER PUSH0 SWAP1 DUP2 MSTORE PUSH1 0x5 PUSH1 0x20 DUP2 SWAP1 MSTORE PUSH1 0x40 SWAP1 SWAP2 KECCAK256 ADD PUSH2 0xBD3 DUP5 DUP3 PUSH2 0x550A JUMP JUMPDEST POP POP CALLER PUSH0 DUP2 DUP2 MSTORE PUSH1 0x5 PUSH1 0x20 MSTORE PUSH1 0x40 DUP2 KECCAK256 PUSH1 0x7 DUP2 ADD DUP1 SLOAD PUSH1 0xFF NOT AND PUSH1 0x2 OR SWAP1 SSTORE DUP1 SLOAD PUSH1 0x1 PUSH1 0x1 PUSH1 0xA0 SHL SUB NOT SWAP1 DUP2 AND DUP5 OR DUP3 SSTORE TIMESTAMP PUSH1 0x8 SWAP1 SWAP3 ADD SWAP2 SWAP1 SWAP2 SSTORE PUSH1 0x9 DUP1 SLOAD PUSH1 0x1 DUP2 DUP2 ADD DUP4 SSTORE SWAP2 SWAP1 SWAP4 MSTORE PUSH0 DUP1 MLOAD PUSH1 0x20 PUSH2 0x5B88 DUP4 CODECOPY DUP2 MLOAD SWAP2 MSTORE SWAP1 SWAP3 ADD DUP1 SLOAD SWAP1 SWAP2 AND SWAP1 SWAP3 OR SWAP1 SWAP2 SSTORE SWAP4 SWAP3 POP POP POP JUMP JUMPDEST PUSH0 DUP1 SLOAD PUSH1 0x1 PUSH1 0x1 PUSH1 0xA0 SHL SUB AND CALLER DUP2 EQ PUSH2 0xC6B JUMPI PUSH1 0x40 MLOAD PUSH3 0x461BCD PUSH1 0xE5 SHL DUP2 MSTORE PUSH1 0x4 ADD PUSH2 0xAA9 SWAP1 PUSH2 0x5474 JUMP JUMPDEST PUSH1 0x1 PUSH1 0x1 PUSH1 0xA0 SHL SUB DUP4 AND PUSH0 SWAP1 DUP2 MSTORE PUSH1 0x2 PUSH1 0x20 MSTORE PUSH1 0x40 DUP2 KECCAK256 DUP1 SLOAD PUSH1 0xFF NOT AND SWAP1 SSTORE JUMPDEST PUSH1 0x4 SLOAD DUP2 LT ISZERO PUSH2 0xD7F JUMPI DUP4 PUSH1 0x1 PUSH1 0x1 PUSH1 0xA0 SHL SUB AND PUSH1 0x4 DUP3 DUP2 SLOAD DUP2 LT PUSH2 0xCB2 JUMPI PUSH2 0xCB2 PUSH2 0x52DF JUMP JUMPDEST PUSH0 SWAP2 DUP3 MSTORE PUSH1 0x20 SWAP1 SWAP2 KECCAK256 ADD SLOAD PUSH1 0x1 PUSH1 0x1 PUSH1 0xA0 SHL SUB AND SUB PUSH2 0xD77 JUMPI PUSH1 0x4 DUP1 SLOAD PUSH2 0xCDB SWAP1 PUSH1 0x1 SWAP1 PUSH2 0x5307 JUMP JUMPDEST DUP2 SLOAD DUP2 LT PUSH2 0xCEB JUMPI PUSH2 0xCEB PUSH2 0x52DF JUMP JUMPDEST PUSH0 SWAP2 DUP3 MSTORE PUSH1 0x20 SWAP1 SWAP2 KECCAK256 ADD SLOAD PUSH1 0x4 DUP1 SLOAD PUSH1 0x1 PUSH1 0x1 PUSH1 0xA0 SHL SUB SWAP1 SWAP3 AND SWAP2 DUP4 SWAP1 DUP2 LT PUSH2 0xD16 JUMPI PUSH2 0xD16 PUSH2 0x52DF JUMP JUMPDEST SWAP1 PUSH0 MSTORE PUSH1 0x20 PUSH0 KECCAK256 ADD PUSH0 PUSH2 0x100 EXP DUP2 SLOAD DUP2 PUSH1 0x1 PUSH1 0x1 PUSH1 0xA0 SHL SUB MUL NOT AND SWAP1 DUP4 PUSH1 0x1 PUSH1 0x1 PUSH1 0xA0 SHL SUB AND MUL OR SWAP1 SSTORE POP PUSH1 0x4 DUP1 SLOAD DUP1 PUSH2 0xD52 JUMPI PUSH2 0xD52 PUSH2 0x531A JUMP JUMPDEST PUSH0 DUP3 DUP2 MSTORE PUSH1 0x20 SWAP1 KECCAK256 DUP2 ADD PUSH0 NOT SWAP1 DUP2 ADD DUP1 SLOAD PUSH1 0x1 PUSH1 0x1 PUSH1 0xA0 SHL SUB NOT AND SWAP1 SSTORE ADD SWAP1 SSTORE PUSH2 0xD7F JUMP JUMPDEST PUSH1 0x1 ADD PUSH2 0xC8B JUMP JUMPDEST POP PUSH1 0x1 SWAP2 POP JUMPDEST POP SWAP2 SWAP1 POP JUMP JUMPDEST PUSH1 0x3 DUP2 DUP2 SLOAD DUP2 LT PUSH2 0xD9A JUMPI PUSH0 DUP1 REVERT JUMPDEST PUSH0 SWAP2 DUP3 MSTORE PUSH1 0x20 SWAP1 SWAP2 KECCAK256 ADD SLOAD PUSH1 0x1 PUSH1 0x1 PUSH1 0xA0 SHL SUB AND SWAP1 POP DUP2 JUMP JUMPDEST PUSH1 0x60 PUSH0 PUSH2 0xDBF DUP5 PUSH2 0x41F3 JUMP JUMPDEST SWAP1 POP DUP1 DUP4 PUSH1 0x40 MLOAD PUSH1 0x20 ADD PUSH2 0xDD4 SWAP3 SWAP2 SWAP1 PUSH2 0x55D6 JUMP JUMPDEST PUSH1 0x40 MLOAD PUSH1 0x20 DUP2 DUP4 SUB SUB DUP2 MSTORE SWAP1 PUSH1 0x40 MSTORE SWAP2 POP POP SWAP3 SWAP2 POP POP JUMP JUMPDEST PUSH0 PUSH1 0x1 CALLER PUSH0 SWAP1 DUP2 MSTORE PUSH1 0x5 PUSH1 0x20 MSTORE PUSH1 0x40 SWAP1 KECCAK256 PUSH1 0x7 ADD SLOAD PUSH1 0xFF AND PUSH1 0x3 DUP2 GT ISZERO PUSH2 0xE15 JUMPI PUSH2 0xE15 PUSH2 0x4956 JUMP JUMPDEST EQ PUSH2 0xE87 JUMPI PUSH1 0x40 MLOAD PUSH3 0x461BCD PUSH1 0xE5 SHL DUP2 MSTORE PUSH1 0x20 PUSH1 0x4 DUP3 ADD MSTORE PUSH1 0x49 PUSH1 0x24 DUP3 ADD MSTORE PUSH0 DUP1 MLOAD PUSH1 0x20 PUSH2 0x5A90 DUP4 CODECOPY DUP2 MLOAD SWAP2 MSTORE PUSH1 0x44 DUP3 ADD MSTORE PUSH32 0x35312C20226D657373616765223A2022596F7520617265206E6F742061206375 PUSH1 0x64 DUP3 ADD MSTORE PUSH9 0x73746F6D65722E227D PUSH1 0xB8 SHL PUSH1 0x84 DUP3 ADD MSTORE PUSH1 0xA4 ADD PUSH2 0xAA9 JUMP JUMPDEST POP PUSH1 0x40 DUP1 MLOAD PUSH1 0xC0 DUP2 ADD DUP3 MSTORE SWAP5 ISZERO ISZERO DUP6 MSTORE SWAP3 ISZERO ISZERO PUSH1 0x20 DUP1 DUP7 ADD SWAP2 DUP3 MSTORE SWAP3 ISZERO ISZERO DUP6 DUP6 ADD SWAP1 DUP2 MSTORE SWAP2 ISZERO ISZERO PUSH1 0x60 DUP7 ADD SWAP1 DUP2 MSTORE PUSH0 PUSH1 0x80 DUP8 ADD DUP2 DUP2 MSTORE PUSH1 0xA0 DUP9 ADD DUP3 DUP2 MSTORE CALLER DUP4 MSTORE PUSH1 0x7 SWAP1 SWAP7 MSTORE SWAP6 SWAP1 KECCAK256 SWAP6 MLOAD DUP7 SLOAD SWAP3 MLOAD SWAP4 MLOAD SWAP2 MLOAD SWAP6 MLOAD SWAP5 MLOAD PUSH2 0xFFFF NOT SWAP1 SWAP4 AND SWAP1 ISZERO ISZERO PUSH2 0xFF00 NOT AND OR PUSH2 0x100 SWAP4 ISZERO ISZERO SWAP4 SWAP1 SWAP4 MUL SWAP3 SWAP1 SWAP3 OR PUSH4 0xFFFF0000 NOT AND PUSH3 0x10000 SWAP3 ISZERO ISZERO SWAP3 SWAP1 SWAP3 MUL PUSH4 0xFF000000 NOT AND SWAP2 SWAP1 SWAP2 OR PUSH4 0x1000000 SWAP4 ISZERO ISZERO SWAP4 SWAP1 SWAP4 MUL SWAP3 SWAP1 SWAP3 OR PUSH2 0xFFFF PUSH1 0x20 SHL NOT AND PUSH1 0x1 PUSH1 0x20 SHL SWAP2 ISZERO ISZERO SWAP2 SWAP1 SWAP2 MUL PUSH1 0xFF PUSH1 0x28 SHL NOT AND OR PUSH1 0x1 PUSH1 0x28 SHL SWAP2 ISZERO ISZERO SWAP2 SWAP1 SWAP2 MUL OR SWAP1 SSTORE PUSH1 0x1 SWAP1 JUMP JUMPDEST PUSH1 0x6 PUSH1 0x20 MSTORE DUP2 PUSH0 MSTORE PUSH1 0x40 PUSH0 KECCAK256 DUP2 DUP2 SLOAD DUP2 LT PUSH2 0xF71 JUMPI PUSH0 DUP1 REVERT JUMPDEST SWAP1 PUSH0 MSTORE PUSH1 0x20 PUSH0 KECCAK256 SWAP1 PUSH1 0x5 MUL ADD PUSH0 SWAP2 POP SWAP2 POP POP DUP1 PUSH0 ADD DUP1 SLOAD PUSH2 0xF91 SWAP1 PUSH2 0x532E JUMP JUMPDEST DUP1 PUSH1 0x1F ADD PUSH1 0x20 DUP1 SWAP2 DIV MUL PUSH1 0x20 ADD PUSH1 0x40 MLOAD SWAP1 DUP2 ADD PUSH1 0x40 MSTORE DUP1 SWAP3 SWAP2 SWAP1 DUP2 DUP2 MSTORE PUSH1 0x20 ADD DUP3 DUP1 SLOAD PUSH2 0xFBD SWAP1 PUSH2 0x532E JUMP JUMPDEST DUP1 ISZERO PUSH2 0x1008 JUMPI DUP1 PUSH1 0x1F LT PUSH2 0xFDF JUMPI PUSH2 0x100 DUP1 DUP4 SLOAD DIV MUL DUP4 MSTORE SWAP2 PUSH1 0x20 ADD SWAP2 PUSH2 0x1008 JUMP JUMPDEST DUP3 ADD SWAP2 SWAP1 PUSH0 MSTORE PUSH1 0x20 PUSH0 KECCAK256 SWAP1 JUMPDEST DUP2 SLOAD DUP2 MSTORE SWAP1 PUSH1 0x1 ADD SWAP1 PUSH1 0x20 ADD DUP1 DUP4 GT PUSH2 0xFEB JUMPI DUP3 SWAP1 SUB PUSH1 0x1F AND DUP3 ADD SWAP2 JUMPDEST POP POP POP POP POP SWAP1 DUP1 PUSH1 0x1 ADD DUP1 SLOAD PUSH2 0x101D SWAP1 PUSH2 0x532E JUMP JUMPDEST DUP1 PUSH1 0x1F ADD PUSH1 0x20 DUP1 SWAP2 DIV MUL PUSH1 0x20 ADD PUSH1 0x40 MLOAD SWAP1 DUP2 ADD PUSH1 0x40 MSTORE DUP1 SWAP3 SWAP2 SWAP1 DUP2 DUP2 MSTORE PUSH1 0x20 ADD DUP3 DUP1 SLOAD PUSH2 0x1049 SWAP1 PUSH2 0x532E JUMP JUMPDEST DUP1 ISZERO PUSH2 0x1094 JUMPI DUP1 PUSH1 0x1F LT PUSH2 0x106B JUMPI PUSH2 0x100 DUP1 DUP4 SLOAD DIV MUL DUP4 MSTORE SWAP2 PUSH1 0x20 ADD SWAP2 PUSH2 0x1094 JUMP JUMPDEST DUP3 ADD SWAP2 SWAP1 PUSH0 MSTORE PUSH1 0x20 PUSH0 KECCAK256 SWAP1 JUMPDEST DUP2 SLOAD DUP2 MSTORE SWAP1 PUSH1 0x1 ADD SWAP1 PUSH1 0x20 ADD DUP1 DUP4 GT PUSH2 0x1077 JUMPI DUP3 SWAP1 SUB PUSH1 0x1F AND DUP3 ADD SWAP2 JUMPDEST POP POP POP POP POP SWAP1 DUP1 PUSH1 0x2 ADD DUP1 SLOAD PUSH2 0x10A9 SWAP1 PUSH2 0x532E JUMP JUMPDEST DUP1 PUSH1 0x1F ADD PUSH1 0x20 DUP1 SWAP2 DIV MUL PUSH1 0x20 ADD PUSH1 0x40 MLOAD SWAP1 DUP2 ADD PUSH1 0x40 MSTORE DUP1 SWAP3 SWAP2 SWAP1 DUP2 DUP2 MSTORE PUSH1 0x20 ADD DUP3 DUP1 SLOAD PUSH2 0x10D5 SWAP1 PUSH2 0x532E JUMP JUMPDEST DUP1 ISZERO PUSH2 0x1120 JUMPI DUP1 PUSH1 0x1F LT PUSH2 0x10F7 JUMPI PUSH2 0x100 DUP1 DUP4 SLOAD DIV MUL DUP4 MSTORE SWAP2 PUSH1 0x20 ADD SWAP2 PUSH2 0x1120 JUMP JUMPDEST DUP3 ADD SWAP2 SWAP1 PUSH0 MSTORE PUSH1 0x20 PUSH0 KECCAK256 SWAP1 JUMPDEST DUP2 SLOAD DUP2 MSTORE SWAP1 PUSH1 0x1 ADD SWAP1 PUSH1 0x20 ADD DUP1 DUP4 GT PUSH2 0x1103 JUMPI DUP3 SWAP1 SUB PUSH1 0x1F AND DUP3 ADD SWAP2 JUMPDEST POP POP POP POP POP SWAP1 DUP1 PUSH1 0x3 ADD DUP1 SLOAD PUSH2 0x1135 SWAP1 PUSH2 0x532E JUMP JUMPDEST DUP1 PUSH1 0x1F ADD PUSH1 0x20 DUP1 SWAP2 DIV MUL PUSH1 0x20 ADD PUSH1 0x40 MLOAD SWAP1 DUP2 ADD PUSH1 0x40 MSTORE DUP1 SWAP3 SWAP2 SWAP1 DUP2 DUP2 MSTORE PUSH1 0x20 ADD DUP3 DUP1 SLOAD PUSH2 0x1161 SWAP1 PUSH2 0x532E JUMP JUMPDEST DUP1 ISZERO PUSH2 0x11AC JUMPI DUP1 PUSH1 0x1F LT PUSH2 0x1183 JUMPI PUSH2 0x100 DUP1 DUP4 SLOAD DIV MUL DUP4 MSTORE SWAP2 PUSH1 0x20 ADD SWAP2 PUSH2 0x11AC JUMP JUMPDEST DUP3 ADD SWAP2 SWAP1 PUSH0 MSTORE PUSH1 0x20 PUSH0 KECCAK256 SWAP1 JUMPDEST DUP2 SLOAD DUP2 MSTORE SWAP1 PUSH1 0x1 ADD SWAP1 PUSH1 0x20 ADD DUP1 DUP4 GT PUSH2 0x118F JUMPI DUP3 SWAP1 SUB PUSH1 0x1F AND DUP3 ADD SWAP2 JUMPDEST POP POP POP POP POP SWAP1 DUP1 PUSH1 0x4 ADD DUP1 SLOAD PUSH2 0x11C1 SWAP1 PUSH2 0x532E JUMP JUMPDEST DUP1 PUSH1 0x1F ADD PUSH1 0x20 DUP1 SWAP2 DIV MUL PUSH1 0x20 ADD PUSH1 0x40 MLOAD SWAP1 DUP2 ADD PUSH1 0x40 MSTORE DUP1 SWAP3 SWAP2 SWAP1 DUP2 DUP2 MSTORE PUSH1 0x20 ADD DUP3 DUP1 SLOAD PUSH2 0x11ED SWAP1 PUSH2 0x532E JUMP JUMPDEST DUP1 ISZERO PUSH2 0x1238 JUMPI DUP1 PUSH1 0x1F LT PUSH2 0x120F JUMPI PUSH2 0x100 DUP1 DUP4 SLOAD DIV MUL DUP4 MSTORE SWAP2 PUSH1 0x20 ADD SWAP2 PUSH2 0x1238 JUMP JUMPDEST DUP3 ADD SWAP2 SWAP1 PUSH0 MSTORE PUSH1 0x20 PUSH0 KECCAK256 SWAP1 JUMPDEST DUP2 SLOAD DUP2 MSTORE SWAP1 PUSH1 0x1 ADD SWAP1 PUSH1 0x20 ADD DUP1 DUP4 GT PUSH2 0x121B JUMPI DUP3 SWAP1 SUB PUSH1 0x1F AND DUP3 ADD SWAP2 JUMPDEST POP POP POP POP POP SWAP1 POP DUP6 JUMP JUMPDEST CALLER PUSH0 SWAP1 DUP2 MSTORE PUSH1 0x5 PUSH1 0x20 SWAP1 DUP2 MSTORE PUSH1 0x40 DUP1 DUP4 KECCAK256 SLOAD DUP2 MLOAD DUP1 DUP4 ADD SWAP1 SWAP3 MSTORE PUSH1 0x1E DUP3 MSTORE PUSH32 0x55736572206D75737420726567697374657220746F2067657420726F6C650000 SWAP3 DUP3 ADD SWAP3 SWAP1 SWAP3 MSTORE PUSH1 0x1 PUSH1 0x1 PUSH1 0xA0 SHL SUB SWAP1 SWAP2 AND ISZERO ISZERO SWAP1 PUSH2 0x12A2 SWAP1 PUSH1 0x2 SWAP1 PUSH2 0xDB3 JUMP JUMPDEST SWAP1 PUSH2 0x12C0 JUMPI PUSH1 0x40 MLOAD PUSH3 0x461BCD PUSH1 0xE5 SHL DUP2 MSTORE PUSH1 0x4 ADD PUSH2 0xAA9 SWAP2 SWAP1 PUSH2 0x484A JUMP JUMPDEST POP POP PUSH1 0x1 PUSH1 0x1 PUSH1 0xA0 SHL SUB AND PUSH0 SWAP1 DUP2 MSTORE PUSH1 0x5 PUSH1 0x20 MSTORE PUSH1 0x40 SWAP1 KECCAK256 PUSH1 0x7 ADD SLOAD PUSH1 0xFF AND SWAP1 JUMP JUMPDEST PUSH0 DUP1 SLOAD PUSH1 0x1 PUSH1 0x1 PUSH1 0xA0 SHL SUB AND CALLER DUP2 EQ PUSH2 0x130D JUMPI PUSH1 0x40 MLOAD PUSH3 0x461BCD PUSH1 0xE5 SHL DUP2 MSTORE PUSH1 0x4 ADD PUSH2 0xAA9 SWAP1 PUSH2 0x5474 JUMP JUMPDEST PUSH1 0x1 PUSH1 0x1 PUSH1 0xA0 SHL SUB DUP4 AND PUSH0 SWAP1 DUP2 MSTORE PUSH1 0x1 PUSH1 0x20 MSTORE PUSH1 0x40 DUP2 KECCAK256 DUP1 SLOAD PUSH1 0xFF NOT AND SWAP1 SSTORE JUMPDEST PUSH1 0x3 SLOAD DUP2 LT ISZERO PUSH2 0xD7F JUMPI DUP4 PUSH1 0x1 PUSH1 0x1 PUSH1 0xA0 SHL SUB AND PUSH1 0x3 DUP3 DUP2 SLOAD DUP2 LT PUSH2 0x1354 JUMPI PUSH2 0x1354 PUSH2 0x52DF JUMP JUMPDEST PUSH0 SWAP2 DUP3 MSTORE PUSH1 0x20 SWAP1 SWAP2 KECCAK256 ADD SLOAD PUSH1 0x1 PUSH1 0x1 PUSH1 0xA0 SHL SUB AND SUB PUSH2 0x13F4 JUMPI PUSH1 0x3 DUP1 SLOAD PUSH2 0x137D SWAP1 PUSH1 0x1 SWAP1 PUSH2 0x5307 JUMP JUMPDEST DUP2 SLOAD DUP2 LT PUSH2 0x138D JUMPI PUSH2 0x138D PUSH2 0x52DF JUMP JUMPDEST PUSH0 SWAP2 DUP3 MSTORE PUSH1 0x20 SWAP1 SWAP2 KECCAK256 ADD SLOAD PUSH1 0x3 DUP1 SLOAD PUSH1 0x1 PUSH1 0x1 PUSH1 0xA0 SHL SUB SWAP1 SWAP3 AND SWAP2 DUP4 SWAP1 DUP2 LT PUSH2 0x13B8 JUMPI PUSH2 0x13B8 PUSH2 0x52DF JUMP JUMPDEST SWAP1 PUSH0 MSTORE PUSH1 0x20 PUSH0 KECCAK256 ADD PUSH0 PUSH2 0x100 EXP DUP2 SLOAD DUP2 PUSH1 0x1 PUSH1 0x1 PUSH1 0xA0 SHL SUB MUL NOT AND SWAP1 DUP4 PUSH1 0x1 PUSH1 0x1 PUSH1 0xA0 SHL SUB AND MUL OR SWAP1 SSTORE POP PUSH1 0x3 DUP1 SLOAD DUP1 PUSH2 0xD52 JUMPI PUSH2 0xD52 PUSH2 0x531A JUMP JUMPDEST PUSH1 0x1 ADD PUSH2 0x132D JUMP JUMPDEST CALLER PUSH0 SWAP1 DUP2 MSTORE PUSH1 0x8 PUSH1 0x20 SWAP1 DUP2 MSTORE PUSH1 0x40 DUP1 DUP4 KECCAK256 DUP1 SLOAD DUP3 MLOAD DUP2 DUP6 MUL DUP2 ADD DUP6 ADD SWAP1 SWAP4 MSTORE DUP1 DUP4 MSTORE PUSH1 0x60 SWAP5 SWAP3 SWAP4 SWAP2 SWAP3 SWAP1 SWAP2 DUP5 ADD JUMPDEST DUP3 DUP3 LT ISZERO PUSH2 0x1481 JUMPI PUSH0 DUP5 DUP2 MSTORE PUSH1 0x20 SWAP1 DUP2 SWAP1 KECCAK256 PUSH1 0x40 DUP1 MLOAD PUSH1 0x60 DUP2 ADD DUP3 MSTORE PUSH1 0x3 DUP7 MUL SWAP1 SWAP3 ADD DUP1 SLOAD PUSH1 0xFF AND DUP4 MSTORE PUSH1 0x1 DUP1 DUP3 ADD SLOAD DUP5 DUP7 ADD MSTORE PUSH1 0x2 SWAP1 SWAP2 ADD SLOAD PUSH1 0x1 PUSH1 0x1 PUSH1 0xA0 SHL SUB AND SWAP2 DUP4 ADD SWAP2 SWAP1 SWAP2 MSTORE SWAP1 DUP4 MSTORE SWAP1 SWAP3 ADD SWAP2 ADD PUSH2 0x142A JUMP JUMPDEST POP POP POP POP SWAP1 POP SWAP1 JUMP JUMPDEST PUSH0 DUP1 SLOAD PUSH1 0x1 PUSH1 0x1 PUSH1 0xA0 SHL SUB AND CALLER DUP2 EQ PUSH2 0x14B5 JUMPI PUSH1 0x40 MLOAD PUSH3 0x461BCD PUSH1 0xE5 SHL DUP2 MSTORE PUSH1 0x4 ADD PUSH2 0xAA9 SWAP1 PUSH2 0x5474 JUMP JUMPDEST PUSH1 0xB DUP1 SLOAD PUSH1 0x1 PUSH1 0x1 PUSH1 0xA0 SHL SUB DUP6 AND PUSH1 0x1 PUSH1 0x1 PUSH1 0xA0 SHL SUB NOT SWAP1 SWAP2 AND OR SWAP1 SSTORE PUSH1 0x1 SWAP2 POP POP SWAP2 SWAP1 POP JUMP JUMPDEST PUSH0 PUSH2 0x14E6 DUP5 PUSH2 0x41F3 JUMP JUMPDEST SWAP1 POP PUSH2 0x15A4 DUP2 PUSH1 0x40 MLOAD PUSH1 0x20 ADD PUSH2 0x14FC SWAP2 SWAP1 PUSH2 0x5651 JUMP JUMPDEST PUSH1 0x40 DUP1 MLOAD PUSH1 0x1F NOT DUP2 DUP5 SUB ADD DUP2 MSTORE PUSH1 0xC0 DUP4 ADD SWAP1 SWAP2 MSTORE PUSH1 0x86 DUP1 DUP4 MSTORE SWAP1 SWAP2 SWAP1 PUSH2 0x592D PUSH1 0x20 DUP4 ADD CODECOPY PUSH1 0x9 DUP1 SLOAD DUP1 PUSH1 0x20 MUL PUSH1 0x20 ADD PUSH1 0x40 MLOAD SWAP1 DUP2 ADD PUSH1 0x40 MSTORE DUP1 SWAP3 SWAP2 SWAP1 DUP2 DUP2 MSTORE PUSH1 0x20 ADD DUP3 DUP1 SLOAD DUP1 ISZERO PUSH2 0x1574 JUMPI PUSH1 0x20 MUL DUP3 ADD SWAP2 SWAP1 PUSH0 MSTORE PUSH1 0x20 PUSH0 KECCAK256 SWAP1 JUMPDEST DUP2 SLOAD PUSH1 0x1 PUSH1 0x1 PUSH1 0xA0 SHL SUB AND DUP2 MSTORE PUSH1 0x1 SWAP1 SWAP2 ADD SWAP1 PUSH1 0x20 ADD DUP1 DUP4 GT PUSH2 0x1556 JUMPI JUMPDEST POP POP POP POP POP PUSH1 0x40 MLOAD DUP1 PUSH1 0x40 ADD PUSH1 0x40 MSTORE DUP1 PUSH1 0xD DUP2 MSTORE PUSH1 0x20 ADD PUSH13 0x10DC99585D19541C9BD91D58DD PUSH1 0x9A SHL DUP2 MSTORE POP PUSH2 0x3003 JUMP JUMPDEST PUSH2 0x1608 DUP2 PUSH1 0x40 MLOAD PUSH1 0x20 ADD PUSH2 0x15B8 SWAP2 SWAP1 PUSH2 0x567D JUMP JUMPDEST PUSH1 0x40 DUP1 MLOAD PUSH1 0x1F NOT DUP2 DUP5 SUB ADD DUP2 MSTORE PUSH1 0xA0 DUP4 ADD SWAP1 SWAP2 MSTORE PUSH1 0x7B DUP1 DUP4 MSTORE SWAP1 SWAP2 SWAP1 PUSH2 0x59B3 PUSH1 0x20 DUP4 ADD CODECOPY DUP5 PUSH1 0x40 MLOAD DUP1 PUSH1 0x40 ADD PUSH1 0x40 MSTORE DUP1 PUSH1 0xD DUP2 MSTORE PUSH1 0x20 ADD PUSH13 0x10DC99585D19541C9BD91D58DD PUSH1 0x9A SHL DUP2 MSTORE POP PUSH2 0x2C11 JUMP JUMPDEST PUSH2 0x1677 DUP2 PUSH1 0x40 MLOAD PUSH1 0x20 ADD PUSH2 0x161C SWAP2 SWAP1 PUSH2 0x567D JUMP JUMPDEST PUSH1 0x40 DUP1 MLOAD PUSH1 0x1F NOT DUP2 DUP5 SUB ADD DUP2 MSTORE PUSH1 0xA0 DUP4 ADD SWAP1 SWAP2 MSTORE PUSH1 0x77 DUP1 DUP4 MSTORE SWAP1 SWAP2 SWAP1 PUSH2 0x5AB0 PUSH1 0x20 DUP4 ADD CODECOPY PUSH0 SLOAD PUSH1 0x40 DUP1 MLOAD DUP1 DUP3 ADD SWAP1 SWAP2 MSTORE PUSH1 0xD DUP2 MSTORE PUSH13 0x10DC99585D19541C9BD91D58DD PUSH1 0x9A SHL PUSH1 0x20 DUP3 ADD MSTORE PUSH1 0x1 PUSH1 0x1 PUSH1 0xA0 SHL SUB SWAP1 SWAP2 AND SWAP1 PUSH2 0x2C11 JUMP JUMPDEST DUP3 ISZERO PUSH2 0x173E JUMPI PUSH2 0x173E DUP2 PUSH1 0x40 MLOAD PUSH1 0x20 ADD PUSH2 0x1691 SWAP2 SWAP1 PUSH2 0x56AD JUMP JUMPDEST PUSH1 0x40 DUP1 MLOAD PUSH1 0x1F NOT DUP2 DUP5 SUB ADD DUP2 MSTORE PUSH1 0x80 DUP4 ADD SWAP1 SWAP2 MSTORE PUSH1 0x47 DUP1 DUP4 MSTORE SWAP1 SWAP2 SWAP1 PUSH2 0x58E6 PUSH1 0x20 DUP4 ADD CODECOPY PUSH1 0x9 DUP1 SLOAD DUP1 PUSH1 0x20 MUL PUSH1 0x20 ADD PUSH1 0x40 MLOAD SWAP1 DUP2 ADD PUSH1 0x40 MSTORE DUP1 SWAP3 SWAP2 SWAP1 DUP2 DUP2 MSTORE PUSH1 0x20 ADD DUP3 DUP1 SLOAD DUP1 ISZERO PUSH2 0x1709 JUMPI PUSH1 0x20 MUL DUP3 ADD SWAP2 SWAP1 PUSH0 MSTORE PUSH1 0x20 PUSH0 KECCAK256 SWAP1 JUMPDEST DUP2 SLOAD PUSH1 0x1 PUSH1 0x1 PUSH1 0xA0 SHL SUB AND DUP2 MSTORE PUSH1 0x1 SWAP1 SWAP2 ADD SWAP1 PUSH1 0x20 ADD DUP1 DUP4 GT PUSH2 0x16EB JUMPI JUMPDEST POP POP POP POP POP PUSH1 0x40 MLOAD DUP1 PUSH1 0x40 ADD PUSH1 0x40 MSTORE DUP1 PUSH1 0x12 DUP2 MSTORE PUSH1 0x20 ADD PUSH18 0x50726F6D6F74696F6E616C50726F6772616D PUSH1 0x70 SHL DUP2 MSTORE POP PUSH2 0x3003 JUMP JUMPDEST POP POP POP POP JUMP JUMPDEST PUSH0 DUP1 SLOAD PUSH1 0x1 PUSH1 0x1 PUSH1 0xA0 SHL SUB AND CALLER DUP2 EQ PUSH2 0x176F JUMPI PUSH1 0x40 MLOAD PUSH3 0x461BCD PUSH1 0xE5 SHL DUP2 MSTORE PUSH1 0x4 ADD PUSH2 0xAA9 SWAP1 PUSH2 0x5474 JUMP JUMPDEST PUSH1 0xC DUP1 SLOAD PUSH1 0x1 PUSH1 0x1 PUSH1 0xA0 SHL SUB DUP6 AND PUSH1 0x1 PUSH1 0x1 PUSH1 0xA0 SHL SUB NOT SWAP1 SWAP2 AND OR SWAP1 SSTORE PUSH1 0x1 SWAP2 POP POP SWAP2 SWAP1 POP JUMP JUMPDEST PUSH0 DUP1 SLOAD PUSH1 0x1 PUSH1 0x1 PUSH1 0xA0 SHL SUB AND CALLER DUP2 EQ PUSH2 0x17C1 JUMPI PUSH1 0x40 MLOAD PUSH3 0x461BCD PUSH1 0xE5 SHL DUP2 MSTORE PUSH1 0x4 ADD PUSH2 0xAA9 SWAP1 PUSH2 0x5474 JUMP JUMPDEST PUSH2 0x17CC DUP4 PUSH1 0x2 PUSH2 0x4283 JUMP JUMPDEST POP PUSH1 0x1 SWAP3 SWAP2 POP POP JUMP JUMPDEST PUSH0 DUP1 SLOAD PUSH1 0x1 PUSH1 0x1 PUSH1 0xA0 SHL SUB AND CALLER DUP2 EQ PUSH2 0x1800 JUMPI PUSH1 0x40 MLOAD PUSH3 0x461BCD PUSH1 0xE5 SHL DUP2 MSTORE PUSH1 0x4 ADD PUSH2 0xAA9 SWAP1 PUSH2 0x5474 JUMP JUMPDEST PUSH1 0xA DUP1 SLOAD PUSH1 0x1 PUSH1 0x1 PUSH1 0xA0 SHL SUB DUP6 AND PUSH1 0x1 PUSH1 0x1 PUSH1 0xA0 SHL SUB NOT SWAP1 SWAP2 AND OR SWAP1 SSTORE PUSH1 0x1 SWAP2 POP POP SWAP2 SWAP1 POP JUMP JUMPDEST PUSH1 0x1 PUSH1 0x1 PUSH1 0xA0 SHL SUB DUP2 AND PUSH0 SWAP1 DUP2 MSTORE PUSH1 0x8 PUSH1 0x20 SWAP1 DUP2 MSTORE PUSH1 0x40 DUP1 DUP4 KECCAK256 DUP1 SLOAD DUP3 MLOAD DUP2 DUP6 MUL DUP2 ADD DUP6 ADD SWAP1 SWAP4 MSTORE DUP1 DUP4 MSTORE PUSH1 0x60 SWAP5 SWAP3 SWAP4 SWAP2 SWAP3 SWAP1 SWAP2 DUP5 ADD JUMPDEST DUP3 DUP3 LT ISZERO PUSH2 0x18B5 JUMPI PUSH0 DUP5 DUP2 MSTORE PUSH1 0x20 SWAP1 DUP2 SWAP1 KECCAK256 PUSH1 0x40 DUP1 MLOAD PUSH1 0x60 DUP2 ADD DUP3 MSTORE PUSH1 0x3 DUP7 MUL SWAP1 SWAP3 ADD DUP1 SLOAD PUSH1 0xFF AND DUP4 MSTORE PUSH1 0x1 DUP1 DUP3 ADD SLOAD DUP5 DUP7 ADD MSTORE PUSH1 0x2 SWAP1 SWAP2 ADD SLOAD PUSH1 0x1 PUSH1 0x1 PUSH1 0xA0 SHL SUB AND SWAP2 DUP4 ADD SWAP2 SWAP1 SWAP2 MSTORE SWAP1 DUP4 MSTORE SWAP1 SWAP3 ADD SWAP2 ADD PUSH2 0x185E JUMP JUMPDEST POP POP POP POP SWAP1 POP SWAP2 SWAP1 POP JUMP JUMPDEST PUSH1 0x5 PUSH1 0x20 MSTORE PUSH0 SWAP1 DUP2 MSTORE PUSH1 0x40 SWAP1 KECCAK256 DUP1 SLOAD PUSH1 0x1 DUP3 ADD DUP1 SLOAD PUSH1 0x1 PUSH1 0x1 PUSH1 0xA0 SHL SUB SWAP1 SWAP3 AND SWAP3 SWAP2 PUSH2 0x18EB SWAP1 PUSH2 0x532E JUMP JUMPDEST DUP1 PUSH1 0x1F ADD PUSH1 0x20 DUP1 SWAP2 DIV MUL PUSH1 0x20 ADD PUSH1 0x40 MLOAD SWAP1 DUP2 ADD PUSH1 0x40 MSTORE DUP1 SWAP3 SWAP2 SWAP1 DUP2 DUP2 MSTORE PUSH1 0x20 ADD DUP3 DUP1 SLOAD PUSH2 0x1917 SWAP1 PUSH2 0x532E JUMP JUMPDEST DUP1 ISZERO PUSH2 0x1962 JUMPI DUP1 PUSH1 0x1F LT PUSH2 0x1939 JUMPI PUSH2 0x100 DUP1 DUP4 SLOAD DIV MUL DUP4 MSTORE SWAP2 PUSH1 0x20 ADD SWAP2 PUSH2 0x1962 JUMP JUMPDEST DUP3 ADD SWAP2 SWAP1 PUSH0 MSTORE PUSH1 0x20 PUSH0 KECCAK256 SWAP1 JUMPDEST DUP2 SLOAD DUP2 MSTORE SWAP1 PUSH1 0x1 ADD SWAP1 PUSH1 0x20 ADD DUP1 DUP4 GT PUSH2 0x1945 JUMPI DUP3 SWAP1 SUB PUSH1 0x1F AND DUP3 ADD SWAP2 JUMPDEST POP POP POP POP POP SWAP1 DUP1 PUSH1 0x2 ADD DUP1 SLOAD PUSH2 0x1977 SWAP1 PUSH2 0x532E JUMP JUMPDEST DUP1 PUSH1 0x1F ADD PUSH1 0x20 DUP1 SWAP2 DIV MUL PUSH1 0x20 ADD PUSH1 0x40 MLOAD SWAP1 DUP2 ADD PUSH1 0x40 MSTORE DUP1 SWAP3 SWAP2 SWAP1 DUP2 DUP2 MSTORE PUSH1 0x20 ADD DUP3 DUP1 SLOAD PUSH2 0x19A3 SWAP1 PUSH2 0x532E JUMP JUMPDEST DUP1 ISZERO PUSH2 0x19EE JUMPI DUP1 PUSH1 0x1F LT PUSH2 0x19C5 JUMPI PUSH2 0x100 DUP1 DUP4 SLOAD DIV MUL DUP4 MSTORE SWAP2 PUSH1 0x20 ADD SWAP2 PUSH2 0x19EE JUMP JUMPDEST DUP3 ADD SWAP2 SWAP1 PUSH0 MSTORE PUSH1 0x20 PUSH0 KECCAK256 SWAP1 JUMPDEST DUP2 SLOAD DUP2 MSTORE SWAP1 PUSH1 0x1 ADD SWAP1 PUSH1 0x20 ADD DUP1 DUP4 GT PUSH2 0x19D1 JUMPI DUP3 SWAP1 SUB PUSH1 0x1F AND DUP3 ADD SWAP2 JUMPDEST POP POP POP POP PUSH1 0x3 DUP4 ADD SLOAD PUSH1 0x4 DUP5 ADD SLOAD PUSH1 0x5 DUP6 ADD DUP1 SLOAD SWAP5 SWAP6 PUSH1 0xFF SWAP1 SWAP4 AND SWAP5 SWAP2 SWAP4 POP SWAP1 PUSH2 0x1A17 SWAP1 PUSH2 0x532E JUMP JUMPDEST DUP1 PUSH1 0x1F ADD PUSH1 0x20 DUP1 SWAP2 DIV MUL PUSH1 0x20 ADD PUSH1 0x40 MLOAD SWAP1 DUP2 ADD PUSH1 0x40 MSTORE DUP1 SWAP3 SWAP2 SWAP1 DUP2 DUP2 MSTORE PUSH1 0x20 ADD DUP3 DUP1 SLOAD PUSH2 0x1A43 SWAP1 PUSH2 0x532E JUMP JUMPDEST DUP1 ISZERO PUSH2 0x1A8E JUMPI DUP1 PUSH1 0x1F LT PUSH2 0x1A65 JUMPI PUSH2 0x100 DUP1 DUP4 SLOAD DIV MUL DUP4 MSTORE SWAP2 PUSH1 0x20 ADD SWAP2 PUSH2 0x1A8E JUMP JUMPDEST DUP3 ADD SWAP2 SWAP1 PUSH0 MSTORE PUSH1 0x20 PUSH0 KECCAK256 SWAP1 JUMPDEST DUP2 SLOAD DUP2 MSTORE SWAP1 PUSH1 0x1 ADD SWAP1 PUSH1 0x20 ADD DUP1 DUP4 GT PUSH2 0x1A71 JUMPI DUP3 SWAP1 SUB PUSH1 0x1F AND DUP3 ADD SWAP2 JUMPDEST POP POP POP POP POP SWAP1 DUP1 PUSH1 0x6 ADD DUP1 SLOAD PUSH2 0x1AA3 SWAP1 PUSH2 0x532E JUMP JUMPDEST DUP1 PUSH1 0x1F ADD PUSH1 0x20 DUP1 SWAP2 DIV MUL PUSH1 0x20 ADD PUSH1 0x40 MLOAD SWAP1 DUP2 ADD PUSH1 0x40 MSTORE DUP1 SWAP3 SWAP2 SWAP1 DUP2 DUP2 MSTORE PUSH1 0x20 ADD DUP3 DUP1 SLOAD PUSH2 0x1ACF SWAP1 PUSH2 0x532E JUMP JUMPDEST DUP1 ISZERO PUSH2 0x1B1A JUMPI DUP1 PUSH1 0x1F LT PUSH2 0x1AF1 JUMPI PUSH2 0x100 DUP1 DUP4 SLOAD DIV MUL DUP4 MSTORE SWAP2 PUSH1 0x20 ADD SWAP2 PUSH2 0x1B1A JUMP JUMPDEST DUP3 ADD SWAP2 SWAP1 PUSH0 MSTORE PUSH1 0x20 PUSH0 KECCAK256 SWAP1 JUMPDEST DUP2 SLOAD DUP2 MSTORE SWAP1 PUSH1 0x1 ADD SWAP1 PUSH1 0x20 ADD DUP1 DUP4 GT PUSH2 0x1AFD JUMPI DUP3 SWAP1 SUB PUSH1 0x1F AND DUP3 ADD SWAP2 JUMPDEST POP POP POP POP PUSH1 0x7 DUP4 ADD SLOAD PUSH1 0x8 DUP5 ADD SLOAD PUSH1 0x9 SWAP1 SWAP5 ADD SLOAD SWAP3 SWAP4 PUSH1 0xFF SWAP1 SWAP2 AND SWAP3 SWAP1 SWAP2 POP PUSH1 0x1 PUSH1 0x1 PUSH1 0xA0 SHL SUB AND DUP11 JUMP JUMPDEST PUSH2 0x1B4D PUSH2 0x4449 JUMP JUMPDEST PUSH1 0x1 PUSH1 0x1 PUSH1 0xA0 SHL SUB DUP1 DUP4 AND PUSH0 SWAP1 DUP2 MSTORE PUSH1 0x5 PUSH1 0x20 SWAP1 DUP2 MSTORE PUSH1 0x40 DUP1 DUP4 KECCAK256 PUSH1 0x6 DUP4 MSTORE SWAP3 DUP2 SWAP1 KECCAK256 DUP2 MLOAD PUSH2 0x140 DUP2 ADD SWAP1 SWAP3 MSTORE DUP4 SLOAD SWAP1 SWAP5 AND DUP2 MSTORE PUSH1 0x1 DUP4 ADD DUP1 SLOAD PUSH1 0x60 SWAP6 SWAP4 DUP6 SWAP3 SWAP1 DUP5 ADD SWAP2 PUSH2 0x1B9A SWAP1 PUSH2 0x532E JUMP JUMPDEST DUP1 PUSH1 0x1F ADD PUSH1 0x20 DUP1 SWAP2 DIV MUL PUSH1 0x20 ADD PUSH1 0x40 MLOAD SWAP1 DUP2 ADD PUSH1 0x40 MSTORE DUP1 SWAP3 SWAP2 SWAP1 DUP2 DUP2 MSTORE PUSH1 0x20 ADD DUP3 DUP1 SLOAD PUSH2 0x1BC6 SWAP1 PUSH2 0x532E JUMP JUMPDEST DUP1 ISZERO PUSH2 0x1C11 JUMPI DUP1 PUSH1 0x1F LT PUSH2 0x1BE8 JUMPI PUSH2 0x100 DUP1 DUP4 SLOAD DIV MUL DUP4 MSTORE SWAP2 PUSH1 0x20 ADD SWAP2 PUSH2 0x1C11 JUMP JUMPDEST DUP3 ADD SWAP2 SWAP1 PUSH0 MSTORE PUSH1 0x20 PUSH0 KECCAK256 SWAP1 JUMPDEST DUP2 SLOAD DUP2 MSTORE SWAP1 PUSH1 0x1 ADD SWAP1 PUSH1 0x20 ADD DUP1 DUP4 GT PUSH2 0x1BF4 JUMPI DUP3 SWAP1 SUB PUSH1 0x1F AND DUP3 ADD SWAP2 JUMPDEST POP POP POP POP POP DUP2 MSTORE PUSH1 0x20 ADD PUSH1 0x2 DUP3 ADD DUP1 SLOAD PUSH2 0x1C2A SWAP1 PUSH2 0x532E JUMP JUMPDEST DUP1 PUSH1 0x1F ADD PUSH1 0x20 DUP1 SWAP2 DIV MUL PUSH1 0x20 ADD PUSH1 0x40 MLOAD SWAP1 DUP2 ADD PUSH1 0x40 MSTORE DUP1 SWAP3 SWAP2 SWAP1 DUP2 DUP2 MSTORE PUSH1 0x20 ADD DUP3 DUP1 SLOAD PUSH2 0x1C56 SWAP1 PUSH2 0x532E JUMP JUMPDEST DUP1 ISZERO PUSH2 0x1CA1 JUMPI DUP1 PUSH1 0x1F LT PUSH2 0x1C78 JUMPI PUSH2 0x100 DUP1 DUP4 SLOAD DIV MUL DUP4 MSTORE SWAP2 PUSH1 0x20 ADD SWAP2 PUSH2 0x1CA1 JUMP JUMPDEST DUP3 ADD SWAP2 SWAP1 PUSH0 MSTORE PUSH1 0x20 PUSH0 KECCAK256 SWAP1 JUMPDEST DUP2 SLOAD DUP2 MSTORE SWAP1 PUSH1 0x1 ADD SWAP1 PUSH1 0x20 ADD DUP1 DUP4 GT PUSH2 0x1C84 JUMPI DUP3 SWAP1 SUB PUSH1 0x1F AND DUP3 ADD SWAP2 JUMPDEST POP POP POP SWAP2 DUP4 MSTORE POP POP PUSH1 0x3 DUP3 ADD SLOAD PUSH1 0xFF AND PUSH1 0x20 DUP3 ADD MSTORE PUSH1 0x4 DUP3 ADD SLOAD PUSH1 0x40 DUP3 ADD MSTORE PUSH1 0x5 DUP3 ADD DUP1 SLOAD PUSH1 0x60 SWAP1 SWAP3 ADD SWAP2 PUSH2 0x1CD5 SWAP1 PUSH2 0x532E JUMP JUMPDEST DUP1 PUSH1 0x1F ADD PUSH1 0x20 DUP1 SWAP2 DIV MUL PUSH1 0x20 ADD PUSH1 0x40 MLOAD SWAP1 DUP2 ADD PUSH1 0x40 MSTORE DUP1 SWAP3 SWAP2 SWAP1 DUP2 DUP2 MSTORE PUSH1 0x20 ADD DUP3 DUP1 SLOAD PUSH2 0x1D01 SWAP1 PUSH2 0x532E JUMP JUMPDEST DUP1 ISZERO PUSH2 0x1D4C JUMPI DUP1 PUSH1 0x1F LT PUSH2 0x1D23 JUMPI PUSH2 0x100 DUP1 DUP4 SLOAD DIV MUL DUP4 MSTORE SWAP2 PUSH1 0x20 ADD SWAP2 PUSH2 0x1D4C JUMP JUMPDEST DUP3 ADD SWAP2 SWAP1 PUSH0 MSTORE PUSH1 0x20 PUSH0 KECCAK256 SWAP1 JUMPDEST DUP2 SLOAD DUP2 MSTORE SWAP1 PUSH1 0x1 ADD SWAP1 PUSH1 0x20 ADD DUP1 DUP4 GT PUSH2 0x1D2F JUMPI DUP3 SWAP1 SUB PUSH1 0x1F AND DUP3 ADD SWAP2 JUMPDEST POP POP POP POP POP DUP2 MSTORE PUSH1 0x20 ADD PUSH1 0x6 DUP3 ADD DUP1 SLOAD PUSH2 0x1D65 SWAP1 PUSH2 0x532E JUMP JUMPDEST DUP1 PUSH1 0x1F ADD PUSH1 0x20 DUP1 SWAP2 DIV MUL PUSH1 0x20 ADD PUSH1 0x40 MLOAD SWAP1 DUP2 ADD PUSH1 0x40 MSTORE DUP1 SWAP3 SWAP2 SWAP1 DUP2 DUP2 MSTORE PUSH1 0x20 ADD DUP3 DUP1 SLOAD PUSH2 0x1D91 SWAP1 PUSH2 0x532E JUMP JUMPDEST DUP1 ISZERO PUSH2 0x1DDC JUMPI DUP1 PUSH1 0x1F LT PUSH2 0x1DB3 JUMPI PUSH2 0x100 DUP1 DUP4 SLOAD DIV MUL DUP4 MSTORE SWAP2 PUSH1 0x20 ADD SWAP2 PUSH2 0x1DDC JUMP JUMPDEST DUP3 ADD SWAP2 SWAP1 PUSH0 MSTORE PUSH1 0x20 PUSH0 KECCAK256 SWAP1 JUMPDEST DUP2 SLOAD DUP2 MSTORE SWAP1 PUSH1 0x1 ADD SWAP1 PUSH1 0x20 ADD DUP1 DUP4 GT PUSH2 0x1DBF JUMPI DUP3 SWAP1 SUB PUSH1 0x1F AND DUP3 ADD SWAP2 JUMPDEST POP POP POP SWAP2 DUP4 MSTORE POP POP PUSH1 0x7 DUP3 ADD SLOAD PUSH1 0x20 SWAP1 SWAP2 ADD SWAP1 PUSH1 0xFF AND PUSH1 0x3 DUP2 GT ISZERO PUSH2 0x1E03 JUMPI PUSH2 0x1E03 PUSH2 0x4956 JUMP JUMPDEST PUSH1 0x3 DUP2 GT ISZERO PUSH2 0x1E14 JUMPI PUSH2 0x1E14 PUSH2 0x4956 JUMP JUMPDEST DUP2 MSTORE PUSH1 0x8 DUP3 ADD SLOAD PUSH1 0x20 DUP1 DUP4 ADD SWAP2 SWAP1 SWAP2 MSTORE PUSH1 0x9 SWAP1 SWAP3 ADD SLOAD PUSH1 0x1 PUSH1 0x1 PUSH1 0xA0 SHL SUB AND PUSH1 0x40 SWAP2 DUP3 ADD MSTORE DUP4 SLOAD DUP2 MLOAD DUP2 DUP5 MUL DUP2 ADD DUP5 ADD SWAP1 SWAP3 MSTORE DUP1 DUP3 MSTORE SWAP3 SWAP5 POP SWAP2 DUP4 SWAP2 PUSH0 SWAP1 DUP5 ADD JUMPDEST DUP3 DUP3 LT ISZERO PUSH2 0x2154 JUMPI DUP4 DUP3 SWAP1 PUSH0 MSTORE PUSH1 0x20 PUSH0 KECCAK256 SWAP1 PUSH1 0x5 MUL ADD PUSH1 0x40 MLOAD DUP1 PUSH1 0xA0 ADD PUSH1 0x40 MSTORE SWAP1 DUP2 PUSH0 DUP3 ADD DUP1 SLOAD PUSH2 0x1E85 SWAP1 PUSH2 0x532E JUMP JUMPDEST DUP1 PUSH1 0x1F ADD PUSH1 0x20 DUP1 SWAP2 DIV MUL PUSH1 0x20 ADD PUSH1 0x40 MLOAD SWAP1 DUP2 ADD PUSH1 0x40 MSTORE DUP1 SWAP3 SWAP2 SWAP1 DUP2 DUP2 MSTORE PUSH1 0x20 ADD DUP3 DUP1 SLOAD PUSH2 0x1EB1 SWAP1 PUSH2 0x532E JUMP JUMPDEST DUP1 ISZERO PUSH2 0x1EFC JUMPI DUP1 PUSH1 0x1F LT PUSH2 0x1ED3 JUMPI PUSH2 0x100 DUP1 DUP4 SLOAD DIV MUL DUP4 MSTORE SWAP2 PUSH1 0x20 ADD SWAP2 PUSH2 0x1EFC JUMP JUMPDEST DUP3 ADD SWAP2 SWAP1 PUSH0 MSTORE PUSH1 0x20 PUSH0 KECCAK256 SWAP1 JUMPDEST DUP2 SLOAD DUP2 MSTORE SWAP1 PUSH1 0x1 ADD SWAP1 PUSH1 0x20 ADD DUP1 DUP4 GT PUSH2 0x1EDF JUMPI DUP3 SWAP1 SUB PUSH1 0x1F AND DUP3 ADD SWAP2 JUMPDEST POP POP POP POP POP DUP2 MSTORE PUSH1 0x20 ADD PUSH1 0x1 DUP3 ADD DUP1 SLOAD PUSH2 0x1F15 SWAP1 PUSH2 0x532E JUMP JUMPDEST DUP1 PUSH1 0x1F ADD PUSH1 0x20 DUP1 SWAP2 DIV MUL PUSH1 0x20 ADD PUSH1 0x40 MLOAD SWAP1 DUP2 ADD PUSH1 0x40 MSTORE DUP1 SWAP3 SWAP2 SWAP1 DUP2 DUP2 MSTORE PUSH1 0x20 ADD DUP3 DUP1 SLOAD PUSH2 0x1F41 SWAP1 PUSH2 0x532E JUMP JUMPDEST DUP1 ISZERO PUSH2 0x1F8C JUMPI DUP1 PUSH1 0x1F LT PUSH2 0x1F63 JUMPI PUSH2 0x100 DUP1 DUP4 SLOAD DIV MUL DUP4 MSTORE SWAP2 PUSH1 0x20 ADD SWAP2 PUSH2 0x1F8C JUMP JUMPDEST DUP3 ADD SWAP2 SWAP1 PUSH0 MSTORE PUSH1 0x20 PUSH0 KECCAK256 SWAP1 JUMPDEST DUP2 SLOAD DUP2 MSTORE SWAP1 PUSH1 0x1 ADD SWAP1 PUSH1 0x20 ADD DUP1 DUP4 GT PUSH2 0x1F6F JUMPI DUP3 SWAP1 SUB PUSH1 0x1F AND DUP3 ADD SWAP2 JUMPDEST POP POP POP POP POP DUP2 MSTORE PUSH1 0x20 ADD PUSH1 0x2 DUP3 ADD DUP1 SLOAD PUSH2 0x1FA5 SWAP1 PUSH2 0x532E JUMP JUMPDEST DUP1 PUSH1 0x1F ADD PUSH1 0x20 DUP1 SWAP2 DIV MUL PUSH1 0x20 ADD PUSH1 0x40 MLOAD SWAP1 DUP2 ADD PUSH1 0x40 MSTORE DUP1 SWAP3 SWAP2 SWAP1 DUP2 DUP2 MSTORE PUSH1 0x20 ADD DUP3 DUP1 SLOAD PUSH2 0x1FD1 SWAP1 PUSH2 0x532E JUMP JUMPDEST DUP1 ISZERO PUSH2 0x201C JUMPI DUP1 PUSH1 0x1F LT PUSH2 0x1FF3 JUMPI PUSH2 0x100 DUP1 DUP4 SLOAD DIV MUL DUP4 MSTORE SWAP2 PUSH1 0x20 ADD SWAP2 PUSH2 0x201C JUMP JUMPDEST DUP3 ADD SWAP2 SWAP1 PUSH0 MSTORE PUSH1 0x20 PUSH0 KECCAK256 SWAP1 JUMPDEST DUP2 SLOAD DUP2 MSTORE SWAP1 PUSH1 0x1 ADD SWAP1 PUSH1 0x20 ADD DUP1 DUP4 GT PUSH2 0x1FFF JUMPI DUP3 SWAP1 SUB PUSH1 0x1F AND DUP3 ADD SWAP2 JUMPDEST POP POP POP POP POP DUP2 MSTORE PUSH1 0x20 ADD PUSH1 0x3 DUP3 ADD DUP1 SLOAD PUSH2 0x2035 SWAP1 PUSH2 0x532E JUMP JUMPDEST DUP1 PUSH1 0x1F ADD PUSH1 0x20 DUP1 SWAP2 DIV MUL PUSH1 0x20 ADD PUSH1 0x40 MLOAD SWAP1 DUP2 ADD PUSH1 0x40 MSTORE DUP1 SWAP3 SWAP2 SWAP1 DUP2 DUP2 MSTORE PUSH1 0x20 ADD DUP3 DUP1 SLOAD PUSH2 0x2061 SWAP1 PUSH2 0x532E JUMP JUMPDEST DUP1 ISZERO PUSH2 0x20AC JUMPI DUP1 PUSH1 0x1F LT PUSH2 0x2083 JUMPI PUSH2 0x100 DUP1 DUP4 SLOAD DIV MUL DUP4 MSTORE SWAP2 PUSH1 0x20 ADD SWAP2 PUSH2 0x20AC JUMP JUMPDEST DUP3 ADD SWAP2 SWAP1 PUSH0 MSTORE PUSH1 0x20 PUSH0 KECCAK256 SWAP1 JUMPDEST DUP2 SLOAD DUP2 MSTORE SWAP1 PUSH1 0x1 ADD SWAP1 PUSH1 0x20 ADD DUP1 DUP4 GT PUSH2 0x208F JUMPI DUP3 SWAP1 SUB PUSH1 0x1F AND DUP3 ADD SWAP2 JUMPDEST POP POP POP POP POP DUP2 MSTORE PUSH1 0x20 ADD PUSH1 0x4 DUP3 ADD DUP1 SLOAD PUSH2 0x20C5 SWAP1 PUSH2 0x532E JUMP JUMPDEST DUP1 PUSH1 0x1F ADD PUSH1 0x20 DUP1 SWAP2 DIV MUL PUSH1 0x20 ADD PUSH1 0x40 MLOAD SWAP1 DUP2 ADD PUSH1 0x40 MSTORE DUP1 SWAP3 SWAP2 SWAP1 DUP2 DUP2 MSTORE PUSH1 0x20 ADD DUP3 DUP1 SLOAD PUSH2 0x20F1 SWAP1 PUSH2 0x532E JUMP JUMPDEST DUP1 ISZERO PUSH2 0x213C JUMPI DUP1 PUSH1 0x1F LT PUSH2 0x2113 JUMPI PUSH2 0x100 DUP1 DUP4 SLOAD DIV MUL DUP4 MSTORE SWAP2 PUSH1 0x20 ADD SWAP2 PUSH2 0x213C JUMP JUMPDEST DUP3 ADD SWAP2 SWAP1 PUSH0 MSTORE PUSH1 0x20 PUSH0 KECCAK256 SWAP1 JUMPDEST DUP2 SLOAD DUP2 MSTORE SWAP1 PUSH1 0x1 ADD SWAP1 PUSH1 0x20 ADD DUP1 DUP4 GT PUSH2 0x211F JUMPI DUP3 SWAP1 SUB PUSH1 0x1F AND DUP3 ADD SWAP2 JUMPDEST POP POP POP POP POP DUP2 MSTORE POP POP DUP2 MSTORE PUSH1 0x20 ADD SWAP1 PUSH1 0x1 ADD SWAP1 PUSH2 0x1E55 JUMP JUMPDEST POP POP POP POP SWAP1 POP SWAP2 POP SWAP2 POP SWAP2 POP SWAP2 JUMP JUMPDEST PUSH0 PUSH1 0x3 JUMPDEST PUSH1 0x1 PUSH1 0x1 PUSH1 0xA0 SHL SUB DUP4 AND PUSH0 SWAP1 DUP2 MSTORE PUSH1 0x5 PUSH1 0x20 MSTORE PUSH1 0x40 SWAP1 KECCAK256 PUSH1 0x7 ADD SLOAD PUSH1 0xFF AND PUSH1 0x3 DUP2 GT ISZERO PUSH2 0x2196 JUMPI PUSH2 0x2196 PUSH2 0x4956 JUMP JUMPDEST EQ SWAP3 SWAP2 POP POP JUMP JUMPDEST PUSH0 DUP1 SLOAD PUSH1 0x1 PUSH1 0x1 PUSH1 0xA0 SHL SUB AND CALLER DUP2 EQ PUSH2 0x21C8 JUMPI PUSH1 0x40 MLOAD PUSH3 0x461BCD PUSH1 0xE5 SHL DUP2 MSTORE PUSH1 0x4 ADD PUSH2 0xAA9 SWAP1 PUSH2 0x5474 JUMP JUMPDEST PUSH1 0x1 PUSH1 0x1 PUSH1 0xA0 SHL SUB DUP4 AND PUSH0 DUP2 DUP2 MSTORE PUSH1 0x1 PUSH1 0x20 DUP2 SWAP1 MSTORE PUSH1 0x40 DUP3 KECCAK256 DUP1 SLOAD PUSH1 0xFF NOT AND DUP3 OR SWAP1 SSTORE PUSH1 0x3 DUP1 SLOAD SWAP2 DUP3 ADD DUP2 SSTORE DUP3 MSTORE PUSH32 0xC2575A0E9E593C00F959F8C92F12DB2869C3395A3B0502D05E2516446F71F85B ADD DUP1 SLOAD PUSH1 0x1 PUSH1 0x1 PUSH1 0xA0 SHL SUB NOT AND SWAP1 SWAP3 OR SWAP1 SWAP2 SSTORE PUSH2 0x17CC SWAP1 DUP5 SWAP1 PUSH2 0x4283 JUMP JUMPDEST PUSH2 0x223D PUSH2 0x4449 JUMP JUMPDEST CALLER PUSH0 SWAP1 DUP2 MSTORE PUSH1 0x5 PUSH1 0x20 SWAP1 DUP2 MSTORE PUSH1 0x40 DUP1 DUP4 KECCAK256 PUSH1 0x6 DUP4 MSTORE SWAP3 DUP2 SWAP1 KECCAK256 DUP2 MLOAD PUSH2 0x140 DUP2 ADD SWAP1 SWAP3 MSTORE DUP4 SLOAD PUSH1 0x1 PUSH1 0x1 PUSH1 0xA0 SHL SUB AND DUP3 MSTORE PUSH1 0x1 DUP5 ADD DUP1 SLOAD PUSH1 0x60 SWAP6 SWAP5 SWAP3 SWAP4 SWAP3 DUP6 SWAP3 SWAP1 DUP5 ADD SWAP2 PUSH2 0x2289 SWAP1 PUSH2 0x532E JUMP JUMPDEST DUP1 PUSH1 0x1F ADD PUSH1 0x20 DUP1 SWAP2 DIV MUL PUSH1 0x20 ADD PUSH1 0x40 MLOAD SWAP1 DUP2 ADD PUSH1 0x40 MSTORE DUP1 SWAP3 SWAP2 SWAP1 DUP2 DUP2 MSTORE PUSH1 0x20 ADD DUP3 DUP1 SLOAD PUSH2 0x22B5 SWAP1 PUSH2 0x532E JUMP JUMPDEST DUP1 ISZERO PUSH2 0x2300 JUMPI DUP1 PUSH1 0x1F LT PUSH2 0x22D7 JUMPI PUSH2 0x100 DUP1 DUP4 SLOAD DIV MUL DUP4 MSTORE SWAP2 PUSH1 0x20 ADD SWAP2 PUSH2 0x2300 JUMP JUMPDEST DUP3 ADD SWAP2 SWAP1 PUSH0 MSTORE PUSH1 0x20 PUSH0 KECCAK256 SWAP1 JUMPDEST DUP2 SLOAD DUP2 MSTORE SWAP1 PUSH1 0x1 ADD SWAP1 PUSH1 0x20 ADD DUP1 DUP4 GT PUSH2 0x22E3 JUMPI DUP3 SWAP1 SUB PUSH1 0x1F AND DUP3 ADD SWAP2 JUMPDEST POP POP POP POP POP DUP2 MSTORE PUSH1 0x20 ADD PUSH1 0x2 DUP3 ADD DUP1 SLOAD PUSH2 0x2319 SWAP1 PUSH2 0x532E JUMP JUMPDEST DUP1 PUSH1 0x1F ADD PUSH1 0x20 DUP1 SWAP2 DIV MUL PUSH1 0x20 ADD PUSH1 0x40 MLOAD SWAP1 DUP2 ADD PUSH1 0x40 MSTORE DUP1 SWAP3 SWAP2 SWAP1 DUP2 DUP2 MSTORE PUSH1 0x20 ADD DUP3 DUP1 SLOAD PUSH2 0x2345 SWAP1 PUSH2 0x532E JUMP JUMPDEST DUP1 ISZERO PUSH2 0x2390 JUMPI DUP1 PUSH1 0x1F LT PUSH2 0x2367 JUMPI PUSH2 0x100 DUP1 DUP4 SLOAD DIV MUL DUP4 MSTORE SWAP2 PUSH1 0x20 ADD SWAP2 PUSH2 0x2390 JUMP JUMPDEST DUP3 ADD SWAP2 SWAP1 PUSH0 MSTORE PUSH1 0x20 PUSH0 KECCAK256 SWAP1 JUMPDEST DUP2 SLOAD DUP2 MSTORE SWAP1 PUSH1 0x1 ADD SWAP1 PUSH1 0x20 ADD DUP1 DUP4 GT PUSH2 0x2373 JUMPI DUP3 SWAP1 SUB PUSH1 0x1F AND DUP3 ADD SWAP2 JUMPDEST POP POP POP SWAP2 DUP4 MSTORE POP POP PUSH1 0x3 DUP3 ADD SLOAD PUSH1 0xFF AND PUSH1 0x20 DUP3 ADD MSTORE PUSH1 0x4 DUP3 ADD SLOAD PUSH1 0x40 DUP3 ADD MSTORE PUSH1 0x5 DUP3 ADD DUP1 SLOAD PUSH1 0x60 SWAP1 SWAP3 ADD SWAP2 PUSH2 0x23C4 SWAP1 PUSH2 0x532E JUMP JUMPDEST DUP1 PUSH1 0x1F ADD PUSH1 0x20 DUP1 SWAP2 DIV MUL PUSH1 0x20 ADD PUSH1 0x40 MLOAD SWAP1 DUP2 ADD PUSH1 0x40 MSTORE DUP1 SWAP3 SWAP2 SWAP1 DUP2 DUP2 MSTORE PUSH1 0x20 ADD DUP3 DUP1 SLOAD PUSH2 0x23F0 SWAP1 PUSH2 0x532E JUMP JUMPDEST DUP1 ISZERO PUSH2 0x243B JUMPI DUP1 PUSH1 0x1F LT PUSH2 0x2412 JUMPI PUSH2 0x100 DUP1 DUP4 SLOAD DIV MUL DUP4 MSTORE SWAP2 PUSH1 0x20 ADD SWAP2 PUSH2 0x243B JUMP JUMPDEST DUP3 ADD SWAP2 SWAP1 PUSH0 MSTORE PUSH1 0x20 PUSH0 KECCAK256 SWAP1 JUMPDEST DUP2 SLOAD DUP2 MSTORE SWAP1 PUSH1 0x1 ADD SWAP1 PUSH1 0x20 ADD DUP1 DUP4 GT PUSH2 0x241E JUMPI DUP3 SWAP1 SUB PUSH1 0x1F AND DUP3 ADD SWAP2 JUMPDEST POP POP POP POP POP DUP2 MSTORE PUSH1 0x20 ADD PUSH1 0x6 DUP3 ADD DUP1 SLOAD PUSH2 0x2454 SWAP1 PUSH2 0x532E JUMP JUMPDEST DUP1 PUSH1 0x1F ADD PUSH1 0x20 DUP1 SWAP2 DIV MUL PUSH1 0x20 ADD PUSH1 0x40 MLOAD SWAP1 DUP2 ADD PUSH1 0x40 MSTORE DUP1 SWAP3 SWAP2 SWAP1 DUP2 DUP2 MSTORE PUSH1 0x20 ADD DUP3 DUP1 SLOAD PUSH2 0x2480 SWAP1 PUSH2 0x532E JUMP JUMPDEST DUP1 ISZERO PUSH2 0x24CB JUMPI DUP1 PUSH1 0x1F LT PUSH2 0x24A2 JUMPI PUSH2 0x100 DUP1 DUP4 SLOAD DIV MUL DUP4 MSTORE SWAP2 PUSH1 0x20 ADD SWAP2 PUSH2 0x24CB JUMP JUMPDEST DUP3 ADD SWAP2 SWAP1 PUSH0 MSTORE PUSH1 0x20 PUSH0 KECCAK256 SWAP1 JUMPDEST DUP2 SLOAD DUP2 MSTORE SWAP1 PUSH1 0x1 ADD SWAP1 PUSH1 0x20 ADD DUP1 DUP4 GT PUSH2 0x24AE JUMPI DUP3 SWAP1 SUB PUSH1 0x1F AND DUP3 ADD SWAP2 JUMPDEST POP POP POP SWAP2 DUP4 MSTORE POP POP PUSH1 0x7 DUP3 ADD SLOAD PUSH1 0x20 SWAP1 SWAP2 ADD SWAP1 PUSH1 0xFF AND PUSH1 0x3 DUP2 GT ISZERO PUSH2 0x24F2 JUMPI PUSH2 0x24F2 PUSH2 0x4956 JUMP JUMPDEST PUSH1 0x3 DUP2 GT ISZERO PUSH2 0x2503 JUMPI PUSH2 0x2503 PUSH2 0x4956 JUMP JUMPDEST DUP2 MSTORE PUSH1 0x8 DUP3 ADD SLOAD PUSH1 0x20 DUP1 DUP4 ADD SWAP2 SWAP1 SWAP2 MSTORE PUSH1 0x9 SWAP1 SWAP3 ADD SLOAD PUSH1 0x1 PUSH1 0x1 PUSH1 0xA0 SHL SUB AND PUSH1 0x40 SWAP2 DUP3 ADD MSTORE DUP4 SLOAD DUP2 MLOAD DUP2 DUP5 MUL DUP2 ADD DUP5 ADD SWAP1 SWAP3 MSTORE DUP1 DUP3 MSTORE SWAP3 SWAP5 POP SWAP2 DUP4 SWAP2 PUSH0 SWAP1 DUP5 ADD JUMPDEST DUP3 DUP3 LT ISZERO PUSH2 0x2843 JUMPI DUP4 DUP3 SWAP1 PUSH0 MSTORE PUSH1 0x20 PUSH0 KECCAK256 SWAP1 PUSH1 0x5 MUL ADD PUSH1 0x40 MLOAD DUP1 PUSH1 0xA0 ADD PUSH1 0x40 MSTORE SWAP1 DUP2 PUSH0 DUP3 ADD DUP1 SLOAD PUSH2 0x2574 SWAP1 PUSH2 0x532E JUMP JUMPDEST DUP1 PUSH1 0x1F ADD PUSH1 0x20 DUP1 SWAP2 DIV MUL PUSH1 0x20 ADD PUSH1 0x40 MLOAD SWAP1 DUP2 ADD PUSH1 0x40 MSTORE DUP1 SWAP3 SWAP2 SWAP1 DUP2 DUP2 MSTORE PUSH1 0x20 ADD DUP3 DUP1 SLOAD PUSH2 0x25A0 SWAP1 PUSH2 0x532E JUMP JUMPDEST DUP1 ISZERO PUSH2 0x25EB JUMPI DUP1 PUSH1 0x1F LT PUSH2 0x25C2 JUMPI PUSH2 0x100 DUP1 DUP4 SLOAD DIV MUL DUP4 MSTORE SWAP2 PUSH1 0x20 ADD SWAP2 PUSH2 0x25EB JUMP JUMPDEST DUP3 ADD SWAP2 SWAP1 PUSH0 MSTORE PUSH1 0x20 PUSH0 KECCAK256 SWAP1 JUMPDEST DUP2 SLOAD DUP2 MSTORE SWAP1 PUSH1 0x1 ADD SWAP1 PUSH1 0x20 ADD DUP1 DUP4 GT PUSH2 0x25CE JUMPI DUP3 SWAP1 SUB PUSH1 0x1F AND DUP3 ADD SWAP2 JUMPDEST POP POP POP POP POP DUP2 MSTORE PUSH1 0x20 ADD PUSH1 0x1 DUP3 ADD DUP1 SLOAD PUSH2 0x2604 SWAP1 PUSH2 0x532E JUMP JUMPDEST DUP1 PUSH1 0x1F ADD PUSH1 0x20 DUP1 SWAP2 DIV MUL PUSH1 0x20 ADD PUSH1 0x40 MLOAD SWAP1 DUP2 ADD PUSH1 0x40 MSTORE DUP1 SWAP3 SWAP2 SWAP1 DUP2 DUP2 MSTORE PUSH1 0x20 ADD DUP3 DUP1 SLOAD PUSH2 0x2630 SWAP1 PUSH2 0x532E JUMP JUMPDEST DUP1 ISZERO PUSH2 0x267B JUMPI DUP1 PUSH1 0x1F LT PUSH2 0x2652 JUMPI PUSH2 0x100 DUP1 DUP4 SLOAD DIV MUL DUP4 MSTORE SWAP2 PUSH1 0x20 ADD SWAP2 PUSH2 0x267B JUMP JUMPDEST DUP3 ADD SWAP2 SWAP1 PUSH0 MSTORE PUSH1 0x20 PUSH0 KECCAK256 SWAP1 JUMPDEST DUP2 SLOAD DUP2 MSTORE SWAP1 PUSH1 0x1 ADD SWAP1 PUSH1 0x20 ADD DUP1 DUP4 GT PUSH2 0x265E JUMPI DUP3 SWAP1 SUB PUSH1 0x1F AND DUP3 ADD SWAP2 JUMPDEST POP POP POP POP POP DUP2 MSTORE PUSH1 0x20 ADD PUSH1 0x2 DUP3 ADD DUP1 SLOAD PUSH2 0x2694 SWAP1 PUSH2 0x532E JUMP JUMPDEST DUP1 PUSH1 0x1F ADD PUSH1 0x20 DUP1 SWAP2 DIV MUL PUSH1 0x20 ADD PUSH1 0x40 MLOAD SWAP1 DUP2 ADD PUSH1 0x40 MSTORE DUP1 SWAP3 SWAP2 SWAP1 DUP2 DUP2 MSTORE PUSH1 0x20 ADD DUP3 DUP1 SLOAD PUSH2 0x26C0 SWAP1 PUSH2 0x532E JUMP JUMPDEST DUP1 ISZERO PUSH2 0x270B JUMPI DUP1 PUSH1 0x1F LT PUSH2 0x26E2 JUMPI PUSH2 0x100 DUP1 DUP4 SLOAD DIV MUL DUP4 MSTORE SWAP2 PUSH1 0x20 ADD SWAP2 PUSH2 0x270B JUMP JUMPDEST DUP3 ADD SWAP2 SWAP1 PUSH0 MSTORE PUSH1 0x20 PUSH0 KECCAK256 SWAP1 JUMPDEST DUP2 SLOAD DUP2 MSTORE SWAP1 PUSH1 0x1 ADD SWAP1 PUSH1 0x20 ADD DUP1 DUP4 GT PUSH2 0x26EE JUMPI DUP3 SWAP1 SUB PUSH1 0x1F AND DUP3 ADD SWAP2 JUMPDEST POP POP POP POP POP DUP2 MSTORE PUSH1 0x20 ADD PUSH1 0x3 DUP3 ADD DUP1 SLOAD PUSH2 0x2724 SWAP1 PUSH2 0x532E JUMP JUMPDEST DUP1 PUSH1 0x1F ADD PUSH1 0x20 DUP1 SWAP2 DIV MUL PUSH1 0x20 ADD PUSH1 0x40 MLOAD SWAP1 DUP2 ADD PUSH1 0x40 MSTORE DUP1 SWAP3 SWAP2 SWAP1 DUP2 DUP2 MSTORE PUSH1 0x20 ADD DUP3 DUP1 SLOAD PUSH2 0x2750 SWAP1 PUSH2 0x532E JUMP JUMPDEST DUP1 ISZERO PUSH2 0x279B JUMPI DUP1 PUSH1 0x1F LT PUSH2 0x2772 JUMPI PUSH2 0x100 DUP1 DUP4 SLOAD DIV MUL DUP4 MSTORE SWAP2 PUSH1 0x20 ADD SWAP2 PUSH2 0x279B JUMP JUMPDEST DUP3 ADD SWAP2 SWAP1 PUSH0 MSTORE PUSH1 0x20 PUSH0 KECCAK256 SWAP1 JUMPDEST DUP2 SLOAD DUP2 MSTORE SWAP1 PUSH1 0x1 ADD SWAP1 PUSH1 0x20 ADD DUP1 DUP4 GT PUSH2 0x277E JUMPI DUP3 SWAP1 SUB PUSH1 0x1F AND DUP3 ADD SWAP2 JUMPDEST POP POP POP POP POP DUP2 MSTORE PUSH1 0x20 ADD PUSH1 0x4 DUP3 ADD DUP1 SLOAD PUSH2 0x27B4 SWAP1 PUSH2 0x532E JUMP JUMPDEST DUP1 PUSH1 0x1F ADD PUSH1 0x20 DUP1 SWAP2 DIV MUL PUSH1 0x20 ADD PUSH1 0x40 MLOAD SWAP1 DUP2 ADD PUSH1 0x40 MSTORE DUP1 SWAP3 SWAP2 SWAP1 DUP2 DUP2 MSTORE PUSH1 0x20 ADD DUP3 DUP1 SLOAD PUSH2 0x27E0 SWAP1 PUSH2 0x532E JUMP JUMPDEST DUP1 ISZERO PUSH2 0x282B JUMPI DUP1 PUSH1 0x1F LT PUSH2 0x2802 JUMPI PUSH2 0x100 DUP1 DUP4 SLOAD DIV MUL DUP4 MSTORE SWAP2 PUSH1 0x20 ADD SWAP2 PUSH2 0x282B JUMP JUMPDEST DUP3 ADD SWAP2 SWAP1 PUSH0 MSTORE PUSH1 0x20 PUSH0 KECCAK256 SWAP1 JUMPDEST DUP2 SLOAD DUP2 MSTORE SWAP1 PUSH1 0x1 ADD SWAP1 PUSH1 0x20 ADD DUP1 DUP4 GT PUSH2 0x280E JUMPI DUP3 SWAP1 SUB PUSH1 0x1F AND DUP3 ADD SWAP2 JUMPDEST POP POP POP POP POP DUP2 MSTORE POP POP DUP2 MSTORE PUSH1 0x20 ADD SWAP1 PUSH1 0x1 ADD SWAP1 PUSH2 0x2544 JUMP JUMPDEST POP POP POP POP SWAP1 POP SWAP2 POP SWAP2 POP SWAP1 SWAP2 JUMP JUMPDEST PUSH0 DUP1 SLOAD PUSH1 0x1 PUSH1 0x1 PUSH1 0xA0 SHL SUB AND CALLER DUP2 EQ PUSH2 0x287C JUMPI PUSH1 0x40 MLOAD PUSH3 0x461BCD PUSH1 0xE5 SHL DUP2 MSTORE PUSH1 0x4 ADD PUSH2 0xAA9 SWAP1 PUSH2 0x5474 JUMP JUMPDEST PUSH1 0xD DUP1 SLOAD PUSH1 0x1 PUSH1 0x1 PUSH1 0xA0 SHL SUB DUP6 AND PUSH1 0x1 PUSH1 0x1 PUSH1 0xA0 SHL SUB NOT SWAP1 SWAP2 AND OR SWAP1 SSTORE PUSH1 0x1 SWAP2 POP POP SWAP2 SWAP1 POP JUMP JUMPDEST PUSH0 DUP1 SLOAD PUSH1 0x1 PUSH1 0x1 PUSH1 0xA0 SHL SUB AND CALLER DUP2 EQ PUSH2 0x28CE JUMPI PUSH1 0x40 MLOAD PUSH3 0x461BCD PUSH1 0xE5 SHL DUP2 MSTORE PUSH1 0x4 ADD PUSH2 0xAA9 SWAP1 PUSH2 0x5474 JUMP JUMPDEST PUSH1 0x1 PUSH1 0x1 PUSH1 0xA0 SHL SUB DUP4 AND PUSH0 SWAP1 DUP2 MSTORE PUSH1 0x5 PUSH1 0x20 MSTORE PUSH1 0x40 DUP2 KECCAK256 DUP1 SLOAD PUSH1 0x1 PUSH1 0x1 PUSH1 0xA0 SHL SUB NOT AND DUP2 SSTORE SWAP1 PUSH2 0x2901 PUSH1 0x1 DUP4 ADD DUP3 PUSH2 0x43F1 JUMP JUMPDEST PUSH2 0x290E PUSH1 0x2 DUP4 ADD PUSH0 PUSH2 0x43F1 JUMP JUMPDEST PUSH1 0x3 DUP3 ADD DUP1 SLOAD PUSH1 0xFF NOT AND SWAP1 SSTORE PUSH0 PUSH1 0x4 DUP4 ADD DUP2 SWAP1 SSTORE PUSH2 0x2930 SWAP1 PUSH1 0x5 DUP5 ADD SWAP1 PUSH2 0x43F1 JUMP JUMPDEST PUSH2 0x293D PUSH1 0x6 DUP4 ADD PUSH0 PUSH2 0x43F1 JUMP JUMPDEST POP PUSH1 0x7 DUP2 ADD DUP1 SLOAD PUSH1 0xFF NOT AND SWAP1 SSTORE PUSH0 PUSH1 0x8 DUP3 ADD DUP2 SWAP1 SSTORE PUSH1 0x9 SWAP1 SWAP2 ADD DUP1 SLOAD PUSH1 0x1 PUSH1 0x1 PUSH1 0xA0 SHL SUB NOT AND SWAP1 SSTORE PUSH1 0x1 PUSH1 0x1 PUSH1 0xA0 SHL SUB DUP5 AND DUP2 MSTORE PUSH1 0x6 PUSH1 0x20 MSTORE PUSH1 0x40 DUP2 KECCAK256 PUSH2 0x2983 SWAP2 PUSH2 0x442B JUMP JUMPDEST PUSH0 JUMPDEST PUSH1 0x9 SLOAD DUP2 LT ISZERO PUSH2 0xD7F JUMPI DUP4 PUSH1 0x1 PUSH1 0x1 PUSH1 0xA0 SHL SUB AND PUSH1 0x9 DUP3 DUP2 SLOAD DUP2 LT PUSH2 0x29AC JUMPI PUSH2 0x29AC PUSH2 0x52DF JUMP JUMPDEST PUSH0 SWAP2 DUP3 MSTORE PUSH1 0x20 SWAP1 SWAP2 KECCAK256 ADD SLOAD PUSH1 0x1 PUSH1 0x1 PUSH1 0xA0 SHL SUB AND SUB PUSH2 0x2A6D JUMPI PUSH1 0x9 DUP1 SLOAD PUSH2 0x29D5 SWAP1 PUSH1 0x1 SWAP1 PUSH2 0x5307 JUMP JUMPDEST DUP2 SLOAD DUP2 LT PUSH2 0x29E5 JUMPI PUSH2 0x29E5 PUSH2 0x52DF JUMP JUMPDEST PUSH0 SWAP2 DUP3 MSTORE PUSH1 0x20 SWAP1 SWAP2 KECCAK256 ADD SLOAD PUSH1 0x9 DUP1 SLOAD PUSH1 0x1 PUSH1 0x1 PUSH1 0xA0 SHL SUB SWAP1 SWAP3 AND SWAP2 DUP4 SWAP1 DUP2 LT PUSH2 0x2A10 JUMPI PUSH2 0x2A10 PUSH2 0x52DF JUMP JUMPDEST SWAP1 PUSH0 MSTORE PUSH1 0x20 PUSH0 KECCAK256 ADD PUSH0 PUSH2 0x100 EXP DUP2 SLOAD DUP2 PUSH1 0x1 PUSH1 0x1 PUSH1 0xA0 SHL SUB MUL NOT AND SWAP1 DUP4 PUSH1 0x1 PUSH1 0x1 PUSH1 0xA0 SHL SUB AND MUL OR SWAP1 SSTORE POP PUSH1 0x9 DUP1 SLOAD DUP1 PUSH2 0x2A4C JUMPI PUSH2 0x2A4C PUSH2 0x531A JUMP JUMPDEST PUSH0 DUP3 DUP2 MSTORE PUSH1 0x20 SWAP1 KECCAK256 DUP2 ADD PUSH0 NOT SWAP1 DUP2 ADD DUP1 SLOAD PUSH1 0x1 PUSH1 0x1 PUSH1 0xA0 SHL SUB NOT AND SWAP1 SSTORE ADD SWAP1 SSTORE JUMPDEST PUSH1 0x1 ADD PUSH2 0x2985 JUMP JUMPDEST PUSH0 DUP1 SLOAD PUSH1 0x1 PUSH1 0x1 PUSH1 0xA0 SHL SUB AND CALLER DUP2 EQ PUSH2 0x2AA0 JUMPI PUSH1 0x40 MLOAD PUSH3 0x461BCD PUSH1 0xE5 SHL DUP2 MSTORE PUSH1 0x4 ADD PUSH2 0xAA9 SWAP1 PUSH2 0x5474 JUMP JUMPDEST PUSH1 0x1 PUSH1 0x1 PUSH1 0xA0 SHL SUB DUP4 AND PUSH0 DUP2 DUP2 MSTORE PUSH1 0x2 PUSH1 0x20 MSTORE PUSH1 0x40 DUP2 KECCAK256 DUP1 SLOAD PUSH1 0xFF NOT AND PUSH1 0x1 SWAP1 DUP2 OR SWAP1 SWAP2 SSTORE PUSH1 0x4 DUP1 SLOAD SWAP2 DUP3 ADD DUP2 SSTORE SWAP1 SWAP2 MSTORE PUSH32 0x8A35ACFBC15FF81A39AE7D344FD709F28E8600B4AA8C65C6B64BFE7FE36BD19B ADD DUP1 SLOAD PUSH1 0x1 PUSH1 0x1 PUSH1 0xA0 SHL SUB NOT AND SWAP1 SWAP2 OR SWAP1 SSTORE PUSH2 0x17CC DUP4 PUSH1 0x3 PUSH2 0x4283 JUMP JUMPDEST PUSH0 DUP1 SLOAD PUSH1 0x1 PUSH1 0x1 PUSH1 0xA0 SHL SUB AND CALLER DUP2 EQ PUSH2 0x2B3A JUMPI PUSH1 0x40 MLOAD PUSH3 0x461BCD PUSH1 0xE5 SHL DUP2 MSTORE PUSH1 0x4 ADD PUSH2 0xAA9 SWAP1 PUSH2 0x5474 JUMP JUMPDEST POP POP PUSH1 0x40 DUP1 MLOAD PUSH1 0xC0 DUP2 ADD DUP3 MSTORE SWAP7 ISZERO ISZERO DUP8 MSTORE SWAP5 ISZERO ISZERO PUSH1 0x20 DUP1 DUP9 ADD SWAP2 DUP3 MSTORE SWAP5 ISZERO ISZERO DUP8 DUP8 ADD SWAP1 DUP2 MSTORE SWAP4 ISZERO ISZERO PUSH1 0x60 DUP9 ADD SWAP1 DUP2 MSTORE SWAP3 ISZERO ISZERO PUSH1 0x80 DUP9 ADD SWAP1 DUP2 MSTORE SWAP2 ISZERO ISZERO PUSH1 0xA0 DUP9 ADD SWAP1 DUP2 MSTORE CALLER PUSH0 SWAP1 DUP2 MSTORE PUSH1 0x7 SWAP1 SWAP7 MSTORE SWAP6 SWAP1 SWAP5 KECCAK256 SWAP6 MLOAD DUP7 SLOAD SWAP5 MLOAD SWAP4 MLOAD SWAP3 MLOAD SWAP2 MLOAD SWAP6 MLOAD PUSH2 0xFFFF NOT SWAP1 SWAP6 AND SWAP1 ISZERO ISZERO PUSH2 0xFF00 NOT AND OR PUSH2 0x100 SWAP4 ISZERO ISZERO SWAP4 SWAP1 SWAP4 MUL SWAP3 SWAP1 SWAP3 OR PUSH4 0xFFFF0000 NOT AND PUSH3 0x10000 SWAP2 ISZERO ISZERO SWAP2 SWAP1 SWAP2 MUL PUSH4 0xFF000000 NOT AND OR PUSH4 0x1000000 SWAP2 ISZERO ISZERO SWAP2 SWAP1 SWAP2 MUL OR PUSH2 0xFFFF PUSH1 0x20 SHL NOT AND PUSH1 0x1 PUSH1 0x20 SHL SWAP3 ISZERO ISZERO SWAP3 SWAP1 SWAP3 MUL PUSH1 0xFF PUSH1 0x28 SHL NOT AND SWAP2 SWAP1 SWAP2 OR PUSH1 0x1 PUSH1 0x28 SHL SWAP2 ISZERO ISZERO SWAP2 SWAP1 SWAP2 MUL OR SWAP1 SSTORE PUSH1 0x1 SWAP1 JUMP JUMPDEST PUSH1 0x1 PUSH1 0x1 PUSH1 0xA0 SHL SUB DUP3 AND PUSH0 SWAP1 DUP2 MSTORE PUSH1 0x7 PUSH1 0x20 SWAP1 DUP2 MSTORE PUSH1 0x40 DUP1 DUP4 KECCAK256 DUP2 MLOAD PUSH1 0xC0 DUP2 ADD DUP4 MSTORE SWAP1 SLOAD PUSH1 0xFF DUP1 DUP3 AND ISZERO ISZERO DUP4 MSTORE PUSH2 0x100 DUP3 DIV DUP2 AND ISZERO ISZERO DUP4 DUP7 ADD MSTORE PUSH3 0x10000 DUP3 DIV DUP2 AND ISZERO ISZERO DUP4 DUP6 ADD MSTORE PUSH4 0x1000000 DUP3 DIV DUP2 AND ISZERO ISZERO PUSH1 0x60 DUP5 ADD MSTORE PUSH1 0x1 PUSH1 0x20 SHL DUP3 DIV DUP2 AND ISZERO ISZERO PUSH1 0x80 DUP5 ADD MSTORE PUSH1 0x1 PUSH1 0x28 SHL SWAP1 SWAP2 DIV AND ISZERO ISZERO PUSH1 0xA0 DUP3 ADD MSTORE SWAP1 MLOAD SWAP1 SWAP3 SWAP2 PUSH2 0x2C98 SWAP2 ADD PUSH2 0x56D7 JUMP JUMPDEST PUSH1 0x40 MLOAD PUSH1 0x20 DUP2 DUP4 SUB SUB DUP2 MSTORE SWAP1 PUSH1 0x40 MSTORE DUP1 MLOAD SWAP1 PUSH1 0x20 ADD KECCAK256 DUP4 PUSH1 0x40 MLOAD PUSH1 0x20 ADD PUSH2 0x2CBF SWAP2 SWAP1 PUSH2 0x56F0 JUMP JUMPDEST PUSH1 0x40 MLOAD PUSH1 0x20 DUP2 DUP4 SUB SUB DUP2 MSTORE SWAP1 PUSH1 0x40 MSTORE DUP1 MLOAD SWAP1 PUSH1 0x20 ADD KECCAK256 EQ DUP1 ISZERO PUSH2 0x2CE3 JUMPI POP DUP2 PUSH1 0x60 ADD MLOAD JUMPDEST ISZERO PUSH2 0x2CF0 JUMPI POP PUSH1 0x1 PUSH2 0x2E88 JUMP JUMPDEST PUSH1 0x40 MLOAD PUSH1 0x20 ADD PUSH2 0x2CFF SWAP1 PUSH2 0x56FB JUMP JUMPDEST PUSH1 0x40 MLOAD PUSH1 0x20 DUP2 DUP4 SUB SUB DUP2 MSTORE SWAP1 PUSH1 0x40 MSTORE DUP1 MLOAD SWAP1 PUSH1 0x20 ADD KECCAK256 DUP4 PUSH1 0x40 MLOAD PUSH1 0x20 ADD PUSH2 0x2D26 SWAP2 SWAP1 PUSH2 0x56F0 JUMP JUMPDEST PUSH1 0x40 MLOAD PUSH1 0x20 DUP2 DUP4 SUB SUB DUP2 MSTORE SWAP1 PUSH1 0x40 MSTORE DUP1 MLOAD SWAP1 PUSH1 0x20 ADD KECCAK256 EQ DUP1 ISZERO PUSH2 0x2D4A JUMPI POP DUP2 PUSH1 0x20 ADD MLOAD JUMPDEST ISZERO PUSH2 0x2D57 JUMPI POP PUSH1 0x1 PUSH2 0x2E88 JUMP JUMPDEST PUSH1 0x40 MLOAD PUSH1 0x20 ADD PUSH2 0x2D66 SWAP1 PUSH2 0x5712 JUMP JUMPDEST PUSH1 0x40 MLOAD PUSH1 0x20 DUP2 DUP4 SUB SUB DUP2 MSTORE SWAP1 PUSH1 0x40 MSTORE DUP1 MLOAD SWAP1 PUSH1 0x20 ADD KECCAK256 DUP4 PUSH1 0x40 MLOAD PUSH1 0x20 ADD PUSH2 0x2D8D SWAP2 SWAP1 PUSH2 0x56F0 JUMP JUMPDEST PUSH1 0x40 MLOAD PUSH1 0x20 DUP2 DUP4 SUB SUB DUP2 MSTORE SWAP1 PUSH1 0x40 MSTORE DUP1 MLOAD SWAP1 PUSH1 0x20 ADD KECCAK256 EQ DUP1 ISZERO PUSH2 0x2DB1 JUMPI POP DUP2 PUSH1 0x40 ADD MLOAD JUMPDEST ISZERO PUSH2 0x2DBE JUMPI POP PUSH1 0x1 PUSH2 0x2E88 JUMP JUMPDEST PUSH1 0x40 MLOAD PUSH1 0x20 ADD PUSH2 0x2DCD SWAP1 PUSH2 0x5730 JUMP JUMPDEST PUSH1 0x40 MLOAD PUSH1 0x20 DUP2 DUP4 SUB SUB DUP2 MSTORE SWAP1 PUSH1 0x40 MSTORE DUP1 MLOAD SWAP1 PUSH1 0x20 ADD KECCAK256 DUP4 PUSH1 0x40 MLOAD PUSH1 0x20 ADD PUSH2 0x2DF4 SWAP2 SWAP1 PUSH2 0x56F0 JUMP JUMPDEST PUSH1 0x40 MLOAD PUSH1 0x20 DUP2 DUP4 SUB SUB DUP2 MSTORE SWAP1 PUSH1 0x40 MSTORE DUP1 MLOAD SWAP1 PUSH1 0x20 ADD KECCAK256 EQ DUP1 ISZERO PUSH2 0x2E18 JUMPI POP DUP2 PUSH1 0x80 ADD MLOAD JUMPDEST ISZERO PUSH2 0x2E25 JUMPI POP PUSH1 0x1 PUSH2 0x2E88 JUMP JUMPDEST PUSH1 0x40 MLOAD PUSH1 0x20 ADD PUSH2 0x2E34 SWAP1 PUSH2 0x574F JUMP JUMPDEST PUSH1 0x40 MLOAD PUSH1 0x20 DUP2 DUP4 SUB SUB DUP2 MSTORE SWAP1 PUSH1 0x40 MSTORE DUP1 MLOAD SWAP1 PUSH1 0x20 ADD KECCAK256 DUP4 PUSH1 0x40 MLOAD PUSH1 0x20 ADD PUSH2 0x2E5B SWAP2 SWAP1 PUSH2 0x56F0 JUMP JUMPDEST PUSH1 0x40 MLOAD PUSH1 0x20 DUP2 DUP4 SUB SUB DUP2 MSTORE SWAP1 PUSH1 0x40 MSTORE DUP1 MLOAD SWAP1 PUSH1 0x20 ADD KECCAK256 EQ DUP1 ISZERO PUSH2 0x2E7F JUMPI POP DUP2 PUSH1 0xA0 ADD MLOAD JUMPDEST ISZERO PUSH2 0x2E88 JUMPI POP PUSH1 0x1 JUMPDEST DUP1 ISZERO PUSH2 0x2F15 JUMPI PUSH1 0x40 DUP1 MLOAD DUP1 DUP3 ADD DUP3 MSTORE DUP8 DUP2 MSTORE PUSH1 0x20 DUP2 ADD DUP8 SWAP1 MSTORE PUSH1 0xB SLOAD SWAP2 MLOAD PUSH4 0xFE477261 PUSH1 0xE0 SHL DUP2 MSTORE SWAP1 SWAP2 PUSH1 0x1 PUSH1 0x1 PUSH1 0xA0 SHL SUB AND SWAP1 PUSH4 0xFE477261 SWAP1 PUSH2 0x2ED2 SWAP1 DUP5 SWAP1 DUP10 SWAP1 PUSH1 0x4 ADD PUSH2 0x579E JUMP JUMPDEST PUSH1 0x20 PUSH1 0x40 MLOAD DUP1 DUP4 SUB DUP2 PUSH0 DUP8 GAS CALL ISZERO DUP1 ISZERO PUSH2 0x2EEE JUMPI RETURNDATASIZE PUSH0 DUP1 RETURNDATACOPY RETURNDATASIZE PUSH0 REVERT JUMPDEST POP POP POP POP PUSH1 0x40 MLOAD RETURNDATASIZE PUSH1 0x1F NOT PUSH1 0x1F DUP3 ADD AND DUP3 ADD DUP1 PUSH1 0x40 MSTORE POP DUP2 ADD SWAP1 PUSH2 0x2F12 SWAP2 SWAP1 PUSH2 0x57C7 JUMP JUMPDEST POP POP JUMPDEST POP POP POP POP POP POP JUMP JUMPDEST PUSH1 0xE DUP1 SLOAD PUSH2 0x2F2A SWAP1 PUSH2 0x532E JUMP JUMPDEST DUP1 PUSH1 0x1F ADD PUSH1 0x20 DUP1 SWAP2 DIV MUL PUSH1 0x20 ADD PUSH1 0x40 MLOAD SWAP1 DUP2 ADD PUSH1 0x40 MSTORE DUP1 SWAP3 SWAP2 SWAP1 DUP2 DUP2 MSTORE PUSH1 0x20 ADD DUP3 DUP1 SLOAD PUSH2 0x2F56 SWAP1 PUSH2 0x532E JUMP JUMPDEST DUP1 ISZERO PUSH2 0x2FA1 JUMPI DUP1 PUSH1 0x1F LT PUSH2 0x2F78 JUMPI PUSH2 0x100 DUP1 DUP4 SLOAD DIV MUL DUP4 MSTORE SWAP2 PUSH1 0x20 ADD SWAP2 PUSH2 0x2FA1 JUMP JUMPDEST DUP3 ADD SWAP2 SWAP1 PUSH0 MSTORE PUSH1 0x20 PUSH0 KECCAK256 SWAP1 JUMPDEST DUP2 SLOAD DUP2 MSTORE SWAP1 PUSH1 0x1 ADD SWAP1 PUSH1 0x20 ADD DUP1 DUP4 GT PUSH2 0x2F84 JUMPI DUP3 SWAP1 SUB PUSH1 0x1F AND DUP3 ADD SWAP2 JUMPDEST POP POP POP POP POP DUP2 JUMP JUMPDEST PUSH1 0x9 DUP2 DUP2 SLOAD DUP2 LT PUSH2 0xD9A JUMPI PUSH0 DUP1 REVERT JUMPDEST PUSH1 0x8 PUSH1 0x20 MSTORE DUP2 PUSH0 MSTORE PUSH1 0x40 PUSH0 KECCAK256 DUP2 DUP2 SLOAD DUP2 LT PUSH2 0x2FD1 JUMPI PUSH0 DUP1 REVERT JUMPDEST PUSH0 SWAP2 DUP3 MSTORE PUSH1 0x20 SWAP1 SWAP2 KECCAK256 PUSH1 0x3 SWAP1 SWAP2 MUL ADD DUP1 SLOAD PUSH1 0x1 DUP3 ADD SLOAD PUSH1 0x2 SWAP1 SWAP3 ADD SLOAD PUSH1 0xFF SWAP1 SWAP2 AND SWAP4 POP SWAP1 SWAP2 POP PUSH1 0x1 PUSH1 0x1 PUSH1 0xA0 SHL SUB AND DUP4 JUMP JUMPDEST PUSH0 DUP3 MLOAD PUSH1 0x1 PUSH1 0x1 PUSH1 0x40 SHL SUB DUP2 GT ISZERO PUSH2 0x301D JUMPI PUSH2 0x301D PUSH2 0x4537 JUMP JUMPDEST PUSH1 0x40 MLOAD SWAP1 DUP1 DUP3 MSTORE DUP1 PUSH1 0x20 MUL PUSH1 0x20 ADD DUP3 ADD PUSH1 0x40 MSTORE DUP1 ISZERO PUSH2 0x3046 JUMPI DUP2 PUSH1 0x20 ADD PUSH1 0x20 DUP3 MUL DUP1 CALLDATASIZE DUP4 CALLDATACOPY ADD SWAP1 POP JUMPDEST POP SWAP1 POP PUSH0 DUP1 JUMPDEST DUP5 MLOAD DUP2 LT ISZERO PUSH2 0x33B0 JUMPI PUSH0 PUSH1 0x7 PUSH0 DUP8 DUP5 DUP2 MLOAD DUP2 LT PUSH2 0x306B JUMPI PUSH2 0x306B PUSH2 0x52DF JUMP JUMPDEST PUSH1 0x20 SWAP1 DUP2 MUL SWAP2 SWAP1 SWAP2 ADD DUP2 ADD MLOAD PUSH1 0x1 PUSH1 0x1 PUSH1 0xA0 SHL SUB AND DUP3 MSTORE DUP2 DUP2 ADD SWAP3 SWAP1 SWAP3 MSTORE PUSH1 0x40 SWAP1 DUP2 ADD PUSH0 KECCAK256 DUP2 MLOAD PUSH1 0xC0 DUP2 ADD DUP4 MSTORE SWAP1 SLOAD PUSH1 0xFF DUP1 DUP3 AND ISZERO ISZERO DUP4 MSTORE PUSH2 0x100 DUP3 DIV DUP2 AND ISZERO ISZERO DUP4 DUP7 ADD MSTORE PUSH3 0x10000 DUP3 DIV DUP2 AND ISZERO ISZERO DUP4 DUP6 ADD MSTORE PUSH4 0x1000000 DUP3 DIV DUP2 AND ISZERO ISZERO PUSH1 0x60 DUP5 ADD MSTORE PUSH1 0x1 PUSH1 0x20 SHL DUP3 DIV DUP2 AND ISZERO ISZERO PUSH1 0x80 DUP5 ADD MSTORE PUSH1 0x1 PUSH1 0x28 SHL SWAP1 SWAP2 DIV AND ISZERO ISZERO PUSH1 0xA0 DUP3 ADD MSTORE SWAP1 MLOAD SWAP1 SWAP3 POP PUSH2 0x30FD SWAP2 ADD PUSH2 0x56D7 JUMP JUMPDEST PUSH1 0x40 MLOAD PUSH1 0x20 DUP2 DUP4 SUB SUB DUP2 MSTORE SWAP1 PUSH1 0x40 MSTORE DUP1 MLOAD SWAP1 PUSH1 0x20 ADD KECCAK256 DUP6 PUSH1 0x40 MLOAD PUSH1 0x20 ADD PUSH2 0x3124 SWAP2 SWAP1 PUSH2 0x56F0 JUMP JUMPDEST PUSH1 0x40 MLOAD PUSH1 0x20 DUP2 DUP4 SUB SUB DUP2 MSTORE SWAP1 PUSH1 0x40 MSTORE DUP1 MLOAD SWAP1 PUSH1 0x20 ADD KECCAK256 EQ DUP1 ISZERO PUSH2 0x3148 JUMPI POP DUP1 PUSH1 0x60 ADD MLOAD JUMPDEST ISZERO PUSH2 0x31A3 JUMPI DUP6 DUP3 DUP2 MLOAD DUP2 LT PUSH2 0x315F JUMPI PUSH2 0x315F PUSH2 0x52DF JUMP JUMPDEST PUSH1 0x20 MUL PUSH1 0x20 ADD ADD MLOAD DUP5 DUP5 DUP2 MLOAD DUP2 LT PUSH2 0x3179 JUMPI PUSH2 0x3179 PUSH2 0x52DF JUMP JUMPDEST PUSH1 0x1 PUSH1 0x1 PUSH1 0xA0 SHL SUB SWAP1 SWAP3 AND PUSH1 0x20 SWAP3 DUP4 MUL SWAP2 SWAP1 SWAP2 ADD SWAP1 SWAP2 ADD MSTORE DUP3 PUSH2 0x319B DUP2 PUSH2 0x57E2 JUMP JUMPDEST SWAP4 POP POP PUSH2 0x33A7 JUMP JUMPDEST PUSH1 0x40 MLOAD PUSH1 0x20 ADD PUSH2 0x31B2 SWAP1 PUSH2 0x56FB JUMP JUMPDEST PUSH1 0x40 MLOAD PUSH1 0x20 DUP2 DUP4 SUB SUB DUP2 MSTORE SWAP1 PUSH1 0x40 MSTORE DUP1 MLOAD SWAP1 PUSH1 0x20 ADD KECCAK256 DUP6 PUSH1 0x40 MLOAD PUSH1 0x20 ADD PUSH2 0x31D9 SWAP2 SWAP1 PUSH2 0x56F0 JUMP JUMPDEST PUSH1 0x40 MLOAD PUSH1 0x20 DUP2 DUP4 SUB SUB DUP2 MSTORE SWAP1 PUSH1 0x40 MSTORE DUP1 MLOAD SWAP1 PUSH1 0x20 ADD KECCAK256 EQ DUP1 ISZERO PUSH2 0x31FD JUMPI POP DUP1 PUSH1 0x20 ADD MLOAD JUMPDEST ISZERO PUSH2 0x3214 JUMPI DUP6 DUP3 DUP2 MLOAD DUP2 LT PUSH2 0x315F JUMPI PUSH2 0x315F PUSH2 0x52DF JUMP JUMPDEST PUSH1 0x40 MLOAD PUSH1 0x20 ADD PUSH2 0x3223 SWAP1 PUSH2 0x5712 JUMP JUMPDEST PUSH1 0x40 MLOAD PUSH1 0x20 DUP2 DUP4 SUB SUB DUP2 MSTORE SWAP1 PUSH1 0x40 MSTORE DUP1 MLOAD SWAP1 PUSH1 0x20 ADD KECCAK256 DUP6 PUSH1 0x40 MLOAD PUSH1 0x20 ADD PUSH2 0x324A SWAP2 SWAP1 PUSH2 0x56F0 JUMP JUMPDEST PUSH1 0x40 MLOAD PUSH1 0x20 DUP2 DUP4 SUB SUB DUP2 MSTORE SWAP1 PUSH1 0x40 MSTORE DUP1 MLOAD SWAP1 PUSH1 0x20 ADD KECCAK256 EQ DUP1 ISZERO PUSH2 0x326E JUMPI POP DUP1 PUSH1 0x40 ADD MLOAD JUMPDEST ISZERO PUSH2 0x3285 JUMPI DUP6 DUP3 DUP2 MLOAD DUP2 LT PUSH2 0x315F JUMPI PUSH2 0x315F PUSH2 0x52DF JUMP JUMPDEST PUSH1 0x40 MLOAD PUSH1 0x20 ADD PUSH2 0x3294 SWAP1 PUSH2 0x5730 JUMP JUMPDEST PUSH1 0x40 MLOAD PUSH1 0x20 DUP2 DUP4 SUB SUB DUP2 MSTORE SWAP1 PUSH1 0x40 MSTORE DUP1 MLOAD SWAP1 PUSH1 0x20 ADD KECCAK256 DUP6 PUSH1 0x40 MLOAD PUSH1 0x20 ADD PUSH2 0x32BB SWAP2 SWAP1 PUSH2 0x56F0 JUMP JUMPDEST PUSH1 0x40 MLOAD PUSH1 0x20 DUP2 DUP4 SUB SUB DUP2 MSTORE SWAP1 PUSH1 0x40 MSTORE DUP1 MLOAD SWAP1 PUSH1 0x20 ADD KECCAK256 EQ DUP1 ISZERO PUSH2 0x32DF JUMPI POP DUP1 PUSH1 0x80 ADD MLOAD JUMPDEST ISZERO PUSH2 0x32F6 JUMPI DUP6 DUP3 DUP2 MLOAD DUP2 LT PUSH2 0x315F JUMPI PUSH2 0x315F PUSH2 0x52DF JUMP JUMPDEST PUSH1 0x40 MLOAD PUSH1 0x20 ADD PUSH2 0x3305 SWAP1 PUSH2 0x574F JUMP JUMPDEST PUSH1 0x40 MLOAD PUSH1 0x20 DUP2 DUP4 SUB SUB DUP2 MSTORE SWAP1 PUSH1 0x40 MSTORE DUP1 MLOAD SWAP1 PUSH1 0x20 ADD KECCAK256 DUP6 PUSH1 0x40 MLOAD PUSH1 0x20 ADD PUSH2 0x332C SWAP2 SWAP1 PUSH2 0x56F0 JUMP JUMPDEST PUSH1 0x40 MLOAD PUSH1 0x20 DUP2 DUP4 SUB SUB DUP2 MSTORE SWAP1 PUSH1 0x40 MSTORE DUP1 MLOAD SWAP1 PUSH1 0x20 ADD KECCAK256 EQ DUP1 ISZERO PUSH2 0x3350 JUMPI POP DUP1 PUSH1 0xA0 ADD MLOAD JUMPDEST ISZERO PUSH2 0x33A7 JUMPI DUP6 DUP3 DUP2 MLOAD DUP2 LT PUSH2 0x3367 JUMPI PUSH2 0x3367 PUSH2 0x52DF JUMP JUMPDEST PUSH1 0x20 MUL PUSH1 0x20 ADD ADD MLOAD DUP5 DUP5 DUP2 MLOAD DUP2 LT PUSH2 0x3381 JUMPI PUSH2 0x3381 PUSH2 0x52DF JUMP JUMPDEST PUSH1 0x1 PUSH1 0x1 PUSH1 0xA0 SHL SUB SWAP1 SWAP3 AND PUSH1 0x20 SWAP3 DUP4 MUL SWAP2 SWAP1 SWAP2 ADD SWAP1 SWAP2 ADD MSTORE DUP3 PUSH2 0x33A3 DUP2 PUSH2 0x57E2 JUMP JUMPDEST SWAP4 POP POP JUMPDEST POP PUSH1 0x1 ADD PUSH2 0x304C JUMP JUMPDEST POP DUP1 ISZERO PUSH2 0x2F15 JUMPI PUSH0 DUP2 PUSH1 0x1 PUSH1 0x1 PUSH1 0x40 SHL SUB DUP2 GT ISZERO PUSH2 0x33D0 JUMPI PUSH2 0x33D0 PUSH2 0x4537 JUMP JUMPDEST PUSH1 0x40 MLOAD SWAP1 DUP1 DUP3 MSTORE DUP1 PUSH1 0x20 MUL PUSH1 0x20 ADD DUP3 ADD PUSH1 0x40 MSTORE DUP1 ISZERO PUSH2 0x33F9 JUMPI DUP2 PUSH1 0x20 ADD PUSH1 0x20 DUP3 MUL DUP1 CALLDATASIZE DUP4 CALLDATACOPY ADD SWAP1 POP JUMPDEST POP SWAP1 POP PUSH0 JUMPDEST DUP3 DUP2 LT ISZERO PUSH2 0x3452 JUMPI DUP4 DUP2 DUP2 MLOAD DUP2 LT PUSH2 0x3418 JUMPI PUSH2 0x3418 PUSH2 0x52DF JUMP JUMPDEST PUSH1 0x20 MUL PUSH1 0x20 ADD ADD MLOAD DUP3 DUP3 DUP2 MLOAD DUP2 LT PUSH2 0x3432 JUMPI PUSH2 0x3432 PUSH2 0x52DF JUMP JUMPDEST PUSH1 0x1 PUSH1 0x1 PUSH1 0xA0 SHL SUB SWAP1 SWAP3 AND PUSH1 0x20 SWAP3 DUP4 MUL SWAP2 SWAP1 SWAP2 ADD SWAP1 SWAP2 ADD MSTORE PUSH1 0x1 ADD PUSH2 0x33FE JUMP JUMPDEST POP PUSH1 0x40 DUP1 MLOAD DUP1 DUP3 ADD DUP3 MSTORE DUP9 DUP2 MSTORE PUSH1 0x20 DUP2 ADD DUP9 SWAP1 MSTORE PUSH1 0xB SLOAD SWAP2 MLOAD PUSH4 0x90CC9603 PUSH1 0xE0 SHL DUP2 MSTORE SWAP1 SWAP2 PUSH1 0x1 PUSH1 0x1 PUSH1 0xA0 SHL SUB AND SWAP1 PUSH4 0x90CC9603 SWAP1 PUSH2 0x3497 SWAP1 DUP5 SWAP1 DUP7 SWAP1 PUSH1 0x4 ADD PUSH2 0x57FA JUMP JUMPDEST PUSH1 0x20 PUSH1 0x40 MLOAD DUP1 DUP4 SUB DUP2 PUSH0 DUP8 GAS CALL ISZERO DUP1 ISZERO PUSH2 0x34B3 JUMPI RETURNDATASIZE PUSH0 DUP1 RETURNDATACOPY RETURNDATASIZE PUSH0 REVERT JUMPDEST POP POP POP POP PUSH1 0x40 MLOAD RETURNDATASIZE PUSH1 0x1F NOT PUSH1 0x1F DUP3 ADD AND DUP3 ADD DUP1 PUSH1 0x40 MSTORE POP DUP2 ADD SWAP1 PUSH2 0x34D7 SWAP2 SWAP1 PUSH2 0x57C7 JUMP JUMPDEST POP POP POP POP POP POP POP POP POP JUMP JUMPDEST PUSH1 0x9 SLOAD PUSH1 0x60 SWAP1 DUP2 SWAP1 DUP1 PUSH1 0x1 PUSH1 0x1 PUSH1 0x40 SHL SUB DUP2 GT ISZERO PUSH2 0x3502 JUMPI PUSH2 0x3502 PUSH2 0x4537 JUMP JUMPDEST PUSH1 0x40 MLOAD SWAP1 DUP1 DUP3 MSTORE DUP1 PUSH1 0x20 MUL PUSH1 0x20 ADD DUP3 ADD PUSH1 0x40 MSTORE DUP1 ISZERO PUSH2 0x353B JUMPI DUP2 PUSH1 0x20 ADD JUMPDEST PUSH2 0x3528 PUSH2 0x4449 JUMP JUMPDEST DUP2 MSTORE PUSH1 0x20 ADD SWAP1 PUSH1 0x1 SWAP1 SUB SWAP1 DUP2 PUSH2 0x3520 JUMPI SWAP1 POP JUMPDEST POP SWAP3 POP DUP1 PUSH1 0x1 PUSH1 0x1 PUSH1 0x40 SHL SUB DUP2 GT ISZERO PUSH2 0x3556 JUMPI PUSH2 0x3556 PUSH2 0x4537 JUMP JUMPDEST PUSH1 0x40 MLOAD SWAP1 DUP1 DUP3 MSTORE DUP1 PUSH1 0x20 MUL PUSH1 0x20 ADD DUP3 ADD PUSH1 0x40 MSTORE DUP1 ISZERO PUSH2 0x357F JUMPI DUP2 PUSH1 0x20 ADD PUSH1 0x20 DUP3 MUL DUP1 CALLDATASIZE DUP4 CALLDATACOPY ADD SWAP1 POP JUMPDEST POP SWAP2 POP PUSH0 JUMPDEST DUP2 DUP2 LT ISZERO PUSH2 0x390D JUMPI PUSH1 0x5 PUSH0 PUSH1 0x9 DUP4 DUP2 SLOAD DUP2 LT PUSH2 0x35A2 JUMPI PUSH2 0x35A2 PUSH2 0x52DF JUMP JUMPDEST PUSH0 SWAP2 DUP3 MSTORE PUSH1 0x20 DUP1 DUP4 KECCAK256 SWAP1 SWAP2 ADD SLOAD PUSH1 0x1 PUSH1 0x1 PUSH1 0xA0 SHL SUB SWAP1 DUP2 AND DUP5 MSTORE DUP4 DUP3 ADD SWAP5 SWAP1 SWAP5 MSTORE PUSH1 0x40 SWAP3 DUP4 ADD SWAP1 SWAP2 KECCAK256 DUP3 MLOAD PUSH2 0x140 DUP2 ADD SWAP1 SWAP4 MSTORE DUP1 SLOAD SWAP1 SWAP4 AND DUP3 MSTORE PUSH1 0x1 DUP4 ADD DUP1 SLOAD SWAP3 SWAP4 SWAP3 SWAP2 DUP5 ADD SWAP2 PUSH2 0x35F2 SWAP1 PUSH2 0x532E JUMP JUMPDEST DUP1 PUSH1 0x1F ADD PUSH1 0x20 DUP1 SWAP2 DIV MUL PUSH1 0x20 ADD PUSH1 0x40 MLOAD SWAP1 DUP2 ADD PUSH1 0x40 MSTORE DUP1 SWAP3 SWAP2 SWAP1 DUP2 DUP2 MSTORE PUSH1 0x20 ADD DUP3 DUP1 SLOAD PUSH2 0x361E SWAP1 PUSH2 0x532E JUMP JUMPDEST DUP1 ISZERO PUSH2 0x3669 JUMPI DUP1 PUSH1 0x1F LT PUSH2 0x3640 JUMPI PUSH2 0x100 DUP1 DUP4 SLOAD DIV MUL DUP4 MSTORE SWAP2 PUSH1 0x20 ADD SWAP2 PUSH2 0x3669 JUMP JUMPDEST DUP3 ADD SWAP2 SWAP1 PUSH0 MSTORE PUSH1 0x20 PUSH0 KECCAK256 SWAP1 JUMPDEST DUP2 SLOAD DUP2 MSTORE SWAP1 PUSH1 0x1 ADD SWAP1 PUSH1 0x20 ADD DUP1 DUP4 GT PUSH2 0x364C JUMPI DUP3 SWAP1 SUB PUSH1 0x1F AND DUP3 ADD SWAP2 JUMPDEST POP POP POP POP POP DUP2 MSTORE PUSH1 0x20 ADD PUSH1 0x2 DUP3 ADD DUP1 SLOAD PUSH2 0x3682 SWAP1 PUSH2 0x532E JUMP JUMPDEST DUP1 PUSH1 0x1F ADD PUSH1 0x20 DUP1 SWAP2 DIV MUL PUSH1 0x20 ADD PUSH1 0x40 MLOAD SWAP1 DUP2 ADD PUSH1 0x40 MSTORE DUP1 SWAP3 SWAP2 SWAP1 DUP2 DUP2 MSTORE PUSH1 0x20 ADD DUP3 DUP1 SLOAD PUSH2 0x36AE SWAP1 PUSH2 0x532E JUMP JUMPDEST DUP1 ISZERO PUSH2 0x36F9 JUMPI DUP1 PUSH1 0x1F LT PUSH2 0x36D0 JUMPI PUSH2 0x100 DUP1 DUP4 SLOAD DIV MUL DUP4 MSTORE SWAP2 PUSH1 0x20 ADD SWAP2 PUSH2 0x36F9 JUMP JUMPDEST DUP3 ADD SWAP2 SWAP1 PUSH0 MSTORE PUSH1 0x20 PUSH0 KECCAK256 SWAP1 JUMPDEST DUP2 SLOAD DUP2 MSTORE SWAP1 PUSH1 0x1 ADD SWAP1 PUSH1 0x20 ADD DUP1 DUP4 GT PUSH2 0x36DC JUMPI DUP3 SWAP1 SUB PUSH1 0x1F AND DUP3 ADD SWAP2 JUMPDEST POP POP POP SWAP2 DUP4 MSTORE POP POP PUSH1 0x3 DUP3 ADD SLOAD PUSH1 0xFF AND PUSH1 0x20 DUP3 ADD MSTORE PUSH1 0x4 DUP3 ADD SLOAD PUSH1 0x40 DUP3 ADD MSTORE PUSH1 0x5 DUP3 ADD DUP1 SLOAD PUSH1 0x60 SWAP1 SWAP3 ADD SWAP2 PUSH2 0x372D SWAP1 PUSH2 0x532E JUMP JUMPDEST DUP1 PUSH1 0x1F ADD PUSH1 0x20 DUP1 SWAP2 DIV MUL PUSH1 0x20 ADD PUSH1 0x40 MLOAD SWAP1 DUP2 ADD PUSH1 0x40 MSTORE DUP1 SWAP3 SWAP2 SWAP1 DUP2 DUP2 MSTORE PUSH1 0x20 ADD DUP3 DUP1 SLOAD PUSH2 0x3759 SWAP1 PUSH2 0x532E JUMP JUMPDEST DUP1 ISZERO PUSH2 0x37A4 JUMPI DUP1 PUSH1 0x1F LT PUSH2 0x377B JUMPI PUSH2 0x100 DUP1 DUP4 SLOAD DIV MUL DUP4 MSTORE SWAP2 PUSH1 0x20 ADD SWAP2 PUSH2 0x37A4 JUMP JUMPDEST DUP3 ADD SWAP2 SWAP1 PUSH0 MSTORE PUSH1 0x20 PUSH0 KECCAK256 SWAP1 JUMPDEST DUP2 SLOAD DUP2 MSTORE SWAP1 PUSH1 0x1 ADD SWAP1 PUSH1 0x20 ADD DUP1 DUP4 GT PUSH2 0x3787 JUMPI DUP3 SWAP1 SUB PUSH1 0x1F AND DUP3 ADD SWAP2 JUMPDEST POP POP POP POP POP DUP2 MSTORE PUSH1 0x20 ADD PUSH1 0x6 DUP3 ADD DUP1 SLOAD PUSH2 0x37BD SWAP1 PUSH2 0x532E JUMP JUMPDEST DUP1 PUSH1 0x1F ADD PUSH1 0x20 DUP1 SWAP2 DIV MUL PUSH1 0x20 ADD PUSH1 0x40 MLOAD SWAP1 DUP2 ADD PUSH1 0x40 MSTORE DUP1 SWAP3 SWAP2 SWAP1 DUP2 DUP2 MSTORE PUSH1 0x20 ADD DUP3 DUP1 SLOAD PUSH2 0x37E9 SWAP1 PUSH2 0x532E JUMP JUMPDEST DUP1 ISZERO PUSH2 0x3834 JUMPI DUP1 PUSH1 0x1F LT PUSH2 0x380B JUMPI PUSH2 0x100 DUP1 DUP4 SLOAD DIV MUL DUP4 MSTORE SWAP2 PUSH1 0x20 ADD SWAP2 PUSH2 0x3834 JUMP JUMPDEST DUP3 ADD SWAP2 SWAP1 PUSH0 MSTORE PUSH1 0x20 PUSH0 KECCAK256 SWAP1 JUMPDEST DUP2 SLOAD DUP2 MSTORE SWAP1 PUSH1 0x1 ADD SWAP1 PUSH1 0x20 ADD DUP1 DUP4 GT PUSH2 0x3817 JUMPI DUP3 SWAP1 SUB PUSH1 0x1F AND DUP3 ADD SWAP2 JUMPDEST POP POP POP SWAP2 DUP4 MSTORE POP POP PUSH1 0x7 DUP3 ADD SLOAD PUSH1 0x20 SWAP1 SWAP2 ADD SWAP1 PUSH1 0xFF AND PUSH1 0x3 DUP2 GT ISZERO PUSH2 0x385B JUMPI PUSH2 0x385B PUSH2 0x4956 JUMP JUMPDEST PUSH1 0x3 DUP2 GT ISZERO PUSH2 0x386C JUMPI PUSH2 0x386C PUSH2 0x4956 JUMP JUMPDEST DUP2 MSTORE PUSH1 0x8 DUP3 ADD SLOAD PUSH1 0x20 DUP3 ADD MSTORE PUSH1 0x9 SWAP1 SWAP2 ADD SLOAD PUSH1 0x1 PUSH1 0x1 PUSH1 0xA0 SHL SUB AND PUSH1 0x40 SWAP1 SWAP2 ADD MSTORE DUP5 MLOAD DUP6 SWAP1 DUP4 SWAP1 DUP2 LT PUSH2 0x38A1 JUMPI PUSH2 0x38A1 PUSH2 0x52DF JUMP JUMPDEST PUSH1 0x20 MUL PUSH1 0x20 ADD ADD DUP2 SWAP1 MSTORE POP PUSH1 0x8 PUSH0 PUSH1 0x9 DUP4 DUP2 SLOAD DUP2 LT PUSH2 0x38C2 JUMPI PUSH2 0x38C2 PUSH2 0x52DF JUMP JUMPDEST PUSH0 SWAP2 DUP3 MSTORE PUSH1 0x20 DUP1 DUP4 KECCAK256 SWAP1 SWAP2 ADD SLOAD PUSH1 0x1 PUSH1 0x1 PUSH1 0xA0 SHL SUB AND DUP4 MSTORE DUP3 ADD SWAP3 SWAP1 SWAP3 MSTORE PUSH1 0x40 ADD SWAP1 KECCAK256 SLOAD DUP4 MLOAD DUP5 SWAP1 DUP4 SWAP1 DUP2 LT PUSH2 0x38FA JUMPI PUSH2 0x38FA PUSH2 0x52DF JUMP JUMPDEST PUSH1 0x20 SWAP1 DUP2 MUL SWAP2 SWAP1 SWAP2 ADD ADD MSTORE PUSH1 0x1 ADD PUSH2 0x3584 JUMP JUMPDEST POP POP SWAP1 SWAP2 JUMP JUMPDEST PUSH0 DUP1 PUSH2 0x2167 JUMP JUMPDEST PUSH0 PUSH1 0x2 PUSH2 0x2167 JUMP JUMPDEST DUP1 MLOAD MLOAD PUSH0 SWAP1 PUSH2 0x3990 JUMPI PUSH1 0x40 MLOAD PUSH3 0x461BCD PUSH1 0xE5 SHL DUP2 MSTORE PUSH1 0x20 PUSH1 0x4 DUP3 ADD MSTORE PUSH1 0x41 PUSH1 0x24 DUP3 ADD MSTORE PUSH0 DUP1 MLOAD PUSH1 0x20 PUSH2 0x5A90 DUP4 CODECOPY DUP2 MLOAD SWAP2 MSTORE PUSH1 0x44 DUP3 ADD MSTORE PUSH32 0x34372C226D657373616765223A2022496E76616C696420757365726E616D6522 PUSH1 0x64 DUP3 ADD MSTORE PUSH1 0x7D PUSH1 0xF8 SHL PUSH1 0x84 DUP3 ADD MSTORE PUSH1 0xA4 ADD PUSH2 0xAA9 JUMP JUMPDEST CALLER PUSH0 SWAP1 DUP2 MSTORE PUSH1 0x5 PUSH1 0x20 MSTORE PUSH1 0x40 SWAP1 KECCAK256 PUSH1 0x8 ADD SLOAD ISZERO PUSH2 0x3A02 JUMPI PUSH1 0x40 MLOAD PUSH3 0x461BCD PUSH1 0xE5 SHL DUP2 MSTORE PUSH1 0x20 PUSH1 0x4 DUP3 ADD MSTORE PUSH1 0x3E PUSH1 0x24 DUP3 ADD MSTORE PUSH0 DUP1 MLOAD PUSH1 0x20 PUSH2 0x5A90 DUP4 CODECOPY DUP2 MLOAD SWAP2 MSTORE PUSH1 0x44 DUP3 ADD MSTORE PUSH32 0x3130322C20226D657373616765223A20225573657220657869737473227D0000 PUSH1 0x64 DUP3 ADD MSTORE PUSH1 0x84 ADD PUSH2 0xAA9 JUMP JUMPDEST PUSH1 0xA0 DUP3 ADD MLOAD PUSH1 0x1 PUSH1 0x1 PUSH1 0xA0 SHL SUB AND PUSH2 0x3A6F JUMPI PUSH1 0x40 MLOAD PUSH3 0x461BCD PUSH1 0xE5 SHL DUP2 MSTORE PUSH1 0x20 PUSH1 0x4 DUP3 ADD MSTORE PUSH1 0x3F PUSH1 0x24 DUP3 ADD MSTORE PUSH0 DUP1 MLOAD PUSH1 0x20 PUSH2 0x5A90 DUP4 CODECOPY DUP2 MLOAD SWAP2 MSTORE PUSH1 0x44 DUP3 ADD MSTORE PUSH32 0x3130312C20226D657373616765223A2022506172656E7420656D707479227D00 PUSH1 0x64 DUP3 ADD MSTORE PUSH1 0x84 ADD PUSH2 0xAA9 JUMP JUMPDEST PUSH1 0xA SLOAD PUSH1 0xA0 DUP4 ADD MLOAD PUSH1 0x40 MLOAD PUSH4 0x45ACE91F PUSH1 0xE1 SHL DUP2 MSTORE PUSH1 0x1 PUSH1 0x1 PUSH1 0xA0 SHL SUB SWAP1 SWAP3 AND SWAP2 PUSH4 0x8B59D23E SWAP2 PUSH2 0x3AA2 SWAP2 PUSH1 0x4 ADD PUSH2 0x47DB JUMP JUMPDEST PUSH1 0x20 PUSH1 0x40 MLOAD DUP1 DUP4 SUB DUP2 DUP7 GAS STATICCALL ISZERO DUP1 ISZERO PUSH2 0x3ABD JUMPI RETURNDATASIZE PUSH0 DUP1 RETURNDATACOPY RETURNDATASIZE PUSH0 REVERT JUMPDEST POP POP POP POP PUSH1 0x40 MLOAD RETURNDATASIZE PUSH1 0x1F NOT PUSH1 0x1F DUP3 ADD AND DUP3 ADD DUP1 PUSH1 0x40 MSTORE POP DUP2 ADD SWAP1 PUSH2 0x3AE1 SWAP2 SWAP1 PUSH2 0x57C7 JUMP JUMPDEST PUSH2 0x3B5C JUMPI PUSH1 0x40 MLOAD PUSH3 0x461BCD PUSH1 0xE5 SHL DUP2 MSTORE PUSH1 0x20 PUSH1 0x4 DUP3 ADD MSTORE PUSH1 0x53 PUSH1 0x24 DUP3 ADD MSTORE PUSH0 DUP1 MLOAD PUSH1 0x20 PUSH2 0x5A90 DUP4 CODECOPY DUP2 MLOAD SWAP2 MSTORE PUSH1 0x44 DUP3 ADD MSTORE PUSH32 0x3130312C20226D657373616765223A2022506172656E74206E6F742065786973 PUSH1 0x64 DUP3 ADD MSTORE PUSH19 0x7473222B20706172616D732E706172656E747D PUSH1 0x68 SHL PUSH1 0x84 DUP3 ADD MSTORE PUSH1 0xA4 ADD PUSH2 0xAA9 JUMP JUMPDEST CALLER PUSH0 DUP2 DUP2 MSTORE PUSH1 0x5 PUSH1 0x20 MSTORE PUSH1 0x40 SWAP1 KECCAK256 DUP1 SLOAD PUSH1 0x1 PUSH1 0x1 PUSH1 0xA0 SHL SUB NOT AND SWAP1 SWAP2 OR DUP2 SSTORE DUP3 MLOAD PUSH1 0x1 SWAP1 SWAP2 ADD SWAP1 PUSH2 0x3B8D SWAP1 DUP3 PUSH2 0x550A JUMP JUMPDEST POP PUSH1 0xA0 DUP3 ADD MLOAD CALLER PUSH0 SWAP1 DUP2 MSTORE PUSH1 0x5 PUSH1 0x20 SWAP1 DUP2 MSTORE PUSH1 0x40 SWAP1 SWAP2 KECCAK256 PUSH1 0x9 DUP2 ADD DUP1 SLOAD PUSH1 0x1 PUSH1 0x1 PUSH1 0xA0 SHL SUB NOT AND PUSH1 0x1 PUSH1 0x1 PUSH1 0xA0 SHL SUB SWAP1 SWAP5 AND SWAP4 SWAP1 SWAP4 OR SWAP1 SWAP3 SSTORE DUP4 ADD MLOAD PUSH1 0x2 SWAP1 SWAP2 ADD SWAP1 PUSH2 0x3BD9 SWAP1 DUP3 PUSH2 0x550A JUMP JUMPDEST POP PUSH1 0x40 DUP3 DUP2 ADD MLOAD CALLER PUSH0 SWAP1 DUP2 MSTORE PUSH1 0x5 PUSH1 0x20 DUP2 SWAP1 MSTORE SWAP3 SWAP1 KECCAK256 PUSH1 0x3 DUP2 ADD DUP1 SLOAD PUSH1 0xFF NOT AND PUSH1 0xFF SWAP1 SWAP4 AND SWAP3 SWAP1 SWAP3 OR SWAP1 SWAP2 SSTORE PUSH1 0x60 DUP5 ADD MLOAD PUSH1 0x4 DUP3 ADD SSTORE PUSH1 0x80 DUP5 ADD MLOAD SWAP2 ADD SWAP1 PUSH2 0x3C21 SWAP1 DUP3 PUSH2 0x550A JUMP JUMPDEST POP CALLER PUSH0 SWAP1 DUP2 MSTORE PUSH1 0x5 PUSH1 0x20 MSTORE PUSH1 0x40 SWAP1 KECCAK256 PUSH1 0x7 DUP2 ADD DUP1 SLOAD PUSH1 0xFF NOT AND PUSH1 0x1 OR SWAP1 SSTORE TIMESTAMP PUSH1 0x8 DUP3 ADD SSTORE PUSH1 0xC0 DUP4 ADD MLOAD PUSH1 0x6 SWAP1 SWAP2 ADD SWAP1 PUSH2 0x3C5A SWAP1 DUP3 PUSH2 0x550A JUMP JUMPDEST POP POP PUSH1 0x9 DUP1 SLOAD PUSH1 0x1 DUP2 DUP2 ADD DUP4 SSTORE PUSH0 SWAP3 SWAP1 SWAP3 MSTORE PUSH0 DUP1 MLOAD PUSH1 0x20 PUSH2 0x5B88 DUP4 CODECOPY DUP2 MLOAD SWAP2 MSTORE ADD DUP1 SLOAD PUSH1 0x1 PUSH1 0x1 PUSH1 0xA0 SHL SUB NOT AND CALLER OR SWAP1 SSTORE SWAP2 SWAP1 POP JUMP JUMPDEST PUSH0 PUSH1 0x2 CALLER PUSH0 SWAP1 DUP2 MSTORE PUSH1 0x5 PUSH1 0x20 MSTORE PUSH1 0x40 SWAP1 KECCAK256 PUSH1 0x7 ADD SLOAD PUSH1 0xFF AND PUSH1 0x3 DUP2 GT ISZERO PUSH2 0x3CB9 JUMPI PUSH2 0x3CB9 PUSH2 0x4956 JUMP JUMPDEST EQ PUSH2 0x3D2B JUMPI PUSH1 0x40 MLOAD PUSH3 0x461BCD PUSH1 0xE5 SHL DUP2 MSTORE PUSH1 0x20 PUSH1 0x4 DUP3 ADD MSTORE PUSH1 0x49 PUSH1 0x24 DUP3 ADD MSTORE PUSH0 DUP1 MLOAD PUSH1 0x20 PUSH2 0x5A90 DUP4 CODECOPY DUP2 MLOAD SWAP2 MSTORE PUSH1 0x44 DUP3 ADD MSTORE PUSH32 0x35312C20226D657373616765223A2022596F7520617265206E6F742061207265 PUSH1 0x64 DUP3 ADD MSTORE PUSH9 0x7461696C65722E227D PUSH1 0xB8 SHL PUSH1 0x84 DUP3 ADD MSTORE PUSH1 0xA4 ADD PUSH2 0xAA9 JUMP JUMPDEST POP PUSH1 0x40 DUP1 MLOAD PUSH1 0xC0 DUP2 ADD DUP3 MSTORE SWAP7 ISZERO ISZERO DUP8 MSTORE SWAP5 ISZERO ISZERO PUSH1 0x20 DUP1 DUP9 ADD SWAP2 DUP3 MSTORE SWAP5 ISZERO ISZERO DUP8 DUP8 ADD SWAP1 DUP2 MSTORE SWAP4 ISZERO ISZERO PUSH1 0x60 DUP9 ADD SWAP1 DUP2 MSTORE SWAP3 ISZERO ISZERO PUSH1 0x80 DUP9 ADD SWAP1 DUP2 MSTORE SWAP2 ISZERO ISZERO PUSH1 0xA0 DUP9 ADD SWAP1 DUP2 MSTORE CALLER PUSH0 SWAP1 DUP2 MSTORE PUSH1 0x7 SWAP1 SWAP7 MSTORE SWAP6 SWAP1 SWAP5 KECCAK256 SWAP6 MLOAD DUP7 SLOAD SWAP5 MLOAD SWAP4 MLOAD SWAP3 MLOAD SWAP2 MLOAD SWAP6 MLOAD PUSH2 0xFFFF NOT SWAP1 SWAP6 AND SWAP1 ISZERO ISZERO PUSH2 0xFF00 NOT AND OR PUSH2 0x100 SWAP4 ISZERO ISZERO SWAP4 SWAP1 SWAP4 MUL SWAP3 SWAP1 SWAP3 OR PUSH4 0xFFFF0000 NOT AND PUSH3 0x10000 SWAP2 ISZERO ISZERO SWAP2 SWAP1 SWAP2 MUL PUSH4 0xFF000000 NOT AND OR PUSH4 0x1000000 SWAP2 ISZERO ISZERO SWAP2 SWAP1 SWAP2 MUL OR PUSH2 0xFFFF PUSH1 0x20 SHL NOT AND PUSH1 0x1 PUSH1 0x20 SHL SWAP3 ISZERO ISZERO SWAP3 SWAP1 SWAP3 MUL PUSH1 0xFF PUSH1 0x28 SHL NOT AND SWAP2 SWAP1 SWAP2 OR PUSH1 0x1 PUSH1 0x28 SHL SWAP2 ISZERO ISZERO SWAP2 SWAP1 SWAP2 MUL OR SWAP1 SSTORE PUSH1 0x1 SWAP1 JUMP JUMPDEST CALLER PUSH0 SWAP1 DUP2 MSTORE PUSH1 0x5 PUSH1 0x20 MSTORE PUSH1 0x40 DUP2 KECCAK256 SLOAD PUSH1 0x1 PUSH1 0x1 PUSH1 0xA0 SHL SUB AND PUSH2 0x3E78 JUMPI PUSH1 0x40 MLOAD PUSH3 0x461BCD PUSH1 0xE5 SHL DUP2 MSTORE PUSH1 0x20 PUSH1 0x4 DUP3 ADD MSTORE PUSH1 0x3D PUSH1 0x24 DUP3 ADD MSTORE PUSH0 DUP1 MLOAD PUSH1 0x20 PUSH2 0x5A90 DUP4 CODECOPY DUP2 MLOAD SWAP2 MSTORE PUSH1 0x44 DUP3 ADD MSTORE PUSH32 0x34332C226D657373616765223A2022496E76616C69642075736572227D000000 PUSH1 0x64 DUP3 ADD MSTORE PUSH1 0x84 ADD PUSH2 0xAA9 JUMP JUMPDEST DUP3 MLOAD CALLER PUSH0 SWAP1 DUP2 MSTORE PUSH1 0x5 PUSH1 0x20 MSTORE PUSH1 0x40 SWAP1 KECCAK256 PUSH1 0x1 ADD SWAP1 PUSH2 0x3E96 SWAP1 DUP3 PUSH2 0x550A JUMP JUMPDEST POP PUSH1 0x20 DUP1 DUP5 ADD MLOAD CALLER PUSH0 SWAP1 DUP2 MSTORE PUSH1 0x5 SWAP1 SWAP3 MSTORE PUSH1 0x40 SWAP1 SWAP2 KECCAK256 PUSH1 0x2 ADD SWAP1 PUSH2 0x3EBA SWAP1 DUP3 PUSH2 0x550A JUMP JUMPDEST POP PUSH1 0x40 DUP4 DUP2 ADD MLOAD CALLER PUSH0 SWAP1 DUP2 MSTORE PUSH1 0x5 PUSH1 0x20 DUP2 SWAP1 MSTORE SWAP3 SWAP1 KECCAK256 PUSH1 0x3 DUP2 ADD DUP1 SLOAD PUSH1 0xFF NOT AND PUSH1 0xFF SWAP1 SWAP4 AND SWAP3 SWAP1 SWAP3 OR SWAP1 SWAP2 SSTORE PUSH1 0x60 DUP6 ADD MLOAD PUSH1 0x4 DUP3 ADD SSTORE PUSH1 0x80 DUP6 ADD MLOAD SWAP2 ADD SWAP1 PUSH2 0x3F02 SWAP1 DUP3 PUSH2 0x550A JUMP JUMPDEST POP PUSH1 0xC0 DUP4 ADD MLOAD CALLER PUSH0 SWAP1 DUP2 MSTORE PUSH1 0x5 PUSH1 0x20 MSTORE PUSH1 0x40 SWAP1 KECCAK256 PUSH1 0x6 ADD SWAP1 PUSH2 0x3F24 SWAP1 DUP3 PUSH2 0x550A JUMP JUMPDEST POP CALLER PUSH0 SWAP1 DUP2 MSTORE PUSH1 0x6 PUSH1 0x20 MSTORE PUSH1 0x40 DUP2 KECCAK256 PUSH2 0x3F3C SWAP2 PUSH2 0x442B JUMP JUMPDEST PUSH0 JUMPDEST DUP3 MLOAD DUP2 LT ISZERO PUSH2 0xA72 JUMPI CALLER PUSH0 SWAP1 DUP2 MSTORE PUSH1 0x6 PUSH1 0x20 MSTORE PUSH1 0x40 SWAP1 KECCAK256 DUP4 MLOAD DUP5 SWAP1 DUP4 SWAP1 DUP2 LT PUSH2 0x3F69 JUMPI PUSH2 0x3F69 PUSH2 0x52DF JUMP JUMPDEST PUSH1 0x20 SWAP1 DUP2 MUL SWAP2 SWAP1 SWAP2 ADD DUP2 ADD MLOAD DUP3 SLOAD PUSH1 0x1 DUP2 ADD DUP5 SSTORE PUSH0 SWAP4 DUP5 MSTORE SWAP2 SWAP1 SWAP3 KECCAK256 DUP3 MLOAD PUSH1 0x5 SWAP1 SWAP3 MUL ADD SWAP1 DUP2 SWAP1 PUSH2 0x3F9A SWAP1 DUP3 PUSH2 0x550A JUMP JUMPDEST POP PUSH1 0x20 DUP3 ADD MLOAD PUSH1 0x1 DUP3 ADD SWAP1 PUSH2 0x3FAF SWAP1 DUP3 PUSH2 0x550A JUMP JUMPDEST POP PUSH1 0x40 DUP3 ADD MLOAD PUSH1 0x2 DUP3 ADD SWAP1 PUSH2 0x3FC4 SWAP1 DUP3 PUSH2 0x550A JUMP JUMPDEST POP PUSH1 0x60 DUP3 ADD MLOAD PUSH1 0x3 DUP3 ADD SWAP1 PUSH2 0x3FD9 SWAP1 DUP3 PUSH2 0x550A JUMP JUMPDEST POP PUSH1 0x80 DUP3 ADD MLOAD PUSH1 0x4 DUP3 ADD SWAP1 PUSH2 0x3FEE SWAP1 DUP3 PUSH2 0x550A JUMP JUMPDEST POP POP POP PUSH1 0x1 ADD PUSH2 0x3F3E JUMP JUMPDEST PUSH0 PUSH2 0x4003 DUP5 PUSH2 0x41F3 JUMP JUMPDEST SWAP1 POP PUSH2 0x4067 DUP2 PUSH1 0x40 MLOAD PUSH1 0x20 ADD PUSH2 0x4019 SWAP2 SWAP1 PUSH2 0x584F JUMP JUMPDEST PUSH1 0x40 DUP1 MLOAD PUSH1 0x1F NOT DUP2 DUP5 SUB ADD DUP2 MSTORE PUSH1 0xC0 DUP4 ADD SWAP1 SWAP2 MSTORE PUSH1 0x86 DUP1 DUP4 MSTORE SWAP1 SWAP2 SWAP1 PUSH2 0x5C36 PUSH1 0x20 DUP4 ADD CODECOPY DUP6 PUSH1 0x40 MLOAD DUP1 PUSH1 0x40 ADD PUSH1 0x40 MSTORE DUP1 PUSH1 0xB DUP2 MSTORE PUSH1 0x20 ADD PUSH11 0x4F72646572557064617465 PUSH1 0xA8 SHL DUP2 MSTORE POP PUSH2 0x2C11 JUMP JUMPDEST PUSH2 0x40D1 DUP2 PUSH1 0x40 MLOAD PUSH1 0x20 ADD PUSH2 0x407B SWAP2 SWAP1 PUSH2 0x584F JUMP JUMPDEST PUSH1 0x40 DUP1 MLOAD PUSH1 0x1F NOT DUP2 DUP5 SUB ADD DUP2 MSTORE PUSH1 0xA0 DUP4 ADD SWAP1 SWAP2 MSTORE PUSH1 0x61 DUP1 DUP4 MSTORE SWAP1 SWAP2 SWAP1 PUSH2 0x5B27 PUSH1 0x20 DUP4 ADD CODECOPY DUP5 PUSH1 0x40 MLOAD DUP1 PUSH1 0x40 ADD PUSH1 0x40 MSTORE DUP1 PUSH1 0x13 DUP2 MSTORE PUSH1 0x20 ADD PUSH19 0x437573746F6D65724F72646572557064617465 PUSH1 0x68 SHL DUP2 MSTORE POP PUSH2 0x3003 JUMP JUMPDEST PUSH2 0x173E DUP2 PUSH1 0x40 MLOAD PUSH1 0x20 ADD PUSH2 0x40E5 SWAP2 SWAP1 PUSH2 0x586F JUMP JUMPDEST PUSH1 0x40 DUP1 MLOAD PUSH1 0x1F NOT DUP2 DUP5 SUB ADD DUP2 MSTORE PUSH1 0xC0 DUP4 ADD SWAP1 SWAP2 MSTORE PUSH1 0x8E DUP1 DUP4 MSTORE SWAP1 SWAP2 SWAP1 PUSH2 0x5BA8 PUSH1 0x20 DUP4 ADD CODECOPY PUSH0 SLOAD PUSH1 0x40 DUP1 MLOAD DUP1 DUP3 ADD SWAP1 SWAP2 MSTORE PUSH1 0x13 DUP2 MSTORE PUSH19 0x437573746F6D65724F72646572557064617465 PUSH1 0x68 SHL PUSH1 0x20 DUP3 ADD MSTORE PUSH1 0x1 PUSH1 0x1 PUSH1 0xA0 SHL SUB SWAP1 SWAP2 AND SWAP1 PUSH2 0x2C11 JUMP JUMPDEST PUSH1 0x4 DUP2 DUP2 SLOAD DUP2 LT PUSH2 0xD9A JUMPI PUSH0 DUP1 REVERT JUMPDEST PUSH0 PUSH2 0x415F DUP5 PUSH2 0x41F3 JUMP JUMPDEST SWAP1 POP PUSH2 0x41CB DUP2 PUSH1 0x40 MLOAD PUSH1 0x20 ADD PUSH2 0x4175 SWAP2 SWAP1 PUSH2 0x584F JUMP JUMPDEST PUSH1 0x40 DUP1 MLOAD PUSH1 0x1F NOT DUP2 DUP5 SUB ADD DUP2 MSTORE PUSH1 0xA0 DUP4 ADD SWAP1 SWAP2 MSTORE PUSH1 0x62 DUP1 DUP4 MSTORE SWAP1 SWAP2 SWAP1 PUSH2 0x5A2E PUSH1 0x20 DUP4 ADD CODECOPY DUP5 PUSH1 0x40 MLOAD DUP1 PUSH1 0x40 ADD PUSH1 0x40 MSTORE DUP1 PUSH1 0x13 DUP2 MSTORE PUSH1 0x20 ADD PUSH19 0x437573746F6D65724F72646572557064617465 PUSH1 0x68 SHL DUP2 MSTORE POP PUSH2 0x2C11 JUMP JUMPDEST PUSH2 0x41DF DUP2 PUSH1 0x40 MLOAD PUSH1 0x20 ADD PUSH2 0x4019 SWAP2 SWAP1 PUSH2 0x5895 JUMP JUMPDEST PUSH2 0x173E DUP2 PUSH1 0x40 MLOAD PUSH1 0x20 ADD PUSH2 0x40E5 SWAP2 SWAP1 PUSH2 0x58BC JUMP JUMPDEST PUSH1 0x60 PUSH0 PUSH2 0x41FF DUP4 PUSH2 0x431C JUMP JUMPDEST PUSH1 0x1 ADD SWAP1 POP PUSH0 DUP2 PUSH1 0x1 PUSH1 0x1 PUSH1 0x40 SHL SUB DUP2 GT ISZERO PUSH2 0x421D JUMPI PUSH2 0x421D PUSH2 0x4537 JUMP JUMPDEST PUSH1 0x40 MLOAD SWAP1 DUP1 DUP3 MSTORE DUP1 PUSH1 0x1F ADD PUSH1 0x1F NOT AND PUSH1 0x20 ADD DUP3 ADD PUSH1 0x40 MSTORE DUP1 ISZERO PUSH2 0x4247 JUMPI PUSH1 0x20 DUP3 ADD DUP2 DUP1 CALLDATASIZE DUP4 CALLDATACOPY ADD SWAP1 POP JUMPDEST POP SWAP1 POP DUP2 DUP2 ADD PUSH1 0x20 ADD JUMPDEST PUSH0 NOT ADD PUSH16 0x181899199A1A9B1B9C1CB0B131B232B3 PUSH1 0x81 SHL PUSH1 0xA DUP7 MOD BYTE DUP2 MSTORE8 PUSH1 0xA DUP6 DIV SWAP5 POP DUP5 PUSH2 0x4251 JUMPI JUMPDEST POP SWAP4 SWAP3 POP POP POP JUMP JUMPDEST PUSH1 0x1 PUSH1 0x1 PUSH1 0xA0 SHL SUB DUP3 AND PUSH0 DUP2 DUP2 MSTORE PUSH1 0x5 PUSH1 0x20 MSTORE PUSH1 0x40 SWAP1 KECCAK256 DUP1 SLOAD PUSH1 0x1 PUSH1 0x1 PUSH1 0xA0 SHL SUB NOT AND SWAP1 SWAP2 OR DUP2 SSTORE PUSH1 0x7 ADD DUP1 SLOAD DUP3 SWAP2 SWAP1 PUSH1 0xFF NOT AND PUSH1 0x1 DUP4 PUSH1 0x3 DUP2 GT ISZERO PUSH2 0x42CB JUMPI PUSH2 0x42CB PUSH2 0x4956 JUMP JUMPDEST MUL OR SWAP1 SSTORE POP POP PUSH1 0x1 PUSH1 0x1 PUSH1 0xA0 SHL SUB AND PUSH0 DUP2 DUP2 MSTORE PUSH1 0x5 PUSH1 0x20 MSTORE PUSH1 0x40 DUP2 KECCAK256 TIMESTAMP PUSH1 0x8 SWAP1 SWAP2 ADD SSTORE PUSH1 0x9 DUP1 SLOAD PUSH1 0x1 DUP2 ADD DUP3 SSTORE SWAP2 MSTORE PUSH0 DUP1 MLOAD PUSH1 0x20 PUSH2 0x5B88 DUP4 CODECOPY DUP2 MLOAD SWAP2 MSTORE ADD DUP1 SLOAD PUSH1 0x1 PUSH1 0x1 PUSH1 0xA0 SHL SUB NOT AND SWAP1 SWAP2 OR SWAP1 SSTORE JUMP JUMPDEST PUSH0 DUP1 PUSH19 0x184F03E93FF9F4DAA797ED6E38ED64BF6A1F01 PUSH1 0x40 SHL DUP4 LT PUSH2 0x435A JUMPI PUSH19 0x184F03E93FF9F4DAA797ED6E38ED64BF6A1F01 PUSH1 0x40 SHL DUP4 DIV SWAP3 POP PUSH1 0x40 ADD JUMPDEST PUSH10 0x4EE2D6D415B85ACEF81 PUSH1 0x20 SHL DUP4 LT PUSH2 0x4384 JUMPI PUSH10 0x4EE2D6D415B85ACEF81 PUSH1 0x20 SHL DUP4 DIV SWAP3 POP PUSH1 0x20 ADD JUMPDEST PUSH7 0x2386F26FC10000 DUP4 LT PUSH2 0x43A2 JUMPI PUSH7 0x2386F26FC10000 DUP4 DIV SWAP3 POP PUSH1 0x10 ADD JUMPDEST PUSH4 0x5F5E100 DUP4 LT PUSH2 0x43BA JUMPI PUSH4 0x5F5E100 DUP4 DIV SWAP3 POP PUSH1 0x8 ADD JUMPDEST PUSH2 0x2710 DUP4 LT PUSH2 0x43CE JUMPI PUSH2 0x2710 DUP4 DIV SWAP3 POP PUSH1 0x4 ADD JUMPDEST PUSH1 0x64 DUP4 LT PUSH2 0x43E0 JUMPI PUSH1 0x64 DUP4 DIV SWAP3 POP PUSH1 0x2 ADD JUMPDEST PUSH1 0xA DUP4 LT PUSH2 0xA78 JUMPI PUSH1 0x1 ADD SWAP3 SWAP2 POP POP JUMP JUMPDEST POP DUP1 SLOAD PUSH2 0x43FD SWAP1 PUSH2 0x532E JUMP JUMPDEST PUSH0 DUP3 SSTORE DUP1 PUSH1 0x1F LT PUSH2 0x440C JUMPI POP POP JUMP JUMPDEST PUSH1 0x1F ADD PUSH1 0x20 SWAP1 DIV SWAP1 PUSH0 MSTORE PUSH1 0x20 PUSH0 KECCAK256 SWAP1 DUP2 ADD SWAP1 PUSH2 0x4428 SWAP2 SWAP1 PUSH2 0x44B4 JUMP JUMPDEST POP JUMP JUMPDEST POP DUP1 SLOAD PUSH0 DUP3 SSTORE PUSH1 0x5 MUL SWAP1 PUSH0 MSTORE PUSH1 0x20 PUSH0 KECCAK256 SWAP1 DUP2 ADD SWAP1 PUSH2 0x4428 SWAP2 SWAP1 PUSH2 0x44CC JUMP JUMPDEST PUSH1 0x40 MLOAD DUP1 PUSH2 0x140 ADD PUSH1 0x40 MSTORE DUP1 PUSH0 PUSH1 0x1 PUSH1 0x1 PUSH1 0xA0 SHL SUB AND DUP2 MSTORE PUSH1 0x20 ADD PUSH1 0x60 DUP2 MSTORE PUSH1 0x20 ADD PUSH1 0x60 DUP2 MSTORE PUSH1 0x20 ADD PUSH0 PUSH1 0xFF AND DUP2 MSTORE PUSH1 0x20 ADD PUSH0 DUP2 MSTORE PUSH1 0x20 ADD PUSH1 0x60 DUP2 MSTORE PUSH1 0x20 ADD PUSH1 0x60 DUP2 MSTORE PUSH1 0x20 ADD PUSH0 PUSH1 0x3 DUP2 GT ISZERO PUSH2 0x44A1 JUMPI PUSH2 0x44A1 PUSH2 0x4956 JUMP JUMPDEST DUP2 MSTORE PUSH0 PUSH1 0x20 DUP3 ADD DUP2 SWAP1 MSTORE PUSH1 0x40 SWAP1 SWAP2 ADD MSTORE SWAP1 JUMP JUMPDEST JUMPDEST DUP1 DUP3 GT ISZERO PUSH2 0x44C8 JUMPI PUSH0 DUP2 SSTORE PUSH1 0x1 ADD PUSH2 0x44B5 JUMP JUMPDEST POP SWAP1 JUMP JUMPDEST DUP1 DUP3 GT ISZERO PUSH2 0x44C8 JUMPI PUSH0 PUSH2 0x44DF DUP3 DUP3 PUSH2 0x43F1 JUMP JUMPDEST PUSH2 0x44EC PUSH1 0x1 DUP4 ADD PUSH0 PUSH2 0x43F1 JUMP JUMPDEST PUSH2 0x44F9 PUSH1 0x2 DUP4 ADD PUSH0 PUSH2 0x43F1 JUMP JUMPDEST PUSH2 0x4506 PUSH1 0x3 DUP4 ADD PUSH0 PUSH2 0x43F1 JUMP JUMPDEST PUSH2 0x4513 PUSH1 0x4 DUP4 ADD PUSH0 PUSH2 0x43F1 JUMP JUMPDEST POP PUSH1 0x5 ADD PUSH2 0x44CC JUMP JUMPDEST DUP1 CALLDATALOAD PUSH1 0x1 PUSH1 0x1 PUSH1 0xA0 SHL SUB DUP2 AND DUP2 EQ PUSH2 0x4532 JUMPI PUSH0 DUP1 REVERT JUMPDEST SWAP2 SWAP1 POP JUMP JUMPDEST PUSH4 0x4E487B71 PUSH1 0xE0 SHL PUSH0 MSTORE PUSH1 0x41 PUSH1 0x4 MSTORE PUSH1 0x24 PUSH0 REVERT JUMPDEST PUSH1 0x40 MLOAD PUSH1 0xE0 DUP2 ADD PUSH1 0x1 PUSH1 0x1 PUSH1 0x40 SHL SUB DUP2 GT DUP3 DUP3 LT OR ISZERO PUSH2 0x456D JUMPI PUSH2 0x456D PUSH2 0x4537 JUMP JUMPDEST PUSH1 0x40 MSTORE SWAP1 JUMP JUMPDEST PUSH1 0x40 MLOAD PUSH1 0xA0 DUP2 ADD PUSH1 0x1 PUSH1 0x1 PUSH1 0x40 SHL SUB DUP2 GT DUP3 DUP3 LT OR ISZERO PUSH2 0x456D JUMPI PUSH2 0x456D PUSH2 0x4537 JUMP JUMPDEST PUSH1 0x40 MLOAD PUSH1 0x1F DUP3 ADD PUSH1 0x1F NOT AND DUP2 ADD PUSH1 0x1 PUSH1 0x1 PUSH1 0x40 SHL SUB DUP2 GT DUP3 DUP3 LT OR ISZERO PUSH2 0x45BD JUMPI PUSH2 0x45BD PUSH2 0x4537 JUMP JUMPDEST PUSH1 0x40 MSTORE SWAP2 SWAP1 POP JUMP JUMPDEST DUP1 CALLDATALOAD PUSH1 0xFF DUP2 AND DUP2 EQ PUSH2 0x4532 JUMPI PUSH0 DUP1 REVERT JUMPDEST PUSH0 DUP1 DUP3 DUP5 SUB PUSH1 0x80 DUP2 SLT ISZERO PUSH2 0x45E7 JUMPI PUSH0 DUP1 REVERT JUMPDEST PUSH2 0x45F0 DUP5 PUSH2 0x451C JUMP JUMPDEST SWAP3 POP PUSH1 0x60 PUSH1 0x1F NOT DUP3 ADD SLT ISZERO PUSH2 0x4603 JUMPI PUSH0 DUP1 REVERT JUMPDEST POP PUSH1 0x40 MLOAD PUSH1 0x60 DUP2 ADD PUSH1 0x1 PUSH1 0x1 PUSH1 0x40 SHL SUB DUP2 GT DUP3 DUP3 LT OR ISZERO PUSH2 0x4626 JUMPI PUSH2 0x4626 PUSH2 0x4537 JUMP JUMPDEST PUSH1 0x40 MSTORE PUSH2 0x4635 PUSH1 0x20 DUP6 ADD PUSH2 0x45C5 JUMP JUMPDEST DUP2 MSTORE PUSH1 0x40 DUP5 ADD CALLDATALOAD PUSH1 0x20 DUP3 ADD MSTORE PUSH2 0x464D PUSH1 0x60 DUP6 ADD PUSH2 0x451C JUMP JUMPDEST PUSH1 0x40 DUP3 ADD MSTORE DUP1 SWAP2 POP POP SWAP3 POP SWAP3 SWAP1 POP JUMP JUMPDEST PUSH0 DUP1 PUSH1 0x20 DUP4 DUP6 SUB SLT ISZERO PUSH2 0x466E JUMPI PUSH0 DUP1 REVERT JUMPDEST DUP3 CALLDATALOAD PUSH1 0x1 PUSH1 0x1 PUSH1 0x40 SHL SUB DUP2 GT ISZERO PUSH2 0x4683 JUMPI PUSH0 DUP1 REVERT JUMPDEST DUP4 ADD PUSH1 0x1F DUP2 ADD DUP6 SGT PUSH2 0x4693 JUMPI PUSH0 DUP1 REVERT JUMPDEST DUP1 CALLDATALOAD PUSH1 0x1 PUSH1 0x1 PUSH1 0x40 SHL SUB DUP2 GT ISZERO PUSH2 0x46A8 JUMPI PUSH0 DUP1 REVERT JUMPDEST DUP6 PUSH1 0x20 DUP3 DUP5 ADD ADD GT ISZERO PUSH2 0x46B9 JUMPI PUSH0 DUP1 REVERT JUMPDEST PUSH1 0x20 SWAP2 SWAP1 SWAP2 ADD SWAP6 SWAP1 SWAP5 POP SWAP3 POP POP POP JUMP JUMPDEST PUSH0 DUP3 PUSH1 0x1F DUP4 ADD SLT PUSH2 0x46D8 JUMPI PUSH0 DUP1 REVERT JUMPDEST DUP2 CALLDATALOAD PUSH1 0x1 PUSH1 0x1 PUSH1 0x40 SHL SUB DUP2 GT ISZERO PUSH2 0x46F1 JUMPI PUSH2 0x46F1 PUSH2 0x4537 JUMP JUMPDEST PUSH2 0x4704 PUSH1 0x1F DUP3 ADD PUSH1 0x1F NOT AND PUSH1 0x20 ADD PUSH2 0x4595 JUMP JUMPDEST DUP2 DUP2 MSTORE DUP5 PUSH1 0x20 DUP4 DUP7 ADD ADD GT ISZERO PUSH2 0x4718 JUMPI PUSH0 DUP1 REVERT JUMPDEST DUP2 PUSH1 0x20 DUP6 ADD PUSH1 0x20 DUP4 ADD CALLDATACOPY PUSH0 SWAP2 DUP2 ADD PUSH1 0x20 ADD SWAP2 SWAP1 SWAP2 MSTORE SWAP4 SWAP3 POP POP POP JUMP JUMPDEST PUSH0 DUP1 PUSH1 0x40 DUP4 DUP6 SUB SLT ISZERO PUSH2 0x4745 JUMPI PUSH0 DUP1 REVERT JUMPDEST DUP3 CALLDATALOAD PUSH1 0x1 PUSH1 0x1 PUSH1 0x40 SHL SUB DUP2 GT ISZERO PUSH2 0x475A JUMPI PUSH0 DUP1 REVERT JUMPDEST PUSH2 0x4766 DUP6 DUP3 DUP7 ADD PUSH2 0x46C9 JUMP JUMPDEST SWAP3 POP POP PUSH1 0x20 DUP4 ADD CALLDATALOAD PUSH1 0x1 PUSH1 0x1 PUSH1 0x40 SHL SUB DUP2 GT ISZERO PUSH2 0x4781 JUMPI PUSH0 DUP1 REVERT JUMPDEST PUSH2 0x478D DUP6 DUP3 DUP7 ADD PUSH2 0x46C9 JUMP JUMPDEST SWAP2 POP POP SWAP3 POP SWAP3 SWAP1 POP JUMP JUMPDEST PUSH0 PUSH1 0x20 DUP3 DUP5 SUB SLT ISZERO PUSH2 0x47A7 JUMPI PUSH0 DUP1 REVERT JUMPDEST PUSH2 0x47B0 DUP3 PUSH2 0x451C JUMP JUMPDEST SWAP4 SWAP3 POP POP POP JUMP JUMPDEST PUSH0 PUSH1 0x20 DUP3 DUP5 SUB SLT ISZERO PUSH2 0x47C7 JUMPI PUSH0 DUP1 REVERT JUMPDEST POP CALLDATALOAD SWAP2 SWAP1 POP JUMP JUMPDEST PUSH1 0x1 PUSH1 0x1 PUSH1 0xA0 SHL SUB AND SWAP1 MSTORE JUMP JUMPDEST PUSH1 0x1 PUSH1 0x1 PUSH1 0xA0 SHL SUB SWAP2 SWAP1 SWAP2 AND DUP2 MSTORE PUSH1 0x20 ADD SWAP1 JUMP JUMPDEST PUSH0 DUP1 PUSH1 0x40 DUP4 DUP6 SUB SLT ISZERO PUSH2 0x4800 JUMPI PUSH0 DUP1 REVERT JUMPDEST DUP3 CALLDATALOAD SWAP2 POP PUSH1 0x20 DUP4 ADD CALLDATALOAD PUSH1 0x1 PUSH1 0x1 PUSH1 0x40 SHL SUB DUP2 GT ISZERO PUSH2 0x4781 JUMPI PUSH0 DUP1 REVERT JUMPDEST PUSH0 DUP2 MLOAD DUP1 DUP5 MSTORE DUP1 PUSH1 0x20 DUP5 ADD PUSH1 0x20 DUP7 ADD MCOPY PUSH0 PUSH1 0x20 DUP3 DUP7 ADD ADD MSTORE PUSH1 0x20 PUSH1 0x1F NOT PUSH1 0x1F DUP4 ADD AND DUP6 ADD ADD SWAP2 POP POP SWAP3 SWAP2 POP POP JUMP JUMPDEST PUSH1 0x20 DUP2 MSTORE PUSH0 PUSH2 0x47B0 PUSH1 0x20 DUP4 ADD DUP5 PUSH2 0x481C JUMP JUMPDEST DUP1 ISZERO ISZERO DUP2 EQ PUSH2 0x4428 JUMPI PUSH0 DUP1 REVERT JUMPDEST PUSH0 DUP1 PUSH0 DUP1 PUSH1 0x80 DUP6 DUP8 SUB SLT ISZERO PUSH2 0x487C JUMPI PUSH0 DUP1 REVERT JUMPDEST DUP5 CALLDATALOAD PUSH2 0x4887 DUP2 PUSH2 0x485C JUMP JUMPDEST SWAP4 POP PUSH1 0x20 DUP6 ADD CALLDATALOAD PUSH2 0x4897 DUP2 PUSH2 0x485C JUMP JUMPDEST SWAP3 POP PUSH1 0x40 DUP6 ADD CALLDATALOAD PUSH2 0x48A7 DUP2 PUSH2 0x485C JUMP JUMPDEST SWAP2 POP PUSH1 0x60 DUP6 ADD CALLDATALOAD PUSH2 0x48B7 DUP2 PUSH2 0x485C JUMP JUMPDEST SWAP4 SWAP7 SWAP3 SWAP6 POP SWAP1 SWAP4 POP POP JUMP JUMPDEST PUSH0 DUP1 PUSH1 0x40 DUP4 DUP6 SUB SLT ISZERO PUSH2 0x48D3 JUMPI PUSH0 DUP1 REVERT JUMPDEST PUSH2 0x48DC DUP4 PUSH2 0x451C JUMP JUMPDEST SWAP5 PUSH1 0x20 SWAP4 SWAP1 SWAP4 ADD CALLDATALOAD SWAP4 POP POP POP JUMP JUMPDEST PUSH1 0xA0 DUP2 MSTORE PUSH0 PUSH2 0x48FC PUSH1 0xA0 DUP4 ADD DUP9 PUSH2 0x481C JUMP JUMPDEST DUP3 DUP2 SUB PUSH1 0x20 DUP5 ADD MSTORE PUSH2 0x490E DUP2 DUP9 PUSH2 0x481C JUMP JUMPDEST SWAP1 POP DUP3 DUP2 SUB PUSH1 0x40 DUP5 ADD MSTORE PUSH2 0x4922 DUP2 DUP8 PUSH2 0x481C JUMP JUMPDEST SWAP1 POP DUP3 DUP2 SUB PUSH1 0x60 DUP5 ADD MSTORE PUSH2 0x4936 DUP2 DUP7 PUSH2 0x481C JUMP JUMPDEST SWAP1 POP DUP3 DUP2 SUB PUSH1 0x80 DUP5 ADD MSTORE PUSH2 0x494A DUP2 DUP6 PUSH2 0x481C JUMP JUMPDEST SWAP9 SWAP8 POP POP POP POP POP POP POP POP JUMP JUMPDEST PUSH4 0x4E487B71 PUSH1 0xE0 SHL PUSH0 MSTORE PUSH1 0x21 PUSH1 0x4 MSTORE PUSH1 0x24 PUSH0 REVERT JUMPDEST PUSH1 0x4 DUP2 LT PUSH2 0x4986 JUMPI PUSH4 0x4E487B71 PUSH1 0xE0 SHL PUSH0 MSTORE PUSH1 0x21 PUSH1 0x4 MSTORE PUSH1 0x24 PUSH0 REVERT JUMPDEST SWAP1 MSTORE JUMP JUMPDEST PUSH1 0x20 DUP2 ADD PUSH2 0xA78 DUP3 DUP5 PUSH2 0x496A JUMP JUMPDEST PUSH1 0x20 DUP1 DUP3 MSTORE DUP3 MLOAD DUP3 DUP3 ADD DUP2 SWAP1 MSTORE PUSH0 SWAP2 DUP5 ADD SWAP1 PUSH1 0x40 DUP5 ADD SWAP1 DUP4 JUMPDEST DUP2 DUP2 LT ISZERO PUSH2 0x49F4 JUMPI DUP4 MLOAD DUP1 MLOAD PUSH1 0xFF AND DUP5 MSTORE PUSH1 0x20 DUP1 DUP3 ADD MLOAD DUP2 DUP7 ADD MSTORE PUSH1 0x40 SWAP2 DUP3 ADD MLOAD PUSH1 0x1 PUSH1 0x1 PUSH1 0xA0 SHL SUB AND SWAP2 DUP6 ADD SWAP2 SWAP1 SWAP2 MSTORE SWAP1 SWAP4 ADD SWAP3 PUSH1 0x60 SWAP1 SWAP3 ADD SWAP2 PUSH1 0x1 ADD PUSH2 0x49B1 JUMP JUMPDEST POP SWAP1 SWAP6 SWAP5 POP POP POP POP POP JUMP JUMPDEST PUSH0 DUP1 PUSH0 PUSH1 0x60 DUP5 DUP7 SUB SLT ISZERO PUSH2 0x4A11 JUMPI PUSH0 DUP1 REVERT JUMPDEST DUP4 CALLDATALOAD SWAP3 POP PUSH1 0x20 DUP5 ADD CALLDATALOAD PUSH2 0x4A23 DUP2 PUSH2 0x485C JUMP JUMPDEST SWAP2 POP PUSH2 0x4A31 PUSH1 0x40 DUP6 ADD PUSH2 0x451C JUMP JUMPDEST SWAP1 POP SWAP3 POP SWAP3 POP SWAP3 JUMP JUMPDEST PUSH1 0x1 PUSH1 0x1 PUSH1 0xA0 SHL SUB DUP12 AND DUP2 MSTORE PUSH2 0x140 PUSH1 0x20 DUP3 ADD DUP2 SWAP1 MSTORE PUSH0 SWAP1 PUSH2 0x4A5E SWAP1 DUP4 ADD DUP13 PUSH2 0x481C JUMP JUMPDEST DUP3 DUP2 SUB PUSH1 0x40 DUP5 ADD MSTORE PUSH2 0x4A70 DUP2 DUP13 PUSH2 0x481C JUMP JUMPDEST SWAP1 POP PUSH1 0xFF DUP11 AND PUSH1 0x60 DUP5 ADD MSTORE DUP9 PUSH1 0x80 DUP5 ADD MSTORE DUP3 DUP2 SUB PUSH1 0xA0 DUP5 ADD MSTORE PUSH2 0x4A93 DUP2 DUP10 PUSH2 0x481C JUMP JUMPDEST SWAP1 POP DUP3 DUP2 SUB PUSH1 0xC0 DUP5 ADD MSTORE PUSH2 0x4AA7 DUP2 DUP9 PUSH2 0x481C JUMP JUMPDEST SWAP2 POP POP PUSH2 0x4AB7 PUSH1 0xE0 DUP4 ADD DUP7 PUSH2 0x496A JUMP JUMPDEST PUSH2 0x100 DUP3 ADD SWAP4 SWAP1 SWAP4 MSTORE PUSH1 0x1 PUSH1 0x1 PUSH1 0xA0 SHL SUB SWAP2 SWAP1 SWAP2 AND PUSH2 0x120 SWAP1 SWAP2 ADD MSTORE SWAP9 SWAP8 POP POP POP POP POP POP POP POP JUMP JUMPDEST PUSH2 0x4AEA DUP3 DUP3 MLOAD PUSH2 0x47CE JUMP JUMPDEST PUSH0 PUSH1 0x20 DUP3 ADD MLOAD PUSH2 0x140 PUSH1 0x20 DUP6 ADD MSTORE PUSH2 0x4B06 PUSH2 0x140 DUP6 ADD DUP3 PUSH2 0x481C JUMP JUMPDEST SWAP1 POP PUSH1 0x40 DUP4 ADD MLOAD DUP5 DUP3 SUB PUSH1 0x40 DUP7 ADD MSTORE PUSH2 0x4B1F DUP3 DUP3 PUSH2 0x481C JUMP JUMPDEST SWAP2 POP POP PUSH1 0x60 DUP4 ADD MLOAD PUSH2 0x4B36 PUSH1 0x60 DUP7 ADD DUP3 PUSH1 0xFF AND SWAP1 MSTORE JUMP JUMPDEST POP PUSH1 0x80 DUP4 ADD MLOAD PUSH1 0x80 DUP6 ADD MSTORE PUSH1 0xA0 DUP4 ADD MLOAD DUP5 DUP3 SUB PUSH1 0xA0 DUP7 ADD MSTORE PUSH2 0x4B58 DUP3 DUP3 PUSH2 0x481C JUMP JUMPDEST SWAP2 POP POP PUSH1 0xC0 DUP4 ADD MLOAD DUP5 DUP3 SUB PUSH1 0xC0 DUP7 ADD MSTORE PUSH2 0x4B72 DUP3 DUP3 PUSH2 0x481C JUMP JUMPDEST SWAP2 POP POP PUSH1 0xE0 DUP4 ADD MLOAD PUSH2 0x4B87 PUSH1 0xE0 DUP7 ADD DUP3 PUSH2 0x496A JUMP JUMPDEST POP PUSH2 0x100 DUP4 ADD MLOAD PUSH2 0x100 DUP6 ADD MSTORE PUSH2 0x120 DUP4 ADD MLOAD PUSH2 0x427B PUSH2 0x120 DUP7 ADD DUP3 PUSH2 0x47CE JUMP JUMPDEST PUSH1 0x40 DUP2 MSTORE PUSH0 PUSH2 0x4BBA PUSH1 0x40 DUP4 ADD DUP6 PUSH2 0x4ADF JUMP JUMPDEST DUP3 DUP2 SUB PUSH1 0x20 DUP5 ADD MSTORE DUP1 DUP5 MLOAD DUP1 DUP4 MSTORE PUSH1 0x20 DUP4 ADD SWAP2 POP PUSH1 0x20 DUP2 PUSH1 0x5 SHL DUP5 ADD ADD PUSH1 0x20 DUP8 ADD PUSH0 JUMPDEST DUP4 DUP2 LT ISZERO PUSH2 0x4C84 JUMPI PUSH1 0x1F NOT DUP7 DUP5 SUB ADD DUP6 MSTORE DUP2 MLOAD DUP1 MLOAD PUSH1 0xA0 DUP6 MSTORE PUSH2 0x4C03 PUSH1 0xA0 DUP7 ADD DUP3 PUSH2 0x481C JUMP JUMPDEST SWAP1 POP PUSH1 0x20 DUP3 ADD MLOAD DUP6 DUP3 SUB PUSH1 0x20 DUP8 ADD MSTORE PUSH2 0x4C1C DUP3 DUP3 PUSH2 0x481C JUMP JUMPDEST SWAP2 POP POP PUSH1 0x40 DUP3 ADD MLOAD DUP6 DUP3 SUB PUSH1 0x40 DUP8 ADD MSTORE PUSH2 0x4C36 DUP3 DUP3 PUSH2 0x481C JUMP JUMPDEST SWAP2 POP POP PUSH1 0x60 DUP3 ADD MLOAD DUP6 DUP3 SUB PUSH1 0x60 DUP8 ADD MSTORE PUSH2 0x4C50 DUP3 DUP3 PUSH2 0x481C JUMP JUMPDEST SWAP2 POP POP PUSH1 0x80 DUP3 ADD MLOAD SWAP2 POP DUP5 DUP2 SUB PUSH1 0x80 DUP7 ADD MSTORE PUSH2 0x4C6C DUP2 DUP4 PUSH2 0x481C JUMP JUMPDEST PUSH1 0x20 SWAP8 DUP9 ADD SWAP8 SWAP1 SWAP6 POP SWAP4 SWAP1 SWAP4 ADD SWAP3 POP POP PUSH1 0x1 ADD PUSH2 0x4BDD JUMP JUMPDEST POP SWAP1 SWAP9 SWAP8 POP POP POP POP POP POP POP POP JUMP JUMPDEST PUSH0 DUP1 PUSH0 DUP1 PUSH0 DUP1 PUSH1 0xC0 DUP8 DUP10 SUB SLT ISZERO PUSH2 0x4CA7 JUMPI PUSH0 DUP1 REVERT JUMPDEST DUP7 CALLDATALOAD PUSH2 0x4CB2 DUP2 PUSH2 0x485C JUMP JUMPDEST SWAP6 POP PUSH1 0x20 DUP8 ADD CALLDATALOAD PUSH2 0x4CC2 DUP2 PUSH2 0x485C JUMP JUMPDEST SWAP5 POP PUSH1 0x40 DUP8 ADD CALLDATALOAD PUSH2 0x4CD2 DUP2 PUSH2 0x485C JUMP JUMPDEST SWAP4 POP PUSH1 0x60 DUP8 ADD CALLDATALOAD PUSH2 0x4CE2 DUP2 PUSH2 0x485C JUMP JUMPDEST SWAP3 POP PUSH1 0x80 DUP8 ADD CALLDATALOAD PUSH2 0x4CF2 DUP2 PUSH2 0x485C JUMP JUMPDEST SWAP2 POP PUSH1 0xA0 DUP8 ADD CALLDATALOAD PUSH2 0x4D02 DUP2 PUSH2 0x485C JUMP JUMPDEST DUP1 SWAP2 POP POP SWAP3 SWAP6 POP SWAP3 SWAP6 POP SWAP3 SWAP6 JUMP JUMPDEST PUSH0 DUP1 PUSH0 DUP1 PUSH1 0x80 DUP6 DUP8 SUB SLT ISZERO PUSH2 0x4D23 JUMPI PUSH0 DUP1 REVERT JUMPDEST DUP5 CALLDATALOAD PUSH1 0x1 PUSH1 0x1 PUSH1 0x40 SHL SUB DUP2 GT ISZERO PUSH2 0x4D38 JUMPI PUSH0 DUP1 REVERT JUMPDEST PUSH2 0x4D44 DUP8 DUP3 DUP9 ADD PUSH2 0x46C9 JUMP JUMPDEST SWAP5 POP POP PUSH1 0x20 DUP6 ADD CALLDATALOAD PUSH1 0x1 PUSH1 0x1 PUSH1 0x40 SHL SUB DUP2 GT ISZERO PUSH2 0x4D5F JUMPI PUSH0 DUP1 REVERT JUMPDEST PUSH2 0x4D6B DUP8 DUP3 DUP9 ADD PUSH2 0x46C9 JUMP JUMPDEST SWAP4 POP POP PUSH2 0x4D7A PUSH1 0x40 DUP7 ADD PUSH2 0x451C JUMP JUMPDEST SWAP2 POP PUSH1 0x60 DUP6 ADD CALLDATALOAD PUSH1 0x1 PUSH1 0x1 PUSH1 0x40 SHL SUB DUP2 GT ISZERO PUSH2 0x4D94 JUMPI PUSH0 DUP1 REVERT JUMPDEST PUSH2 0x4DA0 DUP8 DUP3 DUP9 ADD PUSH2 0x46C9 JUMP JUMPDEST SWAP2 POP POP SWAP3 SWAP6 SWAP2 SWAP5 POP SWAP3 POP JUMP JUMPDEST PUSH0 PUSH1 0x1 PUSH1 0x1 PUSH1 0x40 SHL SUB DUP3 GT ISZERO PUSH2 0x4DC4 JUMPI PUSH2 0x4DC4 PUSH2 0x4537 JUMP JUMPDEST POP PUSH1 0x5 SHL PUSH1 0x20 ADD SWAP1 JUMP JUMPDEST PUSH0 DUP3 PUSH1 0x1F DUP4 ADD SLT PUSH2 0x4DDD JUMPI PUSH0 DUP1 REVERT JUMPDEST DUP2 CALLDATALOAD PUSH2 0x4DF0 PUSH2 0x4DEB DUP3 PUSH2 0x4DAC JUMP JUMPDEST PUSH2 0x4595 JUMP JUMPDEST DUP1 DUP3 DUP3 MSTORE PUSH1 0x20 DUP3 ADD SWAP2 POP PUSH1 0x20 DUP4 PUSH1 0x5 SHL DUP7 ADD ADD SWAP3 POP DUP6 DUP4 GT ISZERO PUSH2 0x4E11 JUMPI PUSH0 DUP1 REVERT JUMPDEST PUSH1 0x20 DUP6 ADD JUMPDEST DUP4 DUP2 LT ISZERO PUSH2 0x4E35 JUMPI PUSH2 0x4E27 DUP2 PUSH2 0x451C JUMP JUMPDEST DUP4 MSTORE PUSH1 0x20 SWAP3 DUP4 ADD SWAP3 ADD PUSH2 0x4E16 JUMP JUMPDEST POP SWAP6 SWAP5 POP POP POP POP POP JUMP JUMPDEST PUSH0 DUP1 PUSH0 DUP1 PUSH1 0x80 DUP6 DUP8 SUB SLT ISZERO PUSH2 0x4E52 JUMPI PUSH0 DUP1 REVERT JUMPDEST DUP5 CALLDATALOAD PUSH1 0x1 PUSH1 0x1 PUSH1 0x40 SHL SUB DUP2 GT ISZERO PUSH2 0x4E67 JUMPI PUSH0 DUP1 REVERT JUMPDEST PUSH2 0x4E73 DUP8 DUP3 DUP9 ADD PUSH2 0x46C9 JUMP JUMPDEST SWAP5 POP POP PUSH1 0x20 DUP6 ADD CALLDATALOAD PUSH1 0x1 PUSH1 0x1 PUSH1 0x40 SHL SUB DUP2 GT ISZERO PUSH2 0x4E8E JUMPI PUSH0 DUP1 REVERT JUMPDEST PUSH2 0x4E9A DUP8 DUP3 DUP9 ADD PUSH2 0x46C9 JUMP JUMPDEST SWAP4 POP POP PUSH1 0x40 DUP6 ADD CALLDATALOAD PUSH1 0x1 PUSH1 0x1 PUSH1 0x40 SHL SUB DUP2 GT ISZERO PUSH2 0x4EB5 JUMPI PUSH0 DUP1 REVERT JUMPDEST PUSH2 0x4EC1 DUP8 DUP3 DUP9 ADD PUSH2 0x4DCE JUMP JUMPDEST SWAP3 POP POP PUSH1 0x60 DUP6 ADD CALLDATALOAD PUSH1 0x1 PUSH1 0x1 PUSH1 0x40 SHL SUB DUP2 GT ISZERO PUSH2 0x4D94 JUMPI PUSH0 DUP1 REVERT JUMPDEST PUSH0 PUSH1 0x40 DUP3 ADD PUSH1 0x40 DUP4 MSTORE DUP1 DUP6 MLOAD DUP1 DUP4 MSTORE PUSH1 0x60 DUP6 ADD SWAP2 POP PUSH1 0x60 DUP2 PUSH1 0x5 SHL DUP7 ADD ADD SWAP3 POP PUSH1 0x20 DUP8 ADD PUSH0 JUMPDEST DUP3 DUP2 LT ISZERO PUSH2 0x4F33 JUMPI PUSH1 0x5F NOT DUP8 DUP7 SUB ADD DUP5 MSTORE PUSH2 0x4F1E DUP6 DUP4 MLOAD PUSH2 0x4ADF JUMP JUMPDEST SWAP5 POP PUSH1 0x20 SWAP4 DUP5 ADD SWAP4 SWAP2 SWAP1 SWAP2 ADD SWAP1 PUSH1 0x1 ADD PUSH2 0x4F02 JUMP JUMPDEST POP POP POP POP DUP3 DUP2 SUB PUSH1 0x20 DUP5 ADD MSTORE DUP1 DUP5 MLOAD DUP1 DUP4 MSTORE PUSH1 0x20 DUP4 ADD SWAP2 POP PUSH1 0x20 DUP7 ADD SWAP3 POP PUSH0 JUMPDEST DUP2 DUP2 LT ISZERO PUSH2 0x4F71 JUMPI DUP4 MLOAD DUP4 MSTORE PUSH1 0x20 SWAP4 DUP5 ADD SWAP4 SWAP1 SWAP3 ADD SWAP2 PUSH1 0x1 ADD PUSH2 0x4F53 JUMP JUMPDEST POP SWAP1 SWAP7 SWAP6 POP POP POP POP POP POP JUMP JUMPDEST PUSH0 PUSH1 0xE0 DUP3 DUP5 SUB SLT ISZERO PUSH2 0x4F8D JUMPI PUSH0 DUP1 REVERT JUMPDEST PUSH2 0x4F95 PUSH2 0x454B JUMP JUMPDEST SWAP1 POP DUP2 CALLDATALOAD PUSH1 0x1 PUSH1 0x1 PUSH1 0x40 SHL SUB DUP2 GT ISZERO PUSH2 0x4FAC JUMPI PUSH0 DUP1 REVERT JUMPDEST PUSH2 0x4FB8 DUP5 DUP3 DUP6 ADD PUSH2 0x46C9 JUMP JUMPDEST DUP3 MSTORE POP PUSH1 0x20 DUP3 ADD CALLDATALOAD PUSH1 0x1 PUSH1 0x1 PUSH1 0x40 SHL SUB DUP2 GT ISZERO PUSH2 0x4FD3 JUMPI PUSH0 DUP1 REVERT JUMPDEST PUSH2 0x4FDF DUP5 DUP3 DUP6 ADD PUSH2 0x46C9 JUMP JUMPDEST PUSH1 0x20 DUP4 ADD MSTORE POP PUSH2 0x4FF1 PUSH1 0x40 DUP4 ADD PUSH2 0x45C5 JUMP JUMPDEST PUSH1 0x40 DUP3 ADD MSTORE PUSH1 0x60 DUP3 DUP2 ADD CALLDATALOAD SWAP1 DUP3 ADD MSTORE PUSH1 0x80 DUP3 ADD CALLDATALOAD PUSH1 0x1 PUSH1 0x1 PUSH1 0x40 SHL SUB DUP2 GT ISZERO PUSH2 0x5018 JUMPI PUSH0 DUP1 REVERT JUMPDEST PUSH2 0x5024 DUP5 DUP3 DUP6 ADD PUSH2 0x46C9 JUMP JUMPDEST PUSH1 0x80 DUP4 ADD MSTORE POP PUSH2 0x5036 PUSH1 0xA0 DUP4 ADD PUSH2 0x451C JUMP JUMPDEST PUSH1 0xA0 DUP3 ADD MSTORE PUSH1 0xC0 DUP3 ADD CALLDATALOAD PUSH1 0x1 PUSH1 0x1 PUSH1 0x40 SHL SUB DUP2 GT ISZERO PUSH2 0x5053 JUMPI PUSH0 DUP1 REVERT JUMPDEST PUSH2 0x505F DUP5 DUP3 DUP6 ADD PUSH2 0x46C9 JUMP JUMPDEST PUSH1 0xC0 DUP4 ADD MSTORE POP SWAP3 SWAP2 POP POP JUMP JUMPDEST PUSH0 PUSH1 0x20 DUP3 DUP5 SUB SLT ISZERO PUSH2 0x507B JUMPI PUSH0 DUP1 REVERT JUMPDEST DUP2 CALLDATALOAD PUSH1 0x1 PUSH1 0x1 PUSH1 0x40 SHL SUB DUP2 GT ISZERO PUSH2 0x5090 JUMPI PUSH0 DUP1 REVERT JUMPDEST PUSH2 0x509C DUP5 DUP3 DUP6 ADD PUSH2 0x4F7D JUMP JUMPDEST SWAP5 SWAP4 POP POP POP POP JUMP JUMPDEST PUSH0 DUP1 PUSH1 0x40 DUP4 DUP6 SUB SLT ISZERO PUSH2 0x50B5 JUMPI PUSH0 DUP1 REVERT JUMPDEST DUP3 CALLDATALOAD PUSH1 0x1 PUSH1 0x1 PUSH1 0x40 SHL SUB DUP2 GT ISZERO PUSH2 0x50CA JUMPI PUSH0 DUP1 REVERT JUMPDEST PUSH2 0x50D6 DUP6 DUP3 DUP7 ADD PUSH2 0x4F7D JUMP JUMPDEST SWAP3 POP POP PUSH1 0x20 DUP4 ADD CALLDATALOAD PUSH1 0x1 PUSH1 0x1 PUSH1 0x40 SHL SUB DUP2 GT ISZERO PUSH2 0x50F1 JUMPI PUSH0 DUP1 REVERT JUMPDEST DUP4 ADD PUSH1 0x1F DUP2 ADD DUP6 SGT PUSH2 0x5101 JUMPI PUSH0 DUP1 REVERT JUMPDEST DUP1 CALLDATALOAD PUSH2 0x510F PUSH2 0x4DEB DUP3 PUSH2 0x4DAC JUMP JUMPDEST DUP1 DUP3 DUP3 MSTORE PUSH1 0x20 DUP3 ADD SWAP2 POP PUSH1 0x20 DUP4 PUSH1 0x5 SHL DUP6 ADD ADD SWAP3 POP DUP8 DUP4 GT ISZERO PUSH2 0x5130 JUMPI PUSH0 DUP1 REVERT JUMPDEST PUSH1 0x20 DUP5 ADD JUMPDEST DUP4 DUP2 LT ISZERO PUSH2 0x525C JUMPI DUP1 CALLDATALOAD PUSH1 0x1 PUSH1 0x1 PUSH1 0x40 SHL SUB DUP2 GT ISZERO PUSH2 0x5152 JUMPI PUSH0 DUP1 REVERT JUMPDEST DUP6 ADD PUSH1 0xA0 DUP2 DUP12 SUB PUSH1 0x1F NOT ADD SLT ISZERO PUSH2 0x5167 JUMPI PUSH0 DUP1 REVERT JUMPDEST PUSH2 0x516F PUSH2 0x4573 JUMP JUMPDEST PUSH1 0x20 DUP3 ADD CALLDATALOAD PUSH1 0x1 PUSH1 0x1 PUSH1 0x40 SHL SUB DUP2 GT ISZERO PUSH2 0x5187 JUMPI PUSH0 DUP1 REVERT JUMPDEST PUSH2 0x5196 DUP13 PUSH1 0x20 DUP4 DUP7 ADD ADD PUSH2 0x46C9 JUMP JUMPDEST DUP3 MSTORE POP PUSH1 0x40 DUP3 ADD CALLDATALOAD PUSH1 0x1 PUSH1 0x1 PUSH1 0x40 SHL SUB DUP2 GT ISZERO PUSH2 0x51B1 JUMPI PUSH0 DUP1 REVERT JUMPDEST PUSH2 0x51C0 DUP13 PUSH1 0x20 DUP4 DUP7 ADD ADD PUSH2 0x46C9 JUMP JUMPDEST PUSH1 0x20 DUP4 ADD MSTORE POP PUSH1 0x60 DUP3 ADD CALLDATALOAD PUSH1 0x1 PUSH1 0x1 PUSH1 0x40 SHL SUB DUP2 GT ISZERO PUSH2 0x51DE JUMPI PUSH0 DUP1 REVERT JUMPDEST PUSH2 0x51ED DUP13 PUSH1 0x20 DUP4 DUP7 ADD ADD PUSH2 0x46C9 JUMP JUMPDEST PUSH1 0x40 DUP4 ADD MSTORE POP PUSH1 0x80 DUP3 ADD CALLDATALOAD PUSH1 0x1 PUSH1 0x1 PUSH1 0x40 SHL SUB DUP2 GT ISZERO PUSH2 0x520B JUMPI PUSH0 DUP1 REVERT JUMPDEST PUSH2 0x521A DUP13 PUSH1 0x20 DUP4 DUP7 ADD ADD PUSH2 0x46C9 JUMP JUMPDEST PUSH1 0x60 DUP4 ADD MSTORE POP PUSH1 0xA0 DUP3 ADD CALLDATALOAD PUSH1 0x1 PUSH1 0x1 PUSH1 0x40 SHL SUB DUP2 GT ISZERO PUSH2 0x5238 JUMPI PUSH0 DUP1 REVERT JUMPDEST PUSH2 0x5247 DUP13 PUSH1 0x20 DUP4 DUP7 ADD ADD PUSH2 0x46C9 JUMP JUMPDEST PUSH1 0x80 DUP4 ADD MSTORE POP DUP5 MSTORE POP PUSH1 0x20 SWAP3 DUP4 ADD SWAP3 ADD PUSH2 0x5135 JUMP JUMPDEST POP DUP1 SWAP5 POP POP POP POP POP SWAP3 POP SWAP3 SWAP1 POP JUMP JUMPDEST PUSH0 DUP1 PUSH0 PUSH1 0x60 DUP5 DUP7 SUB SLT ISZERO PUSH2 0x527D JUMPI PUSH0 DUP1 REVERT JUMPDEST DUP4 CALLDATALOAD SWAP3 POP PUSH2 0x528D PUSH1 0x20 DUP6 ADD PUSH2 0x451C JUMP JUMPDEST SWAP2 POP PUSH1 0x40 DUP5 ADD CALLDATALOAD PUSH1 0x1 PUSH1 0x1 PUSH1 0x40 SHL SUB DUP2 GT ISZERO PUSH2 0x52A7 JUMPI PUSH0 DUP1 REVERT JUMPDEST PUSH2 0x52B3 DUP7 DUP3 DUP8 ADD PUSH2 0x4DCE JUMP JUMPDEST SWAP2 POP POP SWAP3 POP SWAP3 POP SWAP3 JUMP JUMPDEST PUSH0 DUP1 PUSH0 PUSH1 0x60 DUP5 DUP7 SUB SLT ISZERO PUSH2 0x52CF JUMPI PUSH0 DUP1 REVERT JUMPDEST DUP4 CALLDATALOAD SWAP3 POP PUSH2 0x4A23 PUSH1 0x20 DUP6 ADD PUSH2 0x451C JUMP JUMPDEST PUSH4 0x4E487B71 PUSH1 0xE0 SHL PUSH0 MSTORE PUSH1 0x32 PUSH1 0x4 MSTORE PUSH1 0x24 PUSH0 REVERT JUMPDEST PUSH4 0x4E487B71 PUSH1 0xE0 SHL PUSH0 MSTORE PUSH1 0x11 PUSH1 0x4 MSTORE PUSH1 0x24 PUSH0 REVERT JUMPDEST DUP2 DUP2 SUB DUP2 DUP2 GT ISZERO PUSH2 0xA78 JUMPI PUSH2 0xA78 PUSH2 0x52F3 JUMP JUMPDEST PUSH4 0x4E487B71 PUSH1 0xE0 SHL PUSH0 MSTORE PUSH1 0x31 PUSH1 0x4 MSTORE PUSH1 0x24 PUSH0 REVERT JUMPDEST PUSH1 0x1 DUP2 DUP2 SHR SWAP1 DUP3 AND DUP1 PUSH2 0x5342 JUMPI PUSH1 0x7F DUP3 AND SWAP2 POP JUMPDEST PUSH1 0x20 DUP3 LT DUP2 SUB PUSH2 0xD85 JUMPI PUSH4 0x4E487B71 PUSH1 0xE0 SHL PUSH0 MSTORE PUSH1 0x22 PUSH1 0x4 MSTORE PUSH1 0x24 PUSH0 REVERT JUMPDEST PUSH1 0x1F DUP3 GT ISZERO PUSH2 0x53A7 JUMPI DUP1 PUSH0 MSTORE PUSH1 0x20 PUSH0 KECCAK256 PUSH1 0x1F DUP5 ADD PUSH1 0x5 SHR DUP2 ADD PUSH1 0x20 DUP6 LT ISZERO PUSH2 0x5385 JUMPI POP DUP1 JUMPDEST PUSH1 0x1F DUP5 ADD PUSH1 0x5 SHR DUP3 ADD SWAP2 POP JUMPDEST DUP2 DUP2 LT ISZERO PUSH2 0x53A4 JUMPI PUSH0 DUP2 SSTORE PUSH1 0x1 ADD PUSH2 0x5391 JUMP JUMPDEST POP POP JUMPDEST POP POP POP JUMP JUMPDEST PUSH0 NOT PUSH1 0x3 DUP4 SWAP1 SHL SHR NOT AND PUSH1 0x1 SWAP2 SWAP1 SWAP2 SHL OR SWAP1 JUMP JUMPDEST PUSH1 0x1 PUSH1 0x1 PUSH1 0x40 SHL SUB DUP4 GT ISZERO PUSH2 0x53D7 JUMPI PUSH2 0x53D7 PUSH2 0x4537 JUMP JUMPDEST PUSH2 0x53EB DUP4 PUSH2 0x53E5 DUP4 SLOAD PUSH2 0x532E JUMP JUMPDEST DUP4 PUSH2 0x5360 JUMP JUMPDEST PUSH0 PUSH1 0x1F DUP5 GT PUSH1 0x1 DUP2 EQ PUSH2 0x5417 JUMPI PUSH0 DUP6 ISZERO PUSH2 0x5405 JUMPI POP DUP4 DUP3 ADD CALLDATALOAD JUMPDEST PUSH2 0x540F DUP7 DUP3 PUSH2 0x53AC JUMP JUMPDEST DUP5 SSTORE POP PUSH2 0x53A4 JUMP JUMPDEST PUSH0 DUP4 DUP2 MSTORE PUSH1 0x20 DUP2 KECCAK256 PUSH1 0x1F NOT DUP8 AND SWAP2 JUMPDEST DUP3 DUP2 LT ISZERO PUSH2 0x5446 JUMPI DUP7 DUP6 ADD CALLDATALOAD DUP3 SSTORE PUSH1 0x20 SWAP5 DUP6 ADD SWAP5 PUSH1 0x1 SWAP1 SWAP3 ADD SWAP2 ADD PUSH2 0x5426 JUMP JUMPDEST POP DUP7 DUP3 LT ISZERO PUSH2 0x5462 JUMPI PUSH0 NOT PUSH1 0xF8 DUP9 PUSH1 0x3 SHL AND SHR NOT DUP5 DUP8 ADD CALLDATALOAD AND DUP2 SSTORE JUMPDEST POP POP PUSH1 0x1 DUP6 PUSH1 0x1 SHL ADD DUP4 SSTORE POP POP POP POP POP JUMP JUMPDEST PUSH1 0x20 DUP1 DUP3 MSTORE PUSH1 0x46 SWAP1 DUP3 ADD MSTORE PUSH0 DUP1 MLOAD PUSH1 0x20 PUSH2 0x5A90 DUP4 CODECOPY DUP2 MLOAD SWAP2 MSTORE PUSH1 0x40 DUP3 ADD MSTORE PUSH32 0x35352C20226D657373616765223A2022596F7520617265206E6F7420616C6C6F PUSH1 0x60 DUP3 ADD MSTORE PUSH6 0x7765642E227D PUSH1 0xD0 SHL PUSH1 0x80 DUP3 ADD MSTORE PUSH1 0xA0 ADD SWAP1 JUMP JUMPDEST PUSH1 0x60 DUP2 MSTORE PUSH0 PUSH2 0x54DF PUSH1 0x60 DUP4 ADD DUP7 PUSH2 0x481C JUMP JUMPDEST PUSH1 0x1 PUSH1 0x1 PUSH1 0xA0 SHL SUB DUP6 AND PUSH1 0x20 DUP5 ADD MSTORE DUP3 DUP2 SUB PUSH1 0x40 DUP5 ADD MSTORE PUSH2 0x5500 DUP2 DUP6 PUSH2 0x481C JUMP JUMPDEST SWAP7 SWAP6 POP POP POP POP POP POP JUMP JUMPDEST DUP2 MLOAD PUSH1 0x1 PUSH1 0x1 PUSH1 0x40 SHL SUB DUP2 GT ISZERO PUSH2 0x5523 JUMPI PUSH2 0x5523 PUSH2 0x4537 JUMP JUMPDEST PUSH2 0x5537 DUP2 PUSH2 0x5531 DUP5 SLOAD PUSH2 0x532E JUMP JUMPDEST DUP5 PUSH2 0x5360 JUMP JUMPDEST PUSH1 0x20 PUSH1 0x1F DUP3 GT PUSH1 0x1 DUP2 EQ PUSH2 0x5564 JUMPI PUSH0 DUP4 ISZERO PUSH2 0x5552 JUMPI POP DUP5 DUP3 ADD MLOAD JUMPDEST PUSH2 0x555C DUP5 DUP3 PUSH2 0x53AC JUMP JUMPDEST DUP6 SSTORE POP PUSH2 0x53A4 JUMP JUMPDEST PUSH0 DUP5 DUP2 MSTORE PUSH1 0x20 DUP2 KECCAK256 PUSH1 0x1F NOT DUP6 AND SWAP2 JUMPDEST DUP3 DUP2 LT ISZERO PUSH2 0x5593 JUMPI DUP8 DUP6 ADD MLOAD DUP3 SSTORE PUSH1 0x20 SWAP5 DUP6 ADD SWAP5 PUSH1 0x1 SWAP1 SWAP3 ADD SWAP2 ADD PUSH2 0x5573 JUMP JUMPDEST POP DUP5 DUP3 LT ISZERO PUSH2 0x55B0 JUMPI DUP7 DUP5 ADD MLOAD PUSH0 NOT PUSH1 0x3 DUP8 SWAP1 SHL PUSH1 0xF8 AND SHR NOT AND DUP2 SSTORE JUMPDEST POP POP POP POP PUSH1 0x1 SWAP1 DUP2 SHL ADD SWAP1 SSTORE POP JUMP JUMPDEST PUSH0 DUP2 MLOAD DUP1 PUSH1 0x20 DUP5 ADD DUP6 MCOPY PUSH0 SWAP4 ADD SWAP3 DUP4 MSTORE POP SWAP1 SWAP2 SWAP1 POP JUMP JUMPDEST PUSH24 0x1EC8999C9BDB488E88089158DBDB555CD95C8B9CDBDB088B PUSH1 0x42 SHL DUP2 MSTORE PUSH8 0x1131B7B232911D1 PUSH1 0xC5 SHL PUSH1 0x18 DUP3 ADD MSTORE PUSH0 PUSH2 0x5613 PUSH1 0x20 DUP4 ADD DUP6 PUSH2 0x55BF JUMP JUMPDEST PUSH2 0x161 PUSH1 0xF5 SHL DUP2 MSTORE PUSH12 0x1136B2B9B9B0B3B2911D1011 PUSH1 0xA1 SHL PUSH1 0x2 DUP3 ADD MSTORE PUSH2 0x563D PUSH1 0xE DUP3 ADD DUP6 PUSH2 0x55BF JUMP JUMPDEST PUSH2 0x227D PUSH1 0xF0 SHL DUP2 MSTORE PUSH1 0x2 ADD SWAP6 SWAP5 POP POP POP POP POP JUMP JUMPDEST PUSH24 0x496E74726F647563696E67204E65772050726F6475637421 PUSH1 0x40 SHL DUP2 MSTORE PUSH0 PUSH2 0x47B0 PUSH1 0x18 DUP4 ADD DUP5 PUSH2 0x55BF JUMP JUMPDEST PUSH28 0x4E65772050726F6475637420506F7374205375636365737366756C21 PUSH1 0x20 SHL DUP2 MSTORE PUSH0 PUSH2 0x47B0 PUSH1 0x1C DUP4 ADD DUP5 PUSH2 0x55BF JUMP JUMPDEST PUSH22 0x466C6173682053616C6520537461727473204E6F7721 PUSH1 0x50 SHL DUP2 MSTORE PUSH0 PUSH2 0x47B0 PUSH1 0x16 DUP4 ADD DUP5 PUSH2 0x55BF JUMP JUMPDEST PUSH13 0x10DC99585D19541C9BD91D58DD PUSH1 0x9A SHL DUP2 MSTORE PUSH1 0xD ADD SWAP1 JUMP JUMPDEST PUSH0 PUSH2 0x47B0 DUP3 DUP5 PUSH2 0x55BF JUMP JUMPDEST PUSH11 0x4F72646572557064617465 PUSH1 0xA8 SHL DUP2 MSTORE PUSH1 0xB ADD SWAP1 JUMP JUMPDEST PUSH18 0x50726F6D6F74696F6E616C50726F6772616D PUSH1 0x70 SHL DUP2 MSTORE PUSH1 0x12 ADD SWAP1 JUMP JUMPDEST PUSH19 0x437573746F6D65724F72646572557064617465 PUSH1 0x68 SHL DUP2 MSTORE PUSH1 0x13 ADD SWAP1 JUMP JUMPDEST PUSH13 0x436F6D6D656E74557064617465 PUSH1 0x98 SHL DUP2 MSTORE PUSH1 0xD ADD SWAP1 JUMP JUMPDEST PUSH0 DUP2 MLOAD PUSH1 0x40 DUP5 MSTORE PUSH2 0x577C PUSH1 0x40 DUP6 ADD DUP3 PUSH2 0x481C JUMP JUMPDEST SWAP1 POP PUSH1 0x20 DUP4 ADD MLOAD DUP5 DUP3 SUB PUSH1 0x20 DUP7 ADD MSTORE PUSH2 0x5795 DUP3 DUP3 PUSH2 0x481C JUMP JUMPDEST SWAP6 SWAP5 POP POP POP POP POP JUMP JUMPDEST PUSH1 0x40 DUP2 MSTORE PUSH0 PUSH2 0x57B0 PUSH1 0x40 DUP4 ADD DUP6 PUSH2 0x5768 JUMP JUMPDEST SWAP1 POP PUSH1 0x1 DUP1 PUSH1 0xA0 SHL SUB DUP4 AND PUSH1 0x20 DUP4 ADD MSTORE SWAP4 SWAP3 POP POP POP JUMP JUMPDEST PUSH0 PUSH1 0x20 DUP3 DUP5 SUB SLT ISZERO PUSH2 0x57D7 JUMPI PUSH0 DUP1 REVERT JUMPDEST DUP2 MLOAD PUSH2 0x47B0 DUP2 PUSH2 0x485C JUMP JUMPDEST PUSH0 PUSH1 0x1 DUP3 ADD PUSH2 0x57F3 JUMPI PUSH2 0x57F3 PUSH2 0x52F3 JUMP JUMPDEST POP PUSH1 0x1 ADD SWAP1 JUMP JUMPDEST PUSH1 0x40 DUP2 MSTORE PUSH0 PUSH2 0x580C PUSH1 0x40 DUP4 ADD DUP6 PUSH2 0x5768 JUMP JUMPDEST DUP3 DUP2 SUB PUSH1 0x20 DUP5 ADD MSTORE DUP1 DUP5 MLOAD DUP1 DUP4 MSTORE PUSH1 0x20 DUP4 ADD SWAP2 POP PUSH1 0x20 DUP7 ADD SWAP3 POP PUSH0 JUMPDEST DUP2 DUP2 LT ISZERO PUSH2 0x4F71 JUMPI DUP4 MLOAD PUSH1 0x1 PUSH1 0x1 PUSH1 0xA0 SHL SUB AND DUP4 MSTORE PUSH1 0x20 SWAP4 DUP5 ADD SWAP4 SWAP1 SWAP3 ADD SWAP2 PUSH1 0x1 ADD PUSH2 0x5828 JUMP JUMPDEST PUSH12 0x4E6577205075726368617365 PUSH1 0xA0 SHL DUP2 MSTORE PUSH0 PUSH2 0x47B0 PUSH1 0xC DUP4 ADD DUP5 PUSH2 0x55BF JUMP JUMPDEST PUSH18 0x13995DC813DC99195C88149958D95A5D9959 PUSH1 0x72 SHL DUP2 MSTORE PUSH0 PUSH2 0x47B0 PUSH1 0x12 DUP4 ADD DUP5 PUSH2 0x55BF JUMP JUMPDEST PUSH19 0x141D5C98DA185CD94814DD58D8D95CDCD99D5B PUSH1 0x6A SHL DUP2 MSTORE PUSH0 PUSH2 0x47B0 PUSH1 0x13 DUP4 ADD DUP5 PUSH2 0x55BF JUMP JUMPDEST PUSH21 0x1048141D5C98DA185CD94814DD58D8D95CDCD99D5B PUSH1 0x5A SHL DUP2 MSTORE PUSH0 PUSH2 0x47B0 PUSH1 0x15 DUP4 ADD DUP5 PUSH2 0x55BF JUMP INVALID GASLIMIT PUSH17 0x696320536176696E677320417761697421 KECCAK256 0x4F PUSH22 0x7220466C6173682053616C6520697320686572652077 PUSH10 0x7468206A61772D64726F PUSH17 0x70696E6720646973636F756E7473215765 KECCAK256 PUSH2 0x7265 KECCAK256 PUSH6 0x786369746564 KECCAK256 PUSH21 0x6F20696E74726F647563652061206E65772070726F PUSH5 0x7563742120 PREVRANDAO PUSH16 0x6E2774206D6973732074686520636861 PUSH15 0x636520746F20657870657269656E63 PUSH6 0x20746865206C PUSH2 0x7465 PUSH20 0x742070726F64756374732E20436865636B206974 KECCAK256 PUSH16 0x7574206E6F7720666F72206D6F726520 PUSH5 0x657461696C PUSH20 0x2E596F7572206E65772070726F64756374206861 PUSH20 0x206265656E207375636365737366756C6C792070 PUSH16 0x737465642120436865636B206974206F PUSH22 0x74206E6F77206F6E20796F75722073746F7265207061 PUSH8 0x6520616E64206765 PUSH21 0x20726561647920746F2061747472616374206D6F72 PUSH6 0x20637573746F PUSH14 0x6572732E596F757220637573746F PUSH14 0x6572206861732073756363657373 PUSH7 0x756C6C7920706C PUSH2 0x6365 PUSH5 0x20616E206F PUSH19 0x64657220666F7220796F75722070726F647563 PUSH21 0x21205468616E6B20796F7520666F7220706172746E PUSH6 0x72696E672077 PUSH10 0x74682075732E7B226672 PUSH16 0x6D223A202245636F6D557365722E736F PUSH13 0x222C22636F6465223A2041206E PUSH6 0x772070726F64 PUSH22 0x637420686173206265656E207375636365737366756C PUSH13 0x7920706F737465642062792061 KECCAK256 PUSH19 0x657461696C65722120436865636B206974206F PUSH22 0x74206F6E20746865207765627369746520616E642065 PUSH15 0x737572652065766572797468696E67 KECCAK256 PUSH10 0x7320696E206F72646572 MSIZE PUSH16 0x757220637573746F6D65722068617320 PUSH20 0x75636365737366756C6C7920706C616365642061 PUSH15 0x206F7264657220666F7220796F7572 KECCAK256 PUSH17 0x726F6475637421205468616E6B20796F75 KECCAK256 PUSH7 0x6F722070617274 PUSH15 0x6572696E6720776974682075736E15 BLOCKHASH OR SHL PUSH13 0xC960B71A7020D9F60077F6AF9 BALANCE 0xA8 0xBB CREATE2 SWAP1 0xDA MUL 0x23 0xDA 0xCF PUSH22 0xC7AF416E206F7264657220686173206265656E207375 PUSH4 0x63657373 PUSH7 0x756C6C7920706C PUSH2 0x6365 PUSH5 0x2062792061 KECCAK256 PUSH4 0x7573746F PUSH14 0x657220666F72206F6E65206F6620 PUSH26 0x6F75722070726F64756374732E20506C65617365207265766965 PUSH24 0x20746865206F726465722064657461696C7320746F20656E PUSH20 0x7572652065766572797468696E6720697320696E KECCAK256 PUSH16 0x72646572596F7572206F726465722068 PUSH2 0x7320 PUSH3 0x65656E KECCAK256 PUSH20 0x75636365737366756C6C7920706C616365642120 JUMPI PUSH6 0x2077696C6C20 PUSH17 0x726F6365737320616E6420736869702079 PUSH16 0x7572206F7264657220617320736F6F6E KECCAK256 PUSH2 0x7320 PUSH17 0x6F737369626C652E205468616E6B20796F PUSH22 0x20666F72207472757374696E6720616E642073686F70 PUSH17 0x696E672EA2646970667358221220B9B63D 0xA7 0xA5 0x2E SMOD BALANCE LOG0 0xD2 DUP13 0xC9 0xD3 0xC6 DUP2 CALLDATACOPY SAR 0xF SWAP13 PUSH14 0xA73D64E8B43D4392B77699106473 PUSH16 0x6C634300081A00330000000000000000 "
		},
		"gasEstimates": {
			"creation": {
				"codeDepositCost": "4758600",
				"executionCost": "infinite",
				"totalCost": "infinite"
			},
			"external": {
				"EcomInfo()": "3306",
				"EcomOrder()": "2624",
				"IsAdmin(address)": "3445",
				"IsController(address)": "3082",
				"IsRetailer(address)": "3467",
				"NOTIFIER()": "infinite",
				"Notification()": "2800",
				"SetEcomInfo(address)": "infinite",
				"SetEcomOrder(address)": "infinite",
				"SetNotification(address)": "infinite",
				"SetTreeCom(address)": "infinite",
				"TreeCom()": "3394",
				"addUserPayment(address,(uint8,uint256,address))": "infinite",
				"adminDeleteUser(address)": "infinite",
				"admins(uint256)": "4723",
				"controllers(uint256)": "5691",
				"deleteAdmin(address)": "infinite",
				"deleteController(address)": "infinite",
				"deleteUser()": "infinite",
				"getErrorMessage(uint256,string)": "infinite",
				"getNotificationSetting(address)": "3539",
				"getUser()": "infinite",
				"getUserInfo(address)": "infinite",
				"getUserParent(address)": "3584",
				"getUserPaymentHistory()": "infinite",
				"getUserPaymentHistoryInfo(address)": "infinite",
				"getUserRole(address)": "infinite",
				"getUsersInfo()": "infinite",
				"mAdmin(address)": "3221",
				"mController(address)": "3397",
				"mUserAddressInfo(address,uint256)": "infinite",
				"mUserInfo(address)": "infinite",
				"mUserPaymentHistory(address,uint256)": "9850",
				"owner()": "2953",
				"register((string,string,uint8,uint256,string,address,string))": "infinite",
				"registerRetailer(string,string)": "infinite",
				"sendCreateProductNotification(uint256,bool,address)": "infinite",
				"sendExecuteOrderNotification(uint256,address,address[])": "infinite",
				"sendMultipleNotification(string,string,address[],string)": "infinite",
				"sendNotification(string,string,address,string)": "infinite",
				"sendNotificationStorageOrder(uint256,address,address)": "infinite",
				"setAdmin(address)": "infinite",
				"setAdminNotificationSetting(bool,bool,bool,bool,bool,bool)": "infinite",
				"setController(address)": "infinite",
				"setCustomerNotificationSetting(bool,bool,bool,bool)": "infinite",
				"setRetailer(address)": "infinite",
				"setRetailerNotificationSetting(bool,bool,bool,bool,bool,bool)": "infinite",
				"updateUserImage(string)": "infinite",
				"updateUserInfo((string,string,uint8,uint256,string,address,string),(string,string,string,string,string)[])": "infinite",
				"userList(uint256)": "5383",
				"userNotificationSettings(address)": "3297"
			},
			"internal": {
				"setUser(address,enum ROLE)": "119312"
			}
		},
		"methodIdentifiers": {
			"EcomInfo()": "b814f77b",
			"EcomOrder()": "32f39436",
			"IsAdmin(address)": "b11e3c1a",
			"IsController(address)": "656952ad",
			"IsRetailer(address)": "b3a6404e",
			"NOTIFIER()": "9f2e6a0c",
			"Notification()": "630e8b30",
			"SetEcomInfo(address)": "8a8869e2",
			"SetEcomOrder(address)": "44089cd1",
			"SetNotification(address)": "30cbfb24",
			"SetTreeCom(address)": "4b5ba409",
			"TreeCom()": "e5fc4ac2",
			"addUserPayment(address,(uint8,uint256,address))": "025f36e5",
			"adminDeleteUser(address)": "8fd58a7d",
			"admins(uint256)": "14bfd6d0",
			"controllers(uint256)": "e94b0dd2",
			"deleteAdmin(address)": "27e1f7df",
			"deleteController(address)": "0cfe4d0e",
			"deleteUser()": "026ff05e",
			"getErrorMessage(uint256,string)": "2248632a",
			"getNotificationSetting(address)": "4d5d6ad0",
			"getUser()": "832880e7",
			"getUserInfo(address)": "6386c1c7",
			"getUserParent(address)": "e00f0dae",
			"getUserPaymentHistory()": "27f444e4",
			"getUserPaymentHistoryInfo(address)": "4fffd6ac",
			"getUserRole(address)": "27820851",
			"getUsersInfo()": "aaa3de26",
			"mAdmin(address)": "9ddf2e95",
			"mController(address)": "b3dd67fe",
			"mUserAddressInfo(address,uint256)": "25b4436d",
			"mUserInfo(address)": "5182104c",
			"mUserPaymentHistory(address,uint256)": "a36afc66",
			"owner()": "8da5cb5b",
			"register((string,string,uint8,uint256,string,address,string))": "b4e81660",
			"registerRetailer(string,string)": "0b6b8edc",
			"sendCreateProductNotification(uint256,bool,address)": "371c0fc7",
			"sendExecuteOrderNotification(uint256,address,address[])": "e205d94e",
			"sendMultipleNotification(string,string,address[],string)": "a702a64c",
			"sendNotification(string,string,address,string)": "96b170f5",
			"sendNotificationStorageOrder(uint256,address,address)": "eaf4ee9a",
			"setAdmin(address)": "704b6c02",
			"setAdminNotificationSetting(bool,bool,bool,bool,bool,bool)": "95564309",
			"setController(address)": "92eefe9b",
			"setCustomerNotificationSetting(bool,bool,bool,bool)": "23398aab",
			"setRetailer(address)": "4a1f6125",
			"setRetailerNotificationSetting(bool,bool,bool,bool,bool,bool)": "b618a35f",
			"updateUserImage(string)": "0316e0eb",
			"updateUserInfo((string,string,uint8,uint256,string,address,string),(string,string,string,string,string)[])": "d4dbdcce",
			"userList(uint256)": "9f4216e8",
			"userNotificationSettings(address)": "72b1d452"
		}
	},
	"abi": [
		{
			"inputs": [],
			"stateMutability": "payable",
			"type": "constructor"
		},
		{
			"anonymous": false,
			"inputs": [
				{
					"indexed": false,
					"internalType": "string",
					"name": "username",
					"type": "string"
				},
				{
					"indexed": false,
					"internalType": "address",
					"name": "user",
					"type": "address"
				},
				{
					"indexed": false,
					"internalType": "string",
					"name": "phoneNumber",
					"type": "string"
				}
			],
			"name": "eRegisterRetailer",
			"type": "event"
		},
		{
			"inputs": [],
			"name": "EcomInfo",
			"outputs": [
				{
					"internalType": "contract IEcomInfo",
					"name": "",
					"type": "address"
				}
			],
			"stateMutability": "view",
			"type": "function"
		},
		{
			"inputs": [],
			"name": "EcomOrder",
			"outputs": [
				{
					"internalType": "contract IEcomOrder",
					"name": "",
					"type": "address"
				}
			],
			"stateMutability": "view",
			"type": "function"
		},
		{
			"inputs": [
				{
					"internalType": "address",
					"name": "_user",
					"type": "address"
				}
			],
			"name": "IsAdmin",
			"outputs": [
				{
					"internalType": "bool",
					"name": "",
					"type": "bool"
				}
			],
			"stateMutability": "view",
			"type": "function"
		},
		{
			"inputs": [
				{
					"internalType": "address",
					"name": "_user",
					"type": "address"
				}
			],
			"name": "IsController",
			"outputs": [
				{
					"internalType": "bool",
					"name": "",
					"type": "bool"
				}
			],
			"stateMutability": "view",
			"type": "function"
		},
		{
			"inputs": [
				{
					"internalType": "address",
					"name": "_user",
					"type": "address"
				}
			],
			"name": "IsRetailer",
			"outputs": [
				{
					"internalType": "bool",
					"name": "",
					"type": "bool"
				}
			],
			"stateMutability": "view",
			"type": "function"
		},
		{
			"inputs": [],
			"name": "NOTIFIER",
			"outputs": [
				{
					"internalType": "string",
					"name": "",
					"type": "string"
				}
			],
			"stateMutability": "view",
			"type": "function"
		},
		{
			"inputs": [],
			"name": "Notification",
			"outputs": [
				{
					"internalType": "contract INoti",
					"name": "",
					"type": "address"
				}
			],
			"stateMutability": "view",
			"type": "function"
		},
		{
			"inputs": [
				{
					"internalType": "address",
					"name": "_ecomInfo",
					"type": "address"
				}
			],
			"name": "SetEcomInfo",
			"outputs": [
				{
					"internalType": "bool",
					"name": "",
					"type": "bool"
				}
			],
			"stateMutability": "nonpayable",
			"type": "function"
		},
		{
			"inputs": [
				{
					"internalType": "address",
					"name": "_ecomOrder",
					"type": "address"
				}
			],
			"name": "SetEcomOrder",
			"outputs": [
				{
					"internalType": "bool",
					"name": "",
					"type": "bool"
				}
			],
			"stateMutability": "nonpayable",
			"type": "function"
		},
		{
			"inputs": [
				{
					"internalType": "address",
					"name": "_noti",
					"type": "address"
				}
			],
			"name": "SetNotification",
			"outputs": [
				{
					"internalType": "bool",
					"name": "",
					"type": "bool"
				}
			],
			"stateMutability": "nonpayable",
			"type": "function"
		},
		{
			"inputs": [
				{
					"internalType": "address",
					"name": "_po5",
					"type": "address"
				}
			],
			"name": "SetTreeCom",
			"outputs": [
				{
					"internalType": "bool",
					"name": "",
					"type": "bool"
				}
			],
			"stateMutability": "nonpayable",
			"type": "function"
		},
		{
			"inputs": [],
			"name": "TreeCom",
			"outputs": [
				{
					"internalType": "contract ITreeCom",
					"name": "",
					"type": "address"
				}
			],
			"stateMutability": "view",
			"type": "function"
		},
		{
			"inputs": [
				{
					"internalType": "address",
					"name": "_user",
					"type": "address"
				},
				{
					"components": [
						{
							"internalType": "uint8",
							"name": "paymentType",
							"type": "uint8"
						},
						{
							"internalType": "uint256",
							"name": "totalPayment",
							"type": "uint256"
						},
						{
							"internalType": "address",
							"name": "buyer",
							"type": "address"
						}
					],
					"internalType": "struct PaymentHistory",
					"name": "_payment",
					"type": "tuple"
				}
			],
			"name": "addUserPayment",
			"outputs": [],
			"stateMutability": "nonpayable",
			"type": "function"
		},
		{
			"inputs": [
				{
					"internalType": "address",
					"name": "_user",
					"type": "address"
				}
			],
			"name": "adminDeleteUser",
			"outputs": [
				{
					"internalType": "bool",
					"name": "",
					"type": "bool"
				}
			],
			"stateMutability": "nonpayable",
			"type": "function"
		},
		{
			"inputs": [
				{
					"internalType": "uint256",
					"name": "",
					"type": "uint256"
				}
			],
			"name": "admins",
			"outputs": [
				{
					"internalType": "address",
					"name": "",
					"type": "address"
				}
			],
			"stateMutability": "view",
			"type": "function"
		},
		{
			"inputs": [
				{
					"internalType": "uint256",
					"name": "",
					"type": "uint256"
				}
			],
			"name": "controllers",
			"outputs": [
				{
					"internalType": "address",
					"name": "",
					"type": "address"
				}
			],
			"stateMutability": "view",
			"type": "function"
		},
		{
			"inputs": [
				{
					"internalType": "address",
					"name": "user",
					"type": "address"
				}
			],
			"name": "deleteAdmin",
			"outputs": [
				{
					"internalType": "bool",
					"name": "",
					"type": "bool"
				}
			],
			"stateMutability": "nonpayable",
			"type": "function"
		},
		{
			"inputs": [
				{
					"internalType": "address",
					"name": "user",
					"type": "address"
				}
			],
			"name": "deleteController",
			"outputs": [
				{
					"internalType": "bool",
					"name": "",
					"type": "bool"
				}
			],
			"stateMutability": "nonpayable",
			"type": "function"
		},
		{
			"inputs": [],
			"name": "deleteUser",
			"outputs": [
				{
					"internalType": "bool",
					"name": "",
					"type": "bool"
				}
			],
			"stateMutability": "nonpayable",
			"type": "function"
		},
		{
			"inputs": [
				{
					"internalType": "uint256",
					"name": "code",
					"type": "uint256"
				},
				{
					"internalType": "string",
					"name": "message",
					"type": "string"
				}
			],
			"name": "getErrorMessage",
			"outputs": [
				{
					"internalType": "string",
					"name": "",
					"type": "string"
				}
			],
			"stateMutability": "pure",
			"type": "function"
		},
		{
			"inputs": [
				{
					"internalType": "address",
					"name": "_user",
					"type": "address"
				}
			],
			"name": "getNotificationSetting",
			"outputs": [
				{
					"components": [
						{
							"internalType": "bool",
							"name": "NotificationEmail",
							"type": "bool"
						},
						{
							"internalType": "bool",
							"name": "OrderUpdate",
							"type": "bool"
						},
						{
							"internalType": "bool",
							"name": "PromotionalProgram",
							"type": "bool"
						},
						{
							"internalType": "bool",
							"name": "CreateProduct",
							"type": "bool"
						},
						{
							"internalType": "bool",
							"name": "CustomerOrderUpdate",
							"type": "bool"
						},
						{
							"internalType": "bool",
							"name": "CommentUpdate",
							"type": "bool"
						}
					],
					"internalType": "struct NotificationSetting",
					"name": "",
					"type": "tuple"
				}
			],
			"stateMutability": "view",
			"type": "function"
		},
		{
			"inputs": [],
			"name": "getUser",
			"outputs": [
				{
					"components": [
						{
							"internalType": "address",
							"name": "user",
							"type": "address"
						},
						{
							"internalType": "string",
							"name": "fullName",
							"type": "string"
						},
						{
							"internalType": "string",
							"name": "email",
							"type": "string"
						},
						{
							"internalType": "uint8",
							"name": "gender",
							"type": "uint8"
						},
						{
							"internalType": "uint256",
							"name": "dateOfBirth",
							"type": "uint256"
						},
						{
							"internalType": "string",
							"name": "phoneNumber",
							"type": "string"
						},
						{
							"internalType": "string",
							"name": "image",
							"type": "string"
						},
						{
							"internalType": "enum ROLE",
							"name": "role",
							"type": "uint8"
						},
						{
							"internalType": "uint256",
							"name": "createdAt",
							"type": "uint256"
						},
						{
							"internalType": "address",
							"name": "parent",
							"type": "address"
						}
					],
					"internalType": "struct UserInfo",
					"name": "info",
					"type": "tuple"
				},
				{
					"components": [
						{
							"internalType": "string",
							"name": "country",
							"type": "string"
						},
						{
							"internalType": "string",
							"name": "city",
							"type": "string"
						},
						{
							"internalType": "string",
							"name": "state",
							"type": "string"
						},
						{
							"internalType": "string",
							"name": "postalCode",
							"type": "string"
						},
						{
							"internalType": "string",
							"name": "detailAddress",
							"type": "string"
						}
					],
					"internalType": "struct AddressInfo[]",
					"name": "addresses",
					"type": "tuple[]"
				}
			],
			"stateMutability": "view",
			"type": "function"
		},
		{
			"inputs": [
				{
					"internalType": "address",
					"name": "_user",
					"type": "address"
				}
			],
			"name": "getUserInfo",
			"outputs": [
				{
					"components": [
						{
							"internalType": "address",
							"name": "user",
							"type": "address"
						},
						{
							"internalType": "string",
							"name": "fullName",
							"type": "string"
						},
						{
							"internalType": "string",
							"name": "email",
							"type": "string"
						},
						{
							"internalType": "uint8",
							"name": "gender",
							"type": "uint8"
						},
						{
							"internalType": "uint256",
							"name": "dateOfBirth",
							"type": "uint256"
						},
						{
							"internalType": "string",
							"name": "phoneNumber",
							"type": "string"
						},
						{
							"internalType": "string",
							"name": "image",
							"type": "string"
						},
						{
							"internalType": "enum ROLE",
							"name": "role",
							"type": "uint8"
						},
						{
							"internalType": "uint256",
							"name": "createdAt",
							"type": "uint256"
						},
						{
							"internalType": "address",
							"name": "parent",
							"type": "address"
						}
					],
					"internalType": "struct UserInfo",
					"name": "info",
					"type": "tuple"
				},
				{
					"components": [
						{
							"internalType": "string",
							"name": "country",
							"type": "string"
						},
						{
							"internalType": "string",
							"name": "city",
							"type": "string"
						},
						{
							"internalType": "string",
							"name": "state",
							"type": "string"
						},
						{
							"internalType": "string",
							"name": "postalCode",
							"type": "string"
						},
						{
							"internalType": "string",
							"name": "detailAddress",
							"type": "string"
						}
					],
					"internalType": "struct AddressInfo[]",
					"name": "addresses",
					"type": "tuple[]"
				}
			],
			"stateMutability": "view",
			"type": "function"
		},
		{
			"inputs": [
				{
					"internalType": "address",
					"name": "_user",
					"type": "address"
				}
			],
			"name": "getUserParent",
			"outputs": [
				{
					"internalType": "address",
					"name": "",
					"type": "address"
				}
			],
			"stateMutability": "view",
			"type": "function"
		},
		{
			"inputs": [],
			"name": "getUserPaymentHistory",
			"outputs": [
				{
					"components": [
						{
							"internalType": "uint8",
							"name": "paymentType",
							"type": "uint8"
						},
						{
							"internalType": "uint256",
							"name": "totalPayment",
							"type": "uint256"
						},
						{
							"internalType": "address",
							"name": "buyer",
							"type": "address"
						}
					],
					"internalType": "struct PaymentHistory[]",
					"name": "",
					"type": "tuple[]"
				}
			],
			"stateMutability": "view",
			"type": "function"
		},
		{
			"inputs": [
				{
					"internalType": "address",
					"name": "_user",
					"type": "address"
				}
			],
			"name": "getUserPaymentHistoryInfo",
			"outputs": [
				{
					"components": [
						{
							"internalType": "uint8",
							"name": "paymentType",
							"type": "uint8"
						},
						{
							"internalType": "uint256",
							"name": "totalPayment",
							"type": "uint256"
						},
						{
							"internalType": "address",
							"name": "buyer",
							"type": "address"
						}
					],
					"internalType": "struct PaymentHistory[]",
					"name": "",
					"type": "tuple[]"
				}
			],
			"stateMutability": "view",
			"type": "function"
		},
		{
			"inputs": [
				{
					"internalType": "address",
					"name": "_user",
					"type": "address"
				}
			],
			"name": "getUserRole",
			"outputs": [
				{
					"internalType": "enum ROLE",
					"name": "",
					"type": "uint8"
				}
			],
			"stateMutability": "view",
			"type": "function"
		},
		{
			"inputs": [],
			"name": "getUsersInfo",
			"outputs": [
				{
					"components": [
						{
							"internalType": "address",
							"name": "user",
							"type": "address"
						},
						{
							"internalType": "string",
							"name": "fullName",
							"type": "string"
						},
						{
							"internalType": "string",
							"name": "email",
							"type": "string"
						},
						{
							"internalType": "uint8",
							"name": "gender",
							"type": "uint8"
						},
						{
							"internalType": "uint256",
							"name": "dateOfBirth",
							"type": "uint256"
						},
						{
							"internalType": "string",
							"name": "phoneNumber",
							"type": "string"
						},
						{
							"internalType": "string",
							"name": "image",
							"type": "string"
						},
						{
							"internalType": "enum ROLE",
							"name": "role",
							"type": "uint8"
						},
						{
							"internalType": "uint256",
							"name": "createdAt",
							"type": "uint256"
						},
						{
							"internalType": "address",
							"name": "parent",
							"type": "address"
						}
					],
					"internalType": "struct UserInfo[]",
					"name": "infos",
					"type": "tuple[]"
				},
				{
					"internalType": "uint256[]",
					"name": "purchases",
					"type": "uint256[]"
				}
			],
			"stateMutability": "view",
			"type": "function"
		},
		{
			"inputs": [
				{
					"internalType": "address",
					"name": "",
					"type": "address"
				}
			],
			"name": "mAdmin",
			"outputs": [
				{
					"internalType": "bool",
					"name": "",
					"type": "bool"
				}
			],
			"stateMutability": "view",
			"type": "function"
		},
		{
			"inputs": [
				{
					"internalType": "address",
					"name": "",
					"type": "address"
				}
			],
			"name": "mController",
			"outputs": [
				{
					"internalType": "bool",
					"name": "",
					"type": "bool"
				}
			],
			"stateMutability": "view",
			"type": "function"
		},
		{
			"inputs": [
				{
					"internalType": "address",
					"name": "",
					"type": "address"
				},
				{
					"internalType": "uint256",
					"name": "",
					"type": "uint256"
				}
			],
			"name": "mUserAddressInfo",
			"outputs": [
				{
					"internalType": "string",
					"name": "country",
					"type": "string"
				},
				{
					"internalType": "string",
					"name": "city",
					"type": "string"
				},
				{
					"internalType": "string",
					"name": "state",
					"type": "string"
				},
				{
					"internalType": "string",
					"name": "postalCode",
					"type": "string"
				},
				{
					"internalType": "string",
					"name": "detailAddress",
					"type": "string"
				}
			],
			"stateMutability": "view",
			"type": "function"
		},
		{
			"inputs": [
				{
					"internalType": "address",
					"name": "",
					"type": "address"
				}
			],
			"name": "mUserInfo",
			"outputs": [
				{
					"internalType": "address",
					"name": "user",
					"type": "address"
				},
				{
					"internalType": "string",
					"name": "fullName",
					"type": "string"
				},
				{
					"internalType": "string",
					"name": "email",
					"type": "string"
				},
				{
					"internalType": "uint8",
					"name": "gender",
					"type": "uint8"
				},
				{
					"internalType": "uint256",
					"name": "dateOfBirth",
					"type": "uint256"
				},
				{
					"internalType": "string",
					"name": "phoneNumber",
					"type": "string"
				},
				{
					"internalType": "string",
					"name": "image",
					"type": "string"
				},
				{
					"internalType": "enum ROLE",
					"name": "role",
					"type": "uint8"
				},
				{
					"internalType": "uint256",
					"name": "createdAt",
					"type": "uint256"
				},
				{
					"internalType": "address",
					"name": "parent",
					"type": "address"
				}
			],
			"stateMutability": "view",
			"type": "function"
		},
		{
			"inputs": [
				{
					"internalType": "address",
					"name": "",
					"type": "address"
				},
				{
					"internalType": "uint256",
					"name": "",
					"type": "uint256"
				}
			],
			"name": "mUserPaymentHistory",
			"outputs": [
				{
					"internalType": "uint8",
					"name": "paymentType",
					"type": "uint8"
				},
				{
					"internalType": "uint256",
					"name": "totalPayment",
					"type": "uint256"
				},
				{
					"internalType": "address",
					"name": "buyer",
					"type": "address"
				}
			],
			"stateMutability": "view",
			"type": "function"
		},
		{
			"inputs": [],
			"name": "owner",
			"outputs": [
				{
					"internalType": "address",
					"name": "",
					"type": "address"
				}
			],
			"stateMutability": "view",
			"type": "function"
		},
		{
			"inputs": [
				{
					"components": [
						{
							"internalType": "string",
							"name": "fullName",
							"type": "string"
						},
						{
							"internalType": "string",
							"name": "email",
							"type": "string"
						},
						{
							"internalType": "uint8",
							"name": "gender",
							"type": "uint8"
						},
						{
							"internalType": "uint256",
							"name": "dateOfBirth",
							"type": "uint256"
						},
						{
							"internalType": "string",
							"name": "phoneNumber",
							"type": "string"
						},
						{
							"internalType": "address",
							"name": "parent",
							"type": "address"
						},
						{
							"internalType": "string",
							"name": "image",
							"type": "string"
						}
					],
					"internalType": "struct registerParams",
					"name": "params",
					"type": "tuple"
				}
			],
			"name": "register",
			"outputs": [
				{
					"internalType": "bool",
					"name": "",
					"type": "bool"
				}
			],
			"stateMutability": "nonpayable",
			"type": "function"
		},
		{
			"inputs": [
				{
					"internalType": "string",
					"name": "_username",
					"type": "string"
				},
				{
					"internalType": "string",
					"name": "_phoneNumber",
					"type": "string"
				}
			],
			"name": "registerRetailer",
			"outputs": [
				{
					"internalType": "bool",
					"name": "",
					"type": "bool"
				}
			],
			"stateMutability": "nonpayable",
			"type": "function"
		},
		{
			"inputs": [
				{
					"internalType": "uint256",
					"name": "_productID",
					"type": "uint256"
				},
				{
					"internalType": "bool",
					"name": "isFlashSale",
					"type": "bool"
				},
				{
					"internalType": "address",
					"name": "retailer",
					"type": "address"
				}
			],
			"name": "sendCreateProductNotification",
			"outputs": [],
			"stateMutability": "nonpayable",
			"type": "function"
		},
		{
			"inputs": [
				{
					"internalType": "uint256",
					"name": "_orderID",
					"type": "uint256"
				},
				{
					"internalType": "address",
					"name": "_buyer",
					"type": "address"
				},
				{
					"internalType": "address[]",
					"name": "_retailers",
					"type": "address[]"
				}
			],
			"name": "sendExecuteOrderNotification",
			"outputs": [],
			"stateMutability": "nonpayable",
			"type": "function"
		},
		{
			"inputs": [
				{
					"internalType": "string",
					"name": "title",
					"type": "string"
				},
				{
					"internalType": "string",
					"name": "body",
					"type": "string"
				},
				{
					"internalType": "address[]",
					"name": "_to",
					"type": "address[]"
				},
				{
					"internalType": "string",
					"name": "notificationType",
					"type": "string"
				}
			],
			"name": "sendMultipleNotification",
			"outputs": [],
			"stateMutability": "nonpayable",
			"type": "function"
		},
		{
			"inputs": [
				{
					"internalType": "string",
					"name": "title",
					"type": "string"
				},
				{
					"internalType": "string",
					"name": "body",
					"type": "string"
				},
				{
					"internalType": "address",
					"name": "_to",
					"type": "address"
				},
				{
					"internalType": "string",
					"name": "notificationType",
					"type": "string"
				}
			],
			"name": "sendNotification",
			"outputs": [],
			"stateMutability": "nonpayable",
			"type": "function"
		},
		{
			"inputs": [
				{
					"internalType": "uint256",
					"name": "_orderID",
					"type": "uint256"
				},
				{
					"internalType": "address",
					"name": "_user",
					"type": "address"
				},
				{
					"internalType": "address",
					"name": "_owner",
					"type": "address"
				}
			],
			"name": "sendNotificationStorageOrder",
			"outputs": [],
			"stateMutability": "nonpayable",
			"type": "function"
		},
		{
			"inputs": [
				{
					"internalType": "address",
					"name": "user",
					"type": "address"
				}
			],
			"name": "setAdmin",
			"outputs": [
				{
					"internalType": "bool",
					"name": "",
					"type": "bool"
				}
			],
			"stateMutability": "nonpayable",
			"type": "function"
		},
		{
			"inputs": [
				{
					"internalType": "bool",
					"name": "_email",
					"type": "bool"
				},
				{
					"internalType": "bool",
					"name": "_orderUpdate",
					"type": "bool"
				},
				{
					"internalType": "bool",
					"name": "_promotion",
					"type": "bool"
				},
				{
					"internalType": "bool",
					"name": "_createProduct",
					"type": "bool"
				},
				{
					"internalType": "bool",
					"name": "_customerOrderUpdate",
					"type": "bool"
				},
				{
					"internalType": "bool",
					"name": "_commentUpdate",
					"type": "bool"
				}
			],
			"name": "setAdminNotificationSetting",
			"outputs": [
				{
					"internalType": "bool",
					"name": "",
					"type": "bool"
				}
			],
			"stateMutability": "nonpayable",
			"type": "function"
		},
		{
			"inputs": [
				{
					"internalType": "address",
					"name": "user",
					"type": "address"
				}
			],
			"name": "setController",
			"outputs": [
				{
					"internalType": "bool",
					"name": "",
					"type": "bool"
				}
			],
			"stateMutability": "nonpayable",
			"type": "function"
		},
		{
			"inputs": [
				{
					"internalType": "bool",
					"name": "_email",
					"type": "bool"
				},
				{
					"internalType": "bool",
					"name": "_orderUpdate",
					"type": "bool"
				},
				{
					"internalType": "bool",
					"name": "_promotion",
					"type": "bool"
				},
				{
					"internalType": "bool",
					"name": "_createProduct",
					"type": "bool"
				}
			],
			"name": "setCustomerNotificationSetting",
			"outputs": [
				{
					"internalType": "bool",
					"name": "",
					"type": "bool"
				}
			],
			"stateMutability": "nonpayable",
			"type": "function"
		},
		{
			"inputs": [
				{
					"internalType": "address",
					"name": "_user",
					"type": "address"
				}
			],
			"name": "setRetailer",
			"outputs": [
				{
					"internalType": "bool",
					"name": "",
					"type": "bool"
				}
			],
			"stateMutability": "nonpayable",
			"type": "function"
		},
		{
			"inputs": [
				{
					"internalType": "bool",
					"name": "_email",
					"type": "bool"
				},
				{
					"internalType": "bool",
					"name": "_orderUpdate",
					"type": "bool"
				},
				{
					"internalType": "bool",
					"name": "_promotion",
					"type": "bool"
				},
				{
					"internalType": "bool",
					"name": "_createProduct",
					"type": "bool"
				},
				{
					"internalType": "bool",
					"name": "_customerOrderUpdate",
					"type": "bool"
				},
				{
					"internalType": "bool",
					"name": "_commentUpdate",
					"type": "bool"
				}
			],
			"name": "setRetailerNotificationSetting",
			"outputs": [
				{
					"internalType": "bool",
					"name": "",
					"type": "bool"
				}
			],
			"stateMutability": "nonpayable",
			"type": "function"
		},
		{
			"inputs": [
				{
					"internalType": "string",
					"name": "image",
					"type": "string"
				}
			],
			"name": "updateUserImage",
			"outputs": [
				{
					"internalType": "bool",
					"name": "",
					"type": "bool"
				}
			],
			"stateMutability": "nonpayable",
			"type": "function"
		},
		{
			"inputs": [
				{
					"components": [
						{
							"internalType": "string",
							"name": "fullName",
							"type": "string"
						},
						{
							"internalType": "string",
							"name": "email",
							"type": "string"
						},
						{
							"internalType": "uint8",
							"name": "gender",
							"type": "uint8"
						},
						{
							"internalType": "uint256",
							"name": "dateOfBirth",
							"type": "uint256"
						},
						{
							"internalType": "string",
							"name": "phoneNumber",
							"type": "string"
						},
						{
							"internalType": "address",
							"name": "parent",
							"type": "address"
						},
						{
							"internalType": "string",
							"name": "image",
							"type": "string"
						}
					],
					"internalType": "struct registerParams",
					"name": "params",
					"type": "tuple"
				},
				{
					"components": [
						{
							"internalType": "string",
							"name": "country",
							"type": "string"
						},
						{
							"internalType": "string",
							"name": "city",
							"type": "string"
						},
						{
							"internalType": "string",
							"name": "state",
							"type": "string"
						},
						{
							"internalType": "string",
							"name": "postalCode",
							"type": "string"
						},
						{
							"internalType": "string",
							"name": "detailAddress",
							"type": "string"
						}
					],
					"internalType": "struct AddressInfo[]",
					"name": "addressesInfo",
					"type": "tuple[]"
				}
			],
			"name": "updateUserInfo",
			"outputs": [
				{
					"internalType": "bool",
					"name": "",
					"type": "bool"
				}
			],
			"stateMutability": "nonpayable",
			"type": "function"
		},
		{
			"inputs": [
				{
					"internalType": "uint256",
					"name": "",
					"type": "uint256"
				}
			],
			"name": "userList",
			"outputs": [
				{
					"internalType": "address",
					"name": "",
					"type": "address"
				}
			],
			"stateMutability": "view",
			"type": "function"
		},
		{
			"inputs": [
				{
					"internalType": "address",
					"name": "",
					"type": "address"
				}
			],
			"name": "userNotificationSettings",
			"outputs": [
				{
					"internalType": "bool",
					"name": "NotificationEmail",
					"type": "bool"
				},
				{
					"internalType": "bool",
					"name": "OrderUpdate",
					"type": "bool"
				},
				{
					"internalType": "bool",
					"name": "PromotionalProgram",
					"type": "bool"
				},
				{
					"internalType": "bool",
					"name": "CreateProduct",
					"type": "bool"
				},
				{
					"internalType": "bool",
					"name": "CustomerOrderUpdate",
					"type": "bool"
				},
				{
					"internalType": "bool",
					"name": "CommentUpdate",
					"type": "bool"
				}
			],
			"stateMutability": "view",
			"type": "function"
		}
	]
}