{
	"data": {
		"bytecode": {
			"linkReferences": {},
			"object": "60806040523360175f6101000a81548173ffffffffffffffffffffffffffffffffffffffff021916908373ffffffffffffffffffffffffffffffffffffffff16021790555061e8fe806100515f395ff3fe608060405234801561000f575f80fd5b506004361061033f575f3560e01c806396e98874116101b6578063cf99136411610102578063e5fc4ac2116100a0578063f894196e1161007a578063f894196e14610bb3578063fb08e12e14610bcf578063fb7ef37714610bff578063ffafe92914610c1d5761033f565b8063e5fc4ac214610b47578063ea68ba9914610b65578063f29155ef14610b955761033f565b8063da31f88a116100dc578063da31f88a14610a84578063ddcd640814610ab7578063e217866c14610ae7578063e5e00e9314610b175761033f565b8063cf99136414610a08578063d09ef24114610a24578063d71f818114610a545761033f565b8063ab238f1f1161016f578063c006e9a911610149578063c006e9a914610958578063c54e44eb14610988578063cac0e650146109a6578063cf9796ec146109d65761033f565b8063ab238f1f146108da578063b814f77b1461090a578063bfbe3ef7146109285761033f565b806396e98874146107cb5780639a377a37146107fc578063a354f1b21461082c578063a4e176ea1461084a578063a559934e1461087a578063a875588d146108aa5761033f565b80634b5ba4091161029057806376d6e7ef1161022e57806386cb0d921161020857806386cb0d921461071d5780638a8869e21461074d5780638da5cb5b1461077d57806393c262291461079b5761033f565b806376d6e7ef1461068d5780637ce47345146106bd578063834f9ed3146106ed5761033f565b80635a7f48f81161026a5780635a7f48f8146105cd57806362de6230146105fd57806363c69f081461062d578063664008f81461065d5761033f565b80634b5ba409146105635780634d5c5fd7146105935780634e8781cd146105b15761033f565b80632d8206fe116102fd57806330d51a32116102d757806330d51a32146104c7578063399cfa1e146104f757806344d803301461052757806346e115c0146105455761033f565b80632d8206fe146104525780632e2dc43e1461048d57806330bf6522146104ab5761033f565b8062e6af7f1461034357806302b572d614610376578063040f1d72146103a657806308a53b21146103c25780631fda90a2146103f25780632248632a14610422575b5f80fd5b61035d60048036038101906103589190619bb9565b610c4d565b60405161036d9493929190619c4c565b60405180910390f35b610390600480360381019061038b9190619cb9565b610ca5565b60405161039d9190619cf7565b60405180910390f35b6103c060048036038101906103bb919061a02d565b610cd0565b005b6103dc60048036038101906103d7919061a427565b610f56565b6040516103e9919061a493565b60405180910390f35b61040c6004803603810190610407919061a4ac565b611170565b604051610419919061a65f565b60405180910390f35b61043c6004803603810190610437919061a67f565b6112b1565b604051610449919061a739565b60405180910390f35b61046c60048036038101906104679190619bb9565b6112ea565b6040516104849c9b9a9998979695949392919061a783565b60405180910390f35b6104956113a9565b6040516104a2919061ac13565b60405180910390f35b6104c560048036038101906104c0919061ac56565b61181b565b005b6104e160048036038101906104dc919061ad32565b611b7b565b6040516104ee919061a493565b60405180910390f35b610511600480360381019061050c919061ad79565b611c0d565b60405161051e919061ae2f565b60405180910390f35b61052f61236d565b60405161053c919061a65f565b60405180910390f35b61054d6124ac565b60405161055a919061b0c8565b60405180910390f35b61057d6004803603810190610578919061a4ac565b61283e565b60405161058a919061a493565b60405180910390f35b61059b612919565b6040516105a8919061b143565b60405180910390f35b6105cb60048036038101906105c69190619bb9565b61293e565b005b6105e760048036038101906105e29190619cb9565b61294b565b6040516105f49190619cf7565b60405180910390f35b6106176004803603810190610612919061a4ac565b612976565b604051610624919061a493565b60405180910390f35b6106476004803603810190610642919061a4ac565b612a51565b604051610654919061ac13565b60405180910390f35b6106776004803603810190610672919061a4ac565b612f49565b604051610684919061b15c565b60405180910390f35b6106a760048036038101906106a2919061b491565b612f5e565b6040516106b4919061b15c565b60405180910390f35b6106d760048036038101906106d2919061b519565b613712565b6040516106e4919061ae2f565b60405180910390f35b61070760048036038101906107029190619bb9565b613b29565b604051610714919061b6f9565b60405180910390f35b6107376004803603810190610732919061b719565b6140f1565b604051610744919061a493565b60405180910390f35b6107676004803603810190610762919061a4ac565b61413b565b604051610774919061a493565b60405180910390f35b610785614216565b604051610792919061b760565b60405180910390f35b6107b560048036038101906107b0919061b89a565b61423b565b6040516107c2919061b94d565b60405180910390f35b6107e560048036038101906107e0919061a4ac565b614339565b6040516107f392919061b96d565b60405180910390f35b6108166004803603810190610811919061a4ac565b614377565b604051610823919061a493565b60405180910390f35b610834614452565b604051610841919061b9b4565b60405180910390f35b610864600480360381019061085f919061b719565b614477565b604051610871919061a493565b60405180910390f35b610894600480360381019061088f919061a4ac565b6144be565b6040516108a1919061a493565b60405180910390f35b6108c460048036038101906108bf919061b9cd565b614599565b6040516108d19190619cf7565b60405180910390f35b6108f460048036038101906108ef919061ba27565b614828565b604051610901919061bc10565b60405180910390f35b610912614c08565b60405161091f919061bc50565b60405180910390f35b610942600480360381019061093d9190619bb9565b614c2d565b60405161094f9190619cf7565b60405180910390f35b610972600480360381019061096d9190619bb9565b614c42565b60405161097f919061a493565b60405180910390f35b610990614fdc565b60405161099d919061bc89565b60405180910390f35b6109c060048036038101906109bb919061a4ac565b615001565b6040516109cd919061a493565b60405180910390f35b6109f060048036038101906109eb9190619bb9565b6150dc565b6040516109ff9392919061bea8565b60405180910390f35b610a226004803603810190610a1d919061bf6d565b6156ce565b005b610a3e6004803603810190610a399190619bb9565b6157d1565b604051610a4b919061bc10565b60405180910390f35b610a6e6004803603810190610a699190619bb9565b615b9b565b604051610a7b919061c00b565b60405180910390f35b610a9e6004803603810190610a999190619bb9565b615e06565b604051610aae949392919061c02b565b60405180910390f35b610ad16004803603810190610acc919061a4ac565b61636b565b604051610ade919061a493565b60405180910390f35b610b016004803603810190610afc9190619bb9565b616446565b604051610b0e919061c318565b60405180910390f35b610b316004803603810190610b2c919061a4ac565b616bdc565b604051610b3e919061b0c8565b60405180910390f35b610b4f616f70565b604051610b5c919061c358565b60405180910390f35b610b7f6004803603810190610b7a9190619cb9565b616f95565b604051610b8c9190619cf7565b60405180910390f35b610b9d616fc0565b604051610baa919061b760565b60405180910390f35b610bcd6004803603810190610bc8919061ba27565b616fe5565b005b610be96004803603810190610be4919061ba27565b617cc7565b604051610bf69190619cf7565b60405180910390f35b610c07617ce1565b604051610c14919061b760565b60405180910390f35b610c376004803603810190610c32919061c47e565b617d06565b604051610c44919061b94d565b60405180910390f35b6007602052805f5260405f205f91509050805f015490806002015f9054906101000a900473ffffffffffffffffffffffffffffffffffffffff16908060020160149054906101000a900460ff16908060030154905084565b600b602052815f5260405f208181548110610cbe575f80fd5b905f5260205f20015f91509150505481565b600d5f815480929190610ce29061c4f2565b91905055505f6040518060800160405280600d5481526020018481526020018373ffffffffffffffffffffffffffffffffffffffff1681526020018581525090508060095f600d5481526020019081526020015f205f820151815f0155602082015181600101556040820151816002015f6101000a81548173ffffffffffffffffffffffffffffffffffffffff021916908373ffffffffffffffffffffffffffffffffffffffff1602179055506060820151816003015f820151815f019081610dab919061c72a565b506020820151816001019081610dc1919061c72a565b506040820151816002019081610dd7919061c72a565b506060820151816003019081610ded919061c72a565b506080820151816004019081610e03919061c72a565b5060a0820151816005019081610e19919061c72a565b5060c0820151816006019081610e2f919061c72a565b5060e0820151816007019081610e45919061c72a565b50610100820151816008019081610e5c919061c72a565b505050905050600d54600a5f8581526020019081526020015f2081905550600b5f8373ffffffffffffffffffffffffffffffffffffffff1673ffffffffffffffffffffffffffffffffffffffff1681526020019081526020015f20600d54908060018154018082558091505060019003905f5260205f20015f90919091909150557f6cbe635891bad406edfda1cd61005929db6c504109c59b9afe10f74944de95cb600d548484875f0151886020015189604001518a606001518b608001518c60a001518d60c001518e60e001518f6101000151604051610f489c9b9a9998979695949392919061c7f9565b60405180910390a150505050565b5f8060075f8681526020019081526020015f2090503373ffffffffffffffffffffffffffffffffffffffff16816002015f9054906101000a900473ffffffffffffffffffffffffffffffffffffffff1673ffffffffffffffffffffffffffffffffffffffff1614610ffc576040517f08c379a0000000000000000000000000000000000000000000000000000000008152600401610ff39061c986565b60405180910390fd5b5f815f015411801561101d57508060020160149054906101000a900460ff16155b61105c576040517f08c379a00000000000000000000000000000000000000000000000000000000081526004016110539061ca3a565b60405180910390fd5b61106581617de5565b50806001015f611075919061972b565b61107e84617f7e565b505f5b845181101561115a57816001018582815181106110a1576110a061ca58565b5b6020026020010151908060018154018082558091505060019003905f5260205f2090600502015f909190919091505f820151815f0190805190602001906110e992919061974c565b50602082015181600101908051906020019061110692919061974c565b506040820151816002019080519060200190611123929190619797565b50606082015181600301908051906020019061114092919061974c565b506080820151816004015550508080600101915050611081565b5082816003018190555060019150509392505050565b6111786197e2565b5f808373ffffffffffffffffffffffffffffffffffffffff1673ffffffffffffffffffffffffffffffffffffffff1681526020019081526020015f206040518060600160405290815f8201548152602001600182015f9054906101000a900473ffffffffffffffffffffffffffffffffffffffff1673ffffffffffffffffffffffffffffffffffffffff1673ffffffffffffffffffffffffffffffffffffffff16815260200160028201805480602002602001604051908101604052809291908181526020015f905b828210156112a2578382905f5260205f2090600502016040518060a00160405290815f820154815260200160018201548152602001600282015481526020016003820154815260200160048201548152505081526020019060010190611241565b50505050815250509050919050565b60605f6112bd84618355565b905080836040516020016112d292919061cc31565b60405160208183030381529060405291505092915050565b6001602052805f5260405f205f91509050805f015490806001015f9054906101000a900473ffffffffffffffffffffffffffffffffffffffff1690806002015f9054906101000a900473ffffffffffffffffffffffffffffffffffffffff169080600301549080600b01549080600c015f9054906101000a900460ff169080600c0160019054906101000a900460ff169080600d01549080600e01549080600f015490806010015f9054906101000a900460ff1690806011015490508c565b606060038054905067ffffffffffffffff8111156113ca576113c9619d24565b5b60405190808252806020026020018201604052801561140357816020015b6113f0619817565b8152602001906001900390816113e85790505b5090505f5b6003805490508110156118175760015f6003838154811061142c5761142b61ca58565b5b905f5260205f20015481526020019081526020015f20604051806102600160405290815f8201548152602001600182015f9054906101000a900473ffffffffffffffffffffffffffffffffffffffff1673ffffffffffffffffffffffffffffffffffffffff1673ffffffffffffffffffffffffffffffffffffffff168152602001600282015f9054906101000a900473ffffffffffffffffffffffffffffffffffffffff1673ffffffffffffffffffffffffffffffffffffffff1673ffffffffffffffffffffffffffffffffffffffff168152602001600382015481526020016004820180548060200260200160405190810160405280929190818152602001828054801561155857602002820191905f5260205f20905b815481526020019060010190808311611544575b50505050508152602001600582018054806020026020016040519081016040528092919081815260200182805480156115ae57602002820191905f5260205f20905b81548152602001906001019080831161159a575b505050505081526020016006820180548060200260200160405190810160405280929190818152602001828054801561160457602002820191905f5260205f20905b8154815260200190600101908083116115f0575b505050505081526020016007820180548060200260200160405190810160405280929190818152602001828054801561165a57602002820191905f5260205f20905b815481526020019060010190808311611646575b50505050508152602001600882018054806020026020016040519081016040528092919081815260200182805480156116b057602002820191905f5260205f20905b81548152602001906001019080831161169c575b505050505081526020016009820180548060200260200160405190810160405280929190818152602001828054801561170657602002820191905f5260205f20905b8154815260200190600101908083116116f2575b50505050508152602001600a820180548060200260200160405190810160405280929190818152602001828054801561175c57602002820191905f5260205f20905b815481526020019060010190808311611748575b50505050508152602001600b8201548152602001600c82015f9054906101000a900460ff1660ff1660ff168152602001600c820160019054906101000a900460ff1660ff1660ff168152602001600d8201548152602001600e8201548152602001600f8201548152602001601082015f9054906101000a900460ff1660ff1660ff1681526020016011820154815250508282815181106117ff576117fe61ca58565b5b60200260200101819052508080600101915050611408565b5090565b60175f9054906101000a900473ffffffffffffffffffffffffffffffffffffffff168073ffffffffffffffffffffffffffffffffffffffff163373ffffffffffffffffffffffffffffffffffffffff16146118ab576040517f08c379a00000000000000000000000000000000000000000000000000000000081526004016118a29061cd21565b60405180910390fd5b5f60055f8581526020019081526020015f205490505f8111611902576040517f08c379a00000000000000000000000000000000000000000000000000000000081526004016118f99061cd89565b60405180910390fd5b5f60015f8381526020019081526020015f2090506002600481111561192a5761192961bd9c565b5b84600481111561193d5761193c61bd9c565b5b148061196d5750600160048111156119585761195761bd9c565b5b84600481111561196b5761196a61bd9c565b5b145b8061199c5750600360048111156119875761198661bd9c565b5b84600481111561199a5761199961bd9c565b5b145b6119db576040517f08c379a00000000000000000000000000000000000000000000000000000000081526004016119d29061cdf1565b60405180910390fd5b80600c0160019054906101000a900460ff1660ff16846004811115611a0357611a0261bd9c565b5b60ff1603611a46576040517f08c379a0000000000000000000000000000000000000000000000000000000008152600401611a3d9061ce7f565b60405180910390fd5b836004811115611a5957611a5861bd9c565b5b81600c0160016101000a81548160ff021916908360ff16021790555060026004811115611a8957611a8861bd9c565b5b846004811115611a9c57611a9b61bd9c565b5b03611b295760155f9054906101000a900473ffffffffffffffffffffffffffffffffffffffff1673ffffffffffffffffffffffffffffffffffffffff1663e45c1b56866040518263ffffffff1660e01b8152600401611afb919061b15c565b5f604051808303815f87803b158015611b12575f80fd5b505af1158015611b24573d5f803e3d5ffd5b505050505b84827f2d82c7c8e91a792fd9344d9d61dc3ec4be8ac41b1df54ba3a9ab104ee6b101f2866004811115611b5f57611b5e61bd9c565b5b604051611b6c919061ce9d565b60405180910390a35050505050565b5f8082806020019051810190611b91919061ceca565b90505f73ffffffffffffffffffffffffffffffffffffffff1660085f8381526020019081526020015f20600a015f9054906101000a900473ffffffffffffffffffffffffffffffffffffffff1673ffffffffffffffffffffffffffffffffffffffff1614611c03576001915050611c08565b5f9150505b919050565b611c156198d5565b5f60125f9054906101000a900473ffffffffffffffffffffffffffffffffffffffff1673ffffffffffffffffffffffffffffffffffffffff1663b9db15b4866040518263ffffffff1660e01b8152600401611c709190619cf7565b5f60405180830381865afa158015611c8a573d5f803e3d5ffd5b505050506040513d5f823e3d601f19601f82011682018060405250810190611cb2919061d536565b90505f60125f9054906101000a900473ffffffffffffffffffffffffffffffffffffffff1673ffffffffffffffffffffffffffffffffffffffff166241c62987876040518363ffffffff1660e01b8152600401611d1092919061d57d565b60c060405180830381865afa158015611d2b573d5f803e3d5ffd5b505050506040513d601f19601f82011682018060405250810190611d4f919061d68e565b90505f825f01511415611d9860036040518060400160405280601181526020017f50726f64756374206e6f7420666f756e640000000000000000000000000000008152506112b1565b90611dd9576040517f08c379a0000000000000000000000000000000000000000000000000000000008152600401611dd0919061a739565b60405180910390fd5b505f801b815f01511415611e2360066040518060400160405280601181526020017f56617269616e74206e6f7420666f756e640000000000000000000000000000008152506112b1565b90611e64576040517f08c379a0000000000000000000000000000000000000000000000000000000008152600401611e5b919061a739565b60405180910390fd5b50806020015160800151841115611e9460056040518060600160405280602c815260200161e89d602c91396112b1565b90611ed5576040517f08c379a0000000000000000000000000000000000000000000000000000000008152600401611ecc919061a739565b60405180910390fd5b5060115f815480929190611ee89061c4f2565b91905055505f6040518060a0016040528060115481526020018881526020018681526020018781526020014281525090505f805f3373ffffffffffffffffffffffffffffffffffffffff1673ffffffffffffffffffffffffffffffffffffffff1681526020019081526020015f205f015403611f6c57611f67816156ce565b6121a4565b5f805b5f803373ffffffffffffffffffffffffffffffffffffffff1673ffffffffffffffffffffffffffffffffffffffff1681526020019081526020015f20600201805490508110156120a257885f803373ffffffffffffffffffffffffffffffffffffffff1673ffffffffffffffffffffffffffffffffffffffff1681526020019081526020015f20600201828154811061200b5761200a61ca58565b5b905f5260205f209060050201600101541480156120875750875f803373ffffffffffffffffffffffffffffffffffffffff1673ffffffffffffffffffffffffffffffffffffffff1681526020019081526020015f2060020182815481106120755761207461ca58565b5b905f5260205f20906005020160030154145b1561209557600191506120a2565b8080600101915050611f6f565b5080156120c860066040518060600160405280602a815260200161e873602a91396112b1565b90612109576040517f08c379a0000000000000000000000000000000000000000000000000000000008152600401612100919061a739565b60405180910390fd5b505f803373ffffffffffffffffffffffffffffffffffffffff1673ffffffffffffffffffffffffffffffffffffffff1681526020019081526020015f2060020182908060018154018082558091505060019003905f5260205f2090600502015f909190919091505f820151815f0155602082015181600101556040820151816002015560608201518160030155608082015181600401555050505b60145f9054906101000a900473ffffffffffffffffffffffffffffffffffffffff1673ffffffffffffffffffffffffffffffffffffffff16638aa393ac3389885f8060016040518763ffffffff1660e01b81526004016122099695949392919061d6ff565b5f604051808303815f87803b158015612220575f80fd5b505af1158015612232573d5f803e3d5ffd5b5050505060145f9054906101000a900473ffffffffffffffffffffffffffffffffffffffff1673ffffffffffffffffffffffffffffffffffffffff16638aa393ac338988876020015161018001515f806040518763ffffffff1660e01b81526004016122a39695949392919061d6ff565b5f604051808303815f87803b1580156122ba575f80fd5b505af11580156122cc573d5f803e3d5ffd5b5050505060145f9054906101000a900473ffffffffffffffffffffffffffffffffffffffff1673ffffffffffffffffffffffffffffffffffffffff1663f954ed2d846020015161018001516040518263ffffffff1660e01b8152600401612333919061b760565b5f604051808303815f87803b15801561234a575f80fd5b505af115801561235c573d5f803e3d5ffd5b505050508093505050509392505050565b6123756197e2565b5f803373ffffffffffffffffffffffffffffffffffffffff1673ffffffffffffffffffffffffffffffffffffffff1681526020019081526020015f206040518060600160405290815f8201548152602001600182015f9054906101000a900473ffffffffffffffffffffffffffffffffffffffff1673ffffffffffffffffffffffffffffffffffffffff1673ffffffffffffffffffffffffffffffffffffffff16815260200160028201805480602002602001604051908101604052809291908181526020015f905b8282101561249f578382905f5260205f2090600502016040518060a00160405290815f82015481526020016001820154815260200160028201548152602001600382015481526020016004820154815250508152602001906001019061243e565b5050505081525050905090565b60605f60065f3373ffffffffffffffffffffffffffffffffffffffff1673ffffffffffffffffffffffffffffffffffffffff1681526020019081526020015f208054905067ffffffffffffffff81111561250957612508619d24565b5b60405190808252806020026020018201604052801561254257816020015b61252f619902565b8152602001906001900390816125275790505b5090505f60065f3373ffffffffffffffffffffffffffffffffffffffff1673ffffffffffffffffffffffffffffffffffffffff1681526020019081526020015f2090505f5b81805490508110156128355760075f8383815481106125a9576125a861ca58565b5b905f5260205f20015481526020019081526020015f206040518060a00160405290815f820154815260200160018201805480602002602001604051908101604052809291908181526020015f905b82821015612788578382905f5260205f2090600502016040518060a00160405290815f820180548060200260200160405190810160405280929190818152602001828054801561266457602002820191905f5260205f20905b815481526020019060010190808311612650575b50505050508152602001600182018054806020026020016040519081016040528092919081815260200182805480156126ba57602002820191905f5260205f20905b8154815260200190600101908083116126a6575b505050505081526020016002820180548060200260200160405190810160405280929190818152602001828054801561271057602002820191905f5260205f20905b8154815260200190600101908083116126fc575b505050505081526020016003820180548060200260200160405190810160405280929190818152602001828054801561276657602002820191905f5260205f20905b815481526020019060010190808311612752575b50505050508152602001600482015481525050815260200190600101906125f7565b505050508152602001600282015f9054906101000a900473ffffffffffffffffffffffffffffffffffffffff1673ffffffffffffffffffffffffffffffffffffffff1673ffffffffffffffffffffffffffffffffffffffff1681526020016002820160149054906101000a900460ff1615151515815260200160038201548152505083828151811061281d5761281c61ca58565b5b60200260200101819052508080600101915050612587565b50819250505090565b5f60175f9054906101000a900473ffffffffffffffffffffffffffffffffffffffff168073ffffffffffffffffffffffffffffffffffffffff163373ffffffffffffffffffffffffffffffffffffffff16146128cf576040517f08c379a00000000000000000000000000000000000000000000000000000000081526004016128c69061cd21565b60405180910390fd5b8260155f6101000a81548173ffffffffffffffffffffffffffffffffffffffff021916908373ffffffffffffffffffffffffffffffffffffffff1602179055506001915050919050565b60135f9054906101000a900473ffffffffffffffffffffffffffffffffffffffff1681565b612948338261841f565b50565b6006602052815f5260405f208181548110612964575f80fd5b905f5260205f20015f91509150505481565b5f60175f9054906101000a900473ffffffffffffffffffffffffffffffffffffffff168073ffffffffffffffffffffffffffffffffffffffff163373ffffffffffffffffffffffffffffffffffffffff1614612a07576040517f08c379a00000000000000000000000000000000000000000000000000000000081526004016129fe9061cd21565b60405180910390fd5b8260125f6101000a81548173ffffffffffffffffffffffffffffffffffffffff021916908373ffffffffffffffffffffffffffffffffffffffff1602179055506001915050919050565b60605f60025f8473ffffffffffffffffffffffffffffffffffffffff1673ffffffffffffffffffffffffffffffffffffffff1681526020019081526020015f20805480602002602001604051908101604052809291908181526020018280548015612ad957602002820191905f5260205f20905b815481526020019060010190808311612ac5575b50505050509050805167ffffffffffffffff811115612afb57612afa619d24565b5b604051908082528060200260200182016040528015612b3457816020015b612b21619817565b815260200190600190039081612b195790505b5091505f5b8251811015612f425760015f838381518110612b5857612b5761ca58565b5b602002602001015181526020019081526020015f20604051806102600160405290815f8201548152602001600182015f9054906101000a900473ffffffffffffffffffffffffffffffffffffffff1673ffffffffffffffffffffffffffffffffffffffff1673ffffffffffffffffffffffffffffffffffffffff168152602001600282015f9054906101000a900473ffffffffffffffffffffffffffffffffffffffff1673ffffffffffffffffffffffffffffffffffffffff1673ffffffffffffffffffffffffffffffffffffffff1681526020016003820154815260200160048201805480602002602001604051908101604052809291908181526020018280548015612c8357602002820191905f5260205f20905b815481526020019060010190808311612c6f575b5050505050815260200160058201805480602002602001604051908101604052809291908181526020018280548015612cd957602002820191905f5260205f20905b815481526020019060010190808311612cc5575b5050505050815260200160068201805480602002602001604051908101604052809291908181526020018280548015612d2f57602002820191905f5260205f20905b815481526020019060010190808311612d1b575b5050505050815260200160078201805480602002602001604051908101604052809291908181526020018280548015612d8557602002820191905f5260205f20905b815481526020019060010190808311612d71575b5050505050815260200160088201805480602002602001604051908101604052809291908181526020018280548015612ddb57602002820191905f5260205f20905b815481526020019060010190808311612dc7575b5050505050815260200160098201805480602002602001604051908101604052809291908181526020018280548015612e3157602002820191905f5260205f20905b815481526020019060010190808311612e1d575b50505050508152602001600a8201805480602002602001604051908101604052809291908181526020018280548015612e8757602002820191905f5260205f20905b815481526020019060010190808311612e73575b50505050508152602001600b8201548152602001600c82015f9054906101000a900460ff1660ff1660ff168152602001600c820160019054906101000a900460ff1660ff1660ff168152602001600d8201548152602001600e8201548152602001600f8201548152602001601082015f9054906101000a900460ff1660ff1660ff168152602001601182015481525050838281518110612f2a57612f2961ca58565b5b60200260200101819052508080600101915050612b39565b5050919050565b6004602052805f5260405f205f915090505481565b5f80845111612fa2576040517f08c379a0000000000000000000000000000000000000000000000000000000008152600401612f999061d7f4565b60405180910390fd5b6064845110612fe6576040517f08c379a0000000000000000000000000000000000000000000000000000000008152600401612fdd9061d8a8565b60405180910390fd5b600180811115612ff957612ff861bd9c565b5b826060015160018111156130105761300f61bd9c565b5b14613034600c60405180606001604052806035815260200161e814603591396112b1565b90613075576040517f08c379a000000000000000000000000000000000000000000000000000000000815260040161306c919061a739565b60405180910390fd5b505f60135f9054906101000a900473ffffffffffffffffffffffffffffffffffffffff1673ffffffffffffffffffffffffffffffffffffffff1663e00f0dae336040518263ffffffff1660e01b81526004016130d1919061b760565b602060405180830381865afa1580156130ec573d5f803e3d5ffd5b505050506040513d601f19601f82011682018060405250810190613110919061d8c6565b90505f73ffffffffffffffffffffffffffffffffffffffff168173ffffffffffffffffffffffffffffffffffffffff1603613180576040517f08c379a00000000000000000000000000000000000000000000000000000000081526004016131779061d961565b60405180910390fd5b600e5f8154809291906131929061c4f2565b91905055505f6131a28633618ce9565b90505f604051806102600160405280600e5481526020018473ffffffffffffffffffffffffffffffffffffffff1681526020013373ffffffffffffffffffffffffffffffffffffffff1681526020015f81526020018360c001518152602001835f01518152602001836020015181526020018360400151815260200183606001518152602001836080015181526020018360a0015181526020018360e0015181526020018660400151600181111561325d5761325c61bd9c565b5b60ff1681526020016001808111156132785761327761bd9c565b5b8760400151600181111561328f5761328e61bd9c565b5b146132ad57600160048111156132a8576132a761bd9c565b5b6132c1565b6004808111156132c0576132bf61bd9c565b5b5b60ff168152602001866020015181526020015f81526020015f8152602001866060015160018111156132f6576132f561bd9c565b5b60ff1681526020014281525090508060015f600e5481526020019081526020015f205f820151815f01556020820151816001015f6101000a81548173ffffffffffffffffffffffffffffffffffffffff021916908373ffffffffffffffffffffffffffffffffffffffff1602179055506040820151816002015f6101000a81548173ffffffffffffffffffffffffffffffffffffffff021916908373ffffffffffffffffffffffffffffffffffffffff1602179055506060820151816003015560808201518160040190805190602001906133d292919061974c565b5060a08201518160050190805190602001906133ef92919061974c565b5060c082015181600601908051906020019061340c929190619797565b5060e082015181600701908051906020019061342992919061974c565b5061010082015181600801908051906020019061344792919061974c565b5061012082015181600901908051906020019061346592919061974c565b5061014082015181600a01908051906020019061348392919061974c565b5061016082015181600b015561018082015181600c015f6101000a81548160ff021916908360ff1602179055506101a082015181600c0160016101000a81548160ff021916908360ff1602179055506101c082015181600d01556101e082015181600e015561020082015181600f0155610220820151816010015f6101000a81548160ff021916908360ff16021790555061024082015181601101559050505f60018111156135355761353461bd9c565b5b8560400151600181111561354c5761354b61bd9c565b5b0361355f5761355e86600e5433610cd0565b5b5f424333600e54604051602001613579949392919061d97f565b6040516020818303038152906040528051906020012090507f4ec76446eb2af2942c36aa8107dcfb0b8549bd84d1646289d0103ab8f6bf7a4e816040516135c0919061b15c565b60405180910390a18060045f3373ffffffffffffffffffffffffffffffffffffffff1673ffffffffffffffffffffffffffffffffffffffff1681526020019081526020015f20819055505f826080015151111561365d575f5b82608001515181101561365b5761364e33846080015183815181106136415761364061ca58565b5b60200260200101516195cc565b8080600101915050613619565b505b60025f836020015173ffffffffffffffffffffffffffffffffffffffff1673ffffffffffffffffffffffffffffffffffffffff1681526020019081526020015f20600e54908060018154018082558091505060019003905f5260205f20015f90919091909150556003600e54908060018154018082558091505060019003905f5260205f20015f9091909190915055600e5460055f8381526020019081526020015f2081905550809450505050509392505050565b61371a6198d5565b5f821161375d60066040518060400160405280601f81526020017f5175616e74697479206d7573742062652067726561746572207468616e2030008152506112b1565b9061379e576040517f08c379a0000000000000000000000000000000000000000000000000000000008152600401613795919061a739565b60405180910390fd5b505f805f3373ffffffffffffffffffffffffffffffffffffffff1673ffffffffffffffffffffffffffffffffffffffff1681526020019081526020015f2090505f815f0154141561382560076040518060400160405280601381526020017f4361727420646f6573206e6f74206578697374000000000000000000000000008152506112b1565b90613866576040517f08c379a000000000000000000000000000000000000000000000000000000000815260040161385d919061a739565b60405180910390fd5b505f805b8260020180549050811015613a9d57858360020182815481106138905761388f61ca58565b5b905f5260205f2090600502015f015403613a90575f60125f9054906101000a900473ffffffffffffffffffffffffffffffffffffffff1673ffffffffffffffffffffffffffffffffffffffff166241c6298560020184815481106138f7576138f661ca58565b5b905f5260205f2090600502016001015486600201858154811061391d5761391c61ca58565b5b905f5260205f209060050201600301546040518363ffffffff1660e01b815260040161394a92919061d57d565b60c060405180830381865afa158015613965573d5f803e3d5ffd5b505050506040513d601f19601f82011682018060405250810190613989919061d68e565b90508581602001516080015110156139ba60086040518060600160405280602c815260200161e89d602c91396112b1565b906139fb576040517f08c379a00000000000000000000000000000000000000000000000000000000081526004016139f2919061a739565b60405180910390fd5b5085846002018381548110613a1357613a1261ca58565b5b905f5260205f20906005020160020181905550836002018281548110613a3c57613a3b61ca58565b5b905f5260205f2090600502016040518060a00160405290815f820154815260200160018201548152602001600282015481526020016003820154815260200160048201548152505094506001925050613a9d565b808060010191505061386a565b5080613adf60096040518060400160405280601681526020017f4974656d206e6f7420666f756e6420696e2063617274000000000000000000008152506112b1565b90613b20576040517f08c379a0000000000000000000000000000000000000000000000000000000008152600401613b17919061a739565b60405180910390fd5b50505092915050565b613b31619945565b60095f600a5f8581526020019081526020015f205481526020019081526020015f206040518060800160405290815f820154815260200160018201548152602001600282015f9054906101000a900473ffffffffffffffffffffffffffffffffffffffff1673ffffffffffffffffffffffffffffffffffffffff1673ffffffffffffffffffffffffffffffffffffffff16815260200160038201604051806101200160405290815f82018054613be69061c566565b80601f0160208091040260200160405190810160405280929190818152602001828054613c129061c566565b8015613c5d5780601f10613c3457610100808354040283529160200191613c5d565b820191905f5260205f20905b815481529060010190602001808311613c4057829003601f168201915b50505050508152602001600182018054613c769061c566565b80601f0160208091040260200160405190810160405280929190818152602001828054613ca29061c566565b8015613ced5780601f10613cc457610100808354040283529160200191613ced565b820191905f5260205f20905b815481529060010190602001808311613cd057829003601f168201915b50505050508152602001600282018054613d069061c566565b80601f0160208091040260200160405190810160405280929190818152602001828054613d329061c566565b8015613d7d5780601f10613d5457610100808354040283529160200191613d7d565b820191905f5260205f20905b815481529060010190602001808311613d6057829003601f168201915b50505050508152602001600382018054613d969061c566565b80601f0160208091040260200160405190810160405280929190818152602001828054613dc29061c566565b8015613e0d5780601f10613de457610100808354040283529160200191613e0d565b820191905f5260205f20905b815481529060010190602001808311613df057829003601f168201915b50505050508152602001600482018054613e269061c566565b80601f0160208091040260200160405190810160405280929190818152602001828054613e529061c566565b8015613e9d5780601f10613e7457610100808354040283529160200191613e9d565b820191905f5260205f20905b815481529060010190602001808311613e8057829003601f168201915b50505050508152602001600582018054613eb69061c566565b80601f0160208091040260200160405190810160405280929190818152602001828054613ee29061c566565b8015613f2d5780601f10613f0457610100808354040283529160200191613f2d565b820191905f5260205f20905b815481529060010190602001808311613f1057829003601f168201915b50505050508152602001600682018054613f469061c566565b80601f0160208091040260200160405190810160405280929190818152602001828054613f729061c566565b8015613fbd5780601f10613f9457610100808354040283529160200191613fbd565b820191905f5260205f20905b815481529060010190602001808311613fa057829003601f168201915b50505050508152602001600782018054613fd69061c566565b80601f01602080910402602001604051908101604052809291908181526020018280546140029061c566565b801561404d5780601f106140245761010080835404028352916020019161404d565b820191905f5260205f20905b81548152906001019060200180831161403057829003601f168201915b505050505081526020016008820180546140669061c566565b80601f01602080910402602001604051908101604052809291908181526020018280546140929061c566565b80156140dd5780601f106140b4576101008083540402835291602001916140dd565b820191905f5260205f20905b8154815290600101906020018083116140c057829003601f168201915b505050505081525050815250509050919050565b5f805f90505b825181101561413157614124338483815181106141175761411661ca58565b5b602002602001015161841f565b80806001019150506140f7565b5060019050919050565b5f60175f9054906101000a900473ffffffffffffffffffffffffffffffffffffffff168073ffffffffffffffffffffffffffffffffffffffff163373ffffffffffffffffffffffffffffffffffffffff16146141cc576040517f08c379a00000000000000000000000000000000000000000000000000000000081526004016141c39061cd21565b60405180910390fd5b8260145f6101000a81548173ffffffffffffffffffffffffffffffffffffffff021916908373ffffffffffffffffffffffffffffffffffffffff1602179055506001915050919050565b60175f9054906101000a900473ffffffffffffffffffffffffffffffffffffffff1681565b60605f825167ffffffffffffffff81111561425957614258619d24565b5b60405190808252806020026020018201604052801561429257816020015b61427f6198d5565b8152602001906001900390816142775790505b5090505f5b835181101561432f576143048482815181106142b6576142b561ca58565b5b60200260200101515f01518583815181106142d4576142d361ca58565b5b6020026020010151602001518684815181106142f3576142f261ca58565b5b602002602001015160400151611c0d565b8282815181106143175761431661ca58565b5b60200260200101819052508080600101915050614297565b5080915050919050565b5f602052805f5260405f205f91509050805f015490806001015f9054906101000a900473ffffffffffffffffffffffffffffffffffffffff16905082565b5f60175f9054906101000a900473ffffffffffffffffffffffffffffffffffffffff168073ffffffffffffffffffffffffffffffffffffffff163373ffffffffffffffffffffffffffffffffffffffff1614614408576040517f08c379a00000000000000000000000000000000000000000000000000000000081526004016143ff9061cd21565b60405180910390fd5b8260185f6101000a81548173ffffffffffffffffffffffffffffffffffffffff021916908373ffffffffffffffffffffffffffffffffffffffff1602179055506001915050919050565b60125f9054906101000a900473ffffffffffffffffffffffffffffffffffffffff1681565b5f805b82518110156144b4576144a68382815181106144995761449861ca58565b5b6020026020010151614c42565b50808060010191505061447a565b5060019050919050565b5f60175f9054906101000a900473ffffffffffffffffffffffffffffffffffffffff168073ffffffffffffffffffffffffffffffffffffffff163373ffffffffffffffffffffffffffffffffffffffff161461454f576040517f08c379a00000000000000000000000000000000000000000000000000000000081526004016145469061cd21565b60405180910390fd5b8260195f6101000a81548173ffffffffffffffffffffffffffffffffffffffff021916908373ffffffffffffffffffffffffffffffffffffffff1602179055506001915050919050565b5f808351116145de602d6040518060400160405280602081526020017f5368617265206c696e6b20706172616d73206d757374206e6f7420656d7074798152506112b1565b9061461f576040517f08c379a0000000000000000000000000000000000000000000000000000000008152600401614616919061a739565b60405180910390fd5b5061462983617f7e565b50600c5f81548092919061463c9061c4f2565b91905055505f5b835181101561472e5760075f600c5481526020019081526020015f206001018482815181106146755761467461ca58565b5b6020026020010151908060018154018082558091505060019003905f5260205f2090600502015f909190919091505f820151815f0190805190602001906146bd92919061974c565b5060208201518160010190805190602001906146da92919061974c565b5060408201518160020190805190602001906146f7929190619797565b50606082015181600301908051906020019061471492919061974c565b506080820151816004015550508080600101915050614643565b50600c5460075f600c5481526020019081526020015f205f01819055508160075f600c5481526020019081526020015f20600301819055503360075f600c5481526020019081526020015f206002015f6101000a81548173ffffffffffffffffffffffffffffffffffffffff021916908373ffffffffffffffffffffffffffffffffffffffff16021790555060065f3373ffffffffffffffffffffffffffffffffffffffff1673ffffffffffffffffffffffffffffffffffffffff1681526020019081526020015f20600c54908060018154018082558091505060019003905f5260205f20015f9091909190915055600c54905092915050565b614830619817565b5f60055f8481526020019081526020015f2054905060015f8281526020019081526020015f20604051806102600160405290815f8201548152602001600182015f9054906101000a900473ffffffffffffffffffffffffffffffffffffffff1673ffffffffffffffffffffffffffffffffffffffff1673ffffffffffffffffffffffffffffffffffffffff168152602001600282015f9054906101000a900473ffffffffffffffffffffffffffffffffffffffff1673ffffffffffffffffffffffffffffffffffffffff1673ffffffffffffffffffffffffffffffffffffffff168152602001600382015481526020016004820180548060200260200160405190810160405280929190818152602001828054801561496c57602002820191905f5260205f20905b815481526020019060010190808311614958575b50505050508152602001600582018054806020026020016040519081016040528092919081815260200182805480156149c257602002820191905f5260205f20905b8154815260200190600101908083116149ae575b5050505050815260200160068201805480602002602001604051908101604052809291908181526020018280548015614a1857602002820191905f5260205f20905b815481526020019060010190808311614a04575b5050505050815260200160078201805480602002602001604051908101604052809291908181526020018280548015614a6e57602002820191905f5260205f20905b815481526020019060010190808311614a5a575b5050505050815260200160088201805480602002602001604051908101604052809291908181526020018280548015614ac457602002820191905f5260205f20905b815481526020019060010190808311614ab0575b5050505050815260200160098201805480602002602001604051908101604052809291908181526020018280548015614b1a57602002820191905f5260205f20905b815481526020019060010190808311614b06575b50505050508152602001600a8201805480602002602001604051908101604052809291908181526020018280548015614b7057602002820191905f5260205f20905b815481526020019060010190808311614b5c575b50505050508152602001600b8201548152602001600c82015f9054906101000a900460ff1660ff1660ff168152602001600c820160019054906101000a900460ff1660ff1660ff168152602001600d8201548152602001600e8201548152602001600f8201548152602001601082015f9054906101000a900460ff1660ff1660ff168152602001601182015481525050915050919050565b60145f9054906101000a900473ffffffffffffffffffffffffffffffffffffffff1681565b600a602052805f5260405f205f915090505481565b5f8060075f8481526020019081526020015f2090503373ffffffffffffffffffffffffffffffffffffffff16816002015f9054906101000a900473ffffffffffffffffffffffffffffffffffffffff1673ffffffffffffffffffffffffffffffffffffffff1614614ce8576040517f08c379a0000000000000000000000000000000000000000000000000000000008152600401614cdf9061c986565b60405180910390fd5b5f815f015411614d2d576040517f08c379a0000000000000000000000000000000000000000000000000000000008152600401614d249061da58565b60405180910390fd5b8060020160149054906101000a900460ff16614d4e57614d4c81617de5565b505b5f5b60065f3373ffffffffffffffffffffffffffffffffffffffff1673ffffffffffffffffffffffffffffffffffffffff1681526020019081526020015f2080549050811015614f67578360065f3373ffffffffffffffffffffffffffffffffffffffff1673ffffffffffffffffffffffffffffffffffffffff1681526020019081526020015f208281548110614de857614de761ca58565b5b905f5260205f20015403614f5a5760065f3373ffffffffffffffffffffffffffffffffffffffff1673ffffffffffffffffffffffffffffffffffffffff1681526020019081526020015f20600160065f3373ffffffffffffffffffffffffffffffffffffffff1673ffffffffffffffffffffffffffffffffffffffff1681526020019081526020015f2080549050614e80919061da76565b81548110614e9157614e9061ca58565b5b905f5260205f20015460065f3373ffffffffffffffffffffffffffffffffffffffff1673ffffffffffffffffffffffffffffffffffffffff1681526020019081526020015f208281548110614ee957614ee861ca58565b5b905f5260205f20018190555060065f3373ffffffffffffffffffffffffffffffffffffffff1673ffffffffffffffffffffffffffffffffffffffff1681526020019081526020015f20805480614f4257614f4161daa9565b5b600190038181905f5260205f20015f90559055614f67565b8080600101915050614d50565b5060075f8481526020019081526020015f205f8082015f9055600182015f614f8f919061972b565b600282015f6101000a81549073ffffffffffffffffffffffffffffffffffffffff02191690556002820160146101000a81549060ff0219169055600382015f905550506001915050919050565b60165f9054906101000a900473ffffffffffffffffffffffffffffffffffffffff1681565b5f60175f9054906101000a900473ffffffffffffffffffffffffffffffffffffffff168073ffffffffffffffffffffffffffffffffffffffff163373ffffffffffffffffffffffffffffffffffffffff1614615092576040517f08c379a00000000000000000000000000000000000000000000000000000000081526004016150899061cd21565b60405180910390fd5b8260135f6101000a81548173ffffffffffffffffffffffffffffffffffffffff021916908373ffffffffffffffffffffffffffffffffffffffff1602179055506001915050919050565b6008602052805f5260405f205f9150905080600101604051806101200160405290815f8201805461510c9061c566565b80601f01602080910402602001604051908101604052809291908181526020018280546151389061c566565b80156151835780601f1061515a57610100808354040283529160200191615183565b820191905f5260205f20905b81548152906001019060200180831161516657829003601f168201915b5050505050815260200160018201805461519c9061c566565b80601f01602080910402602001604051908101604052809291908181526020018280546151c89061c566565b80156152135780601f106151ea57610100808354040283529160200191615213565b820191905f5260205f20905b8154815290600101906020018083116151f657829003601f168201915b5050505050815260200160028201805461522c9061c566565b80601f01602080910402602001604051908101604052809291908181526020018280546152589061c566565b80156152a35780601f1061527a576101008083540402835291602001916152a3565b820191905f5260205f20905b81548152906001019060200180831161528657829003601f168201915b505050505081526020016003820180546152bc9061c566565b80601f01602080910402602001604051908101604052809291908181526020018280546152e89061c566565b80156153335780601f1061530a57610100808354040283529160200191615333565b820191905f5260205f20905b81548152906001019060200180831161531657829003601f168201915b5050505050815260200160048201805461534c9061c566565b80601f01602080910402602001604051908101604052809291908181526020018280546153789061c566565b80156153c35780601f1061539a576101008083540402835291602001916153c3565b820191905f5260205f20905b8154815290600101906020018083116153a657829003601f168201915b505050505081526020016005820180546153dc9061c566565b80601f01602080910402602001604051908101604052809291908181526020018280546154089061c566565b80156154535780601f1061542a57610100808354040283529160200191615453565b820191905f5260205f20905b81548152906001019060200180831161543657829003601f168201915b5050505050815260200160068201805461546c9061c566565b80601f01602080910402602001604051908101604052809291908181526020018280546154989061c566565b80156154e35780601f106154ba576101008083540402835291602001916154e3565b820191905f5260205f20905b8154815290600101906020018083116154c657829003601f168201915b505050505081526020016007820180546154fc9061c566565b80601f01602080910402602001604051908101604052809291908181526020018280546155289061c566565b80156155735780601f1061554a57610100808354040283529160200191615573565b820191905f5260205f20905b81548152906001019060200180831161555657829003601f168201915b5050505050815260200160088201805461558c9061c566565b80601f01602080910402602001604051908101604052809291908181526020018280546155b89061c566565b80156156035780601f106155da57610100808354040283529160200191615603565b820191905f5260205f20905b8154815290600101906020018083116155e657829003601f168201915b5050505050815250509080600a015f9054906101000a900473ffffffffffffffffffffffffffffffffffffffff169080600b016040518060800160405290815f820154815260200160018201548152602001600282015f9054906101000a900460ff1660018111156156785761567761bd9c565b5b600181111561568a5761568961bd9c565b5b81526020016002820160019054906101000a900460ff1660018111156156b3576156b261bd9c565b5b60018111156156c5576156c461bd9c565b5b81525050905083565b60105f8154809291906156e09061c4f2565b91905055505f805f3373ffffffffffffffffffffffffffffffffffffffff1673ffffffffffffffffffffffffffffffffffffffff1681526020019081526020015f209050601054815f018190555033816001015f6101000a81548173ffffffffffffffffffffffffffffffffffffffff021916908373ffffffffffffffffffffffffffffffffffffffff1602179055508060020182908060018154018082558091505060019003905f5260205f2090600502015f909190919091505f820151815f01556020820151816001015560408201518160020155606082015181600301556080820151816004015550505050565b6157d9619817565b60015f8381526020019081526020015f20604051806102600160405290815f8201548152602001600182015f9054906101000a900473ffffffffffffffffffffffffffffffffffffffff1673ffffffffffffffffffffffffffffffffffffffff1673ffffffffffffffffffffffffffffffffffffffff168152602001600282015f9054906101000a900473ffffffffffffffffffffffffffffffffffffffff1673ffffffffffffffffffffffffffffffffffffffff1673ffffffffffffffffffffffffffffffffffffffff168152602001600382015481526020016004820180548060200260200160405190810160405280929190818152602001828054801561590057602002820191905f5260205f20905b8154815260200190600101908083116158ec575b505050505081526020016005820180548060200260200160405190810160405280929190818152602001828054801561595657602002820191905f5260205f20905b815481526020019060010190808311615942575b50505050508152602001600682018054806020026020016040519081016040528092919081815260200182805480156159ac57602002820191905f5260205f20905b815481526020019060010190808311615998575b5050505050815260200160078201805480602002602001604051908101604052809291908181526020018280548015615a0257602002820191905f5260205f20905b8154815260200190600101908083116159ee575b5050505050815260200160088201805480602002602001604051908101604052809291908181526020018280548015615a5857602002820191905f5260205f20905b815481526020019060010190808311615a44575b5050505050815260200160098201805480602002602001604051908101604052809291908181526020018280548015615aae57602002820191905f5260205f20905b815481526020019060010190808311615a9a575b50505050508152602001600a8201805480602002602001604051908101604052809291908181526020018280548015615b0457602002820191905f5260205f20905b815481526020019060010190808311615af0575b50505050508152602001600b8201548152602001600c82015f9054906101000a900460ff1660ff1660ff168152602001600c820160019054906101000a900460ff1660ff1660ff168152602001600d8201548152602001600e8201548152602001600f8201548152602001601082015f9054906101000a900460ff1660ff1660ff1681526020016011820154815250509050919050565b615ba3619902565b60075f8381526020019081526020015f206040518060a00160405290815f820154815260200160018201805480602002602001604051908101604052809291908181526020015f905b82821015615d7d578382905f5260205f2090600502016040518060a00160405290815f8201805480602002602001604051908101604052809291908181526020018280548015615c5957602002820191905f5260205f20905b815481526020019060010190808311615c45575b5050505050815260200160018201805480602002602001604051908101604052809291908181526020018280548015615caf57602002820191905f5260205f20905b815481526020019060010190808311615c9b575b5050505050815260200160028201805480602002602001604051908101604052809291908181526020018280548015615d0557602002820191905f5260205f20905b815481526020019060010190808311615cf1575b5050505050815260200160038201805480602002602001604051908101604052809291908181526020018280548015615d5b57602002820191905f5260205f20905b815481526020019060010190808311615d47575b5050505050815260200160048201548152505081526020019060010190615bec565b505050508152602001600282015f9054906101000a900473ffffffffffffffffffffffffffffffffffffffff1673ffffffffffffffffffffffffffffffffffffffff1673ffffffffffffffffffffffffffffffffffffffff1681526020016002820160149054906101000a900460ff161515151581526020016003820154815250509050919050565b6009602052805f5260405f205f91509050805f015490806001015490806002015f9054906101000a900473ffffffffffffffffffffffffffffffffffffffff169080600301604051806101200160405290815f82018054615e669061c566565b80601f0160208091040260200160405190810160405280929190818152602001828054615e929061c566565b8015615edd5780601f10615eb457610100808354040283529160200191615edd565b820191905f5260205f20905b815481529060010190602001808311615ec057829003601f168201915b50505050508152602001600182018054615ef69061c566565b80601f0160208091040260200160405190810160405280929190818152602001828054615f229061c566565b8015615f6d5780601f10615f4457610100808354040283529160200191615f6d565b820191905f5260205f20905b815481529060010190602001808311615f5057829003601f168201915b50505050508152602001600282018054615f869061c566565b80601f0160208091040260200160405190810160405280929190818152602001828054615fb29061c566565b8015615ffd5780601f10615fd457610100808354040283529160200191615ffd565b820191905f5260205f20905b815481529060010190602001808311615fe057829003601f168201915b505050505081526020016003820180546160169061c566565b80601f01602080910402602001604051908101604052809291908181526020018280546160429061c566565b801561608d5780601f106160645761010080835404028352916020019161608d565b820191905f5260205f20905b81548152906001019060200180831161607057829003601f168201915b505050505081526020016004820180546160a69061c566565b80601f01602080910402602001604051908101604052809291908181526020018280546160d29061c566565b801561611d5780601f106160f45761010080835404028352916020019161611d565b820191905f5260205f20905b81548152906001019060200180831161610057829003601f168201915b505050505081526020016005820180546161369061c566565b80601f01602080910402602001604051908101604052809291908181526020018280546161629061c566565b80156161ad5780601f10616184576101008083540402835291602001916161ad565b820191905f5260205f20905b81548152906001019060200180831161619057829003601f168201915b505050505081526020016006820180546161c69061c566565b80601f01602080910402602001604051908101604052809291908181526020018280546161f29061c566565b801561623d5780601f106162145761010080835404028352916020019161623d565b820191905f5260205f20905b81548152906001019060200180831161622057829003601f168201915b505050505081526020016007820180546162569061c566565b80601f01602080910402602001604051908101604052809291908181526020018280546162829061c566565b80156162cd5780601f106162a4576101008083540402835291602001916162cd565b820191905f5260205f20905b8154815290600101906020018083116162b057829003601f168201915b505050505081526020016008820180546162e69061c566565b80601f01602080910402602001604051908101604052809291908181526020018280546163129061c566565b801561635d5780601f106163345761010080835404028352916020019161635d565b820191905f5260205f20905b81548152906001019060200180831161634057829003601f168201915b505050505081525050905084565b5f60175f9054906101000a900473ffffffffffffffffffffffffffffffffffffffff168073ffffffffffffffffffffffffffffffffffffffff163373ffffffffffffffffffffffffffffffffffffffff16146163fc576040517f08c379a00000000000000000000000000000000000000000000000000000000081526004016163f39061cd21565b60405180910390fd5b8260165f6101000a81548173ffffffffffffffffffffffffffffffffffffffff021916908373ffffffffffffffffffffffffffffffffffffffff1602179055506001915050919050565b61644e619986565b60085f8381526020019081526020015f206040518060800160405290815f8201805480602002602001604051908101604052809291908181526020015f905b828210156165b8578382905f5260205f2090600502016040518060a00160405290815f820154815260200160018201548152602001600282015481526020016003820154815260200160048201805480602002602001604051908101604052809291908181526020015f905b828210156165a1578382905f5260205f200180546165169061c566565b80601f01602080910402602001604051908101604052809291908181526020018280546165429061c566565b801561658d5780601f106165645761010080835404028352916020019161658d565b820191905f5260205f20905b81548152906001019060200180831161657057829003601f168201915b5050505050815260200190600101906164f9565b50505050815250508152602001906001019061648d565b50505050815260200160018201604051806101200160405290815f820180546165e09061c566565b80601f016020809104026020016040519081016040528092919081815260200182805461660c9061c566565b80156166575780601f1061662e57610100808354040283529160200191616657565b820191905f5260205f20905b81548152906001019060200180831161663a57829003601f168201915b505050505081526020016001820180546166709061c566565b80601f016020809104026020016040519081016040528092919081815260200182805461669c9061c566565b80156166e75780601f106166be576101008083540402835291602001916166e7565b820191905f5260205f20905b8154815290600101906020018083116166ca57829003601f168201915b505050505081526020016002820180546167009061c566565b80601f016020809104026020016040519081016040528092919081815260200182805461672c9061c566565b80156167775780601f1061674e57610100808354040283529160200191616777565b820191905f5260205f20905b81548152906001019060200180831161675a57829003601f168201915b505050505081526020016003820180546167909061c566565b80601f01602080910402602001604051908101604052809291908181526020018280546167bc9061c566565b80156168075780601f106167de57610100808354040283529160200191616807565b820191905f5260205f20905b8154815290600101906020018083116167ea57829003601f168201915b505050505081526020016004820180546168209061c566565b80601f016020809104026020016040519081016040528092919081815260200182805461684c9061c566565b80156168975780601f1061686e57610100808354040283529160200191616897565b820191905f5260205f20905b81548152906001019060200180831161687a57829003601f168201915b505050505081526020016005820180546168b09061c566565b80601f01602080910402602001604051908101604052809291908181526020018280546168dc9061c566565b80156169275780601f106168fe57610100808354040283529160200191616927565b820191905f5260205f20905b81548152906001019060200180831161690a57829003601f168201915b505050505081526020016006820180546169409061c566565b80601f016020809104026020016040519081016040528092919081815260200182805461696c9061c566565b80156169b75780601f1061698e576101008083540402835291602001916169b7565b820191905f5260205f20905b81548152906001019060200180831161699a57829003601f168201915b505050505081526020016007820180546169d09061c566565b80601f01602080910402602001604051908101604052809291908181526020018280546169fc9061c566565b8015616a475780601f10616a1e57610100808354040283529160200191616a47565b820191905f5260205f20905b815481529060010190602001808311616a2a57829003601f168201915b50505050508152602001600882018054616a609061c566565b80601f0160208091040260200160405190810160405280929190818152602001828054616a8c9061c566565b8015616ad75780601f10616aae57610100808354040283529160200191616ad7565b820191905f5260205f20905b815481529060010190602001808311616aba57829003601f168201915b5050505050815250508152602001600a82015f9054906101000a900473ffffffffffffffffffffffffffffffffffffffff1673ffffffffffffffffffffffffffffffffffffffff1673ffffffffffffffffffffffffffffffffffffffff168152602001600b82016040518060800160405290815f820154815260200160018201548152602001600282015f9054906101000a900460ff166001811115616b8057616b7f61bd9c565b5b6001811115616b9257616b9161bd9c565b5b81526020016002820160019054906101000a900460ff166001811115616bbb57616bba61bd9c565b5b6001811115616bcd57616bcc61bd9c565b5b81525050815250509050919050565b60605f60065f8473ffffffffffffffffffffffffffffffffffffffff1673ffffffffffffffffffffffffffffffffffffffff1681526020019081526020015f208054905067ffffffffffffffff811115616c3957616c38619d24565b5b604051908082528060200260200182016040528015616c7257816020015b616c5f619902565b815260200190600190039081616c575790505b5090505f60065f8573ffffffffffffffffffffffffffffffffffffffff1673ffffffffffffffffffffffffffffffffffffffff1681526020019081526020015f2090505f5b8180549050811015616f655760075f838381548110616cd957616cd861ca58565b5b905f5260205f20015481526020019081526020015f206040518060a00160405290815f820154815260200160018201805480602002602001604051908101604052809291908181526020015f905b82821015616eb8578382905f5260205f2090600502016040518060a00160405290815f8201805480602002602001604051908101604052809291908181526020018280548015616d9457602002820191905f5260205f20905b815481526020019060010190808311616d80575b5050505050815260200160018201805480602002602001604051908101604052809291908181526020018280548015616dea57602002820191905f5260205f20905b815481526020019060010190808311616dd6575b5050505050815260200160028201805480602002602001604051908101604052809291908181526020018280548015616e4057602002820191905f5260205f20905b815481526020019060010190808311616e2c575b5050505050815260200160038201805480602002602001604051908101604052809291908181526020018280548015616e9657602002820191905f5260205f20905b815481526020019060010190808311616e82575b5050505050815260200160048201548152505081526020019060010190616d27565b505050508152602001600282015f9054906101000a900473ffffffffffffffffffffffffffffffffffffffff1673ffffffffffffffffffffffffffffffffffffffff1673ffffffffffffffffffffffffffffffffffffffff1681526020016002820160149054906101000a900460ff16151515158152602001600382015481525050838281518110616f4d57616f4c61ca58565b5b60200260200101819052508080600101915050616cb7565b508192505050919050565b60155f9054906101000a900473ffffffffffffffffffffffffffffffffffffffff1681565b6002602052815f5260405f208181548110616fae575f80fd5b905f5260205f20015f91509150505481565b60185f9054906101000a900473ffffffffffffffffffffffffffffffffffffffff1681565b60155f9054906101000a900473ffffffffffffffffffffffffffffffffffffffff168073ffffffffffffffffffffffffffffffffffffffff163373ffffffffffffffffffffffffffffffffffffffff1614617075576040517f08c379a000000000000000000000000000000000000000000000000000000000815260040161706c9061cd21565b60405180910390fd5b5f60055f8481526020019081526020015f205490505f81116170cc576040517f08c379a00000000000000000000000000000000000000000000000000000000081526004016170c39061db20565b60405180910390fd5b5f60015f8381526020019081526020015f20604051806102600160405290815f8201548152602001600182015f9054906101000a900473ffffffffffffffffffffffffffffffffffffffff1673ffffffffffffffffffffffffffffffffffffffff1673ffffffffffffffffffffffffffffffffffffffff168152602001600282015f9054906101000a900473ffffffffffffffffffffffffffffffffffffffff1673ffffffffffffffffffffffffffffffffffffffff1673ffffffffffffffffffffffffffffffffffffffff16815260200160038201548152602001600482018054806020026020016040519081016040528092919081815260200182805480156171f457602002820191905f5260205f20905b8154815260200190600101908083116171e0575b505050505081526020016005820180548060200260200160405190810160405280929190818152602001828054801561724a57602002820191905f5260205f20905b815481526020019060010190808311617236575b50505050508152602001600682018054806020026020016040519081016040528092919081815260200182805480156172a057602002820191905f5260205f20905b81548152602001906001019080831161728c575b50505050508152602001600782018054806020026020016040519081016040528092919081815260200182805480156172f657602002820191905f5260205f20905b8154815260200190600101908083116172e2575b505050505081526020016008820180548060200260200160405190810160405280929190818152602001828054801561734c57602002820191905f5260205f20905b815481526020019060010190808311617338575b50505050508152602001600982018054806020026020016040519081016040528092919081815260200182805480156173a257602002820191905f5260205f20905b81548152602001906001019080831161738e575b50505050508152602001600a82018054806020026020016040519081016040528092919081815260200182805480156173f857602002820191905f5260205f20905b8154815260200190600101908083116173e4575b50505050508152602001600b8201548152602001600c82015f9054906101000a900460ff1660ff1660ff168152602001600c820160019054906101000a900460ff1660ff1660ff168152602001600d8201548152602001600e8201548152602001600f8201548152602001601082015f9054906101000a900460ff1660ff1660ff16815260200160118201548152505090505f816080015151116174d1576040517f08c379a00000000000000000000000000000000000000000000000000000000081526004016174c89061db88565b60405180910390fd5b5f5b8160a00151518160ff161015617a56575f60125f9054906101000a900473ffffffffffffffffffffffffffffffffffffffff1673ffffffffffffffffffffffffffffffffffffffff166241c6298460a001518460ff168151811061753a5761753961ca58565b5b60200260200101518560c001518560ff168151811061755c5761755b61ca58565b5b60200260200101516040518363ffffffff1660e01b815260040161758192919061d57d565b60c060405180830381865afa15801561759c573d5f803e3d5ffd5b505050506040513d601f19601f820116820180604052508101906175c0919061d68e565b90508260e001518260ff16815181106175dc576175db61ca58565b5b60200260200101518160200151608001516175f7919061da76565b816020015160800181815250505f816020015160800151101561764f576040517f08c379a00000000000000000000000000000000000000000000000000000000081526004016176469061dc3c565b60405180910390fd5b60125f9054906101000a900473ffffffffffffffffffffffffffffffffffffffff1673ffffffffffffffffffffffffffffffffffffffff16631d0689768460a001518460ff16815181106176a6576176a561ca58565b5b60200260200101518560c001518560ff16815181106176c8576176c761ca58565b5b60200260200101518460200151608001518760e001518760ff16815181106176f3576176f261ca58565b5b60200260200101516040518563ffffffff1660e01b815260040161771a949392919061dc5a565b5f604051808303815f87803b158015617731575f80fd5b505af1158015617743573d5f803e3d5ffd5b5050505060145f9054906101000a900473ffffffffffffffffffffffffffffffffffffffff1673ffffffffffffffffffffffffffffffffffffffff16638286980c8460a001518460ff168151811061779e5761779d61ca58565b5b60200260200101516040518263ffffffff1660e01b81526004016177c29190619cf7565b5f604051808303815f87803b1580156177d9575f80fd5b505af11580156177eb573d5f803e3d5ffd5b5050505060145f9054906101000a900473ffffffffffffffffffffffffffffffffffffffff1673ffffffffffffffffffffffffffffffffffffffff16635b95662784602001518560a001518560ff168151811061784b5761784a61ca58565b5b60200260200101516040518363ffffffff1660e01b815260040161787092919061dc9d565b5f604051808303815f87803b158015617887575f80fd5b505af1158015617899573d5f803e3d5ffd5b505050506001808111156178b0576178af61bd9c565b5b60ff1683610180015160ff161461799a575f6178cb85613b29565b90505f60405180604001604052808660a001518660ff16815181106178f3576178f261ca58565b5b6020026020010151815260200142815250905060145f9054906101000a900473ffffffffffffffffffffffffffffffffffffffff1673ffffffffffffffffffffffffffffffffffffffff16633d3a9748836060015160600151836040518363ffffffff1660e01b815260040161796a92919061dcf1565b5f604051808303815f87803b158015617981575f80fd5b505af1158015617993573d5f803e3d5ffd5b5050505050505b60145f9054906101000a900473ffffffffffffffffffffffffffffffffffffffff1673ffffffffffffffffffffffffffffffffffffffff1663b34210e18460a001518460ff16815181106179f1576179f061ca58565b5b60200260200101516040518263ffffffff1660e01b8152600401617a159190619cf7565b5f604051808303815f87803b158015617a2c575f80fd5b505af1158015617a3e573d5f803e3d5ffd5b50505050508080617a4e9061dd1f565b9150506174d3565b505f604051806060016040528083610220015160ff1681526020018361016001518152602001836040015173ffffffffffffffffffffffffffffffffffffffff16815250905060135f9054906101000a900473ffffffffffffffffffffffffffffffffffffffff1673ffffffffffffffffffffffffffffffffffffffff1663025f36e58360200151836040518363ffffffff1660e01b8152600401617afc92919061dd87565b5f604051808303815f87803b158015617b13575f80fd5b505af1158015617b25573d5f803e3d5ffd5b5050505060135f9054906101000a900473ffffffffffffffffffffffffffffffffffffffff1673ffffffffffffffffffffffffffffffffffffffff1663e205d94e835f015160015f8781526020019081526020015f206001015f9054906101000a900473ffffffffffffffffffffffffffffffffffffffff1660125f9054906101000a900473ffffffffffffffffffffffffffffffffffffffff1673ffffffffffffffffffffffffffffffffffffffff166366573f618760a001516040518263ffffffff1660e01b8152600401617bfc919061de1a565b5f60405180830381865afa158015617c16573d5f803e3d5ffd5b505050506040513d5f823e3d601f19601f82011682018060405250810190617c3e919061defa565b6040518463ffffffff1660e01b8152600401617c5c9392919061dfe9565b5f604051808303815f87803b158015617c73575f80fd5b505af1158015617c85573d5f803e3d5ffd5b505050507f88227f5acc5172d082ff1158c7e6b54727dddce3806e3ce09aacfbda6a8e4d3983604051617cb89190619cf7565b60405180910390a15050505050565b5f60055f8381526020019081526020015f20549050919050565b60195f9054906101000a900473ffffffffffffffffffffffffffffffffffffffff1681565b60605f825167ffffffffffffffff811115617d2457617d23619d24565b5b604051908082528060200260200182016040528015617d5d57816020015b617d4a6198d5565b815260200190600190039081617d425790505b5090505f5b8351811015617ddb57617db0848281518110617d8157617d8061ca58565b5b60200260200101515f0151858381518110617d9f57617d9e61ca58565b5b602002602001015160200151613712565b828281518110617dc357617dc261ca58565b5b60200260200101819052508080600101915050617d62565b5080915050919050565b5f805f90505b8260010180549050811015617f74575f836001018281548110617e1157617e1061ca58565b5b905f5260205f20906005020190505f60015f836004015481526020019081526020015f2090505f5b8260010180549050811015617f64575f836001018281548110617e5f57617e5e61ca58565b5b905f5260205f20015490505f845f018381548110617e8057617e7f61ca58565b5b905f5260205f20015490505f856002018481548110617ea257617ea161ca58565b5b905f5260205f20015490505f5b8560050180549050811015617f535783866005018281548110617ed557617ed461ca58565b5b905f5260205f200154148015617f08575081866006018281548110617efd57617efc61ca58565b5b905f5260205f200154145b15617f465782866007018281548110617f2457617f2361ca58565b5b905f5260205f20015f828254617f3a919061e025565b92505081905550617f53565b8080600101915050617eaf565b505050508080600101915050617e39565b5050508080600101915050617deb565b5060019050919050565b5f805f90505b825181101561834b575f60015f858481518110617fa457617fa361ca58565b5b60200260200101516080015181526020019081526020015f2090505f815f015403618004576040517f08c379a0000000000000000000000000000000000000000000000000000000008152600401617ffb9061e0ee565b60405180910390fd5b806001015f9054906101000a900473ffffffffffffffffffffffffffffffffffffffff1673ffffffffffffffffffffffffffffffffffffffff163373ffffffffffffffffffffffffffffffffffffffff1614618095576040517f08c379a000000000000000000000000000000000000000000000000000000000815260040161808c9061e1a2565b60405180910390fd5b6001808111156180a8576180a761bd9c565b5b60ff1681600c015f9054906101000a900460ff1660ff16146180ff576040517f08c379a00000000000000000000000000000000000000000000000000000000081526004016180f69061e256565b60405180910390fd5b5f5b8483815181106181145761811361ca58565b5b6020026020010151602001515181101561833c575f85848151811061813c5761813b61ca58565b5b602002602001015160200151828151811061815a5761815961ca58565b5b602002602001015190505f8685815181106181785761817761ca58565b5b60200260200101515f015183815181106181955761819461ca58565b5b602002602001015190505f8786815181106181b3576181b261ca58565b5b60200260200101516040015184815181106181d1576181d061ca58565b5b602002602001015190505f805f90505b86600501805490508110156182ea57848760050182815481106182075761820661ca58565b5b905f5260205f20015414801561823a57508287600601828154811061822f5761822e61ca58565b5b905f5260205f200154145b156182dd57838760070182815481106182565761825561ca58565b5b905f5260205f20015410156182a0576040517f08c379a00000000000000000000000000000000000000000000000000000000081526004016182979061e2e4565b60405180910390fd5b838760070182815481106182b7576182b661ca58565b5b905f5260205f20015f8282546182cd919061da76565b92505081905550600191506182ea565b80806001019150506181e1565b508061832b576040517f08c379a00000000000000000000000000000000000000000000000000000000081526004016183229061e372565b60405180910390fd5b505050508080600101915050618101565b50508080600101915050617f84565b5060019050919050565b60605f6001618363846195da565b0190505f8167ffffffffffffffff81111561838157618380619d24565b5b6040519080825280601f01601f1916602001820160405280156183b35781602001600182028036833780820191505090505b5090505f82602001820190505b600115618414578080600190039150507f3031323334353637383961626364656600000000000000000000000000000000600a86061a8153600a85816184095761840861e390565b5b0494505f85036183c0575b819350505050919050565b5f805f90505f5b5f808673ffffffffffffffffffffffffffffffffffffffff1673ffffffffffffffffffffffffffffffffffffffff1681526020019081526020015f20600201805490508110156184ef57835f808773ffffffffffffffffffffffffffffffffffffffff1673ffffffffffffffffffffffffffffffffffffffff1681526020019081526020015f2060020182815481106184c2576184c161ca58565b5b905f5260205f2090600502015f0154036184e257809250600191506184ef565b8080600101915050618426565b5080618530576040517f08c379a00000000000000000000000000000000000000000000000000000000081526004016185279061e453565b60405180910390fd5b5f808573ffffffffffffffffffffffffffffffffffffffff1673ffffffffffffffffffffffffffffffffffffffff1681526020019081526020015f206002018054905082106185b4576040517f08c379a00000000000000000000000000000000000000000000000000000000081526004016185ab9061e507565b60405180910390fd5b60145f9054906101000a900473ffffffffffffffffffffffffffffffffffffffff1673ffffffffffffffffffffffffffffffffffffffff1663d24043cb855f808873ffffffffffffffffffffffffffffffffffffffff1673ffffffffffffffffffffffffffffffffffffffff1681526020019081526020015f2060020185815481106186435761864261ca58565b5b905f5260205f209060050201600101545f60016040518563ffffffff1660e01b8152600401618675949392919061e525565b5f604051808303815f87803b15801561868c575f80fd5b505af115801561869e573d5f803e3d5ffd5b5050505060145f9054906101000a900473ffffffffffffffffffffffffffffffffffffffff1673ffffffffffffffffffffffffffffffffffffffff1663d24043cb855f808873ffffffffffffffffffffffffffffffffffffffff1673ffffffffffffffffffffffffffffffffffffffff1681526020019081526020015f2060020185815481106187315761873061ca58565b5b905f5260205f2090600502016001015460125f9054906101000a900473ffffffffffffffffffffffffffffffffffffffff1673ffffffffffffffffffffffffffffffffffffffff1663b9db15b45f808b73ffffffffffffffffffffffffffffffffffffffff1673ffffffffffffffffffffffffffffffffffffffff1681526020019081526020015f2060020188815481106187cf576187ce61ca58565b5b905f5260205f209060050201600101546040518263ffffffff1660e01b81526004016187fb9190619cf7565b5f60405180830381865afa158015618815573d5f803e3d5ffd5b505050506040513d5f823e3d601f19601f8201168201806040525081019061883d919061d536565b6020015161018001515f6040518563ffffffff1660e01b8152600401618866949392919061e525565b5f604051808303815f87803b15801561887d575f80fd5b505af115801561888f573d5f803e3d5ffd5b5050505060145f9054906101000a900473ffffffffffffffffffffffffffffffffffffffff1673ffffffffffffffffffffffffffffffffffffffff166392a198d560125f9054906101000a900473ffffffffffffffffffffffffffffffffffffffff1673ffffffffffffffffffffffffffffffffffffffff1663b9db15b45f808973ffffffffffffffffffffffffffffffffffffffff1673ffffffffffffffffffffffffffffffffffffffff1681526020019081526020015f20600201868154811061895e5761895d61ca58565b5b905f5260205f209060050201600101546040518263ffffffff1660e01b815260040161898a9190619cf7565b5f60405180830381865afa1580156189a4573d5f803e3d5ffd5b505050506040513d5f823e3d601f19601f820116820180604052508101906189cc919061d536565b6020015161018001516040518263ffffffff1660e01b81526004016189f1919061b760565b5f604051808303815f87803b158015618a08575f80fd5b505af1158015618a1a573d5f803e3d5ffd5b5050505060015f808673ffffffffffffffffffffffffffffffffffffffff1673ffffffffffffffffffffffffffffffffffffffff1681526020019081526020015f2060020180549050618a6d919061da76565b821015618bd7575f8290505b60015f808773ffffffffffffffffffffffffffffffffffffffff1673ffffffffffffffffffffffffffffffffffffffff1681526020019081526020015f2060020180549050618ac8919061da76565b811015618bd5575f808673ffffffffffffffffffffffffffffffffffffffff1673ffffffffffffffffffffffffffffffffffffffff1681526020019081526020015f20600201600182618b1b919061e025565b81548110618b2c57618b2b61ca58565b5b905f5260205f2090600502015f808773ffffffffffffffffffffffffffffffffffffffff1673ffffffffffffffffffffffffffffffffffffffff1681526020019081526020015f206002018281548110618b8957618b8861ca58565b5b905f5260205f2090600502015f820154815f0155600182015481600101556002820154816002015560038201548160030155600482015481600401559050508080600101915050618a79565b505b5f805f8673ffffffffffffffffffffffffffffffffffffffff1673ffffffffffffffffffffffffffffffffffffffff1681526020019081526020015f206002018054905011618c5b576040517f08c379a0000000000000000000000000000000000000000000000000000000008152600401618c529061e5fe565b60405180910390fd5b5f808573ffffffffffffffffffffffffffffffffffffffff1673ffffffffffffffffffffffffffffffffffffffff1681526020019081526020015f20600201805480618caa57618ca961daa9565b5b600190038181905f5260205f2090600502015f8082015f9055600182015f9055600282015f9055600382015f9055600482015f90555050905550505050565b618cf16199cf565b5f60155f9054906101000a900473ffffffffffffffffffffffffffffffffffffffff1673ffffffffffffffffffffffffffffffffffffffff16638b59d23e846040518263ffffffff1660e01b8152600401618d4c919061b760565b602060405180830381865afa158015618d67573d5f803e3d5ffd5b505050506040513d601f19601f82011682018060405250810190618d8b919061e61c565b90505f845190508067ffffffffffffffff811115618dac57618dab619d24565b5b604051908082528060200260200182016040528015618dda5781602001602082028036833780820191505090505b50835f01819052508067ffffffffffffffff811115618dfc57618dfb619d24565b5b604051908082528060200260200182016040528015618e2a5781602001602082028036833780820191505090505b5083602001819052508067ffffffffffffffff811115618e4d57618e4c619d24565b5b604051908082528060200260200182016040528015618e7b5781602001602082028036833780820191505090505b5083604001819052508067ffffffffffffffff811115618e9e57618e9d619d24565b5b604051908082528060200260200182016040528015618ecc5781602001602082028036833780820191505090505b508360c001819052508067ffffffffffffffff811115618eef57618eee619d24565b5b604051908082528060200260200182016040528015618f1d5781602001602082028036833780820191505090505b5083608001819052508067ffffffffffffffff811115618f4057618f3f619d24565b5b604051908082528060200260200182016040528015618f6e5781602001602082028036833780820191505090505b5083606001819052508067ffffffffffffffff811115618f9157618f90619d24565b5b604051908082528060200260200182016040528015618fbf5781602001602082028036833780820191505090505b508360a001819052505f5b818110156195c3575f805b5f808873ffffffffffffffffffffffffffffffffffffffff1673ffffffffffffffffffffffffffffffffffffffff1681526020019081526020015f20600201805490508110156190b9578783815181106190325761903161ca58565b5b6020026020010151606001515f808973ffffffffffffffffffffffffffffffffffffffff1673ffffffffffffffffffffffffffffffffffffffff1681526020019081526020015f20600201828154811061908f5761908e61ca58565b5b905f5260205f2090600502015f0154036190ac57600191506190b9565b8080600101915050618fd5565b50806190fa576040517f08c379a00000000000000000000000000000000000000000000000000000000081526004016190f19061e6dd565b60405180910390fd5b60125f9054906101000a900473ffffffffffffffffffffffffffffffffffffffff1673ffffffffffffffffffffffffffffffffffffffff1663b9db15b488848151811061914a5761914961ca58565b5b60200260200101515f01516040518263ffffffff1660e01b81526004016191719190619cf7565b5f60405180830381865afa15801561918b573d5f803e3d5ffd5b505050506040513d5f823e3d601f19601f820116820180604052508101906191b3919061d536565b602001516102c001516191df600f60405180606001604052806023815260200161e7f1602391396112b1565b90619220576040517f08c379a0000000000000000000000000000000000000000000000000000000008152600401619217919061a739565b60405180910390fd5b505f60125f9054906101000a900473ffffffffffffffffffffffffffffffffffffffff1673ffffffffffffffffffffffffffffffffffffffff166241c6298985815181106192715761927061ca58565b5b60200260200101515f01518a868151811061928f5761928e61ca58565b5b6020026020010151604001516040518363ffffffff1660e01b81526004016192b892919061d57d565b60c060405180830381865afa1580156192d3573d5f803e3d5ffd5b505050506040513d601f19601f820116820180604052508101906192f7919061d68e565b90505f808615619311578260200151602001519050619367565b82602001516040015190508260200151602001518110619366576040517f08c379a000000000000000000000000000000000000000000000000000000000815260040161935d9061e791565b60405180910390fd5b5b89858151811061937a5761937961ca58565b5b60200260200101516020015181619391919061e7af565b8860e0018181516193a2919061e025565b915081815250508260200151608001518a86815181106193c5576193c461ca58565b5b60200260200101516020015111156193f6600d6040518060600160405280602a815260200161e849602a91396112b1565b90619437576040517f08c379a000000000000000000000000000000000000000000000000000000000815260040161942e919061a739565b60405180910390fd5b5089858151811061944b5761944a61ca58565b5b60200260200101515f0151885f0151868151811061946c5761946b61ca58565b5b60200260200101818152505089858151811061948b5761948a61ca58565b5b602002602001015160400151886020015186815181106194ae576194ad61ca58565b5b6020026020010181815250508985815181106194cd576194cc61ca58565b5b602002602001015160200151886040015186815181106194f0576194ef61ca58565b5b60200260200101818152505081886060015186815181106195145761951361ca58565b5b60200260200101818152505080886080015186815181106195385761953761ca58565b5b6020026020010181815250508260200151606001518860a0015186815181106195645761956361ca58565b5b6020026020010181815250508985815181106195835761958261ca58565b5b6020026020010151606001518860c0015186815181106195a6576195a561ca58565b5b602002602001018181525050505050508080600101915050618fca565b50505092915050565b6195d6828261841f565b5050565b5f805f90507a184f03e93ff9f4daa797ed6e38ed64bf6a1f0100000000000000008310619636577a184f03e93ff9f4daa797ed6e38ed64bf6a1f010000000000000000838161962c5761962b61e390565b5b0492506040810190505b6d04ee2d6d415b85acef81000000008310619673576d04ee2d6d415b85acef810000000083816196695761966861e390565b5b0492506020810190505b662386f26fc1000083106196a257662386f26fc1000083816196985761969761e390565b5b0492506010810190505b6305f5e10083106196cb576305f5e10083816196c1576196c061e390565b5b0492506008810190505b61271083106196f05761271083816196e6576196e561e390565b5b0492506004810190505b6064831061971357606483816197095761970861e390565b5b0492506002810190505b600a8310619722576001810190505b80915050919050565b5080545f8255600502905f5260205f20908101906197499190619a13565b50565b828054828255905f5260205f20908101928215619786579160200282015b8281111561978557825182559160200191906001019061976a565b5b5090506197939190619a6c565b5090565b828054828255905f5260205f209081019282156197d1579160200282015b828111156197d05782518255916020019190600101906197b5565b5b5090506197de9190619a87565b5090565b60405180606001604052805f81526020015f73ffffffffffffffffffffffffffffffffffffffff168152602001606081525090565b6040518061026001604052805f81526020015f73ffffffffffffffffffffffffffffffffffffffff1681526020015f73ffffffffffffffffffffffffffffffffffffffff1681526020015f8152602001606081526020016060815260200160608152602001606081526020016060815260200160608152602001606081526020015f81526020015f60ff1681526020015f60ff1681526020015f80191681526020015f81526020015f81526020015f60ff1681526020015f81525090565b6040518060a001604052805f81526020015f81526020015f81526020015f80191681526020015f81525090565b6040518060a001604052805f8152602001606081526020015f73ffffffffffffffffffffffffffffffffffffffff1681526020015f151581526020015f81525090565b60405180608001604052805f81526020015f81526020015f73ffffffffffffffffffffffffffffffffffffffff168152602001619980619aa2565b81525090565b6040518060800160405280606081526020016199a0619aa2565b81526020015f73ffffffffffffffffffffffffffffffffffffffff1681526020016199c9619aee565b81525090565b604051806101000160405280606081526020016060815260200160608152602001606081526020016060815260200160608152602001606081526020015f81525090565b5b80821115619a68575f8082015f619a2b9190619b39565b600182015f619a3a9190619b39565b600282015f619a499190619b57565b600382015f619a589190619b39565b600482015f905550600501619a14565b5090565b5b80821115619a83575f815f905550600101619a6d565b5090565b5b80821115619a9e575f815f905550600101619a88565b5090565b6040518061012001604052806060815260200160608152602001606081526020016060815260200160608152602001606081526020016060815260200160608152602001606081525090565b60405180608001604052805f81526020015f80191681526020015f6001811115619b1b57619b1a61bd9c565b5b81526020015f6001811115619b3357619b3261bd9c565b5b81525090565b5080545f8255905f5260205f2090810190619b549190619a6c565b50565b5080545f8255905f5260205f2090810190619b729190619a87565b50565b5f604051905090565b5f80fd5b5f80fd5b5f819050919050565b619b9881619b86565b8114619ba2575f80fd5b50565b5f81359050619bb381619b8f565b92915050565b5f60208284031215619bce57619bcd619b7e565b5b5f619bdb84828501619ba5565b91505092915050565b619bed81619b86565b82525050565b5f73ffffffffffffffffffffffffffffffffffffffff82169050919050565b5f619c1c82619bf3565b9050919050565b619c2c81619c12565b82525050565b5f8115159050919050565b619c4681619c32565b82525050565b5f608082019050619c5f5f830187619be4565b619c6c6020830186619c23565b619c796040830185619c3d565b619c866060830184619be4565b95945050505050565b619c9881619c12565b8114619ca2575f80fd5b50565b5f81359050619cb381619c8f565b92915050565b5f8060408385031215619ccf57619cce619b7e565b5b5f619cdc85828601619ca5565b9250506020619ced85828601619ba5565b9150509250929050565b5f602082019050619d0a5f830184619be4565b92915050565b5f80fd5b5f601f19601f8301169050919050565b7f4e487b71000000000000000000000000000000000000000000000000000000005f52604160045260245ffd5b619d5a82619d14565b810181811067ffffffffffffffff82111715619d7957619d78619d24565b5b80604052505050565b5f619d8b619b75565b9050619d978282619d51565b919050565b5f80fd5b5f80fd5b5f80fd5b5f67ffffffffffffffff821115619dc257619dc1619d24565b5b619dcb82619d14565b9050602081019050919050565b828183375f83830152505050565b5f619df8619df384619da8565b619d82565b905082815260208101848484011115619e1457619e13619da4565b5b619e1f848285619dd8565b509392505050565b5f82601f830112619e3b57619e3a619da0565b5b8135619e4b848260208601619de6565b91505092915050565b5f6101208284031215619e6a57619e69619d10565b5b619e75610120619d82565b90505f82013567ffffffffffffffff811115619e9457619e93619d9c565b5b619ea084828501619e27565b5f83015250602082013567ffffffffffffffff811115619ec357619ec2619d9c565b5b619ecf84828501619e27565b602083015250604082013567ffffffffffffffff811115619ef357619ef2619d9c565b5b619eff84828501619e27565b604083015250606082013567ffffffffffffffff811115619f2357619f22619d9c565b5b619f2f84828501619e27565b606083015250608082013567ffffffffffffffff811115619f5357619f52619d9c565b5b619f5f84828501619e27565b60808301525060a082013567ffffffffffffffff811115619f8357619f82619d9c565b5b619f8f84828501619e27565b60a08301525060c082013567ffffffffffffffff811115619fb357619fb2619d9c565b5b619fbf84828501619e27565b60c08301525060e082013567ffffffffffffffff811115619fe357619fe2619d9c565b5b619fef84828501619e27565b60e08301525061010082013567ffffffffffffffff81111561a0145761a013619d9c565b5b61a02084828501619e27565b6101008301525092915050565b5f805f6060848603121561a0445761a043619b7e565b5b5f84013567ffffffffffffffff81111561a0615761a060619b82565b5b61a06d86828701619e54565b935050602061a07e86828701619ba5565b925050604061a08f86828701619ca5565b9150509250925092565b5f67ffffffffffffffff82111561a0b35761a0b2619d24565b5b602082029050602081019050919050565b5f80fd5b5f67ffffffffffffffff82111561a0e25761a0e1619d24565b5b602082029050602081019050919050565b5f61a10561a1008461a0c8565b619d82565b9050808382526020820190506020840283018581111561a1285761a12761a0c4565b5b835b8181101561a151578061a13d8882619ba5565b84526020840193505060208101905061a12a565b5050509392505050565b5f82601f83011261a16f5761a16e619da0565b5b813561a17f84826020860161a0f3565b91505092915050565b5f67ffffffffffffffff82111561a1a25761a1a1619d24565b5b602082029050602081019050919050565b5f819050919050565b61a1c58161a1b3565b811461a1cf575f80fd5b50565b5f8135905061a1e08161a1bc565b92915050565b5f61a1f861a1f38461a188565b619d82565b9050808382526020820190506020840283018581111561a21b5761a21a61a0c4565b5b835b8181101561a244578061a230888261a1d2565b84526020840193505060208101905061a21d565b5050509392505050565b5f82601f83011261a2625761a261619da0565b5b813561a27284826020860161a1e6565b91505092915050565b5f60a0828403121561a2905761a28f619d10565b5b61a29a60a0619d82565b90505f82013567ffffffffffffffff81111561a2b95761a2b8619d9c565b5b61a2c58482850161a15b565b5f83015250602082013567ffffffffffffffff81111561a2e85761a2e7619d9c565b5b61a2f48482850161a15b565b602083015250604082013567ffffffffffffffff81111561a3185761a317619d9c565b5b61a3248482850161a24e565b604083015250606082013567ffffffffffffffff81111561a3485761a347619d9c565b5b61a3548482850161a15b565b606083015250608061a36884828501619ba5565b60808301525092915050565b5f61a38661a3818461a099565b619d82565b9050808382526020820190506020840283018581111561a3a95761a3a861a0c4565b5b835b8181101561a3f057803567ffffffffffffffff81111561a3ce5761a3cd619da0565b5b80860161a3db898261a27b565b8552602085019450505060208101905061a3ab565b5050509392505050565b5f82601f83011261a40e5761a40d619da0565b5b813561a41e84826020860161a374565b91505092915050565b5f805f6060848603121561a43e5761a43d619b7e565b5b5f61a44b86828701619ba5565b935050602084013567ffffffffffffffff81111561a46c5761a46b619b82565b5b61a4788682870161a3fa565b925050604061a48986828701619ba5565b9150509250925092565b5f60208201905061a4a65f830184619c3d565b92915050565b5f6020828403121561a4c15761a4c0619b7e565b5b5f61a4ce84828501619ca5565b91505092915050565b61a4e081619b86565b82525050565b61a4ef81619c12565b82525050565b5f81519050919050565b5f82825260208201905092915050565b5f819050602082019050919050565b61a5278161a1b3565b82525050565b60a082015f82015161a5415f85018261a4d7565b50602082015161a554602085018261a4d7565b50604082015161a567604085018261a4d7565b50606082015161a57a606085018261a51e565b50608082015161a58d608085018261a4d7565b50505050565b5f61a59e838361a52d565b60a08301905092915050565b5f602082019050919050565b5f61a5c08261a4f5565b61a5ca818561a4ff565b935061a5d58361a50f565b805f5b8381101561a60557815161a5ec888261a593565b975061a5f78361a5aa565b92505060018101905061a5d8565b5085935050505092915050565b5f606083015f83015161a6275f86018261a4d7565b50602083015161a63a602086018261a4e6565b506040830151848203604086015261a652828261a5b6565b9150508091505092915050565b5f6020820190508181035f83015261a677818461a612565b905092915050565b5f806040838503121561a6955761a694619b7e565b5b5f61a6a285828601619ba5565b925050602083013567ffffffffffffffff81111561a6c35761a6c2619b82565b5b61a6cf85828601619e27565b9150509250929050565b5f81519050919050565b5f82825260208201905092915050565b8281835e5f83830152505050565b5f61a70b8261a6d9565b61a715818561a6e3565b935061a72581856020860161a6f3565b61a72e81619d14565b840191505092915050565b5f6020820190508181035f83015261a751818461a701565b905092915050565b5f60ff82169050919050565b61a76e8161a759565b82525050565b61a77d8161a1b3565b82525050565b5f6101808201905061a7975f83018f619be4565b61a7a4602083018e619c23565b61a7b1604083018d619c23565b61a7be606083018c619be4565b61a7cb608083018b619be4565b61a7d860a083018a61a765565b61a7e560c083018961a765565b61a7f260e083018861a774565b61a800610100830187619be4565b61a80e610120830186619be4565b61a81c61014083018561a765565b61a82a610160830184619be4565b9d9c50505050505050505050505050565b5f81519050919050565b5f82825260208201905092915050565b5f819050602082019050919050565b5f81519050919050565b5f82825260208201905092915050565b5f819050602082019050919050565b5f61a898838361a4d7565b60208301905092915050565b5f602082019050919050565b5f61a8ba8261a864565b61a8c4818561a86e565b935061a8cf8361a87e565b805f5b8381101561a8ff57815161a8e6888261a88d565b975061a8f18361a8a4565b92505060018101905061a8d2565b5085935050505092915050565b5f81519050919050565b5f82825260208201905092915050565b5f819050602082019050919050565b5f61a940838361a51e565b60208301905092915050565b5f602082019050919050565b5f61a9628261a90c565b61a96c818561a916565b935061a9778361a926565b805f5b8381101561a9a757815161a98e888261a935565b975061a9998361a94c565b92505060018101905061a97a565b5085935050505092915050565b61a9bd8161a759565b82525050565b5f61026083015f83015161a9d95f86018261a4d7565b50602083015161a9ec602086018261a4e6565b50604083015161a9ff604086018261a4e6565b50606083015161aa12606086018261a4d7565b506080830151848203608086015261aa2a828261a8b0565b91505060a083015184820360a086015261aa44828261a8b0565b91505060c083015184820360c086015261aa5e828261a958565b91505060e083015184820360e086015261aa78828261a8b0565b91505061010083015184820361010086015261aa94828261a8b0565b91505061012083015184820361012086015261aab0828261a8b0565b91505061014083015184820361014086015261aacc828261a8b0565b91505061016083015161aae361016086018261a4d7565b5061018083015161aaf861018086018261a9b4565b506101a083015161ab0d6101a086018261a9b4565b506101c083015161ab226101c086018261a51e565b506101e083015161ab376101e086018261a4d7565b5061020083015161ab4c61020086018261a4d7565b5061022083015161ab6161022086018261a9b4565b5061024083015161ab7661024086018261a4d7565b508091505092915050565b5f61ab8c838361a9c3565b905092915050565b5f602082019050919050565b5f61abaa8261a83b565b61abb4818561a845565b93508360208202850161abc68561a855565b805f5b8581101561ac01578484038952815161abe2858261ab81565b945061abed8361ab94565b925060208a0199505060018101905061abc9565b50829750879550505050505092915050565b5f6020820190508181035f83015261ac2b818461aba0565b905092915050565b6005811061ac3f575f80fd5b50565b5f8135905061ac508161ac33565b92915050565b5f806040838503121561ac6c5761ac6b619b7e565b5b5f61ac798582860161a1d2565b925050602061ac8a8582860161ac42565b9150509250929050565b5f67ffffffffffffffff82111561acae5761acad619d24565b5b61acb782619d14565b9050602081019050919050565b5f61acd661acd18461ac94565b619d82565b90508281526020810184848401111561acf25761acf1619da4565b5b61acfd848285619dd8565b509392505050565b5f82601f83011261ad195761ad18619da0565b5b813561ad2984826020860161acc4565b91505092915050565b5f6020828403121561ad475761ad46619b7e565b5b5f82013567ffffffffffffffff81111561ad645761ad63619b82565b5b61ad708482850161ad05565b91505092915050565b5f805f6060848603121561ad905761ad8f619b7e565b5b5f61ad9d86828701619ba5565b935050602061adae8682870161a1d2565b925050604061adbf86828701619ba5565b9150509250925092565b60a082015f82015161addd5f85018261a4d7565b50602082015161adf0602085018261a4d7565b50604082015161ae03604085018261a4d7565b50606082015161ae16606085018261a51e565b50608082015161ae29608085018261a4d7565b50505050565b5f60a08201905061ae425f83018461adc9565b92915050565b5f81519050919050565b5f82825260208201905092915050565b5f819050602082019050919050565b5f81519050919050565b5f82825260208201905092915050565b5f819050602082019050919050565b5f60a083015f8301518482035f86015261aeb4828261a8b0565b9150506020830151848203602086015261aece828261a8b0565b9150506040830151848203604086015261aee8828261a958565b9150506060830151848203606086015261af02828261a8b0565b915050608083015161af17608086018261a4d7565b508091505092915050565b5f61af2d838361ae9a565b905092915050565b5f602082019050919050565b5f61af4b8261ae71565b61af55818561ae7b565b93508360208202850161af678561ae8b565b805f5b8581101561afa2578484038952815161af83858261af22565b945061af8e8361af35565b925060208a0199505060018101905061af6a565b50829750879550505050505092915050565b61afbd81619c32565b82525050565b5f60a083015f83015161afd85f86018261a4d7565b506020830151848203602086015261aff0828261af41565b915050604083015161b005604086018261a4e6565b50606083015161b018606086018261afb4565b50608083015161b02b608086018261a4d7565b508091505092915050565b5f61b041838361afc3565b905092915050565b5f602082019050919050565b5f61b05f8261ae48565b61b069818561ae52565b93508360208202850161b07b8561ae62565b805f5b8581101561b0b6578484038952815161b097858261b036565b945061b0a28361b049565b925060208a0199505060018101905061b07e565b50829750879550505050505092915050565b5f6020820190508181035f83015261b0e0818461b055565b905092915050565b5f819050919050565b5f61b10b61b10661b10184619bf3565b61b0e8565b619bf3565b9050919050565b5f61b11c8261b0f1565b9050919050565b5f61b12d8261b112565b9050919050565b61b13d8161b123565b82525050565b5f60208201905061b1565f83018461b134565b92915050565b5f60208201905061b16f5f83018461a774565b92915050565b5f67ffffffffffffffff82111561b18f5761b18e619d24565b5b602082029050602081019050919050565b5f67ffffffffffffffff82111561b1ba5761b1b9619d24565b5b602082029050602081019050919050565b5f61b1dd61b1d88461b1a0565b619d82565b9050808382526020820190506020840283018581111561b2005761b1ff61a0c4565b5b835b8181101561b24757803567ffffffffffffffff81111561b2255761b224619da0565b5b80860161b2328982619e27565b8552602085019450505060208101905061b202565b5050509392505050565b5f82601f83011261b2655761b264619da0565b5b813561b27584826020860161b1cb565b91505092915050565b5f60a0828403121561b2935761b292619d10565b5b61b29d60a0619d82565b90505f61b2ac84828501619ba5565b5f83015250602061b2bf84828501619ba5565b602083015250604061b2d38482850161a1d2565b604083015250606061b2e784828501619ba5565b606083015250608082013567ffffffffffffffff81111561b30b5761b30a619d9c565b5b61b3178482850161b251565b60808301525092915050565b5f61b33561b3308461b175565b619d82565b9050808382526020820190506020840283018581111561b3585761b35761a0c4565b5b835b8181101561b39f57803567ffffffffffffffff81111561b37d5761b37c619da0565b5b80860161b38a898261b27e565b8552602085019450505060208101905061b35a565b5050509392505050565b5f82601f83011261b3bd5761b3bc619da0565b5b813561b3cd84826020860161b323565b91505092915050565b6002811061b3e2575f80fd5b50565b5f8135905061b3f38161b3d6565b92915050565b6002811061b405575f80fd5b50565b5f8135905061b4168161b3f9565b92915050565b5f6080828403121561b4315761b430619d10565b5b61b43b6080619d82565b90505f61b44a84828501619ba5565b5f83015250602061b45d8482850161a1d2565b602083015250604061b4718482850161b3e5565b604083015250606061b4858482850161b408565b60608301525092915050565b5f805f60c0848603121561b4a85761b4a7619b7e565b5b5f84013567ffffffffffffffff81111561b4c55761b4c4619b82565b5b61b4d18682870161b3a9565b935050602084013567ffffffffffffffff81111561b4f25761b4f1619b82565b5b61b4fe86828701619e54565b925050604061b50f8682870161b41c565b9150509250925092565b5f806040838503121561b52f5761b52e619b7e565b5b5f61b53c85828601619ba5565b925050602061b54d85828601619ba5565b9150509250929050565b5f82825260208201905092915050565b5f61b5718261a6d9565b61b57b818561b557565b935061b58b81856020860161a6f3565b61b59481619d14565b840191505092915050565b5f61012083015f8301518482035f86015261b5ba828261b567565b9150506020830151848203602086015261b5d4828261b567565b9150506040830151848203604086015261b5ee828261b567565b9150506060830151848203606086015261b608828261b567565b9150506080830151848203608086015261b622828261b567565b91505060a083015184820360a086015261b63c828261b567565b91505060c083015184820360c086015261b656828261b567565b91505060e083015184820360e086015261b670828261b567565b91505061010083015184820361010086015261b68c828261b567565b9150508091505092915050565b5f608083015f83015161b6ae5f86018261a4d7565b50602083015161b6c1602086018261a4d7565b50604083015161b6d4604086018261a4e6565b506060830151848203606086015261b6ec828261b59f565b9150508091505092915050565b5f6020820190508181035f83015261b711818461b699565b905092915050565b5f6020828403121561b72e5761b72d619b7e565b5b5f82013567ffffffffffffffff81111561b74b5761b74a619b82565b5b61b7578482850161a15b565b91505092915050565b5f60208201905061b7735f830184619c23565b92915050565b5f67ffffffffffffffff82111561b7935761b792619d24565b5b602082029050602081019050919050565b5f6060828403121561b7b95761b7b8619d10565b5b61b7c36060619d82565b90505f61b7d284828501619ba5565b5f83015250602061b7e58482850161a1d2565b602083015250604061b7f984828501619ba5565b60408301525092915050565b5f61b81761b8128461b779565b619d82565b9050808382526020820190506060840283018581111561b83a5761b83961a0c4565b5b835b8181101561b863578061b84f888261b7a4565b84526020840193505060608101905061b83c565b5050509392505050565b5f82601f83011261b8815761b880619da0565b5b813561b89184826020860161b805565b91505092915050565b5f6020828403121561b8af5761b8ae619b7e565b5b5f82013567ffffffffffffffff81111561b8cc5761b8cb619b82565b5b61b8d88482850161b86d565b91505092915050565b5f82825260208201905092915050565b5f61b8fb8261a4f5565b61b905818561b8e1565b935061b9108361a50f565b805f5b8381101561b94057815161b927888261a593565b975061b9328361a5aa565b92505060018101905061b913565b5085935050505092915050565b5f6020820190508181035f83015261b965818461b8f1565b905092915050565b5f60408201905061b9805f830185619be4565b61b98d6020830184619c23565b9392505050565b5f61b99e8261b112565b9050919050565b61b9ae8161b994565b82525050565b5f60208201905061b9c75f83018461b9a5565b92915050565b5f806040838503121561b9e35761b9e2619b7e565b5b5f83013567ffffffffffffffff81111561ba005761b9ff619b82565b5b61ba0c8582860161a3fa565b925050602061ba1d85828601619ba5565b9150509250929050565b5f6020828403121561ba3c5761ba3b619b7e565b5b5f61ba498482850161a1d2565b91505092915050565b5f61026083015f83015161ba685f86018261a4d7565b50602083015161ba7b602086018261a4e6565b50604083015161ba8e604086018261a4e6565b50606083015161baa1606086018261a4d7565b506080830151848203608086015261bab9828261a8b0565b91505060a083015184820360a086015261bad3828261a8b0565b91505060c083015184820360c086015261baed828261a958565b91505060e083015184820360e086015261bb07828261a8b0565b91505061010083015184820361010086015261bb23828261a8b0565b91505061012083015184820361012086015261bb3f828261a8b0565b91505061014083015184820361014086015261bb5b828261a8b0565b91505061016083015161bb7261016086018261a4d7565b5061018083015161bb8761018086018261a9b4565b506101a083015161bb9c6101a086018261a9b4565b506101c083015161bbb16101c086018261a51e565b506101e083015161bbc66101e086018261a4d7565b5061020083015161bbdb61020086018261a4d7565b5061022083015161bbf061022086018261a9b4565b5061024083015161bc0561024086018261a4d7565b508091505092915050565b5f6020820190508181035f83015261bc28818461ba52565b905092915050565b5f61bc3a8261b112565b9050919050565b61bc4a8161bc30565b82525050565b5f60208201905061bc635f83018461bc41565b92915050565b5f61bc738261b112565b9050919050565b61bc838161bc69565b82525050565b5f60208201905061bc9c5f83018461bc7a565b92915050565b5f61012083015f8301518482035f86015261bcbd828261b567565b9150506020830151848203602086015261bcd7828261b567565b9150506040830151848203604086015261bcf1828261b567565b9150506060830151848203606086015261bd0b828261b567565b9150506080830151848203608086015261bd25828261b567565b91505060a083015184820360a086015261bd3f828261b567565b91505060c083015184820360c086015261bd59828261b567565b91505060e083015184820360e086015261bd73828261b567565b91505061010083015184820361010086015261bd8f828261b567565b9150508091505092915050565b7f4e487b71000000000000000000000000000000000000000000000000000000005f52602160045260245ffd5b6002811061bdda5761bdd961bd9c565b5b50565b5f81905061bdea8261bdc9565b919050565b5f61bdf98261bddd565b9050919050565b61be098161bdef565b82525050565b6002811061be205761be1f61bd9c565b5b50565b5f81905061be308261be0f565b919050565b5f61be3f8261be23565b9050919050565b61be4f8161be35565b82525050565b608082015f82015161be695f85018261a4d7565b50602082015161be7c602085018261a51e565b50604082015161be8f604085018261be00565b50606082015161bea2606085018261be46565b50505050565b5f60c0820190508181035f83015261bec0818661bca2565b905061becf6020830185619c23565b61bedc604083018461be55565b949350505050565b5f60a0828403121561bef95761bef8619d10565b5b61bf0360a0619d82565b90505f61bf1284828501619ba5565b5f83015250602061bf2584828501619ba5565b602083015250604061bf3984828501619ba5565b604083015250606061bf4d8482850161a1d2565b606083015250608061bf6184828501619ba5565b60808301525092915050565b5f60a0828403121561bf825761bf81619b7e565b5b5f61bf8f8482850161bee4565b91505092915050565b5f60a083015f83015161bfad5f86018261a4d7565b506020830151848203602086015261bfc5828261af41565b915050604083015161bfda604086018261a4e6565b50606083015161bfed606086018261afb4565b50608083015161c000608086018261a4d7565b508091505092915050565b5f6020820190508181035f83015261c023818461bf98565b905092915050565b5f60808201905061c03e5f830187619be4565b61c04b6020830186619be4565b61c0586040830185619c23565b818103606083015261c06a818461bca2565b905095945050505050565b5f81519050919050565b5f82825260208201905092915050565b5f819050602082019050919050565b5f81519050919050565b5f82825260208201905092915050565b5f819050602082019050919050565b5f61c0d2838361b567565b905092915050565b5f602082019050919050565b5f61c0f08261c09e565b61c0fa818561c0a8565b93508360208202850161c10c8561c0b8565b805f5b8581101561c147578484038952815161c128858261c0c7565b945061c1338361c0da565b925060208a0199505060018101905061c10f565b50829750879550505050505092915050565b5f60a083015f83015161c16e5f86018261a4d7565b50602083015161c181602086018261a4d7565b50604083015161c194604086018261a51e565b50606083015161c1a7606086018261a4d7565b506080830151848203608086015261c1bf828261c0e6565b9150508091505092915050565b5f61c1d7838361c159565b905092915050565b5f602082019050919050565b5f61c1f58261c075565b61c1ff818561c07f565b93508360208202850161c2118561c08f565b805f5b8581101561c24c578484038952815161c22d858261c1cc565b945061c2388361c1df565b925060208a0199505060018101905061c214565b50829750879550505050505092915050565b608082015f82015161c2725f85018261a4d7565b50602082015161c285602085018261a51e565b50604082015161c298604085018261be00565b50606082015161c2ab606085018261be46565b50505050565b5f60e083015f8301518482035f86015261c2cb828261c1eb565b9150506020830151848203602086015261c2e5828261b59f565b915050604083015161c2fa604086018261a4e6565b50606083015161c30d606086018261c25e565b508091505092915050565b5f6020820190508181035f83015261c330818461c2b1565b905092915050565b5f61c3428261b112565b9050919050565b61c3528161c338565b82525050565b5f60208201905061c36b5f83018461c349565b92915050565b5f67ffffffffffffffff82111561c38b5761c38a619d24565b5b602082029050602081019050919050565b5f6040828403121561c3b15761c3b0619d10565b5b61c3bb6040619d82565b90505f61c3ca84828501619ba5565b5f83015250602061c3dd84828501619ba5565b60208301525092915050565b5f61c3fb61c3f68461c371565b619d82565b9050808382526020820190506040840283018581111561c41e5761c41d61a0c4565b5b835b8181101561c447578061c433888261c39c565b84526020840193505060408101905061c420565b5050509392505050565b5f82601f83011261c4655761c464619da0565b5b813561c47584826020860161c3e9565b91505092915050565b5f6020828403121561c4935761c492619b7e565b5b5f82013567ffffffffffffffff81111561c4b05761c4af619b82565b5b61c4bc8482850161c451565b91505092915050565b7f4e487b71000000000000000000000000000000000000000000000000000000005f52601160045260245ffd5b5f61c4fc82619b86565b91507fffffffffffffffffffffffffffffffffffffffffffffffffffffffffffffffff820361c52e5761c52d61c4c5565b5b600182019050919050565b7f4e487b71000000000000000000000000000000000000000000000000000000005f52602260045260245ffd5b5f600282049050600182168061c57d57607f821691505b60208210810361c5905761c58f61c539565b5b50919050565b5f819050815f5260205f209050919050565b5f6020601f8301049050919050565b5f82821b905092915050565b5f6008830261c5f27fffffffffffffffffffffffffffffffffffffffffffffffffffffffffffffffff8261c5b7565b61c5fc868361c5b7565b95508019841693508086168417925050509392505050565b5f61c62e61c62961c62484619b86565b61b0e8565b619b86565b9050919050565b5f819050919050565b61c6478361c614565b61c65b61c6538261c635565b84845461c5c3565b825550505050565b5f90565b61c66f61c663565b61c67a81848461c63e565b505050565b5b8181101561c69d5761c6925f8261c667565b60018101905061c680565b5050565b601f82111561c6e25761c6b38161c596565b61c6bc8461c5a8565b8101602085101561c6cb578190505b61c6df61c6d78561c5a8565b83018261c67f565b50505b505050565b5f82821c905092915050565b5f61c7025f198460080261c6e7565b1980831691505092915050565b5f61c71a838361c6f3565b9150826002028217905092915050565b61c7338261a6d9565b67ffffffffffffffff81111561c74c5761c74b619d24565b5b61c756825461c566565b61c76182828561c6a1565b5f60209050601f83116001811461c792575f841561c780578287015190505b61c78a858261c70f565b86555061c7f1565b601f19841661c7a08661c596565b5f5b8281101561c7c75784890151825560018201915060208501945060208101905061c7a2565b8683101561c7e4578489015161c7e0601f89168261c6f3565b8355505b6001600288020188555050505b505050505050565b5f6101808201905061c80d5f83018f619be4565b61c81a602083018e619be4565b61c827604083018d619c23565b818103606083015261c839818c61a701565b9050818103608083015261c84d818b61a701565b905081810360a083015261c861818a61a701565b905081810360c083015261c875818961a701565b905081810360e083015261c889818861a701565b905081810361010083015261c89e818761a701565b905081810361012083015261c8b3818661a701565b905081810361014083015261c8c8818561a701565b905081810361016083015261c8dd818461a701565b90509d9c50505050505050505050505050565b7f7b2266726f6d223a202245636f6d50726f647563742e736f6c222c22636f64655f8201527f223a20313030322c20226d657373616765223a22596f7520617265206e6f742060208201527f6f776e6572206f66207468652073686172656c696e6b227d0000000000000000604082015250565b5f61c97060588361a6e3565b915061c97b8261c8f0565b606082019050919050565b5f6020820190508181035f83015261c99d8161c964565b9050919050565b7f7b2266726f6d223a202245636f6d50726f647563742e736f6c222c22636f64655f8201527f223a20313030332c20226d657373616765223a22496e76616c6964207368617260208201527f656c696e6b206f7220616c7265616479206578656375746564227d0000000000604082015250565b5f61ca24605b8361a6e3565b915061ca2f8261c9a4565b606082019050919050565b5f6020820190508181035f83015261ca518161ca18565b9050919050565b7f4e487b71000000000000000000000000000000000000000000000000000000005f52603260045260245ffd5b5f81905092915050565b7f7b2266726f6d223a202245636f6d4f726465722e736f6c222c000000000000005f82015250565b5f61cac360198361ca85565b915061cace8261ca8f565b601982019050919050565b7f22636f6465223a200000000000000000000000000000000000000000000000005f82015250565b5f61cb0d60088361ca85565b915061cb188261cad9565b600882019050919050565b5f61cb2d8261a6d9565b61cb37818561ca85565b935061cb4781856020860161a6f3565b80840191505092915050565b7f2c200000000000000000000000000000000000000000000000000000000000005f82015250565b5f61cb8760028361ca85565b915061cb928261cb53565b600282019050919050565b7f226d657373616765223a202200000000000000000000000000000000000000005f82015250565b5f61cbd1600c8361ca85565b915061cbdc8261cb9d565b600c82019050919050565b7f227d0000000000000000000000000000000000000000000000000000000000005f82015250565b5f61cc1b60028361ca85565b915061cc268261cbe7565b600282019050919050565b5f61cc3b8261cab7565b915061cc468261cb01565b915061cc52828561cb23565b915061cc5d8261cb7b565b915061cc688261cbc5565b915061cc74828461cb23565b915061cc7f8261cc0f565b91508190509392505050565b7f7b2266726f6d223a202245636f6d4f726465722e736f6c222c22636f6465223a5f8201527f2035352c20226d657373616765223a2022596f7520617265206e6f7420616c6c60208201527f6f7765642e227d00000000000000000000000000000000000000000000000000604082015250565b5f61cd0b60478361a6e3565b915061cd168261cc8b565b606082019050919050565b5f6020820190508181035f83015261cd388161ccff565b9050919050565b7f496e76616c6964206f7264657220636f646500000000000000000000000000005f82015250565b5f61cd7360128361a6e3565b915061cd7e8261cd3f565b602082019050919050565b5f6020820190508181035f83015261cda08161cd67565b9050919050565b7f496e76616c6964206f726465722073746174757320666f7220757064617465005f82015250565b5f61cddb601f8361a6e3565b915061cde68261cda7565b602082019050919050565b5f6020820190508181035f83015261ce088161cdcf565b9050919050565b7f4e657720737461747573206973207468652073616d652061732063757272656e5f8201527f7420737461747573000000000000000000000000000000000000000000000000602082015250565b5f61ce6960288361a6e3565b915061ce748261ce0f565b604082019050919050565b5f6020820190508181035f83015261ce968161ce5d565b9050919050565b5f60208201905061ceb05f83018461a765565b92915050565b5f8151905061cec481619b8f565b92915050565b5f6020828403121561cedf5761cede619b7e565b5b5f61ceec8482850161ceb6565b91505092915050565b5f61cf0761cf0284619da8565b619d82565b90508281526020810184848401111561cf235761cf22619da4565b5b61cf2e84828561a6f3565b509392505050565b5f82601f83011261cf4a5761cf49619da0565b5b815161cf5a84826020860161cef5565b91505092915050565b5f61cf7561cf708461a0c8565b619d82565b9050808382526020820190506020840283018581111561cf985761cf9761a0c4565b5b835b8181101561cfc1578061cfad888261ceb6565b84526020840193505060208101905061cf9a565b5050509392505050565b5f82601f83011261cfdf5761cfde619da0565b5b815161cfef84826020860161cf63565b91505092915050565b5f67ffffffffffffffff82111561d0125761d011619d24565b5b602082029050602081019050919050565b5f61d03561d0308461ac94565b619d82565b90508281526020810184848401111561d0515761d050619da4565b5b61d05c84828561a6f3565b509392505050565b5f82601f83011261d0785761d077619da0565b5b815161d08884826020860161d023565b91505092915050565b5f61d0a361d09e8461cff8565b619d82565b9050808382526020820190506020840283018581111561d0c65761d0c561a0c4565b5b835b8181101561d10d57805167ffffffffffffffff81111561d0eb5761d0ea619da0565b5b80860161d0f8898261d064565b8552602085019450505060208101905061d0c8565b5050509392505050565b5f82601f83011261d12b5761d12a619da0565b5b815161d13b84826020860161d091565b91505092915050565b5f8151905061d15281619c8f565b92915050565b61d16181619c32565b811461d16b575f80fd5b50565b5f8151905061d17c8161d158565b92915050565b5f610300828403121561d1985761d197619d10565b5b61d1a3610300619d82565b90505f82015167ffffffffffffffff81111561d1c25761d1c1619d9c565b5b61d1ce8482850161cf36565b5f83015250602061d1e18482850161ceb6565b602083015250604082015167ffffffffffffffff81111561d2055761d204619d9c565b5b61d2118482850161cf36565b604083015250606061d2258482850161ceb6565b606083015250608061d2398482850161ceb6565b60808301525060a061d24d8482850161ceb6565b60a08301525060c061d2618482850161ceb6565b60c08301525060e082015167ffffffffffffffff81111561d2855761d284619d9c565b5b61d2918482850161cfcb565b60e08301525061010082015167ffffffffffffffff81111561d2b65761d2b5619d9c565b5b61d2c28482850161d117565b6101008301525061012061d2d88482850161ceb6565b6101208301525061014061d2ee8482850161ceb6565b6101408301525061016082015167ffffffffffffffff81111561d3145761d313619d9c565b5b61d3208482850161d117565b6101608301525061018061d3368482850161d144565b610180830152506101a082015167ffffffffffffffff81111561d35c5761d35b619d9c565b5b61d3688482850161cf36565b6101a0830152506101c082015167ffffffffffffffff81111561d38e5761d38d619d9c565b5b61d39a8482850161cf36565b6101c0830152506101e061d3b08482850161d16e565b6101e08301525061020082015167ffffffffffffffff81111561d3d65761d3d5619d9c565b5b61d3e28482850161d117565b6102008301525061022082015167ffffffffffffffff81111561d4085761d407619d9c565b5b61d4148482850161cf36565b6102208301525061024061d42a8482850161ceb6565b6102408301525061026061d4408482850161ceb6565b6102608301525061028061d4568482850161ceb6565b610280830152506102a061d46c8482850161d16e565b6102a0830152506102c061d4828482850161d16e565b6102c0830152506102e061d4988482850161ceb6565b6102e08301525092915050565b5f6080828403121561d4ba5761d4b9619d10565b5b61d4c46080619d82565b90505f61d4d38482850161ceb6565b5f83015250602082015167ffffffffffffffff81111561d4f65761d4f5619d9c565b5b61d5028482850161d182565b602083015250604061d5168482850161ceb6565b604083015250606061d52a8482850161ceb6565b60608301525092915050565b5f6020828403121561d54b5761d54a619b7e565b5b5f82015167ffffffffffffffff81111561d5685761d567619b82565b5b61d5748482850161d4a5565b91505092915050565b5f60408201905061d5905f830185619be4565b61d59d602083018461a774565b9392505050565b5f8151905061d5b28161a1bc565b92915050565b5f60a0828403121561d5cd5761d5cc619d10565b5b61d5d760a0619d82565b90505f61d5e68482850161ceb6565b5f83015250602061d5f98482850161ceb6565b602083015250604061d60d8482850161ceb6565b604083015250606061d6218482850161ceb6565b606083015250608061d6358482850161ceb6565b60808301525092915050565b5f60c0828403121561d6565761d655619d10565b5b61d6606040619d82565b90505f61d66f8482850161d5a4565b5f83015250602061d6828482850161d5b8565b60208301525092915050565b5f60c0828403121561d6a35761d6a2619b7e565b5b5f61d6b08482850161d641565b91505092915050565b6002811061d6ca5761d6c961bd9c565b5b50565b5f81905061d6da8261d6b9565b919050565b5f61d6e98261d6cd565b9050919050565b61d6f98161d6df565b82525050565b5f60c08201905061d7125f830189619c23565b61d71f6020830188619be4565b61d72c6040830187619be4565b61d7396060830186619c23565b61d746608083018561d6f0565b61d75360a0830184619c3d565b979650505050505050565b7f7b2266726f6d223a202245636f6d4f726465722e736f6c222c22636f6465223a5f8201527f2031312c20226d657373616765223a224f726465722068617665206e6f20697460208201527f656d227d00000000000000000000000000000000000000000000000000000000604082015250565b5f61d7de60448361a6e3565b915061d7e98261d75e565b606082019050919050565b5f6020820190508181035f83015261d80b8161d7d2565b9050919050565b7f7b2266726f6d223a202245636f6d4f726465722e736f6c222c22636f6465223a5f8201527f2031312c20226d657373616765223a224f726465722068617665206d6178206960208201527f74656d227d000000000000000000000000000000000000000000000000000000604082015250565b5f61d89260458361a6e3565b915061d89d8261d812565b606082019050919050565b5f6020820190508181035f83015261d8bf8161d886565b9050919050565b5f6020828403121561d8db5761d8da619b7e565b5b5f61d8e88482850161d144565b91505092915050565b7f7b2266726f6d223a202245636f6d4f726465722e736f6c222c22636f6465223a5f8201527f2031322c20226d657373616765223a2255736572206e6f74206578697374227d602082015250565b5f61d94b60408361a6e3565b915061d9568261d8f1565b604082019050919050565b5f6020820190508181035f83015261d9788161d93f565b9050919050565b5f60808201905061d9925f830187619be4565b61d99f6020830186619be4565b61d9ac6040830185619c23565b61d9b96060830184619be4565b95945050505050565b7f7b2266726f6d223a202245636f6d50726f647563742e736f6c222c22636f64655f8201527f223a20313030332c20226d657373616765223a22496e76616c6964207368617260208201527f656c696e6b227d00000000000000000000000000000000000000000000000000604082015250565b5f61da4260478361a6e3565b915061da4d8261d9c2565b606082019050919050565b5f6020820190508181035f83015261da6f8161da36565b9050919050565b5f61da8082619b86565b915061da8b83619b86565b925082820390508181111561daa35761daa261c4c5565b5b92915050565b7f4e487b71000000000000000000000000000000000000000000000000000000005f52603160045260245ffd5b7f77726f6e67206f726465722049440000000000000000000000000000000000005f82015250565b5f61db0a600e8361a6e3565b915061db158261dad6565b602082019050919050565b5f6020820190508181035f83015261db378161dafe565b9050919050565b7f6e6f7420666f756e64206f7264657200000000000000000000000000000000005f82015250565b5f61db72600f8361a6e3565b915061db7d8261db3e565b602082019050919050565b5f6020820190508181035f83015261db9f8161db66565b9050919050565b7f7b2266726f6d223a202245636f6d50726f647563742e736f6c222c22636f64655f8201527f223a2031342c20226d657373616765223a2275706461746564207175616e746960208201527f7479206f662070726f64756374206d757374203e3d2030227d00000000000000604082015250565b5f61dc2660598361a6e3565b915061dc318261dba6565b606082019050919050565b5f6020820190508181035f83015261dc538161dc1a565b9050919050565b5f60808201905061dc6d5f830187619be4565b61dc7a602083018661a774565b61dc876040830185619be4565b61dc946060830184619be4565b95945050505050565b5f60408201905061dcb05f830185619c23565b61dcbd6020830184619be4565b9392505050565b604082015f82015161dcd85f85018261a4d7565b50602082015161dceb602085018261a4d7565b50505050565b5f6060820190508181035f83015261dd09818561a701565b905061dd18602083018461dcc4565b9392505050565b5f61dd298261a759565b915060ff820361dd3c5761dd3b61c4c5565b5b600182019050919050565b606082015f82015161dd5b5f85018261a9b4565b50602082015161dd6e602085018261a4d7565b50604082015161dd81604085018261a4e6565b50505050565b5f60808201905061dd9a5f830185619c23565b61dda7602083018461dd47565b9392505050565b5f82825260208201905092915050565b5f61ddc88261a864565b61ddd2818561ddae565b935061dddd8361a87e565b805f5b8381101561de0d57815161ddf4888261a88d565b975061ddff8361a8a4565b92505060018101905061dde0565b5085935050505092915050565b5f6020820190508181035f83015261de32818461ddbe565b905092915050565b5f67ffffffffffffffff82111561de545761de53619d24565b5b602082029050602081019050919050565b5f61de7761de728461de3a565b619d82565b9050808382526020820190506020840283018581111561de9a5761de9961a0c4565b5b835b8181101561dec3578061deaf888261d144565b84526020840193505060208101905061de9c565b5050509392505050565b5f82601f83011261dee15761dee0619da0565b5b815161def184826020860161de65565b91505092915050565b5f6020828403121561df0f5761df0e619b7e565b5b5f82015167ffffffffffffffff81111561df2c5761df2b619b82565b5b61df388482850161decd565b91505092915050565b5f81519050919050565b5f82825260208201905092915050565b5f819050602082019050919050565b5f61df75838361a4e6565b60208301905092915050565b5f602082019050919050565b5f61df978261df41565b61dfa1818561df4b565b935061dfac8361df5b565b805f5b8381101561dfdc57815161dfc3888261df6a565b975061dfce8361df81565b92505060018101905061dfaf565b5085935050505092915050565b5f60608201905061dffc5f830186619be4565b61e0096020830185619c23565b818103604083015261e01b818461df8d565b9050949350505050565b5f61e02f82619b86565b915061e03a83619b86565b925082820190508082111561e0525761e05161c4c5565b5b92915050565b7f7b2266726f6d223a202245636f6d50726f647563742e736f6c222c22636f64655f8201527f223a20313030322c20226d657373616765223a224f7264657220646f6573206e60208201527f6f7420657869737473227d000000000000000000000000000000000000000000604082015250565b5f61e0d8604b8361a6e3565b915061e0e38261e058565b606082019050919050565b5f6020820190508181035f83015261e1058161e0cc565b9050919050565b7f7b2266726f6d223a202245636f6d50726f647563742e736f6c222c22636f64655f8201527f223a20313030332c20226d657373616765223a22596f7520617265206e6f742060208201527f6f776e6572206f6620746865206f72646572227d000000000000000000000000604082015250565b5f61e18c60548361a6e3565b915061e1978261e10c565b606082019050919050565b5f6020820190508181035f83015261e1b98161e180565b9050919050565b7f7b2266726f6d223a202245636f6d50726f647563742e736f6c222c22636f64655f8201527f223a20313030332c20226d657373616765223a224f72646572206973206e6f7460208201527f2073746f72616765206f72646572227d00000000000000000000000000000000604082015250565b5f61e24060508361a6e3565b915061e24b8261e1c0565b606082019050919050565b5f6020820190508181035f83015261e26d8161e234565b9050919050565b7f6e6f7420656e6f756768207175616e7469747920696e20706172656e74206f725f8201527f6465720000000000000000000000000000000000000000000000000000000000602082015250565b5f61e2ce60238361a6e3565b915061e2d98261e274565b604082019050919050565b5f6020820190508181035f83015261e2fb8161e2c2565b9050919050565b7f70726f6475637420494420646f6573206e6f7420657869737420696e207061725f8201527f656e74206f726465720000000000000000000000000000000000000000000000602082015250565b5f61e35c60298361a6e3565b915061e3678261e302565b604082019050919050565b5f6020820190508181035f83015261e3898161e350565b9050919050565b7f4e487b71000000000000000000000000000000000000000000000000000000005f52601260045260245ffd5b7f7b2266726f6d223a202245636f6d50726f647563742e736f6c222c22636f64655f8201527f223a2031302c20226d657373616765223a225468652063617274206974656d2060208201527f646f6573206e6f7420657869737420696e207468652063617274227d00000000604082015250565b5f61e43d605c8361a6e3565b915061e4488261e3bd565b606082019050919050565b5f6020820190508181035f83015261e46a8161e431565b9050919050565b7f7b2266726f6d223a202245636f6d50726f647563742e736f6c222c22636f64655f8201527f223a2031312c20226d657373616765223a22496e646578206f7574206f66206260208201527f6f756e6473227d00000000000000000000000000000000000000000000000000604082015250565b5f61e4f160478361a6e3565b915061e4fc8261e471565b606082019050919050565b5f6020820190508181035f83015261e51e8161e4e5565b9050919050565b5f60808201905061e5385f830187619c23565b61e5456020830186619be4565b61e5526040830185619c23565b61e55f6060830184619c3d565b95945050505050565b7f7b2266726f6d223a202245636f6d50726f647563742e736f6c222c22636f64655f8201527f223a2031322c20226d657373616765223a224361727420697320616c7265616460208201527f7920656d707479227d0000000000000000000000000000000000000000000000604082015250565b5f61e5e860498361a6e3565b915061e5f38261e568565b606082019050919050565b5f6020820190508181035f83015261e6158161e5dc565b9050919050565b5f6020828403121561e6315761e630619b7e565b5b5f61e63e8482850161d16e565b91505092915050565b7f7b2266726f6d223a202245636f6d50726f647563742e736f6c222c22636f64655f8201527f223a2031332c20226d657373616765223a2022636172744974656d496420646f60208201527f6573206e6f7420657869737420696e207468652063617274227d000000000000604082015250565b5f61e6c7605a8361a6e3565b915061e6d28261e647565b606082019050919050565b5f6020820190508181035f83015261e6f48161e6bb565b9050919050565b7f7b2266726f6d223a202245636f6d50726f647563742e736f6c222c22636f64655f8201527f223a2031332c20226d657373616765223a202277726f6e67206469666650726960208201527f6365227d00000000000000000000000000000000000000000000000000000000604082015250565b5f61e77b60448361a6e3565b915061e7868261e6fb565b606082019050919050565b5f6020820190508181035f83015261e7a88161e76f565b9050919050565b5f61e7b982619b86565b915061e7c483619b86565b925082820261e7d281619b86565b9150828204841483151761e7e95761e7e861c4c5565b5b509291505056fe546869732070726f6475637420686173206e6f74206265656e20617070726f7665642e496e76616c6964207061796d656e7420747970652c207061796d656e7420747970652073686f756c64206d65206d6574616e6f6465526571756573746564207175616e74697479206578636565647320617661696c61626c652073746f636b50726f6475637420616e642076617269616e7420616c72656164792065786973747320696e2063617274496e73756666696369656e74207175616e7469747920617661696c61626c6520666f72207075726368617365a2646970667358221220afdb5e5af87deb6e3caa1e7481aa3de9462a966228e85bd41f467c52cd6725cd64736f6c634300081a0033",
			"opcodes": "PUSH1 0x80 PUSH1 0x40 MSTORE CALLER PUSH1 0x17 PUSH0 PUSH2 0x100 EXP DUP2 SLOAD DUP2 PUSH20 0xFFFFFFFFFFFFFFFFFFFFFFFFFFFFFFFFFFFFFFFF MUL NOT AND SWAP1 DUP4 PUSH20 0xFFFFFFFFFFFFFFFFFFFFFFFFFFFFFFFFFFFFFFFF AND MUL OR SWAP1 SSTORE POP PUSH2 0xE8FE DUP1 PUSH2 0x51 PUSH0 CODECOPY PUSH0 RETURN INVALID PUSH1 0x80 PUSH1 0x40 MSTORE CALLVALUE DUP1 ISZERO PUSH2 0xF JUMPI PUSH0 DUP1 REVERT JUMPDEST POP PUSH1 0x4 CALLDATASIZE LT PUSH2 0x33F JUMPI PUSH0 CALLDATALOAD PUSH1 0xE0 SHR DUP1 PUSH4 0x96E98874 GT PUSH2 0x1B6 JUMPI DUP1 PUSH4 0xCF991364 GT PUSH2 0x102 JUMPI DUP1 PUSH4 0xE5FC4AC2 GT PUSH2 0xA0 JUMPI DUP1 PUSH4 0xF894196E GT PUSH2 0x7A JUMPI DUP1 PUSH4 0xF894196E EQ PUSH2 0xBB3 JUMPI DUP1 PUSH4 0xFB08E12E EQ PUSH2 0xBCF JUMPI DUP1 PUSH4 0xFB7EF377 EQ PUSH2 0xBFF JUMPI DUP1 PUSH4 0xFFAFE929 EQ PUSH2 0xC1D JUMPI PUSH2 0x33F JUMP JUMPDEST DUP1 PUSH4 0xE5FC4AC2 EQ PUSH2 0xB47 JUMPI DUP1 PUSH4 0xEA68BA99 EQ PUSH2 0xB65 JUMPI DUP1 PUSH4 0xF29155EF EQ PUSH2 0xB95 JUMPI PUSH2 0x33F JUMP JUMPDEST DUP1 PUSH4 0xDA31F88A GT PUSH2 0xDC JUMPI DUP1 PUSH4 0xDA31F88A EQ PUSH2 0xA84 JUMPI DUP1 PUSH4 0xDDCD6408 EQ PUSH2 0xAB7 JUMPI DUP1 PUSH4 0xE217866C EQ PUSH2 0xAE7 JUMPI DUP1 PUSH4 0xE5E00E93 EQ PUSH2 0xB17 JUMPI PUSH2 0x33F JUMP JUMPDEST DUP1 PUSH4 0xCF991364 EQ PUSH2 0xA08 JUMPI DUP1 PUSH4 0xD09EF241 EQ PUSH2 0xA24 JUMPI DUP1 PUSH4 0xD71F8181 EQ PUSH2 0xA54 JUMPI PUSH2 0x33F JUMP JUMPDEST DUP1 PUSH4 0xAB238F1F GT PUSH2 0x16F JUMPI DUP1 PUSH4 0xC006E9A9 GT PUSH2 0x149 JUMPI DUP1 PUSH4 0xC006E9A9 EQ PUSH2 0x958 JUMPI DUP1 PUSH4 0xC54E44EB EQ PUSH2 0x988 JUMPI DUP1 PUSH4 0xCAC0E650 EQ PUSH2 0x9A6 JUMPI DUP1 PUSH4 0xCF9796EC EQ PUSH2 0x9D6 JUMPI PUSH2 0x33F JUMP JUMPDEST DUP1 PUSH4 0xAB238F1F EQ PUSH2 0x8DA JUMPI DUP1 PUSH4 0xB814F77B EQ PUSH2 0x90A JUMPI DUP1 PUSH4 0xBFBE3EF7 EQ PUSH2 0x928 JUMPI PUSH2 0x33F JUMP JUMPDEST DUP1 PUSH4 0x96E98874 EQ PUSH2 0x7CB JUMPI DUP1 PUSH4 0x9A377A37 EQ PUSH2 0x7FC JUMPI DUP1 PUSH4 0xA354F1B2 EQ PUSH2 0x82C JUMPI DUP1 PUSH4 0xA4E176EA EQ PUSH2 0x84A JUMPI DUP1 PUSH4 0xA559934E EQ PUSH2 0x87A JUMPI DUP1 PUSH4 0xA875588D EQ PUSH2 0x8AA JUMPI PUSH2 0x33F JUMP JUMPDEST DUP1 PUSH4 0x4B5BA409 GT PUSH2 0x290 JUMPI DUP1 PUSH4 0x76D6E7EF GT PUSH2 0x22E JUMPI DUP1 PUSH4 0x86CB0D92 GT PUSH2 0x208 JUMPI DUP1 PUSH4 0x86CB0D92 EQ PUSH2 0x71D JUMPI DUP1 PUSH4 0x8A8869E2 EQ PUSH2 0x74D JUMPI DUP1 PUSH4 0x8DA5CB5B EQ PUSH2 0x77D JUMPI DUP1 PUSH4 0x93C26229 EQ PUSH2 0x79B JUMPI PUSH2 0x33F JUMP JUMPDEST DUP1 PUSH4 0x76D6E7EF EQ PUSH2 0x68D JUMPI DUP1 PUSH4 0x7CE47345 EQ PUSH2 0x6BD JUMPI DUP1 PUSH4 0x834F9ED3 EQ PUSH2 0x6ED JUMPI PUSH2 0x33F JUMP JUMPDEST DUP1 PUSH4 0x5A7F48F8 GT PUSH2 0x26A JUMPI DUP1 PUSH4 0x5A7F48F8 EQ PUSH2 0x5CD JUMPI DUP1 PUSH4 0x62DE6230 EQ PUSH2 0x5FD JUMPI DUP1 PUSH4 0x63C69F08 EQ PUSH2 0x62D JUMPI DUP1 PUSH4 0x664008F8 EQ PUSH2 0x65D JUMPI PUSH2 0x33F JUMP JUMPDEST DUP1 PUSH4 0x4B5BA409 EQ PUSH2 0x563 JUMPI DUP1 PUSH4 0x4D5C5FD7 EQ PUSH2 0x593 JUMPI DUP1 PUSH4 0x4E8781CD EQ PUSH2 0x5B1 JUMPI PUSH2 0x33F JUMP JUMPDEST DUP1 PUSH4 0x2D8206FE GT PUSH2 0x2FD JUMPI DUP1 PUSH4 0x30D51A32 GT PUSH2 0x2D7 JUMPI DUP1 PUSH4 0x30D51A32 EQ PUSH2 0x4C7 JUMPI DUP1 PUSH4 0x399CFA1E EQ PUSH2 0x4F7 JUMPI DUP1 PUSH4 0x44D80330 EQ PUSH2 0x527 JUMPI DUP1 PUSH4 0x46E115C0 EQ PUSH2 0x545 JUMPI PUSH2 0x33F JUMP JUMPDEST DUP1 PUSH4 0x2D8206FE EQ PUSH2 0x452 JUMPI DUP1 PUSH4 0x2E2DC43E EQ PUSH2 0x48D JUMPI DUP1 PUSH4 0x30BF6522 EQ PUSH2 0x4AB JUMPI PUSH2 0x33F JUMP JUMPDEST DUP1 PUSH3 0xE6AF7F EQ PUSH2 0x343 JUMPI DUP1 PUSH4 0x2B572D6 EQ PUSH2 0x376 JUMPI DUP1 PUSH4 0x40F1D72 EQ PUSH2 0x3A6 JUMPI DUP1 PUSH4 0x8A53B21 EQ PUSH2 0x3C2 JUMPI DUP1 PUSH4 0x1FDA90A2 EQ PUSH2 0x3F2 JUMPI DUP1 PUSH4 0x2248632A EQ PUSH2 0x422 JUMPI JUMPDEST PUSH0 DUP1 REVERT JUMPDEST PUSH2 0x35D PUSH1 0x4 DUP1 CALLDATASIZE SUB DUP2 ADD SWAP1 PUSH2 0x358 SWAP2 SWAP1 PUSH2 0x9BB9 JUMP JUMPDEST PUSH2 0xC4D JUMP JUMPDEST PUSH1 0x40 MLOAD PUSH2 0x36D SWAP5 SWAP4 SWAP3 SWAP2 SWAP1 PUSH2 0x9C4C JUMP JUMPDEST PUSH1 0x40 MLOAD DUP1 SWAP2 SUB SWAP1 RETURN JUMPDEST PUSH2 0x390 PUSH1 0x4 DUP1 CALLDATASIZE SUB DUP2 ADD SWAP1 PUSH2 0x38B SWAP2 SWAP1 PUSH2 0x9CB9 JUMP JUMPDEST PUSH2 0xCA5 JUMP JUMPDEST PUSH1 0x40 MLOAD PUSH2 0x39D SWAP2 SWAP1 PUSH2 0x9CF7 JUMP JUMPDEST PUSH1 0x40 MLOAD DUP1 SWAP2 SUB SWAP1 RETURN JUMPDEST PUSH2 0x3C0 PUSH1 0x4 DUP1 CALLDATASIZE SUB DUP2 ADD SWAP1 PUSH2 0x3BB SWAP2 SWAP1 PUSH2 0xA02D JUMP JUMPDEST PUSH2 0xCD0 JUMP JUMPDEST STOP JUMPDEST PUSH2 0x3DC PUSH1 0x4 DUP1 CALLDATASIZE SUB DUP2 ADD SWAP1 PUSH2 0x3D7 SWAP2 SWAP1 PUSH2 0xA427 JUMP JUMPDEST PUSH2 0xF56 JUMP JUMPDEST PUSH1 0x40 MLOAD PUSH2 0x3E9 SWAP2 SWAP1 PUSH2 0xA493 JUMP JUMPDEST PUSH1 0x40 MLOAD DUP1 SWAP2 SUB SWAP1 RETURN JUMPDEST PUSH2 0x40C PUSH1 0x4 DUP1 CALLDATASIZE SUB DUP2 ADD SWAP1 PUSH2 0x407 SWAP2 SWAP1 PUSH2 0xA4AC JUMP JUMPDEST PUSH2 0x1170 JUMP JUMPDEST PUSH1 0x40 MLOAD PUSH2 0x419 SWAP2 SWAP1 PUSH2 0xA65F JUMP JUMPDEST PUSH1 0x40 MLOAD DUP1 SWAP2 SUB SWAP1 RETURN JUMPDEST PUSH2 0x43C PUSH1 0x4 DUP1 CALLDATASIZE SUB DUP2 ADD SWAP1 PUSH2 0x437 SWAP2 SWAP1 PUSH2 0xA67F JUMP JUMPDEST PUSH2 0x12B1 JUMP JUMPDEST PUSH1 0x40 MLOAD PUSH2 0x449 SWAP2 SWAP1 PUSH2 0xA739 JUMP JUMPDEST PUSH1 0x40 MLOAD DUP1 SWAP2 SUB SWAP1 RETURN JUMPDEST PUSH2 0x46C PUSH1 0x4 DUP1 CALLDATASIZE SUB DUP2 ADD SWAP1 PUSH2 0x467 SWAP2 SWAP1 PUSH2 0x9BB9 JUMP JUMPDEST PUSH2 0x12EA JUMP JUMPDEST PUSH1 0x40 MLOAD PUSH2 0x484 SWAP13 SWAP12 SWAP11 SWAP10 SWAP9 SWAP8 SWAP7 SWAP6 SWAP5 SWAP4 SWAP3 SWAP2 SWAP1 PUSH2 0xA783 JUMP JUMPDEST PUSH1 0x40 MLOAD DUP1 SWAP2 SUB SWAP1 RETURN JUMPDEST PUSH2 0x495 PUSH2 0x13A9 JUMP JUMPDEST PUSH1 0x40 MLOAD PUSH2 0x4A2 SWAP2 SWAP1 PUSH2 0xAC13 JUMP JUMPDEST PUSH1 0x40 MLOAD DUP1 SWAP2 SUB SWAP1 RETURN JUMPDEST PUSH2 0x4C5 PUSH1 0x4 DUP1 CALLDATASIZE SUB DUP2 ADD SWAP1 PUSH2 0x4C0 SWAP2 SWAP1 PUSH2 0xAC56 JUMP JUMPDEST PUSH2 0x181B JUMP JUMPDEST STOP JUMPDEST PUSH2 0x4E1 PUSH1 0x4 DUP1 CALLDATASIZE SUB DUP2 ADD SWAP1 PUSH2 0x4DC SWAP2 SWAP1 PUSH2 0xAD32 JUMP JUMPDEST PUSH2 0x1B7B JUMP JUMPDEST PUSH1 0x40 MLOAD PUSH2 0x4EE SWAP2 SWAP1 PUSH2 0xA493 JUMP JUMPDEST PUSH1 0x40 MLOAD DUP1 SWAP2 SUB SWAP1 RETURN JUMPDEST PUSH2 0x511 PUSH1 0x4 DUP1 CALLDATASIZE SUB DUP2 ADD SWAP1 PUSH2 0x50C SWAP2 SWAP1 PUSH2 0xAD79 JUMP JUMPDEST PUSH2 0x1C0D JUMP JUMPDEST PUSH1 0x40 MLOAD PUSH2 0x51E SWAP2 SWAP1 PUSH2 0xAE2F JUMP JUMPDEST PUSH1 0x40 MLOAD DUP1 SWAP2 SUB SWAP1 RETURN JUMPDEST PUSH2 0x52F PUSH2 0x236D JUMP JUMPDEST PUSH1 0x40 MLOAD PUSH2 0x53C SWAP2 SWAP1 PUSH2 0xA65F JUMP JUMPDEST PUSH1 0x40 MLOAD DUP1 SWAP2 SUB SWAP1 RETURN JUMPDEST PUSH2 0x54D PUSH2 0x24AC JUMP JUMPDEST PUSH1 0x40 MLOAD PUSH2 0x55A SWAP2 SWAP1 PUSH2 0xB0C8 JUMP JUMPDEST PUSH1 0x40 MLOAD DUP1 SWAP2 SUB SWAP1 RETURN JUMPDEST PUSH2 0x57D PUSH1 0x4 DUP1 CALLDATASIZE SUB DUP2 ADD SWAP1 PUSH2 0x578 SWAP2 SWAP1 PUSH2 0xA4AC JUMP JUMPDEST PUSH2 0x283E JUMP JUMPDEST PUSH1 0x40 MLOAD PUSH2 0x58A SWAP2 SWAP1 PUSH2 0xA493 JUMP JUMPDEST PUSH1 0x40 MLOAD DUP1 SWAP2 SUB SWAP1 RETURN JUMPDEST PUSH2 0x59B PUSH2 0x2919 JUMP JUMPDEST PUSH1 0x40 MLOAD PUSH2 0x5A8 SWAP2 SWAP1 PUSH2 0xB143 JUMP JUMPDEST PUSH1 0x40 MLOAD DUP1 SWAP2 SUB SWAP1 RETURN JUMPDEST PUSH2 0x5CB PUSH1 0x4 DUP1 CALLDATASIZE SUB DUP2 ADD SWAP1 PUSH2 0x5C6 SWAP2 SWAP1 PUSH2 0x9BB9 JUMP JUMPDEST PUSH2 0x293E JUMP JUMPDEST STOP JUMPDEST PUSH2 0x5E7 PUSH1 0x4 DUP1 CALLDATASIZE SUB DUP2 ADD SWAP1 PUSH2 0x5E2 SWAP2 SWAP1 PUSH2 0x9CB9 JUMP JUMPDEST PUSH2 0x294B JUMP JUMPDEST PUSH1 0x40 MLOAD PUSH2 0x5F4 SWAP2 SWAP1 PUSH2 0x9CF7 JUMP JUMPDEST PUSH1 0x40 MLOAD DUP1 SWAP2 SUB SWAP1 RETURN JUMPDEST PUSH2 0x617 PUSH1 0x4 DUP1 CALLDATASIZE SUB DUP2 ADD SWAP1 PUSH2 0x612 SWAP2 SWAP1 PUSH2 0xA4AC JUMP JUMPDEST PUSH2 0x2976 JUMP JUMPDEST PUSH1 0x40 MLOAD PUSH2 0x624 SWAP2 SWAP1 PUSH2 0xA493 JUMP JUMPDEST PUSH1 0x40 MLOAD DUP1 SWAP2 SUB SWAP1 RETURN JUMPDEST PUSH2 0x647 PUSH1 0x4 DUP1 CALLDATASIZE SUB DUP2 ADD SWAP1 PUSH2 0x642 SWAP2 SWAP1 PUSH2 0xA4AC JUMP JUMPDEST PUSH2 0x2A51 JUMP JUMPDEST PUSH1 0x40 MLOAD PUSH2 0x654 SWAP2 SWAP1 PUSH2 0xAC13 JUMP JUMPDEST PUSH1 0x40 MLOAD DUP1 SWAP2 SUB SWAP1 RETURN JUMPDEST PUSH2 0x677 PUSH1 0x4 DUP1 CALLDATASIZE SUB DUP2 ADD SWAP1 PUSH2 0x672 SWAP2 SWAP1 PUSH2 0xA4AC JUMP JUMPDEST PUSH2 0x2F49 JUMP JUMPDEST PUSH1 0x40 MLOAD PUSH2 0x684 SWAP2 SWAP1 PUSH2 0xB15C JUMP JUMPDEST PUSH1 0x40 MLOAD DUP1 SWAP2 SUB SWAP1 RETURN JUMPDEST PUSH2 0x6A7 PUSH1 0x4 DUP1 CALLDATASIZE SUB DUP2 ADD SWAP1 PUSH2 0x6A2 SWAP2 SWAP1 PUSH2 0xB491 JUMP JUMPDEST PUSH2 0x2F5E JUMP JUMPDEST PUSH1 0x40 MLOAD PUSH2 0x6B4 SWAP2 SWAP1 PUSH2 0xB15C JUMP JUMPDEST PUSH1 0x40 MLOAD DUP1 SWAP2 SUB SWAP1 RETURN JUMPDEST PUSH2 0x6D7 PUSH1 0x4 DUP1 CALLDATASIZE SUB DUP2 ADD SWAP1 PUSH2 0x6D2 SWAP2 SWAP1 PUSH2 0xB519 JUMP JUMPDEST PUSH2 0x3712 JUMP JUMPDEST PUSH1 0x40 MLOAD PUSH2 0x6E4 SWAP2 SWAP1 PUSH2 0xAE2F JUMP JUMPDEST PUSH1 0x40 MLOAD DUP1 SWAP2 SUB SWAP1 RETURN JUMPDEST PUSH2 0x707 PUSH1 0x4 DUP1 CALLDATASIZE SUB DUP2 ADD SWAP1 PUSH2 0x702 SWAP2 SWAP1 PUSH2 0x9BB9 JUMP JUMPDEST PUSH2 0x3B29 JUMP JUMPDEST PUSH1 0x40 MLOAD PUSH2 0x714 SWAP2 SWAP1 PUSH2 0xB6F9 JUMP JUMPDEST PUSH1 0x40 MLOAD DUP1 SWAP2 SUB SWAP1 RETURN JUMPDEST PUSH2 0x737 PUSH1 0x4 DUP1 CALLDATASIZE SUB DUP2 ADD SWAP1 PUSH2 0x732 SWAP2 SWAP1 PUSH2 0xB719 JUMP JUMPDEST PUSH2 0x40F1 JUMP JUMPDEST PUSH1 0x40 MLOAD PUSH2 0x744 SWAP2 SWAP1 PUSH2 0xA493 JUMP JUMPDEST PUSH1 0x40 MLOAD DUP1 SWAP2 SUB SWAP1 RETURN JUMPDEST PUSH2 0x767 PUSH1 0x4 DUP1 CALLDATASIZE SUB DUP2 ADD SWAP1 PUSH2 0x762 SWAP2 SWAP1 PUSH2 0xA4AC JUMP JUMPDEST PUSH2 0x413B JUMP JUMPDEST PUSH1 0x40 MLOAD PUSH2 0x774 SWAP2 SWAP1 PUSH2 0xA493 JUMP JUMPDEST PUSH1 0x40 MLOAD DUP1 SWAP2 SUB SWAP1 RETURN JUMPDEST PUSH2 0x785 PUSH2 0x4216 JUMP JUMPDEST PUSH1 0x40 MLOAD PUSH2 0x792 SWAP2 SWAP1 PUSH2 0xB760 JUMP JUMPDEST PUSH1 0x40 MLOAD DUP1 SWAP2 SUB SWAP1 RETURN JUMPDEST PUSH2 0x7B5 PUSH1 0x4 DUP1 CALLDATASIZE SUB DUP2 ADD SWAP1 PUSH2 0x7B0 SWAP2 SWAP1 PUSH2 0xB89A JUMP JUMPDEST PUSH2 0x423B JUMP JUMPDEST PUSH1 0x40 MLOAD PUSH2 0x7C2 SWAP2 SWAP1 PUSH2 0xB94D JUMP JUMPDEST PUSH1 0x40 MLOAD DUP1 SWAP2 SUB SWAP1 RETURN JUMPDEST PUSH2 0x7E5 PUSH1 0x4 DUP1 CALLDATASIZE SUB DUP2 ADD SWAP1 PUSH2 0x7E0 SWAP2 SWAP1 PUSH2 0xA4AC JUMP JUMPDEST PUSH2 0x4339 JUMP JUMPDEST PUSH1 0x40 MLOAD PUSH2 0x7F3 SWAP3 SWAP2 SWAP1 PUSH2 0xB96D JUMP JUMPDEST PUSH1 0x40 MLOAD DUP1 SWAP2 SUB SWAP1 RETURN JUMPDEST PUSH2 0x816 PUSH1 0x4 DUP1 CALLDATASIZE SUB DUP2 ADD SWAP1 PUSH2 0x811 SWAP2 SWAP1 PUSH2 0xA4AC JUMP JUMPDEST PUSH2 0x4377 JUMP JUMPDEST PUSH1 0x40 MLOAD PUSH2 0x823 SWAP2 SWAP1 PUSH2 0xA493 JUMP JUMPDEST PUSH1 0x40 MLOAD DUP1 SWAP2 SUB SWAP1 RETURN JUMPDEST PUSH2 0x834 PUSH2 0x4452 JUMP JUMPDEST PUSH1 0x40 MLOAD PUSH2 0x841 SWAP2 SWAP1 PUSH2 0xB9B4 JUMP JUMPDEST PUSH1 0x40 MLOAD DUP1 SWAP2 SUB SWAP1 RETURN JUMPDEST PUSH2 0x864 PUSH1 0x4 DUP1 CALLDATASIZE SUB DUP2 ADD SWAP1 PUSH2 0x85F SWAP2 SWAP1 PUSH2 0xB719 JUMP JUMPDEST PUSH2 0x4477 JUMP JUMPDEST PUSH1 0x40 MLOAD PUSH2 0x871 SWAP2 SWAP1 PUSH2 0xA493 JUMP JUMPDEST PUSH1 0x40 MLOAD DUP1 SWAP2 SUB SWAP1 RETURN JUMPDEST PUSH2 0x894 PUSH1 0x4 DUP1 CALLDATASIZE SUB DUP2 ADD SWAP1 PUSH2 0x88F SWAP2 SWAP1 PUSH2 0xA4AC JUMP JUMPDEST PUSH2 0x44BE JUMP JUMPDEST PUSH1 0x40 MLOAD PUSH2 0x8A1 SWAP2 SWAP1 PUSH2 0xA493 JUMP JUMPDEST PUSH1 0x40 MLOAD DUP1 SWAP2 SUB SWAP1 RETURN JUMPDEST PUSH2 0x8C4 PUSH1 0x4 DUP1 CALLDATASIZE SUB DUP2 ADD SWAP1 PUSH2 0x8BF SWAP2 SWAP1 PUSH2 0xB9CD JUMP JUMPDEST PUSH2 0x4599 JUMP JUMPDEST PUSH1 0x40 MLOAD PUSH2 0x8D1 SWAP2 SWAP1 PUSH2 0x9CF7 JUMP JUMPDEST PUSH1 0x40 MLOAD DUP1 SWAP2 SUB SWAP1 RETURN JUMPDEST PUSH2 0x8F4 PUSH1 0x4 DUP1 CALLDATASIZE SUB DUP2 ADD SWAP1 PUSH2 0x8EF SWAP2 SWAP1 PUSH2 0xBA27 JUMP JUMPDEST PUSH2 0x4828 JUMP JUMPDEST PUSH1 0x40 MLOAD PUSH2 0x901 SWAP2 SWAP1 PUSH2 0xBC10 JUMP JUMPDEST PUSH1 0x40 MLOAD DUP1 SWAP2 SUB SWAP1 RETURN JUMPDEST PUSH2 0x912 PUSH2 0x4C08 JUMP JUMPDEST PUSH1 0x40 MLOAD PUSH2 0x91F SWAP2 SWAP1 PUSH2 0xBC50 JUMP JUMPDEST PUSH1 0x40 MLOAD DUP1 SWAP2 SUB SWAP1 RETURN JUMPDEST PUSH2 0x942 PUSH1 0x4 DUP1 CALLDATASIZE SUB DUP2 ADD SWAP1 PUSH2 0x93D SWAP2 SWAP1 PUSH2 0x9BB9 JUMP JUMPDEST PUSH2 0x4C2D JUMP JUMPDEST PUSH1 0x40 MLOAD PUSH2 0x94F SWAP2 SWAP1 PUSH2 0x9CF7 JUMP JUMPDEST PUSH1 0x40 MLOAD DUP1 SWAP2 SUB SWAP1 RETURN JUMPDEST PUSH2 0x972 PUSH1 0x4 DUP1 CALLDATASIZE SUB DUP2 ADD SWAP1 PUSH2 0x96D SWAP2 SWAP1 PUSH2 0x9BB9 JUMP JUMPDEST PUSH2 0x4C42 JUMP JUMPDEST PUSH1 0x40 MLOAD PUSH2 0x97F SWAP2 SWAP1 PUSH2 0xA493 JUMP JUMPDEST PUSH1 0x40 MLOAD DUP1 SWAP2 SUB SWAP1 RETURN JUMPDEST PUSH2 0x990 PUSH2 0x4FDC JUMP JUMPDEST PUSH1 0x40 MLOAD PUSH2 0x99D SWAP2 SWAP1 PUSH2 0xBC89 JUMP JUMPDEST PUSH1 0x40 MLOAD DUP1 SWAP2 SUB SWAP1 RETURN JUMPDEST PUSH2 0x9C0 PUSH1 0x4 DUP1 CALLDATASIZE SUB DUP2 ADD SWAP1 PUSH2 0x9BB SWAP2 SWAP1 PUSH2 0xA4AC JUMP JUMPDEST PUSH2 0x5001 JUMP JUMPDEST PUSH1 0x40 MLOAD PUSH2 0x9CD SWAP2 SWAP1 PUSH2 0xA493 JUMP JUMPDEST PUSH1 0x40 MLOAD DUP1 SWAP2 SUB SWAP1 RETURN JUMPDEST PUSH2 0x9F0 PUSH1 0x4 DUP1 CALLDATASIZE SUB DUP2 ADD SWAP1 PUSH2 0x9EB SWAP2 SWAP1 PUSH2 0x9BB9 JUMP JUMPDEST PUSH2 0x50DC JUMP JUMPDEST PUSH1 0x40 MLOAD PUSH2 0x9FF SWAP4 SWAP3 SWAP2 SWAP1 PUSH2 0xBEA8 JUMP JUMPDEST PUSH1 0x40 MLOAD DUP1 SWAP2 SUB SWAP1 RETURN JUMPDEST PUSH2 0xA22 PUSH1 0x4 DUP1 CALLDATASIZE SUB DUP2 ADD SWAP1 PUSH2 0xA1D SWAP2 SWAP1 PUSH2 0xBF6D JUMP JUMPDEST PUSH2 0x56CE JUMP JUMPDEST STOP JUMPDEST PUSH2 0xA3E PUSH1 0x4 DUP1 CALLDATASIZE SUB DUP2 ADD SWAP1 PUSH2 0xA39 SWAP2 SWAP1 PUSH2 0x9BB9 JUMP JUMPDEST PUSH2 0x57D1 JUMP JUMPDEST PUSH1 0x40 MLOAD PUSH2 0xA4B SWAP2 SWAP1 PUSH2 0xBC10 JUMP JUMPDEST PUSH1 0x40 MLOAD DUP1 SWAP2 SUB SWAP1 RETURN JUMPDEST PUSH2 0xA6E PUSH1 0x4 DUP1 CALLDATASIZE SUB DUP2 ADD SWAP1 PUSH2 0xA69 SWAP2 SWAP1 PUSH2 0x9BB9 JUMP JUMPDEST PUSH2 0x5B9B JUMP JUMPDEST PUSH1 0x40 MLOAD PUSH2 0xA7B SWAP2 SWAP1 PUSH2 0xC00B JUMP JUMPDEST PUSH1 0x40 MLOAD DUP1 SWAP2 SUB SWAP1 RETURN JUMPDEST PUSH2 0xA9E PUSH1 0x4 DUP1 CALLDATASIZE SUB DUP2 ADD SWAP1 PUSH2 0xA99 SWAP2 SWAP1 PUSH2 0x9BB9 JUMP JUMPDEST PUSH2 0x5E06 JUMP JUMPDEST PUSH1 0x40 MLOAD PUSH2 0xAAE SWAP5 SWAP4 SWAP3 SWAP2 SWAP1 PUSH2 0xC02B JUMP JUMPDEST PUSH1 0x40 MLOAD DUP1 SWAP2 SUB SWAP1 RETURN JUMPDEST PUSH2 0xAD1 PUSH1 0x4 DUP1 CALLDATASIZE SUB DUP2 ADD SWAP1 PUSH2 0xACC SWAP2 SWAP1 PUSH2 0xA4AC JUMP JUMPDEST PUSH2 0x636B JUMP JUMPDEST PUSH1 0x40 MLOAD PUSH2 0xADE SWAP2 SWAP1 PUSH2 0xA493 JUMP JUMPDEST PUSH1 0x40 MLOAD DUP1 SWAP2 SUB SWAP1 RETURN JUMPDEST PUSH2 0xB01 PUSH1 0x4 DUP1 CALLDATASIZE SUB DUP2 ADD SWAP1 PUSH2 0xAFC SWAP2 SWAP1 PUSH2 0x9BB9 JUMP JUMPDEST PUSH2 0x6446 JUMP JUMPDEST PUSH1 0x40 MLOAD PUSH2 0xB0E SWAP2 SWAP1 PUSH2 0xC318 JUMP JUMPDEST PUSH1 0x40 MLOAD DUP1 SWAP2 SUB SWAP1 RETURN JUMPDEST PUSH2 0xB31 PUSH1 0x4 DUP1 CALLDATASIZE SUB DUP2 ADD SWAP1 PUSH2 0xB2C SWAP2 SWAP1 PUSH2 0xA4AC JUMP JUMPDEST PUSH2 0x6BDC JUMP JUMPDEST PUSH1 0x40 MLOAD PUSH2 0xB3E SWAP2 SWAP1 PUSH2 0xB0C8 JUMP JUMPDEST PUSH1 0x40 MLOAD DUP1 SWAP2 SUB SWAP1 RETURN JUMPDEST PUSH2 0xB4F PUSH2 0x6F70 JUMP JUMPDEST PUSH1 0x40 MLOAD PUSH2 0xB5C SWAP2 SWAP1 PUSH2 0xC358 JUMP JUMPDEST PUSH1 0x40 MLOAD DUP1 SWAP2 SUB SWAP1 RETURN JUMPDEST PUSH2 0xB7F PUSH1 0x4 DUP1 CALLDATASIZE SUB DUP2 ADD SWAP1 PUSH2 0xB7A SWAP2 SWAP1 PUSH2 0x9CB9 JUMP JUMPDEST PUSH2 0x6F95 JUMP JUMPDEST PUSH1 0x40 MLOAD PUSH2 0xB8C SWAP2 SWAP1 PUSH2 0x9CF7 JUMP JUMPDEST PUSH1 0x40 MLOAD DUP1 SWAP2 SUB SWAP1 RETURN JUMPDEST PUSH2 0xB9D PUSH2 0x6FC0 JUMP JUMPDEST PUSH1 0x40 MLOAD PUSH2 0xBAA SWAP2 SWAP1 PUSH2 0xB760 JUMP JUMPDEST PUSH1 0x40 MLOAD DUP1 SWAP2 SUB SWAP1 RETURN JUMPDEST PUSH2 0xBCD PUSH1 0x4 DUP1 CALLDATASIZE SUB DUP2 ADD SWAP1 PUSH2 0xBC8 SWAP2 SWAP1 PUSH2 0xBA27 JUMP JUMPDEST PUSH2 0x6FE5 JUMP JUMPDEST STOP JUMPDEST PUSH2 0xBE9 PUSH1 0x4 DUP1 CALLDATASIZE SUB DUP2 ADD SWAP1 PUSH2 0xBE4 SWAP2 SWAP1 PUSH2 0xBA27 JUMP JUMPDEST PUSH2 0x7CC7 JUMP JUMPDEST PUSH1 0x40 MLOAD PUSH2 0xBF6 SWAP2 SWAP1 PUSH2 0x9CF7 JUMP JUMPDEST PUSH1 0x40 MLOAD DUP1 SWAP2 SUB SWAP1 RETURN JUMPDEST PUSH2 0xC07 PUSH2 0x7CE1 JUMP JUMPDEST PUSH1 0x40 MLOAD PUSH2 0xC14 SWAP2 SWAP1 PUSH2 0xB760 JUMP JUMPDEST PUSH1 0x40 MLOAD DUP1 SWAP2 SUB SWAP1 RETURN JUMPDEST PUSH2 0xC37 PUSH1 0x4 DUP1 CALLDATASIZE SUB DUP2 ADD SWAP1 PUSH2 0xC32 SWAP2 SWAP1 PUSH2 0xC47E JUMP JUMPDEST PUSH2 0x7D06 JUMP JUMPDEST PUSH1 0x40 MLOAD PUSH2 0xC44 SWAP2 SWAP1 PUSH2 0xB94D JUMP JUMPDEST PUSH1 0x40 MLOAD DUP1 SWAP2 SUB SWAP1 RETURN JUMPDEST PUSH1 0x7 PUSH1 0x20 MSTORE DUP1 PUSH0 MSTORE PUSH1 0x40 PUSH0 KECCAK256 PUSH0 SWAP2 POP SWAP1 POP DUP1 PUSH0 ADD SLOAD SWAP1 DUP1 PUSH1 0x2 ADD PUSH0 SWAP1 SLOAD SWAP1 PUSH2 0x100 EXP SWAP1 DIV PUSH20 0xFFFFFFFFFFFFFFFFFFFFFFFFFFFFFFFFFFFFFFFF AND SWAP1 DUP1 PUSH1 0x2 ADD PUSH1 0x14 SWAP1 SLOAD SWAP1 PUSH2 0x100 EXP SWAP1 DIV PUSH1 0xFF AND SWAP1 DUP1 PUSH1 0x3 ADD SLOAD SWAP1 POP DUP5 JUMP JUMPDEST PUSH1 0xB PUSH1 0x20 MSTORE DUP2 PUSH0 MSTORE PUSH1 0x40 PUSH0 KECCAK256 DUP2 DUP2 SLOAD DUP2 LT PUSH2 0xCBE JUMPI PUSH0 DUP1 REVERT JUMPDEST SWAP1 PUSH0 MSTORE PUSH1 0x20 PUSH0 KECCAK256 ADD PUSH0 SWAP2 POP SWAP2 POP POP SLOAD DUP2 JUMP JUMPDEST PUSH1 0xD PUSH0 DUP2 SLOAD DUP1 SWAP3 SWAP2 SWAP1 PUSH2 0xCE2 SWAP1 PUSH2 0xC4F2 JUMP JUMPDEST SWAP2 SWAP1 POP SSTORE POP PUSH0 PUSH1 0x40 MLOAD DUP1 PUSH1 0x80 ADD PUSH1 0x40 MSTORE DUP1 PUSH1 0xD SLOAD DUP2 MSTORE PUSH1 0x20 ADD DUP5 DUP2 MSTORE PUSH1 0x20 ADD DUP4 PUSH20 0xFFFFFFFFFFFFFFFFFFFFFFFFFFFFFFFFFFFFFFFF AND DUP2 MSTORE PUSH1 0x20 ADD DUP6 DUP2 MSTORE POP SWAP1 POP DUP1 PUSH1 0x9 PUSH0 PUSH1 0xD SLOAD DUP2 MSTORE PUSH1 0x20 ADD SWAP1 DUP2 MSTORE PUSH1 0x20 ADD PUSH0 KECCAK256 PUSH0 DUP3 ADD MLOAD DUP2 PUSH0 ADD SSTORE PUSH1 0x20 DUP3 ADD MLOAD DUP2 PUSH1 0x1 ADD SSTORE PUSH1 0x40 DUP3 ADD MLOAD DUP2 PUSH1 0x2 ADD PUSH0 PUSH2 0x100 EXP DUP2 SLOAD DUP2 PUSH20 0xFFFFFFFFFFFFFFFFFFFFFFFFFFFFFFFFFFFFFFFF MUL NOT AND SWAP1 DUP4 PUSH20 0xFFFFFFFFFFFFFFFFFFFFFFFFFFFFFFFFFFFFFFFF AND MUL OR SWAP1 SSTORE POP PUSH1 0x60 DUP3 ADD MLOAD DUP2 PUSH1 0x3 ADD PUSH0 DUP3 ADD MLOAD DUP2 PUSH0 ADD SWAP1 DUP2 PUSH2 0xDAB SWAP2 SWAP1 PUSH2 0xC72A JUMP JUMPDEST POP PUSH1 0x20 DUP3 ADD MLOAD DUP2 PUSH1 0x1 ADD SWAP1 DUP2 PUSH2 0xDC1 SWAP2 SWAP1 PUSH2 0xC72A JUMP JUMPDEST POP PUSH1 0x40 DUP3 ADD MLOAD DUP2 PUSH1 0x2 ADD SWAP1 DUP2 PUSH2 0xDD7 SWAP2 SWAP1 PUSH2 0xC72A JUMP JUMPDEST POP PUSH1 0x60 DUP3 ADD MLOAD DUP2 PUSH1 0x3 ADD SWAP1 DUP2 PUSH2 0xDED SWAP2 SWAP1 PUSH2 0xC72A JUMP JUMPDEST POP PUSH1 0x80 DUP3 ADD MLOAD DUP2 PUSH1 0x4 ADD SWAP1 DUP2 PUSH2 0xE03 SWAP2 SWAP1 PUSH2 0xC72A JUMP JUMPDEST POP PUSH1 0xA0 DUP3 ADD MLOAD DUP2 PUSH1 0x5 ADD SWAP1 DUP2 PUSH2 0xE19 SWAP2 SWAP1 PUSH2 0xC72A JUMP JUMPDEST POP PUSH1 0xC0 DUP3 ADD MLOAD DUP2 PUSH1 0x6 ADD SWAP1 DUP2 PUSH2 0xE2F SWAP2 SWAP1 PUSH2 0xC72A JUMP JUMPDEST POP PUSH1 0xE0 DUP3 ADD MLOAD DUP2 PUSH1 0x7 ADD SWAP1 DUP2 PUSH2 0xE45 SWAP2 SWAP1 PUSH2 0xC72A JUMP JUMPDEST POP PUSH2 0x100 DUP3 ADD MLOAD DUP2 PUSH1 0x8 ADD SWAP1 DUP2 PUSH2 0xE5C SWAP2 SWAP1 PUSH2 0xC72A JUMP JUMPDEST POP POP POP SWAP1 POP POP PUSH1 0xD SLOAD PUSH1 0xA PUSH0 DUP6 DUP2 MSTORE PUSH1 0x20 ADD SWAP1 DUP2 MSTORE PUSH1 0x20 ADD PUSH0 KECCAK256 DUP2 SWAP1 SSTORE POP PUSH1 0xB PUSH0 DUP4 PUSH20 0xFFFFFFFFFFFFFFFFFFFFFFFFFFFFFFFFFFFFFFFF AND PUSH20 0xFFFFFFFFFFFFFFFFFFFFFFFFFFFFFFFFFFFFFFFF AND DUP2 MSTORE PUSH1 0x20 ADD SWAP1 DUP2 MSTORE PUSH1 0x20 ADD PUSH0 KECCAK256 PUSH1 0xD SLOAD SWAP1 DUP1 PUSH1 0x1 DUP2 SLOAD ADD DUP1 DUP3 SSTORE DUP1 SWAP2 POP POP PUSH1 0x1 SWAP1 SUB SWAP1 PUSH0 MSTORE PUSH1 0x20 PUSH0 KECCAK256 ADD PUSH0 SWAP1 SWAP2 SWAP1 SWAP2 SWAP1 SWAP2 POP SSTORE PUSH32 0x6CBE635891BAD406EDFDA1CD61005929DB6C504109C59B9AFE10F74944DE95CB PUSH1 0xD SLOAD DUP5 DUP5 DUP8 PUSH0 ADD MLOAD DUP9 PUSH1 0x20 ADD MLOAD DUP10 PUSH1 0x40 ADD MLOAD DUP11 PUSH1 0x60 ADD MLOAD DUP12 PUSH1 0x80 ADD MLOAD DUP13 PUSH1 0xA0 ADD MLOAD DUP14 PUSH1 0xC0 ADD MLOAD DUP15 PUSH1 0xE0 ADD MLOAD DUP16 PUSH2 0x100 ADD MLOAD PUSH1 0x40 MLOAD PUSH2 0xF48 SWAP13 SWAP12 SWAP11 SWAP10 SWAP9 SWAP8 SWAP7 SWAP6 SWAP5 SWAP4 SWAP3 SWAP2 SWAP1 PUSH2 0xC7F9 JUMP JUMPDEST PUSH1 0x40 MLOAD DUP1 SWAP2 SUB SWAP1 LOG1 POP POP POP POP JUMP JUMPDEST PUSH0 DUP1 PUSH1 0x7 PUSH0 DUP7 DUP2 MSTORE PUSH1 0x20 ADD SWAP1 DUP2 MSTORE PUSH1 0x20 ADD PUSH0 KECCAK256 SWAP1 POP CALLER PUSH20 0xFFFFFFFFFFFFFFFFFFFFFFFFFFFFFFFFFFFFFFFF AND DUP2 PUSH1 0x2 ADD PUSH0 SWAP1 SLOAD SWAP1 PUSH2 0x100 EXP SWAP1 DIV PUSH20 0xFFFFFFFFFFFFFFFFFFFFFFFFFFFFFFFFFFFFFFFF AND PUSH20 0xFFFFFFFFFFFFFFFFFFFFFFFFFFFFFFFFFFFFFFFF AND EQ PUSH2 0xFFC JUMPI PUSH1 0x40 MLOAD PUSH32 0x8C379A000000000000000000000000000000000000000000000000000000000 DUP2 MSTORE PUSH1 0x4 ADD PUSH2 0xFF3 SWAP1 PUSH2 0xC986 JUMP JUMPDEST PUSH1 0x40 MLOAD DUP1 SWAP2 SUB SWAP1 REVERT JUMPDEST PUSH0 DUP2 PUSH0 ADD SLOAD GT DUP1 ISZERO PUSH2 0x101D JUMPI POP DUP1 PUSH1 0x2 ADD PUSH1 0x14 SWAP1 SLOAD SWAP1 PUSH2 0x100 EXP SWAP1 DIV PUSH1 0xFF AND ISZERO JUMPDEST PUSH2 0x105C JUMPI PUSH1 0x40 MLOAD PUSH32 0x8C379A000000000000000000000000000000000000000000000000000000000 DUP2 MSTORE PUSH1 0x4 ADD PUSH2 0x1053 SWAP1 PUSH2 0xCA3A JUMP JUMPDEST PUSH1 0x40 MLOAD DUP1 SWAP2 SUB SWAP1 REVERT JUMPDEST PUSH2 0x1065 DUP2 PUSH2 0x7DE5 JUMP JUMPDEST POP DUP1 PUSH1 0x1 ADD PUSH0 PUSH2 0x1075 SWAP2 SWAP1 PUSH2 0x972B JUMP JUMPDEST PUSH2 0x107E DUP5 PUSH2 0x7F7E JUMP JUMPDEST POP PUSH0 JUMPDEST DUP5 MLOAD DUP2 LT ISZERO PUSH2 0x115A JUMPI DUP2 PUSH1 0x1 ADD DUP6 DUP3 DUP2 MLOAD DUP2 LT PUSH2 0x10A1 JUMPI PUSH2 0x10A0 PUSH2 0xCA58 JUMP JUMPDEST JUMPDEST PUSH1 0x20 MUL PUSH1 0x20 ADD ADD MLOAD SWAP1 DUP1 PUSH1 0x1 DUP2 SLOAD ADD DUP1 DUP3 SSTORE DUP1 SWAP2 POP POP PUSH1 0x1 SWAP1 SUB SWAP1 PUSH0 MSTORE PUSH1 0x20 PUSH0 KECCAK256 SWAP1 PUSH1 0x5 MUL ADD PUSH0 SWAP1 SWAP2 SWAP1 SWAP2 SWAP1 SWAP2 POP PUSH0 DUP3 ADD MLOAD DUP2 PUSH0 ADD SWAP1 DUP1 MLOAD SWAP1 PUSH1 0x20 ADD SWAP1 PUSH2 0x10E9 SWAP3 SWAP2 SWAP1 PUSH2 0x974C JUMP JUMPDEST POP PUSH1 0x20 DUP3 ADD MLOAD DUP2 PUSH1 0x1 ADD SWAP1 DUP1 MLOAD SWAP1 PUSH1 0x20 ADD SWAP1 PUSH2 0x1106 SWAP3 SWAP2 SWAP1 PUSH2 0x974C JUMP JUMPDEST POP PUSH1 0x40 DUP3 ADD MLOAD DUP2 PUSH1 0x2 ADD SWAP1 DUP1 MLOAD SWAP1 PUSH1 0x20 ADD SWAP1 PUSH2 0x1123 SWAP3 SWAP2 SWAP1 PUSH2 0x9797 JUMP JUMPDEST POP PUSH1 0x60 DUP3 ADD MLOAD DUP2 PUSH1 0x3 ADD SWAP1 DUP1 MLOAD SWAP1 PUSH1 0x20 ADD SWAP1 PUSH2 0x1140 SWAP3 SWAP2 SWAP1 PUSH2 0x974C JUMP JUMPDEST POP PUSH1 0x80 DUP3 ADD MLOAD DUP2 PUSH1 0x4 ADD SSTORE POP POP DUP1 DUP1 PUSH1 0x1 ADD SWAP2 POP POP PUSH2 0x1081 JUMP JUMPDEST POP DUP3 DUP2 PUSH1 0x3 ADD DUP2 SWAP1 SSTORE POP PUSH1 0x1 SWAP2 POP POP SWAP4 SWAP3 POP POP POP JUMP JUMPDEST PUSH2 0x1178 PUSH2 0x97E2 JUMP JUMPDEST PUSH0 DUP1 DUP4 PUSH20 0xFFFFFFFFFFFFFFFFFFFFFFFFFFFFFFFFFFFFFFFF AND PUSH20 0xFFFFFFFFFFFFFFFFFFFFFFFFFFFFFFFFFFFFFFFF AND DUP2 MSTORE PUSH1 0x20 ADD SWAP1 DUP2 MSTORE PUSH1 0x20 ADD PUSH0 KECCAK256 PUSH1 0x40 MLOAD DUP1 PUSH1 0x60 ADD PUSH1 0x40 MSTORE SWAP1 DUP2 PUSH0 DUP3 ADD SLOAD DUP2 MSTORE PUSH1 0x20 ADD PUSH1 0x1 DUP3 ADD PUSH0 SWAP1 SLOAD SWAP1 PUSH2 0x100 EXP SWAP1 DIV PUSH20 0xFFFFFFFFFFFFFFFFFFFFFFFFFFFFFFFFFFFFFFFF AND PUSH20 0xFFFFFFFFFFFFFFFFFFFFFFFFFFFFFFFFFFFFFFFF AND PUSH20 0xFFFFFFFFFFFFFFFFFFFFFFFFFFFFFFFFFFFFFFFF AND DUP2 MSTORE PUSH1 0x20 ADD PUSH1 0x2 DUP3 ADD DUP1 SLOAD DUP1 PUSH1 0x20 MUL PUSH1 0x20 ADD PUSH1 0x40 MLOAD SWAP1 DUP2 ADD PUSH1 0x40 MSTORE DUP1 SWAP3 SWAP2 SWAP1 DUP2 DUP2 MSTORE PUSH1 0x20 ADD PUSH0 SWAP1 JUMPDEST DUP3 DUP3 LT ISZERO PUSH2 0x12A2 JUMPI DUP4 DUP3 SWAP1 PUSH0 MSTORE PUSH1 0x20 PUSH0 KECCAK256 SWAP1 PUSH1 0x5 MUL ADD PUSH1 0x40 MLOAD DUP1 PUSH1 0xA0 ADD PUSH1 0x40 MSTORE SWAP1 DUP2 PUSH0 DUP3 ADD SLOAD DUP2 MSTORE PUSH1 0x20 ADD PUSH1 0x1 DUP3 ADD SLOAD DUP2 MSTORE PUSH1 0x20 ADD PUSH1 0x2 DUP3 ADD SLOAD DUP2 MSTORE PUSH1 0x20 ADD PUSH1 0x3 DUP3 ADD SLOAD DUP2 MSTORE PUSH1 0x20 ADD PUSH1 0x4 DUP3 ADD SLOAD DUP2 MSTORE POP POP DUP2 MSTORE PUSH1 0x20 ADD SWAP1 PUSH1 0x1 ADD SWAP1 PUSH2 0x1241 JUMP JUMPDEST POP POP POP POP DUP2 MSTORE POP POP SWAP1 POP SWAP2 SWAP1 POP JUMP JUMPDEST PUSH1 0x60 PUSH0 PUSH2 0x12BD DUP5 PUSH2 0x8355 JUMP JUMPDEST SWAP1 POP DUP1 DUP4 PUSH1 0x40 MLOAD PUSH1 0x20 ADD PUSH2 0x12D2 SWAP3 SWAP2 SWAP1 PUSH2 0xCC31 JUMP JUMPDEST PUSH1 0x40 MLOAD PUSH1 0x20 DUP2 DUP4 SUB SUB DUP2 MSTORE SWAP1 PUSH1 0x40 MSTORE SWAP2 POP POP SWAP3 SWAP2 POP POP JUMP JUMPDEST PUSH1 0x1 PUSH1 0x20 MSTORE DUP1 PUSH0 MSTORE PUSH1 0x40 PUSH0 KECCAK256 PUSH0 SWAP2 POP SWAP1 POP DUP1 PUSH0 ADD SLOAD SWAP1 DUP1 PUSH1 0x1 ADD PUSH0 SWAP1 SLOAD SWAP1 PUSH2 0x100 EXP SWAP1 DIV PUSH20 0xFFFFFFFFFFFFFFFFFFFFFFFFFFFFFFFFFFFFFFFF AND SWAP1 DUP1 PUSH1 0x2 ADD PUSH0 SWAP1 SLOAD SWAP1 PUSH2 0x100 EXP SWAP1 DIV PUSH20 0xFFFFFFFFFFFFFFFFFFFFFFFFFFFFFFFFFFFFFFFF AND SWAP1 DUP1 PUSH1 0x3 ADD SLOAD SWAP1 DUP1 PUSH1 0xB ADD SLOAD SWAP1 DUP1 PUSH1 0xC ADD PUSH0 SWAP1 SLOAD SWAP1 PUSH2 0x100 EXP SWAP1 DIV PUSH1 0xFF AND SWAP1 DUP1 PUSH1 0xC ADD PUSH1 0x1 SWAP1 SLOAD SWAP1 PUSH2 0x100 EXP SWAP1 DIV PUSH1 0xFF AND SWAP1 DUP1 PUSH1 0xD ADD SLOAD SWAP1 DUP1 PUSH1 0xE ADD SLOAD SWAP1 DUP1 PUSH1 0xF ADD SLOAD SWAP1 DUP1 PUSH1 0x10 ADD PUSH0 SWAP1 SLOAD SWAP1 PUSH2 0x100 EXP SWAP1 DIV PUSH1 0xFF AND SWAP1 DUP1 PUSH1 0x11 ADD SLOAD SWAP1 POP DUP13 JUMP JUMPDEST PUSH1 0x60 PUSH1 0x3 DUP1 SLOAD SWAP1 POP PUSH8 0xFFFFFFFFFFFFFFFF DUP2 GT ISZERO PUSH2 0x13CA JUMPI PUSH2 0x13C9 PUSH2 0x9D24 JUMP JUMPDEST JUMPDEST PUSH1 0x40 MLOAD SWAP1 DUP1 DUP3 MSTORE DUP1 PUSH1 0x20 MUL PUSH1 0x20 ADD DUP3 ADD PUSH1 0x40 MSTORE DUP1 ISZERO PUSH2 0x1403 JUMPI DUP2 PUSH1 0x20 ADD JUMPDEST PUSH2 0x13F0 PUSH2 0x9817 JUMP JUMPDEST DUP2 MSTORE PUSH1 0x20 ADD SWAP1 PUSH1 0x1 SWAP1 SUB SWAP1 DUP2 PUSH2 0x13E8 JUMPI SWAP1 POP JUMPDEST POP SWAP1 POP PUSH0 JUMPDEST PUSH1 0x3 DUP1 SLOAD SWAP1 POP DUP2 LT ISZERO PUSH2 0x1817 JUMPI PUSH1 0x1 PUSH0 PUSH1 0x3 DUP4 DUP2 SLOAD DUP2 LT PUSH2 0x142C JUMPI PUSH2 0x142B PUSH2 0xCA58 JUMP JUMPDEST JUMPDEST SWAP1 PUSH0 MSTORE PUSH1 0x20 PUSH0 KECCAK256 ADD SLOAD DUP2 MSTORE PUSH1 0x20 ADD SWAP1 DUP2 MSTORE PUSH1 0x20 ADD PUSH0 KECCAK256 PUSH1 0x40 MLOAD DUP1 PUSH2 0x260 ADD PUSH1 0x40 MSTORE SWAP1 DUP2 PUSH0 DUP3 ADD SLOAD DUP2 MSTORE PUSH1 0x20 ADD PUSH1 0x1 DUP3 ADD PUSH0 SWAP1 SLOAD SWAP1 PUSH2 0x100 EXP SWAP1 DIV PUSH20 0xFFFFFFFFFFFFFFFFFFFFFFFFFFFFFFFFFFFFFFFF AND PUSH20 0xFFFFFFFFFFFFFFFFFFFFFFFFFFFFFFFFFFFFFFFF AND PUSH20 0xFFFFFFFFFFFFFFFFFFFFFFFFFFFFFFFFFFFFFFFF AND DUP2 MSTORE PUSH1 0x20 ADD PUSH1 0x2 DUP3 ADD PUSH0 SWAP1 SLOAD SWAP1 PUSH2 0x100 EXP SWAP1 DIV PUSH20 0xFFFFFFFFFFFFFFFFFFFFFFFFFFFFFFFFFFFFFFFF AND PUSH20 0xFFFFFFFFFFFFFFFFFFFFFFFFFFFFFFFFFFFFFFFF AND PUSH20 0xFFFFFFFFFFFFFFFFFFFFFFFFFFFFFFFFFFFFFFFF AND DUP2 MSTORE PUSH1 0x20 ADD PUSH1 0x3 DUP3 ADD SLOAD DUP2 MSTORE PUSH1 0x20 ADD PUSH1 0x4 DUP3 ADD DUP1 SLOAD DUP1 PUSH1 0x20 MUL PUSH1 0x20 ADD PUSH1 0x40 MLOAD SWAP1 DUP2 ADD PUSH1 0x40 MSTORE DUP1 SWAP3 SWAP2 SWAP1 DUP2 DUP2 MSTORE PUSH1 0x20 ADD DUP3 DUP1 SLOAD DUP1 ISZERO PUSH2 0x1558 JUMPI PUSH1 0x20 MUL DUP3 ADD SWAP2 SWAP1 PUSH0 MSTORE PUSH1 0x20 PUSH0 KECCAK256 SWAP1 JUMPDEST DUP2 SLOAD DUP2 MSTORE PUSH1 0x20 ADD SWAP1 PUSH1 0x1 ADD SWAP1 DUP1 DUP4 GT PUSH2 0x1544 JUMPI JUMPDEST POP POP POP POP POP DUP2 MSTORE PUSH1 0x20 ADD PUSH1 0x5 DUP3 ADD DUP1 SLOAD DUP1 PUSH1 0x20 MUL PUSH1 0x20 ADD PUSH1 0x40 MLOAD SWAP1 DUP2 ADD PUSH1 0x40 MSTORE DUP1 SWAP3 SWAP2 SWAP1 DUP2 DUP2 MSTORE PUSH1 0x20 ADD DUP3 DUP1 SLOAD DUP1 ISZERO PUSH2 0x15AE JUMPI PUSH1 0x20 MUL DUP3 ADD SWAP2 SWAP1 PUSH0 MSTORE PUSH1 0x20 PUSH0 KECCAK256 SWAP1 JUMPDEST DUP2 SLOAD DUP2 MSTORE PUSH1 0x20 ADD SWAP1 PUSH1 0x1 ADD SWAP1 DUP1 DUP4 GT PUSH2 0x159A JUMPI JUMPDEST POP POP POP POP POP DUP2 MSTORE PUSH1 0x20 ADD PUSH1 0x6 DUP3 ADD DUP1 SLOAD DUP1 PUSH1 0x20 MUL PUSH1 0x20 ADD PUSH1 0x40 MLOAD SWAP1 DUP2 ADD PUSH1 0x40 MSTORE DUP1 SWAP3 SWAP2 SWAP1 DUP2 DUP2 MSTORE PUSH1 0x20 ADD DUP3 DUP1 SLOAD DUP1 ISZERO PUSH2 0x1604 JUMPI PUSH1 0x20 MUL DUP3 ADD SWAP2 SWAP1 PUSH0 MSTORE PUSH1 0x20 PUSH0 KECCAK256 SWAP1 JUMPDEST DUP2 SLOAD DUP2 MSTORE PUSH1 0x20 ADD SWAP1 PUSH1 0x1 ADD SWAP1 DUP1 DUP4 GT PUSH2 0x15F0 JUMPI JUMPDEST POP POP POP POP POP DUP2 MSTORE PUSH1 0x20 ADD PUSH1 0x7 DUP3 ADD DUP1 SLOAD DUP1 PUSH1 0x20 MUL PUSH1 0x20 ADD PUSH1 0x40 MLOAD SWAP1 DUP2 ADD PUSH1 0x40 MSTORE DUP1 SWAP3 SWAP2 SWAP1 DUP2 DUP2 MSTORE PUSH1 0x20 ADD DUP3 DUP1 SLOAD DUP1 ISZERO PUSH2 0x165A JUMPI PUSH1 0x20 MUL DUP3 ADD SWAP2 SWAP1 PUSH0 MSTORE PUSH1 0x20 PUSH0 KECCAK256 SWAP1 JUMPDEST DUP2 SLOAD DUP2 MSTORE PUSH1 0x20 ADD SWAP1 PUSH1 0x1 ADD SWAP1 DUP1 DUP4 GT PUSH2 0x1646 JUMPI JUMPDEST POP POP POP POP POP DUP2 MSTORE PUSH1 0x20 ADD PUSH1 0x8 DUP3 ADD DUP1 SLOAD DUP1 PUSH1 0x20 MUL PUSH1 0x20 ADD PUSH1 0x40 MLOAD SWAP1 DUP2 ADD PUSH1 0x40 MSTORE DUP1 SWAP3 SWAP2 SWAP1 DUP2 DUP2 MSTORE PUSH1 0x20 ADD DUP3 DUP1 SLOAD DUP1 ISZERO PUSH2 0x16B0 JUMPI PUSH1 0x20 MUL DUP3 ADD SWAP2 SWAP1 PUSH0 MSTORE PUSH1 0x20 PUSH0 KECCAK256 SWAP1 JUMPDEST DUP2 SLOAD DUP2 MSTORE PUSH1 0x20 ADD SWAP1 PUSH1 0x1 ADD SWAP1 DUP1 DUP4 GT PUSH2 0x169C JUMPI JUMPDEST POP POP POP POP POP DUP2 MSTORE PUSH1 0x20 ADD PUSH1 0x9 DUP3 ADD DUP1 SLOAD DUP1 PUSH1 0x20 MUL PUSH1 0x20 ADD PUSH1 0x40 MLOAD SWAP1 DUP2 ADD PUSH1 0x40 MSTORE DUP1 SWAP3 SWAP2 SWAP1 DUP2 DUP2 MSTORE PUSH1 0x20 ADD DUP3 DUP1 SLOAD DUP1 ISZERO PUSH2 0x1706 JUMPI PUSH1 0x20 MUL DUP3 ADD SWAP2 SWAP1 PUSH0 MSTORE PUSH1 0x20 PUSH0 KECCAK256 SWAP1 JUMPDEST DUP2 SLOAD DUP2 MSTORE PUSH1 0x20 ADD SWAP1 PUSH1 0x1 ADD SWAP1 DUP1 DUP4 GT PUSH2 0x16F2 JUMPI JUMPDEST POP POP POP POP POP DUP2 MSTORE PUSH1 0x20 ADD PUSH1 0xA DUP3 ADD DUP1 SLOAD DUP1 PUSH1 0x20 MUL PUSH1 0x20 ADD PUSH1 0x40 MLOAD SWAP1 DUP2 ADD PUSH1 0x40 MSTORE DUP1 SWAP3 SWAP2 SWAP1 DUP2 DUP2 MSTORE PUSH1 0x20 ADD DUP3 DUP1 SLOAD DUP1 ISZERO PUSH2 0x175C JUMPI PUSH1 0x20 MUL DUP3 ADD SWAP2 SWAP1 PUSH0 MSTORE PUSH1 0x20 PUSH0 KECCAK256 SWAP1 JUMPDEST DUP2 SLOAD DUP2 MSTORE PUSH1 0x20 ADD SWAP1 PUSH1 0x1 ADD SWAP1 DUP1 DUP4 GT PUSH2 0x1748 JUMPI JUMPDEST POP POP POP POP POP DUP2 MSTORE PUSH1 0x20 ADD PUSH1 0xB DUP3 ADD SLOAD DUP2 MSTORE PUSH1 0x20 ADD PUSH1 0xC DUP3 ADD PUSH0 SWAP1 SLOAD SWAP1 PUSH2 0x100 EXP SWAP1 DIV PUSH1 0xFF AND PUSH1 0xFF AND PUSH1 0xFF AND DUP2 MSTORE PUSH1 0x20 ADD PUSH1 0xC DUP3 ADD PUSH1 0x1 SWAP1 SLOAD SWAP1 PUSH2 0x100 EXP SWAP1 DIV PUSH1 0xFF AND PUSH1 0xFF AND PUSH1 0xFF AND DUP2 MSTORE PUSH1 0x20 ADD PUSH1 0xD DUP3 ADD SLOAD DUP2 MSTORE PUSH1 0x20 ADD PUSH1 0xE DUP3 ADD SLOAD DUP2 MSTORE PUSH1 0x20 ADD PUSH1 0xF DUP3 ADD SLOAD DUP2 MSTORE PUSH1 0x20 ADD PUSH1 0x10 DUP3 ADD PUSH0 SWAP1 SLOAD SWAP1 PUSH2 0x100 EXP SWAP1 DIV PUSH1 0xFF AND PUSH1 0xFF AND PUSH1 0xFF AND DUP2 MSTORE PUSH1 0x20 ADD PUSH1 0x11 DUP3 ADD SLOAD DUP2 MSTORE POP POP DUP3 DUP3 DUP2 MLOAD DUP2 LT PUSH2 0x17FF JUMPI PUSH2 0x17FE PUSH2 0xCA58 JUMP JUMPDEST JUMPDEST PUSH1 0x20 MUL PUSH1 0x20 ADD ADD DUP2 SWAP1 MSTORE POP DUP1 DUP1 PUSH1 0x1 ADD SWAP2 POP POP PUSH2 0x1408 JUMP JUMPDEST POP SWAP1 JUMP JUMPDEST PUSH1 0x17 PUSH0 SWAP1 SLOAD SWAP1 PUSH2 0x100 EXP SWAP1 DIV PUSH20 0xFFFFFFFFFFFFFFFFFFFFFFFFFFFFFFFFFFFFFFFF AND DUP1 PUSH20 0xFFFFFFFFFFFFFFFFFFFFFFFFFFFFFFFFFFFFFFFF AND CALLER PUSH20 0xFFFFFFFFFFFFFFFFFFFFFFFFFFFFFFFFFFFFFFFF AND EQ PUSH2 0x18AB JUMPI PUSH1 0x40 MLOAD PUSH32 0x8C379A000000000000000000000000000000000000000000000000000000000 DUP2 MSTORE PUSH1 0x4 ADD PUSH2 0x18A2 SWAP1 PUSH2 0xCD21 JUMP JUMPDEST PUSH1 0x40 MLOAD DUP1 SWAP2 SUB SWAP1 REVERT JUMPDEST PUSH0 PUSH1 0x5 PUSH0 DUP6 DUP2 MSTORE PUSH1 0x20 ADD SWAP1 DUP2 MSTORE PUSH1 0x20 ADD PUSH0 KECCAK256 SLOAD SWAP1 POP PUSH0 DUP2 GT PUSH2 0x1902 JUMPI PUSH1 0x40 MLOAD PUSH32 0x8C379A000000000000000000000000000000000000000000000000000000000 DUP2 MSTORE PUSH1 0x4 ADD PUSH2 0x18F9 SWAP1 PUSH2 0xCD89 JUMP JUMPDEST PUSH1 0x40 MLOAD DUP1 SWAP2 SUB SWAP1 REVERT JUMPDEST PUSH0 PUSH1 0x1 PUSH0 DUP4 DUP2 MSTORE PUSH1 0x20 ADD SWAP1 DUP2 MSTORE PUSH1 0x20 ADD PUSH0 KECCAK256 SWAP1 POP PUSH1 0x2 PUSH1 0x4 DUP2 GT ISZERO PUSH2 0x192A JUMPI PUSH2 0x1929 PUSH2 0xBD9C JUMP JUMPDEST JUMPDEST DUP5 PUSH1 0x4 DUP2 GT ISZERO PUSH2 0x193D JUMPI PUSH2 0x193C PUSH2 0xBD9C JUMP JUMPDEST JUMPDEST EQ DUP1 PUSH2 0x196D JUMPI POP PUSH1 0x1 PUSH1 0x4 DUP2 GT ISZERO PUSH2 0x1958 JUMPI PUSH2 0x1957 PUSH2 0xBD9C JUMP JUMPDEST JUMPDEST DUP5 PUSH1 0x4 DUP2 GT ISZERO PUSH2 0x196B JUMPI PUSH2 0x196A PUSH2 0xBD9C JUMP JUMPDEST JUMPDEST EQ JUMPDEST DUP1 PUSH2 0x199C JUMPI POP PUSH1 0x3 PUSH1 0x4 DUP2 GT ISZERO PUSH2 0x1987 JUMPI PUSH2 0x1986 PUSH2 0xBD9C JUMP JUMPDEST JUMPDEST DUP5 PUSH1 0x4 DUP2 GT ISZERO PUSH2 0x199A JUMPI PUSH2 0x1999 PUSH2 0xBD9C JUMP JUMPDEST JUMPDEST EQ JUMPDEST PUSH2 0x19DB JUMPI PUSH1 0x40 MLOAD PUSH32 0x8C379A000000000000000000000000000000000000000000000000000000000 DUP2 MSTORE PUSH1 0x4 ADD PUSH2 0x19D2 SWAP1 PUSH2 0xCDF1 JUMP JUMPDEST PUSH1 0x40 MLOAD DUP1 SWAP2 SUB SWAP1 REVERT JUMPDEST DUP1 PUSH1 0xC ADD PUSH1 0x1 SWAP1 SLOAD SWAP1 PUSH2 0x100 EXP SWAP1 DIV PUSH1 0xFF AND PUSH1 0xFF AND DUP5 PUSH1 0x4 DUP2 GT ISZERO PUSH2 0x1A03 JUMPI PUSH2 0x1A02 PUSH2 0xBD9C JUMP JUMPDEST JUMPDEST PUSH1 0xFF AND SUB PUSH2 0x1A46 JUMPI PUSH1 0x40 MLOAD PUSH32 0x8C379A000000000000000000000000000000000000000000000000000000000 DUP2 MSTORE PUSH1 0x4 ADD PUSH2 0x1A3D SWAP1 PUSH2 0xCE7F JUMP JUMPDEST PUSH1 0x40 MLOAD DUP1 SWAP2 SUB SWAP1 REVERT JUMPDEST DUP4 PUSH1 0x4 DUP2 GT ISZERO PUSH2 0x1A59 JUMPI PUSH2 0x1A58 PUSH2 0xBD9C JUMP JUMPDEST JUMPDEST DUP2 PUSH1 0xC ADD PUSH1 0x1 PUSH2 0x100 EXP DUP2 SLOAD DUP2 PUSH1 0xFF MUL NOT AND SWAP1 DUP4 PUSH1 0xFF AND MUL OR SWAP1 SSTORE POP PUSH1 0x2 PUSH1 0x4 DUP2 GT ISZERO PUSH2 0x1A89 JUMPI PUSH2 0x1A88 PUSH2 0xBD9C JUMP JUMPDEST JUMPDEST DUP5 PUSH1 0x4 DUP2 GT ISZERO PUSH2 0x1A9C JUMPI PUSH2 0x1A9B PUSH2 0xBD9C JUMP JUMPDEST JUMPDEST SUB PUSH2 0x1B29 JUMPI PUSH1 0x15 PUSH0 SWAP1 SLOAD SWAP1 PUSH2 0x100 EXP SWAP1 DIV PUSH20 0xFFFFFFFFFFFFFFFFFFFFFFFFFFFFFFFFFFFFFFFF AND PUSH20 0xFFFFFFFFFFFFFFFFFFFFFFFFFFFFFFFFFFFFFFFF AND PUSH4 0xE45C1B56 DUP7 PUSH1 0x40 MLOAD DUP3 PUSH4 0xFFFFFFFF AND PUSH1 0xE0 SHL DUP2 MSTORE PUSH1 0x4 ADD PUSH2 0x1AFB SWAP2 SWAP1 PUSH2 0xB15C JUMP JUMPDEST PUSH0 PUSH1 0x40 MLOAD DUP1 DUP4 SUB DUP2 PUSH0 DUP8 DUP1 EXTCODESIZE ISZERO DUP1 ISZERO PUSH2 0x1B12 JUMPI PUSH0 DUP1 REVERT JUMPDEST POP GAS CALL ISZERO DUP1 ISZERO PUSH2 0x1B24 JUMPI RETURNDATASIZE PUSH0 DUP1 RETURNDATACOPY RETURNDATASIZE PUSH0 REVERT JUMPDEST POP POP POP POP JUMPDEST DUP5 DUP3 PUSH32 0x2D82C7C8E91A792FD9344D9D61DC3EC4BE8AC41B1DF54BA3A9AB104EE6B101F2 DUP7 PUSH1 0x4 DUP2 GT ISZERO PUSH2 0x1B5F JUMPI PUSH2 0x1B5E PUSH2 0xBD9C JUMP JUMPDEST JUMPDEST PUSH1 0x40 MLOAD PUSH2 0x1B6C SWAP2 SWAP1 PUSH2 0xCE9D JUMP JUMPDEST PUSH1 0x40 MLOAD DUP1 SWAP2 SUB SWAP1 LOG3 POP POP POP POP POP JUMP JUMPDEST PUSH0 DUP1 DUP3 DUP1 PUSH1 0x20 ADD SWAP1 MLOAD DUP2 ADD SWAP1 PUSH2 0x1B91 SWAP2 SWAP1 PUSH2 0xCECA JUMP JUMPDEST SWAP1 POP PUSH0 PUSH20 0xFFFFFFFFFFFFFFFFFFFFFFFFFFFFFFFFFFFFFFFF AND PUSH1 0x8 PUSH0 DUP4 DUP2 MSTORE PUSH1 0x20 ADD SWAP1 DUP2 MSTORE PUSH1 0x20 ADD PUSH0 KECCAK256 PUSH1 0xA ADD PUSH0 SWAP1 SLOAD SWAP1 PUSH2 0x100 EXP SWAP1 DIV PUSH20 0xFFFFFFFFFFFFFFFFFFFFFFFFFFFFFFFFFFFFFFFF AND PUSH20 0xFFFFFFFFFFFFFFFFFFFFFFFFFFFFFFFFFFFFFFFF AND EQ PUSH2 0x1C03 JUMPI PUSH1 0x1 SWAP2 POP POP PUSH2 0x1C08 JUMP JUMPDEST PUSH0 SWAP2 POP POP JUMPDEST SWAP2 SWAP1 POP JUMP JUMPDEST PUSH2 0x1C15 PUSH2 0x98D5 JUMP JUMPDEST PUSH0 PUSH1 0x12 PUSH0 SWAP1 SLOAD SWAP1 PUSH2 0x100 EXP SWAP1 DIV PUSH20 0xFFFFFFFFFFFFFFFFFFFFFFFFFFFFFFFFFFFFFFFF AND PUSH20 0xFFFFFFFFFFFFFFFFFFFFFFFFFFFFFFFFFFFFFFFF AND PUSH4 0xB9DB15B4 DUP7 PUSH1 0x40 MLOAD DUP3 PUSH4 0xFFFFFFFF AND PUSH1 0xE0 SHL DUP2 MSTORE PUSH1 0x4 ADD PUSH2 0x1C70 SWAP2 SWAP1 PUSH2 0x9CF7 JUMP JUMPDEST PUSH0 PUSH1 0x40 MLOAD DUP1 DUP4 SUB DUP2 DUP7 GAS STATICCALL ISZERO DUP1 ISZERO PUSH2 0x1C8A JUMPI RETURNDATASIZE PUSH0 DUP1 RETURNDATACOPY RETURNDATASIZE PUSH0 REVERT JUMPDEST POP POP POP POP PUSH1 0x40 MLOAD RETURNDATASIZE PUSH0 DUP3 RETURNDATACOPY RETURNDATASIZE PUSH1 0x1F NOT PUSH1 0x1F DUP3 ADD AND DUP3 ADD DUP1 PUSH1 0x40 MSTORE POP DUP2 ADD SWAP1 PUSH2 0x1CB2 SWAP2 SWAP1 PUSH2 0xD536 JUMP JUMPDEST SWAP1 POP PUSH0 PUSH1 0x12 PUSH0 SWAP1 SLOAD SWAP1 PUSH2 0x100 EXP SWAP1 DIV PUSH20 0xFFFFFFFFFFFFFFFFFFFFFFFFFFFFFFFFFFFFFFFF AND PUSH20 0xFFFFFFFFFFFFFFFFFFFFFFFFFFFFFFFFFFFFFFFF AND PUSH3 0x41C629 DUP8 DUP8 PUSH1 0x40 MLOAD DUP4 PUSH4 0xFFFFFFFF AND PUSH1 0xE0 SHL DUP2 MSTORE PUSH1 0x4 ADD PUSH2 0x1D10 SWAP3 SWAP2 SWAP1 PUSH2 0xD57D JUMP JUMPDEST PUSH1 0xC0 PUSH1 0x40 MLOAD DUP1 DUP4 SUB DUP2 DUP7 GAS STATICCALL ISZERO DUP1 ISZERO PUSH2 0x1D2B JUMPI RETURNDATASIZE PUSH0 DUP1 RETURNDATACOPY RETURNDATASIZE PUSH0 REVERT JUMPDEST POP POP POP POP PUSH1 0x40 MLOAD RETURNDATASIZE PUSH1 0x1F NOT PUSH1 0x1F DUP3 ADD AND DUP3 ADD DUP1 PUSH1 0x40 MSTORE POP DUP2 ADD SWAP1 PUSH2 0x1D4F SWAP2 SWAP1 PUSH2 0xD68E JUMP JUMPDEST SWAP1 POP PUSH0 DUP3 PUSH0 ADD MLOAD EQ ISZERO PUSH2 0x1D98 PUSH1 0x3 PUSH1 0x40 MLOAD DUP1 PUSH1 0x40 ADD PUSH1 0x40 MSTORE DUP1 PUSH1 0x11 DUP2 MSTORE PUSH1 0x20 ADD PUSH32 0x50726F64756374206E6F7420666F756E64000000000000000000000000000000 DUP2 MSTORE POP PUSH2 0x12B1 JUMP JUMPDEST SWAP1 PUSH2 0x1DD9 JUMPI PUSH1 0x40 MLOAD PUSH32 0x8C379A000000000000000000000000000000000000000000000000000000000 DUP2 MSTORE PUSH1 0x4 ADD PUSH2 0x1DD0 SWAP2 SWAP1 PUSH2 0xA739 JUMP JUMPDEST PUSH1 0x40 MLOAD DUP1 SWAP2 SUB SWAP1 REVERT JUMPDEST POP PUSH0 DUP1 SHL DUP2 PUSH0 ADD MLOAD EQ ISZERO PUSH2 0x1E23 PUSH1 0x6 PUSH1 0x40 MLOAD DUP1 PUSH1 0x40 ADD PUSH1 0x40 MSTORE DUP1 PUSH1 0x11 DUP2 MSTORE PUSH1 0x20 ADD PUSH32 0x56617269616E74206E6F7420666F756E64000000000000000000000000000000 DUP2 MSTORE POP PUSH2 0x12B1 JUMP JUMPDEST SWAP1 PUSH2 0x1E64 JUMPI PUSH1 0x40 MLOAD PUSH32 0x8C379A000000000000000000000000000000000000000000000000000000000 DUP2 MSTORE PUSH1 0x4 ADD PUSH2 0x1E5B SWAP2 SWAP1 PUSH2 0xA739 JUMP JUMPDEST PUSH1 0x40 MLOAD DUP1 SWAP2 SUB SWAP1 REVERT JUMPDEST POP DUP1 PUSH1 0x20 ADD MLOAD PUSH1 0x80 ADD MLOAD DUP5 GT ISZERO PUSH2 0x1E94 PUSH1 0x5 PUSH1 0x40 MLOAD DUP1 PUSH1 0x60 ADD PUSH1 0x40 MSTORE DUP1 PUSH1 0x2C DUP2 MSTORE PUSH1 0x20 ADD PUSH2 0xE89D PUSH1 0x2C SWAP2 CODECOPY PUSH2 0x12B1 JUMP JUMPDEST SWAP1 PUSH2 0x1ED5 JUMPI PUSH1 0x40 MLOAD PUSH32 0x8C379A000000000000000000000000000000000000000000000000000000000 DUP2 MSTORE PUSH1 0x4 ADD PUSH2 0x1ECC SWAP2 SWAP1 PUSH2 0xA739 JUMP JUMPDEST PUSH1 0x40 MLOAD DUP1 SWAP2 SUB SWAP1 REVERT JUMPDEST POP PUSH1 0x11 PUSH0 DUP2 SLOAD DUP1 SWAP3 SWAP2 SWAP1 PUSH2 0x1EE8 SWAP1 PUSH2 0xC4F2 JUMP JUMPDEST SWAP2 SWAP1 POP SSTORE POP PUSH0 PUSH1 0x40 MLOAD DUP1 PUSH1 0xA0 ADD PUSH1 0x40 MSTORE DUP1 PUSH1 0x11 SLOAD DUP2 MSTORE PUSH1 0x20 ADD DUP9 DUP2 MSTORE PUSH1 0x20 ADD DUP7 DUP2 MSTORE PUSH1 0x20 ADD DUP8 DUP2 MSTORE PUSH1 0x20 ADD TIMESTAMP DUP2 MSTORE POP SWAP1 POP PUSH0 DUP1 PUSH0 CALLER PUSH20 0xFFFFFFFFFFFFFFFFFFFFFFFFFFFFFFFFFFFFFFFF AND PUSH20 0xFFFFFFFFFFFFFFFFFFFFFFFFFFFFFFFFFFFFFFFF AND DUP2 MSTORE PUSH1 0x20 ADD SWAP1 DUP2 MSTORE PUSH1 0x20 ADD PUSH0 KECCAK256 PUSH0 ADD SLOAD SUB PUSH2 0x1F6C JUMPI PUSH2 0x1F67 DUP2 PUSH2 0x56CE JUMP JUMPDEST PUSH2 0x21A4 JUMP JUMPDEST PUSH0 DUP1 JUMPDEST PUSH0 DUP1 CALLER PUSH20 0xFFFFFFFFFFFFFFFFFFFFFFFFFFFFFFFFFFFFFFFF AND PUSH20 0xFFFFFFFFFFFFFFFFFFFFFFFFFFFFFFFFFFFFFFFF AND DUP2 MSTORE PUSH1 0x20 ADD SWAP1 DUP2 MSTORE PUSH1 0x20 ADD PUSH0 KECCAK256 PUSH1 0x2 ADD DUP1 SLOAD SWAP1 POP DUP2 LT ISZERO PUSH2 0x20A2 JUMPI DUP9 PUSH0 DUP1 CALLER PUSH20 0xFFFFFFFFFFFFFFFFFFFFFFFFFFFFFFFFFFFFFFFF AND PUSH20 0xFFFFFFFFFFFFFFFFFFFFFFFFFFFFFFFFFFFFFFFF AND DUP2 MSTORE PUSH1 0x20 ADD SWAP1 DUP2 MSTORE PUSH1 0x20 ADD PUSH0 KECCAK256 PUSH1 0x2 ADD DUP3 DUP2 SLOAD DUP2 LT PUSH2 0x200B JUMPI PUSH2 0x200A PUSH2 0xCA58 JUMP JUMPDEST JUMPDEST SWAP1 PUSH0 MSTORE PUSH1 0x20 PUSH0 KECCAK256 SWAP1 PUSH1 0x5 MUL ADD PUSH1 0x1 ADD SLOAD EQ DUP1 ISZERO PUSH2 0x2087 JUMPI POP DUP8 PUSH0 DUP1 CALLER PUSH20 0xFFFFFFFFFFFFFFFFFFFFFFFFFFFFFFFFFFFFFFFF AND PUSH20 0xFFFFFFFFFFFFFFFFFFFFFFFFFFFFFFFFFFFFFFFF AND DUP2 MSTORE PUSH1 0x20 ADD SWAP1 DUP2 MSTORE PUSH1 0x20 ADD PUSH0 KECCAK256 PUSH1 0x2 ADD DUP3 DUP2 SLOAD DUP2 LT PUSH2 0x2075 JUMPI PUSH2 0x2074 PUSH2 0xCA58 JUMP JUMPDEST JUMPDEST SWAP1 PUSH0 MSTORE PUSH1 0x20 PUSH0 KECCAK256 SWAP1 PUSH1 0x5 MUL ADD PUSH1 0x3 ADD SLOAD EQ JUMPDEST ISZERO PUSH2 0x2095 JUMPI PUSH1 0x1 SWAP2 POP PUSH2 0x20A2 JUMP JUMPDEST DUP1 DUP1 PUSH1 0x1 ADD SWAP2 POP POP PUSH2 0x1F6F JUMP JUMPDEST POP DUP1 ISZERO PUSH2 0x20C8 PUSH1 0x6 PUSH1 0x40 MLOAD DUP1 PUSH1 0x60 ADD PUSH1 0x40 MSTORE DUP1 PUSH1 0x2A DUP2 MSTORE PUSH1 0x20 ADD PUSH2 0xE873 PUSH1 0x2A SWAP2 CODECOPY PUSH2 0x12B1 JUMP JUMPDEST SWAP1 PUSH2 0x2109 JUMPI PUSH1 0x40 MLOAD PUSH32 0x8C379A000000000000000000000000000000000000000000000000000000000 DUP2 MSTORE PUSH1 0x4 ADD PUSH2 0x2100 SWAP2 SWAP1 PUSH2 0xA739 JUMP JUMPDEST PUSH1 0x40 MLOAD DUP1 SWAP2 SUB SWAP1 REVERT JUMPDEST POP PUSH0 DUP1 CALLER PUSH20 0xFFFFFFFFFFFFFFFFFFFFFFFFFFFFFFFFFFFFFFFF AND PUSH20 0xFFFFFFFFFFFFFFFFFFFFFFFFFFFFFFFFFFFFFFFF AND DUP2 MSTORE PUSH1 0x20 ADD SWAP1 DUP2 MSTORE PUSH1 0x20 ADD PUSH0 KECCAK256 PUSH1 0x2 ADD DUP3 SWAP1 DUP1 PUSH1 0x1 DUP2 SLOAD ADD DUP1 DUP3 SSTORE DUP1 SWAP2 POP POP PUSH1 0x1 SWAP1 SUB SWAP1 PUSH0 MSTORE PUSH1 0x20 PUSH0 KECCAK256 SWAP1 PUSH1 0x5 MUL ADD PUSH0 SWAP1 SWAP2 SWAP1 SWAP2 SWAP1 SWAP2 POP PUSH0 DUP3 ADD MLOAD DUP2 PUSH0 ADD SSTORE PUSH1 0x20 DUP3 ADD MLOAD DUP2 PUSH1 0x1 ADD SSTORE PUSH1 0x40 DUP3 ADD MLOAD DUP2 PUSH1 0x2 ADD SSTORE PUSH1 0x60 DUP3 ADD MLOAD DUP2 PUSH1 0x3 ADD SSTORE PUSH1 0x80 DUP3 ADD MLOAD DUP2 PUSH1 0x4 ADD SSTORE POP POP POP JUMPDEST PUSH1 0x14 PUSH0 SWAP1 SLOAD SWAP1 PUSH2 0x100 EXP SWAP1 DIV PUSH20 0xFFFFFFFFFFFFFFFFFFFFFFFFFFFFFFFFFFFFFFFF AND PUSH20 0xFFFFFFFFFFFFFFFFFFFFFFFFFFFFFFFFFFFFFFFF AND PUSH4 0x8AA393AC CALLER DUP10 DUP9 PUSH0 DUP1 PUSH1 0x1 PUSH1 0x40 MLOAD DUP8 PUSH4 0xFFFFFFFF AND PUSH1 0xE0 SHL DUP2 MSTORE PUSH1 0x4 ADD PUSH2 0x2209 SWAP7 SWAP6 SWAP5 SWAP4 SWAP3 SWAP2 SWAP1 PUSH2 0xD6FF JUMP JUMPDEST PUSH0 PUSH1 0x40 MLOAD DUP1 DUP4 SUB DUP2 PUSH0 DUP8 DUP1 EXTCODESIZE ISZERO DUP1 ISZERO PUSH2 0x2220 JUMPI PUSH0 DUP1 REVERT JUMPDEST POP GAS CALL ISZERO DUP1 ISZERO PUSH2 0x2232 JUMPI RETURNDATASIZE PUSH0 DUP1 RETURNDATACOPY RETURNDATASIZE PUSH0 REVERT JUMPDEST POP POP POP POP PUSH1 0x14 PUSH0 SWAP1 SLOAD SWAP1 PUSH2 0x100 EXP SWAP1 DIV PUSH20 0xFFFFFFFFFFFFFFFFFFFFFFFFFFFFFFFFFFFFFFFF AND PUSH20 0xFFFFFFFFFFFFFFFFFFFFFFFFFFFFFFFFFFFFFFFF AND PUSH4 0x8AA393AC CALLER DUP10 DUP9 DUP8 PUSH1 0x20 ADD MLOAD PUSH2 0x180 ADD MLOAD PUSH0 DUP1 PUSH1 0x40 MLOAD DUP8 PUSH4 0xFFFFFFFF AND PUSH1 0xE0 SHL DUP2 MSTORE PUSH1 0x4 ADD PUSH2 0x22A3 SWAP7 SWAP6 SWAP5 SWAP4 SWAP3 SWAP2 SWAP1 PUSH2 0xD6FF JUMP JUMPDEST PUSH0 PUSH1 0x40 MLOAD DUP1 DUP4 SUB DUP2 PUSH0 DUP8 DUP1 EXTCODESIZE ISZERO DUP1 ISZERO PUSH2 0x22BA JUMPI PUSH0 DUP1 REVERT JUMPDEST POP GAS CALL ISZERO DUP1 ISZERO PUSH2 0x22CC JUMPI RETURNDATASIZE PUSH0 DUP1 RETURNDATACOPY RETURNDATASIZE PUSH0 REVERT JUMPDEST POP POP POP POP PUSH1 0x14 PUSH0 SWAP1 SLOAD SWAP1 PUSH2 0x100 EXP SWAP1 DIV PUSH20 0xFFFFFFFFFFFFFFFFFFFFFFFFFFFFFFFFFFFFFFFF AND PUSH20 0xFFFFFFFFFFFFFFFFFFFFFFFFFFFFFFFFFFFFFFFF AND PUSH4 0xF954ED2D DUP5 PUSH1 0x20 ADD MLOAD PUSH2 0x180 ADD MLOAD PUSH1 0x40 MLOAD DUP3 PUSH4 0xFFFFFFFF AND PUSH1 0xE0 SHL DUP2 MSTORE PUSH1 0x4 ADD PUSH2 0x2333 SWAP2 SWAP1 PUSH2 0xB760 JUMP JUMPDEST PUSH0 PUSH1 0x40 MLOAD DUP1 DUP4 SUB DUP2 PUSH0 DUP8 DUP1 EXTCODESIZE ISZERO DUP1 ISZERO PUSH2 0x234A JUMPI PUSH0 DUP1 REVERT JUMPDEST POP GAS CALL ISZERO DUP1 ISZERO PUSH2 0x235C JUMPI RETURNDATASIZE PUSH0 DUP1 RETURNDATACOPY RETURNDATASIZE PUSH0 REVERT JUMPDEST POP POP POP POP DUP1 SWAP4 POP POP POP POP SWAP4 SWAP3 POP POP POP JUMP JUMPDEST PUSH2 0x2375 PUSH2 0x97E2 JUMP JUMPDEST PUSH0 DUP1 CALLER PUSH20 0xFFFFFFFFFFFFFFFFFFFFFFFFFFFFFFFFFFFFFFFF AND PUSH20 0xFFFFFFFFFFFFFFFFFFFFFFFFFFFFFFFFFFFFFFFF AND DUP2 MSTORE PUSH1 0x20 ADD SWAP1 DUP2 MSTORE PUSH1 0x20 ADD PUSH0 KECCAK256 PUSH1 0x40 MLOAD DUP1 PUSH1 0x60 ADD PUSH1 0x40 MSTORE SWAP1 DUP2 PUSH0 DUP3 ADD SLOAD DUP2 MSTORE PUSH1 0x20 ADD PUSH1 0x1 DUP3 ADD PUSH0 SWAP1 SLOAD SWAP1 PUSH2 0x100 EXP SWAP1 DIV PUSH20 0xFFFFFFFFFFFFFFFFFFFFFFFFFFFFFFFFFFFFFFFF AND PUSH20 0xFFFFFFFFFFFFFFFFFFFFFFFFFFFFFFFFFFFFFFFF AND PUSH20 0xFFFFFFFFFFFFFFFFFFFFFFFFFFFFFFFFFFFFFFFF AND DUP2 MSTORE PUSH1 0x20 ADD PUSH1 0x2 DUP3 ADD DUP1 SLOAD DUP1 PUSH1 0x20 MUL PUSH1 0x20 ADD PUSH1 0x40 MLOAD SWAP1 DUP2 ADD PUSH1 0x40 MSTORE DUP1 SWAP3 SWAP2 SWAP1 DUP2 DUP2 MSTORE PUSH1 0x20 ADD PUSH0 SWAP1 JUMPDEST DUP3 DUP3 LT ISZERO PUSH2 0x249F JUMPI DUP4 DUP3 SWAP1 PUSH0 MSTORE PUSH1 0x20 PUSH0 KECCAK256 SWAP1 PUSH1 0x5 MUL ADD PUSH1 0x40 MLOAD DUP1 PUSH1 0xA0 ADD PUSH1 0x40 MSTORE SWAP1 DUP2 PUSH0 DUP3 ADD SLOAD DUP2 MSTORE PUSH1 0x20 ADD PUSH1 0x1 DUP3 ADD SLOAD DUP2 MSTORE PUSH1 0x20 ADD PUSH1 0x2 DUP3 ADD SLOAD DUP2 MSTORE PUSH1 0x20 ADD PUSH1 0x3 DUP3 ADD SLOAD DUP2 MSTORE PUSH1 0x20 ADD PUSH1 0x4 DUP3 ADD SLOAD DUP2 MSTORE POP POP DUP2 MSTORE PUSH1 0x20 ADD SWAP1 PUSH1 0x1 ADD SWAP1 PUSH2 0x243E JUMP JUMPDEST POP POP POP POP DUP2 MSTORE POP POP SWAP1 POP SWAP1 JUMP JUMPDEST PUSH1 0x60 PUSH0 PUSH1 0x6 PUSH0 CALLER PUSH20 0xFFFFFFFFFFFFFFFFFFFFFFFFFFFFFFFFFFFFFFFF AND PUSH20 0xFFFFFFFFFFFFFFFFFFFFFFFFFFFFFFFFFFFFFFFF AND DUP2 MSTORE PUSH1 0x20 ADD SWAP1 DUP2 MSTORE PUSH1 0x20 ADD PUSH0 KECCAK256 DUP1 SLOAD SWAP1 POP PUSH8 0xFFFFFFFFFFFFFFFF DUP2 GT ISZERO PUSH2 0x2509 JUMPI PUSH2 0x2508 PUSH2 0x9D24 JUMP JUMPDEST JUMPDEST PUSH1 0x40 MLOAD SWAP1 DUP1 DUP3 MSTORE DUP1 PUSH1 0x20 MUL PUSH1 0x20 ADD DUP3 ADD PUSH1 0x40 MSTORE DUP1 ISZERO PUSH2 0x2542 JUMPI DUP2 PUSH1 0x20 ADD JUMPDEST PUSH2 0x252F PUSH2 0x9902 JUMP JUMPDEST DUP2 MSTORE PUSH1 0x20 ADD SWAP1 PUSH1 0x1 SWAP1 SUB SWAP1 DUP2 PUSH2 0x2527 JUMPI SWAP1 POP JUMPDEST POP SWAP1 POP PUSH0 PUSH1 0x6 PUSH0 CALLER PUSH20 0xFFFFFFFFFFFFFFFFFFFFFFFFFFFFFFFFFFFFFFFF AND PUSH20 0xFFFFFFFFFFFFFFFFFFFFFFFFFFFFFFFFFFFFFFFF AND DUP2 MSTORE PUSH1 0x20 ADD SWAP1 DUP2 MSTORE PUSH1 0x20 ADD PUSH0 KECCAK256 SWAP1 POP PUSH0 JUMPDEST DUP2 DUP1 SLOAD SWAP1 POP DUP2 LT ISZERO PUSH2 0x2835 JUMPI PUSH1 0x7 PUSH0 DUP4 DUP4 DUP2 SLOAD DUP2 LT PUSH2 0x25A9 JUMPI PUSH2 0x25A8 PUSH2 0xCA58 JUMP JUMPDEST JUMPDEST SWAP1 PUSH0 MSTORE PUSH1 0x20 PUSH0 KECCAK256 ADD SLOAD DUP2 MSTORE PUSH1 0x20 ADD SWAP1 DUP2 MSTORE PUSH1 0x20 ADD PUSH0 KECCAK256 PUSH1 0x40 MLOAD DUP1 PUSH1 0xA0 ADD PUSH1 0x40 MSTORE SWAP1 DUP2 PUSH0 DUP3 ADD SLOAD DUP2 MSTORE PUSH1 0x20 ADD PUSH1 0x1 DUP3 ADD DUP1 SLOAD DUP1 PUSH1 0x20 MUL PUSH1 0x20 ADD PUSH1 0x40 MLOAD SWAP1 DUP2 ADD PUSH1 0x40 MSTORE DUP1 SWAP3 SWAP2 SWAP1 DUP2 DUP2 MSTORE PUSH1 0x20 ADD PUSH0 SWAP1 JUMPDEST DUP3 DUP3 LT ISZERO PUSH2 0x2788 JUMPI DUP4 DUP3 SWAP1 PUSH0 MSTORE PUSH1 0x20 PUSH0 KECCAK256 SWAP1 PUSH1 0x5 MUL ADD PUSH1 0x40 MLOAD DUP1 PUSH1 0xA0 ADD PUSH1 0x40 MSTORE SWAP1 DUP2 PUSH0 DUP3 ADD DUP1 SLOAD DUP1 PUSH1 0x20 MUL PUSH1 0x20 ADD PUSH1 0x40 MLOAD SWAP1 DUP2 ADD PUSH1 0x40 MSTORE DUP1 SWAP3 SWAP2 SWAP1 DUP2 DUP2 MSTORE PUSH1 0x20 ADD DUP3 DUP1 SLOAD DUP1 ISZERO PUSH2 0x2664 JUMPI PUSH1 0x20 MUL DUP3 ADD SWAP2 SWAP1 PUSH0 MSTORE PUSH1 0x20 PUSH0 KECCAK256 SWAP1 JUMPDEST DUP2 SLOAD DUP2 MSTORE PUSH1 0x20 ADD SWAP1 PUSH1 0x1 ADD SWAP1 DUP1 DUP4 GT PUSH2 0x2650 JUMPI JUMPDEST POP POP POP POP POP DUP2 MSTORE PUSH1 0x20 ADD PUSH1 0x1 DUP3 ADD DUP1 SLOAD DUP1 PUSH1 0x20 MUL PUSH1 0x20 ADD PUSH1 0x40 MLOAD SWAP1 DUP2 ADD PUSH1 0x40 MSTORE DUP1 SWAP3 SWAP2 SWAP1 DUP2 DUP2 MSTORE PUSH1 0x20 ADD DUP3 DUP1 SLOAD DUP1 ISZERO PUSH2 0x26BA JUMPI PUSH1 0x20 MUL DUP3 ADD SWAP2 SWAP1 PUSH0 MSTORE PUSH1 0x20 PUSH0 KECCAK256 SWAP1 JUMPDEST DUP2 SLOAD DUP2 MSTORE PUSH1 0x20 ADD SWAP1 PUSH1 0x1 ADD SWAP1 DUP1 DUP4 GT PUSH2 0x26A6 JUMPI JUMPDEST POP POP POP POP POP DUP2 MSTORE PUSH1 0x20 ADD PUSH1 0x2 DUP3 ADD DUP1 SLOAD DUP1 PUSH1 0x20 MUL PUSH1 0x20 ADD PUSH1 0x40 MLOAD SWAP1 DUP2 ADD PUSH1 0x40 MSTORE DUP1 SWAP3 SWAP2 SWAP1 DUP2 DUP2 MSTORE PUSH1 0x20 ADD DUP3 DUP1 SLOAD DUP1 ISZERO PUSH2 0x2710 JUMPI PUSH1 0x20 MUL DUP3 ADD SWAP2 SWAP1 PUSH0 MSTORE PUSH1 0x20 PUSH0 KECCAK256 SWAP1 JUMPDEST DUP2 SLOAD DUP2 MSTORE PUSH1 0x20 ADD SWAP1 PUSH1 0x1 ADD SWAP1 DUP1 DUP4 GT PUSH2 0x26FC JUMPI JUMPDEST POP POP POP POP POP DUP2 MSTORE PUSH1 0x20 ADD PUSH1 0x3 DUP3 ADD DUP1 SLOAD DUP1 PUSH1 0x20 MUL PUSH1 0x20 ADD PUSH1 0x40 MLOAD SWAP1 DUP2 ADD PUSH1 0x40 MSTORE DUP1 SWAP3 SWAP2 SWAP1 DUP2 DUP2 MSTORE PUSH1 0x20 ADD DUP3 DUP1 SLOAD DUP1 ISZERO PUSH2 0x2766 JUMPI PUSH1 0x20 MUL DUP3 ADD SWAP2 SWAP1 PUSH0 MSTORE PUSH1 0x20 PUSH0 KECCAK256 SWAP1 JUMPDEST DUP2 SLOAD DUP2 MSTORE PUSH1 0x20 ADD SWAP1 PUSH1 0x1 ADD SWAP1 DUP1 DUP4 GT PUSH2 0x2752 JUMPI JUMPDEST POP POP POP POP POP DUP2 MSTORE PUSH1 0x20 ADD PUSH1 0x4 DUP3 ADD SLOAD DUP2 MSTORE POP POP DUP2 MSTORE PUSH1 0x20 ADD SWAP1 PUSH1 0x1 ADD SWAP1 PUSH2 0x25F7 JUMP JUMPDEST POP POP POP POP DUP2 MSTORE PUSH1 0x20 ADD PUSH1 0x2 DUP3 ADD PUSH0 SWAP1 SLOAD SWAP1 PUSH2 0x100 EXP SWAP1 DIV PUSH20 0xFFFFFFFFFFFFFFFFFFFFFFFFFFFFFFFFFFFFFFFF AND PUSH20 0xFFFFFFFFFFFFFFFFFFFFFFFFFFFFFFFFFFFFFFFF AND PUSH20 0xFFFFFFFFFFFFFFFFFFFFFFFFFFFFFFFFFFFFFFFF AND DUP2 MSTORE PUSH1 0x20 ADD PUSH1 0x2 DUP3 ADD PUSH1 0x14 SWAP1 SLOAD SWAP1 PUSH2 0x100 EXP SWAP1 DIV PUSH1 0xFF AND ISZERO ISZERO ISZERO ISZERO DUP2 MSTORE PUSH1 0x20 ADD PUSH1 0x3 DUP3 ADD SLOAD DUP2 MSTORE POP POP DUP4 DUP3 DUP2 MLOAD DUP2 LT PUSH2 0x281D JUMPI PUSH2 0x281C PUSH2 0xCA58 JUMP JUMPDEST JUMPDEST PUSH1 0x20 MUL PUSH1 0x20 ADD ADD DUP2 SWAP1 MSTORE POP DUP1 DUP1 PUSH1 0x1 ADD SWAP2 POP POP PUSH2 0x2587 JUMP JUMPDEST POP DUP2 SWAP3 POP POP POP SWAP1 JUMP JUMPDEST PUSH0 PUSH1 0x17 PUSH0 SWAP1 SLOAD SWAP1 PUSH2 0x100 EXP SWAP1 DIV PUSH20 0xFFFFFFFFFFFFFFFFFFFFFFFFFFFFFFFFFFFFFFFF AND DUP1 PUSH20 0xFFFFFFFFFFFFFFFFFFFFFFFFFFFFFFFFFFFFFFFF AND CALLER PUSH20 0xFFFFFFFFFFFFFFFFFFFFFFFFFFFFFFFFFFFFFFFF AND EQ PUSH2 0x28CF JUMPI PUSH1 0x40 MLOAD PUSH32 0x8C379A000000000000000000000000000000000000000000000000000000000 DUP2 MSTORE PUSH1 0x4 ADD PUSH2 0x28C6 SWAP1 PUSH2 0xCD21 JUMP JUMPDEST PUSH1 0x40 MLOAD DUP1 SWAP2 SUB SWAP1 REVERT JUMPDEST DUP3 PUSH1 0x15 PUSH0 PUSH2 0x100 EXP DUP2 SLOAD DUP2 PUSH20 0xFFFFFFFFFFFFFFFFFFFFFFFFFFFFFFFFFFFFFFFF MUL NOT AND SWAP1 DUP4 PUSH20 0xFFFFFFFFFFFFFFFFFFFFFFFFFFFFFFFFFFFFFFFF AND MUL OR SWAP1 SSTORE POP PUSH1 0x1 SWAP2 POP POP SWAP2 SWAP1 POP JUMP JUMPDEST PUSH1 0x13 PUSH0 SWAP1 SLOAD SWAP1 PUSH2 0x100 EXP SWAP1 DIV PUSH20 0xFFFFFFFFFFFFFFFFFFFFFFFFFFFFFFFFFFFFFFFF AND DUP2 JUMP JUMPDEST PUSH2 0x2948 CALLER DUP3 PUSH2 0x841F JUMP JUMPDEST POP JUMP JUMPDEST PUSH1 0x6 PUSH1 0x20 MSTORE DUP2 PUSH0 MSTORE PUSH1 0x40 PUSH0 KECCAK256 DUP2 DUP2 SLOAD DUP2 LT PUSH2 0x2964 JUMPI PUSH0 DUP1 REVERT JUMPDEST SWAP1 PUSH0 MSTORE PUSH1 0x20 PUSH0 KECCAK256 ADD PUSH0 SWAP2 POP SWAP2 POP POP SLOAD DUP2 JUMP JUMPDEST PUSH0 PUSH1 0x17 PUSH0 SWAP1 SLOAD SWAP1 PUSH2 0x100 EXP SWAP1 DIV PUSH20 0xFFFFFFFFFFFFFFFFFFFFFFFFFFFFFFFFFFFFFFFF AND DUP1 PUSH20 0xFFFFFFFFFFFFFFFFFFFFFFFFFFFFFFFFFFFFFFFF AND CALLER PUSH20 0xFFFFFFFFFFFFFFFFFFFFFFFFFFFFFFFFFFFFFFFF AND EQ PUSH2 0x2A07 JUMPI PUSH1 0x40 MLOAD PUSH32 0x8C379A000000000000000000000000000000000000000000000000000000000 DUP2 MSTORE PUSH1 0x4 ADD PUSH2 0x29FE SWAP1 PUSH2 0xCD21 JUMP JUMPDEST PUSH1 0x40 MLOAD DUP1 SWAP2 SUB SWAP1 REVERT JUMPDEST DUP3 PUSH1 0x12 PUSH0 PUSH2 0x100 EXP DUP2 SLOAD DUP2 PUSH20 0xFFFFFFFFFFFFFFFFFFFFFFFFFFFFFFFFFFFFFFFF MUL NOT AND SWAP1 DUP4 PUSH20 0xFFFFFFFFFFFFFFFFFFFFFFFFFFFFFFFFFFFFFFFF AND MUL OR SWAP1 SSTORE POP PUSH1 0x1 SWAP2 POP POP SWAP2 SWAP1 POP JUMP JUMPDEST PUSH1 0x60 PUSH0 PUSH1 0x2 PUSH0 DUP5 PUSH20 0xFFFFFFFFFFFFFFFFFFFFFFFFFFFFFFFFFFFFFFFF AND PUSH20 0xFFFFFFFFFFFFFFFFFFFFFFFFFFFFFFFFFFFFFFFF AND DUP2 MSTORE PUSH1 0x20 ADD SWAP1 DUP2 MSTORE PUSH1 0x20 ADD PUSH0 KECCAK256 DUP1 SLOAD DUP1 PUSH1 0x20 MUL PUSH1 0x20 ADD PUSH1 0x40 MLOAD SWAP1 DUP2 ADD PUSH1 0x40 MSTORE DUP1 SWAP3 SWAP2 SWAP1 DUP2 DUP2 MSTORE PUSH1 0x20 ADD DUP3 DUP1 SLOAD DUP1 ISZERO PUSH2 0x2AD9 JUMPI PUSH1 0x20 MUL DUP3 ADD SWAP2 SWAP1 PUSH0 MSTORE PUSH1 0x20 PUSH0 KECCAK256 SWAP1 JUMPDEST DUP2 SLOAD DUP2 MSTORE PUSH1 0x20 ADD SWAP1 PUSH1 0x1 ADD SWAP1 DUP1 DUP4 GT PUSH2 0x2AC5 JUMPI JUMPDEST POP POP POP POP POP SWAP1 POP DUP1 MLOAD PUSH8 0xFFFFFFFFFFFFFFFF DUP2 GT ISZERO PUSH2 0x2AFB JUMPI PUSH2 0x2AFA PUSH2 0x9D24 JUMP JUMPDEST JUMPDEST PUSH1 0x40 MLOAD SWAP1 DUP1 DUP3 MSTORE DUP1 PUSH1 0x20 MUL PUSH1 0x20 ADD DUP3 ADD PUSH1 0x40 MSTORE DUP1 ISZERO PUSH2 0x2B34 JUMPI DUP2 PUSH1 0x20 ADD JUMPDEST PUSH2 0x2B21 PUSH2 0x9817 JUMP JUMPDEST DUP2 MSTORE PUSH1 0x20 ADD SWAP1 PUSH1 0x1 SWAP1 SUB SWAP1 DUP2 PUSH2 0x2B19 JUMPI SWAP1 POP JUMPDEST POP SWAP2 POP PUSH0 JUMPDEST DUP3 MLOAD DUP2 LT ISZERO PUSH2 0x2F42 JUMPI PUSH1 0x1 PUSH0 DUP4 DUP4 DUP2 MLOAD DUP2 LT PUSH2 0x2B58 JUMPI PUSH2 0x2B57 PUSH2 0xCA58 JUMP JUMPDEST JUMPDEST PUSH1 0x20 MUL PUSH1 0x20 ADD ADD MLOAD DUP2 MSTORE PUSH1 0x20 ADD SWAP1 DUP2 MSTORE PUSH1 0x20 ADD PUSH0 KECCAK256 PUSH1 0x40 MLOAD DUP1 PUSH2 0x260 ADD PUSH1 0x40 MSTORE SWAP1 DUP2 PUSH0 DUP3 ADD SLOAD DUP2 MSTORE PUSH1 0x20 ADD PUSH1 0x1 DUP3 ADD PUSH0 SWAP1 SLOAD SWAP1 PUSH2 0x100 EXP SWAP1 DIV PUSH20 0xFFFFFFFFFFFFFFFFFFFFFFFFFFFFFFFFFFFFFFFF AND PUSH20 0xFFFFFFFFFFFFFFFFFFFFFFFFFFFFFFFFFFFFFFFF AND PUSH20 0xFFFFFFFFFFFFFFFFFFFFFFFFFFFFFFFFFFFFFFFF AND DUP2 MSTORE PUSH1 0x20 ADD PUSH1 0x2 DUP3 ADD PUSH0 SWAP1 SLOAD SWAP1 PUSH2 0x100 EXP SWAP1 DIV PUSH20 0xFFFFFFFFFFFFFFFFFFFFFFFFFFFFFFFFFFFFFFFF AND PUSH20 0xFFFFFFFFFFFFFFFFFFFFFFFFFFFFFFFFFFFFFFFF AND PUSH20 0xFFFFFFFFFFFFFFFFFFFFFFFFFFFFFFFFFFFFFFFF AND DUP2 MSTORE PUSH1 0x20 ADD PUSH1 0x3 DUP3 ADD SLOAD DUP2 MSTORE PUSH1 0x20 ADD PUSH1 0x4 DUP3 ADD DUP1 SLOAD DUP1 PUSH1 0x20 MUL PUSH1 0x20 ADD PUSH1 0x40 MLOAD SWAP1 DUP2 ADD PUSH1 0x40 MSTORE DUP1 SWAP3 SWAP2 SWAP1 DUP2 DUP2 MSTORE PUSH1 0x20 ADD DUP3 DUP1 SLOAD DUP1 ISZERO PUSH2 0x2C83 JUMPI PUSH1 0x20 MUL DUP3 ADD SWAP2 SWAP1 PUSH0 MSTORE PUSH1 0x20 PUSH0 KECCAK256 SWAP1 JUMPDEST DUP2 SLOAD DUP2 MSTORE PUSH1 0x20 ADD SWAP1 PUSH1 0x1 ADD SWAP1 DUP1 DUP4 GT PUSH2 0x2C6F JUMPI JUMPDEST POP POP POP POP POP DUP2 MSTORE PUSH1 0x20 ADD PUSH1 0x5 DUP3 ADD DUP1 SLOAD DUP1 PUSH1 0x20 MUL PUSH1 0x20 ADD PUSH1 0x40 MLOAD SWAP1 DUP2 ADD PUSH1 0x40 MSTORE DUP1 SWAP3 SWAP2 SWAP1 DUP2 DUP2 MSTORE PUSH1 0x20 ADD DUP3 DUP1 SLOAD DUP1 ISZERO PUSH2 0x2CD9 JUMPI PUSH1 0x20 MUL DUP3 ADD SWAP2 SWAP1 PUSH0 MSTORE PUSH1 0x20 PUSH0 KECCAK256 SWAP1 JUMPDEST DUP2 SLOAD DUP2 MSTORE PUSH1 0x20 ADD SWAP1 PUSH1 0x1 ADD SWAP1 DUP1 DUP4 GT PUSH2 0x2CC5 JUMPI JUMPDEST POP POP POP POP POP DUP2 MSTORE PUSH1 0x20 ADD PUSH1 0x6 DUP3 ADD DUP1 SLOAD DUP1 PUSH1 0x20 MUL PUSH1 0x20 ADD PUSH1 0x40 MLOAD SWAP1 DUP2 ADD PUSH1 0x40 MSTORE DUP1 SWAP3 SWAP2 SWAP1 DUP2 DUP2 MSTORE PUSH1 0x20 ADD DUP3 DUP1 SLOAD DUP1 ISZERO PUSH2 0x2D2F JUMPI PUSH1 0x20 MUL DUP3 ADD SWAP2 SWAP1 PUSH0 MSTORE PUSH1 0x20 PUSH0 KECCAK256 SWAP1 JUMPDEST DUP2 SLOAD DUP2 MSTORE PUSH1 0x20 ADD SWAP1 PUSH1 0x1 ADD SWAP1 DUP1 DUP4 GT PUSH2 0x2D1B JUMPI JUMPDEST POP POP POP POP POP DUP2 MSTORE PUSH1 0x20 ADD PUSH1 0x7 DUP3 ADD DUP1 SLOAD DUP1 PUSH1 0x20 MUL PUSH1 0x20 ADD PUSH1 0x40 MLOAD SWAP1 DUP2 ADD PUSH1 0x40 MSTORE DUP1 SWAP3 SWAP2 SWAP1 DUP2 DUP2 MSTORE PUSH1 0x20 ADD DUP3 DUP1 SLOAD DUP1 ISZERO PUSH2 0x2D85 JUMPI PUSH1 0x20 MUL DUP3 ADD SWAP2 SWAP1 PUSH0 MSTORE PUSH1 0x20 PUSH0 KECCAK256 SWAP1 JUMPDEST DUP2 SLOAD DUP2 MSTORE PUSH1 0x20 ADD SWAP1 PUSH1 0x1 ADD SWAP1 DUP1 DUP4 GT PUSH2 0x2D71 JUMPI JUMPDEST POP POP POP POP POP DUP2 MSTORE PUSH1 0x20 ADD PUSH1 0x8 DUP3 ADD DUP1 SLOAD DUP1 PUSH1 0x20 MUL PUSH1 0x20 ADD PUSH1 0x40 MLOAD SWAP1 DUP2 ADD PUSH1 0x40 MSTORE DUP1 SWAP3 SWAP2 SWAP1 DUP2 DUP2 MSTORE PUSH1 0x20 ADD DUP3 DUP1 SLOAD DUP1 ISZERO PUSH2 0x2DDB JUMPI PUSH1 0x20 MUL DUP3 ADD SWAP2 SWAP1 PUSH0 MSTORE PUSH1 0x20 PUSH0 KECCAK256 SWAP1 JUMPDEST DUP2 SLOAD DUP2 MSTORE PUSH1 0x20 ADD SWAP1 PUSH1 0x1 ADD SWAP1 DUP1 DUP4 GT PUSH2 0x2DC7 JUMPI JUMPDEST POP POP POP POP POP DUP2 MSTORE PUSH1 0x20 ADD PUSH1 0x9 DUP3 ADD DUP1 SLOAD DUP1 PUSH1 0x20 MUL PUSH1 0x20 ADD PUSH1 0x40 MLOAD SWAP1 DUP2 ADD PUSH1 0x40 MSTORE DUP1 SWAP3 SWAP2 SWAP1 DUP2 DUP2 MSTORE PUSH1 0x20 ADD DUP3 DUP1 SLOAD DUP1 ISZERO PUSH2 0x2E31 JUMPI PUSH1 0x20 MUL DUP3 ADD SWAP2 SWAP1 PUSH0 MSTORE PUSH1 0x20 PUSH0 KECCAK256 SWAP1 JUMPDEST DUP2 SLOAD DUP2 MSTORE PUSH1 0x20 ADD SWAP1 PUSH1 0x1 ADD SWAP1 DUP1 DUP4 GT PUSH2 0x2E1D JUMPI JUMPDEST POP POP POP POP POP DUP2 MSTORE PUSH1 0x20 ADD PUSH1 0xA DUP3 ADD DUP1 SLOAD DUP1 PUSH1 0x20 MUL PUSH1 0x20 ADD PUSH1 0x40 MLOAD SWAP1 DUP2 ADD PUSH1 0x40 MSTORE DUP1 SWAP3 SWAP2 SWAP1 DUP2 DUP2 MSTORE PUSH1 0x20 ADD DUP3 DUP1 SLOAD DUP1 ISZERO PUSH2 0x2E87 JUMPI PUSH1 0x20 MUL DUP3 ADD SWAP2 SWAP1 PUSH0 MSTORE PUSH1 0x20 PUSH0 KECCAK256 SWAP1 JUMPDEST DUP2 SLOAD DUP2 MSTORE PUSH1 0x20 ADD SWAP1 PUSH1 0x1 ADD SWAP1 DUP1 DUP4 GT PUSH2 0x2E73 JUMPI JUMPDEST POP POP POP POP POP DUP2 MSTORE PUSH1 0x20 ADD PUSH1 0xB DUP3 ADD SLOAD DUP2 MSTORE PUSH1 0x20 ADD PUSH1 0xC DUP3 ADD PUSH0 SWAP1 SLOAD SWAP1 PUSH2 0x100 EXP SWAP1 DIV PUSH1 0xFF AND PUSH1 0xFF AND PUSH1 0xFF AND DUP2 MSTORE PUSH1 0x20 ADD PUSH1 0xC DUP3 ADD PUSH1 0x1 SWAP1 SLOAD SWAP1 PUSH2 0x100 EXP SWAP1 DIV PUSH1 0xFF AND PUSH1 0xFF AND PUSH1 0xFF AND DUP2 MSTORE PUSH1 0x20 ADD PUSH1 0xD DUP3 ADD SLOAD DUP2 MSTORE PUSH1 0x20 ADD PUSH1 0xE DUP3 ADD SLOAD DUP2 MSTORE PUSH1 0x20 ADD PUSH1 0xF DUP3 ADD SLOAD DUP2 MSTORE PUSH1 0x20 ADD PUSH1 0x10 DUP3 ADD PUSH0 SWAP1 SLOAD SWAP1 PUSH2 0x100 EXP SWAP1 DIV PUSH1 0xFF AND PUSH1 0xFF AND PUSH1 0xFF AND DUP2 MSTORE PUSH1 0x20 ADD PUSH1 0x11 DUP3 ADD SLOAD DUP2 MSTORE POP POP DUP4 DUP3 DUP2 MLOAD DUP2 LT PUSH2 0x2F2A JUMPI PUSH2 0x2F29 PUSH2 0xCA58 JUMP JUMPDEST JUMPDEST PUSH1 0x20 MUL PUSH1 0x20 ADD ADD DUP2 SWAP1 MSTORE POP DUP1 DUP1 PUSH1 0x1 ADD SWAP2 POP POP PUSH2 0x2B39 JUMP JUMPDEST POP POP SWAP2 SWAP1 POP JUMP JUMPDEST PUSH1 0x4 PUSH1 0x20 MSTORE DUP1 PUSH0 MSTORE PUSH1 0x40 PUSH0 KECCAK256 PUSH0 SWAP2 POP SWAP1 POP SLOAD DUP2 JUMP JUMPDEST PUSH0 DUP1 DUP5 MLOAD GT PUSH2 0x2FA2 JUMPI PUSH1 0x40 MLOAD PUSH32 0x8C379A000000000000000000000000000000000000000000000000000000000 DUP2 MSTORE PUSH1 0x4 ADD PUSH2 0x2F99 SWAP1 PUSH2 0xD7F4 JUMP JUMPDEST PUSH1 0x40 MLOAD DUP1 SWAP2 SUB SWAP1 REVERT JUMPDEST PUSH1 0x64 DUP5 MLOAD LT PUSH2 0x2FE6 JUMPI PUSH1 0x40 MLOAD PUSH32 0x8C379A000000000000000000000000000000000000000000000000000000000 DUP2 MSTORE PUSH1 0x4 ADD PUSH2 0x2FDD SWAP1 PUSH2 0xD8A8 JUMP JUMPDEST PUSH1 0x40 MLOAD DUP1 SWAP2 SUB SWAP1 REVERT JUMPDEST PUSH1 0x1 DUP1 DUP2 GT ISZERO PUSH2 0x2FF9 JUMPI PUSH2 0x2FF8 PUSH2 0xBD9C JUMP JUMPDEST JUMPDEST DUP3 PUSH1 0x60 ADD MLOAD PUSH1 0x1 DUP2 GT ISZERO PUSH2 0x3010 JUMPI PUSH2 0x300F PUSH2 0xBD9C JUMP JUMPDEST JUMPDEST EQ PUSH2 0x3034 PUSH1 0xC PUSH1 0x40 MLOAD DUP1 PUSH1 0x60 ADD PUSH1 0x40 MSTORE DUP1 PUSH1 0x35 DUP2 MSTORE PUSH1 0x20 ADD PUSH2 0xE814 PUSH1 0x35 SWAP2 CODECOPY PUSH2 0x12B1 JUMP JUMPDEST SWAP1 PUSH2 0x3075 JUMPI PUSH1 0x40 MLOAD PUSH32 0x8C379A000000000000000000000000000000000000000000000000000000000 DUP2 MSTORE PUSH1 0x4 ADD PUSH2 0x306C SWAP2 SWAP1 PUSH2 0xA739 JUMP JUMPDEST PUSH1 0x40 MLOAD DUP1 SWAP2 SUB SWAP1 REVERT JUMPDEST POP PUSH0 PUSH1 0x13 PUSH0 SWAP1 SLOAD SWAP1 PUSH2 0x100 EXP SWAP1 DIV PUSH20 0xFFFFFFFFFFFFFFFFFFFFFFFFFFFFFFFFFFFFFFFF AND PUSH20 0xFFFFFFFFFFFFFFFFFFFFFFFFFFFFFFFFFFFFFFFF AND PUSH4 0xE00F0DAE CALLER PUSH1 0x40 MLOAD DUP3 PUSH4 0xFFFFFFFF AND PUSH1 0xE0 SHL DUP2 MSTORE PUSH1 0x4 ADD PUSH2 0x30D1 SWAP2 SWAP1 PUSH2 0xB760 JUMP JUMPDEST PUSH1 0x20 PUSH1 0x40 MLOAD DUP1 DUP4 SUB DUP2 DUP7 GAS STATICCALL ISZERO DUP1 ISZERO PUSH2 0x30EC JUMPI RETURNDATASIZE PUSH0 DUP1 RETURNDATACOPY RETURNDATASIZE PUSH0 REVERT JUMPDEST POP POP POP POP PUSH1 0x40 MLOAD RETURNDATASIZE PUSH1 0x1F NOT PUSH1 0x1F DUP3 ADD AND DUP3 ADD DUP1 PUSH1 0x40 MSTORE POP DUP2 ADD SWAP1 PUSH2 0x3110 SWAP2 SWAP1 PUSH2 0xD8C6 JUMP JUMPDEST SWAP1 POP PUSH0 PUSH20 0xFFFFFFFFFFFFFFFFFFFFFFFFFFFFFFFFFFFFFFFF AND DUP2 PUSH20 0xFFFFFFFFFFFFFFFFFFFFFFFFFFFFFFFFFFFFFFFF AND SUB PUSH2 0x3180 JUMPI PUSH1 0x40 MLOAD PUSH32 0x8C379A000000000000000000000000000000000000000000000000000000000 DUP2 MSTORE PUSH1 0x4 ADD PUSH2 0x3177 SWAP1 PUSH2 0xD961 JUMP JUMPDEST PUSH1 0x40 MLOAD DUP1 SWAP2 SUB SWAP1 REVERT JUMPDEST PUSH1 0xE PUSH0 DUP2 SLOAD DUP1 SWAP3 SWAP2 SWAP1 PUSH2 0x3192 SWAP1 PUSH2 0xC4F2 JUMP JUMPDEST SWAP2 SWAP1 POP SSTORE POP PUSH0 PUSH2 0x31A2 DUP7 CALLER PUSH2 0x8CE9 JUMP JUMPDEST SWAP1 POP PUSH0 PUSH1 0x40 MLOAD DUP1 PUSH2 0x260 ADD PUSH1 0x40 MSTORE DUP1 PUSH1 0xE SLOAD DUP2 MSTORE PUSH1 0x20 ADD DUP5 PUSH20 0xFFFFFFFFFFFFFFFFFFFFFFFFFFFFFFFFFFFFFFFF AND DUP2 MSTORE PUSH1 0x20 ADD CALLER PUSH20 0xFFFFFFFFFFFFFFFFFFFFFFFFFFFFFFFFFFFFFFFF AND DUP2 MSTORE PUSH1 0x20 ADD PUSH0 DUP2 MSTORE PUSH1 0x20 ADD DUP4 PUSH1 0xC0 ADD MLOAD DUP2 MSTORE PUSH1 0x20 ADD DUP4 PUSH0 ADD MLOAD DUP2 MSTORE PUSH1 0x20 ADD DUP4 PUSH1 0x20 ADD MLOAD DUP2 MSTORE PUSH1 0x20 ADD DUP4 PUSH1 0x40 ADD MLOAD DUP2 MSTORE PUSH1 0x20 ADD DUP4 PUSH1 0x60 ADD MLOAD DUP2 MSTORE PUSH1 0x20 ADD DUP4 PUSH1 0x80 ADD MLOAD DUP2 MSTORE PUSH1 0x20 ADD DUP4 PUSH1 0xA0 ADD MLOAD DUP2 MSTORE PUSH1 0x20 ADD DUP4 PUSH1 0xE0 ADD MLOAD DUP2 MSTORE PUSH1 0x20 ADD DUP7 PUSH1 0x40 ADD MLOAD PUSH1 0x1 DUP2 GT ISZERO PUSH2 0x325D JUMPI PUSH2 0x325C PUSH2 0xBD9C JUMP JUMPDEST JUMPDEST PUSH1 0xFF AND DUP2 MSTORE PUSH1 0x20 ADD PUSH1 0x1 DUP1 DUP2 GT ISZERO PUSH2 0x3278 JUMPI PUSH2 0x3277 PUSH2 0xBD9C JUMP JUMPDEST JUMPDEST DUP8 PUSH1 0x40 ADD MLOAD PUSH1 0x1 DUP2 GT ISZERO PUSH2 0x328F JUMPI PUSH2 0x328E PUSH2 0xBD9C JUMP JUMPDEST JUMPDEST EQ PUSH2 0x32AD JUMPI PUSH1 0x1 PUSH1 0x4 DUP2 GT ISZERO PUSH2 0x32A8 JUMPI PUSH2 0x32A7 PUSH2 0xBD9C JUMP JUMPDEST JUMPDEST PUSH2 0x32C1 JUMP JUMPDEST PUSH1 0x4 DUP1 DUP2 GT ISZERO PUSH2 0x32C0 JUMPI PUSH2 0x32BF PUSH2 0xBD9C JUMP JUMPDEST JUMPDEST JUMPDEST PUSH1 0xFF AND DUP2 MSTORE PUSH1 0x20 ADD DUP7 PUSH1 0x20 ADD MLOAD DUP2 MSTORE PUSH1 0x20 ADD PUSH0 DUP2 MSTORE PUSH1 0x20 ADD PUSH0 DUP2 MSTORE PUSH1 0x20 ADD DUP7 PUSH1 0x60 ADD MLOAD PUSH1 0x1 DUP2 GT ISZERO PUSH2 0x32F6 JUMPI PUSH2 0x32F5 PUSH2 0xBD9C JUMP JUMPDEST JUMPDEST PUSH1 0xFF AND DUP2 MSTORE PUSH1 0x20 ADD TIMESTAMP DUP2 MSTORE POP SWAP1 POP DUP1 PUSH1 0x1 PUSH0 PUSH1 0xE SLOAD DUP2 MSTORE PUSH1 0x20 ADD SWAP1 DUP2 MSTORE PUSH1 0x20 ADD PUSH0 KECCAK256 PUSH0 DUP3 ADD MLOAD DUP2 PUSH0 ADD SSTORE PUSH1 0x20 DUP3 ADD MLOAD DUP2 PUSH1 0x1 ADD PUSH0 PUSH2 0x100 EXP DUP2 SLOAD DUP2 PUSH20 0xFFFFFFFFFFFFFFFFFFFFFFFFFFFFFFFFFFFFFFFF MUL NOT AND SWAP1 DUP4 PUSH20 0xFFFFFFFFFFFFFFFFFFFFFFFFFFFFFFFFFFFFFFFF AND MUL OR SWAP1 SSTORE POP PUSH1 0x40 DUP3 ADD MLOAD DUP2 PUSH1 0x2 ADD PUSH0 PUSH2 0x100 EXP DUP2 SLOAD DUP2 PUSH20 0xFFFFFFFFFFFFFFFFFFFFFFFFFFFFFFFFFFFFFFFF MUL NOT AND SWAP1 DUP4 PUSH20 0xFFFFFFFFFFFFFFFFFFFFFFFFFFFFFFFFFFFFFFFF AND MUL OR SWAP1 SSTORE POP PUSH1 0x60 DUP3 ADD MLOAD DUP2 PUSH1 0x3 ADD SSTORE PUSH1 0x80 DUP3 ADD MLOAD DUP2 PUSH1 0x4 ADD SWAP1 DUP1 MLOAD SWAP1 PUSH1 0x20 ADD SWAP1 PUSH2 0x33D2 SWAP3 SWAP2 SWAP1 PUSH2 0x974C JUMP JUMPDEST POP PUSH1 0xA0 DUP3 ADD MLOAD DUP2 PUSH1 0x5 ADD SWAP1 DUP1 MLOAD SWAP1 PUSH1 0x20 ADD SWAP1 PUSH2 0x33EF SWAP3 SWAP2 SWAP1 PUSH2 0x974C JUMP JUMPDEST POP PUSH1 0xC0 DUP3 ADD MLOAD DUP2 PUSH1 0x6 ADD SWAP1 DUP1 MLOAD SWAP1 PUSH1 0x20 ADD SWAP1 PUSH2 0x340C SWAP3 SWAP2 SWAP1 PUSH2 0x9797 JUMP JUMPDEST POP PUSH1 0xE0 DUP3 ADD MLOAD DUP2 PUSH1 0x7 ADD SWAP1 DUP1 MLOAD SWAP1 PUSH1 0x20 ADD SWAP1 PUSH2 0x3429 SWAP3 SWAP2 SWAP1 PUSH2 0x974C JUMP JUMPDEST POP PUSH2 0x100 DUP3 ADD MLOAD DUP2 PUSH1 0x8 ADD SWAP1 DUP1 MLOAD SWAP1 PUSH1 0x20 ADD SWAP1 PUSH2 0x3447 SWAP3 SWAP2 SWAP1 PUSH2 0x974C JUMP JUMPDEST POP PUSH2 0x120 DUP3 ADD MLOAD DUP2 PUSH1 0x9 ADD SWAP1 DUP1 MLOAD SWAP1 PUSH1 0x20 ADD SWAP1 PUSH2 0x3465 SWAP3 SWAP2 SWAP1 PUSH2 0x974C JUMP JUMPDEST POP PUSH2 0x140 DUP3 ADD MLOAD DUP2 PUSH1 0xA ADD SWAP1 DUP1 MLOAD SWAP1 PUSH1 0x20 ADD SWAP1 PUSH2 0x3483 SWAP3 SWAP2 SWAP1 PUSH2 0x974C JUMP JUMPDEST POP PUSH2 0x160 DUP3 ADD MLOAD DUP2 PUSH1 0xB ADD SSTORE PUSH2 0x180 DUP3 ADD MLOAD DUP2 PUSH1 0xC ADD PUSH0 PUSH2 0x100 EXP DUP2 SLOAD DUP2 PUSH1 0xFF MUL NOT AND SWAP1 DUP4 PUSH1 0xFF AND MUL OR SWAP1 SSTORE POP PUSH2 0x1A0 DUP3 ADD MLOAD DUP2 PUSH1 0xC ADD PUSH1 0x1 PUSH2 0x100 EXP DUP2 SLOAD DUP2 PUSH1 0xFF MUL NOT AND SWAP1 DUP4 PUSH1 0xFF AND MUL OR SWAP1 SSTORE POP PUSH2 0x1C0 DUP3 ADD MLOAD DUP2 PUSH1 0xD ADD SSTORE PUSH2 0x1E0 DUP3 ADD MLOAD DUP2 PUSH1 0xE ADD SSTORE PUSH2 0x200 DUP3 ADD MLOAD DUP2 PUSH1 0xF ADD SSTORE PUSH2 0x220 DUP3 ADD MLOAD DUP2 PUSH1 0x10 ADD PUSH0 PUSH2 0x100 EXP DUP2 SLOAD DUP2 PUSH1 0xFF MUL NOT AND SWAP1 DUP4 PUSH1 0xFF AND MUL OR SWAP1 SSTORE POP PUSH2 0x240 DUP3 ADD MLOAD DUP2 PUSH1 0x11 ADD SSTORE SWAP1 POP POP PUSH0 PUSH1 0x1 DUP2 GT ISZERO PUSH2 0x3535 JUMPI PUSH2 0x3534 PUSH2 0xBD9C JUMP JUMPDEST JUMPDEST DUP6 PUSH1 0x40 ADD MLOAD PUSH1 0x1 DUP2 GT ISZERO PUSH2 0x354C JUMPI PUSH2 0x354B PUSH2 0xBD9C JUMP JUMPDEST JUMPDEST SUB PUSH2 0x355F JUMPI PUSH2 0x355E DUP7 PUSH1 0xE SLOAD CALLER PUSH2 0xCD0 JUMP JUMPDEST JUMPDEST PUSH0 TIMESTAMP NUMBER CALLER PUSH1 0xE SLOAD PUSH1 0x40 MLOAD PUSH1 0x20 ADD PUSH2 0x3579 SWAP5 SWAP4 SWAP3 SWAP2 SWAP1 PUSH2 0xD97F JUMP JUMPDEST PUSH1 0x40 MLOAD PUSH1 0x20 DUP2 DUP4 SUB SUB DUP2 MSTORE SWAP1 PUSH1 0x40 MSTORE DUP1 MLOAD SWAP1 PUSH1 0x20 ADD KECCAK256 SWAP1 POP PUSH32 0x4EC76446EB2AF2942C36AA8107DCFB0B8549BD84D1646289D0103AB8F6BF7A4E DUP2 PUSH1 0x40 MLOAD PUSH2 0x35C0 SWAP2 SWAP1 PUSH2 0xB15C JUMP JUMPDEST PUSH1 0x40 MLOAD DUP1 SWAP2 SUB SWAP1 LOG1 DUP1 PUSH1 0x4 PUSH0 CALLER PUSH20 0xFFFFFFFFFFFFFFFFFFFFFFFFFFFFFFFFFFFFFFFF AND PUSH20 0xFFFFFFFFFFFFFFFFFFFFFFFFFFFFFFFFFFFFFFFF AND DUP2 MSTORE PUSH1 0x20 ADD SWAP1 DUP2 MSTORE PUSH1 0x20 ADD PUSH0 KECCAK256 DUP2 SWAP1 SSTORE POP PUSH0 DUP3 PUSH1 0x80 ADD MLOAD MLOAD GT ISZERO PUSH2 0x365D JUMPI PUSH0 JUMPDEST DUP3 PUSH1 0x80 ADD MLOAD MLOAD DUP2 LT ISZERO PUSH2 0x365B JUMPI PUSH2 0x364E CALLER DUP5 PUSH1 0x80 ADD MLOAD DUP4 DUP2 MLOAD DUP2 LT PUSH2 0x3641 JUMPI PUSH2 0x3640 PUSH2 0xCA58 JUMP JUMPDEST JUMPDEST PUSH1 0x20 MUL PUSH1 0x20 ADD ADD MLOAD PUSH2 0x95CC JUMP JUMPDEST DUP1 DUP1 PUSH1 0x1 ADD SWAP2 POP POP PUSH2 0x3619 JUMP JUMPDEST POP JUMPDEST PUSH1 0x2 PUSH0 DUP4 PUSH1 0x20 ADD MLOAD PUSH20 0xFFFFFFFFFFFFFFFFFFFFFFFFFFFFFFFFFFFFFFFF AND PUSH20 0xFFFFFFFFFFFFFFFFFFFFFFFFFFFFFFFFFFFFFFFF AND DUP2 MSTORE PUSH1 0x20 ADD SWAP1 DUP2 MSTORE PUSH1 0x20 ADD PUSH0 KECCAK256 PUSH1 0xE SLOAD SWAP1 DUP1 PUSH1 0x1 DUP2 SLOAD ADD DUP1 DUP3 SSTORE DUP1 SWAP2 POP POP PUSH1 0x1 SWAP1 SUB SWAP1 PUSH0 MSTORE PUSH1 0x20 PUSH0 KECCAK256 ADD PUSH0 SWAP1 SWAP2 SWAP1 SWAP2 SWAP1 SWAP2 POP SSTORE PUSH1 0x3 PUSH1 0xE SLOAD SWAP1 DUP1 PUSH1 0x1 DUP2 SLOAD ADD DUP1 DUP3 SSTORE DUP1 SWAP2 POP POP PUSH1 0x1 SWAP1 SUB SWAP1 PUSH0 MSTORE PUSH1 0x20 PUSH0 KECCAK256 ADD PUSH0 SWAP1 SWAP2 SWAP1 SWAP2 SWAP1 SWAP2 POP SSTORE PUSH1 0xE SLOAD PUSH1 0x5 PUSH0 DUP4 DUP2 MSTORE PUSH1 0x20 ADD SWAP1 DUP2 MSTORE PUSH1 0x20 ADD PUSH0 KECCAK256 DUP2 SWAP1 SSTORE POP DUP1 SWAP5 POP POP POP POP POP SWAP4 SWAP3 POP POP POP JUMP JUMPDEST PUSH2 0x371A PUSH2 0x98D5 JUMP JUMPDEST PUSH0 DUP3 GT PUSH2 0x375D PUSH1 0x6 PUSH1 0x40 MLOAD DUP1 PUSH1 0x40 ADD PUSH1 0x40 MSTORE DUP1 PUSH1 0x1F DUP2 MSTORE PUSH1 0x20 ADD PUSH32 0x5175616E74697479206D7573742062652067726561746572207468616E203000 DUP2 MSTORE POP PUSH2 0x12B1 JUMP JUMPDEST SWAP1 PUSH2 0x379E JUMPI PUSH1 0x40 MLOAD PUSH32 0x8C379A000000000000000000000000000000000000000000000000000000000 DUP2 MSTORE PUSH1 0x4 ADD PUSH2 0x3795 SWAP2 SWAP1 PUSH2 0xA739 JUMP JUMPDEST PUSH1 0x40 MLOAD DUP1 SWAP2 SUB SWAP1 REVERT JUMPDEST POP PUSH0 DUP1 PUSH0 CALLER PUSH20 0xFFFFFFFFFFFFFFFFFFFFFFFFFFFFFFFFFFFFFFFF AND PUSH20 0xFFFFFFFFFFFFFFFFFFFFFFFFFFFFFFFFFFFFFFFF AND DUP2 MSTORE PUSH1 0x20 ADD SWAP1 DUP2 MSTORE PUSH1 0x20 ADD PUSH0 KECCAK256 SWAP1 POP PUSH0 DUP2 PUSH0 ADD SLOAD EQ ISZERO PUSH2 0x3825 PUSH1 0x7 PUSH1 0x40 MLOAD DUP1 PUSH1 0x40 ADD PUSH1 0x40 MSTORE DUP1 PUSH1 0x13 DUP2 MSTORE PUSH1 0x20 ADD PUSH32 0x4361727420646F6573206E6F7420657869737400000000000000000000000000 DUP2 MSTORE POP PUSH2 0x12B1 JUMP JUMPDEST SWAP1 PUSH2 0x3866 JUMPI PUSH1 0x40 MLOAD PUSH32 0x8C379A000000000000000000000000000000000000000000000000000000000 DUP2 MSTORE PUSH1 0x4 ADD PUSH2 0x385D SWAP2 SWAP1 PUSH2 0xA739 JUMP JUMPDEST PUSH1 0x40 MLOAD DUP1 SWAP2 SUB SWAP1 REVERT JUMPDEST POP PUSH0 DUP1 JUMPDEST DUP3 PUSH1 0x2 ADD DUP1 SLOAD SWAP1 POP DUP2 LT ISZERO PUSH2 0x3A9D JUMPI DUP6 DUP4 PUSH1 0x2 ADD DUP3 DUP2 SLOAD DUP2 LT PUSH2 0x3890 JUMPI PUSH2 0x388F PUSH2 0xCA58 JUMP JUMPDEST JUMPDEST SWAP1 PUSH0 MSTORE PUSH1 0x20 PUSH0 KECCAK256 SWAP1 PUSH1 0x5 MUL ADD PUSH0 ADD SLOAD SUB PUSH2 0x3A90 JUMPI PUSH0 PUSH1 0x12 PUSH0 SWAP1 SLOAD SWAP1 PUSH2 0x100 EXP SWAP1 DIV PUSH20 0xFFFFFFFFFFFFFFFFFFFFFFFFFFFFFFFFFFFFFFFF AND PUSH20 0xFFFFFFFFFFFFFFFFFFFFFFFFFFFFFFFFFFFFFFFF AND PUSH3 0x41C629 DUP6 PUSH1 0x2 ADD DUP5 DUP2 SLOAD DUP2 LT PUSH2 0x38F7 JUMPI PUSH2 0x38F6 PUSH2 0xCA58 JUMP JUMPDEST JUMPDEST SWAP1 PUSH0 MSTORE PUSH1 0x20 PUSH0 KECCAK256 SWAP1 PUSH1 0x5 MUL ADD PUSH1 0x1 ADD SLOAD DUP7 PUSH1 0x2 ADD DUP6 DUP2 SLOAD DUP2 LT PUSH2 0x391D JUMPI PUSH2 0x391C PUSH2 0xCA58 JUMP JUMPDEST JUMPDEST SWAP1 PUSH0 MSTORE PUSH1 0x20 PUSH0 KECCAK256 SWAP1 PUSH1 0x5 MUL ADD PUSH1 0x3 ADD SLOAD PUSH1 0x40 MLOAD DUP4 PUSH4 0xFFFFFFFF AND PUSH1 0xE0 SHL DUP2 MSTORE PUSH1 0x4 ADD PUSH2 0x394A SWAP3 SWAP2 SWAP1 PUSH2 0xD57D JUMP JUMPDEST PUSH1 0xC0 PUSH1 0x40 MLOAD DUP1 DUP4 SUB DUP2 DUP7 GAS STATICCALL ISZERO DUP1 ISZERO PUSH2 0x3965 JUMPI RETURNDATASIZE PUSH0 DUP1 RETURNDATACOPY RETURNDATASIZE PUSH0 REVERT JUMPDEST POP POP POP POP PUSH1 0x40 MLOAD RETURNDATASIZE PUSH1 0x1F NOT PUSH1 0x1F DUP3 ADD AND DUP3 ADD DUP1 PUSH1 0x40 MSTORE POP DUP2 ADD SWAP1 PUSH2 0x3989 SWAP2 SWAP1 PUSH2 0xD68E JUMP JUMPDEST SWAP1 POP DUP6 DUP2 PUSH1 0x20 ADD MLOAD PUSH1 0x80 ADD MLOAD LT ISZERO PUSH2 0x39BA PUSH1 0x8 PUSH1 0x40 MLOAD DUP1 PUSH1 0x60 ADD PUSH1 0x40 MSTORE DUP1 PUSH1 0x2C DUP2 MSTORE PUSH1 0x20 ADD PUSH2 0xE89D PUSH1 0x2C SWAP2 CODECOPY PUSH2 0x12B1 JUMP JUMPDEST SWAP1 PUSH2 0x39FB JUMPI PUSH1 0x40 MLOAD PUSH32 0x8C379A000000000000000000000000000000000000000000000000000000000 DUP2 MSTORE PUSH1 0x4 ADD PUSH2 0x39F2 SWAP2 SWAP1 PUSH2 0xA739 JUMP JUMPDEST PUSH1 0x40 MLOAD DUP1 SWAP2 SUB SWAP1 REVERT JUMPDEST POP DUP6 DUP5 PUSH1 0x2 ADD DUP4 DUP2 SLOAD DUP2 LT PUSH2 0x3A13 JUMPI PUSH2 0x3A12 PUSH2 0xCA58 JUMP JUMPDEST JUMPDEST SWAP1 PUSH0 MSTORE PUSH1 0x20 PUSH0 KECCAK256 SWAP1 PUSH1 0x5 MUL ADD PUSH1 0x2 ADD DUP2 SWAP1 SSTORE POP DUP4 PUSH1 0x2 ADD DUP3 DUP2 SLOAD DUP2 LT PUSH2 0x3A3C JUMPI PUSH2 0x3A3B PUSH2 0xCA58 JUMP JUMPDEST JUMPDEST SWAP1 PUSH0 MSTORE PUSH1 0x20 PUSH0 KECCAK256 SWAP1 PUSH1 0x5 MUL ADD PUSH1 0x40 MLOAD DUP1 PUSH1 0xA0 ADD PUSH1 0x40 MSTORE SWAP1 DUP2 PUSH0 DUP3 ADD SLOAD DUP2 MSTORE PUSH1 0x20 ADD PUSH1 0x1 DUP3 ADD SLOAD DUP2 MSTORE PUSH1 0x20 ADD PUSH1 0x2 DUP3 ADD SLOAD DUP2 MSTORE PUSH1 0x20 ADD PUSH1 0x3 DUP3 ADD SLOAD DUP2 MSTORE PUSH1 0x20 ADD PUSH1 0x4 DUP3 ADD SLOAD DUP2 MSTORE POP POP SWAP5 POP PUSH1 0x1 SWAP3 POP POP PUSH2 0x3A9D JUMP JUMPDEST DUP1 DUP1 PUSH1 0x1 ADD SWAP2 POP POP PUSH2 0x386A JUMP JUMPDEST POP DUP1 PUSH2 0x3ADF PUSH1 0x9 PUSH1 0x40 MLOAD DUP1 PUSH1 0x40 ADD PUSH1 0x40 MSTORE DUP1 PUSH1 0x16 DUP2 MSTORE PUSH1 0x20 ADD PUSH32 0x4974656D206E6F7420666F756E6420696E206361727400000000000000000000 DUP2 MSTORE POP PUSH2 0x12B1 JUMP JUMPDEST SWAP1 PUSH2 0x3B20 JUMPI PUSH1 0x40 MLOAD PUSH32 0x8C379A000000000000000000000000000000000000000000000000000000000 DUP2 MSTORE PUSH1 0x4 ADD PUSH2 0x3B17 SWAP2 SWAP1 PUSH2 0xA739 JUMP JUMPDEST PUSH1 0x40 MLOAD DUP1 SWAP2 SUB SWAP1 REVERT JUMPDEST POP POP POP SWAP3 SWAP2 POP POP JUMP JUMPDEST PUSH2 0x3B31 PUSH2 0x9945 JUMP JUMPDEST PUSH1 0x9 PUSH0 PUSH1 0xA PUSH0 DUP6 DUP2 MSTORE PUSH1 0x20 ADD SWAP1 DUP2 MSTORE PUSH1 0x20 ADD PUSH0 KECCAK256 SLOAD DUP2 MSTORE PUSH1 0x20 ADD SWAP1 DUP2 MSTORE PUSH1 0x20 ADD PUSH0 KECCAK256 PUSH1 0x40 MLOAD DUP1 PUSH1 0x80 ADD PUSH1 0x40 MSTORE SWAP1 DUP2 PUSH0 DUP3 ADD SLOAD DUP2 MSTORE PUSH1 0x20 ADD PUSH1 0x1 DUP3 ADD SLOAD DUP2 MSTORE PUSH1 0x20 ADD PUSH1 0x2 DUP3 ADD PUSH0 SWAP1 SLOAD SWAP1 PUSH2 0x100 EXP SWAP1 DIV PUSH20 0xFFFFFFFFFFFFFFFFFFFFFFFFFFFFFFFFFFFFFFFF AND PUSH20 0xFFFFFFFFFFFFFFFFFFFFFFFFFFFFFFFFFFFFFFFF AND PUSH20 0xFFFFFFFFFFFFFFFFFFFFFFFFFFFFFFFFFFFFFFFF AND DUP2 MSTORE PUSH1 0x20 ADD PUSH1 0x3 DUP3 ADD PUSH1 0x40 MLOAD DUP1 PUSH2 0x120 ADD PUSH1 0x40 MSTORE SWAP1 DUP2 PUSH0 DUP3 ADD DUP1 SLOAD PUSH2 0x3BE6 SWAP1 PUSH2 0xC566 JUMP JUMPDEST DUP1 PUSH1 0x1F ADD PUSH1 0x20 DUP1 SWAP2 DIV MUL PUSH1 0x20 ADD PUSH1 0x40 MLOAD SWAP1 DUP2 ADD PUSH1 0x40 MSTORE DUP1 SWAP3 SWAP2 SWAP1 DUP2 DUP2 MSTORE PUSH1 0x20 ADD DUP3 DUP1 SLOAD PUSH2 0x3C12 SWAP1 PUSH2 0xC566 JUMP JUMPDEST DUP1 ISZERO PUSH2 0x3C5D JUMPI DUP1 PUSH1 0x1F LT PUSH2 0x3C34 JUMPI PUSH2 0x100 DUP1 DUP4 SLOAD DIV MUL DUP4 MSTORE SWAP2 PUSH1 0x20 ADD SWAP2 PUSH2 0x3C5D JUMP JUMPDEST DUP3 ADD SWAP2 SWAP1 PUSH0 MSTORE PUSH1 0x20 PUSH0 KECCAK256 SWAP1 JUMPDEST DUP2 SLOAD DUP2 MSTORE SWAP1 PUSH1 0x1 ADD SWAP1 PUSH1 0x20 ADD DUP1 DUP4 GT PUSH2 0x3C40 JUMPI DUP3 SWAP1 SUB PUSH1 0x1F AND DUP3 ADD SWAP2 JUMPDEST POP POP POP POP POP DUP2 MSTORE PUSH1 0x20 ADD PUSH1 0x1 DUP3 ADD DUP1 SLOAD PUSH2 0x3C76 SWAP1 PUSH2 0xC566 JUMP JUMPDEST DUP1 PUSH1 0x1F ADD PUSH1 0x20 DUP1 SWAP2 DIV MUL PUSH1 0x20 ADD PUSH1 0x40 MLOAD SWAP1 DUP2 ADD PUSH1 0x40 MSTORE DUP1 SWAP3 SWAP2 SWAP1 DUP2 DUP2 MSTORE PUSH1 0x20 ADD DUP3 DUP1 SLOAD PUSH2 0x3CA2 SWAP1 PUSH2 0xC566 JUMP JUMPDEST DUP1 ISZERO PUSH2 0x3CED JUMPI DUP1 PUSH1 0x1F LT PUSH2 0x3CC4 JUMPI PUSH2 0x100 DUP1 DUP4 SLOAD DIV MUL DUP4 MSTORE SWAP2 PUSH1 0x20 ADD SWAP2 PUSH2 0x3CED JUMP JUMPDEST DUP3 ADD SWAP2 SWAP1 PUSH0 MSTORE PUSH1 0x20 PUSH0 KECCAK256 SWAP1 JUMPDEST DUP2 SLOAD DUP2 MSTORE SWAP1 PUSH1 0x1 ADD SWAP1 PUSH1 0x20 ADD DUP1 DUP4 GT PUSH2 0x3CD0 JUMPI DUP3 SWAP1 SUB PUSH1 0x1F AND DUP3 ADD SWAP2 JUMPDEST POP POP POP POP POP DUP2 MSTORE PUSH1 0x20 ADD PUSH1 0x2 DUP3 ADD DUP1 SLOAD PUSH2 0x3D06 SWAP1 PUSH2 0xC566 JUMP JUMPDEST DUP1 PUSH1 0x1F ADD PUSH1 0x20 DUP1 SWAP2 DIV MUL PUSH1 0x20 ADD PUSH1 0x40 MLOAD SWAP1 DUP2 ADD PUSH1 0x40 MSTORE DUP1 SWAP3 SWAP2 SWAP1 DUP2 DUP2 MSTORE PUSH1 0x20 ADD DUP3 DUP1 SLOAD PUSH2 0x3D32 SWAP1 PUSH2 0xC566 JUMP JUMPDEST DUP1 ISZERO PUSH2 0x3D7D JUMPI DUP1 PUSH1 0x1F LT PUSH2 0x3D54 JUMPI PUSH2 0x100 DUP1 DUP4 SLOAD DIV MUL DUP4 MSTORE SWAP2 PUSH1 0x20 ADD SWAP2 PUSH2 0x3D7D JUMP JUMPDEST DUP3 ADD SWAP2 SWAP1 PUSH0 MSTORE PUSH1 0x20 PUSH0 KECCAK256 SWAP1 JUMPDEST DUP2 SLOAD DUP2 MSTORE SWAP1 PUSH1 0x1 ADD SWAP1 PUSH1 0x20 ADD DUP1 DUP4 GT PUSH2 0x3D60 JUMPI DUP3 SWAP1 SUB PUSH1 0x1F AND DUP3 ADD SWAP2 JUMPDEST POP POP POP POP POP DUP2 MSTORE PUSH1 0x20 ADD PUSH1 0x3 DUP3 ADD DUP1 SLOAD PUSH2 0x3D96 SWAP1 PUSH2 0xC566 JUMP JUMPDEST DUP1 PUSH1 0x1F ADD PUSH1 0x20 DUP1 SWAP2 DIV MUL PUSH1 0x20 ADD PUSH1 0x40 MLOAD SWAP1 DUP2 ADD PUSH1 0x40 MSTORE DUP1 SWAP3 SWAP2 SWAP1 DUP2 DUP2 MSTORE PUSH1 0x20 ADD DUP3 DUP1 SLOAD PUSH2 0x3DC2 SWAP1 PUSH2 0xC566 JUMP JUMPDEST DUP1 ISZERO PUSH2 0x3E0D JUMPI DUP1 PUSH1 0x1F LT PUSH2 0x3DE4 JUMPI PUSH2 0x100 DUP1 DUP4 SLOAD DIV MUL DUP4 MSTORE SWAP2 PUSH1 0x20 ADD SWAP2 PUSH2 0x3E0D JUMP JUMPDEST DUP3 ADD SWAP2 SWAP1 PUSH0 MSTORE PUSH1 0x20 PUSH0 KECCAK256 SWAP1 JUMPDEST DUP2 SLOAD DUP2 MSTORE SWAP1 PUSH1 0x1 ADD SWAP1 PUSH1 0x20 ADD DUP1 DUP4 GT PUSH2 0x3DF0 JUMPI DUP3 SWAP1 SUB PUSH1 0x1F AND DUP3 ADD SWAP2 JUMPDEST POP POP POP POP POP DUP2 MSTORE PUSH1 0x20 ADD PUSH1 0x4 DUP3 ADD DUP1 SLOAD PUSH2 0x3E26 SWAP1 PUSH2 0xC566 JUMP JUMPDEST DUP1 PUSH1 0x1F ADD PUSH1 0x20 DUP1 SWAP2 DIV MUL PUSH1 0x20 ADD PUSH1 0x40 MLOAD SWAP1 DUP2 ADD PUSH1 0x40 MSTORE DUP1 SWAP3 SWAP2 SWAP1 DUP2 DUP2 MSTORE PUSH1 0x20 ADD DUP3 DUP1 SLOAD PUSH2 0x3E52 SWAP1 PUSH2 0xC566 JUMP JUMPDEST DUP1 ISZERO PUSH2 0x3E9D JUMPI DUP1 PUSH1 0x1F LT PUSH2 0x3E74 JUMPI PUSH2 0x100 DUP1 DUP4 SLOAD DIV MUL DUP4 MSTORE SWAP2 PUSH1 0x20 ADD SWAP2 PUSH2 0x3E9D JUMP JUMPDEST DUP3 ADD SWAP2 SWAP1 PUSH0 MSTORE PUSH1 0x20 PUSH0 KECCAK256 SWAP1 JUMPDEST DUP2 SLOAD DUP2 MSTORE SWAP1 PUSH1 0x1 ADD SWAP1 PUSH1 0x20 ADD DUP1 DUP4 GT PUSH2 0x3E80 JUMPI DUP3 SWAP1 SUB PUSH1 0x1F AND DUP3 ADD SWAP2 JUMPDEST POP POP POP POP POP DUP2 MSTORE PUSH1 0x20 ADD PUSH1 0x5 DUP3 ADD DUP1 SLOAD PUSH2 0x3EB6 SWAP1 PUSH2 0xC566 JUMP JUMPDEST DUP1 PUSH1 0x1F ADD PUSH1 0x20 DUP1 SWAP2 DIV MUL PUSH1 0x20 ADD PUSH1 0x40 MLOAD SWAP1 DUP2 ADD PUSH1 0x40 MSTORE DUP1 SWAP3 SWAP2 SWAP1 DUP2 DUP2 MSTORE PUSH1 0x20 ADD DUP3 DUP1 SLOAD PUSH2 0x3EE2 SWAP1 PUSH2 0xC566 JUMP JUMPDEST DUP1 ISZERO PUSH2 0x3F2D JUMPI DUP1 PUSH1 0x1F LT PUSH2 0x3F04 JUMPI PUSH2 0x100 DUP1 DUP4 SLOAD DIV MUL DUP4 MSTORE SWAP2 PUSH1 0x20 ADD SWAP2 PUSH2 0x3F2D JUMP JUMPDEST DUP3 ADD SWAP2 SWAP1 PUSH0 MSTORE PUSH1 0x20 PUSH0 KECCAK256 SWAP1 JUMPDEST DUP2 SLOAD DUP2 MSTORE SWAP1 PUSH1 0x1 ADD SWAP1 PUSH1 0x20 ADD DUP1 DUP4 GT PUSH2 0x3F10 JUMPI DUP3 SWAP1 SUB PUSH1 0x1F AND DUP3 ADD SWAP2 JUMPDEST POP POP POP POP POP DUP2 MSTORE PUSH1 0x20 ADD PUSH1 0x6 DUP3 ADD DUP1 SLOAD PUSH2 0x3F46 SWAP1 PUSH2 0xC566 JUMP JUMPDEST DUP1 PUSH1 0x1F ADD PUSH1 0x20 DUP1 SWAP2 DIV MUL PUSH1 0x20 ADD PUSH1 0x40 MLOAD SWAP1 DUP2 ADD PUSH1 0x40 MSTORE DUP1 SWAP3 SWAP2 SWAP1 DUP2 DUP2 MSTORE PUSH1 0x20 ADD DUP3 DUP1 SLOAD PUSH2 0x3F72 SWAP1 PUSH2 0xC566 JUMP JUMPDEST DUP1 ISZERO PUSH2 0x3FBD JUMPI DUP1 PUSH1 0x1F LT PUSH2 0x3F94 JUMPI PUSH2 0x100 DUP1 DUP4 SLOAD DIV MUL DUP4 MSTORE SWAP2 PUSH1 0x20 ADD SWAP2 PUSH2 0x3FBD JUMP JUMPDEST DUP3 ADD SWAP2 SWAP1 PUSH0 MSTORE PUSH1 0x20 PUSH0 KECCAK256 SWAP1 JUMPDEST DUP2 SLOAD DUP2 MSTORE SWAP1 PUSH1 0x1 ADD SWAP1 PUSH1 0x20 ADD DUP1 DUP4 GT PUSH2 0x3FA0 JUMPI DUP3 SWAP1 SUB PUSH1 0x1F AND DUP3 ADD SWAP2 JUMPDEST POP POP POP POP POP DUP2 MSTORE PUSH1 0x20 ADD PUSH1 0x7 DUP3 ADD DUP1 SLOAD PUSH2 0x3FD6 SWAP1 PUSH2 0xC566 JUMP JUMPDEST DUP1 PUSH1 0x1F ADD PUSH1 0x20 DUP1 SWAP2 DIV MUL PUSH1 0x20 ADD PUSH1 0x40 MLOAD SWAP1 DUP2 ADD PUSH1 0x40 MSTORE DUP1 SWAP3 SWAP2 SWAP1 DUP2 DUP2 MSTORE PUSH1 0x20 ADD DUP3 DUP1 SLOAD PUSH2 0x4002 SWAP1 PUSH2 0xC566 JUMP JUMPDEST DUP1 ISZERO PUSH2 0x404D JUMPI DUP1 PUSH1 0x1F LT PUSH2 0x4024 JUMPI PUSH2 0x100 DUP1 DUP4 SLOAD DIV MUL DUP4 MSTORE SWAP2 PUSH1 0x20 ADD SWAP2 PUSH2 0x404D JUMP JUMPDEST DUP3 ADD SWAP2 SWAP1 PUSH0 MSTORE PUSH1 0x20 PUSH0 KECCAK256 SWAP1 JUMPDEST DUP2 SLOAD DUP2 MSTORE SWAP1 PUSH1 0x1 ADD SWAP1 PUSH1 0x20 ADD DUP1 DUP4 GT PUSH2 0x4030 JUMPI DUP3 SWAP1 SUB PUSH1 0x1F AND DUP3 ADD SWAP2 JUMPDEST POP POP POP POP POP DUP2 MSTORE PUSH1 0x20 ADD PUSH1 0x8 DUP3 ADD DUP1 SLOAD PUSH2 0x4066 SWAP1 PUSH2 0xC566 JUMP JUMPDEST DUP1 PUSH1 0x1F ADD PUSH1 0x20 DUP1 SWAP2 DIV MUL PUSH1 0x20 ADD PUSH1 0x40 MLOAD SWAP1 DUP2 ADD PUSH1 0x40 MSTORE DUP1 SWAP3 SWAP2 SWAP1 DUP2 DUP2 MSTORE PUSH1 0x20 ADD DUP3 DUP1 SLOAD PUSH2 0x4092 SWAP1 PUSH2 0xC566 JUMP JUMPDEST DUP1 ISZERO PUSH2 0x40DD JUMPI DUP1 PUSH1 0x1F LT PUSH2 0x40B4 JUMPI PUSH2 0x100 DUP1 DUP4 SLOAD DIV MUL DUP4 MSTORE SWAP2 PUSH1 0x20 ADD SWAP2 PUSH2 0x40DD JUMP JUMPDEST DUP3 ADD SWAP2 SWAP1 PUSH0 MSTORE PUSH1 0x20 PUSH0 KECCAK256 SWAP1 JUMPDEST DUP2 SLOAD DUP2 MSTORE SWAP1 PUSH1 0x1 ADD SWAP1 PUSH1 0x20 ADD DUP1 DUP4 GT PUSH2 0x40C0 JUMPI DUP3 SWAP1 SUB PUSH1 0x1F AND DUP3 ADD SWAP2 JUMPDEST POP POP POP POP POP DUP2 MSTORE POP POP DUP2 MSTORE POP POP SWAP1 POP SWAP2 SWAP1 POP JUMP JUMPDEST PUSH0 DUP1 PUSH0 SWAP1 POP JUMPDEST DUP3 MLOAD DUP2 LT ISZERO PUSH2 0x4131 JUMPI PUSH2 0x4124 CALLER DUP5 DUP4 DUP2 MLOAD DUP2 LT PUSH2 0x4117 JUMPI PUSH2 0x4116 PUSH2 0xCA58 JUMP JUMPDEST JUMPDEST PUSH1 0x20 MUL PUSH1 0x20 ADD ADD MLOAD PUSH2 0x841F JUMP JUMPDEST DUP1 DUP1 PUSH1 0x1 ADD SWAP2 POP POP PUSH2 0x40F7 JUMP JUMPDEST POP PUSH1 0x1 SWAP1 POP SWAP2 SWAP1 POP JUMP JUMPDEST PUSH0 PUSH1 0x17 PUSH0 SWAP1 SLOAD SWAP1 PUSH2 0x100 EXP SWAP1 DIV PUSH20 0xFFFFFFFFFFFFFFFFFFFFFFFFFFFFFFFFFFFFFFFF AND DUP1 PUSH20 0xFFFFFFFFFFFFFFFFFFFFFFFFFFFFFFFFFFFFFFFF AND CALLER PUSH20 0xFFFFFFFFFFFFFFFFFFFFFFFFFFFFFFFFFFFFFFFF AND EQ PUSH2 0x41CC JUMPI PUSH1 0x40 MLOAD PUSH32 0x8C379A000000000000000000000000000000000000000000000000000000000 DUP2 MSTORE PUSH1 0x4 ADD PUSH2 0x41C3 SWAP1 PUSH2 0xCD21 JUMP JUMPDEST PUSH1 0x40 MLOAD DUP1 SWAP2 SUB SWAP1 REVERT JUMPDEST DUP3 PUSH1 0x14 PUSH0 PUSH2 0x100 EXP DUP2 SLOAD DUP2 PUSH20 0xFFFFFFFFFFFFFFFFFFFFFFFFFFFFFFFFFFFFFFFF MUL NOT AND SWAP1 DUP4 PUSH20 0xFFFFFFFFFFFFFFFFFFFFFFFFFFFFFFFFFFFFFFFF AND MUL OR SWAP1 SSTORE POP PUSH1 0x1 SWAP2 POP POP SWAP2 SWAP1 POP JUMP JUMPDEST PUSH1 0x17 PUSH0 SWAP1 SLOAD SWAP1 PUSH2 0x100 EXP SWAP1 DIV PUSH20 0xFFFFFFFFFFFFFFFFFFFFFFFFFFFFFFFFFFFFFFFF AND DUP2 JUMP JUMPDEST PUSH1 0x60 PUSH0 DUP3 MLOAD PUSH8 0xFFFFFFFFFFFFFFFF DUP2 GT ISZERO PUSH2 0x4259 JUMPI PUSH2 0x4258 PUSH2 0x9D24 JUMP JUMPDEST JUMPDEST PUSH1 0x40 MLOAD SWAP1 DUP1 DUP3 MSTORE DUP1 PUSH1 0x20 MUL PUSH1 0x20 ADD DUP3 ADD PUSH1 0x40 MSTORE DUP1 ISZERO PUSH2 0x4292 JUMPI DUP2 PUSH1 0x20 ADD JUMPDEST PUSH2 0x427F PUSH2 0x98D5 JUMP JUMPDEST DUP2 MSTORE PUSH1 0x20 ADD SWAP1 PUSH1 0x1 SWAP1 SUB SWAP1 DUP2 PUSH2 0x4277 JUMPI SWAP1 POP JUMPDEST POP SWAP1 POP PUSH0 JUMPDEST DUP4 MLOAD DUP2 LT ISZERO PUSH2 0x432F JUMPI PUSH2 0x4304 DUP5 DUP3 DUP2 MLOAD DUP2 LT PUSH2 0x42B6 JUMPI PUSH2 0x42B5 PUSH2 0xCA58 JUMP JUMPDEST JUMPDEST PUSH1 0x20 MUL PUSH1 0x20 ADD ADD MLOAD PUSH0 ADD MLOAD DUP6 DUP4 DUP2 MLOAD DUP2 LT PUSH2 0x42D4 JUMPI PUSH2 0x42D3 PUSH2 0xCA58 JUMP JUMPDEST JUMPDEST PUSH1 0x20 MUL PUSH1 0x20 ADD ADD MLOAD PUSH1 0x20 ADD MLOAD DUP7 DUP5 DUP2 MLOAD DUP2 LT PUSH2 0x42F3 JUMPI PUSH2 0x42F2 PUSH2 0xCA58 JUMP JUMPDEST JUMPDEST PUSH1 0x20 MUL PUSH1 0x20 ADD ADD MLOAD PUSH1 0x40 ADD MLOAD PUSH2 0x1C0D JUMP JUMPDEST DUP3 DUP3 DUP2 MLOAD DUP2 LT PUSH2 0x4317 JUMPI PUSH2 0x4316 PUSH2 0xCA58 JUMP JUMPDEST JUMPDEST PUSH1 0x20 MUL PUSH1 0x20 ADD ADD DUP2 SWAP1 MSTORE POP DUP1 DUP1 PUSH1 0x1 ADD SWAP2 POP POP PUSH2 0x4297 JUMP JUMPDEST POP DUP1 SWAP2 POP POP SWAP2 SWAP1 POP JUMP JUMPDEST PUSH0 PUSH1 0x20 MSTORE DUP1 PUSH0 MSTORE PUSH1 0x40 PUSH0 KECCAK256 PUSH0 SWAP2 POP SWAP1 POP DUP1 PUSH0 ADD SLOAD SWAP1 DUP1 PUSH1 0x1 ADD PUSH0 SWAP1 SLOAD SWAP1 PUSH2 0x100 EXP SWAP1 DIV PUSH20 0xFFFFFFFFFFFFFFFFFFFFFFFFFFFFFFFFFFFFFFFF AND SWAP1 POP DUP3 JUMP JUMPDEST PUSH0 PUSH1 0x17 PUSH0 SWAP1 SLOAD SWAP1 PUSH2 0x100 EXP SWAP1 DIV PUSH20 0xFFFFFFFFFFFFFFFFFFFFFFFFFFFFFFFFFFFFFFFF AND DUP1 PUSH20 0xFFFFFFFFFFFFFFFFFFFFFFFFFFFFFFFFFFFFFFFF AND CALLER PUSH20 0xFFFFFFFFFFFFFFFFFFFFFFFFFFFFFFFFFFFFFFFF AND EQ PUSH2 0x4408 JUMPI PUSH1 0x40 MLOAD PUSH32 0x8C379A000000000000000000000000000000000000000000000000000000000 DUP2 MSTORE PUSH1 0x4 ADD PUSH2 0x43FF SWAP1 PUSH2 0xCD21 JUMP JUMPDEST PUSH1 0x40 MLOAD DUP1 SWAP2 SUB SWAP1 REVERT JUMPDEST DUP3 PUSH1 0x18 PUSH0 PUSH2 0x100 EXP DUP2 SLOAD DUP2 PUSH20 0xFFFFFFFFFFFFFFFFFFFFFFFFFFFFFFFFFFFFFFFF MUL NOT AND SWAP1 DUP4 PUSH20 0xFFFFFFFFFFFFFFFFFFFFFFFFFFFFFFFFFFFFFFFF AND MUL OR SWAP1 SSTORE POP PUSH1 0x1 SWAP2 POP POP SWAP2 SWAP1 POP JUMP JUMPDEST PUSH1 0x12 PUSH0 SWAP1 SLOAD SWAP1 PUSH2 0x100 EXP SWAP1 DIV PUSH20 0xFFFFFFFFFFFFFFFFFFFFFFFFFFFFFFFFFFFFFFFF AND DUP2 JUMP JUMPDEST PUSH0 DUP1 JUMPDEST DUP3 MLOAD DUP2 LT ISZERO PUSH2 0x44B4 JUMPI PUSH2 0x44A6 DUP4 DUP3 DUP2 MLOAD DUP2 LT PUSH2 0x4499 JUMPI PUSH2 0x4498 PUSH2 0xCA58 JUMP JUMPDEST JUMPDEST PUSH1 0x20 MUL PUSH1 0x20 ADD ADD MLOAD PUSH2 0x4C42 JUMP JUMPDEST POP DUP1 DUP1 PUSH1 0x1 ADD SWAP2 POP POP PUSH2 0x447A JUMP JUMPDEST POP PUSH1 0x1 SWAP1 POP SWAP2 SWAP1 POP JUMP JUMPDEST PUSH0 PUSH1 0x17 PUSH0 SWAP1 SLOAD SWAP1 PUSH2 0x100 EXP SWAP1 DIV PUSH20 0xFFFFFFFFFFFFFFFFFFFFFFFFFFFFFFFFFFFFFFFF AND DUP1 PUSH20 0xFFFFFFFFFFFFFFFFFFFFFFFFFFFFFFFFFFFFFFFF AND CALLER PUSH20 0xFFFFFFFFFFFFFFFFFFFFFFFFFFFFFFFFFFFFFFFF AND EQ PUSH2 0x454F JUMPI PUSH1 0x40 MLOAD PUSH32 0x8C379A000000000000000000000000000000000000000000000000000000000 DUP2 MSTORE PUSH1 0x4 ADD PUSH2 0x4546 SWAP1 PUSH2 0xCD21 JUMP JUMPDEST PUSH1 0x40 MLOAD DUP1 SWAP2 SUB SWAP1 REVERT JUMPDEST DUP3 PUSH1 0x19 PUSH0 PUSH2 0x100 EXP DUP2 SLOAD DUP2 PUSH20 0xFFFFFFFFFFFFFFFFFFFFFFFFFFFFFFFFFFFFFFFF MUL NOT AND SWAP1 DUP4 PUSH20 0xFFFFFFFFFFFFFFFFFFFFFFFFFFFFFFFFFFFFFFFF AND MUL OR SWAP1 SSTORE POP PUSH1 0x1 SWAP2 POP POP SWAP2 SWAP1 POP JUMP JUMPDEST PUSH0 DUP1 DUP4 MLOAD GT PUSH2 0x45DE PUSH1 0x2D PUSH1 0x40 MLOAD DUP1 PUSH1 0x40 ADD PUSH1 0x40 MSTORE DUP1 PUSH1 0x20 DUP2 MSTORE PUSH1 0x20 ADD PUSH32 0x5368617265206C696E6B20706172616D73206D757374206E6F7420656D707479 DUP2 MSTORE POP PUSH2 0x12B1 JUMP JUMPDEST SWAP1 PUSH2 0x461F JUMPI PUSH1 0x40 MLOAD PUSH32 0x8C379A000000000000000000000000000000000000000000000000000000000 DUP2 MSTORE PUSH1 0x4 ADD PUSH2 0x4616 SWAP2 SWAP1 PUSH2 0xA739 JUMP JUMPDEST PUSH1 0x40 MLOAD DUP1 SWAP2 SUB SWAP1 REVERT JUMPDEST POP PUSH2 0x4629 DUP4 PUSH2 0x7F7E JUMP JUMPDEST POP PUSH1 0xC PUSH0 DUP2 SLOAD DUP1 SWAP3 SWAP2 SWAP1 PUSH2 0x463C SWAP1 PUSH2 0xC4F2 JUMP JUMPDEST SWAP2 SWAP1 POP SSTORE POP PUSH0 JUMPDEST DUP4 MLOAD DUP2 LT ISZERO PUSH2 0x472E JUMPI PUSH1 0x7 PUSH0 PUSH1 0xC SLOAD DUP2 MSTORE PUSH1 0x20 ADD SWAP1 DUP2 MSTORE PUSH1 0x20 ADD PUSH0 KECCAK256 PUSH1 0x1 ADD DUP5 DUP3 DUP2 MLOAD DUP2 LT PUSH2 0x4675 JUMPI PUSH2 0x4674 PUSH2 0xCA58 JUMP JUMPDEST JUMPDEST PUSH1 0x20 MUL PUSH1 0x20 ADD ADD MLOAD SWAP1 DUP1 PUSH1 0x1 DUP2 SLOAD ADD DUP1 DUP3 SSTORE DUP1 SWAP2 POP POP PUSH1 0x1 SWAP1 SUB SWAP1 PUSH0 MSTORE PUSH1 0x20 PUSH0 KECCAK256 SWAP1 PUSH1 0x5 MUL ADD PUSH0 SWAP1 SWAP2 SWAP1 SWAP2 SWAP1 SWAP2 POP PUSH0 DUP3 ADD MLOAD DUP2 PUSH0 ADD SWAP1 DUP1 MLOAD SWAP1 PUSH1 0x20 ADD SWAP1 PUSH2 0x46BD SWAP3 SWAP2 SWAP1 PUSH2 0x974C JUMP JUMPDEST POP PUSH1 0x20 DUP3 ADD MLOAD DUP2 PUSH1 0x1 ADD SWAP1 DUP1 MLOAD SWAP1 PUSH1 0x20 ADD SWAP1 PUSH2 0x46DA SWAP3 SWAP2 SWAP1 PUSH2 0x974C JUMP JUMPDEST POP PUSH1 0x40 DUP3 ADD MLOAD DUP2 PUSH1 0x2 ADD SWAP1 DUP1 MLOAD SWAP1 PUSH1 0x20 ADD SWAP1 PUSH2 0x46F7 SWAP3 SWAP2 SWAP1 PUSH2 0x9797 JUMP JUMPDEST POP PUSH1 0x60 DUP3 ADD MLOAD DUP2 PUSH1 0x3 ADD SWAP1 DUP1 MLOAD SWAP1 PUSH1 0x20 ADD SWAP1 PUSH2 0x4714 SWAP3 SWAP2 SWAP1 PUSH2 0x974C JUMP JUMPDEST POP PUSH1 0x80 DUP3 ADD MLOAD DUP2 PUSH1 0x4 ADD SSTORE POP POP DUP1 DUP1 PUSH1 0x1 ADD SWAP2 POP POP PUSH2 0x4643 JUMP JUMPDEST POP PUSH1 0xC SLOAD PUSH1 0x7 PUSH0 PUSH1 0xC SLOAD DUP2 MSTORE PUSH1 0x20 ADD SWAP1 DUP2 MSTORE PUSH1 0x20 ADD PUSH0 KECCAK256 PUSH0 ADD DUP2 SWAP1 SSTORE POP DUP2 PUSH1 0x7 PUSH0 PUSH1 0xC SLOAD DUP2 MSTORE PUSH1 0x20 ADD SWAP1 DUP2 MSTORE PUSH1 0x20 ADD PUSH0 KECCAK256 PUSH1 0x3 ADD DUP2 SWAP1 SSTORE POP CALLER PUSH1 0x7 PUSH0 PUSH1 0xC SLOAD DUP2 MSTORE PUSH1 0x20 ADD SWAP1 DUP2 MSTORE PUSH1 0x20 ADD PUSH0 KECCAK256 PUSH1 0x2 ADD PUSH0 PUSH2 0x100 EXP DUP2 SLOAD DUP2 PUSH20 0xFFFFFFFFFFFFFFFFFFFFFFFFFFFFFFFFFFFFFFFF MUL NOT AND SWAP1 DUP4 PUSH20 0xFFFFFFFFFFFFFFFFFFFFFFFFFFFFFFFFFFFFFFFF AND MUL OR SWAP1 SSTORE POP PUSH1 0x6 PUSH0 CALLER PUSH20 0xFFFFFFFFFFFFFFFFFFFFFFFFFFFFFFFFFFFFFFFF AND PUSH20 0xFFFFFFFFFFFFFFFFFFFFFFFFFFFFFFFFFFFFFFFF AND DUP2 MSTORE PUSH1 0x20 ADD SWAP1 DUP2 MSTORE PUSH1 0x20 ADD PUSH0 KECCAK256 PUSH1 0xC SLOAD SWAP1 DUP1 PUSH1 0x1 DUP2 SLOAD ADD DUP1 DUP3 SSTORE DUP1 SWAP2 POP POP PUSH1 0x1 SWAP1 SUB SWAP1 PUSH0 MSTORE PUSH1 0x20 PUSH0 KECCAK256 ADD PUSH0 SWAP1 SWAP2 SWAP1 SWAP2 SWAP1 SWAP2 POP SSTORE PUSH1 0xC SLOAD SWAP1 POP SWAP3 SWAP2 POP POP JUMP JUMPDEST PUSH2 0x4830 PUSH2 0x9817 JUMP JUMPDEST PUSH0 PUSH1 0x5 PUSH0 DUP5 DUP2 MSTORE PUSH1 0x20 ADD SWAP1 DUP2 MSTORE PUSH1 0x20 ADD PUSH0 KECCAK256 SLOAD SWAP1 POP PUSH1 0x1 PUSH0 DUP3 DUP2 MSTORE PUSH1 0x20 ADD SWAP1 DUP2 MSTORE PUSH1 0x20 ADD PUSH0 KECCAK256 PUSH1 0x40 MLOAD DUP1 PUSH2 0x260 ADD PUSH1 0x40 MSTORE SWAP1 DUP2 PUSH0 DUP3 ADD SLOAD DUP2 MSTORE PUSH1 0x20 ADD PUSH1 0x1 DUP3 ADD PUSH0 SWAP1 SLOAD SWAP1 PUSH2 0x100 EXP SWAP1 DIV PUSH20 0xFFFFFFFFFFFFFFFFFFFFFFFFFFFFFFFFFFFFFFFF AND PUSH20 0xFFFFFFFFFFFFFFFFFFFFFFFFFFFFFFFFFFFFFFFF AND PUSH20 0xFFFFFFFFFFFFFFFFFFFFFFFFFFFFFFFFFFFFFFFF AND DUP2 MSTORE PUSH1 0x20 ADD PUSH1 0x2 DUP3 ADD PUSH0 SWAP1 SLOAD SWAP1 PUSH2 0x100 EXP SWAP1 DIV PUSH20 0xFFFFFFFFFFFFFFFFFFFFFFFFFFFFFFFFFFFFFFFF AND PUSH20 0xFFFFFFFFFFFFFFFFFFFFFFFFFFFFFFFFFFFFFFFF AND PUSH20 0xFFFFFFFFFFFFFFFFFFFFFFFFFFFFFFFFFFFFFFFF AND DUP2 MSTORE PUSH1 0x20 ADD PUSH1 0x3 DUP3 ADD SLOAD DUP2 MSTORE PUSH1 0x20 ADD PUSH1 0x4 DUP3 ADD DUP1 SLOAD DUP1 PUSH1 0x20 MUL PUSH1 0x20 ADD PUSH1 0x40 MLOAD SWAP1 DUP2 ADD PUSH1 0x40 MSTORE DUP1 SWAP3 SWAP2 SWAP1 DUP2 DUP2 MSTORE PUSH1 0x20 ADD DUP3 DUP1 SLOAD DUP1 ISZERO PUSH2 0x496C JUMPI PUSH1 0x20 MUL DUP3 ADD SWAP2 SWAP1 PUSH0 MSTORE PUSH1 0x20 PUSH0 KECCAK256 SWAP1 JUMPDEST DUP2 SLOAD DUP2 MSTORE PUSH1 0x20 ADD SWAP1 PUSH1 0x1 ADD SWAP1 DUP1 DUP4 GT PUSH2 0x4958 JUMPI JUMPDEST POP POP POP POP POP DUP2 MSTORE PUSH1 0x20 ADD PUSH1 0x5 DUP3 ADD DUP1 SLOAD DUP1 PUSH1 0x20 MUL PUSH1 0x20 ADD PUSH1 0x40 MLOAD SWAP1 DUP2 ADD PUSH1 0x40 MSTORE DUP1 SWAP3 SWAP2 SWAP1 DUP2 DUP2 MSTORE PUSH1 0x20 ADD DUP3 DUP1 SLOAD DUP1 ISZERO PUSH2 0x49C2 JUMPI PUSH1 0x20 MUL DUP3 ADD SWAP2 SWAP1 PUSH0 MSTORE PUSH1 0x20 PUSH0 KECCAK256 SWAP1 JUMPDEST DUP2 SLOAD DUP2 MSTORE PUSH1 0x20 ADD SWAP1 PUSH1 0x1 ADD SWAP1 DUP1 DUP4 GT PUSH2 0x49AE JUMPI JUMPDEST POP POP POP POP POP DUP2 MSTORE PUSH1 0x20 ADD PUSH1 0x6 DUP3 ADD DUP1 SLOAD DUP1 PUSH1 0x20 MUL PUSH1 0x20 ADD PUSH1 0x40 MLOAD SWAP1 DUP2 ADD PUSH1 0x40 MSTORE DUP1 SWAP3 SWAP2 SWAP1 DUP2 DUP2 MSTORE PUSH1 0x20 ADD DUP3 DUP1 SLOAD DUP1 ISZERO PUSH2 0x4A18 JUMPI PUSH1 0x20 MUL DUP3 ADD SWAP2 SWAP1 PUSH0 MSTORE PUSH1 0x20 PUSH0 KECCAK256 SWAP1 JUMPDEST DUP2 SLOAD DUP2 MSTORE PUSH1 0x20 ADD SWAP1 PUSH1 0x1 ADD SWAP1 DUP1 DUP4 GT PUSH2 0x4A04 JUMPI JUMPDEST POP POP POP POP POP DUP2 MSTORE PUSH1 0x20 ADD PUSH1 0x7 DUP3 ADD DUP1 SLOAD DUP1 PUSH1 0x20 MUL PUSH1 0x20 ADD PUSH1 0x40 MLOAD SWAP1 DUP2 ADD PUSH1 0x40 MSTORE DUP1 SWAP3 SWAP2 SWAP1 DUP2 DUP2 MSTORE PUSH1 0x20 ADD DUP3 DUP1 SLOAD DUP1 ISZERO PUSH2 0x4A6E JUMPI PUSH1 0x20 MUL DUP3 ADD SWAP2 SWAP1 PUSH0 MSTORE PUSH1 0x20 PUSH0 KECCAK256 SWAP1 JUMPDEST DUP2 SLOAD DUP2 MSTORE PUSH1 0x20 ADD SWAP1 PUSH1 0x1 ADD SWAP1 DUP1 DUP4 GT PUSH2 0x4A5A JUMPI JUMPDEST POP POP POP POP POP DUP2 MSTORE PUSH1 0x20 ADD PUSH1 0x8 DUP3 ADD DUP1 SLOAD DUP1 PUSH1 0x20 MUL PUSH1 0x20 ADD PUSH1 0x40 MLOAD SWAP1 DUP2 ADD PUSH1 0x40 MSTORE DUP1 SWAP3 SWAP2 SWAP1 DUP2 DUP2 MSTORE PUSH1 0x20 ADD DUP3 DUP1 SLOAD DUP1 ISZERO PUSH2 0x4AC4 JUMPI PUSH1 0x20 MUL DUP3 ADD SWAP2 SWAP1 PUSH0 MSTORE PUSH1 0x20 PUSH0 KECCAK256 SWAP1 JUMPDEST DUP2 SLOAD DUP2 MSTORE PUSH1 0x20 ADD SWAP1 PUSH1 0x1 ADD SWAP1 DUP1 DUP4 GT PUSH2 0x4AB0 JUMPI JUMPDEST POP POP POP POP POP DUP2 MSTORE PUSH1 0x20 ADD PUSH1 0x9 DUP3 ADD DUP1 SLOAD DUP1 PUSH1 0x20 MUL PUSH1 0x20 ADD PUSH1 0x40 MLOAD SWAP1 DUP2 ADD PUSH1 0x40 MSTORE DUP1 SWAP3 SWAP2 SWAP1 DUP2 DUP2 MSTORE PUSH1 0x20 ADD DUP3 DUP1 SLOAD DUP1 ISZERO PUSH2 0x4B1A JUMPI PUSH1 0x20 MUL DUP3 ADD SWAP2 SWAP1 PUSH0 MSTORE PUSH1 0x20 PUSH0 KECCAK256 SWAP1 JUMPDEST DUP2 SLOAD DUP2 MSTORE PUSH1 0x20 ADD SWAP1 PUSH1 0x1 ADD SWAP1 DUP1 DUP4 GT PUSH2 0x4B06 JUMPI JUMPDEST POP POP POP POP POP DUP2 MSTORE PUSH1 0x20 ADD PUSH1 0xA DUP3 ADD DUP1 SLOAD DUP1 PUSH1 0x20 MUL PUSH1 0x20 ADD PUSH1 0x40 MLOAD SWAP1 DUP2 ADD PUSH1 0x40 MSTORE DUP1 SWAP3 SWAP2 SWAP1 DUP2 DUP2 MSTORE PUSH1 0x20 ADD DUP3 DUP1 SLOAD DUP1 ISZERO PUSH2 0x4B70 JUMPI PUSH1 0x20 MUL DUP3 ADD SWAP2 SWAP1 PUSH0 MSTORE PUSH1 0x20 PUSH0 KECCAK256 SWAP1 JUMPDEST DUP2 SLOAD DUP2 MSTORE PUSH1 0x20 ADD SWAP1 PUSH1 0x1 ADD SWAP1 DUP1 DUP4 GT PUSH2 0x4B5C JUMPI JUMPDEST POP POP POP POP POP DUP2 MSTORE PUSH1 0x20 ADD PUSH1 0xB DUP3 ADD SLOAD DUP2 MSTORE PUSH1 0x20 ADD PUSH1 0xC DUP3 ADD PUSH0 SWAP1 SLOAD SWAP1 PUSH2 0x100 EXP SWAP1 DIV PUSH1 0xFF AND PUSH1 0xFF AND PUSH1 0xFF AND DUP2 MSTORE PUSH1 0x20 ADD PUSH1 0xC DUP3 ADD PUSH1 0x1 SWAP1 SLOAD SWAP1 PUSH2 0x100 EXP SWAP1 DIV PUSH1 0xFF AND PUSH1 0xFF AND PUSH1 0xFF AND DUP2 MSTORE PUSH1 0x20 ADD PUSH1 0xD DUP3 ADD SLOAD DUP2 MSTORE PUSH1 0x20 ADD PUSH1 0xE DUP3 ADD SLOAD DUP2 MSTORE PUSH1 0x20 ADD PUSH1 0xF DUP3 ADD SLOAD DUP2 MSTORE PUSH1 0x20 ADD PUSH1 0x10 DUP3 ADD PUSH0 SWAP1 SLOAD SWAP1 PUSH2 0x100 EXP SWAP1 DIV PUSH1 0xFF AND PUSH1 0xFF AND PUSH1 0xFF AND DUP2 MSTORE PUSH1 0x20 ADD PUSH1 0x11 DUP3 ADD SLOAD DUP2 MSTORE POP POP SWAP2 POP POP SWAP2 SWAP1 POP JUMP JUMPDEST PUSH1 0x14 PUSH0 SWAP1 SLOAD SWAP1 PUSH2 0x100 EXP SWAP1 DIV PUSH20 0xFFFFFFFFFFFFFFFFFFFFFFFFFFFFFFFFFFFFFFFF AND DUP2 JUMP JUMPDEST PUSH1 0xA PUSH1 0x20 MSTORE DUP1 PUSH0 MSTORE PUSH1 0x40 PUSH0 KECCAK256 PUSH0 SWAP2 POP SWAP1 POP SLOAD DUP2 JUMP JUMPDEST PUSH0 DUP1 PUSH1 0x7 PUSH0 DUP5 DUP2 MSTORE PUSH1 0x20 ADD SWAP1 DUP2 MSTORE PUSH1 0x20 ADD PUSH0 KECCAK256 SWAP1 POP CALLER PUSH20 0xFFFFFFFFFFFFFFFFFFFFFFFFFFFFFFFFFFFFFFFF AND DUP2 PUSH1 0x2 ADD PUSH0 SWAP1 SLOAD SWAP1 PUSH2 0x100 EXP SWAP1 DIV PUSH20 0xFFFFFFFFFFFFFFFFFFFFFFFFFFFFFFFFFFFFFFFF AND PUSH20 0xFFFFFFFFFFFFFFFFFFFFFFFFFFFFFFFFFFFFFFFF AND EQ PUSH2 0x4CE8 JUMPI PUSH1 0x40 MLOAD PUSH32 0x8C379A000000000000000000000000000000000000000000000000000000000 DUP2 MSTORE PUSH1 0x4 ADD PUSH2 0x4CDF SWAP1 PUSH2 0xC986 JUMP JUMPDEST PUSH1 0x40 MLOAD DUP1 SWAP2 SUB SWAP1 REVERT JUMPDEST PUSH0 DUP2 PUSH0 ADD SLOAD GT PUSH2 0x4D2D JUMPI PUSH1 0x40 MLOAD PUSH32 0x8C379A000000000000000000000000000000000000000000000000000000000 DUP2 MSTORE PUSH1 0x4 ADD PUSH2 0x4D24 SWAP1 PUSH2 0xDA58 JUMP JUMPDEST PUSH1 0x40 MLOAD DUP1 SWAP2 SUB SWAP1 REVERT JUMPDEST DUP1 PUSH1 0x2 ADD PUSH1 0x14 SWAP1 SLOAD SWAP1 PUSH2 0x100 EXP SWAP1 DIV PUSH1 0xFF AND PUSH2 0x4D4E JUMPI PUSH2 0x4D4C DUP2 PUSH2 0x7DE5 JUMP JUMPDEST POP JUMPDEST PUSH0 JUMPDEST PUSH1 0x6 PUSH0 CALLER PUSH20 0xFFFFFFFFFFFFFFFFFFFFFFFFFFFFFFFFFFFFFFFF AND PUSH20 0xFFFFFFFFFFFFFFFFFFFFFFFFFFFFFFFFFFFFFFFF AND DUP2 MSTORE PUSH1 0x20 ADD SWAP1 DUP2 MSTORE PUSH1 0x20 ADD PUSH0 KECCAK256 DUP1 SLOAD SWAP1 POP DUP2 LT ISZERO PUSH2 0x4F67 JUMPI DUP4 PUSH1 0x6 PUSH0 CALLER PUSH20 0xFFFFFFFFFFFFFFFFFFFFFFFFFFFFFFFFFFFFFFFF AND PUSH20 0xFFFFFFFFFFFFFFFFFFFFFFFFFFFFFFFFFFFFFFFF AND DUP2 MSTORE PUSH1 0x20 ADD SWAP1 DUP2 MSTORE PUSH1 0x20 ADD PUSH0 KECCAK256 DUP3 DUP2 SLOAD DUP2 LT PUSH2 0x4DE8 JUMPI PUSH2 0x4DE7 PUSH2 0xCA58 JUMP JUMPDEST JUMPDEST SWAP1 PUSH0 MSTORE PUSH1 0x20 PUSH0 KECCAK256 ADD SLOAD SUB PUSH2 0x4F5A JUMPI PUSH1 0x6 PUSH0 CALLER PUSH20 0xFFFFFFFFFFFFFFFFFFFFFFFFFFFFFFFFFFFFFFFF AND PUSH20 0xFFFFFFFFFFFFFFFFFFFFFFFFFFFFFFFFFFFFFFFF AND DUP2 MSTORE PUSH1 0x20 ADD SWAP1 DUP2 MSTORE PUSH1 0x20 ADD PUSH0 KECCAK256 PUSH1 0x1 PUSH1 0x6 PUSH0 CALLER PUSH20 0xFFFFFFFFFFFFFFFFFFFFFFFFFFFFFFFFFFFFFFFF AND PUSH20 0xFFFFFFFFFFFFFFFFFFFFFFFFFFFFFFFFFFFFFFFF AND DUP2 MSTORE PUSH1 0x20 ADD SWAP1 DUP2 MSTORE PUSH1 0x20 ADD PUSH0 KECCAK256 DUP1 SLOAD SWAP1 POP PUSH2 0x4E80 SWAP2 SWAP1 PUSH2 0xDA76 JUMP JUMPDEST DUP2 SLOAD DUP2 LT PUSH2 0x4E91 JUMPI PUSH2 0x4E90 PUSH2 0xCA58 JUMP JUMPDEST JUMPDEST SWAP1 PUSH0 MSTORE PUSH1 0x20 PUSH0 KECCAK256 ADD SLOAD PUSH1 0x6 PUSH0 CALLER PUSH20 0xFFFFFFFFFFFFFFFFFFFFFFFFFFFFFFFFFFFFFFFF AND PUSH20 0xFFFFFFFFFFFFFFFFFFFFFFFFFFFFFFFFFFFFFFFF AND DUP2 MSTORE PUSH1 0x20 ADD SWAP1 DUP2 MSTORE PUSH1 0x20 ADD PUSH0 KECCAK256 DUP3 DUP2 SLOAD DUP2 LT PUSH2 0x4EE9 JUMPI PUSH2 0x4EE8 PUSH2 0xCA58 JUMP JUMPDEST JUMPDEST SWAP1 PUSH0 MSTORE PUSH1 0x20 PUSH0 KECCAK256 ADD DUP2 SWAP1 SSTORE POP PUSH1 0x6 PUSH0 CALLER PUSH20 0xFFFFFFFFFFFFFFFFFFFFFFFFFFFFFFFFFFFFFFFF AND PUSH20 0xFFFFFFFFFFFFFFFFFFFFFFFFFFFFFFFFFFFFFFFF AND DUP2 MSTORE PUSH1 0x20 ADD SWAP1 DUP2 MSTORE PUSH1 0x20 ADD PUSH0 KECCAK256 DUP1 SLOAD DUP1 PUSH2 0x4F42 JUMPI PUSH2 0x4F41 PUSH2 0xDAA9 JUMP JUMPDEST JUMPDEST PUSH1 0x1 SWAP1 SUB DUP2 DUP2 SWAP1 PUSH0 MSTORE PUSH1 0x20 PUSH0 KECCAK256 ADD PUSH0 SWAP1 SSTORE SWAP1 SSTORE PUSH2 0x4F67 JUMP JUMPDEST DUP1 DUP1 PUSH1 0x1 ADD SWAP2 POP POP PUSH2 0x4D50 JUMP JUMPDEST POP PUSH1 0x7 PUSH0 DUP5 DUP2 MSTORE PUSH1 0x20 ADD SWAP1 DUP2 MSTORE PUSH1 0x20 ADD PUSH0 KECCAK256 PUSH0 DUP1 DUP3 ADD PUSH0 SWAP1 SSTORE PUSH1 0x1 DUP3 ADD PUSH0 PUSH2 0x4F8F SWAP2 SWAP1 PUSH2 0x972B JUMP JUMPDEST PUSH1 0x2 DUP3 ADD PUSH0 PUSH2 0x100 EXP DUP2 SLOAD SWAP1 PUSH20 0xFFFFFFFFFFFFFFFFFFFFFFFFFFFFFFFFFFFFFFFF MUL NOT AND SWAP1 SSTORE PUSH1 0x2 DUP3 ADD PUSH1 0x14 PUSH2 0x100 EXP DUP2 SLOAD SWAP1 PUSH1 0xFF MUL NOT AND SWAP1 SSTORE PUSH1 0x3 DUP3 ADD PUSH0 SWAP1 SSTORE POP POP PUSH1 0x1 SWAP2 POP POP SWAP2 SWAP1 POP JUMP JUMPDEST PUSH1 0x16 PUSH0 SWAP1 SLOAD SWAP1 PUSH2 0x100 EXP SWAP1 DIV PUSH20 0xFFFFFFFFFFFFFFFFFFFFFFFFFFFFFFFFFFFFFFFF AND DUP2 JUMP JUMPDEST PUSH0 PUSH1 0x17 PUSH0 SWAP1 SLOAD SWAP1 PUSH2 0x100 EXP SWAP1 DIV PUSH20 0xFFFFFFFFFFFFFFFFFFFFFFFFFFFFFFFFFFFFFFFF AND DUP1 PUSH20 0xFFFFFFFFFFFFFFFFFFFFFFFFFFFFFFFFFFFFFFFF AND CALLER PUSH20 0xFFFFFFFFFFFFFFFFFFFFFFFFFFFFFFFFFFFFFFFF AND EQ PUSH2 0x5092 JUMPI PUSH1 0x40 MLOAD PUSH32 0x8C379A000000000000000000000000000000000000000000000000000000000 DUP2 MSTORE PUSH1 0x4 ADD PUSH2 0x5089 SWAP1 PUSH2 0xCD21 JUMP JUMPDEST PUSH1 0x40 MLOAD DUP1 SWAP2 SUB SWAP1 REVERT JUMPDEST DUP3 PUSH1 0x13 PUSH0 PUSH2 0x100 EXP DUP2 SLOAD DUP2 PUSH20 0xFFFFFFFFFFFFFFFFFFFFFFFFFFFFFFFFFFFFFFFF MUL NOT AND SWAP1 DUP4 PUSH20 0xFFFFFFFFFFFFFFFFFFFFFFFFFFFFFFFFFFFFFFFF AND MUL OR SWAP1 SSTORE POP PUSH1 0x1 SWAP2 POP POP SWAP2 SWAP1 POP JUMP JUMPDEST PUSH1 0x8 PUSH1 0x20 MSTORE DUP1 PUSH0 MSTORE PUSH1 0x40 PUSH0 KECCAK256 PUSH0 SWAP2 POP SWAP1 POP DUP1 PUSH1 0x1 ADD PUSH1 0x40 MLOAD DUP1 PUSH2 0x120 ADD PUSH1 0x40 MSTORE SWAP1 DUP2 PUSH0 DUP3 ADD DUP1 SLOAD PUSH2 0x510C SWAP1 PUSH2 0xC566 JUMP JUMPDEST DUP1 PUSH1 0x1F ADD PUSH1 0x20 DUP1 SWAP2 DIV MUL PUSH1 0x20 ADD PUSH1 0x40 MLOAD SWAP1 DUP2 ADD PUSH1 0x40 MSTORE DUP1 SWAP3 SWAP2 SWAP1 DUP2 DUP2 MSTORE PUSH1 0x20 ADD DUP3 DUP1 SLOAD PUSH2 0x5138 SWAP1 PUSH2 0xC566 JUMP JUMPDEST DUP1 ISZERO PUSH2 0x5183 JUMPI DUP1 PUSH1 0x1F LT PUSH2 0x515A JUMPI PUSH2 0x100 DUP1 DUP4 SLOAD DIV MUL DUP4 MSTORE SWAP2 PUSH1 0x20 ADD SWAP2 PUSH2 0x5183 JUMP JUMPDEST DUP3 ADD SWAP2 SWAP1 PUSH0 MSTORE PUSH1 0x20 PUSH0 KECCAK256 SWAP1 JUMPDEST DUP2 SLOAD DUP2 MSTORE SWAP1 PUSH1 0x1 ADD SWAP1 PUSH1 0x20 ADD DUP1 DUP4 GT PUSH2 0x5166 JUMPI DUP3 SWAP1 SUB PUSH1 0x1F AND DUP3 ADD SWAP2 JUMPDEST POP POP POP POP POP DUP2 MSTORE PUSH1 0x20 ADD PUSH1 0x1 DUP3 ADD DUP1 SLOAD PUSH2 0x519C SWAP1 PUSH2 0xC566 JUMP JUMPDEST DUP1 PUSH1 0x1F ADD PUSH1 0x20 DUP1 SWAP2 DIV MUL PUSH1 0x20 ADD PUSH1 0x40 MLOAD SWAP1 DUP2 ADD PUSH1 0x40 MSTORE DUP1 SWAP3 SWAP2 SWAP1 DUP2 DUP2 MSTORE PUSH1 0x20 ADD DUP3 DUP1 SLOAD PUSH2 0x51C8 SWAP1 PUSH2 0xC566 JUMP JUMPDEST DUP1 ISZERO PUSH2 0x5213 JUMPI DUP1 PUSH1 0x1F LT PUSH2 0x51EA JUMPI PUSH2 0x100 DUP1 DUP4 SLOAD DIV MUL DUP4 MSTORE SWAP2 PUSH1 0x20 ADD SWAP2 PUSH2 0x5213 JUMP JUMPDEST DUP3 ADD SWAP2 SWAP1 PUSH0 MSTORE PUSH1 0x20 PUSH0 KECCAK256 SWAP1 JUMPDEST DUP2 SLOAD DUP2 MSTORE SWAP1 PUSH1 0x1 ADD SWAP1 PUSH1 0x20 ADD DUP1 DUP4 GT PUSH2 0x51F6 JUMPI DUP3 SWAP1 SUB PUSH1 0x1F AND DUP3 ADD SWAP2 JUMPDEST POP POP POP POP POP DUP2 MSTORE PUSH1 0x20 ADD PUSH1 0x2 DUP3 ADD DUP1 SLOAD PUSH2 0x522C SWAP1 PUSH2 0xC566 JUMP JUMPDEST DUP1 PUSH1 0x1F ADD PUSH1 0x20 DUP1 SWAP2 DIV MUL PUSH1 0x20 ADD PUSH1 0x40 MLOAD SWAP1 DUP2 ADD PUSH1 0x40 MSTORE DUP1 SWAP3 SWAP2 SWAP1 DUP2 DUP2 MSTORE PUSH1 0x20 ADD DUP3 DUP1 SLOAD PUSH2 0x5258 SWAP1 PUSH2 0xC566 JUMP JUMPDEST DUP1 ISZERO PUSH2 0x52A3 JUMPI DUP1 PUSH1 0x1F LT PUSH2 0x527A JUMPI PUSH2 0x100 DUP1 DUP4 SLOAD DIV MUL DUP4 MSTORE SWAP2 PUSH1 0x20 ADD SWAP2 PUSH2 0x52A3 JUMP JUMPDEST DUP3 ADD SWAP2 SWAP1 PUSH0 MSTORE PUSH1 0x20 PUSH0 KECCAK256 SWAP1 JUMPDEST DUP2 SLOAD DUP2 MSTORE SWAP1 PUSH1 0x1 ADD SWAP1 PUSH1 0x20 ADD DUP1 DUP4 GT PUSH2 0x5286 JUMPI DUP3 SWAP1 SUB PUSH1 0x1F AND DUP3 ADD SWAP2 JUMPDEST POP POP POP POP POP DUP2 MSTORE PUSH1 0x20 ADD PUSH1 0x3 DUP3 ADD DUP1 SLOAD PUSH2 0x52BC SWAP1 PUSH2 0xC566 JUMP JUMPDEST DUP1 PUSH1 0x1F ADD PUSH1 0x20 DUP1 SWAP2 DIV MUL PUSH1 0x20 ADD PUSH1 0x40 MLOAD SWAP1 DUP2 ADD PUSH1 0x40 MSTORE DUP1 SWAP3 SWAP2 SWAP1 DUP2 DUP2 MSTORE PUSH1 0x20 ADD DUP3 DUP1 SLOAD PUSH2 0x52E8 SWAP1 PUSH2 0xC566 JUMP JUMPDEST DUP1 ISZERO PUSH2 0x5333 JUMPI DUP1 PUSH1 0x1F LT PUSH2 0x530A JUMPI PUSH2 0x100 DUP1 DUP4 SLOAD DIV MUL DUP4 MSTORE SWAP2 PUSH1 0x20 ADD SWAP2 PUSH2 0x5333 JUMP JUMPDEST DUP3 ADD SWAP2 SWAP1 PUSH0 MSTORE PUSH1 0x20 PUSH0 KECCAK256 SWAP1 JUMPDEST DUP2 SLOAD DUP2 MSTORE SWAP1 PUSH1 0x1 ADD SWAP1 PUSH1 0x20 ADD DUP1 DUP4 GT PUSH2 0x5316 JUMPI DUP3 SWAP1 SUB PUSH1 0x1F AND DUP3 ADD SWAP2 JUMPDEST POP POP POP POP POP DUP2 MSTORE PUSH1 0x20 ADD PUSH1 0x4 DUP3 ADD DUP1 SLOAD PUSH2 0x534C SWAP1 PUSH2 0xC566 JUMP JUMPDEST DUP1 PUSH1 0x1F ADD PUSH1 0x20 DUP1 SWAP2 DIV MUL PUSH1 0x20 ADD PUSH1 0x40 MLOAD SWAP1 DUP2 ADD PUSH1 0x40 MSTORE DUP1 SWAP3 SWAP2 SWAP1 DUP2 DUP2 MSTORE PUSH1 0x20 ADD DUP3 DUP1 SLOAD PUSH2 0x5378 SWAP1 PUSH2 0xC566 JUMP JUMPDEST DUP1 ISZERO PUSH2 0x53C3 JUMPI DUP1 PUSH1 0x1F LT PUSH2 0x539A JUMPI PUSH2 0x100 DUP1 DUP4 SLOAD DIV MUL DUP4 MSTORE SWAP2 PUSH1 0x20 ADD SWAP2 PUSH2 0x53C3 JUMP JUMPDEST DUP3 ADD SWAP2 SWAP1 PUSH0 MSTORE PUSH1 0x20 PUSH0 KECCAK256 SWAP1 JUMPDEST DUP2 SLOAD DUP2 MSTORE SWAP1 PUSH1 0x1 ADD SWAP1 PUSH1 0x20 ADD DUP1 DUP4 GT PUSH2 0x53A6 JUMPI DUP3 SWAP1 SUB PUSH1 0x1F AND DUP3 ADD SWAP2 JUMPDEST POP POP POP POP POP DUP2 MSTORE PUSH1 0x20 ADD PUSH1 0x5 DUP3 ADD DUP1 SLOAD PUSH2 0x53DC SWAP1 PUSH2 0xC566 JUMP JUMPDEST DUP1 PUSH1 0x1F ADD PUSH1 0x20 DUP1 SWAP2 DIV MUL PUSH1 0x20 ADD PUSH1 0x40 MLOAD SWAP1 DUP2 ADD PUSH1 0x40 MSTORE DUP1 SWAP3 SWAP2 SWAP1 DUP2 DUP2 MSTORE PUSH1 0x20 ADD DUP3 DUP1 SLOAD PUSH2 0x5408 SWAP1 PUSH2 0xC566 JUMP JUMPDEST DUP1 ISZERO PUSH2 0x5453 JUMPI DUP1 PUSH1 0x1F LT PUSH2 0x542A JUMPI PUSH2 0x100 DUP1 DUP4 SLOAD DIV MUL DUP4 MSTORE SWAP2 PUSH1 0x20 ADD SWAP2 PUSH2 0x5453 JUMP JUMPDEST DUP3 ADD SWAP2 SWAP1 PUSH0 MSTORE PUSH1 0x20 PUSH0 KECCAK256 SWAP1 JUMPDEST DUP2 SLOAD DUP2 MSTORE SWAP1 PUSH1 0x1 ADD SWAP1 PUSH1 0x20 ADD DUP1 DUP4 GT PUSH2 0x5436 JUMPI DUP3 SWAP1 SUB PUSH1 0x1F AND DUP3 ADD SWAP2 JUMPDEST POP POP POP POP POP DUP2 MSTORE PUSH1 0x20 ADD PUSH1 0x6 DUP3 ADD DUP1 SLOAD PUSH2 0x546C SWAP1 PUSH2 0xC566 JUMP JUMPDEST DUP1 PUSH1 0x1F ADD PUSH1 0x20 DUP1 SWAP2 DIV MUL PUSH1 0x20 ADD PUSH1 0x40 MLOAD SWAP1 DUP2 ADD PUSH1 0x40 MSTORE DUP1 SWAP3 SWAP2 SWAP1 DUP2 DUP2 MSTORE PUSH1 0x20 ADD DUP3 DUP1 SLOAD PUSH2 0x5498 SWAP1 PUSH2 0xC566 JUMP JUMPDEST DUP1 ISZERO PUSH2 0x54E3 JUMPI DUP1 PUSH1 0x1F LT PUSH2 0x54BA JUMPI PUSH2 0x100 DUP1 DUP4 SLOAD DIV MUL DUP4 MSTORE SWAP2 PUSH1 0x20 ADD SWAP2 PUSH2 0x54E3 JUMP JUMPDEST DUP3 ADD SWAP2 SWAP1 PUSH0 MSTORE PUSH1 0x20 PUSH0 KECCAK256 SWAP1 JUMPDEST DUP2 SLOAD DUP2 MSTORE SWAP1 PUSH1 0x1 ADD SWAP1 PUSH1 0x20 ADD DUP1 DUP4 GT PUSH2 0x54C6 JUMPI DUP3 SWAP1 SUB PUSH1 0x1F AND DUP3 ADD SWAP2 JUMPDEST POP POP POP POP POP DUP2 MSTORE PUSH1 0x20 ADD PUSH1 0x7 DUP3 ADD DUP1 SLOAD PUSH2 0x54FC SWAP1 PUSH2 0xC566 JUMP JUMPDEST DUP1 PUSH1 0x1F ADD PUSH1 0x20 DUP1 SWAP2 DIV MUL PUSH1 0x20 ADD PUSH1 0x40 MLOAD SWAP1 DUP2 ADD PUSH1 0x40 MSTORE DUP1 SWAP3 SWAP2 SWAP1 DUP2 DUP2 MSTORE PUSH1 0x20 ADD DUP3 DUP1 SLOAD PUSH2 0x5528 SWAP1 PUSH2 0xC566 JUMP JUMPDEST DUP1 ISZERO PUSH2 0x5573 JUMPI DUP1 PUSH1 0x1F LT PUSH2 0x554A JUMPI PUSH2 0x100 DUP1 DUP4 SLOAD DIV MUL DUP4 MSTORE SWAP2 PUSH1 0x20 ADD SWAP2 PUSH2 0x5573 JUMP JUMPDEST DUP3 ADD SWAP2 SWAP1 PUSH0 MSTORE PUSH1 0x20 PUSH0 KECCAK256 SWAP1 JUMPDEST DUP2 SLOAD DUP2 MSTORE SWAP1 PUSH1 0x1 ADD SWAP1 PUSH1 0x20 ADD DUP1 DUP4 GT PUSH2 0x5556 JUMPI DUP3 SWAP1 SUB PUSH1 0x1F AND DUP3 ADD SWAP2 JUMPDEST POP POP POP POP POP DUP2 MSTORE PUSH1 0x20 ADD PUSH1 0x8 DUP3 ADD DUP1 SLOAD PUSH2 0x558C SWAP1 PUSH2 0xC566 JUMP JUMPDEST DUP1 PUSH1 0x1F ADD PUSH1 0x20 DUP1 SWAP2 DIV MUL PUSH1 0x20 ADD PUSH1 0x40 MLOAD SWAP1 DUP2 ADD PUSH1 0x40 MSTORE DUP1 SWAP3 SWAP2 SWAP1 DUP2 DUP2 MSTORE PUSH1 0x20 ADD DUP3 DUP1 SLOAD PUSH2 0x55B8 SWAP1 PUSH2 0xC566 JUMP JUMPDEST DUP1 ISZERO PUSH2 0x5603 JUMPI DUP1 PUSH1 0x1F LT PUSH2 0x55DA JUMPI PUSH2 0x100 DUP1 DUP4 SLOAD DIV MUL DUP4 MSTORE SWAP2 PUSH1 0x20 ADD SWAP2 PUSH2 0x5603 JUMP JUMPDEST DUP3 ADD SWAP2 SWAP1 PUSH0 MSTORE PUSH1 0x20 PUSH0 KECCAK256 SWAP1 JUMPDEST DUP2 SLOAD DUP2 MSTORE SWAP1 PUSH1 0x1 ADD SWAP1 PUSH1 0x20 ADD DUP1 DUP4 GT PUSH2 0x55E6 JUMPI DUP3 SWAP1 SUB PUSH1 0x1F AND DUP3 ADD SWAP2 JUMPDEST POP POP POP POP POP DUP2 MSTORE POP POP SWAP1 DUP1 PUSH1 0xA ADD PUSH0 SWAP1 SLOAD SWAP1 PUSH2 0x100 EXP SWAP1 DIV PUSH20 0xFFFFFFFFFFFFFFFFFFFFFFFFFFFFFFFFFFFFFFFF AND SWAP1 DUP1 PUSH1 0xB ADD PUSH1 0x40 MLOAD DUP1 PUSH1 0x80 ADD PUSH1 0x40 MSTORE SWAP1 DUP2 PUSH0 DUP3 ADD SLOAD DUP2 MSTORE PUSH1 0x20 ADD PUSH1 0x1 DUP3 ADD SLOAD DUP2 MSTORE PUSH1 0x20 ADD PUSH1 0x2 DUP3 ADD PUSH0 SWAP1 SLOAD SWAP1 PUSH2 0x100 EXP SWAP1 DIV PUSH1 0xFF AND PUSH1 0x1 DUP2 GT ISZERO PUSH2 0x5678 JUMPI PUSH2 0x5677 PUSH2 0xBD9C JUMP JUMPDEST JUMPDEST PUSH1 0x1 DUP2 GT ISZERO PUSH2 0x568A JUMPI PUSH2 0x5689 PUSH2 0xBD9C JUMP JUMPDEST JUMPDEST DUP2 MSTORE PUSH1 0x20 ADD PUSH1 0x2 DUP3 ADD PUSH1 0x1 SWAP1 SLOAD SWAP1 PUSH2 0x100 EXP SWAP1 DIV PUSH1 0xFF AND PUSH1 0x1 DUP2 GT ISZERO PUSH2 0x56B3 JUMPI PUSH2 0x56B2 PUSH2 0xBD9C JUMP JUMPDEST JUMPDEST PUSH1 0x1 DUP2 GT ISZERO PUSH2 0x56C5 JUMPI PUSH2 0x56C4 PUSH2 0xBD9C JUMP JUMPDEST JUMPDEST DUP2 MSTORE POP POP SWAP1 POP DUP4 JUMP JUMPDEST PUSH1 0x10 PUSH0 DUP2 SLOAD DUP1 SWAP3 SWAP2 SWAP1 PUSH2 0x56E0 SWAP1 PUSH2 0xC4F2 JUMP JUMPDEST SWAP2 SWAP1 POP SSTORE POP PUSH0 DUP1 PUSH0 CALLER PUSH20 0xFFFFFFFFFFFFFFFFFFFFFFFFFFFFFFFFFFFFFFFF AND PUSH20 0xFFFFFFFFFFFFFFFFFFFFFFFFFFFFFFFFFFFFFFFF AND DUP2 MSTORE PUSH1 0x20 ADD SWAP1 DUP2 MSTORE PUSH1 0x20 ADD PUSH0 KECCAK256 SWAP1 POP PUSH1 0x10 SLOAD DUP2 PUSH0 ADD DUP2 SWAP1 SSTORE POP CALLER DUP2 PUSH1 0x1 ADD PUSH0 PUSH2 0x100 EXP DUP2 SLOAD DUP2 PUSH20 0xFFFFFFFFFFFFFFFFFFFFFFFFFFFFFFFFFFFFFFFF MUL NOT AND SWAP1 DUP4 PUSH20 0xFFFFFFFFFFFFFFFFFFFFFFFFFFFFFFFFFFFFFFFF AND MUL OR SWAP1 SSTORE POP DUP1 PUSH1 0x2 ADD DUP3 SWAP1 DUP1 PUSH1 0x1 DUP2 SLOAD ADD DUP1 DUP3 SSTORE DUP1 SWAP2 POP POP PUSH1 0x1 SWAP1 SUB SWAP1 PUSH0 MSTORE PUSH1 0x20 PUSH0 KECCAK256 SWAP1 PUSH1 0x5 MUL ADD PUSH0 SWAP1 SWAP2 SWAP1 SWAP2 SWAP1 SWAP2 POP PUSH0 DUP3 ADD MLOAD DUP2 PUSH0 ADD SSTORE PUSH1 0x20 DUP3 ADD MLOAD DUP2 PUSH1 0x1 ADD SSTORE PUSH1 0x40 DUP3 ADD MLOAD DUP2 PUSH1 0x2 ADD SSTORE PUSH1 0x60 DUP3 ADD MLOAD DUP2 PUSH1 0x3 ADD SSTORE PUSH1 0x80 DUP3 ADD MLOAD DUP2 PUSH1 0x4 ADD SSTORE POP POP POP POP JUMP JUMPDEST PUSH2 0x57D9 PUSH2 0x9817 JUMP JUMPDEST PUSH1 0x1 PUSH0 DUP4 DUP2 MSTORE PUSH1 0x20 ADD SWAP1 DUP2 MSTORE PUSH1 0x20 ADD PUSH0 KECCAK256 PUSH1 0x40 MLOAD DUP1 PUSH2 0x260 ADD PUSH1 0x40 MSTORE SWAP1 DUP2 PUSH0 DUP3 ADD SLOAD DUP2 MSTORE PUSH1 0x20 ADD PUSH1 0x1 DUP3 ADD PUSH0 SWAP1 SLOAD SWAP1 PUSH2 0x100 EXP SWAP1 DIV PUSH20 0xFFFFFFFFFFFFFFFFFFFFFFFFFFFFFFFFFFFFFFFF AND PUSH20 0xFFFFFFFFFFFFFFFFFFFFFFFFFFFFFFFFFFFFFFFF AND PUSH20 0xFFFFFFFFFFFFFFFFFFFFFFFFFFFFFFFFFFFFFFFF AND DUP2 MSTORE PUSH1 0x20 ADD PUSH1 0x2 DUP3 ADD PUSH0 SWAP1 SLOAD SWAP1 PUSH2 0x100 EXP SWAP1 DIV PUSH20 0xFFFFFFFFFFFFFFFFFFFFFFFFFFFFFFFFFFFFFFFF AND PUSH20 0xFFFFFFFFFFFFFFFFFFFFFFFFFFFFFFFFFFFFFFFF AND PUSH20 0xFFFFFFFFFFFFFFFFFFFFFFFFFFFFFFFFFFFFFFFF AND DUP2 MSTORE PUSH1 0x20 ADD PUSH1 0x3 DUP3 ADD SLOAD DUP2 MSTORE PUSH1 0x20 ADD PUSH1 0x4 DUP3 ADD DUP1 SLOAD DUP1 PUSH1 0x20 MUL PUSH1 0x20 ADD PUSH1 0x40 MLOAD SWAP1 DUP2 ADD PUSH1 0x40 MSTORE DUP1 SWAP3 SWAP2 SWAP1 DUP2 DUP2 MSTORE PUSH1 0x20 ADD DUP3 DUP1 SLOAD DUP1 ISZERO PUSH2 0x5900 JUMPI PUSH1 0x20 MUL DUP3 ADD SWAP2 SWAP1 PUSH0 MSTORE PUSH1 0x20 PUSH0 KECCAK256 SWAP1 JUMPDEST DUP2 SLOAD DUP2 MSTORE PUSH1 0x20 ADD SWAP1 PUSH1 0x1 ADD SWAP1 DUP1 DUP4 GT PUSH2 0x58EC JUMPI JUMPDEST POP POP POP POP POP DUP2 MSTORE PUSH1 0x20 ADD PUSH1 0x5 DUP3 ADD DUP1 SLOAD DUP1 PUSH1 0x20 MUL PUSH1 0x20 ADD PUSH1 0x40 MLOAD SWAP1 DUP2 ADD PUSH1 0x40 MSTORE DUP1 SWAP3 SWAP2 SWAP1 DUP2 DUP2 MSTORE PUSH1 0x20 ADD DUP3 DUP1 SLOAD DUP1 ISZERO PUSH2 0x5956 JUMPI PUSH1 0x20 MUL DUP3 ADD SWAP2 SWAP1 PUSH0 MSTORE PUSH1 0x20 PUSH0 KECCAK256 SWAP1 JUMPDEST DUP2 SLOAD DUP2 MSTORE PUSH1 0x20 ADD SWAP1 PUSH1 0x1 ADD SWAP1 DUP1 DUP4 GT PUSH2 0x5942 JUMPI JUMPDEST POP POP POP POP POP DUP2 MSTORE PUSH1 0x20 ADD PUSH1 0x6 DUP3 ADD DUP1 SLOAD DUP1 PUSH1 0x20 MUL PUSH1 0x20 ADD PUSH1 0x40 MLOAD SWAP1 DUP2 ADD PUSH1 0x40 MSTORE DUP1 SWAP3 SWAP2 SWAP1 DUP2 DUP2 MSTORE PUSH1 0x20 ADD DUP3 DUP1 SLOAD DUP1 ISZERO PUSH2 0x59AC JUMPI PUSH1 0x20 MUL DUP3 ADD SWAP2 SWAP1 PUSH0 MSTORE PUSH1 0x20 PUSH0 KECCAK256 SWAP1 JUMPDEST DUP2 SLOAD DUP2 MSTORE PUSH1 0x20 ADD SWAP1 PUSH1 0x1 ADD SWAP1 DUP1 DUP4 GT PUSH2 0x5998 JUMPI JUMPDEST POP POP POP POP POP DUP2 MSTORE PUSH1 0x20 ADD PUSH1 0x7 DUP3 ADD DUP1 SLOAD DUP1 PUSH1 0x20 MUL PUSH1 0x20 ADD PUSH1 0x40 MLOAD SWAP1 DUP2 ADD PUSH1 0x40 MSTORE DUP1 SWAP3 SWAP2 SWAP1 DUP2 DUP2 MSTORE PUSH1 0x20 ADD DUP3 DUP1 SLOAD DUP1 ISZERO PUSH2 0x5A02 JUMPI PUSH1 0x20 MUL DUP3 ADD SWAP2 SWAP1 PUSH0 MSTORE PUSH1 0x20 PUSH0 KECCAK256 SWAP1 JUMPDEST DUP2 SLOAD DUP2 MSTORE PUSH1 0x20 ADD SWAP1 PUSH1 0x1 ADD SWAP1 DUP1 DUP4 GT PUSH2 0x59EE JUMPI JUMPDEST POP POP POP POP POP DUP2 MSTORE PUSH1 0x20 ADD PUSH1 0x8 DUP3 ADD DUP1 SLOAD DUP1 PUSH1 0x20 MUL PUSH1 0x20 ADD PUSH1 0x40 MLOAD SWAP1 DUP2 ADD PUSH1 0x40 MSTORE DUP1 SWAP3 SWAP2 SWAP1 DUP2 DUP2 MSTORE PUSH1 0x20 ADD DUP3 DUP1 SLOAD DUP1 ISZERO PUSH2 0x5A58 JUMPI PUSH1 0x20 MUL DUP3 ADD SWAP2 SWAP1 PUSH0 MSTORE PUSH1 0x20 PUSH0 KECCAK256 SWAP1 JUMPDEST DUP2 SLOAD DUP2 MSTORE PUSH1 0x20 ADD SWAP1 PUSH1 0x1 ADD SWAP1 DUP1 DUP4 GT PUSH2 0x5A44 JUMPI JUMPDEST POP POP POP POP POP DUP2 MSTORE PUSH1 0x20 ADD PUSH1 0x9 DUP3 ADD DUP1 SLOAD DUP1 PUSH1 0x20 MUL PUSH1 0x20 ADD PUSH1 0x40 MLOAD SWAP1 DUP2 ADD PUSH1 0x40 MSTORE DUP1 SWAP3 SWAP2 SWAP1 DUP2 DUP2 MSTORE PUSH1 0x20 ADD DUP3 DUP1 SLOAD DUP1 ISZERO PUSH2 0x5AAE JUMPI PUSH1 0x20 MUL DUP3 ADD SWAP2 SWAP1 PUSH0 MSTORE PUSH1 0x20 PUSH0 KECCAK256 SWAP1 JUMPDEST DUP2 SLOAD DUP2 MSTORE PUSH1 0x20 ADD SWAP1 PUSH1 0x1 ADD SWAP1 DUP1 DUP4 GT PUSH2 0x5A9A JUMPI JUMPDEST POP POP POP POP POP DUP2 MSTORE PUSH1 0x20 ADD PUSH1 0xA DUP3 ADD DUP1 SLOAD DUP1 PUSH1 0x20 MUL PUSH1 0x20 ADD PUSH1 0x40 MLOAD SWAP1 DUP2 ADD PUSH1 0x40 MSTORE DUP1 SWAP3 SWAP2 SWAP1 DUP2 DUP2 MSTORE PUSH1 0x20 ADD DUP3 DUP1 SLOAD DUP1 ISZERO PUSH2 0x5B04 JUMPI PUSH1 0x20 MUL DUP3 ADD SWAP2 SWAP1 PUSH0 MSTORE PUSH1 0x20 PUSH0 KECCAK256 SWAP1 JUMPDEST DUP2 SLOAD DUP2 MSTORE PUSH1 0x20 ADD SWAP1 PUSH1 0x1 ADD SWAP1 DUP1 DUP4 GT PUSH2 0x5AF0 JUMPI JUMPDEST POP POP POP POP POP DUP2 MSTORE PUSH1 0x20 ADD PUSH1 0xB DUP3 ADD SLOAD DUP2 MSTORE PUSH1 0x20 ADD PUSH1 0xC DUP3 ADD PUSH0 SWAP1 SLOAD SWAP1 PUSH2 0x100 EXP SWAP1 DIV PUSH1 0xFF AND PUSH1 0xFF AND PUSH1 0xFF AND DUP2 MSTORE PUSH1 0x20 ADD PUSH1 0xC DUP3 ADD PUSH1 0x1 SWAP1 SLOAD SWAP1 PUSH2 0x100 EXP SWAP1 DIV PUSH1 0xFF AND PUSH1 0xFF AND PUSH1 0xFF AND DUP2 MSTORE PUSH1 0x20 ADD PUSH1 0xD DUP3 ADD SLOAD DUP2 MSTORE PUSH1 0x20 ADD PUSH1 0xE DUP3 ADD SLOAD DUP2 MSTORE PUSH1 0x20 ADD PUSH1 0xF DUP3 ADD SLOAD DUP2 MSTORE PUSH1 0x20 ADD PUSH1 0x10 DUP3 ADD PUSH0 SWAP1 SLOAD SWAP1 PUSH2 0x100 EXP SWAP1 DIV PUSH1 0xFF AND PUSH1 0xFF AND PUSH1 0xFF AND DUP2 MSTORE PUSH1 0x20 ADD PUSH1 0x11 DUP3 ADD SLOAD DUP2 MSTORE POP POP SWAP1 POP SWAP2 SWAP1 POP JUMP JUMPDEST PUSH2 0x5BA3 PUSH2 0x9902 JUMP JUMPDEST PUSH1 0x7 PUSH0 DUP4 DUP2 MSTORE PUSH1 0x20 ADD SWAP1 DUP2 MSTORE PUSH1 0x20 ADD PUSH0 KECCAK256 PUSH1 0x40 MLOAD DUP1 PUSH1 0xA0 ADD PUSH1 0x40 MSTORE SWAP1 DUP2 PUSH0 DUP3 ADD SLOAD DUP2 MSTORE PUSH1 0x20 ADD PUSH1 0x1 DUP3 ADD DUP1 SLOAD DUP1 PUSH1 0x20 MUL PUSH1 0x20 ADD PUSH1 0x40 MLOAD SWAP1 DUP2 ADD PUSH1 0x40 MSTORE DUP1 SWAP3 SWAP2 SWAP1 DUP2 DUP2 MSTORE PUSH1 0x20 ADD PUSH0 SWAP1 JUMPDEST DUP3 DUP3 LT ISZERO PUSH2 0x5D7D JUMPI DUP4 DUP3 SWAP1 PUSH0 MSTORE PUSH1 0x20 PUSH0 KECCAK256 SWAP1 PUSH1 0x5 MUL ADD PUSH1 0x40 MLOAD DUP1 PUSH1 0xA0 ADD PUSH1 0x40 MSTORE SWAP1 DUP2 PUSH0 DUP3 ADD DUP1 SLOAD DUP1 PUSH1 0x20 MUL PUSH1 0x20 ADD PUSH1 0x40 MLOAD SWAP1 DUP2 ADD PUSH1 0x40 MSTORE DUP1 SWAP3 SWAP2 SWAP1 DUP2 DUP2 MSTORE PUSH1 0x20 ADD DUP3 DUP1 SLOAD DUP1 ISZERO PUSH2 0x5C59 JUMPI PUSH1 0x20 MUL DUP3 ADD SWAP2 SWAP1 PUSH0 MSTORE PUSH1 0x20 PUSH0 KECCAK256 SWAP1 JUMPDEST DUP2 SLOAD DUP2 MSTORE PUSH1 0x20 ADD SWAP1 PUSH1 0x1 ADD SWAP1 DUP1 DUP4 GT PUSH2 0x5C45 JUMPI JUMPDEST POP POP POP POP POP DUP2 MSTORE PUSH1 0x20 ADD PUSH1 0x1 DUP3 ADD DUP1 SLOAD DUP1 PUSH1 0x20 MUL PUSH1 0x20 ADD PUSH1 0x40 MLOAD SWAP1 DUP2 ADD PUSH1 0x40 MSTORE DUP1 SWAP3 SWAP2 SWAP1 DUP2 DUP2 MSTORE PUSH1 0x20 ADD DUP3 DUP1 SLOAD DUP1 ISZERO PUSH2 0x5CAF JUMPI PUSH1 0x20 MUL DUP3 ADD SWAP2 SWAP1 PUSH0 MSTORE PUSH1 0x20 PUSH0 KECCAK256 SWAP1 JUMPDEST DUP2 SLOAD DUP2 MSTORE PUSH1 0x20 ADD SWAP1 PUSH1 0x1 ADD SWAP1 DUP1 DUP4 GT PUSH2 0x5C9B JUMPI JUMPDEST POP POP POP POP POP DUP2 MSTORE PUSH1 0x20 ADD PUSH1 0x2 DUP3 ADD DUP1 SLOAD DUP1 PUSH1 0x20 MUL PUSH1 0x20 ADD PUSH1 0x40 MLOAD SWAP1 DUP2 ADD PUSH1 0x40 MSTORE DUP1 SWAP3 SWAP2 SWAP1 DUP2 DUP2 MSTORE PUSH1 0x20 ADD DUP3 DUP1 SLOAD DUP1 ISZERO PUSH2 0x5D05 JUMPI PUSH1 0x20 MUL DUP3 ADD SWAP2 SWAP1 PUSH0 MSTORE PUSH1 0x20 PUSH0 KECCAK256 SWAP1 JUMPDEST DUP2 SLOAD DUP2 MSTORE PUSH1 0x20 ADD SWAP1 PUSH1 0x1 ADD SWAP1 DUP1 DUP4 GT PUSH2 0x5CF1 JUMPI JUMPDEST POP POP POP POP POP DUP2 MSTORE PUSH1 0x20 ADD PUSH1 0x3 DUP3 ADD DUP1 SLOAD DUP1 PUSH1 0x20 MUL PUSH1 0x20 ADD PUSH1 0x40 MLOAD SWAP1 DUP2 ADD PUSH1 0x40 MSTORE DUP1 SWAP3 SWAP2 SWAP1 DUP2 DUP2 MSTORE PUSH1 0x20 ADD DUP3 DUP1 SLOAD DUP1 ISZERO PUSH2 0x5D5B JUMPI PUSH1 0x20 MUL DUP3 ADD SWAP2 SWAP1 PUSH0 MSTORE PUSH1 0x20 PUSH0 KECCAK256 SWAP1 JUMPDEST DUP2 SLOAD DUP2 MSTORE PUSH1 0x20 ADD SWAP1 PUSH1 0x1 ADD SWAP1 DUP1 DUP4 GT PUSH2 0x5D47 JUMPI JUMPDEST POP POP POP POP POP DUP2 MSTORE PUSH1 0x20 ADD PUSH1 0x4 DUP3 ADD SLOAD DUP2 MSTORE POP POP DUP2 MSTORE PUSH1 0x20 ADD SWAP1 PUSH1 0x1 ADD SWAP1 PUSH2 0x5BEC JUMP JUMPDEST POP POP POP POP DUP2 MSTORE PUSH1 0x20 ADD PUSH1 0x2 DUP3 ADD PUSH0 SWAP1 SLOAD SWAP1 PUSH2 0x100 EXP SWAP1 DIV PUSH20 0xFFFFFFFFFFFFFFFFFFFFFFFFFFFFFFFFFFFFFFFF AND PUSH20 0xFFFFFFFFFFFFFFFFFFFFFFFFFFFFFFFFFFFFFFFF AND PUSH20 0xFFFFFFFFFFFFFFFFFFFFFFFFFFFFFFFFFFFFFFFF AND DUP2 MSTORE PUSH1 0x20 ADD PUSH1 0x2 DUP3 ADD PUSH1 0x14 SWAP1 SLOAD SWAP1 PUSH2 0x100 EXP SWAP1 DIV PUSH1 0xFF AND ISZERO ISZERO ISZERO ISZERO DUP2 MSTORE PUSH1 0x20 ADD PUSH1 0x3 DUP3 ADD SLOAD DUP2 MSTORE POP POP SWAP1 POP SWAP2 SWAP1 POP JUMP JUMPDEST PUSH1 0x9 PUSH1 0x20 MSTORE DUP1 PUSH0 MSTORE PUSH1 0x40 PUSH0 KECCAK256 PUSH0 SWAP2 POP SWAP1 POP DUP1 PUSH0 ADD SLOAD SWAP1 DUP1 PUSH1 0x1 ADD SLOAD SWAP1 DUP1 PUSH1 0x2 ADD PUSH0 SWAP1 SLOAD SWAP1 PUSH2 0x100 EXP SWAP1 DIV PUSH20 0xFFFFFFFFFFFFFFFFFFFFFFFFFFFFFFFFFFFFFFFF AND SWAP1 DUP1 PUSH1 0x3 ADD PUSH1 0x40 MLOAD DUP1 PUSH2 0x120 ADD PUSH1 0x40 MSTORE SWAP1 DUP2 PUSH0 DUP3 ADD DUP1 SLOAD PUSH2 0x5E66 SWAP1 PUSH2 0xC566 JUMP JUMPDEST DUP1 PUSH1 0x1F ADD PUSH1 0x20 DUP1 SWAP2 DIV MUL PUSH1 0x20 ADD PUSH1 0x40 MLOAD SWAP1 DUP2 ADD PUSH1 0x40 MSTORE DUP1 SWAP3 SWAP2 SWAP1 DUP2 DUP2 MSTORE PUSH1 0x20 ADD DUP3 DUP1 SLOAD PUSH2 0x5E92 SWAP1 PUSH2 0xC566 JUMP JUMPDEST DUP1 ISZERO PUSH2 0x5EDD JUMPI DUP1 PUSH1 0x1F LT PUSH2 0x5EB4 JUMPI PUSH2 0x100 DUP1 DUP4 SLOAD DIV MUL DUP4 MSTORE SWAP2 PUSH1 0x20 ADD SWAP2 PUSH2 0x5EDD JUMP JUMPDEST DUP3 ADD SWAP2 SWAP1 PUSH0 MSTORE PUSH1 0x20 PUSH0 KECCAK256 SWAP1 JUMPDEST DUP2 SLOAD DUP2 MSTORE SWAP1 PUSH1 0x1 ADD SWAP1 PUSH1 0x20 ADD DUP1 DUP4 GT PUSH2 0x5EC0 JUMPI DUP3 SWAP1 SUB PUSH1 0x1F AND DUP3 ADD SWAP2 JUMPDEST POP POP POP POP POP DUP2 MSTORE PUSH1 0x20 ADD PUSH1 0x1 DUP3 ADD DUP1 SLOAD PUSH2 0x5EF6 SWAP1 PUSH2 0xC566 JUMP JUMPDEST DUP1 PUSH1 0x1F ADD PUSH1 0x20 DUP1 SWAP2 DIV MUL PUSH1 0x20 ADD PUSH1 0x40 MLOAD SWAP1 DUP2 ADD PUSH1 0x40 MSTORE DUP1 SWAP3 SWAP2 SWAP1 DUP2 DUP2 MSTORE PUSH1 0x20 ADD DUP3 DUP1 SLOAD PUSH2 0x5F22 SWAP1 PUSH2 0xC566 JUMP JUMPDEST DUP1 ISZERO PUSH2 0x5F6D JUMPI DUP1 PUSH1 0x1F LT PUSH2 0x5F44 JUMPI PUSH2 0x100 DUP1 DUP4 SLOAD DIV MUL DUP4 MSTORE SWAP2 PUSH1 0x20 ADD SWAP2 PUSH2 0x5F6D JUMP JUMPDEST DUP3 ADD SWAP2 SWAP1 PUSH0 MSTORE PUSH1 0x20 PUSH0 KECCAK256 SWAP1 JUMPDEST DUP2 SLOAD DUP2 MSTORE SWAP1 PUSH1 0x1 ADD SWAP1 PUSH1 0x20 ADD DUP1 DUP4 GT PUSH2 0x5F50 JUMPI DUP3 SWAP1 SUB PUSH1 0x1F AND DUP3 ADD SWAP2 JUMPDEST POP POP POP POP POP DUP2 MSTORE PUSH1 0x20 ADD PUSH1 0x2 DUP3 ADD DUP1 SLOAD PUSH2 0x5F86 SWAP1 PUSH2 0xC566 JUMP JUMPDEST DUP1 PUSH1 0x1F ADD PUSH1 0x20 DUP1 SWAP2 DIV MUL PUSH1 0x20 ADD PUSH1 0x40 MLOAD SWAP1 DUP2 ADD PUSH1 0x40 MSTORE DUP1 SWAP3 SWAP2 SWAP1 DUP2 DUP2 MSTORE PUSH1 0x20 ADD DUP3 DUP1 SLOAD PUSH2 0x5FB2 SWAP1 PUSH2 0xC566 JUMP JUMPDEST DUP1 ISZERO PUSH2 0x5FFD JUMPI DUP1 PUSH1 0x1F LT PUSH2 0x5FD4 JUMPI PUSH2 0x100 DUP1 DUP4 SLOAD DIV MUL DUP4 MSTORE SWAP2 PUSH1 0x20 ADD SWAP2 PUSH2 0x5FFD JUMP JUMPDEST DUP3 ADD SWAP2 SWAP1 PUSH0 MSTORE PUSH1 0x20 PUSH0 KECCAK256 SWAP1 JUMPDEST DUP2 SLOAD DUP2 MSTORE SWAP1 PUSH1 0x1 ADD SWAP1 PUSH1 0x20 ADD DUP1 DUP4 GT PUSH2 0x5FE0 JUMPI DUP3 SWAP1 SUB PUSH1 0x1F AND DUP3 ADD SWAP2 JUMPDEST POP POP POP POP POP DUP2 MSTORE PUSH1 0x20 ADD PUSH1 0x3 DUP3 ADD DUP1 SLOAD PUSH2 0x6016 SWAP1 PUSH2 0xC566 JUMP JUMPDEST DUP1 PUSH1 0x1F ADD PUSH1 0x20 DUP1 SWAP2 DIV MUL PUSH1 0x20 ADD PUSH1 0x40 MLOAD SWAP1 DUP2 ADD PUSH1 0x40 MSTORE DUP1 SWAP3 SWAP2 SWAP1 DUP2 DUP2 MSTORE PUSH1 0x20 ADD DUP3 DUP1 SLOAD PUSH2 0x6042 SWAP1 PUSH2 0xC566 JUMP JUMPDEST DUP1 ISZERO PUSH2 0x608D JUMPI DUP1 PUSH1 0x1F LT PUSH2 0x6064 JUMPI PUSH2 0x100 DUP1 DUP4 SLOAD DIV MUL DUP4 MSTORE SWAP2 PUSH1 0x20 ADD SWAP2 PUSH2 0x608D JUMP JUMPDEST DUP3 ADD SWAP2 SWAP1 PUSH0 MSTORE PUSH1 0x20 PUSH0 KECCAK256 SWAP1 JUMPDEST DUP2 SLOAD DUP2 MSTORE SWAP1 PUSH1 0x1 ADD SWAP1 PUSH1 0x20 ADD DUP1 DUP4 GT PUSH2 0x6070 JUMPI DUP3 SWAP1 SUB PUSH1 0x1F AND DUP3 ADD SWAP2 JUMPDEST POP POP POP POP POP DUP2 MSTORE PUSH1 0x20 ADD PUSH1 0x4 DUP3 ADD DUP1 SLOAD PUSH2 0x60A6 SWAP1 PUSH2 0xC566 JUMP JUMPDEST DUP1 PUSH1 0x1F ADD PUSH1 0x20 DUP1 SWAP2 DIV MUL PUSH1 0x20 ADD PUSH1 0x40 MLOAD SWAP1 DUP2 ADD PUSH1 0x40 MSTORE DUP1 SWAP3 SWAP2 SWAP1 DUP2 DUP2 MSTORE PUSH1 0x20 ADD DUP3 DUP1 SLOAD PUSH2 0x60D2 SWAP1 PUSH2 0xC566 JUMP JUMPDEST DUP1 ISZERO PUSH2 0x611D JUMPI DUP1 PUSH1 0x1F LT PUSH2 0x60F4 JUMPI PUSH2 0x100 DUP1 DUP4 SLOAD DIV MUL DUP4 MSTORE SWAP2 PUSH1 0x20 ADD SWAP2 PUSH2 0x611D JUMP JUMPDEST DUP3 ADD SWAP2 SWAP1 PUSH0 MSTORE PUSH1 0x20 PUSH0 KECCAK256 SWAP1 JUMPDEST DUP2 SLOAD DUP2 MSTORE SWAP1 PUSH1 0x1 ADD SWAP1 PUSH1 0x20 ADD DUP1 DUP4 GT PUSH2 0x6100 JUMPI DUP3 SWAP1 SUB PUSH1 0x1F AND DUP3 ADD SWAP2 JUMPDEST POP POP POP POP POP DUP2 MSTORE PUSH1 0x20 ADD PUSH1 0x5 DUP3 ADD DUP1 SLOAD PUSH2 0x6136 SWAP1 PUSH2 0xC566 JUMP JUMPDEST DUP1 PUSH1 0x1F ADD PUSH1 0x20 DUP1 SWAP2 DIV MUL PUSH1 0x20 ADD PUSH1 0x40 MLOAD SWAP1 DUP2 ADD PUSH1 0x40 MSTORE DUP1 SWAP3 SWAP2 SWAP1 DUP2 DUP2 MSTORE PUSH1 0x20 ADD DUP3 DUP1 SLOAD PUSH2 0x6162 SWAP1 PUSH2 0xC566 JUMP JUMPDEST DUP1 ISZERO PUSH2 0x61AD JUMPI DUP1 PUSH1 0x1F LT PUSH2 0x6184 JUMPI PUSH2 0x100 DUP1 DUP4 SLOAD DIV MUL DUP4 MSTORE SWAP2 PUSH1 0x20 ADD SWAP2 PUSH2 0x61AD JUMP JUMPDEST DUP3 ADD SWAP2 SWAP1 PUSH0 MSTORE PUSH1 0x20 PUSH0 KECCAK256 SWAP1 JUMPDEST DUP2 SLOAD DUP2 MSTORE SWAP1 PUSH1 0x1 ADD SWAP1 PUSH1 0x20 ADD DUP1 DUP4 GT PUSH2 0x6190 JUMPI DUP3 SWAP1 SUB PUSH1 0x1F AND DUP3 ADD SWAP2 JUMPDEST POP POP POP POP POP DUP2 MSTORE PUSH1 0x20 ADD PUSH1 0x6 DUP3 ADD DUP1 SLOAD PUSH2 0x61C6 SWAP1 PUSH2 0xC566 JUMP JUMPDEST DUP1 PUSH1 0x1F ADD PUSH1 0x20 DUP1 SWAP2 DIV MUL PUSH1 0x20 ADD PUSH1 0x40 MLOAD SWAP1 DUP2 ADD PUSH1 0x40 MSTORE DUP1 SWAP3 SWAP2 SWAP1 DUP2 DUP2 MSTORE PUSH1 0x20 ADD DUP3 DUP1 SLOAD PUSH2 0x61F2 SWAP1 PUSH2 0xC566 JUMP JUMPDEST DUP1 ISZERO PUSH2 0x623D JUMPI DUP1 PUSH1 0x1F LT PUSH2 0x6214 JUMPI PUSH2 0x100 DUP1 DUP4 SLOAD DIV MUL DUP4 MSTORE SWAP2 PUSH1 0x20 ADD SWAP2 PUSH2 0x623D JUMP JUMPDEST DUP3 ADD SWAP2 SWAP1 PUSH0 MSTORE PUSH1 0x20 PUSH0 KECCAK256 SWAP1 JUMPDEST DUP2 SLOAD DUP2 MSTORE SWAP1 PUSH1 0x1 ADD SWAP1 PUSH1 0x20 ADD DUP1 DUP4 GT PUSH2 0x6220 JUMPI DUP3 SWAP1 SUB PUSH1 0x1F AND DUP3 ADD SWAP2 JUMPDEST POP POP POP POP POP DUP2 MSTORE PUSH1 0x20 ADD PUSH1 0x7 DUP3 ADD DUP1 SLOAD PUSH2 0x6256 SWAP1 PUSH2 0xC566 JUMP JUMPDEST DUP1 PUSH1 0x1F ADD PUSH1 0x20 DUP1 SWAP2 DIV MUL PUSH1 0x20 ADD PUSH1 0x40 MLOAD SWAP1 DUP2 ADD PUSH1 0x40 MSTORE DUP1 SWAP3 SWAP2 SWAP1 DUP2 DUP2 MSTORE PUSH1 0x20 ADD DUP3 DUP1 SLOAD PUSH2 0x6282 SWAP1 PUSH2 0xC566 JUMP JUMPDEST DUP1 ISZERO PUSH2 0x62CD JUMPI DUP1 PUSH1 0x1F LT PUSH2 0x62A4 JUMPI PUSH2 0x100 DUP1 DUP4 SLOAD DIV MUL DUP4 MSTORE SWAP2 PUSH1 0x20 ADD SWAP2 PUSH2 0x62CD JUMP JUMPDEST DUP3 ADD SWAP2 SWAP1 PUSH0 MSTORE PUSH1 0x20 PUSH0 KECCAK256 SWAP1 JUMPDEST DUP2 SLOAD DUP2 MSTORE SWAP1 PUSH1 0x1 ADD SWAP1 PUSH1 0x20 ADD DUP1 DUP4 GT PUSH2 0x62B0 JUMPI DUP3 SWAP1 SUB PUSH1 0x1F AND DUP3 ADD SWAP2 JUMPDEST POP POP POP POP POP DUP2 MSTORE PUSH1 0x20 ADD PUSH1 0x8 DUP3 ADD DUP1 SLOAD PUSH2 0x62E6 SWAP1 PUSH2 0xC566 JUMP JUMPDEST DUP1 PUSH1 0x1F ADD PUSH1 0x20 DUP1 SWAP2 DIV MUL PUSH1 0x20 ADD PUSH1 0x40 MLOAD SWAP1 DUP2 ADD PUSH1 0x40 MSTORE DUP1 SWAP3 SWAP2 SWAP1 DUP2 DUP2 MSTORE PUSH1 0x20 ADD DUP3 DUP1 SLOAD PUSH2 0x6312 SWAP1 PUSH2 0xC566 JUMP JUMPDEST DUP1 ISZERO PUSH2 0x635D JUMPI DUP1 PUSH1 0x1F LT PUSH2 0x6334 JUMPI PUSH2 0x100 DUP1 DUP4 SLOAD DIV MUL DUP4 MSTORE SWAP2 PUSH1 0x20 ADD SWAP2 PUSH2 0x635D JUMP JUMPDEST DUP3 ADD SWAP2 SWAP1 PUSH0 MSTORE PUSH1 0x20 PUSH0 KECCAK256 SWAP1 JUMPDEST DUP2 SLOAD DUP2 MSTORE SWAP1 PUSH1 0x1 ADD SWAP1 PUSH1 0x20 ADD DUP1 DUP4 GT PUSH2 0x6340 JUMPI DUP3 SWAP1 SUB PUSH1 0x1F AND DUP3 ADD SWAP2 JUMPDEST POP POP POP POP POP DUP2 MSTORE POP POP SWAP1 POP DUP5 JUMP JUMPDEST PUSH0 PUSH1 0x17 PUSH0 SWAP1 SLOAD SWAP1 PUSH2 0x100 EXP SWAP1 DIV PUSH20 0xFFFFFFFFFFFFFFFFFFFFFFFFFFFFFFFFFFFFFFFF AND DUP1 PUSH20 0xFFFFFFFFFFFFFFFFFFFFFFFFFFFFFFFFFFFFFFFF AND CALLER PUSH20 0xFFFFFFFFFFFFFFFFFFFFFFFFFFFFFFFFFFFFFFFF AND EQ PUSH2 0x63FC JUMPI PUSH1 0x40 MLOAD PUSH32 0x8C379A000000000000000000000000000000000000000000000000000000000 DUP2 MSTORE PUSH1 0x4 ADD PUSH2 0x63F3 SWAP1 PUSH2 0xCD21 JUMP JUMPDEST PUSH1 0x40 MLOAD DUP1 SWAP2 SUB SWAP1 REVERT JUMPDEST DUP3 PUSH1 0x16 PUSH0 PUSH2 0x100 EXP DUP2 SLOAD DUP2 PUSH20 0xFFFFFFFFFFFFFFFFFFFFFFFFFFFFFFFFFFFFFFFF MUL NOT AND SWAP1 DUP4 PUSH20 0xFFFFFFFFFFFFFFFFFFFFFFFFFFFFFFFFFFFFFFFF AND MUL OR SWAP1 SSTORE POP PUSH1 0x1 SWAP2 POP POP SWAP2 SWAP1 POP JUMP JUMPDEST PUSH2 0x644E PUSH2 0x9986 JUMP JUMPDEST PUSH1 0x8 PUSH0 DUP4 DUP2 MSTORE PUSH1 0x20 ADD SWAP1 DUP2 MSTORE PUSH1 0x20 ADD PUSH0 KECCAK256 PUSH1 0x40 MLOAD DUP1 PUSH1 0x80 ADD PUSH1 0x40 MSTORE SWAP1 DUP2 PUSH0 DUP3 ADD DUP1 SLOAD DUP1 PUSH1 0x20 MUL PUSH1 0x20 ADD PUSH1 0x40 MLOAD SWAP1 DUP2 ADD PUSH1 0x40 MSTORE DUP1 SWAP3 SWAP2 SWAP1 DUP2 DUP2 MSTORE PUSH1 0x20 ADD PUSH0 SWAP1 JUMPDEST DUP3 DUP3 LT ISZERO PUSH2 0x65B8 JUMPI DUP4 DUP3 SWAP1 PUSH0 MSTORE PUSH1 0x20 PUSH0 KECCAK256 SWAP1 PUSH1 0x5 MUL ADD PUSH1 0x40 MLOAD DUP1 PUSH1 0xA0 ADD PUSH1 0x40 MSTORE SWAP1 DUP2 PUSH0 DUP3 ADD SLOAD DUP2 MSTORE PUSH1 0x20 ADD PUSH1 0x1 DUP3 ADD SLOAD DUP2 MSTORE PUSH1 0x20 ADD PUSH1 0x2 DUP3 ADD SLOAD DUP2 MSTORE PUSH1 0x20 ADD PUSH1 0x3 DUP3 ADD SLOAD DUP2 MSTORE PUSH1 0x20 ADD PUSH1 0x4 DUP3 ADD DUP1 SLOAD DUP1 PUSH1 0x20 MUL PUSH1 0x20 ADD PUSH1 0x40 MLOAD SWAP1 DUP2 ADD PUSH1 0x40 MSTORE DUP1 SWAP3 SWAP2 SWAP1 DUP2 DUP2 MSTORE PUSH1 0x20 ADD PUSH0 SWAP1 JUMPDEST DUP3 DUP3 LT ISZERO PUSH2 0x65A1 JUMPI DUP4 DUP3 SWAP1 PUSH0 MSTORE PUSH1 0x20 PUSH0 KECCAK256 ADD DUP1 SLOAD PUSH2 0x6516 SWAP1 PUSH2 0xC566 JUMP JUMPDEST DUP1 PUSH1 0x1F ADD PUSH1 0x20 DUP1 SWAP2 DIV MUL PUSH1 0x20 ADD PUSH1 0x40 MLOAD SWAP1 DUP2 ADD PUSH1 0x40 MSTORE DUP1 SWAP3 SWAP2 SWAP1 DUP2 DUP2 MSTORE PUSH1 0x20 ADD DUP3 DUP1 SLOAD PUSH2 0x6542 SWAP1 PUSH2 0xC566 JUMP JUMPDEST DUP1 ISZERO PUSH2 0x658D JUMPI DUP1 PUSH1 0x1F LT PUSH2 0x6564 JUMPI PUSH2 0x100 DUP1 DUP4 SLOAD DIV MUL DUP4 MSTORE SWAP2 PUSH1 0x20 ADD SWAP2 PUSH2 0x658D JUMP JUMPDEST DUP3 ADD SWAP2 SWAP1 PUSH0 MSTORE PUSH1 0x20 PUSH0 KECCAK256 SWAP1 JUMPDEST DUP2 SLOAD DUP2 MSTORE SWAP1 PUSH1 0x1 ADD SWAP1 PUSH1 0x20 ADD DUP1 DUP4 GT PUSH2 0x6570 JUMPI DUP3 SWAP1 SUB PUSH1 0x1F AND DUP3 ADD SWAP2 JUMPDEST POP POP POP POP POP DUP2 MSTORE PUSH1 0x20 ADD SWAP1 PUSH1 0x1 ADD SWAP1 PUSH2 0x64F9 JUMP JUMPDEST POP POP POP POP DUP2 MSTORE POP POP DUP2 MSTORE PUSH1 0x20 ADD SWAP1 PUSH1 0x1 ADD SWAP1 PUSH2 0x648D JUMP JUMPDEST POP POP POP POP DUP2 MSTORE PUSH1 0x20 ADD PUSH1 0x1 DUP3 ADD PUSH1 0x40 MLOAD DUP1 PUSH2 0x120 ADD PUSH1 0x40 MSTORE SWAP1 DUP2 PUSH0 DUP3 ADD DUP1 SLOAD PUSH2 0x65E0 SWAP1 PUSH2 0xC566 JUMP JUMPDEST DUP1 PUSH1 0x1F ADD PUSH1 0x20 DUP1 SWAP2 DIV MUL PUSH1 0x20 ADD PUSH1 0x40 MLOAD SWAP1 DUP2 ADD PUSH1 0x40 MSTORE DUP1 SWAP3 SWAP2 SWAP1 DUP2 DUP2 MSTORE PUSH1 0x20 ADD DUP3 DUP1 SLOAD PUSH2 0x660C SWAP1 PUSH2 0xC566 JUMP JUMPDEST DUP1 ISZERO PUSH2 0x6657 JUMPI DUP1 PUSH1 0x1F LT PUSH2 0x662E JUMPI PUSH2 0x100 DUP1 DUP4 SLOAD DIV MUL DUP4 MSTORE SWAP2 PUSH1 0x20 ADD SWAP2 PUSH2 0x6657 JUMP JUMPDEST DUP3 ADD SWAP2 SWAP1 PUSH0 MSTORE PUSH1 0x20 PUSH0 KECCAK256 SWAP1 JUMPDEST DUP2 SLOAD DUP2 MSTORE SWAP1 PUSH1 0x1 ADD SWAP1 PUSH1 0x20 ADD DUP1 DUP4 GT PUSH2 0x663A JUMPI DUP3 SWAP1 SUB PUSH1 0x1F AND DUP3 ADD SWAP2 JUMPDEST POP POP POP POP POP DUP2 MSTORE PUSH1 0x20 ADD PUSH1 0x1 DUP3 ADD DUP1 SLOAD PUSH2 0x6670 SWAP1 PUSH2 0xC566 JUMP JUMPDEST DUP1 PUSH1 0x1F ADD PUSH1 0x20 DUP1 SWAP2 DIV MUL PUSH1 0x20 ADD PUSH1 0x40 MLOAD SWAP1 DUP2 ADD PUSH1 0x40 MSTORE DUP1 SWAP3 SWAP2 SWAP1 DUP2 DUP2 MSTORE PUSH1 0x20 ADD DUP3 DUP1 SLOAD PUSH2 0x669C SWAP1 PUSH2 0xC566 JUMP JUMPDEST DUP1 ISZERO PUSH2 0x66E7 JUMPI DUP1 PUSH1 0x1F LT PUSH2 0x66BE JUMPI PUSH2 0x100 DUP1 DUP4 SLOAD DIV MUL DUP4 MSTORE SWAP2 PUSH1 0x20 ADD SWAP2 PUSH2 0x66E7 JUMP JUMPDEST DUP3 ADD SWAP2 SWAP1 PUSH0 MSTORE PUSH1 0x20 PUSH0 KECCAK256 SWAP1 JUMPDEST DUP2 SLOAD DUP2 MSTORE SWAP1 PUSH1 0x1 ADD SWAP1 PUSH1 0x20 ADD DUP1 DUP4 GT PUSH2 0x66CA JUMPI DUP3 SWAP1 SUB PUSH1 0x1F AND DUP3 ADD SWAP2 JUMPDEST POP POP POP POP POP DUP2 MSTORE PUSH1 0x20 ADD PUSH1 0x2 DUP3 ADD DUP1 SLOAD PUSH2 0x6700 SWAP1 PUSH2 0xC566 JUMP JUMPDEST DUP1 PUSH1 0x1F ADD PUSH1 0x20 DUP1 SWAP2 DIV MUL PUSH1 0x20 ADD PUSH1 0x40 MLOAD SWAP1 DUP2 ADD PUSH1 0x40 MSTORE DUP1 SWAP3 SWAP2 SWAP1 DUP2 DUP2 MSTORE PUSH1 0x20 ADD DUP3 DUP1 SLOAD PUSH2 0x672C SWAP1 PUSH2 0xC566 JUMP JUMPDEST DUP1 ISZERO PUSH2 0x6777 JUMPI DUP1 PUSH1 0x1F LT PUSH2 0x674E JUMPI PUSH2 0x100 DUP1 DUP4 SLOAD DIV MUL DUP4 MSTORE SWAP2 PUSH1 0x20 ADD SWAP2 PUSH2 0x6777 JUMP JUMPDEST DUP3 ADD SWAP2 SWAP1 PUSH0 MSTORE PUSH1 0x20 PUSH0 KECCAK256 SWAP1 JUMPDEST DUP2 SLOAD DUP2 MSTORE SWAP1 PUSH1 0x1 ADD SWAP1 PUSH1 0x20 ADD DUP1 DUP4 GT PUSH2 0x675A JUMPI DUP3 SWAP1 SUB PUSH1 0x1F AND DUP3 ADD SWAP2 JUMPDEST POP POP POP POP POP DUP2 MSTORE PUSH1 0x20 ADD PUSH1 0x3 DUP3 ADD DUP1 SLOAD PUSH2 0x6790 SWAP1 PUSH2 0xC566 JUMP JUMPDEST DUP1 PUSH1 0x1F ADD PUSH1 0x20 DUP1 SWAP2 DIV MUL PUSH1 0x20 ADD PUSH1 0x40 MLOAD SWAP1 DUP2 ADD PUSH1 0x40 MSTORE DUP1 SWAP3 SWAP2 SWAP1 DUP2 DUP2 MSTORE PUSH1 0x20 ADD DUP3 DUP1 SLOAD PUSH2 0x67BC SWAP1 PUSH2 0xC566 JUMP JUMPDEST DUP1 ISZERO PUSH2 0x6807 JUMPI DUP1 PUSH1 0x1F LT PUSH2 0x67DE JUMPI PUSH2 0x100 DUP1 DUP4 SLOAD DIV MUL DUP4 MSTORE SWAP2 PUSH1 0x20 ADD SWAP2 PUSH2 0x6807 JUMP JUMPDEST DUP3 ADD SWAP2 SWAP1 PUSH0 MSTORE PUSH1 0x20 PUSH0 KECCAK256 SWAP1 JUMPDEST DUP2 SLOAD DUP2 MSTORE SWAP1 PUSH1 0x1 ADD SWAP1 PUSH1 0x20 ADD DUP1 DUP4 GT PUSH2 0x67EA JUMPI DUP3 SWAP1 SUB PUSH1 0x1F AND DUP3 ADD SWAP2 JUMPDEST POP POP POP POP POP DUP2 MSTORE PUSH1 0x20 ADD PUSH1 0x4 DUP3 ADD DUP1 SLOAD PUSH2 0x6820 SWAP1 PUSH2 0xC566 JUMP JUMPDEST DUP1 PUSH1 0x1F ADD PUSH1 0x20 DUP1 SWAP2 DIV MUL PUSH1 0x20 ADD PUSH1 0x40 MLOAD SWAP1 DUP2 ADD PUSH1 0x40 MSTORE DUP1 SWAP3 SWAP2 SWAP1 DUP2 DUP2 MSTORE PUSH1 0x20 ADD DUP3 DUP1 SLOAD PUSH2 0x684C SWAP1 PUSH2 0xC566 JUMP JUMPDEST DUP1 ISZERO PUSH2 0x6897 JUMPI DUP1 PUSH1 0x1F LT PUSH2 0x686E JUMPI PUSH2 0x100 DUP1 DUP4 SLOAD DIV MUL DUP4 MSTORE SWAP2 PUSH1 0x20 ADD SWAP2 PUSH2 0x6897 JUMP JUMPDEST DUP3 ADD SWAP2 SWAP1 PUSH0 MSTORE PUSH1 0x20 PUSH0 KECCAK256 SWAP1 JUMPDEST DUP2 SLOAD DUP2 MSTORE SWAP1 PUSH1 0x1 ADD SWAP1 PUSH1 0x20 ADD DUP1 DUP4 GT PUSH2 0x687A JUMPI DUP3 SWAP1 SUB PUSH1 0x1F AND DUP3 ADD SWAP2 JUMPDEST POP POP POP POP POP DUP2 MSTORE PUSH1 0x20 ADD PUSH1 0x5 DUP3 ADD DUP1 SLOAD PUSH2 0x68B0 SWAP1 PUSH2 0xC566 JUMP JUMPDEST DUP1 PUSH1 0x1F ADD PUSH1 0x20 DUP1 SWAP2 DIV MUL PUSH1 0x20 ADD PUSH1 0x40 MLOAD SWAP1 DUP2 ADD PUSH1 0x40 MSTORE DUP1 SWAP3 SWAP2 SWAP1 DUP2 DUP2 MSTORE PUSH1 0x20 ADD DUP3 DUP1 SLOAD PUSH2 0x68DC SWAP1 PUSH2 0xC566 JUMP JUMPDEST DUP1 ISZERO PUSH2 0x6927 JUMPI DUP1 PUSH1 0x1F LT PUSH2 0x68FE JUMPI PUSH2 0x100 DUP1 DUP4 SLOAD DIV MUL DUP4 MSTORE SWAP2 PUSH1 0x20 ADD SWAP2 PUSH2 0x6927 JUMP JUMPDEST DUP3 ADD SWAP2 SWAP1 PUSH0 MSTORE PUSH1 0x20 PUSH0 KECCAK256 SWAP1 JUMPDEST DUP2 SLOAD DUP2 MSTORE SWAP1 PUSH1 0x1 ADD SWAP1 PUSH1 0x20 ADD DUP1 DUP4 GT PUSH2 0x690A JUMPI DUP3 SWAP1 SUB PUSH1 0x1F AND DUP3 ADD SWAP2 JUMPDEST POP POP POP POP POP DUP2 MSTORE PUSH1 0x20 ADD PUSH1 0x6 DUP3 ADD DUP1 SLOAD PUSH2 0x6940 SWAP1 PUSH2 0xC566 JUMP JUMPDEST DUP1 PUSH1 0x1F ADD PUSH1 0x20 DUP1 SWAP2 DIV MUL PUSH1 0x20 ADD PUSH1 0x40 MLOAD SWAP1 DUP2 ADD PUSH1 0x40 MSTORE DUP1 SWAP3 SWAP2 SWAP1 DUP2 DUP2 MSTORE PUSH1 0x20 ADD DUP3 DUP1 SLOAD PUSH2 0x696C SWAP1 PUSH2 0xC566 JUMP JUMPDEST DUP1 ISZERO PUSH2 0x69B7 JUMPI DUP1 PUSH1 0x1F LT PUSH2 0x698E JUMPI PUSH2 0x100 DUP1 DUP4 SLOAD DIV MUL DUP4 MSTORE SWAP2 PUSH1 0x20 ADD SWAP2 PUSH2 0x69B7 JUMP JUMPDEST DUP3 ADD SWAP2 SWAP1 PUSH0 MSTORE PUSH1 0x20 PUSH0 KECCAK256 SWAP1 JUMPDEST DUP2 SLOAD DUP2 MSTORE SWAP1 PUSH1 0x1 ADD SWAP1 PUSH1 0x20 ADD DUP1 DUP4 GT PUSH2 0x699A JUMPI DUP3 SWAP1 SUB PUSH1 0x1F AND DUP3 ADD SWAP2 JUMPDEST POP POP POP POP POP DUP2 MSTORE PUSH1 0x20 ADD PUSH1 0x7 DUP3 ADD DUP1 SLOAD PUSH2 0x69D0 SWAP1 PUSH2 0xC566 JUMP JUMPDEST DUP1 PUSH1 0x1F ADD PUSH1 0x20 DUP1 SWAP2 DIV MUL PUSH1 0x20 ADD PUSH1 0x40 MLOAD SWAP1 DUP2 ADD PUSH1 0x40 MSTORE DUP1 SWAP3 SWAP2 SWAP1 DUP2 DUP2 MSTORE PUSH1 0x20 ADD DUP3 DUP1 SLOAD PUSH2 0x69FC SWAP1 PUSH2 0xC566 JUMP JUMPDEST DUP1 ISZERO PUSH2 0x6A47 JUMPI DUP1 PUSH1 0x1F LT PUSH2 0x6A1E JUMPI PUSH2 0x100 DUP1 DUP4 SLOAD DIV MUL DUP4 MSTORE SWAP2 PUSH1 0x20 ADD SWAP2 PUSH2 0x6A47 JUMP JUMPDEST DUP3 ADD SWAP2 SWAP1 PUSH0 MSTORE PUSH1 0x20 PUSH0 KECCAK256 SWAP1 JUMPDEST DUP2 SLOAD DUP2 MSTORE SWAP1 PUSH1 0x1 ADD SWAP1 PUSH1 0x20 ADD DUP1 DUP4 GT PUSH2 0x6A2A JUMPI DUP3 SWAP1 SUB PUSH1 0x1F AND DUP3 ADD SWAP2 JUMPDEST POP POP POP POP POP DUP2 MSTORE PUSH1 0x20 ADD PUSH1 0x8 DUP3 ADD DUP1 SLOAD PUSH2 0x6A60 SWAP1 PUSH2 0xC566 JUMP JUMPDEST DUP1 PUSH1 0x1F ADD PUSH1 0x20 DUP1 SWAP2 DIV MUL PUSH1 0x20 ADD PUSH1 0x40 MLOAD SWAP1 DUP2 ADD PUSH1 0x40 MSTORE DUP1 SWAP3 SWAP2 SWAP1 DUP2 DUP2 MSTORE PUSH1 0x20 ADD DUP3 DUP1 SLOAD PUSH2 0x6A8C SWAP1 PUSH2 0xC566 JUMP JUMPDEST DUP1 ISZERO PUSH2 0x6AD7 JUMPI DUP1 PUSH1 0x1F LT PUSH2 0x6AAE JUMPI PUSH2 0x100 DUP1 DUP4 SLOAD DIV MUL DUP4 MSTORE SWAP2 PUSH1 0x20 ADD SWAP2 PUSH2 0x6AD7 JUMP JUMPDEST DUP3 ADD SWAP2 SWAP1 PUSH0 MSTORE PUSH1 0x20 PUSH0 KECCAK256 SWAP1 JUMPDEST DUP2 SLOAD DUP2 MSTORE SWAP1 PUSH1 0x1 ADD SWAP1 PUSH1 0x20 ADD DUP1 DUP4 GT PUSH2 0x6ABA JUMPI DUP3 SWAP1 SUB PUSH1 0x1F AND DUP3 ADD SWAP2 JUMPDEST POP POP POP POP POP DUP2 MSTORE POP POP DUP2 MSTORE PUSH1 0x20 ADD PUSH1 0xA DUP3 ADD PUSH0 SWAP1 SLOAD SWAP1 PUSH2 0x100 EXP SWAP1 DIV PUSH20 0xFFFFFFFFFFFFFFFFFFFFFFFFFFFFFFFFFFFFFFFF AND PUSH20 0xFFFFFFFFFFFFFFFFFFFFFFFFFFFFFFFFFFFFFFFF AND PUSH20 0xFFFFFFFFFFFFFFFFFFFFFFFFFFFFFFFFFFFFFFFF AND DUP2 MSTORE PUSH1 0x20 ADD PUSH1 0xB DUP3 ADD PUSH1 0x40 MLOAD DUP1 PUSH1 0x80 ADD PUSH1 0x40 MSTORE SWAP1 DUP2 PUSH0 DUP3 ADD SLOAD DUP2 MSTORE PUSH1 0x20 ADD PUSH1 0x1 DUP3 ADD SLOAD DUP2 MSTORE PUSH1 0x20 ADD PUSH1 0x2 DUP3 ADD PUSH0 SWAP1 SLOAD SWAP1 PUSH2 0x100 EXP SWAP1 DIV PUSH1 0xFF AND PUSH1 0x1 DUP2 GT ISZERO PUSH2 0x6B80 JUMPI PUSH2 0x6B7F PUSH2 0xBD9C JUMP JUMPDEST JUMPDEST PUSH1 0x1 DUP2 GT ISZERO PUSH2 0x6B92 JUMPI PUSH2 0x6B91 PUSH2 0xBD9C JUMP JUMPDEST JUMPDEST DUP2 MSTORE PUSH1 0x20 ADD PUSH1 0x2 DUP3 ADD PUSH1 0x1 SWAP1 SLOAD SWAP1 PUSH2 0x100 EXP SWAP1 DIV PUSH1 0xFF AND PUSH1 0x1 DUP2 GT ISZERO PUSH2 0x6BBB JUMPI PUSH2 0x6BBA PUSH2 0xBD9C JUMP JUMPDEST JUMPDEST PUSH1 0x1 DUP2 GT ISZERO PUSH2 0x6BCD JUMPI PUSH2 0x6BCC PUSH2 0xBD9C JUMP JUMPDEST JUMPDEST DUP2 MSTORE POP POP DUP2 MSTORE POP POP SWAP1 POP SWAP2 SWAP1 POP JUMP JUMPDEST PUSH1 0x60 PUSH0 PUSH1 0x6 PUSH0 DUP5 PUSH20 0xFFFFFFFFFFFFFFFFFFFFFFFFFFFFFFFFFFFFFFFF AND PUSH20 0xFFFFFFFFFFFFFFFFFFFFFFFFFFFFFFFFFFFFFFFF AND DUP2 MSTORE PUSH1 0x20 ADD SWAP1 DUP2 MSTORE PUSH1 0x20 ADD PUSH0 KECCAK256 DUP1 SLOAD SWAP1 POP PUSH8 0xFFFFFFFFFFFFFFFF DUP2 GT ISZERO PUSH2 0x6C39 JUMPI PUSH2 0x6C38 PUSH2 0x9D24 JUMP JUMPDEST JUMPDEST PUSH1 0x40 MLOAD SWAP1 DUP1 DUP3 MSTORE DUP1 PUSH1 0x20 MUL PUSH1 0x20 ADD DUP3 ADD PUSH1 0x40 MSTORE DUP1 ISZERO PUSH2 0x6C72 JUMPI DUP2 PUSH1 0x20 ADD JUMPDEST PUSH2 0x6C5F PUSH2 0x9902 JUMP JUMPDEST DUP2 MSTORE PUSH1 0x20 ADD SWAP1 PUSH1 0x1 SWAP1 SUB SWAP1 DUP2 PUSH2 0x6C57 JUMPI SWAP1 POP JUMPDEST POP SWAP1 POP PUSH0 PUSH1 0x6 PUSH0 DUP6 PUSH20 0xFFFFFFFFFFFFFFFFFFFFFFFFFFFFFFFFFFFFFFFF AND PUSH20 0xFFFFFFFFFFFFFFFFFFFFFFFFFFFFFFFFFFFFFFFF AND DUP2 MSTORE PUSH1 0x20 ADD SWAP1 DUP2 MSTORE PUSH1 0x20 ADD PUSH0 KECCAK256 SWAP1 POP PUSH0 JUMPDEST DUP2 DUP1 SLOAD SWAP1 POP DUP2 LT ISZERO PUSH2 0x6F65 JUMPI PUSH1 0x7 PUSH0 DUP4 DUP4 DUP2 SLOAD DUP2 LT PUSH2 0x6CD9 JUMPI PUSH2 0x6CD8 PUSH2 0xCA58 JUMP JUMPDEST JUMPDEST SWAP1 PUSH0 MSTORE PUSH1 0x20 PUSH0 KECCAK256 ADD SLOAD DUP2 MSTORE PUSH1 0x20 ADD SWAP1 DUP2 MSTORE PUSH1 0x20 ADD PUSH0 KECCAK256 PUSH1 0x40 MLOAD DUP1 PUSH1 0xA0 ADD PUSH1 0x40 MSTORE SWAP1 DUP2 PUSH0 DUP3 ADD SLOAD DUP2 MSTORE PUSH1 0x20 ADD PUSH1 0x1 DUP3 ADD DUP1 SLOAD DUP1 PUSH1 0x20 MUL PUSH1 0x20 ADD PUSH1 0x40 MLOAD SWAP1 DUP2 ADD PUSH1 0x40 MSTORE DUP1 SWAP3 SWAP2 SWAP1 DUP2 DUP2 MSTORE PUSH1 0x20 ADD PUSH0 SWAP1 JUMPDEST DUP3 DUP3 LT ISZERO PUSH2 0x6EB8 JUMPI DUP4 DUP3 SWAP1 PUSH0 MSTORE PUSH1 0x20 PUSH0 KECCAK256 SWAP1 PUSH1 0x5 MUL ADD PUSH1 0x40 MLOAD DUP1 PUSH1 0xA0 ADD PUSH1 0x40 MSTORE SWAP1 DUP2 PUSH0 DUP3 ADD DUP1 SLOAD DUP1 PUSH1 0x20 MUL PUSH1 0x20 ADD PUSH1 0x40 MLOAD SWAP1 DUP2 ADD PUSH1 0x40 MSTORE DUP1 SWAP3 SWAP2 SWAP1 DUP2 DUP2 MSTORE PUSH1 0x20 ADD DUP3 DUP1 SLOAD DUP1 ISZERO PUSH2 0x6D94 JUMPI PUSH1 0x20 MUL DUP3 ADD SWAP2 SWAP1 PUSH0 MSTORE PUSH1 0x20 PUSH0 KECCAK256 SWAP1 JUMPDEST DUP2 SLOAD DUP2 MSTORE PUSH1 0x20 ADD SWAP1 PUSH1 0x1 ADD SWAP1 DUP1 DUP4 GT PUSH2 0x6D80 JUMPI JUMPDEST POP POP POP POP POP DUP2 MSTORE PUSH1 0x20 ADD PUSH1 0x1 DUP3 ADD DUP1 SLOAD DUP1 PUSH1 0x20 MUL PUSH1 0x20 ADD PUSH1 0x40 MLOAD SWAP1 DUP2 ADD PUSH1 0x40 MSTORE DUP1 SWAP3 SWAP2 SWAP1 DUP2 DUP2 MSTORE PUSH1 0x20 ADD DUP3 DUP1 SLOAD DUP1 ISZERO PUSH2 0x6DEA JUMPI PUSH1 0x20 MUL DUP3 ADD SWAP2 SWAP1 PUSH0 MSTORE PUSH1 0x20 PUSH0 KECCAK256 SWAP1 JUMPDEST DUP2 SLOAD DUP2 MSTORE PUSH1 0x20 ADD SWAP1 PUSH1 0x1 ADD SWAP1 DUP1 DUP4 GT PUSH2 0x6DD6 JUMPI JUMPDEST POP POP POP POP POP DUP2 MSTORE PUSH1 0x20 ADD PUSH1 0x2 DUP3 ADD DUP1 SLOAD DUP1 PUSH1 0x20 MUL PUSH1 0x20 ADD PUSH1 0x40 MLOAD SWAP1 DUP2 ADD PUSH1 0x40 MSTORE DUP1 SWAP3 SWAP2 SWAP1 DUP2 DUP2 MSTORE PUSH1 0x20 ADD DUP3 DUP1 SLOAD DUP1 ISZERO PUSH2 0x6E40 JUMPI PUSH1 0x20 MUL DUP3 ADD SWAP2 SWAP1 PUSH0 MSTORE PUSH1 0x20 PUSH0 KECCAK256 SWAP1 JUMPDEST DUP2 SLOAD DUP2 MSTORE PUSH1 0x20 ADD SWAP1 PUSH1 0x1 ADD SWAP1 DUP1 DUP4 GT PUSH2 0x6E2C JUMPI JUMPDEST POP POP POP POP POP DUP2 MSTORE PUSH1 0x20 ADD PUSH1 0x3 DUP3 ADD DUP1 SLOAD DUP1 PUSH1 0x20 MUL PUSH1 0x20 ADD PUSH1 0x40 MLOAD SWAP1 DUP2 ADD PUSH1 0x40 MSTORE DUP1 SWAP3 SWAP2 SWAP1 DUP2 DUP2 MSTORE PUSH1 0x20 ADD DUP3 DUP1 SLOAD DUP1 ISZERO PUSH2 0x6E96 JUMPI PUSH1 0x20 MUL DUP3 ADD SWAP2 SWAP1 PUSH0 MSTORE PUSH1 0x20 PUSH0 KECCAK256 SWAP1 JUMPDEST DUP2 SLOAD DUP2 MSTORE PUSH1 0x20 ADD SWAP1 PUSH1 0x1 ADD SWAP1 DUP1 DUP4 GT PUSH2 0x6E82 JUMPI JUMPDEST POP POP POP POP POP DUP2 MSTORE PUSH1 0x20 ADD PUSH1 0x4 DUP3 ADD SLOAD DUP2 MSTORE POP POP DUP2 MSTORE PUSH1 0x20 ADD SWAP1 PUSH1 0x1 ADD SWAP1 PUSH2 0x6D27 JUMP JUMPDEST POP POP POP POP DUP2 MSTORE PUSH1 0x20 ADD PUSH1 0x2 DUP3 ADD PUSH0 SWAP1 SLOAD SWAP1 PUSH2 0x100 EXP SWAP1 DIV PUSH20 0xFFFFFFFFFFFFFFFFFFFFFFFFFFFFFFFFFFFFFFFF AND PUSH20 0xFFFFFFFFFFFFFFFFFFFFFFFFFFFFFFFFFFFFFFFF AND PUSH20 0xFFFFFFFFFFFFFFFFFFFFFFFFFFFFFFFFFFFFFFFF AND DUP2 MSTORE PUSH1 0x20 ADD PUSH1 0x2 DUP3 ADD PUSH1 0x14 SWAP1 SLOAD SWAP1 PUSH2 0x100 EXP SWAP1 DIV PUSH1 0xFF AND ISZERO ISZERO ISZERO ISZERO DUP2 MSTORE PUSH1 0x20 ADD PUSH1 0x3 DUP3 ADD SLOAD DUP2 MSTORE POP POP DUP4 DUP3 DUP2 MLOAD DUP2 LT PUSH2 0x6F4D JUMPI PUSH2 0x6F4C PUSH2 0xCA58 JUMP JUMPDEST JUMPDEST PUSH1 0x20 MUL PUSH1 0x20 ADD ADD DUP2 SWAP1 MSTORE POP DUP1 DUP1 PUSH1 0x1 ADD SWAP2 POP POP PUSH2 0x6CB7 JUMP JUMPDEST POP DUP2 SWAP3 POP POP POP SWAP2 SWAP1 POP JUMP JUMPDEST PUSH1 0x15 PUSH0 SWAP1 SLOAD SWAP1 PUSH2 0x100 EXP SWAP1 DIV PUSH20 0xFFFFFFFFFFFFFFFFFFFFFFFFFFFFFFFFFFFFFFFF AND DUP2 JUMP JUMPDEST PUSH1 0x2 PUSH1 0x20 MSTORE DUP2 PUSH0 MSTORE PUSH1 0x40 PUSH0 KECCAK256 DUP2 DUP2 SLOAD DUP2 LT PUSH2 0x6FAE JUMPI PUSH0 DUP1 REVERT JUMPDEST SWAP1 PUSH0 MSTORE PUSH1 0x20 PUSH0 KECCAK256 ADD PUSH0 SWAP2 POP SWAP2 POP POP SLOAD DUP2 JUMP JUMPDEST PUSH1 0x18 PUSH0 SWAP1 SLOAD SWAP1 PUSH2 0x100 EXP SWAP1 DIV PUSH20 0xFFFFFFFFFFFFFFFFFFFFFFFFFFFFFFFFFFFFFFFF AND DUP2 JUMP JUMPDEST PUSH1 0x15 PUSH0 SWAP1 SLOAD SWAP1 PUSH2 0x100 EXP SWAP1 DIV PUSH20 0xFFFFFFFFFFFFFFFFFFFFFFFFFFFFFFFFFFFFFFFF AND DUP1 PUSH20 0xFFFFFFFFFFFFFFFFFFFFFFFFFFFFFFFFFFFFFFFF AND CALLER PUSH20 0xFFFFFFFFFFFFFFFFFFFFFFFFFFFFFFFFFFFFFFFF AND EQ PUSH2 0x7075 JUMPI PUSH1 0x40 MLOAD PUSH32 0x8C379A000000000000000000000000000000000000000000000000000000000 DUP2 MSTORE PUSH1 0x4 ADD PUSH2 0x706C SWAP1 PUSH2 0xCD21 JUMP JUMPDEST PUSH1 0x40 MLOAD DUP1 SWAP2 SUB SWAP1 REVERT JUMPDEST PUSH0 PUSH1 0x5 PUSH0 DUP5 DUP2 MSTORE PUSH1 0x20 ADD SWAP1 DUP2 MSTORE PUSH1 0x20 ADD PUSH0 KECCAK256 SLOAD SWAP1 POP PUSH0 DUP2 GT PUSH2 0x70CC JUMPI PUSH1 0x40 MLOAD PUSH32 0x8C379A000000000000000000000000000000000000000000000000000000000 DUP2 MSTORE PUSH1 0x4 ADD PUSH2 0x70C3 SWAP1 PUSH2 0xDB20 JUMP JUMPDEST PUSH1 0x40 MLOAD DUP1 SWAP2 SUB SWAP1 REVERT JUMPDEST PUSH0 PUSH1 0x1 PUSH0 DUP4 DUP2 MSTORE PUSH1 0x20 ADD SWAP1 DUP2 MSTORE PUSH1 0x20 ADD PUSH0 KECCAK256 PUSH1 0x40 MLOAD DUP1 PUSH2 0x260 ADD PUSH1 0x40 MSTORE SWAP1 DUP2 PUSH0 DUP3 ADD SLOAD DUP2 MSTORE PUSH1 0x20 ADD PUSH1 0x1 DUP3 ADD PUSH0 SWAP1 SLOAD SWAP1 PUSH2 0x100 EXP SWAP1 DIV PUSH20 0xFFFFFFFFFFFFFFFFFFFFFFFFFFFFFFFFFFFFFFFF AND PUSH20 0xFFFFFFFFFFFFFFFFFFFFFFFFFFFFFFFFFFFFFFFF AND PUSH20 0xFFFFFFFFFFFFFFFFFFFFFFFFFFFFFFFFFFFFFFFF AND DUP2 MSTORE PUSH1 0x20 ADD PUSH1 0x2 DUP3 ADD PUSH0 SWAP1 SLOAD SWAP1 PUSH2 0x100 EXP SWAP1 DIV PUSH20 0xFFFFFFFFFFFFFFFFFFFFFFFFFFFFFFFFFFFFFFFF AND PUSH20 0xFFFFFFFFFFFFFFFFFFFFFFFFFFFFFFFFFFFFFFFF AND PUSH20 0xFFFFFFFFFFFFFFFFFFFFFFFFFFFFFFFFFFFFFFFF AND DUP2 MSTORE PUSH1 0x20 ADD PUSH1 0x3 DUP3 ADD SLOAD DUP2 MSTORE PUSH1 0x20 ADD PUSH1 0x4 DUP3 ADD DUP1 SLOAD DUP1 PUSH1 0x20 MUL PUSH1 0x20 ADD PUSH1 0x40 MLOAD SWAP1 DUP2 ADD PUSH1 0x40 MSTORE DUP1 SWAP3 SWAP2 SWAP1 DUP2 DUP2 MSTORE PUSH1 0x20 ADD DUP3 DUP1 SLOAD DUP1 ISZERO PUSH2 0x71F4 JUMPI PUSH1 0x20 MUL DUP3 ADD SWAP2 SWAP1 PUSH0 MSTORE PUSH1 0x20 PUSH0 KECCAK256 SWAP1 JUMPDEST DUP2 SLOAD DUP2 MSTORE PUSH1 0x20 ADD SWAP1 PUSH1 0x1 ADD SWAP1 DUP1 DUP4 GT PUSH2 0x71E0 JUMPI JUMPDEST POP POP POP POP POP DUP2 MSTORE PUSH1 0x20 ADD PUSH1 0x5 DUP3 ADD DUP1 SLOAD DUP1 PUSH1 0x20 MUL PUSH1 0x20 ADD PUSH1 0x40 MLOAD SWAP1 DUP2 ADD PUSH1 0x40 MSTORE DUP1 SWAP3 SWAP2 SWAP1 DUP2 DUP2 MSTORE PUSH1 0x20 ADD DUP3 DUP1 SLOAD DUP1 ISZERO PUSH2 0x724A JUMPI PUSH1 0x20 MUL DUP3 ADD SWAP2 SWAP1 PUSH0 MSTORE PUSH1 0x20 PUSH0 KECCAK256 SWAP1 JUMPDEST DUP2 SLOAD DUP2 MSTORE PUSH1 0x20 ADD SWAP1 PUSH1 0x1 ADD SWAP1 DUP1 DUP4 GT PUSH2 0x7236 JUMPI JUMPDEST POP POP POP POP POP DUP2 MSTORE PUSH1 0x20 ADD PUSH1 0x6 DUP3 ADD DUP1 SLOAD DUP1 PUSH1 0x20 MUL PUSH1 0x20 ADD PUSH1 0x40 MLOAD SWAP1 DUP2 ADD PUSH1 0x40 MSTORE DUP1 SWAP3 SWAP2 SWAP1 DUP2 DUP2 MSTORE PUSH1 0x20 ADD DUP3 DUP1 SLOAD DUP1 ISZERO PUSH2 0x72A0 JUMPI PUSH1 0x20 MUL DUP3 ADD SWAP2 SWAP1 PUSH0 MSTORE PUSH1 0x20 PUSH0 KECCAK256 SWAP1 JUMPDEST DUP2 SLOAD DUP2 MSTORE PUSH1 0x20 ADD SWAP1 PUSH1 0x1 ADD SWAP1 DUP1 DUP4 GT PUSH2 0x728C JUMPI JUMPDEST POP POP POP POP POP DUP2 MSTORE PUSH1 0x20 ADD PUSH1 0x7 DUP3 ADD DUP1 SLOAD DUP1 PUSH1 0x20 MUL PUSH1 0x20 ADD PUSH1 0x40 MLOAD SWAP1 DUP2 ADD PUSH1 0x40 MSTORE DUP1 SWAP3 SWAP2 SWAP1 DUP2 DUP2 MSTORE PUSH1 0x20 ADD DUP3 DUP1 SLOAD DUP1 ISZERO PUSH2 0x72F6 JUMPI PUSH1 0x20 MUL DUP3 ADD SWAP2 SWAP1 PUSH0 MSTORE PUSH1 0x20 PUSH0 KECCAK256 SWAP1 JUMPDEST DUP2 SLOAD DUP2 MSTORE PUSH1 0x20 ADD SWAP1 PUSH1 0x1 ADD SWAP1 DUP1 DUP4 GT PUSH2 0x72E2 JUMPI JUMPDEST POP POP POP POP POP DUP2 MSTORE PUSH1 0x20 ADD PUSH1 0x8 DUP3 ADD DUP1 SLOAD DUP1 PUSH1 0x20 MUL PUSH1 0x20 ADD PUSH1 0x40 MLOAD SWAP1 DUP2 ADD PUSH1 0x40 MSTORE DUP1 SWAP3 SWAP2 SWAP1 DUP2 DUP2 MSTORE PUSH1 0x20 ADD DUP3 DUP1 SLOAD DUP1 ISZERO PUSH2 0x734C JUMPI PUSH1 0x20 MUL DUP3 ADD SWAP2 SWAP1 PUSH0 MSTORE PUSH1 0x20 PUSH0 KECCAK256 SWAP1 JUMPDEST DUP2 SLOAD DUP2 MSTORE PUSH1 0x20 ADD SWAP1 PUSH1 0x1 ADD SWAP1 DUP1 DUP4 GT PUSH2 0x7338 JUMPI JUMPDEST POP POP POP POP POP DUP2 MSTORE PUSH1 0x20 ADD PUSH1 0x9 DUP3 ADD DUP1 SLOAD DUP1 PUSH1 0x20 MUL PUSH1 0x20 ADD PUSH1 0x40 MLOAD SWAP1 DUP2 ADD PUSH1 0x40 MSTORE DUP1 SWAP3 SWAP2 SWAP1 DUP2 DUP2 MSTORE PUSH1 0x20 ADD DUP3 DUP1 SLOAD DUP1 ISZERO PUSH2 0x73A2 JUMPI PUSH1 0x20 MUL DUP3 ADD SWAP2 SWAP1 PUSH0 MSTORE PUSH1 0x20 PUSH0 KECCAK256 SWAP1 JUMPDEST DUP2 SLOAD DUP2 MSTORE PUSH1 0x20 ADD SWAP1 PUSH1 0x1 ADD SWAP1 DUP1 DUP4 GT PUSH2 0x738E JUMPI JUMPDEST POP POP POP POP POP DUP2 MSTORE PUSH1 0x20 ADD PUSH1 0xA DUP3 ADD DUP1 SLOAD DUP1 PUSH1 0x20 MUL PUSH1 0x20 ADD PUSH1 0x40 MLOAD SWAP1 DUP2 ADD PUSH1 0x40 MSTORE DUP1 SWAP3 SWAP2 SWAP1 DUP2 DUP2 MSTORE PUSH1 0x20 ADD DUP3 DUP1 SLOAD DUP1 ISZERO PUSH2 0x73F8 JUMPI PUSH1 0x20 MUL DUP3 ADD SWAP2 SWAP1 PUSH0 MSTORE PUSH1 0x20 PUSH0 KECCAK256 SWAP1 JUMPDEST DUP2 SLOAD DUP2 MSTORE PUSH1 0x20 ADD SWAP1 PUSH1 0x1 ADD SWAP1 DUP1 DUP4 GT PUSH2 0x73E4 JUMPI JUMPDEST POP POP POP POP POP DUP2 MSTORE PUSH1 0x20 ADD PUSH1 0xB DUP3 ADD SLOAD DUP2 MSTORE PUSH1 0x20 ADD PUSH1 0xC DUP3 ADD PUSH0 SWAP1 SLOAD SWAP1 PUSH2 0x100 EXP SWAP1 DIV PUSH1 0xFF AND PUSH1 0xFF AND PUSH1 0xFF AND DUP2 MSTORE PUSH1 0x20 ADD PUSH1 0xC DUP3 ADD PUSH1 0x1 SWAP1 SLOAD SWAP1 PUSH2 0x100 EXP SWAP1 DIV PUSH1 0xFF AND PUSH1 0xFF AND PUSH1 0xFF AND DUP2 MSTORE PUSH1 0x20 ADD PUSH1 0xD DUP3 ADD SLOAD DUP2 MSTORE PUSH1 0x20 ADD PUSH1 0xE DUP3 ADD SLOAD DUP2 MSTORE PUSH1 0x20 ADD PUSH1 0xF DUP3 ADD SLOAD DUP2 MSTORE PUSH1 0x20 ADD PUSH1 0x10 DUP3 ADD PUSH0 SWAP1 SLOAD SWAP1 PUSH2 0x100 EXP SWAP1 DIV PUSH1 0xFF AND PUSH1 0xFF AND PUSH1 0xFF AND DUP2 MSTORE PUSH1 0x20 ADD PUSH1 0x11 DUP3 ADD SLOAD DUP2 MSTORE POP POP SWAP1 POP PUSH0 DUP2 PUSH1 0x80 ADD MLOAD MLOAD GT PUSH2 0x74D1 JUMPI PUSH1 0x40 MLOAD PUSH32 0x8C379A000000000000000000000000000000000000000000000000000000000 DUP2 MSTORE PUSH1 0x4 ADD PUSH2 0x74C8 SWAP1 PUSH2 0xDB88 JUMP JUMPDEST PUSH1 0x40 MLOAD DUP1 SWAP2 SUB SWAP1 REVERT JUMPDEST PUSH0 JUMPDEST DUP2 PUSH1 0xA0 ADD MLOAD MLOAD DUP2 PUSH1 0xFF AND LT ISZERO PUSH2 0x7A56 JUMPI PUSH0 PUSH1 0x12 PUSH0 SWAP1 SLOAD SWAP1 PUSH2 0x100 EXP SWAP1 DIV PUSH20 0xFFFFFFFFFFFFFFFFFFFFFFFFFFFFFFFFFFFFFFFF AND PUSH20 0xFFFFFFFFFFFFFFFFFFFFFFFFFFFFFFFFFFFFFFFF AND PUSH3 0x41C629 DUP5 PUSH1 0xA0 ADD MLOAD DUP5 PUSH1 0xFF AND DUP2 MLOAD DUP2 LT PUSH2 0x753A JUMPI PUSH2 0x7539 PUSH2 0xCA58 JUMP JUMPDEST JUMPDEST PUSH1 0x20 MUL PUSH1 0x20 ADD ADD MLOAD DUP6 PUSH1 0xC0 ADD MLOAD DUP6 PUSH1 0xFF AND DUP2 MLOAD DUP2 LT PUSH2 0x755C JUMPI PUSH2 0x755B PUSH2 0xCA58 JUMP JUMPDEST JUMPDEST PUSH1 0x20 MUL PUSH1 0x20 ADD ADD MLOAD PUSH1 0x40 MLOAD DUP4 PUSH4 0xFFFFFFFF AND PUSH1 0xE0 SHL DUP2 MSTORE PUSH1 0x4 ADD PUSH2 0x7581 SWAP3 SWAP2 SWAP1 PUSH2 0xD57D JUMP JUMPDEST PUSH1 0xC0 PUSH1 0x40 MLOAD DUP1 DUP4 SUB DUP2 DUP7 GAS STATICCALL ISZERO DUP1 ISZERO PUSH2 0x759C JUMPI RETURNDATASIZE PUSH0 DUP1 RETURNDATACOPY RETURNDATASIZE PUSH0 REVERT JUMPDEST POP POP POP POP PUSH1 0x40 MLOAD RETURNDATASIZE PUSH1 0x1F NOT PUSH1 0x1F DUP3 ADD AND DUP3 ADD DUP1 PUSH1 0x40 MSTORE POP DUP2 ADD SWAP1 PUSH2 0x75C0 SWAP2 SWAP1 PUSH2 0xD68E JUMP JUMPDEST SWAP1 POP DUP3 PUSH1 0xE0 ADD MLOAD DUP3 PUSH1 0xFF AND DUP2 MLOAD DUP2 LT PUSH2 0x75DC JUMPI PUSH2 0x75DB PUSH2 0xCA58 JUMP JUMPDEST JUMPDEST PUSH1 0x20 MUL PUSH1 0x20 ADD ADD MLOAD DUP2 PUSH1 0x20 ADD MLOAD PUSH1 0x80 ADD MLOAD PUSH2 0x75F7 SWAP2 SWAP1 PUSH2 0xDA76 JUMP JUMPDEST DUP2 PUSH1 0x20 ADD MLOAD PUSH1 0x80 ADD DUP2 DUP2 MSTORE POP POP PUSH0 DUP2 PUSH1 0x20 ADD MLOAD PUSH1 0x80 ADD MLOAD LT ISZERO PUSH2 0x764F JUMPI PUSH1 0x40 MLOAD PUSH32 0x8C379A000000000000000000000000000000000000000000000000000000000 DUP2 MSTORE PUSH1 0x4 ADD PUSH2 0x7646 SWAP1 PUSH2 0xDC3C JUMP JUMPDEST PUSH1 0x40 MLOAD DUP1 SWAP2 SUB SWAP1 REVERT JUMPDEST PUSH1 0x12 PUSH0 SWAP1 SLOAD SWAP1 PUSH2 0x100 EXP SWAP1 DIV PUSH20 0xFFFFFFFFFFFFFFFFFFFFFFFFFFFFFFFFFFFFFFFF AND PUSH20 0xFFFFFFFFFFFFFFFFFFFFFFFFFFFFFFFFFFFFFFFF AND PUSH4 0x1D068976 DUP5 PUSH1 0xA0 ADD MLOAD DUP5 PUSH1 0xFF AND DUP2 MLOAD DUP2 LT PUSH2 0x76A6 JUMPI PUSH2 0x76A5 PUSH2 0xCA58 JUMP JUMPDEST JUMPDEST PUSH1 0x20 MUL PUSH1 0x20 ADD ADD MLOAD DUP6 PUSH1 0xC0 ADD MLOAD DUP6 PUSH1 0xFF AND DUP2 MLOAD DUP2 LT PUSH2 0x76C8 JUMPI PUSH2 0x76C7 PUSH2 0xCA58 JUMP JUMPDEST JUMPDEST PUSH1 0x20 MUL PUSH1 0x20 ADD ADD MLOAD DUP5 PUSH1 0x20 ADD MLOAD PUSH1 0x80 ADD MLOAD DUP8 PUSH1 0xE0 ADD MLOAD DUP8 PUSH1 0xFF AND DUP2 MLOAD DUP2 LT PUSH2 0x76F3 JUMPI PUSH2 0x76F2 PUSH2 0xCA58 JUMP JUMPDEST JUMPDEST PUSH1 0x20 MUL PUSH1 0x20 ADD ADD MLOAD PUSH1 0x40 MLOAD DUP6 PUSH4 0xFFFFFFFF AND PUSH1 0xE0 SHL DUP2 MSTORE PUSH1 0x4 ADD PUSH2 0x771A SWAP5 SWAP4 SWAP3 SWAP2 SWAP1 PUSH2 0xDC5A JUMP JUMPDEST PUSH0 PUSH1 0x40 MLOAD DUP1 DUP4 SUB DUP2 PUSH0 DUP8 DUP1 EXTCODESIZE ISZERO DUP1 ISZERO PUSH2 0x7731 JUMPI PUSH0 DUP1 REVERT JUMPDEST POP GAS CALL ISZERO DUP1 ISZERO PUSH2 0x7743 JUMPI RETURNDATASIZE PUSH0 DUP1 RETURNDATACOPY RETURNDATASIZE PUSH0 REVERT JUMPDEST POP POP POP POP PUSH1 0x14 PUSH0 SWAP1 SLOAD SWAP1 PUSH2 0x100 EXP SWAP1 DIV PUSH20 0xFFFFFFFFFFFFFFFFFFFFFFFFFFFFFFFFFFFFFFFF AND PUSH20 0xFFFFFFFFFFFFFFFFFFFFFFFFFFFFFFFFFFFFFFFF AND PUSH4 0x8286980C DUP5 PUSH1 0xA0 ADD MLOAD DUP5 PUSH1 0xFF AND DUP2 MLOAD DUP2 LT PUSH2 0x779E JUMPI PUSH2 0x779D PUSH2 0xCA58 JUMP JUMPDEST JUMPDEST PUSH1 0x20 MUL PUSH1 0x20 ADD ADD MLOAD PUSH1 0x40 MLOAD DUP3 PUSH4 0xFFFFFFFF AND PUSH1 0xE0 SHL DUP2 MSTORE PUSH1 0x4 ADD PUSH2 0x77C2 SWAP2 SWAP1 PUSH2 0x9CF7 JUMP JUMPDEST PUSH0 PUSH1 0x40 MLOAD DUP1 DUP4 SUB DUP2 PUSH0 DUP8 DUP1 EXTCODESIZE ISZERO DUP1 ISZERO PUSH2 0x77D9 JUMPI PUSH0 DUP1 REVERT JUMPDEST POP GAS CALL ISZERO DUP1 ISZERO PUSH2 0x77EB JUMPI RETURNDATASIZE PUSH0 DUP1 RETURNDATACOPY RETURNDATASIZE PUSH0 REVERT JUMPDEST POP POP POP POP PUSH1 0x14 PUSH0 SWAP1 SLOAD SWAP1 PUSH2 0x100 EXP SWAP1 DIV PUSH20 0xFFFFFFFFFFFFFFFFFFFFFFFFFFFFFFFFFFFFFFFF AND PUSH20 0xFFFFFFFFFFFFFFFFFFFFFFFFFFFFFFFFFFFFFFFF AND PUSH4 0x5B956627 DUP5 PUSH1 0x20 ADD MLOAD DUP6 PUSH1 0xA0 ADD MLOAD DUP6 PUSH1 0xFF AND DUP2 MLOAD DUP2 LT PUSH2 0x784B JUMPI PUSH2 0x784A PUSH2 0xCA58 JUMP JUMPDEST JUMPDEST PUSH1 0x20 MUL PUSH1 0x20 ADD ADD MLOAD PUSH1 0x40 MLOAD DUP4 PUSH4 0xFFFFFFFF AND PUSH1 0xE0 SHL DUP2 MSTORE PUSH1 0x4 ADD PUSH2 0x7870 SWAP3 SWAP2 SWAP1 PUSH2 0xDC9D JUMP JUMPDEST PUSH0 PUSH1 0x40 MLOAD DUP1 DUP4 SUB DUP2 PUSH0 DUP8 DUP1 EXTCODESIZE ISZERO DUP1 ISZERO PUSH2 0x7887 JUMPI PUSH0 DUP1 REVERT JUMPDEST POP GAS CALL ISZERO DUP1 ISZERO PUSH2 0x7899 JUMPI RETURNDATASIZE PUSH0 DUP1 RETURNDATACOPY RETURNDATASIZE PUSH0 REVERT JUMPDEST POP POP POP POP PUSH1 0x1 DUP1 DUP2 GT ISZERO PUSH2 0x78B0 JUMPI PUSH2 0x78AF PUSH2 0xBD9C JUMP JUMPDEST JUMPDEST PUSH1 0xFF AND DUP4 PUSH2 0x180 ADD MLOAD PUSH1 0xFF AND EQ PUSH2 0x799A JUMPI PUSH0 PUSH2 0x78CB DUP6 PUSH2 0x3B29 JUMP JUMPDEST SWAP1 POP PUSH0 PUSH1 0x40 MLOAD DUP1 PUSH1 0x40 ADD PUSH1 0x40 MSTORE DUP1 DUP7 PUSH1 0xA0 ADD MLOAD DUP7 PUSH1 0xFF AND DUP2 MLOAD DUP2 LT PUSH2 0x78F3 JUMPI PUSH2 0x78F2 PUSH2 0xCA58 JUMP JUMPDEST JUMPDEST PUSH1 0x20 MUL PUSH1 0x20 ADD ADD MLOAD DUP2 MSTORE PUSH1 0x20 ADD TIMESTAMP DUP2 MSTORE POP SWAP1 POP PUSH1 0x14 PUSH0 SWAP1 SLOAD SWAP1 PUSH2 0x100 EXP SWAP1 DIV PUSH20 0xFFFFFFFFFFFFFFFFFFFFFFFFFFFFFFFFFFFFFFFF AND PUSH20 0xFFFFFFFFFFFFFFFFFFFFFFFFFFFFFFFFFFFFFFFF AND PUSH4 0x3D3A9748 DUP4 PUSH1 0x60 ADD MLOAD PUSH1 0x60 ADD MLOAD DUP4 PUSH1 0x40 MLOAD DUP4 PUSH4 0xFFFFFFFF AND PUSH1 0xE0 SHL DUP2 MSTORE PUSH1 0x4 ADD PUSH2 0x796A SWAP3 SWAP2 SWAP1 PUSH2 0xDCF1 JUMP JUMPDEST PUSH0 PUSH1 0x40 MLOAD DUP1 DUP4 SUB DUP2 PUSH0 DUP8 DUP1 EXTCODESIZE ISZERO DUP1 ISZERO PUSH2 0x7981 JUMPI PUSH0 DUP1 REVERT JUMPDEST POP GAS CALL ISZERO DUP1 ISZERO PUSH2 0x7993 JUMPI RETURNDATASIZE PUSH0 DUP1 RETURNDATACOPY RETURNDATASIZE PUSH0 REVERT JUMPDEST POP POP POP POP POP POP JUMPDEST PUSH1 0x14 PUSH0 SWAP1 SLOAD SWAP1 PUSH2 0x100 EXP SWAP1 DIV PUSH20 0xFFFFFFFFFFFFFFFFFFFFFFFFFFFFFFFFFFFFFFFF AND PUSH20 0xFFFFFFFFFFFFFFFFFFFFFFFFFFFFFFFFFFFFFFFF AND PUSH4 0xB34210E1 DUP5 PUSH1 0xA0 ADD MLOAD DUP5 PUSH1 0xFF AND DUP2 MLOAD DUP2 LT PUSH2 0x79F1 JUMPI PUSH2 0x79F0 PUSH2 0xCA58 JUMP JUMPDEST JUMPDEST PUSH1 0x20 MUL PUSH1 0x20 ADD ADD MLOAD PUSH1 0x40 MLOAD DUP3 PUSH4 0xFFFFFFFF AND PUSH1 0xE0 SHL DUP2 MSTORE PUSH1 0x4 ADD PUSH2 0x7A15 SWAP2 SWAP1 PUSH2 0x9CF7 JUMP JUMPDEST PUSH0 PUSH1 0x40 MLOAD DUP1 DUP4 SUB DUP2 PUSH0 DUP8 DUP1 EXTCODESIZE ISZERO DUP1 ISZERO PUSH2 0x7A2C JUMPI PUSH0 DUP1 REVERT JUMPDEST POP GAS CALL ISZERO DUP1 ISZERO PUSH2 0x7A3E JUMPI RETURNDATASIZE PUSH0 DUP1 RETURNDATACOPY RETURNDATASIZE PUSH0 REVERT JUMPDEST POP POP POP POP POP DUP1 DUP1 PUSH2 0x7A4E SWAP1 PUSH2 0xDD1F JUMP JUMPDEST SWAP2 POP POP PUSH2 0x74D3 JUMP JUMPDEST POP PUSH0 PUSH1 0x40 MLOAD DUP1 PUSH1 0x60 ADD PUSH1 0x40 MSTORE DUP1 DUP4 PUSH2 0x220 ADD MLOAD PUSH1 0xFF AND DUP2 MSTORE PUSH1 0x20 ADD DUP4 PUSH2 0x160 ADD MLOAD DUP2 MSTORE PUSH1 0x20 ADD DUP4 PUSH1 0x40 ADD MLOAD PUSH20 0xFFFFFFFFFFFFFFFFFFFFFFFFFFFFFFFFFFFFFFFF AND DUP2 MSTORE POP SWAP1 POP PUSH1 0x13 PUSH0 SWAP1 SLOAD SWAP1 PUSH2 0x100 EXP SWAP1 DIV PUSH20 0xFFFFFFFFFFFFFFFFFFFFFFFFFFFFFFFFFFFFFFFF AND PUSH20 0xFFFFFFFFFFFFFFFFFFFFFFFFFFFFFFFFFFFFFFFF AND PUSH4 0x25F36E5 DUP4 PUSH1 0x20 ADD MLOAD DUP4 PUSH1 0x40 MLOAD DUP4 PUSH4 0xFFFFFFFF AND PUSH1 0xE0 SHL DUP2 MSTORE PUSH1 0x4 ADD PUSH2 0x7AFC SWAP3 SWAP2 SWAP1 PUSH2 0xDD87 JUMP JUMPDEST PUSH0 PUSH1 0x40 MLOAD DUP1 DUP4 SUB DUP2 PUSH0 DUP8 DUP1 EXTCODESIZE ISZERO DUP1 ISZERO PUSH2 0x7B13 JUMPI PUSH0 DUP1 REVERT JUMPDEST POP GAS CALL ISZERO DUP1 ISZERO PUSH2 0x7B25 JUMPI RETURNDATASIZE PUSH0 DUP1 RETURNDATACOPY RETURNDATASIZE PUSH0 REVERT JUMPDEST POP POP POP POP PUSH1 0x13 PUSH0 SWAP1 SLOAD SWAP1 PUSH2 0x100 EXP SWAP1 DIV PUSH20 0xFFFFFFFFFFFFFFFFFFFFFFFFFFFFFFFFFFFFFFFF AND PUSH20 0xFFFFFFFFFFFFFFFFFFFFFFFFFFFFFFFFFFFFFFFF AND PUSH4 0xE205D94E DUP4 PUSH0 ADD MLOAD PUSH1 0x1 PUSH0 DUP8 DUP2 MSTORE PUSH1 0x20 ADD SWAP1 DUP2 MSTORE PUSH1 0x20 ADD PUSH0 KECCAK256 PUSH1 0x1 ADD PUSH0 SWAP1 SLOAD SWAP1 PUSH2 0x100 EXP SWAP1 DIV PUSH20 0xFFFFFFFFFFFFFFFFFFFFFFFFFFFFFFFFFFFFFFFF AND PUSH1 0x12 PUSH0 SWAP1 SLOAD SWAP1 PUSH2 0x100 EXP SWAP1 DIV PUSH20 0xFFFFFFFFFFFFFFFFFFFFFFFFFFFFFFFFFFFFFFFF AND PUSH20 0xFFFFFFFFFFFFFFFFFFFFFFFFFFFFFFFFFFFFFFFF AND PUSH4 0x66573F61 DUP8 PUSH1 0xA0 ADD MLOAD PUSH1 0x40 MLOAD DUP3 PUSH4 0xFFFFFFFF AND PUSH1 0xE0 SHL DUP2 MSTORE PUSH1 0x4 ADD PUSH2 0x7BFC SWAP2 SWAP1 PUSH2 0xDE1A JUMP JUMPDEST PUSH0 PUSH1 0x40 MLOAD DUP1 DUP4 SUB DUP2 DUP7 GAS STATICCALL ISZERO DUP1 ISZERO PUSH2 0x7C16 JUMPI RETURNDATASIZE PUSH0 DUP1 RETURNDATACOPY RETURNDATASIZE PUSH0 REVERT JUMPDEST POP POP POP POP PUSH1 0x40 MLOAD RETURNDATASIZE PUSH0 DUP3 RETURNDATACOPY RETURNDATASIZE PUSH1 0x1F NOT PUSH1 0x1F DUP3 ADD AND DUP3 ADD DUP1 PUSH1 0x40 MSTORE POP DUP2 ADD SWAP1 PUSH2 0x7C3E SWAP2 SWAP1 PUSH2 0xDEFA JUMP JUMPDEST PUSH1 0x40 MLOAD DUP5 PUSH4 0xFFFFFFFF AND PUSH1 0xE0 SHL DUP2 MSTORE PUSH1 0x4 ADD PUSH2 0x7C5C SWAP4 SWAP3 SWAP2 SWAP1 PUSH2 0xDFE9 JUMP JUMPDEST PUSH0 PUSH1 0x40 MLOAD DUP1 DUP4 SUB DUP2 PUSH0 DUP8 DUP1 EXTCODESIZE ISZERO DUP1 ISZERO PUSH2 0x7C73 JUMPI PUSH0 DUP1 REVERT JUMPDEST POP GAS CALL ISZERO DUP1 ISZERO PUSH2 0x7C85 JUMPI RETURNDATASIZE PUSH0 DUP1 RETURNDATACOPY RETURNDATASIZE PUSH0 REVERT JUMPDEST POP POP POP POP PUSH32 0x88227F5ACC5172D082FF1158C7E6B54727DDDCE3806E3CE09AACFBDA6A8E4D39 DUP4 PUSH1 0x40 MLOAD PUSH2 0x7CB8 SWAP2 SWAP1 PUSH2 0x9CF7 JUMP JUMPDEST PUSH1 0x40 MLOAD DUP1 SWAP2 SUB SWAP1 LOG1 POP POP POP POP POP JUMP JUMPDEST PUSH0 PUSH1 0x5 PUSH0 DUP4 DUP2 MSTORE PUSH1 0x20 ADD SWAP1 DUP2 MSTORE PUSH1 0x20 ADD PUSH0 KECCAK256 SLOAD SWAP1 POP SWAP2 SWAP1 POP JUMP JUMPDEST PUSH1 0x19 PUSH0 SWAP1 SLOAD SWAP1 PUSH2 0x100 EXP SWAP1 DIV PUSH20 0xFFFFFFFFFFFFFFFFFFFFFFFFFFFFFFFFFFFFFFFF AND DUP2 JUMP JUMPDEST PUSH1 0x60 PUSH0 DUP3 MLOAD PUSH8 0xFFFFFFFFFFFFFFFF DUP2 GT ISZERO PUSH2 0x7D24 JUMPI PUSH2 0x7D23 PUSH2 0x9D24 JUMP JUMPDEST JUMPDEST PUSH1 0x40 MLOAD SWAP1 DUP1 DUP3 MSTORE DUP1 PUSH1 0x20 MUL PUSH1 0x20 ADD DUP3 ADD PUSH1 0x40 MSTORE DUP1 ISZERO PUSH2 0x7D5D JUMPI DUP2 PUSH1 0x20 ADD JUMPDEST PUSH2 0x7D4A PUSH2 0x98D5 JUMP JUMPDEST DUP2 MSTORE PUSH1 0x20 ADD SWAP1 PUSH1 0x1 SWAP1 SUB SWAP1 DUP2 PUSH2 0x7D42 JUMPI SWAP1 POP JUMPDEST POP SWAP1 POP PUSH0 JUMPDEST DUP4 MLOAD DUP2 LT ISZERO PUSH2 0x7DDB JUMPI PUSH2 0x7DB0 DUP5 DUP3 DUP2 MLOAD DUP2 LT PUSH2 0x7D81 JUMPI PUSH2 0x7D80 PUSH2 0xCA58 JUMP JUMPDEST JUMPDEST PUSH1 0x20 MUL PUSH1 0x20 ADD ADD MLOAD PUSH0 ADD MLOAD DUP6 DUP4 DUP2 MLOAD DUP2 LT PUSH2 0x7D9F JUMPI PUSH2 0x7D9E PUSH2 0xCA58 JUMP JUMPDEST JUMPDEST PUSH1 0x20 MUL PUSH1 0x20 ADD ADD MLOAD PUSH1 0x20 ADD MLOAD PUSH2 0x3712 JUMP JUMPDEST DUP3 DUP3 DUP2 MLOAD DUP2 LT PUSH2 0x7DC3 JUMPI PUSH2 0x7DC2 PUSH2 0xCA58 JUMP JUMPDEST JUMPDEST PUSH1 0x20 MUL PUSH1 0x20 ADD ADD DUP2 SWAP1 MSTORE POP DUP1 DUP1 PUSH1 0x1 ADD SWAP2 POP POP PUSH2 0x7D62 JUMP JUMPDEST POP DUP1 SWAP2 POP POP SWAP2 SWAP1 POP JUMP JUMPDEST PUSH0 DUP1 PUSH0 SWAP1 POP JUMPDEST DUP3 PUSH1 0x1 ADD DUP1 SLOAD SWAP1 POP DUP2 LT ISZERO PUSH2 0x7F74 JUMPI PUSH0 DUP4 PUSH1 0x1 ADD DUP3 DUP2 SLOAD DUP2 LT PUSH2 0x7E11 JUMPI PUSH2 0x7E10 PUSH2 0xCA58 JUMP JUMPDEST JUMPDEST SWAP1 PUSH0 MSTORE PUSH1 0x20 PUSH0 KECCAK256 SWAP1 PUSH1 0x5 MUL ADD SWAP1 POP PUSH0 PUSH1 0x1 PUSH0 DUP4 PUSH1 0x4 ADD SLOAD DUP2 MSTORE PUSH1 0x20 ADD SWAP1 DUP2 MSTORE PUSH1 0x20 ADD PUSH0 KECCAK256 SWAP1 POP PUSH0 JUMPDEST DUP3 PUSH1 0x1 ADD DUP1 SLOAD SWAP1 POP DUP2 LT ISZERO PUSH2 0x7F64 JUMPI PUSH0 DUP4 PUSH1 0x1 ADD DUP3 DUP2 SLOAD DUP2 LT PUSH2 0x7E5F JUMPI PUSH2 0x7E5E PUSH2 0xCA58 JUMP JUMPDEST JUMPDEST SWAP1 PUSH0 MSTORE PUSH1 0x20 PUSH0 KECCAK256 ADD SLOAD SWAP1 POP PUSH0 DUP5 PUSH0 ADD DUP4 DUP2 SLOAD DUP2 LT PUSH2 0x7E80 JUMPI PUSH2 0x7E7F PUSH2 0xCA58 JUMP JUMPDEST JUMPDEST SWAP1 PUSH0 MSTORE PUSH1 0x20 PUSH0 KECCAK256 ADD SLOAD SWAP1 POP PUSH0 DUP6 PUSH1 0x2 ADD DUP5 DUP2 SLOAD DUP2 LT PUSH2 0x7EA2 JUMPI PUSH2 0x7EA1 PUSH2 0xCA58 JUMP JUMPDEST JUMPDEST SWAP1 PUSH0 MSTORE PUSH1 0x20 PUSH0 KECCAK256 ADD SLOAD SWAP1 POP PUSH0 JUMPDEST DUP6 PUSH1 0x5 ADD DUP1 SLOAD SWAP1 POP DUP2 LT ISZERO PUSH2 0x7F53 JUMPI DUP4 DUP7 PUSH1 0x5 ADD DUP3 DUP2 SLOAD DUP2 LT PUSH2 0x7ED5 JUMPI PUSH2 0x7ED4 PUSH2 0xCA58 JUMP JUMPDEST JUMPDEST SWAP1 PUSH0 MSTORE PUSH1 0x20 PUSH0 KECCAK256 ADD SLOAD EQ DUP1 ISZERO PUSH2 0x7F08 JUMPI POP DUP2 DUP7 PUSH1 0x6 ADD DUP3 DUP2 SLOAD DUP2 LT PUSH2 0x7EFD JUMPI PUSH2 0x7EFC PUSH2 0xCA58 JUMP JUMPDEST JUMPDEST SWAP1 PUSH0 MSTORE PUSH1 0x20 PUSH0 KECCAK256 ADD SLOAD EQ JUMPDEST ISZERO PUSH2 0x7F46 JUMPI DUP3 DUP7 PUSH1 0x7 ADD DUP3 DUP2 SLOAD DUP2 LT PUSH2 0x7F24 JUMPI PUSH2 0x7F23 PUSH2 0xCA58 JUMP JUMPDEST JUMPDEST SWAP1 PUSH0 MSTORE PUSH1 0x20 PUSH0 KECCAK256 ADD PUSH0 DUP3 DUP3 SLOAD PUSH2 0x7F3A SWAP2 SWAP1 PUSH2 0xE025 JUMP JUMPDEST SWAP3 POP POP DUP2 SWAP1 SSTORE POP PUSH2 0x7F53 JUMP JUMPDEST DUP1 DUP1 PUSH1 0x1 ADD SWAP2 POP POP PUSH2 0x7EAF JUMP JUMPDEST POP POP POP POP DUP1 DUP1 PUSH1 0x1 ADD SWAP2 POP POP PUSH2 0x7E39 JUMP JUMPDEST POP POP POP DUP1 DUP1 PUSH1 0x1 ADD SWAP2 POP POP PUSH2 0x7DEB JUMP JUMPDEST POP PUSH1 0x1 SWAP1 POP SWAP2 SWAP1 POP JUMP JUMPDEST PUSH0 DUP1 PUSH0 SWAP1 POP JUMPDEST DUP3 MLOAD DUP2 LT ISZERO PUSH2 0x834B JUMPI PUSH0 PUSH1 0x1 PUSH0 DUP6 DUP5 DUP2 MLOAD DUP2 LT PUSH2 0x7FA4 JUMPI PUSH2 0x7FA3 PUSH2 0xCA58 JUMP JUMPDEST JUMPDEST PUSH1 0x20 MUL PUSH1 0x20 ADD ADD MLOAD PUSH1 0x80 ADD MLOAD DUP2 MSTORE PUSH1 0x20 ADD SWAP1 DUP2 MSTORE PUSH1 0x20 ADD PUSH0 KECCAK256 SWAP1 POP PUSH0 DUP2 PUSH0 ADD SLOAD SUB PUSH2 0x8004 JUMPI PUSH1 0x40 MLOAD PUSH32 0x8C379A000000000000000000000000000000000000000000000000000000000 DUP2 MSTORE PUSH1 0x4 ADD PUSH2 0x7FFB SWAP1 PUSH2 0xE0EE JUMP JUMPDEST PUSH1 0x40 MLOAD DUP1 SWAP2 SUB SWAP1 REVERT JUMPDEST DUP1 PUSH1 0x1 ADD PUSH0 SWAP1 SLOAD SWAP1 PUSH2 0x100 EXP SWAP1 DIV PUSH20 0xFFFFFFFFFFFFFFFFFFFFFFFFFFFFFFFFFFFFFFFF AND PUSH20 0xFFFFFFFFFFFFFFFFFFFFFFFFFFFFFFFFFFFFFFFF AND CALLER PUSH20 0xFFFFFFFFFFFFFFFFFFFFFFFFFFFFFFFFFFFFFFFF AND EQ PUSH2 0x8095 JUMPI PUSH1 0x40 MLOAD PUSH32 0x8C379A000000000000000000000000000000000000000000000000000000000 DUP2 MSTORE PUSH1 0x4 ADD PUSH2 0x808C SWAP1 PUSH2 0xE1A2 JUMP JUMPDEST PUSH1 0x40 MLOAD DUP1 SWAP2 SUB SWAP1 REVERT JUMPDEST PUSH1 0x1 DUP1 DUP2 GT ISZERO PUSH2 0x80A8 JUMPI PUSH2 0x80A7 PUSH2 0xBD9C JUMP JUMPDEST JUMPDEST PUSH1 0xFF AND DUP2 PUSH1 0xC ADD PUSH0 SWAP1 SLOAD SWAP1 PUSH2 0x100 EXP SWAP1 DIV PUSH1 0xFF AND PUSH1 0xFF AND EQ PUSH2 0x80FF JUMPI PUSH1 0x40 MLOAD PUSH32 0x8C379A000000000000000000000000000000000000000000000000000000000 DUP2 MSTORE PUSH1 0x4 ADD PUSH2 0x80F6 SWAP1 PUSH2 0xE256 JUMP JUMPDEST PUSH1 0x40 MLOAD DUP1 SWAP2 SUB SWAP1 REVERT JUMPDEST PUSH0 JUMPDEST DUP5 DUP4 DUP2 MLOAD DUP2 LT PUSH2 0x8114 JUMPI PUSH2 0x8113 PUSH2 0xCA58 JUMP JUMPDEST JUMPDEST PUSH1 0x20 MUL PUSH1 0x20 ADD ADD MLOAD PUSH1 0x20 ADD MLOAD MLOAD DUP2 LT ISZERO PUSH2 0x833C JUMPI PUSH0 DUP6 DUP5 DUP2 MLOAD DUP2 LT PUSH2 0x813C JUMPI PUSH2 0x813B PUSH2 0xCA58 JUMP JUMPDEST JUMPDEST PUSH1 0x20 MUL PUSH1 0x20 ADD ADD MLOAD PUSH1 0x20 ADD MLOAD DUP3 DUP2 MLOAD DUP2 LT PUSH2 0x815A JUMPI PUSH2 0x8159 PUSH2 0xCA58 JUMP JUMPDEST JUMPDEST PUSH1 0x20 MUL PUSH1 0x20 ADD ADD MLOAD SWAP1 POP PUSH0 DUP7 DUP6 DUP2 MLOAD DUP2 LT PUSH2 0x8178 JUMPI PUSH2 0x8177 PUSH2 0xCA58 JUMP JUMPDEST JUMPDEST PUSH1 0x20 MUL PUSH1 0x20 ADD ADD MLOAD PUSH0 ADD MLOAD DUP4 DUP2 MLOAD DUP2 LT PUSH2 0x8195 JUMPI PUSH2 0x8194 PUSH2 0xCA58 JUMP JUMPDEST JUMPDEST PUSH1 0x20 MUL PUSH1 0x20 ADD ADD MLOAD SWAP1 POP PUSH0 DUP8 DUP7 DUP2 MLOAD DUP2 LT PUSH2 0x81B3 JUMPI PUSH2 0x81B2 PUSH2 0xCA58 JUMP JUMPDEST JUMPDEST PUSH1 0x20 MUL PUSH1 0x20 ADD ADD MLOAD PUSH1 0x40 ADD MLOAD DUP5 DUP2 MLOAD DUP2 LT PUSH2 0x81D1 JUMPI PUSH2 0x81D0 PUSH2 0xCA58 JUMP JUMPDEST JUMPDEST PUSH1 0x20 MUL PUSH1 0x20 ADD ADD MLOAD SWAP1 POP PUSH0 DUP1 PUSH0 SWAP1 POP JUMPDEST DUP7 PUSH1 0x5 ADD DUP1 SLOAD SWAP1 POP DUP2 LT ISZERO PUSH2 0x82EA JUMPI DUP5 DUP8 PUSH1 0x5 ADD DUP3 DUP2 SLOAD DUP2 LT PUSH2 0x8207 JUMPI PUSH2 0x8206 PUSH2 0xCA58 JUMP JUMPDEST JUMPDEST SWAP1 PUSH0 MSTORE PUSH1 0x20 PUSH0 KECCAK256 ADD SLOAD EQ DUP1 ISZERO PUSH2 0x823A JUMPI POP DUP3 DUP8 PUSH1 0x6 ADD DUP3 DUP2 SLOAD DUP2 LT PUSH2 0x822F JUMPI PUSH2 0x822E PUSH2 0xCA58 JUMP JUMPDEST JUMPDEST SWAP1 PUSH0 MSTORE PUSH1 0x20 PUSH0 KECCAK256 ADD SLOAD EQ JUMPDEST ISZERO PUSH2 0x82DD JUMPI DUP4 DUP8 PUSH1 0x7 ADD DUP3 DUP2 SLOAD DUP2 LT PUSH2 0x8256 JUMPI PUSH2 0x8255 PUSH2 0xCA58 JUMP JUMPDEST JUMPDEST SWAP1 PUSH0 MSTORE PUSH1 0x20 PUSH0 KECCAK256 ADD SLOAD LT ISZERO PUSH2 0x82A0 JUMPI PUSH1 0x40 MLOAD PUSH32 0x8C379A000000000000000000000000000000000000000000000000000000000 DUP2 MSTORE PUSH1 0x4 ADD PUSH2 0x8297 SWAP1 PUSH2 0xE2E4 JUMP JUMPDEST PUSH1 0x40 MLOAD DUP1 SWAP2 SUB SWAP1 REVERT JUMPDEST DUP4 DUP8 PUSH1 0x7 ADD DUP3 DUP2 SLOAD DUP2 LT PUSH2 0x82B7 JUMPI PUSH2 0x82B6 PUSH2 0xCA58 JUMP JUMPDEST JUMPDEST SWAP1 PUSH0 MSTORE PUSH1 0x20 PUSH0 KECCAK256 ADD PUSH0 DUP3 DUP3 SLOAD PUSH2 0x82CD SWAP2 SWAP1 PUSH2 0xDA76 JUMP JUMPDEST SWAP3 POP POP DUP2 SWAP1 SSTORE POP PUSH1 0x1 SWAP2 POP PUSH2 0x82EA JUMP JUMPDEST DUP1 DUP1 PUSH1 0x1 ADD SWAP2 POP POP PUSH2 0x81E1 JUMP JUMPDEST POP DUP1 PUSH2 0x832B JUMPI PUSH1 0x40 MLOAD PUSH32 0x8C379A000000000000000000000000000000000000000000000000000000000 DUP2 MSTORE PUSH1 0x4 ADD PUSH2 0x8322 SWAP1 PUSH2 0xE372 JUMP JUMPDEST PUSH1 0x40 MLOAD DUP1 SWAP2 SUB SWAP1 REVERT JUMPDEST POP POP POP POP DUP1 DUP1 PUSH1 0x1 ADD SWAP2 POP POP PUSH2 0x8101 JUMP JUMPDEST POP POP DUP1 DUP1 PUSH1 0x1 ADD SWAP2 POP POP PUSH2 0x7F84 JUMP JUMPDEST POP PUSH1 0x1 SWAP1 POP SWAP2 SWAP1 POP JUMP JUMPDEST PUSH1 0x60 PUSH0 PUSH1 0x1 PUSH2 0x8363 DUP5 PUSH2 0x95DA JUMP JUMPDEST ADD SWAP1 POP PUSH0 DUP2 PUSH8 0xFFFFFFFFFFFFFFFF DUP2 GT ISZERO PUSH2 0x8381 JUMPI PUSH2 0x8380 PUSH2 0x9D24 JUMP JUMPDEST JUMPDEST PUSH1 0x40 MLOAD SWAP1 DUP1 DUP3 MSTORE DUP1 PUSH1 0x1F ADD PUSH1 0x1F NOT AND PUSH1 0x20 ADD DUP3 ADD PUSH1 0x40 MSTORE DUP1 ISZERO PUSH2 0x83B3 JUMPI DUP2 PUSH1 0x20 ADD PUSH1 0x1 DUP3 MUL DUP1 CALLDATASIZE DUP4 CALLDATACOPY DUP1 DUP3 ADD SWAP2 POP POP SWAP1 POP JUMPDEST POP SWAP1 POP PUSH0 DUP3 PUSH1 0x20 ADD DUP3 ADD SWAP1 POP JUMPDEST PUSH1 0x1 ISZERO PUSH2 0x8414 JUMPI DUP1 DUP1 PUSH1 0x1 SWAP1 SUB SWAP2 POP POP PUSH32 0x3031323334353637383961626364656600000000000000000000000000000000 PUSH1 0xA DUP7 MOD BYTE DUP2 MSTORE8 PUSH1 0xA DUP6 DUP2 PUSH2 0x8409 JUMPI PUSH2 0x8408 PUSH2 0xE390 JUMP JUMPDEST JUMPDEST DIV SWAP5 POP PUSH0 DUP6 SUB PUSH2 0x83C0 JUMPI JUMPDEST DUP2 SWAP4 POP POP POP POP SWAP2 SWAP1 POP JUMP JUMPDEST PUSH0 DUP1 PUSH0 SWAP1 POP PUSH0 JUMPDEST PUSH0 DUP1 DUP7 PUSH20 0xFFFFFFFFFFFFFFFFFFFFFFFFFFFFFFFFFFFFFFFF AND PUSH20 0xFFFFFFFFFFFFFFFFFFFFFFFFFFFFFFFFFFFFFFFF AND DUP2 MSTORE PUSH1 0x20 ADD SWAP1 DUP2 MSTORE PUSH1 0x20 ADD PUSH0 KECCAK256 PUSH1 0x2 ADD DUP1 SLOAD SWAP1 POP DUP2 LT ISZERO PUSH2 0x84EF JUMPI DUP4 PUSH0 DUP1 DUP8 PUSH20 0xFFFFFFFFFFFFFFFFFFFFFFFFFFFFFFFFFFFFFFFF AND PUSH20 0xFFFFFFFFFFFFFFFFFFFFFFFFFFFFFFFFFFFFFFFF AND DUP2 MSTORE PUSH1 0x20 ADD SWAP1 DUP2 MSTORE PUSH1 0x20 ADD PUSH0 KECCAK256 PUSH1 0x2 ADD DUP3 DUP2 SLOAD DUP2 LT PUSH2 0x84C2 JUMPI PUSH2 0x84C1 PUSH2 0xCA58 JUMP JUMPDEST JUMPDEST SWAP1 PUSH0 MSTORE PUSH1 0x20 PUSH0 KECCAK256 SWAP1 PUSH1 0x5 MUL ADD PUSH0 ADD SLOAD SUB PUSH2 0x84E2 JUMPI DUP1 SWAP3 POP PUSH1 0x1 SWAP2 POP PUSH2 0x84EF JUMP JUMPDEST DUP1 DUP1 PUSH1 0x1 ADD SWAP2 POP POP PUSH2 0x8426 JUMP JUMPDEST POP DUP1 PUSH2 0x8530 JUMPI PUSH1 0x40 MLOAD PUSH32 0x8C379A000000000000000000000000000000000000000000000000000000000 DUP2 MSTORE PUSH1 0x4 ADD PUSH2 0x8527 SWAP1 PUSH2 0xE453 JUMP JUMPDEST PUSH1 0x40 MLOAD DUP1 SWAP2 SUB SWAP1 REVERT JUMPDEST PUSH0 DUP1 DUP6 PUSH20 0xFFFFFFFFFFFFFFFFFFFFFFFFFFFFFFFFFFFFFFFF AND PUSH20 0xFFFFFFFFFFFFFFFFFFFFFFFFFFFFFFFFFFFFFFFF AND DUP2 MSTORE PUSH1 0x20 ADD SWAP1 DUP2 MSTORE PUSH1 0x20 ADD PUSH0 KECCAK256 PUSH1 0x2 ADD DUP1 SLOAD SWAP1 POP DUP3 LT PUSH2 0x85B4 JUMPI PUSH1 0x40 MLOAD PUSH32 0x8C379A000000000000000000000000000000000000000000000000000000000 DUP2 MSTORE PUSH1 0x4 ADD PUSH2 0x85AB SWAP1 PUSH2 0xE507 JUMP JUMPDEST PUSH1 0x40 MLOAD DUP1 SWAP2 SUB SWAP1 REVERT JUMPDEST PUSH1 0x14 PUSH0 SWAP1 SLOAD SWAP1 PUSH2 0x100 EXP SWAP1 DIV PUSH20 0xFFFFFFFFFFFFFFFFFFFFFFFFFFFFFFFFFFFFFFFF AND PUSH20 0xFFFFFFFFFFFFFFFFFFFFFFFFFFFFFFFFFFFFFFFF AND PUSH4 0xD24043CB DUP6 PUSH0 DUP1 DUP9 PUSH20 0xFFFFFFFFFFFFFFFFFFFFFFFFFFFFFFFFFFFFFFFF AND PUSH20 0xFFFFFFFFFFFFFFFFFFFFFFFFFFFFFFFFFFFFFFFF AND DUP2 MSTORE PUSH1 0x20 ADD SWAP1 DUP2 MSTORE PUSH1 0x20 ADD PUSH0 KECCAK256 PUSH1 0x2 ADD DUP6 DUP2 SLOAD DUP2 LT PUSH2 0x8643 JUMPI PUSH2 0x8642 PUSH2 0xCA58 JUMP JUMPDEST JUMPDEST SWAP1 PUSH0 MSTORE PUSH1 0x20 PUSH0 KECCAK256 SWAP1 PUSH1 0x5 MUL ADD PUSH1 0x1 ADD SLOAD PUSH0 PUSH1 0x1 PUSH1 0x40 MLOAD DUP6 PUSH4 0xFFFFFFFF AND PUSH1 0xE0 SHL DUP2 MSTORE PUSH1 0x4 ADD PUSH2 0x8675 SWAP5 SWAP4 SWAP3 SWAP2 SWAP1 PUSH2 0xE525 JUMP JUMPDEST PUSH0 PUSH1 0x40 MLOAD DUP1 DUP4 SUB DUP2 PUSH0 DUP8 DUP1 EXTCODESIZE ISZERO DUP1 ISZERO PUSH2 0x868C JUMPI PUSH0 DUP1 REVERT JUMPDEST POP GAS CALL ISZERO DUP1 ISZERO PUSH2 0x869E JUMPI RETURNDATASIZE PUSH0 DUP1 RETURNDATACOPY RETURNDATASIZE PUSH0 REVERT JUMPDEST POP POP POP POP PUSH1 0x14 PUSH0 SWAP1 SLOAD SWAP1 PUSH2 0x100 EXP SWAP1 DIV PUSH20 0xFFFFFFFFFFFFFFFFFFFFFFFFFFFFFFFFFFFFFFFF AND PUSH20 0xFFFFFFFFFFFFFFFFFFFFFFFFFFFFFFFFFFFFFFFF AND PUSH4 0xD24043CB DUP6 PUSH0 DUP1 DUP9 PUSH20 0xFFFFFFFFFFFFFFFFFFFFFFFFFFFFFFFFFFFFFFFF AND PUSH20 0xFFFFFFFFFFFFFFFFFFFFFFFFFFFFFFFFFFFFFFFF AND DUP2 MSTORE PUSH1 0x20 ADD SWAP1 DUP2 MSTORE PUSH1 0x20 ADD PUSH0 KECCAK256 PUSH1 0x2 ADD DUP6 DUP2 SLOAD DUP2 LT PUSH2 0x8731 JUMPI PUSH2 0x8730 PUSH2 0xCA58 JUMP JUMPDEST JUMPDEST SWAP1 PUSH0 MSTORE PUSH1 0x20 PUSH0 KECCAK256 SWAP1 PUSH1 0x5 MUL ADD PUSH1 0x1 ADD SLOAD PUSH1 0x12 PUSH0 SWAP1 SLOAD SWAP1 PUSH2 0x100 EXP SWAP1 DIV PUSH20 0xFFFFFFFFFFFFFFFFFFFFFFFFFFFFFFFFFFFFFFFF AND PUSH20 0xFFFFFFFFFFFFFFFFFFFFFFFFFFFFFFFFFFFFFFFF AND PUSH4 0xB9DB15B4 PUSH0 DUP1 DUP12 PUSH20 0xFFFFFFFFFFFFFFFFFFFFFFFFFFFFFFFFFFFFFFFF AND PUSH20 0xFFFFFFFFFFFFFFFFFFFFFFFFFFFFFFFFFFFFFFFF AND DUP2 MSTORE PUSH1 0x20 ADD SWAP1 DUP2 MSTORE PUSH1 0x20 ADD PUSH0 KECCAK256 PUSH1 0x2 ADD DUP9 DUP2 SLOAD DUP2 LT PUSH2 0x87CF JUMPI PUSH2 0x87CE PUSH2 0xCA58 JUMP JUMPDEST JUMPDEST SWAP1 PUSH0 MSTORE PUSH1 0x20 PUSH0 KECCAK256 SWAP1 PUSH1 0x5 MUL ADD PUSH1 0x1 ADD SLOAD PUSH1 0x40 MLOAD DUP3 PUSH4 0xFFFFFFFF AND PUSH1 0xE0 SHL DUP2 MSTORE PUSH1 0x4 ADD PUSH2 0x87FB SWAP2 SWAP1 PUSH2 0x9CF7 JUMP JUMPDEST PUSH0 PUSH1 0x40 MLOAD DUP1 DUP4 SUB DUP2 DUP7 GAS STATICCALL ISZERO DUP1 ISZERO PUSH2 0x8815 JUMPI RETURNDATASIZE PUSH0 DUP1 RETURNDATACOPY RETURNDATASIZE PUSH0 REVERT JUMPDEST POP POP POP POP PUSH1 0x40 MLOAD RETURNDATASIZE PUSH0 DUP3 RETURNDATACOPY RETURNDATASIZE PUSH1 0x1F NOT PUSH1 0x1F DUP3 ADD AND DUP3 ADD DUP1 PUSH1 0x40 MSTORE POP DUP2 ADD SWAP1 PUSH2 0x883D SWAP2 SWAP1 PUSH2 0xD536 JUMP JUMPDEST PUSH1 0x20 ADD MLOAD PUSH2 0x180 ADD MLOAD PUSH0 PUSH1 0x40 MLOAD DUP6 PUSH4 0xFFFFFFFF AND PUSH1 0xE0 SHL DUP2 MSTORE PUSH1 0x4 ADD PUSH2 0x8866 SWAP5 SWAP4 SWAP3 SWAP2 SWAP1 PUSH2 0xE525 JUMP JUMPDEST PUSH0 PUSH1 0x40 MLOAD DUP1 DUP4 SUB DUP2 PUSH0 DUP8 DUP1 EXTCODESIZE ISZERO DUP1 ISZERO PUSH2 0x887D JUMPI PUSH0 DUP1 REVERT JUMPDEST POP GAS CALL ISZERO DUP1 ISZERO PUSH2 0x888F JUMPI RETURNDATASIZE PUSH0 DUP1 RETURNDATACOPY RETURNDATASIZE PUSH0 REVERT JUMPDEST POP POP POP POP PUSH1 0x14 PUSH0 SWAP1 SLOAD SWAP1 PUSH2 0x100 EXP SWAP1 DIV PUSH20 0xFFFFFFFFFFFFFFFFFFFFFFFFFFFFFFFFFFFFFFFF AND PUSH20 0xFFFFFFFFFFFFFFFFFFFFFFFFFFFFFFFFFFFFFFFF AND PUSH4 0x92A198D5 PUSH1 0x12 PUSH0 SWAP1 SLOAD SWAP1 PUSH2 0x100 EXP SWAP1 DIV PUSH20 0xFFFFFFFFFFFFFFFFFFFFFFFFFFFFFFFFFFFFFFFF AND PUSH20 0xFFFFFFFFFFFFFFFFFFFFFFFFFFFFFFFFFFFFFFFF AND PUSH4 0xB9DB15B4 PUSH0 DUP1 DUP10 PUSH20 0xFFFFFFFFFFFFFFFFFFFFFFFFFFFFFFFFFFFFFFFF AND PUSH20 0xFFFFFFFFFFFFFFFFFFFFFFFFFFFFFFFFFFFFFFFF AND DUP2 MSTORE PUSH1 0x20 ADD SWAP1 DUP2 MSTORE PUSH1 0x20 ADD PUSH0 KECCAK256 PUSH1 0x2 ADD DUP7 DUP2 SLOAD DUP2 LT PUSH2 0x895E JUMPI PUSH2 0x895D PUSH2 0xCA58 JUMP JUMPDEST JUMPDEST SWAP1 PUSH0 MSTORE PUSH1 0x20 PUSH0 KECCAK256 SWAP1 PUSH1 0x5 MUL ADD PUSH1 0x1 ADD SLOAD PUSH1 0x40 MLOAD DUP3 PUSH4 0xFFFFFFFF AND PUSH1 0xE0 SHL DUP2 MSTORE PUSH1 0x4 ADD PUSH2 0x898A SWAP2 SWAP1 PUSH2 0x9CF7 JUMP JUMPDEST PUSH0 PUSH1 0x40 MLOAD DUP1 DUP4 SUB DUP2 DUP7 GAS STATICCALL ISZERO DUP1 ISZERO PUSH2 0x89A4 JUMPI RETURNDATASIZE PUSH0 DUP1 RETURNDATACOPY RETURNDATASIZE PUSH0 REVERT JUMPDEST POP POP POP POP PUSH1 0x40 MLOAD RETURNDATASIZE PUSH0 DUP3 RETURNDATACOPY RETURNDATASIZE PUSH1 0x1F NOT PUSH1 0x1F DUP3 ADD AND DUP3 ADD DUP1 PUSH1 0x40 MSTORE POP DUP2 ADD SWAP1 PUSH2 0x89CC SWAP2 SWAP1 PUSH2 0xD536 JUMP JUMPDEST PUSH1 0x20 ADD MLOAD PUSH2 0x180 ADD MLOAD PUSH1 0x40 MLOAD DUP3 PUSH4 0xFFFFFFFF AND PUSH1 0xE0 SHL DUP2 MSTORE PUSH1 0x4 ADD PUSH2 0x89F1 SWAP2 SWAP1 PUSH2 0xB760 JUMP JUMPDEST PUSH0 PUSH1 0x40 MLOAD DUP1 DUP4 SUB DUP2 PUSH0 DUP8 DUP1 EXTCODESIZE ISZERO DUP1 ISZERO PUSH2 0x8A08 JUMPI PUSH0 DUP1 REVERT JUMPDEST POP GAS CALL ISZERO DUP1 ISZERO PUSH2 0x8A1A JUMPI RETURNDATASIZE PUSH0 DUP1 RETURNDATACOPY RETURNDATASIZE PUSH0 REVERT JUMPDEST POP POP POP POP PUSH1 0x1 PUSH0 DUP1 DUP7 PUSH20 0xFFFFFFFFFFFFFFFFFFFFFFFFFFFFFFFFFFFFFFFF AND PUSH20 0xFFFFFFFFFFFFFFFFFFFFFFFFFFFFFFFFFFFFFFFF AND DUP2 MSTORE PUSH1 0x20 ADD SWAP1 DUP2 MSTORE PUSH1 0x20 ADD PUSH0 KECCAK256 PUSH1 0x2 ADD DUP1 SLOAD SWAP1 POP PUSH2 0x8A6D SWAP2 SWAP1 PUSH2 0xDA76 JUMP JUMPDEST DUP3 LT ISZERO PUSH2 0x8BD7 JUMPI PUSH0 DUP3 SWAP1 POP JUMPDEST PUSH1 0x1 PUSH0 DUP1 DUP8 PUSH20 0xFFFFFFFFFFFFFFFFFFFFFFFFFFFFFFFFFFFFFFFF AND PUSH20 0xFFFFFFFFFFFFFFFFFFFFFFFFFFFFFFFFFFFFFFFF AND DUP2 MSTORE PUSH1 0x20 ADD SWAP1 DUP2 MSTORE PUSH1 0x20 ADD PUSH0 KECCAK256 PUSH1 0x2 ADD DUP1 SLOAD SWAP1 POP PUSH2 0x8AC8 SWAP2 SWAP1 PUSH2 0xDA76 JUMP JUMPDEST DUP2 LT ISZERO PUSH2 0x8BD5 JUMPI PUSH0 DUP1 DUP7 PUSH20 0xFFFFFFFFFFFFFFFFFFFFFFFFFFFFFFFFFFFFFFFF AND PUSH20 0xFFFFFFFFFFFFFFFFFFFFFFFFFFFFFFFFFFFFFFFF AND DUP2 MSTORE PUSH1 0x20 ADD SWAP1 DUP2 MSTORE PUSH1 0x20 ADD PUSH0 KECCAK256 PUSH1 0x2 ADD PUSH1 0x1 DUP3 PUSH2 0x8B1B SWAP2 SWAP1 PUSH2 0xE025 JUMP JUMPDEST DUP2 SLOAD DUP2 LT PUSH2 0x8B2C JUMPI PUSH2 0x8B2B PUSH2 0xCA58 JUMP JUMPDEST JUMPDEST SWAP1 PUSH0 MSTORE PUSH1 0x20 PUSH0 KECCAK256 SWAP1 PUSH1 0x5 MUL ADD PUSH0 DUP1 DUP8 PUSH20 0xFFFFFFFFFFFFFFFFFFFFFFFFFFFFFFFFFFFFFFFF AND PUSH20 0xFFFFFFFFFFFFFFFFFFFFFFFFFFFFFFFFFFFFFFFF AND DUP2 MSTORE PUSH1 0x20 ADD SWAP1 DUP2 MSTORE PUSH1 0x20 ADD PUSH0 KECCAK256 PUSH1 0x2 ADD DUP3 DUP2 SLOAD DUP2 LT PUSH2 0x8B89 JUMPI PUSH2 0x8B88 PUSH2 0xCA58 JUMP JUMPDEST JUMPDEST SWAP1 PUSH0 MSTORE PUSH1 0x20 PUSH0 KECCAK256 SWAP1 PUSH1 0x5 MUL ADD PUSH0 DUP3 ADD SLOAD DUP2 PUSH0 ADD SSTORE PUSH1 0x1 DUP3 ADD SLOAD DUP2 PUSH1 0x1 ADD SSTORE PUSH1 0x2 DUP3 ADD SLOAD DUP2 PUSH1 0x2 ADD SSTORE PUSH1 0x3 DUP3 ADD SLOAD DUP2 PUSH1 0x3 ADD SSTORE PUSH1 0x4 DUP3 ADD SLOAD DUP2 PUSH1 0x4 ADD SSTORE SWAP1 POP POP DUP1 DUP1 PUSH1 0x1 ADD SWAP2 POP POP PUSH2 0x8A79 JUMP JUMPDEST POP JUMPDEST PUSH0 DUP1 PUSH0 DUP7 PUSH20 0xFFFFFFFFFFFFFFFFFFFFFFFFFFFFFFFFFFFFFFFF AND PUSH20 0xFFFFFFFFFFFFFFFFFFFFFFFFFFFFFFFFFFFFFFFF AND DUP2 MSTORE PUSH1 0x20 ADD SWAP1 DUP2 MSTORE PUSH1 0x20 ADD PUSH0 KECCAK256 PUSH1 0x2 ADD DUP1 SLOAD SWAP1 POP GT PUSH2 0x8C5B JUMPI PUSH1 0x40 MLOAD PUSH32 0x8C379A000000000000000000000000000000000000000000000000000000000 DUP2 MSTORE PUSH1 0x4 ADD PUSH2 0x8C52 SWAP1 PUSH2 0xE5FE JUMP JUMPDEST PUSH1 0x40 MLOAD DUP1 SWAP2 SUB SWAP1 REVERT JUMPDEST PUSH0 DUP1 DUP6 PUSH20 0xFFFFFFFFFFFFFFFFFFFFFFFFFFFFFFFFFFFFFFFF AND PUSH20 0xFFFFFFFFFFFFFFFFFFFFFFFFFFFFFFFFFFFFFFFF AND DUP2 MSTORE PUSH1 0x20 ADD SWAP1 DUP2 MSTORE PUSH1 0x20 ADD PUSH0 KECCAK256 PUSH1 0x2 ADD DUP1 SLOAD DUP1 PUSH2 0x8CAA JUMPI PUSH2 0x8CA9 PUSH2 0xDAA9 JUMP JUMPDEST JUMPDEST PUSH1 0x1 SWAP1 SUB DUP2 DUP2 SWAP1 PUSH0 MSTORE PUSH1 0x20 PUSH0 KECCAK256 SWAP1 PUSH1 0x5 MUL ADD PUSH0 DUP1 DUP3 ADD PUSH0 SWAP1 SSTORE PUSH1 0x1 DUP3 ADD PUSH0 SWAP1 SSTORE PUSH1 0x2 DUP3 ADD PUSH0 SWAP1 SSTORE PUSH1 0x3 DUP3 ADD PUSH0 SWAP1 SSTORE PUSH1 0x4 DUP3 ADD PUSH0 SWAP1 SSTORE POP POP SWAP1 SSTORE POP POP POP POP JUMP JUMPDEST PUSH2 0x8CF1 PUSH2 0x99CF JUMP JUMPDEST PUSH0 PUSH1 0x15 PUSH0 SWAP1 SLOAD SWAP1 PUSH2 0x100 EXP SWAP1 DIV PUSH20 0xFFFFFFFFFFFFFFFFFFFFFFFFFFFFFFFFFFFFFFFF AND PUSH20 0xFFFFFFFFFFFFFFFFFFFFFFFFFFFFFFFFFFFFFFFF AND PUSH4 0x8B59D23E DUP5 PUSH1 0x40 MLOAD DUP3 PUSH4 0xFFFFFFFF AND PUSH1 0xE0 SHL DUP2 MSTORE PUSH1 0x4 ADD PUSH2 0x8D4C SWAP2 SWAP1 PUSH2 0xB760 JUMP JUMPDEST PUSH1 0x20 PUSH1 0x40 MLOAD DUP1 DUP4 SUB DUP2 DUP7 GAS STATICCALL ISZERO DUP1 ISZERO PUSH2 0x8D67 JUMPI RETURNDATASIZE PUSH0 DUP1 RETURNDATACOPY RETURNDATASIZE PUSH0 REVERT JUMPDEST POP POP POP POP PUSH1 0x40 MLOAD RETURNDATASIZE PUSH1 0x1F NOT PUSH1 0x1F DUP3 ADD AND DUP3 ADD DUP1 PUSH1 0x40 MSTORE POP DUP2 ADD SWAP1 PUSH2 0x8D8B SWAP2 SWAP1 PUSH2 0xE61C JUMP JUMPDEST SWAP1 POP PUSH0 DUP5 MLOAD SWAP1 POP DUP1 PUSH8 0xFFFFFFFFFFFFFFFF DUP2 GT ISZERO PUSH2 0x8DAC JUMPI PUSH2 0x8DAB PUSH2 0x9D24 JUMP JUMPDEST JUMPDEST PUSH1 0x40 MLOAD SWAP1 DUP1 DUP3 MSTORE DUP1 PUSH1 0x20 MUL PUSH1 0x20 ADD DUP3 ADD PUSH1 0x40 MSTORE DUP1 ISZERO PUSH2 0x8DDA JUMPI DUP2 PUSH1 0x20 ADD PUSH1 0x20 DUP3 MUL DUP1 CALLDATASIZE DUP4 CALLDATACOPY DUP1 DUP3 ADD SWAP2 POP POP SWAP1 POP JUMPDEST POP DUP4 PUSH0 ADD DUP2 SWAP1 MSTORE POP DUP1 PUSH8 0xFFFFFFFFFFFFFFFF DUP2 GT ISZERO PUSH2 0x8DFC JUMPI PUSH2 0x8DFB PUSH2 0x9D24 JUMP JUMPDEST JUMPDEST PUSH1 0x40 MLOAD SWAP1 DUP1 DUP3 MSTORE DUP1 PUSH1 0x20 MUL PUSH1 0x20 ADD DUP3 ADD PUSH1 0x40 MSTORE DUP1 ISZERO PUSH2 0x8E2A JUMPI DUP2 PUSH1 0x20 ADD PUSH1 0x20 DUP3 MUL DUP1 CALLDATASIZE DUP4 CALLDATACOPY DUP1 DUP3 ADD SWAP2 POP POP SWAP1 POP JUMPDEST POP DUP4 PUSH1 0x20 ADD DUP2 SWAP1 MSTORE POP DUP1 PUSH8 0xFFFFFFFFFFFFFFFF DUP2 GT ISZERO PUSH2 0x8E4D JUMPI PUSH2 0x8E4C PUSH2 0x9D24 JUMP JUMPDEST JUMPDEST PUSH1 0x40 MLOAD SWAP1 DUP1 DUP3 MSTORE DUP1 PUSH1 0x20 MUL PUSH1 0x20 ADD DUP3 ADD PUSH1 0x40 MSTORE DUP1 ISZERO PUSH2 0x8E7B JUMPI DUP2 PUSH1 0x20 ADD PUSH1 0x20 DUP3 MUL DUP1 CALLDATASIZE DUP4 CALLDATACOPY DUP1 DUP3 ADD SWAP2 POP POP SWAP1 POP JUMPDEST POP DUP4 PUSH1 0x40 ADD DUP2 SWAP1 MSTORE POP DUP1 PUSH8 0xFFFFFFFFFFFFFFFF DUP2 GT ISZERO PUSH2 0x8E9E JUMPI PUSH2 0x8E9D PUSH2 0x9D24 JUMP JUMPDEST JUMPDEST PUSH1 0x40 MLOAD SWAP1 DUP1 DUP3 MSTORE DUP1 PUSH1 0x20 MUL PUSH1 0x20 ADD DUP3 ADD PUSH1 0x40 MSTORE DUP1 ISZERO PUSH2 0x8ECC JUMPI DUP2 PUSH1 0x20 ADD PUSH1 0x20 DUP3 MUL DUP1 CALLDATASIZE DUP4 CALLDATACOPY DUP1 DUP3 ADD SWAP2 POP POP SWAP1 POP JUMPDEST POP DUP4 PUSH1 0xC0 ADD DUP2 SWAP1 MSTORE POP DUP1 PUSH8 0xFFFFFFFFFFFFFFFF DUP2 GT ISZERO PUSH2 0x8EEF JUMPI PUSH2 0x8EEE PUSH2 0x9D24 JUMP JUMPDEST JUMPDEST PUSH1 0x40 MLOAD SWAP1 DUP1 DUP3 MSTORE DUP1 PUSH1 0x20 MUL PUSH1 0x20 ADD DUP3 ADD PUSH1 0x40 MSTORE DUP1 ISZERO PUSH2 0x8F1D JUMPI DUP2 PUSH1 0x20 ADD PUSH1 0x20 DUP3 MUL DUP1 CALLDATASIZE DUP4 CALLDATACOPY DUP1 DUP3 ADD SWAP2 POP POP SWAP1 POP JUMPDEST POP DUP4 PUSH1 0x80 ADD DUP2 SWAP1 MSTORE POP DUP1 PUSH8 0xFFFFFFFFFFFFFFFF DUP2 GT ISZERO PUSH2 0x8F40 JUMPI PUSH2 0x8F3F PUSH2 0x9D24 JUMP JUMPDEST JUMPDEST PUSH1 0x40 MLOAD SWAP1 DUP1 DUP3 MSTORE DUP1 PUSH1 0x20 MUL PUSH1 0x20 ADD DUP3 ADD PUSH1 0x40 MSTORE DUP1 ISZERO PUSH2 0x8F6E JUMPI DUP2 PUSH1 0x20 ADD PUSH1 0x20 DUP3 MUL DUP1 CALLDATASIZE DUP4 CALLDATACOPY DUP1 DUP3 ADD SWAP2 POP POP SWAP1 POP JUMPDEST POP DUP4 PUSH1 0x60 ADD DUP2 SWAP1 MSTORE POP DUP1 PUSH8 0xFFFFFFFFFFFFFFFF DUP2 GT ISZERO PUSH2 0x8F91 JUMPI PUSH2 0x8F90 PUSH2 0x9D24 JUMP JUMPDEST JUMPDEST PUSH1 0x40 MLOAD SWAP1 DUP1 DUP3 MSTORE DUP1 PUSH1 0x20 MUL PUSH1 0x20 ADD DUP3 ADD PUSH1 0x40 MSTORE DUP1 ISZERO PUSH2 0x8FBF JUMPI DUP2 PUSH1 0x20 ADD PUSH1 0x20 DUP3 MUL DUP1 CALLDATASIZE DUP4 CALLDATACOPY DUP1 DUP3 ADD SWAP2 POP POP SWAP1 POP JUMPDEST POP DUP4 PUSH1 0xA0 ADD DUP2 SWAP1 MSTORE POP PUSH0 JUMPDEST DUP2 DUP2 LT ISZERO PUSH2 0x95C3 JUMPI PUSH0 DUP1 JUMPDEST PUSH0 DUP1 DUP9 PUSH20 0xFFFFFFFFFFFFFFFFFFFFFFFFFFFFFFFFFFFFFFFF AND PUSH20 0xFFFFFFFFFFFFFFFFFFFFFFFFFFFFFFFFFFFFFFFF AND DUP2 MSTORE PUSH1 0x20 ADD SWAP1 DUP2 MSTORE PUSH1 0x20 ADD PUSH0 KECCAK256 PUSH1 0x2 ADD DUP1 SLOAD SWAP1 POP DUP2 LT ISZERO PUSH2 0x90B9 JUMPI DUP8 DUP4 DUP2 MLOAD DUP2 LT PUSH2 0x9032 JUMPI PUSH2 0x9031 PUSH2 0xCA58 JUMP JUMPDEST JUMPDEST PUSH1 0x20 MUL PUSH1 0x20 ADD ADD MLOAD PUSH1 0x60 ADD MLOAD PUSH0 DUP1 DUP10 PUSH20 0xFFFFFFFFFFFFFFFFFFFFFFFFFFFFFFFFFFFFFFFF AND PUSH20 0xFFFFFFFFFFFFFFFFFFFFFFFFFFFFFFFFFFFFFFFF AND DUP2 MSTORE PUSH1 0x20 ADD SWAP1 DUP2 MSTORE PUSH1 0x20 ADD PUSH0 KECCAK256 PUSH1 0x2 ADD DUP3 DUP2 SLOAD DUP2 LT PUSH2 0x908F JUMPI PUSH2 0x908E PUSH2 0xCA58 JUMP JUMPDEST JUMPDEST SWAP1 PUSH0 MSTORE PUSH1 0x20 PUSH0 KECCAK256 SWAP1 PUSH1 0x5 MUL ADD PUSH0 ADD SLOAD SUB PUSH2 0x90AC JUMPI PUSH1 0x1 SWAP2 POP PUSH2 0x90B9 JUMP JUMPDEST DUP1 DUP1 PUSH1 0x1 ADD SWAP2 POP POP PUSH2 0x8FD5 JUMP JUMPDEST POP DUP1 PUSH2 0x90FA JUMPI PUSH1 0x40 MLOAD PUSH32 0x8C379A000000000000000000000000000000000000000000000000000000000 DUP2 MSTORE PUSH1 0x4 ADD PUSH2 0x90F1 SWAP1 PUSH2 0xE6DD JUMP JUMPDEST PUSH1 0x40 MLOAD DUP1 SWAP2 SUB SWAP1 REVERT JUMPDEST PUSH1 0x12 PUSH0 SWAP1 SLOAD SWAP1 PUSH2 0x100 EXP SWAP1 DIV PUSH20 0xFFFFFFFFFFFFFFFFFFFFFFFFFFFFFFFFFFFFFFFF AND PUSH20 0xFFFFFFFFFFFFFFFFFFFFFFFFFFFFFFFFFFFFFFFF AND PUSH4 0xB9DB15B4 DUP9 DUP5 DUP2 MLOAD DUP2 LT PUSH2 0x914A JUMPI PUSH2 0x9149 PUSH2 0xCA58 JUMP JUMPDEST JUMPDEST PUSH1 0x20 MUL PUSH1 0x20 ADD ADD MLOAD PUSH0 ADD MLOAD PUSH1 0x40 MLOAD DUP3 PUSH4 0xFFFFFFFF AND PUSH1 0xE0 SHL DUP2 MSTORE PUSH1 0x4 ADD PUSH2 0x9171 SWAP2 SWAP1 PUSH2 0x9CF7 JUMP JUMPDEST PUSH0 PUSH1 0x40 MLOAD DUP1 DUP4 SUB DUP2 DUP7 GAS STATICCALL ISZERO DUP1 ISZERO PUSH2 0x918B JUMPI RETURNDATASIZE PUSH0 DUP1 RETURNDATACOPY RETURNDATASIZE PUSH0 REVERT JUMPDEST POP POP POP POP PUSH1 0x40 MLOAD RETURNDATASIZE PUSH0 DUP3 RETURNDATACOPY RETURNDATASIZE PUSH1 0x1F NOT PUSH1 0x1F DUP3 ADD AND DUP3 ADD DUP1 PUSH1 0x40 MSTORE POP DUP2 ADD SWAP1 PUSH2 0x91B3 SWAP2 SWAP1 PUSH2 0xD536 JUMP JUMPDEST PUSH1 0x20 ADD MLOAD PUSH2 0x2C0 ADD MLOAD PUSH2 0x91DF PUSH1 0xF PUSH1 0x40 MLOAD DUP1 PUSH1 0x60 ADD PUSH1 0x40 MSTORE DUP1 PUSH1 0x23 DUP2 MSTORE PUSH1 0x20 ADD PUSH2 0xE7F1 PUSH1 0x23 SWAP2 CODECOPY PUSH2 0x12B1 JUMP JUMPDEST SWAP1 PUSH2 0x9220 JUMPI PUSH1 0x40 MLOAD PUSH32 0x8C379A000000000000000000000000000000000000000000000000000000000 DUP2 MSTORE PUSH1 0x4 ADD PUSH2 0x9217 SWAP2 SWAP1 PUSH2 0xA739 JUMP JUMPDEST PUSH1 0x40 MLOAD DUP1 SWAP2 SUB SWAP1 REVERT JUMPDEST POP PUSH0 PUSH1 0x12 PUSH0 SWAP1 SLOAD SWAP1 PUSH2 0x100 EXP SWAP1 DIV PUSH20 0xFFFFFFFFFFFFFFFFFFFFFFFFFFFFFFFFFFFFFFFF AND PUSH20 0xFFFFFFFFFFFFFFFFFFFFFFFFFFFFFFFFFFFFFFFF AND PUSH3 0x41C629 DUP10 DUP6 DUP2 MLOAD DUP2 LT PUSH2 0x9271 JUMPI PUSH2 0x9270 PUSH2 0xCA58 JUMP JUMPDEST JUMPDEST PUSH1 0x20 MUL PUSH1 0x20 ADD ADD MLOAD PUSH0 ADD MLOAD DUP11 DUP7 DUP2 MLOAD DUP2 LT PUSH2 0x928F JUMPI PUSH2 0x928E PUSH2 0xCA58 JUMP JUMPDEST JUMPDEST PUSH1 0x20 MUL PUSH1 0x20 ADD ADD MLOAD PUSH1 0x40 ADD MLOAD PUSH1 0x40 MLOAD DUP4 PUSH4 0xFFFFFFFF AND PUSH1 0xE0 SHL DUP2 MSTORE PUSH1 0x4 ADD PUSH2 0x92B8 SWAP3 SWAP2 SWAP1 PUSH2 0xD57D JUMP JUMPDEST PUSH1 0xC0 PUSH1 0x40 MLOAD DUP1 DUP4 SUB DUP2 DUP7 GAS STATICCALL ISZERO DUP1 ISZERO PUSH2 0x92D3 JUMPI RETURNDATASIZE PUSH0 DUP1 RETURNDATACOPY RETURNDATASIZE PUSH0 REVERT JUMPDEST POP POP POP POP PUSH1 0x40 MLOAD RETURNDATASIZE PUSH1 0x1F NOT PUSH1 0x1F DUP3 ADD AND DUP3 ADD DUP1 PUSH1 0x40 MSTORE POP DUP2 ADD SWAP1 PUSH2 0x92F7 SWAP2 SWAP1 PUSH2 0xD68E JUMP JUMPDEST SWAP1 POP PUSH0 DUP1 DUP7 ISZERO PUSH2 0x9311 JUMPI DUP3 PUSH1 0x20 ADD MLOAD PUSH1 0x20 ADD MLOAD SWAP1 POP PUSH2 0x9367 JUMP JUMPDEST DUP3 PUSH1 0x20 ADD MLOAD PUSH1 0x40 ADD MLOAD SWAP1 POP DUP3 PUSH1 0x20 ADD MLOAD PUSH1 0x20 ADD MLOAD DUP2 LT PUSH2 0x9366 JUMPI PUSH1 0x40 MLOAD PUSH32 0x8C379A000000000000000000000000000000000000000000000000000000000 DUP2 MSTORE PUSH1 0x4 ADD PUSH2 0x935D SWAP1 PUSH2 0xE791 JUMP JUMPDEST PUSH1 0x40 MLOAD DUP1 SWAP2 SUB SWAP1 REVERT JUMPDEST JUMPDEST DUP10 DUP6 DUP2 MLOAD DUP2 LT PUSH2 0x937A JUMPI PUSH2 0x9379 PUSH2 0xCA58 JUMP JUMPDEST JUMPDEST PUSH1 0x20 MUL PUSH1 0x20 ADD ADD MLOAD PUSH1 0x20 ADD MLOAD DUP2 PUSH2 0x9391 SWAP2 SWAP1 PUSH2 0xE7AF JUMP JUMPDEST DUP9 PUSH1 0xE0 ADD DUP2 DUP2 MLOAD PUSH2 0x93A2 SWAP2 SWAP1 PUSH2 0xE025 JUMP JUMPDEST SWAP2 POP DUP2 DUP2 MSTORE POP POP DUP3 PUSH1 0x20 ADD MLOAD PUSH1 0x80 ADD MLOAD DUP11 DUP7 DUP2 MLOAD DUP2 LT PUSH2 0x93C5 JUMPI PUSH2 0x93C4 PUSH2 0xCA58 JUMP JUMPDEST JUMPDEST PUSH1 0x20 MUL PUSH1 0x20 ADD ADD MLOAD PUSH1 0x20 ADD MLOAD GT ISZERO PUSH2 0x93F6 PUSH1 0xD PUSH1 0x40 MLOAD DUP1 PUSH1 0x60 ADD PUSH1 0x40 MSTORE DUP1 PUSH1 0x2A DUP2 MSTORE PUSH1 0x20 ADD PUSH2 0xE849 PUSH1 0x2A SWAP2 CODECOPY PUSH2 0x12B1 JUMP JUMPDEST SWAP1 PUSH2 0x9437 JUMPI PUSH1 0x40 MLOAD PUSH32 0x8C379A000000000000000000000000000000000000000000000000000000000 DUP2 MSTORE PUSH1 0x4 ADD PUSH2 0x942E SWAP2 SWAP1 PUSH2 0xA739 JUMP JUMPDEST PUSH1 0x40 MLOAD DUP1 SWAP2 SUB SWAP1 REVERT JUMPDEST POP DUP10 DUP6 DUP2 MLOAD DUP2 LT PUSH2 0x944B JUMPI PUSH2 0x944A PUSH2 0xCA58 JUMP JUMPDEST JUMPDEST PUSH1 0x20 MUL PUSH1 0x20 ADD ADD MLOAD PUSH0 ADD MLOAD DUP9 PUSH0 ADD MLOAD DUP7 DUP2 MLOAD DUP2 LT PUSH2 0x946C JUMPI PUSH2 0x946B PUSH2 0xCA58 JUMP JUMPDEST JUMPDEST PUSH1 0x20 MUL PUSH1 0x20 ADD ADD DUP2 DUP2 MSTORE POP POP DUP10 DUP6 DUP2 MLOAD DUP2 LT PUSH2 0x948B JUMPI PUSH2 0x948A PUSH2 0xCA58 JUMP JUMPDEST JUMPDEST PUSH1 0x20 MUL PUSH1 0x20 ADD ADD MLOAD PUSH1 0x40 ADD MLOAD DUP9 PUSH1 0x20 ADD MLOAD DUP7 DUP2 MLOAD DUP2 LT PUSH2 0x94AE JUMPI PUSH2 0x94AD PUSH2 0xCA58 JUMP JUMPDEST JUMPDEST PUSH1 0x20 MUL PUSH1 0x20 ADD ADD DUP2 DUP2 MSTORE POP POP DUP10 DUP6 DUP2 MLOAD DUP2 LT PUSH2 0x94CD JUMPI PUSH2 0x94CC PUSH2 0xCA58 JUMP JUMPDEST JUMPDEST PUSH1 0x20 MUL PUSH1 0x20 ADD ADD MLOAD PUSH1 0x20 ADD MLOAD DUP9 PUSH1 0x40 ADD MLOAD DUP7 DUP2 MLOAD DUP2 LT PUSH2 0x94F0 JUMPI PUSH2 0x94EF PUSH2 0xCA58 JUMP JUMPDEST JUMPDEST PUSH1 0x20 MUL PUSH1 0x20 ADD ADD DUP2 DUP2 MSTORE POP POP DUP2 DUP9 PUSH1 0x60 ADD MLOAD DUP7 DUP2 MLOAD DUP2 LT PUSH2 0x9514 JUMPI PUSH2 0x9513 PUSH2 0xCA58 JUMP JUMPDEST JUMPDEST PUSH1 0x20 MUL PUSH1 0x20 ADD ADD DUP2 DUP2 MSTORE POP POP DUP1 DUP9 PUSH1 0x80 ADD MLOAD DUP7 DUP2 MLOAD DUP2 LT PUSH2 0x9538 JUMPI PUSH2 0x9537 PUSH2 0xCA58 JUMP JUMPDEST JUMPDEST PUSH1 0x20 MUL PUSH1 0x20 ADD ADD DUP2 DUP2 MSTORE POP POP DUP3 PUSH1 0x20 ADD MLOAD PUSH1 0x60 ADD MLOAD DUP9 PUSH1 0xA0 ADD MLOAD DUP7 DUP2 MLOAD DUP2 LT PUSH2 0x9564 JUMPI PUSH2 0x9563 PUSH2 0xCA58 JUMP JUMPDEST JUMPDEST PUSH1 0x20 MUL PUSH1 0x20 ADD ADD DUP2 DUP2 MSTORE POP POP DUP10 DUP6 DUP2 MLOAD DUP2 LT PUSH2 0x9583 JUMPI PUSH2 0x9582 PUSH2 0xCA58 JUMP JUMPDEST JUMPDEST PUSH1 0x20 MUL PUSH1 0x20 ADD ADD MLOAD PUSH1 0x60 ADD MLOAD DUP9 PUSH1 0xC0 ADD MLOAD DUP7 DUP2 MLOAD DUP2 LT PUSH2 0x95A6 JUMPI PUSH2 0x95A5 PUSH2 0xCA58 JUMP JUMPDEST JUMPDEST PUSH1 0x20 MUL PUSH1 0x20 ADD ADD DUP2 DUP2 MSTORE POP POP POP POP POP POP DUP1 DUP1 PUSH1 0x1 ADD SWAP2 POP POP PUSH2 0x8FCA JUMP JUMPDEST POP POP POP SWAP3 SWAP2 POP POP JUMP JUMPDEST PUSH2 0x95D6 DUP3 DUP3 PUSH2 0x841F JUMP JUMPDEST POP POP JUMP JUMPDEST PUSH0 DUP1 PUSH0 SWAP1 POP PUSH27 0x184F03E93FF9F4DAA797ED6E38ED64BF6A1F010000000000000000 DUP4 LT PUSH2 0x9636 JUMPI PUSH27 0x184F03E93FF9F4DAA797ED6E38ED64BF6A1F010000000000000000 DUP4 DUP2 PUSH2 0x962C JUMPI PUSH2 0x962B PUSH2 0xE390 JUMP JUMPDEST JUMPDEST DIV SWAP3 POP PUSH1 0x40 DUP2 ADD SWAP1 POP JUMPDEST PUSH14 0x4EE2D6D415B85ACEF8100000000 DUP4 LT PUSH2 0x9673 JUMPI PUSH14 0x4EE2D6D415B85ACEF8100000000 DUP4 DUP2 PUSH2 0x9669 JUMPI PUSH2 0x9668 PUSH2 0xE390 JUMP JUMPDEST JUMPDEST DIV SWAP3 POP PUSH1 0x20 DUP2 ADD SWAP1 POP JUMPDEST PUSH7 0x2386F26FC10000 DUP4 LT PUSH2 0x96A2 JUMPI PUSH7 0x2386F26FC10000 DUP4 DUP2 PUSH2 0x9698 JUMPI PUSH2 0x9697 PUSH2 0xE390 JUMP JUMPDEST JUMPDEST DIV SWAP3 POP PUSH1 0x10 DUP2 ADD SWAP1 POP JUMPDEST PUSH4 0x5F5E100 DUP4 LT PUSH2 0x96CB JUMPI PUSH4 0x5F5E100 DUP4 DUP2 PUSH2 0x96C1 JUMPI PUSH2 0x96C0 PUSH2 0xE390 JUMP JUMPDEST JUMPDEST DIV SWAP3 POP PUSH1 0x8 DUP2 ADD SWAP1 POP JUMPDEST PUSH2 0x2710 DUP4 LT PUSH2 0x96F0 JUMPI PUSH2 0x2710 DUP4 DUP2 PUSH2 0x96E6 JUMPI PUSH2 0x96E5 PUSH2 0xE390 JUMP JUMPDEST JUMPDEST DIV SWAP3 POP PUSH1 0x4 DUP2 ADD SWAP1 POP JUMPDEST PUSH1 0x64 DUP4 LT PUSH2 0x9713 JUMPI PUSH1 0x64 DUP4 DUP2 PUSH2 0x9709 JUMPI PUSH2 0x9708 PUSH2 0xE390 JUMP JUMPDEST JUMPDEST DIV SWAP3 POP PUSH1 0x2 DUP2 ADD SWAP1 POP JUMPDEST PUSH1 0xA DUP4 LT PUSH2 0x9722 JUMPI PUSH1 0x1 DUP2 ADD SWAP1 POP JUMPDEST DUP1 SWAP2 POP POP SWAP2 SWAP1 POP JUMP JUMPDEST POP DUP1 SLOAD PUSH0 DUP3 SSTORE PUSH1 0x5 MUL SWAP1 PUSH0 MSTORE PUSH1 0x20 PUSH0 KECCAK256 SWAP1 DUP2 ADD SWAP1 PUSH2 0x9749 SWAP2 SWAP1 PUSH2 0x9A13 JUMP JUMPDEST POP JUMP JUMPDEST DUP3 DUP1 SLOAD DUP3 DUP3 SSTORE SWAP1 PUSH0 MSTORE PUSH1 0x20 PUSH0 KECCAK256 SWAP1 DUP2 ADD SWAP3 DUP3 ISZERO PUSH2 0x9786 JUMPI SWAP2 PUSH1 0x20 MUL DUP3 ADD JUMPDEST DUP3 DUP2 GT ISZERO PUSH2 0x9785 JUMPI DUP3 MLOAD DUP3 SSTORE SWAP2 PUSH1 0x20 ADD SWAP2 SWAP1 PUSH1 0x1 ADD SWAP1 PUSH2 0x976A JUMP JUMPDEST JUMPDEST POP SWAP1 POP PUSH2 0x9793 SWAP2 SWAP1 PUSH2 0x9A6C JUMP JUMPDEST POP SWAP1 JUMP JUMPDEST DUP3 DUP1 SLOAD DUP3 DUP3 SSTORE SWAP1 PUSH0 MSTORE PUSH1 0x20 PUSH0 KECCAK256 SWAP1 DUP2 ADD SWAP3 DUP3 ISZERO PUSH2 0x97D1 JUMPI SWAP2 PUSH1 0x20 MUL DUP3 ADD JUMPDEST DUP3 DUP2 GT ISZERO PUSH2 0x97D0 JUMPI DUP3 MLOAD DUP3 SSTORE SWAP2 PUSH1 0x20 ADD SWAP2 SWAP1 PUSH1 0x1 ADD SWAP1 PUSH2 0x97B5 JUMP JUMPDEST JUMPDEST POP SWAP1 POP PUSH2 0x97DE SWAP2 SWAP1 PUSH2 0x9A87 JUMP JUMPDEST POP SWAP1 JUMP JUMPDEST PUSH1 0x40 MLOAD DUP1 PUSH1 0x60 ADD PUSH1 0x40 MSTORE DUP1 PUSH0 DUP2 MSTORE PUSH1 0x20 ADD PUSH0 PUSH20 0xFFFFFFFFFFFFFFFFFFFFFFFFFFFFFFFFFFFFFFFF AND DUP2 MSTORE PUSH1 0x20 ADD PUSH1 0x60 DUP2 MSTORE POP SWAP1 JUMP JUMPDEST PUSH1 0x40 MLOAD DUP1 PUSH2 0x260 ADD PUSH1 0x40 MSTORE DUP1 PUSH0 DUP2 MSTORE PUSH1 0x20 ADD PUSH0 PUSH20 0xFFFFFFFFFFFFFFFFFFFFFFFFFFFFFFFFFFFFFFFF AND DUP2 MSTORE PUSH1 0x20 ADD PUSH0 PUSH20 0xFFFFFFFFFFFFFFFFFFFFFFFFFFFFFFFFFFFFFFFF AND DUP2 MSTORE PUSH1 0x20 ADD PUSH0 DUP2 MSTORE PUSH1 0x20 ADD PUSH1 0x60 DUP2 MSTORE PUSH1 0x20 ADD PUSH1 0x60 DUP2 MSTORE PUSH1 0x20 ADD PUSH1 0x60 DUP2 MSTORE PUSH1 0x20 ADD PUSH1 0x60 DUP2 MSTORE PUSH1 0x20 ADD PUSH1 0x60 DUP2 MSTORE PUSH1 0x20 ADD PUSH1 0x60 DUP2 MSTORE PUSH1 0x20 ADD PUSH1 0x60 DUP2 MSTORE PUSH1 0x20 ADD PUSH0 DUP2 MSTORE PUSH1 0x20 ADD PUSH0 PUSH1 0xFF AND DUP2 MSTORE PUSH1 0x20 ADD PUSH0 PUSH1 0xFF AND DUP2 MSTORE PUSH1 0x20 ADD PUSH0 DUP1 NOT AND DUP2 MSTORE PUSH1 0x20 ADD PUSH0 DUP2 MSTORE PUSH1 0x20 ADD PUSH0 DUP2 MSTORE PUSH1 0x20 ADD PUSH0 PUSH1 0xFF AND DUP2 MSTORE PUSH1 0x20 ADD PUSH0 DUP2 MSTORE POP SWAP1 JUMP JUMPDEST PUSH1 0x40 MLOAD DUP1 PUSH1 0xA0 ADD PUSH1 0x40 MSTORE DUP1 PUSH0 DUP2 MSTORE PUSH1 0x20 ADD PUSH0 DUP2 MSTORE PUSH1 0x20 ADD PUSH0 DUP2 MSTORE PUSH1 0x20 ADD PUSH0 DUP1 NOT AND DUP2 MSTORE PUSH1 0x20 ADD PUSH0 DUP2 MSTORE POP SWAP1 JUMP JUMPDEST PUSH1 0x40 MLOAD DUP1 PUSH1 0xA0 ADD PUSH1 0x40 MSTORE DUP1 PUSH0 DUP2 MSTORE PUSH1 0x20 ADD PUSH1 0x60 DUP2 MSTORE PUSH1 0x20 ADD PUSH0 PUSH20 0xFFFFFFFFFFFFFFFFFFFFFFFFFFFFFFFFFFFFFFFF AND DUP2 MSTORE PUSH1 0x20 ADD PUSH0 ISZERO ISZERO DUP2 MSTORE PUSH1 0x20 ADD PUSH0 DUP2 MSTORE POP SWAP1 JUMP JUMPDEST PUSH1 0x40 MLOAD DUP1 PUSH1 0x80 ADD PUSH1 0x40 MSTORE DUP1 PUSH0 DUP2 MSTORE PUSH1 0x20 ADD PUSH0 DUP2 MSTORE PUSH1 0x20 ADD PUSH0 PUSH20 0xFFFFFFFFFFFFFFFFFFFFFFFFFFFFFFFFFFFFFFFF AND DUP2 MSTORE PUSH1 0x20 ADD PUSH2 0x9980 PUSH2 0x9AA2 JUMP JUMPDEST DUP2 MSTORE POP SWAP1 JUMP JUMPDEST PUSH1 0x40 MLOAD DUP1 PUSH1 0x80 ADD PUSH1 0x40 MSTORE DUP1 PUSH1 0x60 DUP2 MSTORE PUSH1 0x20 ADD PUSH2 0x99A0 PUSH2 0x9AA2 JUMP JUMPDEST DUP2 MSTORE PUSH1 0x20 ADD PUSH0 PUSH20 0xFFFFFFFFFFFFFFFFFFFFFFFFFFFFFFFFFFFFFFFF AND DUP2 MSTORE PUSH1 0x20 ADD PUSH2 0x99C9 PUSH2 0x9AEE JUMP JUMPDEST DUP2 MSTORE POP SWAP1 JUMP JUMPDEST PUSH1 0x40 MLOAD DUP1 PUSH2 0x100 ADD PUSH1 0x40 MSTORE DUP1 PUSH1 0x60 DUP2 MSTORE PUSH1 0x20 ADD PUSH1 0x60 DUP2 MSTORE PUSH1 0x20 ADD PUSH1 0x60 DUP2 MSTORE PUSH1 0x20 ADD PUSH1 0x60 DUP2 MSTORE PUSH1 0x20 ADD PUSH1 0x60 DUP2 MSTORE PUSH1 0x20 ADD PUSH1 0x60 DUP2 MSTORE PUSH1 0x20 ADD PUSH1 0x60 DUP2 MSTORE PUSH1 0x20 ADD PUSH0 DUP2 MSTORE POP SWAP1 JUMP JUMPDEST JUMPDEST DUP1 DUP3 GT ISZERO PUSH2 0x9A68 JUMPI PUSH0 DUP1 DUP3 ADD PUSH0 PUSH2 0x9A2B SWAP2 SWAP1 PUSH2 0x9B39 JUMP JUMPDEST PUSH1 0x1 DUP3 ADD PUSH0 PUSH2 0x9A3A SWAP2 SWAP1 PUSH2 0x9B39 JUMP JUMPDEST PUSH1 0x2 DUP3 ADD PUSH0 PUSH2 0x9A49 SWAP2 SWAP1 PUSH2 0x9B57 JUMP JUMPDEST PUSH1 0x3 DUP3 ADD PUSH0 PUSH2 0x9A58 SWAP2 SWAP1 PUSH2 0x9B39 JUMP JUMPDEST PUSH1 0x4 DUP3 ADD PUSH0 SWAP1 SSTORE POP PUSH1 0x5 ADD PUSH2 0x9A14 JUMP JUMPDEST POP SWAP1 JUMP JUMPDEST JUMPDEST DUP1 DUP3 GT ISZERO PUSH2 0x9A83 JUMPI PUSH0 DUP2 PUSH0 SWAP1 SSTORE POP PUSH1 0x1 ADD PUSH2 0x9A6D JUMP JUMPDEST POP SWAP1 JUMP JUMPDEST JUMPDEST DUP1 DUP3 GT ISZERO PUSH2 0x9A9E JUMPI PUSH0 DUP2 PUSH0 SWAP1 SSTORE POP PUSH1 0x1 ADD PUSH2 0x9A88 JUMP JUMPDEST POP SWAP1 JUMP JUMPDEST PUSH1 0x40 MLOAD DUP1 PUSH2 0x120 ADD PUSH1 0x40 MSTORE DUP1 PUSH1 0x60 DUP2 MSTORE PUSH1 0x20 ADD PUSH1 0x60 DUP2 MSTORE PUSH1 0x20 ADD PUSH1 0x60 DUP2 MSTORE PUSH1 0x20 ADD PUSH1 0x60 DUP2 MSTORE PUSH1 0x20 ADD PUSH1 0x60 DUP2 MSTORE PUSH1 0x20 ADD PUSH1 0x60 DUP2 MSTORE PUSH1 0x20 ADD PUSH1 0x60 DUP2 MSTORE PUSH1 0x20 ADD PUSH1 0x60 DUP2 MSTORE PUSH1 0x20 ADD PUSH1 0x60 DUP2 MSTORE POP SWAP1 JUMP JUMPDEST PUSH1 0x40 MLOAD DUP1 PUSH1 0x80 ADD PUSH1 0x40 MSTORE DUP1 PUSH0 DUP2 MSTORE PUSH1 0x20 ADD PUSH0 DUP1 NOT AND DUP2 MSTORE PUSH1 0x20 ADD PUSH0 PUSH1 0x1 DUP2 GT ISZERO PUSH2 0x9B1B JUMPI PUSH2 0x9B1A PUSH2 0xBD9C JUMP JUMPDEST JUMPDEST DUP2 MSTORE PUSH1 0x20 ADD PUSH0 PUSH1 0x1 DUP2 GT ISZERO PUSH2 0x9B33 JUMPI PUSH2 0x9B32 PUSH2 0xBD9C JUMP JUMPDEST JUMPDEST DUP2 MSTORE POP SWAP1 JUMP JUMPDEST POP DUP1 SLOAD PUSH0 DUP3 SSTORE SWAP1 PUSH0 MSTORE PUSH1 0x20 PUSH0 KECCAK256 SWAP1 DUP2 ADD SWAP1 PUSH2 0x9B54 SWAP2 SWAP1 PUSH2 0x9A6C JUMP JUMPDEST POP JUMP JUMPDEST POP DUP1 SLOAD PUSH0 DUP3 SSTORE SWAP1 PUSH0 MSTORE PUSH1 0x20 PUSH0 KECCAK256 SWAP1 DUP2 ADD SWAP1 PUSH2 0x9B72 SWAP2 SWAP1 PUSH2 0x9A87 JUMP JUMPDEST POP JUMP JUMPDEST PUSH0 PUSH1 0x40 MLOAD SWAP1 POP SWAP1 JUMP JUMPDEST PUSH0 DUP1 REVERT JUMPDEST PUSH0 DUP1 REVERT JUMPDEST PUSH0 DUP2 SWAP1 POP SWAP2 SWAP1 POP JUMP JUMPDEST PUSH2 0x9B98 DUP2 PUSH2 0x9B86 JUMP JUMPDEST DUP2 EQ PUSH2 0x9BA2 JUMPI PUSH0 DUP1 REVERT JUMPDEST POP JUMP JUMPDEST PUSH0 DUP2 CALLDATALOAD SWAP1 POP PUSH2 0x9BB3 DUP2 PUSH2 0x9B8F JUMP JUMPDEST SWAP3 SWAP2 POP POP JUMP JUMPDEST PUSH0 PUSH1 0x20 DUP3 DUP5 SUB SLT ISZERO PUSH2 0x9BCE JUMPI PUSH2 0x9BCD PUSH2 0x9B7E JUMP JUMPDEST JUMPDEST PUSH0 PUSH2 0x9BDB DUP5 DUP3 DUP6 ADD PUSH2 0x9BA5 JUMP JUMPDEST SWAP2 POP POP SWAP3 SWAP2 POP POP JUMP JUMPDEST PUSH2 0x9BED DUP2 PUSH2 0x9B86 JUMP JUMPDEST DUP3 MSTORE POP POP JUMP JUMPDEST PUSH0 PUSH20 0xFFFFFFFFFFFFFFFFFFFFFFFFFFFFFFFFFFFFFFFF DUP3 AND SWAP1 POP SWAP2 SWAP1 POP JUMP JUMPDEST PUSH0 PUSH2 0x9C1C DUP3 PUSH2 0x9BF3 JUMP JUMPDEST SWAP1 POP SWAP2 SWAP1 POP JUMP JUMPDEST PUSH2 0x9C2C DUP2 PUSH2 0x9C12 JUMP JUMPDEST DUP3 MSTORE POP POP JUMP JUMPDEST PUSH0 DUP2 ISZERO ISZERO SWAP1 POP SWAP2 SWAP1 POP JUMP JUMPDEST PUSH2 0x9C46 DUP2 PUSH2 0x9C32 JUMP JUMPDEST DUP3 MSTORE POP POP JUMP JUMPDEST PUSH0 PUSH1 0x80 DUP3 ADD SWAP1 POP PUSH2 0x9C5F PUSH0 DUP4 ADD DUP8 PUSH2 0x9BE4 JUMP JUMPDEST PUSH2 0x9C6C PUSH1 0x20 DUP4 ADD DUP7 PUSH2 0x9C23 JUMP JUMPDEST PUSH2 0x9C79 PUSH1 0x40 DUP4 ADD DUP6 PUSH2 0x9C3D JUMP JUMPDEST PUSH2 0x9C86 PUSH1 0x60 DUP4 ADD DUP5 PUSH2 0x9BE4 JUMP JUMPDEST SWAP6 SWAP5 POP POP POP POP POP JUMP JUMPDEST PUSH2 0x9C98 DUP2 PUSH2 0x9C12 JUMP JUMPDEST DUP2 EQ PUSH2 0x9CA2 JUMPI PUSH0 DUP1 REVERT JUMPDEST POP JUMP JUMPDEST PUSH0 DUP2 CALLDATALOAD SWAP1 POP PUSH2 0x9CB3 DUP2 PUSH2 0x9C8F JUMP JUMPDEST SWAP3 SWAP2 POP POP JUMP JUMPDEST PUSH0 DUP1 PUSH1 0x40 DUP4 DUP6 SUB SLT ISZERO PUSH2 0x9CCF JUMPI PUSH2 0x9CCE PUSH2 0x9B7E JUMP JUMPDEST JUMPDEST PUSH0 PUSH2 0x9CDC DUP6 DUP3 DUP7 ADD PUSH2 0x9CA5 JUMP JUMPDEST SWAP3 POP POP PUSH1 0x20 PUSH2 0x9CED DUP6 DUP3 DUP7 ADD PUSH2 0x9BA5 JUMP JUMPDEST SWAP2 POP POP SWAP3 POP SWAP3 SWAP1 POP JUMP JUMPDEST PUSH0 PUSH1 0x20 DUP3 ADD SWAP1 POP PUSH2 0x9D0A PUSH0 DUP4 ADD DUP5 PUSH2 0x9BE4 JUMP JUMPDEST SWAP3 SWAP2 POP POP JUMP JUMPDEST PUSH0 DUP1 REVERT JUMPDEST PUSH0 PUSH1 0x1F NOT PUSH1 0x1F DUP4 ADD AND SWAP1 POP SWAP2 SWAP1 POP JUMP JUMPDEST PUSH32 0x4E487B7100000000000000000000000000000000000000000000000000000000 PUSH0 MSTORE PUSH1 0x41 PUSH1 0x4 MSTORE PUSH1 0x24 PUSH0 REVERT JUMPDEST PUSH2 0x9D5A DUP3 PUSH2 0x9D14 JUMP JUMPDEST DUP2 ADD DUP2 DUP2 LT PUSH8 0xFFFFFFFFFFFFFFFF DUP3 GT OR ISZERO PUSH2 0x9D79 JUMPI PUSH2 0x9D78 PUSH2 0x9D24 JUMP JUMPDEST JUMPDEST DUP1 PUSH1 0x40 MSTORE POP POP POP JUMP JUMPDEST PUSH0 PUSH2 0x9D8B PUSH2 0x9B75 JUMP JUMPDEST SWAP1 POP PUSH2 0x9D97 DUP3 DUP3 PUSH2 0x9D51 JUMP JUMPDEST SWAP2 SWAP1 POP JUMP JUMPDEST PUSH0 DUP1 REVERT JUMPDEST PUSH0 DUP1 REVERT JUMPDEST PUSH0 DUP1 REVERT JUMPDEST PUSH0 PUSH8 0xFFFFFFFFFFFFFFFF DUP3 GT ISZERO PUSH2 0x9DC2 JUMPI PUSH2 0x9DC1 PUSH2 0x9D24 JUMP JUMPDEST JUMPDEST PUSH2 0x9DCB DUP3 PUSH2 0x9D14 JUMP JUMPDEST SWAP1 POP PUSH1 0x20 DUP2 ADD SWAP1 POP SWAP2 SWAP1 POP JUMP JUMPDEST DUP3 DUP2 DUP4 CALLDATACOPY PUSH0 DUP4 DUP4 ADD MSTORE POP POP POP JUMP JUMPDEST PUSH0 PUSH2 0x9DF8 PUSH2 0x9DF3 DUP5 PUSH2 0x9DA8 JUMP JUMPDEST PUSH2 0x9D82 JUMP JUMPDEST SWAP1 POP DUP3 DUP2 MSTORE PUSH1 0x20 DUP2 ADD DUP5 DUP5 DUP5 ADD GT ISZERO PUSH2 0x9E14 JUMPI PUSH2 0x9E13 PUSH2 0x9DA4 JUMP JUMPDEST JUMPDEST PUSH2 0x9E1F DUP5 DUP3 DUP6 PUSH2 0x9DD8 JUMP JUMPDEST POP SWAP4 SWAP3 POP POP POP JUMP JUMPDEST PUSH0 DUP3 PUSH1 0x1F DUP4 ADD SLT PUSH2 0x9E3B JUMPI PUSH2 0x9E3A PUSH2 0x9DA0 JUMP JUMPDEST JUMPDEST DUP2 CALLDATALOAD PUSH2 0x9E4B DUP5 DUP3 PUSH1 0x20 DUP7 ADD PUSH2 0x9DE6 JUMP JUMPDEST SWAP2 POP POP SWAP3 SWAP2 POP POP JUMP JUMPDEST PUSH0 PUSH2 0x120 DUP3 DUP5 SUB SLT ISZERO PUSH2 0x9E6A JUMPI PUSH2 0x9E69 PUSH2 0x9D10 JUMP JUMPDEST JUMPDEST PUSH2 0x9E75 PUSH2 0x120 PUSH2 0x9D82 JUMP JUMPDEST SWAP1 POP PUSH0 DUP3 ADD CALLDATALOAD PUSH8 0xFFFFFFFFFFFFFFFF DUP2 GT ISZERO PUSH2 0x9E94 JUMPI PUSH2 0x9E93 PUSH2 0x9D9C JUMP JUMPDEST JUMPDEST PUSH2 0x9EA0 DUP5 DUP3 DUP6 ADD PUSH2 0x9E27 JUMP JUMPDEST PUSH0 DUP4 ADD MSTORE POP PUSH1 0x20 DUP3 ADD CALLDATALOAD PUSH8 0xFFFFFFFFFFFFFFFF DUP2 GT ISZERO PUSH2 0x9EC3 JUMPI PUSH2 0x9EC2 PUSH2 0x9D9C JUMP JUMPDEST JUMPDEST PUSH2 0x9ECF DUP5 DUP3 DUP6 ADD PUSH2 0x9E27 JUMP JUMPDEST PUSH1 0x20 DUP4 ADD MSTORE POP PUSH1 0x40 DUP3 ADD CALLDATALOAD PUSH8 0xFFFFFFFFFFFFFFFF DUP2 GT ISZERO PUSH2 0x9EF3 JUMPI PUSH2 0x9EF2 PUSH2 0x9D9C JUMP JUMPDEST JUMPDEST PUSH2 0x9EFF DUP5 DUP3 DUP6 ADD PUSH2 0x9E27 JUMP JUMPDEST PUSH1 0x40 DUP4 ADD MSTORE POP PUSH1 0x60 DUP3 ADD CALLDATALOAD PUSH8 0xFFFFFFFFFFFFFFFF DUP2 GT ISZERO PUSH2 0x9F23 JUMPI PUSH2 0x9F22 PUSH2 0x9D9C JUMP JUMPDEST JUMPDEST PUSH2 0x9F2F DUP5 DUP3 DUP6 ADD PUSH2 0x9E27 JUMP JUMPDEST PUSH1 0x60 DUP4 ADD MSTORE POP PUSH1 0x80 DUP3 ADD CALLDATALOAD PUSH8 0xFFFFFFFFFFFFFFFF DUP2 GT ISZERO PUSH2 0x9F53 JUMPI PUSH2 0x9F52 PUSH2 0x9D9C JUMP JUMPDEST JUMPDEST PUSH2 0x9F5F DUP5 DUP3 DUP6 ADD PUSH2 0x9E27 JUMP JUMPDEST PUSH1 0x80 DUP4 ADD MSTORE POP PUSH1 0xA0 DUP3 ADD CALLDATALOAD PUSH8 0xFFFFFFFFFFFFFFFF DUP2 GT ISZERO PUSH2 0x9F83 JUMPI PUSH2 0x9F82 PUSH2 0x9D9C JUMP JUMPDEST JUMPDEST PUSH2 0x9F8F DUP5 DUP3 DUP6 ADD PUSH2 0x9E27 JUMP JUMPDEST PUSH1 0xA0 DUP4 ADD MSTORE POP PUSH1 0xC0 DUP3 ADD CALLDATALOAD PUSH8 0xFFFFFFFFFFFFFFFF DUP2 GT ISZERO PUSH2 0x9FB3 JUMPI PUSH2 0x9FB2 PUSH2 0x9D9C JUMP JUMPDEST JUMPDEST PUSH2 0x9FBF DUP5 DUP3 DUP6 ADD PUSH2 0x9E27 JUMP JUMPDEST PUSH1 0xC0 DUP4 ADD MSTORE POP PUSH1 0xE0 DUP3 ADD CALLDATALOAD PUSH8 0xFFFFFFFFFFFFFFFF DUP2 GT ISZERO PUSH2 0x9FE3 JUMPI PUSH2 0x9FE2 PUSH2 0x9D9C JUMP JUMPDEST JUMPDEST PUSH2 0x9FEF DUP5 DUP3 DUP6 ADD PUSH2 0x9E27 JUMP JUMPDEST PUSH1 0xE0 DUP4 ADD MSTORE POP PUSH2 0x100 DUP3 ADD CALLDATALOAD PUSH8 0xFFFFFFFFFFFFFFFF DUP2 GT ISZERO PUSH2 0xA014 JUMPI PUSH2 0xA013 PUSH2 0x9D9C JUMP JUMPDEST JUMPDEST PUSH2 0xA020 DUP5 DUP3 DUP6 ADD PUSH2 0x9E27 JUMP JUMPDEST PUSH2 0x100 DUP4 ADD MSTORE POP SWAP3 SWAP2 POP POP JUMP JUMPDEST PUSH0 DUP1 PUSH0 PUSH1 0x60 DUP5 DUP7 SUB SLT ISZERO PUSH2 0xA044 JUMPI PUSH2 0xA043 PUSH2 0x9B7E JUMP JUMPDEST JUMPDEST PUSH0 DUP5 ADD CALLDATALOAD PUSH8 0xFFFFFFFFFFFFFFFF DUP2 GT ISZERO PUSH2 0xA061 JUMPI PUSH2 0xA060 PUSH2 0x9B82 JUMP JUMPDEST JUMPDEST PUSH2 0xA06D DUP7 DUP3 DUP8 ADD PUSH2 0x9E54 JUMP JUMPDEST SWAP4 POP POP PUSH1 0x20 PUSH2 0xA07E DUP7 DUP3 DUP8 ADD PUSH2 0x9BA5 JUMP JUMPDEST SWAP3 POP POP PUSH1 0x40 PUSH2 0xA08F DUP7 DUP3 DUP8 ADD PUSH2 0x9CA5 JUMP JUMPDEST SWAP2 POP POP SWAP3 POP SWAP3 POP SWAP3 JUMP JUMPDEST PUSH0 PUSH8 0xFFFFFFFFFFFFFFFF DUP3 GT ISZERO PUSH2 0xA0B3 JUMPI PUSH2 0xA0B2 PUSH2 0x9D24 JUMP JUMPDEST JUMPDEST PUSH1 0x20 DUP3 MUL SWAP1 POP PUSH1 0x20 DUP2 ADD SWAP1 POP SWAP2 SWAP1 POP JUMP JUMPDEST PUSH0 DUP1 REVERT JUMPDEST PUSH0 PUSH8 0xFFFFFFFFFFFFFFFF DUP3 GT ISZERO PUSH2 0xA0E2 JUMPI PUSH2 0xA0E1 PUSH2 0x9D24 JUMP JUMPDEST JUMPDEST PUSH1 0x20 DUP3 MUL SWAP1 POP PUSH1 0x20 DUP2 ADD SWAP1 POP SWAP2 SWAP1 POP JUMP JUMPDEST PUSH0 PUSH2 0xA105 PUSH2 0xA100 DUP5 PUSH2 0xA0C8 JUMP JUMPDEST PUSH2 0x9D82 JUMP JUMPDEST SWAP1 POP DUP1 DUP4 DUP3 MSTORE PUSH1 0x20 DUP3 ADD SWAP1 POP PUSH1 0x20 DUP5 MUL DUP4 ADD DUP6 DUP2 GT ISZERO PUSH2 0xA128 JUMPI PUSH2 0xA127 PUSH2 0xA0C4 JUMP JUMPDEST JUMPDEST DUP4 JUMPDEST DUP2 DUP2 LT ISZERO PUSH2 0xA151 JUMPI DUP1 PUSH2 0xA13D DUP9 DUP3 PUSH2 0x9BA5 JUMP JUMPDEST DUP5 MSTORE PUSH1 0x20 DUP5 ADD SWAP4 POP POP PUSH1 0x20 DUP2 ADD SWAP1 POP PUSH2 0xA12A JUMP JUMPDEST POP POP POP SWAP4 SWAP3 POP POP POP JUMP JUMPDEST PUSH0 DUP3 PUSH1 0x1F DUP4 ADD SLT PUSH2 0xA16F JUMPI PUSH2 0xA16E PUSH2 0x9DA0 JUMP JUMPDEST JUMPDEST DUP2 CALLDATALOAD PUSH2 0xA17F DUP5 DUP3 PUSH1 0x20 DUP7 ADD PUSH2 0xA0F3 JUMP JUMPDEST SWAP2 POP POP SWAP3 SWAP2 POP POP JUMP JUMPDEST PUSH0 PUSH8 0xFFFFFFFFFFFFFFFF DUP3 GT ISZERO PUSH2 0xA1A2 JUMPI PUSH2 0xA1A1 PUSH2 0x9D24 JUMP JUMPDEST JUMPDEST PUSH1 0x20 DUP3 MUL SWAP1 POP PUSH1 0x20 DUP2 ADD SWAP1 POP SWAP2 SWAP1 POP JUMP JUMPDEST PUSH0 DUP2 SWAP1 POP SWAP2 SWAP1 POP JUMP JUMPDEST PUSH2 0xA1C5 DUP2 PUSH2 0xA1B3 JUMP JUMPDEST DUP2 EQ PUSH2 0xA1CF JUMPI PUSH0 DUP1 REVERT JUMPDEST POP JUMP JUMPDEST PUSH0 DUP2 CALLDATALOAD SWAP1 POP PUSH2 0xA1E0 DUP2 PUSH2 0xA1BC JUMP JUMPDEST SWAP3 SWAP2 POP POP JUMP JUMPDEST PUSH0 PUSH2 0xA1F8 PUSH2 0xA1F3 DUP5 PUSH2 0xA188 JUMP JUMPDEST PUSH2 0x9D82 JUMP JUMPDEST SWAP1 POP DUP1 DUP4 DUP3 MSTORE PUSH1 0x20 DUP3 ADD SWAP1 POP PUSH1 0x20 DUP5 MUL DUP4 ADD DUP6 DUP2 GT ISZERO PUSH2 0xA21B JUMPI PUSH2 0xA21A PUSH2 0xA0C4 JUMP JUMPDEST JUMPDEST DUP4 JUMPDEST DUP2 DUP2 LT ISZERO PUSH2 0xA244 JUMPI DUP1 PUSH2 0xA230 DUP9 DUP3 PUSH2 0xA1D2 JUMP JUMPDEST DUP5 MSTORE PUSH1 0x20 DUP5 ADD SWAP4 POP POP PUSH1 0x20 DUP2 ADD SWAP1 POP PUSH2 0xA21D JUMP JUMPDEST POP POP POP SWAP4 SWAP3 POP POP POP JUMP JUMPDEST PUSH0 DUP3 PUSH1 0x1F DUP4 ADD SLT PUSH2 0xA262 JUMPI PUSH2 0xA261 PUSH2 0x9DA0 JUMP JUMPDEST JUMPDEST DUP2 CALLDATALOAD PUSH2 0xA272 DUP5 DUP3 PUSH1 0x20 DUP7 ADD PUSH2 0xA1E6 JUMP JUMPDEST SWAP2 POP POP SWAP3 SWAP2 POP POP JUMP JUMPDEST PUSH0 PUSH1 0xA0 DUP3 DUP5 SUB SLT ISZERO PUSH2 0xA290 JUMPI PUSH2 0xA28F PUSH2 0x9D10 JUMP JUMPDEST JUMPDEST PUSH2 0xA29A PUSH1 0xA0 PUSH2 0x9D82 JUMP JUMPDEST SWAP1 POP PUSH0 DUP3 ADD CALLDATALOAD PUSH8 0xFFFFFFFFFFFFFFFF DUP2 GT ISZERO PUSH2 0xA2B9 JUMPI PUSH2 0xA2B8 PUSH2 0x9D9C JUMP JUMPDEST JUMPDEST PUSH2 0xA2C5 DUP5 DUP3 DUP6 ADD PUSH2 0xA15B JUMP JUMPDEST PUSH0 DUP4 ADD MSTORE POP PUSH1 0x20 DUP3 ADD CALLDATALOAD PUSH8 0xFFFFFFFFFFFFFFFF DUP2 GT ISZERO PUSH2 0xA2E8 JUMPI PUSH2 0xA2E7 PUSH2 0x9D9C JUMP JUMPDEST JUMPDEST PUSH2 0xA2F4 DUP5 DUP3 DUP6 ADD PUSH2 0xA15B JUMP JUMPDEST PUSH1 0x20 DUP4 ADD MSTORE POP PUSH1 0x40 DUP3 ADD CALLDATALOAD PUSH8 0xFFFFFFFFFFFFFFFF DUP2 GT ISZERO PUSH2 0xA318 JUMPI PUSH2 0xA317 PUSH2 0x9D9C JUMP JUMPDEST JUMPDEST PUSH2 0xA324 DUP5 DUP3 DUP6 ADD PUSH2 0xA24E JUMP JUMPDEST PUSH1 0x40 DUP4 ADD MSTORE POP PUSH1 0x60 DUP3 ADD CALLDATALOAD PUSH8 0xFFFFFFFFFFFFFFFF DUP2 GT ISZERO PUSH2 0xA348 JUMPI PUSH2 0xA347 PUSH2 0x9D9C JUMP JUMPDEST JUMPDEST PUSH2 0xA354 DUP5 DUP3 DUP6 ADD PUSH2 0xA15B JUMP JUMPDEST PUSH1 0x60 DUP4 ADD MSTORE POP PUSH1 0x80 PUSH2 0xA368 DUP5 DUP3 DUP6 ADD PUSH2 0x9BA5 JUMP JUMPDEST PUSH1 0x80 DUP4 ADD MSTORE POP SWAP3 SWAP2 POP POP JUMP JUMPDEST PUSH0 PUSH2 0xA386 PUSH2 0xA381 DUP5 PUSH2 0xA099 JUMP JUMPDEST PUSH2 0x9D82 JUMP JUMPDEST SWAP1 POP DUP1 DUP4 DUP3 MSTORE PUSH1 0x20 DUP3 ADD SWAP1 POP PUSH1 0x20 DUP5 MUL DUP4 ADD DUP6 DUP2 GT ISZERO PUSH2 0xA3A9 JUMPI PUSH2 0xA3A8 PUSH2 0xA0C4 JUMP JUMPDEST JUMPDEST DUP4 JUMPDEST DUP2 DUP2 LT ISZERO PUSH2 0xA3F0 JUMPI DUP1 CALLDATALOAD PUSH8 0xFFFFFFFFFFFFFFFF DUP2 GT ISZERO PUSH2 0xA3CE JUMPI PUSH2 0xA3CD PUSH2 0x9DA0 JUMP JUMPDEST JUMPDEST DUP1 DUP7 ADD PUSH2 0xA3DB DUP10 DUP3 PUSH2 0xA27B JUMP JUMPDEST DUP6 MSTORE PUSH1 0x20 DUP6 ADD SWAP5 POP POP POP PUSH1 0x20 DUP2 ADD SWAP1 POP PUSH2 0xA3AB JUMP JUMPDEST POP POP POP SWAP4 SWAP3 POP POP POP JUMP JUMPDEST PUSH0 DUP3 PUSH1 0x1F DUP4 ADD SLT PUSH2 0xA40E JUMPI PUSH2 0xA40D PUSH2 0x9DA0 JUMP JUMPDEST JUMPDEST DUP2 CALLDATALOAD PUSH2 0xA41E DUP5 DUP3 PUSH1 0x20 DUP7 ADD PUSH2 0xA374 JUMP JUMPDEST SWAP2 POP POP SWAP3 SWAP2 POP POP JUMP JUMPDEST PUSH0 DUP1 PUSH0 PUSH1 0x60 DUP5 DUP7 SUB SLT ISZERO PUSH2 0xA43E JUMPI PUSH2 0xA43D PUSH2 0x9B7E JUMP JUMPDEST JUMPDEST PUSH0 PUSH2 0xA44B DUP7 DUP3 DUP8 ADD PUSH2 0x9BA5 JUMP JUMPDEST SWAP4 POP POP PUSH1 0x20 DUP5 ADD CALLDATALOAD PUSH8 0xFFFFFFFFFFFFFFFF DUP2 GT ISZERO PUSH2 0xA46C JUMPI PUSH2 0xA46B PUSH2 0x9B82 JUMP JUMPDEST JUMPDEST PUSH2 0xA478 DUP7 DUP3 DUP8 ADD PUSH2 0xA3FA JUMP JUMPDEST SWAP3 POP POP PUSH1 0x40 PUSH2 0xA489 DUP7 DUP3 DUP8 ADD PUSH2 0x9BA5 JUMP JUMPDEST SWAP2 POP POP SWAP3 POP SWAP3 POP SWAP3 JUMP JUMPDEST PUSH0 PUSH1 0x20 DUP3 ADD SWAP1 POP PUSH2 0xA4A6 PUSH0 DUP4 ADD DUP5 PUSH2 0x9C3D JUMP JUMPDEST SWAP3 SWAP2 POP POP JUMP JUMPDEST PUSH0 PUSH1 0x20 DUP3 DUP5 SUB SLT ISZERO PUSH2 0xA4C1 JUMPI PUSH2 0xA4C0 PUSH2 0x9B7E JUMP JUMPDEST JUMPDEST PUSH0 PUSH2 0xA4CE DUP5 DUP3 DUP6 ADD PUSH2 0x9CA5 JUMP JUMPDEST SWAP2 POP POP SWAP3 SWAP2 POP POP JUMP JUMPDEST PUSH2 0xA4E0 DUP2 PUSH2 0x9B86 JUMP JUMPDEST DUP3 MSTORE POP POP JUMP JUMPDEST PUSH2 0xA4EF DUP2 PUSH2 0x9C12 JUMP JUMPDEST DUP3 MSTORE POP POP JUMP JUMPDEST PUSH0 DUP2 MLOAD SWAP1 POP SWAP2 SWAP1 POP JUMP JUMPDEST PUSH0 DUP3 DUP3 MSTORE PUSH1 0x20 DUP3 ADD SWAP1 POP SWAP3 SWAP2 POP POP JUMP JUMPDEST PUSH0 DUP2 SWAP1 POP PUSH1 0x20 DUP3 ADD SWAP1 POP SWAP2 SWAP1 POP JUMP JUMPDEST PUSH2 0xA527 DUP2 PUSH2 0xA1B3 JUMP JUMPDEST DUP3 MSTORE POP POP JUMP JUMPDEST PUSH1 0xA0 DUP3 ADD PUSH0 DUP3 ADD MLOAD PUSH2 0xA541 PUSH0 DUP6 ADD DUP3 PUSH2 0xA4D7 JUMP JUMPDEST POP PUSH1 0x20 DUP3 ADD MLOAD PUSH2 0xA554 PUSH1 0x20 DUP6 ADD DUP3 PUSH2 0xA4D7 JUMP JUMPDEST POP PUSH1 0x40 DUP3 ADD MLOAD PUSH2 0xA567 PUSH1 0x40 DUP6 ADD DUP3 PUSH2 0xA4D7 JUMP JUMPDEST POP PUSH1 0x60 DUP3 ADD MLOAD PUSH2 0xA57A PUSH1 0x60 DUP6 ADD DUP3 PUSH2 0xA51E JUMP JUMPDEST POP PUSH1 0x80 DUP3 ADD MLOAD PUSH2 0xA58D PUSH1 0x80 DUP6 ADD DUP3 PUSH2 0xA4D7 JUMP JUMPDEST POP POP POP POP JUMP JUMPDEST PUSH0 PUSH2 0xA59E DUP4 DUP4 PUSH2 0xA52D JUMP JUMPDEST PUSH1 0xA0 DUP4 ADD SWAP1 POP SWAP3 SWAP2 POP POP JUMP JUMPDEST PUSH0 PUSH1 0x20 DUP3 ADD SWAP1 POP SWAP2 SWAP1 POP JUMP JUMPDEST PUSH0 PUSH2 0xA5C0 DUP3 PUSH2 0xA4F5 JUMP JUMPDEST PUSH2 0xA5CA DUP2 DUP6 PUSH2 0xA4FF JUMP JUMPDEST SWAP4 POP PUSH2 0xA5D5 DUP4 PUSH2 0xA50F JUMP JUMPDEST DUP1 PUSH0 JUMPDEST DUP4 DUP2 LT ISZERO PUSH2 0xA605 JUMPI DUP2 MLOAD PUSH2 0xA5EC DUP9 DUP3 PUSH2 0xA593 JUMP JUMPDEST SWAP8 POP PUSH2 0xA5F7 DUP4 PUSH2 0xA5AA JUMP JUMPDEST SWAP3 POP POP PUSH1 0x1 DUP2 ADD SWAP1 POP PUSH2 0xA5D8 JUMP JUMPDEST POP DUP6 SWAP4 POP POP POP POP SWAP3 SWAP2 POP POP JUMP JUMPDEST PUSH0 PUSH1 0x60 DUP4 ADD PUSH0 DUP4 ADD MLOAD PUSH2 0xA627 PUSH0 DUP7 ADD DUP3 PUSH2 0xA4D7 JUMP JUMPDEST POP PUSH1 0x20 DUP4 ADD MLOAD PUSH2 0xA63A PUSH1 0x20 DUP7 ADD DUP3 PUSH2 0xA4E6 JUMP JUMPDEST POP PUSH1 0x40 DUP4 ADD MLOAD DUP5 DUP3 SUB PUSH1 0x40 DUP7 ADD MSTORE PUSH2 0xA652 DUP3 DUP3 PUSH2 0xA5B6 JUMP JUMPDEST SWAP2 POP POP DUP1 SWAP2 POP POP SWAP3 SWAP2 POP POP JUMP JUMPDEST PUSH0 PUSH1 0x20 DUP3 ADD SWAP1 POP DUP2 DUP2 SUB PUSH0 DUP4 ADD MSTORE PUSH2 0xA677 DUP2 DUP5 PUSH2 0xA612 JUMP JUMPDEST SWAP1 POP SWAP3 SWAP2 POP POP JUMP JUMPDEST PUSH0 DUP1 PUSH1 0x40 DUP4 DUP6 SUB SLT ISZERO PUSH2 0xA695 JUMPI PUSH2 0xA694 PUSH2 0x9B7E JUMP JUMPDEST JUMPDEST PUSH0 PUSH2 0xA6A2 DUP6 DUP3 DUP7 ADD PUSH2 0x9BA5 JUMP JUMPDEST SWAP3 POP POP PUSH1 0x20 DUP4 ADD CALLDATALOAD PUSH8 0xFFFFFFFFFFFFFFFF DUP2 GT ISZERO PUSH2 0xA6C3 JUMPI PUSH2 0xA6C2 PUSH2 0x9B82 JUMP JUMPDEST JUMPDEST PUSH2 0xA6CF DUP6 DUP3 DUP7 ADD PUSH2 0x9E27 JUMP JUMPDEST SWAP2 POP POP SWAP3 POP SWAP3 SWAP1 POP JUMP JUMPDEST PUSH0 DUP2 MLOAD SWAP1 POP SWAP2 SWAP1 POP JUMP JUMPDEST PUSH0 DUP3 DUP3 MSTORE PUSH1 0x20 DUP3 ADD SWAP1 POP SWAP3 SWAP2 POP POP JUMP JUMPDEST DUP3 DUP2 DUP4 MCOPY PUSH0 DUP4 DUP4 ADD MSTORE POP POP POP JUMP JUMPDEST PUSH0 PUSH2 0xA70B DUP3 PUSH2 0xA6D9 JUMP JUMPDEST PUSH2 0xA715 DUP2 DUP6 PUSH2 0xA6E3 JUMP JUMPDEST SWAP4 POP PUSH2 0xA725 DUP2 DUP6 PUSH1 0x20 DUP7 ADD PUSH2 0xA6F3 JUMP JUMPDEST PUSH2 0xA72E DUP2 PUSH2 0x9D14 JUMP JUMPDEST DUP5 ADD SWAP2 POP POP SWAP3 SWAP2 POP POP JUMP JUMPDEST PUSH0 PUSH1 0x20 DUP3 ADD SWAP1 POP DUP2 DUP2 SUB PUSH0 DUP4 ADD MSTORE PUSH2 0xA751 DUP2 DUP5 PUSH2 0xA701 JUMP JUMPDEST SWAP1 POP SWAP3 SWAP2 POP POP JUMP JUMPDEST PUSH0 PUSH1 0xFF DUP3 AND SWAP1 POP SWAP2 SWAP1 POP JUMP JUMPDEST PUSH2 0xA76E DUP2 PUSH2 0xA759 JUMP JUMPDEST DUP3 MSTORE POP POP JUMP JUMPDEST PUSH2 0xA77D DUP2 PUSH2 0xA1B3 JUMP JUMPDEST DUP3 MSTORE POP POP JUMP JUMPDEST PUSH0 PUSH2 0x180 DUP3 ADD SWAP1 POP PUSH2 0xA797 PUSH0 DUP4 ADD DUP16 PUSH2 0x9BE4 JUMP JUMPDEST PUSH2 0xA7A4 PUSH1 0x20 DUP4 ADD DUP15 PUSH2 0x9C23 JUMP JUMPDEST PUSH2 0xA7B1 PUSH1 0x40 DUP4 ADD DUP14 PUSH2 0x9C23 JUMP JUMPDEST PUSH2 0xA7BE PUSH1 0x60 DUP4 ADD DUP13 PUSH2 0x9BE4 JUMP JUMPDEST PUSH2 0xA7CB PUSH1 0x80 DUP4 ADD DUP12 PUSH2 0x9BE4 JUMP JUMPDEST PUSH2 0xA7D8 PUSH1 0xA0 DUP4 ADD DUP11 PUSH2 0xA765 JUMP JUMPDEST PUSH2 0xA7E5 PUSH1 0xC0 DUP4 ADD DUP10 PUSH2 0xA765 JUMP JUMPDEST PUSH2 0xA7F2 PUSH1 0xE0 DUP4 ADD DUP9 PUSH2 0xA774 JUMP JUMPDEST PUSH2 0xA800 PUSH2 0x100 DUP4 ADD DUP8 PUSH2 0x9BE4 JUMP JUMPDEST PUSH2 0xA80E PUSH2 0x120 DUP4 ADD DUP7 PUSH2 0x9BE4 JUMP JUMPDEST PUSH2 0xA81C PUSH2 0x140 DUP4 ADD DUP6 PUSH2 0xA765 JUMP JUMPDEST PUSH2 0xA82A PUSH2 0x160 DUP4 ADD DUP5 PUSH2 0x9BE4 JUMP JUMPDEST SWAP14 SWAP13 POP POP POP POP POP POP POP POP POP POP POP POP POP JUMP JUMPDEST PUSH0 DUP2 MLOAD SWAP1 POP SWAP2 SWAP1 POP JUMP JUMPDEST PUSH0 DUP3 DUP3 MSTORE PUSH1 0x20 DUP3 ADD SWAP1 POP SWAP3 SWAP2 POP POP JUMP JUMPDEST PUSH0 DUP2 SWAP1 POP PUSH1 0x20 DUP3 ADD SWAP1 POP SWAP2 SWAP1 POP JUMP JUMPDEST PUSH0 DUP2 MLOAD SWAP1 POP SWAP2 SWAP1 POP JUMP JUMPDEST PUSH0 DUP3 DUP3 MSTORE PUSH1 0x20 DUP3 ADD SWAP1 POP SWAP3 SWAP2 POP POP JUMP JUMPDEST PUSH0 DUP2 SWAP1 POP PUSH1 0x20 DUP3 ADD SWAP1 POP SWAP2 SWAP1 POP JUMP JUMPDEST PUSH0 PUSH2 0xA898 DUP4 DUP4 PUSH2 0xA4D7 JUMP JUMPDEST PUSH1 0x20 DUP4 ADD SWAP1 POP SWAP3 SWAP2 POP POP JUMP JUMPDEST PUSH0 PUSH1 0x20 DUP3 ADD SWAP1 POP SWAP2 SWAP1 POP JUMP JUMPDEST PUSH0 PUSH2 0xA8BA DUP3 PUSH2 0xA864 JUMP JUMPDEST PUSH2 0xA8C4 DUP2 DUP6 PUSH2 0xA86E JUMP JUMPDEST SWAP4 POP PUSH2 0xA8CF DUP4 PUSH2 0xA87E JUMP JUMPDEST DUP1 PUSH0 JUMPDEST DUP4 DUP2 LT ISZERO PUSH2 0xA8FF JUMPI DUP2 MLOAD PUSH2 0xA8E6 DUP9 DUP3 PUSH2 0xA88D JUMP JUMPDEST SWAP8 POP PUSH2 0xA8F1 DUP4 PUSH2 0xA8A4 JUMP JUMPDEST SWAP3 POP POP PUSH1 0x1 DUP2 ADD SWAP1 POP PUSH2 0xA8D2 JUMP JUMPDEST POP DUP6 SWAP4 POP POP POP POP SWAP3 SWAP2 POP POP JUMP JUMPDEST PUSH0 DUP2 MLOAD SWAP1 POP SWAP2 SWAP1 POP JUMP JUMPDEST PUSH0 DUP3 DUP3 MSTORE PUSH1 0x20 DUP3 ADD SWAP1 POP SWAP3 SWAP2 POP POP JUMP JUMPDEST PUSH0 DUP2 SWAP1 POP PUSH1 0x20 DUP3 ADD SWAP1 POP SWAP2 SWAP1 POP JUMP JUMPDEST PUSH0 PUSH2 0xA940 DUP4 DUP4 PUSH2 0xA51E JUMP JUMPDEST PUSH1 0x20 DUP4 ADD SWAP1 POP SWAP3 SWAP2 POP POP JUMP JUMPDEST PUSH0 PUSH1 0x20 DUP3 ADD SWAP1 POP SWAP2 SWAP1 POP JUMP JUMPDEST PUSH0 PUSH2 0xA962 DUP3 PUSH2 0xA90C JUMP JUMPDEST PUSH2 0xA96C DUP2 DUP6 PUSH2 0xA916 JUMP JUMPDEST SWAP4 POP PUSH2 0xA977 DUP4 PUSH2 0xA926 JUMP JUMPDEST DUP1 PUSH0 JUMPDEST DUP4 DUP2 LT ISZERO PUSH2 0xA9A7 JUMPI DUP2 MLOAD PUSH2 0xA98E DUP9 DUP3 PUSH2 0xA935 JUMP JUMPDEST SWAP8 POP PUSH2 0xA999 DUP4 PUSH2 0xA94C JUMP JUMPDEST SWAP3 POP POP PUSH1 0x1 DUP2 ADD SWAP1 POP PUSH2 0xA97A JUMP JUMPDEST POP DUP6 SWAP4 POP POP POP POP SWAP3 SWAP2 POP POP JUMP JUMPDEST PUSH2 0xA9BD DUP2 PUSH2 0xA759 JUMP JUMPDEST DUP3 MSTORE POP POP JUMP JUMPDEST PUSH0 PUSH2 0x260 DUP4 ADD PUSH0 DUP4 ADD MLOAD PUSH2 0xA9D9 PUSH0 DUP7 ADD DUP3 PUSH2 0xA4D7 JUMP JUMPDEST POP PUSH1 0x20 DUP4 ADD MLOAD PUSH2 0xA9EC PUSH1 0x20 DUP7 ADD DUP3 PUSH2 0xA4E6 JUMP JUMPDEST POP PUSH1 0x40 DUP4 ADD MLOAD PUSH2 0xA9FF PUSH1 0x40 DUP7 ADD DUP3 PUSH2 0xA4E6 JUMP JUMPDEST POP PUSH1 0x60 DUP4 ADD MLOAD PUSH2 0xAA12 PUSH1 0x60 DUP7 ADD DUP3 PUSH2 0xA4D7 JUMP JUMPDEST POP PUSH1 0x80 DUP4 ADD MLOAD DUP5 DUP3 SUB PUSH1 0x80 DUP7 ADD MSTORE PUSH2 0xAA2A DUP3 DUP3 PUSH2 0xA8B0 JUMP JUMPDEST SWAP2 POP POP PUSH1 0xA0 DUP4 ADD MLOAD DUP5 DUP3 SUB PUSH1 0xA0 DUP7 ADD MSTORE PUSH2 0xAA44 DUP3 DUP3 PUSH2 0xA8B0 JUMP JUMPDEST SWAP2 POP POP PUSH1 0xC0 DUP4 ADD MLOAD DUP5 DUP3 SUB PUSH1 0xC0 DUP7 ADD MSTORE PUSH2 0xAA5E DUP3 DUP3 PUSH2 0xA958 JUMP JUMPDEST SWAP2 POP POP PUSH1 0xE0 DUP4 ADD MLOAD DUP5 DUP3 SUB PUSH1 0xE0 DUP7 ADD MSTORE PUSH2 0xAA78 DUP3 DUP3 PUSH2 0xA8B0 JUMP JUMPDEST SWAP2 POP POP PUSH2 0x100 DUP4 ADD MLOAD DUP5 DUP3 SUB PUSH2 0x100 DUP7 ADD MSTORE PUSH2 0xAA94 DUP3 DUP3 PUSH2 0xA8B0 JUMP JUMPDEST SWAP2 POP POP PUSH2 0x120 DUP4 ADD MLOAD DUP5 DUP3 SUB PUSH2 0x120 DUP7 ADD MSTORE PUSH2 0xAAB0 DUP3 DUP3 PUSH2 0xA8B0 JUMP JUMPDEST SWAP2 POP POP PUSH2 0x140 DUP4 ADD MLOAD DUP5 DUP3 SUB PUSH2 0x140 DUP7 ADD MSTORE PUSH2 0xAACC DUP3 DUP3 PUSH2 0xA8B0 JUMP JUMPDEST SWAP2 POP POP PUSH2 0x160 DUP4 ADD MLOAD PUSH2 0xAAE3 PUSH2 0x160 DUP7 ADD DUP3 PUSH2 0xA4D7 JUMP JUMPDEST POP PUSH2 0x180 DUP4 ADD MLOAD PUSH2 0xAAF8 PUSH2 0x180 DUP7 ADD DUP3 PUSH2 0xA9B4 JUMP JUMPDEST POP PUSH2 0x1A0 DUP4 ADD MLOAD PUSH2 0xAB0D PUSH2 0x1A0 DUP7 ADD DUP3 PUSH2 0xA9B4 JUMP JUMPDEST POP PUSH2 0x1C0 DUP4 ADD MLOAD PUSH2 0xAB22 PUSH2 0x1C0 DUP7 ADD DUP3 PUSH2 0xA51E JUMP JUMPDEST POP PUSH2 0x1E0 DUP4 ADD MLOAD PUSH2 0xAB37 PUSH2 0x1E0 DUP7 ADD DUP3 PUSH2 0xA4D7 JUMP JUMPDEST POP PUSH2 0x200 DUP4 ADD MLOAD PUSH2 0xAB4C PUSH2 0x200 DUP7 ADD DUP3 PUSH2 0xA4D7 JUMP JUMPDEST POP PUSH2 0x220 DUP4 ADD MLOAD PUSH2 0xAB61 PUSH2 0x220 DUP7 ADD DUP3 PUSH2 0xA9B4 JUMP JUMPDEST POP PUSH2 0x240 DUP4 ADD MLOAD PUSH2 0xAB76 PUSH2 0x240 DUP7 ADD DUP3 PUSH2 0xA4D7 JUMP JUMPDEST POP DUP1 SWAP2 POP POP SWAP3 SWAP2 POP POP JUMP JUMPDEST PUSH0 PUSH2 0xAB8C DUP4 DUP4 PUSH2 0xA9C3 JUMP JUMPDEST SWAP1 POP SWAP3 SWAP2 POP POP JUMP JUMPDEST PUSH0 PUSH1 0x20 DUP3 ADD SWAP1 POP SWAP2 SWAP1 POP JUMP JUMPDEST PUSH0 PUSH2 0xABAA DUP3 PUSH2 0xA83B JUMP JUMPDEST PUSH2 0xABB4 DUP2 DUP6 PUSH2 0xA845 JUMP JUMPDEST SWAP4 POP DUP4 PUSH1 0x20 DUP3 MUL DUP6 ADD PUSH2 0xABC6 DUP6 PUSH2 0xA855 JUMP JUMPDEST DUP1 PUSH0 JUMPDEST DUP6 DUP2 LT ISZERO PUSH2 0xAC01 JUMPI DUP5 DUP5 SUB DUP10 MSTORE DUP2 MLOAD PUSH2 0xABE2 DUP6 DUP3 PUSH2 0xAB81 JUMP JUMPDEST SWAP5 POP PUSH2 0xABED DUP4 PUSH2 0xAB94 JUMP JUMPDEST SWAP3 POP PUSH1 0x20 DUP11 ADD SWAP10 POP POP PUSH1 0x1 DUP2 ADD SWAP1 POP PUSH2 0xABC9 JUMP JUMPDEST POP DUP3 SWAP8 POP DUP8 SWAP6 POP POP POP POP POP POP SWAP3 SWAP2 POP POP JUMP JUMPDEST PUSH0 PUSH1 0x20 DUP3 ADD SWAP1 POP DUP2 DUP2 SUB PUSH0 DUP4 ADD MSTORE PUSH2 0xAC2B DUP2 DUP5 PUSH2 0xABA0 JUMP JUMPDEST SWAP1 POP SWAP3 SWAP2 POP POP JUMP JUMPDEST PUSH1 0x5 DUP2 LT PUSH2 0xAC3F JUMPI PUSH0 DUP1 REVERT JUMPDEST POP JUMP JUMPDEST PUSH0 DUP2 CALLDATALOAD SWAP1 POP PUSH2 0xAC50 DUP2 PUSH2 0xAC33 JUMP JUMPDEST SWAP3 SWAP2 POP POP JUMP JUMPDEST PUSH0 DUP1 PUSH1 0x40 DUP4 DUP6 SUB SLT ISZERO PUSH2 0xAC6C JUMPI PUSH2 0xAC6B PUSH2 0x9B7E JUMP JUMPDEST JUMPDEST PUSH0 PUSH2 0xAC79 DUP6 DUP3 DUP7 ADD PUSH2 0xA1D2 JUMP JUMPDEST SWAP3 POP POP PUSH1 0x20 PUSH2 0xAC8A DUP6 DUP3 DUP7 ADD PUSH2 0xAC42 JUMP JUMPDEST SWAP2 POP POP SWAP3 POP SWAP3 SWAP1 POP JUMP JUMPDEST PUSH0 PUSH8 0xFFFFFFFFFFFFFFFF DUP3 GT ISZERO PUSH2 0xACAE JUMPI PUSH2 0xACAD PUSH2 0x9D24 JUMP JUMPDEST JUMPDEST PUSH2 0xACB7 DUP3 PUSH2 0x9D14 JUMP JUMPDEST SWAP1 POP PUSH1 0x20 DUP2 ADD SWAP1 POP SWAP2 SWAP1 POP JUMP JUMPDEST PUSH0 PUSH2 0xACD6 PUSH2 0xACD1 DUP5 PUSH2 0xAC94 JUMP JUMPDEST PUSH2 0x9D82 JUMP JUMPDEST SWAP1 POP DUP3 DUP2 MSTORE PUSH1 0x20 DUP2 ADD DUP5 DUP5 DUP5 ADD GT ISZERO PUSH2 0xACF2 JUMPI PUSH2 0xACF1 PUSH2 0x9DA4 JUMP JUMPDEST JUMPDEST PUSH2 0xACFD DUP5 DUP3 DUP6 PUSH2 0x9DD8 JUMP JUMPDEST POP SWAP4 SWAP3 POP POP POP JUMP JUMPDEST PUSH0 DUP3 PUSH1 0x1F DUP4 ADD SLT PUSH2 0xAD19 JUMPI PUSH2 0xAD18 PUSH2 0x9DA0 JUMP JUMPDEST JUMPDEST DUP2 CALLDATALOAD PUSH2 0xAD29 DUP5 DUP3 PUSH1 0x20 DUP7 ADD PUSH2 0xACC4 JUMP JUMPDEST SWAP2 POP POP SWAP3 SWAP2 POP POP JUMP JUMPDEST PUSH0 PUSH1 0x20 DUP3 DUP5 SUB SLT ISZERO PUSH2 0xAD47 JUMPI PUSH2 0xAD46 PUSH2 0x9B7E JUMP JUMPDEST JUMPDEST PUSH0 DUP3 ADD CALLDATALOAD PUSH8 0xFFFFFFFFFFFFFFFF DUP2 GT ISZERO PUSH2 0xAD64 JUMPI PUSH2 0xAD63 PUSH2 0x9B82 JUMP JUMPDEST JUMPDEST PUSH2 0xAD70 DUP5 DUP3 DUP6 ADD PUSH2 0xAD05 JUMP JUMPDEST SWAP2 POP POP SWAP3 SWAP2 POP POP JUMP JUMPDEST PUSH0 DUP1 PUSH0 PUSH1 0x60 DUP5 DUP7 SUB SLT ISZERO PUSH2 0xAD90 JUMPI PUSH2 0xAD8F PUSH2 0x9B7E JUMP JUMPDEST JUMPDEST PUSH0 PUSH2 0xAD9D DUP7 DUP3 DUP8 ADD PUSH2 0x9BA5 JUMP JUMPDEST SWAP4 POP POP PUSH1 0x20 PUSH2 0xADAE DUP7 DUP3 DUP8 ADD PUSH2 0xA1D2 JUMP JUMPDEST SWAP3 POP POP PUSH1 0x40 PUSH2 0xADBF DUP7 DUP3 DUP8 ADD PUSH2 0x9BA5 JUMP JUMPDEST SWAP2 POP POP SWAP3 POP SWAP3 POP SWAP3 JUMP JUMPDEST PUSH1 0xA0 DUP3 ADD PUSH0 DUP3 ADD MLOAD PUSH2 0xADDD PUSH0 DUP6 ADD DUP3 PUSH2 0xA4D7 JUMP JUMPDEST POP PUSH1 0x20 DUP3 ADD MLOAD PUSH2 0xADF0 PUSH1 0x20 DUP6 ADD DUP3 PUSH2 0xA4D7 JUMP JUMPDEST POP PUSH1 0x40 DUP3 ADD MLOAD PUSH2 0xAE03 PUSH1 0x40 DUP6 ADD DUP3 PUSH2 0xA4D7 JUMP JUMPDEST POP PUSH1 0x60 DUP3 ADD MLOAD PUSH2 0xAE16 PUSH1 0x60 DUP6 ADD DUP3 PUSH2 0xA51E JUMP JUMPDEST POP PUSH1 0x80 DUP3 ADD MLOAD PUSH2 0xAE29 PUSH1 0x80 DUP6 ADD DUP3 PUSH2 0xA4D7 JUMP JUMPDEST POP POP POP POP JUMP JUMPDEST PUSH0 PUSH1 0xA0 DUP3 ADD SWAP1 POP PUSH2 0xAE42 PUSH0 DUP4 ADD DUP5 PUSH2 0xADC9 JUMP JUMPDEST SWAP3 SWAP2 POP POP JUMP JUMPDEST PUSH0 DUP2 MLOAD SWAP1 POP SWAP2 SWAP1 POP JUMP JUMPDEST PUSH0 DUP3 DUP3 MSTORE PUSH1 0x20 DUP3 ADD SWAP1 POP SWAP3 SWAP2 POP POP JUMP JUMPDEST PUSH0 DUP2 SWAP1 POP PUSH1 0x20 DUP3 ADD SWAP1 POP SWAP2 SWAP1 POP JUMP JUMPDEST PUSH0 DUP2 MLOAD SWAP1 POP SWAP2 SWAP1 POP JUMP JUMPDEST PUSH0 DUP3 DUP3 MSTORE PUSH1 0x20 DUP3 ADD SWAP1 POP SWAP3 SWAP2 POP POP JUMP JUMPDEST PUSH0 DUP2 SWAP1 POP PUSH1 0x20 DUP3 ADD SWAP1 POP SWAP2 SWAP1 POP JUMP JUMPDEST PUSH0 PUSH1 0xA0 DUP4 ADD PUSH0 DUP4 ADD MLOAD DUP5 DUP3 SUB PUSH0 DUP7 ADD MSTORE PUSH2 0xAEB4 DUP3 DUP3 PUSH2 0xA8B0 JUMP JUMPDEST SWAP2 POP POP PUSH1 0x20 DUP4 ADD MLOAD DUP5 DUP3 SUB PUSH1 0x20 DUP7 ADD MSTORE PUSH2 0xAECE DUP3 DUP3 PUSH2 0xA8B0 JUMP JUMPDEST SWAP2 POP POP PUSH1 0x40 DUP4 ADD MLOAD DUP5 DUP3 SUB PUSH1 0x40 DUP7 ADD MSTORE PUSH2 0xAEE8 DUP3 DUP3 PUSH2 0xA958 JUMP JUMPDEST SWAP2 POP POP PUSH1 0x60 DUP4 ADD MLOAD DUP5 DUP3 SUB PUSH1 0x60 DUP7 ADD MSTORE PUSH2 0xAF02 DUP3 DUP3 PUSH2 0xA8B0 JUMP JUMPDEST SWAP2 POP POP PUSH1 0x80 DUP4 ADD MLOAD PUSH2 0xAF17 PUSH1 0x80 DUP7 ADD DUP3 PUSH2 0xA4D7 JUMP JUMPDEST POP DUP1 SWAP2 POP POP SWAP3 SWAP2 POP POP JUMP JUMPDEST PUSH0 PUSH2 0xAF2D DUP4 DUP4 PUSH2 0xAE9A JUMP JUMPDEST SWAP1 POP SWAP3 SWAP2 POP POP JUMP JUMPDEST PUSH0 PUSH1 0x20 DUP3 ADD SWAP1 POP SWAP2 SWAP1 POP JUMP JUMPDEST PUSH0 PUSH2 0xAF4B DUP3 PUSH2 0xAE71 JUMP JUMPDEST PUSH2 0xAF55 DUP2 DUP6 PUSH2 0xAE7B JUMP JUMPDEST SWAP4 POP DUP4 PUSH1 0x20 DUP3 MUL DUP6 ADD PUSH2 0xAF67 DUP6 PUSH2 0xAE8B JUMP JUMPDEST DUP1 PUSH0 JUMPDEST DUP6 DUP2 LT ISZERO PUSH2 0xAFA2 JUMPI DUP5 DUP5 SUB DUP10 MSTORE DUP2 MLOAD PUSH2 0xAF83 DUP6 DUP3 PUSH2 0xAF22 JUMP JUMPDEST SWAP5 POP PUSH2 0xAF8E DUP4 PUSH2 0xAF35 JUMP JUMPDEST SWAP3 POP PUSH1 0x20 DUP11 ADD SWAP10 POP POP PUSH1 0x1 DUP2 ADD SWAP1 POP PUSH2 0xAF6A JUMP JUMPDEST POP DUP3 SWAP8 POP DUP8 SWAP6 POP POP POP POP POP POP SWAP3 SWAP2 POP POP JUMP JUMPDEST PUSH2 0xAFBD DUP2 PUSH2 0x9C32 JUMP JUMPDEST DUP3 MSTORE POP POP JUMP JUMPDEST PUSH0 PUSH1 0xA0 DUP4 ADD PUSH0 DUP4 ADD MLOAD PUSH2 0xAFD8 PUSH0 DUP7 ADD DUP3 PUSH2 0xA4D7 JUMP JUMPDEST POP PUSH1 0x20 DUP4 ADD MLOAD DUP5 DUP3 SUB PUSH1 0x20 DUP7 ADD MSTORE PUSH2 0xAFF0 DUP3 DUP3 PUSH2 0xAF41 JUMP JUMPDEST SWAP2 POP POP PUSH1 0x40 DUP4 ADD MLOAD PUSH2 0xB005 PUSH1 0x40 DUP7 ADD DUP3 PUSH2 0xA4E6 JUMP JUMPDEST POP PUSH1 0x60 DUP4 ADD MLOAD PUSH2 0xB018 PUSH1 0x60 DUP7 ADD DUP3 PUSH2 0xAFB4 JUMP JUMPDEST POP PUSH1 0x80 DUP4 ADD MLOAD PUSH2 0xB02B PUSH1 0x80 DUP7 ADD DUP3 PUSH2 0xA4D7 JUMP JUMPDEST POP DUP1 SWAP2 POP POP SWAP3 SWAP2 POP POP JUMP JUMPDEST PUSH0 PUSH2 0xB041 DUP4 DUP4 PUSH2 0xAFC3 JUMP JUMPDEST SWAP1 POP SWAP3 SWAP2 POP POP JUMP JUMPDEST PUSH0 PUSH1 0x20 DUP3 ADD SWAP1 POP SWAP2 SWAP1 POP JUMP JUMPDEST PUSH0 PUSH2 0xB05F DUP3 PUSH2 0xAE48 JUMP JUMPDEST PUSH2 0xB069 DUP2 DUP6 PUSH2 0xAE52 JUMP JUMPDEST SWAP4 POP DUP4 PUSH1 0x20 DUP3 MUL DUP6 ADD PUSH2 0xB07B DUP6 PUSH2 0xAE62 JUMP JUMPDEST DUP1 PUSH0 JUMPDEST DUP6 DUP2 LT ISZERO PUSH2 0xB0B6 JUMPI DUP5 DUP5 SUB DUP10 MSTORE DUP2 MLOAD PUSH2 0xB097 DUP6 DUP3 PUSH2 0xB036 JUMP JUMPDEST SWAP5 POP PUSH2 0xB0A2 DUP4 PUSH2 0xB049 JUMP JUMPDEST SWAP3 POP PUSH1 0x20 DUP11 ADD SWAP10 POP POP PUSH1 0x1 DUP2 ADD SWAP1 POP PUSH2 0xB07E JUMP JUMPDEST POP DUP3 SWAP8 POP DUP8 SWAP6 POP POP POP POP POP POP SWAP3 SWAP2 POP POP JUMP JUMPDEST PUSH0 PUSH1 0x20 DUP3 ADD SWAP1 POP DUP2 DUP2 SUB PUSH0 DUP4 ADD MSTORE PUSH2 0xB0E0 DUP2 DUP5 PUSH2 0xB055 JUMP JUMPDEST SWAP1 POP SWAP3 SWAP2 POP POP JUMP JUMPDEST PUSH0 DUP2 SWAP1 POP SWAP2 SWAP1 POP JUMP JUMPDEST PUSH0 PUSH2 0xB10B PUSH2 0xB106 PUSH2 0xB101 DUP5 PUSH2 0x9BF3 JUMP JUMPDEST PUSH2 0xB0E8 JUMP JUMPDEST PUSH2 0x9BF3 JUMP JUMPDEST SWAP1 POP SWAP2 SWAP1 POP JUMP JUMPDEST PUSH0 PUSH2 0xB11C DUP3 PUSH2 0xB0F1 JUMP JUMPDEST SWAP1 POP SWAP2 SWAP1 POP JUMP JUMPDEST PUSH0 PUSH2 0xB12D DUP3 PUSH2 0xB112 JUMP JUMPDEST SWAP1 POP SWAP2 SWAP1 POP JUMP JUMPDEST PUSH2 0xB13D DUP2 PUSH2 0xB123 JUMP JUMPDEST DUP3 MSTORE POP POP JUMP JUMPDEST PUSH0 PUSH1 0x20 DUP3 ADD SWAP1 POP PUSH2 0xB156 PUSH0 DUP4 ADD DUP5 PUSH2 0xB134 JUMP JUMPDEST SWAP3 SWAP2 POP POP JUMP JUMPDEST PUSH0 PUSH1 0x20 DUP3 ADD SWAP1 POP PUSH2 0xB16F PUSH0 DUP4 ADD DUP5 PUSH2 0xA774 JUMP JUMPDEST SWAP3 SWAP2 POP POP JUMP JUMPDEST PUSH0 PUSH8 0xFFFFFFFFFFFFFFFF DUP3 GT ISZERO PUSH2 0xB18F JUMPI PUSH2 0xB18E PUSH2 0x9D24 JUMP JUMPDEST JUMPDEST PUSH1 0x20 DUP3 MUL SWAP1 POP PUSH1 0x20 DUP2 ADD SWAP1 POP SWAP2 SWAP1 POP JUMP JUMPDEST PUSH0 PUSH8 0xFFFFFFFFFFFFFFFF DUP3 GT ISZERO PUSH2 0xB1BA JUMPI PUSH2 0xB1B9 PUSH2 0x9D24 JUMP JUMPDEST JUMPDEST PUSH1 0x20 DUP3 MUL SWAP1 POP PUSH1 0x20 DUP2 ADD SWAP1 POP SWAP2 SWAP1 POP JUMP JUMPDEST PUSH0 PUSH2 0xB1DD PUSH2 0xB1D8 DUP5 PUSH2 0xB1A0 JUMP JUMPDEST PUSH2 0x9D82 JUMP JUMPDEST SWAP1 POP DUP1 DUP4 DUP3 MSTORE PUSH1 0x20 DUP3 ADD SWAP1 POP PUSH1 0x20 DUP5 MUL DUP4 ADD DUP6 DUP2 GT ISZERO PUSH2 0xB200 JUMPI PUSH2 0xB1FF PUSH2 0xA0C4 JUMP JUMPDEST JUMPDEST DUP4 JUMPDEST DUP2 DUP2 LT ISZERO PUSH2 0xB247 JUMPI DUP1 CALLDATALOAD PUSH8 0xFFFFFFFFFFFFFFFF DUP2 GT ISZERO PUSH2 0xB225 JUMPI PUSH2 0xB224 PUSH2 0x9DA0 JUMP JUMPDEST JUMPDEST DUP1 DUP7 ADD PUSH2 0xB232 DUP10 DUP3 PUSH2 0x9E27 JUMP JUMPDEST DUP6 MSTORE PUSH1 0x20 DUP6 ADD SWAP5 POP POP POP PUSH1 0x20 DUP2 ADD SWAP1 POP PUSH2 0xB202 JUMP JUMPDEST POP POP POP SWAP4 SWAP3 POP POP POP JUMP JUMPDEST PUSH0 DUP3 PUSH1 0x1F DUP4 ADD SLT PUSH2 0xB265 JUMPI PUSH2 0xB264 PUSH2 0x9DA0 JUMP JUMPDEST JUMPDEST DUP2 CALLDATALOAD PUSH2 0xB275 DUP5 DUP3 PUSH1 0x20 DUP7 ADD PUSH2 0xB1CB JUMP JUMPDEST SWAP2 POP POP SWAP3 SWAP2 POP POP JUMP JUMPDEST PUSH0 PUSH1 0xA0 DUP3 DUP5 SUB SLT ISZERO PUSH2 0xB293 JUMPI PUSH2 0xB292 PUSH2 0x9D10 JUMP JUMPDEST JUMPDEST PUSH2 0xB29D PUSH1 0xA0 PUSH2 0x9D82 JUMP JUMPDEST SWAP1 POP PUSH0 PUSH2 0xB2AC DUP5 DUP3 DUP6 ADD PUSH2 0x9BA5 JUMP JUMPDEST PUSH0 DUP4 ADD MSTORE POP PUSH1 0x20 PUSH2 0xB2BF DUP5 DUP3 DUP6 ADD PUSH2 0x9BA5 JUMP JUMPDEST PUSH1 0x20 DUP4 ADD MSTORE POP PUSH1 0x40 PUSH2 0xB2D3 DUP5 DUP3 DUP6 ADD PUSH2 0xA1D2 JUMP JUMPDEST PUSH1 0x40 DUP4 ADD MSTORE POP PUSH1 0x60 PUSH2 0xB2E7 DUP5 DUP3 DUP6 ADD PUSH2 0x9BA5 JUMP JUMPDEST PUSH1 0x60 DUP4 ADD MSTORE POP PUSH1 0x80 DUP3 ADD CALLDATALOAD PUSH8 0xFFFFFFFFFFFFFFFF DUP2 GT ISZERO PUSH2 0xB30B JUMPI PUSH2 0xB30A PUSH2 0x9D9C JUMP JUMPDEST JUMPDEST PUSH2 0xB317 DUP5 DUP3 DUP6 ADD PUSH2 0xB251 JUMP JUMPDEST PUSH1 0x80 DUP4 ADD MSTORE POP SWAP3 SWAP2 POP POP JUMP JUMPDEST PUSH0 PUSH2 0xB335 PUSH2 0xB330 DUP5 PUSH2 0xB175 JUMP JUMPDEST PUSH2 0x9D82 JUMP JUMPDEST SWAP1 POP DUP1 DUP4 DUP3 MSTORE PUSH1 0x20 DUP3 ADD SWAP1 POP PUSH1 0x20 DUP5 MUL DUP4 ADD DUP6 DUP2 GT ISZERO PUSH2 0xB358 JUMPI PUSH2 0xB357 PUSH2 0xA0C4 JUMP JUMPDEST JUMPDEST DUP4 JUMPDEST DUP2 DUP2 LT ISZERO PUSH2 0xB39F JUMPI DUP1 CALLDATALOAD PUSH8 0xFFFFFFFFFFFFFFFF DUP2 GT ISZERO PUSH2 0xB37D JUMPI PUSH2 0xB37C PUSH2 0x9DA0 JUMP JUMPDEST JUMPDEST DUP1 DUP7 ADD PUSH2 0xB38A DUP10 DUP3 PUSH2 0xB27E JUMP JUMPDEST DUP6 MSTORE PUSH1 0x20 DUP6 ADD SWAP5 POP POP POP PUSH1 0x20 DUP2 ADD SWAP1 POP PUSH2 0xB35A JUMP JUMPDEST POP POP POP SWAP4 SWAP3 POP POP POP JUMP JUMPDEST PUSH0 DUP3 PUSH1 0x1F DUP4 ADD SLT PUSH2 0xB3BD JUMPI PUSH2 0xB3BC PUSH2 0x9DA0 JUMP JUMPDEST JUMPDEST DUP2 CALLDATALOAD PUSH2 0xB3CD DUP5 DUP3 PUSH1 0x20 DUP7 ADD PUSH2 0xB323 JUMP JUMPDEST SWAP2 POP POP SWAP3 SWAP2 POP POP JUMP JUMPDEST PUSH1 0x2 DUP2 LT PUSH2 0xB3E2 JUMPI PUSH0 DUP1 REVERT JUMPDEST POP JUMP JUMPDEST PUSH0 DUP2 CALLDATALOAD SWAP1 POP PUSH2 0xB3F3 DUP2 PUSH2 0xB3D6 JUMP JUMPDEST SWAP3 SWAP2 POP POP JUMP JUMPDEST PUSH1 0x2 DUP2 LT PUSH2 0xB405 JUMPI PUSH0 DUP1 REVERT JUMPDEST POP JUMP JUMPDEST PUSH0 DUP2 CALLDATALOAD SWAP1 POP PUSH2 0xB416 DUP2 PUSH2 0xB3F9 JUMP JUMPDEST SWAP3 SWAP2 POP POP JUMP JUMPDEST PUSH0 PUSH1 0x80 DUP3 DUP5 SUB SLT ISZERO PUSH2 0xB431 JUMPI PUSH2 0xB430 PUSH2 0x9D10 JUMP JUMPDEST JUMPDEST PUSH2 0xB43B PUSH1 0x80 PUSH2 0x9D82 JUMP JUMPDEST SWAP1 POP PUSH0 PUSH2 0xB44A DUP5 DUP3 DUP6 ADD PUSH2 0x9BA5 JUMP JUMPDEST PUSH0 DUP4 ADD MSTORE POP PUSH1 0x20 PUSH2 0xB45D DUP5 DUP3 DUP6 ADD PUSH2 0xA1D2 JUMP JUMPDEST PUSH1 0x20 DUP4 ADD MSTORE POP PUSH1 0x40 PUSH2 0xB471 DUP5 DUP3 DUP6 ADD PUSH2 0xB3E5 JUMP JUMPDEST PUSH1 0x40 DUP4 ADD MSTORE POP PUSH1 0x60 PUSH2 0xB485 DUP5 DUP3 DUP6 ADD PUSH2 0xB408 JUMP JUMPDEST PUSH1 0x60 DUP4 ADD MSTORE POP SWAP3 SWAP2 POP POP JUMP JUMPDEST PUSH0 DUP1 PUSH0 PUSH1 0xC0 DUP5 DUP7 SUB SLT ISZERO PUSH2 0xB4A8 JUMPI PUSH2 0xB4A7 PUSH2 0x9B7E JUMP JUMPDEST JUMPDEST PUSH0 DUP5 ADD CALLDATALOAD PUSH8 0xFFFFFFFFFFFFFFFF DUP2 GT ISZERO PUSH2 0xB4C5 JUMPI PUSH2 0xB4C4 PUSH2 0x9B82 JUMP JUMPDEST JUMPDEST PUSH2 0xB4D1 DUP7 DUP3 DUP8 ADD PUSH2 0xB3A9 JUMP JUMPDEST SWAP4 POP POP PUSH1 0x20 DUP5 ADD CALLDATALOAD PUSH8 0xFFFFFFFFFFFFFFFF DUP2 GT ISZERO PUSH2 0xB4F2 JUMPI PUSH2 0xB4F1 PUSH2 0x9B82 JUMP JUMPDEST JUMPDEST PUSH2 0xB4FE DUP7 DUP3 DUP8 ADD PUSH2 0x9E54 JUMP JUMPDEST SWAP3 POP POP PUSH1 0x40 PUSH2 0xB50F DUP7 DUP3 DUP8 ADD PUSH2 0xB41C JUMP JUMPDEST SWAP2 POP POP SWAP3 POP SWAP3 POP SWAP3 JUMP JUMPDEST PUSH0 DUP1 PUSH1 0x40 DUP4 DUP6 SUB SLT ISZERO PUSH2 0xB52F JUMPI PUSH2 0xB52E PUSH2 0x9B7E JUMP JUMPDEST JUMPDEST PUSH0 PUSH2 0xB53C DUP6 DUP3 DUP7 ADD PUSH2 0x9BA5 JUMP JUMPDEST SWAP3 POP POP PUSH1 0x20 PUSH2 0xB54D DUP6 DUP3 DUP7 ADD PUSH2 0x9BA5 JUMP JUMPDEST SWAP2 POP POP SWAP3 POP SWAP3 SWAP1 POP JUMP JUMPDEST PUSH0 DUP3 DUP3 MSTORE PUSH1 0x20 DUP3 ADD SWAP1 POP SWAP3 SWAP2 POP POP JUMP JUMPDEST PUSH0 PUSH2 0xB571 DUP3 PUSH2 0xA6D9 JUMP JUMPDEST PUSH2 0xB57B DUP2 DUP6 PUSH2 0xB557 JUMP JUMPDEST SWAP4 POP PUSH2 0xB58B DUP2 DUP6 PUSH1 0x20 DUP7 ADD PUSH2 0xA6F3 JUMP JUMPDEST PUSH2 0xB594 DUP2 PUSH2 0x9D14 JUMP JUMPDEST DUP5 ADD SWAP2 POP POP SWAP3 SWAP2 POP POP JUMP JUMPDEST PUSH0 PUSH2 0x120 DUP4 ADD PUSH0 DUP4 ADD MLOAD DUP5 DUP3 SUB PUSH0 DUP7 ADD MSTORE PUSH2 0xB5BA DUP3 DUP3 PUSH2 0xB567 JUMP JUMPDEST SWAP2 POP POP PUSH1 0x20 DUP4 ADD MLOAD DUP5 DUP3 SUB PUSH1 0x20 DUP7 ADD MSTORE PUSH2 0xB5D4 DUP3 DUP3 PUSH2 0xB567 JUMP JUMPDEST SWAP2 POP POP PUSH1 0x40 DUP4 ADD MLOAD DUP5 DUP3 SUB PUSH1 0x40 DUP7 ADD MSTORE PUSH2 0xB5EE DUP3 DUP3 PUSH2 0xB567 JUMP JUMPDEST SWAP2 POP POP PUSH1 0x60 DUP4 ADD MLOAD DUP5 DUP3 SUB PUSH1 0x60 DUP7 ADD MSTORE PUSH2 0xB608 DUP3 DUP3 PUSH2 0xB567 JUMP JUMPDEST SWAP2 POP POP PUSH1 0x80 DUP4 ADD MLOAD DUP5 DUP3 SUB PUSH1 0x80 DUP7 ADD MSTORE PUSH2 0xB622 DUP3 DUP3 PUSH2 0xB567 JUMP JUMPDEST SWAP2 POP POP PUSH1 0xA0 DUP4 ADD MLOAD DUP5 DUP3 SUB PUSH1 0xA0 DUP7 ADD MSTORE PUSH2 0xB63C DUP3 DUP3 PUSH2 0xB567 JUMP JUMPDEST SWAP2 POP POP PUSH1 0xC0 DUP4 ADD MLOAD DUP5 DUP3 SUB PUSH1 0xC0 DUP7 ADD MSTORE PUSH2 0xB656 DUP3 DUP3 PUSH2 0xB567 JUMP JUMPDEST SWAP2 POP POP PUSH1 0xE0 DUP4 ADD MLOAD DUP5 DUP3 SUB PUSH1 0xE0 DUP7 ADD MSTORE PUSH2 0xB670 DUP3 DUP3 PUSH2 0xB567 JUMP JUMPDEST SWAP2 POP POP PUSH2 0x100 DUP4 ADD MLOAD DUP5 DUP3 SUB PUSH2 0x100 DUP7 ADD MSTORE PUSH2 0xB68C DUP3 DUP3 PUSH2 0xB567 JUMP JUMPDEST SWAP2 POP POP DUP1 SWAP2 POP POP SWAP3 SWAP2 POP POP JUMP JUMPDEST PUSH0 PUSH1 0x80 DUP4 ADD PUSH0 DUP4 ADD MLOAD PUSH2 0xB6AE PUSH0 DUP7 ADD DUP3 PUSH2 0xA4D7 JUMP JUMPDEST POP PUSH1 0x20 DUP4 ADD MLOAD PUSH2 0xB6C1 PUSH1 0x20 DUP7 ADD DUP3 PUSH2 0xA4D7 JUMP JUMPDEST POP PUSH1 0x40 DUP4 ADD MLOAD PUSH2 0xB6D4 PUSH1 0x40 DUP7 ADD DUP3 PUSH2 0xA4E6 JUMP JUMPDEST POP PUSH1 0x60 DUP4 ADD MLOAD DUP5 DUP3 SUB PUSH1 0x60 DUP7 ADD MSTORE PUSH2 0xB6EC DUP3 DUP3 PUSH2 0xB59F JUMP JUMPDEST SWAP2 POP POP DUP1 SWAP2 POP POP SWAP3 SWAP2 POP POP JUMP JUMPDEST PUSH0 PUSH1 0x20 DUP3 ADD SWAP1 POP DUP2 DUP2 SUB PUSH0 DUP4 ADD MSTORE PUSH2 0xB711 DUP2 DUP5 PUSH2 0xB699 JUMP JUMPDEST SWAP1 POP SWAP3 SWAP2 POP POP JUMP JUMPDEST PUSH0 PUSH1 0x20 DUP3 DUP5 SUB SLT ISZERO PUSH2 0xB72E JUMPI PUSH2 0xB72D PUSH2 0x9B7E JUMP JUMPDEST JUMPDEST PUSH0 DUP3 ADD CALLDATALOAD PUSH8 0xFFFFFFFFFFFFFFFF DUP2 GT ISZERO PUSH2 0xB74B JUMPI PUSH2 0xB74A PUSH2 0x9B82 JUMP JUMPDEST JUMPDEST PUSH2 0xB757 DUP5 DUP3 DUP6 ADD PUSH2 0xA15B JUMP JUMPDEST SWAP2 POP POP SWAP3 SWAP2 POP POP JUMP JUMPDEST PUSH0 PUSH1 0x20 DUP3 ADD SWAP1 POP PUSH2 0xB773 PUSH0 DUP4 ADD DUP5 PUSH2 0x9C23 JUMP JUMPDEST SWAP3 SWAP2 POP POP JUMP JUMPDEST PUSH0 PUSH8 0xFFFFFFFFFFFFFFFF DUP3 GT ISZERO PUSH2 0xB793 JUMPI PUSH2 0xB792 PUSH2 0x9D24 JUMP JUMPDEST JUMPDEST PUSH1 0x20 DUP3 MUL SWAP1 POP PUSH1 0x20 DUP2 ADD SWAP1 POP SWAP2 SWAP1 POP JUMP JUMPDEST PUSH0 PUSH1 0x60 DUP3 DUP5 SUB SLT ISZERO PUSH2 0xB7B9 JUMPI PUSH2 0xB7B8 PUSH2 0x9D10 JUMP JUMPDEST JUMPDEST PUSH2 0xB7C3 PUSH1 0x60 PUSH2 0x9D82 JUMP JUMPDEST SWAP1 POP PUSH0 PUSH2 0xB7D2 DUP5 DUP3 DUP6 ADD PUSH2 0x9BA5 JUMP JUMPDEST PUSH0 DUP4 ADD MSTORE POP PUSH1 0x20 PUSH2 0xB7E5 DUP5 DUP3 DUP6 ADD PUSH2 0xA1D2 JUMP JUMPDEST PUSH1 0x20 DUP4 ADD MSTORE POP PUSH1 0x40 PUSH2 0xB7F9 DUP5 DUP3 DUP6 ADD PUSH2 0x9BA5 JUMP JUMPDEST PUSH1 0x40 DUP4 ADD MSTORE POP SWAP3 SWAP2 POP POP JUMP JUMPDEST PUSH0 PUSH2 0xB817 PUSH2 0xB812 DUP5 PUSH2 0xB779 JUMP JUMPDEST PUSH2 0x9D82 JUMP JUMPDEST SWAP1 POP DUP1 DUP4 DUP3 MSTORE PUSH1 0x20 DUP3 ADD SWAP1 POP PUSH1 0x60 DUP5 MUL DUP4 ADD DUP6 DUP2 GT ISZERO PUSH2 0xB83A JUMPI PUSH2 0xB839 PUSH2 0xA0C4 JUMP JUMPDEST JUMPDEST DUP4 JUMPDEST DUP2 DUP2 LT ISZERO PUSH2 0xB863 JUMPI DUP1 PUSH2 0xB84F DUP9 DUP3 PUSH2 0xB7A4 JUMP JUMPDEST DUP5 MSTORE PUSH1 0x20 DUP5 ADD SWAP4 POP POP PUSH1 0x60 DUP2 ADD SWAP1 POP PUSH2 0xB83C JUMP JUMPDEST POP POP POP SWAP4 SWAP3 POP POP POP JUMP JUMPDEST PUSH0 DUP3 PUSH1 0x1F DUP4 ADD SLT PUSH2 0xB881 JUMPI PUSH2 0xB880 PUSH2 0x9DA0 JUMP JUMPDEST JUMPDEST DUP2 CALLDATALOAD PUSH2 0xB891 DUP5 DUP3 PUSH1 0x20 DUP7 ADD PUSH2 0xB805 JUMP JUMPDEST SWAP2 POP POP SWAP3 SWAP2 POP POP JUMP JUMPDEST PUSH0 PUSH1 0x20 DUP3 DUP5 SUB SLT ISZERO PUSH2 0xB8AF JUMPI PUSH2 0xB8AE PUSH2 0x9B7E JUMP JUMPDEST JUMPDEST PUSH0 DUP3 ADD CALLDATALOAD PUSH8 0xFFFFFFFFFFFFFFFF DUP2 GT ISZERO PUSH2 0xB8CC JUMPI PUSH2 0xB8CB PUSH2 0x9B82 JUMP JUMPDEST JUMPDEST PUSH2 0xB8D8 DUP5 DUP3 DUP6 ADD PUSH2 0xB86D JUMP JUMPDEST SWAP2 POP POP SWAP3 SWAP2 POP POP JUMP JUMPDEST PUSH0 DUP3 DUP3 MSTORE PUSH1 0x20 DUP3 ADD SWAP1 POP SWAP3 SWAP2 POP POP JUMP JUMPDEST PUSH0 PUSH2 0xB8FB DUP3 PUSH2 0xA4F5 JUMP JUMPDEST PUSH2 0xB905 DUP2 DUP6 PUSH2 0xB8E1 JUMP JUMPDEST SWAP4 POP PUSH2 0xB910 DUP4 PUSH2 0xA50F JUMP JUMPDEST DUP1 PUSH0 JUMPDEST DUP4 DUP2 LT ISZERO PUSH2 0xB940 JUMPI DUP2 MLOAD PUSH2 0xB927 DUP9 DUP3 PUSH2 0xA593 JUMP JUMPDEST SWAP8 POP PUSH2 0xB932 DUP4 PUSH2 0xA5AA JUMP JUMPDEST SWAP3 POP POP PUSH1 0x1 DUP2 ADD SWAP1 POP PUSH2 0xB913 JUMP JUMPDEST POP DUP6 SWAP4 POP POP POP POP SWAP3 SWAP2 POP POP JUMP JUMPDEST PUSH0 PUSH1 0x20 DUP3 ADD SWAP1 POP DUP2 DUP2 SUB PUSH0 DUP4 ADD MSTORE PUSH2 0xB965 DUP2 DUP5 PUSH2 0xB8F1 JUMP JUMPDEST SWAP1 POP SWAP3 SWAP2 POP POP JUMP JUMPDEST PUSH0 PUSH1 0x40 DUP3 ADD SWAP1 POP PUSH2 0xB980 PUSH0 DUP4 ADD DUP6 PUSH2 0x9BE4 JUMP JUMPDEST PUSH2 0xB98D PUSH1 0x20 DUP4 ADD DUP5 PUSH2 0x9C23 JUMP JUMPDEST SWAP4 SWAP3 POP POP POP JUMP JUMPDEST PUSH0 PUSH2 0xB99E DUP3 PUSH2 0xB112 JUMP JUMPDEST SWAP1 POP SWAP2 SWAP1 POP JUMP JUMPDEST PUSH2 0xB9AE DUP2 PUSH2 0xB994 JUMP JUMPDEST DUP3 MSTORE POP POP JUMP JUMPDEST PUSH0 PUSH1 0x20 DUP3 ADD SWAP1 POP PUSH2 0xB9C7 PUSH0 DUP4 ADD DUP5 PUSH2 0xB9A5 JUMP JUMPDEST SWAP3 SWAP2 POP POP JUMP JUMPDEST PUSH0 DUP1 PUSH1 0x40 DUP4 DUP6 SUB SLT ISZERO PUSH2 0xB9E3 JUMPI PUSH2 0xB9E2 PUSH2 0x9B7E JUMP JUMPDEST JUMPDEST PUSH0 DUP4 ADD CALLDATALOAD PUSH8 0xFFFFFFFFFFFFFFFF DUP2 GT ISZERO PUSH2 0xBA00 JUMPI PUSH2 0xB9FF PUSH2 0x9B82 JUMP JUMPDEST JUMPDEST PUSH2 0xBA0C DUP6 DUP3 DUP7 ADD PUSH2 0xA3FA JUMP JUMPDEST SWAP3 POP POP PUSH1 0x20 PUSH2 0xBA1D DUP6 DUP3 DUP7 ADD PUSH2 0x9BA5 JUMP JUMPDEST SWAP2 POP POP SWAP3 POP SWAP3 SWAP1 POP JUMP JUMPDEST PUSH0 PUSH1 0x20 DUP3 DUP5 SUB SLT ISZERO PUSH2 0xBA3C JUMPI PUSH2 0xBA3B PUSH2 0x9B7E JUMP JUMPDEST JUMPDEST PUSH0 PUSH2 0xBA49 DUP5 DUP3 DUP6 ADD PUSH2 0xA1D2 JUMP JUMPDEST SWAP2 POP POP SWAP3 SWAP2 POP POP JUMP JUMPDEST PUSH0 PUSH2 0x260 DUP4 ADD PUSH0 DUP4 ADD MLOAD PUSH2 0xBA68 PUSH0 DUP7 ADD DUP3 PUSH2 0xA4D7 JUMP JUMPDEST POP PUSH1 0x20 DUP4 ADD MLOAD PUSH2 0xBA7B PUSH1 0x20 DUP7 ADD DUP3 PUSH2 0xA4E6 JUMP JUMPDEST POP PUSH1 0x40 DUP4 ADD MLOAD PUSH2 0xBA8E PUSH1 0x40 DUP7 ADD DUP3 PUSH2 0xA4E6 JUMP JUMPDEST POP PUSH1 0x60 DUP4 ADD MLOAD PUSH2 0xBAA1 PUSH1 0x60 DUP7 ADD DUP3 PUSH2 0xA4D7 JUMP JUMPDEST POP PUSH1 0x80 DUP4 ADD MLOAD DUP5 DUP3 SUB PUSH1 0x80 DUP7 ADD MSTORE PUSH2 0xBAB9 DUP3 DUP3 PUSH2 0xA8B0 JUMP JUMPDEST SWAP2 POP POP PUSH1 0xA0 DUP4 ADD MLOAD DUP5 DUP3 SUB PUSH1 0xA0 DUP7 ADD MSTORE PUSH2 0xBAD3 DUP3 DUP3 PUSH2 0xA8B0 JUMP JUMPDEST SWAP2 POP POP PUSH1 0xC0 DUP4 ADD MLOAD DUP5 DUP3 SUB PUSH1 0xC0 DUP7 ADD MSTORE PUSH2 0xBAED DUP3 DUP3 PUSH2 0xA958 JUMP JUMPDEST SWAP2 POP POP PUSH1 0xE0 DUP4 ADD MLOAD DUP5 DUP3 SUB PUSH1 0xE0 DUP7 ADD MSTORE PUSH2 0xBB07 DUP3 DUP3 PUSH2 0xA8B0 JUMP JUMPDEST SWAP2 POP POP PUSH2 0x100 DUP4 ADD MLOAD DUP5 DUP3 SUB PUSH2 0x100 DUP7 ADD MSTORE PUSH2 0xBB23 DUP3 DUP3 PUSH2 0xA8B0 JUMP JUMPDEST SWAP2 POP POP PUSH2 0x120 DUP4 ADD MLOAD DUP5 DUP3 SUB PUSH2 0x120 DUP7 ADD MSTORE PUSH2 0xBB3F DUP3 DUP3 PUSH2 0xA8B0 JUMP JUMPDEST SWAP2 POP POP PUSH2 0x140 DUP4 ADD MLOAD DUP5 DUP3 SUB PUSH2 0x140 DUP7 ADD MSTORE PUSH2 0xBB5B DUP3 DUP3 PUSH2 0xA8B0 JUMP JUMPDEST SWAP2 POP POP PUSH2 0x160 DUP4 ADD MLOAD PUSH2 0xBB72 PUSH2 0x160 DUP7 ADD DUP3 PUSH2 0xA4D7 JUMP JUMPDEST POP PUSH2 0x180 DUP4 ADD MLOAD PUSH2 0xBB87 PUSH2 0x180 DUP7 ADD DUP3 PUSH2 0xA9B4 JUMP JUMPDEST POP PUSH2 0x1A0 DUP4 ADD MLOAD PUSH2 0xBB9C PUSH2 0x1A0 DUP7 ADD DUP3 PUSH2 0xA9B4 JUMP JUMPDEST POP PUSH2 0x1C0 DUP4 ADD MLOAD PUSH2 0xBBB1 PUSH2 0x1C0 DUP7 ADD DUP3 PUSH2 0xA51E JUMP JUMPDEST POP PUSH2 0x1E0 DUP4 ADD MLOAD PUSH2 0xBBC6 PUSH2 0x1E0 DUP7 ADD DUP3 PUSH2 0xA4D7 JUMP JUMPDEST POP PUSH2 0x200 DUP4 ADD MLOAD PUSH2 0xBBDB PUSH2 0x200 DUP7 ADD DUP3 PUSH2 0xA4D7 JUMP JUMPDEST POP PUSH2 0x220 DUP4 ADD MLOAD PUSH2 0xBBF0 PUSH2 0x220 DUP7 ADD DUP3 PUSH2 0xA9B4 JUMP JUMPDEST POP PUSH2 0x240 DUP4 ADD MLOAD PUSH2 0xBC05 PUSH2 0x240 DUP7 ADD DUP3 PUSH2 0xA4D7 JUMP JUMPDEST POP DUP1 SWAP2 POP POP SWAP3 SWAP2 POP POP JUMP JUMPDEST PUSH0 PUSH1 0x20 DUP3 ADD SWAP1 POP DUP2 DUP2 SUB PUSH0 DUP4 ADD MSTORE PUSH2 0xBC28 DUP2 DUP5 PUSH2 0xBA52 JUMP JUMPDEST SWAP1 POP SWAP3 SWAP2 POP POP JUMP JUMPDEST PUSH0 PUSH2 0xBC3A DUP3 PUSH2 0xB112 JUMP JUMPDEST SWAP1 POP SWAP2 SWAP1 POP JUMP JUMPDEST PUSH2 0xBC4A DUP2 PUSH2 0xBC30 JUMP JUMPDEST DUP3 MSTORE POP POP JUMP JUMPDEST PUSH0 PUSH1 0x20 DUP3 ADD SWAP1 POP PUSH2 0xBC63 PUSH0 DUP4 ADD DUP5 PUSH2 0xBC41 JUMP JUMPDEST SWAP3 SWAP2 POP POP JUMP JUMPDEST PUSH0 PUSH2 0xBC73 DUP3 PUSH2 0xB112 JUMP JUMPDEST SWAP1 POP SWAP2 SWAP1 POP JUMP JUMPDEST PUSH2 0xBC83 DUP2 PUSH2 0xBC69 JUMP JUMPDEST DUP3 MSTORE POP POP JUMP JUMPDEST PUSH0 PUSH1 0x20 DUP3 ADD SWAP1 POP PUSH2 0xBC9C PUSH0 DUP4 ADD DUP5 PUSH2 0xBC7A JUMP JUMPDEST SWAP3 SWAP2 POP POP JUMP JUMPDEST PUSH0 PUSH2 0x120 DUP4 ADD PUSH0 DUP4 ADD MLOAD DUP5 DUP3 SUB PUSH0 DUP7 ADD MSTORE PUSH2 0xBCBD DUP3 DUP3 PUSH2 0xB567 JUMP JUMPDEST SWAP2 POP POP PUSH1 0x20 DUP4 ADD MLOAD DUP5 DUP3 SUB PUSH1 0x20 DUP7 ADD MSTORE PUSH2 0xBCD7 DUP3 DUP3 PUSH2 0xB567 JUMP JUMPDEST SWAP2 POP POP PUSH1 0x40 DUP4 ADD MLOAD DUP5 DUP3 SUB PUSH1 0x40 DUP7 ADD MSTORE PUSH2 0xBCF1 DUP3 DUP3 PUSH2 0xB567 JUMP JUMPDEST SWAP2 POP POP PUSH1 0x60 DUP4 ADD MLOAD DUP5 DUP3 SUB PUSH1 0x60 DUP7 ADD MSTORE PUSH2 0xBD0B DUP3 DUP3 PUSH2 0xB567 JUMP JUMPDEST SWAP2 POP POP PUSH1 0x80 DUP4 ADD MLOAD DUP5 DUP3 SUB PUSH1 0x80 DUP7 ADD MSTORE PUSH2 0xBD25 DUP3 DUP3 PUSH2 0xB567 JUMP JUMPDEST SWAP2 POP POP PUSH1 0xA0 DUP4 ADD MLOAD DUP5 DUP3 SUB PUSH1 0xA0 DUP7 ADD MSTORE PUSH2 0xBD3F DUP3 DUP3 PUSH2 0xB567 JUMP JUMPDEST SWAP2 POP POP PUSH1 0xC0 DUP4 ADD MLOAD DUP5 DUP3 SUB PUSH1 0xC0 DUP7 ADD MSTORE PUSH2 0xBD59 DUP3 DUP3 PUSH2 0xB567 JUMP JUMPDEST SWAP2 POP POP PUSH1 0xE0 DUP4 ADD MLOAD DUP5 DUP3 SUB PUSH1 0xE0 DUP7 ADD MSTORE PUSH2 0xBD73 DUP3 DUP3 PUSH2 0xB567 JUMP JUMPDEST SWAP2 POP POP PUSH2 0x100 DUP4 ADD MLOAD DUP5 DUP3 SUB PUSH2 0x100 DUP7 ADD MSTORE PUSH2 0xBD8F DUP3 DUP3 PUSH2 0xB567 JUMP JUMPDEST SWAP2 POP POP DUP1 SWAP2 POP POP SWAP3 SWAP2 POP POP JUMP JUMPDEST PUSH32 0x4E487B7100000000000000000000000000000000000000000000000000000000 PUSH0 MSTORE PUSH1 0x21 PUSH1 0x4 MSTORE PUSH1 0x24 PUSH0 REVERT JUMPDEST PUSH1 0x2 DUP2 LT PUSH2 0xBDDA JUMPI PUSH2 0xBDD9 PUSH2 0xBD9C JUMP JUMPDEST JUMPDEST POP JUMP JUMPDEST PUSH0 DUP2 SWAP1 POP PUSH2 0xBDEA DUP3 PUSH2 0xBDC9 JUMP JUMPDEST SWAP2 SWAP1 POP JUMP JUMPDEST PUSH0 PUSH2 0xBDF9 DUP3 PUSH2 0xBDDD JUMP JUMPDEST SWAP1 POP SWAP2 SWAP1 POP JUMP JUMPDEST PUSH2 0xBE09 DUP2 PUSH2 0xBDEF JUMP JUMPDEST DUP3 MSTORE POP POP JUMP JUMPDEST PUSH1 0x2 DUP2 LT PUSH2 0xBE20 JUMPI PUSH2 0xBE1F PUSH2 0xBD9C JUMP JUMPDEST JUMPDEST POP JUMP JUMPDEST PUSH0 DUP2 SWAP1 POP PUSH2 0xBE30 DUP3 PUSH2 0xBE0F JUMP JUMPDEST SWAP2 SWAP1 POP JUMP JUMPDEST PUSH0 PUSH2 0xBE3F DUP3 PUSH2 0xBE23 JUMP JUMPDEST SWAP1 POP SWAP2 SWAP1 POP JUMP JUMPDEST PUSH2 0xBE4F DUP2 PUSH2 0xBE35 JUMP JUMPDEST DUP3 MSTORE POP POP JUMP JUMPDEST PUSH1 0x80 DUP3 ADD PUSH0 DUP3 ADD MLOAD PUSH2 0xBE69 PUSH0 DUP6 ADD DUP3 PUSH2 0xA4D7 JUMP JUMPDEST POP PUSH1 0x20 DUP3 ADD MLOAD PUSH2 0xBE7C PUSH1 0x20 DUP6 ADD DUP3 PUSH2 0xA51E JUMP JUMPDEST POP PUSH1 0x40 DUP3 ADD MLOAD PUSH2 0xBE8F PUSH1 0x40 DUP6 ADD DUP3 PUSH2 0xBE00 JUMP JUMPDEST POP PUSH1 0x60 DUP3 ADD MLOAD PUSH2 0xBEA2 PUSH1 0x60 DUP6 ADD DUP3 PUSH2 0xBE46 JUMP JUMPDEST POP POP POP POP JUMP JUMPDEST PUSH0 PUSH1 0xC0 DUP3 ADD SWAP1 POP DUP2 DUP2 SUB PUSH0 DUP4 ADD MSTORE PUSH2 0xBEC0 DUP2 DUP7 PUSH2 0xBCA2 JUMP JUMPDEST SWAP1 POP PUSH2 0xBECF PUSH1 0x20 DUP4 ADD DUP6 PUSH2 0x9C23 JUMP JUMPDEST PUSH2 0xBEDC PUSH1 0x40 DUP4 ADD DUP5 PUSH2 0xBE55 JUMP JUMPDEST SWAP5 SWAP4 POP POP POP POP JUMP JUMPDEST PUSH0 PUSH1 0xA0 DUP3 DUP5 SUB SLT ISZERO PUSH2 0xBEF9 JUMPI PUSH2 0xBEF8 PUSH2 0x9D10 JUMP JUMPDEST JUMPDEST PUSH2 0xBF03 PUSH1 0xA0 PUSH2 0x9D82 JUMP JUMPDEST SWAP1 POP PUSH0 PUSH2 0xBF12 DUP5 DUP3 DUP6 ADD PUSH2 0x9BA5 JUMP JUMPDEST PUSH0 DUP4 ADD MSTORE POP PUSH1 0x20 PUSH2 0xBF25 DUP5 DUP3 DUP6 ADD PUSH2 0x9BA5 JUMP JUMPDEST PUSH1 0x20 DUP4 ADD MSTORE POP PUSH1 0x40 PUSH2 0xBF39 DUP5 DUP3 DUP6 ADD PUSH2 0x9BA5 JUMP JUMPDEST PUSH1 0x40 DUP4 ADD MSTORE POP PUSH1 0x60 PUSH2 0xBF4D DUP5 DUP3 DUP6 ADD PUSH2 0xA1D2 JUMP JUMPDEST PUSH1 0x60 DUP4 ADD MSTORE POP PUSH1 0x80 PUSH2 0xBF61 DUP5 DUP3 DUP6 ADD PUSH2 0x9BA5 JUMP JUMPDEST PUSH1 0x80 DUP4 ADD MSTORE POP SWAP3 SWAP2 POP POP JUMP JUMPDEST PUSH0 PUSH1 0xA0 DUP3 DUP5 SUB SLT ISZERO PUSH2 0xBF82 JUMPI PUSH2 0xBF81 PUSH2 0x9B7E JUMP JUMPDEST JUMPDEST PUSH0 PUSH2 0xBF8F DUP5 DUP3 DUP6 ADD PUSH2 0xBEE4 JUMP JUMPDEST SWAP2 POP POP SWAP3 SWAP2 POP POP JUMP JUMPDEST PUSH0 PUSH1 0xA0 DUP4 ADD PUSH0 DUP4 ADD MLOAD PUSH2 0xBFAD PUSH0 DUP7 ADD DUP3 PUSH2 0xA4D7 JUMP JUMPDEST POP PUSH1 0x20 DUP4 ADD MLOAD DUP5 DUP3 SUB PUSH1 0x20 DUP7 ADD MSTORE PUSH2 0xBFC5 DUP3 DUP3 PUSH2 0xAF41 JUMP JUMPDEST SWAP2 POP POP PUSH1 0x40 DUP4 ADD MLOAD PUSH2 0xBFDA PUSH1 0x40 DUP7 ADD DUP3 PUSH2 0xA4E6 JUMP JUMPDEST POP PUSH1 0x60 DUP4 ADD MLOAD PUSH2 0xBFED PUSH1 0x60 DUP7 ADD DUP3 PUSH2 0xAFB4 JUMP JUMPDEST POP PUSH1 0x80 DUP4 ADD MLOAD PUSH2 0xC000 PUSH1 0x80 DUP7 ADD DUP3 PUSH2 0xA4D7 JUMP JUMPDEST POP DUP1 SWAP2 POP POP SWAP3 SWAP2 POP POP JUMP JUMPDEST PUSH0 PUSH1 0x20 DUP3 ADD SWAP1 POP DUP2 DUP2 SUB PUSH0 DUP4 ADD MSTORE PUSH2 0xC023 DUP2 DUP5 PUSH2 0xBF98 JUMP JUMPDEST SWAP1 POP SWAP3 SWAP2 POP POP JUMP JUMPDEST PUSH0 PUSH1 0x80 DUP3 ADD SWAP1 POP PUSH2 0xC03E PUSH0 DUP4 ADD DUP8 PUSH2 0x9BE4 JUMP JUMPDEST PUSH2 0xC04B PUSH1 0x20 DUP4 ADD DUP7 PUSH2 0x9BE4 JUMP JUMPDEST PUSH2 0xC058 PUSH1 0x40 DUP4 ADD DUP6 PUSH2 0x9C23 JUMP JUMPDEST DUP2 DUP2 SUB PUSH1 0x60 DUP4 ADD MSTORE PUSH2 0xC06A DUP2 DUP5 PUSH2 0xBCA2 JUMP JUMPDEST SWAP1 POP SWAP6 SWAP5 POP POP POP POP POP JUMP JUMPDEST PUSH0 DUP2 MLOAD SWAP1 POP SWAP2 SWAP1 POP JUMP JUMPDEST PUSH0 DUP3 DUP3 MSTORE PUSH1 0x20 DUP3 ADD SWAP1 POP SWAP3 SWAP2 POP POP JUMP JUMPDEST PUSH0 DUP2 SWAP1 POP PUSH1 0x20 DUP3 ADD SWAP1 POP SWAP2 SWAP1 POP JUMP JUMPDEST PUSH0 DUP2 MLOAD SWAP1 POP SWAP2 SWAP1 POP JUMP JUMPDEST PUSH0 DUP3 DUP3 MSTORE PUSH1 0x20 DUP3 ADD SWAP1 POP SWAP3 SWAP2 POP POP JUMP JUMPDEST PUSH0 DUP2 SWAP1 POP PUSH1 0x20 DUP3 ADD SWAP1 POP SWAP2 SWAP1 POP JUMP JUMPDEST PUSH0 PUSH2 0xC0D2 DUP4 DUP4 PUSH2 0xB567 JUMP JUMPDEST SWAP1 POP SWAP3 SWAP2 POP POP JUMP JUMPDEST PUSH0 PUSH1 0x20 DUP3 ADD SWAP1 POP SWAP2 SWAP1 POP JUMP JUMPDEST PUSH0 PUSH2 0xC0F0 DUP3 PUSH2 0xC09E JUMP JUMPDEST PUSH2 0xC0FA DUP2 DUP6 PUSH2 0xC0A8 JUMP JUMPDEST SWAP4 POP DUP4 PUSH1 0x20 DUP3 MUL DUP6 ADD PUSH2 0xC10C DUP6 PUSH2 0xC0B8 JUMP JUMPDEST DUP1 PUSH0 JUMPDEST DUP6 DUP2 LT ISZERO PUSH2 0xC147 JUMPI DUP5 DUP5 SUB DUP10 MSTORE DUP2 MLOAD PUSH2 0xC128 DUP6 DUP3 PUSH2 0xC0C7 JUMP JUMPDEST SWAP5 POP PUSH2 0xC133 DUP4 PUSH2 0xC0DA JUMP JUMPDEST SWAP3 POP PUSH1 0x20 DUP11 ADD SWAP10 POP POP PUSH1 0x1 DUP2 ADD SWAP1 POP PUSH2 0xC10F JUMP JUMPDEST POP DUP3 SWAP8 POP DUP8 SWAP6 POP POP POP POP POP POP SWAP3 SWAP2 POP POP JUMP JUMPDEST PUSH0 PUSH1 0xA0 DUP4 ADD PUSH0 DUP4 ADD MLOAD PUSH2 0xC16E PUSH0 DUP7 ADD DUP3 PUSH2 0xA4D7 JUMP JUMPDEST POP PUSH1 0x20 DUP4 ADD MLOAD PUSH2 0xC181 PUSH1 0x20 DUP7 ADD DUP3 PUSH2 0xA4D7 JUMP JUMPDEST POP PUSH1 0x40 DUP4 ADD MLOAD PUSH2 0xC194 PUSH1 0x40 DUP7 ADD DUP3 PUSH2 0xA51E JUMP JUMPDEST POP PUSH1 0x60 DUP4 ADD MLOAD PUSH2 0xC1A7 PUSH1 0x60 DUP7 ADD DUP3 PUSH2 0xA4D7 JUMP JUMPDEST POP PUSH1 0x80 DUP4 ADD MLOAD DUP5 DUP3 SUB PUSH1 0x80 DUP7 ADD MSTORE PUSH2 0xC1BF DUP3 DUP3 PUSH2 0xC0E6 JUMP JUMPDEST SWAP2 POP POP DUP1 SWAP2 POP POP SWAP3 SWAP2 POP POP JUMP JUMPDEST PUSH0 PUSH2 0xC1D7 DUP4 DUP4 PUSH2 0xC159 JUMP JUMPDEST SWAP1 POP SWAP3 SWAP2 POP POP JUMP JUMPDEST PUSH0 PUSH1 0x20 DUP3 ADD SWAP1 POP SWAP2 SWAP1 POP JUMP JUMPDEST PUSH0 PUSH2 0xC1F5 DUP3 PUSH2 0xC075 JUMP JUMPDEST PUSH2 0xC1FF DUP2 DUP6 PUSH2 0xC07F JUMP JUMPDEST SWAP4 POP DUP4 PUSH1 0x20 DUP3 MUL DUP6 ADD PUSH2 0xC211 DUP6 PUSH2 0xC08F JUMP JUMPDEST DUP1 PUSH0 JUMPDEST DUP6 DUP2 LT ISZERO PUSH2 0xC24C JUMPI DUP5 DUP5 SUB DUP10 MSTORE DUP2 MLOAD PUSH2 0xC22D DUP6 DUP3 PUSH2 0xC1CC JUMP JUMPDEST SWAP5 POP PUSH2 0xC238 DUP4 PUSH2 0xC1DF JUMP JUMPDEST SWAP3 POP PUSH1 0x20 DUP11 ADD SWAP10 POP POP PUSH1 0x1 DUP2 ADD SWAP1 POP PUSH2 0xC214 JUMP JUMPDEST POP DUP3 SWAP8 POP DUP8 SWAP6 POP POP POP POP POP POP SWAP3 SWAP2 POP POP JUMP JUMPDEST PUSH1 0x80 DUP3 ADD PUSH0 DUP3 ADD MLOAD PUSH2 0xC272 PUSH0 DUP6 ADD DUP3 PUSH2 0xA4D7 JUMP JUMPDEST POP PUSH1 0x20 DUP3 ADD MLOAD PUSH2 0xC285 PUSH1 0x20 DUP6 ADD DUP3 PUSH2 0xA51E JUMP JUMPDEST POP PUSH1 0x40 DUP3 ADD MLOAD PUSH2 0xC298 PUSH1 0x40 DUP6 ADD DUP3 PUSH2 0xBE00 JUMP JUMPDEST POP PUSH1 0x60 DUP3 ADD MLOAD PUSH2 0xC2AB PUSH1 0x60 DUP6 ADD DUP3 PUSH2 0xBE46 JUMP JUMPDEST POP POP POP POP JUMP JUMPDEST PUSH0 PUSH1 0xE0 DUP4 ADD PUSH0 DUP4 ADD MLOAD DUP5 DUP3 SUB PUSH0 DUP7 ADD MSTORE PUSH2 0xC2CB DUP3 DUP3 PUSH2 0xC1EB JUMP JUMPDEST SWAP2 POP POP PUSH1 0x20 DUP4 ADD MLOAD DUP5 DUP3 SUB PUSH1 0x20 DUP7 ADD MSTORE PUSH2 0xC2E5 DUP3 DUP3 PUSH2 0xB59F JUMP JUMPDEST SWAP2 POP POP PUSH1 0x40 DUP4 ADD MLOAD PUSH2 0xC2FA PUSH1 0x40 DUP7 ADD DUP3 PUSH2 0xA4E6 JUMP JUMPDEST POP PUSH1 0x60 DUP4 ADD MLOAD PUSH2 0xC30D PUSH1 0x60 DUP7 ADD DUP3 PUSH2 0xC25E JUMP JUMPDEST POP DUP1 SWAP2 POP POP SWAP3 SWAP2 POP POP JUMP JUMPDEST PUSH0 PUSH1 0x20 DUP3 ADD SWAP1 POP DUP2 DUP2 SUB PUSH0 DUP4 ADD MSTORE PUSH2 0xC330 DUP2 DUP5 PUSH2 0xC2B1 JUMP JUMPDEST SWAP1 POP SWAP3 SWAP2 POP POP JUMP JUMPDEST PUSH0 PUSH2 0xC342 DUP3 PUSH2 0xB112 JUMP JUMPDEST SWAP1 POP SWAP2 SWAP1 POP JUMP JUMPDEST PUSH2 0xC352 DUP2 PUSH2 0xC338 JUMP JUMPDEST DUP3 MSTORE POP POP JUMP JUMPDEST PUSH0 PUSH1 0x20 DUP3 ADD SWAP1 POP PUSH2 0xC36B PUSH0 DUP4 ADD DUP5 PUSH2 0xC349 JUMP JUMPDEST SWAP3 SWAP2 POP POP JUMP JUMPDEST PUSH0 PUSH8 0xFFFFFFFFFFFFFFFF DUP3 GT ISZERO PUSH2 0xC38B JUMPI PUSH2 0xC38A PUSH2 0x9D24 JUMP JUMPDEST JUMPDEST PUSH1 0x20 DUP3 MUL SWAP1 POP PUSH1 0x20 DUP2 ADD SWAP1 POP SWAP2 SWAP1 POP JUMP JUMPDEST PUSH0 PUSH1 0x40 DUP3 DUP5 SUB SLT ISZERO PUSH2 0xC3B1 JUMPI PUSH2 0xC3B0 PUSH2 0x9D10 JUMP JUMPDEST JUMPDEST PUSH2 0xC3BB PUSH1 0x40 PUSH2 0x9D82 JUMP JUMPDEST SWAP1 POP PUSH0 PUSH2 0xC3CA DUP5 DUP3 DUP6 ADD PUSH2 0x9BA5 JUMP JUMPDEST PUSH0 DUP4 ADD MSTORE POP PUSH1 0x20 PUSH2 0xC3DD DUP5 DUP3 DUP6 ADD PUSH2 0x9BA5 JUMP JUMPDEST PUSH1 0x20 DUP4 ADD MSTORE POP SWAP3 SWAP2 POP POP JUMP JUMPDEST PUSH0 PUSH2 0xC3FB PUSH2 0xC3F6 DUP5 PUSH2 0xC371 JUMP JUMPDEST PUSH2 0x9D82 JUMP JUMPDEST SWAP1 POP DUP1 DUP4 DUP3 MSTORE PUSH1 0x20 DUP3 ADD SWAP1 POP PUSH1 0x40 DUP5 MUL DUP4 ADD DUP6 DUP2 GT ISZERO PUSH2 0xC41E JUMPI PUSH2 0xC41D PUSH2 0xA0C4 JUMP JUMPDEST JUMPDEST DUP4 JUMPDEST DUP2 DUP2 LT ISZERO PUSH2 0xC447 JUMPI DUP1 PUSH2 0xC433 DUP9 DUP3 PUSH2 0xC39C JUMP JUMPDEST DUP5 MSTORE PUSH1 0x20 DUP5 ADD SWAP4 POP POP PUSH1 0x40 DUP2 ADD SWAP1 POP PUSH2 0xC420 JUMP JUMPDEST POP POP POP SWAP4 SWAP3 POP POP POP JUMP JUMPDEST PUSH0 DUP3 PUSH1 0x1F DUP4 ADD SLT PUSH2 0xC465 JUMPI PUSH2 0xC464 PUSH2 0x9DA0 JUMP JUMPDEST JUMPDEST DUP2 CALLDATALOAD PUSH2 0xC475 DUP5 DUP3 PUSH1 0x20 DUP7 ADD PUSH2 0xC3E9 JUMP JUMPDEST SWAP2 POP POP SWAP3 SWAP2 POP POP JUMP JUMPDEST PUSH0 PUSH1 0x20 DUP3 DUP5 SUB SLT ISZERO PUSH2 0xC493 JUMPI PUSH2 0xC492 PUSH2 0x9B7E JUMP JUMPDEST JUMPDEST PUSH0 DUP3 ADD CALLDATALOAD PUSH8 0xFFFFFFFFFFFFFFFF DUP2 GT ISZERO PUSH2 0xC4B0 JUMPI PUSH2 0xC4AF PUSH2 0x9B82 JUMP JUMPDEST JUMPDEST PUSH2 0xC4BC DUP5 DUP3 DUP6 ADD PUSH2 0xC451 JUMP JUMPDEST SWAP2 POP POP SWAP3 SWAP2 POP POP JUMP JUMPDEST PUSH32 0x4E487B7100000000000000000000000000000000000000000000000000000000 PUSH0 MSTORE PUSH1 0x11 PUSH1 0x4 MSTORE PUSH1 0x24 PUSH0 REVERT JUMPDEST PUSH0 PUSH2 0xC4FC DUP3 PUSH2 0x9B86 JUMP JUMPDEST SWAP2 POP PUSH32 0xFFFFFFFFFFFFFFFFFFFFFFFFFFFFFFFFFFFFFFFFFFFFFFFFFFFFFFFFFFFFFFFF DUP3 SUB PUSH2 0xC52E JUMPI PUSH2 0xC52D PUSH2 0xC4C5 JUMP JUMPDEST JUMPDEST PUSH1 0x1 DUP3 ADD SWAP1 POP SWAP2 SWAP1 POP JUMP JUMPDEST PUSH32 0x4E487B7100000000000000000000000000000000000000000000000000000000 PUSH0 MSTORE PUSH1 0x22 PUSH1 0x4 MSTORE PUSH1 0x24 PUSH0 REVERT JUMPDEST PUSH0 PUSH1 0x2 DUP3 DIV SWAP1 POP PUSH1 0x1 DUP3 AND DUP1 PUSH2 0xC57D JUMPI PUSH1 0x7F DUP3 AND SWAP2 POP JUMPDEST PUSH1 0x20 DUP3 LT DUP2 SUB PUSH2 0xC590 JUMPI PUSH2 0xC58F PUSH2 0xC539 JUMP JUMPDEST JUMPDEST POP SWAP2 SWAP1 POP JUMP JUMPDEST PUSH0 DUP2 SWAP1 POP DUP2 PUSH0 MSTORE PUSH1 0x20 PUSH0 KECCAK256 SWAP1 POP SWAP2 SWAP1 POP JUMP JUMPDEST PUSH0 PUSH1 0x20 PUSH1 0x1F DUP4 ADD DIV SWAP1 POP SWAP2 SWAP1 POP JUMP JUMPDEST PUSH0 DUP3 DUP3 SHL SWAP1 POP SWAP3 SWAP2 POP POP JUMP JUMPDEST PUSH0 PUSH1 0x8 DUP4 MUL PUSH2 0xC5F2 PUSH32 0xFFFFFFFFFFFFFFFFFFFFFFFFFFFFFFFFFFFFFFFFFFFFFFFFFFFFFFFFFFFFFFFF DUP3 PUSH2 0xC5B7 JUMP JUMPDEST PUSH2 0xC5FC DUP7 DUP4 PUSH2 0xC5B7 JUMP JUMPDEST SWAP6 POP DUP1 NOT DUP5 AND SWAP4 POP DUP1 DUP7 AND DUP5 OR SWAP3 POP POP POP SWAP4 SWAP3 POP POP POP JUMP JUMPDEST PUSH0 PUSH2 0xC62E PUSH2 0xC629 PUSH2 0xC624 DUP5 PUSH2 0x9B86 JUMP JUMPDEST PUSH2 0xB0E8 JUMP JUMPDEST PUSH2 0x9B86 JUMP JUMPDEST SWAP1 POP SWAP2 SWAP1 POP JUMP JUMPDEST PUSH0 DUP2 SWAP1 POP SWAP2 SWAP1 POP JUMP JUMPDEST PUSH2 0xC647 DUP4 PUSH2 0xC614 JUMP JUMPDEST PUSH2 0xC65B PUSH2 0xC653 DUP3 PUSH2 0xC635 JUMP JUMPDEST DUP5 DUP5 SLOAD PUSH2 0xC5C3 JUMP JUMPDEST DUP3 SSTORE POP POP POP POP JUMP JUMPDEST PUSH0 SWAP1 JUMP JUMPDEST PUSH2 0xC66F PUSH2 0xC663 JUMP JUMPDEST PUSH2 0xC67A DUP2 DUP5 DUP5 PUSH2 0xC63E JUMP JUMPDEST POP POP POP JUMP JUMPDEST JUMPDEST DUP2 DUP2 LT ISZERO PUSH2 0xC69D JUMPI PUSH2 0xC692 PUSH0 DUP3 PUSH2 0xC667 JUMP JUMPDEST PUSH1 0x1 DUP2 ADD SWAP1 POP PUSH2 0xC680 JUMP JUMPDEST POP POP JUMP JUMPDEST PUSH1 0x1F DUP3 GT ISZERO PUSH2 0xC6E2 JUMPI PUSH2 0xC6B3 DUP2 PUSH2 0xC596 JUMP JUMPDEST PUSH2 0xC6BC DUP5 PUSH2 0xC5A8 JUMP JUMPDEST DUP2 ADD PUSH1 0x20 DUP6 LT ISZERO PUSH2 0xC6CB JUMPI DUP2 SWAP1 POP JUMPDEST PUSH2 0xC6DF PUSH2 0xC6D7 DUP6 PUSH2 0xC5A8 JUMP JUMPDEST DUP4 ADD DUP3 PUSH2 0xC67F JUMP JUMPDEST POP POP JUMPDEST POP POP POP JUMP JUMPDEST PUSH0 DUP3 DUP3 SHR SWAP1 POP SWAP3 SWAP2 POP POP JUMP JUMPDEST PUSH0 PUSH2 0xC702 PUSH0 NOT DUP5 PUSH1 0x8 MUL PUSH2 0xC6E7 JUMP JUMPDEST NOT DUP1 DUP4 AND SWAP2 POP POP SWAP3 SWAP2 POP POP JUMP JUMPDEST PUSH0 PUSH2 0xC71A DUP4 DUP4 PUSH2 0xC6F3 JUMP JUMPDEST SWAP2 POP DUP3 PUSH1 0x2 MUL DUP3 OR SWAP1 POP SWAP3 SWAP2 POP POP JUMP JUMPDEST PUSH2 0xC733 DUP3 PUSH2 0xA6D9 JUMP JUMPDEST PUSH8 0xFFFFFFFFFFFFFFFF DUP2 GT ISZERO PUSH2 0xC74C JUMPI PUSH2 0xC74B PUSH2 0x9D24 JUMP JUMPDEST JUMPDEST PUSH2 0xC756 DUP3 SLOAD PUSH2 0xC566 JUMP JUMPDEST PUSH2 0xC761 DUP3 DUP3 DUP6 PUSH2 0xC6A1 JUMP JUMPDEST PUSH0 PUSH1 0x20 SWAP1 POP PUSH1 0x1F DUP4 GT PUSH1 0x1 DUP2 EQ PUSH2 0xC792 JUMPI PUSH0 DUP5 ISZERO PUSH2 0xC780 JUMPI DUP3 DUP8 ADD MLOAD SWAP1 POP JUMPDEST PUSH2 0xC78A DUP6 DUP3 PUSH2 0xC70F JUMP JUMPDEST DUP7 SSTORE POP PUSH2 0xC7F1 JUMP JUMPDEST PUSH1 0x1F NOT DUP5 AND PUSH2 0xC7A0 DUP7 PUSH2 0xC596 JUMP JUMPDEST PUSH0 JUMPDEST DUP3 DUP2 LT ISZERO PUSH2 0xC7C7 JUMPI DUP5 DUP10 ADD MLOAD DUP3 SSTORE PUSH1 0x1 DUP3 ADD SWAP2 POP PUSH1 0x20 DUP6 ADD SWAP5 POP PUSH1 0x20 DUP2 ADD SWAP1 POP PUSH2 0xC7A2 JUMP JUMPDEST DUP7 DUP4 LT ISZERO PUSH2 0xC7E4 JUMPI DUP5 DUP10 ADD MLOAD PUSH2 0xC7E0 PUSH1 0x1F DUP10 AND DUP3 PUSH2 0xC6F3 JUMP JUMPDEST DUP4 SSTORE POP JUMPDEST PUSH1 0x1 PUSH1 0x2 DUP9 MUL ADD DUP9 SSTORE POP POP POP JUMPDEST POP POP POP POP POP POP JUMP JUMPDEST PUSH0 PUSH2 0x180 DUP3 ADD SWAP1 POP PUSH2 0xC80D PUSH0 DUP4 ADD DUP16 PUSH2 0x9BE4 JUMP JUMPDEST PUSH2 0xC81A PUSH1 0x20 DUP4 ADD DUP15 PUSH2 0x9BE4 JUMP JUMPDEST PUSH2 0xC827 PUSH1 0x40 DUP4 ADD DUP14 PUSH2 0x9C23 JUMP JUMPDEST DUP2 DUP2 SUB PUSH1 0x60 DUP4 ADD MSTORE PUSH2 0xC839 DUP2 DUP13 PUSH2 0xA701 JUMP JUMPDEST SWAP1 POP DUP2 DUP2 SUB PUSH1 0x80 DUP4 ADD MSTORE PUSH2 0xC84D DUP2 DUP12 PUSH2 0xA701 JUMP JUMPDEST SWAP1 POP DUP2 DUP2 SUB PUSH1 0xA0 DUP4 ADD MSTORE PUSH2 0xC861 DUP2 DUP11 PUSH2 0xA701 JUMP JUMPDEST SWAP1 POP DUP2 DUP2 SUB PUSH1 0xC0 DUP4 ADD MSTORE PUSH2 0xC875 DUP2 DUP10 PUSH2 0xA701 JUMP JUMPDEST SWAP1 POP DUP2 DUP2 SUB PUSH1 0xE0 DUP4 ADD MSTORE PUSH2 0xC889 DUP2 DUP9 PUSH2 0xA701 JUMP JUMPDEST SWAP1 POP DUP2 DUP2 SUB PUSH2 0x100 DUP4 ADD MSTORE PUSH2 0xC89E DUP2 DUP8 PUSH2 0xA701 JUMP JUMPDEST SWAP1 POP DUP2 DUP2 SUB PUSH2 0x120 DUP4 ADD MSTORE PUSH2 0xC8B3 DUP2 DUP7 PUSH2 0xA701 JUMP JUMPDEST SWAP1 POP DUP2 DUP2 SUB PUSH2 0x140 DUP4 ADD MSTORE PUSH2 0xC8C8 DUP2 DUP6 PUSH2 0xA701 JUMP JUMPDEST SWAP1 POP DUP2 DUP2 SUB PUSH2 0x160 DUP4 ADD MSTORE PUSH2 0xC8DD DUP2 DUP5 PUSH2 0xA701 JUMP JUMPDEST SWAP1 POP SWAP14 SWAP13 POP POP POP POP POP POP POP POP POP POP POP POP POP JUMP JUMPDEST PUSH32 0x7B2266726F6D223A202245636F6D50726F647563742E736F6C222C22636F6465 PUSH0 DUP3 ADD MSTORE PUSH32 0x223A20313030322C20226D657373616765223A22596F7520617265206E6F7420 PUSH1 0x20 DUP3 ADD MSTORE PUSH32 0x6F776E6572206F66207468652073686172656C696E6B227D0000000000000000 PUSH1 0x40 DUP3 ADD MSTORE POP JUMP JUMPDEST PUSH0 PUSH2 0xC970 PUSH1 0x58 DUP4 PUSH2 0xA6E3 JUMP JUMPDEST SWAP2 POP PUSH2 0xC97B DUP3 PUSH2 0xC8F0 JUMP JUMPDEST PUSH1 0x60 DUP3 ADD SWAP1 POP SWAP2 SWAP1 POP JUMP JUMPDEST PUSH0 PUSH1 0x20 DUP3 ADD SWAP1 POP DUP2 DUP2 SUB PUSH0 DUP4 ADD MSTORE PUSH2 0xC99D DUP2 PUSH2 0xC964 JUMP JUMPDEST SWAP1 POP SWAP2 SWAP1 POP JUMP JUMPDEST PUSH32 0x7B2266726F6D223A202245636F6D50726F647563742E736F6C222C22636F6465 PUSH0 DUP3 ADD MSTORE PUSH32 0x223A20313030332C20226D657373616765223A22496E76616C69642073686172 PUSH1 0x20 DUP3 ADD MSTORE PUSH32 0x656C696E6B206F7220616C7265616479206578656375746564227D0000000000 PUSH1 0x40 DUP3 ADD MSTORE POP JUMP JUMPDEST PUSH0 PUSH2 0xCA24 PUSH1 0x5B DUP4 PUSH2 0xA6E3 JUMP JUMPDEST SWAP2 POP PUSH2 0xCA2F DUP3 PUSH2 0xC9A4 JUMP JUMPDEST PUSH1 0x60 DUP3 ADD SWAP1 POP SWAP2 SWAP1 POP JUMP JUMPDEST PUSH0 PUSH1 0x20 DUP3 ADD SWAP1 POP DUP2 DUP2 SUB PUSH0 DUP4 ADD MSTORE PUSH2 0xCA51 DUP2 PUSH2 0xCA18 JUMP JUMPDEST SWAP1 POP SWAP2 SWAP1 POP JUMP JUMPDEST PUSH32 0x4E487B7100000000000000000000000000000000000000000000000000000000 PUSH0 MSTORE PUSH1 0x32 PUSH1 0x4 MSTORE PUSH1 0x24 PUSH0 REVERT JUMPDEST PUSH0 DUP2 SWAP1 POP SWAP3 SWAP2 POP POP JUMP JUMPDEST PUSH32 0x7B2266726F6D223A202245636F6D4F726465722E736F6C222C00000000000000 PUSH0 DUP3 ADD MSTORE POP JUMP JUMPDEST PUSH0 PUSH2 0xCAC3 PUSH1 0x19 DUP4 PUSH2 0xCA85 JUMP JUMPDEST SWAP2 POP PUSH2 0xCACE DUP3 PUSH2 0xCA8F JUMP JUMPDEST PUSH1 0x19 DUP3 ADD SWAP1 POP SWAP2 SWAP1 POP JUMP JUMPDEST PUSH32 0x22636F6465223A20000000000000000000000000000000000000000000000000 PUSH0 DUP3 ADD MSTORE POP JUMP JUMPDEST PUSH0 PUSH2 0xCB0D PUSH1 0x8 DUP4 PUSH2 0xCA85 JUMP JUMPDEST SWAP2 POP PUSH2 0xCB18 DUP3 PUSH2 0xCAD9 JUMP JUMPDEST PUSH1 0x8 DUP3 ADD SWAP1 POP SWAP2 SWAP1 POP JUMP JUMPDEST PUSH0 PUSH2 0xCB2D DUP3 PUSH2 0xA6D9 JUMP JUMPDEST PUSH2 0xCB37 DUP2 DUP6 PUSH2 0xCA85 JUMP JUMPDEST SWAP4 POP PUSH2 0xCB47 DUP2 DUP6 PUSH1 0x20 DUP7 ADD PUSH2 0xA6F3 JUMP JUMPDEST DUP1 DUP5 ADD SWAP2 POP POP SWAP3 SWAP2 POP POP JUMP JUMPDEST PUSH32 0x2C20000000000000000000000000000000000000000000000000000000000000 PUSH0 DUP3 ADD MSTORE POP JUMP JUMPDEST PUSH0 PUSH2 0xCB87 PUSH1 0x2 DUP4 PUSH2 0xCA85 JUMP JUMPDEST SWAP2 POP PUSH2 0xCB92 DUP3 PUSH2 0xCB53 JUMP JUMPDEST PUSH1 0x2 DUP3 ADD SWAP1 POP SWAP2 SWAP1 POP JUMP JUMPDEST PUSH32 0x226D657373616765223A20220000000000000000000000000000000000000000 PUSH0 DUP3 ADD MSTORE POP JUMP JUMPDEST PUSH0 PUSH2 0xCBD1 PUSH1 0xC DUP4 PUSH2 0xCA85 JUMP JUMPDEST SWAP2 POP PUSH2 0xCBDC DUP3 PUSH2 0xCB9D JUMP JUMPDEST PUSH1 0xC DUP3 ADD SWAP1 POP SWAP2 SWAP1 POP JUMP JUMPDEST PUSH32 0x227D000000000000000000000000000000000000000000000000000000000000 PUSH0 DUP3 ADD MSTORE POP JUMP JUMPDEST PUSH0 PUSH2 0xCC1B PUSH1 0x2 DUP4 PUSH2 0xCA85 JUMP JUMPDEST SWAP2 POP PUSH2 0xCC26 DUP3 PUSH2 0xCBE7 JUMP JUMPDEST PUSH1 0x2 DUP3 ADD SWAP1 POP SWAP2 SWAP1 POP JUMP JUMPDEST PUSH0 PUSH2 0xCC3B DUP3 PUSH2 0xCAB7 JUMP JUMPDEST SWAP2 POP PUSH2 0xCC46 DUP3 PUSH2 0xCB01 JUMP JUMPDEST SWAP2 POP PUSH2 0xCC52 DUP3 DUP6 PUSH2 0xCB23 JUMP JUMPDEST SWAP2 POP PUSH2 0xCC5D DUP3 PUSH2 0xCB7B JUMP JUMPDEST SWAP2 POP PUSH2 0xCC68 DUP3 PUSH2 0xCBC5 JUMP JUMPDEST SWAP2 POP PUSH2 0xCC74 DUP3 DUP5 PUSH2 0xCB23 JUMP JUMPDEST SWAP2 POP PUSH2 0xCC7F DUP3 PUSH2 0xCC0F JUMP JUMPDEST SWAP2 POP DUP2 SWAP1 POP SWAP4 SWAP3 POP POP POP JUMP JUMPDEST PUSH32 0x7B2266726F6D223A202245636F6D4F726465722E736F6C222C22636F6465223A PUSH0 DUP3 ADD MSTORE PUSH32 0x2035352C20226D657373616765223A2022596F7520617265206E6F7420616C6C PUSH1 0x20 DUP3 ADD MSTORE PUSH32 0x6F7765642E227D00000000000000000000000000000000000000000000000000 PUSH1 0x40 DUP3 ADD MSTORE POP JUMP JUMPDEST PUSH0 PUSH2 0xCD0B PUSH1 0x47 DUP4 PUSH2 0xA6E3 JUMP JUMPDEST SWAP2 POP PUSH2 0xCD16 DUP3 PUSH2 0xCC8B JUMP JUMPDEST PUSH1 0x60 DUP3 ADD SWAP1 POP SWAP2 SWAP1 POP JUMP JUMPDEST PUSH0 PUSH1 0x20 DUP3 ADD SWAP1 POP DUP2 DUP2 SUB PUSH0 DUP4 ADD MSTORE PUSH2 0xCD38 DUP2 PUSH2 0xCCFF JUMP JUMPDEST SWAP1 POP SWAP2 SWAP1 POP JUMP JUMPDEST PUSH32 0x496E76616C6964206F7264657220636F64650000000000000000000000000000 PUSH0 DUP3 ADD MSTORE POP JUMP JUMPDEST PUSH0 PUSH2 0xCD73 PUSH1 0x12 DUP4 PUSH2 0xA6E3 JUMP JUMPDEST SWAP2 POP PUSH2 0xCD7E DUP3 PUSH2 0xCD3F JUMP JUMPDEST PUSH1 0x20 DUP3 ADD SWAP1 POP SWAP2 SWAP1 POP JUMP JUMPDEST PUSH0 PUSH1 0x20 DUP3 ADD SWAP1 POP DUP2 DUP2 SUB PUSH0 DUP4 ADD MSTORE PUSH2 0xCDA0 DUP2 PUSH2 0xCD67 JUMP JUMPDEST SWAP1 POP SWAP2 SWAP1 POP JUMP JUMPDEST PUSH32 0x496E76616C6964206F726465722073746174757320666F722075706461746500 PUSH0 DUP3 ADD MSTORE POP JUMP JUMPDEST PUSH0 PUSH2 0xCDDB PUSH1 0x1F DUP4 PUSH2 0xA6E3 JUMP JUMPDEST SWAP2 POP PUSH2 0xCDE6 DUP3 PUSH2 0xCDA7 JUMP JUMPDEST PUSH1 0x20 DUP3 ADD SWAP1 POP SWAP2 SWAP1 POP JUMP JUMPDEST PUSH0 PUSH1 0x20 DUP3 ADD SWAP1 POP DUP2 DUP2 SUB PUSH0 DUP4 ADD MSTORE PUSH2 0xCE08 DUP2 PUSH2 0xCDCF JUMP JUMPDEST SWAP1 POP SWAP2 SWAP1 POP JUMP JUMPDEST PUSH32 0x4E657720737461747573206973207468652073616D652061732063757272656E PUSH0 DUP3 ADD MSTORE PUSH32 0x7420737461747573000000000000000000000000000000000000000000000000 PUSH1 0x20 DUP3 ADD MSTORE POP JUMP JUMPDEST PUSH0 PUSH2 0xCE69 PUSH1 0x28 DUP4 PUSH2 0xA6E3 JUMP JUMPDEST SWAP2 POP PUSH2 0xCE74 DUP3 PUSH2 0xCE0F JUMP JUMPDEST PUSH1 0x40 DUP3 ADD SWAP1 POP SWAP2 SWAP1 POP JUMP JUMPDEST PUSH0 PUSH1 0x20 DUP3 ADD SWAP1 POP DUP2 DUP2 SUB PUSH0 DUP4 ADD MSTORE PUSH2 0xCE96 DUP2 PUSH2 0xCE5D JUMP JUMPDEST SWAP1 POP SWAP2 SWAP1 POP JUMP JUMPDEST PUSH0 PUSH1 0x20 DUP3 ADD SWAP1 POP PUSH2 0xCEB0 PUSH0 DUP4 ADD DUP5 PUSH2 0xA765 JUMP JUMPDEST SWAP3 SWAP2 POP POP JUMP JUMPDEST PUSH0 DUP2 MLOAD SWAP1 POP PUSH2 0xCEC4 DUP2 PUSH2 0x9B8F JUMP JUMPDEST SWAP3 SWAP2 POP POP JUMP JUMPDEST PUSH0 PUSH1 0x20 DUP3 DUP5 SUB SLT ISZERO PUSH2 0xCEDF JUMPI PUSH2 0xCEDE PUSH2 0x9B7E JUMP JUMPDEST JUMPDEST PUSH0 PUSH2 0xCEEC DUP5 DUP3 DUP6 ADD PUSH2 0xCEB6 JUMP JUMPDEST SWAP2 POP POP SWAP3 SWAP2 POP POP JUMP JUMPDEST PUSH0 PUSH2 0xCF07 PUSH2 0xCF02 DUP5 PUSH2 0x9DA8 JUMP JUMPDEST PUSH2 0x9D82 JUMP JUMPDEST SWAP1 POP DUP3 DUP2 MSTORE PUSH1 0x20 DUP2 ADD DUP5 DUP5 DUP5 ADD GT ISZERO PUSH2 0xCF23 JUMPI PUSH2 0xCF22 PUSH2 0x9DA4 JUMP JUMPDEST JUMPDEST PUSH2 0xCF2E DUP5 DUP3 DUP6 PUSH2 0xA6F3 JUMP JUMPDEST POP SWAP4 SWAP3 POP POP POP JUMP JUMPDEST PUSH0 DUP3 PUSH1 0x1F DUP4 ADD SLT PUSH2 0xCF4A JUMPI PUSH2 0xCF49 PUSH2 0x9DA0 JUMP JUMPDEST JUMPDEST DUP2 MLOAD PUSH2 0xCF5A DUP5 DUP3 PUSH1 0x20 DUP7 ADD PUSH2 0xCEF5 JUMP JUMPDEST SWAP2 POP POP SWAP3 SWAP2 POP POP JUMP JUMPDEST PUSH0 PUSH2 0xCF75 PUSH2 0xCF70 DUP5 PUSH2 0xA0C8 JUMP JUMPDEST PUSH2 0x9D82 JUMP JUMPDEST SWAP1 POP DUP1 DUP4 DUP3 MSTORE PUSH1 0x20 DUP3 ADD SWAP1 POP PUSH1 0x20 DUP5 MUL DUP4 ADD DUP6 DUP2 GT ISZERO PUSH2 0xCF98 JUMPI PUSH2 0xCF97 PUSH2 0xA0C4 JUMP JUMPDEST JUMPDEST DUP4 JUMPDEST DUP2 DUP2 LT ISZERO PUSH2 0xCFC1 JUMPI DUP1 PUSH2 0xCFAD DUP9 DUP3 PUSH2 0xCEB6 JUMP JUMPDEST DUP5 MSTORE PUSH1 0x20 DUP5 ADD SWAP4 POP POP PUSH1 0x20 DUP2 ADD SWAP1 POP PUSH2 0xCF9A JUMP JUMPDEST POP POP POP SWAP4 SWAP3 POP POP POP JUMP JUMPDEST PUSH0 DUP3 PUSH1 0x1F DUP4 ADD SLT PUSH2 0xCFDF JUMPI PUSH2 0xCFDE PUSH2 0x9DA0 JUMP JUMPDEST JUMPDEST DUP2 MLOAD PUSH2 0xCFEF DUP5 DUP3 PUSH1 0x20 DUP7 ADD PUSH2 0xCF63 JUMP JUMPDEST SWAP2 POP POP SWAP3 SWAP2 POP POP JUMP JUMPDEST PUSH0 PUSH8 0xFFFFFFFFFFFFFFFF DUP3 GT ISZERO PUSH2 0xD012 JUMPI PUSH2 0xD011 PUSH2 0x9D24 JUMP JUMPDEST JUMPDEST PUSH1 0x20 DUP3 MUL SWAP1 POP PUSH1 0x20 DUP2 ADD SWAP1 POP SWAP2 SWAP1 POP JUMP JUMPDEST PUSH0 PUSH2 0xD035 PUSH2 0xD030 DUP5 PUSH2 0xAC94 JUMP JUMPDEST PUSH2 0x9D82 JUMP JUMPDEST SWAP1 POP DUP3 DUP2 MSTORE PUSH1 0x20 DUP2 ADD DUP5 DUP5 DUP5 ADD GT ISZERO PUSH2 0xD051 JUMPI PUSH2 0xD050 PUSH2 0x9DA4 JUMP JUMPDEST JUMPDEST PUSH2 0xD05C DUP5 DUP3 DUP6 PUSH2 0xA6F3 JUMP JUMPDEST POP SWAP4 SWAP3 POP POP POP JUMP JUMPDEST PUSH0 DUP3 PUSH1 0x1F DUP4 ADD SLT PUSH2 0xD078 JUMPI PUSH2 0xD077 PUSH2 0x9DA0 JUMP JUMPDEST JUMPDEST DUP2 MLOAD PUSH2 0xD088 DUP5 DUP3 PUSH1 0x20 DUP7 ADD PUSH2 0xD023 JUMP JUMPDEST SWAP2 POP POP SWAP3 SWAP2 POP POP JUMP JUMPDEST PUSH0 PUSH2 0xD0A3 PUSH2 0xD09E DUP5 PUSH2 0xCFF8 JUMP JUMPDEST PUSH2 0x9D82 JUMP JUMPDEST SWAP1 POP DUP1 DUP4 DUP3 MSTORE PUSH1 0x20 DUP3 ADD SWAP1 POP PUSH1 0x20 DUP5 MUL DUP4 ADD DUP6 DUP2 GT ISZERO PUSH2 0xD0C6 JUMPI PUSH2 0xD0C5 PUSH2 0xA0C4 JUMP JUMPDEST JUMPDEST DUP4 JUMPDEST DUP2 DUP2 LT ISZERO PUSH2 0xD10D JUMPI DUP1 MLOAD PUSH8 0xFFFFFFFFFFFFFFFF DUP2 GT ISZERO PUSH2 0xD0EB JUMPI PUSH2 0xD0EA PUSH2 0x9DA0 JUMP JUMPDEST JUMPDEST DUP1 DUP7 ADD PUSH2 0xD0F8 DUP10 DUP3 PUSH2 0xD064 JUMP JUMPDEST DUP6 MSTORE PUSH1 0x20 DUP6 ADD SWAP5 POP POP POP PUSH1 0x20 DUP2 ADD SWAP1 POP PUSH2 0xD0C8 JUMP JUMPDEST POP POP POP SWAP4 SWAP3 POP POP POP JUMP JUMPDEST PUSH0 DUP3 PUSH1 0x1F DUP4 ADD SLT PUSH2 0xD12B JUMPI PUSH2 0xD12A PUSH2 0x9DA0 JUMP JUMPDEST JUMPDEST DUP2 MLOAD PUSH2 0xD13B DUP5 DUP3 PUSH1 0x20 DUP7 ADD PUSH2 0xD091 JUMP JUMPDEST SWAP2 POP POP SWAP3 SWAP2 POP POP JUMP JUMPDEST PUSH0 DUP2 MLOAD SWAP1 POP PUSH2 0xD152 DUP2 PUSH2 0x9C8F JUMP JUMPDEST SWAP3 SWAP2 POP POP JUMP JUMPDEST PUSH2 0xD161 DUP2 PUSH2 0x9C32 JUMP JUMPDEST DUP2 EQ PUSH2 0xD16B JUMPI PUSH0 DUP1 REVERT JUMPDEST POP JUMP JUMPDEST PUSH0 DUP2 MLOAD SWAP1 POP PUSH2 0xD17C DUP2 PUSH2 0xD158 JUMP JUMPDEST SWAP3 SWAP2 POP POP JUMP JUMPDEST PUSH0 PUSH2 0x300 DUP3 DUP5 SUB SLT ISZERO PUSH2 0xD198 JUMPI PUSH2 0xD197 PUSH2 0x9D10 JUMP JUMPDEST JUMPDEST PUSH2 0xD1A3 PUSH2 0x300 PUSH2 0x9D82 JUMP JUMPDEST SWAP1 POP PUSH0 DUP3 ADD MLOAD PUSH8 0xFFFFFFFFFFFFFFFF DUP2 GT ISZERO PUSH2 0xD1C2 JUMPI PUSH2 0xD1C1 PUSH2 0x9D9C JUMP JUMPDEST JUMPDEST PUSH2 0xD1CE DUP5 DUP3 DUP6 ADD PUSH2 0xCF36 JUMP JUMPDEST PUSH0 DUP4 ADD MSTORE POP PUSH1 0x20 PUSH2 0xD1E1 DUP5 DUP3 DUP6 ADD PUSH2 0xCEB6 JUMP JUMPDEST PUSH1 0x20 DUP4 ADD MSTORE POP PUSH1 0x40 DUP3 ADD MLOAD PUSH8 0xFFFFFFFFFFFFFFFF DUP2 GT ISZERO PUSH2 0xD205 JUMPI PUSH2 0xD204 PUSH2 0x9D9C JUMP JUMPDEST JUMPDEST PUSH2 0xD211 DUP5 DUP3 DUP6 ADD PUSH2 0xCF36 JUMP JUMPDEST PUSH1 0x40 DUP4 ADD MSTORE POP PUSH1 0x60 PUSH2 0xD225 DUP5 DUP3 DUP6 ADD PUSH2 0xCEB6 JUMP JUMPDEST PUSH1 0x60 DUP4 ADD MSTORE POP PUSH1 0x80 PUSH2 0xD239 DUP5 DUP3 DUP6 ADD PUSH2 0xCEB6 JUMP JUMPDEST PUSH1 0x80 DUP4 ADD MSTORE POP PUSH1 0xA0 PUSH2 0xD24D DUP5 DUP3 DUP6 ADD PUSH2 0xCEB6 JUMP JUMPDEST PUSH1 0xA0 DUP4 ADD MSTORE POP PUSH1 0xC0 PUSH2 0xD261 DUP5 DUP3 DUP6 ADD PUSH2 0xCEB6 JUMP JUMPDEST PUSH1 0xC0 DUP4 ADD MSTORE POP PUSH1 0xE0 DUP3 ADD MLOAD PUSH8 0xFFFFFFFFFFFFFFFF DUP2 GT ISZERO PUSH2 0xD285 JUMPI PUSH2 0xD284 PUSH2 0x9D9C JUMP JUMPDEST JUMPDEST PUSH2 0xD291 DUP5 DUP3 DUP6 ADD PUSH2 0xCFCB JUMP JUMPDEST PUSH1 0xE0 DUP4 ADD MSTORE POP PUSH2 0x100 DUP3 ADD MLOAD PUSH8 0xFFFFFFFFFFFFFFFF DUP2 GT ISZERO PUSH2 0xD2B6 JUMPI PUSH2 0xD2B5 PUSH2 0x9D9C JUMP JUMPDEST JUMPDEST PUSH2 0xD2C2 DUP5 DUP3 DUP6 ADD PUSH2 0xD117 JUMP JUMPDEST PUSH2 0x100 DUP4 ADD MSTORE POP PUSH2 0x120 PUSH2 0xD2D8 DUP5 DUP3 DUP6 ADD PUSH2 0xCEB6 JUMP JUMPDEST PUSH2 0x120 DUP4 ADD MSTORE POP PUSH2 0x140 PUSH2 0xD2EE DUP5 DUP3 DUP6 ADD PUSH2 0xCEB6 JUMP JUMPDEST PUSH2 0x140 DUP4 ADD MSTORE POP PUSH2 0x160 DUP3 ADD MLOAD PUSH8 0xFFFFFFFFFFFFFFFF DUP2 GT ISZERO PUSH2 0xD314 JUMPI PUSH2 0xD313 PUSH2 0x9D9C JUMP JUMPDEST JUMPDEST PUSH2 0xD320 DUP5 DUP3 DUP6 ADD PUSH2 0xD117 JUMP JUMPDEST PUSH2 0x160 DUP4 ADD MSTORE POP PUSH2 0x180 PUSH2 0xD336 DUP5 DUP3 DUP6 ADD PUSH2 0xD144 JUMP JUMPDEST PUSH2 0x180 DUP4 ADD MSTORE POP PUSH2 0x1A0 DUP3 ADD MLOAD PUSH8 0xFFFFFFFFFFFFFFFF DUP2 GT ISZERO PUSH2 0xD35C JUMPI PUSH2 0xD35B PUSH2 0x9D9C JUMP JUMPDEST JUMPDEST PUSH2 0xD368 DUP5 DUP3 DUP6 ADD PUSH2 0xCF36 JUMP JUMPDEST PUSH2 0x1A0 DUP4 ADD MSTORE POP PUSH2 0x1C0 DUP3 ADD MLOAD PUSH8 0xFFFFFFFFFFFFFFFF DUP2 GT ISZERO PUSH2 0xD38E JUMPI PUSH2 0xD38D PUSH2 0x9D9C JUMP JUMPDEST JUMPDEST PUSH2 0xD39A DUP5 DUP3 DUP6 ADD PUSH2 0xCF36 JUMP JUMPDEST PUSH2 0x1C0 DUP4 ADD MSTORE POP PUSH2 0x1E0 PUSH2 0xD3B0 DUP5 DUP3 DUP6 ADD PUSH2 0xD16E JUMP JUMPDEST PUSH2 0x1E0 DUP4 ADD MSTORE POP PUSH2 0x200 DUP3 ADD MLOAD PUSH8 0xFFFFFFFFFFFFFFFF DUP2 GT ISZERO PUSH2 0xD3D6 JUMPI PUSH2 0xD3D5 PUSH2 0x9D9C JUMP JUMPDEST JUMPDEST PUSH2 0xD3E2 DUP5 DUP3 DUP6 ADD PUSH2 0xD117 JUMP JUMPDEST PUSH2 0x200 DUP4 ADD MSTORE POP PUSH2 0x220 DUP3 ADD MLOAD PUSH8 0xFFFFFFFFFFFFFFFF DUP2 GT ISZERO PUSH2 0xD408 JUMPI PUSH2 0xD407 PUSH2 0x9D9C JUMP JUMPDEST JUMPDEST PUSH2 0xD414 DUP5 DUP3 DUP6 ADD PUSH2 0xCF36 JUMP JUMPDEST PUSH2 0x220 DUP4 ADD MSTORE POP PUSH2 0x240 PUSH2 0xD42A DUP5 DUP3 DUP6 ADD PUSH2 0xCEB6 JUMP JUMPDEST PUSH2 0x240 DUP4 ADD MSTORE POP PUSH2 0x260 PUSH2 0xD440 DUP5 DUP3 DUP6 ADD PUSH2 0xCEB6 JUMP JUMPDEST PUSH2 0x260 DUP4 ADD MSTORE POP PUSH2 0x280 PUSH2 0xD456 DUP5 DUP3 DUP6 ADD PUSH2 0xCEB6 JUMP JUMPDEST PUSH2 0x280 DUP4 ADD MSTORE POP PUSH2 0x2A0 PUSH2 0xD46C DUP5 DUP3 DUP6 ADD PUSH2 0xD16E JUMP JUMPDEST PUSH2 0x2A0 DUP4 ADD MSTORE POP PUSH2 0x2C0 PUSH2 0xD482 DUP5 DUP3 DUP6 ADD PUSH2 0xD16E JUMP JUMPDEST PUSH2 0x2C0 DUP4 ADD MSTORE POP PUSH2 0x2E0 PUSH2 0xD498 DUP5 DUP3 DUP6 ADD PUSH2 0xCEB6 JUMP JUMPDEST PUSH2 0x2E0 DUP4 ADD MSTORE POP SWAP3 SWAP2 POP POP JUMP JUMPDEST PUSH0 PUSH1 0x80 DUP3 DUP5 SUB SLT ISZERO PUSH2 0xD4BA JUMPI PUSH2 0xD4B9 PUSH2 0x9D10 JUMP JUMPDEST JUMPDEST PUSH2 0xD4C4 PUSH1 0x80 PUSH2 0x9D82 JUMP JUMPDEST SWAP1 POP PUSH0 PUSH2 0xD4D3 DUP5 DUP3 DUP6 ADD PUSH2 0xCEB6 JUMP JUMPDEST PUSH0 DUP4 ADD MSTORE POP PUSH1 0x20 DUP3 ADD MLOAD PUSH8 0xFFFFFFFFFFFFFFFF DUP2 GT ISZERO PUSH2 0xD4F6 JUMPI PUSH2 0xD4F5 PUSH2 0x9D9C JUMP JUMPDEST JUMPDEST PUSH2 0xD502 DUP5 DUP3 DUP6 ADD PUSH2 0xD182 JUMP JUMPDEST PUSH1 0x20 DUP4 ADD MSTORE POP PUSH1 0x40 PUSH2 0xD516 DUP5 DUP3 DUP6 ADD PUSH2 0xCEB6 JUMP JUMPDEST PUSH1 0x40 DUP4 ADD MSTORE POP PUSH1 0x60 PUSH2 0xD52A DUP5 DUP3 DUP6 ADD PUSH2 0xCEB6 JUMP JUMPDEST PUSH1 0x60 DUP4 ADD MSTORE POP SWAP3 SWAP2 POP POP JUMP JUMPDEST PUSH0 PUSH1 0x20 DUP3 DUP5 SUB SLT ISZERO PUSH2 0xD54B JUMPI PUSH2 0xD54A PUSH2 0x9B7E JUMP JUMPDEST JUMPDEST PUSH0 DUP3 ADD MLOAD PUSH8 0xFFFFFFFFFFFFFFFF DUP2 GT ISZERO PUSH2 0xD568 JUMPI PUSH2 0xD567 PUSH2 0x9B82 JUMP JUMPDEST JUMPDEST PUSH2 0xD574 DUP5 DUP3 DUP6 ADD PUSH2 0xD4A5 JUMP JUMPDEST SWAP2 POP POP SWAP3 SWAP2 POP POP JUMP JUMPDEST PUSH0 PUSH1 0x40 DUP3 ADD SWAP1 POP PUSH2 0xD590 PUSH0 DUP4 ADD DUP6 PUSH2 0x9BE4 JUMP JUMPDEST PUSH2 0xD59D PUSH1 0x20 DUP4 ADD DUP5 PUSH2 0xA774 JUMP JUMPDEST SWAP4 SWAP3 POP POP POP JUMP JUMPDEST PUSH0 DUP2 MLOAD SWAP1 POP PUSH2 0xD5B2 DUP2 PUSH2 0xA1BC JUMP JUMPDEST SWAP3 SWAP2 POP POP JUMP JUMPDEST PUSH0 PUSH1 0xA0 DUP3 DUP5 SUB SLT ISZERO PUSH2 0xD5CD JUMPI PUSH2 0xD5CC PUSH2 0x9D10 JUMP JUMPDEST JUMPDEST PUSH2 0xD5D7 PUSH1 0xA0 PUSH2 0x9D82 JUMP JUMPDEST SWAP1 POP PUSH0 PUSH2 0xD5E6 DUP5 DUP3 DUP6 ADD PUSH2 0xCEB6 JUMP JUMPDEST PUSH0 DUP4 ADD MSTORE POP PUSH1 0x20 PUSH2 0xD5F9 DUP5 DUP3 DUP6 ADD PUSH2 0xCEB6 JUMP JUMPDEST PUSH1 0x20 DUP4 ADD MSTORE POP PUSH1 0x40 PUSH2 0xD60D DUP5 DUP3 DUP6 ADD PUSH2 0xCEB6 JUMP JUMPDEST PUSH1 0x40 DUP4 ADD MSTORE POP PUSH1 0x60 PUSH2 0xD621 DUP5 DUP3 DUP6 ADD PUSH2 0xCEB6 JUMP JUMPDEST PUSH1 0x60 DUP4 ADD MSTORE POP PUSH1 0x80 PUSH2 0xD635 DUP5 DUP3 DUP6 ADD PUSH2 0xCEB6 JUMP JUMPDEST PUSH1 0x80 DUP4 ADD MSTORE POP SWAP3 SWAP2 POP POP JUMP JUMPDEST PUSH0 PUSH1 0xC0 DUP3 DUP5 SUB SLT ISZERO PUSH2 0xD656 JUMPI PUSH2 0xD655 PUSH2 0x9D10 JUMP JUMPDEST JUMPDEST PUSH2 0xD660 PUSH1 0x40 PUSH2 0x9D82 JUMP JUMPDEST SWAP1 POP PUSH0 PUSH2 0xD66F DUP5 DUP3 DUP6 ADD PUSH2 0xD5A4 JUMP JUMPDEST PUSH0 DUP4 ADD MSTORE POP PUSH1 0x20 PUSH2 0xD682 DUP5 DUP3 DUP6 ADD PUSH2 0xD5B8 JUMP JUMPDEST PUSH1 0x20 DUP4 ADD MSTORE POP SWAP3 SWAP2 POP POP JUMP JUMPDEST PUSH0 PUSH1 0xC0 DUP3 DUP5 SUB SLT ISZERO PUSH2 0xD6A3 JUMPI PUSH2 0xD6A2 PUSH2 0x9B7E JUMP JUMPDEST JUMPDEST PUSH0 PUSH2 0xD6B0 DUP5 DUP3 DUP6 ADD PUSH2 0xD641 JUMP JUMPDEST SWAP2 POP POP SWAP3 SWAP2 POP POP JUMP JUMPDEST PUSH1 0x2 DUP2 LT PUSH2 0xD6CA JUMPI PUSH2 0xD6C9 PUSH2 0xBD9C JUMP JUMPDEST JUMPDEST POP JUMP JUMPDEST PUSH0 DUP2 SWAP1 POP PUSH2 0xD6DA DUP3 PUSH2 0xD6B9 JUMP JUMPDEST SWAP2 SWAP1 POP JUMP JUMPDEST PUSH0 PUSH2 0xD6E9 DUP3 PUSH2 0xD6CD JUMP JUMPDEST SWAP1 POP SWAP2 SWAP1 POP JUMP JUMPDEST PUSH2 0xD6F9 DUP2 PUSH2 0xD6DF JUMP JUMPDEST DUP3 MSTORE POP POP JUMP JUMPDEST PUSH0 PUSH1 0xC0 DUP3 ADD SWAP1 POP PUSH2 0xD712 PUSH0 DUP4 ADD DUP10 PUSH2 0x9C23 JUMP JUMPDEST PUSH2 0xD71F PUSH1 0x20 DUP4 ADD DUP9 PUSH2 0x9BE4 JUMP JUMPDEST PUSH2 0xD72C PUSH1 0x40 DUP4 ADD DUP8 PUSH2 0x9BE4 JUMP JUMPDEST PUSH2 0xD739 PUSH1 0x60 DUP4 ADD DUP7 PUSH2 0x9C23 JUMP JUMPDEST PUSH2 0xD746 PUSH1 0x80 DUP4 ADD DUP6 PUSH2 0xD6F0 JUMP JUMPDEST PUSH2 0xD753 PUSH1 0xA0 DUP4 ADD DUP5 PUSH2 0x9C3D JUMP JUMPDEST SWAP8 SWAP7 POP POP POP POP POP POP POP JUMP JUMPDEST PUSH32 0x7B2266726F6D223A202245636F6D4F726465722E736F6C222C22636F6465223A PUSH0 DUP3 ADD MSTORE PUSH32 0x2031312C20226D657373616765223A224F726465722068617665206E6F206974 PUSH1 0x20 DUP3 ADD MSTORE PUSH32 0x656D227D00000000000000000000000000000000000000000000000000000000 PUSH1 0x40 DUP3 ADD MSTORE POP JUMP JUMPDEST PUSH0 PUSH2 0xD7DE PUSH1 0x44 DUP4 PUSH2 0xA6E3 JUMP JUMPDEST SWAP2 POP PUSH2 0xD7E9 DUP3 PUSH2 0xD75E JUMP JUMPDEST PUSH1 0x60 DUP3 ADD SWAP1 POP SWAP2 SWAP1 POP JUMP JUMPDEST PUSH0 PUSH1 0x20 DUP3 ADD SWAP1 POP DUP2 DUP2 SUB PUSH0 DUP4 ADD MSTORE PUSH2 0xD80B DUP2 PUSH2 0xD7D2 JUMP JUMPDEST SWAP1 POP SWAP2 SWAP1 POP JUMP JUMPDEST PUSH32 0x7B2266726F6D223A202245636F6D4F726465722E736F6C222C22636F6465223A PUSH0 DUP3 ADD MSTORE PUSH32 0x2031312C20226D657373616765223A224F726465722068617665206D61782069 PUSH1 0x20 DUP3 ADD MSTORE PUSH32 0x74656D227D000000000000000000000000000000000000000000000000000000 PUSH1 0x40 DUP3 ADD MSTORE POP JUMP JUMPDEST PUSH0 PUSH2 0xD892 PUSH1 0x45 DUP4 PUSH2 0xA6E3 JUMP JUMPDEST SWAP2 POP PUSH2 0xD89D DUP3 PUSH2 0xD812 JUMP JUMPDEST PUSH1 0x60 DUP3 ADD SWAP1 POP SWAP2 SWAP1 POP JUMP JUMPDEST PUSH0 PUSH1 0x20 DUP3 ADD SWAP1 POP DUP2 DUP2 SUB PUSH0 DUP4 ADD MSTORE PUSH2 0xD8BF DUP2 PUSH2 0xD886 JUMP JUMPDEST SWAP1 POP SWAP2 SWAP1 POP JUMP JUMPDEST PUSH0 PUSH1 0x20 DUP3 DUP5 SUB SLT ISZERO PUSH2 0xD8DB JUMPI PUSH2 0xD8DA PUSH2 0x9B7E JUMP JUMPDEST JUMPDEST PUSH0 PUSH2 0xD8E8 DUP5 DUP3 DUP6 ADD PUSH2 0xD144 JUMP JUMPDEST SWAP2 POP POP SWAP3 SWAP2 POP POP JUMP JUMPDEST PUSH32 0x7B2266726F6D223A202245636F6D4F726465722E736F6C222C22636F6465223A PUSH0 DUP3 ADD MSTORE PUSH32 0x2031322C20226D657373616765223A2255736572206E6F74206578697374227D PUSH1 0x20 DUP3 ADD MSTORE POP JUMP JUMPDEST PUSH0 PUSH2 0xD94B PUSH1 0x40 DUP4 PUSH2 0xA6E3 JUMP JUMPDEST SWAP2 POP PUSH2 0xD956 DUP3 PUSH2 0xD8F1 JUMP JUMPDEST PUSH1 0x40 DUP3 ADD SWAP1 POP SWAP2 SWAP1 POP JUMP JUMPDEST PUSH0 PUSH1 0x20 DUP3 ADD SWAP1 POP DUP2 DUP2 SUB PUSH0 DUP4 ADD MSTORE PUSH2 0xD978 DUP2 PUSH2 0xD93F JUMP JUMPDEST SWAP1 POP SWAP2 SWAP1 POP JUMP JUMPDEST PUSH0 PUSH1 0x80 DUP3 ADD SWAP1 POP PUSH2 0xD992 PUSH0 DUP4 ADD DUP8 PUSH2 0x9BE4 JUMP JUMPDEST PUSH2 0xD99F PUSH1 0x20 DUP4 ADD DUP7 PUSH2 0x9BE4 JUMP JUMPDEST PUSH2 0xD9AC PUSH1 0x40 DUP4 ADD DUP6 PUSH2 0x9C23 JUMP JUMPDEST PUSH2 0xD9B9 PUSH1 0x60 DUP4 ADD DUP5 PUSH2 0x9BE4 JUMP JUMPDEST SWAP6 SWAP5 POP POP POP POP POP JUMP JUMPDEST PUSH32 0x7B2266726F6D223A202245636F6D50726F647563742E736F6C222C22636F6465 PUSH0 DUP3 ADD MSTORE PUSH32 0x223A20313030332C20226D657373616765223A22496E76616C69642073686172 PUSH1 0x20 DUP3 ADD MSTORE PUSH32 0x656C696E6B227D00000000000000000000000000000000000000000000000000 PUSH1 0x40 DUP3 ADD MSTORE POP JUMP JUMPDEST PUSH0 PUSH2 0xDA42 PUSH1 0x47 DUP4 PUSH2 0xA6E3 JUMP JUMPDEST SWAP2 POP PUSH2 0xDA4D DUP3 PUSH2 0xD9C2 JUMP JUMPDEST PUSH1 0x60 DUP3 ADD SWAP1 POP SWAP2 SWAP1 POP JUMP JUMPDEST PUSH0 PUSH1 0x20 DUP3 ADD SWAP1 POP DUP2 DUP2 SUB PUSH0 DUP4 ADD MSTORE PUSH2 0xDA6F DUP2 PUSH2 0xDA36 JUMP JUMPDEST SWAP1 POP SWAP2 SWAP1 POP JUMP JUMPDEST PUSH0 PUSH2 0xDA80 DUP3 PUSH2 0x9B86 JUMP JUMPDEST SWAP2 POP PUSH2 0xDA8B DUP4 PUSH2 0x9B86 JUMP JUMPDEST SWAP3 POP DUP3 DUP3 SUB SWAP1 POP DUP2 DUP2 GT ISZERO PUSH2 0xDAA3 JUMPI PUSH2 0xDAA2 PUSH2 0xC4C5 JUMP JUMPDEST JUMPDEST SWAP3 SWAP2 POP POP JUMP JUMPDEST PUSH32 0x4E487B7100000000000000000000000000000000000000000000000000000000 PUSH0 MSTORE PUSH1 0x31 PUSH1 0x4 MSTORE PUSH1 0x24 PUSH0 REVERT JUMPDEST PUSH32 0x77726F6E67206F72646572204944000000000000000000000000000000000000 PUSH0 DUP3 ADD MSTORE POP JUMP JUMPDEST PUSH0 PUSH2 0xDB0A PUSH1 0xE DUP4 PUSH2 0xA6E3 JUMP JUMPDEST SWAP2 POP PUSH2 0xDB15 DUP3 PUSH2 0xDAD6 JUMP JUMPDEST PUSH1 0x20 DUP3 ADD SWAP1 POP SWAP2 SWAP1 POP JUMP JUMPDEST PUSH0 PUSH1 0x20 DUP3 ADD SWAP1 POP DUP2 DUP2 SUB PUSH0 DUP4 ADD MSTORE PUSH2 0xDB37 DUP2 PUSH2 0xDAFE JUMP JUMPDEST SWAP1 POP SWAP2 SWAP1 POP JUMP JUMPDEST PUSH32 0x6E6F7420666F756E64206F726465720000000000000000000000000000000000 PUSH0 DUP3 ADD MSTORE POP JUMP JUMPDEST PUSH0 PUSH2 0xDB72 PUSH1 0xF DUP4 PUSH2 0xA6E3 JUMP JUMPDEST SWAP2 POP PUSH2 0xDB7D DUP3 PUSH2 0xDB3E JUMP JUMPDEST PUSH1 0x20 DUP3 ADD SWAP1 POP SWAP2 SWAP1 POP JUMP JUMPDEST PUSH0 PUSH1 0x20 DUP3 ADD SWAP1 POP DUP2 DUP2 SUB PUSH0 DUP4 ADD MSTORE PUSH2 0xDB9F DUP2 PUSH2 0xDB66 JUMP JUMPDEST SWAP1 POP SWAP2 SWAP1 POP JUMP JUMPDEST PUSH32 0x7B2266726F6D223A202245636F6D50726F647563742E736F6C222C22636F6465 PUSH0 DUP3 ADD MSTORE PUSH32 0x223A2031342C20226D657373616765223A2275706461746564207175616E7469 PUSH1 0x20 DUP3 ADD MSTORE PUSH32 0x7479206F662070726F64756374206D757374203E3D2030227D00000000000000 PUSH1 0x40 DUP3 ADD MSTORE POP JUMP JUMPDEST PUSH0 PUSH2 0xDC26 PUSH1 0x59 DUP4 PUSH2 0xA6E3 JUMP JUMPDEST SWAP2 POP PUSH2 0xDC31 DUP3 PUSH2 0xDBA6 JUMP JUMPDEST PUSH1 0x60 DUP3 ADD SWAP1 POP SWAP2 SWAP1 POP JUMP JUMPDEST PUSH0 PUSH1 0x20 DUP3 ADD SWAP1 POP DUP2 DUP2 SUB PUSH0 DUP4 ADD MSTORE PUSH2 0xDC53 DUP2 PUSH2 0xDC1A JUMP JUMPDEST SWAP1 POP SWAP2 SWAP1 POP JUMP JUMPDEST PUSH0 PUSH1 0x80 DUP3 ADD SWAP1 POP PUSH2 0xDC6D PUSH0 DUP4 ADD DUP8 PUSH2 0x9BE4 JUMP JUMPDEST PUSH2 0xDC7A PUSH1 0x20 DUP4 ADD DUP7 PUSH2 0xA774 JUMP JUMPDEST PUSH2 0xDC87 PUSH1 0x40 DUP4 ADD DUP6 PUSH2 0x9BE4 JUMP JUMPDEST PUSH2 0xDC94 PUSH1 0x60 DUP4 ADD DUP5 PUSH2 0x9BE4 JUMP JUMPDEST SWAP6 SWAP5 POP POP POP POP POP JUMP JUMPDEST PUSH0 PUSH1 0x40 DUP3 ADD SWAP1 POP PUSH2 0xDCB0 PUSH0 DUP4 ADD DUP6 PUSH2 0x9C23 JUMP JUMPDEST PUSH2 0xDCBD PUSH1 0x20 DUP4 ADD DUP5 PUSH2 0x9BE4 JUMP JUMPDEST SWAP4 SWAP3 POP POP POP JUMP JUMPDEST PUSH1 0x40 DUP3 ADD PUSH0 DUP3 ADD MLOAD PUSH2 0xDCD8 PUSH0 DUP6 ADD DUP3 PUSH2 0xA4D7 JUMP JUMPDEST POP PUSH1 0x20 DUP3 ADD MLOAD PUSH2 0xDCEB PUSH1 0x20 DUP6 ADD DUP3 PUSH2 0xA4D7 JUMP JUMPDEST POP POP POP POP JUMP JUMPDEST PUSH0 PUSH1 0x60 DUP3 ADD SWAP1 POP DUP2 DUP2 SUB PUSH0 DUP4 ADD MSTORE PUSH2 0xDD09 DUP2 DUP6 PUSH2 0xA701 JUMP JUMPDEST SWAP1 POP PUSH2 0xDD18 PUSH1 0x20 DUP4 ADD DUP5 PUSH2 0xDCC4 JUMP JUMPDEST SWAP4 SWAP3 POP POP POP JUMP JUMPDEST PUSH0 PUSH2 0xDD29 DUP3 PUSH2 0xA759 JUMP JUMPDEST SWAP2 POP PUSH1 0xFF DUP3 SUB PUSH2 0xDD3C JUMPI PUSH2 0xDD3B PUSH2 0xC4C5 JUMP JUMPDEST JUMPDEST PUSH1 0x1 DUP3 ADD SWAP1 POP SWAP2 SWAP1 POP JUMP JUMPDEST PUSH1 0x60 DUP3 ADD PUSH0 DUP3 ADD MLOAD PUSH2 0xDD5B PUSH0 DUP6 ADD DUP3 PUSH2 0xA9B4 JUMP JUMPDEST POP PUSH1 0x20 DUP3 ADD MLOAD PUSH2 0xDD6E PUSH1 0x20 DUP6 ADD DUP3 PUSH2 0xA4D7 JUMP JUMPDEST POP PUSH1 0x40 DUP3 ADD MLOAD PUSH2 0xDD81 PUSH1 0x40 DUP6 ADD DUP3 PUSH2 0xA4E6 JUMP JUMPDEST POP POP POP POP JUMP JUMPDEST PUSH0 PUSH1 0x80 DUP3 ADD SWAP1 POP PUSH2 0xDD9A PUSH0 DUP4 ADD DUP6 PUSH2 0x9C23 JUMP JUMPDEST PUSH2 0xDDA7 PUSH1 0x20 DUP4 ADD DUP5 PUSH2 0xDD47 JUMP JUMPDEST SWAP4 SWAP3 POP POP POP JUMP JUMPDEST PUSH0 DUP3 DUP3 MSTORE PUSH1 0x20 DUP3 ADD SWAP1 POP SWAP3 SWAP2 POP POP JUMP JUMPDEST PUSH0 PUSH2 0xDDC8 DUP3 PUSH2 0xA864 JUMP JUMPDEST PUSH2 0xDDD2 DUP2 DUP6 PUSH2 0xDDAE JUMP JUMPDEST SWAP4 POP PUSH2 0xDDDD DUP4 PUSH2 0xA87E JUMP JUMPDEST DUP1 PUSH0 JUMPDEST DUP4 DUP2 LT ISZERO PUSH2 0xDE0D JUMPI DUP2 MLOAD PUSH2 0xDDF4 DUP9 DUP3 PUSH2 0xA88D JUMP JUMPDEST SWAP8 POP PUSH2 0xDDFF DUP4 PUSH2 0xA8A4 JUMP JUMPDEST SWAP3 POP POP PUSH1 0x1 DUP2 ADD SWAP1 POP PUSH2 0xDDE0 JUMP JUMPDEST POP DUP6 SWAP4 POP POP POP POP SWAP3 SWAP2 POP POP JUMP JUMPDEST PUSH0 PUSH1 0x20 DUP3 ADD SWAP1 POP DUP2 DUP2 SUB PUSH0 DUP4 ADD MSTORE PUSH2 0xDE32 DUP2 DUP5 PUSH2 0xDDBE JUMP JUMPDEST SWAP1 POP SWAP3 SWAP2 POP POP JUMP JUMPDEST PUSH0 PUSH8 0xFFFFFFFFFFFFFFFF DUP3 GT ISZERO PUSH2 0xDE54 JUMPI PUSH2 0xDE53 PUSH2 0x9D24 JUMP JUMPDEST JUMPDEST PUSH1 0x20 DUP3 MUL SWAP1 POP PUSH1 0x20 DUP2 ADD SWAP1 POP SWAP2 SWAP1 POP JUMP JUMPDEST PUSH0 PUSH2 0xDE77 PUSH2 0xDE72 DUP5 PUSH2 0xDE3A JUMP JUMPDEST PUSH2 0x9D82 JUMP JUMPDEST SWAP1 POP DUP1 DUP4 DUP3 MSTORE PUSH1 0x20 DUP3 ADD SWAP1 POP PUSH1 0x20 DUP5 MUL DUP4 ADD DUP6 DUP2 GT ISZERO PUSH2 0xDE9A JUMPI PUSH2 0xDE99 PUSH2 0xA0C4 JUMP JUMPDEST JUMPDEST DUP4 JUMPDEST DUP2 DUP2 LT ISZERO PUSH2 0xDEC3 JUMPI DUP1 PUSH2 0xDEAF DUP9 DUP3 PUSH2 0xD144 JUMP JUMPDEST DUP5 MSTORE PUSH1 0x20 DUP5 ADD SWAP4 POP POP PUSH1 0x20 DUP2 ADD SWAP1 POP PUSH2 0xDE9C JUMP JUMPDEST POP POP POP SWAP4 SWAP3 POP POP POP JUMP JUMPDEST PUSH0 DUP3 PUSH1 0x1F DUP4 ADD SLT PUSH2 0xDEE1 JUMPI PUSH2 0xDEE0 PUSH2 0x9DA0 JUMP JUMPDEST JUMPDEST DUP2 MLOAD PUSH2 0xDEF1 DUP5 DUP3 PUSH1 0x20 DUP7 ADD PUSH2 0xDE65 JUMP JUMPDEST SWAP2 POP POP SWAP3 SWAP2 POP POP JUMP JUMPDEST PUSH0 PUSH1 0x20 DUP3 DUP5 SUB SLT ISZERO PUSH2 0xDF0F JUMPI PUSH2 0xDF0E PUSH2 0x9B7E JUMP JUMPDEST JUMPDEST PUSH0 DUP3 ADD MLOAD PUSH8 0xFFFFFFFFFFFFFFFF DUP2 GT ISZERO PUSH2 0xDF2C JUMPI PUSH2 0xDF2B PUSH2 0x9B82 JUMP JUMPDEST JUMPDEST PUSH2 0xDF38 DUP5 DUP3 DUP6 ADD PUSH2 0xDECD JUMP JUMPDEST SWAP2 POP POP SWAP3 SWAP2 POP POP JUMP JUMPDEST PUSH0 DUP2 MLOAD SWAP1 POP SWAP2 SWAP1 POP JUMP JUMPDEST PUSH0 DUP3 DUP3 MSTORE PUSH1 0x20 DUP3 ADD SWAP1 POP SWAP3 SWAP2 POP POP JUMP JUMPDEST PUSH0 DUP2 SWAP1 POP PUSH1 0x20 DUP3 ADD SWAP1 POP SWAP2 SWAP1 POP JUMP JUMPDEST PUSH0 PUSH2 0xDF75 DUP4 DUP4 PUSH2 0xA4E6 JUMP JUMPDEST PUSH1 0x20 DUP4 ADD SWAP1 POP SWAP3 SWAP2 POP POP JUMP JUMPDEST PUSH0 PUSH1 0x20 DUP3 ADD SWAP1 POP SWAP2 SWAP1 POP JUMP JUMPDEST PUSH0 PUSH2 0xDF97 DUP3 PUSH2 0xDF41 JUMP JUMPDEST PUSH2 0xDFA1 DUP2 DUP6 PUSH2 0xDF4B JUMP JUMPDEST SWAP4 POP PUSH2 0xDFAC DUP4 PUSH2 0xDF5B JUMP JUMPDEST DUP1 PUSH0 JUMPDEST DUP4 DUP2 LT ISZERO PUSH2 0xDFDC JUMPI DUP2 MLOAD PUSH2 0xDFC3 DUP9 DUP3 PUSH2 0xDF6A JUMP JUMPDEST SWAP8 POP PUSH2 0xDFCE DUP4 PUSH2 0xDF81 JUMP JUMPDEST SWAP3 POP POP PUSH1 0x1 DUP2 ADD SWAP1 POP PUSH2 0xDFAF JUMP JUMPDEST POP DUP6 SWAP4 POP POP POP POP SWAP3 SWAP2 POP POP JUMP JUMPDEST PUSH0 PUSH1 0x60 DUP3 ADD SWAP1 POP PUSH2 0xDFFC PUSH0 DUP4 ADD DUP7 PUSH2 0x9BE4 JUMP JUMPDEST PUSH2 0xE009 PUSH1 0x20 DUP4 ADD DUP6 PUSH2 0x9C23 JUMP JUMPDEST DUP2 DUP2 SUB PUSH1 0x40 DUP4 ADD MSTORE PUSH2 0xE01B DUP2 DUP5 PUSH2 0xDF8D JUMP JUMPDEST SWAP1 POP SWAP5 SWAP4 POP POP POP POP JUMP JUMPDEST PUSH0 PUSH2 0xE02F DUP3 PUSH2 0x9B86 JUMP JUMPDEST SWAP2 POP PUSH2 0xE03A DUP4 PUSH2 0x9B86 JUMP JUMPDEST SWAP3 POP DUP3 DUP3 ADD SWAP1 POP DUP1 DUP3 GT ISZERO PUSH2 0xE052 JUMPI PUSH2 0xE051 PUSH2 0xC4C5 JUMP JUMPDEST JUMPDEST SWAP3 SWAP2 POP POP JUMP JUMPDEST PUSH32 0x7B2266726F6D223A202245636F6D50726F647563742E736F6C222C22636F6465 PUSH0 DUP3 ADD MSTORE PUSH32 0x223A20313030322C20226D657373616765223A224F7264657220646F6573206E PUSH1 0x20 DUP3 ADD MSTORE PUSH32 0x6F7420657869737473227D000000000000000000000000000000000000000000 PUSH1 0x40 DUP3 ADD MSTORE POP JUMP JUMPDEST PUSH0 PUSH2 0xE0D8 PUSH1 0x4B DUP4 PUSH2 0xA6E3 JUMP JUMPDEST SWAP2 POP PUSH2 0xE0E3 DUP3 PUSH2 0xE058 JUMP JUMPDEST PUSH1 0x60 DUP3 ADD SWAP1 POP SWAP2 SWAP1 POP JUMP JUMPDEST PUSH0 PUSH1 0x20 DUP3 ADD SWAP1 POP DUP2 DUP2 SUB PUSH0 DUP4 ADD MSTORE PUSH2 0xE105 DUP2 PUSH2 0xE0CC JUMP JUMPDEST SWAP1 POP SWAP2 SWAP1 POP JUMP JUMPDEST PUSH32 0x7B2266726F6D223A202245636F6D50726F647563742E736F6C222C22636F6465 PUSH0 DUP3 ADD MSTORE PUSH32 0x223A20313030332C20226D657373616765223A22596F7520617265206E6F7420 PUSH1 0x20 DUP3 ADD MSTORE PUSH32 0x6F776E6572206F6620746865206F72646572227D000000000000000000000000 PUSH1 0x40 DUP3 ADD MSTORE POP JUMP JUMPDEST PUSH0 PUSH2 0xE18C PUSH1 0x54 DUP4 PUSH2 0xA6E3 JUMP JUMPDEST SWAP2 POP PUSH2 0xE197 DUP3 PUSH2 0xE10C JUMP JUMPDEST PUSH1 0x60 DUP3 ADD SWAP1 POP SWAP2 SWAP1 POP JUMP JUMPDEST PUSH0 PUSH1 0x20 DUP3 ADD SWAP1 POP DUP2 DUP2 SUB PUSH0 DUP4 ADD MSTORE PUSH2 0xE1B9 DUP2 PUSH2 0xE180 JUMP JUMPDEST SWAP1 POP SWAP2 SWAP1 POP JUMP JUMPDEST PUSH32 0x7B2266726F6D223A202245636F6D50726F647563742E736F6C222C22636F6465 PUSH0 DUP3 ADD MSTORE PUSH32 0x223A20313030332C20226D657373616765223A224F72646572206973206E6F74 PUSH1 0x20 DUP3 ADD MSTORE PUSH32 0x2073746F72616765206F72646572227D00000000000000000000000000000000 PUSH1 0x40 DUP3 ADD MSTORE POP JUMP JUMPDEST PUSH0 PUSH2 0xE240 PUSH1 0x50 DUP4 PUSH2 0xA6E3 JUMP JUMPDEST SWAP2 POP PUSH2 0xE24B DUP3 PUSH2 0xE1C0 JUMP JUMPDEST PUSH1 0x60 DUP3 ADD SWAP1 POP SWAP2 SWAP1 POP JUMP JUMPDEST PUSH0 PUSH1 0x20 DUP3 ADD SWAP1 POP DUP2 DUP2 SUB PUSH0 DUP4 ADD MSTORE PUSH2 0xE26D DUP2 PUSH2 0xE234 JUMP JUMPDEST SWAP1 POP SWAP2 SWAP1 POP JUMP JUMPDEST PUSH32 0x6E6F7420656E6F756768207175616E7469747920696E20706172656E74206F72 PUSH0 DUP3 ADD MSTORE PUSH32 0x6465720000000000000000000000000000000000000000000000000000000000 PUSH1 0x20 DUP3 ADD MSTORE POP JUMP JUMPDEST PUSH0 PUSH2 0xE2CE PUSH1 0x23 DUP4 PUSH2 0xA6E3 JUMP JUMPDEST SWAP2 POP PUSH2 0xE2D9 DUP3 PUSH2 0xE274 JUMP JUMPDEST PUSH1 0x40 DUP3 ADD SWAP1 POP SWAP2 SWAP1 POP JUMP JUMPDEST PUSH0 PUSH1 0x20 DUP3 ADD SWAP1 POP DUP2 DUP2 SUB PUSH0 DUP4 ADD MSTORE PUSH2 0xE2FB DUP2 PUSH2 0xE2C2 JUMP JUMPDEST SWAP1 POP SWAP2 SWAP1 POP JUMP JUMPDEST PUSH32 0x70726F6475637420494420646F6573206E6F7420657869737420696E20706172 PUSH0 DUP3 ADD MSTORE PUSH32 0x656E74206F726465720000000000000000000000000000000000000000000000 PUSH1 0x20 DUP3 ADD MSTORE POP JUMP JUMPDEST PUSH0 PUSH2 0xE35C PUSH1 0x29 DUP4 PUSH2 0xA6E3 JUMP JUMPDEST SWAP2 POP PUSH2 0xE367 DUP3 PUSH2 0xE302 JUMP JUMPDEST PUSH1 0x40 DUP3 ADD SWAP1 POP SWAP2 SWAP1 POP JUMP JUMPDEST PUSH0 PUSH1 0x20 DUP3 ADD SWAP1 POP DUP2 DUP2 SUB PUSH0 DUP4 ADD MSTORE PUSH2 0xE389 DUP2 PUSH2 0xE350 JUMP JUMPDEST SWAP1 POP SWAP2 SWAP1 POP JUMP JUMPDEST PUSH32 0x4E487B7100000000000000000000000000000000000000000000000000000000 PUSH0 MSTORE PUSH1 0x12 PUSH1 0x4 MSTORE PUSH1 0x24 PUSH0 REVERT JUMPDEST PUSH32 0x7B2266726F6D223A202245636F6D50726F647563742E736F6C222C22636F6465 PUSH0 DUP3 ADD MSTORE PUSH32 0x223A2031302C20226D657373616765223A225468652063617274206974656D20 PUSH1 0x20 DUP3 ADD MSTORE PUSH32 0x646F6573206E6F7420657869737420696E207468652063617274227D00000000 PUSH1 0x40 DUP3 ADD MSTORE POP JUMP JUMPDEST PUSH0 PUSH2 0xE43D PUSH1 0x5C DUP4 PUSH2 0xA6E3 JUMP JUMPDEST SWAP2 POP PUSH2 0xE448 DUP3 PUSH2 0xE3BD JUMP JUMPDEST PUSH1 0x60 DUP3 ADD SWAP1 POP SWAP2 SWAP1 POP JUMP JUMPDEST PUSH0 PUSH1 0x20 DUP3 ADD SWAP1 POP DUP2 DUP2 SUB PUSH0 DUP4 ADD MSTORE PUSH2 0xE46A DUP2 PUSH2 0xE431 JUMP JUMPDEST SWAP1 POP SWAP2 SWAP1 POP JUMP JUMPDEST PUSH32 0x7B2266726F6D223A202245636F6D50726F647563742E736F6C222C22636F6465 PUSH0 DUP3 ADD MSTORE PUSH32 0x223A2031312C20226D657373616765223A22496E646578206F7574206F662062 PUSH1 0x20 DUP3 ADD MSTORE PUSH32 0x6F756E6473227D00000000000000000000000000000000000000000000000000 PUSH1 0x40 DUP3 ADD MSTORE POP JUMP JUMPDEST PUSH0 PUSH2 0xE4F1 PUSH1 0x47 DUP4 PUSH2 0xA6E3 JUMP JUMPDEST SWAP2 POP PUSH2 0xE4FC DUP3 PUSH2 0xE471 JUMP JUMPDEST PUSH1 0x60 DUP3 ADD SWAP1 POP SWAP2 SWAP1 POP JUMP JUMPDEST PUSH0 PUSH1 0x20 DUP3 ADD SWAP1 POP DUP2 DUP2 SUB PUSH0 DUP4 ADD MSTORE PUSH2 0xE51E DUP2 PUSH2 0xE4E5 JUMP JUMPDEST SWAP1 POP SWAP2 SWAP1 POP JUMP JUMPDEST PUSH0 PUSH1 0x80 DUP3 ADD SWAP1 POP PUSH2 0xE538 PUSH0 DUP4 ADD DUP8 PUSH2 0x9C23 JUMP JUMPDEST PUSH2 0xE545 PUSH1 0x20 DUP4 ADD DUP7 PUSH2 0x9BE4 JUMP JUMPDEST PUSH2 0xE552 PUSH1 0x40 DUP4 ADD DUP6 PUSH2 0x9C23 JUMP JUMPDEST PUSH2 0xE55F PUSH1 0x60 DUP4 ADD DUP5 PUSH2 0x9C3D JUMP JUMPDEST SWAP6 SWAP5 POP POP POP POP POP JUMP JUMPDEST PUSH32 0x7B2266726F6D223A202245636F6D50726F647563742E736F6C222C22636F6465 PUSH0 DUP3 ADD MSTORE PUSH32 0x223A2031322C20226D657373616765223A224361727420697320616C72656164 PUSH1 0x20 DUP3 ADD MSTORE PUSH32 0x7920656D707479227D0000000000000000000000000000000000000000000000 PUSH1 0x40 DUP3 ADD MSTORE POP JUMP JUMPDEST PUSH0 PUSH2 0xE5E8 PUSH1 0x49 DUP4 PUSH2 0xA6E3 JUMP JUMPDEST SWAP2 POP PUSH2 0xE5F3 DUP3 PUSH2 0xE568 JUMP JUMPDEST PUSH1 0x60 DUP3 ADD SWAP1 POP SWAP2 SWAP1 POP JUMP JUMPDEST PUSH0 PUSH1 0x20 DUP3 ADD SWAP1 POP DUP2 DUP2 SUB PUSH0 DUP4 ADD MSTORE PUSH2 0xE615 DUP2 PUSH2 0xE5DC JUMP JUMPDEST SWAP1 POP SWAP2 SWAP1 POP JUMP JUMPDEST PUSH0 PUSH1 0x20 DUP3 DUP5 SUB SLT ISZERO PUSH2 0xE631 JUMPI PUSH2 0xE630 PUSH2 0x9B7E JUMP JUMPDEST JUMPDEST PUSH0 PUSH2 0xE63E DUP5 DUP3 DUP6 ADD PUSH2 0xD16E JUMP JUMPDEST SWAP2 POP POP SWAP3 SWAP2 POP POP JUMP JUMPDEST PUSH32 0x7B2266726F6D223A202245636F6D50726F647563742E736F6C222C22636F6465 PUSH0 DUP3 ADD MSTORE PUSH32 0x223A2031332C20226D657373616765223A2022636172744974656D496420646F PUSH1 0x20 DUP3 ADD MSTORE PUSH32 0x6573206E6F7420657869737420696E207468652063617274227D000000000000 PUSH1 0x40 DUP3 ADD MSTORE POP JUMP JUMPDEST PUSH0 PUSH2 0xE6C7 PUSH1 0x5A DUP4 PUSH2 0xA6E3 JUMP JUMPDEST SWAP2 POP PUSH2 0xE6D2 DUP3 PUSH2 0xE647 JUMP JUMPDEST PUSH1 0x60 DUP3 ADD SWAP1 POP SWAP2 SWAP1 POP JUMP JUMPDEST PUSH0 PUSH1 0x20 DUP3 ADD SWAP1 POP DUP2 DUP2 SUB PUSH0 DUP4 ADD MSTORE PUSH2 0xE6F4 DUP2 PUSH2 0xE6BB JUMP JUMPDEST SWAP1 POP SWAP2 SWAP1 POP JUMP JUMPDEST PUSH32 0x7B2266726F6D223A202245636F6D50726F647563742E736F6C222C22636F6465 PUSH0 DUP3 ADD MSTORE PUSH32 0x223A2031332C20226D657373616765223A202277726F6E672064696666507269 PUSH1 0x20 DUP3 ADD MSTORE PUSH32 0x6365227D00000000000000000000000000000000000000000000000000000000 PUSH1 0x40 DUP3 ADD MSTORE POP JUMP JUMPDEST PUSH0 PUSH2 0xE77B PUSH1 0x44 DUP4 PUSH2 0xA6E3 JUMP JUMPDEST SWAP2 POP PUSH2 0xE786 DUP3 PUSH2 0xE6FB JUMP JUMPDEST PUSH1 0x60 DUP3 ADD SWAP1 POP SWAP2 SWAP1 POP JUMP JUMPDEST PUSH0 PUSH1 0x20 DUP3 ADD SWAP1 POP DUP2 DUP2 SUB PUSH0 DUP4 ADD MSTORE PUSH2 0xE7A8 DUP2 PUSH2 0xE76F JUMP JUMPDEST SWAP1 POP SWAP2 SWAP1 POP JUMP JUMPDEST PUSH0 PUSH2 0xE7B9 DUP3 PUSH2 0x9B86 JUMP JUMPDEST SWAP2 POP PUSH2 0xE7C4 DUP4 PUSH2 0x9B86 JUMP JUMPDEST SWAP3 POP DUP3 DUP3 MUL PUSH2 0xE7D2 DUP2 PUSH2 0x9B86 JUMP JUMPDEST SWAP2 POP DUP3 DUP3 DIV DUP5 EQ DUP4 ISZERO OR PUSH2 0xE7E9 JUMPI PUSH2 0xE7E8 PUSH2 0xC4C5 JUMP JUMPDEST JUMPDEST POP SWAP3 SWAP2 POP POP JUMP INVALID SLOAD PUSH9 0x69732070726F647563 PUSH21 0x20686173206E6F74206265656E20617070726F7665 PUSH5 0x2E496E7661 PUSH13 0x6964207061796D656E74207479 PUSH17 0x652C207061796D656E7420747970652073 PUSH9 0x6F756C64206D65206D PUSH6 0x74616E6F6465 MSTORE PUSH6 0x717565737465 PUSH5 0x207175616E PUSH21 0x697479206578636565647320617661696C61626C65 KECCAK256 PUSH20 0x746F636B50726F6475637420616E642076617269 PUSH2 0x6E74 KECCAK256 PUSH2 0x6C72 PUSH6 0x616479206578 PUSH10 0x73747320696E20636172 PUSH21 0x496E73756666696369656E74207175616E74697479 KECCAK256 PUSH2 0x7661 PUSH10 0x6C61626C6520666F7220 PUSH17 0x75726368617365A2646970667358221220 0xAF 0xDB MCOPY GAS 0xF8 PUSH30 0xEB6E3CAA1E7481AA3DE9462A966228E85BD41F467C52CD6725CD64736F6C PUSH4 0x4300081A STOP CALLER "
		},
		"gasEstimates": {
			"creation": {
				"codeDepositCost": "11929200",
				"executionCost": "42260",
				"totalCost": "11971460"
			},
			"external": {
				"CheckCallData(bytes)": "infinite",
				"ConfirmPaymentForOrderCode(bytes32)": "infinite",
				"EcomInfo()": "infinite",
				"EcomProduct()": "infinite",
				"EcomUser()": "infinite",
				"ExecuteOrder((uint256,uint256,bytes32,uint256,string[])[],(string,string,string,string,string,string,string,string,string),(uint256,bytes32,uint8,uint8))": "infinite",
				"GetOrderInfo(uint256)": "infinite",
				"GetOrderInfoFromOrderCode(bytes32)": "infinite",
				"MasterPool()": "2618",
				"POS()": "2619",
				"SetEcomInfo(address)": "27176",
				"SetEcomProduct(address)": "27177",
				"SetEcomUser(address)": "27198",
				"SetMasterPool(address)": "27221",
				"SetPos(address)": "27155",
				"SetTreeCom(address)": "27156",
				"SetUsdt(address)": "27176",
				"TreeCom()": "infinite",
				"USDT()": "infinite",
				"addItemToCart(uint256,bytes32,uint256)": "infinite",
				"addItemsToCart((uint256,bytes32,uint256)[])": "infinite",
				"createCart((uint256,uint256,uint256,bytes32,uint256))": "infinite",
				"createShareLink((uint256[],uint256[],bytes32[],uint256[],uint256)[],uint256)": "infinite",
				"createShippingInfo((string,string,string,string,string,string,string,string,string),uint256,address)": "infinite",
				"deleteItemInCart(uint256)": "infinite",
				"deleteItemsInCart(uint256[])": "infinite",
				"deleteMultipleShareLink(uint256[])": "infinite",
				"deleteShareLink(uint256)": "infinite",
				"getErrorMessage(uint256,string)": "infinite",
				"getOrder(uint256)": "infinite",
				"getOrderCode(bytes32)": "2857",
				"getOrders()": "infinite",
				"getShareLink(uint256)": "infinite",
				"getShareLinks()": "infinite",
				"getShippingInfoByOrderID(uint256)": "infinite",
				"getUserCart()": "infinite",
				"getUserCartInfo(address)": "infinite",
				"getUserOrders(address)": "infinite",
				"getUserShareLinks(address)": "infinite",
				"mAddToOrderCode(address)": "2936",
				"mOrder(uint256)": "infinite",
				"mOrderInfo(uint256)": "infinite",
				"mOrders(address,uint256)": "infinite",
				"mShareLink(uint256)": "infinite",
				"mShippingInfo(uint256)": "infinite",
				"mShippingInfoByAddress(address,uint256)": "infinite",
				"mShippingInfoByOrder(uint256)": "infinite",
				"mUserCart(address)": "infinite",
				"mUserShareLink(address,uint256)": "infinite",
				"owner()": "2619",
				"updateItemInCart(uint256,uint256)": "infinite",
				"updateItemsToCart((uint256,uint256)[])": "infinite",
				"updateOrderStatusAfterDelivery(bytes32,uint8)": "infinite",
				"updateShareLink(uint256,(uint256[],uint256[],bytes32[],uint256[],uint256)[],uint256)": "infinite"
			},
			"internal": {
				"ProcessOrder(struct CreateOrderParams memory[] memory,address)": "infinite",
				"_deleteItemInCart(address,uint256)": "infinite",
				"_deleteParamsForExecuteOrder(uint256)": "infinite",
				"checkValidShareLinkParams(struct ShareLinkParams memory[] memory)": "infinite",
				"deleteItemInCartBySmc(address,uint256)": "infinite",
				"recoverParentOrder(struct ShareLink storage pointer)": "infinite"
			}
		},
		"methodIdentifiers": {
			"CheckCallData(bytes)": "30d51a32",
			"ConfirmPaymentForOrderCode(bytes32)": "f894196e",
			"EcomInfo()": "b814f77b",
			"EcomProduct()": "a354f1b2",
			"EcomUser()": "4d5c5fd7",
			"ExecuteOrder((uint256,uint256,bytes32,uint256,string[])[],(string,string,string,string,string,string,string,string,string),(uint256,bytes32,uint8,uint8))": "76d6e7ef",
			"GetOrderInfo(uint256)": "e217866c",
			"GetOrderInfoFromOrderCode(bytes32)": "ab238f1f",
			"MasterPool()": "fb7ef377",
			"POS()": "f29155ef",
			"SetEcomInfo(address)": "8a8869e2",
			"SetEcomProduct(address)": "62de6230",
			"SetEcomUser(address)": "cac0e650",
			"SetMasterPool(address)": "a559934e",
			"SetPos(address)": "9a377a37",
			"SetTreeCom(address)": "4b5ba409",
			"SetUsdt(address)": "ddcd6408",
			"TreeCom()": "e5fc4ac2",
			"USDT()": "c54e44eb",
			"addItemToCart(uint256,bytes32,uint256)": "399cfa1e",
			"addItemsToCart((uint256,bytes32,uint256)[])": "93c26229",
			"createCart((uint256,uint256,uint256,bytes32,uint256))": "cf991364",
			"createShareLink((uint256[],uint256[],bytes32[],uint256[],uint256)[],uint256)": "a875588d",
			"createShippingInfo((string,string,string,string,string,string,string,string,string),uint256,address)": "040f1d72",
			"deleteItemInCart(uint256)": "4e8781cd",
			"deleteItemsInCart(uint256[])": "86cb0d92",
			"deleteMultipleShareLink(uint256[])": "a4e176ea",
			"deleteShareLink(uint256)": "c006e9a9",
			"getErrorMessage(uint256,string)": "2248632a",
			"getOrder(uint256)": "d09ef241",
			"getOrderCode(bytes32)": "fb08e12e",
			"getOrders()": "2e2dc43e",
			"getShareLink(uint256)": "d71f8181",
			"getShareLinks()": "46e115c0",
			"getShippingInfoByOrderID(uint256)": "834f9ed3",
			"getUserCart()": "44d80330",
			"getUserCartInfo(address)": "1fda90a2",
			"getUserOrders(address)": "63c69f08",
			"getUserShareLinks(address)": "e5e00e93",
			"mAddToOrderCode(address)": "664008f8",
			"mOrder(uint256)": "2d8206fe",
			"mOrderInfo(uint256)": "cf9796ec",
			"mOrders(address,uint256)": "ea68ba99",
			"mShareLink(uint256)": "00e6af7f",
			"mShippingInfo(uint256)": "da31f88a",
			"mShippingInfoByAddress(address,uint256)": "02b572d6",
			"mShippingInfoByOrder(uint256)": "bfbe3ef7",
			"mUserCart(address)": "96e98874",
			"mUserShareLink(address,uint256)": "5a7f48f8",
			"owner()": "8da5cb5b",
			"updateItemInCart(uint256,uint256)": "7ce47345",
			"updateItemsToCart((uint256,uint256)[])": "ffafe929",
			"updateOrderStatusAfterDelivery(bytes32,uint8)": "30bf6522",
			"updateShareLink(uint256,(uint256[],uint256[],bytes32[],uint256[],uint256)[],uint256)": "08a53b21"
		}
	},
	"abi": [
		{
			"inputs": [],
			"stateMutability": "payable",
			"type": "constructor"
		},
		{
			"anonymous": false,
			"inputs": [
				{
					"indexed": false,
					"internalType": "bytes32",
					"name": "orderCode",
					"type": "bytes32"
				}
			],
			"name": "eCreateOrder",
			"type": "event"
		},
		{
			"anonymous": false,
			"inputs": [
				{
					"indexed": false,
					"internalType": "uint256",
					"name": "id",
					"type": "uint256"
				},
				{
					"indexed": false,
					"internalType": "uint256",
					"name": "orderID",
					"type": "uint256"
				},
				{
					"indexed": false,
					"internalType": "address",
					"name": "userAddress",
					"type": "address"
				},
				{
					"indexed": false,
					"internalType": "string",
					"name": "firstName",
					"type": "string"
				},
				{
					"indexed": false,
					"internalType": "string",
					"name": "lastName",
					"type": "string"
				},
				{
					"indexed": false,
					"internalType": "string",
					"name": "email",
					"type": "string"
				},
				{
					"indexed": false,
					"internalType": "string",
					"name": "country",
					"type": "string"
				},
				{
					"indexed": false,
					"internalType": "string",
					"name": "city",
					"type": "string"
				},
				{
					"indexed": false,
					"internalType": "string",
					"name": "stateOrProvince",
					"type": "string"
				},
				{
					"indexed": false,
					"internalType": "string",
					"name": "postalCode",
					"type": "string"
				},
				{
					"indexed": false,
					"internalType": "string",
					"name": "phone",
					"type": "string"
				},
				{
					"indexed": false,
					"internalType": "string",
					"name": "addressDetail",
					"type": "string"
				}
			],
			"name": "eCreateShipping",
			"type": "event"
		},
		{
			"anonymous": false,
			"inputs": [
				{
					"indexed": false,
					"internalType": "uint256",
					"name": "id",
					"type": "uint256"
				}
			],
			"name": "eExecuteOrder",
			"type": "event"
		},
		{
			"anonymous": false,
			"inputs": [
				{
					"indexed": true,
					"internalType": "uint256",
					"name": "orderID",
					"type": "uint256"
				},
				{
					"indexed": true,
					"internalType": "bytes32",
					"name": "orderCode",
					"type": "bytes32"
				},
				{
					"indexed": false,
					"internalType": "uint8",
					"name": "newStatus",
					"type": "uint8"
				}
			],
			"name": "eOrderStatusUpdated",
			"type": "event"
		},
		{
			"inputs": [
				{
					"internalType": "bytes",
					"name": "callData",
					"type": "bytes"
				}
			],
			"name": "CheckCallData",
			"outputs": [
				{
					"internalType": "bool",
					"name": "",
					"type": "bool"
				}
			],
			"stateMutability": "view",
			"type": "function"
		},
		{
			"inputs": [
				{
					"internalType": "bytes32",
					"name": "orderCode",
					"type": "bytes32"
				}
			],
			"name": "ConfirmPaymentForOrderCode",
			"outputs": [],
			"stateMutability": "nonpayable",
			"type": "function"
		},
		{
			"inputs": [],
			"name": "EcomInfo",
			"outputs": [
				{
					"internalType": "contract IEcomInfo",
					"name": "",
					"type": "address"
				}
			],
			"stateMutability": "view",
			"type": "function"
		},
		{
			"inputs": [],
			"name": "EcomProduct",
			"outputs": [
				{
					"internalType": "contract IEcomProduct",
					"name": "",
					"type": "address"
				}
			],
			"stateMutability": "view",
			"type": "function"
		},
		{
			"inputs": [],
			"name": "EcomUser",
			"outputs": [
				{
					"internalType": "contract IEcomUser",
					"name": "",
					"type": "address"
				}
			],
			"stateMutability": "view",
			"type": "function"
		},
		{
			"inputs": [
				{
					"components": [
						{
							"internalType": "uint256",
							"name": "productID",
							"type": "uint256"
						},
						{
							"internalType": "uint256",
							"name": "quantity",
							"type": "uint256"
						},
						{
							"internalType": "bytes32",
							"name": "variantID",
							"type": "bytes32"
						},
						{
							"internalType": "uint256",
							"name": "cartItemId",
							"type": "uint256"
						},
						{
							"internalType": "string[]",
							"name": "discountCodes",
							"type": "string[]"
						}
					],
					"internalType": "struct CreateOrderParams[]",
					"name": "params",
					"type": "tuple[]"
				},
				{
					"components": [
						{
							"internalType": "string",
							"name": "firstName",
							"type": "string"
						},
						{
							"internalType": "string",
							"name": "lastName",
							"type": "string"
						},
						{
							"internalType": "string",
							"name": "email",
							"type": "string"
						},
						{
							"internalType": "string",
							"name": "country",
							"type": "string"
						},
						{
							"internalType": "string",
							"name": "city",
							"type": "string"
						},
						{
							"internalType": "string",
							"name": "stateOrProvince",
							"type": "string"
						},
						{
							"internalType": "string",
							"name": "postalCode",
							"type": "string"
						},
						{
							"internalType": "string",
							"name": "phone",
							"type": "string"
						},
						{
							"internalType": "string",
							"name": "addressDetail",
							"type": "string"
						}
					],
					"internalType": "struct ShippingParams",
					"name": "shippingParams",
					"type": "tuple"
				},
				{
					"components": [
						{
							"internalType": "uint256",
							"name": "totalPriceWithoutDiscount",
							"type": "uint256"
						},
						{
							"internalType": "bytes32",
							"name": "codeRef",
							"type": "bytes32"
						},
						{
							"internalType": "enum CheckoutType",
							"name": "checkoutType",
							"type": "uint8"
						},
						{
							"internalType": "enum PaymentType",
							"name": "paymentType",
							"type": "uint8"
						}
					],
					"internalType": "struct orderDetails",
					"name": "details",
					"type": "tuple"
				}
			],
			"name": "ExecuteOrder",
			"outputs": [
				{
					"internalType": "bytes32",
					"name": "",
					"type": "bytes32"
				}
			],
			"stateMutability": "nonpayable",
			"type": "function"
		},
		{
			"inputs": [
				{
					"internalType": "uint256",
					"name": "_id",
					"type": "uint256"
				}
			],
			"name": "GetOrderInfo",
			"outputs": [
				{
					"components": [
						{
							"components": [
								{
									"internalType": "uint256",
									"name": "productID",
									"type": "uint256"
								},
								{
									"internalType": "uint256",
									"name": "quantity",
									"type": "uint256"
								},
								{
									"internalType": "bytes32",
									"name": "variantID",
									"type": "bytes32"
								},
								{
									"internalType": "uint256",
									"name": "cartItemId",
									"type": "uint256"
								},
								{
									"internalType": "string[]",
									"name": "discountCodes",
									"type": "string[]"
								}
							],
							"internalType": "struct CreateOrderParams[]",
							"name": "params",
							"type": "tuple[]"
						},
						{
							"components": [
								{
									"internalType": "string",
									"name": "firstName",
									"type": "string"
								},
								{
									"internalType": "string",
									"name": "lastName",
									"type": "string"
								},
								{
									"internalType": "string",
									"name": "email",
									"type": "string"
								},
								{
									"internalType": "string",
									"name": "country",
									"type": "string"
								},
								{
									"internalType": "string",
									"name": "city",
									"type": "string"
								},
								{
									"internalType": "string",
									"name": "stateOrProvince",
									"type": "string"
								},
								{
									"internalType": "string",
									"name": "postalCode",
									"type": "string"
								},
								{
									"internalType": "string",
									"name": "phone",
									"type": "string"
								},
								{
									"internalType": "string",
									"name": "addressDetail",
									"type": "string"
								}
							],
							"internalType": "struct ShippingParams",
							"name": "shippingParams",
							"type": "tuple"
						},
						{
							"internalType": "address",
							"name": "user",
							"type": "address"
						},
						{
							"components": [
								{
									"internalType": "uint256",
									"name": "totalPriceWithoutDiscount",
									"type": "uint256"
								},
								{
									"internalType": "bytes32",
									"name": "codeRef",
									"type": "bytes32"
								},
								{
									"internalType": "enum CheckoutType",
									"name": "checkoutType",
									"type": "uint8"
								},
								{
									"internalType": "enum PaymentType",
									"name": "paymentType",
									"type": "uint8"
								}
							],
							"internalType": "struct orderDetails",
							"name": "details",
							"type": "tuple"
						}
					],
					"internalType": "struct DecodedParams",
					"name": "",
					"type": "tuple"
				}
			],
			"stateMutability": "view",
			"type": "function"
		},
		{
			"inputs": [
				{
					"internalType": "bytes32",
					"name": "_orderCode",
					"type": "bytes32"
				}
			],
			"name": "GetOrderInfoFromOrderCode",
			"outputs": [
				{
					"components": [
						{
							"internalType": "uint256",
							"name": "orderID",
							"type": "uint256"
						},
						{
							"internalType": "address",
							"name": "user",
							"type": "address"
						},
						{
							"internalType": "address",
							"name": "buyer",
							"type": "address"
						},
						{
							"internalType": "uint256",
							"name": "discountID",
							"type": "uint256"
						},
						{
							"internalType": "uint256[]",
							"name": "cartItemIds",
							"type": "uint256[]"
						},
						{
							"internalType": "uint256[]",
							"name": "productIds",
							"type": "uint256[]"
						},
						{
							"internalType": "bytes32[]",
							"name": "variantIds",
							"type": "bytes32[]"
						},
						{
							"internalType": "uint256[]",
							"name": "quantities",
							"type": "uint256[]"
						},
						{
							"internalType": "uint256[]",
							"name": "diffPrices",
							"type": "uint256[]"
						},
						{
							"internalType": "uint256[]",
							"name": "prices",
							"type": "uint256[]"
						},
						{
							"internalType": "uint256[]",
							"name": "rewards",
							"type": "uint256[]"
						},
						{
							"internalType": "uint256",
							"name": "totalPrice",
							"type": "uint256"
						},
						{
							"internalType": "uint8",
							"name": "checkoutType",
							"type": "uint8"
						},
						{
							"internalType": "uint8",
							"name": "orderStatus",
							"type": "uint8"
						},
						{
							"internalType": "bytes32",
							"name": "codeRef",
							"type": "bytes32"
						},
						{
							"internalType": "uint256",
							"name": "afterDiscountPrice",
							"type": "uint256"
						},
						{
							"internalType": "uint256",
							"name": "shippingPrice",
							"type": "uint256"
						},
						{
							"internalType": "uint8",
							"name": "paymentType",
							"type": "uint8"
						},
						{
							"internalType": "uint256",
							"name": "createdAt",
							"type": "uint256"
						}
					],
					"internalType": "struct Order",
					"name": "res",
					"type": "tuple"
				}
			],
			"stateMutability": "view",
			"type": "function"
		},
		{
			"inputs": [],
			"name": "MasterPool",
			"outputs": [
				{
					"internalType": "address",
					"name": "",
					"type": "address"
				}
			],
			"stateMutability": "view",
			"type": "function"
		},
		{
			"inputs": [],
			"name": "POS",
			"outputs": [
				{
					"internalType": "address",
					"name": "",
					"type": "address"
				}
			],
			"stateMutability": "view",
			"type": "function"
		},
		{
			"inputs": [
				{
					"internalType": "address",
					"name": "_ecomInfo",
					"type": "address"
				}
			],
			"name": "SetEcomInfo",
			"outputs": [
				{
					"internalType": "bool",
					"name": "",
					"type": "bool"
				}
			],
			"stateMutability": "nonpayable",
			"type": "function"
		},
		{
			"inputs": [
				{
					"internalType": "address",
					"name": "_ecomProduct",
					"type": "address"
				}
			],
			"name": "SetEcomProduct",
			"outputs": [
				{
					"internalType": "bool",
					"name": "",
					"type": "bool"
				}
			],
			"stateMutability": "nonpayable",
			"type": "function"
		},
		{
			"inputs": [
				{
					"internalType": "address",
					"name": "_ecomUser",
					"type": "address"
				}
			],
			"name": "SetEcomUser",
			"outputs": [
				{
					"internalType": "bool",
					"name": "",
					"type": "bool"
				}
			],
			"stateMutability": "nonpayable",
			"type": "function"
		},
		{
			"inputs": [
				{
					"internalType": "address",
					"name": "_masterPool",
					"type": "address"
				}
			],
			"name": "SetMasterPool",
			"outputs": [
				{
					"internalType": "bool",
					"name": "",
					"type": "bool"
				}
			],
			"stateMutability": "nonpayable",
			"type": "function"
		},
		{
			"inputs": [
				{
					"internalType": "address",
					"name": "_pos",
					"type": "address"
				}
			],
			"name": "SetPos",
			"outputs": [
				{
					"internalType": "bool",
					"name": "",
					"type": "bool"
				}
			],
			"stateMutability": "nonpayable",
			"type": "function"
		},
		{
			"inputs": [
				{
					"internalType": "address",
					"name": "_treecom",
					"type": "address"
				}
			],
			"name": "SetTreeCom",
			"outputs": [
				{
					"internalType": "bool",
					"name": "",
					"type": "bool"
				}
			],
			"stateMutability": "nonpayable",
			"type": "function"
		},
		{
			"inputs": [
				{
					"internalType": "address",
					"name": "_usdt",
					"type": "address"
				}
			],
			"name": "SetUsdt",
			"outputs": [
				{
					"internalType": "bool",
					"name": "",
					"type": "bool"
				}
			],
			"stateMutability": "nonpayable",
			"type": "function"
		},
		{
			"inputs": [],
			"name": "TreeCom",
			"outputs": [
				{
					"internalType": "contract ITreeCom",
					"name": "",
					"type": "address"
				}
			],
			"stateMutability": "view",
			"type": "function"
		},
		{
			"inputs": [],
			"name": "USDT",
			"outputs": [
				{
					"internalType": "contract IERC20",
					"name": "",
					"type": "address"
				}
			],
			"stateMutability": "view",
			"type": "function"
		},
		{
			"inputs": [
				{
					"internalType": "uint256",
					"name": "_productID",
					"type": "uint256"
				},
				{
					"internalType": "bytes32",
					"name": "_variantID",
					"type": "bytes32"
				},
				{
					"internalType": "uint256",
					"name": "_quantity",
					"type": "uint256"
				}
			],
			"name": "addItemToCart",
			"outputs": [
				{
					"components": [
						{
							"internalType": "uint256",
							"name": "id",
							"type": "uint256"
						},
						{
							"internalType": "uint256",
							"name": "productID",
							"type": "uint256"
						},
						{
							"internalType": "uint256",
							"name": "quantity",
							"type": "uint256"
						},
						{
							"internalType": "bytes32",
							"name": "variantID",
							"type": "bytes32"
						},
						{
							"internalType": "uint256",
							"name": "createAt",
							"type": "uint256"
						}
					],
					"internalType": "struct CartItem",
					"name": "",
					"type": "tuple"
				}
			],
			"stateMutability": "nonpayable",
			"type": "function"
		},
		{
			"inputs": [
				{
					"components": [
						{
							"internalType": "uint256",
							"name": "_productID",
							"type": "uint256"
						},
						{
							"internalType": "bytes32",
							"name": "_variantID",
							"type": "bytes32"
						},
						{
							"internalType": "uint256",
							"name": "quantity",
							"type": "uint256"
						}
					],
					"internalType": "struct AddItemToCartParams[]",
					"name": "params",
					"type": "tuple[]"
				}
			],
			"name": "addItemsToCart",
			"outputs": [
				{
					"components": [
						{
							"internalType": "uint256",
							"name": "id",
							"type": "uint256"
						},
						{
							"internalType": "uint256",
							"name": "productID",
							"type": "uint256"
						},
						{
							"internalType": "uint256",
							"name": "quantity",
							"type": "uint256"
						},
						{
							"internalType": "bytes32",
							"name": "variantID",
							"type": "bytes32"
						},
						{
							"internalType": "uint256",
							"name": "createAt",
							"type": "uint256"
						}
					],
					"internalType": "struct CartItem[]",
					"name": "_items",
					"type": "tuple[]"
				}
			],
			"stateMutability": "nonpayable",
			"type": "function"
		},
		{
			"inputs": [
				{
					"components": [
						{
							"internalType": "uint256",
							"name": "id",
							"type": "uint256"
						},
						{
							"internalType": "uint256",
							"name": "productID",
							"type": "uint256"
						},
						{
							"internalType": "uint256",
							"name": "quantity",
							"type": "uint256"
						},
						{
							"internalType": "bytes32",
							"name": "variantID",
							"type": "bytes32"
						},
						{
							"internalType": "uint256",
							"name": "createAt",
							"type": "uint256"
						}
					],
					"internalType": "struct CartItem",
					"name": "cartItem",
					"type": "tuple"
				}
			],
			"name": "createCart",
			"outputs": [],
			"stateMutability": "nonpayable",
			"type": "function"
		},
		{
			"inputs": [
				{
					"components": [
						{
							"internalType": "uint256[]",
							"name": "quantities",
							"type": "uint256[]"
						},
						{
							"internalType": "uint256[]",
							"name": "productIds",
							"type": "uint256[]"
						},
						{
							"internalType": "bytes32[]",
							"name": "variantIds",
							"type": "bytes32[]"
						},
						{
							"internalType": "uint256[]",
							"name": "prices",
							"type": "uint256[]"
						},
						{
							"internalType": "uint256",
							"name": "parentOrderID",
							"type": "uint256"
						}
					],
					"internalType": "struct ShareLinkParams[]",
					"name": "params",
					"type": "tuple[]"
				},
				{
					"internalType": "uint256",
					"name": "expiredTime",
					"type": "uint256"
				}
			],
			"name": "createShareLink",
			"outputs": [
				{
					"internalType": "uint256",
					"name": "",
					"type": "uint256"
				}
			],
			"stateMutability": "nonpayable",
			"type": "function"
		},
		{
			"inputs": [
				{
					"components": [
						{
							"internalType": "string",
							"name": "firstName",
							"type": "string"
						},
						{
							"internalType": "string",
							"name": "lastName",
							"type": "string"
						},
						{
							"internalType": "string",
							"name": "email",
							"type": "string"
						},
						{
							"internalType": "string",
							"name": "country",
							"type": "string"
						},
						{
							"internalType": "string",
							"name": "city",
							"type": "string"
						},
						{
							"internalType": "string",
							"name": "stateOrProvince",
							"type": "string"
						},
						{
							"internalType": "string",
							"name": "postalCode",
							"type": "string"
						},
						{
							"internalType": "string",
							"name": "phone",
							"type": "string"
						},
						{
							"internalType": "string",
							"name": "addressDetail",
							"type": "string"
						}
					],
					"internalType": "struct ShippingParams",
					"name": "shippingParams",
					"type": "tuple"
				},
				{
					"internalType": "uint256",
					"name": "_orderID",
					"type": "uint256"
				},
				{
					"internalType": "address",
					"name": "user",
					"type": "address"
				}
			],
			"name": "createShippingInfo",
			"outputs": [],
			"stateMutability": "nonpayable",
			"type": "function"
		},
		{
			"inputs": [
				{
					"internalType": "uint256",
					"name": "itemID",
					"type": "uint256"
				}
			],
			"name": "deleteItemInCart",
			"outputs": [],
			"stateMutability": "nonpayable",
			"type": "function"
		},
		{
			"inputs": [
				{
					"internalType": "uint256[]",
					"name": "itemIds",
					"type": "uint256[]"
				}
			],
			"name": "deleteItemsInCart",
			"outputs": [
				{
					"internalType": "bool",
					"name": "",
					"type": "bool"
				}
			],
			"stateMutability": "nonpayable",
			"type": "function"
		},
		{
			"inputs": [
				{
					"internalType": "uint256[]",
					"name": "_shareLinkIds",
					"type": "uint256[]"
				}
			],
			"name": "deleteMultipleShareLink",
			"outputs": [
				{
					"internalType": "bool",
					"name": "",
					"type": "bool"
				}
			],
			"stateMutability": "nonpayable",
			"type": "function"
		},
		{
			"inputs": [
				{
					"internalType": "uint256",
					"name": "_shareLinkID",
					"type": "uint256"
				}
			],
			"name": "deleteShareLink",
			"outputs": [
				{
					"internalType": "bool",
					"name": "",
					"type": "bool"
				}
			],
			"stateMutability": "nonpayable",
			"type": "function"
		},
		{
			"inputs": [
				{
					"internalType": "uint256",
					"name": "code",
					"type": "uint256"
				},
				{
					"internalType": "string",
					"name": "message",
					"type": "string"
				}
			],
			"name": "getErrorMessage",
			"outputs": [
				{
					"internalType": "string",
					"name": "",
					"type": "string"
				}
			],
			"stateMutability": "pure",
			"type": "function"
		},
		{
			"inputs": [
				{
					"internalType": "uint256",
					"name": "_orderID",
					"type": "uint256"
				}
			],
			"name": "getOrder",
			"outputs": [
				{
					"components": [
						{
							"internalType": "uint256",
							"name": "orderID",
							"type": "uint256"
						},
						{
							"internalType": "address",
							"name": "user",
							"type": "address"
						},
						{
							"internalType": "address",
							"name": "buyer",
							"type": "address"
						},
						{
							"internalType": "uint256",
							"name": "discountID",
							"type": "uint256"
						},
						{
							"internalType": "uint256[]",
							"name": "cartItemIds",
							"type": "uint256[]"
						},
						{
							"internalType": "uint256[]",
							"name": "productIds",
							"type": "uint256[]"
						},
						{
							"internalType": "bytes32[]",
							"name": "variantIds",
							"type": "bytes32[]"
						},
						{
							"internalType": "uint256[]",
							"name": "quantities",
							"type": "uint256[]"
						},
						{
							"internalType": "uint256[]",
							"name": "diffPrices",
							"type": "uint256[]"
						},
						{
							"internalType": "uint256[]",
							"name": "prices",
							"type": "uint256[]"
						},
						{
							"internalType": "uint256[]",
							"name": "rewards",
							"type": "uint256[]"
						},
						{
							"internalType": "uint256",
							"name": "totalPrice",
							"type": "uint256"
						},
						{
							"internalType": "uint8",
							"name": "checkoutType",
							"type": "uint8"
						},
						{
							"internalType": "uint8",
							"name": "orderStatus",
							"type": "uint8"
						},
						{
							"internalType": "bytes32",
							"name": "codeRef",
							"type": "bytes32"
						},
						{
							"internalType": "uint256",
							"name": "afterDiscountPrice",
							"type": "uint256"
						},
						{
							"internalType": "uint256",
							"name": "shippingPrice",
							"type": "uint256"
						},
						{
							"internalType": "uint8",
							"name": "paymentType",
							"type": "uint8"
						},
						{
							"internalType": "uint256",
							"name": "createdAt",
							"type": "uint256"
						}
					],
					"internalType": "struct Order",
					"name": "",
					"type": "tuple"
				}
			],
			"stateMutability": "view",
			"type": "function"
		},
		{
			"inputs": [
				{
					"internalType": "bytes32",
					"name": "orderCode",
					"type": "bytes32"
				}
			],
			"name": "getOrderCode",
			"outputs": [
				{
					"internalType": "uint256",
					"name": "",
					"type": "uint256"
				}
			],
			"stateMutability": "view",
			"type": "function"
		},
		{
			"inputs": [],
			"name": "getOrders",
			"outputs": [
				{
					"components": [
						{
							"internalType": "uint256",
							"name": "orderID",
							"type": "uint256"
						},
						{
							"internalType": "address",
							"name": "user",
							"type": "address"
						},
						{
							"internalType": "address",
							"name": "buyer",
							"type": "address"
						},
						{
							"internalType": "uint256",
							"name": "discountID",
							"type": "uint256"
						},
						{
							"internalType": "uint256[]",
							"name": "cartItemIds",
							"type": "uint256[]"
						},
						{
							"internalType": "uint256[]",
							"name": "productIds",
							"type": "uint256[]"
						},
						{
							"internalType": "bytes32[]",
							"name": "variantIds",
							"type": "bytes32[]"
						},
						{
							"internalType": "uint256[]",
							"name": "quantities",
							"type": "uint256[]"
						},
						{
							"internalType": "uint256[]",
							"name": "diffPrices",
							"type": "uint256[]"
						},
						{
							"internalType": "uint256[]",
							"name": "prices",
							"type": "uint256[]"
						},
						{
							"internalType": "uint256[]",
							"name": "rewards",
							"type": "uint256[]"
						},
						{
							"internalType": "uint256",
							"name": "totalPrice",
							"type": "uint256"
						},
						{
							"internalType": "uint8",
							"name": "checkoutType",
							"type": "uint8"
						},
						{
							"internalType": "uint8",
							"name": "orderStatus",
							"type": "uint8"
						},
						{
							"internalType": "bytes32",
							"name": "codeRef",
							"type": "bytes32"
						},
						{
							"internalType": "uint256",
							"name": "afterDiscountPrice",
							"type": "uint256"
						},
						{
							"internalType": "uint256",
							"name": "shippingPrice",
							"type": "uint256"
						},
						{
							"internalType": "uint8",
							"name": "paymentType",
							"type": "uint8"
						},
						{
							"internalType": "uint256",
							"name": "createdAt",
							"type": "uint256"
						}
					],
					"internalType": "struct Order[]",
					"name": "res",
					"type": "tuple[]"
				}
			],
			"stateMutability": "view",
			"type": "function"
		},
		{
			"inputs": [
				{
					"internalType": "uint256",
					"name": "_id",
					"type": "uint256"
				}
			],
			"name": "getShareLink",
			"outputs": [
				{
					"components": [
						{
							"internalType": "uint256",
							"name": "ID",
							"type": "uint256"
						},
						{
							"components": [
								{
									"internalType": "uint256[]",
									"name": "quantities",
									"type": "uint256[]"
								},
								{
									"internalType": "uint256[]",
									"name": "productIds",
									"type": "uint256[]"
								},
								{
									"internalType": "bytes32[]",
									"name": "variantIds",
									"type": "bytes32[]"
								},
								{
									"internalType": "uint256[]",
									"name": "prices",
									"type": "uint256[]"
								},
								{
									"internalType": "uint256",
									"name": "parentOrderID",
									"type": "uint256"
								}
							],
							"internalType": "struct ShareLinkParams[]",
							"name": "params",
							"type": "tuple[]"
						},
						{
							"internalType": "address",
							"name": "owner",
							"type": "address"
						},
						{
							"internalType": "bool",
							"name": "isExecuted",
							"type": "bool"
						},
						{
							"internalType": "uint256",
							"name": "expiredTime",
							"type": "uint256"
						}
					],
					"internalType": "struct ShareLink",
					"name": "",
					"type": "tuple"
				}
			],
			"stateMutability": "view",
			"type": "function"
		},
		{
			"inputs": [],
			"name": "getShareLinks",
			"outputs": [
				{
					"components": [
						{
							"internalType": "uint256",
							"name": "ID",
							"type": "uint256"
						},
						{
							"components": [
								{
									"internalType": "uint256[]",
									"name": "quantities",
									"type": "uint256[]"
								},
								{
									"internalType": "uint256[]",
									"name": "productIds",
									"type": "uint256[]"
								},
								{
									"internalType": "bytes32[]",
									"name": "variantIds",
									"type": "bytes32[]"
								},
								{
									"internalType": "uint256[]",
									"name": "prices",
									"type": "uint256[]"
								},
								{
									"internalType": "uint256",
									"name": "parentOrderID",
									"type": "uint256"
								}
							],
							"internalType": "struct ShareLinkParams[]",
							"name": "params",
							"type": "tuple[]"
						},
						{
							"internalType": "address",
							"name": "owner",
							"type": "address"
						},
						{
							"internalType": "bool",
							"name": "isExecuted",
							"type": "bool"
						},
						{
							"internalType": "uint256",
							"name": "expiredTime",
							"type": "uint256"
						}
					],
					"internalType": "struct ShareLink[]",
					"name": "",
					"type": "tuple[]"
				}
			],
			"stateMutability": "view",
			"type": "function"
		},
		{
			"inputs": [
				{
					"internalType": "uint256",
					"name": "_orderID",
					"type": "uint256"
				}
			],
			"name": "getShippingInfoByOrderID",
			"outputs": [
				{
					"components": [
						{
							"internalType": "uint256",
							"name": "id",
							"type": "uint256"
						},
						{
							"internalType": "uint256",
							"name": "orderID",
							"type": "uint256"
						},
						{
							"internalType": "address",
							"name": "userAddress",
							"type": "address"
						},
						{
							"components": [
								{
									"internalType": "string",
									"name": "firstName",
									"type": "string"
								},
								{
									"internalType": "string",
									"name": "lastName",
									"type": "string"
								},
								{
									"internalType": "string",
									"name": "email",
									"type": "string"
								},
								{
									"internalType": "string",
									"name": "country",
									"type": "string"
								},
								{
									"internalType": "string",
									"name": "city",
									"type": "string"
								},
								{
									"internalType": "string",
									"name": "stateOrProvince",
									"type": "string"
								},
								{
									"internalType": "string",
									"name": "postalCode",
									"type": "string"
								},
								{
									"internalType": "string",
									"name": "phone",
									"type": "string"
								},
								{
									"internalType": "string",
									"name": "addressDetail",
									"type": "string"
								}
							],
							"internalType": "struct ShippingParams",
							"name": "params",
							"type": "tuple"
						}
					],
					"internalType": "struct ShippingInfo",
					"name": "",
					"type": "tuple"
				}
			],
			"stateMutability": "view",
			"type": "function"
		},
		{
			"inputs": [],
			"name": "getUserCart",
			"outputs": [
				{
					"components": [
						{
							"internalType": "uint256",
							"name": "id",
							"type": "uint256"
						},
						{
							"internalType": "address",
							"name": "owner",
							"type": "address"
						},
						{
							"components": [
								{
									"internalType": "uint256",
									"name": "id",
									"type": "uint256"
								},
								{
									"internalType": "uint256",
									"name": "productID",
									"type": "uint256"
								},
								{
									"internalType": "uint256",
									"name": "quantity",
									"type": "uint256"
								},
								{
									"internalType": "bytes32",
									"name": "variantID",
									"type": "bytes32"
								},
								{
									"internalType": "uint256",
									"name": "createAt",
									"type": "uint256"
								}
							],
							"internalType": "struct CartItem[]",
							"name": "items",
							"type": "tuple[]"
						}
					],
					"internalType": "struct Cart",
					"name": "",
					"type": "tuple"
				}
			],
			"stateMutability": "view",
			"type": "function"
		},
		{
			"inputs": [
				{
					"internalType": "address",
					"name": "_user",
					"type": "address"
				}
			],
			"name": "getUserCartInfo",
			"outputs": [
				{
					"components": [
						{
							"internalType": "uint256",
							"name": "id",
							"type": "uint256"
						},
						{
							"internalType": "address",
							"name": "owner",
							"type": "address"
						},
						{
							"components": [
								{
									"internalType": "uint256",
									"name": "id",
									"type": "uint256"
								},
								{
									"internalType": "uint256",
									"name": "productID",
									"type": "uint256"
								},
								{
									"internalType": "uint256",
									"name": "quantity",
									"type": "uint256"
								},
								{
									"internalType": "bytes32",
									"name": "variantID",
									"type": "bytes32"
								},
								{
									"internalType": "uint256",
									"name": "createAt",
									"type": "uint256"
								}
							],
							"internalType": "struct CartItem[]",
							"name": "items",
							"type": "tuple[]"
						}
					],
					"internalType": "struct Cart",
					"name": "",
					"type": "tuple"
				}
			],
			"stateMutability": "view",
			"type": "function"
		},
		{
			"inputs": [
				{
					"internalType": "address",
					"name": "_user",
					"type": "address"
				}
			],
			"name": "getUserOrders",
			"outputs": [
				{
					"components": [
						{
							"internalType": "uint256",
							"name": "orderID",
							"type": "uint256"
						},
						{
							"internalType": "address",
							"name": "user",
							"type": "address"
						},
						{
							"internalType": "address",
							"name": "buyer",
							"type": "address"
						},
						{
							"internalType": "uint256",
							"name": "discountID",
							"type": "uint256"
						},
						{
							"internalType": "uint256[]",
							"name": "cartItemIds",
							"type": "uint256[]"
						},
						{
							"internalType": "uint256[]",
							"name": "productIds",
							"type": "uint256[]"
						},
						{
							"internalType": "bytes32[]",
							"name": "variantIds",
							"type": "bytes32[]"
						},
						{
							"internalType": "uint256[]",
							"name": "quantities",
							"type": "uint256[]"
						},
						{
							"internalType": "uint256[]",
							"name": "diffPrices",
							"type": "uint256[]"
						},
						{
							"internalType": "uint256[]",
							"name": "prices",
							"type": "uint256[]"
						},
						{
							"internalType": "uint256[]",
							"name": "rewards",
							"type": "uint256[]"
						},
						{
							"internalType": "uint256",
							"name": "totalPrice",
							"type": "uint256"
						},
						{
							"internalType": "uint8",
							"name": "checkoutType",
							"type": "uint8"
						},
						{
							"internalType": "uint8",
							"name": "orderStatus",
							"type": "uint8"
						},
						{
							"internalType": "bytes32",
							"name": "codeRef",
							"type": "bytes32"
						},
						{
							"internalType": "uint256",
							"name": "afterDiscountPrice",
							"type": "uint256"
						},
						{
							"internalType": "uint256",
							"name": "shippingPrice",
							"type": "uint256"
						},
						{
							"internalType": "uint8",
							"name": "paymentType",
							"type": "uint8"
						},
						{
							"internalType": "uint256",
							"name": "createdAt",
							"type": "uint256"
						}
					],
					"internalType": "struct Order[]",
					"name": "res",
					"type": "tuple[]"
				}
			],
			"stateMutability": "view",
			"type": "function"
		},
		{
			"inputs": [
				{
					"internalType": "address",
					"name": "_user",
					"type": "address"
				}
			],
			"name": "getUserShareLinks",
			"outputs": [
				{
					"components": [
						{
							"internalType": "uint256",
							"name": "ID",
							"type": "uint256"
						},
						{
							"components": [
								{
									"internalType": "uint256[]",
									"name": "quantities",
									"type": "uint256[]"
								},
								{
									"internalType": "uint256[]",
									"name": "productIds",
									"type": "uint256[]"
								},
								{
									"internalType": "bytes32[]",
									"name": "variantIds",
									"type": "bytes32[]"
								},
								{
									"internalType": "uint256[]",
									"name": "prices",
									"type": "uint256[]"
								},
								{
									"internalType": "uint256",
									"name": "parentOrderID",
									"type": "uint256"
								}
							],
							"internalType": "struct ShareLinkParams[]",
							"name": "params",
							"type": "tuple[]"
						},
						{
							"internalType": "address",
							"name": "owner",
							"type": "address"
						},
						{
							"internalType": "bool",
							"name": "isExecuted",
							"type": "bool"
						},
						{
							"internalType": "uint256",
							"name": "expiredTime",
							"type": "uint256"
						}
					],
					"internalType": "struct ShareLink[]",
					"name": "",
					"type": "tuple[]"
				}
			],
			"stateMutability": "view",
			"type": "function"
		},
		{
			"inputs": [
				{
					"internalType": "address",
					"name": "",
					"type": "address"
				}
			],
			"name": "mAddToOrderCode",
			"outputs": [
				{
					"internalType": "bytes32",
					"name": "",
					"type": "bytes32"
				}
			],
			"stateMutability": "view",
			"type": "function"
		},
		{
			"inputs": [
				{
					"internalType": "uint256",
					"name": "",
					"type": "uint256"
				}
			],
			"name": "mOrder",
			"outputs": [
				{
					"internalType": "uint256",
					"name": "orderID",
					"type": "uint256"
				},
				{
					"internalType": "address",
					"name": "user",
					"type": "address"
				},
				{
					"internalType": "address",
					"name": "buyer",
					"type": "address"
				},
				{
					"internalType": "uint256",
					"name": "discountID",
					"type": "uint256"
				},
				{
					"internalType": "uint256",
					"name": "totalPrice",
					"type": "uint256"
				},
				{
					"internalType": "uint8",
					"name": "checkoutType",
					"type": "uint8"
				},
				{
					"internalType": "uint8",
					"name": "orderStatus",
					"type": "uint8"
				},
				{
					"internalType": "bytes32",
					"name": "codeRef",
					"type": "bytes32"
				},
				{
					"internalType": "uint256",
					"name": "afterDiscountPrice",
					"type": "uint256"
				},
				{
					"internalType": "uint256",
					"name": "shippingPrice",
					"type": "uint256"
				},
				{
					"internalType": "uint8",
					"name": "paymentType",
					"type": "uint8"
				},
				{
					"internalType": "uint256",
					"name": "createdAt",
					"type": "uint256"
				}
			],
			"stateMutability": "view",
			"type": "function"
		},
		{
			"inputs": [
				{
					"internalType": "uint256",
					"name": "",
					"type": "uint256"
				}
			],
			"name": "mOrderInfo",
			"outputs": [
				{
					"components": [
						{
							"internalType": "string",
							"name": "firstName",
							"type": "string"
						},
						{
							"internalType": "string",
							"name": "lastName",
							"type": "string"
						},
						{
							"internalType": "string",
							"name": "email",
							"type": "string"
						},
						{
							"internalType": "string",
							"name": "country",
							"type": "string"
						},
						{
							"internalType": "string",
							"name": "city",
							"type": "string"
						},
						{
							"internalType": "string",
							"name": "stateOrProvince",
							"type": "string"
						},
						{
							"internalType": "string",
							"name": "postalCode",
							"type": "string"
						},
						{
							"internalType": "string",
							"name": "phone",
							"type": "string"
						},
						{
							"internalType": "string",
							"name": "addressDetail",
							"type": "string"
						}
					],
					"internalType": "struct ShippingParams",
					"name": "shippingParams",
					"type": "tuple"
				},
				{
					"internalType": "address",
					"name": "user",
					"type": "address"
				},
				{
					"components": [
						{
							"internalType": "uint256",
							"name": "totalPriceWithoutDiscount",
							"type": "uint256"
						},
						{
							"internalType": "bytes32",
							"name": "codeRef",
							"type": "bytes32"
						},
						{
							"internalType": "enum CheckoutType",
							"name": "checkoutType",
							"type": "uint8"
						},
						{
							"internalType": "enum PaymentType",
							"name": "paymentType",
							"type": "uint8"
						}
					],
					"internalType": "struct orderDetails",
					"name": "details",
					"type": "tuple"
				}
			],
			"stateMutability": "view",
			"type": "function"
		},
		{
			"inputs": [
				{
					"internalType": "address",
					"name": "",
					"type": "address"
				},
				{
					"internalType": "uint256",
					"name": "",
					"type": "uint256"
				}
			],
			"name": "mOrders",
			"outputs": [
				{
					"internalType": "uint256",
					"name": "",
					"type": "uint256"
				}
			],
			"stateMutability": "view",
			"type": "function"
		},
		{
			"inputs": [
				{
					"internalType": "uint256",
					"name": "",
					"type": "uint256"
				}
			],
			"name": "mShareLink",
			"outputs": [
				{
					"internalType": "uint256",
					"name": "ID",
					"type": "uint256"
				},
				{
					"internalType": "address",
					"name": "owner",
					"type": "address"
				},
				{
					"internalType": "bool",
					"name": "isExecuted",
					"type": "bool"
				},
				{
					"internalType": "uint256",
					"name": "expiredTime",
					"type": "uint256"
				}
			],
			"stateMutability": "view",
			"type": "function"
		},
		{
			"inputs": [
				{
					"internalType": "uint256",
					"name": "",
					"type": "uint256"
				}
			],
			"name": "mShippingInfo",
			"outputs": [
				{
					"internalType": "uint256",
					"name": "id",
					"type": "uint256"
				},
				{
					"internalType": "uint256",
					"name": "orderID",
					"type": "uint256"
				},
				{
					"internalType": "address",
					"name": "userAddress",
					"type": "address"
				},
				{
					"components": [
						{
							"internalType": "string",
							"name": "firstName",
							"type": "string"
						},
						{
							"internalType": "string",
							"name": "lastName",
							"type": "string"
						},
						{
							"internalType": "string",
							"name": "email",
							"type": "string"
						},
						{
							"internalType": "string",
							"name": "country",
							"type": "string"
						},
						{
							"internalType": "string",
							"name": "city",
							"type": "string"
						},
						{
							"internalType": "string",
							"name": "stateOrProvince",
							"type": "string"
						},
						{
							"internalType": "string",
							"name": "postalCode",
							"type": "string"
						},
						{
							"internalType": "string",
							"name": "phone",
							"type": "string"
						},
						{
							"internalType": "string",
							"name": "addressDetail",
							"type": "string"
						}
					],
					"internalType": "struct ShippingParams",
					"name": "params",
					"type": "tuple"
				}
			],
			"stateMutability": "view",
			"type": "function"
		},
		{
			"inputs": [
				{
					"internalType": "address",
					"name": "",
					"type": "address"
				},
				{
					"internalType": "uint256",
					"name": "",
					"type": "uint256"
				}
			],
			"name": "mShippingInfoByAddress",
			"outputs": [
				{
					"internalType": "uint256",
					"name": "",
					"type": "uint256"
				}
			],
			"stateMutability": "view",
			"type": "function"
		},
		{
			"inputs": [
				{
					"internalType": "uint256",
					"name": "",
					"type": "uint256"
				}
			],
			"name": "mShippingInfoByOrder",
			"outputs": [
				{
					"internalType": "uint256",
					"name": "",
					"type": "uint256"
				}
			],
			"stateMutability": "view",
			"type": "function"
		},
		{
			"inputs": [
				{
					"internalType": "address",
					"name": "",
					"type": "address"
				}
			],
			"name": "mUserCart",
			"outputs": [
				{
					"internalType": "uint256",
					"name": "id",
					"type": "uint256"
				},
				{
					"internalType": "address",
					"name": "owner",
					"type": "address"
				}
			],
			"stateMutability": "view",
			"type": "function"
		},
		{
			"inputs": [
				{
					"internalType": "address",
					"name": "",
					"type": "address"
				},
				{
					"internalType": "uint256",
					"name": "",
					"type": "uint256"
				}
			],
			"name": "mUserShareLink",
			"outputs": [
				{
					"internalType": "uint256",
					"name": "",
					"type": "uint256"
				}
			],
			"stateMutability": "view",
			"type": "function"
		},
		{
			"inputs": [],
			"name": "owner",
			"outputs": [
				{
					"internalType": "address",
					"name": "",
					"type": "address"
				}
			],
			"stateMutability": "view",
			"type": "function"
		},
		{
			"inputs": [
				{
					"internalType": "uint256",
					"name": "itemID",
					"type": "uint256"
				},
				{
					"internalType": "uint256",
					"name": "quantity",
					"type": "uint256"
				}
			],
			"name": "updateItemInCart",
			"outputs": [
				{
					"components": [
						{
							"internalType": "uint256",
							"name": "id",
							"type": "uint256"
						},
						{
							"internalType": "uint256",
							"name": "productID",
							"type": "uint256"
						},
						{
							"internalType": "uint256",
							"name": "quantity",
							"type": "uint256"
						},
						{
							"internalType": "bytes32",
							"name": "variantID",
							"type": "bytes32"
						},
						{
							"internalType": "uint256",
							"name": "createAt",
							"type": "uint256"
						}
					],
					"internalType": "struct CartItem",
					"name": "_item",
					"type": "tuple"
				}
			],
			"stateMutability": "nonpayable",
			"type": "function"
		},
		{
			"inputs": [
				{
					"components": [
						{
							"internalType": "uint256",
							"name": "itemID",
							"type": "uint256"
						},
						{
							"internalType": "uint256",
							"name": "quantity",
							"type": "uint256"
						}
					],
					"internalType": "struct UpdateItemsToCartParams[]",
					"name": "params",
					"type": "tuple[]"
				}
			],
			"name": "updateItemsToCart",
			"outputs": [
				{
					"components": [
						{
							"internalType": "uint256",
							"name": "id",
							"type": "uint256"
						},
						{
							"internalType": "uint256",
							"name": "productID",
							"type": "uint256"
						},
						{
							"internalType": "uint256",
							"name": "quantity",
							"type": "uint256"
						},
						{
							"internalType": "bytes32",
							"name": "variantID",
							"type": "bytes32"
						},
						{
							"internalType": "uint256",
							"name": "createAt",
							"type": "uint256"
						}
					],
					"internalType": "struct CartItem[]",
					"name": "_items",
					"type": "tuple[]"
				}
			],
			"stateMutability": "nonpayable",
			"type": "function"
		},
		{
			"inputs": [
				{
					"internalType": "bytes32",
					"name": "orderCode",
					"type": "bytes32"
				},
				{
					"internalType": "enum OrderStatus",
					"name": "newStatus",
					"type": "uint8"
				}
			],
			"name": "updateOrderStatusAfterDelivery",
			"outputs": [],
			"stateMutability": "nonpayable",
			"type": "function"
		},
		{
			"inputs": [
				{
					"internalType": "uint256",
					"name": "_shareLinkID",
					"type": "uint256"
				},
				{
					"components": [
						{
							"internalType": "uint256[]",
							"name": "quantities",
							"type": "uint256[]"
						},
						{
							"internalType": "uint256[]",
							"name": "productIds",
							"type": "uint256[]"
						},
						{
							"internalType": "bytes32[]",
							"name": "variantIds",
							"type": "bytes32[]"
						},
						{
							"internalType": "uint256[]",
							"name": "prices",
							"type": "uint256[]"
						},
						{
							"internalType": "uint256",
							"name": "parentOrderID",
							"type": "uint256"
						}
					],
					"internalType": "struct ShareLinkParams[]",
					"name": "params",
					"type": "tuple[]"
				},
				{
					"internalType": "uint256",
					"name": "expiredTime",
					"type": "uint256"
				}
			],
			"name": "updateShareLink",
			"outputs": [
				{
					"internalType": "bool",
					"name": "",
					"type": "bool"
				}
			],
			"stateMutability": "nonpayable",
			"type": "function"
		}
	]
}