{
	"data": {
		"bytecode": {
			"linkReferences": {},
			"object": "60806040525f80546001600160a01b0319163317905561d3c0806100225f395ff3fe608060405234801561000f575f80fd5b5060043610610427575f3560e01c806241c6291461042b57806303926df914610454578063039dbd131461047457806306b32424146104975780630800e300146104b85780630abba767146104d85780630ba69a47146105065780630fb5d9e91461055457806310c54da81461056957806311d2a079146105895780631c8028a21461059e5780631d068976146105be5780631db6d8c0146105d157806321937b46146105e45780632248632a1461061157806328d2a1b61461063157806329058f09146106545780632c89f03b1461066757806331a4bcb51461067a57806332f394361461068d5780633de21ac6146106ad57806340342308146106c057806341d6aced146106d3578063423f65a9146106e657806343b3f034146106ef57806344089cd1146107025780634708ee101461071557806347c1701f146107285780634905a13d1461079d5780634b56436f146107b05780634d5c5fd7146107c35780634db0412c146107d65780635183d6f4146107eb578063562e2c35146108185780635b31508914610845578063633481e61461084d5780636353aa221461086f57806366573f6114610882578063676174a7146108a257806367ef5a9a146108b5578063680921ae146108d55780636813b53b146108fd5780636bb42046146109225780637608a27e1461094257806379a85e6c1461094a5780637acc0b201461096a5780637cbd41831461097d578063822d487d1461099d5780638248a724146109b2578063841392db146109c5578063891c95f9146109d85780638a8869e214610a025780638da5cb5b14610a155780638e5254a614610a275780639406a81614610a3a5780639b5ace9e14610a4d5780639ff99d9f14610a60578063a6ed62cf14610a73578063a8f4683014610a86578063ad81602914610a99578063af8eb71414610aac578063b224b4e914610abf578063b28917fe14610ad2578063b3ed37b214610adb578063b570fd8e14610aee578063b5c3a9dc14610af7578063b814f77b14610b0a578063b8eec5ff14610b1d578063b9db15b414610b26578063bb58e29f14610b46578063c29b2f2014610b59578063c33e39df14610b61578063c6cdbe5e14610b74578063c7691cf614610b87578063c785314814610bed578063cac0e65014610c00578063cbb7738014610c13578063ceca737f14610c26578063d06fd39b14610c39578063d4eb7bad14610c4c578063d738d8a214610c73578063d904d7c514610c86578063dee2412f14610c8e578063e7303fc014610ca1578063ed90c7b714610cb4578063edd1de4d14610cc7578063ee4e9fff14610cda578063f3052d2614610ced578063f497e49c14610d0d578063f82ee41a14610d3a578063f9fb452f14610d5b578063fdcb573214610d64578063fe5ed5dd14610d77578063fec0ed1d14610dea575b5f80fd5b61043e61043936600461afe4565b610dfd565b60405161044b919061b04a565b60405180910390f35b61046761046236600461b058565b610e71565b60405161044b919061b182565b61048761048236600461b058565b6110b5565b604051901515815260200161044b565b6104aa6104a536600461afe4565b61122a565b60405190815260200161044b565b6104cb6104c636600461b058565b611255565b60405161044b919061b194565b6104876104e636600461b30d565b805160208183018101805160058252928201919093012091525460ff1681565b61053d61051436600461b35c565b601060209081525f92835260408084209091529082529020805460019091015460ff9091169082565b60408051921515835260208301919091520161044b565b61055c6113e9565b60405161044b919061b384565b61057c61057736600461b058565b611463565b60405161044b919061b460565b61059c61059736600461b4f4565b611658565b005b6105b16105ac36600461b525565b611691565b60405161044b919061b8f1565b61059c6105cc36600461b903565b611772565b6104aa6105df36600461afe4565b611831565b6104876105f236600461b058565b335f908152601760209081526040808320938352929052205460ff1690565b61062461061f36600461b932565b61184a565b60405161044b919061b975565b61064461063f36600461b058565b611883565b60405161044b949392919061b987565b6104aa61066236600461b35c565b611f09565b6104aa61067536600461bee7565b611f22565b61059c61068836600461afe4565b612c37565b6020546106a0906001600160a01b031681565b60405161044b919061bf40565b6104876106bb36600461bf54565b612dce565b6104876106ce36600461afe4565b612edc565b61057c6106e136600461b058565b613125565b6104aa601d5481565b6104876106fd36600461b058565b613327565b61048761071036600461b525565b613438565b61048761072336600461c067565b61348a565b61078f61073636600461afe4565b600660209081525f92835260408084208252918352918190208054825160a08101845260018301548152600283015494810194909452600382015492840192909252600481015460608401526005015460808301529082565b60405161044b92919061c0a0565b6104876107ab36600461afe4565b61361c565b61059c6107be36600461b35c565b6137b5565b601f546106a0906001600160a01b031681565b6107de613dc4565b60405161044b919061c0b4565b6104876107f936600461b35c565b601760209081525f928352604080842090915290825290205460ff1681565b61048761082636600461b35c565b600160209081525f928352604080842090915290825290205460ff1681565b6105b1613fb7565b61086061085b36600461bf54565b61405b565b60405161044b9392919061c117565b61048761087d36600461c14b565b6141b2565b61089561089036600461b4f4565b614234565b60405161044b919061c1b5565b61059c6108b036600461c1c7565b6142fc565b6108c86108c336600461c2e5565b6144a0565b60405161044b919061c31e565b6108e86108e336600461b35c565b614551565b6040805192835260208301919091520161044b565b61091061090b36600461b058565b614589565b60405161044b9695949392919061c38c565b61093561093036600461b525565b6146fb565b60405161044b919061c40d565b61057c614e63565b61095d61095836600461b058565b61504f565b60405161044b919061c464565b6104aa61097836600461b058565b615a86565b61099061098b36600461b058565b615aa5565b60405161044b919061c476565b6109a5615bcd565b60405161044b919061c488565b6104aa6109c036600461b058565b615c98565b61059c6109d336600461b058565b615ca7565b6104aa6109e636600461afe4565b601360209081525f928352604080842090915290825290205481565b610487610a1036600461b525565b61605b565b5f546106a0906001600160a01b031681565b610860610a3536600461b058565b6160ad565b610487610a4836600461bf54565b6160ce565b610487610a5b36600461c49a565b616148565b6104aa610a6e36600461c51c565b6161de565b610860610a8136600461b058565b6164c5565b610487610a9436600461c59a565b6164e6565b61059c610aa736600461b932565b616e60565b610487610aba36600461c5fb565b616ebc565b61059c610acd36600461c5fb565b616fef565b6104aa601b5481565b6104aa610ae936600461afe4565b617166565b6104aa601e5481565b610860610b0536600461b058565b61717f565b6021546106a0906001600160a01b031681565b6104aa601c5481565b610b39610b3436600461b058565b6171a0565b60405161044b919061c648565b6104aa610b5436600461afe4565b61785a565b610935617873565b61059c610b6f36600461c65a565b617fc8565b6104aa610b8236600461b058565b61814e565b610bc5610b9536600461b058565b600e6020525f9081526040902080546001820154600283015460039093015491926001600160a01b039091169184565b604080519485526001600160a01b03909316602085015291830152606082015260800161044b565b61055c610bfb36600461b525565b61815d565b610487610c0e36600461b525565b6181e2565b6104aa610c2136600461afe4565b618234565b61059c610c3436600461b058565b61824d565b610487610c4736600461afe4565b61851d565b610c5f610c5a36600461b058565b6186d1565b60405161044b98979695949392919061c747565b61059c610c8136600461b058565b61882c565b610935618a77565b610487610c9c36600461c7ae565b61927d565b61059c610caf36600461b4f4565b619433565b610487610cc236600461b058565b619468565b61059c610cd536600461c49a565b619579565b610487610ce836600461c7e7565b6196b9565b610d00610cfb36600461b058565b619791565b60405161044b919061c925565b610487610d1b36600461b35c565b601960209081525f928352604080842090915290825290205460ff1681565b610d4d610d4836600461c945565b6198e5565b60405161044b92919061ca31565b6104aa601a5481565b610624610d7236600461b058565b619f39565b610dcd610d8536600461b058565b6040805180820182525f808252602091820181905233815260108252828120938152928152918190208151808301909252805460ff1615158252600101549181019190915290565b60408051825115158152602092830151928101929092520161044b565b610487610df836600461b058565b619fdf565b610e0561ac6c565b505f8281526006602090815260408083208484528252918290208251808401845281548152835160a08101855260018301548152600283015481850152600383015494810194909452600482015460608501526005909101546080840152908101919091525b92915050565b5f8181526011602052604081208054606092906001600160401b03811115610e9b57610e9b61b1a6565b604051908082528060200260200182016040528015610ed457816020015b610ec161ac8a565b815260200190600190039081610eb95790505b5090505f5b82548110156110ad5760125f848381548110610ef757610ef761ca54565b5f918252602080832090910154835282810193909352604091820190208151610100810183528154815260018201546001600160a01b0316938101939093526002810180549192840191610f4a9061ca68565b80601f0160208091040260200160405190810160405280929190818152602001828054610f769061ca68565b8015610fc15780601f10610f9857610100808354040283529160200191610fc1565b820191905f5260205f20905b815481529060010190602001808311610fa457829003601f168201915b50505050508152602001600382018054610fda9061ca68565b80601f01602080910402602001604051908101604052809291908181526020018280546110069061ca68565b80156110515780601f1061102857610100808354040283529160200191611051565b820191905f5260205f20905b81548152906001019060200180831161103457829003601f168201915b5050509183525050600482015460ff1660208201526005820154604082015260068201546060820152600790910154608090910152825183908390811061109a5761109a61ca54565b6020908102919091010152600101610ed9565b509392505050565b5f80546001600160a01b03163381146110e95760405162461bcd60e51b81526004016110e09061ca9a565b60405180910390fd5b5f5b60165481101561118f5783601682815481106111095761110961ca54565b905f5260205f2001540361118757601680546111279060019061cb0a565b815481106111375761113761ca54565b905f5260205f200154601682815481106111535761115361ca54565b5f91825260209091200155601680548061116f5761116f61cb1d565b600190038181905f5260205f20015f9055905561118f565b6001016110eb565b505f838152601460205260408120818155906111ae600183018261acd5565b6111bb600283015f61acd5565b505060215f9054906101000a90046001600160a01b03166001600160a01b0316636f2069f06040518163ffffffff1660e01b81526004015f604051808303815f87803b158015611209575f80fd5b505af115801561121b573d5f803e3d5ffd5b50505050600191505b50919050565b6011602052815f5260405f208181548110611243575f80fd5b905f5260205f20015f91509150505481565b61125d61ac8a565b5f828152601260209081526040918290208251610100810184528154815260018201546001600160a01b03169281019290925260028101805492939192918401916112a79061ca68565b80601f01602080910402602001604051908101604052809291908181526020018280546112d39061ca68565b801561131e5780601f106112f55761010080835404028352916020019161131e565b820191905f5260205f20905b81548152906001019060200180831161130157829003601f168201915b505050505081526020016003820180546113379061ca68565b80601f01602080910402602001604051908101604052809291908181526020018280546113639061ca68565b80156113ae5780601f10611385576101008083540402835291602001916113ae565b820191905f5260205f20905b81548152906001019060200180831161139157829003601f168201915b5050509183525050600482015460ff166020820152600582015460408201526006820154606082015260079091015460809091015292915050565b335f908152601860209081526040808320805482518185028101850190935280835260609492939192909184015b8282101561145a578382905f5260205f2090600202016040518060400160405290815f820154815260200160018201548152505081526020019060010190611417565b50505050905090565b5f8181526015602052604081208054606092906001600160401b0381111561148d5761148d61b1a6565b6040519080825280602002602001820160405280156114c657816020015b6114b361ad0f565b8152602001906001900390816114ab5790505b5090505f5b82548110156110ad5760145f8483815481106114e9576114e961ca54565b905f5260205f20015481526020019081526020015f206040518060600160405290815f82015481526020016001820180546115239061ca68565b80601f016020809104026020016040519081016040528092919081815260200182805461154f9061ca68565b801561159a5780601f106115715761010080835404028352916020019161159a565b820191905f5260205f20905b81548152906001019060200180831161157d57829003601f168201915b505050505081526020016002820180546115b39061ca68565b80601f01602080910402602001604051908101604052809291908181526020018280546115df9061ca68565b801561162a5780601f106116015761010080835404028352916020019161162a565b820191905f5260205f20905b81548152906001019060200180831161160d57829003601f168201915b5050505050815250508282815181106116455761164561ca54565b60209081029190910101526001016114cb565b5f5b815181101561168d576116858282815181106116785761167861ca54565b602002602001015161882c565b60010161165a565b5050565b6001600160a01b0381165f908152600a6020526040902054606090806001600160401b038111156116c4576116c461b1a6565b6040519080825280602002602001820160405280156116fd57816020015b6116ea61ad2f565b8152602001906001900390816116e25790505b5091505f5b8181101561176b576001600160a01b0384165f908152600a6020526040902080546117469190839081106117385761173861ca54565b905f5260205f20015461504f565b8382815181106117585761175861ca54565b6020908102919091010152600101611702565b5050919050565b5f8481526006602090815260408083208684528252918290205482518084019093526011835270125b9d985b1a59081d985c9a585b9d1251607a1b918301919091521515906117c39060339061184a565b906117e15760405162461bcd60e51b81526004016110e0919061b975565b505f848152600260208181526040808420426019820155600683528185208886528352908420600501869055878452919052601701805483929061182690849061cb31565b909155505050505050565b6015602052815f5260405f208181548110611243575f80fd5b60605f6118568461a103565b9050808360405160200161186b92919061cb5b565b60405160208183030381529060405291505092915050565b60026020525f908152604090819020805482516103008101909352600182018054919391829082906118b49061ca68565b80601f01602080910402602001604051908101604052809291908181526020018280546118e09061ca68565b801561192b5780601f106119025761010080835404028352916020019161192b565b820191905f5260205f20905b81548152906001019060200180831161190e57829003601f168201915b505050505081526020016001820154815260200160028201805461194e9061ca68565b80601f016020809104026020016040519081016040528092919081815260200182805461197a9061ca68565b80156119c55780601f1061199c576101008083540402835291602001916119c5565b820191905f5260205f20905b8154815290600101906020018083116119a857829003601f168201915b505050505081526020016003820154815260200160048201548152602001600582015481526020016006820154815260200160078201805480602002602001604051908101604052809291908181526020018280548015611a4357602002820191905f5260205f20905b815481526020019060010190808311611a2f575b5050505050815260200160088201805480602002602001604051908101604052809291908181526020015f905b82821015611b18578382905f5260205f20018054611a8d9061ca68565b80601f0160208091040260200160405190810160405280929190818152602001828054611ab99061ca68565b8015611b045780601f10611adb57610100808354040283529160200191611b04565b820191905f5260205f20905b815481529060010190602001808311611ae757829003601f168201915b505050505081526020019060010190611a70565b50505050815260200160098201548152602001600a8201548152602001600b8201805480602002602001604051908101604052809291908181526020015f905b82821015611c00578382905f5260205f20018054611b759061ca68565b80601f0160208091040260200160405190810160405280929190818152602001828054611ba19061ca68565b8015611bec5780601f10611bc357610100808354040283529160200191611bec565b820191905f5260205f20905b815481529060010190602001808311611bcf57829003601f168201915b505050505081526020019060010190611b58565b50505090825250600c8201546001600160a01b03166020820152600d82018054604090920191611c2f9061ca68565b80601f0160208091040260200160405190810160405280929190818152602001828054611c5b9061ca68565b8015611ca65780601f10611c7d57610100808354040283529160200191611ca6565b820191905f5260205f20905b815481529060010190602001808311611c8957829003601f168201915b50505050508152602001600e82018054611cbf9061ca68565b80601f0160208091040260200160405190810160405280929190818152602001828054611ceb9061ca68565b8015611d365780601f10611d0d57610100808354040283529160200191611d36565b820191905f5260205f20905b815481529060010190602001808311611d1957829003601f168201915b5050509183525050600f82015460ff16151560208083019190915260108301805460408051828502810185018252828152940193925f9084015b82821015611e18578382905f5260205f20018054611d8d9061ca68565b80601f0160208091040260200160405190810160405280929190818152602001828054611db99061ca68565b8015611e045780601f10611ddb57610100808354040283529160200191611e04565b820191905f5260205f20905b815481529060010190602001808311611de757829003601f168201915b505050505081526020019060010190611d70565b505050508152602001601182018054611e309061ca68565b80601f0160208091040260200160405190810160405280929190818152602001828054611e5c9061ca68565b8015611ea75780601f10611e7e57610100808354040283529160200191611ea7565b820191905f5260205f20905b815481529060010190602001808311611e8a57829003601f168201915b5050509183525050601282015460208201526013820154604082015260148201546060820152601582015460ff8082161515608084015261010090910416151560a082015260169091015460c090910152601882015460199092015490919084565b600a602052815f5260405f208181548110611243575f80fd5b601f5460405163656952ad60e01b81525f916001600160a01b03169063656952ad90611f5290339060040161bf40565b602060405180830381865afa158015611f6d573d5f803e3d5ffd5b505050506040513d601f19601f82011682018060405250810190611f91919061cbd9565b806120065750601f546040516359d3202760e11b81526001600160a01b039091169063b3a6404e90611fc790339060040161bf40565b602060405180830381865afa158015611fe2573d5f803e3d5ffd5b505050506040513d601f19601f82011682018060405250810190612006919061cbd9565b61203360376040518060400160405280601b81526020015f8051602061d30a83398151915281525061184a565b906120515760405162461bcd60e51b81526004016110e0919061b975565b50601a8054905f6120618361cbf4565b91905055505f670de0b6b3a7640000846060015161207f919061cc0c565b1180156120a257505f670de0b6b3a764000084608001516120a0919061cc0c565b115b80156120c457505f670de0b6b3a76400008460a001516120c2919061cc0c565b115b6121075760405162461bcd60e51b81526020600482015260146024820152730e0e4d2c6ca40dcdee840c4d2ce40cadcdeeaced60631b60448201526064016110e0565b600b5f846020015181526020019081526020015f205f01545f141561215760026040518060400160405280601281526020017110d85d1959dbdc9e481b9bdd08199bdd5b9960721b81525061184a565b906121755760405162461bcd60e51b81526004016110e0919061b975565b50601f546101808401516040516359d3202760e11b81526001600160a01b039092169163b3a6404e916121aa9160040161bf40565b602060405180830381865afa1580156121c5573d5f803e3d5ffd5b505050506040513d601f19601f820116820180604052508101906121e9919061cbd9565b612221602c604051806040016040528060158152602001742ab9b2b91036bab9ba103132903932ba30b4b632b960591b81525061184a565b9061223f5760405162461bcd60e51b81526004016110e0919061b975565b505f82511161227e602c60405180604001604052806017815260200176092dcecc2d8d2c840ecc2e4d2c2dce8e640d8cadccee8d604b1b81525061184a565b9061229c5760405162461bcd60e51b81526004016110e0919061b975565b505f5b82518110156123f95761033960828483815181106122bf576122bf61ca54565b6020026020010151604001516040015161c3506122dc919061cc2b565b6122e6919061cc0c565b6122f0919061cc0c565b8382815181106123025761230261ca54565b602002602001015160400151606001511115612341602a6040518060400160405280601f81526020015f8051602061d36b83398151915281525061184a565b9061235f5760405162461bcd60e51b81526004016110e0919061b975565b508281815181106123725761237261ca54565b602002602001015160400151604001518382815181106123945761239461ca54565b60200260200101516040015160200151116123d260256040518060400160405280602081526020015f8051602061d29983398151915281525061184a565b906123f05760405162461bcd60e51b81526004016110e0919061b975565b5060010161229f565b505f5b825181101561281b5761240d61ac6c565b5f6124348584815181106124235761242361ca54565b60200260200101516020015161a192565b808352855190915085908490811061244e5761244e61ca54565b602090810291909101810151604090810151848301908152601a80545f908152600785528381208054600181810183559183528683200187905591548152600685528381208682528552838120875181559251805192840192909255938101516002830155918201516003820155606082015160048201556080909101516005909101555b8584815181106124e5576124e561ca54565b6020026020010151602001515181101561278b57601a545f908152600860209081526040808320858452909152812080546001018155815286518790869081106125315761253161ca54565b602002602001015160200151828151811061254e5761254e61ca54565b6020026020010151604051602001612566919061c925565b6040516020818303038152906040528051906020012090508685815181106125905761259061ca54565b60200260200101516020015182815181106125ad576125ad61ca54565b602002602001015160085f601a5481526020019081526020015f205f8581526020019081526020015f2083815481106125e8576125e861ca54565b905f5260205f2090600302015f820151815f01556020820151816001019081612611919061cc8d565b5060408201516002820190612626908261cc8d565b5050601a545f90815260086020908152604080832087845290915290208054839250849081106126585761265861ca54565b905f5260205f2090600302015f018190555086858151811061267c5761267c61ca54565b60200260200101516020015182815181106126995761269961ca54565b6020908102919091018101515f8381526009835260409020815181559181015190919060018201906126cb908261cc8d565b50604082015160028201906126e0908261cc8d565b5050505f818152600960205260408120829055805b6020808b01515f908152600d909152604090205481101561275657600d5f8b6020015181526020019081526020015f2081815481106127365761273661ca54565b905f5260205f200154830361274e5760019150612756565b6001016126f5565b5080612781576020808a01515f908152600d8252604081208054600181018255908252919020018290555b50506001016124d3565b505f5b83811015612810578160075f601a5481526020019081526020015f2082815481106127bb576127bb61ca54565b905f5260205f20015414156127e9603c60405180606001604052806025815260200161d2b96025913961184a565b906128075760405162461bcd60e51b81526004016110e0919061b975565b5060010161278e565b5050506001016123fc565b505f6040518060800160405280601a5481526020018581526020014281526020014281525090505f846101a00151604051602001612859919061b975565b604051602081830303815290604052905060058160405161287a919061cd47565b9081526040519081900360200190205460ff166129005760016005826040516128a3919061cd47565b908152604051908190036020019020805491151560ff19909216919091179055600480546001810182555f919091527f8a35acfbc15ff81a39ae7d344fd709f28e8600b4aa8c65c6b64bfe7fe36bd19b016128fe828261cc8d565b505b601a545f908152600260209081526040909120835181559083015180518492919060018301908190612932908261cc8d565b506020820151600182015560408201516002820190612951908261cc8d565b50606082015160038201556080820151600482015560a0820151600582015560c0820151600682015560e0820151805161299591600784019160209091019061ad56565b5061010082015180516129b291600884019160209091019061ad9b565b506101208201516009820155610140820151600a82015561016082015180516129e591600b84019160209091019061ad9b565b50610180820151600c820180546001600160a01b0319166001600160a01b039092169190911790556101a0820151600d820190612a22908261cc8d565b506101c0820151600e820190612a38908261cc8d565b506101e0820151600f8201805460ff19169115159190911790556102008201518051612a6e91601084019160209091019061ad9b565b506102208201516011820190612a84908261cc8d565b506102408201516012820155610260820151601382015561028082015160148201556102a08201516015820180546102c085015115156101000261ff00199315159390931661ffff19909116179190911790556102e0909101516016909101556040828101516018830155606090920151601990910155601a805460038054600181810183555f9283527fc2575a0e9e593c00f959f8c92f12db2869c3395a3b0502d05e2516446f71f85b9091018390556101808a0180516001600160a01b039081168452600a60209081528785208054808601825590865281862001959095558151811684528285528684208654855290945291859020805460ff19169091179055601f5492546101e08a01519151945163371c0fc760e01b8152600481019190915290151560248201529281166044840152169063371c0fc7906064015f604051808303815f87803b158015612bda575f80fd5b505af1158015612bec573d5f803e3d5ffd5b505050507fdf8d7db3e0a4789a1ef3a4c2a74f01201dd2560b156ca835ed9bc23cf9b70b2f601a5486604051612c2392919061cd52565b60405180910390a15050601a549392505050565b5f81815260126020526040902054612c615760405162461bcd60e51b81526004016110e09061cd6a565b5f828152601160205260408120905b8154811015612d115782828281548110612c8c57612c8c61ca54565b905f5260205f20015403612d095781548290612caa9060019061cb0a565b81548110612cba57612cba61ca54565b905f5260205f200154828281548110612cd557612cd561ca54565b905f5260205f20018190555081805480612cf157612cf161cb1d565b600190038181905f5260205f20015f90559055612d11565b600101612c70565b505f8281526012602052604081208181556001810180546001600160a01b031916905590612d42600283018261acd5565b612d4f600383015f61acd5565b506004818101805460ff191690555f60058301819055600683018190556007909201829055602154604080516306f2069f60e41b815290516001600160a01b0390921693636f2069f09382810193919282900301818387803b158015612db3575f80fd5b505af1158015612dc5573d5f803e3d5ffd5b50505050505050565b5f8160018110158015612de2575060058111155b612dfe5760405162461bcd60e51b81526004016110e09061cdc2565b5f848152600e6020526040902054612e6c5760405162461bcd60e51b815260206004820152604b60248201525f8051602061d34b83398151915260448201525f8051602061d27983398151915260648201526a6f7420657869737473227d60a81b608482015260a4016110e0565b335f90815260106020908152604080832088845290915290205460ff16612ea55760405162461bcd60e51b81526004016110e09061ce2d565b50505f918252600e602090815260408084206002018390553384526010825280842094845293905291902060019081019190915590565b5f818152600e6020526040812054612f495760405162461bcd60e51b815260206004820152604a60248201525f8051602061d34b83398151915260448201525f8051602061d2798339815191526064820152696f74206578697374227d60b01b608482015260a4016110e0565b5f828152600e60205260409020600101546001600160a01b03163314612fe45760405162461bcd60e51b815260206004820152605760248201525f8051602061d34b83398151915260448201527f223a2032392c20226d657373616765223a20224f6e6c792074686520757365726064820152762077686f2072617465642063616e2064656c657465227d60481b608482015260a4016110e0565b335f90815260106020908152604080832086845290915290205460ff1661301d5760405162461bcd60e51b81526004016110e09061ce2d565b5f828152600e60209081526040808320838155600180820180546001600160a01b0319169055600282018590556003909101849055338452601083528184208785528352818420805460ff1916815501839055600f9091528120905b815481101561311a57838282815481106130955761309561ca54565b905f5260205f2001540361311257815482906130b39060019061cb0a565b815481106130c3576130c361ca54565b905f5260205f2001548282815481106130de576130de61ca54565b905f5260205f200181905550818054806130fa576130fa61cb1d565b600190038181905f5260205f20015f9055905561311a565b600101613079565b506001949350505050565b5f818152600d6020526040902054606090806001600160401b0381111561314e5761314e61b1a6565b60405190808252806020026020018201604052801561318757816020015b61317461adeb565b81526020019060019003908161316c5790505b5091505f5b8181101561176b575f848152600d6020526040812080546009929190849081106131b8576131b861ca54565b905f5260205f20015481526020019081526020015f206040518060600160405290815f82015481526020016001820180546131f29061ca68565b80601f016020809104026020016040519081016040528092919081815260200182805461321e9061ca68565b80156132695780601f1061324057610100808354040283529160200191613269565b820191905f5260205f20905b81548152906001019060200180831161324c57829003601f168201915b505050505081526020016002820180546132829061ca68565b80601f01602080910402602001604051908101604052809291908181526020018280546132ae9061ca68565b80156132f95780601f106132d0576101008083540402835291602001916132f9565b820191905f5260205f20905b8154815290600101906020018083116132dc57829003601f168201915b5050505050815250508382815181106133145761331461ca54565b602090810291909101015260010161318c565b601f5460405163588f1e0d60e11b81525f916001600160a01b03169063b11e3c1a9061335790339060040161bf40565b602060405180830381865afa158015613372573d5f803e3d5ffd5b505050506040513d601f19601f82011682018060405250810190613396919061cbd9565b6133b25760405162461bcd60e51b81526004016110e09061ce77565b5f82815260026020526040902054158015906133e457505f82815260026020526040902060160154610100900460ff16155b613407601b6040518060600160405280602c815260200161d2de602c913961184a565b906134255760405162461bcd60e51b81526004016110e0919061b975565b5061342f8261a218565b5060015b919050565b5f80546001600160a01b03163381146134635760405162461bcd60e51b81526004016110e09061ca9a565b602080546001600160a01b0385166001600160a01b03199091161790556001915050919050565b601f5460405163656952ad60e01b81525f916001600160a01b03169063656952ad906134ba90339060040161bf40565b602060405180830381865afa1580156134d5573d5f803e3d5ffd5b505050506040513d601f19601f820116820180604052508101906134f9919061cbd9565b8061356e5750601f546040516359d3202760e11b81526001600160a01b039091169063b3a6404e9061352f90339060040161bf40565b602060405180830381865afa15801561354a573d5f803e3d5ffd5b505050506040513d601f19601f8201168201806040525081019061356e919061cbd9565b61359b60376040518060400160405280601b81526020015f8051602061d30a83398151915281525061184a565b906135b95760405162461bcd60e51b81526004016110e0919061b975565b505f5b825181101561361257613609848483815181106135db576135db61ca54565b60200260200101515f01518584815181106135f8576135f861ca54565b60200260200101516020015161a59b565b506001016135bc565b5060019392505050565b5f8181526014602052604081205461366b5760405162461bcd60e51b815260206004820152601260248201527111905448191bd95cc81b9bdd08195e1a5cdd60721b60448201526064016110e0565b5f838152601560205260408120905b815481101561371b57838282815481106136965761369661ca54565b905f5260205f2001540361371357815482906136b49060019061cb0a565b815481106136c4576136c461ca54565b905f5260205f2001548282815481106136df576136df61ca54565b905f5260205f200181905550818054806136fb576136fb61cb1d565b600190038181905f5260205f20015f9055905561371b565b60010161367a565b505f8381526014602052604081208181559061373a600183018261acd5565b613747600283015f61acd5565b505060215f9054906101000a90046001600160a01b03166001600160a01b0316636f2069f06040518163ffffffff1660e01b81526004015f604051808303815f87803b158015613795575f80fd5b505af11580156137a7573d5f803e3d5ffd5b506001979650505050505050565b604080516003808252608082019092525f91602082016060803683370190505090506001815f815181106137eb576137eb61ca54565b60200260200101818152505060028160018151811061380c5761380c61ca54565b60200260200101818152505060038160028151811061382d5761382d61ca54565b6020908102919091010152604080516003808252608082019092525f91816020015b606081526020019060019003908161384f579050509050604051806040016040528060018152602001601160f81b815250815f815181106138925761389261ca54565b6020026020010181905250604051806040016040528060028152602001608960f11b815250816001815181106138ca576138ca61ca54565b602002602001018190525060405180604001604052806002815260200161011360f01b815250816002815181106139035761390361ca54565b6020908102919091010152604080516003808252608082019092525f91816020015b6060815260200190600190039081613925579050509050604051806040016040528060018152602001601160f81b815250815f815181106139685761396861ca54565b6020026020010181905250604051806040016040528060028152602001608960f11b815250816001815181106139a0576139a061ca54565b602002602001018190525060405180604001604052806002815260200161011360f01b815250816002815181106139d9576139d961ca54565b6020908102919091010152604080516003808252608082019092525f91816020015b60608152602001906001900390816139fb579050509050604051806040016040528060018152602001601160f81b815250815f81518110613a3e57613a3e61ca54565b6020026020010181905250604051806040016040528060028152602001608960f11b81525081600181518110613a7657613a7661ca54565b602002602001018190525060405180604001604052806002815260200161011360f01b81525081600281518110613aaf57613aaf61ca54565b60200260200101819052505f6040518061030001604052806040518060400160405280600c81526020016b15195cdd08141c9bd91d58dd60a21b81525081526020018781526020016040518060400160405280601081526020016f10481cd85b5c1b19481c1c9bd91d58dd60821b8152508152602001683635c9adc5dea00000815260200168410d586a20a4c000008152602001683ba1910bf341b000008152602001600a81526020018681526020018581526020016064815260200160328152602001848152602001886001600160a01b03168152602001604051806040016040528060078152602001664272616e64204160c81b81525081526020016040518060400160405280600681526020016518903cb2b0b960d11b81525081526020015f1515815260200183815260200160405180602001604052805f81525081526020015f8152602001426301e13380613c09919061cb31565b81524260208201525f6040808301829052600160608401819052608090930182905280518381528082019091529293509190816020015b613c4861adeb565b815260200190600190039081613c405750506040805160608101909152601960f91b60808201529091508060818101604051602081830303815290604052805190602001208152602001604051806040016040528060038152602001626b657960e81b81525081526020016040518060400160405280600581526020016476616c756560d81b815250815250815f81518110613ce657613ce661ca54565b60200260200101819052505f613cfb8261a192565b6040805160018082528183019092529192505f9190816020015b613d1d61ae0e565b815260200190600190039081613d1557905050905060405180606001604052808381526020018481526020016040518060a00160405280683635c9adc5dea00000815260200168410d586a20a4c000008152602001683ba1910bf341b000008152602001600a81526020016064815250815250815f81518110613da257613da261ca54565b6020026020010181905250613db78482611f22565b5050505050505050505050565b600c8054606091905f906001600160401b03811115613de557613de561b1a6565b604051908082528060200260200182016040528015613e1e57816020015b613e0b61ad0f565b815260200190600190039081613e035790505b5090505f5b8254811015613fb057600b5f848381548110613e4157613e4161ca54565b905f5260205f20015481526020019081526020015f206040518060600160405290815f8201548152602001600182018054613e7b9061ca68565b80601f0160208091040260200160405190810160405280929190818152602001828054613ea79061ca68565b8015613ef25780601f10613ec957610100808354040283529160200191613ef2565b820191905f5260205f20905b815481529060010190602001808311613ed557829003601f168201915b50505050508152602001600282018054613f0b9061ca68565b80601f0160208091040260200160405190810160405280929190818152602001828054613f379061ca68565b8015613f825780601f10613f5957610100808354040283529160200191613f82565b820191905f5260205f20905b815481529060010190602001808311613f6557829003601f168201915b505050505081525050828281518110613f9d57613f9d61ca54565b6020908102919091010152600101613e23565b5092915050565b600354606090806001600160401b03811115613fd557613fd561b1a6565b60405190808252806020026020018201604052801561400e57816020015b613ffb61ad2f565b815260200190600190039081613ff35790505b5091505f5b8181101561405657614031600382815481106117385761173861ca54565b8382815181106140435761404361ca54565b6020908102919091010152600101614013565b505090565b6008602052825f5260405f20602052815f5260405f20818154811061407e575f80fd5b905f5260205f2090600302015f925092505050805f0154908060010180546140a59061ca68565b80601f01602080910402602001604051908101604052809291908181526020018280546140d19061ca68565b801561411c5780601f106140f35761010080835404028352916020019161411c565b820191905f5260205f20905b8154815290600101906020018083116140ff57829003601f168201915b5050505050908060020180546141319061ca68565b80601f016020809104026020016040519081016040528092919081815260200182805461415d9061ca68565b80156141a85780601f1061417f576101008083540402835291602001916141a8565b820191905f5260205f20905b81548152906001019060200180831161418b57829003601f168201915b5050505050905083565b5f80546001600160a01b03163381146141dd5760405162461bcd60e51b81526004016110e09061ca9a565b5f5b83518110156136125761422b8482815181106141fd576141fd61ca54565b60200260200101515f015185838151811061421a5761421a61ca54565b602002602001015160200151616ebc565b506001016141df565b60605f82516001600160401b038111156142505761425061b1a6565b604051908082528060200260200182016040528015614279578160200160208202803683370190505b5090505f5b8351811015613fb05760025f85838151811061429c5761429c61ca54565b602002602001015181526020019081526020015f20600101600c015f9054906101000a90046001600160a01b03168282815181106142dc576142dc61ca54565b6001600160a01b039092166020928302919091019091015260010161427e565b601f5460405163656952ad60e01b81526001600160a01b039091169063656952ad9061432c90339060040161bf40565b602060405180830381865afa158015614347573d5f803e3d5ffd5b505050506040513d601f19601f8201168201806040525081019061436b919061cbd9565b806143e05750601f546040516359d3202760e11b81526001600160a01b039091169063b3a6404e906143a190339060040161bf40565b602060405180830381865afa1580156143bc573d5f803e3d5ffd5b505050506040513d601f19601f820116820180604052508101906143e0919061cbd9565b61440d60376040518060400160405280601b81526020015f8051602061d30a83398151915281525061184a565b9061442b5760405162461bcd60e51b81526004016110e0919061b975565b505f5b815181101561168d5761449882828151811061444c5761444c61ca54565b60200260200101515f01518383815181106144695761446961ca54565b6020026020010151602001518484815181106144875761448761ca54565b60200260200101516040015161a699565b60010161442e565b606081516001600160401b038111156144bb576144bb61b1a6565b6040519080825280602002602001820160405280156144e4578160200160208202803683370190505b5090505f5b8251811015613fb05760135f8581526020019081526020015f205f8483815181106145165761451661ca54565b602002602001015181526020019081526020015f205482828151811061453e5761453e61ca54565b60209081029190910101526001016144e9565b6018602052815f5260405f20818154811061456a575f80fd5b5f91825260209091206002909102018054600190910154909250905082565b60608060608060608061459b87610e71565b5f8881526011602090815260409182902080548351818402810184019094528084529399506145fe938b93928301828280156145f457602002820191905f5260205f20905b8154815260200190600101908083116145e0575b50505050506144a0565b905061460987615aa5565b945061461487611463565b602154604051631c3a394f60e21b8152600481018a90529195506001600160a01b0316906370e8e53c906024015f60405180830381865afa15801561465b573d5f803e3d5ffd5b505050506040513d5f823e601f3d908101601f19168201604052614682919081019061ced1565b60215460405163032fd98560e41b8152600481018a90529194506001600160a01b0316906332fd9850906024015f60405180830381865afa1580156146c9573d5f803e3d5ffd5b505050506040513d5f823e601f3d908101601f191682016040526146f0919081019061ced1565b915091939550919395565b6001600160a01b0381165f908152600a602052604081208054606092906001600160401b0381111561472f5761472f61b1a6565b60405190808252806020026020018201604052801561476857816020015b61475561ae2c565b81526020019060019003908161474d5790505b5090505f5b82548110156110ad5760025f84838154811061478b5761478b61ca54565b905f5260205f20015481526020019081526020015f206040518060800160405290815f820154815260200160018201604051806103000160405290815f820180546147d59061ca68565b80601f01602080910402602001604051908101604052809291908181526020018280546148019061ca68565b801561484c5780601f106148235761010080835404028352916020019161484c565b820191905f5260205f20905b81548152906001019060200180831161482f57829003601f168201915b505050505081526020016001820154815260200160028201805461486f9061ca68565b80601f016020809104026020016040519081016040528092919081815260200182805461489b9061ca68565b80156148e65780601f106148bd576101008083540402835291602001916148e6565b820191905f5260205f20905b8154815290600101906020018083116148c957829003601f168201915b50505050508152602001600382015481526020016004820154815260200160058201548152602001600682015481526020016007820180548060200260200160405190810160405280929190818152602001828054801561496457602002820191905f5260205f20905b815481526020019060010190808311614950575b5050505050815260200160088201805480602002602001604051908101604052809291908181526020015f905b82821015614a39578382905f5260205f200180546149ae9061ca68565b80601f01602080910402602001604051908101604052809291908181526020018280546149da9061ca68565b8015614a255780601f106149fc57610100808354040283529160200191614a25565b820191905f5260205f20905b815481529060010190602001808311614a0857829003601f168201915b505050505081526020019060010190614991565b50505050815260200160098201548152602001600a8201548152602001600b8201805480602002602001604051908101604052809291908181526020015f905b82821015614b21578382905f5260205f20018054614a969061ca68565b80601f0160208091040260200160405190810160405280929190818152602001828054614ac29061ca68565b8015614b0d5780601f10614ae457610100808354040283529160200191614b0d565b820191905f5260205f20905b815481529060010190602001808311614af057829003601f168201915b505050505081526020019060010190614a79565b50505090825250600c8201546001600160a01b03166020820152600d82018054604090920191614b509061ca68565b80601f0160208091040260200160405190810160405280929190818152602001828054614b7c9061ca68565b8015614bc75780601f10614b9e57610100808354040283529160200191614bc7565b820191905f5260205f20905b815481529060010190602001808311614baa57829003601f168201915b50505050508152602001600e82018054614be09061ca68565b80601f0160208091040260200160405190810160405280929190818152602001828054614c0c9061ca68565b8015614c575780601f10614c2e57610100808354040283529160200191614c57565b820191905f5260205f20905b815481529060010190602001808311614c3a57829003601f168201915b5050509183525050600f82015460ff16151560208083019190915260108301805460408051828502810185018252828152940193925f9084015b82821015614d39578382905f5260205f20018054614cae9061ca68565b80601f0160208091040260200160405190810160405280929190818152602001828054614cda9061ca68565b8015614d255780601f10614cfc57610100808354040283529160200191614d25565b820191905f5260205f20905b815481529060010190602001808311614d0857829003601f168201915b505050505081526020019060010190614c91565b505050508152602001601182018054614d519061ca68565b80601f0160208091040260200160405190810160405280929190818152602001828054614d7d9061ca68565b8015614dc85780601f10614d9f57610100808354040283529160200191614dc8565b820191905f5260205f20905b815481529060010190602001808311614dab57829003601f168201915b50505091835250506012820154602080830191909152601383015460408084019190915260148401546060840152601584015460ff8082161515608086015261010090910416151560a084015260169093015460c0909201919091529183526018840154918301919091526019909201549101528251839083908110614e5057614e5061ca54565b602090810291909101015260010161476d565b6016546060905f906001600160401b03811115614e8257614e8261b1a6565b604051908082528060200260200182016040528015614ebb57816020015b614ea861ad0f565b815260200190600190039081614ea05790505b5090505f5b6016548110156112245760145f60168381548110614ee057614ee061ca54565b905f5260205f20015481526020019081526020015f206040518060600160405290815f8201548152602001600182018054614f1a9061ca68565b80601f0160208091040260200160405190810160405280929190818152602001828054614f469061ca68565b8015614f915780601f10614f6857610100808354040283529160200191614f91565b820191905f5260205f20905b815481529060010190602001808311614f7457829003601f168201915b50505050508152602001600282018054614faa9061ca68565b80601f0160208091040260200160405190810160405280929190818152602001828054614fd69061ca68565b80156150215780601f10614ff857610100808354040283529160200191615021565b820191905f5260205f20905b81548152906001019060200180831161500457829003601f168201915b50505050508152505082828151811061503c5761503c61ca54565b6020908102919091010152600101614ec0565b61505761ad2f565b5f60025f8481526020019081526020015f206040518060800160405290815f820154815260200160018201604051806103000160405290815f8201805461509d9061ca68565b80601f01602080910402602001604051908101604052809291908181526020018280546150c99061ca68565b80156151145780601f106150eb57610100808354040283529160200191615114565b820191905f5260205f20905b8154815290600101906020018083116150f757829003601f168201915b50505050508152602001600182015481526020016002820180546151379061ca68565b80601f01602080910402602001604051908101604052809291908181526020018280546151639061ca68565b80156151ae5780601f10615185576101008083540402835291602001916151ae565b820191905f5260205f20905b81548152906001019060200180831161519157829003601f168201915b50505050508152602001600382015481526020016004820154815260200160058201548152602001600682015481526020016007820180548060200260200160405190810160405280929190818152602001828054801561522c57602002820191905f5260205f20905b815481526020019060010190808311615218575b5050505050815260200160088201805480602002602001604051908101604052809291908181526020015f905b82821015615301578382905f5260205f200180546152769061ca68565b80601f01602080910402602001604051908101604052809291908181526020018280546152a29061ca68565b80156152ed5780601f106152c4576101008083540402835291602001916152ed565b820191905f5260205f20905b8154815290600101906020018083116152d057829003601f168201915b505050505081526020019060010190615259565b50505050815260200160098201548152602001600a8201548152602001600b8201805480602002602001604051908101604052809291908181526020015f905b828210156153e9578382905f5260205f2001805461535e9061ca68565b80601f016020809104026020016040519081016040528092919081815260200182805461538a9061ca68565b80156153d55780601f106153ac576101008083540402835291602001916153d5565b820191905f5260205f20905b8154815290600101906020018083116153b857829003601f168201915b505050505081526020019060010190615341565b50505090825250600c8201546001600160a01b03166020820152600d820180546040909201916154189061ca68565b80601f01602080910402602001604051908101604052809291908181526020018280546154449061ca68565b801561548f5780601f106154665761010080835404028352916020019161548f565b820191905f5260205f20905b81548152906001019060200180831161547257829003601f168201915b50505050508152602001600e820180546154a89061ca68565b80601f01602080910402602001604051908101604052809291908181526020018280546154d49061ca68565b801561551f5780601f106154f65761010080835404028352916020019161551f565b820191905f5260205f20905b81548152906001019060200180831161550257829003601f168201915b5050509183525050600f82015460ff16151560208083019190915260108301805460408051828502810185018252828152940193925f9084015b82821015615601578382905f5260205f200180546155769061ca68565b80601f01602080910402602001604051908101604052809291908181526020018280546155a29061ca68565b80156155ed5780601f106155c4576101008083540402835291602001916155ed565b820191905f5260205f20905b8154815290600101906020018083116155d057829003601f168201915b505050505081526020019060010190615559565b5050505081526020016011820180546156199061ca68565b80601f01602080910402602001604051908101604052809291908181526020018280546156459061ca68565b80156156905780601f1061566757610100808354040283529160200191615690565b820191905f5260205f20905b81548152906001019060200180831161567357829003601f168201915b50505091835250506012820154602080830191909152601383015460408084019190915260148401546060840152601584015460ff8082161515608086015261010090910416151560a084015260169093015460c090920191909152918352601884015483830152601990930154918301919091525f8681526007825282812080548451818502810185019095528085529495509093909183018282801561575557602002820191905f5260205f20905b815481526020019060010190808311615741575b505050505090505f815190505f816001600160401b0381111561577a5761577a61b1a6565b6040519080825280602002602001820160405280156157b357816020015b6157a061ac6c565b8152602001906001900390816157985790505b5090505f826001600160401b038111156157cf576157cf61b1a6565b60405190808252806020026020018201604052801561580257816020015b60608152602001906001900390816157ed5790505b5090505f5b83811015615a63575f8582815181106158225761582261ca54565b6020908102919091018101515f8b81526006835260408082208383528452908190208151808301835281548152825160a081018452600183015481526002830154818701526003830154938101939093526004820154606084015260059091015460808301529283015285519092508590849081106158a3576158a361ca54565b6020908102919091018101919091525f8a815260088252604080822084835283528082208054825181860281018601909352808352919390929084015b82821015615a39578382905f5260205f2090600302016040518060600160405290815f820154815260200160018201805461591a9061ca68565b80601f01602080910402602001604051908101604052809291908181526020018280546159469061ca68565b80156159915780601f1061596857610100808354040283529160200191615991565b820191905f5260205f20905b81548152906001019060200180831161597457829003601f168201915b505050505081526020016002820180546159aa9061ca68565b80601f01602080910402602001604051908101604052809291908181526020018280546159d69061ca68565b8015615a215780601f106159f857610100808354040283529160200191615a21565b820191905f5260205f20905b815481529060010190602001808311615a0457829003601f168201915b505050505081525050815260200190600101906158e0565b50505050838381518110615a4f57615a4f61ca54565b602090810291909101015250600101615807565b506040805160608101825295865260208601929092529084015250909392505050565b60038181548110615a95575f80fd5b5f91825260209091200154905081565b5f818152600f602052604081208054606092906001600160401b03811115615acf57615acf61b1a6565b604051908082528060200260200182016040528015615b3057816020015b615b1d60405180608001604052805f81526020015f6001600160a01b031681526020015f81526020015f81525090565b815260200190600190039081615aed5790505b5090505f5b82548110156110ad57600e5f848381548110615b5357615b5361ca54565b5f9182526020808320909101548352828101939093526040918201902081516080810183528154815260018201546001600160a01b0316938101939093526002810154918301919091526003015460608201528251839083908110615bba57615bba61ca54565b6020908102919091010152600101615b35565b60606004805480602002602001604051908101604052809291908181526020015f905b8282101561145a578382905f5260205f20018054615c0d9061ca68565b80601f0160208091040260200160405190810160405280929190818152602001828054615c399061ca68565b8015615c845780601f10615c5b57610100808354040283529160200191615c84565b820191905f5260205f20905b815481529060010190602001808311615c6757829003601f168201915b505050505081526020019060010190615bf0565b60168181548110615a95575f80fd5b5f615cb1826171a0565b335f90815260176020908152604080832086845290915290205490915060ff16615d4c5760405162461bcd60e51b815260206004820152605360248201525f8051602061d34b83398151915260448201527f223a2032312c20226d657373616765223a202275736572206e6f74206661766f6064820152727269746520746869732070726f64756374227d60681b608482015260a4016110e0565b335f9081526017602090815260408083208584529091528120805460ff19169055805b335f9081526018602052604090205460ff82161015615ea857335f908152601860205260409020805485919060ff8416908110615dae57615dae61ca54565b905f5260205f2090600202015f015403615e9657335f9081526018602052604090208054615dde9060019061cb0a565b81548110615dee57615dee61ca54565b905f5260205f20906002020160185f336001600160a01b03166001600160a01b031681526020019081526020015f208260ff1681548110615e3157615e3161ca54565b5f918252602080832084546002909302019182556001938401549390910192909255338152601890915260409020805480615e6e57615e6e61cb1d565b5f8281526020812060025f199093019283020181815560019081019190915591559150615ea8565b80615ea08161cf57565b915050615d6f565b5060215460405163d24043cb60e01b81526001600160a01b039091169063d24043cb90615ee090339087905f9060019060040161cf75565b5f604051808303815f87803b158015615ef7575f80fd5b505af1158015615f09573d5f803e3d5ffd5b50506021546001600160a01b0316915063d24043cb90503385615f2b816171a0565b6020015161018001515f6040518563ffffffff1660e01b8152600401615f54949392919061cf75565b5f604051808303815f87803b158015615f6b575f80fd5b505af1158015615f7d573d5f803e3d5ffd5b50506021546020850151610180015160405163c0a2277160e01b81526001600160a01b03909216935063c0a227719250615fb99160040161bf40565b5f604051808303815f87803b158015615fd0575f80fd5b505af1158015615fe2573d5f803e3d5ffd5b50505050806160565760405162461bcd60e51b815260206004820152604760248201525f8051602061d34b83398151915260448201527f223a2032342c20226d657373616765223a20226661766f72697465206e6f7420606482015266666f756e64227d60c81b608482015260a4016110e0565b505050565b5f80546001600160a01b03163381146160865760405162461bcd60e51b81526004016110e09061ca9a565b602180546001600160a01b0385166001600160a01b03199091161790556001915050919050565b60146020525f9081526040902080546001820180549192916140a59061ca68565b5f81600181101580156160e2575060058111155b6160fe5760405162461bcd60e51b81526004016110e09061cdc2565b5f858152600260205260409020546161285760405162461bcd60e51b81526004016110e09061cf9f565b50505f928352601360209081526040808520938552929052912055600190565b5f80546001600160a01b03163381146161735760405162461bcd60e51b81526004016110e09061ca9a565b5f8581526014602052604090205461619d5760405162461bcd60e51b81526004016110e09061cff7565b5f8581526014602052604090206002016161b7848261cc8d565b505f8581526014602052604090206001016161d2858261cc8d565b50600195945050505050565b5f848152600260205260408120546162085760405162461bcd60e51b81526004016110e09061cf9f565b601d8054905f6162178361cbf4565b91905055505f604051806101000160405280601d548152602001336001600160a01b0316815260200184815260200185815260200186600181111561625e5761625e61d04b565b60ff16815242602080830182905260408084019290925260609092018990525f89815260118352818120601d805482546001808201855593855286852001555482526012845290829020845181559284015190830180546001600160a01b0319166001600160a01b03909216919091179055820151919250829160028201906162e7908261cc8d565b50606082015160038201906162fc908261cc8d565b50608082015160048201805460ff191660ff90921691909117905560a0820151600582015560c0820151600682015560e0909101516007909101556040805160028082526060820183525f926020830190803683375050505f888152600260205260408120600d015482519293506001600160a01b0316918391906163835761638361ca54565b6001600160a01b0392831660209182029290920101525f548251911690829060019081106163b3576163b361ca54565b60200260200101906001600160a01b031690816001600160a01b0316815250505f6163dd8861a103565b601f546040519192506001600160a01b03169063a702a64c9061640490849060200161d05f565b604051602081830303815290604052846040518363ffffffff1660e01b815260040161643192919061d08e565b5f604051808303815f87803b158015616448575f80fd5b505af115801561645a573d5f803e3d5ffd5b50506021546040805163f857d61760e01b815290516001600160a01b03909216955063f857d6179450600480820194505f93509082900301818387803b1580156164a2575f80fd5b505af11580156164b4573d5f803e3d5ffd5b5050601d5498975050505050505050565b600b6020525f9081526040902080546001820180549192916140a59061ca68565b601f5460405163656952ad60e01b81525f916001600160a01b03169063656952ad9061651690339060040161bf40565b602060405180830381865afa158015616531573d5f803e3d5ffd5b505050506040513d601f19601f82011682018060405250810190616555919061cbd9565b806165ca5750601f546040516359d3202760e11b81526001600160a01b039091169063b3a6404e9061658b90339060040161bf40565b602060405180830381865afa1580156165a6573d5f803e3d5ffd5b505050506040513d601f19601f820116820180604052508101906165ca919061cbd9565b6165f760376040518060400160405280601b81526020015f8051602061d30a83398151915281525061184a565b906166155760405162461bcd60e51b81526004016110e0919061b975565b5060025f8581526020019081526020015f205f01545f1415616661600260405180604001604052806011815260200170141c9bd91d58dd081b9bdd08199bdd5b99607a1b81525061184a565b9061667f5760405162461bcd60e51b81526004016110e0919061b975565b506101808301516001600160a01b03165f90815260016020908152604080832087845282529182902054825160608101909352603180845260ff909116926166d192602c929061d2489083013961184a565b906166ef5760405162461bcd60e51b81526004016110e0919061b975565b50600b5f846020015181526020019081526020015f205f01545f141561674060026040518060400160405280601281526020017110d85d1959dbdc9e481b9bdd08199bdd5b9960721b81525061184a565b9061675e5760405162461bcd60e51b81526004016110e0919061b975565b505f82511161679d602c60405180604001604052806017815260200176092dcecc2d8d2c840ecc2e4d2c2dce8e640d8cadccee8d604b1b81525061184a565b906167bb5760405162461bcd60e51b81526004016110e0919061b975565b505f848152600760205260408120905b81548110156168845760065f8781526020019081526020015f205f8383815481106167f8576167f861ca54565b5f918252602080832090910154835282810193909352604091820181208181556001810182905560028101829055600381018290556004810182905560050181905588815260089092528120835490919084908490811061685b5761685b61ca54565b905f5260205f20015481526020019081526020015f205f61687c919061af07565b6001016167cb565b505f85815260076020526040812061689b9161af25565b5f5b8351811015616c315761033960828583815181106168bd576168bd61ca54565b6020026020010151604001516040015161c3506168da919061cc2b565b6168e4919061cc0c565b6168ee919061cc0c565b8482815181106169005761690061ca54565b60200260200101516040015160600151111561693f602a6040518060400160405280601f81526020015f8051602061d36b83398151915281525061184a565b9061695d5760405162461bcd60e51b81526004016110e0919061b975565b508381815181106169705761697061ca54565b602002602001015160400151604001518482815181106169925761699261ca54565b60200260200101516040015160200151116169d060256040518060400160405280602081526020015f8051602061d29983398151915281525061184a565b906169ee5760405162461bcd60e51b81526004016110e0919061b975565b506169f761ac6c565b5f616a0d8684815181106124235761242361ca54565b8083528651909150869084908110616a2757616a2761ca54565b6020908102919091018101516040908101518483019081525f8b815260078452828120805460018181018355918352858320018690558c8252600685528382208683528552838220875181559251805191840191909155938401516002830155918301516003820155606083015160048201556080909201516005909201919091555b868481518110616abc57616abc61ca54565b60200260200101516020015151811015616ba4575f89815260086020908152604080832085845290915281208054600101815590528651879085908110616b0557616b0561ca54565b6020026020010151602001518181518110616b2257616b2261ca54565b602002602001015160085f8b81526020019081526020015f205f8481526020019081526020015f208281548110616b5b57616b5b61ca54565b905f5260205f2090600302015f820151815f01556020820151816001019081616b84919061cc8d565b5060408201516002820190616b99908261cc8d565b505050600101616aaa565b505f5b83811015616c26575f898152600760205260409020805483919083908110616bd157616bd161ca54565b905f5260205f2001541415616bff603c60405180606001604052806025815260200161d2b96025913961184a565b90616c1d5760405162461bcd60e51b81526004016110e0919061b975565b50600101616ba7565b50505060010161689d565b505f85815260026020526040902084518591600101908190616c53908261cc8d565b506020820151600182015560408201516002820190616c72908261cc8d565b50606082015160038201556080820151600482015560a0820151600582015560c0820151600682015560e08201518051616cb691600784019160209091019061ad56565b506101008201518051616cd391600884019160209091019061ad9b565b506101208201516009820155610140820151600a8201556101608201518051616d0691600b84019160209091019061ad9b565b50610180820151600c820180546001600160a01b0319166001600160a01b039092169190911790556101a0820151600d820190616d43908261cc8d565b506101c0820151600e820190616d59908261cc8d565b506101e0820151600f8201805460ff19169115159190911790556102008201518051616d8f91601084019160209091019061ad9b565b506102208201516011820190616da5908261cc8d565b506102408201516012820155610260820151601382015561028082015160148201556102a08201516015820180546102c085015115156101000261ff00199315159390931661ffff19909116179190911790556102e0909101516016909101555f858152600260205260409081902042601990910155517f759e0111d0d20a9c64ad00266049785b63bdcee61d9b7a91a41a44c05584b06290616e4b908790879061cd52565b60405180910390a160019150505b9392505050565b5f82815260126020526040902054616e8a5760405162461bcd60e51b81526004016110e09061cd6a565b5f828152601260205260409020600301616ea4828261cc8d565b50505f90815260126020526040902042600690910155565b5f80546001600160a01b0316338114616ee75760405162461bcd60e51b81526004016110e09061ca9a565b601e8054905f616ef68361cbf4565b909155505060408051606081018252601e5480825260208083018881528385018890525f9283526014909152929020815181559151909182916001820190616f3e908261cc8d565b5060408201516002820190616f53908261cc8d565b5050601e54601680546001810182555f9182527fd833147d7dc355ba459fc788f669e58cfaf9dc25ddcd0702e87d69c7b512428901919091556021546040805163f857d61760e01b815290516001600160a01b03909216935063f857d61792600480830193919282900301818387803b158015616fce575f80fd5b505af1158015616fe0573d5f803e3d5ffd5b50600198975050505050505050565b601f5460405163588f1e0d60e11b81526001600160a01b039091169063b11e3c1a9061701f90339060040161bf40565b602060405180830381865afa15801561703a573d5f803e3d5ffd5b505050506040513d601f19601f8201168201806040525081019061705e919061cbd9565b61707a5760405162461bcd60e51b81526004016110e09061ce77565b601b8054905f6170898361cbf4565b909155505060408051606081018252601b548082526020808301868152838501869052600c805460018181019092557fdf6966c971051c3d54ec59162606531493a51404a002842f56009d7e5cf4a8c7018490555f938452600b90925293909120825181559251919283929091820190617103908261cc8d565b5060408201516002820190617118908261cc8d565b509050507f2e32d71b46d3c2122bc71deb4b78790fc542d8baaf5b0c79d4506640a0e4fa7f601b54826020015183604001516040516171599392919061c117565b60405180910390a1505050565b6007602052815f5260405f208181548110611243575f80fd5b60096020525f9081526040902080546001820180549192916140a59061ca68565b6171a861ae2c565b60025f8381526020019081526020015f206040518060800160405290815f820154815260200160018201604051806103000160405290815f820180546171ed9061ca68565b80601f01602080910402602001604051908101604052809291908181526020018280546172199061ca68565b80156172645780601f1061723b57610100808354040283529160200191617264565b820191905f5260205f20905b81548152906001019060200180831161724757829003601f168201915b50505050508152602001600182015481526020016002820180546172879061ca68565b80601f01602080910402602001604051908101604052809291908181526020018280546172b39061ca68565b80156172fe5780601f106172d5576101008083540402835291602001916172fe565b820191905f5260205f20905b8154815290600101906020018083116172e157829003601f168201915b50505050508152602001600382015481526020016004820154815260200160058201548152602001600682015481526020016007820180548060200260200160405190810160405280929190818152602001828054801561737c57602002820191905f5260205f20905b815481526020019060010190808311617368575b5050505050815260200160088201805480602002602001604051908101604052809291908181526020015f905b82821015617451578382905f5260205f200180546173c69061ca68565b80601f01602080910402602001604051908101604052809291908181526020018280546173f29061ca68565b801561743d5780601f106174145761010080835404028352916020019161743d565b820191905f5260205f20905b81548152906001019060200180831161742057829003601f168201915b5050505050815260200190600101906173a9565b50505050815260200160098201548152602001600a8201548152602001600b8201805480602002602001604051908101604052809291908181526020015f905b82821015617539578382905f5260205f200180546174ae9061ca68565b80601f01602080910402602001604051908101604052809291908181526020018280546174da9061ca68565b80156175255780601f106174fc57610100808354040283529160200191617525565b820191905f5260205f20905b81548152906001019060200180831161750857829003601f168201915b505050505081526020019060010190617491565b50505090825250600c8201546001600160a01b03166020820152600d820180546040909201916175689061ca68565b80601f01602080910402602001604051908101604052809291908181526020018280546175949061ca68565b80156175df5780601f106175b6576101008083540402835291602001916175df565b820191905f5260205f20905b8154815290600101906020018083116175c257829003601f168201915b50505050508152602001600e820180546175f89061ca68565b80601f01602080910402602001604051908101604052809291908181526020018280546176249061ca68565b801561766f5780601f106176465761010080835404028352916020019161766f565b820191905f5260205f20905b81548152906001019060200180831161765257829003601f168201915b5050509183525050600f82015460ff16151560208083019190915260108301805460408051828502810185018252828152940193925f9084015b82821015617751578382905f5260205f200180546176c69061ca68565b80601f01602080910402602001604051908101604052809291908181526020018280546176f29061ca68565b801561773d5780601f106177145761010080835404028352916020019161773d565b820191905f5260205f20905b81548152906001019060200180831161772057829003601f168201915b5050505050815260200190600101906176a9565b5050505081526020016011820180546177699061ca68565b80601f01602080910402602001604051908101604052809291908181526020018280546177959061ca68565b80156177e05780601f106177b7576101008083540402835291602001916177e0565b820191905f5260205f20905b8154815290600101906020018083116177c357829003601f168201915b50505091835250506012820154602080830191909152601383015460408084019190915260148401546060840152601584015460ff8082161515608086015261010090910416151560a084015260169093015460c09092019190915291835260188401549183019190915260199092015491015292915050565b600f602052815f5260405f208181548110611243575f80fd5b60038054606091905f906001600160401b038111156178945761789461b1a6565b6040519080825280602002602001820160405280156178cd57816020015b6178ba61ae2c565b8152602001906001900390816178b25790505b5090505f5b8254811015613fb05760025f8483815481106178f0576178f061ca54565b905f5260205f20015481526020019081526020015f206040518060800160405290815f820154815260200160018201604051806103000160405290815f8201805461793a9061ca68565b80601f01602080910402602001604051908101604052809291908181526020018280546179669061ca68565b80156179b15780601f10617988576101008083540402835291602001916179b1565b820191905f5260205f20905b81548152906001019060200180831161799457829003601f168201915b50505050508152602001600182015481526020016002820180546179d49061ca68565b80601f0160208091040260200160405190810160405280929190818152602001828054617a009061ca68565b8015617a4b5780601f10617a2257610100808354040283529160200191617a4b565b820191905f5260205f20905b815481529060010190602001808311617a2e57829003601f168201915b505050505081526020016003820154815260200160048201548152602001600582015481526020016006820154815260200160078201805480602002602001604051908101604052809291908181526020018280548015617ac957602002820191905f5260205f20905b815481526020019060010190808311617ab5575b5050505050815260200160088201805480602002602001604051908101604052809291908181526020015f905b82821015617b9e578382905f5260205f20018054617b139061ca68565b80601f0160208091040260200160405190810160405280929190818152602001828054617b3f9061ca68565b8015617b8a5780601f10617b6157610100808354040283529160200191617b8a565b820191905f5260205f20905b815481529060010190602001808311617b6d57829003601f168201915b505050505081526020019060010190617af6565b50505050815260200160098201548152602001600a8201548152602001600b8201805480602002602001604051908101604052809291908181526020015f905b82821015617c86578382905f5260205f20018054617bfb9061ca68565b80601f0160208091040260200160405190810160405280929190818152602001828054617c279061ca68565b8015617c725780601f10617c4957610100808354040283529160200191617c72565b820191905f5260205f20905b815481529060010190602001808311617c5557829003601f168201915b505050505081526020019060010190617bde565b50505090825250600c8201546001600160a01b03166020820152600d82018054604090920191617cb59061ca68565b80601f0160208091040260200160405190810160405280929190818152602001828054617ce19061ca68565b8015617d2c5780601f10617d0357610100808354040283529160200191617d2c565b820191905f5260205f20905b815481529060010190602001808311617d0f57829003601f168201915b50505050508152602001600e82018054617d459061ca68565b80601f0160208091040260200160405190810160405280929190818152602001828054617d719061ca68565b8015617dbc5780601f10617d9357610100808354040283529160200191617dbc565b820191905f5260205f20905b815481529060010190602001808311617d9f57829003601f168201915b5050509183525050600f82015460ff16151560208083019190915260108301805460408051828502810185018252828152940193925f9084015b82821015617e9e578382905f5260205f20018054617e139061ca68565b80601f0160208091040260200160405190810160405280929190818152602001828054617e3f9061ca68565b8015617e8a5780601f10617e6157610100808354040283529160200191617e8a565b820191905f5260205f20905b815481529060010190602001808311617e6d57829003601f168201915b505050505081526020019060010190617df6565b505050508152602001601182018054617eb69061ca68565b80601f0160208091040260200160405190810160405280929190818152602001828054617ee29061ca68565b8015617f2d5780601f10617f0457610100808354040283529160200191617f2d565b820191905f5260205f20905b815481529060010190602001808311617f1057829003601f168201915b50505091835250506012820154602080830191909152601383015460408084019190915260148401546060840152601584015460ff8082161515608086015261010090910416151560a084015260169093015460c0909201919091529183526018840154918301919091526019909201549101528251839083908110617fb557617fb561ca54565b60209081029190910101526001016178d2565b601f5460405163656952ad60e01b81526001600160a01b039091169063656952ad90617ff890339060040161bf40565b602060405180830381865afa158015618013573d5f803e3d5ffd5b505050506040513d601f19601f82011682018060405250810190618037919061cbd9565b806180ac5750601f546040516359d3202760e11b81526001600160a01b039091169063b3a6404e9061806d90339060040161bf40565b602060405180830381865afa158015618088573d5f803e3d5ffd5b505050506040513d601f19601f820116820180604052508101906180ac919061cbd9565b6180d960376040518060400160405280601b81526020015f8051602061d30a83398151915281525061184a565b906180f75760405162461bcd60e51b81526004016110e0919061b975565b505f5b815181101561168d576181468282815181106181185761811861ca54565b60200260200101515f01518383815181106181355761813561ca54565b602002602001015160200151616e60565b6001016180fa565b600c8181548110615a95575f80fd5b6001600160a01b0381165f908152601860209081526040808320805482518185028101850190935280835260609492939192909184015b828210156181d7578382905f5260205f2090600202016040518060400160405290815f820154815260200160018201548152505081526020019060010190618194565b505050509050919050565b5f80546001600160a01b031633811461820d5760405162461bcd60e51b81526004016110e09061ca9a565b601f80546001600160a01b0385166001600160a01b03199091161790556001915050919050565b600d602052815f5260405f208181548110611243575f80fd5b601f5460405163588f1e0d60e11b81526001600160a01b039091169063b11e3c1a9061827d90339060040161bf40565b602060405180830381865afa158015618298573d5f803e3d5ffd5b505050506040513d601f19601f820116820180604052508101906182bc919061cbd9565b6182d85760405162461bcd60e51b81526004016110e09061ce77565b5f5b6003548110156183bf578160025f600384815481106182fb576182fb61ca54565b905f5260205f20015481526020019081526020015f2060010160010154036183b75760405162461bcd60e51b815260206004820152607060248201525f8051602061d34b83398151915260448201527f223a20342c20226d657373616765223a2243616e6e6f742064656c657465206360648201527f617465676f72793a2050726f6475637473207374696c6c20657869737420696e60848201526f20746869732063617465676f7279227d60801b60a482015260c4016110e0565b6001016182da565b505f818152600b602052604081205490036183ec5760405162461bcd60e51b81526004016110e09061d15e565b5f805b600c5481101561842b57600c818154811061840c5761840c61ca54565b905f5260205f20015483036184235780915061842b565b6001016183ef565b50805b600c5461843d9060019061cb0a565b81101561849057600c61845182600161cb31565b815481106184615761846161ca54565b905f5260205f200154600c828154811061847d5761847d61ca54565b5f9182526020909120015560010161842e565b50600c8054806184a2576184a261cb1d565b5f828152602080822083015f19908101839055909201909255838252600b905260408120818155906184d7600183018261acd5565b6184e4600283015f61acd5565b50506040518281527f2949e8b00c2a3a7093872078d10195c02c60d9c2aaf8decc819315e8a48de2069060200160405180910390a15050565b5f8160018110158015618531575060058111155b61854d5760405162461bcd60e51b81526004016110e09061cdc2565b5f848152600260205260409020546185775760405162461bcd60e51b81526004016110e09061cf9f565b335f90815260106020908152604080832087845290915290205460ff16156186075760405162461bcd60e51b815260206004820152604a60248201525f8051602061d34b83398151915260448201527f223a2032372c20226d657373616765223a202250726f6475637420616c7265616064820152696479207261746564227d60b01b608482015260a4016110e0565b601c8054905f6186168361cbf4565b909155505060408051608081018252601c80548083523360208085018281528587018a815242606088019081525f958652600e8452888620975188559151600180890180546001600160a01b0319166001600160a01b0390931692909217909155905160028801559051600390960195909555898352600f8152858320935484548087018655948452818420909401939093558152601082528381209781529690529420805460ff1916851781558401929092555090919050565b60126020525f908152604090208054600182015460028301805492936001600160a01b03909216926187029061ca68565b80601f016020809104026020016040519081016040528092919081815260200182805461872e9061ca68565b80156187795780601f1061875057610100808354040283529160200191618779565b820191905f5260205f20905b81548152906001019060200180831161875c57829003601f168201915b50505050509080600301805461878e9061ca68565b80601f01602080910402602001604051908101604052809291908181526020018280546187ba9061ca68565b80156188055780601f106187dc57610100808354040283529160200191618805565b820191905f5260205f20905b8154815290600101906020018083116187e857829003601f168201915b50505050600483015460058401546006850154600790950154939460ff9092169390925088565b5f618836826171a0565b335f90815260176020908152604080832086845290915290205490915060ff16156188d55760405162461bcd60e51b815260206004820152605660248201525f8051602061d34b83398151915260448201527f223a2032302c20226d657373616765223a227573657220616c7265616479206660648201527561766f7269746520746869732070726f64756374227d60501b608482015260a4016110e0565b335f8181526017602090815260408083208684528252808320805460ff1916600190811790915584845260188352818420825180840184528881524281860190815282548085018455928752948620905160029092020190815592519281019290925560215490516322a8e4eb60e21b81526001600160a01b039190911693638aa393ac93618970939192889291908290819060040161d1b6565b5f604051808303815f87803b158015618987575f80fd5b505af1158015618999573d5f803e3d5ffd5b5050602154602084015161018001516040516322a8e4eb60e21b81526001600160a01b039092169350638aa393ac92506189e191339187916001919082905f9060040161d1b6565b5f604051808303815f87803b1580156189f8575f80fd5b505af1158015618a0a573d5f803e3d5ffd5b50506021546020840151610180015160405163eda162e760e01b81526001600160a01b03909216935063eda162e79250618a469160040161bf40565b5f604051808303815f87803b158015618a5d575f80fd5b505af1158015618a6f573d5f803e3d5ffd5b505050505050565b60605f805b600354811015618ad85760025f60038381548110618a9c57618a9c61ca54565b5f918252602080832090910154835282019290925260400190206010015460ff1615618ad05781618acc8161cbf4565b9250505b600101618a7c565b505f816001600160401b03811115618af257618af261b1a6565b604051908082528060200260200182016040528015618b2b57816020015b618b1861ae2c565b815260200190600190039081618b105790505b5090505f805b6003548110156192745760025f60038381548110618b5157618b5161ca54565b5f918252602080832090910154835282019290925260400190206010015460ff161561926c5760025f60038381548110618b8d57618b8d61ca54565b905f5260205f20015481526020019081526020015f206040518060800160405290815f820154815260200160018201604051806103000160405290815f82018054618bd79061ca68565b80601f0160208091040260200160405190810160405280929190818152602001828054618c039061ca68565b8015618c4e5780601f10618c2557610100808354040283529160200191618c4e565b820191905f5260205f20905b815481529060010190602001808311618c3157829003601f168201915b5050505050815260200160018201548152602001600282018054618c719061ca68565b80601f0160208091040260200160405190810160405280929190818152602001828054618c9d9061ca68565b8015618ce85780601f10618cbf57610100808354040283529160200191618ce8565b820191905f5260205f20905b815481529060010190602001808311618ccb57829003601f168201915b505050505081526020016003820154815260200160048201548152602001600582015481526020016006820154815260200160078201805480602002602001604051908101604052809291908181526020018280548015618d6657602002820191905f5260205f20905b815481526020019060010190808311618d52575b5050505050815260200160088201805480602002602001604051908101604052809291908181526020015f905b82821015618e3b578382905f5260205f20018054618db09061ca68565b80601f0160208091040260200160405190810160405280929190818152602001828054618ddc9061ca68565b8015618e275780601f10618dfe57610100808354040283529160200191618e27565b820191905f5260205f20905b815481529060010190602001808311618e0a57829003601f168201915b505050505081526020019060010190618d93565b50505050815260200160098201548152602001600a8201548152602001600b8201805480602002602001604051908101604052809291908181526020015f905b82821015618f23578382905f5260205f20018054618e989061ca68565b80601f0160208091040260200160405190810160405280929190818152602001828054618ec49061ca68565b8015618f0f5780601f10618ee657610100808354040283529160200191618f0f565b820191905f5260205f20905b815481529060010190602001808311618ef257829003601f168201915b505050505081526020019060010190618e7b565b50505090825250600c8201546001600160a01b03166020820152600d82018054604090920191618f529061ca68565b80601f0160208091040260200160405190810160405280929190818152602001828054618f7e9061ca68565b8015618fc95780601f10618fa057610100808354040283529160200191618fc9565b820191905f5260205f20905b815481529060010190602001808311618fac57829003601f168201915b50505050508152602001600e82018054618fe29061ca68565b80601f016020809104026020016040519081016040528092919081815260200182805461900e9061ca68565b80156190595780601f1061903057610100808354040283529160200191619059565b820191905f5260205f20905b81548152906001019060200180831161903c57829003601f168201915b5050509183525050600f82015460ff16151560208083019190915260108301805460408051828502810185018252828152940193925f9084015b8282101561913b578382905f5260205f200180546190b09061ca68565b80601f01602080910402602001604051908101604052809291908181526020018280546190dc9061ca68565b80156191275780601f106190fe57610100808354040283529160200191619127565b820191905f5260205f20905b81548152906001019060200180831161910a57829003601f168201915b505050505081526020019060010190619093565b5050505081526020016011820180546191539061ca68565b80601f016020809104026020016040519081016040528092919081815260200182805461917f9061ca68565b80156191ca5780601f106191a1576101008083540402835291602001916191ca565b820191905f5260205f20905b8154815290600101906020018083116191ad57829003601f168201915b50505091835250506012820154602080830191909152601383015460408084019190915260148401546060840152601584015460ff8082161515608086015261010090910416151560a084015260169093015460c09092019190915291835260188401549183019190915260199092015491015283518490849081106192525761925261ca54565b602002602001018190525081806192689061cbf4565b9250505b600101618b31565b50909392505050565b601f5460405163656952ad60e01b81525f916001600160a01b03169063656952ad906192ad90339060040161bf40565b602060405180830381865afa1580156192c8573d5f803e3d5ffd5b505050506040513d601f19601f820116820180604052508101906192ec919061cbd9565b806193615750601f546040516359d3202760e11b81526001600160a01b039091169063b3a6404e9061932290339060040161bf40565b602060405180830381865afa15801561933d573d5f803e3d5ffd5b505050506040513d601f19601f82011682018060405250810190619361919061cbd9565b61938e60376040518060400160405280601b81526020015f8051602061d30a83398151915281525061184a565b906193ac5760405162461bcd60e51b81526004016110e0919061b975565b50335f90815260016020908152604080832086845282529182902054825160608101909352602180845260ff909116926193f0926019929061d32a9083013961184a565b9061940e5760405162461bcd60e51b81526004016110e0919061b975565b505f83815260026020908152604090912083516136129260119092019185019061ad9b565b5f5b815181101561168d576194608282815181106194535761945361ca54565b6020026020010151615ca7565b600101619435565b601f5460405163656952ad60e01b81525f916001600160a01b03169063656952ad9061949890339060040161bf40565b602060405180830381865afa1580156194b3573d5f803e3d5ffd5b505050506040513d601f19601f820116820180604052508101906194d7919061cbd9565b8061954c5750601f546040516359d3202760e11b81526001600160a01b039091169063b3a6404e9061950d90339060040161bf40565b602060405180830381865afa158015619528573d5f803e3d5ffd5b505050506040513d601f19601f8201168201806040525081019061954c919061cbd9565b61340760376040518060400160405280601b81526020015f8051602061d30a83398151915281525061184a565b601f5460405163588f1e0d60e11b81526001600160a01b039091169063b11e3c1a906195a990339060040161bf40565b602060405180830381865afa1580156195c4573d5f803e3d5ffd5b505050506040513d601f19601f820116820180604052508101906195e8919061cbd9565b6196045760405162461bcd60e51b81526004016110e09061ce77565b5f838152600b602052604090205461962e5760405162461bcd60e51b81526004016110e09061d15e565b6040805160608101825284815260208082018581528284018590525f878152600b909252929020815181559151909190600182019061966d908261cc8d565b5060408201516002820190619682908261cc8d565b509050507f7534c4dfe9421008b880d3284c95adb6e067900c8dea9b4718625fa85fc1d0b78383836040516171599392919061c117565b5f805b8251811015613612575f619728858584815181106196dc576196dc61ca54565b60200260200101515f01518685815181106196f9576196f961ca54565b6020026020010151602001518786815181106197175761971761ca54565b6020026020010151604001516161de565b90505f84838151811061973d5761973d61ca54565b60200260200101515f015160018111156197595761975961d04b565b036197885761978685828685815181106197755761977561ca54565b6020026020010151606001516160ce565b505b506001016196bc565b61979961ad0f565b600b5f8381526020019081526020015f206040518060600160405290815f82015481526020016001820180546197ce9061ca68565b80601f01602080910402602001604051908101604052809291908181526020018280546197fa9061ca68565b80156198455780601f1061981c57610100808354040283529160200191619845565b820191905f5260205f20905b81548152906001019060200180831161982857829003601f168201915b5050505050815260200160028201805461985e9061ca68565b80601f016020809104026020016040519081016040528092919081815260200182805461988a9061ca68565b80156198d55780601f106198ac576101008083540402835291602001916198d5565b820191905f5260205f20905b8154815290600101906020018083116198b857829003601f168201915b5050505050815250509050919050565b6003546060905f908180826001600160401b038111156199075761990761b1a6565b60405190808252806020026020018201604052801561994057816020015b61992d61ad2f565b8152602001906001900390816199255790505b5090505f5b83811015619d555760015f885160028111156199635761996361d04b565b14619a285760018851600281111561997d5761997d61d04b565b1480156199be575060025f6003848154811061999b5761999b61ca54565b5f918252602080832090910154835282019290925260400190206010015460ff16155b80619a2057506002885160028111156199d9576199d961d04b565b148015619a2057506199ee62093a804261cb0a565b60025f60038581548110619a0457619a0461ca54565b905f5260205f20015481526020019081526020015f2060180154105b15619a2857505f5b5f88606001516002811115619a3f57619a3f61d04b565b14619b1557600188606001516002811115619a5c57619a5c61d04b565b148015619aa5575060025f60038481548110619a7a57619a7a61ca54565b905f5260205f20015481526020019081526020015f2060010160150160019054906101000a900460ff165b80619b0d5750600288606001516002811115619ac357619ac361d04b565b148015619b0d575060025f60038481548110619ae157619ae161ca54565b905f5260205f20015481526020019081526020015f2060010160150160019054906101000a900460ff16155b15619b1557505f5b60808801516001600160a01b031615619b7b5787608001516001600160a01b031660025f60038581548110619b4c57619b4c61ca54565b5f91825260208083209091015483528201929092526040019020600d01546001600160a01b031614619b7b57505f5b60a08801515115619c5257619c4b8860a0015160025f60038681548110619ba457619ba461ca54565b905f5260205f20015481526020019081526020015f206001015f018054619bca9061ca68565b80601f0160208091040260200160405190810160405280929190818152602001828054619bf69061ca68565b8015619c415780601f10619c1857610100808354040283529160200191619c41565b820191905f5260205f20905b815481529060010190602001808311619c2457829003601f168201915b505050505061a6fe565b619c5257505f5b5f8860c001511180619c6757505f8860e00151115b15619d04575f8860c00151118015619cb157508760c0015160025f60038581548110619c9557619c9561ca54565b905f5260205f20015481526020019081526020015f2060180154105b80619cfc57505f8860e00151118015619cfc57508760e0015160025f60038581548110619ce057619ce061ca54565b905f5260205f20015481526020019081526020015f2060180154115b15619d0457505f5b8015619d4c57619d20600383815481106117385761173861ca54565b838581518110619d3257619d3261ca54565b60200260200101819052508380619d489061cbf4565b9450505b50600101619945565b505f826001600160401b03811115619d6f57619d6f61b1a6565b604051908082528060200260200182016040528015619da857816020015b619d9561ad2f565b815260200190600190039081619d8d5790505b5090505f5b83811015619df457828181518110619dc757619dc761ca54565b6020026020010151828281518110619de157619de161ca54565b6020908102919091010152600101619dad565b505f8088602001516001811115619e0d57619e0d61d04b565b1490505f8089604001516001811115619e2857619e2861d04b565b149050619e3683838361a7d4565b92505f8961012001518a6101000151619e4f919061cc2b565b90505f8a610120015182619e63919061cb31565b905086811115619e705750855b5f619e7b838361cb0a565b9050806001600160401b03811115619e9557619e9561b1a6565b604051908082528060200260200182016040528015619ece57816020015b619ebb61ad2f565b815260200190600190039081619eb35790505b509a50825b82811015619f2557868181518110619eed57619eed61ca54565b60200260200101518c8583619f02919061cb0a565b81518110619f1257619f1261ca54565b6020908102919091010152600101619ed3565b508782109950505050505050505050915091565b60048181548110619f48575f80fd5b905f5260205f20015f915090508054619f609061ca68565b80601f0160208091040260200160405190810160405280929190818152602001828054619f8c9061ca68565b8015619fd75780601f10619fae57610100808354040283529160200191619fd7565b820191905f5260205f20905b815481529060010190602001808311619fba57829003601f168201915b505050505081565b601f5460405163588f1e0d60e11b81525f916001600160a01b03169063b11e3c1a9061a00f90339060040161bf40565b602060405180830381865afa15801561a02a573d5f803e3d5ffd5b505050506040513d601f19601f8201168201806040525081019061a04e919061cbd9565b61a06a5760405162461bcd60e51b81526004016110e09061ce77565b5f828152600260205260409020541580159061a09c57505f82815260026020526040902060160154610100900460ff16155b61a0bf601b6040518060600160405280602c815260200161d2de602c913961184a565b9061a0dd5760405162461bcd60e51b81526004016110e0919061b975565b50505f818152600260205260409020601601805461ff0019166101001790556001919050565b60605f61a10f8361a9ee565b60010190505f816001600160401b0381111561a12d5761a12d61b1a6565b6040519080825280601f01601f19166020018201604052801561a157576020820181803683370190505b5090508181016020015b5f19016f181899199a1a9b1b9c1cb0b131b232b360811b600a86061a8153600a850494508461a16157509392505050565b5f60605f5b835181101561a209578184828151811061a1b35761a1b361ca54565b60200260200101516020015185838151811061a1d15761a1d161ca54565b60200260200101516040015160405160200161a1ef9392919061d211565b60408051601f19818403018152919052915060010161a197565b50805160209091012092915050565b60025f8281526020019081526020015f205f01545f141561a263600260405180604001604052806011815260200170141c9bd91d58dd081b9bdd08199bdd5b99607a1b81525061184a565b9061a2815760405162461bcd60e51b81526004016110e0919061b975565b505f818152600260209081526040808320600d0154600790925282206001600160a01b03909116915b815481101561a3635760065f8581526020019081526020015f205f83838154811061a2d75761a2d761ca54565b5f918252602080832090910154835282810193909352604091820181208181556001810182905560028101829055600381018290556004810182905560050181905586815260089092528120835490919084908490811061a33a5761a33a61ca54565b905f5260205f20015481526020019081526020015f205f61a35b919061af07565b60010161a2aa565b505f83815260076020526040812061a37a9161af25565b5f83815260026020526040812081815590600182018161a39a828261acd5565b600182015f9055600282015f61a3b0919061acd5565b600382015f9055600482015f9055600582015f9055600682015f9055600782015f61a3db919061af25565b61a3e8600883015f61af40565b600982015f9055600a82015f9055600b82015f61a405919061af40565b600c820180546001600160a01b031916905561a424600d83015f61acd5565b61a431600e83015f61acd5565b600f8201805460ff1916905561a44a601083015f61af40565b61a457601183015f61acd5565b505f60128201819055601382018190556014820181905560158201805461ffff191690556016909101819055601883018190556019909201829055505b60035481101561a53857836003828154811061a4b25761a4b261ca54565b905f5260205f2001540361a530576003805461a4d09060019061cb0a565b8154811061a4e05761a4e061ca54565b905f5260205f2001546003828154811061a4fc5761a4fc61ca54565b5f91825260209091200155600380548061a5185761a51861cb1d565b600190038181905f5260205f20015f9055905561a538565b60010161a494565b5061a543828461aac3565b6001600160a01b0382165f908152600160209081526040808320868452825291829020805460ff1916905590518481527f716431c6ad87c14dfbaea060c40de99e2c47afab8d3c665240f9887945474a4f9101617159565b601e80545f918261a5ab8361cbf4565b90915550505f8481526002602052604090205461a5da5760405162461bcd60e51b81526004016110e09061cf9f565b60408051606081018252601e5480825260208083018781528385018790525f928352601490915292902081518155915190918291600182019061a61d908261cc8d565b506040820151600282019061a632908261cc8d565b5050505f858152601560209081526040808320601e5481546001810183559185529284200191909155602154815163f857d61760e01b815291516001600160a01b039091169263f857d617926004808201939182900301818387803b158015616fce575f80fd5b5f8381526014602052604090205461a6c35760405162461bcd60e51b81526004016110e09061cff7565b5f83815260146020526040902060010161a6dd838261cc8d565b505f83815260146020526040902060020161a6f8828261cc8d565b50505050565b815181515f9184918491111561a712575f80fd5b5f805b8351835161a723919061cb0a565b811161a7ca5760015f5b855181101561a7a65761a75f86828151811061a74b5761a74b61ca54565b01602001516001600160f81b03191661ab7d565b6001600160f81b03191661a7878661a777848761cb31565b8151811061a74b5761a74b61ca54565b6001600160f81b0319161461a79e575f915061a7a6565b60010161a72d565b50801561a7b757600192505061a7ca565b508061a7c28161cbf4565b91505061a715565b5095945050505050565b8251606090600281101561a7eb5784915050616e59565b61a7f361ad2f565b61a7fb61ad2f565b61a80361ad2f565b5f805f5b61a81260018861cb0a565b81101561a9df575f5b600161a827838a61cb0a565b61a831919061cb0a565b81101561a9d6575f8c828151811061a84b5761a84b61ca54565b602002602001015197508c82600161a863919061cb31565b8151811061a8735761a87361ca54565b602002602001015196508a1561a8a0578651604090810151895190910151111561a89b575060015b61a8b8565b8651604090810151895190910151101561a8b8575060015b8b1561a9015761a8c78861abb9565b945061a8d28761abb9565b93508a801561a8e057508385115b8061a8f357508a15801561a8f357508385105b1561a8fc575060015b61a93f565b61a90a8861ac13565b945061a9158761ac13565b93508a801561a92357508385105b8061a93657508a15801561a93657508385115b1561a93f575060015b801561a9cd578c828151811061a9575761a95761ca54565b602002602001015195508c82600161a96f919061cb31565b8151811061a97f5761a97f61ca54565b60200260200101518d838151811061a9995761a99961ca54565b6020908102919091010152858d61a9b184600161cb31565b8151811061a9c15761a9c161ca54565b60200260200101819052505b5060010161a81b565b5060010161a807565b50989998505050505050505050565b5f8072184f03e93ff9f4daa797ed6e38ed64bf6a1f0160401b831061aa2c5772184f03e93ff9f4daa797ed6e38ed64bf6a1f0160401b830492506040015b6904ee2d6d415b85acef8160201b831061aa56576904ee2d6d415b85acef8160201b830492506020015b662386f26fc10000831061aa7457662386f26fc10000830492506010015b6305f5e100831061aa8c576305f5e100830492506008015b612710831061aaa057612710830492506004015b6064831061aab2576064830492506002015b600a8310610e6b5760010192915050565b6001600160a01b0382165f908152600a60205260408120905b815481101561a6f8578282828154811061aaf85761aaf861ca54565b905f5260205f2001540361ab75578154829061ab169060019061cb0a565b8154811061ab265761ab2661ca54565b905f5260205f20015482828154811061ab415761ab4161ca54565b905f5260205f2001819055508180548061ab5d5761ab5d61cb1d565b600190038181905f5260205f20015f9055905561a6f8565b60010161aadc565b5f604160f883901c1080159061ab985750605a60f883901c11155b1561abb55761abac60f883901c602061d22e565b60f81b92915050565b5090565b5f5f1961abc461af5b565b5f5b846020015151811015619274578460200151818151811061abe95761abe961ca54565b6020026020010151602001519150828260200151101561ac0b57816020015192505b60010161abc6565b5f8061ac1d61af5b565b5f5b846020015151811015619274578460200151818151811061ac425761ac4261ca54565b6020026020010151602001519150828260200151111561ac6457816020015192505b60010161ac1f565b604080518082019091525f81526020810161ac8561af5b565b905290565b6040518061010001604052805f81526020015f6001600160a01b0316815260200160608152602001606081526020015f60ff1681526020015f81526020015f81526020015f81525090565b50805461ace19061ca68565b5f825580601f1061acf0575050565b601f0160209004905f5260205f209081019061ad0c919061af85565b50565b60405180606001604052805f815260200160608152602001606081525090565b604051806060016040528061ad4261ae2c565b815260200160608152602001606081525090565b828054828255905f5260205f2090810192821561ad8f579160200282015b8281111561ad8f57825182559160200191906001019061ad74565b5061abb592915061af85565b828054828255905f5260205f2090810192821561addf579160200282015b8281111561addf578251829061adcf908261cc8d565b509160200191906001019061adb9565b5061abb592915061af99565b60405180606001604052805f801916815260200160608152602001606081525090565b60408051606080820183525f8252602082015290810161ac8561af5b565b60405180608001604052805f815260200161aef5604051806103000160405280606081526020015f8152602001606081526020015f81526020015f81526020015f81526020015f815260200160608152602001606081526020015f81526020015f8152602001606081526020015f6001600160a01b0316815260200160608152602001606081526020015f1515815260200160608152602001606081526020015f81526020015f81526020015f81526020015f151581526020015f151581526020015f81525090565b81526020015f81526020015f81525090565b5080545f8255600302905f5260205f209081019061ad0c919061afb5565b5080545f8255905f5260205f209081019061ad0c919061af85565b5080545f8255905f5260205f209081019061ad0c919061af99565b6040518060a001604052805f81526020015f81526020015f81526020015f81526020015f81525090565b5b8082111561abb5575f815560010161af86565b8082111561abb5575f61afac828261acd5565b5060010161af99565b8082111561abb5575f80825561afce600183018261acd5565b61afdb600283015f61acd5565b5060030161afb5565b5f806040838503121561aff5575f80fd5b50508035926020909101359150565b80518252602081015160208301526040810151604083015260608101516060830152608081015160808301525050565b805182526020810151616056602084018261b004565b60c08101610e6b828461b034565b5f6020828403121561b068575f80fd5b5035919050565b5f81518084528060208401602086015e5f602082860101526020601f19601f83011685010191505092915050565b8051825260018060a01b0360208201511660208301525f6040820151610100604085015261b0cf61010085018261b06f565b90506060830151848203606086015261b0e8828261b06f565b915050608083015161b0ff608086018260ff169052565b5060a083015160a085015260c083015160c085015260e083015160e08501528091505092915050565b5f82825180855260208501945060208160051b830101602085015f5b8381101561b17657601f1985840301885261b16083835161b09d565b602098890198909350919091019060010161b144565b50909695505050505050565b602081525f616e59602083018461b128565b602081525f616e59602083018461b09d565b634e487b7160e01b5f52604160045260245ffd5b60405161030081016001600160401b038111828210171561b1dd5761b1dd61b1a6565b60405290565b604051606081016001600160401b038111828210171561b1dd5761b1dd61b1a6565b604080519081016001600160401b038111828210171561b1dd5761b1dd61b1a6565b604051608081016001600160401b038111828210171561b1dd5761b1dd61b1a6565b60405161014081016001600160401b038111828210171561b1dd5761b1dd61b1a6565b604051601f8201601f191681016001600160401b038111828210171561b2945761b29461b1a6565b604052919050565b5f82601f83011261b2ab575f80fd5b8135602083015f806001600160401b0384111561b2ca5761b2ca61b1a6565b50601f8301601f191660200161b2df8161b26c565b91505082815285838301111561b2f3575f80fd5b828260208301375f92810160200192909252509392505050565b5f6020828403121561b31d575f80fd5b81356001600160401b0381111561b332575f80fd5b61b33e8482850161b29c565b949350505050565b80356001600160a01b0381168114613433575f80fd5b5f806040838503121561b36d575f80fd5b61b3768361b346565b946020939093013593505050565b602080825282518282018190525f918401906040840190835b8181101561b3c757835180518452602090810151818501529093019260409092019160010161b39d565b509095945050505050565b805182525f60208201516060602085015261b3f0606085018261b06f565b90506040830151848203604086015261b409828261b06f565b95945050505050565b5f82825180855260208501945060208160051b830101602085015f5b8381101561b17657601f1985840301885261b44a83835161b3d2565b602098890198909350919091019060010161b42e565b602081525f616e59602083018461b412565b5f6001600160401b0382111561b48a5761b48a61b1a6565b5060051b60200190565b5f82601f83011261b4a3575f80fd5b813561b4b661b4b18261b472565b61b26c565b8082825260208201915060208360051b86010192508583111561b4d7575f80fd5b602085015b8381101561a7ca57803583526020928301920161b4dc565b5f6020828403121561b504575f80fd5b81356001600160401b0381111561b519575f80fd5b61b33e8482850161b494565b5f6020828403121561b535575f80fd5b616e598261b346565b5f8151808452602084019350602083015f5b8281101561b56e57815186526020958601959091019060010161b550565b5093949350505050565b5f82825180855260208501945060208160051b830101602085015f5b8381101561b17657601f1985840301885261b5b083835161b06f565b602098890198909350919091019060010161b594565b5f8151610300845261b5dc61030085018261b06f565b9050602083015160208501526040830151848203604086015261b5ff828261b06f565b915050606083015160608501526080830151608085015260a083015160a085015260c083015160c085015260e083015184820360e086015261b641828261b53e565b91505061010083015184820361010086015261b65d828261b578565b91505061012083015161012085015261014083015161014085015261016083015184820361016086015261b691828261b578565b91505061018083015161b6b06101808601826001600160a01b03169052565b506101a08301518482036101a086015261b6ca828261b06f565b9150506101c08301518482036101c086015261b6e6828261b06f565b9150506101e083015161b6fe6101e086018215159052565b5061020083015184820361020086015261b718828261b578565b91505061022083015184820361022086015261b734828261b06f565b9150506102408301516102408501526102608301516102608501526102808301516102808501526102a083015161b7706102a086018215159052565b506102c083015161b7866102c086018215159052565b506102e08301516102e08501528091505092915050565b805182525f60208201516080602085015261b7bb608085018261b5c6565b905060408301516040850152606083015160608501528091505092915050565b5f81516060845261b7ef606085018261b79d565b60208481015186830387830152805180845290820193505f92909101905b8083101561b8375761b82082855161b034565b60c08201915060208401935060018301925061b80d565b50604085015192508581036040870152809150825180825260208201925060208160051b8301016020850194505f5b8281101561b89757601f1984830301855261b88282875161b412565b6020968701969590950194915060010161b866565b50979650505050505050565b5f82825180855260208501945060208160051b830101602085015f5b8381101561b17657601f1985840301885261b8db83835161b7db565b602098890198909350919091019060010161b8bf565b602081525f616e59602083018461b8a3565b5f805f806080858703121561b916575f80fd5b5050823594602084013594506040840135936060013592509050565b5f806040838503121561b943575f80fd5b8235915060208301356001600160401b0381111561b95f575f80fd5b61b96b8582860161b29c565b9150509250929050565b602081525f616e59602083018461b06f565b848152608060208201525f61b99f608083018661b5c6565b6040830194909452506060015292915050565b5f82601f83011261b9c1575f80fd5b813561b9cf61b4b18261b472565b8082825260208201915060208360051b86010192508583111561b9f0575f80fd5b602085015b8381101561a7ca5780356001600160401b0381111561ba12575f80fd5b61ba21886020838a010161b29c565b8452506020928301920161b9f5565b801515811461ad0c575f80fd5b80356134338161ba30565b5f610300828403121561ba59575f80fd5b61ba6161b1ba565b905081356001600160401b0381111561ba78575f80fd5b61ba848482850161b29c565b8252506020828101359082015260408201356001600160401b0381111561baa9575f80fd5b61bab58482850161b29c565b604083015250606082810135908201526080808301359082015260a0808301359082015260c0808301359082015260e08201356001600160401b0381111561bafb575f80fd5b61bb078482850161b494565b60e0830152506101008201356001600160401b0381111561bb26575f80fd5b61bb328482850161b9b2565b61010083015250610120828101359082015261014080830135908201526101608201356001600160401b0381111561bb68575f80fd5b61bb748482850161b9b2565b6101608301525061bb88610180830161b346565b6101808201526101a08201356001600160401b0381111561bba7575f80fd5b61bbb38482850161b29c565b6101a0830152506101c08201356001600160401b0381111561bbd3575f80fd5b61bbdf8482850161b29c565b6101c08301525061bbf36101e0830161ba3d565b6101e08201526102008201356001600160401b0381111561bc12575f80fd5b61bc1e8482850161b9b2565b610200830152506102208201356001600160401b0381111561bc3e575f80fd5b61bc4a8482850161b29c565b6102208301525061024082810135908201526102608083013590820152610280808301359082015261bc7f6102a0830161ba3d565b6102a082015261bc926102c0830161ba3d565b6102c08201526102e09182013591810191909152919050565b5f60a0828403121561bcbb575f80fd5b60405160a081016001600160401b038111828210171561bcdd5761bcdd61b1a6565b604090815283358252602080850135908301528381013590820152606080840135908201526080928301359281019290925250919050565b5f82601f83011261bd24575f80fd5b61bd3161b4b1833561b472565b82358082526020808301929160051b85010185101561bd4e575f80fd5b602084015b6020853560051b86010181101561bede576001600160401b038135111561bd78575f80fd5b8035850160e0818803601f1901121561bd8f575f80fd5b61bd9761b1e3565b602082013581526001600160401b036040830135111561bdb5575f80fd5b6020604083013583010188601f82011261bdcd575f80fd5b61bdda61b4b1823561b472565b81358082526020808301929160051b8401018b101561bdf7575f80fd5b602083015b6020843560051b85010181101561beb4576001600160401b038135111561be21575f80fd5b803584016060818e03601f1901121561be38575f80fd5b61be4061b1e3565b602082013581526001600160401b036040830135111561be5e575f80fd5b61be718e6020604085013585010161b29c565b60208201526001600160401b036060830135111561be8d575f80fd5b61bea08e6020606085013585010161b29c565b60408201528452506020928301920161bdfc565b5060208401525061beca9050886060840161bcab565b60408201528452506020928301920161bd53565b50949350505050565b5f806040838503121561bef8575f80fd5b82356001600160401b0381111561bf0d575f80fd5b61bf198582860161ba48565b92505060208301356001600160401b0381111561bf34575f80fd5b61b96b8582860161bd15565b6001600160a01b0391909116815260200190565b5f805f6060848603121561bf66575f80fd5b505081359360208301359350604090920135919050565b5f82601f83011261bf8c575f80fd5b813561bf9a61b4b18261b472565b8082825260208201915060208360051b86010192508583111561bfbb575f80fd5b602085015b8381101561a7ca5780356001600160401b0381111561bfdd575f80fd5b86016040818903601f1901121561bff2575f80fd5b61bffa61b205565b60208201356001600160401b0381111561c012575f80fd5b61c0218a60208386010161b29c565b82525060408201356001600160401b0381111561c03c575f80fd5b61c04b8a60208386010161b29c565b602083015250808552505060208301925060208101905061bfc0565b5f806040838503121561c078575f80fd5b8235915060208301356001600160401b0381111561c094575f80fd5b61b96b8582860161bf7d565b82815260c08101616e59602083018461b004565b5f602082016020835280845180835260408501915060408160051b8601019250602086015f5b8281101561c10b57603f1987860301845261c0f685835161b3d2565b9450602093840193919091019060010161c0da565b50929695505050505050565b838152606060208201525f61c12f606083018561b06f565b828103604084015261c141818561b06f565b9695505050505050565b5f6020828403121561c15b575f80fd5b81356001600160401b0381111561c170575f80fd5b61b33e8482850161bf7d565b5f8151808452602084019350602083015f5b8281101561b56e5781516001600160a01b031686526020958601959091019060010161c18e565b602081525f616e59602083018461c17c565b5f6020828403121561c1d7575f80fd5b81356001600160401b0381111561c1ec575f80fd5b8201601f8101841361c1fc575f80fd5b803561c20a61b4b18261b472565b8082825260208201915060208360051b85010192508683111561c22b575f80fd5b602084015b8381101561c2da5780356001600160401b0381111561c24d575f80fd5b85016060818a03601f1901121561c262575f80fd5b61c26a61b1e3565b6020820135815260408201356001600160401b0381111561c289575f80fd5b61c2988b60208386010161b29c565b60208301525060608201356001600160401b0381111561c2b6575f80fd5b61c2c58b60208386010161b29c565b6040830152508452506020928301920161c230565b509695505050505050565b5f806040838503121561c2f6575f80fd5b8235915060208301356001600160401b0381111561c312575f80fd5b61b96b8582860161b494565b602081525f616e59602083018461b53e565b5f8151808452602084019350602083015f5b8281101561b56e578151805187526020808201516001600160a01b03168189015260408083015190890152606091820151918801919091526080909601959091019060010161c342565b60c081525f61c39e60c083018961b128565b828103602084015261c3b0818961c330565b9050828103604084015261c3c4818861b412565b9050828103606084015261c3d8818761b53e565b9050828103608084015261c3ec818661b53e565b905082810360a084015261c400818561b53e565b9998505050505050505050565b5f602082016020835280845180835260408501915060408160051b8601019250602086015f5b8281101561c10b57603f1987860301845261c44f85835161b79d565b9450602093840193919091019060010161c433565b602081525f616e59602083018461b7db565b602081525f616e59602083018461c330565b602081525f616e59602083018461b578565b5f805f6060848603121561c4ac575f80fd5b8335925060208401356001600160401b0381111561c4c8575f80fd5b61c4d48682870161b29c565b92505060408401356001600160401b0381111561c4ef575f80fd5b61c4fb8682870161b29c565b9150509250925092565b6002811061ad0c575f80fd5b80356134338161c505565b5f805f806080858703121561c52f575f80fd5b84359350602085013561c5418161c505565b925060408501356001600160401b0381111561c55b575f80fd5b61c5678782880161b29c565b92505060608501356001600160401b0381111561c582575f80fd5b61c58e8782880161b29c565b91505092959194509250565b5f805f6060848603121561c5ac575f80fd5b8335925060208401356001600160401b0381111561c5c8575f80fd5b61c5d48682870161ba48565b92505060408401356001600160401b0381111561c5ef575f80fd5b61c4fb8682870161bd15565b5f806040838503121561c60c575f80fd5b82356001600160401b0381111561c621575f80fd5b61c62d8582860161b29c565b92505060208301356001600160401b0381111561b95f575f80fd5b602081525f616e59602083018461b79d565b5f6020828403121561c66a575f80fd5b81356001600160401b0381111561c67f575f80fd5b8201601f8101841361c68f575f80fd5b803561c69d61b4b18261b472565b8082825260208201915060208360051b85010192508683111561c6be575f80fd5b602084015b8381101561c2da5780356001600160401b0381111561c6e0575f80fd5b85016040818a03601f1901121561c6f5575f80fd5b61c6fd61b205565b6020820135815260408201356001600160401b0381111561c71c575f80fd5b61c72b8b60208386010161b29c565b602083015250808552505060208301925060208101905061c6c3565b8881526001600160a01b0388166020820152610100604082018190525f9061c7719083018961b06f565b828103606084015261c783818961b06f565b91505060ff861660808301528460a08301528360c08301528260e08301529998505050505050505050565b5f806040838503121561c7bf575f80fd5b8235915060208301356001600160401b0381111561c7db575f80fd5b61b96b8582860161b9b2565b5f806040838503121561c7f8575f80fd5b8235915060208301356001600160401b0381111561c814575f80fd5b8301601f8101851361c824575f80fd5b803561c83261b4b18261b472565b8082825260208201915060208360051b85010192508783111561c853575f80fd5b602084015b8381101561c9165780356001600160401b0381111561c875575f80fd5b85016080818b03601f1901121561c88a575f80fd5b61c89261b227565b602082013561c8a08161c505565b815260408201356001600160401b0381111561c8ba575f80fd5b61c8c98c60208386010161b29c565b60208301525060608201356001600160401b0381111561c8e7575f80fd5b61c8f68c60208386010161b29c565b60408301525060809190910135606082015283526020928301920161c858565b50809450505050509250929050565b602081525f616e59602083018461b3d2565b803560038110613433575f80fd5b5f6020828403121561c955575f80fd5b81356001600160401b0381111561c96a575f80fd5b8201610140818503121561c97c575f80fd5b61c98461b249565b61c98d8261c937565b815261c99b6020830161c511565b602082015261c9ac6040830161c511565b604082015261c9bd6060830161c937565b606082015261c9ce6080830161b346565b608082015260a08201356001600160401b0381111561c9eb575f80fd5b61c9f78682850161b29c565b60a08301525060c0828101359082015260e08083013590820152610100808301359082015261012091820135918101919091529392505050565b604081525f61ca43604083018561b8a3565b905082151560208301529392505050565b634e487b7160e01b5f52603260045260245ffd5b600181811c9082168061ca7c57607f821691505b60208210810361122457634e487b7160e01b5f52602260045260245ffd5b60208082526049908201525f8051602061d34b83398151915260408201527f223a2035352c20226d657373616765223a2022596f7520617265206e6f7420616060820152686c6c6f7765642e227d60b81b608082015260a00190565b634e487b7160e01b5f52601160045260245ffd5b81810381811115610e6b57610e6b61caf6565b634e487b7160e01b5f52603160045260245ffd5b80820180821115610e6b57610e6b61caf6565b5f81518060208401855e5f93019283525090919050565b7a1ec8999c9bdb488e88089158dbdb541c9bd91d58dd0b9cdbdb088b602a1b81526701131b7b232911d160c51b601b8201525f61cb9b602383018561cb44565b61016160f51b81526b1136b2b9b9b0b3b2911d101160a11b600282015261cbc5600e82018561cb44565b61227d60f01b815260020195945050505050565b5f6020828403121561cbe9575f80fd5b8151616e598161ba30565b5f6001820161cc055761cc0561caf6565b5060010190565b5f8261cc2657634e487b7160e01b5f52601260045260245ffd5b500490565b8082028115828204841417610e6b57610e6b61caf6565b601f82111561605657805f5260205f20601f840160051c8101602085101561cc675750805b601f840160051c820191505b8181101561cc86575f815560010161cc73565b5050505050565b81516001600160401b0381111561cca65761cca661b1a6565b61ccba8161ccb4845461ca68565b8461cc42565b6020601f82116001811461ccec575f831561ccd55750848201515b5f19600385901b1c1916600184901b17845561cc86565b5f84815260208120601f198516915b8281101561cd1b578785015182556020948501946001909201910161ccfb565b508482101561cd3857868401515f19600387901b60f8161c191681555b50505050600190811b01905550565b5f616e59828461cb44565b828152604060208201525f61b33e604083018461b5c6565b60208082526045908201525f8051602061d34b83398151915260408201527f223a2032392c20226d657373616765223a22436f6d6d656e74206e6f7420666f606082015264756e64227d60d81b608082015260a00190565b60208082526058908201525f8051602061d34b83398151915260408201527f223a2035342c20226d657373616765223a2022526174652076616c7565206d756060820152777374206265206265747765656e203120616e6420352e227d60401b608082015260a00190565b6020808252603e908201525f8051602061d34b83398151915260408201527f223a2032382c20226d657373616765223a20224e6f74207261746564227d0000606082015260800190565b60208082526047908201525f8051602061d34b83398151915260408201527f223a2035332c20226d657373616765223a2022596f7520617265206e6f742041606082015266444d494e2e227d60c81b608082015260a00190565b5f6020828403121561cee1575f80fd5b81516001600160401b0381111561cef6575f80fd5b8201601f8101841361cf06575f80fd5b805161cf1461b4b18261b472565b8082825260208201915060208360051b85010192508683111561cf35575f80fd5b6020840193505b8284101561c14157835182526020938401939091019061cf3c565b5f60ff821660ff810361cf6c5761cf6c61caf6565b60010192915050565b6001600160a01b039485168152602081019390935292166040820152901515606082015260800190565b60208082526045908201525f8051602061d34b83398151915260408201527f223a20332c20226d657373616765223a202250726f64756374206e6f7420666f606082015264756e64227d60d81b608082015260a00190565b60208082526041908201525f8051602061d34b83398151915260408201527f223a2033312c20226d657373616765223a22464151206e6f7420666f756e64226060820152607d60f81b608082015260a00190565b634e487b7160e01b5f52602160045260245ffd5b7a437573746f6d657220466565646261636b2052656365697665642160281b81525f616e59601b83018461cb44565b608081525f61d0a0608083018561b06f565b828103806020850152605482527f596f75277665207265636569766564206e657720666565646261636b2061626f60208301527f757420796f75722070726f647563742120436865636b20637573746f6d65722060408301527319995959189858dac8185b99081c995cdc1bdb9960621b60608301526080810160408501525061d12d608082018561c17c565b8381036060909401939093525050600d81526c436f6d6d656e7455706461746560981b602082015260400192915050565b60208082526045908201525f8051602061d34b83398151915260408201527f223a20322c20226d657373616765223a2243617465676f7279206e6f7420666f606082015264756e64227d60d81b608082015260a00190565b6001600160a01b03878116825260208201879052604082018690528416606082015260c081016002841061d1f857634e487b7160e01b5f52602160045260245ffd5b83608083015282151560a0830152979650505050505050565b5f61b40961d22861d222848861cb44565b8661cb44565b8461cb44565b60ff8181168382160190811115610e6b57610e6b61caf656fe55736572206973206e6f742074686520636f72726563742072657461696c657220666f7220746869732070726f64756374223a2032382c20226d657373616765223a2022526174696e6720646f6573206e496e76616c696420766970507269636520616e64206d656d62657250726963654475706c69636174652076617269616e74206174747269627574657320646574656374656450726f6475637420646f6573206e6f74206578697374206f722073746174757320697320617070726f7665644f6e6c7920636f6e74726f6c6c6572206f722072657461696c65720000000000596f7520617265206e6f7420746869732070726f647563742072657461696c65727b2266726f6d223a202245636f6d50726f647563742e736f6c222c22636f6465496e76616c69642072657761726420616e64206d656d62657220707269636500a2646970667358221220e58f198174b6b26247968c0bc9bb7063770a9e59139aa50dcdfc00967478785864736f6c634300081a0033",
			"opcodes": "PUSH1 0x80 PUSH1 0x40 MSTORE PUSH0 DUP1 SLOAD PUSH1 0x1 PUSH1 0x1 PUSH1 0xA0 SHL SUB NOT AND CALLER OR SWAP1 SSTORE PUSH2 0xD3C0 DUP1 PUSH2 0x22 PUSH0 CODECOPY PUSH0 RETURN INVALID PUSH1 0x80 PUSH1 0x40 MSTORE CALLVALUE DUP1 ISZERO PUSH2 0xF JUMPI PUSH0 DUP1 REVERT JUMPDEST POP PUSH1 0x4 CALLDATASIZE LT PUSH2 0x427 JUMPI PUSH0 CALLDATALOAD PUSH1 0xE0 SHR DUP1 PUSH3 0x41C629 EQ PUSH2 0x42B JUMPI DUP1 PUSH4 0x3926DF9 EQ PUSH2 0x454 JUMPI DUP1 PUSH4 0x39DBD13 EQ PUSH2 0x474 JUMPI DUP1 PUSH4 0x6B32424 EQ PUSH2 0x497 JUMPI DUP1 PUSH4 0x800E300 EQ PUSH2 0x4B8 JUMPI DUP1 PUSH4 0xABBA767 EQ PUSH2 0x4D8 JUMPI DUP1 PUSH4 0xBA69A47 EQ PUSH2 0x506 JUMPI DUP1 PUSH4 0xFB5D9E9 EQ PUSH2 0x554 JUMPI DUP1 PUSH4 0x10C54DA8 EQ PUSH2 0x569 JUMPI DUP1 PUSH4 0x11D2A079 EQ PUSH2 0x589 JUMPI DUP1 PUSH4 0x1C8028A2 EQ PUSH2 0x59E JUMPI DUP1 PUSH4 0x1D068976 EQ PUSH2 0x5BE JUMPI DUP1 PUSH4 0x1DB6D8C0 EQ PUSH2 0x5D1 JUMPI DUP1 PUSH4 0x21937B46 EQ PUSH2 0x5E4 JUMPI DUP1 PUSH4 0x2248632A EQ PUSH2 0x611 JUMPI DUP1 PUSH4 0x28D2A1B6 EQ PUSH2 0x631 JUMPI DUP1 PUSH4 0x29058F09 EQ PUSH2 0x654 JUMPI DUP1 PUSH4 0x2C89F03B EQ PUSH2 0x667 JUMPI DUP1 PUSH4 0x31A4BCB5 EQ PUSH2 0x67A JUMPI DUP1 PUSH4 0x32F39436 EQ PUSH2 0x68D JUMPI DUP1 PUSH4 0x3DE21AC6 EQ PUSH2 0x6AD JUMPI DUP1 PUSH4 0x40342308 EQ PUSH2 0x6C0 JUMPI DUP1 PUSH4 0x41D6ACED EQ PUSH2 0x6D3 JUMPI DUP1 PUSH4 0x423F65A9 EQ PUSH2 0x6E6 JUMPI DUP1 PUSH4 0x43B3F034 EQ PUSH2 0x6EF JUMPI DUP1 PUSH4 0x44089CD1 EQ PUSH2 0x702 JUMPI DUP1 PUSH4 0x4708EE10 EQ PUSH2 0x715 JUMPI DUP1 PUSH4 0x47C1701F EQ PUSH2 0x728 JUMPI DUP1 PUSH4 0x4905A13D EQ PUSH2 0x79D JUMPI DUP1 PUSH4 0x4B56436F EQ PUSH2 0x7B0 JUMPI DUP1 PUSH4 0x4D5C5FD7 EQ PUSH2 0x7C3 JUMPI DUP1 PUSH4 0x4DB0412C EQ PUSH2 0x7D6 JUMPI DUP1 PUSH4 0x5183D6F4 EQ PUSH2 0x7EB JUMPI DUP1 PUSH4 0x562E2C35 EQ PUSH2 0x818 JUMPI DUP1 PUSH4 0x5B315089 EQ PUSH2 0x845 JUMPI DUP1 PUSH4 0x633481E6 EQ PUSH2 0x84D JUMPI DUP1 PUSH4 0x6353AA22 EQ PUSH2 0x86F JUMPI DUP1 PUSH4 0x66573F61 EQ PUSH2 0x882 JUMPI DUP1 PUSH4 0x676174A7 EQ PUSH2 0x8A2 JUMPI DUP1 PUSH4 0x67EF5A9A EQ PUSH2 0x8B5 JUMPI DUP1 PUSH4 0x680921AE EQ PUSH2 0x8D5 JUMPI DUP1 PUSH4 0x6813B53B EQ PUSH2 0x8FD JUMPI DUP1 PUSH4 0x6BB42046 EQ PUSH2 0x922 JUMPI DUP1 PUSH4 0x7608A27E EQ PUSH2 0x942 JUMPI DUP1 PUSH4 0x79A85E6C EQ PUSH2 0x94A JUMPI DUP1 PUSH4 0x7ACC0B20 EQ PUSH2 0x96A JUMPI DUP1 PUSH4 0x7CBD4183 EQ PUSH2 0x97D JUMPI DUP1 PUSH4 0x822D487D EQ PUSH2 0x99D JUMPI DUP1 PUSH4 0x8248A724 EQ PUSH2 0x9B2 JUMPI DUP1 PUSH4 0x841392DB EQ PUSH2 0x9C5 JUMPI DUP1 PUSH4 0x891C95F9 EQ PUSH2 0x9D8 JUMPI DUP1 PUSH4 0x8A8869E2 EQ PUSH2 0xA02 JUMPI DUP1 PUSH4 0x8DA5CB5B EQ PUSH2 0xA15 JUMPI DUP1 PUSH4 0x8E5254A6 EQ PUSH2 0xA27 JUMPI DUP1 PUSH4 0x9406A816 EQ PUSH2 0xA3A JUMPI DUP1 PUSH4 0x9B5ACE9E EQ PUSH2 0xA4D JUMPI DUP1 PUSH4 0x9FF99D9F EQ PUSH2 0xA60 JUMPI DUP1 PUSH4 0xA6ED62CF EQ PUSH2 0xA73 JUMPI DUP1 PUSH4 0xA8F46830 EQ PUSH2 0xA86 JUMPI DUP1 PUSH4 0xAD816029 EQ PUSH2 0xA99 JUMPI DUP1 PUSH4 0xAF8EB714 EQ PUSH2 0xAAC JUMPI DUP1 PUSH4 0xB224B4E9 EQ PUSH2 0xABF JUMPI DUP1 PUSH4 0xB28917FE EQ PUSH2 0xAD2 JUMPI DUP1 PUSH4 0xB3ED37B2 EQ PUSH2 0xADB JUMPI DUP1 PUSH4 0xB570FD8E EQ PUSH2 0xAEE JUMPI DUP1 PUSH4 0xB5C3A9DC EQ PUSH2 0xAF7 JUMPI DUP1 PUSH4 0xB814F77B EQ PUSH2 0xB0A JUMPI DUP1 PUSH4 0xB8EEC5FF EQ PUSH2 0xB1D JUMPI DUP1 PUSH4 0xB9DB15B4 EQ PUSH2 0xB26 JUMPI DUP1 PUSH4 0xBB58E29F EQ PUSH2 0xB46 JUMPI DUP1 PUSH4 0xC29B2F20 EQ PUSH2 0xB59 JUMPI DUP1 PUSH4 0xC33E39DF EQ PUSH2 0xB61 JUMPI DUP1 PUSH4 0xC6CDBE5E EQ PUSH2 0xB74 JUMPI DUP1 PUSH4 0xC7691CF6 EQ PUSH2 0xB87 JUMPI DUP1 PUSH4 0xC7853148 EQ PUSH2 0xBED JUMPI DUP1 PUSH4 0xCAC0E650 EQ PUSH2 0xC00 JUMPI DUP1 PUSH4 0xCBB77380 EQ PUSH2 0xC13 JUMPI DUP1 PUSH4 0xCECA737F EQ PUSH2 0xC26 JUMPI DUP1 PUSH4 0xD06FD39B EQ PUSH2 0xC39 JUMPI DUP1 PUSH4 0xD4EB7BAD EQ PUSH2 0xC4C JUMPI DUP1 PUSH4 0xD738D8A2 EQ PUSH2 0xC73 JUMPI DUP1 PUSH4 0xD904D7C5 EQ PUSH2 0xC86 JUMPI DUP1 PUSH4 0xDEE2412F EQ PUSH2 0xC8E JUMPI DUP1 PUSH4 0xE7303FC0 EQ PUSH2 0xCA1 JUMPI DUP1 PUSH4 0xED90C7B7 EQ PUSH2 0xCB4 JUMPI DUP1 PUSH4 0xEDD1DE4D EQ PUSH2 0xCC7 JUMPI DUP1 PUSH4 0xEE4E9FFF EQ PUSH2 0xCDA JUMPI DUP1 PUSH4 0xF3052D26 EQ PUSH2 0xCED JUMPI DUP1 PUSH4 0xF497E49C EQ PUSH2 0xD0D JUMPI DUP1 PUSH4 0xF82EE41A EQ PUSH2 0xD3A JUMPI DUP1 PUSH4 0xF9FB452F EQ PUSH2 0xD5B JUMPI DUP1 PUSH4 0xFDCB5732 EQ PUSH2 0xD64 JUMPI DUP1 PUSH4 0xFE5ED5DD EQ PUSH2 0xD77 JUMPI DUP1 PUSH4 0xFEC0ED1D EQ PUSH2 0xDEA JUMPI JUMPDEST PUSH0 DUP1 REVERT JUMPDEST PUSH2 0x43E PUSH2 0x439 CALLDATASIZE PUSH1 0x4 PUSH2 0xAFE4 JUMP JUMPDEST PUSH2 0xDFD JUMP JUMPDEST PUSH1 0x40 MLOAD PUSH2 0x44B SWAP2 SWAP1 PUSH2 0xB04A JUMP JUMPDEST PUSH1 0x40 MLOAD DUP1 SWAP2 SUB SWAP1 RETURN JUMPDEST PUSH2 0x467 PUSH2 0x462 CALLDATASIZE PUSH1 0x4 PUSH2 0xB058 JUMP JUMPDEST PUSH2 0xE71 JUMP JUMPDEST PUSH1 0x40 MLOAD PUSH2 0x44B SWAP2 SWAP1 PUSH2 0xB182 JUMP JUMPDEST PUSH2 0x487 PUSH2 0x482 CALLDATASIZE PUSH1 0x4 PUSH2 0xB058 JUMP JUMPDEST PUSH2 0x10B5 JUMP JUMPDEST PUSH1 0x40 MLOAD SWAP1 ISZERO ISZERO DUP2 MSTORE PUSH1 0x20 ADD PUSH2 0x44B JUMP JUMPDEST PUSH2 0x4AA PUSH2 0x4A5 CALLDATASIZE PUSH1 0x4 PUSH2 0xAFE4 JUMP JUMPDEST PUSH2 0x122A JUMP JUMPDEST PUSH1 0x40 MLOAD SWAP1 DUP2 MSTORE PUSH1 0x20 ADD PUSH2 0x44B JUMP JUMPDEST PUSH2 0x4CB PUSH2 0x4C6 CALLDATASIZE PUSH1 0x4 PUSH2 0xB058 JUMP JUMPDEST PUSH2 0x1255 JUMP JUMPDEST PUSH1 0x40 MLOAD PUSH2 0x44B SWAP2 SWAP1 PUSH2 0xB194 JUMP JUMPDEST PUSH2 0x487 PUSH2 0x4E6 CALLDATASIZE PUSH1 0x4 PUSH2 0xB30D JUMP JUMPDEST DUP1 MLOAD PUSH1 0x20 DUP2 DUP4 ADD DUP2 ADD DUP1 MLOAD PUSH1 0x5 DUP3 MSTORE SWAP3 DUP3 ADD SWAP2 SWAP1 SWAP4 ADD KECCAK256 SWAP2 MSTORE SLOAD PUSH1 0xFF AND DUP2 JUMP JUMPDEST PUSH2 0x53D PUSH2 0x514 CALLDATASIZE PUSH1 0x4 PUSH2 0xB35C JUMP JUMPDEST PUSH1 0x10 PUSH1 0x20 SWAP1 DUP2 MSTORE PUSH0 SWAP3 DUP4 MSTORE PUSH1 0x40 DUP1 DUP5 KECCAK256 SWAP1 SWAP2 MSTORE SWAP1 DUP3 MSTORE SWAP1 KECCAK256 DUP1 SLOAD PUSH1 0x1 SWAP1 SWAP2 ADD SLOAD PUSH1 0xFF SWAP1 SWAP2 AND SWAP1 DUP3 JUMP JUMPDEST PUSH1 0x40 DUP1 MLOAD SWAP3 ISZERO ISZERO DUP4 MSTORE PUSH1 0x20 DUP4 ADD SWAP2 SWAP1 SWAP2 MSTORE ADD PUSH2 0x44B JUMP JUMPDEST PUSH2 0x55C PUSH2 0x13E9 JUMP JUMPDEST PUSH1 0x40 MLOAD PUSH2 0x44B SWAP2 SWAP1 PUSH2 0xB384 JUMP JUMPDEST PUSH2 0x57C PUSH2 0x577 CALLDATASIZE PUSH1 0x4 PUSH2 0xB058 JUMP JUMPDEST PUSH2 0x1463 JUMP JUMPDEST PUSH1 0x40 MLOAD PUSH2 0x44B SWAP2 SWAP1 PUSH2 0xB460 JUMP JUMPDEST PUSH2 0x59C PUSH2 0x597 CALLDATASIZE PUSH1 0x4 PUSH2 0xB4F4 JUMP JUMPDEST PUSH2 0x1658 JUMP JUMPDEST STOP JUMPDEST PUSH2 0x5B1 PUSH2 0x5AC CALLDATASIZE PUSH1 0x4 PUSH2 0xB525 JUMP JUMPDEST PUSH2 0x1691 JUMP JUMPDEST PUSH1 0x40 MLOAD PUSH2 0x44B SWAP2 SWAP1 PUSH2 0xB8F1 JUMP JUMPDEST PUSH2 0x59C PUSH2 0x5CC CALLDATASIZE PUSH1 0x4 PUSH2 0xB903 JUMP JUMPDEST PUSH2 0x1772 JUMP JUMPDEST PUSH2 0x4AA PUSH2 0x5DF CALLDATASIZE PUSH1 0x4 PUSH2 0xAFE4 JUMP JUMPDEST PUSH2 0x1831 JUMP JUMPDEST PUSH2 0x487 PUSH2 0x5F2 CALLDATASIZE PUSH1 0x4 PUSH2 0xB058 JUMP JUMPDEST CALLER PUSH0 SWAP1 DUP2 MSTORE PUSH1 0x17 PUSH1 0x20 SWAP1 DUP2 MSTORE PUSH1 0x40 DUP1 DUP4 KECCAK256 SWAP4 DUP4 MSTORE SWAP3 SWAP1 MSTORE KECCAK256 SLOAD PUSH1 0xFF AND SWAP1 JUMP JUMPDEST PUSH2 0x624 PUSH2 0x61F CALLDATASIZE PUSH1 0x4 PUSH2 0xB932 JUMP JUMPDEST PUSH2 0x184A JUMP JUMPDEST PUSH1 0x40 MLOAD PUSH2 0x44B SWAP2 SWAP1 PUSH2 0xB975 JUMP JUMPDEST PUSH2 0x644 PUSH2 0x63F CALLDATASIZE PUSH1 0x4 PUSH2 0xB058 JUMP JUMPDEST PUSH2 0x1883 JUMP JUMPDEST PUSH1 0x40 MLOAD PUSH2 0x44B SWAP5 SWAP4 SWAP3 SWAP2 SWAP1 PUSH2 0xB987 JUMP JUMPDEST PUSH2 0x4AA PUSH2 0x662 CALLDATASIZE PUSH1 0x4 PUSH2 0xB35C JUMP JUMPDEST PUSH2 0x1F09 JUMP JUMPDEST PUSH2 0x4AA PUSH2 0x675 CALLDATASIZE PUSH1 0x4 PUSH2 0xBEE7 JUMP JUMPDEST PUSH2 0x1F22 JUMP JUMPDEST PUSH2 0x59C PUSH2 0x688 CALLDATASIZE PUSH1 0x4 PUSH2 0xAFE4 JUMP JUMPDEST PUSH2 0x2C37 JUMP JUMPDEST PUSH1 0x20 SLOAD PUSH2 0x6A0 SWAP1 PUSH1 0x1 PUSH1 0x1 PUSH1 0xA0 SHL SUB AND DUP2 JUMP JUMPDEST PUSH1 0x40 MLOAD PUSH2 0x44B SWAP2 SWAP1 PUSH2 0xBF40 JUMP JUMPDEST PUSH2 0x487 PUSH2 0x6BB CALLDATASIZE PUSH1 0x4 PUSH2 0xBF54 JUMP JUMPDEST PUSH2 0x2DCE JUMP JUMPDEST PUSH2 0x487 PUSH2 0x6CE CALLDATASIZE PUSH1 0x4 PUSH2 0xAFE4 JUMP JUMPDEST PUSH2 0x2EDC JUMP JUMPDEST PUSH2 0x57C PUSH2 0x6E1 CALLDATASIZE PUSH1 0x4 PUSH2 0xB058 JUMP JUMPDEST PUSH2 0x3125 JUMP JUMPDEST PUSH2 0x4AA PUSH1 0x1D SLOAD DUP2 JUMP JUMPDEST PUSH2 0x487 PUSH2 0x6FD CALLDATASIZE PUSH1 0x4 PUSH2 0xB058 JUMP JUMPDEST PUSH2 0x3327 JUMP JUMPDEST PUSH2 0x487 PUSH2 0x710 CALLDATASIZE PUSH1 0x4 PUSH2 0xB525 JUMP JUMPDEST PUSH2 0x3438 JUMP JUMPDEST PUSH2 0x487 PUSH2 0x723 CALLDATASIZE PUSH1 0x4 PUSH2 0xC067 JUMP JUMPDEST PUSH2 0x348A JUMP JUMPDEST PUSH2 0x78F PUSH2 0x736 CALLDATASIZE PUSH1 0x4 PUSH2 0xAFE4 JUMP JUMPDEST PUSH1 0x6 PUSH1 0x20 SWAP1 DUP2 MSTORE PUSH0 SWAP3 DUP4 MSTORE PUSH1 0x40 DUP1 DUP5 KECCAK256 DUP3 MSTORE SWAP2 DUP4 MSTORE SWAP2 DUP2 SWAP1 KECCAK256 DUP1 SLOAD DUP3 MLOAD PUSH1 0xA0 DUP2 ADD DUP5 MSTORE PUSH1 0x1 DUP4 ADD SLOAD DUP2 MSTORE PUSH1 0x2 DUP4 ADD SLOAD SWAP5 DUP2 ADD SWAP5 SWAP1 SWAP5 MSTORE PUSH1 0x3 DUP3 ADD SLOAD SWAP3 DUP5 ADD SWAP3 SWAP1 SWAP3 MSTORE PUSH1 0x4 DUP2 ADD SLOAD PUSH1 0x60 DUP5 ADD MSTORE PUSH1 0x5 ADD SLOAD PUSH1 0x80 DUP4 ADD MSTORE SWAP1 DUP3 JUMP JUMPDEST PUSH1 0x40 MLOAD PUSH2 0x44B SWAP3 SWAP2 SWAP1 PUSH2 0xC0A0 JUMP JUMPDEST PUSH2 0x487 PUSH2 0x7AB CALLDATASIZE PUSH1 0x4 PUSH2 0xAFE4 JUMP JUMPDEST PUSH2 0x361C JUMP JUMPDEST PUSH2 0x59C PUSH2 0x7BE CALLDATASIZE PUSH1 0x4 PUSH2 0xB35C JUMP JUMPDEST PUSH2 0x37B5 JUMP JUMPDEST PUSH1 0x1F SLOAD PUSH2 0x6A0 SWAP1 PUSH1 0x1 PUSH1 0x1 PUSH1 0xA0 SHL SUB AND DUP2 JUMP JUMPDEST PUSH2 0x7DE PUSH2 0x3DC4 JUMP JUMPDEST PUSH1 0x40 MLOAD PUSH2 0x44B SWAP2 SWAP1 PUSH2 0xC0B4 JUMP JUMPDEST PUSH2 0x487 PUSH2 0x7F9 CALLDATASIZE PUSH1 0x4 PUSH2 0xB35C JUMP JUMPDEST PUSH1 0x17 PUSH1 0x20 SWAP1 DUP2 MSTORE PUSH0 SWAP3 DUP4 MSTORE PUSH1 0x40 DUP1 DUP5 KECCAK256 SWAP1 SWAP2 MSTORE SWAP1 DUP3 MSTORE SWAP1 KECCAK256 SLOAD PUSH1 0xFF AND DUP2 JUMP JUMPDEST PUSH2 0x487 PUSH2 0x826 CALLDATASIZE PUSH1 0x4 PUSH2 0xB35C JUMP JUMPDEST PUSH1 0x1 PUSH1 0x20 SWAP1 DUP2 MSTORE PUSH0 SWAP3 DUP4 MSTORE PUSH1 0x40 DUP1 DUP5 KECCAK256 SWAP1 SWAP2 MSTORE SWAP1 DUP3 MSTORE SWAP1 KECCAK256 SLOAD PUSH1 0xFF AND DUP2 JUMP JUMPDEST PUSH2 0x5B1 PUSH2 0x3FB7 JUMP JUMPDEST PUSH2 0x860 PUSH2 0x85B CALLDATASIZE PUSH1 0x4 PUSH2 0xBF54 JUMP JUMPDEST PUSH2 0x405B JUMP JUMPDEST PUSH1 0x40 MLOAD PUSH2 0x44B SWAP4 SWAP3 SWAP2 SWAP1 PUSH2 0xC117 JUMP JUMPDEST PUSH2 0x487 PUSH2 0x87D CALLDATASIZE PUSH1 0x4 PUSH2 0xC14B JUMP JUMPDEST PUSH2 0x41B2 JUMP JUMPDEST PUSH2 0x895 PUSH2 0x890 CALLDATASIZE PUSH1 0x4 PUSH2 0xB4F4 JUMP JUMPDEST PUSH2 0x4234 JUMP JUMPDEST PUSH1 0x40 MLOAD PUSH2 0x44B SWAP2 SWAP1 PUSH2 0xC1B5 JUMP JUMPDEST PUSH2 0x59C PUSH2 0x8B0 CALLDATASIZE PUSH1 0x4 PUSH2 0xC1C7 JUMP JUMPDEST PUSH2 0x42FC JUMP JUMPDEST PUSH2 0x8C8 PUSH2 0x8C3 CALLDATASIZE PUSH1 0x4 PUSH2 0xC2E5 JUMP JUMPDEST PUSH2 0x44A0 JUMP JUMPDEST PUSH1 0x40 MLOAD PUSH2 0x44B SWAP2 SWAP1 PUSH2 0xC31E JUMP JUMPDEST PUSH2 0x8E8 PUSH2 0x8E3 CALLDATASIZE PUSH1 0x4 PUSH2 0xB35C JUMP JUMPDEST PUSH2 0x4551 JUMP JUMPDEST PUSH1 0x40 DUP1 MLOAD SWAP3 DUP4 MSTORE PUSH1 0x20 DUP4 ADD SWAP2 SWAP1 SWAP2 MSTORE ADD PUSH2 0x44B JUMP JUMPDEST PUSH2 0x910 PUSH2 0x90B CALLDATASIZE PUSH1 0x4 PUSH2 0xB058 JUMP JUMPDEST PUSH2 0x4589 JUMP JUMPDEST PUSH1 0x40 MLOAD PUSH2 0x44B SWAP7 SWAP6 SWAP5 SWAP4 SWAP3 SWAP2 SWAP1 PUSH2 0xC38C JUMP JUMPDEST PUSH2 0x935 PUSH2 0x930 CALLDATASIZE PUSH1 0x4 PUSH2 0xB525 JUMP JUMPDEST PUSH2 0x46FB JUMP JUMPDEST PUSH1 0x40 MLOAD PUSH2 0x44B SWAP2 SWAP1 PUSH2 0xC40D JUMP JUMPDEST PUSH2 0x57C PUSH2 0x4E63 JUMP JUMPDEST PUSH2 0x95D PUSH2 0x958 CALLDATASIZE PUSH1 0x4 PUSH2 0xB058 JUMP JUMPDEST PUSH2 0x504F JUMP JUMPDEST PUSH1 0x40 MLOAD PUSH2 0x44B SWAP2 SWAP1 PUSH2 0xC464 JUMP JUMPDEST PUSH2 0x4AA PUSH2 0x978 CALLDATASIZE PUSH1 0x4 PUSH2 0xB058 JUMP JUMPDEST PUSH2 0x5A86 JUMP JUMPDEST PUSH2 0x990 PUSH2 0x98B CALLDATASIZE PUSH1 0x4 PUSH2 0xB058 JUMP JUMPDEST PUSH2 0x5AA5 JUMP JUMPDEST PUSH1 0x40 MLOAD PUSH2 0x44B SWAP2 SWAP1 PUSH2 0xC476 JUMP JUMPDEST PUSH2 0x9A5 PUSH2 0x5BCD JUMP JUMPDEST PUSH1 0x40 MLOAD PUSH2 0x44B SWAP2 SWAP1 PUSH2 0xC488 JUMP JUMPDEST PUSH2 0x4AA PUSH2 0x9C0 CALLDATASIZE PUSH1 0x4 PUSH2 0xB058 JUMP JUMPDEST PUSH2 0x5C98 JUMP JUMPDEST PUSH2 0x59C PUSH2 0x9D3 CALLDATASIZE PUSH1 0x4 PUSH2 0xB058 JUMP JUMPDEST PUSH2 0x5CA7 JUMP JUMPDEST PUSH2 0x4AA PUSH2 0x9E6 CALLDATASIZE PUSH1 0x4 PUSH2 0xAFE4 JUMP JUMPDEST PUSH1 0x13 PUSH1 0x20 SWAP1 DUP2 MSTORE PUSH0 SWAP3 DUP4 MSTORE PUSH1 0x40 DUP1 DUP5 KECCAK256 SWAP1 SWAP2 MSTORE SWAP1 DUP3 MSTORE SWAP1 KECCAK256 SLOAD DUP2 JUMP JUMPDEST PUSH2 0x487 PUSH2 0xA10 CALLDATASIZE PUSH1 0x4 PUSH2 0xB525 JUMP JUMPDEST PUSH2 0x605B JUMP JUMPDEST PUSH0 SLOAD PUSH2 0x6A0 SWAP1 PUSH1 0x1 PUSH1 0x1 PUSH1 0xA0 SHL SUB AND DUP2 JUMP JUMPDEST PUSH2 0x860 PUSH2 0xA35 CALLDATASIZE PUSH1 0x4 PUSH2 0xB058 JUMP JUMPDEST PUSH2 0x60AD JUMP JUMPDEST PUSH2 0x487 PUSH2 0xA48 CALLDATASIZE PUSH1 0x4 PUSH2 0xBF54 JUMP JUMPDEST PUSH2 0x60CE JUMP JUMPDEST PUSH2 0x487 PUSH2 0xA5B CALLDATASIZE PUSH1 0x4 PUSH2 0xC49A JUMP JUMPDEST PUSH2 0x6148 JUMP JUMPDEST PUSH2 0x4AA PUSH2 0xA6E CALLDATASIZE PUSH1 0x4 PUSH2 0xC51C JUMP JUMPDEST PUSH2 0x61DE JUMP JUMPDEST PUSH2 0x860 PUSH2 0xA81 CALLDATASIZE PUSH1 0x4 PUSH2 0xB058 JUMP JUMPDEST PUSH2 0x64C5 JUMP JUMPDEST PUSH2 0x487 PUSH2 0xA94 CALLDATASIZE PUSH1 0x4 PUSH2 0xC59A JUMP JUMPDEST PUSH2 0x64E6 JUMP JUMPDEST PUSH2 0x59C PUSH2 0xAA7 CALLDATASIZE PUSH1 0x4 PUSH2 0xB932 JUMP JUMPDEST PUSH2 0x6E60 JUMP JUMPDEST PUSH2 0x487 PUSH2 0xABA CALLDATASIZE PUSH1 0x4 PUSH2 0xC5FB JUMP JUMPDEST PUSH2 0x6EBC JUMP JUMPDEST PUSH2 0x59C PUSH2 0xACD CALLDATASIZE PUSH1 0x4 PUSH2 0xC5FB JUMP JUMPDEST PUSH2 0x6FEF JUMP JUMPDEST PUSH2 0x4AA PUSH1 0x1B SLOAD DUP2 JUMP JUMPDEST PUSH2 0x4AA PUSH2 0xAE9 CALLDATASIZE PUSH1 0x4 PUSH2 0xAFE4 JUMP JUMPDEST PUSH2 0x7166 JUMP JUMPDEST PUSH2 0x4AA PUSH1 0x1E SLOAD DUP2 JUMP JUMPDEST PUSH2 0x860 PUSH2 0xB05 CALLDATASIZE PUSH1 0x4 PUSH2 0xB058 JUMP JUMPDEST PUSH2 0x717F JUMP JUMPDEST PUSH1 0x21 SLOAD PUSH2 0x6A0 SWAP1 PUSH1 0x1 PUSH1 0x1 PUSH1 0xA0 SHL SUB AND DUP2 JUMP JUMPDEST PUSH2 0x4AA PUSH1 0x1C SLOAD DUP2 JUMP JUMPDEST PUSH2 0xB39 PUSH2 0xB34 CALLDATASIZE PUSH1 0x4 PUSH2 0xB058 JUMP JUMPDEST PUSH2 0x71A0 JUMP JUMPDEST PUSH1 0x40 MLOAD PUSH2 0x44B SWAP2 SWAP1 PUSH2 0xC648 JUMP JUMPDEST PUSH2 0x4AA PUSH2 0xB54 CALLDATASIZE PUSH1 0x4 PUSH2 0xAFE4 JUMP JUMPDEST PUSH2 0x785A JUMP JUMPDEST PUSH2 0x935 PUSH2 0x7873 JUMP JUMPDEST PUSH2 0x59C PUSH2 0xB6F CALLDATASIZE PUSH1 0x4 PUSH2 0xC65A JUMP JUMPDEST PUSH2 0x7FC8 JUMP JUMPDEST PUSH2 0x4AA PUSH2 0xB82 CALLDATASIZE PUSH1 0x4 PUSH2 0xB058 JUMP JUMPDEST PUSH2 0x814E JUMP JUMPDEST PUSH2 0xBC5 PUSH2 0xB95 CALLDATASIZE PUSH1 0x4 PUSH2 0xB058 JUMP JUMPDEST PUSH1 0xE PUSH1 0x20 MSTORE PUSH0 SWAP1 DUP2 MSTORE PUSH1 0x40 SWAP1 KECCAK256 DUP1 SLOAD PUSH1 0x1 DUP3 ADD SLOAD PUSH1 0x2 DUP4 ADD SLOAD PUSH1 0x3 SWAP1 SWAP4 ADD SLOAD SWAP2 SWAP3 PUSH1 0x1 PUSH1 0x1 PUSH1 0xA0 SHL SUB SWAP1 SWAP2 AND SWAP2 DUP5 JUMP JUMPDEST PUSH1 0x40 DUP1 MLOAD SWAP5 DUP6 MSTORE PUSH1 0x1 PUSH1 0x1 PUSH1 0xA0 SHL SUB SWAP1 SWAP4 AND PUSH1 0x20 DUP6 ADD MSTORE SWAP2 DUP4 ADD MSTORE PUSH1 0x60 DUP3 ADD MSTORE PUSH1 0x80 ADD PUSH2 0x44B JUMP JUMPDEST PUSH2 0x55C PUSH2 0xBFB CALLDATASIZE PUSH1 0x4 PUSH2 0xB525 JUMP JUMPDEST PUSH2 0x815D JUMP JUMPDEST PUSH2 0x487 PUSH2 0xC0E CALLDATASIZE PUSH1 0x4 PUSH2 0xB525 JUMP JUMPDEST PUSH2 0x81E2 JUMP JUMPDEST PUSH2 0x4AA PUSH2 0xC21 CALLDATASIZE PUSH1 0x4 PUSH2 0xAFE4 JUMP JUMPDEST PUSH2 0x8234 JUMP JUMPDEST PUSH2 0x59C PUSH2 0xC34 CALLDATASIZE PUSH1 0x4 PUSH2 0xB058 JUMP JUMPDEST PUSH2 0x824D JUMP JUMPDEST PUSH2 0x487 PUSH2 0xC47 CALLDATASIZE PUSH1 0x4 PUSH2 0xAFE4 JUMP JUMPDEST PUSH2 0x851D JUMP JUMPDEST PUSH2 0xC5F PUSH2 0xC5A CALLDATASIZE PUSH1 0x4 PUSH2 0xB058 JUMP JUMPDEST PUSH2 0x86D1 JUMP JUMPDEST PUSH1 0x40 MLOAD PUSH2 0x44B SWAP9 SWAP8 SWAP7 SWAP6 SWAP5 SWAP4 SWAP3 SWAP2 SWAP1 PUSH2 0xC747 JUMP JUMPDEST PUSH2 0x59C PUSH2 0xC81 CALLDATASIZE PUSH1 0x4 PUSH2 0xB058 JUMP JUMPDEST PUSH2 0x882C JUMP JUMPDEST PUSH2 0x935 PUSH2 0x8A77 JUMP JUMPDEST PUSH2 0x487 PUSH2 0xC9C CALLDATASIZE PUSH1 0x4 PUSH2 0xC7AE JUMP JUMPDEST PUSH2 0x927D JUMP JUMPDEST PUSH2 0x59C PUSH2 0xCAF CALLDATASIZE PUSH1 0x4 PUSH2 0xB4F4 JUMP JUMPDEST PUSH2 0x9433 JUMP JUMPDEST PUSH2 0x487 PUSH2 0xCC2 CALLDATASIZE PUSH1 0x4 PUSH2 0xB058 JUMP JUMPDEST PUSH2 0x9468 JUMP JUMPDEST PUSH2 0x59C PUSH2 0xCD5 CALLDATASIZE PUSH1 0x4 PUSH2 0xC49A JUMP JUMPDEST PUSH2 0x9579 JUMP JUMPDEST PUSH2 0x487 PUSH2 0xCE8 CALLDATASIZE PUSH1 0x4 PUSH2 0xC7E7 JUMP JUMPDEST PUSH2 0x96B9 JUMP JUMPDEST PUSH2 0xD00 PUSH2 0xCFB CALLDATASIZE PUSH1 0x4 PUSH2 0xB058 JUMP JUMPDEST PUSH2 0x9791 JUMP JUMPDEST PUSH1 0x40 MLOAD PUSH2 0x44B SWAP2 SWAP1 PUSH2 0xC925 JUMP JUMPDEST PUSH2 0x487 PUSH2 0xD1B CALLDATASIZE PUSH1 0x4 PUSH2 0xB35C JUMP JUMPDEST PUSH1 0x19 PUSH1 0x20 SWAP1 DUP2 MSTORE PUSH0 SWAP3 DUP4 MSTORE PUSH1 0x40 DUP1 DUP5 KECCAK256 SWAP1 SWAP2 MSTORE SWAP1 DUP3 MSTORE SWAP1 KECCAK256 SLOAD PUSH1 0xFF AND DUP2 JUMP JUMPDEST PUSH2 0xD4D PUSH2 0xD48 CALLDATASIZE PUSH1 0x4 PUSH2 0xC945 JUMP JUMPDEST PUSH2 0x98E5 JUMP JUMPDEST PUSH1 0x40 MLOAD PUSH2 0x44B SWAP3 SWAP2 SWAP1 PUSH2 0xCA31 JUMP JUMPDEST PUSH2 0x4AA PUSH1 0x1A SLOAD DUP2 JUMP JUMPDEST PUSH2 0x624 PUSH2 0xD72 CALLDATASIZE PUSH1 0x4 PUSH2 0xB058 JUMP JUMPDEST PUSH2 0x9F39 JUMP JUMPDEST PUSH2 0xDCD PUSH2 0xD85 CALLDATASIZE PUSH1 0x4 PUSH2 0xB058 JUMP JUMPDEST PUSH1 0x40 DUP1 MLOAD DUP1 DUP3 ADD DUP3 MSTORE PUSH0 DUP1 DUP3 MSTORE PUSH1 0x20 SWAP2 DUP3 ADD DUP2 SWAP1 MSTORE CALLER DUP2 MSTORE PUSH1 0x10 DUP3 MSTORE DUP3 DUP2 KECCAK256 SWAP4 DUP2 MSTORE SWAP3 DUP2 MSTORE SWAP2 DUP2 SWAP1 KECCAK256 DUP2 MLOAD DUP1 DUP4 ADD SWAP1 SWAP3 MSTORE DUP1 SLOAD PUSH1 0xFF AND ISZERO ISZERO DUP3 MSTORE PUSH1 0x1 ADD SLOAD SWAP2 DUP2 ADD SWAP2 SWAP1 SWAP2 MSTORE SWAP1 JUMP JUMPDEST PUSH1 0x40 DUP1 MLOAD DUP3 MLOAD ISZERO ISZERO DUP2 MSTORE PUSH1 0x20 SWAP3 DUP4 ADD MLOAD SWAP3 DUP2 ADD SWAP3 SWAP1 SWAP3 MSTORE ADD PUSH2 0x44B JUMP JUMPDEST PUSH2 0x487 PUSH2 0xDF8 CALLDATASIZE PUSH1 0x4 PUSH2 0xB058 JUMP JUMPDEST PUSH2 0x9FDF JUMP JUMPDEST PUSH2 0xE05 PUSH2 0xAC6C JUMP JUMPDEST POP PUSH0 DUP3 DUP2 MSTORE PUSH1 0x6 PUSH1 0x20 SWAP1 DUP2 MSTORE PUSH1 0x40 DUP1 DUP4 KECCAK256 DUP5 DUP5 MSTORE DUP3 MSTORE SWAP2 DUP3 SWAP1 KECCAK256 DUP3 MLOAD DUP1 DUP5 ADD DUP5 MSTORE DUP2 SLOAD DUP2 MSTORE DUP4 MLOAD PUSH1 0xA0 DUP2 ADD DUP6 MSTORE PUSH1 0x1 DUP4 ADD SLOAD DUP2 MSTORE PUSH1 0x2 DUP4 ADD SLOAD DUP2 DUP6 ADD MSTORE PUSH1 0x3 DUP4 ADD SLOAD SWAP5 DUP2 ADD SWAP5 SWAP1 SWAP5 MSTORE PUSH1 0x4 DUP3 ADD SLOAD PUSH1 0x60 DUP6 ADD MSTORE PUSH1 0x5 SWAP1 SWAP2 ADD SLOAD PUSH1 0x80 DUP5 ADD MSTORE SWAP1 DUP2 ADD SWAP2 SWAP1 SWAP2 MSTORE JUMPDEST SWAP3 SWAP2 POP POP JUMP JUMPDEST PUSH0 DUP2 DUP2 MSTORE PUSH1 0x11 PUSH1 0x20 MSTORE PUSH1 0x40 DUP2 KECCAK256 DUP1 SLOAD PUSH1 0x60 SWAP3 SWAP1 PUSH1 0x1 PUSH1 0x1 PUSH1 0x40 SHL SUB DUP2 GT ISZERO PUSH2 0xE9B JUMPI PUSH2 0xE9B PUSH2 0xB1A6 JUMP JUMPDEST PUSH1 0x40 MLOAD SWAP1 DUP1 DUP3 MSTORE DUP1 PUSH1 0x20 MUL PUSH1 0x20 ADD DUP3 ADD PUSH1 0x40 MSTORE DUP1 ISZERO PUSH2 0xED4 JUMPI DUP2 PUSH1 0x20 ADD JUMPDEST PUSH2 0xEC1 PUSH2 0xAC8A JUMP JUMPDEST DUP2 MSTORE PUSH1 0x20 ADD SWAP1 PUSH1 0x1 SWAP1 SUB SWAP1 DUP2 PUSH2 0xEB9 JUMPI SWAP1 POP JUMPDEST POP SWAP1 POP PUSH0 JUMPDEST DUP3 SLOAD DUP2 LT ISZERO PUSH2 0x10AD JUMPI PUSH1 0x12 PUSH0 DUP5 DUP4 DUP2 SLOAD DUP2 LT PUSH2 0xEF7 JUMPI PUSH2 0xEF7 PUSH2 0xCA54 JUMP JUMPDEST PUSH0 SWAP2 DUP3 MSTORE PUSH1 0x20 DUP1 DUP4 KECCAK256 SWAP1 SWAP2 ADD SLOAD DUP4 MSTORE DUP3 DUP2 ADD SWAP4 SWAP1 SWAP4 MSTORE PUSH1 0x40 SWAP2 DUP3 ADD SWAP1 KECCAK256 DUP2 MLOAD PUSH2 0x100 DUP2 ADD DUP4 MSTORE DUP2 SLOAD DUP2 MSTORE PUSH1 0x1 DUP3 ADD SLOAD PUSH1 0x1 PUSH1 0x1 PUSH1 0xA0 SHL SUB AND SWAP4 DUP2 ADD SWAP4 SWAP1 SWAP4 MSTORE PUSH1 0x2 DUP2 ADD DUP1 SLOAD SWAP2 SWAP3 DUP5 ADD SWAP2 PUSH2 0xF4A SWAP1 PUSH2 0xCA68 JUMP JUMPDEST DUP1 PUSH1 0x1F ADD PUSH1 0x20 DUP1 SWAP2 DIV MUL PUSH1 0x20 ADD PUSH1 0x40 MLOAD SWAP1 DUP2 ADD PUSH1 0x40 MSTORE DUP1 SWAP3 SWAP2 SWAP1 DUP2 DUP2 MSTORE PUSH1 0x20 ADD DUP3 DUP1 SLOAD PUSH2 0xF76 SWAP1 PUSH2 0xCA68 JUMP JUMPDEST DUP1 ISZERO PUSH2 0xFC1 JUMPI DUP1 PUSH1 0x1F LT PUSH2 0xF98 JUMPI PUSH2 0x100 DUP1 DUP4 SLOAD DIV MUL DUP4 MSTORE SWAP2 PUSH1 0x20 ADD SWAP2 PUSH2 0xFC1 JUMP JUMPDEST DUP3 ADD SWAP2 SWAP1 PUSH0 MSTORE PUSH1 0x20 PUSH0 KECCAK256 SWAP1 JUMPDEST DUP2 SLOAD DUP2 MSTORE SWAP1 PUSH1 0x1 ADD SWAP1 PUSH1 0x20 ADD DUP1 DUP4 GT PUSH2 0xFA4 JUMPI DUP3 SWAP1 SUB PUSH1 0x1F AND DUP3 ADD SWAP2 JUMPDEST POP POP POP POP POP DUP2 MSTORE PUSH1 0x20 ADD PUSH1 0x3 DUP3 ADD DUP1 SLOAD PUSH2 0xFDA SWAP1 PUSH2 0xCA68 JUMP JUMPDEST DUP1 PUSH1 0x1F ADD PUSH1 0x20 DUP1 SWAP2 DIV MUL PUSH1 0x20 ADD PUSH1 0x40 MLOAD SWAP1 DUP2 ADD PUSH1 0x40 MSTORE DUP1 SWAP3 SWAP2 SWAP1 DUP2 DUP2 MSTORE PUSH1 0x20 ADD DUP3 DUP1 SLOAD PUSH2 0x1006 SWAP1 PUSH2 0xCA68 JUMP JUMPDEST DUP1 ISZERO PUSH2 0x1051 JUMPI DUP1 PUSH1 0x1F LT PUSH2 0x1028 JUMPI PUSH2 0x100 DUP1 DUP4 SLOAD DIV MUL DUP4 MSTORE SWAP2 PUSH1 0x20 ADD SWAP2 PUSH2 0x1051 JUMP JUMPDEST DUP3 ADD SWAP2 SWAP1 PUSH0 MSTORE PUSH1 0x20 PUSH0 KECCAK256 SWAP1 JUMPDEST DUP2 SLOAD DUP2 MSTORE SWAP1 PUSH1 0x1 ADD SWAP1 PUSH1 0x20 ADD DUP1 DUP4 GT PUSH2 0x1034 JUMPI DUP3 SWAP1 SUB PUSH1 0x1F AND DUP3 ADD SWAP2 JUMPDEST POP POP POP SWAP2 DUP4 MSTORE POP POP PUSH1 0x4 DUP3 ADD SLOAD PUSH1 0xFF AND PUSH1 0x20 DUP3 ADD MSTORE PUSH1 0x5 DUP3 ADD SLOAD PUSH1 0x40 DUP3 ADD MSTORE PUSH1 0x6 DUP3 ADD SLOAD PUSH1 0x60 DUP3 ADD MSTORE PUSH1 0x7 SWAP1 SWAP2 ADD SLOAD PUSH1 0x80 SWAP1 SWAP2 ADD MSTORE DUP3 MLOAD DUP4 SWAP1 DUP4 SWAP1 DUP2 LT PUSH2 0x109A JUMPI PUSH2 0x109A PUSH2 0xCA54 JUMP JUMPDEST PUSH1 0x20 SWAP1 DUP2 MUL SWAP2 SWAP1 SWAP2 ADD ADD MSTORE PUSH1 0x1 ADD PUSH2 0xED9 JUMP JUMPDEST POP SWAP4 SWAP3 POP POP POP JUMP JUMPDEST PUSH0 DUP1 SLOAD PUSH1 0x1 PUSH1 0x1 PUSH1 0xA0 SHL SUB AND CALLER DUP2 EQ PUSH2 0x10E9 JUMPI PUSH1 0x40 MLOAD PUSH3 0x461BCD PUSH1 0xE5 SHL DUP2 MSTORE PUSH1 0x4 ADD PUSH2 0x10E0 SWAP1 PUSH2 0xCA9A JUMP JUMPDEST PUSH1 0x40 MLOAD DUP1 SWAP2 SUB SWAP1 REVERT JUMPDEST PUSH0 JUMPDEST PUSH1 0x16 SLOAD DUP2 LT ISZERO PUSH2 0x118F JUMPI DUP4 PUSH1 0x16 DUP3 DUP2 SLOAD DUP2 LT PUSH2 0x1109 JUMPI PUSH2 0x1109 PUSH2 0xCA54 JUMP JUMPDEST SWAP1 PUSH0 MSTORE PUSH1 0x20 PUSH0 KECCAK256 ADD SLOAD SUB PUSH2 0x1187 JUMPI PUSH1 0x16 DUP1 SLOAD PUSH2 0x1127 SWAP1 PUSH1 0x1 SWAP1 PUSH2 0xCB0A JUMP JUMPDEST DUP2 SLOAD DUP2 LT PUSH2 0x1137 JUMPI PUSH2 0x1137 PUSH2 0xCA54 JUMP JUMPDEST SWAP1 PUSH0 MSTORE PUSH1 0x20 PUSH0 KECCAK256 ADD SLOAD PUSH1 0x16 DUP3 DUP2 SLOAD DUP2 LT PUSH2 0x1153 JUMPI PUSH2 0x1153 PUSH2 0xCA54 JUMP JUMPDEST PUSH0 SWAP2 DUP3 MSTORE PUSH1 0x20 SWAP1 SWAP2 KECCAK256 ADD SSTORE PUSH1 0x16 DUP1 SLOAD DUP1 PUSH2 0x116F JUMPI PUSH2 0x116F PUSH2 0xCB1D JUMP JUMPDEST PUSH1 0x1 SWAP1 SUB DUP2 DUP2 SWAP1 PUSH0 MSTORE PUSH1 0x20 PUSH0 KECCAK256 ADD PUSH0 SWAP1 SSTORE SWAP1 SSTORE PUSH2 0x118F JUMP JUMPDEST PUSH1 0x1 ADD PUSH2 0x10EB JUMP JUMPDEST POP PUSH0 DUP4 DUP2 MSTORE PUSH1 0x14 PUSH1 0x20 MSTORE PUSH1 0x40 DUP2 KECCAK256 DUP2 DUP2 SSTORE SWAP1 PUSH2 0x11AE PUSH1 0x1 DUP4 ADD DUP3 PUSH2 0xACD5 JUMP JUMPDEST PUSH2 0x11BB PUSH1 0x2 DUP4 ADD PUSH0 PUSH2 0xACD5 JUMP JUMPDEST POP POP PUSH1 0x21 PUSH0 SWAP1 SLOAD SWAP1 PUSH2 0x100 EXP SWAP1 DIV PUSH1 0x1 PUSH1 0x1 PUSH1 0xA0 SHL SUB AND PUSH1 0x1 PUSH1 0x1 PUSH1 0xA0 SHL SUB AND PUSH4 0x6F2069F0 PUSH1 0x40 MLOAD DUP2 PUSH4 0xFFFFFFFF AND PUSH1 0xE0 SHL DUP2 MSTORE PUSH1 0x4 ADD PUSH0 PUSH1 0x40 MLOAD DUP1 DUP4 SUB DUP2 PUSH0 DUP8 DUP1 EXTCODESIZE ISZERO DUP1 ISZERO PUSH2 0x1209 JUMPI PUSH0 DUP1 REVERT JUMPDEST POP GAS CALL ISZERO DUP1 ISZERO PUSH2 0x121B JUMPI RETURNDATASIZE PUSH0 DUP1 RETURNDATACOPY RETURNDATASIZE PUSH0 REVERT JUMPDEST POP POP POP POP PUSH1 0x1 SWAP2 POP JUMPDEST POP SWAP2 SWAP1 POP JUMP JUMPDEST PUSH1 0x11 PUSH1 0x20 MSTORE DUP2 PUSH0 MSTORE PUSH1 0x40 PUSH0 KECCAK256 DUP2 DUP2 SLOAD DUP2 LT PUSH2 0x1243 JUMPI PUSH0 DUP1 REVERT JUMPDEST SWAP1 PUSH0 MSTORE PUSH1 0x20 PUSH0 KECCAK256 ADD PUSH0 SWAP2 POP SWAP2 POP POP SLOAD DUP2 JUMP JUMPDEST PUSH2 0x125D PUSH2 0xAC8A JUMP JUMPDEST PUSH0 DUP3 DUP2 MSTORE PUSH1 0x12 PUSH1 0x20 SWAP1 DUP2 MSTORE PUSH1 0x40 SWAP2 DUP3 SWAP1 KECCAK256 DUP3 MLOAD PUSH2 0x100 DUP2 ADD DUP5 MSTORE DUP2 SLOAD DUP2 MSTORE PUSH1 0x1 DUP3 ADD SLOAD PUSH1 0x1 PUSH1 0x1 PUSH1 0xA0 SHL SUB AND SWAP3 DUP2 ADD SWAP3 SWAP1 SWAP3 MSTORE PUSH1 0x2 DUP2 ADD DUP1 SLOAD SWAP3 SWAP4 SWAP2 SWAP3 SWAP2 DUP5 ADD SWAP2 PUSH2 0x12A7 SWAP1 PUSH2 0xCA68 JUMP JUMPDEST DUP1 PUSH1 0x1F ADD PUSH1 0x20 DUP1 SWAP2 DIV MUL PUSH1 0x20 ADD PUSH1 0x40 MLOAD SWAP1 DUP2 ADD PUSH1 0x40 MSTORE DUP1 SWAP3 SWAP2 SWAP1 DUP2 DUP2 MSTORE PUSH1 0x20 ADD DUP3 DUP1 SLOAD PUSH2 0x12D3 SWAP1 PUSH2 0xCA68 JUMP JUMPDEST DUP1 ISZERO PUSH2 0x131E JUMPI DUP1 PUSH1 0x1F LT PUSH2 0x12F5 JUMPI PUSH2 0x100 DUP1 DUP4 SLOAD DIV MUL DUP4 MSTORE SWAP2 PUSH1 0x20 ADD SWAP2 PUSH2 0x131E JUMP JUMPDEST DUP3 ADD SWAP2 SWAP1 PUSH0 MSTORE PUSH1 0x20 PUSH0 KECCAK256 SWAP1 JUMPDEST DUP2 SLOAD DUP2 MSTORE SWAP1 PUSH1 0x1 ADD SWAP1 PUSH1 0x20 ADD DUP1 DUP4 GT PUSH2 0x1301 JUMPI DUP3 SWAP1 SUB PUSH1 0x1F AND DUP3 ADD SWAP2 JUMPDEST POP POP POP POP POP DUP2 MSTORE PUSH1 0x20 ADD PUSH1 0x3 DUP3 ADD DUP1 SLOAD PUSH2 0x1337 SWAP1 PUSH2 0xCA68 JUMP JUMPDEST DUP1 PUSH1 0x1F ADD PUSH1 0x20 DUP1 SWAP2 DIV MUL PUSH1 0x20 ADD PUSH1 0x40 MLOAD SWAP1 DUP2 ADD PUSH1 0x40 MSTORE DUP1 SWAP3 SWAP2 SWAP1 DUP2 DUP2 MSTORE PUSH1 0x20 ADD DUP3 DUP1 SLOAD PUSH2 0x1363 SWAP1 PUSH2 0xCA68 JUMP JUMPDEST DUP1 ISZERO PUSH2 0x13AE JUMPI DUP1 PUSH1 0x1F LT PUSH2 0x1385 JUMPI PUSH2 0x100 DUP1 DUP4 SLOAD DIV MUL DUP4 MSTORE SWAP2 PUSH1 0x20 ADD SWAP2 PUSH2 0x13AE JUMP JUMPDEST DUP3 ADD SWAP2 SWAP1 PUSH0 MSTORE PUSH1 0x20 PUSH0 KECCAK256 SWAP1 JUMPDEST DUP2 SLOAD DUP2 MSTORE SWAP1 PUSH1 0x1 ADD SWAP1 PUSH1 0x20 ADD DUP1 DUP4 GT PUSH2 0x1391 JUMPI DUP3 SWAP1 SUB PUSH1 0x1F AND DUP3 ADD SWAP2 JUMPDEST POP POP POP SWAP2 DUP4 MSTORE POP POP PUSH1 0x4 DUP3 ADD SLOAD PUSH1 0xFF AND PUSH1 0x20 DUP3 ADD MSTORE PUSH1 0x5 DUP3 ADD SLOAD PUSH1 0x40 DUP3 ADD MSTORE PUSH1 0x6 DUP3 ADD SLOAD PUSH1 0x60 DUP3 ADD MSTORE PUSH1 0x7 SWAP1 SWAP2 ADD SLOAD PUSH1 0x80 SWAP1 SWAP2 ADD MSTORE SWAP3 SWAP2 POP POP JUMP JUMPDEST CALLER PUSH0 SWAP1 DUP2 MSTORE PUSH1 0x18 PUSH1 0x20 SWAP1 DUP2 MSTORE PUSH1 0x40 DUP1 DUP4 KECCAK256 DUP1 SLOAD DUP3 MLOAD DUP2 DUP6 MUL DUP2 ADD DUP6 ADD SWAP1 SWAP4 MSTORE DUP1 DUP4 MSTORE PUSH1 0x60 SWAP5 SWAP3 SWAP4 SWAP2 SWAP3 SWAP1 SWAP2 DUP5 ADD JUMPDEST DUP3 DUP3 LT ISZERO PUSH2 0x145A JUMPI DUP4 DUP3 SWAP1 PUSH0 MSTORE PUSH1 0x20 PUSH0 KECCAK256 SWAP1 PUSH1 0x2 MUL ADD PUSH1 0x40 MLOAD DUP1 PUSH1 0x40 ADD PUSH1 0x40 MSTORE SWAP1 DUP2 PUSH0 DUP3 ADD SLOAD DUP2 MSTORE PUSH1 0x20 ADD PUSH1 0x1 DUP3 ADD SLOAD DUP2 MSTORE POP POP DUP2 MSTORE PUSH1 0x20 ADD SWAP1 PUSH1 0x1 ADD SWAP1 PUSH2 0x1417 JUMP JUMPDEST POP POP POP POP SWAP1 POP SWAP1 JUMP JUMPDEST PUSH0 DUP2 DUP2 MSTORE PUSH1 0x15 PUSH1 0x20 MSTORE PUSH1 0x40 DUP2 KECCAK256 DUP1 SLOAD PUSH1 0x60 SWAP3 SWAP1 PUSH1 0x1 PUSH1 0x1 PUSH1 0x40 SHL SUB DUP2 GT ISZERO PUSH2 0x148D JUMPI PUSH2 0x148D PUSH2 0xB1A6 JUMP JUMPDEST PUSH1 0x40 MLOAD SWAP1 DUP1 DUP3 MSTORE DUP1 PUSH1 0x20 MUL PUSH1 0x20 ADD DUP3 ADD PUSH1 0x40 MSTORE DUP1 ISZERO PUSH2 0x14C6 JUMPI DUP2 PUSH1 0x20 ADD JUMPDEST PUSH2 0x14B3 PUSH2 0xAD0F JUMP JUMPDEST DUP2 MSTORE PUSH1 0x20 ADD SWAP1 PUSH1 0x1 SWAP1 SUB SWAP1 DUP2 PUSH2 0x14AB JUMPI SWAP1 POP JUMPDEST POP SWAP1 POP PUSH0 JUMPDEST DUP3 SLOAD DUP2 LT ISZERO PUSH2 0x10AD JUMPI PUSH1 0x14 PUSH0 DUP5 DUP4 DUP2 SLOAD DUP2 LT PUSH2 0x14E9 JUMPI PUSH2 0x14E9 PUSH2 0xCA54 JUMP JUMPDEST SWAP1 PUSH0 MSTORE PUSH1 0x20 PUSH0 KECCAK256 ADD SLOAD DUP2 MSTORE PUSH1 0x20 ADD SWAP1 DUP2 MSTORE PUSH1 0x20 ADD PUSH0 KECCAK256 PUSH1 0x40 MLOAD DUP1 PUSH1 0x60 ADD PUSH1 0x40 MSTORE SWAP1 DUP2 PUSH0 DUP3 ADD SLOAD DUP2 MSTORE PUSH1 0x20 ADD PUSH1 0x1 DUP3 ADD DUP1 SLOAD PUSH2 0x1523 SWAP1 PUSH2 0xCA68 JUMP JUMPDEST DUP1 PUSH1 0x1F ADD PUSH1 0x20 DUP1 SWAP2 DIV MUL PUSH1 0x20 ADD PUSH1 0x40 MLOAD SWAP1 DUP2 ADD PUSH1 0x40 MSTORE DUP1 SWAP3 SWAP2 SWAP1 DUP2 DUP2 MSTORE PUSH1 0x20 ADD DUP3 DUP1 SLOAD PUSH2 0x154F SWAP1 PUSH2 0xCA68 JUMP JUMPDEST DUP1 ISZERO PUSH2 0x159A JUMPI DUP1 PUSH1 0x1F LT PUSH2 0x1571 JUMPI PUSH2 0x100 DUP1 DUP4 SLOAD DIV MUL DUP4 MSTORE SWAP2 PUSH1 0x20 ADD SWAP2 PUSH2 0x159A JUMP JUMPDEST DUP3 ADD SWAP2 SWAP1 PUSH0 MSTORE PUSH1 0x20 PUSH0 KECCAK256 SWAP1 JUMPDEST DUP2 SLOAD DUP2 MSTORE SWAP1 PUSH1 0x1 ADD SWAP1 PUSH1 0x20 ADD DUP1 DUP4 GT PUSH2 0x157D JUMPI DUP3 SWAP1 SUB PUSH1 0x1F AND DUP3 ADD SWAP2 JUMPDEST POP POP POP POP POP DUP2 MSTORE PUSH1 0x20 ADD PUSH1 0x2 DUP3 ADD DUP1 SLOAD PUSH2 0x15B3 SWAP1 PUSH2 0xCA68 JUMP JUMPDEST DUP1 PUSH1 0x1F ADD PUSH1 0x20 DUP1 SWAP2 DIV MUL PUSH1 0x20 ADD PUSH1 0x40 MLOAD SWAP1 DUP2 ADD PUSH1 0x40 MSTORE DUP1 SWAP3 SWAP2 SWAP1 DUP2 DUP2 MSTORE PUSH1 0x20 ADD DUP3 DUP1 SLOAD PUSH2 0x15DF SWAP1 PUSH2 0xCA68 JUMP JUMPDEST DUP1 ISZERO PUSH2 0x162A JUMPI DUP1 PUSH1 0x1F LT PUSH2 0x1601 JUMPI PUSH2 0x100 DUP1 DUP4 SLOAD DIV MUL DUP4 MSTORE SWAP2 PUSH1 0x20 ADD SWAP2 PUSH2 0x162A JUMP JUMPDEST DUP3 ADD SWAP2 SWAP1 PUSH0 MSTORE PUSH1 0x20 PUSH0 KECCAK256 SWAP1 JUMPDEST DUP2 SLOAD DUP2 MSTORE SWAP1 PUSH1 0x1 ADD SWAP1 PUSH1 0x20 ADD DUP1 DUP4 GT PUSH2 0x160D JUMPI DUP3 SWAP1 SUB PUSH1 0x1F AND DUP3 ADD SWAP2 JUMPDEST POP POP POP POP POP DUP2 MSTORE POP POP DUP3 DUP3 DUP2 MLOAD DUP2 LT PUSH2 0x1645 JUMPI PUSH2 0x1645 PUSH2 0xCA54 JUMP JUMPDEST PUSH1 0x20 SWAP1 DUP2 MUL SWAP2 SWAP1 SWAP2 ADD ADD MSTORE PUSH1 0x1 ADD PUSH2 0x14CB JUMP JUMPDEST PUSH0 JUMPDEST DUP2 MLOAD DUP2 LT ISZERO PUSH2 0x168D JUMPI PUSH2 0x1685 DUP3 DUP3 DUP2 MLOAD DUP2 LT PUSH2 0x1678 JUMPI PUSH2 0x1678 PUSH2 0xCA54 JUMP JUMPDEST PUSH1 0x20 MUL PUSH1 0x20 ADD ADD MLOAD PUSH2 0x882C JUMP JUMPDEST PUSH1 0x1 ADD PUSH2 0x165A JUMP JUMPDEST POP POP JUMP JUMPDEST PUSH1 0x1 PUSH1 0x1 PUSH1 0xA0 SHL SUB DUP2 AND PUSH0 SWAP1 DUP2 MSTORE PUSH1 0xA PUSH1 0x20 MSTORE PUSH1 0x40 SWAP1 KECCAK256 SLOAD PUSH1 0x60 SWAP1 DUP1 PUSH1 0x1 PUSH1 0x1 PUSH1 0x40 SHL SUB DUP2 GT ISZERO PUSH2 0x16C4 JUMPI PUSH2 0x16C4 PUSH2 0xB1A6 JUMP JUMPDEST PUSH1 0x40 MLOAD SWAP1 DUP1 DUP3 MSTORE DUP1 PUSH1 0x20 MUL PUSH1 0x20 ADD DUP3 ADD PUSH1 0x40 MSTORE DUP1 ISZERO PUSH2 0x16FD JUMPI DUP2 PUSH1 0x20 ADD JUMPDEST PUSH2 0x16EA PUSH2 0xAD2F JUMP JUMPDEST DUP2 MSTORE PUSH1 0x20 ADD SWAP1 PUSH1 0x1 SWAP1 SUB SWAP1 DUP2 PUSH2 0x16E2 JUMPI SWAP1 POP JUMPDEST POP SWAP2 POP PUSH0 JUMPDEST DUP2 DUP2 LT ISZERO PUSH2 0x176B JUMPI PUSH1 0x1 PUSH1 0x1 PUSH1 0xA0 SHL SUB DUP5 AND PUSH0 SWAP1 DUP2 MSTORE PUSH1 0xA PUSH1 0x20 MSTORE PUSH1 0x40 SWAP1 KECCAK256 DUP1 SLOAD PUSH2 0x1746 SWAP2 SWAP1 DUP4 SWAP1 DUP2 LT PUSH2 0x1738 JUMPI PUSH2 0x1738 PUSH2 0xCA54 JUMP JUMPDEST SWAP1 PUSH0 MSTORE PUSH1 0x20 PUSH0 KECCAK256 ADD SLOAD PUSH2 0x504F JUMP JUMPDEST DUP4 DUP3 DUP2 MLOAD DUP2 LT PUSH2 0x1758 JUMPI PUSH2 0x1758 PUSH2 0xCA54 JUMP JUMPDEST PUSH1 0x20 SWAP1 DUP2 MUL SWAP2 SWAP1 SWAP2 ADD ADD MSTORE PUSH1 0x1 ADD PUSH2 0x1702 JUMP JUMPDEST POP POP SWAP2 SWAP1 POP JUMP JUMPDEST PUSH0 DUP5 DUP2 MSTORE PUSH1 0x6 PUSH1 0x20 SWAP1 DUP2 MSTORE PUSH1 0x40 DUP1 DUP4 KECCAK256 DUP7 DUP5 MSTORE DUP3 MSTORE SWAP2 DUP3 SWAP1 KECCAK256 SLOAD DUP3 MLOAD DUP1 DUP5 ADD SWAP1 SWAP4 MSTORE PUSH1 0x11 DUP4 MSTORE PUSH17 0x125B9D985B1A59081D985C9A585B9D1251 PUSH1 0x7A SHL SWAP2 DUP4 ADD SWAP2 SWAP1 SWAP2 MSTORE ISZERO ISZERO SWAP1 PUSH2 0x17C3 SWAP1 PUSH1 0x33 SWAP1 PUSH2 0x184A JUMP JUMPDEST SWAP1 PUSH2 0x17E1 JUMPI PUSH1 0x40 MLOAD PUSH3 0x461BCD PUSH1 0xE5 SHL DUP2 MSTORE PUSH1 0x4 ADD PUSH2 0x10E0 SWAP2 SWAP1 PUSH2 0xB975 JUMP JUMPDEST POP PUSH0 DUP5 DUP2 MSTORE PUSH1 0x2 PUSH1 0x20 DUP2 DUP2 MSTORE PUSH1 0x40 DUP1 DUP5 KECCAK256 TIMESTAMP PUSH1 0x19 DUP3 ADD SSTORE PUSH1 0x6 DUP4 MSTORE DUP2 DUP6 KECCAK256 DUP9 DUP7 MSTORE DUP4 MSTORE SWAP1 DUP5 KECCAK256 PUSH1 0x5 ADD DUP7 SWAP1 SSTORE DUP8 DUP5 MSTORE SWAP2 SWAP1 MSTORE PUSH1 0x17 ADD DUP1 SLOAD DUP4 SWAP3 SWAP1 PUSH2 0x1826 SWAP1 DUP5 SWAP1 PUSH2 0xCB31 JUMP JUMPDEST SWAP1 SWAP2 SSTORE POP POP POP POP POP POP JUMP JUMPDEST PUSH1 0x15 PUSH1 0x20 MSTORE DUP2 PUSH0 MSTORE PUSH1 0x40 PUSH0 KECCAK256 DUP2 DUP2 SLOAD DUP2 LT PUSH2 0x1243 JUMPI PUSH0 DUP1 REVERT JUMPDEST PUSH1 0x60 PUSH0 PUSH2 0x1856 DUP5 PUSH2 0xA103 JUMP JUMPDEST SWAP1 POP DUP1 DUP4 PUSH1 0x40 MLOAD PUSH1 0x20 ADD PUSH2 0x186B SWAP3 SWAP2 SWAP1 PUSH2 0xCB5B JUMP JUMPDEST PUSH1 0x40 MLOAD PUSH1 0x20 DUP2 DUP4 SUB SUB DUP2 MSTORE SWAP1 PUSH1 0x40 MSTORE SWAP2 POP POP SWAP3 SWAP2 POP POP JUMP JUMPDEST PUSH1 0x2 PUSH1 0x20 MSTORE PUSH0 SWAP1 DUP2 MSTORE PUSH1 0x40 SWAP1 DUP2 SWAP1 KECCAK256 DUP1 SLOAD DUP3 MLOAD PUSH2 0x300 DUP2 ADD SWAP1 SWAP4 MSTORE PUSH1 0x1 DUP3 ADD DUP1 SLOAD SWAP2 SWAP4 SWAP2 DUP3 SWAP1 DUP3 SWAP1 PUSH2 0x18B4 SWAP1 PUSH2 0xCA68 JUMP JUMPDEST DUP1 PUSH1 0x1F ADD PUSH1 0x20 DUP1 SWAP2 DIV MUL PUSH1 0x20 ADD PUSH1 0x40 MLOAD SWAP1 DUP2 ADD PUSH1 0x40 MSTORE DUP1 SWAP3 SWAP2 SWAP1 DUP2 DUP2 MSTORE PUSH1 0x20 ADD DUP3 DUP1 SLOAD PUSH2 0x18E0 SWAP1 PUSH2 0xCA68 JUMP JUMPDEST DUP1 ISZERO PUSH2 0x192B JUMPI DUP1 PUSH1 0x1F LT PUSH2 0x1902 JUMPI PUSH2 0x100 DUP1 DUP4 SLOAD DIV MUL DUP4 MSTORE SWAP2 PUSH1 0x20 ADD SWAP2 PUSH2 0x192B JUMP JUMPDEST DUP3 ADD SWAP2 SWAP1 PUSH0 MSTORE PUSH1 0x20 PUSH0 KECCAK256 SWAP1 JUMPDEST DUP2 SLOAD DUP2 MSTORE SWAP1 PUSH1 0x1 ADD SWAP1 PUSH1 0x20 ADD DUP1 DUP4 GT PUSH2 0x190E JUMPI DUP3 SWAP1 SUB PUSH1 0x1F AND DUP3 ADD SWAP2 JUMPDEST POP POP POP POP POP DUP2 MSTORE PUSH1 0x20 ADD PUSH1 0x1 DUP3 ADD SLOAD DUP2 MSTORE PUSH1 0x20 ADD PUSH1 0x2 DUP3 ADD DUP1 SLOAD PUSH2 0x194E SWAP1 PUSH2 0xCA68 JUMP JUMPDEST DUP1 PUSH1 0x1F ADD PUSH1 0x20 DUP1 SWAP2 DIV MUL PUSH1 0x20 ADD PUSH1 0x40 MLOAD SWAP1 DUP2 ADD PUSH1 0x40 MSTORE DUP1 SWAP3 SWAP2 SWAP1 DUP2 DUP2 MSTORE PUSH1 0x20 ADD DUP3 DUP1 SLOAD PUSH2 0x197A SWAP1 PUSH2 0xCA68 JUMP JUMPDEST DUP1 ISZERO PUSH2 0x19C5 JUMPI DUP1 PUSH1 0x1F LT PUSH2 0x199C JUMPI PUSH2 0x100 DUP1 DUP4 SLOAD DIV MUL DUP4 MSTORE SWAP2 PUSH1 0x20 ADD SWAP2 PUSH2 0x19C5 JUMP JUMPDEST DUP3 ADD SWAP2 SWAP1 PUSH0 MSTORE PUSH1 0x20 PUSH0 KECCAK256 SWAP1 JUMPDEST DUP2 SLOAD DUP2 MSTORE SWAP1 PUSH1 0x1 ADD SWAP1 PUSH1 0x20 ADD DUP1 DUP4 GT PUSH2 0x19A8 JUMPI DUP3 SWAP1 SUB PUSH1 0x1F AND DUP3 ADD SWAP2 JUMPDEST POP POP POP POP POP DUP2 MSTORE PUSH1 0x20 ADD PUSH1 0x3 DUP3 ADD SLOAD DUP2 MSTORE PUSH1 0x20 ADD PUSH1 0x4 DUP3 ADD SLOAD DUP2 MSTORE PUSH1 0x20 ADD PUSH1 0x5 DUP3 ADD SLOAD DUP2 MSTORE PUSH1 0x20 ADD PUSH1 0x6 DUP3 ADD SLOAD DUP2 MSTORE PUSH1 0x20 ADD PUSH1 0x7 DUP3 ADD DUP1 SLOAD DUP1 PUSH1 0x20 MUL PUSH1 0x20 ADD PUSH1 0x40 MLOAD SWAP1 DUP2 ADD PUSH1 0x40 MSTORE DUP1 SWAP3 SWAP2 SWAP1 DUP2 DUP2 MSTORE PUSH1 0x20 ADD DUP3 DUP1 SLOAD DUP1 ISZERO PUSH2 0x1A43 JUMPI PUSH1 0x20 MUL DUP3 ADD SWAP2 SWAP1 PUSH0 MSTORE PUSH1 0x20 PUSH0 KECCAK256 SWAP1 JUMPDEST DUP2 SLOAD DUP2 MSTORE PUSH1 0x20 ADD SWAP1 PUSH1 0x1 ADD SWAP1 DUP1 DUP4 GT PUSH2 0x1A2F JUMPI JUMPDEST POP POP POP POP POP DUP2 MSTORE PUSH1 0x20 ADD PUSH1 0x8 DUP3 ADD DUP1 SLOAD DUP1 PUSH1 0x20 MUL PUSH1 0x20 ADD PUSH1 0x40 MLOAD SWAP1 DUP2 ADD PUSH1 0x40 MSTORE DUP1 SWAP3 SWAP2 SWAP1 DUP2 DUP2 MSTORE PUSH1 0x20 ADD PUSH0 SWAP1 JUMPDEST DUP3 DUP3 LT ISZERO PUSH2 0x1B18 JUMPI DUP4 DUP3 SWAP1 PUSH0 MSTORE PUSH1 0x20 PUSH0 KECCAK256 ADD DUP1 SLOAD PUSH2 0x1A8D SWAP1 PUSH2 0xCA68 JUMP JUMPDEST DUP1 PUSH1 0x1F ADD PUSH1 0x20 DUP1 SWAP2 DIV MUL PUSH1 0x20 ADD PUSH1 0x40 MLOAD SWAP1 DUP2 ADD PUSH1 0x40 MSTORE DUP1 SWAP3 SWAP2 SWAP1 DUP2 DUP2 MSTORE PUSH1 0x20 ADD DUP3 DUP1 SLOAD PUSH2 0x1AB9 SWAP1 PUSH2 0xCA68 JUMP JUMPDEST DUP1 ISZERO PUSH2 0x1B04 JUMPI DUP1 PUSH1 0x1F LT PUSH2 0x1ADB JUMPI PUSH2 0x100 DUP1 DUP4 SLOAD DIV MUL DUP4 MSTORE SWAP2 PUSH1 0x20 ADD SWAP2 PUSH2 0x1B04 JUMP JUMPDEST DUP3 ADD SWAP2 SWAP1 PUSH0 MSTORE PUSH1 0x20 PUSH0 KECCAK256 SWAP1 JUMPDEST DUP2 SLOAD DUP2 MSTORE SWAP1 PUSH1 0x1 ADD SWAP1 PUSH1 0x20 ADD DUP1 DUP4 GT PUSH2 0x1AE7 JUMPI DUP3 SWAP1 SUB PUSH1 0x1F AND DUP3 ADD SWAP2 JUMPDEST POP POP POP POP POP DUP2 MSTORE PUSH1 0x20 ADD SWAP1 PUSH1 0x1 ADD SWAP1 PUSH2 0x1A70 JUMP JUMPDEST POP POP POP POP DUP2 MSTORE PUSH1 0x20 ADD PUSH1 0x9 DUP3 ADD SLOAD DUP2 MSTORE PUSH1 0x20 ADD PUSH1 0xA DUP3 ADD SLOAD DUP2 MSTORE PUSH1 0x20 ADD PUSH1 0xB DUP3 ADD DUP1 SLOAD DUP1 PUSH1 0x20 MUL PUSH1 0x20 ADD PUSH1 0x40 MLOAD SWAP1 DUP2 ADD PUSH1 0x40 MSTORE DUP1 SWAP3 SWAP2 SWAP1 DUP2 DUP2 MSTORE PUSH1 0x20 ADD PUSH0 SWAP1 JUMPDEST DUP3 DUP3 LT ISZERO PUSH2 0x1C00 JUMPI DUP4 DUP3 SWAP1 PUSH0 MSTORE PUSH1 0x20 PUSH0 KECCAK256 ADD DUP1 SLOAD PUSH2 0x1B75 SWAP1 PUSH2 0xCA68 JUMP JUMPDEST DUP1 PUSH1 0x1F ADD PUSH1 0x20 DUP1 SWAP2 DIV MUL PUSH1 0x20 ADD PUSH1 0x40 MLOAD SWAP1 DUP2 ADD PUSH1 0x40 MSTORE DUP1 SWAP3 SWAP2 SWAP1 DUP2 DUP2 MSTORE PUSH1 0x20 ADD DUP3 DUP1 SLOAD PUSH2 0x1BA1 SWAP1 PUSH2 0xCA68 JUMP JUMPDEST DUP1 ISZERO PUSH2 0x1BEC JUMPI DUP1 PUSH1 0x1F LT PUSH2 0x1BC3 JUMPI PUSH2 0x100 DUP1 DUP4 SLOAD DIV MUL DUP4 MSTORE SWAP2 PUSH1 0x20 ADD SWAP2 PUSH2 0x1BEC JUMP JUMPDEST DUP3 ADD SWAP2 SWAP1 PUSH0 MSTORE PUSH1 0x20 PUSH0 KECCAK256 SWAP1 JUMPDEST DUP2 SLOAD DUP2 MSTORE SWAP1 PUSH1 0x1 ADD SWAP1 PUSH1 0x20 ADD DUP1 DUP4 GT PUSH2 0x1BCF JUMPI DUP3 SWAP1 SUB PUSH1 0x1F AND DUP3 ADD SWAP2 JUMPDEST POP POP POP POP POP DUP2 MSTORE PUSH1 0x20 ADD SWAP1 PUSH1 0x1 ADD SWAP1 PUSH2 0x1B58 JUMP JUMPDEST POP POP POP SWAP1 DUP3 MSTORE POP PUSH1 0xC DUP3 ADD SLOAD PUSH1 0x1 PUSH1 0x1 PUSH1 0xA0 SHL SUB AND PUSH1 0x20 DUP3 ADD MSTORE PUSH1 0xD DUP3 ADD DUP1 SLOAD PUSH1 0x40 SWAP1 SWAP3 ADD SWAP2 PUSH2 0x1C2F SWAP1 PUSH2 0xCA68 JUMP JUMPDEST DUP1 PUSH1 0x1F ADD PUSH1 0x20 DUP1 SWAP2 DIV MUL PUSH1 0x20 ADD PUSH1 0x40 MLOAD SWAP1 DUP2 ADD PUSH1 0x40 MSTORE DUP1 SWAP3 SWAP2 SWAP1 DUP2 DUP2 MSTORE PUSH1 0x20 ADD DUP3 DUP1 SLOAD PUSH2 0x1C5B SWAP1 PUSH2 0xCA68 JUMP JUMPDEST DUP1 ISZERO PUSH2 0x1CA6 JUMPI DUP1 PUSH1 0x1F LT PUSH2 0x1C7D JUMPI PUSH2 0x100 DUP1 DUP4 SLOAD DIV MUL DUP4 MSTORE SWAP2 PUSH1 0x20 ADD SWAP2 PUSH2 0x1CA6 JUMP JUMPDEST DUP3 ADD SWAP2 SWAP1 PUSH0 MSTORE PUSH1 0x20 PUSH0 KECCAK256 SWAP1 JUMPDEST DUP2 SLOAD DUP2 MSTORE SWAP1 PUSH1 0x1 ADD SWAP1 PUSH1 0x20 ADD DUP1 DUP4 GT PUSH2 0x1C89 JUMPI DUP3 SWAP1 SUB PUSH1 0x1F AND DUP3 ADD SWAP2 JUMPDEST POP POP POP POP POP DUP2 MSTORE PUSH1 0x20 ADD PUSH1 0xE DUP3 ADD DUP1 SLOAD PUSH2 0x1CBF SWAP1 PUSH2 0xCA68 JUMP JUMPDEST DUP1 PUSH1 0x1F ADD PUSH1 0x20 DUP1 SWAP2 DIV MUL PUSH1 0x20 ADD PUSH1 0x40 MLOAD SWAP1 DUP2 ADD PUSH1 0x40 MSTORE DUP1 SWAP3 SWAP2 SWAP1 DUP2 DUP2 MSTORE PUSH1 0x20 ADD DUP3 DUP1 SLOAD PUSH2 0x1CEB SWAP1 PUSH2 0xCA68 JUMP JUMPDEST DUP1 ISZERO PUSH2 0x1D36 JUMPI DUP1 PUSH1 0x1F LT PUSH2 0x1D0D JUMPI PUSH2 0x100 DUP1 DUP4 SLOAD DIV MUL DUP4 MSTORE SWAP2 PUSH1 0x20 ADD SWAP2 PUSH2 0x1D36 JUMP JUMPDEST DUP3 ADD SWAP2 SWAP1 PUSH0 MSTORE PUSH1 0x20 PUSH0 KECCAK256 SWAP1 JUMPDEST DUP2 SLOAD DUP2 MSTORE SWAP1 PUSH1 0x1 ADD SWAP1 PUSH1 0x20 ADD DUP1 DUP4 GT PUSH2 0x1D19 JUMPI DUP3 SWAP1 SUB PUSH1 0x1F AND DUP3 ADD SWAP2 JUMPDEST POP POP POP SWAP2 DUP4 MSTORE POP POP PUSH1 0xF DUP3 ADD SLOAD PUSH1 0xFF AND ISZERO ISZERO PUSH1 0x20 DUP1 DUP4 ADD SWAP2 SWAP1 SWAP2 MSTORE PUSH1 0x10 DUP4 ADD DUP1 SLOAD PUSH1 0x40 DUP1 MLOAD DUP3 DUP6 MUL DUP2 ADD DUP6 ADD DUP3 MSTORE DUP3 DUP2 MSTORE SWAP5 ADD SWAP4 SWAP3 PUSH0 SWAP1 DUP5 ADD JUMPDEST DUP3 DUP3 LT ISZERO PUSH2 0x1E18 JUMPI DUP4 DUP3 SWAP1 PUSH0 MSTORE PUSH1 0x20 PUSH0 KECCAK256 ADD DUP1 SLOAD PUSH2 0x1D8D SWAP1 PUSH2 0xCA68 JUMP JUMPDEST DUP1 PUSH1 0x1F ADD PUSH1 0x20 DUP1 SWAP2 DIV MUL PUSH1 0x20 ADD PUSH1 0x40 MLOAD SWAP1 DUP2 ADD PUSH1 0x40 MSTORE DUP1 SWAP3 SWAP2 SWAP1 DUP2 DUP2 MSTORE PUSH1 0x20 ADD DUP3 DUP1 SLOAD PUSH2 0x1DB9 SWAP1 PUSH2 0xCA68 JUMP JUMPDEST DUP1 ISZERO PUSH2 0x1E04 JUMPI DUP1 PUSH1 0x1F LT PUSH2 0x1DDB JUMPI PUSH2 0x100 DUP1 DUP4 SLOAD DIV MUL DUP4 MSTORE SWAP2 PUSH1 0x20 ADD SWAP2 PUSH2 0x1E04 JUMP JUMPDEST DUP3 ADD SWAP2 SWAP1 PUSH0 MSTORE PUSH1 0x20 PUSH0 KECCAK256 SWAP1 JUMPDEST DUP2 SLOAD DUP2 MSTORE SWAP1 PUSH1 0x1 ADD SWAP1 PUSH1 0x20 ADD DUP1 DUP4 GT PUSH2 0x1DE7 JUMPI DUP3 SWAP1 SUB PUSH1 0x1F AND DUP3 ADD SWAP2 JUMPDEST POP POP POP POP POP DUP2 MSTORE PUSH1 0x20 ADD SWAP1 PUSH1 0x1 ADD SWAP1 PUSH2 0x1D70 JUMP JUMPDEST POP POP POP POP DUP2 MSTORE PUSH1 0x20 ADD PUSH1 0x11 DUP3 ADD DUP1 SLOAD PUSH2 0x1E30 SWAP1 PUSH2 0xCA68 JUMP JUMPDEST DUP1 PUSH1 0x1F ADD PUSH1 0x20 DUP1 SWAP2 DIV MUL PUSH1 0x20 ADD PUSH1 0x40 MLOAD SWAP1 DUP2 ADD PUSH1 0x40 MSTORE DUP1 SWAP3 SWAP2 SWAP1 DUP2 DUP2 MSTORE PUSH1 0x20 ADD DUP3 DUP1 SLOAD PUSH2 0x1E5C SWAP1 PUSH2 0xCA68 JUMP JUMPDEST DUP1 ISZERO PUSH2 0x1EA7 JUMPI DUP1 PUSH1 0x1F LT PUSH2 0x1E7E JUMPI PUSH2 0x100 DUP1 DUP4 SLOAD DIV MUL DUP4 MSTORE SWAP2 PUSH1 0x20 ADD SWAP2 PUSH2 0x1EA7 JUMP JUMPDEST DUP3 ADD SWAP2 SWAP1 PUSH0 MSTORE PUSH1 0x20 PUSH0 KECCAK256 SWAP1 JUMPDEST DUP2 SLOAD DUP2 MSTORE SWAP1 PUSH1 0x1 ADD SWAP1 PUSH1 0x20 ADD DUP1 DUP4 GT PUSH2 0x1E8A JUMPI DUP3 SWAP1 SUB PUSH1 0x1F AND DUP3 ADD SWAP2 JUMPDEST POP POP POP SWAP2 DUP4 MSTORE POP POP PUSH1 0x12 DUP3 ADD SLOAD PUSH1 0x20 DUP3 ADD MSTORE PUSH1 0x13 DUP3 ADD SLOAD PUSH1 0x40 DUP3 ADD MSTORE PUSH1 0x14 DUP3 ADD SLOAD PUSH1 0x60 DUP3 ADD MSTORE PUSH1 0x15 DUP3 ADD SLOAD PUSH1 0xFF DUP1 DUP3 AND ISZERO ISZERO PUSH1 0x80 DUP5 ADD MSTORE PUSH2 0x100 SWAP1 SWAP2 DIV AND ISZERO ISZERO PUSH1 0xA0 DUP3 ADD MSTORE PUSH1 0x16 SWAP1 SWAP2 ADD SLOAD PUSH1 0xC0 SWAP1 SWAP2 ADD MSTORE PUSH1 0x18 DUP3 ADD SLOAD PUSH1 0x19 SWAP1 SWAP3 ADD SLOAD SWAP1 SWAP2 SWAP1 DUP5 JUMP JUMPDEST PUSH1 0xA PUSH1 0x20 MSTORE DUP2 PUSH0 MSTORE PUSH1 0x40 PUSH0 KECCAK256 DUP2 DUP2 SLOAD DUP2 LT PUSH2 0x1243 JUMPI PUSH0 DUP1 REVERT JUMPDEST PUSH1 0x1F SLOAD PUSH1 0x40 MLOAD PUSH4 0x656952AD PUSH1 0xE0 SHL DUP2 MSTORE PUSH0 SWAP2 PUSH1 0x1 PUSH1 0x1 PUSH1 0xA0 SHL SUB AND SWAP1 PUSH4 0x656952AD SWAP1 PUSH2 0x1F52 SWAP1 CALLER SWAP1 PUSH1 0x4 ADD PUSH2 0xBF40 JUMP JUMPDEST PUSH1 0x20 PUSH1 0x40 MLOAD DUP1 DUP4 SUB DUP2 DUP7 GAS STATICCALL ISZERO DUP1 ISZERO PUSH2 0x1F6D JUMPI RETURNDATASIZE PUSH0 DUP1 RETURNDATACOPY RETURNDATASIZE PUSH0 REVERT JUMPDEST POP POP POP POP PUSH1 0x40 MLOAD RETURNDATASIZE PUSH1 0x1F NOT PUSH1 0x1F DUP3 ADD AND DUP3 ADD DUP1 PUSH1 0x40 MSTORE POP DUP2 ADD SWAP1 PUSH2 0x1F91 SWAP2 SWAP1 PUSH2 0xCBD9 JUMP JUMPDEST DUP1 PUSH2 0x2006 JUMPI POP PUSH1 0x1F SLOAD PUSH1 0x40 MLOAD PUSH4 0x59D32027 PUSH1 0xE1 SHL DUP2 MSTORE PUSH1 0x1 PUSH1 0x1 PUSH1 0xA0 SHL SUB SWAP1 SWAP2 AND SWAP1 PUSH4 0xB3A6404E SWAP1 PUSH2 0x1FC7 SWAP1 CALLER SWAP1 PUSH1 0x4 ADD PUSH2 0xBF40 JUMP JUMPDEST PUSH1 0x20 PUSH1 0x40 MLOAD DUP1 DUP4 SUB DUP2 DUP7 GAS STATICCALL ISZERO DUP1 ISZERO PUSH2 0x1FE2 JUMPI RETURNDATASIZE PUSH0 DUP1 RETURNDATACOPY RETURNDATASIZE PUSH0 REVERT JUMPDEST POP POP POP POP PUSH1 0x40 MLOAD RETURNDATASIZE PUSH1 0x1F NOT PUSH1 0x1F DUP3 ADD AND DUP3 ADD DUP1 PUSH1 0x40 MSTORE POP DUP2 ADD SWAP1 PUSH2 0x2006 SWAP2 SWAP1 PUSH2 0xCBD9 JUMP JUMPDEST PUSH2 0x2033 PUSH1 0x37 PUSH1 0x40 MLOAD DUP1 PUSH1 0x40 ADD PUSH1 0x40 MSTORE DUP1 PUSH1 0x1B DUP2 MSTORE PUSH1 0x20 ADD PUSH0 DUP1 MLOAD PUSH1 0x20 PUSH2 0xD30A DUP4 CODECOPY DUP2 MLOAD SWAP2 MSTORE DUP2 MSTORE POP PUSH2 0x184A JUMP JUMPDEST SWAP1 PUSH2 0x2051 JUMPI PUSH1 0x40 MLOAD PUSH3 0x461BCD PUSH1 0xE5 SHL DUP2 MSTORE PUSH1 0x4 ADD PUSH2 0x10E0 SWAP2 SWAP1 PUSH2 0xB975 JUMP JUMPDEST POP PUSH1 0x1A DUP1 SLOAD SWAP1 PUSH0 PUSH2 0x2061 DUP4 PUSH2 0xCBF4 JUMP JUMPDEST SWAP2 SWAP1 POP SSTORE POP PUSH0 PUSH8 0xDE0B6B3A7640000 DUP5 PUSH1 0x60 ADD MLOAD PUSH2 0x207F SWAP2 SWAP1 PUSH2 0xCC0C JUMP JUMPDEST GT DUP1 ISZERO PUSH2 0x20A2 JUMPI POP PUSH0 PUSH8 0xDE0B6B3A7640000 DUP5 PUSH1 0x80 ADD MLOAD PUSH2 0x20A0 SWAP2 SWAP1 PUSH2 0xCC0C JUMP JUMPDEST GT JUMPDEST DUP1 ISZERO PUSH2 0x20C4 JUMPI POP PUSH0 PUSH8 0xDE0B6B3A7640000 DUP5 PUSH1 0xA0 ADD MLOAD PUSH2 0x20C2 SWAP2 SWAP1 PUSH2 0xCC0C JUMP JUMPDEST GT JUMPDEST PUSH2 0x2107 JUMPI PUSH1 0x40 MLOAD PUSH3 0x461BCD PUSH1 0xE5 SHL DUP2 MSTORE PUSH1 0x20 PUSH1 0x4 DUP3 ADD MSTORE PUSH1 0x14 PUSH1 0x24 DUP3 ADD MSTORE PUSH20 0xE0E4D2C6CA40DCDEE840C4D2CE40CADCDEEACED PUSH1 0x63 SHL PUSH1 0x44 DUP3 ADD MSTORE PUSH1 0x64 ADD PUSH2 0x10E0 JUMP JUMPDEST PUSH1 0xB PUSH0 DUP5 PUSH1 0x20 ADD MLOAD DUP2 MSTORE PUSH1 0x20 ADD SWAP1 DUP2 MSTORE PUSH1 0x20 ADD PUSH0 KECCAK256 PUSH0 ADD SLOAD PUSH0 EQ ISZERO PUSH2 0x2157 PUSH1 0x2 PUSH1 0x40 MLOAD DUP1 PUSH1 0x40 ADD PUSH1 0x40 MSTORE DUP1 PUSH1 0x12 DUP2 MSTORE PUSH1 0x20 ADD PUSH18 0x10D85D1959DBDC9E481B9BDD08199BDD5B99 PUSH1 0x72 SHL DUP2 MSTORE POP PUSH2 0x184A JUMP JUMPDEST SWAP1 PUSH2 0x2175 JUMPI PUSH1 0x40 MLOAD PUSH3 0x461BCD PUSH1 0xE5 SHL DUP2 MSTORE PUSH1 0x4 ADD PUSH2 0x10E0 SWAP2 SWAP1 PUSH2 0xB975 JUMP JUMPDEST POP PUSH1 0x1F SLOAD PUSH2 0x180 DUP5 ADD MLOAD PUSH1 0x40 MLOAD PUSH4 0x59D32027 PUSH1 0xE1 SHL DUP2 MSTORE PUSH1 0x1 PUSH1 0x1 PUSH1 0xA0 SHL SUB SWAP1 SWAP3 AND SWAP2 PUSH4 0xB3A6404E SWAP2 PUSH2 0x21AA SWAP2 PUSH1 0x4 ADD PUSH2 0xBF40 JUMP JUMPDEST PUSH1 0x20 PUSH1 0x40 MLOAD DUP1 DUP4 SUB DUP2 DUP7 GAS STATICCALL ISZERO DUP1 ISZERO PUSH2 0x21C5 JUMPI RETURNDATASIZE PUSH0 DUP1 RETURNDATACOPY RETURNDATASIZE PUSH0 REVERT JUMPDEST POP POP POP POP PUSH1 0x40 MLOAD RETURNDATASIZE PUSH1 0x1F NOT PUSH1 0x1F DUP3 ADD AND DUP3 ADD DUP1 PUSH1 0x40 MSTORE POP DUP2 ADD SWAP1 PUSH2 0x21E9 SWAP2 SWAP1 PUSH2 0xCBD9 JUMP JUMPDEST PUSH2 0x2221 PUSH1 0x2C PUSH1 0x40 MLOAD DUP1 PUSH1 0x40 ADD PUSH1 0x40 MSTORE DUP1 PUSH1 0x15 DUP2 MSTORE PUSH1 0x20 ADD PUSH21 0x2AB9B2B91036BAB9BA103132903932BA30B4B632B9 PUSH1 0x59 SHL DUP2 MSTORE POP PUSH2 0x184A JUMP JUMPDEST SWAP1 PUSH2 0x223F JUMPI PUSH1 0x40 MLOAD PUSH3 0x461BCD PUSH1 0xE5 SHL DUP2 MSTORE PUSH1 0x4 ADD PUSH2 0x10E0 SWAP2 SWAP1 PUSH2 0xB975 JUMP JUMPDEST POP PUSH0 DUP3 MLOAD GT PUSH2 0x227E PUSH1 0x2C PUSH1 0x40 MLOAD DUP1 PUSH1 0x40 ADD PUSH1 0x40 MSTORE DUP1 PUSH1 0x17 DUP2 MSTORE PUSH1 0x20 ADD PUSH23 0x92DCECC2D8D2C840ECC2E4D2C2DCE8E640D8CADCCEE8D PUSH1 0x4B SHL DUP2 MSTORE POP PUSH2 0x184A JUMP JUMPDEST SWAP1 PUSH2 0x229C JUMPI PUSH1 0x40 MLOAD PUSH3 0x461BCD PUSH1 0xE5 SHL DUP2 MSTORE PUSH1 0x4 ADD PUSH2 0x10E0 SWAP2 SWAP1 PUSH2 0xB975 JUMP JUMPDEST POP PUSH0 JUMPDEST DUP3 MLOAD DUP2 LT ISZERO PUSH2 0x23F9 JUMPI PUSH2 0x339 PUSH1 0x82 DUP5 DUP4 DUP2 MLOAD DUP2 LT PUSH2 0x22BF JUMPI PUSH2 0x22BF PUSH2 0xCA54 JUMP JUMPDEST PUSH1 0x20 MUL PUSH1 0x20 ADD ADD MLOAD PUSH1 0x40 ADD MLOAD PUSH1 0x40 ADD MLOAD PUSH2 0xC350 PUSH2 0x22DC SWAP2 SWAP1 PUSH2 0xCC2B JUMP JUMPDEST PUSH2 0x22E6 SWAP2 SWAP1 PUSH2 0xCC0C JUMP JUMPDEST PUSH2 0x22F0 SWAP2 SWAP1 PUSH2 0xCC0C JUMP JUMPDEST DUP4 DUP3 DUP2 MLOAD DUP2 LT PUSH2 0x2302 JUMPI PUSH2 0x2302 PUSH2 0xCA54 JUMP JUMPDEST PUSH1 0x20 MUL PUSH1 0x20 ADD ADD MLOAD PUSH1 0x40 ADD MLOAD PUSH1 0x60 ADD MLOAD GT ISZERO PUSH2 0x2341 PUSH1 0x2A PUSH1 0x40 MLOAD DUP1 PUSH1 0x40 ADD PUSH1 0x40 MSTORE DUP1 PUSH1 0x1F DUP2 MSTORE PUSH1 0x20 ADD PUSH0 DUP1 MLOAD PUSH1 0x20 PUSH2 0xD36B DUP4 CODECOPY DUP2 MLOAD SWAP2 MSTORE DUP2 MSTORE POP PUSH2 0x184A JUMP JUMPDEST SWAP1 PUSH2 0x235F JUMPI PUSH1 0x40 MLOAD PUSH3 0x461BCD PUSH1 0xE5 SHL DUP2 MSTORE PUSH1 0x4 ADD PUSH2 0x10E0 SWAP2 SWAP1 PUSH2 0xB975 JUMP JUMPDEST POP DUP3 DUP2 DUP2 MLOAD DUP2 LT PUSH2 0x2372 JUMPI PUSH2 0x2372 PUSH2 0xCA54 JUMP JUMPDEST PUSH1 0x20 MUL PUSH1 0x20 ADD ADD MLOAD PUSH1 0x40 ADD MLOAD PUSH1 0x40 ADD MLOAD DUP4 DUP3 DUP2 MLOAD DUP2 LT PUSH2 0x2394 JUMPI PUSH2 0x2394 PUSH2 0xCA54 JUMP JUMPDEST PUSH1 0x20 MUL PUSH1 0x20 ADD ADD MLOAD PUSH1 0x40 ADD MLOAD PUSH1 0x20 ADD MLOAD GT PUSH2 0x23D2 PUSH1 0x25 PUSH1 0x40 MLOAD DUP1 PUSH1 0x40 ADD PUSH1 0x40 MSTORE DUP1 PUSH1 0x20 DUP2 MSTORE PUSH1 0x20 ADD PUSH0 DUP1 MLOAD PUSH1 0x20 PUSH2 0xD299 DUP4 CODECOPY DUP2 MLOAD SWAP2 MSTORE DUP2 MSTORE POP PUSH2 0x184A JUMP JUMPDEST SWAP1 PUSH2 0x23F0 JUMPI PUSH1 0x40 MLOAD PUSH3 0x461BCD PUSH1 0xE5 SHL DUP2 MSTORE PUSH1 0x4 ADD PUSH2 0x10E0 SWAP2 SWAP1 PUSH2 0xB975 JUMP JUMPDEST POP PUSH1 0x1 ADD PUSH2 0x229F JUMP JUMPDEST POP PUSH0 JUMPDEST DUP3 MLOAD DUP2 LT ISZERO PUSH2 0x281B JUMPI PUSH2 0x240D PUSH2 0xAC6C JUMP JUMPDEST PUSH0 PUSH2 0x2434 DUP6 DUP5 DUP2 MLOAD DUP2 LT PUSH2 0x2423 JUMPI PUSH2 0x2423 PUSH2 0xCA54 JUMP JUMPDEST PUSH1 0x20 MUL PUSH1 0x20 ADD ADD MLOAD PUSH1 0x20 ADD MLOAD PUSH2 0xA192 JUMP JUMPDEST DUP1 DUP4 MSTORE DUP6 MLOAD SWAP1 SWAP2 POP DUP6 SWAP1 DUP5 SWAP1 DUP2 LT PUSH2 0x244E JUMPI PUSH2 0x244E PUSH2 0xCA54 JUMP JUMPDEST PUSH1 0x20 SWAP1 DUP2 MUL SWAP2 SWAP1 SWAP2 ADD DUP2 ADD MLOAD PUSH1 0x40 SWAP1 DUP2 ADD MLOAD DUP5 DUP4 ADD SWAP1 DUP2 MSTORE PUSH1 0x1A DUP1 SLOAD PUSH0 SWAP1 DUP2 MSTORE PUSH1 0x7 DUP6 MSTORE DUP4 DUP2 KECCAK256 DUP1 SLOAD PUSH1 0x1 DUP2 DUP2 ADD DUP4 SSTORE SWAP2 DUP4 MSTORE DUP7 DUP4 KECCAK256 ADD DUP8 SWAP1 SSTORE SWAP2 SLOAD DUP2 MSTORE PUSH1 0x6 DUP6 MSTORE DUP4 DUP2 KECCAK256 DUP7 DUP3 MSTORE DUP6 MSTORE DUP4 DUP2 KECCAK256 DUP8 MLOAD DUP2 SSTORE SWAP3 MLOAD DUP1 MLOAD SWAP3 DUP5 ADD SWAP3 SWAP1 SWAP3 SSTORE SWAP4 DUP2 ADD MLOAD PUSH1 0x2 DUP4 ADD SSTORE SWAP2 DUP3 ADD MLOAD PUSH1 0x3 DUP3 ADD SSTORE PUSH1 0x60 DUP3 ADD MLOAD PUSH1 0x4 DUP3 ADD SSTORE PUSH1 0x80 SWAP1 SWAP2 ADD MLOAD PUSH1 0x5 SWAP1 SWAP2 ADD SSTORE JUMPDEST DUP6 DUP5 DUP2 MLOAD DUP2 LT PUSH2 0x24E5 JUMPI PUSH2 0x24E5 PUSH2 0xCA54 JUMP JUMPDEST PUSH1 0x20 MUL PUSH1 0x20 ADD ADD MLOAD PUSH1 0x20 ADD MLOAD MLOAD DUP2 LT ISZERO PUSH2 0x278B JUMPI PUSH1 0x1A SLOAD PUSH0 SWAP1 DUP2 MSTORE PUSH1 0x8 PUSH1 0x20 SWAP1 DUP2 MSTORE PUSH1 0x40 DUP1 DUP4 KECCAK256 DUP6 DUP5 MSTORE SWAP1 SWAP2 MSTORE DUP2 KECCAK256 DUP1 SLOAD PUSH1 0x1 ADD DUP2 SSTORE DUP2 MSTORE DUP7 MLOAD DUP8 SWAP1 DUP7 SWAP1 DUP2 LT PUSH2 0x2531 JUMPI PUSH2 0x2531 PUSH2 0xCA54 JUMP JUMPDEST PUSH1 0x20 MUL PUSH1 0x20 ADD ADD MLOAD PUSH1 0x20 ADD MLOAD DUP3 DUP2 MLOAD DUP2 LT PUSH2 0x254E JUMPI PUSH2 0x254E PUSH2 0xCA54 JUMP JUMPDEST PUSH1 0x20 MUL PUSH1 0x20 ADD ADD MLOAD PUSH1 0x40 MLOAD PUSH1 0x20 ADD PUSH2 0x2566 SWAP2 SWAP1 PUSH2 0xC925 JUMP JUMPDEST PUSH1 0x40 MLOAD PUSH1 0x20 DUP2 DUP4 SUB SUB DUP2 MSTORE SWAP1 PUSH1 0x40 MSTORE DUP1 MLOAD SWAP1 PUSH1 0x20 ADD KECCAK256 SWAP1 POP DUP7 DUP6 DUP2 MLOAD DUP2 LT PUSH2 0x2590 JUMPI PUSH2 0x2590 PUSH2 0xCA54 JUMP JUMPDEST PUSH1 0x20 MUL PUSH1 0x20 ADD ADD MLOAD PUSH1 0x20 ADD MLOAD DUP3 DUP2 MLOAD DUP2 LT PUSH2 0x25AD JUMPI PUSH2 0x25AD PUSH2 0xCA54 JUMP JUMPDEST PUSH1 0x20 MUL PUSH1 0x20 ADD ADD MLOAD PUSH1 0x8 PUSH0 PUSH1 0x1A SLOAD DUP2 MSTORE PUSH1 0x20 ADD SWAP1 DUP2 MSTORE PUSH1 0x20 ADD PUSH0 KECCAK256 PUSH0 DUP6 DUP2 MSTORE PUSH1 0x20 ADD SWAP1 DUP2 MSTORE PUSH1 0x20 ADD PUSH0 KECCAK256 DUP4 DUP2 SLOAD DUP2 LT PUSH2 0x25E8 JUMPI PUSH2 0x25E8 PUSH2 0xCA54 JUMP JUMPDEST SWAP1 PUSH0 MSTORE PUSH1 0x20 PUSH0 KECCAK256 SWAP1 PUSH1 0x3 MUL ADD PUSH0 DUP3 ADD MLOAD DUP2 PUSH0 ADD SSTORE PUSH1 0x20 DUP3 ADD MLOAD DUP2 PUSH1 0x1 ADD SWAP1 DUP2 PUSH2 0x2611 SWAP2 SWAP1 PUSH2 0xCC8D JUMP JUMPDEST POP PUSH1 0x40 DUP3 ADD MLOAD PUSH1 0x2 DUP3 ADD SWAP1 PUSH2 0x2626 SWAP1 DUP3 PUSH2 0xCC8D JUMP JUMPDEST POP POP PUSH1 0x1A SLOAD PUSH0 SWAP1 DUP2 MSTORE PUSH1 0x8 PUSH1 0x20 SWAP1 DUP2 MSTORE PUSH1 0x40 DUP1 DUP4 KECCAK256 DUP8 DUP5 MSTORE SWAP1 SWAP2 MSTORE SWAP1 KECCAK256 DUP1 SLOAD DUP4 SWAP3 POP DUP5 SWAP1 DUP2 LT PUSH2 0x2658 JUMPI PUSH2 0x2658 PUSH2 0xCA54 JUMP JUMPDEST SWAP1 PUSH0 MSTORE PUSH1 0x20 PUSH0 KECCAK256 SWAP1 PUSH1 0x3 MUL ADD PUSH0 ADD DUP2 SWAP1 SSTORE POP DUP7 DUP6 DUP2 MLOAD DUP2 LT PUSH2 0x267C JUMPI PUSH2 0x267C PUSH2 0xCA54 JUMP JUMPDEST PUSH1 0x20 MUL PUSH1 0x20 ADD ADD MLOAD PUSH1 0x20 ADD MLOAD DUP3 DUP2 MLOAD DUP2 LT PUSH2 0x2699 JUMPI PUSH2 0x2699 PUSH2 0xCA54 JUMP JUMPDEST PUSH1 0x20 SWAP1 DUP2 MUL SWAP2 SWAP1 SWAP2 ADD DUP2 ADD MLOAD PUSH0 DUP4 DUP2 MSTORE PUSH1 0x9 DUP4 MSTORE PUSH1 0x40 SWAP1 KECCAK256 DUP2 MLOAD DUP2 SSTORE SWAP2 DUP2 ADD MLOAD SWAP1 SWAP2 SWAP1 PUSH1 0x1 DUP3 ADD SWAP1 PUSH2 0x26CB SWAP1 DUP3 PUSH2 0xCC8D JUMP JUMPDEST POP PUSH1 0x40 DUP3 ADD MLOAD PUSH1 0x2 DUP3 ADD SWAP1 PUSH2 0x26E0 SWAP1 DUP3 PUSH2 0xCC8D JUMP JUMPDEST POP POP POP PUSH0 DUP2 DUP2 MSTORE PUSH1 0x9 PUSH1 0x20 MSTORE PUSH1 0x40 DUP2 KECCAK256 DUP3 SWAP1 SSTORE DUP1 JUMPDEST PUSH1 0x20 DUP1 DUP12 ADD MLOAD PUSH0 SWAP1 DUP2 MSTORE PUSH1 0xD SWAP1 SWAP2 MSTORE PUSH1 0x40 SWAP1 KECCAK256 SLOAD DUP2 LT ISZERO PUSH2 0x2756 JUMPI PUSH1 0xD PUSH0 DUP12 PUSH1 0x20 ADD MLOAD DUP2 MSTORE PUSH1 0x20 ADD SWAP1 DUP2 MSTORE PUSH1 0x20 ADD PUSH0 KECCAK256 DUP2 DUP2 SLOAD DUP2 LT PUSH2 0x2736 JUMPI PUSH2 0x2736 PUSH2 0xCA54 JUMP JUMPDEST SWAP1 PUSH0 MSTORE PUSH1 0x20 PUSH0 KECCAK256 ADD SLOAD DUP4 SUB PUSH2 0x274E JUMPI PUSH1 0x1 SWAP2 POP PUSH2 0x2756 JUMP JUMPDEST PUSH1 0x1 ADD PUSH2 0x26F5 JUMP JUMPDEST POP DUP1 PUSH2 0x2781 JUMPI PUSH1 0x20 DUP1 DUP11 ADD MLOAD PUSH0 SWAP1 DUP2 MSTORE PUSH1 0xD DUP3 MSTORE PUSH1 0x40 DUP2 KECCAK256 DUP1 SLOAD PUSH1 0x1 DUP2 ADD DUP3 SSTORE SWAP1 DUP3 MSTORE SWAP2 SWAP1 KECCAK256 ADD DUP3 SWAP1 SSTORE JUMPDEST POP POP PUSH1 0x1 ADD PUSH2 0x24D3 JUMP JUMPDEST POP PUSH0 JUMPDEST DUP4 DUP2 LT ISZERO PUSH2 0x2810 JUMPI DUP2 PUSH1 0x7 PUSH0 PUSH1 0x1A SLOAD DUP2 MSTORE PUSH1 0x20 ADD SWAP1 DUP2 MSTORE PUSH1 0x20 ADD PUSH0 KECCAK256 DUP3 DUP2 SLOAD DUP2 LT PUSH2 0x27BB JUMPI PUSH2 0x27BB PUSH2 0xCA54 JUMP JUMPDEST SWAP1 PUSH0 MSTORE PUSH1 0x20 PUSH0 KECCAK256 ADD SLOAD EQ ISZERO PUSH2 0x27E9 PUSH1 0x3C PUSH1 0x40 MLOAD DUP1 PUSH1 0x60 ADD PUSH1 0x40 MSTORE DUP1 PUSH1 0x25 DUP2 MSTORE PUSH1 0x20 ADD PUSH2 0xD2B9 PUSH1 0x25 SWAP2 CODECOPY PUSH2 0x184A JUMP JUMPDEST SWAP1 PUSH2 0x2807 JUMPI PUSH1 0x40 MLOAD PUSH3 0x461BCD PUSH1 0xE5 SHL DUP2 MSTORE PUSH1 0x4 ADD PUSH2 0x10E0 SWAP2 SWAP1 PUSH2 0xB975 JUMP JUMPDEST POP PUSH1 0x1 ADD PUSH2 0x278E JUMP JUMPDEST POP POP POP PUSH1 0x1 ADD PUSH2 0x23FC JUMP JUMPDEST POP PUSH0 PUSH1 0x40 MLOAD DUP1 PUSH1 0x80 ADD PUSH1 0x40 MSTORE DUP1 PUSH1 0x1A SLOAD DUP2 MSTORE PUSH1 0x20 ADD DUP6 DUP2 MSTORE PUSH1 0x20 ADD TIMESTAMP DUP2 MSTORE PUSH1 0x20 ADD TIMESTAMP DUP2 MSTORE POP SWAP1 POP PUSH0 DUP5 PUSH2 0x1A0 ADD MLOAD PUSH1 0x40 MLOAD PUSH1 0x20 ADD PUSH2 0x2859 SWAP2 SWAP1 PUSH2 0xB975 JUMP JUMPDEST PUSH1 0x40 MLOAD PUSH1 0x20 DUP2 DUP4 SUB SUB DUP2 MSTORE SWAP1 PUSH1 0x40 MSTORE SWAP1 POP PUSH1 0x5 DUP2 PUSH1 0x40 MLOAD PUSH2 0x287A SWAP2 SWAP1 PUSH2 0xCD47 JUMP JUMPDEST SWAP1 DUP2 MSTORE PUSH1 0x40 MLOAD SWAP1 DUP2 SWAP1 SUB PUSH1 0x20 ADD SWAP1 KECCAK256 SLOAD PUSH1 0xFF AND PUSH2 0x2900 JUMPI PUSH1 0x1 PUSH1 0x5 DUP3 PUSH1 0x40 MLOAD PUSH2 0x28A3 SWAP2 SWAP1 PUSH2 0xCD47 JUMP JUMPDEST SWAP1 DUP2 MSTORE PUSH1 0x40 MLOAD SWAP1 DUP2 SWAP1 SUB PUSH1 0x20 ADD SWAP1 KECCAK256 DUP1 SLOAD SWAP2 ISZERO ISZERO PUSH1 0xFF NOT SWAP1 SWAP3 AND SWAP2 SWAP1 SWAP2 OR SWAP1 SSTORE PUSH1 0x4 DUP1 SLOAD PUSH1 0x1 DUP2 ADD DUP3 SSTORE PUSH0 SWAP2 SWAP1 SWAP2 MSTORE PUSH32 0x8A35ACFBC15FF81A39AE7D344FD709F28E8600B4AA8C65C6B64BFE7FE36BD19B ADD PUSH2 0x28FE DUP3 DUP3 PUSH2 0xCC8D JUMP JUMPDEST POP JUMPDEST PUSH1 0x1A SLOAD PUSH0 SWAP1 DUP2 MSTORE PUSH1 0x2 PUSH1 0x20 SWAP1 DUP2 MSTORE PUSH1 0x40 SWAP1 SWAP2 KECCAK256 DUP4 MLOAD DUP2 SSTORE SWAP1 DUP4 ADD MLOAD DUP1 MLOAD DUP5 SWAP3 SWAP2 SWAP1 PUSH1 0x1 DUP4 ADD SWAP1 DUP2 SWAP1 PUSH2 0x2932 SWAP1 DUP3 PUSH2 0xCC8D JUMP JUMPDEST POP PUSH1 0x20 DUP3 ADD MLOAD PUSH1 0x1 DUP3 ADD SSTORE PUSH1 0x40 DUP3 ADD MLOAD PUSH1 0x2 DUP3 ADD SWAP1 PUSH2 0x2951 SWAP1 DUP3 PUSH2 0xCC8D JUMP JUMPDEST POP PUSH1 0x60 DUP3 ADD MLOAD PUSH1 0x3 DUP3 ADD SSTORE PUSH1 0x80 DUP3 ADD MLOAD PUSH1 0x4 DUP3 ADD SSTORE PUSH1 0xA0 DUP3 ADD MLOAD PUSH1 0x5 DUP3 ADD SSTORE PUSH1 0xC0 DUP3 ADD MLOAD PUSH1 0x6 DUP3 ADD SSTORE PUSH1 0xE0 DUP3 ADD MLOAD DUP1 MLOAD PUSH2 0x2995 SWAP2 PUSH1 0x7 DUP5 ADD SWAP2 PUSH1 0x20 SWAP1 SWAP2 ADD SWAP1 PUSH2 0xAD56 JUMP JUMPDEST POP PUSH2 0x100 DUP3 ADD MLOAD DUP1 MLOAD PUSH2 0x29B2 SWAP2 PUSH1 0x8 DUP5 ADD SWAP2 PUSH1 0x20 SWAP1 SWAP2 ADD SWAP1 PUSH2 0xAD9B JUMP JUMPDEST POP PUSH2 0x120 DUP3 ADD MLOAD PUSH1 0x9 DUP3 ADD SSTORE PUSH2 0x140 DUP3 ADD MLOAD PUSH1 0xA DUP3 ADD SSTORE PUSH2 0x160 DUP3 ADD MLOAD DUP1 MLOAD PUSH2 0x29E5 SWAP2 PUSH1 0xB DUP5 ADD SWAP2 PUSH1 0x20 SWAP1 SWAP2 ADD SWAP1 PUSH2 0xAD9B JUMP JUMPDEST POP PUSH2 0x180 DUP3 ADD MLOAD PUSH1 0xC DUP3 ADD DUP1 SLOAD PUSH1 0x1 PUSH1 0x1 PUSH1 0xA0 SHL SUB NOT AND PUSH1 0x1 PUSH1 0x1 PUSH1 0xA0 SHL SUB SWAP1 SWAP3 AND SWAP2 SWAP1 SWAP2 OR SWAP1 SSTORE PUSH2 0x1A0 DUP3 ADD MLOAD PUSH1 0xD DUP3 ADD SWAP1 PUSH2 0x2A22 SWAP1 DUP3 PUSH2 0xCC8D JUMP JUMPDEST POP PUSH2 0x1C0 DUP3 ADD MLOAD PUSH1 0xE DUP3 ADD SWAP1 PUSH2 0x2A38 SWAP1 DUP3 PUSH2 0xCC8D JUMP JUMPDEST POP PUSH2 0x1E0 DUP3 ADD MLOAD PUSH1 0xF DUP3 ADD DUP1 SLOAD PUSH1 0xFF NOT AND SWAP2 ISZERO ISZERO SWAP2 SWAP1 SWAP2 OR SWAP1 SSTORE PUSH2 0x200 DUP3 ADD MLOAD DUP1 MLOAD PUSH2 0x2A6E SWAP2 PUSH1 0x10 DUP5 ADD SWAP2 PUSH1 0x20 SWAP1 SWAP2 ADD SWAP1 PUSH2 0xAD9B JUMP JUMPDEST POP PUSH2 0x220 DUP3 ADD MLOAD PUSH1 0x11 DUP3 ADD SWAP1 PUSH2 0x2A84 SWAP1 DUP3 PUSH2 0xCC8D JUMP JUMPDEST POP PUSH2 0x240 DUP3 ADD MLOAD PUSH1 0x12 DUP3 ADD SSTORE PUSH2 0x260 DUP3 ADD MLOAD PUSH1 0x13 DUP3 ADD SSTORE PUSH2 0x280 DUP3 ADD MLOAD PUSH1 0x14 DUP3 ADD SSTORE PUSH2 0x2A0 DUP3 ADD MLOAD PUSH1 0x15 DUP3 ADD DUP1 SLOAD PUSH2 0x2C0 DUP6 ADD MLOAD ISZERO ISZERO PUSH2 0x100 MUL PUSH2 0xFF00 NOT SWAP4 ISZERO ISZERO SWAP4 SWAP1 SWAP4 AND PUSH2 0xFFFF NOT SWAP1 SWAP2 AND OR SWAP2 SWAP1 SWAP2 OR SWAP1 SSTORE PUSH2 0x2E0 SWAP1 SWAP2 ADD MLOAD PUSH1 0x16 SWAP1 SWAP2 ADD SSTORE PUSH1 0x40 DUP3 DUP2 ADD MLOAD PUSH1 0x18 DUP4 ADD SSTORE PUSH1 0x60 SWAP1 SWAP3 ADD MLOAD PUSH1 0x19 SWAP1 SWAP2 ADD SSTORE PUSH1 0x1A DUP1 SLOAD PUSH1 0x3 DUP1 SLOAD PUSH1 0x1 DUP2 DUP2 ADD DUP4 SSTORE PUSH0 SWAP3 DUP4 MSTORE PUSH32 0xC2575A0E9E593C00F959F8C92F12DB2869C3395A3B0502D05E2516446F71F85B SWAP1 SWAP2 ADD DUP4 SWAP1 SSTORE PUSH2 0x180 DUP11 ADD DUP1 MLOAD PUSH1 0x1 PUSH1 0x1 PUSH1 0xA0 SHL SUB SWAP1 DUP2 AND DUP5 MSTORE PUSH1 0xA PUSH1 0x20 SWAP1 DUP2 MSTORE DUP8 DUP6 KECCAK256 DUP1 SLOAD DUP1 DUP7 ADD DUP3 SSTORE SWAP1 DUP7 MSTORE DUP2 DUP7 KECCAK256 ADD SWAP6 SWAP1 SWAP6 SSTORE DUP2 MLOAD DUP2 AND DUP5 MSTORE DUP3 DUP6 MSTORE DUP7 DUP5 KECCAK256 DUP7 SLOAD DUP6 MSTORE SWAP1 SWAP5 MSTORE SWAP2 DUP6 SWAP1 KECCAK256 DUP1 SLOAD PUSH1 0xFF NOT AND SWAP1 SWAP2 OR SWAP1 SSTORE PUSH1 0x1F SLOAD SWAP3 SLOAD PUSH2 0x1E0 DUP11 ADD MLOAD SWAP2 MLOAD SWAP5 MLOAD PUSH4 0x371C0FC7 PUSH1 0xE0 SHL DUP2 MSTORE PUSH1 0x4 DUP2 ADD SWAP2 SWAP1 SWAP2 MSTORE SWAP1 ISZERO ISZERO PUSH1 0x24 DUP3 ADD MSTORE SWAP3 DUP2 AND PUSH1 0x44 DUP5 ADD MSTORE AND SWAP1 PUSH4 0x371C0FC7 SWAP1 PUSH1 0x64 ADD PUSH0 PUSH1 0x40 MLOAD DUP1 DUP4 SUB DUP2 PUSH0 DUP8 DUP1 EXTCODESIZE ISZERO DUP1 ISZERO PUSH2 0x2BDA JUMPI PUSH0 DUP1 REVERT JUMPDEST POP GAS CALL ISZERO DUP1 ISZERO PUSH2 0x2BEC JUMPI RETURNDATASIZE PUSH0 DUP1 RETURNDATACOPY RETURNDATASIZE PUSH0 REVERT JUMPDEST POP POP POP POP PUSH32 0xDF8D7DB3E0A4789A1EF3A4C2A74F01201DD2560B156CA835ED9BC23CF9B70B2F PUSH1 0x1A SLOAD DUP7 PUSH1 0x40 MLOAD PUSH2 0x2C23 SWAP3 SWAP2 SWAP1 PUSH2 0xCD52 JUMP JUMPDEST PUSH1 0x40 MLOAD DUP1 SWAP2 SUB SWAP1 LOG1 POP POP PUSH1 0x1A SLOAD SWAP4 SWAP3 POP POP POP JUMP JUMPDEST PUSH0 DUP2 DUP2 MSTORE PUSH1 0x12 PUSH1 0x20 MSTORE PUSH1 0x40 SWAP1 KECCAK256 SLOAD PUSH2 0x2C61 JUMPI PUSH1 0x40 MLOAD PUSH3 0x461BCD PUSH1 0xE5 SHL DUP2 MSTORE PUSH1 0x4 ADD PUSH2 0x10E0 SWAP1 PUSH2 0xCD6A JUMP JUMPDEST PUSH0 DUP3 DUP2 MSTORE PUSH1 0x11 PUSH1 0x20 MSTORE PUSH1 0x40 DUP2 KECCAK256 SWAP1 JUMPDEST DUP2 SLOAD DUP2 LT ISZERO PUSH2 0x2D11 JUMPI DUP3 DUP3 DUP3 DUP2 SLOAD DUP2 LT PUSH2 0x2C8C JUMPI PUSH2 0x2C8C PUSH2 0xCA54 JUMP JUMPDEST SWAP1 PUSH0 MSTORE PUSH1 0x20 PUSH0 KECCAK256 ADD SLOAD SUB PUSH2 0x2D09 JUMPI DUP2 SLOAD DUP3 SWAP1 PUSH2 0x2CAA SWAP1 PUSH1 0x1 SWAP1 PUSH2 0xCB0A JUMP JUMPDEST DUP2 SLOAD DUP2 LT PUSH2 0x2CBA JUMPI PUSH2 0x2CBA PUSH2 0xCA54 JUMP JUMPDEST SWAP1 PUSH0 MSTORE PUSH1 0x20 PUSH0 KECCAK256 ADD SLOAD DUP3 DUP3 DUP2 SLOAD DUP2 LT PUSH2 0x2CD5 JUMPI PUSH2 0x2CD5 PUSH2 0xCA54 JUMP JUMPDEST SWAP1 PUSH0 MSTORE PUSH1 0x20 PUSH0 KECCAK256 ADD DUP2 SWAP1 SSTORE POP DUP2 DUP1 SLOAD DUP1 PUSH2 0x2CF1 JUMPI PUSH2 0x2CF1 PUSH2 0xCB1D JUMP JUMPDEST PUSH1 0x1 SWAP1 SUB DUP2 DUP2 SWAP1 PUSH0 MSTORE PUSH1 0x20 PUSH0 KECCAK256 ADD PUSH0 SWAP1 SSTORE SWAP1 SSTORE PUSH2 0x2D11 JUMP JUMPDEST PUSH1 0x1 ADD PUSH2 0x2C70 JUMP JUMPDEST POP PUSH0 DUP3 DUP2 MSTORE PUSH1 0x12 PUSH1 0x20 MSTORE PUSH1 0x40 DUP2 KECCAK256 DUP2 DUP2 SSTORE PUSH1 0x1 DUP2 ADD DUP1 SLOAD PUSH1 0x1 PUSH1 0x1 PUSH1 0xA0 SHL SUB NOT AND SWAP1 SSTORE SWAP1 PUSH2 0x2D42 PUSH1 0x2 DUP4 ADD DUP3 PUSH2 0xACD5 JUMP JUMPDEST PUSH2 0x2D4F PUSH1 0x3 DUP4 ADD PUSH0 PUSH2 0xACD5 JUMP JUMPDEST POP PUSH1 0x4 DUP2 DUP2 ADD DUP1 SLOAD PUSH1 0xFF NOT AND SWAP1 SSTORE PUSH0 PUSH1 0x5 DUP4 ADD DUP2 SWAP1 SSTORE PUSH1 0x6 DUP4 ADD DUP2 SWAP1 SSTORE PUSH1 0x7 SWAP1 SWAP3 ADD DUP3 SWAP1 SSTORE PUSH1 0x21 SLOAD PUSH1 0x40 DUP1 MLOAD PUSH4 0x6F2069F PUSH1 0xE4 SHL DUP2 MSTORE SWAP1 MLOAD PUSH1 0x1 PUSH1 0x1 PUSH1 0xA0 SHL SUB SWAP1 SWAP3 AND SWAP4 PUSH4 0x6F2069F0 SWAP4 DUP3 DUP2 ADD SWAP4 SWAP2 SWAP3 DUP3 SWAP1 SUB ADD DUP2 DUP4 DUP8 DUP1 EXTCODESIZE ISZERO DUP1 ISZERO PUSH2 0x2DB3 JUMPI PUSH0 DUP1 REVERT JUMPDEST POP GAS CALL ISZERO DUP1 ISZERO PUSH2 0x2DC5 JUMPI RETURNDATASIZE PUSH0 DUP1 RETURNDATACOPY RETURNDATASIZE PUSH0 REVERT JUMPDEST POP POP POP POP POP POP POP JUMP JUMPDEST PUSH0 DUP2 PUSH1 0x1 DUP2 LT ISZERO DUP1 ISZERO PUSH2 0x2DE2 JUMPI POP PUSH1 0x5 DUP2 GT ISZERO JUMPDEST PUSH2 0x2DFE JUMPI PUSH1 0x40 MLOAD PUSH3 0x461BCD PUSH1 0xE5 SHL DUP2 MSTORE PUSH1 0x4 ADD PUSH2 0x10E0 SWAP1 PUSH2 0xCDC2 JUMP JUMPDEST PUSH0 DUP5 DUP2 MSTORE PUSH1 0xE PUSH1 0x20 MSTORE PUSH1 0x40 SWAP1 KECCAK256 SLOAD PUSH2 0x2E6C JUMPI PUSH1 0x40 MLOAD PUSH3 0x461BCD PUSH1 0xE5 SHL DUP2 MSTORE PUSH1 0x20 PUSH1 0x4 DUP3 ADD MSTORE PUSH1 0x4B PUSH1 0x24 DUP3 ADD MSTORE PUSH0 DUP1 MLOAD PUSH1 0x20 PUSH2 0xD34B DUP4 CODECOPY DUP2 MLOAD SWAP2 MSTORE PUSH1 0x44 DUP3 ADD MSTORE PUSH0 DUP1 MLOAD PUSH1 0x20 PUSH2 0xD279 DUP4 CODECOPY DUP2 MLOAD SWAP2 MSTORE PUSH1 0x64 DUP3 ADD MSTORE PUSH11 0x6F7420657869737473227D PUSH1 0xA8 SHL PUSH1 0x84 DUP3 ADD MSTORE PUSH1 0xA4 ADD PUSH2 0x10E0 JUMP JUMPDEST CALLER PUSH0 SWAP1 DUP2 MSTORE PUSH1 0x10 PUSH1 0x20 SWAP1 DUP2 MSTORE PUSH1 0x40 DUP1 DUP4 KECCAK256 DUP9 DUP5 MSTORE SWAP1 SWAP2 MSTORE SWAP1 KECCAK256 SLOAD PUSH1 0xFF AND PUSH2 0x2EA5 JUMPI PUSH1 0x40 MLOAD PUSH3 0x461BCD PUSH1 0xE5 SHL DUP2 MSTORE PUSH1 0x4 ADD PUSH2 0x10E0 SWAP1 PUSH2 0xCE2D JUMP JUMPDEST POP POP PUSH0 SWAP2 DUP3 MSTORE PUSH1 0xE PUSH1 0x20 SWAP1 DUP2 MSTORE PUSH1 0x40 DUP1 DUP5 KECCAK256 PUSH1 0x2 ADD DUP4 SWAP1 SSTORE CALLER DUP5 MSTORE PUSH1 0x10 DUP3 MSTORE DUP1 DUP5 KECCAK256 SWAP5 DUP5 MSTORE SWAP4 SWAP1 MSTORE SWAP2 SWAP1 KECCAK256 PUSH1 0x1 SWAP1 DUP2 ADD SWAP2 SWAP1 SWAP2 SSTORE SWAP1 JUMP JUMPDEST PUSH0 DUP2 DUP2 MSTORE PUSH1 0xE PUSH1 0x20 MSTORE PUSH1 0x40 DUP2 KECCAK256 SLOAD PUSH2 0x2F49 JUMPI PUSH1 0x40 MLOAD PUSH3 0x461BCD PUSH1 0xE5 SHL DUP2 MSTORE PUSH1 0x20 PUSH1 0x4 DUP3 ADD MSTORE PUSH1 0x4A PUSH1 0x24 DUP3 ADD MSTORE PUSH0 DUP1 MLOAD PUSH1 0x20 PUSH2 0xD34B DUP4 CODECOPY DUP2 MLOAD SWAP2 MSTORE PUSH1 0x44 DUP3 ADD MSTORE PUSH0 DUP1 MLOAD PUSH1 0x20 PUSH2 0xD279 DUP4 CODECOPY DUP2 MLOAD SWAP2 MSTORE PUSH1 0x64 DUP3 ADD MSTORE PUSH10 0x6F74206578697374227D PUSH1 0xB0 SHL PUSH1 0x84 DUP3 ADD MSTORE PUSH1 0xA4 ADD PUSH2 0x10E0 JUMP JUMPDEST PUSH0 DUP3 DUP2 MSTORE PUSH1 0xE PUSH1 0x20 MSTORE PUSH1 0x40 SWAP1 KECCAK256 PUSH1 0x1 ADD SLOAD PUSH1 0x1 PUSH1 0x1 PUSH1 0xA0 SHL SUB AND CALLER EQ PUSH2 0x2FE4 JUMPI PUSH1 0x40 MLOAD PUSH3 0x461BCD PUSH1 0xE5 SHL DUP2 MSTORE PUSH1 0x20 PUSH1 0x4 DUP3 ADD MSTORE PUSH1 0x57 PUSH1 0x24 DUP3 ADD MSTORE PUSH0 DUP1 MLOAD PUSH1 0x20 PUSH2 0xD34B DUP4 CODECOPY DUP2 MLOAD SWAP2 MSTORE PUSH1 0x44 DUP3 ADD MSTORE PUSH32 0x223A2032392C20226D657373616765223A20224F6E6C79207468652075736572 PUSH1 0x64 DUP3 ADD MSTORE PUSH23 0x2077686F2072617465642063616E2064656C657465227D PUSH1 0x48 SHL PUSH1 0x84 DUP3 ADD MSTORE PUSH1 0xA4 ADD PUSH2 0x10E0 JUMP JUMPDEST CALLER PUSH0 SWAP1 DUP2 MSTORE PUSH1 0x10 PUSH1 0x20 SWAP1 DUP2 MSTORE PUSH1 0x40 DUP1 DUP4 KECCAK256 DUP7 DUP5 MSTORE SWAP1 SWAP2 MSTORE SWAP1 KECCAK256 SLOAD PUSH1 0xFF AND PUSH2 0x301D JUMPI PUSH1 0x40 MLOAD PUSH3 0x461BCD PUSH1 0xE5 SHL DUP2 MSTORE PUSH1 0x4 ADD PUSH2 0x10E0 SWAP1 PUSH2 0xCE2D JUMP JUMPDEST PUSH0 DUP3 DUP2 MSTORE PUSH1 0xE PUSH1 0x20 SWAP1 DUP2 MSTORE PUSH1 0x40 DUP1 DUP4 KECCAK256 DUP4 DUP2 SSTORE PUSH1 0x1 DUP1 DUP3 ADD DUP1 SLOAD PUSH1 0x1 PUSH1 0x1 PUSH1 0xA0 SHL SUB NOT AND SWAP1 SSTORE PUSH1 0x2 DUP3 ADD DUP6 SWAP1 SSTORE PUSH1 0x3 SWAP1 SWAP2 ADD DUP5 SWAP1 SSTORE CALLER DUP5 MSTORE PUSH1 0x10 DUP4 MSTORE DUP2 DUP5 KECCAK256 DUP8 DUP6 MSTORE DUP4 MSTORE DUP2 DUP5 KECCAK256 DUP1 SLOAD PUSH1 0xFF NOT AND DUP2 SSTORE ADD DUP4 SWAP1 SSTORE PUSH1 0xF SWAP1 SWAP2 MSTORE DUP2 KECCAK256 SWAP1 JUMPDEST DUP2 SLOAD DUP2 LT ISZERO PUSH2 0x311A JUMPI DUP4 DUP3 DUP3 DUP2 SLOAD DUP2 LT PUSH2 0x3095 JUMPI PUSH2 0x3095 PUSH2 0xCA54 JUMP JUMPDEST SWAP1 PUSH0 MSTORE PUSH1 0x20 PUSH0 KECCAK256 ADD SLOAD SUB PUSH2 0x3112 JUMPI DUP2 SLOAD DUP3 SWAP1 PUSH2 0x30B3 SWAP1 PUSH1 0x1 SWAP1 PUSH2 0xCB0A JUMP JUMPDEST DUP2 SLOAD DUP2 LT PUSH2 0x30C3 JUMPI PUSH2 0x30C3 PUSH2 0xCA54 JUMP JUMPDEST SWAP1 PUSH0 MSTORE PUSH1 0x20 PUSH0 KECCAK256 ADD SLOAD DUP3 DUP3 DUP2 SLOAD DUP2 LT PUSH2 0x30DE JUMPI PUSH2 0x30DE PUSH2 0xCA54 JUMP JUMPDEST SWAP1 PUSH0 MSTORE PUSH1 0x20 PUSH0 KECCAK256 ADD DUP2 SWAP1 SSTORE POP DUP2 DUP1 SLOAD DUP1 PUSH2 0x30FA JUMPI PUSH2 0x30FA PUSH2 0xCB1D JUMP JUMPDEST PUSH1 0x1 SWAP1 SUB DUP2 DUP2 SWAP1 PUSH0 MSTORE PUSH1 0x20 PUSH0 KECCAK256 ADD PUSH0 SWAP1 SSTORE SWAP1 SSTORE PUSH2 0x311A JUMP JUMPDEST PUSH1 0x1 ADD PUSH2 0x3079 JUMP JUMPDEST POP PUSH1 0x1 SWAP5 SWAP4 POP POP POP POP JUMP JUMPDEST PUSH0 DUP2 DUP2 MSTORE PUSH1 0xD PUSH1 0x20 MSTORE PUSH1 0x40 SWAP1 KECCAK256 SLOAD PUSH1 0x60 SWAP1 DUP1 PUSH1 0x1 PUSH1 0x1 PUSH1 0x40 SHL SUB DUP2 GT ISZERO PUSH2 0x314E JUMPI PUSH2 0x314E PUSH2 0xB1A6 JUMP JUMPDEST PUSH1 0x40 MLOAD SWAP1 DUP1 DUP3 MSTORE DUP1 PUSH1 0x20 MUL PUSH1 0x20 ADD DUP3 ADD PUSH1 0x40 MSTORE DUP1 ISZERO PUSH2 0x3187 JUMPI DUP2 PUSH1 0x20 ADD JUMPDEST PUSH2 0x3174 PUSH2 0xADEB JUMP JUMPDEST DUP2 MSTORE PUSH1 0x20 ADD SWAP1 PUSH1 0x1 SWAP1 SUB SWAP1 DUP2 PUSH2 0x316C JUMPI SWAP1 POP JUMPDEST POP SWAP2 POP PUSH0 JUMPDEST DUP2 DUP2 LT ISZERO PUSH2 0x176B JUMPI PUSH0 DUP5 DUP2 MSTORE PUSH1 0xD PUSH1 0x20 MSTORE PUSH1 0x40 DUP2 KECCAK256 DUP1 SLOAD PUSH1 0x9 SWAP3 SWAP2 SWAP1 DUP5 SWAP1 DUP2 LT PUSH2 0x31B8 JUMPI PUSH2 0x31B8 PUSH2 0xCA54 JUMP JUMPDEST SWAP1 PUSH0 MSTORE PUSH1 0x20 PUSH0 KECCAK256 ADD SLOAD DUP2 MSTORE PUSH1 0x20 ADD SWAP1 DUP2 MSTORE PUSH1 0x20 ADD PUSH0 KECCAK256 PUSH1 0x40 MLOAD DUP1 PUSH1 0x60 ADD PUSH1 0x40 MSTORE SWAP1 DUP2 PUSH0 DUP3 ADD SLOAD DUP2 MSTORE PUSH1 0x20 ADD PUSH1 0x1 DUP3 ADD DUP1 SLOAD PUSH2 0x31F2 SWAP1 PUSH2 0xCA68 JUMP JUMPDEST DUP1 PUSH1 0x1F ADD PUSH1 0x20 DUP1 SWAP2 DIV MUL PUSH1 0x20 ADD PUSH1 0x40 MLOAD SWAP1 DUP2 ADD PUSH1 0x40 MSTORE DUP1 SWAP3 SWAP2 SWAP1 DUP2 DUP2 MSTORE PUSH1 0x20 ADD DUP3 DUP1 SLOAD PUSH2 0x321E SWAP1 PUSH2 0xCA68 JUMP JUMPDEST DUP1 ISZERO PUSH2 0x3269 JUMPI DUP1 PUSH1 0x1F LT PUSH2 0x3240 JUMPI PUSH2 0x100 DUP1 DUP4 SLOAD DIV MUL DUP4 MSTORE SWAP2 PUSH1 0x20 ADD SWAP2 PUSH2 0x3269 JUMP JUMPDEST DUP3 ADD SWAP2 SWAP1 PUSH0 MSTORE PUSH1 0x20 PUSH0 KECCAK256 SWAP1 JUMPDEST DUP2 SLOAD DUP2 MSTORE SWAP1 PUSH1 0x1 ADD SWAP1 PUSH1 0x20 ADD DUP1 DUP4 GT PUSH2 0x324C JUMPI DUP3 SWAP1 SUB PUSH1 0x1F AND DUP3 ADD SWAP2 JUMPDEST POP POP POP POP POP DUP2 MSTORE PUSH1 0x20 ADD PUSH1 0x2 DUP3 ADD DUP1 SLOAD PUSH2 0x3282 SWAP1 PUSH2 0xCA68 JUMP JUMPDEST DUP1 PUSH1 0x1F ADD PUSH1 0x20 DUP1 SWAP2 DIV MUL PUSH1 0x20 ADD PUSH1 0x40 MLOAD SWAP1 DUP2 ADD PUSH1 0x40 MSTORE DUP1 SWAP3 SWAP2 SWAP1 DUP2 DUP2 MSTORE PUSH1 0x20 ADD DUP3 DUP1 SLOAD PUSH2 0x32AE SWAP1 PUSH2 0xCA68 JUMP JUMPDEST DUP1 ISZERO PUSH2 0x32F9 JUMPI DUP1 PUSH1 0x1F LT PUSH2 0x32D0 JUMPI PUSH2 0x100 DUP1 DUP4 SLOAD DIV MUL DUP4 MSTORE SWAP2 PUSH1 0x20 ADD SWAP2 PUSH2 0x32F9 JUMP JUMPDEST DUP3 ADD SWAP2 SWAP1 PUSH0 MSTORE PUSH1 0x20 PUSH0 KECCAK256 SWAP1 JUMPDEST DUP2 SLOAD DUP2 MSTORE SWAP1 PUSH1 0x1 ADD SWAP1 PUSH1 0x20 ADD DUP1 DUP4 GT PUSH2 0x32DC JUMPI DUP3 SWAP1 SUB PUSH1 0x1F AND DUP3 ADD SWAP2 JUMPDEST POP POP POP POP POP DUP2 MSTORE POP POP DUP4 DUP3 DUP2 MLOAD DUP2 LT PUSH2 0x3314 JUMPI PUSH2 0x3314 PUSH2 0xCA54 JUMP JUMPDEST PUSH1 0x20 SWAP1 DUP2 MUL SWAP2 SWAP1 SWAP2 ADD ADD MSTORE PUSH1 0x1 ADD PUSH2 0x318C JUMP JUMPDEST PUSH1 0x1F SLOAD PUSH1 0x40 MLOAD PUSH4 0x588F1E0D PUSH1 0xE1 SHL DUP2 MSTORE PUSH0 SWAP2 PUSH1 0x1 PUSH1 0x1 PUSH1 0xA0 SHL SUB AND SWAP1 PUSH4 0xB11E3C1A SWAP1 PUSH2 0x3357 SWAP1 CALLER SWAP1 PUSH1 0x4 ADD PUSH2 0xBF40 JUMP JUMPDEST PUSH1 0x20 PUSH1 0x40 MLOAD DUP1 DUP4 SUB DUP2 DUP7 GAS STATICCALL ISZERO DUP1 ISZERO PUSH2 0x3372 JUMPI RETURNDATASIZE PUSH0 DUP1 RETURNDATACOPY RETURNDATASIZE PUSH0 REVERT JUMPDEST POP POP POP POP PUSH1 0x40 MLOAD RETURNDATASIZE PUSH1 0x1F NOT PUSH1 0x1F DUP3 ADD AND DUP3 ADD DUP1 PUSH1 0x40 MSTORE POP DUP2 ADD SWAP1 PUSH2 0x3396 SWAP2 SWAP1 PUSH2 0xCBD9 JUMP JUMPDEST PUSH2 0x33B2 JUMPI PUSH1 0x40 MLOAD PUSH3 0x461BCD PUSH1 0xE5 SHL DUP2 MSTORE PUSH1 0x4 ADD PUSH2 0x10E0 SWAP1 PUSH2 0xCE77 JUMP JUMPDEST PUSH0 DUP3 DUP2 MSTORE PUSH1 0x2 PUSH1 0x20 MSTORE PUSH1 0x40 SWAP1 KECCAK256 SLOAD ISZERO DUP1 ISZERO SWAP1 PUSH2 0x33E4 JUMPI POP PUSH0 DUP3 DUP2 MSTORE PUSH1 0x2 PUSH1 0x20 MSTORE PUSH1 0x40 SWAP1 KECCAK256 PUSH1 0x16 ADD SLOAD PUSH2 0x100 SWAP1 DIV PUSH1 0xFF AND ISZERO JUMPDEST PUSH2 0x3407 PUSH1 0x1B PUSH1 0x40 MLOAD DUP1 PUSH1 0x60 ADD PUSH1 0x40 MSTORE DUP1 PUSH1 0x2C DUP2 MSTORE PUSH1 0x20 ADD PUSH2 0xD2DE PUSH1 0x2C SWAP2 CODECOPY PUSH2 0x184A JUMP JUMPDEST SWAP1 PUSH2 0x3425 JUMPI PUSH1 0x40 MLOAD PUSH3 0x461BCD PUSH1 0xE5 SHL DUP2 MSTORE PUSH1 0x4 ADD PUSH2 0x10E0 SWAP2 SWAP1 PUSH2 0xB975 JUMP JUMPDEST POP PUSH2 0x342F DUP3 PUSH2 0xA218 JUMP JUMPDEST POP PUSH1 0x1 JUMPDEST SWAP2 SWAP1 POP JUMP JUMPDEST PUSH0 DUP1 SLOAD PUSH1 0x1 PUSH1 0x1 PUSH1 0xA0 SHL SUB AND CALLER DUP2 EQ PUSH2 0x3463 JUMPI PUSH1 0x40 MLOAD PUSH3 0x461BCD PUSH1 0xE5 SHL DUP2 MSTORE PUSH1 0x4 ADD PUSH2 0x10E0 SWAP1 PUSH2 0xCA9A JUMP JUMPDEST PUSH1 0x20 DUP1 SLOAD PUSH1 0x1 PUSH1 0x1 PUSH1 0xA0 SHL SUB DUP6 AND PUSH1 0x1 PUSH1 0x1 PUSH1 0xA0 SHL SUB NOT SWAP1 SWAP2 AND OR SWAP1 SSTORE PUSH1 0x1 SWAP2 POP POP SWAP2 SWAP1 POP JUMP JUMPDEST PUSH1 0x1F SLOAD PUSH1 0x40 MLOAD PUSH4 0x656952AD PUSH1 0xE0 SHL DUP2 MSTORE PUSH0 SWAP2 PUSH1 0x1 PUSH1 0x1 PUSH1 0xA0 SHL SUB AND SWAP1 PUSH4 0x656952AD SWAP1 PUSH2 0x34BA SWAP1 CALLER SWAP1 PUSH1 0x4 ADD PUSH2 0xBF40 JUMP JUMPDEST PUSH1 0x20 PUSH1 0x40 MLOAD DUP1 DUP4 SUB DUP2 DUP7 GAS STATICCALL ISZERO DUP1 ISZERO PUSH2 0x34D5 JUMPI RETURNDATASIZE PUSH0 DUP1 RETURNDATACOPY RETURNDATASIZE PUSH0 REVERT JUMPDEST POP POP POP POP PUSH1 0x40 MLOAD RETURNDATASIZE PUSH1 0x1F NOT PUSH1 0x1F DUP3 ADD AND DUP3 ADD DUP1 PUSH1 0x40 MSTORE POP DUP2 ADD SWAP1 PUSH2 0x34F9 SWAP2 SWAP1 PUSH2 0xCBD9 JUMP JUMPDEST DUP1 PUSH2 0x356E JUMPI POP PUSH1 0x1F SLOAD PUSH1 0x40 MLOAD PUSH4 0x59D32027 PUSH1 0xE1 SHL DUP2 MSTORE PUSH1 0x1 PUSH1 0x1 PUSH1 0xA0 SHL SUB SWAP1 SWAP2 AND SWAP1 PUSH4 0xB3A6404E SWAP1 PUSH2 0x352F SWAP1 CALLER SWAP1 PUSH1 0x4 ADD PUSH2 0xBF40 JUMP JUMPDEST PUSH1 0x20 PUSH1 0x40 MLOAD DUP1 DUP4 SUB DUP2 DUP7 GAS STATICCALL ISZERO DUP1 ISZERO PUSH2 0x354A JUMPI RETURNDATASIZE PUSH0 DUP1 RETURNDATACOPY RETURNDATASIZE PUSH0 REVERT JUMPDEST POP POP POP POP PUSH1 0x40 MLOAD RETURNDATASIZE PUSH1 0x1F NOT PUSH1 0x1F DUP3 ADD AND DUP3 ADD DUP1 PUSH1 0x40 MSTORE POP DUP2 ADD SWAP1 PUSH2 0x356E SWAP2 SWAP1 PUSH2 0xCBD9 JUMP JUMPDEST PUSH2 0x359B PUSH1 0x37 PUSH1 0x40 MLOAD DUP1 PUSH1 0x40 ADD PUSH1 0x40 MSTORE DUP1 PUSH1 0x1B DUP2 MSTORE PUSH1 0x20 ADD PUSH0 DUP1 MLOAD PUSH1 0x20 PUSH2 0xD30A DUP4 CODECOPY DUP2 MLOAD SWAP2 MSTORE DUP2 MSTORE POP PUSH2 0x184A JUMP JUMPDEST SWAP1 PUSH2 0x35B9 JUMPI PUSH1 0x40 MLOAD PUSH3 0x461BCD PUSH1 0xE5 SHL DUP2 MSTORE PUSH1 0x4 ADD PUSH2 0x10E0 SWAP2 SWAP1 PUSH2 0xB975 JUMP JUMPDEST POP PUSH0 JUMPDEST DUP3 MLOAD DUP2 LT ISZERO PUSH2 0x3612 JUMPI PUSH2 0x3609 DUP5 DUP5 DUP4 DUP2 MLOAD DUP2 LT PUSH2 0x35DB JUMPI PUSH2 0x35DB PUSH2 0xCA54 JUMP JUMPDEST PUSH1 0x20 MUL PUSH1 0x20 ADD ADD MLOAD PUSH0 ADD MLOAD DUP6 DUP5 DUP2 MLOAD DUP2 LT PUSH2 0x35F8 JUMPI PUSH2 0x35F8 PUSH2 0xCA54 JUMP JUMPDEST PUSH1 0x20 MUL PUSH1 0x20 ADD ADD MLOAD PUSH1 0x20 ADD MLOAD PUSH2 0xA59B JUMP JUMPDEST POP PUSH1 0x1 ADD PUSH2 0x35BC JUMP JUMPDEST POP PUSH1 0x1 SWAP4 SWAP3 POP POP POP JUMP JUMPDEST PUSH0 DUP2 DUP2 MSTORE PUSH1 0x14 PUSH1 0x20 MSTORE PUSH1 0x40 DUP2 KECCAK256 SLOAD PUSH2 0x366B JUMPI PUSH1 0x40 MLOAD PUSH3 0x461BCD PUSH1 0xE5 SHL DUP2 MSTORE PUSH1 0x20 PUSH1 0x4 DUP3 ADD MSTORE PUSH1 0x12 PUSH1 0x24 DUP3 ADD MSTORE PUSH18 0x11905448191BD95CC81B9BDD08195E1A5CDD PUSH1 0x72 SHL PUSH1 0x44 DUP3 ADD MSTORE PUSH1 0x64 ADD PUSH2 0x10E0 JUMP JUMPDEST PUSH0 DUP4 DUP2 MSTORE PUSH1 0x15 PUSH1 0x20 MSTORE PUSH1 0x40 DUP2 KECCAK256 SWAP1 JUMPDEST DUP2 SLOAD DUP2 LT ISZERO PUSH2 0x371B JUMPI DUP4 DUP3 DUP3 DUP2 SLOAD DUP2 LT PUSH2 0x3696 JUMPI PUSH2 0x3696 PUSH2 0xCA54 JUMP JUMPDEST SWAP1 PUSH0 MSTORE PUSH1 0x20 PUSH0 KECCAK256 ADD SLOAD SUB PUSH2 0x3713 JUMPI DUP2 SLOAD DUP3 SWAP1 PUSH2 0x36B4 SWAP1 PUSH1 0x1 SWAP1 PUSH2 0xCB0A JUMP JUMPDEST DUP2 SLOAD DUP2 LT PUSH2 0x36C4 JUMPI PUSH2 0x36C4 PUSH2 0xCA54 JUMP JUMPDEST SWAP1 PUSH0 MSTORE PUSH1 0x20 PUSH0 KECCAK256 ADD SLOAD DUP3 DUP3 DUP2 SLOAD DUP2 LT PUSH2 0x36DF JUMPI PUSH2 0x36DF PUSH2 0xCA54 JUMP JUMPDEST SWAP1 PUSH0 MSTORE PUSH1 0x20 PUSH0 KECCAK256 ADD DUP2 SWAP1 SSTORE POP DUP2 DUP1 SLOAD DUP1 PUSH2 0x36FB JUMPI PUSH2 0x36FB PUSH2 0xCB1D JUMP JUMPDEST PUSH1 0x1 SWAP1 SUB DUP2 DUP2 SWAP1 PUSH0 MSTORE PUSH1 0x20 PUSH0 KECCAK256 ADD PUSH0 SWAP1 SSTORE SWAP1 SSTORE PUSH2 0x371B JUMP JUMPDEST PUSH1 0x1 ADD PUSH2 0x367A JUMP JUMPDEST POP PUSH0 DUP4 DUP2 MSTORE PUSH1 0x14 PUSH1 0x20 MSTORE PUSH1 0x40 DUP2 KECCAK256 DUP2 DUP2 SSTORE SWAP1 PUSH2 0x373A PUSH1 0x1 DUP4 ADD DUP3 PUSH2 0xACD5 JUMP JUMPDEST PUSH2 0x3747 PUSH1 0x2 DUP4 ADD PUSH0 PUSH2 0xACD5 JUMP JUMPDEST POP POP PUSH1 0x21 PUSH0 SWAP1 SLOAD SWAP1 PUSH2 0x100 EXP SWAP1 DIV PUSH1 0x1 PUSH1 0x1 PUSH1 0xA0 SHL SUB AND PUSH1 0x1 PUSH1 0x1 PUSH1 0xA0 SHL SUB AND PUSH4 0x6F2069F0 PUSH1 0x40 MLOAD DUP2 PUSH4 0xFFFFFFFF AND PUSH1 0xE0 SHL DUP2 MSTORE PUSH1 0x4 ADD PUSH0 PUSH1 0x40 MLOAD DUP1 DUP4 SUB DUP2 PUSH0 DUP8 DUP1 EXTCODESIZE ISZERO DUP1 ISZERO PUSH2 0x3795 JUMPI PUSH0 DUP1 REVERT JUMPDEST POP GAS CALL ISZERO DUP1 ISZERO PUSH2 0x37A7 JUMPI RETURNDATASIZE PUSH0 DUP1 RETURNDATACOPY RETURNDATASIZE PUSH0 REVERT JUMPDEST POP PUSH1 0x1 SWAP8 SWAP7 POP POP POP POP POP POP POP JUMP JUMPDEST PUSH1 0x40 DUP1 MLOAD PUSH1 0x3 DUP1 DUP3 MSTORE PUSH1 0x80 DUP3 ADD SWAP1 SWAP3 MSTORE PUSH0 SWAP2 PUSH1 0x20 DUP3 ADD PUSH1 0x60 DUP1 CALLDATASIZE DUP4 CALLDATACOPY ADD SWAP1 POP POP SWAP1 POP PUSH1 0x1 DUP2 PUSH0 DUP2 MLOAD DUP2 LT PUSH2 0x37EB JUMPI PUSH2 0x37EB PUSH2 0xCA54 JUMP JUMPDEST PUSH1 0x20 MUL PUSH1 0x20 ADD ADD DUP2 DUP2 MSTORE POP POP PUSH1 0x2 DUP2 PUSH1 0x1 DUP2 MLOAD DUP2 LT PUSH2 0x380C JUMPI PUSH2 0x380C PUSH2 0xCA54 JUMP JUMPDEST PUSH1 0x20 MUL PUSH1 0x20 ADD ADD DUP2 DUP2 MSTORE POP POP PUSH1 0x3 DUP2 PUSH1 0x2 DUP2 MLOAD DUP2 LT PUSH2 0x382D JUMPI PUSH2 0x382D PUSH2 0xCA54 JUMP JUMPDEST PUSH1 0x20 SWAP1 DUP2 MUL SWAP2 SWAP1 SWAP2 ADD ADD MSTORE PUSH1 0x40 DUP1 MLOAD PUSH1 0x3 DUP1 DUP3 MSTORE PUSH1 0x80 DUP3 ADD SWAP1 SWAP3 MSTORE PUSH0 SWAP2 DUP2 PUSH1 0x20 ADD JUMPDEST PUSH1 0x60 DUP2 MSTORE PUSH1 0x20 ADD SWAP1 PUSH1 0x1 SWAP1 SUB SWAP1 DUP2 PUSH2 0x384F JUMPI SWAP1 POP POP SWAP1 POP PUSH1 0x40 MLOAD DUP1 PUSH1 0x40 ADD PUSH1 0x40 MSTORE DUP1 PUSH1 0x1 DUP2 MSTORE PUSH1 0x20 ADD PUSH1 0x11 PUSH1 0xF8 SHL DUP2 MSTORE POP DUP2 PUSH0 DUP2 MLOAD DUP2 LT PUSH2 0x3892 JUMPI PUSH2 0x3892 PUSH2 0xCA54 JUMP JUMPDEST PUSH1 0x20 MUL PUSH1 0x20 ADD ADD DUP2 SWAP1 MSTORE POP PUSH1 0x40 MLOAD DUP1 PUSH1 0x40 ADD PUSH1 0x40 MSTORE DUP1 PUSH1 0x2 DUP2 MSTORE PUSH1 0x20 ADD PUSH1 0x89 PUSH1 0xF1 SHL DUP2 MSTORE POP DUP2 PUSH1 0x1 DUP2 MLOAD DUP2 LT PUSH2 0x38CA JUMPI PUSH2 0x38CA PUSH2 0xCA54 JUMP JUMPDEST PUSH1 0x20 MUL PUSH1 0x20 ADD ADD DUP2 SWAP1 MSTORE POP PUSH1 0x40 MLOAD DUP1 PUSH1 0x40 ADD PUSH1 0x40 MSTORE DUP1 PUSH1 0x2 DUP2 MSTORE PUSH1 0x20 ADD PUSH2 0x113 PUSH1 0xF0 SHL DUP2 MSTORE POP DUP2 PUSH1 0x2 DUP2 MLOAD DUP2 LT PUSH2 0x3903 JUMPI PUSH2 0x3903 PUSH2 0xCA54 JUMP JUMPDEST PUSH1 0x20 SWAP1 DUP2 MUL SWAP2 SWAP1 SWAP2 ADD ADD MSTORE PUSH1 0x40 DUP1 MLOAD PUSH1 0x3 DUP1 DUP3 MSTORE PUSH1 0x80 DUP3 ADD SWAP1 SWAP3 MSTORE PUSH0 SWAP2 DUP2 PUSH1 0x20 ADD JUMPDEST PUSH1 0x60 DUP2 MSTORE PUSH1 0x20 ADD SWAP1 PUSH1 0x1 SWAP1 SUB SWAP1 DUP2 PUSH2 0x3925 JUMPI SWAP1 POP POP SWAP1 POP PUSH1 0x40 MLOAD DUP1 PUSH1 0x40 ADD PUSH1 0x40 MSTORE DUP1 PUSH1 0x1 DUP2 MSTORE PUSH1 0x20 ADD PUSH1 0x11 PUSH1 0xF8 SHL DUP2 MSTORE POP DUP2 PUSH0 DUP2 MLOAD DUP2 LT PUSH2 0x3968 JUMPI PUSH2 0x3968 PUSH2 0xCA54 JUMP JUMPDEST PUSH1 0x20 MUL PUSH1 0x20 ADD ADD DUP2 SWAP1 MSTORE POP PUSH1 0x40 MLOAD DUP1 PUSH1 0x40 ADD PUSH1 0x40 MSTORE DUP1 PUSH1 0x2 DUP2 MSTORE PUSH1 0x20 ADD PUSH1 0x89 PUSH1 0xF1 SHL DUP2 MSTORE POP DUP2 PUSH1 0x1 DUP2 MLOAD DUP2 LT PUSH2 0x39A0 JUMPI PUSH2 0x39A0 PUSH2 0xCA54 JUMP JUMPDEST PUSH1 0x20 MUL PUSH1 0x20 ADD ADD DUP2 SWAP1 MSTORE POP PUSH1 0x40 MLOAD DUP1 PUSH1 0x40 ADD PUSH1 0x40 MSTORE DUP1 PUSH1 0x2 DUP2 MSTORE PUSH1 0x20 ADD PUSH2 0x113 PUSH1 0xF0 SHL DUP2 MSTORE POP DUP2 PUSH1 0x2 DUP2 MLOAD DUP2 LT PUSH2 0x39D9 JUMPI PUSH2 0x39D9 PUSH2 0xCA54 JUMP JUMPDEST PUSH1 0x20 SWAP1 DUP2 MUL SWAP2 SWAP1 SWAP2 ADD ADD MSTORE PUSH1 0x40 DUP1 MLOAD PUSH1 0x3 DUP1 DUP3 MSTORE PUSH1 0x80 DUP3 ADD SWAP1 SWAP3 MSTORE PUSH0 SWAP2 DUP2 PUSH1 0x20 ADD JUMPDEST PUSH1 0x60 DUP2 MSTORE PUSH1 0x20 ADD SWAP1 PUSH1 0x1 SWAP1 SUB SWAP1 DUP2 PUSH2 0x39FB JUMPI SWAP1 POP POP SWAP1 POP PUSH1 0x40 MLOAD DUP1 PUSH1 0x40 ADD PUSH1 0x40 MSTORE DUP1 PUSH1 0x1 DUP2 MSTORE PUSH1 0x20 ADD PUSH1 0x11 PUSH1 0xF8 SHL DUP2 MSTORE POP DUP2 PUSH0 DUP2 MLOAD DUP2 LT PUSH2 0x3A3E JUMPI PUSH2 0x3A3E PUSH2 0xCA54 JUMP JUMPDEST PUSH1 0x20 MUL PUSH1 0x20 ADD ADD DUP2 SWAP1 MSTORE POP PUSH1 0x40 MLOAD DUP1 PUSH1 0x40 ADD PUSH1 0x40 MSTORE DUP1 PUSH1 0x2 DUP2 MSTORE PUSH1 0x20 ADD PUSH1 0x89 PUSH1 0xF1 SHL DUP2 MSTORE POP DUP2 PUSH1 0x1 DUP2 MLOAD DUP2 LT PUSH2 0x3A76 JUMPI PUSH2 0x3A76 PUSH2 0xCA54 JUMP JUMPDEST PUSH1 0x20 MUL PUSH1 0x20 ADD ADD DUP2 SWAP1 MSTORE POP PUSH1 0x40 MLOAD DUP1 PUSH1 0x40 ADD PUSH1 0x40 MSTORE DUP1 PUSH1 0x2 DUP2 MSTORE PUSH1 0x20 ADD PUSH2 0x113 PUSH1 0xF0 SHL DUP2 MSTORE POP DUP2 PUSH1 0x2 DUP2 MLOAD DUP2 LT PUSH2 0x3AAF JUMPI PUSH2 0x3AAF PUSH2 0xCA54 JUMP JUMPDEST PUSH1 0x20 MUL PUSH1 0x20 ADD ADD DUP2 SWAP1 MSTORE POP PUSH0 PUSH1 0x40 MLOAD DUP1 PUSH2 0x300 ADD PUSH1 0x40 MSTORE DUP1 PUSH1 0x40 MLOAD DUP1 PUSH1 0x40 ADD PUSH1 0x40 MSTORE DUP1 PUSH1 0xC DUP2 MSTORE PUSH1 0x20 ADD PUSH12 0x15195CDD08141C9BD91D58DD PUSH1 0xA2 SHL DUP2 MSTORE POP DUP2 MSTORE PUSH1 0x20 ADD DUP8 DUP2 MSTORE PUSH1 0x20 ADD PUSH1 0x40 MLOAD DUP1 PUSH1 0x40 ADD PUSH1 0x40 MSTORE DUP1 PUSH1 0x10 DUP2 MSTORE PUSH1 0x20 ADD PUSH16 0x10481CD85B5C1B19481C1C9BD91D58DD PUSH1 0x82 SHL DUP2 MSTORE POP DUP2 MSTORE PUSH1 0x20 ADD PUSH9 0x3635C9ADC5DEA00000 DUP2 MSTORE PUSH1 0x20 ADD PUSH9 0x410D586A20A4C00000 DUP2 MSTORE PUSH1 0x20 ADD PUSH9 0x3BA1910BF341B00000 DUP2 MSTORE PUSH1 0x20 ADD PUSH1 0xA DUP2 MSTORE PUSH1 0x20 ADD DUP7 DUP2 MSTORE PUSH1 0x20 ADD DUP6 DUP2 MSTORE PUSH1 0x20 ADD PUSH1 0x64 DUP2 MSTORE PUSH1 0x20 ADD PUSH1 0x32 DUP2 MSTORE PUSH1 0x20 ADD DUP5 DUP2 MSTORE PUSH1 0x20 ADD DUP9 PUSH1 0x1 PUSH1 0x1 PUSH1 0xA0 SHL SUB AND DUP2 MSTORE PUSH1 0x20 ADD PUSH1 0x40 MLOAD DUP1 PUSH1 0x40 ADD PUSH1 0x40 MSTORE DUP1 PUSH1 0x7 DUP2 MSTORE PUSH1 0x20 ADD PUSH7 0x4272616E642041 PUSH1 0xC8 SHL DUP2 MSTORE POP DUP2 MSTORE PUSH1 0x20 ADD PUSH1 0x40 MLOAD DUP1 PUSH1 0x40 ADD PUSH1 0x40 MSTORE DUP1 PUSH1 0x6 DUP2 MSTORE PUSH1 0x20 ADD PUSH6 0x18903CB2B0B9 PUSH1 0xD1 SHL DUP2 MSTORE POP DUP2 MSTORE PUSH1 0x20 ADD PUSH0 ISZERO ISZERO DUP2 MSTORE PUSH1 0x20 ADD DUP4 DUP2 MSTORE PUSH1 0x20 ADD PUSH1 0x40 MLOAD DUP1 PUSH1 0x20 ADD PUSH1 0x40 MSTORE DUP1 PUSH0 DUP2 MSTORE POP DUP2 MSTORE PUSH1 0x20 ADD PUSH0 DUP2 MSTORE PUSH1 0x20 ADD TIMESTAMP PUSH4 0x1E13380 PUSH2 0x3C09 SWAP2 SWAP1 PUSH2 0xCB31 JUMP JUMPDEST DUP2 MSTORE TIMESTAMP PUSH1 0x20 DUP3 ADD MSTORE PUSH0 PUSH1 0x40 DUP1 DUP4 ADD DUP3 SWAP1 MSTORE PUSH1 0x1 PUSH1 0x60 DUP5 ADD DUP2 SWAP1 MSTORE PUSH1 0x80 SWAP1 SWAP4 ADD DUP3 SWAP1 MSTORE DUP1 MLOAD DUP4 DUP2 MSTORE DUP1 DUP3 ADD SWAP1 SWAP2 MSTORE SWAP3 SWAP4 POP SWAP2 SWAP1 DUP2 PUSH1 0x20 ADD JUMPDEST PUSH2 0x3C48 PUSH2 0xADEB JUMP JUMPDEST DUP2 MSTORE PUSH1 0x20 ADD SWAP1 PUSH1 0x1 SWAP1 SUB SWAP1 DUP2 PUSH2 0x3C40 JUMPI POP POP PUSH1 0x40 DUP1 MLOAD PUSH1 0x60 DUP2 ADD SWAP1 SWAP2 MSTORE PUSH1 0x19 PUSH1 0xF9 SHL PUSH1 0x80 DUP3 ADD MSTORE SWAP1 SWAP2 POP DUP1 PUSH1 0x81 DUP2 ADD PUSH1 0x40 MLOAD PUSH1 0x20 DUP2 DUP4 SUB SUB DUP2 MSTORE SWAP1 PUSH1 0x40 MSTORE DUP1 MLOAD SWAP1 PUSH1 0x20 ADD KECCAK256 DUP2 MSTORE PUSH1 0x20 ADD PUSH1 0x40 MLOAD DUP1 PUSH1 0x40 ADD PUSH1 0x40 MSTORE DUP1 PUSH1 0x3 DUP2 MSTORE PUSH1 0x20 ADD PUSH3 0x6B6579 PUSH1 0xE8 SHL DUP2 MSTORE POP DUP2 MSTORE PUSH1 0x20 ADD PUSH1 0x40 MLOAD DUP1 PUSH1 0x40 ADD PUSH1 0x40 MSTORE DUP1 PUSH1 0x5 DUP2 MSTORE PUSH1 0x20 ADD PUSH5 0x76616C7565 PUSH1 0xD8 SHL DUP2 MSTORE POP DUP2 MSTORE POP DUP2 PUSH0 DUP2 MLOAD DUP2 LT PUSH2 0x3CE6 JUMPI PUSH2 0x3CE6 PUSH2 0xCA54 JUMP JUMPDEST PUSH1 0x20 MUL PUSH1 0x20 ADD ADD DUP2 SWAP1 MSTORE POP PUSH0 PUSH2 0x3CFB DUP3 PUSH2 0xA192 JUMP JUMPDEST PUSH1 0x40 DUP1 MLOAD PUSH1 0x1 DUP1 DUP3 MSTORE DUP2 DUP4 ADD SWAP1 SWAP3 MSTORE SWAP2 SWAP3 POP PUSH0 SWAP2 SWAP1 DUP2 PUSH1 0x20 ADD JUMPDEST PUSH2 0x3D1D PUSH2 0xAE0E JUMP JUMPDEST DUP2 MSTORE PUSH1 0x20 ADD SWAP1 PUSH1 0x1 SWAP1 SUB SWAP1 DUP2 PUSH2 0x3D15 JUMPI SWAP1 POP POP SWAP1 POP PUSH1 0x40 MLOAD DUP1 PUSH1 0x60 ADD PUSH1 0x40 MSTORE DUP1 DUP4 DUP2 MSTORE PUSH1 0x20 ADD DUP5 DUP2 MSTORE PUSH1 0x20 ADD PUSH1 0x40 MLOAD DUP1 PUSH1 0xA0 ADD PUSH1 0x40 MSTORE DUP1 PUSH9 0x3635C9ADC5DEA00000 DUP2 MSTORE PUSH1 0x20 ADD PUSH9 0x410D586A20A4C00000 DUP2 MSTORE PUSH1 0x20 ADD PUSH9 0x3BA1910BF341B00000 DUP2 MSTORE PUSH1 0x20 ADD PUSH1 0xA DUP2 MSTORE PUSH1 0x20 ADD PUSH1 0x64 DUP2 MSTORE POP DUP2 MSTORE POP DUP2 PUSH0 DUP2 MLOAD DUP2 LT PUSH2 0x3DA2 JUMPI PUSH2 0x3DA2 PUSH2 0xCA54 JUMP JUMPDEST PUSH1 0x20 MUL PUSH1 0x20 ADD ADD DUP2 SWAP1 MSTORE POP PUSH2 0x3DB7 DUP5 DUP3 PUSH2 0x1F22 JUMP JUMPDEST POP POP POP POP POP POP POP POP POP POP POP JUMP JUMPDEST PUSH1 0xC DUP1 SLOAD PUSH1 0x60 SWAP2 SWAP1 PUSH0 SWAP1 PUSH1 0x1 PUSH1 0x1 PUSH1 0x40 SHL SUB DUP2 GT ISZERO PUSH2 0x3DE5 JUMPI PUSH2 0x3DE5 PUSH2 0xB1A6 JUMP JUMPDEST PUSH1 0x40 MLOAD SWAP1 DUP1 DUP3 MSTORE DUP1 PUSH1 0x20 MUL PUSH1 0x20 ADD DUP3 ADD PUSH1 0x40 MSTORE DUP1 ISZERO PUSH2 0x3E1E JUMPI DUP2 PUSH1 0x20 ADD JUMPDEST PUSH2 0x3E0B PUSH2 0xAD0F JUMP JUMPDEST DUP2 MSTORE PUSH1 0x20 ADD SWAP1 PUSH1 0x1 SWAP1 SUB SWAP1 DUP2 PUSH2 0x3E03 JUMPI SWAP1 POP JUMPDEST POP SWAP1 POP PUSH0 JUMPDEST DUP3 SLOAD DUP2 LT ISZERO PUSH2 0x3FB0 JUMPI PUSH1 0xB PUSH0 DUP5 DUP4 DUP2 SLOAD DUP2 LT PUSH2 0x3E41 JUMPI PUSH2 0x3E41 PUSH2 0xCA54 JUMP JUMPDEST SWAP1 PUSH0 MSTORE PUSH1 0x20 PUSH0 KECCAK256 ADD SLOAD DUP2 MSTORE PUSH1 0x20 ADD SWAP1 DUP2 MSTORE PUSH1 0x20 ADD PUSH0 KECCAK256 PUSH1 0x40 MLOAD DUP1 PUSH1 0x60 ADD PUSH1 0x40 MSTORE SWAP1 DUP2 PUSH0 DUP3 ADD SLOAD DUP2 MSTORE PUSH1 0x20 ADD PUSH1 0x1 DUP3 ADD DUP1 SLOAD PUSH2 0x3E7B SWAP1 PUSH2 0xCA68 JUMP JUMPDEST DUP1 PUSH1 0x1F ADD PUSH1 0x20 DUP1 SWAP2 DIV MUL PUSH1 0x20 ADD PUSH1 0x40 MLOAD SWAP1 DUP2 ADD PUSH1 0x40 MSTORE DUP1 SWAP3 SWAP2 SWAP1 DUP2 DUP2 MSTORE PUSH1 0x20 ADD DUP3 DUP1 SLOAD PUSH2 0x3EA7 SWAP1 PUSH2 0xCA68 JUMP JUMPDEST DUP1 ISZERO PUSH2 0x3EF2 JUMPI DUP1 PUSH1 0x1F LT PUSH2 0x3EC9 JUMPI PUSH2 0x100 DUP1 DUP4 SLOAD DIV MUL DUP4 MSTORE SWAP2 PUSH1 0x20 ADD SWAP2 PUSH2 0x3EF2 JUMP JUMPDEST DUP3 ADD SWAP2 SWAP1 PUSH0 MSTORE PUSH1 0x20 PUSH0 KECCAK256 SWAP1 JUMPDEST DUP2 SLOAD DUP2 MSTORE SWAP1 PUSH1 0x1 ADD SWAP1 PUSH1 0x20 ADD DUP1 DUP4 GT PUSH2 0x3ED5 JUMPI DUP3 SWAP1 SUB PUSH1 0x1F AND DUP3 ADD SWAP2 JUMPDEST POP POP POP POP POP DUP2 MSTORE PUSH1 0x20 ADD PUSH1 0x2 DUP3 ADD DUP1 SLOAD PUSH2 0x3F0B SWAP1 PUSH2 0xCA68 JUMP JUMPDEST DUP1 PUSH1 0x1F ADD PUSH1 0x20 DUP1 SWAP2 DIV MUL PUSH1 0x20 ADD PUSH1 0x40 MLOAD SWAP1 DUP2 ADD PUSH1 0x40 MSTORE DUP1 SWAP3 SWAP2 SWAP1 DUP2 DUP2 MSTORE PUSH1 0x20 ADD DUP3 DUP1 SLOAD PUSH2 0x3F37 SWAP1 PUSH2 0xCA68 JUMP JUMPDEST DUP1 ISZERO PUSH2 0x3F82 JUMPI DUP1 PUSH1 0x1F LT PUSH2 0x3F59 JUMPI PUSH2 0x100 DUP1 DUP4 SLOAD DIV MUL DUP4 MSTORE SWAP2 PUSH1 0x20 ADD SWAP2 PUSH2 0x3F82 JUMP JUMPDEST DUP3 ADD SWAP2 SWAP1 PUSH0 MSTORE PUSH1 0x20 PUSH0 KECCAK256 SWAP1 JUMPDEST DUP2 SLOAD DUP2 MSTORE SWAP1 PUSH1 0x1 ADD SWAP1 PUSH1 0x20 ADD DUP1 DUP4 GT PUSH2 0x3F65 JUMPI DUP3 SWAP1 SUB PUSH1 0x1F AND DUP3 ADD SWAP2 JUMPDEST POP POP POP POP POP DUP2 MSTORE POP POP DUP3 DUP3 DUP2 MLOAD DUP2 LT PUSH2 0x3F9D JUMPI PUSH2 0x3F9D PUSH2 0xCA54 JUMP JUMPDEST PUSH1 0x20 SWAP1 DUP2 MUL SWAP2 SWAP1 SWAP2 ADD ADD MSTORE PUSH1 0x1 ADD PUSH2 0x3E23 JUMP JUMPDEST POP SWAP3 SWAP2 POP POP JUMP JUMPDEST PUSH1 0x3 SLOAD PUSH1 0x60 SWAP1 DUP1 PUSH1 0x1 PUSH1 0x1 PUSH1 0x40 SHL SUB DUP2 GT ISZERO PUSH2 0x3FD5 JUMPI PUSH2 0x3FD5 PUSH2 0xB1A6 JUMP JUMPDEST PUSH1 0x40 MLOAD SWAP1 DUP1 DUP3 MSTORE DUP1 PUSH1 0x20 MUL PUSH1 0x20 ADD DUP3 ADD PUSH1 0x40 MSTORE DUP1 ISZERO PUSH2 0x400E JUMPI DUP2 PUSH1 0x20 ADD JUMPDEST PUSH2 0x3FFB PUSH2 0xAD2F JUMP JUMPDEST DUP2 MSTORE PUSH1 0x20 ADD SWAP1 PUSH1 0x1 SWAP1 SUB SWAP1 DUP2 PUSH2 0x3FF3 JUMPI SWAP1 POP JUMPDEST POP SWAP2 POP PUSH0 JUMPDEST DUP2 DUP2 LT ISZERO PUSH2 0x4056 JUMPI PUSH2 0x4031 PUSH1 0x3 DUP3 DUP2 SLOAD DUP2 LT PUSH2 0x1738 JUMPI PUSH2 0x1738 PUSH2 0xCA54 JUMP JUMPDEST DUP4 DUP3 DUP2 MLOAD DUP2 LT PUSH2 0x4043 JUMPI PUSH2 0x4043 PUSH2 0xCA54 JUMP JUMPDEST PUSH1 0x20 SWAP1 DUP2 MUL SWAP2 SWAP1 SWAP2 ADD ADD MSTORE PUSH1 0x1 ADD PUSH2 0x4013 JUMP JUMPDEST POP POP SWAP1 JUMP JUMPDEST PUSH1 0x8 PUSH1 0x20 MSTORE DUP3 PUSH0 MSTORE PUSH1 0x40 PUSH0 KECCAK256 PUSH1 0x20 MSTORE DUP2 PUSH0 MSTORE PUSH1 0x40 PUSH0 KECCAK256 DUP2 DUP2 SLOAD DUP2 LT PUSH2 0x407E JUMPI PUSH0 DUP1 REVERT JUMPDEST SWAP1 PUSH0 MSTORE PUSH1 0x20 PUSH0 KECCAK256 SWAP1 PUSH1 0x3 MUL ADD PUSH0 SWAP3 POP SWAP3 POP POP POP DUP1 PUSH0 ADD SLOAD SWAP1 DUP1 PUSH1 0x1 ADD DUP1 SLOAD PUSH2 0x40A5 SWAP1 PUSH2 0xCA68 JUMP JUMPDEST DUP1 PUSH1 0x1F ADD PUSH1 0x20 DUP1 SWAP2 DIV MUL PUSH1 0x20 ADD PUSH1 0x40 MLOAD SWAP1 DUP2 ADD PUSH1 0x40 MSTORE DUP1 SWAP3 SWAP2 SWAP1 DUP2 DUP2 MSTORE PUSH1 0x20 ADD DUP3 DUP1 SLOAD PUSH2 0x40D1 SWAP1 PUSH2 0xCA68 JUMP JUMPDEST DUP1 ISZERO PUSH2 0x411C JUMPI DUP1 PUSH1 0x1F LT PUSH2 0x40F3 JUMPI PUSH2 0x100 DUP1 DUP4 SLOAD DIV MUL DUP4 MSTORE SWAP2 PUSH1 0x20 ADD SWAP2 PUSH2 0x411C JUMP JUMPDEST DUP3 ADD SWAP2 SWAP1 PUSH0 MSTORE PUSH1 0x20 PUSH0 KECCAK256 SWAP1 JUMPDEST DUP2 SLOAD DUP2 MSTORE SWAP1 PUSH1 0x1 ADD SWAP1 PUSH1 0x20 ADD DUP1 DUP4 GT PUSH2 0x40FF JUMPI DUP3 SWAP1 SUB PUSH1 0x1F AND DUP3 ADD SWAP2 JUMPDEST POP POP POP POP POP SWAP1 DUP1 PUSH1 0x2 ADD DUP1 SLOAD PUSH2 0x4131 SWAP1 PUSH2 0xCA68 JUMP JUMPDEST DUP1 PUSH1 0x1F ADD PUSH1 0x20 DUP1 SWAP2 DIV MUL PUSH1 0x20 ADD PUSH1 0x40 MLOAD SWAP1 DUP2 ADD PUSH1 0x40 MSTORE DUP1 SWAP3 SWAP2 SWAP1 DUP2 DUP2 MSTORE PUSH1 0x20 ADD DUP3 DUP1 SLOAD PUSH2 0x415D SWAP1 PUSH2 0xCA68 JUMP JUMPDEST DUP1 ISZERO PUSH2 0x41A8 JUMPI DUP1 PUSH1 0x1F LT PUSH2 0x417F JUMPI PUSH2 0x100 DUP1 DUP4 SLOAD DIV MUL DUP4 MSTORE SWAP2 PUSH1 0x20 ADD SWAP2 PUSH2 0x41A8 JUMP JUMPDEST DUP3 ADD SWAP2 SWAP1 PUSH0 MSTORE PUSH1 0x20 PUSH0 KECCAK256 SWAP1 JUMPDEST DUP2 SLOAD DUP2 MSTORE SWAP1 PUSH1 0x1 ADD SWAP1 PUSH1 0x20 ADD DUP1 DUP4 GT PUSH2 0x418B JUMPI DUP3 SWAP1 SUB PUSH1 0x1F AND DUP3 ADD SWAP2 JUMPDEST POP POP POP POP POP SWAP1 POP DUP4 JUMP JUMPDEST PUSH0 DUP1 SLOAD PUSH1 0x1 PUSH1 0x1 PUSH1 0xA0 SHL SUB AND CALLER DUP2 EQ PUSH2 0x41DD JUMPI PUSH1 0x40 MLOAD PUSH3 0x461BCD PUSH1 0xE5 SHL DUP2 MSTORE PUSH1 0x4 ADD PUSH2 0x10E0 SWAP1 PUSH2 0xCA9A JUMP JUMPDEST PUSH0 JUMPDEST DUP4 MLOAD DUP2 LT ISZERO PUSH2 0x3612 JUMPI PUSH2 0x422B DUP5 DUP3 DUP2 MLOAD DUP2 LT PUSH2 0x41FD JUMPI PUSH2 0x41FD PUSH2 0xCA54 JUMP JUMPDEST PUSH1 0x20 MUL PUSH1 0x20 ADD ADD MLOAD PUSH0 ADD MLOAD DUP6 DUP4 DUP2 MLOAD DUP2 LT PUSH2 0x421A JUMPI PUSH2 0x421A PUSH2 0xCA54 JUMP JUMPDEST PUSH1 0x20 MUL PUSH1 0x20 ADD ADD MLOAD PUSH1 0x20 ADD MLOAD PUSH2 0x6EBC JUMP JUMPDEST POP PUSH1 0x1 ADD PUSH2 0x41DF JUMP JUMPDEST PUSH1 0x60 PUSH0 DUP3 MLOAD PUSH1 0x1 PUSH1 0x1 PUSH1 0x40 SHL SUB DUP2 GT ISZERO PUSH2 0x4250 JUMPI PUSH2 0x4250 PUSH2 0xB1A6 JUMP JUMPDEST PUSH1 0x40 MLOAD SWAP1 DUP1 DUP3 MSTORE DUP1 PUSH1 0x20 MUL PUSH1 0x20 ADD DUP3 ADD PUSH1 0x40 MSTORE DUP1 ISZERO PUSH2 0x4279 JUMPI DUP2 PUSH1 0x20 ADD PUSH1 0x20 DUP3 MUL DUP1 CALLDATASIZE DUP4 CALLDATACOPY ADD SWAP1 POP JUMPDEST POP SWAP1 POP PUSH0 JUMPDEST DUP4 MLOAD DUP2 LT ISZERO PUSH2 0x3FB0 JUMPI PUSH1 0x2 PUSH0 DUP6 DUP4 DUP2 MLOAD DUP2 LT PUSH2 0x429C JUMPI PUSH2 0x429C PUSH2 0xCA54 JUMP JUMPDEST PUSH1 0x20 MUL PUSH1 0x20 ADD ADD MLOAD DUP2 MSTORE PUSH1 0x20 ADD SWAP1 DUP2 MSTORE PUSH1 0x20 ADD PUSH0 KECCAK256 PUSH1 0x1 ADD PUSH1 0xC ADD PUSH0 SWAP1 SLOAD SWAP1 PUSH2 0x100 EXP SWAP1 DIV PUSH1 0x1 PUSH1 0x1 PUSH1 0xA0 SHL SUB AND DUP3 DUP3 DUP2 MLOAD DUP2 LT PUSH2 0x42DC JUMPI PUSH2 0x42DC PUSH2 0xCA54 JUMP JUMPDEST PUSH1 0x1 PUSH1 0x1 PUSH1 0xA0 SHL SUB SWAP1 SWAP3 AND PUSH1 0x20 SWAP3 DUP4 MUL SWAP2 SWAP1 SWAP2 ADD SWAP1 SWAP2 ADD MSTORE PUSH1 0x1 ADD PUSH2 0x427E JUMP JUMPDEST PUSH1 0x1F SLOAD PUSH1 0x40 MLOAD PUSH4 0x656952AD PUSH1 0xE0 SHL DUP2 MSTORE PUSH1 0x1 PUSH1 0x1 PUSH1 0xA0 SHL SUB SWAP1 SWAP2 AND SWAP1 PUSH4 0x656952AD SWAP1 PUSH2 0x432C SWAP1 CALLER SWAP1 PUSH1 0x4 ADD PUSH2 0xBF40 JUMP JUMPDEST PUSH1 0x20 PUSH1 0x40 MLOAD DUP1 DUP4 SUB DUP2 DUP7 GAS STATICCALL ISZERO DUP1 ISZERO PUSH2 0x4347 JUMPI RETURNDATASIZE PUSH0 DUP1 RETURNDATACOPY RETURNDATASIZE PUSH0 REVERT JUMPDEST POP POP POP POP PUSH1 0x40 MLOAD RETURNDATASIZE PUSH1 0x1F NOT PUSH1 0x1F DUP3 ADD AND DUP3 ADD DUP1 PUSH1 0x40 MSTORE POP DUP2 ADD SWAP1 PUSH2 0x436B SWAP2 SWAP1 PUSH2 0xCBD9 JUMP JUMPDEST DUP1 PUSH2 0x43E0 JUMPI POP PUSH1 0x1F SLOAD PUSH1 0x40 MLOAD PUSH4 0x59D32027 PUSH1 0xE1 SHL DUP2 MSTORE PUSH1 0x1 PUSH1 0x1 PUSH1 0xA0 SHL SUB SWAP1 SWAP2 AND SWAP1 PUSH4 0xB3A6404E SWAP1 PUSH2 0x43A1 SWAP1 CALLER SWAP1 PUSH1 0x4 ADD PUSH2 0xBF40 JUMP JUMPDEST PUSH1 0x20 PUSH1 0x40 MLOAD DUP1 DUP4 SUB DUP2 DUP7 GAS STATICCALL ISZERO DUP1 ISZERO PUSH2 0x43BC JUMPI RETURNDATASIZE PUSH0 DUP1 RETURNDATACOPY RETURNDATASIZE PUSH0 REVERT JUMPDEST POP POP POP POP PUSH1 0x40 MLOAD RETURNDATASIZE PUSH1 0x1F NOT PUSH1 0x1F DUP3 ADD AND DUP3 ADD DUP1 PUSH1 0x40 MSTORE POP DUP2 ADD SWAP1 PUSH2 0x43E0 SWAP2 SWAP1 PUSH2 0xCBD9 JUMP JUMPDEST PUSH2 0x440D PUSH1 0x37 PUSH1 0x40 MLOAD DUP1 PUSH1 0x40 ADD PUSH1 0x40 MSTORE DUP1 PUSH1 0x1B DUP2 MSTORE PUSH1 0x20 ADD PUSH0 DUP1 MLOAD PUSH1 0x20 PUSH2 0xD30A DUP4 CODECOPY DUP2 MLOAD SWAP2 MSTORE DUP2 MSTORE POP PUSH2 0x184A JUMP JUMPDEST SWAP1 PUSH2 0x442B JUMPI PUSH1 0x40 MLOAD PUSH3 0x461BCD PUSH1 0xE5 SHL DUP2 MSTORE PUSH1 0x4 ADD PUSH2 0x10E0 SWAP2 SWAP1 PUSH2 0xB975 JUMP JUMPDEST POP PUSH0 JUMPDEST DUP2 MLOAD DUP2 LT ISZERO PUSH2 0x168D JUMPI PUSH2 0x4498 DUP3 DUP3 DUP2 MLOAD DUP2 LT PUSH2 0x444C JUMPI PUSH2 0x444C PUSH2 0xCA54 JUMP JUMPDEST PUSH1 0x20 MUL PUSH1 0x20 ADD ADD MLOAD PUSH0 ADD MLOAD DUP4 DUP4 DUP2 MLOAD DUP2 LT PUSH2 0x4469 JUMPI PUSH2 0x4469 PUSH2 0xCA54 JUMP JUMPDEST PUSH1 0x20 MUL PUSH1 0x20 ADD ADD MLOAD PUSH1 0x20 ADD MLOAD DUP5 DUP5 DUP2 MLOAD DUP2 LT PUSH2 0x4487 JUMPI PUSH2 0x4487 PUSH2 0xCA54 JUMP JUMPDEST PUSH1 0x20 MUL PUSH1 0x20 ADD ADD MLOAD PUSH1 0x40 ADD MLOAD PUSH2 0xA699 JUMP JUMPDEST PUSH1 0x1 ADD PUSH2 0x442E JUMP JUMPDEST PUSH1 0x60 DUP2 MLOAD PUSH1 0x1 PUSH1 0x1 PUSH1 0x40 SHL SUB DUP2 GT ISZERO PUSH2 0x44BB JUMPI PUSH2 0x44BB PUSH2 0xB1A6 JUMP JUMPDEST PUSH1 0x40 MLOAD SWAP1 DUP1 DUP3 MSTORE DUP1 PUSH1 0x20 MUL PUSH1 0x20 ADD DUP3 ADD PUSH1 0x40 MSTORE DUP1 ISZERO PUSH2 0x44E4 JUMPI DUP2 PUSH1 0x20 ADD PUSH1 0x20 DUP3 MUL DUP1 CALLDATASIZE DUP4 CALLDATACOPY ADD SWAP1 POP JUMPDEST POP SWAP1 POP PUSH0 JUMPDEST DUP3 MLOAD DUP2 LT ISZERO PUSH2 0x3FB0 JUMPI PUSH1 0x13 PUSH0 DUP6 DUP2 MSTORE PUSH1 0x20 ADD SWAP1 DUP2 MSTORE PUSH1 0x20 ADD PUSH0 KECCAK256 PUSH0 DUP5 DUP4 DUP2 MLOAD DUP2 LT PUSH2 0x4516 JUMPI PUSH2 0x4516 PUSH2 0xCA54 JUMP JUMPDEST PUSH1 0x20 MUL PUSH1 0x20 ADD ADD MLOAD DUP2 MSTORE PUSH1 0x20 ADD SWAP1 DUP2 MSTORE PUSH1 0x20 ADD PUSH0 KECCAK256 SLOAD DUP3 DUP3 DUP2 MLOAD DUP2 LT PUSH2 0x453E JUMPI PUSH2 0x453E PUSH2 0xCA54 JUMP JUMPDEST PUSH1 0x20 SWAP1 DUP2 MUL SWAP2 SWAP1 SWAP2 ADD ADD MSTORE PUSH1 0x1 ADD PUSH2 0x44E9 JUMP JUMPDEST PUSH1 0x18 PUSH1 0x20 MSTORE DUP2 PUSH0 MSTORE PUSH1 0x40 PUSH0 KECCAK256 DUP2 DUP2 SLOAD DUP2 LT PUSH2 0x456A JUMPI PUSH0 DUP1 REVERT JUMPDEST PUSH0 SWAP2 DUP3 MSTORE PUSH1 0x20 SWAP1 SWAP2 KECCAK256 PUSH1 0x2 SWAP1 SWAP2 MUL ADD DUP1 SLOAD PUSH1 0x1 SWAP1 SWAP2 ADD SLOAD SWAP1 SWAP3 POP SWAP1 POP DUP3 JUMP JUMPDEST PUSH1 0x60 DUP1 PUSH1 0x60 DUP1 PUSH1 0x60 DUP1 PUSH2 0x459B DUP8 PUSH2 0xE71 JUMP JUMPDEST PUSH0 DUP9 DUP2 MSTORE PUSH1 0x11 PUSH1 0x20 SWAP1 DUP2 MSTORE PUSH1 0x40 SWAP2 DUP3 SWAP1 KECCAK256 DUP1 SLOAD DUP4 MLOAD DUP2 DUP5 MUL DUP2 ADD DUP5 ADD SWAP1 SWAP5 MSTORE DUP1 DUP5 MSTORE SWAP4 SWAP10 POP PUSH2 0x45FE SWAP4 DUP12 SWAP4 SWAP3 DUP4 ADD DUP3 DUP3 DUP1 ISZERO PUSH2 0x45F4 JUMPI PUSH1 0x20 MUL DUP3 ADD SWAP2 SWAP1 PUSH0 MSTORE PUSH1 0x20 PUSH0 KECCAK256 SWAP1 JUMPDEST DUP2 SLOAD DUP2 MSTORE PUSH1 0x20 ADD SWAP1 PUSH1 0x1 ADD SWAP1 DUP1 DUP4 GT PUSH2 0x45E0 JUMPI JUMPDEST POP POP POP POP POP PUSH2 0x44A0 JUMP JUMPDEST SWAP1 POP PUSH2 0x4609 DUP8 PUSH2 0x5AA5 JUMP JUMPDEST SWAP5 POP PUSH2 0x4614 DUP8 PUSH2 0x1463 JUMP JUMPDEST PUSH1 0x21 SLOAD PUSH1 0x40 MLOAD PUSH4 0x1C3A394F PUSH1 0xE2 SHL DUP2 MSTORE PUSH1 0x4 DUP2 ADD DUP11 SWAP1 MSTORE SWAP2 SWAP6 POP PUSH1 0x1 PUSH1 0x1 PUSH1 0xA0 SHL SUB AND SWAP1 PUSH4 0x70E8E53C SWAP1 PUSH1 0x24 ADD PUSH0 PUSH1 0x40 MLOAD DUP1 DUP4 SUB DUP2 DUP7 GAS STATICCALL ISZERO DUP1 ISZERO PUSH2 0x465B JUMPI RETURNDATASIZE PUSH0 DUP1 RETURNDATACOPY RETURNDATASIZE PUSH0 REVERT JUMPDEST POP POP POP POP PUSH1 0x40 MLOAD RETURNDATASIZE PUSH0 DUP3 RETURNDATACOPY PUSH1 0x1F RETURNDATASIZE SWAP1 DUP2 ADD PUSH1 0x1F NOT AND DUP3 ADD PUSH1 0x40 MSTORE PUSH2 0x4682 SWAP2 SWAP1 DUP2 ADD SWAP1 PUSH2 0xCED1 JUMP JUMPDEST PUSH1 0x21 SLOAD PUSH1 0x40 MLOAD PUSH4 0x32FD985 PUSH1 0xE4 SHL DUP2 MSTORE PUSH1 0x4 DUP2 ADD DUP11 SWAP1 MSTORE SWAP2 SWAP5 POP PUSH1 0x1 PUSH1 0x1 PUSH1 0xA0 SHL SUB AND SWAP1 PUSH4 0x32FD9850 SWAP1 PUSH1 0x24 ADD PUSH0 PUSH1 0x40 MLOAD DUP1 DUP4 SUB DUP2 DUP7 GAS STATICCALL ISZERO DUP1 ISZERO PUSH2 0x46C9 JUMPI RETURNDATASIZE PUSH0 DUP1 RETURNDATACOPY RETURNDATASIZE PUSH0 REVERT JUMPDEST POP POP POP POP PUSH1 0x40 MLOAD RETURNDATASIZE PUSH0 DUP3 RETURNDATACOPY PUSH1 0x1F RETURNDATASIZE SWAP1 DUP2 ADD PUSH1 0x1F NOT AND DUP3 ADD PUSH1 0x40 MSTORE PUSH2 0x46F0 SWAP2 SWAP1 DUP2 ADD SWAP1 PUSH2 0xCED1 JUMP JUMPDEST SWAP2 POP SWAP2 SWAP4 SWAP6 POP SWAP2 SWAP4 SWAP6 JUMP JUMPDEST PUSH1 0x1 PUSH1 0x1 PUSH1 0xA0 SHL SUB DUP2 AND PUSH0 SWAP1 DUP2 MSTORE PUSH1 0xA PUSH1 0x20 MSTORE PUSH1 0x40 DUP2 KECCAK256 DUP1 SLOAD PUSH1 0x60 SWAP3 SWAP1 PUSH1 0x1 PUSH1 0x1 PUSH1 0x40 SHL SUB DUP2 GT ISZERO PUSH2 0x472F JUMPI PUSH2 0x472F PUSH2 0xB1A6 JUMP JUMPDEST PUSH1 0x40 MLOAD SWAP1 DUP1 DUP3 MSTORE DUP1 PUSH1 0x20 MUL PUSH1 0x20 ADD DUP3 ADD PUSH1 0x40 MSTORE DUP1 ISZERO PUSH2 0x4768 JUMPI DUP2 PUSH1 0x20 ADD JUMPDEST PUSH2 0x4755 PUSH2 0xAE2C JUMP JUMPDEST DUP2 MSTORE PUSH1 0x20 ADD SWAP1 PUSH1 0x1 SWAP1 SUB SWAP1 DUP2 PUSH2 0x474D JUMPI SWAP1 POP JUMPDEST POP SWAP1 POP PUSH0 JUMPDEST DUP3 SLOAD DUP2 LT ISZERO PUSH2 0x10AD JUMPI PUSH1 0x2 PUSH0 DUP5 DUP4 DUP2 SLOAD DUP2 LT PUSH2 0x478B JUMPI PUSH2 0x478B PUSH2 0xCA54 JUMP JUMPDEST SWAP1 PUSH0 MSTORE PUSH1 0x20 PUSH0 KECCAK256 ADD SLOAD DUP2 MSTORE PUSH1 0x20 ADD SWAP1 DUP2 MSTORE PUSH1 0x20 ADD PUSH0 KECCAK256 PUSH1 0x40 MLOAD DUP1 PUSH1 0x80 ADD PUSH1 0x40 MSTORE SWAP1 DUP2 PUSH0 DUP3 ADD SLOAD DUP2 MSTORE PUSH1 0x20 ADD PUSH1 0x1 DUP3 ADD PUSH1 0x40 MLOAD DUP1 PUSH2 0x300 ADD PUSH1 0x40 MSTORE SWAP1 DUP2 PUSH0 DUP3 ADD DUP1 SLOAD PUSH2 0x47D5 SWAP1 PUSH2 0xCA68 JUMP JUMPDEST DUP1 PUSH1 0x1F ADD PUSH1 0x20 DUP1 SWAP2 DIV MUL PUSH1 0x20 ADD PUSH1 0x40 MLOAD SWAP1 DUP2 ADD PUSH1 0x40 MSTORE DUP1 SWAP3 SWAP2 SWAP1 DUP2 DUP2 MSTORE PUSH1 0x20 ADD DUP3 DUP1 SLOAD PUSH2 0x4801 SWAP1 PUSH2 0xCA68 JUMP JUMPDEST DUP1 ISZERO PUSH2 0x484C JUMPI DUP1 PUSH1 0x1F LT PUSH2 0x4823 JUMPI PUSH2 0x100 DUP1 DUP4 SLOAD DIV MUL DUP4 MSTORE SWAP2 PUSH1 0x20 ADD SWAP2 PUSH2 0x484C JUMP JUMPDEST DUP3 ADD SWAP2 SWAP1 PUSH0 MSTORE PUSH1 0x20 PUSH0 KECCAK256 SWAP1 JUMPDEST DUP2 SLOAD DUP2 MSTORE SWAP1 PUSH1 0x1 ADD SWAP1 PUSH1 0x20 ADD DUP1 DUP4 GT PUSH2 0x482F JUMPI DUP3 SWAP1 SUB PUSH1 0x1F AND DUP3 ADD SWAP2 JUMPDEST POP POP POP POP POP DUP2 MSTORE PUSH1 0x20 ADD PUSH1 0x1 DUP3 ADD SLOAD DUP2 MSTORE PUSH1 0x20 ADD PUSH1 0x2 DUP3 ADD DUP1 SLOAD PUSH2 0x486F SWAP1 PUSH2 0xCA68 JUMP JUMPDEST DUP1 PUSH1 0x1F ADD PUSH1 0x20 DUP1 SWAP2 DIV MUL PUSH1 0x20 ADD PUSH1 0x40 MLOAD SWAP1 DUP2 ADD PUSH1 0x40 MSTORE DUP1 SWAP3 SWAP2 SWAP1 DUP2 DUP2 MSTORE PUSH1 0x20 ADD DUP3 DUP1 SLOAD PUSH2 0x489B SWAP1 PUSH2 0xCA68 JUMP JUMPDEST DUP1 ISZERO PUSH2 0x48E6 JUMPI DUP1 PUSH1 0x1F LT PUSH2 0x48BD JUMPI PUSH2 0x100 DUP1 DUP4 SLOAD DIV MUL DUP4 MSTORE SWAP2 PUSH1 0x20 ADD SWAP2 PUSH2 0x48E6 JUMP JUMPDEST DUP3 ADD SWAP2 SWAP1 PUSH0 MSTORE PUSH1 0x20 PUSH0 KECCAK256 SWAP1 JUMPDEST DUP2 SLOAD DUP2 MSTORE SWAP1 PUSH1 0x1 ADD SWAP1 PUSH1 0x20 ADD DUP1 DUP4 GT PUSH2 0x48C9 JUMPI DUP3 SWAP1 SUB PUSH1 0x1F AND DUP3 ADD SWAP2 JUMPDEST POP POP POP POP POP DUP2 MSTORE PUSH1 0x20 ADD PUSH1 0x3 DUP3 ADD SLOAD DUP2 MSTORE PUSH1 0x20 ADD PUSH1 0x4 DUP3 ADD SLOAD DUP2 MSTORE PUSH1 0x20 ADD PUSH1 0x5 DUP3 ADD SLOAD DUP2 MSTORE PUSH1 0x20 ADD PUSH1 0x6 DUP3 ADD SLOAD DUP2 MSTORE PUSH1 0x20 ADD PUSH1 0x7 DUP3 ADD DUP1 SLOAD DUP1 PUSH1 0x20 MUL PUSH1 0x20 ADD PUSH1 0x40 MLOAD SWAP1 DUP2 ADD PUSH1 0x40 MSTORE DUP1 SWAP3 SWAP2 SWAP1 DUP2 DUP2 MSTORE PUSH1 0x20 ADD DUP3 DUP1 SLOAD DUP1 ISZERO PUSH2 0x4964 JUMPI PUSH1 0x20 MUL DUP3 ADD SWAP2 SWAP1 PUSH0 MSTORE PUSH1 0x20 PUSH0 KECCAK256 SWAP1 JUMPDEST DUP2 SLOAD DUP2 MSTORE PUSH1 0x20 ADD SWAP1 PUSH1 0x1 ADD SWAP1 DUP1 DUP4 GT PUSH2 0x4950 JUMPI JUMPDEST POP POP POP POP POP DUP2 MSTORE PUSH1 0x20 ADD PUSH1 0x8 DUP3 ADD DUP1 SLOAD DUP1 PUSH1 0x20 MUL PUSH1 0x20 ADD PUSH1 0x40 MLOAD SWAP1 DUP2 ADD PUSH1 0x40 MSTORE DUP1 SWAP3 SWAP2 SWAP1 DUP2 DUP2 MSTORE PUSH1 0x20 ADD PUSH0 SWAP1 JUMPDEST DUP3 DUP3 LT ISZERO PUSH2 0x4A39 JUMPI DUP4 DUP3 SWAP1 PUSH0 MSTORE PUSH1 0x20 PUSH0 KECCAK256 ADD DUP1 SLOAD PUSH2 0x49AE SWAP1 PUSH2 0xCA68 JUMP JUMPDEST DUP1 PUSH1 0x1F ADD PUSH1 0x20 DUP1 SWAP2 DIV MUL PUSH1 0x20 ADD PUSH1 0x40 MLOAD SWAP1 DUP2 ADD PUSH1 0x40 MSTORE DUP1 SWAP3 SWAP2 SWAP1 DUP2 DUP2 MSTORE PUSH1 0x20 ADD DUP3 DUP1 SLOAD PUSH2 0x49DA SWAP1 PUSH2 0xCA68 JUMP JUMPDEST DUP1 ISZERO PUSH2 0x4A25 JUMPI DUP1 PUSH1 0x1F LT PUSH2 0x49FC JUMPI PUSH2 0x100 DUP1 DUP4 SLOAD DIV MUL DUP4 MSTORE SWAP2 PUSH1 0x20 ADD SWAP2 PUSH2 0x4A25 JUMP JUMPDEST DUP3 ADD SWAP2 SWAP1 PUSH0 MSTORE PUSH1 0x20 PUSH0 KECCAK256 SWAP1 JUMPDEST DUP2 SLOAD DUP2 MSTORE SWAP1 PUSH1 0x1 ADD SWAP1 PUSH1 0x20 ADD DUP1 DUP4 GT PUSH2 0x4A08 JUMPI DUP3 SWAP1 SUB PUSH1 0x1F AND DUP3 ADD SWAP2 JUMPDEST POP POP POP POP POP DUP2 MSTORE PUSH1 0x20 ADD SWAP1 PUSH1 0x1 ADD SWAP1 PUSH2 0x4991 JUMP JUMPDEST POP POP POP POP DUP2 MSTORE PUSH1 0x20 ADD PUSH1 0x9 DUP3 ADD SLOAD DUP2 MSTORE PUSH1 0x20 ADD PUSH1 0xA DUP3 ADD SLOAD DUP2 MSTORE PUSH1 0x20 ADD PUSH1 0xB DUP3 ADD DUP1 SLOAD DUP1 PUSH1 0x20 MUL PUSH1 0x20 ADD PUSH1 0x40 MLOAD SWAP1 DUP2 ADD PUSH1 0x40 MSTORE DUP1 SWAP3 SWAP2 SWAP1 DUP2 DUP2 MSTORE PUSH1 0x20 ADD PUSH0 SWAP1 JUMPDEST DUP3 DUP3 LT ISZERO PUSH2 0x4B21 JUMPI DUP4 DUP3 SWAP1 PUSH0 MSTORE PUSH1 0x20 PUSH0 KECCAK256 ADD DUP1 SLOAD PUSH2 0x4A96 SWAP1 PUSH2 0xCA68 JUMP JUMPDEST DUP1 PUSH1 0x1F ADD PUSH1 0x20 DUP1 SWAP2 DIV MUL PUSH1 0x20 ADD PUSH1 0x40 MLOAD SWAP1 DUP2 ADD PUSH1 0x40 MSTORE DUP1 SWAP3 SWAP2 SWAP1 DUP2 DUP2 MSTORE PUSH1 0x20 ADD DUP3 DUP1 SLOAD PUSH2 0x4AC2 SWAP1 PUSH2 0xCA68 JUMP JUMPDEST DUP1 ISZERO PUSH2 0x4B0D JUMPI DUP1 PUSH1 0x1F LT PUSH2 0x4AE4 JUMPI PUSH2 0x100 DUP1 DUP4 SLOAD DIV MUL DUP4 MSTORE SWAP2 PUSH1 0x20 ADD SWAP2 PUSH2 0x4B0D JUMP JUMPDEST DUP3 ADD SWAP2 SWAP1 PUSH0 MSTORE PUSH1 0x20 PUSH0 KECCAK256 SWAP1 JUMPDEST DUP2 SLOAD DUP2 MSTORE SWAP1 PUSH1 0x1 ADD SWAP1 PUSH1 0x20 ADD DUP1 DUP4 GT PUSH2 0x4AF0 JUMPI DUP3 SWAP1 SUB PUSH1 0x1F AND DUP3 ADD SWAP2 JUMPDEST POP POP POP POP POP DUP2 MSTORE PUSH1 0x20 ADD SWAP1 PUSH1 0x1 ADD SWAP1 PUSH2 0x4A79 JUMP JUMPDEST POP POP POP SWAP1 DUP3 MSTORE POP PUSH1 0xC DUP3 ADD SLOAD PUSH1 0x1 PUSH1 0x1 PUSH1 0xA0 SHL SUB AND PUSH1 0x20 DUP3 ADD MSTORE PUSH1 0xD DUP3 ADD DUP1 SLOAD PUSH1 0x40 SWAP1 SWAP3 ADD SWAP2 PUSH2 0x4B50 SWAP1 PUSH2 0xCA68 JUMP JUMPDEST DUP1 PUSH1 0x1F ADD PUSH1 0x20 DUP1 SWAP2 DIV MUL PUSH1 0x20 ADD PUSH1 0x40 MLOAD SWAP1 DUP2 ADD PUSH1 0x40 MSTORE DUP1 SWAP3 SWAP2 SWAP1 DUP2 DUP2 MSTORE PUSH1 0x20 ADD DUP3 DUP1 SLOAD PUSH2 0x4B7C SWAP1 PUSH2 0xCA68 JUMP JUMPDEST DUP1 ISZERO PUSH2 0x4BC7 JUMPI DUP1 PUSH1 0x1F LT PUSH2 0x4B9E JUMPI PUSH2 0x100 DUP1 DUP4 SLOAD DIV MUL DUP4 MSTORE SWAP2 PUSH1 0x20 ADD SWAP2 PUSH2 0x4BC7 JUMP JUMPDEST DUP3 ADD SWAP2 SWAP1 PUSH0 MSTORE PUSH1 0x20 PUSH0 KECCAK256 SWAP1 JUMPDEST DUP2 SLOAD DUP2 MSTORE SWAP1 PUSH1 0x1 ADD SWAP1 PUSH1 0x20 ADD DUP1 DUP4 GT PUSH2 0x4BAA JUMPI DUP3 SWAP1 SUB PUSH1 0x1F AND DUP3 ADD SWAP2 JUMPDEST POP POP POP POP POP DUP2 MSTORE PUSH1 0x20 ADD PUSH1 0xE DUP3 ADD DUP1 SLOAD PUSH2 0x4BE0 SWAP1 PUSH2 0xCA68 JUMP JUMPDEST DUP1 PUSH1 0x1F ADD PUSH1 0x20 DUP1 SWAP2 DIV MUL PUSH1 0x20 ADD PUSH1 0x40 MLOAD SWAP1 DUP2 ADD PUSH1 0x40 MSTORE DUP1 SWAP3 SWAP2 SWAP1 DUP2 DUP2 MSTORE PUSH1 0x20 ADD DUP3 DUP1 SLOAD PUSH2 0x4C0C SWAP1 PUSH2 0xCA68 JUMP JUMPDEST DUP1 ISZERO PUSH2 0x4C57 JUMPI DUP1 PUSH1 0x1F LT PUSH2 0x4C2E JUMPI PUSH2 0x100 DUP1 DUP4 SLOAD DIV MUL DUP4 MSTORE SWAP2 PUSH1 0x20 ADD SWAP2 PUSH2 0x4C57 JUMP JUMPDEST DUP3 ADD SWAP2 SWAP1 PUSH0 MSTORE PUSH1 0x20 PUSH0 KECCAK256 SWAP1 JUMPDEST DUP2 SLOAD DUP2 MSTORE SWAP1 PUSH1 0x1 ADD SWAP1 PUSH1 0x20 ADD DUP1 DUP4 GT PUSH2 0x4C3A JUMPI DUP3 SWAP1 SUB PUSH1 0x1F AND DUP3 ADD SWAP2 JUMPDEST POP POP POP SWAP2 DUP4 MSTORE POP POP PUSH1 0xF DUP3 ADD SLOAD PUSH1 0xFF AND ISZERO ISZERO PUSH1 0x20 DUP1 DUP4 ADD SWAP2 SWAP1 SWAP2 MSTORE PUSH1 0x10 DUP4 ADD DUP1 SLOAD PUSH1 0x40 DUP1 MLOAD DUP3 DUP6 MUL DUP2 ADD DUP6 ADD DUP3 MSTORE DUP3 DUP2 MSTORE SWAP5 ADD SWAP4 SWAP3 PUSH0 SWAP1 DUP5 ADD JUMPDEST DUP3 DUP3 LT ISZERO PUSH2 0x4D39 JUMPI DUP4 DUP3 SWAP1 PUSH0 MSTORE PUSH1 0x20 PUSH0 KECCAK256 ADD DUP1 SLOAD PUSH2 0x4CAE SWAP1 PUSH2 0xCA68 JUMP JUMPDEST DUP1 PUSH1 0x1F ADD PUSH1 0x20 DUP1 SWAP2 DIV MUL PUSH1 0x20 ADD PUSH1 0x40 MLOAD SWAP1 DUP2 ADD PUSH1 0x40 MSTORE DUP1 SWAP3 SWAP2 SWAP1 DUP2 DUP2 MSTORE PUSH1 0x20 ADD DUP3 DUP1 SLOAD PUSH2 0x4CDA SWAP1 PUSH2 0xCA68 JUMP JUMPDEST DUP1 ISZERO PUSH2 0x4D25 JUMPI DUP1 PUSH1 0x1F LT PUSH2 0x4CFC JUMPI PUSH2 0x100 DUP1 DUP4 SLOAD DIV MUL DUP4 MSTORE SWAP2 PUSH1 0x20 ADD SWAP2 PUSH2 0x4D25 JUMP JUMPDEST DUP3 ADD SWAP2 SWAP1 PUSH0 MSTORE PUSH1 0x20 PUSH0 KECCAK256 SWAP1 JUMPDEST DUP2 SLOAD DUP2 MSTORE SWAP1 PUSH1 0x1 ADD SWAP1 PUSH1 0x20 ADD DUP1 DUP4 GT PUSH2 0x4D08 JUMPI DUP3 SWAP1 SUB PUSH1 0x1F AND DUP3 ADD SWAP2 JUMPDEST POP POP POP POP POP DUP2 MSTORE PUSH1 0x20 ADD SWAP1 PUSH1 0x1 ADD SWAP1 PUSH2 0x4C91 JUMP JUMPDEST POP POP POP POP DUP2 MSTORE PUSH1 0x20 ADD PUSH1 0x11 DUP3 ADD DUP1 SLOAD PUSH2 0x4D51 SWAP1 PUSH2 0xCA68 JUMP JUMPDEST DUP1 PUSH1 0x1F ADD PUSH1 0x20 DUP1 SWAP2 DIV MUL PUSH1 0x20 ADD PUSH1 0x40 MLOAD SWAP1 DUP2 ADD PUSH1 0x40 MSTORE DUP1 SWAP3 SWAP2 SWAP1 DUP2 DUP2 MSTORE PUSH1 0x20 ADD DUP3 DUP1 SLOAD PUSH2 0x4D7D SWAP1 PUSH2 0xCA68 JUMP JUMPDEST DUP1 ISZERO PUSH2 0x4DC8 JUMPI DUP1 PUSH1 0x1F LT PUSH2 0x4D9F JUMPI PUSH2 0x100 DUP1 DUP4 SLOAD DIV MUL DUP4 MSTORE SWAP2 PUSH1 0x20 ADD SWAP2 PUSH2 0x4DC8 JUMP JUMPDEST DUP3 ADD SWAP2 SWAP1 PUSH0 MSTORE PUSH1 0x20 PUSH0 KECCAK256 SWAP1 JUMPDEST DUP2 SLOAD DUP2 MSTORE SWAP1 PUSH1 0x1 ADD SWAP1 PUSH1 0x20 ADD DUP1 DUP4 GT PUSH2 0x4DAB JUMPI DUP3 SWAP1 SUB PUSH1 0x1F AND DUP3 ADD SWAP2 JUMPDEST POP POP POP SWAP2 DUP4 MSTORE POP POP PUSH1 0x12 DUP3 ADD SLOAD PUSH1 0x20 DUP1 DUP4 ADD SWAP2 SWAP1 SWAP2 MSTORE PUSH1 0x13 DUP4 ADD SLOAD PUSH1 0x40 DUP1 DUP5 ADD SWAP2 SWAP1 SWAP2 MSTORE PUSH1 0x14 DUP5 ADD SLOAD PUSH1 0x60 DUP5 ADD MSTORE PUSH1 0x15 DUP5 ADD SLOAD PUSH1 0xFF DUP1 DUP3 AND ISZERO ISZERO PUSH1 0x80 DUP7 ADD MSTORE PUSH2 0x100 SWAP1 SWAP2 DIV AND ISZERO ISZERO PUSH1 0xA0 DUP5 ADD MSTORE PUSH1 0x16 SWAP1 SWAP4 ADD SLOAD PUSH1 0xC0 SWAP1 SWAP3 ADD SWAP2 SWAP1 SWAP2 MSTORE SWAP2 DUP4 MSTORE PUSH1 0x18 DUP5 ADD SLOAD SWAP2 DUP4 ADD SWAP2 SWAP1 SWAP2 MSTORE PUSH1 0x19 SWAP1 SWAP3 ADD SLOAD SWAP2 ADD MSTORE DUP3 MLOAD DUP4 SWAP1 DUP4 SWAP1 DUP2 LT PUSH2 0x4E50 JUMPI PUSH2 0x4E50 PUSH2 0xCA54 JUMP JUMPDEST PUSH1 0x20 SWAP1 DUP2 MUL SWAP2 SWAP1 SWAP2 ADD ADD MSTORE PUSH1 0x1 ADD PUSH2 0x476D JUMP JUMPDEST PUSH1 0x16 SLOAD PUSH1 0x60 SWAP1 PUSH0 SWAP1 PUSH1 0x1 PUSH1 0x1 PUSH1 0x40 SHL SUB DUP2 GT ISZERO PUSH2 0x4E82 JUMPI PUSH2 0x4E82 PUSH2 0xB1A6 JUMP JUMPDEST PUSH1 0x40 MLOAD SWAP1 DUP1 DUP3 MSTORE DUP1 PUSH1 0x20 MUL PUSH1 0x20 ADD DUP3 ADD PUSH1 0x40 MSTORE DUP1 ISZERO PUSH2 0x4EBB JUMPI DUP2 PUSH1 0x20 ADD JUMPDEST PUSH2 0x4EA8 PUSH2 0xAD0F JUMP JUMPDEST DUP2 MSTORE PUSH1 0x20 ADD SWAP1 PUSH1 0x1 SWAP1 SUB SWAP1 DUP2 PUSH2 0x4EA0 JUMPI SWAP1 POP JUMPDEST POP SWAP1 POP PUSH0 JUMPDEST PUSH1 0x16 SLOAD DUP2 LT ISZERO PUSH2 0x1224 JUMPI PUSH1 0x14 PUSH0 PUSH1 0x16 DUP4 DUP2 SLOAD DUP2 LT PUSH2 0x4EE0 JUMPI PUSH2 0x4EE0 PUSH2 0xCA54 JUMP JUMPDEST SWAP1 PUSH0 MSTORE PUSH1 0x20 PUSH0 KECCAK256 ADD SLOAD DUP2 MSTORE PUSH1 0x20 ADD SWAP1 DUP2 MSTORE PUSH1 0x20 ADD PUSH0 KECCAK256 PUSH1 0x40 MLOAD DUP1 PUSH1 0x60 ADD PUSH1 0x40 MSTORE SWAP1 DUP2 PUSH0 DUP3 ADD SLOAD DUP2 MSTORE PUSH1 0x20 ADD PUSH1 0x1 DUP3 ADD DUP1 SLOAD PUSH2 0x4F1A SWAP1 PUSH2 0xCA68 JUMP JUMPDEST DUP1 PUSH1 0x1F ADD PUSH1 0x20 DUP1 SWAP2 DIV MUL PUSH1 0x20 ADD PUSH1 0x40 MLOAD SWAP1 DUP2 ADD PUSH1 0x40 MSTORE DUP1 SWAP3 SWAP2 SWAP1 DUP2 DUP2 MSTORE PUSH1 0x20 ADD DUP3 DUP1 SLOAD PUSH2 0x4F46 SWAP1 PUSH2 0xCA68 JUMP JUMPDEST DUP1 ISZERO PUSH2 0x4F91 JUMPI DUP1 PUSH1 0x1F LT PUSH2 0x4F68 JUMPI PUSH2 0x100 DUP1 DUP4 SLOAD DIV MUL DUP4 MSTORE SWAP2 PUSH1 0x20 ADD SWAP2 PUSH2 0x4F91 JUMP JUMPDEST DUP3 ADD SWAP2 SWAP1 PUSH0 MSTORE PUSH1 0x20 PUSH0 KECCAK256 SWAP1 JUMPDEST DUP2 SLOAD DUP2 MSTORE SWAP1 PUSH1 0x1 ADD SWAP1 PUSH1 0x20 ADD DUP1 DUP4 GT PUSH2 0x4F74 JUMPI DUP3 SWAP1 SUB PUSH1 0x1F AND DUP3 ADD SWAP2 JUMPDEST POP POP POP POP POP DUP2 MSTORE PUSH1 0x20 ADD PUSH1 0x2 DUP3 ADD DUP1 SLOAD PUSH2 0x4FAA SWAP1 PUSH2 0xCA68 JUMP JUMPDEST DUP1 PUSH1 0x1F ADD PUSH1 0x20 DUP1 SWAP2 DIV MUL PUSH1 0x20 ADD PUSH1 0x40 MLOAD SWAP1 DUP2 ADD PUSH1 0x40 MSTORE DUP1 SWAP3 SWAP2 SWAP1 DUP2 DUP2 MSTORE PUSH1 0x20 ADD DUP3 DUP1 SLOAD PUSH2 0x4FD6 SWAP1 PUSH2 0xCA68 JUMP JUMPDEST DUP1 ISZERO PUSH2 0x5021 JUMPI DUP1 PUSH1 0x1F LT PUSH2 0x4FF8 JUMPI PUSH2 0x100 DUP1 DUP4 SLOAD DIV MUL DUP4 MSTORE SWAP2 PUSH1 0x20 ADD SWAP2 PUSH2 0x5021 JUMP JUMPDEST DUP3 ADD SWAP2 SWAP1 PUSH0 MSTORE PUSH1 0x20 PUSH0 KECCAK256 SWAP1 JUMPDEST DUP2 SLOAD DUP2 MSTORE SWAP1 PUSH1 0x1 ADD SWAP1 PUSH1 0x20 ADD DUP1 DUP4 GT PUSH2 0x5004 JUMPI DUP3 SWAP1 SUB PUSH1 0x1F AND DUP3 ADD SWAP2 JUMPDEST POP POP POP POP POP DUP2 MSTORE POP POP DUP3 DUP3 DUP2 MLOAD DUP2 LT PUSH2 0x503C JUMPI PUSH2 0x503C PUSH2 0xCA54 JUMP JUMPDEST PUSH1 0x20 SWAP1 DUP2 MUL SWAP2 SWAP1 SWAP2 ADD ADD MSTORE PUSH1 0x1 ADD PUSH2 0x4EC0 JUMP JUMPDEST PUSH2 0x5057 PUSH2 0xAD2F JUMP JUMPDEST PUSH0 PUSH1 0x2 PUSH0 DUP5 DUP2 MSTORE PUSH1 0x20 ADD SWAP1 DUP2 MSTORE PUSH1 0x20 ADD PUSH0 KECCAK256 PUSH1 0x40 MLOAD DUP1 PUSH1 0x80 ADD PUSH1 0x40 MSTORE SWAP1 DUP2 PUSH0 DUP3 ADD SLOAD DUP2 MSTORE PUSH1 0x20 ADD PUSH1 0x1 DUP3 ADD PUSH1 0x40 MLOAD DUP1 PUSH2 0x300 ADD PUSH1 0x40 MSTORE SWAP1 DUP2 PUSH0 DUP3 ADD DUP1 SLOAD PUSH2 0x509D SWAP1 PUSH2 0xCA68 JUMP JUMPDEST DUP1 PUSH1 0x1F ADD PUSH1 0x20 DUP1 SWAP2 DIV MUL PUSH1 0x20 ADD PUSH1 0x40 MLOAD SWAP1 DUP2 ADD PUSH1 0x40 MSTORE DUP1 SWAP3 SWAP2 SWAP1 DUP2 DUP2 MSTORE PUSH1 0x20 ADD DUP3 DUP1 SLOAD PUSH2 0x50C9 SWAP1 PUSH2 0xCA68 JUMP JUMPDEST DUP1 ISZERO PUSH2 0x5114 JUMPI DUP1 PUSH1 0x1F LT PUSH2 0x50EB JUMPI PUSH2 0x100 DUP1 DUP4 SLOAD DIV MUL DUP4 MSTORE SWAP2 PUSH1 0x20 ADD SWAP2 PUSH2 0x5114 JUMP JUMPDEST DUP3 ADD SWAP2 SWAP1 PUSH0 MSTORE PUSH1 0x20 PUSH0 KECCAK256 SWAP1 JUMPDEST DUP2 SLOAD DUP2 MSTORE SWAP1 PUSH1 0x1 ADD SWAP1 PUSH1 0x20 ADD DUP1 DUP4 GT PUSH2 0x50F7 JUMPI DUP3 SWAP1 SUB PUSH1 0x1F AND DUP3 ADD SWAP2 JUMPDEST POP POP POP POP POP DUP2 MSTORE PUSH1 0x20 ADD PUSH1 0x1 DUP3 ADD SLOAD DUP2 MSTORE PUSH1 0x20 ADD PUSH1 0x2 DUP3 ADD DUP1 SLOAD PUSH2 0x5137 SWAP1 PUSH2 0xCA68 JUMP JUMPDEST DUP1 PUSH1 0x1F ADD PUSH1 0x20 DUP1 SWAP2 DIV MUL PUSH1 0x20 ADD PUSH1 0x40 MLOAD SWAP1 DUP2 ADD PUSH1 0x40 MSTORE DUP1 SWAP3 SWAP2 SWAP1 DUP2 DUP2 MSTORE PUSH1 0x20 ADD DUP3 DUP1 SLOAD PUSH2 0x5163 SWAP1 PUSH2 0xCA68 JUMP JUMPDEST DUP1 ISZERO PUSH2 0x51AE JUMPI DUP1 PUSH1 0x1F LT PUSH2 0x5185 JUMPI PUSH2 0x100 DUP1 DUP4 SLOAD DIV MUL DUP4 MSTORE SWAP2 PUSH1 0x20 ADD SWAP2 PUSH2 0x51AE JUMP JUMPDEST DUP3 ADD SWAP2 SWAP1 PUSH0 MSTORE PUSH1 0x20 PUSH0 KECCAK256 SWAP1 JUMPDEST DUP2 SLOAD DUP2 MSTORE SWAP1 PUSH1 0x1 ADD SWAP1 PUSH1 0x20 ADD DUP1 DUP4 GT PUSH2 0x5191 JUMPI DUP3 SWAP1 SUB PUSH1 0x1F AND DUP3 ADD SWAP2 JUMPDEST POP POP POP POP POP DUP2 MSTORE PUSH1 0x20 ADD PUSH1 0x3 DUP3 ADD SLOAD DUP2 MSTORE PUSH1 0x20 ADD PUSH1 0x4 DUP3 ADD SLOAD DUP2 MSTORE PUSH1 0x20 ADD PUSH1 0x5 DUP3 ADD SLOAD DUP2 MSTORE PUSH1 0x20 ADD PUSH1 0x6 DUP3 ADD SLOAD DUP2 MSTORE PUSH1 0x20 ADD PUSH1 0x7 DUP3 ADD DUP1 SLOAD DUP1 PUSH1 0x20 MUL PUSH1 0x20 ADD PUSH1 0x40 MLOAD SWAP1 DUP2 ADD PUSH1 0x40 MSTORE DUP1 SWAP3 SWAP2 SWAP1 DUP2 DUP2 MSTORE PUSH1 0x20 ADD DUP3 DUP1 SLOAD DUP1 ISZERO PUSH2 0x522C JUMPI PUSH1 0x20 MUL DUP3 ADD SWAP2 SWAP1 PUSH0 MSTORE PUSH1 0x20 PUSH0 KECCAK256 SWAP1 JUMPDEST DUP2 SLOAD DUP2 MSTORE PUSH1 0x20 ADD SWAP1 PUSH1 0x1 ADD SWAP1 DUP1 DUP4 GT PUSH2 0x5218 JUMPI JUMPDEST POP POP POP POP POP DUP2 MSTORE PUSH1 0x20 ADD PUSH1 0x8 DUP3 ADD DUP1 SLOAD DUP1 PUSH1 0x20 MUL PUSH1 0x20 ADD PUSH1 0x40 MLOAD SWAP1 DUP2 ADD PUSH1 0x40 MSTORE DUP1 SWAP3 SWAP2 SWAP1 DUP2 DUP2 MSTORE PUSH1 0x20 ADD PUSH0 SWAP1 JUMPDEST DUP3 DUP3 LT ISZERO PUSH2 0x5301 JUMPI DUP4 DUP3 SWAP1 PUSH0 MSTORE PUSH1 0x20 PUSH0 KECCAK256 ADD DUP1 SLOAD PUSH2 0x5276 SWAP1 PUSH2 0xCA68 JUMP JUMPDEST DUP1 PUSH1 0x1F ADD PUSH1 0x20 DUP1 SWAP2 DIV MUL PUSH1 0x20 ADD PUSH1 0x40 MLOAD SWAP1 DUP2 ADD PUSH1 0x40 MSTORE DUP1 SWAP3 SWAP2 SWAP1 DUP2 DUP2 MSTORE PUSH1 0x20 ADD DUP3 DUP1 SLOAD PUSH2 0x52A2 SWAP1 PUSH2 0xCA68 JUMP JUMPDEST DUP1 ISZERO PUSH2 0x52ED JUMPI DUP1 PUSH1 0x1F LT PUSH2 0x52C4 JUMPI PUSH2 0x100 DUP1 DUP4 SLOAD DIV MUL DUP4 MSTORE SWAP2 PUSH1 0x20 ADD SWAP2 PUSH2 0x52ED JUMP JUMPDEST DUP3 ADD SWAP2 SWAP1 PUSH0 MSTORE PUSH1 0x20 PUSH0 KECCAK256 SWAP1 JUMPDEST DUP2 SLOAD DUP2 MSTORE SWAP1 PUSH1 0x1 ADD SWAP1 PUSH1 0x20 ADD DUP1 DUP4 GT PUSH2 0x52D0 JUMPI DUP3 SWAP1 SUB PUSH1 0x1F AND DUP3 ADD SWAP2 JUMPDEST POP POP POP POP POP DUP2 MSTORE PUSH1 0x20 ADD SWAP1 PUSH1 0x1 ADD SWAP1 PUSH2 0x5259 JUMP JUMPDEST POP POP POP POP DUP2 MSTORE PUSH1 0x20 ADD PUSH1 0x9 DUP3 ADD SLOAD DUP2 MSTORE PUSH1 0x20 ADD PUSH1 0xA DUP3 ADD SLOAD DUP2 MSTORE PUSH1 0x20 ADD PUSH1 0xB DUP3 ADD DUP1 SLOAD DUP1 PUSH1 0x20 MUL PUSH1 0x20 ADD PUSH1 0x40 MLOAD SWAP1 DUP2 ADD PUSH1 0x40 MSTORE DUP1 SWAP3 SWAP2 SWAP1 DUP2 DUP2 MSTORE PUSH1 0x20 ADD PUSH0 SWAP1 JUMPDEST DUP3 DUP3 LT ISZERO PUSH2 0x53E9 JUMPI DUP4 DUP3 SWAP1 PUSH0 MSTORE PUSH1 0x20 PUSH0 KECCAK256 ADD DUP1 SLOAD PUSH2 0x535E SWAP1 PUSH2 0xCA68 JUMP JUMPDEST DUP1 PUSH1 0x1F ADD PUSH1 0x20 DUP1 SWAP2 DIV MUL PUSH1 0x20 ADD PUSH1 0x40 MLOAD SWAP1 DUP2 ADD PUSH1 0x40 MSTORE DUP1 SWAP3 SWAP2 SWAP1 DUP2 DUP2 MSTORE PUSH1 0x20 ADD DUP3 DUP1 SLOAD PUSH2 0x538A SWAP1 PUSH2 0xCA68 JUMP JUMPDEST DUP1 ISZERO PUSH2 0x53D5 JUMPI DUP1 PUSH1 0x1F LT PUSH2 0x53AC JUMPI PUSH2 0x100 DUP1 DUP4 SLOAD DIV MUL DUP4 MSTORE SWAP2 PUSH1 0x20 ADD SWAP2 PUSH2 0x53D5 JUMP JUMPDEST DUP3 ADD SWAP2 SWAP1 PUSH0 MSTORE PUSH1 0x20 PUSH0 KECCAK256 SWAP1 JUMPDEST DUP2 SLOAD DUP2 MSTORE SWAP1 PUSH1 0x1 ADD SWAP1 PUSH1 0x20 ADD DUP1 DUP4 GT PUSH2 0x53B8 JUMPI DUP3 SWAP1 SUB PUSH1 0x1F AND DUP3 ADD SWAP2 JUMPDEST POP POP POP POP POP DUP2 MSTORE PUSH1 0x20 ADD SWAP1 PUSH1 0x1 ADD SWAP1 PUSH2 0x5341 JUMP JUMPDEST POP POP POP SWAP1 DUP3 MSTORE POP PUSH1 0xC DUP3 ADD SLOAD PUSH1 0x1 PUSH1 0x1 PUSH1 0xA0 SHL SUB AND PUSH1 0x20 DUP3 ADD MSTORE PUSH1 0xD DUP3 ADD DUP1 SLOAD PUSH1 0x40 SWAP1 SWAP3 ADD SWAP2 PUSH2 0x5418 SWAP1 PUSH2 0xCA68 JUMP JUMPDEST DUP1 PUSH1 0x1F ADD PUSH1 0x20 DUP1 SWAP2 DIV MUL PUSH1 0x20 ADD PUSH1 0x40 MLOAD SWAP1 DUP2 ADD PUSH1 0x40 MSTORE DUP1 SWAP3 SWAP2 SWAP1 DUP2 DUP2 MSTORE PUSH1 0x20 ADD DUP3 DUP1 SLOAD PUSH2 0x5444 SWAP1 PUSH2 0xCA68 JUMP JUMPDEST DUP1 ISZERO PUSH2 0x548F JUMPI DUP1 PUSH1 0x1F LT PUSH2 0x5466 JUMPI PUSH2 0x100 DUP1 DUP4 SLOAD DIV MUL DUP4 MSTORE SWAP2 PUSH1 0x20 ADD SWAP2 PUSH2 0x548F JUMP JUMPDEST DUP3 ADD SWAP2 SWAP1 PUSH0 MSTORE PUSH1 0x20 PUSH0 KECCAK256 SWAP1 JUMPDEST DUP2 SLOAD DUP2 MSTORE SWAP1 PUSH1 0x1 ADD SWAP1 PUSH1 0x20 ADD DUP1 DUP4 GT PUSH2 0x5472 JUMPI DUP3 SWAP1 SUB PUSH1 0x1F AND DUP3 ADD SWAP2 JUMPDEST POP POP POP POP POP DUP2 MSTORE PUSH1 0x20 ADD PUSH1 0xE DUP3 ADD DUP1 SLOAD PUSH2 0x54A8 SWAP1 PUSH2 0xCA68 JUMP JUMPDEST DUP1 PUSH1 0x1F ADD PUSH1 0x20 DUP1 SWAP2 DIV MUL PUSH1 0x20 ADD PUSH1 0x40 MLOAD SWAP1 DUP2 ADD PUSH1 0x40 MSTORE DUP1 SWAP3 SWAP2 SWAP1 DUP2 DUP2 MSTORE PUSH1 0x20 ADD DUP3 DUP1 SLOAD PUSH2 0x54D4 SWAP1 PUSH2 0xCA68 JUMP JUMPDEST DUP1 ISZERO PUSH2 0x551F JUMPI DUP1 PUSH1 0x1F LT PUSH2 0x54F6 JUMPI PUSH2 0x100 DUP1 DUP4 SLOAD DIV MUL DUP4 MSTORE SWAP2 PUSH1 0x20 ADD SWAP2 PUSH2 0x551F JUMP JUMPDEST DUP3 ADD SWAP2 SWAP1 PUSH0 MSTORE PUSH1 0x20 PUSH0 KECCAK256 SWAP1 JUMPDEST DUP2 SLOAD DUP2 MSTORE SWAP1 PUSH1 0x1 ADD SWAP1 PUSH1 0x20 ADD DUP1 DUP4 GT PUSH2 0x5502 JUMPI DUP3 SWAP1 SUB PUSH1 0x1F AND DUP3 ADD SWAP2 JUMPDEST POP POP POP SWAP2 DUP4 MSTORE POP POP PUSH1 0xF DUP3 ADD SLOAD PUSH1 0xFF AND ISZERO ISZERO PUSH1 0x20 DUP1 DUP4 ADD SWAP2 SWAP1 SWAP2 MSTORE PUSH1 0x10 DUP4 ADD DUP1 SLOAD PUSH1 0x40 DUP1 MLOAD DUP3 DUP6 MUL DUP2 ADD DUP6 ADD DUP3 MSTORE DUP3 DUP2 MSTORE SWAP5 ADD SWAP4 SWAP3 PUSH0 SWAP1 DUP5 ADD JUMPDEST DUP3 DUP3 LT ISZERO PUSH2 0x5601 JUMPI DUP4 DUP3 SWAP1 PUSH0 MSTORE PUSH1 0x20 PUSH0 KECCAK256 ADD DUP1 SLOAD PUSH2 0x5576 SWAP1 PUSH2 0xCA68 JUMP JUMPDEST DUP1 PUSH1 0x1F ADD PUSH1 0x20 DUP1 SWAP2 DIV MUL PUSH1 0x20 ADD PUSH1 0x40 MLOAD SWAP1 DUP2 ADD PUSH1 0x40 MSTORE DUP1 SWAP3 SWAP2 SWAP1 DUP2 DUP2 MSTORE PUSH1 0x20 ADD DUP3 DUP1 SLOAD PUSH2 0x55A2 SWAP1 PUSH2 0xCA68 JUMP JUMPDEST DUP1 ISZERO PUSH2 0x55ED JUMPI DUP1 PUSH1 0x1F LT PUSH2 0x55C4 JUMPI PUSH2 0x100 DUP1 DUP4 SLOAD DIV MUL DUP4 MSTORE SWAP2 PUSH1 0x20 ADD SWAP2 PUSH2 0x55ED JUMP JUMPDEST DUP3 ADD SWAP2 SWAP1 PUSH0 MSTORE PUSH1 0x20 PUSH0 KECCAK256 SWAP1 JUMPDEST DUP2 SLOAD DUP2 MSTORE SWAP1 PUSH1 0x1 ADD SWAP1 PUSH1 0x20 ADD DUP1 DUP4 GT PUSH2 0x55D0 JUMPI DUP3 SWAP1 SUB PUSH1 0x1F AND DUP3 ADD SWAP2 JUMPDEST POP POP POP POP POP DUP2 MSTORE PUSH1 0x20 ADD SWAP1 PUSH1 0x1 ADD SWAP1 PUSH2 0x5559 JUMP JUMPDEST POP POP POP POP DUP2 MSTORE PUSH1 0x20 ADD PUSH1 0x11 DUP3 ADD DUP1 SLOAD PUSH2 0x5619 SWAP1 PUSH2 0xCA68 JUMP JUMPDEST DUP1 PUSH1 0x1F ADD PUSH1 0x20 DUP1 SWAP2 DIV MUL PUSH1 0x20 ADD PUSH1 0x40 MLOAD SWAP1 DUP2 ADD PUSH1 0x40 MSTORE DUP1 SWAP3 SWAP2 SWAP1 DUP2 DUP2 MSTORE PUSH1 0x20 ADD DUP3 DUP1 SLOAD PUSH2 0x5645 SWAP1 PUSH2 0xCA68 JUMP JUMPDEST DUP1 ISZERO PUSH2 0x5690 JUMPI DUP1 PUSH1 0x1F LT PUSH2 0x5667 JUMPI PUSH2 0x100 DUP1 DUP4 SLOAD DIV MUL DUP4 MSTORE SWAP2 PUSH1 0x20 ADD SWAP2 PUSH2 0x5690 JUMP JUMPDEST DUP3 ADD SWAP2 SWAP1 PUSH0 MSTORE PUSH1 0x20 PUSH0 KECCAK256 SWAP1 JUMPDEST DUP2 SLOAD DUP2 MSTORE SWAP1 PUSH1 0x1 ADD SWAP1 PUSH1 0x20 ADD DUP1 DUP4 GT PUSH2 0x5673 JUMPI DUP3 SWAP1 SUB PUSH1 0x1F AND DUP3 ADD SWAP2 JUMPDEST POP POP POP SWAP2 DUP4 MSTORE POP POP PUSH1 0x12 DUP3 ADD SLOAD PUSH1 0x20 DUP1 DUP4 ADD SWAP2 SWAP1 SWAP2 MSTORE PUSH1 0x13 DUP4 ADD SLOAD PUSH1 0x40 DUP1 DUP5 ADD SWAP2 SWAP1 SWAP2 MSTORE PUSH1 0x14 DUP5 ADD SLOAD PUSH1 0x60 DUP5 ADD MSTORE PUSH1 0x15 DUP5 ADD SLOAD PUSH1 0xFF DUP1 DUP3 AND ISZERO ISZERO PUSH1 0x80 DUP7 ADD MSTORE PUSH2 0x100 SWAP1 SWAP2 DIV AND ISZERO ISZERO PUSH1 0xA0 DUP5 ADD MSTORE PUSH1 0x16 SWAP1 SWAP4 ADD SLOAD PUSH1 0xC0 SWAP1 SWAP3 ADD SWAP2 SWAP1 SWAP2 MSTORE SWAP2 DUP4 MSTORE PUSH1 0x18 DUP5 ADD SLOAD DUP4 DUP4 ADD MSTORE PUSH1 0x19 SWAP1 SWAP4 ADD SLOAD SWAP2 DUP4 ADD SWAP2 SWAP1 SWAP2 MSTORE PUSH0 DUP7 DUP2 MSTORE PUSH1 0x7 DUP3 MSTORE DUP3 DUP2 KECCAK256 DUP1 SLOAD DUP5 MLOAD DUP2 DUP6 MUL DUP2 ADD DUP6 ADD SWAP1 SWAP6 MSTORE DUP1 DUP6 MSTORE SWAP5 SWAP6 POP SWAP1 SWAP4 SWAP1 SWAP2 DUP4 ADD DUP3 DUP3 DUP1 ISZERO PUSH2 0x5755 JUMPI PUSH1 0x20 MUL DUP3 ADD SWAP2 SWAP1 PUSH0 MSTORE PUSH1 0x20 PUSH0 KECCAK256 SWAP1 JUMPDEST DUP2 SLOAD DUP2 MSTORE PUSH1 0x20 ADD SWAP1 PUSH1 0x1 ADD SWAP1 DUP1 DUP4 GT PUSH2 0x5741 JUMPI JUMPDEST POP POP POP POP POP SWAP1 POP PUSH0 DUP2 MLOAD SWAP1 POP PUSH0 DUP2 PUSH1 0x1 PUSH1 0x1 PUSH1 0x40 SHL SUB DUP2 GT ISZERO PUSH2 0x577A JUMPI PUSH2 0x577A PUSH2 0xB1A6 JUMP JUMPDEST PUSH1 0x40 MLOAD SWAP1 DUP1 DUP3 MSTORE DUP1 PUSH1 0x20 MUL PUSH1 0x20 ADD DUP3 ADD PUSH1 0x40 MSTORE DUP1 ISZERO PUSH2 0x57B3 JUMPI DUP2 PUSH1 0x20 ADD JUMPDEST PUSH2 0x57A0 PUSH2 0xAC6C JUMP JUMPDEST DUP2 MSTORE PUSH1 0x20 ADD SWAP1 PUSH1 0x1 SWAP1 SUB SWAP1 DUP2 PUSH2 0x5798 JUMPI SWAP1 POP JUMPDEST POP SWAP1 POP PUSH0 DUP3 PUSH1 0x1 PUSH1 0x1 PUSH1 0x40 SHL SUB DUP2 GT ISZERO PUSH2 0x57CF JUMPI PUSH2 0x57CF PUSH2 0xB1A6 JUMP JUMPDEST PUSH1 0x40 MLOAD SWAP1 DUP1 DUP3 MSTORE DUP1 PUSH1 0x20 MUL PUSH1 0x20 ADD DUP3 ADD PUSH1 0x40 MSTORE DUP1 ISZERO PUSH2 0x5802 JUMPI DUP2 PUSH1 0x20 ADD JUMPDEST PUSH1 0x60 DUP2 MSTORE PUSH1 0x20 ADD SWAP1 PUSH1 0x1 SWAP1 SUB SWAP1 DUP2 PUSH2 0x57ED JUMPI SWAP1 POP JUMPDEST POP SWAP1 POP PUSH0 JUMPDEST DUP4 DUP2 LT ISZERO PUSH2 0x5A63 JUMPI PUSH0 DUP6 DUP3 DUP2 MLOAD DUP2 LT PUSH2 0x5822 JUMPI PUSH2 0x5822 PUSH2 0xCA54 JUMP JUMPDEST PUSH1 0x20 SWAP1 DUP2 MUL SWAP2 SWAP1 SWAP2 ADD DUP2 ADD MLOAD PUSH0 DUP12 DUP2 MSTORE PUSH1 0x6 DUP4 MSTORE PUSH1 0x40 DUP1 DUP3 KECCAK256 DUP4 DUP4 MSTORE DUP5 MSTORE SWAP1 DUP2 SWAP1 KECCAK256 DUP2 MLOAD DUP1 DUP4 ADD DUP4 MSTORE DUP2 SLOAD DUP2 MSTORE DUP3 MLOAD PUSH1 0xA0 DUP2 ADD DUP5 MSTORE PUSH1 0x1 DUP4 ADD SLOAD DUP2 MSTORE PUSH1 0x2 DUP4 ADD SLOAD DUP2 DUP8 ADD MSTORE PUSH1 0x3 DUP4 ADD SLOAD SWAP4 DUP2 ADD SWAP4 SWAP1 SWAP4 MSTORE PUSH1 0x4 DUP3 ADD SLOAD PUSH1 0x60 DUP5 ADD MSTORE PUSH1 0x5 SWAP1 SWAP2 ADD SLOAD PUSH1 0x80 DUP4 ADD MSTORE SWAP3 DUP4 ADD MSTORE DUP6 MLOAD SWAP1 SWAP3 POP DUP6 SWAP1 DUP5 SWAP1 DUP2 LT PUSH2 0x58A3 JUMPI PUSH2 0x58A3 PUSH2 0xCA54 JUMP JUMPDEST PUSH1 0x20 SWAP1 DUP2 MUL SWAP2 SWAP1 SWAP2 ADD DUP2 ADD SWAP2 SWAP1 SWAP2 MSTORE PUSH0 DUP11 DUP2 MSTORE PUSH1 0x8 DUP3 MSTORE PUSH1 0x40 DUP1 DUP3 KECCAK256 DUP5 DUP4 MSTORE DUP4 MSTORE DUP1 DUP3 KECCAK256 DUP1 SLOAD DUP3 MLOAD DUP2 DUP7 MUL DUP2 ADD DUP7 ADD SWAP1 SWAP4 MSTORE DUP1 DUP4 MSTORE SWAP2 SWAP4 SWAP1 SWAP3 SWAP1 DUP5 ADD JUMPDEST DUP3 DUP3 LT ISZERO PUSH2 0x5A39 JUMPI DUP4 DUP3 SWAP1 PUSH0 MSTORE PUSH1 0x20 PUSH0 KECCAK256 SWAP1 PUSH1 0x3 MUL ADD PUSH1 0x40 MLOAD DUP1 PUSH1 0x60 ADD PUSH1 0x40 MSTORE SWAP1 DUP2 PUSH0 DUP3 ADD SLOAD DUP2 MSTORE PUSH1 0x20 ADD PUSH1 0x1 DUP3 ADD DUP1 SLOAD PUSH2 0x591A SWAP1 PUSH2 0xCA68 JUMP JUMPDEST DUP1 PUSH1 0x1F ADD PUSH1 0x20 DUP1 SWAP2 DIV MUL PUSH1 0x20 ADD PUSH1 0x40 MLOAD SWAP1 DUP2 ADD PUSH1 0x40 MSTORE DUP1 SWAP3 SWAP2 SWAP1 DUP2 DUP2 MSTORE PUSH1 0x20 ADD DUP3 DUP1 SLOAD PUSH2 0x5946 SWAP1 PUSH2 0xCA68 JUMP JUMPDEST DUP1 ISZERO PUSH2 0x5991 JUMPI DUP1 PUSH1 0x1F LT PUSH2 0x5968 JUMPI PUSH2 0x100 DUP1 DUP4 SLOAD DIV MUL DUP4 MSTORE SWAP2 PUSH1 0x20 ADD SWAP2 PUSH2 0x5991 JUMP JUMPDEST DUP3 ADD SWAP2 SWAP1 PUSH0 MSTORE PUSH1 0x20 PUSH0 KECCAK256 SWAP1 JUMPDEST DUP2 SLOAD DUP2 MSTORE SWAP1 PUSH1 0x1 ADD SWAP1 PUSH1 0x20 ADD DUP1 DUP4 GT PUSH2 0x5974 JUMPI DUP3 SWAP1 SUB PUSH1 0x1F AND DUP3 ADD SWAP2 JUMPDEST POP POP POP POP POP DUP2 MSTORE PUSH1 0x20 ADD PUSH1 0x2 DUP3 ADD DUP1 SLOAD PUSH2 0x59AA SWAP1 PUSH2 0xCA68 JUMP JUMPDEST DUP1 PUSH1 0x1F ADD PUSH1 0x20 DUP1 SWAP2 DIV MUL PUSH1 0x20 ADD PUSH1 0x40 MLOAD SWAP1 DUP2 ADD PUSH1 0x40 MSTORE DUP1 SWAP3 SWAP2 SWAP1 DUP2 DUP2 MSTORE PUSH1 0x20 ADD DUP3 DUP1 SLOAD PUSH2 0x59D6 SWAP1 PUSH2 0xCA68 JUMP JUMPDEST DUP1 ISZERO PUSH2 0x5A21 JUMPI DUP1 PUSH1 0x1F LT PUSH2 0x59F8 JUMPI PUSH2 0x100 DUP1 DUP4 SLOAD DIV MUL DUP4 MSTORE SWAP2 PUSH1 0x20 ADD SWAP2 PUSH2 0x5A21 JUMP JUMPDEST DUP3 ADD SWAP2 SWAP1 PUSH0 MSTORE PUSH1 0x20 PUSH0 KECCAK256 SWAP1 JUMPDEST DUP2 SLOAD DUP2 MSTORE SWAP1 PUSH1 0x1 ADD SWAP1 PUSH1 0x20 ADD DUP1 DUP4 GT PUSH2 0x5A04 JUMPI DUP3 SWAP1 SUB PUSH1 0x1F AND DUP3 ADD SWAP2 JUMPDEST POP POP POP POP POP DUP2 MSTORE POP POP DUP2 MSTORE PUSH1 0x20 ADD SWAP1 PUSH1 0x1 ADD SWAP1 PUSH2 0x58E0 JUMP JUMPDEST POP POP POP POP DUP4 DUP4 DUP2 MLOAD DUP2 LT PUSH2 0x5A4F JUMPI PUSH2 0x5A4F PUSH2 0xCA54 JUMP JUMPDEST PUSH1 0x20 SWAP1 DUP2 MUL SWAP2 SWAP1 SWAP2 ADD ADD MSTORE POP PUSH1 0x1 ADD PUSH2 0x5807 JUMP JUMPDEST POP PUSH1 0x40 DUP1 MLOAD PUSH1 0x60 DUP2 ADD DUP3 MSTORE SWAP6 DUP7 MSTORE PUSH1 0x20 DUP7 ADD SWAP3 SWAP1 SWAP3 MSTORE SWAP1 DUP5 ADD MSTORE POP SWAP1 SWAP4 SWAP3 POP POP POP JUMP JUMPDEST PUSH1 0x3 DUP2 DUP2 SLOAD DUP2 LT PUSH2 0x5A95 JUMPI PUSH0 DUP1 REVERT JUMPDEST PUSH0 SWAP2 DUP3 MSTORE PUSH1 0x20 SWAP1 SWAP2 KECCAK256 ADD SLOAD SWAP1 POP DUP2 JUMP JUMPDEST PUSH0 DUP2 DUP2 MSTORE PUSH1 0xF PUSH1 0x20 MSTORE PUSH1 0x40 DUP2 KECCAK256 DUP1 SLOAD PUSH1 0x60 SWAP3 SWAP1 PUSH1 0x1 PUSH1 0x1 PUSH1 0x40 SHL SUB DUP2 GT ISZERO PUSH2 0x5ACF JUMPI PUSH2 0x5ACF PUSH2 0xB1A6 JUMP JUMPDEST PUSH1 0x40 MLOAD SWAP1 DUP1 DUP3 MSTORE DUP1 PUSH1 0x20 MUL PUSH1 0x20 ADD DUP3 ADD PUSH1 0x40 MSTORE DUP1 ISZERO PUSH2 0x5B30 JUMPI DUP2 PUSH1 0x20 ADD JUMPDEST PUSH2 0x5B1D PUSH1 0x40 MLOAD DUP1 PUSH1 0x80 ADD PUSH1 0x40 MSTORE DUP1 PUSH0 DUP2 MSTORE PUSH1 0x20 ADD PUSH0 PUSH1 0x1 PUSH1 0x1 PUSH1 0xA0 SHL SUB AND DUP2 MSTORE PUSH1 0x20 ADD PUSH0 DUP2 MSTORE PUSH1 0x20 ADD PUSH0 DUP2 MSTORE POP SWAP1 JUMP JUMPDEST DUP2 MSTORE PUSH1 0x20 ADD SWAP1 PUSH1 0x1 SWAP1 SUB SWAP1 DUP2 PUSH2 0x5AED JUMPI SWAP1 POP JUMPDEST POP SWAP1 POP PUSH0 JUMPDEST DUP3 SLOAD DUP2 LT ISZERO PUSH2 0x10AD JUMPI PUSH1 0xE PUSH0 DUP5 DUP4 DUP2 SLOAD DUP2 LT PUSH2 0x5B53 JUMPI PUSH2 0x5B53 PUSH2 0xCA54 JUMP JUMPDEST PUSH0 SWAP2 DUP3 MSTORE PUSH1 0x20 DUP1 DUP4 KECCAK256 SWAP1 SWAP2 ADD SLOAD DUP4 MSTORE DUP3 DUP2 ADD SWAP4 SWAP1 SWAP4 MSTORE PUSH1 0x40 SWAP2 DUP3 ADD SWAP1 KECCAK256 DUP2 MLOAD PUSH1 0x80 DUP2 ADD DUP4 MSTORE DUP2 SLOAD DUP2 MSTORE PUSH1 0x1 DUP3 ADD SLOAD PUSH1 0x1 PUSH1 0x1 PUSH1 0xA0 SHL SUB AND SWAP4 DUP2 ADD SWAP4 SWAP1 SWAP4 MSTORE PUSH1 0x2 DUP2 ADD SLOAD SWAP2 DUP4 ADD SWAP2 SWAP1 SWAP2 MSTORE PUSH1 0x3 ADD SLOAD PUSH1 0x60 DUP3 ADD MSTORE DUP3 MLOAD DUP4 SWAP1 DUP4 SWAP1 DUP2 LT PUSH2 0x5BBA JUMPI PUSH2 0x5BBA PUSH2 0xCA54 JUMP JUMPDEST PUSH1 0x20 SWAP1 DUP2 MUL SWAP2 SWAP1 SWAP2 ADD ADD MSTORE PUSH1 0x1 ADD PUSH2 0x5B35 JUMP JUMPDEST PUSH1 0x60 PUSH1 0x4 DUP1 SLOAD DUP1 PUSH1 0x20 MUL PUSH1 0x20 ADD PUSH1 0x40 MLOAD SWAP1 DUP2 ADD PUSH1 0x40 MSTORE DUP1 SWAP3 SWAP2 SWAP1 DUP2 DUP2 MSTORE PUSH1 0x20 ADD PUSH0 SWAP1 JUMPDEST DUP3 DUP3 LT ISZERO PUSH2 0x145A JUMPI DUP4 DUP3 SWAP1 PUSH0 MSTORE PUSH1 0x20 PUSH0 KECCAK256 ADD DUP1 SLOAD PUSH2 0x5C0D SWAP1 PUSH2 0xCA68 JUMP JUMPDEST DUP1 PUSH1 0x1F ADD PUSH1 0x20 DUP1 SWAP2 DIV MUL PUSH1 0x20 ADD PUSH1 0x40 MLOAD SWAP1 DUP2 ADD PUSH1 0x40 MSTORE DUP1 SWAP3 SWAP2 SWAP1 DUP2 DUP2 MSTORE PUSH1 0x20 ADD DUP3 DUP1 SLOAD PUSH2 0x5C39 SWAP1 PUSH2 0xCA68 JUMP JUMPDEST DUP1 ISZERO PUSH2 0x5C84 JUMPI DUP1 PUSH1 0x1F LT PUSH2 0x5C5B JUMPI PUSH2 0x100 DUP1 DUP4 SLOAD DIV MUL DUP4 MSTORE SWAP2 PUSH1 0x20 ADD SWAP2 PUSH2 0x5C84 JUMP JUMPDEST DUP3 ADD SWAP2 SWAP1 PUSH0 MSTORE PUSH1 0x20 PUSH0 KECCAK256 SWAP1 JUMPDEST DUP2 SLOAD DUP2 MSTORE SWAP1 PUSH1 0x1 ADD SWAP1 PUSH1 0x20 ADD DUP1 DUP4 GT PUSH2 0x5C67 JUMPI DUP3 SWAP1 SUB PUSH1 0x1F AND DUP3 ADD SWAP2 JUMPDEST POP POP POP POP POP DUP2 MSTORE PUSH1 0x20 ADD SWAP1 PUSH1 0x1 ADD SWAP1 PUSH2 0x5BF0 JUMP JUMPDEST PUSH1 0x16 DUP2 DUP2 SLOAD DUP2 LT PUSH2 0x5A95 JUMPI PUSH0 DUP1 REVERT JUMPDEST PUSH0 PUSH2 0x5CB1 DUP3 PUSH2 0x71A0 JUMP JUMPDEST CALLER PUSH0 SWAP1 DUP2 MSTORE PUSH1 0x17 PUSH1 0x20 SWAP1 DUP2 MSTORE PUSH1 0x40 DUP1 DUP4 KECCAK256 DUP7 DUP5 MSTORE SWAP1 SWAP2 MSTORE SWAP1 KECCAK256 SLOAD SWAP1 SWAP2 POP PUSH1 0xFF AND PUSH2 0x5D4C JUMPI PUSH1 0x40 MLOAD PUSH3 0x461BCD PUSH1 0xE5 SHL DUP2 MSTORE PUSH1 0x20 PUSH1 0x4 DUP3 ADD MSTORE PUSH1 0x53 PUSH1 0x24 DUP3 ADD MSTORE PUSH0 DUP1 MLOAD PUSH1 0x20 PUSH2 0xD34B DUP4 CODECOPY DUP2 MLOAD SWAP2 MSTORE PUSH1 0x44 DUP3 ADD MSTORE PUSH32 0x223A2032312C20226D657373616765223A202275736572206E6F74206661766F PUSH1 0x64 DUP3 ADD MSTORE PUSH19 0x7269746520746869732070726F64756374227D PUSH1 0x68 SHL PUSH1 0x84 DUP3 ADD MSTORE PUSH1 0xA4 ADD PUSH2 0x10E0 JUMP JUMPDEST CALLER PUSH0 SWAP1 DUP2 MSTORE PUSH1 0x17 PUSH1 0x20 SWAP1 DUP2 MSTORE PUSH1 0x40 DUP1 DUP4 KECCAK256 DUP6 DUP5 MSTORE SWAP1 SWAP2 MSTORE DUP2 KECCAK256 DUP1 SLOAD PUSH1 0xFF NOT AND SWAP1 SSTORE DUP1 JUMPDEST CALLER PUSH0 SWAP1 DUP2 MSTORE PUSH1 0x18 PUSH1 0x20 MSTORE PUSH1 0x40 SWAP1 KECCAK256 SLOAD PUSH1 0xFF DUP3 AND LT ISZERO PUSH2 0x5EA8 JUMPI CALLER PUSH0 SWAP1 DUP2 MSTORE PUSH1 0x18 PUSH1 0x20 MSTORE PUSH1 0x40 SWAP1 KECCAK256 DUP1 SLOAD DUP6 SWAP2 SWAP1 PUSH1 0xFF DUP5 AND SWAP1 DUP2 LT PUSH2 0x5DAE JUMPI PUSH2 0x5DAE PUSH2 0xCA54 JUMP JUMPDEST SWAP1 PUSH0 MSTORE PUSH1 0x20 PUSH0 KECCAK256 SWAP1 PUSH1 0x2 MUL ADD PUSH0 ADD SLOAD SUB PUSH2 0x5E96 JUMPI CALLER PUSH0 SWAP1 DUP2 MSTORE PUSH1 0x18 PUSH1 0x20 MSTORE PUSH1 0x40 SWAP1 KECCAK256 DUP1 SLOAD PUSH2 0x5DDE SWAP1 PUSH1 0x1 SWAP1 PUSH2 0xCB0A JUMP JUMPDEST DUP2 SLOAD DUP2 LT PUSH2 0x5DEE JUMPI PUSH2 0x5DEE PUSH2 0xCA54 JUMP JUMPDEST SWAP1 PUSH0 MSTORE PUSH1 0x20 PUSH0 KECCAK256 SWAP1 PUSH1 0x2 MUL ADD PUSH1 0x18 PUSH0 CALLER PUSH1 0x1 PUSH1 0x1 PUSH1 0xA0 SHL SUB AND PUSH1 0x1 PUSH1 0x1 PUSH1 0xA0 SHL SUB AND DUP2 MSTORE PUSH1 0x20 ADD SWAP1 DUP2 MSTORE PUSH1 0x20 ADD PUSH0 KECCAK256 DUP3 PUSH1 0xFF AND DUP2 SLOAD DUP2 LT PUSH2 0x5E31 JUMPI PUSH2 0x5E31 PUSH2 0xCA54 JUMP JUMPDEST PUSH0 SWAP2 DUP3 MSTORE PUSH1 0x20 DUP1 DUP4 KECCAK256 DUP5 SLOAD PUSH1 0x2 SWAP1 SWAP4 MUL ADD SWAP2 DUP3 SSTORE PUSH1 0x1 SWAP4 DUP5 ADD SLOAD SWAP4 SWAP1 SWAP2 ADD SWAP3 SWAP1 SWAP3 SSTORE CALLER DUP2 MSTORE PUSH1 0x18 SWAP1 SWAP2 MSTORE PUSH1 0x40 SWAP1 KECCAK256 DUP1 SLOAD DUP1 PUSH2 0x5E6E JUMPI PUSH2 0x5E6E PUSH2 0xCB1D JUMP JUMPDEST PUSH0 DUP3 DUP2 MSTORE PUSH1 0x20 DUP2 KECCAK256 PUSH1 0x2 PUSH0 NOT SWAP1 SWAP4 ADD SWAP3 DUP4 MUL ADD DUP2 DUP2 SSTORE PUSH1 0x1 SWAP1 DUP2 ADD SWAP2 SWAP1 SWAP2 SSTORE SWAP2 SSTORE SWAP2 POP PUSH2 0x5EA8 JUMP JUMPDEST DUP1 PUSH2 0x5EA0 DUP2 PUSH2 0xCF57 JUMP JUMPDEST SWAP2 POP POP PUSH2 0x5D6F JUMP JUMPDEST POP PUSH1 0x21 SLOAD PUSH1 0x40 MLOAD PUSH4 0xD24043CB PUSH1 0xE0 SHL DUP2 MSTORE PUSH1 0x1 PUSH1 0x1 PUSH1 0xA0 SHL SUB SWAP1 SWAP2 AND SWAP1 PUSH4 0xD24043CB SWAP1 PUSH2 0x5EE0 SWAP1 CALLER SWAP1 DUP8 SWAP1 PUSH0 SWAP1 PUSH1 0x1 SWAP1 PUSH1 0x4 ADD PUSH2 0xCF75 JUMP JUMPDEST PUSH0 PUSH1 0x40 MLOAD DUP1 DUP4 SUB DUP2 PUSH0 DUP8 DUP1 EXTCODESIZE ISZERO DUP1 ISZERO PUSH2 0x5EF7 JUMPI PUSH0 DUP1 REVERT JUMPDEST POP GAS CALL ISZERO DUP1 ISZERO PUSH2 0x5F09 JUMPI RETURNDATASIZE PUSH0 DUP1 RETURNDATACOPY RETURNDATASIZE PUSH0 REVERT JUMPDEST POP POP PUSH1 0x21 SLOAD PUSH1 0x1 PUSH1 0x1 PUSH1 0xA0 SHL SUB AND SWAP2 POP PUSH4 0xD24043CB SWAP1 POP CALLER DUP6 PUSH2 0x5F2B DUP2 PUSH2 0x71A0 JUMP JUMPDEST PUSH1 0x20 ADD MLOAD PUSH2 0x180 ADD MLOAD PUSH0 PUSH1 0x40 MLOAD DUP6 PUSH4 0xFFFFFFFF AND PUSH1 0xE0 SHL DUP2 MSTORE PUSH1 0x4 ADD PUSH2 0x5F54 SWAP5 SWAP4 SWAP3 SWAP2 SWAP1 PUSH2 0xCF75 JUMP JUMPDEST PUSH0 PUSH1 0x40 MLOAD DUP1 DUP4 SUB DUP2 PUSH0 DUP8 DUP1 EXTCODESIZE ISZERO DUP1 ISZERO PUSH2 0x5F6B JUMPI PUSH0 DUP1 REVERT JUMPDEST POP GAS CALL ISZERO DUP1 ISZERO PUSH2 0x5F7D JUMPI RETURNDATASIZE PUSH0 DUP1 RETURNDATACOPY RETURNDATASIZE PUSH0 REVERT JUMPDEST POP POP PUSH1 0x21 SLOAD PUSH1 0x20 DUP6 ADD MLOAD PUSH2 0x180 ADD MLOAD PUSH1 0x40 MLOAD PUSH4 0xC0A22771 PUSH1 0xE0 SHL DUP2 MSTORE PUSH1 0x1 PUSH1 0x1 PUSH1 0xA0 SHL SUB SWAP1 SWAP3 AND SWAP4 POP PUSH4 0xC0A22771 SWAP3 POP PUSH2 0x5FB9 SWAP2 PUSH1 0x4 ADD PUSH2 0xBF40 JUMP JUMPDEST PUSH0 PUSH1 0x40 MLOAD DUP1 DUP4 SUB DUP2 PUSH0 DUP8 DUP1 EXTCODESIZE ISZERO DUP1 ISZERO PUSH2 0x5FD0 JUMPI PUSH0 DUP1 REVERT JUMPDEST POP GAS CALL ISZERO DUP1 ISZERO PUSH2 0x5FE2 JUMPI RETURNDATASIZE PUSH0 DUP1 RETURNDATACOPY RETURNDATASIZE PUSH0 REVERT JUMPDEST POP POP POP POP DUP1 PUSH2 0x6056 JUMPI PUSH1 0x40 MLOAD PUSH3 0x461BCD PUSH1 0xE5 SHL DUP2 MSTORE PUSH1 0x20 PUSH1 0x4 DUP3 ADD MSTORE PUSH1 0x47 PUSH1 0x24 DUP3 ADD MSTORE PUSH0 DUP1 MLOAD PUSH1 0x20 PUSH2 0xD34B DUP4 CODECOPY DUP2 MLOAD SWAP2 MSTORE PUSH1 0x44 DUP3 ADD MSTORE PUSH32 0x223A2032342C20226D657373616765223A20226661766F72697465206E6F7420 PUSH1 0x64 DUP3 ADD MSTORE PUSH7 0x666F756E64227D PUSH1 0xC8 SHL PUSH1 0x84 DUP3 ADD MSTORE PUSH1 0xA4 ADD PUSH2 0x10E0 JUMP JUMPDEST POP POP POP JUMP JUMPDEST PUSH0 DUP1 SLOAD PUSH1 0x1 PUSH1 0x1 PUSH1 0xA0 SHL SUB AND CALLER DUP2 EQ PUSH2 0x6086 JUMPI PUSH1 0x40 MLOAD PUSH3 0x461BCD PUSH1 0xE5 SHL DUP2 MSTORE PUSH1 0x4 ADD PUSH2 0x10E0 SWAP1 PUSH2 0xCA9A JUMP JUMPDEST PUSH1 0x21 DUP1 SLOAD PUSH1 0x1 PUSH1 0x1 PUSH1 0xA0 SHL SUB DUP6 AND PUSH1 0x1 PUSH1 0x1 PUSH1 0xA0 SHL SUB NOT SWAP1 SWAP2 AND OR SWAP1 SSTORE PUSH1 0x1 SWAP2 POP POP SWAP2 SWAP1 POP JUMP JUMPDEST PUSH1 0x14 PUSH1 0x20 MSTORE PUSH0 SWAP1 DUP2 MSTORE PUSH1 0x40 SWAP1 KECCAK256 DUP1 SLOAD PUSH1 0x1 DUP3 ADD DUP1 SLOAD SWAP2 SWAP3 SWAP2 PUSH2 0x40A5 SWAP1 PUSH2 0xCA68 JUMP JUMPDEST PUSH0 DUP2 PUSH1 0x1 DUP2 LT ISZERO DUP1 ISZERO PUSH2 0x60E2 JUMPI POP PUSH1 0x5 DUP2 GT ISZERO JUMPDEST PUSH2 0x60FE JUMPI PUSH1 0x40 MLOAD PUSH3 0x461BCD PUSH1 0xE5 SHL DUP2 MSTORE PUSH1 0x4 ADD PUSH2 0x10E0 SWAP1 PUSH2 0xCDC2 JUMP JUMPDEST PUSH0 DUP6 DUP2 MSTORE PUSH1 0x2 PUSH1 0x20 MSTORE PUSH1 0x40 SWAP1 KECCAK256 SLOAD PUSH2 0x6128 JUMPI PUSH1 0x40 MLOAD PUSH3 0x461BCD PUSH1 0xE5 SHL DUP2 MSTORE PUSH1 0x4 ADD PUSH2 0x10E0 SWAP1 PUSH2 0xCF9F JUMP JUMPDEST POP POP PUSH0 SWAP3 DUP4 MSTORE PUSH1 0x13 PUSH1 0x20 SWAP1 DUP2 MSTORE PUSH1 0x40 DUP1 DUP6 KECCAK256 SWAP4 DUP6 MSTORE SWAP3 SWAP1 MSTORE SWAP2 KECCAK256 SSTORE PUSH1 0x1 SWAP1 JUMP JUMPDEST PUSH0 DUP1 SLOAD PUSH1 0x1 PUSH1 0x1 PUSH1 0xA0 SHL SUB AND CALLER DUP2 EQ PUSH2 0x6173 JUMPI PUSH1 0x40 MLOAD PUSH3 0x461BCD PUSH1 0xE5 SHL DUP2 MSTORE PUSH1 0x4 ADD PUSH2 0x10E0 SWAP1 PUSH2 0xCA9A JUMP JUMPDEST PUSH0 DUP6 DUP2 MSTORE PUSH1 0x14 PUSH1 0x20 MSTORE PUSH1 0x40 SWAP1 KECCAK256 SLOAD PUSH2 0x619D JUMPI PUSH1 0x40 MLOAD PUSH3 0x461BCD PUSH1 0xE5 SHL DUP2 MSTORE PUSH1 0x4 ADD PUSH2 0x10E0 SWAP1 PUSH2 0xCFF7 JUMP JUMPDEST PUSH0 DUP6 DUP2 MSTORE PUSH1 0x14 PUSH1 0x20 MSTORE PUSH1 0x40 SWAP1 KECCAK256 PUSH1 0x2 ADD PUSH2 0x61B7 DUP5 DUP3 PUSH2 0xCC8D JUMP JUMPDEST POP PUSH0 DUP6 DUP2 MSTORE PUSH1 0x14 PUSH1 0x20 MSTORE PUSH1 0x40 SWAP1 KECCAK256 PUSH1 0x1 ADD PUSH2 0x61D2 DUP6 DUP3 PUSH2 0xCC8D JUMP JUMPDEST POP PUSH1 0x1 SWAP6 SWAP5 POP POP POP POP POP JUMP JUMPDEST PUSH0 DUP5 DUP2 MSTORE PUSH1 0x2 PUSH1 0x20 MSTORE PUSH1 0x40 DUP2 KECCAK256 SLOAD PUSH2 0x6208 JUMPI PUSH1 0x40 MLOAD PUSH3 0x461BCD PUSH1 0xE5 SHL DUP2 MSTORE PUSH1 0x4 ADD PUSH2 0x10E0 SWAP1 PUSH2 0xCF9F JUMP JUMPDEST PUSH1 0x1D DUP1 SLOAD SWAP1 PUSH0 PUSH2 0x6217 DUP4 PUSH2 0xCBF4 JUMP JUMPDEST SWAP2 SWAP1 POP SSTORE POP PUSH0 PUSH1 0x40 MLOAD DUP1 PUSH2 0x100 ADD PUSH1 0x40 MSTORE DUP1 PUSH1 0x1D SLOAD DUP2 MSTORE PUSH1 0x20 ADD CALLER PUSH1 0x1 PUSH1 0x1 PUSH1 0xA0 SHL SUB AND DUP2 MSTORE PUSH1 0x20 ADD DUP5 DUP2 MSTORE PUSH1 0x20 ADD DUP6 DUP2 MSTORE PUSH1 0x20 ADD DUP7 PUSH1 0x1 DUP2 GT ISZERO PUSH2 0x625E JUMPI PUSH2 0x625E PUSH2 0xD04B JUMP JUMPDEST PUSH1 0xFF AND DUP2 MSTORE TIMESTAMP PUSH1 0x20 DUP1 DUP4 ADD DUP3 SWAP1 MSTORE PUSH1 0x40 DUP1 DUP5 ADD SWAP3 SWAP1 SWAP3 MSTORE PUSH1 0x60 SWAP1 SWAP3 ADD DUP10 SWAP1 MSTORE PUSH0 DUP10 DUP2 MSTORE PUSH1 0x11 DUP4 MSTORE DUP2 DUP2 KECCAK256 PUSH1 0x1D DUP1 SLOAD DUP3 SLOAD PUSH1 0x1 DUP1 DUP3 ADD DUP6 SSTORE SWAP4 DUP6 MSTORE DUP7 DUP6 KECCAK256 ADD SSTORE SLOAD DUP3 MSTORE PUSH1 0x12 DUP5 MSTORE SWAP1 DUP3 SWAP1 KECCAK256 DUP5 MLOAD DUP2 SSTORE SWAP3 DUP5 ADD MLOAD SWAP1 DUP4 ADD DUP1 SLOAD PUSH1 0x1 PUSH1 0x1 PUSH1 0xA0 SHL SUB NOT AND PUSH1 0x1 PUSH1 0x1 PUSH1 0xA0 SHL SUB SWAP1 SWAP3 AND SWAP2 SWAP1 SWAP2 OR SWAP1 SSTORE DUP3 ADD MLOAD SWAP2 SWAP3 POP DUP3 SWAP2 PUSH1 0x2 DUP3 ADD SWAP1 PUSH2 0x62E7 SWAP1 DUP3 PUSH2 0xCC8D JUMP JUMPDEST POP PUSH1 0x60 DUP3 ADD MLOAD PUSH1 0x3 DUP3 ADD SWAP1 PUSH2 0x62FC SWAP1 DUP3 PUSH2 0xCC8D JUMP JUMPDEST POP PUSH1 0x80 DUP3 ADD MLOAD PUSH1 0x4 DUP3 ADD DUP1 SLOAD PUSH1 0xFF NOT AND PUSH1 0xFF SWAP1 SWAP3 AND SWAP2 SWAP1 SWAP2 OR SWAP1 SSTORE PUSH1 0xA0 DUP3 ADD MLOAD PUSH1 0x5 DUP3 ADD SSTORE PUSH1 0xC0 DUP3 ADD MLOAD PUSH1 0x6 DUP3 ADD SSTORE PUSH1 0xE0 SWAP1 SWAP2 ADD MLOAD PUSH1 0x7 SWAP1 SWAP2 ADD SSTORE PUSH1 0x40 DUP1 MLOAD PUSH1 0x2 DUP1 DUP3 MSTORE PUSH1 0x60 DUP3 ADD DUP4 MSTORE PUSH0 SWAP3 PUSH1 0x20 DUP4 ADD SWAP1 DUP1 CALLDATASIZE DUP4 CALLDATACOPY POP POP POP PUSH0 DUP9 DUP2 MSTORE PUSH1 0x2 PUSH1 0x20 MSTORE PUSH1 0x40 DUP2 KECCAK256 PUSH1 0xD ADD SLOAD DUP3 MLOAD SWAP3 SWAP4 POP PUSH1 0x1 PUSH1 0x1 PUSH1 0xA0 SHL SUB AND SWAP2 DUP4 SWAP2 SWAP1 PUSH2 0x6383 JUMPI PUSH2 0x6383 PUSH2 0xCA54 JUMP JUMPDEST PUSH1 0x1 PUSH1 0x1 PUSH1 0xA0 SHL SUB SWAP3 DUP4 AND PUSH1 0x20 SWAP2 DUP3 MUL SWAP3 SWAP1 SWAP3 ADD ADD MSTORE PUSH0 SLOAD DUP3 MLOAD SWAP2 AND SWAP1 DUP3 SWAP1 PUSH1 0x1 SWAP1 DUP2 LT PUSH2 0x63B3 JUMPI PUSH2 0x63B3 PUSH2 0xCA54 JUMP JUMPDEST PUSH1 0x20 MUL PUSH1 0x20 ADD ADD SWAP1 PUSH1 0x1 PUSH1 0x1 PUSH1 0xA0 SHL SUB AND SWAP1 DUP2 PUSH1 0x1 PUSH1 0x1 PUSH1 0xA0 SHL SUB AND DUP2 MSTORE POP POP PUSH0 PUSH2 0x63DD DUP9 PUSH2 0xA103 JUMP JUMPDEST PUSH1 0x1F SLOAD PUSH1 0x40 MLOAD SWAP2 SWAP3 POP PUSH1 0x1 PUSH1 0x1 PUSH1 0xA0 SHL SUB AND SWAP1 PUSH4 0xA702A64C SWAP1 PUSH2 0x6404 SWAP1 DUP5 SWAP1 PUSH1 0x20 ADD PUSH2 0xD05F JUMP JUMPDEST PUSH1 0x40 MLOAD PUSH1 0x20 DUP2 DUP4 SUB SUB DUP2 MSTORE SWAP1 PUSH1 0x40 MSTORE DUP5 PUSH1 0x40 MLOAD DUP4 PUSH4 0xFFFFFFFF AND PUSH1 0xE0 SHL DUP2 MSTORE PUSH1 0x4 ADD PUSH2 0x6431 SWAP3 SWAP2 SWAP1 PUSH2 0xD08E JUMP JUMPDEST PUSH0 PUSH1 0x40 MLOAD DUP1 DUP4 SUB DUP2 PUSH0 DUP8 DUP1 EXTCODESIZE ISZERO DUP1 ISZERO PUSH2 0x6448 JUMPI PUSH0 DUP1 REVERT JUMPDEST POP GAS CALL ISZERO DUP1 ISZERO PUSH2 0x645A JUMPI RETURNDATASIZE PUSH0 DUP1 RETURNDATACOPY RETURNDATASIZE PUSH0 REVERT JUMPDEST POP POP PUSH1 0x21 SLOAD PUSH1 0x40 DUP1 MLOAD PUSH4 0xF857D617 PUSH1 0xE0 SHL DUP2 MSTORE SWAP1 MLOAD PUSH1 0x1 PUSH1 0x1 PUSH1 0xA0 SHL SUB SWAP1 SWAP3 AND SWAP6 POP PUSH4 0xF857D617 SWAP5 POP PUSH1 0x4 DUP1 DUP3 ADD SWAP5 POP PUSH0 SWAP4 POP SWAP1 DUP3 SWAP1 SUB ADD DUP2 DUP4 DUP8 DUP1 EXTCODESIZE ISZERO DUP1 ISZERO PUSH2 0x64A2 JUMPI PUSH0 DUP1 REVERT JUMPDEST POP GAS CALL ISZERO DUP1 ISZERO PUSH2 0x64B4 JUMPI RETURNDATASIZE PUSH0 DUP1 RETURNDATACOPY RETURNDATASIZE PUSH0 REVERT JUMPDEST POP POP PUSH1 0x1D SLOAD SWAP9 SWAP8 POP POP POP POP POP POP POP POP JUMP JUMPDEST PUSH1 0xB PUSH1 0x20 MSTORE PUSH0 SWAP1 DUP2 MSTORE PUSH1 0x40 SWAP1 KECCAK256 DUP1 SLOAD PUSH1 0x1 DUP3 ADD DUP1 SLOAD SWAP2 SWAP3 SWAP2 PUSH2 0x40A5 SWAP1 PUSH2 0xCA68 JUMP JUMPDEST PUSH1 0x1F SLOAD PUSH1 0x40 MLOAD PUSH4 0x656952AD PUSH1 0xE0 SHL DUP2 MSTORE PUSH0 SWAP2 PUSH1 0x1 PUSH1 0x1 PUSH1 0xA0 SHL SUB AND SWAP1 PUSH4 0x656952AD SWAP1 PUSH2 0x6516 SWAP1 CALLER SWAP1 PUSH1 0x4 ADD PUSH2 0xBF40 JUMP JUMPDEST PUSH1 0x20 PUSH1 0x40 MLOAD DUP1 DUP4 SUB DUP2 DUP7 GAS STATICCALL ISZERO DUP1 ISZERO PUSH2 0x6531 JUMPI RETURNDATASIZE PUSH0 DUP1 RETURNDATACOPY RETURNDATASIZE PUSH0 REVERT JUMPDEST POP POP POP POP PUSH1 0x40 MLOAD RETURNDATASIZE PUSH1 0x1F NOT PUSH1 0x1F DUP3 ADD AND DUP3 ADD DUP1 PUSH1 0x40 MSTORE POP DUP2 ADD SWAP1 PUSH2 0x6555 SWAP2 SWAP1 PUSH2 0xCBD9 JUMP JUMPDEST DUP1 PUSH2 0x65CA JUMPI POP PUSH1 0x1F SLOAD PUSH1 0x40 MLOAD PUSH4 0x59D32027 PUSH1 0xE1 SHL DUP2 MSTORE PUSH1 0x1 PUSH1 0x1 PUSH1 0xA0 SHL SUB SWAP1 SWAP2 AND SWAP1 PUSH4 0xB3A6404E SWAP1 PUSH2 0x658B SWAP1 CALLER SWAP1 PUSH1 0x4 ADD PUSH2 0xBF40 JUMP JUMPDEST PUSH1 0x20 PUSH1 0x40 MLOAD DUP1 DUP4 SUB DUP2 DUP7 GAS STATICCALL ISZERO DUP1 ISZERO PUSH2 0x65A6 JUMPI RETURNDATASIZE PUSH0 DUP1 RETURNDATACOPY RETURNDATASIZE PUSH0 REVERT JUMPDEST POP POP POP POP PUSH1 0x40 MLOAD RETURNDATASIZE PUSH1 0x1F NOT PUSH1 0x1F DUP3 ADD AND DUP3 ADD DUP1 PUSH1 0x40 MSTORE POP DUP2 ADD SWAP1 PUSH2 0x65CA SWAP2 SWAP1 PUSH2 0xCBD9 JUMP JUMPDEST PUSH2 0x65F7 PUSH1 0x37 PUSH1 0x40 MLOAD DUP1 PUSH1 0x40 ADD PUSH1 0x40 MSTORE DUP1 PUSH1 0x1B DUP2 MSTORE PUSH1 0x20 ADD PUSH0 DUP1 MLOAD PUSH1 0x20 PUSH2 0xD30A DUP4 CODECOPY DUP2 MLOAD SWAP2 MSTORE DUP2 MSTORE POP PUSH2 0x184A JUMP JUMPDEST SWAP1 PUSH2 0x6615 JUMPI PUSH1 0x40 MLOAD PUSH3 0x461BCD PUSH1 0xE5 SHL DUP2 MSTORE PUSH1 0x4 ADD PUSH2 0x10E0 SWAP2 SWAP1 PUSH2 0xB975 JUMP JUMPDEST POP PUSH1 0x2 PUSH0 DUP6 DUP2 MSTORE PUSH1 0x20 ADD SWAP1 DUP2 MSTORE PUSH1 0x20 ADD PUSH0 KECCAK256 PUSH0 ADD SLOAD PUSH0 EQ ISZERO PUSH2 0x6661 PUSH1 0x2 PUSH1 0x40 MLOAD DUP1 PUSH1 0x40 ADD PUSH1 0x40 MSTORE DUP1 PUSH1 0x11 DUP2 MSTORE PUSH1 0x20 ADD PUSH17 0x141C9BD91D58DD081B9BDD08199BDD5B99 PUSH1 0x7A SHL DUP2 MSTORE POP PUSH2 0x184A JUMP JUMPDEST SWAP1 PUSH2 0x667F JUMPI PUSH1 0x40 MLOAD PUSH3 0x461BCD PUSH1 0xE5 SHL DUP2 MSTORE PUSH1 0x4 ADD PUSH2 0x10E0 SWAP2 SWAP1 PUSH2 0xB975 JUMP JUMPDEST POP PUSH2 0x180 DUP4 ADD MLOAD PUSH1 0x1 PUSH1 0x1 PUSH1 0xA0 SHL SUB AND PUSH0 SWAP1 DUP2 MSTORE PUSH1 0x1 PUSH1 0x20 SWAP1 DUP2 MSTORE PUSH1 0x40 DUP1 DUP4 KECCAK256 DUP8 DUP5 MSTORE DUP3 MSTORE SWAP2 DUP3 SWAP1 KECCAK256 SLOAD DUP3 MLOAD PUSH1 0x60 DUP2 ADD SWAP1 SWAP4 MSTORE PUSH1 0x31 DUP1 DUP5 MSTORE PUSH1 0xFF SWAP1 SWAP2 AND SWAP3 PUSH2 0x66D1 SWAP3 PUSH1 0x2C SWAP3 SWAP1 PUSH2 0xD248 SWAP1 DUP4 ADD CODECOPY PUSH2 0x184A JUMP JUMPDEST SWAP1 PUSH2 0x66EF JUMPI PUSH1 0x40 MLOAD PUSH3 0x461BCD PUSH1 0xE5 SHL DUP2 MSTORE PUSH1 0x4 ADD PUSH2 0x10E0 SWAP2 SWAP1 PUSH2 0xB975 JUMP JUMPDEST POP PUSH1 0xB PUSH0 DUP5 PUSH1 0x20 ADD MLOAD DUP2 MSTORE PUSH1 0x20 ADD SWAP1 DUP2 MSTORE PUSH1 0x20 ADD PUSH0 KECCAK256 PUSH0 ADD SLOAD PUSH0 EQ ISZERO PUSH2 0x6740 PUSH1 0x2 PUSH1 0x40 MLOAD DUP1 PUSH1 0x40 ADD PUSH1 0x40 MSTORE DUP1 PUSH1 0x12 DUP2 MSTORE PUSH1 0x20 ADD PUSH18 0x10D85D1959DBDC9E481B9BDD08199BDD5B99 PUSH1 0x72 SHL DUP2 MSTORE POP PUSH2 0x184A JUMP JUMPDEST SWAP1 PUSH2 0x675E JUMPI PUSH1 0x40 MLOAD PUSH3 0x461BCD PUSH1 0xE5 SHL DUP2 MSTORE PUSH1 0x4 ADD PUSH2 0x10E0 SWAP2 SWAP1 PUSH2 0xB975 JUMP JUMPDEST POP PUSH0 DUP3 MLOAD GT PUSH2 0x679D PUSH1 0x2C PUSH1 0x40 MLOAD DUP1 PUSH1 0x40 ADD PUSH1 0x40 MSTORE DUP1 PUSH1 0x17 DUP2 MSTORE PUSH1 0x20 ADD PUSH23 0x92DCECC2D8D2C840ECC2E4D2C2DCE8E640D8CADCCEE8D PUSH1 0x4B SHL DUP2 MSTORE POP PUSH2 0x184A JUMP JUMPDEST SWAP1 PUSH2 0x67BB JUMPI PUSH1 0x40 MLOAD PUSH3 0x461BCD PUSH1 0xE5 SHL DUP2 MSTORE PUSH1 0x4 ADD PUSH2 0x10E0 SWAP2 SWAP1 PUSH2 0xB975 JUMP JUMPDEST POP PUSH0 DUP5 DUP2 MSTORE PUSH1 0x7 PUSH1 0x20 MSTORE PUSH1 0x40 DUP2 KECCAK256 SWAP1 JUMPDEST DUP2 SLOAD DUP2 LT ISZERO PUSH2 0x6884 JUMPI PUSH1 0x6 PUSH0 DUP8 DUP2 MSTORE PUSH1 0x20 ADD SWAP1 DUP2 MSTORE PUSH1 0x20 ADD PUSH0 KECCAK256 PUSH0 DUP4 DUP4 DUP2 SLOAD DUP2 LT PUSH2 0x67F8 JUMPI PUSH2 0x67F8 PUSH2 0xCA54 JUMP JUMPDEST PUSH0 SWAP2 DUP3 MSTORE PUSH1 0x20 DUP1 DUP4 KECCAK256 SWAP1 SWAP2 ADD SLOAD DUP4 MSTORE DUP3 DUP2 ADD SWAP4 SWAP1 SWAP4 MSTORE PUSH1 0x40 SWAP2 DUP3 ADD DUP2 KECCAK256 DUP2 DUP2 SSTORE PUSH1 0x1 DUP2 ADD DUP3 SWAP1 SSTORE PUSH1 0x2 DUP2 ADD DUP3 SWAP1 SSTORE PUSH1 0x3 DUP2 ADD DUP3 SWAP1 SSTORE PUSH1 0x4 DUP2 ADD DUP3 SWAP1 SSTORE PUSH1 0x5 ADD DUP2 SWAP1 SSTORE DUP9 DUP2 MSTORE PUSH1 0x8 SWAP1 SWAP3 MSTORE DUP2 KECCAK256 DUP4 SLOAD SWAP1 SWAP2 SWAP1 DUP5 SWAP1 DUP5 SWAP1 DUP2 LT PUSH2 0x685B JUMPI PUSH2 0x685B PUSH2 0xCA54 JUMP JUMPDEST SWAP1 PUSH0 MSTORE PUSH1 0x20 PUSH0 KECCAK256 ADD SLOAD DUP2 MSTORE PUSH1 0x20 ADD SWAP1 DUP2 MSTORE PUSH1 0x20 ADD PUSH0 KECCAK256 PUSH0 PUSH2 0x687C SWAP2 SWAP1 PUSH2 0xAF07 JUMP JUMPDEST PUSH1 0x1 ADD PUSH2 0x67CB JUMP JUMPDEST POP PUSH0 DUP6 DUP2 MSTORE PUSH1 0x7 PUSH1 0x20 MSTORE PUSH1 0x40 DUP2 KECCAK256 PUSH2 0x689B SWAP2 PUSH2 0xAF25 JUMP JUMPDEST PUSH0 JUMPDEST DUP4 MLOAD DUP2 LT ISZERO PUSH2 0x6C31 JUMPI PUSH2 0x339 PUSH1 0x82 DUP6 DUP4 DUP2 MLOAD DUP2 LT PUSH2 0x68BD JUMPI PUSH2 0x68BD PUSH2 0xCA54 JUMP JUMPDEST PUSH1 0x20 MUL PUSH1 0x20 ADD ADD MLOAD PUSH1 0x40 ADD MLOAD PUSH1 0x40 ADD MLOAD PUSH2 0xC350 PUSH2 0x68DA SWAP2 SWAP1 PUSH2 0xCC2B JUMP JUMPDEST PUSH2 0x68E4 SWAP2 SWAP1 PUSH2 0xCC0C JUMP JUMPDEST PUSH2 0x68EE SWAP2 SWAP1 PUSH2 0xCC0C JUMP JUMPDEST DUP5 DUP3 DUP2 MLOAD DUP2 LT PUSH2 0x6900 JUMPI PUSH2 0x6900 PUSH2 0xCA54 JUMP JUMPDEST PUSH1 0x20 MUL PUSH1 0x20 ADD ADD MLOAD PUSH1 0x40 ADD MLOAD PUSH1 0x60 ADD MLOAD GT ISZERO PUSH2 0x693F PUSH1 0x2A PUSH1 0x40 MLOAD DUP1 PUSH1 0x40 ADD PUSH1 0x40 MSTORE DUP1 PUSH1 0x1F DUP2 MSTORE PUSH1 0x20 ADD PUSH0 DUP1 MLOAD PUSH1 0x20 PUSH2 0xD36B DUP4 CODECOPY DUP2 MLOAD SWAP2 MSTORE DUP2 MSTORE POP PUSH2 0x184A JUMP JUMPDEST SWAP1 PUSH2 0x695D JUMPI PUSH1 0x40 MLOAD PUSH3 0x461BCD PUSH1 0xE5 SHL DUP2 MSTORE PUSH1 0x4 ADD PUSH2 0x10E0 SWAP2 SWAP1 PUSH2 0xB975 JUMP JUMPDEST POP DUP4 DUP2 DUP2 MLOAD DUP2 LT PUSH2 0x6970 JUMPI PUSH2 0x6970 PUSH2 0xCA54 JUMP JUMPDEST PUSH1 0x20 MUL PUSH1 0x20 ADD ADD MLOAD PUSH1 0x40 ADD MLOAD PUSH1 0x40 ADD MLOAD DUP5 DUP3 DUP2 MLOAD DUP2 LT PUSH2 0x6992 JUMPI PUSH2 0x6992 PUSH2 0xCA54 JUMP JUMPDEST PUSH1 0x20 MUL PUSH1 0x20 ADD ADD MLOAD PUSH1 0x40 ADD MLOAD PUSH1 0x20 ADD MLOAD GT PUSH2 0x69D0 PUSH1 0x25 PUSH1 0x40 MLOAD DUP1 PUSH1 0x40 ADD PUSH1 0x40 MSTORE DUP1 PUSH1 0x20 DUP2 MSTORE PUSH1 0x20 ADD PUSH0 DUP1 MLOAD PUSH1 0x20 PUSH2 0xD299 DUP4 CODECOPY DUP2 MLOAD SWAP2 MSTORE DUP2 MSTORE POP PUSH2 0x184A JUMP JUMPDEST SWAP1 PUSH2 0x69EE JUMPI PUSH1 0x40 MLOAD PUSH3 0x461BCD PUSH1 0xE5 SHL DUP2 MSTORE PUSH1 0x4 ADD PUSH2 0x10E0 SWAP2 SWAP1 PUSH2 0xB975 JUMP JUMPDEST POP PUSH2 0x69F7 PUSH2 0xAC6C JUMP JUMPDEST PUSH0 PUSH2 0x6A0D DUP7 DUP5 DUP2 MLOAD DUP2 LT PUSH2 0x2423 JUMPI PUSH2 0x2423 PUSH2 0xCA54 JUMP JUMPDEST DUP1 DUP4 MSTORE DUP7 MLOAD SWAP1 SWAP2 POP DUP7 SWAP1 DUP5 SWAP1 DUP2 LT PUSH2 0x6A27 JUMPI PUSH2 0x6A27 PUSH2 0xCA54 JUMP JUMPDEST PUSH1 0x20 SWAP1 DUP2 MUL SWAP2 SWAP1 SWAP2 ADD DUP2 ADD MLOAD PUSH1 0x40 SWAP1 DUP2 ADD MLOAD DUP5 DUP4 ADD SWAP1 DUP2 MSTORE PUSH0 DUP12 DUP2 MSTORE PUSH1 0x7 DUP5 MSTORE DUP3 DUP2 KECCAK256 DUP1 SLOAD PUSH1 0x1 DUP2 DUP2 ADD DUP4 SSTORE SWAP2 DUP4 MSTORE DUP6 DUP4 KECCAK256 ADD DUP7 SWAP1 SSTORE DUP13 DUP3 MSTORE PUSH1 0x6 DUP6 MSTORE DUP4 DUP3 KECCAK256 DUP7 DUP4 MSTORE DUP6 MSTORE DUP4 DUP3 KECCAK256 DUP8 MLOAD DUP2 SSTORE SWAP3 MLOAD DUP1 MLOAD SWAP2 DUP5 ADD SWAP2 SWAP1 SWAP2 SSTORE SWAP4 DUP5 ADD MLOAD PUSH1 0x2 DUP4 ADD SSTORE SWAP2 DUP4 ADD MLOAD PUSH1 0x3 DUP3 ADD SSTORE PUSH1 0x60 DUP4 ADD MLOAD PUSH1 0x4 DUP3 ADD SSTORE PUSH1 0x80 SWAP1 SWAP3 ADD MLOAD PUSH1 0x5 SWAP1 SWAP3 ADD SWAP2 SWAP1 SWAP2 SSTORE JUMPDEST DUP7 DUP5 DUP2 MLOAD DUP2 LT PUSH2 0x6ABC JUMPI PUSH2 0x6ABC PUSH2 0xCA54 JUMP JUMPDEST PUSH1 0x20 MUL PUSH1 0x20 ADD ADD MLOAD PUSH1 0x20 ADD MLOAD MLOAD DUP2 LT ISZERO PUSH2 0x6BA4 JUMPI PUSH0 DUP10 DUP2 MSTORE PUSH1 0x8 PUSH1 0x20 SWAP1 DUP2 MSTORE PUSH1 0x40 DUP1 DUP4 KECCAK256 DUP6 DUP5 MSTORE SWAP1 SWAP2 MSTORE DUP2 KECCAK256 DUP1 SLOAD PUSH1 0x1 ADD DUP2 SSTORE SWAP1 MSTORE DUP7 MLOAD DUP8 SWAP1 DUP6 SWAP1 DUP2 LT PUSH2 0x6B05 JUMPI PUSH2 0x6B05 PUSH2 0xCA54 JUMP JUMPDEST PUSH1 0x20 MUL PUSH1 0x20 ADD ADD MLOAD PUSH1 0x20 ADD MLOAD DUP2 DUP2 MLOAD DUP2 LT PUSH2 0x6B22 JUMPI PUSH2 0x6B22 PUSH2 0xCA54 JUMP JUMPDEST PUSH1 0x20 MUL PUSH1 0x20 ADD ADD MLOAD PUSH1 0x8 PUSH0 DUP12 DUP2 MSTORE PUSH1 0x20 ADD SWAP1 DUP2 MSTORE PUSH1 0x20 ADD PUSH0 KECCAK256 PUSH0 DUP5 DUP2 MSTORE PUSH1 0x20 ADD SWAP1 DUP2 MSTORE PUSH1 0x20 ADD PUSH0 KECCAK256 DUP3 DUP2 SLOAD DUP2 LT PUSH2 0x6B5B JUMPI PUSH2 0x6B5B PUSH2 0xCA54 JUMP JUMPDEST SWAP1 PUSH0 MSTORE PUSH1 0x20 PUSH0 KECCAK256 SWAP1 PUSH1 0x3 MUL ADD PUSH0 DUP3 ADD MLOAD DUP2 PUSH0 ADD SSTORE PUSH1 0x20 DUP3 ADD MLOAD DUP2 PUSH1 0x1 ADD SWAP1 DUP2 PUSH2 0x6B84 SWAP2 SWAP1 PUSH2 0xCC8D JUMP JUMPDEST POP PUSH1 0x40 DUP3 ADD MLOAD PUSH1 0x2 DUP3 ADD SWAP1 PUSH2 0x6B99 SWAP1 DUP3 PUSH2 0xCC8D JUMP JUMPDEST POP POP POP PUSH1 0x1 ADD PUSH2 0x6AAA JUMP JUMPDEST POP PUSH0 JUMPDEST DUP4 DUP2 LT ISZERO PUSH2 0x6C26 JUMPI PUSH0 DUP10 DUP2 MSTORE PUSH1 0x7 PUSH1 0x20 MSTORE PUSH1 0x40 SWAP1 KECCAK256 DUP1 SLOAD DUP4 SWAP2 SWAP1 DUP4 SWAP1 DUP2 LT PUSH2 0x6BD1 JUMPI PUSH2 0x6BD1 PUSH2 0xCA54 JUMP JUMPDEST SWAP1 PUSH0 MSTORE PUSH1 0x20 PUSH0 KECCAK256 ADD SLOAD EQ ISZERO PUSH2 0x6BFF PUSH1 0x3C PUSH1 0x40 MLOAD DUP1 PUSH1 0x60 ADD PUSH1 0x40 MSTORE DUP1 PUSH1 0x25 DUP2 MSTORE PUSH1 0x20 ADD PUSH2 0xD2B9 PUSH1 0x25 SWAP2 CODECOPY PUSH2 0x184A JUMP JUMPDEST SWAP1 PUSH2 0x6C1D JUMPI PUSH1 0x40 MLOAD PUSH3 0x461BCD PUSH1 0xE5 SHL DUP2 MSTORE PUSH1 0x4 ADD PUSH2 0x10E0 SWAP2 SWAP1 PUSH2 0xB975 JUMP JUMPDEST POP PUSH1 0x1 ADD PUSH2 0x6BA7 JUMP JUMPDEST POP POP POP PUSH1 0x1 ADD PUSH2 0x689D JUMP JUMPDEST POP PUSH0 DUP6 DUP2 MSTORE PUSH1 0x2 PUSH1 0x20 MSTORE PUSH1 0x40 SWAP1 KECCAK256 DUP5 MLOAD DUP6 SWAP2 PUSH1 0x1 ADD SWAP1 DUP2 SWAP1 PUSH2 0x6C53 SWAP1 DUP3 PUSH2 0xCC8D JUMP JUMPDEST POP PUSH1 0x20 DUP3 ADD MLOAD PUSH1 0x1 DUP3 ADD SSTORE PUSH1 0x40 DUP3 ADD MLOAD PUSH1 0x2 DUP3 ADD SWAP1 PUSH2 0x6C72 SWAP1 DUP3 PUSH2 0xCC8D JUMP JUMPDEST POP PUSH1 0x60 DUP3 ADD MLOAD PUSH1 0x3 DUP3 ADD SSTORE PUSH1 0x80 DUP3 ADD MLOAD PUSH1 0x4 DUP3 ADD SSTORE PUSH1 0xA0 DUP3 ADD MLOAD PUSH1 0x5 DUP3 ADD SSTORE PUSH1 0xC0 DUP3 ADD MLOAD PUSH1 0x6 DUP3 ADD SSTORE PUSH1 0xE0 DUP3 ADD MLOAD DUP1 MLOAD PUSH2 0x6CB6 SWAP2 PUSH1 0x7 DUP5 ADD SWAP2 PUSH1 0x20 SWAP1 SWAP2 ADD SWAP1 PUSH2 0xAD56 JUMP JUMPDEST POP PUSH2 0x100 DUP3 ADD MLOAD DUP1 MLOAD PUSH2 0x6CD3 SWAP2 PUSH1 0x8 DUP5 ADD SWAP2 PUSH1 0x20 SWAP1 SWAP2 ADD SWAP1 PUSH2 0xAD9B JUMP JUMPDEST POP PUSH2 0x120 DUP3 ADD MLOAD PUSH1 0x9 DUP3 ADD SSTORE PUSH2 0x140 DUP3 ADD MLOAD PUSH1 0xA DUP3 ADD SSTORE PUSH2 0x160 DUP3 ADD MLOAD DUP1 MLOAD PUSH2 0x6D06 SWAP2 PUSH1 0xB DUP5 ADD SWAP2 PUSH1 0x20 SWAP1 SWAP2 ADD SWAP1 PUSH2 0xAD9B JUMP JUMPDEST POP PUSH2 0x180 DUP3 ADD MLOAD PUSH1 0xC DUP3 ADD DUP1 SLOAD PUSH1 0x1 PUSH1 0x1 PUSH1 0xA0 SHL SUB NOT AND PUSH1 0x1 PUSH1 0x1 PUSH1 0xA0 SHL SUB SWAP1 SWAP3 AND SWAP2 SWAP1 SWAP2 OR SWAP1 SSTORE PUSH2 0x1A0 DUP3 ADD MLOAD PUSH1 0xD DUP3 ADD SWAP1 PUSH2 0x6D43 SWAP1 DUP3 PUSH2 0xCC8D JUMP JUMPDEST POP PUSH2 0x1C0 DUP3 ADD MLOAD PUSH1 0xE DUP3 ADD SWAP1 PUSH2 0x6D59 SWAP1 DUP3 PUSH2 0xCC8D JUMP JUMPDEST POP PUSH2 0x1E0 DUP3 ADD MLOAD PUSH1 0xF DUP3 ADD DUP1 SLOAD PUSH1 0xFF NOT AND SWAP2 ISZERO ISZERO SWAP2 SWAP1 SWAP2 OR SWAP1 SSTORE PUSH2 0x200 DUP3 ADD MLOAD DUP1 MLOAD PUSH2 0x6D8F SWAP2 PUSH1 0x10 DUP5 ADD SWAP2 PUSH1 0x20 SWAP1 SWAP2 ADD SWAP1 PUSH2 0xAD9B JUMP JUMPDEST POP PUSH2 0x220 DUP3 ADD MLOAD PUSH1 0x11 DUP3 ADD SWAP1 PUSH2 0x6DA5 SWAP1 DUP3 PUSH2 0xCC8D JUMP JUMPDEST POP PUSH2 0x240 DUP3 ADD MLOAD PUSH1 0x12 DUP3 ADD SSTORE PUSH2 0x260 DUP3 ADD MLOAD PUSH1 0x13 DUP3 ADD SSTORE PUSH2 0x280 DUP3 ADD MLOAD PUSH1 0x14 DUP3 ADD SSTORE PUSH2 0x2A0 DUP3 ADD MLOAD PUSH1 0x15 DUP3 ADD DUP1 SLOAD PUSH2 0x2C0 DUP6 ADD MLOAD ISZERO ISZERO PUSH2 0x100 MUL PUSH2 0xFF00 NOT SWAP4 ISZERO ISZERO SWAP4 SWAP1 SWAP4 AND PUSH2 0xFFFF NOT SWAP1 SWAP2 AND OR SWAP2 SWAP1 SWAP2 OR SWAP1 SSTORE PUSH2 0x2E0 SWAP1 SWAP2 ADD MLOAD PUSH1 0x16 SWAP1 SWAP2 ADD SSTORE PUSH0 DUP6 DUP2 MSTORE PUSH1 0x2 PUSH1 0x20 MSTORE PUSH1 0x40 SWAP1 DUP2 SWAP1 KECCAK256 TIMESTAMP PUSH1 0x19 SWAP1 SWAP2 ADD SSTORE MLOAD PUSH32 0x759E0111D0D20A9C64AD00266049785B63BDCEE61D9B7A91A41A44C05584B062 SWAP1 PUSH2 0x6E4B SWAP1 DUP8 SWAP1 DUP8 SWAP1 PUSH2 0xCD52 JUMP JUMPDEST PUSH1 0x40 MLOAD DUP1 SWAP2 SUB SWAP1 LOG1 PUSH1 0x1 SWAP2 POP POP JUMPDEST SWAP4 SWAP3 POP POP POP JUMP JUMPDEST PUSH0 DUP3 DUP2 MSTORE PUSH1 0x12 PUSH1 0x20 MSTORE PUSH1 0x40 SWAP1 KECCAK256 SLOAD PUSH2 0x6E8A JUMPI PUSH1 0x40 MLOAD PUSH3 0x461BCD PUSH1 0xE5 SHL DUP2 MSTORE PUSH1 0x4 ADD PUSH2 0x10E0 SWAP1 PUSH2 0xCD6A JUMP JUMPDEST PUSH0 DUP3 DUP2 MSTORE PUSH1 0x12 PUSH1 0x20 MSTORE PUSH1 0x40 SWAP1 KECCAK256 PUSH1 0x3 ADD PUSH2 0x6EA4 DUP3 DUP3 PUSH2 0xCC8D JUMP JUMPDEST POP POP PUSH0 SWAP1 DUP2 MSTORE PUSH1 0x12 PUSH1 0x20 MSTORE PUSH1 0x40 SWAP1 KECCAK256 TIMESTAMP PUSH1 0x6 SWAP1 SWAP2 ADD SSTORE JUMP JUMPDEST PUSH0 DUP1 SLOAD PUSH1 0x1 PUSH1 0x1 PUSH1 0xA0 SHL SUB AND CALLER DUP2 EQ PUSH2 0x6EE7 JUMPI PUSH1 0x40 MLOAD PUSH3 0x461BCD PUSH1 0xE5 SHL DUP2 MSTORE PUSH1 0x4 ADD PUSH2 0x10E0 SWAP1 PUSH2 0xCA9A JUMP JUMPDEST PUSH1 0x1E DUP1 SLOAD SWAP1 PUSH0 PUSH2 0x6EF6 DUP4 PUSH2 0xCBF4 JUMP JUMPDEST SWAP1 SWAP2 SSTORE POP POP PUSH1 0x40 DUP1 MLOAD PUSH1 0x60 DUP2 ADD DUP3 MSTORE PUSH1 0x1E SLOAD DUP1 DUP3 MSTORE PUSH1 0x20 DUP1 DUP4 ADD DUP9 DUP2 MSTORE DUP4 DUP6 ADD DUP9 SWAP1 MSTORE PUSH0 SWAP3 DUP4 MSTORE PUSH1 0x14 SWAP1 SWAP2 MSTORE SWAP3 SWAP1 KECCAK256 DUP2 MLOAD DUP2 SSTORE SWAP2 MLOAD SWAP1 SWAP2 DUP3 SWAP2 PUSH1 0x1 DUP3 ADD SWAP1 PUSH2 0x6F3E SWAP1 DUP3 PUSH2 0xCC8D JUMP JUMPDEST POP PUSH1 0x40 DUP3 ADD MLOAD PUSH1 0x2 DUP3 ADD SWAP1 PUSH2 0x6F53 SWAP1 DUP3 PUSH2 0xCC8D JUMP JUMPDEST POP POP PUSH1 0x1E SLOAD PUSH1 0x16 DUP1 SLOAD PUSH1 0x1 DUP2 ADD DUP3 SSTORE PUSH0 SWAP2 DUP3 MSTORE PUSH32 0xD833147D7DC355BA459FC788F669E58CFAF9DC25DDCD0702E87D69C7B5124289 ADD SWAP2 SWAP1 SWAP2 SSTORE PUSH1 0x21 SLOAD PUSH1 0x40 DUP1 MLOAD PUSH4 0xF857D617 PUSH1 0xE0 SHL DUP2 MSTORE SWAP1 MLOAD PUSH1 0x1 PUSH1 0x1 PUSH1 0xA0 SHL SUB SWAP1 SWAP3 AND SWAP4 POP PUSH4 0xF857D617 SWAP3 PUSH1 0x4 DUP1 DUP4 ADD SWAP4 SWAP2 SWAP3 DUP3 SWAP1 SUB ADD DUP2 DUP4 DUP8 DUP1 EXTCODESIZE ISZERO DUP1 ISZERO PUSH2 0x6FCE JUMPI PUSH0 DUP1 REVERT JUMPDEST POP GAS CALL ISZERO DUP1 ISZERO PUSH2 0x6FE0 JUMPI RETURNDATASIZE PUSH0 DUP1 RETURNDATACOPY RETURNDATASIZE PUSH0 REVERT JUMPDEST POP PUSH1 0x1 SWAP9 SWAP8 POP POP POP POP POP POP POP POP JUMP JUMPDEST PUSH1 0x1F SLOAD PUSH1 0x40 MLOAD PUSH4 0x588F1E0D PUSH1 0xE1 SHL DUP2 MSTORE PUSH1 0x1 PUSH1 0x1 PUSH1 0xA0 SHL SUB SWAP1 SWAP2 AND SWAP1 PUSH4 0xB11E3C1A SWAP1 PUSH2 0x701F SWAP1 CALLER SWAP1 PUSH1 0x4 ADD PUSH2 0xBF40 JUMP JUMPDEST PUSH1 0x20 PUSH1 0x40 MLOAD DUP1 DUP4 SUB DUP2 DUP7 GAS STATICCALL ISZERO DUP1 ISZERO PUSH2 0x703A JUMPI RETURNDATASIZE PUSH0 DUP1 RETURNDATACOPY RETURNDATASIZE PUSH0 REVERT JUMPDEST POP POP POP POP PUSH1 0x40 MLOAD RETURNDATASIZE PUSH1 0x1F NOT PUSH1 0x1F DUP3 ADD AND DUP3 ADD DUP1 PUSH1 0x40 MSTORE POP DUP2 ADD SWAP1 PUSH2 0x705E SWAP2 SWAP1 PUSH2 0xCBD9 JUMP JUMPDEST PUSH2 0x707A JUMPI PUSH1 0x40 MLOAD PUSH3 0x461BCD PUSH1 0xE5 SHL DUP2 MSTORE PUSH1 0x4 ADD PUSH2 0x10E0 SWAP1 PUSH2 0xCE77 JUMP JUMPDEST PUSH1 0x1B DUP1 SLOAD SWAP1 PUSH0 PUSH2 0x7089 DUP4 PUSH2 0xCBF4 JUMP JUMPDEST SWAP1 SWAP2 SSTORE POP POP PUSH1 0x40 DUP1 MLOAD PUSH1 0x60 DUP2 ADD DUP3 MSTORE PUSH1 0x1B SLOAD DUP1 DUP3 MSTORE PUSH1 0x20 DUP1 DUP4 ADD DUP7 DUP2 MSTORE DUP4 DUP6 ADD DUP7 SWAP1 MSTORE PUSH1 0xC DUP1 SLOAD PUSH1 0x1 DUP2 DUP2 ADD SWAP1 SWAP3 SSTORE PUSH32 0xDF6966C971051C3D54EC59162606531493A51404A002842F56009D7E5CF4A8C7 ADD DUP5 SWAP1 SSTORE PUSH0 SWAP4 DUP5 MSTORE PUSH1 0xB SWAP1 SWAP3 MSTORE SWAP4 SWAP1 SWAP2 KECCAK256 DUP3 MLOAD DUP2 SSTORE SWAP3 MLOAD SWAP2 SWAP3 DUP4 SWAP3 SWAP1 SWAP2 DUP3 ADD SWAP1 PUSH2 0x7103 SWAP1 DUP3 PUSH2 0xCC8D JUMP JUMPDEST POP PUSH1 0x40 DUP3 ADD MLOAD PUSH1 0x2 DUP3 ADD SWAP1 PUSH2 0x7118 SWAP1 DUP3 PUSH2 0xCC8D JUMP JUMPDEST POP SWAP1 POP POP PUSH32 0x2E32D71B46D3C2122BC71DEB4B78790FC542D8BAAF5B0C79D4506640A0E4FA7F PUSH1 0x1B SLOAD DUP3 PUSH1 0x20 ADD MLOAD DUP4 PUSH1 0x40 ADD MLOAD PUSH1 0x40 MLOAD PUSH2 0x7159 SWAP4 SWAP3 SWAP2 SWAP1 PUSH2 0xC117 JUMP JUMPDEST PUSH1 0x40 MLOAD DUP1 SWAP2 SUB SWAP1 LOG1 POP POP POP JUMP JUMPDEST PUSH1 0x7 PUSH1 0x20 MSTORE DUP2 PUSH0 MSTORE PUSH1 0x40 PUSH0 KECCAK256 DUP2 DUP2 SLOAD DUP2 LT PUSH2 0x1243 JUMPI PUSH0 DUP1 REVERT JUMPDEST PUSH1 0x9 PUSH1 0x20 MSTORE PUSH0 SWAP1 DUP2 MSTORE PUSH1 0x40 SWAP1 KECCAK256 DUP1 SLOAD PUSH1 0x1 DUP3 ADD DUP1 SLOAD SWAP2 SWAP3 SWAP2 PUSH2 0x40A5 SWAP1 PUSH2 0xCA68 JUMP JUMPDEST PUSH2 0x71A8 PUSH2 0xAE2C JUMP JUMPDEST PUSH1 0x2 PUSH0 DUP4 DUP2 MSTORE PUSH1 0x20 ADD SWAP1 DUP2 MSTORE PUSH1 0x20 ADD PUSH0 KECCAK256 PUSH1 0x40 MLOAD DUP1 PUSH1 0x80 ADD PUSH1 0x40 MSTORE SWAP1 DUP2 PUSH0 DUP3 ADD SLOAD DUP2 MSTORE PUSH1 0x20 ADD PUSH1 0x1 DUP3 ADD PUSH1 0x40 MLOAD DUP1 PUSH2 0x300 ADD PUSH1 0x40 MSTORE SWAP1 DUP2 PUSH0 DUP3 ADD DUP1 SLOAD PUSH2 0x71ED SWAP1 PUSH2 0xCA68 JUMP JUMPDEST DUP1 PUSH1 0x1F ADD PUSH1 0x20 DUP1 SWAP2 DIV MUL PUSH1 0x20 ADD PUSH1 0x40 MLOAD SWAP1 DUP2 ADD PUSH1 0x40 MSTORE DUP1 SWAP3 SWAP2 SWAP1 DUP2 DUP2 MSTORE PUSH1 0x20 ADD DUP3 DUP1 SLOAD PUSH2 0x7219 SWAP1 PUSH2 0xCA68 JUMP JUMPDEST DUP1 ISZERO PUSH2 0x7264 JUMPI DUP1 PUSH1 0x1F LT PUSH2 0x723B JUMPI PUSH2 0x100 DUP1 DUP4 SLOAD DIV MUL DUP4 MSTORE SWAP2 PUSH1 0x20 ADD SWAP2 PUSH2 0x7264 JUMP JUMPDEST DUP3 ADD SWAP2 SWAP1 PUSH0 MSTORE PUSH1 0x20 PUSH0 KECCAK256 SWAP1 JUMPDEST DUP2 SLOAD DUP2 MSTORE SWAP1 PUSH1 0x1 ADD SWAP1 PUSH1 0x20 ADD DUP1 DUP4 GT PUSH2 0x7247 JUMPI DUP3 SWAP1 SUB PUSH1 0x1F AND DUP3 ADD SWAP2 JUMPDEST POP POP POP POP POP DUP2 MSTORE PUSH1 0x20 ADD PUSH1 0x1 DUP3 ADD SLOAD DUP2 MSTORE PUSH1 0x20 ADD PUSH1 0x2 DUP3 ADD DUP1 SLOAD PUSH2 0x7287 SWAP1 PUSH2 0xCA68 JUMP JUMPDEST DUP1 PUSH1 0x1F ADD PUSH1 0x20 DUP1 SWAP2 DIV MUL PUSH1 0x20 ADD PUSH1 0x40 MLOAD SWAP1 DUP2 ADD PUSH1 0x40 MSTORE DUP1 SWAP3 SWAP2 SWAP1 DUP2 DUP2 MSTORE PUSH1 0x20 ADD DUP3 DUP1 SLOAD PUSH2 0x72B3 SWAP1 PUSH2 0xCA68 JUMP JUMPDEST DUP1 ISZERO PUSH2 0x72FE JUMPI DUP1 PUSH1 0x1F LT PUSH2 0x72D5 JUMPI PUSH2 0x100 DUP1 DUP4 SLOAD DIV MUL DUP4 MSTORE SWAP2 PUSH1 0x20 ADD SWAP2 PUSH2 0x72FE JUMP JUMPDEST DUP3 ADD SWAP2 SWAP1 PUSH0 MSTORE PUSH1 0x20 PUSH0 KECCAK256 SWAP1 JUMPDEST DUP2 SLOAD DUP2 MSTORE SWAP1 PUSH1 0x1 ADD SWAP1 PUSH1 0x20 ADD DUP1 DUP4 GT PUSH2 0x72E1 JUMPI DUP3 SWAP1 SUB PUSH1 0x1F AND DUP3 ADD SWAP2 JUMPDEST POP POP POP POP POP DUP2 MSTORE PUSH1 0x20 ADD PUSH1 0x3 DUP3 ADD SLOAD DUP2 MSTORE PUSH1 0x20 ADD PUSH1 0x4 DUP3 ADD SLOAD DUP2 MSTORE PUSH1 0x20 ADD PUSH1 0x5 DUP3 ADD SLOAD DUP2 MSTORE PUSH1 0x20 ADD PUSH1 0x6 DUP3 ADD SLOAD DUP2 MSTORE PUSH1 0x20 ADD PUSH1 0x7 DUP3 ADD DUP1 SLOAD DUP1 PUSH1 0x20 MUL PUSH1 0x20 ADD PUSH1 0x40 MLOAD SWAP1 DUP2 ADD PUSH1 0x40 MSTORE DUP1 SWAP3 SWAP2 SWAP1 DUP2 DUP2 MSTORE PUSH1 0x20 ADD DUP3 DUP1 SLOAD DUP1 ISZERO PUSH2 0x737C JUMPI PUSH1 0x20 MUL DUP3 ADD SWAP2 SWAP1 PUSH0 MSTORE PUSH1 0x20 PUSH0 KECCAK256 SWAP1 JUMPDEST DUP2 SLOAD DUP2 MSTORE PUSH1 0x20 ADD SWAP1 PUSH1 0x1 ADD SWAP1 DUP1 DUP4 GT PUSH2 0x7368 JUMPI JUMPDEST POP POP POP POP POP DUP2 MSTORE PUSH1 0x20 ADD PUSH1 0x8 DUP3 ADD DUP1 SLOAD DUP1 PUSH1 0x20 MUL PUSH1 0x20 ADD PUSH1 0x40 MLOAD SWAP1 DUP2 ADD PUSH1 0x40 MSTORE DUP1 SWAP3 SWAP2 SWAP1 DUP2 DUP2 MSTORE PUSH1 0x20 ADD PUSH0 SWAP1 JUMPDEST DUP3 DUP3 LT ISZERO PUSH2 0x7451 JUMPI DUP4 DUP3 SWAP1 PUSH0 MSTORE PUSH1 0x20 PUSH0 KECCAK256 ADD DUP1 SLOAD PUSH2 0x73C6 SWAP1 PUSH2 0xCA68 JUMP JUMPDEST DUP1 PUSH1 0x1F ADD PUSH1 0x20 DUP1 SWAP2 DIV MUL PUSH1 0x20 ADD PUSH1 0x40 MLOAD SWAP1 DUP2 ADD PUSH1 0x40 MSTORE DUP1 SWAP3 SWAP2 SWAP1 DUP2 DUP2 MSTORE PUSH1 0x20 ADD DUP3 DUP1 SLOAD PUSH2 0x73F2 SWAP1 PUSH2 0xCA68 JUMP JUMPDEST DUP1 ISZERO PUSH2 0x743D JUMPI DUP1 PUSH1 0x1F LT PUSH2 0x7414 JUMPI PUSH2 0x100 DUP1 DUP4 SLOAD DIV MUL DUP4 MSTORE SWAP2 PUSH1 0x20 ADD SWAP2 PUSH2 0x743D JUMP JUMPDEST DUP3 ADD SWAP2 SWAP1 PUSH0 MSTORE PUSH1 0x20 PUSH0 KECCAK256 SWAP1 JUMPDEST DUP2 SLOAD DUP2 MSTORE SWAP1 PUSH1 0x1 ADD SWAP1 PUSH1 0x20 ADD DUP1 DUP4 GT PUSH2 0x7420 JUMPI DUP3 SWAP1 SUB PUSH1 0x1F AND DUP3 ADD SWAP2 JUMPDEST POP POP POP POP POP DUP2 MSTORE PUSH1 0x20 ADD SWAP1 PUSH1 0x1 ADD SWAP1 PUSH2 0x73A9 JUMP JUMPDEST POP POP POP POP DUP2 MSTORE PUSH1 0x20 ADD PUSH1 0x9 DUP3 ADD SLOAD DUP2 MSTORE PUSH1 0x20 ADD PUSH1 0xA DUP3 ADD SLOAD DUP2 MSTORE PUSH1 0x20 ADD PUSH1 0xB DUP3 ADD DUP1 SLOAD DUP1 PUSH1 0x20 MUL PUSH1 0x20 ADD PUSH1 0x40 MLOAD SWAP1 DUP2 ADD PUSH1 0x40 MSTORE DUP1 SWAP3 SWAP2 SWAP1 DUP2 DUP2 MSTORE PUSH1 0x20 ADD PUSH0 SWAP1 JUMPDEST DUP3 DUP3 LT ISZERO PUSH2 0x7539 JUMPI DUP4 DUP3 SWAP1 PUSH0 MSTORE PUSH1 0x20 PUSH0 KECCAK256 ADD DUP1 SLOAD PUSH2 0x74AE SWAP1 PUSH2 0xCA68 JUMP JUMPDEST DUP1 PUSH1 0x1F ADD PUSH1 0x20 DUP1 SWAP2 DIV MUL PUSH1 0x20 ADD PUSH1 0x40 MLOAD SWAP1 DUP2 ADD PUSH1 0x40 MSTORE DUP1 SWAP3 SWAP2 SWAP1 DUP2 DUP2 MSTORE PUSH1 0x20 ADD DUP3 DUP1 SLOAD PUSH2 0x74DA SWAP1 PUSH2 0xCA68 JUMP JUMPDEST DUP1 ISZERO PUSH2 0x7525 JUMPI DUP1 PUSH1 0x1F LT PUSH2 0x74FC JUMPI PUSH2 0x100 DUP1 DUP4 SLOAD DIV MUL DUP4 MSTORE SWAP2 PUSH1 0x20 ADD SWAP2 PUSH2 0x7525 JUMP JUMPDEST DUP3 ADD SWAP2 SWAP1 PUSH0 MSTORE PUSH1 0x20 PUSH0 KECCAK256 SWAP1 JUMPDEST DUP2 SLOAD DUP2 MSTORE SWAP1 PUSH1 0x1 ADD SWAP1 PUSH1 0x20 ADD DUP1 DUP4 GT PUSH2 0x7508 JUMPI DUP3 SWAP1 SUB PUSH1 0x1F AND DUP3 ADD SWAP2 JUMPDEST POP POP POP POP POP DUP2 MSTORE PUSH1 0x20 ADD SWAP1 PUSH1 0x1 ADD SWAP1 PUSH2 0x7491 JUMP JUMPDEST POP POP POP SWAP1 DUP3 MSTORE POP PUSH1 0xC DUP3 ADD SLOAD PUSH1 0x1 PUSH1 0x1 PUSH1 0xA0 SHL SUB AND PUSH1 0x20 DUP3 ADD MSTORE PUSH1 0xD DUP3 ADD DUP1 SLOAD PUSH1 0x40 SWAP1 SWAP3 ADD SWAP2 PUSH2 0x7568 SWAP1 PUSH2 0xCA68 JUMP JUMPDEST DUP1 PUSH1 0x1F ADD PUSH1 0x20 DUP1 SWAP2 DIV MUL PUSH1 0x20 ADD PUSH1 0x40 MLOAD SWAP1 DUP2 ADD PUSH1 0x40 MSTORE DUP1 SWAP3 SWAP2 SWAP1 DUP2 DUP2 MSTORE PUSH1 0x20 ADD DUP3 DUP1 SLOAD PUSH2 0x7594 SWAP1 PUSH2 0xCA68 JUMP JUMPDEST DUP1 ISZERO PUSH2 0x75DF JUMPI DUP1 PUSH1 0x1F LT PUSH2 0x75B6 JUMPI PUSH2 0x100 DUP1 DUP4 SLOAD DIV MUL DUP4 MSTORE SWAP2 PUSH1 0x20 ADD SWAP2 PUSH2 0x75DF JUMP JUMPDEST DUP3 ADD SWAP2 SWAP1 PUSH0 MSTORE PUSH1 0x20 PUSH0 KECCAK256 SWAP1 JUMPDEST DUP2 SLOAD DUP2 MSTORE SWAP1 PUSH1 0x1 ADD SWAP1 PUSH1 0x20 ADD DUP1 DUP4 GT PUSH2 0x75C2 JUMPI DUP3 SWAP1 SUB PUSH1 0x1F AND DUP3 ADD SWAP2 JUMPDEST POP POP POP POP POP DUP2 MSTORE PUSH1 0x20 ADD PUSH1 0xE DUP3 ADD DUP1 SLOAD PUSH2 0x75F8 SWAP1 PUSH2 0xCA68 JUMP JUMPDEST DUP1 PUSH1 0x1F ADD PUSH1 0x20 DUP1 SWAP2 DIV MUL PUSH1 0x20 ADD PUSH1 0x40 MLOAD SWAP1 DUP2 ADD PUSH1 0x40 MSTORE DUP1 SWAP3 SWAP2 SWAP1 DUP2 DUP2 MSTORE PUSH1 0x20 ADD DUP3 DUP1 SLOAD PUSH2 0x7624 SWAP1 PUSH2 0xCA68 JUMP JUMPDEST DUP1 ISZERO PUSH2 0x766F JUMPI DUP1 PUSH1 0x1F LT PUSH2 0x7646 JUMPI PUSH2 0x100 DUP1 DUP4 SLOAD DIV MUL DUP4 MSTORE SWAP2 PUSH1 0x20 ADD SWAP2 PUSH2 0x766F JUMP JUMPDEST DUP3 ADD SWAP2 SWAP1 PUSH0 MSTORE PUSH1 0x20 PUSH0 KECCAK256 SWAP1 JUMPDEST DUP2 SLOAD DUP2 MSTORE SWAP1 PUSH1 0x1 ADD SWAP1 PUSH1 0x20 ADD DUP1 DUP4 GT PUSH2 0x7652 JUMPI DUP3 SWAP1 SUB PUSH1 0x1F AND DUP3 ADD SWAP2 JUMPDEST POP POP POP SWAP2 DUP4 MSTORE POP POP PUSH1 0xF DUP3 ADD SLOAD PUSH1 0xFF AND ISZERO ISZERO PUSH1 0x20 DUP1 DUP4 ADD SWAP2 SWAP1 SWAP2 MSTORE PUSH1 0x10 DUP4 ADD DUP1 SLOAD PUSH1 0x40 DUP1 MLOAD DUP3 DUP6 MUL DUP2 ADD DUP6 ADD DUP3 MSTORE DUP3 DUP2 MSTORE SWAP5 ADD SWAP4 SWAP3 PUSH0 SWAP1 DUP5 ADD JUMPDEST DUP3 DUP3 LT ISZERO PUSH2 0x7751 JUMPI DUP4 DUP3 SWAP1 PUSH0 MSTORE PUSH1 0x20 PUSH0 KECCAK256 ADD DUP1 SLOAD PUSH2 0x76C6 SWAP1 PUSH2 0xCA68 JUMP JUMPDEST DUP1 PUSH1 0x1F ADD PUSH1 0x20 DUP1 SWAP2 DIV MUL PUSH1 0x20 ADD PUSH1 0x40 MLOAD SWAP1 DUP2 ADD PUSH1 0x40 MSTORE DUP1 SWAP3 SWAP2 SWAP1 DUP2 DUP2 MSTORE PUSH1 0x20 ADD DUP3 DUP1 SLOAD PUSH2 0x76F2 SWAP1 PUSH2 0xCA68 JUMP JUMPDEST DUP1 ISZERO PUSH2 0x773D JUMPI DUP1 PUSH1 0x1F LT PUSH2 0x7714 JUMPI PUSH2 0x100 DUP1 DUP4 SLOAD DIV MUL DUP4 MSTORE SWAP2 PUSH1 0x20 ADD SWAP2 PUSH2 0x773D JUMP JUMPDEST DUP3 ADD SWAP2 SWAP1 PUSH0 MSTORE PUSH1 0x20 PUSH0 KECCAK256 SWAP1 JUMPDEST DUP2 SLOAD DUP2 MSTORE SWAP1 PUSH1 0x1 ADD SWAP1 PUSH1 0x20 ADD DUP1 DUP4 GT PUSH2 0x7720 JUMPI DUP3 SWAP1 SUB PUSH1 0x1F AND DUP3 ADD SWAP2 JUMPDEST POP POP POP POP POP DUP2 MSTORE PUSH1 0x20 ADD SWAP1 PUSH1 0x1 ADD SWAP1 PUSH2 0x76A9 JUMP JUMPDEST POP POP POP POP DUP2 MSTORE PUSH1 0x20 ADD PUSH1 0x11 DUP3 ADD DUP1 SLOAD PUSH2 0x7769 SWAP1 PUSH2 0xCA68 JUMP JUMPDEST DUP1 PUSH1 0x1F ADD PUSH1 0x20 DUP1 SWAP2 DIV MUL PUSH1 0x20 ADD PUSH1 0x40 MLOAD SWAP1 DUP2 ADD PUSH1 0x40 MSTORE DUP1 SWAP3 SWAP2 SWAP1 DUP2 DUP2 MSTORE PUSH1 0x20 ADD DUP3 DUP1 SLOAD PUSH2 0x7795 SWAP1 PUSH2 0xCA68 JUMP JUMPDEST DUP1 ISZERO PUSH2 0x77E0 JUMPI DUP1 PUSH1 0x1F LT PUSH2 0x77B7 JUMPI PUSH2 0x100 DUP1 DUP4 SLOAD DIV MUL DUP4 MSTORE SWAP2 PUSH1 0x20 ADD SWAP2 PUSH2 0x77E0 JUMP JUMPDEST DUP3 ADD SWAP2 SWAP1 PUSH0 MSTORE PUSH1 0x20 PUSH0 KECCAK256 SWAP1 JUMPDEST DUP2 SLOAD DUP2 MSTORE SWAP1 PUSH1 0x1 ADD SWAP1 PUSH1 0x20 ADD DUP1 DUP4 GT PUSH2 0x77C3 JUMPI DUP3 SWAP1 SUB PUSH1 0x1F AND DUP3 ADD SWAP2 JUMPDEST POP POP POP SWAP2 DUP4 MSTORE POP POP PUSH1 0x12 DUP3 ADD SLOAD PUSH1 0x20 DUP1 DUP4 ADD SWAP2 SWAP1 SWAP2 MSTORE PUSH1 0x13 DUP4 ADD SLOAD PUSH1 0x40 DUP1 DUP5 ADD SWAP2 SWAP1 SWAP2 MSTORE PUSH1 0x14 DUP5 ADD SLOAD PUSH1 0x60 DUP5 ADD MSTORE PUSH1 0x15 DUP5 ADD SLOAD PUSH1 0xFF DUP1 DUP3 AND ISZERO ISZERO PUSH1 0x80 DUP7 ADD MSTORE PUSH2 0x100 SWAP1 SWAP2 DIV AND ISZERO ISZERO PUSH1 0xA0 DUP5 ADD MSTORE PUSH1 0x16 SWAP1 SWAP4 ADD SLOAD PUSH1 0xC0 SWAP1 SWAP3 ADD SWAP2 SWAP1 SWAP2 MSTORE SWAP2 DUP4 MSTORE PUSH1 0x18 DUP5 ADD SLOAD SWAP2 DUP4 ADD SWAP2 SWAP1 SWAP2 MSTORE PUSH1 0x19 SWAP1 SWAP3 ADD SLOAD SWAP2 ADD MSTORE SWAP3 SWAP2 POP POP JUMP JUMPDEST PUSH1 0xF PUSH1 0x20 MSTORE DUP2 PUSH0 MSTORE PUSH1 0x40 PUSH0 KECCAK256 DUP2 DUP2 SLOAD DUP2 LT PUSH2 0x1243 JUMPI PUSH0 DUP1 REVERT JUMPDEST PUSH1 0x3 DUP1 SLOAD PUSH1 0x60 SWAP2 SWAP1 PUSH0 SWAP1 PUSH1 0x1 PUSH1 0x1 PUSH1 0x40 SHL SUB DUP2 GT ISZERO PUSH2 0x7894 JUMPI PUSH2 0x7894 PUSH2 0xB1A6 JUMP JUMPDEST PUSH1 0x40 MLOAD SWAP1 DUP1 DUP3 MSTORE DUP1 PUSH1 0x20 MUL PUSH1 0x20 ADD DUP3 ADD PUSH1 0x40 MSTORE DUP1 ISZERO PUSH2 0x78CD JUMPI DUP2 PUSH1 0x20 ADD JUMPDEST PUSH2 0x78BA PUSH2 0xAE2C JUMP JUMPDEST DUP2 MSTORE PUSH1 0x20 ADD SWAP1 PUSH1 0x1 SWAP1 SUB SWAP1 DUP2 PUSH2 0x78B2 JUMPI SWAP1 POP JUMPDEST POP SWAP1 POP PUSH0 JUMPDEST DUP3 SLOAD DUP2 LT ISZERO PUSH2 0x3FB0 JUMPI PUSH1 0x2 PUSH0 DUP5 DUP4 DUP2 SLOAD DUP2 LT PUSH2 0x78F0 JUMPI PUSH2 0x78F0 PUSH2 0xCA54 JUMP JUMPDEST SWAP1 PUSH0 MSTORE PUSH1 0x20 PUSH0 KECCAK256 ADD SLOAD DUP2 MSTORE PUSH1 0x20 ADD SWAP1 DUP2 MSTORE PUSH1 0x20 ADD PUSH0 KECCAK256 PUSH1 0x40 MLOAD DUP1 PUSH1 0x80 ADD PUSH1 0x40 MSTORE SWAP1 DUP2 PUSH0 DUP3 ADD SLOAD DUP2 MSTORE PUSH1 0x20 ADD PUSH1 0x1 DUP3 ADD PUSH1 0x40 MLOAD DUP1 PUSH2 0x300 ADD PUSH1 0x40 MSTORE SWAP1 DUP2 PUSH0 DUP3 ADD DUP1 SLOAD PUSH2 0x793A SWAP1 PUSH2 0xCA68 JUMP JUMPDEST DUP1 PUSH1 0x1F ADD PUSH1 0x20 DUP1 SWAP2 DIV MUL PUSH1 0x20 ADD PUSH1 0x40 MLOAD SWAP1 DUP2 ADD PUSH1 0x40 MSTORE DUP1 SWAP3 SWAP2 SWAP1 DUP2 DUP2 MSTORE PUSH1 0x20 ADD DUP3 DUP1 SLOAD PUSH2 0x7966 SWAP1 PUSH2 0xCA68 JUMP JUMPDEST DUP1 ISZERO PUSH2 0x79B1 JUMPI DUP1 PUSH1 0x1F LT PUSH2 0x7988 JUMPI PUSH2 0x100 DUP1 DUP4 SLOAD DIV MUL DUP4 MSTORE SWAP2 PUSH1 0x20 ADD SWAP2 PUSH2 0x79B1 JUMP JUMPDEST DUP3 ADD SWAP2 SWAP1 PUSH0 MSTORE PUSH1 0x20 PUSH0 KECCAK256 SWAP1 JUMPDEST DUP2 SLOAD DUP2 MSTORE SWAP1 PUSH1 0x1 ADD SWAP1 PUSH1 0x20 ADD DUP1 DUP4 GT PUSH2 0x7994 JUMPI DUP3 SWAP1 SUB PUSH1 0x1F AND DUP3 ADD SWAP2 JUMPDEST POP POP POP POP POP DUP2 MSTORE PUSH1 0x20 ADD PUSH1 0x1 DUP3 ADD SLOAD DUP2 MSTORE PUSH1 0x20 ADD PUSH1 0x2 DUP3 ADD DUP1 SLOAD PUSH2 0x79D4 SWAP1 PUSH2 0xCA68 JUMP JUMPDEST DUP1 PUSH1 0x1F ADD PUSH1 0x20 DUP1 SWAP2 DIV MUL PUSH1 0x20 ADD PUSH1 0x40 MLOAD SWAP1 DUP2 ADD PUSH1 0x40 MSTORE DUP1 SWAP3 SWAP2 SWAP1 DUP2 DUP2 MSTORE PUSH1 0x20 ADD DUP3 DUP1 SLOAD PUSH2 0x7A00 SWAP1 PUSH2 0xCA68 JUMP JUMPDEST DUP1 ISZERO PUSH2 0x7A4B JUMPI DUP1 PUSH1 0x1F LT PUSH2 0x7A22 JUMPI PUSH2 0x100 DUP1 DUP4 SLOAD DIV MUL DUP4 MSTORE SWAP2 PUSH1 0x20 ADD SWAP2 PUSH2 0x7A4B JUMP JUMPDEST DUP3 ADD SWAP2 SWAP1 PUSH0 MSTORE PUSH1 0x20 PUSH0 KECCAK256 SWAP1 JUMPDEST DUP2 SLOAD DUP2 MSTORE SWAP1 PUSH1 0x1 ADD SWAP1 PUSH1 0x20 ADD DUP1 DUP4 GT PUSH2 0x7A2E JUMPI DUP3 SWAP1 SUB PUSH1 0x1F AND DUP3 ADD SWAP2 JUMPDEST POP POP POP POP POP DUP2 MSTORE PUSH1 0x20 ADD PUSH1 0x3 DUP3 ADD SLOAD DUP2 MSTORE PUSH1 0x20 ADD PUSH1 0x4 DUP3 ADD SLOAD DUP2 MSTORE PUSH1 0x20 ADD PUSH1 0x5 DUP3 ADD SLOAD DUP2 MSTORE PUSH1 0x20 ADD PUSH1 0x6 DUP3 ADD SLOAD DUP2 MSTORE PUSH1 0x20 ADD PUSH1 0x7 DUP3 ADD DUP1 SLOAD DUP1 PUSH1 0x20 MUL PUSH1 0x20 ADD PUSH1 0x40 MLOAD SWAP1 DUP2 ADD PUSH1 0x40 MSTORE DUP1 SWAP3 SWAP2 SWAP1 DUP2 DUP2 MSTORE PUSH1 0x20 ADD DUP3 DUP1 SLOAD DUP1 ISZERO PUSH2 0x7AC9 JUMPI PUSH1 0x20 MUL DUP3 ADD SWAP2 SWAP1 PUSH0 MSTORE PUSH1 0x20 PUSH0 KECCAK256 SWAP1 JUMPDEST DUP2 SLOAD DUP2 MSTORE PUSH1 0x20 ADD SWAP1 PUSH1 0x1 ADD SWAP1 DUP1 DUP4 GT PUSH2 0x7AB5 JUMPI JUMPDEST POP POP POP POP POP DUP2 MSTORE PUSH1 0x20 ADD PUSH1 0x8 DUP3 ADD DUP1 SLOAD DUP1 PUSH1 0x20 MUL PUSH1 0x20 ADD PUSH1 0x40 MLOAD SWAP1 DUP2 ADD PUSH1 0x40 MSTORE DUP1 SWAP3 SWAP2 SWAP1 DUP2 DUP2 MSTORE PUSH1 0x20 ADD PUSH0 SWAP1 JUMPDEST DUP3 DUP3 LT ISZERO PUSH2 0x7B9E JUMPI DUP4 DUP3 SWAP1 PUSH0 MSTORE PUSH1 0x20 PUSH0 KECCAK256 ADD DUP1 SLOAD PUSH2 0x7B13 SWAP1 PUSH2 0xCA68 JUMP JUMPDEST DUP1 PUSH1 0x1F ADD PUSH1 0x20 DUP1 SWAP2 DIV MUL PUSH1 0x20 ADD PUSH1 0x40 MLOAD SWAP1 DUP2 ADD PUSH1 0x40 MSTORE DUP1 SWAP3 SWAP2 SWAP1 DUP2 DUP2 MSTORE PUSH1 0x20 ADD DUP3 DUP1 SLOAD PUSH2 0x7B3F SWAP1 PUSH2 0xCA68 JUMP JUMPDEST DUP1 ISZERO PUSH2 0x7B8A JUMPI DUP1 PUSH1 0x1F LT PUSH2 0x7B61 JUMPI PUSH2 0x100 DUP1 DUP4 SLOAD DIV MUL DUP4 MSTORE SWAP2 PUSH1 0x20 ADD SWAP2 PUSH2 0x7B8A JUMP JUMPDEST DUP3 ADD SWAP2 SWAP1 PUSH0 MSTORE PUSH1 0x20 PUSH0 KECCAK256 SWAP1 JUMPDEST DUP2 SLOAD DUP2 MSTORE SWAP1 PUSH1 0x1 ADD SWAP1 PUSH1 0x20 ADD DUP1 DUP4 GT PUSH2 0x7B6D JUMPI DUP3 SWAP1 SUB PUSH1 0x1F AND DUP3 ADD SWAP2 JUMPDEST POP POP POP POP POP DUP2 MSTORE PUSH1 0x20 ADD SWAP1 PUSH1 0x1 ADD SWAP1 PUSH2 0x7AF6 JUMP JUMPDEST POP POP POP POP DUP2 MSTORE PUSH1 0x20 ADD PUSH1 0x9 DUP3 ADD SLOAD DUP2 MSTORE PUSH1 0x20 ADD PUSH1 0xA DUP3 ADD SLOAD DUP2 MSTORE PUSH1 0x20 ADD PUSH1 0xB DUP3 ADD DUP1 SLOAD DUP1 PUSH1 0x20 MUL PUSH1 0x20 ADD PUSH1 0x40 MLOAD SWAP1 DUP2 ADD PUSH1 0x40 MSTORE DUP1 SWAP3 SWAP2 SWAP1 DUP2 DUP2 MSTORE PUSH1 0x20 ADD PUSH0 SWAP1 JUMPDEST DUP3 DUP3 LT ISZERO PUSH2 0x7C86 JUMPI DUP4 DUP3 SWAP1 PUSH0 MSTORE PUSH1 0x20 PUSH0 KECCAK256 ADD DUP1 SLOAD PUSH2 0x7BFB SWAP1 PUSH2 0xCA68 JUMP JUMPDEST DUP1 PUSH1 0x1F ADD PUSH1 0x20 DUP1 SWAP2 DIV MUL PUSH1 0x20 ADD PUSH1 0x40 MLOAD SWAP1 DUP2 ADD PUSH1 0x40 MSTORE DUP1 SWAP3 SWAP2 SWAP1 DUP2 DUP2 MSTORE PUSH1 0x20 ADD DUP3 DUP1 SLOAD PUSH2 0x7C27 SWAP1 PUSH2 0xCA68 JUMP JUMPDEST DUP1 ISZERO PUSH2 0x7C72 JUMPI DUP1 PUSH1 0x1F LT PUSH2 0x7C49 JUMPI PUSH2 0x100 DUP1 DUP4 SLOAD DIV MUL DUP4 MSTORE SWAP2 PUSH1 0x20 ADD SWAP2 PUSH2 0x7C72 JUMP JUMPDEST DUP3 ADD SWAP2 SWAP1 PUSH0 MSTORE PUSH1 0x20 PUSH0 KECCAK256 SWAP1 JUMPDEST DUP2 SLOAD DUP2 MSTORE SWAP1 PUSH1 0x1 ADD SWAP1 PUSH1 0x20 ADD DUP1 DUP4 GT PUSH2 0x7C55 JUMPI DUP3 SWAP1 SUB PUSH1 0x1F AND DUP3 ADD SWAP2 JUMPDEST POP POP POP POP POP DUP2 MSTORE PUSH1 0x20 ADD SWAP1 PUSH1 0x1 ADD SWAP1 PUSH2 0x7BDE JUMP JUMPDEST POP POP POP SWAP1 DUP3 MSTORE POP PUSH1 0xC DUP3 ADD SLOAD PUSH1 0x1 PUSH1 0x1 PUSH1 0xA0 SHL SUB AND PUSH1 0x20 DUP3 ADD MSTORE PUSH1 0xD DUP3 ADD DUP1 SLOAD PUSH1 0x40 SWAP1 SWAP3 ADD SWAP2 PUSH2 0x7CB5 SWAP1 PUSH2 0xCA68 JUMP JUMPDEST DUP1 PUSH1 0x1F ADD PUSH1 0x20 DUP1 SWAP2 DIV MUL PUSH1 0x20 ADD PUSH1 0x40 MLOAD SWAP1 DUP2 ADD PUSH1 0x40 MSTORE DUP1 SWAP3 SWAP2 SWAP1 DUP2 DUP2 MSTORE PUSH1 0x20 ADD DUP3 DUP1 SLOAD PUSH2 0x7CE1 SWAP1 PUSH2 0xCA68 JUMP JUMPDEST DUP1 ISZERO PUSH2 0x7D2C JUMPI DUP1 PUSH1 0x1F LT PUSH2 0x7D03 JUMPI PUSH2 0x100 DUP1 DUP4 SLOAD DIV MUL DUP4 MSTORE SWAP2 PUSH1 0x20 ADD SWAP2 PUSH2 0x7D2C JUMP JUMPDEST DUP3 ADD SWAP2 SWAP1 PUSH0 MSTORE PUSH1 0x20 PUSH0 KECCAK256 SWAP1 JUMPDEST DUP2 SLOAD DUP2 MSTORE SWAP1 PUSH1 0x1 ADD SWAP1 PUSH1 0x20 ADD DUP1 DUP4 GT PUSH2 0x7D0F JUMPI DUP3 SWAP1 SUB PUSH1 0x1F AND DUP3 ADD SWAP2 JUMPDEST POP POP POP POP POP DUP2 MSTORE PUSH1 0x20 ADD PUSH1 0xE DUP3 ADD DUP1 SLOAD PUSH2 0x7D45 SWAP1 PUSH2 0xCA68 JUMP JUMPDEST DUP1 PUSH1 0x1F ADD PUSH1 0x20 DUP1 SWAP2 DIV MUL PUSH1 0x20 ADD PUSH1 0x40 MLOAD SWAP1 DUP2 ADD PUSH1 0x40 MSTORE DUP1 SWAP3 SWAP2 SWAP1 DUP2 DUP2 MSTORE PUSH1 0x20 ADD DUP3 DUP1 SLOAD PUSH2 0x7D71 SWAP1 PUSH2 0xCA68 JUMP JUMPDEST DUP1 ISZERO PUSH2 0x7DBC JUMPI DUP1 PUSH1 0x1F LT PUSH2 0x7D93 JUMPI PUSH2 0x100 DUP1 DUP4 SLOAD DIV MUL DUP4 MSTORE SWAP2 PUSH1 0x20 ADD SWAP2 PUSH2 0x7DBC JUMP JUMPDEST DUP3 ADD SWAP2 SWAP1 PUSH0 MSTORE PUSH1 0x20 PUSH0 KECCAK256 SWAP1 JUMPDEST DUP2 SLOAD DUP2 MSTORE SWAP1 PUSH1 0x1 ADD SWAP1 PUSH1 0x20 ADD DUP1 DUP4 GT PUSH2 0x7D9F JUMPI DUP3 SWAP1 SUB PUSH1 0x1F AND DUP3 ADD SWAP2 JUMPDEST POP POP POP SWAP2 DUP4 MSTORE POP POP PUSH1 0xF DUP3 ADD SLOAD PUSH1 0xFF AND ISZERO ISZERO PUSH1 0x20 DUP1 DUP4 ADD SWAP2 SWAP1 SWAP2 MSTORE PUSH1 0x10 DUP4 ADD DUP1 SLOAD PUSH1 0x40 DUP1 MLOAD DUP3 DUP6 MUL DUP2 ADD DUP6 ADD DUP3 MSTORE DUP3 DUP2 MSTORE SWAP5 ADD SWAP4 SWAP3 PUSH0 SWAP1 DUP5 ADD JUMPDEST DUP3 DUP3 LT ISZERO PUSH2 0x7E9E JUMPI DUP4 DUP3 SWAP1 PUSH0 MSTORE PUSH1 0x20 PUSH0 KECCAK256 ADD DUP1 SLOAD PUSH2 0x7E13 SWAP1 PUSH2 0xCA68 JUMP JUMPDEST DUP1 PUSH1 0x1F ADD PUSH1 0x20 DUP1 SWAP2 DIV MUL PUSH1 0x20 ADD PUSH1 0x40 MLOAD SWAP1 DUP2 ADD PUSH1 0x40 MSTORE DUP1 SWAP3 SWAP2 SWAP1 DUP2 DUP2 MSTORE PUSH1 0x20 ADD DUP3 DUP1 SLOAD PUSH2 0x7E3F SWAP1 PUSH2 0xCA68 JUMP JUMPDEST DUP1 ISZERO PUSH2 0x7E8A JUMPI DUP1 PUSH1 0x1F LT PUSH2 0x7E61 JUMPI PUSH2 0x100 DUP1 DUP4 SLOAD DIV MUL DUP4 MSTORE SWAP2 PUSH1 0x20 ADD SWAP2 PUSH2 0x7E8A JUMP JUMPDEST DUP3 ADD SWAP2 SWAP1 PUSH0 MSTORE PUSH1 0x20 PUSH0 KECCAK256 SWAP1 JUMPDEST DUP2 SLOAD DUP2 MSTORE SWAP1 PUSH1 0x1 ADD SWAP1 PUSH1 0x20 ADD DUP1 DUP4 GT PUSH2 0x7E6D JUMPI DUP3 SWAP1 SUB PUSH1 0x1F AND DUP3 ADD SWAP2 JUMPDEST POP POP POP POP POP DUP2 MSTORE PUSH1 0x20 ADD SWAP1 PUSH1 0x1 ADD SWAP1 PUSH2 0x7DF6 JUMP JUMPDEST POP POP POP POP DUP2 MSTORE PUSH1 0x20 ADD PUSH1 0x11 DUP3 ADD DUP1 SLOAD PUSH2 0x7EB6 SWAP1 PUSH2 0xCA68 JUMP JUMPDEST DUP1 PUSH1 0x1F ADD PUSH1 0x20 DUP1 SWAP2 DIV MUL PUSH1 0x20 ADD PUSH1 0x40 MLOAD SWAP1 DUP2 ADD PUSH1 0x40 MSTORE DUP1 SWAP3 SWAP2 SWAP1 DUP2 DUP2 MSTORE PUSH1 0x20 ADD DUP3 DUP1 SLOAD PUSH2 0x7EE2 SWAP1 PUSH2 0xCA68 JUMP JUMPDEST DUP1 ISZERO PUSH2 0x7F2D JUMPI DUP1 PUSH1 0x1F LT PUSH2 0x7F04 JUMPI PUSH2 0x100 DUP1 DUP4 SLOAD DIV MUL DUP4 MSTORE SWAP2 PUSH1 0x20 ADD SWAP2 PUSH2 0x7F2D JUMP JUMPDEST DUP3 ADD SWAP2 SWAP1 PUSH0 MSTORE PUSH1 0x20 PUSH0 KECCAK256 SWAP1 JUMPDEST DUP2 SLOAD DUP2 MSTORE SWAP1 PUSH1 0x1 ADD SWAP1 PUSH1 0x20 ADD DUP1 DUP4 GT PUSH2 0x7F10 JUMPI DUP3 SWAP1 SUB PUSH1 0x1F AND DUP3 ADD SWAP2 JUMPDEST POP POP POP SWAP2 DUP4 MSTORE POP POP PUSH1 0x12 DUP3 ADD SLOAD PUSH1 0x20 DUP1 DUP4 ADD SWAP2 SWAP1 SWAP2 MSTORE PUSH1 0x13 DUP4 ADD SLOAD PUSH1 0x40 DUP1 DUP5 ADD SWAP2 SWAP1 SWAP2 MSTORE PUSH1 0x14 DUP5 ADD SLOAD PUSH1 0x60 DUP5 ADD MSTORE PUSH1 0x15 DUP5 ADD SLOAD PUSH1 0xFF DUP1 DUP3 AND ISZERO ISZERO PUSH1 0x80 DUP7 ADD MSTORE PUSH2 0x100 SWAP1 SWAP2 DIV AND ISZERO ISZERO PUSH1 0xA0 DUP5 ADD MSTORE PUSH1 0x16 SWAP1 SWAP4 ADD SLOAD PUSH1 0xC0 SWAP1 SWAP3 ADD SWAP2 SWAP1 SWAP2 MSTORE SWAP2 DUP4 MSTORE PUSH1 0x18 DUP5 ADD SLOAD SWAP2 DUP4 ADD SWAP2 SWAP1 SWAP2 MSTORE PUSH1 0x19 SWAP1 SWAP3 ADD SLOAD SWAP2 ADD MSTORE DUP3 MLOAD DUP4 SWAP1 DUP4 SWAP1 DUP2 LT PUSH2 0x7FB5 JUMPI PUSH2 0x7FB5 PUSH2 0xCA54 JUMP JUMPDEST PUSH1 0x20 SWAP1 DUP2 MUL SWAP2 SWAP1 SWAP2 ADD ADD MSTORE PUSH1 0x1 ADD PUSH2 0x78D2 JUMP JUMPDEST PUSH1 0x1F SLOAD PUSH1 0x40 MLOAD PUSH4 0x656952AD PUSH1 0xE0 SHL DUP2 MSTORE PUSH1 0x1 PUSH1 0x1 PUSH1 0xA0 SHL SUB SWAP1 SWAP2 AND SWAP1 PUSH4 0x656952AD SWAP1 PUSH2 0x7FF8 SWAP1 CALLER SWAP1 PUSH1 0x4 ADD PUSH2 0xBF40 JUMP JUMPDEST PUSH1 0x20 PUSH1 0x40 MLOAD DUP1 DUP4 SUB DUP2 DUP7 GAS STATICCALL ISZERO DUP1 ISZERO PUSH2 0x8013 JUMPI RETURNDATASIZE PUSH0 DUP1 RETURNDATACOPY RETURNDATASIZE PUSH0 REVERT JUMPDEST POP POP POP POP PUSH1 0x40 MLOAD RETURNDATASIZE PUSH1 0x1F NOT PUSH1 0x1F DUP3 ADD AND DUP3 ADD DUP1 PUSH1 0x40 MSTORE POP DUP2 ADD SWAP1 PUSH2 0x8037 SWAP2 SWAP1 PUSH2 0xCBD9 JUMP JUMPDEST DUP1 PUSH2 0x80AC JUMPI POP PUSH1 0x1F SLOAD PUSH1 0x40 MLOAD PUSH4 0x59D32027 PUSH1 0xE1 SHL DUP2 MSTORE PUSH1 0x1 PUSH1 0x1 PUSH1 0xA0 SHL SUB SWAP1 SWAP2 AND SWAP1 PUSH4 0xB3A6404E SWAP1 PUSH2 0x806D SWAP1 CALLER SWAP1 PUSH1 0x4 ADD PUSH2 0xBF40 JUMP JUMPDEST PUSH1 0x20 PUSH1 0x40 MLOAD DUP1 DUP4 SUB DUP2 DUP7 GAS STATICCALL ISZERO DUP1 ISZERO PUSH2 0x8088 JUMPI RETURNDATASIZE PUSH0 DUP1 RETURNDATACOPY RETURNDATASIZE PUSH0 REVERT JUMPDEST POP POP POP POP PUSH1 0x40 MLOAD RETURNDATASIZE PUSH1 0x1F NOT PUSH1 0x1F DUP3 ADD AND DUP3 ADD DUP1 PUSH1 0x40 MSTORE POP DUP2 ADD SWAP1 PUSH2 0x80AC SWAP2 SWAP1 PUSH2 0xCBD9 JUMP JUMPDEST PUSH2 0x80D9 PUSH1 0x37 PUSH1 0x40 MLOAD DUP1 PUSH1 0x40 ADD PUSH1 0x40 MSTORE DUP1 PUSH1 0x1B DUP2 MSTORE PUSH1 0x20 ADD PUSH0 DUP1 MLOAD PUSH1 0x20 PUSH2 0xD30A DUP4 CODECOPY DUP2 MLOAD SWAP2 MSTORE DUP2 MSTORE POP PUSH2 0x184A JUMP JUMPDEST SWAP1 PUSH2 0x80F7 JUMPI PUSH1 0x40 MLOAD PUSH3 0x461BCD PUSH1 0xE5 SHL DUP2 MSTORE PUSH1 0x4 ADD PUSH2 0x10E0 SWAP2 SWAP1 PUSH2 0xB975 JUMP JUMPDEST POP PUSH0 JUMPDEST DUP2 MLOAD DUP2 LT ISZERO PUSH2 0x168D JUMPI PUSH2 0x8146 DUP3 DUP3 DUP2 MLOAD DUP2 LT PUSH2 0x8118 JUMPI PUSH2 0x8118 PUSH2 0xCA54 JUMP JUMPDEST PUSH1 0x20 MUL PUSH1 0x20 ADD ADD MLOAD PUSH0 ADD MLOAD DUP4 DUP4 DUP2 MLOAD DUP2 LT PUSH2 0x8135 JUMPI PUSH2 0x8135 PUSH2 0xCA54 JUMP JUMPDEST PUSH1 0x20 MUL PUSH1 0x20 ADD ADD MLOAD PUSH1 0x20 ADD MLOAD PUSH2 0x6E60 JUMP JUMPDEST PUSH1 0x1 ADD PUSH2 0x80FA JUMP JUMPDEST PUSH1 0xC DUP2 DUP2 SLOAD DUP2 LT PUSH2 0x5A95 JUMPI PUSH0 DUP1 REVERT JUMPDEST PUSH1 0x1 PUSH1 0x1 PUSH1 0xA0 SHL SUB DUP2 AND PUSH0 SWAP1 DUP2 MSTORE PUSH1 0x18 PUSH1 0x20 SWAP1 DUP2 MSTORE PUSH1 0x40 DUP1 DUP4 KECCAK256 DUP1 SLOAD DUP3 MLOAD DUP2 DUP6 MUL DUP2 ADD DUP6 ADD SWAP1 SWAP4 MSTORE DUP1 DUP4 MSTORE PUSH1 0x60 SWAP5 SWAP3 SWAP4 SWAP2 SWAP3 SWAP1 SWAP2 DUP5 ADD JUMPDEST DUP3 DUP3 LT ISZERO PUSH2 0x81D7 JUMPI DUP4 DUP3 SWAP1 PUSH0 MSTORE PUSH1 0x20 PUSH0 KECCAK256 SWAP1 PUSH1 0x2 MUL ADD PUSH1 0x40 MLOAD DUP1 PUSH1 0x40 ADD PUSH1 0x40 MSTORE SWAP1 DUP2 PUSH0 DUP3 ADD SLOAD DUP2 MSTORE PUSH1 0x20 ADD PUSH1 0x1 DUP3 ADD SLOAD DUP2 MSTORE POP POP DUP2 MSTORE PUSH1 0x20 ADD SWAP1 PUSH1 0x1 ADD SWAP1 PUSH2 0x8194 JUMP JUMPDEST POP POP POP POP SWAP1 POP SWAP2 SWAP1 POP JUMP JUMPDEST PUSH0 DUP1 SLOAD PUSH1 0x1 PUSH1 0x1 PUSH1 0xA0 SHL SUB AND CALLER DUP2 EQ PUSH2 0x820D JUMPI PUSH1 0x40 MLOAD PUSH3 0x461BCD PUSH1 0xE5 SHL DUP2 MSTORE PUSH1 0x4 ADD PUSH2 0x10E0 SWAP1 PUSH2 0xCA9A JUMP JUMPDEST PUSH1 0x1F DUP1 SLOAD PUSH1 0x1 PUSH1 0x1 PUSH1 0xA0 SHL SUB DUP6 AND PUSH1 0x1 PUSH1 0x1 PUSH1 0xA0 SHL SUB NOT SWAP1 SWAP2 AND OR SWAP1 SSTORE PUSH1 0x1 SWAP2 POP POP SWAP2 SWAP1 POP JUMP JUMPDEST PUSH1 0xD PUSH1 0x20 MSTORE DUP2 PUSH0 MSTORE PUSH1 0x40 PUSH0 KECCAK256 DUP2 DUP2 SLOAD DUP2 LT PUSH2 0x1243 JUMPI PUSH0 DUP1 REVERT JUMPDEST PUSH1 0x1F SLOAD PUSH1 0x40 MLOAD PUSH4 0x588F1E0D PUSH1 0xE1 SHL DUP2 MSTORE PUSH1 0x1 PUSH1 0x1 PUSH1 0xA0 SHL SUB SWAP1 SWAP2 AND SWAP1 PUSH4 0xB11E3C1A SWAP1 PUSH2 0x827D SWAP1 CALLER SWAP1 PUSH1 0x4 ADD PUSH2 0xBF40 JUMP JUMPDEST PUSH1 0x20 PUSH1 0x40 MLOAD DUP1 DUP4 SUB DUP2 DUP7 GAS STATICCALL ISZERO DUP1 ISZERO PUSH2 0x8298 JUMPI RETURNDATASIZE PUSH0 DUP1 RETURNDATACOPY RETURNDATASIZE PUSH0 REVERT JUMPDEST POP POP POP POP PUSH1 0x40 MLOAD RETURNDATASIZE PUSH1 0x1F NOT PUSH1 0x1F DUP3 ADD AND DUP3 ADD DUP1 PUSH1 0x40 MSTORE POP DUP2 ADD SWAP1 PUSH2 0x82BC SWAP2 SWAP1 PUSH2 0xCBD9 JUMP JUMPDEST PUSH2 0x82D8 JUMPI PUSH1 0x40 MLOAD PUSH3 0x461BCD PUSH1 0xE5 SHL DUP2 MSTORE PUSH1 0x4 ADD PUSH2 0x10E0 SWAP1 PUSH2 0xCE77 JUMP JUMPDEST PUSH0 JUMPDEST PUSH1 0x3 SLOAD DUP2 LT ISZERO PUSH2 0x83BF JUMPI DUP2 PUSH1 0x2 PUSH0 PUSH1 0x3 DUP5 DUP2 SLOAD DUP2 LT PUSH2 0x82FB JUMPI PUSH2 0x82FB PUSH2 0xCA54 JUMP JUMPDEST SWAP1 PUSH0 MSTORE PUSH1 0x20 PUSH0 KECCAK256 ADD SLOAD DUP2 MSTORE PUSH1 0x20 ADD SWAP1 DUP2 MSTORE PUSH1 0x20 ADD PUSH0 KECCAK256 PUSH1 0x1 ADD PUSH1 0x1 ADD SLOAD SUB PUSH2 0x83B7 JUMPI PUSH1 0x40 MLOAD PUSH3 0x461BCD PUSH1 0xE5 SHL DUP2 MSTORE PUSH1 0x20 PUSH1 0x4 DUP3 ADD MSTORE PUSH1 0x70 PUSH1 0x24 DUP3 ADD MSTORE PUSH0 DUP1 MLOAD PUSH1 0x20 PUSH2 0xD34B DUP4 CODECOPY DUP2 MLOAD SWAP2 MSTORE PUSH1 0x44 DUP3 ADD MSTORE PUSH32 0x223A20342C20226D657373616765223A2243616E6E6F742064656C6574652063 PUSH1 0x64 DUP3 ADD MSTORE PUSH32 0x617465676F72793A2050726F6475637473207374696C6C20657869737420696E PUSH1 0x84 DUP3 ADD MSTORE PUSH16 0x20746869732063617465676F7279227D PUSH1 0x80 SHL PUSH1 0xA4 DUP3 ADD MSTORE PUSH1 0xC4 ADD PUSH2 0x10E0 JUMP JUMPDEST PUSH1 0x1 ADD PUSH2 0x82DA JUMP JUMPDEST POP PUSH0 DUP2 DUP2 MSTORE PUSH1 0xB PUSH1 0x20 MSTORE PUSH1 0x40 DUP2 KECCAK256 SLOAD SWAP1 SUB PUSH2 0x83EC JUMPI PUSH1 0x40 MLOAD PUSH3 0x461BCD PUSH1 0xE5 SHL DUP2 MSTORE PUSH1 0x4 ADD PUSH2 0x10E0 SWAP1 PUSH2 0xD15E JUMP JUMPDEST PUSH0 DUP1 JUMPDEST PUSH1 0xC SLOAD DUP2 LT ISZERO PUSH2 0x842B JUMPI PUSH1 0xC DUP2 DUP2 SLOAD DUP2 LT PUSH2 0x840C JUMPI PUSH2 0x840C PUSH2 0xCA54 JUMP JUMPDEST SWAP1 PUSH0 MSTORE PUSH1 0x20 PUSH0 KECCAK256 ADD SLOAD DUP4 SUB PUSH2 0x8423 JUMPI DUP1 SWAP2 POP PUSH2 0x842B JUMP JUMPDEST PUSH1 0x1 ADD PUSH2 0x83EF JUMP JUMPDEST POP DUP1 JUMPDEST PUSH1 0xC SLOAD PUSH2 0x843D SWAP1 PUSH1 0x1 SWAP1 PUSH2 0xCB0A JUMP JUMPDEST DUP2 LT ISZERO PUSH2 0x8490 JUMPI PUSH1 0xC PUSH2 0x8451 DUP3 PUSH1 0x1 PUSH2 0xCB31 JUMP JUMPDEST DUP2 SLOAD DUP2 LT PUSH2 0x8461 JUMPI PUSH2 0x8461 PUSH2 0xCA54 JUMP JUMPDEST SWAP1 PUSH0 MSTORE PUSH1 0x20 PUSH0 KECCAK256 ADD SLOAD PUSH1 0xC DUP3 DUP2 SLOAD DUP2 LT PUSH2 0x847D JUMPI PUSH2 0x847D PUSH2 0xCA54 JUMP JUMPDEST PUSH0 SWAP2 DUP3 MSTORE PUSH1 0x20 SWAP1 SWAP2 KECCAK256 ADD SSTORE PUSH1 0x1 ADD PUSH2 0x842E JUMP JUMPDEST POP PUSH1 0xC DUP1 SLOAD DUP1 PUSH2 0x84A2 JUMPI PUSH2 0x84A2 PUSH2 0xCB1D JUMP JUMPDEST PUSH0 DUP3 DUP2 MSTORE PUSH1 0x20 DUP1 DUP3 KECCAK256 DUP4 ADD PUSH0 NOT SWAP1 DUP2 ADD DUP4 SWAP1 SSTORE SWAP1 SWAP3 ADD SWAP1 SWAP3 SSTORE DUP4 DUP3 MSTORE PUSH1 0xB SWAP1 MSTORE PUSH1 0x40 DUP2 KECCAK256 DUP2 DUP2 SSTORE SWAP1 PUSH2 0x84D7 PUSH1 0x1 DUP4 ADD DUP3 PUSH2 0xACD5 JUMP JUMPDEST PUSH2 0x84E4 PUSH1 0x2 DUP4 ADD PUSH0 PUSH2 0xACD5 JUMP JUMPDEST POP POP PUSH1 0x40 MLOAD DUP3 DUP2 MSTORE PUSH32 0x2949E8B00C2A3A7093872078D10195C02C60D9C2AAF8DECC819315E8A48DE206 SWAP1 PUSH1 0x20 ADD PUSH1 0x40 MLOAD DUP1 SWAP2 SUB SWAP1 LOG1 POP POP JUMP JUMPDEST PUSH0 DUP2 PUSH1 0x1 DUP2 LT ISZERO DUP1 ISZERO PUSH2 0x8531 JUMPI POP PUSH1 0x5 DUP2 GT ISZERO JUMPDEST PUSH2 0x854D JUMPI PUSH1 0x40 MLOAD PUSH3 0x461BCD PUSH1 0xE5 SHL DUP2 MSTORE PUSH1 0x4 ADD PUSH2 0x10E0 SWAP1 PUSH2 0xCDC2 JUMP JUMPDEST PUSH0 DUP5 DUP2 MSTORE PUSH1 0x2 PUSH1 0x20 MSTORE PUSH1 0x40 SWAP1 KECCAK256 SLOAD PUSH2 0x8577 JUMPI PUSH1 0x40 MLOAD PUSH3 0x461BCD PUSH1 0xE5 SHL DUP2 MSTORE PUSH1 0x4 ADD PUSH2 0x10E0 SWAP1 PUSH2 0xCF9F JUMP JUMPDEST CALLER PUSH0 SWAP1 DUP2 MSTORE PUSH1 0x10 PUSH1 0x20 SWAP1 DUP2 MSTORE PUSH1 0x40 DUP1 DUP4 KECCAK256 DUP8 DUP5 MSTORE SWAP1 SWAP2 MSTORE SWAP1 KECCAK256 SLOAD PUSH1 0xFF AND ISZERO PUSH2 0x8607 JUMPI PUSH1 0x40 MLOAD PUSH3 0x461BCD PUSH1 0xE5 SHL DUP2 MSTORE PUSH1 0x20 PUSH1 0x4 DUP3 ADD MSTORE PUSH1 0x4A PUSH1 0x24 DUP3 ADD MSTORE PUSH0 DUP1 MLOAD PUSH1 0x20 PUSH2 0xD34B DUP4 CODECOPY DUP2 MLOAD SWAP2 MSTORE PUSH1 0x44 DUP3 ADD MSTORE PUSH32 0x223A2032372C20226D657373616765223A202250726F6475637420616C726561 PUSH1 0x64 DUP3 ADD MSTORE PUSH10 0x6479207261746564227D PUSH1 0xB0 SHL PUSH1 0x84 DUP3 ADD MSTORE PUSH1 0xA4 ADD PUSH2 0x10E0 JUMP JUMPDEST PUSH1 0x1C DUP1 SLOAD SWAP1 PUSH0 PUSH2 0x8616 DUP4 PUSH2 0xCBF4 JUMP JUMPDEST SWAP1 SWAP2 SSTORE POP POP PUSH1 0x40 DUP1 MLOAD PUSH1 0x80 DUP2 ADD DUP3 MSTORE PUSH1 0x1C DUP1 SLOAD DUP1 DUP4 MSTORE CALLER PUSH1 0x20 DUP1 DUP6 ADD DUP3 DUP2 MSTORE DUP6 DUP8 ADD DUP11 DUP2 MSTORE TIMESTAMP PUSH1 0x60 DUP9 ADD SWAP1 DUP2 MSTORE PUSH0 SWAP6 DUP7 MSTORE PUSH1 0xE DUP5 MSTORE DUP9 DUP7 KECCAK256 SWAP8 MLOAD DUP9 SSTORE SWAP2 MLOAD PUSH1 0x1 DUP1 DUP10 ADD DUP1 SLOAD PUSH1 0x1 PUSH1 0x1 PUSH1 0xA0 SHL SUB NOT AND PUSH1 0x1 PUSH1 0x1 PUSH1 0xA0 SHL SUB SWAP1 SWAP4 AND SWAP3 SWAP1 SWAP3 OR SWAP1 SWAP2 SSTORE SWAP1 MLOAD PUSH1 0x2 DUP9 ADD SSTORE SWAP1 MLOAD PUSH1 0x3 SWAP1 SWAP7 ADD SWAP6 SWAP1 SWAP6 SSTORE DUP10 DUP4 MSTORE PUSH1 0xF DUP2 MSTORE DUP6 DUP4 KECCAK256 SWAP4 SLOAD DUP5 SLOAD DUP1 DUP8 ADD DUP7 SSTORE SWAP5 DUP5 MSTORE DUP2 DUP5 KECCAK256 SWAP1 SWAP5 ADD SWAP4 SWAP1 SWAP4 SSTORE DUP2 MSTORE PUSH1 0x10 DUP3 MSTORE DUP4 DUP2 KECCAK256 SWAP8 DUP2 MSTORE SWAP7 SWAP1 MSTORE SWAP5 KECCAK256 DUP1 SLOAD PUSH1 0xFF NOT AND DUP6 OR DUP2 SSTORE DUP5 ADD SWAP3 SWAP1 SWAP3 SSTORE POP SWAP1 SWAP2 SWAP1 POP JUMP JUMPDEST PUSH1 0x12 PUSH1 0x20 MSTORE PUSH0 SWAP1 DUP2 MSTORE PUSH1 0x40 SWAP1 KECCAK256 DUP1 SLOAD PUSH1 0x1 DUP3 ADD SLOAD PUSH1 0x2 DUP4 ADD DUP1 SLOAD SWAP3 SWAP4 PUSH1 0x1 PUSH1 0x1 PUSH1 0xA0 SHL SUB SWAP1 SWAP3 AND SWAP3 PUSH2 0x8702 SWAP1 PUSH2 0xCA68 JUMP JUMPDEST DUP1 PUSH1 0x1F ADD PUSH1 0x20 DUP1 SWAP2 DIV MUL PUSH1 0x20 ADD PUSH1 0x40 MLOAD SWAP1 DUP2 ADD PUSH1 0x40 MSTORE DUP1 SWAP3 SWAP2 SWAP1 DUP2 DUP2 MSTORE PUSH1 0x20 ADD DUP3 DUP1 SLOAD PUSH2 0x872E SWAP1 PUSH2 0xCA68 JUMP JUMPDEST DUP1 ISZERO PUSH2 0x8779 JUMPI DUP1 PUSH1 0x1F LT PUSH2 0x8750 JUMPI PUSH2 0x100 DUP1 DUP4 SLOAD DIV MUL DUP4 MSTORE SWAP2 PUSH1 0x20 ADD SWAP2 PUSH2 0x8779 JUMP JUMPDEST DUP3 ADD SWAP2 SWAP1 PUSH0 MSTORE PUSH1 0x20 PUSH0 KECCAK256 SWAP1 JUMPDEST DUP2 SLOAD DUP2 MSTORE SWAP1 PUSH1 0x1 ADD SWAP1 PUSH1 0x20 ADD DUP1 DUP4 GT PUSH2 0x875C JUMPI DUP3 SWAP1 SUB PUSH1 0x1F AND DUP3 ADD SWAP2 JUMPDEST POP POP POP POP POP SWAP1 DUP1 PUSH1 0x3 ADD DUP1 SLOAD PUSH2 0x878E SWAP1 PUSH2 0xCA68 JUMP JUMPDEST DUP1 PUSH1 0x1F ADD PUSH1 0x20 DUP1 SWAP2 DIV MUL PUSH1 0x20 ADD PUSH1 0x40 MLOAD SWAP1 DUP2 ADD PUSH1 0x40 MSTORE DUP1 SWAP3 SWAP2 SWAP1 DUP2 DUP2 MSTORE PUSH1 0x20 ADD DUP3 DUP1 SLOAD PUSH2 0x87BA SWAP1 PUSH2 0xCA68 JUMP JUMPDEST DUP1 ISZERO PUSH2 0x8805 JUMPI DUP1 PUSH1 0x1F LT PUSH2 0x87DC JUMPI PUSH2 0x100 DUP1 DUP4 SLOAD DIV MUL DUP4 MSTORE SWAP2 PUSH1 0x20 ADD SWAP2 PUSH2 0x8805 JUMP JUMPDEST DUP3 ADD SWAP2 SWAP1 PUSH0 MSTORE PUSH1 0x20 PUSH0 KECCAK256 SWAP1 JUMPDEST DUP2 SLOAD DUP2 MSTORE SWAP1 PUSH1 0x1 ADD SWAP1 PUSH1 0x20 ADD DUP1 DUP4 GT PUSH2 0x87E8 JUMPI DUP3 SWAP1 SUB PUSH1 0x1F AND DUP3 ADD SWAP2 JUMPDEST POP POP POP POP PUSH1 0x4 DUP4 ADD SLOAD PUSH1 0x5 DUP5 ADD SLOAD PUSH1 0x6 DUP6 ADD SLOAD PUSH1 0x7 SWAP1 SWAP6 ADD SLOAD SWAP4 SWAP5 PUSH1 0xFF SWAP1 SWAP3 AND SWAP4 SWAP1 SWAP3 POP DUP9 JUMP JUMPDEST PUSH0 PUSH2 0x8836 DUP3 PUSH2 0x71A0 JUMP JUMPDEST CALLER PUSH0 SWAP1 DUP2 MSTORE PUSH1 0x17 PUSH1 0x20 SWAP1 DUP2 MSTORE PUSH1 0x40 DUP1 DUP4 KECCAK256 DUP7 DUP5 MSTORE SWAP1 SWAP2 MSTORE SWAP1 KECCAK256 SLOAD SWAP1 SWAP2 POP PUSH1 0xFF AND ISZERO PUSH2 0x88D5 JUMPI PUSH1 0x40 MLOAD PUSH3 0x461BCD PUSH1 0xE5 SHL DUP2 MSTORE PUSH1 0x20 PUSH1 0x4 DUP3 ADD MSTORE PUSH1 0x56 PUSH1 0x24 DUP3 ADD MSTORE PUSH0 DUP1 MLOAD PUSH1 0x20 PUSH2 0xD34B DUP4 CODECOPY DUP2 MLOAD SWAP2 MSTORE PUSH1 0x44 DUP3 ADD MSTORE PUSH32 0x223A2032302C20226D657373616765223A227573657220616C72656164792066 PUSH1 0x64 DUP3 ADD MSTORE PUSH22 0x61766F7269746520746869732070726F64756374227D PUSH1 0x50 SHL PUSH1 0x84 DUP3 ADD MSTORE PUSH1 0xA4 ADD PUSH2 0x10E0 JUMP JUMPDEST CALLER PUSH0 DUP2 DUP2 MSTORE PUSH1 0x17 PUSH1 0x20 SWAP1 DUP2 MSTORE PUSH1 0x40 DUP1 DUP4 KECCAK256 DUP7 DUP5 MSTORE DUP3 MSTORE DUP1 DUP4 KECCAK256 DUP1 SLOAD PUSH1 0xFF NOT AND PUSH1 0x1 SWAP1 DUP2 OR SWAP1 SWAP2 SSTORE DUP5 DUP5 MSTORE PUSH1 0x18 DUP4 MSTORE DUP2 DUP5 KECCAK256 DUP3 MLOAD DUP1 DUP5 ADD DUP5 MSTORE DUP9 DUP2 MSTORE TIMESTAMP DUP2 DUP7 ADD SWAP1 DUP2 MSTORE DUP3 SLOAD DUP1 DUP6 ADD DUP5 SSTORE SWAP3 DUP8 MSTORE SWAP5 DUP7 KECCAK256 SWAP1 MLOAD PUSH1 0x2 SWAP1 SWAP3 MUL ADD SWAP1 DUP2 SSTORE SWAP3 MLOAD SWAP3 DUP2 ADD SWAP3 SWAP1 SWAP3 SSTORE PUSH1 0x21 SLOAD SWAP1 MLOAD PUSH4 0x22A8E4EB PUSH1 0xE2 SHL DUP2 MSTORE PUSH1 0x1 PUSH1 0x1 PUSH1 0xA0 SHL SUB SWAP2 SWAP1 SWAP2 AND SWAP4 PUSH4 0x8AA393AC SWAP4 PUSH2 0x8970 SWAP4 SWAP2 SWAP3 DUP9 SWAP3 SWAP2 SWAP1 DUP3 SWAP1 DUP2 SWAP1 PUSH1 0x4 ADD PUSH2 0xD1B6 JUMP JUMPDEST PUSH0 PUSH1 0x40 MLOAD DUP1 DUP4 SUB DUP2 PUSH0 DUP8 DUP1 EXTCODESIZE ISZERO DUP1 ISZERO PUSH2 0x8987 JUMPI PUSH0 DUP1 REVERT JUMPDEST POP GAS CALL ISZERO DUP1 ISZERO PUSH2 0x8999 JUMPI RETURNDATASIZE PUSH0 DUP1 RETURNDATACOPY RETURNDATASIZE PUSH0 REVERT JUMPDEST POP POP PUSH1 0x21 SLOAD PUSH1 0x20 DUP5 ADD MLOAD PUSH2 0x180 ADD MLOAD PUSH1 0x40 MLOAD PUSH4 0x22A8E4EB PUSH1 0xE2 SHL DUP2 MSTORE PUSH1 0x1 PUSH1 0x1 PUSH1 0xA0 SHL SUB SWAP1 SWAP3 AND SWAP4 POP PUSH4 0x8AA393AC SWAP3 POP PUSH2 0x89E1 SWAP2 CALLER SWAP2 DUP8 SWAP2 PUSH1 0x1 SWAP2 SWAP1 DUP3 SWAP1 PUSH0 SWAP1 PUSH1 0x4 ADD PUSH2 0xD1B6 JUMP JUMPDEST PUSH0 PUSH1 0x40 MLOAD DUP1 DUP4 SUB DUP2 PUSH0 DUP8 DUP1 EXTCODESIZE ISZERO DUP1 ISZERO PUSH2 0x89F8 JUMPI PUSH0 DUP1 REVERT JUMPDEST POP GAS CALL ISZERO DUP1 ISZERO PUSH2 0x8A0A JUMPI RETURNDATASIZE PUSH0 DUP1 RETURNDATACOPY RETURNDATASIZE PUSH0 REVERT JUMPDEST POP POP PUSH1 0x21 SLOAD PUSH1 0x20 DUP5 ADD MLOAD PUSH2 0x180 ADD MLOAD PUSH1 0x40 MLOAD PUSH4 0xEDA162E7 PUSH1 0xE0 SHL DUP2 MSTORE PUSH1 0x1 PUSH1 0x1 PUSH1 0xA0 SHL SUB SWAP1 SWAP3 AND SWAP4 POP PUSH4 0xEDA162E7 SWAP3 POP PUSH2 0x8A46 SWAP2 PUSH1 0x4 ADD PUSH2 0xBF40 JUMP JUMPDEST PUSH0 PUSH1 0x40 MLOAD DUP1 DUP4 SUB DUP2 PUSH0 DUP8 DUP1 EXTCODESIZE ISZERO DUP1 ISZERO PUSH2 0x8A5D JUMPI PUSH0 DUP1 REVERT JUMPDEST POP GAS CALL ISZERO DUP1 ISZERO PUSH2 0x8A6F JUMPI RETURNDATASIZE PUSH0 DUP1 RETURNDATACOPY RETURNDATASIZE PUSH0 REVERT JUMPDEST POP POP POP POP POP POP JUMP JUMPDEST PUSH1 0x60 PUSH0 DUP1 JUMPDEST PUSH1 0x3 SLOAD DUP2 LT ISZERO PUSH2 0x8AD8 JUMPI PUSH1 0x2 PUSH0 PUSH1 0x3 DUP4 DUP2 SLOAD DUP2 LT PUSH2 0x8A9C JUMPI PUSH2 0x8A9C PUSH2 0xCA54 JUMP JUMPDEST PUSH0 SWAP2 DUP3 MSTORE PUSH1 0x20 DUP1 DUP4 KECCAK256 SWAP1 SWAP2 ADD SLOAD DUP4 MSTORE DUP3 ADD SWAP3 SWAP1 SWAP3 MSTORE PUSH1 0x40 ADD SWAP1 KECCAK256 PUSH1 0x10 ADD SLOAD PUSH1 0xFF AND ISZERO PUSH2 0x8AD0 JUMPI DUP2 PUSH2 0x8ACC DUP2 PUSH2 0xCBF4 JUMP JUMPDEST SWAP3 POP POP JUMPDEST PUSH1 0x1 ADD PUSH2 0x8A7C JUMP JUMPDEST POP PUSH0 DUP2 PUSH1 0x1 PUSH1 0x1 PUSH1 0x40 SHL SUB DUP2 GT ISZERO PUSH2 0x8AF2 JUMPI PUSH2 0x8AF2 PUSH2 0xB1A6 JUMP JUMPDEST PUSH1 0x40 MLOAD SWAP1 DUP1 DUP3 MSTORE DUP1 PUSH1 0x20 MUL PUSH1 0x20 ADD DUP3 ADD PUSH1 0x40 MSTORE DUP1 ISZERO PUSH2 0x8B2B JUMPI DUP2 PUSH1 0x20 ADD JUMPDEST PUSH2 0x8B18 PUSH2 0xAE2C JUMP JUMPDEST DUP2 MSTORE PUSH1 0x20 ADD SWAP1 PUSH1 0x1 SWAP1 SUB SWAP1 DUP2 PUSH2 0x8B10 JUMPI SWAP1 POP JUMPDEST POP SWAP1 POP PUSH0 DUP1 JUMPDEST PUSH1 0x3 SLOAD DUP2 LT ISZERO PUSH2 0x9274 JUMPI PUSH1 0x2 PUSH0 PUSH1 0x3 DUP4 DUP2 SLOAD DUP2 LT PUSH2 0x8B51 JUMPI PUSH2 0x8B51 PUSH2 0xCA54 JUMP JUMPDEST PUSH0 SWAP2 DUP3 MSTORE PUSH1 0x20 DUP1 DUP4 KECCAK256 SWAP1 SWAP2 ADD SLOAD DUP4 MSTORE DUP3 ADD SWAP3 SWAP1 SWAP3 MSTORE PUSH1 0x40 ADD SWAP1 KECCAK256 PUSH1 0x10 ADD SLOAD PUSH1 0xFF AND ISZERO PUSH2 0x926C JUMPI PUSH1 0x2 PUSH0 PUSH1 0x3 DUP4 DUP2 SLOAD DUP2 LT PUSH2 0x8B8D JUMPI PUSH2 0x8B8D PUSH2 0xCA54 JUMP JUMPDEST SWAP1 PUSH0 MSTORE PUSH1 0x20 PUSH0 KECCAK256 ADD SLOAD DUP2 MSTORE PUSH1 0x20 ADD SWAP1 DUP2 MSTORE PUSH1 0x20 ADD PUSH0 KECCAK256 PUSH1 0x40 MLOAD DUP1 PUSH1 0x80 ADD PUSH1 0x40 MSTORE SWAP1 DUP2 PUSH0 DUP3 ADD SLOAD DUP2 MSTORE PUSH1 0x20 ADD PUSH1 0x1 DUP3 ADD PUSH1 0x40 MLOAD DUP1 PUSH2 0x300 ADD PUSH1 0x40 MSTORE SWAP1 DUP2 PUSH0 DUP3 ADD DUP1 SLOAD PUSH2 0x8BD7 SWAP1 PUSH2 0xCA68 JUMP JUMPDEST DUP1 PUSH1 0x1F ADD PUSH1 0x20 DUP1 SWAP2 DIV MUL PUSH1 0x20 ADD PUSH1 0x40 MLOAD SWAP1 DUP2 ADD PUSH1 0x40 MSTORE DUP1 SWAP3 SWAP2 SWAP1 DUP2 DUP2 MSTORE PUSH1 0x20 ADD DUP3 DUP1 SLOAD PUSH2 0x8C03 SWAP1 PUSH2 0xCA68 JUMP JUMPDEST DUP1 ISZERO PUSH2 0x8C4E JUMPI DUP1 PUSH1 0x1F LT PUSH2 0x8C25 JUMPI PUSH2 0x100 DUP1 DUP4 SLOAD DIV MUL DUP4 MSTORE SWAP2 PUSH1 0x20 ADD SWAP2 PUSH2 0x8C4E JUMP JUMPDEST DUP3 ADD SWAP2 SWAP1 PUSH0 MSTORE PUSH1 0x20 PUSH0 KECCAK256 SWAP1 JUMPDEST DUP2 SLOAD DUP2 MSTORE SWAP1 PUSH1 0x1 ADD SWAP1 PUSH1 0x20 ADD DUP1 DUP4 GT PUSH2 0x8C31 JUMPI DUP3 SWAP1 SUB PUSH1 0x1F AND DUP3 ADD SWAP2 JUMPDEST POP POP POP POP POP DUP2 MSTORE PUSH1 0x20 ADD PUSH1 0x1 DUP3 ADD SLOAD DUP2 MSTORE PUSH1 0x20 ADD PUSH1 0x2 DUP3 ADD DUP1 SLOAD PUSH2 0x8C71 SWAP1 PUSH2 0xCA68 JUMP JUMPDEST DUP1 PUSH1 0x1F ADD PUSH1 0x20 DUP1 SWAP2 DIV MUL PUSH1 0x20 ADD PUSH1 0x40 MLOAD SWAP1 DUP2 ADD PUSH1 0x40 MSTORE DUP1 SWAP3 SWAP2 SWAP1 DUP2 DUP2 MSTORE PUSH1 0x20 ADD DUP3 DUP1 SLOAD PUSH2 0x8C9D SWAP1 PUSH2 0xCA68 JUMP JUMPDEST DUP1 ISZERO PUSH2 0x8CE8 JUMPI DUP1 PUSH1 0x1F LT PUSH2 0x8CBF JUMPI PUSH2 0x100 DUP1 DUP4 SLOAD DIV MUL DUP4 MSTORE SWAP2 PUSH1 0x20 ADD SWAP2 PUSH2 0x8CE8 JUMP JUMPDEST DUP3 ADD SWAP2 SWAP1 PUSH0 MSTORE PUSH1 0x20 PUSH0 KECCAK256 SWAP1 JUMPDEST DUP2 SLOAD DUP2 MSTORE SWAP1 PUSH1 0x1 ADD SWAP1 PUSH1 0x20 ADD DUP1 DUP4 GT PUSH2 0x8CCB JUMPI DUP3 SWAP1 SUB PUSH1 0x1F AND DUP3 ADD SWAP2 JUMPDEST POP POP POP POP POP DUP2 MSTORE PUSH1 0x20 ADD PUSH1 0x3 DUP3 ADD SLOAD DUP2 MSTORE PUSH1 0x20 ADD PUSH1 0x4 DUP3 ADD SLOAD DUP2 MSTORE PUSH1 0x20 ADD PUSH1 0x5 DUP3 ADD SLOAD DUP2 MSTORE PUSH1 0x20 ADD PUSH1 0x6 DUP3 ADD SLOAD DUP2 MSTORE PUSH1 0x20 ADD PUSH1 0x7 DUP3 ADD DUP1 SLOAD DUP1 PUSH1 0x20 MUL PUSH1 0x20 ADD PUSH1 0x40 MLOAD SWAP1 DUP2 ADD PUSH1 0x40 MSTORE DUP1 SWAP3 SWAP2 SWAP1 DUP2 DUP2 MSTORE PUSH1 0x20 ADD DUP3 DUP1 SLOAD DUP1 ISZERO PUSH2 0x8D66 JUMPI PUSH1 0x20 MUL DUP3 ADD SWAP2 SWAP1 PUSH0 MSTORE PUSH1 0x20 PUSH0 KECCAK256 SWAP1 JUMPDEST DUP2 SLOAD DUP2 MSTORE PUSH1 0x20 ADD SWAP1 PUSH1 0x1 ADD SWAP1 DUP1 DUP4 GT PUSH2 0x8D52 JUMPI JUMPDEST POP POP POP POP POP DUP2 MSTORE PUSH1 0x20 ADD PUSH1 0x8 DUP3 ADD DUP1 SLOAD DUP1 PUSH1 0x20 MUL PUSH1 0x20 ADD PUSH1 0x40 MLOAD SWAP1 DUP2 ADD PUSH1 0x40 MSTORE DUP1 SWAP3 SWAP2 SWAP1 DUP2 DUP2 MSTORE PUSH1 0x20 ADD PUSH0 SWAP1 JUMPDEST DUP3 DUP3 LT ISZERO PUSH2 0x8E3B JUMPI DUP4 DUP3 SWAP1 PUSH0 MSTORE PUSH1 0x20 PUSH0 KECCAK256 ADD DUP1 SLOAD PUSH2 0x8DB0 SWAP1 PUSH2 0xCA68 JUMP JUMPDEST DUP1 PUSH1 0x1F ADD PUSH1 0x20 DUP1 SWAP2 DIV MUL PUSH1 0x20 ADD PUSH1 0x40 MLOAD SWAP1 DUP2 ADD PUSH1 0x40 MSTORE DUP1 SWAP3 SWAP2 SWAP1 DUP2 DUP2 MSTORE PUSH1 0x20 ADD DUP3 DUP1 SLOAD PUSH2 0x8DDC SWAP1 PUSH2 0xCA68 JUMP JUMPDEST DUP1 ISZERO PUSH2 0x8E27 JUMPI DUP1 PUSH1 0x1F LT PUSH2 0x8DFE JUMPI PUSH2 0x100 DUP1 DUP4 SLOAD DIV MUL DUP4 MSTORE SWAP2 PUSH1 0x20 ADD SWAP2 PUSH2 0x8E27 JUMP JUMPDEST DUP3 ADD SWAP2 SWAP1 PUSH0 MSTORE PUSH1 0x20 PUSH0 KECCAK256 SWAP1 JUMPDEST DUP2 SLOAD DUP2 MSTORE SWAP1 PUSH1 0x1 ADD SWAP1 PUSH1 0x20 ADD DUP1 DUP4 GT PUSH2 0x8E0A JUMPI DUP3 SWAP1 SUB PUSH1 0x1F AND DUP3 ADD SWAP2 JUMPDEST POP POP POP POP POP DUP2 MSTORE PUSH1 0x20 ADD SWAP1 PUSH1 0x1 ADD SWAP1 PUSH2 0x8D93 JUMP JUMPDEST POP POP POP POP DUP2 MSTORE PUSH1 0x20 ADD PUSH1 0x9 DUP3 ADD SLOAD DUP2 MSTORE PUSH1 0x20 ADD PUSH1 0xA DUP3 ADD SLOAD DUP2 MSTORE PUSH1 0x20 ADD PUSH1 0xB DUP3 ADD DUP1 SLOAD DUP1 PUSH1 0x20 MUL PUSH1 0x20 ADD PUSH1 0x40 MLOAD SWAP1 DUP2 ADD PUSH1 0x40 MSTORE DUP1 SWAP3 SWAP2 SWAP1 DUP2 DUP2 MSTORE PUSH1 0x20 ADD PUSH0 SWAP1 JUMPDEST DUP3 DUP3 LT ISZERO PUSH2 0x8F23 JUMPI DUP4 DUP3 SWAP1 PUSH0 MSTORE PUSH1 0x20 PUSH0 KECCAK256 ADD DUP1 SLOAD PUSH2 0x8E98 SWAP1 PUSH2 0xCA68 JUMP JUMPDEST DUP1 PUSH1 0x1F ADD PUSH1 0x20 DUP1 SWAP2 DIV MUL PUSH1 0x20 ADD PUSH1 0x40 MLOAD SWAP1 DUP2 ADD PUSH1 0x40 MSTORE DUP1 SWAP3 SWAP2 SWAP1 DUP2 DUP2 MSTORE PUSH1 0x20 ADD DUP3 DUP1 SLOAD PUSH2 0x8EC4 SWAP1 PUSH2 0xCA68 JUMP JUMPDEST DUP1 ISZERO PUSH2 0x8F0F JUMPI DUP1 PUSH1 0x1F LT PUSH2 0x8EE6 JUMPI PUSH2 0x100 DUP1 DUP4 SLOAD DIV MUL DUP4 MSTORE SWAP2 PUSH1 0x20 ADD SWAP2 PUSH2 0x8F0F JUMP JUMPDEST DUP3 ADD SWAP2 SWAP1 PUSH0 MSTORE PUSH1 0x20 PUSH0 KECCAK256 SWAP1 JUMPDEST DUP2 SLOAD DUP2 MSTORE SWAP1 PUSH1 0x1 ADD SWAP1 PUSH1 0x20 ADD DUP1 DUP4 GT PUSH2 0x8EF2 JUMPI DUP3 SWAP1 SUB PUSH1 0x1F AND DUP3 ADD SWAP2 JUMPDEST POP POP POP POP POP DUP2 MSTORE PUSH1 0x20 ADD SWAP1 PUSH1 0x1 ADD SWAP1 PUSH2 0x8E7B JUMP JUMPDEST POP POP POP SWAP1 DUP3 MSTORE POP PUSH1 0xC DUP3 ADD SLOAD PUSH1 0x1 PUSH1 0x1 PUSH1 0xA0 SHL SUB AND PUSH1 0x20 DUP3 ADD MSTORE PUSH1 0xD DUP3 ADD DUP1 SLOAD PUSH1 0x40 SWAP1 SWAP3 ADD SWAP2 PUSH2 0x8F52 SWAP1 PUSH2 0xCA68 JUMP JUMPDEST DUP1 PUSH1 0x1F ADD PUSH1 0x20 DUP1 SWAP2 DIV MUL PUSH1 0x20 ADD PUSH1 0x40 MLOAD SWAP1 DUP2 ADD PUSH1 0x40 MSTORE DUP1 SWAP3 SWAP2 SWAP1 DUP2 DUP2 MSTORE PUSH1 0x20 ADD DUP3 DUP1 SLOAD PUSH2 0x8F7E SWAP1 PUSH2 0xCA68 JUMP JUMPDEST DUP1 ISZERO PUSH2 0x8FC9 JUMPI DUP1 PUSH1 0x1F LT PUSH2 0x8FA0 JUMPI PUSH2 0x100 DUP1 DUP4 SLOAD DIV MUL DUP4 MSTORE SWAP2 PUSH1 0x20 ADD SWAP2 PUSH2 0x8FC9 JUMP JUMPDEST DUP3 ADD SWAP2 SWAP1 PUSH0 MSTORE PUSH1 0x20 PUSH0 KECCAK256 SWAP1 JUMPDEST DUP2 SLOAD DUP2 MSTORE SWAP1 PUSH1 0x1 ADD SWAP1 PUSH1 0x20 ADD DUP1 DUP4 GT PUSH2 0x8FAC JUMPI DUP3 SWAP1 SUB PUSH1 0x1F AND DUP3 ADD SWAP2 JUMPDEST POP POP POP POP POP DUP2 MSTORE PUSH1 0x20 ADD PUSH1 0xE DUP3 ADD DUP1 SLOAD PUSH2 0x8FE2 SWAP1 PUSH2 0xCA68 JUMP JUMPDEST DUP1 PUSH1 0x1F ADD PUSH1 0x20 DUP1 SWAP2 DIV MUL PUSH1 0x20 ADD PUSH1 0x40 MLOAD SWAP1 DUP2 ADD PUSH1 0x40 MSTORE DUP1 SWAP3 SWAP2 SWAP1 DUP2 DUP2 MSTORE PUSH1 0x20 ADD DUP3 DUP1 SLOAD PUSH2 0x900E SWAP1 PUSH2 0xCA68 JUMP JUMPDEST DUP1 ISZERO PUSH2 0x9059 JUMPI DUP1 PUSH1 0x1F LT PUSH2 0x9030 JUMPI PUSH2 0x100 DUP1 DUP4 SLOAD DIV MUL DUP4 MSTORE SWAP2 PUSH1 0x20 ADD SWAP2 PUSH2 0x9059 JUMP JUMPDEST DUP3 ADD SWAP2 SWAP1 PUSH0 MSTORE PUSH1 0x20 PUSH0 KECCAK256 SWAP1 JUMPDEST DUP2 SLOAD DUP2 MSTORE SWAP1 PUSH1 0x1 ADD SWAP1 PUSH1 0x20 ADD DUP1 DUP4 GT PUSH2 0x903C JUMPI DUP3 SWAP1 SUB PUSH1 0x1F AND DUP3 ADD SWAP2 JUMPDEST POP POP POP SWAP2 DUP4 MSTORE POP POP PUSH1 0xF DUP3 ADD SLOAD PUSH1 0xFF AND ISZERO ISZERO PUSH1 0x20 DUP1 DUP4 ADD SWAP2 SWAP1 SWAP2 MSTORE PUSH1 0x10 DUP4 ADD DUP1 SLOAD PUSH1 0x40 DUP1 MLOAD DUP3 DUP6 MUL DUP2 ADD DUP6 ADD DUP3 MSTORE DUP3 DUP2 MSTORE SWAP5 ADD SWAP4 SWAP3 PUSH0 SWAP1 DUP5 ADD JUMPDEST DUP3 DUP3 LT ISZERO PUSH2 0x913B JUMPI DUP4 DUP3 SWAP1 PUSH0 MSTORE PUSH1 0x20 PUSH0 KECCAK256 ADD DUP1 SLOAD PUSH2 0x90B0 SWAP1 PUSH2 0xCA68 JUMP JUMPDEST DUP1 PUSH1 0x1F ADD PUSH1 0x20 DUP1 SWAP2 DIV MUL PUSH1 0x20 ADD PUSH1 0x40 MLOAD SWAP1 DUP2 ADD PUSH1 0x40 MSTORE DUP1 SWAP3 SWAP2 SWAP1 DUP2 DUP2 MSTORE PUSH1 0x20 ADD DUP3 DUP1 SLOAD PUSH2 0x90DC SWAP1 PUSH2 0xCA68 JUMP JUMPDEST DUP1 ISZERO PUSH2 0x9127 JUMPI DUP1 PUSH1 0x1F LT PUSH2 0x90FE JUMPI PUSH2 0x100 DUP1 DUP4 SLOAD DIV MUL DUP4 MSTORE SWAP2 PUSH1 0x20 ADD SWAP2 PUSH2 0x9127 JUMP JUMPDEST DUP3 ADD SWAP2 SWAP1 PUSH0 MSTORE PUSH1 0x20 PUSH0 KECCAK256 SWAP1 JUMPDEST DUP2 SLOAD DUP2 MSTORE SWAP1 PUSH1 0x1 ADD SWAP1 PUSH1 0x20 ADD DUP1 DUP4 GT PUSH2 0x910A JUMPI DUP3 SWAP1 SUB PUSH1 0x1F AND DUP3 ADD SWAP2 JUMPDEST POP POP POP POP POP DUP2 MSTORE PUSH1 0x20 ADD SWAP1 PUSH1 0x1 ADD SWAP1 PUSH2 0x9093 JUMP JUMPDEST POP POP POP POP DUP2 MSTORE PUSH1 0x20 ADD PUSH1 0x11 DUP3 ADD DUP1 SLOAD PUSH2 0x9153 SWAP1 PUSH2 0xCA68 JUMP JUMPDEST DUP1 PUSH1 0x1F ADD PUSH1 0x20 DUP1 SWAP2 DIV MUL PUSH1 0x20 ADD PUSH1 0x40 MLOAD SWAP1 DUP2 ADD PUSH1 0x40 MSTORE DUP1 SWAP3 SWAP2 SWAP1 DUP2 DUP2 MSTORE PUSH1 0x20 ADD DUP3 DUP1 SLOAD PUSH2 0x917F SWAP1 PUSH2 0xCA68 JUMP JUMPDEST DUP1 ISZERO PUSH2 0x91CA JUMPI DUP1 PUSH1 0x1F LT PUSH2 0x91A1 JUMPI PUSH2 0x100 DUP1 DUP4 SLOAD DIV MUL DUP4 MSTORE SWAP2 PUSH1 0x20 ADD SWAP2 PUSH2 0x91CA JUMP JUMPDEST DUP3 ADD SWAP2 SWAP1 PUSH0 MSTORE PUSH1 0x20 PUSH0 KECCAK256 SWAP1 JUMPDEST DUP2 SLOAD DUP2 MSTORE SWAP1 PUSH1 0x1 ADD SWAP1 PUSH1 0x20 ADD DUP1 DUP4 GT PUSH2 0x91AD JUMPI DUP3 SWAP1 SUB PUSH1 0x1F AND DUP3 ADD SWAP2 JUMPDEST POP POP POP SWAP2 DUP4 MSTORE POP POP PUSH1 0x12 DUP3 ADD SLOAD PUSH1 0x20 DUP1 DUP4 ADD SWAP2 SWAP1 SWAP2 MSTORE PUSH1 0x13 DUP4 ADD SLOAD PUSH1 0x40 DUP1 DUP5 ADD SWAP2 SWAP1 SWAP2 MSTORE PUSH1 0x14 DUP5 ADD SLOAD PUSH1 0x60 DUP5 ADD MSTORE PUSH1 0x15 DUP5 ADD SLOAD PUSH1 0xFF DUP1 DUP3 AND ISZERO ISZERO PUSH1 0x80 DUP7 ADD MSTORE PUSH2 0x100 SWAP1 SWAP2 DIV AND ISZERO ISZERO PUSH1 0xA0 DUP5 ADD MSTORE PUSH1 0x16 SWAP1 SWAP4 ADD SLOAD PUSH1 0xC0 SWAP1 SWAP3 ADD SWAP2 SWAP1 SWAP2 MSTORE SWAP2 DUP4 MSTORE PUSH1 0x18 DUP5 ADD SLOAD SWAP2 DUP4 ADD SWAP2 SWAP1 SWAP2 MSTORE PUSH1 0x19 SWAP1 SWAP3 ADD SLOAD SWAP2 ADD MSTORE DUP4 MLOAD DUP5 SWAP1 DUP5 SWAP1 DUP2 LT PUSH2 0x9252 JUMPI PUSH2 0x9252 PUSH2 0xCA54 JUMP JUMPDEST PUSH1 0x20 MUL PUSH1 0x20 ADD ADD DUP2 SWAP1 MSTORE POP DUP2 DUP1 PUSH2 0x9268 SWAP1 PUSH2 0xCBF4 JUMP JUMPDEST SWAP3 POP POP JUMPDEST PUSH1 0x1 ADD PUSH2 0x8B31 JUMP JUMPDEST POP SWAP1 SWAP4 SWAP3 POP POP POP JUMP JUMPDEST PUSH1 0x1F SLOAD PUSH1 0x40 MLOAD PUSH4 0x656952AD PUSH1 0xE0 SHL DUP2 MSTORE PUSH0 SWAP2 PUSH1 0x1 PUSH1 0x1 PUSH1 0xA0 SHL SUB AND SWAP1 PUSH4 0x656952AD SWAP1 PUSH2 0x92AD SWAP1 CALLER SWAP1 PUSH1 0x4 ADD PUSH2 0xBF40 JUMP JUMPDEST PUSH1 0x20 PUSH1 0x40 MLOAD DUP1 DUP4 SUB DUP2 DUP7 GAS STATICCALL ISZERO DUP1 ISZERO PUSH2 0x92C8 JUMPI RETURNDATASIZE PUSH0 DUP1 RETURNDATACOPY RETURNDATASIZE PUSH0 REVERT JUMPDEST POP POP POP POP PUSH1 0x40 MLOAD RETURNDATASIZE PUSH1 0x1F NOT PUSH1 0x1F DUP3 ADD AND DUP3 ADD DUP1 PUSH1 0x40 MSTORE POP DUP2 ADD SWAP1 PUSH2 0x92EC SWAP2 SWAP1 PUSH2 0xCBD9 JUMP JUMPDEST DUP1 PUSH2 0x9361 JUMPI POP PUSH1 0x1F SLOAD PUSH1 0x40 MLOAD PUSH4 0x59D32027 PUSH1 0xE1 SHL DUP2 MSTORE PUSH1 0x1 PUSH1 0x1 PUSH1 0xA0 SHL SUB SWAP1 SWAP2 AND SWAP1 PUSH4 0xB3A6404E SWAP1 PUSH2 0x9322 SWAP1 CALLER SWAP1 PUSH1 0x4 ADD PUSH2 0xBF40 JUMP JUMPDEST PUSH1 0x20 PUSH1 0x40 MLOAD DUP1 DUP4 SUB DUP2 DUP7 GAS STATICCALL ISZERO DUP1 ISZERO PUSH2 0x933D JUMPI RETURNDATASIZE PUSH0 DUP1 RETURNDATACOPY RETURNDATASIZE PUSH0 REVERT JUMPDEST POP POP POP POP PUSH1 0x40 MLOAD RETURNDATASIZE PUSH1 0x1F NOT PUSH1 0x1F DUP3 ADD AND DUP3 ADD DUP1 PUSH1 0x40 MSTORE POP DUP2 ADD SWAP1 PUSH2 0x9361 SWAP2 SWAP1 PUSH2 0xCBD9 JUMP JUMPDEST PUSH2 0x938E PUSH1 0x37 PUSH1 0x40 MLOAD DUP1 PUSH1 0x40 ADD PUSH1 0x40 MSTORE DUP1 PUSH1 0x1B DUP2 MSTORE PUSH1 0x20 ADD PUSH0 DUP1 MLOAD PUSH1 0x20 PUSH2 0xD30A DUP4 CODECOPY DUP2 MLOAD SWAP2 MSTORE DUP2 MSTORE POP PUSH2 0x184A JUMP JUMPDEST SWAP1 PUSH2 0x93AC JUMPI PUSH1 0x40 MLOAD PUSH3 0x461BCD PUSH1 0xE5 SHL DUP2 MSTORE PUSH1 0x4 ADD PUSH2 0x10E0 SWAP2 SWAP1 PUSH2 0xB975 JUMP JUMPDEST POP CALLER PUSH0 SWAP1 DUP2 MSTORE PUSH1 0x1 PUSH1 0x20 SWAP1 DUP2 MSTORE PUSH1 0x40 DUP1 DUP4 KECCAK256 DUP7 DUP5 MSTORE DUP3 MSTORE SWAP2 DUP3 SWAP1 KECCAK256 SLOAD DUP3 MLOAD PUSH1 0x60 DUP2 ADD SWAP1 SWAP4 MSTORE PUSH1 0x21 DUP1 DUP5 MSTORE PUSH1 0xFF SWAP1 SWAP2 AND SWAP3 PUSH2 0x93F0 SWAP3 PUSH1 0x19 SWAP3 SWAP1 PUSH2 0xD32A SWAP1 DUP4 ADD CODECOPY PUSH2 0x184A JUMP JUMPDEST SWAP1 PUSH2 0x940E JUMPI PUSH1 0x40 MLOAD PUSH3 0x461BCD PUSH1 0xE5 SHL DUP2 MSTORE PUSH1 0x4 ADD PUSH2 0x10E0 SWAP2 SWAP1 PUSH2 0xB975 JUMP JUMPDEST POP PUSH0 DUP4 DUP2 MSTORE PUSH1 0x2 PUSH1 0x20 SWAP1 DUP2 MSTORE PUSH1 0x40 SWAP1 SWAP2 KECCAK256 DUP4 MLOAD PUSH2 0x3612 SWAP3 PUSH1 0x11 SWAP1 SWAP3 ADD SWAP2 DUP6 ADD SWAP1 PUSH2 0xAD9B JUMP JUMPDEST PUSH0 JUMPDEST DUP2 MLOAD DUP2 LT ISZERO PUSH2 0x168D JUMPI PUSH2 0x9460 DUP3 DUP3 DUP2 MLOAD DUP2 LT PUSH2 0x9453 JUMPI PUSH2 0x9453 PUSH2 0xCA54 JUMP JUMPDEST PUSH1 0x20 MUL PUSH1 0x20 ADD ADD MLOAD PUSH2 0x5CA7 JUMP JUMPDEST PUSH1 0x1 ADD PUSH2 0x9435 JUMP JUMPDEST PUSH1 0x1F SLOAD PUSH1 0x40 MLOAD PUSH4 0x656952AD PUSH1 0xE0 SHL DUP2 MSTORE PUSH0 SWAP2 PUSH1 0x1 PUSH1 0x1 PUSH1 0xA0 SHL SUB AND SWAP1 PUSH4 0x656952AD SWAP1 PUSH2 0x9498 SWAP1 CALLER SWAP1 PUSH1 0x4 ADD PUSH2 0xBF40 JUMP JUMPDEST PUSH1 0x20 PUSH1 0x40 MLOAD DUP1 DUP4 SUB DUP2 DUP7 GAS STATICCALL ISZERO DUP1 ISZERO PUSH2 0x94B3 JUMPI RETURNDATASIZE PUSH0 DUP1 RETURNDATACOPY RETURNDATASIZE PUSH0 REVERT JUMPDEST POP POP POP POP PUSH1 0x40 MLOAD RETURNDATASIZE PUSH1 0x1F NOT PUSH1 0x1F DUP3 ADD AND DUP3 ADD DUP1 PUSH1 0x40 MSTORE POP DUP2 ADD SWAP1 PUSH2 0x94D7 SWAP2 SWAP1 PUSH2 0xCBD9 JUMP JUMPDEST DUP1 PUSH2 0x954C JUMPI POP PUSH1 0x1F SLOAD PUSH1 0x40 MLOAD PUSH4 0x59D32027 PUSH1 0xE1 SHL DUP2 MSTORE PUSH1 0x1 PUSH1 0x1 PUSH1 0xA0 SHL SUB SWAP1 SWAP2 AND SWAP1 PUSH4 0xB3A6404E SWAP1 PUSH2 0x950D SWAP1 CALLER SWAP1 PUSH1 0x4 ADD PUSH2 0xBF40 JUMP JUMPDEST PUSH1 0x20 PUSH1 0x40 MLOAD DUP1 DUP4 SUB DUP2 DUP7 GAS STATICCALL ISZERO DUP1 ISZERO PUSH2 0x9528 JUMPI RETURNDATASIZE PUSH0 DUP1 RETURNDATACOPY RETURNDATASIZE PUSH0 REVERT JUMPDEST POP POP POP POP PUSH1 0x40 MLOAD RETURNDATASIZE PUSH1 0x1F NOT PUSH1 0x1F DUP3 ADD AND DUP3 ADD DUP1 PUSH1 0x40 MSTORE POP DUP2 ADD SWAP1 PUSH2 0x954C SWAP2 SWAP1 PUSH2 0xCBD9 JUMP JUMPDEST PUSH2 0x3407 PUSH1 0x37 PUSH1 0x40 MLOAD DUP1 PUSH1 0x40 ADD PUSH1 0x40 MSTORE DUP1 PUSH1 0x1B DUP2 MSTORE PUSH1 0x20 ADD PUSH0 DUP1 MLOAD PUSH1 0x20 PUSH2 0xD30A DUP4 CODECOPY DUP2 MLOAD SWAP2 MSTORE DUP2 MSTORE POP PUSH2 0x184A JUMP JUMPDEST PUSH1 0x1F SLOAD PUSH1 0x40 MLOAD PUSH4 0x588F1E0D PUSH1 0xE1 SHL DUP2 MSTORE PUSH1 0x1 PUSH1 0x1 PUSH1 0xA0 SHL SUB SWAP1 SWAP2 AND SWAP1 PUSH4 0xB11E3C1A SWAP1 PUSH2 0x95A9 SWAP1 CALLER SWAP1 PUSH1 0x4 ADD PUSH2 0xBF40 JUMP JUMPDEST PUSH1 0x20 PUSH1 0x40 MLOAD DUP1 DUP4 SUB DUP2 DUP7 GAS STATICCALL ISZERO DUP1 ISZERO PUSH2 0x95C4 JUMPI RETURNDATASIZE PUSH0 DUP1 RETURNDATACOPY RETURNDATASIZE PUSH0 REVERT JUMPDEST POP POP POP POP PUSH1 0x40 MLOAD RETURNDATASIZE PUSH1 0x1F NOT PUSH1 0x1F DUP3 ADD AND DUP3 ADD DUP1 PUSH1 0x40 MSTORE POP DUP2 ADD SWAP1 PUSH2 0x95E8 SWAP2 SWAP1 PUSH2 0xCBD9 JUMP JUMPDEST PUSH2 0x9604 JUMPI PUSH1 0x40 MLOAD PUSH3 0x461BCD PUSH1 0xE5 SHL DUP2 MSTORE PUSH1 0x4 ADD PUSH2 0x10E0 SWAP1 PUSH2 0xCE77 JUMP JUMPDEST PUSH0 DUP4 DUP2 MSTORE PUSH1 0xB PUSH1 0x20 MSTORE PUSH1 0x40 SWAP1 KECCAK256 SLOAD PUSH2 0x962E JUMPI PUSH1 0x40 MLOAD PUSH3 0x461BCD PUSH1 0xE5 SHL DUP2 MSTORE PUSH1 0x4 ADD PUSH2 0x10E0 SWAP1 PUSH2 0xD15E JUMP JUMPDEST PUSH1 0x40 DUP1 MLOAD PUSH1 0x60 DUP2 ADD DUP3 MSTORE DUP5 DUP2 MSTORE PUSH1 0x20 DUP1 DUP3 ADD DUP6 DUP2 MSTORE DUP3 DUP5 ADD DUP6 SWAP1 MSTORE PUSH0 DUP8 DUP2 MSTORE PUSH1 0xB SWAP1 SWAP3 MSTORE SWAP3 SWAP1 KECCAK256 DUP2 MLOAD DUP2 SSTORE SWAP2 MLOAD SWAP1 SWAP2 SWAP1 PUSH1 0x1 DUP3 ADD SWAP1 PUSH2 0x966D SWAP1 DUP3 PUSH2 0xCC8D JUMP JUMPDEST POP PUSH1 0x40 DUP3 ADD MLOAD PUSH1 0x2 DUP3 ADD SWAP1 PUSH2 0x9682 SWAP1 DUP3 PUSH2 0xCC8D JUMP JUMPDEST POP SWAP1 POP POP PUSH32 0x7534C4DFE9421008B880D3284C95ADB6E067900C8DEA9B4718625FA85FC1D0B7 DUP4 DUP4 DUP4 PUSH1 0x40 MLOAD PUSH2 0x7159 SWAP4 SWAP3 SWAP2 SWAP1 PUSH2 0xC117 JUMP JUMPDEST PUSH0 DUP1 JUMPDEST DUP3 MLOAD DUP2 LT ISZERO PUSH2 0x3612 JUMPI PUSH0 PUSH2 0x9728 DUP6 DUP6 DUP5 DUP2 MLOAD DUP2 LT PUSH2 0x96DC JUMPI PUSH2 0x96DC PUSH2 0xCA54 JUMP JUMPDEST PUSH1 0x20 MUL PUSH1 0x20 ADD ADD MLOAD PUSH0 ADD MLOAD DUP7 DUP6 DUP2 MLOAD DUP2 LT PUSH2 0x96F9 JUMPI PUSH2 0x96F9 PUSH2 0xCA54 JUMP JUMPDEST PUSH1 0x20 MUL PUSH1 0x20 ADD ADD MLOAD PUSH1 0x20 ADD MLOAD DUP8 DUP7 DUP2 MLOAD DUP2 LT PUSH2 0x9717 JUMPI PUSH2 0x9717 PUSH2 0xCA54 JUMP JUMPDEST PUSH1 0x20 MUL PUSH1 0x20 ADD ADD MLOAD PUSH1 0x40 ADD MLOAD PUSH2 0x61DE JUMP JUMPDEST SWAP1 POP PUSH0 DUP5 DUP4 DUP2 MLOAD DUP2 LT PUSH2 0x973D JUMPI PUSH2 0x973D PUSH2 0xCA54 JUMP JUMPDEST PUSH1 0x20 MUL PUSH1 0x20 ADD ADD MLOAD PUSH0 ADD MLOAD PUSH1 0x1 DUP2 GT ISZERO PUSH2 0x9759 JUMPI PUSH2 0x9759 PUSH2 0xD04B JUMP JUMPDEST SUB PUSH2 0x9788 JUMPI PUSH2 0x9786 DUP6 DUP3 DUP7 DUP6 DUP2 MLOAD DUP2 LT PUSH2 0x9775 JUMPI PUSH2 0x9775 PUSH2 0xCA54 JUMP JUMPDEST PUSH1 0x20 MUL PUSH1 0x20 ADD ADD MLOAD PUSH1 0x60 ADD MLOAD PUSH2 0x60CE JUMP JUMPDEST POP JUMPDEST POP PUSH1 0x1 ADD PUSH2 0x96BC JUMP JUMPDEST PUSH2 0x9799 PUSH2 0xAD0F JUMP JUMPDEST PUSH1 0xB PUSH0 DUP4 DUP2 MSTORE PUSH1 0x20 ADD SWAP1 DUP2 MSTORE PUSH1 0x20 ADD PUSH0 KECCAK256 PUSH1 0x40 MLOAD DUP1 PUSH1 0x60 ADD PUSH1 0x40 MSTORE SWAP1 DUP2 PUSH0 DUP3 ADD SLOAD DUP2 MSTORE PUSH1 0x20 ADD PUSH1 0x1 DUP3 ADD DUP1 SLOAD PUSH2 0x97CE SWAP1 PUSH2 0xCA68 JUMP JUMPDEST DUP1 PUSH1 0x1F ADD PUSH1 0x20 DUP1 SWAP2 DIV MUL PUSH1 0x20 ADD PUSH1 0x40 MLOAD SWAP1 DUP2 ADD PUSH1 0x40 MSTORE DUP1 SWAP3 SWAP2 SWAP1 DUP2 DUP2 MSTORE PUSH1 0x20 ADD DUP3 DUP1 SLOAD PUSH2 0x97FA SWAP1 PUSH2 0xCA68 JUMP JUMPDEST DUP1 ISZERO PUSH2 0x9845 JUMPI DUP1 PUSH1 0x1F LT PUSH2 0x981C JUMPI PUSH2 0x100 DUP1 DUP4 SLOAD DIV MUL DUP4 MSTORE SWAP2 PUSH1 0x20 ADD SWAP2 PUSH2 0x9845 JUMP JUMPDEST DUP3 ADD SWAP2 SWAP1 PUSH0 MSTORE PUSH1 0x20 PUSH0 KECCAK256 SWAP1 JUMPDEST DUP2 SLOAD DUP2 MSTORE SWAP1 PUSH1 0x1 ADD SWAP1 PUSH1 0x20 ADD DUP1 DUP4 GT PUSH2 0x9828 JUMPI DUP3 SWAP1 SUB PUSH1 0x1F AND DUP3 ADD SWAP2 JUMPDEST POP POP POP POP POP DUP2 MSTORE PUSH1 0x20 ADD PUSH1 0x2 DUP3 ADD DUP1 SLOAD PUSH2 0x985E SWAP1 PUSH2 0xCA68 JUMP JUMPDEST DUP1 PUSH1 0x1F ADD PUSH1 0x20 DUP1 SWAP2 DIV MUL PUSH1 0x20 ADD PUSH1 0x40 MLOAD SWAP1 DUP2 ADD PUSH1 0x40 MSTORE DUP1 SWAP3 SWAP2 SWAP1 DUP2 DUP2 MSTORE PUSH1 0x20 ADD DUP3 DUP1 SLOAD PUSH2 0x988A SWAP1 PUSH2 0xCA68 JUMP JUMPDEST DUP1 ISZERO PUSH2 0x98D5 JUMPI DUP1 PUSH1 0x1F LT PUSH2 0x98AC JUMPI PUSH2 0x100 DUP1 DUP4 SLOAD DIV MUL DUP4 MSTORE SWAP2 PUSH1 0x20 ADD SWAP2 PUSH2 0x98D5 JUMP JUMPDEST DUP3 ADD SWAP2 SWAP1 PUSH0 MSTORE PUSH1 0x20 PUSH0 KECCAK256 SWAP1 JUMPDEST DUP2 SLOAD DUP2 MSTORE SWAP1 PUSH1 0x1 ADD SWAP1 PUSH1 0x20 ADD DUP1 DUP4 GT PUSH2 0x98B8 JUMPI DUP3 SWAP1 SUB PUSH1 0x1F AND DUP3 ADD SWAP2 JUMPDEST POP POP POP POP POP DUP2 MSTORE POP POP SWAP1 POP SWAP2 SWAP1 POP JUMP JUMPDEST PUSH1 0x3 SLOAD PUSH1 0x60 SWAP1 PUSH0 SWAP1 DUP2 DUP1 DUP3 PUSH1 0x1 PUSH1 0x1 PUSH1 0x40 SHL SUB DUP2 GT ISZERO PUSH2 0x9907 JUMPI PUSH2 0x9907 PUSH2 0xB1A6 JUMP JUMPDEST PUSH1 0x40 MLOAD SWAP1 DUP1 DUP3 MSTORE DUP1 PUSH1 0x20 MUL PUSH1 0x20 ADD DUP3 ADD PUSH1 0x40 MSTORE DUP1 ISZERO PUSH2 0x9940 JUMPI DUP2 PUSH1 0x20 ADD JUMPDEST PUSH2 0x992D PUSH2 0xAD2F JUMP JUMPDEST DUP2 MSTORE PUSH1 0x20 ADD SWAP1 PUSH1 0x1 SWAP1 SUB SWAP1 DUP2 PUSH2 0x9925 JUMPI SWAP1 POP JUMPDEST POP SWAP1 POP PUSH0 JUMPDEST DUP4 DUP2 LT ISZERO PUSH2 0x9D55 JUMPI PUSH1 0x1 PUSH0 DUP9 MLOAD PUSH1 0x2 DUP2 GT ISZERO PUSH2 0x9963 JUMPI PUSH2 0x9963 PUSH2 0xD04B JUMP JUMPDEST EQ PUSH2 0x9A28 JUMPI PUSH1 0x1 DUP9 MLOAD PUSH1 0x2 DUP2 GT ISZERO PUSH2 0x997D JUMPI PUSH2 0x997D PUSH2 0xD04B JUMP JUMPDEST EQ DUP1 ISZERO PUSH2 0x99BE JUMPI POP PUSH1 0x2 PUSH0 PUSH1 0x3 DUP5 DUP2 SLOAD DUP2 LT PUSH2 0x999B JUMPI PUSH2 0x999B PUSH2 0xCA54 JUMP JUMPDEST PUSH0 SWAP2 DUP3 MSTORE PUSH1 0x20 DUP1 DUP4 KECCAK256 SWAP1 SWAP2 ADD SLOAD DUP4 MSTORE DUP3 ADD SWAP3 SWAP1 SWAP3 MSTORE PUSH1 0x40 ADD SWAP1 KECCAK256 PUSH1 0x10 ADD SLOAD PUSH1 0xFF AND ISZERO JUMPDEST DUP1 PUSH2 0x9A20 JUMPI POP PUSH1 0x2 DUP9 MLOAD PUSH1 0x2 DUP2 GT ISZERO PUSH2 0x99D9 JUMPI PUSH2 0x99D9 PUSH2 0xD04B JUMP JUMPDEST EQ DUP1 ISZERO PUSH2 0x9A20 JUMPI POP PUSH2 0x99EE PUSH3 0x93A80 TIMESTAMP PUSH2 0xCB0A JUMP JUMPDEST PUSH1 0x2 PUSH0 PUSH1 0x3 DUP6 DUP2 SLOAD DUP2 LT PUSH2 0x9A04 JUMPI PUSH2 0x9A04 PUSH2 0xCA54 JUMP JUMPDEST SWAP1 PUSH0 MSTORE PUSH1 0x20 PUSH0 KECCAK256 ADD SLOAD DUP2 MSTORE PUSH1 0x20 ADD SWAP1 DUP2 MSTORE PUSH1 0x20 ADD PUSH0 KECCAK256 PUSH1 0x18 ADD SLOAD LT JUMPDEST ISZERO PUSH2 0x9A28 JUMPI POP PUSH0 JUMPDEST PUSH0 DUP9 PUSH1 0x60 ADD MLOAD PUSH1 0x2 DUP2 GT ISZERO PUSH2 0x9A3F JUMPI PUSH2 0x9A3F PUSH2 0xD04B JUMP JUMPDEST EQ PUSH2 0x9B15 JUMPI PUSH1 0x1 DUP9 PUSH1 0x60 ADD MLOAD PUSH1 0x2 DUP2 GT ISZERO PUSH2 0x9A5C JUMPI PUSH2 0x9A5C PUSH2 0xD04B JUMP JUMPDEST EQ DUP1 ISZERO PUSH2 0x9AA5 JUMPI POP PUSH1 0x2 PUSH0 PUSH1 0x3 DUP5 DUP2 SLOAD DUP2 LT PUSH2 0x9A7A JUMPI PUSH2 0x9A7A PUSH2 0xCA54 JUMP JUMPDEST SWAP1 PUSH0 MSTORE PUSH1 0x20 PUSH0 KECCAK256 ADD SLOAD DUP2 MSTORE PUSH1 0x20 ADD SWAP1 DUP2 MSTORE PUSH1 0x20 ADD PUSH0 KECCAK256 PUSH1 0x1 ADD PUSH1 0x15 ADD PUSH1 0x1 SWAP1 SLOAD SWAP1 PUSH2 0x100 EXP SWAP1 DIV PUSH1 0xFF AND JUMPDEST DUP1 PUSH2 0x9B0D JUMPI POP PUSH1 0x2 DUP9 PUSH1 0x60 ADD MLOAD PUSH1 0x2 DUP2 GT ISZERO PUSH2 0x9AC3 JUMPI PUSH2 0x9AC3 PUSH2 0xD04B JUMP JUMPDEST EQ DUP1 ISZERO PUSH2 0x9B0D JUMPI POP PUSH1 0x2 PUSH0 PUSH1 0x3 DUP5 DUP2 SLOAD DUP2 LT PUSH2 0x9AE1 JUMPI PUSH2 0x9AE1 PUSH2 0xCA54 JUMP JUMPDEST SWAP1 PUSH0 MSTORE PUSH1 0x20 PUSH0 KECCAK256 ADD SLOAD DUP2 MSTORE PUSH1 0x20 ADD SWAP1 DUP2 MSTORE PUSH1 0x20 ADD PUSH0 KECCAK256 PUSH1 0x1 ADD PUSH1 0x15 ADD PUSH1 0x1 SWAP1 SLOAD SWAP1 PUSH2 0x100 EXP SWAP1 DIV PUSH1 0xFF AND ISZERO JUMPDEST ISZERO PUSH2 0x9B15 JUMPI POP PUSH0 JUMPDEST PUSH1 0x80 DUP9 ADD MLOAD PUSH1 0x1 PUSH1 0x1 PUSH1 0xA0 SHL SUB AND ISZERO PUSH2 0x9B7B JUMPI DUP8 PUSH1 0x80 ADD MLOAD PUSH1 0x1 PUSH1 0x1 PUSH1 0xA0 SHL SUB AND PUSH1 0x2 PUSH0 PUSH1 0x3 DUP6 DUP2 SLOAD DUP2 LT PUSH2 0x9B4C JUMPI PUSH2 0x9B4C PUSH2 0xCA54 JUMP JUMPDEST PUSH0 SWAP2 DUP3 MSTORE PUSH1 0x20 DUP1 DUP4 KECCAK256 SWAP1 SWAP2 ADD SLOAD DUP4 MSTORE DUP3 ADD SWAP3 SWAP1 SWAP3 MSTORE PUSH1 0x40 ADD SWAP1 KECCAK256 PUSH1 0xD ADD SLOAD PUSH1 0x1 PUSH1 0x1 PUSH1 0xA0 SHL SUB AND EQ PUSH2 0x9B7B JUMPI POP PUSH0 JUMPDEST PUSH1 0xA0 DUP9 ADD MLOAD MLOAD ISZERO PUSH2 0x9C52 JUMPI PUSH2 0x9C4B DUP9 PUSH1 0xA0 ADD MLOAD PUSH1 0x2 PUSH0 PUSH1 0x3 DUP7 DUP2 SLOAD DUP2 LT PUSH2 0x9BA4 JUMPI PUSH2 0x9BA4 PUSH2 0xCA54 JUMP JUMPDEST SWAP1 PUSH0 MSTORE PUSH1 0x20 PUSH0 KECCAK256 ADD SLOAD DUP2 MSTORE PUSH1 0x20 ADD SWAP1 DUP2 MSTORE PUSH1 0x20 ADD PUSH0 KECCAK256 PUSH1 0x1 ADD PUSH0 ADD DUP1 SLOAD PUSH2 0x9BCA SWAP1 PUSH2 0xCA68 JUMP JUMPDEST DUP1 PUSH1 0x1F ADD PUSH1 0x20 DUP1 SWAP2 DIV MUL PUSH1 0x20 ADD PUSH1 0x40 MLOAD SWAP1 DUP2 ADD PUSH1 0x40 MSTORE DUP1 SWAP3 SWAP2 SWAP1 DUP2 DUP2 MSTORE PUSH1 0x20 ADD DUP3 DUP1 SLOAD PUSH2 0x9BF6 SWAP1 PUSH2 0xCA68 JUMP JUMPDEST DUP1 ISZERO PUSH2 0x9C41 JUMPI DUP1 PUSH1 0x1F LT PUSH2 0x9C18 JUMPI PUSH2 0x100 DUP1 DUP4 SLOAD DIV MUL DUP4 MSTORE SWAP2 PUSH1 0x20 ADD SWAP2 PUSH2 0x9C41 JUMP JUMPDEST DUP3 ADD SWAP2 SWAP1 PUSH0 MSTORE PUSH1 0x20 PUSH0 KECCAK256 SWAP1 JUMPDEST DUP2 SLOAD DUP2 MSTORE SWAP1 PUSH1 0x1 ADD SWAP1 PUSH1 0x20 ADD DUP1 DUP4 GT PUSH2 0x9C24 JUMPI DUP3 SWAP1 SUB PUSH1 0x1F AND DUP3 ADD SWAP2 JUMPDEST POP POP POP POP POP PUSH2 0xA6FE JUMP JUMPDEST PUSH2 0x9C52 JUMPI POP PUSH0 JUMPDEST PUSH0 DUP9 PUSH1 0xC0 ADD MLOAD GT DUP1 PUSH2 0x9C67 JUMPI POP PUSH0 DUP9 PUSH1 0xE0 ADD MLOAD GT JUMPDEST ISZERO PUSH2 0x9D04 JUMPI PUSH0 DUP9 PUSH1 0xC0 ADD MLOAD GT DUP1 ISZERO PUSH2 0x9CB1 JUMPI POP DUP8 PUSH1 0xC0 ADD MLOAD PUSH1 0x2 PUSH0 PUSH1 0x3 DUP6 DUP2 SLOAD DUP2 LT PUSH2 0x9C95 JUMPI PUSH2 0x9C95 PUSH2 0xCA54 JUMP JUMPDEST SWAP1 PUSH0 MSTORE PUSH1 0x20 PUSH0 KECCAK256 ADD SLOAD DUP2 MSTORE PUSH1 0x20 ADD SWAP1 DUP2 MSTORE PUSH1 0x20 ADD PUSH0 KECCAK256 PUSH1 0x18 ADD SLOAD LT JUMPDEST DUP1 PUSH2 0x9CFC JUMPI POP PUSH0 DUP9 PUSH1 0xE0 ADD MLOAD GT DUP1 ISZERO PUSH2 0x9CFC JUMPI POP DUP8 PUSH1 0xE0 ADD MLOAD PUSH1 0x2 PUSH0 PUSH1 0x3 DUP6 DUP2 SLOAD DUP2 LT PUSH2 0x9CE0 JUMPI PUSH2 0x9CE0 PUSH2 0xCA54 JUMP JUMPDEST SWAP1 PUSH0 MSTORE PUSH1 0x20 PUSH0 KECCAK256 ADD SLOAD DUP2 MSTORE PUSH1 0x20 ADD SWAP1 DUP2 MSTORE PUSH1 0x20 ADD PUSH0 KECCAK256 PUSH1 0x18 ADD SLOAD GT JUMPDEST ISZERO PUSH2 0x9D04 JUMPI POP PUSH0 JUMPDEST DUP1 ISZERO PUSH2 0x9D4C JUMPI PUSH2 0x9D20 PUSH1 0x3 DUP4 DUP2 SLOAD DUP2 LT PUSH2 0x1738 JUMPI PUSH2 0x1738 PUSH2 0xCA54 JUMP JUMPDEST DUP4 DUP6 DUP2 MLOAD DUP2 LT PUSH2 0x9D32 JUMPI PUSH2 0x9D32 PUSH2 0xCA54 JUMP JUMPDEST PUSH1 0x20 MUL PUSH1 0x20 ADD ADD DUP2 SWAP1 MSTORE POP DUP4 DUP1 PUSH2 0x9D48 SWAP1 PUSH2 0xCBF4 JUMP JUMPDEST SWAP5 POP POP JUMPDEST POP PUSH1 0x1 ADD PUSH2 0x9945 JUMP JUMPDEST POP PUSH0 DUP3 PUSH1 0x1 PUSH1 0x1 PUSH1 0x40 SHL SUB DUP2 GT ISZERO PUSH2 0x9D6F JUMPI PUSH2 0x9D6F PUSH2 0xB1A6 JUMP JUMPDEST PUSH1 0x40 MLOAD SWAP1 DUP1 DUP3 MSTORE DUP1 PUSH1 0x20 MUL PUSH1 0x20 ADD DUP3 ADD PUSH1 0x40 MSTORE DUP1 ISZERO PUSH2 0x9DA8 JUMPI DUP2 PUSH1 0x20 ADD JUMPDEST PUSH2 0x9D95 PUSH2 0xAD2F JUMP JUMPDEST DUP2 MSTORE PUSH1 0x20 ADD SWAP1 PUSH1 0x1 SWAP1 SUB SWAP1 DUP2 PUSH2 0x9D8D JUMPI SWAP1 POP JUMPDEST POP SWAP1 POP PUSH0 JUMPDEST DUP4 DUP2 LT ISZERO PUSH2 0x9DF4 JUMPI DUP3 DUP2 DUP2 MLOAD DUP2 LT PUSH2 0x9DC7 JUMPI PUSH2 0x9DC7 PUSH2 0xCA54 JUMP JUMPDEST PUSH1 0x20 MUL PUSH1 0x20 ADD ADD MLOAD DUP3 DUP3 DUP2 MLOAD DUP2 LT PUSH2 0x9DE1 JUMPI PUSH2 0x9DE1 PUSH2 0xCA54 JUMP JUMPDEST PUSH1 0x20 SWAP1 DUP2 MUL SWAP2 SWAP1 SWAP2 ADD ADD MSTORE PUSH1 0x1 ADD PUSH2 0x9DAD JUMP JUMPDEST POP PUSH0 DUP1 DUP9 PUSH1 0x20 ADD MLOAD PUSH1 0x1 DUP2 GT ISZERO PUSH2 0x9E0D JUMPI PUSH2 0x9E0D PUSH2 0xD04B JUMP JUMPDEST EQ SWAP1 POP PUSH0 DUP1 DUP10 PUSH1 0x40 ADD MLOAD PUSH1 0x1 DUP2 GT ISZERO PUSH2 0x9E28 JUMPI PUSH2 0x9E28 PUSH2 0xD04B JUMP JUMPDEST EQ SWAP1 POP PUSH2 0x9E36 DUP4 DUP4 DUP4 PUSH2 0xA7D4 JUMP JUMPDEST SWAP3 POP PUSH0 DUP10 PUSH2 0x120 ADD MLOAD DUP11 PUSH2 0x100 ADD MLOAD PUSH2 0x9E4F SWAP2 SWAP1 PUSH2 0xCC2B JUMP JUMPDEST SWAP1 POP PUSH0 DUP11 PUSH2 0x120 ADD MLOAD DUP3 PUSH2 0x9E63 SWAP2 SWAP1 PUSH2 0xCB31 JUMP JUMPDEST SWAP1 POP DUP7 DUP2 GT ISZERO PUSH2 0x9E70 JUMPI POP DUP6 JUMPDEST PUSH0 PUSH2 0x9E7B DUP4 DUP4 PUSH2 0xCB0A JUMP JUMPDEST SWAP1 POP DUP1 PUSH1 0x1 PUSH1 0x1 PUSH1 0x40 SHL SUB DUP2 GT ISZERO PUSH2 0x9E95 JUMPI PUSH2 0x9E95 PUSH2 0xB1A6 JUMP JUMPDEST PUSH1 0x40 MLOAD SWAP1 DUP1 DUP3 MSTORE DUP1 PUSH1 0x20 MUL PUSH1 0x20 ADD DUP3 ADD PUSH1 0x40 MSTORE DUP1 ISZERO PUSH2 0x9ECE JUMPI DUP2 PUSH1 0x20 ADD JUMPDEST PUSH2 0x9EBB PUSH2 0xAD2F JUMP JUMPDEST DUP2 MSTORE PUSH1 0x20 ADD SWAP1 PUSH1 0x1 SWAP1 SUB SWAP1 DUP2 PUSH2 0x9EB3 JUMPI SWAP1 POP JUMPDEST POP SWAP11 POP DUP3 JUMPDEST DUP3 DUP2 LT ISZERO PUSH2 0x9F25 JUMPI DUP7 DUP2 DUP2 MLOAD DUP2 LT PUSH2 0x9EED JUMPI PUSH2 0x9EED PUSH2 0xCA54 JUMP JUMPDEST PUSH1 0x20 MUL PUSH1 0x20 ADD ADD MLOAD DUP13 DUP6 DUP4 PUSH2 0x9F02 SWAP2 SWAP1 PUSH2 0xCB0A JUMP JUMPDEST DUP2 MLOAD DUP2 LT PUSH2 0x9F12 JUMPI PUSH2 0x9F12 PUSH2 0xCA54 JUMP JUMPDEST PUSH1 0x20 SWAP1 DUP2 MUL SWAP2 SWAP1 SWAP2 ADD ADD MSTORE PUSH1 0x1 ADD PUSH2 0x9ED3 JUMP JUMPDEST POP DUP8 DUP3 LT SWAP10 POP POP POP POP POP POP POP POP POP POP SWAP2 POP SWAP2 JUMP JUMPDEST PUSH1 0x4 DUP2 DUP2 SLOAD DUP2 LT PUSH2 0x9F48 JUMPI PUSH0 DUP1 REVERT JUMPDEST SWAP1 PUSH0 MSTORE PUSH1 0x20 PUSH0 KECCAK256 ADD PUSH0 SWAP2 POP SWAP1 POP DUP1 SLOAD PUSH2 0x9F60 SWAP1 PUSH2 0xCA68 JUMP JUMPDEST DUP1 PUSH1 0x1F ADD PUSH1 0x20 DUP1 SWAP2 DIV MUL PUSH1 0x20 ADD PUSH1 0x40 MLOAD SWAP1 DUP2 ADD PUSH1 0x40 MSTORE DUP1 SWAP3 SWAP2 SWAP1 DUP2 DUP2 MSTORE PUSH1 0x20 ADD DUP3 DUP1 SLOAD PUSH2 0x9F8C SWAP1 PUSH2 0xCA68 JUMP JUMPDEST DUP1 ISZERO PUSH2 0x9FD7 JUMPI DUP1 PUSH1 0x1F LT PUSH2 0x9FAE JUMPI PUSH2 0x100 DUP1 DUP4 SLOAD DIV MUL DUP4 MSTORE SWAP2 PUSH1 0x20 ADD SWAP2 PUSH2 0x9FD7 JUMP JUMPDEST DUP3 ADD SWAP2 SWAP1 PUSH0 MSTORE PUSH1 0x20 PUSH0 KECCAK256 SWAP1 JUMPDEST DUP2 SLOAD DUP2 MSTORE SWAP1 PUSH1 0x1 ADD SWAP1 PUSH1 0x20 ADD DUP1 DUP4 GT PUSH2 0x9FBA JUMPI DUP3 SWAP1 SUB PUSH1 0x1F AND DUP3 ADD SWAP2 JUMPDEST POP POP POP POP POP DUP2 JUMP JUMPDEST PUSH1 0x1F SLOAD PUSH1 0x40 MLOAD PUSH4 0x588F1E0D PUSH1 0xE1 SHL DUP2 MSTORE PUSH0 SWAP2 PUSH1 0x1 PUSH1 0x1 PUSH1 0xA0 SHL SUB AND SWAP1 PUSH4 0xB11E3C1A SWAP1 PUSH2 0xA00F SWAP1 CALLER SWAP1 PUSH1 0x4 ADD PUSH2 0xBF40 JUMP JUMPDEST PUSH1 0x20 PUSH1 0x40 MLOAD DUP1 DUP4 SUB DUP2 DUP7 GAS STATICCALL ISZERO DUP1 ISZERO PUSH2 0xA02A JUMPI RETURNDATASIZE PUSH0 DUP1 RETURNDATACOPY RETURNDATASIZE PUSH0 REVERT JUMPDEST POP POP POP POP PUSH1 0x40 MLOAD RETURNDATASIZE PUSH1 0x1F NOT PUSH1 0x1F DUP3 ADD AND DUP3 ADD DUP1 PUSH1 0x40 MSTORE POP DUP2 ADD SWAP1 PUSH2 0xA04E SWAP2 SWAP1 PUSH2 0xCBD9 JUMP JUMPDEST PUSH2 0xA06A JUMPI PUSH1 0x40 MLOAD PUSH3 0x461BCD PUSH1 0xE5 SHL DUP2 MSTORE PUSH1 0x4 ADD PUSH2 0x10E0 SWAP1 PUSH2 0xCE77 JUMP JUMPDEST PUSH0 DUP3 DUP2 MSTORE PUSH1 0x2 PUSH1 0x20 MSTORE PUSH1 0x40 SWAP1 KECCAK256 SLOAD ISZERO DUP1 ISZERO SWAP1 PUSH2 0xA09C JUMPI POP PUSH0 DUP3 DUP2 MSTORE PUSH1 0x2 PUSH1 0x20 MSTORE PUSH1 0x40 SWAP1 KECCAK256 PUSH1 0x16 ADD SLOAD PUSH2 0x100 SWAP1 DIV PUSH1 0xFF AND ISZERO JUMPDEST PUSH2 0xA0BF PUSH1 0x1B PUSH1 0x40 MLOAD DUP1 PUSH1 0x60 ADD PUSH1 0x40 MSTORE DUP1 PUSH1 0x2C DUP2 MSTORE PUSH1 0x20 ADD PUSH2 0xD2DE PUSH1 0x2C SWAP2 CODECOPY PUSH2 0x184A JUMP JUMPDEST SWAP1 PUSH2 0xA0DD JUMPI PUSH1 0x40 MLOAD PUSH3 0x461BCD PUSH1 0xE5 SHL DUP2 MSTORE PUSH1 0x4 ADD PUSH2 0x10E0 SWAP2 SWAP1 PUSH2 0xB975 JUMP JUMPDEST POP POP PUSH0 DUP2 DUP2 MSTORE PUSH1 0x2 PUSH1 0x20 MSTORE PUSH1 0x40 SWAP1 KECCAK256 PUSH1 0x16 ADD DUP1 SLOAD PUSH2 0xFF00 NOT AND PUSH2 0x100 OR SWAP1 SSTORE PUSH1 0x1 SWAP2 SWAP1 POP JUMP JUMPDEST PUSH1 0x60 PUSH0 PUSH2 0xA10F DUP4 PUSH2 0xA9EE JUMP JUMPDEST PUSH1 0x1 ADD SWAP1 POP PUSH0 DUP2 PUSH1 0x1 PUSH1 0x1 PUSH1 0x40 SHL SUB DUP2 GT ISZERO PUSH2 0xA12D JUMPI PUSH2 0xA12D PUSH2 0xB1A6 JUMP JUMPDEST PUSH1 0x40 MLOAD SWAP1 DUP1 DUP3 MSTORE DUP1 PUSH1 0x1F ADD PUSH1 0x1F NOT AND PUSH1 0x20 ADD DUP3 ADD PUSH1 0x40 MSTORE DUP1 ISZERO PUSH2 0xA157 JUMPI PUSH1 0x20 DUP3 ADD DUP2 DUP1 CALLDATASIZE DUP4 CALLDATACOPY ADD SWAP1 POP JUMPDEST POP SWAP1 POP DUP2 DUP2 ADD PUSH1 0x20 ADD JUMPDEST PUSH0 NOT ADD PUSH16 0x181899199A1A9B1B9C1CB0B131B232B3 PUSH1 0x81 SHL PUSH1 0xA DUP7 MOD BYTE DUP2 MSTORE8 PUSH1 0xA DUP6 DIV SWAP5 POP DUP5 PUSH2 0xA161 JUMPI POP SWAP4 SWAP3 POP POP POP JUMP JUMPDEST PUSH0 PUSH1 0x60 PUSH0 JUMPDEST DUP4 MLOAD DUP2 LT ISZERO PUSH2 0xA209 JUMPI DUP2 DUP5 DUP3 DUP2 MLOAD DUP2 LT PUSH2 0xA1B3 JUMPI PUSH2 0xA1B3 PUSH2 0xCA54 JUMP JUMPDEST PUSH1 0x20 MUL PUSH1 0x20 ADD ADD MLOAD PUSH1 0x20 ADD MLOAD DUP6 DUP4 DUP2 MLOAD DUP2 LT PUSH2 0xA1D1 JUMPI PUSH2 0xA1D1 PUSH2 0xCA54 JUMP JUMPDEST PUSH1 0x20 MUL PUSH1 0x20 ADD ADD MLOAD PUSH1 0x40 ADD MLOAD PUSH1 0x40 MLOAD PUSH1 0x20 ADD PUSH2 0xA1EF SWAP4 SWAP3 SWAP2 SWAP1 PUSH2 0xD211 JUMP JUMPDEST PUSH1 0x40 DUP1 MLOAD PUSH1 0x1F NOT DUP2 DUP5 SUB ADD DUP2 MSTORE SWAP2 SWAP1 MSTORE SWAP2 POP PUSH1 0x1 ADD PUSH2 0xA197 JUMP JUMPDEST POP DUP1 MLOAD PUSH1 0x20 SWAP1 SWAP2 ADD KECCAK256 SWAP3 SWAP2 POP POP JUMP JUMPDEST PUSH1 0x2 PUSH0 DUP3 DUP2 MSTORE PUSH1 0x20 ADD SWAP1 DUP2 MSTORE PUSH1 0x20 ADD PUSH0 KECCAK256 PUSH0 ADD SLOAD PUSH0 EQ ISZERO PUSH2 0xA263 PUSH1 0x2 PUSH1 0x40 MLOAD DUP1 PUSH1 0x40 ADD PUSH1 0x40 MSTORE DUP1 PUSH1 0x11 DUP2 MSTORE PUSH1 0x20 ADD PUSH17 0x141C9BD91D58DD081B9BDD08199BDD5B99 PUSH1 0x7A SHL DUP2 MSTORE POP PUSH2 0x184A JUMP JUMPDEST SWAP1 PUSH2 0xA281 JUMPI PUSH1 0x40 MLOAD PUSH3 0x461BCD PUSH1 0xE5 SHL DUP2 MSTORE PUSH1 0x4 ADD PUSH2 0x10E0 SWAP2 SWAP1 PUSH2 0xB975 JUMP JUMPDEST POP PUSH0 DUP2 DUP2 MSTORE PUSH1 0x2 PUSH1 0x20 SWAP1 DUP2 MSTORE PUSH1 0x40 DUP1 DUP4 KECCAK256 PUSH1 0xD ADD SLOAD PUSH1 0x7 SWAP1 SWAP3 MSTORE DUP3 KECCAK256 PUSH1 0x1 PUSH1 0x1 PUSH1 0xA0 SHL SUB SWAP1 SWAP2 AND SWAP2 JUMPDEST DUP2 SLOAD DUP2 LT ISZERO PUSH2 0xA363 JUMPI PUSH1 0x6 PUSH0 DUP6 DUP2 MSTORE PUSH1 0x20 ADD SWAP1 DUP2 MSTORE PUSH1 0x20 ADD PUSH0 KECCAK256 PUSH0 DUP4 DUP4 DUP2 SLOAD DUP2 LT PUSH2 0xA2D7 JUMPI PUSH2 0xA2D7 PUSH2 0xCA54 JUMP JUMPDEST PUSH0 SWAP2 DUP3 MSTORE PUSH1 0x20 DUP1 DUP4 KECCAK256 SWAP1 SWAP2 ADD SLOAD DUP4 MSTORE DUP3 DUP2 ADD SWAP4 SWAP1 SWAP4 MSTORE PUSH1 0x40 SWAP2 DUP3 ADD DUP2 KECCAK256 DUP2 DUP2 SSTORE PUSH1 0x1 DUP2 ADD DUP3 SWAP1 SSTORE PUSH1 0x2 DUP2 ADD DUP3 SWAP1 SSTORE PUSH1 0x3 DUP2 ADD DUP3 SWAP1 SSTORE PUSH1 0x4 DUP2 ADD DUP3 SWAP1 SSTORE PUSH1 0x5 ADD DUP2 SWAP1 SSTORE DUP7 DUP2 MSTORE PUSH1 0x8 SWAP1 SWAP3 MSTORE DUP2 KECCAK256 DUP4 SLOAD SWAP1 SWAP2 SWAP1 DUP5 SWAP1 DUP5 SWAP1 DUP2 LT PUSH2 0xA33A JUMPI PUSH2 0xA33A PUSH2 0xCA54 JUMP JUMPDEST SWAP1 PUSH0 MSTORE PUSH1 0x20 PUSH0 KECCAK256 ADD SLOAD DUP2 MSTORE PUSH1 0x20 ADD SWAP1 DUP2 MSTORE PUSH1 0x20 ADD PUSH0 KECCAK256 PUSH0 PUSH2 0xA35B SWAP2 SWAP1 PUSH2 0xAF07 JUMP JUMPDEST PUSH1 0x1 ADD PUSH2 0xA2AA JUMP JUMPDEST POP PUSH0 DUP4 DUP2 MSTORE PUSH1 0x7 PUSH1 0x20 MSTORE PUSH1 0x40 DUP2 KECCAK256 PUSH2 0xA37A SWAP2 PUSH2 0xAF25 JUMP JUMPDEST PUSH0 DUP4 DUP2 MSTORE PUSH1 0x2 PUSH1 0x20 MSTORE PUSH1 0x40 DUP2 KECCAK256 DUP2 DUP2 SSTORE SWAP1 PUSH1 0x1 DUP3 ADD DUP2 PUSH2 0xA39A DUP3 DUP3 PUSH2 0xACD5 JUMP JUMPDEST PUSH1 0x1 DUP3 ADD PUSH0 SWAP1 SSTORE PUSH1 0x2 DUP3 ADD PUSH0 PUSH2 0xA3B0 SWAP2 SWAP1 PUSH2 0xACD5 JUMP JUMPDEST PUSH1 0x3 DUP3 ADD PUSH0 SWAP1 SSTORE PUSH1 0x4 DUP3 ADD PUSH0 SWAP1 SSTORE PUSH1 0x5 DUP3 ADD PUSH0 SWAP1 SSTORE PUSH1 0x6 DUP3 ADD PUSH0 SWAP1 SSTORE PUSH1 0x7 DUP3 ADD PUSH0 PUSH2 0xA3DB SWAP2 SWAP1 PUSH2 0xAF25 JUMP JUMPDEST PUSH2 0xA3E8 PUSH1 0x8 DUP4 ADD PUSH0 PUSH2 0xAF40 JUMP JUMPDEST PUSH1 0x9 DUP3 ADD PUSH0 SWAP1 SSTORE PUSH1 0xA DUP3 ADD PUSH0 SWAP1 SSTORE PUSH1 0xB DUP3 ADD PUSH0 PUSH2 0xA405 SWAP2 SWAP1 PUSH2 0xAF40 JUMP JUMPDEST PUSH1 0xC DUP3 ADD DUP1 SLOAD PUSH1 0x1 PUSH1 0x1 PUSH1 0xA0 SHL SUB NOT AND SWAP1 SSTORE PUSH2 0xA424 PUSH1 0xD DUP4 ADD PUSH0 PUSH2 0xACD5 JUMP JUMPDEST PUSH2 0xA431 PUSH1 0xE DUP4 ADD PUSH0 PUSH2 0xACD5 JUMP JUMPDEST PUSH1 0xF DUP3 ADD DUP1 SLOAD PUSH1 0xFF NOT AND SWAP1 SSTORE PUSH2 0xA44A PUSH1 0x10 DUP4 ADD PUSH0 PUSH2 0xAF40 JUMP JUMPDEST PUSH2 0xA457 PUSH1 0x11 DUP4 ADD PUSH0 PUSH2 0xACD5 JUMP JUMPDEST POP PUSH0 PUSH1 0x12 DUP3 ADD DUP2 SWAP1 SSTORE PUSH1 0x13 DUP3 ADD DUP2 SWAP1 SSTORE PUSH1 0x14 DUP3 ADD DUP2 SWAP1 SSTORE PUSH1 0x15 DUP3 ADD DUP1 SLOAD PUSH2 0xFFFF NOT AND SWAP1 SSTORE PUSH1 0x16 SWAP1 SWAP2 ADD DUP2 SWAP1 SSTORE PUSH1 0x18 DUP4 ADD DUP2 SWAP1 SSTORE PUSH1 0x19 SWAP1 SWAP3 ADD DUP3 SWAP1 SSTORE POP JUMPDEST PUSH1 0x3 SLOAD DUP2 LT ISZERO PUSH2 0xA538 JUMPI DUP4 PUSH1 0x3 DUP3 DUP2 SLOAD DUP2 LT PUSH2 0xA4B2 JUMPI PUSH2 0xA4B2 PUSH2 0xCA54 JUMP JUMPDEST SWAP1 PUSH0 MSTORE PUSH1 0x20 PUSH0 KECCAK256 ADD SLOAD SUB PUSH2 0xA530 JUMPI PUSH1 0x3 DUP1 SLOAD PUSH2 0xA4D0 SWAP1 PUSH1 0x1 SWAP1 PUSH2 0xCB0A JUMP JUMPDEST DUP2 SLOAD DUP2 LT PUSH2 0xA4E0 JUMPI PUSH2 0xA4E0 PUSH2 0xCA54 JUMP JUMPDEST SWAP1 PUSH0 MSTORE PUSH1 0x20 PUSH0 KECCAK256 ADD SLOAD PUSH1 0x3 DUP3 DUP2 SLOAD DUP2 LT PUSH2 0xA4FC JUMPI PUSH2 0xA4FC PUSH2 0xCA54 JUMP JUMPDEST PUSH0 SWAP2 DUP3 MSTORE PUSH1 0x20 SWAP1 SWAP2 KECCAK256 ADD SSTORE PUSH1 0x3 DUP1 SLOAD DUP1 PUSH2 0xA518 JUMPI PUSH2 0xA518 PUSH2 0xCB1D JUMP JUMPDEST PUSH1 0x1 SWAP1 SUB DUP2 DUP2 SWAP1 PUSH0 MSTORE PUSH1 0x20 PUSH0 KECCAK256 ADD PUSH0 SWAP1 SSTORE SWAP1 SSTORE PUSH2 0xA538 JUMP JUMPDEST PUSH1 0x1 ADD PUSH2 0xA494 JUMP JUMPDEST POP PUSH2 0xA543 DUP3 DUP5 PUSH2 0xAAC3 JUMP JUMPDEST PUSH1 0x1 PUSH1 0x1 PUSH1 0xA0 SHL SUB DUP3 AND PUSH0 SWAP1 DUP2 MSTORE PUSH1 0x1 PUSH1 0x20 SWAP1 DUP2 MSTORE PUSH1 0x40 DUP1 DUP4 KECCAK256 DUP7 DUP5 MSTORE DUP3 MSTORE SWAP2 DUP3 SWAP1 KECCAK256 DUP1 SLOAD PUSH1 0xFF NOT AND SWAP1 SSTORE SWAP1 MLOAD DUP5 DUP2 MSTORE PUSH32 0x716431C6AD87C14DFBAEA060C40DE99E2C47AFAB8D3C665240F9887945474A4F SWAP2 ADD PUSH2 0x7159 JUMP JUMPDEST PUSH1 0x1E DUP1 SLOAD PUSH0 SWAP2 DUP3 PUSH2 0xA5AB DUP4 PUSH2 0xCBF4 JUMP JUMPDEST SWAP1 SWAP2 SSTORE POP POP PUSH0 DUP5 DUP2 MSTORE PUSH1 0x2 PUSH1 0x20 MSTORE PUSH1 0x40 SWAP1 KECCAK256 SLOAD PUSH2 0xA5DA JUMPI PUSH1 0x40 MLOAD PUSH3 0x461BCD PUSH1 0xE5 SHL DUP2 MSTORE PUSH1 0x4 ADD PUSH2 0x10E0 SWAP1 PUSH2 0xCF9F JUMP JUMPDEST PUSH1 0x40 DUP1 MLOAD PUSH1 0x60 DUP2 ADD DUP3 MSTORE PUSH1 0x1E SLOAD DUP1 DUP3 MSTORE PUSH1 0x20 DUP1 DUP4 ADD DUP8 DUP2 MSTORE DUP4 DUP6 ADD DUP8 SWAP1 MSTORE PUSH0 SWAP3 DUP4 MSTORE PUSH1 0x14 SWAP1 SWAP2 MSTORE SWAP3 SWAP1 KECCAK256 DUP2 MLOAD DUP2 SSTORE SWAP2 MLOAD SWAP1 SWAP2 DUP3 SWAP2 PUSH1 0x1 DUP3 ADD SWAP1 PUSH2 0xA61D SWAP1 DUP3 PUSH2 0xCC8D JUMP JUMPDEST POP PUSH1 0x40 DUP3 ADD MLOAD PUSH1 0x2 DUP3 ADD SWAP1 PUSH2 0xA632 SWAP1 DUP3 PUSH2 0xCC8D JUMP JUMPDEST POP POP POP PUSH0 DUP6 DUP2 MSTORE PUSH1 0x15 PUSH1 0x20 SWAP1 DUP2 MSTORE PUSH1 0x40 DUP1 DUP4 KECCAK256 PUSH1 0x1E SLOAD DUP2 SLOAD PUSH1 0x1 DUP2 ADD DUP4 SSTORE SWAP2 DUP6 MSTORE SWAP3 DUP5 KECCAK256 ADD SWAP2 SWAP1 SWAP2 SSTORE PUSH1 0x21 SLOAD DUP2 MLOAD PUSH4 0xF857D617 PUSH1 0xE0 SHL DUP2 MSTORE SWAP2 MLOAD PUSH1 0x1 PUSH1 0x1 PUSH1 0xA0 SHL SUB SWAP1 SWAP2 AND SWAP3 PUSH4 0xF857D617 SWAP3 PUSH1 0x4 DUP1 DUP3 ADD SWAP4 SWAP2 DUP3 SWAP1 SUB ADD DUP2 DUP4 DUP8 DUP1 EXTCODESIZE ISZERO DUP1 ISZERO PUSH2 0x6FCE JUMPI PUSH0 DUP1 REVERT JUMPDEST PUSH0 DUP4 DUP2 MSTORE PUSH1 0x14 PUSH1 0x20 MSTORE PUSH1 0x40 SWAP1 KECCAK256 SLOAD PUSH2 0xA6C3 JUMPI PUSH1 0x40 MLOAD PUSH3 0x461BCD PUSH1 0xE5 SHL DUP2 MSTORE PUSH1 0x4 ADD PUSH2 0x10E0 SWAP1 PUSH2 0xCFF7 JUMP JUMPDEST PUSH0 DUP4 DUP2 MSTORE PUSH1 0x14 PUSH1 0x20 MSTORE PUSH1 0x40 SWAP1 KECCAK256 PUSH1 0x1 ADD PUSH2 0xA6DD DUP4 DUP3 PUSH2 0xCC8D JUMP JUMPDEST POP PUSH0 DUP4 DUP2 MSTORE PUSH1 0x14 PUSH1 0x20 MSTORE PUSH1 0x40 SWAP1 KECCAK256 PUSH1 0x2 ADD PUSH2 0xA6F8 DUP3 DUP3 PUSH2 0xCC8D JUMP JUMPDEST POP POP POP POP JUMP JUMPDEST DUP2 MLOAD DUP2 MLOAD PUSH0 SWAP2 DUP5 SWAP2 DUP5 SWAP2 GT ISZERO PUSH2 0xA712 JUMPI PUSH0 DUP1 REVERT JUMPDEST PUSH0 DUP1 JUMPDEST DUP4 MLOAD DUP4 MLOAD PUSH2 0xA723 SWAP2 SWAP1 PUSH2 0xCB0A JUMP JUMPDEST DUP2 GT PUSH2 0xA7CA JUMPI PUSH1 0x1 PUSH0 JUMPDEST DUP6 MLOAD DUP2 LT ISZERO PUSH2 0xA7A6 JUMPI PUSH2 0xA75F DUP7 DUP3 DUP2 MLOAD DUP2 LT PUSH2 0xA74B JUMPI PUSH2 0xA74B PUSH2 0xCA54 JUMP JUMPDEST ADD PUSH1 0x20 ADD MLOAD PUSH1 0x1 PUSH1 0x1 PUSH1 0xF8 SHL SUB NOT AND PUSH2 0xAB7D JUMP JUMPDEST PUSH1 0x1 PUSH1 0x1 PUSH1 0xF8 SHL SUB NOT AND PUSH2 0xA787 DUP7 PUSH2 0xA777 DUP5 DUP8 PUSH2 0xCB31 JUMP JUMPDEST DUP2 MLOAD DUP2 LT PUSH2 0xA74B JUMPI PUSH2 0xA74B PUSH2 0xCA54 JUMP JUMPDEST PUSH1 0x1 PUSH1 0x1 PUSH1 0xF8 SHL SUB NOT AND EQ PUSH2 0xA79E JUMPI PUSH0 SWAP2 POP PUSH2 0xA7A6 JUMP JUMPDEST PUSH1 0x1 ADD PUSH2 0xA72D JUMP JUMPDEST POP DUP1 ISZERO PUSH2 0xA7B7 JUMPI PUSH1 0x1 SWAP3 POP POP PUSH2 0xA7CA JUMP JUMPDEST POP DUP1 PUSH2 0xA7C2 DUP2 PUSH2 0xCBF4 JUMP JUMPDEST SWAP2 POP POP PUSH2 0xA715 JUMP JUMPDEST POP SWAP6 SWAP5 POP POP POP POP POP JUMP JUMPDEST DUP3 MLOAD PUSH1 0x60 SWAP1 PUSH1 0x2 DUP2 LT ISZERO PUSH2 0xA7EB JUMPI DUP5 SWAP2 POP POP PUSH2 0x6E59 JUMP JUMPDEST PUSH2 0xA7F3 PUSH2 0xAD2F JUMP JUMPDEST PUSH2 0xA7FB PUSH2 0xAD2F JUMP JUMPDEST PUSH2 0xA803 PUSH2 0xAD2F JUMP JUMPDEST PUSH0 DUP1 PUSH0 JUMPDEST PUSH2 0xA812 PUSH1 0x1 DUP9 PUSH2 0xCB0A JUMP JUMPDEST DUP2 LT ISZERO PUSH2 0xA9DF JUMPI PUSH0 JUMPDEST PUSH1 0x1 PUSH2 0xA827 DUP4 DUP11 PUSH2 0xCB0A JUMP JUMPDEST PUSH2 0xA831 SWAP2 SWAP1 PUSH2 0xCB0A JUMP JUMPDEST DUP2 LT ISZERO PUSH2 0xA9D6 JUMPI PUSH0 DUP13 DUP3 DUP2 MLOAD DUP2 LT PUSH2 0xA84B JUMPI PUSH2 0xA84B PUSH2 0xCA54 JUMP JUMPDEST PUSH1 0x20 MUL PUSH1 0x20 ADD ADD MLOAD SWAP8 POP DUP13 DUP3 PUSH1 0x1 PUSH2 0xA863 SWAP2 SWAP1 PUSH2 0xCB31 JUMP JUMPDEST DUP2 MLOAD DUP2 LT PUSH2 0xA873 JUMPI PUSH2 0xA873 PUSH2 0xCA54 JUMP JUMPDEST PUSH1 0x20 MUL PUSH1 0x20 ADD ADD MLOAD SWAP7 POP DUP11 ISZERO PUSH2 0xA8A0 JUMPI DUP7 MLOAD PUSH1 0x40 SWAP1 DUP2 ADD MLOAD DUP10 MLOAD SWAP1 SWAP2 ADD MLOAD GT ISZERO PUSH2 0xA89B JUMPI POP PUSH1 0x1 JUMPDEST PUSH2 0xA8B8 JUMP JUMPDEST DUP7 MLOAD PUSH1 0x40 SWAP1 DUP2 ADD MLOAD DUP10 MLOAD SWAP1 SWAP2 ADD MLOAD LT ISZERO PUSH2 0xA8B8 JUMPI POP PUSH1 0x1 JUMPDEST DUP12 ISZERO PUSH2 0xA901 JUMPI PUSH2 0xA8C7 DUP9 PUSH2 0xABB9 JUMP JUMPDEST SWAP5 POP PUSH2 0xA8D2 DUP8 PUSH2 0xABB9 JUMP JUMPDEST SWAP4 POP DUP11 DUP1 ISZERO PUSH2 0xA8E0 JUMPI POP DUP4 DUP6 GT JUMPDEST DUP1 PUSH2 0xA8F3 JUMPI POP DUP11 ISZERO DUP1 ISZERO PUSH2 0xA8F3 JUMPI POP DUP4 DUP6 LT JUMPDEST ISZERO PUSH2 0xA8FC JUMPI POP PUSH1 0x1 JUMPDEST PUSH2 0xA93F JUMP JUMPDEST PUSH2 0xA90A DUP9 PUSH2 0xAC13 JUMP JUMPDEST SWAP5 POP PUSH2 0xA915 DUP8 PUSH2 0xAC13 JUMP JUMPDEST SWAP4 POP DUP11 DUP1 ISZERO PUSH2 0xA923 JUMPI POP DUP4 DUP6 LT JUMPDEST DUP1 PUSH2 0xA936 JUMPI POP DUP11 ISZERO DUP1 ISZERO PUSH2 0xA936 JUMPI POP DUP4 DUP6 GT JUMPDEST ISZERO PUSH2 0xA93F JUMPI POP PUSH1 0x1 JUMPDEST DUP1 ISZERO PUSH2 0xA9CD JUMPI DUP13 DUP3 DUP2 MLOAD DUP2 LT PUSH2 0xA957 JUMPI PUSH2 0xA957 PUSH2 0xCA54 JUMP JUMPDEST PUSH1 0x20 MUL PUSH1 0x20 ADD ADD MLOAD SWAP6 POP DUP13 DUP3 PUSH1 0x1 PUSH2 0xA96F SWAP2 SWAP1 PUSH2 0xCB31 JUMP JUMPDEST DUP2 MLOAD DUP2 LT PUSH2 0xA97F JUMPI PUSH2 0xA97F PUSH2 0xCA54 JUMP JUMPDEST PUSH1 0x20 MUL PUSH1 0x20 ADD ADD MLOAD DUP14 DUP4 DUP2 MLOAD DUP2 LT PUSH2 0xA999 JUMPI PUSH2 0xA999 PUSH2 0xCA54 JUMP JUMPDEST PUSH1 0x20 SWAP1 DUP2 MUL SWAP2 SWAP1 SWAP2 ADD ADD MSTORE DUP6 DUP14 PUSH2 0xA9B1 DUP5 PUSH1 0x1 PUSH2 0xCB31 JUMP JUMPDEST DUP2 MLOAD DUP2 LT PUSH2 0xA9C1 JUMPI PUSH2 0xA9C1 PUSH2 0xCA54 JUMP JUMPDEST PUSH1 0x20 MUL PUSH1 0x20 ADD ADD DUP2 SWAP1 MSTORE POP JUMPDEST POP PUSH1 0x1 ADD PUSH2 0xA81B JUMP JUMPDEST POP PUSH1 0x1 ADD PUSH2 0xA807 JUMP JUMPDEST POP SWAP9 SWAP10 SWAP9 POP POP POP POP POP POP POP POP POP JUMP JUMPDEST PUSH0 DUP1 PUSH19 0x184F03E93FF9F4DAA797ED6E38ED64BF6A1F01 PUSH1 0x40 SHL DUP4 LT PUSH2 0xAA2C JUMPI PUSH19 0x184F03E93FF9F4DAA797ED6E38ED64BF6A1F01 PUSH1 0x40 SHL DUP4 DIV SWAP3 POP PUSH1 0x40 ADD JUMPDEST PUSH10 0x4EE2D6D415B85ACEF81 PUSH1 0x20 SHL DUP4 LT PUSH2 0xAA56 JUMPI PUSH10 0x4EE2D6D415B85ACEF81 PUSH1 0x20 SHL DUP4 DIV SWAP3 POP PUSH1 0x20 ADD JUMPDEST PUSH7 0x2386F26FC10000 DUP4 LT PUSH2 0xAA74 JUMPI PUSH7 0x2386F26FC10000 DUP4 DIV SWAP3 POP PUSH1 0x10 ADD JUMPDEST PUSH4 0x5F5E100 DUP4 LT PUSH2 0xAA8C JUMPI PUSH4 0x5F5E100 DUP4 DIV SWAP3 POP PUSH1 0x8 ADD JUMPDEST PUSH2 0x2710 DUP4 LT PUSH2 0xAAA0 JUMPI PUSH2 0x2710 DUP4 DIV SWAP3 POP PUSH1 0x4 ADD JUMPDEST PUSH1 0x64 DUP4 LT PUSH2 0xAAB2 JUMPI PUSH1 0x64 DUP4 DIV SWAP3 POP PUSH1 0x2 ADD JUMPDEST PUSH1 0xA DUP4 LT PUSH2 0xE6B JUMPI PUSH1 0x1 ADD SWAP3 SWAP2 POP POP JUMP JUMPDEST PUSH1 0x1 PUSH1 0x1 PUSH1 0xA0 SHL SUB DUP3 AND PUSH0 SWAP1 DUP2 MSTORE PUSH1 0xA PUSH1 0x20 MSTORE PUSH1 0x40 DUP2 KECCAK256 SWAP1 JUMPDEST DUP2 SLOAD DUP2 LT ISZERO PUSH2 0xA6F8 JUMPI DUP3 DUP3 DUP3 DUP2 SLOAD DUP2 LT PUSH2 0xAAF8 JUMPI PUSH2 0xAAF8 PUSH2 0xCA54 JUMP JUMPDEST SWAP1 PUSH0 MSTORE PUSH1 0x20 PUSH0 KECCAK256 ADD SLOAD SUB PUSH2 0xAB75 JUMPI DUP2 SLOAD DUP3 SWAP1 PUSH2 0xAB16 SWAP1 PUSH1 0x1 SWAP1 PUSH2 0xCB0A JUMP JUMPDEST DUP2 SLOAD DUP2 LT PUSH2 0xAB26 JUMPI PUSH2 0xAB26 PUSH2 0xCA54 JUMP JUMPDEST SWAP1 PUSH0 MSTORE PUSH1 0x20 PUSH0 KECCAK256 ADD SLOAD DUP3 DUP3 DUP2 SLOAD DUP2 LT PUSH2 0xAB41 JUMPI PUSH2 0xAB41 PUSH2 0xCA54 JUMP JUMPDEST SWAP1 PUSH0 MSTORE PUSH1 0x20 PUSH0 KECCAK256 ADD DUP2 SWAP1 SSTORE POP DUP2 DUP1 SLOAD DUP1 PUSH2 0xAB5D JUMPI PUSH2 0xAB5D PUSH2 0xCB1D JUMP JUMPDEST PUSH1 0x1 SWAP1 SUB DUP2 DUP2 SWAP1 PUSH0 MSTORE PUSH1 0x20 PUSH0 KECCAK256 ADD PUSH0 SWAP1 SSTORE SWAP1 SSTORE PUSH2 0xA6F8 JUMP JUMPDEST PUSH1 0x1 ADD PUSH2 0xAADC JUMP JUMPDEST PUSH0 PUSH1 0x41 PUSH1 0xF8 DUP4 SWAP1 SHR LT DUP1 ISZERO SWAP1 PUSH2 0xAB98 JUMPI POP PUSH1 0x5A PUSH1 0xF8 DUP4 SWAP1 SHR GT ISZERO JUMPDEST ISZERO PUSH2 0xABB5 JUMPI PUSH2 0xABAC PUSH1 0xF8 DUP4 SWAP1 SHR PUSH1 0x20 PUSH2 0xD22E JUMP JUMPDEST PUSH1 0xF8 SHL SWAP3 SWAP2 POP POP JUMP JUMPDEST POP SWAP1 JUMP JUMPDEST PUSH0 PUSH0 NOT PUSH2 0xABC4 PUSH2 0xAF5B JUMP JUMPDEST PUSH0 JUMPDEST DUP5 PUSH1 0x20 ADD MLOAD MLOAD DUP2 LT ISZERO PUSH2 0x9274 JUMPI DUP5 PUSH1 0x20 ADD MLOAD DUP2 DUP2 MLOAD DUP2 LT PUSH2 0xABE9 JUMPI PUSH2 0xABE9 PUSH2 0xCA54 JUMP JUMPDEST PUSH1 0x20 MUL PUSH1 0x20 ADD ADD MLOAD PUSH1 0x20 ADD MLOAD SWAP2 POP DUP3 DUP3 PUSH1 0x20 ADD MLOAD LT ISZERO PUSH2 0xAC0B JUMPI DUP2 PUSH1 0x20 ADD MLOAD SWAP3 POP JUMPDEST PUSH1 0x1 ADD PUSH2 0xABC6 JUMP JUMPDEST PUSH0 DUP1 PUSH2 0xAC1D PUSH2 0xAF5B JUMP JUMPDEST PUSH0 JUMPDEST DUP5 PUSH1 0x20 ADD MLOAD MLOAD DUP2 LT ISZERO PUSH2 0x9274 JUMPI DUP5 PUSH1 0x20 ADD MLOAD DUP2 DUP2 MLOAD DUP2 LT PUSH2 0xAC42 JUMPI PUSH2 0xAC42 PUSH2 0xCA54 JUMP JUMPDEST PUSH1 0x20 MUL PUSH1 0x20 ADD ADD MLOAD PUSH1 0x20 ADD MLOAD SWAP2 POP DUP3 DUP3 PUSH1 0x20 ADD MLOAD GT ISZERO PUSH2 0xAC64 JUMPI DUP2 PUSH1 0x20 ADD MLOAD SWAP3 POP JUMPDEST PUSH1 0x1 ADD PUSH2 0xAC1F JUMP JUMPDEST PUSH1 0x40 DUP1 MLOAD DUP1 DUP3 ADD SWAP1 SWAP2 MSTORE PUSH0 DUP2 MSTORE PUSH1 0x20 DUP2 ADD PUSH2 0xAC85 PUSH2 0xAF5B JUMP JUMPDEST SWAP1 MSTORE SWAP1 JUMP JUMPDEST PUSH1 0x40 MLOAD DUP1 PUSH2 0x100 ADD PUSH1 0x40 MSTORE DUP1 PUSH0 DUP2 MSTORE PUSH1 0x20 ADD PUSH0 PUSH1 0x1 PUSH1 0x1 PUSH1 0xA0 SHL SUB AND DUP2 MSTORE PUSH1 0x20 ADD PUSH1 0x60 DUP2 MSTORE PUSH1 0x20 ADD PUSH1 0x60 DUP2 MSTORE PUSH1 0x20 ADD PUSH0 PUSH1 0xFF AND DUP2 MSTORE PUSH1 0x20 ADD PUSH0 DUP2 MSTORE PUSH1 0x20 ADD PUSH0 DUP2 MSTORE PUSH1 0x20 ADD PUSH0 DUP2 MSTORE POP SWAP1 JUMP JUMPDEST POP DUP1 SLOAD PUSH2 0xACE1 SWAP1 PUSH2 0xCA68 JUMP JUMPDEST PUSH0 DUP3 SSTORE DUP1 PUSH1 0x1F LT PUSH2 0xACF0 JUMPI POP POP JUMP JUMPDEST PUSH1 0x1F ADD PUSH1 0x20 SWAP1 DIV SWAP1 PUSH0 MSTORE PUSH1 0x20 PUSH0 KECCAK256 SWAP1 DUP2 ADD SWAP1 PUSH2 0xAD0C SWAP2 SWAP1 PUSH2 0xAF85 JUMP JUMPDEST POP JUMP JUMPDEST PUSH1 0x40 MLOAD DUP1 PUSH1 0x60 ADD PUSH1 0x40 MSTORE DUP1 PUSH0 DUP2 MSTORE PUSH1 0x20 ADD PUSH1 0x60 DUP2 MSTORE PUSH1 0x20 ADD PUSH1 0x60 DUP2 MSTORE POP SWAP1 JUMP JUMPDEST PUSH1 0x40 MLOAD DUP1 PUSH1 0x60 ADD PUSH1 0x40 MSTORE DUP1 PUSH2 0xAD42 PUSH2 0xAE2C JUMP JUMPDEST DUP2 MSTORE PUSH1 0x20 ADD PUSH1 0x60 DUP2 MSTORE PUSH1 0x20 ADD PUSH1 0x60 DUP2 MSTORE POP SWAP1 JUMP JUMPDEST DUP3 DUP1 SLOAD DUP3 DUP3 SSTORE SWAP1 PUSH0 MSTORE PUSH1 0x20 PUSH0 KECCAK256 SWAP1 DUP2 ADD SWAP3 DUP3 ISZERO PUSH2 0xAD8F JUMPI SWAP2 PUSH1 0x20 MUL DUP3 ADD JUMPDEST DUP3 DUP2 GT ISZERO PUSH2 0xAD8F JUMPI DUP3 MLOAD DUP3 SSTORE SWAP2 PUSH1 0x20 ADD SWAP2 SWAP1 PUSH1 0x1 ADD SWAP1 PUSH2 0xAD74 JUMP JUMPDEST POP PUSH2 0xABB5 SWAP3 SWAP2 POP PUSH2 0xAF85 JUMP JUMPDEST DUP3 DUP1 SLOAD DUP3 DUP3 SSTORE SWAP1 PUSH0 MSTORE PUSH1 0x20 PUSH0 KECCAK256 SWAP1 DUP2 ADD SWAP3 DUP3 ISZERO PUSH2 0xADDF JUMPI SWAP2 PUSH1 0x20 MUL DUP3 ADD JUMPDEST DUP3 DUP2 GT ISZERO PUSH2 0xADDF JUMPI DUP3 MLOAD DUP3 SWAP1 PUSH2 0xADCF SWAP1 DUP3 PUSH2 0xCC8D JUMP JUMPDEST POP SWAP2 PUSH1 0x20 ADD SWAP2 SWAP1 PUSH1 0x1 ADD SWAP1 PUSH2 0xADB9 JUMP JUMPDEST POP PUSH2 0xABB5 SWAP3 SWAP2 POP PUSH2 0xAF99 JUMP JUMPDEST PUSH1 0x40 MLOAD DUP1 PUSH1 0x60 ADD PUSH1 0x40 MSTORE DUP1 PUSH0 DUP1 NOT AND DUP2 MSTORE PUSH1 0x20 ADD PUSH1 0x60 DUP2 MSTORE PUSH1 0x20 ADD PUSH1 0x60 DUP2 MSTORE POP SWAP1 JUMP JUMPDEST PUSH1 0x40 DUP1 MLOAD PUSH1 0x60 DUP1 DUP3 ADD DUP4 MSTORE PUSH0 DUP3 MSTORE PUSH1 0x20 DUP3 ADD MSTORE SWAP1 DUP2 ADD PUSH2 0xAC85 PUSH2 0xAF5B JUMP JUMPDEST PUSH1 0x40 MLOAD DUP1 PUSH1 0x80 ADD PUSH1 0x40 MSTORE DUP1 PUSH0 DUP2 MSTORE PUSH1 0x20 ADD PUSH2 0xAEF5 PUSH1 0x40 MLOAD DUP1 PUSH2 0x300 ADD PUSH1 0x40 MSTORE DUP1 PUSH1 0x60 DUP2 MSTORE PUSH1 0x20 ADD PUSH0 DUP2 MSTORE PUSH1 0x20 ADD PUSH1 0x60 DUP2 MSTORE PUSH1 0x20 ADD PUSH0 DUP2 MSTORE PUSH1 0x20 ADD PUSH0 DUP2 MSTORE PUSH1 0x20 ADD PUSH0 DUP2 MSTORE PUSH1 0x20 ADD PUSH0 DUP2 MSTORE PUSH1 0x20 ADD PUSH1 0x60 DUP2 MSTORE PUSH1 0x20 ADD PUSH1 0x60 DUP2 MSTORE PUSH1 0x20 ADD PUSH0 DUP2 MSTORE PUSH1 0x20 ADD PUSH0 DUP2 MSTORE PUSH1 0x20 ADD PUSH1 0x60 DUP2 MSTORE PUSH1 0x20 ADD PUSH0 PUSH1 0x1 PUSH1 0x1 PUSH1 0xA0 SHL SUB AND DUP2 MSTORE PUSH1 0x20 ADD PUSH1 0x60 DUP2 MSTORE PUSH1 0x20 ADD PUSH1 0x60 DUP2 MSTORE PUSH1 0x20 ADD PUSH0 ISZERO ISZERO DUP2 MSTORE PUSH1 0x20 ADD PUSH1 0x60 DUP2 MSTORE PUSH1 0x20 ADD PUSH1 0x60 DUP2 MSTORE PUSH1 0x20 ADD PUSH0 DUP2 MSTORE PUSH1 0x20 ADD PUSH0 DUP2 MSTORE PUSH1 0x20 ADD PUSH0 DUP2 MSTORE PUSH1 0x20 ADD PUSH0 ISZERO ISZERO DUP2 MSTORE PUSH1 0x20 ADD PUSH0 ISZERO ISZERO DUP2 MSTORE PUSH1 0x20 ADD PUSH0 DUP2 MSTORE POP SWAP1 JUMP JUMPDEST DUP2 MSTORE PUSH1 0x20 ADD PUSH0 DUP2 MSTORE PUSH1 0x20 ADD PUSH0 DUP2 MSTORE POP SWAP1 JUMP JUMPDEST POP DUP1 SLOAD PUSH0 DUP3 SSTORE PUSH1 0x3 MUL SWAP1 PUSH0 MSTORE PUSH1 0x20 PUSH0 KECCAK256 SWAP1 DUP2 ADD SWAP1 PUSH2 0xAD0C SWAP2 SWAP1 PUSH2 0xAFB5 JUMP JUMPDEST POP DUP1 SLOAD PUSH0 DUP3 SSTORE SWAP1 PUSH0 MSTORE PUSH1 0x20 PUSH0 KECCAK256 SWAP1 DUP2 ADD SWAP1 PUSH2 0xAD0C SWAP2 SWAP1 PUSH2 0xAF85 JUMP JUMPDEST POP DUP1 SLOAD PUSH0 DUP3 SSTORE SWAP1 PUSH0 MSTORE PUSH1 0x20 PUSH0 KECCAK256 SWAP1 DUP2 ADD SWAP1 PUSH2 0xAD0C SWAP2 SWAP1 PUSH2 0xAF99 JUMP JUMPDEST PUSH1 0x40 MLOAD DUP1 PUSH1 0xA0 ADD PUSH1 0x40 MSTORE DUP1 PUSH0 DUP2 MSTORE PUSH1 0x20 ADD PUSH0 DUP2 MSTORE PUSH1 0x20 ADD PUSH0 DUP2 MSTORE PUSH1 0x20 ADD PUSH0 DUP2 MSTORE PUSH1 0x20 ADD PUSH0 DUP2 MSTORE POP SWAP1 JUMP JUMPDEST JUMPDEST DUP1 DUP3 GT ISZERO PUSH2 0xABB5 JUMPI PUSH0 DUP2 SSTORE PUSH1 0x1 ADD PUSH2 0xAF86 JUMP JUMPDEST DUP1 DUP3 GT ISZERO PUSH2 0xABB5 JUMPI PUSH0 PUSH2 0xAFAC DUP3 DUP3 PUSH2 0xACD5 JUMP JUMPDEST POP PUSH1 0x1 ADD PUSH2 0xAF99 JUMP JUMPDEST DUP1 DUP3 GT ISZERO PUSH2 0xABB5 JUMPI PUSH0 DUP1 DUP3 SSTORE PUSH2 0xAFCE PUSH1 0x1 DUP4 ADD DUP3 PUSH2 0xACD5 JUMP JUMPDEST PUSH2 0xAFDB PUSH1 0x2 DUP4 ADD PUSH0 PUSH2 0xACD5 JUMP JUMPDEST POP PUSH1 0x3 ADD PUSH2 0xAFB5 JUMP JUMPDEST PUSH0 DUP1 PUSH1 0x40 DUP4 DUP6 SUB SLT ISZERO PUSH2 0xAFF5 JUMPI PUSH0 DUP1 REVERT JUMPDEST POP POP DUP1 CALLDATALOAD SWAP3 PUSH1 0x20 SWAP1 SWAP2 ADD CALLDATALOAD SWAP2 POP JUMP JUMPDEST DUP1 MLOAD DUP3 MSTORE PUSH1 0x20 DUP2 ADD MLOAD PUSH1 0x20 DUP4 ADD MSTORE PUSH1 0x40 DUP2 ADD MLOAD PUSH1 0x40 DUP4 ADD MSTORE PUSH1 0x60 DUP2 ADD MLOAD PUSH1 0x60 DUP4 ADD MSTORE PUSH1 0x80 DUP2 ADD MLOAD PUSH1 0x80 DUP4 ADD MSTORE POP POP JUMP JUMPDEST DUP1 MLOAD DUP3 MSTORE PUSH1 0x20 DUP2 ADD MLOAD PUSH2 0x6056 PUSH1 0x20 DUP5 ADD DUP3 PUSH2 0xB004 JUMP JUMPDEST PUSH1 0xC0 DUP2 ADD PUSH2 0xE6B DUP3 DUP5 PUSH2 0xB034 JUMP JUMPDEST PUSH0 PUSH1 0x20 DUP3 DUP5 SUB SLT ISZERO PUSH2 0xB068 JUMPI PUSH0 DUP1 REVERT JUMPDEST POP CALLDATALOAD SWAP2 SWAP1 POP JUMP JUMPDEST PUSH0 DUP2 MLOAD DUP1 DUP5 MSTORE DUP1 PUSH1 0x20 DUP5 ADD PUSH1 0x20 DUP7 ADD MCOPY PUSH0 PUSH1 0x20 DUP3 DUP7 ADD ADD MSTORE PUSH1 0x20 PUSH1 0x1F NOT PUSH1 0x1F DUP4 ADD AND DUP6 ADD ADD SWAP2 POP POP SWAP3 SWAP2 POP POP JUMP JUMPDEST DUP1 MLOAD DUP3 MSTORE PUSH1 0x1 DUP1 PUSH1 0xA0 SHL SUB PUSH1 0x20 DUP3 ADD MLOAD AND PUSH1 0x20 DUP4 ADD MSTORE PUSH0 PUSH1 0x40 DUP3 ADD MLOAD PUSH2 0x100 PUSH1 0x40 DUP6 ADD MSTORE PUSH2 0xB0CF PUSH2 0x100 DUP6 ADD DUP3 PUSH2 0xB06F JUMP JUMPDEST SWAP1 POP PUSH1 0x60 DUP4 ADD MLOAD DUP5 DUP3 SUB PUSH1 0x60 DUP7 ADD MSTORE PUSH2 0xB0E8 DUP3 DUP3 PUSH2 0xB06F JUMP JUMPDEST SWAP2 POP POP PUSH1 0x80 DUP4 ADD MLOAD PUSH2 0xB0FF PUSH1 0x80 DUP7 ADD DUP3 PUSH1 0xFF AND SWAP1 MSTORE JUMP JUMPDEST POP PUSH1 0xA0 DUP4 ADD MLOAD PUSH1 0xA0 DUP6 ADD MSTORE PUSH1 0xC0 DUP4 ADD MLOAD PUSH1 0xC0 DUP6 ADD MSTORE PUSH1 0xE0 DUP4 ADD MLOAD PUSH1 0xE0 DUP6 ADD MSTORE DUP1 SWAP2 POP POP SWAP3 SWAP2 POP POP JUMP JUMPDEST PUSH0 DUP3 DUP3 MLOAD DUP1 DUP6 MSTORE PUSH1 0x20 DUP6 ADD SWAP5 POP PUSH1 0x20 DUP2 PUSH1 0x5 SHL DUP4 ADD ADD PUSH1 0x20 DUP6 ADD PUSH0 JUMPDEST DUP4 DUP2 LT ISZERO PUSH2 0xB176 JUMPI PUSH1 0x1F NOT DUP6 DUP5 SUB ADD DUP9 MSTORE PUSH2 0xB160 DUP4 DUP4 MLOAD PUSH2 0xB09D JUMP JUMPDEST PUSH1 0x20 SWAP9 DUP10 ADD SWAP9 SWAP1 SWAP4 POP SWAP2 SWAP1 SWAP2 ADD SWAP1 PUSH1 0x1 ADD PUSH2 0xB144 JUMP JUMPDEST POP SWAP1 SWAP7 SWAP6 POP POP POP POP POP POP JUMP JUMPDEST PUSH1 0x20 DUP2 MSTORE PUSH0 PUSH2 0x6E59 PUSH1 0x20 DUP4 ADD DUP5 PUSH2 0xB128 JUMP JUMPDEST PUSH1 0x20 DUP2 MSTORE PUSH0 PUSH2 0x6E59 PUSH1 0x20 DUP4 ADD DUP5 PUSH2 0xB09D JUMP JUMPDEST PUSH4 0x4E487B71 PUSH1 0xE0 SHL PUSH0 MSTORE PUSH1 0x41 PUSH1 0x4 MSTORE PUSH1 0x24 PUSH0 REVERT JUMPDEST PUSH1 0x40 MLOAD PUSH2 0x300 DUP2 ADD PUSH1 0x1 PUSH1 0x1 PUSH1 0x40 SHL SUB DUP2 GT DUP3 DUP3 LT OR ISZERO PUSH2 0xB1DD JUMPI PUSH2 0xB1DD PUSH2 0xB1A6 JUMP JUMPDEST PUSH1 0x40 MSTORE SWAP1 JUMP JUMPDEST PUSH1 0x40 MLOAD PUSH1 0x60 DUP2 ADD PUSH1 0x1 PUSH1 0x1 PUSH1 0x40 SHL SUB DUP2 GT DUP3 DUP3 LT OR ISZERO PUSH2 0xB1DD JUMPI PUSH2 0xB1DD PUSH2 0xB1A6 JUMP JUMPDEST PUSH1 0x40 DUP1 MLOAD SWAP1 DUP2 ADD PUSH1 0x1 PUSH1 0x1 PUSH1 0x40 SHL SUB DUP2 GT DUP3 DUP3 LT OR ISZERO PUSH2 0xB1DD JUMPI PUSH2 0xB1DD PUSH2 0xB1A6 JUMP JUMPDEST PUSH1 0x40 MLOAD PUSH1 0x80 DUP2 ADD PUSH1 0x1 PUSH1 0x1 PUSH1 0x40 SHL SUB DUP2 GT DUP3 DUP3 LT OR ISZERO PUSH2 0xB1DD JUMPI PUSH2 0xB1DD PUSH2 0xB1A6 JUMP JUMPDEST PUSH1 0x40 MLOAD PUSH2 0x140 DUP2 ADD PUSH1 0x1 PUSH1 0x1 PUSH1 0x40 SHL SUB DUP2 GT DUP3 DUP3 LT OR ISZERO PUSH2 0xB1DD JUMPI PUSH2 0xB1DD PUSH2 0xB1A6 JUMP JUMPDEST PUSH1 0x40 MLOAD PUSH1 0x1F DUP3 ADD PUSH1 0x1F NOT AND DUP2 ADD PUSH1 0x1 PUSH1 0x1 PUSH1 0x40 SHL SUB DUP2 GT DUP3 DUP3 LT OR ISZERO PUSH2 0xB294 JUMPI PUSH2 0xB294 PUSH2 0xB1A6 JUMP JUMPDEST PUSH1 0x40 MSTORE SWAP2 SWAP1 POP JUMP JUMPDEST PUSH0 DUP3 PUSH1 0x1F DUP4 ADD SLT PUSH2 0xB2AB JUMPI PUSH0 DUP1 REVERT JUMPDEST DUP2 CALLDATALOAD PUSH1 0x20 DUP4 ADD PUSH0 DUP1 PUSH1 0x1 PUSH1 0x1 PUSH1 0x40 SHL SUB DUP5 GT ISZERO PUSH2 0xB2CA JUMPI PUSH2 0xB2CA PUSH2 0xB1A6 JUMP JUMPDEST POP PUSH1 0x1F DUP4 ADD PUSH1 0x1F NOT AND PUSH1 0x20 ADD PUSH2 0xB2DF DUP2 PUSH2 0xB26C JUMP JUMPDEST SWAP2 POP POP DUP3 DUP2 MSTORE DUP6 DUP4 DUP4 ADD GT ISZERO PUSH2 0xB2F3 JUMPI PUSH0 DUP1 REVERT JUMPDEST DUP3 DUP3 PUSH1 0x20 DUP4 ADD CALLDATACOPY PUSH0 SWAP3 DUP2 ADD PUSH1 0x20 ADD SWAP3 SWAP1 SWAP3 MSTORE POP SWAP4 SWAP3 POP POP POP JUMP JUMPDEST PUSH0 PUSH1 0x20 DUP3 DUP5 SUB SLT ISZERO PUSH2 0xB31D JUMPI PUSH0 DUP1 REVERT JUMPDEST DUP2 CALLDATALOAD PUSH1 0x1 PUSH1 0x1 PUSH1 0x40 SHL SUB DUP2 GT ISZERO PUSH2 0xB332 JUMPI PUSH0 DUP1 REVERT JUMPDEST PUSH2 0xB33E DUP5 DUP3 DUP6 ADD PUSH2 0xB29C JUMP JUMPDEST SWAP5 SWAP4 POP POP POP POP JUMP JUMPDEST DUP1 CALLDATALOAD PUSH1 0x1 PUSH1 0x1 PUSH1 0xA0 SHL SUB DUP2 AND DUP2 EQ PUSH2 0x3433 JUMPI PUSH0 DUP1 REVERT JUMPDEST PUSH0 DUP1 PUSH1 0x40 DUP4 DUP6 SUB SLT ISZERO PUSH2 0xB36D JUMPI PUSH0 DUP1 REVERT JUMPDEST PUSH2 0xB376 DUP4 PUSH2 0xB346 JUMP JUMPDEST SWAP5 PUSH1 0x20 SWAP4 SWAP1 SWAP4 ADD CALLDATALOAD SWAP4 POP POP POP JUMP JUMPDEST PUSH1 0x20 DUP1 DUP3 MSTORE DUP3 MLOAD DUP3 DUP3 ADD DUP2 SWAP1 MSTORE PUSH0 SWAP2 DUP5 ADD SWAP1 PUSH1 0x40 DUP5 ADD SWAP1 DUP4 JUMPDEST DUP2 DUP2 LT ISZERO PUSH2 0xB3C7 JUMPI DUP4 MLOAD DUP1 MLOAD DUP5 MSTORE PUSH1 0x20 SWAP1 DUP2 ADD MLOAD DUP2 DUP6 ADD MSTORE SWAP1 SWAP4 ADD SWAP3 PUSH1 0x40 SWAP1 SWAP3 ADD SWAP2 PUSH1 0x1 ADD PUSH2 0xB39D JUMP JUMPDEST POP SWAP1 SWAP6 SWAP5 POP POP POP POP POP JUMP JUMPDEST DUP1 MLOAD DUP3 MSTORE PUSH0 PUSH1 0x20 DUP3 ADD MLOAD PUSH1 0x60 PUSH1 0x20 DUP6 ADD MSTORE PUSH2 0xB3F0 PUSH1 0x60 DUP6 ADD DUP3 PUSH2 0xB06F JUMP JUMPDEST SWAP1 POP PUSH1 0x40 DUP4 ADD MLOAD DUP5 DUP3 SUB PUSH1 0x40 DUP7 ADD MSTORE PUSH2 0xB409 DUP3 DUP3 PUSH2 0xB06F JUMP JUMPDEST SWAP6 SWAP5 POP POP POP POP POP JUMP JUMPDEST PUSH0 DUP3 DUP3 MLOAD DUP1 DUP6 MSTORE PUSH1 0x20 DUP6 ADD SWAP5 POP PUSH1 0x20 DUP2 PUSH1 0x5 SHL DUP4 ADD ADD PUSH1 0x20 DUP6 ADD PUSH0 JUMPDEST DUP4 DUP2 LT ISZERO PUSH2 0xB176 JUMPI PUSH1 0x1F NOT DUP6 DUP5 SUB ADD DUP9 MSTORE PUSH2 0xB44A DUP4 DUP4 MLOAD PUSH2 0xB3D2 JUMP JUMPDEST PUSH1 0x20 SWAP9 DUP10 ADD SWAP9 SWAP1 SWAP4 POP SWAP2 SWAP1 SWAP2 ADD SWAP1 PUSH1 0x1 ADD PUSH2 0xB42E JUMP JUMPDEST PUSH1 0x20 DUP2 MSTORE PUSH0 PUSH2 0x6E59 PUSH1 0x20 DUP4 ADD DUP5 PUSH2 0xB412 JUMP JUMPDEST PUSH0 PUSH1 0x1 PUSH1 0x1 PUSH1 0x40 SHL SUB DUP3 GT ISZERO PUSH2 0xB48A JUMPI PUSH2 0xB48A PUSH2 0xB1A6 JUMP JUMPDEST POP PUSH1 0x5 SHL PUSH1 0x20 ADD SWAP1 JUMP JUMPDEST PUSH0 DUP3 PUSH1 0x1F DUP4 ADD SLT PUSH2 0xB4A3 JUMPI PUSH0 DUP1 REVERT JUMPDEST DUP2 CALLDATALOAD PUSH2 0xB4B6 PUSH2 0xB4B1 DUP3 PUSH2 0xB472 JUMP JUMPDEST PUSH2 0xB26C JUMP JUMPDEST DUP1 DUP3 DUP3 MSTORE PUSH1 0x20 DUP3 ADD SWAP2 POP PUSH1 0x20 DUP4 PUSH1 0x5 SHL DUP7 ADD ADD SWAP3 POP DUP6 DUP4 GT ISZERO PUSH2 0xB4D7 JUMPI PUSH0 DUP1 REVERT JUMPDEST PUSH1 0x20 DUP6 ADD JUMPDEST DUP4 DUP2 LT ISZERO PUSH2 0xA7CA JUMPI DUP1 CALLDATALOAD DUP4 MSTORE PUSH1 0x20 SWAP3 DUP4 ADD SWAP3 ADD PUSH2 0xB4DC JUMP JUMPDEST PUSH0 PUSH1 0x20 DUP3 DUP5 SUB SLT ISZERO PUSH2 0xB504 JUMPI PUSH0 DUP1 REVERT JUMPDEST DUP2 CALLDATALOAD PUSH1 0x1 PUSH1 0x1 PUSH1 0x40 SHL SUB DUP2 GT ISZERO PUSH2 0xB519 JUMPI PUSH0 DUP1 REVERT JUMPDEST PUSH2 0xB33E DUP5 DUP3 DUP6 ADD PUSH2 0xB494 JUMP JUMPDEST PUSH0 PUSH1 0x20 DUP3 DUP5 SUB SLT ISZERO PUSH2 0xB535 JUMPI PUSH0 DUP1 REVERT JUMPDEST PUSH2 0x6E59 DUP3 PUSH2 0xB346 JUMP JUMPDEST PUSH0 DUP2 MLOAD DUP1 DUP5 MSTORE PUSH1 0x20 DUP5 ADD SWAP4 POP PUSH1 0x20 DUP4 ADD PUSH0 JUMPDEST DUP3 DUP2 LT ISZERO PUSH2 0xB56E JUMPI DUP2 MLOAD DUP7 MSTORE PUSH1 0x20 SWAP6 DUP7 ADD SWAP6 SWAP1 SWAP2 ADD SWAP1 PUSH1 0x1 ADD PUSH2 0xB550 JUMP JUMPDEST POP SWAP4 SWAP5 SWAP4 POP POP POP POP JUMP JUMPDEST PUSH0 DUP3 DUP3 MLOAD DUP1 DUP6 MSTORE PUSH1 0x20 DUP6 ADD SWAP5 POP PUSH1 0x20 DUP2 PUSH1 0x5 SHL DUP4 ADD ADD PUSH1 0x20 DUP6 ADD PUSH0 JUMPDEST DUP4 DUP2 LT ISZERO PUSH2 0xB176 JUMPI PUSH1 0x1F NOT DUP6 DUP5 SUB ADD DUP9 MSTORE PUSH2 0xB5B0 DUP4 DUP4 MLOAD PUSH2 0xB06F JUMP JUMPDEST PUSH1 0x20 SWAP9 DUP10 ADD SWAP9 SWAP1 SWAP4 POP SWAP2 SWAP1 SWAP2 ADD SWAP1 PUSH1 0x1 ADD PUSH2 0xB594 JUMP JUMPDEST PUSH0 DUP2 MLOAD PUSH2 0x300 DUP5 MSTORE PUSH2 0xB5DC PUSH2 0x300 DUP6 ADD DUP3 PUSH2 0xB06F JUMP JUMPDEST SWAP1 POP PUSH1 0x20 DUP4 ADD MLOAD PUSH1 0x20 DUP6 ADD MSTORE PUSH1 0x40 DUP4 ADD MLOAD DUP5 DUP3 SUB PUSH1 0x40 DUP7 ADD MSTORE PUSH2 0xB5FF DUP3 DUP3 PUSH2 0xB06F JUMP JUMPDEST SWAP2 POP POP PUSH1 0x60 DUP4 ADD MLOAD PUSH1 0x60 DUP6 ADD MSTORE PUSH1 0x80 DUP4 ADD MLOAD PUSH1 0x80 DUP6 ADD MSTORE PUSH1 0xA0 DUP4 ADD MLOAD PUSH1 0xA0 DUP6 ADD MSTORE PUSH1 0xC0 DUP4 ADD MLOAD PUSH1 0xC0 DUP6 ADD MSTORE PUSH1 0xE0 DUP4 ADD MLOAD DUP5 DUP3 SUB PUSH1 0xE0 DUP7 ADD MSTORE PUSH2 0xB641 DUP3 DUP3 PUSH2 0xB53E JUMP JUMPDEST SWAP2 POP POP PUSH2 0x100 DUP4 ADD MLOAD DUP5 DUP3 SUB PUSH2 0x100 DUP7 ADD MSTORE PUSH2 0xB65D DUP3 DUP3 PUSH2 0xB578 JUMP JUMPDEST SWAP2 POP POP PUSH2 0x120 DUP4 ADD MLOAD PUSH2 0x120 DUP6 ADD MSTORE PUSH2 0x140 DUP4 ADD MLOAD PUSH2 0x140 DUP6 ADD MSTORE PUSH2 0x160 DUP4 ADD MLOAD DUP5 DUP3 SUB PUSH2 0x160 DUP7 ADD MSTORE PUSH2 0xB691 DUP3 DUP3 PUSH2 0xB578 JUMP JUMPDEST SWAP2 POP POP PUSH2 0x180 DUP4 ADD MLOAD PUSH2 0xB6B0 PUSH2 0x180 DUP7 ADD DUP3 PUSH1 0x1 PUSH1 0x1 PUSH1 0xA0 SHL SUB AND SWAP1 MSTORE JUMP JUMPDEST POP PUSH2 0x1A0 DUP4 ADD MLOAD DUP5 DUP3 SUB PUSH2 0x1A0 DUP7 ADD MSTORE PUSH2 0xB6CA DUP3 DUP3 PUSH2 0xB06F JUMP JUMPDEST SWAP2 POP POP PUSH2 0x1C0 DUP4 ADD MLOAD DUP5 DUP3 SUB PUSH2 0x1C0 DUP7 ADD MSTORE PUSH2 0xB6E6 DUP3 DUP3 PUSH2 0xB06F JUMP JUMPDEST SWAP2 POP POP PUSH2 0x1E0 DUP4 ADD MLOAD PUSH2 0xB6FE PUSH2 0x1E0 DUP7 ADD DUP3 ISZERO ISZERO SWAP1 MSTORE JUMP JUMPDEST POP PUSH2 0x200 DUP4 ADD MLOAD DUP5 DUP3 SUB PUSH2 0x200 DUP7 ADD MSTORE PUSH2 0xB718 DUP3 DUP3 PUSH2 0xB578 JUMP JUMPDEST SWAP2 POP POP PUSH2 0x220 DUP4 ADD MLOAD DUP5 DUP3 SUB PUSH2 0x220 DUP7 ADD MSTORE PUSH2 0xB734 DUP3 DUP3 PUSH2 0xB06F JUMP JUMPDEST SWAP2 POP POP PUSH2 0x240 DUP4 ADD MLOAD PUSH2 0x240 DUP6 ADD MSTORE PUSH2 0x260 DUP4 ADD MLOAD PUSH2 0x260 DUP6 ADD MSTORE PUSH2 0x280 DUP4 ADD MLOAD PUSH2 0x280 DUP6 ADD MSTORE PUSH2 0x2A0 DUP4 ADD MLOAD PUSH2 0xB770 PUSH2 0x2A0 DUP7 ADD DUP3 ISZERO ISZERO SWAP1 MSTORE JUMP JUMPDEST POP PUSH2 0x2C0 DUP4 ADD MLOAD PUSH2 0xB786 PUSH2 0x2C0 DUP7 ADD DUP3 ISZERO ISZERO SWAP1 MSTORE JUMP JUMPDEST POP PUSH2 0x2E0 DUP4 ADD MLOAD PUSH2 0x2E0 DUP6 ADD MSTORE DUP1 SWAP2 POP POP SWAP3 SWAP2 POP POP JUMP JUMPDEST DUP1 MLOAD DUP3 MSTORE PUSH0 PUSH1 0x20 DUP3 ADD MLOAD PUSH1 0x80 PUSH1 0x20 DUP6 ADD MSTORE PUSH2 0xB7BB PUSH1 0x80 DUP6 ADD DUP3 PUSH2 0xB5C6 JUMP JUMPDEST SWAP1 POP PUSH1 0x40 DUP4 ADD MLOAD PUSH1 0x40 DUP6 ADD MSTORE PUSH1 0x60 DUP4 ADD MLOAD PUSH1 0x60 DUP6 ADD MSTORE DUP1 SWAP2 POP POP SWAP3 SWAP2 POP POP JUMP JUMPDEST PUSH0 DUP2 MLOAD PUSH1 0x60 DUP5 MSTORE PUSH2 0xB7EF PUSH1 0x60 DUP6 ADD DUP3 PUSH2 0xB79D JUMP JUMPDEST PUSH1 0x20 DUP5 DUP2 ADD MLOAD DUP7 DUP4 SUB DUP8 DUP4 ADD MSTORE DUP1 MLOAD DUP1 DUP5 MSTORE SWAP1 DUP3 ADD SWAP4 POP PUSH0 SWAP3 SWAP1 SWAP2 ADD SWAP1 JUMPDEST DUP1 DUP4 LT ISZERO PUSH2 0xB837 JUMPI PUSH2 0xB820 DUP3 DUP6 MLOAD PUSH2 0xB034 JUMP JUMPDEST PUSH1 0xC0 DUP3 ADD SWAP2 POP PUSH1 0x20 DUP5 ADD SWAP4 POP PUSH1 0x1 DUP4 ADD SWAP3 POP PUSH2 0xB80D JUMP JUMPDEST POP PUSH1 0x40 DUP6 ADD MLOAD SWAP3 POP DUP6 DUP2 SUB PUSH1 0x40 DUP8 ADD MSTORE DUP1 SWAP2 POP DUP3 MLOAD DUP1 DUP3 MSTORE PUSH1 0x20 DUP3 ADD SWAP3 POP PUSH1 0x20 DUP2 PUSH1 0x5 SHL DUP4 ADD ADD PUSH1 0x20 DUP6 ADD SWAP5 POP PUSH0 JUMPDEST DUP3 DUP2 LT ISZERO PUSH2 0xB897 JUMPI PUSH1 0x1F NOT DUP5 DUP4 SUB ADD DUP6 MSTORE PUSH2 0xB882 DUP3 DUP8 MLOAD PUSH2 0xB412 JUMP JUMPDEST PUSH1 0x20 SWAP7 DUP8 ADD SWAP7 SWAP6 SWAP1 SWAP6 ADD SWAP5 SWAP2 POP PUSH1 0x1 ADD PUSH2 0xB866 JUMP JUMPDEST POP SWAP8 SWAP7 POP POP POP POP POP POP POP JUMP JUMPDEST PUSH0 DUP3 DUP3 MLOAD DUP1 DUP6 MSTORE PUSH1 0x20 DUP6 ADD SWAP5 POP PUSH1 0x20 DUP2 PUSH1 0x5 SHL DUP4 ADD ADD PUSH1 0x20 DUP6 ADD PUSH0 JUMPDEST DUP4 DUP2 LT ISZERO PUSH2 0xB176 JUMPI PUSH1 0x1F NOT DUP6 DUP5 SUB ADD DUP9 MSTORE PUSH2 0xB8DB DUP4 DUP4 MLOAD PUSH2 0xB7DB JUMP JUMPDEST PUSH1 0x20 SWAP9 DUP10 ADD SWAP9 SWAP1 SWAP4 POP SWAP2 SWAP1 SWAP2 ADD SWAP1 PUSH1 0x1 ADD PUSH2 0xB8BF JUMP JUMPDEST PUSH1 0x20 DUP2 MSTORE PUSH0 PUSH2 0x6E59 PUSH1 0x20 DUP4 ADD DUP5 PUSH2 0xB8A3 JUMP JUMPDEST PUSH0 DUP1 PUSH0 DUP1 PUSH1 0x80 DUP6 DUP8 SUB SLT ISZERO PUSH2 0xB916 JUMPI PUSH0 DUP1 REVERT JUMPDEST POP POP DUP3 CALLDATALOAD SWAP5 PUSH1 0x20 DUP5 ADD CALLDATALOAD SWAP5 POP PUSH1 0x40 DUP5 ADD CALLDATALOAD SWAP4 PUSH1 0x60 ADD CALLDATALOAD SWAP3 POP SWAP1 POP JUMP JUMPDEST PUSH0 DUP1 PUSH1 0x40 DUP4 DUP6 SUB SLT ISZERO PUSH2 0xB943 JUMPI PUSH0 DUP1 REVERT JUMPDEST DUP3 CALLDATALOAD SWAP2 POP PUSH1 0x20 DUP4 ADD CALLDATALOAD PUSH1 0x1 PUSH1 0x1 PUSH1 0x40 SHL SUB DUP2 GT ISZERO PUSH2 0xB95F JUMPI PUSH0 DUP1 REVERT JUMPDEST PUSH2 0xB96B DUP6 DUP3 DUP7 ADD PUSH2 0xB29C JUMP JUMPDEST SWAP2 POP POP SWAP3 POP SWAP3 SWAP1 POP JUMP JUMPDEST PUSH1 0x20 DUP2 MSTORE PUSH0 PUSH2 0x6E59 PUSH1 0x20 DUP4 ADD DUP5 PUSH2 0xB06F JUMP JUMPDEST DUP5 DUP2 MSTORE PUSH1 0x80 PUSH1 0x20 DUP3 ADD MSTORE PUSH0 PUSH2 0xB99F PUSH1 0x80 DUP4 ADD DUP7 PUSH2 0xB5C6 JUMP JUMPDEST PUSH1 0x40 DUP4 ADD SWAP5 SWAP1 SWAP5 MSTORE POP PUSH1 0x60 ADD MSTORE SWAP3 SWAP2 POP POP JUMP JUMPDEST PUSH0 DUP3 PUSH1 0x1F DUP4 ADD SLT PUSH2 0xB9C1 JUMPI PUSH0 DUP1 REVERT JUMPDEST DUP2 CALLDATALOAD PUSH2 0xB9CF PUSH2 0xB4B1 DUP3 PUSH2 0xB472 JUMP JUMPDEST DUP1 DUP3 DUP3 MSTORE PUSH1 0x20 DUP3 ADD SWAP2 POP PUSH1 0x20 DUP4 PUSH1 0x5 SHL DUP7 ADD ADD SWAP3 POP DUP6 DUP4 GT ISZERO PUSH2 0xB9F0 JUMPI PUSH0 DUP1 REVERT JUMPDEST PUSH1 0x20 DUP6 ADD JUMPDEST DUP4 DUP2 LT ISZERO PUSH2 0xA7CA JUMPI DUP1 CALLDATALOAD PUSH1 0x1 PUSH1 0x1 PUSH1 0x40 SHL SUB DUP2 GT ISZERO PUSH2 0xBA12 JUMPI PUSH0 DUP1 REVERT JUMPDEST PUSH2 0xBA21 DUP9 PUSH1 0x20 DUP4 DUP11 ADD ADD PUSH2 0xB29C JUMP JUMPDEST DUP5 MSTORE POP PUSH1 0x20 SWAP3 DUP4 ADD SWAP3 ADD PUSH2 0xB9F5 JUMP JUMPDEST DUP1 ISZERO ISZERO DUP2 EQ PUSH2 0xAD0C JUMPI PUSH0 DUP1 REVERT JUMPDEST DUP1 CALLDATALOAD PUSH2 0x3433 DUP2 PUSH2 0xBA30 JUMP JUMPDEST PUSH0 PUSH2 0x300 DUP3 DUP5 SUB SLT ISZERO PUSH2 0xBA59 JUMPI PUSH0 DUP1 REVERT JUMPDEST PUSH2 0xBA61 PUSH2 0xB1BA JUMP JUMPDEST SWAP1 POP DUP2 CALLDATALOAD PUSH1 0x1 PUSH1 0x1 PUSH1 0x40 SHL SUB DUP2 GT ISZERO PUSH2 0xBA78 JUMPI PUSH0 DUP1 REVERT JUMPDEST PUSH2 0xBA84 DUP5 DUP3 DUP6 ADD PUSH2 0xB29C JUMP JUMPDEST DUP3 MSTORE POP PUSH1 0x20 DUP3 DUP2 ADD CALLDATALOAD SWAP1 DUP3 ADD MSTORE PUSH1 0x40 DUP3 ADD CALLDATALOAD PUSH1 0x1 PUSH1 0x1 PUSH1 0x40 SHL SUB DUP2 GT ISZERO PUSH2 0xBAA9 JUMPI PUSH0 DUP1 REVERT JUMPDEST PUSH2 0xBAB5 DUP5 DUP3 DUP6 ADD PUSH2 0xB29C JUMP JUMPDEST PUSH1 0x40 DUP4 ADD MSTORE POP PUSH1 0x60 DUP3 DUP2 ADD CALLDATALOAD SWAP1 DUP3 ADD MSTORE PUSH1 0x80 DUP1 DUP4 ADD CALLDATALOAD SWAP1 DUP3 ADD MSTORE PUSH1 0xA0 DUP1 DUP4 ADD CALLDATALOAD SWAP1 DUP3 ADD MSTORE PUSH1 0xC0 DUP1 DUP4 ADD CALLDATALOAD SWAP1 DUP3 ADD MSTORE PUSH1 0xE0 DUP3 ADD CALLDATALOAD PUSH1 0x1 PUSH1 0x1 PUSH1 0x40 SHL SUB DUP2 GT ISZERO PUSH2 0xBAFB JUMPI PUSH0 DUP1 REVERT JUMPDEST PUSH2 0xBB07 DUP5 DUP3 DUP6 ADD PUSH2 0xB494 JUMP JUMPDEST PUSH1 0xE0 DUP4 ADD MSTORE POP PUSH2 0x100 DUP3 ADD CALLDATALOAD PUSH1 0x1 PUSH1 0x1 PUSH1 0x40 SHL SUB DUP2 GT ISZERO PUSH2 0xBB26 JUMPI PUSH0 DUP1 REVERT JUMPDEST PUSH2 0xBB32 DUP5 DUP3 DUP6 ADD PUSH2 0xB9B2 JUMP JUMPDEST PUSH2 0x100 DUP4 ADD MSTORE POP PUSH2 0x120 DUP3 DUP2 ADD CALLDATALOAD SWAP1 DUP3 ADD MSTORE PUSH2 0x140 DUP1 DUP4 ADD CALLDATALOAD SWAP1 DUP3 ADD MSTORE PUSH2 0x160 DUP3 ADD CALLDATALOAD PUSH1 0x1 PUSH1 0x1 PUSH1 0x40 SHL SUB DUP2 GT ISZERO PUSH2 0xBB68 JUMPI PUSH0 DUP1 REVERT JUMPDEST PUSH2 0xBB74 DUP5 DUP3 DUP6 ADD PUSH2 0xB9B2 JUMP JUMPDEST PUSH2 0x160 DUP4 ADD MSTORE POP PUSH2 0xBB88 PUSH2 0x180 DUP4 ADD PUSH2 0xB346 JUMP JUMPDEST PUSH2 0x180 DUP3 ADD MSTORE PUSH2 0x1A0 DUP3 ADD CALLDATALOAD PUSH1 0x1 PUSH1 0x1 PUSH1 0x40 SHL SUB DUP2 GT ISZERO PUSH2 0xBBA7 JUMPI PUSH0 DUP1 REVERT JUMPDEST PUSH2 0xBBB3 DUP5 DUP3 DUP6 ADD PUSH2 0xB29C JUMP JUMPDEST PUSH2 0x1A0 DUP4 ADD MSTORE POP PUSH2 0x1C0 DUP3 ADD CALLDATALOAD PUSH1 0x1 PUSH1 0x1 PUSH1 0x40 SHL SUB DUP2 GT ISZERO PUSH2 0xBBD3 JUMPI PUSH0 DUP1 REVERT JUMPDEST PUSH2 0xBBDF DUP5 DUP3 DUP6 ADD PUSH2 0xB29C JUMP JUMPDEST PUSH2 0x1C0 DUP4 ADD MSTORE POP PUSH2 0xBBF3 PUSH2 0x1E0 DUP4 ADD PUSH2 0xBA3D JUMP JUMPDEST PUSH2 0x1E0 DUP3 ADD MSTORE PUSH2 0x200 DUP3 ADD CALLDATALOAD PUSH1 0x1 PUSH1 0x1 PUSH1 0x40 SHL SUB DUP2 GT ISZERO PUSH2 0xBC12 JUMPI PUSH0 DUP1 REVERT JUMPDEST PUSH2 0xBC1E DUP5 DUP3 DUP6 ADD PUSH2 0xB9B2 JUMP JUMPDEST PUSH2 0x200 DUP4 ADD MSTORE POP PUSH2 0x220 DUP3 ADD CALLDATALOAD PUSH1 0x1 PUSH1 0x1 PUSH1 0x40 SHL SUB DUP2 GT ISZERO PUSH2 0xBC3E JUMPI PUSH0 DUP1 REVERT JUMPDEST PUSH2 0xBC4A DUP5 DUP3 DUP6 ADD PUSH2 0xB29C JUMP JUMPDEST PUSH2 0x220 DUP4 ADD MSTORE POP PUSH2 0x240 DUP3 DUP2 ADD CALLDATALOAD SWAP1 DUP3 ADD MSTORE PUSH2 0x260 DUP1 DUP4 ADD CALLDATALOAD SWAP1 DUP3 ADD MSTORE PUSH2 0x280 DUP1 DUP4 ADD CALLDATALOAD SWAP1 DUP3 ADD MSTORE PUSH2 0xBC7F PUSH2 0x2A0 DUP4 ADD PUSH2 0xBA3D JUMP JUMPDEST PUSH2 0x2A0 DUP3 ADD MSTORE PUSH2 0xBC92 PUSH2 0x2C0 DUP4 ADD PUSH2 0xBA3D JUMP JUMPDEST PUSH2 0x2C0 DUP3 ADD MSTORE PUSH2 0x2E0 SWAP2 DUP3 ADD CALLDATALOAD SWAP2 DUP2 ADD SWAP2 SWAP1 SWAP2 MSTORE SWAP2 SWAP1 POP JUMP JUMPDEST PUSH0 PUSH1 0xA0 DUP3 DUP5 SUB SLT ISZERO PUSH2 0xBCBB JUMPI PUSH0 DUP1 REVERT JUMPDEST PUSH1 0x40 MLOAD PUSH1 0xA0 DUP2 ADD PUSH1 0x1 PUSH1 0x1 PUSH1 0x40 SHL SUB DUP2 GT DUP3 DUP3 LT OR ISZERO PUSH2 0xBCDD JUMPI PUSH2 0xBCDD PUSH2 0xB1A6 JUMP JUMPDEST PUSH1 0x40 SWAP1 DUP2 MSTORE DUP4 CALLDATALOAD DUP3 MSTORE PUSH1 0x20 DUP1 DUP6 ADD CALLDATALOAD SWAP1 DUP4 ADD MSTORE DUP4 DUP2 ADD CALLDATALOAD SWAP1 DUP3 ADD MSTORE PUSH1 0x60 DUP1 DUP5 ADD CALLDATALOAD SWAP1 DUP3 ADD MSTORE PUSH1 0x80 SWAP3 DUP4 ADD CALLDATALOAD SWAP3 DUP2 ADD SWAP3 SWAP1 SWAP3 MSTORE POP SWAP2 SWAP1 POP JUMP JUMPDEST PUSH0 DUP3 PUSH1 0x1F DUP4 ADD SLT PUSH2 0xBD24 JUMPI PUSH0 DUP1 REVERT JUMPDEST PUSH2 0xBD31 PUSH2 0xB4B1 DUP4 CALLDATALOAD PUSH2 0xB472 JUMP JUMPDEST DUP3 CALLDATALOAD DUP1 DUP3 MSTORE PUSH1 0x20 DUP1 DUP4 ADD SWAP3 SWAP2 PUSH1 0x5 SHL DUP6 ADD ADD DUP6 LT ISZERO PUSH2 0xBD4E JUMPI PUSH0 DUP1 REVERT JUMPDEST PUSH1 0x20 DUP5 ADD JUMPDEST PUSH1 0x20 DUP6 CALLDATALOAD PUSH1 0x5 SHL DUP7 ADD ADD DUP2 LT ISZERO PUSH2 0xBEDE JUMPI PUSH1 0x1 PUSH1 0x1 PUSH1 0x40 SHL SUB DUP2 CALLDATALOAD GT ISZERO PUSH2 0xBD78 JUMPI PUSH0 DUP1 REVERT JUMPDEST DUP1 CALLDATALOAD DUP6 ADD PUSH1 0xE0 DUP2 DUP9 SUB PUSH1 0x1F NOT ADD SLT ISZERO PUSH2 0xBD8F JUMPI PUSH0 DUP1 REVERT JUMPDEST PUSH2 0xBD97 PUSH2 0xB1E3 JUMP JUMPDEST PUSH1 0x20 DUP3 ADD CALLDATALOAD DUP2 MSTORE PUSH1 0x1 PUSH1 0x1 PUSH1 0x40 SHL SUB PUSH1 0x40 DUP4 ADD CALLDATALOAD GT ISZERO PUSH2 0xBDB5 JUMPI PUSH0 DUP1 REVERT JUMPDEST PUSH1 0x20 PUSH1 0x40 DUP4 ADD CALLDATALOAD DUP4 ADD ADD DUP9 PUSH1 0x1F DUP3 ADD SLT PUSH2 0xBDCD JUMPI PUSH0 DUP1 REVERT JUMPDEST PUSH2 0xBDDA PUSH2 0xB4B1 DUP3 CALLDATALOAD PUSH2 0xB472 JUMP JUMPDEST DUP2 CALLDATALOAD DUP1 DUP3 MSTORE PUSH1 0x20 DUP1 DUP4 ADD SWAP3 SWAP2 PUSH1 0x5 SHL DUP5 ADD ADD DUP12 LT ISZERO PUSH2 0xBDF7 JUMPI PUSH0 DUP1 REVERT JUMPDEST PUSH1 0x20 DUP4 ADD JUMPDEST PUSH1 0x20 DUP5 CALLDATALOAD PUSH1 0x5 SHL DUP6 ADD ADD DUP2 LT ISZERO PUSH2 0xBEB4 JUMPI PUSH1 0x1 PUSH1 0x1 PUSH1 0x40 SHL SUB DUP2 CALLDATALOAD GT ISZERO PUSH2 0xBE21 JUMPI PUSH0 DUP1 REVERT JUMPDEST DUP1 CALLDATALOAD DUP5 ADD PUSH1 0x60 DUP2 DUP15 SUB PUSH1 0x1F NOT ADD SLT ISZERO PUSH2 0xBE38 JUMPI PUSH0 DUP1 REVERT JUMPDEST PUSH2 0xBE40 PUSH2 0xB1E3 JUMP JUMPDEST PUSH1 0x20 DUP3 ADD CALLDATALOAD DUP2 MSTORE PUSH1 0x1 PUSH1 0x1 PUSH1 0x40 SHL SUB PUSH1 0x40 DUP4 ADD CALLDATALOAD GT ISZERO PUSH2 0xBE5E JUMPI PUSH0 DUP1 REVERT JUMPDEST PUSH2 0xBE71 DUP15 PUSH1 0x20 PUSH1 0x40 DUP6 ADD CALLDATALOAD DUP6 ADD ADD PUSH2 0xB29C JUMP JUMPDEST PUSH1 0x20 DUP3 ADD MSTORE PUSH1 0x1 PUSH1 0x1 PUSH1 0x40 SHL SUB PUSH1 0x60 DUP4 ADD CALLDATALOAD GT ISZERO PUSH2 0xBE8D JUMPI PUSH0 DUP1 REVERT JUMPDEST PUSH2 0xBEA0 DUP15 PUSH1 0x20 PUSH1 0x60 DUP6 ADD CALLDATALOAD DUP6 ADD ADD PUSH2 0xB29C JUMP JUMPDEST PUSH1 0x40 DUP3 ADD MSTORE DUP5 MSTORE POP PUSH1 0x20 SWAP3 DUP4 ADD SWAP3 ADD PUSH2 0xBDFC JUMP JUMPDEST POP PUSH1 0x20 DUP5 ADD MSTORE POP PUSH2 0xBECA SWAP1 POP DUP9 PUSH1 0x60 DUP5 ADD PUSH2 0xBCAB JUMP JUMPDEST PUSH1 0x40 DUP3 ADD MSTORE DUP5 MSTORE POP PUSH1 0x20 SWAP3 DUP4 ADD SWAP3 ADD PUSH2 0xBD53 JUMP JUMPDEST POP SWAP5 SWAP4 POP POP POP POP JUMP JUMPDEST PUSH0 DUP1 PUSH1 0x40 DUP4 DUP6 SUB SLT ISZERO PUSH2 0xBEF8 JUMPI PUSH0 DUP1 REVERT JUMPDEST DUP3 CALLDATALOAD PUSH1 0x1 PUSH1 0x1 PUSH1 0x40 SHL SUB DUP2 GT ISZERO PUSH2 0xBF0D JUMPI PUSH0 DUP1 REVERT JUMPDEST PUSH2 0xBF19 DUP6 DUP3 DUP7 ADD PUSH2 0xBA48 JUMP JUMPDEST SWAP3 POP POP PUSH1 0x20 DUP4 ADD CALLDATALOAD PUSH1 0x1 PUSH1 0x1 PUSH1 0x40 SHL SUB DUP2 GT ISZERO PUSH2 0xBF34 JUMPI PUSH0 DUP1 REVERT JUMPDEST PUSH2 0xB96B DUP6 DUP3 DUP7 ADD PUSH2 0xBD15 JUMP JUMPDEST PUSH1 0x1 PUSH1 0x1 PUSH1 0xA0 SHL SUB SWAP2 SWAP1 SWAP2 AND DUP2 MSTORE PUSH1 0x20 ADD SWAP1 JUMP JUMPDEST PUSH0 DUP1 PUSH0 PUSH1 0x60 DUP5 DUP7 SUB SLT ISZERO PUSH2 0xBF66 JUMPI PUSH0 DUP1 REVERT JUMPDEST POP POP DUP2 CALLDATALOAD SWAP4 PUSH1 0x20 DUP4 ADD CALLDATALOAD SWAP4 POP PUSH1 0x40 SWAP1 SWAP3 ADD CALLDATALOAD SWAP2 SWAP1 POP JUMP JUMPDEST PUSH0 DUP3 PUSH1 0x1F DUP4 ADD SLT PUSH2 0xBF8C JUMPI PUSH0 DUP1 REVERT JUMPDEST DUP2 CALLDATALOAD PUSH2 0xBF9A PUSH2 0xB4B1 DUP3 PUSH2 0xB472 JUMP JUMPDEST DUP1 DUP3 DUP3 MSTORE PUSH1 0x20 DUP3 ADD SWAP2 POP PUSH1 0x20 DUP4 PUSH1 0x5 SHL DUP7 ADD ADD SWAP3 POP DUP6 DUP4 GT ISZERO PUSH2 0xBFBB JUMPI PUSH0 DUP1 REVERT JUMPDEST PUSH1 0x20 DUP6 ADD JUMPDEST DUP4 DUP2 LT ISZERO PUSH2 0xA7CA JUMPI DUP1 CALLDATALOAD PUSH1 0x1 PUSH1 0x1 PUSH1 0x40 SHL SUB DUP2 GT ISZERO PUSH2 0xBFDD JUMPI PUSH0 DUP1 REVERT JUMPDEST DUP7 ADD PUSH1 0x40 DUP2 DUP10 SUB PUSH1 0x1F NOT ADD SLT ISZERO PUSH2 0xBFF2 JUMPI PUSH0 DUP1 REVERT JUMPDEST PUSH2 0xBFFA PUSH2 0xB205 JUMP JUMPDEST PUSH1 0x20 DUP3 ADD CALLDATALOAD PUSH1 0x1 PUSH1 0x1 PUSH1 0x40 SHL SUB DUP2 GT ISZERO PUSH2 0xC012 JUMPI PUSH0 DUP1 REVERT JUMPDEST PUSH2 0xC021 DUP11 PUSH1 0x20 DUP4 DUP7 ADD ADD PUSH2 0xB29C JUMP JUMPDEST DUP3 MSTORE POP PUSH1 0x40 DUP3 ADD CALLDATALOAD PUSH1 0x1 PUSH1 0x1 PUSH1 0x40 SHL SUB DUP2 GT ISZERO PUSH2 0xC03C JUMPI PUSH0 DUP1 REVERT JUMPDEST PUSH2 0xC04B DUP11 PUSH1 0x20 DUP4 DUP7 ADD ADD PUSH2 0xB29C JUMP JUMPDEST PUSH1 0x20 DUP4 ADD MSTORE POP DUP1 DUP6 MSTORE POP POP PUSH1 0x20 DUP4 ADD SWAP3 POP PUSH1 0x20 DUP2 ADD SWAP1 POP PUSH2 0xBFC0 JUMP JUMPDEST PUSH0 DUP1 PUSH1 0x40 DUP4 DUP6 SUB SLT ISZERO PUSH2 0xC078 JUMPI PUSH0 DUP1 REVERT JUMPDEST DUP3 CALLDATALOAD SWAP2 POP PUSH1 0x20 DUP4 ADD CALLDATALOAD PUSH1 0x1 PUSH1 0x1 PUSH1 0x40 SHL SUB DUP2 GT ISZERO PUSH2 0xC094 JUMPI PUSH0 DUP1 REVERT JUMPDEST PUSH2 0xB96B DUP6 DUP3 DUP7 ADD PUSH2 0xBF7D JUMP JUMPDEST DUP3 DUP2 MSTORE PUSH1 0xC0 DUP2 ADD PUSH2 0x6E59 PUSH1 0x20 DUP4 ADD DUP5 PUSH2 0xB004 JUMP JUMPDEST PUSH0 PUSH1 0x20 DUP3 ADD PUSH1 0x20 DUP4 MSTORE DUP1 DUP5 MLOAD DUP1 DUP4 MSTORE PUSH1 0x40 DUP6 ADD SWAP2 POP PUSH1 0x40 DUP2 PUSH1 0x5 SHL DUP7 ADD ADD SWAP3 POP PUSH1 0x20 DUP7 ADD PUSH0 JUMPDEST DUP3 DUP2 LT ISZERO PUSH2 0xC10B JUMPI PUSH1 0x3F NOT DUP8 DUP7 SUB ADD DUP5 MSTORE PUSH2 0xC0F6 DUP6 DUP4 MLOAD PUSH2 0xB3D2 JUMP JUMPDEST SWAP5 POP PUSH1 0x20 SWAP4 DUP5 ADD SWAP4 SWAP2 SWAP1 SWAP2 ADD SWAP1 PUSH1 0x1 ADD PUSH2 0xC0DA JUMP JUMPDEST POP SWAP3 SWAP7 SWAP6 POP POP POP POP POP POP JUMP JUMPDEST DUP4 DUP2 MSTORE PUSH1 0x60 PUSH1 0x20 DUP3 ADD MSTORE PUSH0 PUSH2 0xC12F PUSH1 0x60 DUP4 ADD DUP6 PUSH2 0xB06F JUMP JUMPDEST DUP3 DUP2 SUB PUSH1 0x40 DUP5 ADD MSTORE PUSH2 0xC141 DUP2 DUP6 PUSH2 0xB06F JUMP JUMPDEST SWAP7 SWAP6 POP POP POP POP POP POP JUMP JUMPDEST PUSH0 PUSH1 0x20 DUP3 DUP5 SUB SLT ISZERO PUSH2 0xC15B JUMPI PUSH0 DUP1 REVERT JUMPDEST DUP2 CALLDATALOAD PUSH1 0x1 PUSH1 0x1 PUSH1 0x40 SHL SUB DUP2 GT ISZERO PUSH2 0xC170 JUMPI PUSH0 DUP1 REVERT JUMPDEST PUSH2 0xB33E DUP5 DUP3 DUP6 ADD PUSH2 0xBF7D JUMP JUMPDEST PUSH0 DUP2 MLOAD DUP1 DUP5 MSTORE PUSH1 0x20 DUP5 ADD SWAP4 POP PUSH1 0x20 DUP4 ADD PUSH0 JUMPDEST DUP3 DUP2 LT ISZERO PUSH2 0xB56E JUMPI DUP2 MLOAD PUSH1 0x1 PUSH1 0x1 PUSH1 0xA0 SHL SUB AND DUP7 MSTORE PUSH1 0x20 SWAP6 DUP7 ADD SWAP6 SWAP1 SWAP2 ADD SWAP1 PUSH1 0x1 ADD PUSH2 0xC18E JUMP JUMPDEST PUSH1 0x20 DUP2 MSTORE PUSH0 PUSH2 0x6E59 PUSH1 0x20 DUP4 ADD DUP5 PUSH2 0xC17C JUMP JUMPDEST PUSH0 PUSH1 0x20 DUP3 DUP5 SUB SLT ISZERO PUSH2 0xC1D7 JUMPI PUSH0 DUP1 REVERT JUMPDEST DUP2 CALLDATALOAD PUSH1 0x1 PUSH1 0x1 PUSH1 0x40 SHL SUB DUP2 GT ISZERO PUSH2 0xC1EC JUMPI PUSH0 DUP1 REVERT JUMPDEST DUP3 ADD PUSH1 0x1F DUP2 ADD DUP5 SGT PUSH2 0xC1FC JUMPI PUSH0 DUP1 REVERT JUMPDEST DUP1 CALLDATALOAD PUSH2 0xC20A PUSH2 0xB4B1 DUP3 PUSH2 0xB472 JUMP JUMPDEST DUP1 DUP3 DUP3 MSTORE PUSH1 0x20 DUP3 ADD SWAP2 POP PUSH1 0x20 DUP4 PUSH1 0x5 SHL DUP6 ADD ADD SWAP3 POP DUP7 DUP4 GT ISZERO PUSH2 0xC22B JUMPI PUSH0 DUP1 REVERT JUMPDEST PUSH1 0x20 DUP5 ADD JUMPDEST DUP4 DUP2 LT ISZERO PUSH2 0xC2DA JUMPI DUP1 CALLDATALOAD PUSH1 0x1 PUSH1 0x1 PUSH1 0x40 SHL SUB DUP2 GT ISZERO PUSH2 0xC24D JUMPI PUSH0 DUP1 REVERT JUMPDEST DUP6 ADD PUSH1 0x60 DUP2 DUP11 SUB PUSH1 0x1F NOT ADD SLT ISZERO PUSH2 0xC262 JUMPI PUSH0 DUP1 REVERT JUMPDEST PUSH2 0xC26A PUSH2 0xB1E3 JUMP JUMPDEST PUSH1 0x20 DUP3 ADD CALLDATALOAD DUP2 MSTORE PUSH1 0x40 DUP3 ADD CALLDATALOAD PUSH1 0x1 PUSH1 0x1 PUSH1 0x40 SHL SUB DUP2 GT ISZERO PUSH2 0xC289 JUMPI PUSH0 DUP1 REVERT JUMPDEST PUSH2 0xC298 DUP12 PUSH1 0x20 DUP4 DUP7 ADD ADD PUSH2 0xB29C JUMP JUMPDEST PUSH1 0x20 DUP4 ADD MSTORE POP PUSH1 0x60 DUP3 ADD CALLDATALOAD PUSH1 0x1 PUSH1 0x1 PUSH1 0x40 SHL SUB DUP2 GT ISZERO PUSH2 0xC2B6 JUMPI PUSH0 DUP1 REVERT JUMPDEST PUSH2 0xC2C5 DUP12 PUSH1 0x20 DUP4 DUP7 ADD ADD PUSH2 0xB29C JUMP JUMPDEST PUSH1 0x40 DUP4 ADD MSTORE POP DUP5 MSTORE POP PUSH1 0x20 SWAP3 DUP4 ADD SWAP3 ADD PUSH2 0xC230 JUMP JUMPDEST POP SWAP7 SWAP6 POP POP POP POP POP POP JUMP JUMPDEST PUSH0 DUP1 PUSH1 0x40 DUP4 DUP6 SUB SLT ISZERO PUSH2 0xC2F6 JUMPI PUSH0 DUP1 REVERT JUMPDEST DUP3 CALLDATALOAD SWAP2 POP PUSH1 0x20 DUP4 ADD CALLDATALOAD PUSH1 0x1 PUSH1 0x1 PUSH1 0x40 SHL SUB DUP2 GT ISZERO PUSH2 0xC312 JUMPI PUSH0 DUP1 REVERT JUMPDEST PUSH2 0xB96B DUP6 DUP3 DUP7 ADD PUSH2 0xB494 JUMP JUMPDEST PUSH1 0x20 DUP2 MSTORE PUSH0 PUSH2 0x6E59 PUSH1 0x20 DUP4 ADD DUP5 PUSH2 0xB53E JUMP JUMPDEST PUSH0 DUP2 MLOAD DUP1 DUP5 MSTORE PUSH1 0x20 DUP5 ADD SWAP4 POP PUSH1 0x20 DUP4 ADD PUSH0 JUMPDEST DUP3 DUP2 LT ISZERO PUSH2 0xB56E JUMPI DUP2 MLOAD DUP1 MLOAD DUP8 MSTORE PUSH1 0x20 DUP1 DUP3 ADD MLOAD PUSH1 0x1 PUSH1 0x1 PUSH1 0xA0 SHL SUB AND DUP2 DUP10 ADD MSTORE PUSH1 0x40 DUP1 DUP4 ADD MLOAD SWAP1 DUP10 ADD MSTORE PUSH1 0x60 SWAP2 DUP3 ADD MLOAD SWAP2 DUP9 ADD SWAP2 SWAP1 SWAP2 MSTORE PUSH1 0x80 SWAP1 SWAP7 ADD SWAP6 SWAP1 SWAP2 ADD SWAP1 PUSH1 0x1 ADD PUSH2 0xC342 JUMP JUMPDEST PUSH1 0xC0 DUP2 MSTORE PUSH0 PUSH2 0xC39E PUSH1 0xC0 DUP4 ADD DUP10 PUSH2 0xB128 JUMP JUMPDEST DUP3 DUP2 SUB PUSH1 0x20 DUP5 ADD MSTORE PUSH2 0xC3B0 DUP2 DUP10 PUSH2 0xC330 JUMP JUMPDEST SWAP1 POP DUP3 DUP2 SUB PUSH1 0x40 DUP5 ADD MSTORE PUSH2 0xC3C4 DUP2 DUP9 PUSH2 0xB412 JUMP JUMPDEST SWAP1 POP DUP3 DUP2 SUB PUSH1 0x60 DUP5 ADD MSTORE PUSH2 0xC3D8 DUP2 DUP8 PUSH2 0xB53E JUMP JUMPDEST SWAP1 POP DUP3 DUP2 SUB PUSH1 0x80 DUP5 ADD MSTORE PUSH2 0xC3EC DUP2 DUP7 PUSH2 0xB53E JUMP JUMPDEST SWAP1 POP DUP3 DUP2 SUB PUSH1 0xA0 DUP5 ADD MSTORE PUSH2 0xC400 DUP2 DUP6 PUSH2 0xB53E JUMP JUMPDEST SWAP10 SWAP9 POP POP POP POP POP POP POP POP POP JUMP JUMPDEST PUSH0 PUSH1 0x20 DUP3 ADD PUSH1 0x20 DUP4 MSTORE DUP1 DUP5 MLOAD DUP1 DUP4 MSTORE PUSH1 0x40 DUP6 ADD SWAP2 POP PUSH1 0x40 DUP2 PUSH1 0x5 SHL DUP7 ADD ADD SWAP3 POP PUSH1 0x20 DUP7 ADD PUSH0 JUMPDEST DUP3 DUP2 LT ISZERO PUSH2 0xC10B JUMPI PUSH1 0x3F NOT DUP8 DUP7 SUB ADD DUP5 MSTORE PUSH2 0xC44F DUP6 DUP4 MLOAD PUSH2 0xB79D JUMP JUMPDEST SWAP5 POP PUSH1 0x20 SWAP4 DUP5 ADD SWAP4 SWAP2 SWAP1 SWAP2 ADD SWAP1 PUSH1 0x1 ADD PUSH2 0xC433 JUMP JUMPDEST PUSH1 0x20 DUP2 MSTORE PUSH0 PUSH2 0x6E59 PUSH1 0x20 DUP4 ADD DUP5 PUSH2 0xB7DB JUMP JUMPDEST PUSH1 0x20 DUP2 MSTORE PUSH0 PUSH2 0x6E59 PUSH1 0x20 DUP4 ADD DUP5 PUSH2 0xC330 JUMP JUMPDEST PUSH1 0x20 DUP2 MSTORE PUSH0 PUSH2 0x6E59 PUSH1 0x20 DUP4 ADD DUP5 PUSH2 0xB578 JUMP JUMPDEST PUSH0 DUP1 PUSH0 PUSH1 0x60 DUP5 DUP7 SUB SLT ISZERO PUSH2 0xC4AC JUMPI PUSH0 DUP1 REVERT JUMPDEST DUP4 CALLDATALOAD SWAP3 POP PUSH1 0x20 DUP5 ADD CALLDATALOAD PUSH1 0x1 PUSH1 0x1 PUSH1 0x40 SHL SUB DUP2 GT ISZERO PUSH2 0xC4C8 JUMPI PUSH0 DUP1 REVERT JUMPDEST PUSH2 0xC4D4 DUP7 DUP3 DUP8 ADD PUSH2 0xB29C JUMP JUMPDEST SWAP3 POP POP PUSH1 0x40 DUP5 ADD CALLDATALOAD PUSH1 0x1 PUSH1 0x1 PUSH1 0x40 SHL SUB DUP2 GT ISZERO PUSH2 0xC4EF JUMPI PUSH0 DUP1 REVERT JUMPDEST PUSH2 0xC4FB DUP7 DUP3 DUP8 ADD PUSH2 0xB29C JUMP JUMPDEST SWAP2 POP POP SWAP3 POP SWAP3 POP SWAP3 JUMP JUMPDEST PUSH1 0x2 DUP2 LT PUSH2 0xAD0C JUMPI PUSH0 DUP1 REVERT JUMPDEST DUP1 CALLDATALOAD PUSH2 0x3433 DUP2 PUSH2 0xC505 JUMP JUMPDEST PUSH0 DUP1 PUSH0 DUP1 PUSH1 0x80 DUP6 DUP8 SUB SLT ISZERO PUSH2 0xC52F JUMPI PUSH0 DUP1 REVERT JUMPDEST DUP5 CALLDATALOAD SWAP4 POP PUSH1 0x20 DUP6 ADD CALLDATALOAD PUSH2 0xC541 DUP2 PUSH2 0xC505 JUMP JUMPDEST SWAP3 POP PUSH1 0x40 DUP6 ADD CALLDATALOAD PUSH1 0x1 PUSH1 0x1 PUSH1 0x40 SHL SUB DUP2 GT ISZERO PUSH2 0xC55B JUMPI PUSH0 DUP1 REVERT JUMPDEST PUSH2 0xC567 DUP8 DUP3 DUP9 ADD PUSH2 0xB29C JUMP JUMPDEST SWAP3 POP POP PUSH1 0x60 DUP6 ADD CALLDATALOAD PUSH1 0x1 PUSH1 0x1 PUSH1 0x40 SHL SUB DUP2 GT ISZERO PUSH2 0xC582 JUMPI PUSH0 DUP1 REVERT JUMPDEST PUSH2 0xC58E DUP8 DUP3 DUP9 ADD PUSH2 0xB29C JUMP JUMPDEST SWAP2 POP POP SWAP3 SWAP6 SWAP2 SWAP5 POP SWAP3 POP JUMP JUMPDEST PUSH0 DUP1 PUSH0 PUSH1 0x60 DUP5 DUP7 SUB SLT ISZERO PUSH2 0xC5AC JUMPI PUSH0 DUP1 REVERT JUMPDEST DUP4 CALLDATALOAD SWAP3 POP PUSH1 0x20 DUP5 ADD CALLDATALOAD PUSH1 0x1 PUSH1 0x1 PUSH1 0x40 SHL SUB DUP2 GT ISZERO PUSH2 0xC5C8 JUMPI PUSH0 DUP1 REVERT JUMPDEST PUSH2 0xC5D4 DUP7 DUP3 DUP8 ADD PUSH2 0xBA48 JUMP JUMPDEST SWAP3 POP POP PUSH1 0x40 DUP5 ADD CALLDATALOAD PUSH1 0x1 PUSH1 0x1 PUSH1 0x40 SHL SUB DUP2 GT ISZERO PUSH2 0xC5EF JUMPI PUSH0 DUP1 REVERT JUMPDEST PUSH2 0xC4FB DUP7 DUP3 DUP8 ADD PUSH2 0xBD15 JUMP JUMPDEST PUSH0 DUP1 PUSH1 0x40 DUP4 DUP6 SUB SLT ISZERO PUSH2 0xC60C JUMPI PUSH0 DUP1 REVERT JUMPDEST DUP3 CALLDATALOAD PUSH1 0x1 PUSH1 0x1 PUSH1 0x40 SHL SUB DUP2 GT ISZERO PUSH2 0xC621 JUMPI PUSH0 DUP1 REVERT JUMPDEST PUSH2 0xC62D DUP6 DUP3 DUP7 ADD PUSH2 0xB29C JUMP JUMPDEST SWAP3 POP POP PUSH1 0x20 DUP4 ADD CALLDATALOAD PUSH1 0x1 PUSH1 0x1 PUSH1 0x40 SHL SUB DUP2 GT ISZERO PUSH2 0xB95F JUMPI PUSH0 DUP1 REVERT JUMPDEST PUSH1 0x20 DUP2 MSTORE PUSH0 PUSH2 0x6E59 PUSH1 0x20 DUP4 ADD DUP5 PUSH2 0xB79D JUMP JUMPDEST PUSH0 PUSH1 0x20 DUP3 DUP5 SUB SLT ISZERO PUSH2 0xC66A JUMPI PUSH0 DUP1 REVERT JUMPDEST DUP2 CALLDATALOAD PUSH1 0x1 PUSH1 0x1 PUSH1 0x40 SHL SUB DUP2 GT ISZERO PUSH2 0xC67F JUMPI PUSH0 DUP1 REVERT JUMPDEST DUP3 ADD PUSH1 0x1F DUP2 ADD DUP5 SGT PUSH2 0xC68F JUMPI PUSH0 DUP1 REVERT JUMPDEST DUP1 CALLDATALOAD PUSH2 0xC69D PUSH2 0xB4B1 DUP3 PUSH2 0xB472 JUMP JUMPDEST DUP1 DUP3 DUP3 MSTORE PUSH1 0x20 DUP3 ADD SWAP2 POP PUSH1 0x20 DUP4 PUSH1 0x5 SHL DUP6 ADD ADD SWAP3 POP DUP7 DUP4 GT ISZERO PUSH2 0xC6BE JUMPI PUSH0 DUP1 REVERT JUMPDEST PUSH1 0x20 DUP5 ADD JUMPDEST DUP4 DUP2 LT ISZERO PUSH2 0xC2DA JUMPI DUP1 CALLDATALOAD PUSH1 0x1 PUSH1 0x1 PUSH1 0x40 SHL SUB DUP2 GT ISZERO PUSH2 0xC6E0 JUMPI PUSH0 DUP1 REVERT JUMPDEST DUP6 ADD PUSH1 0x40 DUP2 DUP11 SUB PUSH1 0x1F NOT ADD SLT ISZERO PUSH2 0xC6F5 JUMPI PUSH0 DUP1 REVERT JUMPDEST PUSH2 0xC6FD PUSH2 0xB205 JUMP JUMPDEST PUSH1 0x20 DUP3 ADD CALLDATALOAD DUP2 MSTORE PUSH1 0x40 DUP3 ADD CALLDATALOAD PUSH1 0x1 PUSH1 0x1 PUSH1 0x40 SHL SUB DUP2 GT ISZERO PUSH2 0xC71C JUMPI PUSH0 DUP1 REVERT JUMPDEST PUSH2 0xC72B DUP12 PUSH1 0x20 DUP4 DUP7 ADD ADD PUSH2 0xB29C JUMP JUMPDEST PUSH1 0x20 DUP4 ADD MSTORE POP DUP1 DUP6 MSTORE POP POP PUSH1 0x20 DUP4 ADD SWAP3 POP PUSH1 0x20 DUP2 ADD SWAP1 POP PUSH2 0xC6C3 JUMP JUMPDEST DUP9 DUP2 MSTORE PUSH1 0x1 PUSH1 0x1 PUSH1 0xA0 SHL SUB DUP9 AND PUSH1 0x20 DUP3 ADD MSTORE PUSH2 0x100 PUSH1 0x40 DUP3 ADD DUP2 SWAP1 MSTORE PUSH0 SWAP1 PUSH2 0xC771 SWAP1 DUP4 ADD DUP10 PUSH2 0xB06F JUMP JUMPDEST DUP3 DUP2 SUB PUSH1 0x60 DUP5 ADD MSTORE PUSH2 0xC783 DUP2 DUP10 PUSH2 0xB06F JUMP JUMPDEST SWAP2 POP POP PUSH1 0xFF DUP7 AND PUSH1 0x80 DUP4 ADD MSTORE DUP5 PUSH1 0xA0 DUP4 ADD MSTORE DUP4 PUSH1 0xC0 DUP4 ADD MSTORE DUP3 PUSH1 0xE0 DUP4 ADD MSTORE SWAP10 SWAP9 POP POP POP POP POP POP POP POP POP JUMP JUMPDEST PUSH0 DUP1 PUSH1 0x40 DUP4 DUP6 SUB SLT ISZERO PUSH2 0xC7BF JUMPI PUSH0 DUP1 REVERT JUMPDEST DUP3 CALLDATALOAD SWAP2 POP PUSH1 0x20 DUP4 ADD CALLDATALOAD PUSH1 0x1 PUSH1 0x1 PUSH1 0x40 SHL SUB DUP2 GT ISZERO PUSH2 0xC7DB JUMPI PUSH0 DUP1 REVERT JUMPDEST PUSH2 0xB96B DUP6 DUP3 DUP7 ADD PUSH2 0xB9B2 JUMP JUMPDEST PUSH0 DUP1 PUSH1 0x40 DUP4 DUP6 SUB SLT ISZERO PUSH2 0xC7F8 JUMPI PUSH0 DUP1 REVERT JUMPDEST DUP3 CALLDATALOAD SWAP2 POP PUSH1 0x20 DUP4 ADD CALLDATALOAD PUSH1 0x1 PUSH1 0x1 PUSH1 0x40 SHL SUB DUP2 GT ISZERO PUSH2 0xC814 JUMPI PUSH0 DUP1 REVERT JUMPDEST DUP4 ADD PUSH1 0x1F DUP2 ADD DUP6 SGT PUSH2 0xC824 JUMPI PUSH0 DUP1 REVERT JUMPDEST DUP1 CALLDATALOAD PUSH2 0xC832 PUSH2 0xB4B1 DUP3 PUSH2 0xB472 JUMP JUMPDEST DUP1 DUP3 DUP3 MSTORE PUSH1 0x20 DUP3 ADD SWAP2 POP PUSH1 0x20 DUP4 PUSH1 0x5 SHL DUP6 ADD ADD SWAP3 POP DUP8 DUP4 GT ISZERO PUSH2 0xC853 JUMPI PUSH0 DUP1 REVERT JUMPDEST PUSH1 0x20 DUP5 ADD JUMPDEST DUP4 DUP2 LT ISZERO PUSH2 0xC916 JUMPI DUP1 CALLDATALOAD PUSH1 0x1 PUSH1 0x1 PUSH1 0x40 SHL SUB DUP2 GT ISZERO PUSH2 0xC875 JUMPI PUSH0 DUP1 REVERT JUMPDEST DUP6 ADD PUSH1 0x80 DUP2 DUP12 SUB PUSH1 0x1F NOT ADD SLT ISZERO PUSH2 0xC88A JUMPI PUSH0 DUP1 REVERT JUMPDEST PUSH2 0xC892 PUSH2 0xB227 JUMP JUMPDEST PUSH1 0x20 DUP3 ADD CALLDATALOAD PUSH2 0xC8A0 DUP2 PUSH2 0xC505 JUMP JUMPDEST DUP2 MSTORE PUSH1 0x40 DUP3 ADD CALLDATALOAD PUSH1 0x1 PUSH1 0x1 PUSH1 0x40 SHL SUB DUP2 GT ISZERO PUSH2 0xC8BA JUMPI PUSH0 DUP1 REVERT JUMPDEST PUSH2 0xC8C9 DUP13 PUSH1 0x20 DUP4 DUP7 ADD ADD PUSH2 0xB29C JUMP JUMPDEST PUSH1 0x20 DUP4 ADD MSTORE POP PUSH1 0x60 DUP3 ADD CALLDATALOAD PUSH1 0x1 PUSH1 0x1 PUSH1 0x40 SHL SUB DUP2 GT ISZERO PUSH2 0xC8E7 JUMPI PUSH0 DUP1 REVERT JUMPDEST PUSH2 0xC8F6 DUP13 PUSH1 0x20 DUP4 DUP7 ADD ADD PUSH2 0xB29C JUMP JUMPDEST PUSH1 0x40 DUP4 ADD MSTORE POP PUSH1 0x80 SWAP2 SWAP1 SWAP2 ADD CALLDATALOAD PUSH1 0x60 DUP3 ADD MSTORE DUP4 MSTORE PUSH1 0x20 SWAP3 DUP4 ADD SWAP3 ADD PUSH2 0xC858 JUMP JUMPDEST POP DUP1 SWAP5 POP POP POP POP POP SWAP3 POP SWAP3 SWAP1 POP JUMP JUMPDEST PUSH1 0x20 DUP2 MSTORE PUSH0 PUSH2 0x6E59 PUSH1 0x20 DUP4 ADD DUP5 PUSH2 0xB3D2 JUMP JUMPDEST DUP1 CALLDATALOAD PUSH1 0x3 DUP2 LT PUSH2 0x3433 JUMPI PUSH0 DUP1 REVERT JUMPDEST PUSH0 PUSH1 0x20 DUP3 DUP5 SUB SLT ISZERO PUSH2 0xC955 JUMPI PUSH0 DUP1 REVERT JUMPDEST DUP2 CALLDATALOAD PUSH1 0x1 PUSH1 0x1 PUSH1 0x40 SHL SUB DUP2 GT ISZERO PUSH2 0xC96A JUMPI PUSH0 DUP1 REVERT JUMPDEST DUP3 ADD PUSH2 0x140 DUP2 DUP6 SUB SLT ISZERO PUSH2 0xC97C JUMPI PUSH0 DUP1 REVERT JUMPDEST PUSH2 0xC984 PUSH2 0xB249 JUMP JUMPDEST PUSH2 0xC98D DUP3 PUSH2 0xC937 JUMP JUMPDEST DUP2 MSTORE PUSH2 0xC99B PUSH1 0x20 DUP4 ADD PUSH2 0xC511 JUMP JUMPDEST PUSH1 0x20 DUP3 ADD MSTORE PUSH2 0xC9AC PUSH1 0x40 DUP4 ADD PUSH2 0xC511 JUMP JUMPDEST PUSH1 0x40 DUP3 ADD MSTORE PUSH2 0xC9BD PUSH1 0x60 DUP4 ADD PUSH2 0xC937 JUMP JUMPDEST PUSH1 0x60 DUP3 ADD MSTORE PUSH2 0xC9CE PUSH1 0x80 DUP4 ADD PUSH2 0xB346 JUMP JUMPDEST PUSH1 0x80 DUP3 ADD MSTORE PUSH1 0xA0 DUP3 ADD CALLDATALOAD PUSH1 0x1 PUSH1 0x1 PUSH1 0x40 SHL SUB DUP2 GT ISZERO PUSH2 0xC9EB JUMPI PUSH0 DUP1 REVERT JUMPDEST PUSH2 0xC9F7 DUP7 DUP3 DUP6 ADD PUSH2 0xB29C JUMP JUMPDEST PUSH1 0xA0 DUP4 ADD MSTORE POP PUSH1 0xC0 DUP3 DUP2 ADD CALLDATALOAD SWAP1 DUP3 ADD MSTORE PUSH1 0xE0 DUP1 DUP4 ADD CALLDATALOAD SWAP1 DUP3 ADD MSTORE PUSH2 0x100 DUP1 DUP4 ADD CALLDATALOAD SWAP1 DUP3 ADD MSTORE PUSH2 0x120 SWAP2 DUP3 ADD CALLDATALOAD SWAP2 DUP2 ADD SWAP2 SWAP1 SWAP2 MSTORE SWAP4 SWAP3 POP POP POP JUMP JUMPDEST PUSH1 0x40 DUP2 MSTORE PUSH0 PUSH2 0xCA43 PUSH1 0x40 DUP4 ADD DUP6 PUSH2 0xB8A3 JUMP JUMPDEST SWAP1 POP DUP3 ISZERO ISZERO PUSH1 0x20 DUP4 ADD MSTORE SWAP4 SWAP3 POP POP POP JUMP JUMPDEST PUSH4 0x4E487B71 PUSH1 0xE0 SHL PUSH0 MSTORE PUSH1 0x32 PUSH1 0x4 MSTORE PUSH1 0x24 PUSH0 REVERT JUMPDEST PUSH1 0x1 DUP2 DUP2 SHR SWAP1 DUP3 AND DUP1 PUSH2 0xCA7C JUMPI PUSH1 0x7F DUP3 AND SWAP2 POP JUMPDEST PUSH1 0x20 DUP3 LT DUP2 SUB PUSH2 0x1224 JUMPI PUSH4 0x4E487B71 PUSH1 0xE0 SHL PUSH0 MSTORE PUSH1 0x22 PUSH1 0x4 MSTORE PUSH1 0x24 PUSH0 REVERT JUMPDEST PUSH1 0x20 DUP1 DUP3 MSTORE PUSH1 0x49 SWAP1 DUP3 ADD MSTORE PUSH0 DUP1 MLOAD PUSH1 0x20 PUSH2 0xD34B DUP4 CODECOPY DUP2 MLOAD SWAP2 MSTORE PUSH1 0x40 DUP3 ADD MSTORE PUSH32 0x223A2035352C20226D657373616765223A2022596F7520617265206E6F742061 PUSH1 0x60 DUP3 ADD MSTORE PUSH9 0x6C6C6F7765642E227D PUSH1 0xB8 SHL PUSH1 0x80 DUP3 ADD MSTORE PUSH1 0xA0 ADD SWAP1 JUMP JUMPDEST PUSH4 0x4E487B71 PUSH1 0xE0 SHL PUSH0 MSTORE PUSH1 0x11 PUSH1 0x4 MSTORE PUSH1 0x24 PUSH0 REVERT JUMPDEST DUP2 DUP2 SUB DUP2 DUP2 GT ISZERO PUSH2 0xE6B JUMPI PUSH2 0xE6B PUSH2 0xCAF6 JUMP JUMPDEST PUSH4 0x4E487B71 PUSH1 0xE0 SHL PUSH0 MSTORE PUSH1 0x31 PUSH1 0x4 MSTORE PUSH1 0x24 PUSH0 REVERT JUMPDEST DUP1 DUP3 ADD DUP1 DUP3 GT ISZERO PUSH2 0xE6B JUMPI PUSH2 0xE6B PUSH2 0xCAF6 JUMP JUMPDEST PUSH0 DUP2 MLOAD DUP1 PUSH1 0x20 DUP5 ADD DUP6 MCOPY PUSH0 SWAP4 ADD SWAP3 DUP4 MSTORE POP SWAP1 SWAP2 SWAP1 POP JUMP JUMPDEST PUSH27 0x1EC8999C9BDB488E88089158DBDB541C9BD91D58DD0B9CDBDB088B PUSH1 0x2A SHL DUP2 MSTORE PUSH8 0x1131B7B232911D1 PUSH1 0xC5 SHL PUSH1 0x1B DUP3 ADD MSTORE PUSH0 PUSH2 0xCB9B PUSH1 0x23 DUP4 ADD DUP6 PUSH2 0xCB44 JUMP JUMPDEST PUSH2 0x161 PUSH1 0xF5 SHL DUP2 MSTORE PUSH12 0x1136B2B9B9B0B3B2911D1011 PUSH1 0xA1 SHL PUSH1 0x2 DUP3 ADD MSTORE PUSH2 0xCBC5 PUSH1 0xE DUP3 ADD DUP6 PUSH2 0xCB44 JUMP JUMPDEST PUSH2 0x227D PUSH1 0xF0 SHL DUP2 MSTORE PUSH1 0x2 ADD SWAP6 SWAP5 POP POP POP POP POP JUMP JUMPDEST PUSH0 PUSH1 0x20 DUP3 DUP5 SUB SLT ISZERO PUSH2 0xCBE9 JUMPI PUSH0 DUP1 REVERT JUMPDEST DUP2 MLOAD PUSH2 0x6E59 DUP2 PUSH2 0xBA30 JUMP JUMPDEST PUSH0 PUSH1 0x1 DUP3 ADD PUSH2 0xCC05 JUMPI PUSH2 0xCC05 PUSH2 0xCAF6 JUMP JUMPDEST POP PUSH1 0x1 ADD SWAP1 JUMP JUMPDEST PUSH0 DUP3 PUSH2 0xCC26 JUMPI PUSH4 0x4E487B71 PUSH1 0xE0 SHL PUSH0 MSTORE PUSH1 0x12 PUSH1 0x4 MSTORE PUSH1 0x24 PUSH0 REVERT JUMPDEST POP DIV SWAP1 JUMP JUMPDEST DUP1 DUP3 MUL DUP2 ISZERO DUP3 DUP3 DIV DUP5 EQ OR PUSH2 0xE6B JUMPI PUSH2 0xE6B PUSH2 0xCAF6 JUMP JUMPDEST PUSH1 0x1F DUP3 GT ISZERO PUSH2 0x6056 JUMPI DUP1 PUSH0 MSTORE PUSH1 0x20 PUSH0 KECCAK256 PUSH1 0x1F DUP5 ADD PUSH1 0x5 SHR DUP2 ADD PUSH1 0x20 DUP6 LT ISZERO PUSH2 0xCC67 JUMPI POP DUP1 JUMPDEST PUSH1 0x1F DUP5 ADD PUSH1 0x5 SHR DUP3 ADD SWAP2 POP JUMPDEST DUP2 DUP2 LT ISZERO PUSH2 0xCC86 JUMPI PUSH0 DUP2 SSTORE PUSH1 0x1 ADD PUSH2 0xCC73 JUMP JUMPDEST POP POP POP POP POP JUMP JUMPDEST DUP2 MLOAD PUSH1 0x1 PUSH1 0x1 PUSH1 0x40 SHL SUB DUP2 GT ISZERO PUSH2 0xCCA6 JUMPI PUSH2 0xCCA6 PUSH2 0xB1A6 JUMP JUMPDEST PUSH2 0xCCBA DUP2 PUSH2 0xCCB4 DUP5 SLOAD PUSH2 0xCA68 JUMP JUMPDEST DUP5 PUSH2 0xCC42 JUMP JUMPDEST PUSH1 0x20 PUSH1 0x1F DUP3 GT PUSH1 0x1 DUP2 EQ PUSH2 0xCCEC JUMPI PUSH0 DUP4 ISZERO PUSH2 0xCCD5 JUMPI POP DUP5 DUP3 ADD MLOAD JUMPDEST PUSH0 NOT PUSH1 0x3 DUP6 SWAP1 SHL SHR NOT AND PUSH1 0x1 DUP5 SWAP1 SHL OR DUP5 SSTORE PUSH2 0xCC86 JUMP JUMPDEST PUSH0 DUP5 DUP2 MSTORE PUSH1 0x20 DUP2 KECCAK256 PUSH1 0x1F NOT DUP6 AND SWAP2 JUMPDEST DUP3 DUP2 LT ISZERO PUSH2 0xCD1B JUMPI DUP8 DUP6 ADD MLOAD DUP3 SSTORE PUSH1 0x20 SWAP5 DUP6 ADD SWAP5 PUSH1 0x1 SWAP1 SWAP3 ADD SWAP2 ADD PUSH2 0xCCFB JUMP JUMPDEST POP DUP5 DUP3 LT ISZERO PUSH2 0xCD38 JUMPI DUP7 DUP5 ADD MLOAD PUSH0 NOT PUSH1 0x3 DUP8 SWAP1 SHL PUSH1 0xF8 AND SHR NOT AND DUP2 SSTORE JUMPDEST POP POP POP POP PUSH1 0x1 SWAP1 DUP2 SHL ADD SWAP1 SSTORE POP JUMP JUMPDEST PUSH0 PUSH2 0x6E59 DUP3 DUP5 PUSH2 0xCB44 JUMP JUMPDEST DUP3 DUP2 MSTORE PUSH1 0x40 PUSH1 0x20 DUP3 ADD MSTORE PUSH0 PUSH2 0xB33E PUSH1 0x40 DUP4 ADD DUP5 PUSH2 0xB5C6 JUMP JUMPDEST PUSH1 0x20 DUP1 DUP3 MSTORE PUSH1 0x45 SWAP1 DUP3 ADD MSTORE PUSH0 DUP1 MLOAD PUSH1 0x20 PUSH2 0xD34B DUP4 CODECOPY DUP2 MLOAD SWAP2 MSTORE PUSH1 0x40 DUP3 ADD MSTORE PUSH32 0x223A2032392C20226D657373616765223A22436F6D6D656E74206E6F7420666F PUSH1 0x60 DUP3 ADD MSTORE PUSH5 0x756E64227D PUSH1 0xD8 SHL PUSH1 0x80 DUP3 ADD MSTORE PUSH1 0xA0 ADD SWAP1 JUMP JUMPDEST PUSH1 0x20 DUP1 DUP3 MSTORE PUSH1 0x58 SWAP1 DUP3 ADD MSTORE PUSH0 DUP1 MLOAD PUSH1 0x20 PUSH2 0xD34B DUP4 CODECOPY DUP2 MLOAD SWAP2 MSTORE PUSH1 0x40 DUP3 ADD MSTORE PUSH32 0x223A2035342C20226D657373616765223A2022526174652076616C7565206D75 PUSH1 0x60 DUP3 ADD MSTORE PUSH24 0x7374206265206265747765656E203120616E6420352E227D PUSH1 0x40 SHL PUSH1 0x80 DUP3 ADD MSTORE PUSH1 0xA0 ADD SWAP1 JUMP JUMPDEST PUSH1 0x20 DUP1 DUP3 MSTORE PUSH1 0x3E SWAP1 DUP3 ADD MSTORE PUSH0 DUP1 MLOAD PUSH1 0x20 PUSH2 0xD34B DUP4 CODECOPY DUP2 MLOAD SWAP2 MSTORE PUSH1 0x40 DUP3 ADD MSTORE PUSH32 0x223A2032382C20226D657373616765223A20224E6F74207261746564227D0000 PUSH1 0x60 DUP3 ADD MSTORE PUSH1 0x80 ADD SWAP1 JUMP JUMPDEST PUSH1 0x20 DUP1 DUP3 MSTORE PUSH1 0x47 SWAP1 DUP3 ADD MSTORE PUSH0 DUP1 MLOAD PUSH1 0x20 PUSH2 0xD34B DUP4 CODECOPY DUP2 MLOAD SWAP2 MSTORE PUSH1 0x40 DUP3 ADD MSTORE PUSH32 0x223A2035332C20226D657373616765223A2022596F7520617265206E6F742041 PUSH1 0x60 DUP3 ADD MSTORE PUSH7 0x444D494E2E227D PUSH1 0xC8 SHL PUSH1 0x80 DUP3 ADD MSTORE PUSH1 0xA0 ADD SWAP1 JUMP JUMPDEST PUSH0 PUSH1 0x20 DUP3 DUP5 SUB SLT ISZERO PUSH2 0xCEE1 JUMPI PUSH0 DUP1 REVERT JUMPDEST DUP2 MLOAD PUSH1 0x1 PUSH1 0x1 PUSH1 0x40 SHL SUB DUP2 GT ISZERO PUSH2 0xCEF6 JUMPI PUSH0 DUP1 REVERT JUMPDEST DUP3 ADD PUSH1 0x1F DUP2 ADD DUP5 SGT PUSH2 0xCF06 JUMPI PUSH0 DUP1 REVERT JUMPDEST DUP1 MLOAD PUSH2 0xCF14 PUSH2 0xB4B1 DUP3 PUSH2 0xB472 JUMP JUMPDEST DUP1 DUP3 DUP3 MSTORE PUSH1 0x20 DUP3 ADD SWAP2 POP PUSH1 0x20 DUP4 PUSH1 0x5 SHL DUP6 ADD ADD SWAP3 POP DUP7 DUP4 GT ISZERO PUSH2 0xCF35 JUMPI PUSH0 DUP1 REVERT JUMPDEST PUSH1 0x20 DUP5 ADD SWAP4 POP JUMPDEST DUP3 DUP5 LT ISZERO PUSH2 0xC141 JUMPI DUP4 MLOAD DUP3 MSTORE PUSH1 0x20 SWAP4 DUP5 ADD SWAP4 SWAP1 SWAP2 ADD SWAP1 PUSH2 0xCF3C JUMP JUMPDEST PUSH0 PUSH1 0xFF DUP3 AND PUSH1 0xFF DUP2 SUB PUSH2 0xCF6C JUMPI PUSH2 0xCF6C PUSH2 0xCAF6 JUMP JUMPDEST PUSH1 0x1 ADD SWAP3 SWAP2 POP POP JUMP JUMPDEST PUSH1 0x1 PUSH1 0x1 PUSH1 0xA0 SHL SUB SWAP5 DUP6 AND DUP2 MSTORE PUSH1 0x20 DUP2 ADD SWAP4 SWAP1 SWAP4 MSTORE SWAP3 AND PUSH1 0x40 DUP3 ADD MSTORE SWAP1 ISZERO ISZERO PUSH1 0x60 DUP3 ADD MSTORE PUSH1 0x80 ADD SWAP1 JUMP JUMPDEST PUSH1 0x20 DUP1 DUP3 MSTORE PUSH1 0x45 SWAP1 DUP3 ADD MSTORE PUSH0 DUP1 MLOAD PUSH1 0x20 PUSH2 0xD34B DUP4 CODECOPY DUP2 MLOAD SWAP2 MSTORE PUSH1 0x40 DUP3 ADD MSTORE PUSH32 0x223A20332C20226D657373616765223A202250726F64756374206E6F7420666F PUSH1 0x60 DUP3 ADD MSTORE PUSH5 0x756E64227D PUSH1 0xD8 SHL PUSH1 0x80 DUP3 ADD MSTORE PUSH1 0xA0 ADD SWAP1 JUMP JUMPDEST PUSH1 0x20 DUP1 DUP3 MSTORE PUSH1 0x41 SWAP1 DUP3 ADD MSTORE PUSH0 DUP1 MLOAD PUSH1 0x20 PUSH2 0xD34B DUP4 CODECOPY DUP2 MLOAD SWAP2 MSTORE PUSH1 0x40 DUP3 ADD MSTORE PUSH32 0x223A2033312C20226D657373616765223A22464151206E6F7420666F756E6422 PUSH1 0x60 DUP3 ADD MSTORE PUSH1 0x7D PUSH1 0xF8 SHL PUSH1 0x80 DUP3 ADD MSTORE PUSH1 0xA0 ADD SWAP1 JUMP JUMPDEST PUSH4 0x4E487B71 PUSH1 0xE0 SHL PUSH0 MSTORE PUSH1 0x21 PUSH1 0x4 MSTORE PUSH1 0x24 PUSH0 REVERT JUMPDEST PUSH27 0x437573746F6D657220466565646261636B20526563656976656421 PUSH1 0x28 SHL DUP2 MSTORE PUSH0 PUSH2 0x6E59 PUSH1 0x1B DUP4 ADD DUP5 PUSH2 0xCB44 JUMP JUMPDEST PUSH1 0x80 DUP2 MSTORE PUSH0 PUSH2 0xD0A0 PUSH1 0x80 DUP4 ADD DUP6 PUSH2 0xB06F JUMP JUMPDEST DUP3 DUP2 SUB DUP1 PUSH1 0x20 DUP6 ADD MSTORE PUSH1 0x54 DUP3 MSTORE PUSH32 0x596F75277665207265636569766564206E657720666565646261636B2061626F PUSH1 0x20 DUP4 ADD MSTORE PUSH32 0x757420796F75722070726F647563742120436865636B20637573746F6D657220 PUSH1 0x40 DUP4 ADD MSTORE PUSH20 0x19995959189858DAC8185B99081C995CDC1BDB99 PUSH1 0x62 SHL PUSH1 0x60 DUP4 ADD MSTORE PUSH1 0x80 DUP2 ADD PUSH1 0x40 DUP6 ADD MSTORE POP PUSH2 0xD12D PUSH1 0x80 DUP3 ADD DUP6 PUSH2 0xC17C JUMP JUMPDEST DUP4 DUP2 SUB PUSH1 0x60 SWAP1 SWAP5 ADD SWAP4 SWAP1 SWAP4 MSTORE POP POP PUSH1 0xD DUP2 MSTORE PUSH13 0x436F6D6D656E74557064617465 PUSH1 0x98 SHL PUSH1 0x20 DUP3 ADD MSTORE PUSH1 0x40 ADD SWAP3 SWAP2 POP POP JUMP JUMPDEST PUSH1 0x20 DUP1 DUP3 MSTORE PUSH1 0x45 SWAP1 DUP3 ADD MSTORE PUSH0 DUP1 MLOAD PUSH1 0x20 PUSH2 0xD34B DUP4 CODECOPY DUP2 MLOAD SWAP2 MSTORE PUSH1 0x40 DUP3 ADD MSTORE PUSH32 0x223A20322C20226D657373616765223A2243617465676F7279206E6F7420666F PUSH1 0x60 DUP3 ADD MSTORE PUSH5 0x756E64227D PUSH1 0xD8 SHL PUSH1 0x80 DUP3 ADD MSTORE PUSH1 0xA0 ADD SWAP1 JUMP JUMPDEST PUSH1 0x1 PUSH1 0x1 PUSH1 0xA0 SHL SUB DUP8 DUP2 AND DUP3 MSTORE PUSH1 0x20 DUP3 ADD DUP8 SWAP1 MSTORE PUSH1 0x40 DUP3 ADD DUP7 SWAP1 MSTORE DUP5 AND PUSH1 0x60 DUP3 ADD MSTORE PUSH1 0xC0 DUP2 ADD PUSH1 0x2 DUP5 LT PUSH2 0xD1F8 JUMPI PUSH4 0x4E487B71 PUSH1 0xE0 SHL PUSH0 MSTORE PUSH1 0x21 PUSH1 0x4 MSTORE PUSH1 0x24 PUSH0 REVERT JUMPDEST DUP4 PUSH1 0x80 DUP4 ADD MSTORE DUP3 ISZERO ISZERO PUSH1 0xA0 DUP4 ADD MSTORE SWAP8 SWAP7 POP POP POP POP POP POP POP JUMP JUMPDEST PUSH0 PUSH2 0xB409 PUSH2 0xD228 PUSH2 0xD222 DUP5 DUP9 PUSH2 0xCB44 JUMP JUMPDEST DUP7 PUSH2 0xCB44 JUMP JUMPDEST DUP5 PUSH2 0xCB44 JUMP JUMPDEST PUSH1 0xFF DUP2 DUP2 AND DUP4 DUP3 AND ADD SWAP1 DUP2 GT ISZERO PUSH2 0xE6B JUMPI PUSH2 0xE6B PUSH2 0xCAF6 JUMP INVALID SSTORE PUSH20 0x6572206973206E6F742074686520636F72726563 PUSH21 0x2072657461696C657220666F722074686973207072 PUSH16 0x64756374223A2032382C20226D657373 PUSH2 0x6765 0x22 GASPRICE KECCAK256 0x22 MSTORE PUSH2 0x7469 PUSH15 0x6720646F6573206E496E76616C6964 KECCAK256 PUSH23 0x6970507269636520616E64206D656D6265725072696365 PREVRANDAO PUSH22 0x706C69636174652076617269616E7420617474726962 PUSH22 0x74657320646574656374656450726F6475637420646F PUSH6 0x73206E6F7420 PUSH6 0x78697374206F PUSH19 0x2073746174757320697320617070726F766564 0x4F PUSH15 0x6C7920636F6E74726F6C6C6572206F PUSH19 0x2072657461696C65720000000000596F752061 PUSH19 0x65206E6F7420746869732070726F6475637420 PUSH19 0x657461696C65727B2266726F6D223A20224563 PUSH16 0x6D50726F647563742E736F6C222C2263 PUSH16 0x6465496E76616C696420726577617264 KECCAK256 PUSH2 0x6E64 KECCAK256 PUSH14 0x656D62657220707269636500A264 PUSH10 0x70667358221220E58F19 DUP2 PUSH21 0xB6B26247968C0BC9BB7063770A9E59139AA50DCDFC STOP SWAP7 PUSH21 0x78785864736F6C634300081A003300000000000000 "
		},
		"gasEstimates": {
			"creation": {
				"codeDepositCost": "10841600",
				"executionCost": "40027",
				"totalCost": "10881627"
			},
			"external": {
				"EcomInfo()": "3790",
				"EcomOrder()": "2756",
				"EcomUser()": "2998",
				"SetEcomInfo(address)": "infinite",
				"SetEcomOrder(address)": "infinite",
				"SetEcomUser(address)": "infinite",
				"adminAcceptProduct(uint256)": "infinite",
				"adminRejectProduct(uint256)": "infinite",
				"brands(uint256)": "infinite",
				"categories(uint256)": "6134",
				"categoryID()": "3636",
				"commentID()": "2778",
				"createCategory(string,string)": "infinite",
				"createComment(uint256,uint8,string,string)": "infinite",
				"createComments(uint256,(uint8,string,string,uint256)[])": "infinite",
				"createFAQPO5(string,string)": "infinite",
				"createFAQsPO5((string,string)[])": "infinite",
				"createFAQsProduct(uint256,(string,string)[])": "infinite",
				"createFavorite(uint256)": "infinite",
				"createFavorites(uint256[])": "infinite",
				"createProduct((string,uint256,string,uint256,uint256,uint256,uint256,uint256[],bytes[],uint256,uint256,bytes[],address,string,string,bool,bytes[],string,uint256,uint256,uint256,bool,bool,uint256),(bytes32,(bytes32,string,string)[],(uint256,uint256,uint256,uint256,uint256))[])": "infinite",
				"createRating(uint256,uint256)": "infinite",
				"createRatingForRetailer(uint256,uint256,uint256)": "infinite",
				"deleteCategory(uint256)": "infinite",
				"deleteComment(uint256,uint256)": "infinite",
				"deleteFAQPO5(uint256)": "infinite",
				"deleteFAQProduct(uint256,uint256)": "infinite",
				"deleteFavorite(uint256)": "infinite",
				"deleteFavorites(uint256[])": "infinite",
				"deleteProduct(uint256)": "infinite",
				"deleteRating(uint256,uint256)": "infinite",
				"editCategory(uint256,string,string)": "infinite",
				"editComment(uint256,string)": "infinite",
				"editComments((uint256,string)[])": "infinite",
				"editFAQPO5(uint256,string,string)": "infinite",
				"editFAQProducts((uint256,string,string)[])": "infinite",
				"editRating(uint256,uint256,uint256)": "infinite",
				"faqID()": "3680",
				"faqs(uint256)": "5606",
				"getAllComments(uint256)": "infinite",
				"getAllProductInfo()": "infinite",
				"getAllProductInfoPagination((uint8,uint8,uint8,uint8,address,string,uint256,uint256,uint256,uint256))": "infinite",
				"getAllRetailerProductInfo(address)": "infinite",
				"getAttributesByCategory(uint256)": "infinite",
				"getBrands()": "infinite",
				"getCategories()": "infinite",
				"getCategory(uint256)": "infinite",
				"getComment(uint256)": "infinite",
				"getErrorMessage(uint256,string)": "infinite",
				"getFavorite(uint256)": "2782",
				"getFavorites()": "infinite",
				"getFlashSaleProduct()": "infinite",
				"getPO5FAQ()": "infinite",
				"getProduct(uint256)": "infinite",
				"getProductDetails(uint256)": "infinite",
				"getProductFAQ(uint256)": "infinite",
				"getProductInfo(uint256)": "infinite",
				"getProductRate(uint256)": "infinite",
				"getProductReviewRate(uint256,uint256[])": "infinite",
				"getProducts()": "infinite",
				"getRetailerProduct(address)": "infinite",
				"getRetailersByProductIds(uint256[])": "infinite",
				"getUserFavorites(address)": "infinite",
				"getUserRate(uint256)": "6791",
				"getVariant(uint256,bytes32)": "infinite",
				"initiatePrductDemo(address,uint256)": "infinite",
				"mAttribute(bytes32)": "infinite",
				"mBrand(bytes)": "infinite",
				"mCategory(uint256)": "infinite",
				"mCategoryAttributes(uint256,uint256)": "6308",
				"mComment(uint256)": "infinite",
				"mCommentOfProduct(uint256,uint256)": "4702",
				"mFAQ(uint256)": "infinite",
				"mFavorite(address,uint256)": "3303",
				"mIsCorrectRetailer(address,uint256)": "3325",
				"mProduct(uint256)": "infinite",
				"mProductFAQ(uint256,uint256)": "4900",
				"mProductRate(uint256,uint256)": "6154",
				"mProductVariant(uint256,uint256)": "6022",
				"mRate(uint256)": "10457",
				"mRetailerProduct(address,uint256)": "5067",
				"mReviewRate(uint256,uint256)": "3608",
				"mUserFavorites(address,uint256)": "7754",
				"mUserRating(address,uint256)": "4879",
				"mVariant(uint256,bytes32)": "13960",
				"mVariantAttributes(uint256,bytes32,uint256)": "infinite",
				"owner()": "3481",
				"productID()": "4252",
				"products(uint256)": "5540",
				"ratingID()": "3746",
				"updateProduct(uint256,(string,uint256,string,uint256,uint256,uint256,uint256,uint256[],bytes[],uint256,uint256,bytes[],address,string,string,bool,bytes[],string,uint256,uint256,uint256,bool,bool,uint256),(bytes32,(bytes32,string,string)[],(uint256,uint256,uint256,uint256,uint256))[])": "infinite",
				"updateProductImages(uint256,bytes[])": "infinite",
				"updateProductQuantity(uint256,bytes32,uint256,uint256)": "infinite",
				"userConfirmedBuyThisProduct(address,uint256)": "4535"
			},
			"internal": {
				"_deleteProduct(uint256)": "infinite",
				"createFAQProduct(uint256,string memory,string memory)": "infinite",
				"editFAQProduct(uint256,string memory,string memory)": "infinite",
				"findMaxPrice(struct ProductInfo memory)": "infinite",
				"findMinPrice(struct ProductInfo memory)": "infinite",
				"hashAttributes(struct Attribute memory[] memory)": "infinite",
				"removeProductFromRetailer(address,uint256)": "infinite",
				"sortProductInfo(struct ProductInfo memory[] memory,bool,bool)": "infinite"
			}
		},
		"methodIdentifiers": {
			"EcomInfo()": "b814f77b",
			"EcomOrder()": "32f39436",
			"EcomUser()": "4d5c5fd7",
			"SetEcomInfo(address)": "8a8869e2",
			"SetEcomOrder(address)": "44089cd1",
			"SetEcomUser(address)": "cac0e650",
			"adminAcceptProduct(uint256)": "fec0ed1d",
			"adminRejectProduct(uint256)": "43b3f034",
			"brands(uint256)": "fdcb5732",
			"categories(uint256)": "c6cdbe5e",
			"categoryID()": "b28917fe",
			"commentID()": "423f65a9",
			"createCategory(string,string)": "b224b4e9",
			"createComment(uint256,uint8,string,string)": "9ff99d9f",
			"createComments(uint256,(uint8,string,string,uint256)[])": "ee4e9fff",
			"createFAQPO5(string,string)": "af8eb714",
			"createFAQsPO5((string,string)[])": "6353aa22",
			"createFAQsProduct(uint256,(string,string)[])": "4708ee10",
			"createFavorite(uint256)": "d738d8a2",
			"createFavorites(uint256[])": "11d2a079",
			"createProduct((string,uint256,string,uint256,uint256,uint256,uint256,uint256[],bytes[],uint256,uint256,bytes[],address,string,string,bool,bytes[],string,uint256,uint256,uint256,bool,bool,uint256),(bytes32,(bytes32,string,string)[],(uint256,uint256,uint256,uint256,uint256))[])": "2c89f03b",
			"createRating(uint256,uint256)": "d06fd39b",
			"createRatingForRetailer(uint256,uint256,uint256)": "9406a816",
			"deleteCategory(uint256)": "ceca737f",
			"deleteComment(uint256,uint256)": "31a4bcb5",
			"deleteFAQPO5(uint256)": "039dbd13",
			"deleteFAQProduct(uint256,uint256)": "4905a13d",
			"deleteFavorite(uint256)": "841392db",
			"deleteFavorites(uint256[])": "e7303fc0",
			"deleteProduct(uint256)": "ed90c7b7",
			"deleteRating(uint256,uint256)": "40342308",
			"editCategory(uint256,string,string)": "edd1de4d",
			"editComment(uint256,string)": "ad816029",
			"editComments((uint256,string)[])": "c33e39df",
			"editFAQPO5(uint256,string,string)": "9b5ace9e",
			"editFAQProducts((uint256,string,string)[])": "676174a7",
			"editRating(uint256,uint256,uint256)": "3de21ac6",
			"faqID()": "b570fd8e",
			"faqs(uint256)": "8248a724",
			"getAllComments(uint256)": "03926df9",
			"getAllProductInfo()": "5b315089",
			"getAllProductInfoPagination((uint8,uint8,uint8,uint8,address,string,uint256,uint256,uint256,uint256))": "f82ee41a",
			"getAllRetailerProductInfo(address)": "1c8028a2",
			"getAttributesByCategory(uint256)": "41d6aced",
			"getBrands()": "822d487d",
			"getCategories()": "4db0412c",
			"getCategory(uint256)": "f3052d26",
			"getComment(uint256)": "0800e300",
			"getErrorMessage(uint256,string)": "2248632a",
			"getFavorite(uint256)": "21937b46",
			"getFavorites()": "0fb5d9e9",
			"getFlashSaleProduct()": "d904d7c5",
			"getPO5FAQ()": "7608a27e",
			"getProduct(uint256)": "b9db15b4",
			"getProductDetails(uint256)": "6813b53b",
			"getProductFAQ(uint256)": "10c54da8",
			"getProductInfo(uint256)": "79a85e6c",
			"getProductRate(uint256)": "7cbd4183",
			"getProductReviewRate(uint256,uint256[])": "67ef5a9a",
			"getProducts()": "c29b2f20",
			"getRetailerProduct(address)": "6bb42046",
			"getRetailersByProductIds(uint256[])": "66573f61",
			"getUserFavorites(address)": "c7853148",
			"getUserRate(uint256)": "fe5ed5dd",
			"getVariant(uint256,bytes32)": "0041c629",
			"initiatePrductDemo(address,uint256)": "4b56436f",
			"mAttribute(bytes32)": "b5c3a9dc",
			"mBrand(bytes)": "0abba767",
			"mCategory(uint256)": "a6ed62cf",
			"mCategoryAttributes(uint256,uint256)": "cbb77380",
			"mComment(uint256)": "d4eb7bad",
			"mCommentOfProduct(uint256,uint256)": "06b32424",
			"mFAQ(uint256)": "8e5254a6",
			"mFavorite(address,uint256)": "5183d6f4",
			"mIsCorrectRetailer(address,uint256)": "562e2c35",
			"mProduct(uint256)": "28d2a1b6",
			"mProductFAQ(uint256,uint256)": "1db6d8c0",
			"mProductRate(uint256,uint256)": "bb58e29f",
			"mProductVariant(uint256,uint256)": "b3ed37b2",
			"mRate(uint256)": "c7691cf6",
			"mRetailerProduct(address,uint256)": "29058f09",
			"mReviewRate(uint256,uint256)": "891c95f9",
			"mUserFavorites(address,uint256)": "680921ae",
			"mUserRating(address,uint256)": "0ba69a47",
			"mVariant(uint256,bytes32)": "47c1701f",
			"mVariantAttributes(uint256,bytes32,uint256)": "633481e6",
			"owner()": "8da5cb5b",
			"productID()": "f9fb452f",
			"products(uint256)": "7acc0b20",
			"ratingID()": "b8eec5ff",
			"updateProduct(uint256,(string,uint256,string,uint256,uint256,uint256,uint256,uint256[],bytes[],uint256,uint256,bytes[],address,string,string,bool,bytes[],string,uint256,uint256,uint256,bool,bool,uint256),(bytes32,(bytes32,string,string)[],(uint256,uint256,uint256,uint256,uint256))[])": "a8f46830",
			"updateProductImages(uint256,bytes[])": "dee2412f",
			"updateProductQuantity(uint256,bytes32,uint256,uint256)": "1d068976",
			"userConfirmedBuyThisProduct(address,uint256)": "f497e49c"
		}
	},
	"abi": [
		{
			"inputs": [],
			"stateMutability": "payable",
			"type": "constructor"
		},
		{
			"anonymous": false,
			"inputs": [
				{
					"indexed": false,
					"internalType": "uint256",
					"name": "id",
					"type": "uint256"
				},
				{
					"indexed": false,
					"internalType": "string",
					"name": "name",
					"type": "string"
				},
				{
					"indexed": false,
					"internalType": "string",
					"name": "description",
					"type": "string"
				}
			],
			"name": "eCreateCategory",
			"type": "event"
		},
		{
			"anonymous": false,
			"inputs": [
				{
					"indexed": false,
					"internalType": "uint256",
					"name": "id",
					"type": "uint256"
				},
				{
					"components": [
						{
							"internalType": "string",
							"name": "name",
							"type": "string"
						},
						{
							"internalType": "uint256",
							"name": "categoryID",
							"type": "uint256"
						},
						{
							"internalType": "string",
							"name": "description",
							"type": "string"
						},
						{
							"internalType": "uint256",
							"name": "retailPrice",
							"type": "uint256"
						},
						{
							"internalType": "uint256",
							"name": "vipPrice",
							"type": "uint256"
						},
						{
							"internalType": "uint256",
							"name": "memberPrice",
							"type": "uint256"
						},
						{
							"internalType": "uint256",
							"name": "reward",
							"type": "uint256"
						},
						{
							"internalType": "uint256[]",
							"name": "capacity",
							"type": "uint256[]"
						},
						{
							"internalType": "bytes[]",
							"name": "size",
							"type": "bytes[]"
						},
						{
							"internalType": "uint256",
							"name": "quantity",
							"type": "uint256"
						},
						{
							"internalType": "uint256",
							"name": "shippingFee",
							"type": "uint256"
						},
						{
							"internalType": "bytes[]",
							"name": "color",
							"type": "bytes[]"
						},
						{
							"internalType": "address",
							"name": "retailer",
							"type": "address"
						},
						{
							"internalType": "string",
							"name": "brandName",
							"type": "string"
						},
						{
							"internalType": "string",
							"name": "warranty",
							"type": "string"
						},
						{
							"internalType": "bool",
							"name": "isFlashSale",
							"type": "bool"
						},
						{
							"internalType": "bytes[]",
							"name": "images",
							"type": "bytes[]"
						},
						{
							"internalType": "string",
							"name": "videoUrl",
							"type": "string"
						},
						{
							"internalType": "uint256",
							"name": "boostTime",
							"type": "uint256"
						},
						{
							"internalType": "uint256",
							"name": "expiryTime",
							"type": "uint256"
						},
						{
							"internalType": "uint256",
							"name": "activateTime",
							"type": "uint256"
						},
						{
							"internalType": "bool",
							"name": "isMultipleDiscount",
							"type": "bool"
						},
						{
							"internalType": "bool",
							"name": "isApprove",
							"type": "bool"
						},
						{
							"internalType": "uint256",
							"name": "sold",
							"type": "uint256"
						}
					],
					"indexed": false,
					"internalType": "struct createProductParams",
					"name": "params",
					"type": "tuple"
				}
			],
			"name": "eCreateProduct",
			"type": "event"
		},
		{
			"anonymous": false,
			"inputs": [
				{
					"indexed": false,
					"internalType": "uint256",
					"name": "id",
					"type": "uint256"
				}
			],
			"name": "eDeleteCategory",
			"type": "event"
		},
		{
			"anonymous": false,
			"inputs": [
				{
					"indexed": false,
					"internalType": "uint256",
					"name": "productID",
					"type": "uint256"
				}
			],
			"name": "eDeleteProduct",
			"type": "event"
		},
		{
			"anonymous": false,
			"inputs": [
				{
					"indexed": false,
					"internalType": "uint256",
					"name": "id",
					"type": "uint256"
				},
				{
					"indexed": false,
					"internalType": "string",
					"name": "name",
					"type": "string"
				},
				{
					"indexed": false,
					"internalType": "string",
					"name": "description",
					"type": "string"
				}
			],
			"name": "eEditCategory",
			"type": "event"
		},
		{
			"anonymous": false,
			"inputs": [
				{
					"indexed": false,
					"internalType": "string",
					"name": "username",
					"type": "string"
				},
				{
					"indexed": false,
					"internalType": "address",
					"name": "user",
					"type": "address"
				},
				{
					"indexed": false,
					"internalType": "string",
					"name": "phoneNumber",
					"type": "string"
				}
			],
			"name": "eRegisterRetailer",
			"type": "event"
		},
		{
			"anonymous": false,
			"inputs": [
				{
					"indexed": false,
					"internalType": "address",
					"name": "retailer",
					"type": "address"
				}
			],
			"name": "eSetRetailer",
			"type": "event"
		},
		{
			"anonymous": false,
			"inputs": [
				{
					"indexed": false,
					"internalType": "uint256",
					"name": "id",
					"type": "uint256"
				},
				{
					"components": [
						{
							"internalType": "string",
							"name": "name",
							"type": "string"
						},
						{
							"internalType": "uint256",
							"name": "categoryID",
							"type": "uint256"
						},
						{
							"internalType": "string",
							"name": "description",
							"type": "string"
						},
						{
							"internalType": "uint256",
							"name": "retailPrice",
							"type": "uint256"
						},
						{
							"internalType": "uint256",
							"name": "vipPrice",
							"type": "uint256"
						},
						{
							"internalType": "uint256",
							"name": "memberPrice",
							"type": "uint256"
						},
						{
							"internalType": "uint256",
							"name": "reward",
							"type": "uint256"
						},
						{
							"internalType": "uint256[]",
							"name": "capacity",
							"type": "uint256[]"
						},
						{
							"internalType": "bytes[]",
							"name": "size",
							"type": "bytes[]"
						},
						{
							"internalType": "uint256",
							"name": "quantity",
							"type": "uint256"
						},
						{
							"internalType": "uint256",
							"name": "shippingFee",
							"type": "uint256"
						},
						{
							"internalType": "bytes[]",
							"name": "color",
							"type": "bytes[]"
						},
						{
							"internalType": "address",
							"name": "retailer",
							"type": "address"
						},
						{
							"internalType": "string",
							"name": "brandName",
							"type": "string"
						},
						{
							"internalType": "string",
							"name": "warranty",
							"type": "string"
						},
						{
							"internalType": "bool",
							"name": "isFlashSale",
							"type": "bool"
						},
						{
							"internalType": "bytes[]",
							"name": "images",
							"type": "bytes[]"
						},
						{
							"internalType": "string",
							"name": "videoUrl",
							"type": "string"
						},
						{
							"internalType": "uint256",
							"name": "boostTime",
							"type": "uint256"
						},
						{
							"internalType": "uint256",
							"name": "expiryTime",
							"type": "uint256"
						},
						{
							"internalType": "uint256",
							"name": "activateTime",
							"type": "uint256"
						},
						{
							"internalType": "bool",
							"name": "isMultipleDiscount",
							"type": "bool"
						},
						{
							"internalType": "bool",
							"name": "isApprove",
							"type": "bool"
						},
						{
							"internalType": "uint256",
							"name": "sold",
							"type": "uint256"
						}
					],
					"indexed": false,
					"internalType": "struct createProductParams",
					"name": "params",
					"type": "tuple"
				}
			],
			"name": "eUpdateProduct",
			"type": "event"
		},
		{
			"inputs": [],
			"name": "EcomInfo",
			"outputs": [
				{
					"internalType": "contract IEcomInfo",
					"name": "",
					"type": "address"
				}
			],
			"stateMutability": "view",
			"type": "function"
		},
		{
			"inputs": [],
			"name": "EcomOrder",
			"outputs": [
				{
					"internalType": "contract IEcomOrder",
					"name": "",
					"type": "address"
				}
			],
			"stateMutability": "view",
			"type": "function"
		},
		{
			"inputs": [],
			"name": "EcomUser",
			"outputs": [
				{
					"internalType": "contract IEcomUser",
					"name": "",
					"type": "address"
				}
			],
			"stateMutability": "view",
			"type": "function"
		},
		{
			"inputs": [
				{
					"internalType": "address",
					"name": "_ecomInfo",
					"type": "address"
				}
			],
			"name": "SetEcomInfo",
			"outputs": [
				{
					"internalType": "bool",
					"name": "",
					"type": "bool"
				}
			],
			"stateMutability": "nonpayable",
			"type": "function"
		},
		{
			"inputs": [
				{
					"internalType": "address",
					"name": "_ecomOrder",
					"type": "address"
				}
			],
			"name": "SetEcomOrder",
			"outputs": [
				{
					"internalType": "bool",
					"name": "",
					"type": "bool"
				}
			],
			"stateMutability": "nonpayable",
			"type": "function"
		},
		{
			"inputs": [
				{
					"internalType": "address",
					"name": "_ecomUser",
					"type": "address"
				}
			],
			"name": "SetEcomUser",
			"outputs": [
				{
					"internalType": "bool",
					"name": "",
					"type": "bool"
				}
			],
			"stateMutability": "nonpayable",
			"type": "function"
		},
		{
			"inputs": [
				{
					"internalType": "uint256",
					"name": "_productID",
					"type": "uint256"
				}
			],
			"name": "adminAcceptProduct",
			"outputs": [
				{
					"internalType": "bool",
					"name": "",
					"type": "bool"
				}
			],
			"stateMutability": "nonpayable",
			"type": "function"
		},
		{
			"inputs": [
				{
					"internalType": "uint256",
					"name": "_productID",
					"type": "uint256"
				}
			],
			"name": "adminRejectProduct",
			"outputs": [
				{
					"internalType": "bool",
					"name": "",
					"type": "bool"
				}
			],
			"stateMutability": "nonpayable",
			"type": "function"
		},
		{
			"inputs": [
				{
					"internalType": "uint256",
					"name": "",
					"type": "uint256"
				}
			],
			"name": "brands",
			"outputs": [
				{
					"internalType": "bytes",
					"name": "",
					"type": "bytes"
				}
			],
			"stateMutability": "view",
			"type": "function"
		},
		{
			"inputs": [
				{
					"internalType": "uint256",
					"name": "",
					"type": "uint256"
				}
			],
			"name": "categories",
			"outputs": [
				{
					"internalType": "uint256",
					"name": "",
					"type": "uint256"
				}
			],
			"stateMutability": "view",
			"type": "function"
		},
		{
			"inputs": [],
			"name": "categoryID",
			"outputs": [
				{
					"internalType": "uint256",
					"name": "",
					"type": "uint256"
				}
			],
			"stateMutability": "view",
			"type": "function"
		},
		{
			"inputs": [],
			"name": "commentID",
			"outputs": [
				{
					"internalType": "uint256",
					"name": "",
					"type": "uint256"
				}
			],
			"stateMutability": "view",
			"type": "function"
		},
		{
			"inputs": [
				{
					"internalType": "string",
					"name": "_name",
					"type": "string"
				},
				{
					"internalType": "string",
					"name": "_description",
					"type": "string"
				}
			],
			"name": "createCategory",
			"outputs": [],
			"stateMutability": "nonpayable",
			"type": "function"
		},
		{
			"inputs": [
				{
					"internalType": "uint256",
					"name": "_productID",
					"type": "uint256"
				},
				{
					"internalType": "enum CommentType",
					"name": "commentType",
					"type": "uint8"
				},
				{
					"internalType": "string",
					"name": "content",
					"type": "string"
				},
				{
					"internalType": "string",
					"name": "name",
					"type": "string"
				}
			],
			"name": "createComment",
			"outputs": [
				{
					"internalType": "uint256",
					"name": "",
					"type": "uint256"
				}
			],
			"stateMutability": "nonpayable",
			"type": "function"
		},
		{
			"inputs": [
				{
					"internalType": "uint256",
					"name": "_productID",
					"type": "uint256"
				},
				{
					"components": [
						{
							"internalType": "enum CommentType",
							"name": "commentType",
							"type": "uint8"
						},
						{
							"internalType": "string",
							"name": "content",
							"type": "string"
						},
						{
							"internalType": "string",
							"name": "name",
							"type": "string"
						},
						{
							"internalType": "uint256",
							"name": "rate",
							"type": "uint256"
						}
					],
					"internalType": "struct createCommentParams[]",
					"name": "params",
					"type": "tuple[]"
				}
			],
			"name": "createComments",
			"outputs": [
				{
					"internalType": "bool",
					"name": "",
					"type": "bool"
				}
			],
			"stateMutability": "nonpayable",
			"type": "function"
		},
		{
			"inputs": [
				{
					"internalType": "string",
					"name": "title",
					"type": "string"
				},
				{
					"internalType": "string",
					"name": "content",
					"type": "string"
				}
			],
			"name": "createFAQPO5",
			"outputs": [
				{
					"internalType": "bool",
					"name": "",
					"type": "bool"
				}
			],
			"stateMutability": "nonpayable",
			"type": "function"
		},
		{
			"inputs": [
				{
					"components": [
						{
							"internalType": "string",
							"name": "title",
							"type": "string"
						},
						{
							"internalType": "string",
							"name": "content",
							"type": "string"
						}
					],
					"internalType": "struct createFaqParams[]",
					"name": "params",
					"type": "tuple[]"
				}
			],
			"name": "createFAQsPO5",
			"outputs": [
				{
					"internalType": "bool",
					"name": "",
					"type": "bool"
				}
			],
			"stateMutability": "nonpayable",
			"type": "function"
		},
		{
			"inputs": [
				{
					"internalType": "uint256",
					"name": "_productID",
					"type": "uint256"
				},
				{
					"components": [
						{
							"internalType": "string",
							"name": "title",
							"type": "string"
						},
						{
							"internalType": "string",
							"name": "content",
							"type": "string"
						}
					],
					"internalType": "struct createFaqParams[]",
					"name": "params",
					"type": "tuple[]"
				}
			],
			"name": "createFAQsProduct",
			"outputs": [
				{
					"internalType": "bool",
					"name": "",
					"type": "bool"
				}
			],
			"stateMutability": "nonpayable",
			"type": "function"
		},
		{
			"inputs": [
				{
					"internalType": "uint256",
					"name": "_productID",
					"type": "uint256"
				}
			],
			"name": "createFavorite",
			"outputs": [],
			"stateMutability": "nonpayable",
			"type": "function"
		},
		{
			"inputs": [
				{
					"internalType": "uint256[]",
					"name": "_productIds",
					"type": "uint256[]"
				}
			],
			"name": "createFavorites",
			"outputs": [],
			"stateMutability": "nonpayable",
			"type": "function"
		},
		{
			"inputs": [
				{
					"components": [
						{
							"internalType": "string",
							"name": "name",
							"type": "string"
						},
						{
							"internalType": "uint256",
							"name": "categoryID",
							"type": "uint256"
						},
						{
							"internalType": "string",
							"name": "description",
							"type": "string"
						},
						{
							"internalType": "uint256",
							"name": "retailPrice",
							"type": "uint256"
						},
						{
							"internalType": "uint256",
							"name": "vipPrice",
							"type": "uint256"
						},
						{
							"internalType": "uint256",
							"name": "memberPrice",
							"type": "uint256"
						},
						{
							"internalType": "uint256",
							"name": "reward",
							"type": "uint256"
						},
						{
							"internalType": "uint256[]",
							"name": "capacity",
							"type": "uint256[]"
						},
						{
							"internalType": "bytes[]",
							"name": "size",
							"type": "bytes[]"
						},
						{
							"internalType": "uint256",
							"name": "quantity",
							"type": "uint256"
						},
						{
							"internalType": "uint256",
							"name": "shippingFee",
							"type": "uint256"
						},
						{
							"internalType": "bytes[]",
							"name": "color",
							"type": "bytes[]"
						},
						{
							"internalType": "address",
							"name": "retailer",
							"type": "address"
						},
						{
							"internalType": "string",
							"name": "brandName",
							"type": "string"
						},
						{
							"internalType": "string",
							"name": "warranty",
							"type": "string"
						},
						{
							"internalType": "bool",
							"name": "isFlashSale",
							"type": "bool"
						},
						{
							"internalType": "bytes[]",
							"name": "images",
							"type": "bytes[]"
						},
						{
							"internalType": "string",
							"name": "videoUrl",
							"type": "string"
						},
						{
							"internalType": "uint256",
							"name": "boostTime",
							"type": "uint256"
						},
						{
							"internalType": "uint256",
							"name": "expiryTime",
							"type": "uint256"
						},
						{
							"internalType": "uint256",
							"name": "activateTime",
							"type": "uint256"
						},
						{
							"internalType": "bool",
							"name": "isMultipleDiscount",
							"type": "bool"
						},
						{
							"internalType": "bool",
							"name": "isApprove",
							"type": "bool"
						},
						{
							"internalType": "uint256",
							"name": "sold",
							"type": "uint256"
						}
					],
					"internalType": "struct createProductParams",
					"name": "params",
					"type": "tuple"
				},
				{
					"components": [
						{
							"internalType": "bytes32",
							"name": "variantID",
							"type": "bytes32"
						},
						{
							"components": [
								{
									"internalType": "bytes32",
									"name": "id",
									"type": "bytes32"
								},
								{
									"internalType": "string",
									"name": "key",
									"type": "string"
								},
								{
									"internalType": "string",
									"name": "value",
									"type": "string"
								}
							],
							"internalType": "struct Attribute[]",
							"name": "attrs",
							"type": "tuple[]"
						},
						{
							"components": [
								{
									"internalType": "uint256",
									"name": "retailPrice",
									"type": "uint256"
								},
								{
									"internalType": "uint256",
									"name": "vipPrice",
									"type": "uint256"
								},
								{
									"internalType": "uint256",
									"name": "memberPrice",
									"type": "uint256"
								},
								{
									"internalType": "uint256",
									"name": "reward",
									"type": "uint256"
								},
								{
									"internalType": "uint256",
									"name": "quantity",
									"type": "uint256"
								}
							],
							"internalType": "struct Pricing",
							"name": "priceOptions",
							"type": "tuple"
						}
					],
					"internalType": "struct VariantParams[]",
					"name": "_variants",
					"type": "tuple[]"
				}
			],
			"name": "createProduct",
			"outputs": [
				{
					"internalType": "uint256",
					"name": "",
					"type": "uint256"
				}
			],
			"stateMutability": "nonpayable",
			"type": "function"
		},
		{
			"inputs": [
				{
					"internalType": "uint256",
					"name": "_productID",
					"type": "uint256"
				},
				{
					"internalType": "uint256",
					"name": "rateValue",
					"type": "uint256"
				}
			],
			"name": "createRating",
			"outputs": [
				{
					"internalType": "bool",
					"name": "",
					"type": "bool"
				}
			],
			"stateMutability": "nonpayable",
			"type": "function"
		},
		{
			"inputs": [
				{
					"internalType": "uint256",
					"name": "_productID",
					"type": "uint256"
				},
				{
					"internalType": "uint256",
					"name": "_commentID",
					"type": "uint256"
				},
				{
					"internalType": "uint256",
					"name": "_rate",
					"type": "uint256"
				}
			],
			"name": "createRatingForRetailer",
			"outputs": [
				{
					"internalType": "bool",
					"name": "",
					"type": "bool"
				}
			],
			"stateMutability": "nonpayable",
			"type": "function"
		},
		{
			"inputs": [
				{
					"internalType": "uint256",
					"name": "_id",
					"type": "uint256"
				}
			],
			"name": "deleteCategory",
			"outputs": [],
			"stateMutability": "nonpayable",
			"type": "function"
		},
		{
			"inputs": [
				{
					"internalType": "uint256",
					"name": "_productID",
					"type": "uint256"
				},
				{
					"internalType": "uint256",
					"name": "_commentID",
					"type": "uint256"
				}
			],
			"name": "deleteComment",
			"outputs": [],
			"stateMutability": "nonpayable",
			"type": "function"
		},
		{
			"inputs": [
				{
					"internalType": "uint256",
					"name": "_id",
					"type": "uint256"
				}
			],
			"name": "deleteFAQPO5",
			"outputs": [
				{
					"internalType": "bool",
					"name": "",
					"type": "bool"
				}
			],
			"stateMutability": "nonpayable",
			"type": "function"
		},
		{
			"inputs": [
				{
					"internalType": "uint256",
					"name": "_productID",
					"type": "uint256"
				},
				{
					"internalType": "uint256",
					"name": "_faqID",
					"type": "uint256"
				}
			],
			"name": "deleteFAQProduct",
			"outputs": [
				{
					"internalType": "bool",
					"name": "",
					"type": "bool"
				}
			],
			"stateMutability": "nonpayable",
			"type": "function"
		},
		{
			"inputs": [
				{
					"internalType": "uint256",
					"name": "_productID",
					"type": "uint256"
				}
			],
			"name": "deleteFavorite",
			"outputs": [],
			"stateMutability": "nonpayable",
			"type": "function"
		},
		{
			"inputs": [
				{
					"internalType": "uint256[]",
					"name": "_productIds",
					"type": "uint256[]"
				}
			],
			"name": "deleteFavorites",
			"outputs": [],
			"stateMutability": "nonpayable",
			"type": "function"
		},
		{
			"inputs": [
				{
					"internalType": "uint256",
					"name": "_productID",
					"type": "uint256"
				}
			],
			"name": "deleteProduct",
			"outputs": [
				{
					"internalType": "bool",
					"name": "",
					"type": "bool"
				}
			],
			"stateMutability": "nonpayable",
			"type": "function"
		},
		{
			"inputs": [
				{
					"internalType": "uint256",
					"name": "_productID",
					"type": "uint256"
				},
				{
					"internalType": "uint256",
					"name": "_ratingID",
					"type": "uint256"
				}
			],
			"name": "deleteRating",
			"outputs": [
				{
					"internalType": "bool",
					"name": "",
					"type": "bool"
				}
			],
			"stateMutability": "nonpayable",
			"type": "function"
		},
		{
			"inputs": [
				{
					"internalType": "uint256",
					"name": "_id",
					"type": "uint256"
				},
				{
					"internalType": "string",
					"name": "_name",
					"type": "string"
				},
				{
					"internalType": "string",
					"name": "_description",
					"type": "string"
				}
			],
			"name": "editCategory",
			"outputs": [],
			"stateMutability": "nonpayable",
			"type": "function"
		},
		{
			"inputs": [
				{
					"internalType": "uint256",
					"name": "_commentID",
					"type": "uint256"
				},
				{
					"internalType": "string",
					"name": "content",
					"type": "string"
				}
			],
			"name": "editComment",
			"outputs": [],
			"stateMutability": "nonpayable",
			"type": "function"
		},
		{
			"inputs": [
				{
					"components": [
						{
							"internalType": "uint256",
							"name": "commentID",
							"type": "uint256"
						},
						{
							"internalType": "string",
							"name": "content",
							"type": "string"
						}
					],
					"internalType": "struct editCommentsParam[]",
					"name": "params",
					"type": "tuple[]"
				}
			],
			"name": "editComments",
			"outputs": [],
			"stateMutability": "nonpayable",
			"type": "function"
		},
		{
			"inputs": [
				{
					"internalType": "uint256",
					"name": "_id",
					"type": "uint256"
				},
				{
					"internalType": "string",
					"name": "_title",
					"type": "string"
				},
				{
					"internalType": "string",
					"name": "_content",
					"type": "string"
				}
			],
			"name": "editFAQPO5",
			"outputs": [
				{
					"internalType": "bool",
					"name": "",
					"type": "bool"
				}
			],
			"stateMutability": "nonpayable",
			"type": "function"
		},
		{
			"inputs": [
				{
					"components": [
						{
							"internalType": "uint256",
							"name": "faqID",
							"type": "uint256"
						},
						{
							"internalType": "string",
							"name": "title",
							"type": "string"
						},
						{
							"internalType": "string",
							"name": "content",
							"type": "string"
						}
					],
					"internalType": "struct editFAQsProductParam[]",
					"name": "params",
					"type": "tuple[]"
				}
			],
			"name": "editFAQProducts",
			"outputs": [],
			"stateMutability": "nonpayable",
			"type": "function"
		},
		{
			"inputs": [
				{
					"internalType": "uint256",
					"name": "_productID",
					"type": "uint256"
				},
				{
					"internalType": "uint256",
					"name": "_ratingID",
					"type": "uint256"
				},
				{
					"internalType": "uint256",
					"name": "rateValue",
					"type": "uint256"
				}
			],
			"name": "editRating",
			"outputs": [
				{
					"internalType": "bool",
					"name": "",
					"type": "bool"
				}
			],
			"stateMutability": "nonpayable",
			"type": "function"
		},
		{
			"inputs": [],
			"name": "faqID",
			"outputs": [
				{
					"internalType": "uint256",
					"name": "",
					"type": "uint256"
				}
			],
			"stateMutability": "view",
			"type": "function"
		},
		{
			"inputs": [
				{
					"internalType": "uint256",
					"name": "",
					"type": "uint256"
				}
			],
			"name": "faqs",
			"outputs": [
				{
					"internalType": "uint256",
					"name": "",
					"type": "uint256"
				}
			],
			"stateMutability": "view",
			"type": "function"
		},
		{
			"inputs": [
				{
					"internalType": "uint256",
					"name": "_productID",
					"type": "uint256"
				}
			],
			"name": "getAllComments",
			"outputs": [
				{
					"components": [
						{
							"internalType": "uint256",
							"name": "id",
							"type": "uint256"
						},
						{
							"internalType": "address",
							"name": "user",
							"type": "address"
						},
						{
							"internalType": "string",
							"name": "name",
							"type": "string"
						},
						{
							"internalType": "string",
							"name": "message",
							"type": "string"
						},
						{
							"internalType": "uint8",
							"name": "commentType",
							"type": "uint8"
						},
						{
							"internalType": "uint256",
							"name": "createdAt",
							"type": "uint256"
						},
						{
							"internalType": "uint256",
							"name": "updatedAt",
							"type": "uint256"
						},
						{
							"internalType": "uint256",
							"name": "productID",
							"type": "uint256"
						}
					],
					"internalType": "struct Comment[]",
					"name": "",
					"type": "tuple[]"
				}
			],
			"stateMutability": "view",
			"type": "function"
		},
		{
			"inputs": [],
			"name": "getAllProductInfo",
			"outputs": [
				{
					"components": [
						{
							"components": [
								{
									"internalType": "uint256",
									"name": "id",
									"type": "uint256"
								},
								{
									"components": [
										{
											"internalType": "string",
											"name": "name",
											"type": "string"
										},
										{
											"internalType": "uint256",
											"name": "categoryID",
											"type": "uint256"
										},
										{
											"internalType": "string",
											"name": "description",
											"type": "string"
										},
										{
											"internalType": "uint256",
											"name": "retailPrice",
											"type": "uint256"
										},
										{
											"internalType": "uint256",
											"name": "vipPrice",
											"type": "uint256"
										},
										{
											"internalType": "uint256",
											"name": "memberPrice",
											"type": "uint256"
										},
										{
											"internalType": "uint256",
											"name": "reward",
											"type": "uint256"
										},
										{
											"internalType": "uint256[]",
											"name": "capacity",
											"type": "uint256[]"
										},
										{
											"internalType": "bytes[]",
											"name": "size",
											"type": "bytes[]"
										},
										{
											"internalType": "uint256",
											"name": "quantity",
											"type": "uint256"
										},
										{
											"internalType": "uint256",
											"name": "shippingFee",
											"type": "uint256"
										},
										{
											"internalType": "bytes[]",
											"name": "color",
											"type": "bytes[]"
										},
										{
											"internalType": "address",
											"name": "retailer",
											"type": "address"
										},
										{
											"internalType": "string",
											"name": "brandName",
											"type": "string"
										},
										{
											"internalType": "string",
											"name": "warranty",
											"type": "string"
										},
										{
											"internalType": "bool",
											"name": "isFlashSale",
											"type": "bool"
										},
										{
											"internalType": "bytes[]",
											"name": "images",
											"type": "bytes[]"
										},
										{
											"internalType": "string",
											"name": "videoUrl",
											"type": "string"
										},
										{
											"internalType": "uint256",
											"name": "boostTime",
											"type": "uint256"
										},
										{
											"internalType": "uint256",
											"name": "expiryTime",
											"type": "uint256"
										},
										{
											"internalType": "uint256",
											"name": "activateTime",
											"type": "uint256"
										},
										{
											"internalType": "bool",
											"name": "isMultipleDiscount",
											"type": "bool"
										},
										{
											"internalType": "bool",
											"name": "isApprove",
											"type": "bool"
										},
										{
											"internalType": "uint256",
											"name": "sold",
											"type": "uint256"
										}
									],
									"internalType": "struct createProductParams",
									"name": "params",
									"type": "tuple"
								},
								{
									"internalType": "uint256",
									"name": "createdAt",
									"type": "uint256"
								},
								{
									"internalType": "uint256",
									"name": "updatedAt",
									"type": "uint256"
								}
							],
							"internalType": "struct Product",
							"name": "product",
							"type": "tuple"
						},
						{
							"components": [
								{
									"internalType": "bytes32",
									"name": "variantID",
									"type": "bytes32"
								},
								{
									"components": [
										{
											"internalType": "uint256",
											"name": "retailPrice",
											"type": "uint256"
										},
										{
											"internalType": "uint256",
											"name": "vipPrice",
											"type": "uint256"
										},
										{
											"internalType": "uint256",
											"name": "memberPrice",
											"type": "uint256"
										},
										{
											"internalType": "uint256",
											"name": "reward",
											"type": "uint256"
										},
										{
											"internalType": "uint256",
											"name": "quantity",
											"type": "uint256"
										}
									],
									"internalType": "struct Pricing",
									"name": "priceOptions",
									"type": "tuple"
								}
							],
							"internalType": "struct Variant[]",
							"name": "variants",
							"type": "tuple[]"
						},
						{
							"components": [
								{
									"internalType": "bytes32",
									"name": "id",
									"type": "bytes32"
								},
								{
									"internalType": "string",
									"name": "key",
									"type": "string"
								},
								{
									"internalType": "string",
									"name": "value",
									"type": "string"
								}
							],
							"internalType": "struct Attribute[][]",
							"name": "attributes",
							"type": "tuple[][]"
						}
					],
					"internalType": "struct ProductInfo[]",
					"name": "productsInfo",
					"type": "tuple[]"
				}
			],
			"stateMutability": "view",
			"type": "function"
		},
		{
			"inputs": [
				{
					"components": [
						{
							"internalType": "enum EProductType",
							"name": "_productType",
							"type": "uint8"
						},
						{
							"internalType": "enum EPrice",
							"name": "_price",
							"type": "uint8"
						},
						{
							"internalType": "enum EDatePost",
							"name": "_datePost",
							"type": "uint8"
						},
						{
							"internalType": "enum EStatus",
							"name": "_status",
							"type": "uint8"
						},
						{
							"internalType": "address",
							"name": "_retailer",
							"type": "address"
						},
						{
							"internalType": "string",
							"name": "_term",
							"type": "string"
						},
						{
							"internalType": "uint256",
							"name": "_from",
							"type": "uint256"
						},
						{
							"internalType": "uint256",
							"name": "_to",
							"type": "uint256"
						},
						{
							"internalType": "uint256",
							"name": "page",
							"type": "uint256"
						},
						{
							"internalType": "uint256",
							"name": "perPage",
							"type": "uint256"
						}
					],
					"internalType": "struct getProductManagementParams",
					"name": "params",
					"type": "tuple"
				}
			],
			"name": "getAllProductInfoPagination",
			"outputs": [
				{
					"components": [
						{
							"components": [
								{
									"internalType": "uint256",
									"name": "id",
									"type": "uint256"
								},
								{
									"components": [
										{
											"internalType": "string",
											"name": "name",
											"type": "string"
										},
										{
											"internalType": "uint256",
											"name": "categoryID",
											"type": "uint256"
										},
										{
											"internalType": "string",
											"name": "description",
											"type": "string"
										},
										{
											"internalType": "uint256",
											"name": "retailPrice",
											"type": "uint256"
										},
										{
											"internalType": "uint256",
											"name": "vipPrice",
											"type": "uint256"
										},
										{
											"internalType": "uint256",
											"name": "memberPrice",
											"type": "uint256"
										},
										{
											"internalType": "uint256",
											"name": "reward",
											"type": "uint256"
										},
										{
											"internalType": "uint256[]",
											"name": "capacity",
											"type": "uint256[]"
										},
										{
											"internalType": "bytes[]",
											"name": "size",
											"type": "bytes[]"
										},
										{
											"internalType": "uint256",
											"name": "quantity",
											"type": "uint256"
										},
										{
											"internalType": "uint256",
											"name": "shippingFee",
											"type": "uint256"
										},
										{
											"internalType": "bytes[]",
											"name": "color",
											"type": "bytes[]"
										},
										{
											"internalType": "address",
											"name": "retailer",
											"type": "address"
										},
										{
											"internalType": "string",
											"name": "brandName",
											"type": "string"
										},
										{
											"internalType": "string",
											"name": "warranty",
											"type": "string"
										},
										{
											"internalType": "bool",
											"name": "isFlashSale",
											"type": "bool"
										},
										{
											"internalType": "bytes[]",
											"name": "images",
											"type": "bytes[]"
										},
										{
											"internalType": "string",
											"name": "videoUrl",
											"type": "string"
										},
										{
											"internalType": "uint256",
											"name": "boostTime",
											"type": "uint256"
										},
										{
											"internalType": "uint256",
											"name": "expiryTime",
											"type": "uint256"
										},
										{
											"internalType": "uint256",
											"name": "activateTime",
											"type": "uint256"
										},
										{
											"internalType": "bool",
											"name": "isMultipleDiscount",
											"type": "bool"
										},
										{
											"internalType": "bool",
											"name": "isApprove",
											"type": "bool"
										},
										{
											"internalType": "uint256",
											"name": "sold",
											"type": "uint256"
										}
									],
									"internalType": "struct createProductParams",
									"name": "params",
									"type": "tuple"
								},
								{
									"internalType": "uint256",
									"name": "createdAt",
									"type": "uint256"
								},
								{
									"internalType": "uint256",
									"name": "updatedAt",
									"type": "uint256"
								}
							],
							"internalType": "struct Product",
							"name": "product",
							"type": "tuple"
						},
						{
							"components": [
								{
									"internalType": "bytes32",
									"name": "variantID",
									"type": "bytes32"
								},
								{
									"components": [
										{
											"internalType": "uint256",
											"name": "retailPrice",
											"type": "uint256"
										},
										{
											"internalType": "uint256",
											"name": "vipPrice",
											"type": "uint256"
										},
										{
											"internalType": "uint256",
											"name": "memberPrice",
											"type": "uint256"
										},
										{
											"internalType": "uint256",
											"name": "reward",
											"type": "uint256"
										},
										{
											"internalType": "uint256",
											"name": "quantity",
											"type": "uint256"
										}
									],
									"internalType": "struct Pricing",
									"name": "priceOptions",
									"type": "tuple"
								}
							],
							"internalType": "struct Variant[]",
							"name": "variants",
							"type": "tuple[]"
						},
						{
							"components": [
								{
									"internalType": "bytes32",
									"name": "id",
									"type": "bytes32"
								},
								{
									"internalType": "string",
									"name": "key",
									"type": "string"
								},
								{
									"internalType": "string",
									"name": "value",
									"type": "string"
								}
							],
							"internalType": "struct Attribute[][]",
							"name": "attributes",
							"type": "tuple[][]"
						}
					],
					"internalType": "struct ProductInfo[]",
					"name": "productsInfo",
					"type": "tuple[]"
				},
				{
					"internalType": "bool",
					"name": "isMore",
					"type": "bool"
				}
			],
			"stateMutability": "view",
			"type": "function"
		},
		{
			"inputs": [
				{
					"internalType": "address",
					"name": "_retailer",
					"type": "address"
				}
			],
			"name": "getAllRetailerProductInfo",
			"outputs": [
				{
					"components": [
						{
							"components": [
								{
									"internalType": "uint256",
									"name": "id",
									"type": "uint256"
								},
								{
									"components": [
										{
											"internalType": "string",
											"name": "name",
											"type": "string"
										},
										{
											"internalType": "uint256",
											"name": "categoryID",
											"type": "uint256"
										},
										{
											"internalType": "string",
											"name": "description",
											"type": "string"
										},
										{
											"internalType": "uint256",
											"name": "retailPrice",
											"type": "uint256"
										},
										{
											"internalType": "uint256",
											"name": "vipPrice",
											"type": "uint256"
										},
										{
											"internalType": "uint256",
											"name": "memberPrice",
											"type": "uint256"
										},
										{
											"internalType": "uint256",
											"name": "reward",
											"type": "uint256"
										},
										{
											"internalType": "uint256[]",
											"name": "capacity",
											"type": "uint256[]"
										},
										{
											"internalType": "bytes[]",
											"name": "size",
											"type": "bytes[]"
										},
										{
											"internalType": "uint256",
											"name": "quantity",
											"type": "uint256"
										},
										{
											"internalType": "uint256",
											"name": "shippingFee",
											"type": "uint256"
										},
										{
											"internalType": "bytes[]",
											"name": "color",
											"type": "bytes[]"
										},
										{
											"internalType": "address",
											"name": "retailer",
											"type": "address"
										},
										{
											"internalType": "string",
											"name": "brandName",
											"type": "string"
										},
										{
											"internalType": "string",
											"name": "warranty",
											"type": "string"
										},
										{
											"internalType": "bool",
											"name": "isFlashSale",
											"type": "bool"
										},
										{
											"internalType": "bytes[]",
											"name": "images",
											"type": "bytes[]"
										},
										{
											"internalType": "string",
											"name": "videoUrl",
											"type": "string"
										},
										{
											"internalType": "uint256",
											"name": "boostTime",
											"type": "uint256"
										},
										{
											"internalType": "uint256",
											"name": "expiryTime",
											"type": "uint256"
										},
										{
											"internalType": "uint256",
											"name": "activateTime",
											"type": "uint256"
										},
										{
											"internalType": "bool",
											"name": "isMultipleDiscount",
											"type": "bool"
										},
										{
											"internalType": "bool",
											"name": "isApprove",
											"type": "bool"
										},
										{
											"internalType": "uint256",
											"name": "sold",
											"type": "uint256"
										}
									],
									"internalType": "struct createProductParams",
									"name": "params",
									"type": "tuple"
								},
								{
									"internalType": "uint256",
									"name": "createdAt",
									"type": "uint256"
								},
								{
									"internalType": "uint256",
									"name": "updatedAt",
									"type": "uint256"
								}
							],
							"internalType": "struct Product",
							"name": "product",
							"type": "tuple"
						},
						{
							"components": [
								{
									"internalType": "bytes32",
									"name": "variantID",
									"type": "bytes32"
								},
								{
									"components": [
										{
											"internalType": "uint256",
											"name": "retailPrice",
											"type": "uint256"
										},
										{
											"internalType": "uint256",
											"name": "vipPrice",
											"type": "uint256"
										},
										{
											"internalType": "uint256",
											"name": "memberPrice",
											"type": "uint256"
										},
										{
											"internalType": "uint256",
											"name": "reward",
											"type": "uint256"
										},
										{
											"internalType": "uint256",
											"name": "quantity",
											"type": "uint256"
										}
									],
									"internalType": "struct Pricing",
									"name": "priceOptions",
									"type": "tuple"
								}
							],
							"internalType": "struct Variant[]",
							"name": "variants",
							"type": "tuple[]"
						},
						{
							"components": [
								{
									"internalType": "bytes32",
									"name": "id",
									"type": "bytes32"
								},
								{
									"internalType": "string",
									"name": "key",
									"type": "string"
								},
								{
									"internalType": "string",
									"name": "value",
									"type": "string"
								}
							],
							"internalType": "struct Attribute[][]",
							"name": "attributes",
							"type": "tuple[][]"
						}
					],
					"internalType": "struct ProductInfo[]",
					"name": "productsInfo",
					"type": "tuple[]"
				}
			],
			"stateMutability": "view",
			"type": "function"
		},
		{
			"inputs": [
				{
					"internalType": "uint256",
					"name": "_categoryID",
					"type": "uint256"
				}
			],
			"name": "getAttributesByCategory",
			"outputs": [
				{
					"components": [
						{
							"internalType": "bytes32",
							"name": "id",
							"type": "bytes32"
						},
						{
							"internalType": "string",
							"name": "key",
							"type": "string"
						},
						{
							"internalType": "string",
							"name": "value",
							"type": "string"
						}
					],
					"internalType": "struct Attribute[]",
					"name": "attrs",
					"type": "tuple[]"
				}
			],
			"stateMutability": "view",
			"type": "function"
		},
		{
			"inputs": [],
			"name": "getBrands",
			"outputs": [
				{
					"internalType": "bytes[]",
					"name": "",
					"type": "bytes[]"
				}
			],
			"stateMutability": "view",
			"type": "function"
		},
		{
			"inputs": [],
			"name": "getCategories",
			"outputs": [
				{
					"components": [
						{
							"internalType": "uint256",
							"name": "id",
							"type": "uint256"
						},
						{
							"internalType": "string",
							"name": "name",
							"type": "string"
						},
						{
							"internalType": "string",
							"name": "description",
							"type": "string"
						}
					],
					"internalType": "struct Category[]",
					"name": "",
					"type": "tuple[]"
				}
			],
			"stateMutability": "view",
			"type": "function"
		},
		{
			"inputs": [
				{
					"internalType": "uint256",
					"name": "_categoryID",
					"type": "uint256"
				}
			],
			"name": "getCategory",
			"outputs": [
				{
					"components": [
						{
							"internalType": "uint256",
							"name": "id",
							"type": "uint256"
						},
						{
							"internalType": "string",
							"name": "name",
							"type": "string"
						},
						{
							"internalType": "string",
							"name": "description",
							"type": "string"
						}
					],
					"internalType": "struct Category",
					"name": "",
					"type": "tuple"
				}
			],
			"stateMutability": "view",
			"type": "function"
		},
		{
			"inputs": [
				{
					"internalType": "uint256",
					"name": "_id",
					"type": "uint256"
				}
			],
			"name": "getComment",
			"outputs": [
				{
					"components": [
						{
							"internalType": "uint256",
							"name": "id",
							"type": "uint256"
						},
						{
							"internalType": "address",
							"name": "user",
							"type": "address"
						},
						{
							"internalType": "string",
							"name": "name",
							"type": "string"
						},
						{
							"internalType": "string",
							"name": "message",
							"type": "string"
						},
						{
							"internalType": "uint8",
							"name": "commentType",
							"type": "uint8"
						},
						{
							"internalType": "uint256",
							"name": "createdAt",
							"type": "uint256"
						},
						{
							"internalType": "uint256",
							"name": "updatedAt",
							"type": "uint256"
						},
						{
							"internalType": "uint256",
							"name": "productID",
							"type": "uint256"
						}
					],
					"internalType": "struct Comment",
					"name": "",
					"type": "tuple"
				}
			],
			"stateMutability": "view",
			"type": "function"
		},
		{
			"inputs": [
				{
					"internalType": "uint256",
					"name": "code",
					"type": "uint256"
				},
				{
					"internalType": "string",
					"name": "message",
					"type": "string"
				}
			],
			"name": "getErrorMessage",
			"outputs": [
				{
					"internalType": "string",
					"name": "",
					"type": "string"
				}
			],
			"stateMutability": "pure",
			"type": "function"
		},
		{
			"inputs": [
				{
					"internalType": "uint256",
					"name": "_productID",
					"type": "uint256"
				}
			],
			"name": "getFavorite",
			"outputs": [
				{
					"internalType": "bool",
					"name": "",
					"type": "bool"
				}
			],
			"stateMutability": "view",
			"type": "function"
		},
		{
			"inputs": [],
			"name": "getFavorites",
			"outputs": [
				{
					"components": [
						{
							"internalType": "uint256",
							"name": "productID",
							"type": "uint256"
						},
						{
							"internalType": "uint256",
							"name": "createdAt",
							"type": "uint256"
						}
					],
					"internalType": "struct Favorite[]",
					"name": "",
					"type": "tuple[]"
				}
			],
			"stateMutability": "view",
			"type": "function"
		},
		{
			"inputs": [],
			"name": "getFlashSaleProduct",
			"outputs": [
				{
					"components": [
						{
							"internalType": "uint256",
							"name": "id",
							"type": "uint256"
						},
						{
							"components": [
								{
									"internalType": "string",
									"name": "name",
									"type": "string"
								},
								{
									"internalType": "uint256",
									"name": "categoryID",
									"type": "uint256"
								},
								{
									"internalType": "string",
									"name": "description",
									"type": "string"
								},
								{
									"internalType": "uint256",
									"name": "retailPrice",
									"type": "uint256"
								},
								{
									"internalType": "uint256",
									"name": "vipPrice",
									"type": "uint256"
								},
								{
									"internalType": "uint256",
									"name": "memberPrice",
									"type": "uint256"
								},
								{
									"internalType": "uint256",
									"name": "reward",
									"type": "uint256"
								},
								{
									"internalType": "uint256[]",
									"name": "capacity",
									"type": "uint256[]"
								},
								{
									"internalType": "bytes[]",
									"name": "size",
									"type": "bytes[]"
								},
								{
									"internalType": "uint256",
									"name": "quantity",
									"type": "uint256"
								},
								{
									"internalType": "uint256",
									"name": "shippingFee",
									"type": "uint256"
								},
								{
									"internalType": "bytes[]",
									"name": "color",
									"type": "bytes[]"
								},
								{
									"internalType": "address",
									"name": "retailer",
									"type": "address"
								},
								{
									"internalType": "string",
									"name": "brandName",
									"type": "string"
								},
								{
									"internalType": "string",
									"name": "warranty",
									"type": "string"
								},
								{
									"internalType": "bool",
									"name": "isFlashSale",
									"type": "bool"
								},
								{
									"internalType": "bytes[]",
									"name": "images",
									"type": "bytes[]"
								},
								{
									"internalType": "string",
									"name": "videoUrl",
									"type": "string"
								},
								{
									"internalType": "uint256",
									"name": "boostTime",
									"type": "uint256"
								},
								{
									"internalType": "uint256",
									"name": "expiryTime",
									"type": "uint256"
								},
								{
									"internalType": "uint256",
									"name": "activateTime",
									"type": "uint256"
								},
								{
									"internalType": "bool",
									"name": "isMultipleDiscount",
									"type": "bool"
								},
								{
									"internalType": "bool",
									"name": "isApprove",
									"type": "bool"
								},
								{
									"internalType": "uint256",
									"name": "sold",
									"type": "uint256"
								}
							],
							"internalType": "struct createProductParams",
							"name": "params",
							"type": "tuple"
						},
						{
							"internalType": "uint256",
							"name": "createdAt",
							"type": "uint256"
						},
						{
							"internalType": "uint256",
							"name": "updatedAt",
							"type": "uint256"
						}
					],
					"internalType": "struct Product[]",
					"name": "",
					"type": "tuple[]"
				}
			],
			"stateMutability": "view",
			"type": "function"
		},
		{
			"inputs": [],
			"name": "getPO5FAQ",
			"outputs": [
				{
					"components": [
						{
							"internalType": "uint256",
							"name": "id",
							"type": "uint256"
						},
						{
							"internalType": "string",
							"name": "title",
							"type": "string"
						},
						{
							"internalType": "string",
							"name": "content",
							"type": "string"
						}
					],
					"internalType": "struct FAQ[]",
					"name": "",
					"type": "tuple[]"
				}
			],
			"stateMutability": "view",
			"type": "function"
		},
		{
			"inputs": [
				{
					"internalType": "uint256",
					"name": "_productID",
					"type": "uint256"
				}
			],
			"name": "getProduct",
			"outputs": [
				{
					"components": [
						{
							"internalType": "uint256",
							"name": "id",
							"type": "uint256"
						},
						{
							"components": [
								{
									"internalType": "string",
									"name": "name",
									"type": "string"
								},
								{
									"internalType": "uint256",
									"name": "categoryID",
									"type": "uint256"
								},
								{
									"internalType": "string",
									"name": "description",
									"type": "string"
								},
								{
									"internalType": "uint256",
									"name": "retailPrice",
									"type": "uint256"
								},
								{
									"internalType": "uint256",
									"name": "vipPrice",
									"type": "uint256"
								},
								{
									"internalType": "uint256",
									"name": "memberPrice",
									"type": "uint256"
								},
								{
									"internalType": "uint256",
									"name": "reward",
									"type": "uint256"
								},
								{
									"internalType": "uint256[]",
									"name": "capacity",
									"type": "uint256[]"
								},
								{
									"internalType": "bytes[]",
									"name": "size",
									"type": "bytes[]"
								},
								{
									"internalType": "uint256",
									"name": "quantity",
									"type": "uint256"
								},
								{
									"internalType": "uint256",
									"name": "shippingFee",
									"type": "uint256"
								},
								{
									"internalType": "bytes[]",
									"name": "color",
									"type": "bytes[]"
								},
								{
									"internalType": "address",
									"name": "retailer",
									"type": "address"
								},
								{
									"internalType": "string",
									"name": "brandName",
									"type": "string"
								},
								{
									"internalType": "string",
									"name": "warranty",
									"type": "string"
								},
								{
									"internalType": "bool",
									"name": "isFlashSale",
									"type": "bool"
								},
								{
									"internalType": "bytes[]",
									"name": "images",
									"type": "bytes[]"
								},
								{
									"internalType": "string",
									"name": "videoUrl",
									"type": "string"
								},
								{
									"internalType": "uint256",
									"name": "boostTime",
									"type": "uint256"
								},
								{
									"internalType": "uint256",
									"name": "expiryTime",
									"type": "uint256"
								},
								{
									"internalType": "uint256",
									"name": "activateTime",
									"type": "uint256"
								},
								{
									"internalType": "bool",
									"name": "isMultipleDiscount",
									"type": "bool"
								},
								{
									"internalType": "bool",
									"name": "isApprove",
									"type": "bool"
								},
								{
									"internalType": "uint256",
									"name": "sold",
									"type": "uint256"
								}
							],
							"internalType": "struct createProductParams",
							"name": "params",
							"type": "tuple"
						},
						{
							"internalType": "uint256",
							"name": "createdAt",
							"type": "uint256"
						},
						{
							"internalType": "uint256",
							"name": "updatedAt",
							"type": "uint256"
						}
					],
					"internalType": "struct Product",
					"name": "",
					"type": "tuple"
				}
			],
			"stateMutability": "view",
			"type": "function"
		},
		{
			"inputs": [
				{
					"internalType": "uint256",
					"name": "_productID",
					"type": "uint256"
				}
			],
			"name": "getProductDetails",
			"outputs": [
				{
					"components": [
						{
							"internalType": "uint256",
							"name": "id",
							"type": "uint256"
						},
						{
							"internalType": "address",
							"name": "user",
							"type": "address"
						},
						{
							"internalType": "string",
							"name": "name",
							"type": "string"
						},
						{
							"internalType": "string",
							"name": "message",
							"type": "string"
						},
						{
							"internalType": "uint8",
							"name": "commentType",
							"type": "uint8"
						},
						{
							"internalType": "uint256",
							"name": "createdAt",
							"type": "uint256"
						},
						{
							"internalType": "uint256",
							"name": "updatedAt",
							"type": "uint256"
						},
						{
							"internalType": "uint256",
							"name": "productID",
							"type": "uint256"
						}
					],
					"internalType": "struct Comment[]",
					"name": "_comments",
					"type": "tuple[]"
				},
				{
					"components": [
						{
							"internalType": "uint256",
							"name": "id",
							"type": "uint256"
						},
						{
							"internalType": "address",
							"name": "user",
							"type": "address"
						},
						{
							"internalType": "uint256",
							"name": "rateValue",
							"type": "uint256"
						},
						{
							"internalType": "uint256",
							"name": "createdAt",
							"type": "uint256"
						}
					],
					"internalType": "struct Rating[]",
					"name": "_rating",
					"type": "tuple[]"
				},
				{
					"components": [
						{
							"internalType": "uint256",
							"name": "id",
							"type": "uint256"
						},
						{
							"internalType": "string",
							"name": "title",
							"type": "string"
						},
						{
							"internalType": "string",
							"name": "content",
							"type": "string"
						}
					],
					"internalType": "struct FAQ[]",
					"name": "_faqs",
					"type": "tuple[]"
				},
				{
					"internalType": "uint256[]",
					"name": "_productPurchaseTrend",
					"type": "uint256[]"
				},
				{
					"internalType": "uint256[]",
					"name": "_productTrend",
					"type": "uint256[]"
				},
				{
					"internalType": "uint256[]",
					"name": "_rates",
					"type": "uint256[]"
				}
			],
			"stateMutability": "view",
			"type": "function"
		},
		{
			"inputs": [
				{
					"internalType": "uint256",
					"name": "_productID",
					"type": "uint256"
				}
			],
			"name": "getProductFAQ",
			"outputs": [
				{
					"components": [
						{
							"internalType": "uint256",
							"name": "id",
							"type": "uint256"
						},
						{
							"internalType": "string",
							"name": "title",
							"type": "string"
						},
						{
							"internalType": "string",
							"name": "content",
							"type": "string"
						}
					],
					"internalType": "struct FAQ[]",
					"name": "",
					"type": "tuple[]"
				}
			],
			"stateMutability": "view",
			"type": "function"
		},
		{
			"inputs": [
				{
					"internalType": "uint256",
					"name": "_productId",
					"type": "uint256"
				}
			],
			"name": "getProductInfo",
			"outputs": [
				{
					"components": [
						{
							"components": [
								{
									"internalType": "uint256",
									"name": "id",
									"type": "uint256"
								},
								{
									"components": [
										{
											"internalType": "string",
											"name": "name",
											"type": "string"
										},
										{
											"internalType": "uint256",
											"name": "categoryID",
											"type": "uint256"
										},
										{
											"internalType": "string",
											"name": "description",
											"type": "string"
										},
										{
											"internalType": "uint256",
											"name": "retailPrice",
											"type": "uint256"
										},
										{
											"internalType": "uint256",
											"name": "vipPrice",
											"type": "uint256"
										},
										{
											"internalType": "uint256",
											"name": "memberPrice",
											"type": "uint256"
										},
										{
											"internalType": "uint256",
											"name": "reward",
											"type": "uint256"
										},
										{
											"internalType": "uint256[]",
											"name": "capacity",
											"type": "uint256[]"
										},
										{
											"internalType": "bytes[]",
											"name": "size",
											"type": "bytes[]"
										},
										{
											"internalType": "uint256",
											"name": "quantity",
											"type": "uint256"
										},
										{
											"internalType": "uint256",
											"name": "shippingFee",
											"type": "uint256"
										},
										{
											"internalType": "bytes[]",
											"name": "color",
											"type": "bytes[]"
										},
										{
											"internalType": "address",
											"name": "retailer",
											"type": "address"
										},
										{
											"internalType": "string",
											"name": "brandName",
											"type": "string"
										},
										{
											"internalType": "string",
											"name": "warranty",
											"type": "string"
										},
										{
											"internalType": "bool",
											"name": "isFlashSale",
											"type": "bool"
										},
										{
											"internalType": "bytes[]",
											"name": "images",
											"type": "bytes[]"
										},
										{
											"internalType": "string",
											"name": "videoUrl",
											"type": "string"
										},
										{
											"internalType": "uint256",
											"name": "boostTime",
											"type": "uint256"
										},
										{
											"internalType": "uint256",
											"name": "expiryTime",
											"type": "uint256"
										},
										{
											"internalType": "uint256",
											"name": "activateTime",
											"type": "uint256"
										},
										{
											"internalType": "bool",
											"name": "isMultipleDiscount",
											"type": "bool"
										},
										{
											"internalType": "bool",
											"name": "isApprove",
											"type": "bool"
										},
										{
											"internalType": "uint256",
											"name": "sold",
											"type": "uint256"
										}
									],
									"internalType": "struct createProductParams",
									"name": "params",
									"type": "tuple"
								},
								{
									"internalType": "uint256",
									"name": "createdAt",
									"type": "uint256"
								},
								{
									"internalType": "uint256",
									"name": "updatedAt",
									"type": "uint256"
								}
							],
							"internalType": "struct Product",
							"name": "product",
							"type": "tuple"
						},
						{
							"components": [
								{
									"internalType": "bytes32",
									"name": "variantID",
									"type": "bytes32"
								},
								{
									"components": [
										{
											"internalType": "uint256",
											"name": "retailPrice",
											"type": "uint256"
										},
										{
											"internalType": "uint256",
											"name": "vipPrice",
											"type": "uint256"
										},
										{
											"internalType": "uint256",
											"name": "memberPrice",
											"type": "uint256"
										},
										{
											"internalType": "uint256",
											"name": "reward",
											"type": "uint256"
										},
										{
											"internalType": "uint256",
											"name": "quantity",
											"type": "uint256"
										}
									],
									"internalType": "struct Pricing",
									"name": "priceOptions",
									"type": "tuple"
								}
							],
							"internalType": "struct Variant[]",
							"name": "variants",
							"type": "tuple[]"
						},
						{
							"components": [
								{
									"internalType": "bytes32",
									"name": "id",
									"type": "bytes32"
								},
								{
									"internalType": "string",
									"name": "key",
									"type": "string"
								},
								{
									"internalType": "string",
									"name": "value",
									"type": "string"
								}
							],
							"internalType": "struct Attribute[][]",
							"name": "attributes",
							"type": "tuple[][]"
						}
					],
					"internalType": "struct ProductInfo",
					"name": "productInfo",
					"type": "tuple"
				}
			],
			"stateMutability": "view",
			"type": "function"
		},
		{
			"inputs": [
				{
					"internalType": "uint256",
					"name": "_productID",
					"type": "uint256"
				}
			],
			"name": "getProductRate",
			"outputs": [
				{
					"components": [
						{
							"internalType": "uint256",
							"name": "id",
							"type": "uint256"
						},
						{
							"internalType": "address",
							"name": "user",
							"type": "address"
						},
						{
							"internalType": "uint256",
							"name": "rateValue",
							"type": "uint256"
						},
						{
							"internalType": "uint256",
							"name": "createdAt",
							"type": "uint256"
						}
					],
					"internalType": "struct Rating[]",
					"name": "",
					"type": "tuple[]"
				}
			],
			"stateMutability": "view",
			"type": "function"
		},
		{
			"inputs": [
				{
					"internalType": "uint256",
					"name": "_productID",
					"type": "uint256"
				},
				{
					"internalType": "uint256[]",
					"name": "commentIds",
					"type": "uint256[]"
				}
			],
			"name": "getProductReviewRate",
			"outputs": [
				{
					"internalType": "uint256[]",
					"name": "rates",
					"type": "uint256[]"
				}
			],
			"stateMutability": "view",
			"type": "function"
		},
		{
			"inputs": [],
			"name": "getProducts",
			"outputs": [
				{
					"components": [
						{
							"internalType": "uint256",
							"name": "id",
							"type": "uint256"
						},
						{
							"components": [
								{
									"internalType": "string",
									"name": "name",
									"type": "string"
								},
								{
									"internalType": "uint256",
									"name": "categoryID",
									"type": "uint256"
								},
								{
									"internalType": "string",
									"name": "description",
									"type": "string"
								},
								{
									"internalType": "uint256",
									"name": "retailPrice",
									"type": "uint256"
								},
								{
									"internalType": "uint256",
									"name": "vipPrice",
									"type": "uint256"
								},
								{
									"internalType": "uint256",
									"name": "memberPrice",
									"type": "uint256"
								},
								{
									"internalType": "uint256",
									"name": "reward",
									"type": "uint256"
								},
								{
									"internalType": "uint256[]",
									"name": "capacity",
									"type": "uint256[]"
								},
								{
									"internalType": "bytes[]",
									"name": "size",
									"type": "bytes[]"
								},
								{
									"internalType": "uint256",
									"name": "quantity",
									"type": "uint256"
								},
								{
									"internalType": "uint256",
									"name": "shippingFee",
									"type": "uint256"
								},
								{
									"internalType": "bytes[]",
									"name": "color",
									"type": "bytes[]"
								},
								{
									"internalType": "address",
									"name": "retailer",
									"type": "address"
								},
								{
									"internalType": "string",
									"name": "brandName",
									"type": "string"
								},
								{
									"internalType": "string",
									"name": "warranty",
									"type": "string"
								},
								{
									"internalType": "bool",
									"name": "isFlashSale",
									"type": "bool"
								},
								{
									"internalType": "bytes[]",
									"name": "images",
									"type": "bytes[]"
								},
								{
									"internalType": "string",
									"name": "videoUrl",
									"type": "string"
								},
								{
									"internalType": "uint256",
									"name": "boostTime",
									"type": "uint256"
								},
								{
									"internalType": "uint256",
									"name": "expiryTime",
									"type": "uint256"
								},
								{
									"internalType": "uint256",
									"name": "activateTime",
									"type": "uint256"
								},
								{
									"internalType": "bool",
									"name": "isMultipleDiscount",
									"type": "bool"
								},
								{
									"internalType": "bool",
									"name": "isApprove",
									"type": "bool"
								},
								{
									"internalType": "uint256",
									"name": "sold",
									"type": "uint256"
								}
							],
							"internalType": "struct createProductParams",
							"name": "params",
							"type": "tuple"
						},
						{
							"internalType": "uint256",
							"name": "createdAt",
							"type": "uint256"
						},
						{
							"internalType": "uint256",
							"name": "updatedAt",
							"type": "uint256"
						}
					],
					"internalType": "struct Product[]",
					"name": "",
					"type": "tuple[]"
				}
			],
			"stateMutability": "view",
			"type": "function"
		},
		{
			"inputs": [
				{
					"internalType": "address",
					"name": "_retailer",
					"type": "address"
				}
			],
			"name": "getRetailerProduct",
			"outputs": [
				{
					"components": [
						{
							"internalType": "uint256",
							"name": "id",
							"type": "uint256"
						},
						{
							"components": [
								{
									"internalType": "string",
									"name": "name",
									"type": "string"
								},
								{
									"internalType": "uint256",
									"name": "categoryID",
									"type": "uint256"
								},
								{
									"internalType": "string",
									"name": "description",
									"type": "string"
								},
								{
									"internalType": "uint256",
									"name": "retailPrice",
									"type": "uint256"
								},
								{
									"internalType": "uint256",
									"name": "vipPrice",
									"type": "uint256"
								},
								{
									"internalType": "uint256",
									"name": "memberPrice",
									"type": "uint256"
								},
								{
									"internalType": "uint256",
									"name": "reward",
									"type": "uint256"
								},
								{
									"internalType": "uint256[]",
									"name": "capacity",
									"type": "uint256[]"
								},
								{
									"internalType": "bytes[]",
									"name": "size",
									"type": "bytes[]"
								},
								{
									"internalType": "uint256",
									"name": "quantity",
									"type": "uint256"
								},
								{
									"internalType": "uint256",
									"name": "shippingFee",
									"type": "uint256"
								},
								{
									"internalType": "bytes[]",
									"name": "color",
									"type": "bytes[]"
								},
								{
									"internalType": "address",
									"name": "retailer",
									"type": "address"
								},
								{
									"internalType": "string",
									"name": "brandName",
									"type": "string"
								},
								{
									"internalType": "string",
									"name": "warranty",
									"type": "string"
								},
								{
									"internalType": "bool",
									"name": "isFlashSale",
									"type": "bool"
								},
								{
									"internalType": "bytes[]",
									"name": "images",
									"type": "bytes[]"
								},
								{
									"internalType": "string",
									"name": "videoUrl",
									"type": "string"
								},
								{
									"internalType": "uint256",
									"name": "boostTime",
									"type": "uint256"
								},
								{
									"internalType": "uint256",
									"name": "expiryTime",
									"type": "uint256"
								},
								{
									"internalType": "uint256",
									"name": "activateTime",
									"type": "uint256"
								},
								{
									"internalType": "bool",
									"name": "isMultipleDiscount",
									"type": "bool"
								},
								{
									"internalType": "bool",
									"name": "isApprove",
									"type": "bool"
								},
								{
									"internalType": "uint256",
									"name": "sold",
									"type": "uint256"
								}
							],
							"internalType": "struct createProductParams",
							"name": "params",
							"type": "tuple"
						},
						{
							"internalType": "uint256",
							"name": "createdAt",
							"type": "uint256"
						},
						{
							"internalType": "uint256",
							"name": "updatedAt",
							"type": "uint256"
						}
					],
					"internalType": "struct Product[]",
					"name": "",
					"type": "tuple[]"
				}
			],
			"stateMutability": "view",
			"type": "function"
		},
		{
			"inputs": [
				{
					"internalType": "uint256[]",
					"name": "_productIds",
					"type": "uint256[]"
				}
			],
			"name": "getRetailersByProductIds",
			"outputs": [
				{
					"internalType": "address[]",
					"name": "",
					"type": "address[]"
				}
			],
			"stateMutability": "view",
			"type": "function"
		},
		{
			"inputs": [
				{
					"internalType": "address",
					"name": "_user",
					"type": "address"
				}
			],
			"name": "getUserFavorites",
			"outputs": [
				{
					"components": [
						{
							"internalType": "uint256",
							"name": "productID",
							"type": "uint256"
						},
						{
							"internalType": "uint256",
							"name": "createdAt",
							"type": "uint256"
						}
					],
					"internalType": "struct Favorite[]",
					"name": "",
					"type": "tuple[]"
				}
			],
			"stateMutability": "view",
			"type": "function"
		},
		{
			"inputs": [
				{
					"internalType": "uint256",
					"name": "_productID",
					"type": "uint256"
				}
			],
			"name": "getUserRate",
			"outputs": [
				{
					"components": [
						{
							"internalType": "bool",
							"name": "isRated",
							"type": "bool"
						},
						{
							"internalType": "uint256",
							"name": "rateValue",
							"type": "uint256"
						}
					],
					"internalType": "struct RateValue",
					"name": "",
					"type": "tuple"
				}
			],
			"stateMutability": "view",
			"type": "function"
		},
		{
			"inputs": [
				{
					"internalType": "uint256",
					"name": "_productID",
					"type": "uint256"
				},
				{
					"internalType": "bytes32",
					"name": "_variantID",
					"type": "bytes32"
				}
			],
			"name": "getVariant",
			"outputs": [
				{
					"components": [
						{
							"internalType": "bytes32",
							"name": "variantID",
							"type": "bytes32"
						},
						{
							"components": [
								{
									"internalType": "uint256",
									"name": "retailPrice",
									"type": "uint256"
								},
								{
									"internalType": "uint256",
									"name": "vipPrice",
									"type": "uint256"
								},
								{
									"internalType": "uint256",
									"name": "memberPrice",
									"type": "uint256"
								},
								{
									"internalType": "uint256",
									"name": "reward",
									"type": "uint256"
								},
								{
									"internalType": "uint256",
									"name": "quantity",
									"type": "uint256"
								}
							],
							"internalType": "struct Pricing",
							"name": "priceOptions",
							"type": "tuple"
						}
					],
					"internalType": "struct Variant",
					"name": "",
					"type": "tuple"
				}
			],
			"stateMutability": "view",
			"type": "function"
		},
		{
			"inputs": [
				{
					"internalType": "address",
					"name": "retailer",
					"type": "address"
				},
				{
					"internalType": "uint256",
					"name": "_categoryID",
					"type": "uint256"
				}
			],
			"name": "initiatePrductDemo",
			"outputs": [],
			"stateMutability": "nonpayable",
			"type": "function"
		},
		{
			"inputs": [
				{
					"internalType": "bytes32",
					"name": "",
					"type": "bytes32"
				}
			],
			"name": "mAttribute",
			"outputs": [
				{
					"internalType": "bytes32",
					"name": "id",
					"type": "bytes32"
				},
				{
					"internalType": "string",
					"name": "key",
					"type": "string"
				},
				{
					"internalType": "string",
					"name": "value",
					"type": "string"
				}
			],
			"stateMutability": "view",
			"type": "function"
		},
		{
			"inputs": [
				{
					"internalType": "bytes",
					"name": "",
					"type": "bytes"
				}
			],
			"name": "mBrand",
			"outputs": [
				{
					"internalType": "bool",
					"name": "",
					"type": "bool"
				}
			],
			"stateMutability": "view",
			"type": "function"
		},
		{
			"inputs": [
				{
					"internalType": "uint256",
					"name": "",
					"type": "uint256"
				}
			],
			"name": "mCategory",
			"outputs": [
				{
					"internalType": "uint256",
					"name": "id",
					"type": "uint256"
				},
				{
					"internalType": "string",
					"name": "name",
					"type": "string"
				},
				{
					"internalType": "string",
					"name": "description",
					"type": "string"
				}
			],
			"stateMutability": "view",
			"type": "function"
		},
		{
			"inputs": [
				{
					"internalType": "uint256",
					"name": "",
					"type": "uint256"
				},
				{
					"internalType": "uint256",
					"name": "",
					"type": "uint256"
				}
			],
			"name": "mCategoryAttributes",
			"outputs": [
				{
					"internalType": "bytes32",
					"name": "",
					"type": "bytes32"
				}
			],
			"stateMutability": "view",
			"type": "function"
		},
		{
			"inputs": [
				{
					"internalType": "uint256",
					"name": "",
					"type": "uint256"
				}
			],
			"name": "mComment",
			"outputs": [
				{
					"internalType": "uint256",
					"name": "id",
					"type": "uint256"
				},
				{
					"internalType": "address",
					"name": "user",
					"type": "address"
				},
				{
					"internalType": "string",
					"name": "name",
					"type": "string"
				},
				{
					"internalType": "string",
					"name": "message",
					"type": "string"
				},
				{
					"internalType": "uint8",
					"name": "commentType",
					"type": "uint8"
				},
				{
					"internalType": "uint256",
					"name": "createdAt",
					"type": "uint256"
				},
				{
					"internalType": "uint256",
					"name": "updatedAt",
					"type": "uint256"
				},
				{
					"internalType": "uint256",
					"name": "productID",
					"type": "uint256"
				}
			],
			"stateMutability": "view",
			"type": "function"
		},
		{
			"inputs": [
				{
					"internalType": "uint256",
					"name": "",
					"type": "uint256"
				},
				{
					"internalType": "uint256",
					"name": "",
					"type": "uint256"
				}
			],
			"name": "mCommentOfProduct",
			"outputs": [
				{
					"internalType": "uint256",
					"name": "",
					"type": "uint256"
				}
			],
			"stateMutability": "view",
			"type": "function"
		},
		{
			"inputs": [
				{
					"internalType": "uint256",
					"name": "",
					"type": "uint256"
				}
			],
			"name": "mFAQ",
			"outputs": [
				{
					"internalType": "uint256",
					"name": "id",
					"type": "uint256"
				},
				{
					"internalType": "string",
					"name": "title",
					"type": "string"
				},
				{
					"internalType": "string",
					"name": "content",
					"type": "string"
				}
			],
			"stateMutability": "view",
			"type": "function"
		},
		{
			"inputs": [
				{
					"internalType": "address",
					"name": "",
					"type": "address"
				},
				{
					"internalType": "uint256",
					"name": "",
					"type": "uint256"
				}
			],
			"name": "mFavorite",
			"outputs": [
				{
					"internalType": "bool",
					"name": "",
					"type": "bool"
				}
			],
			"stateMutability": "view",
			"type": "function"
		},
		{
			"inputs": [
				{
					"internalType": "address",
					"name": "",
					"type": "address"
				},
				{
					"internalType": "uint256",
					"name": "",
					"type": "uint256"
				}
			],
			"name": "mIsCorrectRetailer",
			"outputs": [
				{
					"internalType": "bool",
					"name": "",
					"type": "bool"
				}
			],
			"stateMutability": "view",
			"type": "function"
		},
		{
			"inputs": [
				{
					"internalType": "uint256",
					"name": "",
					"type": "uint256"
				}
			],
			"name": "mProduct",
			"outputs": [
				{
					"internalType": "uint256",
					"name": "id",
					"type": "uint256"
				},
				{
					"components": [
						{
							"internalType": "string",
							"name": "name",
							"type": "string"
						},
						{
							"internalType": "uint256",
							"name": "categoryID",
							"type": "uint256"
						},
						{
							"internalType": "string",
							"name": "description",
							"type": "string"
						},
						{
							"internalType": "uint256",
							"name": "retailPrice",
							"type": "uint256"
						},
						{
							"internalType": "uint256",
							"name": "vipPrice",
							"type": "uint256"
						},
						{
							"internalType": "uint256",
							"name": "memberPrice",
							"type": "uint256"
						},
						{
							"internalType": "uint256",
							"name": "reward",
							"type": "uint256"
						},
						{
							"internalType": "uint256[]",
							"name": "capacity",
							"type": "uint256[]"
						},
						{
							"internalType": "bytes[]",
							"name": "size",
							"type": "bytes[]"
						},
						{
							"internalType": "uint256",
							"name": "quantity",
							"type": "uint256"
						},
						{
							"internalType": "uint256",
							"name": "shippingFee",
							"type": "uint256"
						},
						{
							"internalType": "bytes[]",
							"name": "color",
							"type": "bytes[]"
						},
						{
							"internalType": "address",
							"name": "retailer",
							"type": "address"
						},
						{
							"internalType": "string",
							"name": "brandName",
							"type": "string"
						},
						{
							"internalType": "string",
							"name": "warranty",
							"type": "string"
						},
						{
							"internalType": "bool",
							"name": "isFlashSale",
							"type": "bool"
						},
						{
							"internalType": "bytes[]",
							"name": "images",
							"type": "bytes[]"
						},
						{
							"internalType": "string",
							"name": "videoUrl",
							"type": "string"
						},
						{
							"internalType": "uint256",
							"name": "boostTime",
							"type": "uint256"
						},
						{
							"internalType": "uint256",
							"name": "expiryTime",
							"type": "uint256"
						},
						{
							"internalType": "uint256",
							"name": "activateTime",
							"type": "uint256"
						},
						{
							"internalType": "bool",
							"name": "isMultipleDiscount",
							"type": "bool"
						},
						{
							"internalType": "bool",
							"name": "isApprove",
							"type": "bool"
						},
						{
							"internalType": "uint256",
							"name": "sold",
							"type": "uint256"
						}
					],
					"internalType": "struct createProductParams",
					"name": "params",
					"type": "tuple"
				},
				{
					"internalType": "uint256",
					"name": "createdAt",
					"type": "uint256"
				},
				{
					"internalType": "uint256",
					"name": "updatedAt",
					"type": "uint256"
				}
			],
			"stateMutability": "view",
			"type": "function"
		},
		{
			"inputs": [
				{
					"internalType": "uint256",
					"name": "",
					"type": "uint256"
				},
				{
					"internalType": "uint256",
					"name": "",
					"type": "uint256"
				}
			],
			"name": "mProductFAQ",
			"outputs": [
				{
					"internalType": "uint256",
					"name": "",
					"type": "uint256"
				}
			],
			"stateMutability": "view",
			"type": "function"
		},
		{
			"inputs": [
				{
					"internalType": "uint256",
					"name": "",
					"type": "uint256"
				},
				{
					"internalType": "uint256",
					"name": "",
					"type": "uint256"
				}
			],
			"name": "mProductRate",
			"outputs": [
				{
					"internalType": "uint256",
					"name": "",
					"type": "uint256"
				}
			],
			"stateMutability": "view",
			"type": "function"
		},
		{
			"inputs": [
				{
					"internalType": "uint256",
					"name": "",
					"type": "uint256"
				},
				{
					"internalType": "uint256",
					"name": "",
					"type": "uint256"
				}
			],
			"name": "mProductVariant",
			"outputs": [
				{
					"internalType": "bytes32",
					"name": "",
					"type": "bytes32"
				}
			],
			"stateMutability": "view",
			"type": "function"
		},
		{
			"inputs": [
				{
					"internalType": "uint256",
					"name": "",
					"type": "uint256"
				}
			],
			"name": "mRate",
			"outputs": [
				{
					"internalType": "uint256",
					"name": "id",
					"type": "uint256"
				},
				{
					"internalType": "address",
					"name": "user",
					"type": "address"
				},
				{
					"internalType": "uint256",
					"name": "rateValue",
					"type": "uint256"
				},
				{
					"internalType": "uint256",
					"name": "createdAt",
					"type": "uint256"
				}
			],
			"stateMutability": "view",
			"type": "function"
		},
		{
			"inputs": [
				{
					"internalType": "address",
					"name": "",
					"type": "address"
				},
				{
					"internalType": "uint256",
					"name": "",
					"type": "uint256"
				}
			],
			"name": "mRetailerProduct",
			"outputs": [
				{
					"internalType": "uint256",
					"name": "",
					"type": "uint256"
				}
			],
			"stateMutability": "view",
			"type": "function"
		},
		{
			"inputs": [
				{
					"internalType": "uint256",
					"name": "",
					"type": "uint256"
				},
				{
					"internalType": "uint256",
					"name": "",
					"type": "uint256"
				}
			],
			"name": "mReviewRate",
			"outputs": [
				{
					"internalType": "uint256",
					"name": "",
					"type": "uint256"
				}
			],
			"stateMutability": "view",
			"type": "function"
		},
		{
			"inputs": [
				{
					"internalType": "address",
					"name": "",
					"type": "address"
				},
				{
					"internalType": "uint256",
					"name": "",
					"type": "uint256"
				}
			],
			"name": "mUserFavorites",
			"outputs": [
				{
					"internalType": "uint256",
					"name": "productID",
					"type": "uint256"
				},
				{
					"internalType": "uint256",
					"name": "createdAt",
					"type": "uint256"
				}
			],
			"stateMutability": "view",
			"type": "function"
		},
		{
			"inputs": [
				{
					"internalType": "address",
					"name": "",
					"type": "address"
				},
				{
					"internalType": "uint256",
					"name": "",
					"type": "uint256"
				}
			],
			"name": "mUserRating",
			"outputs": [
				{
					"internalType": "bool",
					"name": "isRated",
					"type": "bool"
				},
				{
					"internalType": "uint256",
					"name": "rateValue",
					"type": "uint256"
				}
			],
			"stateMutability": "view",
			"type": "function"
		},
		{
			"inputs": [
				{
					"internalType": "uint256",
					"name": "",
					"type": "uint256"
				},
				{
					"internalType": "bytes32",
					"name": "",
					"type": "bytes32"
				}
			],
			"name": "mVariant",
			"outputs": [
				{
					"internalType": "bytes32",
					"name": "variantID",
					"type": "bytes32"
				},
				{
					"components": [
						{
							"internalType": "uint256",
							"name": "retailPrice",
							"type": "uint256"
						},
						{
							"internalType": "uint256",
							"name": "vipPrice",
							"type": "uint256"
						},
						{
							"internalType": "uint256",
							"name": "memberPrice",
							"type": "uint256"
						},
						{
							"internalType": "uint256",
							"name": "reward",
							"type": "uint256"
						},
						{
							"internalType": "uint256",
							"name": "quantity",
							"type": "uint256"
						}
					],
					"internalType": "struct Pricing",
					"name": "priceOptions",
					"type": "tuple"
				}
			],
			"stateMutability": "view",
			"type": "function"
		},
		{
			"inputs": [
				{
					"internalType": "uint256",
					"name": "",
					"type": "uint256"
				},
				{
					"internalType": "bytes32",
					"name": "",
					"type": "bytes32"
				},
				{
					"internalType": "uint256",
					"name": "",
					"type": "uint256"
				}
			],
			"name": "mVariantAttributes",
			"outputs": [
				{
					"internalType": "bytes32",
					"name": "id",
					"type": "bytes32"
				},
				{
					"internalType": "string",
					"name": "key",
					"type": "string"
				},
				{
					"internalType": "string",
					"name": "value",
					"type": "string"
				}
			],
			"stateMutability": "view",
			"type": "function"
		},
		{
			"inputs": [],
			"name": "owner",
			"outputs": [
				{
					"internalType": "address",
					"name": "",
					"type": "address"
				}
			],
			"stateMutability": "view",
			"type": "function"
		},
		{
			"inputs": [],
			"name": "productID",
			"outputs": [
				{
					"internalType": "uint256",
					"name": "",
					"type": "uint256"
				}
			],
			"stateMutability": "view",
			"type": "function"
		},
		{
			"inputs": [
				{
					"internalType": "uint256",
					"name": "",
					"type": "uint256"
				}
			],
			"name": "products",
			"outputs": [
				{
					"internalType": "uint256",
					"name": "",
					"type": "uint256"
				}
			],
			"stateMutability": "view",
			"type": "function"
		},
		{
			"inputs": [],
			"name": "ratingID",
			"outputs": [
				{
					"internalType": "uint256",
					"name": "",
					"type": "uint256"
				}
			],
			"stateMutability": "view",
			"type": "function"
		},
		{
			"inputs": [
				{
					"internalType": "uint256",
					"name": "_productID",
					"type": "uint256"
				},
				{
					"components": [
						{
							"internalType": "string",
							"name": "name",
							"type": "string"
						},
						{
							"internalType": "uint256",
							"name": "categoryID",
							"type": "uint256"
						},
						{
							"internalType": "string",
							"name": "description",
							"type": "string"
						},
						{
							"internalType": "uint256",
							"name": "retailPrice",
							"type": "uint256"
						},
						{
							"internalType": "uint256",
							"name": "vipPrice",
							"type": "uint256"
						},
						{
							"internalType": "uint256",
							"name": "memberPrice",
							"type": "uint256"
						},
						{
							"internalType": "uint256",
							"name": "reward",
							"type": "uint256"
						},
						{
							"internalType": "uint256[]",
							"name": "capacity",
							"type": "uint256[]"
						},
						{
							"internalType": "bytes[]",
							"name": "size",
							"type": "bytes[]"
						},
						{
							"internalType": "uint256",
							"name": "quantity",
							"type": "uint256"
						},
						{
							"internalType": "uint256",
							"name": "shippingFee",
							"type": "uint256"
						},
						{
							"internalType": "bytes[]",
							"name": "color",
							"type": "bytes[]"
						},
						{
							"internalType": "address",
							"name": "retailer",
							"type": "address"
						},
						{
							"internalType": "string",
							"name": "brandName",
							"type": "string"
						},
						{
							"internalType": "string",
							"name": "warranty",
							"type": "string"
						},
						{
							"internalType": "bool",
							"name": "isFlashSale",
							"type": "bool"
						},
						{
							"internalType": "bytes[]",
							"name": "images",
							"type": "bytes[]"
						},
						{
							"internalType": "string",
							"name": "videoUrl",
							"type": "string"
						},
						{
							"internalType": "uint256",
							"name": "boostTime",
							"type": "uint256"
						},
						{
							"internalType": "uint256",
							"name": "expiryTime",
							"type": "uint256"
						},
						{
							"internalType": "uint256",
							"name": "activateTime",
							"type": "uint256"
						},
						{
							"internalType": "bool",
							"name": "isMultipleDiscount",
							"type": "bool"
						},
						{
							"internalType": "bool",
							"name": "isApprove",
							"type": "bool"
						},
						{
							"internalType": "uint256",
							"name": "sold",
							"type": "uint256"
						}
					],
					"internalType": "struct createProductParams",
					"name": "params",
					"type": "tuple"
				},
				{
					"components": [
						{
							"internalType": "bytes32",
							"name": "variantID",
							"type": "bytes32"
						},
						{
							"components": [
								{
									"internalType": "bytes32",
									"name": "id",
									"type": "bytes32"
								},
								{
									"internalType": "string",
									"name": "key",
									"type": "string"
								},
								{
									"internalType": "string",
									"name": "value",
									"type": "string"
								}
							],
							"internalType": "struct Attribute[]",
							"name": "attrs",
							"type": "tuple[]"
						},
						{
							"components": [
								{
									"internalType": "uint256",
									"name": "retailPrice",
									"type": "uint256"
								},
								{
									"internalType": "uint256",
									"name": "vipPrice",
									"type": "uint256"
								},
								{
									"internalType": "uint256",
									"name": "memberPrice",
									"type": "uint256"
								},
								{
									"internalType": "uint256",
									"name": "reward",
									"type": "uint256"
								},
								{
									"internalType": "uint256",
									"name": "quantity",
									"type": "uint256"
								}
							],
							"internalType": "struct Pricing",
							"name": "priceOptions",
							"type": "tuple"
						}
					],
					"internalType": "struct VariantParams[]",
					"name": "_variants",
					"type": "tuple[]"
				}
			],
			"name": "updateProduct",
			"outputs": [
				{
					"internalType": "bool",
					"name": "",
					"type": "bool"
				}
			],
			"stateMutability": "nonpayable",
			"type": "function"
		},
		{
			"inputs": [
				{
					"internalType": "uint256",
					"name": "_productID",
					"type": "uint256"
				},
				{
					"internalType": "bytes[]",
					"name": "_images",
					"type": "bytes[]"
				}
			],
			"name": "updateProductImages",
			"outputs": [
				{
					"internalType": "bool",
					"name": "",
					"type": "bool"
				}
			],
			"stateMutability": "nonpayable",
			"type": "function"
		},
		{
			"inputs": [
				{
					"internalType": "uint256",
					"name": "_productID",
					"type": "uint256"
				},
				{
					"internalType": "bytes32",
					"name": "_variantID",
					"type": "bytes32"
				},
				{
					"internalType": "uint256",
					"name": "updatedQuantity",
					"type": "uint256"
				},
				{
					"internalType": "uint256",
					"name": "_sold",
					"type": "uint256"
				}
			],
			"name": "updateProductQuantity",
			"outputs": [],
			"stateMutability": "nonpayable",
			"type": "function"
		},
		{
			"inputs": [
				{
					"internalType": "address",
					"name": "",
					"type": "address"
				},
				{
					"internalType": "uint256",
					"name": "",
					"type": "uint256"
				}
			],
			"name": "userConfirmedBuyThisProduct",
			"outputs": [
				{
					"internalType": "bool",
					"name": "",
					"type": "bool"
				}
			],
			"stateMutability": "view",
			"type": "function"
		}
	]
}