{
	"data": {
		"bytecode": {
			"linkReferences": {},
			"object": "6080604052601480546001600160a01b031990811633908117909255601380546001810182555f919091527f66de8ffda797e3de9c05e8fc57b3bf0ec28a930d40b0d285d93c06501cf6a0900180549091169091179055615d8b806100635f395ff3fe608060405234801561000f575f80fd5b50600436106102de575f3560e01c8063022de34c146102e257806313badcb81461031b57806314bfd6d014610331578063158d3474146103515780631738408d146103645780632075bd3c146103835780632248632a1461039c5780632c9aefe9146103bc57806332aca62b146103d157806332f39436146103e657806332fd9850146103f957806335890aad146104195780633d3a97481461042d578063409b2cdf146104405780634323323a1461046e57806344089cd114610477578063467956ef1461049a5780634d5c5fd7146104af5780634e581680146104c25780634fa3c56f146104ea5780635b956627146104fd57806362de6230146105105780636a7434e5146105235780636cb69f42146105365780636f2069f01461053e57806370e8e53c14610546578063795ec6d41461055957806379d3f776146105705780637be740c9146105785780637e0833ca146105975780638286980c146105a057806386acd564146105b35780638aa393ac146105c85780638da5cb5b146105db5780638ef58635146105ee5780639075c2901461060157806392a198d514610614578063989868ed146106275780639a761c4d1461064b5780639cde636e14610653578063a354f1b21461065c578063aa29eac71461066f578063abb4ca9914610683578063ac3b394f14610698578063ac5fae69146106af578063b34210e1146106b7578063b34d644a146106e7578063b94aead5146106ef578063bc43b9cc14610702578063c0a227711461071a578063ca6a75021461072d578063cac0e65014610740578063cece999f14610753578063d24043cb1461075c578063d6376aea1461076f578063e27ea4a71461078e578063e6801ac7146107a1578063eda162e7146107c3578063edafaf63146107d6578063f53bc6e3146107de578063f5548899146107e6578063f62dd1ee146107ee578063f857d617146107f7578063f954ed2d146107ff575b5f80fd5b6102f56102f0366004613d72565b610812565b604080516001600160a01b03909316835260ff9091166020830152015b60405180910390f35b610323610856565b604051908152602001610312565b61034461033f366004613da9565b6108f0565b6040516103129190613dc0565b61032361035f366004613dd4565b610918565b610323610372366004613da9565b600e6020525f908152604090205481565b61038b610943565b604051610312959493929190613fe9565b6103af6103aa3660046141ec565b610983565b604051610312919061422f565b6103c46109bd565b6040516103129190614241565b6103e46103df366004613da9565b610a36565b005b601554610344906001600160a01b031681565b61040c610407366004613da9565b610a76565b604051610312919061429f565b335f90815260076020526040902054610323565b6103e461043b3660046142b1565b610ad5565b61045361044e366004613da9565b610b1f565b60408051938452602084019290925290820152606001610312565b61032360025481565b61048a610485366004614350565b610b50565b6040519015158152602001610312565b6104a2610ba3565b604051610312919061436b565b601754610344906001600160a01b031681565b6104d56104d0366004613d72565b610d1e565b60408051928352602083019190915201610312565b6103236104f8366004613da9565b610d56565b6103e461050b366004613d72565b610d75565b61048a61051e366004614350565b610ec6565b6103e461053136600461437d565b610f1a565b61045361152b565b6103e46115cc565b61040c610554366004613da9565b611629565b610561611686565b604051610312939291906143b6565b6103235f5481565b610323610586366004614350565b60066020525f908152604090205481565b61032360045481565b6103e46105ae366004613da9565b611979565b6105bb611ab3565b60405161031291906143f8565b6103e46105d6366004614417565b611d8a565b601454610344906001600160a01b031681565b6103e46105fc366004614526565b612078565b6104d561060f366004614606565b6125b4565b6103e4610622366004614350565b6125de565b61063a610635366004613d72565b6126cc565b604051610312959493929190614647565b6104a2612834565b61032360015481565b601654610344906001600160a01b031681565b335f90815260066020526040902054610323565b61068b612a2e565b60405161031291906146d2565b6106a0612a9f565b6040516103129392919061489d565b610323612b98565b6103e46106c5366004613da9565b5f908152600b6020908152604082208054600181018255908352912042910155565b6103e4612c2a565b6103236106fd366004613dd4565b612c39565b61070a612c52565b604051610312949392919061492d565b6103e4610728366004614350565b612ca0565b6102f561073b366004613da9565b612da1565b61048a61074e366004614350565b612dd9565b61032360055481565b6103e461076a36600461495d565b612e2d565b61032361077d366004614350565b60076020525f908152604090205481565b61063a61079c366004613da9565b612f85565b6107b46107af366004614350565b612fb3565b604051610312939291906149ad565b6103e46107d1366004614350565b6131b6565b6105bb6131ec565b61040c613444565b6103e4613524565b61032360035481565b6103e4613533565b6103e461080d366004614350565b613542565b600d602052815f5260405f20818154811061082b575f80fd5b5f9182526020909120600490910201546001600160a01b0381169250600160a01b900460ff16905082565b60175460405163588f1e0d60e11b81525f916001600160a01b03169063b11e3c1a90610886903390600401613dc0565b602060405180830381865afa1580156108a1573d5f803e3d5ffd5b505050506040513d601f19601f820116820180604052508101906108c59190614a7d565b6108ea5760405162461bcd60e51b81526004016108e190614a98565b60405180910390fd5b505f5490565b601381815481106108ff575f80fd5b5f918252602090912001546001600160a01b0316905081565b600a602052815f5260405f208181548110610931575f80fd5b905f5260205f20015f91509150505481565b60605f80606080610952611ab3565b945061095c610856565b9350610966612b98565b9250610970612834565b915061097a613444565b90509091929394565b60605f61098f84613579565b905080836040516020016109a4929190614b06565b6040516020818303038152906040529150505b92915050565b6060600f805480602002602001604051908101604052809291908181526020015f905b82821015610a2d578382905f5260205f2090600302016040518060600160405290815f820154815260200160018201548152602001600282015481525050815260200190600101906109e0565b50505050905090565b5f818152600e60205260408120805491610a4f83614b95565b90915550505f908152600a6020908152604082208054600181018255908352912042910155565b5f818152600a6020908152604091829020805483518184028101840190945280845260609392830182828015610ac957602002820191905f5260205f20905b815481526020019060010190808311610ab5575b50505050509050919050565b60118383604051610ae7929190614bad565b908152604051602091819003820190208054600180820183555f92835291839020845160029092020190815592909101519101555050565b600f8181548110610b2e575f80fd5b5f91825260209091206003909102018054600182015460029092015490925083565b6014545f906001600160a01b0316338114610b7d5760405162461bcd60e51b81526004016108e190614bbc565b601580546001600160a01b0319166001600160a01b038516179055600191505b50919050565b335f908152600d60209081526040808320805482518185028101850190935280835260609492939192909184015b82821015610a2d575f8481526020908190206040805160a0810182526004860290920180546001600160a01b0381168452600160a01b900460ff16838501526001810180548351818702810187018552818152949592949386019392830182828015610c5a57602002820191905f5260205f20905b815481526020019060010190808311610c46575b5050505050815260200160028201805480602002602001604051908101604052809291908181526020018280548015610cb057602002820191905f5260205f20905b815481526020019060010190808311610c9c575b5050505050815260200160038201805480602002602001604051908101604052809291908181526020018280548015610d0657602002820191905f5260205f20905b815481526020019060010190808311610cf2575b50505050508152505081526020019060010190610bd1565b6010602052815f5260405f208181548110610d37575f80fd5b5f91825260209091206002909102018054600190910154909250905082565b60128181548110610d65575f80fd5b5f91825260209091200154905081565b5f805b6001600160a01b0384165f9081526010602052604090205460ff82161015610e3a576001600160a01b0384165f908152601060205260409020805484919060ff8416908110610dc957610dc9614c15565b905f5260205f2090600202015f015403610e28576001600160a01b0384165f908152601060205260409020805442919060ff8416908110610e0c57610e0c614c15565b905f5260205f2090600202016001018190555060019150610e3a565b80610e3281614c29565b915050610d78565b5080610e8c576040805180820182528381524260208083019182526001600160a01b0387165f908152601082529384208054600181810183559186529190942092516002909102909201918255519101555b5050601280546001810182555f91909152427fbb8a6a4669ba250d26cd7a459eca9d215f8307e33aebe50379bc5a3617ec34449091015550565b6014545f906001600160a01b0316338114610ef35760405162461bcd60e51b81526004016108e190614bbc565b601680546001600160a01b0385166001600160a01b03199091161790556001915050919050565b6008545f9081906001600160401b03811115610f3857610f38614039565b604051908082528060200260200182016040528015610f61578160200160208202803683370190505b5090505f5b6008548110156112af5761102160088281548110610f8657610f86614c15565b905f5260205f2090600602015f018054610f9f90614c47565b80601f0160208091040260200160405190810160405280929190818152602001828054610fcb90614c47565b80156110165780601f10610fed57610100808354040283529160200191611016565b820191905f5260205f20905b815481529060010190602001808311610ff957829003601f168201915b505050505085613608565b156112a7576008818154811061103957611039614c15565b5f918252602082206004600690920201015493505b8381101561114657601654600880545f926001600160a01b03169163b9db15b4918690811061107f5761107f614c15565b905f5260205f209060060201600401848154811061109f5761109f614c15565b905f5260205f2001546040518263ffffffff1660e01b81526004016110c691815260200190565b5f60405180830381865afa1580156110e0573d5f803e3d5ffd5b505050506040513d5f823e601f3d908101601f191682016040526111079190810190615079565b90508060200151610180015184838151811061112557611125614c15565b6001600160a01b03909216602092830291909101909101525060010161104e565b5060088054611157906001906150aa565b8154811061116757611167614c15565b905f5260205f2090600602016008828154811061118657611186614c15565b5f9182526020909120600690910201806111a0838261511a565b5060018281018054918301805460ff19811660ff909416938417825591546001600160a01b036101009182900416026001600160a81b03199092169092171790556002808201906111f39084018261511a565b50600382015481600301556004820181600401908054611214929190613c60565b50600582810180546112299284019190613c60565b50905050600880548061123e5761123e6151e9565b5f828152602081205f199092019160068302019061125c8282613cac565b6001820180546001600160a81b031916905561127b600283015f613cac565b600382015f9055600482015f6112919190613ce6565b61129e600583015f613ce6565b505090556112af565b600101610f66565b505f5b8151811015611525575f8282815181106112ce576112ce614c15565b6020908102919091018101516001600160a01b0381165f908152600990925260408220909250905b815481101561151a576113af82828154811061131457611314614c15565b905f5260205f2090600602015f01805461132d90614c47565b80601f016020809104026020016040519081016040528092919081815260200182805461135990614c47565b80156113a45780601f1061137b576101008083540402835291602001916113a4565b820191905f5260205f20905b81548152906001019060200180831161138757829003601f168201915b505050505088613608565b1561151257815482906113c4906001906150aa565b815481106113d4576113d4614c15565b905f5260205f2090600602018282815481106113f2576113f2614c15565b5f91825260209091206006909102018061140c838261511a565b5060018281018054918301805460ff19811660ff909416938417825591546001600160a01b036101009182900416026001600160a81b031990921690921717905560028082019061145f9084018261511a565b50600382015481600301556004820181600401908054611480929190613c60565b50600582810180546114959284019190613c60565b50905050818054806114a9576114a96151e9565b5f828152602081205f19909201916006830201906114c78282613cac565b6001820180546001600160a81b03191690556114e6600283015f613cac565b600382015f9055600482015f6114fc9190613ce6565b611509600583015f613ce6565b5050905561151a565b6001016112f6565b5050506001016112b2565b50505050565b60175460405163588f1e0d60e11b81525f91829182916001600160a01b03169063b11e3c1a9061155f903390600401613dc0565b602060405180830381865afa15801561157a573d5f803e3d5ffd5b505050506040513d601f19601f8201168201806040525081019061159e9190614a7d565b6115ba5760405162461bcd60e51b81526004016108e190614a98565b50506003546004546005549193909250565b5f600454116115f46001604051806060016040528060238152602001615ca160239139610983565b906116125760405162461bcd60e51b81526004016108e1919061422f565b5060048054905f611622836151fd565b9190505550565b5f818152600b6020908152604091829020805483518184028101840190945280845260609392830182828015610ac957602002820191905f5260205f2090815481526020019060010190808311610ab55750505050509050919050565b60608060605f60165f9054906101000a90046001600160a01b03166001600160a01b031663c29b2f206040518163ffffffff1660e01b81526004015f60405180830381865afa1580156116db573d5f803e3d5ffd5b505050506040513d5f823e601f3d908101601f191682016040526117029190810190615212565b90505f81516001600160401b0381111561171e5761171e614039565b604051908082528060200260200182016040528015611747578160200160208202803683370190505b5090505f82516001600160401b0381111561176457611764614039565b60405190808252806020026020018201604052801561178d578160200160208202803683370190505b50905082516001600160401b038111156117a9576117a9614039565b6040519080825280602002602001820160405280156117d2578160200160208202803683370190505b5093505f5b835181101561196d578381815181106117f2576117f2614c15565b60200260200101515f015183828151811061180f5761180f614c15565b602002602001018181525050600e5f85838151811061183057611830614c15565b60200260200101515f015181526020019081526020015f205482828151811061185b5761185b614c15565b6020026020010181815250505f600a5f86848151811061187d5761187d614c15565b60200260200101515f015181526020019081526020015f2080549050111561194557600a5f8583815181106118b4576118b4614c15565b60200260200101515f015181526020019081526020015f206001600a5f8785815181106118e3576118e3614c15565b60200260200101515f015181526020019081526020015f208054905061190991906150aa565b8154811061191957611919614c15565b905f5260205f20015485828151811061193457611934614c15565b602002602001018181525050611965565b5f85828151811061195857611958614c15565b6020026020010181815250505b6001016117d7565b50909590945091925050565b5f805b600f5460ff82161015611a075782600f8260ff16815481106119a0576119a0614c15565b905f5260205f2090600302015f0154036119f557600f8160ff16815481106119ca576119ca614c15565b5f918252602082206001600390920201018054916119e783614b95565b919050555060019150611a07565b806119ff81614c29565b91505061197c565b5080611aaf576040805160608101825283815260016020820181815242938301938452600f805492830181555f5291517f8d1108e10bcb7c27dddfc02ed9d693a074039d026cf4ea4240b40f7d581ac80260039092029182015590517f8d1108e10bcb7c27dddfc02ed9d693a074039d026cf4ea4240b40f7d581ac80382015590517f8d1108e10bcb7c27dddfc02ed9d693a074039d026cf4ea4240b40f7d581ac804909101555b5050565b60175460405163588f1e0d60e11b81526060916001600160a01b03169063b11e3c1a90611ae4903390600401613dc0565b602060405180830381865afa158015611aff573d5f803e3d5ffd5b505050506040513d601f19601f82011682018060405250810190611b239190614a7d565b611b3f5760405162461bcd60e51b81526004016108e190614a98565b6008805480602002602001604051908101604052809291908181526020015f905b82821015610a2d578382905f5260205f2090600602016040518060e00160405290815f82018054611b9090614c47565b80601f0160208091040260200160405190810160405280929190818152602001828054611bbc90614c47565b8015611c075780601f10611bde57610100808354040283529160200191611c07565b820191905f5260205f20905b815481529060010190602001808311611bea57829003601f168201915b5050509183525050600182015460ff8116602083015261010090046001600160a01b03166040820152600282018054606090920191611c4590614c47565b80601f0160208091040260200160405190810160405280929190818152602001828054611c7190614c47565b8015611cbc5780601f10611c9357610100808354040283529160200191611cbc565b820191905f5260205f20905b815481529060010190602001808311611c9f57829003601f168201915b505050505081526020016003820154815260200160048201805480602002602001604051908101604052809291908181526020018280548015611d1c57602002820191905f5260205f20905b815481526020019060010190808311611d08575b5050505050815260200160058201805480602002602001604051908101604052809291908181526020018280548015611d7257602002820191905f5260205f20905b815481526020019060010190808311611d5e575b50505050508152505081526020019060010190611b60565b5f81611dac576001600160a01b0384165f908152600d60205260409020611daf565b600c5b90505f805b8254811015611fb757886001600160a01b0316838281548110611dd957611dd9614c15565b5f9182526020909120600490910201546001600160a01b031603611faf57600191505f805b848381548110611e1057611e10614c15565b905f5260205f20906004020160010180549050811015611ef95789858481548110611e3d57611e3d614c15565b905f5260205f2090600402016001018281548110611e5d57611e5d614c15565b905f5260205f20015403611ef15742858481548110611e7e57611e7e614c15565b905f5260205f2090600402016003018281548110611e9e57611e9e614c15565b905f5260205f20018190555088858481548110611ebd57611ebd614c15565b905f5260205f2090600402016002018281548110611edd57611edd614c15565b5f9182526020909120015560019150611ef9565b600101611dfe565b5080611fa957838281548110611f1157611f11614c15565b5f918252602080832060016004909302018201805492830181558352909120018990558354849083908110611f4857611f48614c15565b5f918252602080832060036004909302019190910180546001810182559083529120429101558354849083908110611f8257611f82614c15565b5f918252602080832060026004909302019190910180546001810182559083529120018890555b50611fb7565b600101611db4565b508061206e575f611fc988888761362e565b8354600181810186555f868152602090819020845160049094020180548286015160ff16600160a01b026001600160a81b03199091166001600160a01b0390951694909417939093178355604084015180519495508594612031938501929190910190613d01565b506060820151805161204d916002840191602090910190613d01565b5060808201518051612069916003840191602090910190613d01565b505050505b5050505050505050565b60165460608201516040516366573f6160e01b81525f926001600160a01b0316916366573f61916120ac919060040161429f565b5f60405180830381865afa1580156120c6573d5f803e3d5ffd5b505050506040513d5f823e601f3d908101601f191682016040526120ed91908101906152c1565b90505f6120f98261376f565b6040805160e0810182528551815260208087015160ff1690820152858201516001600160a01b0316918101919091526060808201839052426080808401919091529086015160a083015285015160c0820152600880546001810182555f919091528151929350909182916006027ff3f7a9fe364faab93b216da50a3214154f22a0a2b415b23a84c8169e8b636ee3019081906121959082615350565b50602082015160018201805460408501516001600160a01b0316610100026001600160a81b031990911660ff90931692909217919091179055606082015160028201906121e29082615350565b506080820151600382015560a08201518051612208916004840191602090910190613d01565b5060c08201518051612224916005840191602090910190613d01565b5050505f5b8460600151518110156125ad57601654606086015180515f926001600160a01b03169163b9db15b4918590811061226257612262614c15565b60200260200101516040518263ffffffff1660e01b815260040161228891815260200190565b5f60405180830381865afa1580156122a2573d5f803e3d5ffd5b505050506040513d5f823e601f3d908101601f191682016040526122c99190810190615079565b60175460208201516101800151604051636386c1c760e01b81529293505f926001600160a01b0390921691636386c1c79161230691600401613dc0565b5f60405180830381865afa158015612320573d5f803e3d5ffd5b505050506040513d5f823e601f3d908101601f191682016040526123479190810190615579565b5090505f6040518060e00160405280895f01518152602001896020015160ff16815260200189604001516001600160a01b031681526020018360200151604051602001612394919061422f565b60405160208183030381529060405281526020014281526020018960600151516001600160401b038111156123cb576123cb614039565b6040519080825280602002602001820160405280156123f4578160200160208202803683370190505b5081526020018960600151516001600160401b0381111561241757612417614039565b604051908082528060200260200182016040528015612440578160200160208202803683370190505b5081525090508760600151848151811061245c5761245c614c15565b60200260200101518160a00151858151811061247a5761247a614c15565b6020026020010181815250508760800151848151811061249c5761249c614c15565b60200260200101518160c0015185815181106124ba576124ba614c15565b6020908102919091018101919091528381015161018001516001600160a01b03165f908152600982526040812080546001810182559082529190208251839260060290910190819061250c9082615350565b50602082015160018201805460408501516001600160a01b0316610100026001600160a81b031990911660ff90931692909217919091179055606082015160028201906125599082615350565b506080820151600382015560a0820151805161257f916004840191602090910190613d01565b5060c0820151805161259b916005840191602090910190613d01565b50506001909401935061222992505050565b5050505050565b81516020818401810180516011825292820191850191909120919052805482908110610d37575f80fd5b5f600154116126066001604051806060016040528060298152602001615cc460299139610983565b906126245760405162461bcd60e51b81526004016108e1919061422f565b505f60075f836001600160a01b03166001600160a01b031681526020019081526020015f20541161266e6002604051806060016040528060258152602001615d1160259139610983565b9061268c5760405162461bcd60e51b81526004016108e1919061422f565b5060018054905f61269c836151fd565b90915550506001600160a01b0381165f9081526007602052604081208054916126c4836151fd565b919050555050565b6009602052815f5260405f2081815481106126e5575f80fd5b905f5260205f2090600602015f9150915050805f01805461270590614c47565b80601f016020809104026020016040519081016040528092919081815260200182805461273190614c47565b801561277c5780601f106127535761010080835404028352916020019161277c565b820191905f5260205f20905b81548152906001019060200180831161275f57829003601f168201915b505050506001830154600284018054939460ff8316946101009093046001600160a01b03169350916127ad90614c47565b80601f01602080910402602001604051908101604052809291908181526020018280546127d990614c47565b80156128245780601f106127fb57610100808354040283529160200191612824565b820191905f5260205f20905b81548152906001019060200180831161280757829003601f168201915b5050505050908060030154905085565b60175460405163588f1e0d60e11b81526060916001600160a01b03169063b11e3c1a90612865903390600401613dc0565b602060405180830381865afa158015612880573d5f803e3d5ffd5b505050506040513d601f19601f820116820180604052508101906128a49190614a7d565b6128c05760405162461bcd60e51b81526004016108e190614a98565b600c805480602002602001604051908101604052809291908181526020015f905b82821015610a2d575f8481526020908190206040805160a0810182526004860290920180546001600160a01b0381168452600160a01b900460ff1683850152600181018054835181870281018701855281815294959294938601939283018282801561296a57602002820191905f5260205f20905b815481526020019060010190808311612956575b50505050508152602001600282018054806020026020016040519081016040528092919081815260200182805480156129c057602002820191905f5260205f20905b8154815260200190600101908083116129ac575b5050505050815260200160038201805480602002602001604051908101604052809291908181526020018280548015612a1657602002820191905f5260205f20905b815481526020019060010190808311612a02575b505050505081525050815260200190600101906128e1565b335f908152601060209081526040808320805482518185028101850190935280835260609492939192909184015b82821015610a2d578382905f5260205f2090600202016040518060400160405290815f820154815260200160018201548152505081526020019060010190612a5c565b601554604051630c78d3e160e31b8152606091829182916001600160a01b0316906363c69f0890612ad4903390600401613dc0565b5f60405180830381865afa158015612aee573d5f803e3d5ffd5b505050506040513d5f823e601f3d908101601f19168201604052612b1591908101906156df565b6017546040516313fff5ab60e21b81529194506001600160a01b031690634fffd6ac90612b46903390600401613dc0565b5f60405180830381865afa158015612b60573d5f803e3d5ffd5b505050506040513d5f823e601f3d908101601f19168201604052612b87919081019061597e565b9150612b91612a2e565b9050909192565b60175460405163588f1e0d60e11b81525f916001600160a01b03169063b11e3c1a90612bc8903390600401613dc0565b602060405180830381865afa158015612be3573d5f803e3d5ffd5b505050506040513d601f19601f82011682018060405250810190612c079190614a7d565b612c235760405162461bcd60e51b81526004016108e190614a98565b5060015490565b60058054905f61162283614b95565b600b602052815f5260405f208181548110610931575f80fd5b60605f806060612c606131ec565b9350612c77335f9081526006602052604090205490565b9250612c8e335f9081526007602052604090205490565b9150612c98610ba3565b905090919293565b5f805411612cc76001604051806060016040528060248152602001615ced60249139610983565b90612ce55760405162461bcd60e51b81526004016108e1919061422f565b505f60065f836001600160a01b03166001600160a01b031681526020019081526020015f205411612d4c60026040518060400160405280602081526020017f496e76616c696420636f756e743a2072657461696c6572206661766f72697465815250610983565b90612d6a5760405162461bcd60e51b81526004016108e1919061422f565b505f80549080612d79836151fd565b90915550506001600160a01b0381165f9081526006602052604081208054916126c4836151fd565b600c8181548110612db0575f80fd5b5f9182526020909120600490910201546001600160a01b0381169150600160a01b900460ff1682565b6014545f906001600160a01b0316338114612e065760405162461bcd60e51b81526004016108e190614bbc565b601780546001600160a01b0385166001600160a01b03199091161790556001915050919050565b5f81612e4f576001600160a01b0383165f908152600d60205260409020612e52565b600c5b90505f5b8154811015612f7d57856001600160a01b0316828281548110612e7b57612e7b614c15565b5f9182526020909120600490910201546001600160a01b031603612f75575f5b828281548110612ead57612ead614c15565b905f5260205f20906004020160010180549050811015612f735785838381548110612eda57612eda614c15565b905f5260205f2090600402016001018281548110612efa57612efa614c15565b905f5260205f20015403612f6b57612f2f838381548110612f1d57612f1d614c15565b905f5260205f209060040201826138b1565b828281548110612f4157612f41614c15565b5f91825260208220600160049092020101549003612f6357612f638383613a32565b505050611525565b600101612e9b565b505b600101612e56565b505050505050565b60088181548110612f94575f80fd5b905f5260205f2090600602015f91509050805f01805461270590614c47565b60408051606081810183525f808352602083015291810182905260175460405163588f1e0d60e11b81526060916001600160a01b03169063b11e3c1a90612ffe903390600401613dc0565b602060405180830381865afa158015613019573d5f803e3d5ffd5b505050506040513d601f19601f8201168201806040525081019061303d9190614a7d565b6130595760405162461bcd60e51b81526004016108e190614a98565b601554604051630c78d3e160e31b81526001600160a01b03909116906363c69f0890613089908790600401613dc0565b5f60405180830381865afa1580156130a3573d5f803e3d5ffd5b505050506040513d5f823e601f3d908101601f191682016040526130ca91908101906156df565b601554604051630fed485160e11b81529194506001600160a01b031690631fda90a2906130fb908790600401613dc0565b5f60405180830381865afa158015613115573d5f803e3d5ffd5b505050506040513d5f823e601f3d908101601f1916820160405261313c9190810190615a46565b6016546040516318f0a62960e31b81529193506001600160a01b03169063c78531489061316d908790600401613dc0565b5f60405180830381865afa158015613187573d5f803e3d5ffd5b505050506040513d5f823e601f3d908101601f191682016040526131ae9190810190615b6b565b929491935050565b5f805490806131c483614b95565b90915550506001600160a01b0381165f9081526006602052604081208054916126c483614b95565b335f908152600960209081526040808320805482518185028101850190935280835260609492939192909184015b82821015610a2d578382905f5260205f2090600602016040518060e00160405290815f8201805461324a90614c47565b80601f016020809104026020016040519081016040528092919081815260200182805461327690614c47565b80156132c15780601f10613298576101008083540402835291602001916132c1565b820191905f5260205f20905b8154815290600101906020018083116132a457829003601f168201915b5050509183525050600182015460ff8116602083015261010090046001600160a01b031660408201526002820180546060909201916132ff90614c47565b80601f016020809104026020016040519081016040528092919081815260200182805461332b90614c47565b80156133765780601f1061334d57610100808354040283529160200191613376565b820191905f5260205f20905b81548152906001019060200180831161335957829003601f168201915b5050505050815260200160038201548152602001600482018054806020026020016040519081016040528092919081815260200182805480156133d657602002820191905f5260205f20905b8154815260200190600101908083116133c2575b505050505081526020016005820180548060200260200160405190810160405280929190818152602001828054801561342c57602002820191905f5260205f20905b815481526020019060010190808311613418575b5050505050815250508152602001906001019061321a565b60175460405163588f1e0d60e11b81526060916001600160a01b03169063b11e3c1a90613475903390600401613dc0565b602060405180830381865afa158015613490573d5f803e3d5ffd5b505050506040513d601f19601f820116820180604052508101906134b49190614a7d565b6134d05760405162461bcd60e51b81526004016108e190614a98565b601280548060200260200160405190810160405280929190818152602001828054801561351a57602002820191905f5260205f20905b815481526020019060010190808311613506575b5050505050905090565b60038054905f61162283614b95565b60048054905f61162283614b95565b60018054905f61355183614b95565b90915550506001600160a01b0381165f9081526007602052604081208054916126c483614b95565b60605f61358583613b8b565b60010190505f816001600160401b038111156135a3576135a3614039565b6040519080825280601f01601f1916602001820160405280156135cd576020820181803683370190505b5090508181016020015b5f19016f181899199a1a9b1b9c1cb0b131b232b360811b600a86061a8153600a85049450846135d757509392505050565b5f81518351148015613627575081805190602001208380519060200120145b9392505050565b6040805160a0810182525f808252602082018190526060828401819052808301819052608083015282516001808252818501909452919290919081602001602082028036833750506040805160018082528183019092529293505f9291506020808301908036833750506040805160018082528183019092529293505f9291506020808301908036833701905050905086835f815181106136d1576136d1614c15565b60200260200101818152505085825f815181106136f0576136f0614c15565b60200260200101818152505042815f8151811061370f5761370f614c15565b6020026020010181815250505f6040518060a00160405280336001600160a01b0316815260200187600181111561374857613748615c16565b60ff1681526020810195909552604085019390935250606090920191909152949350505050565b60605f82516001600160401b0381111561378b5761378b614039565b6040519080825280602002602001820160405280156137be57816020015b60608152602001906001900390816137a95790505b5090505f5b83518110156138885760175484515f916001600160a01b031690636386c1c7908790859081106137f5576137f5614c15565b60200260200101516040518263ffffffff1660e01b81526004016138199190613dc0565b5f60405180830381865afa158015613833573d5f803e3d5ffd5b505050506040513d5f823e601f3d908101601f1916820160405261385a9190810190615579565b509050806020015183838151811061387457613874614c15565b6020908102919091010152506001016137c3565b508060405160200161389a9190615c2a565b604051602081830303815290604052915050919050565b600182015481106138c0575050565b805b6001838101546138d291906150aa565b8110156139bb57826001018160016138ea9190615c8d565b815481106138fa576138fa614c15565b905f5260205f20015483600101828154811061391857613918614c15565b5f9182526020909120015560028301613932826001615c8d565b8154811061394257613942614c15565b905f5260205f20015483600201828154811061396057613960614c15565b5f918252602090912001556003830161397a826001615c8d565b8154811061398a5761398a614c15565b905f5260205f2001548360030182815481106139a8576139a8614c15565b5f918252602090912001556001016138c2565b50816001018054806139cf576139cf6151e9565b600190038181905f5260205f20015f90559055816002018054806139f5576139f56151e9565b600190038181905f5260205f20015f9055905581600301805480613a1b57613a1b6151e9565b600190038181905f5260205f20015f905590555050565b81548110613a3e575050565b805b8254613a4e906001906150aa565b811015613b295782613a61826001615c8d565b81548110613a7157613a71614c15565b905f5260205f209060040201838281548110613a8f57613a8f614c15565b5f9182526020909120825460049092020180546001600160a01b039092166001600160a01b031983168117825583546001600160a81b031990931617600160a01b9283900460ff1690920291909117815560018083018054613af49284019190613c60565b5060028281018054613b099284019190613c60565b5060038281018054613b1e9284019190613c60565b505050600101613a40565b5081805480613b3a57613b3a6151e9565b5f8281526020812060045f199093019283020180546001600160a81b031916815590613b696001830182613ce6565b613b76600283015f613ce6565b613b83600383015f613ce6565b505090555050565b5f8072184f03e93ff9f4daa797ed6e38ed64bf6a1f0160401b8310613bc95772184f03e93ff9f4daa797ed6e38ed64bf6a1f0160401b830492506040015b6904ee2d6d415b85acef8160201b8310613bf3576904ee2d6d415b85acef8160201b830492506020015b662386f26fc100008310613c1157662386f26fc10000830492506010015b6305f5e1008310613c29576305f5e100830492506008015b6127108310613c3d57612710830492506004015b60648310613c4f576064830492506002015b600a83106109b75760010192915050565b828054828255905f5260205f20908101928215613c9c575f5260205f209182015b82811115613c9c578254825591600101919060010190613c81565b50613ca8929150613d3a565b5090565b508054613cb890614c47565b5f825580601f10613cc7575050565b601f0160209004905f5260205f2090810190613ce39190613d3a565b50565b5080545f8255905f5260205f2090810190613ce39190613d3a565b828054828255905f5260205f20908101928215613c9c579160200282015b82811115613c9c578251825591602001919060010190613d1f565b5b80821115613ca8575f8155600101613d3b565b6001600160a01b0381168114613ce3575f80fd5b8035613d6d81613d4e565b919050565b5f8060408385031215613d83575f80fd5b8235613d8e81613d4e565b946020939093013593505050565b6001600160a01b03169052565b5f60208284031215613db9575f80fd5b5035919050565b6001600160a01b0391909116815260200190565b5f8060408385031215613de5575f80fd5b50508035926020909101359150565b5f81518084528060208401602086015e5f602082860101526020601f19601f83011685010191505092915050565b5f8151808452602084019350602083015f5b82811015613e52578151865260209586019590910190600101613e34565b5093949350505050565b5f82825180855260208501945060208160051b830101602085015f5b83811015613f2f57601f198584030188528151805160e08552613e9e60e0860182613df4565b905060ff60208301511660208601526040820151613ebf6040870182613d9c565b5060608201518582036060870152613ed78282613df4565b9150506080820151608086015260a082015185820360a0870152613efb8282613e22565b91505060c0820151915084810360c0860152613f178183613e22565b60209a8b019a90955093909301925050600101613e78565b50909695505050505050565b5f82825180855260208501945060208160051b830101602085015f5b83811015613f2f57601f19858403018852815160018060a01b03815116845260ff6020820151166020850152604081015160a06040860152613f9c60a0860182613e22565b905060608201518582036060870152613fb58282613e22565b915050608082015191508481036080860152613fd18183613e22565b60209a8b019a90955093909301925050600101613f57565b60a081525f613ffb60a0830188613e5c565b86602084015285604084015282810360608401526140198186613f3b565b9050828103608084015261402d8185613e22565b98975050505050505050565b634e487b7160e01b5f52604160045260245ffd5b604080519081016001600160401b038111828210171561406f5761406f614039565b60405290565b60405160a081016001600160401b038111828210171561406f5761406f614039565b604051608081016001600160401b038111828210171561406f5761406f614039565b60405161030081016001600160401b038111828210171561406f5761406f614039565b60405161014081016001600160401b038111828210171561406f5761406f614039565b60405161026081016001600160401b038111828210171561406f5761406f614039565b604051606081016001600160401b038111828210171561406f5761406f614039565b604051601f8201601f191681016001600160401b038111828210171561416c5761416c614039565b604052919050565b5f6001600160401b0382111561418c5761418c614039565b50601f01601f191660200190565b5f82601f8301126141a9575f80fd5b81356141bc6141b782614174565b614144565b8181528460208386010111156141d0575f80fd5b816020850160208301375f918101602001919091529392505050565b5f80604083850312156141fd575f80fd5b8235915060208301356001600160401b03811115614219575f80fd5b6142258582860161419a565b9150509250929050565b602081525f6136276020830184613df4565b602080825282518282018190525f918401906040840190835b818110156142945783518051845260208101516020850152604081015160408501525060608301925060208401935060018101905061425a565b509095945050505050565b602081525f6136276020830184613e22565b5f805f83850360608112156142c4575f80fd5b84356001600160401b038111156142d9575f80fd5b8501601f810187136142e9575f80fd5b80356001600160401b038111156142fe575f80fd5b87602082840101111561430f575f80fd5b602091909101945092506040601f198201121561432a575f80fd5b5061433361404d565b602085810135825260409095013594810194909452509093909250565b5f60208284031215614360575f80fd5b813561362781613d4e565b602081525f6136276020830184613f3b565b5f6020828403121561438d575f80fd5b81356001600160401b038111156143a2575f80fd5b6143ae8482850161419a565b949350505050565b606081525f6143c86060830186613e22565b82810360208401526143da8186613e22565b905082810360408401526143ee8185613e22565b9695505050505050565b602081525f6136276020830184613e5c565b8015158114613ce3575f80fd5b5f805f805f8060c0878903121561442c575f80fd5b863561443781613d4e565b95506020870135945060408701359350606087013561445581613d4e565b9250608087013560028110614468575f80fd5b915060a08701356144788161440a565b809150509295509295509295565b60ff81168114613ce3575f80fd5b8035613d6d81614486565b5f6001600160401b038211156144b7576144b7614039565b5060051b60200190565b5f82601f8301126144d0575f80fd5b81356144de6141b78261449f565b8082825260208201915060208360051b8601019250858311156144ff575f80fd5b602085015b8381101561451c578035835260209283019201614504565b5095945050505050565b5f60208284031215614536575f80fd5b81356001600160401b0381111561454b575f80fd5b820160a0818503121561455c575f80fd5b614564614075565b81356001600160401b03811115614579575f80fd5b6145858682850161419a565b82525061459460208301614494565b60208201526145a560408301613d62565b604082015260608201356001600160401b038111156145c2575f80fd5b6145ce868285016144c1565b60608301525060808201356001600160401b038111156145ec575f80fd5b6145f8868285016144c1565b608083015250949350505050565b5f8060408385031215614617575f80fd5b82356001600160401b0381111561462c575f80fd5b6146388582860161419a565b95602094909401359450505050565b60a081525f61465960a0830188613df4565b60ff871660208401526001600160a01b038616604084015282810360608401526146838186613df4565b9150508260808301529695505050505050565b5f8151808452602084019350602083015f5b82811015613e525781518051875260209081015181880152604090960195909101906001016146a8565b602081525f6136276020830184614696565b5f82825180855260208501945060208160051b830101602085015f5b83811015613f2f57601f1985840301885281518051845260208101516147296020860182613d9c565b50604081015161473c6040860182613d9c565b506060810151606085015260808101516102606080860152614762610260860182613e22565b905060a082015185820360a087015261477b8282613e22565b91505060c082015185820360c08701526147958282613e22565b91505060e082015185820360e08701526147af8282613e22565b9150506101008201518582036101008701526147cb8282613e22565b9150506101208201518582036101208701526147e78282613e22565b9150506101408201518582036101408701526148038282613e22565b91505061016082015161016086015261018082015161482861018087018260ff169052565b506101a082015161483f6101a087018260ff169052565b506101c08201516101c08601526101e08201516101e086015261020082015161020086015261022082015161487a61022087018260ff169052565b506102409182015194909101939093526020978801979190910190600101614700565b606081525f6148af60608301866146e4565b82810360208401528085518083526020830191506020870192505f5b8181101561490e578351805160ff168452602080820151818601526040918201516001600160a01b031691850191909152909301926060909201916001016148cb565b505083810360408501526149228186614696565b979650505050505050565b608081525f61493f6080830187613e5c565b85602084015284604084015282810360608401526149228185613f3b565b5f805f8060808587031215614970575f80fd5b843561497b81613d4e565b935060208501359250604085013561499281613d4e565b915060608501356149a28161440a565b939692955090935050565b606081525f6149bf60608301866146e4565b8281036020840152606081018551825260018060a01b0360208701511660208301526040860151606060408401528181518084526080850191506020830194505f93505b80841015614a525784519250825182526020830151602083015260408301516040830152606083015160608301526080830151608083015260a082019150602085019450600184019350614a03565b508581036040870152614a658188614696565b9998505050505050505050565b8051613d6d8161440a565b5f60208284031215614a8d575f80fd5b81516136278161440a565b60208082526044908201525f80516020615d3683398151915260408201527f35332c20226d657373616765223a2022596f7520617265206e6f742041646d696060820152636e2e227d60e01b608082015260a00190565b5f81518060208401855e5f93019283525090919050565b771ec8999c9bdb488e88089158dbdb525b999bcb9cdbdb088b60421b81526701131b7b232911d160c51b60188201525f614b436020830185614aef565b61016160f51b81526b1136b2b9b9b0b3b2911d101160a11b6002820152614b6d600e820185614aef565b61227d60f01b815260020195945050505050565b634e487b7160e01b5f52601160045260245ffd5b5f60018201614ba657614ba6614b81565b5060010190565b818382375f9101908152919050565b60208082526046908201525f80516020615d3683398151915260408201527f35352c20226d657373616765223a2022596f7520617265206e6f7420616c6c6f6060820152657765642e227d60d01b608082015260a00190565b634e487b7160e01b5f52603260045260245ffd5b5f60ff821660ff8103614c3e57614c3e614b81565b60010192915050565b600181811c90821680614c5b57607f821691505b602082108103610b9d57634e487b7160e01b5f52602260045260245ffd5b5f614c866141b784614174565b9050828152838383011115614c99575f80fd5b8282602083015e5f602084830101529392505050565b5f82601f830112614cbe575f80fd5b61362783835160208501614c79565b5f82601f830112614cdc575f80fd5b8151614cea6141b78261449f565b8082825260208201915060208360051b860101925085831115614d0b575f80fd5b602085015b8381101561451c578051835260209283019201614d10565b5f82601f830112614d37575f80fd5b8151614d456141b78261449f565b8082825260208201915060208360051b860101925085831115614d66575f80fd5b602085015b8381101561451c5780516001600160401b03811115614d88575f80fd5b8601603f81018813614d98575f80fd5b614daa88602083015160408401614c79565b84525060209283019201614d6b565b8051613d6d81613d4e565b5f60808284031215614dd4575f80fd5b614ddc614097565b8251815260208301519091506001600160401b03811115614dfb575f80fd5b82016103008185031215614e0d575f80fd5b614e156140b9565b81516001600160401b03811115614e2a575f80fd5b614e3686828501614caf565b8252506020828101519082015260408201516001600160401b03811115614e5b575f80fd5b614e6786828501614caf565b604083015250606082810151908201526080808301519082015260a0808301519082015260c0808301519082015260e08201516001600160401b03811115614ead575f80fd5b614eb986828501614ccd565b60e0830152506101008201516001600160401b03811115614ed8575f80fd5b614ee486828501614d28565b61010083015250610120828101519082015261014080830151908201526101608201516001600160401b03811115614f1a575f80fd5b614f2686828501614d28565b61016083015250614f3a6101808301614db9565b6101808201526101a08201516001600160401b03811115614f59575f80fd5b614f6586828501614caf565b6101a0830152506101c08201516001600160401b03811115614f85575f80fd5b614f9186828501614caf565b6101c083015250614fa56101e08301614a72565b6101e08201526102008201516001600160401b03811115614fc4575f80fd5b614fd086828501614d28565b610200830152506102208201516001600160401b03811115614ff0575f80fd5b614ffc86828501614caf565b610220830152506102408281015190820152610260808301519082015261028080830151908201526150316102a08301614a72565b6102a08201526150446102c08301614a72565b6102c08201526102e0918201519181019190915260208201526040828101519082015260609182015191810191909152919050565b5f60208284031215615089575f80fd5b81516001600160401b0381111561509e575f80fd5b6143ae84828501614dc4565b818103818111156109b7576109b7614b81565b601f82111561510157805f5260205f20601f840160051c810160208510156150e25750805b601f840160051c820191505b818110156125ad575f81556001016150ee565b505050565b5f19600383901b1c191660019190911b1790565b818103615125575050565b61512f8254614c47565b6001600160401b0381111561514657615146614039565b61515a816151548454614c47565b846150bd565b5f601f821160018114615186575f83156151745750848201545b61517e8482615106565b8555506125ad565b5f8581526020808220868352908220601f198616925b838110156151bc578286015482556001958601959091019060200161519c565b50858310156151d957818501545f19600388901b60f8161c191681555b5050505050600190811b01905550565b634e487b7160e01b5f52603160045260245ffd5b5f8161520b5761520b614b81565b505f190190565b5f60208284031215615222575f80fd5b81516001600160401b03811115615237575f80fd5b8201601f81018413615247575f80fd5b80516152556141b78261449f565b8082825260208201915060208360051b850101925086831115615276575f80fd5b602084015b838110156152b65780516001600160401b03811115615298575f80fd5b6152a789602083890101614dc4565b8452506020928301920161527b565b509695505050505050565b5f602082840312156152d1575f80fd5b81516001600160401b038111156152e6575f80fd5b8201601f810184136152f6575f80fd5b80516153046141b78261449f565b8082825260208201915060208360051b850101925086831115615325575f80fd5b6020840193505b828410156143ee57835161533f81613d4e565b82526020938401939091019061532c565b81516001600160401b0381111561536957615369614039565b615377816151548454614c47565b6020601f82116001811461539b575f831561517457508482015161517e8482615106565b5f84815260208120601f198516915b828110156153ca57878501518255602094850194600190920191016153aa565b50848210156153e757868401515f19600387901b60f8161c191681555b50505050600190811b01905550565b8051613d6d81614486565b805160048110613d6d575f80fd5b5f82601f83011261541e575f80fd5b815161542c6141b78261449f565b8082825260208201915060208360051b86010192508583111561544d575f80fd5b602085015b8381101561451c5780516001600160401b0381111561546f575f80fd5b860160a0818903601f19011215615484575f80fd5b61548c614075565b60208201516001600160401b038111156154a4575f80fd5b6154b38a602083860101614caf565b82525060408201516001600160401b038111156154ce575f80fd5b6154dd8a602083860101614caf565b60208301525060608201516001600160401b038111156154fb575f80fd5b61550a8a602083860101614caf565b60408301525060808201516001600160401b03811115615528575f80fd5b6155378a602083860101614caf565b60608301525060a08201516001600160401b03811115615555575f80fd5b6155648a602083860101614caf565b60808301525084525060209283019201615452565b5f806040838503121561558a575f80fd5b82516001600160401b0381111561559f575f80fd5b830161014081860312156155b1575f80fd5b6155b96140dc565b6155c282614db9565b815260208201516001600160401b038111156155dc575f80fd5b6155e887828501614caf565b60208301525060408201516001600160401b03811115615606575f80fd5b61561287828501614caf565b604083015250615624606083016153f6565b60608201526080828101519082015260a08201516001600160401b0381111561564b575f80fd5b61565787828501614caf565b60a08301525060c08201516001600160401b03811115615675575f80fd5b61568187828501614caf565b60c08301525061569360e08301615401565b60e082015261010082810151908201526156b06101208301614db9565b610120820152602085015190935090506001600160401b038111156156d3575f80fd5b6142258582860161540f565b5f602082840312156156ef575f80fd5b81516001600160401b03811115615704575f80fd5b8201601f81018413615714575f80fd5b80516157226141b78261449f565b8082825260208201915060208360051b850101925086831115615743575f80fd5b602084015b838110156152b65780516001600160401b03811115615765575f80fd5b8501610260818a03601f1901121561577b575f80fd5b6157836140ff565b6020820151815261579660408301614db9565b60208201526157a760608301614db9565b60408201526080820151606082015260a08201516001600160401b038111156157ce575f80fd5b6157dd8b602083860101614ccd565b60808301525060c08201516001600160401b038111156157fb575f80fd5b61580a8b602083860101614ccd565b60a08301525060e08201516001600160401b03811115615828575f80fd5b6158378b602083860101614ccd565b60c0830152506101008201516001600160401b03811115615856575f80fd5b6158658b602083860101614ccd565b60e0830152506101208201516001600160401b03811115615884575f80fd5b6158938b602083860101614ccd565b610100830152506101408201516001600160401b038111156158b3575f80fd5b6158c28b602083860101614ccd565b610120830152506101608201516001600160401b038111156158e2575f80fd5b6158f18b602083860101614ccd565b610140830152506101808201516101608201526159116101a083016153f6565b6101808201526159246101c083016153f6565b6101a08201526101e0828101516101c083015261020080840151918301919091526102208301519082015261595c61024083016153f6565b6102208201526102609190910151610240820152835260209283019201615748565b5f6020828403121561598e575f80fd5b81516001600160401b038111156159a3575f80fd5b8201601f810184136159b3575f80fd5b80516159c16141b78261449f565b808282526020820191506020606084028501019250868311156159e2575f80fd5b6020840193505b828410156143ee5760608488031215615a00575f80fd5b615a08614122565b8451615a1381614486565b8152602085810151908201526040850151615a2d81613d4e565b60408201528252606093909301926020909101906159e9565b5f60208284031215615a56575f80fd5b81516001600160401b03811115615a6b575f80fd5b820160608185031215615a7c575f80fd5b615a84614122565b815181526020820151615a9681613d4e565b602082015260408201516001600160401b03811115615ab3575f80fd5b80830192505084601f830112615ac7575f80fd5b8151615ad56141b78261449f565b80828252602082019150602060a08402860101925087831115615af6575f80fd5b6020850194505b82851015615b5b5760a08589031215615b14575f80fd5b615b1c614075565b855181526020808701518183015260408088015190830152606080880151908301526080808801519083015290835260a0909501949190910190615afd565b6040840152509095945050505050565b5f60208284031215615b7b575f80fd5b81516001600160401b03811115615b90575f80fd5b8201601f81018413615ba0575f80fd5b8051615bae6141b78261449f565b8082825260208201915060208360061b850101925086831115615bcf575f80fd5b6020840193505b828410156143ee5760408488031215615bed575f80fd5b615bf561404d565b84518152602080860151818301529083526040909401939190910190615bd6565b634e487b7160e01b5f52602160045260245ffd5b5f602082016020835280845180835260408501915060408160051b8601019250602086015f5b82811015615c8157603f19878603018452615c6c858351613df4565b94506020938401939190910190600101615c50565b50929695505050505050565b808201808211156109b7576109b7614b8156fe496e76616c696420636f756e7420746f74616c20636f6d6d656e7420616e6420666171496e76616c696420636f756e743a20746f74616c2073797374656d20616464656420746f2063617274496e76616c696420636f756e743a20746f74616c2073797374656d206661766f72697465496e76616c696420636f756e743a2072657461696c657220616464656420746f20636172747b2266726f6d223a202245636f6d496e666f2e736f6c222c22636f6465223a20a26469706673582212208683620c2b7d645c13cea607720684ec14201fd383b52a4de5c6db831bce213064736f6c634300081a0033",
			"opcodes": "PUSH1 0x80 PUSH1 0x40 MSTORE PUSH1 0x14 DUP1 SLOAD PUSH1 0x1 PUSH1 0x1 PUSH1 0xA0 SHL SUB NOT SWAP1 DUP2 AND CALLER SWAP1 DUP2 OR SWAP1 SWAP3 SSTORE PUSH1 0x13 DUP1 SLOAD PUSH1 0x1 DUP2 ADD DUP3 SSTORE PUSH0 SWAP2 SWAP1 SWAP2 MSTORE PUSH32 0x66DE8FFDA797E3DE9C05E8FC57B3BF0EC28A930D40B0D285D93C06501CF6A090 ADD DUP1 SLOAD SWAP1 SWAP2 AND SWAP1 SWAP2 OR SWAP1 SSTORE PUSH2 0x5D8B DUP1 PUSH2 0x63 PUSH0 CODECOPY PUSH0 RETURN INVALID PUSH1 0x80 PUSH1 0x40 MSTORE CALLVALUE DUP1 ISZERO PUSH2 0xF JUMPI PUSH0 DUP1 REVERT JUMPDEST POP PUSH1 0x4 CALLDATASIZE LT PUSH2 0x2DE JUMPI PUSH0 CALLDATALOAD PUSH1 0xE0 SHR DUP1 PUSH4 0x22DE34C EQ PUSH2 0x2E2 JUMPI DUP1 PUSH4 0x13BADCB8 EQ PUSH2 0x31B JUMPI DUP1 PUSH4 0x14BFD6D0 EQ PUSH2 0x331 JUMPI DUP1 PUSH4 0x158D3474 EQ PUSH2 0x351 JUMPI DUP1 PUSH4 0x1738408D EQ PUSH2 0x364 JUMPI DUP1 PUSH4 0x2075BD3C EQ PUSH2 0x383 JUMPI DUP1 PUSH4 0x2248632A EQ PUSH2 0x39C JUMPI DUP1 PUSH4 0x2C9AEFE9 EQ PUSH2 0x3BC JUMPI DUP1 PUSH4 0x32ACA62B EQ PUSH2 0x3D1 JUMPI DUP1 PUSH4 0x32F39436 EQ PUSH2 0x3E6 JUMPI DUP1 PUSH4 0x32FD9850 EQ PUSH2 0x3F9 JUMPI DUP1 PUSH4 0x35890AAD EQ PUSH2 0x419 JUMPI DUP1 PUSH4 0x3D3A9748 EQ PUSH2 0x42D JUMPI DUP1 PUSH4 0x409B2CDF EQ PUSH2 0x440 JUMPI DUP1 PUSH4 0x4323323A EQ PUSH2 0x46E JUMPI DUP1 PUSH4 0x44089CD1 EQ PUSH2 0x477 JUMPI DUP1 PUSH4 0x467956EF EQ PUSH2 0x49A JUMPI DUP1 PUSH4 0x4D5C5FD7 EQ PUSH2 0x4AF JUMPI DUP1 PUSH4 0x4E581680 EQ PUSH2 0x4C2 JUMPI DUP1 PUSH4 0x4FA3C56F EQ PUSH2 0x4EA JUMPI DUP1 PUSH4 0x5B956627 EQ PUSH2 0x4FD JUMPI DUP1 PUSH4 0x62DE6230 EQ PUSH2 0x510 JUMPI DUP1 PUSH4 0x6A7434E5 EQ PUSH2 0x523 JUMPI DUP1 PUSH4 0x6CB69F42 EQ PUSH2 0x536 JUMPI DUP1 PUSH4 0x6F2069F0 EQ PUSH2 0x53E JUMPI DUP1 PUSH4 0x70E8E53C EQ PUSH2 0x546 JUMPI DUP1 PUSH4 0x795EC6D4 EQ PUSH2 0x559 JUMPI DUP1 PUSH4 0x79D3F776 EQ PUSH2 0x570 JUMPI DUP1 PUSH4 0x7BE740C9 EQ PUSH2 0x578 JUMPI DUP1 PUSH4 0x7E0833CA EQ PUSH2 0x597 JUMPI DUP1 PUSH4 0x8286980C EQ PUSH2 0x5A0 JUMPI DUP1 PUSH4 0x86ACD564 EQ PUSH2 0x5B3 JUMPI DUP1 PUSH4 0x8AA393AC EQ PUSH2 0x5C8 JUMPI DUP1 PUSH4 0x8DA5CB5B EQ PUSH2 0x5DB JUMPI DUP1 PUSH4 0x8EF58635 EQ PUSH2 0x5EE JUMPI DUP1 PUSH4 0x9075C290 EQ PUSH2 0x601 JUMPI DUP1 PUSH4 0x92A198D5 EQ PUSH2 0x614 JUMPI DUP1 PUSH4 0x989868ED EQ PUSH2 0x627 JUMPI DUP1 PUSH4 0x9A761C4D EQ PUSH2 0x64B JUMPI DUP1 PUSH4 0x9CDE636E EQ PUSH2 0x653 JUMPI DUP1 PUSH4 0xA354F1B2 EQ PUSH2 0x65C JUMPI DUP1 PUSH4 0xAA29EAC7 EQ PUSH2 0x66F JUMPI DUP1 PUSH4 0xABB4CA99 EQ PUSH2 0x683 JUMPI DUP1 PUSH4 0xAC3B394F EQ PUSH2 0x698 JUMPI DUP1 PUSH4 0xAC5FAE69 EQ PUSH2 0x6AF JUMPI DUP1 PUSH4 0xB34210E1 EQ PUSH2 0x6B7 JUMPI DUP1 PUSH4 0xB34D644A EQ PUSH2 0x6E7 JUMPI DUP1 PUSH4 0xB94AEAD5 EQ PUSH2 0x6EF JUMPI DUP1 PUSH4 0xBC43B9CC EQ PUSH2 0x702 JUMPI DUP1 PUSH4 0xC0A22771 EQ PUSH2 0x71A JUMPI DUP1 PUSH4 0xCA6A7502 EQ PUSH2 0x72D JUMPI DUP1 PUSH4 0xCAC0E650 EQ PUSH2 0x740 JUMPI DUP1 PUSH4 0xCECE999F EQ PUSH2 0x753 JUMPI DUP1 PUSH4 0xD24043CB EQ PUSH2 0x75C JUMPI DUP1 PUSH4 0xD6376AEA EQ PUSH2 0x76F JUMPI DUP1 PUSH4 0xE27EA4A7 EQ PUSH2 0x78E JUMPI DUP1 PUSH4 0xE6801AC7 EQ PUSH2 0x7A1 JUMPI DUP1 PUSH4 0xEDA162E7 EQ PUSH2 0x7C3 JUMPI DUP1 PUSH4 0xEDAFAF63 EQ PUSH2 0x7D6 JUMPI DUP1 PUSH4 0xF53BC6E3 EQ PUSH2 0x7DE JUMPI DUP1 PUSH4 0xF5548899 EQ PUSH2 0x7E6 JUMPI DUP1 PUSH4 0xF62DD1EE EQ PUSH2 0x7EE JUMPI DUP1 PUSH4 0xF857D617 EQ PUSH2 0x7F7 JUMPI DUP1 PUSH4 0xF954ED2D EQ PUSH2 0x7FF JUMPI JUMPDEST PUSH0 DUP1 REVERT JUMPDEST PUSH2 0x2F5 PUSH2 0x2F0 CALLDATASIZE PUSH1 0x4 PUSH2 0x3D72 JUMP JUMPDEST PUSH2 0x812 JUMP JUMPDEST PUSH1 0x40 DUP1 MLOAD PUSH1 0x1 PUSH1 0x1 PUSH1 0xA0 SHL SUB SWAP1 SWAP4 AND DUP4 MSTORE PUSH1 0xFF SWAP1 SWAP2 AND PUSH1 0x20 DUP4 ADD MSTORE ADD JUMPDEST PUSH1 0x40 MLOAD DUP1 SWAP2 SUB SWAP1 RETURN JUMPDEST PUSH2 0x323 PUSH2 0x856 JUMP JUMPDEST PUSH1 0x40 MLOAD SWAP1 DUP2 MSTORE PUSH1 0x20 ADD PUSH2 0x312 JUMP JUMPDEST PUSH2 0x344 PUSH2 0x33F CALLDATASIZE PUSH1 0x4 PUSH2 0x3DA9 JUMP JUMPDEST PUSH2 0x8F0 JUMP JUMPDEST PUSH1 0x40 MLOAD PUSH2 0x312 SWAP2 SWAP1 PUSH2 0x3DC0 JUMP JUMPDEST PUSH2 0x323 PUSH2 0x35F CALLDATASIZE PUSH1 0x4 PUSH2 0x3DD4 JUMP JUMPDEST PUSH2 0x918 JUMP JUMPDEST PUSH2 0x323 PUSH2 0x372 CALLDATASIZE PUSH1 0x4 PUSH2 0x3DA9 JUMP JUMPDEST PUSH1 0xE PUSH1 0x20 MSTORE PUSH0 SWAP1 DUP2 MSTORE PUSH1 0x40 SWAP1 KECCAK256 SLOAD DUP2 JUMP JUMPDEST PUSH2 0x38B PUSH2 0x943 JUMP JUMPDEST PUSH1 0x40 MLOAD PUSH2 0x312 SWAP6 SWAP5 SWAP4 SWAP3 SWAP2 SWAP1 PUSH2 0x3FE9 JUMP JUMPDEST PUSH2 0x3AF PUSH2 0x3AA CALLDATASIZE PUSH1 0x4 PUSH2 0x41EC JUMP JUMPDEST PUSH2 0x983 JUMP JUMPDEST PUSH1 0x40 MLOAD PUSH2 0x312 SWAP2 SWAP1 PUSH2 0x422F JUMP JUMPDEST PUSH2 0x3C4 PUSH2 0x9BD JUMP JUMPDEST PUSH1 0x40 MLOAD PUSH2 0x312 SWAP2 SWAP1 PUSH2 0x4241 JUMP JUMPDEST PUSH2 0x3E4 PUSH2 0x3DF CALLDATASIZE PUSH1 0x4 PUSH2 0x3DA9 JUMP JUMPDEST PUSH2 0xA36 JUMP JUMPDEST STOP JUMPDEST PUSH1 0x15 SLOAD PUSH2 0x344 SWAP1 PUSH1 0x1 PUSH1 0x1 PUSH1 0xA0 SHL SUB AND DUP2 JUMP JUMPDEST PUSH2 0x40C PUSH2 0x407 CALLDATASIZE PUSH1 0x4 PUSH2 0x3DA9 JUMP JUMPDEST PUSH2 0xA76 JUMP JUMPDEST PUSH1 0x40 MLOAD PUSH2 0x312 SWAP2 SWAP1 PUSH2 0x429F JUMP JUMPDEST CALLER PUSH0 SWAP1 DUP2 MSTORE PUSH1 0x7 PUSH1 0x20 MSTORE PUSH1 0x40 SWAP1 KECCAK256 SLOAD PUSH2 0x323 JUMP JUMPDEST PUSH2 0x3E4 PUSH2 0x43B CALLDATASIZE PUSH1 0x4 PUSH2 0x42B1 JUMP JUMPDEST PUSH2 0xAD5 JUMP JUMPDEST PUSH2 0x453 PUSH2 0x44E CALLDATASIZE PUSH1 0x4 PUSH2 0x3DA9 JUMP JUMPDEST PUSH2 0xB1F JUMP JUMPDEST PUSH1 0x40 DUP1 MLOAD SWAP4 DUP5 MSTORE PUSH1 0x20 DUP5 ADD SWAP3 SWAP1 SWAP3 MSTORE SWAP1 DUP3 ADD MSTORE PUSH1 0x60 ADD PUSH2 0x312 JUMP JUMPDEST PUSH2 0x323 PUSH1 0x2 SLOAD DUP2 JUMP JUMPDEST PUSH2 0x48A PUSH2 0x485 CALLDATASIZE PUSH1 0x4 PUSH2 0x4350 JUMP JUMPDEST PUSH2 0xB50 JUMP JUMPDEST PUSH1 0x40 MLOAD SWAP1 ISZERO ISZERO DUP2 MSTORE PUSH1 0x20 ADD PUSH2 0x312 JUMP JUMPDEST PUSH2 0x4A2 PUSH2 0xBA3 JUMP JUMPDEST PUSH1 0x40 MLOAD PUSH2 0x312 SWAP2 SWAP1 PUSH2 0x436B JUMP JUMPDEST PUSH1 0x17 SLOAD PUSH2 0x344 SWAP1 PUSH1 0x1 PUSH1 0x1 PUSH1 0xA0 SHL SUB AND DUP2 JUMP JUMPDEST PUSH2 0x4D5 PUSH2 0x4D0 CALLDATASIZE PUSH1 0x4 PUSH2 0x3D72 JUMP JUMPDEST PUSH2 0xD1E JUMP JUMPDEST PUSH1 0x40 DUP1 MLOAD SWAP3 DUP4 MSTORE PUSH1 0x20 DUP4 ADD SWAP2 SWAP1 SWAP2 MSTORE ADD PUSH2 0x312 JUMP JUMPDEST PUSH2 0x323 PUSH2 0x4F8 CALLDATASIZE PUSH1 0x4 PUSH2 0x3DA9 JUMP JUMPDEST PUSH2 0xD56 JUMP JUMPDEST PUSH2 0x3E4 PUSH2 0x50B CALLDATASIZE PUSH1 0x4 PUSH2 0x3D72 JUMP JUMPDEST PUSH2 0xD75 JUMP JUMPDEST PUSH2 0x48A PUSH2 0x51E CALLDATASIZE PUSH1 0x4 PUSH2 0x4350 JUMP JUMPDEST PUSH2 0xEC6 JUMP JUMPDEST PUSH2 0x3E4 PUSH2 0x531 CALLDATASIZE PUSH1 0x4 PUSH2 0x437D JUMP JUMPDEST PUSH2 0xF1A JUMP JUMPDEST PUSH2 0x453 PUSH2 0x152B JUMP JUMPDEST PUSH2 0x3E4 PUSH2 0x15CC JUMP JUMPDEST PUSH2 0x40C PUSH2 0x554 CALLDATASIZE PUSH1 0x4 PUSH2 0x3DA9 JUMP JUMPDEST PUSH2 0x1629 JUMP JUMPDEST PUSH2 0x561 PUSH2 0x1686 JUMP JUMPDEST PUSH1 0x40 MLOAD PUSH2 0x312 SWAP4 SWAP3 SWAP2 SWAP1 PUSH2 0x43B6 JUMP JUMPDEST PUSH2 0x323 PUSH0 SLOAD DUP2 JUMP JUMPDEST PUSH2 0x323 PUSH2 0x586 CALLDATASIZE PUSH1 0x4 PUSH2 0x4350 JUMP JUMPDEST PUSH1 0x6 PUSH1 0x20 MSTORE PUSH0 SWAP1 DUP2 MSTORE PUSH1 0x40 SWAP1 KECCAK256 SLOAD DUP2 JUMP JUMPDEST PUSH2 0x323 PUSH1 0x4 SLOAD DUP2 JUMP JUMPDEST PUSH2 0x3E4 PUSH2 0x5AE CALLDATASIZE PUSH1 0x4 PUSH2 0x3DA9 JUMP JUMPDEST PUSH2 0x1979 JUMP JUMPDEST PUSH2 0x5BB PUSH2 0x1AB3 JUMP JUMPDEST PUSH1 0x40 MLOAD PUSH2 0x312 SWAP2 SWAP1 PUSH2 0x43F8 JUMP JUMPDEST PUSH2 0x3E4 PUSH2 0x5D6 CALLDATASIZE PUSH1 0x4 PUSH2 0x4417 JUMP JUMPDEST PUSH2 0x1D8A JUMP JUMPDEST PUSH1 0x14 SLOAD PUSH2 0x344 SWAP1 PUSH1 0x1 PUSH1 0x1 PUSH1 0xA0 SHL SUB AND DUP2 JUMP JUMPDEST PUSH2 0x3E4 PUSH2 0x5FC CALLDATASIZE PUSH1 0x4 PUSH2 0x4526 JUMP JUMPDEST PUSH2 0x2078 JUMP JUMPDEST PUSH2 0x4D5 PUSH2 0x60F CALLDATASIZE PUSH1 0x4 PUSH2 0x4606 JUMP JUMPDEST PUSH2 0x25B4 JUMP JUMPDEST PUSH2 0x3E4 PUSH2 0x622 CALLDATASIZE PUSH1 0x4 PUSH2 0x4350 JUMP JUMPDEST PUSH2 0x25DE JUMP JUMPDEST PUSH2 0x63A PUSH2 0x635 CALLDATASIZE PUSH1 0x4 PUSH2 0x3D72 JUMP JUMPDEST PUSH2 0x26CC JUMP JUMPDEST PUSH1 0x40 MLOAD PUSH2 0x312 SWAP6 SWAP5 SWAP4 SWAP3 SWAP2 SWAP1 PUSH2 0x4647 JUMP JUMPDEST PUSH2 0x4A2 PUSH2 0x2834 JUMP JUMPDEST PUSH2 0x323 PUSH1 0x1 SLOAD DUP2 JUMP JUMPDEST PUSH1 0x16 SLOAD PUSH2 0x344 SWAP1 PUSH1 0x1 PUSH1 0x1 PUSH1 0xA0 SHL SUB AND DUP2 JUMP JUMPDEST CALLER PUSH0 SWAP1 DUP2 MSTORE PUSH1 0x6 PUSH1 0x20 MSTORE PUSH1 0x40 SWAP1 KECCAK256 SLOAD PUSH2 0x323 JUMP JUMPDEST PUSH2 0x68B PUSH2 0x2A2E JUMP JUMPDEST PUSH1 0x40 MLOAD PUSH2 0x312 SWAP2 SWAP1 PUSH2 0x46D2 JUMP JUMPDEST PUSH2 0x6A0 PUSH2 0x2A9F JUMP JUMPDEST PUSH1 0x40 MLOAD PUSH2 0x312 SWAP4 SWAP3 SWAP2 SWAP1 PUSH2 0x489D JUMP JUMPDEST PUSH2 0x323 PUSH2 0x2B98 JUMP JUMPDEST PUSH2 0x3E4 PUSH2 0x6C5 CALLDATASIZE PUSH1 0x4 PUSH2 0x3DA9 JUMP JUMPDEST PUSH0 SWAP1 DUP2 MSTORE PUSH1 0xB PUSH1 0x20 SWAP1 DUP2 MSTORE PUSH1 0x40 DUP3 KECCAK256 DUP1 SLOAD PUSH1 0x1 DUP2 ADD DUP3 SSTORE SWAP1 DUP4 MSTORE SWAP2 KECCAK256 TIMESTAMP SWAP2 ADD SSTORE JUMP JUMPDEST PUSH2 0x3E4 PUSH2 0x2C2A JUMP JUMPDEST PUSH2 0x323 PUSH2 0x6FD CALLDATASIZE PUSH1 0x4 PUSH2 0x3DD4 JUMP JUMPDEST PUSH2 0x2C39 JUMP JUMPDEST PUSH2 0x70A PUSH2 0x2C52 JUMP JUMPDEST PUSH1 0x40 MLOAD PUSH2 0x312 SWAP5 SWAP4 SWAP3 SWAP2 SWAP1 PUSH2 0x492D JUMP JUMPDEST PUSH2 0x3E4 PUSH2 0x728 CALLDATASIZE PUSH1 0x4 PUSH2 0x4350 JUMP JUMPDEST PUSH2 0x2CA0 JUMP JUMPDEST PUSH2 0x2F5 PUSH2 0x73B CALLDATASIZE PUSH1 0x4 PUSH2 0x3DA9 JUMP JUMPDEST PUSH2 0x2DA1 JUMP JUMPDEST PUSH2 0x48A PUSH2 0x74E CALLDATASIZE PUSH1 0x4 PUSH2 0x4350 JUMP JUMPDEST PUSH2 0x2DD9 JUMP JUMPDEST PUSH2 0x323 PUSH1 0x5 SLOAD DUP2 JUMP JUMPDEST PUSH2 0x3E4 PUSH2 0x76A CALLDATASIZE PUSH1 0x4 PUSH2 0x495D JUMP JUMPDEST PUSH2 0x2E2D JUMP JUMPDEST PUSH2 0x323 PUSH2 0x77D CALLDATASIZE PUSH1 0x4 PUSH2 0x4350 JUMP JUMPDEST PUSH1 0x7 PUSH1 0x20 MSTORE PUSH0 SWAP1 DUP2 MSTORE PUSH1 0x40 SWAP1 KECCAK256 SLOAD DUP2 JUMP JUMPDEST PUSH2 0x63A PUSH2 0x79C CALLDATASIZE PUSH1 0x4 PUSH2 0x3DA9 JUMP JUMPDEST PUSH2 0x2F85 JUMP JUMPDEST PUSH2 0x7B4 PUSH2 0x7AF CALLDATASIZE PUSH1 0x4 PUSH2 0x4350 JUMP JUMPDEST PUSH2 0x2FB3 JUMP JUMPDEST PUSH1 0x40 MLOAD PUSH2 0x312 SWAP4 SWAP3 SWAP2 SWAP1 PUSH2 0x49AD JUMP JUMPDEST PUSH2 0x3E4 PUSH2 0x7D1 CALLDATASIZE PUSH1 0x4 PUSH2 0x4350 JUMP JUMPDEST PUSH2 0x31B6 JUMP JUMPDEST PUSH2 0x5BB PUSH2 0x31EC JUMP JUMPDEST PUSH2 0x40C PUSH2 0x3444 JUMP JUMPDEST PUSH2 0x3E4 PUSH2 0x3524 JUMP JUMPDEST PUSH2 0x323 PUSH1 0x3 SLOAD DUP2 JUMP JUMPDEST PUSH2 0x3E4 PUSH2 0x3533 JUMP JUMPDEST PUSH2 0x3E4 PUSH2 0x80D CALLDATASIZE PUSH1 0x4 PUSH2 0x4350 JUMP JUMPDEST PUSH2 0x3542 JUMP JUMPDEST PUSH1 0xD PUSH1 0x20 MSTORE DUP2 PUSH0 MSTORE PUSH1 0x40 PUSH0 KECCAK256 DUP2 DUP2 SLOAD DUP2 LT PUSH2 0x82B JUMPI PUSH0 DUP1 REVERT JUMPDEST PUSH0 SWAP2 DUP3 MSTORE PUSH1 0x20 SWAP1 SWAP2 KECCAK256 PUSH1 0x4 SWAP1 SWAP2 MUL ADD SLOAD PUSH1 0x1 PUSH1 0x1 PUSH1 0xA0 SHL SUB DUP2 AND SWAP3 POP PUSH1 0x1 PUSH1 0xA0 SHL SWAP1 DIV PUSH1 0xFF AND SWAP1 POP DUP3 JUMP JUMPDEST PUSH1 0x17 SLOAD PUSH1 0x40 MLOAD PUSH4 0x588F1E0D PUSH1 0xE1 SHL DUP2 MSTORE PUSH0 SWAP2 PUSH1 0x1 PUSH1 0x1 PUSH1 0xA0 SHL SUB AND SWAP1 PUSH4 0xB11E3C1A SWAP1 PUSH2 0x886 SWAP1 CALLER SWAP1 PUSH1 0x4 ADD PUSH2 0x3DC0 JUMP JUMPDEST PUSH1 0x20 PUSH1 0x40 MLOAD DUP1 DUP4 SUB DUP2 DUP7 GAS STATICCALL ISZERO DUP1 ISZERO PUSH2 0x8A1 JUMPI RETURNDATASIZE PUSH0 DUP1 RETURNDATACOPY RETURNDATASIZE PUSH0 REVERT JUMPDEST POP POP POP POP PUSH1 0x40 MLOAD RETURNDATASIZE PUSH1 0x1F NOT PUSH1 0x1F DUP3 ADD AND DUP3 ADD DUP1 PUSH1 0x40 MSTORE POP DUP2 ADD SWAP1 PUSH2 0x8C5 SWAP2 SWAP1 PUSH2 0x4A7D JUMP JUMPDEST PUSH2 0x8EA JUMPI PUSH1 0x40 MLOAD PUSH3 0x461BCD PUSH1 0xE5 SHL DUP2 MSTORE PUSH1 0x4 ADD PUSH2 0x8E1 SWAP1 PUSH2 0x4A98 JUMP JUMPDEST PUSH1 0x40 MLOAD DUP1 SWAP2 SUB SWAP1 REVERT JUMPDEST POP PUSH0 SLOAD SWAP1 JUMP JUMPDEST PUSH1 0x13 DUP2 DUP2 SLOAD DUP2 LT PUSH2 0x8FF JUMPI PUSH0 DUP1 REVERT JUMPDEST PUSH0 SWAP2 DUP3 MSTORE PUSH1 0x20 SWAP1 SWAP2 KECCAK256 ADD SLOAD PUSH1 0x1 PUSH1 0x1 PUSH1 0xA0 SHL SUB AND SWAP1 POP DUP2 JUMP JUMPDEST PUSH1 0xA PUSH1 0x20 MSTORE DUP2 PUSH0 MSTORE PUSH1 0x40 PUSH0 KECCAK256 DUP2 DUP2 SLOAD DUP2 LT PUSH2 0x931 JUMPI PUSH0 DUP1 REVERT JUMPDEST SWAP1 PUSH0 MSTORE PUSH1 0x20 PUSH0 KECCAK256 ADD PUSH0 SWAP2 POP SWAP2 POP POP SLOAD DUP2 JUMP JUMPDEST PUSH1 0x60 PUSH0 DUP1 PUSH1 0x60 DUP1 PUSH2 0x952 PUSH2 0x1AB3 JUMP JUMPDEST SWAP5 POP PUSH2 0x95C PUSH2 0x856 JUMP JUMPDEST SWAP4 POP PUSH2 0x966 PUSH2 0x2B98 JUMP JUMPDEST SWAP3 POP PUSH2 0x970 PUSH2 0x2834 JUMP JUMPDEST SWAP2 POP PUSH2 0x97A PUSH2 0x3444 JUMP JUMPDEST SWAP1 POP SWAP1 SWAP2 SWAP3 SWAP4 SWAP5 JUMP JUMPDEST PUSH1 0x60 PUSH0 PUSH2 0x98F DUP5 PUSH2 0x3579 JUMP JUMPDEST SWAP1 POP DUP1 DUP4 PUSH1 0x40 MLOAD PUSH1 0x20 ADD PUSH2 0x9A4 SWAP3 SWAP2 SWAP1 PUSH2 0x4B06 JUMP JUMPDEST PUSH1 0x40 MLOAD PUSH1 0x20 DUP2 DUP4 SUB SUB DUP2 MSTORE SWAP1 PUSH1 0x40 MSTORE SWAP2 POP POP JUMPDEST SWAP3 SWAP2 POP POP JUMP JUMPDEST PUSH1 0x60 PUSH1 0xF DUP1 SLOAD DUP1 PUSH1 0x20 MUL PUSH1 0x20 ADD PUSH1 0x40 MLOAD SWAP1 DUP2 ADD PUSH1 0x40 MSTORE DUP1 SWAP3 SWAP2 SWAP1 DUP2 DUP2 MSTORE PUSH1 0x20 ADD PUSH0 SWAP1 JUMPDEST DUP3 DUP3 LT ISZERO PUSH2 0xA2D JUMPI DUP4 DUP3 SWAP1 PUSH0 MSTORE PUSH1 0x20 PUSH0 KECCAK256 SWAP1 PUSH1 0x3 MUL ADD PUSH1 0x40 MLOAD DUP1 PUSH1 0x60 ADD PUSH1 0x40 MSTORE SWAP1 DUP2 PUSH0 DUP3 ADD SLOAD DUP2 MSTORE PUSH1 0x20 ADD PUSH1 0x1 DUP3 ADD SLOAD DUP2 MSTORE PUSH1 0x20 ADD PUSH1 0x2 DUP3 ADD SLOAD DUP2 MSTORE POP POP DUP2 MSTORE PUSH1 0x20 ADD SWAP1 PUSH1 0x1 ADD SWAP1 PUSH2 0x9E0 JUMP JUMPDEST POP POP POP POP SWAP1 POP SWAP1 JUMP JUMPDEST PUSH0 DUP2 DUP2 MSTORE PUSH1 0xE PUSH1 0x20 MSTORE PUSH1 0x40 DUP2 KECCAK256 DUP1 SLOAD SWAP2 PUSH2 0xA4F DUP4 PUSH2 0x4B95 JUMP JUMPDEST SWAP1 SWAP2 SSTORE POP POP PUSH0 SWAP1 DUP2 MSTORE PUSH1 0xA PUSH1 0x20 SWAP1 DUP2 MSTORE PUSH1 0x40 DUP3 KECCAK256 DUP1 SLOAD PUSH1 0x1 DUP2 ADD DUP3 SSTORE SWAP1 DUP4 MSTORE SWAP2 KECCAK256 TIMESTAMP SWAP2 ADD SSTORE JUMP JUMPDEST PUSH0 DUP2 DUP2 MSTORE PUSH1 0xA PUSH1 0x20 SWAP1 DUP2 MSTORE PUSH1 0x40 SWAP2 DUP3 SWAP1 KECCAK256 DUP1 SLOAD DUP4 MLOAD DUP2 DUP5 MUL DUP2 ADD DUP5 ADD SWAP1 SWAP5 MSTORE DUP1 DUP5 MSTORE PUSH1 0x60 SWAP4 SWAP3 DUP4 ADD DUP3 DUP3 DUP1 ISZERO PUSH2 0xAC9 JUMPI PUSH1 0x20 MUL DUP3 ADD SWAP2 SWAP1 PUSH0 MSTORE PUSH1 0x20 PUSH0 KECCAK256 SWAP1 JUMPDEST DUP2 SLOAD DUP2 MSTORE PUSH1 0x20 ADD SWAP1 PUSH1 0x1 ADD SWAP1 DUP1 DUP4 GT PUSH2 0xAB5 JUMPI JUMPDEST POP POP POP POP POP SWAP1 POP SWAP2 SWAP1 POP JUMP JUMPDEST PUSH1 0x11 DUP4 DUP4 PUSH1 0x40 MLOAD PUSH2 0xAE7 SWAP3 SWAP2 SWAP1 PUSH2 0x4BAD JUMP JUMPDEST SWAP1 DUP2 MSTORE PUSH1 0x40 MLOAD PUSH1 0x20 SWAP2 DUP2 SWAP1 SUB DUP3 ADD SWAP1 KECCAK256 DUP1 SLOAD PUSH1 0x1 DUP1 DUP3 ADD DUP4 SSTORE PUSH0 SWAP3 DUP4 MSTORE SWAP2 DUP4 SWAP1 KECCAK256 DUP5 MLOAD PUSH1 0x2 SWAP1 SWAP3 MUL ADD SWAP1 DUP2 SSTORE SWAP3 SWAP1 SWAP2 ADD MLOAD SWAP2 ADD SSTORE POP POP JUMP JUMPDEST PUSH1 0xF DUP2 DUP2 SLOAD DUP2 LT PUSH2 0xB2E JUMPI PUSH0 DUP1 REVERT JUMPDEST PUSH0 SWAP2 DUP3 MSTORE PUSH1 0x20 SWAP1 SWAP2 KECCAK256 PUSH1 0x3 SWAP1 SWAP2 MUL ADD DUP1 SLOAD PUSH1 0x1 DUP3 ADD SLOAD PUSH1 0x2 SWAP1 SWAP3 ADD SLOAD SWAP1 SWAP3 POP DUP4 JUMP JUMPDEST PUSH1 0x14 SLOAD PUSH0 SWAP1 PUSH1 0x1 PUSH1 0x1 PUSH1 0xA0 SHL SUB AND CALLER DUP2 EQ PUSH2 0xB7D JUMPI PUSH1 0x40 MLOAD PUSH3 0x461BCD PUSH1 0xE5 SHL DUP2 MSTORE PUSH1 0x4 ADD PUSH2 0x8E1 SWAP1 PUSH2 0x4BBC JUMP JUMPDEST PUSH1 0x15 DUP1 SLOAD PUSH1 0x1 PUSH1 0x1 PUSH1 0xA0 SHL SUB NOT AND PUSH1 0x1 PUSH1 0x1 PUSH1 0xA0 SHL SUB DUP6 AND OR SWAP1 SSTORE PUSH1 0x1 SWAP2 POP JUMPDEST POP SWAP2 SWAP1 POP JUMP JUMPDEST CALLER PUSH0 SWAP1 DUP2 MSTORE PUSH1 0xD PUSH1 0x20 SWAP1 DUP2 MSTORE PUSH1 0x40 DUP1 DUP4 KECCAK256 DUP1 SLOAD DUP3 MLOAD DUP2 DUP6 MUL DUP2 ADD DUP6 ADD SWAP1 SWAP4 MSTORE DUP1 DUP4 MSTORE PUSH1 0x60 SWAP5 SWAP3 SWAP4 SWAP2 SWAP3 SWAP1 SWAP2 DUP5 ADD JUMPDEST DUP3 DUP3 LT ISZERO PUSH2 0xA2D JUMPI PUSH0 DUP5 DUP2 MSTORE PUSH1 0x20 SWAP1 DUP2 SWAP1 KECCAK256 PUSH1 0x40 DUP1 MLOAD PUSH1 0xA0 DUP2 ADD DUP3 MSTORE PUSH1 0x4 DUP7 MUL SWAP1 SWAP3 ADD DUP1 SLOAD PUSH1 0x1 PUSH1 0x1 PUSH1 0xA0 SHL SUB DUP2 AND DUP5 MSTORE PUSH1 0x1 PUSH1 0xA0 SHL SWAP1 DIV PUSH1 0xFF AND DUP4 DUP6 ADD MSTORE PUSH1 0x1 DUP2 ADD DUP1 SLOAD DUP4 MLOAD DUP2 DUP8 MUL DUP2 ADD DUP8 ADD DUP6 MSTORE DUP2 DUP2 MSTORE SWAP5 SWAP6 SWAP3 SWAP5 SWAP4 DUP7 ADD SWAP4 SWAP3 DUP4 ADD DUP3 DUP3 DUP1 ISZERO PUSH2 0xC5A JUMPI PUSH1 0x20 MUL DUP3 ADD SWAP2 SWAP1 PUSH0 MSTORE PUSH1 0x20 PUSH0 KECCAK256 SWAP1 JUMPDEST DUP2 SLOAD DUP2 MSTORE PUSH1 0x20 ADD SWAP1 PUSH1 0x1 ADD SWAP1 DUP1 DUP4 GT PUSH2 0xC46 JUMPI JUMPDEST POP POP POP POP POP DUP2 MSTORE PUSH1 0x20 ADD PUSH1 0x2 DUP3 ADD DUP1 SLOAD DUP1 PUSH1 0x20 MUL PUSH1 0x20 ADD PUSH1 0x40 MLOAD SWAP1 DUP2 ADD PUSH1 0x40 MSTORE DUP1 SWAP3 SWAP2 SWAP1 DUP2 DUP2 MSTORE PUSH1 0x20 ADD DUP3 DUP1 SLOAD DUP1 ISZERO PUSH2 0xCB0 JUMPI PUSH1 0x20 MUL DUP3 ADD SWAP2 SWAP1 PUSH0 MSTORE PUSH1 0x20 PUSH0 KECCAK256 SWAP1 JUMPDEST DUP2 SLOAD DUP2 MSTORE PUSH1 0x20 ADD SWAP1 PUSH1 0x1 ADD SWAP1 DUP1 DUP4 GT PUSH2 0xC9C JUMPI JUMPDEST POP POP POP POP POP DUP2 MSTORE PUSH1 0x20 ADD PUSH1 0x3 DUP3 ADD DUP1 SLOAD DUP1 PUSH1 0x20 MUL PUSH1 0x20 ADD PUSH1 0x40 MLOAD SWAP1 DUP2 ADD PUSH1 0x40 MSTORE DUP1 SWAP3 SWAP2 SWAP1 DUP2 DUP2 MSTORE PUSH1 0x20 ADD DUP3 DUP1 SLOAD DUP1 ISZERO PUSH2 0xD06 JUMPI PUSH1 0x20 MUL DUP3 ADD SWAP2 SWAP1 PUSH0 MSTORE PUSH1 0x20 PUSH0 KECCAK256 SWAP1 JUMPDEST DUP2 SLOAD DUP2 MSTORE PUSH1 0x20 ADD SWAP1 PUSH1 0x1 ADD SWAP1 DUP1 DUP4 GT PUSH2 0xCF2 JUMPI JUMPDEST POP POP POP POP POP DUP2 MSTORE POP POP DUP2 MSTORE PUSH1 0x20 ADD SWAP1 PUSH1 0x1 ADD SWAP1 PUSH2 0xBD1 JUMP JUMPDEST PUSH1 0x10 PUSH1 0x20 MSTORE DUP2 PUSH0 MSTORE PUSH1 0x40 PUSH0 KECCAK256 DUP2 DUP2 SLOAD DUP2 LT PUSH2 0xD37 JUMPI PUSH0 DUP1 REVERT JUMPDEST PUSH0 SWAP2 DUP3 MSTORE PUSH1 0x20 SWAP1 SWAP2 KECCAK256 PUSH1 0x2 SWAP1 SWAP2 MUL ADD DUP1 SLOAD PUSH1 0x1 SWAP1 SWAP2 ADD SLOAD SWAP1 SWAP3 POP SWAP1 POP DUP3 JUMP JUMPDEST PUSH1 0x12 DUP2 DUP2 SLOAD DUP2 LT PUSH2 0xD65 JUMPI PUSH0 DUP1 REVERT JUMPDEST PUSH0 SWAP2 DUP3 MSTORE PUSH1 0x20 SWAP1 SWAP2 KECCAK256 ADD SLOAD SWAP1 POP DUP2 JUMP JUMPDEST PUSH0 DUP1 JUMPDEST PUSH1 0x1 PUSH1 0x1 PUSH1 0xA0 SHL SUB DUP5 AND PUSH0 SWAP1 DUP2 MSTORE PUSH1 0x10 PUSH1 0x20 MSTORE PUSH1 0x40 SWAP1 KECCAK256 SLOAD PUSH1 0xFF DUP3 AND LT ISZERO PUSH2 0xE3A JUMPI PUSH1 0x1 PUSH1 0x1 PUSH1 0xA0 SHL SUB DUP5 AND PUSH0 SWAP1 DUP2 MSTORE PUSH1 0x10 PUSH1 0x20 MSTORE PUSH1 0x40 SWAP1 KECCAK256 DUP1 SLOAD DUP5 SWAP2 SWAP1 PUSH1 0xFF DUP5 AND SWAP1 DUP2 LT PUSH2 0xDC9 JUMPI PUSH2 0xDC9 PUSH2 0x4C15 JUMP JUMPDEST SWAP1 PUSH0 MSTORE PUSH1 0x20 PUSH0 KECCAK256 SWAP1 PUSH1 0x2 MUL ADD PUSH0 ADD SLOAD SUB PUSH2 0xE28 JUMPI PUSH1 0x1 PUSH1 0x1 PUSH1 0xA0 SHL SUB DUP5 AND PUSH0 SWAP1 DUP2 MSTORE PUSH1 0x10 PUSH1 0x20 MSTORE PUSH1 0x40 SWAP1 KECCAK256 DUP1 SLOAD TIMESTAMP SWAP2 SWAP1 PUSH1 0xFF DUP5 AND SWAP1 DUP2 LT PUSH2 0xE0C JUMPI PUSH2 0xE0C PUSH2 0x4C15 JUMP JUMPDEST SWAP1 PUSH0 MSTORE PUSH1 0x20 PUSH0 KECCAK256 SWAP1 PUSH1 0x2 MUL ADD PUSH1 0x1 ADD DUP2 SWAP1 SSTORE POP PUSH1 0x1 SWAP2 POP PUSH2 0xE3A JUMP JUMPDEST DUP1 PUSH2 0xE32 DUP2 PUSH2 0x4C29 JUMP JUMPDEST SWAP2 POP POP PUSH2 0xD78 JUMP JUMPDEST POP DUP1 PUSH2 0xE8C JUMPI PUSH1 0x40 DUP1 MLOAD DUP1 DUP3 ADD DUP3 MSTORE DUP4 DUP2 MSTORE TIMESTAMP PUSH1 0x20 DUP1 DUP4 ADD SWAP2 DUP3 MSTORE PUSH1 0x1 PUSH1 0x1 PUSH1 0xA0 SHL SUB DUP8 AND PUSH0 SWAP1 DUP2 MSTORE PUSH1 0x10 DUP3 MSTORE SWAP4 DUP5 KECCAK256 DUP1 SLOAD PUSH1 0x1 DUP2 DUP2 ADD DUP4 SSTORE SWAP2 DUP7 MSTORE SWAP2 SWAP1 SWAP5 KECCAK256 SWAP3 MLOAD PUSH1 0x2 SWAP1 SWAP2 MUL SWAP1 SWAP3 ADD SWAP2 DUP3 SSTORE MLOAD SWAP2 ADD SSTORE JUMPDEST POP POP PUSH1 0x12 DUP1 SLOAD PUSH1 0x1 DUP2 ADD DUP3 SSTORE PUSH0 SWAP2 SWAP1 SWAP2 MSTORE TIMESTAMP PUSH32 0xBB8A6A4669BA250D26CD7A459ECA9D215F8307E33AEBE50379BC5A3617EC3444 SWAP1 SWAP2 ADD SSTORE POP JUMP JUMPDEST PUSH1 0x14 SLOAD PUSH0 SWAP1 PUSH1 0x1 PUSH1 0x1 PUSH1 0xA0 SHL SUB AND CALLER DUP2 EQ PUSH2 0xEF3 JUMPI PUSH1 0x40 MLOAD PUSH3 0x461BCD PUSH1 0xE5 SHL DUP2 MSTORE PUSH1 0x4 ADD PUSH2 0x8E1 SWAP1 PUSH2 0x4BBC JUMP JUMPDEST PUSH1 0x16 DUP1 SLOAD PUSH1 0x1 PUSH1 0x1 PUSH1 0xA0 SHL SUB DUP6 AND PUSH1 0x1 PUSH1 0x1 PUSH1 0xA0 SHL SUB NOT SWAP1 SWAP2 AND OR SWAP1 SSTORE PUSH1 0x1 SWAP2 POP POP SWAP2 SWAP1 POP JUMP JUMPDEST PUSH1 0x8 SLOAD PUSH0 SWAP1 DUP2 SWAP1 PUSH1 0x1 PUSH1 0x1 PUSH1 0x40 SHL SUB DUP2 GT ISZERO PUSH2 0xF38 JUMPI PUSH2 0xF38 PUSH2 0x4039 JUMP JUMPDEST PUSH1 0x40 MLOAD SWAP1 DUP1 DUP3 MSTORE DUP1 PUSH1 0x20 MUL PUSH1 0x20 ADD DUP3 ADD PUSH1 0x40 MSTORE DUP1 ISZERO PUSH2 0xF61 JUMPI DUP2 PUSH1 0x20 ADD PUSH1 0x20 DUP3 MUL DUP1 CALLDATASIZE DUP4 CALLDATACOPY ADD SWAP1 POP JUMPDEST POP SWAP1 POP PUSH0 JUMPDEST PUSH1 0x8 SLOAD DUP2 LT ISZERO PUSH2 0x12AF JUMPI PUSH2 0x1021 PUSH1 0x8 DUP3 DUP2 SLOAD DUP2 LT PUSH2 0xF86 JUMPI PUSH2 0xF86 PUSH2 0x4C15 JUMP JUMPDEST SWAP1 PUSH0 MSTORE PUSH1 0x20 PUSH0 KECCAK256 SWAP1 PUSH1 0x6 MUL ADD PUSH0 ADD DUP1 SLOAD PUSH2 0xF9F SWAP1 PUSH2 0x4C47 JUMP JUMPDEST DUP1 PUSH1 0x1F ADD PUSH1 0x20 DUP1 SWAP2 DIV MUL PUSH1 0x20 ADD PUSH1 0x40 MLOAD SWAP1 DUP2 ADD PUSH1 0x40 MSTORE DUP1 SWAP3 SWAP2 SWAP1 DUP2 DUP2 MSTORE PUSH1 0x20 ADD DUP3 DUP1 SLOAD PUSH2 0xFCB SWAP1 PUSH2 0x4C47 JUMP JUMPDEST DUP1 ISZERO PUSH2 0x1016 JUMPI DUP1 PUSH1 0x1F LT PUSH2 0xFED JUMPI PUSH2 0x100 DUP1 DUP4 SLOAD DIV MUL DUP4 MSTORE SWAP2 PUSH1 0x20 ADD SWAP2 PUSH2 0x1016 JUMP JUMPDEST DUP3 ADD SWAP2 SWAP1 PUSH0 MSTORE PUSH1 0x20 PUSH0 KECCAK256 SWAP1 JUMPDEST DUP2 SLOAD DUP2 MSTORE SWAP1 PUSH1 0x1 ADD SWAP1 PUSH1 0x20 ADD DUP1 DUP4 GT PUSH2 0xFF9 JUMPI DUP3 SWAP1 SUB PUSH1 0x1F AND DUP3 ADD SWAP2 JUMPDEST POP POP POP POP POP DUP6 PUSH2 0x3608 JUMP JUMPDEST ISZERO PUSH2 0x12A7 JUMPI PUSH1 0x8 DUP2 DUP2 SLOAD DUP2 LT PUSH2 0x1039 JUMPI PUSH2 0x1039 PUSH2 0x4C15 JUMP JUMPDEST PUSH0 SWAP2 DUP3 MSTORE PUSH1 0x20 DUP3 KECCAK256 PUSH1 0x4 PUSH1 0x6 SWAP1 SWAP3 MUL ADD ADD SLOAD SWAP4 POP JUMPDEST DUP4 DUP2 LT ISZERO PUSH2 0x1146 JUMPI PUSH1 0x16 SLOAD PUSH1 0x8 DUP1 SLOAD PUSH0 SWAP3 PUSH1 0x1 PUSH1 0x1 PUSH1 0xA0 SHL SUB AND SWAP2 PUSH4 0xB9DB15B4 SWAP2 DUP7 SWAP1 DUP2 LT PUSH2 0x107F JUMPI PUSH2 0x107F PUSH2 0x4C15 JUMP JUMPDEST SWAP1 PUSH0 MSTORE PUSH1 0x20 PUSH0 KECCAK256 SWAP1 PUSH1 0x6 MUL ADD PUSH1 0x4 ADD DUP5 DUP2 SLOAD DUP2 LT PUSH2 0x109F JUMPI PUSH2 0x109F PUSH2 0x4C15 JUMP JUMPDEST SWAP1 PUSH0 MSTORE PUSH1 0x20 PUSH0 KECCAK256 ADD SLOAD PUSH1 0x40 MLOAD DUP3 PUSH4 0xFFFFFFFF AND PUSH1 0xE0 SHL DUP2 MSTORE PUSH1 0x4 ADD PUSH2 0x10C6 SWAP2 DUP2 MSTORE PUSH1 0x20 ADD SWAP1 JUMP JUMPDEST PUSH0 PUSH1 0x40 MLOAD DUP1 DUP4 SUB DUP2 DUP7 GAS STATICCALL ISZERO DUP1 ISZERO PUSH2 0x10E0 JUMPI RETURNDATASIZE PUSH0 DUP1 RETURNDATACOPY RETURNDATASIZE PUSH0 REVERT JUMPDEST POP POP POP POP PUSH1 0x40 MLOAD RETURNDATASIZE PUSH0 DUP3 RETURNDATACOPY PUSH1 0x1F RETURNDATASIZE SWAP1 DUP2 ADD PUSH1 0x1F NOT AND DUP3 ADD PUSH1 0x40 MSTORE PUSH2 0x1107 SWAP2 SWAP1 DUP2 ADD SWAP1 PUSH2 0x5079 JUMP JUMPDEST SWAP1 POP DUP1 PUSH1 0x20 ADD MLOAD PUSH2 0x180 ADD MLOAD DUP5 DUP4 DUP2 MLOAD DUP2 LT PUSH2 0x1125 JUMPI PUSH2 0x1125 PUSH2 0x4C15 JUMP JUMPDEST PUSH1 0x1 PUSH1 0x1 PUSH1 0xA0 SHL SUB SWAP1 SWAP3 AND PUSH1 0x20 SWAP3 DUP4 MUL SWAP2 SWAP1 SWAP2 ADD SWAP1 SWAP2 ADD MSTORE POP PUSH1 0x1 ADD PUSH2 0x104E JUMP JUMPDEST POP PUSH1 0x8 DUP1 SLOAD PUSH2 0x1157 SWAP1 PUSH1 0x1 SWAP1 PUSH2 0x50AA JUMP JUMPDEST DUP2 SLOAD DUP2 LT PUSH2 0x1167 JUMPI PUSH2 0x1167 PUSH2 0x4C15 JUMP JUMPDEST SWAP1 PUSH0 MSTORE PUSH1 0x20 PUSH0 KECCAK256 SWAP1 PUSH1 0x6 MUL ADD PUSH1 0x8 DUP3 DUP2 SLOAD DUP2 LT PUSH2 0x1186 JUMPI PUSH2 0x1186 PUSH2 0x4C15 JUMP JUMPDEST PUSH0 SWAP2 DUP3 MSTORE PUSH1 0x20 SWAP1 SWAP2 KECCAK256 PUSH1 0x6 SWAP1 SWAP2 MUL ADD DUP1 PUSH2 0x11A0 DUP4 DUP3 PUSH2 0x511A JUMP JUMPDEST POP PUSH1 0x1 DUP3 DUP2 ADD DUP1 SLOAD SWAP2 DUP4 ADD DUP1 SLOAD PUSH1 0xFF NOT DUP2 AND PUSH1 0xFF SWAP1 SWAP5 AND SWAP4 DUP5 OR DUP3 SSTORE SWAP2 SLOAD PUSH1 0x1 PUSH1 0x1 PUSH1 0xA0 SHL SUB PUSH2 0x100 SWAP2 DUP3 SWAP1 DIV AND MUL PUSH1 0x1 PUSH1 0x1 PUSH1 0xA8 SHL SUB NOT SWAP1 SWAP3 AND SWAP1 SWAP3 OR OR SWAP1 SSTORE PUSH1 0x2 DUP1 DUP3 ADD SWAP1 PUSH2 0x11F3 SWAP1 DUP5 ADD DUP3 PUSH2 0x511A JUMP JUMPDEST POP PUSH1 0x3 DUP3 ADD SLOAD DUP2 PUSH1 0x3 ADD SSTORE PUSH1 0x4 DUP3 ADD DUP2 PUSH1 0x4 ADD SWAP1 DUP1 SLOAD PUSH2 0x1214 SWAP3 SWAP2 SWAP1 PUSH2 0x3C60 JUMP JUMPDEST POP PUSH1 0x5 DUP3 DUP2 ADD DUP1 SLOAD PUSH2 0x1229 SWAP3 DUP5 ADD SWAP2 SWAP1 PUSH2 0x3C60 JUMP JUMPDEST POP SWAP1 POP POP PUSH1 0x8 DUP1 SLOAD DUP1 PUSH2 0x123E JUMPI PUSH2 0x123E PUSH2 0x51E9 JUMP JUMPDEST PUSH0 DUP3 DUP2 MSTORE PUSH1 0x20 DUP2 KECCAK256 PUSH0 NOT SWAP1 SWAP3 ADD SWAP2 PUSH1 0x6 DUP4 MUL ADD SWAP1 PUSH2 0x125C DUP3 DUP3 PUSH2 0x3CAC JUMP JUMPDEST PUSH1 0x1 DUP3 ADD DUP1 SLOAD PUSH1 0x1 PUSH1 0x1 PUSH1 0xA8 SHL SUB NOT AND SWAP1 SSTORE PUSH2 0x127B PUSH1 0x2 DUP4 ADD PUSH0 PUSH2 0x3CAC JUMP JUMPDEST PUSH1 0x3 DUP3 ADD PUSH0 SWAP1 SSTORE PUSH1 0x4 DUP3 ADD PUSH0 PUSH2 0x1291 SWAP2 SWAP1 PUSH2 0x3CE6 JUMP JUMPDEST PUSH2 0x129E PUSH1 0x5 DUP4 ADD PUSH0 PUSH2 0x3CE6 JUMP JUMPDEST POP POP SWAP1 SSTORE PUSH2 0x12AF JUMP JUMPDEST PUSH1 0x1 ADD PUSH2 0xF66 JUMP JUMPDEST POP PUSH0 JUMPDEST DUP2 MLOAD DUP2 LT ISZERO PUSH2 0x1525 JUMPI PUSH0 DUP3 DUP3 DUP2 MLOAD DUP2 LT PUSH2 0x12CE JUMPI PUSH2 0x12CE PUSH2 0x4C15 JUMP JUMPDEST PUSH1 0x20 SWAP1 DUP2 MUL SWAP2 SWAP1 SWAP2 ADD DUP2 ADD MLOAD PUSH1 0x1 PUSH1 0x1 PUSH1 0xA0 SHL SUB DUP2 AND PUSH0 SWAP1 DUP2 MSTORE PUSH1 0x9 SWAP1 SWAP3 MSTORE PUSH1 0x40 DUP3 KECCAK256 SWAP1 SWAP3 POP SWAP1 JUMPDEST DUP2 SLOAD DUP2 LT ISZERO PUSH2 0x151A JUMPI PUSH2 0x13AF DUP3 DUP3 DUP2 SLOAD DUP2 LT PUSH2 0x1314 JUMPI PUSH2 0x1314 PUSH2 0x4C15 JUMP JUMPDEST SWAP1 PUSH0 MSTORE PUSH1 0x20 PUSH0 KECCAK256 SWAP1 PUSH1 0x6 MUL ADD PUSH0 ADD DUP1 SLOAD PUSH2 0x132D SWAP1 PUSH2 0x4C47 JUMP JUMPDEST DUP1 PUSH1 0x1F ADD PUSH1 0x20 DUP1 SWAP2 DIV MUL PUSH1 0x20 ADD PUSH1 0x40 MLOAD SWAP1 DUP2 ADD PUSH1 0x40 MSTORE DUP1 SWAP3 SWAP2 SWAP1 DUP2 DUP2 MSTORE PUSH1 0x20 ADD DUP3 DUP1 SLOAD PUSH2 0x1359 SWAP1 PUSH2 0x4C47 JUMP JUMPDEST DUP1 ISZERO PUSH2 0x13A4 JUMPI DUP1 PUSH1 0x1F LT PUSH2 0x137B JUMPI PUSH2 0x100 DUP1 DUP4 SLOAD DIV MUL DUP4 MSTORE SWAP2 PUSH1 0x20 ADD SWAP2 PUSH2 0x13A4 JUMP JUMPDEST DUP3 ADD SWAP2 SWAP1 PUSH0 MSTORE PUSH1 0x20 PUSH0 KECCAK256 SWAP1 JUMPDEST DUP2 SLOAD DUP2 MSTORE SWAP1 PUSH1 0x1 ADD SWAP1 PUSH1 0x20 ADD DUP1 DUP4 GT PUSH2 0x1387 JUMPI DUP3 SWAP1 SUB PUSH1 0x1F AND DUP3 ADD SWAP2 JUMPDEST POP POP POP POP POP DUP9 PUSH2 0x3608 JUMP JUMPDEST ISZERO PUSH2 0x1512 JUMPI DUP2 SLOAD DUP3 SWAP1 PUSH2 0x13C4 SWAP1 PUSH1 0x1 SWAP1 PUSH2 0x50AA JUMP JUMPDEST DUP2 SLOAD DUP2 LT PUSH2 0x13D4 JUMPI PUSH2 0x13D4 PUSH2 0x4C15 JUMP JUMPDEST SWAP1 PUSH0 MSTORE PUSH1 0x20 PUSH0 KECCAK256 SWAP1 PUSH1 0x6 MUL ADD DUP3 DUP3 DUP2 SLOAD DUP2 LT PUSH2 0x13F2 JUMPI PUSH2 0x13F2 PUSH2 0x4C15 JUMP JUMPDEST PUSH0 SWAP2 DUP3 MSTORE PUSH1 0x20 SWAP1 SWAP2 KECCAK256 PUSH1 0x6 SWAP1 SWAP2 MUL ADD DUP1 PUSH2 0x140C DUP4 DUP3 PUSH2 0x511A JUMP JUMPDEST POP PUSH1 0x1 DUP3 DUP2 ADD DUP1 SLOAD SWAP2 DUP4 ADD DUP1 SLOAD PUSH1 0xFF NOT DUP2 AND PUSH1 0xFF SWAP1 SWAP5 AND SWAP4 DUP5 OR DUP3 SSTORE SWAP2 SLOAD PUSH1 0x1 PUSH1 0x1 PUSH1 0xA0 SHL SUB PUSH2 0x100 SWAP2 DUP3 SWAP1 DIV AND MUL PUSH1 0x1 PUSH1 0x1 PUSH1 0xA8 SHL SUB NOT SWAP1 SWAP3 AND SWAP1 SWAP3 OR OR SWAP1 SSTORE PUSH1 0x2 DUP1 DUP3 ADD SWAP1 PUSH2 0x145F SWAP1 DUP5 ADD DUP3 PUSH2 0x511A JUMP JUMPDEST POP PUSH1 0x3 DUP3 ADD SLOAD DUP2 PUSH1 0x3 ADD SSTORE PUSH1 0x4 DUP3 ADD DUP2 PUSH1 0x4 ADD SWAP1 DUP1 SLOAD PUSH2 0x1480 SWAP3 SWAP2 SWAP1 PUSH2 0x3C60 JUMP JUMPDEST POP PUSH1 0x5 DUP3 DUP2 ADD DUP1 SLOAD PUSH2 0x1495 SWAP3 DUP5 ADD SWAP2 SWAP1 PUSH2 0x3C60 JUMP JUMPDEST POP SWAP1 POP POP DUP2 DUP1 SLOAD DUP1 PUSH2 0x14A9 JUMPI PUSH2 0x14A9 PUSH2 0x51E9 JUMP JUMPDEST PUSH0 DUP3 DUP2 MSTORE PUSH1 0x20 DUP2 KECCAK256 PUSH0 NOT SWAP1 SWAP3 ADD SWAP2 PUSH1 0x6 DUP4 MUL ADD SWAP1 PUSH2 0x14C7 DUP3 DUP3 PUSH2 0x3CAC JUMP JUMPDEST PUSH1 0x1 DUP3 ADD DUP1 SLOAD PUSH1 0x1 PUSH1 0x1 PUSH1 0xA8 SHL SUB NOT AND SWAP1 SSTORE PUSH2 0x14E6 PUSH1 0x2 DUP4 ADD PUSH0 PUSH2 0x3CAC JUMP JUMPDEST PUSH1 0x3 DUP3 ADD PUSH0 SWAP1 SSTORE PUSH1 0x4 DUP3 ADD PUSH0 PUSH2 0x14FC SWAP2 SWAP1 PUSH2 0x3CE6 JUMP JUMPDEST PUSH2 0x1509 PUSH1 0x5 DUP4 ADD PUSH0 PUSH2 0x3CE6 JUMP JUMPDEST POP POP SWAP1 SSTORE PUSH2 0x151A JUMP JUMPDEST PUSH1 0x1 ADD PUSH2 0x12F6 JUMP JUMPDEST POP POP POP PUSH1 0x1 ADD PUSH2 0x12B2 JUMP JUMPDEST POP POP POP POP JUMP JUMPDEST PUSH1 0x17 SLOAD PUSH1 0x40 MLOAD PUSH4 0x588F1E0D PUSH1 0xE1 SHL DUP2 MSTORE PUSH0 SWAP2 DUP3 SWAP2 DUP3 SWAP2 PUSH1 0x1 PUSH1 0x1 PUSH1 0xA0 SHL SUB AND SWAP1 PUSH4 0xB11E3C1A SWAP1 PUSH2 0x155F SWAP1 CALLER SWAP1 PUSH1 0x4 ADD PUSH2 0x3DC0 JUMP JUMPDEST PUSH1 0x20 PUSH1 0x40 MLOAD DUP1 DUP4 SUB DUP2 DUP7 GAS STATICCALL ISZERO DUP1 ISZERO PUSH2 0x157A JUMPI RETURNDATASIZE PUSH0 DUP1 RETURNDATACOPY RETURNDATASIZE PUSH0 REVERT JUMPDEST POP POP POP POP PUSH1 0x40 MLOAD RETURNDATASIZE PUSH1 0x1F NOT PUSH1 0x1F DUP3 ADD AND DUP3 ADD DUP1 PUSH1 0x40 MSTORE POP DUP2 ADD SWAP1 PUSH2 0x159E SWAP2 SWAP1 PUSH2 0x4A7D JUMP JUMPDEST PUSH2 0x15BA JUMPI PUSH1 0x40 MLOAD PUSH3 0x461BCD PUSH1 0xE5 SHL DUP2 MSTORE PUSH1 0x4 ADD PUSH2 0x8E1 SWAP1 PUSH2 0x4A98 JUMP JUMPDEST POP POP PUSH1 0x3 SLOAD PUSH1 0x4 SLOAD PUSH1 0x5 SLOAD SWAP2 SWAP4 SWAP1 SWAP3 POP JUMP JUMPDEST PUSH0 PUSH1 0x4 SLOAD GT PUSH2 0x15F4 PUSH1 0x1 PUSH1 0x40 MLOAD DUP1 PUSH1 0x60 ADD PUSH1 0x40 MSTORE DUP1 PUSH1 0x23 DUP2 MSTORE PUSH1 0x20 ADD PUSH2 0x5CA1 PUSH1 0x23 SWAP2 CODECOPY PUSH2 0x983 JUMP JUMPDEST SWAP1 PUSH2 0x1612 JUMPI PUSH1 0x40 MLOAD PUSH3 0x461BCD PUSH1 0xE5 SHL DUP2 MSTORE PUSH1 0x4 ADD PUSH2 0x8E1 SWAP2 SWAP1 PUSH2 0x422F JUMP JUMPDEST POP PUSH1 0x4 DUP1 SLOAD SWAP1 PUSH0 PUSH2 0x1622 DUP4 PUSH2 0x51FD JUMP JUMPDEST SWAP2 SWAP1 POP SSTORE POP JUMP JUMPDEST PUSH0 DUP2 DUP2 MSTORE PUSH1 0xB PUSH1 0x20 SWAP1 DUP2 MSTORE PUSH1 0x40 SWAP2 DUP3 SWAP1 KECCAK256 DUP1 SLOAD DUP4 MLOAD DUP2 DUP5 MUL DUP2 ADD DUP5 ADD SWAP1 SWAP5 MSTORE DUP1 DUP5 MSTORE PUSH1 0x60 SWAP4 SWAP3 DUP4 ADD DUP3 DUP3 DUP1 ISZERO PUSH2 0xAC9 JUMPI PUSH1 0x20 MUL DUP3 ADD SWAP2 SWAP1 PUSH0 MSTORE PUSH1 0x20 PUSH0 KECCAK256 SWAP1 DUP2 SLOAD DUP2 MSTORE PUSH1 0x20 ADD SWAP1 PUSH1 0x1 ADD SWAP1 DUP1 DUP4 GT PUSH2 0xAB5 JUMPI POP POP POP POP POP SWAP1 POP SWAP2 SWAP1 POP JUMP JUMPDEST PUSH1 0x60 DUP1 PUSH1 0x60 PUSH0 PUSH1 0x16 PUSH0 SWAP1 SLOAD SWAP1 PUSH2 0x100 EXP SWAP1 DIV PUSH1 0x1 PUSH1 0x1 PUSH1 0xA0 SHL SUB AND PUSH1 0x1 PUSH1 0x1 PUSH1 0xA0 SHL SUB AND PUSH4 0xC29B2F20 PUSH1 0x40 MLOAD DUP2 PUSH4 0xFFFFFFFF AND PUSH1 0xE0 SHL DUP2 MSTORE PUSH1 0x4 ADD PUSH0 PUSH1 0x40 MLOAD DUP1 DUP4 SUB DUP2 DUP7 GAS STATICCALL ISZERO DUP1 ISZERO PUSH2 0x16DB JUMPI RETURNDATASIZE PUSH0 DUP1 RETURNDATACOPY RETURNDATASIZE PUSH0 REVERT JUMPDEST POP POP POP POP PUSH1 0x40 MLOAD RETURNDATASIZE PUSH0 DUP3 RETURNDATACOPY PUSH1 0x1F RETURNDATASIZE SWAP1 DUP2 ADD PUSH1 0x1F NOT AND DUP3 ADD PUSH1 0x40 MSTORE PUSH2 0x1702 SWAP2 SWAP1 DUP2 ADD SWAP1 PUSH2 0x5212 JUMP JUMPDEST SWAP1 POP PUSH0 DUP2 MLOAD PUSH1 0x1 PUSH1 0x1 PUSH1 0x40 SHL SUB DUP2 GT ISZERO PUSH2 0x171E JUMPI PUSH2 0x171E PUSH2 0x4039 JUMP JUMPDEST PUSH1 0x40 MLOAD SWAP1 DUP1 DUP3 MSTORE DUP1 PUSH1 0x20 MUL PUSH1 0x20 ADD DUP3 ADD PUSH1 0x40 MSTORE DUP1 ISZERO PUSH2 0x1747 JUMPI DUP2 PUSH1 0x20 ADD PUSH1 0x20 DUP3 MUL DUP1 CALLDATASIZE DUP4 CALLDATACOPY ADD SWAP1 POP JUMPDEST POP SWAP1 POP PUSH0 DUP3 MLOAD PUSH1 0x1 PUSH1 0x1 PUSH1 0x40 SHL SUB DUP2 GT ISZERO PUSH2 0x1764 JUMPI PUSH2 0x1764 PUSH2 0x4039 JUMP JUMPDEST PUSH1 0x40 MLOAD SWAP1 DUP1 DUP3 MSTORE DUP1 PUSH1 0x20 MUL PUSH1 0x20 ADD DUP3 ADD PUSH1 0x40 MSTORE DUP1 ISZERO PUSH2 0x178D JUMPI DUP2 PUSH1 0x20 ADD PUSH1 0x20 DUP3 MUL DUP1 CALLDATASIZE DUP4 CALLDATACOPY ADD SWAP1 POP JUMPDEST POP SWAP1 POP DUP3 MLOAD PUSH1 0x1 PUSH1 0x1 PUSH1 0x40 SHL SUB DUP2 GT ISZERO PUSH2 0x17A9 JUMPI PUSH2 0x17A9 PUSH2 0x4039 JUMP JUMPDEST PUSH1 0x40 MLOAD SWAP1 DUP1 DUP3 MSTORE DUP1 PUSH1 0x20 MUL PUSH1 0x20 ADD DUP3 ADD PUSH1 0x40 MSTORE DUP1 ISZERO PUSH2 0x17D2 JUMPI DUP2 PUSH1 0x20 ADD PUSH1 0x20 DUP3 MUL DUP1 CALLDATASIZE DUP4 CALLDATACOPY ADD SWAP1 POP JUMPDEST POP SWAP4 POP PUSH0 JUMPDEST DUP4 MLOAD DUP2 LT ISZERO PUSH2 0x196D JUMPI DUP4 DUP2 DUP2 MLOAD DUP2 LT PUSH2 0x17F2 JUMPI PUSH2 0x17F2 PUSH2 0x4C15 JUMP JUMPDEST PUSH1 0x20 MUL PUSH1 0x20 ADD ADD MLOAD PUSH0 ADD MLOAD DUP4 DUP3 DUP2 MLOAD DUP2 LT PUSH2 0x180F JUMPI PUSH2 0x180F PUSH2 0x4C15 JUMP JUMPDEST PUSH1 0x20 MUL PUSH1 0x20 ADD ADD DUP2 DUP2 MSTORE POP POP PUSH1 0xE PUSH0 DUP6 DUP4 DUP2 MLOAD DUP2 LT PUSH2 0x1830 JUMPI PUSH2 0x1830 PUSH2 0x4C15 JUMP JUMPDEST PUSH1 0x20 MUL PUSH1 0x20 ADD ADD MLOAD PUSH0 ADD MLOAD DUP2 MSTORE PUSH1 0x20 ADD SWAP1 DUP2 MSTORE PUSH1 0x20 ADD PUSH0 KECCAK256 SLOAD DUP3 DUP3 DUP2 MLOAD DUP2 LT PUSH2 0x185B JUMPI PUSH2 0x185B PUSH2 0x4C15 JUMP JUMPDEST PUSH1 0x20 MUL PUSH1 0x20 ADD ADD DUP2 DUP2 MSTORE POP POP PUSH0 PUSH1 0xA PUSH0 DUP7 DUP5 DUP2 MLOAD DUP2 LT PUSH2 0x187D JUMPI PUSH2 0x187D PUSH2 0x4C15 JUMP JUMPDEST PUSH1 0x20 MUL PUSH1 0x20 ADD ADD MLOAD PUSH0 ADD MLOAD DUP2 MSTORE PUSH1 0x20 ADD SWAP1 DUP2 MSTORE PUSH1 0x20 ADD PUSH0 KECCAK256 DUP1 SLOAD SWAP1 POP GT ISZERO PUSH2 0x1945 JUMPI PUSH1 0xA PUSH0 DUP6 DUP4 DUP2 MLOAD DUP2 LT PUSH2 0x18B4 JUMPI PUSH2 0x18B4 PUSH2 0x4C15 JUMP JUMPDEST PUSH1 0x20 MUL PUSH1 0x20 ADD ADD MLOAD PUSH0 ADD MLOAD DUP2 MSTORE PUSH1 0x20 ADD SWAP1 DUP2 MSTORE PUSH1 0x20 ADD PUSH0 KECCAK256 PUSH1 0x1 PUSH1 0xA PUSH0 DUP8 DUP6 DUP2 MLOAD DUP2 LT PUSH2 0x18E3 JUMPI PUSH2 0x18E3 PUSH2 0x4C15 JUMP JUMPDEST PUSH1 0x20 MUL PUSH1 0x20 ADD ADD MLOAD PUSH0 ADD MLOAD DUP2 MSTORE PUSH1 0x20 ADD SWAP1 DUP2 MSTORE PUSH1 0x20 ADD PUSH0 KECCAK256 DUP1 SLOAD SWAP1 POP PUSH2 0x1909 SWAP2 SWAP1 PUSH2 0x50AA JUMP JUMPDEST DUP2 SLOAD DUP2 LT PUSH2 0x1919 JUMPI PUSH2 0x1919 PUSH2 0x4C15 JUMP JUMPDEST SWAP1 PUSH0 MSTORE PUSH1 0x20 PUSH0 KECCAK256 ADD SLOAD DUP6 DUP3 DUP2 MLOAD DUP2 LT PUSH2 0x1934 JUMPI PUSH2 0x1934 PUSH2 0x4C15 JUMP JUMPDEST PUSH1 0x20 MUL PUSH1 0x20 ADD ADD DUP2 DUP2 MSTORE POP POP PUSH2 0x1965 JUMP JUMPDEST PUSH0 DUP6 DUP3 DUP2 MLOAD DUP2 LT PUSH2 0x1958 JUMPI PUSH2 0x1958 PUSH2 0x4C15 JUMP JUMPDEST PUSH1 0x20 MUL PUSH1 0x20 ADD ADD DUP2 DUP2 MSTORE POP POP JUMPDEST PUSH1 0x1 ADD PUSH2 0x17D7 JUMP JUMPDEST POP SWAP1 SWAP6 SWAP1 SWAP5 POP SWAP2 SWAP3 POP POP JUMP JUMPDEST PUSH0 DUP1 JUMPDEST PUSH1 0xF SLOAD PUSH1 0xFF DUP3 AND LT ISZERO PUSH2 0x1A07 JUMPI DUP3 PUSH1 0xF DUP3 PUSH1 0xFF AND DUP2 SLOAD DUP2 LT PUSH2 0x19A0 JUMPI PUSH2 0x19A0 PUSH2 0x4C15 JUMP JUMPDEST SWAP1 PUSH0 MSTORE PUSH1 0x20 PUSH0 KECCAK256 SWAP1 PUSH1 0x3 MUL ADD PUSH0 ADD SLOAD SUB PUSH2 0x19F5 JUMPI PUSH1 0xF DUP2 PUSH1 0xFF AND DUP2 SLOAD DUP2 LT PUSH2 0x19CA JUMPI PUSH2 0x19CA PUSH2 0x4C15 JUMP JUMPDEST PUSH0 SWAP2 DUP3 MSTORE PUSH1 0x20 DUP3 KECCAK256 PUSH1 0x1 PUSH1 0x3 SWAP1 SWAP3 MUL ADD ADD DUP1 SLOAD SWAP2 PUSH2 0x19E7 DUP4 PUSH2 0x4B95 JUMP JUMPDEST SWAP2 SWAP1 POP SSTORE POP PUSH1 0x1 SWAP2 POP PUSH2 0x1A07 JUMP JUMPDEST DUP1 PUSH2 0x19FF DUP2 PUSH2 0x4C29 JUMP JUMPDEST SWAP2 POP POP PUSH2 0x197C JUMP JUMPDEST POP DUP1 PUSH2 0x1AAF JUMPI PUSH1 0x40 DUP1 MLOAD PUSH1 0x60 DUP2 ADD DUP3 MSTORE DUP4 DUP2 MSTORE PUSH1 0x1 PUSH1 0x20 DUP3 ADD DUP2 DUP2 MSTORE TIMESTAMP SWAP4 DUP4 ADD SWAP4 DUP5 MSTORE PUSH1 0xF DUP1 SLOAD SWAP3 DUP4 ADD DUP2 SSTORE PUSH0 MSTORE SWAP2 MLOAD PUSH32 0x8D1108E10BCB7C27DDDFC02ED9D693A074039D026CF4EA4240B40F7D581AC802 PUSH1 0x3 SWAP1 SWAP3 MUL SWAP2 DUP3 ADD SSTORE SWAP1 MLOAD PUSH32 0x8D1108E10BCB7C27DDDFC02ED9D693A074039D026CF4EA4240B40F7D581AC803 DUP3 ADD SSTORE SWAP1 MLOAD PUSH32 0x8D1108E10BCB7C27DDDFC02ED9D693A074039D026CF4EA4240B40F7D581AC804 SWAP1 SWAP2 ADD SSTORE JUMPDEST POP POP JUMP JUMPDEST PUSH1 0x17 SLOAD PUSH1 0x40 MLOAD PUSH4 0x588F1E0D PUSH1 0xE1 SHL DUP2 MSTORE PUSH1 0x60 SWAP2 PUSH1 0x1 PUSH1 0x1 PUSH1 0xA0 SHL SUB AND SWAP1 PUSH4 0xB11E3C1A SWAP1 PUSH2 0x1AE4 SWAP1 CALLER SWAP1 PUSH1 0x4 ADD PUSH2 0x3DC0 JUMP JUMPDEST PUSH1 0x20 PUSH1 0x40 MLOAD DUP1 DUP4 SUB DUP2 DUP7 GAS STATICCALL ISZERO DUP1 ISZERO PUSH2 0x1AFF JUMPI RETURNDATASIZE PUSH0 DUP1 RETURNDATACOPY RETURNDATASIZE PUSH0 REVERT JUMPDEST POP POP POP POP PUSH1 0x40 MLOAD RETURNDATASIZE PUSH1 0x1F NOT PUSH1 0x1F DUP3 ADD AND DUP3 ADD DUP1 PUSH1 0x40 MSTORE POP DUP2 ADD SWAP1 PUSH2 0x1B23 SWAP2 SWAP1 PUSH2 0x4A7D JUMP JUMPDEST PUSH2 0x1B3F JUMPI PUSH1 0x40 MLOAD PUSH3 0x461BCD PUSH1 0xE5 SHL DUP2 MSTORE PUSH1 0x4 ADD PUSH2 0x8E1 SWAP1 PUSH2 0x4A98 JUMP JUMPDEST PUSH1 0x8 DUP1 SLOAD DUP1 PUSH1 0x20 MUL PUSH1 0x20 ADD PUSH1 0x40 MLOAD SWAP1 DUP2 ADD PUSH1 0x40 MSTORE DUP1 SWAP3 SWAP2 SWAP1 DUP2 DUP2 MSTORE PUSH1 0x20 ADD PUSH0 SWAP1 JUMPDEST DUP3 DUP3 LT ISZERO PUSH2 0xA2D JUMPI DUP4 DUP3 SWAP1 PUSH0 MSTORE PUSH1 0x20 PUSH0 KECCAK256 SWAP1 PUSH1 0x6 MUL ADD PUSH1 0x40 MLOAD DUP1 PUSH1 0xE0 ADD PUSH1 0x40 MSTORE SWAP1 DUP2 PUSH0 DUP3 ADD DUP1 SLOAD PUSH2 0x1B90 SWAP1 PUSH2 0x4C47 JUMP JUMPDEST DUP1 PUSH1 0x1F ADD PUSH1 0x20 DUP1 SWAP2 DIV MUL PUSH1 0x20 ADD PUSH1 0x40 MLOAD SWAP1 DUP2 ADD PUSH1 0x40 MSTORE DUP1 SWAP3 SWAP2 SWAP1 DUP2 DUP2 MSTORE PUSH1 0x20 ADD DUP3 DUP1 SLOAD PUSH2 0x1BBC SWAP1 PUSH2 0x4C47 JUMP JUMPDEST DUP1 ISZERO PUSH2 0x1C07 JUMPI DUP1 PUSH1 0x1F LT PUSH2 0x1BDE JUMPI PUSH2 0x100 DUP1 DUP4 SLOAD DIV MUL DUP4 MSTORE SWAP2 PUSH1 0x20 ADD SWAP2 PUSH2 0x1C07 JUMP JUMPDEST DUP3 ADD SWAP2 SWAP1 PUSH0 MSTORE PUSH1 0x20 PUSH0 KECCAK256 SWAP1 JUMPDEST DUP2 SLOAD DUP2 MSTORE SWAP1 PUSH1 0x1 ADD SWAP1 PUSH1 0x20 ADD DUP1 DUP4 GT PUSH2 0x1BEA JUMPI DUP3 SWAP1 SUB PUSH1 0x1F AND DUP3 ADD SWAP2 JUMPDEST POP POP POP SWAP2 DUP4 MSTORE POP POP PUSH1 0x1 DUP3 ADD SLOAD PUSH1 0xFF DUP2 AND PUSH1 0x20 DUP4 ADD MSTORE PUSH2 0x100 SWAP1 DIV PUSH1 0x1 PUSH1 0x1 PUSH1 0xA0 SHL SUB AND PUSH1 0x40 DUP3 ADD MSTORE PUSH1 0x2 DUP3 ADD DUP1 SLOAD PUSH1 0x60 SWAP1 SWAP3 ADD SWAP2 PUSH2 0x1C45 SWAP1 PUSH2 0x4C47 JUMP JUMPDEST DUP1 PUSH1 0x1F ADD PUSH1 0x20 DUP1 SWAP2 DIV MUL PUSH1 0x20 ADD PUSH1 0x40 MLOAD SWAP1 DUP2 ADD PUSH1 0x40 MSTORE DUP1 SWAP3 SWAP2 SWAP1 DUP2 DUP2 MSTORE PUSH1 0x20 ADD DUP3 DUP1 SLOAD PUSH2 0x1C71 SWAP1 PUSH2 0x4C47 JUMP JUMPDEST DUP1 ISZERO PUSH2 0x1CBC JUMPI DUP1 PUSH1 0x1F LT PUSH2 0x1C93 JUMPI PUSH2 0x100 DUP1 DUP4 SLOAD DIV MUL DUP4 MSTORE SWAP2 PUSH1 0x20 ADD SWAP2 PUSH2 0x1CBC JUMP JUMPDEST DUP3 ADD SWAP2 SWAP1 PUSH0 MSTORE PUSH1 0x20 PUSH0 KECCAK256 SWAP1 JUMPDEST DUP2 SLOAD DUP2 MSTORE SWAP1 PUSH1 0x1 ADD SWAP1 PUSH1 0x20 ADD DUP1 DUP4 GT PUSH2 0x1C9F JUMPI DUP3 SWAP1 SUB PUSH1 0x1F AND DUP3 ADD SWAP2 JUMPDEST POP POP POP POP POP DUP2 MSTORE PUSH1 0x20 ADD PUSH1 0x3 DUP3 ADD SLOAD DUP2 MSTORE PUSH1 0x20 ADD PUSH1 0x4 DUP3 ADD DUP1 SLOAD DUP1 PUSH1 0x20 MUL PUSH1 0x20 ADD PUSH1 0x40 MLOAD SWAP1 DUP2 ADD PUSH1 0x40 MSTORE DUP1 SWAP3 SWAP2 SWAP1 DUP2 DUP2 MSTORE PUSH1 0x20 ADD DUP3 DUP1 SLOAD DUP1 ISZERO PUSH2 0x1D1C JUMPI PUSH1 0x20 MUL DUP3 ADD SWAP2 SWAP1 PUSH0 MSTORE PUSH1 0x20 PUSH0 KECCAK256 SWAP1 JUMPDEST DUP2 SLOAD DUP2 MSTORE PUSH1 0x20 ADD SWAP1 PUSH1 0x1 ADD SWAP1 DUP1 DUP4 GT PUSH2 0x1D08 JUMPI JUMPDEST POP POP POP POP POP DUP2 MSTORE PUSH1 0x20 ADD PUSH1 0x5 DUP3 ADD DUP1 SLOAD DUP1 PUSH1 0x20 MUL PUSH1 0x20 ADD PUSH1 0x40 MLOAD SWAP1 DUP2 ADD PUSH1 0x40 MSTORE DUP1 SWAP3 SWAP2 SWAP1 DUP2 DUP2 MSTORE PUSH1 0x20 ADD DUP3 DUP1 SLOAD DUP1 ISZERO PUSH2 0x1D72 JUMPI PUSH1 0x20 MUL DUP3 ADD SWAP2 SWAP1 PUSH0 MSTORE PUSH1 0x20 PUSH0 KECCAK256 SWAP1 JUMPDEST DUP2 SLOAD DUP2 MSTORE PUSH1 0x20 ADD SWAP1 PUSH1 0x1 ADD SWAP1 DUP1 DUP4 GT PUSH2 0x1D5E JUMPI JUMPDEST POP POP POP POP POP DUP2 MSTORE POP POP DUP2 MSTORE PUSH1 0x20 ADD SWAP1 PUSH1 0x1 ADD SWAP1 PUSH2 0x1B60 JUMP JUMPDEST PUSH0 DUP2 PUSH2 0x1DAC JUMPI PUSH1 0x1 PUSH1 0x1 PUSH1 0xA0 SHL SUB DUP5 AND PUSH0 SWAP1 DUP2 MSTORE PUSH1 0xD PUSH1 0x20 MSTORE PUSH1 0x40 SWAP1 KECCAK256 PUSH2 0x1DAF JUMP JUMPDEST PUSH1 0xC JUMPDEST SWAP1 POP PUSH0 DUP1 JUMPDEST DUP3 SLOAD DUP2 LT ISZERO PUSH2 0x1FB7 JUMPI DUP9 PUSH1 0x1 PUSH1 0x1 PUSH1 0xA0 SHL SUB AND DUP4 DUP3 DUP2 SLOAD DUP2 LT PUSH2 0x1DD9 JUMPI PUSH2 0x1DD9 PUSH2 0x4C15 JUMP JUMPDEST PUSH0 SWAP2 DUP3 MSTORE PUSH1 0x20 SWAP1 SWAP2 KECCAK256 PUSH1 0x4 SWAP1 SWAP2 MUL ADD SLOAD PUSH1 0x1 PUSH1 0x1 PUSH1 0xA0 SHL SUB AND SUB PUSH2 0x1FAF JUMPI PUSH1 0x1 SWAP2 POP PUSH0 DUP1 JUMPDEST DUP5 DUP4 DUP2 SLOAD DUP2 LT PUSH2 0x1E10 JUMPI PUSH2 0x1E10 PUSH2 0x4C15 JUMP JUMPDEST SWAP1 PUSH0 MSTORE PUSH1 0x20 PUSH0 KECCAK256 SWAP1 PUSH1 0x4 MUL ADD PUSH1 0x1 ADD DUP1 SLOAD SWAP1 POP DUP2 LT ISZERO PUSH2 0x1EF9 JUMPI DUP10 DUP6 DUP5 DUP2 SLOAD DUP2 LT PUSH2 0x1E3D JUMPI PUSH2 0x1E3D PUSH2 0x4C15 JUMP JUMPDEST SWAP1 PUSH0 MSTORE PUSH1 0x20 PUSH0 KECCAK256 SWAP1 PUSH1 0x4 MUL ADD PUSH1 0x1 ADD DUP3 DUP2 SLOAD DUP2 LT PUSH2 0x1E5D JUMPI PUSH2 0x1E5D PUSH2 0x4C15 JUMP JUMPDEST SWAP1 PUSH0 MSTORE PUSH1 0x20 PUSH0 KECCAK256 ADD SLOAD SUB PUSH2 0x1EF1 JUMPI TIMESTAMP DUP6 DUP5 DUP2 SLOAD DUP2 LT PUSH2 0x1E7E JUMPI PUSH2 0x1E7E PUSH2 0x4C15 JUMP JUMPDEST SWAP1 PUSH0 MSTORE PUSH1 0x20 PUSH0 KECCAK256 SWAP1 PUSH1 0x4 MUL ADD PUSH1 0x3 ADD DUP3 DUP2 SLOAD DUP2 LT PUSH2 0x1E9E JUMPI PUSH2 0x1E9E PUSH2 0x4C15 JUMP JUMPDEST SWAP1 PUSH0 MSTORE PUSH1 0x20 PUSH0 KECCAK256 ADD DUP2 SWAP1 SSTORE POP DUP9 DUP6 DUP5 DUP2 SLOAD DUP2 LT PUSH2 0x1EBD JUMPI PUSH2 0x1EBD PUSH2 0x4C15 JUMP JUMPDEST SWAP1 PUSH0 MSTORE PUSH1 0x20 PUSH0 KECCAK256 SWAP1 PUSH1 0x4 MUL ADD PUSH1 0x2 ADD DUP3 DUP2 SLOAD DUP2 LT PUSH2 0x1EDD JUMPI PUSH2 0x1EDD PUSH2 0x4C15 JUMP JUMPDEST PUSH0 SWAP2 DUP3 MSTORE PUSH1 0x20 SWAP1 SWAP2 KECCAK256 ADD SSTORE PUSH1 0x1 SWAP2 POP PUSH2 0x1EF9 JUMP JUMPDEST PUSH1 0x1 ADD PUSH2 0x1DFE JUMP JUMPDEST POP DUP1 PUSH2 0x1FA9 JUMPI DUP4 DUP3 DUP2 SLOAD DUP2 LT PUSH2 0x1F11 JUMPI PUSH2 0x1F11 PUSH2 0x4C15 JUMP JUMPDEST PUSH0 SWAP2 DUP3 MSTORE PUSH1 0x20 DUP1 DUP4 KECCAK256 PUSH1 0x1 PUSH1 0x4 SWAP1 SWAP4 MUL ADD DUP3 ADD DUP1 SLOAD SWAP3 DUP4 ADD DUP2 SSTORE DUP4 MSTORE SWAP1 SWAP2 KECCAK256 ADD DUP10 SWAP1 SSTORE DUP4 SLOAD DUP5 SWAP1 DUP4 SWAP1 DUP2 LT PUSH2 0x1F48 JUMPI PUSH2 0x1F48 PUSH2 0x4C15 JUMP JUMPDEST PUSH0 SWAP2 DUP3 MSTORE PUSH1 0x20 DUP1 DUP4 KECCAK256 PUSH1 0x3 PUSH1 0x4 SWAP1 SWAP4 MUL ADD SWAP2 SWAP1 SWAP2 ADD DUP1 SLOAD PUSH1 0x1 DUP2 ADD DUP3 SSTORE SWAP1 DUP4 MSTORE SWAP2 KECCAK256 TIMESTAMP SWAP2 ADD SSTORE DUP4 SLOAD DUP5 SWAP1 DUP4 SWAP1 DUP2 LT PUSH2 0x1F82 JUMPI PUSH2 0x1F82 PUSH2 0x4C15 JUMP JUMPDEST PUSH0 SWAP2 DUP3 MSTORE PUSH1 0x20 DUP1 DUP4 KECCAK256 PUSH1 0x2 PUSH1 0x4 SWAP1 SWAP4 MUL ADD SWAP2 SWAP1 SWAP2 ADD DUP1 SLOAD PUSH1 0x1 DUP2 ADD DUP3 SSTORE SWAP1 DUP4 MSTORE SWAP2 KECCAK256 ADD DUP9 SWAP1 SSTORE JUMPDEST POP PUSH2 0x1FB7 JUMP JUMPDEST PUSH1 0x1 ADD PUSH2 0x1DB4 JUMP JUMPDEST POP DUP1 PUSH2 0x206E JUMPI PUSH0 PUSH2 0x1FC9 DUP9 DUP9 DUP8 PUSH2 0x362E JUMP JUMPDEST DUP4 SLOAD PUSH1 0x1 DUP2 DUP2 ADD DUP7 SSTORE PUSH0 DUP7 DUP2 MSTORE PUSH1 0x20 SWAP1 DUP2 SWAP1 KECCAK256 DUP5 MLOAD PUSH1 0x4 SWAP1 SWAP5 MUL ADD DUP1 SLOAD DUP3 DUP7 ADD MLOAD PUSH1 0xFF AND PUSH1 0x1 PUSH1 0xA0 SHL MUL PUSH1 0x1 PUSH1 0x1 PUSH1 0xA8 SHL SUB NOT SWAP1 SWAP2 AND PUSH1 0x1 PUSH1 0x1 PUSH1 0xA0 SHL SUB SWAP1 SWAP6 AND SWAP5 SWAP1 SWAP5 OR SWAP4 SWAP1 SWAP4 OR DUP4 SSTORE PUSH1 0x40 DUP5 ADD MLOAD DUP1 MLOAD SWAP5 SWAP6 POP DUP6 SWAP5 PUSH2 0x2031 SWAP4 DUP6 ADD SWAP3 SWAP2 SWAP1 SWAP2 ADD SWAP1 PUSH2 0x3D01 JUMP JUMPDEST POP PUSH1 0x60 DUP3 ADD MLOAD DUP1 MLOAD PUSH2 0x204D SWAP2 PUSH1 0x2 DUP5 ADD SWAP2 PUSH1 0x20 SWAP1 SWAP2 ADD SWAP1 PUSH2 0x3D01 JUMP JUMPDEST POP PUSH1 0x80 DUP3 ADD MLOAD DUP1 MLOAD PUSH2 0x2069 SWAP2 PUSH1 0x3 DUP5 ADD SWAP2 PUSH1 0x20 SWAP1 SWAP2 ADD SWAP1 PUSH2 0x3D01 JUMP JUMPDEST POP POP POP POP JUMPDEST POP POP POP POP POP POP POP POP JUMP JUMPDEST PUSH1 0x16 SLOAD PUSH1 0x60 DUP3 ADD MLOAD PUSH1 0x40 MLOAD PUSH4 0x66573F61 PUSH1 0xE0 SHL DUP2 MSTORE PUSH0 SWAP3 PUSH1 0x1 PUSH1 0x1 PUSH1 0xA0 SHL SUB AND SWAP2 PUSH4 0x66573F61 SWAP2 PUSH2 0x20AC SWAP2 SWAP1 PUSH1 0x4 ADD PUSH2 0x429F JUMP JUMPDEST PUSH0 PUSH1 0x40 MLOAD DUP1 DUP4 SUB DUP2 DUP7 GAS STATICCALL ISZERO DUP1 ISZERO PUSH2 0x20C6 JUMPI RETURNDATASIZE PUSH0 DUP1 RETURNDATACOPY RETURNDATASIZE PUSH0 REVERT JUMPDEST POP POP POP POP PUSH1 0x40 MLOAD RETURNDATASIZE PUSH0 DUP3 RETURNDATACOPY PUSH1 0x1F RETURNDATASIZE SWAP1 DUP2 ADD PUSH1 0x1F NOT AND DUP3 ADD PUSH1 0x40 MSTORE PUSH2 0x20ED SWAP2 SWAP1 DUP2 ADD SWAP1 PUSH2 0x52C1 JUMP JUMPDEST SWAP1 POP PUSH0 PUSH2 0x20F9 DUP3 PUSH2 0x376F JUMP JUMPDEST PUSH1 0x40 DUP1 MLOAD PUSH1 0xE0 DUP2 ADD DUP3 MSTORE DUP6 MLOAD DUP2 MSTORE PUSH1 0x20 DUP1 DUP8 ADD MLOAD PUSH1 0xFF AND SWAP1 DUP3 ADD MSTORE DUP6 DUP3 ADD MLOAD PUSH1 0x1 PUSH1 0x1 PUSH1 0xA0 SHL SUB AND SWAP2 DUP2 ADD SWAP2 SWAP1 SWAP2 MSTORE PUSH1 0x60 DUP1 DUP3 ADD DUP4 SWAP1 MSTORE TIMESTAMP PUSH1 0x80 DUP1 DUP5 ADD SWAP2 SWAP1 SWAP2 MSTORE SWAP1 DUP7 ADD MLOAD PUSH1 0xA0 DUP4 ADD MSTORE DUP6 ADD MLOAD PUSH1 0xC0 DUP3 ADD MSTORE PUSH1 0x8 DUP1 SLOAD PUSH1 0x1 DUP2 ADD DUP3 SSTORE PUSH0 SWAP2 SWAP1 SWAP2 MSTORE DUP2 MLOAD SWAP3 SWAP4 POP SWAP1 SWAP2 DUP3 SWAP2 PUSH1 0x6 MUL PUSH32 0xF3F7A9FE364FAAB93B216DA50A3214154F22A0A2B415B23A84C8169E8B636EE3 ADD SWAP1 DUP2 SWAP1 PUSH2 0x2195 SWAP1 DUP3 PUSH2 0x5350 JUMP JUMPDEST POP PUSH1 0x20 DUP3 ADD MLOAD PUSH1 0x1 DUP3 ADD DUP1 SLOAD PUSH1 0x40 DUP6 ADD MLOAD PUSH1 0x1 PUSH1 0x1 PUSH1 0xA0 SHL SUB AND PUSH2 0x100 MUL PUSH1 0x1 PUSH1 0x1 PUSH1 0xA8 SHL SUB NOT SWAP1 SWAP2 AND PUSH1 0xFF SWAP1 SWAP4 AND SWAP3 SWAP1 SWAP3 OR SWAP2 SWAP1 SWAP2 OR SWAP1 SSTORE PUSH1 0x60 DUP3 ADD MLOAD PUSH1 0x2 DUP3 ADD SWAP1 PUSH2 0x21E2 SWAP1 DUP3 PUSH2 0x5350 JUMP JUMPDEST POP PUSH1 0x80 DUP3 ADD MLOAD PUSH1 0x3 DUP3 ADD SSTORE PUSH1 0xA0 DUP3 ADD MLOAD DUP1 MLOAD PUSH2 0x2208 SWAP2 PUSH1 0x4 DUP5 ADD SWAP2 PUSH1 0x20 SWAP1 SWAP2 ADD SWAP1 PUSH2 0x3D01 JUMP JUMPDEST POP PUSH1 0xC0 DUP3 ADD MLOAD DUP1 MLOAD PUSH2 0x2224 SWAP2 PUSH1 0x5 DUP5 ADD SWAP2 PUSH1 0x20 SWAP1 SWAP2 ADD SWAP1 PUSH2 0x3D01 JUMP JUMPDEST POP POP POP PUSH0 JUMPDEST DUP5 PUSH1 0x60 ADD MLOAD MLOAD DUP2 LT ISZERO PUSH2 0x25AD JUMPI PUSH1 0x16 SLOAD PUSH1 0x60 DUP7 ADD MLOAD DUP1 MLOAD PUSH0 SWAP3 PUSH1 0x1 PUSH1 0x1 PUSH1 0xA0 SHL SUB AND SWAP2 PUSH4 0xB9DB15B4 SWAP2 DUP6 SWAP1 DUP2 LT PUSH2 0x2262 JUMPI PUSH2 0x2262 PUSH2 0x4C15 JUMP JUMPDEST PUSH1 0x20 MUL PUSH1 0x20 ADD ADD MLOAD PUSH1 0x40 MLOAD DUP3 PUSH4 0xFFFFFFFF AND PUSH1 0xE0 SHL DUP2 MSTORE PUSH1 0x4 ADD PUSH2 0x2288 SWAP2 DUP2 MSTORE PUSH1 0x20 ADD SWAP1 JUMP JUMPDEST PUSH0 PUSH1 0x40 MLOAD DUP1 DUP4 SUB DUP2 DUP7 GAS STATICCALL ISZERO DUP1 ISZERO PUSH2 0x22A2 JUMPI RETURNDATASIZE PUSH0 DUP1 RETURNDATACOPY RETURNDATASIZE PUSH0 REVERT JUMPDEST POP POP POP POP PUSH1 0x40 MLOAD RETURNDATASIZE PUSH0 DUP3 RETURNDATACOPY PUSH1 0x1F RETURNDATASIZE SWAP1 DUP2 ADD PUSH1 0x1F NOT AND DUP3 ADD PUSH1 0x40 MSTORE PUSH2 0x22C9 SWAP2 SWAP1 DUP2 ADD SWAP1 PUSH2 0x5079 JUMP JUMPDEST PUSH1 0x17 SLOAD PUSH1 0x20 DUP3 ADD MLOAD PUSH2 0x180 ADD MLOAD PUSH1 0x40 MLOAD PUSH4 0x6386C1C7 PUSH1 0xE0 SHL DUP2 MSTORE SWAP3 SWAP4 POP PUSH0 SWAP3 PUSH1 0x1 PUSH1 0x1 PUSH1 0xA0 SHL SUB SWAP1 SWAP3 AND SWAP2 PUSH4 0x6386C1C7 SWAP2 PUSH2 0x2306 SWAP2 PUSH1 0x4 ADD PUSH2 0x3DC0 JUMP JUMPDEST PUSH0 PUSH1 0x40 MLOAD DUP1 DUP4 SUB DUP2 DUP7 GAS STATICCALL ISZERO DUP1 ISZERO PUSH2 0x2320 JUMPI RETURNDATASIZE PUSH0 DUP1 RETURNDATACOPY RETURNDATASIZE PUSH0 REVERT JUMPDEST POP POP POP POP PUSH1 0x40 MLOAD RETURNDATASIZE PUSH0 DUP3 RETURNDATACOPY PUSH1 0x1F RETURNDATASIZE SWAP1 DUP2 ADD PUSH1 0x1F NOT AND DUP3 ADD PUSH1 0x40 MSTORE PUSH2 0x2347 SWAP2 SWAP1 DUP2 ADD SWAP1 PUSH2 0x5579 JUMP JUMPDEST POP SWAP1 POP PUSH0 PUSH1 0x40 MLOAD DUP1 PUSH1 0xE0 ADD PUSH1 0x40 MSTORE DUP1 DUP10 PUSH0 ADD MLOAD DUP2 MSTORE PUSH1 0x20 ADD DUP10 PUSH1 0x20 ADD MLOAD PUSH1 0xFF AND DUP2 MSTORE PUSH1 0x20 ADD DUP10 PUSH1 0x40 ADD MLOAD PUSH1 0x1 PUSH1 0x1 PUSH1 0xA0 SHL SUB AND DUP2 MSTORE PUSH1 0x20 ADD DUP4 PUSH1 0x20 ADD MLOAD PUSH1 0x40 MLOAD PUSH1 0x20 ADD PUSH2 0x2394 SWAP2 SWAP1 PUSH2 0x422F JUMP JUMPDEST PUSH1 0x40 MLOAD PUSH1 0x20 DUP2 DUP4 SUB SUB DUP2 MSTORE SWAP1 PUSH1 0x40 MSTORE DUP2 MSTORE PUSH1 0x20 ADD TIMESTAMP DUP2 MSTORE PUSH1 0x20 ADD DUP10 PUSH1 0x60 ADD MLOAD MLOAD PUSH1 0x1 PUSH1 0x1 PUSH1 0x40 SHL SUB DUP2 GT ISZERO PUSH2 0x23CB JUMPI PUSH2 0x23CB PUSH2 0x4039 JUMP JUMPDEST PUSH1 0x40 MLOAD SWAP1 DUP1 DUP3 MSTORE DUP1 PUSH1 0x20 MUL PUSH1 0x20 ADD DUP3 ADD PUSH1 0x40 MSTORE DUP1 ISZERO PUSH2 0x23F4 JUMPI DUP2 PUSH1 0x20 ADD PUSH1 0x20 DUP3 MUL DUP1 CALLDATASIZE DUP4 CALLDATACOPY ADD SWAP1 POP JUMPDEST POP DUP2 MSTORE PUSH1 0x20 ADD DUP10 PUSH1 0x60 ADD MLOAD MLOAD PUSH1 0x1 PUSH1 0x1 PUSH1 0x40 SHL SUB DUP2 GT ISZERO PUSH2 0x2417 JUMPI PUSH2 0x2417 PUSH2 0x4039 JUMP JUMPDEST PUSH1 0x40 MLOAD SWAP1 DUP1 DUP3 MSTORE DUP1 PUSH1 0x20 MUL PUSH1 0x20 ADD DUP3 ADD PUSH1 0x40 MSTORE DUP1 ISZERO PUSH2 0x2440 JUMPI DUP2 PUSH1 0x20 ADD PUSH1 0x20 DUP3 MUL DUP1 CALLDATASIZE DUP4 CALLDATACOPY ADD SWAP1 POP JUMPDEST POP DUP2 MSTORE POP SWAP1 POP DUP8 PUSH1 0x60 ADD MLOAD DUP5 DUP2 MLOAD DUP2 LT PUSH2 0x245C JUMPI PUSH2 0x245C PUSH2 0x4C15 JUMP JUMPDEST PUSH1 0x20 MUL PUSH1 0x20 ADD ADD MLOAD DUP2 PUSH1 0xA0 ADD MLOAD DUP6 DUP2 MLOAD DUP2 LT PUSH2 0x247A JUMPI PUSH2 0x247A PUSH2 0x4C15 JUMP JUMPDEST PUSH1 0x20 MUL PUSH1 0x20 ADD ADD DUP2 DUP2 MSTORE POP POP DUP8 PUSH1 0x80 ADD MLOAD DUP5 DUP2 MLOAD DUP2 LT PUSH2 0x249C JUMPI PUSH2 0x249C PUSH2 0x4C15 JUMP JUMPDEST PUSH1 0x20 MUL PUSH1 0x20 ADD ADD MLOAD DUP2 PUSH1 0xC0 ADD MLOAD DUP6 DUP2 MLOAD DUP2 LT PUSH2 0x24BA JUMPI PUSH2 0x24BA PUSH2 0x4C15 JUMP JUMPDEST PUSH1 0x20 SWAP1 DUP2 MUL SWAP2 SWAP1 SWAP2 ADD DUP2 ADD SWAP2 SWAP1 SWAP2 MSTORE DUP4 DUP2 ADD MLOAD PUSH2 0x180 ADD MLOAD PUSH1 0x1 PUSH1 0x1 PUSH1 0xA0 SHL SUB AND PUSH0 SWAP1 DUP2 MSTORE PUSH1 0x9 DUP3 MSTORE PUSH1 0x40 DUP2 KECCAK256 DUP1 SLOAD PUSH1 0x1 DUP2 ADD DUP3 SSTORE SWAP1 DUP3 MSTORE SWAP2 SWAP1 KECCAK256 DUP3 MLOAD DUP4 SWAP3 PUSH1 0x6 MUL SWAP1 SWAP2 ADD SWAP1 DUP2 SWAP1 PUSH2 0x250C SWAP1 DUP3 PUSH2 0x5350 JUMP JUMPDEST POP PUSH1 0x20 DUP3 ADD MLOAD PUSH1 0x1 DUP3 ADD DUP1 SLOAD PUSH1 0x40 DUP6 ADD MLOAD PUSH1 0x1 PUSH1 0x1 PUSH1 0xA0 SHL SUB AND PUSH2 0x100 MUL PUSH1 0x1 PUSH1 0x1 PUSH1 0xA8 SHL SUB NOT SWAP1 SWAP2 AND PUSH1 0xFF SWAP1 SWAP4 AND SWAP3 SWAP1 SWAP3 OR SWAP2 SWAP1 SWAP2 OR SWAP1 SSTORE PUSH1 0x60 DUP3 ADD MLOAD PUSH1 0x2 DUP3 ADD SWAP1 PUSH2 0x2559 SWAP1 DUP3 PUSH2 0x5350 JUMP JUMPDEST POP PUSH1 0x80 DUP3 ADD MLOAD PUSH1 0x3 DUP3 ADD SSTORE PUSH1 0xA0 DUP3 ADD MLOAD DUP1 MLOAD PUSH2 0x257F SWAP2 PUSH1 0x4 DUP5 ADD SWAP2 PUSH1 0x20 SWAP1 SWAP2 ADD SWAP1 PUSH2 0x3D01 JUMP JUMPDEST POP PUSH1 0xC0 DUP3 ADD MLOAD DUP1 MLOAD PUSH2 0x259B SWAP2 PUSH1 0x5 DUP5 ADD SWAP2 PUSH1 0x20 SWAP1 SWAP2 ADD SWAP1 PUSH2 0x3D01 JUMP JUMPDEST POP POP PUSH1 0x1 SWAP1 SWAP5 ADD SWAP4 POP PUSH2 0x2229 SWAP3 POP POP POP JUMP JUMPDEST POP POP POP POP POP JUMP JUMPDEST DUP2 MLOAD PUSH1 0x20 DUP2 DUP5 ADD DUP2 ADD DUP1 MLOAD PUSH1 0x11 DUP3 MSTORE SWAP3 DUP3 ADD SWAP2 DUP6 ADD SWAP2 SWAP1 SWAP2 KECCAK256 SWAP2 SWAP1 MSTORE DUP1 SLOAD DUP3 SWAP1 DUP2 LT PUSH2 0xD37 JUMPI PUSH0 DUP1 REVERT JUMPDEST PUSH0 PUSH1 0x1 SLOAD GT PUSH2 0x2606 PUSH1 0x1 PUSH1 0x40 MLOAD DUP1 PUSH1 0x60 ADD PUSH1 0x40 MSTORE DUP1 PUSH1 0x29 DUP2 MSTORE PUSH1 0x20 ADD PUSH2 0x5CC4 PUSH1 0x29 SWAP2 CODECOPY PUSH2 0x983 JUMP JUMPDEST SWAP1 PUSH2 0x2624 JUMPI PUSH1 0x40 MLOAD PUSH3 0x461BCD PUSH1 0xE5 SHL DUP2 MSTORE PUSH1 0x4 ADD PUSH2 0x8E1 SWAP2 SWAP1 PUSH2 0x422F JUMP JUMPDEST POP PUSH0 PUSH1 0x7 PUSH0 DUP4 PUSH1 0x1 PUSH1 0x1 PUSH1 0xA0 SHL SUB AND PUSH1 0x1 PUSH1 0x1 PUSH1 0xA0 SHL SUB AND DUP2 MSTORE PUSH1 0x20 ADD SWAP1 DUP2 MSTORE PUSH1 0x20 ADD PUSH0 KECCAK256 SLOAD GT PUSH2 0x266E PUSH1 0x2 PUSH1 0x40 MLOAD DUP1 PUSH1 0x60 ADD PUSH1 0x40 MSTORE DUP1 PUSH1 0x25 DUP2 MSTORE PUSH1 0x20 ADD PUSH2 0x5D11 PUSH1 0x25 SWAP2 CODECOPY PUSH2 0x983 JUMP JUMPDEST SWAP1 PUSH2 0x268C JUMPI PUSH1 0x40 MLOAD PUSH3 0x461BCD PUSH1 0xE5 SHL DUP2 MSTORE PUSH1 0x4 ADD PUSH2 0x8E1 SWAP2 SWAP1 PUSH2 0x422F JUMP JUMPDEST POP PUSH1 0x1 DUP1 SLOAD SWAP1 PUSH0 PUSH2 0x269C DUP4 PUSH2 0x51FD JUMP JUMPDEST SWAP1 SWAP2 SSTORE POP POP PUSH1 0x1 PUSH1 0x1 PUSH1 0xA0 SHL SUB DUP2 AND PUSH0 SWAP1 DUP2 MSTORE PUSH1 0x7 PUSH1 0x20 MSTORE PUSH1 0x40 DUP2 KECCAK256 DUP1 SLOAD SWAP2 PUSH2 0x26C4 DUP4 PUSH2 0x51FD JUMP JUMPDEST SWAP2 SWAP1 POP SSTORE POP POP JUMP JUMPDEST PUSH1 0x9 PUSH1 0x20 MSTORE DUP2 PUSH0 MSTORE PUSH1 0x40 PUSH0 KECCAK256 DUP2 DUP2 SLOAD DUP2 LT PUSH2 0x26E5 JUMPI PUSH0 DUP1 REVERT JUMPDEST SWAP1 PUSH0 MSTORE PUSH1 0x20 PUSH0 KECCAK256 SWAP1 PUSH1 0x6 MUL ADD PUSH0 SWAP2 POP SWAP2 POP POP DUP1 PUSH0 ADD DUP1 SLOAD PUSH2 0x2705 SWAP1 PUSH2 0x4C47 JUMP JUMPDEST DUP1 PUSH1 0x1F ADD PUSH1 0x20 DUP1 SWAP2 DIV MUL PUSH1 0x20 ADD PUSH1 0x40 MLOAD SWAP1 DUP2 ADD PUSH1 0x40 MSTORE DUP1 SWAP3 SWAP2 SWAP1 DUP2 DUP2 MSTORE PUSH1 0x20 ADD DUP3 DUP1 SLOAD PUSH2 0x2731 SWAP1 PUSH2 0x4C47 JUMP JUMPDEST DUP1 ISZERO PUSH2 0x277C JUMPI DUP1 PUSH1 0x1F LT PUSH2 0x2753 JUMPI PUSH2 0x100 DUP1 DUP4 SLOAD DIV MUL DUP4 MSTORE SWAP2 PUSH1 0x20 ADD SWAP2 PUSH2 0x277C JUMP JUMPDEST DUP3 ADD SWAP2 SWAP1 PUSH0 MSTORE PUSH1 0x20 PUSH0 KECCAK256 SWAP1 JUMPDEST DUP2 SLOAD DUP2 MSTORE SWAP1 PUSH1 0x1 ADD SWAP1 PUSH1 0x20 ADD DUP1 DUP4 GT PUSH2 0x275F JUMPI DUP3 SWAP1 SUB PUSH1 0x1F AND DUP3 ADD SWAP2 JUMPDEST POP POP POP POP PUSH1 0x1 DUP4 ADD SLOAD PUSH1 0x2 DUP5 ADD DUP1 SLOAD SWAP4 SWAP5 PUSH1 0xFF DUP4 AND SWAP5 PUSH2 0x100 SWAP1 SWAP4 DIV PUSH1 0x1 PUSH1 0x1 PUSH1 0xA0 SHL SUB AND SWAP4 POP SWAP2 PUSH2 0x27AD SWAP1 PUSH2 0x4C47 JUMP JUMPDEST DUP1 PUSH1 0x1F ADD PUSH1 0x20 DUP1 SWAP2 DIV MUL PUSH1 0x20 ADD PUSH1 0x40 MLOAD SWAP1 DUP2 ADD PUSH1 0x40 MSTORE DUP1 SWAP3 SWAP2 SWAP1 DUP2 DUP2 MSTORE PUSH1 0x20 ADD DUP3 DUP1 SLOAD PUSH2 0x27D9 SWAP1 PUSH2 0x4C47 JUMP JUMPDEST DUP1 ISZERO PUSH2 0x2824 JUMPI DUP1 PUSH1 0x1F LT PUSH2 0x27FB JUMPI PUSH2 0x100 DUP1 DUP4 SLOAD DIV MUL DUP4 MSTORE SWAP2 PUSH1 0x20 ADD SWAP2 PUSH2 0x2824 JUMP JUMPDEST DUP3 ADD SWAP2 SWAP1 PUSH0 MSTORE PUSH1 0x20 PUSH0 KECCAK256 SWAP1 JUMPDEST DUP2 SLOAD DUP2 MSTORE SWAP1 PUSH1 0x1 ADD SWAP1 PUSH1 0x20 ADD DUP1 DUP4 GT PUSH2 0x2807 JUMPI DUP3 SWAP1 SUB PUSH1 0x1F AND DUP3 ADD SWAP2 JUMPDEST POP POP POP POP POP SWAP1 DUP1 PUSH1 0x3 ADD SLOAD SWAP1 POP DUP6 JUMP JUMPDEST PUSH1 0x17 SLOAD PUSH1 0x40 MLOAD PUSH4 0x588F1E0D PUSH1 0xE1 SHL DUP2 MSTORE PUSH1 0x60 SWAP2 PUSH1 0x1 PUSH1 0x1 PUSH1 0xA0 SHL SUB AND SWAP1 PUSH4 0xB11E3C1A SWAP1 PUSH2 0x2865 SWAP1 CALLER SWAP1 PUSH1 0x4 ADD PUSH2 0x3DC0 JUMP JUMPDEST PUSH1 0x20 PUSH1 0x40 MLOAD DUP1 DUP4 SUB DUP2 DUP7 GAS STATICCALL ISZERO DUP1 ISZERO PUSH2 0x2880 JUMPI RETURNDATASIZE PUSH0 DUP1 RETURNDATACOPY RETURNDATASIZE PUSH0 REVERT JUMPDEST POP POP POP POP PUSH1 0x40 MLOAD RETURNDATASIZE PUSH1 0x1F NOT PUSH1 0x1F DUP3 ADD AND DUP3 ADD DUP1 PUSH1 0x40 MSTORE POP DUP2 ADD SWAP1 PUSH2 0x28A4 SWAP2 SWAP1 PUSH2 0x4A7D JUMP JUMPDEST PUSH2 0x28C0 JUMPI PUSH1 0x40 MLOAD PUSH3 0x461BCD PUSH1 0xE5 SHL DUP2 MSTORE PUSH1 0x4 ADD PUSH2 0x8E1 SWAP1 PUSH2 0x4A98 JUMP JUMPDEST PUSH1 0xC DUP1 SLOAD DUP1 PUSH1 0x20 MUL PUSH1 0x20 ADD PUSH1 0x40 MLOAD SWAP1 DUP2 ADD PUSH1 0x40 MSTORE DUP1 SWAP3 SWAP2 SWAP1 DUP2 DUP2 MSTORE PUSH1 0x20 ADD PUSH0 SWAP1 JUMPDEST DUP3 DUP3 LT ISZERO PUSH2 0xA2D JUMPI PUSH0 DUP5 DUP2 MSTORE PUSH1 0x20 SWAP1 DUP2 SWAP1 KECCAK256 PUSH1 0x40 DUP1 MLOAD PUSH1 0xA0 DUP2 ADD DUP3 MSTORE PUSH1 0x4 DUP7 MUL SWAP1 SWAP3 ADD DUP1 SLOAD PUSH1 0x1 PUSH1 0x1 PUSH1 0xA0 SHL SUB DUP2 AND DUP5 MSTORE PUSH1 0x1 PUSH1 0xA0 SHL SWAP1 DIV PUSH1 0xFF AND DUP4 DUP6 ADD MSTORE PUSH1 0x1 DUP2 ADD DUP1 SLOAD DUP4 MLOAD DUP2 DUP8 MUL DUP2 ADD DUP8 ADD DUP6 MSTORE DUP2 DUP2 MSTORE SWAP5 SWAP6 SWAP3 SWAP5 SWAP4 DUP7 ADD SWAP4 SWAP3 DUP4 ADD DUP3 DUP3 DUP1 ISZERO PUSH2 0x296A JUMPI PUSH1 0x20 MUL DUP3 ADD SWAP2 SWAP1 PUSH0 MSTORE PUSH1 0x20 PUSH0 KECCAK256 SWAP1 JUMPDEST DUP2 SLOAD DUP2 MSTORE PUSH1 0x20 ADD SWAP1 PUSH1 0x1 ADD SWAP1 DUP1 DUP4 GT PUSH2 0x2956 JUMPI JUMPDEST POP POP POP POP POP DUP2 MSTORE PUSH1 0x20 ADD PUSH1 0x2 DUP3 ADD DUP1 SLOAD DUP1 PUSH1 0x20 MUL PUSH1 0x20 ADD PUSH1 0x40 MLOAD SWAP1 DUP2 ADD PUSH1 0x40 MSTORE DUP1 SWAP3 SWAP2 SWAP1 DUP2 DUP2 MSTORE PUSH1 0x20 ADD DUP3 DUP1 SLOAD DUP1 ISZERO PUSH2 0x29C0 JUMPI PUSH1 0x20 MUL DUP3 ADD SWAP2 SWAP1 PUSH0 MSTORE PUSH1 0x20 PUSH0 KECCAK256 SWAP1 JUMPDEST DUP2 SLOAD DUP2 MSTORE PUSH1 0x20 ADD SWAP1 PUSH1 0x1 ADD SWAP1 DUP1 DUP4 GT PUSH2 0x29AC JUMPI JUMPDEST POP POP POP POP POP DUP2 MSTORE PUSH1 0x20 ADD PUSH1 0x3 DUP3 ADD DUP1 SLOAD DUP1 PUSH1 0x20 MUL PUSH1 0x20 ADD PUSH1 0x40 MLOAD SWAP1 DUP2 ADD PUSH1 0x40 MSTORE DUP1 SWAP3 SWAP2 SWAP1 DUP2 DUP2 MSTORE PUSH1 0x20 ADD DUP3 DUP1 SLOAD DUP1 ISZERO PUSH2 0x2A16 JUMPI PUSH1 0x20 MUL DUP3 ADD SWAP2 SWAP1 PUSH0 MSTORE PUSH1 0x20 PUSH0 KECCAK256 SWAP1 JUMPDEST DUP2 SLOAD DUP2 MSTORE PUSH1 0x20 ADD SWAP1 PUSH1 0x1 ADD SWAP1 DUP1 DUP4 GT PUSH2 0x2A02 JUMPI JUMPDEST POP POP POP POP POP DUP2 MSTORE POP POP DUP2 MSTORE PUSH1 0x20 ADD SWAP1 PUSH1 0x1 ADD SWAP1 PUSH2 0x28E1 JUMP JUMPDEST CALLER PUSH0 SWAP1 DUP2 MSTORE PUSH1 0x10 PUSH1 0x20 SWAP1 DUP2 MSTORE PUSH1 0x40 DUP1 DUP4 KECCAK256 DUP1 SLOAD DUP3 MLOAD DUP2 DUP6 MUL DUP2 ADD DUP6 ADD SWAP1 SWAP4 MSTORE DUP1 DUP4 MSTORE PUSH1 0x60 SWAP5 SWAP3 SWAP4 SWAP2 SWAP3 SWAP1 SWAP2 DUP5 ADD JUMPDEST DUP3 DUP3 LT ISZERO PUSH2 0xA2D JUMPI DUP4 DUP3 SWAP1 PUSH0 MSTORE PUSH1 0x20 PUSH0 KECCAK256 SWAP1 PUSH1 0x2 MUL ADD PUSH1 0x40 MLOAD DUP1 PUSH1 0x40 ADD PUSH1 0x40 MSTORE SWAP1 DUP2 PUSH0 DUP3 ADD SLOAD DUP2 MSTORE PUSH1 0x20 ADD PUSH1 0x1 DUP3 ADD SLOAD DUP2 MSTORE POP POP DUP2 MSTORE PUSH1 0x20 ADD SWAP1 PUSH1 0x1 ADD SWAP1 PUSH2 0x2A5C JUMP JUMPDEST PUSH1 0x15 SLOAD PUSH1 0x40 MLOAD PUSH4 0xC78D3E1 PUSH1 0xE3 SHL DUP2 MSTORE PUSH1 0x60 SWAP2 DUP3 SWAP2 DUP3 SWAP2 PUSH1 0x1 PUSH1 0x1 PUSH1 0xA0 SHL SUB AND SWAP1 PUSH4 0x63C69F08 SWAP1 PUSH2 0x2AD4 SWAP1 CALLER SWAP1 PUSH1 0x4 ADD PUSH2 0x3DC0 JUMP JUMPDEST PUSH0 PUSH1 0x40 MLOAD DUP1 DUP4 SUB DUP2 DUP7 GAS STATICCALL ISZERO DUP1 ISZERO PUSH2 0x2AEE JUMPI RETURNDATASIZE PUSH0 DUP1 RETURNDATACOPY RETURNDATASIZE PUSH0 REVERT JUMPDEST POP POP POP POP PUSH1 0x40 MLOAD RETURNDATASIZE PUSH0 DUP3 RETURNDATACOPY PUSH1 0x1F RETURNDATASIZE SWAP1 DUP2 ADD PUSH1 0x1F NOT AND DUP3 ADD PUSH1 0x40 MSTORE PUSH2 0x2B15 SWAP2 SWAP1 DUP2 ADD SWAP1 PUSH2 0x56DF JUMP JUMPDEST PUSH1 0x17 SLOAD PUSH1 0x40 MLOAD PUSH4 0x13FFF5AB PUSH1 0xE2 SHL DUP2 MSTORE SWAP2 SWAP5 POP PUSH1 0x1 PUSH1 0x1 PUSH1 0xA0 SHL SUB AND SWAP1 PUSH4 0x4FFFD6AC SWAP1 PUSH2 0x2B46 SWAP1 CALLER SWAP1 PUSH1 0x4 ADD PUSH2 0x3DC0 JUMP JUMPDEST PUSH0 PUSH1 0x40 MLOAD DUP1 DUP4 SUB DUP2 DUP7 GAS STATICCALL ISZERO DUP1 ISZERO PUSH2 0x2B60 JUMPI RETURNDATASIZE PUSH0 DUP1 RETURNDATACOPY RETURNDATASIZE PUSH0 REVERT JUMPDEST POP POP POP POP PUSH1 0x40 MLOAD RETURNDATASIZE PUSH0 DUP3 RETURNDATACOPY PUSH1 0x1F RETURNDATASIZE SWAP1 DUP2 ADD PUSH1 0x1F NOT AND DUP3 ADD PUSH1 0x40 MSTORE PUSH2 0x2B87 SWAP2 SWAP1 DUP2 ADD SWAP1 PUSH2 0x597E JUMP JUMPDEST SWAP2 POP PUSH2 0x2B91 PUSH2 0x2A2E JUMP JUMPDEST SWAP1 POP SWAP1 SWAP2 SWAP3 JUMP JUMPDEST PUSH1 0x17 SLOAD PUSH1 0x40 MLOAD PUSH4 0x588F1E0D PUSH1 0xE1 SHL DUP2 MSTORE PUSH0 SWAP2 PUSH1 0x1 PUSH1 0x1 PUSH1 0xA0 SHL SUB AND SWAP1 PUSH4 0xB11E3C1A SWAP1 PUSH2 0x2BC8 SWAP1 CALLER SWAP1 PUSH1 0x4 ADD PUSH2 0x3DC0 JUMP JUMPDEST PUSH1 0x20 PUSH1 0x40 MLOAD DUP1 DUP4 SUB DUP2 DUP7 GAS STATICCALL ISZERO DUP1 ISZERO PUSH2 0x2BE3 JUMPI RETURNDATASIZE PUSH0 DUP1 RETURNDATACOPY RETURNDATASIZE PUSH0 REVERT JUMPDEST POP POP POP POP PUSH1 0x40 MLOAD RETURNDATASIZE PUSH1 0x1F NOT PUSH1 0x1F DUP3 ADD AND DUP3 ADD DUP1 PUSH1 0x40 MSTORE POP DUP2 ADD SWAP1 PUSH2 0x2C07 SWAP2 SWAP1 PUSH2 0x4A7D JUMP JUMPDEST PUSH2 0x2C23 JUMPI PUSH1 0x40 MLOAD PUSH3 0x461BCD PUSH1 0xE5 SHL DUP2 MSTORE PUSH1 0x4 ADD PUSH2 0x8E1 SWAP1 PUSH2 0x4A98 JUMP JUMPDEST POP PUSH1 0x1 SLOAD SWAP1 JUMP JUMPDEST PUSH1 0x5 DUP1 SLOAD SWAP1 PUSH0 PUSH2 0x1622 DUP4 PUSH2 0x4B95 JUMP JUMPDEST PUSH1 0xB PUSH1 0x20 MSTORE DUP2 PUSH0 MSTORE PUSH1 0x40 PUSH0 KECCAK256 DUP2 DUP2 SLOAD DUP2 LT PUSH2 0x931 JUMPI PUSH0 DUP1 REVERT JUMPDEST PUSH1 0x60 PUSH0 DUP1 PUSH1 0x60 PUSH2 0x2C60 PUSH2 0x31EC JUMP JUMPDEST SWAP4 POP PUSH2 0x2C77 CALLER PUSH0 SWAP1 DUP2 MSTORE PUSH1 0x6 PUSH1 0x20 MSTORE PUSH1 0x40 SWAP1 KECCAK256 SLOAD SWAP1 JUMP JUMPDEST SWAP3 POP PUSH2 0x2C8E CALLER PUSH0 SWAP1 DUP2 MSTORE PUSH1 0x7 PUSH1 0x20 MSTORE PUSH1 0x40 SWAP1 KECCAK256 SLOAD SWAP1 JUMP JUMPDEST SWAP2 POP PUSH2 0x2C98 PUSH2 0xBA3 JUMP JUMPDEST SWAP1 POP SWAP1 SWAP2 SWAP3 SWAP4 JUMP JUMPDEST PUSH0 DUP1 SLOAD GT PUSH2 0x2CC7 PUSH1 0x1 PUSH1 0x40 MLOAD DUP1 PUSH1 0x60 ADD PUSH1 0x40 MSTORE DUP1 PUSH1 0x24 DUP2 MSTORE PUSH1 0x20 ADD PUSH2 0x5CED PUSH1 0x24 SWAP2 CODECOPY PUSH2 0x983 JUMP JUMPDEST SWAP1 PUSH2 0x2CE5 JUMPI PUSH1 0x40 MLOAD PUSH3 0x461BCD PUSH1 0xE5 SHL DUP2 MSTORE PUSH1 0x4 ADD PUSH2 0x8E1 SWAP2 SWAP1 PUSH2 0x422F JUMP JUMPDEST POP PUSH0 PUSH1 0x6 PUSH0 DUP4 PUSH1 0x1 PUSH1 0x1 PUSH1 0xA0 SHL SUB AND PUSH1 0x1 PUSH1 0x1 PUSH1 0xA0 SHL SUB AND DUP2 MSTORE PUSH1 0x20 ADD SWAP1 DUP2 MSTORE PUSH1 0x20 ADD PUSH0 KECCAK256 SLOAD GT PUSH2 0x2D4C PUSH1 0x2 PUSH1 0x40 MLOAD DUP1 PUSH1 0x40 ADD PUSH1 0x40 MSTORE DUP1 PUSH1 0x20 DUP2 MSTORE PUSH1 0x20 ADD PUSH32 0x496E76616C696420636F756E743A2072657461696C6572206661766F72697465 DUP2 MSTORE POP PUSH2 0x983 JUMP JUMPDEST SWAP1 PUSH2 0x2D6A JUMPI PUSH1 0x40 MLOAD PUSH3 0x461BCD PUSH1 0xE5 SHL DUP2 MSTORE PUSH1 0x4 ADD PUSH2 0x8E1 SWAP2 SWAP1 PUSH2 0x422F JUMP JUMPDEST POP PUSH0 DUP1 SLOAD SWAP1 DUP1 PUSH2 0x2D79 DUP4 PUSH2 0x51FD JUMP JUMPDEST SWAP1 SWAP2 SSTORE POP POP PUSH1 0x1 PUSH1 0x1 PUSH1 0xA0 SHL SUB DUP2 AND PUSH0 SWAP1 DUP2 MSTORE PUSH1 0x6 PUSH1 0x20 MSTORE PUSH1 0x40 DUP2 KECCAK256 DUP1 SLOAD SWAP2 PUSH2 0x26C4 DUP4 PUSH2 0x51FD JUMP JUMPDEST PUSH1 0xC DUP2 DUP2 SLOAD DUP2 LT PUSH2 0x2DB0 JUMPI PUSH0 DUP1 REVERT JUMPDEST PUSH0 SWAP2 DUP3 MSTORE PUSH1 0x20 SWAP1 SWAP2 KECCAK256 PUSH1 0x4 SWAP1 SWAP2 MUL ADD SLOAD PUSH1 0x1 PUSH1 0x1 PUSH1 0xA0 SHL SUB DUP2 AND SWAP2 POP PUSH1 0x1 PUSH1 0xA0 SHL SWAP1 DIV PUSH1 0xFF AND DUP3 JUMP JUMPDEST PUSH1 0x14 SLOAD PUSH0 SWAP1 PUSH1 0x1 PUSH1 0x1 PUSH1 0xA0 SHL SUB AND CALLER DUP2 EQ PUSH2 0x2E06 JUMPI PUSH1 0x40 MLOAD PUSH3 0x461BCD PUSH1 0xE5 SHL DUP2 MSTORE PUSH1 0x4 ADD PUSH2 0x8E1 SWAP1 PUSH2 0x4BBC JUMP JUMPDEST PUSH1 0x17 DUP1 SLOAD PUSH1 0x1 PUSH1 0x1 PUSH1 0xA0 SHL SUB DUP6 AND PUSH1 0x1 PUSH1 0x1 PUSH1 0xA0 SHL SUB NOT SWAP1 SWAP2 AND OR SWAP1 SSTORE PUSH1 0x1 SWAP2 POP POP SWAP2 SWAP1 POP JUMP JUMPDEST PUSH0 DUP2 PUSH2 0x2E4F JUMPI PUSH1 0x1 PUSH1 0x1 PUSH1 0xA0 SHL SUB DUP4 AND PUSH0 SWAP1 DUP2 MSTORE PUSH1 0xD PUSH1 0x20 MSTORE PUSH1 0x40 SWAP1 KECCAK256 PUSH2 0x2E52 JUMP JUMPDEST PUSH1 0xC JUMPDEST SWAP1 POP PUSH0 JUMPDEST DUP2 SLOAD DUP2 LT ISZERO PUSH2 0x2F7D JUMPI DUP6 PUSH1 0x1 PUSH1 0x1 PUSH1 0xA0 SHL SUB AND DUP3 DUP3 DUP2 SLOAD DUP2 LT PUSH2 0x2E7B JUMPI PUSH2 0x2E7B PUSH2 0x4C15 JUMP JUMPDEST PUSH0 SWAP2 DUP3 MSTORE PUSH1 0x20 SWAP1 SWAP2 KECCAK256 PUSH1 0x4 SWAP1 SWAP2 MUL ADD SLOAD PUSH1 0x1 PUSH1 0x1 PUSH1 0xA0 SHL SUB AND SUB PUSH2 0x2F75 JUMPI PUSH0 JUMPDEST DUP3 DUP3 DUP2 SLOAD DUP2 LT PUSH2 0x2EAD JUMPI PUSH2 0x2EAD PUSH2 0x4C15 JUMP JUMPDEST SWAP1 PUSH0 MSTORE PUSH1 0x20 PUSH0 KECCAK256 SWAP1 PUSH1 0x4 MUL ADD PUSH1 0x1 ADD DUP1 SLOAD SWAP1 POP DUP2 LT ISZERO PUSH2 0x2F73 JUMPI DUP6 DUP4 DUP4 DUP2 SLOAD DUP2 LT PUSH2 0x2EDA JUMPI PUSH2 0x2EDA PUSH2 0x4C15 JUMP JUMPDEST SWAP1 PUSH0 MSTORE PUSH1 0x20 PUSH0 KECCAK256 SWAP1 PUSH1 0x4 MUL ADD PUSH1 0x1 ADD DUP3 DUP2 SLOAD DUP2 LT PUSH2 0x2EFA JUMPI PUSH2 0x2EFA PUSH2 0x4C15 JUMP JUMPDEST SWAP1 PUSH0 MSTORE PUSH1 0x20 PUSH0 KECCAK256 ADD SLOAD SUB PUSH2 0x2F6B JUMPI PUSH2 0x2F2F DUP4 DUP4 DUP2 SLOAD DUP2 LT PUSH2 0x2F1D JUMPI PUSH2 0x2F1D PUSH2 0x4C15 JUMP JUMPDEST SWAP1 PUSH0 MSTORE PUSH1 0x20 PUSH0 KECCAK256 SWAP1 PUSH1 0x4 MUL ADD DUP3 PUSH2 0x38B1 JUMP JUMPDEST DUP3 DUP3 DUP2 SLOAD DUP2 LT PUSH2 0x2F41 JUMPI PUSH2 0x2F41 PUSH2 0x4C15 JUMP JUMPDEST PUSH0 SWAP2 DUP3 MSTORE PUSH1 0x20 DUP3 KECCAK256 PUSH1 0x1 PUSH1 0x4 SWAP1 SWAP3 MUL ADD ADD SLOAD SWAP1 SUB PUSH2 0x2F63 JUMPI PUSH2 0x2F63 DUP4 DUP4 PUSH2 0x3A32 JUMP JUMPDEST POP POP POP PUSH2 0x1525 JUMP JUMPDEST PUSH1 0x1 ADD PUSH2 0x2E9B JUMP JUMPDEST POP JUMPDEST PUSH1 0x1 ADD PUSH2 0x2E56 JUMP JUMPDEST POP POP POP POP POP POP JUMP JUMPDEST PUSH1 0x8 DUP2 DUP2 SLOAD DUP2 LT PUSH2 0x2F94 JUMPI PUSH0 DUP1 REVERT JUMPDEST SWAP1 PUSH0 MSTORE PUSH1 0x20 PUSH0 KECCAK256 SWAP1 PUSH1 0x6 MUL ADD PUSH0 SWAP2 POP SWAP1 POP DUP1 PUSH0 ADD DUP1 SLOAD PUSH2 0x2705 SWAP1 PUSH2 0x4C47 JUMP JUMPDEST PUSH1 0x40 DUP1 MLOAD PUSH1 0x60 DUP2 DUP2 ADD DUP4 MSTORE PUSH0 DUP1 DUP4 MSTORE PUSH1 0x20 DUP4 ADD MSTORE SWAP2 DUP2 ADD DUP3 SWAP1 MSTORE PUSH1 0x17 SLOAD PUSH1 0x40 MLOAD PUSH4 0x588F1E0D PUSH1 0xE1 SHL DUP2 MSTORE PUSH1 0x60 SWAP2 PUSH1 0x1 PUSH1 0x1 PUSH1 0xA0 SHL SUB AND SWAP1 PUSH4 0xB11E3C1A SWAP1 PUSH2 0x2FFE SWAP1 CALLER SWAP1 PUSH1 0x4 ADD PUSH2 0x3DC0 JUMP JUMPDEST PUSH1 0x20 PUSH1 0x40 MLOAD DUP1 DUP4 SUB DUP2 DUP7 GAS STATICCALL ISZERO DUP1 ISZERO PUSH2 0x3019 JUMPI RETURNDATASIZE PUSH0 DUP1 RETURNDATACOPY RETURNDATASIZE PUSH0 REVERT JUMPDEST POP POP POP POP PUSH1 0x40 MLOAD RETURNDATASIZE PUSH1 0x1F NOT PUSH1 0x1F DUP3 ADD AND DUP3 ADD DUP1 PUSH1 0x40 MSTORE POP DUP2 ADD SWAP1 PUSH2 0x303D SWAP2 SWAP1 PUSH2 0x4A7D JUMP JUMPDEST PUSH2 0x3059 JUMPI PUSH1 0x40 MLOAD PUSH3 0x461BCD PUSH1 0xE5 SHL DUP2 MSTORE PUSH1 0x4 ADD PUSH2 0x8E1 SWAP1 PUSH2 0x4A98 JUMP JUMPDEST PUSH1 0x15 SLOAD PUSH1 0x40 MLOAD PUSH4 0xC78D3E1 PUSH1 0xE3 SHL DUP2 MSTORE PUSH1 0x1 PUSH1 0x1 PUSH1 0xA0 SHL SUB SWAP1 SWAP2 AND SWAP1 PUSH4 0x63C69F08 SWAP1 PUSH2 0x3089 SWAP1 DUP8 SWAP1 PUSH1 0x4 ADD PUSH2 0x3DC0 JUMP JUMPDEST PUSH0 PUSH1 0x40 MLOAD DUP1 DUP4 SUB DUP2 DUP7 GAS STATICCALL ISZERO DUP1 ISZERO PUSH2 0x30A3 JUMPI RETURNDATASIZE PUSH0 DUP1 RETURNDATACOPY RETURNDATASIZE PUSH0 REVERT JUMPDEST POP POP POP POP PUSH1 0x40 MLOAD RETURNDATASIZE PUSH0 DUP3 RETURNDATACOPY PUSH1 0x1F RETURNDATASIZE SWAP1 DUP2 ADD PUSH1 0x1F NOT AND DUP3 ADD PUSH1 0x40 MSTORE PUSH2 0x30CA SWAP2 SWAP1 DUP2 ADD SWAP1 PUSH2 0x56DF JUMP JUMPDEST PUSH1 0x15 SLOAD PUSH1 0x40 MLOAD PUSH4 0xFED4851 PUSH1 0xE1 SHL DUP2 MSTORE SWAP2 SWAP5 POP PUSH1 0x1 PUSH1 0x1 PUSH1 0xA0 SHL SUB AND SWAP1 PUSH4 0x1FDA90A2 SWAP1 PUSH2 0x30FB SWAP1 DUP8 SWAP1 PUSH1 0x4 ADD PUSH2 0x3DC0 JUMP JUMPDEST PUSH0 PUSH1 0x40 MLOAD DUP1 DUP4 SUB DUP2 DUP7 GAS STATICCALL ISZERO DUP1 ISZERO PUSH2 0x3115 JUMPI RETURNDATASIZE PUSH0 DUP1 RETURNDATACOPY RETURNDATASIZE PUSH0 REVERT JUMPDEST POP POP POP POP PUSH1 0x40 MLOAD RETURNDATASIZE PUSH0 DUP3 RETURNDATACOPY PUSH1 0x1F RETURNDATASIZE SWAP1 DUP2 ADD PUSH1 0x1F NOT AND DUP3 ADD PUSH1 0x40 MSTORE PUSH2 0x313C SWAP2 SWAP1 DUP2 ADD SWAP1 PUSH2 0x5A46 JUMP JUMPDEST PUSH1 0x16 SLOAD PUSH1 0x40 MLOAD PUSH4 0x18F0A629 PUSH1 0xE3 SHL DUP2 MSTORE SWAP2 SWAP4 POP PUSH1 0x1 PUSH1 0x1 PUSH1 0xA0 SHL SUB AND SWAP1 PUSH4 0xC7853148 SWAP1 PUSH2 0x316D SWAP1 DUP8 SWAP1 PUSH1 0x4 ADD PUSH2 0x3DC0 JUMP JUMPDEST PUSH0 PUSH1 0x40 MLOAD DUP1 DUP4 SUB DUP2 DUP7 GAS STATICCALL ISZERO DUP1 ISZERO PUSH2 0x3187 JUMPI RETURNDATASIZE PUSH0 DUP1 RETURNDATACOPY RETURNDATASIZE PUSH0 REVERT JUMPDEST POP POP POP POP PUSH1 0x40 MLOAD RETURNDATASIZE PUSH0 DUP3 RETURNDATACOPY PUSH1 0x1F RETURNDATASIZE SWAP1 DUP2 ADD PUSH1 0x1F NOT AND DUP3 ADD PUSH1 0x40 MSTORE PUSH2 0x31AE SWAP2 SWAP1 DUP2 ADD SWAP1 PUSH2 0x5B6B JUMP JUMPDEST SWAP3 SWAP5 SWAP2 SWAP4 POP POP JUMP JUMPDEST PUSH0 DUP1 SLOAD SWAP1 DUP1 PUSH2 0x31C4 DUP4 PUSH2 0x4B95 JUMP JUMPDEST SWAP1 SWAP2 SSTORE POP POP PUSH1 0x1 PUSH1 0x1 PUSH1 0xA0 SHL SUB DUP2 AND PUSH0 SWAP1 DUP2 MSTORE PUSH1 0x6 PUSH1 0x20 MSTORE PUSH1 0x40 DUP2 KECCAK256 DUP1 SLOAD SWAP2 PUSH2 0x26C4 DUP4 PUSH2 0x4B95 JUMP JUMPDEST CALLER PUSH0 SWAP1 DUP2 MSTORE PUSH1 0x9 PUSH1 0x20 SWAP1 DUP2 MSTORE PUSH1 0x40 DUP1 DUP4 KECCAK256 DUP1 SLOAD DUP3 MLOAD DUP2 DUP6 MUL DUP2 ADD DUP6 ADD SWAP1 SWAP4 MSTORE DUP1 DUP4 MSTORE PUSH1 0x60 SWAP5 SWAP3 SWAP4 SWAP2 SWAP3 SWAP1 SWAP2 DUP5 ADD JUMPDEST DUP3 DUP3 LT ISZERO PUSH2 0xA2D JUMPI DUP4 DUP3 SWAP1 PUSH0 MSTORE PUSH1 0x20 PUSH0 KECCAK256 SWAP1 PUSH1 0x6 MUL ADD PUSH1 0x40 MLOAD DUP1 PUSH1 0xE0 ADD PUSH1 0x40 MSTORE SWAP1 DUP2 PUSH0 DUP3 ADD DUP1 SLOAD PUSH2 0x324A SWAP1 PUSH2 0x4C47 JUMP JUMPDEST DUP1 PUSH1 0x1F ADD PUSH1 0x20 DUP1 SWAP2 DIV MUL PUSH1 0x20 ADD PUSH1 0x40 MLOAD SWAP1 DUP2 ADD PUSH1 0x40 MSTORE DUP1 SWAP3 SWAP2 SWAP1 DUP2 DUP2 MSTORE PUSH1 0x20 ADD DUP3 DUP1 SLOAD PUSH2 0x3276 SWAP1 PUSH2 0x4C47 JUMP JUMPDEST DUP1 ISZERO PUSH2 0x32C1 JUMPI DUP1 PUSH1 0x1F LT PUSH2 0x3298 JUMPI PUSH2 0x100 DUP1 DUP4 SLOAD DIV MUL DUP4 MSTORE SWAP2 PUSH1 0x20 ADD SWAP2 PUSH2 0x32C1 JUMP JUMPDEST DUP3 ADD SWAP2 SWAP1 PUSH0 MSTORE PUSH1 0x20 PUSH0 KECCAK256 SWAP1 JUMPDEST DUP2 SLOAD DUP2 MSTORE SWAP1 PUSH1 0x1 ADD SWAP1 PUSH1 0x20 ADD DUP1 DUP4 GT PUSH2 0x32A4 JUMPI DUP3 SWAP1 SUB PUSH1 0x1F AND DUP3 ADD SWAP2 JUMPDEST POP POP POP SWAP2 DUP4 MSTORE POP POP PUSH1 0x1 DUP3 ADD SLOAD PUSH1 0xFF DUP2 AND PUSH1 0x20 DUP4 ADD MSTORE PUSH2 0x100 SWAP1 DIV PUSH1 0x1 PUSH1 0x1 PUSH1 0xA0 SHL SUB AND PUSH1 0x40 DUP3 ADD MSTORE PUSH1 0x2 DUP3 ADD DUP1 SLOAD PUSH1 0x60 SWAP1 SWAP3 ADD SWAP2 PUSH2 0x32FF SWAP1 PUSH2 0x4C47 JUMP JUMPDEST DUP1 PUSH1 0x1F ADD PUSH1 0x20 DUP1 SWAP2 DIV MUL PUSH1 0x20 ADD PUSH1 0x40 MLOAD SWAP1 DUP2 ADD PUSH1 0x40 MSTORE DUP1 SWAP3 SWAP2 SWAP1 DUP2 DUP2 MSTORE PUSH1 0x20 ADD DUP3 DUP1 SLOAD PUSH2 0x332B SWAP1 PUSH2 0x4C47 JUMP JUMPDEST DUP1 ISZERO PUSH2 0x3376 JUMPI DUP1 PUSH1 0x1F LT PUSH2 0x334D JUMPI PUSH2 0x100 DUP1 DUP4 SLOAD DIV MUL DUP4 MSTORE SWAP2 PUSH1 0x20 ADD SWAP2 PUSH2 0x3376 JUMP JUMPDEST DUP3 ADD SWAP2 SWAP1 PUSH0 MSTORE PUSH1 0x20 PUSH0 KECCAK256 SWAP1 JUMPDEST DUP2 SLOAD DUP2 MSTORE SWAP1 PUSH1 0x1 ADD SWAP1 PUSH1 0x20 ADD DUP1 DUP4 GT PUSH2 0x3359 JUMPI DUP3 SWAP1 SUB PUSH1 0x1F AND DUP3 ADD SWAP2 JUMPDEST POP POP POP POP POP DUP2 MSTORE PUSH1 0x20 ADD PUSH1 0x3 DUP3 ADD SLOAD DUP2 MSTORE PUSH1 0x20 ADD PUSH1 0x4 DUP3 ADD DUP1 SLOAD DUP1 PUSH1 0x20 MUL PUSH1 0x20 ADD PUSH1 0x40 MLOAD SWAP1 DUP2 ADD PUSH1 0x40 MSTORE DUP1 SWAP3 SWAP2 SWAP1 DUP2 DUP2 MSTORE PUSH1 0x20 ADD DUP3 DUP1 SLOAD DUP1 ISZERO PUSH2 0x33D6 JUMPI PUSH1 0x20 MUL DUP3 ADD SWAP2 SWAP1 PUSH0 MSTORE PUSH1 0x20 PUSH0 KECCAK256 SWAP1 JUMPDEST DUP2 SLOAD DUP2 MSTORE PUSH1 0x20 ADD SWAP1 PUSH1 0x1 ADD SWAP1 DUP1 DUP4 GT PUSH2 0x33C2 JUMPI JUMPDEST POP POP POP POP POP DUP2 MSTORE PUSH1 0x20 ADD PUSH1 0x5 DUP3 ADD DUP1 SLOAD DUP1 PUSH1 0x20 MUL PUSH1 0x20 ADD PUSH1 0x40 MLOAD SWAP1 DUP2 ADD PUSH1 0x40 MSTORE DUP1 SWAP3 SWAP2 SWAP1 DUP2 DUP2 MSTORE PUSH1 0x20 ADD DUP3 DUP1 SLOAD DUP1 ISZERO PUSH2 0x342C JUMPI PUSH1 0x20 MUL DUP3 ADD SWAP2 SWAP1 PUSH0 MSTORE PUSH1 0x20 PUSH0 KECCAK256 SWAP1 JUMPDEST DUP2 SLOAD DUP2 MSTORE PUSH1 0x20 ADD SWAP1 PUSH1 0x1 ADD SWAP1 DUP1 DUP4 GT PUSH2 0x3418 JUMPI JUMPDEST POP POP POP POP POP DUP2 MSTORE POP POP DUP2 MSTORE PUSH1 0x20 ADD SWAP1 PUSH1 0x1 ADD SWAP1 PUSH2 0x321A JUMP JUMPDEST PUSH1 0x17 SLOAD PUSH1 0x40 MLOAD PUSH4 0x588F1E0D PUSH1 0xE1 SHL DUP2 MSTORE PUSH1 0x60 SWAP2 PUSH1 0x1 PUSH1 0x1 PUSH1 0xA0 SHL SUB AND SWAP1 PUSH4 0xB11E3C1A SWAP1 PUSH2 0x3475 SWAP1 CALLER SWAP1 PUSH1 0x4 ADD PUSH2 0x3DC0 JUMP JUMPDEST PUSH1 0x20 PUSH1 0x40 MLOAD DUP1 DUP4 SUB DUP2 DUP7 GAS STATICCALL ISZERO DUP1 ISZERO PUSH2 0x3490 JUMPI RETURNDATASIZE PUSH0 DUP1 RETURNDATACOPY RETURNDATASIZE PUSH0 REVERT JUMPDEST POP POP POP POP PUSH1 0x40 MLOAD RETURNDATASIZE PUSH1 0x1F NOT PUSH1 0x1F DUP3 ADD AND DUP3 ADD DUP1 PUSH1 0x40 MSTORE POP DUP2 ADD SWAP1 PUSH2 0x34B4 SWAP2 SWAP1 PUSH2 0x4A7D JUMP JUMPDEST PUSH2 0x34D0 JUMPI PUSH1 0x40 MLOAD PUSH3 0x461BCD PUSH1 0xE5 SHL DUP2 MSTORE PUSH1 0x4 ADD PUSH2 0x8E1 SWAP1 PUSH2 0x4A98 JUMP JUMPDEST PUSH1 0x12 DUP1 SLOAD DUP1 PUSH1 0x20 MUL PUSH1 0x20 ADD PUSH1 0x40 MLOAD SWAP1 DUP2 ADD PUSH1 0x40 MSTORE DUP1 SWAP3 SWAP2 SWAP1 DUP2 DUP2 MSTORE PUSH1 0x20 ADD DUP3 DUP1 SLOAD DUP1 ISZERO PUSH2 0x351A JUMPI PUSH1 0x20 MUL DUP3 ADD SWAP2 SWAP1 PUSH0 MSTORE PUSH1 0x20 PUSH0 KECCAK256 SWAP1 JUMPDEST DUP2 SLOAD DUP2 MSTORE PUSH1 0x20 ADD SWAP1 PUSH1 0x1 ADD SWAP1 DUP1 DUP4 GT PUSH2 0x3506 JUMPI JUMPDEST POP POP POP POP POP SWAP1 POP SWAP1 JUMP JUMPDEST PUSH1 0x3 DUP1 SLOAD SWAP1 PUSH0 PUSH2 0x1622 DUP4 PUSH2 0x4B95 JUMP JUMPDEST PUSH1 0x4 DUP1 SLOAD SWAP1 PUSH0 PUSH2 0x1622 DUP4 PUSH2 0x4B95 JUMP JUMPDEST PUSH1 0x1 DUP1 SLOAD SWAP1 PUSH0 PUSH2 0x3551 DUP4 PUSH2 0x4B95 JUMP JUMPDEST SWAP1 SWAP2 SSTORE POP POP PUSH1 0x1 PUSH1 0x1 PUSH1 0xA0 SHL SUB DUP2 AND PUSH0 SWAP1 DUP2 MSTORE PUSH1 0x7 PUSH1 0x20 MSTORE PUSH1 0x40 DUP2 KECCAK256 DUP1 SLOAD SWAP2 PUSH2 0x26C4 DUP4 PUSH2 0x4B95 JUMP JUMPDEST PUSH1 0x60 PUSH0 PUSH2 0x3585 DUP4 PUSH2 0x3B8B JUMP JUMPDEST PUSH1 0x1 ADD SWAP1 POP PUSH0 DUP2 PUSH1 0x1 PUSH1 0x1 PUSH1 0x40 SHL SUB DUP2 GT ISZERO PUSH2 0x35A3 JUMPI PUSH2 0x35A3 PUSH2 0x4039 JUMP JUMPDEST PUSH1 0x40 MLOAD SWAP1 DUP1 DUP3 MSTORE DUP1 PUSH1 0x1F ADD PUSH1 0x1F NOT AND PUSH1 0x20 ADD DUP3 ADD PUSH1 0x40 MSTORE DUP1 ISZERO PUSH2 0x35CD JUMPI PUSH1 0x20 DUP3 ADD DUP2 DUP1 CALLDATASIZE DUP4 CALLDATACOPY ADD SWAP1 POP JUMPDEST POP SWAP1 POP DUP2 DUP2 ADD PUSH1 0x20 ADD JUMPDEST PUSH0 NOT ADD PUSH16 0x181899199A1A9B1B9C1CB0B131B232B3 PUSH1 0x81 SHL PUSH1 0xA DUP7 MOD BYTE DUP2 MSTORE8 PUSH1 0xA DUP6 DIV SWAP5 POP DUP5 PUSH2 0x35D7 JUMPI POP SWAP4 SWAP3 POP POP POP JUMP JUMPDEST PUSH0 DUP2 MLOAD DUP4 MLOAD EQ DUP1 ISZERO PUSH2 0x3627 JUMPI POP DUP2 DUP1 MLOAD SWAP1 PUSH1 0x20 ADD KECCAK256 DUP4 DUP1 MLOAD SWAP1 PUSH1 0x20 ADD KECCAK256 EQ JUMPDEST SWAP4 SWAP3 POP POP POP JUMP JUMPDEST PUSH1 0x40 DUP1 MLOAD PUSH1 0xA0 DUP2 ADD DUP3 MSTORE PUSH0 DUP1 DUP3 MSTORE PUSH1 0x20 DUP3 ADD DUP2 SWAP1 MSTORE PUSH1 0x60 DUP3 DUP5 ADD DUP2 SWAP1 MSTORE DUP1 DUP4 ADD DUP2 SWAP1 MSTORE PUSH1 0x80 DUP4 ADD MSTORE DUP3 MLOAD PUSH1 0x1 DUP1 DUP3 MSTORE DUP2 DUP6 ADD SWAP1 SWAP5 MSTORE SWAP2 SWAP3 SWAP1 SWAP2 SWAP1 DUP2 PUSH1 0x20 ADD PUSH1 0x20 DUP3 MUL DUP1 CALLDATASIZE DUP4 CALLDATACOPY POP POP PUSH1 0x40 DUP1 MLOAD PUSH1 0x1 DUP1 DUP3 MSTORE DUP2 DUP4 ADD SWAP1 SWAP3 MSTORE SWAP3 SWAP4 POP PUSH0 SWAP3 SWAP2 POP PUSH1 0x20 DUP1 DUP4 ADD SWAP1 DUP1 CALLDATASIZE DUP4 CALLDATACOPY POP POP PUSH1 0x40 DUP1 MLOAD PUSH1 0x1 DUP1 DUP3 MSTORE DUP2 DUP4 ADD SWAP1 SWAP3 MSTORE SWAP3 SWAP4 POP PUSH0 SWAP3 SWAP2 POP PUSH1 0x20 DUP1 DUP4 ADD SWAP1 DUP1 CALLDATASIZE DUP4 CALLDATACOPY ADD SWAP1 POP POP SWAP1 POP DUP7 DUP4 PUSH0 DUP2 MLOAD DUP2 LT PUSH2 0x36D1 JUMPI PUSH2 0x36D1 PUSH2 0x4C15 JUMP JUMPDEST PUSH1 0x20 MUL PUSH1 0x20 ADD ADD DUP2 DUP2 MSTORE POP POP DUP6 DUP3 PUSH0 DUP2 MLOAD DUP2 LT PUSH2 0x36F0 JUMPI PUSH2 0x36F0 PUSH2 0x4C15 JUMP JUMPDEST PUSH1 0x20 MUL PUSH1 0x20 ADD ADD DUP2 DUP2 MSTORE POP POP TIMESTAMP DUP2 PUSH0 DUP2 MLOAD DUP2 LT PUSH2 0x370F JUMPI PUSH2 0x370F PUSH2 0x4C15 JUMP JUMPDEST PUSH1 0x20 MUL PUSH1 0x20 ADD ADD DUP2 DUP2 MSTORE POP POP PUSH0 PUSH1 0x40 MLOAD DUP1 PUSH1 0xA0 ADD PUSH1 0x40 MSTORE DUP1 CALLER PUSH1 0x1 PUSH1 0x1 PUSH1 0xA0 SHL SUB AND DUP2 MSTORE PUSH1 0x20 ADD DUP8 PUSH1 0x1 DUP2 GT ISZERO PUSH2 0x3748 JUMPI PUSH2 0x3748 PUSH2 0x5C16 JUMP JUMPDEST PUSH1 0xFF AND DUP2 MSTORE PUSH1 0x20 DUP2 ADD SWAP6 SWAP1 SWAP6 MSTORE PUSH1 0x40 DUP6 ADD SWAP4 SWAP1 SWAP4 MSTORE POP PUSH1 0x60 SWAP1 SWAP3 ADD SWAP2 SWAP1 SWAP2 MSTORE SWAP5 SWAP4 POP POP POP POP JUMP JUMPDEST PUSH1 0x60 PUSH0 DUP3 MLOAD PUSH1 0x1 PUSH1 0x1 PUSH1 0x40 SHL SUB DUP2 GT ISZERO PUSH2 0x378B JUMPI PUSH2 0x378B PUSH2 0x4039 JUMP JUMPDEST PUSH1 0x40 MLOAD SWAP1 DUP1 DUP3 MSTORE DUP1 PUSH1 0x20 MUL PUSH1 0x20 ADD DUP3 ADD PUSH1 0x40 MSTORE DUP1 ISZERO PUSH2 0x37BE JUMPI DUP2 PUSH1 0x20 ADD JUMPDEST PUSH1 0x60 DUP2 MSTORE PUSH1 0x20 ADD SWAP1 PUSH1 0x1 SWAP1 SUB SWAP1 DUP2 PUSH2 0x37A9 JUMPI SWAP1 POP JUMPDEST POP SWAP1 POP PUSH0 JUMPDEST DUP4 MLOAD DUP2 LT ISZERO PUSH2 0x3888 JUMPI PUSH1 0x17 SLOAD DUP5 MLOAD PUSH0 SWAP2 PUSH1 0x1 PUSH1 0x1 PUSH1 0xA0 SHL SUB AND SWAP1 PUSH4 0x6386C1C7 SWAP1 DUP8 SWAP1 DUP6 SWAP1 DUP2 LT PUSH2 0x37F5 JUMPI PUSH2 0x37F5 PUSH2 0x4C15 JUMP JUMPDEST PUSH1 0x20 MUL PUSH1 0x20 ADD ADD MLOAD PUSH1 0x40 MLOAD DUP3 PUSH4 0xFFFFFFFF AND PUSH1 0xE0 SHL DUP2 MSTORE PUSH1 0x4 ADD PUSH2 0x3819 SWAP2 SWAP1 PUSH2 0x3DC0 JUMP JUMPDEST PUSH0 PUSH1 0x40 MLOAD DUP1 DUP4 SUB DUP2 DUP7 GAS STATICCALL ISZERO DUP1 ISZERO PUSH2 0x3833 JUMPI RETURNDATASIZE PUSH0 DUP1 RETURNDATACOPY RETURNDATASIZE PUSH0 REVERT JUMPDEST POP POP POP POP PUSH1 0x40 MLOAD RETURNDATASIZE PUSH0 DUP3 RETURNDATACOPY PUSH1 0x1F RETURNDATASIZE SWAP1 DUP2 ADD PUSH1 0x1F NOT AND DUP3 ADD PUSH1 0x40 MSTORE PUSH2 0x385A SWAP2 SWAP1 DUP2 ADD SWAP1 PUSH2 0x5579 JUMP JUMPDEST POP SWAP1 POP DUP1 PUSH1 0x20 ADD MLOAD DUP4 DUP4 DUP2 MLOAD DUP2 LT PUSH2 0x3874 JUMPI PUSH2 0x3874 PUSH2 0x4C15 JUMP JUMPDEST PUSH1 0x20 SWAP1 DUP2 MUL SWAP2 SWAP1 SWAP2 ADD ADD MSTORE POP PUSH1 0x1 ADD PUSH2 0x37C3 JUMP JUMPDEST POP DUP1 PUSH1 0x40 MLOAD PUSH1 0x20 ADD PUSH2 0x389A SWAP2 SWAP1 PUSH2 0x5C2A JUMP JUMPDEST PUSH1 0x40 MLOAD PUSH1 0x20 DUP2 DUP4 SUB SUB DUP2 MSTORE SWAP1 PUSH1 0x40 MSTORE SWAP2 POP POP SWAP2 SWAP1 POP JUMP JUMPDEST PUSH1 0x1 DUP3 ADD SLOAD DUP2 LT PUSH2 0x38C0 JUMPI POP POP JUMP JUMPDEST DUP1 JUMPDEST PUSH1 0x1 DUP4 DUP2 ADD SLOAD PUSH2 0x38D2 SWAP2 SWAP1 PUSH2 0x50AA JUMP JUMPDEST DUP2 LT ISZERO PUSH2 0x39BB JUMPI DUP3 PUSH1 0x1 ADD DUP2 PUSH1 0x1 PUSH2 0x38EA SWAP2 SWAP1 PUSH2 0x5C8D JUMP JUMPDEST DUP2 SLOAD DUP2 LT PUSH2 0x38FA JUMPI PUSH2 0x38FA PUSH2 0x4C15 JUMP JUMPDEST SWAP1 PUSH0 MSTORE PUSH1 0x20 PUSH0 KECCAK256 ADD SLOAD DUP4 PUSH1 0x1 ADD DUP3 DUP2 SLOAD DUP2 LT PUSH2 0x3918 JUMPI PUSH2 0x3918 PUSH2 0x4C15 JUMP JUMPDEST PUSH0 SWAP2 DUP3 MSTORE PUSH1 0x20 SWAP1 SWAP2 KECCAK256 ADD SSTORE PUSH1 0x2 DUP4 ADD PUSH2 0x3932 DUP3 PUSH1 0x1 PUSH2 0x5C8D JUMP JUMPDEST DUP2 SLOAD DUP2 LT PUSH2 0x3942 JUMPI PUSH2 0x3942 PUSH2 0x4C15 JUMP JUMPDEST SWAP1 PUSH0 MSTORE PUSH1 0x20 PUSH0 KECCAK256 ADD SLOAD DUP4 PUSH1 0x2 ADD DUP3 DUP2 SLOAD DUP2 LT PUSH2 0x3960 JUMPI PUSH2 0x3960 PUSH2 0x4C15 JUMP JUMPDEST PUSH0 SWAP2 DUP3 MSTORE PUSH1 0x20 SWAP1 SWAP2 KECCAK256 ADD SSTORE PUSH1 0x3 DUP4 ADD PUSH2 0x397A DUP3 PUSH1 0x1 PUSH2 0x5C8D JUMP JUMPDEST DUP2 SLOAD DUP2 LT PUSH2 0x398A JUMPI PUSH2 0x398A PUSH2 0x4C15 JUMP JUMPDEST SWAP1 PUSH0 MSTORE PUSH1 0x20 PUSH0 KECCAK256 ADD SLOAD DUP4 PUSH1 0x3 ADD DUP3 DUP2 SLOAD DUP2 LT PUSH2 0x39A8 JUMPI PUSH2 0x39A8 PUSH2 0x4C15 JUMP JUMPDEST PUSH0 SWAP2 DUP3 MSTORE PUSH1 0x20 SWAP1 SWAP2 KECCAK256 ADD SSTORE PUSH1 0x1 ADD PUSH2 0x38C2 JUMP JUMPDEST POP DUP2 PUSH1 0x1 ADD DUP1 SLOAD DUP1 PUSH2 0x39CF JUMPI PUSH2 0x39CF PUSH2 0x51E9 JUMP JUMPDEST PUSH1 0x1 SWAP1 SUB DUP2 DUP2 SWAP1 PUSH0 MSTORE PUSH1 0x20 PUSH0 KECCAK256 ADD PUSH0 SWAP1 SSTORE SWAP1 SSTORE DUP2 PUSH1 0x2 ADD DUP1 SLOAD DUP1 PUSH2 0x39F5 JUMPI PUSH2 0x39F5 PUSH2 0x51E9 JUMP JUMPDEST PUSH1 0x1 SWAP1 SUB DUP2 DUP2 SWAP1 PUSH0 MSTORE PUSH1 0x20 PUSH0 KECCAK256 ADD PUSH0 SWAP1 SSTORE SWAP1 SSTORE DUP2 PUSH1 0x3 ADD DUP1 SLOAD DUP1 PUSH2 0x3A1B JUMPI PUSH2 0x3A1B PUSH2 0x51E9 JUMP JUMPDEST PUSH1 0x1 SWAP1 SUB DUP2 DUP2 SWAP1 PUSH0 MSTORE PUSH1 0x20 PUSH0 KECCAK256 ADD PUSH0 SWAP1 SSTORE SWAP1 SSTORE POP POP JUMP JUMPDEST DUP2 SLOAD DUP2 LT PUSH2 0x3A3E JUMPI POP POP JUMP JUMPDEST DUP1 JUMPDEST DUP3 SLOAD PUSH2 0x3A4E SWAP1 PUSH1 0x1 SWAP1 PUSH2 0x50AA JUMP JUMPDEST DUP2 LT ISZERO PUSH2 0x3B29 JUMPI DUP3 PUSH2 0x3A61 DUP3 PUSH1 0x1 PUSH2 0x5C8D JUMP JUMPDEST DUP2 SLOAD DUP2 LT PUSH2 0x3A71 JUMPI PUSH2 0x3A71 PUSH2 0x4C15 JUMP JUMPDEST SWAP1 PUSH0 MSTORE PUSH1 0x20 PUSH0 KECCAK256 SWAP1 PUSH1 0x4 MUL ADD DUP4 DUP3 DUP2 SLOAD DUP2 LT PUSH2 0x3A8F JUMPI PUSH2 0x3A8F PUSH2 0x4C15 JUMP JUMPDEST PUSH0 SWAP2 DUP3 MSTORE PUSH1 0x20 SWAP1 SWAP2 KECCAK256 DUP3 SLOAD PUSH1 0x4 SWAP1 SWAP3 MUL ADD DUP1 SLOAD PUSH1 0x1 PUSH1 0x1 PUSH1 0xA0 SHL SUB SWAP1 SWAP3 AND PUSH1 0x1 PUSH1 0x1 PUSH1 0xA0 SHL SUB NOT DUP4 AND DUP2 OR DUP3 SSTORE DUP4 SLOAD PUSH1 0x1 PUSH1 0x1 PUSH1 0xA8 SHL SUB NOT SWAP1 SWAP4 AND OR PUSH1 0x1 PUSH1 0xA0 SHL SWAP3 DUP4 SWAP1 DIV PUSH1 0xFF AND SWAP1 SWAP3 MUL SWAP2 SWAP1 SWAP2 OR DUP2 SSTORE PUSH1 0x1 DUP1 DUP4 ADD DUP1 SLOAD PUSH2 0x3AF4 SWAP3 DUP5 ADD SWAP2 SWAP1 PUSH2 0x3C60 JUMP JUMPDEST POP PUSH1 0x2 DUP3 DUP2 ADD DUP1 SLOAD PUSH2 0x3B09 SWAP3 DUP5 ADD SWAP2 SWAP1 PUSH2 0x3C60 JUMP JUMPDEST POP PUSH1 0x3 DUP3 DUP2 ADD DUP1 SLOAD PUSH2 0x3B1E SWAP3 DUP5 ADD SWAP2 SWAP1 PUSH2 0x3C60 JUMP JUMPDEST POP POP POP PUSH1 0x1 ADD PUSH2 0x3A40 JUMP JUMPDEST POP DUP2 DUP1 SLOAD DUP1 PUSH2 0x3B3A JUMPI PUSH2 0x3B3A PUSH2 0x51E9 JUMP JUMPDEST PUSH0 DUP3 DUP2 MSTORE PUSH1 0x20 DUP2 KECCAK256 PUSH1 0x4 PUSH0 NOT SWAP1 SWAP4 ADD SWAP3 DUP4 MUL ADD DUP1 SLOAD PUSH1 0x1 PUSH1 0x1 PUSH1 0xA8 SHL SUB NOT AND DUP2 SSTORE SWAP1 PUSH2 0x3B69 PUSH1 0x1 DUP4 ADD DUP3 PUSH2 0x3CE6 JUMP JUMPDEST PUSH2 0x3B76 PUSH1 0x2 DUP4 ADD PUSH0 PUSH2 0x3CE6 JUMP JUMPDEST PUSH2 0x3B83 PUSH1 0x3 DUP4 ADD PUSH0 PUSH2 0x3CE6 JUMP JUMPDEST POP POP SWAP1 SSTORE POP POP JUMP JUMPDEST PUSH0 DUP1 PUSH19 0x184F03E93FF9F4DAA797ED6E38ED64BF6A1F01 PUSH1 0x40 SHL DUP4 LT PUSH2 0x3BC9 JUMPI PUSH19 0x184F03E93FF9F4DAA797ED6E38ED64BF6A1F01 PUSH1 0x40 SHL DUP4 DIV SWAP3 POP PUSH1 0x40 ADD JUMPDEST PUSH10 0x4EE2D6D415B85ACEF81 PUSH1 0x20 SHL DUP4 LT PUSH2 0x3BF3 JUMPI PUSH10 0x4EE2D6D415B85ACEF81 PUSH1 0x20 SHL DUP4 DIV SWAP3 POP PUSH1 0x20 ADD JUMPDEST PUSH7 0x2386F26FC10000 DUP4 LT PUSH2 0x3C11 JUMPI PUSH7 0x2386F26FC10000 DUP4 DIV SWAP3 POP PUSH1 0x10 ADD JUMPDEST PUSH4 0x5F5E100 DUP4 LT PUSH2 0x3C29 JUMPI PUSH4 0x5F5E100 DUP4 DIV SWAP3 POP PUSH1 0x8 ADD JUMPDEST PUSH2 0x2710 DUP4 LT PUSH2 0x3C3D JUMPI PUSH2 0x2710 DUP4 DIV SWAP3 POP PUSH1 0x4 ADD JUMPDEST PUSH1 0x64 DUP4 LT PUSH2 0x3C4F JUMPI PUSH1 0x64 DUP4 DIV SWAP3 POP PUSH1 0x2 ADD JUMPDEST PUSH1 0xA DUP4 LT PUSH2 0x9B7 JUMPI PUSH1 0x1 ADD SWAP3 SWAP2 POP POP JUMP JUMPDEST DUP3 DUP1 SLOAD DUP3 DUP3 SSTORE SWAP1 PUSH0 MSTORE PUSH1 0x20 PUSH0 KECCAK256 SWAP1 DUP2 ADD SWAP3 DUP3 ISZERO PUSH2 0x3C9C JUMPI PUSH0 MSTORE PUSH1 0x20 PUSH0 KECCAK256 SWAP2 DUP3 ADD JUMPDEST DUP3 DUP2 GT ISZERO PUSH2 0x3C9C JUMPI DUP3 SLOAD DUP3 SSTORE SWAP2 PUSH1 0x1 ADD SWAP2 SWAP1 PUSH1 0x1 ADD SWAP1 PUSH2 0x3C81 JUMP JUMPDEST POP PUSH2 0x3CA8 SWAP3 SWAP2 POP PUSH2 0x3D3A JUMP JUMPDEST POP SWAP1 JUMP JUMPDEST POP DUP1 SLOAD PUSH2 0x3CB8 SWAP1 PUSH2 0x4C47 JUMP JUMPDEST PUSH0 DUP3 SSTORE DUP1 PUSH1 0x1F LT PUSH2 0x3CC7 JUMPI POP POP JUMP JUMPDEST PUSH1 0x1F ADD PUSH1 0x20 SWAP1 DIV SWAP1 PUSH0 MSTORE PUSH1 0x20 PUSH0 KECCAK256 SWAP1 DUP2 ADD SWAP1 PUSH2 0x3CE3 SWAP2 SWAP1 PUSH2 0x3D3A JUMP JUMPDEST POP JUMP JUMPDEST POP DUP1 SLOAD PUSH0 DUP3 SSTORE SWAP1 PUSH0 MSTORE PUSH1 0x20 PUSH0 KECCAK256 SWAP1 DUP2 ADD SWAP1 PUSH2 0x3CE3 SWAP2 SWAP1 PUSH2 0x3D3A JUMP JUMPDEST DUP3 DUP1 SLOAD DUP3 DUP3 SSTORE SWAP1 PUSH0 MSTORE PUSH1 0x20 PUSH0 KECCAK256 SWAP1 DUP2 ADD SWAP3 DUP3 ISZERO PUSH2 0x3C9C JUMPI SWAP2 PUSH1 0x20 MUL DUP3 ADD JUMPDEST DUP3 DUP2 GT ISZERO PUSH2 0x3C9C JUMPI DUP3 MLOAD DUP3 SSTORE SWAP2 PUSH1 0x20 ADD SWAP2 SWAP1 PUSH1 0x1 ADD SWAP1 PUSH2 0x3D1F JUMP JUMPDEST JUMPDEST DUP1 DUP3 GT ISZERO PUSH2 0x3CA8 JUMPI PUSH0 DUP2 SSTORE PUSH1 0x1 ADD PUSH2 0x3D3B JUMP JUMPDEST PUSH1 0x1 PUSH1 0x1 PUSH1 0xA0 SHL SUB DUP2 AND DUP2 EQ PUSH2 0x3CE3 JUMPI PUSH0 DUP1 REVERT JUMPDEST DUP1 CALLDATALOAD PUSH2 0x3D6D DUP2 PUSH2 0x3D4E JUMP JUMPDEST SWAP2 SWAP1 POP JUMP JUMPDEST PUSH0 DUP1 PUSH1 0x40 DUP4 DUP6 SUB SLT ISZERO PUSH2 0x3D83 JUMPI PUSH0 DUP1 REVERT JUMPDEST DUP3 CALLDATALOAD PUSH2 0x3D8E DUP2 PUSH2 0x3D4E JUMP JUMPDEST SWAP5 PUSH1 0x20 SWAP4 SWAP1 SWAP4 ADD CALLDATALOAD SWAP4 POP POP POP JUMP JUMPDEST PUSH1 0x1 PUSH1 0x1 PUSH1 0xA0 SHL SUB AND SWAP1 MSTORE JUMP JUMPDEST PUSH0 PUSH1 0x20 DUP3 DUP5 SUB SLT ISZERO PUSH2 0x3DB9 JUMPI PUSH0 DUP1 REVERT JUMPDEST POP CALLDATALOAD SWAP2 SWAP1 POP JUMP JUMPDEST PUSH1 0x1 PUSH1 0x1 PUSH1 0xA0 SHL SUB SWAP2 SWAP1 SWAP2 AND DUP2 MSTORE PUSH1 0x20 ADD SWAP1 JUMP JUMPDEST PUSH0 DUP1 PUSH1 0x40 DUP4 DUP6 SUB SLT ISZERO PUSH2 0x3DE5 JUMPI PUSH0 DUP1 REVERT JUMPDEST POP POP DUP1 CALLDATALOAD SWAP3 PUSH1 0x20 SWAP1 SWAP2 ADD CALLDATALOAD SWAP2 POP JUMP JUMPDEST PUSH0 DUP2 MLOAD DUP1 DUP5 MSTORE DUP1 PUSH1 0x20 DUP5 ADD PUSH1 0x20 DUP7 ADD MCOPY PUSH0 PUSH1 0x20 DUP3 DUP7 ADD ADD MSTORE PUSH1 0x20 PUSH1 0x1F NOT PUSH1 0x1F DUP4 ADD AND DUP6 ADD ADD SWAP2 POP POP SWAP3 SWAP2 POP POP JUMP JUMPDEST PUSH0 DUP2 MLOAD DUP1 DUP5 MSTORE PUSH1 0x20 DUP5 ADD SWAP4 POP PUSH1 0x20 DUP4 ADD PUSH0 JUMPDEST DUP3 DUP2 LT ISZERO PUSH2 0x3E52 JUMPI DUP2 MLOAD DUP7 MSTORE PUSH1 0x20 SWAP6 DUP7 ADD SWAP6 SWAP1 SWAP2 ADD SWAP1 PUSH1 0x1 ADD PUSH2 0x3E34 JUMP JUMPDEST POP SWAP4 SWAP5 SWAP4 POP POP POP POP JUMP JUMPDEST PUSH0 DUP3 DUP3 MLOAD DUP1 DUP6 MSTORE PUSH1 0x20 DUP6 ADD SWAP5 POP PUSH1 0x20 DUP2 PUSH1 0x5 SHL DUP4 ADD ADD PUSH1 0x20 DUP6 ADD PUSH0 JUMPDEST DUP4 DUP2 LT ISZERO PUSH2 0x3F2F JUMPI PUSH1 0x1F NOT DUP6 DUP5 SUB ADD DUP9 MSTORE DUP2 MLOAD DUP1 MLOAD PUSH1 0xE0 DUP6 MSTORE PUSH2 0x3E9E PUSH1 0xE0 DUP7 ADD DUP3 PUSH2 0x3DF4 JUMP JUMPDEST SWAP1 POP PUSH1 0xFF PUSH1 0x20 DUP4 ADD MLOAD AND PUSH1 0x20 DUP7 ADD MSTORE PUSH1 0x40 DUP3 ADD MLOAD PUSH2 0x3EBF PUSH1 0x40 DUP8 ADD DUP3 PUSH2 0x3D9C JUMP JUMPDEST POP PUSH1 0x60 DUP3 ADD MLOAD DUP6 DUP3 SUB PUSH1 0x60 DUP8 ADD MSTORE PUSH2 0x3ED7 DUP3 DUP3 PUSH2 0x3DF4 JUMP JUMPDEST SWAP2 POP POP PUSH1 0x80 DUP3 ADD MLOAD PUSH1 0x80 DUP7 ADD MSTORE PUSH1 0xA0 DUP3 ADD MLOAD DUP6 DUP3 SUB PUSH1 0xA0 DUP8 ADD MSTORE PUSH2 0x3EFB DUP3 DUP3 PUSH2 0x3E22 JUMP JUMPDEST SWAP2 POP POP PUSH1 0xC0 DUP3 ADD MLOAD SWAP2 POP DUP5 DUP2 SUB PUSH1 0xC0 DUP7 ADD MSTORE PUSH2 0x3F17 DUP2 DUP4 PUSH2 0x3E22 JUMP JUMPDEST PUSH1 0x20 SWAP11 DUP12 ADD SWAP11 SWAP1 SWAP6 POP SWAP4 SWAP1 SWAP4 ADD SWAP3 POP POP PUSH1 0x1 ADD PUSH2 0x3E78 JUMP JUMPDEST POP SWAP1 SWAP7 SWAP6 POP POP POP POP POP POP JUMP JUMPDEST PUSH0 DUP3 DUP3 MLOAD DUP1 DUP6 MSTORE PUSH1 0x20 DUP6 ADD SWAP5 POP PUSH1 0x20 DUP2 PUSH1 0x5 SHL DUP4 ADD ADD PUSH1 0x20 DUP6 ADD PUSH0 JUMPDEST DUP4 DUP2 LT ISZERO PUSH2 0x3F2F JUMPI PUSH1 0x1F NOT DUP6 DUP5 SUB ADD DUP9 MSTORE DUP2 MLOAD PUSH1 0x1 DUP1 PUSH1 0xA0 SHL SUB DUP2 MLOAD AND DUP5 MSTORE PUSH1 0xFF PUSH1 0x20 DUP3 ADD MLOAD AND PUSH1 0x20 DUP6 ADD MSTORE PUSH1 0x40 DUP2 ADD MLOAD PUSH1 0xA0 PUSH1 0x40 DUP7 ADD MSTORE PUSH2 0x3F9C PUSH1 0xA0 DUP7 ADD DUP3 PUSH2 0x3E22 JUMP JUMPDEST SWAP1 POP PUSH1 0x60 DUP3 ADD MLOAD DUP6 DUP3 SUB PUSH1 0x60 DUP8 ADD MSTORE PUSH2 0x3FB5 DUP3 DUP3 PUSH2 0x3E22 JUMP JUMPDEST SWAP2 POP POP PUSH1 0x80 DUP3 ADD MLOAD SWAP2 POP DUP5 DUP2 SUB PUSH1 0x80 DUP7 ADD MSTORE PUSH2 0x3FD1 DUP2 DUP4 PUSH2 0x3E22 JUMP JUMPDEST PUSH1 0x20 SWAP11 DUP12 ADD SWAP11 SWAP1 SWAP6 POP SWAP4 SWAP1 SWAP4 ADD SWAP3 POP POP PUSH1 0x1 ADD PUSH2 0x3F57 JUMP JUMPDEST PUSH1 0xA0 DUP2 MSTORE PUSH0 PUSH2 0x3FFB PUSH1 0xA0 DUP4 ADD DUP9 PUSH2 0x3E5C JUMP JUMPDEST DUP7 PUSH1 0x20 DUP5 ADD MSTORE DUP6 PUSH1 0x40 DUP5 ADD MSTORE DUP3 DUP2 SUB PUSH1 0x60 DUP5 ADD MSTORE PUSH2 0x4019 DUP2 DUP7 PUSH2 0x3F3B JUMP JUMPDEST SWAP1 POP DUP3 DUP2 SUB PUSH1 0x80 DUP5 ADD MSTORE PUSH2 0x402D DUP2 DUP6 PUSH2 0x3E22 JUMP JUMPDEST SWAP9 SWAP8 POP POP POP POP POP POP POP POP JUMP JUMPDEST PUSH4 0x4E487B71 PUSH1 0xE0 SHL PUSH0 MSTORE PUSH1 0x41 PUSH1 0x4 MSTORE PUSH1 0x24 PUSH0 REVERT JUMPDEST PUSH1 0x40 DUP1 MLOAD SWAP1 DUP2 ADD PUSH1 0x1 PUSH1 0x1 PUSH1 0x40 SHL SUB DUP2 GT DUP3 DUP3 LT OR ISZERO PUSH2 0x406F JUMPI PUSH2 0x406F PUSH2 0x4039 JUMP JUMPDEST PUSH1 0x40 MSTORE SWAP1 JUMP JUMPDEST PUSH1 0x40 MLOAD PUSH1 0xA0 DUP2 ADD PUSH1 0x1 PUSH1 0x1 PUSH1 0x40 SHL SUB DUP2 GT DUP3 DUP3 LT OR ISZERO PUSH2 0x406F JUMPI PUSH2 0x406F PUSH2 0x4039 JUMP JUMPDEST PUSH1 0x40 MLOAD PUSH1 0x80 DUP2 ADD PUSH1 0x1 PUSH1 0x1 PUSH1 0x40 SHL SUB DUP2 GT DUP3 DUP3 LT OR ISZERO PUSH2 0x406F JUMPI PUSH2 0x406F PUSH2 0x4039 JUMP JUMPDEST PUSH1 0x40 MLOAD PUSH2 0x300 DUP2 ADD PUSH1 0x1 PUSH1 0x1 PUSH1 0x40 SHL SUB DUP2 GT DUP3 DUP3 LT OR ISZERO PUSH2 0x406F JUMPI PUSH2 0x406F PUSH2 0x4039 JUMP JUMPDEST PUSH1 0x40 MLOAD PUSH2 0x140 DUP2 ADD PUSH1 0x1 PUSH1 0x1 PUSH1 0x40 SHL SUB DUP2 GT DUP3 DUP3 LT OR ISZERO PUSH2 0x406F JUMPI PUSH2 0x406F PUSH2 0x4039 JUMP JUMPDEST PUSH1 0x40 MLOAD PUSH2 0x260 DUP2 ADD PUSH1 0x1 PUSH1 0x1 PUSH1 0x40 SHL SUB DUP2 GT DUP3 DUP3 LT OR ISZERO PUSH2 0x406F JUMPI PUSH2 0x406F PUSH2 0x4039 JUMP JUMPDEST PUSH1 0x40 MLOAD PUSH1 0x60 DUP2 ADD PUSH1 0x1 PUSH1 0x1 PUSH1 0x40 SHL SUB DUP2 GT DUP3 DUP3 LT OR ISZERO PUSH2 0x406F JUMPI PUSH2 0x406F PUSH2 0x4039 JUMP JUMPDEST PUSH1 0x40 MLOAD PUSH1 0x1F DUP3 ADD PUSH1 0x1F NOT AND DUP2 ADD PUSH1 0x1 PUSH1 0x1 PUSH1 0x40 SHL SUB DUP2 GT DUP3 DUP3 LT OR ISZERO PUSH2 0x416C JUMPI PUSH2 0x416C PUSH2 0x4039 JUMP JUMPDEST PUSH1 0x40 MSTORE SWAP2 SWAP1 POP JUMP JUMPDEST PUSH0 PUSH1 0x1 PUSH1 0x1 PUSH1 0x40 SHL SUB DUP3 GT ISZERO PUSH2 0x418C JUMPI PUSH2 0x418C PUSH2 0x4039 JUMP JUMPDEST POP PUSH1 0x1F ADD PUSH1 0x1F NOT AND PUSH1 0x20 ADD SWAP1 JUMP JUMPDEST PUSH0 DUP3 PUSH1 0x1F DUP4 ADD SLT PUSH2 0x41A9 JUMPI PUSH0 DUP1 REVERT JUMPDEST DUP2 CALLDATALOAD PUSH2 0x41BC PUSH2 0x41B7 DUP3 PUSH2 0x4174 JUMP JUMPDEST PUSH2 0x4144 JUMP JUMPDEST DUP2 DUP2 MSTORE DUP5 PUSH1 0x20 DUP4 DUP7 ADD ADD GT ISZERO PUSH2 0x41D0 JUMPI PUSH0 DUP1 REVERT JUMPDEST DUP2 PUSH1 0x20 DUP6 ADD PUSH1 0x20 DUP4 ADD CALLDATACOPY PUSH0 SWAP2 DUP2 ADD PUSH1 0x20 ADD SWAP2 SWAP1 SWAP2 MSTORE SWAP4 SWAP3 POP POP POP JUMP JUMPDEST PUSH0 DUP1 PUSH1 0x40 DUP4 DUP6 SUB SLT ISZERO PUSH2 0x41FD JUMPI PUSH0 DUP1 REVERT JUMPDEST DUP3 CALLDATALOAD SWAP2 POP PUSH1 0x20 DUP4 ADD CALLDATALOAD PUSH1 0x1 PUSH1 0x1 PUSH1 0x40 SHL SUB DUP2 GT ISZERO PUSH2 0x4219 JUMPI PUSH0 DUP1 REVERT JUMPDEST PUSH2 0x4225 DUP6 DUP3 DUP7 ADD PUSH2 0x419A JUMP JUMPDEST SWAP2 POP POP SWAP3 POP SWAP3 SWAP1 POP JUMP JUMPDEST PUSH1 0x20 DUP2 MSTORE PUSH0 PUSH2 0x3627 PUSH1 0x20 DUP4 ADD DUP5 PUSH2 0x3DF4 JUMP JUMPDEST PUSH1 0x20 DUP1 DUP3 MSTORE DUP3 MLOAD DUP3 DUP3 ADD DUP2 SWAP1 MSTORE PUSH0 SWAP2 DUP5 ADD SWAP1 PUSH1 0x40 DUP5 ADD SWAP1 DUP4 JUMPDEST DUP2 DUP2 LT ISZERO PUSH2 0x4294 JUMPI DUP4 MLOAD DUP1 MLOAD DUP5 MSTORE PUSH1 0x20 DUP2 ADD MLOAD PUSH1 0x20 DUP6 ADD MSTORE PUSH1 0x40 DUP2 ADD MLOAD PUSH1 0x40 DUP6 ADD MSTORE POP PUSH1 0x60 DUP4 ADD SWAP3 POP PUSH1 0x20 DUP5 ADD SWAP4 POP PUSH1 0x1 DUP2 ADD SWAP1 POP PUSH2 0x425A JUMP JUMPDEST POP SWAP1 SWAP6 SWAP5 POP POP POP POP POP JUMP JUMPDEST PUSH1 0x20 DUP2 MSTORE PUSH0 PUSH2 0x3627 PUSH1 0x20 DUP4 ADD DUP5 PUSH2 0x3E22 JUMP JUMPDEST PUSH0 DUP1 PUSH0 DUP4 DUP6 SUB PUSH1 0x60 DUP2 SLT ISZERO PUSH2 0x42C4 JUMPI PUSH0 DUP1 REVERT JUMPDEST DUP5 CALLDATALOAD PUSH1 0x1 PUSH1 0x1 PUSH1 0x40 SHL SUB DUP2 GT ISZERO PUSH2 0x42D9 JUMPI PUSH0 DUP1 REVERT JUMPDEST DUP6 ADD PUSH1 0x1F DUP2 ADD DUP8 SGT PUSH2 0x42E9 JUMPI PUSH0 DUP1 REVERT JUMPDEST DUP1 CALLDATALOAD PUSH1 0x1 PUSH1 0x1 PUSH1 0x40 SHL SUB DUP2 GT ISZERO PUSH2 0x42FE JUMPI PUSH0 DUP1 REVERT JUMPDEST DUP8 PUSH1 0x20 DUP3 DUP5 ADD ADD GT ISZERO PUSH2 0x430F JUMPI PUSH0 DUP1 REVERT JUMPDEST PUSH1 0x20 SWAP2 SWAP1 SWAP2 ADD SWAP5 POP SWAP3 POP PUSH1 0x40 PUSH1 0x1F NOT DUP3 ADD SLT ISZERO PUSH2 0x432A JUMPI PUSH0 DUP1 REVERT JUMPDEST POP PUSH2 0x4333 PUSH2 0x404D JUMP JUMPDEST PUSH1 0x20 DUP6 DUP2 ADD CALLDATALOAD DUP3 MSTORE PUSH1 0x40 SWAP1 SWAP6 ADD CALLDATALOAD SWAP5 DUP2 ADD SWAP5 SWAP1 SWAP5 MSTORE POP SWAP1 SWAP4 SWAP1 SWAP3 POP JUMP JUMPDEST PUSH0 PUSH1 0x20 DUP3 DUP5 SUB SLT ISZERO PUSH2 0x4360 JUMPI PUSH0 DUP1 REVERT JUMPDEST DUP2 CALLDATALOAD PUSH2 0x3627 DUP2 PUSH2 0x3D4E JUMP JUMPDEST PUSH1 0x20 DUP2 MSTORE PUSH0 PUSH2 0x3627 PUSH1 0x20 DUP4 ADD DUP5 PUSH2 0x3F3B JUMP JUMPDEST PUSH0 PUSH1 0x20 DUP3 DUP5 SUB SLT ISZERO PUSH2 0x438D JUMPI PUSH0 DUP1 REVERT JUMPDEST DUP2 CALLDATALOAD PUSH1 0x1 PUSH1 0x1 PUSH1 0x40 SHL SUB DUP2 GT ISZERO PUSH2 0x43A2 JUMPI PUSH0 DUP1 REVERT JUMPDEST PUSH2 0x43AE DUP5 DUP3 DUP6 ADD PUSH2 0x419A JUMP JUMPDEST SWAP5 SWAP4 POP POP POP POP JUMP JUMPDEST PUSH1 0x60 DUP2 MSTORE PUSH0 PUSH2 0x43C8 PUSH1 0x60 DUP4 ADD DUP7 PUSH2 0x3E22 JUMP JUMPDEST DUP3 DUP2 SUB PUSH1 0x20 DUP5 ADD MSTORE PUSH2 0x43DA DUP2 DUP7 PUSH2 0x3E22 JUMP JUMPDEST SWAP1 POP DUP3 DUP2 SUB PUSH1 0x40 DUP5 ADD MSTORE PUSH2 0x43EE DUP2 DUP6 PUSH2 0x3E22 JUMP JUMPDEST SWAP7 SWAP6 POP POP POP POP POP POP JUMP JUMPDEST PUSH1 0x20 DUP2 MSTORE PUSH0 PUSH2 0x3627 PUSH1 0x20 DUP4 ADD DUP5 PUSH2 0x3E5C JUMP JUMPDEST DUP1 ISZERO ISZERO DUP2 EQ PUSH2 0x3CE3 JUMPI PUSH0 DUP1 REVERT JUMPDEST PUSH0 DUP1 PUSH0 DUP1 PUSH0 DUP1 PUSH1 0xC0 DUP8 DUP10 SUB SLT ISZERO PUSH2 0x442C JUMPI PUSH0 DUP1 REVERT JUMPDEST DUP7 CALLDATALOAD PUSH2 0x4437 DUP2 PUSH2 0x3D4E JUMP JUMPDEST SWAP6 POP PUSH1 0x20 DUP8 ADD CALLDATALOAD SWAP5 POP PUSH1 0x40 DUP8 ADD CALLDATALOAD SWAP4 POP PUSH1 0x60 DUP8 ADD CALLDATALOAD PUSH2 0x4455 DUP2 PUSH2 0x3D4E JUMP JUMPDEST SWAP3 POP PUSH1 0x80 DUP8 ADD CALLDATALOAD PUSH1 0x2 DUP2 LT PUSH2 0x4468 JUMPI PUSH0 DUP1 REVERT JUMPDEST SWAP2 POP PUSH1 0xA0 DUP8 ADD CALLDATALOAD PUSH2 0x4478 DUP2 PUSH2 0x440A JUMP JUMPDEST DUP1 SWAP2 POP POP SWAP3 SWAP6 POP SWAP3 SWAP6 POP SWAP3 SWAP6 JUMP JUMPDEST PUSH1 0xFF DUP2 AND DUP2 EQ PUSH2 0x3CE3 JUMPI PUSH0 DUP1 REVERT JUMPDEST DUP1 CALLDATALOAD PUSH2 0x3D6D DUP2 PUSH2 0x4486 JUMP JUMPDEST PUSH0 PUSH1 0x1 PUSH1 0x1 PUSH1 0x40 SHL SUB DUP3 GT ISZERO PUSH2 0x44B7 JUMPI PUSH2 0x44B7 PUSH2 0x4039 JUMP JUMPDEST POP PUSH1 0x5 SHL PUSH1 0x20 ADD SWAP1 JUMP JUMPDEST PUSH0 DUP3 PUSH1 0x1F DUP4 ADD SLT PUSH2 0x44D0 JUMPI PUSH0 DUP1 REVERT JUMPDEST DUP2 CALLDATALOAD PUSH2 0x44DE PUSH2 0x41B7 DUP3 PUSH2 0x449F JUMP JUMPDEST DUP1 DUP3 DUP3 MSTORE PUSH1 0x20 DUP3 ADD SWAP2 POP PUSH1 0x20 DUP4 PUSH1 0x5 SHL DUP7 ADD ADD SWAP3 POP DUP6 DUP4 GT ISZERO PUSH2 0x44FF JUMPI PUSH0 DUP1 REVERT JUMPDEST PUSH1 0x20 DUP6 ADD JUMPDEST DUP4 DUP2 LT ISZERO PUSH2 0x451C JUMPI DUP1 CALLDATALOAD DUP4 MSTORE PUSH1 0x20 SWAP3 DUP4 ADD SWAP3 ADD PUSH2 0x4504 JUMP JUMPDEST POP SWAP6 SWAP5 POP POP POP POP POP JUMP JUMPDEST PUSH0 PUSH1 0x20 DUP3 DUP5 SUB SLT ISZERO PUSH2 0x4536 JUMPI PUSH0 DUP1 REVERT JUMPDEST DUP2 CALLDATALOAD PUSH1 0x1 PUSH1 0x1 PUSH1 0x40 SHL SUB DUP2 GT ISZERO PUSH2 0x454B JUMPI PUSH0 DUP1 REVERT JUMPDEST DUP3 ADD PUSH1 0xA0 DUP2 DUP6 SUB SLT ISZERO PUSH2 0x455C JUMPI PUSH0 DUP1 REVERT JUMPDEST PUSH2 0x4564 PUSH2 0x4075 JUMP JUMPDEST DUP2 CALLDATALOAD PUSH1 0x1 PUSH1 0x1 PUSH1 0x40 SHL SUB DUP2 GT ISZERO PUSH2 0x4579 JUMPI PUSH0 DUP1 REVERT JUMPDEST PUSH2 0x4585 DUP7 DUP3 DUP6 ADD PUSH2 0x419A JUMP JUMPDEST DUP3 MSTORE POP PUSH2 0x4594 PUSH1 0x20 DUP4 ADD PUSH2 0x4494 JUMP JUMPDEST PUSH1 0x20 DUP3 ADD MSTORE PUSH2 0x45A5 PUSH1 0x40 DUP4 ADD PUSH2 0x3D62 JUMP JUMPDEST PUSH1 0x40 DUP3 ADD MSTORE PUSH1 0x60 DUP3 ADD CALLDATALOAD PUSH1 0x1 PUSH1 0x1 PUSH1 0x40 SHL SUB DUP2 GT ISZERO PUSH2 0x45C2 JUMPI PUSH0 DUP1 REVERT JUMPDEST PUSH2 0x45CE DUP7 DUP3 DUP6 ADD PUSH2 0x44C1 JUMP JUMPDEST PUSH1 0x60 DUP4 ADD MSTORE POP PUSH1 0x80 DUP3 ADD CALLDATALOAD PUSH1 0x1 PUSH1 0x1 PUSH1 0x40 SHL SUB DUP2 GT ISZERO PUSH2 0x45EC JUMPI PUSH0 DUP1 REVERT JUMPDEST PUSH2 0x45F8 DUP7 DUP3 DUP6 ADD PUSH2 0x44C1 JUMP JUMPDEST PUSH1 0x80 DUP4 ADD MSTORE POP SWAP5 SWAP4 POP POP POP POP JUMP JUMPDEST PUSH0 DUP1 PUSH1 0x40 DUP4 DUP6 SUB SLT ISZERO PUSH2 0x4617 JUMPI PUSH0 DUP1 REVERT JUMPDEST DUP3 CALLDATALOAD PUSH1 0x1 PUSH1 0x1 PUSH1 0x40 SHL SUB DUP2 GT ISZERO PUSH2 0x462C JUMPI PUSH0 DUP1 REVERT JUMPDEST PUSH2 0x4638 DUP6 DUP3 DUP7 ADD PUSH2 0x419A JUMP JUMPDEST SWAP6 PUSH1 0x20 SWAP5 SWAP1 SWAP5 ADD CALLDATALOAD SWAP5 POP POP POP POP JUMP JUMPDEST PUSH1 0xA0 DUP2 MSTORE PUSH0 PUSH2 0x4659 PUSH1 0xA0 DUP4 ADD DUP9 PUSH2 0x3DF4 JUMP JUMPDEST PUSH1 0xFF DUP8 AND PUSH1 0x20 DUP5 ADD MSTORE PUSH1 0x1 PUSH1 0x1 PUSH1 0xA0 SHL SUB DUP7 AND PUSH1 0x40 DUP5 ADD MSTORE DUP3 DUP2 SUB PUSH1 0x60 DUP5 ADD MSTORE PUSH2 0x4683 DUP2 DUP7 PUSH2 0x3DF4 JUMP JUMPDEST SWAP2 POP POP DUP3 PUSH1 0x80 DUP4 ADD MSTORE SWAP7 SWAP6 POP POP POP POP POP POP JUMP JUMPDEST PUSH0 DUP2 MLOAD DUP1 DUP5 MSTORE PUSH1 0x20 DUP5 ADD SWAP4 POP PUSH1 0x20 DUP4 ADD PUSH0 JUMPDEST DUP3 DUP2 LT ISZERO PUSH2 0x3E52 JUMPI DUP2 MLOAD DUP1 MLOAD DUP8 MSTORE PUSH1 0x20 SWAP1 DUP2 ADD MLOAD DUP2 DUP9 ADD MSTORE PUSH1 0x40 SWAP1 SWAP7 ADD SWAP6 SWAP1 SWAP2 ADD SWAP1 PUSH1 0x1 ADD PUSH2 0x46A8 JUMP JUMPDEST PUSH1 0x20 DUP2 MSTORE PUSH0 PUSH2 0x3627 PUSH1 0x20 DUP4 ADD DUP5 PUSH2 0x4696 JUMP JUMPDEST PUSH0 DUP3 DUP3 MLOAD DUP1 DUP6 MSTORE PUSH1 0x20 DUP6 ADD SWAP5 POP PUSH1 0x20 DUP2 PUSH1 0x5 SHL DUP4 ADD ADD PUSH1 0x20 DUP6 ADD PUSH0 JUMPDEST DUP4 DUP2 LT ISZERO PUSH2 0x3F2F JUMPI PUSH1 0x1F NOT DUP6 DUP5 SUB ADD DUP9 MSTORE DUP2 MLOAD DUP1 MLOAD DUP5 MSTORE PUSH1 0x20 DUP2 ADD MLOAD PUSH2 0x4729 PUSH1 0x20 DUP7 ADD DUP3 PUSH2 0x3D9C JUMP JUMPDEST POP PUSH1 0x40 DUP2 ADD MLOAD PUSH2 0x473C PUSH1 0x40 DUP7 ADD DUP3 PUSH2 0x3D9C JUMP JUMPDEST POP PUSH1 0x60 DUP2 ADD MLOAD PUSH1 0x60 DUP6 ADD MSTORE PUSH1 0x80 DUP2 ADD MLOAD PUSH2 0x260 PUSH1 0x80 DUP7 ADD MSTORE PUSH2 0x4762 PUSH2 0x260 DUP7 ADD DUP3 PUSH2 0x3E22 JUMP JUMPDEST SWAP1 POP PUSH1 0xA0 DUP3 ADD MLOAD DUP6 DUP3 SUB PUSH1 0xA0 DUP8 ADD MSTORE PUSH2 0x477B DUP3 DUP3 PUSH2 0x3E22 JUMP JUMPDEST SWAP2 POP POP PUSH1 0xC0 DUP3 ADD MLOAD DUP6 DUP3 SUB PUSH1 0xC0 DUP8 ADD MSTORE PUSH2 0x4795 DUP3 DUP3 PUSH2 0x3E22 JUMP JUMPDEST SWAP2 POP POP PUSH1 0xE0 DUP3 ADD MLOAD DUP6 DUP3 SUB PUSH1 0xE0 DUP8 ADD MSTORE PUSH2 0x47AF DUP3 DUP3 PUSH2 0x3E22 JUMP JUMPDEST SWAP2 POP POP PUSH2 0x100 DUP3 ADD MLOAD DUP6 DUP3 SUB PUSH2 0x100 DUP8 ADD MSTORE PUSH2 0x47CB DUP3 DUP3 PUSH2 0x3E22 JUMP JUMPDEST SWAP2 POP POP PUSH2 0x120 DUP3 ADD MLOAD DUP6 DUP3 SUB PUSH2 0x120 DUP8 ADD MSTORE PUSH2 0x47E7 DUP3 DUP3 PUSH2 0x3E22 JUMP JUMPDEST SWAP2 POP POP PUSH2 0x140 DUP3 ADD MLOAD DUP6 DUP3 SUB PUSH2 0x140 DUP8 ADD MSTORE PUSH2 0x4803 DUP3 DUP3 PUSH2 0x3E22 JUMP JUMPDEST SWAP2 POP POP PUSH2 0x160 DUP3 ADD MLOAD PUSH2 0x160 DUP7 ADD MSTORE PUSH2 0x180 DUP3 ADD MLOAD PUSH2 0x4828 PUSH2 0x180 DUP8 ADD DUP3 PUSH1 0xFF AND SWAP1 MSTORE JUMP JUMPDEST POP PUSH2 0x1A0 DUP3 ADD MLOAD PUSH2 0x483F PUSH2 0x1A0 DUP8 ADD DUP3 PUSH1 0xFF AND SWAP1 MSTORE JUMP JUMPDEST POP PUSH2 0x1C0 DUP3 ADD MLOAD PUSH2 0x1C0 DUP7 ADD MSTORE PUSH2 0x1E0 DUP3 ADD MLOAD PUSH2 0x1E0 DUP7 ADD MSTORE PUSH2 0x200 DUP3 ADD MLOAD PUSH2 0x200 DUP7 ADD MSTORE PUSH2 0x220 DUP3 ADD MLOAD PUSH2 0x487A PUSH2 0x220 DUP8 ADD DUP3 PUSH1 0xFF AND SWAP1 MSTORE JUMP JUMPDEST POP PUSH2 0x240 SWAP2 DUP3 ADD MLOAD SWAP5 SWAP1 SWAP2 ADD SWAP4 SWAP1 SWAP4 MSTORE PUSH1 0x20 SWAP8 DUP9 ADD SWAP8 SWAP2 SWAP1 SWAP2 ADD SWAP1 PUSH1 0x1 ADD PUSH2 0x4700 JUMP JUMPDEST PUSH1 0x60 DUP2 MSTORE PUSH0 PUSH2 0x48AF PUSH1 0x60 DUP4 ADD DUP7 PUSH2 0x46E4 JUMP JUMPDEST DUP3 DUP2 SUB PUSH1 0x20 DUP5 ADD MSTORE DUP1 DUP6 MLOAD DUP1 DUP4 MSTORE PUSH1 0x20 DUP4 ADD SWAP2 POP PUSH1 0x20 DUP8 ADD SWAP3 POP PUSH0 JUMPDEST DUP2 DUP2 LT ISZERO PUSH2 0x490E JUMPI DUP4 MLOAD DUP1 MLOAD PUSH1 0xFF AND DUP5 MSTORE PUSH1 0x20 DUP1 DUP3 ADD MLOAD DUP2 DUP7 ADD MSTORE PUSH1 0x40 SWAP2 DUP3 ADD MLOAD PUSH1 0x1 PUSH1 0x1 PUSH1 0xA0 SHL SUB AND SWAP2 DUP6 ADD SWAP2 SWAP1 SWAP2 MSTORE SWAP1 SWAP4 ADD SWAP3 PUSH1 0x60 SWAP1 SWAP3 ADD SWAP2 PUSH1 0x1 ADD PUSH2 0x48CB JUMP JUMPDEST POP POP DUP4 DUP2 SUB PUSH1 0x40 DUP6 ADD MSTORE PUSH2 0x4922 DUP2 DUP7 PUSH2 0x4696 JUMP JUMPDEST SWAP8 SWAP7 POP POP POP POP POP POP POP JUMP JUMPDEST PUSH1 0x80 DUP2 MSTORE PUSH0 PUSH2 0x493F PUSH1 0x80 DUP4 ADD DUP8 PUSH2 0x3E5C JUMP JUMPDEST DUP6 PUSH1 0x20 DUP5 ADD MSTORE DUP5 PUSH1 0x40 DUP5 ADD MSTORE DUP3 DUP2 SUB PUSH1 0x60 DUP5 ADD MSTORE PUSH2 0x4922 DUP2 DUP6 PUSH2 0x3F3B JUMP JUMPDEST PUSH0 DUP1 PUSH0 DUP1 PUSH1 0x80 DUP6 DUP8 SUB SLT ISZERO PUSH2 0x4970 JUMPI PUSH0 DUP1 REVERT JUMPDEST DUP5 CALLDATALOAD PUSH2 0x497B DUP2 PUSH2 0x3D4E JUMP JUMPDEST SWAP4 POP PUSH1 0x20 DUP6 ADD CALLDATALOAD SWAP3 POP PUSH1 0x40 DUP6 ADD CALLDATALOAD PUSH2 0x4992 DUP2 PUSH2 0x3D4E JUMP JUMPDEST SWAP2 POP PUSH1 0x60 DUP6 ADD CALLDATALOAD PUSH2 0x49A2 DUP2 PUSH2 0x440A JUMP JUMPDEST SWAP4 SWAP7 SWAP3 SWAP6 POP SWAP1 SWAP4 POP POP JUMP JUMPDEST PUSH1 0x60 DUP2 MSTORE PUSH0 PUSH2 0x49BF PUSH1 0x60 DUP4 ADD DUP7 PUSH2 0x46E4 JUMP JUMPDEST DUP3 DUP2 SUB PUSH1 0x20 DUP5 ADD MSTORE PUSH1 0x60 DUP2 ADD DUP6 MLOAD DUP3 MSTORE PUSH1 0x1 DUP1 PUSH1 0xA0 SHL SUB PUSH1 0x20 DUP8 ADD MLOAD AND PUSH1 0x20 DUP4 ADD MSTORE PUSH1 0x40 DUP7 ADD MLOAD PUSH1 0x60 PUSH1 0x40 DUP5 ADD MSTORE DUP2 DUP2 MLOAD DUP1 DUP5 MSTORE PUSH1 0x80 DUP6 ADD SWAP2 POP PUSH1 0x20 DUP4 ADD SWAP5 POP PUSH0 SWAP4 POP JUMPDEST DUP1 DUP5 LT ISZERO PUSH2 0x4A52 JUMPI DUP5 MLOAD SWAP3 POP DUP3 MLOAD DUP3 MSTORE PUSH1 0x20 DUP4 ADD MLOAD PUSH1 0x20 DUP4 ADD MSTORE PUSH1 0x40 DUP4 ADD MLOAD PUSH1 0x40 DUP4 ADD MSTORE PUSH1 0x60 DUP4 ADD MLOAD PUSH1 0x60 DUP4 ADD MSTORE PUSH1 0x80 DUP4 ADD MLOAD PUSH1 0x80 DUP4 ADD MSTORE PUSH1 0xA0 DUP3 ADD SWAP2 POP PUSH1 0x20 DUP6 ADD SWAP5 POP PUSH1 0x1 DUP5 ADD SWAP4 POP PUSH2 0x4A03 JUMP JUMPDEST POP DUP6 DUP2 SUB PUSH1 0x40 DUP8 ADD MSTORE PUSH2 0x4A65 DUP2 DUP9 PUSH2 0x4696 JUMP JUMPDEST SWAP10 SWAP9 POP POP POP POP POP POP POP POP POP JUMP JUMPDEST DUP1 MLOAD PUSH2 0x3D6D DUP2 PUSH2 0x440A JUMP JUMPDEST PUSH0 PUSH1 0x20 DUP3 DUP5 SUB SLT ISZERO PUSH2 0x4A8D JUMPI PUSH0 DUP1 REVERT JUMPDEST DUP2 MLOAD PUSH2 0x3627 DUP2 PUSH2 0x440A JUMP JUMPDEST PUSH1 0x20 DUP1 DUP3 MSTORE PUSH1 0x44 SWAP1 DUP3 ADD MSTORE PUSH0 DUP1 MLOAD PUSH1 0x20 PUSH2 0x5D36 DUP4 CODECOPY DUP2 MLOAD SWAP2 MSTORE PUSH1 0x40 DUP3 ADD MSTORE PUSH32 0x35332C20226D657373616765223A2022596F7520617265206E6F742041646D69 PUSH1 0x60 DUP3 ADD MSTORE PUSH4 0x6E2E227D PUSH1 0xE0 SHL PUSH1 0x80 DUP3 ADD MSTORE PUSH1 0xA0 ADD SWAP1 JUMP JUMPDEST PUSH0 DUP2 MLOAD DUP1 PUSH1 0x20 DUP5 ADD DUP6 MCOPY PUSH0 SWAP4 ADD SWAP3 DUP4 MSTORE POP SWAP1 SWAP2 SWAP1 POP JUMP JUMPDEST PUSH24 0x1EC8999C9BDB488E88089158DBDB525B999BCB9CDBDB088B PUSH1 0x42 SHL DUP2 MSTORE PUSH8 0x1131B7B232911D1 PUSH1 0xC5 SHL PUSH1 0x18 DUP3 ADD MSTORE PUSH0 PUSH2 0x4B43 PUSH1 0x20 DUP4 ADD DUP6 PUSH2 0x4AEF JUMP JUMPDEST PUSH2 0x161 PUSH1 0xF5 SHL DUP2 MSTORE PUSH12 0x1136B2B9B9B0B3B2911D1011 PUSH1 0xA1 SHL PUSH1 0x2 DUP3 ADD MSTORE PUSH2 0x4B6D PUSH1 0xE DUP3 ADD DUP6 PUSH2 0x4AEF JUMP JUMPDEST PUSH2 0x227D PUSH1 0xF0 SHL DUP2 MSTORE PUSH1 0x2 ADD SWAP6 SWAP5 POP POP POP POP POP JUMP JUMPDEST PUSH4 0x4E487B71 PUSH1 0xE0 SHL PUSH0 MSTORE PUSH1 0x11 PUSH1 0x4 MSTORE PUSH1 0x24 PUSH0 REVERT JUMPDEST PUSH0 PUSH1 0x1 DUP3 ADD PUSH2 0x4BA6 JUMPI PUSH2 0x4BA6 PUSH2 0x4B81 JUMP JUMPDEST POP PUSH1 0x1 ADD SWAP1 JUMP JUMPDEST DUP2 DUP4 DUP3 CALLDATACOPY PUSH0 SWAP2 ADD SWAP1 DUP2 MSTORE SWAP2 SWAP1 POP JUMP JUMPDEST PUSH1 0x20 DUP1 DUP3 MSTORE PUSH1 0x46 SWAP1 DUP3 ADD MSTORE PUSH0 DUP1 MLOAD PUSH1 0x20 PUSH2 0x5D36 DUP4 CODECOPY DUP2 MLOAD SWAP2 MSTORE PUSH1 0x40 DUP3 ADD MSTORE PUSH32 0x35352C20226D657373616765223A2022596F7520617265206E6F7420616C6C6F PUSH1 0x60 DUP3 ADD MSTORE PUSH6 0x7765642E227D PUSH1 0xD0 SHL PUSH1 0x80 DUP3 ADD MSTORE PUSH1 0xA0 ADD SWAP1 JUMP JUMPDEST PUSH4 0x4E487B71 PUSH1 0xE0 SHL PUSH0 MSTORE PUSH1 0x32 PUSH1 0x4 MSTORE PUSH1 0x24 PUSH0 REVERT JUMPDEST PUSH0 PUSH1 0xFF DUP3 AND PUSH1 0xFF DUP2 SUB PUSH2 0x4C3E JUMPI PUSH2 0x4C3E PUSH2 0x4B81 JUMP JUMPDEST PUSH1 0x1 ADD SWAP3 SWAP2 POP POP JUMP JUMPDEST PUSH1 0x1 DUP2 DUP2 SHR SWAP1 DUP3 AND DUP1 PUSH2 0x4C5B JUMPI PUSH1 0x7F DUP3 AND SWAP2 POP JUMPDEST PUSH1 0x20 DUP3 LT DUP2 SUB PUSH2 0xB9D JUMPI PUSH4 0x4E487B71 PUSH1 0xE0 SHL PUSH0 MSTORE PUSH1 0x22 PUSH1 0x4 MSTORE PUSH1 0x24 PUSH0 REVERT JUMPDEST PUSH0 PUSH2 0x4C86 PUSH2 0x41B7 DUP5 PUSH2 0x4174 JUMP JUMPDEST SWAP1 POP DUP3 DUP2 MSTORE DUP4 DUP4 DUP4 ADD GT ISZERO PUSH2 0x4C99 JUMPI PUSH0 DUP1 REVERT JUMPDEST DUP3 DUP3 PUSH1 0x20 DUP4 ADD MCOPY PUSH0 PUSH1 0x20 DUP5 DUP4 ADD ADD MSTORE SWAP4 SWAP3 POP POP POP JUMP JUMPDEST PUSH0 DUP3 PUSH1 0x1F DUP4 ADD SLT PUSH2 0x4CBE JUMPI PUSH0 DUP1 REVERT JUMPDEST PUSH2 0x3627 DUP4 DUP4 MLOAD PUSH1 0x20 DUP6 ADD PUSH2 0x4C79 JUMP JUMPDEST PUSH0 DUP3 PUSH1 0x1F DUP4 ADD SLT PUSH2 0x4CDC JUMPI PUSH0 DUP1 REVERT JUMPDEST DUP2 MLOAD PUSH2 0x4CEA PUSH2 0x41B7 DUP3 PUSH2 0x449F JUMP JUMPDEST DUP1 DUP3 DUP3 MSTORE PUSH1 0x20 DUP3 ADD SWAP2 POP PUSH1 0x20 DUP4 PUSH1 0x5 SHL DUP7 ADD ADD SWAP3 POP DUP6 DUP4 GT ISZERO PUSH2 0x4D0B JUMPI PUSH0 DUP1 REVERT JUMPDEST PUSH1 0x20 DUP6 ADD JUMPDEST DUP4 DUP2 LT ISZERO PUSH2 0x451C JUMPI DUP1 MLOAD DUP4 MSTORE PUSH1 0x20 SWAP3 DUP4 ADD SWAP3 ADD PUSH2 0x4D10 JUMP JUMPDEST PUSH0 DUP3 PUSH1 0x1F DUP4 ADD SLT PUSH2 0x4D37 JUMPI PUSH0 DUP1 REVERT JUMPDEST DUP2 MLOAD PUSH2 0x4D45 PUSH2 0x41B7 DUP3 PUSH2 0x449F JUMP JUMPDEST DUP1 DUP3 DUP3 MSTORE PUSH1 0x20 DUP3 ADD SWAP2 POP PUSH1 0x20 DUP4 PUSH1 0x5 SHL DUP7 ADD ADD SWAP3 POP DUP6 DUP4 GT ISZERO PUSH2 0x4D66 JUMPI PUSH0 DUP1 REVERT JUMPDEST PUSH1 0x20 DUP6 ADD JUMPDEST DUP4 DUP2 LT ISZERO PUSH2 0x451C JUMPI DUP1 MLOAD PUSH1 0x1 PUSH1 0x1 PUSH1 0x40 SHL SUB DUP2 GT ISZERO PUSH2 0x4D88 JUMPI PUSH0 DUP1 REVERT JUMPDEST DUP7 ADD PUSH1 0x3F DUP2 ADD DUP9 SGT PUSH2 0x4D98 JUMPI PUSH0 DUP1 REVERT JUMPDEST PUSH2 0x4DAA DUP9 PUSH1 0x20 DUP4 ADD MLOAD PUSH1 0x40 DUP5 ADD PUSH2 0x4C79 JUMP JUMPDEST DUP5 MSTORE POP PUSH1 0x20 SWAP3 DUP4 ADD SWAP3 ADD PUSH2 0x4D6B JUMP JUMPDEST DUP1 MLOAD PUSH2 0x3D6D DUP2 PUSH2 0x3D4E JUMP JUMPDEST PUSH0 PUSH1 0x80 DUP3 DUP5 SUB SLT ISZERO PUSH2 0x4DD4 JUMPI PUSH0 DUP1 REVERT JUMPDEST PUSH2 0x4DDC PUSH2 0x4097 JUMP JUMPDEST DUP3 MLOAD DUP2 MSTORE PUSH1 0x20 DUP4 ADD MLOAD SWAP1 SWAP2 POP PUSH1 0x1 PUSH1 0x1 PUSH1 0x40 SHL SUB DUP2 GT ISZERO PUSH2 0x4DFB JUMPI PUSH0 DUP1 REVERT JUMPDEST DUP3 ADD PUSH2 0x300 DUP2 DUP6 SUB SLT ISZERO PUSH2 0x4E0D JUMPI PUSH0 DUP1 REVERT JUMPDEST PUSH2 0x4E15 PUSH2 0x40B9 JUMP JUMPDEST DUP2 MLOAD PUSH1 0x1 PUSH1 0x1 PUSH1 0x40 SHL SUB DUP2 GT ISZERO PUSH2 0x4E2A JUMPI PUSH0 DUP1 REVERT JUMPDEST PUSH2 0x4E36 DUP7 DUP3 DUP6 ADD PUSH2 0x4CAF JUMP JUMPDEST DUP3 MSTORE POP PUSH1 0x20 DUP3 DUP2 ADD MLOAD SWAP1 DUP3 ADD MSTORE PUSH1 0x40 DUP3 ADD MLOAD PUSH1 0x1 PUSH1 0x1 PUSH1 0x40 SHL SUB DUP2 GT ISZERO PUSH2 0x4E5B JUMPI PUSH0 DUP1 REVERT JUMPDEST PUSH2 0x4E67 DUP7 DUP3 DUP6 ADD PUSH2 0x4CAF JUMP JUMPDEST PUSH1 0x40 DUP4 ADD MSTORE POP PUSH1 0x60 DUP3 DUP2 ADD MLOAD SWAP1 DUP3 ADD MSTORE PUSH1 0x80 DUP1 DUP4 ADD MLOAD SWAP1 DUP3 ADD MSTORE PUSH1 0xA0 DUP1 DUP4 ADD MLOAD SWAP1 DUP3 ADD MSTORE PUSH1 0xC0 DUP1 DUP4 ADD MLOAD SWAP1 DUP3 ADD MSTORE PUSH1 0xE0 DUP3 ADD MLOAD PUSH1 0x1 PUSH1 0x1 PUSH1 0x40 SHL SUB DUP2 GT ISZERO PUSH2 0x4EAD JUMPI PUSH0 DUP1 REVERT JUMPDEST PUSH2 0x4EB9 DUP7 DUP3 DUP6 ADD PUSH2 0x4CCD JUMP JUMPDEST PUSH1 0xE0 DUP4 ADD MSTORE POP PUSH2 0x100 DUP3 ADD MLOAD PUSH1 0x1 PUSH1 0x1 PUSH1 0x40 SHL SUB DUP2 GT ISZERO PUSH2 0x4ED8 JUMPI PUSH0 DUP1 REVERT JUMPDEST PUSH2 0x4EE4 DUP7 DUP3 DUP6 ADD PUSH2 0x4D28 JUMP JUMPDEST PUSH2 0x100 DUP4 ADD MSTORE POP PUSH2 0x120 DUP3 DUP2 ADD MLOAD SWAP1 DUP3 ADD MSTORE PUSH2 0x140 DUP1 DUP4 ADD MLOAD SWAP1 DUP3 ADD MSTORE PUSH2 0x160 DUP3 ADD MLOAD PUSH1 0x1 PUSH1 0x1 PUSH1 0x40 SHL SUB DUP2 GT ISZERO PUSH2 0x4F1A JUMPI PUSH0 DUP1 REVERT JUMPDEST PUSH2 0x4F26 DUP7 DUP3 DUP6 ADD PUSH2 0x4D28 JUMP JUMPDEST PUSH2 0x160 DUP4 ADD MSTORE POP PUSH2 0x4F3A PUSH2 0x180 DUP4 ADD PUSH2 0x4DB9 JUMP JUMPDEST PUSH2 0x180 DUP3 ADD MSTORE PUSH2 0x1A0 DUP3 ADD MLOAD PUSH1 0x1 PUSH1 0x1 PUSH1 0x40 SHL SUB DUP2 GT ISZERO PUSH2 0x4F59 JUMPI PUSH0 DUP1 REVERT JUMPDEST PUSH2 0x4F65 DUP7 DUP3 DUP6 ADD PUSH2 0x4CAF JUMP JUMPDEST PUSH2 0x1A0 DUP4 ADD MSTORE POP PUSH2 0x1C0 DUP3 ADD MLOAD PUSH1 0x1 PUSH1 0x1 PUSH1 0x40 SHL SUB DUP2 GT ISZERO PUSH2 0x4F85 JUMPI PUSH0 DUP1 REVERT JUMPDEST PUSH2 0x4F91 DUP7 DUP3 DUP6 ADD PUSH2 0x4CAF JUMP JUMPDEST PUSH2 0x1C0 DUP4 ADD MSTORE POP PUSH2 0x4FA5 PUSH2 0x1E0 DUP4 ADD PUSH2 0x4A72 JUMP JUMPDEST PUSH2 0x1E0 DUP3 ADD MSTORE PUSH2 0x200 DUP3 ADD MLOAD PUSH1 0x1 PUSH1 0x1 PUSH1 0x40 SHL SUB DUP2 GT ISZERO PUSH2 0x4FC4 JUMPI PUSH0 DUP1 REVERT JUMPDEST PUSH2 0x4FD0 DUP7 DUP3 DUP6 ADD PUSH2 0x4D28 JUMP JUMPDEST PUSH2 0x200 DUP4 ADD MSTORE POP PUSH2 0x220 DUP3 ADD MLOAD PUSH1 0x1 PUSH1 0x1 PUSH1 0x40 SHL SUB DUP2 GT ISZERO PUSH2 0x4FF0 JUMPI PUSH0 DUP1 REVERT JUMPDEST PUSH2 0x4FFC DUP7 DUP3 DUP6 ADD PUSH2 0x4CAF JUMP JUMPDEST PUSH2 0x220 DUP4 ADD MSTORE POP PUSH2 0x240 DUP3 DUP2 ADD MLOAD SWAP1 DUP3 ADD MSTORE PUSH2 0x260 DUP1 DUP4 ADD MLOAD SWAP1 DUP3 ADD MSTORE PUSH2 0x280 DUP1 DUP4 ADD MLOAD SWAP1 DUP3 ADD MSTORE PUSH2 0x5031 PUSH2 0x2A0 DUP4 ADD PUSH2 0x4A72 JUMP JUMPDEST PUSH2 0x2A0 DUP3 ADD MSTORE PUSH2 0x5044 PUSH2 0x2C0 DUP4 ADD PUSH2 0x4A72 JUMP JUMPDEST PUSH2 0x2C0 DUP3 ADD MSTORE PUSH2 0x2E0 SWAP2 DUP3 ADD MLOAD SWAP2 DUP2 ADD SWAP2 SWAP1 SWAP2 MSTORE PUSH1 0x20 DUP3 ADD MSTORE PUSH1 0x40 DUP3 DUP2 ADD MLOAD SWAP1 DUP3 ADD MSTORE PUSH1 0x60 SWAP2 DUP3 ADD MLOAD SWAP2 DUP2 ADD SWAP2 SWAP1 SWAP2 MSTORE SWAP2 SWAP1 POP JUMP JUMPDEST PUSH0 PUSH1 0x20 DUP3 DUP5 SUB SLT ISZERO PUSH2 0x5089 JUMPI PUSH0 DUP1 REVERT JUMPDEST DUP2 MLOAD PUSH1 0x1 PUSH1 0x1 PUSH1 0x40 SHL SUB DUP2 GT ISZERO PUSH2 0x509E JUMPI PUSH0 DUP1 REVERT JUMPDEST PUSH2 0x43AE DUP5 DUP3 DUP6 ADD PUSH2 0x4DC4 JUMP JUMPDEST DUP2 DUP2 SUB DUP2 DUP2 GT ISZERO PUSH2 0x9B7 JUMPI PUSH2 0x9B7 PUSH2 0x4B81 JUMP JUMPDEST PUSH1 0x1F DUP3 GT ISZERO PUSH2 0x5101 JUMPI DUP1 PUSH0 MSTORE PUSH1 0x20 PUSH0 KECCAK256 PUSH1 0x1F DUP5 ADD PUSH1 0x5 SHR DUP2 ADD PUSH1 0x20 DUP6 LT ISZERO PUSH2 0x50E2 JUMPI POP DUP1 JUMPDEST PUSH1 0x1F DUP5 ADD PUSH1 0x5 SHR DUP3 ADD SWAP2 POP JUMPDEST DUP2 DUP2 LT ISZERO PUSH2 0x25AD JUMPI PUSH0 DUP2 SSTORE PUSH1 0x1 ADD PUSH2 0x50EE JUMP JUMPDEST POP POP POP JUMP JUMPDEST PUSH0 NOT PUSH1 0x3 DUP4 SWAP1 SHL SHR NOT AND PUSH1 0x1 SWAP2 SWAP1 SWAP2 SHL OR SWAP1 JUMP JUMPDEST DUP2 DUP2 SUB PUSH2 0x5125 JUMPI POP POP JUMP JUMPDEST PUSH2 0x512F DUP3 SLOAD PUSH2 0x4C47 JUMP JUMPDEST PUSH1 0x1 PUSH1 0x1 PUSH1 0x40 SHL SUB DUP2 GT ISZERO PUSH2 0x5146 JUMPI PUSH2 0x5146 PUSH2 0x4039 JUMP JUMPDEST PUSH2 0x515A DUP2 PUSH2 0x5154 DUP5 SLOAD PUSH2 0x4C47 JUMP JUMPDEST DUP5 PUSH2 0x50BD JUMP JUMPDEST PUSH0 PUSH1 0x1F DUP3 GT PUSH1 0x1 DUP2 EQ PUSH2 0x5186 JUMPI PUSH0 DUP4 ISZERO PUSH2 0x5174 JUMPI POP DUP5 DUP3 ADD SLOAD JUMPDEST PUSH2 0x517E DUP5 DUP3 PUSH2 0x5106 JUMP JUMPDEST DUP6 SSTORE POP PUSH2 0x25AD JUMP JUMPDEST PUSH0 DUP6 DUP2 MSTORE PUSH1 0x20 DUP1 DUP3 KECCAK256 DUP7 DUP4 MSTORE SWAP1 DUP3 KECCAK256 PUSH1 0x1F NOT DUP7 AND SWAP3 JUMPDEST DUP4 DUP2 LT ISZERO PUSH2 0x51BC JUMPI DUP3 DUP7 ADD SLOAD DUP3 SSTORE PUSH1 0x1 SWAP6 DUP7 ADD SWAP6 SWAP1 SWAP2 ADD SWAP1 PUSH1 0x20 ADD PUSH2 0x519C JUMP JUMPDEST POP DUP6 DUP4 LT ISZERO PUSH2 0x51D9 JUMPI DUP2 DUP6 ADD SLOAD PUSH0 NOT PUSH1 0x3 DUP9 SWAP1 SHL PUSH1 0xF8 AND SHR NOT AND DUP2 SSTORE JUMPDEST POP POP POP POP POP PUSH1 0x1 SWAP1 DUP2 SHL ADD SWAP1 SSTORE POP JUMP JUMPDEST PUSH4 0x4E487B71 PUSH1 0xE0 SHL PUSH0 MSTORE PUSH1 0x31 PUSH1 0x4 MSTORE PUSH1 0x24 PUSH0 REVERT JUMPDEST PUSH0 DUP2 PUSH2 0x520B JUMPI PUSH2 0x520B PUSH2 0x4B81 JUMP JUMPDEST POP PUSH0 NOT ADD SWAP1 JUMP JUMPDEST PUSH0 PUSH1 0x20 DUP3 DUP5 SUB SLT ISZERO PUSH2 0x5222 JUMPI PUSH0 DUP1 REVERT JUMPDEST DUP2 MLOAD PUSH1 0x1 PUSH1 0x1 PUSH1 0x40 SHL SUB DUP2 GT ISZERO PUSH2 0x5237 JUMPI PUSH0 DUP1 REVERT JUMPDEST DUP3 ADD PUSH1 0x1F DUP2 ADD DUP5 SGT PUSH2 0x5247 JUMPI PUSH0 DUP1 REVERT JUMPDEST DUP1 MLOAD PUSH2 0x5255 PUSH2 0x41B7 DUP3 PUSH2 0x449F JUMP JUMPDEST DUP1 DUP3 DUP3 MSTORE PUSH1 0x20 DUP3 ADD SWAP2 POP PUSH1 0x20 DUP4 PUSH1 0x5 SHL DUP6 ADD ADD SWAP3 POP DUP7 DUP4 GT ISZERO PUSH2 0x5276 JUMPI PUSH0 DUP1 REVERT JUMPDEST PUSH1 0x20 DUP5 ADD JUMPDEST DUP4 DUP2 LT ISZERO PUSH2 0x52B6 JUMPI DUP1 MLOAD PUSH1 0x1 PUSH1 0x1 PUSH1 0x40 SHL SUB DUP2 GT ISZERO PUSH2 0x5298 JUMPI PUSH0 DUP1 REVERT JUMPDEST PUSH2 0x52A7 DUP10 PUSH1 0x20 DUP4 DUP10 ADD ADD PUSH2 0x4DC4 JUMP JUMPDEST DUP5 MSTORE POP PUSH1 0x20 SWAP3 DUP4 ADD SWAP3 ADD PUSH2 0x527B JUMP JUMPDEST POP SWAP7 SWAP6 POP POP POP POP POP POP JUMP JUMPDEST PUSH0 PUSH1 0x20 DUP3 DUP5 SUB SLT ISZERO PUSH2 0x52D1 JUMPI PUSH0 DUP1 REVERT JUMPDEST DUP2 MLOAD PUSH1 0x1 PUSH1 0x1 PUSH1 0x40 SHL SUB DUP2 GT ISZERO PUSH2 0x52E6 JUMPI PUSH0 DUP1 REVERT JUMPDEST DUP3 ADD PUSH1 0x1F DUP2 ADD DUP5 SGT PUSH2 0x52F6 JUMPI PUSH0 DUP1 REVERT JUMPDEST DUP1 MLOAD PUSH2 0x5304 PUSH2 0x41B7 DUP3 PUSH2 0x449F JUMP JUMPDEST DUP1 DUP3 DUP3 MSTORE PUSH1 0x20 DUP3 ADD SWAP2 POP PUSH1 0x20 DUP4 PUSH1 0x5 SHL DUP6 ADD ADD SWAP3 POP DUP7 DUP4 GT ISZERO PUSH2 0x5325 JUMPI PUSH0 DUP1 REVERT JUMPDEST PUSH1 0x20 DUP5 ADD SWAP4 POP JUMPDEST DUP3 DUP5 LT ISZERO PUSH2 0x43EE JUMPI DUP4 MLOAD PUSH2 0x533F DUP2 PUSH2 0x3D4E JUMP JUMPDEST DUP3 MSTORE PUSH1 0x20 SWAP4 DUP5 ADD SWAP4 SWAP1 SWAP2 ADD SWAP1 PUSH2 0x532C JUMP JUMPDEST DUP2 MLOAD PUSH1 0x1 PUSH1 0x1 PUSH1 0x40 SHL SUB DUP2 GT ISZERO PUSH2 0x5369 JUMPI PUSH2 0x5369 PUSH2 0x4039 JUMP JUMPDEST PUSH2 0x5377 DUP2 PUSH2 0x5154 DUP5 SLOAD PUSH2 0x4C47 JUMP JUMPDEST PUSH1 0x20 PUSH1 0x1F DUP3 GT PUSH1 0x1 DUP2 EQ PUSH2 0x539B JUMPI PUSH0 DUP4 ISZERO PUSH2 0x5174 JUMPI POP DUP5 DUP3 ADD MLOAD PUSH2 0x517E DUP5 DUP3 PUSH2 0x5106 JUMP JUMPDEST PUSH0 DUP5 DUP2 MSTORE PUSH1 0x20 DUP2 KECCAK256 PUSH1 0x1F NOT DUP6 AND SWAP2 JUMPDEST DUP3 DUP2 LT ISZERO PUSH2 0x53CA JUMPI DUP8 DUP6 ADD MLOAD DUP3 SSTORE PUSH1 0x20 SWAP5 DUP6 ADD SWAP5 PUSH1 0x1 SWAP1 SWAP3 ADD SWAP2 ADD PUSH2 0x53AA JUMP JUMPDEST POP DUP5 DUP3 LT ISZERO PUSH2 0x53E7 JUMPI DUP7 DUP5 ADD MLOAD PUSH0 NOT PUSH1 0x3 DUP8 SWAP1 SHL PUSH1 0xF8 AND SHR NOT AND DUP2 SSTORE JUMPDEST POP POP POP POP PUSH1 0x1 SWAP1 DUP2 SHL ADD SWAP1 SSTORE POP JUMP JUMPDEST DUP1 MLOAD PUSH2 0x3D6D DUP2 PUSH2 0x4486 JUMP JUMPDEST DUP1 MLOAD PUSH1 0x4 DUP2 LT PUSH2 0x3D6D JUMPI PUSH0 DUP1 REVERT JUMPDEST PUSH0 DUP3 PUSH1 0x1F DUP4 ADD SLT PUSH2 0x541E JUMPI PUSH0 DUP1 REVERT JUMPDEST DUP2 MLOAD PUSH2 0x542C PUSH2 0x41B7 DUP3 PUSH2 0x449F JUMP JUMPDEST DUP1 DUP3 DUP3 MSTORE PUSH1 0x20 DUP3 ADD SWAP2 POP PUSH1 0x20 DUP4 PUSH1 0x5 SHL DUP7 ADD ADD SWAP3 POP DUP6 DUP4 GT ISZERO PUSH2 0x544D JUMPI PUSH0 DUP1 REVERT JUMPDEST PUSH1 0x20 DUP6 ADD JUMPDEST DUP4 DUP2 LT ISZERO PUSH2 0x451C JUMPI DUP1 MLOAD PUSH1 0x1 PUSH1 0x1 PUSH1 0x40 SHL SUB DUP2 GT ISZERO PUSH2 0x546F JUMPI PUSH0 DUP1 REVERT JUMPDEST DUP7 ADD PUSH1 0xA0 DUP2 DUP10 SUB PUSH1 0x1F NOT ADD SLT ISZERO PUSH2 0x5484 JUMPI PUSH0 DUP1 REVERT JUMPDEST PUSH2 0x548C PUSH2 0x4075 JUMP JUMPDEST PUSH1 0x20 DUP3 ADD MLOAD PUSH1 0x1 PUSH1 0x1 PUSH1 0x40 SHL SUB DUP2 GT ISZERO PUSH2 0x54A4 JUMPI PUSH0 DUP1 REVERT JUMPDEST PUSH2 0x54B3 DUP11 PUSH1 0x20 DUP4 DUP7 ADD ADD PUSH2 0x4CAF JUMP JUMPDEST DUP3 MSTORE POP PUSH1 0x40 DUP3 ADD MLOAD PUSH1 0x1 PUSH1 0x1 PUSH1 0x40 SHL SUB DUP2 GT ISZERO PUSH2 0x54CE JUMPI PUSH0 DUP1 REVERT JUMPDEST PUSH2 0x54DD DUP11 PUSH1 0x20 DUP4 DUP7 ADD ADD PUSH2 0x4CAF JUMP JUMPDEST PUSH1 0x20 DUP4 ADD MSTORE POP PUSH1 0x60 DUP3 ADD MLOAD PUSH1 0x1 PUSH1 0x1 PUSH1 0x40 SHL SUB DUP2 GT ISZERO PUSH2 0x54FB JUMPI PUSH0 DUP1 REVERT JUMPDEST PUSH2 0x550A DUP11 PUSH1 0x20 DUP4 DUP7 ADD ADD PUSH2 0x4CAF JUMP JUMPDEST PUSH1 0x40 DUP4 ADD MSTORE POP PUSH1 0x80 DUP3 ADD MLOAD PUSH1 0x1 PUSH1 0x1 PUSH1 0x40 SHL SUB DUP2 GT ISZERO PUSH2 0x5528 JUMPI PUSH0 DUP1 REVERT JUMPDEST PUSH2 0x5537 DUP11 PUSH1 0x20 DUP4 DUP7 ADD ADD PUSH2 0x4CAF JUMP JUMPDEST PUSH1 0x60 DUP4 ADD MSTORE POP PUSH1 0xA0 DUP3 ADD MLOAD PUSH1 0x1 PUSH1 0x1 PUSH1 0x40 SHL SUB DUP2 GT ISZERO PUSH2 0x5555 JUMPI PUSH0 DUP1 REVERT JUMPDEST PUSH2 0x5564 DUP11 PUSH1 0x20 DUP4 DUP7 ADD ADD PUSH2 0x4CAF JUMP JUMPDEST PUSH1 0x80 DUP4 ADD MSTORE POP DUP5 MSTORE POP PUSH1 0x20 SWAP3 DUP4 ADD SWAP3 ADD PUSH2 0x5452 JUMP JUMPDEST PUSH0 DUP1 PUSH1 0x40 DUP4 DUP6 SUB SLT ISZERO PUSH2 0x558A JUMPI PUSH0 DUP1 REVERT JUMPDEST DUP3 MLOAD PUSH1 0x1 PUSH1 0x1 PUSH1 0x40 SHL SUB DUP2 GT ISZERO PUSH2 0x559F JUMPI PUSH0 DUP1 REVERT JUMPDEST DUP4 ADD PUSH2 0x140 DUP2 DUP7 SUB SLT ISZERO PUSH2 0x55B1 JUMPI PUSH0 DUP1 REVERT JUMPDEST PUSH2 0x55B9 PUSH2 0x40DC JUMP JUMPDEST PUSH2 0x55C2 DUP3 PUSH2 0x4DB9 JUMP JUMPDEST DUP2 MSTORE PUSH1 0x20 DUP3 ADD MLOAD PUSH1 0x1 PUSH1 0x1 PUSH1 0x40 SHL SUB DUP2 GT ISZERO PUSH2 0x55DC JUMPI PUSH0 DUP1 REVERT JUMPDEST PUSH2 0x55E8 DUP8 DUP3 DUP6 ADD PUSH2 0x4CAF JUMP JUMPDEST PUSH1 0x20 DUP4 ADD MSTORE POP PUSH1 0x40 DUP3 ADD MLOAD PUSH1 0x1 PUSH1 0x1 PUSH1 0x40 SHL SUB DUP2 GT ISZERO PUSH2 0x5606 JUMPI PUSH0 DUP1 REVERT JUMPDEST PUSH2 0x5612 DUP8 DUP3 DUP6 ADD PUSH2 0x4CAF JUMP JUMPDEST PUSH1 0x40 DUP4 ADD MSTORE POP PUSH2 0x5624 PUSH1 0x60 DUP4 ADD PUSH2 0x53F6 JUMP JUMPDEST PUSH1 0x60 DUP3 ADD MSTORE PUSH1 0x80 DUP3 DUP2 ADD MLOAD SWAP1 DUP3 ADD MSTORE PUSH1 0xA0 DUP3 ADD MLOAD PUSH1 0x1 PUSH1 0x1 PUSH1 0x40 SHL SUB DUP2 GT ISZERO PUSH2 0x564B JUMPI PUSH0 DUP1 REVERT JUMPDEST PUSH2 0x5657 DUP8 DUP3 DUP6 ADD PUSH2 0x4CAF JUMP JUMPDEST PUSH1 0xA0 DUP4 ADD MSTORE POP PUSH1 0xC0 DUP3 ADD MLOAD PUSH1 0x1 PUSH1 0x1 PUSH1 0x40 SHL SUB DUP2 GT ISZERO PUSH2 0x5675 JUMPI PUSH0 DUP1 REVERT JUMPDEST PUSH2 0x5681 DUP8 DUP3 DUP6 ADD PUSH2 0x4CAF JUMP JUMPDEST PUSH1 0xC0 DUP4 ADD MSTORE POP PUSH2 0x5693 PUSH1 0xE0 DUP4 ADD PUSH2 0x5401 JUMP JUMPDEST PUSH1 0xE0 DUP3 ADD MSTORE PUSH2 0x100 DUP3 DUP2 ADD MLOAD SWAP1 DUP3 ADD MSTORE PUSH2 0x56B0 PUSH2 0x120 DUP4 ADD PUSH2 0x4DB9 JUMP JUMPDEST PUSH2 0x120 DUP3 ADD MSTORE PUSH1 0x20 DUP6 ADD MLOAD SWAP1 SWAP4 POP SWAP1 POP PUSH1 0x1 PUSH1 0x1 PUSH1 0x40 SHL SUB DUP2 GT ISZERO PUSH2 0x56D3 JUMPI PUSH0 DUP1 REVERT JUMPDEST PUSH2 0x4225 DUP6 DUP3 DUP7 ADD PUSH2 0x540F JUMP JUMPDEST PUSH0 PUSH1 0x20 DUP3 DUP5 SUB SLT ISZERO PUSH2 0x56EF JUMPI PUSH0 DUP1 REVERT JUMPDEST DUP2 MLOAD PUSH1 0x1 PUSH1 0x1 PUSH1 0x40 SHL SUB DUP2 GT ISZERO PUSH2 0x5704 JUMPI PUSH0 DUP1 REVERT JUMPDEST DUP3 ADD PUSH1 0x1F DUP2 ADD DUP5 SGT PUSH2 0x5714 JUMPI PUSH0 DUP1 REVERT JUMPDEST DUP1 MLOAD PUSH2 0x5722 PUSH2 0x41B7 DUP3 PUSH2 0x449F JUMP JUMPDEST DUP1 DUP3 DUP3 MSTORE PUSH1 0x20 DUP3 ADD SWAP2 POP PUSH1 0x20 DUP4 PUSH1 0x5 SHL DUP6 ADD ADD SWAP3 POP DUP7 DUP4 GT ISZERO PUSH2 0x5743 JUMPI PUSH0 DUP1 REVERT JUMPDEST PUSH1 0x20 DUP5 ADD JUMPDEST DUP4 DUP2 LT ISZERO PUSH2 0x52B6 JUMPI DUP1 MLOAD PUSH1 0x1 PUSH1 0x1 PUSH1 0x40 SHL SUB DUP2 GT ISZERO PUSH2 0x5765 JUMPI PUSH0 DUP1 REVERT JUMPDEST DUP6 ADD PUSH2 0x260 DUP2 DUP11 SUB PUSH1 0x1F NOT ADD SLT ISZERO PUSH2 0x577B JUMPI PUSH0 DUP1 REVERT JUMPDEST PUSH2 0x5783 PUSH2 0x40FF JUMP JUMPDEST PUSH1 0x20 DUP3 ADD MLOAD DUP2 MSTORE PUSH2 0x5796 PUSH1 0x40 DUP4 ADD PUSH2 0x4DB9 JUMP JUMPDEST PUSH1 0x20 DUP3 ADD MSTORE PUSH2 0x57A7 PUSH1 0x60 DUP4 ADD PUSH2 0x4DB9 JUMP JUMPDEST PUSH1 0x40 DUP3 ADD MSTORE PUSH1 0x80 DUP3 ADD MLOAD PUSH1 0x60 DUP3 ADD MSTORE PUSH1 0xA0 DUP3 ADD MLOAD PUSH1 0x1 PUSH1 0x1 PUSH1 0x40 SHL SUB DUP2 GT ISZERO PUSH2 0x57CE JUMPI PUSH0 DUP1 REVERT JUMPDEST PUSH2 0x57DD DUP12 PUSH1 0x20 DUP4 DUP7 ADD ADD PUSH2 0x4CCD JUMP JUMPDEST PUSH1 0x80 DUP4 ADD MSTORE POP PUSH1 0xC0 DUP3 ADD MLOAD PUSH1 0x1 PUSH1 0x1 PUSH1 0x40 SHL SUB DUP2 GT ISZERO PUSH2 0x57FB JUMPI PUSH0 DUP1 REVERT JUMPDEST PUSH2 0x580A DUP12 PUSH1 0x20 DUP4 DUP7 ADD ADD PUSH2 0x4CCD JUMP JUMPDEST PUSH1 0xA0 DUP4 ADD MSTORE POP PUSH1 0xE0 DUP3 ADD MLOAD PUSH1 0x1 PUSH1 0x1 PUSH1 0x40 SHL SUB DUP2 GT ISZERO PUSH2 0x5828 JUMPI PUSH0 DUP1 REVERT JUMPDEST PUSH2 0x5837 DUP12 PUSH1 0x20 DUP4 DUP7 ADD ADD PUSH2 0x4CCD JUMP JUMPDEST PUSH1 0xC0 DUP4 ADD MSTORE POP PUSH2 0x100 DUP3 ADD MLOAD PUSH1 0x1 PUSH1 0x1 PUSH1 0x40 SHL SUB DUP2 GT ISZERO PUSH2 0x5856 JUMPI PUSH0 DUP1 REVERT JUMPDEST PUSH2 0x5865 DUP12 PUSH1 0x20 DUP4 DUP7 ADD ADD PUSH2 0x4CCD JUMP JUMPDEST PUSH1 0xE0 DUP4 ADD MSTORE POP PUSH2 0x120 DUP3 ADD MLOAD PUSH1 0x1 PUSH1 0x1 PUSH1 0x40 SHL SUB DUP2 GT ISZERO PUSH2 0x5884 JUMPI PUSH0 DUP1 REVERT JUMPDEST PUSH2 0x5893 DUP12 PUSH1 0x20 DUP4 DUP7 ADD ADD PUSH2 0x4CCD JUMP JUMPDEST PUSH2 0x100 DUP4 ADD MSTORE POP PUSH2 0x140 DUP3 ADD MLOAD PUSH1 0x1 PUSH1 0x1 PUSH1 0x40 SHL SUB DUP2 GT ISZERO PUSH2 0x58B3 JUMPI PUSH0 DUP1 REVERT JUMPDEST PUSH2 0x58C2 DUP12 PUSH1 0x20 DUP4 DUP7 ADD ADD PUSH2 0x4CCD JUMP JUMPDEST PUSH2 0x120 DUP4 ADD MSTORE POP PUSH2 0x160 DUP3 ADD MLOAD PUSH1 0x1 PUSH1 0x1 PUSH1 0x40 SHL SUB DUP2 GT ISZERO PUSH2 0x58E2 JUMPI PUSH0 DUP1 REVERT JUMPDEST PUSH2 0x58F1 DUP12 PUSH1 0x20 DUP4 DUP7 ADD ADD PUSH2 0x4CCD JUMP JUMPDEST PUSH2 0x140 DUP4 ADD MSTORE POP PUSH2 0x180 DUP3 ADD MLOAD PUSH2 0x160 DUP3 ADD MSTORE PUSH2 0x5911 PUSH2 0x1A0 DUP4 ADD PUSH2 0x53F6 JUMP JUMPDEST PUSH2 0x180 DUP3 ADD MSTORE PUSH2 0x5924 PUSH2 0x1C0 DUP4 ADD PUSH2 0x53F6 JUMP JUMPDEST PUSH2 0x1A0 DUP3 ADD MSTORE PUSH2 0x1E0 DUP3 DUP2 ADD MLOAD PUSH2 0x1C0 DUP4 ADD MSTORE PUSH2 0x200 DUP1 DUP5 ADD MLOAD SWAP2 DUP4 ADD SWAP2 SWAP1 SWAP2 MSTORE PUSH2 0x220 DUP4 ADD MLOAD SWAP1 DUP3 ADD MSTORE PUSH2 0x595C PUSH2 0x240 DUP4 ADD PUSH2 0x53F6 JUMP JUMPDEST PUSH2 0x220 DUP3 ADD MSTORE PUSH2 0x260 SWAP2 SWAP1 SWAP2 ADD MLOAD PUSH2 0x240 DUP3 ADD MSTORE DUP4 MSTORE PUSH1 0x20 SWAP3 DUP4 ADD SWAP3 ADD PUSH2 0x5748 JUMP JUMPDEST PUSH0 PUSH1 0x20 DUP3 DUP5 SUB SLT ISZERO PUSH2 0x598E JUMPI PUSH0 DUP1 REVERT JUMPDEST DUP2 MLOAD PUSH1 0x1 PUSH1 0x1 PUSH1 0x40 SHL SUB DUP2 GT ISZERO PUSH2 0x59A3 JUMPI PUSH0 DUP1 REVERT JUMPDEST DUP3 ADD PUSH1 0x1F DUP2 ADD DUP5 SGT PUSH2 0x59B3 JUMPI PUSH0 DUP1 REVERT JUMPDEST DUP1 MLOAD PUSH2 0x59C1 PUSH2 0x41B7 DUP3 PUSH2 0x449F JUMP JUMPDEST DUP1 DUP3 DUP3 MSTORE PUSH1 0x20 DUP3 ADD SWAP2 POP PUSH1 0x20 PUSH1 0x60 DUP5 MUL DUP6 ADD ADD SWAP3 POP DUP7 DUP4 GT ISZERO PUSH2 0x59E2 JUMPI PUSH0 DUP1 REVERT JUMPDEST PUSH1 0x20 DUP5 ADD SWAP4 POP JUMPDEST DUP3 DUP5 LT ISZERO PUSH2 0x43EE JUMPI PUSH1 0x60 DUP5 DUP9 SUB SLT ISZERO PUSH2 0x5A00 JUMPI PUSH0 DUP1 REVERT JUMPDEST PUSH2 0x5A08 PUSH2 0x4122 JUMP JUMPDEST DUP5 MLOAD PUSH2 0x5A13 DUP2 PUSH2 0x4486 JUMP JUMPDEST DUP2 MSTORE PUSH1 0x20 DUP6 DUP2 ADD MLOAD SWAP1 DUP3 ADD MSTORE PUSH1 0x40 DUP6 ADD MLOAD PUSH2 0x5A2D DUP2 PUSH2 0x3D4E JUMP JUMPDEST PUSH1 0x40 DUP3 ADD MSTORE DUP3 MSTORE PUSH1 0x60 SWAP4 SWAP1 SWAP4 ADD SWAP3 PUSH1 0x20 SWAP1 SWAP2 ADD SWAP1 PUSH2 0x59E9 JUMP JUMPDEST PUSH0 PUSH1 0x20 DUP3 DUP5 SUB SLT ISZERO PUSH2 0x5A56 JUMPI PUSH0 DUP1 REVERT JUMPDEST DUP2 MLOAD PUSH1 0x1 PUSH1 0x1 PUSH1 0x40 SHL SUB DUP2 GT ISZERO PUSH2 0x5A6B JUMPI PUSH0 DUP1 REVERT JUMPDEST DUP3 ADD PUSH1 0x60 DUP2 DUP6 SUB SLT ISZERO PUSH2 0x5A7C JUMPI PUSH0 DUP1 REVERT JUMPDEST PUSH2 0x5A84 PUSH2 0x4122 JUMP JUMPDEST DUP2 MLOAD DUP2 MSTORE PUSH1 0x20 DUP3 ADD MLOAD PUSH2 0x5A96 DUP2 PUSH2 0x3D4E JUMP JUMPDEST PUSH1 0x20 DUP3 ADD MSTORE PUSH1 0x40 DUP3 ADD MLOAD PUSH1 0x1 PUSH1 0x1 PUSH1 0x40 SHL SUB DUP2 GT ISZERO PUSH2 0x5AB3 JUMPI PUSH0 DUP1 REVERT JUMPDEST DUP1 DUP4 ADD SWAP3 POP POP DUP5 PUSH1 0x1F DUP4 ADD SLT PUSH2 0x5AC7 JUMPI PUSH0 DUP1 REVERT JUMPDEST DUP2 MLOAD PUSH2 0x5AD5 PUSH2 0x41B7 DUP3 PUSH2 0x449F JUMP JUMPDEST DUP1 DUP3 DUP3 MSTORE PUSH1 0x20 DUP3 ADD SWAP2 POP PUSH1 0x20 PUSH1 0xA0 DUP5 MUL DUP7 ADD ADD SWAP3 POP DUP8 DUP4 GT ISZERO PUSH2 0x5AF6 JUMPI PUSH0 DUP1 REVERT JUMPDEST PUSH1 0x20 DUP6 ADD SWAP5 POP JUMPDEST DUP3 DUP6 LT ISZERO PUSH2 0x5B5B JUMPI PUSH1 0xA0 DUP6 DUP10 SUB SLT ISZERO PUSH2 0x5B14 JUMPI PUSH0 DUP1 REVERT JUMPDEST PUSH2 0x5B1C PUSH2 0x4075 JUMP JUMPDEST DUP6 MLOAD DUP2 MSTORE PUSH1 0x20 DUP1 DUP8 ADD MLOAD DUP2 DUP4 ADD MSTORE PUSH1 0x40 DUP1 DUP9 ADD MLOAD SWAP1 DUP4 ADD MSTORE PUSH1 0x60 DUP1 DUP9 ADD MLOAD SWAP1 DUP4 ADD MSTORE PUSH1 0x80 DUP1 DUP9 ADD MLOAD SWAP1 DUP4 ADD MSTORE SWAP1 DUP4 MSTORE PUSH1 0xA0 SWAP1 SWAP6 ADD SWAP5 SWAP2 SWAP1 SWAP2 ADD SWAP1 PUSH2 0x5AFD JUMP JUMPDEST PUSH1 0x40 DUP5 ADD MSTORE POP SWAP1 SWAP6 SWAP5 POP POP POP POP POP JUMP JUMPDEST PUSH0 PUSH1 0x20 DUP3 DUP5 SUB SLT ISZERO PUSH2 0x5B7B JUMPI PUSH0 DUP1 REVERT JUMPDEST DUP2 MLOAD PUSH1 0x1 PUSH1 0x1 PUSH1 0x40 SHL SUB DUP2 GT ISZERO PUSH2 0x5B90 JUMPI PUSH0 DUP1 REVERT JUMPDEST DUP3 ADD PUSH1 0x1F DUP2 ADD DUP5 SGT PUSH2 0x5BA0 JUMPI PUSH0 DUP1 REVERT JUMPDEST DUP1 MLOAD PUSH2 0x5BAE PUSH2 0x41B7 DUP3 PUSH2 0x449F JUMP JUMPDEST DUP1 DUP3 DUP3 MSTORE PUSH1 0x20 DUP3 ADD SWAP2 POP PUSH1 0x20 DUP4 PUSH1 0x6 SHL DUP6 ADD ADD SWAP3 POP DUP7 DUP4 GT ISZERO PUSH2 0x5BCF JUMPI PUSH0 DUP1 REVERT JUMPDEST PUSH1 0x20 DUP5 ADD SWAP4 POP JUMPDEST DUP3 DUP5 LT ISZERO PUSH2 0x43EE JUMPI PUSH1 0x40 DUP5 DUP9 SUB SLT ISZERO PUSH2 0x5BED JUMPI PUSH0 DUP1 REVERT JUMPDEST PUSH2 0x5BF5 PUSH2 0x404D JUMP JUMPDEST DUP5 MLOAD DUP2 MSTORE PUSH1 0x20 DUP1 DUP7 ADD MLOAD DUP2 DUP4 ADD MSTORE SWAP1 DUP4 MSTORE PUSH1 0x40 SWAP1 SWAP5 ADD SWAP4 SWAP2 SWAP1 SWAP2 ADD SWAP1 PUSH2 0x5BD6 JUMP JUMPDEST PUSH4 0x4E487B71 PUSH1 0xE0 SHL PUSH0 MSTORE PUSH1 0x21 PUSH1 0x4 MSTORE PUSH1 0x24 PUSH0 REVERT JUMPDEST PUSH0 PUSH1 0x20 DUP3 ADD PUSH1 0x20 DUP4 MSTORE DUP1 DUP5 MLOAD DUP1 DUP4 MSTORE PUSH1 0x40 DUP6 ADD SWAP2 POP PUSH1 0x40 DUP2 PUSH1 0x5 SHL DUP7 ADD ADD SWAP3 POP PUSH1 0x20 DUP7 ADD PUSH0 JUMPDEST DUP3 DUP2 LT ISZERO PUSH2 0x5C81 JUMPI PUSH1 0x3F NOT DUP8 DUP7 SUB ADD DUP5 MSTORE PUSH2 0x5C6C DUP6 DUP4 MLOAD PUSH2 0x3DF4 JUMP JUMPDEST SWAP5 POP PUSH1 0x20 SWAP4 DUP5 ADD SWAP4 SWAP2 SWAP1 SWAP2 ADD SWAP1 PUSH1 0x1 ADD PUSH2 0x5C50 JUMP JUMPDEST POP SWAP3 SWAP7 SWAP6 POP POP POP POP POP POP JUMP JUMPDEST DUP1 DUP3 ADD DUP1 DUP3 GT ISZERO PUSH2 0x9B7 JUMPI PUSH2 0x9B7 PUSH2 0x4B81 JUMP INVALID BLOBHASH PUSH15 0x76616C696420636F756E7420746F74 PUSH2 0x6C20 PUSH4 0x6F6D6D65 PUSH15 0x7420616E6420666171496E76616C69 PUSH5 0x20636F756E PUSH21 0x3A20746F74616C2073797374656D20616464656420 PUSH21 0x6F2063617274496E76616C696420636F756E743A20 PUSH21 0x6F74616C2073797374656D206661766F7269746549 PUSH15 0x76616C696420636F756E743A207265 PUSH21 0x61696C657220616464656420746F20636172747B22 PUSH7 0x726F6D223A2022 GASLIMIT PUSH4 0x6F6D496E PUSH7 0x6F2E736F6C222C 0x22 PUSH4 0x6F646522 GASPRICE KECCAK256 LOG2 PUSH5 0x6970667358 0x22 SLT KECCAK256 DUP7 DUP4 PUSH3 0xC2B7D PUSH5 0x5C13CEA607 PUSH19 0x684EC14201FD383B52A4DE5C6DB831BCE2130 PUSH5 0x736F6C6343 STOP ADDMOD BYTE STOP CALLER "
		},
		"gasEstimates": {
			"creation": {
				"codeDepositCost": "4789400",
				"executionCost": "78326",
				"totalCost": "4867726"
			},
			"external": {
				"EcomOrder()": "2536",
				"EcomProduct()": "3218",
				"EcomUser()": "2712",
				"SetEcomOrder(address)": "infinite",
				"SetEcomProduct(address)": "infinite",
				"SetEcomUser(address)": "infinite",
				"admins(uint256)": "4657",
				"bestSellers(uint256)": "9119",
				"createListTrackUser((string,uint8,address,uint256[],uint256[]))": "infinite",
				"decreaseTotalAddedToCart(address)": "infinite",
				"decreaseTotalCommentAndFaq()": "infinite",
				"decreaseTotalFavorite(address)": "infinite",
				"deleteListTrackUser(string)": "infinite",
				"getBestSeller()": "infinite",
				"getErrorMessage(uint256,string)": "infinite",
				"getListTrackAdmin()": "infinite",
				"getListTrackRetailer()": "infinite",
				"getListTrackUser()": "infinite",
				"getListTrackUserActivityRetailer()": "infinite",
				"getListTrackUserActivitySystem()": "infinite",
				"getListTrackUserRetailer()": "infinite",
				"getOrderHistoryDetail()": "infinite",
				"getProductPurchaseTrend(uint256)": "infinite",
				"getProductTrend(uint256)": "infinite",
				"getRecentPurchases()": "infinite",
				"getRetailerAddedToCart()": "2578",
				"getRetailerFavorite()": "3238",
				"getSystemAddedToCart()": "infinite",
				"getSystemFavorite()": "infinite",
				"getSystemInfo()": "infinite",
				"getSystemProductPurchase()": "infinite",
				"getTotalProductViewCount()": "infinite",
				"getUserPurchaseInfo(address)": "infinite",
				"increaseBestSeller(uint256)": "infinite",
				"increaseCountryPurchases(string,(uint256,uint256))": "infinite",
				"increaseProductPurchaseTrend(uint256)": "47620",
				"increasePurchases(address,uint256)": "infinite",
				"increaseTotalAddedToCart(address)": "infinite",
				"increaseTotalCommentAndFaq()": "25769",
				"increaseTotalFavorite(address)": "infinite",
				"listTrackUserActivityRetailer(address,uint256)": "4807",
				"listTrackUserActivitySystem(uint256)": "5745",
				"listTrackUserSystem(uint256)": "infinite",
				"mCountryPurchases(string,uint256)": "infinite",
				"mListTrackUserRetailer(address,uint256)": "infinite",
				"mProductPurchaseTrend(uint256,uint256)": "5670",
				"mProductSearchTrend(uint256,uint256)": "4702",
				"mProductViewCount(uint256)": "2501",
				"mPurchases(address,uint256)": "7264",
				"owner()": "3064",
				"removeUserActivity(address,uint256,address,bool)": "infinite",
				"systemPurchases(uint256)": "4968",
				"totalCommentAndFAQ()": "2910",
				"totalRetailerAddedToCart(address)": "3676",
				"totalRetailerFavorite(address)": "3104",
				"totalSystemAddedToCart()": "3130",
				"totalSystemFavorite()": "2865",
				"totalSystemProductShare()": "3416",
				"totalSystemPurchasePrice()": "2580",
				"totalSystemVisitors()": "3614",
				"trackUserActivity(address,uint256,uint256,address,uint8,bool)": "infinite",
				"updateProductShare()": "25417",
				"updateViewCount(uint256)": "71165",
				"updateWebsiteVisitors()": "25725"
			},
			"internal": {
				"createNewUserActivity(uint256,uint256,enum TrackActivityType)": "infinite",
				"getRetailersUsername(address[] memory)": "infinite",
				"removeUserActivityItem(struct AddedToCartAndWishList storage pointer,uint256)": "infinite",
				"removeUserFromActivityList(struct AddedToCartAndWishList storage ref[] storage pointer,uint256)": "infinite"
			}
		},
		"methodIdentifiers": {
			"EcomOrder()": "32f39436",
			"EcomProduct()": "a354f1b2",
			"EcomUser()": "4d5c5fd7",
			"SetEcomOrder(address)": "44089cd1",
			"SetEcomProduct(address)": "62de6230",
			"SetEcomUser(address)": "cac0e650",
			"admins(uint256)": "14bfd6d0",
			"bestSellers(uint256)": "409b2cdf",
			"createListTrackUser((string,uint8,address,uint256[],uint256[]))": "8ef58635",
			"decreaseTotalAddedToCart(address)": "92a198d5",
			"decreaseTotalCommentAndFaq()": "6f2069f0",
			"decreaseTotalFavorite(address)": "c0a22771",
			"deleteListTrackUser(string)": "6a7434e5",
			"getBestSeller()": "2c9aefe9",
			"getErrorMessage(uint256,string)": "2248632a",
			"getListTrackAdmin()": "2075bd3c",
			"getListTrackRetailer()": "bc43b9cc",
			"getListTrackUser()": "86acd564",
			"getListTrackUserActivityRetailer()": "467956ef",
			"getListTrackUserActivitySystem()": "9a761c4d",
			"getListTrackUserRetailer()": "edafaf63",
			"getOrderHistoryDetail()": "ac3b394f",
			"getProductPurchaseTrend(uint256)": "70e8e53c",
			"getProductTrend(uint256)": "32fd9850",
			"getRecentPurchases()": "abb4ca99",
			"getRetailerAddedToCart()": "35890aad",
			"getRetailerFavorite()": "aa29eac7",
			"getSystemAddedToCart()": "ac5fae69",
			"getSystemFavorite()": "13badcb8",
			"getSystemInfo()": "6cb69f42",
			"getSystemProductPurchase()": "f53bc6e3",
			"getTotalProductViewCount()": "795ec6d4",
			"getUserPurchaseInfo(address)": "e6801ac7",
			"increaseBestSeller(uint256)": "8286980c",
			"increaseCountryPurchases(string,(uint256,uint256))": "3d3a9748",
			"increaseProductPurchaseTrend(uint256)": "b34210e1",
			"increasePurchases(address,uint256)": "5b956627",
			"increaseTotalAddedToCart(address)": "f954ed2d",
			"increaseTotalCommentAndFaq()": "f857d617",
			"increaseTotalFavorite(address)": "eda162e7",
			"listTrackUserActivityRetailer(address,uint256)": "022de34c",
			"listTrackUserActivitySystem(uint256)": "ca6a7502",
			"listTrackUserSystem(uint256)": "e27ea4a7",
			"mCountryPurchases(string,uint256)": "9075c290",
			"mListTrackUserRetailer(address,uint256)": "989868ed",
			"mProductPurchaseTrend(uint256,uint256)": "b94aead5",
			"mProductSearchTrend(uint256,uint256)": "158d3474",
			"mProductViewCount(uint256)": "1738408d",
			"mPurchases(address,uint256)": "4e581680",
			"owner()": "8da5cb5b",
			"removeUserActivity(address,uint256,address,bool)": "d24043cb",
			"systemPurchases(uint256)": "4fa3c56f",
			"totalCommentAndFAQ()": "7e0833ca",
			"totalRetailerAddedToCart(address)": "d6376aea",
			"totalRetailerFavorite(address)": "7be740c9",
			"totalSystemAddedToCart()": "9cde636e",
			"totalSystemFavorite()": "79d3f776",
			"totalSystemProductShare()": "cece999f",
			"totalSystemPurchasePrice()": "4323323a",
			"totalSystemVisitors()": "f62dd1ee",
			"trackUserActivity(address,uint256,uint256,address,uint8,bool)": "8aa393ac",
			"updateProductShare()": "b34d644a",
			"updateViewCount(uint256)": "32aca62b",
			"updateWebsiteVisitors()": "f5548899"
		}
	},
	"abi": [
		{
			"inputs": [],
			"stateMutability": "payable",
			"type": "constructor"
		},
		{
			"inputs": [],
			"name": "EcomOrder",
			"outputs": [
				{
					"internalType": "contract IEcomOrder",
					"name": "",
					"type": "address"
				}
			],
			"stateMutability": "view",
			"type": "function"
		},
		{
			"inputs": [],
			"name": "EcomProduct",
			"outputs": [
				{
					"internalType": "contract IEcomProduct",
					"name": "",
					"type": "address"
				}
			],
			"stateMutability": "view",
			"type": "function"
		},
		{
			"inputs": [],
			"name": "EcomUser",
			"outputs": [
				{
					"internalType": "contract IEcomUser",
					"name": "",
					"type": "address"
				}
			],
			"stateMutability": "view",
			"type": "function"
		},
		{
			"inputs": [
				{
					"internalType": "address",
					"name": "_ecomOrder",
					"type": "address"
				}
			],
			"name": "SetEcomOrder",
			"outputs": [
				{
					"internalType": "bool",
					"name": "",
					"type": "bool"
				}
			],
			"stateMutability": "nonpayable",
			"type": "function"
		},
		{
			"inputs": [
				{
					"internalType": "address",
					"name": "_ecomProduct",
					"type": "address"
				}
			],
			"name": "SetEcomProduct",
			"outputs": [
				{
					"internalType": "bool",
					"name": "",
					"type": "bool"
				}
			],
			"stateMutability": "nonpayable",
			"type": "function"
		},
		{
			"inputs": [
				{
					"internalType": "address",
					"name": "_ecomUser",
					"type": "address"
				}
			],
			"name": "SetEcomUser",
			"outputs": [
				{
					"internalType": "bool",
					"name": "",
					"type": "bool"
				}
			],
			"stateMutability": "nonpayable",
			"type": "function"
		},
		{
			"inputs": [
				{
					"internalType": "uint256",
					"name": "",
					"type": "uint256"
				}
			],
			"name": "admins",
			"outputs": [
				{
					"internalType": "address",
					"name": "",
					"type": "address"
				}
			],
			"stateMutability": "view",
			"type": "function"
		},
		{
			"inputs": [
				{
					"internalType": "uint256",
					"name": "",
					"type": "uint256"
				}
			],
			"name": "bestSellers",
			"outputs": [
				{
					"internalType": "uint256",
					"name": "productID",
					"type": "uint256"
				},
				{
					"internalType": "uint256",
					"name": "sold",
					"type": "uint256"
				},
				{
					"internalType": "uint256",
					"name": "timestamp",
					"type": "uint256"
				}
			],
			"stateMutability": "view",
			"type": "function"
		},
		{
			"inputs": [
				{
					"components": [
						{
							"internalType": "string",
							"name": "orderID",
							"type": "string"
						},
						{
							"internalType": "uint8",
							"name": "trackType",
							"type": "uint8"
						},
						{
							"internalType": "address",
							"name": "customer",
							"type": "address"
						},
						{
							"internalType": "uint256[]",
							"name": "productIds",
							"type": "uint256[]"
						},
						{
							"internalType": "uint256[]",
							"name": "quantities",
							"type": "uint256[]"
						}
					],
					"internalType": "struct createListTrackUserParams",
					"name": "params",
					"type": "tuple"
				}
			],
			"name": "createListTrackUser",
			"outputs": [],
			"stateMutability": "nonpayable",
			"type": "function"
		},
		{
			"inputs": [
				{
					"internalType": "address",
					"name": "_retailer",
					"type": "address"
				}
			],
			"name": "decreaseTotalAddedToCart",
			"outputs": [],
			"stateMutability": "nonpayable",
			"type": "function"
		},
		{
			"inputs": [],
			"name": "decreaseTotalCommentAndFaq",
			"outputs": [],
			"stateMutability": "nonpayable",
			"type": "function"
		},
		{
			"inputs": [
				{
					"internalType": "address",
					"name": "_retailer",
					"type": "address"
				}
			],
			"name": "decreaseTotalFavorite",
			"outputs": [],
			"stateMutability": "nonpayable",
			"type": "function"
		},
		{
			"inputs": [
				{
					"internalType": "string",
					"name": "_orderID",
					"type": "string"
				}
			],
			"name": "deleteListTrackUser",
			"outputs": [],
			"stateMutability": "nonpayable",
			"type": "function"
		},
		{
			"inputs": [],
			"name": "getBestSeller",
			"outputs": [
				{
					"components": [
						{
							"internalType": "uint256",
							"name": "productID",
							"type": "uint256"
						},
						{
							"internalType": "uint256",
							"name": "sold",
							"type": "uint256"
						},
						{
							"internalType": "uint256",
							"name": "timestamp",
							"type": "uint256"
						}
					],
					"internalType": "struct BestSeller[]",
					"name": "",
					"type": "tuple[]"
				}
			],
			"stateMutability": "view",
			"type": "function"
		},
		{
			"inputs": [
				{
					"internalType": "uint256",
					"name": "code",
					"type": "uint256"
				},
				{
					"internalType": "string",
					"name": "message",
					"type": "string"
				}
			],
			"name": "getErrorMessage",
			"outputs": [
				{
					"internalType": "string",
					"name": "",
					"type": "string"
				}
			],
			"stateMutability": "pure",
			"type": "function"
		},
		{
			"inputs": [],
			"name": "getListTrackAdmin",
			"outputs": [
				{
					"components": [
						{
							"internalType": "string",
							"name": "orderID",
							"type": "string"
						},
						{
							"internalType": "uint8",
							"name": "trackType",
							"type": "uint8"
						},
						{
							"internalType": "address",
							"name": "customer",
							"type": "address"
						},
						{
							"internalType": "bytes",
							"name": "retailerName",
							"type": "bytes"
						},
						{
							"internalType": "uint256",
							"name": "timestamp",
							"type": "uint256"
						},
						{
							"internalType": "uint256[]",
							"name": "productIds",
							"type": "uint256[]"
						},
						{
							"internalType": "uint256[]",
							"name": "quantities",
							"type": "uint256[]"
						}
					],
					"internalType": "struct ListTrackUser[]",
					"name": "_listTracks",
					"type": "tuple[]"
				},
				{
					"internalType": "uint256",
					"name": "_favorites",
					"type": "uint256"
				},
				{
					"internalType": "uint256",
					"name": "_addedToCarts",
					"type": "uint256"
				},
				{
					"components": [
						{
							"internalType": "address",
							"name": "customer",
							"type": "address"
						},
						{
							"internalType": "uint8",
							"name": "activityType",
							"type": "uint8"
						},
						{
							"internalType": "uint256[]",
							"name": "productIds",
							"type": "uint256[]"
						},
						{
							"internalType": "uint256[]",
							"name": "quantities",
							"type": "uint256[]"
						},
						{
							"internalType": "uint256[]",
							"name": "addedAt",
							"type": "uint256[]"
						}
					],
					"internalType": "struct AddedToCartAndWishList[]",
					"name": "_totalCartWishList",
					"type": "tuple[]"
				},
				{
					"internalType": "uint256[]",
					"name": "_systemPurchases",
					"type": "uint256[]"
				}
			],
			"stateMutability": "view",
			"type": "function"
		},
		{
			"inputs": [],
			"name": "getListTrackRetailer",
			"outputs": [
				{
					"components": [
						{
							"internalType": "string",
							"name": "orderID",
							"type": "string"
						},
						{
							"internalType": "uint8",
							"name": "trackType",
							"type": "uint8"
						},
						{
							"internalType": "address",
							"name": "customer",
							"type": "address"
						},
						{
							"internalType": "bytes",
							"name": "retailerName",
							"type": "bytes"
						},
						{
							"internalType": "uint256",
							"name": "timestamp",
							"type": "uint256"
						},
						{
							"internalType": "uint256[]",
							"name": "productIds",
							"type": "uint256[]"
						},
						{
							"internalType": "uint256[]",
							"name": "quantities",
							"type": "uint256[]"
						}
					],
					"internalType": "struct ListTrackUser[]",
					"name": "_listTracks",
					"type": "tuple[]"
				},
				{
					"internalType": "uint256",
					"name": "_favorites",
					"type": "uint256"
				},
				{
					"internalType": "uint256",
					"name": "_addedToCarts",
					"type": "uint256"
				},
				{
					"components": [
						{
							"internalType": "address",
							"name": "customer",
							"type": "address"
						},
						{
							"internalType": "uint8",
							"name": "activityType",
							"type": "uint8"
						},
						{
							"internalType": "uint256[]",
							"name": "productIds",
							"type": "uint256[]"
						},
						{
							"internalType": "uint256[]",
							"name": "quantities",
							"type": "uint256[]"
						},
						{
							"internalType": "uint256[]",
							"name": "addedAt",
							"type": "uint256[]"
						}
					],
					"internalType": "struct AddedToCartAndWishList[]",
					"name": "_totalCartWishList",
					"type": "tuple[]"
				}
			],
			"stateMutability": "view",
			"type": "function"
		},
		{
			"inputs": [],
			"name": "getListTrackUser",
			"outputs": [
				{
					"components": [
						{
							"internalType": "string",
							"name": "orderID",
							"type": "string"
						},
						{
							"internalType": "uint8",
							"name": "trackType",
							"type": "uint8"
						},
						{
							"internalType": "address",
							"name": "customer",
							"type": "address"
						},
						{
							"internalType": "bytes",
							"name": "retailerName",
							"type": "bytes"
						},
						{
							"internalType": "uint256",
							"name": "timestamp",
							"type": "uint256"
						},
						{
							"internalType": "uint256[]",
							"name": "productIds",
							"type": "uint256[]"
						},
						{
							"internalType": "uint256[]",
							"name": "quantities",
							"type": "uint256[]"
						}
					],
					"internalType": "struct ListTrackUser[]",
					"name": "",
					"type": "tuple[]"
				}
			],
			"stateMutability": "view",
			"type": "function"
		},
		{
			"inputs": [],
			"name": "getListTrackUserActivityRetailer",
			"outputs": [
				{
					"components": [
						{
							"internalType": "address",
							"name": "customer",
							"type": "address"
						},
						{
							"internalType": "uint8",
							"name": "activityType",
							"type": "uint8"
						},
						{
							"internalType": "uint256[]",
							"name": "productIds",
							"type": "uint256[]"
						},
						{
							"internalType": "uint256[]",
							"name": "quantities",
							"type": "uint256[]"
						},
						{
							"internalType": "uint256[]",
							"name": "addedAt",
							"type": "uint256[]"
						}
					],
					"internalType": "struct AddedToCartAndWishList[]",
					"name": "",
					"type": "tuple[]"
				}
			],
			"stateMutability": "view",
			"type": "function"
		},
		{
			"inputs": [],
			"name": "getListTrackUserActivitySystem",
			"outputs": [
				{
					"components": [
						{
							"internalType": "address",
							"name": "customer",
							"type": "address"
						},
						{
							"internalType": "uint8",
							"name": "activityType",
							"type": "uint8"
						},
						{
							"internalType": "uint256[]",
							"name": "productIds",
							"type": "uint256[]"
						},
						{
							"internalType": "uint256[]",
							"name": "quantities",
							"type": "uint256[]"
						},
						{
							"internalType": "uint256[]",
							"name": "addedAt",
							"type": "uint256[]"
						}
					],
					"internalType": "struct AddedToCartAndWishList[]",
					"name": "",
					"type": "tuple[]"
				}
			],
			"stateMutability": "view",
			"type": "function"
		},
		{
			"inputs": [],
			"name": "getListTrackUserRetailer",
			"outputs": [
				{
					"components": [
						{
							"internalType": "string",
							"name": "orderID",
							"type": "string"
						},
						{
							"internalType": "uint8",
							"name": "trackType",
							"type": "uint8"
						},
						{
							"internalType": "address",
							"name": "customer",
							"type": "address"
						},
						{
							"internalType": "bytes",
							"name": "retailerName",
							"type": "bytes"
						},
						{
							"internalType": "uint256",
							"name": "timestamp",
							"type": "uint256"
						},
						{
							"internalType": "uint256[]",
							"name": "productIds",
							"type": "uint256[]"
						},
						{
							"internalType": "uint256[]",
							"name": "quantities",
							"type": "uint256[]"
						}
					],
					"internalType": "struct ListTrackUser[]",
					"name": "",
					"type": "tuple[]"
				}
			],
			"stateMutability": "view",
			"type": "function"
		},
		{
			"inputs": [],
			"name": "getOrderHistoryDetail",
			"outputs": [
				{
					"components": [
						{
							"internalType": "uint256",
							"name": "orderID",
							"type": "uint256"
						},
						{
							"internalType": "address",
							"name": "user",
							"type": "address"
						},
						{
							"internalType": "address",
							"name": "buyer",
							"type": "address"
						},
						{
							"internalType": "uint256",
							"name": "discountID",
							"type": "uint256"
						},
						{
							"internalType": "uint256[]",
							"name": "cartItemIds",
							"type": "uint256[]"
						},
						{
							"internalType": "uint256[]",
							"name": "productIds",
							"type": "uint256[]"
						},
						{
							"internalType": "bytes32[]",
							"name": "variantIds",
							"type": "bytes32[]"
						},
						{
							"internalType": "uint256[]",
							"name": "quantities",
							"type": "uint256[]"
						},
						{
							"internalType": "uint256[]",
							"name": "diffPrices",
							"type": "uint256[]"
						},
						{
							"internalType": "uint256[]",
							"name": "prices",
							"type": "uint256[]"
						},
						{
							"internalType": "uint256[]",
							"name": "rewards",
							"type": "uint256[]"
						},
						{
							"internalType": "uint256",
							"name": "totalPrice",
							"type": "uint256"
						},
						{
							"internalType": "uint8",
							"name": "checkoutType",
							"type": "uint8"
						},
						{
							"internalType": "uint8",
							"name": "orderStatus",
							"type": "uint8"
						},
						{
							"internalType": "bytes32",
							"name": "codeRef",
							"type": "bytes32"
						},
						{
							"internalType": "uint256",
							"name": "afterDiscountPrice",
							"type": "uint256"
						},
						{
							"internalType": "uint256",
							"name": "shippingPrice",
							"type": "uint256"
						},
						{
							"internalType": "uint8",
							"name": "paymentType",
							"type": "uint8"
						},
						{
							"internalType": "uint256",
							"name": "createdAt",
							"type": "uint256"
						}
					],
					"internalType": "struct Order[]",
					"name": "_orders",
					"type": "tuple[]"
				},
				{
					"components": [
						{
							"internalType": "uint8",
							"name": "paymentType",
							"type": "uint8"
						},
						{
							"internalType": "uint256",
							"name": "totalPayment",
							"type": "uint256"
						},
						{
							"internalType": "address",
							"name": "buyer",
							"type": "address"
						}
					],
					"internalType": "struct PaymentHistory[]",
					"name": "_payments",
					"type": "tuple[]"
				},
				{
					"components": [
						{
							"internalType": "uint256",
							"name": "productID",
							"type": "uint256"
						},
						{
							"internalType": "uint256",
							"name": "buyAt",
							"type": "uint256"
						}
					],
					"internalType": "struct Purchase[]",
					"name": "_purchases",
					"type": "tuple[]"
				}
			],
			"stateMutability": "view",
			"type": "function"
		},
		{
			"inputs": [
				{
					"internalType": "uint256",
					"name": "_productID",
					"type": "uint256"
				}
			],
			"name": "getProductPurchaseTrend",
			"outputs": [
				{
					"internalType": "uint256[]",
					"name": "",
					"type": "uint256[]"
				}
			],
			"stateMutability": "view",
			"type": "function"
		},
		{
			"inputs": [
				{
					"internalType": "uint256",
					"name": "_productID",
					"type": "uint256"
				}
			],
			"name": "getProductTrend",
			"outputs": [
				{
					"internalType": "uint256[]",
					"name": "",
					"type": "uint256[]"
				}
			],
			"stateMutability": "view",
			"type": "function"
		},
		{
			"inputs": [],
			"name": "getRecentPurchases",
			"outputs": [
				{
					"components": [
						{
							"internalType": "uint256",
							"name": "productID",
							"type": "uint256"
						},
						{
							"internalType": "uint256",
							"name": "buyAt",
							"type": "uint256"
						}
					],
					"internalType": "struct Purchase[]",
					"name": "",
					"type": "tuple[]"
				}
			],
			"stateMutability": "view",
			"type": "function"
		},
		{
			"inputs": [],
			"name": "getRetailerAddedToCart",
			"outputs": [
				{
					"internalType": "uint256",
					"name": "",
					"type": "uint256"
				}
			],
			"stateMutability": "view",
			"type": "function"
		},
		{
			"inputs": [],
			"name": "getRetailerFavorite",
			"outputs": [
				{
					"internalType": "uint256",
					"name": "",
					"type": "uint256"
				}
			],
			"stateMutability": "view",
			"type": "function"
		},
		{
			"inputs": [],
			"name": "getSystemAddedToCart",
			"outputs": [
				{
					"internalType": "uint256",
					"name": "",
					"type": "uint256"
				}
			],
			"stateMutability": "view",
			"type": "function"
		},
		{
			"inputs": [],
			"name": "getSystemFavorite",
			"outputs": [
				{
					"internalType": "uint256",
					"name": "",
					"type": "uint256"
				}
			],
			"stateMutability": "view",
			"type": "function"
		},
		{
			"inputs": [],
			"name": "getSystemInfo",
			"outputs": [
				{
					"internalType": "uint256",
					"name": "totalVistors",
					"type": "uint256"
				},
				{
					"internalType": "uint256",
					"name": "totalCfs",
					"type": "uint256"
				},
				{
					"internalType": "uint256",
					"name": "totalShares",
					"type": "uint256"
				}
			],
			"stateMutability": "view",
			"type": "function"
		},
		{
			"inputs": [],
			"name": "getSystemProductPurchase",
			"outputs": [
				{
					"internalType": "uint256[]",
					"name": "",
					"type": "uint256[]"
				}
			],
			"stateMutability": "view",
			"type": "function"
		},
		{
			"inputs": [],
			"name": "getTotalProductViewCount",
			"outputs": [
				{
					"internalType": "uint256[]",
					"name": "_productIds",
					"type": "uint256[]"
				},
				{
					"internalType": "uint256[]",
					"name": "_productCount",
					"type": "uint256[]"
				},
				{
					"internalType": "uint256[]",
					"name": "_time",
					"type": "uint256[]"
				}
			],
			"stateMutability": "view",
			"type": "function"
		},
		{
			"inputs": [
				{
					"internalType": "address",
					"name": "_user",
					"type": "address"
				}
			],
			"name": "getUserPurchaseInfo",
			"outputs": [
				{
					"components": [
						{
							"internalType": "uint256",
							"name": "orderID",
							"type": "uint256"
						},
						{
							"internalType": "address",
							"name": "user",
							"type": "address"
						},
						{
							"internalType": "address",
							"name": "buyer",
							"type": "address"
						},
						{
							"internalType": "uint256",
							"name": "discountID",
							"type": "uint256"
						},
						{
							"internalType": "uint256[]",
							"name": "cartItemIds",
							"type": "uint256[]"
						},
						{
							"internalType": "uint256[]",
							"name": "productIds",
							"type": "uint256[]"
						},
						{
							"internalType": "bytes32[]",
							"name": "variantIds",
							"type": "bytes32[]"
						},
						{
							"internalType": "uint256[]",
							"name": "quantities",
							"type": "uint256[]"
						},
						{
							"internalType": "uint256[]",
							"name": "diffPrices",
							"type": "uint256[]"
						},
						{
							"internalType": "uint256[]",
							"name": "prices",
							"type": "uint256[]"
						},
						{
							"internalType": "uint256[]",
							"name": "rewards",
							"type": "uint256[]"
						},
						{
							"internalType": "uint256",
							"name": "totalPrice",
							"type": "uint256"
						},
						{
							"internalType": "uint8",
							"name": "checkoutType",
							"type": "uint8"
						},
						{
							"internalType": "uint8",
							"name": "orderStatus",
							"type": "uint8"
						},
						{
							"internalType": "bytes32",
							"name": "codeRef",
							"type": "bytes32"
						},
						{
							"internalType": "uint256",
							"name": "afterDiscountPrice",
							"type": "uint256"
						},
						{
							"internalType": "uint256",
							"name": "shippingPrice",
							"type": "uint256"
						},
						{
							"internalType": "uint8",
							"name": "paymentType",
							"type": "uint8"
						},
						{
							"internalType": "uint256",
							"name": "createdAt",
							"type": "uint256"
						}
					],
					"internalType": "struct Order[]",
					"name": "_orders",
					"type": "tuple[]"
				},
				{
					"components": [
						{
							"internalType": "uint256",
							"name": "id",
							"type": "uint256"
						},
						{
							"internalType": "address",
							"name": "owner",
							"type": "address"
						},
						{
							"components": [
								{
									"internalType": "uint256",
									"name": "id",
									"type": "uint256"
								},
								{
									"internalType": "uint256",
									"name": "productID",
									"type": "uint256"
								},
								{
									"internalType": "uint256",
									"name": "quantity",
									"type": "uint256"
								},
								{
									"internalType": "bytes32",
									"name": "variantID",
									"type": "bytes32"
								},
								{
									"internalType": "uint256",
									"name": "createAt",
									"type": "uint256"
								}
							],
							"internalType": "struct CartItem[]",
							"name": "items",
							"type": "tuple[]"
						}
					],
					"internalType": "struct Cart",
					"name": "_cart",
					"type": "tuple"
				},
				{
					"components": [
						{
							"internalType": "uint256",
							"name": "productID",
							"type": "uint256"
						},
						{
							"internalType": "uint256",
							"name": "createdAt",
							"type": "uint256"
						}
					],
					"internalType": "struct Favorite[]",
					"name": "_productIds",
					"type": "tuple[]"
				}
			],
			"stateMutability": "view",
			"type": "function"
		},
		{
			"inputs": [
				{
					"internalType": "uint256",
					"name": "_productID",
					"type": "uint256"
				}
			],
			"name": "increaseBestSeller",
			"outputs": [],
			"stateMutability": "nonpayable",
			"type": "function"
		},
		{
			"inputs": [
				{
					"internalType": "string",
					"name": "_country",
					"type": "string"
				},
				{
					"components": [
						{
							"internalType": "uint256",
							"name": "productID",
							"type": "uint256"
						},
						{
							"internalType": "uint256",
							"name": "buyAt",
							"type": "uint256"
						}
					],
					"internalType": "struct Purchase",
					"name": "_purchase",
					"type": "tuple"
				}
			],
			"name": "increaseCountryPurchases",
			"outputs": [],
			"stateMutability": "nonpayable",
			"type": "function"
		},
		{
			"inputs": [
				{
					"internalType": "uint256",
					"name": "_productID",
					"type": "uint256"
				}
			],
			"name": "increaseProductPurchaseTrend",
			"outputs": [],
			"stateMutability": "nonpayable",
			"type": "function"
		},
		{
			"inputs": [
				{
					"internalType": "address",
					"name": "user",
					"type": "address"
				},
				{
					"internalType": "uint256",
					"name": "_productID",
					"type": "uint256"
				}
			],
			"name": "increasePurchases",
			"outputs": [],
			"stateMutability": "nonpayable",
			"type": "function"
		},
		{
			"inputs": [
				{
					"internalType": "address",
					"name": "_retailer",
					"type": "address"
				}
			],
			"name": "increaseTotalAddedToCart",
			"outputs": [],
			"stateMutability": "nonpayable",
			"type": "function"
		},
		{
			"inputs": [],
			"name": "increaseTotalCommentAndFaq",
			"outputs": [],
			"stateMutability": "nonpayable",
			"type": "function"
		},
		{
			"inputs": [
				{
					"internalType": "address",
					"name": "_retailer",
					"type": "address"
				}
			],
			"name": "increaseTotalFavorite",
			"outputs": [],
			"stateMutability": "nonpayable",
			"type": "function"
		},
		{
			"inputs": [
				{
					"internalType": "address",
					"name": "",
					"type": "address"
				},
				{
					"internalType": "uint256",
					"name": "",
					"type": "uint256"
				}
			],
			"name": "listTrackUserActivityRetailer",
			"outputs": [
				{
					"internalType": "address",
					"name": "customer",
					"type": "address"
				},
				{
					"internalType": "uint8",
					"name": "activityType",
					"type": "uint8"
				}
			],
			"stateMutability": "view",
			"type": "function"
		},
		{
			"inputs": [
				{
					"internalType": "uint256",
					"name": "",
					"type": "uint256"
				}
			],
			"name": "listTrackUserActivitySystem",
			"outputs": [
				{
					"internalType": "address",
					"name": "customer",
					"type": "address"
				},
				{
					"internalType": "uint8",
					"name": "activityType",
					"type": "uint8"
				}
			],
			"stateMutability": "view",
			"type": "function"
		},
		{
			"inputs": [
				{
					"internalType": "uint256",
					"name": "",
					"type": "uint256"
				}
			],
			"name": "listTrackUserSystem",
			"outputs": [
				{
					"internalType": "string",
					"name": "orderID",
					"type": "string"
				},
				{
					"internalType": "uint8",
					"name": "trackType",
					"type": "uint8"
				},
				{
					"internalType": "address",
					"name": "customer",
					"type": "address"
				},
				{
					"internalType": "bytes",
					"name": "retailerName",
					"type": "bytes"
				},
				{
					"internalType": "uint256",
					"name": "timestamp",
					"type": "uint256"
				}
			],
			"stateMutability": "view",
			"type": "function"
		},
		{
			"inputs": [
				{
					"internalType": "string",
					"name": "",
					"type": "string"
				},
				{
					"internalType": "uint256",
					"name": "",
					"type": "uint256"
				}
			],
			"name": "mCountryPurchases",
			"outputs": [
				{
					"internalType": "uint256",
					"name": "productID",
					"type": "uint256"
				},
				{
					"internalType": "uint256",
					"name": "buyAt",
					"type": "uint256"
				}
			],
			"stateMutability": "view",
			"type": "function"
		},
		{
			"inputs": [
				{
					"internalType": "address",
					"name": "",
					"type": "address"
				},
				{
					"internalType": "uint256",
					"name": "",
					"type": "uint256"
				}
			],
			"name": "mListTrackUserRetailer",
			"outputs": [
				{
					"internalType": "string",
					"name": "orderID",
					"type": "string"
				},
				{
					"internalType": "uint8",
					"name": "trackType",
					"type": "uint8"
				},
				{
					"internalType": "address",
					"name": "customer",
					"type": "address"
				},
				{
					"internalType": "bytes",
					"name": "retailerName",
					"type": "bytes"
				},
				{
					"internalType": "uint256",
					"name": "timestamp",
					"type": "uint256"
				}
			],
			"stateMutability": "view",
			"type": "function"
		},
		{
			"inputs": [
				{
					"internalType": "uint256",
					"name": "",
					"type": "uint256"
				},
				{
					"internalType": "uint256",
					"name": "",
					"type": "uint256"
				}
			],
			"name": "mProductPurchaseTrend",
			"outputs": [
				{
					"internalType": "uint256",
					"name": "",
					"type": "uint256"
				}
			],
			"stateMutability": "view",
			"type": "function"
		},
		{
			"inputs": [
				{
					"internalType": "uint256",
					"name": "",
					"type": "uint256"
				},
				{
					"internalType": "uint256",
					"name": "",
					"type": "uint256"
				}
			],
			"name": "mProductSearchTrend",
			"outputs": [
				{
					"internalType": "uint256",
					"name": "",
					"type": "uint256"
				}
			],
			"stateMutability": "view",
			"type": "function"
		},
		{
			"inputs": [
				{
					"internalType": "uint256",
					"name": "",
					"type": "uint256"
				}
			],
			"name": "mProductViewCount",
			"outputs": [
				{
					"internalType": "uint256",
					"name": "",
					"type": "uint256"
				}
			],
			"stateMutability": "view",
			"type": "function"
		},
		{
			"inputs": [
				{
					"internalType": "address",
					"name": "",
					"type": "address"
				},
				{
					"internalType": "uint256",
					"name": "",
					"type": "uint256"
				}
			],
			"name": "mPurchases",
			"outputs": [
				{
					"internalType": "uint256",
					"name": "productID",
					"type": "uint256"
				},
				{
					"internalType": "uint256",
					"name": "buyAt",
					"type": "uint256"
				}
			],
			"stateMutability": "view",
			"type": "function"
		},
		{
			"inputs": [],
			"name": "owner",
			"outputs": [
				{
					"internalType": "address",
					"name": "",
					"type": "address"
				}
			],
			"stateMutability": "view",
			"type": "function"
		},
		{
			"inputs": [
				{
					"internalType": "address",
					"name": "user",
					"type": "address"
				},
				{
					"internalType": "uint256",
					"name": "_productID",
					"type": "uint256"
				},
				{
					"internalType": "address",
					"name": "retailer",
					"type": "address"
				},
				{
					"internalType": "bool",
					"name": "isSystem",
					"type": "bool"
				}
			],
			"name": "removeUserActivity",
			"outputs": [],
			"stateMutability": "nonpayable",
			"type": "function"
		},
		{
			"inputs": [
				{
					"internalType": "uint256",
					"name": "",
					"type": "uint256"
				}
			],
			"name": "systemPurchases",
			"outputs": [
				{
					"internalType": "uint256",
					"name": "",
					"type": "uint256"
				}
			],
			"stateMutability": "view",
			"type": "function"
		},
		{
			"inputs": [],
			"name": "totalCommentAndFAQ",
			"outputs": [
				{
					"internalType": "uint256",
					"name": "",
					"type": "uint256"
				}
			],
			"stateMutability": "view",
			"type": "function"
		},
		{
			"inputs": [
				{
					"internalType": "address",
					"name": "",
					"type": "address"
				}
			],
			"name": "totalRetailerAddedToCart",
			"outputs": [
				{
					"internalType": "uint256",
					"name": "",
					"type": "uint256"
				}
			],
			"stateMutability": "view",
			"type": "function"
		},
		{
			"inputs": [
				{
					"internalType": "address",
					"name": "",
					"type": "address"
				}
			],
			"name": "totalRetailerFavorite",
			"outputs": [
				{
					"internalType": "uint256",
					"name": "",
					"type": "uint256"
				}
			],
			"stateMutability": "view",
			"type": "function"
		},
		{
			"inputs": [],
			"name": "totalSystemAddedToCart",
			"outputs": [
				{
					"internalType": "uint256",
					"name": "",
					"type": "uint256"
				}
			],
			"stateMutability": "view",
			"type": "function"
		},
		{
			"inputs": [],
			"name": "totalSystemFavorite",
			"outputs": [
				{
					"internalType": "uint256",
					"name": "",
					"type": "uint256"
				}
			],
			"stateMutability": "view",
			"type": "function"
		},
		{
			"inputs": [],
			"name": "totalSystemProductShare",
			"outputs": [
				{
					"internalType": "uint256",
					"name": "",
					"type": "uint256"
				}
			],
			"stateMutability": "view",
			"type": "function"
		},
		{
			"inputs": [],
			"name": "totalSystemPurchasePrice",
			"outputs": [
				{
					"internalType": "uint256",
					"name": "",
					"type": "uint256"
				}
			],
			"stateMutability": "view",
			"type": "function"
		},
		{
			"inputs": [],
			"name": "totalSystemVisitors",
			"outputs": [
				{
					"internalType": "uint256",
					"name": "",
					"type": "uint256"
				}
			],
			"stateMutability": "view",
			"type": "function"
		},
		{
			"inputs": [
				{
					"internalType": "address",
					"name": "user",
					"type": "address"
				},
				{
					"internalType": "uint256",
					"name": "_productID",
					"type": "uint256"
				},
				{
					"internalType": "uint256",
					"name": "quantity",
					"type": "uint256"
				},
				{
					"internalType": "address",
					"name": "retailer",
					"type": "address"
				},
				{
					"internalType": "enum TrackActivityType",
					"name": "activityType",
					"type": "uint8"
				},
				{
					"internalType": "bool",
					"name": "isSystem",
					"type": "bool"
				}
			],
			"name": "trackUserActivity",
			"outputs": [],
			"stateMutability": "nonpayable",
			"type": "function"
		},
		{
			"inputs": [],
			"name": "updateProductShare",
			"outputs": [],
			"stateMutability": "nonpayable",
			"type": "function"
		},
		{
			"inputs": [
				{
					"internalType": "uint256",
					"name": "_productID",
					"type": "uint256"
				}
			],
			"name": "updateViewCount",
			"outputs": [],
			"stateMutability": "nonpayable",
			"type": "function"
		},
		{
			"inputs": [],
			"name": "updateWebsiteVisitors",
			"outputs": [],
			"stateMutability": "nonpayable",
			"type": "function"
		}
	]
}