{
	"data": {
		"bytecode": {
			"linkReferences": {},
			"object": "60806040908152335f818152601a602052918220805460ff19166001908117909155601b8054918201815583527f3ad8aa4f87544323a9d1e5dd902f40c356527a7955687113db5f9a85ad579dc10180546001600160a01b0319908116831790915582541617905561cba4806100745f395ff3fe608060405234801561000f575f80fd5b506004361061056c575f3560e01c80637acc0b20116102d9578063b9db15b411610186578063d904d7c5116100ef578063f3052d26116100a9578063f9fb452f11610084578063f9fb452f14610f28578063fdcb573214610f31578063fe5ed5dd14610f44578063fec0ed1d14610fb7575f80fd5b8063f3052d2614610eba578063f497e49c14610eda578063f82ee41a14610f07575f80fd5b8063d904d7c514610e53578063dee2412f14610e5b578063e7303fc014610e6e578063ed90c7b714610e81578063edd1de4d14610e94578063ee4e9fff14610ea7575f80fd5b8063cac0e65011610140578063cac0e65014610dcd578063cbb7738014610de0578063ceca737f14610df3578063d06fd39b14610e06578063d4eb7bad14610e19578063d738d8a214610e40575f80fd5b8063b9db15b414610d06578063bb58e29f14610d26578063c29b2f2014610d39578063c6cdbe5e14610d41578063c7691cf614610d54578063c785314814610dba575f80fd5b80639ff99d9f11610242578063b28917fe116101fc578063b570fd8e116101d7578063b570fd8e14610cce578063b5c3a9dc14610cd7578063b814f77b14610cea578063b8eec5ff14610cfd575f80fd5b8063b28917fe14610c90578063b3dd67fe14610c99578063b3ed37b214610cbb575f80fd5b80639ff99d9f14610c1e578063a6ed62cf14610c31578063a8f4683014610c44578063ad81602914610c57578063af8eb71414610c6a578063b224b4e914610c7d575f80fd5b80638a8869e2116102935780638a8869e214610b9e5780638da5cb5b14610bb15780638e5254a614610bc35780639406a81614610bd65780639b5ace9e14610be95780639ddf2e9514610bfc575f80fd5b80637acc0b2014610b065780637cbd418314610b19578063822d487d14610b395780638248a72414610b4e578063841392db14610b61578063891c95f914610b74575f80fd5b806340b2527b11610437578063562e2c35116103a057806367ef5a9a1161035a5780636bb42046116103355780636bb4204614610aab578063704b6c0214610acb5780637608a27e14610ade57806379a85e6c14610ae6575f80fd5b806367ef5a9a14610a3e578063680921ae14610a5e5780636813b53b14610a86575f80fd5b8063562e2c35146109a15780635b315089146109ce5780636138b4a5146109d6578063633481e6146109e95780636353aa2214610a0b57806366573f6114610a1e575f80fd5b806347c1701f116103f157806347c1701f146108b15780634905a13d146109265780634d5c5fd7146109395780634db0412c1461094c5780634ff63845146109615780635183d6f414610974575f80fd5b806340b2527b1461084957806341d6aced1461085c578063423f65a91461086f57806343b3f0341461087857806344089cd11461088b5780634708ee101461089e575f80fd5b80631d068976116104d957806329058f091161049357806329058f09146107d75780632c89f03b146107ea57806331a4bcb5146107fd57806332f39436146108105780633de21ac6146108235780634034230814610836575f80fd5b80631d0689761461072e5780631db6d8c01461074157806321937b46146107545780632248632a1461078157806327e1f7df146107a157806328d2a1b6146107b4575f80fd5b80630ba69a471161052a5780630ba69a471461064b5780630fb5d9e91461069957806310c54da8146106ae57806311d2a079146106ce57806314bfd6d0146106e35780631c8028a21461070e575f80fd5b806241c6291461057057806303926df914610599578063039dbd13146105b957806306b32424146105dc5780630800e300146105fd5780630abba7671461061d575b5f80fd5b61058361057e36600461a7ce565b610fca565b604051610590919061a82f565b60405180910390f35b6105ac6105a736600461a83d565b61103e565b604051610590919061a967565b6105cc6105c736600461a83d565b611282565b6040519015158152602001610590565b6105ef6105ea36600461a7ce565b6113f7565b604051908152602001610590565b61061061060b36600461a83d565b611422565b604051610590919061a979565b6105cc61062b36600461aaf2565b805160208183018101805160068252928201919093012091525460ff1681565b61068261065936600461ab41565b601160209081525f92835260408084209091529082529020805460019091015460ff9091169082565b604080519215158352602083019190915201610590565b6106a16115b6565b604051610590919061ab69565b6106c16106bc36600461a83d565b611630565b604051610590919061ac45565b6106e16106dc36600461acd9565b611840565b005b6106f66106f136600461a83d565b611879565b6040516001600160a01b039091168152602001610590565b61072161071c36600461ad0a565b6118a1565b604051610590919061b0d6565b6106e161073c36600461b0e8565b611982565b6105ef61074f36600461a7ce565b611a41565b6105cc61076236600461a83d565b335f908152601860209081526040808320938352929052205460ff1690565b61079461078f36600461b117565b611a5a565b604051610590919061b15a565b6105cc6107af36600461ad0a565b611a93565b6107c76107c236600461a83d565b611bdc565b604051610590949392919061b16c565b6105ef6107e536600461ab41565b612262565b6105ef6107f836600461b6cc565b61227b565b6106e161080b36600461a7ce565b612ead565b6023546106f6906001600160a01b031681565b6105cc61083136600461b725565b613044565b6105cc61084436600461a7ce565b613165565b6106e161085736600461b74e565b6133c7565b6106c161086a36600461a83d565b61346f565b6105ef60205481565b6105cc61088636600461a83d565b613681565b6105cc61089936600461ad0a565b613735565b6105cc6108ac36600461b962565b613787565b6109186108bf36600461a7ce565b600760209081525f92835260408084208252918352918190208054825160a08101845260018301548152600283015494810194909452600382015492840192909252600481015460608401526005015460808301529082565b60405161059092919061b99b565b6105cc61093436600461a7ce565b61380d565b6022546106f6906001600160a01b031681565b6109546139a6565b604051610590919061b9da565b6105cc61096f36600461ad0a565b613bb4565b6105cc61098236600461ab41565b601860209081525f928352604080842090915290825290205460ff1681565b6105cc6109af36600461ab41565b600260209081525f928352604080842090915290825290205460ff1681565b610721613c07565b6106e16109e436600461ba3d565b613cab565b6109fc6109f736600461b725565b613d2f565b6040516105909392919061bb32565b6105cc610a1936600461bb66565b613e86565b610a31610a2c36600461acd9565b613f08565b604051610590919061bbd0565b610a51610a4c36600461bbe2565b613fd0565b604051610590919061bc1b565b610a71610a6c36600461ab41565b614081565b60408051928352602083019190915201610590565b610a99610a9436600461a83d565b6140b9565b6040516105909695949392919061bc89565b610abe610ab936600461ad0a565b614229565b604051610590919061bd0a565b6105cc610ad936600461ad0a565b614991565b6106c1614a26565b610af9610af436600461a83d565b614c2d565b604051610590919061bd61565b6105ef610b1436600461a83d565b615664565b610b2c610b2736600461a83d565b615683565b604051610590919061bd73565b610b416157ab565b604051610590919061bd85565b6105ef610b5c36600461a83d565b615876565b6106e1610b6f36600461a83d565b615885565b6105ef610b8236600461a7ce565b601460209081525f928352604080842090915290825290205481565b6105cc610bac36600461ad0a565b615c55565b5f546106f6906001600160a01b031681565b6109fc610bd136600461a83d565b615ca7565b6105cc610be436600461b725565b615cc8565b6105cc610bf736600461bd97565b615d42565b6105cc610c0a36600461ad0a565b601a6020525f908152604090205460ff1681565b6105ef610c2c36600461be19565b615dd8565b6109fc610c3f36600461a83d565b61609b565b6105cc610c5236600461be97565b6160bc565b6106e1610c6536600461b117565b6169fa565b6105cc610c7836600461bef8565b616a56565b6106e1610c8b36600461bef8565b616b89565b6105ef601e5481565b6105cc610ca736600461ad0a565b60016020525f908152604090205460ff1681565b6105ef610cc936600461a7ce565b616ca3565b6105ef60215481565b6109fc610ce536600461a83d565b616cbc565b6024546106f6906001600160a01b031681565b6105ef601f5481565b610d19610d1436600461a83d565b616cdd565b604051610590919061bf45565b6105ef610d3436600461a7ce565b617397565b610abe6173b0565b6105ef610d4f36600461a83d565b617b05565b610d92610d6236600461a83d565b600f6020525f9081526040902080546001820154600283015460039093015491926001600160a01b039091169184565b604080519485526001600160a01b039093166020850152918301526060820152608001610590565b6106a1610dc836600461ad0a565b617b14565b6105cc610ddb36600461ad0a565b617b99565b6105ef610dee36600461a7ce565b617beb565b6106e1610e0136600461a83d565b617c04565b6105cc610e1436600461a7ce565b617e77565b610e2c610e2736600461a83d565b61802b565b60405161059098979695949392919061bf57565b6106e1610e4e36600461a83d565b618186565b610abe6183ce565b6105cc610e6936600461bfbe565b618bd4565b6106e1610e7c36600461acd9565b618d28565b6105cc610e8f36600461a83d565b618d5d565b6106e1610ea236600461bd97565b618e0c565b6105cc610eb536600461bff7565b618eef565b610ecd610ec836600461a83d565b618fc7565b604051610590919061c126565b6105cc610ee836600461ab41565b601c60209081525f928352604080842090915290825290205460ff1681565b610f1a610f1536600461c146565b619136565b60405161059092919061c232565b6105ef601d5481565b610794610f3f36600461a83d565b61978a565b610f9a610f5236600461a83d565b6040805180820182525f808252602091820181905233815260118252828120938152928152918190208151808301909252805460ff1615158252600101549181019190915290565b604080518251151581526020928301519281019290925201610590565b6105cc610fc536600461a83d565b619830565b610fd261a4b9565b505f8281526007602090815260408083208484528252918290208251808401845281548152835160a08101855260018301548152600283015481850152600383015494810194909452600482015460608501526005909101546080840152908101919091525b92915050565b5f8181526012602052604081208054606092906001600160401b038111156110685761106861a98b565b6040519080825280602002602001820160405280156110a157816020015b61108e61a4ff565b8152602001906001900390816110865790505b5090505f5b825481101561127a5760135f8483815481106110c4576110c461c255565b5f918252602080832090910154835282810193909352604091820190208151610100810183528154815260018201546001600160a01b03169381019390935260028101805491928401916111179061c269565b80601f01602080910402602001604051908101604052809291908181526020018280546111439061c269565b801561118e5780601f106111655761010080835404028352916020019161118e565b820191905f5260205f20905b81548152906001019060200180831161117157829003601f168201915b505050505081526020016003820180546111a79061c269565b80601f01602080910402602001604051908101604052809291908181526020018280546111d39061c269565b801561121e5780601f106111f55761010080835404028352916020019161121e565b820191905f5260205f20905b81548152906001019060200180831161120157829003601f168201915b5050509183525050600482015460ff166020820152600582015460408201526006820154606082015260079091015460809091015282518390839081106112675761126761c255565b60209081029190910101526001016110a6565b509392505050565b5f80546001600160a01b03163381146112b65760405162461bcd60e51b81526004016112ad9061c29b565b60405180910390fd5b5f5b60175481101561135c5783601782815481106112d6576112d661c255565b905f5260205f2001540361135457601780546112f49060019061c30b565b815481106113045761130461c255565b905f5260205f200154601782815481106113205761132061c255565b5f91825260209091200155601780548061133c5761133c61c31e565b600190038181905f5260205f20015f9055905561135c565b6001016112b8565b505f8381526015602052604081208181559061137b600183018261a54a565b611388600283015f61a54a565b505060245f9054906101000a90046001600160a01b03166001600160a01b0316636f2069f06040518163ffffffff1660e01b81526004015f604051808303815f87803b1580156113d6575f80fd5b505af11580156113e8573d5f803e3d5ffd5b50505050600191505b50919050565b6012602052815f5260405f208181548110611410575f80fd5b905f5260205f20015f91509150505481565b61142a61a4ff565b5f828152601360209081526040918290208251610100810184528154815260018201546001600160a01b03169281019290925260028101805492939192918401916114749061c269565b80601f01602080910402602001604051908101604052809291908181526020018280546114a09061c269565b80156114eb5780601f106114c2576101008083540402835291602001916114eb565b820191905f5260205f20905b8154815290600101906020018083116114ce57829003601f168201915b505050505081526020016003820180546115049061c269565b80601f01602080910402602001604051908101604052809291908181526020018280546115309061c269565b801561157b5780601f106115525761010080835404028352916020019161157b565b820191905f5260205f20905b81548152906001019060200180831161155e57829003601f168201915b5050509183525050600482015460ff166020820152600582015460408201526006820154606082015260079091015460809091015292915050565b335f908152601960209081526040808320805482518185028101850190935280835260609492939192909184015b82821015611627578382905f5260205f2090600202016040518060400160405290815f8201548152602001600182015481525050815260200190600101906115e4565b50505050905090565b5f8181526016602052604081208054606092906001600160401b0381111561165a5761165a61a98b565b6040519080825280602002602001820160405280156116ae57816020015b61169b60405180606001604052805f815260200160608152602001606081525090565b8152602001906001900390816116785790505b5090505f5b825481101561127a5760155f8483815481106116d1576116d161c255565b905f5260205f20015481526020019081526020015f206040518060600160405290815f820154815260200160018201805461170b9061c269565b80601f01602080910402602001604051908101604052809291908181526020018280546117379061c269565b80156117825780601f1061175957610100808354040283529160200191611782565b820191905f5260205f20905b81548152906001019060200180831161176557829003601f168201915b5050505050815260200160028201805461179b9061c269565b80601f01602080910402602001604051908101604052809291908181526020018280546117c79061c269565b80156118125780601f106117e957610100808354040283529160200191611812565b820191905f5260205f20905b8154815290600101906020018083116117f557829003601f168201915b50505050508152505082828151811061182d5761182d61c255565b60209081029190910101526001016116b3565b5f5b81518110156118755761186d8282815181106118605761186061c255565b6020026020010151618186565b600101611842565b5050565b601b8181548110611888575f80fd5b5f918252602090912001546001600160a01b0316905081565b6001600160a01b0381165f908152600b6020526040902054606090806001600160401b038111156118d4576118d461a98b565b60405190808252806020026020018201604052801561190d57816020015b6118fa61a584565b8152602001906001900390816118f25790505b5091505f5b8181101561197b576001600160a01b0384165f908152600b6020526040902080546119569190839081106119485761194861c255565b905f5260205f200154614c2d565b8382815181106119685761196861c255565b6020908102919091010152600101611912565b5050919050565b5f8481526007602090815260408083208684528252918290205482518084019093526011835270125b9d985b1a59081d985c9a585b9d1251607a1b918301919091521515906119d390603390611a5a565b906119f15760405162461bcd60e51b81526004016112ad919061b15a565b505f8481526003602081815260408084204260198201556007835281852088865283529084206005018690558784529190526017018054839290611a3690849061c332565b909155505050505050565b6016602052815f5260405f208181548110611410575f80fd5b60605f611a66846198f7565b90508083604051602001611a7b92919061c35c565b60405160208183030381529060405291505092915050565b5f80546001600160a01b0316338114611abe5760405162461bcd60e51b81526004016112ad9061c29b565b6001600160a01b0383165f908152601a60205260408120805460ff191690555b601b54811015611bd257836001600160a01b0316601b8281548110611b0557611b0561c255565b5f918252602090912001546001600160a01b031603611bca57601b8054611b2e9060019061c30b565b81548110611b3e57611b3e61c255565b5f91825260209091200154601b80546001600160a01b039092169183908110611b6957611b6961c255565b905f5260205f20015f6101000a8154816001600160a01b0302191690836001600160a01b03160217905550601b805480611ba557611ba561c31e565b5f8281526020902081015f1990810180546001600160a01b0319169055019055611bd2565b600101611ade565b5060019392505050565b60036020525f90815260409081902080548251610300810190935260018201805491939182908290611c0d9061c269565b80601f0160208091040260200160405190810160405280929190818152602001828054611c399061c269565b8015611c845780601f10611c5b57610100808354040283529160200191611c84565b820191905f5260205f20905b815481529060010190602001808311611c6757829003601f168201915b5050505050815260200160018201548152602001600282018054611ca79061c269565b80601f0160208091040260200160405190810160405280929190818152602001828054611cd39061c269565b8015611d1e5780601f10611cf557610100808354040283529160200191611d1e565b820191905f5260205f20905b815481529060010190602001808311611d0157829003601f168201915b505050505081526020016003820154815260200160048201548152602001600582015481526020016006820154815260200160078201805480602002602001604051908101604052809291908181526020018280548015611d9c57602002820191905f5260205f20905b815481526020019060010190808311611d88575b5050505050815260200160088201805480602002602001604051908101604052809291908181526020015f905b82821015611e71578382905f5260205f20018054611de69061c269565b80601f0160208091040260200160405190810160405280929190818152602001828054611e129061c269565b8015611e5d5780601f10611e3457610100808354040283529160200191611e5d565b820191905f5260205f20905b815481529060010190602001808311611e4057829003601f168201915b505050505081526020019060010190611dc9565b50505050815260200160098201548152602001600a8201548152602001600b8201805480602002602001604051908101604052809291908181526020015f905b82821015611f59578382905f5260205f20018054611ece9061c269565b80601f0160208091040260200160405190810160405280929190818152602001828054611efa9061c269565b8015611f455780601f10611f1c57610100808354040283529160200191611f45565b820191905f5260205f20905b815481529060010190602001808311611f2857829003601f168201915b505050505081526020019060010190611eb1565b50505090825250600c8201546001600160a01b03166020820152600d82018054604090920191611f889061c269565b80601f0160208091040260200160405190810160405280929190818152602001828054611fb49061c269565b8015611fff5780601f10611fd657610100808354040283529160200191611fff565b820191905f5260205f20905b815481529060010190602001808311611fe257829003601f168201915b50505050508152602001600e820180546120189061c269565b80601f01602080910402602001604051908101604052809291908181526020018280546120449061c269565b801561208f5780601f106120665761010080835404028352916020019161208f565b820191905f5260205f20905b81548152906001019060200180831161207257829003601f168201915b5050509183525050600f82015460ff16151560208083019190915260108301805460408051828502810185018252828152940193925f9084015b82821015612171578382905f5260205f200180546120e69061c269565b80601f01602080910402602001604051908101604052809291908181526020018280546121129061c269565b801561215d5780601f106121345761010080835404028352916020019161215d565b820191905f5260205f20905b81548152906001019060200180831161214057829003601f168201915b5050505050815260200190600101906120c9565b5050505081526020016011820180546121899061c269565b80601f01602080910402602001604051908101604052809291908181526020018280546121b59061c269565b80156122005780601f106121d757610100808354040283529160200191612200565b820191905f5260205f20905b8154815290600101906020018083116121e357829003601f168201915b5050509183525050601282015460208201526013820154604082015260148201546060820152601582015460ff8082161515608084015261010090910416151560a082015260169091015460c090910152601882015460199092015490919084565b600b602052815f5260405f208181548110611410575f80fd5b335f9081526001602052604081205460ff16806122fd57506022546040516359d3202760e11b81523360048201526001600160a01b039091169063b3a6404e90602401602060405180830381865afa1580156122d9573d5f803e3d5ffd5b505050506040513d601f19601f820116820180604052508101906122fd919061c3dc565b61232a60376040518060400160405280601b81526020015f8051602061cb0e833981519152815250611a5a565b906123485760405162461bcd60e51b81526004016112ad919061b15a565b50601d8054905f6123588361c3f7565b9190505550600c5f846020015181526020019081526020015f205f01545f14156123ad60026040518060400160405280601281526020017110d85d1959dbdc9e481b9bdd08199bdd5b9960721b815250611a5a565b906123cb5760405162461bcd60e51b81526004016112ad919061b15a565b506022546101808401516040516359d3202760e11b81526001600160a01b03918216600482015291169063b3a6404e90602401602060405180830381865afa158015612419573d5f803e3d5ffd5b505050506040513d601f19601f8201168201806040525081019061243d919061c3dc565b612475602c604051806040016040528060158152602001742ab9b2b91036bab9ba103132903932ba30b4b632b960591b815250611a5a565b906124935760405162461bcd60e51b81526004016112ad919061b15a565b505f8251116124d2602c60405180604001604052806017815260200176092dcecc2d8d2c840ecc2e4d2c2dce8e640d8cadccee8d604b1b815250611a5a565b906124f05760405162461bcd60e51b81526004016112ad919061b15a565b505f5b82518110156126735761033960828483815181106125135761251361c255565b6020026020010151604001516040015161c350612530919061c40f565b61253a919061c426565b612544919061c426565b8382815181106125565761255661c255565b6020026020010151604001516060015111156125a8602a6040518060400160405280601f81526020017f496e76616c69642072657761726420616e64206d656d62657220707269636500815250611a5a565b906125c65760405162461bcd60e51b81526004016112ad919061b15a565b508281815181106125d9576125d961c255565b602002602001015160400151604001518382815181106125fb576125fb61c255565b602002602001015160400151602001511161264c60256040518060400160405280602081526020017f496e76616c696420766970507269636520616e64206d656d6265725072696365815250611a5a565b9061266a5760405162461bcd60e51b81526004016112ad919061b15a565b506001016124f3565b505f5b8251811015612a955761268761a4b9565b5f6126ae85848151811061269d5761269d61c255565b602002602001015160200151619986565b80835285519091508590849081106126c8576126c861c255565b602090810291909101810151604090810151848301908152601d80545f908152600885528381208054600181810183559183528683200187905591548152600785528381208682528552838120875181559251805192840192909255938101516002830155918201516003820155606082015160048201556080909101516005909101555b85848151811061275f5761275f61c255565b60200260200101516020015151811015612a0557601d545f908152600960209081526040808320858452909152812080546001018155815286518790869081106127ab576127ab61c255565b60200260200101516020015182815181106127c8576127c861c255565b60200260200101516040516020016127e0919061c126565b60405160208183030381529060405280519060200120905086858151811061280a5761280a61c255565b60200260200101516020015182815181106128275761282761c255565b602002602001015160095f601d5481526020019081526020015f205f8581526020019081526020015f2083815481106128625761286261c255565b905f5260205f2090600302015f820151815f0155602082015181600101908161288b919061c489565b50604082015160028201906128a0908261c489565b5050601d545f90815260096020908152604080832087845290915290208054839250849081106128d2576128d261c255565b905f5260205f2090600302015f01819055508685815181106128f6576128f661c255565b60200260200101516020015182815181106129135761291361c255565b6020908102919091018101515f838152600a83526040902081518155918101519091906001820190612945908261c489565b506040820151600282019061295a908261c489565b5050505f818152600a60205260408120829055805b6020808b01515f908152600e90915260409020548110156129d057600e5f8b6020015181526020019081526020015f2081815481106129b0576129b061c255565b905f5260205f20015483036129c857600191506129d0565b60010161296f565b50806129fb576020808a01515f908152600e8252604081208054600181018255908252919020018290555b505060010161274d565b505f5b83811015612a8a578160085f601d5481526020019081526020015f208281548110612a3557612a3561c255565b905f5260205f2001541415612a63603c60405180606001604052806025815260200161cabd60259139611a5a565b90612a815760405162461bcd60e51b81526004016112ad919061b15a565b50600101612a08565b505050600101612676565b505f6040518060800160405280601d5481526020018581526020014281526020014281525090505f846101a00151604051602001612ad3919061b15a565b6040516020818303038152906040529050600681604051612af4919061c543565b9081526040519081900360200190205460ff16612b7a576001600682604051612b1d919061c543565b908152604051908190036020019020805491151560ff19909216919091179055600580546001810182555f919091527f036b6384b5eca791c62761152d0c79bb0604c104a5fb6f4eb0703f3154bb3db001612b78828261c489565b505b601d545f908152600360209081526040909120835181559083015180518492919060018301908190612bac908261c489565b506020820151600182015560408201516002820190612bcb908261c489565b50606082015160038201556080820151600482015560a0820151600582015560c0820151600682015560e08201518051612c0f91600784019160209091019061a5ab565b506101008201518051612c2c91600884019160209091019061a5f0565b506101208201516009820155610140820151600a8201556101608201518051612c5f91600b84019160209091019061a5f0565b50610180820151600c820180546001600160a01b0319166001600160a01b039092169190911790556101a0820151600d820190612c9c908261c489565b506101c0820151600e820190612cb2908261c489565b506101e0820151600f8201805460ff19169115159190911790556102008201518051612ce891601084019160209091019061a5f0565b506102208201516011820190612cfe908261c489565b506102408201516012820155610260820151601382015561028082015160148201556102a08201516015820180546102c085015115156101000261ff00199315159390931661ffff19909116179190911790556102e0909101516016909101556040828101516018830155606090920151601990910155601d805460048054600181810183555f8381527f8a35acfbc15ff81a39ae7d344fd709f28e8600b4aa8c65c6b64bfe7fe36bd19b9092018490556101808b0180516001600160a01b039081168452600b6020908152888520805480860182559086528186200196909655815181168452600286528784208754855290955291869020805460ff1916909117905560225493546101e08b01519151955163371c0fc760e01b815292830152151560248201529281166044840152169063371c0fc7906064015f604051808303815f87803b158015612e50575f80fd5b505af1158015612e62573d5f803e3d5ffd5b505050507fdf8d7db3e0a4789a1ef3a4c2a74f01201dd2560b156ca835ed9bc23cf9b70b2f601d5486604051612e9992919061c54e565b60405180910390a15050601d549392505050565b5f81815260136020526040902054612ed75760405162461bcd60e51b81526004016112ad9061c566565b5f828152601260205260408120905b8154811015612f875782828281548110612f0257612f0261c255565b905f5260205f20015403612f7f5781548290612f209060019061c30b565b81548110612f3057612f3061c255565b905f5260205f200154828281548110612f4b57612f4b61c255565b905f5260205f20018190555081805480612f6757612f6761c31e565b600190038181905f5260205f20015f90559055612f87565b600101612ee6565b505f8281526013602052604081208181556001810180546001600160a01b031916905590612fb8600283018261a54a565b612fc5600383015f61a54a565b506004818101805460ff191690555f60058301819055600683018190556007909201829055602454604080516306f2069f60e41b815290516001600160a01b0390921693636f2069f09382810193919282900301818387803b158015613029575f80fd5b505af115801561303b573d5f803e3d5ffd5b50505050505050565b5f8160018110158015613058575060058111155b6130745760405162461bcd60e51b81526004016112ad9061c5be565b5f848152600f60205260409020546130f55760405162461bcd60e51b815260206004820152604b60248201525f8051602061cb4f83398151915260448201527f223a2032382c20226d657373616765223a2022526174696e6720646f6573206e60648201526a6f7420657869737473227d60a81b608482015260a4016112ad565b335f90815260116020908152604080832088845290915290205460ff1661312e5760405162461bcd60e51b81526004016112ad9061c62e565b50505f918252600f602090815260408084206002018390553384526011825280842094845293905291902060019081019190915590565b5f818152600f60205260408120546131e55760405162461bcd60e51b815260206004820152604a60248201525f8051602061cb4f83398151915260448201527f223a2032382c20226d657373616765223a2022526174696e6720646f6573206e6064820152696f74206578697374227d60b01b608482015260a4016112ad565b5f828152600f60205260409020600101546001600160a01b031633146132865760405162461bcd60e51b815260206004820152605760248201525f8051602061cb4f83398151915260448201527f223a2032392c20226d657373616765223a20224f6e6c7920746865207573657260648201527f2077686f2072617465642063616e2064656c657465227d000000000000000000608482015260a4016112ad565b335f90815260116020908152604080832086845290915290205460ff166132bf5760405162461bcd60e51b81526004016112ad9061c62e565b5f828152600f60209081526040808320838155600180820180546001600160a01b0319169055600282018590556003909101849055338452601183528184208785528352818420805460ff191681550183905560109091528120905b81548110156133bc57838282815481106133375761333761c255565b905f5260205f200154036133b457815482906133559060019061c30b565b815481106133655761336561c255565b905f5260205f2001548282815481106133805761338061c255565b905f5260205f2001819055508180548061339c5761339c61c31e565b600190038181905f5260205f20015f905590556133bc565b60010161331b565b506001949350505050565b335f9081526001602052604090205460ff166133f55760405162461bcd60e51b81526004016112ad9061c678565b5f5b815181101561346a57613462838383815181106134165761341661c255565b60200260200101515f01518484815181106134335761343361c255565b6020026020010151602001518585815181106134515761345161c255565b602002602001015160400151619a0c565b6001016133f7565b505050565b5f818152600e6020526040902054606090806001600160401b038111156134985761349861a98b565b6040519080825280602002602001820160405280156134e157816020015b60408051606080820183525f825260208083018290529282015282525f199092019101816134b65790505b5091505f5b8181101561197b575f848152600e602052604081208054600a929190849081106135125761351261c255565b905f5260205f20015481526020019081526020015f206040518060600160405290815f820154815260200160018201805461354c9061c269565b80601f01602080910402602001604051908101604052809291908181526020018280546135789061c269565b80156135c35780601f1061359a576101008083540402835291602001916135c3565b820191905f5260205f20905b8154815290600101906020018083116135a657829003601f168201915b505050505081526020016002820180546135dc9061c269565b80601f01602080910402602001604051908101604052809291908181526020018280546136089061c269565b80156136535780601f1061362a57610100808354040283529160200191613653565b820191905f5260205f20905b81548152906001019060200180831161363657829003601f168201915b50505050508152505083828151811061366e5761366e61c255565b60209081029190910101526001016134e6565b335f908152601a602052604081205460ff166136af5760405162461bcd60e51b81526004016112ad9061c6d7565b5f82815260036020526040902054158015906136e157505f82815260036020526040902060160154610100900460ff16155b613704601b6040518060600160405280602c815260200161cae2602c9139611a5a565b906137225760405162461bcd60e51b81526004016112ad919061b15a565b5061372c82619a72565b5060015b919050565b5f80546001600160a01b03163381146137605760405162461bcd60e51b81526004016112ad9061c29b565b602380546001600160a01b0385166001600160a01b03199091161790556001915050919050565b335f9081526001602052604081205460ff166137b55760405162461bcd60e51b81526004016112ad9061c678565b5f5b8251811015611bd257613804848483815181106137d6576137d661c255565b60200260200101515f01518584815181106137f3576137f361c255565b602002602001015160200151619df5565b506001016137b7565b5f8181526015602052604081205461385c5760405162461bcd60e51b815260206004820152601260248201527111905448191bd95cc81b9bdd08195e1a5cdd60721b60448201526064016112ad565b5f838152601660205260408120905b815481101561390c57838282815481106138875761388761c255565b905f5260205f2001540361390457815482906138a59060019061c30b565b815481106138b5576138b561c255565b905f5260205f2001548282815481106138d0576138d061c255565b905f5260205f200181905550818054806138ec576138ec61c31e565b600190038181905f5260205f20015f9055905561390c565b60010161386b565b505f8381526015602052604081208181559061392b600183018261a54a565b613938600283015f61a54a565b505060245f9054906101000a90046001600160a01b03166001600160a01b0316636f2069f06040518163ffffffff1660e01b81526004015f604051808303815f87803b158015613986575f80fd5b505af1158015613998573d5f803e3d5ffd5b506001979650505050505050565b600d8054606091905f906001600160401b038111156139c7576139c761a98b565b604051908082528060200260200182016040528015613a1b57816020015b613a0860405180606001604052805f815260200160608152602001606081525090565b8152602001906001900390816139e55790505b5090505f5b8254811015613bad57600c5f848381548110613a3e57613a3e61c255565b905f5260205f20015481526020019081526020015f206040518060600160405290815f8201548152602001600182018054613a789061c269565b80601f0160208091040260200160405190810160405280929190818152602001828054613aa49061c269565b8015613aef5780601f10613ac657610100808354040283529160200191613aef565b820191905f5260205f20905b815481529060010190602001808311613ad257829003601f168201915b50505050508152602001600282018054613b089061c269565b80601f0160208091040260200160405190810160405280929190818152602001828054613b349061c269565b8015613b7f5780601f10613b5657610100808354040283529160200191613b7f565b820191905f5260205f20905b815481529060010190602001808311613b6257829003601f168201915b505050505081525050828281518110613b9a57613b9a61c255565b6020908102919091010152600101613a20565b5092915050565b5f80546001600160a01b0316338114613bdf5760405162461bcd60e51b81526004016112ad9061c29b565b50506001600160a01b03165f908152600160208190526040909120805460ff19168217905590565b600454606090806001600160401b03811115613c2557613c2561a98b565b604051908082528060200260200182016040528015613c5e57816020015b613c4b61a584565b815260200190600190039081613c435790505b5091505f5b81811015613ca657613c81600482815481106119485761194861c255565b838281518110613c9357613c9361c255565b6020908102919091010152600101613c63565b505090565b335f9081526001602052604090205460ff16613cd95760405162461bcd60e51b81526004016112ad9061c678565b5f5b815181101561346a57613d27828281518110613cf957613cf961c255565b60200260200101515f0151838381518110613d1657613d1661c255565b6020026020010151602001516169fa565b600101613cdb565b6009602052825f5260405f20602052815f5260405f208181548110613d52575f80fd5b905f5260205f2090600302015f925092505050805f015490806001018054613d799061c269565b80601f0160208091040260200160405190810160405280929190818152602001828054613da59061c269565b8015613df05780601f10613dc757610100808354040283529160200191613df0565b820191905f5260205f20905b815481529060010190602001808311613dd357829003601f168201915b505050505090806002018054613e059061c269565b80601f0160208091040260200160405190810160405280929190818152602001828054613e319061c269565b8015613e7c5780601f10613e5357610100808354040283529160200191613e7c565b820191905f5260205f20905b815481529060010190602001808311613e5f57829003601f168201915b5050505050905083565b5f80546001600160a01b0316338114613eb15760405162461bcd60e51b81526004016112ad9061c29b565b5f5b8351811015611bd257613eff848281518110613ed157613ed161c255565b60200260200101515f0151858381518110613eee57613eee61c255565b602002602001015160200151616a56565b50600101613eb3565b60605f82516001600160401b03811115613f2457613f2461a98b565b604051908082528060200260200182016040528015613f4d578160200160208202803683370190505b5090505f5b8351811015613bad5760035f858381518110613f7057613f7061c255565b602002602001015181526020019081526020015f20600101600c015f9054906101000a90046001600160a01b0316828281518110613fb057613fb061c255565b6001600160a01b0390921660209283029190910190910152600101613f52565b606081516001600160401b03811115613feb57613feb61a98b565b604051908082528060200260200182016040528015614014578160200160208202803683370190505b5090505f5b8251811015613bad5760145f8581526020019081526020015f205f8483815181106140465761404661c255565b602002602001015181526020019081526020015f205482828151811061406e5761406e61c255565b6020908102919091010152600101614019565b6019602052815f5260405f20818154811061409a575f80fd5b5f91825260209091206002909102018054600190910154909250905082565b6060806060806060806140cb8761103e565b5f88815260126020908152604091829020805483518184028101840190945280845293995061412e938b939283018282801561412457602002820191905f5260205f20905b815481526020019060010190808311614110575b5050505050613fd0565b905061413987615683565b945061414487611630565b60248054604051631c3a394f60e21b8152600481018b90529296506001600160a01b0316916370e8e53c91015f60405180830381865afa15801561418a573d5f803e3d5ffd5b505050506040513d5f823e601f3d908101601f191682016040526141b1919081019061c733565b6024805460405163032fd98560e41b8152600481018b90529295506001600160a01b0316916332fd985091015f60405180830381865afa1580156141f7573d5f803e3d5ffd5b505050506040513d5f823e601f3d908101601f1916820160405261421e919081019061c733565b915091939550919395565b6001600160a01b0381165f908152600b602052604081208054606092906001600160401b0381111561425d5761425d61a98b565b60405190808252806020026020018201604052801561429657816020015b61428361a640565b81526020019060019003908161427b5790505b5090505f5b825481101561127a5760035f8483815481106142b9576142b961c255565b905f5260205f20015481526020019081526020015f206040518060800160405290815f820154815260200160018201604051806103000160405290815f820180546143039061c269565b80601f016020809104026020016040519081016040528092919081815260200182805461432f9061c269565b801561437a5780601f106143515761010080835404028352916020019161437a565b820191905f5260205f20905b81548152906001019060200180831161435d57829003601f168201915b505050505081526020016001820154815260200160028201805461439d9061c269565b80601f01602080910402602001604051908101604052809291908181526020018280546143c99061c269565b80156144145780601f106143eb57610100808354040283529160200191614414565b820191905f5260205f20905b8154815290600101906020018083116143f757829003601f168201915b50505050508152602001600382015481526020016004820154815260200160058201548152602001600682015481526020016007820180548060200260200160405190810160405280929190818152602001828054801561449257602002820191905f5260205f20905b81548152602001906001019080831161447e575b5050505050815260200160088201805480602002602001604051908101604052809291908181526020015f905b82821015614567578382905f5260205f200180546144dc9061c269565b80601f01602080910402602001604051908101604052809291908181526020018280546145089061c269565b80156145535780601f1061452a57610100808354040283529160200191614553565b820191905f5260205f20905b81548152906001019060200180831161453657829003601f168201915b5050505050815260200190600101906144bf565b50505050815260200160098201548152602001600a8201548152602001600b8201805480602002602001604051908101604052809291908181526020015f905b8282101561464f578382905f5260205f200180546145c49061c269565b80601f01602080910402602001604051908101604052809291908181526020018280546145f09061c269565b801561463b5780601f106146125761010080835404028352916020019161463b565b820191905f5260205f20905b81548152906001019060200180831161461e57829003601f168201915b5050505050815260200190600101906145a7565b50505090825250600c8201546001600160a01b03166020820152600d8201805460409092019161467e9061c269565b80601f01602080910402602001604051908101604052809291908181526020018280546146aa9061c269565b80156146f55780601f106146cc576101008083540402835291602001916146f5565b820191905f5260205f20905b8154815290600101906020018083116146d857829003601f168201915b50505050508152602001600e8201805461470e9061c269565b80601f016020809104026020016040519081016040528092919081815260200182805461473a9061c269565b80156147855780601f1061475c57610100808354040283529160200191614785565b820191905f5260205f20905b81548152906001019060200180831161476857829003601f168201915b5050509183525050600f82015460ff16151560208083019190915260108301805460408051828502810185018252828152940193925f9084015b82821015614867578382905f5260205f200180546147dc9061c269565b80601f01602080910402602001604051908101604052809291908181526020018280546148089061c269565b80156148535780601f1061482a57610100808354040283529160200191614853565b820191905f5260205f20905b81548152906001019060200180831161483657829003601f168201915b5050505050815260200190600101906147bf565b50505050815260200160118201805461487f9061c269565b80601f01602080910402602001604051908101604052809291908181526020018280546148ab9061c269565b80156148f65780601f106148cd576101008083540402835291602001916148f6565b820191905f5260205f20905b8154815290600101906020018083116148d957829003601f168201915b50505091835250506012820154602080830191909152601383015460408084019190915260148401546060840152601584015460ff8082161515608086015261010090910416151560a084015260169093015460c090920191909152918352601884015491830191909152601990920154910152825183908390811061497e5761497e61c255565b602090810291909101015260010161429b565b5f80546001600160a01b03163381146149bc5760405162461bcd60e51b81526004016112ad9061c29b565b50506001600160a01b03165f818152601a60205260408120805460ff19166001908117909155601b8054808301825592527f3ad8aa4f87544323a9d1e5dd902f40c356527a7955687113db5f9a85ad579dc190910180546001600160a01b03191690921790915590565b6017546060905f906001600160401b03811115614a4557614a4561a98b565b604051908082528060200260200182016040528015614a9957816020015b614a8660405180606001604052805f815260200160608152602001606081525090565b815260200190600190039081614a635790505b5090505f5b6017548110156113f15760155f60178381548110614abe57614abe61c255565b905f5260205f20015481526020019081526020015f206040518060600160405290815f8201548152602001600182018054614af89061c269565b80601f0160208091040260200160405190810160405280929190818152602001828054614b249061c269565b8015614b6f5780601f10614b4657610100808354040283529160200191614b6f565b820191905f5260205f20905b815481529060010190602001808311614b5257829003601f168201915b50505050508152602001600282018054614b889061c269565b80601f0160208091040260200160405190810160405280929190818152602001828054614bb49061c269565b8015614bff5780601f10614bd657610100808354040283529160200191614bff565b820191905f5260205f20905b815481529060010190602001808311614be257829003601f168201915b505050505081525050828281518110614c1a57614c1a61c255565b6020908102919091010152600101614a9e565b614c3561a584565b5f60035f8481526020019081526020015f206040518060800160405290815f820154815260200160018201604051806103000160405290815f82018054614c7b9061c269565b80601f0160208091040260200160405190810160405280929190818152602001828054614ca79061c269565b8015614cf25780601f10614cc957610100808354040283529160200191614cf2565b820191905f5260205f20905b815481529060010190602001808311614cd557829003601f168201915b5050505050815260200160018201548152602001600282018054614d159061c269565b80601f0160208091040260200160405190810160405280929190818152602001828054614d419061c269565b8015614d8c5780601f10614d6357610100808354040283529160200191614d8c565b820191905f5260205f20905b815481529060010190602001808311614d6f57829003601f168201915b505050505081526020016003820154815260200160048201548152602001600582015481526020016006820154815260200160078201805480602002602001604051908101604052809291908181526020018280548015614e0a57602002820191905f5260205f20905b815481526020019060010190808311614df6575b5050505050815260200160088201805480602002602001604051908101604052809291908181526020015f905b82821015614edf578382905f5260205f20018054614e549061c269565b80601f0160208091040260200160405190810160405280929190818152602001828054614e809061c269565b8015614ecb5780601f10614ea257610100808354040283529160200191614ecb565b820191905f5260205f20905b815481529060010190602001808311614eae57829003601f168201915b505050505081526020019060010190614e37565b50505050815260200160098201548152602001600a8201548152602001600b8201805480602002602001604051908101604052809291908181526020015f905b82821015614fc7578382905f5260205f20018054614f3c9061c269565b80601f0160208091040260200160405190810160405280929190818152602001828054614f689061c269565b8015614fb35780601f10614f8a57610100808354040283529160200191614fb3565b820191905f5260205f20905b815481529060010190602001808311614f9657829003601f168201915b505050505081526020019060010190614f1f565b50505090825250600c8201546001600160a01b03166020820152600d82018054604090920191614ff69061c269565b80601f01602080910402602001604051908101604052809291908181526020018280546150229061c269565b801561506d5780601f106150445761010080835404028352916020019161506d565b820191905f5260205f20905b81548152906001019060200180831161505057829003601f168201915b50505050508152602001600e820180546150869061c269565b80601f01602080910402602001604051908101604052809291908181526020018280546150b29061c269565b80156150fd5780601f106150d4576101008083540402835291602001916150fd565b820191905f5260205f20905b8154815290600101906020018083116150e057829003601f168201915b5050509183525050600f82015460ff16151560208083019190915260108301805460408051828502810185018252828152940193925f9084015b828210156151df578382905f5260205f200180546151549061c269565b80601f01602080910402602001604051908101604052809291908181526020018280546151809061c269565b80156151cb5780601f106151a2576101008083540402835291602001916151cb565b820191905f5260205f20905b8154815290600101906020018083116151ae57829003601f168201915b505050505081526020019060010190615137565b5050505081526020016011820180546151f79061c269565b80601f01602080910402602001604051908101604052809291908181526020018280546152239061c269565b801561526e5780601f106152455761010080835404028352916020019161526e565b820191905f5260205f20905b81548152906001019060200180831161525157829003601f168201915b50505091835250506012820154602080830191909152601383015460408084019190915260148401546060840152601584015460ff8082161515608086015261010090910416151560a084015260169093015460c090920191909152918352601884015483830152601990930154918301919091525f8681526008825282812080548451818502810185019095528085529495509093909183018282801561533357602002820191905f5260205f20905b81548152602001906001019080831161531f575b505050505090505f815190505f816001600160401b038111156153585761535861a98b565b60405190808252806020026020018201604052801561539157816020015b61537e61a4b9565b8152602001906001900390816153765790505b5090505f826001600160401b038111156153ad576153ad61a98b565b6040519080825280602002602001820160405280156153e057816020015b60608152602001906001900390816153cb5790505b5090505f5b83811015615641575f8582815181106154005761540061c255565b6020908102919091018101515f8b81526007835260408082208383528452908190208151808301835281548152825160a081018452600183015481526002830154818701526003830154938101939093526004820154606084015260059091015460808301529283015285519092508590849081106154815761548161c255565b6020908102919091018101919091525f8a815260098252604080822084835283528082208054825181860281018601909352808352919390929084015b82821015615617578382905f5260205f2090600302016040518060600160405290815f82015481526020016001820180546154f89061c269565b80601f01602080910402602001604051908101604052809291908181526020018280546155249061c269565b801561556f5780601f106155465761010080835404028352916020019161556f565b820191905f5260205f20905b81548152906001019060200180831161555257829003601f168201915b505050505081526020016002820180546155889061c269565b80601f01602080910402602001604051908101604052809291908181526020018280546155b49061c269565b80156155ff5780601f106155d6576101008083540402835291602001916155ff565b820191905f5260205f20905b8154815290600101906020018083116155e257829003601f168201915b505050505081525050815260200190600101906154be565b5050505083838151811061562d5761562d61c255565b6020908102919091010152506001016153e5565b506040805160608101825295865260208601929092529084015250909392505050565b60048181548110615673575f80fd5b5f91825260209091200154905081565b5f8181526010602052604081208054606092906001600160401b038111156156ad576156ad61a98b565b60405190808252806020026020018201604052801561570e57816020015b6156fb60405180608001604052805f81526020015f6001600160a01b031681526020015f81526020015f81525090565b8152602001906001900390816156cb5790505b5090505f5b825481101561127a57600f5f8483815481106157315761573161c255565b5f9182526020808320909101548352828101939093526040918201902081516080810183528154815260018201546001600160a01b03169381019390935260028101549183019190915260030154606082015282518390839081106157985761579861c255565b6020908102919091010152600101615713565b60606005805480602002602001604051908101604052809291908181526020015f905b82821015611627578382905f5260205f200180546157eb9061c269565b80601f01602080910402602001604051908101604052809291908181526020018280546158179061c269565b80156158625780601f1061583957610100808354040283529160200191615862565b820191905f5260205f20905b81548152906001019060200180831161584557829003601f168201915b5050505050815260200190600101906157ce565b60178181548110615673575f80fd5b5f61588f82616cdd565b335f90815260186020908152604080832086845290915290205490915060ff1661592a5760405162461bcd60e51b815260206004820152605360248201525f8051602061cb4f83398151915260448201527f223a2032312c20226d657373616765223a202275736572206e6f74206661766f6064820152727269746520746869732070726f64756374227d60681b608482015260a4016112ad565b335f9081526018602090815260408083208584529091528120805460ff19169055805b335f9081526019602052604090205460ff82161015615a8657335f908152601960205260409020805485919060ff841690811061598c5761598c61c255565b905f5260205f2090600202015f015403615a7457335f90815260196020526040902080546159bc9060019061c30b565b815481106159cc576159cc61c255565b905f5260205f20906002020160195f336001600160a01b03166001600160a01b031681526020019081526020015f208260ff1681548110615a0f57615a0f61c255565b5f918252602080832084546002909302019182556001938401549390910192909255338152601990915260409020805480615a4c57615a4c61c31e565b5f8281526020812060025f199093019283020181815560019081019190915591559150615a86565b80615a7e8161c7b9565b91505061594d565b506024805460405163d24043cb60e01b81523360048201529182018590525f6044830152600160648301526001600160a01b03169063d24043cb906084015f604051808303815f87803b158015615adb575f80fd5b505af1158015615aed573d5f803e3d5ffd5b50506024546001600160a01b0316915063d24043cb90503385615b0f81616cdd565b6020015161018001516040516001600160e01b031960e086901b1681526001600160a01b03938416600482015260248101929092529190911660448201525f60648201526084015f604051808303815f87803b158015615b6d575f80fd5b505af1158015615b7f573d5f803e3d5ffd5b5050602480546020860151610180015160405163c0a2277160e01b81526001600160a01b0391821660048201529116935063c0a227719250015f604051808303815f87803b158015615bcf575f80fd5b505af1158015615be1573d5f803e3d5ffd5b505050508061346a5760405162461bcd60e51b815260206004820152604760248201525f8051602061cb4f83398151915260448201527f223a2032342c20226d657373616765223a20226661766f72697465206e6f7420606482015266666f756e64227d60c81b608482015260a4016112ad565b5f80546001600160a01b0316338114615c805760405162461bcd60e51b81526004016112ad9061c29b565b602480546001600160a01b0385166001600160a01b03199091161790556001915050919050565b60156020525f908152604090208054600182018054919291613d799061c269565b5f8160018110158015615cdc575060058111155b615cf85760405162461bcd60e51b81526004016112ad9061c5be565b5f85815260036020526040902054615d225760405162461bcd60e51b81526004016112ad9061c7d7565b50505f928352601460209081526040808520938552929052912055600190565b5f80546001600160a01b0316338114615d6d5760405162461bcd60e51b81526004016112ad9061c29b565b5f85815260156020526040902054615d975760405162461bcd60e51b81526004016112ad9061c82f565b5f858152601560205260409020600201615db1848261c489565b505f858152601560205260409020600101615dcc858261c489565b50600195945050505050565b5f84815260036020526040812054615e025760405162461bcd60e51b81526004016112ad9061c7d7565b60208054905f615e118361c3f7565b91905055505f6040518061010001604052806020548152602001336001600160a01b03168152602001848152602001858152602001866001811115615e5857615e5861c883565b60ff16815242602080830182905260408084019290925260609092018990525f8981526012835281812083548154600180820184559284528584200155835482526013845290829020845181559284015190830180546001600160a01b0319166001600160a01b0390921691909117905582015191925082916002820190615ee0908261c489565b5060608201516003820190615ef5908261c489565b50608082015160048201805460ff191660ff90921691909117905560a0820151600582015560c0820151600682015560e0909101516007909101556040805160028082526060820183525f926020830190803683375050505f888152600360205260408120600d015482519293506001600160a01b031691839190615f7c57615f7c61c255565b6001600160a01b0392831660209182029290920101525f54825191169082906001908110615fac57615fac61c255565b6001600160a01b03928316602091820292909201810191909152602254604080518084018c9052815180820390940184528082019182905263bd0f8cbf60e01b90915292169163bd0f8cbf91616008915f90869060440161c897565b5f604051808303815f87803b15801561601f575f80fd5b505af1158015616031573d5f803e3d5ffd5b50506024546040805163f857d61760e01b815290516001600160a01b03909216945063f857d6179350600480820193505f929182900301818387803b158015616078575f80fd5b505af115801561608a573d5f803e3d5ffd5b505060205498975050505050505050565b600c6020525f908152604090208054600182018054919291613d799061c269565b335f9081526001602052604081205460ff168061613e57506022546040516359d3202760e11b81523360048201526001600160a01b039091169063b3a6404e90602401602060405180830381865afa15801561611a573d5f803e3d5ffd5b505050506040513d601f19601f8201168201806040525081019061613e919061c3dc565b61616b60376040518060400160405280601b81526020015f8051602061cb0e833981519152815250611a5a565b906161895760405162461bcd60e51b81526004016112ad919061b15a565b5060035f8581526020019081526020015f205f01545f14156161d5600260405180604001604052806011815260200170141c9bd91d58dd081b9bdd08199bdd5b99607a1b815250611a5a565b906161f35760405162461bcd60e51b81526004016112ad919061b15a565b506101808301516001600160a01b03165f90815260026020908152604080832087845282529182902054825160608101909352603180845260ff9091169261624592602c929061ca8c90830139611a5a565b906162635760405162461bcd60e51b81526004016112ad919061b15a565b50600c5f846020015181526020019081526020015f205f01545f14156162b460026040518060400160405280601281526020017110d85d1959dbdc9e481b9bdd08199bdd5b9960721b815250611a5a565b906162d25760405162461bcd60e51b81526004016112ad919061b15a565b505f825111616311602c60405180604001604052806017815260200176092dcecc2d8d2c840ecc2e4d2c2dce8e640d8cadccee8d604b1b815250611a5a565b9061632f5760405162461bcd60e51b81526004016112ad919061b15a565b505f848152600860205260408120905b81548110156163f85760075f8781526020019081526020015f205f83838154811061636c5761636c61c255565b5f91825260208083209091015483528281019390935260409182018120818155600181018290556002810182905560038101829055600481018290556005018190558881526009909252812083549091908490849081106163cf576163cf61c255565b905f5260205f20015481526020019081526020015f205f6163f0919061a71b565b60010161633f565b505f85815260086020526040812061640f9161a739565b5f5b83518110156167cb5761033960828583815181106164315761643161c255565b6020026020010151604001516040015161c35061644e919061c40f565b616458919061c426565b616462919061c426565b8482815181106164745761647461c255565b6020026020010151604001516060015111156164c6602a6040518060400160405280601f81526020017f496e76616c69642072657761726420616e64206d656d62657220707269636500815250611a5a565b906164e45760405162461bcd60e51b81526004016112ad919061b15a565b508381815181106164f7576164f761c255565b602002602001015160400151604001518482815181106165195761651961c255565b602002602001015160400151602001511161656a60256040518060400160405280602081526020017f496e76616c696420766970507269636520616e64206d656d6265725072696365815250611a5a565b906165885760405162461bcd60e51b81526004016112ad919061b15a565b5061659161a4b9565b5f6165a786848151811061269d5761269d61c255565b80835286519091508690849081106165c1576165c161c255565b6020908102919091018101516040908101518483019081525f8b815260088452828120805460018181018355918352858320018690558c8252600785528382208683528552838220875181559251805191840191909155938401516002830155918301516003820155606083015160048201556080909201516005909201919091555b8684815181106166565761665661c255565b6020026020010151602001515181101561673e575f8981526009602090815260408083208584529091528120805460010181559052865187908590811061669f5761669f61c255565b60200260200101516020015181815181106166bc576166bc61c255565b602002602001015160095f8b81526020019081526020015f205f8481526020019081526020015f2082815481106166f5576166f561c255565b905f5260205f2090600302015f820151815f0155602082015181600101908161671e919061c489565b5060408201516002820190616733908261c489565b505050600101616644565b505f5b838110156167c0575f89815260086020526040902080548391908390811061676b5761676b61c255565b905f5260205f2001541415616799603c60405180606001604052806025815260200161cabd60259139611a5a565b906167b75760405162461bcd60e51b81526004016112ad919061b15a565b50600101616741565b505050600101616411565b505f858152600360205260409020845185916001019081906167ed908261c489565b50602082015160018201556040820151600282019061680c908261c489565b50606082015160038201556080820151600482015560a0820151600582015560c0820151600682015560e0820151805161685091600784019160209091019061a5ab565b50610100820151805161686d91600884019160209091019061a5f0565b506101208201516009820155610140820151600a82015561016082015180516168a091600b84019160209091019061a5f0565b50610180820151600c820180546001600160a01b0319166001600160a01b039092169190911790556101a0820151600d8201906168dd908261c489565b506101c0820151600e8201906168f3908261c489565b506101e0820151600f8201805460ff1916911515919091179055610200820151805161692991601084019160209091019061a5f0565b50610220820151601182019061693f908261c489565b506102408201516012820155610260820151601382015561028082015160148201556102a08201516015820180546102c085015115156101000261ff00199315159390931661ffff19909116179190911790556102e0909101516016909101555f858152600360205260409081902042601990910155517f759e0111d0d20a9c64ad00266049785b63bdcee61d9b7a91a41a44c05584b062906169e5908790879061c54e565b60405180910390a160019150505b9392505050565b5f82815260136020526040902054616a245760405162461bcd60e51b81526004016112ad9061c566565b5f828152601360205260409020600301616a3e828261c489565b50505f90815260136020526040902042600690910155565b5f80546001600160a01b0316338114616a815760405162461bcd60e51b81526004016112ad9061c29b565b60218054905f616a908361c3f7565b90915550506040805160608101825260215480825260208083018881528385018890525f9283526015909152929020815181559151909182916001820190616ad8908261c489565b5060408201516002820190616aed908261c489565b5050602154601780546001810182555f9182527fc624b66cc0138b8fabc209247f72d758e1cf3343756d543badbf24212bed8c1501919091556024546040805163f857d61760e01b815290516001600160a01b03909216935063f857d61792600480830193919282900301818387803b158015616b68575f80fd5b505af1158015616b7a573d5f803e3d5ffd5b50600198975050505050505050565b335f908152601a602052604090205460ff16616bb75760405162461bcd60e51b81526004016112ad9061c6d7565b601e8054905f616bc68361c3f7565b909155505060408051606081018252601e548082526020808301868152838501869052600d805460018181019092557fd7b6990105719101dabeb77144f2a3385c8033acd3af97e9423a695e81ad1eb5018490555f938452600c90925293909120825181559251919283929091820190616c40908261c489565b5060408201516002820190616c55908261c489565b509050507f2e32d71b46d3c2122bc71deb4b78790fc542d8baaf5b0c79d4506640a0e4fa7f601e5482602001518360400151604051616c969392919061bb32565b60405180910390a1505050565b6008602052815f5260405f208181548110611410575f80fd5b600a6020525f908152604090208054600182018054919291613d799061c269565b616ce561a640565b60035f8381526020019081526020015f206040518060800160405290815f820154815260200160018201604051806103000160405290815f82018054616d2a9061c269565b80601f0160208091040260200160405190810160405280929190818152602001828054616d569061c269565b8015616da15780601f10616d7857610100808354040283529160200191616da1565b820191905f5260205f20905b815481529060010190602001808311616d8457829003601f168201915b5050505050815260200160018201548152602001600282018054616dc49061c269565b80601f0160208091040260200160405190810160405280929190818152602001828054616df09061c269565b8015616e3b5780601f10616e1257610100808354040283529160200191616e3b565b820191905f5260205f20905b815481529060010190602001808311616e1e57829003601f168201915b505050505081526020016003820154815260200160048201548152602001600582015481526020016006820154815260200160078201805480602002602001604051908101604052809291908181526020018280548015616eb957602002820191905f5260205f20905b815481526020019060010190808311616ea5575b5050505050815260200160088201805480602002602001604051908101604052809291908181526020015f905b82821015616f8e578382905f5260205f20018054616f039061c269565b80601f0160208091040260200160405190810160405280929190818152602001828054616f2f9061c269565b8015616f7a5780601f10616f5157610100808354040283529160200191616f7a565b820191905f5260205f20905b815481529060010190602001808311616f5d57829003601f168201915b505050505081526020019060010190616ee6565b50505050815260200160098201548152602001600a8201548152602001600b8201805480602002602001604051908101604052809291908181526020015f905b82821015617076578382905f5260205f20018054616feb9061c269565b80601f01602080910402602001604051908101604052809291908181526020018280546170179061c269565b80156170625780601f1061703957610100808354040283529160200191617062565b820191905f5260205f20905b81548152906001019060200180831161704557829003601f168201915b505050505081526020019060010190616fce565b50505090825250600c8201546001600160a01b03166020820152600d820180546040909201916170a59061c269565b80601f01602080910402602001604051908101604052809291908181526020018280546170d19061c269565b801561711c5780601f106170f35761010080835404028352916020019161711c565b820191905f5260205f20905b8154815290600101906020018083116170ff57829003601f168201915b50505050508152602001600e820180546171359061c269565b80601f01602080910402602001604051908101604052809291908181526020018280546171619061c269565b80156171ac5780601f10617183576101008083540402835291602001916171ac565b820191905f5260205f20905b81548152906001019060200180831161718f57829003601f168201915b5050509183525050600f82015460ff16151560208083019190915260108301805460408051828502810185018252828152940193925f9084015b8282101561728e578382905f5260205f200180546172039061c269565b80601f016020809104026020016040519081016040528092919081815260200182805461722f9061c269565b801561727a5780601f106172515761010080835404028352916020019161727a565b820191905f5260205f20905b81548152906001019060200180831161725d57829003601f168201915b5050505050815260200190600101906171e6565b5050505081526020016011820180546172a69061c269565b80601f01602080910402602001604051908101604052809291908181526020018280546172d29061c269565b801561731d5780601f106172f45761010080835404028352916020019161731d565b820191905f5260205f20905b81548152906001019060200180831161730057829003601f168201915b50505091835250506012820154602080830191909152601383015460408084019190915260148401546060840152601584015460ff8082161515608086015261010090910416151560a084015260169093015460c09092019190915291835260188401549183019190915260199092015491015292915050565b6010602052815f5260405f208181548110611410575f80fd5b60048054606091905f906001600160401b038111156173d1576173d161a98b565b60405190808252806020026020018201604052801561740a57816020015b6173f761a640565b8152602001906001900390816173ef5790505b5090505f5b8254811015613bad5760035f84838154811061742d5761742d61c255565b905f5260205f20015481526020019081526020015f206040518060800160405290815f820154815260200160018201604051806103000160405290815f820180546174779061c269565b80601f01602080910402602001604051908101604052809291908181526020018280546174a39061c269565b80156174ee5780601f106174c5576101008083540402835291602001916174ee565b820191905f5260205f20905b8154815290600101906020018083116174d157829003601f168201915b50505050508152602001600182015481526020016002820180546175119061c269565b80601f016020809104026020016040519081016040528092919081815260200182805461753d9061c269565b80156175885780601f1061755f57610100808354040283529160200191617588565b820191905f5260205f20905b81548152906001019060200180831161756b57829003601f168201915b50505050508152602001600382015481526020016004820154815260200160058201548152602001600682015481526020016007820180548060200260200160405190810160405280929190818152602001828054801561760657602002820191905f5260205f20905b8154815260200190600101908083116175f2575b5050505050815260200160088201805480602002602001604051908101604052809291908181526020015f905b828210156176db578382905f5260205f200180546176509061c269565b80601f016020809104026020016040519081016040528092919081815260200182805461767c9061c269565b80156176c75780601f1061769e576101008083540402835291602001916176c7565b820191905f5260205f20905b8154815290600101906020018083116176aa57829003601f168201915b505050505081526020019060010190617633565b50505050815260200160098201548152602001600a8201548152602001600b8201805480602002602001604051908101604052809291908181526020015f905b828210156177c3578382905f5260205f200180546177389061c269565b80601f01602080910402602001604051908101604052809291908181526020018280546177649061c269565b80156177af5780601f10617786576101008083540402835291602001916177af565b820191905f5260205f20905b81548152906001019060200180831161779257829003601f168201915b50505050508152602001906001019061771b565b50505090825250600c8201546001600160a01b03166020820152600d820180546040909201916177f29061c269565b80601f016020809104026020016040519081016040528092919081815260200182805461781e9061c269565b80156178695780601f1061784057610100808354040283529160200191617869565b820191905f5260205f20905b81548152906001019060200180831161784c57829003601f168201915b50505050508152602001600e820180546178829061c269565b80601f01602080910402602001604051908101604052809291908181526020018280546178ae9061c269565b80156178f95780601f106178d0576101008083540402835291602001916178f9565b820191905f5260205f20905b8154815290600101906020018083116178dc57829003601f168201915b5050509183525050600f82015460ff16151560208083019190915260108301805460408051828502810185018252828152940193925f9084015b828210156179db578382905f5260205f200180546179509061c269565b80601f016020809104026020016040519081016040528092919081815260200182805461797c9061c269565b80156179c75780601f1061799e576101008083540402835291602001916179c7565b820191905f5260205f20905b8154815290600101906020018083116179aa57829003601f168201915b505050505081526020019060010190617933565b5050505081526020016011820180546179f39061c269565b80601f0160208091040260200160405190810160405280929190818152602001828054617a1f9061c269565b8015617a6a5780601f10617a4157610100808354040283529160200191617a6a565b820191905f5260205f20905b815481529060010190602001808311617a4d57829003601f168201915b50505091835250506012820154602080830191909152601383015460408084019190915260148401546060840152601584015460ff8082161515608086015261010090910416151560a084015260169093015460c0909201919091529183526018840154918301919091526019909201549101528251839083908110617af257617af261c255565b602090810291909101015260010161740f565b600d8181548110615673575f80fd5b6001600160a01b0381165f908152601960209081526040808320805482518185028101850190935280835260609492939192909184015b82821015617b8e578382905f5260205f2090600202016040518060400160405290815f820154815260200160018201548152505081526020019060010190617b4b565b505050509050919050565b5f80546001600160a01b0316338114617bc45760405162461bcd60e51b81526004016112ad9061c29b565b602280546001600160a01b0385166001600160a01b03199091161790556001915050919050565b600e602052815f5260405f208181548110611410575f80fd5b335f908152601a602052604090205460ff16617c325760405162461bcd60e51b81526004016112ad9061c6d7565b5f5b600454811015617d19578160035f60048481548110617c5557617c5561c255565b905f5260205f20015481526020019081526020015f206001016001015403617d115760405162461bcd60e51b815260206004820152607060248201525f8051602061cb4f83398151915260448201527f223a20342c20226d657373616765223a2243616e6e6f742064656c657465206360648201527f617465676f72793a2050726f6475637473207374696c6c20657869737420696e60848201526f20746869732063617465676f7279227d60801b60a482015260c4016112ad565b600101617c34565b505f818152600c60205260408120549003617d465760405162461bcd60e51b81526004016112ad9061c9a2565b5f805b600d54811015617d8557600d8181548110617d6657617d6661c255565b905f5260205f2001548303617d7d57809150617d85565b600101617d49565b50805b600d54617d979060019061c30b565b811015617dea57600d617dab82600161c332565b81548110617dbb57617dbb61c255565b905f5260205f200154600d8281548110617dd757617dd761c255565b5f91825260209091200155600101617d88565b50600d805480617dfc57617dfc61c31e565b5f828152602080822083015f19908101839055909201909255838252600c90526040812081815590617e31600183018261a54a565b617e3e600283015f61a54a565b50506040518281527f2949e8b00c2a3a7093872078d10195c02c60d9c2aaf8decc819315e8a48de2069060200160405180910390a15050565b5f8160018110158015617e8b575060058111155b617ea75760405162461bcd60e51b81526004016112ad9061c5be565b5f84815260036020526040902054617ed15760405162461bcd60e51b81526004016112ad9061c7d7565b335f90815260116020908152604080832087845290915290205460ff1615617f615760405162461bcd60e51b815260206004820152604a60248201525f8051602061cb4f83398151915260448201527f223a2032372c20226d657373616765223a202250726f6475637420616c7265616064820152696479207261746564227d60b01b608482015260a4016112ad565b601f8054905f617f708361c3f7565b909155505060408051608081018252601f80548083523360208085018281528587018a815242606088019081525f958652600f8452888620975188559151600180890180546001600160a01b0319166001600160a01b039093169290921790915590516002880155905160039096019590955589835260108152858320935484548087018655948452818420909401939093558152601182528381209781529690529420805460ff1916851781558401929092555090919050565b60136020525f908152604090208054600182015460028301805492936001600160a01b039092169261805c9061c269565b80601f01602080910402602001604051908101604052809291908181526020018280546180889061c269565b80156180d35780601f106180aa576101008083540402835291602001916180d3565b820191905f5260205f20905b8154815290600101906020018083116180b657829003601f168201915b5050505050908060030180546180e89061c269565b80601f01602080910402602001604051908101604052809291908181526020018280546181149061c269565b801561815f5780601f106181365761010080835404028352916020019161815f565b820191905f5260205f20905b81548152906001019060200180831161814257829003601f168201915b50505050600483015460058401546006850154600790950154939460ff9092169390925088565b5f61819082616cdd565b335f90815260186020908152604080832086845290915290205490915060ff161561822f5760405162461bcd60e51b815260206004820152605660248201525f8051602061cb4f83398151915260448201527f223a2032302c20226d657373616765223a227573657220616c7265616479206660648201527561766f7269746520746869732070726f64756374227d60501b608482015260a4016112ad565b335f8181526018602090815260408083208684528252808320805460ff1916600190811790915584845260198352818420825180840184528881524281860190815282548085018455928752948620905160029092020190815592519281019290925560245490516322a8e4eb60e21b81526001600160a01b039190911693638aa393ac936182ca939192889291908290819060040161c9fa565b5f604051808303815f87803b1580156182e1575f80fd5b505af11580156182f3573d5f803e3d5ffd5b5050602454602084015161018001516040516322a8e4eb60e21b81526001600160a01b039092169350638aa393ac925061833b91339187916001919082905f9060040161c9fa565b5f604051808303815f87803b158015618352575f80fd5b505af1158015618364573d5f803e3d5ffd5b5050602480546020850151610180015160405163eda162e760e01b81526001600160a01b0391821660048201529116935063eda162e79250015f604051808303815f87803b1580156183b4575f80fd5b505af11580156183c6573d5f803e3d5ffd5b505050505050565b60605f805b60045481101561842f5760035f600483815481106183f3576183f361c255565b5f918252602080832090910154835282019290925260400190206010015460ff161561842757816184238161c3f7565b9250505b6001016183d3565b505f816001600160401b038111156184495761844961a98b565b60405190808252806020026020018201604052801561848257816020015b61846f61a640565b8152602001906001900390816184675790505b5090505f805b600454811015618bcb5760035f600483815481106184a8576184a861c255565b5f918252602080832090910154835282019290925260400190206010015460ff1615618bc35760035f600483815481106184e4576184e461c255565b905f5260205f20015481526020019081526020015f206040518060800160405290815f820154815260200160018201604051806103000160405290815f8201805461852e9061c269565b80601f016020809104026020016040519081016040528092919081815260200182805461855a9061c269565b80156185a55780601f1061857c576101008083540402835291602001916185a5565b820191905f5260205f20905b81548152906001019060200180831161858857829003601f168201915b50505050508152602001600182015481526020016002820180546185c89061c269565b80601f01602080910402602001604051908101604052809291908181526020018280546185f49061c269565b801561863f5780601f106186165761010080835404028352916020019161863f565b820191905f5260205f20905b81548152906001019060200180831161862257829003601f168201915b5050505050815260200160038201548152602001600482015481526020016005820154815260200160068201548152602001600782018054806020026020016040519081016040528092919081815260200182805480156186bd57602002820191905f5260205f20905b8154815260200190600101908083116186a9575b5050505050815260200160088201805480602002602001604051908101604052809291908181526020015f905b82821015618792578382905f5260205f200180546187079061c269565b80601f01602080910402602001604051908101604052809291908181526020018280546187339061c269565b801561877e5780601f106187555761010080835404028352916020019161877e565b820191905f5260205f20905b81548152906001019060200180831161876157829003601f168201915b5050505050815260200190600101906186ea565b50505050815260200160098201548152602001600a8201548152602001600b8201805480602002602001604051908101604052809291908181526020015f905b8282101561887a578382905f5260205f200180546187ef9061c269565b80601f016020809104026020016040519081016040528092919081815260200182805461881b9061c269565b80156188665780601f1061883d57610100808354040283529160200191618866565b820191905f5260205f20905b81548152906001019060200180831161884957829003601f168201915b5050505050815260200190600101906187d2565b50505090825250600c8201546001600160a01b03166020820152600d820180546040909201916188a99061c269565b80601f01602080910402602001604051908101604052809291908181526020018280546188d59061c269565b80156189205780601f106188f757610100808354040283529160200191618920565b820191905f5260205f20905b81548152906001019060200180831161890357829003601f168201915b50505050508152602001600e820180546189399061c269565b80601f01602080910402602001604051908101604052809291908181526020018280546189659061c269565b80156189b05780601f10618987576101008083540402835291602001916189b0565b820191905f5260205f20905b81548152906001019060200180831161899357829003601f168201915b5050509183525050600f82015460ff16151560208083019190915260108301805460408051828502810185018252828152940193925f9084015b82821015618a92578382905f5260205f20018054618a079061c269565b80601f0160208091040260200160405190810160405280929190818152602001828054618a339061c269565b8015618a7e5780601f10618a5557610100808354040283529160200191618a7e565b820191905f5260205f20905b815481529060010190602001808311618a6157829003601f168201915b5050505050815260200190600101906189ea565b505050508152602001601182018054618aaa9061c269565b80601f0160208091040260200160405190810160405280929190818152602001828054618ad69061c269565b8015618b215780601f10618af857610100808354040283529160200191618b21565b820191905f5260205f20905b815481529060010190602001808311618b0457829003601f168201915b50505091835250506012820154602080830191909152601383015460408084019190915260148401546060840152601584015460ff8082161515608086015261010090910416151560a084015260169093015460c0909201919091529183526018840154918301919091526019909201549101528351849084908110618ba957618ba961c255565b60200260200101819052508180618bbf9061c3f7565b9250505b600101618488565b50909392505050565b335f9081526001602052604081205460ff1680618c5657506022546040516359d3202760e11b81523360048201526001600160a01b039091169063b3a6404e90602401602060405180830381865afa158015618c32573d5f803e3d5ffd5b505050506040513d601f19601f82011682018060405250810190618c56919061c3dc565b618c8360376040518060400160405280601b81526020015f8051602061cb0e833981519152815250611a5a565b90618ca15760405162461bcd60e51b81526004016112ad919061b15a565b50335f90815260026020908152604080832086845282529182902054825160608101909352602180845260ff90911692618ce5926019929061cb2e90830139611a5a565b90618d035760405162461bcd60e51b81526004016112ad919061b15a565b505f8381526003602090815260409091208351611bd29260119092019185019061a5f0565b5f5b815181101561187557618d55828281518110618d4857618d4861c255565b6020026020010151615885565b600101618d2a565b335f9081526001602052604081205460ff1680618ddf57506022546040516359d3202760e11b81523360048201526001600160a01b039091169063b3a6404e90602401602060405180830381865afa158015618dbb573d5f803e3d5ffd5b505050506040513d601f19601f82011682018060405250810190618ddf919061c3dc565b61370460376040518060400160405280601b81526020015f8051602061cb0e833981519152815250611a5a565b335f908152601a602052604090205460ff16618e3a5760405162461bcd60e51b81526004016112ad9061c6d7565b5f838152600c6020526040902054618e645760405162461bcd60e51b81526004016112ad9061c9a2565b6040805160608101825284815260208082018581528284018590525f878152600c9092529290208151815591519091906001820190618ea3908261c489565b5060408201516002820190618eb8908261c489565b509050507f7534c4dfe9421008b880d3284c95adb6e067900c8dea9b4718625fa85fc1d0b7838383604051616c969392919061bb32565b5f805b8251811015611bd2575f618f5e85858481518110618f1257618f1261c255565b60200260200101515f0151868581518110618f2f57618f2f61c255565b602002602001015160200151878681518110618f4d57618f4d61c255565b602002602001015160400151615dd8565b90505f848381518110618f7357618f7361c255565b60200260200101515f01516001811115618f8f57618f8f61c883565b03618fbe57618fbc8582868581518110618fab57618fab61c255565b602002602001015160600151615cc8565b505b50600101618ef2565b618fea60405180606001604052805f815260200160608152602001606081525090565b600c5f8381526020019081526020015f206040518060600160405290815f820154815260200160018201805461901f9061c269565b80601f016020809104026020016040519081016040528092919081815260200182805461904b9061c269565b80156190965780601f1061906d57610100808354040283529160200191619096565b820191905f5260205f20905b81548152906001019060200180831161907957829003601f168201915b505050505081526020016002820180546190af9061c269565b80601f01602080910402602001604051908101604052809291908181526020018280546190db9061c269565b80156191265780601f106190fd57610100808354040283529160200191619126565b820191905f5260205f20905b81548152906001019060200180831161910957829003601f168201915b5050505050815250509050919050565b6004546060905f908180826001600160401b038111156191585761915861a98b565b60405190808252806020026020018201604052801561919157816020015b61917e61a584565b8152602001906001900390816191765790505b5090505f5b838110156195a65760015f885160028111156191b4576191b461c883565b14619279576001885160028111156191ce576191ce61c883565b14801561920f575060035f600484815481106191ec576191ec61c255565b5f918252602080832090910154835282019290925260400190206010015460ff16155b80619271575060028851600281111561922a5761922a61c883565b148015619271575061923f62093a804261c30b565b60035f600485815481106192555761925561c255565b905f5260205f20015481526020019081526020015f2060180154105b1561927957505f5b5f886060015160028111156192905761929061c883565b14619366576001886060015160028111156192ad576192ad61c883565b1480156192f6575060035f600484815481106192cb576192cb61c255565b905f5260205f20015481526020019081526020015f2060010160150160019054906101000a900460ff165b8061935e57506002886060015160028111156193145761931461c883565b14801561935e575060035f600484815481106193325761933261c255565b905f5260205f20015481526020019081526020015f2060010160150160019054906101000a900460ff16155b1561936657505f5b60808801516001600160a01b0316156193cc5787608001516001600160a01b031660035f6004858154811061939d5761939d61c255565b5f91825260208083209091015483528201929092526040019020600d01546001600160a01b0316146193cc57505f5b60a088015151156194a35761949c8860a0015160035f600486815481106193f5576193f561c255565b905f5260205f20015481526020019081526020015f206001015f01805461941b9061c269565b80601f01602080910402602001604051908101604052809291908181526020018280546194479061c269565b80156194925780601f1061946957610100808354040283529160200191619492565b820191905f5260205f20905b81548152906001019060200180831161947557829003601f168201915b5050505050619ef3565b6194a357505f5b5f8860c0015111806194b857505f8860e00151115b15619555575f8860c0015111801561950257508760c0015160035f600485815481106194e6576194e661c255565b905f5260205f20015481526020019081526020015f2060180154105b8061954d57505f8860e0015111801561954d57508760e0015160035f600485815481106195315761953161c255565b905f5260205f20015481526020019081526020015f2060180154115b1561955557505f5b801561959d57619571600483815481106119485761194861c255565b8385815181106195835761958361c255565b602002602001018190525083806195999061c3f7565b9450505b50600101619196565b505f826001600160401b038111156195c0576195c061a98b565b6040519080825280602002602001820160405280156195f957816020015b6195e661a584565b8152602001906001900390816195de5790505b5090505f5b83811015619645578281815181106196185761961861c255565b60200260200101518282815181106196325761963261c255565b60209081029190910101526001016195fe565b505f808860200151600181111561965e5761965e61c883565b1490505f80896040015160018111156196795761967961c883565b149050619687838383619fc9565b92505f8961012001518a61010001516196a0919061c40f565b90505f8a6101200151826196b4919061c332565b9050868111156196c15750855b5f6196cc838361c30b565b9050806001600160401b038111156196e6576196e661a98b565b60405190808252806020026020018201604052801561971f57816020015b61970c61a584565b8152602001906001900390816197045790505b509a50825b828110156197765786818151811061973e5761973e61c255565b60200260200101518c8583619753919061c30b565b815181106197635761976361c255565b6020908102919091010152600101619724565b508782109950505050505050505050915091565b60058181548110619799575f80fd5b905f5260205f20015f9150905080546197b19061c269565b80601f01602080910402602001604051908101604052809291908181526020018280546197dd9061c269565b80156198285780601f106197ff57610100808354040283529160200191619828565b820191905f5260205f20905b81548152906001019060200180831161980b57829003601f168201915b505050505081565b335f908152601a602052604081205460ff1661985e5760405162461bcd60e51b81526004016112ad9061c6d7565b5f828152600360205260409020541580159061989057505f82815260036020526040902060160154610100900460ff16155b6198b3601b6040518060600160405280602c815260200161cae2602c9139611a5a565b906198d15760405162461bcd60e51b81526004016112ad919061b15a565b50505f818152600360205260409020601601805461ff0019166101001790556001919050565b60605f6199038361a1e3565b60010190505f816001600160401b038111156199215761992161a98b565b6040519080825280601f01601f19166020018201604052801561994b576020820181803683370190505b5090508181016020015b5f19016f181899199a1a9b1b9c1cb0b131b232b360811b600a86061a8153600a850494508461995557509392505050565b5f60605f5b83518110156199fd57818482815181106199a7576199a761c255565b6020026020010151602001518583815181106199c5576199c561c255565b6020026020010151604001516040516020016199e39392919061ca55565b60408051601f19818403018152919052915060010161998b565b50805160209091012092915050565b5f83815260156020526040902054619a365760405162461bcd60e51b81526004016112ad9061c82f565b5f838152601560205260409020600101619a50838261c489565b505f838152601560205260409020600201619a6b828261c489565b5050505050565b60035f8281526020019081526020015f205f01545f1415619abd600260405180604001604052806011815260200170141c9bd91d58dd081b9bdd08199bdd5b99607a1b815250611a5a565b90619adb5760405162461bcd60e51b81526004016112ad919061b15a565b505f818152600360209081526040808320600d0154600890925282206001600160a01b03909116915b8154811015619bbd5760075f8581526020019081526020015f205f838381548110619b3157619b3161c255565b5f9182526020808320909101548352828101939093526040918201812081815560018101829055600281018290556003810182905560048101829055600501819055868152600990925281208354909190849084908110619b9457619b9461c255565b905f5260205f20015481526020019081526020015f205f619bb5919061a71b565b600101619b04565b505f838152600860205260408120619bd49161a739565b5f838152600360205260408120818155906001820181619bf4828261a54a565b600182015f9055600282015f619c0a919061a54a565b600382015f9055600482015f9055600582015f9055600682015f9055600782015f619c35919061a739565b619c42600883015f61a754565b600982015f9055600a82015f9055600b82015f619c5f919061a754565b600c820180546001600160a01b0319169055619c7e600d83015f61a54a565b619c8b600e83015f61a54a565b600f8201805460ff19169055619ca4601083015f61a754565b619cb1601183015f61a54a565b505f60128201819055601382018190556014820181905560158201805461ffff191690556016909101819055601883018190556019909201829055505b600454811015619d92578360048281548110619d0c57619d0c61c255565b905f5260205f20015403619d8a5760048054619d2a9060019061c30b565b81548110619d3a57619d3a61c255565b905f5260205f20015460048281548110619d5657619d5661c255565b5f918252602090912001556004805480619d7257619d7261c31e565b600190038181905f5260205f20015f90559055619d92565b600101619cee565b50619d9d828461a2ba565b6001600160a01b0382165f908152600260209081526040808320868452825291829020805460ff1916905590518481527f716431c6ad87c14dfbaea060c40de99e2c47afab8d3c665240f9887945474a4f9101616c96565b602180545f9182619e058361c3f7565b90915550505f84815260036020526040902054619e345760405162461bcd60e51b81526004016112ad9061c7d7565b6040805160608101825260215480825260208083018781528385018790525f9283526015909152929020815181559151909182916001820190619e77908261c489565b5060408201516002820190619e8c908261c489565b5050505f85815260166020908152604080832060215481546001810183559185529284200191909155602454815163f857d61760e01b815291516001600160a01b039091169263f857d617926004808201939182900301818387803b158015616b68575f80fd5b815181515f91849184911115619f07575f80fd5b5f805b83518351619f18919061c30b565b8111619fbf5760015f5b8551811015619f9b57619f54868281518110619f4057619f4061c255565b01602001516001600160f81b03191661a37a565b6001600160f81b031916619f7c86619f6c848761c332565b81518110619f4057619f4061c255565b6001600160f81b03191614619f93575f9150619f9b565b600101619f22565b508015619fac576001925050619fbf565b5080619fb78161c3f7565b915050619f0a565b5095945050505050565b82516060906002811015619fe057849150506169f3565b619fe861a584565b619ff061a584565b619ff861a584565b5f805f5b61a00760018861c30b565b81101561a1d4575f5b600161a01c838a61c30b565b61a026919061c30b565b81101561a1cb575f8c828151811061a0405761a04061c255565b602002602001015197508c82600161a058919061c332565b8151811061a0685761a06861c255565b602002602001015196508a1561a095578651604090810151895190910151111561a090575060015b61a0ad565b8651604090810151895190910151101561a0ad575060015b8b1561a0f65761a0bc8861a3b6565b945061a0c78761a3b6565b93508a801561a0d557508385115b8061a0e857508a15801561a0e857508385105b1561a0f1575060015b61a134565b61a0ff8861a438565b945061a10a8761a438565b93508a801561a11857508385105b8061a12b57508a15801561a12b57508385115b1561a134575060015b801561a1c2578c828151811061a14c5761a14c61c255565b602002602001015195508c82600161a164919061c332565b8151811061a1745761a17461c255565b60200260200101518d838151811061a18e5761a18e61c255565b6020908102919091010152858d61a1a684600161c332565b8151811061a1b65761a1b661c255565b60200260200101819052505b5060010161a010565b50600101619ffc565b50989998505050505050505050565b5f8072184f03e93ff9f4daa797ed6e38ed64bf6a1f0160401b831061a2215772184f03e93ff9f4daa797ed6e38ed64bf6a1f0160401b830492506040015b6d04ee2d6d415b85acef8100000000831061a24d576d04ee2d6d415b85acef8100000000830492506020015b662386f26fc10000831061a26b57662386f26fc10000830492506010015b6305f5e100831061a283576305f5e100830492506008015b612710831061a29757612710830492506004015b6064831061a2a9576064830492506002015b600a83106110385760010192915050565b6001600160a01b0382165f908152600b60205260408120905b815481101561a374578282828154811061a2ef5761a2ef61c255565b905f5260205f2001540361a36c578154829061a30d9060019061c30b565b8154811061a31d5761a31d61c255565b905f5260205f20015482828154811061a3385761a33861c255565b905f5260205f2001819055508180548061a3545761a35461c31e565b600190038181905f5260205f20015f9055905561a374565b60010161a2d3565b50505050565b5f604160f883901c1080159061a3955750605a60f883901c11155b1561a3b25761a3a960f883901c602061ca72565b60f81b92915050565b5090565b5f805f19905061a3e96040518060a001604052805f81526020015f81526020015f81526020015f81526020015f81525090565b5f5b846020015151811015618bcb578460200151818151811061a40e5761a40e61c255565b6020026020010151602001519150828260200151101561a43057816020015192505b60010161a3eb565b5f805f905061a46a6040518060a001604052805f81526020015f81526020015f81526020015f81526020015f81525090565b5f5b846020015151811015618bcb578460200151818151811061a48f5761a48f61c255565b6020026020010151602001519150828260200151111561a4b157816020015192505b60010161a46c565b60405180604001604052805f801916815260200161a4fa6040518060a001604052805f81526020015f81526020015f81526020015f81526020015f81525090565b905290565b6040518061010001604052805f81526020015f6001600160a01b0316815260200160608152602001606081526020015f60ff1681526020015f81526020015f81526020015f81525090565b50805461a5569061c269565b5f825580601f1061a565575050565b601f0160209004905f5260205f209081019061a581919061a76f565b50565b604051806060016040528061a59761a640565b815260200160608152602001606081525090565b828054828255905f5260205f2090810192821561a5e4579160200282015b8281111561a5e457825182559160200191906001019061a5c9565b5061a3b292915061a76f565b828054828255905f5260205f2090810192821561a634579160200282015b8281111561a634578251829061a624908261c489565b509160200191906001019061a60e565b5061a3b292915061a783565b60405180608001604052805f815260200161a709604051806103000160405280606081526020015f8152602001606081526020015f81526020015f81526020015f81526020015f815260200160608152602001606081526020015f81526020015f8152602001606081526020015f6001600160a01b0316815260200160608152602001606081526020015f1515815260200160608152602001606081526020015f81526020015f81526020015f81526020015f151581526020015f151581526020015f81525090565b81526020015f81526020015f81525090565b5080545f8255600302905f5260205f209081019061a581919061a79f565b5080545f8255905f5260205f209081019061a581919061a76f565b5080545f8255905f5260205f209081019061a581919061a783565b5b8082111561a3b2575f815560010161a770565b8082111561a3b2575f61a796828261a54a565b5060010161a783565b8082111561a3b2575f80825561a7b8600183018261a54a565b61a7c5600283015f61a54a565b5060030161a79f565b5f806040838503121561a7df575f80fd5b50508035926020909101359150565b80518252602081015161346a602084018280518252602081015160208301526040810151604083015260608101516060830152608081015160808301525050565b60c08101611038828461a7ee565b5f6020828403121561a84d575f80fd5b5035919050565b5f81518084528060208401602086015e5f602082860101526020601f19601f83011685010191505092915050565b8051825260018060a01b0360208201511660208301525f6040820151610100604085015261a8b461010085018261a854565b90506060830151848203606086015261a8cd828261a854565b915050608083015161a8e4608086018260ff169052565b5060a083015160a085015260c083015160c085015260e083015160e08501528091505092915050565b5f82825180855260208501945060208160051b830101602085015f5b8381101561a95b57601f1985840301885261a94583835161a882565b602098890198909350919091019060010161a929565b50909695505050505050565b602081525f6169f3602083018461a90d565b602081525f6169f3602083018461a882565b634e487b7160e01b5f52604160045260245ffd5b60405161030081016001600160401b038111828210171561a9c25761a9c261a98b565b60405290565b604051606081016001600160401b038111828210171561a9c25761a9c261a98b565b604080519081016001600160401b038111828210171561a9c25761a9c261a98b565b604051608081016001600160401b038111828210171561a9c25761a9c261a98b565b60405161014081016001600160401b038111828210171561a9c25761a9c261a98b565b604051601f8201601f191681016001600160401b038111828210171561aa795761aa7961a98b565b604052919050565b5f82601f83011261aa90575f80fd5b8135602083015f806001600160401b0384111561aaaf5761aaaf61a98b565b50601f8301601f191660200161aac48161aa51565b91505082815285838301111561aad8575f80fd5b828260208301375f92810160200192909252509392505050565b5f6020828403121561ab02575f80fd5b81356001600160401b0381111561ab17575f80fd5b61ab238482850161aa81565b949350505050565b80356001600160a01b0381168114613730575f80fd5b5f806040838503121561ab52575f80fd5b61ab5b8361ab2b565b946020939093013593505050565b602080825282518282018190525f918401906040840190835b8181101561abac57835180518452602090810151818501529093019260409092019160010161ab82565b509095945050505050565b805182525f60208201516060602085015261abd5606085018261a854565b90506040830151848203604086015261abee828261a854565b95945050505050565b5f82825180855260208501945060208160051b830101602085015f5b8381101561a95b57601f1985840301885261ac2f83835161abb7565b602098890198909350919091019060010161ac13565b602081525f6169f3602083018461abf7565b5f6001600160401b0382111561ac6f5761ac6f61a98b565b5060051b60200190565b5f82601f83011261ac88575f80fd5b813561ac9b61ac968261ac57565b61aa51565b8082825260208201915060208360051b86010192508583111561acbc575f80fd5b602085015b83811015619fbf57803583526020928301920161acc1565b5f6020828403121561ace9575f80fd5b81356001600160401b0381111561acfe575f80fd5b61ab238482850161ac79565b5f6020828403121561ad1a575f80fd5b6169f38261ab2b565b5f8151808452602084019350602083015f5b8281101561ad5357815186526020958601959091019060010161ad35565b5093949350505050565b5f82825180855260208501945060208160051b830101602085015f5b8381101561a95b57601f1985840301885261ad9583835161a854565b602098890198909350919091019060010161ad79565b5f8151610300845261adc161030085018261a854565b9050602083015160208501526040830151848203604086015261ade4828261a854565b915050606083015160608501526080830151608085015260a083015160a085015260c083015160c085015260e083015184820360e086015261ae26828261ad23565b91505061010083015184820361010086015261ae42828261ad5d565b91505061012083015161012085015261014083015161014085015261016083015184820361016086015261ae76828261ad5d565b91505061018083015161ae956101808601826001600160a01b03169052565b506101a08301518482036101a086015261aeaf828261a854565b9150506101c08301518482036101c086015261aecb828261a854565b9150506101e083015161aee36101e086018215159052565b5061020083015184820361020086015261aefd828261ad5d565b91505061022083015184820361022086015261af19828261a854565b9150506102408301516102408501526102608301516102608501526102808301516102808501526102a083015161af556102a086018215159052565b506102c083015161af6b6102c086018215159052565b506102e08301516102e08501528091505092915050565b805182525f60208201516080602085015261afa0608085018261adab565b905060408301516040850152606083015160608501528091505092915050565b5f81516060845261afd4606085018261af82565b60208481015186830387830152805180845290820193505f92909101905b8083101561b01c5761b00582855161a7ee565b60c08201915060208401935060018301925061aff2565b50604085015192508581036040870152809150825180825260208201925060208160051b8301016020850194505f5b8281101561b07c57601f1984830301855261b06782875161abf7565b6020968701969590950194915060010161b04b565b50979650505050505050565b5f82825180855260208501945060208160051b830101602085015f5b8381101561a95b57601f1985840301885261b0c083835161afc0565b602098890198909350919091019060010161b0a4565b602081525f6169f3602083018461b088565b5f805f806080858703121561b0fb575f80fd5b5050823594602084013594506040840135936060013592509050565b5f806040838503121561b128575f80fd5b8235915060208301356001600160401b0381111561b144575f80fd5b61b1508582860161aa81565b9150509250929050565b602081525f6169f3602083018461a854565b848152608060208201525f61b184608083018661adab565b6040830194909452506060015292915050565b5f82601f83011261b1a6575f80fd5b813561b1b461ac968261ac57565b8082825260208201915060208360051b86010192508583111561b1d5575f80fd5b602085015b83811015619fbf5780356001600160401b0381111561b1f7575f80fd5b61b206886020838a010161aa81565b8452506020928301920161b1da565b801515811461a581575f80fd5b80356137308161b215565b5f610300828403121561b23e575f80fd5b61b24661a99f565b905081356001600160401b0381111561b25d575f80fd5b61b2698482850161aa81565b8252506020828101359082015260408201356001600160401b0381111561b28e575f80fd5b61b29a8482850161aa81565b604083015250606082810135908201526080808301359082015260a0808301359082015260c0808301359082015260e08201356001600160401b0381111561b2e0575f80fd5b61b2ec8482850161ac79565b60e0830152506101008201356001600160401b0381111561b30b575f80fd5b61b3178482850161b197565b61010083015250610120828101359082015261014080830135908201526101608201356001600160401b0381111561b34d575f80fd5b61b3598482850161b197565b6101608301525061b36d610180830161ab2b565b6101808201526101a08201356001600160401b0381111561b38c575f80fd5b61b3988482850161aa81565b6101a0830152506101c08201356001600160401b0381111561b3b8575f80fd5b61b3c48482850161aa81565b6101c08301525061b3d86101e0830161b222565b6101e08201526102008201356001600160401b0381111561b3f7575f80fd5b61b4038482850161b197565b610200830152506102208201356001600160401b0381111561b423575f80fd5b61b42f8482850161aa81565b6102208301525061024082810135908201526102608083013590820152610280808301359082015261b4646102a0830161b222565b6102a082015261b4776102c0830161b222565b6102c08201526102e09182013591810191909152919050565b5f60a0828403121561b4a0575f80fd5b60405160a081016001600160401b038111828210171561b4c25761b4c261a98b565b604090815283358252602080850135908301528381013590820152606080840135908201526080928301359281019290925250919050565b5f82601f83011261b509575f80fd5b61b51661ac96833561ac57565b82358082526020808301929160051b85010185101561b533575f80fd5b602084015b6020853560051b86010181101561b6c3576001600160401b038135111561b55d575f80fd5b8035850160e0818803601f1901121561b574575f80fd5b61b57c61a9c8565b602082013581526001600160401b036040830135111561b59a575f80fd5b6020604083013583010188601f82011261b5b2575f80fd5b61b5bf61ac96823561ac57565b81358082526020808301929160051b8401018b101561b5dc575f80fd5b602083015b6020843560051b85010181101561b699576001600160401b038135111561b606575f80fd5b803584016060818e03601f1901121561b61d575f80fd5b61b62561a9c8565b602082013581526001600160401b036040830135111561b643575f80fd5b61b6568e6020604085013585010161aa81565b60208201526001600160401b036060830135111561b672575f80fd5b61b6858e6020606085013585010161aa81565b60408201528452506020928301920161b5e1565b5060208401525061b6af9050886060840161b490565b60408201528452506020928301920161b538565b50949350505050565b5f806040838503121561b6dd575f80fd5b82356001600160401b0381111561b6f2575f80fd5b61b6fe8582860161b22d565b92505060208301356001600160401b0381111561b719575f80fd5b61b1508582860161b4fa565b5f805f6060848603121561b737575f80fd5b505081359360208301359350604090920135919050565b5f806040838503121561b75f575f80fd5b8235915060208301356001600160401b0381111561b77b575f80fd5b8301601f8101851361b78b575f80fd5b803561b79961ac968261ac57565b8082825260208201915060208360051b85010192508783111561b7ba575f80fd5b602084015b8381101561b8695780356001600160401b0381111561b7dc575f80fd5b85016060818b03601f1901121561b7f1575f80fd5b61b7f961a9c8565b6020820135815260408201356001600160401b0381111561b818575f80fd5b61b8278c60208386010161aa81565b60208301525060608201356001600160401b0381111561b845575f80fd5b61b8548c60208386010161aa81565b6040830152508452506020928301920161b7bf565b50809450505050509250929050565b5f82601f83011261b887575f80fd5b813561b89561ac968261ac57565b8082825260208201915060208360051b86010192508583111561b8b6575f80fd5b602085015b83811015619fbf5780356001600160401b0381111561b8d8575f80fd5b86016040818903601f1901121561b8ed575f80fd5b61b8f561a9ea565b60208201356001600160401b0381111561b90d575f80fd5b61b91c8a60208386010161aa81565b82525060408201356001600160401b0381111561b937575f80fd5b61b9468a60208386010161aa81565b602083015250808552505060208301925060208101905061b8bb565b5f806040838503121561b973575f80fd5b8235915060208301356001600160401b0381111561b98f575f80fd5b61b1508582860161b878565b82815260c081016169f3602083018480518252602081015160208301526040810151604083015260608101516060830152608081015160808301525050565b5f602082016020835280845180835260408501915060408160051b8601019250602086015f5b8281101561ba3157603f1987860301845261ba1c85835161abb7565b9450602093840193919091019060010161ba00565b50929695505050505050565b5f806040838503121561ba4e575f80fd5b8235915060208301356001600160401b0381111561ba6a575f80fd5b8301601f8101851361ba7a575f80fd5b803561ba8861ac968261ac57565b8082825260208201915060208360051b85010192508783111561baa9575f80fd5b602084015b8381101561b8695780356001600160401b0381111561bacb575f80fd5b85016040818b03601f1901121561bae0575f80fd5b61bae861a9ea565b6020820135815260408201356001600160401b0381111561bb07575f80fd5b61bb168c60208386010161aa81565b602083015250808552505060208301925060208101905061baae565b838152606060208201525f61bb4a606083018561a854565b828103604084015261bb5c818561a854565b9695505050505050565b5f6020828403121561bb76575f80fd5b81356001600160401b0381111561bb8b575f80fd5b61ab238482850161b878565b5f8151808452602084019350602083015f5b8281101561ad535781516001600160a01b031686526020958601959091019060010161bba9565b602081525f6169f3602083018461bb97565b5f806040838503121561bbf3575f80fd5b8235915060208301356001600160401b0381111561bc0f575f80fd5b61b1508582860161ac79565b602081525f6169f3602083018461ad23565b5f8151808452602084019350602083015f5b8281101561ad53578151805187526020808201516001600160a01b03168189015260408083015190890152606091820151918801919091526080909601959091019060010161bc3f565b60c081525f61bc9b60c083018961a90d565b828103602084015261bcad818961bc2d565b9050828103604084015261bcc1818861abf7565b9050828103606084015261bcd5818761ad23565b9050828103608084015261bce9818661ad23565b905082810360a084015261bcfd818561ad23565b9998505050505050505050565b5f602082016020835280845180835260408501915060408160051b8601019250602086015f5b8281101561ba3157603f1987860301845261bd4c85835161af82565b9450602093840193919091019060010161bd30565b602081525f6169f3602083018461afc0565b602081525f6169f3602083018461bc2d565b602081525f6169f3602083018461ad5d565b5f805f6060848603121561bda9575f80fd5b8335925060208401356001600160401b0381111561bdc5575f80fd5b61bdd18682870161aa81565b92505060408401356001600160401b0381111561bdec575f80fd5b61bdf88682870161aa81565b9150509250925092565b6002811061a581575f80fd5b80356137308161be02565b5f805f806080858703121561be2c575f80fd5b84359350602085013561be3e8161be02565b925060408501356001600160401b0381111561be58575f80fd5b61be648782880161aa81565b92505060608501356001600160401b0381111561be7f575f80fd5b61be8b8782880161aa81565b91505092959194509250565b5f805f6060848603121561bea9575f80fd5b8335925060208401356001600160401b0381111561bec5575f80fd5b61bed18682870161b22d565b92505060408401356001600160401b0381111561beec575f80fd5b61bdf88682870161b4fa565b5f806040838503121561bf09575f80fd5b82356001600160401b0381111561bf1e575f80fd5b61bf2a8582860161aa81565b92505060208301356001600160401b0381111561b144575f80fd5b602081525f6169f3602083018461af82565b8881526001600160a01b0388166020820152610100604082018190525f9061bf819083018961a854565b828103606084015261bf93818961a854565b91505060ff861660808301528460a08301528360c08301528260e08301529998505050505050505050565b5f806040838503121561bfcf575f80fd5b8235915060208301356001600160401b0381111561bfeb575f80fd5b61b1508582860161b197565b5f806040838503121561c008575f80fd5b8235915060208301356001600160401b0381111561c024575f80fd5b8301601f8101851361c034575f80fd5b803561c04261ac968261ac57565b8082825260208201915060208360051b85010192508783111561c063575f80fd5b602084015b8381101561b8695780356001600160401b0381111561c085575f80fd5b85016080818b03601f1901121561c09a575f80fd5b61c0a261aa0c565b602082013561c0b08161be02565b815260408201356001600160401b0381111561c0ca575f80fd5b61c0d98c60208386010161aa81565b60208301525060608201356001600160401b0381111561c0f7575f80fd5b61c1068c60208386010161aa81565b60408301525060809190910135606082015283526020928301920161c068565b602081525f6169f3602083018461abb7565b803560038110613730575f80fd5b5f6020828403121561c156575f80fd5b81356001600160401b0381111561c16b575f80fd5b8201610140818503121561c17d575f80fd5b61c18561aa2e565b61c18e8261c138565b815261c19c6020830161be0e565b602082015261c1ad6040830161be0e565b604082015261c1be6060830161c138565b606082015261c1cf6080830161ab2b565b608082015260a08201356001600160401b0381111561c1ec575f80fd5b61c1f88682850161aa81565b60a08301525060c0828101359082015260e08083013590820152610100808301359082015261012091820135918101919091529392505050565b604081525f61c244604083018561b088565b905082151560208301529392505050565b634e487b7160e01b5f52603260045260245ffd5b600181811c9082168061c27d57607f821691505b6020821081036113f157634e487b7160e01b5f52602260045260245ffd5b60208082526049908201525f8051602061cb4f83398151915260408201527f223a2035352c20226d657373616765223a2022596f7520617265206e6f7420616060820152686c6c6f7765642e227d60b81b608082015260a00190565b634e487b7160e01b5f52601160045260245ffd5b818103818111156110385761103861c2f7565b634e487b7160e01b5f52603160045260245ffd5b808201808211156110385761103861c2f7565b5f81518060208401855e5f93019283525090919050565b7f7b2266726f6d223a202245636f6d50726f647563742e736f6c222c000000000081526701131b7b232911d160c51b601b8201525f61c39e602383018561c345565b61016160f51b81526b1136b2b9b9b0b3b2911d101160a11b600282015261c3c8600e82018561c345565b61227d60f01b815260020195945050505050565b5f6020828403121561c3ec575f80fd5b81516169f38161b215565b5f6001820161c4085761c40861c2f7565b5060010190565b80820281158282048414176110385761103861c2f7565b5f8261c44057634e487b7160e01b5f52601260045260245ffd5b500490565b601f82111561346a57805f5260205f20601f840160051c8101602085101561c46a5750805b601f840160051c820191505b81811015619a6b575f815560010161c476565b81516001600160401b0381111561c4a25761c4a261a98b565b61c4b68161c4b0845461c269565b8461c445565b6020601f82116001811461c4e8575f831561c4d15750848201515b5f19600385901b1c1916600184901b178455619a6b565b5f84815260208120601f198516915b8281101561c517578785015182556020948501946001909201910161c4f7565b508482101561c53457868401515f19600387901b60f8161c191681555b50505050600190811b01905550565b5f6169f3828461c345565b828152604060208201525f61ab23604083018461adab565b60208082526045908201525f8051602061cb4f83398151915260408201527f223a2032392c20226d657373616765223a22436f6d6d656e74206e6f7420666f606082015264756e64227d60d81b608082015260a00190565b60208082526058908201525f8051602061cb4f83398151915260408201527f223a2035342c20226d657373616765223a2022526174652076616c7565206d7560608201527f7374206265206265747765656e203120616e6420352e227d0000000000000000608082015260a00190565b6020808252603e908201525f8051602061cb4f83398151915260408201527f223a2032382c20226d657373616765223a20224e6f74207261746564227d0000606082015260800190565b6020808252604c908201525f8051602061cb4f83398151915260408201527f223a2035322c20226d657373616765223a2022596f7520617265206e6f74206360608201526b6f6e74726f6c6c65722e227d60a01b608082015260a00190565b60208082526049908201525f8051602061cb4f83398151915260408201527f223a2035332c20226d657373616765223a2022596f7520617265206e6f7420616060820152686c6c6f7765642e227d60b81b608082015260a00190565b5f6020828403121561c743575f80fd5b81516001600160401b0381111561c758575f80fd5b8201601f8101841361c768575f80fd5b805161c77661ac968261ac57565b8082825260208201915060208360051b85010192508683111561c797575f80fd5b6020840193505b8284101561bb5c57835182526020938401939091019061c79e565b5f60ff821660ff810361c7ce5761c7ce61c2f7565b60010192915050565b60208082526045908201525f8051602061cb4f83398151915260408201527f223a20332c20226d657373616765223a202250726f64756374206e6f7420666f606082015264756e64227d60d81b608082015260a00190565b60208082526041908201525f8051602061cb4f83398151915260408201527f223a2033312c20226d657373616765223a22464151206e6f7420666f756e64226060820152607d60f81b608082015260a00190565b634e487b7160e01b5f52602160045260245ffd5b60c081525f61c8a960c083018661a854565b60ff85166020840152828103806040850152601b82527f437573746f6d657220466565646261636b2052656365697665642100000000006020830152604081016060850152605460408301527f596f75277665207265636569766564206e657720666565646261636b2061626f60608301527f757420796f75722070726f647563742120436865636b20637573746f6d65722060808301527319995959189858dac8185b99081c995cdc1bdb9960621b60a083015260c0810160808501525061c97560c082018561bb97565b83810360a0850152600d81526c436f6d6d656e7455706461746560981b602082015290506040810161bb5c565b60208082526045908201525f8051602061cb4f83398151915260408201527f223a20322c20226d657373616765223a2243617465676f7279206e6f7420666f606082015264756e64227d60d81b608082015260a00190565b6001600160a01b03878116825260208201879052604082018690528416606082015260c081016002841061ca3c57634e487b7160e01b5f52602160045260245ffd5b83608083015282151560a0830152979650505050505050565b5f61abee61ca6c61ca66848861c345565b8661c345565b8461c345565b60ff81811683821601908111156110385761103861c2f756fe55736572206973206e6f742074686520636f72726563742072657461696c657220666f7220746869732070726f647563744475706c69636174652076617269616e74206174747269627574657320646574656374656450726f6475637420646f6573206e6f74206578697374206f722073746174757320697320617070726f7665644f6e6c7920636f6e74726f6c6c6572206f722072657461696c65720000000000596f7520617265206e6f7420746869732070726f647563742072657461696c65727b2266726f6d223a202245636f6d50726f647563742e736f6c222c22636f6465a2646970667358221220526020df6e1cd08893189959c3952649ae42d8d7e745e77a609e0a4bd19157dc64736f6c634300081a0033",
			"opcodes": "PUSH1 0x80 PUSH1 0x40 SWAP1 DUP2 MSTORE CALLER PUSH0 DUP2 DUP2 MSTORE PUSH1 0x1A PUSH1 0x20 MSTORE SWAP2 DUP3 KECCAK256 DUP1 SLOAD PUSH1 0xFF NOT AND PUSH1 0x1 SWAP1 DUP2 OR SWAP1 SWAP2 SSTORE PUSH1 0x1B DUP1 SLOAD SWAP2 DUP3 ADD DUP2 SSTORE DUP4 MSTORE PUSH32 0x3AD8AA4F87544323A9D1E5DD902F40C356527A7955687113DB5F9A85AD579DC1 ADD DUP1 SLOAD PUSH1 0x1 PUSH1 0x1 PUSH1 0xA0 SHL SUB NOT SWAP1 DUP2 AND DUP4 OR SWAP1 SWAP2 SSTORE DUP3 SLOAD AND OR SWAP1 SSTORE PUSH2 0xCBA4 DUP1 PUSH2 0x74 PUSH0 CODECOPY PUSH0 RETURN INVALID PUSH1 0x80 PUSH1 0x40 MSTORE CALLVALUE DUP1 ISZERO PUSH2 0xF JUMPI PUSH0 DUP1 REVERT JUMPDEST POP PUSH1 0x4 CALLDATASIZE LT PUSH2 0x56C JUMPI PUSH0 CALLDATALOAD PUSH1 0xE0 SHR DUP1 PUSH4 0x7ACC0B20 GT PUSH2 0x2D9 JUMPI DUP1 PUSH4 0xB9DB15B4 GT PUSH2 0x186 JUMPI DUP1 PUSH4 0xD904D7C5 GT PUSH2 0xEF JUMPI DUP1 PUSH4 0xF3052D26 GT PUSH2 0xA9 JUMPI DUP1 PUSH4 0xF9FB452F GT PUSH2 0x84 JUMPI DUP1 PUSH4 0xF9FB452F EQ PUSH2 0xF28 JUMPI DUP1 PUSH4 0xFDCB5732 EQ PUSH2 0xF31 JUMPI DUP1 PUSH4 0xFE5ED5DD EQ PUSH2 0xF44 JUMPI DUP1 PUSH4 0xFEC0ED1D EQ PUSH2 0xFB7 JUMPI PUSH0 DUP1 REVERT JUMPDEST DUP1 PUSH4 0xF3052D26 EQ PUSH2 0xEBA JUMPI DUP1 PUSH4 0xF497E49C EQ PUSH2 0xEDA JUMPI DUP1 PUSH4 0xF82EE41A EQ PUSH2 0xF07 JUMPI PUSH0 DUP1 REVERT JUMPDEST DUP1 PUSH4 0xD904D7C5 EQ PUSH2 0xE53 JUMPI DUP1 PUSH4 0xDEE2412F EQ PUSH2 0xE5B JUMPI DUP1 PUSH4 0xE7303FC0 EQ PUSH2 0xE6E JUMPI DUP1 PUSH4 0xED90C7B7 EQ PUSH2 0xE81 JUMPI DUP1 PUSH4 0xEDD1DE4D EQ PUSH2 0xE94 JUMPI DUP1 PUSH4 0xEE4E9FFF EQ PUSH2 0xEA7 JUMPI PUSH0 DUP1 REVERT JUMPDEST DUP1 PUSH4 0xCAC0E650 GT PUSH2 0x140 JUMPI DUP1 PUSH4 0xCAC0E650 EQ PUSH2 0xDCD JUMPI DUP1 PUSH4 0xCBB77380 EQ PUSH2 0xDE0 JUMPI DUP1 PUSH4 0xCECA737F EQ PUSH2 0xDF3 JUMPI DUP1 PUSH4 0xD06FD39B EQ PUSH2 0xE06 JUMPI DUP1 PUSH4 0xD4EB7BAD EQ PUSH2 0xE19 JUMPI DUP1 PUSH4 0xD738D8A2 EQ PUSH2 0xE40 JUMPI PUSH0 DUP1 REVERT JUMPDEST DUP1 PUSH4 0xB9DB15B4 EQ PUSH2 0xD06 JUMPI DUP1 PUSH4 0xBB58E29F EQ PUSH2 0xD26 JUMPI DUP1 PUSH4 0xC29B2F20 EQ PUSH2 0xD39 JUMPI DUP1 PUSH4 0xC6CDBE5E EQ PUSH2 0xD41 JUMPI DUP1 PUSH4 0xC7691CF6 EQ PUSH2 0xD54 JUMPI DUP1 PUSH4 0xC7853148 EQ PUSH2 0xDBA JUMPI PUSH0 DUP1 REVERT JUMPDEST DUP1 PUSH4 0x9FF99D9F GT PUSH2 0x242 JUMPI DUP1 PUSH4 0xB28917FE GT PUSH2 0x1FC JUMPI DUP1 PUSH4 0xB570FD8E GT PUSH2 0x1D7 JUMPI DUP1 PUSH4 0xB570FD8E EQ PUSH2 0xCCE JUMPI DUP1 PUSH4 0xB5C3A9DC EQ PUSH2 0xCD7 JUMPI DUP1 PUSH4 0xB814F77B EQ PUSH2 0xCEA JUMPI DUP1 PUSH4 0xB8EEC5FF EQ PUSH2 0xCFD JUMPI PUSH0 DUP1 REVERT JUMPDEST DUP1 PUSH4 0xB28917FE EQ PUSH2 0xC90 JUMPI DUP1 PUSH4 0xB3DD67FE EQ PUSH2 0xC99 JUMPI DUP1 PUSH4 0xB3ED37B2 EQ PUSH2 0xCBB JUMPI PUSH0 DUP1 REVERT JUMPDEST DUP1 PUSH4 0x9FF99D9F EQ PUSH2 0xC1E JUMPI DUP1 PUSH4 0xA6ED62CF EQ PUSH2 0xC31 JUMPI DUP1 PUSH4 0xA8F46830 EQ PUSH2 0xC44 JUMPI DUP1 PUSH4 0xAD816029 EQ PUSH2 0xC57 JUMPI DUP1 PUSH4 0xAF8EB714 EQ PUSH2 0xC6A JUMPI DUP1 PUSH4 0xB224B4E9 EQ PUSH2 0xC7D JUMPI PUSH0 DUP1 REVERT JUMPDEST DUP1 PUSH4 0x8A8869E2 GT PUSH2 0x293 JUMPI DUP1 PUSH4 0x8A8869E2 EQ PUSH2 0xB9E JUMPI DUP1 PUSH4 0x8DA5CB5B EQ PUSH2 0xBB1 JUMPI DUP1 PUSH4 0x8E5254A6 EQ PUSH2 0xBC3 JUMPI DUP1 PUSH4 0x9406A816 EQ PUSH2 0xBD6 JUMPI DUP1 PUSH4 0x9B5ACE9E EQ PUSH2 0xBE9 JUMPI DUP1 PUSH4 0x9DDF2E95 EQ PUSH2 0xBFC JUMPI PUSH0 DUP1 REVERT JUMPDEST DUP1 PUSH4 0x7ACC0B20 EQ PUSH2 0xB06 JUMPI DUP1 PUSH4 0x7CBD4183 EQ PUSH2 0xB19 JUMPI DUP1 PUSH4 0x822D487D EQ PUSH2 0xB39 JUMPI DUP1 PUSH4 0x8248A724 EQ PUSH2 0xB4E JUMPI DUP1 PUSH4 0x841392DB EQ PUSH2 0xB61 JUMPI DUP1 PUSH4 0x891C95F9 EQ PUSH2 0xB74 JUMPI PUSH0 DUP1 REVERT JUMPDEST DUP1 PUSH4 0x40B2527B GT PUSH2 0x437 JUMPI DUP1 PUSH4 0x562E2C35 GT PUSH2 0x3A0 JUMPI DUP1 PUSH4 0x67EF5A9A GT PUSH2 0x35A JUMPI DUP1 PUSH4 0x6BB42046 GT PUSH2 0x335 JUMPI DUP1 PUSH4 0x6BB42046 EQ PUSH2 0xAAB JUMPI DUP1 PUSH4 0x704B6C02 EQ PUSH2 0xACB JUMPI DUP1 PUSH4 0x7608A27E EQ PUSH2 0xADE JUMPI DUP1 PUSH4 0x79A85E6C EQ PUSH2 0xAE6 JUMPI PUSH0 DUP1 REVERT JUMPDEST DUP1 PUSH4 0x67EF5A9A EQ PUSH2 0xA3E JUMPI DUP1 PUSH4 0x680921AE EQ PUSH2 0xA5E JUMPI DUP1 PUSH4 0x6813B53B EQ PUSH2 0xA86 JUMPI PUSH0 DUP1 REVERT JUMPDEST DUP1 PUSH4 0x562E2C35 EQ PUSH2 0x9A1 JUMPI DUP1 PUSH4 0x5B315089 EQ PUSH2 0x9CE JUMPI DUP1 PUSH4 0x6138B4A5 EQ PUSH2 0x9D6 JUMPI DUP1 PUSH4 0x633481E6 EQ PUSH2 0x9E9 JUMPI DUP1 PUSH4 0x6353AA22 EQ PUSH2 0xA0B JUMPI DUP1 PUSH4 0x66573F61 EQ PUSH2 0xA1E JUMPI PUSH0 DUP1 REVERT JUMPDEST DUP1 PUSH4 0x47C1701F GT PUSH2 0x3F1 JUMPI DUP1 PUSH4 0x47C1701F EQ PUSH2 0x8B1 JUMPI DUP1 PUSH4 0x4905A13D EQ PUSH2 0x926 JUMPI DUP1 PUSH4 0x4D5C5FD7 EQ PUSH2 0x939 JUMPI DUP1 PUSH4 0x4DB0412C EQ PUSH2 0x94C JUMPI DUP1 PUSH4 0x4FF63845 EQ PUSH2 0x961 JUMPI DUP1 PUSH4 0x5183D6F4 EQ PUSH2 0x974 JUMPI PUSH0 DUP1 REVERT JUMPDEST DUP1 PUSH4 0x40B2527B EQ PUSH2 0x849 JUMPI DUP1 PUSH4 0x41D6ACED EQ PUSH2 0x85C JUMPI DUP1 PUSH4 0x423F65A9 EQ PUSH2 0x86F JUMPI DUP1 PUSH4 0x43B3F034 EQ PUSH2 0x878 JUMPI DUP1 PUSH4 0x44089CD1 EQ PUSH2 0x88B JUMPI DUP1 PUSH4 0x4708EE10 EQ PUSH2 0x89E JUMPI PUSH0 DUP1 REVERT JUMPDEST DUP1 PUSH4 0x1D068976 GT PUSH2 0x4D9 JUMPI DUP1 PUSH4 0x29058F09 GT PUSH2 0x493 JUMPI DUP1 PUSH4 0x29058F09 EQ PUSH2 0x7D7 JUMPI DUP1 PUSH4 0x2C89F03B EQ PUSH2 0x7EA JUMPI DUP1 PUSH4 0x31A4BCB5 EQ PUSH2 0x7FD JUMPI DUP1 PUSH4 0x32F39436 EQ PUSH2 0x810 JUMPI DUP1 PUSH4 0x3DE21AC6 EQ PUSH2 0x823 JUMPI DUP1 PUSH4 0x40342308 EQ PUSH2 0x836 JUMPI PUSH0 DUP1 REVERT JUMPDEST DUP1 PUSH4 0x1D068976 EQ PUSH2 0x72E JUMPI DUP1 PUSH4 0x1DB6D8C0 EQ PUSH2 0x741 JUMPI DUP1 PUSH4 0x21937B46 EQ PUSH2 0x754 JUMPI DUP1 PUSH4 0x2248632A EQ PUSH2 0x781 JUMPI DUP1 PUSH4 0x27E1F7DF EQ PUSH2 0x7A1 JUMPI DUP1 PUSH4 0x28D2A1B6 EQ PUSH2 0x7B4 JUMPI PUSH0 DUP1 REVERT JUMPDEST DUP1 PUSH4 0xBA69A47 GT PUSH2 0x52A JUMPI DUP1 PUSH4 0xBA69A47 EQ PUSH2 0x64B JUMPI DUP1 PUSH4 0xFB5D9E9 EQ PUSH2 0x699 JUMPI DUP1 PUSH4 0x10C54DA8 EQ PUSH2 0x6AE JUMPI DUP1 PUSH4 0x11D2A079 EQ PUSH2 0x6CE JUMPI DUP1 PUSH4 0x14BFD6D0 EQ PUSH2 0x6E3 JUMPI DUP1 PUSH4 0x1C8028A2 EQ PUSH2 0x70E JUMPI PUSH0 DUP1 REVERT JUMPDEST DUP1 PUSH3 0x41C629 EQ PUSH2 0x570 JUMPI DUP1 PUSH4 0x3926DF9 EQ PUSH2 0x599 JUMPI DUP1 PUSH4 0x39DBD13 EQ PUSH2 0x5B9 JUMPI DUP1 PUSH4 0x6B32424 EQ PUSH2 0x5DC JUMPI DUP1 PUSH4 0x800E300 EQ PUSH2 0x5FD JUMPI DUP1 PUSH4 0xABBA767 EQ PUSH2 0x61D JUMPI JUMPDEST PUSH0 DUP1 REVERT JUMPDEST PUSH2 0x583 PUSH2 0x57E CALLDATASIZE PUSH1 0x4 PUSH2 0xA7CE JUMP JUMPDEST PUSH2 0xFCA JUMP JUMPDEST PUSH1 0x40 MLOAD PUSH2 0x590 SWAP2 SWAP1 PUSH2 0xA82F JUMP JUMPDEST PUSH1 0x40 MLOAD DUP1 SWAP2 SUB SWAP1 RETURN JUMPDEST PUSH2 0x5AC PUSH2 0x5A7 CALLDATASIZE PUSH1 0x4 PUSH2 0xA83D JUMP JUMPDEST PUSH2 0x103E JUMP JUMPDEST PUSH1 0x40 MLOAD PUSH2 0x590 SWAP2 SWAP1 PUSH2 0xA967 JUMP JUMPDEST PUSH2 0x5CC PUSH2 0x5C7 CALLDATASIZE PUSH1 0x4 PUSH2 0xA83D JUMP JUMPDEST PUSH2 0x1282 JUMP JUMPDEST PUSH1 0x40 MLOAD SWAP1 ISZERO ISZERO DUP2 MSTORE PUSH1 0x20 ADD PUSH2 0x590 JUMP JUMPDEST PUSH2 0x5EF PUSH2 0x5EA CALLDATASIZE PUSH1 0x4 PUSH2 0xA7CE JUMP JUMPDEST PUSH2 0x13F7 JUMP JUMPDEST PUSH1 0x40 MLOAD SWAP1 DUP2 MSTORE PUSH1 0x20 ADD PUSH2 0x590 JUMP JUMPDEST PUSH2 0x610 PUSH2 0x60B CALLDATASIZE PUSH1 0x4 PUSH2 0xA83D JUMP JUMPDEST PUSH2 0x1422 JUMP JUMPDEST PUSH1 0x40 MLOAD PUSH2 0x590 SWAP2 SWAP1 PUSH2 0xA979 JUMP JUMPDEST PUSH2 0x5CC PUSH2 0x62B CALLDATASIZE PUSH1 0x4 PUSH2 0xAAF2 JUMP JUMPDEST DUP1 MLOAD PUSH1 0x20 DUP2 DUP4 ADD DUP2 ADD DUP1 MLOAD PUSH1 0x6 DUP3 MSTORE SWAP3 DUP3 ADD SWAP2 SWAP1 SWAP4 ADD KECCAK256 SWAP2 MSTORE SLOAD PUSH1 0xFF AND DUP2 JUMP JUMPDEST PUSH2 0x682 PUSH2 0x659 CALLDATASIZE PUSH1 0x4 PUSH2 0xAB41 JUMP JUMPDEST PUSH1 0x11 PUSH1 0x20 SWAP1 DUP2 MSTORE PUSH0 SWAP3 DUP4 MSTORE PUSH1 0x40 DUP1 DUP5 KECCAK256 SWAP1 SWAP2 MSTORE SWAP1 DUP3 MSTORE SWAP1 KECCAK256 DUP1 SLOAD PUSH1 0x1 SWAP1 SWAP2 ADD SLOAD PUSH1 0xFF SWAP1 SWAP2 AND SWAP1 DUP3 JUMP JUMPDEST PUSH1 0x40 DUP1 MLOAD SWAP3 ISZERO ISZERO DUP4 MSTORE PUSH1 0x20 DUP4 ADD SWAP2 SWAP1 SWAP2 MSTORE ADD PUSH2 0x590 JUMP JUMPDEST PUSH2 0x6A1 PUSH2 0x15B6 JUMP JUMPDEST PUSH1 0x40 MLOAD PUSH2 0x590 SWAP2 SWAP1 PUSH2 0xAB69 JUMP JUMPDEST PUSH2 0x6C1 PUSH2 0x6BC CALLDATASIZE PUSH1 0x4 PUSH2 0xA83D JUMP JUMPDEST PUSH2 0x1630 JUMP JUMPDEST PUSH1 0x40 MLOAD PUSH2 0x590 SWAP2 SWAP1 PUSH2 0xAC45 JUMP JUMPDEST PUSH2 0x6E1 PUSH2 0x6DC CALLDATASIZE PUSH1 0x4 PUSH2 0xACD9 JUMP JUMPDEST PUSH2 0x1840 JUMP JUMPDEST STOP JUMPDEST PUSH2 0x6F6 PUSH2 0x6F1 CALLDATASIZE PUSH1 0x4 PUSH2 0xA83D JUMP JUMPDEST PUSH2 0x1879 JUMP JUMPDEST PUSH1 0x40 MLOAD PUSH1 0x1 PUSH1 0x1 PUSH1 0xA0 SHL SUB SWAP1 SWAP2 AND DUP2 MSTORE PUSH1 0x20 ADD PUSH2 0x590 JUMP JUMPDEST PUSH2 0x721 PUSH2 0x71C CALLDATASIZE PUSH1 0x4 PUSH2 0xAD0A JUMP JUMPDEST PUSH2 0x18A1 JUMP JUMPDEST PUSH1 0x40 MLOAD PUSH2 0x590 SWAP2 SWAP1 PUSH2 0xB0D6 JUMP JUMPDEST PUSH2 0x6E1 PUSH2 0x73C CALLDATASIZE PUSH1 0x4 PUSH2 0xB0E8 JUMP JUMPDEST PUSH2 0x1982 JUMP JUMPDEST PUSH2 0x5EF PUSH2 0x74F CALLDATASIZE PUSH1 0x4 PUSH2 0xA7CE JUMP JUMPDEST PUSH2 0x1A41 JUMP JUMPDEST PUSH2 0x5CC PUSH2 0x762 CALLDATASIZE PUSH1 0x4 PUSH2 0xA83D JUMP JUMPDEST CALLER PUSH0 SWAP1 DUP2 MSTORE PUSH1 0x18 PUSH1 0x20 SWAP1 DUP2 MSTORE PUSH1 0x40 DUP1 DUP4 KECCAK256 SWAP4 DUP4 MSTORE SWAP3 SWAP1 MSTORE KECCAK256 SLOAD PUSH1 0xFF AND SWAP1 JUMP JUMPDEST PUSH2 0x794 PUSH2 0x78F CALLDATASIZE PUSH1 0x4 PUSH2 0xB117 JUMP JUMPDEST PUSH2 0x1A5A JUMP JUMPDEST PUSH1 0x40 MLOAD PUSH2 0x590 SWAP2 SWAP1 PUSH2 0xB15A JUMP JUMPDEST PUSH2 0x5CC PUSH2 0x7AF CALLDATASIZE PUSH1 0x4 PUSH2 0xAD0A JUMP JUMPDEST PUSH2 0x1A93 JUMP JUMPDEST PUSH2 0x7C7 PUSH2 0x7C2 CALLDATASIZE PUSH1 0x4 PUSH2 0xA83D JUMP JUMPDEST PUSH2 0x1BDC JUMP JUMPDEST PUSH1 0x40 MLOAD PUSH2 0x590 SWAP5 SWAP4 SWAP3 SWAP2 SWAP1 PUSH2 0xB16C JUMP JUMPDEST PUSH2 0x5EF PUSH2 0x7E5 CALLDATASIZE PUSH1 0x4 PUSH2 0xAB41 JUMP JUMPDEST PUSH2 0x2262 JUMP JUMPDEST PUSH2 0x5EF PUSH2 0x7F8 CALLDATASIZE PUSH1 0x4 PUSH2 0xB6CC JUMP JUMPDEST PUSH2 0x227B JUMP JUMPDEST PUSH2 0x6E1 PUSH2 0x80B CALLDATASIZE PUSH1 0x4 PUSH2 0xA7CE JUMP JUMPDEST PUSH2 0x2EAD JUMP JUMPDEST PUSH1 0x23 SLOAD PUSH2 0x6F6 SWAP1 PUSH1 0x1 PUSH1 0x1 PUSH1 0xA0 SHL SUB AND DUP2 JUMP JUMPDEST PUSH2 0x5CC PUSH2 0x831 CALLDATASIZE PUSH1 0x4 PUSH2 0xB725 JUMP JUMPDEST PUSH2 0x3044 JUMP JUMPDEST PUSH2 0x5CC PUSH2 0x844 CALLDATASIZE PUSH1 0x4 PUSH2 0xA7CE JUMP JUMPDEST PUSH2 0x3165 JUMP JUMPDEST PUSH2 0x6E1 PUSH2 0x857 CALLDATASIZE PUSH1 0x4 PUSH2 0xB74E JUMP JUMPDEST PUSH2 0x33C7 JUMP JUMPDEST PUSH2 0x6C1 PUSH2 0x86A CALLDATASIZE PUSH1 0x4 PUSH2 0xA83D JUMP JUMPDEST PUSH2 0x346F JUMP JUMPDEST PUSH2 0x5EF PUSH1 0x20 SLOAD DUP2 JUMP JUMPDEST PUSH2 0x5CC PUSH2 0x886 CALLDATASIZE PUSH1 0x4 PUSH2 0xA83D JUMP JUMPDEST PUSH2 0x3681 JUMP JUMPDEST PUSH2 0x5CC PUSH2 0x899 CALLDATASIZE PUSH1 0x4 PUSH2 0xAD0A JUMP JUMPDEST PUSH2 0x3735 JUMP JUMPDEST PUSH2 0x5CC PUSH2 0x8AC CALLDATASIZE PUSH1 0x4 PUSH2 0xB962 JUMP JUMPDEST PUSH2 0x3787 JUMP JUMPDEST PUSH2 0x918 PUSH2 0x8BF CALLDATASIZE PUSH1 0x4 PUSH2 0xA7CE JUMP JUMPDEST PUSH1 0x7 PUSH1 0x20 SWAP1 DUP2 MSTORE PUSH0 SWAP3 DUP4 MSTORE PUSH1 0x40 DUP1 DUP5 KECCAK256 DUP3 MSTORE SWAP2 DUP4 MSTORE SWAP2 DUP2 SWAP1 KECCAK256 DUP1 SLOAD DUP3 MLOAD PUSH1 0xA0 DUP2 ADD DUP5 MSTORE PUSH1 0x1 DUP4 ADD SLOAD DUP2 MSTORE PUSH1 0x2 DUP4 ADD SLOAD SWAP5 DUP2 ADD SWAP5 SWAP1 SWAP5 MSTORE PUSH1 0x3 DUP3 ADD SLOAD SWAP3 DUP5 ADD SWAP3 SWAP1 SWAP3 MSTORE PUSH1 0x4 DUP2 ADD SLOAD PUSH1 0x60 DUP5 ADD MSTORE PUSH1 0x5 ADD SLOAD PUSH1 0x80 DUP4 ADD MSTORE SWAP1 DUP3 JUMP JUMPDEST PUSH1 0x40 MLOAD PUSH2 0x590 SWAP3 SWAP2 SWAP1 PUSH2 0xB99B JUMP JUMPDEST PUSH2 0x5CC PUSH2 0x934 CALLDATASIZE PUSH1 0x4 PUSH2 0xA7CE JUMP JUMPDEST PUSH2 0x380D JUMP JUMPDEST PUSH1 0x22 SLOAD PUSH2 0x6F6 SWAP1 PUSH1 0x1 PUSH1 0x1 PUSH1 0xA0 SHL SUB AND DUP2 JUMP JUMPDEST PUSH2 0x954 PUSH2 0x39A6 JUMP JUMPDEST PUSH1 0x40 MLOAD PUSH2 0x590 SWAP2 SWAP1 PUSH2 0xB9DA JUMP JUMPDEST PUSH2 0x5CC PUSH2 0x96F CALLDATASIZE PUSH1 0x4 PUSH2 0xAD0A JUMP JUMPDEST PUSH2 0x3BB4 JUMP JUMPDEST PUSH2 0x5CC PUSH2 0x982 CALLDATASIZE PUSH1 0x4 PUSH2 0xAB41 JUMP JUMPDEST PUSH1 0x18 PUSH1 0x20 SWAP1 DUP2 MSTORE PUSH0 SWAP3 DUP4 MSTORE PUSH1 0x40 DUP1 DUP5 KECCAK256 SWAP1 SWAP2 MSTORE SWAP1 DUP3 MSTORE SWAP1 KECCAK256 SLOAD PUSH1 0xFF AND DUP2 JUMP JUMPDEST PUSH2 0x5CC PUSH2 0x9AF CALLDATASIZE PUSH1 0x4 PUSH2 0xAB41 JUMP JUMPDEST PUSH1 0x2 PUSH1 0x20 SWAP1 DUP2 MSTORE PUSH0 SWAP3 DUP4 MSTORE PUSH1 0x40 DUP1 DUP5 KECCAK256 SWAP1 SWAP2 MSTORE SWAP1 DUP3 MSTORE SWAP1 KECCAK256 SLOAD PUSH1 0xFF AND DUP2 JUMP JUMPDEST PUSH2 0x721 PUSH2 0x3C07 JUMP JUMPDEST PUSH2 0x6E1 PUSH2 0x9E4 CALLDATASIZE PUSH1 0x4 PUSH2 0xBA3D JUMP JUMPDEST PUSH2 0x3CAB JUMP JUMPDEST PUSH2 0x9FC PUSH2 0x9F7 CALLDATASIZE PUSH1 0x4 PUSH2 0xB725 JUMP JUMPDEST PUSH2 0x3D2F JUMP JUMPDEST PUSH1 0x40 MLOAD PUSH2 0x590 SWAP4 SWAP3 SWAP2 SWAP1 PUSH2 0xBB32 JUMP JUMPDEST PUSH2 0x5CC PUSH2 0xA19 CALLDATASIZE PUSH1 0x4 PUSH2 0xBB66 JUMP JUMPDEST PUSH2 0x3E86 JUMP JUMPDEST PUSH2 0xA31 PUSH2 0xA2C CALLDATASIZE PUSH1 0x4 PUSH2 0xACD9 JUMP JUMPDEST PUSH2 0x3F08 JUMP JUMPDEST PUSH1 0x40 MLOAD PUSH2 0x590 SWAP2 SWAP1 PUSH2 0xBBD0 JUMP JUMPDEST PUSH2 0xA51 PUSH2 0xA4C CALLDATASIZE PUSH1 0x4 PUSH2 0xBBE2 JUMP JUMPDEST PUSH2 0x3FD0 JUMP JUMPDEST PUSH1 0x40 MLOAD PUSH2 0x590 SWAP2 SWAP1 PUSH2 0xBC1B JUMP JUMPDEST PUSH2 0xA71 PUSH2 0xA6C CALLDATASIZE PUSH1 0x4 PUSH2 0xAB41 JUMP JUMPDEST PUSH2 0x4081 JUMP JUMPDEST PUSH1 0x40 DUP1 MLOAD SWAP3 DUP4 MSTORE PUSH1 0x20 DUP4 ADD SWAP2 SWAP1 SWAP2 MSTORE ADD PUSH2 0x590 JUMP JUMPDEST PUSH2 0xA99 PUSH2 0xA94 CALLDATASIZE PUSH1 0x4 PUSH2 0xA83D JUMP JUMPDEST PUSH2 0x40B9 JUMP JUMPDEST PUSH1 0x40 MLOAD PUSH2 0x590 SWAP7 SWAP6 SWAP5 SWAP4 SWAP3 SWAP2 SWAP1 PUSH2 0xBC89 JUMP JUMPDEST PUSH2 0xABE PUSH2 0xAB9 CALLDATASIZE PUSH1 0x4 PUSH2 0xAD0A JUMP JUMPDEST PUSH2 0x4229 JUMP JUMPDEST PUSH1 0x40 MLOAD PUSH2 0x590 SWAP2 SWAP1 PUSH2 0xBD0A JUMP JUMPDEST PUSH2 0x5CC PUSH2 0xAD9 CALLDATASIZE PUSH1 0x4 PUSH2 0xAD0A JUMP JUMPDEST PUSH2 0x4991 JUMP JUMPDEST PUSH2 0x6C1 PUSH2 0x4A26 JUMP JUMPDEST PUSH2 0xAF9 PUSH2 0xAF4 CALLDATASIZE PUSH1 0x4 PUSH2 0xA83D JUMP JUMPDEST PUSH2 0x4C2D JUMP JUMPDEST PUSH1 0x40 MLOAD PUSH2 0x590 SWAP2 SWAP1 PUSH2 0xBD61 JUMP JUMPDEST PUSH2 0x5EF PUSH2 0xB14 CALLDATASIZE PUSH1 0x4 PUSH2 0xA83D JUMP JUMPDEST PUSH2 0x5664 JUMP JUMPDEST PUSH2 0xB2C PUSH2 0xB27 CALLDATASIZE PUSH1 0x4 PUSH2 0xA83D JUMP JUMPDEST PUSH2 0x5683 JUMP JUMPDEST PUSH1 0x40 MLOAD PUSH2 0x590 SWAP2 SWAP1 PUSH2 0xBD73 JUMP JUMPDEST PUSH2 0xB41 PUSH2 0x57AB JUMP JUMPDEST PUSH1 0x40 MLOAD PUSH2 0x590 SWAP2 SWAP1 PUSH2 0xBD85 JUMP JUMPDEST PUSH2 0x5EF PUSH2 0xB5C CALLDATASIZE PUSH1 0x4 PUSH2 0xA83D JUMP JUMPDEST PUSH2 0x5876 JUMP JUMPDEST PUSH2 0x6E1 PUSH2 0xB6F CALLDATASIZE PUSH1 0x4 PUSH2 0xA83D JUMP JUMPDEST PUSH2 0x5885 JUMP JUMPDEST PUSH2 0x5EF PUSH2 0xB82 CALLDATASIZE PUSH1 0x4 PUSH2 0xA7CE JUMP JUMPDEST PUSH1 0x14 PUSH1 0x20 SWAP1 DUP2 MSTORE PUSH0 SWAP3 DUP4 MSTORE PUSH1 0x40 DUP1 DUP5 KECCAK256 SWAP1 SWAP2 MSTORE SWAP1 DUP3 MSTORE SWAP1 KECCAK256 SLOAD DUP2 JUMP JUMPDEST PUSH2 0x5CC PUSH2 0xBAC CALLDATASIZE PUSH1 0x4 PUSH2 0xAD0A JUMP JUMPDEST PUSH2 0x5C55 JUMP JUMPDEST PUSH0 SLOAD PUSH2 0x6F6 SWAP1 PUSH1 0x1 PUSH1 0x1 PUSH1 0xA0 SHL SUB AND DUP2 JUMP JUMPDEST PUSH2 0x9FC PUSH2 0xBD1 CALLDATASIZE PUSH1 0x4 PUSH2 0xA83D JUMP JUMPDEST PUSH2 0x5CA7 JUMP JUMPDEST PUSH2 0x5CC PUSH2 0xBE4 CALLDATASIZE PUSH1 0x4 PUSH2 0xB725 JUMP JUMPDEST PUSH2 0x5CC8 JUMP JUMPDEST PUSH2 0x5CC PUSH2 0xBF7 CALLDATASIZE PUSH1 0x4 PUSH2 0xBD97 JUMP JUMPDEST PUSH2 0x5D42 JUMP JUMPDEST PUSH2 0x5CC PUSH2 0xC0A CALLDATASIZE PUSH1 0x4 PUSH2 0xAD0A JUMP JUMPDEST PUSH1 0x1A PUSH1 0x20 MSTORE PUSH0 SWAP1 DUP2 MSTORE PUSH1 0x40 SWAP1 KECCAK256 SLOAD PUSH1 0xFF AND DUP2 JUMP JUMPDEST PUSH2 0x5EF PUSH2 0xC2C CALLDATASIZE PUSH1 0x4 PUSH2 0xBE19 JUMP JUMPDEST PUSH2 0x5DD8 JUMP JUMPDEST PUSH2 0x9FC PUSH2 0xC3F CALLDATASIZE PUSH1 0x4 PUSH2 0xA83D JUMP JUMPDEST PUSH2 0x609B JUMP JUMPDEST PUSH2 0x5CC PUSH2 0xC52 CALLDATASIZE PUSH1 0x4 PUSH2 0xBE97 JUMP JUMPDEST PUSH2 0x60BC JUMP JUMPDEST PUSH2 0x6E1 PUSH2 0xC65 CALLDATASIZE PUSH1 0x4 PUSH2 0xB117 JUMP JUMPDEST PUSH2 0x69FA JUMP JUMPDEST PUSH2 0x5CC PUSH2 0xC78 CALLDATASIZE PUSH1 0x4 PUSH2 0xBEF8 JUMP JUMPDEST PUSH2 0x6A56 JUMP JUMPDEST PUSH2 0x6E1 PUSH2 0xC8B CALLDATASIZE PUSH1 0x4 PUSH2 0xBEF8 JUMP JUMPDEST PUSH2 0x6B89 JUMP JUMPDEST PUSH2 0x5EF PUSH1 0x1E SLOAD DUP2 JUMP JUMPDEST PUSH2 0x5CC PUSH2 0xCA7 CALLDATASIZE PUSH1 0x4 PUSH2 0xAD0A JUMP JUMPDEST PUSH1 0x1 PUSH1 0x20 MSTORE PUSH0 SWAP1 DUP2 MSTORE PUSH1 0x40 SWAP1 KECCAK256 SLOAD PUSH1 0xFF AND DUP2 JUMP JUMPDEST PUSH2 0x5EF PUSH2 0xCC9 CALLDATASIZE PUSH1 0x4 PUSH2 0xA7CE JUMP JUMPDEST PUSH2 0x6CA3 JUMP JUMPDEST PUSH2 0x5EF PUSH1 0x21 SLOAD DUP2 JUMP JUMPDEST PUSH2 0x9FC PUSH2 0xCE5 CALLDATASIZE PUSH1 0x4 PUSH2 0xA83D JUMP JUMPDEST PUSH2 0x6CBC JUMP JUMPDEST PUSH1 0x24 SLOAD PUSH2 0x6F6 SWAP1 PUSH1 0x1 PUSH1 0x1 PUSH1 0xA0 SHL SUB AND DUP2 JUMP JUMPDEST PUSH2 0x5EF PUSH1 0x1F SLOAD DUP2 JUMP JUMPDEST PUSH2 0xD19 PUSH2 0xD14 CALLDATASIZE PUSH1 0x4 PUSH2 0xA83D JUMP JUMPDEST PUSH2 0x6CDD JUMP JUMPDEST PUSH1 0x40 MLOAD PUSH2 0x590 SWAP2 SWAP1 PUSH2 0xBF45 JUMP JUMPDEST PUSH2 0x5EF PUSH2 0xD34 CALLDATASIZE PUSH1 0x4 PUSH2 0xA7CE JUMP JUMPDEST PUSH2 0x7397 JUMP JUMPDEST PUSH2 0xABE PUSH2 0x73B0 JUMP JUMPDEST PUSH2 0x5EF PUSH2 0xD4F CALLDATASIZE PUSH1 0x4 PUSH2 0xA83D JUMP JUMPDEST PUSH2 0x7B05 JUMP JUMPDEST PUSH2 0xD92 PUSH2 0xD62 CALLDATASIZE PUSH1 0x4 PUSH2 0xA83D JUMP JUMPDEST PUSH1 0xF PUSH1 0x20 MSTORE PUSH0 SWAP1 DUP2 MSTORE PUSH1 0x40 SWAP1 KECCAK256 DUP1 SLOAD PUSH1 0x1 DUP3 ADD SLOAD PUSH1 0x2 DUP4 ADD SLOAD PUSH1 0x3 SWAP1 SWAP4 ADD SLOAD SWAP2 SWAP3 PUSH1 0x1 PUSH1 0x1 PUSH1 0xA0 SHL SUB SWAP1 SWAP2 AND SWAP2 DUP5 JUMP JUMPDEST PUSH1 0x40 DUP1 MLOAD SWAP5 DUP6 MSTORE PUSH1 0x1 PUSH1 0x1 PUSH1 0xA0 SHL SUB SWAP1 SWAP4 AND PUSH1 0x20 DUP6 ADD MSTORE SWAP2 DUP4 ADD MSTORE PUSH1 0x60 DUP3 ADD MSTORE PUSH1 0x80 ADD PUSH2 0x590 JUMP JUMPDEST PUSH2 0x6A1 PUSH2 0xDC8 CALLDATASIZE PUSH1 0x4 PUSH2 0xAD0A JUMP JUMPDEST PUSH2 0x7B14 JUMP JUMPDEST PUSH2 0x5CC PUSH2 0xDDB CALLDATASIZE PUSH1 0x4 PUSH2 0xAD0A JUMP JUMPDEST PUSH2 0x7B99 JUMP JUMPDEST PUSH2 0x5EF PUSH2 0xDEE CALLDATASIZE PUSH1 0x4 PUSH2 0xA7CE JUMP JUMPDEST PUSH2 0x7BEB JUMP JUMPDEST PUSH2 0x6E1 PUSH2 0xE01 CALLDATASIZE PUSH1 0x4 PUSH2 0xA83D JUMP JUMPDEST PUSH2 0x7C04 JUMP JUMPDEST PUSH2 0x5CC PUSH2 0xE14 CALLDATASIZE PUSH1 0x4 PUSH2 0xA7CE JUMP JUMPDEST PUSH2 0x7E77 JUMP JUMPDEST PUSH2 0xE2C PUSH2 0xE27 CALLDATASIZE PUSH1 0x4 PUSH2 0xA83D JUMP JUMPDEST PUSH2 0x802B JUMP JUMPDEST PUSH1 0x40 MLOAD PUSH2 0x590 SWAP9 SWAP8 SWAP7 SWAP6 SWAP5 SWAP4 SWAP3 SWAP2 SWAP1 PUSH2 0xBF57 JUMP JUMPDEST PUSH2 0x6E1 PUSH2 0xE4E CALLDATASIZE PUSH1 0x4 PUSH2 0xA83D JUMP JUMPDEST PUSH2 0x8186 JUMP JUMPDEST PUSH2 0xABE PUSH2 0x83CE JUMP JUMPDEST PUSH2 0x5CC PUSH2 0xE69 CALLDATASIZE PUSH1 0x4 PUSH2 0xBFBE JUMP JUMPDEST PUSH2 0x8BD4 JUMP JUMPDEST PUSH2 0x6E1 PUSH2 0xE7C CALLDATASIZE PUSH1 0x4 PUSH2 0xACD9 JUMP JUMPDEST PUSH2 0x8D28 JUMP JUMPDEST PUSH2 0x5CC PUSH2 0xE8F CALLDATASIZE PUSH1 0x4 PUSH2 0xA83D JUMP JUMPDEST PUSH2 0x8D5D JUMP JUMPDEST PUSH2 0x6E1 PUSH2 0xEA2 CALLDATASIZE PUSH1 0x4 PUSH2 0xBD97 JUMP JUMPDEST PUSH2 0x8E0C JUMP JUMPDEST PUSH2 0x5CC PUSH2 0xEB5 CALLDATASIZE PUSH1 0x4 PUSH2 0xBFF7 JUMP JUMPDEST PUSH2 0x8EEF JUMP JUMPDEST PUSH2 0xECD PUSH2 0xEC8 CALLDATASIZE PUSH1 0x4 PUSH2 0xA83D JUMP JUMPDEST PUSH2 0x8FC7 JUMP JUMPDEST PUSH1 0x40 MLOAD PUSH2 0x590 SWAP2 SWAP1 PUSH2 0xC126 JUMP JUMPDEST PUSH2 0x5CC PUSH2 0xEE8 CALLDATASIZE PUSH1 0x4 PUSH2 0xAB41 JUMP JUMPDEST PUSH1 0x1C PUSH1 0x20 SWAP1 DUP2 MSTORE PUSH0 SWAP3 DUP4 MSTORE PUSH1 0x40 DUP1 DUP5 KECCAK256 SWAP1 SWAP2 MSTORE SWAP1 DUP3 MSTORE SWAP1 KECCAK256 SLOAD PUSH1 0xFF AND DUP2 JUMP JUMPDEST PUSH2 0xF1A PUSH2 0xF15 CALLDATASIZE PUSH1 0x4 PUSH2 0xC146 JUMP JUMPDEST PUSH2 0x9136 JUMP JUMPDEST PUSH1 0x40 MLOAD PUSH2 0x590 SWAP3 SWAP2 SWAP1 PUSH2 0xC232 JUMP JUMPDEST PUSH2 0x5EF PUSH1 0x1D SLOAD DUP2 JUMP JUMPDEST PUSH2 0x794 PUSH2 0xF3F CALLDATASIZE PUSH1 0x4 PUSH2 0xA83D JUMP JUMPDEST PUSH2 0x978A JUMP JUMPDEST PUSH2 0xF9A PUSH2 0xF52 CALLDATASIZE PUSH1 0x4 PUSH2 0xA83D JUMP JUMPDEST PUSH1 0x40 DUP1 MLOAD DUP1 DUP3 ADD DUP3 MSTORE PUSH0 DUP1 DUP3 MSTORE PUSH1 0x20 SWAP2 DUP3 ADD DUP2 SWAP1 MSTORE CALLER DUP2 MSTORE PUSH1 0x11 DUP3 MSTORE DUP3 DUP2 KECCAK256 SWAP4 DUP2 MSTORE SWAP3 DUP2 MSTORE SWAP2 DUP2 SWAP1 KECCAK256 DUP2 MLOAD DUP1 DUP4 ADD SWAP1 SWAP3 MSTORE DUP1 SLOAD PUSH1 0xFF AND ISZERO ISZERO DUP3 MSTORE PUSH1 0x1 ADD SLOAD SWAP2 DUP2 ADD SWAP2 SWAP1 SWAP2 MSTORE SWAP1 JUMP JUMPDEST PUSH1 0x40 DUP1 MLOAD DUP3 MLOAD ISZERO ISZERO DUP2 MSTORE PUSH1 0x20 SWAP3 DUP4 ADD MLOAD SWAP3 DUP2 ADD SWAP3 SWAP1 SWAP3 MSTORE ADD PUSH2 0x590 JUMP JUMPDEST PUSH2 0x5CC PUSH2 0xFC5 CALLDATASIZE PUSH1 0x4 PUSH2 0xA83D JUMP JUMPDEST PUSH2 0x9830 JUMP JUMPDEST PUSH2 0xFD2 PUSH2 0xA4B9 JUMP JUMPDEST POP PUSH0 DUP3 DUP2 MSTORE PUSH1 0x7 PUSH1 0x20 SWAP1 DUP2 MSTORE PUSH1 0x40 DUP1 DUP4 KECCAK256 DUP5 DUP5 MSTORE DUP3 MSTORE SWAP2 DUP3 SWAP1 KECCAK256 DUP3 MLOAD DUP1 DUP5 ADD DUP5 MSTORE DUP2 SLOAD DUP2 MSTORE DUP4 MLOAD PUSH1 0xA0 DUP2 ADD DUP6 MSTORE PUSH1 0x1 DUP4 ADD SLOAD DUP2 MSTORE PUSH1 0x2 DUP4 ADD SLOAD DUP2 DUP6 ADD MSTORE PUSH1 0x3 DUP4 ADD SLOAD SWAP5 DUP2 ADD SWAP5 SWAP1 SWAP5 MSTORE PUSH1 0x4 DUP3 ADD SLOAD PUSH1 0x60 DUP6 ADD MSTORE PUSH1 0x5 SWAP1 SWAP2 ADD SLOAD PUSH1 0x80 DUP5 ADD MSTORE SWAP1 DUP2 ADD SWAP2 SWAP1 SWAP2 MSTORE JUMPDEST SWAP3 SWAP2 POP POP JUMP JUMPDEST PUSH0 DUP2 DUP2 MSTORE PUSH1 0x12 PUSH1 0x20 MSTORE PUSH1 0x40 DUP2 KECCAK256 DUP1 SLOAD PUSH1 0x60 SWAP3 SWAP1 PUSH1 0x1 PUSH1 0x1 PUSH1 0x40 SHL SUB DUP2 GT ISZERO PUSH2 0x1068 JUMPI PUSH2 0x1068 PUSH2 0xA98B JUMP JUMPDEST PUSH1 0x40 MLOAD SWAP1 DUP1 DUP3 MSTORE DUP1 PUSH1 0x20 MUL PUSH1 0x20 ADD DUP3 ADD PUSH1 0x40 MSTORE DUP1 ISZERO PUSH2 0x10A1 JUMPI DUP2 PUSH1 0x20 ADD JUMPDEST PUSH2 0x108E PUSH2 0xA4FF JUMP JUMPDEST DUP2 MSTORE PUSH1 0x20 ADD SWAP1 PUSH1 0x1 SWAP1 SUB SWAP1 DUP2 PUSH2 0x1086 JUMPI SWAP1 POP JUMPDEST POP SWAP1 POP PUSH0 JUMPDEST DUP3 SLOAD DUP2 LT ISZERO PUSH2 0x127A JUMPI PUSH1 0x13 PUSH0 DUP5 DUP4 DUP2 SLOAD DUP2 LT PUSH2 0x10C4 JUMPI PUSH2 0x10C4 PUSH2 0xC255 JUMP JUMPDEST PUSH0 SWAP2 DUP3 MSTORE PUSH1 0x20 DUP1 DUP4 KECCAK256 SWAP1 SWAP2 ADD SLOAD DUP4 MSTORE DUP3 DUP2 ADD SWAP4 SWAP1 SWAP4 MSTORE PUSH1 0x40 SWAP2 DUP3 ADD SWAP1 KECCAK256 DUP2 MLOAD PUSH2 0x100 DUP2 ADD DUP4 MSTORE DUP2 SLOAD DUP2 MSTORE PUSH1 0x1 DUP3 ADD SLOAD PUSH1 0x1 PUSH1 0x1 PUSH1 0xA0 SHL SUB AND SWAP4 DUP2 ADD SWAP4 SWAP1 SWAP4 MSTORE PUSH1 0x2 DUP2 ADD DUP1 SLOAD SWAP2 SWAP3 DUP5 ADD SWAP2 PUSH2 0x1117 SWAP1 PUSH2 0xC269 JUMP JUMPDEST DUP1 PUSH1 0x1F ADD PUSH1 0x20 DUP1 SWAP2 DIV MUL PUSH1 0x20 ADD PUSH1 0x40 MLOAD SWAP1 DUP2 ADD PUSH1 0x40 MSTORE DUP1 SWAP3 SWAP2 SWAP1 DUP2 DUP2 MSTORE PUSH1 0x20 ADD DUP3 DUP1 SLOAD PUSH2 0x1143 SWAP1 PUSH2 0xC269 JUMP JUMPDEST DUP1 ISZERO PUSH2 0x118E JUMPI DUP1 PUSH1 0x1F LT PUSH2 0x1165 JUMPI PUSH2 0x100 DUP1 DUP4 SLOAD DIV MUL DUP4 MSTORE SWAP2 PUSH1 0x20 ADD SWAP2 PUSH2 0x118E JUMP JUMPDEST DUP3 ADD SWAP2 SWAP1 PUSH0 MSTORE PUSH1 0x20 PUSH0 KECCAK256 SWAP1 JUMPDEST DUP2 SLOAD DUP2 MSTORE SWAP1 PUSH1 0x1 ADD SWAP1 PUSH1 0x20 ADD DUP1 DUP4 GT PUSH2 0x1171 JUMPI DUP3 SWAP1 SUB PUSH1 0x1F AND DUP3 ADD SWAP2 JUMPDEST POP POP POP POP POP DUP2 MSTORE PUSH1 0x20 ADD PUSH1 0x3 DUP3 ADD DUP1 SLOAD PUSH2 0x11A7 SWAP1 PUSH2 0xC269 JUMP JUMPDEST DUP1 PUSH1 0x1F ADD PUSH1 0x20 DUP1 SWAP2 DIV MUL PUSH1 0x20 ADD PUSH1 0x40 MLOAD SWAP1 DUP2 ADD PUSH1 0x40 MSTORE DUP1 SWAP3 SWAP2 SWAP1 DUP2 DUP2 MSTORE PUSH1 0x20 ADD DUP3 DUP1 SLOAD PUSH2 0x11D3 SWAP1 PUSH2 0xC269 JUMP JUMPDEST DUP1 ISZERO PUSH2 0x121E JUMPI DUP1 PUSH1 0x1F LT PUSH2 0x11F5 JUMPI PUSH2 0x100 DUP1 DUP4 SLOAD DIV MUL DUP4 MSTORE SWAP2 PUSH1 0x20 ADD SWAP2 PUSH2 0x121E JUMP JUMPDEST DUP3 ADD SWAP2 SWAP1 PUSH0 MSTORE PUSH1 0x20 PUSH0 KECCAK256 SWAP1 JUMPDEST DUP2 SLOAD DUP2 MSTORE SWAP1 PUSH1 0x1 ADD SWAP1 PUSH1 0x20 ADD DUP1 DUP4 GT PUSH2 0x1201 JUMPI DUP3 SWAP1 SUB PUSH1 0x1F AND DUP3 ADD SWAP2 JUMPDEST POP POP POP SWAP2 DUP4 MSTORE POP POP PUSH1 0x4 DUP3 ADD SLOAD PUSH1 0xFF AND PUSH1 0x20 DUP3 ADD MSTORE PUSH1 0x5 DUP3 ADD SLOAD PUSH1 0x40 DUP3 ADD MSTORE PUSH1 0x6 DUP3 ADD SLOAD PUSH1 0x60 DUP3 ADD MSTORE PUSH1 0x7 SWAP1 SWAP2 ADD SLOAD PUSH1 0x80 SWAP1 SWAP2 ADD MSTORE DUP3 MLOAD DUP4 SWAP1 DUP4 SWAP1 DUP2 LT PUSH2 0x1267 JUMPI PUSH2 0x1267 PUSH2 0xC255 JUMP JUMPDEST PUSH1 0x20 SWAP1 DUP2 MUL SWAP2 SWAP1 SWAP2 ADD ADD MSTORE PUSH1 0x1 ADD PUSH2 0x10A6 JUMP JUMPDEST POP SWAP4 SWAP3 POP POP POP JUMP JUMPDEST PUSH0 DUP1 SLOAD PUSH1 0x1 PUSH1 0x1 PUSH1 0xA0 SHL SUB AND CALLER DUP2 EQ PUSH2 0x12B6 JUMPI PUSH1 0x40 MLOAD PUSH3 0x461BCD PUSH1 0xE5 SHL DUP2 MSTORE PUSH1 0x4 ADD PUSH2 0x12AD SWAP1 PUSH2 0xC29B JUMP JUMPDEST PUSH1 0x40 MLOAD DUP1 SWAP2 SUB SWAP1 REVERT JUMPDEST PUSH0 JUMPDEST PUSH1 0x17 SLOAD DUP2 LT ISZERO PUSH2 0x135C JUMPI DUP4 PUSH1 0x17 DUP3 DUP2 SLOAD DUP2 LT PUSH2 0x12D6 JUMPI PUSH2 0x12D6 PUSH2 0xC255 JUMP JUMPDEST SWAP1 PUSH0 MSTORE PUSH1 0x20 PUSH0 KECCAK256 ADD SLOAD SUB PUSH2 0x1354 JUMPI PUSH1 0x17 DUP1 SLOAD PUSH2 0x12F4 SWAP1 PUSH1 0x1 SWAP1 PUSH2 0xC30B JUMP JUMPDEST DUP2 SLOAD DUP2 LT PUSH2 0x1304 JUMPI PUSH2 0x1304 PUSH2 0xC255 JUMP JUMPDEST SWAP1 PUSH0 MSTORE PUSH1 0x20 PUSH0 KECCAK256 ADD SLOAD PUSH1 0x17 DUP3 DUP2 SLOAD DUP2 LT PUSH2 0x1320 JUMPI PUSH2 0x1320 PUSH2 0xC255 JUMP JUMPDEST PUSH0 SWAP2 DUP3 MSTORE PUSH1 0x20 SWAP1 SWAP2 KECCAK256 ADD SSTORE PUSH1 0x17 DUP1 SLOAD DUP1 PUSH2 0x133C JUMPI PUSH2 0x133C PUSH2 0xC31E JUMP JUMPDEST PUSH1 0x1 SWAP1 SUB DUP2 DUP2 SWAP1 PUSH0 MSTORE PUSH1 0x20 PUSH0 KECCAK256 ADD PUSH0 SWAP1 SSTORE SWAP1 SSTORE PUSH2 0x135C JUMP JUMPDEST PUSH1 0x1 ADD PUSH2 0x12B8 JUMP JUMPDEST POP PUSH0 DUP4 DUP2 MSTORE PUSH1 0x15 PUSH1 0x20 MSTORE PUSH1 0x40 DUP2 KECCAK256 DUP2 DUP2 SSTORE SWAP1 PUSH2 0x137B PUSH1 0x1 DUP4 ADD DUP3 PUSH2 0xA54A JUMP JUMPDEST PUSH2 0x1388 PUSH1 0x2 DUP4 ADD PUSH0 PUSH2 0xA54A JUMP JUMPDEST POP POP PUSH1 0x24 PUSH0 SWAP1 SLOAD SWAP1 PUSH2 0x100 EXP SWAP1 DIV PUSH1 0x1 PUSH1 0x1 PUSH1 0xA0 SHL SUB AND PUSH1 0x1 PUSH1 0x1 PUSH1 0xA0 SHL SUB AND PUSH4 0x6F2069F0 PUSH1 0x40 MLOAD DUP2 PUSH4 0xFFFFFFFF AND PUSH1 0xE0 SHL DUP2 MSTORE PUSH1 0x4 ADD PUSH0 PUSH1 0x40 MLOAD DUP1 DUP4 SUB DUP2 PUSH0 DUP8 DUP1 EXTCODESIZE ISZERO DUP1 ISZERO PUSH2 0x13D6 JUMPI PUSH0 DUP1 REVERT JUMPDEST POP GAS CALL ISZERO DUP1 ISZERO PUSH2 0x13E8 JUMPI RETURNDATASIZE PUSH0 DUP1 RETURNDATACOPY RETURNDATASIZE PUSH0 REVERT JUMPDEST POP POP POP POP PUSH1 0x1 SWAP2 POP JUMPDEST POP SWAP2 SWAP1 POP JUMP JUMPDEST PUSH1 0x12 PUSH1 0x20 MSTORE DUP2 PUSH0 MSTORE PUSH1 0x40 PUSH0 KECCAK256 DUP2 DUP2 SLOAD DUP2 LT PUSH2 0x1410 JUMPI PUSH0 DUP1 REVERT JUMPDEST SWAP1 PUSH0 MSTORE PUSH1 0x20 PUSH0 KECCAK256 ADD PUSH0 SWAP2 POP SWAP2 POP POP SLOAD DUP2 JUMP JUMPDEST PUSH2 0x142A PUSH2 0xA4FF JUMP JUMPDEST PUSH0 DUP3 DUP2 MSTORE PUSH1 0x13 PUSH1 0x20 SWAP1 DUP2 MSTORE PUSH1 0x40 SWAP2 DUP3 SWAP1 KECCAK256 DUP3 MLOAD PUSH2 0x100 DUP2 ADD DUP5 MSTORE DUP2 SLOAD DUP2 MSTORE PUSH1 0x1 DUP3 ADD SLOAD PUSH1 0x1 PUSH1 0x1 PUSH1 0xA0 SHL SUB AND SWAP3 DUP2 ADD SWAP3 SWAP1 SWAP3 MSTORE PUSH1 0x2 DUP2 ADD DUP1 SLOAD SWAP3 SWAP4 SWAP2 SWAP3 SWAP2 DUP5 ADD SWAP2 PUSH2 0x1474 SWAP1 PUSH2 0xC269 JUMP JUMPDEST DUP1 PUSH1 0x1F ADD PUSH1 0x20 DUP1 SWAP2 DIV MUL PUSH1 0x20 ADD PUSH1 0x40 MLOAD SWAP1 DUP2 ADD PUSH1 0x40 MSTORE DUP1 SWAP3 SWAP2 SWAP1 DUP2 DUP2 MSTORE PUSH1 0x20 ADD DUP3 DUP1 SLOAD PUSH2 0x14A0 SWAP1 PUSH2 0xC269 JUMP JUMPDEST DUP1 ISZERO PUSH2 0x14EB JUMPI DUP1 PUSH1 0x1F LT PUSH2 0x14C2 JUMPI PUSH2 0x100 DUP1 DUP4 SLOAD DIV MUL DUP4 MSTORE SWAP2 PUSH1 0x20 ADD SWAP2 PUSH2 0x14EB JUMP JUMPDEST DUP3 ADD SWAP2 SWAP1 PUSH0 MSTORE PUSH1 0x20 PUSH0 KECCAK256 SWAP1 JUMPDEST DUP2 SLOAD DUP2 MSTORE SWAP1 PUSH1 0x1 ADD SWAP1 PUSH1 0x20 ADD DUP1 DUP4 GT PUSH2 0x14CE JUMPI DUP3 SWAP1 SUB PUSH1 0x1F AND DUP3 ADD SWAP2 JUMPDEST POP POP POP POP POP DUP2 MSTORE PUSH1 0x20 ADD PUSH1 0x3 DUP3 ADD DUP1 SLOAD PUSH2 0x1504 SWAP1 PUSH2 0xC269 JUMP JUMPDEST DUP1 PUSH1 0x1F ADD PUSH1 0x20 DUP1 SWAP2 DIV MUL PUSH1 0x20 ADD PUSH1 0x40 MLOAD SWAP1 DUP2 ADD PUSH1 0x40 MSTORE DUP1 SWAP3 SWAP2 SWAP1 DUP2 DUP2 MSTORE PUSH1 0x20 ADD DUP3 DUP1 SLOAD PUSH2 0x1530 SWAP1 PUSH2 0xC269 JUMP JUMPDEST DUP1 ISZERO PUSH2 0x157B JUMPI DUP1 PUSH1 0x1F LT PUSH2 0x1552 JUMPI PUSH2 0x100 DUP1 DUP4 SLOAD DIV MUL DUP4 MSTORE SWAP2 PUSH1 0x20 ADD SWAP2 PUSH2 0x157B JUMP JUMPDEST DUP3 ADD SWAP2 SWAP1 PUSH0 MSTORE PUSH1 0x20 PUSH0 KECCAK256 SWAP1 JUMPDEST DUP2 SLOAD DUP2 MSTORE SWAP1 PUSH1 0x1 ADD SWAP1 PUSH1 0x20 ADD DUP1 DUP4 GT PUSH2 0x155E JUMPI DUP3 SWAP1 SUB PUSH1 0x1F AND DUP3 ADD SWAP2 JUMPDEST POP POP POP SWAP2 DUP4 MSTORE POP POP PUSH1 0x4 DUP3 ADD SLOAD PUSH1 0xFF AND PUSH1 0x20 DUP3 ADD MSTORE PUSH1 0x5 DUP3 ADD SLOAD PUSH1 0x40 DUP3 ADD MSTORE PUSH1 0x6 DUP3 ADD SLOAD PUSH1 0x60 DUP3 ADD MSTORE PUSH1 0x7 SWAP1 SWAP2 ADD SLOAD PUSH1 0x80 SWAP1 SWAP2 ADD MSTORE SWAP3 SWAP2 POP POP JUMP JUMPDEST CALLER PUSH0 SWAP1 DUP2 MSTORE PUSH1 0x19 PUSH1 0x20 SWAP1 DUP2 MSTORE PUSH1 0x40 DUP1 DUP4 KECCAK256 DUP1 SLOAD DUP3 MLOAD DUP2 DUP6 MUL DUP2 ADD DUP6 ADD SWAP1 SWAP4 MSTORE DUP1 DUP4 MSTORE PUSH1 0x60 SWAP5 SWAP3 SWAP4 SWAP2 SWAP3 SWAP1 SWAP2 DUP5 ADD JUMPDEST DUP3 DUP3 LT ISZERO PUSH2 0x1627 JUMPI DUP4 DUP3 SWAP1 PUSH0 MSTORE PUSH1 0x20 PUSH0 KECCAK256 SWAP1 PUSH1 0x2 MUL ADD PUSH1 0x40 MLOAD DUP1 PUSH1 0x40 ADD PUSH1 0x40 MSTORE SWAP1 DUP2 PUSH0 DUP3 ADD SLOAD DUP2 MSTORE PUSH1 0x20 ADD PUSH1 0x1 DUP3 ADD SLOAD DUP2 MSTORE POP POP DUP2 MSTORE PUSH1 0x20 ADD SWAP1 PUSH1 0x1 ADD SWAP1 PUSH2 0x15E4 JUMP JUMPDEST POP POP POP POP SWAP1 POP SWAP1 JUMP JUMPDEST PUSH0 DUP2 DUP2 MSTORE PUSH1 0x16 PUSH1 0x20 MSTORE PUSH1 0x40 DUP2 KECCAK256 DUP1 SLOAD PUSH1 0x60 SWAP3 SWAP1 PUSH1 0x1 PUSH1 0x1 PUSH1 0x40 SHL SUB DUP2 GT ISZERO PUSH2 0x165A JUMPI PUSH2 0x165A PUSH2 0xA98B JUMP JUMPDEST PUSH1 0x40 MLOAD SWAP1 DUP1 DUP3 MSTORE DUP1 PUSH1 0x20 MUL PUSH1 0x20 ADD DUP3 ADD PUSH1 0x40 MSTORE DUP1 ISZERO PUSH2 0x16AE JUMPI DUP2 PUSH1 0x20 ADD JUMPDEST PUSH2 0x169B PUSH1 0x40 MLOAD DUP1 PUSH1 0x60 ADD PUSH1 0x40 MSTORE DUP1 PUSH0 DUP2 MSTORE PUSH1 0x20 ADD PUSH1 0x60 DUP2 MSTORE PUSH1 0x20 ADD PUSH1 0x60 DUP2 MSTORE POP SWAP1 JUMP JUMPDEST DUP2 MSTORE PUSH1 0x20 ADD SWAP1 PUSH1 0x1 SWAP1 SUB SWAP1 DUP2 PUSH2 0x1678 JUMPI SWAP1 POP JUMPDEST POP SWAP1 POP PUSH0 JUMPDEST DUP3 SLOAD DUP2 LT ISZERO PUSH2 0x127A JUMPI PUSH1 0x15 PUSH0 DUP5 DUP4 DUP2 SLOAD DUP2 LT PUSH2 0x16D1 JUMPI PUSH2 0x16D1 PUSH2 0xC255 JUMP JUMPDEST SWAP1 PUSH0 MSTORE PUSH1 0x20 PUSH0 KECCAK256 ADD SLOAD DUP2 MSTORE PUSH1 0x20 ADD SWAP1 DUP2 MSTORE PUSH1 0x20 ADD PUSH0 KECCAK256 PUSH1 0x40 MLOAD DUP1 PUSH1 0x60 ADD PUSH1 0x40 MSTORE SWAP1 DUP2 PUSH0 DUP3 ADD SLOAD DUP2 MSTORE PUSH1 0x20 ADD PUSH1 0x1 DUP3 ADD DUP1 SLOAD PUSH2 0x170B SWAP1 PUSH2 0xC269 JUMP JUMPDEST DUP1 PUSH1 0x1F ADD PUSH1 0x20 DUP1 SWAP2 DIV MUL PUSH1 0x20 ADD PUSH1 0x40 MLOAD SWAP1 DUP2 ADD PUSH1 0x40 MSTORE DUP1 SWAP3 SWAP2 SWAP1 DUP2 DUP2 MSTORE PUSH1 0x20 ADD DUP3 DUP1 SLOAD PUSH2 0x1737 SWAP1 PUSH2 0xC269 JUMP JUMPDEST DUP1 ISZERO PUSH2 0x1782 JUMPI DUP1 PUSH1 0x1F LT PUSH2 0x1759 JUMPI PUSH2 0x100 DUP1 DUP4 SLOAD DIV MUL DUP4 MSTORE SWAP2 PUSH1 0x20 ADD SWAP2 PUSH2 0x1782 JUMP JUMPDEST DUP3 ADD SWAP2 SWAP1 PUSH0 MSTORE PUSH1 0x20 PUSH0 KECCAK256 SWAP1 JUMPDEST DUP2 SLOAD DUP2 MSTORE SWAP1 PUSH1 0x1 ADD SWAP1 PUSH1 0x20 ADD DUP1 DUP4 GT PUSH2 0x1765 JUMPI DUP3 SWAP1 SUB PUSH1 0x1F AND DUP3 ADD SWAP2 JUMPDEST POP POP POP POP POP DUP2 MSTORE PUSH1 0x20 ADD PUSH1 0x2 DUP3 ADD DUP1 SLOAD PUSH2 0x179B SWAP1 PUSH2 0xC269 JUMP JUMPDEST DUP1 PUSH1 0x1F ADD PUSH1 0x20 DUP1 SWAP2 DIV MUL PUSH1 0x20 ADD PUSH1 0x40 MLOAD SWAP1 DUP2 ADD PUSH1 0x40 MSTORE DUP1 SWAP3 SWAP2 SWAP1 DUP2 DUP2 MSTORE PUSH1 0x20 ADD DUP3 DUP1 SLOAD PUSH2 0x17C7 SWAP1 PUSH2 0xC269 JUMP JUMPDEST DUP1 ISZERO PUSH2 0x1812 JUMPI DUP1 PUSH1 0x1F LT PUSH2 0x17E9 JUMPI PUSH2 0x100 DUP1 DUP4 SLOAD DIV MUL DUP4 MSTORE SWAP2 PUSH1 0x20 ADD SWAP2 PUSH2 0x1812 JUMP JUMPDEST DUP3 ADD SWAP2 SWAP1 PUSH0 MSTORE PUSH1 0x20 PUSH0 KECCAK256 SWAP1 JUMPDEST DUP2 SLOAD DUP2 MSTORE SWAP1 PUSH1 0x1 ADD SWAP1 PUSH1 0x20 ADD DUP1 DUP4 GT PUSH2 0x17F5 JUMPI DUP3 SWAP1 SUB PUSH1 0x1F AND DUP3 ADD SWAP2 JUMPDEST POP POP POP POP POP DUP2 MSTORE POP POP DUP3 DUP3 DUP2 MLOAD DUP2 LT PUSH2 0x182D JUMPI PUSH2 0x182D PUSH2 0xC255 JUMP JUMPDEST PUSH1 0x20 SWAP1 DUP2 MUL SWAP2 SWAP1 SWAP2 ADD ADD MSTORE PUSH1 0x1 ADD PUSH2 0x16B3 JUMP JUMPDEST PUSH0 JUMPDEST DUP2 MLOAD DUP2 LT ISZERO PUSH2 0x1875 JUMPI PUSH2 0x186D DUP3 DUP3 DUP2 MLOAD DUP2 LT PUSH2 0x1860 JUMPI PUSH2 0x1860 PUSH2 0xC255 JUMP JUMPDEST PUSH1 0x20 MUL PUSH1 0x20 ADD ADD MLOAD PUSH2 0x8186 JUMP JUMPDEST PUSH1 0x1 ADD PUSH2 0x1842 JUMP JUMPDEST POP POP JUMP JUMPDEST PUSH1 0x1B DUP2 DUP2 SLOAD DUP2 LT PUSH2 0x1888 JUMPI PUSH0 DUP1 REVERT JUMPDEST PUSH0 SWAP2 DUP3 MSTORE PUSH1 0x20 SWAP1 SWAP2 KECCAK256 ADD SLOAD PUSH1 0x1 PUSH1 0x1 PUSH1 0xA0 SHL SUB AND SWAP1 POP DUP2 JUMP JUMPDEST PUSH1 0x1 PUSH1 0x1 PUSH1 0xA0 SHL SUB DUP2 AND PUSH0 SWAP1 DUP2 MSTORE PUSH1 0xB PUSH1 0x20 MSTORE PUSH1 0x40 SWAP1 KECCAK256 SLOAD PUSH1 0x60 SWAP1 DUP1 PUSH1 0x1 PUSH1 0x1 PUSH1 0x40 SHL SUB DUP2 GT ISZERO PUSH2 0x18D4 JUMPI PUSH2 0x18D4 PUSH2 0xA98B JUMP JUMPDEST PUSH1 0x40 MLOAD SWAP1 DUP1 DUP3 MSTORE DUP1 PUSH1 0x20 MUL PUSH1 0x20 ADD DUP3 ADD PUSH1 0x40 MSTORE DUP1 ISZERO PUSH2 0x190D JUMPI DUP2 PUSH1 0x20 ADD JUMPDEST PUSH2 0x18FA PUSH2 0xA584 JUMP JUMPDEST DUP2 MSTORE PUSH1 0x20 ADD SWAP1 PUSH1 0x1 SWAP1 SUB SWAP1 DUP2 PUSH2 0x18F2 JUMPI SWAP1 POP JUMPDEST POP SWAP2 POP PUSH0 JUMPDEST DUP2 DUP2 LT ISZERO PUSH2 0x197B JUMPI PUSH1 0x1 PUSH1 0x1 PUSH1 0xA0 SHL SUB DUP5 AND PUSH0 SWAP1 DUP2 MSTORE PUSH1 0xB PUSH1 0x20 MSTORE PUSH1 0x40 SWAP1 KECCAK256 DUP1 SLOAD PUSH2 0x1956 SWAP2 SWAP1 DUP4 SWAP1 DUP2 LT PUSH2 0x1948 JUMPI PUSH2 0x1948 PUSH2 0xC255 JUMP JUMPDEST SWAP1 PUSH0 MSTORE PUSH1 0x20 PUSH0 KECCAK256 ADD SLOAD PUSH2 0x4C2D JUMP JUMPDEST DUP4 DUP3 DUP2 MLOAD DUP2 LT PUSH2 0x1968 JUMPI PUSH2 0x1968 PUSH2 0xC255 JUMP JUMPDEST PUSH1 0x20 SWAP1 DUP2 MUL SWAP2 SWAP1 SWAP2 ADD ADD MSTORE PUSH1 0x1 ADD PUSH2 0x1912 JUMP JUMPDEST POP POP SWAP2 SWAP1 POP JUMP JUMPDEST PUSH0 DUP5 DUP2 MSTORE PUSH1 0x7 PUSH1 0x20 SWAP1 DUP2 MSTORE PUSH1 0x40 DUP1 DUP4 KECCAK256 DUP7 DUP5 MSTORE DUP3 MSTORE SWAP2 DUP3 SWAP1 KECCAK256 SLOAD DUP3 MLOAD DUP1 DUP5 ADD SWAP1 SWAP4 MSTORE PUSH1 0x11 DUP4 MSTORE PUSH17 0x125B9D985B1A59081D985C9A585B9D1251 PUSH1 0x7A SHL SWAP2 DUP4 ADD SWAP2 SWAP1 SWAP2 MSTORE ISZERO ISZERO SWAP1 PUSH2 0x19D3 SWAP1 PUSH1 0x33 SWAP1 PUSH2 0x1A5A JUMP JUMPDEST SWAP1 PUSH2 0x19F1 JUMPI PUSH1 0x40 MLOAD PUSH3 0x461BCD PUSH1 0xE5 SHL DUP2 MSTORE PUSH1 0x4 ADD PUSH2 0x12AD SWAP2 SWAP1 PUSH2 0xB15A JUMP JUMPDEST POP PUSH0 DUP5 DUP2 MSTORE PUSH1 0x3 PUSH1 0x20 DUP2 DUP2 MSTORE PUSH1 0x40 DUP1 DUP5 KECCAK256 TIMESTAMP PUSH1 0x19 DUP3 ADD SSTORE PUSH1 0x7 DUP4 MSTORE DUP2 DUP6 KECCAK256 DUP9 DUP7 MSTORE DUP4 MSTORE SWAP1 DUP5 KECCAK256 PUSH1 0x5 ADD DUP7 SWAP1 SSTORE DUP8 DUP5 MSTORE SWAP2 SWAP1 MSTORE PUSH1 0x17 ADD DUP1 SLOAD DUP4 SWAP3 SWAP1 PUSH2 0x1A36 SWAP1 DUP5 SWAP1 PUSH2 0xC332 JUMP JUMPDEST SWAP1 SWAP2 SSTORE POP POP POP POP POP POP JUMP JUMPDEST PUSH1 0x16 PUSH1 0x20 MSTORE DUP2 PUSH0 MSTORE PUSH1 0x40 PUSH0 KECCAK256 DUP2 DUP2 SLOAD DUP2 LT PUSH2 0x1410 JUMPI PUSH0 DUP1 REVERT JUMPDEST PUSH1 0x60 PUSH0 PUSH2 0x1A66 DUP5 PUSH2 0x98F7 JUMP JUMPDEST SWAP1 POP DUP1 DUP4 PUSH1 0x40 MLOAD PUSH1 0x20 ADD PUSH2 0x1A7B SWAP3 SWAP2 SWAP1 PUSH2 0xC35C JUMP JUMPDEST PUSH1 0x40 MLOAD PUSH1 0x20 DUP2 DUP4 SUB SUB DUP2 MSTORE SWAP1 PUSH1 0x40 MSTORE SWAP2 POP POP SWAP3 SWAP2 POP POP JUMP JUMPDEST PUSH0 DUP1 SLOAD PUSH1 0x1 PUSH1 0x1 PUSH1 0xA0 SHL SUB AND CALLER DUP2 EQ PUSH2 0x1ABE JUMPI PUSH1 0x40 MLOAD PUSH3 0x461BCD PUSH1 0xE5 SHL DUP2 MSTORE PUSH1 0x4 ADD PUSH2 0x12AD SWAP1 PUSH2 0xC29B JUMP JUMPDEST PUSH1 0x1 PUSH1 0x1 PUSH1 0xA0 SHL SUB DUP4 AND PUSH0 SWAP1 DUP2 MSTORE PUSH1 0x1A PUSH1 0x20 MSTORE PUSH1 0x40 DUP2 KECCAK256 DUP1 SLOAD PUSH1 0xFF NOT AND SWAP1 SSTORE JUMPDEST PUSH1 0x1B SLOAD DUP2 LT ISZERO PUSH2 0x1BD2 JUMPI DUP4 PUSH1 0x1 PUSH1 0x1 PUSH1 0xA0 SHL SUB AND PUSH1 0x1B DUP3 DUP2 SLOAD DUP2 LT PUSH2 0x1B05 JUMPI PUSH2 0x1B05 PUSH2 0xC255 JUMP JUMPDEST PUSH0 SWAP2 DUP3 MSTORE PUSH1 0x20 SWAP1 SWAP2 KECCAK256 ADD SLOAD PUSH1 0x1 PUSH1 0x1 PUSH1 0xA0 SHL SUB AND SUB PUSH2 0x1BCA JUMPI PUSH1 0x1B DUP1 SLOAD PUSH2 0x1B2E SWAP1 PUSH1 0x1 SWAP1 PUSH2 0xC30B JUMP JUMPDEST DUP2 SLOAD DUP2 LT PUSH2 0x1B3E JUMPI PUSH2 0x1B3E PUSH2 0xC255 JUMP JUMPDEST PUSH0 SWAP2 DUP3 MSTORE PUSH1 0x20 SWAP1 SWAP2 KECCAK256 ADD SLOAD PUSH1 0x1B DUP1 SLOAD PUSH1 0x1 PUSH1 0x1 PUSH1 0xA0 SHL SUB SWAP1 SWAP3 AND SWAP2 DUP4 SWAP1 DUP2 LT PUSH2 0x1B69 JUMPI PUSH2 0x1B69 PUSH2 0xC255 JUMP JUMPDEST SWAP1 PUSH0 MSTORE PUSH1 0x20 PUSH0 KECCAK256 ADD PUSH0 PUSH2 0x100 EXP DUP2 SLOAD DUP2 PUSH1 0x1 PUSH1 0x1 PUSH1 0xA0 SHL SUB MUL NOT AND SWAP1 DUP4 PUSH1 0x1 PUSH1 0x1 PUSH1 0xA0 SHL SUB AND MUL OR SWAP1 SSTORE POP PUSH1 0x1B DUP1 SLOAD DUP1 PUSH2 0x1BA5 JUMPI PUSH2 0x1BA5 PUSH2 0xC31E JUMP JUMPDEST PUSH0 DUP3 DUP2 MSTORE PUSH1 0x20 SWAP1 KECCAK256 DUP2 ADD PUSH0 NOT SWAP1 DUP2 ADD DUP1 SLOAD PUSH1 0x1 PUSH1 0x1 PUSH1 0xA0 SHL SUB NOT AND SWAP1 SSTORE ADD SWAP1 SSTORE PUSH2 0x1BD2 JUMP JUMPDEST PUSH1 0x1 ADD PUSH2 0x1ADE JUMP JUMPDEST POP PUSH1 0x1 SWAP4 SWAP3 POP POP POP JUMP JUMPDEST PUSH1 0x3 PUSH1 0x20 MSTORE PUSH0 SWAP1 DUP2 MSTORE PUSH1 0x40 SWAP1 DUP2 SWAP1 KECCAK256 DUP1 SLOAD DUP3 MLOAD PUSH2 0x300 DUP2 ADD SWAP1 SWAP4 MSTORE PUSH1 0x1 DUP3 ADD DUP1 SLOAD SWAP2 SWAP4 SWAP2 DUP3 SWAP1 DUP3 SWAP1 PUSH2 0x1C0D SWAP1 PUSH2 0xC269 JUMP JUMPDEST DUP1 PUSH1 0x1F ADD PUSH1 0x20 DUP1 SWAP2 DIV MUL PUSH1 0x20 ADD PUSH1 0x40 MLOAD SWAP1 DUP2 ADD PUSH1 0x40 MSTORE DUP1 SWAP3 SWAP2 SWAP1 DUP2 DUP2 MSTORE PUSH1 0x20 ADD DUP3 DUP1 SLOAD PUSH2 0x1C39 SWAP1 PUSH2 0xC269 JUMP JUMPDEST DUP1 ISZERO PUSH2 0x1C84 JUMPI DUP1 PUSH1 0x1F LT PUSH2 0x1C5B JUMPI PUSH2 0x100 DUP1 DUP4 SLOAD DIV MUL DUP4 MSTORE SWAP2 PUSH1 0x20 ADD SWAP2 PUSH2 0x1C84 JUMP JUMPDEST DUP3 ADD SWAP2 SWAP1 PUSH0 MSTORE PUSH1 0x20 PUSH0 KECCAK256 SWAP1 JUMPDEST DUP2 SLOAD DUP2 MSTORE SWAP1 PUSH1 0x1 ADD SWAP1 PUSH1 0x20 ADD DUP1 DUP4 GT PUSH2 0x1C67 JUMPI DUP3 SWAP1 SUB PUSH1 0x1F AND DUP3 ADD SWAP2 JUMPDEST POP POP POP POP POP DUP2 MSTORE PUSH1 0x20 ADD PUSH1 0x1 DUP3 ADD SLOAD DUP2 MSTORE PUSH1 0x20 ADD PUSH1 0x2 DUP3 ADD DUP1 SLOAD PUSH2 0x1CA7 SWAP1 PUSH2 0xC269 JUMP JUMPDEST DUP1 PUSH1 0x1F ADD PUSH1 0x20 DUP1 SWAP2 DIV MUL PUSH1 0x20 ADD PUSH1 0x40 MLOAD SWAP1 DUP2 ADD PUSH1 0x40 MSTORE DUP1 SWAP3 SWAP2 SWAP1 DUP2 DUP2 MSTORE PUSH1 0x20 ADD DUP3 DUP1 SLOAD PUSH2 0x1CD3 SWAP1 PUSH2 0xC269 JUMP JUMPDEST DUP1 ISZERO PUSH2 0x1D1E JUMPI DUP1 PUSH1 0x1F LT PUSH2 0x1CF5 JUMPI PUSH2 0x100 DUP1 DUP4 SLOAD DIV MUL DUP4 MSTORE SWAP2 PUSH1 0x20 ADD SWAP2 PUSH2 0x1D1E JUMP JUMPDEST DUP3 ADD SWAP2 SWAP1 PUSH0 MSTORE PUSH1 0x20 PUSH0 KECCAK256 SWAP1 JUMPDEST DUP2 SLOAD DUP2 MSTORE SWAP1 PUSH1 0x1 ADD SWAP1 PUSH1 0x20 ADD DUP1 DUP4 GT PUSH2 0x1D01 JUMPI DUP3 SWAP1 SUB PUSH1 0x1F AND DUP3 ADD SWAP2 JUMPDEST POP POP POP POP POP DUP2 MSTORE PUSH1 0x20 ADD PUSH1 0x3 DUP3 ADD SLOAD DUP2 MSTORE PUSH1 0x20 ADD PUSH1 0x4 DUP3 ADD SLOAD DUP2 MSTORE PUSH1 0x20 ADD PUSH1 0x5 DUP3 ADD SLOAD DUP2 MSTORE PUSH1 0x20 ADD PUSH1 0x6 DUP3 ADD SLOAD DUP2 MSTORE PUSH1 0x20 ADD PUSH1 0x7 DUP3 ADD DUP1 SLOAD DUP1 PUSH1 0x20 MUL PUSH1 0x20 ADD PUSH1 0x40 MLOAD SWAP1 DUP2 ADD PUSH1 0x40 MSTORE DUP1 SWAP3 SWAP2 SWAP1 DUP2 DUP2 MSTORE PUSH1 0x20 ADD DUP3 DUP1 SLOAD DUP1 ISZERO PUSH2 0x1D9C JUMPI PUSH1 0x20 MUL DUP3 ADD SWAP2 SWAP1 PUSH0 MSTORE PUSH1 0x20 PUSH0 KECCAK256 SWAP1 JUMPDEST DUP2 SLOAD DUP2 MSTORE PUSH1 0x20 ADD SWAP1 PUSH1 0x1 ADD SWAP1 DUP1 DUP4 GT PUSH2 0x1D88 JUMPI JUMPDEST POP POP POP POP POP DUP2 MSTORE PUSH1 0x20 ADD PUSH1 0x8 DUP3 ADD DUP1 SLOAD DUP1 PUSH1 0x20 MUL PUSH1 0x20 ADD PUSH1 0x40 MLOAD SWAP1 DUP2 ADD PUSH1 0x40 MSTORE DUP1 SWAP3 SWAP2 SWAP1 DUP2 DUP2 MSTORE PUSH1 0x20 ADD PUSH0 SWAP1 JUMPDEST DUP3 DUP3 LT ISZERO PUSH2 0x1E71 JUMPI DUP4 DUP3 SWAP1 PUSH0 MSTORE PUSH1 0x20 PUSH0 KECCAK256 ADD DUP1 SLOAD PUSH2 0x1DE6 SWAP1 PUSH2 0xC269 JUMP JUMPDEST DUP1 PUSH1 0x1F ADD PUSH1 0x20 DUP1 SWAP2 DIV MUL PUSH1 0x20 ADD PUSH1 0x40 MLOAD SWAP1 DUP2 ADD PUSH1 0x40 MSTORE DUP1 SWAP3 SWAP2 SWAP1 DUP2 DUP2 MSTORE PUSH1 0x20 ADD DUP3 DUP1 SLOAD PUSH2 0x1E12 SWAP1 PUSH2 0xC269 JUMP JUMPDEST DUP1 ISZERO PUSH2 0x1E5D JUMPI DUP1 PUSH1 0x1F LT PUSH2 0x1E34 JUMPI PUSH2 0x100 DUP1 DUP4 SLOAD DIV MUL DUP4 MSTORE SWAP2 PUSH1 0x20 ADD SWAP2 PUSH2 0x1E5D JUMP JUMPDEST DUP3 ADD SWAP2 SWAP1 PUSH0 MSTORE PUSH1 0x20 PUSH0 KECCAK256 SWAP1 JUMPDEST DUP2 SLOAD DUP2 MSTORE SWAP1 PUSH1 0x1 ADD SWAP1 PUSH1 0x20 ADD DUP1 DUP4 GT PUSH2 0x1E40 JUMPI DUP3 SWAP1 SUB PUSH1 0x1F AND DUP3 ADD SWAP2 JUMPDEST POP POP POP POP POP DUP2 MSTORE PUSH1 0x20 ADD SWAP1 PUSH1 0x1 ADD SWAP1 PUSH2 0x1DC9 JUMP JUMPDEST POP POP POP POP DUP2 MSTORE PUSH1 0x20 ADD PUSH1 0x9 DUP3 ADD SLOAD DUP2 MSTORE PUSH1 0x20 ADD PUSH1 0xA DUP3 ADD SLOAD DUP2 MSTORE PUSH1 0x20 ADD PUSH1 0xB DUP3 ADD DUP1 SLOAD DUP1 PUSH1 0x20 MUL PUSH1 0x20 ADD PUSH1 0x40 MLOAD SWAP1 DUP2 ADD PUSH1 0x40 MSTORE DUP1 SWAP3 SWAP2 SWAP1 DUP2 DUP2 MSTORE PUSH1 0x20 ADD PUSH0 SWAP1 JUMPDEST DUP3 DUP3 LT ISZERO PUSH2 0x1F59 JUMPI DUP4 DUP3 SWAP1 PUSH0 MSTORE PUSH1 0x20 PUSH0 KECCAK256 ADD DUP1 SLOAD PUSH2 0x1ECE SWAP1 PUSH2 0xC269 JUMP JUMPDEST DUP1 PUSH1 0x1F ADD PUSH1 0x20 DUP1 SWAP2 DIV MUL PUSH1 0x20 ADD PUSH1 0x40 MLOAD SWAP1 DUP2 ADD PUSH1 0x40 MSTORE DUP1 SWAP3 SWAP2 SWAP1 DUP2 DUP2 MSTORE PUSH1 0x20 ADD DUP3 DUP1 SLOAD PUSH2 0x1EFA SWAP1 PUSH2 0xC269 JUMP JUMPDEST DUP1 ISZERO PUSH2 0x1F45 JUMPI DUP1 PUSH1 0x1F LT PUSH2 0x1F1C JUMPI PUSH2 0x100 DUP1 DUP4 SLOAD DIV MUL DUP4 MSTORE SWAP2 PUSH1 0x20 ADD SWAP2 PUSH2 0x1F45 JUMP JUMPDEST DUP3 ADD SWAP2 SWAP1 PUSH0 MSTORE PUSH1 0x20 PUSH0 KECCAK256 SWAP1 JUMPDEST DUP2 SLOAD DUP2 MSTORE SWAP1 PUSH1 0x1 ADD SWAP1 PUSH1 0x20 ADD DUP1 DUP4 GT PUSH2 0x1F28 JUMPI DUP3 SWAP1 SUB PUSH1 0x1F AND DUP3 ADD SWAP2 JUMPDEST POP POP POP POP POP DUP2 MSTORE PUSH1 0x20 ADD SWAP1 PUSH1 0x1 ADD SWAP1 PUSH2 0x1EB1 JUMP JUMPDEST POP POP POP SWAP1 DUP3 MSTORE POP PUSH1 0xC DUP3 ADD SLOAD PUSH1 0x1 PUSH1 0x1 PUSH1 0xA0 SHL SUB AND PUSH1 0x20 DUP3 ADD MSTORE PUSH1 0xD DUP3 ADD DUP1 SLOAD PUSH1 0x40 SWAP1 SWAP3 ADD SWAP2 PUSH2 0x1F88 SWAP1 PUSH2 0xC269 JUMP JUMPDEST DUP1 PUSH1 0x1F ADD PUSH1 0x20 DUP1 SWAP2 DIV MUL PUSH1 0x20 ADD PUSH1 0x40 MLOAD SWAP1 DUP2 ADD PUSH1 0x40 MSTORE DUP1 SWAP3 SWAP2 SWAP1 DUP2 DUP2 MSTORE PUSH1 0x20 ADD DUP3 DUP1 SLOAD PUSH2 0x1FB4 SWAP1 PUSH2 0xC269 JUMP JUMPDEST DUP1 ISZERO PUSH2 0x1FFF JUMPI DUP1 PUSH1 0x1F LT PUSH2 0x1FD6 JUMPI PUSH2 0x100 DUP1 DUP4 SLOAD DIV MUL DUP4 MSTORE SWAP2 PUSH1 0x20 ADD SWAP2 PUSH2 0x1FFF JUMP JUMPDEST DUP3 ADD SWAP2 SWAP1 PUSH0 MSTORE PUSH1 0x20 PUSH0 KECCAK256 SWAP1 JUMPDEST DUP2 SLOAD DUP2 MSTORE SWAP1 PUSH1 0x1 ADD SWAP1 PUSH1 0x20 ADD DUP1 DUP4 GT PUSH2 0x1FE2 JUMPI DUP3 SWAP1 SUB PUSH1 0x1F AND DUP3 ADD SWAP2 JUMPDEST POP POP POP POP POP DUP2 MSTORE PUSH1 0x20 ADD PUSH1 0xE DUP3 ADD DUP1 SLOAD PUSH2 0x2018 SWAP1 PUSH2 0xC269 JUMP JUMPDEST DUP1 PUSH1 0x1F ADD PUSH1 0x20 DUP1 SWAP2 DIV MUL PUSH1 0x20 ADD PUSH1 0x40 MLOAD SWAP1 DUP2 ADD PUSH1 0x40 MSTORE DUP1 SWAP3 SWAP2 SWAP1 DUP2 DUP2 MSTORE PUSH1 0x20 ADD DUP3 DUP1 SLOAD PUSH2 0x2044 SWAP1 PUSH2 0xC269 JUMP JUMPDEST DUP1 ISZERO PUSH2 0x208F JUMPI DUP1 PUSH1 0x1F LT PUSH2 0x2066 JUMPI PUSH2 0x100 DUP1 DUP4 SLOAD DIV MUL DUP4 MSTORE SWAP2 PUSH1 0x20 ADD SWAP2 PUSH2 0x208F JUMP JUMPDEST DUP3 ADD SWAP2 SWAP1 PUSH0 MSTORE PUSH1 0x20 PUSH0 KECCAK256 SWAP1 JUMPDEST DUP2 SLOAD DUP2 MSTORE SWAP1 PUSH1 0x1 ADD SWAP1 PUSH1 0x20 ADD DUP1 DUP4 GT PUSH2 0x2072 JUMPI DUP3 SWAP1 SUB PUSH1 0x1F AND DUP3 ADD SWAP2 JUMPDEST POP POP POP SWAP2 DUP4 MSTORE POP POP PUSH1 0xF DUP3 ADD SLOAD PUSH1 0xFF AND ISZERO ISZERO PUSH1 0x20 DUP1 DUP4 ADD SWAP2 SWAP1 SWAP2 MSTORE PUSH1 0x10 DUP4 ADD DUP1 SLOAD PUSH1 0x40 DUP1 MLOAD DUP3 DUP6 MUL DUP2 ADD DUP6 ADD DUP3 MSTORE DUP3 DUP2 MSTORE SWAP5 ADD SWAP4 SWAP3 PUSH0 SWAP1 DUP5 ADD JUMPDEST DUP3 DUP3 LT ISZERO PUSH2 0x2171 JUMPI DUP4 DUP3 SWAP1 PUSH0 MSTORE PUSH1 0x20 PUSH0 KECCAK256 ADD DUP1 SLOAD PUSH2 0x20E6 SWAP1 PUSH2 0xC269 JUMP JUMPDEST DUP1 PUSH1 0x1F ADD PUSH1 0x20 DUP1 SWAP2 DIV MUL PUSH1 0x20 ADD PUSH1 0x40 MLOAD SWAP1 DUP2 ADD PUSH1 0x40 MSTORE DUP1 SWAP3 SWAP2 SWAP1 DUP2 DUP2 MSTORE PUSH1 0x20 ADD DUP3 DUP1 SLOAD PUSH2 0x2112 SWAP1 PUSH2 0xC269 JUMP JUMPDEST DUP1 ISZERO PUSH2 0x215D JUMPI DUP1 PUSH1 0x1F LT PUSH2 0x2134 JUMPI PUSH2 0x100 DUP1 DUP4 SLOAD DIV MUL DUP4 MSTORE SWAP2 PUSH1 0x20 ADD SWAP2 PUSH2 0x215D JUMP JUMPDEST DUP3 ADD SWAP2 SWAP1 PUSH0 MSTORE PUSH1 0x20 PUSH0 KECCAK256 SWAP1 JUMPDEST DUP2 SLOAD DUP2 MSTORE SWAP1 PUSH1 0x1 ADD SWAP1 PUSH1 0x20 ADD DUP1 DUP4 GT PUSH2 0x2140 JUMPI DUP3 SWAP1 SUB PUSH1 0x1F AND DUP3 ADD SWAP2 JUMPDEST POP POP POP POP POP DUP2 MSTORE PUSH1 0x20 ADD SWAP1 PUSH1 0x1 ADD SWAP1 PUSH2 0x20C9 JUMP JUMPDEST POP POP POP POP DUP2 MSTORE PUSH1 0x20 ADD PUSH1 0x11 DUP3 ADD DUP1 SLOAD PUSH2 0x2189 SWAP1 PUSH2 0xC269 JUMP JUMPDEST DUP1 PUSH1 0x1F ADD PUSH1 0x20 DUP1 SWAP2 DIV MUL PUSH1 0x20 ADD PUSH1 0x40 MLOAD SWAP1 DUP2 ADD PUSH1 0x40 MSTORE DUP1 SWAP3 SWAP2 SWAP1 DUP2 DUP2 MSTORE PUSH1 0x20 ADD DUP3 DUP1 SLOAD PUSH2 0x21B5 SWAP1 PUSH2 0xC269 JUMP JUMPDEST DUP1 ISZERO PUSH2 0x2200 JUMPI DUP1 PUSH1 0x1F LT PUSH2 0x21D7 JUMPI PUSH2 0x100 DUP1 DUP4 SLOAD DIV MUL DUP4 MSTORE SWAP2 PUSH1 0x20 ADD SWAP2 PUSH2 0x2200 JUMP JUMPDEST DUP3 ADD SWAP2 SWAP1 PUSH0 MSTORE PUSH1 0x20 PUSH0 KECCAK256 SWAP1 JUMPDEST DUP2 SLOAD DUP2 MSTORE SWAP1 PUSH1 0x1 ADD SWAP1 PUSH1 0x20 ADD DUP1 DUP4 GT PUSH2 0x21E3 JUMPI DUP3 SWAP1 SUB PUSH1 0x1F AND DUP3 ADD SWAP2 JUMPDEST POP POP POP SWAP2 DUP4 MSTORE POP POP PUSH1 0x12 DUP3 ADD SLOAD PUSH1 0x20 DUP3 ADD MSTORE PUSH1 0x13 DUP3 ADD SLOAD PUSH1 0x40 DUP3 ADD MSTORE PUSH1 0x14 DUP3 ADD SLOAD PUSH1 0x60 DUP3 ADD MSTORE PUSH1 0x15 DUP3 ADD SLOAD PUSH1 0xFF DUP1 DUP3 AND ISZERO ISZERO PUSH1 0x80 DUP5 ADD MSTORE PUSH2 0x100 SWAP1 SWAP2 DIV AND ISZERO ISZERO PUSH1 0xA0 DUP3 ADD MSTORE PUSH1 0x16 SWAP1 SWAP2 ADD SLOAD PUSH1 0xC0 SWAP1 SWAP2 ADD MSTORE PUSH1 0x18 DUP3 ADD SLOAD PUSH1 0x19 SWAP1 SWAP3 ADD SLOAD SWAP1 SWAP2 SWAP1 DUP5 JUMP JUMPDEST PUSH1 0xB PUSH1 0x20 MSTORE DUP2 PUSH0 MSTORE PUSH1 0x40 PUSH0 KECCAK256 DUP2 DUP2 SLOAD DUP2 LT PUSH2 0x1410 JUMPI PUSH0 DUP1 REVERT JUMPDEST CALLER PUSH0 SWAP1 DUP2 MSTORE PUSH1 0x1 PUSH1 0x20 MSTORE PUSH1 0x40 DUP2 KECCAK256 SLOAD PUSH1 0xFF AND DUP1 PUSH2 0x22FD JUMPI POP PUSH1 0x22 SLOAD PUSH1 0x40 MLOAD PUSH4 0x59D32027 PUSH1 0xE1 SHL DUP2 MSTORE CALLER PUSH1 0x4 DUP3 ADD MSTORE PUSH1 0x1 PUSH1 0x1 PUSH1 0xA0 SHL SUB SWAP1 SWAP2 AND SWAP1 PUSH4 0xB3A6404E SWAP1 PUSH1 0x24 ADD PUSH1 0x20 PUSH1 0x40 MLOAD DUP1 DUP4 SUB DUP2 DUP7 GAS STATICCALL ISZERO DUP1 ISZERO PUSH2 0x22D9 JUMPI RETURNDATASIZE PUSH0 DUP1 RETURNDATACOPY RETURNDATASIZE PUSH0 REVERT JUMPDEST POP POP POP POP PUSH1 0x40 MLOAD RETURNDATASIZE PUSH1 0x1F NOT PUSH1 0x1F DUP3 ADD AND DUP3 ADD DUP1 PUSH1 0x40 MSTORE POP DUP2 ADD SWAP1 PUSH2 0x22FD SWAP2 SWAP1 PUSH2 0xC3DC JUMP JUMPDEST PUSH2 0x232A PUSH1 0x37 PUSH1 0x40 MLOAD DUP1 PUSH1 0x40 ADD PUSH1 0x40 MSTORE DUP1 PUSH1 0x1B DUP2 MSTORE PUSH1 0x20 ADD PUSH0 DUP1 MLOAD PUSH1 0x20 PUSH2 0xCB0E DUP4 CODECOPY DUP2 MLOAD SWAP2 MSTORE DUP2 MSTORE POP PUSH2 0x1A5A JUMP JUMPDEST SWAP1 PUSH2 0x2348 JUMPI PUSH1 0x40 MLOAD PUSH3 0x461BCD PUSH1 0xE5 SHL DUP2 MSTORE PUSH1 0x4 ADD PUSH2 0x12AD SWAP2 SWAP1 PUSH2 0xB15A JUMP JUMPDEST POP PUSH1 0x1D DUP1 SLOAD SWAP1 PUSH0 PUSH2 0x2358 DUP4 PUSH2 0xC3F7 JUMP JUMPDEST SWAP2 SWAP1 POP SSTORE POP PUSH1 0xC PUSH0 DUP5 PUSH1 0x20 ADD MLOAD DUP2 MSTORE PUSH1 0x20 ADD SWAP1 DUP2 MSTORE PUSH1 0x20 ADD PUSH0 KECCAK256 PUSH0 ADD SLOAD PUSH0 EQ ISZERO PUSH2 0x23AD PUSH1 0x2 PUSH1 0x40 MLOAD DUP1 PUSH1 0x40 ADD PUSH1 0x40 MSTORE DUP1 PUSH1 0x12 DUP2 MSTORE PUSH1 0x20 ADD PUSH18 0x10D85D1959DBDC9E481B9BDD08199BDD5B99 PUSH1 0x72 SHL DUP2 MSTORE POP PUSH2 0x1A5A JUMP JUMPDEST SWAP1 PUSH2 0x23CB JUMPI PUSH1 0x40 MLOAD PUSH3 0x461BCD PUSH1 0xE5 SHL DUP2 MSTORE PUSH1 0x4 ADD PUSH2 0x12AD SWAP2 SWAP1 PUSH2 0xB15A JUMP JUMPDEST POP PUSH1 0x22 SLOAD PUSH2 0x180 DUP5 ADD MLOAD PUSH1 0x40 MLOAD PUSH4 0x59D32027 PUSH1 0xE1 SHL DUP2 MSTORE PUSH1 0x1 PUSH1 0x1 PUSH1 0xA0 SHL SUB SWAP2 DUP3 AND PUSH1 0x4 DUP3 ADD MSTORE SWAP2 AND SWAP1 PUSH4 0xB3A6404E SWAP1 PUSH1 0x24 ADD PUSH1 0x20 PUSH1 0x40 MLOAD DUP1 DUP4 SUB DUP2 DUP7 GAS STATICCALL ISZERO DUP1 ISZERO PUSH2 0x2419 JUMPI RETURNDATASIZE PUSH0 DUP1 RETURNDATACOPY RETURNDATASIZE PUSH0 REVERT JUMPDEST POP POP POP POP PUSH1 0x40 MLOAD RETURNDATASIZE PUSH1 0x1F NOT PUSH1 0x1F DUP3 ADD AND DUP3 ADD DUP1 PUSH1 0x40 MSTORE POP DUP2 ADD SWAP1 PUSH2 0x243D SWAP2 SWAP1 PUSH2 0xC3DC JUMP JUMPDEST PUSH2 0x2475 PUSH1 0x2C PUSH1 0x40 MLOAD DUP1 PUSH1 0x40 ADD PUSH1 0x40 MSTORE DUP1 PUSH1 0x15 DUP2 MSTORE PUSH1 0x20 ADD PUSH21 0x2AB9B2B91036BAB9BA103132903932BA30B4B632B9 PUSH1 0x59 SHL DUP2 MSTORE POP PUSH2 0x1A5A JUMP JUMPDEST SWAP1 PUSH2 0x2493 JUMPI PUSH1 0x40 MLOAD PUSH3 0x461BCD PUSH1 0xE5 SHL DUP2 MSTORE PUSH1 0x4 ADD PUSH2 0x12AD SWAP2 SWAP1 PUSH2 0xB15A JUMP JUMPDEST POP PUSH0 DUP3 MLOAD GT PUSH2 0x24D2 PUSH1 0x2C PUSH1 0x40 MLOAD DUP1 PUSH1 0x40 ADD PUSH1 0x40 MSTORE DUP1 PUSH1 0x17 DUP2 MSTORE PUSH1 0x20 ADD PUSH23 0x92DCECC2D8D2C840ECC2E4D2C2DCE8E640D8CADCCEE8D PUSH1 0x4B SHL DUP2 MSTORE POP PUSH2 0x1A5A JUMP JUMPDEST SWAP1 PUSH2 0x24F0 JUMPI PUSH1 0x40 MLOAD PUSH3 0x461BCD PUSH1 0xE5 SHL DUP2 MSTORE PUSH1 0x4 ADD PUSH2 0x12AD SWAP2 SWAP1 PUSH2 0xB15A JUMP JUMPDEST POP PUSH0 JUMPDEST DUP3 MLOAD DUP2 LT ISZERO PUSH2 0x2673 JUMPI PUSH2 0x339 PUSH1 0x82 DUP5 DUP4 DUP2 MLOAD DUP2 LT PUSH2 0x2513 JUMPI PUSH2 0x2513 PUSH2 0xC255 JUMP JUMPDEST PUSH1 0x20 MUL PUSH1 0x20 ADD ADD MLOAD PUSH1 0x40 ADD MLOAD PUSH1 0x40 ADD MLOAD PUSH2 0xC350 PUSH2 0x2530 SWAP2 SWAP1 PUSH2 0xC40F JUMP JUMPDEST PUSH2 0x253A SWAP2 SWAP1 PUSH2 0xC426 JUMP JUMPDEST PUSH2 0x2544 SWAP2 SWAP1 PUSH2 0xC426 JUMP JUMPDEST DUP4 DUP3 DUP2 MLOAD DUP2 LT PUSH2 0x2556 JUMPI PUSH2 0x2556 PUSH2 0xC255 JUMP JUMPDEST PUSH1 0x20 MUL PUSH1 0x20 ADD ADD MLOAD PUSH1 0x40 ADD MLOAD PUSH1 0x60 ADD MLOAD GT ISZERO PUSH2 0x25A8 PUSH1 0x2A PUSH1 0x40 MLOAD DUP1 PUSH1 0x40 ADD PUSH1 0x40 MSTORE DUP1 PUSH1 0x1F DUP2 MSTORE PUSH1 0x20 ADD PUSH32 0x496E76616C69642072657761726420616E64206D656D62657220707269636500 DUP2 MSTORE POP PUSH2 0x1A5A JUMP JUMPDEST SWAP1 PUSH2 0x25C6 JUMPI PUSH1 0x40 MLOAD PUSH3 0x461BCD PUSH1 0xE5 SHL DUP2 MSTORE PUSH1 0x4 ADD PUSH2 0x12AD SWAP2 SWAP1 PUSH2 0xB15A JUMP JUMPDEST POP DUP3 DUP2 DUP2 MLOAD DUP2 LT PUSH2 0x25D9 JUMPI PUSH2 0x25D9 PUSH2 0xC255 JUMP JUMPDEST PUSH1 0x20 MUL PUSH1 0x20 ADD ADD MLOAD PUSH1 0x40 ADD MLOAD PUSH1 0x40 ADD MLOAD DUP4 DUP3 DUP2 MLOAD DUP2 LT PUSH2 0x25FB JUMPI PUSH2 0x25FB PUSH2 0xC255 JUMP JUMPDEST PUSH1 0x20 MUL PUSH1 0x20 ADD ADD MLOAD PUSH1 0x40 ADD MLOAD PUSH1 0x20 ADD MLOAD GT PUSH2 0x264C PUSH1 0x25 PUSH1 0x40 MLOAD DUP1 PUSH1 0x40 ADD PUSH1 0x40 MSTORE DUP1 PUSH1 0x20 DUP2 MSTORE PUSH1 0x20 ADD PUSH32 0x496E76616C696420766970507269636520616E64206D656D6265725072696365 DUP2 MSTORE POP PUSH2 0x1A5A JUMP JUMPDEST SWAP1 PUSH2 0x266A JUMPI PUSH1 0x40 MLOAD PUSH3 0x461BCD PUSH1 0xE5 SHL DUP2 MSTORE PUSH1 0x4 ADD PUSH2 0x12AD SWAP2 SWAP1 PUSH2 0xB15A JUMP JUMPDEST POP PUSH1 0x1 ADD PUSH2 0x24F3 JUMP JUMPDEST POP PUSH0 JUMPDEST DUP3 MLOAD DUP2 LT ISZERO PUSH2 0x2A95 JUMPI PUSH2 0x2687 PUSH2 0xA4B9 JUMP JUMPDEST PUSH0 PUSH2 0x26AE DUP6 DUP5 DUP2 MLOAD DUP2 LT PUSH2 0x269D JUMPI PUSH2 0x269D PUSH2 0xC255 JUMP JUMPDEST PUSH1 0x20 MUL PUSH1 0x20 ADD ADD MLOAD PUSH1 0x20 ADD MLOAD PUSH2 0x9986 JUMP JUMPDEST DUP1 DUP4 MSTORE DUP6 MLOAD SWAP1 SWAP2 POP DUP6 SWAP1 DUP5 SWAP1 DUP2 LT PUSH2 0x26C8 JUMPI PUSH2 0x26C8 PUSH2 0xC255 JUMP JUMPDEST PUSH1 0x20 SWAP1 DUP2 MUL SWAP2 SWAP1 SWAP2 ADD DUP2 ADD MLOAD PUSH1 0x40 SWAP1 DUP2 ADD MLOAD DUP5 DUP4 ADD SWAP1 DUP2 MSTORE PUSH1 0x1D DUP1 SLOAD PUSH0 SWAP1 DUP2 MSTORE PUSH1 0x8 DUP6 MSTORE DUP4 DUP2 KECCAK256 DUP1 SLOAD PUSH1 0x1 DUP2 DUP2 ADD DUP4 SSTORE SWAP2 DUP4 MSTORE DUP7 DUP4 KECCAK256 ADD DUP8 SWAP1 SSTORE SWAP2 SLOAD DUP2 MSTORE PUSH1 0x7 DUP6 MSTORE DUP4 DUP2 KECCAK256 DUP7 DUP3 MSTORE DUP6 MSTORE DUP4 DUP2 KECCAK256 DUP8 MLOAD DUP2 SSTORE SWAP3 MLOAD DUP1 MLOAD SWAP3 DUP5 ADD SWAP3 SWAP1 SWAP3 SSTORE SWAP4 DUP2 ADD MLOAD PUSH1 0x2 DUP4 ADD SSTORE SWAP2 DUP3 ADD MLOAD PUSH1 0x3 DUP3 ADD SSTORE PUSH1 0x60 DUP3 ADD MLOAD PUSH1 0x4 DUP3 ADD SSTORE PUSH1 0x80 SWAP1 SWAP2 ADD MLOAD PUSH1 0x5 SWAP1 SWAP2 ADD SSTORE JUMPDEST DUP6 DUP5 DUP2 MLOAD DUP2 LT PUSH2 0x275F JUMPI PUSH2 0x275F PUSH2 0xC255 JUMP JUMPDEST PUSH1 0x20 MUL PUSH1 0x20 ADD ADD MLOAD PUSH1 0x20 ADD MLOAD MLOAD DUP2 LT ISZERO PUSH2 0x2A05 JUMPI PUSH1 0x1D SLOAD PUSH0 SWAP1 DUP2 MSTORE PUSH1 0x9 PUSH1 0x20 SWAP1 DUP2 MSTORE PUSH1 0x40 DUP1 DUP4 KECCAK256 DUP6 DUP5 MSTORE SWAP1 SWAP2 MSTORE DUP2 KECCAK256 DUP1 SLOAD PUSH1 0x1 ADD DUP2 SSTORE DUP2 MSTORE DUP7 MLOAD DUP8 SWAP1 DUP7 SWAP1 DUP2 LT PUSH2 0x27AB JUMPI PUSH2 0x27AB PUSH2 0xC255 JUMP JUMPDEST PUSH1 0x20 MUL PUSH1 0x20 ADD ADD MLOAD PUSH1 0x20 ADD MLOAD DUP3 DUP2 MLOAD DUP2 LT PUSH2 0x27C8 JUMPI PUSH2 0x27C8 PUSH2 0xC255 JUMP JUMPDEST PUSH1 0x20 MUL PUSH1 0x20 ADD ADD MLOAD PUSH1 0x40 MLOAD PUSH1 0x20 ADD PUSH2 0x27E0 SWAP2 SWAP1 PUSH2 0xC126 JUMP JUMPDEST PUSH1 0x40 MLOAD PUSH1 0x20 DUP2 DUP4 SUB SUB DUP2 MSTORE SWAP1 PUSH1 0x40 MSTORE DUP1 MLOAD SWAP1 PUSH1 0x20 ADD KECCAK256 SWAP1 POP DUP7 DUP6 DUP2 MLOAD DUP2 LT PUSH2 0x280A JUMPI PUSH2 0x280A PUSH2 0xC255 JUMP JUMPDEST PUSH1 0x20 MUL PUSH1 0x20 ADD ADD MLOAD PUSH1 0x20 ADD MLOAD DUP3 DUP2 MLOAD DUP2 LT PUSH2 0x2827 JUMPI PUSH2 0x2827 PUSH2 0xC255 JUMP JUMPDEST PUSH1 0x20 MUL PUSH1 0x20 ADD ADD MLOAD PUSH1 0x9 PUSH0 PUSH1 0x1D SLOAD DUP2 MSTORE PUSH1 0x20 ADD SWAP1 DUP2 MSTORE PUSH1 0x20 ADD PUSH0 KECCAK256 PUSH0 DUP6 DUP2 MSTORE PUSH1 0x20 ADD SWAP1 DUP2 MSTORE PUSH1 0x20 ADD PUSH0 KECCAK256 DUP4 DUP2 SLOAD DUP2 LT PUSH2 0x2862 JUMPI PUSH2 0x2862 PUSH2 0xC255 JUMP JUMPDEST SWAP1 PUSH0 MSTORE PUSH1 0x20 PUSH0 KECCAK256 SWAP1 PUSH1 0x3 MUL ADD PUSH0 DUP3 ADD MLOAD DUP2 PUSH0 ADD SSTORE PUSH1 0x20 DUP3 ADD MLOAD DUP2 PUSH1 0x1 ADD SWAP1 DUP2 PUSH2 0x288B SWAP2 SWAP1 PUSH2 0xC489 JUMP JUMPDEST POP PUSH1 0x40 DUP3 ADD MLOAD PUSH1 0x2 DUP3 ADD SWAP1 PUSH2 0x28A0 SWAP1 DUP3 PUSH2 0xC489 JUMP JUMPDEST POP POP PUSH1 0x1D SLOAD PUSH0 SWAP1 DUP2 MSTORE PUSH1 0x9 PUSH1 0x20 SWAP1 DUP2 MSTORE PUSH1 0x40 DUP1 DUP4 KECCAK256 DUP8 DUP5 MSTORE SWAP1 SWAP2 MSTORE SWAP1 KECCAK256 DUP1 SLOAD DUP4 SWAP3 POP DUP5 SWAP1 DUP2 LT PUSH2 0x28D2 JUMPI PUSH2 0x28D2 PUSH2 0xC255 JUMP JUMPDEST SWAP1 PUSH0 MSTORE PUSH1 0x20 PUSH0 KECCAK256 SWAP1 PUSH1 0x3 MUL ADD PUSH0 ADD DUP2 SWAP1 SSTORE POP DUP7 DUP6 DUP2 MLOAD DUP2 LT PUSH2 0x28F6 JUMPI PUSH2 0x28F6 PUSH2 0xC255 JUMP JUMPDEST PUSH1 0x20 MUL PUSH1 0x20 ADD ADD MLOAD PUSH1 0x20 ADD MLOAD DUP3 DUP2 MLOAD DUP2 LT PUSH2 0x2913 JUMPI PUSH2 0x2913 PUSH2 0xC255 JUMP JUMPDEST PUSH1 0x20 SWAP1 DUP2 MUL SWAP2 SWAP1 SWAP2 ADD DUP2 ADD MLOAD PUSH0 DUP4 DUP2 MSTORE PUSH1 0xA DUP4 MSTORE PUSH1 0x40 SWAP1 KECCAK256 DUP2 MLOAD DUP2 SSTORE SWAP2 DUP2 ADD MLOAD SWAP1 SWAP2 SWAP1 PUSH1 0x1 DUP3 ADD SWAP1 PUSH2 0x2945 SWAP1 DUP3 PUSH2 0xC489 JUMP JUMPDEST POP PUSH1 0x40 DUP3 ADD MLOAD PUSH1 0x2 DUP3 ADD SWAP1 PUSH2 0x295A SWAP1 DUP3 PUSH2 0xC489 JUMP JUMPDEST POP POP POP PUSH0 DUP2 DUP2 MSTORE PUSH1 0xA PUSH1 0x20 MSTORE PUSH1 0x40 DUP2 KECCAK256 DUP3 SWAP1 SSTORE DUP1 JUMPDEST PUSH1 0x20 DUP1 DUP12 ADD MLOAD PUSH0 SWAP1 DUP2 MSTORE PUSH1 0xE SWAP1 SWAP2 MSTORE PUSH1 0x40 SWAP1 KECCAK256 SLOAD DUP2 LT ISZERO PUSH2 0x29D0 JUMPI PUSH1 0xE PUSH0 DUP12 PUSH1 0x20 ADD MLOAD DUP2 MSTORE PUSH1 0x20 ADD SWAP1 DUP2 MSTORE PUSH1 0x20 ADD PUSH0 KECCAK256 DUP2 DUP2 SLOAD DUP2 LT PUSH2 0x29B0 JUMPI PUSH2 0x29B0 PUSH2 0xC255 JUMP JUMPDEST SWAP1 PUSH0 MSTORE PUSH1 0x20 PUSH0 KECCAK256 ADD SLOAD DUP4 SUB PUSH2 0x29C8 JUMPI PUSH1 0x1 SWAP2 POP PUSH2 0x29D0 JUMP JUMPDEST PUSH1 0x1 ADD PUSH2 0x296F JUMP JUMPDEST POP DUP1 PUSH2 0x29FB JUMPI PUSH1 0x20 DUP1 DUP11 ADD MLOAD PUSH0 SWAP1 DUP2 MSTORE PUSH1 0xE DUP3 MSTORE PUSH1 0x40 DUP2 KECCAK256 DUP1 SLOAD PUSH1 0x1 DUP2 ADD DUP3 SSTORE SWAP1 DUP3 MSTORE SWAP2 SWAP1 KECCAK256 ADD DUP3 SWAP1 SSTORE JUMPDEST POP POP PUSH1 0x1 ADD PUSH2 0x274D JUMP JUMPDEST POP PUSH0 JUMPDEST DUP4 DUP2 LT ISZERO PUSH2 0x2A8A JUMPI DUP2 PUSH1 0x8 PUSH0 PUSH1 0x1D SLOAD DUP2 MSTORE PUSH1 0x20 ADD SWAP1 DUP2 MSTORE PUSH1 0x20 ADD PUSH0 KECCAK256 DUP3 DUP2 SLOAD DUP2 LT PUSH2 0x2A35 JUMPI PUSH2 0x2A35 PUSH2 0xC255 JUMP JUMPDEST SWAP1 PUSH0 MSTORE PUSH1 0x20 PUSH0 KECCAK256 ADD SLOAD EQ ISZERO PUSH2 0x2A63 PUSH1 0x3C PUSH1 0x40 MLOAD DUP1 PUSH1 0x60 ADD PUSH1 0x40 MSTORE DUP1 PUSH1 0x25 DUP2 MSTORE PUSH1 0x20 ADD PUSH2 0xCABD PUSH1 0x25 SWAP2 CODECOPY PUSH2 0x1A5A JUMP JUMPDEST SWAP1 PUSH2 0x2A81 JUMPI PUSH1 0x40 MLOAD PUSH3 0x461BCD PUSH1 0xE5 SHL DUP2 MSTORE PUSH1 0x4 ADD PUSH2 0x12AD SWAP2 SWAP1 PUSH2 0xB15A JUMP JUMPDEST POP PUSH1 0x1 ADD PUSH2 0x2A08 JUMP JUMPDEST POP POP POP PUSH1 0x1 ADD PUSH2 0x2676 JUMP JUMPDEST POP PUSH0 PUSH1 0x40 MLOAD DUP1 PUSH1 0x80 ADD PUSH1 0x40 MSTORE DUP1 PUSH1 0x1D SLOAD DUP2 MSTORE PUSH1 0x20 ADD DUP6 DUP2 MSTORE PUSH1 0x20 ADD TIMESTAMP DUP2 MSTORE PUSH1 0x20 ADD TIMESTAMP DUP2 MSTORE POP SWAP1 POP PUSH0 DUP5 PUSH2 0x1A0 ADD MLOAD PUSH1 0x40 MLOAD PUSH1 0x20 ADD PUSH2 0x2AD3 SWAP2 SWAP1 PUSH2 0xB15A JUMP JUMPDEST PUSH1 0x40 MLOAD PUSH1 0x20 DUP2 DUP4 SUB SUB DUP2 MSTORE SWAP1 PUSH1 0x40 MSTORE SWAP1 POP PUSH1 0x6 DUP2 PUSH1 0x40 MLOAD PUSH2 0x2AF4 SWAP2 SWAP1 PUSH2 0xC543 JUMP JUMPDEST SWAP1 DUP2 MSTORE PUSH1 0x40 MLOAD SWAP1 DUP2 SWAP1 SUB PUSH1 0x20 ADD SWAP1 KECCAK256 SLOAD PUSH1 0xFF AND PUSH2 0x2B7A JUMPI PUSH1 0x1 PUSH1 0x6 DUP3 PUSH1 0x40 MLOAD PUSH2 0x2B1D SWAP2 SWAP1 PUSH2 0xC543 JUMP JUMPDEST SWAP1 DUP2 MSTORE PUSH1 0x40 MLOAD SWAP1 DUP2 SWAP1 SUB PUSH1 0x20 ADD SWAP1 KECCAK256 DUP1 SLOAD SWAP2 ISZERO ISZERO PUSH1 0xFF NOT SWAP1 SWAP3 AND SWAP2 SWAP1 SWAP2 OR SWAP1 SSTORE PUSH1 0x5 DUP1 SLOAD PUSH1 0x1 DUP2 ADD DUP3 SSTORE PUSH0 SWAP2 SWAP1 SWAP2 MSTORE PUSH32 0x36B6384B5ECA791C62761152D0C79BB0604C104A5FB6F4EB0703F3154BB3DB0 ADD PUSH2 0x2B78 DUP3 DUP3 PUSH2 0xC489 JUMP JUMPDEST POP JUMPDEST PUSH1 0x1D SLOAD PUSH0 SWAP1 DUP2 MSTORE PUSH1 0x3 PUSH1 0x20 SWAP1 DUP2 MSTORE PUSH1 0x40 SWAP1 SWAP2 KECCAK256 DUP4 MLOAD DUP2 SSTORE SWAP1 DUP4 ADD MLOAD DUP1 MLOAD DUP5 SWAP3 SWAP2 SWAP1 PUSH1 0x1 DUP4 ADD SWAP1 DUP2 SWAP1 PUSH2 0x2BAC SWAP1 DUP3 PUSH2 0xC489 JUMP JUMPDEST POP PUSH1 0x20 DUP3 ADD MLOAD PUSH1 0x1 DUP3 ADD SSTORE PUSH1 0x40 DUP3 ADD MLOAD PUSH1 0x2 DUP3 ADD SWAP1 PUSH2 0x2BCB SWAP1 DUP3 PUSH2 0xC489 JUMP JUMPDEST POP PUSH1 0x60 DUP3 ADD MLOAD PUSH1 0x3 DUP3 ADD SSTORE PUSH1 0x80 DUP3 ADD MLOAD PUSH1 0x4 DUP3 ADD SSTORE PUSH1 0xA0 DUP3 ADD MLOAD PUSH1 0x5 DUP3 ADD SSTORE PUSH1 0xC0 DUP3 ADD MLOAD PUSH1 0x6 DUP3 ADD SSTORE PUSH1 0xE0 DUP3 ADD MLOAD DUP1 MLOAD PUSH2 0x2C0F SWAP2 PUSH1 0x7 DUP5 ADD SWAP2 PUSH1 0x20 SWAP1 SWAP2 ADD SWAP1 PUSH2 0xA5AB JUMP JUMPDEST POP PUSH2 0x100 DUP3 ADD MLOAD DUP1 MLOAD PUSH2 0x2C2C SWAP2 PUSH1 0x8 DUP5 ADD SWAP2 PUSH1 0x20 SWAP1 SWAP2 ADD SWAP1 PUSH2 0xA5F0 JUMP JUMPDEST POP PUSH2 0x120 DUP3 ADD MLOAD PUSH1 0x9 DUP3 ADD SSTORE PUSH2 0x140 DUP3 ADD MLOAD PUSH1 0xA DUP3 ADD SSTORE PUSH2 0x160 DUP3 ADD MLOAD DUP1 MLOAD PUSH2 0x2C5F SWAP2 PUSH1 0xB DUP5 ADD SWAP2 PUSH1 0x20 SWAP1 SWAP2 ADD SWAP1 PUSH2 0xA5F0 JUMP JUMPDEST POP PUSH2 0x180 DUP3 ADD MLOAD PUSH1 0xC DUP3 ADD DUP1 SLOAD PUSH1 0x1 PUSH1 0x1 PUSH1 0xA0 SHL SUB NOT AND PUSH1 0x1 PUSH1 0x1 PUSH1 0xA0 SHL SUB SWAP1 SWAP3 AND SWAP2 SWAP1 SWAP2 OR SWAP1 SSTORE PUSH2 0x1A0 DUP3 ADD MLOAD PUSH1 0xD DUP3 ADD SWAP1 PUSH2 0x2C9C SWAP1 DUP3 PUSH2 0xC489 JUMP JUMPDEST POP PUSH2 0x1C0 DUP3 ADD MLOAD PUSH1 0xE DUP3 ADD SWAP1 PUSH2 0x2CB2 SWAP1 DUP3 PUSH2 0xC489 JUMP JUMPDEST POP PUSH2 0x1E0 DUP3 ADD MLOAD PUSH1 0xF DUP3 ADD DUP1 SLOAD PUSH1 0xFF NOT AND SWAP2 ISZERO ISZERO SWAP2 SWAP1 SWAP2 OR SWAP1 SSTORE PUSH2 0x200 DUP3 ADD MLOAD DUP1 MLOAD PUSH2 0x2CE8 SWAP2 PUSH1 0x10 DUP5 ADD SWAP2 PUSH1 0x20 SWAP1 SWAP2 ADD SWAP1 PUSH2 0xA5F0 JUMP JUMPDEST POP PUSH2 0x220 DUP3 ADD MLOAD PUSH1 0x11 DUP3 ADD SWAP1 PUSH2 0x2CFE SWAP1 DUP3 PUSH2 0xC489 JUMP JUMPDEST POP PUSH2 0x240 DUP3 ADD MLOAD PUSH1 0x12 DUP3 ADD SSTORE PUSH2 0x260 DUP3 ADD MLOAD PUSH1 0x13 DUP3 ADD SSTORE PUSH2 0x280 DUP3 ADD MLOAD PUSH1 0x14 DUP3 ADD SSTORE PUSH2 0x2A0 DUP3 ADD MLOAD PUSH1 0x15 DUP3 ADD DUP1 SLOAD PUSH2 0x2C0 DUP6 ADD MLOAD ISZERO ISZERO PUSH2 0x100 MUL PUSH2 0xFF00 NOT SWAP4 ISZERO ISZERO SWAP4 SWAP1 SWAP4 AND PUSH2 0xFFFF NOT SWAP1 SWAP2 AND OR SWAP2 SWAP1 SWAP2 OR SWAP1 SSTORE PUSH2 0x2E0 SWAP1 SWAP2 ADD MLOAD PUSH1 0x16 SWAP1 SWAP2 ADD SSTORE PUSH1 0x40 DUP3 DUP2 ADD MLOAD PUSH1 0x18 DUP4 ADD SSTORE PUSH1 0x60 SWAP1 SWAP3 ADD MLOAD PUSH1 0x19 SWAP1 SWAP2 ADD SSTORE PUSH1 0x1D DUP1 SLOAD PUSH1 0x4 DUP1 SLOAD PUSH1 0x1 DUP2 DUP2 ADD DUP4 SSTORE PUSH0 DUP4 DUP2 MSTORE PUSH32 0x8A35ACFBC15FF81A39AE7D344FD709F28E8600B4AA8C65C6B64BFE7FE36BD19B SWAP1 SWAP3 ADD DUP5 SWAP1 SSTORE PUSH2 0x180 DUP12 ADD DUP1 MLOAD PUSH1 0x1 PUSH1 0x1 PUSH1 0xA0 SHL SUB SWAP1 DUP2 AND DUP5 MSTORE PUSH1 0xB PUSH1 0x20 SWAP1 DUP2 MSTORE DUP9 DUP6 KECCAK256 DUP1 SLOAD DUP1 DUP7 ADD DUP3 SSTORE SWAP1 DUP7 MSTORE DUP2 DUP7 KECCAK256 ADD SWAP7 SWAP1 SWAP7 SSTORE DUP2 MLOAD DUP2 AND DUP5 MSTORE PUSH1 0x2 DUP7 MSTORE DUP8 DUP5 KECCAK256 DUP8 SLOAD DUP6 MSTORE SWAP1 SWAP6 MSTORE SWAP2 DUP7 SWAP1 KECCAK256 DUP1 SLOAD PUSH1 0xFF NOT AND SWAP1 SWAP2 OR SWAP1 SSTORE PUSH1 0x22 SLOAD SWAP4 SLOAD PUSH2 0x1E0 DUP12 ADD MLOAD SWAP2 MLOAD SWAP6 MLOAD PUSH4 0x371C0FC7 PUSH1 0xE0 SHL DUP2 MSTORE SWAP3 DUP4 ADD MSTORE ISZERO ISZERO PUSH1 0x24 DUP3 ADD MSTORE SWAP3 DUP2 AND PUSH1 0x44 DUP5 ADD MSTORE AND SWAP1 PUSH4 0x371C0FC7 SWAP1 PUSH1 0x64 ADD PUSH0 PUSH1 0x40 MLOAD DUP1 DUP4 SUB DUP2 PUSH0 DUP8 DUP1 EXTCODESIZE ISZERO DUP1 ISZERO PUSH2 0x2E50 JUMPI PUSH0 DUP1 REVERT JUMPDEST POP GAS CALL ISZERO DUP1 ISZERO PUSH2 0x2E62 JUMPI RETURNDATASIZE PUSH0 DUP1 RETURNDATACOPY RETURNDATASIZE PUSH0 REVERT JUMPDEST POP POP POP POP PUSH32 0xDF8D7DB3E0A4789A1EF3A4C2A74F01201DD2560B156CA835ED9BC23CF9B70B2F PUSH1 0x1D SLOAD DUP7 PUSH1 0x40 MLOAD PUSH2 0x2E99 SWAP3 SWAP2 SWAP1 PUSH2 0xC54E JUMP JUMPDEST PUSH1 0x40 MLOAD DUP1 SWAP2 SUB SWAP1 LOG1 POP POP PUSH1 0x1D SLOAD SWAP4 SWAP3 POP POP POP JUMP JUMPDEST PUSH0 DUP2 DUP2 MSTORE PUSH1 0x13 PUSH1 0x20 MSTORE PUSH1 0x40 SWAP1 KECCAK256 SLOAD PUSH2 0x2ED7 JUMPI PUSH1 0x40 MLOAD PUSH3 0x461BCD PUSH1 0xE5 SHL DUP2 MSTORE PUSH1 0x4 ADD PUSH2 0x12AD SWAP1 PUSH2 0xC566 JUMP JUMPDEST PUSH0 DUP3 DUP2 MSTORE PUSH1 0x12 PUSH1 0x20 MSTORE PUSH1 0x40 DUP2 KECCAK256 SWAP1 JUMPDEST DUP2 SLOAD DUP2 LT ISZERO PUSH2 0x2F87 JUMPI DUP3 DUP3 DUP3 DUP2 SLOAD DUP2 LT PUSH2 0x2F02 JUMPI PUSH2 0x2F02 PUSH2 0xC255 JUMP JUMPDEST SWAP1 PUSH0 MSTORE PUSH1 0x20 PUSH0 KECCAK256 ADD SLOAD SUB PUSH2 0x2F7F JUMPI DUP2 SLOAD DUP3 SWAP1 PUSH2 0x2F20 SWAP1 PUSH1 0x1 SWAP1 PUSH2 0xC30B JUMP JUMPDEST DUP2 SLOAD DUP2 LT PUSH2 0x2F30 JUMPI PUSH2 0x2F30 PUSH2 0xC255 JUMP JUMPDEST SWAP1 PUSH0 MSTORE PUSH1 0x20 PUSH0 KECCAK256 ADD SLOAD DUP3 DUP3 DUP2 SLOAD DUP2 LT PUSH2 0x2F4B JUMPI PUSH2 0x2F4B PUSH2 0xC255 JUMP JUMPDEST SWAP1 PUSH0 MSTORE PUSH1 0x20 PUSH0 KECCAK256 ADD DUP2 SWAP1 SSTORE POP DUP2 DUP1 SLOAD DUP1 PUSH2 0x2F67 JUMPI PUSH2 0x2F67 PUSH2 0xC31E JUMP JUMPDEST PUSH1 0x1 SWAP1 SUB DUP2 DUP2 SWAP1 PUSH0 MSTORE PUSH1 0x20 PUSH0 KECCAK256 ADD PUSH0 SWAP1 SSTORE SWAP1 SSTORE PUSH2 0x2F87 JUMP JUMPDEST PUSH1 0x1 ADD PUSH2 0x2EE6 JUMP JUMPDEST POP PUSH0 DUP3 DUP2 MSTORE PUSH1 0x13 PUSH1 0x20 MSTORE PUSH1 0x40 DUP2 KECCAK256 DUP2 DUP2 SSTORE PUSH1 0x1 DUP2 ADD DUP1 SLOAD PUSH1 0x1 PUSH1 0x1 PUSH1 0xA0 SHL SUB NOT AND SWAP1 SSTORE SWAP1 PUSH2 0x2FB8 PUSH1 0x2 DUP4 ADD DUP3 PUSH2 0xA54A JUMP JUMPDEST PUSH2 0x2FC5 PUSH1 0x3 DUP4 ADD PUSH0 PUSH2 0xA54A JUMP JUMPDEST POP PUSH1 0x4 DUP2 DUP2 ADD DUP1 SLOAD PUSH1 0xFF NOT AND SWAP1 SSTORE PUSH0 PUSH1 0x5 DUP4 ADD DUP2 SWAP1 SSTORE PUSH1 0x6 DUP4 ADD DUP2 SWAP1 SSTORE PUSH1 0x7 SWAP1 SWAP3 ADD DUP3 SWAP1 SSTORE PUSH1 0x24 SLOAD PUSH1 0x40 DUP1 MLOAD PUSH4 0x6F2069F PUSH1 0xE4 SHL DUP2 MSTORE SWAP1 MLOAD PUSH1 0x1 PUSH1 0x1 PUSH1 0xA0 SHL SUB SWAP1 SWAP3 AND SWAP4 PUSH4 0x6F2069F0 SWAP4 DUP3 DUP2 ADD SWAP4 SWAP2 SWAP3 DUP3 SWAP1 SUB ADD DUP2 DUP4 DUP8 DUP1 EXTCODESIZE ISZERO DUP1 ISZERO PUSH2 0x3029 JUMPI PUSH0 DUP1 REVERT JUMPDEST POP GAS CALL ISZERO DUP1 ISZERO PUSH2 0x303B JUMPI RETURNDATASIZE PUSH0 DUP1 RETURNDATACOPY RETURNDATASIZE PUSH0 REVERT JUMPDEST POP POP POP POP POP POP POP JUMP JUMPDEST PUSH0 DUP2 PUSH1 0x1 DUP2 LT ISZERO DUP1 ISZERO PUSH2 0x3058 JUMPI POP PUSH1 0x5 DUP2 GT ISZERO JUMPDEST PUSH2 0x3074 JUMPI PUSH1 0x40 MLOAD PUSH3 0x461BCD PUSH1 0xE5 SHL DUP2 MSTORE PUSH1 0x4 ADD PUSH2 0x12AD SWAP1 PUSH2 0xC5BE JUMP JUMPDEST PUSH0 DUP5 DUP2 MSTORE PUSH1 0xF PUSH1 0x20 MSTORE PUSH1 0x40 SWAP1 KECCAK256 SLOAD PUSH2 0x30F5 JUMPI PUSH1 0x40 MLOAD PUSH3 0x461BCD PUSH1 0xE5 SHL DUP2 MSTORE PUSH1 0x20 PUSH1 0x4 DUP3 ADD MSTORE PUSH1 0x4B PUSH1 0x24 DUP3 ADD MSTORE PUSH0 DUP1 MLOAD PUSH1 0x20 PUSH2 0xCB4F DUP4 CODECOPY DUP2 MLOAD SWAP2 MSTORE PUSH1 0x44 DUP3 ADD MSTORE PUSH32 0x223A2032382C20226D657373616765223A2022526174696E6720646F6573206E PUSH1 0x64 DUP3 ADD MSTORE PUSH11 0x6F7420657869737473227D PUSH1 0xA8 SHL PUSH1 0x84 DUP3 ADD MSTORE PUSH1 0xA4 ADD PUSH2 0x12AD JUMP JUMPDEST CALLER PUSH0 SWAP1 DUP2 MSTORE PUSH1 0x11 PUSH1 0x20 SWAP1 DUP2 MSTORE PUSH1 0x40 DUP1 DUP4 KECCAK256 DUP9 DUP5 MSTORE SWAP1 SWAP2 MSTORE SWAP1 KECCAK256 SLOAD PUSH1 0xFF AND PUSH2 0x312E JUMPI PUSH1 0x40 MLOAD PUSH3 0x461BCD PUSH1 0xE5 SHL DUP2 MSTORE PUSH1 0x4 ADD PUSH2 0x12AD SWAP1 PUSH2 0xC62E JUMP JUMPDEST POP POP PUSH0 SWAP2 DUP3 MSTORE PUSH1 0xF PUSH1 0x20 SWAP1 DUP2 MSTORE PUSH1 0x40 DUP1 DUP5 KECCAK256 PUSH1 0x2 ADD DUP4 SWAP1 SSTORE CALLER DUP5 MSTORE PUSH1 0x11 DUP3 MSTORE DUP1 DUP5 KECCAK256 SWAP5 DUP5 MSTORE SWAP4 SWAP1 MSTORE SWAP2 SWAP1 KECCAK256 PUSH1 0x1 SWAP1 DUP2 ADD SWAP2 SWAP1 SWAP2 SSTORE SWAP1 JUMP JUMPDEST PUSH0 DUP2 DUP2 MSTORE PUSH1 0xF PUSH1 0x20 MSTORE PUSH1 0x40 DUP2 KECCAK256 SLOAD PUSH2 0x31E5 JUMPI PUSH1 0x40 MLOAD PUSH3 0x461BCD PUSH1 0xE5 SHL DUP2 MSTORE PUSH1 0x20 PUSH1 0x4 DUP3 ADD MSTORE PUSH1 0x4A PUSH1 0x24 DUP3 ADD MSTORE PUSH0 DUP1 MLOAD PUSH1 0x20 PUSH2 0xCB4F DUP4 CODECOPY DUP2 MLOAD SWAP2 MSTORE PUSH1 0x44 DUP3 ADD MSTORE PUSH32 0x223A2032382C20226D657373616765223A2022526174696E6720646F6573206E PUSH1 0x64 DUP3 ADD MSTORE PUSH10 0x6F74206578697374227D PUSH1 0xB0 SHL PUSH1 0x84 DUP3 ADD MSTORE PUSH1 0xA4 ADD PUSH2 0x12AD JUMP JUMPDEST PUSH0 DUP3 DUP2 MSTORE PUSH1 0xF PUSH1 0x20 MSTORE PUSH1 0x40 SWAP1 KECCAK256 PUSH1 0x1 ADD SLOAD PUSH1 0x1 PUSH1 0x1 PUSH1 0xA0 SHL SUB AND CALLER EQ PUSH2 0x3286 JUMPI PUSH1 0x40 MLOAD PUSH3 0x461BCD PUSH1 0xE5 SHL DUP2 MSTORE PUSH1 0x20 PUSH1 0x4 DUP3 ADD MSTORE PUSH1 0x57 PUSH1 0x24 DUP3 ADD MSTORE PUSH0 DUP1 MLOAD PUSH1 0x20 PUSH2 0xCB4F DUP4 CODECOPY DUP2 MLOAD SWAP2 MSTORE PUSH1 0x44 DUP3 ADD MSTORE PUSH32 0x223A2032392C20226D657373616765223A20224F6E6C79207468652075736572 PUSH1 0x64 DUP3 ADD MSTORE PUSH32 0x2077686F2072617465642063616E2064656C657465227D000000000000000000 PUSH1 0x84 DUP3 ADD MSTORE PUSH1 0xA4 ADD PUSH2 0x12AD JUMP JUMPDEST CALLER PUSH0 SWAP1 DUP2 MSTORE PUSH1 0x11 PUSH1 0x20 SWAP1 DUP2 MSTORE PUSH1 0x40 DUP1 DUP4 KECCAK256 DUP7 DUP5 MSTORE SWAP1 SWAP2 MSTORE SWAP1 KECCAK256 SLOAD PUSH1 0xFF AND PUSH2 0x32BF JUMPI PUSH1 0x40 MLOAD PUSH3 0x461BCD PUSH1 0xE5 SHL DUP2 MSTORE PUSH1 0x4 ADD PUSH2 0x12AD SWAP1 PUSH2 0xC62E JUMP JUMPDEST PUSH0 DUP3 DUP2 MSTORE PUSH1 0xF PUSH1 0x20 SWAP1 DUP2 MSTORE PUSH1 0x40 DUP1 DUP4 KECCAK256 DUP4 DUP2 SSTORE PUSH1 0x1 DUP1 DUP3 ADD DUP1 SLOAD PUSH1 0x1 PUSH1 0x1 PUSH1 0xA0 SHL SUB NOT AND SWAP1 SSTORE PUSH1 0x2 DUP3 ADD DUP6 SWAP1 SSTORE PUSH1 0x3 SWAP1 SWAP2 ADD DUP5 SWAP1 SSTORE CALLER DUP5 MSTORE PUSH1 0x11 DUP4 MSTORE DUP2 DUP5 KECCAK256 DUP8 DUP6 MSTORE DUP4 MSTORE DUP2 DUP5 KECCAK256 DUP1 SLOAD PUSH1 0xFF NOT AND DUP2 SSTORE ADD DUP4 SWAP1 SSTORE PUSH1 0x10 SWAP1 SWAP2 MSTORE DUP2 KECCAK256 SWAP1 JUMPDEST DUP2 SLOAD DUP2 LT ISZERO PUSH2 0x33BC JUMPI DUP4 DUP3 DUP3 DUP2 SLOAD DUP2 LT PUSH2 0x3337 JUMPI PUSH2 0x3337 PUSH2 0xC255 JUMP JUMPDEST SWAP1 PUSH0 MSTORE PUSH1 0x20 PUSH0 KECCAK256 ADD SLOAD SUB PUSH2 0x33B4 JUMPI DUP2 SLOAD DUP3 SWAP1 PUSH2 0x3355 SWAP1 PUSH1 0x1 SWAP1 PUSH2 0xC30B JUMP JUMPDEST DUP2 SLOAD DUP2 LT PUSH2 0x3365 JUMPI PUSH2 0x3365 PUSH2 0xC255 JUMP JUMPDEST SWAP1 PUSH0 MSTORE PUSH1 0x20 PUSH0 KECCAK256 ADD SLOAD DUP3 DUP3 DUP2 SLOAD DUP2 LT PUSH2 0x3380 JUMPI PUSH2 0x3380 PUSH2 0xC255 JUMP JUMPDEST SWAP1 PUSH0 MSTORE PUSH1 0x20 PUSH0 KECCAK256 ADD DUP2 SWAP1 SSTORE POP DUP2 DUP1 SLOAD DUP1 PUSH2 0x339C JUMPI PUSH2 0x339C PUSH2 0xC31E JUMP JUMPDEST PUSH1 0x1 SWAP1 SUB DUP2 DUP2 SWAP1 PUSH0 MSTORE PUSH1 0x20 PUSH0 KECCAK256 ADD PUSH0 SWAP1 SSTORE SWAP1 SSTORE PUSH2 0x33BC JUMP JUMPDEST PUSH1 0x1 ADD PUSH2 0x331B JUMP JUMPDEST POP PUSH1 0x1 SWAP5 SWAP4 POP POP POP POP JUMP JUMPDEST CALLER PUSH0 SWAP1 DUP2 MSTORE PUSH1 0x1 PUSH1 0x20 MSTORE PUSH1 0x40 SWAP1 KECCAK256 SLOAD PUSH1 0xFF AND PUSH2 0x33F5 JUMPI PUSH1 0x40 MLOAD PUSH3 0x461BCD PUSH1 0xE5 SHL DUP2 MSTORE PUSH1 0x4 ADD PUSH2 0x12AD SWAP1 PUSH2 0xC678 JUMP JUMPDEST PUSH0 JUMPDEST DUP2 MLOAD DUP2 LT ISZERO PUSH2 0x346A JUMPI PUSH2 0x3462 DUP4 DUP4 DUP4 DUP2 MLOAD DUP2 LT PUSH2 0x3416 JUMPI PUSH2 0x3416 PUSH2 0xC255 JUMP JUMPDEST PUSH1 0x20 MUL PUSH1 0x20 ADD ADD MLOAD PUSH0 ADD MLOAD DUP5 DUP5 DUP2 MLOAD DUP2 LT PUSH2 0x3433 JUMPI PUSH2 0x3433 PUSH2 0xC255 JUMP JUMPDEST PUSH1 0x20 MUL PUSH1 0x20 ADD ADD MLOAD PUSH1 0x20 ADD MLOAD DUP6 DUP6 DUP2 MLOAD DUP2 LT PUSH2 0x3451 JUMPI PUSH2 0x3451 PUSH2 0xC255 JUMP JUMPDEST PUSH1 0x20 MUL PUSH1 0x20 ADD ADD MLOAD PUSH1 0x40 ADD MLOAD PUSH2 0x9A0C JUMP JUMPDEST PUSH1 0x1 ADD PUSH2 0x33F7 JUMP JUMPDEST POP POP POP JUMP JUMPDEST PUSH0 DUP2 DUP2 MSTORE PUSH1 0xE PUSH1 0x20 MSTORE PUSH1 0x40 SWAP1 KECCAK256 SLOAD PUSH1 0x60 SWAP1 DUP1 PUSH1 0x1 PUSH1 0x1 PUSH1 0x40 SHL SUB DUP2 GT ISZERO PUSH2 0x3498 JUMPI PUSH2 0x3498 PUSH2 0xA98B JUMP JUMPDEST PUSH1 0x40 MLOAD SWAP1 DUP1 DUP3 MSTORE DUP1 PUSH1 0x20 MUL PUSH1 0x20 ADD DUP3 ADD PUSH1 0x40 MSTORE DUP1 ISZERO PUSH2 0x34E1 JUMPI DUP2 PUSH1 0x20 ADD JUMPDEST PUSH1 0x40 DUP1 MLOAD PUSH1 0x60 DUP1 DUP3 ADD DUP4 MSTORE PUSH0 DUP3 MSTORE PUSH1 0x20 DUP1 DUP4 ADD DUP3 SWAP1 MSTORE SWAP3 DUP3 ADD MSTORE DUP3 MSTORE PUSH0 NOT SWAP1 SWAP3 ADD SWAP2 ADD DUP2 PUSH2 0x34B6 JUMPI SWAP1 POP JUMPDEST POP SWAP2 POP PUSH0 JUMPDEST DUP2 DUP2 LT ISZERO PUSH2 0x197B JUMPI PUSH0 DUP5 DUP2 MSTORE PUSH1 0xE PUSH1 0x20 MSTORE PUSH1 0x40 DUP2 KECCAK256 DUP1 SLOAD PUSH1 0xA SWAP3 SWAP2 SWAP1 DUP5 SWAP1 DUP2 LT PUSH2 0x3512 JUMPI PUSH2 0x3512 PUSH2 0xC255 JUMP JUMPDEST SWAP1 PUSH0 MSTORE PUSH1 0x20 PUSH0 KECCAK256 ADD SLOAD DUP2 MSTORE PUSH1 0x20 ADD SWAP1 DUP2 MSTORE PUSH1 0x20 ADD PUSH0 KECCAK256 PUSH1 0x40 MLOAD DUP1 PUSH1 0x60 ADD PUSH1 0x40 MSTORE SWAP1 DUP2 PUSH0 DUP3 ADD SLOAD DUP2 MSTORE PUSH1 0x20 ADD PUSH1 0x1 DUP3 ADD DUP1 SLOAD PUSH2 0x354C SWAP1 PUSH2 0xC269 JUMP JUMPDEST DUP1 PUSH1 0x1F ADD PUSH1 0x20 DUP1 SWAP2 DIV MUL PUSH1 0x20 ADD PUSH1 0x40 MLOAD SWAP1 DUP2 ADD PUSH1 0x40 MSTORE DUP1 SWAP3 SWAP2 SWAP1 DUP2 DUP2 MSTORE PUSH1 0x20 ADD DUP3 DUP1 SLOAD PUSH2 0x3578 SWAP1 PUSH2 0xC269 JUMP JUMPDEST DUP1 ISZERO PUSH2 0x35C3 JUMPI DUP1 PUSH1 0x1F LT PUSH2 0x359A JUMPI PUSH2 0x100 DUP1 DUP4 SLOAD DIV MUL DUP4 MSTORE SWAP2 PUSH1 0x20 ADD SWAP2 PUSH2 0x35C3 JUMP JUMPDEST DUP3 ADD SWAP2 SWAP1 PUSH0 MSTORE PUSH1 0x20 PUSH0 KECCAK256 SWAP1 JUMPDEST DUP2 SLOAD DUP2 MSTORE SWAP1 PUSH1 0x1 ADD SWAP1 PUSH1 0x20 ADD DUP1 DUP4 GT PUSH2 0x35A6 JUMPI DUP3 SWAP1 SUB PUSH1 0x1F AND DUP3 ADD SWAP2 JUMPDEST POP POP POP POP POP DUP2 MSTORE PUSH1 0x20 ADD PUSH1 0x2 DUP3 ADD DUP1 SLOAD PUSH2 0x35DC SWAP1 PUSH2 0xC269 JUMP JUMPDEST DUP1 PUSH1 0x1F ADD PUSH1 0x20 DUP1 SWAP2 DIV MUL PUSH1 0x20 ADD PUSH1 0x40 MLOAD SWAP1 DUP2 ADD PUSH1 0x40 MSTORE DUP1 SWAP3 SWAP2 SWAP1 DUP2 DUP2 MSTORE PUSH1 0x20 ADD DUP3 DUP1 SLOAD PUSH2 0x3608 SWAP1 PUSH2 0xC269 JUMP JUMPDEST DUP1 ISZERO PUSH2 0x3653 JUMPI DUP1 PUSH1 0x1F LT PUSH2 0x362A JUMPI PUSH2 0x100 DUP1 DUP4 SLOAD DIV MUL DUP4 MSTORE SWAP2 PUSH1 0x20 ADD SWAP2 PUSH2 0x3653 JUMP JUMPDEST DUP3 ADD SWAP2 SWAP1 PUSH0 MSTORE PUSH1 0x20 PUSH0 KECCAK256 SWAP1 JUMPDEST DUP2 SLOAD DUP2 MSTORE SWAP1 PUSH1 0x1 ADD SWAP1 PUSH1 0x20 ADD DUP1 DUP4 GT PUSH2 0x3636 JUMPI DUP3 SWAP1 SUB PUSH1 0x1F AND DUP3 ADD SWAP2 JUMPDEST POP POP POP POP POP DUP2 MSTORE POP POP DUP4 DUP3 DUP2 MLOAD DUP2 LT PUSH2 0x366E JUMPI PUSH2 0x366E PUSH2 0xC255 JUMP JUMPDEST PUSH1 0x20 SWAP1 DUP2 MUL SWAP2 SWAP1 SWAP2 ADD ADD MSTORE PUSH1 0x1 ADD PUSH2 0x34E6 JUMP JUMPDEST CALLER PUSH0 SWAP1 DUP2 MSTORE PUSH1 0x1A PUSH1 0x20 MSTORE PUSH1 0x40 DUP2 KECCAK256 SLOAD PUSH1 0xFF AND PUSH2 0x36AF JUMPI PUSH1 0x40 MLOAD PUSH3 0x461BCD PUSH1 0xE5 SHL DUP2 MSTORE PUSH1 0x4 ADD PUSH2 0x12AD SWAP1 PUSH2 0xC6D7 JUMP JUMPDEST PUSH0 DUP3 DUP2 MSTORE PUSH1 0x3 PUSH1 0x20 MSTORE PUSH1 0x40 SWAP1 KECCAK256 SLOAD ISZERO DUP1 ISZERO SWAP1 PUSH2 0x36E1 JUMPI POP PUSH0 DUP3 DUP2 MSTORE PUSH1 0x3 PUSH1 0x20 MSTORE PUSH1 0x40 SWAP1 KECCAK256 PUSH1 0x16 ADD SLOAD PUSH2 0x100 SWAP1 DIV PUSH1 0xFF AND ISZERO JUMPDEST PUSH2 0x3704 PUSH1 0x1B PUSH1 0x40 MLOAD DUP1 PUSH1 0x60 ADD PUSH1 0x40 MSTORE DUP1 PUSH1 0x2C DUP2 MSTORE PUSH1 0x20 ADD PUSH2 0xCAE2 PUSH1 0x2C SWAP2 CODECOPY PUSH2 0x1A5A JUMP JUMPDEST SWAP1 PUSH2 0x3722 JUMPI PUSH1 0x40 MLOAD PUSH3 0x461BCD PUSH1 0xE5 SHL DUP2 MSTORE PUSH1 0x4 ADD PUSH2 0x12AD SWAP2 SWAP1 PUSH2 0xB15A JUMP JUMPDEST POP PUSH2 0x372C DUP3 PUSH2 0x9A72 JUMP JUMPDEST POP PUSH1 0x1 JUMPDEST SWAP2 SWAP1 POP JUMP JUMPDEST PUSH0 DUP1 SLOAD PUSH1 0x1 PUSH1 0x1 PUSH1 0xA0 SHL SUB AND CALLER DUP2 EQ PUSH2 0x3760 JUMPI PUSH1 0x40 MLOAD PUSH3 0x461BCD PUSH1 0xE5 SHL DUP2 MSTORE PUSH1 0x4 ADD PUSH2 0x12AD SWAP1 PUSH2 0xC29B JUMP JUMPDEST PUSH1 0x23 DUP1 SLOAD PUSH1 0x1 PUSH1 0x1 PUSH1 0xA0 SHL SUB DUP6 AND PUSH1 0x1 PUSH1 0x1 PUSH1 0xA0 SHL SUB NOT SWAP1 SWAP2 AND OR SWAP1 SSTORE PUSH1 0x1 SWAP2 POP POP SWAP2 SWAP1 POP JUMP JUMPDEST CALLER PUSH0 SWAP1 DUP2 MSTORE PUSH1 0x1 PUSH1 0x20 MSTORE PUSH1 0x40 DUP2 KECCAK256 SLOAD PUSH1 0xFF AND PUSH2 0x37B5 JUMPI PUSH1 0x40 MLOAD PUSH3 0x461BCD PUSH1 0xE5 SHL DUP2 MSTORE PUSH1 0x4 ADD PUSH2 0x12AD SWAP1 PUSH2 0xC678 JUMP JUMPDEST PUSH0 JUMPDEST DUP3 MLOAD DUP2 LT ISZERO PUSH2 0x1BD2 JUMPI PUSH2 0x3804 DUP5 DUP5 DUP4 DUP2 MLOAD DUP2 LT PUSH2 0x37D6 JUMPI PUSH2 0x37D6 PUSH2 0xC255 JUMP JUMPDEST PUSH1 0x20 MUL PUSH1 0x20 ADD ADD MLOAD PUSH0 ADD MLOAD DUP6 DUP5 DUP2 MLOAD DUP2 LT PUSH2 0x37F3 JUMPI PUSH2 0x37F3 PUSH2 0xC255 JUMP JUMPDEST PUSH1 0x20 MUL PUSH1 0x20 ADD ADD MLOAD PUSH1 0x20 ADD MLOAD PUSH2 0x9DF5 JUMP JUMPDEST POP PUSH1 0x1 ADD PUSH2 0x37B7 JUMP JUMPDEST PUSH0 DUP2 DUP2 MSTORE PUSH1 0x15 PUSH1 0x20 MSTORE PUSH1 0x40 DUP2 KECCAK256 SLOAD PUSH2 0x385C JUMPI PUSH1 0x40 MLOAD PUSH3 0x461BCD PUSH1 0xE5 SHL DUP2 MSTORE PUSH1 0x20 PUSH1 0x4 DUP3 ADD MSTORE PUSH1 0x12 PUSH1 0x24 DUP3 ADD MSTORE PUSH18 0x11905448191BD95CC81B9BDD08195E1A5CDD PUSH1 0x72 SHL PUSH1 0x44 DUP3 ADD MSTORE PUSH1 0x64 ADD PUSH2 0x12AD JUMP JUMPDEST PUSH0 DUP4 DUP2 MSTORE PUSH1 0x16 PUSH1 0x20 MSTORE PUSH1 0x40 DUP2 KECCAK256 SWAP1 JUMPDEST DUP2 SLOAD DUP2 LT ISZERO PUSH2 0x390C JUMPI DUP4 DUP3 DUP3 DUP2 SLOAD DUP2 LT PUSH2 0x3887 JUMPI PUSH2 0x3887 PUSH2 0xC255 JUMP JUMPDEST SWAP1 PUSH0 MSTORE PUSH1 0x20 PUSH0 KECCAK256 ADD SLOAD SUB PUSH2 0x3904 JUMPI DUP2 SLOAD DUP3 SWAP1 PUSH2 0x38A5 SWAP1 PUSH1 0x1 SWAP1 PUSH2 0xC30B JUMP JUMPDEST DUP2 SLOAD DUP2 LT PUSH2 0x38B5 JUMPI PUSH2 0x38B5 PUSH2 0xC255 JUMP JUMPDEST SWAP1 PUSH0 MSTORE PUSH1 0x20 PUSH0 KECCAK256 ADD SLOAD DUP3 DUP3 DUP2 SLOAD DUP2 LT PUSH2 0x38D0 JUMPI PUSH2 0x38D0 PUSH2 0xC255 JUMP JUMPDEST SWAP1 PUSH0 MSTORE PUSH1 0x20 PUSH0 KECCAK256 ADD DUP2 SWAP1 SSTORE POP DUP2 DUP1 SLOAD DUP1 PUSH2 0x38EC JUMPI PUSH2 0x38EC PUSH2 0xC31E JUMP JUMPDEST PUSH1 0x1 SWAP1 SUB DUP2 DUP2 SWAP1 PUSH0 MSTORE PUSH1 0x20 PUSH0 KECCAK256 ADD PUSH0 SWAP1 SSTORE SWAP1 SSTORE PUSH2 0x390C JUMP JUMPDEST PUSH1 0x1 ADD PUSH2 0x386B JUMP JUMPDEST POP PUSH0 DUP4 DUP2 MSTORE PUSH1 0x15 PUSH1 0x20 MSTORE PUSH1 0x40 DUP2 KECCAK256 DUP2 DUP2 SSTORE SWAP1 PUSH2 0x392B PUSH1 0x1 DUP4 ADD DUP3 PUSH2 0xA54A JUMP JUMPDEST PUSH2 0x3938 PUSH1 0x2 DUP4 ADD PUSH0 PUSH2 0xA54A JUMP JUMPDEST POP POP PUSH1 0x24 PUSH0 SWAP1 SLOAD SWAP1 PUSH2 0x100 EXP SWAP1 DIV PUSH1 0x1 PUSH1 0x1 PUSH1 0xA0 SHL SUB AND PUSH1 0x1 PUSH1 0x1 PUSH1 0xA0 SHL SUB AND PUSH4 0x6F2069F0 PUSH1 0x40 MLOAD DUP2 PUSH4 0xFFFFFFFF AND PUSH1 0xE0 SHL DUP2 MSTORE PUSH1 0x4 ADD PUSH0 PUSH1 0x40 MLOAD DUP1 DUP4 SUB DUP2 PUSH0 DUP8 DUP1 EXTCODESIZE ISZERO DUP1 ISZERO PUSH2 0x3986 JUMPI PUSH0 DUP1 REVERT JUMPDEST POP GAS CALL ISZERO DUP1 ISZERO PUSH2 0x3998 JUMPI RETURNDATASIZE PUSH0 DUP1 RETURNDATACOPY RETURNDATASIZE PUSH0 REVERT JUMPDEST POP PUSH1 0x1 SWAP8 SWAP7 POP POP POP POP POP POP POP JUMP JUMPDEST PUSH1 0xD DUP1 SLOAD PUSH1 0x60 SWAP2 SWAP1 PUSH0 SWAP1 PUSH1 0x1 PUSH1 0x1 PUSH1 0x40 SHL SUB DUP2 GT ISZERO PUSH2 0x39C7 JUMPI PUSH2 0x39C7 PUSH2 0xA98B JUMP JUMPDEST PUSH1 0x40 MLOAD SWAP1 DUP1 DUP3 MSTORE DUP1 PUSH1 0x20 MUL PUSH1 0x20 ADD DUP3 ADD PUSH1 0x40 MSTORE DUP1 ISZERO PUSH2 0x3A1B JUMPI DUP2 PUSH1 0x20 ADD JUMPDEST PUSH2 0x3A08 PUSH1 0x40 MLOAD DUP1 PUSH1 0x60 ADD PUSH1 0x40 MSTORE DUP1 PUSH0 DUP2 MSTORE PUSH1 0x20 ADD PUSH1 0x60 DUP2 MSTORE PUSH1 0x20 ADD PUSH1 0x60 DUP2 MSTORE POP SWAP1 JUMP JUMPDEST DUP2 MSTORE PUSH1 0x20 ADD SWAP1 PUSH1 0x1 SWAP1 SUB SWAP1 DUP2 PUSH2 0x39E5 JUMPI SWAP1 POP JUMPDEST POP SWAP1 POP PUSH0 JUMPDEST DUP3 SLOAD DUP2 LT ISZERO PUSH2 0x3BAD JUMPI PUSH1 0xC PUSH0 DUP5 DUP4 DUP2 SLOAD DUP2 LT PUSH2 0x3A3E JUMPI PUSH2 0x3A3E PUSH2 0xC255 JUMP JUMPDEST SWAP1 PUSH0 MSTORE PUSH1 0x20 PUSH0 KECCAK256 ADD SLOAD DUP2 MSTORE PUSH1 0x20 ADD SWAP1 DUP2 MSTORE PUSH1 0x20 ADD PUSH0 KECCAK256 PUSH1 0x40 MLOAD DUP1 PUSH1 0x60 ADD PUSH1 0x40 MSTORE SWAP1 DUP2 PUSH0 DUP3 ADD SLOAD DUP2 MSTORE PUSH1 0x20 ADD PUSH1 0x1 DUP3 ADD DUP1 SLOAD PUSH2 0x3A78 SWAP1 PUSH2 0xC269 JUMP JUMPDEST DUP1 PUSH1 0x1F ADD PUSH1 0x20 DUP1 SWAP2 DIV MUL PUSH1 0x20 ADD PUSH1 0x40 MLOAD SWAP1 DUP2 ADD PUSH1 0x40 MSTORE DUP1 SWAP3 SWAP2 SWAP1 DUP2 DUP2 MSTORE PUSH1 0x20 ADD DUP3 DUP1 SLOAD PUSH2 0x3AA4 SWAP1 PUSH2 0xC269 JUMP JUMPDEST DUP1 ISZERO PUSH2 0x3AEF JUMPI DUP1 PUSH1 0x1F LT PUSH2 0x3AC6 JUMPI PUSH2 0x100 DUP1 DUP4 SLOAD DIV MUL DUP4 MSTORE SWAP2 PUSH1 0x20 ADD SWAP2 PUSH2 0x3AEF JUMP JUMPDEST DUP3 ADD SWAP2 SWAP1 PUSH0 MSTORE PUSH1 0x20 PUSH0 KECCAK256 SWAP1 JUMPDEST DUP2 SLOAD DUP2 MSTORE SWAP1 PUSH1 0x1 ADD SWAP1 PUSH1 0x20 ADD DUP1 DUP4 GT PUSH2 0x3AD2 JUMPI DUP3 SWAP1 SUB PUSH1 0x1F AND DUP3 ADD SWAP2 JUMPDEST POP POP POP POP POP DUP2 MSTORE PUSH1 0x20 ADD PUSH1 0x2 DUP3 ADD DUP1 SLOAD PUSH2 0x3B08 SWAP1 PUSH2 0xC269 JUMP JUMPDEST DUP1 PUSH1 0x1F ADD PUSH1 0x20 DUP1 SWAP2 DIV MUL PUSH1 0x20 ADD PUSH1 0x40 MLOAD SWAP1 DUP2 ADD PUSH1 0x40 MSTORE DUP1 SWAP3 SWAP2 SWAP1 DUP2 DUP2 MSTORE PUSH1 0x20 ADD DUP3 DUP1 SLOAD PUSH2 0x3B34 SWAP1 PUSH2 0xC269 JUMP JUMPDEST DUP1 ISZERO PUSH2 0x3B7F JUMPI DUP1 PUSH1 0x1F LT PUSH2 0x3B56 JUMPI PUSH2 0x100 DUP1 DUP4 SLOAD DIV MUL DUP4 MSTORE SWAP2 PUSH1 0x20 ADD SWAP2 PUSH2 0x3B7F JUMP JUMPDEST DUP3 ADD SWAP2 SWAP1 PUSH0 MSTORE PUSH1 0x20 PUSH0 KECCAK256 SWAP1 JUMPDEST DUP2 SLOAD DUP2 MSTORE SWAP1 PUSH1 0x1 ADD SWAP1 PUSH1 0x20 ADD DUP1 DUP4 GT PUSH2 0x3B62 JUMPI DUP3 SWAP1 SUB PUSH1 0x1F AND DUP3 ADD SWAP2 JUMPDEST POP POP POP POP POP DUP2 MSTORE POP POP DUP3 DUP3 DUP2 MLOAD DUP2 LT PUSH2 0x3B9A JUMPI PUSH2 0x3B9A PUSH2 0xC255 JUMP JUMPDEST PUSH1 0x20 SWAP1 DUP2 MUL SWAP2 SWAP1 SWAP2 ADD ADD MSTORE PUSH1 0x1 ADD PUSH2 0x3A20 JUMP JUMPDEST POP SWAP3 SWAP2 POP POP JUMP JUMPDEST PUSH0 DUP1 SLOAD PUSH1 0x1 PUSH1 0x1 PUSH1 0xA0 SHL SUB AND CALLER DUP2 EQ PUSH2 0x3BDF JUMPI PUSH1 0x40 MLOAD PUSH3 0x461BCD PUSH1 0xE5 SHL DUP2 MSTORE PUSH1 0x4 ADD PUSH2 0x12AD SWAP1 PUSH2 0xC29B JUMP JUMPDEST POP POP PUSH1 0x1 PUSH1 0x1 PUSH1 0xA0 SHL SUB AND PUSH0 SWAP1 DUP2 MSTORE PUSH1 0x1 PUSH1 0x20 DUP2 SWAP1 MSTORE PUSH1 0x40 SWAP1 SWAP2 KECCAK256 DUP1 SLOAD PUSH1 0xFF NOT AND DUP3 OR SWAP1 SSTORE SWAP1 JUMP JUMPDEST PUSH1 0x4 SLOAD PUSH1 0x60 SWAP1 DUP1 PUSH1 0x1 PUSH1 0x1 PUSH1 0x40 SHL SUB DUP2 GT ISZERO PUSH2 0x3C25 JUMPI PUSH2 0x3C25 PUSH2 0xA98B JUMP JUMPDEST PUSH1 0x40 MLOAD SWAP1 DUP1 DUP3 MSTORE DUP1 PUSH1 0x20 MUL PUSH1 0x20 ADD DUP3 ADD PUSH1 0x40 MSTORE DUP1 ISZERO PUSH2 0x3C5E JUMPI DUP2 PUSH1 0x20 ADD JUMPDEST PUSH2 0x3C4B PUSH2 0xA584 JUMP JUMPDEST DUP2 MSTORE PUSH1 0x20 ADD SWAP1 PUSH1 0x1 SWAP1 SUB SWAP1 DUP2 PUSH2 0x3C43 JUMPI SWAP1 POP JUMPDEST POP SWAP2 POP PUSH0 JUMPDEST DUP2 DUP2 LT ISZERO PUSH2 0x3CA6 JUMPI PUSH2 0x3C81 PUSH1 0x4 DUP3 DUP2 SLOAD DUP2 LT PUSH2 0x1948 JUMPI PUSH2 0x1948 PUSH2 0xC255 JUMP JUMPDEST DUP4 DUP3 DUP2 MLOAD DUP2 LT PUSH2 0x3C93 JUMPI PUSH2 0x3C93 PUSH2 0xC255 JUMP JUMPDEST PUSH1 0x20 SWAP1 DUP2 MUL SWAP2 SWAP1 SWAP2 ADD ADD MSTORE PUSH1 0x1 ADD PUSH2 0x3C63 JUMP JUMPDEST POP POP SWAP1 JUMP JUMPDEST CALLER PUSH0 SWAP1 DUP2 MSTORE PUSH1 0x1 PUSH1 0x20 MSTORE PUSH1 0x40 SWAP1 KECCAK256 SLOAD PUSH1 0xFF AND PUSH2 0x3CD9 JUMPI PUSH1 0x40 MLOAD PUSH3 0x461BCD PUSH1 0xE5 SHL DUP2 MSTORE PUSH1 0x4 ADD PUSH2 0x12AD SWAP1 PUSH2 0xC678 JUMP JUMPDEST PUSH0 JUMPDEST DUP2 MLOAD DUP2 LT ISZERO PUSH2 0x346A JUMPI PUSH2 0x3D27 DUP3 DUP3 DUP2 MLOAD DUP2 LT PUSH2 0x3CF9 JUMPI PUSH2 0x3CF9 PUSH2 0xC255 JUMP JUMPDEST PUSH1 0x20 MUL PUSH1 0x20 ADD ADD MLOAD PUSH0 ADD MLOAD DUP4 DUP4 DUP2 MLOAD DUP2 LT PUSH2 0x3D16 JUMPI PUSH2 0x3D16 PUSH2 0xC255 JUMP JUMPDEST PUSH1 0x20 MUL PUSH1 0x20 ADD ADD MLOAD PUSH1 0x20 ADD MLOAD PUSH2 0x69FA JUMP JUMPDEST PUSH1 0x1 ADD PUSH2 0x3CDB JUMP JUMPDEST PUSH1 0x9 PUSH1 0x20 MSTORE DUP3 PUSH0 MSTORE PUSH1 0x40 PUSH0 KECCAK256 PUSH1 0x20 MSTORE DUP2 PUSH0 MSTORE PUSH1 0x40 PUSH0 KECCAK256 DUP2 DUP2 SLOAD DUP2 LT PUSH2 0x3D52 JUMPI PUSH0 DUP1 REVERT JUMPDEST SWAP1 PUSH0 MSTORE PUSH1 0x20 PUSH0 KECCAK256 SWAP1 PUSH1 0x3 MUL ADD PUSH0 SWAP3 POP SWAP3 POP POP POP DUP1 PUSH0 ADD SLOAD SWAP1 DUP1 PUSH1 0x1 ADD DUP1 SLOAD PUSH2 0x3D79 SWAP1 PUSH2 0xC269 JUMP JUMPDEST DUP1 PUSH1 0x1F ADD PUSH1 0x20 DUP1 SWAP2 DIV MUL PUSH1 0x20 ADD PUSH1 0x40 MLOAD SWAP1 DUP2 ADD PUSH1 0x40 MSTORE DUP1 SWAP3 SWAP2 SWAP1 DUP2 DUP2 MSTORE PUSH1 0x20 ADD DUP3 DUP1 SLOAD PUSH2 0x3DA5 SWAP1 PUSH2 0xC269 JUMP JUMPDEST DUP1 ISZERO PUSH2 0x3DF0 JUMPI DUP1 PUSH1 0x1F LT PUSH2 0x3DC7 JUMPI PUSH2 0x100 DUP1 DUP4 SLOAD DIV MUL DUP4 MSTORE SWAP2 PUSH1 0x20 ADD SWAP2 PUSH2 0x3DF0 JUMP JUMPDEST DUP3 ADD SWAP2 SWAP1 PUSH0 MSTORE PUSH1 0x20 PUSH0 KECCAK256 SWAP1 JUMPDEST DUP2 SLOAD DUP2 MSTORE SWAP1 PUSH1 0x1 ADD SWAP1 PUSH1 0x20 ADD DUP1 DUP4 GT PUSH2 0x3DD3 JUMPI DUP3 SWAP1 SUB PUSH1 0x1F AND DUP3 ADD SWAP2 JUMPDEST POP POP POP POP POP SWAP1 DUP1 PUSH1 0x2 ADD DUP1 SLOAD PUSH2 0x3E05 SWAP1 PUSH2 0xC269 JUMP JUMPDEST DUP1 PUSH1 0x1F ADD PUSH1 0x20 DUP1 SWAP2 DIV MUL PUSH1 0x20 ADD PUSH1 0x40 MLOAD SWAP1 DUP2 ADD PUSH1 0x40 MSTORE DUP1 SWAP3 SWAP2 SWAP1 DUP2 DUP2 MSTORE PUSH1 0x20 ADD DUP3 DUP1 SLOAD PUSH2 0x3E31 SWAP1 PUSH2 0xC269 JUMP JUMPDEST DUP1 ISZERO PUSH2 0x3E7C JUMPI DUP1 PUSH1 0x1F LT PUSH2 0x3E53 JUMPI PUSH2 0x100 DUP1 DUP4 SLOAD DIV MUL DUP4 MSTORE SWAP2 PUSH1 0x20 ADD SWAP2 PUSH2 0x3E7C JUMP JUMPDEST DUP3 ADD SWAP2 SWAP1 PUSH0 MSTORE PUSH1 0x20 PUSH0 KECCAK256 SWAP1 JUMPDEST DUP2 SLOAD DUP2 MSTORE SWAP1 PUSH1 0x1 ADD SWAP1 PUSH1 0x20 ADD DUP1 DUP4 GT PUSH2 0x3E5F JUMPI DUP3 SWAP1 SUB PUSH1 0x1F AND DUP3 ADD SWAP2 JUMPDEST POP POP POP POP POP SWAP1 POP DUP4 JUMP JUMPDEST PUSH0 DUP1 SLOAD PUSH1 0x1 PUSH1 0x1 PUSH1 0xA0 SHL SUB AND CALLER DUP2 EQ PUSH2 0x3EB1 JUMPI PUSH1 0x40 MLOAD PUSH3 0x461BCD PUSH1 0xE5 SHL DUP2 MSTORE PUSH1 0x4 ADD PUSH2 0x12AD SWAP1 PUSH2 0xC29B JUMP JUMPDEST PUSH0 JUMPDEST DUP4 MLOAD DUP2 LT ISZERO PUSH2 0x1BD2 JUMPI PUSH2 0x3EFF DUP5 DUP3 DUP2 MLOAD DUP2 LT PUSH2 0x3ED1 JUMPI PUSH2 0x3ED1 PUSH2 0xC255 JUMP JUMPDEST PUSH1 0x20 MUL PUSH1 0x20 ADD ADD MLOAD PUSH0 ADD MLOAD DUP6 DUP4 DUP2 MLOAD DUP2 LT PUSH2 0x3EEE JUMPI PUSH2 0x3EEE PUSH2 0xC255 JUMP JUMPDEST PUSH1 0x20 MUL PUSH1 0x20 ADD ADD MLOAD PUSH1 0x20 ADD MLOAD PUSH2 0x6A56 JUMP JUMPDEST POP PUSH1 0x1 ADD PUSH2 0x3EB3 JUMP JUMPDEST PUSH1 0x60 PUSH0 DUP3 MLOAD PUSH1 0x1 PUSH1 0x1 PUSH1 0x40 SHL SUB DUP2 GT ISZERO PUSH2 0x3F24 JUMPI PUSH2 0x3F24 PUSH2 0xA98B JUMP JUMPDEST PUSH1 0x40 MLOAD SWAP1 DUP1 DUP3 MSTORE DUP1 PUSH1 0x20 MUL PUSH1 0x20 ADD DUP3 ADD PUSH1 0x40 MSTORE DUP1 ISZERO PUSH2 0x3F4D JUMPI DUP2 PUSH1 0x20 ADD PUSH1 0x20 DUP3 MUL DUP1 CALLDATASIZE DUP4 CALLDATACOPY ADD SWAP1 POP JUMPDEST POP SWAP1 POP PUSH0 JUMPDEST DUP4 MLOAD DUP2 LT ISZERO PUSH2 0x3BAD JUMPI PUSH1 0x3 PUSH0 DUP6 DUP4 DUP2 MLOAD DUP2 LT PUSH2 0x3F70 JUMPI PUSH2 0x3F70 PUSH2 0xC255 JUMP JUMPDEST PUSH1 0x20 MUL PUSH1 0x20 ADD ADD MLOAD DUP2 MSTORE PUSH1 0x20 ADD SWAP1 DUP2 MSTORE PUSH1 0x20 ADD PUSH0 KECCAK256 PUSH1 0x1 ADD PUSH1 0xC ADD PUSH0 SWAP1 SLOAD SWAP1 PUSH2 0x100 EXP SWAP1 DIV PUSH1 0x1 PUSH1 0x1 PUSH1 0xA0 SHL SUB AND DUP3 DUP3 DUP2 MLOAD DUP2 LT PUSH2 0x3FB0 JUMPI PUSH2 0x3FB0 PUSH2 0xC255 JUMP JUMPDEST PUSH1 0x1 PUSH1 0x1 PUSH1 0xA0 SHL SUB SWAP1 SWAP3 AND PUSH1 0x20 SWAP3 DUP4 MUL SWAP2 SWAP1 SWAP2 ADD SWAP1 SWAP2 ADD MSTORE PUSH1 0x1 ADD PUSH2 0x3F52 JUMP JUMPDEST PUSH1 0x60 DUP2 MLOAD PUSH1 0x1 PUSH1 0x1 PUSH1 0x40 SHL SUB DUP2 GT ISZERO PUSH2 0x3FEB JUMPI PUSH2 0x3FEB PUSH2 0xA98B JUMP JUMPDEST PUSH1 0x40 MLOAD SWAP1 DUP1 DUP3 MSTORE DUP1 PUSH1 0x20 MUL PUSH1 0x20 ADD DUP3 ADD PUSH1 0x40 MSTORE DUP1 ISZERO PUSH2 0x4014 JUMPI DUP2 PUSH1 0x20 ADD PUSH1 0x20 DUP3 MUL DUP1 CALLDATASIZE DUP4 CALLDATACOPY ADD SWAP1 POP JUMPDEST POP SWAP1 POP PUSH0 JUMPDEST DUP3 MLOAD DUP2 LT ISZERO PUSH2 0x3BAD JUMPI PUSH1 0x14 PUSH0 DUP6 DUP2 MSTORE PUSH1 0x20 ADD SWAP1 DUP2 MSTORE PUSH1 0x20 ADD PUSH0 KECCAK256 PUSH0 DUP5 DUP4 DUP2 MLOAD DUP2 LT PUSH2 0x4046 JUMPI PUSH2 0x4046 PUSH2 0xC255 JUMP JUMPDEST PUSH1 0x20 MUL PUSH1 0x20 ADD ADD MLOAD DUP2 MSTORE PUSH1 0x20 ADD SWAP1 DUP2 MSTORE PUSH1 0x20 ADD PUSH0 KECCAK256 SLOAD DUP3 DUP3 DUP2 MLOAD DUP2 LT PUSH2 0x406E JUMPI PUSH2 0x406E PUSH2 0xC255 JUMP JUMPDEST PUSH1 0x20 SWAP1 DUP2 MUL SWAP2 SWAP1 SWAP2 ADD ADD MSTORE PUSH1 0x1 ADD PUSH2 0x4019 JUMP JUMPDEST PUSH1 0x19 PUSH1 0x20 MSTORE DUP2 PUSH0 MSTORE PUSH1 0x40 PUSH0 KECCAK256 DUP2 DUP2 SLOAD DUP2 LT PUSH2 0x409A JUMPI PUSH0 DUP1 REVERT JUMPDEST PUSH0 SWAP2 DUP3 MSTORE PUSH1 0x20 SWAP1 SWAP2 KECCAK256 PUSH1 0x2 SWAP1 SWAP2 MUL ADD DUP1 SLOAD PUSH1 0x1 SWAP1 SWAP2 ADD SLOAD SWAP1 SWAP3 POP SWAP1 POP DUP3 JUMP JUMPDEST PUSH1 0x60 DUP1 PUSH1 0x60 DUP1 PUSH1 0x60 DUP1 PUSH2 0x40CB DUP8 PUSH2 0x103E JUMP JUMPDEST PUSH0 DUP9 DUP2 MSTORE PUSH1 0x12 PUSH1 0x20 SWAP1 DUP2 MSTORE PUSH1 0x40 SWAP2 DUP3 SWAP1 KECCAK256 DUP1 SLOAD DUP4 MLOAD DUP2 DUP5 MUL DUP2 ADD DUP5 ADD SWAP1 SWAP5 MSTORE DUP1 DUP5 MSTORE SWAP4 SWAP10 POP PUSH2 0x412E SWAP4 DUP12 SWAP4 SWAP3 DUP4 ADD DUP3 DUP3 DUP1 ISZERO PUSH2 0x4124 JUMPI PUSH1 0x20 MUL DUP3 ADD SWAP2 SWAP1 PUSH0 MSTORE PUSH1 0x20 PUSH0 KECCAK256 SWAP1 JUMPDEST DUP2 SLOAD DUP2 MSTORE PUSH1 0x20 ADD SWAP1 PUSH1 0x1 ADD SWAP1 DUP1 DUP4 GT PUSH2 0x4110 JUMPI JUMPDEST POP POP POP POP POP PUSH2 0x3FD0 JUMP JUMPDEST SWAP1 POP PUSH2 0x4139 DUP8 PUSH2 0x5683 JUMP JUMPDEST SWAP5 POP PUSH2 0x4144 DUP8 PUSH2 0x1630 JUMP JUMPDEST PUSH1 0x24 DUP1 SLOAD PUSH1 0x40 MLOAD PUSH4 0x1C3A394F PUSH1 0xE2 SHL DUP2 MSTORE PUSH1 0x4 DUP2 ADD DUP12 SWAP1 MSTORE SWAP3 SWAP7 POP PUSH1 0x1 PUSH1 0x1 PUSH1 0xA0 SHL SUB AND SWAP2 PUSH4 0x70E8E53C SWAP2 ADD PUSH0 PUSH1 0x40 MLOAD DUP1 DUP4 SUB DUP2 DUP7 GAS STATICCALL ISZERO DUP1 ISZERO PUSH2 0x418A JUMPI RETURNDATASIZE PUSH0 DUP1 RETURNDATACOPY RETURNDATASIZE PUSH0 REVERT JUMPDEST POP POP POP POP PUSH1 0x40 MLOAD RETURNDATASIZE PUSH0 DUP3 RETURNDATACOPY PUSH1 0x1F RETURNDATASIZE SWAP1 DUP2 ADD PUSH1 0x1F NOT AND DUP3 ADD PUSH1 0x40 MSTORE PUSH2 0x41B1 SWAP2 SWAP1 DUP2 ADD SWAP1 PUSH2 0xC733 JUMP JUMPDEST PUSH1 0x24 DUP1 SLOAD PUSH1 0x40 MLOAD PUSH4 0x32FD985 PUSH1 0xE4 SHL DUP2 MSTORE PUSH1 0x4 DUP2 ADD DUP12 SWAP1 MSTORE SWAP3 SWAP6 POP PUSH1 0x1 PUSH1 0x1 PUSH1 0xA0 SHL SUB AND SWAP2 PUSH4 0x32FD9850 SWAP2 ADD PUSH0 PUSH1 0x40 MLOAD DUP1 DUP4 SUB DUP2 DUP7 GAS STATICCALL ISZERO DUP1 ISZERO PUSH2 0x41F7 JUMPI RETURNDATASIZE PUSH0 DUP1 RETURNDATACOPY RETURNDATASIZE PUSH0 REVERT JUMPDEST POP POP POP POP PUSH1 0x40 MLOAD RETURNDATASIZE PUSH0 DUP3 RETURNDATACOPY PUSH1 0x1F RETURNDATASIZE SWAP1 DUP2 ADD PUSH1 0x1F NOT AND DUP3 ADD PUSH1 0x40 MSTORE PUSH2 0x421E SWAP2 SWAP1 DUP2 ADD SWAP1 PUSH2 0xC733 JUMP JUMPDEST SWAP2 POP SWAP2 SWAP4 SWAP6 POP SWAP2 SWAP4 SWAP6 JUMP JUMPDEST PUSH1 0x1 PUSH1 0x1 PUSH1 0xA0 SHL SUB DUP2 AND PUSH0 SWAP1 DUP2 MSTORE PUSH1 0xB PUSH1 0x20 MSTORE PUSH1 0x40 DUP2 KECCAK256 DUP1 SLOAD PUSH1 0x60 SWAP3 SWAP1 PUSH1 0x1 PUSH1 0x1 PUSH1 0x40 SHL SUB DUP2 GT ISZERO PUSH2 0x425D JUMPI PUSH2 0x425D PUSH2 0xA98B JUMP JUMPDEST PUSH1 0x40 MLOAD SWAP1 DUP1 DUP3 MSTORE DUP1 PUSH1 0x20 MUL PUSH1 0x20 ADD DUP3 ADD PUSH1 0x40 MSTORE DUP1 ISZERO PUSH2 0x4296 JUMPI DUP2 PUSH1 0x20 ADD JUMPDEST PUSH2 0x4283 PUSH2 0xA640 JUMP JUMPDEST DUP2 MSTORE PUSH1 0x20 ADD SWAP1 PUSH1 0x1 SWAP1 SUB SWAP1 DUP2 PUSH2 0x427B JUMPI SWAP1 POP JUMPDEST POP SWAP1 POP PUSH0 JUMPDEST DUP3 SLOAD DUP2 LT ISZERO PUSH2 0x127A JUMPI PUSH1 0x3 PUSH0 DUP5 DUP4 DUP2 SLOAD DUP2 LT PUSH2 0x42B9 JUMPI PUSH2 0x42B9 PUSH2 0xC255 JUMP JUMPDEST SWAP1 PUSH0 MSTORE PUSH1 0x20 PUSH0 KECCAK256 ADD SLOAD DUP2 MSTORE PUSH1 0x20 ADD SWAP1 DUP2 MSTORE PUSH1 0x20 ADD PUSH0 KECCAK256 PUSH1 0x40 MLOAD DUP1 PUSH1 0x80 ADD PUSH1 0x40 MSTORE SWAP1 DUP2 PUSH0 DUP3 ADD SLOAD DUP2 MSTORE PUSH1 0x20 ADD PUSH1 0x1 DUP3 ADD PUSH1 0x40 MLOAD DUP1 PUSH2 0x300 ADD PUSH1 0x40 MSTORE SWAP1 DUP2 PUSH0 DUP3 ADD DUP1 SLOAD PUSH2 0x4303 SWAP1 PUSH2 0xC269 JUMP JUMPDEST DUP1 PUSH1 0x1F ADD PUSH1 0x20 DUP1 SWAP2 DIV MUL PUSH1 0x20 ADD PUSH1 0x40 MLOAD SWAP1 DUP2 ADD PUSH1 0x40 MSTORE DUP1 SWAP3 SWAP2 SWAP1 DUP2 DUP2 MSTORE PUSH1 0x20 ADD DUP3 DUP1 SLOAD PUSH2 0x432F SWAP1 PUSH2 0xC269 JUMP JUMPDEST DUP1 ISZERO PUSH2 0x437A JUMPI DUP1 PUSH1 0x1F LT PUSH2 0x4351 JUMPI PUSH2 0x100 DUP1 DUP4 SLOAD DIV MUL DUP4 MSTORE SWAP2 PUSH1 0x20 ADD SWAP2 PUSH2 0x437A JUMP JUMPDEST DUP3 ADD SWAP2 SWAP1 PUSH0 MSTORE PUSH1 0x20 PUSH0 KECCAK256 SWAP1 JUMPDEST DUP2 SLOAD DUP2 MSTORE SWAP1 PUSH1 0x1 ADD SWAP1 PUSH1 0x20 ADD DUP1 DUP4 GT PUSH2 0x435D JUMPI DUP3 SWAP1 SUB PUSH1 0x1F AND DUP3 ADD SWAP2 JUMPDEST POP POP POP POP POP DUP2 MSTORE PUSH1 0x20 ADD PUSH1 0x1 DUP3 ADD SLOAD DUP2 MSTORE PUSH1 0x20 ADD PUSH1 0x2 DUP3 ADD DUP1 SLOAD PUSH2 0x439D SWAP1 PUSH2 0xC269 JUMP JUMPDEST DUP1 PUSH1 0x1F ADD PUSH1 0x20 DUP1 SWAP2 DIV MUL PUSH1 0x20 ADD PUSH1 0x40 MLOAD SWAP1 DUP2 ADD PUSH1 0x40 MSTORE DUP1 SWAP3 SWAP2 SWAP1 DUP2 DUP2 MSTORE PUSH1 0x20 ADD DUP3 DUP1 SLOAD PUSH2 0x43C9 SWAP1 PUSH2 0xC269 JUMP JUMPDEST DUP1 ISZERO PUSH2 0x4414 JUMPI DUP1 PUSH1 0x1F LT PUSH2 0x43EB JUMPI PUSH2 0x100 DUP1 DUP4 SLOAD DIV MUL DUP4 MSTORE SWAP2 PUSH1 0x20 ADD SWAP2 PUSH2 0x4414 JUMP JUMPDEST DUP3 ADD SWAP2 SWAP1 PUSH0 MSTORE PUSH1 0x20 PUSH0 KECCAK256 SWAP1 JUMPDEST DUP2 SLOAD DUP2 MSTORE SWAP1 PUSH1 0x1 ADD SWAP1 PUSH1 0x20 ADD DUP1 DUP4 GT PUSH2 0x43F7 JUMPI DUP3 SWAP1 SUB PUSH1 0x1F AND DUP3 ADD SWAP2 JUMPDEST POP POP POP POP POP DUP2 MSTORE PUSH1 0x20 ADD PUSH1 0x3 DUP3 ADD SLOAD DUP2 MSTORE PUSH1 0x20 ADD PUSH1 0x4 DUP3 ADD SLOAD DUP2 MSTORE PUSH1 0x20 ADD PUSH1 0x5 DUP3 ADD SLOAD DUP2 MSTORE PUSH1 0x20 ADD PUSH1 0x6 DUP3 ADD SLOAD DUP2 MSTORE PUSH1 0x20 ADD PUSH1 0x7 DUP3 ADD DUP1 SLOAD DUP1 PUSH1 0x20 MUL PUSH1 0x20 ADD PUSH1 0x40 MLOAD SWAP1 DUP2 ADD PUSH1 0x40 MSTORE DUP1 SWAP3 SWAP2 SWAP1 DUP2 DUP2 MSTORE PUSH1 0x20 ADD DUP3 DUP1 SLOAD DUP1 ISZERO PUSH2 0x4492 JUMPI PUSH1 0x20 MUL DUP3 ADD SWAP2 SWAP1 PUSH0 MSTORE PUSH1 0x20 PUSH0 KECCAK256 SWAP1 JUMPDEST DUP2 SLOAD DUP2 MSTORE PUSH1 0x20 ADD SWAP1 PUSH1 0x1 ADD SWAP1 DUP1 DUP4 GT PUSH2 0x447E JUMPI JUMPDEST POP POP POP POP POP DUP2 MSTORE PUSH1 0x20 ADD PUSH1 0x8 DUP3 ADD DUP1 SLOAD DUP1 PUSH1 0x20 MUL PUSH1 0x20 ADD PUSH1 0x40 MLOAD SWAP1 DUP2 ADD PUSH1 0x40 MSTORE DUP1 SWAP3 SWAP2 SWAP1 DUP2 DUP2 MSTORE PUSH1 0x20 ADD PUSH0 SWAP1 JUMPDEST DUP3 DUP3 LT ISZERO PUSH2 0x4567 JUMPI DUP4 DUP3 SWAP1 PUSH0 MSTORE PUSH1 0x20 PUSH0 KECCAK256 ADD DUP1 SLOAD PUSH2 0x44DC SWAP1 PUSH2 0xC269 JUMP JUMPDEST DUP1 PUSH1 0x1F ADD PUSH1 0x20 DUP1 SWAP2 DIV MUL PUSH1 0x20 ADD PUSH1 0x40 MLOAD SWAP1 DUP2 ADD PUSH1 0x40 MSTORE DUP1 SWAP3 SWAP2 SWAP1 DUP2 DUP2 MSTORE PUSH1 0x20 ADD DUP3 DUP1 SLOAD PUSH2 0x4508 SWAP1 PUSH2 0xC269 JUMP JUMPDEST DUP1 ISZERO PUSH2 0x4553 JUMPI DUP1 PUSH1 0x1F LT PUSH2 0x452A JUMPI PUSH2 0x100 DUP1 DUP4 SLOAD DIV MUL DUP4 MSTORE SWAP2 PUSH1 0x20 ADD SWAP2 PUSH2 0x4553 JUMP JUMPDEST DUP3 ADD SWAP2 SWAP1 PUSH0 MSTORE PUSH1 0x20 PUSH0 KECCAK256 SWAP1 JUMPDEST DUP2 SLOAD DUP2 MSTORE SWAP1 PUSH1 0x1 ADD SWAP1 PUSH1 0x20 ADD DUP1 DUP4 GT PUSH2 0x4536 JUMPI DUP3 SWAP1 SUB PUSH1 0x1F AND DUP3 ADD SWAP2 JUMPDEST POP POP POP POP POP DUP2 MSTORE PUSH1 0x20 ADD SWAP1 PUSH1 0x1 ADD SWAP1 PUSH2 0x44BF JUMP JUMPDEST POP POP POP POP DUP2 MSTORE PUSH1 0x20 ADD PUSH1 0x9 DUP3 ADD SLOAD DUP2 MSTORE PUSH1 0x20 ADD PUSH1 0xA DUP3 ADD SLOAD DUP2 MSTORE PUSH1 0x20 ADD PUSH1 0xB DUP3 ADD DUP1 SLOAD DUP1 PUSH1 0x20 MUL PUSH1 0x20 ADD PUSH1 0x40 MLOAD SWAP1 DUP2 ADD PUSH1 0x40 MSTORE DUP1 SWAP3 SWAP2 SWAP1 DUP2 DUP2 MSTORE PUSH1 0x20 ADD PUSH0 SWAP1 JUMPDEST DUP3 DUP3 LT ISZERO PUSH2 0x464F JUMPI DUP4 DUP3 SWAP1 PUSH0 MSTORE PUSH1 0x20 PUSH0 KECCAK256 ADD DUP1 SLOAD PUSH2 0x45C4 SWAP1 PUSH2 0xC269 JUMP JUMPDEST DUP1 PUSH1 0x1F ADD PUSH1 0x20 DUP1 SWAP2 DIV MUL PUSH1 0x20 ADD PUSH1 0x40 MLOAD SWAP1 DUP2 ADD PUSH1 0x40 MSTORE DUP1 SWAP3 SWAP2 SWAP1 DUP2 DUP2 MSTORE PUSH1 0x20 ADD DUP3 DUP1 SLOAD PUSH2 0x45F0 SWAP1 PUSH2 0xC269 JUMP JUMPDEST DUP1 ISZERO PUSH2 0x463B JUMPI DUP1 PUSH1 0x1F LT PUSH2 0x4612 JUMPI PUSH2 0x100 DUP1 DUP4 SLOAD DIV MUL DUP4 MSTORE SWAP2 PUSH1 0x20 ADD SWAP2 PUSH2 0x463B JUMP JUMPDEST DUP3 ADD SWAP2 SWAP1 PUSH0 MSTORE PUSH1 0x20 PUSH0 KECCAK256 SWAP1 JUMPDEST DUP2 SLOAD DUP2 MSTORE SWAP1 PUSH1 0x1 ADD SWAP1 PUSH1 0x20 ADD DUP1 DUP4 GT PUSH2 0x461E JUMPI DUP3 SWAP1 SUB PUSH1 0x1F AND DUP3 ADD SWAP2 JUMPDEST POP POP POP POP POP DUP2 MSTORE PUSH1 0x20 ADD SWAP1 PUSH1 0x1 ADD SWAP1 PUSH2 0x45A7 JUMP JUMPDEST POP POP POP SWAP1 DUP3 MSTORE POP PUSH1 0xC DUP3 ADD SLOAD PUSH1 0x1 PUSH1 0x1 PUSH1 0xA0 SHL SUB AND PUSH1 0x20 DUP3 ADD MSTORE PUSH1 0xD DUP3 ADD DUP1 SLOAD PUSH1 0x40 SWAP1 SWAP3 ADD SWAP2 PUSH2 0x467E SWAP1 PUSH2 0xC269 JUMP JUMPDEST DUP1 PUSH1 0x1F ADD PUSH1 0x20 DUP1 SWAP2 DIV MUL PUSH1 0x20 ADD PUSH1 0x40 MLOAD SWAP1 DUP2 ADD PUSH1 0x40 MSTORE DUP1 SWAP3 SWAP2 SWAP1 DUP2 DUP2 MSTORE PUSH1 0x20 ADD DUP3 DUP1 SLOAD PUSH2 0x46AA SWAP1 PUSH2 0xC269 JUMP JUMPDEST DUP1 ISZERO PUSH2 0x46F5 JUMPI DUP1 PUSH1 0x1F LT PUSH2 0x46CC JUMPI PUSH2 0x100 DUP1 DUP4 SLOAD DIV MUL DUP4 MSTORE SWAP2 PUSH1 0x20 ADD SWAP2 PUSH2 0x46F5 JUMP JUMPDEST DUP3 ADD SWAP2 SWAP1 PUSH0 MSTORE PUSH1 0x20 PUSH0 KECCAK256 SWAP1 JUMPDEST DUP2 SLOAD DUP2 MSTORE SWAP1 PUSH1 0x1 ADD SWAP1 PUSH1 0x20 ADD DUP1 DUP4 GT PUSH2 0x46D8 JUMPI DUP3 SWAP1 SUB PUSH1 0x1F AND DUP3 ADD SWAP2 JUMPDEST POP POP POP POP POP DUP2 MSTORE PUSH1 0x20 ADD PUSH1 0xE DUP3 ADD DUP1 SLOAD PUSH2 0x470E SWAP1 PUSH2 0xC269 JUMP JUMPDEST DUP1 PUSH1 0x1F ADD PUSH1 0x20 DUP1 SWAP2 DIV MUL PUSH1 0x20 ADD PUSH1 0x40 MLOAD SWAP1 DUP2 ADD PUSH1 0x40 MSTORE DUP1 SWAP3 SWAP2 SWAP1 DUP2 DUP2 MSTORE PUSH1 0x20 ADD DUP3 DUP1 SLOAD PUSH2 0x473A SWAP1 PUSH2 0xC269 JUMP JUMPDEST DUP1 ISZERO PUSH2 0x4785 JUMPI DUP1 PUSH1 0x1F LT PUSH2 0x475C JUMPI PUSH2 0x100 DUP1 DUP4 SLOAD DIV MUL DUP4 MSTORE SWAP2 PUSH1 0x20 ADD SWAP2 PUSH2 0x4785 JUMP JUMPDEST DUP3 ADD SWAP2 SWAP1 PUSH0 MSTORE PUSH1 0x20 PUSH0 KECCAK256 SWAP1 JUMPDEST DUP2 SLOAD DUP2 MSTORE SWAP1 PUSH1 0x1 ADD SWAP1 PUSH1 0x20 ADD DUP1 DUP4 GT PUSH2 0x4768 JUMPI DUP3 SWAP1 SUB PUSH1 0x1F AND DUP3 ADD SWAP2 JUMPDEST POP POP POP SWAP2 DUP4 MSTORE POP POP PUSH1 0xF DUP3 ADD SLOAD PUSH1 0xFF AND ISZERO ISZERO PUSH1 0x20 DUP1 DUP4 ADD SWAP2 SWAP1 SWAP2 MSTORE PUSH1 0x10 DUP4 ADD DUP1 SLOAD PUSH1 0x40 DUP1 MLOAD DUP3 DUP6 MUL DUP2 ADD DUP6 ADD DUP3 MSTORE DUP3 DUP2 MSTORE SWAP5 ADD SWAP4 SWAP3 PUSH0 SWAP1 DUP5 ADD JUMPDEST DUP3 DUP3 LT ISZERO PUSH2 0x4867 JUMPI DUP4 DUP3 SWAP1 PUSH0 MSTORE PUSH1 0x20 PUSH0 KECCAK256 ADD DUP1 SLOAD PUSH2 0x47DC SWAP1 PUSH2 0xC269 JUMP JUMPDEST DUP1 PUSH1 0x1F ADD PUSH1 0x20 DUP1 SWAP2 DIV MUL PUSH1 0x20 ADD PUSH1 0x40 MLOAD SWAP1 DUP2 ADD PUSH1 0x40 MSTORE DUP1 SWAP3 SWAP2 SWAP1 DUP2 DUP2 MSTORE PUSH1 0x20 ADD DUP3 DUP1 SLOAD PUSH2 0x4808 SWAP1 PUSH2 0xC269 JUMP JUMPDEST DUP1 ISZERO PUSH2 0x4853 JUMPI DUP1 PUSH1 0x1F LT PUSH2 0x482A JUMPI PUSH2 0x100 DUP1 DUP4 SLOAD DIV MUL DUP4 MSTORE SWAP2 PUSH1 0x20 ADD SWAP2 PUSH2 0x4853 JUMP JUMPDEST DUP3 ADD SWAP2 SWAP1 PUSH0 MSTORE PUSH1 0x20 PUSH0 KECCAK256 SWAP1 JUMPDEST DUP2 SLOAD DUP2 MSTORE SWAP1 PUSH1 0x1 ADD SWAP1 PUSH1 0x20 ADD DUP1 DUP4 GT PUSH2 0x4836 JUMPI DUP3 SWAP1 SUB PUSH1 0x1F AND DUP3 ADD SWAP2 JUMPDEST POP POP POP POP POP DUP2 MSTORE PUSH1 0x20 ADD SWAP1 PUSH1 0x1 ADD SWAP1 PUSH2 0x47BF JUMP JUMPDEST POP POP POP POP DUP2 MSTORE PUSH1 0x20 ADD PUSH1 0x11 DUP3 ADD DUP1 SLOAD PUSH2 0x487F SWAP1 PUSH2 0xC269 JUMP JUMPDEST DUP1 PUSH1 0x1F ADD PUSH1 0x20 DUP1 SWAP2 DIV MUL PUSH1 0x20 ADD PUSH1 0x40 MLOAD SWAP1 DUP2 ADD PUSH1 0x40 MSTORE DUP1 SWAP3 SWAP2 SWAP1 DUP2 DUP2 MSTORE PUSH1 0x20 ADD DUP3 DUP1 SLOAD PUSH2 0x48AB SWAP1 PUSH2 0xC269 JUMP JUMPDEST DUP1 ISZERO PUSH2 0x48F6 JUMPI DUP1 PUSH1 0x1F LT PUSH2 0x48CD JUMPI PUSH2 0x100 DUP1 DUP4 SLOAD DIV MUL DUP4 MSTORE SWAP2 PUSH1 0x20 ADD SWAP2 PUSH2 0x48F6 JUMP JUMPDEST DUP3 ADD SWAP2 SWAP1 PUSH0 MSTORE PUSH1 0x20 PUSH0 KECCAK256 SWAP1 JUMPDEST DUP2 SLOAD DUP2 MSTORE SWAP1 PUSH1 0x1 ADD SWAP1 PUSH1 0x20 ADD DUP1 DUP4 GT PUSH2 0x48D9 JUMPI DUP3 SWAP1 SUB PUSH1 0x1F AND DUP3 ADD SWAP2 JUMPDEST POP POP POP SWAP2 DUP4 MSTORE POP POP PUSH1 0x12 DUP3 ADD SLOAD PUSH1 0x20 DUP1 DUP4 ADD SWAP2 SWAP1 SWAP2 MSTORE PUSH1 0x13 DUP4 ADD SLOAD PUSH1 0x40 DUP1 DUP5 ADD SWAP2 SWAP1 SWAP2 MSTORE PUSH1 0x14 DUP5 ADD SLOAD PUSH1 0x60 DUP5 ADD MSTORE PUSH1 0x15 DUP5 ADD SLOAD PUSH1 0xFF DUP1 DUP3 AND ISZERO ISZERO PUSH1 0x80 DUP7 ADD MSTORE PUSH2 0x100 SWAP1 SWAP2 DIV AND ISZERO ISZERO PUSH1 0xA0 DUP5 ADD MSTORE PUSH1 0x16 SWAP1 SWAP4 ADD SLOAD PUSH1 0xC0 SWAP1 SWAP3 ADD SWAP2 SWAP1 SWAP2 MSTORE SWAP2 DUP4 MSTORE PUSH1 0x18 DUP5 ADD SLOAD SWAP2 DUP4 ADD SWAP2 SWAP1 SWAP2 MSTORE PUSH1 0x19 SWAP1 SWAP3 ADD SLOAD SWAP2 ADD MSTORE DUP3 MLOAD DUP4 SWAP1 DUP4 SWAP1 DUP2 LT PUSH2 0x497E JUMPI PUSH2 0x497E PUSH2 0xC255 JUMP JUMPDEST PUSH1 0x20 SWAP1 DUP2 MUL SWAP2 SWAP1 SWAP2 ADD ADD MSTORE PUSH1 0x1 ADD PUSH2 0x429B JUMP JUMPDEST PUSH0 DUP1 SLOAD PUSH1 0x1 PUSH1 0x1 PUSH1 0xA0 SHL SUB AND CALLER DUP2 EQ PUSH2 0x49BC JUMPI PUSH1 0x40 MLOAD PUSH3 0x461BCD PUSH1 0xE5 SHL DUP2 MSTORE PUSH1 0x4 ADD PUSH2 0x12AD SWAP1 PUSH2 0xC29B JUMP JUMPDEST POP POP PUSH1 0x1 PUSH1 0x1 PUSH1 0xA0 SHL SUB AND PUSH0 DUP2 DUP2 MSTORE PUSH1 0x1A PUSH1 0x20 MSTORE PUSH1 0x40 DUP2 KECCAK256 DUP1 SLOAD PUSH1 0xFF NOT AND PUSH1 0x1 SWAP1 DUP2 OR SWAP1 SWAP2 SSTORE PUSH1 0x1B DUP1 SLOAD DUP1 DUP4 ADD DUP3 SSTORE SWAP3 MSTORE PUSH32 0x3AD8AA4F87544323A9D1E5DD902F40C356527A7955687113DB5F9A85AD579DC1 SWAP1 SWAP2 ADD DUP1 SLOAD PUSH1 0x1 PUSH1 0x1 PUSH1 0xA0 SHL SUB NOT AND SWAP1 SWAP3 OR SWAP1 SWAP2 SSTORE SWAP1 JUMP JUMPDEST PUSH1 0x17 SLOAD PUSH1 0x60 SWAP1 PUSH0 SWAP1 PUSH1 0x1 PUSH1 0x1 PUSH1 0x40 SHL SUB DUP2 GT ISZERO PUSH2 0x4A45 JUMPI PUSH2 0x4A45 PUSH2 0xA98B JUMP JUMPDEST PUSH1 0x40 MLOAD SWAP1 DUP1 DUP3 MSTORE DUP1 PUSH1 0x20 MUL PUSH1 0x20 ADD DUP3 ADD PUSH1 0x40 MSTORE DUP1 ISZERO PUSH2 0x4A99 JUMPI DUP2 PUSH1 0x20 ADD JUMPDEST PUSH2 0x4A86 PUSH1 0x40 MLOAD DUP1 PUSH1 0x60 ADD PUSH1 0x40 MSTORE DUP1 PUSH0 DUP2 MSTORE PUSH1 0x20 ADD PUSH1 0x60 DUP2 MSTORE PUSH1 0x20 ADD PUSH1 0x60 DUP2 MSTORE POP SWAP1 JUMP JUMPDEST DUP2 MSTORE PUSH1 0x20 ADD SWAP1 PUSH1 0x1 SWAP1 SUB SWAP1 DUP2 PUSH2 0x4A63 JUMPI SWAP1 POP JUMPDEST POP SWAP1 POP PUSH0 JUMPDEST PUSH1 0x17 SLOAD DUP2 LT ISZERO PUSH2 0x13F1 JUMPI PUSH1 0x15 PUSH0 PUSH1 0x17 DUP4 DUP2 SLOAD DUP2 LT PUSH2 0x4ABE JUMPI PUSH2 0x4ABE PUSH2 0xC255 JUMP JUMPDEST SWAP1 PUSH0 MSTORE PUSH1 0x20 PUSH0 KECCAK256 ADD SLOAD DUP2 MSTORE PUSH1 0x20 ADD SWAP1 DUP2 MSTORE PUSH1 0x20 ADD PUSH0 KECCAK256 PUSH1 0x40 MLOAD DUP1 PUSH1 0x60 ADD PUSH1 0x40 MSTORE SWAP1 DUP2 PUSH0 DUP3 ADD SLOAD DUP2 MSTORE PUSH1 0x20 ADD PUSH1 0x1 DUP3 ADD DUP1 SLOAD PUSH2 0x4AF8 SWAP1 PUSH2 0xC269 JUMP JUMPDEST DUP1 PUSH1 0x1F ADD PUSH1 0x20 DUP1 SWAP2 DIV MUL PUSH1 0x20 ADD PUSH1 0x40 MLOAD SWAP1 DUP2 ADD PUSH1 0x40 MSTORE DUP1 SWAP3 SWAP2 SWAP1 DUP2 DUP2 MSTORE PUSH1 0x20 ADD DUP3 DUP1 SLOAD PUSH2 0x4B24 SWAP1 PUSH2 0xC269 JUMP JUMPDEST DUP1 ISZERO PUSH2 0x4B6F JUMPI DUP1 PUSH1 0x1F LT PUSH2 0x4B46 JUMPI PUSH2 0x100 DUP1 DUP4 SLOAD DIV MUL DUP4 MSTORE SWAP2 PUSH1 0x20 ADD SWAP2 PUSH2 0x4B6F JUMP JUMPDEST DUP3 ADD SWAP2 SWAP1 PUSH0 MSTORE PUSH1 0x20 PUSH0 KECCAK256 SWAP1 JUMPDEST DUP2 SLOAD DUP2 MSTORE SWAP1 PUSH1 0x1 ADD SWAP1 PUSH1 0x20 ADD DUP1 DUP4 GT PUSH2 0x4B52 JUMPI DUP3 SWAP1 SUB PUSH1 0x1F AND DUP3 ADD SWAP2 JUMPDEST POP POP POP POP POP DUP2 MSTORE PUSH1 0x20 ADD PUSH1 0x2 DUP3 ADD DUP1 SLOAD PUSH2 0x4B88 SWAP1 PUSH2 0xC269 JUMP JUMPDEST DUP1 PUSH1 0x1F ADD PUSH1 0x20 DUP1 SWAP2 DIV MUL PUSH1 0x20 ADD PUSH1 0x40 MLOAD SWAP1 DUP2 ADD PUSH1 0x40 MSTORE DUP1 SWAP3 SWAP2 SWAP1 DUP2 DUP2 MSTORE PUSH1 0x20 ADD DUP3 DUP1 SLOAD PUSH2 0x4BB4 SWAP1 PUSH2 0xC269 JUMP JUMPDEST DUP1 ISZERO PUSH2 0x4BFF JUMPI DUP1 PUSH1 0x1F LT PUSH2 0x4BD6 JUMPI PUSH2 0x100 DUP1 DUP4 SLOAD DIV MUL DUP4 MSTORE SWAP2 PUSH1 0x20 ADD SWAP2 PUSH2 0x4BFF JUMP JUMPDEST DUP3 ADD SWAP2 SWAP1 PUSH0 MSTORE PUSH1 0x20 PUSH0 KECCAK256 SWAP1 JUMPDEST DUP2 SLOAD DUP2 MSTORE SWAP1 PUSH1 0x1 ADD SWAP1 PUSH1 0x20 ADD DUP1 DUP4 GT PUSH2 0x4BE2 JUMPI DUP3 SWAP1 SUB PUSH1 0x1F AND DUP3 ADD SWAP2 JUMPDEST POP POP POP POP POP DUP2 MSTORE POP POP DUP3 DUP3 DUP2 MLOAD DUP2 LT PUSH2 0x4C1A JUMPI PUSH2 0x4C1A PUSH2 0xC255 JUMP JUMPDEST PUSH1 0x20 SWAP1 DUP2 MUL SWAP2 SWAP1 SWAP2 ADD ADD MSTORE PUSH1 0x1 ADD PUSH2 0x4A9E JUMP JUMPDEST PUSH2 0x4C35 PUSH2 0xA584 JUMP JUMPDEST PUSH0 PUSH1 0x3 PUSH0 DUP5 DUP2 MSTORE PUSH1 0x20 ADD SWAP1 DUP2 MSTORE PUSH1 0x20 ADD PUSH0 KECCAK256 PUSH1 0x40 MLOAD DUP1 PUSH1 0x80 ADD PUSH1 0x40 MSTORE SWAP1 DUP2 PUSH0 DUP3 ADD SLOAD DUP2 MSTORE PUSH1 0x20 ADD PUSH1 0x1 DUP3 ADD PUSH1 0x40 MLOAD DUP1 PUSH2 0x300 ADD PUSH1 0x40 MSTORE SWAP1 DUP2 PUSH0 DUP3 ADD DUP1 SLOAD PUSH2 0x4C7B SWAP1 PUSH2 0xC269 JUMP JUMPDEST DUP1 PUSH1 0x1F ADD PUSH1 0x20 DUP1 SWAP2 DIV MUL PUSH1 0x20 ADD PUSH1 0x40 MLOAD SWAP1 DUP2 ADD PUSH1 0x40 MSTORE DUP1 SWAP3 SWAP2 SWAP1 DUP2 DUP2 MSTORE PUSH1 0x20 ADD DUP3 DUP1 SLOAD PUSH2 0x4CA7 SWAP1 PUSH2 0xC269 JUMP JUMPDEST DUP1 ISZERO PUSH2 0x4CF2 JUMPI DUP1 PUSH1 0x1F LT PUSH2 0x4CC9 JUMPI PUSH2 0x100 DUP1 DUP4 SLOAD DIV MUL DUP4 MSTORE SWAP2 PUSH1 0x20 ADD SWAP2 PUSH2 0x4CF2 JUMP JUMPDEST DUP3 ADD SWAP2 SWAP1 PUSH0 MSTORE PUSH1 0x20 PUSH0 KECCAK256 SWAP1 JUMPDEST DUP2 SLOAD DUP2 MSTORE SWAP1 PUSH1 0x1 ADD SWAP1 PUSH1 0x20 ADD DUP1 DUP4 GT PUSH2 0x4CD5 JUMPI DUP3 SWAP1 SUB PUSH1 0x1F AND DUP3 ADD SWAP2 JUMPDEST POP POP POP POP POP DUP2 MSTORE PUSH1 0x20 ADD PUSH1 0x1 DUP3 ADD SLOAD DUP2 MSTORE PUSH1 0x20 ADD PUSH1 0x2 DUP3 ADD DUP1 SLOAD PUSH2 0x4D15 SWAP1 PUSH2 0xC269 JUMP JUMPDEST DUP1 PUSH1 0x1F ADD PUSH1 0x20 DUP1 SWAP2 DIV MUL PUSH1 0x20 ADD PUSH1 0x40 MLOAD SWAP1 DUP2 ADD PUSH1 0x40 MSTORE DUP1 SWAP3 SWAP2 SWAP1 DUP2 DUP2 MSTORE PUSH1 0x20 ADD DUP3 DUP1 SLOAD PUSH2 0x4D41 SWAP1 PUSH2 0xC269 JUMP JUMPDEST DUP1 ISZERO PUSH2 0x4D8C JUMPI DUP1 PUSH1 0x1F LT PUSH2 0x4D63 JUMPI PUSH2 0x100 DUP1 DUP4 SLOAD DIV MUL DUP4 MSTORE SWAP2 PUSH1 0x20 ADD SWAP2 PUSH2 0x4D8C JUMP JUMPDEST DUP3 ADD SWAP2 SWAP1 PUSH0 MSTORE PUSH1 0x20 PUSH0 KECCAK256 SWAP1 JUMPDEST DUP2 SLOAD DUP2 MSTORE SWAP1 PUSH1 0x1 ADD SWAP1 PUSH1 0x20 ADD DUP1 DUP4 GT PUSH2 0x4D6F JUMPI DUP3 SWAP1 SUB PUSH1 0x1F AND DUP3 ADD SWAP2 JUMPDEST POP POP POP POP POP DUP2 MSTORE PUSH1 0x20 ADD PUSH1 0x3 DUP3 ADD SLOAD DUP2 MSTORE PUSH1 0x20 ADD PUSH1 0x4 DUP3 ADD SLOAD DUP2 MSTORE PUSH1 0x20 ADD PUSH1 0x5 DUP3 ADD SLOAD DUP2 MSTORE PUSH1 0x20 ADD PUSH1 0x6 DUP3 ADD SLOAD DUP2 MSTORE PUSH1 0x20 ADD PUSH1 0x7 DUP3 ADD DUP1 SLOAD DUP1 PUSH1 0x20 MUL PUSH1 0x20 ADD PUSH1 0x40 MLOAD SWAP1 DUP2 ADD PUSH1 0x40 MSTORE DUP1 SWAP3 SWAP2 SWAP1 DUP2 DUP2 MSTORE PUSH1 0x20 ADD DUP3 DUP1 SLOAD DUP1 ISZERO PUSH2 0x4E0A JUMPI PUSH1 0x20 MUL DUP3 ADD SWAP2 SWAP1 PUSH0 MSTORE PUSH1 0x20 PUSH0 KECCAK256 SWAP1 JUMPDEST DUP2 SLOAD DUP2 MSTORE PUSH1 0x20 ADD SWAP1 PUSH1 0x1 ADD SWAP1 DUP1 DUP4 GT PUSH2 0x4DF6 JUMPI JUMPDEST POP POP POP POP POP DUP2 MSTORE PUSH1 0x20 ADD PUSH1 0x8 DUP3 ADD DUP1 SLOAD DUP1 PUSH1 0x20 MUL PUSH1 0x20 ADD PUSH1 0x40 MLOAD SWAP1 DUP2 ADD PUSH1 0x40 MSTORE DUP1 SWAP3 SWAP2 SWAP1 DUP2 DUP2 MSTORE PUSH1 0x20 ADD PUSH0 SWAP1 JUMPDEST DUP3 DUP3 LT ISZERO PUSH2 0x4EDF JUMPI DUP4 DUP3 SWAP1 PUSH0 MSTORE PUSH1 0x20 PUSH0 KECCAK256 ADD DUP1 SLOAD PUSH2 0x4E54 SWAP1 PUSH2 0xC269 JUMP JUMPDEST DUP1 PUSH1 0x1F ADD PUSH1 0x20 DUP1 SWAP2 DIV MUL PUSH1 0x20 ADD PUSH1 0x40 MLOAD SWAP1 DUP2 ADD PUSH1 0x40 MSTORE DUP1 SWAP3 SWAP2 SWAP1 DUP2 DUP2 MSTORE PUSH1 0x20 ADD DUP3 DUP1 SLOAD PUSH2 0x4E80 SWAP1 PUSH2 0xC269 JUMP JUMPDEST DUP1 ISZERO PUSH2 0x4ECB JUMPI DUP1 PUSH1 0x1F LT PUSH2 0x4EA2 JUMPI PUSH2 0x100 DUP1 DUP4 SLOAD DIV MUL DUP4 MSTORE SWAP2 PUSH1 0x20 ADD SWAP2 PUSH2 0x4ECB JUMP JUMPDEST DUP3 ADD SWAP2 SWAP1 PUSH0 MSTORE PUSH1 0x20 PUSH0 KECCAK256 SWAP1 JUMPDEST DUP2 SLOAD DUP2 MSTORE SWAP1 PUSH1 0x1 ADD SWAP1 PUSH1 0x20 ADD DUP1 DUP4 GT PUSH2 0x4EAE JUMPI DUP3 SWAP1 SUB PUSH1 0x1F AND DUP3 ADD SWAP2 JUMPDEST POP POP POP POP POP DUP2 MSTORE PUSH1 0x20 ADD SWAP1 PUSH1 0x1 ADD SWAP1 PUSH2 0x4E37 JUMP JUMPDEST POP POP POP POP DUP2 MSTORE PUSH1 0x20 ADD PUSH1 0x9 DUP3 ADD SLOAD DUP2 MSTORE PUSH1 0x20 ADD PUSH1 0xA DUP3 ADD SLOAD DUP2 MSTORE PUSH1 0x20 ADD PUSH1 0xB DUP3 ADD DUP1 SLOAD DUP1 PUSH1 0x20 MUL PUSH1 0x20 ADD PUSH1 0x40 MLOAD SWAP1 DUP2 ADD PUSH1 0x40 MSTORE DUP1 SWAP3 SWAP2 SWAP1 DUP2 DUP2 MSTORE PUSH1 0x20 ADD PUSH0 SWAP1 JUMPDEST DUP3 DUP3 LT ISZERO PUSH2 0x4FC7 JUMPI DUP4 DUP3 SWAP1 PUSH0 MSTORE PUSH1 0x20 PUSH0 KECCAK256 ADD DUP1 SLOAD PUSH2 0x4F3C SWAP1 PUSH2 0xC269 JUMP JUMPDEST DUP1 PUSH1 0x1F ADD PUSH1 0x20 DUP1 SWAP2 DIV MUL PUSH1 0x20 ADD PUSH1 0x40 MLOAD SWAP1 DUP2 ADD PUSH1 0x40 MSTORE DUP1 SWAP3 SWAP2 SWAP1 DUP2 DUP2 MSTORE PUSH1 0x20 ADD DUP3 DUP1 SLOAD PUSH2 0x4F68 SWAP1 PUSH2 0xC269 JUMP JUMPDEST DUP1 ISZERO PUSH2 0x4FB3 JUMPI DUP1 PUSH1 0x1F LT PUSH2 0x4F8A JUMPI PUSH2 0x100 DUP1 DUP4 SLOAD DIV MUL DUP4 MSTORE SWAP2 PUSH1 0x20 ADD SWAP2 PUSH2 0x4FB3 JUMP JUMPDEST DUP3 ADD SWAP2 SWAP1 PUSH0 MSTORE PUSH1 0x20 PUSH0 KECCAK256 SWAP1 JUMPDEST DUP2 SLOAD DUP2 MSTORE SWAP1 PUSH1 0x1 ADD SWAP1 PUSH1 0x20 ADD DUP1 DUP4 GT PUSH2 0x4F96 JUMPI DUP3 SWAP1 SUB PUSH1 0x1F AND DUP3 ADD SWAP2 JUMPDEST POP POP POP POP POP DUP2 MSTORE PUSH1 0x20 ADD SWAP1 PUSH1 0x1 ADD SWAP1 PUSH2 0x4F1F JUMP JUMPDEST POP POP POP SWAP1 DUP3 MSTORE POP PUSH1 0xC DUP3 ADD SLOAD PUSH1 0x1 PUSH1 0x1 PUSH1 0xA0 SHL SUB AND PUSH1 0x20 DUP3 ADD MSTORE PUSH1 0xD DUP3 ADD DUP1 SLOAD PUSH1 0x40 SWAP1 SWAP3 ADD SWAP2 PUSH2 0x4FF6 SWAP1 PUSH2 0xC269 JUMP JUMPDEST DUP1 PUSH1 0x1F ADD PUSH1 0x20 DUP1 SWAP2 DIV MUL PUSH1 0x20 ADD PUSH1 0x40 MLOAD SWAP1 DUP2 ADD PUSH1 0x40 MSTORE DUP1 SWAP3 SWAP2 SWAP1 DUP2 DUP2 MSTORE PUSH1 0x20 ADD DUP3 DUP1 SLOAD PUSH2 0x5022 SWAP1 PUSH2 0xC269 JUMP JUMPDEST DUP1 ISZERO PUSH2 0x506D JUMPI DUP1 PUSH1 0x1F LT PUSH2 0x5044 JUMPI PUSH2 0x100 DUP1 DUP4 SLOAD DIV MUL DUP4 MSTORE SWAP2 PUSH1 0x20 ADD SWAP2 PUSH2 0x506D JUMP JUMPDEST DUP3 ADD SWAP2 SWAP1 PUSH0 MSTORE PUSH1 0x20 PUSH0 KECCAK256 SWAP1 JUMPDEST DUP2 SLOAD DUP2 MSTORE SWAP1 PUSH1 0x1 ADD SWAP1 PUSH1 0x20 ADD DUP1 DUP4 GT PUSH2 0x5050 JUMPI DUP3 SWAP1 SUB PUSH1 0x1F AND DUP3 ADD SWAP2 JUMPDEST POP POP POP POP POP DUP2 MSTORE PUSH1 0x20 ADD PUSH1 0xE DUP3 ADD DUP1 SLOAD PUSH2 0x5086 SWAP1 PUSH2 0xC269 JUMP JUMPDEST DUP1 PUSH1 0x1F ADD PUSH1 0x20 DUP1 SWAP2 DIV MUL PUSH1 0x20 ADD PUSH1 0x40 MLOAD SWAP1 DUP2 ADD PUSH1 0x40 MSTORE DUP1 SWAP3 SWAP2 SWAP1 DUP2 DUP2 MSTORE PUSH1 0x20 ADD DUP3 DUP1 SLOAD PUSH2 0x50B2 SWAP1 PUSH2 0xC269 JUMP JUMPDEST DUP1 ISZERO PUSH2 0x50FD JUMPI DUP1 PUSH1 0x1F LT PUSH2 0x50D4 JUMPI PUSH2 0x100 DUP1 DUP4 SLOAD DIV MUL DUP4 MSTORE SWAP2 PUSH1 0x20 ADD SWAP2 PUSH2 0x50FD JUMP JUMPDEST DUP3 ADD SWAP2 SWAP1 PUSH0 MSTORE PUSH1 0x20 PUSH0 KECCAK256 SWAP1 JUMPDEST DUP2 SLOAD DUP2 MSTORE SWAP1 PUSH1 0x1 ADD SWAP1 PUSH1 0x20 ADD DUP1 DUP4 GT PUSH2 0x50E0 JUMPI DUP3 SWAP1 SUB PUSH1 0x1F AND DUP3 ADD SWAP2 JUMPDEST POP POP POP SWAP2 DUP4 MSTORE POP POP PUSH1 0xF DUP3 ADD SLOAD PUSH1 0xFF AND ISZERO ISZERO PUSH1 0x20 DUP1 DUP4 ADD SWAP2 SWAP1 SWAP2 MSTORE PUSH1 0x10 DUP4 ADD DUP1 SLOAD PUSH1 0x40 DUP1 MLOAD DUP3 DUP6 MUL DUP2 ADD DUP6 ADD DUP3 MSTORE DUP3 DUP2 MSTORE SWAP5 ADD SWAP4 SWAP3 PUSH0 SWAP1 DUP5 ADD JUMPDEST DUP3 DUP3 LT ISZERO PUSH2 0x51DF JUMPI DUP4 DUP3 SWAP1 PUSH0 MSTORE PUSH1 0x20 PUSH0 KECCAK256 ADD DUP1 SLOAD PUSH2 0x5154 SWAP1 PUSH2 0xC269 JUMP JUMPDEST DUP1 PUSH1 0x1F ADD PUSH1 0x20 DUP1 SWAP2 DIV MUL PUSH1 0x20 ADD PUSH1 0x40 MLOAD SWAP1 DUP2 ADD PUSH1 0x40 MSTORE DUP1 SWAP3 SWAP2 SWAP1 DUP2 DUP2 MSTORE PUSH1 0x20 ADD DUP3 DUP1 SLOAD PUSH2 0x5180 SWAP1 PUSH2 0xC269 JUMP JUMPDEST DUP1 ISZERO PUSH2 0x51CB JUMPI DUP1 PUSH1 0x1F LT PUSH2 0x51A2 JUMPI PUSH2 0x100 DUP1 DUP4 SLOAD DIV MUL DUP4 MSTORE SWAP2 PUSH1 0x20 ADD SWAP2 PUSH2 0x51CB JUMP JUMPDEST DUP3 ADD SWAP2 SWAP1 PUSH0 MSTORE PUSH1 0x20 PUSH0 KECCAK256 SWAP1 JUMPDEST DUP2 SLOAD DUP2 MSTORE SWAP1 PUSH1 0x1 ADD SWAP1 PUSH1 0x20 ADD DUP1 DUP4 GT PUSH2 0x51AE JUMPI DUP3 SWAP1 SUB PUSH1 0x1F AND DUP3 ADD SWAP2 JUMPDEST POP POP POP POP POP DUP2 MSTORE PUSH1 0x20 ADD SWAP1 PUSH1 0x1 ADD SWAP1 PUSH2 0x5137 JUMP JUMPDEST POP POP POP POP DUP2 MSTORE PUSH1 0x20 ADD PUSH1 0x11 DUP3 ADD DUP1 SLOAD PUSH2 0x51F7 SWAP1 PUSH2 0xC269 JUMP JUMPDEST DUP1 PUSH1 0x1F ADD PUSH1 0x20 DUP1 SWAP2 DIV MUL PUSH1 0x20 ADD PUSH1 0x40 MLOAD SWAP1 DUP2 ADD PUSH1 0x40 MSTORE DUP1 SWAP3 SWAP2 SWAP1 DUP2 DUP2 MSTORE PUSH1 0x20 ADD DUP3 DUP1 SLOAD PUSH2 0x5223 SWAP1 PUSH2 0xC269 JUMP JUMPDEST DUP1 ISZERO PUSH2 0x526E JUMPI DUP1 PUSH1 0x1F LT PUSH2 0x5245 JUMPI PUSH2 0x100 DUP1 DUP4 SLOAD DIV MUL DUP4 MSTORE SWAP2 PUSH1 0x20 ADD SWAP2 PUSH2 0x526E JUMP JUMPDEST DUP3 ADD SWAP2 SWAP1 PUSH0 MSTORE PUSH1 0x20 PUSH0 KECCAK256 SWAP1 JUMPDEST DUP2 SLOAD DUP2 MSTORE SWAP1 PUSH1 0x1 ADD SWAP1 PUSH1 0x20 ADD DUP1 DUP4 GT PUSH2 0x5251 JUMPI DUP3 SWAP1 SUB PUSH1 0x1F AND DUP3 ADD SWAP2 JUMPDEST POP POP POP SWAP2 DUP4 MSTORE POP POP PUSH1 0x12 DUP3 ADD SLOAD PUSH1 0x20 DUP1 DUP4 ADD SWAP2 SWAP1 SWAP2 MSTORE PUSH1 0x13 DUP4 ADD SLOAD PUSH1 0x40 DUP1 DUP5 ADD SWAP2 SWAP1 SWAP2 MSTORE PUSH1 0x14 DUP5 ADD SLOAD PUSH1 0x60 DUP5 ADD MSTORE PUSH1 0x15 DUP5 ADD SLOAD PUSH1 0xFF DUP1 DUP3 AND ISZERO ISZERO PUSH1 0x80 DUP7 ADD MSTORE PUSH2 0x100 SWAP1 SWAP2 DIV AND ISZERO ISZERO PUSH1 0xA0 DUP5 ADD MSTORE PUSH1 0x16 SWAP1 SWAP4 ADD SLOAD PUSH1 0xC0 SWAP1 SWAP3 ADD SWAP2 SWAP1 SWAP2 MSTORE SWAP2 DUP4 MSTORE PUSH1 0x18 DUP5 ADD SLOAD DUP4 DUP4 ADD MSTORE PUSH1 0x19 SWAP1 SWAP4 ADD SLOAD SWAP2 DUP4 ADD SWAP2 SWAP1 SWAP2 MSTORE PUSH0 DUP7 DUP2 MSTORE PUSH1 0x8 DUP3 MSTORE DUP3 DUP2 KECCAK256 DUP1 SLOAD DUP5 MLOAD DUP2 DUP6 MUL DUP2 ADD DUP6 ADD SWAP1 SWAP6 MSTORE DUP1 DUP6 MSTORE SWAP5 SWAP6 POP SWAP1 SWAP4 SWAP1 SWAP2 DUP4 ADD DUP3 DUP3 DUP1 ISZERO PUSH2 0x5333 JUMPI PUSH1 0x20 MUL DUP3 ADD SWAP2 SWAP1 PUSH0 MSTORE PUSH1 0x20 PUSH0 KECCAK256 SWAP1 JUMPDEST DUP2 SLOAD DUP2 MSTORE PUSH1 0x20 ADD SWAP1 PUSH1 0x1 ADD SWAP1 DUP1 DUP4 GT PUSH2 0x531F JUMPI JUMPDEST POP POP POP POP POP SWAP1 POP PUSH0 DUP2 MLOAD SWAP1 POP PUSH0 DUP2 PUSH1 0x1 PUSH1 0x1 PUSH1 0x40 SHL SUB DUP2 GT ISZERO PUSH2 0x5358 JUMPI PUSH2 0x5358 PUSH2 0xA98B JUMP JUMPDEST PUSH1 0x40 MLOAD SWAP1 DUP1 DUP3 MSTORE DUP1 PUSH1 0x20 MUL PUSH1 0x20 ADD DUP3 ADD PUSH1 0x40 MSTORE DUP1 ISZERO PUSH2 0x5391 JUMPI DUP2 PUSH1 0x20 ADD JUMPDEST PUSH2 0x537E PUSH2 0xA4B9 JUMP JUMPDEST DUP2 MSTORE PUSH1 0x20 ADD SWAP1 PUSH1 0x1 SWAP1 SUB SWAP1 DUP2 PUSH2 0x5376 JUMPI SWAP1 POP JUMPDEST POP SWAP1 POP PUSH0 DUP3 PUSH1 0x1 PUSH1 0x1 PUSH1 0x40 SHL SUB DUP2 GT ISZERO PUSH2 0x53AD JUMPI PUSH2 0x53AD PUSH2 0xA98B JUMP JUMPDEST PUSH1 0x40 MLOAD SWAP1 DUP1 DUP3 MSTORE DUP1 PUSH1 0x20 MUL PUSH1 0x20 ADD DUP3 ADD PUSH1 0x40 MSTORE DUP1 ISZERO PUSH2 0x53E0 JUMPI DUP2 PUSH1 0x20 ADD JUMPDEST PUSH1 0x60 DUP2 MSTORE PUSH1 0x20 ADD SWAP1 PUSH1 0x1 SWAP1 SUB SWAP1 DUP2 PUSH2 0x53CB JUMPI SWAP1 POP JUMPDEST POP SWAP1 POP PUSH0 JUMPDEST DUP4 DUP2 LT ISZERO PUSH2 0x5641 JUMPI PUSH0 DUP6 DUP3 DUP2 MLOAD DUP2 LT PUSH2 0x5400 JUMPI PUSH2 0x5400 PUSH2 0xC255 JUMP JUMPDEST PUSH1 0x20 SWAP1 DUP2 MUL SWAP2 SWAP1 SWAP2 ADD DUP2 ADD MLOAD PUSH0 DUP12 DUP2 MSTORE PUSH1 0x7 DUP4 MSTORE PUSH1 0x40 DUP1 DUP3 KECCAK256 DUP4 DUP4 MSTORE DUP5 MSTORE SWAP1 DUP2 SWAP1 KECCAK256 DUP2 MLOAD DUP1 DUP4 ADD DUP4 MSTORE DUP2 SLOAD DUP2 MSTORE DUP3 MLOAD PUSH1 0xA0 DUP2 ADD DUP5 MSTORE PUSH1 0x1 DUP4 ADD SLOAD DUP2 MSTORE PUSH1 0x2 DUP4 ADD SLOAD DUP2 DUP8 ADD MSTORE PUSH1 0x3 DUP4 ADD SLOAD SWAP4 DUP2 ADD SWAP4 SWAP1 SWAP4 MSTORE PUSH1 0x4 DUP3 ADD SLOAD PUSH1 0x60 DUP5 ADD MSTORE PUSH1 0x5 SWAP1 SWAP2 ADD SLOAD PUSH1 0x80 DUP4 ADD MSTORE SWAP3 DUP4 ADD MSTORE DUP6 MLOAD SWAP1 SWAP3 POP DUP6 SWAP1 DUP5 SWAP1 DUP2 LT PUSH2 0x5481 JUMPI PUSH2 0x5481 PUSH2 0xC255 JUMP JUMPDEST PUSH1 0x20 SWAP1 DUP2 MUL SWAP2 SWAP1 SWAP2 ADD DUP2 ADD SWAP2 SWAP1 SWAP2 MSTORE PUSH0 DUP11 DUP2 MSTORE PUSH1 0x9 DUP3 MSTORE PUSH1 0x40 DUP1 DUP3 KECCAK256 DUP5 DUP4 MSTORE DUP4 MSTORE DUP1 DUP3 KECCAK256 DUP1 SLOAD DUP3 MLOAD DUP2 DUP7 MUL DUP2 ADD DUP7 ADD SWAP1 SWAP4 MSTORE DUP1 DUP4 MSTORE SWAP2 SWAP4 SWAP1 SWAP3 SWAP1 DUP5 ADD JUMPDEST DUP3 DUP3 LT ISZERO PUSH2 0x5617 JUMPI DUP4 DUP3 SWAP1 PUSH0 MSTORE PUSH1 0x20 PUSH0 KECCAK256 SWAP1 PUSH1 0x3 MUL ADD PUSH1 0x40 MLOAD DUP1 PUSH1 0x60 ADD PUSH1 0x40 MSTORE SWAP1 DUP2 PUSH0 DUP3 ADD SLOAD DUP2 MSTORE PUSH1 0x20 ADD PUSH1 0x1 DUP3 ADD DUP1 SLOAD PUSH2 0x54F8 SWAP1 PUSH2 0xC269 JUMP JUMPDEST DUP1 PUSH1 0x1F ADD PUSH1 0x20 DUP1 SWAP2 DIV MUL PUSH1 0x20 ADD PUSH1 0x40 MLOAD SWAP1 DUP2 ADD PUSH1 0x40 MSTORE DUP1 SWAP3 SWAP2 SWAP1 DUP2 DUP2 MSTORE PUSH1 0x20 ADD DUP3 DUP1 SLOAD PUSH2 0x5524 SWAP1 PUSH2 0xC269 JUMP JUMPDEST DUP1 ISZERO PUSH2 0x556F JUMPI DUP1 PUSH1 0x1F LT PUSH2 0x5546 JUMPI PUSH2 0x100 DUP1 DUP4 SLOAD DIV MUL DUP4 MSTORE SWAP2 PUSH1 0x20 ADD SWAP2 PUSH2 0x556F JUMP JUMPDEST DUP3 ADD SWAP2 SWAP1 PUSH0 MSTORE PUSH1 0x20 PUSH0 KECCAK256 SWAP1 JUMPDEST DUP2 SLOAD DUP2 MSTORE SWAP1 PUSH1 0x1 ADD SWAP1 PUSH1 0x20 ADD DUP1 DUP4 GT PUSH2 0x5552 JUMPI DUP3 SWAP1 SUB PUSH1 0x1F AND DUP3 ADD SWAP2 JUMPDEST POP POP POP POP POP DUP2 MSTORE PUSH1 0x20 ADD PUSH1 0x2 DUP3 ADD DUP1 SLOAD PUSH2 0x5588 SWAP1 PUSH2 0xC269 JUMP JUMPDEST DUP1 PUSH1 0x1F ADD PUSH1 0x20 DUP1 SWAP2 DIV MUL PUSH1 0x20 ADD PUSH1 0x40 MLOAD SWAP1 DUP2 ADD PUSH1 0x40 MSTORE DUP1 SWAP3 SWAP2 SWAP1 DUP2 DUP2 MSTORE PUSH1 0x20 ADD DUP3 DUP1 SLOAD PUSH2 0x55B4 SWAP1 PUSH2 0xC269 JUMP JUMPDEST DUP1 ISZERO PUSH2 0x55FF JUMPI DUP1 PUSH1 0x1F LT PUSH2 0x55D6 JUMPI PUSH2 0x100 DUP1 DUP4 SLOAD DIV MUL DUP4 MSTORE SWAP2 PUSH1 0x20 ADD SWAP2 PUSH2 0x55FF JUMP JUMPDEST DUP3 ADD SWAP2 SWAP1 PUSH0 MSTORE PUSH1 0x20 PUSH0 KECCAK256 SWAP1 JUMPDEST DUP2 SLOAD DUP2 MSTORE SWAP1 PUSH1 0x1 ADD SWAP1 PUSH1 0x20 ADD DUP1 DUP4 GT PUSH2 0x55E2 JUMPI DUP3 SWAP1 SUB PUSH1 0x1F AND DUP3 ADD SWAP2 JUMPDEST POP POP POP POP POP DUP2 MSTORE POP POP DUP2 MSTORE PUSH1 0x20 ADD SWAP1 PUSH1 0x1 ADD SWAP1 PUSH2 0x54BE JUMP JUMPDEST POP POP POP POP DUP4 DUP4 DUP2 MLOAD DUP2 LT PUSH2 0x562D JUMPI PUSH2 0x562D PUSH2 0xC255 JUMP JUMPDEST PUSH1 0x20 SWAP1 DUP2 MUL SWAP2 SWAP1 SWAP2 ADD ADD MSTORE POP PUSH1 0x1 ADD PUSH2 0x53E5 JUMP JUMPDEST POP PUSH1 0x40 DUP1 MLOAD PUSH1 0x60 DUP2 ADD DUP3 MSTORE SWAP6 DUP7 MSTORE PUSH1 0x20 DUP7 ADD SWAP3 SWAP1 SWAP3 MSTORE SWAP1 DUP5 ADD MSTORE POP SWAP1 SWAP4 SWAP3 POP POP POP JUMP JUMPDEST PUSH1 0x4 DUP2 DUP2 SLOAD DUP2 LT PUSH2 0x5673 JUMPI PUSH0 DUP1 REVERT JUMPDEST PUSH0 SWAP2 DUP3 MSTORE PUSH1 0x20 SWAP1 SWAP2 KECCAK256 ADD SLOAD SWAP1 POP DUP2 JUMP JUMPDEST PUSH0 DUP2 DUP2 MSTORE PUSH1 0x10 PUSH1 0x20 MSTORE PUSH1 0x40 DUP2 KECCAK256 DUP1 SLOAD PUSH1 0x60 SWAP3 SWAP1 PUSH1 0x1 PUSH1 0x1 PUSH1 0x40 SHL SUB DUP2 GT ISZERO PUSH2 0x56AD JUMPI PUSH2 0x56AD PUSH2 0xA98B JUMP JUMPDEST PUSH1 0x40 MLOAD SWAP1 DUP1 DUP3 MSTORE DUP1 PUSH1 0x20 MUL PUSH1 0x20 ADD DUP3 ADD PUSH1 0x40 MSTORE DUP1 ISZERO PUSH2 0x570E JUMPI DUP2 PUSH1 0x20 ADD JUMPDEST PUSH2 0x56FB PUSH1 0x40 MLOAD DUP1 PUSH1 0x80 ADD PUSH1 0x40 MSTORE DUP1 PUSH0 DUP2 MSTORE PUSH1 0x20 ADD PUSH0 PUSH1 0x1 PUSH1 0x1 PUSH1 0xA0 SHL SUB AND DUP2 MSTORE PUSH1 0x20 ADD PUSH0 DUP2 MSTORE PUSH1 0x20 ADD PUSH0 DUP2 MSTORE POP SWAP1 JUMP JUMPDEST DUP2 MSTORE PUSH1 0x20 ADD SWAP1 PUSH1 0x1 SWAP1 SUB SWAP1 DUP2 PUSH2 0x56CB JUMPI SWAP1 POP JUMPDEST POP SWAP1 POP PUSH0 JUMPDEST DUP3 SLOAD DUP2 LT ISZERO PUSH2 0x127A JUMPI PUSH1 0xF PUSH0 DUP5 DUP4 DUP2 SLOAD DUP2 LT PUSH2 0x5731 JUMPI PUSH2 0x5731 PUSH2 0xC255 JUMP JUMPDEST PUSH0 SWAP2 DUP3 MSTORE PUSH1 0x20 DUP1 DUP4 KECCAK256 SWAP1 SWAP2 ADD SLOAD DUP4 MSTORE DUP3 DUP2 ADD SWAP4 SWAP1 SWAP4 MSTORE PUSH1 0x40 SWAP2 DUP3 ADD SWAP1 KECCAK256 DUP2 MLOAD PUSH1 0x80 DUP2 ADD DUP4 MSTORE DUP2 SLOAD DUP2 MSTORE PUSH1 0x1 DUP3 ADD SLOAD PUSH1 0x1 PUSH1 0x1 PUSH1 0xA0 SHL SUB AND SWAP4 DUP2 ADD SWAP4 SWAP1 SWAP4 MSTORE PUSH1 0x2 DUP2 ADD SLOAD SWAP2 DUP4 ADD SWAP2 SWAP1 SWAP2 MSTORE PUSH1 0x3 ADD SLOAD PUSH1 0x60 DUP3 ADD MSTORE DUP3 MLOAD DUP4 SWAP1 DUP4 SWAP1 DUP2 LT PUSH2 0x5798 JUMPI PUSH2 0x5798 PUSH2 0xC255 JUMP JUMPDEST PUSH1 0x20 SWAP1 DUP2 MUL SWAP2 SWAP1 SWAP2 ADD ADD MSTORE PUSH1 0x1 ADD PUSH2 0x5713 JUMP JUMPDEST PUSH1 0x60 PUSH1 0x5 DUP1 SLOAD DUP1 PUSH1 0x20 MUL PUSH1 0x20 ADD PUSH1 0x40 MLOAD SWAP1 DUP2 ADD PUSH1 0x40 MSTORE DUP1 SWAP3 SWAP2 SWAP1 DUP2 DUP2 MSTORE PUSH1 0x20 ADD PUSH0 SWAP1 JUMPDEST DUP3 DUP3 LT ISZERO PUSH2 0x1627 JUMPI DUP4 DUP3 SWAP1 PUSH0 MSTORE PUSH1 0x20 PUSH0 KECCAK256 ADD DUP1 SLOAD PUSH2 0x57EB SWAP1 PUSH2 0xC269 JUMP JUMPDEST DUP1 PUSH1 0x1F ADD PUSH1 0x20 DUP1 SWAP2 DIV MUL PUSH1 0x20 ADD PUSH1 0x40 MLOAD SWAP1 DUP2 ADD PUSH1 0x40 MSTORE DUP1 SWAP3 SWAP2 SWAP1 DUP2 DUP2 MSTORE PUSH1 0x20 ADD DUP3 DUP1 SLOAD PUSH2 0x5817 SWAP1 PUSH2 0xC269 JUMP JUMPDEST DUP1 ISZERO PUSH2 0x5862 JUMPI DUP1 PUSH1 0x1F LT PUSH2 0x5839 JUMPI PUSH2 0x100 DUP1 DUP4 SLOAD DIV MUL DUP4 MSTORE SWAP2 PUSH1 0x20 ADD SWAP2 PUSH2 0x5862 JUMP JUMPDEST DUP3 ADD SWAP2 SWAP1 PUSH0 MSTORE PUSH1 0x20 PUSH0 KECCAK256 SWAP1 JUMPDEST DUP2 SLOAD DUP2 MSTORE SWAP1 PUSH1 0x1 ADD SWAP1 PUSH1 0x20 ADD DUP1 DUP4 GT PUSH2 0x5845 JUMPI DUP3 SWAP1 SUB PUSH1 0x1F AND DUP3 ADD SWAP2 JUMPDEST POP POP POP POP POP DUP2 MSTORE PUSH1 0x20 ADD SWAP1 PUSH1 0x1 ADD SWAP1 PUSH2 0x57CE JUMP JUMPDEST PUSH1 0x17 DUP2 DUP2 SLOAD DUP2 LT PUSH2 0x5673 JUMPI PUSH0 DUP1 REVERT JUMPDEST PUSH0 PUSH2 0x588F DUP3 PUSH2 0x6CDD JUMP JUMPDEST CALLER PUSH0 SWAP1 DUP2 MSTORE PUSH1 0x18 PUSH1 0x20 SWAP1 DUP2 MSTORE PUSH1 0x40 DUP1 DUP4 KECCAK256 DUP7 DUP5 MSTORE SWAP1 SWAP2 MSTORE SWAP1 KECCAK256 SLOAD SWAP1 SWAP2 POP PUSH1 0xFF AND PUSH2 0x592A JUMPI PUSH1 0x40 MLOAD PUSH3 0x461BCD PUSH1 0xE5 SHL DUP2 MSTORE PUSH1 0x20 PUSH1 0x4 DUP3 ADD MSTORE PUSH1 0x53 PUSH1 0x24 DUP3 ADD MSTORE PUSH0 DUP1 MLOAD PUSH1 0x20 PUSH2 0xCB4F DUP4 CODECOPY DUP2 MLOAD SWAP2 MSTORE PUSH1 0x44 DUP3 ADD MSTORE PUSH32 0x223A2032312C20226D657373616765223A202275736572206E6F74206661766F PUSH1 0x64 DUP3 ADD MSTORE PUSH19 0x7269746520746869732070726F64756374227D PUSH1 0x68 SHL PUSH1 0x84 DUP3 ADD MSTORE PUSH1 0xA4 ADD PUSH2 0x12AD JUMP JUMPDEST CALLER PUSH0 SWAP1 DUP2 MSTORE PUSH1 0x18 PUSH1 0x20 SWAP1 DUP2 MSTORE PUSH1 0x40 DUP1 DUP4 KECCAK256 DUP6 DUP5 MSTORE SWAP1 SWAP2 MSTORE DUP2 KECCAK256 DUP1 SLOAD PUSH1 0xFF NOT AND SWAP1 SSTORE DUP1 JUMPDEST CALLER PUSH0 SWAP1 DUP2 MSTORE PUSH1 0x19 PUSH1 0x20 MSTORE PUSH1 0x40 SWAP1 KECCAK256 SLOAD PUSH1 0xFF DUP3 AND LT ISZERO PUSH2 0x5A86 JUMPI CALLER PUSH0 SWAP1 DUP2 MSTORE PUSH1 0x19 PUSH1 0x20 MSTORE PUSH1 0x40 SWAP1 KECCAK256 DUP1 SLOAD DUP6 SWAP2 SWAP1 PUSH1 0xFF DUP5 AND SWAP1 DUP2 LT PUSH2 0x598C JUMPI PUSH2 0x598C PUSH2 0xC255 JUMP JUMPDEST SWAP1 PUSH0 MSTORE PUSH1 0x20 PUSH0 KECCAK256 SWAP1 PUSH1 0x2 MUL ADD PUSH0 ADD SLOAD SUB PUSH2 0x5A74 JUMPI CALLER PUSH0 SWAP1 DUP2 MSTORE PUSH1 0x19 PUSH1 0x20 MSTORE PUSH1 0x40 SWAP1 KECCAK256 DUP1 SLOAD PUSH2 0x59BC SWAP1 PUSH1 0x1 SWAP1 PUSH2 0xC30B JUMP JUMPDEST DUP2 SLOAD DUP2 LT PUSH2 0x59CC JUMPI PUSH2 0x59CC PUSH2 0xC255 JUMP JUMPDEST SWAP1 PUSH0 MSTORE PUSH1 0x20 PUSH0 KECCAK256 SWAP1 PUSH1 0x2 MUL ADD PUSH1 0x19 PUSH0 CALLER PUSH1 0x1 PUSH1 0x1 PUSH1 0xA0 SHL SUB AND PUSH1 0x1 PUSH1 0x1 PUSH1 0xA0 SHL SUB AND DUP2 MSTORE PUSH1 0x20 ADD SWAP1 DUP2 MSTORE PUSH1 0x20 ADD PUSH0 KECCAK256 DUP3 PUSH1 0xFF AND DUP2 SLOAD DUP2 LT PUSH2 0x5A0F JUMPI PUSH2 0x5A0F PUSH2 0xC255 JUMP JUMPDEST PUSH0 SWAP2 DUP3 MSTORE PUSH1 0x20 DUP1 DUP4 KECCAK256 DUP5 SLOAD PUSH1 0x2 SWAP1 SWAP4 MUL ADD SWAP2 DUP3 SSTORE PUSH1 0x1 SWAP4 DUP5 ADD SLOAD SWAP4 SWAP1 SWAP2 ADD SWAP3 SWAP1 SWAP3 SSTORE CALLER DUP2 MSTORE PUSH1 0x19 SWAP1 SWAP2 MSTORE PUSH1 0x40 SWAP1 KECCAK256 DUP1 SLOAD DUP1 PUSH2 0x5A4C JUMPI PUSH2 0x5A4C PUSH2 0xC31E JUMP JUMPDEST PUSH0 DUP3 DUP2 MSTORE PUSH1 0x20 DUP2 KECCAK256 PUSH1 0x2 PUSH0 NOT SWAP1 SWAP4 ADD SWAP3 DUP4 MUL ADD DUP2 DUP2 SSTORE PUSH1 0x1 SWAP1 DUP2 ADD SWAP2 SWAP1 SWAP2 SSTORE SWAP2 SSTORE SWAP2 POP PUSH2 0x5A86 JUMP JUMPDEST DUP1 PUSH2 0x5A7E DUP2 PUSH2 0xC7B9 JUMP JUMPDEST SWAP2 POP POP PUSH2 0x594D JUMP JUMPDEST POP PUSH1 0x24 DUP1 SLOAD PUSH1 0x40 MLOAD PUSH4 0xD24043CB PUSH1 0xE0 SHL DUP2 MSTORE CALLER PUSH1 0x4 DUP3 ADD MSTORE SWAP2 DUP3 ADD DUP6 SWAP1 MSTORE PUSH0 PUSH1 0x44 DUP4 ADD MSTORE PUSH1 0x1 PUSH1 0x64 DUP4 ADD MSTORE PUSH1 0x1 PUSH1 0x1 PUSH1 0xA0 SHL SUB AND SWAP1 PUSH4 0xD24043CB SWAP1 PUSH1 0x84 ADD PUSH0 PUSH1 0x40 MLOAD DUP1 DUP4 SUB DUP2 PUSH0 DUP8 DUP1 EXTCODESIZE ISZERO DUP1 ISZERO PUSH2 0x5ADB JUMPI PUSH0 DUP1 REVERT JUMPDEST POP GAS CALL ISZERO DUP1 ISZERO PUSH2 0x5AED JUMPI RETURNDATASIZE PUSH0 DUP1 RETURNDATACOPY RETURNDATASIZE PUSH0 REVERT JUMPDEST POP POP PUSH1 0x24 SLOAD PUSH1 0x1 PUSH1 0x1 PUSH1 0xA0 SHL SUB AND SWAP2 POP PUSH4 0xD24043CB SWAP1 POP CALLER DUP6 PUSH2 0x5B0F DUP2 PUSH2 0x6CDD JUMP JUMPDEST PUSH1 0x20 ADD MLOAD PUSH2 0x180 ADD MLOAD PUSH1 0x40 MLOAD PUSH1 0x1 PUSH1 0x1 PUSH1 0xE0 SHL SUB NOT PUSH1 0xE0 DUP7 SWAP1 SHL AND DUP2 MSTORE PUSH1 0x1 PUSH1 0x1 PUSH1 0xA0 SHL SUB SWAP4 DUP5 AND PUSH1 0x4 DUP3 ADD MSTORE PUSH1 0x24 DUP2 ADD SWAP3 SWAP1 SWAP3 MSTORE SWAP2 SWAP1 SWAP2 AND PUSH1 0x44 DUP3 ADD MSTORE PUSH0 PUSH1 0x64 DUP3 ADD MSTORE PUSH1 0x84 ADD PUSH0 PUSH1 0x40 MLOAD DUP1 DUP4 SUB DUP2 PUSH0 DUP8 DUP1 EXTCODESIZE ISZERO DUP1 ISZERO PUSH2 0x5B6D JUMPI PUSH0 DUP1 REVERT JUMPDEST POP GAS CALL ISZERO DUP1 ISZERO PUSH2 0x5B7F JUMPI RETURNDATASIZE PUSH0 DUP1 RETURNDATACOPY RETURNDATASIZE PUSH0 REVERT JUMPDEST POP POP PUSH1 0x24 DUP1 SLOAD PUSH1 0x20 DUP7 ADD MLOAD PUSH2 0x180 ADD MLOAD PUSH1 0x40 MLOAD PUSH4 0xC0A22771 PUSH1 0xE0 SHL DUP2 MSTORE PUSH1 0x1 PUSH1 0x1 PUSH1 0xA0 SHL SUB SWAP2 DUP3 AND PUSH1 0x4 DUP3 ADD MSTORE SWAP2 AND SWAP4 POP PUSH4 0xC0A22771 SWAP3 POP ADD PUSH0 PUSH1 0x40 MLOAD DUP1 DUP4 SUB DUP2 PUSH0 DUP8 DUP1 EXTCODESIZE ISZERO DUP1 ISZERO PUSH2 0x5BCF JUMPI PUSH0 DUP1 REVERT JUMPDEST POP GAS CALL ISZERO DUP1 ISZERO PUSH2 0x5BE1 JUMPI RETURNDATASIZE PUSH0 DUP1 RETURNDATACOPY RETURNDATASIZE PUSH0 REVERT JUMPDEST POP POP POP POP DUP1 PUSH2 0x346A JUMPI PUSH1 0x40 MLOAD PUSH3 0x461BCD PUSH1 0xE5 SHL DUP2 MSTORE PUSH1 0x20 PUSH1 0x4 DUP3 ADD MSTORE PUSH1 0x47 PUSH1 0x24 DUP3 ADD MSTORE PUSH0 DUP1 MLOAD PUSH1 0x20 PUSH2 0xCB4F DUP4 CODECOPY DUP2 MLOAD SWAP2 MSTORE PUSH1 0x44 DUP3 ADD MSTORE PUSH32 0x223A2032342C20226D657373616765223A20226661766F72697465206E6F7420 PUSH1 0x64 DUP3 ADD MSTORE PUSH7 0x666F756E64227D PUSH1 0xC8 SHL PUSH1 0x84 DUP3 ADD MSTORE PUSH1 0xA4 ADD PUSH2 0x12AD JUMP JUMPDEST PUSH0 DUP1 SLOAD PUSH1 0x1 PUSH1 0x1 PUSH1 0xA0 SHL SUB AND CALLER DUP2 EQ PUSH2 0x5C80 JUMPI PUSH1 0x40 MLOAD PUSH3 0x461BCD PUSH1 0xE5 SHL DUP2 MSTORE PUSH1 0x4 ADD PUSH2 0x12AD SWAP1 PUSH2 0xC29B JUMP JUMPDEST PUSH1 0x24 DUP1 SLOAD PUSH1 0x1 PUSH1 0x1 PUSH1 0xA0 SHL SUB DUP6 AND PUSH1 0x1 PUSH1 0x1 PUSH1 0xA0 SHL SUB NOT SWAP1 SWAP2 AND OR SWAP1 SSTORE PUSH1 0x1 SWAP2 POP POP SWAP2 SWAP1 POP JUMP JUMPDEST PUSH1 0x15 PUSH1 0x20 MSTORE PUSH0 SWAP1 DUP2 MSTORE PUSH1 0x40 SWAP1 KECCAK256 DUP1 SLOAD PUSH1 0x1 DUP3 ADD DUP1 SLOAD SWAP2 SWAP3 SWAP2 PUSH2 0x3D79 SWAP1 PUSH2 0xC269 JUMP JUMPDEST PUSH0 DUP2 PUSH1 0x1 DUP2 LT ISZERO DUP1 ISZERO PUSH2 0x5CDC JUMPI POP PUSH1 0x5 DUP2 GT ISZERO JUMPDEST PUSH2 0x5CF8 JUMPI PUSH1 0x40 MLOAD PUSH3 0x461BCD PUSH1 0xE5 SHL DUP2 MSTORE PUSH1 0x4 ADD PUSH2 0x12AD SWAP1 PUSH2 0xC5BE JUMP JUMPDEST PUSH0 DUP6 DUP2 MSTORE PUSH1 0x3 PUSH1 0x20 MSTORE PUSH1 0x40 SWAP1 KECCAK256 SLOAD PUSH2 0x5D22 JUMPI PUSH1 0x40 MLOAD PUSH3 0x461BCD PUSH1 0xE5 SHL DUP2 MSTORE PUSH1 0x4 ADD PUSH2 0x12AD SWAP1 PUSH2 0xC7D7 JUMP JUMPDEST POP POP PUSH0 SWAP3 DUP4 MSTORE PUSH1 0x14 PUSH1 0x20 SWAP1 DUP2 MSTORE PUSH1 0x40 DUP1 DUP6 KECCAK256 SWAP4 DUP6 MSTORE SWAP3 SWAP1 MSTORE SWAP2 KECCAK256 SSTORE PUSH1 0x1 SWAP1 JUMP JUMPDEST PUSH0 DUP1 SLOAD PUSH1 0x1 PUSH1 0x1 PUSH1 0xA0 SHL SUB AND CALLER DUP2 EQ PUSH2 0x5D6D JUMPI PUSH1 0x40 MLOAD PUSH3 0x461BCD PUSH1 0xE5 SHL DUP2 MSTORE PUSH1 0x4 ADD PUSH2 0x12AD SWAP1 PUSH2 0xC29B JUMP JUMPDEST PUSH0 DUP6 DUP2 MSTORE PUSH1 0x15 PUSH1 0x20 MSTORE PUSH1 0x40 SWAP1 KECCAK256 SLOAD PUSH2 0x5D97 JUMPI PUSH1 0x40 MLOAD PUSH3 0x461BCD PUSH1 0xE5 SHL DUP2 MSTORE PUSH1 0x4 ADD PUSH2 0x12AD SWAP1 PUSH2 0xC82F JUMP JUMPDEST PUSH0 DUP6 DUP2 MSTORE PUSH1 0x15 PUSH1 0x20 MSTORE PUSH1 0x40 SWAP1 KECCAK256 PUSH1 0x2 ADD PUSH2 0x5DB1 DUP5 DUP3 PUSH2 0xC489 JUMP JUMPDEST POP PUSH0 DUP6 DUP2 MSTORE PUSH1 0x15 PUSH1 0x20 MSTORE PUSH1 0x40 SWAP1 KECCAK256 PUSH1 0x1 ADD PUSH2 0x5DCC DUP6 DUP3 PUSH2 0xC489 JUMP JUMPDEST POP PUSH1 0x1 SWAP6 SWAP5 POP POP POP POP POP JUMP JUMPDEST PUSH0 DUP5 DUP2 MSTORE PUSH1 0x3 PUSH1 0x20 MSTORE PUSH1 0x40 DUP2 KECCAK256 SLOAD PUSH2 0x5E02 JUMPI PUSH1 0x40 MLOAD PUSH3 0x461BCD PUSH1 0xE5 SHL DUP2 MSTORE PUSH1 0x4 ADD PUSH2 0x12AD SWAP1 PUSH2 0xC7D7 JUMP JUMPDEST PUSH1 0x20 DUP1 SLOAD SWAP1 PUSH0 PUSH2 0x5E11 DUP4 PUSH2 0xC3F7 JUMP JUMPDEST SWAP2 SWAP1 POP SSTORE POP PUSH0 PUSH1 0x40 MLOAD DUP1 PUSH2 0x100 ADD PUSH1 0x40 MSTORE DUP1 PUSH1 0x20 SLOAD DUP2 MSTORE PUSH1 0x20 ADD CALLER PUSH1 0x1 PUSH1 0x1 PUSH1 0xA0 SHL SUB AND DUP2 MSTORE PUSH1 0x20 ADD DUP5 DUP2 MSTORE PUSH1 0x20 ADD DUP6 DUP2 MSTORE PUSH1 0x20 ADD DUP7 PUSH1 0x1 DUP2 GT ISZERO PUSH2 0x5E58 JUMPI PUSH2 0x5E58 PUSH2 0xC883 JUMP JUMPDEST PUSH1 0xFF AND DUP2 MSTORE TIMESTAMP PUSH1 0x20 DUP1 DUP4 ADD DUP3 SWAP1 MSTORE PUSH1 0x40 DUP1 DUP5 ADD SWAP3 SWAP1 SWAP3 MSTORE PUSH1 0x60 SWAP1 SWAP3 ADD DUP10 SWAP1 MSTORE PUSH0 DUP10 DUP2 MSTORE PUSH1 0x12 DUP4 MSTORE DUP2 DUP2 KECCAK256 DUP4 SLOAD DUP2 SLOAD PUSH1 0x1 DUP1 DUP3 ADD DUP5 SSTORE SWAP3 DUP5 MSTORE DUP6 DUP5 KECCAK256 ADD SSTORE DUP4 SLOAD DUP3 MSTORE PUSH1 0x13 DUP5 MSTORE SWAP1 DUP3 SWAP1 KECCAK256 DUP5 MLOAD DUP2 SSTORE SWAP3 DUP5 ADD MLOAD SWAP1 DUP4 ADD DUP1 SLOAD PUSH1 0x1 PUSH1 0x1 PUSH1 0xA0 SHL SUB NOT AND PUSH1 0x1 PUSH1 0x1 PUSH1 0xA0 SHL SUB SWAP1 SWAP3 AND SWAP2 SWAP1 SWAP2 OR SWAP1 SSTORE DUP3 ADD MLOAD SWAP2 SWAP3 POP DUP3 SWAP2 PUSH1 0x2 DUP3 ADD SWAP1 PUSH2 0x5EE0 SWAP1 DUP3 PUSH2 0xC489 JUMP JUMPDEST POP PUSH1 0x60 DUP3 ADD MLOAD PUSH1 0x3 DUP3 ADD SWAP1 PUSH2 0x5EF5 SWAP1 DUP3 PUSH2 0xC489 JUMP JUMPDEST POP PUSH1 0x80 DUP3 ADD MLOAD PUSH1 0x4 DUP3 ADD DUP1 SLOAD PUSH1 0xFF NOT AND PUSH1 0xFF SWAP1 SWAP3 AND SWAP2 SWAP1 SWAP2 OR SWAP1 SSTORE PUSH1 0xA0 DUP3 ADD MLOAD PUSH1 0x5 DUP3 ADD SSTORE PUSH1 0xC0 DUP3 ADD MLOAD PUSH1 0x6 DUP3 ADD SSTORE PUSH1 0xE0 SWAP1 SWAP2 ADD MLOAD PUSH1 0x7 SWAP1 SWAP2 ADD SSTORE PUSH1 0x40 DUP1 MLOAD PUSH1 0x2 DUP1 DUP3 MSTORE PUSH1 0x60 DUP3 ADD DUP4 MSTORE PUSH0 SWAP3 PUSH1 0x20 DUP4 ADD SWAP1 DUP1 CALLDATASIZE DUP4 CALLDATACOPY POP POP POP PUSH0 DUP9 DUP2 MSTORE PUSH1 0x3 PUSH1 0x20 MSTORE PUSH1 0x40 DUP2 KECCAK256 PUSH1 0xD ADD SLOAD DUP3 MLOAD SWAP3 SWAP4 POP PUSH1 0x1 PUSH1 0x1 PUSH1 0xA0 SHL SUB AND SWAP2 DUP4 SWAP2 SWAP1 PUSH2 0x5F7C JUMPI PUSH2 0x5F7C PUSH2 0xC255 JUMP JUMPDEST PUSH1 0x1 PUSH1 0x1 PUSH1 0xA0 SHL SUB SWAP3 DUP4 AND PUSH1 0x20 SWAP2 DUP3 MUL SWAP3 SWAP1 SWAP3 ADD ADD MSTORE PUSH0 SLOAD DUP3 MLOAD SWAP2 AND SWAP1 DUP3 SWAP1 PUSH1 0x1 SWAP1 DUP2 LT PUSH2 0x5FAC JUMPI PUSH2 0x5FAC PUSH2 0xC255 JUMP JUMPDEST PUSH1 0x1 PUSH1 0x1 PUSH1 0xA0 SHL SUB SWAP3 DUP4 AND PUSH1 0x20 SWAP2 DUP3 MUL SWAP3 SWAP1 SWAP3 ADD DUP2 ADD SWAP2 SWAP1 SWAP2 MSTORE PUSH1 0x22 SLOAD PUSH1 0x40 DUP1 MLOAD DUP1 DUP5 ADD DUP13 SWAP1 MSTORE DUP2 MLOAD DUP1 DUP3 SUB SWAP1 SWAP5 ADD DUP5 MSTORE DUP1 DUP3 ADD SWAP2 DUP3 SWAP1 MSTORE PUSH4 0xBD0F8CBF PUSH1 0xE0 SHL SWAP1 SWAP2 MSTORE SWAP3 AND SWAP2 PUSH4 0xBD0F8CBF SWAP2 PUSH2 0x6008 SWAP2 PUSH0 SWAP1 DUP7 SWAP1 PUSH1 0x44 ADD PUSH2 0xC897 JUMP JUMPDEST PUSH0 PUSH1 0x40 MLOAD DUP1 DUP4 SUB DUP2 PUSH0 DUP8 DUP1 EXTCODESIZE ISZERO DUP1 ISZERO PUSH2 0x601F JUMPI PUSH0 DUP1 REVERT JUMPDEST POP GAS CALL ISZERO DUP1 ISZERO PUSH2 0x6031 JUMPI RETURNDATASIZE PUSH0 DUP1 RETURNDATACOPY RETURNDATASIZE PUSH0 REVERT JUMPDEST POP POP PUSH1 0x24 SLOAD PUSH1 0x40 DUP1 MLOAD PUSH4 0xF857D617 PUSH1 0xE0 SHL DUP2 MSTORE SWAP1 MLOAD PUSH1 0x1 PUSH1 0x1 PUSH1 0xA0 SHL SUB SWAP1 SWAP3 AND SWAP5 POP PUSH4 0xF857D617 SWAP4 POP PUSH1 0x4 DUP1 DUP3 ADD SWAP4 POP PUSH0 SWAP3 SWAP2 DUP3 SWAP1 SUB ADD DUP2 DUP4 DUP8 DUP1 EXTCODESIZE ISZERO DUP1 ISZERO PUSH2 0x6078 JUMPI PUSH0 DUP1 REVERT JUMPDEST POP GAS CALL ISZERO DUP1 ISZERO PUSH2 0x608A JUMPI RETURNDATASIZE PUSH0 DUP1 RETURNDATACOPY RETURNDATASIZE PUSH0 REVERT JUMPDEST POP POP PUSH1 0x20 SLOAD SWAP9 SWAP8 POP POP POP POP POP POP POP POP JUMP JUMPDEST PUSH1 0xC PUSH1 0x20 MSTORE PUSH0 SWAP1 DUP2 MSTORE PUSH1 0x40 SWAP1 KECCAK256 DUP1 SLOAD PUSH1 0x1 DUP3 ADD DUP1 SLOAD SWAP2 SWAP3 SWAP2 PUSH2 0x3D79 SWAP1 PUSH2 0xC269 JUMP JUMPDEST CALLER PUSH0 SWAP1 DUP2 MSTORE PUSH1 0x1 PUSH1 0x20 MSTORE PUSH1 0x40 DUP2 KECCAK256 SLOAD PUSH1 0xFF AND DUP1 PUSH2 0x613E JUMPI POP PUSH1 0x22 SLOAD PUSH1 0x40 MLOAD PUSH4 0x59D32027 PUSH1 0xE1 SHL DUP2 MSTORE CALLER PUSH1 0x4 DUP3 ADD MSTORE PUSH1 0x1 PUSH1 0x1 PUSH1 0xA0 SHL SUB SWAP1 SWAP2 AND SWAP1 PUSH4 0xB3A6404E SWAP1 PUSH1 0x24 ADD PUSH1 0x20 PUSH1 0x40 MLOAD DUP1 DUP4 SUB DUP2 DUP7 GAS STATICCALL ISZERO DUP1 ISZERO PUSH2 0x611A JUMPI RETURNDATASIZE PUSH0 DUP1 RETURNDATACOPY RETURNDATASIZE PUSH0 REVERT JUMPDEST POP POP POP POP PUSH1 0x40 MLOAD RETURNDATASIZE PUSH1 0x1F NOT PUSH1 0x1F DUP3 ADD AND DUP3 ADD DUP1 PUSH1 0x40 MSTORE POP DUP2 ADD SWAP1 PUSH2 0x613E SWAP2 SWAP1 PUSH2 0xC3DC JUMP JUMPDEST PUSH2 0x616B PUSH1 0x37 PUSH1 0x40 MLOAD DUP1 PUSH1 0x40 ADD PUSH1 0x40 MSTORE DUP1 PUSH1 0x1B DUP2 MSTORE PUSH1 0x20 ADD PUSH0 DUP1 MLOAD PUSH1 0x20 PUSH2 0xCB0E DUP4 CODECOPY DUP2 MLOAD SWAP2 MSTORE DUP2 MSTORE POP PUSH2 0x1A5A JUMP JUMPDEST SWAP1 PUSH2 0x6189 JUMPI PUSH1 0x40 MLOAD PUSH3 0x461BCD PUSH1 0xE5 SHL DUP2 MSTORE PUSH1 0x4 ADD PUSH2 0x12AD SWAP2 SWAP1 PUSH2 0xB15A JUMP JUMPDEST POP PUSH1 0x3 PUSH0 DUP6 DUP2 MSTORE PUSH1 0x20 ADD SWAP1 DUP2 MSTORE PUSH1 0x20 ADD PUSH0 KECCAK256 PUSH0 ADD SLOAD PUSH0 EQ ISZERO PUSH2 0x61D5 PUSH1 0x2 PUSH1 0x40 MLOAD DUP1 PUSH1 0x40 ADD PUSH1 0x40 MSTORE DUP1 PUSH1 0x11 DUP2 MSTORE PUSH1 0x20 ADD PUSH17 0x141C9BD91D58DD081B9BDD08199BDD5B99 PUSH1 0x7A SHL DUP2 MSTORE POP PUSH2 0x1A5A JUMP JUMPDEST SWAP1 PUSH2 0x61F3 JUMPI PUSH1 0x40 MLOAD PUSH3 0x461BCD PUSH1 0xE5 SHL DUP2 MSTORE PUSH1 0x4 ADD PUSH2 0x12AD SWAP2 SWAP1 PUSH2 0xB15A JUMP JUMPDEST POP PUSH2 0x180 DUP4 ADD MLOAD PUSH1 0x1 PUSH1 0x1 PUSH1 0xA0 SHL SUB AND PUSH0 SWAP1 DUP2 MSTORE PUSH1 0x2 PUSH1 0x20 SWAP1 DUP2 MSTORE PUSH1 0x40 DUP1 DUP4 KECCAK256 DUP8 DUP5 MSTORE DUP3 MSTORE SWAP2 DUP3 SWAP1 KECCAK256 SLOAD DUP3 MLOAD PUSH1 0x60 DUP2 ADD SWAP1 SWAP4 MSTORE PUSH1 0x31 DUP1 DUP5 MSTORE PUSH1 0xFF SWAP1 SWAP2 AND SWAP3 PUSH2 0x6245 SWAP3 PUSH1 0x2C SWAP3 SWAP1 PUSH2 0xCA8C SWAP1 DUP4 ADD CODECOPY PUSH2 0x1A5A JUMP JUMPDEST SWAP1 PUSH2 0x6263 JUMPI PUSH1 0x40 MLOAD PUSH3 0x461BCD PUSH1 0xE5 SHL DUP2 MSTORE PUSH1 0x4 ADD PUSH2 0x12AD SWAP2 SWAP1 PUSH2 0xB15A JUMP JUMPDEST POP PUSH1 0xC PUSH0 DUP5 PUSH1 0x20 ADD MLOAD DUP2 MSTORE PUSH1 0x20 ADD SWAP1 DUP2 MSTORE PUSH1 0x20 ADD PUSH0 KECCAK256 PUSH0 ADD SLOAD PUSH0 EQ ISZERO PUSH2 0x62B4 PUSH1 0x2 PUSH1 0x40 MLOAD DUP1 PUSH1 0x40 ADD PUSH1 0x40 MSTORE DUP1 PUSH1 0x12 DUP2 MSTORE PUSH1 0x20 ADD PUSH18 0x10D85D1959DBDC9E481B9BDD08199BDD5B99 PUSH1 0x72 SHL DUP2 MSTORE POP PUSH2 0x1A5A JUMP JUMPDEST SWAP1 PUSH2 0x62D2 JUMPI PUSH1 0x40 MLOAD PUSH3 0x461BCD PUSH1 0xE5 SHL DUP2 MSTORE PUSH1 0x4 ADD PUSH2 0x12AD SWAP2 SWAP1 PUSH2 0xB15A JUMP JUMPDEST POP PUSH0 DUP3 MLOAD GT PUSH2 0x6311 PUSH1 0x2C PUSH1 0x40 MLOAD DUP1 PUSH1 0x40 ADD PUSH1 0x40 MSTORE DUP1 PUSH1 0x17 DUP2 MSTORE PUSH1 0x20 ADD PUSH23 0x92DCECC2D8D2C840ECC2E4D2C2DCE8E640D8CADCCEE8D PUSH1 0x4B SHL DUP2 MSTORE POP PUSH2 0x1A5A JUMP JUMPDEST SWAP1 PUSH2 0x632F JUMPI PUSH1 0x40 MLOAD PUSH3 0x461BCD PUSH1 0xE5 SHL DUP2 MSTORE PUSH1 0x4 ADD PUSH2 0x12AD SWAP2 SWAP1 PUSH2 0xB15A JUMP JUMPDEST POP PUSH0 DUP5 DUP2 MSTORE PUSH1 0x8 PUSH1 0x20 MSTORE PUSH1 0x40 DUP2 KECCAK256 SWAP1 JUMPDEST DUP2 SLOAD DUP2 LT ISZERO PUSH2 0x63F8 JUMPI PUSH1 0x7 PUSH0 DUP8 DUP2 MSTORE PUSH1 0x20 ADD SWAP1 DUP2 MSTORE PUSH1 0x20 ADD PUSH0 KECCAK256 PUSH0 DUP4 DUP4 DUP2 SLOAD DUP2 LT PUSH2 0x636C JUMPI PUSH2 0x636C PUSH2 0xC255 JUMP JUMPDEST PUSH0 SWAP2 DUP3 MSTORE PUSH1 0x20 DUP1 DUP4 KECCAK256 SWAP1 SWAP2 ADD SLOAD DUP4 MSTORE DUP3 DUP2 ADD SWAP4 SWAP1 SWAP4 MSTORE PUSH1 0x40 SWAP2 DUP3 ADD DUP2 KECCAK256 DUP2 DUP2 SSTORE PUSH1 0x1 DUP2 ADD DUP3 SWAP1 SSTORE PUSH1 0x2 DUP2 ADD DUP3 SWAP1 SSTORE PUSH1 0x3 DUP2 ADD DUP3 SWAP1 SSTORE PUSH1 0x4 DUP2 ADD DUP3 SWAP1 SSTORE PUSH1 0x5 ADD DUP2 SWAP1 SSTORE DUP9 DUP2 MSTORE PUSH1 0x9 SWAP1 SWAP3 MSTORE DUP2 KECCAK256 DUP4 SLOAD SWAP1 SWAP2 SWAP1 DUP5 SWAP1 DUP5 SWAP1 DUP2 LT PUSH2 0x63CF JUMPI PUSH2 0x63CF PUSH2 0xC255 JUMP JUMPDEST SWAP1 PUSH0 MSTORE PUSH1 0x20 PUSH0 KECCAK256 ADD SLOAD DUP2 MSTORE PUSH1 0x20 ADD SWAP1 DUP2 MSTORE PUSH1 0x20 ADD PUSH0 KECCAK256 PUSH0 PUSH2 0x63F0 SWAP2 SWAP1 PUSH2 0xA71B JUMP JUMPDEST PUSH1 0x1 ADD PUSH2 0x633F JUMP JUMPDEST POP PUSH0 DUP6 DUP2 MSTORE PUSH1 0x8 PUSH1 0x20 MSTORE PUSH1 0x40 DUP2 KECCAK256 PUSH2 0x640F SWAP2 PUSH2 0xA739 JUMP JUMPDEST PUSH0 JUMPDEST DUP4 MLOAD DUP2 LT ISZERO PUSH2 0x67CB JUMPI PUSH2 0x339 PUSH1 0x82 DUP6 DUP4 DUP2 MLOAD DUP2 LT PUSH2 0x6431 JUMPI PUSH2 0x6431 PUSH2 0xC255 JUMP JUMPDEST PUSH1 0x20 MUL PUSH1 0x20 ADD ADD MLOAD PUSH1 0x40 ADD MLOAD PUSH1 0x40 ADD MLOAD PUSH2 0xC350 PUSH2 0x644E SWAP2 SWAP1 PUSH2 0xC40F JUMP JUMPDEST PUSH2 0x6458 SWAP2 SWAP1 PUSH2 0xC426 JUMP JUMPDEST PUSH2 0x6462 SWAP2 SWAP1 PUSH2 0xC426 JUMP JUMPDEST DUP5 DUP3 DUP2 MLOAD DUP2 LT PUSH2 0x6474 JUMPI PUSH2 0x6474 PUSH2 0xC255 JUMP JUMPDEST PUSH1 0x20 MUL PUSH1 0x20 ADD ADD MLOAD PUSH1 0x40 ADD MLOAD PUSH1 0x60 ADD MLOAD GT ISZERO PUSH2 0x64C6 PUSH1 0x2A PUSH1 0x40 MLOAD DUP1 PUSH1 0x40 ADD PUSH1 0x40 MSTORE DUP1 PUSH1 0x1F DUP2 MSTORE PUSH1 0x20 ADD PUSH32 0x496E76616C69642072657761726420616E64206D656D62657220707269636500 DUP2 MSTORE POP PUSH2 0x1A5A JUMP JUMPDEST SWAP1 PUSH2 0x64E4 JUMPI PUSH1 0x40 MLOAD PUSH3 0x461BCD PUSH1 0xE5 SHL DUP2 MSTORE PUSH1 0x4 ADD PUSH2 0x12AD SWAP2 SWAP1 PUSH2 0xB15A JUMP JUMPDEST POP DUP4 DUP2 DUP2 MLOAD DUP2 LT PUSH2 0x64F7 JUMPI PUSH2 0x64F7 PUSH2 0xC255 JUMP JUMPDEST PUSH1 0x20 MUL PUSH1 0x20 ADD ADD MLOAD PUSH1 0x40 ADD MLOAD PUSH1 0x40 ADD MLOAD DUP5 DUP3 DUP2 MLOAD DUP2 LT PUSH2 0x6519 JUMPI PUSH2 0x6519 PUSH2 0xC255 JUMP JUMPDEST PUSH1 0x20 MUL PUSH1 0x20 ADD ADD MLOAD PUSH1 0x40 ADD MLOAD PUSH1 0x20 ADD MLOAD GT PUSH2 0x656A PUSH1 0x25 PUSH1 0x40 MLOAD DUP1 PUSH1 0x40 ADD PUSH1 0x40 MSTORE DUP1 PUSH1 0x20 DUP2 MSTORE PUSH1 0x20 ADD PUSH32 0x496E76616C696420766970507269636520616E64206D656D6265725072696365 DUP2 MSTORE POP PUSH2 0x1A5A JUMP JUMPDEST SWAP1 PUSH2 0x6588 JUMPI PUSH1 0x40 MLOAD PUSH3 0x461BCD PUSH1 0xE5 SHL DUP2 MSTORE PUSH1 0x4 ADD PUSH2 0x12AD SWAP2 SWAP1 PUSH2 0xB15A JUMP JUMPDEST POP PUSH2 0x6591 PUSH2 0xA4B9 JUMP JUMPDEST PUSH0 PUSH2 0x65A7 DUP7 DUP5 DUP2 MLOAD DUP2 LT PUSH2 0x269D JUMPI PUSH2 0x269D PUSH2 0xC255 JUMP JUMPDEST DUP1 DUP4 MSTORE DUP7 MLOAD SWAP1 SWAP2 POP DUP7 SWAP1 DUP5 SWAP1 DUP2 LT PUSH2 0x65C1 JUMPI PUSH2 0x65C1 PUSH2 0xC255 JUMP JUMPDEST PUSH1 0x20 SWAP1 DUP2 MUL SWAP2 SWAP1 SWAP2 ADD DUP2 ADD MLOAD PUSH1 0x40 SWAP1 DUP2 ADD MLOAD DUP5 DUP4 ADD SWAP1 DUP2 MSTORE PUSH0 DUP12 DUP2 MSTORE PUSH1 0x8 DUP5 MSTORE DUP3 DUP2 KECCAK256 DUP1 SLOAD PUSH1 0x1 DUP2 DUP2 ADD DUP4 SSTORE SWAP2 DUP4 MSTORE DUP6 DUP4 KECCAK256 ADD DUP7 SWAP1 SSTORE DUP13 DUP3 MSTORE PUSH1 0x7 DUP6 MSTORE DUP4 DUP3 KECCAK256 DUP7 DUP4 MSTORE DUP6 MSTORE DUP4 DUP3 KECCAK256 DUP8 MLOAD DUP2 SSTORE SWAP3 MLOAD DUP1 MLOAD SWAP2 DUP5 ADD SWAP2 SWAP1 SWAP2 SSTORE SWAP4 DUP5 ADD MLOAD PUSH1 0x2 DUP4 ADD SSTORE SWAP2 DUP4 ADD MLOAD PUSH1 0x3 DUP3 ADD SSTORE PUSH1 0x60 DUP4 ADD MLOAD PUSH1 0x4 DUP3 ADD SSTORE PUSH1 0x80 SWAP1 SWAP3 ADD MLOAD PUSH1 0x5 SWAP1 SWAP3 ADD SWAP2 SWAP1 SWAP2 SSTORE JUMPDEST DUP7 DUP5 DUP2 MLOAD DUP2 LT PUSH2 0x6656 JUMPI PUSH2 0x6656 PUSH2 0xC255 JUMP JUMPDEST PUSH1 0x20 MUL PUSH1 0x20 ADD ADD MLOAD PUSH1 0x20 ADD MLOAD MLOAD DUP2 LT ISZERO PUSH2 0x673E JUMPI PUSH0 DUP10 DUP2 MSTORE PUSH1 0x9 PUSH1 0x20 SWAP1 DUP2 MSTORE PUSH1 0x40 DUP1 DUP4 KECCAK256 DUP6 DUP5 MSTORE SWAP1 SWAP2 MSTORE DUP2 KECCAK256 DUP1 SLOAD PUSH1 0x1 ADD DUP2 SSTORE SWAP1 MSTORE DUP7 MLOAD DUP8 SWAP1 DUP6 SWAP1 DUP2 LT PUSH2 0x669F JUMPI PUSH2 0x669F PUSH2 0xC255 JUMP JUMPDEST PUSH1 0x20 MUL PUSH1 0x20 ADD ADD MLOAD PUSH1 0x20 ADD MLOAD DUP2 DUP2 MLOAD DUP2 LT PUSH2 0x66BC JUMPI PUSH2 0x66BC PUSH2 0xC255 JUMP JUMPDEST PUSH1 0x20 MUL PUSH1 0x20 ADD ADD MLOAD PUSH1 0x9 PUSH0 DUP12 DUP2 MSTORE PUSH1 0x20 ADD SWAP1 DUP2 MSTORE PUSH1 0x20 ADD PUSH0 KECCAK256 PUSH0 DUP5 DUP2 MSTORE PUSH1 0x20 ADD SWAP1 DUP2 MSTORE PUSH1 0x20 ADD PUSH0 KECCAK256 DUP3 DUP2 SLOAD DUP2 LT PUSH2 0x66F5 JUMPI PUSH2 0x66F5 PUSH2 0xC255 JUMP JUMPDEST SWAP1 PUSH0 MSTORE PUSH1 0x20 PUSH0 KECCAK256 SWAP1 PUSH1 0x3 MUL ADD PUSH0 DUP3 ADD MLOAD DUP2 PUSH0 ADD SSTORE PUSH1 0x20 DUP3 ADD MLOAD DUP2 PUSH1 0x1 ADD SWAP1 DUP2 PUSH2 0x671E SWAP2 SWAP1 PUSH2 0xC489 JUMP JUMPDEST POP PUSH1 0x40 DUP3 ADD MLOAD PUSH1 0x2 DUP3 ADD SWAP1 PUSH2 0x6733 SWAP1 DUP3 PUSH2 0xC489 JUMP JUMPDEST POP POP POP PUSH1 0x1 ADD PUSH2 0x6644 JUMP JUMPDEST POP PUSH0 JUMPDEST DUP4 DUP2 LT ISZERO PUSH2 0x67C0 JUMPI PUSH0 DUP10 DUP2 MSTORE PUSH1 0x8 PUSH1 0x20 MSTORE PUSH1 0x40 SWAP1 KECCAK256 DUP1 SLOAD DUP4 SWAP2 SWAP1 DUP4 SWAP1 DUP2 LT PUSH2 0x676B JUMPI PUSH2 0x676B PUSH2 0xC255 JUMP JUMPDEST SWAP1 PUSH0 MSTORE PUSH1 0x20 PUSH0 KECCAK256 ADD SLOAD EQ ISZERO PUSH2 0x6799 PUSH1 0x3C PUSH1 0x40 MLOAD DUP1 PUSH1 0x60 ADD PUSH1 0x40 MSTORE DUP1 PUSH1 0x25 DUP2 MSTORE PUSH1 0x20 ADD PUSH2 0xCABD PUSH1 0x25 SWAP2 CODECOPY PUSH2 0x1A5A JUMP JUMPDEST SWAP1 PUSH2 0x67B7 JUMPI PUSH1 0x40 MLOAD PUSH3 0x461BCD PUSH1 0xE5 SHL DUP2 MSTORE PUSH1 0x4 ADD PUSH2 0x12AD SWAP2 SWAP1 PUSH2 0xB15A JUMP JUMPDEST POP PUSH1 0x1 ADD PUSH2 0x6741 JUMP JUMPDEST POP POP POP PUSH1 0x1 ADD PUSH2 0x6411 JUMP JUMPDEST POP PUSH0 DUP6 DUP2 MSTORE PUSH1 0x3 PUSH1 0x20 MSTORE PUSH1 0x40 SWAP1 KECCAK256 DUP5 MLOAD DUP6 SWAP2 PUSH1 0x1 ADD SWAP1 DUP2 SWAP1 PUSH2 0x67ED SWAP1 DUP3 PUSH2 0xC489 JUMP JUMPDEST POP PUSH1 0x20 DUP3 ADD MLOAD PUSH1 0x1 DUP3 ADD SSTORE PUSH1 0x40 DUP3 ADD MLOAD PUSH1 0x2 DUP3 ADD SWAP1 PUSH2 0x680C SWAP1 DUP3 PUSH2 0xC489 JUMP JUMPDEST POP PUSH1 0x60 DUP3 ADD MLOAD PUSH1 0x3 DUP3 ADD SSTORE PUSH1 0x80 DUP3 ADD MLOAD PUSH1 0x4 DUP3 ADD SSTORE PUSH1 0xA0 DUP3 ADD MLOAD PUSH1 0x5 DUP3 ADD SSTORE PUSH1 0xC0 DUP3 ADD MLOAD PUSH1 0x6 DUP3 ADD SSTORE PUSH1 0xE0 DUP3 ADD MLOAD DUP1 MLOAD PUSH2 0x6850 SWAP2 PUSH1 0x7 DUP5 ADD SWAP2 PUSH1 0x20 SWAP1 SWAP2 ADD SWAP1 PUSH2 0xA5AB JUMP JUMPDEST POP PUSH2 0x100 DUP3 ADD MLOAD DUP1 MLOAD PUSH2 0x686D SWAP2 PUSH1 0x8 DUP5 ADD SWAP2 PUSH1 0x20 SWAP1 SWAP2 ADD SWAP1 PUSH2 0xA5F0 JUMP JUMPDEST POP PUSH2 0x120 DUP3 ADD MLOAD PUSH1 0x9 DUP3 ADD SSTORE PUSH2 0x140 DUP3 ADD MLOAD PUSH1 0xA DUP3 ADD SSTORE PUSH2 0x160 DUP3 ADD MLOAD DUP1 MLOAD PUSH2 0x68A0 SWAP2 PUSH1 0xB DUP5 ADD SWAP2 PUSH1 0x20 SWAP1 SWAP2 ADD SWAP1 PUSH2 0xA5F0 JUMP JUMPDEST POP PUSH2 0x180 DUP3 ADD MLOAD PUSH1 0xC DUP3 ADD DUP1 SLOAD PUSH1 0x1 PUSH1 0x1 PUSH1 0xA0 SHL SUB NOT AND PUSH1 0x1 PUSH1 0x1 PUSH1 0xA0 SHL SUB SWAP1 SWAP3 AND SWAP2 SWAP1 SWAP2 OR SWAP1 SSTORE PUSH2 0x1A0 DUP3 ADD MLOAD PUSH1 0xD DUP3 ADD SWAP1 PUSH2 0x68DD SWAP1 DUP3 PUSH2 0xC489 JUMP JUMPDEST POP PUSH2 0x1C0 DUP3 ADD MLOAD PUSH1 0xE DUP3 ADD SWAP1 PUSH2 0x68F3 SWAP1 DUP3 PUSH2 0xC489 JUMP JUMPDEST POP PUSH2 0x1E0 DUP3 ADD MLOAD PUSH1 0xF DUP3 ADD DUP1 SLOAD PUSH1 0xFF NOT AND SWAP2 ISZERO ISZERO SWAP2 SWAP1 SWAP2 OR SWAP1 SSTORE PUSH2 0x200 DUP3 ADD MLOAD DUP1 MLOAD PUSH2 0x6929 SWAP2 PUSH1 0x10 DUP5 ADD SWAP2 PUSH1 0x20 SWAP1 SWAP2 ADD SWAP1 PUSH2 0xA5F0 JUMP JUMPDEST POP PUSH2 0x220 DUP3 ADD MLOAD PUSH1 0x11 DUP3 ADD SWAP1 PUSH2 0x693F SWAP1 DUP3 PUSH2 0xC489 JUMP JUMPDEST POP PUSH2 0x240 DUP3 ADD MLOAD PUSH1 0x12 DUP3 ADD SSTORE PUSH2 0x260 DUP3 ADD MLOAD PUSH1 0x13 DUP3 ADD SSTORE PUSH2 0x280 DUP3 ADD MLOAD PUSH1 0x14 DUP3 ADD SSTORE PUSH2 0x2A0 DUP3 ADD MLOAD PUSH1 0x15 DUP3 ADD DUP1 SLOAD PUSH2 0x2C0 DUP6 ADD MLOAD ISZERO ISZERO PUSH2 0x100 MUL PUSH2 0xFF00 NOT SWAP4 ISZERO ISZERO SWAP4 SWAP1 SWAP4 AND PUSH2 0xFFFF NOT SWAP1 SWAP2 AND OR SWAP2 SWAP1 SWAP2 OR SWAP1 SSTORE PUSH2 0x2E0 SWAP1 SWAP2 ADD MLOAD PUSH1 0x16 SWAP1 SWAP2 ADD SSTORE PUSH0 DUP6 DUP2 MSTORE PUSH1 0x3 PUSH1 0x20 MSTORE PUSH1 0x40 SWAP1 DUP2 SWAP1 KECCAK256 TIMESTAMP PUSH1 0x19 SWAP1 SWAP2 ADD SSTORE MLOAD PUSH32 0x759E0111D0D20A9C64AD00266049785B63BDCEE61D9B7A91A41A44C05584B062 SWAP1 PUSH2 0x69E5 SWAP1 DUP8 SWAP1 DUP8 SWAP1 PUSH2 0xC54E JUMP JUMPDEST PUSH1 0x40 MLOAD DUP1 SWAP2 SUB SWAP1 LOG1 PUSH1 0x1 SWAP2 POP POP JUMPDEST SWAP4 SWAP3 POP POP POP JUMP JUMPDEST PUSH0 DUP3 DUP2 MSTORE PUSH1 0x13 PUSH1 0x20 MSTORE PUSH1 0x40 SWAP1 KECCAK256 SLOAD PUSH2 0x6A24 JUMPI PUSH1 0x40 MLOAD PUSH3 0x461BCD PUSH1 0xE5 SHL DUP2 MSTORE PUSH1 0x4 ADD PUSH2 0x12AD SWAP1 PUSH2 0xC566 JUMP JUMPDEST PUSH0 DUP3 DUP2 MSTORE PUSH1 0x13 PUSH1 0x20 MSTORE PUSH1 0x40 SWAP1 KECCAK256 PUSH1 0x3 ADD PUSH2 0x6A3E DUP3 DUP3 PUSH2 0xC489 JUMP JUMPDEST POP POP PUSH0 SWAP1 DUP2 MSTORE PUSH1 0x13 PUSH1 0x20 MSTORE PUSH1 0x40 SWAP1 KECCAK256 TIMESTAMP PUSH1 0x6 SWAP1 SWAP2 ADD SSTORE JUMP JUMPDEST PUSH0 DUP1 SLOAD PUSH1 0x1 PUSH1 0x1 PUSH1 0xA0 SHL SUB AND CALLER DUP2 EQ PUSH2 0x6A81 JUMPI PUSH1 0x40 MLOAD PUSH3 0x461BCD PUSH1 0xE5 SHL DUP2 MSTORE PUSH1 0x4 ADD PUSH2 0x12AD SWAP1 PUSH2 0xC29B JUMP JUMPDEST PUSH1 0x21 DUP1 SLOAD SWAP1 PUSH0 PUSH2 0x6A90 DUP4 PUSH2 0xC3F7 JUMP JUMPDEST SWAP1 SWAP2 SSTORE POP POP PUSH1 0x40 DUP1 MLOAD PUSH1 0x60 DUP2 ADD DUP3 MSTORE PUSH1 0x21 SLOAD DUP1 DUP3 MSTORE PUSH1 0x20 DUP1 DUP4 ADD DUP9 DUP2 MSTORE DUP4 DUP6 ADD DUP9 SWAP1 MSTORE PUSH0 SWAP3 DUP4 MSTORE PUSH1 0x15 SWAP1 SWAP2 MSTORE SWAP3 SWAP1 KECCAK256 DUP2 MLOAD DUP2 SSTORE SWAP2 MLOAD SWAP1 SWAP2 DUP3 SWAP2 PUSH1 0x1 DUP3 ADD SWAP1 PUSH2 0x6AD8 SWAP1 DUP3 PUSH2 0xC489 JUMP JUMPDEST POP PUSH1 0x40 DUP3 ADD MLOAD PUSH1 0x2 DUP3 ADD SWAP1 PUSH2 0x6AED SWAP1 DUP3 PUSH2 0xC489 JUMP JUMPDEST POP POP PUSH1 0x21 SLOAD PUSH1 0x17 DUP1 SLOAD PUSH1 0x1 DUP2 ADD DUP3 SSTORE PUSH0 SWAP2 DUP3 MSTORE PUSH32 0xC624B66CC0138B8FABC209247F72D758E1CF3343756D543BADBF24212BED8C15 ADD SWAP2 SWAP1 SWAP2 SSTORE PUSH1 0x24 SLOAD PUSH1 0x40 DUP1 MLOAD PUSH4 0xF857D617 PUSH1 0xE0 SHL DUP2 MSTORE SWAP1 MLOAD PUSH1 0x1 PUSH1 0x1 PUSH1 0xA0 SHL SUB SWAP1 SWAP3 AND SWAP4 POP PUSH4 0xF857D617 SWAP3 PUSH1 0x4 DUP1 DUP4 ADD SWAP4 SWAP2 SWAP3 DUP3 SWAP1 SUB ADD DUP2 DUP4 DUP8 DUP1 EXTCODESIZE ISZERO DUP1 ISZERO PUSH2 0x6B68 JUMPI PUSH0 DUP1 REVERT JUMPDEST POP GAS CALL ISZERO DUP1 ISZERO PUSH2 0x6B7A JUMPI RETURNDATASIZE PUSH0 DUP1 RETURNDATACOPY RETURNDATASIZE PUSH0 REVERT JUMPDEST POP PUSH1 0x1 SWAP9 SWAP8 POP POP POP POP POP POP POP POP JUMP JUMPDEST CALLER PUSH0 SWAP1 DUP2 MSTORE PUSH1 0x1A PUSH1 0x20 MSTORE PUSH1 0x40 SWAP1 KECCAK256 SLOAD PUSH1 0xFF AND PUSH2 0x6BB7 JUMPI PUSH1 0x40 MLOAD PUSH3 0x461BCD PUSH1 0xE5 SHL DUP2 MSTORE PUSH1 0x4 ADD PUSH2 0x12AD SWAP1 PUSH2 0xC6D7 JUMP JUMPDEST PUSH1 0x1E DUP1 SLOAD SWAP1 PUSH0 PUSH2 0x6BC6 DUP4 PUSH2 0xC3F7 JUMP JUMPDEST SWAP1 SWAP2 SSTORE POP POP PUSH1 0x40 DUP1 MLOAD PUSH1 0x60 DUP2 ADD DUP3 MSTORE PUSH1 0x1E SLOAD DUP1 DUP3 MSTORE PUSH1 0x20 DUP1 DUP4 ADD DUP7 DUP2 MSTORE DUP4 DUP6 ADD DUP7 SWAP1 MSTORE PUSH1 0xD DUP1 SLOAD PUSH1 0x1 DUP2 DUP2 ADD SWAP1 SWAP3 SSTORE PUSH32 0xD7B6990105719101DABEB77144F2A3385C8033ACD3AF97E9423A695E81AD1EB5 ADD DUP5 SWAP1 SSTORE PUSH0 SWAP4 DUP5 MSTORE PUSH1 0xC SWAP1 SWAP3 MSTORE SWAP4 SWAP1 SWAP2 KECCAK256 DUP3 MLOAD DUP2 SSTORE SWAP3 MLOAD SWAP2 SWAP3 DUP4 SWAP3 SWAP1 SWAP2 DUP3 ADD SWAP1 PUSH2 0x6C40 SWAP1 DUP3 PUSH2 0xC489 JUMP JUMPDEST POP PUSH1 0x40 DUP3 ADD MLOAD PUSH1 0x2 DUP3 ADD SWAP1 PUSH2 0x6C55 SWAP1 DUP3 PUSH2 0xC489 JUMP JUMPDEST POP SWAP1 POP POP PUSH32 0x2E32D71B46D3C2122BC71DEB4B78790FC542D8BAAF5B0C79D4506640A0E4FA7F PUSH1 0x1E SLOAD DUP3 PUSH1 0x20 ADD MLOAD DUP4 PUSH1 0x40 ADD MLOAD PUSH1 0x40 MLOAD PUSH2 0x6C96 SWAP4 SWAP3 SWAP2 SWAP1 PUSH2 0xBB32 JUMP JUMPDEST PUSH1 0x40 MLOAD DUP1 SWAP2 SUB SWAP1 LOG1 POP POP POP JUMP JUMPDEST PUSH1 0x8 PUSH1 0x20 MSTORE DUP2 PUSH0 MSTORE PUSH1 0x40 PUSH0 KECCAK256 DUP2 DUP2 SLOAD DUP2 LT PUSH2 0x1410 JUMPI PUSH0 DUP1 REVERT JUMPDEST PUSH1 0xA PUSH1 0x20 MSTORE PUSH0 SWAP1 DUP2 MSTORE PUSH1 0x40 SWAP1 KECCAK256 DUP1 SLOAD PUSH1 0x1 DUP3 ADD DUP1 SLOAD SWAP2 SWAP3 SWAP2 PUSH2 0x3D79 SWAP1 PUSH2 0xC269 JUMP JUMPDEST PUSH2 0x6CE5 PUSH2 0xA640 JUMP JUMPDEST PUSH1 0x3 PUSH0 DUP4 DUP2 MSTORE PUSH1 0x20 ADD SWAP1 DUP2 MSTORE PUSH1 0x20 ADD PUSH0 KECCAK256 PUSH1 0x40 MLOAD DUP1 PUSH1 0x80 ADD PUSH1 0x40 MSTORE SWAP1 DUP2 PUSH0 DUP3 ADD SLOAD DUP2 MSTORE PUSH1 0x20 ADD PUSH1 0x1 DUP3 ADD PUSH1 0x40 MLOAD DUP1 PUSH2 0x300 ADD PUSH1 0x40 MSTORE SWAP1 DUP2 PUSH0 DUP3 ADD DUP1 SLOAD PUSH2 0x6D2A SWAP1 PUSH2 0xC269 JUMP JUMPDEST DUP1 PUSH1 0x1F ADD PUSH1 0x20 DUP1 SWAP2 DIV MUL PUSH1 0x20 ADD PUSH1 0x40 MLOAD SWAP1 DUP2 ADD PUSH1 0x40 MSTORE DUP1 SWAP3 SWAP2 SWAP1 DUP2 DUP2 MSTORE PUSH1 0x20 ADD DUP3 DUP1 SLOAD PUSH2 0x6D56 SWAP1 PUSH2 0xC269 JUMP JUMPDEST DUP1 ISZERO PUSH2 0x6DA1 JUMPI DUP1 PUSH1 0x1F LT PUSH2 0x6D78 JUMPI PUSH2 0x100 DUP1 DUP4 SLOAD DIV MUL DUP4 MSTORE SWAP2 PUSH1 0x20 ADD SWAP2 PUSH2 0x6DA1 JUMP JUMPDEST DUP3 ADD SWAP2 SWAP1 PUSH0 MSTORE PUSH1 0x20 PUSH0 KECCAK256 SWAP1 JUMPDEST DUP2 SLOAD DUP2 MSTORE SWAP1 PUSH1 0x1 ADD SWAP1 PUSH1 0x20 ADD DUP1 DUP4 GT PUSH2 0x6D84 JUMPI DUP3 SWAP1 SUB PUSH1 0x1F AND DUP3 ADD SWAP2 JUMPDEST POP POP POP POP POP DUP2 MSTORE PUSH1 0x20 ADD PUSH1 0x1 DUP3 ADD SLOAD DUP2 MSTORE PUSH1 0x20 ADD PUSH1 0x2 DUP3 ADD DUP1 SLOAD PUSH2 0x6DC4 SWAP1 PUSH2 0xC269 JUMP JUMPDEST DUP1 PUSH1 0x1F ADD PUSH1 0x20 DUP1 SWAP2 DIV MUL PUSH1 0x20 ADD PUSH1 0x40 MLOAD SWAP1 DUP2 ADD PUSH1 0x40 MSTORE DUP1 SWAP3 SWAP2 SWAP1 DUP2 DUP2 MSTORE PUSH1 0x20 ADD DUP3 DUP1 SLOAD PUSH2 0x6DF0 SWAP1 PUSH2 0xC269 JUMP JUMPDEST DUP1 ISZERO PUSH2 0x6E3B JUMPI DUP1 PUSH1 0x1F LT PUSH2 0x6E12 JUMPI PUSH2 0x100 DUP1 DUP4 SLOAD DIV MUL DUP4 MSTORE SWAP2 PUSH1 0x20 ADD SWAP2 PUSH2 0x6E3B JUMP JUMPDEST DUP3 ADD SWAP2 SWAP1 PUSH0 MSTORE PUSH1 0x20 PUSH0 KECCAK256 SWAP1 JUMPDEST DUP2 SLOAD DUP2 MSTORE SWAP1 PUSH1 0x1 ADD SWAP1 PUSH1 0x20 ADD DUP1 DUP4 GT PUSH2 0x6E1E JUMPI DUP3 SWAP1 SUB PUSH1 0x1F AND DUP3 ADD SWAP2 JUMPDEST POP POP POP POP POP DUP2 MSTORE PUSH1 0x20 ADD PUSH1 0x3 DUP3 ADD SLOAD DUP2 MSTORE PUSH1 0x20 ADD PUSH1 0x4 DUP3 ADD SLOAD DUP2 MSTORE PUSH1 0x20 ADD PUSH1 0x5 DUP3 ADD SLOAD DUP2 MSTORE PUSH1 0x20 ADD PUSH1 0x6 DUP3 ADD SLOAD DUP2 MSTORE PUSH1 0x20 ADD PUSH1 0x7 DUP3 ADD DUP1 SLOAD DUP1 PUSH1 0x20 MUL PUSH1 0x20 ADD PUSH1 0x40 MLOAD SWAP1 DUP2 ADD PUSH1 0x40 MSTORE DUP1 SWAP3 SWAP2 SWAP1 DUP2 DUP2 MSTORE PUSH1 0x20 ADD DUP3 DUP1 SLOAD DUP1 ISZERO PUSH2 0x6EB9 JUMPI PUSH1 0x20 MUL DUP3 ADD SWAP2 SWAP1 PUSH0 MSTORE PUSH1 0x20 PUSH0 KECCAK256 SWAP1 JUMPDEST DUP2 SLOAD DUP2 MSTORE PUSH1 0x20 ADD SWAP1 PUSH1 0x1 ADD SWAP1 DUP1 DUP4 GT PUSH2 0x6EA5 JUMPI JUMPDEST POP POP POP POP POP DUP2 MSTORE PUSH1 0x20 ADD PUSH1 0x8 DUP3 ADD DUP1 SLOAD DUP1 PUSH1 0x20 MUL PUSH1 0x20 ADD PUSH1 0x40 MLOAD SWAP1 DUP2 ADD PUSH1 0x40 MSTORE DUP1 SWAP3 SWAP2 SWAP1 DUP2 DUP2 MSTORE PUSH1 0x20 ADD PUSH0 SWAP1 JUMPDEST DUP3 DUP3 LT ISZERO PUSH2 0x6F8E JUMPI DUP4 DUP3 SWAP1 PUSH0 MSTORE PUSH1 0x20 PUSH0 KECCAK256 ADD DUP1 SLOAD PUSH2 0x6F03 SWAP1 PUSH2 0xC269 JUMP JUMPDEST DUP1 PUSH1 0x1F ADD PUSH1 0x20 DUP1 SWAP2 DIV MUL PUSH1 0x20 ADD PUSH1 0x40 MLOAD SWAP1 DUP2 ADD PUSH1 0x40 MSTORE DUP1 SWAP3 SWAP2 SWAP1 DUP2 DUP2 MSTORE PUSH1 0x20 ADD DUP3 DUP1 SLOAD PUSH2 0x6F2F SWAP1 PUSH2 0xC269 JUMP JUMPDEST DUP1 ISZERO PUSH2 0x6F7A JUMPI DUP1 PUSH1 0x1F LT PUSH2 0x6F51 JUMPI PUSH2 0x100 DUP1 DUP4 SLOAD DIV MUL DUP4 MSTORE SWAP2 PUSH1 0x20 ADD SWAP2 PUSH2 0x6F7A JUMP JUMPDEST DUP3 ADD SWAP2 SWAP1 PUSH0 MSTORE PUSH1 0x20 PUSH0 KECCAK256 SWAP1 JUMPDEST DUP2 SLOAD DUP2 MSTORE SWAP1 PUSH1 0x1 ADD SWAP1 PUSH1 0x20 ADD DUP1 DUP4 GT PUSH2 0x6F5D JUMPI DUP3 SWAP1 SUB PUSH1 0x1F AND DUP3 ADD SWAP2 JUMPDEST POP POP POP POP POP DUP2 MSTORE PUSH1 0x20 ADD SWAP1 PUSH1 0x1 ADD SWAP1 PUSH2 0x6EE6 JUMP JUMPDEST POP POP POP POP DUP2 MSTORE PUSH1 0x20 ADD PUSH1 0x9 DUP3 ADD SLOAD DUP2 MSTORE PUSH1 0x20 ADD PUSH1 0xA DUP3 ADD SLOAD DUP2 MSTORE PUSH1 0x20 ADD PUSH1 0xB DUP3 ADD DUP1 SLOAD DUP1 PUSH1 0x20 MUL PUSH1 0x20 ADD PUSH1 0x40 MLOAD SWAP1 DUP2 ADD PUSH1 0x40 MSTORE DUP1 SWAP3 SWAP2 SWAP1 DUP2 DUP2 MSTORE PUSH1 0x20 ADD PUSH0 SWAP1 JUMPDEST DUP3 DUP3 LT ISZERO PUSH2 0x7076 JUMPI DUP4 DUP3 SWAP1 PUSH0 MSTORE PUSH1 0x20 PUSH0 KECCAK256 ADD DUP1 SLOAD PUSH2 0x6FEB SWAP1 PUSH2 0xC269 JUMP JUMPDEST DUP1 PUSH1 0x1F ADD PUSH1 0x20 DUP1 SWAP2 DIV MUL PUSH1 0x20 ADD PUSH1 0x40 MLOAD SWAP1 DUP2 ADD PUSH1 0x40 MSTORE DUP1 SWAP3 SWAP2 SWAP1 DUP2 DUP2 MSTORE PUSH1 0x20 ADD DUP3 DUP1 SLOAD PUSH2 0x7017 SWAP1 PUSH2 0xC269 JUMP JUMPDEST DUP1 ISZERO PUSH2 0x7062 JUMPI DUP1 PUSH1 0x1F LT PUSH2 0x7039 JUMPI PUSH2 0x100 DUP1 DUP4 SLOAD DIV MUL DUP4 MSTORE SWAP2 PUSH1 0x20 ADD SWAP2 PUSH2 0x7062 JUMP JUMPDEST DUP3 ADD SWAP2 SWAP1 PUSH0 MSTORE PUSH1 0x20 PUSH0 KECCAK256 SWAP1 JUMPDEST DUP2 SLOAD DUP2 MSTORE SWAP1 PUSH1 0x1 ADD SWAP1 PUSH1 0x20 ADD DUP1 DUP4 GT PUSH2 0x7045 JUMPI DUP3 SWAP1 SUB PUSH1 0x1F AND DUP3 ADD SWAP2 JUMPDEST POP POP POP POP POP DUP2 MSTORE PUSH1 0x20 ADD SWAP1 PUSH1 0x1 ADD SWAP1 PUSH2 0x6FCE JUMP JUMPDEST POP POP POP SWAP1 DUP3 MSTORE POP PUSH1 0xC DUP3 ADD SLOAD PUSH1 0x1 PUSH1 0x1 PUSH1 0xA0 SHL SUB AND PUSH1 0x20 DUP3 ADD MSTORE PUSH1 0xD DUP3 ADD DUP1 SLOAD PUSH1 0x40 SWAP1 SWAP3 ADD SWAP2 PUSH2 0x70A5 SWAP1 PUSH2 0xC269 JUMP JUMPDEST DUP1 PUSH1 0x1F ADD PUSH1 0x20 DUP1 SWAP2 DIV MUL PUSH1 0x20 ADD PUSH1 0x40 MLOAD SWAP1 DUP2 ADD PUSH1 0x40 MSTORE DUP1 SWAP3 SWAP2 SWAP1 DUP2 DUP2 MSTORE PUSH1 0x20 ADD DUP3 DUP1 SLOAD PUSH2 0x70D1 SWAP1 PUSH2 0xC269 JUMP JUMPDEST DUP1 ISZERO PUSH2 0x711C JUMPI DUP1 PUSH1 0x1F LT PUSH2 0x70F3 JUMPI PUSH2 0x100 DUP1 DUP4 SLOAD DIV MUL DUP4 MSTORE SWAP2 PUSH1 0x20 ADD SWAP2 PUSH2 0x711C JUMP JUMPDEST DUP3 ADD SWAP2 SWAP1 PUSH0 MSTORE PUSH1 0x20 PUSH0 KECCAK256 SWAP1 JUMPDEST DUP2 SLOAD DUP2 MSTORE SWAP1 PUSH1 0x1 ADD SWAP1 PUSH1 0x20 ADD DUP1 DUP4 GT PUSH2 0x70FF JUMPI DUP3 SWAP1 SUB PUSH1 0x1F AND DUP3 ADD SWAP2 JUMPDEST POP POP POP POP POP DUP2 MSTORE PUSH1 0x20 ADD PUSH1 0xE DUP3 ADD DUP1 SLOAD PUSH2 0x7135 SWAP1 PUSH2 0xC269 JUMP JUMPDEST DUP1 PUSH1 0x1F ADD PUSH1 0x20 DUP1 SWAP2 DIV MUL PUSH1 0x20 ADD PUSH1 0x40 MLOAD SWAP1 DUP2 ADD PUSH1 0x40 MSTORE DUP1 SWAP3 SWAP2 SWAP1 DUP2 DUP2 MSTORE PUSH1 0x20 ADD DUP3 DUP1 SLOAD PUSH2 0x7161 SWAP1 PUSH2 0xC269 JUMP JUMPDEST DUP1 ISZERO PUSH2 0x71AC JUMPI DUP1 PUSH1 0x1F LT PUSH2 0x7183 JUMPI PUSH2 0x100 DUP1 DUP4 SLOAD DIV MUL DUP4 MSTORE SWAP2 PUSH1 0x20 ADD SWAP2 PUSH2 0x71AC JUMP JUMPDEST DUP3 ADD SWAP2 SWAP1 PUSH0 MSTORE PUSH1 0x20 PUSH0 KECCAK256 SWAP1 JUMPDEST DUP2 SLOAD DUP2 MSTORE SWAP1 PUSH1 0x1 ADD SWAP1 PUSH1 0x20 ADD DUP1 DUP4 GT PUSH2 0x718F JUMPI DUP3 SWAP1 SUB PUSH1 0x1F AND DUP3 ADD SWAP2 JUMPDEST POP POP POP SWAP2 DUP4 MSTORE POP POP PUSH1 0xF DUP3 ADD SLOAD PUSH1 0xFF AND ISZERO ISZERO PUSH1 0x20 DUP1 DUP4 ADD SWAP2 SWAP1 SWAP2 MSTORE PUSH1 0x10 DUP4 ADD DUP1 SLOAD PUSH1 0x40 DUP1 MLOAD DUP3 DUP6 MUL DUP2 ADD DUP6 ADD DUP3 MSTORE DUP3 DUP2 MSTORE SWAP5 ADD SWAP4 SWAP3 PUSH0 SWAP1 DUP5 ADD JUMPDEST DUP3 DUP3 LT ISZERO PUSH2 0x728E JUMPI DUP4 DUP3 SWAP1 PUSH0 MSTORE PUSH1 0x20 PUSH0 KECCAK256 ADD DUP1 SLOAD PUSH2 0x7203 SWAP1 PUSH2 0xC269 JUMP JUMPDEST DUP1 PUSH1 0x1F ADD PUSH1 0x20 DUP1 SWAP2 DIV MUL PUSH1 0x20 ADD PUSH1 0x40 MLOAD SWAP1 DUP2 ADD PUSH1 0x40 MSTORE DUP1 SWAP3 SWAP2 SWAP1 DUP2 DUP2 MSTORE PUSH1 0x20 ADD DUP3 DUP1 SLOAD PUSH2 0x722F SWAP1 PUSH2 0xC269 JUMP JUMPDEST DUP1 ISZERO PUSH2 0x727A JUMPI DUP1 PUSH1 0x1F LT PUSH2 0x7251 JUMPI PUSH2 0x100 DUP1 DUP4 SLOAD DIV MUL DUP4 MSTORE SWAP2 PUSH1 0x20 ADD SWAP2 PUSH2 0x727A JUMP JUMPDEST DUP3 ADD SWAP2 SWAP1 PUSH0 MSTORE PUSH1 0x20 PUSH0 KECCAK256 SWAP1 JUMPDEST DUP2 SLOAD DUP2 MSTORE SWAP1 PUSH1 0x1 ADD SWAP1 PUSH1 0x20 ADD DUP1 DUP4 GT PUSH2 0x725D JUMPI DUP3 SWAP1 SUB PUSH1 0x1F AND DUP3 ADD SWAP2 JUMPDEST POP POP POP POP POP DUP2 MSTORE PUSH1 0x20 ADD SWAP1 PUSH1 0x1 ADD SWAP1 PUSH2 0x71E6 JUMP JUMPDEST POP POP POP POP DUP2 MSTORE PUSH1 0x20 ADD PUSH1 0x11 DUP3 ADD DUP1 SLOAD PUSH2 0x72A6 SWAP1 PUSH2 0xC269 JUMP JUMPDEST DUP1 PUSH1 0x1F ADD PUSH1 0x20 DUP1 SWAP2 DIV MUL PUSH1 0x20 ADD PUSH1 0x40 MLOAD SWAP1 DUP2 ADD PUSH1 0x40 MSTORE DUP1 SWAP3 SWAP2 SWAP1 DUP2 DUP2 MSTORE PUSH1 0x20 ADD DUP3 DUP1 SLOAD PUSH2 0x72D2 SWAP1 PUSH2 0xC269 JUMP JUMPDEST DUP1 ISZERO PUSH2 0x731D JUMPI DUP1 PUSH1 0x1F LT PUSH2 0x72F4 JUMPI PUSH2 0x100 DUP1 DUP4 SLOAD DIV MUL DUP4 MSTORE SWAP2 PUSH1 0x20 ADD SWAP2 PUSH2 0x731D JUMP JUMPDEST DUP3 ADD SWAP2 SWAP1 PUSH0 MSTORE PUSH1 0x20 PUSH0 KECCAK256 SWAP1 JUMPDEST DUP2 SLOAD DUP2 MSTORE SWAP1 PUSH1 0x1 ADD SWAP1 PUSH1 0x20 ADD DUP1 DUP4 GT PUSH2 0x7300 JUMPI DUP3 SWAP1 SUB PUSH1 0x1F AND DUP3 ADD SWAP2 JUMPDEST POP POP POP SWAP2 DUP4 MSTORE POP POP PUSH1 0x12 DUP3 ADD SLOAD PUSH1 0x20 DUP1 DUP4 ADD SWAP2 SWAP1 SWAP2 MSTORE PUSH1 0x13 DUP4 ADD SLOAD PUSH1 0x40 DUP1 DUP5 ADD SWAP2 SWAP1 SWAP2 MSTORE PUSH1 0x14 DUP5 ADD SLOAD PUSH1 0x60 DUP5 ADD MSTORE PUSH1 0x15 DUP5 ADD SLOAD PUSH1 0xFF DUP1 DUP3 AND ISZERO ISZERO PUSH1 0x80 DUP7 ADD MSTORE PUSH2 0x100 SWAP1 SWAP2 DIV AND ISZERO ISZERO PUSH1 0xA0 DUP5 ADD MSTORE PUSH1 0x16 SWAP1 SWAP4 ADD SLOAD PUSH1 0xC0 SWAP1 SWAP3 ADD SWAP2 SWAP1 SWAP2 MSTORE SWAP2 DUP4 MSTORE PUSH1 0x18 DUP5 ADD SLOAD SWAP2 DUP4 ADD SWAP2 SWAP1 SWAP2 MSTORE PUSH1 0x19 SWAP1 SWAP3 ADD SLOAD SWAP2 ADD MSTORE SWAP3 SWAP2 POP POP JUMP JUMPDEST PUSH1 0x10 PUSH1 0x20 MSTORE DUP2 PUSH0 MSTORE PUSH1 0x40 PUSH0 KECCAK256 DUP2 DUP2 SLOAD DUP2 LT PUSH2 0x1410 JUMPI PUSH0 DUP1 REVERT JUMPDEST PUSH1 0x4 DUP1 SLOAD PUSH1 0x60 SWAP2 SWAP1 PUSH0 SWAP1 PUSH1 0x1 PUSH1 0x1 PUSH1 0x40 SHL SUB DUP2 GT ISZERO PUSH2 0x73D1 JUMPI PUSH2 0x73D1 PUSH2 0xA98B JUMP JUMPDEST PUSH1 0x40 MLOAD SWAP1 DUP1 DUP3 MSTORE DUP1 PUSH1 0x20 MUL PUSH1 0x20 ADD DUP3 ADD PUSH1 0x40 MSTORE DUP1 ISZERO PUSH2 0x740A JUMPI DUP2 PUSH1 0x20 ADD JUMPDEST PUSH2 0x73F7 PUSH2 0xA640 JUMP JUMPDEST DUP2 MSTORE PUSH1 0x20 ADD SWAP1 PUSH1 0x1 SWAP1 SUB SWAP1 DUP2 PUSH2 0x73EF JUMPI SWAP1 POP JUMPDEST POP SWAP1 POP PUSH0 JUMPDEST DUP3 SLOAD DUP2 LT ISZERO PUSH2 0x3BAD JUMPI PUSH1 0x3 PUSH0 DUP5 DUP4 DUP2 SLOAD DUP2 LT PUSH2 0x742D JUMPI PUSH2 0x742D PUSH2 0xC255 JUMP JUMPDEST SWAP1 PUSH0 MSTORE PUSH1 0x20 PUSH0 KECCAK256 ADD SLOAD DUP2 MSTORE PUSH1 0x20 ADD SWAP1 DUP2 MSTORE PUSH1 0x20 ADD PUSH0 KECCAK256 PUSH1 0x40 MLOAD DUP1 PUSH1 0x80 ADD PUSH1 0x40 MSTORE SWAP1 DUP2 PUSH0 DUP3 ADD SLOAD DUP2 MSTORE PUSH1 0x20 ADD PUSH1 0x1 DUP3 ADD PUSH1 0x40 MLOAD DUP1 PUSH2 0x300 ADD PUSH1 0x40 MSTORE SWAP1 DUP2 PUSH0 DUP3 ADD DUP1 SLOAD PUSH2 0x7477 SWAP1 PUSH2 0xC269 JUMP JUMPDEST DUP1 PUSH1 0x1F ADD PUSH1 0x20 DUP1 SWAP2 DIV MUL PUSH1 0x20 ADD PUSH1 0x40 MLOAD SWAP1 DUP2 ADD PUSH1 0x40 MSTORE DUP1 SWAP3 SWAP2 SWAP1 DUP2 DUP2 MSTORE PUSH1 0x20 ADD DUP3 DUP1 SLOAD PUSH2 0x74A3 SWAP1 PUSH2 0xC269 JUMP JUMPDEST DUP1 ISZERO PUSH2 0x74EE JUMPI DUP1 PUSH1 0x1F LT PUSH2 0x74C5 JUMPI PUSH2 0x100 DUP1 DUP4 SLOAD DIV MUL DUP4 MSTORE SWAP2 PUSH1 0x20 ADD SWAP2 PUSH2 0x74EE JUMP JUMPDEST DUP3 ADD SWAP2 SWAP1 PUSH0 MSTORE PUSH1 0x20 PUSH0 KECCAK256 SWAP1 JUMPDEST DUP2 SLOAD DUP2 MSTORE SWAP1 PUSH1 0x1 ADD SWAP1 PUSH1 0x20 ADD DUP1 DUP4 GT PUSH2 0x74D1 JUMPI DUP3 SWAP1 SUB PUSH1 0x1F AND DUP3 ADD SWAP2 JUMPDEST POP POP POP POP POP DUP2 MSTORE PUSH1 0x20 ADD PUSH1 0x1 DUP3 ADD SLOAD DUP2 MSTORE PUSH1 0x20 ADD PUSH1 0x2 DUP3 ADD DUP1 SLOAD PUSH2 0x7511 SWAP1 PUSH2 0xC269 JUMP JUMPDEST DUP1 PUSH1 0x1F ADD PUSH1 0x20 DUP1 SWAP2 DIV MUL PUSH1 0x20 ADD PUSH1 0x40 MLOAD SWAP1 DUP2 ADD PUSH1 0x40 MSTORE DUP1 SWAP3 SWAP2 SWAP1 DUP2 DUP2 MSTORE PUSH1 0x20 ADD DUP3 DUP1 SLOAD PUSH2 0x753D SWAP1 PUSH2 0xC269 JUMP JUMPDEST DUP1 ISZERO PUSH2 0x7588 JUMPI DUP1 PUSH1 0x1F LT PUSH2 0x755F JUMPI PUSH2 0x100 DUP1 DUP4 SLOAD DIV MUL DUP4 MSTORE SWAP2 PUSH1 0x20 ADD SWAP2 PUSH2 0x7588 JUMP JUMPDEST DUP3 ADD SWAP2 SWAP1 PUSH0 MSTORE PUSH1 0x20 PUSH0 KECCAK256 SWAP1 JUMPDEST DUP2 SLOAD DUP2 MSTORE SWAP1 PUSH1 0x1 ADD SWAP1 PUSH1 0x20 ADD DUP1 DUP4 GT PUSH2 0x756B JUMPI DUP3 SWAP1 SUB PUSH1 0x1F AND DUP3 ADD SWAP2 JUMPDEST POP POP POP POP POP DUP2 MSTORE PUSH1 0x20 ADD PUSH1 0x3 DUP3 ADD SLOAD DUP2 MSTORE PUSH1 0x20 ADD PUSH1 0x4 DUP3 ADD SLOAD DUP2 MSTORE PUSH1 0x20 ADD PUSH1 0x5 DUP3 ADD SLOAD DUP2 MSTORE PUSH1 0x20 ADD PUSH1 0x6 DUP3 ADD SLOAD DUP2 MSTORE PUSH1 0x20 ADD PUSH1 0x7 DUP3 ADD DUP1 SLOAD DUP1 PUSH1 0x20 MUL PUSH1 0x20 ADD PUSH1 0x40 MLOAD SWAP1 DUP2 ADD PUSH1 0x40 MSTORE DUP1 SWAP3 SWAP2 SWAP1 DUP2 DUP2 MSTORE PUSH1 0x20 ADD DUP3 DUP1 SLOAD DUP1 ISZERO PUSH2 0x7606 JUMPI PUSH1 0x20 MUL DUP3 ADD SWAP2 SWAP1 PUSH0 MSTORE PUSH1 0x20 PUSH0 KECCAK256 SWAP1 JUMPDEST DUP2 SLOAD DUP2 MSTORE PUSH1 0x20 ADD SWAP1 PUSH1 0x1 ADD SWAP1 DUP1 DUP4 GT PUSH2 0x75F2 JUMPI JUMPDEST POP POP POP POP POP DUP2 MSTORE PUSH1 0x20 ADD PUSH1 0x8 DUP3 ADD DUP1 SLOAD DUP1 PUSH1 0x20 MUL PUSH1 0x20 ADD PUSH1 0x40 MLOAD SWAP1 DUP2 ADD PUSH1 0x40 MSTORE DUP1 SWAP3 SWAP2 SWAP1 DUP2 DUP2 MSTORE PUSH1 0x20 ADD PUSH0 SWAP1 JUMPDEST DUP3 DUP3 LT ISZERO PUSH2 0x76DB JUMPI DUP4 DUP3 SWAP1 PUSH0 MSTORE PUSH1 0x20 PUSH0 KECCAK256 ADD DUP1 SLOAD PUSH2 0x7650 SWAP1 PUSH2 0xC269 JUMP JUMPDEST DUP1 PUSH1 0x1F ADD PUSH1 0x20 DUP1 SWAP2 DIV MUL PUSH1 0x20 ADD PUSH1 0x40 MLOAD SWAP1 DUP2 ADD PUSH1 0x40 MSTORE DUP1 SWAP3 SWAP2 SWAP1 DUP2 DUP2 MSTORE PUSH1 0x20 ADD DUP3 DUP1 SLOAD PUSH2 0x767C SWAP1 PUSH2 0xC269 JUMP JUMPDEST DUP1 ISZERO PUSH2 0x76C7 JUMPI DUP1 PUSH1 0x1F LT PUSH2 0x769E JUMPI PUSH2 0x100 DUP1 DUP4 SLOAD DIV MUL DUP4 MSTORE SWAP2 PUSH1 0x20 ADD SWAP2 PUSH2 0x76C7 JUMP JUMPDEST DUP3 ADD SWAP2 SWAP1 PUSH0 MSTORE PUSH1 0x20 PUSH0 KECCAK256 SWAP1 JUMPDEST DUP2 SLOAD DUP2 MSTORE SWAP1 PUSH1 0x1 ADD SWAP1 PUSH1 0x20 ADD DUP1 DUP4 GT PUSH2 0x76AA JUMPI DUP3 SWAP1 SUB PUSH1 0x1F AND DUP3 ADD SWAP2 JUMPDEST POP POP POP POP POP DUP2 MSTORE PUSH1 0x20 ADD SWAP1 PUSH1 0x1 ADD SWAP1 PUSH2 0x7633 JUMP JUMPDEST POP POP POP POP DUP2 MSTORE PUSH1 0x20 ADD PUSH1 0x9 DUP3 ADD SLOAD DUP2 MSTORE PUSH1 0x20 ADD PUSH1 0xA DUP3 ADD SLOAD DUP2 MSTORE PUSH1 0x20 ADD PUSH1 0xB DUP3 ADD DUP1 SLOAD DUP1 PUSH1 0x20 MUL PUSH1 0x20 ADD PUSH1 0x40 MLOAD SWAP1 DUP2 ADD PUSH1 0x40 MSTORE DUP1 SWAP3 SWAP2 SWAP1 DUP2 DUP2 MSTORE PUSH1 0x20 ADD PUSH0 SWAP1 JUMPDEST DUP3 DUP3 LT ISZERO PUSH2 0x77C3 JUMPI DUP4 DUP3 SWAP1 PUSH0 MSTORE PUSH1 0x20 PUSH0 KECCAK256 ADD DUP1 SLOAD PUSH2 0x7738 SWAP1 PUSH2 0xC269 JUMP JUMPDEST DUP1 PUSH1 0x1F ADD PUSH1 0x20 DUP1 SWAP2 DIV MUL PUSH1 0x20 ADD PUSH1 0x40 MLOAD SWAP1 DUP2 ADD PUSH1 0x40 MSTORE DUP1 SWAP3 SWAP2 SWAP1 DUP2 DUP2 MSTORE PUSH1 0x20 ADD DUP3 DUP1 SLOAD PUSH2 0x7764 SWAP1 PUSH2 0xC269 JUMP JUMPDEST DUP1 ISZERO PUSH2 0x77AF JUMPI DUP1 PUSH1 0x1F LT PUSH2 0x7786 JUMPI PUSH2 0x100 DUP1 DUP4 SLOAD DIV MUL DUP4 MSTORE SWAP2 PUSH1 0x20 ADD SWAP2 PUSH2 0x77AF JUMP JUMPDEST DUP3 ADD SWAP2 SWAP1 PUSH0 MSTORE PUSH1 0x20 PUSH0 KECCAK256 SWAP1 JUMPDEST DUP2 SLOAD DUP2 MSTORE SWAP1 PUSH1 0x1 ADD SWAP1 PUSH1 0x20 ADD DUP1 DUP4 GT PUSH2 0x7792 JUMPI DUP3 SWAP1 SUB PUSH1 0x1F AND DUP3 ADD SWAP2 JUMPDEST POP POP POP POP POP DUP2 MSTORE PUSH1 0x20 ADD SWAP1 PUSH1 0x1 ADD SWAP1 PUSH2 0x771B JUMP JUMPDEST POP POP POP SWAP1 DUP3 MSTORE POP PUSH1 0xC DUP3 ADD SLOAD PUSH1 0x1 PUSH1 0x1 PUSH1 0xA0 SHL SUB AND PUSH1 0x20 DUP3 ADD MSTORE PUSH1 0xD DUP3 ADD DUP1 SLOAD PUSH1 0x40 SWAP1 SWAP3 ADD SWAP2 PUSH2 0x77F2 SWAP1 PUSH2 0xC269 JUMP JUMPDEST DUP1 PUSH1 0x1F ADD PUSH1 0x20 DUP1 SWAP2 DIV MUL PUSH1 0x20 ADD PUSH1 0x40 MLOAD SWAP1 DUP2 ADD PUSH1 0x40 MSTORE DUP1 SWAP3 SWAP2 SWAP1 DUP2 DUP2 MSTORE PUSH1 0x20 ADD DUP3 DUP1 SLOAD PUSH2 0x781E SWAP1 PUSH2 0xC269 JUMP JUMPDEST DUP1 ISZERO PUSH2 0x7869 JUMPI DUP1 PUSH1 0x1F LT PUSH2 0x7840 JUMPI PUSH2 0x100 DUP1 DUP4 SLOAD DIV MUL DUP4 MSTORE SWAP2 PUSH1 0x20 ADD SWAP2 PUSH2 0x7869 JUMP JUMPDEST DUP3 ADD SWAP2 SWAP1 PUSH0 MSTORE PUSH1 0x20 PUSH0 KECCAK256 SWAP1 JUMPDEST DUP2 SLOAD DUP2 MSTORE SWAP1 PUSH1 0x1 ADD SWAP1 PUSH1 0x20 ADD DUP1 DUP4 GT PUSH2 0x784C JUMPI DUP3 SWAP1 SUB PUSH1 0x1F AND DUP3 ADD SWAP2 JUMPDEST POP POP POP POP POP DUP2 MSTORE PUSH1 0x20 ADD PUSH1 0xE DUP3 ADD DUP1 SLOAD PUSH2 0x7882 SWAP1 PUSH2 0xC269 JUMP JUMPDEST DUP1 PUSH1 0x1F ADD PUSH1 0x20 DUP1 SWAP2 DIV MUL PUSH1 0x20 ADD PUSH1 0x40 MLOAD SWAP1 DUP2 ADD PUSH1 0x40 MSTORE DUP1 SWAP3 SWAP2 SWAP1 DUP2 DUP2 MSTORE PUSH1 0x20 ADD DUP3 DUP1 SLOAD PUSH2 0x78AE SWAP1 PUSH2 0xC269 JUMP JUMPDEST DUP1 ISZERO PUSH2 0x78F9 JUMPI DUP1 PUSH1 0x1F LT PUSH2 0x78D0 JUMPI PUSH2 0x100 DUP1 DUP4 SLOAD DIV MUL DUP4 MSTORE SWAP2 PUSH1 0x20 ADD SWAP2 PUSH2 0x78F9 JUMP JUMPDEST DUP3 ADD SWAP2 SWAP1 PUSH0 MSTORE PUSH1 0x20 PUSH0 KECCAK256 SWAP1 JUMPDEST DUP2 SLOAD DUP2 MSTORE SWAP1 PUSH1 0x1 ADD SWAP1 PUSH1 0x20 ADD DUP1 DUP4 GT PUSH2 0x78DC JUMPI DUP3 SWAP1 SUB PUSH1 0x1F AND DUP3 ADD SWAP2 JUMPDEST POP POP POP SWAP2 DUP4 MSTORE POP POP PUSH1 0xF DUP3 ADD SLOAD PUSH1 0xFF AND ISZERO ISZERO PUSH1 0x20 DUP1 DUP4 ADD SWAP2 SWAP1 SWAP2 MSTORE PUSH1 0x10 DUP4 ADD DUP1 SLOAD PUSH1 0x40 DUP1 MLOAD DUP3 DUP6 MUL DUP2 ADD DUP6 ADD DUP3 MSTORE DUP3 DUP2 MSTORE SWAP5 ADD SWAP4 SWAP3 PUSH0 SWAP1 DUP5 ADD JUMPDEST DUP3 DUP3 LT ISZERO PUSH2 0x79DB JUMPI DUP4 DUP3 SWAP1 PUSH0 MSTORE PUSH1 0x20 PUSH0 KECCAK256 ADD DUP1 SLOAD PUSH2 0x7950 SWAP1 PUSH2 0xC269 JUMP JUMPDEST DUP1 PUSH1 0x1F ADD PUSH1 0x20 DUP1 SWAP2 DIV MUL PUSH1 0x20 ADD PUSH1 0x40 MLOAD SWAP1 DUP2 ADD PUSH1 0x40 MSTORE DUP1 SWAP3 SWAP2 SWAP1 DUP2 DUP2 MSTORE PUSH1 0x20 ADD DUP3 DUP1 SLOAD PUSH2 0x797C SWAP1 PUSH2 0xC269 JUMP JUMPDEST DUP1 ISZERO PUSH2 0x79C7 JUMPI DUP1 PUSH1 0x1F LT PUSH2 0x799E JUMPI PUSH2 0x100 DUP1 DUP4 SLOAD DIV MUL DUP4 MSTORE SWAP2 PUSH1 0x20 ADD SWAP2 PUSH2 0x79C7 JUMP JUMPDEST DUP3 ADD SWAP2 SWAP1 PUSH0 MSTORE PUSH1 0x20 PUSH0 KECCAK256 SWAP1 JUMPDEST DUP2 SLOAD DUP2 MSTORE SWAP1 PUSH1 0x1 ADD SWAP1 PUSH1 0x20 ADD DUP1 DUP4 GT PUSH2 0x79AA JUMPI DUP3 SWAP1 SUB PUSH1 0x1F AND DUP3 ADD SWAP2 JUMPDEST POP POP POP POP POP DUP2 MSTORE PUSH1 0x20 ADD SWAP1 PUSH1 0x1 ADD SWAP1 PUSH2 0x7933 JUMP JUMPDEST POP POP POP POP DUP2 MSTORE PUSH1 0x20 ADD PUSH1 0x11 DUP3 ADD DUP1 SLOAD PUSH2 0x79F3 SWAP1 PUSH2 0xC269 JUMP JUMPDEST DUP1 PUSH1 0x1F ADD PUSH1 0x20 DUP1 SWAP2 DIV MUL PUSH1 0x20 ADD PUSH1 0x40 MLOAD SWAP1 DUP2 ADD PUSH1 0x40 MSTORE DUP1 SWAP3 SWAP2 SWAP1 DUP2 DUP2 MSTORE PUSH1 0x20 ADD DUP3 DUP1 SLOAD PUSH2 0x7A1F SWAP1 PUSH2 0xC269 JUMP JUMPDEST DUP1 ISZERO PUSH2 0x7A6A JUMPI DUP1 PUSH1 0x1F LT PUSH2 0x7A41 JUMPI PUSH2 0x100 DUP1 DUP4 SLOAD DIV MUL DUP4 MSTORE SWAP2 PUSH1 0x20 ADD SWAP2 PUSH2 0x7A6A JUMP JUMPDEST DUP3 ADD SWAP2 SWAP1 PUSH0 MSTORE PUSH1 0x20 PUSH0 KECCAK256 SWAP1 JUMPDEST DUP2 SLOAD DUP2 MSTORE SWAP1 PUSH1 0x1 ADD SWAP1 PUSH1 0x20 ADD DUP1 DUP4 GT PUSH2 0x7A4D JUMPI DUP3 SWAP1 SUB PUSH1 0x1F AND DUP3 ADD SWAP2 JUMPDEST POP POP POP SWAP2 DUP4 MSTORE POP POP PUSH1 0x12 DUP3 ADD SLOAD PUSH1 0x20 DUP1 DUP4 ADD SWAP2 SWAP1 SWAP2 MSTORE PUSH1 0x13 DUP4 ADD SLOAD PUSH1 0x40 DUP1 DUP5 ADD SWAP2 SWAP1 SWAP2 MSTORE PUSH1 0x14 DUP5 ADD SLOAD PUSH1 0x60 DUP5 ADD MSTORE PUSH1 0x15 DUP5 ADD SLOAD PUSH1 0xFF DUP1 DUP3 AND ISZERO ISZERO PUSH1 0x80 DUP7 ADD MSTORE PUSH2 0x100 SWAP1 SWAP2 DIV AND ISZERO ISZERO PUSH1 0xA0 DUP5 ADD MSTORE PUSH1 0x16 SWAP1 SWAP4 ADD SLOAD PUSH1 0xC0 SWAP1 SWAP3 ADD SWAP2 SWAP1 SWAP2 MSTORE SWAP2 DUP4 MSTORE PUSH1 0x18 DUP5 ADD SLOAD SWAP2 DUP4 ADD SWAP2 SWAP1 SWAP2 MSTORE PUSH1 0x19 SWAP1 SWAP3 ADD SLOAD SWAP2 ADD MSTORE DUP3 MLOAD DUP4 SWAP1 DUP4 SWAP1 DUP2 LT PUSH2 0x7AF2 JUMPI PUSH2 0x7AF2 PUSH2 0xC255 JUMP JUMPDEST PUSH1 0x20 SWAP1 DUP2 MUL SWAP2 SWAP1 SWAP2 ADD ADD MSTORE PUSH1 0x1 ADD PUSH2 0x740F JUMP JUMPDEST PUSH1 0xD DUP2 DUP2 SLOAD DUP2 LT PUSH2 0x5673 JUMPI PUSH0 DUP1 REVERT JUMPDEST PUSH1 0x1 PUSH1 0x1 PUSH1 0xA0 SHL SUB DUP2 AND PUSH0 SWAP1 DUP2 MSTORE PUSH1 0x19 PUSH1 0x20 SWAP1 DUP2 MSTORE PUSH1 0x40 DUP1 DUP4 KECCAK256 DUP1 SLOAD DUP3 MLOAD DUP2 DUP6 MUL DUP2 ADD DUP6 ADD SWAP1 SWAP4 MSTORE DUP1 DUP4 MSTORE PUSH1 0x60 SWAP5 SWAP3 SWAP4 SWAP2 SWAP3 SWAP1 SWAP2 DUP5 ADD JUMPDEST DUP3 DUP3 LT ISZERO PUSH2 0x7B8E JUMPI DUP4 DUP3 SWAP1 PUSH0 MSTORE PUSH1 0x20 PUSH0 KECCAK256 SWAP1 PUSH1 0x2 MUL ADD PUSH1 0x40 MLOAD DUP1 PUSH1 0x40 ADD PUSH1 0x40 MSTORE SWAP1 DUP2 PUSH0 DUP3 ADD SLOAD DUP2 MSTORE PUSH1 0x20 ADD PUSH1 0x1 DUP3 ADD SLOAD DUP2 MSTORE POP POP DUP2 MSTORE PUSH1 0x20 ADD SWAP1 PUSH1 0x1 ADD SWAP1 PUSH2 0x7B4B JUMP JUMPDEST POP POP POP POP SWAP1 POP SWAP2 SWAP1 POP JUMP JUMPDEST PUSH0 DUP1 SLOAD PUSH1 0x1 PUSH1 0x1 PUSH1 0xA0 SHL SUB AND CALLER DUP2 EQ PUSH2 0x7BC4 JUMPI PUSH1 0x40 MLOAD PUSH3 0x461BCD PUSH1 0xE5 SHL DUP2 MSTORE PUSH1 0x4 ADD PUSH2 0x12AD SWAP1 PUSH2 0xC29B JUMP JUMPDEST PUSH1 0x22 DUP1 SLOAD PUSH1 0x1 PUSH1 0x1 PUSH1 0xA0 SHL SUB DUP6 AND PUSH1 0x1 PUSH1 0x1 PUSH1 0xA0 SHL SUB NOT SWAP1 SWAP2 AND OR SWAP1 SSTORE PUSH1 0x1 SWAP2 POP POP SWAP2 SWAP1 POP JUMP JUMPDEST PUSH1 0xE PUSH1 0x20 MSTORE DUP2 PUSH0 MSTORE PUSH1 0x40 PUSH0 KECCAK256 DUP2 DUP2 SLOAD DUP2 LT PUSH2 0x1410 JUMPI PUSH0 DUP1 REVERT JUMPDEST CALLER PUSH0 SWAP1 DUP2 MSTORE PUSH1 0x1A PUSH1 0x20 MSTORE PUSH1 0x40 SWAP1 KECCAK256 SLOAD PUSH1 0xFF AND PUSH2 0x7C32 JUMPI PUSH1 0x40 MLOAD PUSH3 0x461BCD PUSH1 0xE5 SHL DUP2 MSTORE PUSH1 0x4 ADD PUSH2 0x12AD SWAP1 PUSH2 0xC6D7 JUMP JUMPDEST PUSH0 JUMPDEST PUSH1 0x4 SLOAD DUP2 LT ISZERO PUSH2 0x7D19 JUMPI DUP2 PUSH1 0x3 PUSH0 PUSH1 0x4 DUP5 DUP2 SLOAD DUP2 LT PUSH2 0x7C55 JUMPI PUSH2 0x7C55 PUSH2 0xC255 JUMP JUMPDEST SWAP1 PUSH0 MSTORE PUSH1 0x20 PUSH0 KECCAK256 ADD SLOAD DUP2 MSTORE PUSH1 0x20 ADD SWAP1 DUP2 MSTORE PUSH1 0x20 ADD PUSH0 KECCAK256 PUSH1 0x1 ADD PUSH1 0x1 ADD SLOAD SUB PUSH2 0x7D11 JUMPI PUSH1 0x40 MLOAD PUSH3 0x461BCD PUSH1 0xE5 SHL DUP2 MSTORE PUSH1 0x20 PUSH1 0x4 DUP3 ADD MSTORE PUSH1 0x70 PUSH1 0x24 DUP3 ADD MSTORE PUSH0 DUP1 MLOAD PUSH1 0x20 PUSH2 0xCB4F DUP4 CODECOPY DUP2 MLOAD SWAP2 MSTORE PUSH1 0x44 DUP3 ADD MSTORE PUSH32 0x223A20342C20226D657373616765223A2243616E6E6F742064656C6574652063 PUSH1 0x64 DUP3 ADD MSTORE PUSH32 0x617465676F72793A2050726F6475637473207374696C6C20657869737420696E PUSH1 0x84 DUP3 ADD MSTORE PUSH16 0x20746869732063617465676F7279227D PUSH1 0x80 SHL PUSH1 0xA4 DUP3 ADD MSTORE PUSH1 0xC4 ADD PUSH2 0x12AD JUMP JUMPDEST PUSH1 0x1 ADD PUSH2 0x7C34 JUMP JUMPDEST POP PUSH0 DUP2 DUP2 MSTORE PUSH1 0xC PUSH1 0x20 MSTORE PUSH1 0x40 DUP2 KECCAK256 SLOAD SWAP1 SUB PUSH2 0x7D46 JUMPI PUSH1 0x40 MLOAD PUSH3 0x461BCD PUSH1 0xE5 SHL DUP2 MSTORE PUSH1 0x4 ADD PUSH2 0x12AD SWAP1 PUSH2 0xC9A2 JUMP JUMPDEST PUSH0 DUP1 JUMPDEST PUSH1 0xD SLOAD DUP2 LT ISZERO PUSH2 0x7D85 JUMPI PUSH1 0xD DUP2 DUP2 SLOAD DUP2 LT PUSH2 0x7D66 JUMPI PUSH2 0x7D66 PUSH2 0xC255 JUMP JUMPDEST SWAP1 PUSH0 MSTORE PUSH1 0x20 PUSH0 KECCAK256 ADD SLOAD DUP4 SUB PUSH2 0x7D7D JUMPI DUP1 SWAP2 POP PUSH2 0x7D85 JUMP JUMPDEST PUSH1 0x1 ADD PUSH2 0x7D49 JUMP JUMPDEST POP DUP1 JUMPDEST PUSH1 0xD SLOAD PUSH2 0x7D97 SWAP1 PUSH1 0x1 SWAP1 PUSH2 0xC30B JUMP JUMPDEST DUP2 LT ISZERO PUSH2 0x7DEA JUMPI PUSH1 0xD PUSH2 0x7DAB DUP3 PUSH1 0x1 PUSH2 0xC332 JUMP JUMPDEST DUP2 SLOAD DUP2 LT PUSH2 0x7DBB JUMPI PUSH2 0x7DBB PUSH2 0xC255 JUMP JUMPDEST SWAP1 PUSH0 MSTORE PUSH1 0x20 PUSH0 KECCAK256 ADD SLOAD PUSH1 0xD DUP3 DUP2 SLOAD DUP2 LT PUSH2 0x7DD7 JUMPI PUSH2 0x7DD7 PUSH2 0xC255 JUMP JUMPDEST PUSH0 SWAP2 DUP3 MSTORE PUSH1 0x20 SWAP1 SWAP2 KECCAK256 ADD SSTORE PUSH1 0x1 ADD PUSH2 0x7D88 JUMP JUMPDEST POP PUSH1 0xD DUP1 SLOAD DUP1 PUSH2 0x7DFC JUMPI PUSH2 0x7DFC PUSH2 0xC31E JUMP JUMPDEST PUSH0 DUP3 DUP2 MSTORE PUSH1 0x20 DUP1 DUP3 KECCAK256 DUP4 ADD PUSH0 NOT SWAP1 DUP2 ADD DUP4 SWAP1 SSTORE SWAP1 SWAP3 ADD SWAP1 SWAP3 SSTORE DUP4 DUP3 MSTORE PUSH1 0xC SWAP1 MSTORE PUSH1 0x40 DUP2 KECCAK256 DUP2 DUP2 SSTORE SWAP1 PUSH2 0x7E31 PUSH1 0x1 DUP4 ADD DUP3 PUSH2 0xA54A JUMP JUMPDEST PUSH2 0x7E3E PUSH1 0x2 DUP4 ADD PUSH0 PUSH2 0xA54A JUMP JUMPDEST POP POP PUSH1 0x40 MLOAD DUP3 DUP2 MSTORE PUSH32 0x2949E8B00C2A3A7093872078D10195C02C60D9C2AAF8DECC819315E8A48DE206 SWAP1 PUSH1 0x20 ADD PUSH1 0x40 MLOAD DUP1 SWAP2 SUB SWAP1 LOG1 POP POP JUMP JUMPDEST PUSH0 DUP2 PUSH1 0x1 DUP2 LT ISZERO DUP1 ISZERO PUSH2 0x7E8B JUMPI POP PUSH1 0x5 DUP2 GT ISZERO JUMPDEST PUSH2 0x7EA7 JUMPI PUSH1 0x40 MLOAD PUSH3 0x461BCD PUSH1 0xE5 SHL DUP2 MSTORE PUSH1 0x4 ADD PUSH2 0x12AD SWAP1 PUSH2 0xC5BE JUMP JUMPDEST PUSH0 DUP5 DUP2 MSTORE PUSH1 0x3 PUSH1 0x20 MSTORE PUSH1 0x40 SWAP1 KECCAK256 SLOAD PUSH2 0x7ED1 JUMPI PUSH1 0x40 MLOAD PUSH3 0x461BCD PUSH1 0xE5 SHL DUP2 MSTORE PUSH1 0x4 ADD PUSH2 0x12AD SWAP1 PUSH2 0xC7D7 JUMP JUMPDEST CALLER PUSH0 SWAP1 DUP2 MSTORE PUSH1 0x11 PUSH1 0x20 SWAP1 DUP2 MSTORE PUSH1 0x40 DUP1 DUP4 KECCAK256 DUP8 DUP5 MSTORE SWAP1 SWAP2 MSTORE SWAP1 KECCAK256 SLOAD PUSH1 0xFF AND ISZERO PUSH2 0x7F61 JUMPI PUSH1 0x40 MLOAD PUSH3 0x461BCD PUSH1 0xE5 SHL DUP2 MSTORE PUSH1 0x20 PUSH1 0x4 DUP3 ADD MSTORE PUSH1 0x4A PUSH1 0x24 DUP3 ADD MSTORE PUSH0 DUP1 MLOAD PUSH1 0x20 PUSH2 0xCB4F DUP4 CODECOPY DUP2 MLOAD SWAP2 MSTORE PUSH1 0x44 DUP3 ADD MSTORE PUSH32 0x223A2032372C20226D657373616765223A202250726F6475637420616C726561 PUSH1 0x64 DUP3 ADD MSTORE PUSH10 0x6479207261746564227D PUSH1 0xB0 SHL PUSH1 0x84 DUP3 ADD MSTORE PUSH1 0xA4 ADD PUSH2 0x12AD JUMP JUMPDEST PUSH1 0x1F DUP1 SLOAD SWAP1 PUSH0 PUSH2 0x7F70 DUP4 PUSH2 0xC3F7 JUMP JUMPDEST SWAP1 SWAP2 SSTORE POP POP PUSH1 0x40 DUP1 MLOAD PUSH1 0x80 DUP2 ADD DUP3 MSTORE PUSH1 0x1F DUP1 SLOAD DUP1 DUP4 MSTORE CALLER PUSH1 0x20 DUP1 DUP6 ADD DUP3 DUP2 MSTORE DUP6 DUP8 ADD DUP11 DUP2 MSTORE TIMESTAMP PUSH1 0x60 DUP9 ADD SWAP1 DUP2 MSTORE PUSH0 SWAP6 DUP7 MSTORE PUSH1 0xF DUP5 MSTORE DUP9 DUP7 KECCAK256 SWAP8 MLOAD DUP9 SSTORE SWAP2 MLOAD PUSH1 0x1 DUP1 DUP10 ADD DUP1 SLOAD PUSH1 0x1 PUSH1 0x1 PUSH1 0xA0 SHL SUB NOT AND PUSH1 0x1 PUSH1 0x1 PUSH1 0xA0 SHL SUB SWAP1 SWAP4 AND SWAP3 SWAP1 SWAP3 OR SWAP1 SWAP2 SSTORE SWAP1 MLOAD PUSH1 0x2 DUP9 ADD SSTORE SWAP1 MLOAD PUSH1 0x3 SWAP1 SWAP7 ADD SWAP6 SWAP1 SWAP6 SSTORE DUP10 DUP4 MSTORE PUSH1 0x10 DUP2 MSTORE DUP6 DUP4 KECCAK256 SWAP4 SLOAD DUP5 SLOAD DUP1 DUP8 ADD DUP7 SSTORE SWAP5 DUP5 MSTORE DUP2 DUP5 KECCAK256 SWAP1 SWAP5 ADD SWAP4 SWAP1 SWAP4 SSTORE DUP2 MSTORE PUSH1 0x11 DUP3 MSTORE DUP4 DUP2 KECCAK256 SWAP8 DUP2 MSTORE SWAP7 SWAP1 MSTORE SWAP5 KECCAK256 DUP1 SLOAD PUSH1 0xFF NOT AND DUP6 OR DUP2 SSTORE DUP5 ADD SWAP3 SWAP1 SWAP3 SSTORE POP SWAP1 SWAP2 SWAP1 POP JUMP JUMPDEST PUSH1 0x13 PUSH1 0x20 MSTORE PUSH0 SWAP1 DUP2 MSTORE PUSH1 0x40 SWAP1 KECCAK256 DUP1 SLOAD PUSH1 0x1 DUP3 ADD SLOAD PUSH1 0x2 DUP4 ADD DUP1 SLOAD SWAP3 SWAP4 PUSH1 0x1 PUSH1 0x1 PUSH1 0xA0 SHL SUB SWAP1 SWAP3 AND SWAP3 PUSH2 0x805C SWAP1 PUSH2 0xC269 JUMP JUMPDEST DUP1 PUSH1 0x1F ADD PUSH1 0x20 DUP1 SWAP2 DIV MUL PUSH1 0x20 ADD PUSH1 0x40 MLOAD SWAP1 DUP2 ADD PUSH1 0x40 MSTORE DUP1 SWAP3 SWAP2 SWAP1 DUP2 DUP2 MSTORE PUSH1 0x20 ADD DUP3 DUP1 SLOAD PUSH2 0x8088 SWAP1 PUSH2 0xC269 JUMP JUMPDEST DUP1 ISZERO PUSH2 0x80D3 JUMPI DUP1 PUSH1 0x1F LT PUSH2 0x80AA JUMPI PUSH2 0x100 DUP1 DUP4 SLOAD DIV MUL DUP4 MSTORE SWAP2 PUSH1 0x20 ADD SWAP2 PUSH2 0x80D3 JUMP JUMPDEST DUP3 ADD SWAP2 SWAP1 PUSH0 MSTORE PUSH1 0x20 PUSH0 KECCAK256 SWAP1 JUMPDEST DUP2 SLOAD DUP2 MSTORE SWAP1 PUSH1 0x1 ADD SWAP1 PUSH1 0x20 ADD DUP1 DUP4 GT PUSH2 0x80B6 JUMPI DUP3 SWAP1 SUB PUSH1 0x1F AND DUP3 ADD SWAP2 JUMPDEST POP POP POP POP POP SWAP1 DUP1 PUSH1 0x3 ADD DUP1 SLOAD PUSH2 0x80E8 SWAP1 PUSH2 0xC269 JUMP JUMPDEST DUP1 PUSH1 0x1F ADD PUSH1 0x20 DUP1 SWAP2 DIV MUL PUSH1 0x20 ADD PUSH1 0x40 MLOAD SWAP1 DUP2 ADD PUSH1 0x40 MSTORE DUP1 SWAP3 SWAP2 SWAP1 DUP2 DUP2 MSTORE PUSH1 0x20 ADD DUP3 DUP1 SLOAD PUSH2 0x8114 SWAP1 PUSH2 0xC269 JUMP JUMPDEST DUP1 ISZERO PUSH2 0x815F JUMPI DUP1 PUSH1 0x1F LT PUSH2 0x8136 JUMPI PUSH2 0x100 DUP1 DUP4 SLOAD DIV MUL DUP4 MSTORE SWAP2 PUSH1 0x20 ADD SWAP2 PUSH2 0x815F JUMP JUMPDEST DUP3 ADD SWAP2 SWAP1 PUSH0 MSTORE PUSH1 0x20 PUSH0 KECCAK256 SWAP1 JUMPDEST DUP2 SLOAD DUP2 MSTORE SWAP1 PUSH1 0x1 ADD SWAP1 PUSH1 0x20 ADD DUP1 DUP4 GT PUSH2 0x8142 JUMPI DUP3 SWAP1 SUB PUSH1 0x1F AND DUP3 ADD SWAP2 JUMPDEST POP POP POP POP PUSH1 0x4 DUP4 ADD SLOAD PUSH1 0x5 DUP5 ADD SLOAD PUSH1 0x6 DUP6 ADD SLOAD PUSH1 0x7 SWAP1 SWAP6 ADD SLOAD SWAP4 SWAP5 PUSH1 0xFF SWAP1 SWAP3 AND SWAP4 SWAP1 SWAP3 POP DUP9 JUMP JUMPDEST PUSH0 PUSH2 0x8190 DUP3 PUSH2 0x6CDD JUMP JUMPDEST CALLER PUSH0 SWAP1 DUP2 MSTORE PUSH1 0x18 PUSH1 0x20 SWAP1 DUP2 MSTORE PUSH1 0x40 DUP1 DUP4 KECCAK256 DUP7 DUP5 MSTORE SWAP1 SWAP2 MSTORE SWAP1 KECCAK256 SLOAD SWAP1 SWAP2 POP PUSH1 0xFF AND ISZERO PUSH2 0x822F JUMPI PUSH1 0x40 MLOAD PUSH3 0x461BCD PUSH1 0xE5 SHL DUP2 MSTORE PUSH1 0x20 PUSH1 0x4 DUP3 ADD MSTORE PUSH1 0x56 PUSH1 0x24 DUP3 ADD MSTORE PUSH0 DUP1 MLOAD PUSH1 0x20 PUSH2 0xCB4F DUP4 CODECOPY DUP2 MLOAD SWAP2 MSTORE PUSH1 0x44 DUP3 ADD MSTORE PUSH32 0x223A2032302C20226D657373616765223A227573657220616C72656164792066 PUSH1 0x64 DUP3 ADD MSTORE PUSH22 0x61766F7269746520746869732070726F64756374227D PUSH1 0x50 SHL PUSH1 0x84 DUP3 ADD MSTORE PUSH1 0xA4 ADD PUSH2 0x12AD JUMP JUMPDEST CALLER PUSH0 DUP2 DUP2 MSTORE PUSH1 0x18 PUSH1 0x20 SWAP1 DUP2 MSTORE PUSH1 0x40 DUP1 DUP4 KECCAK256 DUP7 DUP5 MSTORE DUP3 MSTORE DUP1 DUP4 KECCAK256 DUP1 SLOAD PUSH1 0xFF NOT AND PUSH1 0x1 SWAP1 DUP2 OR SWAP1 SWAP2 SSTORE DUP5 DUP5 MSTORE PUSH1 0x19 DUP4 MSTORE DUP2 DUP5 KECCAK256 DUP3 MLOAD DUP1 DUP5 ADD DUP5 MSTORE DUP9 DUP2 MSTORE TIMESTAMP DUP2 DUP7 ADD SWAP1 DUP2 MSTORE DUP3 SLOAD DUP1 DUP6 ADD DUP5 SSTORE SWAP3 DUP8 MSTORE SWAP5 DUP7 KECCAK256 SWAP1 MLOAD PUSH1 0x2 SWAP1 SWAP3 MUL ADD SWAP1 DUP2 SSTORE SWAP3 MLOAD SWAP3 DUP2 ADD SWAP3 SWAP1 SWAP3 SSTORE PUSH1 0x24 SLOAD SWAP1 MLOAD PUSH4 0x22A8E4EB PUSH1 0xE2 SHL DUP2 MSTORE PUSH1 0x1 PUSH1 0x1 PUSH1 0xA0 SHL SUB SWAP2 SWAP1 SWAP2 AND SWAP4 PUSH4 0x8AA393AC SWAP4 PUSH2 0x82CA SWAP4 SWAP2 SWAP3 DUP9 SWAP3 SWAP2 SWAP1 DUP3 SWAP1 DUP2 SWAP1 PUSH1 0x4 ADD PUSH2 0xC9FA JUMP JUMPDEST PUSH0 PUSH1 0x40 MLOAD DUP1 DUP4 SUB DUP2 PUSH0 DUP8 DUP1 EXTCODESIZE ISZERO DUP1 ISZERO PUSH2 0x82E1 JUMPI PUSH0 DUP1 REVERT JUMPDEST POP GAS CALL ISZERO DUP1 ISZERO PUSH2 0x82F3 JUMPI RETURNDATASIZE PUSH0 DUP1 RETURNDATACOPY RETURNDATASIZE PUSH0 REVERT JUMPDEST POP POP PUSH1 0x24 SLOAD PUSH1 0x20 DUP5 ADD MLOAD PUSH2 0x180 ADD MLOAD PUSH1 0x40 MLOAD PUSH4 0x22A8E4EB PUSH1 0xE2 SHL DUP2 MSTORE PUSH1 0x1 PUSH1 0x1 PUSH1 0xA0 SHL SUB SWAP1 SWAP3 AND SWAP4 POP PUSH4 0x8AA393AC SWAP3 POP PUSH2 0x833B SWAP2 CALLER SWAP2 DUP8 SWAP2 PUSH1 0x1 SWAP2 SWAP1 DUP3 SWAP1 PUSH0 SWAP1 PUSH1 0x4 ADD PUSH2 0xC9FA JUMP JUMPDEST PUSH0 PUSH1 0x40 MLOAD DUP1 DUP4 SUB DUP2 PUSH0 DUP8 DUP1 EXTCODESIZE ISZERO DUP1 ISZERO PUSH2 0x8352 JUMPI PUSH0 DUP1 REVERT JUMPDEST POP GAS CALL ISZERO DUP1 ISZERO PUSH2 0x8364 JUMPI RETURNDATASIZE PUSH0 DUP1 RETURNDATACOPY RETURNDATASIZE PUSH0 REVERT JUMPDEST POP POP PUSH1 0x24 DUP1 SLOAD PUSH1 0x20 DUP6 ADD MLOAD PUSH2 0x180 ADD MLOAD PUSH1 0x40 MLOAD PUSH4 0xEDA162E7 PUSH1 0xE0 SHL DUP2 MSTORE PUSH1 0x1 PUSH1 0x1 PUSH1 0xA0 SHL SUB SWAP2 DUP3 AND PUSH1 0x4 DUP3 ADD MSTORE SWAP2 AND SWAP4 POP PUSH4 0xEDA162E7 SWAP3 POP ADD PUSH0 PUSH1 0x40 MLOAD DUP1 DUP4 SUB DUP2 PUSH0 DUP8 DUP1 EXTCODESIZE ISZERO DUP1 ISZERO PUSH2 0x83B4 JUMPI PUSH0 DUP1 REVERT JUMPDEST POP GAS CALL ISZERO DUP1 ISZERO PUSH2 0x83C6 JUMPI RETURNDATASIZE PUSH0 DUP1 RETURNDATACOPY RETURNDATASIZE PUSH0 REVERT JUMPDEST POP POP POP POP POP POP JUMP JUMPDEST PUSH1 0x60 PUSH0 DUP1 JUMPDEST PUSH1 0x4 SLOAD DUP2 LT ISZERO PUSH2 0x842F JUMPI PUSH1 0x3 PUSH0 PUSH1 0x4 DUP4 DUP2 SLOAD DUP2 LT PUSH2 0x83F3 JUMPI PUSH2 0x83F3 PUSH2 0xC255 JUMP JUMPDEST PUSH0 SWAP2 DUP3 MSTORE PUSH1 0x20 DUP1 DUP4 KECCAK256 SWAP1 SWAP2 ADD SLOAD DUP4 MSTORE DUP3 ADD SWAP3 SWAP1 SWAP3 MSTORE PUSH1 0x40 ADD SWAP1 KECCAK256 PUSH1 0x10 ADD SLOAD PUSH1 0xFF AND ISZERO PUSH2 0x8427 JUMPI DUP2 PUSH2 0x8423 DUP2 PUSH2 0xC3F7 JUMP JUMPDEST SWAP3 POP POP JUMPDEST PUSH1 0x1 ADD PUSH2 0x83D3 JUMP JUMPDEST POP PUSH0 DUP2 PUSH1 0x1 PUSH1 0x1 PUSH1 0x40 SHL SUB DUP2 GT ISZERO PUSH2 0x8449 JUMPI PUSH2 0x8449 PUSH2 0xA98B JUMP JUMPDEST PUSH1 0x40 MLOAD SWAP1 DUP1 DUP3 MSTORE DUP1 PUSH1 0x20 MUL PUSH1 0x20 ADD DUP3 ADD PUSH1 0x40 MSTORE DUP1 ISZERO PUSH2 0x8482 JUMPI DUP2 PUSH1 0x20 ADD JUMPDEST PUSH2 0x846F PUSH2 0xA640 JUMP JUMPDEST DUP2 MSTORE PUSH1 0x20 ADD SWAP1 PUSH1 0x1 SWAP1 SUB SWAP1 DUP2 PUSH2 0x8467 JUMPI SWAP1 POP JUMPDEST POP SWAP1 POP PUSH0 DUP1 JUMPDEST PUSH1 0x4 SLOAD DUP2 LT ISZERO PUSH2 0x8BCB JUMPI PUSH1 0x3 PUSH0 PUSH1 0x4 DUP4 DUP2 SLOAD DUP2 LT PUSH2 0x84A8 JUMPI PUSH2 0x84A8 PUSH2 0xC255 JUMP JUMPDEST PUSH0 SWAP2 DUP3 MSTORE PUSH1 0x20 DUP1 DUP4 KECCAK256 SWAP1 SWAP2 ADD SLOAD DUP4 MSTORE DUP3 ADD SWAP3 SWAP1 SWAP3 MSTORE PUSH1 0x40 ADD SWAP1 KECCAK256 PUSH1 0x10 ADD SLOAD PUSH1 0xFF AND ISZERO PUSH2 0x8BC3 JUMPI PUSH1 0x3 PUSH0 PUSH1 0x4 DUP4 DUP2 SLOAD DUP2 LT PUSH2 0x84E4 JUMPI PUSH2 0x84E4 PUSH2 0xC255 JUMP JUMPDEST SWAP1 PUSH0 MSTORE PUSH1 0x20 PUSH0 KECCAK256 ADD SLOAD DUP2 MSTORE PUSH1 0x20 ADD SWAP1 DUP2 MSTORE PUSH1 0x20 ADD PUSH0 KECCAK256 PUSH1 0x40 MLOAD DUP1 PUSH1 0x80 ADD PUSH1 0x40 MSTORE SWAP1 DUP2 PUSH0 DUP3 ADD SLOAD DUP2 MSTORE PUSH1 0x20 ADD PUSH1 0x1 DUP3 ADD PUSH1 0x40 MLOAD DUP1 PUSH2 0x300 ADD PUSH1 0x40 MSTORE SWAP1 DUP2 PUSH0 DUP3 ADD DUP1 SLOAD PUSH2 0x852E SWAP1 PUSH2 0xC269 JUMP JUMPDEST DUP1 PUSH1 0x1F ADD PUSH1 0x20 DUP1 SWAP2 DIV MUL PUSH1 0x20 ADD PUSH1 0x40 MLOAD SWAP1 DUP2 ADD PUSH1 0x40 MSTORE DUP1 SWAP3 SWAP2 SWAP1 DUP2 DUP2 MSTORE PUSH1 0x20 ADD DUP3 DUP1 SLOAD PUSH2 0x855A SWAP1 PUSH2 0xC269 JUMP JUMPDEST DUP1 ISZERO PUSH2 0x85A5 JUMPI DUP1 PUSH1 0x1F LT PUSH2 0x857C JUMPI PUSH2 0x100 DUP1 DUP4 SLOAD DIV MUL DUP4 MSTORE SWAP2 PUSH1 0x20 ADD SWAP2 PUSH2 0x85A5 JUMP JUMPDEST DUP3 ADD SWAP2 SWAP1 PUSH0 MSTORE PUSH1 0x20 PUSH0 KECCAK256 SWAP1 JUMPDEST DUP2 SLOAD DUP2 MSTORE SWAP1 PUSH1 0x1 ADD SWAP1 PUSH1 0x20 ADD DUP1 DUP4 GT PUSH2 0x8588 JUMPI DUP3 SWAP1 SUB PUSH1 0x1F AND DUP3 ADD SWAP2 JUMPDEST POP POP POP POP POP DUP2 MSTORE PUSH1 0x20 ADD PUSH1 0x1 DUP3 ADD SLOAD DUP2 MSTORE PUSH1 0x20 ADD PUSH1 0x2 DUP3 ADD DUP1 SLOAD PUSH2 0x85C8 SWAP1 PUSH2 0xC269 JUMP JUMPDEST DUP1 PUSH1 0x1F ADD PUSH1 0x20 DUP1 SWAP2 DIV MUL PUSH1 0x20 ADD PUSH1 0x40 MLOAD SWAP1 DUP2 ADD PUSH1 0x40 MSTORE DUP1 SWAP3 SWAP2 SWAP1 DUP2 DUP2 MSTORE PUSH1 0x20 ADD DUP3 DUP1 SLOAD PUSH2 0x85F4 SWAP1 PUSH2 0xC269 JUMP JUMPDEST DUP1 ISZERO PUSH2 0x863F JUMPI DUP1 PUSH1 0x1F LT PUSH2 0x8616 JUMPI PUSH2 0x100 DUP1 DUP4 SLOAD DIV MUL DUP4 MSTORE SWAP2 PUSH1 0x20 ADD SWAP2 PUSH2 0x863F JUMP JUMPDEST DUP3 ADD SWAP2 SWAP1 PUSH0 MSTORE PUSH1 0x20 PUSH0 KECCAK256 SWAP1 JUMPDEST DUP2 SLOAD DUP2 MSTORE SWAP1 PUSH1 0x1 ADD SWAP1 PUSH1 0x20 ADD DUP1 DUP4 GT PUSH2 0x8622 JUMPI DUP3 SWAP1 SUB PUSH1 0x1F AND DUP3 ADD SWAP2 JUMPDEST POP POP POP POP POP DUP2 MSTORE PUSH1 0x20 ADD PUSH1 0x3 DUP3 ADD SLOAD DUP2 MSTORE PUSH1 0x20 ADD PUSH1 0x4 DUP3 ADD SLOAD DUP2 MSTORE PUSH1 0x20 ADD PUSH1 0x5 DUP3 ADD SLOAD DUP2 MSTORE PUSH1 0x20 ADD PUSH1 0x6 DUP3 ADD SLOAD DUP2 MSTORE PUSH1 0x20 ADD PUSH1 0x7 DUP3 ADD DUP1 SLOAD DUP1 PUSH1 0x20 MUL PUSH1 0x20 ADD PUSH1 0x40 MLOAD SWAP1 DUP2 ADD PUSH1 0x40 MSTORE DUP1 SWAP3 SWAP2 SWAP1 DUP2 DUP2 MSTORE PUSH1 0x20 ADD DUP3 DUP1 SLOAD DUP1 ISZERO PUSH2 0x86BD JUMPI PUSH1 0x20 MUL DUP3 ADD SWAP2 SWAP1 PUSH0 MSTORE PUSH1 0x20 PUSH0 KECCAK256 SWAP1 JUMPDEST DUP2 SLOAD DUP2 MSTORE PUSH1 0x20 ADD SWAP1 PUSH1 0x1 ADD SWAP1 DUP1 DUP4 GT PUSH2 0x86A9 JUMPI JUMPDEST POP POP POP POP POP DUP2 MSTORE PUSH1 0x20 ADD PUSH1 0x8 DUP3 ADD DUP1 SLOAD DUP1 PUSH1 0x20 MUL PUSH1 0x20 ADD PUSH1 0x40 MLOAD SWAP1 DUP2 ADD PUSH1 0x40 MSTORE DUP1 SWAP3 SWAP2 SWAP1 DUP2 DUP2 MSTORE PUSH1 0x20 ADD PUSH0 SWAP1 JUMPDEST DUP3 DUP3 LT ISZERO PUSH2 0x8792 JUMPI DUP4 DUP3 SWAP1 PUSH0 MSTORE PUSH1 0x20 PUSH0 KECCAK256 ADD DUP1 SLOAD PUSH2 0x8707 SWAP1 PUSH2 0xC269 JUMP JUMPDEST DUP1 PUSH1 0x1F ADD PUSH1 0x20 DUP1 SWAP2 DIV MUL PUSH1 0x20 ADD PUSH1 0x40 MLOAD SWAP1 DUP2 ADD PUSH1 0x40 MSTORE DUP1 SWAP3 SWAP2 SWAP1 DUP2 DUP2 MSTORE PUSH1 0x20 ADD DUP3 DUP1 SLOAD PUSH2 0x8733 SWAP1 PUSH2 0xC269 JUMP JUMPDEST DUP1 ISZERO PUSH2 0x877E JUMPI DUP1 PUSH1 0x1F LT PUSH2 0x8755 JUMPI PUSH2 0x100 DUP1 DUP4 SLOAD DIV MUL DUP4 MSTORE SWAP2 PUSH1 0x20 ADD SWAP2 PUSH2 0x877E JUMP JUMPDEST DUP3 ADD SWAP2 SWAP1 PUSH0 MSTORE PUSH1 0x20 PUSH0 KECCAK256 SWAP1 JUMPDEST DUP2 SLOAD DUP2 MSTORE SWAP1 PUSH1 0x1 ADD SWAP1 PUSH1 0x20 ADD DUP1 DUP4 GT PUSH2 0x8761 JUMPI DUP3 SWAP1 SUB PUSH1 0x1F AND DUP3 ADD SWAP2 JUMPDEST POP POP POP POP POP DUP2 MSTORE PUSH1 0x20 ADD SWAP1 PUSH1 0x1 ADD SWAP1 PUSH2 0x86EA JUMP JUMPDEST POP POP POP POP DUP2 MSTORE PUSH1 0x20 ADD PUSH1 0x9 DUP3 ADD SLOAD DUP2 MSTORE PUSH1 0x20 ADD PUSH1 0xA DUP3 ADD SLOAD DUP2 MSTORE PUSH1 0x20 ADD PUSH1 0xB DUP3 ADD DUP1 SLOAD DUP1 PUSH1 0x20 MUL PUSH1 0x20 ADD PUSH1 0x40 MLOAD SWAP1 DUP2 ADD PUSH1 0x40 MSTORE DUP1 SWAP3 SWAP2 SWAP1 DUP2 DUP2 MSTORE PUSH1 0x20 ADD PUSH0 SWAP1 JUMPDEST DUP3 DUP3 LT ISZERO PUSH2 0x887A JUMPI DUP4 DUP3 SWAP1 PUSH0 MSTORE PUSH1 0x20 PUSH0 KECCAK256 ADD DUP1 SLOAD PUSH2 0x87EF SWAP1 PUSH2 0xC269 JUMP JUMPDEST DUP1 PUSH1 0x1F ADD PUSH1 0x20 DUP1 SWAP2 DIV MUL PUSH1 0x20 ADD PUSH1 0x40 MLOAD SWAP1 DUP2 ADD PUSH1 0x40 MSTORE DUP1 SWAP3 SWAP2 SWAP1 DUP2 DUP2 MSTORE PUSH1 0x20 ADD DUP3 DUP1 SLOAD PUSH2 0x881B SWAP1 PUSH2 0xC269 JUMP JUMPDEST DUP1 ISZERO PUSH2 0x8866 JUMPI DUP1 PUSH1 0x1F LT PUSH2 0x883D JUMPI PUSH2 0x100 DUP1 DUP4 SLOAD DIV MUL DUP4 MSTORE SWAP2 PUSH1 0x20 ADD SWAP2 PUSH2 0x8866 JUMP JUMPDEST DUP3 ADD SWAP2 SWAP1 PUSH0 MSTORE PUSH1 0x20 PUSH0 KECCAK256 SWAP1 JUMPDEST DUP2 SLOAD DUP2 MSTORE SWAP1 PUSH1 0x1 ADD SWAP1 PUSH1 0x20 ADD DUP1 DUP4 GT PUSH2 0x8849 JUMPI DUP3 SWAP1 SUB PUSH1 0x1F AND DUP3 ADD SWAP2 JUMPDEST POP POP POP POP POP DUP2 MSTORE PUSH1 0x20 ADD SWAP1 PUSH1 0x1 ADD SWAP1 PUSH2 0x87D2 JUMP JUMPDEST POP POP POP SWAP1 DUP3 MSTORE POP PUSH1 0xC DUP3 ADD SLOAD PUSH1 0x1 PUSH1 0x1 PUSH1 0xA0 SHL SUB AND PUSH1 0x20 DUP3 ADD MSTORE PUSH1 0xD DUP3 ADD DUP1 SLOAD PUSH1 0x40 SWAP1 SWAP3 ADD SWAP2 PUSH2 0x88A9 SWAP1 PUSH2 0xC269 JUMP JUMPDEST DUP1 PUSH1 0x1F ADD PUSH1 0x20 DUP1 SWAP2 DIV MUL PUSH1 0x20 ADD PUSH1 0x40 MLOAD SWAP1 DUP2 ADD PUSH1 0x40 MSTORE DUP1 SWAP3 SWAP2 SWAP1 DUP2 DUP2 MSTORE PUSH1 0x20 ADD DUP3 DUP1 SLOAD PUSH2 0x88D5 SWAP1 PUSH2 0xC269 JUMP JUMPDEST DUP1 ISZERO PUSH2 0x8920 JUMPI DUP1 PUSH1 0x1F LT PUSH2 0x88F7 JUMPI PUSH2 0x100 DUP1 DUP4 SLOAD DIV MUL DUP4 MSTORE SWAP2 PUSH1 0x20 ADD SWAP2 PUSH2 0x8920 JUMP JUMPDEST DUP3 ADD SWAP2 SWAP1 PUSH0 MSTORE PUSH1 0x20 PUSH0 KECCAK256 SWAP1 JUMPDEST DUP2 SLOAD DUP2 MSTORE SWAP1 PUSH1 0x1 ADD SWAP1 PUSH1 0x20 ADD DUP1 DUP4 GT PUSH2 0x8903 JUMPI DUP3 SWAP1 SUB PUSH1 0x1F AND DUP3 ADD SWAP2 JUMPDEST POP POP POP POP POP DUP2 MSTORE PUSH1 0x20 ADD PUSH1 0xE DUP3 ADD DUP1 SLOAD PUSH2 0x8939 SWAP1 PUSH2 0xC269 JUMP JUMPDEST DUP1 PUSH1 0x1F ADD PUSH1 0x20 DUP1 SWAP2 DIV MUL PUSH1 0x20 ADD PUSH1 0x40 MLOAD SWAP1 DUP2 ADD PUSH1 0x40 MSTORE DUP1 SWAP3 SWAP2 SWAP1 DUP2 DUP2 MSTORE PUSH1 0x20 ADD DUP3 DUP1 SLOAD PUSH2 0x8965 SWAP1 PUSH2 0xC269 JUMP JUMPDEST DUP1 ISZERO PUSH2 0x89B0 JUMPI DUP1 PUSH1 0x1F LT PUSH2 0x8987 JUMPI PUSH2 0x100 DUP1 DUP4 SLOAD DIV MUL DUP4 MSTORE SWAP2 PUSH1 0x20 ADD SWAP2 PUSH2 0x89B0 JUMP JUMPDEST DUP3 ADD SWAP2 SWAP1 PUSH0 MSTORE PUSH1 0x20 PUSH0 KECCAK256 SWAP1 JUMPDEST DUP2 SLOAD DUP2 MSTORE SWAP1 PUSH1 0x1 ADD SWAP1 PUSH1 0x20 ADD DUP1 DUP4 GT PUSH2 0x8993 JUMPI DUP3 SWAP1 SUB PUSH1 0x1F AND DUP3 ADD SWAP2 JUMPDEST POP POP POP SWAP2 DUP4 MSTORE POP POP PUSH1 0xF DUP3 ADD SLOAD PUSH1 0xFF AND ISZERO ISZERO PUSH1 0x20 DUP1 DUP4 ADD SWAP2 SWAP1 SWAP2 MSTORE PUSH1 0x10 DUP4 ADD DUP1 SLOAD PUSH1 0x40 DUP1 MLOAD DUP3 DUP6 MUL DUP2 ADD DUP6 ADD DUP3 MSTORE DUP3 DUP2 MSTORE SWAP5 ADD SWAP4 SWAP3 PUSH0 SWAP1 DUP5 ADD JUMPDEST DUP3 DUP3 LT ISZERO PUSH2 0x8A92 JUMPI DUP4 DUP3 SWAP1 PUSH0 MSTORE PUSH1 0x20 PUSH0 KECCAK256 ADD DUP1 SLOAD PUSH2 0x8A07 SWAP1 PUSH2 0xC269 JUMP JUMPDEST DUP1 PUSH1 0x1F ADD PUSH1 0x20 DUP1 SWAP2 DIV MUL PUSH1 0x20 ADD PUSH1 0x40 MLOAD SWAP1 DUP2 ADD PUSH1 0x40 MSTORE DUP1 SWAP3 SWAP2 SWAP1 DUP2 DUP2 MSTORE PUSH1 0x20 ADD DUP3 DUP1 SLOAD PUSH2 0x8A33 SWAP1 PUSH2 0xC269 JUMP JUMPDEST DUP1 ISZERO PUSH2 0x8A7E JUMPI DUP1 PUSH1 0x1F LT PUSH2 0x8A55 JUMPI PUSH2 0x100 DUP1 DUP4 SLOAD DIV MUL DUP4 MSTORE SWAP2 PUSH1 0x20 ADD SWAP2 PUSH2 0x8A7E JUMP JUMPDEST DUP3 ADD SWAP2 SWAP1 PUSH0 MSTORE PUSH1 0x20 PUSH0 KECCAK256 SWAP1 JUMPDEST DUP2 SLOAD DUP2 MSTORE SWAP1 PUSH1 0x1 ADD SWAP1 PUSH1 0x20 ADD DUP1 DUP4 GT PUSH2 0x8A61 JUMPI DUP3 SWAP1 SUB PUSH1 0x1F AND DUP3 ADD SWAP2 JUMPDEST POP POP POP POP POP DUP2 MSTORE PUSH1 0x20 ADD SWAP1 PUSH1 0x1 ADD SWAP1 PUSH2 0x89EA JUMP JUMPDEST POP POP POP POP DUP2 MSTORE PUSH1 0x20 ADD PUSH1 0x11 DUP3 ADD DUP1 SLOAD PUSH2 0x8AAA SWAP1 PUSH2 0xC269 JUMP JUMPDEST DUP1 PUSH1 0x1F ADD PUSH1 0x20 DUP1 SWAP2 DIV MUL PUSH1 0x20 ADD PUSH1 0x40 MLOAD SWAP1 DUP2 ADD PUSH1 0x40 MSTORE DUP1 SWAP3 SWAP2 SWAP1 DUP2 DUP2 MSTORE PUSH1 0x20 ADD DUP3 DUP1 SLOAD PUSH2 0x8AD6 SWAP1 PUSH2 0xC269 JUMP JUMPDEST DUP1 ISZERO PUSH2 0x8B21 JUMPI DUP1 PUSH1 0x1F LT PUSH2 0x8AF8 JUMPI PUSH2 0x100 DUP1 DUP4 SLOAD DIV MUL DUP4 MSTORE SWAP2 PUSH1 0x20 ADD SWAP2 PUSH2 0x8B21 JUMP JUMPDEST DUP3 ADD SWAP2 SWAP1 PUSH0 MSTORE PUSH1 0x20 PUSH0 KECCAK256 SWAP1 JUMPDEST DUP2 SLOAD DUP2 MSTORE SWAP1 PUSH1 0x1 ADD SWAP1 PUSH1 0x20 ADD DUP1 DUP4 GT PUSH2 0x8B04 JUMPI DUP3 SWAP1 SUB PUSH1 0x1F AND DUP3 ADD SWAP2 JUMPDEST POP POP POP SWAP2 DUP4 MSTORE POP POP PUSH1 0x12 DUP3 ADD SLOAD PUSH1 0x20 DUP1 DUP4 ADD SWAP2 SWAP1 SWAP2 MSTORE PUSH1 0x13 DUP4 ADD SLOAD PUSH1 0x40 DUP1 DUP5 ADD SWAP2 SWAP1 SWAP2 MSTORE PUSH1 0x14 DUP5 ADD SLOAD PUSH1 0x60 DUP5 ADD MSTORE PUSH1 0x15 DUP5 ADD SLOAD PUSH1 0xFF DUP1 DUP3 AND ISZERO ISZERO PUSH1 0x80 DUP7 ADD MSTORE PUSH2 0x100 SWAP1 SWAP2 DIV AND ISZERO ISZERO PUSH1 0xA0 DUP5 ADD MSTORE PUSH1 0x16 SWAP1 SWAP4 ADD SLOAD PUSH1 0xC0 SWAP1 SWAP3 ADD SWAP2 SWAP1 SWAP2 MSTORE SWAP2 DUP4 MSTORE PUSH1 0x18 DUP5 ADD SLOAD SWAP2 DUP4 ADD SWAP2 SWAP1 SWAP2 MSTORE PUSH1 0x19 SWAP1 SWAP3 ADD SLOAD SWAP2 ADD MSTORE DUP4 MLOAD DUP5 SWAP1 DUP5 SWAP1 DUP2 LT PUSH2 0x8BA9 JUMPI PUSH2 0x8BA9 PUSH2 0xC255 JUMP JUMPDEST PUSH1 0x20 MUL PUSH1 0x20 ADD ADD DUP2 SWAP1 MSTORE POP DUP2 DUP1 PUSH2 0x8BBF SWAP1 PUSH2 0xC3F7 JUMP JUMPDEST SWAP3 POP POP JUMPDEST PUSH1 0x1 ADD PUSH2 0x8488 JUMP JUMPDEST POP SWAP1 SWAP4 SWAP3 POP POP POP JUMP JUMPDEST CALLER PUSH0 SWAP1 DUP2 MSTORE PUSH1 0x1 PUSH1 0x20 MSTORE PUSH1 0x40 DUP2 KECCAK256 SLOAD PUSH1 0xFF AND DUP1 PUSH2 0x8C56 JUMPI POP PUSH1 0x22 SLOAD PUSH1 0x40 MLOAD PUSH4 0x59D32027 PUSH1 0xE1 SHL DUP2 MSTORE CALLER PUSH1 0x4 DUP3 ADD MSTORE PUSH1 0x1 PUSH1 0x1 PUSH1 0xA0 SHL SUB SWAP1 SWAP2 AND SWAP1 PUSH4 0xB3A6404E SWAP1 PUSH1 0x24 ADD PUSH1 0x20 PUSH1 0x40 MLOAD DUP1 DUP4 SUB DUP2 DUP7 GAS STATICCALL ISZERO DUP1 ISZERO PUSH2 0x8C32 JUMPI RETURNDATASIZE PUSH0 DUP1 RETURNDATACOPY RETURNDATASIZE PUSH0 REVERT JUMPDEST POP POP POP POP PUSH1 0x40 MLOAD RETURNDATASIZE PUSH1 0x1F NOT PUSH1 0x1F DUP3 ADD AND DUP3 ADD DUP1 PUSH1 0x40 MSTORE POP DUP2 ADD SWAP1 PUSH2 0x8C56 SWAP2 SWAP1 PUSH2 0xC3DC JUMP JUMPDEST PUSH2 0x8C83 PUSH1 0x37 PUSH1 0x40 MLOAD DUP1 PUSH1 0x40 ADD PUSH1 0x40 MSTORE DUP1 PUSH1 0x1B DUP2 MSTORE PUSH1 0x20 ADD PUSH0 DUP1 MLOAD PUSH1 0x20 PUSH2 0xCB0E DUP4 CODECOPY DUP2 MLOAD SWAP2 MSTORE DUP2 MSTORE POP PUSH2 0x1A5A JUMP JUMPDEST SWAP1 PUSH2 0x8CA1 JUMPI PUSH1 0x40 MLOAD PUSH3 0x461BCD PUSH1 0xE5 SHL DUP2 MSTORE PUSH1 0x4 ADD PUSH2 0x12AD SWAP2 SWAP1 PUSH2 0xB15A JUMP JUMPDEST POP CALLER PUSH0 SWAP1 DUP2 MSTORE PUSH1 0x2 PUSH1 0x20 SWAP1 DUP2 MSTORE PUSH1 0x40 DUP1 DUP4 KECCAK256 DUP7 DUP5 MSTORE DUP3 MSTORE SWAP2 DUP3 SWAP1 KECCAK256 SLOAD DUP3 MLOAD PUSH1 0x60 DUP2 ADD SWAP1 SWAP4 MSTORE PUSH1 0x21 DUP1 DUP5 MSTORE PUSH1 0xFF SWAP1 SWAP2 AND SWAP3 PUSH2 0x8CE5 SWAP3 PUSH1 0x19 SWAP3 SWAP1 PUSH2 0xCB2E SWAP1 DUP4 ADD CODECOPY PUSH2 0x1A5A JUMP JUMPDEST SWAP1 PUSH2 0x8D03 JUMPI PUSH1 0x40 MLOAD PUSH3 0x461BCD PUSH1 0xE5 SHL DUP2 MSTORE PUSH1 0x4 ADD PUSH2 0x12AD SWAP2 SWAP1 PUSH2 0xB15A JUMP JUMPDEST POP PUSH0 DUP4 DUP2 MSTORE PUSH1 0x3 PUSH1 0x20 SWAP1 DUP2 MSTORE PUSH1 0x40 SWAP1 SWAP2 KECCAK256 DUP4 MLOAD PUSH2 0x1BD2 SWAP3 PUSH1 0x11 SWAP1 SWAP3 ADD SWAP2 DUP6 ADD SWAP1 PUSH2 0xA5F0 JUMP JUMPDEST PUSH0 JUMPDEST DUP2 MLOAD DUP2 LT ISZERO PUSH2 0x1875 JUMPI PUSH2 0x8D55 DUP3 DUP3 DUP2 MLOAD DUP2 LT PUSH2 0x8D48 JUMPI PUSH2 0x8D48 PUSH2 0xC255 JUMP JUMPDEST PUSH1 0x20 MUL PUSH1 0x20 ADD ADD MLOAD PUSH2 0x5885 JUMP JUMPDEST PUSH1 0x1 ADD PUSH2 0x8D2A JUMP JUMPDEST CALLER PUSH0 SWAP1 DUP2 MSTORE PUSH1 0x1 PUSH1 0x20 MSTORE PUSH1 0x40 DUP2 KECCAK256 SLOAD PUSH1 0xFF AND DUP1 PUSH2 0x8DDF JUMPI POP PUSH1 0x22 SLOAD PUSH1 0x40 MLOAD PUSH4 0x59D32027 PUSH1 0xE1 SHL DUP2 MSTORE CALLER PUSH1 0x4 DUP3 ADD MSTORE PUSH1 0x1 PUSH1 0x1 PUSH1 0xA0 SHL SUB SWAP1 SWAP2 AND SWAP1 PUSH4 0xB3A6404E SWAP1 PUSH1 0x24 ADD PUSH1 0x20 PUSH1 0x40 MLOAD DUP1 DUP4 SUB DUP2 DUP7 GAS STATICCALL ISZERO DUP1 ISZERO PUSH2 0x8DBB JUMPI RETURNDATASIZE PUSH0 DUP1 RETURNDATACOPY RETURNDATASIZE PUSH0 REVERT JUMPDEST POP POP POP POP PUSH1 0x40 MLOAD RETURNDATASIZE PUSH1 0x1F NOT PUSH1 0x1F DUP3 ADD AND DUP3 ADD DUP1 PUSH1 0x40 MSTORE POP DUP2 ADD SWAP1 PUSH2 0x8DDF SWAP2 SWAP1 PUSH2 0xC3DC JUMP JUMPDEST PUSH2 0x3704 PUSH1 0x37 PUSH1 0x40 MLOAD DUP1 PUSH1 0x40 ADD PUSH1 0x40 MSTORE DUP1 PUSH1 0x1B DUP2 MSTORE PUSH1 0x20 ADD PUSH0 DUP1 MLOAD PUSH1 0x20 PUSH2 0xCB0E DUP4 CODECOPY DUP2 MLOAD SWAP2 MSTORE DUP2 MSTORE POP PUSH2 0x1A5A JUMP JUMPDEST CALLER PUSH0 SWAP1 DUP2 MSTORE PUSH1 0x1A PUSH1 0x20 MSTORE PUSH1 0x40 SWAP1 KECCAK256 SLOAD PUSH1 0xFF AND PUSH2 0x8E3A JUMPI PUSH1 0x40 MLOAD PUSH3 0x461BCD PUSH1 0xE5 SHL DUP2 MSTORE PUSH1 0x4 ADD PUSH2 0x12AD SWAP1 PUSH2 0xC6D7 JUMP JUMPDEST PUSH0 DUP4 DUP2 MSTORE PUSH1 0xC PUSH1 0x20 MSTORE PUSH1 0x40 SWAP1 KECCAK256 SLOAD PUSH2 0x8E64 JUMPI PUSH1 0x40 MLOAD PUSH3 0x461BCD PUSH1 0xE5 SHL DUP2 MSTORE PUSH1 0x4 ADD PUSH2 0x12AD SWAP1 PUSH2 0xC9A2 JUMP JUMPDEST PUSH1 0x40 DUP1 MLOAD PUSH1 0x60 DUP2 ADD DUP3 MSTORE DUP5 DUP2 MSTORE PUSH1 0x20 DUP1 DUP3 ADD DUP6 DUP2 MSTORE DUP3 DUP5 ADD DUP6 SWAP1 MSTORE PUSH0 DUP8 DUP2 MSTORE PUSH1 0xC SWAP1 SWAP3 MSTORE SWAP3 SWAP1 KECCAK256 DUP2 MLOAD DUP2 SSTORE SWAP2 MLOAD SWAP1 SWAP2 SWAP1 PUSH1 0x1 DUP3 ADD SWAP1 PUSH2 0x8EA3 SWAP1 DUP3 PUSH2 0xC489 JUMP JUMPDEST POP PUSH1 0x40 DUP3 ADD MLOAD PUSH1 0x2 DUP3 ADD SWAP1 PUSH2 0x8EB8 SWAP1 DUP3 PUSH2 0xC489 JUMP JUMPDEST POP SWAP1 POP POP PUSH32 0x7534C4DFE9421008B880D3284C95ADB6E067900C8DEA9B4718625FA85FC1D0B7 DUP4 DUP4 DUP4 PUSH1 0x40 MLOAD PUSH2 0x6C96 SWAP4 SWAP3 SWAP2 SWAP1 PUSH2 0xBB32 JUMP JUMPDEST PUSH0 DUP1 JUMPDEST DUP3 MLOAD DUP2 LT ISZERO PUSH2 0x1BD2 JUMPI PUSH0 PUSH2 0x8F5E DUP6 DUP6 DUP5 DUP2 MLOAD DUP2 LT PUSH2 0x8F12 JUMPI PUSH2 0x8F12 PUSH2 0xC255 JUMP JUMPDEST PUSH1 0x20 MUL PUSH1 0x20 ADD ADD MLOAD PUSH0 ADD MLOAD DUP7 DUP6 DUP2 MLOAD DUP2 LT PUSH2 0x8F2F JUMPI PUSH2 0x8F2F PUSH2 0xC255 JUMP JUMPDEST PUSH1 0x20 MUL PUSH1 0x20 ADD ADD MLOAD PUSH1 0x20 ADD MLOAD DUP8 DUP7 DUP2 MLOAD DUP2 LT PUSH2 0x8F4D JUMPI PUSH2 0x8F4D PUSH2 0xC255 JUMP JUMPDEST PUSH1 0x20 MUL PUSH1 0x20 ADD ADD MLOAD PUSH1 0x40 ADD MLOAD PUSH2 0x5DD8 JUMP JUMPDEST SWAP1 POP PUSH0 DUP5 DUP4 DUP2 MLOAD DUP2 LT PUSH2 0x8F73 JUMPI PUSH2 0x8F73 PUSH2 0xC255 JUMP JUMPDEST PUSH1 0x20 MUL PUSH1 0x20 ADD ADD MLOAD PUSH0 ADD MLOAD PUSH1 0x1 DUP2 GT ISZERO PUSH2 0x8F8F JUMPI PUSH2 0x8F8F PUSH2 0xC883 JUMP JUMPDEST SUB PUSH2 0x8FBE JUMPI PUSH2 0x8FBC DUP6 DUP3 DUP7 DUP6 DUP2 MLOAD DUP2 LT PUSH2 0x8FAB JUMPI PUSH2 0x8FAB PUSH2 0xC255 JUMP JUMPDEST PUSH1 0x20 MUL PUSH1 0x20 ADD ADD MLOAD PUSH1 0x60 ADD MLOAD PUSH2 0x5CC8 JUMP JUMPDEST POP JUMPDEST POP PUSH1 0x1 ADD PUSH2 0x8EF2 JUMP JUMPDEST PUSH2 0x8FEA PUSH1 0x40 MLOAD DUP1 PUSH1 0x60 ADD PUSH1 0x40 MSTORE DUP1 PUSH0 DUP2 MSTORE PUSH1 0x20 ADD PUSH1 0x60 DUP2 MSTORE PUSH1 0x20 ADD PUSH1 0x60 DUP2 MSTORE POP SWAP1 JUMP JUMPDEST PUSH1 0xC PUSH0 DUP4 DUP2 MSTORE PUSH1 0x20 ADD SWAP1 DUP2 MSTORE PUSH1 0x20 ADD PUSH0 KECCAK256 PUSH1 0x40 MLOAD DUP1 PUSH1 0x60 ADD PUSH1 0x40 MSTORE SWAP1 DUP2 PUSH0 DUP3 ADD SLOAD DUP2 MSTORE PUSH1 0x20 ADD PUSH1 0x1 DUP3 ADD DUP1 SLOAD PUSH2 0x901F SWAP1 PUSH2 0xC269 JUMP JUMPDEST DUP1 PUSH1 0x1F ADD PUSH1 0x20 DUP1 SWAP2 DIV MUL PUSH1 0x20 ADD PUSH1 0x40 MLOAD SWAP1 DUP2 ADD PUSH1 0x40 MSTORE DUP1 SWAP3 SWAP2 SWAP1 DUP2 DUP2 MSTORE PUSH1 0x20 ADD DUP3 DUP1 SLOAD PUSH2 0x904B SWAP1 PUSH2 0xC269 JUMP JUMPDEST DUP1 ISZERO PUSH2 0x9096 JUMPI DUP1 PUSH1 0x1F LT PUSH2 0x906D JUMPI PUSH2 0x100 DUP1 DUP4 SLOAD DIV MUL DUP4 MSTORE SWAP2 PUSH1 0x20 ADD SWAP2 PUSH2 0x9096 JUMP JUMPDEST DUP3 ADD SWAP2 SWAP1 PUSH0 MSTORE PUSH1 0x20 PUSH0 KECCAK256 SWAP1 JUMPDEST DUP2 SLOAD DUP2 MSTORE SWAP1 PUSH1 0x1 ADD SWAP1 PUSH1 0x20 ADD DUP1 DUP4 GT PUSH2 0x9079 JUMPI DUP3 SWAP1 SUB PUSH1 0x1F AND DUP3 ADD SWAP2 JUMPDEST POP POP POP POP POP DUP2 MSTORE PUSH1 0x20 ADD PUSH1 0x2 DUP3 ADD DUP1 SLOAD PUSH2 0x90AF SWAP1 PUSH2 0xC269 JUMP JUMPDEST DUP1 PUSH1 0x1F ADD PUSH1 0x20 DUP1 SWAP2 DIV MUL PUSH1 0x20 ADD PUSH1 0x40 MLOAD SWAP1 DUP2 ADD PUSH1 0x40 MSTORE DUP1 SWAP3 SWAP2 SWAP1 DUP2 DUP2 MSTORE PUSH1 0x20 ADD DUP3 DUP1 SLOAD PUSH2 0x90DB SWAP1 PUSH2 0xC269 JUMP JUMPDEST DUP1 ISZERO PUSH2 0x9126 JUMPI DUP1 PUSH1 0x1F LT PUSH2 0x90FD JUMPI PUSH2 0x100 DUP1 DUP4 SLOAD DIV MUL DUP4 MSTORE SWAP2 PUSH1 0x20 ADD SWAP2 PUSH2 0x9126 JUMP JUMPDEST DUP3 ADD SWAP2 SWAP1 PUSH0 MSTORE PUSH1 0x20 PUSH0 KECCAK256 SWAP1 JUMPDEST DUP2 SLOAD DUP2 MSTORE SWAP1 PUSH1 0x1 ADD SWAP1 PUSH1 0x20 ADD DUP1 DUP4 GT PUSH2 0x9109 JUMPI DUP3 SWAP1 SUB PUSH1 0x1F AND DUP3 ADD SWAP2 JUMPDEST POP POP POP POP POP DUP2 MSTORE POP POP SWAP1 POP SWAP2 SWAP1 POP JUMP JUMPDEST PUSH1 0x4 SLOAD PUSH1 0x60 SWAP1 PUSH0 SWAP1 DUP2 DUP1 DUP3 PUSH1 0x1 PUSH1 0x1 PUSH1 0x40 SHL SUB DUP2 GT ISZERO PUSH2 0x9158 JUMPI PUSH2 0x9158 PUSH2 0xA98B JUMP JUMPDEST PUSH1 0x40 MLOAD SWAP1 DUP1 DUP3 MSTORE DUP1 PUSH1 0x20 MUL PUSH1 0x20 ADD DUP3 ADD PUSH1 0x40 MSTORE DUP1 ISZERO PUSH2 0x9191 JUMPI DUP2 PUSH1 0x20 ADD JUMPDEST PUSH2 0x917E PUSH2 0xA584 JUMP JUMPDEST DUP2 MSTORE PUSH1 0x20 ADD SWAP1 PUSH1 0x1 SWAP1 SUB SWAP1 DUP2 PUSH2 0x9176 JUMPI SWAP1 POP JUMPDEST POP SWAP1 POP PUSH0 JUMPDEST DUP4 DUP2 LT ISZERO PUSH2 0x95A6 JUMPI PUSH1 0x1 PUSH0 DUP9 MLOAD PUSH1 0x2 DUP2 GT ISZERO PUSH2 0x91B4 JUMPI PUSH2 0x91B4 PUSH2 0xC883 JUMP JUMPDEST EQ PUSH2 0x9279 JUMPI PUSH1 0x1 DUP9 MLOAD PUSH1 0x2 DUP2 GT ISZERO PUSH2 0x91CE JUMPI PUSH2 0x91CE PUSH2 0xC883 JUMP JUMPDEST EQ DUP1 ISZERO PUSH2 0x920F JUMPI POP PUSH1 0x3 PUSH0 PUSH1 0x4 DUP5 DUP2 SLOAD DUP2 LT PUSH2 0x91EC JUMPI PUSH2 0x91EC PUSH2 0xC255 JUMP JUMPDEST PUSH0 SWAP2 DUP3 MSTORE PUSH1 0x20 DUP1 DUP4 KECCAK256 SWAP1 SWAP2 ADD SLOAD DUP4 MSTORE DUP3 ADD SWAP3 SWAP1 SWAP3 MSTORE PUSH1 0x40 ADD SWAP1 KECCAK256 PUSH1 0x10 ADD SLOAD PUSH1 0xFF AND ISZERO JUMPDEST DUP1 PUSH2 0x9271 JUMPI POP PUSH1 0x2 DUP9 MLOAD PUSH1 0x2 DUP2 GT ISZERO PUSH2 0x922A JUMPI PUSH2 0x922A PUSH2 0xC883 JUMP JUMPDEST EQ DUP1 ISZERO PUSH2 0x9271 JUMPI POP PUSH2 0x923F PUSH3 0x93A80 TIMESTAMP PUSH2 0xC30B JUMP JUMPDEST PUSH1 0x3 PUSH0 PUSH1 0x4 DUP6 DUP2 SLOAD DUP2 LT PUSH2 0x9255 JUMPI PUSH2 0x9255 PUSH2 0xC255 JUMP JUMPDEST SWAP1 PUSH0 MSTORE PUSH1 0x20 PUSH0 KECCAK256 ADD SLOAD DUP2 MSTORE PUSH1 0x20 ADD SWAP1 DUP2 MSTORE PUSH1 0x20 ADD PUSH0 KECCAK256 PUSH1 0x18 ADD SLOAD LT JUMPDEST ISZERO PUSH2 0x9279 JUMPI POP PUSH0 JUMPDEST PUSH0 DUP9 PUSH1 0x60 ADD MLOAD PUSH1 0x2 DUP2 GT ISZERO PUSH2 0x9290 JUMPI PUSH2 0x9290 PUSH2 0xC883 JUMP JUMPDEST EQ PUSH2 0x9366 JUMPI PUSH1 0x1 DUP9 PUSH1 0x60 ADD MLOAD PUSH1 0x2 DUP2 GT ISZERO PUSH2 0x92AD JUMPI PUSH2 0x92AD PUSH2 0xC883 JUMP JUMPDEST EQ DUP1 ISZERO PUSH2 0x92F6 JUMPI POP PUSH1 0x3 PUSH0 PUSH1 0x4 DUP5 DUP2 SLOAD DUP2 LT PUSH2 0x92CB JUMPI PUSH2 0x92CB PUSH2 0xC255 JUMP JUMPDEST SWAP1 PUSH0 MSTORE PUSH1 0x20 PUSH0 KECCAK256 ADD SLOAD DUP2 MSTORE PUSH1 0x20 ADD SWAP1 DUP2 MSTORE PUSH1 0x20 ADD PUSH0 KECCAK256 PUSH1 0x1 ADD PUSH1 0x15 ADD PUSH1 0x1 SWAP1 SLOAD SWAP1 PUSH2 0x100 EXP SWAP1 DIV PUSH1 0xFF AND JUMPDEST DUP1 PUSH2 0x935E JUMPI POP PUSH1 0x2 DUP9 PUSH1 0x60 ADD MLOAD PUSH1 0x2 DUP2 GT ISZERO PUSH2 0x9314 JUMPI PUSH2 0x9314 PUSH2 0xC883 JUMP JUMPDEST EQ DUP1 ISZERO PUSH2 0x935E JUMPI POP PUSH1 0x3 PUSH0 PUSH1 0x4 DUP5 DUP2 SLOAD DUP2 LT PUSH2 0x9332 JUMPI PUSH2 0x9332 PUSH2 0xC255 JUMP JUMPDEST SWAP1 PUSH0 MSTORE PUSH1 0x20 PUSH0 KECCAK256 ADD SLOAD DUP2 MSTORE PUSH1 0x20 ADD SWAP1 DUP2 MSTORE PUSH1 0x20 ADD PUSH0 KECCAK256 PUSH1 0x1 ADD PUSH1 0x15 ADD PUSH1 0x1 SWAP1 SLOAD SWAP1 PUSH2 0x100 EXP SWAP1 DIV PUSH1 0xFF AND ISZERO JUMPDEST ISZERO PUSH2 0x9366 JUMPI POP PUSH0 JUMPDEST PUSH1 0x80 DUP9 ADD MLOAD PUSH1 0x1 PUSH1 0x1 PUSH1 0xA0 SHL SUB AND ISZERO PUSH2 0x93CC JUMPI DUP8 PUSH1 0x80 ADD MLOAD PUSH1 0x1 PUSH1 0x1 PUSH1 0xA0 SHL SUB AND PUSH1 0x3 PUSH0 PUSH1 0x4 DUP6 DUP2 SLOAD DUP2 LT PUSH2 0x939D JUMPI PUSH2 0x939D PUSH2 0xC255 JUMP JUMPDEST PUSH0 SWAP2 DUP3 MSTORE PUSH1 0x20 DUP1 DUP4 KECCAK256 SWAP1 SWAP2 ADD SLOAD DUP4 MSTORE DUP3 ADD SWAP3 SWAP1 SWAP3 MSTORE PUSH1 0x40 ADD SWAP1 KECCAK256 PUSH1 0xD ADD SLOAD PUSH1 0x1 PUSH1 0x1 PUSH1 0xA0 SHL SUB AND EQ PUSH2 0x93CC JUMPI POP PUSH0 JUMPDEST PUSH1 0xA0 DUP9 ADD MLOAD MLOAD ISZERO PUSH2 0x94A3 JUMPI PUSH2 0x949C DUP9 PUSH1 0xA0 ADD MLOAD PUSH1 0x3 PUSH0 PUSH1 0x4 DUP7 DUP2 SLOAD DUP2 LT PUSH2 0x93F5 JUMPI PUSH2 0x93F5 PUSH2 0xC255 JUMP JUMPDEST SWAP1 PUSH0 MSTORE PUSH1 0x20 PUSH0 KECCAK256 ADD SLOAD DUP2 MSTORE PUSH1 0x20 ADD SWAP1 DUP2 MSTORE PUSH1 0x20 ADD PUSH0 KECCAK256 PUSH1 0x1 ADD PUSH0 ADD DUP1 SLOAD PUSH2 0x941B SWAP1 PUSH2 0xC269 JUMP JUMPDEST DUP1 PUSH1 0x1F ADD PUSH1 0x20 DUP1 SWAP2 DIV MUL PUSH1 0x20 ADD PUSH1 0x40 MLOAD SWAP1 DUP2 ADD PUSH1 0x40 MSTORE DUP1 SWAP3 SWAP2 SWAP1 DUP2 DUP2 MSTORE PUSH1 0x20 ADD DUP3 DUP1 SLOAD PUSH2 0x9447 SWAP1 PUSH2 0xC269 JUMP JUMPDEST DUP1 ISZERO PUSH2 0x9492 JUMPI DUP1 PUSH1 0x1F LT PUSH2 0x9469 JUMPI PUSH2 0x100 DUP1 DUP4 SLOAD DIV MUL DUP4 MSTORE SWAP2 PUSH1 0x20 ADD SWAP2 PUSH2 0x9492 JUMP JUMPDEST DUP3 ADD SWAP2 SWAP1 PUSH0 MSTORE PUSH1 0x20 PUSH0 KECCAK256 SWAP1 JUMPDEST DUP2 SLOAD DUP2 MSTORE SWAP1 PUSH1 0x1 ADD SWAP1 PUSH1 0x20 ADD DUP1 DUP4 GT PUSH2 0x9475 JUMPI DUP3 SWAP1 SUB PUSH1 0x1F AND DUP3 ADD SWAP2 JUMPDEST POP POP POP POP POP PUSH2 0x9EF3 JUMP JUMPDEST PUSH2 0x94A3 JUMPI POP PUSH0 JUMPDEST PUSH0 DUP9 PUSH1 0xC0 ADD MLOAD GT DUP1 PUSH2 0x94B8 JUMPI POP PUSH0 DUP9 PUSH1 0xE0 ADD MLOAD GT JUMPDEST ISZERO PUSH2 0x9555 JUMPI PUSH0 DUP9 PUSH1 0xC0 ADD MLOAD GT DUP1 ISZERO PUSH2 0x9502 JUMPI POP DUP8 PUSH1 0xC0 ADD MLOAD PUSH1 0x3 PUSH0 PUSH1 0x4 DUP6 DUP2 SLOAD DUP2 LT PUSH2 0x94E6 JUMPI PUSH2 0x94E6 PUSH2 0xC255 JUMP JUMPDEST SWAP1 PUSH0 MSTORE PUSH1 0x20 PUSH0 KECCAK256 ADD SLOAD DUP2 MSTORE PUSH1 0x20 ADD SWAP1 DUP2 MSTORE PUSH1 0x20 ADD PUSH0 KECCAK256 PUSH1 0x18 ADD SLOAD LT JUMPDEST DUP1 PUSH2 0x954D JUMPI POP PUSH0 DUP9 PUSH1 0xE0 ADD MLOAD GT DUP1 ISZERO PUSH2 0x954D JUMPI POP DUP8 PUSH1 0xE0 ADD MLOAD PUSH1 0x3 PUSH0 PUSH1 0x4 DUP6 DUP2 SLOAD DUP2 LT PUSH2 0x9531 JUMPI PUSH2 0x9531 PUSH2 0xC255 JUMP JUMPDEST SWAP1 PUSH0 MSTORE PUSH1 0x20 PUSH0 KECCAK256 ADD SLOAD DUP2 MSTORE PUSH1 0x20 ADD SWAP1 DUP2 MSTORE PUSH1 0x20 ADD PUSH0 KECCAK256 PUSH1 0x18 ADD SLOAD GT JUMPDEST ISZERO PUSH2 0x9555 JUMPI POP PUSH0 JUMPDEST DUP1 ISZERO PUSH2 0x959D JUMPI PUSH2 0x9571 PUSH1 0x4 DUP4 DUP2 SLOAD DUP2 LT PUSH2 0x1948 JUMPI PUSH2 0x1948 PUSH2 0xC255 JUMP JUMPDEST DUP4 DUP6 DUP2 MLOAD DUP2 LT PUSH2 0x9583 JUMPI PUSH2 0x9583 PUSH2 0xC255 JUMP JUMPDEST PUSH1 0x20 MUL PUSH1 0x20 ADD ADD DUP2 SWAP1 MSTORE POP DUP4 DUP1 PUSH2 0x9599 SWAP1 PUSH2 0xC3F7 JUMP JUMPDEST SWAP5 POP POP JUMPDEST POP PUSH1 0x1 ADD PUSH2 0x9196 JUMP JUMPDEST POP PUSH0 DUP3 PUSH1 0x1 PUSH1 0x1 PUSH1 0x40 SHL SUB DUP2 GT ISZERO PUSH2 0x95C0 JUMPI PUSH2 0x95C0 PUSH2 0xA98B JUMP JUMPDEST PUSH1 0x40 MLOAD SWAP1 DUP1 DUP3 MSTORE DUP1 PUSH1 0x20 MUL PUSH1 0x20 ADD DUP3 ADD PUSH1 0x40 MSTORE DUP1 ISZERO PUSH2 0x95F9 JUMPI DUP2 PUSH1 0x20 ADD JUMPDEST PUSH2 0x95E6 PUSH2 0xA584 JUMP JUMPDEST DUP2 MSTORE PUSH1 0x20 ADD SWAP1 PUSH1 0x1 SWAP1 SUB SWAP1 DUP2 PUSH2 0x95DE JUMPI SWAP1 POP JUMPDEST POP SWAP1 POP PUSH0 JUMPDEST DUP4 DUP2 LT ISZERO PUSH2 0x9645 JUMPI DUP3 DUP2 DUP2 MLOAD DUP2 LT PUSH2 0x9618 JUMPI PUSH2 0x9618 PUSH2 0xC255 JUMP JUMPDEST PUSH1 0x20 MUL PUSH1 0x20 ADD ADD MLOAD DUP3 DUP3 DUP2 MLOAD DUP2 LT PUSH2 0x9632 JUMPI PUSH2 0x9632 PUSH2 0xC255 JUMP JUMPDEST PUSH1 0x20 SWAP1 DUP2 MUL SWAP2 SWAP1 SWAP2 ADD ADD MSTORE PUSH1 0x1 ADD PUSH2 0x95FE JUMP JUMPDEST POP PUSH0 DUP1 DUP9 PUSH1 0x20 ADD MLOAD PUSH1 0x1 DUP2 GT ISZERO PUSH2 0x965E JUMPI PUSH2 0x965E PUSH2 0xC883 JUMP JUMPDEST EQ SWAP1 POP PUSH0 DUP1 DUP10 PUSH1 0x40 ADD MLOAD PUSH1 0x1 DUP2 GT ISZERO PUSH2 0x9679 JUMPI PUSH2 0x9679 PUSH2 0xC883 JUMP JUMPDEST EQ SWAP1 POP PUSH2 0x9687 DUP4 DUP4 DUP4 PUSH2 0x9FC9 JUMP JUMPDEST SWAP3 POP PUSH0 DUP10 PUSH2 0x120 ADD MLOAD DUP11 PUSH2 0x100 ADD MLOAD PUSH2 0x96A0 SWAP2 SWAP1 PUSH2 0xC40F JUMP JUMPDEST SWAP1 POP PUSH0 DUP11 PUSH2 0x120 ADD MLOAD DUP3 PUSH2 0x96B4 SWAP2 SWAP1 PUSH2 0xC332 JUMP JUMPDEST SWAP1 POP DUP7 DUP2 GT ISZERO PUSH2 0x96C1 JUMPI POP DUP6 JUMPDEST PUSH0 PUSH2 0x96CC DUP4 DUP4 PUSH2 0xC30B JUMP JUMPDEST SWAP1 POP DUP1 PUSH1 0x1 PUSH1 0x1 PUSH1 0x40 SHL SUB DUP2 GT ISZERO PUSH2 0x96E6 JUMPI PUSH2 0x96E6 PUSH2 0xA98B JUMP JUMPDEST PUSH1 0x40 MLOAD SWAP1 DUP1 DUP3 MSTORE DUP1 PUSH1 0x20 MUL PUSH1 0x20 ADD DUP3 ADD PUSH1 0x40 MSTORE DUP1 ISZERO PUSH2 0x971F JUMPI DUP2 PUSH1 0x20 ADD JUMPDEST PUSH2 0x970C PUSH2 0xA584 JUMP JUMPDEST DUP2 MSTORE PUSH1 0x20 ADD SWAP1 PUSH1 0x1 SWAP1 SUB SWAP1 DUP2 PUSH2 0x9704 JUMPI SWAP1 POP JUMPDEST POP SWAP11 POP DUP3 JUMPDEST DUP3 DUP2 LT ISZERO PUSH2 0x9776 JUMPI DUP7 DUP2 DUP2 MLOAD DUP2 LT PUSH2 0x973E JUMPI PUSH2 0x973E PUSH2 0xC255 JUMP JUMPDEST PUSH1 0x20 MUL PUSH1 0x20 ADD ADD MLOAD DUP13 DUP6 DUP4 PUSH2 0x9753 SWAP2 SWAP1 PUSH2 0xC30B JUMP JUMPDEST DUP2 MLOAD DUP2 LT PUSH2 0x9763 JUMPI PUSH2 0x9763 PUSH2 0xC255 JUMP JUMPDEST PUSH1 0x20 SWAP1 DUP2 MUL SWAP2 SWAP1 SWAP2 ADD ADD MSTORE PUSH1 0x1 ADD PUSH2 0x9724 JUMP JUMPDEST POP DUP8 DUP3 LT SWAP10 POP POP POP POP POP POP POP POP POP POP SWAP2 POP SWAP2 JUMP JUMPDEST PUSH1 0x5 DUP2 DUP2 SLOAD DUP2 LT PUSH2 0x9799 JUMPI PUSH0 DUP1 REVERT JUMPDEST SWAP1 PUSH0 MSTORE PUSH1 0x20 PUSH0 KECCAK256 ADD PUSH0 SWAP2 POP SWAP1 POP DUP1 SLOAD PUSH2 0x97B1 SWAP1 PUSH2 0xC269 JUMP JUMPDEST DUP1 PUSH1 0x1F ADD PUSH1 0x20 DUP1 SWAP2 DIV MUL PUSH1 0x20 ADD PUSH1 0x40 MLOAD SWAP1 DUP2 ADD PUSH1 0x40 MSTORE DUP1 SWAP3 SWAP2 SWAP1 DUP2 DUP2 MSTORE PUSH1 0x20 ADD DUP3 DUP1 SLOAD PUSH2 0x97DD SWAP1 PUSH2 0xC269 JUMP JUMPDEST DUP1 ISZERO PUSH2 0x9828 JUMPI DUP1 PUSH1 0x1F LT PUSH2 0x97FF JUMPI PUSH2 0x100 DUP1 DUP4 SLOAD DIV MUL DUP4 MSTORE SWAP2 PUSH1 0x20 ADD SWAP2 PUSH2 0x9828 JUMP JUMPDEST DUP3 ADD SWAP2 SWAP1 PUSH0 MSTORE PUSH1 0x20 PUSH0 KECCAK256 SWAP1 JUMPDEST DUP2 SLOAD DUP2 MSTORE SWAP1 PUSH1 0x1 ADD SWAP1 PUSH1 0x20 ADD DUP1 DUP4 GT PUSH2 0x980B JUMPI DUP3 SWAP1 SUB PUSH1 0x1F AND DUP3 ADD SWAP2 JUMPDEST POP POP POP POP POP DUP2 JUMP JUMPDEST CALLER PUSH0 SWAP1 DUP2 MSTORE PUSH1 0x1A PUSH1 0x20 MSTORE PUSH1 0x40 DUP2 KECCAK256 SLOAD PUSH1 0xFF AND PUSH2 0x985E JUMPI PUSH1 0x40 MLOAD PUSH3 0x461BCD PUSH1 0xE5 SHL DUP2 MSTORE PUSH1 0x4 ADD PUSH2 0x12AD SWAP1 PUSH2 0xC6D7 JUMP JUMPDEST PUSH0 DUP3 DUP2 MSTORE PUSH1 0x3 PUSH1 0x20 MSTORE PUSH1 0x40 SWAP1 KECCAK256 SLOAD ISZERO DUP1 ISZERO SWAP1 PUSH2 0x9890 JUMPI POP PUSH0 DUP3 DUP2 MSTORE PUSH1 0x3 PUSH1 0x20 MSTORE PUSH1 0x40 SWAP1 KECCAK256 PUSH1 0x16 ADD SLOAD PUSH2 0x100 SWAP1 DIV PUSH1 0xFF AND ISZERO JUMPDEST PUSH2 0x98B3 PUSH1 0x1B PUSH1 0x40 MLOAD DUP1 PUSH1 0x60 ADD PUSH1 0x40 MSTORE DUP1 PUSH1 0x2C DUP2 MSTORE PUSH1 0x20 ADD PUSH2 0xCAE2 PUSH1 0x2C SWAP2 CODECOPY PUSH2 0x1A5A JUMP JUMPDEST SWAP1 PUSH2 0x98D1 JUMPI PUSH1 0x40 MLOAD PUSH3 0x461BCD PUSH1 0xE5 SHL DUP2 MSTORE PUSH1 0x4 ADD PUSH2 0x12AD SWAP2 SWAP1 PUSH2 0xB15A JUMP JUMPDEST POP POP PUSH0 DUP2 DUP2 MSTORE PUSH1 0x3 PUSH1 0x20 MSTORE PUSH1 0x40 SWAP1 KECCAK256 PUSH1 0x16 ADD DUP1 SLOAD PUSH2 0xFF00 NOT AND PUSH2 0x100 OR SWAP1 SSTORE PUSH1 0x1 SWAP2 SWAP1 POP JUMP JUMPDEST PUSH1 0x60 PUSH0 PUSH2 0x9903 DUP4 PUSH2 0xA1E3 JUMP JUMPDEST PUSH1 0x1 ADD SWAP1 POP PUSH0 DUP2 PUSH1 0x1 PUSH1 0x1 PUSH1 0x40 SHL SUB DUP2 GT ISZERO PUSH2 0x9921 JUMPI PUSH2 0x9921 PUSH2 0xA98B JUMP JUMPDEST PUSH1 0x40 MLOAD SWAP1 DUP1 DUP3 MSTORE DUP1 PUSH1 0x1F ADD PUSH1 0x1F NOT AND PUSH1 0x20 ADD DUP3 ADD PUSH1 0x40 MSTORE DUP1 ISZERO PUSH2 0x994B JUMPI PUSH1 0x20 DUP3 ADD DUP2 DUP1 CALLDATASIZE DUP4 CALLDATACOPY ADD SWAP1 POP JUMPDEST POP SWAP1 POP DUP2 DUP2 ADD PUSH1 0x20 ADD JUMPDEST PUSH0 NOT ADD PUSH16 0x181899199A1A9B1B9C1CB0B131B232B3 PUSH1 0x81 SHL PUSH1 0xA DUP7 MOD BYTE DUP2 MSTORE8 PUSH1 0xA DUP6 DIV SWAP5 POP DUP5 PUSH2 0x9955 JUMPI POP SWAP4 SWAP3 POP POP POP JUMP JUMPDEST PUSH0 PUSH1 0x60 PUSH0 JUMPDEST DUP4 MLOAD DUP2 LT ISZERO PUSH2 0x99FD JUMPI DUP2 DUP5 DUP3 DUP2 MLOAD DUP2 LT PUSH2 0x99A7 JUMPI PUSH2 0x99A7 PUSH2 0xC255 JUMP JUMPDEST PUSH1 0x20 MUL PUSH1 0x20 ADD ADD MLOAD PUSH1 0x20 ADD MLOAD DUP6 DUP4 DUP2 MLOAD DUP2 LT PUSH2 0x99C5 JUMPI PUSH2 0x99C5 PUSH2 0xC255 JUMP JUMPDEST PUSH1 0x20 MUL PUSH1 0x20 ADD ADD MLOAD PUSH1 0x40 ADD MLOAD PUSH1 0x40 MLOAD PUSH1 0x20 ADD PUSH2 0x99E3 SWAP4 SWAP3 SWAP2 SWAP1 PUSH2 0xCA55 JUMP JUMPDEST PUSH1 0x40 DUP1 MLOAD PUSH1 0x1F NOT DUP2 DUP5 SUB ADD DUP2 MSTORE SWAP2 SWAP1 MSTORE SWAP2 POP PUSH1 0x1 ADD PUSH2 0x998B JUMP JUMPDEST POP DUP1 MLOAD PUSH1 0x20 SWAP1 SWAP2 ADD KECCAK256 SWAP3 SWAP2 POP POP JUMP JUMPDEST PUSH0 DUP4 DUP2 MSTORE PUSH1 0x15 PUSH1 0x20 MSTORE PUSH1 0x40 SWAP1 KECCAK256 SLOAD PUSH2 0x9A36 JUMPI PUSH1 0x40 MLOAD PUSH3 0x461BCD PUSH1 0xE5 SHL DUP2 MSTORE PUSH1 0x4 ADD PUSH2 0x12AD SWAP1 PUSH2 0xC82F JUMP JUMPDEST PUSH0 DUP4 DUP2 MSTORE PUSH1 0x15 PUSH1 0x20 MSTORE PUSH1 0x40 SWAP1 KECCAK256 PUSH1 0x1 ADD PUSH2 0x9A50 DUP4 DUP3 PUSH2 0xC489 JUMP JUMPDEST POP PUSH0 DUP4 DUP2 MSTORE PUSH1 0x15 PUSH1 0x20 MSTORE PUSH1 0x40 SWAP1 KECCAK256 PUSH1 0x2 ADD PUSH2 0x9A6B DUP3 DUP3 PUSH2 0xC489 JUMP JUMPDEST POP POP POP POP POP JUMP JUMPDEST PUSH1 0x3 PUSH0 DUP3 DUP2 MSTORE PUSH1 0x20 ADD SWAP1 DUP2 MSTORE PUSH1 0x20 ADD PUSH0 KECCAK256 PUSH0 ADD SLOAD PUSH0 EQ ISZERO PUSH2 0x9ABD PUSH1 0x2 PUSH1 0x40 MLOAD DUP1 PUSH1 0x40 ADD PUSH1 0x40 MSTORE DUP1 PUSH1 0x11 DUP2 MSTORE PUSH1 0x20 ADD PUSH17 0x141C9BD91D58DD081B9BDD08199BDD5B99 PUSH1 0x7A SHL DUP2 MSTORE POP PUSH2 0x1A5A JUMP JUMPDEST SWAP1 PUSH2 0x9ADB JUMPI PUSH1 0x40 MLOAD PUSH3 0x461BCD PUSH1 0xE5 SHL DUP2 MSTORE PUSH1 0x4 ADD PUSH2 0x12AD SWAP2 SWAP1 PUSH2 0xB15A JUMP JUMPDEST POP PUSH0 DUP2 DUP2 MSTORE PUSH1 0x3 PUSH1 0x20 SWAP1 DUP2 MSTORE PUSH1 0x40 DUP1 DUP4 KECCAK256 PUSH1 0xD ADD SLOAD PUSH1 0x8 SWAP1 SWAP3 MSTORE DUP3 KECCAK256 PUSH1 0x1 PUSH1 0x1 PUSH1 0xA0 SHL SUB SWAP1 SWAP2 AND SWAP2 JUMPDEST DUP2 SLOAD DUP2 LT ISZERO PUSH2 0x9BBD JUMPI PUSH1 0x7 PUSH0 DUP6 DUP2 MSTORE PUSH1 0x20 ADD SWAP1 DUP2 MSTORE PUSH1 0x20 ADD PUSH0 KECCAK256 PUSH0 DUP4 DUP4 DUP2 SLOAD DUP2 LT PUSH2 0x9B31 JUMPI PUSH2 0x9B31 PUSH2 0xC255 JUMP JUMPDEST PUSH0 SWAP2 DUP3 MSTORE PUSH1 0x20 DUP1 DUP4 KECCAK256 SWAP1 SWAP2 ADD SLOAD DUP4 MSTORE DUP3 DUP2 ADD SWAP4 SWAP1 SWAP4 MSTORE PUSH1 0x40 SWAP2 DUP3 ADD DUP2 KECCAK256 DUP2 DUP2 SSTORE PUSH1 0x1 DUP2 ADD DUP3 SWAP1 SSTORE PUSH1 0x2 DUP2 ADD DUP3 SWAP1 SSTORE PUSH1 0x3 DUP2 ADD DUP3 SWAP1 SSTORE PUSH1 0x4 DUP2 ADD DUP3 SWAP1 SSTORE PUSH1 0x5 ADD DUP2 SWAP1 SSTORE DUP7 DUP2 MSTORE PUSH1 0x9 SWAP1 SWAP3 MSTORE DUP2 KECCAK256 DUP4 SLOAD SWAP1 SWAP2 SWAP1 DUP5 SWAP1 DUP5 SWAP1 DUP2 LT PUSH2 0x9B94 JUMPI PUSH2 0x9B94 PUSH2 0xC255 JUMP JUMPDEST SWAP1 PUSH0 MSTORE PUSH1 0x20 PUSH0 KECCAK256 ADD SLOAD DUP2 MSTORE PUSH1 0x20 ADD SWAP1 DUP2 MSTORE PUSH1 0x20 ADD PUSH0 KECCAK256 PUSH0 PUSH2 0x9BB5 SWAP2 SWAP1 PUSH2 0xA71B JUMP JUMPDEST PUSH1 0x1 ADD PUSH2 0x9B04 JUMP JUMPDEST POP PUSH0 DUP4 DUP2 MSTORE PUSH1 0x8 PUSH1 0x20 MSTORE PUSH1 0x40 DUP2 KECCAK256 PUSH2 0x9BD4 SWAP2 PUSH2 0xA739 JUMP JUMPDEST PUSH0 DUP4 DUP2 MSTORE PUSH1 0x3 PUSH1 0x20 MSTORE PUSH1 0x40 DUP2 KECCAK256 DUP2 DUP2 SSTORE SWAP1 PUSH1 0x1 DUP3 ADD DUP2 PUSH2 0x9BF4 DUP3 DUP3 PUSH2 0xA54A JUMP JUMPDEST PUSH1 0x1 DUP3 ADD PUSH0 SWAP1 SSTORE PUSH1 0x2 DUP3 ADD PUSH0 PUSH2 0x9C0A SWAP2 SWAP1 PUSH2 0xA54A JUMP JUMPDEST PUSH1 0x3 DUP3 ADD PUSH0 SWAP1 SSTORE PUSH1 0x4 DUP3 ADD PUSH0 SWAP1 SSTORE PUSH1 0x5 DUP3 ADD PUSH0 SWAP1 SSTORE PUSH1 0x6 DUP3 ADD PUSH0 SWAP1 SSTORE PUSH1 0x7 DUP3 ADD PUSH0 PUSH2 0x9C35 SWAP2 SWAP1 PUSH2 0xA739 JUMP JUMPDEST PUSH2 0x9C42 PUSH1 0x8 DUP4 ADD PUSH0 PUSH2 0xA754 JUMP JUMPDEST PUSH1 0x9 DUP3 ADD PUSH0 SWAP1 SSTORE PUSH1 0xA DUP3 ADD PUSH0 SWAP1 SSTORE PUSH1 0xB DUP3 ADD PUSH0 PUSH2 0x9C5F SWAP2 SWAP1 PUSH2 0xA754 JUMP JUMPDEST PUSH1 0xC DUP3 ADD DUP1 SLOAD PUSH1 0x1 PUSH1 0x1 PUSH1 0xA0 SHL SUB NOT AND SWAP1 SSTORE PUSH2 0x9C7E PUSH1 0xD DUP4 ADD PUSH0 PUSH2 0xA54A JUMP JUMPDEST PUSH2 0x9C8B PUSH1 0xE DUP4 ADD PUSH0 PUSH2 0xA54A JUMP JUMPDEST PUSH1 0xF DUP3 ADD DUP1 SLOAD PUSH1 0xFF NOT AND SWAP1 SSTORE PUSH2 0x9CA4 PUSH1 0x10 DUP4 ADD PUSH0 PUSH2 0xA754 JUMP JUMPDEST PUSH2 0x9CB1 PUSH1 0x11 DUP4 ADD PUSH0 PUSH2 0xA54A JUMP JUMPDEST POP PUSH0 PUSH1 0x12 DUP3 ADD DUP2 SWAP1 SSTORE PUSH1 0x13 DUP3 ADD DUP2 SWAP1 SSTORE PUSH1 0x14 DUP3 ADD DUP2 SWAP1 SSTORE PUSH1 0x15 DUP3 ADD DUP1 SLOAD PUSH2 0xFFFF NOT AND SWAP1 SSTORE PUSH1 0x16 SWAP1 SWAP2 ADD DUP2 SWAP1 SSTORE PUSH1 0x18 DUP4 ADD DUP2 SWAP1 SSTORE PUSH1 0x19 SWAP1 SWAP3 ADD DUP3 SWAP1 SSTORE POP JUMPDEST PUSH1 0x4 SLOAD DUP2 LT ISZERO PUSH2 0x9D92 JUMPI DUP4 PUSH1 0x4 DUP3 DUP2 SLOAD DUP2 LT PUSH2 0x9D0C JUMPI PUSH2 0x9D0C PUSH2 0xC255 JUMP JUMPDEST SWAP1 PUSH0 MSTORE PUSH1 0x20 PUSH0 KECCAK256 ADD SLOAD SUB PUSH2 0x9D8A JUMPI PUSH1 0x4 DUP1 SLOAD PUSH2 0x9D2A SWAP1 PUSH1 0x1 SWAP1 PUSH2 0xC30B JUMP JUMPDEST DUP2 SLOAD DUP2 LT PUSH2 0x9D3A JUMPI PUSH2 0x9D3A PUSH2 0xC255 JUMP JUMPDEST SWAP1 PUSH0 MSTORE PUSH1 0x20 PUSH0 KECCAK256 ADD SLOAD PUSH1 0x4 DUP3 DUP2 SLOAD DUP2 LT PUSH2 0x9D56 JUMPI PUSH2 0x9D56 PUSH2 0xC255 JUMP JUMPDEST PUSH0 SWAP2 DUP3 MSTORE PUSH1 0x20 SWAP1 SWAP2 KECCAK256 ADD SSTORE PUSH1 0x4 DUP1 SLOAD DUP1 PUSH2 0x9D72 JUMPI PUSH2 0x9D72 PUSH2 0xC31E JUMP JUMPDEST PUSH1 0x1 SWAP1 SUB DUP2 DUP2 SWAP1 PUSH0 MSTORE PUSH1 0x20 PUSH0 KECCAK256 ADD PUSH0 SWAP1 SSTORE SWAP1 SSTORE PUSH2 0x9D92 JUMP JUMPDEST PUSH1 0x1 ADD PUSH2 0x9CEE JUMP JUMPDEST POP PUSH2 0x9D9D DUP3 DUP5 PUSH2 0xA2BA JUMP JUMPDEST PUSH1 0x1 PUSH1 0x1 PUSH1 0xA0 SHL SUB DUP3 AND PUSH0 SWAP1 DUP2 MSTORE PUSH1 0x2 PUSH1 0x20 SWAP1 DUP2 MSTORE PUSH1 0x40 DUP1 DUP4 KECCAK256 DUP7 DUP5 MSTORE DUP3 MSTORE SWAP2 DUP3 SWAP1 KECCAK256 DUP1 SLOAD PUSH1 0xFF NOT AND SWAP1 SSTORE SWAP1 MLOAD DUP5 DUP2 MSTORE PUSH32 0x716431C6AD87C14DFBAEA060C40DE99E2C47AFAB8D3C665240F9887945474A4F SWAP2 ADD PUSH2 0x6C96 JUMP JUMPDEST PUSH1 0x21 DUP1 SLOAD PUSH0 SWAP2 DUP3 PUSH2 0x9E05 DUP4 PUSH2 0xC3F7 JUMP JUMPDEST SWAP1 SWAP2 SSTORE POP POP PUSH0 DUP5 DUP2 MSTORE PUSH1 0x3 PUSH1 0x20 MSTORE PUSH1 0x40 SWAP1 KECCAK256 SLOAD PUSH2 0x9E34 JUMPI PUSH1 0x40 MLOAD PUSH3 0x461BCD PUSH1 0xE5 SHL DUP2 MSTORE PUSH1 0x4 ADD PUSH2 0x12AD SWAP1 PUSH2 0xC7D7 JUMP JUMPDEST PUSH1 0x40 DUP1 MLOAD PUSH1 0x60 DUP2 ADD DUP3 MSTORE PUSH1 0x21 SLOAD DUP1 DUP3 MSTORE PUSH1 0x20 DUP1 DUP4 ADD DUP8 DUP2 MSTORE DUP4 DUP6 ADD DUP8 SWAP1 MSTORE PUSH0 SWAP3 DUP4 MSTORE PUSH1 0x15 SWAP1 SWAP2 MSTORE SWAP3 SWAP1 KECCAK256 DUP2 MLOAD DUP2 SSTORE SWAP2 MLOAD SWAP1 SWAP2 DUP3 SWAP2 PUSH1 0x1 DUP3 ADD SWAP1 PUSH2 0x9E77 SWAP1 DUP3 PUSH2 0xC489 JUMP JUMPDEST POP PUSH1 0x40 DUP3 ADD MLOAD PUSH1 0x2 DUP3 ADD SWAP1 PUSH2 0x9E8C SWAP1 DUP3 PUSH2 0xC489 JUMP JUMPDEST POP POP POP PUSH0 DUP6 DUP2 MSTORE PUSH1 0x16 PUSH1 0x20 SWAP1 DUP2 MSTORE PUSH1 0x40 DUP1 DUP4 KECCAK256 PUSH1 0x21 SLOAD DUP2 SLOAD PUSH1 0x1 DUP2 ADD DUP4 SSTORE SWAP2 DUP6 MSTORE SWAP3 DUP5 KECCAK256 ADD SWAP2 SWAP1 SWAP2 SSTORE PUSH1 0x24 SLOAD DUP2 MLOAD PUSH4 0xF857D617 PUSH1 0xE0 SHL DUP2 MSTORE SWAP2 MLOAD PUSH1 0x1 PUSH1 0x1 PUSH1 0xA0 SHL SUB SWAP1 SWAP2 AND SWAP3 PUSH4 0xF857D617 SWAP3 PUSH1 0x4 DUP1 DUP3 ADD SWAP4 SWAP2 DUP3 SWAP1 SUB ADD DUP2 DUP4 DUP8 DUP1 EXTCODESIZE ISZERO DUP1 ISZERO PUSH2 0x6B68 JUMPI PUSH0 DUP1 REVERT JUMPDEST DUP2 MLOAD DUP2 MLOAD PUSH0 SWAP2 DUP5 SWAP2 DUP5 SWAP2 GT ISZERO PUSH2 0x9F07 JUMPI PUSH0 DUP1 REVERT JUMPDEST PUSH0 DUP1 JUMPDEST DUP4 MLOAD DUP4 MLOAD PUSH2 0x9F18 SWAP2 SWAP1 PUSH2 0xC30B JUMP JUMPDEST DUP2 GT PUSH2 0x9FBF JUMPI PUSH1 0x1 PUSH0 JUMPDEST DUP6 MLOAD DUP2 LT ISZERO PUSH2 0x9F9B JUMPI PUSH2 0x9F54 DUP7 DUP3 DUP2 MLOAD DUP2 LT PUSH2 0x9F40 JUMPI PUSH2 0x9F40 PUSH2 0xC255 JUMP JUMPDEST ADD PUSH1 0x20 ADD MLOAD PUSH1 0x1 PUSH1 0x1 PUSH1 0xF8 SHL SUB NOT AND PUSH2 0xA37A JUMP JUMPDEST PUSH1 0x1 PUSH1 0x1 PUSH1 0xF8 SHL SUB NOT AND PUSH2 0x9F7C DUP7 PUSH2 0x9F6C DUP5 DUP8 PUSH2 0xC332 JUMP JUMPDEST DUP2 MLOAD DUP2 LT PUSH2 0x9F40 JUMPI PUSH2 0x9F40 PUSH2 0xC255 JUMP JUMPDEST PUSH1 0x1 PUSH1 0x1 PUSH1 0xF8 SHL SUB NOT AND EQ PUSH2 0x9F93 JUMPI PUSH0 SWAP2 POP PUSH2 0x9F9B JUMP JUMPDEST PUSH1 0x1 ADD PUSH2 0x9F22 JUMP JUMPDEST POP DUP1 ISZERO PUSH2 0x9FAC JUMPI PUSH1 0x1 SWAP3 POP POP PUSH2 0x9FBF JUMP JUMPDEST POP DUP1 PUSH2 0x9FB7 DUP2 PUSH2 0xC3F7 JUMP JUMPDEST SWAP2 POP POP PUSH2 0x9F0A JUMP JUMPDEST POP SWAP6 SWAP5 POP POP POP POP POP JUMP JUMPDEST DUP3 MLOAD PUSH1 0x60 SWAP1 PUSH1 0x2 DUP2 LT ISZERO PUSH2 0x9FE0 JUMPI DUP5 SWAP2 POP POP PUSH2 0x69F3 JUMP JUMPDEST PUSH2 0x9FE8 PUSH2 0xA584 JUMP JUMPDEST PUSH2 0x9FF0 PUSH2 0xA584 JUMP JUMPDEST PUSH2 0x9FF8 PUSH2 0xA584 JUMP JUMPDEST PUSH0 DUP1 PUSH0 JUMPDEST PUSH2 0xA007 PUSH1 0x1 DUP9 PUSH2 0xC30B JUMP JUMPDEST DUP2 LT ISZERO PUSH2 0xA1D4 JUMPI PUSH0 JUMPDEST PUSH1 0x1 PUSH2 0xA01C DUP4 DUP11 PUSH2 0xC30B JUMP JUMPDEST PUSH2 0xA026 SWAP2 SWAP1 PUSH2 0xC30B JUMP JUMPDEST DUP2 LT ISZERO PUSH2 0xA1CB JUMPI PUSH0 DUP13 DUP3 DUP2 MLOAD DUP2 LT PUSH2 0xA040 JUMPI PUSH2 0xA040 PUSH2 0xC255 JUMP JUMPDEST PUSH1 0x20 MUL PUSH1 0x20 ADD ADD MLOAD SWAP8 POP DUP13 DUP3 PUSH1 0x1 PUSH2 0xA058 SWAP2 SWAP1 PUSH2 0xC332 JUMP JUMPDEST DUP2 MLOAD DUP2 LT PUSH2 0xA068 JUMPI PUSH2 0xA068 PUSH2 0xC255 JUMP JUMPDEST PUSH1 0x20 MUL PUSH1 0x20 ADD ADD MLOAD SWAP7 POP DUP11 ISZERO PUSH2 0xA095 JUMPI DUP7 MLOAD PUSH1 0x40 SWAP1 DUP2 ADD MLOAD DUP10 MLOAD SWAP1 SWAP2 ADD MLOAD GT ISZERO PUSH2 0xA090 JUMPI POP PUSH1 0x1 JUMPDEST PUSH2 0xA0AD JUMP JUMPDEST DUP7 MLOAD PUSH1 0x40 SWAP1 DUP2 ADD MLOAD DUP10 MLOAD SWAP1 SWAP2 ADD MLOAD LT ISZERO PUSH2 0xA0AD JUMPI POP PUSH1 0x1 JUMPDEST DUP12 ISZERO PUSH2 0xA0F6 JUMPI PUSH2 0xA0BC DUP9 PUSH2 0xA3B6 JUMP JUMPDEST SWAP5 POP PUSH2 0xA0C7 DUP8 PUSH2 0xA3B6 JUMP JUMPDEST SWAP4 POP DUP11 DUP1 ISZERO PUSH2 0xA0D5 JUMPI POP DUP4 DUP6 GT JUMPDEST DUP1 PUSH2 0xA0E8 JUMPI POP DUP11 ISZERO DUP1 ISZERO PUSH2 0xA0E8 JUMPI POP DUP4 DUP6 LT JUMPDEST ISZERO PUSH2 0xA0F1 JUMPI POP PUSH1 0x1 JUMPDEST PUSH2 0xA134 JUMP JUMPDEST PUSH2 0xA0FF DUP9 PUSH2 0xA438 JUMP JUMPDEST SWAP5 POP PUSH2 0xA10A DUP8 PUSH2 0xA438 JUMP JUMPDEST SWAP4 POP DUP11 DUP1 ISZERO PUSH2 0xA118 JUMPI POP DUP4 DUP6 LT JUMPDEST DUP1 PUSH2 0xA12B JUMPI POP DUP11 ISZERO DUP1 ISZERO PUSH2 0xA12B JUMPI POP DUP4 DUP6 GT JUMPDEST ISZERO PUSH2 0xA134 JUMPI POP PUSH1 0x1 JUMPDEST DUP1 ISZERO PUSH2 0xA1C2 JUMPI DUP13 DUP3 DUP2 MLOAD DUP2 LT PUSH2 0xA14C JUMPI PUSH2 0xA14C PUSH2 0xC255 JUMP JUMPDEST PUSH1 0x20 MUL PUSH1 0x20 ADD ADD MLOAD SWAP6 POP DUP13 DUP3 PUSH1 0x1 PUSH2 0xA164 SWAP2 SWAP1 PUSH2 0xC332 JUMP JUMPDEST DUP2 MLOAD DUP2 LT PUSH2 0xA174 JUMPI PUSH2 0xA174 PUSH2 0xC255 JUMP JUMPDEST PUSH1 0x20 MUL PUSH1 0x20 ADD ADD MLOAD DUP14 DUP4 DUP2 MLOAD DUP2 LT PUSH2 0xA18E JUMPI PUSH2 0xA18E PUSH2 0xC255 JUMP JUMPDEST PUSH1 0x20 SWAP1 DUP2 MUL SWAP2 SWAP1 SWAP2 ADD ADD MSTORE DUP6 DUP14 PUSH2 0xA1A6 DUP5 PUSH1 0x1 PUSH2 0xC332 JUMP JUMPDEST DUP2 MLOAD DUP2 LT PUSH2 0xA1B6 JUMPI PUSH2 0xA1B6 PUSH2 0xC255 JUMP JUMPDEST PUSH1 0x20 MUL PUSH1 0x20 ADD ADD DUP2 SWAP1 MSTORE POP JUMPDEST POP PUSH1 0x1 ADD PUSH2 0xA010 JUMP JUMPDEST POP PUSH1 0x1 ADD PUSH2 0x9FFC JUMP JUMPDEST POP SWAP9 SWAP10 SWAP9 POP POP POP POP POP POP POP POP POP JUMP JUMPDEST PUSH0 DUP1 PUSH19 0x184F03E93FF9F4DAA797ED6E38ED64BF6A1F01 PUSH1 0x40 SHL DUP4 LT PUSH2 0xA221 JUMPI PUSH19 0x184F03E93FF9F4DAA797ED6E38ED64BF6A1F01 PUSH1 0x40 SHL DUP4 DIV SWAP3 POP PUSH1 0x40 ADD JUMPDEST PUSH14 0x4EE2D6D415B85ACEF8100000000 DUP4 LT PUSH2 0xA24D JUMPI PUSH14 0x4EE2D6D415B85ACEF8100000000 DUP4 DIV SWAP3 POP PUSH1 0x20 ADD JUMPDEST PUSH7 0x2386F26FC10000 DUP4 LT PUSH2 0xA26B JUMPI PUSH7 0x2386F26FC10000 DUP4 DIV SWAP3 POP PUSH1 0x10 ADD JUMPDEST PUSH4 0x5F5E100 DUP4 LT PUSH2 0xA283 JUMPI PUSH4 0x5F5E100 DUP4 DIV SWAP3 POP PUSH1 0x8 ADD JUMPDEST PUSH2 0x2710 DUP4 LT PUSH2 0xA297 JUMPI PUSH2 0x2710 DUP4 DIV SWAP3 POP PUSH1 0x4 ADD JUMPDEST PUSH1 0x64 DUP4 LT PUSH2 0xA2A9 JUMPI PUSH1 0x64 DUP4 DIV SWAP3 POP PUSH1 0x2 ADD JUMPDEST PUSH1 0xA DUP4 LT PUSH2 0x1038 JUMPI PUSH1 0x1 ADD SWAP3 SWAP2 POP POP JUMP JUMPDEST PUSH1 0x1 PUSH1 0x1 PUSH1 0xA0 SHL SUB DUP3 AND PUSH0 SWAP1 DUP2 MSTORE PUSH1 0xB PUSH1 0x20 MSTORE PUSH1 0x40 DUP2 KECCAK256 SWAP1 JUMPDEST DUP2 SLOAD DUP2 LT ISZERO PUSH2 0xA374 JUMPI DUP3 DUP3 DUP3 DUP2 SLOAD DUP2 LT PUSH2 0xA2EF JUMPI PUSH2 0xA2EF PUSH2 0xC255 JUMP JUMPDEST SWAP1 PUSH0 MSTORE PUSH1 0x20 PUSH0 KECCAK256 ADD SLOAD SUB PUSH2 0xA36C JUMPI DUP2 SLOAD DUP3 SWAP1 PUSH2 0xA30D SWAP1 PUSH1 0x1 SWAP1 PUSH2 0xC30B JUMP JUMPDEST DUP2 SLOAD DUP2 LT PUSH2 0xA31D JUMPI PUSH2 0xA31D PUSH2 0xC255 JUMP JUMPDEST SWAP1 PUSH0 MSTORE PUSH1 0x20 PUSH0 KECCAK256 ADD SLOAD DUP3 DUP3 DUP2 SLOAD DUP2 LT PUSH2 0xA338 JUMPI PUSH2 0xA338 PUSH2 0xC255 JUMP JUMPDEST SWAP1 PUSH0 MSTORE PUSH1 0x20 PUSH0 KECCAK256 ADD DUP2 SWAP1 SSTORE POP DUP2 DUP1 SLOAD DUP1 PUSH2 0xA354 JUMPI PUSH2 0xA354 PUSH2 0xC31E JUMP JUMPDEST PUSH1 0x1 SWAP1 SUB DUP2 DUP2 SWAP1 PUSH0 MSTORE PUSH1 0x20 PUSH0 KECCAK256 ADD PUSH0 SWAP1 SSTORE SWAP1 SSTORE PUSH2 0xA374 JUMP JUMPDEST PUSH1 0x1 ADD PUSH2 0xA2D3 JUMP JUMPDEST POP POP POP POP JUMP JUMPDEST PUSH0 PUSH1 0x41 PUSH1 0xF8 DUP4 SWAP1 SHR LT DUP1 ISZERO SWAP1 PUSH2 0xA395 JUMPI POP PUSH1 0x5A PUSH1 0xF8 DUP4 SWAP1 SHR GT ISZERO JUMPDEST ISZERO PUSH2 0xA3B2 JUMPI PUSH2 0xA3A9 PUSH1 0xF8 DUP4 SWAP1 SHR PUSH1 0x20 PUSH2 0xCA72 JUMP JUMPDEST PUSH1 0xF8 SHL SWAP3 SWAP2 POP POP JUMP JUMPDEST POP SWAP1 JUMP JUMPDEST PUSH0 DUP1 PUSH0 NOT SWAP1 POP PUSH2 0xA3E9 PUSH1 0x40 MLOAD DUP1 PUSH1 0xA0 ADD PUSH1 0x40 MSTORE DUP1 PUSH0 DUP2 MSTORE PUSH1 0x20 ADD PUSH0 DUP2 MSTORE PUSH1 0x20 ADD PUSH0 DUP2 MSTORE PUSH1 0x20 ADD PUSH0 DUP2 MSTORE PUSH1 0x20 ADD PUSH0 DUP2 MSTORE POP SWAP1 JUMP JUMPDEST PUSH0 JUMPDEST DUP5 PUSH1 0x20 ADD MLOAD MLOAD DUP2 LT ISZERO PUSH2 0x8BCB JUMPI DUP5 PUSH1 0x20 ADD MLOAD DUP2 DUP2 MLOAD DUP2 LT PUSH2 0xA40E JUMPI PUSH2 0xA40E PUSH2 0xC255 JUMP JUMPDEST PUSH1 0x20 MUL PUSH1 0x20 ADD ADD MLOAD PUSH1 0x20 ADD MLOAD SWAP2 POP DUP3 DUP3 PUSH1 0x20 ADD MLOAD LT ISZERO PUSH2 0xA430 JUMPI DUP2 PUSH1 0x20 ADD MLOAD SWAP3 POP JUMPDEST PUSH1 0x1 ADD PUSH2 0xA3EB JUMP JUMPDEST PUSH0 DUP1 PUSH0 SWAP1 POP PUSH2 0xA46A PUSH1 0x40 MLOAD DUP1 PUSH1 0xA0 ADD PUSH1 0x40 MSTORE DUP1 PUSH0 DUP2 MSTORE PUSH1 0x20 ADD PUSH0 DUP2 MSTORE PUSH1 0x20 ADD PUSH0 DUP2 MSTORE PUSH1 0x20 ADD PUSH0 DUP2 MSTORE PUSH1 0x20 ADD PUSH0 DUP2 MSTORE POP SWAP1 JUMP JUMPDEST PUSH0 JUMPDEST DUP5 PUSH1 0x20 ADD MLOAD MLOAD DUP2 LT ISZERO PUSH2 0x8BCB JUMPI DUP5 PUSH1 0x20 ADD MLOAD DUP2 DUP2 MLOAD DUP2 LT PUSH2 0xA48F JUMPI PUSH2 0xA48F PUSH2 0xC255 JUMP JUMPDEST PUSH1 0x20 MUL PUSH1 0x20 ADD ADD MLOAD PUSH1 0x20 ADD MLOAD SWAP2 POP DUP3 DUP3 PUSH1 0x20 ADD MLOAD GT ISZERO PUSH2 0xA4B1 JUMPI DUP2 PUSH1 0x20 ADD MLOAD SWAP3 POP JUMPDEST PUSH1 0x1 ADD PUSH2 0xA46C JUMP JUMPDEST PUSH1 0x40 MLOAD DUP1 PUSH1 0x40 ADD PUSH1 0x40 MSTORE DUP1 PUSH0 DUP1 NOT AND DUP2 MSTORE PUSH1 0x20 ADD PUSH2 0xA4FA PUSH1 0x40 MLOAD DUP1 PUSH1 0xA0 ADD PUSH1 0x40 MSTORE DUP1 PUSH0 DUP2 MSTORE PUSH1 0x20 ADD PUSH0 DUP2 MSTORE PUSH1 0x20 ADD PUSH0 DUP2 MSTORE PUSH1 0x20 ADD PUSH0 DUP2 MSTORE PUSH1 0x20 ADD PUSH0 DUP2 MSTORE POP SWAP1 JUMP JUMPDEST SWAP1 MSTORE SWAP1 JUMP JUMPDEST PUSH1 0x40 MLOAD DUP1 PUSH2 0x100 ADD PUSH1 0x40 MSTORE DUP1 PUSH0 DUP2 MSTORE PUSH1 0x20 ADD PUSH0 PUSH1 0x1 PUSH1 0x1 PUSH1 0xA0 SHL SUB AND DUP2 MSTORE PUSH1 0x20 ADD PUSH1 0x60 DUP2 MSTORE PUSH1 0x20 ADD PUSH1 0x60 DUP2 MSTORE PUSH1 0x20 ADD PUSH0 PUSH1 0xFF AND DUP2 MSTORE PUSH1 0x20 ADD PUSH0 DUP2 MSTORE PUSH1 0x20 ADD PUSH0 DUP2 MSTORE PUSH1 0x20 ADD PUSH0 DUP2 MSTORE POP SWAP1 JUMP JUMPDEST POP DUP1 SLOAD PUSH2 0xA556 SWAP1 PUSH2 0xC269 JUMP JUMPDEST PUSH0 DUP3 SSTORE DUP1 PUSH1 0x1F LT PUSH2 0xA565 JUMPI POP POP JUMP JUMPDEST PUSH1 0x1F ADD PUSH1 0x20 SWAP1 DIV SWAP1 PUSH0 MSTORE PUSH1 0x20 PUSH0 KECCAK256 SWAP1 DUP2 ADD SWAP1 PUSH2 0xA581 SWAP2 SWAP1 PUSH2 0xA76F JUMP JUMPDEST POP JUMP JUMPDEST PUSH1 0x40 MLOAD DUP1 PUSH1 0x60 ADD PUSH1 0x40 MSTORE DUP1 PUSH2 0xA597 PUSH2 0xA640 JUMP JUMPDEST DUP2 MSTORE PUSH1 0x20 ADD PUSH1 0x60 DUP2 MSTORE PUSH1 0x20 ADD PUSH1 0x60 DUP2 MSTORE POP SWAP1 JUMP JUMPDEST DUP3 DUP1 SLOAD DUP3 DUP3 SSTORE SWAP1 PUSH0 MSTORE PUSH1 0x20 PUSH0 KECCAK256 SWAP1 DUP2 ADD SWAP3 DUP3 ISZERO PUSH2 0xA5E4 JUMPI SWAP2 PUSH1 0x20 MUL DUP3 ADD JUMPDEST DUP3 DUP2 GT ISZERO PUSH2 0xA5E4 JUMPI DUP3 MLOAD DUP3 SSTORE SWAP2 PUSH1 0x20 ADD SWAP2 SWAP1 PUSH1 0x1 ADD SWAP1 PUSH2 0xA5C9 JUMP JUMPDEST POP PUSH2 0xA3B2 SWAP3 SWAP2 POP PUSH2 0xA76F JUMP JUMPDEST DUP3 DUP1 SLOAD DUP3 DUP3 SSTORE SWAP1 PUSH0 MSTORE PUSH1 0x20 PUSH0 KECCAK256 SWAP1 DUP2 ADD SWAP3 DUP3 ISZERO PUSH2 0xA634 JUMPI SWAP2 PUSH1 0x20 MUL DUP3 ADD JUMPDEST DUP3 DUP2 GT ISZERO PUSH2 0xA634 JUMPI DUP3 MLOAD DUP3 SWAP1 PUSH2 0xA624 SWAP1 DUP3 PUSH2 0xC489 JUMP JUMPDEST POP SWAP2 PUSH1 0x20 ADD SWAP2 SWAP1 PUSH1 0x1 ADD SWAP1 PUSH2 0xA60E JUMP JUMPDEST POP PUSH2 0xA3B2 SWAP3 SWAP2 POP PUSH2 0xA783 JUMP JUMPDEST PUSH1 0x40 MLOAD DUP1 PUSH1 0x80 ADD PUSH1 0x40 MSTORE DUP1 PUSH0 DUP2 MSTORE PUSH1 0x20 ADD PUSH2 0xA709 PUSH1 0x40 MLOAD DUP1 PUSH2 0x300 ADD PUSH1 0x40 MSTORE DUP1 PUSH1 0x60 DUP2 MSTORE PUSH1 0x20 ADD PUSH0 DUP2 MSTORE PUSH1 0x20 ADD PUSH1 0x60 DUP2 MSTORE PUSH1 0x20 ADD PUSH0 DUP2 MSTORE PUSH1 0x20 ADD PUSH0 DUP2 MSTORE PUSH1 0x20 ADD PUSH0 DUP2 MSTORE PUSH1 0x20 ADD PUSH0 DUP2 MSTORE PUSH1 0x20 ADD PUSH1 0x60 DUP2 MSTORE PUSH1 0x20 ADD PUSH1 0x60 DUP2 MSTORE PUSH1 0x20 ADD PUSH0 DUP2 MSTORE PUSH1 0x20 ADD PUSH0 DUP2 MSTORE PUSH1 0x20 ADD PUSH1 0x60 DUP2 MSTORE PUSH1 0x20 ADD PUSH0 PUSH1 0x1 PUSH1 0x1 PUSH1 0xA0 SHL SUB AND DUP2 MSTORE PUSH1 0x20 ADD PUSH1 0x60 DUP2 MSTORE PUSH1 0x20 ADD PUSH1 0x60 DUP2 MSTORE PUSH1 0x20 ADD PUSH0 ISZERO ISZERO DUP2 MSTORE PUSH1 0x20 ADD PUSH1 0x60 DUP2 MSTORE PUSH1 0x20 ADD PUSH1 0x60 DUP2 MSTORE PUSH1 0x20 ADD PUSH0 DUP2 MSTORE PUSH1 0x20 ADD PUSH0 DUP2 MSTORE PUSH1 0x20 ADD PUSH0 DUP2 MSTORE PUSH1 0x20 ADD PUSH0 ISZERO ISZERO DUP2 MSTORE PUSH1 0x20 ADD PUSH0 ISZERO ISZERO DUP2 MSTORE PUSH1 0x20 ADD PUSH0 DUP2 MSTORE POP SWAP1 JUMP JUMPDEST DUP2 MSTORE PUSH1 0x20 ADD PUSH0 DUP2 MSTORE PUSH1 0x20 ADD PUSH0 DUP2 MSTORE POP SWAP1 JUMP JUMPDEST POP DUP1 SLOAD PUSH0 DUP3 SSTORE PUSH1 0x3 MUL SWAP1 PUSH0 MSTORE PUSH1 0x20 PUSH0 KECCAK256 SWAP1 DUP2 ADD SWAP1 PUSH2 0xA581 SWAP2 SWAP1 PUSH2 0xA79F JUMP JUMPDEST POP DUP1 SLOAD PUSH0 DUP3 SSTORE SWAP1 PUSH0 MSTORE PUSH1 0x20 PUSH0 KECCAK256 SWAP1 DUP2 ADD SWAP1 PUSH2 0xA581 SWAP2 SWAP1 PUSH2 0xA76F JUMP JUMPDEST POP DUP1 SLOAD PUSH0 DUP3 SSTORE SWAP1 PUSH0 MSTORE PUSH1 0x20 PUSH0 KECCAK256 SWAP1 DUP2 ADD SWAP1 PUSH2 0xA581 SWAP2 SWAP1 PUSH2 0xA783 JUMP JUMPDEST JUMPDEST DUP1 DUP3 GT ISZERO PUSH2 0xA3B2 JUMPI PUSH0 DUP2 SSTORE PUSH1 0x1 ADD PUSH2 0xA770 JUMP JUMPDEST DUP1 DUP3 GT ISZERO PUSH2 0xA3B2 JUMPI PUSH0 PUSH2 0xA796 DUP3 DUP3 PUSH2 0xA54A JUMP JUMPDEST POP PUSH1 0x1 ADD PUSH2 0xA783 JUMP JUMPDEST DUP1 DUP3 GT ISZERO PUSH2 0xA3B2 JUMPI PUSH0 DUP1 DUP3 SSTORE PUSH2 0xA7B8 PUSH1 0x1 DUP4 ADD DUP3 PUSH2 0xA54A JUMP JUMPDEST PUSH2 0xA7C5 PUSH1 0x2 DUP4 ADD PUSH0 PUSH2 0xA54A JUMP JUMPDEST POP PUSH1 0x3 ADD PUSH2 0xA79F JUMP JUMPDEST PUSH0 DUP1 PUSH1 0x40 DUP4 DUP6 SUB SLT ISZERO PUSH2 0xA7DF JUMPI PUSH0 DUP1 REVERT JUMPDEST POP POP DUP1 CALLDATALOAD SWAP3 PUSH1 0x20 SWAP1 SWAP2 ADD CALLDATALOAD SWAP2 POP JUMP JUMPDEST DUP1 MLOAD DUP3 MSTORE PUSH1 0x20 DUP2 ADD MLOAD PUSH2 0x346A PUSH1 0x20 DUP5 ADD DUP3 DUP1 MLOAD DUP3 MSTORE PUSH1 0x20 DUP2 ADD MLOAD PUSH1 0x20 DUP4 ADD MSTORE PUSH1 0x40 DUP2 ADD MLOAD PUSH1 0x40 DUP4 ADD MSTORE PUSH1 0x60 DUP2 ADD MLOAD PUSH1 0x60 DUP4 ADD MSTORE PUSH1 0x80 DUP2 ADD MLOAD PUSH1 0x80 DUP4 ADD MSTORE POP POP JUMP JUMPDEST PUSH1 0xC0 DUP2 ADD PUSH2 0x1038 DUP3 DUP5 PUSH2 0xA7EE JUMP JUMPDEST PUSH0 PUSH1 0x20 DUP3 DUP5 SUB SLT ISZERO PUSH2 0xA84D JUMPI PUSH0 DUP1 REVERT JUMPDEST POP CALLDATALOAD SWAP2 SWAP1 POP JUMP JUMPDEST PUSH0 DUP2 MLOAD DUP1 DUP5 MSTORE DUP1 PUSH1 0x20 DUP5 ADD PUSH1 0x20 DUP7 ADD MCOPY PUSH0 PUSH1 0x20 DUP3 DUP7 ADD ADD MSTORE PUSH1 0x20 PUSH1 0x1F NOT PUSH1 0x1F DUP4 ADD AND DUP6 ADD ADD SWAP2 POP POP SWAP3 SWAP2 POP POP JUMP JUMPDEST DUP1 MLOAD DUP3 MSTORE PUSH1 0x1 DUP1 PUSH1 0xA0 SHL SUB PUSH1 0x20 DUP3 ADD MLOAD AND PUSH1 0x20 DUP4 ADD MSTORE PUSH0 PUSH1 0x40 DUP3 ADD MLOAD PUSH2 0x100 PUSH1 0x40 DUP6 ADD MSTORE PUSH2 0xA8B4 PUSH2 0x100 DUP6 ADD DUP3 PUSH2 0xA854 JUMP JUMPDEST SWAP1 POP PUSH1 0x60 DUP4 ADD MLOAD DUP5 DUP3 SUB PUSH1 0x60 DUP7 ADD MSTORE PUSH2 0xA8CD DUP3 DUP3 PUSH2 0xA854 JUMP JUMPDEST SWAP2 POP POP PUSH1 0x80 DUP4 ADD MLOAD PUSH2 0xA8E4 PUSH1 0x80 DUP7 ADD DUP3 PUSH1 0xFF AND SWAP1 MSTORE JUMP JUMPDEST POP PUSH1 0xA0 DUP4 ADD MLOAD PUSH1 0xA0 DUP6 ADD MSTORE PUSH1 0xC0 DUP4 ADD MLOAD PUSH1 0xC0 DUP6 ADD MSTORE PUSH1 0xE0 DUP4 ADD MLOAD PUSH1 0xE0 DUP6 ADD MSTORE DUP1 SWAP2 POP POP SWAP3 SWAP2 POP POP JUMP JUMPDEST PUSH0 DUP3 DUP3 MLOAD DUP1 DUP6 MSTORE PUSH1 0x20 DUP6 ADD SWAP5 POP PUSH1 0x20 DUP2 PUSH1 0x5 SHL DUP4 ADD ADD PUSH1 0x20 DUP6 ADD PUSH0 JUMPDEST DUP4 DUP2 LT ISZERO PUSH2 0xA95B JUMPI PUSH1 0x1F NOT DUP6 DUP5 SUB ADD DUP9 MSTORE PUSH2 0xA945 DUP4 DUP4 MLOAD PUSH2 0xA882 JUMP JUMPDEST PUSH1 0x20 SWAP9 DUP10 ADD SWAP9 SWAP1 SWAP4 POP SWAP2 SWAP1 SWAP2 ADD SWAP1 PUSH1 0x1 ADD PUSH2 0xA929 JUMP JUMPDEST POP SWAP1 SWAP7 SWAP6 POP POP POP POP POP POP JUMP JUMPDEST PUSH1 0x20 DUP2 MSTORE PUSH0 PUSH2 0x69F3 PUSH1 0x20 DUP4 ADD DUP5 PUSH2 0xA90D JUMP JUMPDEST PUSH1 0x20 DUP2 MSTORE PUSH0 PUSH2 0x69F3 PUSH1 0x20 DUP4 ADD DUP5 PUSH2 0xA882 JUMP JUMPDEST PUSH4 0x4E487B71 PUSH1 0xE0 SHL PUSH0 MSTORE PUSH1 0x41 PUSH1 0x4 MSTORE PUSH1 0x24 PUSH0 REVERT JUMPDEST PUSH1 0x40 MLOAD PUSH2 0x300 DUP2 ADD PUSH1 0x1 PUSH1 0x1 PUSH1 0x40 SHL SUB DUP2 GT DUP3 DUP3 LT OR ISZERO PUSH2 0xA9C2 JUMPI PUSH2 0xA9C2 PUSH2 0xA98B JUMP JUMPDEST PUSH1 0x40 MSTORE SWAP1 JUMP JUMPDEST PUSH1 0x40 MLOAD PUSH1 0x60 DUP2 ADD PUSH1 0x1 PUSH1 0x1 PUSH1 0x40 SHL SUB DUP2 GT DUP3 DUP3 LT OR ISZERO PUSH2 0xA9C2 JUMPI PUSH2 0xA9C2 PUSH2 0xA98B JUMP JUMPDEST PUSH1 0x40 DUP1 MLOAD SWAP1 DUP2 ADD PUSH1 0x1 PUSH1 0x1 PUSH1 0x40 SHL SUB DUP2 GT DUP3 DUP3 LT OR ISZERO PUSH2 0xA9C2 JUMPI PUSH2 0xA9C2 PUSH2 0xA98B JUMP JUMPDEST PUSH1 0x40 MLOAD PUSH1 0x80 DUP2 ADD PUSH1 0x1 PUSH1 0x1 PUSH1 0x40 SHL SUB DUP2 GT DUP3 DUP3 LT OR ISZERO PUSH2 0xA9C2 JUMPI PUSH2 0xA9C2 PUSH2 0xA98B JUMP JUMPDEST PUSH1 0x40 MLOAD PUSH2 0x140 DUP2 ADD PUSH1 0x1 PUSH1 0x1 PUSH1 0x40 SHL SUB DUP2 GT DUP3 DUP3 LT OR ISZERO PUSH2 0xA9C2 JUMPI PUSH2 0xA9C2 PUSH2 0xA98B JUMP JUMPDEST PUSH1 0x40 MLOAD PUSH1 0x1F DUP3 ADD PUSH1 0x1F NOT AND DUP2 ADD PUSH1 0x1 PUSH1 0x1 PUSH1 0x40 SHL SUB DUP2 GT DUP3 DUP3 LT OR ISZERO PUSH2 0xAA79 JUMPI PUSH2 0xAA79 PUSH2 0xA98B JUMP JUMPDEST PUSH1 0x40 MSTORE SWAP2 SWAP1 POP JUMP JUMPDEST PUSH0 DUP3 PUSH1 0x1F DUP4 ADD SLT PUSH2 0xAA90 JUMPI PUSH0 DUP1 REVERT JUMPDEST DUP2 CALLDATALOAD PUSH1 0x20 DUP4 ADD PUSH0 DUP1 PUSH1 0x1 PUSH1 0x1 PUSH1 0x40 SHL SUB DUP5 GT ISZERO PUSH2 0xAAAF JUMPI PUSH2 0xAAAF PUSH2 0xA98B JUMP JUMPDEST POP PUSH1 0x1F DUP4 ADD PUSH1 0x1F NOT AND PUSH1 0x20 ADD PUSH2 0xAAC4 DUP2 PUSH2 0xAA51 JUMP JUMPDEST SWAP2 POP POP DUP3 DUP2 MSTORE DUP6 DUP4 DUP4 ADD GT ISZERO PUSH2 0xAAD8 JUMPI PUSH0 DUP1 REVERT JUMPDEST DUP3 DUP3 PUSH1 0x20 DUP4 ADD CALLDATACOPY PUSH0 SWAP3 DUP2 ADD PUSH1 0x20 ADD SWAP3 SWAP1 SWAP3 MSTORE POP SWAP4 SWAP3 POP POP POP JUMP JUMPDEST PUSH0 PUSH1 0x20 DUP3 DUP5 SUB SLT ISZERO PUSH2 0xAB02 JUMPI PUSH0 DUP1 REVERT JUMPDEST DUP2 CALLDATALOAD PUSH1 0x1 PUSH1 0x1 PUSH1 0x40 SHL SUB DUP2 GT ISZERO PUSH2 0xAB17 JUMPI PUSH0 DUP1 REVERT JUMPDEST PUSH2 0xAB23 DUP5 DUP3 DUP6 ADD PUSH2 0xAA81 JUMP JUMPDEST SWAP5 SWAP4 POP POP POP POP JUMP JUMPDEST DUP1 CALLDATALOAD PUSH1 0x1 PUSH1 0x1 PUSH1 0xA0 SHL SUB DUP2 AND DUP2 EQ PUSH2 0x3730 JUMPI PUSH0 DUP1 REVERT JUMPDEST PUSH0 DUP1 PUSH1 0x40 DUP4 DUP6 SUB SLT ISZERO PUSH2 0xAB52 JUMPI PUSH0 DUP1 REVERT JUMPDEST PUSH2 0xAB5B DUP4 PUSH2 0xAB2B JUMP JUMPDEST SWAP5 PUSH1 0x20 SWAP4 SWAP1 SWAP4 ADD CALLDATALOAD SWAP4 POP POP POP JUMP JUMPDEST PUSH1 0x20 DUP1 DUP3 MSTORE DUP3 MLOAD DUP3 DUP3 ADD DUP2 SWAP1 MSTORE PUSH0 SWAP2 DUP5 ADD SWAP1 PUSH1 0x40 DUP5 ADD SWAP1 DUP4 JUMPDEST DUP2 DUP2 LT ISZERO PUSH2 0xABAC JUMPI DUP4 MLOAD DUP1 MLOAD DUP5 MSTORE PUSH1 0x20 SWAP1 DUP2 ADD MLOAD DUP2 DUP6 ADD MSTORE SWAP1 SWAP4 ADD SWAP3 PUSH1 0x40 SWAP1 SWAP3 ADD SWAP2 PUSH1 0x1 ADD PUSH2 0xAB82 JUMP JUMPDEST POP SWAP1 SWAP6 SWAP5 POP POP POP POP POP JUMP JUMPDEST DUP1 MLOAD DUP3 MSTORE PUSH0 PUSH1 0x20 DUP3 ADD MLOAD PUSH1 0x60 PUSH1 0x20 DUP6 ADD MSTORE PUSH2 0xABD5 PUSH1 0x60 DUP6 ADD DUP3 PUSH2 0xA854 JUMP JUMPDEST SWAP1 POP PUSH1 0x40 DUP4 ADD MLOAD DUP5 DUP3 SUB PUSH1 0x40 DUP7 ADD MSTORE PUSH2 0xABEE DUP3 DUP3 PUSH2 0xA854 JUMP JUMPDEST SWAP6 SWAP5 POP POP POP POP POP JUMP JUMPDEST PUSH0 DUP3 DUP3 MLOAD DUP1 DUP6 MSTORE PUSH1 0x20 DUP6 ADD SWAP5 POP PUSH1 0x20 DUP2 PUSH1 0x5 SHL DUP4 ADD ADD PUSH1 0x20 DUP6 ADD PUSH0 JUMPDEST DUP4 DUP2 LT ISZERO PUSH2 0xA95B JUMPI PUSH1 0x1F NOT DUP6 DUP5 SUB ADD DUP9 MSTORE PUSH2 0xAC2F DUP4 DUP4 MLOAD PUSH2 0xABB7 JUMP JUMPDEST PUSH1 0x20 SWAP9 DUP10 ADD SWAP9 SWAP1 SWAP4 POP SWAP2 SWAP1 SWAP2 ADD SWAP1 PUSH1 0x1 ADD PUSH2 0xAC13 JUMP JUMPDEST PUSH1 0x20 DUP2 MSTORE PUSH0 PUSH2 0x69F3 PUSH1 0x20 DUP4 ADD DUP5 PUSH2 0xABF7 JUMP JUMPDEST PUSH0 PUSH1 0x1 PUSH1 0x1 PUSH1 0x40 SHL SUB DUP3 GT ISZERO PUSH2 0xAC6F JUMPI PUSH2 0xAC6F PUSH2 0xA98B JUMP JUMPDEST POP PUSH1 0x5 SHL PUSH1 0x20 ADD SWAP1 JUMP JUMPDEST PUSH0 DUP3 PUSH1 0x1F DUP4 ADD SLT PUSH2 0xAC88 JUMPI PUSH0 DUP1 REVERT JUMPDEST DUP2 CALLDATALOAD PUSH2 0xAC9B PUSH2 0xAC96 DUP3 PUSH2 0xAC57 JUMP JUMPDEST PUSH2 0xAA51 JUMP JUMPDEST DUP1 DUP3 DUP3 MSTORE PUSH1 0x20 DUP3 ADD SWAP2 POP PUSH1 0x20 DUP4 PUSH1 0x5 SHL DUP7 ADD ADD SWAP3 POP DUP6 DUP4 GT ISZERO PUSH2 0xACBC JUMPI PUSH0 DUP1 REVERT JUMPDEST PUSH1 0x20 DUP6 ADD JUMPDEST DUP4 DUP2 LT ISZERO PUSH2 0x9FBF JUMPI DUP1 CALLDATALOAD DUP4 MSTORE PUSH1 0x20 SWAP3 DUP4 ADD SWAP3 ADD PUSH2 0xACC1 JUMP JUMPDEST PUSH0 PUSH1 0x20 DUP3 DUP5 SUB SLT ISZERO PUSH2 0xACE9 JUMPI PUSH0 DUP1 REVERT JUMPDEST DUP2 CALLDATALOAD PUSH1 0x1 PUSH1 0x1 PUSH1 0x40 SHL SUB DUP2 GT ISZERO PUSH2 0xACFE JUMPI PUSH0 DUP1 REVERT JUMPDEST PUSH2 0xAB23 DUP5 DUP3 DUP6 ADD PUSH2 0xAC79 JUMP JUMPDEST PUSH0 PUSH1 0x20 DUP3 DUP5 SUB SLT ISZERO PUSH2 0xAD1A JUMPI PUSH0 DUP1 REVERT JUMPDEST PUSH2 0x69F3 DUP3 PUSH2 0xAB2B JUMP JUMPDEST PUSH0 DUP2 MLOAD DUP1 DUP5 MSTORE PUSH1 0x20 DUP5 ADD SWAP4 POP PUSH1 0x20 DUP4 ADD PUSH0 JUMPDEST DUP3 DUP2 LT ISZERO PUSH2 0xAD53 JUMPI DUP2 MLOAD DUP7 MSTORE PUSH1 0x20 SWAP6 DUP7 ADD SWAP6 SWAP1 SWAP2 ADD SWAP1 PUSH1 0x1 ADD PUSH2 0xAD35 JUMP JUMPDEST POP SWAP4 SWAP5 SWAP4 POP POP POP POP JUMP JUMPDEST PUSH0 DUP3 DUP3 MLOAD DUP1 DUP6 MSTORE PUSH1 0x20 DUP6 ADD SWAP5 POP PUSH1 0x20 DUP2 PUSH1 0x5 SHL DUP4 ADD ADD PUSH1 0x20 DUP6 ADD PUSH0 JUMPDEST DUP4 DUP2 LT ISZERO PUSH2 0xA95B JUMPI PUSH1 0x1F NOT DUP6 DUP5 SUB ADD DUP9 MSTORE PUSH2 0xAD95 DUP4 DUP4 MLOAD PUSH2 0xA854 JUMP JUMPDEST PUSH1 0x20 SWAP9 DUP10 ADD SWAP9 SWAP1 SWAP4 POP SWAP2 SWAP1 SWAP2 ADD SWAP1 PUSH1 0x1 ADD PUSH2 0xAD79 JUMP JUMPDEST PUSH0 DUP2 MLOAD PUSH2 0x300 DUP5 MSTORE PUSH2 0xADC1 PUSH2 0x300 DUP6 ADD DUP3 PUSH2 0xA854 JUMP JUMPDEST SWAP1 POP PUSH1 0x20 DUP4 ADD MLOAD PUSH1 0x20 DUP6 ADD MSTORE PUSH1 0x40 DUP4 ADD MLOAD DUP5 DUP3 SUB PUSH1 0x40 DUP7 ADD MSTORE PUSH2 0xADE4 DUP3 DUP3 PUSH2 0xA854 JUMP JUMPDEST SWAP2 POP POP PUSH1 0x60 DUP4 ADD MLOAD PUSH1 0x60 DUP6 ADD MSTORE PUSH1 0x80 DUP4 ADD MLOAD PUSH1 0x80 DUP6 ADD MSTORE PUSH1 0xA0 DUP4 ADD MLOAD PUSH1 0xA0 DUP6 ADD MSTORE PUSH1 0xC0 DUP4 ADD MLOAD PUSH1 0xC0 DUP6 ADD MSTORE PUSH1 0xE0 DUP4 ADD MLOAD DUP5 DUP3 SUB PUSH1 0xE0 DUP7 ADD MSTORE PUSH2 0xAE26 DUP3 DUP3 PUSH2 0xAD23 JUMP JUMPDEST SWAP2 POP POP PUSH2 0x100 DUP4 ADD MLOAD DUP5 DUP3 SUB PUSH2 0x100 DUP7 ADD MSTORE PUSH2 0xAE42 DUP3 DUP3 PUSH2 0xAD5D JUMP JUMPDEST SWAP2 POP POP PUSH2 0x120 DUP4 ADD MLOAD PUSH2 0x120 DUP6 ADD MSTORE PUSH2 0x140 DUP4 ADD MLOAD PUSH2 0x140 DUP6 ADD MSTORE PUSH2 0x160 DUP4 ADD MLOAD DUP5 DUP3 SUB PUSH2 0x160 DUP7 ADD MSTORE PUSH2 0xAE76 DUP3 DUP3 PUSH2 0xAD5D JUMP JUMPDEST SWAP2 POP POP PUSH2 0x180 DUP4 ADD MLOAD PUSH2 0xAE95 PUSH2 0x180 DUP7 ADD DUP3 PUSH1 0x1 PUSH1 0x1 PUSH1 0xA0 SHL SUB AND SWAP1 MSTORE JUMP JUMPDEST POP PUSH2 0x1A0 DUP4 ADD MLOAD DUP5 DUP3 SUB PUSH2 0x1A0 DUP7 ADD MSTORE PUSH2 0xAEAF DUP3 DUP3 PUSH2 0xA854 JUMP JUMPDEST SWAP2 POP POP PUSH2 0x1C0 DUP4 ADD MLOAD DUP5 DUP3 SUB PUSH2 0x1C0 DUP7 ADD MSTORE PUSH2 0xAECB DUP3 DUP3 PUSH2 0xA854 JUMP JUMPDEST SWAP2 POP POP PUSH2 0x1E0 DUP4 ADD MLOAD PUSH2 0xAEE3 PUSH2 0x1E0 DUP7 ADD DUP3 ISZERO ISZERO SWAP1 MSTORE JUMP JUMPDEST POP PUSH2 0x200 DUP4 ADD MLOAD DUP5 DUP3 SUB PUSH2 0x200 DUP7 ADD MSTORE PUSH2 0xAEFD DUP3 DUP3 PUSH2 0xAD5D JUMP JUMPDEST SWAP2 POP POP PUSH2 0x220 DUP4 ADD MLOAD DUP5 DUP3 SUB PUSH2 0x220 DUP7 ADD MSTORE PUSH2 0xAF19 DUP3 DUP3 PUSH2 0xA854 JUMP JUMPDEST SWAP2 POP POP PUSH2 0x240 DUP4 ADD MLOAD PUSH2 0x240 DUP6 ADD MSTORE PUSH2 0x260 DUP4 ADD MLOAD PUSH2 0x260 DUP6 ADD MSTORE PUSH2 0x280 DUP4 ADD MLOAD PUSH2 0x280 DUP6 ADD MSTORE PUSH2 0x2A0 DUP4 ADD MLOAD PUSH2 0xAF55 PUSH2 0x2A0 DUP7 ADD DUP3 ISZERO ISZERO SWAP1 MSTORE JUMP JUMPDEST POP PUSH2 0x2C0 DUP4 ADD MLOAD PUSH2 0xAF6B PUSH2 0x2C0 DUP7 ADD DUP3 ISZERO ISZERO SWAP1 MSTORE JUMP JUMPDEST POP PUSH2 0x2E0 DUP4 ADD MLOAD PUSH2 0x2E0 DUP6 ADD MSTORE DUP1 SWAP2 POP POP SWAP3 SWAP2 POP POP JUMP JUMPDEST DUP1 MLOAD DUP3 MSTORE PUSH0 PUSH1 0x20 DUP3 ADD MLOAD PUSH1 0x80 PUSH1 0x20 DUP6 ADD MSTORE PUSH2 0xAFA0 PUSH1 0x80 DUP6 ADD DUP3 PUSH2 0xADAB JUMP JUMPDEST SWAP1 POP PUSH1 0x40 DUP4 ADD MLOAD PUSH1 0x40 DUP6 ADD MSTORE PUSH1 0x60 DUP4 ADD MLOAD PUSH1 0x60 DUP6 ADD MSTORE DUP1 SWAP2 POP POP SWAP3 SWAP2 POP POP JUMP JUMPDEST PUSH0 DUP2 MLOAD PUSH1 0x60 DUP5 MSTORE PUSH2 0xAFD4 PUSH1 0x60 DUP6 ADD DUP3 PUSH2 0xAF82 JUMP JUMPDEST PUSH1 0x20 DUP5 DUP2 ADD MLOAD DUP7 DUP4 SUB DUP8 DUP4 ADD MSTORE DUP1 MLOAD DUP1 DUP5 MSTORE SWAP1 DUP3 ADD SWAP4 POP PUSH0 SWAP3 SWAP1 SWAP2 ADD SWAP1 JUMPDEST DUP1 DUP4 LT ISZERO PUSH2 0xB01C JUMPI PUSH2 0xB005 DUP3 DUP6 MLOAD PUSH2 0xA7EE JUMP JUMPDEST PUSH1 0xC0 DUP3 ADD SWAP2 POP PUSH1 0x20 DUP5 ADD SWAP4 POP PUSH1 0x1 DUP4 ADD SWAP3 POP PUSH2 0xAFF2 JUMP JUMPDEST POP PUSH1 0x40 DUP6 ADD MLOAD SWAP3 POP DUP6 DUP2 SUB PUSH1 0x40 DUP8 ADD MSTORE DUP1 SWAP2 POP DUP3 MLOAD DUP1 DUP3 MSTORE PUSH1 0x20 DUP3 ADD SWAP3 POP PUSH1 0x20 DUP2 PUSH1 0x5 SHL DUP4 ADD ADD PUSH1 0x20 DUP6 ADD SWAP5 POP PUSH0 JUMPDEST DUP3 DUP2 LT ISZERO PUSH2 0xB07C JUMPI PUSH1 0x1F NOT DUP5 DUP4 SUB ADD DUP6 MSTORE PUSH2 0xB067 DUP3 DUP8 MLOAD PUSH2 0xABF7 JUMP JUMPDEST PUSH1 0x20 SWAP7 DUP8 ADD SWAP7 SWAP6 SWAP1 SWAP6 ADD SWAP5 SWAP2 POP PUSH1 0x1 ADD PUSH2 0xB04B JUMP JUMPDEST POP SWAP8 SWAP7 POP POP POP POP POP POP POP JUMP JUMPDEST PUSH0 DUP3 DUP3 MLOAD DUP1 DUP6 MSTORE PUSH1 0x20 DUP6 ADD SWAP5 POP PUSH1 0x20 DUP2 PUSH1 0x5 SHL DUP4 ADD ADD PUSH1 0x20 DUP6 ADD PUSH0 JUMPDEST DUP4 DUP2 LT ISZERO PUSH2 0xA95B JUMPI PUSH1 0x1F NOT DUP6 DUP5 SUB ADD DUP9 MSTORE PUSH2 0xB0C0 DUP4 DUP4 MLOAD PUSH2 0xAFC0 JUMP JUMPDEST PUSH1 0x20 SWAP9 DUP10 ADD SWAP9 SWAP1 SWAP4 POP SWAP2 SWAP1 SWAP2 ADD SWAP1 PUSH1 0x1 ADD PUSH2 0xB0A4 JUMP JUMPDEST PUSH1 0x20 DUP2 MSTORE PUSH0 PUSH2 0x69F3 PUSH1 0x20 DUP4 ADD DUP5 PUSH2 0xB088 JUMP JUMPDEST PUSH0 DUP1 PUSH0 DUP1 PUSH1 0x80 DUP6 DUP8 SUB SLT ISZERO PUSH2 0xB0FB JUMPI PUSH0 DUP1 REVERT JUMPDEST POP POP DUP3 CALLDATALOAD SWAP5 PUSH1 0x20 DUP5 ADD CALLDATALOAD SWAP5 POP PUSH1 0x40 DUP5 ADD CALLDATALOAD SWAP4 PUSH1 0x60 ADD CALLDATALOAD SWAP3 POP SWAP1 POP JUMP JUMPDEST PUSH0 DUP1 PUSH1 0x40 DUP4 DUP6 SUB SLT ISZERO PUSH2 0xB128 JUMPI PUSH0 DUP1 REVERT JUMPDEST DUP3 CALLDATALOAD SWAP2 POP PUSH1 0x20 DUP4 ADD CALLDATALOAD PUSH1 0x1 PUSH1 0x1 PUSH1 0x40 SHL SUB DUP2 GT ISZERO PUSH2 0xB144 JUMPI PUSH0 DUP1 REVERT JUMPDEST PUSH2 0xB150 DUP6 DUP3 DUP7 ADD PUSH2 0xAA81 JUMP JUMPDEST SWAP2 POP POP SWAP3 POP SWAP3 SWAP1 POP JUMP JUMPDEST PUSH1 0x20 DUP2 MSTORE PUSH0 PUSH2 0x69F3 PUSH1 0x20 DUP4 ADD DUP5 PUSH2 0xA854 JUMP JUMPDEST DUP5 DUP2 MSTORE PUSH1 0x80 PUSH1 0x20 DUP3 ADD MSTORE PUSH0 PUSH2 0xB184 PUSH1 0x80 DUP4 ADD DUP7 PUSH2 0xADAB JUMP JUMPDEST PUSH1 0x40 DUP4 ADD SWAP5 SWAP1 SWAP5 MSTORE POP PUSH1 0x60 ADD MSTORE SWAP3 SWAP2 POP POP JUMP JUMPDEST PUSH0 DUP3 PUSH1 0x1F DUP4 ADD SLT PUSH2 0xB1A6 JUMPI PUSH0 DUP1 REVERT JUMPDEST DUP2 CALLDATALOAD PUSH2 0xB1B4 PUSH2 0xAC96 DUP3 PUSH2 0xAC57 JUMP JUMPDEST DUP1 DUP3 DUP3 MSTORE PUSH1 0x20 DUP3 ADD SWAP2 POP PUSH1 0x20 DUP4 PUSH1 0x5 SHL DUP7 ADD ADD SWAP3 POP DUP6 DUP4 GT ISZERO PUSH2 0xB1D5 JUMPI PUSH0 DUP1 REVERT JUMPDEST PUSH1 0x20 DUP6 ADD JUMPDEST DUP4 DUP2 LT ISZERO PUSH2 0x9FBF JUMPI DUP1 CALLDATALOAD PUSH1 0x1 PUSH1 0x1 PUSH1 0x40 SHL SUB DUP2 GT ISZERO PUSH2 0xB1F7 JUMPI PUSH0 DUP1 REVERT JUMPDEST PUSH2 0xB206 DUP9 PUSH1 0x20 DUP4 DUP11 ADD ADD PUSH2 0xAA81 JUMP JUMPDEST DUP5 MSTORE POP PUSH1 0x20 SWAP3 DUP4 ADD SWAP3 ADD PUSH2 0xB1DA JUMP JUMPDEST DUP1 ISZERO ISZERO DUP2 EQ PUSH2 0xA581 JUMPI PUSH0 DUP1 REVERT JUMPDEST DUP1 CALLDATALOAD PUSH2 0x3730 DUP2 PUSH2 0xB215 JUMP JUMPDEST PUSH0 PUSH2 0x300 DUP3 DUP5 SUB SLT ISZERO PUSH2 0xB23E JUMPI PUSH0 DUP1 REVERT JUMPDEST PUSH2 0xB246 PUSH2 0xA99F JUMP JUMPDEST SWAP1 POP DUP2 CALLDATALOAD PUSH1 0x1 PUSH1 0x1 PUSH1 0x40 SHL SUB DUP2 GT ISZERO PUSH2 0xB25D JUMPI PUSH0 DUP1 REVERT JUMPDEST PUSH2 0xB269 DUP5 DUP3 DUP6 ADD PUSH2 0xAA81 JUMP JUMPDEST DUP3 MSTORE POP PUSH1 0x20 DUP3 DUP2 ADD CALLDATALOAD SWAP1 DUP3 ADD MSTORE PUSH1 0x40 DUP3 ADD CALLDATALOAD PUSH1 0x1 PUSH1 0x1 PUSH1 0x40 SHL SUB DUP2 GT ISZERO PUSH2 0xB28E JUMPI PUSH0 DUP1 REVERT JUMPDEST PUSH2 0xB29A DUP5 DUP3 DUP6 ADD PUSH2 0xAA81 JUMP JUMPDEST PUSH1 0x40 DUP4 ADD MSTORE POP PUSH1 0x60 DUP3 DUP2 ADD CALLDATALOAD SWAP1 DUP3 ADD MSTORE PUSH1 0x80 DUP1 DUP4 ADD CALLDATALOAD SWAP1 DUP3 ADD MSTORE PUSH1 0xA0 DUP1 DUP4 ADD CALLDATALOAD SWAP1 DUP3 ADD MSTORE PUSH1 0xC0 DUP1 DUP4 ADD CALLDATALOAD SWAP1 DUP3 ADD MSTORE PUSH1 0xE0 DUP3 ADD CALLDATALOAD PUSH1 0x1 PUSH1 0x1 PUSH1 0x40 SHL SUB DUP2 GT ISZERO PUSH2 0xB2E0 JUMPI PUSH0 DUP1 REVERT JUMPDEST PUSH2 0xB2EC DUP5 DUP3 DUP6 ADD PUSH2 0xAC79 JUMP JUMPDEST PUSH1 0xE0 DUP4 ADD MSTORE POP PUSH2 0x100 DUP3 ADD CALLDATALOAD PUSH1 0x1 PUSH1 0x1 PUSH1 0x40 SHL SUB DUP2 GT ISZERO PUSH2 0xB30B JUMPI PUSH0 DUP1 REVERT JUMPDEST PUSH2 0xB317 DUP5 DUP3 DUP6 ADD PUSH2 0xB197 JUMP JUMPDEST PUSH2 0x100 DUP4 ADD MSTORE POP PUSH2 0x120 DUP3 DUP2 ADD CALLDATALOAD SWAP1 DUP3 ADD MSTORE PUSH2 0x140 DUP1 DUP4 ADD CALLDATALOAD SWAP1 DUP3 ADD MSTORE PUSH2 0x160 DUP3 ADD CALLDATALOAD PUSH1 0x1 PUSH1 0x1 PUSH1 0x40 SHL SUB DUP2 GT ISZERO PUSH2 0xB34D JUMPI PUSH0 DUP1 REVERT JUMPDEST PUSH2 0xB359 DUP5 DUP3 DUP6 ADD PUSH2 0xB197 JUMP JUMPDEST PUSH2 0x160 DUP4 ADD MSTORE POP PUSH2 0xB36D PUSH2 0x180 DUP4 ADD PUSH2 0xAB2B JUMP JUMPDEST PUSH2 0x180 DUP3 ADD MSTORE PUSH2 0x1A0 DUP3 ADD CALLDATALOAD PUSH1 0x1 PUSH1 0x1 PUSH1 0x40 SHL SUB DUP2 GT ISZERO PUSH2 0xB38C JUMPI PUSH0 DUP1 REVERT JUMPDEST PUSH2 0xB398 DUP5 DUP3 DUP6 ADD PUSH2 0xAA81 JUMP JUMPDEST PUSH2 0x1A0 DUP4 ADD MSTORE POP PUSH2 0x1C0 DUP3 ADD CALLDATALOAD PUSH1 0x1 PUSH1 0x1 PUSH1 0x40 SHL SUB DUP2 GT ISZERO PUSH2 0xB3B8 JUMPI PUSH0 DUP1 REVERT JUMPDEST PUSH2 0xB3C4 DUP5 DUP3 DUP6 ADD PUSH2 0xAA81 JUMP JUMPDEST PUSH2 0x1C0 DUP4 ADD MSTORE POP PUSH2 0xB3D8 PUSH2 0x1E0 DUP4 ADD PUSH2 0xB222 JUMP JUMPDEST PUSH2 0x1E0 DUP3 ADD MSTORE PUSH2 0x200 DUP3 ADD CALLDATALOAD PUSH1 0x1 PUSH1 0x1 PUSH1 0x40 SHL SUB DUP2 GT ISZERO PUSH2 0xB3F7 JUMPI PUSH0 DUP1 REVERT JUMPDEST PUSH2 0xB403 DUP5 DUP3 DUP6 ADD PUSH2 0xB197 JUMP JUMPDEST PUSH2 0x200 DUP4 ADD MSTORE POP PUSH2 0x220 DUP3 ADD CALLDATALOAD PUSH1 0x1 PUSH1 0x1 PUSH1 0x40 SHL SUB DUP2 GT ISZERO PUSH2 0xB423 JUMPI PUSH0 DUP1 REVERT JUMPDEST PUSH2 0xB42F DUP5 DUP3 DUP6 ADD PUSH2 0xAA81 JUMP JUMPDEST PUSH2 0x220 DUP4 ADD MSTORE POP PUSH2 0x240 DUP3 DUP2 ADD CALLDATALOAD SWAP1 DUP3 ADD MSTORE PUSH2 0x260 DUP1 DUP4 ADD CALLDATALOAD SWAP1 DUP3 ADD MSTORE PUSH2 0x280 DUP1 DUP4 ADD CALLDATALOAD SWAP1 DUP3 ADD MSTORE PUSH2 0xB464 PUSH2 0x2A0 DUP4 ADD PUSH2 0xB222 JUMP JUMPDEST PUSH2 0x2A0 DUP3 ADD MSTORE PUSH2 0xB477 PUSH2 0x2C0 DUP4 ADD PUSH2 0xB222 JUMP JUMPDEST PUSH2 0x2C0 DUP3 ADD MSTORE PUSH2 0x2E0 SWAP2 DUP3 ADD CALLDATALOAD SWAP2 DUP2 ADD SWAP2 SWAP1 SWAP2 MSTORE SWAP2 SWAP1 POP JUMP JUMPDEST PUSH0 PUSH1 0xA0 DUP3 DUP5 SUB SLT ISZERO PUSH2 0xB4A0 JUMPI PUSH0 DUP1 REVERT JUMPDEST PUSH1 0x40 MLOAD PUSH1 0xA0 DUP2 ADD PUSH1 0x1 PUSH1 0x1 PUSH1 0x40 SHL SUB DUP2 GT DUP3 DUP3 LT OR ISZERO PUSH2 0xB4C2 JUMPI PUSH2 0xB4C2 PUSH2 0xA98B JUMP JUMPDEST PUSH1 0x40 SWAP1 DUP2 MSTORE DUP4 CALLDATALOAD DUP3 MSTORE PUSH1 0x20 DUP1 DUP6 ADD CALLDATALOAD SWAP1 DUP4 ADD MSTORE DUP4 DUP2 ADD CALLDATALOAD SWAP1 DUP3 ADD MSTORE PUSH1 0x60 DUP1 DUP5 ADD CALLDATALOAD SWAP1 DUP3 ADD MSTORE PUSH1 0x80 SWAP3 DUP4 ADD CALLDATALOAD SWAP3 DUP2 ADD SWAP3 SWAP1 SWAP3 MSTORE POP SWAP2 SWAP1 POP JUMP JUMPDEST PUSH0 DUP3 PUSH1 0x1F DUP4 ADD SLT PUSH2 0xB509 JUMPI PUSH0 DUP1 REVERT JUMPDEST PUSH2 0xB516 PUSH2 0xAC96 DUP4 CALLDATALOAD PUSH2 0xAC57 JUMP JUMPDEST DUP3 CALLDATALOAD DUP1 DUP3 MSTORE PUSH1 0x20 DUP1 DUP4 ADD SWAP3 SWAP2 PUSH1 0x5 SHL DUP6 ADD ADD DUP6 LT ISZERO PUSH2 0xB533 JUMPI PUSH0 DUP1 REVERT JUMPDEST PUSH1 0x20 DUP5 ADD JUMPDEST PUSH1 0x20 DUP6 CALLDATALOAD PUSH1 0x5 SHL DUP7 ADD ADD DUP2 LT ISZERO PUSH2 0xB6C3 JUMPI PUSH1 0x1 PUSH1 0x1 PUSH1 0x40 SHL SUB DUP2 CALLDATALOAD GT ISZERO PUSH2 0xB55D JUMPI PUSH0 DUP1 REVERT JUMPDEST DUP1 CALLDATALOAD DUP6 ADD PUSH1 0xE0 DUP2 DUP9 SUB PUSH1 0x1F NOT ADD SLT ISZERO PUSH2 0xB574 JUMPI PUSH0 DUP1 REVERT JUMPDEST PUSH2 0xB57C PUSH2 0xA9C8 JUMP JUMPDEST PUSH1 0x20 DUP3 ADD CALLDATALOAD DUP2 MSTORE PUSH1 0x1 PUSH1 0x1 PUSH1 0x40 SHL SUB PUSH1 0x40 DUP4 ADD CALLDATALOAD GT ISZERO PUSH2 0xB59A JUMPI PUSH0 DUP1 REVERT JUMPDEST PUSH1 0x20 PUSH1 0x40 DUP4 ADD CALLDATALOAD DUP4 ADD ADD DUP9 PUSH1 0x1F DUP3 ADD SLT PUSH2 0xB5B2 JUMPI PUSH0 DUP1 REVERT JUMPDEST PUSH2 0xB5BF PUSH2 0xAC96 DUP3 CALLDATALOAD PUSH2 0xAC57 JUMP JUMPDEST DUP2 CALLDATALOAD DUP1 DUP3 MSTORE PUSH1 0x20 DUP1 DUP4 ADD SWAP3 SWAP2 PUSH1 0x5 SHL DUP5 ADD ADD DUP12 LT ISZERO PUSH2 0xB5DC JUMPI PUSH0 DUP1 REVERT JUMPDEST PUSH1 0x20 DUP4 ADD JUMPDEST PUSH1 0x20 DUP5 CALLDATALOAD PUSH1 0x5 SHL DUP6 ADD ADD DUP2 LT ISZERO PUSH2 0xB699 JUMPI PUSH1 0x1 PUSH1 0x1 PUSH1 0x40 SHL SUB DUP2 CALLDATALOAD GT ISZERO PUSH2 0xB606 JUMPI PUSH0 DUP1 REVERT JUMPDEST DUP1 CALLDATALOAD DUP5 ADD PUSH1 0x60 DUP2 DUP15 SUB PUSH1 0x1F NOT ADD SLT ISZERO PUSH2 0xB61D JUMPI PUSH0 DUP1 REVERT JUMPDEST PUSH2 0xB625 PUSH2 0xA9C8 JUMP JUMPDEST PUSH1 0x20 DUP3 ADD CALLDATALOAD DUP2 MSTORE PUSH1 0x1 PUSH1 0x1 PUSH1 0x40 SHL SUB PUSH1 0x40 DUP4 ADD CALLDATALOAD GT ISZERO PUSH2 0xB643 JUMPI PUSH0 DUP1 REVERT JUMPDEST PUSH2 0xB656 DUP15 PUSH1 0x20 PUSH1 0x40 DUP6 ADD CALLDATALOAD DUP6 ADD ADD PUSH2 0xAA81 JUMP JUMPDEST PUSH1 0x20 DUP3 ADD MSTORE PUSH1 0x1 PUSH1 0x1 PUSH1 0x40 SHL SUB PUSH1 0x60 DUP4 ADD CALLDATALOAD GT ISZERO PUSH2 0xB672 JUMPI PUSH0 DUP1 REVERT JUMPDEST PUSH2 0xB685 DUP15 PUSH1 0x20 PUSH1 0x60 DUP6 ADD CALLDATALOAD DUP6 ADD ADD PUSH2 0xAA81 JUMP JUMPDEST PUSH1 0x40 DUP3 ADD MSTORE DUP5 MSTORE POP PUSH1 0x20 SWAP3 DUP4 ADD SWAP3 ADD PUSH2 0xB5E1 JUMP JUMPDEST POP PUSH1 0x20 DUP5 ADD MSTORE POP PUSH2 0xB6AF SWAP1 POP DUP9 PUSH1 0x60 DUP5 ADD PUSH2 0xB490 JUMP JUMPDEST PUSH1 0x40 DUP3 ADD MSTORE DUP5 MSTORE POP PUSH1 0x20 SWAP3 DUP4 ADD SWAP3 ADD PUSH2 0xB538 JUMP JUMPDEST POP SWAP5 SWAP4 POP POP POP POP JUMP JUMPDEST PUSH0 DUP1 PUSH1 0x40 DUP4 DUP6 SUB SLT ISZERO PUSH2 0xB6DD JUMPI PUSH0 DUP1 REVERT JUMPDEST DUP3 CALLDATALOAD PUSH1 0x1 PUSH1 0x1 PUSH1 0x40 SHL SUB DUP2 GT ISZERO PUSH2 0xB6F2 JUMPI PUSH0 DUP1 REVERT JUMPDEST PUSH2 0xB6FE DUP6 DUP3 DUP7 ADD PUSH2 0xB22D JUMP JUMPDEST SWAP3 POP POP PUSH1 0x20 DUP4 ADD CALLDATALOAD PUSH1 0x1 PUSH1 0x1 PUSH1 0x40 SHL SUB DUP2 GT ISZERO PUSH2 0xB719 JUMPI PUSH0 DUP1 REVERT JUMPDEST PUSH2 0xB150 DUP6 DUP3 DUP7 ADD PUSH2 0xB4FA JUMP JUMPDEST PUSH0 DUP1 PUSH0 PUSH1 0x60 DUP5 DUP7 SUB SLT ISZERO PUSH2 0xB737 JUMPI PUSH0 DUP1 REVERT JUMPDEST POP POP DUP2 CALLDATALOAD SWAP4 PUSH1 0x20 DUP4 ADD CALLDATALOAD SWAP4 POP PUSH1 0x40 SWAP1 SWAP3 ADD CALLDATALOAD SWAP2 SWAP1 POP JUMP JUMPDEST PUSH0 DUP1 PUSH1 0x40 DUP4 DUP6 SUB SLT ISZERO PUSH2 0xB75F JUMPI PUSH0 DUP1 REVERT JUMPDEST DUP3 CALLDATALOAD SWAP2 POP PUSH1 0x20 DUP4 ADD CALLDATALOAD PUSH1 0x1 PUSH1 0x1 PUSH1 0x40 SHL SUB DUP2 GT ISZERO PUSH2 0xB77B JUMPI PUSH0 DUP1 REVERT JUMPDEST DUP4 ADD PUSH1 0x1F DUP2 ADD DUP6 SGT PUSH2 0xB78B JUMPI PUSH0 DUP1 REVERT JUMPDEST DUP1 CALLDATALOAD PUSH2 0xB799 PUSH2 0xAC96 DUP3 PUSH2 0xAC57 JUMP JUMPDEST DUP1 DUP3 DUP3 MSTORE PUSH1 0x20 DUP3 ADD SWAP2 POP PUSH1 0x20 DUP4 PUSH1 0x5 SHL DUP6 ADD ADD SWAP3 POP DUP8 DUP4 GT ISZERO PUSH2 0xB7BA JUMPI PUSH0 DUP1 REVERT JUMPDEST PUSH1 0x20 DUP5 ADD JUMPDEST DUP4 DUP2 LT ISZERO PUSH2 0xB869 JUMPI DUP1 CALLDATALOAD PUSH1 0x1 PUSH1 0x1 PUSH1 0x40 SHL SUB DUP2 GT ISZERO PUSH2 0xB7DC JUMPI PUSH0 DUP1 REVERT JUMPDEST DUP6 ADD PUSH1 0x60 DUP2 DUP12 SUB PUSH1 0x1F NOT ADD SLT ISZERO PUSH2 0xB7F1 JUMPI PUSH0 DUP1 REVERT JUMPDEST PUSH2 0xB7F9 PUSH2 0xA9C8 JUMP JUMPDEST PUSH1 0x20 DUP3 ADD CALLDATALOAD DUP2 MSTORE PUSH1 0x40 DUP3 ADD CALLDATALOAD PUSH1 0x1 PUSH1 0x1 PUSH1 0x40 SHL SUB DUP2 GT ISZERO PUSH2 0xB818 JUMPI PUSH0 DUP1 REVERT JUMPDEST PUSH2 0xB827 DUP13 PUSH1 0x20 DUP4 DUP7 ADD ADD PUSH2 0xAA81 JUMP JUMPDEST PUSH1 0x20 DUP4 ADD MSTORE POP PUSH1 0x60 DUP3 ADD CALLDATALOAD PUSH1 0x1 PUSH1 0x1 PUSH1 0x40 SHL SUB DUP2 GT ISZERO PUSH2 0xB845 JUMPI PUSH0 DUP1 REVERT JUMPDEST PUSH2 0xB854 DUP13 PUSH1 0x20 DUP4 DUP7 ADD ADD PUSH2 0xAA81 JUMP JUMPDEST PUSH1 0x40 DUP4 ADD MSTORE POP DUP5 MSTORE POP PUSH1 0x20 SWAP3 DUP4 ADD SWAP3 ADD PUSH2 0xB7BF JUMP JUMPDEST POP DUP1 SWAP5 POP POP POP POP POP SWAP3 POP SWAP3 SWAP1 POP JUMP JUMPDEST PUSH0 DUP3 PUSH1 0x1F DUP4 ADD SLT PUSH2 0xB887 JUMPI PUSH0 DUP1 REVERT JUMPDEST DUP2 CALLDATALOAD PUSH2 0xB895 PUSH2 0xAC96 DUP3 PUSH2 0xAC57 JUMP JUMPDEST DUP1 DUP3 DUP3 MSTORE PUSH1 0x20 DUP3 ADD SWAP2 POP PUSH1 0x20 DUP4 PUSH1 0x5 SHL DUP7 ADD ADD SWAP3 POP DUP6 DUP4 GT ISZERO PUSH2 0xB8B6 JUMPI PUSH0 DUP1 REVERT JUMPDEST PUSH1 0x20 DUP6 ADD JUMPDEST DUP4 DUP2 LT ISZERO PUSH2 0x9FBF JUMPI DUP1 CALLDATALOAD PUSH1 0x1 PUSH1 0x1 PUSH1 0x40 SHL SUB DUP2 GT ISZERO PUSH2 0xB8D8 JUMPI PUSH0 DUP1 REVERT JUMPDEST DUP7 ADD PUSH1 0x40 DUP2 DUP10 SUB PUSH1 0x1F NOT ADD SLT ISZERO PUSH2 0xB8ED JUMPI PUSH0 DUP1 REVERT JUMPDEST PUSH2 0xB8F5 PUSH2 0xA9EA JUMP JUMPDEST PUSH1 0x20 DUP3 ADD CALLDATALOAD PUSH1 0x1 PUSH1 0x1 PUSH1 0x40 SHL SUB DUP2 GT ISZERO PUSH2 0xB90D JUMPI PUSH0 DUP1 REVERT JUMPDEST PUSH2 0xB91C DUP11 PUSH1 0x20 DUP4 DUP7 ADD ADD PUSH2 0xAA81 JUMP JUMPDEST DUP3 MSTORE POP PUSH1 0x40 DUP3 ADD CALLDATALOAD PUSH1 0x1 PUSH1 0x1 PUSH1 0x40 SHL SUB DUP2 GT ISZERO PUSH2 0xB937 JUMPI PUSH0 DUP1 REVERT JUMPDEST PUSH2 0xB946 DUP11 PUSH1 0x20 DUP4 DUP7 ADD ADD PUSH2 0xAA81 JUMP JUMPDEST PUSH1 0x20 DUP4 ADD MSTORE POP DUP1 DUP6 MSTORE POP POP PUSH1 0x20 DUP4 ADD SWAP3 POP PUSH1 0x20 DUP2 ADD SWAP1 POP PUSH2 0xB8BB JUMP JUMPDEST PUSH0 DUP1 PUSH1 0x40 DUP4 DUP6 SUB SLT ISZERO PUSH2 0xB973 JUMPI PUSH0 DUP1 REVERT JUMPDEST DUP3 CALLDATALOAD SWAP2 POP PUSH1 0x20 DUP4 ADD CALLDATALOAD PUSH1 0x1 PUSH1 0x1 PUSH1 0x40 SHL SUB DUP2 GT ISZERO PUSH2 0xB98F JUMPI PUSH0 DUP1 REVERT JUMPDEST PUSH2 0xB150 DUP6 DUP3 DUP7 ADD PUSH2 0xB878 JUMP JUMPDEST DUP3 DUP2 MSTORE PUSH1 0xC0 DUP2 ADD PUSH2 0x69F3 PUSH1 0x20 DUP4 ADD DUP5 DUP1 MLOAD DUP3 MSTORE PUSH1 0x20 DUP2 ADD MLOAD PUSH1 0x20 DUP4 ADD MSTORE PUSH1 0x40 DUP2 ADD MLOAD PUSH1 0x40 DUP4 ADD MSTORE PUSH1 0x60 DUP2 ADD MLOAD PUSH1 0x60 DUP4 ADD MSTORE PUSH1 0x80 DUP2 ADD MLOAD PUSH1 0x80 DUP4 ADD MSTORE POP POP JUMP JUMPDEST PUSH0 PUSH1 0x20 DUP3 ADD PUSH1 0x20 DUP4 MSTORE DUP1 DUP5 MLOAD DUP1 DUP4 MSTORE PUSH1 0x40 DUP6 ADD SWAP2 POP PUSH1 0x40 DUP2 PUSH1 0x5 SHL DUP7 ADD ADD SWAP3 POP PUSH1 0x20 DUP7 ADD PUSH0 JUMPDEST DUP3 DUP2 LT ISZERO PUSH2 0xBA31 JUMPI PUSH1 0x3F NOT DUP8 DUP7 SUB ADD DUP5 MSTORE PUSH2 0xBA1C DUP6 DUP4 MLOAD PUSH2 0xABB7 JUMP JUMPDEST SWAP5 POP PUSH1 0x20 SWAP4 DUP5 ADD SWAP4 SWAP2 SWAP1 SWAP2 ADD SWAP1 PUSH1 0x1 ADD PUSH2 0xBA00 JUMP JUMPDEST POP SWAP3 SWAP7 SWAP6 POP POP POP POP POP POP JUMP JUMPDEST PUSH0 DUP1 PUSH1 0x40 DUP4 DUP6 SUB SLT ISZERO PUSH2 0xBA4E JUMPI PUSH0 DUP1 REVERT JUMPDEST DUP3 CALLDATALOAD SWAP2 POP PUSH1 0x20 DUP4 ADD CALLDATALOAD PUSH1 0x1 PUSH1 0x1 PUSH1 0x40 SHL SUB DUP2 GT ISZERO PUSH2 0xBA6A JUMPI PUSH0 DUP1 REVERT JUMPDEST DUP4 ADD PUSH1 0x1F DUP2 ADD DUP6 SGT PUSH2 0xBA7A JUMPI PUSH0 DUP1 REVERT JUMPDEST DUP1 CALLDATALOAD PUSH2 0xBA88 PUSH2 0xAC96 DUP3 PUSH2 0xAC57 JUMP JUMPDEST DUP1 DUP3 DUP3 MSTORE PUSH1 0x20 DUP3 ADD SWAP2 POP PUSH1 0x20 DUP4 PUSH1 0x5 SHL DUP6 ADD ADD SWAP3 POP DUP8 DUP4 GT ISZERO PUSH2 0xBAA9 JUMPI PUSH0 DUP1 REVERT JUMPDEST PUSH1 0x20 DUP5 ADD JUMPDEST DUP4 DUP2 LT ISZERO PUSH2 0xB869 JUMPI DUP1 CALLDATALOAD PUSH1 0x1 PUSH1 0x1 PUSH1 0x40 SHL SUB DUP2 GT ISZERO PUSH2 0xBACB JUMPI PUSH0 DUP1 REVERT JUMPDEST DUP6 ADD PUSH1 0x40 DUP2 DUP12 SUB PUSH1 0x1F NOT ADD SLT ISZERO PUSH2 0xBAE0 JUMPI PUSH0 DUP1 REVERT JUMPDEST PUSH2 0xBAE8 PUSH2 0xA9EA JUMP JUMPDEST PUSH1 0x20 DUP3 ADD CALLDATALOAD DUP2 MSTORE PUSH1 0x40 DUP3 ADD CALLDATALOAD PUSH1 0x1 PUSH1 0x1 PUSH1 0x40 SHL SUB DUP2 GT ISZERO PUSH2 0xBB07 JUMPI PUSH0 DUP1 REVERT JUMPDEST PUSH2 0xBB16 DUP13 PUSH1 0x20 DUP4 DUP7 ADD ADD PUSH2 0xAA81 JUMP JUMPDEST PUSH1 0x20 DUP4 ADD MSTORE POP DUP1 DUP6 MSTORE POP POP PUSH1 0x20 DUP4 ADD SWAP3 POP PUSH1 0x20 DUP2 ADD SWAP1 POP PUSH2 0xBAAE JUMP JUMPDEST DUP4 DUP2 MSTORE PUSH1 0x60 PUSH1 0x20 DUP3 ADD MSTORE PUSH0 PUSH2 0xBB4A PUSH1 0x60 DUP4 ADD DUP6 PUSH2 0xA854 JUMP JUMPDEST DUP3 DUP2 SUB PUSH1 0x40 DUP5 ADD MSTORE PUSH2 0xBB5C DUP2 DUP6 PUSH2 0xA854 JUMP JUMPDEST SWAP7 SWAP6 POP POP POP POP POP POP JUMP JUMPDEST PUSH0 PUSH1 0x20 DUP3 DUP5 SUB SLT ISZERO PUSH2 0xBB76 JUMPI PUSH0 DUP1 REVERT JUMPDEST DUP2 CALLDATALOAD PUSH1 0x1 PUSH1 0x1 PUSH1 0x40 SHL SUB DUP2 GT ISZERO PUSH2 0xBB8B JUMPI PUSH0 DUP1 REVERT JUMPDEST PUSH2 0xAB23 DUP5 DUP3 DUP6 ADD PUSH2 0xB878 JUMP JUMPDEST PUSH0 DUP2 MLOAD DUP1 DUP5 MSTORE PUSH1 0x20 DUP5 ADD SWAP4 POP PUSH1 0x20 DUP4 ADD PUSH0 JUMPDEST DUP3 DUP2 LT ISZERO PUSH2 0xAD53 JUMPI DUP2 MLOAD PUSH1 0x1 PUSH1 0x1 PUSH1 0xA0 SHL SUB AND DUP7 MSTORE PUSH1 0x20 SWAP6 DUP7 ADD SWAP6 SWAP1 SWAP2 ADD SWAP1 PUSH1 0x1 ADD PUSH2 0xBBA9 JUMP JUMPDEST PUSH1 0x20 DUP2 MSTORE PUSH0 PUSH2 0x69F3 PUSH1 0x20 DUP4 ADD DUP5 PUSH2 0xBB97 JUMP JUMPDEST PUSH0 DUP1 PUSH1 0x40 DUP4 DUP6 SUB SLT ISZERO PUSH2 0xBBF3 JUMPI PUSH0 DUP1 REVERT JUMPDEST DUP3 CALLDATALOAD SWAP2 POP PUSH1 0x20 DUP4 ADD CALLDATALOAD PUSH1 0x1 PUSH1 0x1 PUSH1 0x40 SHL SUB DUP2 GT ISZERO PUSH2 0xBC0F JUMPI PUSH0 DUP1 REVERT JUMPDEST PUSH2 0xB150 DUP6 DUP3 DUP7 ADD PUSH2 0xAC79 JUMP JUMPDEST PUSH1 0x20 DUP2 MSTORE PUSH0 PUSH2 0x69F3 PUSH1 0x20 DUP4 ADD DUP5 PUSH2 0xAD23 JUMP JUMPDEST PUSH0 DUP2 MLOAD DUP1 DUP5 MSTORE PUSH1 0x20 DUP5 ADD SWAP4 POP PUSH1 0x20 DUP4 ADD PUSH0 JUMPDEST DUP3 DUP2 LT ISZERO PUSH2 0xAD53 JUMPI DUP2 MLOAD DUP1 MLOAD DUP8 MSTORE PUSH1 0x20 DUP1 DUP3 ADD MLOAD PUSH1 0x1 PUSH1 0x1 PUSH1 0xA0 SHL SUB AND DUP2 DUP10 ADD MSTORE PUSH1 0x40 DUP1 DUP4 ADD MLOAD SWAP1 DUP10 ADD MSTORE PUSH1 0x60 SWAP2 DUP3 ADD MLOAD SWAP2 DUP9 ADD SWAP2 SWAP1 SWAP2 MSTORE PUSH1 0x80 SWAP1 SWAP7 ADD SWAP6 SWAP1 SWAP2 ADD SWAP1 PUSH1 0x1 ADD PUSH2 0xBC3F JUMP JUMPDEST PUSH1 0xC0 DUP2 MSTORE PUSH0 PUSH2 0xBC9B PUSH1 0xC0 DUP4 ADD DUP10 PUSH2 0xA90D JUMP JUMPDEST DUP3 DUP2 SUB PUSH1 0x20 DUP5 ADD MSTORE PUSH2 0xBCAD DUP2 DUP10 PUSH2 0xBC2D JUMP JUMPDEST SWAP1 POP DUP3 DUP2 SUB PUSH1 0x40 DUP5 ADD MSTORE PUSH2 0xBCC1 DUP2 DUP9 PUSH2 0xABF7 JUMP JUMPDEST SWAP1 POP DUP3 DUP2 SUB PUSH1 0x60 DUP5 ADD MSTORE PUSH2 0xBCD5 DUP2 DUP8 PUSH2 0xAD23 JUMP JUMPDEST SWAP1 POP DUP3 DUP2 SUB PUSH1 0x80 DUP5 ADD MSTORE PUSH2 0xBCE9 DUP2 DUP7 PUSH2 0xAD23 JUMP JUMPDEST SWAP1 POP DUP3 DUP2 SUB PUSH1 0xA0 DUP5 ADD MSTORE PUSH2 0xBCFD DUP2 DUP6 PUSH2 0xAD23 JUMP JUMPDEST SWAP10 SWAP9 POP POP POP POP POP POP POP POP POP JUMP JUMPDEST PUSH0 PUSH1 0x20 DUP3 ADD PUSH1 0x20 DUP4 MSTORE DUP1 DUP5 MLOAD DUP1 DUP4 MSTORE PUSH1 0x40 DUP6 ADD SWAP2 POP PUSH1 0x40 DUP2 PUSH1 0x5 SHL DUP7 ADD ADD SWAP3 POP PUSH1 0x20 DUP7 ADD PUSH0 JUMPDEST DUP3 DUP2 LT ISZERO PUSH2 0xBA31 JUMPI PUSH1 0x3F NOT DUP8 DUP7 SUB ADD DUP5 MSTORE PUSH2 0xBD4C DUP6 DUP4 MLOAD PUSH2 0xAF82 JUMP JUMPDEST SWAP5 POP PUSH1 0x20 SWAP4 DUP5 ADD SWAP4 SWAP2 SWAP1 SWAP2 ADD SWAP1 PUSH1 0x1 ADD PUSH2 0xBD30 JUMP JUMPDEST PUSH1 0x20 DUP2 MSTORE PUSH0 PUSH2 0x69F3 PUSH1 0x20 DUP4 ADD DUP5 PUSH2 0xAFC0 JUMP JUMPDEST PUSH1 0x20 DUP2 MSTORE PUSH0 PUSH2 0x69F3 PUSH1 0x20 DUP4 ADD DUP5 PUSH2 0xBC2D JUMP JUMPDEST PUSH1 0x20 DUP2 MSTORE PUSH0 PUSH2 0x69F3 PUSH1 0x20 DUP4 ADD DUP5 PUSH2 0xAD5D JUMP JUMPDEST PUSH0 DUP1 PUSH0 PUSH1 0x60 DUP5 DUP7 SUB SLT ISZERO PUSH2 0xBDA9 JUMPI PUSH0 DUP1 REVERT JUMPDEST DUP4 CALLDATALOAD SWAP3 POP PUSH1 0x20 DUP5 ADD CALLDATALOAD PUSH1 0x1 PUSH1 0x1 PUSH1 0x40 SHL SUB DUP2 GT ISZERO PUSH2 0xBDC5 JUMPI PUSH0 DUP1 REVERT JUMPDEST PUSH2 0xBDD1 DUP7 DUP3 DUP8 ADD PUSH2 0xAA81 JUMP JUMPDEST SWAP3 POP POP PUSH1 0x40 DUP5 ADD CALLDATALOAD PUSH1 0x1 PUSH1 0x1 PUSH1 0x40 SHL SUB DUP2 GT ISZERO PUSH2 0xBDEC JUMPI PUSH0 DUP1 REVERT JUMPDEST PUSH2 0xBDF8 DUP7 DUP3 DUP8 ADD PUSH2 0xAA81 JUMP JUMPDEST SWAP2 POP POP SWAP3 POP SWAP3 POP SWAP3 JUMP JUMPDEST PUSH1 0x2 DUP2 LT PUSH2 0xA581 JUMPI PUSH0 DUP1 REVERT JUMPDEST DUP1 CALLDATALOAD PUSH2 0x3730 DUP2 PUSH2 0xBE02 JUMP JUMPDEST PUSH0 DUP1 PUSH0 DUP1 PUSH1 0x80 DUP6 DUP8 SUB SLT ISZERO PUSH2 0xBE2C JUMPI PUSH0 DUP1 REVERT JUMPDEST DUP5 CALLDATALOAD SWAP4 POP PUSH1 0x20 DUP6 ADD CALLDATALOAD PUSH2 0xBE3E DUP2 PUSH2 0xBE02 JUMP JUMPDEST SWAP3 POP PUSH1 0x40 DUP6 ADD CALLDATALOAD PUSH1 0x1 PUSH1 0x1 PUSH1 0x40 SHL SUB DUP2 GT ISZERO PUSH2 0xBE58 JUMPI PUSH0 DUP1 REVERT JUMPDEST PUSH2 0xBE64 DUP8 DUP3 DUP9 ADD PUSH2 0xAA81 JUMP JUMPDEST SWAP3 POP POP PUSH1 0x60 DUP6 ADD CALLDATALOAD PUSH1 0x1 PUSH1 0x1 PUSH1 0x40 SHL SUB DUP2 GT ISZERO PUSH2 0xBE7F JUMPI PUSH0 DUP1 REVERT JUMPDEST PUSH2 0xBE8B DUP8 DUP3 DUP9 ADD PUSH2 0xAA81 JUMP JUMPDEST SWAP2 POP POP SWAP3 SWAP6 SWAP2 SWAP5 POP SWAP3 POP JUMP JUMPDEST PUSH0 DUP1 PUSH0 PUSH1 0x60 DUP5 DUP7 SUB SLT ISZERO PUSH2 0xBEA9 JUMPI PUSH0 DUP1 REVERT JUMPDEST DUP4 CALLDATALOAD SWAP3 POP PUSH1 0x20 DUP5 ADD CALLDATALOAD PUSH1 0x1 PUSH1 0x1 PUSH1 0x40 SHL SUB DUP2 GT ISZERO PUSH2 0xBEC5 JUMPI PUSH0 DUP1 REVERT JUMPDEST PUSH2 0xBED1 DUP7 DUP3 DUP8 ADD PUSH2 0xB22D JUMP JUMPDEST SWAP3 POP POP PUSH1 0x40 DUP5 ADD CALLDATALOAD PUSH1 0x1 PUSH1 0x1 PUSH1 0x40 SHL SUB DUP2 GT ISZERO PUSH2 0xBEEC JUMPI PUSH0 DUP1 REVERT JUMPDEST PUSH2 0xBDF8 DUP7 DUP3 DUP8 ADD PUSH2 0xB4FA JUMP JUMPDEST PUSH0 DUP1 PUSH1 0x40 DUP4 DUP6 SUB SLT ISZERO PUSH2 0xBF09 JUMPI PUSH0 DUP1 REVERT JUMPDEST DUP3 CALLDATALOAD PUSH1 0x1 PUSH1 0x1 PUSH1 0x40 SHL SUB DUP2 GT ISZERO PUSH2 0xBF1E JUMPI PUSH0 DUP1 REVERT JUMPDEST PUSH2 0xBF2A DUP6 DUP3 DUP7 ADD PUSH2 0xAA81 JUMP JUMPDEST SWAP3 POP POP PUSH1 0x20 DUP4 ADD CALLDATALOAD PUSH1 0x1 PUSH1 0x1 PUSH1 0x40 SHL SUB DUP2 GT ISZERO PUSH2 0xB144 JUMPI PUSH0 DUP1 REVERT JUMPDEST PUSH1 0x20 DUP2 MSTORE PUSH0 PUSH2 0x69F3 PUSH1 0x20 DUP4 ADD DUP5 PUSH2 0xAF82 JUMP JUMPDEST DUP9 DUP2 MSTORE PUSH1 0x1 PUSH1 0x1 PUSH1 0xA0 SHL SUB DUP9 AND PUSH1 0x20 DUP3 ADD MSTORE PUSH2 0x100 PUSH1 0x40 DUP3 ADD DUP2 SWAP1 MSTORE PUSH0 SWAP1 PUSH2 0xBF81 SWAP1 DUP4 ADD DUP10 PUSH2 0xA854 JUMP JUMPDEST DUP3 DUP2 SUB PUSH1 0x60 DUP5 ADD MSTORE PUSH2 0xBF93 DUP2 DUP10 PUSH2 0xA854 JUMP JUMPDEST SWAP2 POP POP PUSH1 0xFF DUP7 AND PUSH1 0x80 DUP4 ADD MSTORE DUP5 PUSH1 0xA0 DUP4 ADD MSTORE DUP4 PUSH1 0xC0 DUP4 ADD MSTORE DUP3 PUSH1 0xE0 DUP4 ADD MSTORE SWAP10 SWAP9 POP POP POP POP POP POP POP POP POP JUMP JUMPDEST PUSH0 DUP1 PUSH1 0x40 DUP4 DUP6 SUB SLT ISZERO PUSH2 0xBFCF JUMPI PUSH0 DUP1 REVERT JUMPDEST DUP3 CALLDATALOAD SWAP2 POP PUSH1 0x20 DUP4 ADD CALLDATALOAD PUSH1 0x1 PUSH1 0x1 PUSH1 0x40 SHL SUB DUP2 GT ISZERO PUSH2 0xBFEB JUMPI PUSH0 DUP1 REVERT JUMPDEST PUSH2 0xB150 DUP6 DUP3 DUP7 ADD PUSH2 0xB197 JUMP JUMPDEST PUSH0 DUP1 PUSH1 0x40 DUP4 DUP6 SUB SLT ISZERO PUSH2 0xC008 JUMPI PUSH0 DUP1 REVERT JUMPDEST DUP3 CALLDATALOAD SWAP2 POP PUSH1 0x20 DUP4 ADD CALLDATALOAD PUSH1 0x1 PUSH1 0x1 PUSH1 0x40 SHL SUB DUP2 GT ISZERO PUSH2 0xC024 JUMPI PUSH0 DUP1 REVERT JUMPDEST DUP4 ADD PUSH1 0x1F DUP2 ADD DUP6 SGT PUSH2 0xC034 JUMPI PUSH0 DUP1 REVERT JUMPDEST DUP1 CALLDATALOAD PUSH2 0xC042 PUSH2 0xAC96 DUP3 PUSH2 0xAC57 JUMP JUMPDEST DUP1 DUP3 DUP3 MSTORE PUSH1 0x20 DUP3 ADD SWAP2 POP PUSH1 0x20 DUP4 PUSH1 0x5 SHL DUP6 ADD ADD SWAP3 POP DUP8 DUP4 GT ISZERO PUSH2 0xC063 JUMPI PUSH0 DUP1 REVERT JUMPDEST PUSH1 0x20 DUP5 ADD JUMPDEST DUP4 DUP2 LT ISZERO PUSH2 0xB869 JUMPI DUP1 CALLDATALOAD PUSH1 0x1 PUSH1 0x1 PUSH1 0x40 SHL SUB DUP2 GT ISZERO PUSH2 0xC085 JUMPI PUSH0 DUP1 REVERT JUMPDEST DUP6 ADD PUSH1 0x80 DUP2 DUP12 SUB PUSH1 0x1F NOT ADD SLT ISZERO PUSH2 0xC09A JUMPI PUSH0 DUP1 REVERT JUMPDEST PUSH2 0xC0A2 PUSH2 0xAA0C JUMP JUMPDEST PUSH1 0x20 DUP3 ADD CALLDATALOAD PUSH2 0xC0B0 DUP2 PUSH2 0xBE02 JUMP JUMPDEST DUP2 MSTORE PUSH1 0x40 DUP3 ADD CALLDATALOAD PUSH1 0x1 PUSH1 0x1 PUSH1 0x40 SHL SUB DUP2 GT ISZERO PUSH2 0xC0CA JUMPI PUSH0 DUP1 REVERT JUMPDEST PUSH2 0xC0D9 DUP13 PUSH1 0x20 DUP4 DUP7 ADD ADD PUSH2 0xAA81 JUMP JUMPDEST PUSH1 0x20 DUP4 ADD MSTORE POP PUSH1 0x60 DUP3 ADD CALLDATALOAD PUSH1 0x1 PUSH1 0x1 PUSH1 0x40 SHL SUB DUP2 GT ISZERO PUSH2 0xC0F7 JUMPI PUSH0 DUP1 REVERT JUMPDEST PUSH2 0xC106 DUP13 PUSH1 0x20 DUP4 DUP7 ADD ADD PUSH2 0xAA81 JUMP JUMPDEST PUSH1 0x40 DUP4 ADD MSTORE POP PUSH1 0x80 SWAP2 SWAP1 SWAP2 ADD CALLDATALOAD PUSH1 0x60 DUP3 ADD MSTORE DUP4 MSTORE PUSH1 0x20 SWAP3 DUP4 ADD SWAP3 ADD PUSH2 0xC068 JUMP JUMPDEST PUSH1 0x20 DUP2 MSTORE PUSH0 PUSH2 0x69F3 PUSH1 0x20 DUP4 ADD DUP5 PUSH2 0xABB7 JUMP JUMPDEST DUP1 CALLDATALOAD PUSH1 0x3 DUP2 LT PUSH2 0x3730 JUMPI PUSH0 DUP1 REVERT JUMPDEST PUSH0 PUSH1 0x20 DUP3 DUP5 SUB SLT ISZERO PUSH2 0xC156 JUMPI PUSH0 DUP1 REVERT JUMPDEST DUP2 CALLDATALOAD PUSH1 0x1 PUSH1 0x1 PUSH1 0x40 SHL SUB DUP2 GT ISZERO PUSH2 0xC16B JUMPI PUSH0 DUP1 REVERT JUMPDEST DUP3 ADD PUSH2 0x140 DUP2 DUP6 SUB SLT ISZERO PUSH2 0xC17D JUMPI PUSH0 DUP1 REVERT JUMPDEST PUSH2 0xC185 PUSH2 0xAA2E JUMP JUMPDEST PUSH2 0xC18E DUP3 PUSH2 0xC138 JUMP JUMPDEST DUP2 MSTORE PUSH2 0xC19C PUSH1 0x20 DUP4 ADD PUSH2 0xBE0E JUMP JUMPDEST PUSH1 0x20 DUP3 ADD MSTORE PUSH2 0xC1AD PUSH1 0x40 DUP4 ADD PUSH2 0xBE0E JUMP JUMPDEST PUSH1 0x40 DUP3 ADD MSTORE PUSH2 0xC1BE PUSH1 0x60 DUP4 ADD PUSH2 0xC138 JUMP JUMPDEST PUSH1 0x60 DUP3 ADD MSTORE PUSH2 0xC1CF PUSH1 0x80 DUP4 ADD PUSH2 0xAB2B JUMP JUMPDEST PUSH1 0x80 DUP3 ADD MSTORE PUSH1 0xA0 DUP3 ADD CALLDATALOAD PUSH1 0x1 PUSH1 0x1 PUSH1 0x40 SHL SUB DUP2 GT ISZERO PUSH2 0xC1EC JUMPI PUSH0 DUP1 REVERT JUMPDEST PUSH2 0xC1F8 DUP7 DUP3 DUP6 ADD PUSH2 0xAA81 JUMP JUMPDEST PUSH1 0xA0 DUP4 ADD MSTORE POP PUSH1 0xC0 DUP3 DUP2 ADD CALLDATALOAD SWAP1 DUP3 ADD MSTORE PUSH1 0xE0 DUP1 DUP4 ADD CALLDATALOAD SWAP1 DUP3 ADD MSTORE PUSH2 0x100 DUP1 DUP4 ADD CALLDATALOAD SWAP1 DUP3 ADD MSTORE PUSH2 0x120 SWAP2 DUP3 ADD CALLDATALOAD SWAP2 DUP2 ADD SWAP2 SWAP1 SWAP2 MSTORE SWAP4 SWAP3 POP POP POP JUMP JUMPDEST PUSH1 0x40 DUP2 MSTORE PUSH0 PUSH2 0xC244 PUSH1 0x40 DUP4 ADD DUP6 PUSH2 0xB088 JUMP JUMPDEST SWAP1 POP DUP3 ISZERO ISZERO PUSH1 0x20 DUP4 ADD MSTORE SWAP4 SWAP3 POP POP POP JUMP JUMPDEST PUSH4 0x4E487B71 PUSH1 0xE0 SHL PUSH0 MSTORE PUSH1 0x32 PUSH1 0x4 MSTORE PUSH1 0x24 PUSH0 REVERT JUMPDEST PUSH1 0x1 DUP2 DUP2 SHR SWAP1 DUP3 AND DUP1 PUSH2 0xC27D JUMPI PUSH1 0x7F DUP3 AND SWAP2 POP JUMPDEST PUSH1 0x20 DUP3 LT DUP2 SUB PUSH2 0x13F1 JUMPI PUSH4 0x4E487B71 PUSH1 0xE0 SHL PUSH0 MSTORE PUSH1 0x22 PUSH1 0x4 MSTORE PUSH1 0x24 PUSH0 REVERT JUMPDEST PUSH1 0x20 DUP1 DUP3 MSTORE PUSH1 0x49 SWAP1 DUP3 ADD MSTORE PUSH0 DUP1 MLOAD PUSH1 0x20 PUSH2 0xCB4F DUP4 CODECOPY DUP2 MLOAD SWAP2 MSTORE PUSH1 0x40 DUP3 ADD MSTORE PUSH32 0x223A2035352C20226D657373616765223A2022596F7520617265206E6F742061 PUSH1 0x60 DUP3 ADD MSTORE PUSH9 0x6C6C6F7765642E227D PUSH1 0xB8 SHL PUSH1 0x80 DUP3 ADD MSTORE PUSH1 0xA0 ADD SWAP1 JUMP JUMPDEST PUSH4 0x4E487B71 PUSH1 0xE0 SHL PUSH0 MSTORE PUSH1 0x11 PUSH1 0x4 MSTORE PUSH1 0x24 PUSH0 REVERT JUMPDEST DUP2 DUP2 SUB DUP2 DUP2 GT ISZERO PUSH2 0x1038 JUMPI PUSH2 0x1038 PUSH2 0xC2F7 JUMP JUMPDEST PUSH4 0x4E487B71 PUSH1 0xE0 SHL PUSH0 MSTORE PUSH1 0x31 PUSH1 0x4 MSTORE PUSH1 0x24 PUSH0 REVERT JUMPDEST DUP1 DUP3 ADD DUP1 DUP3 GT ISZERO PUSH2 0x1038 JUMPI PUSH2 0x1038 PUSH2 0xC2F7 JUMP JUMPDEST PUSH0 DUP2 MLOAD DUP1 PUSH1 0x20 DUP5 ADD DUP6 MCOPY PUSH0 SWAP4 ADD SWAP3 DUP4 MSTORE POP SWAP1 SWAP2 SWAP1 POP JUMP JUMPDEST PUSH32 0x7B2266726F6D223A202245636F6D50726F647563742E736F6C222C0000000000 DUP2 MSTORE PUSH8 0x1131B7B232911D1 PUSH1 0xC5 SHL PUSH1 0x1B DUP3 ADD MSTORE PUSH0 PUSH2 0xC39E PUSH1 0x23 DUP4 ADD DUP6 PUSH2 0xC345 JUMP JUMPDEST PUSH2 0x161 PUSH1 0xF5 SHL DUP2 MSTORE PUSH12 0x1136B2B9B9B0B3B2911D1011 PUSH1 0xA1 SHL PUSH1 0x2 DUP3 ADD MSTORE PUSH2 0xC3C8 PUSH1 0xE DUP3 ADD DUP6 PUSH2 0xC345 JUMP JUMPDEST PUSH2 0x227D PUSH1 0xF0 SHL DUP2 MSTORE PUSH1 0x2 ADD SWAP6 SWAP5 POP POP POP POP POP JUMP JUMPDEST PUSH0 PUSH1 0x20 DUP3 DUP5 SUB SLT ISZERO PUSH2 0xC3EC JUMPI PUSH0 DUP1 REVERT JUMPDEST DUP2 MLOAD PUSH2 0x69F3 DUP2 PUSH2 0xB215 JUMP JUMPDEST PUSH0 PUSH1 0x1 DUP3 ADD PUSH2 0xC408 JUMPI PUSH2 0xC408 PUSH2 0xC2F7 JUMP JUMPDEST POP PUSH1 0x1 ADD SWAP1 JUMP JUMPDEST DUP1 DUP3 MUL DUP2 ISZERO DUP3 DUP3 DIV DUP5 EQ OR PUSH2 0x1038 JUMPI PUSH2 0x1038 PUSH2 0xC2F7 JUMP JUMPDEST PUSH0 DUP3 PUSH2 0xC440 JUMPI PUSH4 0x4E487B71 PUSH1 0xE0 SHL PUSH0 MSTORE PUSH1 0x12 PUSH1 0x4 MSTORE PUSH1 0x24 PUSH0 REVERT JUMPDEST POP DIV SWAP1 JUMP JUMPDEST PUSH1 0x1F DUP3 GT ISZERO PUSH2 0x346A JUMPI DUP1 PUSH0 MSTORE PUSH1 0x20 PUSH0 KECCAK256 PUSH1 0x1F DUP5 ADD PUSH1 0x5 SHR DUP2 ADD PUSH1 0x20 DUP6 LT ISZERO PUSH2 0xC46A JUMPI POP DUP1 JUMPDEST PUSH1 0x1F DUP5 ADD PUSH1 0x5 SHR DUP3 ADD SWAP2 POP JUMPDEST DUP2 DUP2 LT ISZERO PUSH2 0x9A6B JUMPI PUSH0 DUP2 SSTORE PUSH1 0x1 ADD PUSH2 0xC476 JUMP JUMPDEST DUP2 MLOAD PUSH1 0x1 PUSH1 0x1 PUSH1 0x40 SHL SUB DUP2 GT ISZERO PUSH2 0xC4A2 JUMPI PUSH2 0xC4A2 PUSH2 0xA98B JUMP JUMPDEST PUSH2 0xC4B6 DUP2 PUSH2 0xC4B0 DUP5 SLOAD PUSH2 0xC269 JUMP JUMPDEST DUP5 PUSH2 0xC445 JUMP JUMPDEST PUSH1 0x20 PUSH1 0x1F DUP3 GT PUSH1 0x1 DUP2 EQ PUSH2 0xC4E8 JUMPI PUSH0 DUP4 ISZERO PUSH2 0xC4D1 JUMPI POP DUP5 DUP3 ADD MLOAD JUMPDEST PUSH0 NOT PUSH1 0x3 DUP6 SWAP1 SHL SHR NOT AND PUSH1 0x1 DUP5 SWAP1 SHL OR DUP5 SSTORE PUSH2 0x9A6B JUMP JUMPDEST PUSH0 DUP5 DUP2 MSTORE PUSH1 0x20 DUP2 KECCAK256 PUSH1 0x1F NOT DUP6 AND SWAP2 JUMPDEST DUP3 DUP2 LT ISZERO PUSH2 0xC517 JUMPI DUP8 DUP6 ADD MLOAD DUP3 SSTORE PUSH1 0x20 SWAP5 DUP6 ADD SWAP5 PUSH1 0x1 SWAP1 SWAP3 ADD SWAP2 ADD PUSH2 0xC4F7 JUMP JUMPDEST POP DUP5 DUP3 LT ISZERO PUSH2 0xC534 JUMPI DUP7 DUP5 ADD MLOAD PUSH0 NOT PUSH1 0x3 DUP8 SWAP1 SHL PUSH1 0xF8 AND SHR NOT AND DUP2 SSTORE JUMPDEST POP POP POP POP PUSH1 0x1 SWAP1 DUP2 SHL ADD SWAP1 SSTORE POP JUMP JUMPDEST PUSH0 PUSH2 0x69F3 DUP3 DUP5 PUSH2 0xC345 JUMP JUMPDEST DUP3 DUP2 MSTORE PUSH1 0x40 PUSH1 0x20 DUP3 ADD MSTORE PUSH0 PUSH2 0xAB23 PUSH1 0x40 DUP4 ADD DUP5 PUSH2 0xADAB JUMP JUMPDEST PUSH1 0x20 DUP1 DUP3 MSTORE PUSH1 0x45 SWAP1 DUP3 ADD MSTORE PUSH0 DUP1 MLOAD PUSH1 0x20 PUSH2 0xCB4F DUP4 CODECOPY DUP2 MLOAD SWAP2 MSTORE PUSH1 0x40 DUP3 ADD MSTORE PUSH32 0x223A2032392C20226D657373616765223A22436F6D6D656E74206E6F7420666F PUSH1 0x60 DUP3 ADD MSTORE PUSH5 0x756E64227D PUSH1 0xD8 SHL PUSH1 0x80 DUP3 ADD MSTORE PUSH1 0xA0 ADD SWAP1 JUMP JUMPDEST PUSH1 0x20 DUP1 DUP3 MSTORE PUSH1 0x58 SWAP1 DUP3 ADD MSTORE PUSH0 DUP1 MLOAD PUSH1 0x20 PUSH2 0xCB4F DUP4 CODECOPY DUP2 MLOAD SWAP2 MSTORE PUSH1 0x40 DUP3 ADD MSTORE PUSH32 0x223A2035342C20226D657373616765223A2022526174652076616C7565206D75 PUSH1 0x60 DUP3 ADD MSTORE PUSH32 0x7374206265206265747765656E203120616E6420352E227D0000000000000000 PUSH1 0x80 DUP3 ADD MSTORE PUSH1 0xA0 ADD SWAP1 JUMP JUMPDEST PUSH1 0x20 DUP1 DUP3 MSTORE PUSH1 0x3E SWAP1 DUP3 ADD MSTORE PUSH0 DUP1 MLOAD PUSH1 0x20 PUSH2 0xCB4F DUP4 CODECOPY DUP2 MLOAD SWAP2 MSTORE PUSH1 0x40 DUP3 ADD MSTORE PUSH32 0x223A2032382C20226D657373616765223A20224E6F74207261746564227D0000 PUSH1 0x60 DUP3 ADD MSTORE PUSH1 0x80 ADD SWAP1 JUMP JUMPDEST PUSH1 0x20 DUP1 DUP3 MSTORE PUSH1 0x4C SWAP1 DUP3 ADD MSTORE PUSH0 DUP1 MLOAD PUSH1 0x20 PUSH2 0xCB4F DUP4 CODECOPY DUP2 MLOAD SWAP2 MSTORE PUSH1 0x40 DUP3 ADD MSTORE PUSH32 0x223A2035322C20226D657373616765223A2022596F7520617265206E6F742063 PUSH1 0x60 DUP3 ADD MSTORE PUSH12 0x6F6E74726F6C6C65722E227D PUSH1 0xA0 SHL PUSH1 0x80 DUP3 ADD MSTORE PUSH1 0xA0 ADD SWAP1 JUMP JUMPDEST PUSH1 0x20 DUP1 DUP3 MSTORE PUSH1 0x49 SWAP1 DUP3 ADD MSTORE PUSH0 DUP1 MLOAD PUSH1 0x20 PUSH2 0xCB4F DUP4 CODECOPY DUP2 MLOAD SWAP2 MSTORE PUSH1 0x40 DUP3 ADD MSTORE PUSH32 0x223A2035332C20226D657373616765223A2022596F7520617265206E6F742061 PUSH1 0x60 DUP3 ADD MSTORE PUSH9 0x6C6C6F7765642E227D PUSH1 0xB8 SHL PUSH1 0x80 DUP3 ADD MSTORE PUSH1 0xA0 ADD SWAP1 JUMP JUMPDEST PUSH0 PUSH1 0x20 DUP3 DUP5 SUB SLT ISZERO PUSH2 0xC743 JUMPI PUSH0 DUP1 REVERT JUMPDEST DUP2 MLOAD PUSH1 0x1 PUSH1 0x1 PUSH1 0x40 SHL SUB DUP2 GT ISZERO PUSH2 0xC758 JUMPI PUSH0 DUP1 REVERT JUMPDEST DUP3 ADD PUSH1 0x1F DUP2 ADD DUP5 SGT PUSH2 0xC768 JUMPI PUSH0 DUP1 REVERT JUMPDEST DUP1 MLOAD PUSH2 0xC776 PUSH2 0xAC96 DUP3 PUSH2 0xAC57 JUMP JUMPDEST DUP1 DUP3 DUP3 MSTORE PUSH1 0x20 DUP3 ADD SWAP2 POP PUSH1 0x20 DUP4 PUSH1 0x5 SHL DUP6 ADD ADD SWAP3 POP DUP7 DUP4 GT ISZERO PUSH2 0xC797 JUMPI PUSH0 DUP1 REVERT JUMPDEST PUSH1 0x20 DUP5 ADD SWAP4 POP JUMPDEST DUP3 DUP5 LT ISZERO PUSH2 0xBB5C JUMPI DUP4 MLOAD DUP3 MSTORE PUSH1 0x20 SWAP4 DUP5 ADD SWAP4 SWAP1 SWAP2 ADD SWAP1 PUSH2 0xC79E JUMP JUMPDEST PUSH0 PUSH1 0xFF DUP3 AND PUSH1 0xFF DUP2 SUB PUSH2 0xC7CE JUMPI PUSH2 0xC7CE PUSH2 0xC2F7 JUMP JUMPDEST PUSH1 0x1 ADD SWAP3 SWAP2 POP POP JUMP JUMPDEST PUSH1 0x20 DUP1 DUP3 MSTORE PUSH1 0x45 SWAP1 DUP3 ADD MSTORE PUSH0 DUP1 MLOAD PUSH1 0x20 PUSH2 0xCB4F DUP4 CODECOPY DUP2 MLOAD SWAP2 MSTORE PUSH1 0x40 DUP3 ADD MSTORE PUSH32 0x223A20332C20226D657373616765223A202250726F64756374206E6F7420666F PUSH1 0x60 DUP3 ADD MSTORE PUSH5 0x756E64227D PUSH1 0xD8 SHL PUSH1 0x80 DUP3 ADD MSTORE PUSH1 0xA0 ADD SWAP1 JUMP JUMPDEST PUSH1 0x20 DUP1 DUP3 MSTORE PUSH1 0x41 SWAP1 DUP3 ADD MSTORE PUSH0 DUP1 MLOAD PUSH1 0x20 PUSH2 0xCB4F DUP4 CODECOPY DUP2 MLOAD SWAP2 MSTORE PUSH1 0x40 DUP3 ADD MSTORE PUSH32 0x223A2033312C20226D657373616765223A22464151206E6F7420666F756E6422 PUSH1 0x60 DUP3 ADD MSTORE PUSH1 0x7D PUSH1 0xF8 SHL PUSH1 0x80 DUP3 ADD MSTORE PUSH1 0xA0 ADD SWAP1 JUMP JUMPDEST PUSH4 0x4E487B71 PUSH1 0xE0 SHL PUSH0 MSTORE PUSH1 0x21 PUSH1 0x4 MSTORE PUSH1 0x24 PUSH0 REVERT JUMPDEST PUSH1 0xC0 DUP2 MSTORE PUSH0 PUSH2 0xC8A9 PUSH1 0xC0 DUP4 ADD DUP7 PUSH2 0xA854 JUMP JUMPDEST PUSH1 0xFF DUP6 AND PUSH1 0x20 DUP5 ADD MSTORE DUP3 DUP2 SUB DUP1 PUSH1 0x40 DUP6 ADD MSTORE PUSH1 0x1B DUP3 MSTORE PUSH32 0x437573746F6D657220466565646261636B205265636569766564210000000000 PUSH1 0x20 DUP4 ADD MSTORE PUSH1 0x40 DUP2 ADD PUSH1 0x60 DUP6 ADD MSTORE PUSH1 0x54 PUSH1 0x40 DUP4 ADD MSTORE PUSH32 0x596F75277665207265636569766564206E657720666565646261636B2061626F PUSH1 0x60 DUP4 ADD MSTORE PUSH32 0x757420796F75722070726F647563742120436865636B20637573746F6D657220 PUSH1 0x80 DUP4 ADD MSTORE PUSH20 0x19995959189858DAC8185B99081C995CDC1BDB99 PUSH1 0x62 SHL PUSH1 0xA0 DUP4 ADD MSTORE PUSH1 0xC0 DUP2 ADD PUSH1 0x80 DUP6 ADD MSTORE POP PUSH2 0xC975 PUSH1 0xC0 DUP3 ADD DUP6 PUSH2 0xBB97 JUMP JUMPDEST DUP4 DUP2 SUB PUSH1 0xA0 DUP6 ADD MSTORE PUSH1 0xD DUP2 MSTORE PUSH13 0x436F6D6D656E74557064617465 PUSH1 0x98 SHL PUSH1 0x20 DUP3 ADD MSTORE SWAP1 POP PUSH1 0x40 DUP2 ADD PUSH2 0xBB5C JUMP JUMPDEST PUSH1 0x20 DUP1 DUP3 MSTORE PUSH1 0x45 SWAP1 DUP3 ADD MSTORE PUSH0 DUP1 MLOAD PUSH1 0x20 PUSH2 0xCB4F DUP4 CODECOPY DUP2 MLOAD SWAP2 MSTORE PUSH1 0x40 DUP3 ADD MSTORE PUSH32 0x223A20322C20226D657373616765223A2243617465676F7279206E6F7420666F PUSH1 0x60 DUP3 ADD MSTORE PUSH5 0x756E64227D PUSH1 0xD8 SHL PUSH1 0x80 DUP3 ADD MSTORE PUSH1 0xA0 ADD SWAP1 JUMP JUMPDEST PUSH1 0x1 PUSH1 0x1 PUSH1 0xA0 SHL SUB DUP8 DUP2 AND DUP3 MSTORE PUSH1 0x20 DUP3 ADD DUP8 SWAP1 MSTORE PUSH1 0x40 DUP3 ADD DUP7 SWAP1 MSTORE DUP5 AND PUSH1 0x60 DUP3 ADD MSTORE PUSH1 0xC0 DUP2 ADD PUSH1 0x2 DUP5 LT PUSH2 0xCA3C JUMPI PUSH4 0x4E487B71 PUSH1 0xE0 SHL PUSH0 MSTORE PUSH1 0x21 PUSH1 0x4 MSTORE PUSH1 0x24 PUSH0 REVERT JUMPDEST DUP4 PUSH1 0x80 DUP4 ADD MSTORE DUP3 ISZERO ISZERO PUSH1 0xA0 DUP4 ADD MSTORE SWAP8 SWAP7 POP POP POP POP POP POP POP JUMP JUMPDEST PUSH0 PUSH2 0xABEE PUSH2 0xCA6C PUSH2 0xCA66 DUP5 DUP9 PUSH2 0xC345 JUMP JUMPDEST DUP7 PUSH2 0xC345 JUMP JUMPDEST DUP5 PUSH2 0xC345 JUMP JUMPDEST PUSH1 0xFF DUP2 DUP2 AND DUP4 DUP3 AND ADD SWAP1 DUP2 GT ISZERO PUSH2 0x1038 JUMPI PUSH2 0x1038 PUSH2 0xC2F7 JUMP INVALID SSTORE PUSH20 0x6572206973206E6F742074686520636F72726563 PUSH21 0x2072657461696C657220666F722074686973207072 PUSH16 0x647563744475706C6963617465207661 PUSH19 0x69616E74206174747269627574657320646574 PUSH6 0x637465645072 PUSH16 0x6475637420646F6573206E6F74206578 PUSH10 0x7374206F722073746174 PUSH22 0x7320697320617070726F7665644F6E6C7920636F6E74 PUSH19 0x6F6C6C6572206F722072657461696C65720000 STOP STOP STOP MSIZE PUSH16 0x7520617265206E6F7420746869732070 PUSH19 0x6F647563742072657461696C65727B2266726F PUSH14 0x223A202245636F6D50726F647563 PUSH21 0x2E736F6C222C22636F6465A2646970667358221220 MSTORE PUSH1 0x20 0xDF PUSH15 0x1CD08893189959C3952649AE42D8D7 0xE7 GASLIMIT 0xE7 PUSH27 0x609E0A4BD19157DC64736F6C634300081A00330000000000000000 "
		},
		"gasEstimates": {
			"creation": {
				"codeDepositCost": "10426400",
				"executionCost": "111984",
				"totalCost": "10538384"
			},
			"external": {
				"EcomInfo()": "2469",
				"EcomOrder()": "2470",
				"EcomUser()": "2448",
				"SetController(address)": "infinite",
				"SetEcomInfo(address)": "infinite",
				"SetEcomOrder(address)": "infinite",
				"SetEcomUser(address)": "infinite",
				"adminAcceptProduct(uint256)": "infinite",
				"adminRejectProduct(uint256)": "infinite",
				"admins(uint256)": "4768",
				"brands(uint256)": "infinite",
				"categories(uint256)": "4706",
				"categoryID()": "2384",
				"commentID()": "2407",
				"createCategory(string,string)": "infinite",
				"createComment(uint256,uint8,string,string)": "infinite",
				"createComments(uint256,(uint8,string,string,uint256)[])": "infinite",
				"createFAQPO5(string,string)": "infinite",
				"createFAQsPO5((string,string)[])": "infinite",
				"createFAQsProduct(uint256,(string,string)[])": "infinite",
				"createFavorite(uint256)": "infinite",
				"createFavorites(uint256[])": "infinite",
				"createProduct((string,uint256,string,uint256,uint256,uint256,uint256,uint256[],bytes[],uint256,uint256,bytes[],address,string,string,bool,bytes[],string,uint256,uint256,uint256,bool,bool,uint256),(bytes32,(bytes32,string,string)[],(uint256,uint256,uint256,uint256,uint256))[])": "infinite",
				"createRating(uint256,uint256)": "infinite",
				"createRatingForRetailer(uint256,uint256,uint256)": "infinite",
				"deleteAdmin(address)": "infinite",
				"deleteCategory(uint256)": "infinite",
				"deleteComment(uint256,uint256)": "infinite",
				"deleteFAQPO5(uint256)": "infinite",
				"deleteFAQProduct(uint256,uint256)": "infinite",
				"deleteFavorite(uint256)": "infinite",
				"deleteFavorites(uint256[])": "infinite",
				"deleteProduct(uint256)": "infinite",
				"deleteRating(uint256,uint256)": "infinite",
				"editCategory(uint256,string,string)": "infinite",
				"editComment(uint256,string)": "infinite",
				"editComments(uint256,(uint256,string)[])": "infinite",
				"editFAQPO5(uint256,string,string)": "infinite",
				"editFAQProducts(uint256,(uint256,string,string)[])": "infinite",
				"editRating(uint256,uint256,uint256)": "infinite",
				"faqID()": "2383",
				"faqs(uint256)": "4707",
				"getAllComments(uint256)": "infinite",
				"getAllProductInfo()": "infinite",
				"getAllProductInfoPagination((uint8,uint8,uint8,uint8,address,string,uint256,uint256,uint256,uint256))": "infinite",
				"getAllRetailerProductInfo(address)": "infinite",
				"getAttributesByCategory(uint256)": "infinite",
				"getBrands()": "infinite",
				"getCategories()": "infinite",
				"getCategory(uint256)": "infinite",
				"getComment(uint256)": "infinite",
				"getErrorMessage(uint256,string)": "infinite",
				"getFavorite(uint256)": "2631",
				"getFavorites()": "infinite",
				"getFlashSaleProduct()": "infinite",
				"getPO5FAQ()": "infinite",
				"getProduct(uint256)": "infinite",
				"getProductDetails(uint256)": "infinite",
				"getProductFAQ(uint256)": "infinite",
				"getProductInfo(uint256)": "infinite",
				"getProductRate(uint256)": "infinite",
				"getProductReviewRate(uint256,uint256[])": "infinite",
				"getProducts()": "infinite",
				"getRetailerProduct(address)": "infinite",
				"getRetailersByProductIds(uint256[])": "infinite",
				"getUserFavorites(address)": "infinite",
				"getUserRate(uint256)": "4921",
				"getVariant(uint256,bytes32)": "infinite",
				"mAdmin(address)": "2706",
				"mAttribute(bytes32)": "infinite",
				"mBrand(bytes)": "infinite",
				"mCategory(uint256)": "infinite",
				"mCategoryAttributes(uint256,uint256)": "4747",
				"mComment(uint256)": "infinite",
				"mCommentOfProduct(uint256,uint256)": "4794",
				"mController(address)": "2640",
				"mFAQ(uint256)": "infinite",
				"mFavorite(address,uint256)": "2799",
				"mIsCorrectRetailer(address,uint256)": "2689",
				"mProduct(uint256)": "infinite",
				"mProductFAQ(uint256,uint256)": "4749",
				"mProductRate(uint256,uint256)": "4748",
				"mProductVariant(uint256,uint256)": "4792",
				"mRate(uint256)": "9029",
				"mRetailerProduct(address,uint256)": "4805",
				"mReviewRate(uint256,uint256)": "2709",
				"mUserFavorites(address,uint256)": "7008",
				"mUserRating(address,uint256)": "4838",
				"mVariant(uint256,bytes32)": "13444",
				"mVariantAttributes(uint256,bytes32,uint256)": "infinite",
				"owner()": "2425",
				"productID()": "2382",
				"products(uint256)": "4641",
				"ratingID()": "2449",
				"setAdmin(address)": "infinite",
				"updateProduct(uint256,(string,uint256,string,uint256,uint256,uint256,uint256,uint256[],bytes[],uint256,uint256,bytes[],address,string,string,bool,bytes[],string,uint256,uint256,uint256,bool,bool,uint256),(bytes32,(bytes32,string,string)[],(uint256,uint256,uint256,uint256,uint256))[])": "infinite",
				"updateProductImages(uint256,bytes[])": "infinite",
				"updateProductQuantity(uint256,bytes32,uint256,uint256)": "infinite",
				"userConfirmedBuyThisProduct(address,uint256)": "2732"
			},
			"internal": {
				"_deleteProduct(uint256)": "infinite",
				"createFAQProduct(uint256,string memory,string memory)": "infinite",
				"editFAQProduct(uint256,uint256,string memory,string memory)": "infinite",
				"findMaxPrice(struct ProductInfo memory)": "infinite",
				"findMinPrice(struct ProductInfo memory)": "infinite",
				"hashAttributes(struct Attribute memory[] memory)": "infinite",
				"removeProductFromRetailer(address,uint256)": "infinite",
				"sortProductInfo(struct ProductInfo memory[] memory,bool,bool)": "infinite"
			}
		},
		"methodIdentifiers": {
			"EcomInfo()": "b814f77b",
			"EcomOrder()": "32f39436",
			"EcomUser()": "4d5c5fd7",
			"SetController(address)": "4ff63845",
			"SetEcomInfo(address)": "8a8869e2",
			"SetEcomOrder(address)": "44089cd1",
			"SetEcomUser(address)": "cac0e650",
			"adminAcceptProduct(uint256)": "fec0ed1d",
			"adminRejectProduct(uint256)": "43b3f034",
			"admins(uint256)": "14bfd6d0",
			"brands(uint256)": "fdcb5732",
			"categories(uint256)": "c6cdbe5e",
			"categoryID()": "b28917fe",
			"commentID()": "423f65a9",
			"createCategory(string,string)": "b224b4e9",
			"createComment(uint256,uint8,string,string)": "9ff99d9f",
			"createComments(uint256,(uint8,string,string,uint256)[])": "ee4e9fff",
			"createFAQPO5(string,string)": "af8eb714",
			"createFAQsPO5((string,string)[])": "6353aa22",
			"createFAQsProduct(uint256,(string,string)[])": "4708ee10",
			"createFavorite(uint256)": "d738d8a2",
			"createFavorites(uint256[])": "11d2a079",
			"createProduct((string,uint256,string,uint256,uint256,uint256,uint256,uint256[],bytes[],uint256,uint256,bytes[],address,string,string,bool,bytes[],string,uint256,uint256,uint256,bool,bool,uint256),(bytes32,(bytes32,string,string)[],(uint256,uint256,uint256,uint256,uint256))[])": "2c89f03b",
			"createRating(uint256,uint256)": "d06fd39b",
			"createRatingForRetailer(uint256,uint256,uint256)": "9406a816",
			"deleteAdmin(address)": "27e1f7df",
			"deleteCategory(uint256)": "ceca737f",
			"deleteComment(uint256,uint256)": "31a4bcb5",
			"deleteFAQPO5(uint256)": "039dbd13",
			"deleteFAQProduct(uint256,uint256)": "4905a13d",
			"deleteFavorite(uint256)": "841392db",
			"deleteFavorites(uint256[])": "e7303fc0",
			"deleteProduct(uint256)": "ed90c7b7",
			"deleteRating(uint256,uint256)": "40342308",
			"editCategory(uint256,string,string)": "edd1de4d",
			"editComment(uint256,string)": "ad816029",
			"editComments(uint256,(uint256,string)[])": "6138b4a5",
			"editFAQPO5(uint256,string,string)": "9b5ace9e",
			"editFAQProducts(uint256,(uint256,string,string)[])": "40b2527b",
			"editRating(uint256,uint256,uint256)": "3de21ac6",
			"faqID()": "b570fd8e",
			"faqs(uint256)": "8248a724",
			"getAllComments(uint256)": "03926df9",
			"getAllProductInfo()": "5b315089",
			"getAllProductInfoPagination((uint8,uint8,uint8,uint8,address,string,uint256,uint256,uint256,uint256))": "f82ee41a",
			"getAllRetailerProductInfo(address)": "1c8028a2",
			"getAttributesByCategory(uint256)": "41d6aced",
			"getBrands()": "822d487d",
			"getCategories()": "4db0412c",
			"getCategory(uint256)": "f3052d26",
			"getComment(uint256)": "0800e300",
			"getErrorMessage(uint256,string)": "2248632a",
			"getFavorite(uint256)": "21937b46",
			"getFavorites()": "0fb5d9e9",
			"getFlashSaleProduct()": "d904d7c5",
			"getPO5FAQ()": "7608a27e",
			"getProduct(uint256)": "b9db15b4",
			"getProductDetails(uint256)": "6813b53b",
			"getProductFAQ(uint256)": "10c54da8",
			"getProductInfo(uint256)": "79a85e6c",
			"getProductRate(uint256)": "7cbd4183",
			"getProductReviewRate(uint256,uint256[])": "67ef5a9a",
			"getProducts()": "c29b2f20",
			"getRetailerProduct(address)": "6bb42046",
			"getRetailersByProductIds(uint256[])": "66573f61",
			"getUserFavorites(address)": "c7853148",
			"getUserRate(uint256)": "fe5ed5dd",
			"getVariant(uint256,bytes32)": "0041c629",
			"mAdmin(address)": "9ddf2e95",
			"mAttribute(bytes32)": "b5c3a9dc",
			"mBrand(bytes)": "0abba767",
			"mCategory(uint256)": "a6ed62cf",
			"mCategoryAttributes(uint256,uint256)": "cbb77380",
			"mComment(uint256)": "d4eb7bad",
			"mCommentOfProduct(uint256,uint256)": "06b32424",
			"mController(address)": "b3dd67fe",
			"mFAQ(uint256)": "8e5254a6",
			"mFavorite(address,uint256)": "5183d6f4",
			"mIsCorrectRetailer(address,uint256)": "562e2c35",
			"mProduct(uint256)": "28d2a1b6",
			"mProductFAQ(uint256,uint256)": "1db6d8c0",
			"mProductRate(uint256,uint256)": "bb58e29f",
			"mProductVariant(uint256,uint256)": "b3ed37b2",
			"mRate(uint256)": "c7691cf6",
			"mRetailerProduct(address,uint256)": "29058f09",
			"mReviewRate(uint256,uint256)": "891c95f9",
			"mUserFavorites(address,uint256)": "680921ae",
			"mUserRating(address,uint256)": "0ba69a47",
			"mVariant(uint256,bytes32)": "47c1701f",
			"mVariantAttributes(uint256,bytes32,uint256)": "633481e6",
			"owner()": "8da5cb5b",
			"productID()": "f9fb452f",
			"products(uint256)": "7acc0b20",
			"ratingID()": "b8eec5ff",
			"setAdmin(address)": "704b6c02",
			"updateProduct(uint256,(string,uint256,string,uint256,uint256,uint256,uint256,uint256[],bytes[],uint256,uint256,bytes[],address,string,string,bool,bytes[],string,uint256,uint256,uint256,bool,bool,uint256),(bytes32,(bytes32,string,string)[],(uint256,uint256,uint256,uint256,uint256))[])": "a8f46830",
			"updateProductImages(uint256,bytes[])": "dee2412f",
			"updateProductQuantity(uint256,bytes32,uint256,uint256)": "1d068976",
			"userConfirmedBuyThisProduct(address,uint256)": "f497e49c"
		}
	},
	"abi": [
		{
			"inputs": [],
			"stateMutability": "payable",
			"type": "constructor"
		},
		{
			"anonymous": false,
			"inputs": [
				{
					"indexed": false,
					"internalType": "uint256",
					"name": "id",
					"type": "uint256"
				},
				{
					"indexed": false,
					"internalType": "string",
					"name": "name",
					"type": "string"
				},
				{
					"indexed": false,
					"internalType": "string",
					"name": "description",
					"type": "string"
				}
			],
			"name": "eCreateCategory",
			"type": "event"
		},
		{
			"anonymous": false,
			"inputs": [
				{
					"indexed": false,
					"internalType": "uint256",
					"name": "id",
					"type": "uint256"
				},
				{
					"components": [
						{
							"internalType": "string",
							"name": "name",
							"type": "string"
						},
						{
							"internalType": "uint256",
							"name": "categoryID",
							"type": "uint256"
						},
						{
							"internalType": "string",
							"name": "description",
							"type": "string"
						},
						{
							"internalType": "uint256",
							"name": "retailPrice",
							"type": "uint256"
						},
						{
							"internalType": "uint256",
							"name": "vipPrice",
							"type": "uint256"
						},
						{
							"internalType": "uint256",
							"name": "memberPrice",
							"type": "uint256"
						},
						{
							"internalType": "uint256",
							"name": "reward",
							"type": "uint256"
						},
						{
							"internalType": "uint256[]",
							"name": "capacity",
							"type": "uint256[]"
						},
						{
							"internalType": "bytes[]",
							"name": "size",
							"type": "bytes[]"
						},
						{
							"internalType": "uint256",
							"name": "quantity",
							"type": "uint256"
						},
						{
							"internalType": "uint256",
							"name": "shippingFee",
							"type": "uint256"
						},
						{
							"internalType": "bytes[]",
							"name": "color",
							"type": "bytes[]"
						},
						{
							"internalType": "address",
							"name": "retailer",
							"type": "address"
						},
						{
							"internalType": "string",
							"name": "brandName",
							"type": "string"
						},
						{
							"internalType": "string",
							"name": "warranty",
							"type": "string"
						},
						{
							"internalType": "bool",
							"name": "isFlashSale",
							"type": "bool"
						},
						{
							"internalType": "bytes[]",
							"name": "images",
							"type": "bytes[]"
						},
						{
							"internalType": "string",
							"name": "videoUrl",
							"type": "string"
						},
						{
							"internalType": "uint256",
							"name": "boostTime",
							"type": "uint256"
						},
						{
							"internalType": "uint256",
							"name": "expiryTime",
							"type": "uint256"
						},
						{
							"internalType": "uint256",
							"name": "activateTime",
							"type": "uint256"
						},
						{
							"internalType": "bool",
							"name": "isMultipleDiscount",
							"type": "bool"
						},
						{
							"internalType": "bool",
							"name": "isApprove",
							"type": "bool"
						},
						{
							"internalType": "uint256",
							"name": "sold",
							"type": "uint256"
						}
					],
					"indexed": false,
					"internalType": "struct createProductParams",
					"name": "params",
					"type": "tuple"
				}
			],
			"name": "eCreateProduct",
			"type": "event"
		},
		{
			"anonymous": false,
			"inputs": [
				{
					"indexed": false,
					"internalType": "uint256",
					"name": "id",
					"type": "uint256"
				}
			],
			"name": "eDeleteCategory",
			"type": "event"
		},
		{
			"anonymous": false,
			"inputs": [
				{
					"indexed": false,
					"internalType": "uint256",
					"name": "productID",
					"type": "uint256"
				}
			],
			"name": "eDeleteProduct",
			"type": "event"
		},
		{
			"anonymous": false,
			"inputs": [
				{
					"indexed": false,
					"internalType": "uint256",
					"name": "id",
					"type": "uint256"
				},
				{
					"indexed": false,
					"internalType": "string",
					"name": "name",
					"type": "string"
				},
				{
					"indexed": false,
					"internalType": "string",
					"name": "description",
					"type": "string"
				}
			],
			"name": "eEditCategory",
			"type": "event"
		},
		{
			"anonymous": false,
			"inputs": [
				{
					"indexed": false,
					"internalType": "string",
					"name": "username",
					"type": "string"
				},
				{
					"indexed": false,
					"internalType": "address",
					"name": "user",
					"type": "address"
				},
				{
					"indexed": false,
					"internalType": "string",
					"name": "phoneNumber",
					"type": "string"
				}
			],
			"name": "eRegisterRetailer",
			"type": "event"
		},
		{
			"anonymous": false,
			"inputs": [
				{
					"indexed": false,
					"internalType": "address",
					"name": "retailer",
					"type": "address"
				}
			],
			"name": "eSetRetailer",
			"type": "event"
		},
		{
			"anonymous": false,
			"inputs": [
				{
					"indexed": false,
					"internalType": "uint256",
					"name": "id",
					"type": "uint256"
				},
				{
					"components": [
						{
							"internalType": "string",
							"name": "name",
							"type": "string"
						},
						{
							"internalType": "uint256",
							"name": "categoryID",
							"type": "uint256"
						},
						{
							"internalType": "string",
							"name": "description",
							"type": "string"
						},
						{
							"internalType": "uint256",
							"name": "retailPrice",
							"type": "uint256"
						},
						{
							"internalType": "uint256",
							"name": "vipPrice",
							"type": "uint256"
						},
						{
							"internalType": "uint256",
							"name": "memberPrice",
							"type": "uint256"
						},
						{
							"internalType": "uint256",
							"name": "reward",
							"type": "uint256"
						},
						{
							"internalType": "uint256[]",
							"name": "capacity",
							"type": "uint256[]"
						},
						{
							"internalType": "bytes[]",
							"name": "size",
							"type": "bytes[]"
						},
						{
							"internalType": "uint256",
							"name": "quantity",
							"type": "uint256"
						},
						{
							"internalType": "uint256",
							"name": "shippingFee",
							"type": "uint256"
						},
						{
							"internalType": "bytes[]",
							"name": "color",
							"type": "bytes[]"
						},
						{
							"internalType": "address",
							"name": "retailer",
							"type": "address"
						},
						{
							"internalType": "string",
							"name": "brandName",
							"type": "string"
						},
						{
							"internalType": "string",
							"name": "warranty",
							"type": "string"
						},
						{
							"internalType": "bool",
							"name": "isFlashSale",
							"type": "bool"
						},
						{
							"internalType": "bytes[]",
							"name": "images",
							"type": "bytes[]"
						},
						{
							"internalType": "string",
							"name": "videoUrl",
							"type": "string"
						},
						{
							"internalType": "uint256",
							"name": "boostTime",
							"type": "uint256"
						},
						{
							"internalType": "uint256",
							"name": "expiryTime",
							"type": "uint256"
						},
						{
							"internalType": "uint256",
							"name": "activateTime",
							"type": "uint256"
						},
						{
							"internalType": "bool",
							"name": "isMultipleDiscount",
							"type": "bool"
						},
						{
							"internalType": "bool",
							"name": "isApprove",
							"type": "bool"
						},
						{
							"internalType": "uint256",
							"name": "sold",
							"type": "uint256"
						}
					],
					"indexed": false,
					"internalType": "struct createProductParams",
					"name": "params",
					"type": "tuple"
				}
			],
			"name": "eUpdateProduct",
			"type": "event"
		},
		{
			"inputs": [],
			"name": "EcomInfo",
			"outputs": [
				{
					"internalType": "contract IEcomInfo",
					"name": "",
					"type": "address"
				}
			],
			"stateMutability": "view",
			"type": "function"
		},
		{
			"inputs": [],
			"name": "EcomOrder",
			"outputs": [
				{
					"internalType": "contract IEcomOrder",
					"name": "",
					"type": "address"
				}
			],
			"stateMutability": "view",
			"type": "function"
		},
		{
			"inputs": [],
			"name": "EcomUser",
			"outputs": [
				{
					"internalType": "contract IEcomUser",
					"name": "",
					"type": "address"
				}
			],
			"stateMutability": "view",
			"type": "function"
		},
		{
			"inputs": [
				{
					"internalType": "address",
					"name": "_controller",
					"type": "address"
				}
			],
			"name": "SetController",
			"outputs": [
				{
					"internalType": "bool",
					"name": "",
					"type": "bool"
				}
			],
			"stateMutability": "nonpayable",
			"type": "function"
		},
		{
			"inputs": [
				{
					"internalType": "address",
					"name": "_ecomInfo",
					"type": "address"
				}
			],
			"name": "SetEcomInfo",
			"outputs": [
				{
					"internalType": "bool",
					"name": "",
					"type": "bool"
				}
			],
			"stateMutability": "nonpayable",
			"type": "function"
		},
		{
			"inputs": [
				{
					"internalType": "address",
					"name": "_ecomOrder",
					"type": "address"
				}
			],
			"name": "SetEcomOrder",
			"outputs": [
				{
					"internalType": "bool",
					"name": "",
					"type": "bool"
				}
			],
			"stateMutability": "nonpayable",
			"type": "function"
		},
		{
			"inputs": [
				{
					"internalType": "address",
					"name": "_ecomUser",
					"type": "address"
				}
			],
			"name": "SetEcomUser",
			"outputs": [
				{
					"internalType": "bool",
					"name": "",
					"type": "bool"
				}
			],
			"stateMutability": "nonpayable",
			"type": "function"
		},
		{
			"inputs": [
				{
					"internalType": "uint256",
					"name": "_productID",
					"type": "uint256"
				}
			],
			"name": "adminAcceptProduct",
			"outputs": [
				{
					"internalType": "bool",
					"name": "",
					"type": "bool"
				}
			],
			"stateMutability": "nonpayable",
			"type": "function"
		},
		{
			"inputs": [
				{
					"internalType": "uint256",
					"name": "_productID",
					"type": "uint256"
				}
			],
			"name": "adminRejectProduct",
			"outputs": [
				{
					"internalType": "bool",
					"name": "",
					"type": "bool"
				}
			],
			"stateMutability": "nonpayable",
			"type": "function"
		},
		{
			"inputs": [
				{
					"internalType": "uint256",
					"name": "",
					"type": "uint256"
				}
			],
			"name": "admins",
			"outputs": [
				{
					"internalType": "address",
					"name": "",
					"type": "address"
				}
			],
			"stateMutability": "view",
			"type": "function"
		},
		{
			"inputs": [
				{
					"internalType": "uint256",
					"name": "",
					"type": "uint256"
				}
			],
			"name": "brands",
			"outputs": [
				{
					"internalType": "bytes",
					"name": "",
					"type": "bytes"
				}
			],
			"stateMutability": "view",
			"type": "function"
		},
		{
			"inputs": [
				{
					"internalType": "uint256",
					"name": "",
					"type": "uint256"
				}
			],
			"name": "categories",
			"outputs": [
				{
					"internalType": "uint256",
					"name": "",
					"type": "uint256"
				}
			],
			"stateMutability": "view",
			"type": "function"
		},
		{
			"inputs": [],
			"name": "categoryID",
			"outputs": [
				{
					"internalType": "uint256",
					"name": "",
					"type": "uint256"
				}
			],
			"stateMutability": "view",
			"type": "function"
		},
		{
			"inputs": [],
			"name": "commentID",
			"outputs": [
				{
					"internalType": "uint256",
					"name": "",
					"type": "uint256"
				}
			],
			"stateMutability": "view",
			"type": "function"
		},
		{
			"inputs": [
				{
					"internalType": "string",
					"name": "_name",
					"type": "string"
				},
				{
					"internalType": "string",
					"name": "_description",
					"type": "string"
				}
			],
			"name": "createCategory",
			"outputs": [],
			"stateMutability": "nonpayable",
			"type": "function"
		},
		{
			"inputs": [
				{
					"internalType": "uint256",
					"name": "_productID",
					"type": "uint256"
				},
				{
					"internalType": "enum CommentType",
					"name": "commentType",
					"type": "uint8"
				},
				{
					"internalType": "string",
					"name": "content",
					"type": "string"
				},
				{
					"internalType": "string",
					"name": "name",
					"type": "string"
				}
			],
			"name": "createComment",
			"outputs": [
				{
					"internalType": "uint256",
					"name": "",
					"type": "uint256"
				}
			],
			"stateMutability": "nonpayable",
			"type": "function"
		},
		{
			"inputs": [
				{
					"internalType": "uint256",
					"name": "_productID",
					"type": "uint256"
				},
				{
					"components": [
						{
							"internalType": "enum CommentType",
							"name": "commentType",
							"type": "uint8"
						},
						{
							"internalType": "string",
							"name": "content",
							"type": "string"
						},
						{
							"internalType": "string",
							"name": "name",
							"type": "string"
						},
						{
							"internalType": "uint256",
							"name": "rate",
							"type": "uint256"
						}
					],
					"internalType": "struct createCommentParams[]",
					"name": "params",
					"type": "tuple[]"
				}
			],
			"name": "createComments",
			"outputs": [
				{
					"internalType": "bool",
					"name": "",
					"type": "bool"
				}
			],
			"stateMutability": "nonpayable",
			"type": "function"
		},
		{
			"inputs": [
				{
					"internalType": "string",
					"name": "title",
					"type": "string"
				},
				{
					"internalType": "string",
					"name": "content",
					"type": "string"
				}
			],
			"name": "createFAQPO5",
			"outputs": [
				{
					"internalType": "bool",
					"name": "",
					"type": "bool"
				}
			],
			"stateMutability": "nonpayable",
			"type": "function"
		},
		{
			"inputs": [
				{
					"components": [
						{
							"internalType": "string",
							"name": "title",
							"type": "string"
						},
						{
							"internalType": "string",
							"name": "content",
							"type": "string"
						}
					],
					"internalType": "struct createFaqParams[]",
					"name": "params",
					"type": "tuple[]"
				}
			],
			"name": "createFAQsPO5",
			"outputs": [
				{
					"internalType": "bool",
					"name": "",
					"type": "bool"
				}
			],
			"stateMutability": "nonpayable",
			"type": "function"
		},
		{
			"inputs": [
				{
					"internalType": "uint256",
					"name": "_productID",
					"type": "uint256"
				},
				{
					"components": [
						{
							"internalType": "string",
							"name": "title",
							"type": "string"
						},
						{
							"internalType": "string",
							"name": "content",
							"type": "string"
						}
					],
					"internalType": "struct createFaqParams[]",
					"name": "params",
					"type": "tuple[]"
				}
			],
			"name": "createFAQsProduct",
			"outputs": [
				{
					"internalType": "bool",
					"name": "",
					"type": "bool"
				}
			],
			"stateMutability": "nonpayable",
			"type": "function"
		},
		{
			"inputs": [
				{
					"internalType": "uint256",
					"name": "_productID",
					"type": "uint256"
				}
			],
			"name": "createFavorite",
			"outputs": [],
			"stateMutability": "nonpayable",
			"type": "function"
		},
		{
			"inputs": [
				{
					"internalType": "uint256[]",
					"name": "_productIds",
					"type": "uint256[]"
				}
			],
			"name": "createFavorites",
			"outputs": [],
			"stateMutability": "nonpayable",
			"type": "function"
		},
		{
			"inputs": [
				{
					"components": [
						{
							"internalType": "string",
							"name": "name",
							"type": "string"
						},
						{
							"internalType": "uint256",
							"name": "categoryID",
							"type": "uint256"
						},
						{
							"internalType": "string",
							"name": "description",
							"type": "string"
						},
						{
							"internalType": "uint256",
							"name": "retailPrice",
							"type": "uint256"
						},
						{
							"internalType": "uint256",
							"name": "vipPrice",
							"type": "uint256"
						},
						{
							"internalType": "uint256",
							"name": "memberPrice",
							"type": "uint256"
						},
						{
							"internalType": "uint256",
							"name": "reward",
							"type": "uint256"
						},
						{
							"internalType": "uint256[]",
							"name": "capacity",
							"type": "uint256[]"
						},
						{
							"internalType": "bytes[]",
							"name": "size",
							"type": "bytes[]"
						},
						{
							"internalType": "uint256",
							"name": "quantity",
							"type": "uint256"
						},
						{
							"internalType": "uint256",
							"name": "shippingFee",
							"type": "uint256"
						},
						{
							"internalType": "bytes[]",
							"name": "color",
							"type": "bytes[]"
						},
						{
							"internalType": "address",
							"name": "retailer",
							"type": "address"
						},
						{
							"internalType": "string",
							"name": "brandName",
							"type": "string"
						},
						{
							"internalType": "string",
							"name": "warranty",
							"type": "string"
						},
						{
							"internalType": "bool",
							"name": "isFlashSale",
							"type": "bool"
						},
						{
							"internalType": "bytes[]",
							"name": "images",
							"type": "bytes[]"
						},
						{
							"internalType": "string",
							"name": "videoUrl",
							"type": "string"
						},
						{
							"internalType": "uint256",
							"name": "boostTime",
							"type": "uint256"
						},
						{
							"internalType": "uint256",
							"name": "expiryTime",
							"type": "uint256"
						},
						{
							"internalType": "uint256",
							"name": "activateTime",
							"type": "uint256"
						},
						{
							"internalType": "bool",
							"name": "isMultipleDiscount",
							"type": "bool"
						},
						{
							"internalType": "bool",
							"name": "isApprove",
							"type": "bool"
						},
						{
							"internalType": "uint256",
							"name": "sold",
							"type": "uint256"
						}
					],
					"internalType": "struct createProductParams",
					"name": "params",
					"type": "tuple"
				},
				{
					"components": [
						{
							"internalType": "bytes32",
							"name": "variantID",
							"type": "bytes32"
						},
						{
							"components": [
								{
									"internalType": "bytes32",
									"name": "id",
									"type": "bytes32"
								},
								{
									"internalType": "string",
									"name": "key",
									"type": "string"
								},
								{
									"internalType": "string",
									"name": "value",
									"type": "string"
								}
							],
							"internalType": "struct Attribute[]",
							"name": "attrs",
							"type": "tuple[]"
						},
						{
							"components": [
								{
									"internalType": "uint256",
									"name": "retailPrice",
									"type": "uint256"
								},
								{
									"internalType": "uint256",
									"name": "vipPrice",
									"type": "uint256"
								},
								{
									"internalType": "uint256",
									"name": "memberPrice",
									"type": "uint256"
								},
								{
									"internalType": "uint256",
									"name": "reward",
									"type": "uint256"
								},
								{
									"internalType": "uint256",
									"name": "quantity",
									"type": "uint256"
								}
							],
							"internalType": "struct Pricing",
							"name": "priceOptions",
							"type": "tuple"
						}
					],
					"internalType": "struct VariantParams[]",
					"name": "_variants",
					"type": "tuple[]"
				}
			],
			"name": "createProduct",
			"outputs": [
				{
					"internalType": "uint256",
					"name": "",
					"type": "uint256"
				}
			],
			"stateMutability": "nonpayable",
			"type": "function"
		},
		{
			"inputs": [
				{
					"internalType": "uint256",
					"name": "_productID",
					"type": "uint256"
				},
				{
					"internalType": "uint256",
					"name": "rateValue",
					"type": "uint256"
				}
			],
			"name": "createRating",
			"outputs": [
				{
					"internalType": "bool",
					"name": "",
					"type": "bool"
				}
			],
			"stateMutability": "nonpayable",
			"type": "function"
		},
		{
			"inputs": [
				{
					"internalType": "uint256",
					"name": "_productID",
					"type": "uint256"
				},
				{
					"internalType": "uint256",
					"name": "_commentID",
					"type": "uint256"
				},
				{
					"internalType": "uint256",
					"name": "_rate",
					"type": "uint256"
				}
			],
			"name": "createRatingForRetailer",
			"outputs": [
				{
					"internalType": "bool",
					"name": "",
					"type": "bool"
				}
			],
			"stateMutability": "nonpayable",
			"type": "function"
		},
		{
			"inputs": [
				{
					"internalType": "address",
					"name": "user",
					"type": "address"
				}
			],
			"name": "deleteAdmin",
			"outputs": [
				{
					"internalType": "bool",
					"name": "",
					"type": "bool"
				}
			],
			"stateMutability": "nonpayable",
			"type": "function"
		},
		{
			"inputs": [
				{
					"internalType": "uint256",
					"name": "_id",
					"type": "uint256"
				}
			],
			"name": "deleteCategory",
			"outputs": [],
			"stateMutability": "nonpayable",
			"type": "function"
		},
		{
			"inputs": [
				{
					"internalType": "uint256",
					"name": "_productID",
					"type": "uint256"
				},
				{
					"internalType": "uint256",
					"name": "_commentID",
					"type": "uint256"
				}
			],
			"name": "deleteComment",
			"outputs": [],
			"stateMutability": "nonpayable",
			"type": "function"
		},
		{
			"inputs": [
				{
					"internalType": "uint256",
					"name": "_id",
					"type": "uint256"
				}
			],
			"name": "deleteFAQPO5",
			"outputs": [
				{
					"internalType": "bool",
					"name": "",
					"type": "bool"
				}
			],
			"stateMutability": "nonpayable",
			"type": "function"
		},
		{
			"inputs": [
				{
					"internalType": "uint256",
					"name": "_productID",
					"type": "uint256"
				},
				{
					"internalType": "uint256",
					"name": "_faqID",
					"type": "uint256"
				}
			],
			"name": "deleteFAQProduct",
			"outputs": [
				{
					"internalType": "bool",
					"name": "",
					"type": "bool"
				}
			],
			"stateMutability": "nonpayable",
			"type": "function"
		},
		{
			"inputs": [
				{
					"internalType": "uint256",
					"name": "_productID",
					"type": "uint256"
				}
			],
			"name": "deleteFavorite",
			"outputs": [],
			"stateMutability": "nonpayable",
			"type": "function"
		},
		{
			"inputs": [
				{
					"internalType": "uint256[]",
					"name": "_productIds",
					"type": "uint256[]"
				}
			],
			"name": "deleteFavorites",
			"outputs": [],
			"stateMutability": "nonpayable",
			"type": "function"
		},
		{
			"inputs": [
				{
					"internalType": "uint256",
					"name": "_productID",
					"type": "uint256"
				}
			],
			"name": "deleteProduct",
			"outputs": [
				{
					"internalType": "bool",
					"name": "",
					"type": "bool"
				}
			],
			"stateMutability": "nonpayable",
			"type": "function"
		},
		{
			"inputs": [
				{
					"internalType": "uint256",
					"name": "_productID",
					"type": "uint256"
				},
				{
					"internalType": "uint256",
					"name": "_ratingID",
					"type": "uint256"
				}
			],
			"name": "deleteRating",
			"outputs": [
				{
					"internalType": "bool",
					"name": "",
					"type": "bool"
				}
			],
			"stateMutability": "nonpayable",
			"type": "function"
		},
		{
			"inputs": [
				{
					"internalType": "uint256",
					"name": "_id",
					"type": "uint256"
				},
				{
					"internalType": "string",
					"name": "_name",
					"type": "string"
				},
				{
					"internalType": "string",
					"name": "_description",
					"type": "string"
				}
			],
			"name": "editCategory",
			"outputs": [],
			"stateMutability": "nonpayable",
			"type": "function"
		},
		{
			"inputs": [
				{
					"internalType": "uint256",
					"name": "_commentID",
					"type": "uint256"
				},
				{
					"internalType": "string",
					"name": "content",
					"type": "string"
				}
			],
			"name": "editComment",
			"outputs": [],
			"stateMutability": "nonpayable",
			"type": "function"
		},
		{
			"inputs": [
				{
					"internalType": "uint256",
					"name": "_productID",
					"type": "uint256"
				},
				{
					"components": [
						{
							"internalType": "uint256",
							"name": "commentID",
							"type": "uint256"
						},
						{
							"internalType": "string",
							"name": "content",
							"type": "string"
						}
					],
					"internalType": "struct editCommentsParam[]",
					"name": "params",
					"type": "tuple[]"
				}
			],
			"name": "editComments",
			"outputs": [],
			"stateMutability": "nonpayable",
			"type": "function"
		},
		{
			"inputs": [
				{
					"internalType": "uint256",
					"name": "_id",
					"type": "uint256"
				},
				{
					"internalType": "string",
					"name": "_title",
					"type": "string"
				},
				{
					"internalType": "string",
					"name": "_content",
					"type": "string"
				}
			],
			"name": "editFAQPO5",
			"outputs": [
				{
					"internalType": "bool",
					"name": "",
					"type": "bool"
				}
			],
			"stateMutability": "nonpayable",
			"type": "function"
		},
		{
			"inputs": [
				{
					"internalType": "uint256",
					"name": "_productID",
					"type": "uint256"
				},
				{
					"components": [
						{
							"internalType": "uint256",
							"name": "faqID",
							"type": "uint256"
						},
						{
							"internalType": "string",
							"name": "title",
							"type": "string"
						},
						{
							"internalType": "string",
							"name": "content",
							"type": "string"
						}
					],
					"internalType": "struct editFAQsProductParam[]",
					"name": "params",
					"type": "tuple[]"
				}
			],
			"name": "editFAQProducts",
			"outputs": [],
			"stateMutability": "nonpayable",
			"type": "function"
		},
		{
			"inputs": [
				{
					"internalType": "uint256",
					"name": "_productID",
					"type": "uint256"
				},
				{
					"internalType": "uint256",
					"name": "_ratingID",
					"type": "uint256"
				},
				{
					"internalType": "uint256",
					"name": "rateValue",
					"type": "uint256"
				}
			],
			"name": "editRating",
			"outputs": [
				{
					"internalType": "bool",
					"name": "",
					"type": "bool"
				}
			],
			"stateMutability": "nonpayable",
			"type": "function"
		},
		{
			"inputs": [],
			"name": "faqID",
			"outputs": [
				{
					"internalType": "uint256",
					"name": "",
					"type": "uint256"
				}
			],
			"stateMutability": "view",
			"type": "function"
		},
		{
			"inputs": [
				{
					"internalType": "uint256",
					"name": "",
					"type": "uint256"
				}
			],
			"name": "faqs",
			"outputs": [
				{
					"internalType": "uint256",
					"name": "",
					"type": "uint256"
				}
			],
			"stateMutability": "view",
			"type": "function"
		},
		{
			"inputs": [
				{
					"internalType": "uint256",
					"name": "_productID",
					"type": "uint256"
				}
			],
			"name": "getAllComments",
			"outputs": [
				{
					"components": [
						{
							"internalType": "uint256",
							"name": "id",
							"type": "uint256"
						},
						{
							"internalType": "address",
							"name": "user",
							"type": "address"
						},
						{
							"internalType": "string",
							"name": "name",
							"type": "string"
						},
						{
							"internalType": "string",
							"name": "message",
							"type": "string"
						},
						{
							"internalType": "uint8",
							"name": "commentType",
							"type": "uint8"
						},
						{
							"internalType": "uint256",
							"name": "createdAt",
							"type": "uint256"
						},
						{
							"internalType": "uint256",
							"name": "updatedAt",
							"type": "uint256"
						},
						{
							"internalType": "uint256",
							"name": "productID",
							"type": "uint256"
						}
					],
					"internalType": "struct Comment[]",
					"name": "",
					"type": "tuple[]"
				}
			],
			"stateMutability": "view",
			"type": "function"
		},
		{
			"inputs": [],
			"name": "getAllProductInfo",
			"outputs": [
				{
					"components": [
						{
							"components": [
								{
									"internalType": "uint256",
									"name": "id",
									"type": "uint256"
								},
								{
									"components": [
										{
											"internalType": "string",
											"name": "name",
											"type": "string"
										},
										{
											"internalType": "uint256",
											"name": "categoryID",
											"type": "uint256"
										},
										{
											"internalType": "string",
											"name": "description",
											"type": "string"
										},
										{
											"internalType": "uint256",
											"name": "retailPrice",
											"type": "uint256"
										},
										{
											"internalType": "uint256",
											"name": "vipPrice",
											"type": "uint256"
										},
										{
											"internalType": "uint256",
											"name": "memberPrice",
											"type": "uint256"
										},
										{
											"internalType": "uint256",
											"name": "reward",
											"type": "uint256"
										},
										{
											"internalType": "uint256[]",
											"name": "capacity",
											"type": "uint256[]"
										},
										{
											"internalType": "bytes[]",
											"name": "size",
											"type": "bytes[]"
										},
										{
											"internalType": "uint256",
											"name": "quantity",
											"type": "uint256"
										},
										{
											"internalType": "uint256",
											"name": "shippingFee",
											"type": "uint256"
										},
										{
											"internalType": "bytes[]",
											"name": "color",
											"type": "bytes[]"
										},
										{
											"internalType": "address",
											"name": "retailer",
											"type": "address"
										},
										{
											"internalType": "string",
											"name": "brandName",
											"type": "string"
										},
										{
											"internalType": "string",
											"name": "warranty",
											"type": "string"
										},
										{
											"internalType": "bool",
											"name": "isFlashSale",
											"type": "bool"
										},
										{
											"internalType": "bytes[]",
											"name": "images",
											"type": "bytes[]"
										},
										{
											"internalType": "string",
											"name": "videoUrl",
											"type": "string"
										},
										{
											"internalType": "uint256",
											"name": "boostTime",
											"type": "uint256"
										},
										{
											"internalType": "uint256",
											"name": "expiryTime",
											"type": "uint256"
										},
										{
											"internalType": "uint256",
											"name": "activateTime",
											"type": "uint256"
										},
										{
											"internalType": "bool",
											"name": "isMultipleDiscount",
											"type": "bool"
										},
										{
											"internalType": "bool",
											"name": "isApprove",
											"type": "bool"
										},
										{
											"internalType": "uint256",
											"name": "sold",
											"type": "uint256"
										}
									],
									"internalType": "struct createProductParams",
									"name": "params",
									"type": "tuple"
								},
								{
									"internalType": "uint256",
									"name": "createdAt",
									"type": "uint256"
								},
								{
									"internalType": "uint256",
									"name": "updatedAt",
									"type": "uint256"
								}
							],
							"internalType": "struct Product",
							"name": "product",
							"type": "tuple"
						},
						{
							"components": [
								{
									"internalType": "bytes32",
									"name": "variantID",
									"type": "bytes32"
								},
								{
									"components": [
										{
											"internalType": "uint256",
											"name": "retailPrice",
											"type": "uint256"
										},
										{
											"internalType": "uint256",
											"name": "vipPrice",
											"type": "uint256"
										},
										{
											"internalType": "uint256",
											"name": "memberPrice",
											"type": "uint256"
										},
										{
											"internalType": "uint256",
											"name": "reward",
											"type": "uint256"
										},
										{
											"internalType": "uint256",
											"name": "quantity",
											"type": "uint256"
										}
									],
									"internalType": "struct Pricing",
									"name": "priceOptions",
									"type": "tuple"
								}
							],
							"internalType": "struct Variant[]",
							"name": "variants",
							"type": "tuple[]"
						},
						{
							"components": [
								{
									"internalType": "bytes32",
									"name": "id",
									"type": "bytes32"
								},
								{
									"internalType": "string",
									"name": "key",
									"type": "string"
								},
								{
									"internalType": "string",
									"name": "value",
									"type": "string"
								}
							],
							"internalType": "struct Attribute[][]",
							"name": "attributes",
							"type": "tuple[][]"
						}
					],
					"internalType": "struct ProductInfo[]",
					"name": "productsInfo",
					"type": "tuple[]"
				}
			],
			"stateMutability": "view",
			"type": "function"
		},
		{
			"inputs": [
				{
					"components": [
						{
							"internalType": "enum EProductType",
							"name": "_productType",
							"type": "uint8"
						},
						{
							"internalType": "enum EPrice",
							"name": "_price",
							"type": "uint8"
						},
						{
							"internalType": "enum EDatePost",
							"name": "_datePost",
							"type": "uint8"
						},
						{
							"internalType": "enum EStatus",
							"name": "_status",
							"type": "uint8"
						},
						{
							"internalType": "address",
							"name": "_retailer",
							"type": "address"
						},
						{
							"internalType": "string",
							"name": "_term",
							"type": "string"
						},
						{
							"internalType": "uint256",
							"name": "_from",
							"type": "uint256"
						},
						{
							"internalType": "uint256",
							"name": "_to",
							"type": "uint256"
						},
						{
							"internalType": "uint256",
							"name": "page",
							"type": "uint256"
						},
						{
							"internalType": "uint256",
							"name": "perPage",
							"type": "uint256"
						}
					],
					"internalType": "struct getProductManagementParams",
					"name": "params",
					"type": "tuple"
				}
			],
			"name": "getAllProductInfoPagination",
			"outputs": [
				{
					"components": [
						{
							"components": [
								{
									"internalType": "uint256",
									"name": "id",
									"type": "uint256"
								},
								{
									"components": [
										{
											"internalType": "string",
											"name": "name",
											"type": "string"
										},
										{
											"internalType": "uint256",
											"name": "categoryID",
											"type": "uint256"
										},
										{
											"internalType": "string",
											"name": "description",
											"type": "string"
										},
										{
											"internalType": "uint256",
											"name": "retailPrice",
											"type": "uint256"
										},
										{
											"internalType": "uint256",
											"name": "vipPrice",
											"type": "uint256"
										},
										{
											"internalType": "uint256",
											"name": "memberPrice",
											"type": "uint256"
										},
										{
											"internalType": "uint256",
											"name": "reward",
											"type": "uint256"
										},
										{
											"internalType": "uint256[]",
											"name": "capacity",
											"type": "uint256[]"
										},
										{
											"internalType": "bytes[]",
											"name": "size",
											"type": "bytes[]"
										},
										{
											"internalType": "uint256",
											"name": "quantity",
											"type": "uint256"
										},
										{
											"internalType": "uint256",
											"name": "shippingFee",
											"type": "uint256"
										},
										{
											"internalType": "bytes[]",
											"name": "color",
											"type": "bytes[]"
										},
										{
											"internalType": "address",
											"name": "retailer",
											"type": "address"
										},
										{
											"internalType": "string",
											"name": "brandName",
											"type": "string"
										},
										{
											"internalType": "string",
											"name": "warranty",
											"type": "string"
										},
										{
											"internalType": "bool",
											"name": "isFlashSale",
											"type": "bool"
										},
										{
											"internalType": "bytes[]",
											"name": "images",
											"type": "bytes[]"
										},
										{
											"internalType": "string",
											"name": "videoUrl",
											"type": "string"
										},
										{
											"internalType": "uint256",
											"name": "boostTime",
											"type": "uint256"
										},
										{
											"internalType": "uint256",
											"name": "expiryTime",
											"type": "uint256"
										},
										{
											"internalType": "uint256",
											"name": "activateTime",
											"type": "uint256"
										},
										{
											"internalType": "bool",
											"name": "isMultipleDiscount",
											"type": "bool"
										},
										{
											"internalType": "bool",
											"name": "isApprove",
											"type": "bool"
										},
										{
											"internalType": "uint256",
											"name": "sold",
											"type": "uint256"
										}
									],
									"internalType": "struct createProductParams",
									"name": "params",
									"type": "tuple"
								},
								{
									"internalType": "uint256",
									"name": "createdAt",
									"type": "uint256"
								},
								{
									"internalType": "uint256",
									"name": "updatedAt",
									"type": "uint256"
								}
							],
							"internalType": "struct Product",
							"name": "product",
							"type": "tuple"
						},
						{
							"components": [
								{
									"internalType": "bytes32",
									"name": "variantID",
									"type": "bytes32"
								},
								{
									"components": [
										{
											"internalType": "uint256",
											"name": "retailPrice",
											"type": "uint256"
										},
										{
											"internalType": "uint256",
											"name": "vipPrice",
											"type": "uint256"
										},
										{
											"internalType": "uint256",
											"name": "memberPrice",
											"type": "uint256"
										},
										{
											"internalType": "uint256",
											"name": "reward",
											"type": "uint256"
										},
										{
											"internalType": "uint256",
											"name": "quantity",
											"type": "uint256"
										}
									],
									"internalType": "struct Pricing",
									"name": "priceOptions",
									"type": "tuple"
								}
							],
							"internalType": "struct Variant[]",
							"name": "variants",
							"type": "tuple[]"
						},
						{
							"components": [
								{
									"internalType": "bytes32",
									"name": "id",
									"type": "bytes32"
								},
								{
									"internalType": "string",
									"name": "key",
									"type": "string"
								},
								{
									"internalType": "string",
									"name": "value",
									"type": "string"
								}
							],
							"internalType": "struct Attribute[][]",
							"name": "attributes",
							"type": "tuple[][]"
						}
					],
					"internalType": "struct ProductInfo[]",
					"name": "productsInfo",
					"type": "tuple[]"
				},
				{
					"internalType": "bool",
					"name": "isMore",
					"type": "bool"
				}
			],
			"stateMutability": "view",
			"type": "function"
		},
		{
			"inputs": [
				{
					"internalType": "address",
					"name": "_retailer",
					"type": "address"
				}
			],
			"name": "getAllRetailerProductInfo",
			"outputs": [
				{
					"components": [
						{
							"components": [
								{
									"internalType": "uint256",
									"name": "id",
									"type": "uint256"
								},
								{
									"components": [
										{
											"internalType": "string",
											"name": "name",
											"type": "string"
										},
										{
											"internalType": "uint256",
											"name": "categoryID",
											"type": "uint256"
										},
										{
											"internalType": "string",
											"name": "description",
											"type": "string"
										},
										{
											"internalType": "uint256",
											"name": "retailPrice",
											"type": "uint256"
										},
										{
											"internalType": "uint256",
											"name": "vipPrice",
											"type": "uint256"
										},
										{
											"internalType": "uint256",
											"name": "memberPrice",
											"type": "uint256"
										},
										{
											"internalType": "uint256",
											"name": "reward",
											"type": "uint256"
										},
										{
											"internalType": "uint256[]",
											"name": "capacity",
											"type": "uint256[]"
										},
										{
											"internalType": "bytes[]",
											"name": "size",
											"type": "bytes[]"
										},
										{
											"internalType": "uint256",
											"name": "quantity",
											"type": "uint256"
										},
										{
											"internalType": "uint256",
											"name": "shippingFee",
											"type": "uint256"
										},
										{
											"internalType": "bytes[]",
											"name": "color",
											"type": "bytes[]"
										},
										{
											"internalType": "address",
											"name": "retailer",
											"type": "address"
										},
										{
											"internalType": "string",
											"name": "brandName",
											"type": "string"
										},
										{
											"internalType": "string",
											"name": "warranty",
											"type": "string"
										},
										{
											"internalType": "bool",
											"name": "isFlashSale",
											"type": "bool"
										},
										{
											"internalType": "bytes[]",
											"name": "images",
											"type": "bytes[]"
										},
										{
											"internalType": "string",
											"name": "videoUrl",
											"type": "string"
										},
										{
											"internalType": "uint256",
											"name": "boostTime",
											"type": "uint256"
										},
										{
											"internalType": "uint256",
											"name": "expiryTime",
											"type": "uint256"
										},
										{
											"internalType": "uint256",
											"name": "activateTime",
											"type": "uint256"
										},
										{
											"internalType": "bool",
											"name": "isMultipleDiscount",
											"type": "bool"
										},
										{
											"internalType": "bool",
											"name": "isApprove",
											"type": "bool"
										},
										{
											"internalType": "uint256",
											"name": "sold",
											"type": "uint256"
										}
									],
									"internalType": "struct createProductParams",
									"name": "params",
									"type": "tuple"
								},
								{
									"internalType": "uint256",
									"name": "createdAt",
									"type": "uint256"
								},
								{
									"internalType": "uint256",
									"name": "updatedAt",
									"type": "uint256"
								}
							],
							"internalType": "struct Product",
							"name": "product",
							"type": "tuple"
						},
						{
							"components": [
								{
									"internalType": "bytes32",
									"name": "variantID",
									"type": "bytes32"
								},
								{
									"components": [
										{
											"internalType": "uint256",
											"name": "retailPrice",
											"type": "uint256"
										},
										{
											"internalType": "uint256",
											"name": "vipPrice",
											"type": "uint256"
										},
										{
											"internalType": "uint256",
											"name": "memberPrice",
											"type": "uint256"
										},
										{
											"internalType": "uint256",
											"name": "reward",
											"type": "uint256"
										},
										{
											"internalType": "uint256",
											"name": "quantity",
											"type": "uint256"
										}
									],
									"internalType": "struct Pricing",
									"name": "priceOptions",
									"type": "tuple"
								}
							],
							"internalType": "struct Variant[]",
							"name": "variants",
							"type": "tuple[]"
						},
						{
							"components": [
								{
									"internalType": "bytes32",
									"name": "id",
									"type": "bytes32"
								},
								{
									"internalType": "string",
									"name": "key",
									"type": "string"
								},
								{
									"internalType": "string",
									"name": "value",
									"type": "string"
								}
							],
							"internalType": "struct Attribute[][]",
							"name": "attributes",
							"type": "tuple[][]"
						}
					],
					"internalType": "struct ProductInfo[]",
					"name": "productsInfo",
					"type": "tuple[]"
				}
			],
			"stateMutability": "view",
			"type": "function"
		},
		{
			"inputs": [
				{
					"internalType": "uint256",
					"name": "_categoryID",
					"type": "uint256"
				}
			],
			"name": "getAttributesByCategory",
			"outputs": [
				{
					"components": [
						{
							"internalType": "bytes32",
							"name": "id",
							"type": "bytes32"
						},
						{
							"internalType": "string",
							"name": "key",
							"type": "string"
						},
						{
							"internalType": "string",
							"name": "value",
							"type": "string"
						}
					],
					"internalType": "struct Attribute[]",
					"name": "attrs",
					"type": "tuple[]"
				}
			],
			"stateMutability": "view",
			"type": "function"
		},
		{
			"inputs": [],
			"name": "getBrands",
			"outputs": [
				{
					"internalType": "bytes[]",
					"name": "",
					"type": "bytes[]"
				}
			],
			"stateMutability": "view",
			"type": "function"
		},
		{
			"inputs": [],
			"name": "getCategories",
			"outputs": [
				{
					"components": [
						{
							"internalType": "uint256",
							"name": "id",
							"type": "uint256"
						},
						{
							"internalType": "string",
							"name": "name",
							"type": "string"
						},
						{
							"internalType": "string",
							"name": "description",
							"type": "string"
						}
					],
					"internalType": "struct Category[]",
					"name": "",
					"type": "tuple[]"
				}
			],
			"stateMutability": "view",
			"type": "function"
		},
		{
			"inputs": [
				{
					"internalType": "uint256",
					"name": "_categoryID",
					"type": "uint256"
				}
			],
			"name": "getCategory",
			"outputs": [
				{
					"components": [
						{
							"internalType": "uint256",
							"name": "id",
							"type": "uint256"
						},
						{
							"internalType": "string",
							"name": "name",
							"type": "string"
						},
						{
							"internalType": "string",
							"name": "description",
							"type": "string"
						}
					],
					"internalType": "struct Category",
					"name": "",
					"type": "tuple"
				}
			],
			"stateMutability": "view",
			"type": "function"
		},
		{
			"inputs": [
				{
					"internalType": "uint256",
					"name": "_id",
					"type": "uint256"
				}
			],
			"name": "getComment",
			"outputs": [
				{
					"components": [
						{
							"internalType": "uint256",
							"name": "id",
							"type": "uint256"
						},
						{
							"internalType": "address",
							"name": "user",
							"type": "address"
						},
						{
							"internalType": "string",
							"name": "name",
							"type": "string"
						},
						{
							"internalType": "string",
							"name": "message",
							"type": "string"
						},
						{
							"internalType": "uint8",
							"name": "commentType",
							"type": "uint8"
						},
						{
							"internalType": "uint256",
							"name": "createdAt",
							"type": "uint256"
						},
						{
							"internalType": "uint256",
							"name": "updatedAt",
							"type": "uint256"
						},
						{
							"internalType": "uint256",
							"name": "productID",
							"type": "uint256"
						}
					],
					"internalType": "struct Comment",
					"name": "",
					"type": "tuple"
				}
			],
			"stateMutability": "view",
			"type": "function"
		},
		{
			"inputs": [
				{
					"internalType": "uint256",
					"name": "code",
					"type": "uint256"
				},
				{
					"internalType": "string",
					"name": "message",
					"type": "string"
				}
			],
			"name": "getErrorMessage",
			"outputs": [
				{
					"internalType": "string",
					"name": "",
					"type": "string"
				}
			],
			"stateMutability": "pure",
			"type": "function"
		},
		{
			"inputs": [
				{
					"internalType": "uint256",
					"name": "_productID",
					"type": "uint256"
				}
			],
			"name": "getFavorite",
			"outputs": [
				{
					"internalType": "bool",
					"name": "",
					"type": "bool"
				}
			],
			"stateMutability": "view",
			"type": "function"
		},
		{
			"inputs": [],
			"name": "getFavorites",
			"outputs": [
				{
					"components": [
						{
							"internalType": "uint256",
							"name": "productID",
							"type": "uint256"
						},
						{
							"internalType": "uint256",
							"name": "createdAt",
							"type": "uint256"
						}
					],
					"internalType": "struct Favorite[]",
					"name": "",
					"type": "tuple[]"
				}
			],
			"stateMutability": "view",
			"type": "function"
		},
		{
			"inputs": [],
			"name": "getFlashSaleProduct",
			"outputs": [
				{
					"components": [
						{
							"internalType": "uint256",
							"name": "id",
							"type": "uint256"
						},
						{
							"components": [
								{
									"internalType": "string",
									"name": "name",
									"type": "string"
								},
								{
									"internalType": "uint256",
									"name": "categoryID",
									"type": "uint256"
								},
								{
									"internalType": "string",
									"name": "description",
									"type": "string"
								},
								{
									"internalType": "uint256",
									"name": "retailPrice",
									"type": "uint256"
								},
								{
									"internalType": "uint256",
									"name": "vipPrice",
									"type": "uint256"
								},
								{
									"internalType": "uint256",
									"name": "memberPrice",
									"type": "uint256"
								},
								{
									"internalType": "uint256",
									"name": "reward",
									"type": "uint256"
								},
								{
									"internalType": "uint256[]",
									"name": "capacity",
									"type": "uint256[]"
								},
								{
									"internalType": "bytes[]",
									"name": "size",
									"type": "bytes[]"
								},
								{
									"internalType": "uint256",
									"name": "quantity",
									"type": "uint256"
								},
								{
									"internalType": "uint256",
									"name": "shippingFee",
									"type": "uint256"
								},
								{
									"internalType": "bytes[]",
									"name": "color",
									"type": "bytes[]"
								},
								{
									"internalType": "address",
									"name": "retailer",
									"type": "address"
								},
								{
									"internalType": "string",
									"name": "brandName",
									"type": "string"
								},
								{
									"internalType": "string",
									"name": "warranty",
									"type": "string"
								},
								{
									"internalType": "bool",
									"name": "isFlashSale",
									"type": "bool"
								},
								{
									"internalType": "bytes[]",
									"name": "images",
									"type": "bytes[]"
								},
								{
									"internalType": "string",
									"name": "videoUrl",
									"type": "string"
								},
								{
									"internalType": "uint256",
									"name": "boostTime",
									"type": "uint256"
								},
								{
									"internalType": "uint256",
									"name": "expiryTime",
									"type": "uint256"
								},
								{
									"internalType": "uint256",
									"name": "activateTime",
									"type": "uint256"
								},
								{
									"internalType": "bool",
									"name": "isMultipleDiscount",
									"type": "bool"
								},
								{
									"internalType": "bool",
									"name": "isApprove",
									"type": "bool"
								},
								{
									"internalType": "uint256",
									"name": "sold",
									"type": "uint256"
								}
							],
							"internalType": "struct createProductParams",
							"name": "params",
							"type": "tuple"
						},
						{
							"internalType": "uint256",
							"name": "createdAt",
							"type": "uint256"
						},
						{
							"internalType": "uint256",
							"name": "updatedAt",
							"type": "uint256"
						}
					],
					"internalType": "struct Product[]",
					"name": "",
					"type": "tuple[]"
				}
			],
			"stateMutability": "view",
			"type": "function"
		},
		{
			"inputs": [],
			"name": "getPO5FAQ",
			"outputs": [
				{
					"components": [
						{
							"internalType": "uint256",
							"name": "id",
							"type": "uint256"
						},
						{
							"internalType": "string",
							"name": "title",
							"type": "string"
						},
						{
							"internalType": "string",
							"name": "content",
							"type": "string"
						}
					],
					"internalType": "struct FAQ[]",
					"name": "",
					"type": "tuple[]"
				}
			],
			"stateMutability": "view",
			"type": "function"
		},
		{
			"inputs": [
				{
					"internalType": "uint256",
					"name": "_productID",
					"type": "uint256"
				}
			],
			"name": "getProduct",
			"outputs": [
				{
					"components": [
						{
							"internalType": "uint256",
							"name": "id",
							"type": "uint256"
						},
						{
							"components": [
								{
									"internalType": "string",
									"name": "name",
									"type": "string"
								},
								{
									"internalType": "uint256",
									"name": "categoryID",
									"type": "uint256"
								},
								{
									"internalType": "string",
									"name": "description",
									"type": "string"
								},
								{
									"internalType": "uint256",
									"name": "retailPrice",
									"type": "uint256"
								},
								{
									"internalType": "uint256",
									"name": "vipPrice",
									"type": "uint256"
								},
								{
									"internalType": "uint256",
									"name": "memberPrice",
									"type": "uint256"
								},
								{
									"internalType": "uint256",
									"name": "reward",
									"type": "uint256"
								},
								{
									"internalType": "uint256[]",
									"name": "capacity",
									"type": "uint256[]"
								},
								{
									"internalType": "bytes[]",
									"name": "size",
									"type": "bytes[]"
								},
								{
									"internalType": "uint256",
									"name": "quantity",
									"type": "uint256"
								},
								{
									"internalType": "uint256",
									"name": "shippingFee",
									"type": "uint256"
								},
								{
									"internalType": "bytes[]",
									"name": "color",
									"type": "bytes[]"
								},
								{
									"internalType": "address",
									"name": "retailer",
									"type": "address"
								},
								{
									"internalType": "string",
									"name": "brandName",
									"type": "string"
								},
								{
									"internalType": "string",
									"name": "warranty",
									"type": "string"
								},
								{
									"internalType": "bool",
									"name": "isFlashSale",
									"type": "bool"
								},
								{
									"internalType": "bytes[]",
									"name": "images",
									"type": "bytes[]"
								},
								{
									"internalType": "string",
									"name": "videoUrl",
									"type": "string"
								},
								{
									"internalType": "uint256",
									"name": "boostTime",
									"type": "uint256"
								},
								{
									"internalType": "uint256",
									"name": "expiryTime",
									"type": "uint256"
								},
								{
									"internalType": "uint256",
									"name": "activateTime",
									"type": "uint256"
								},
								{
									"internalType": "bool",
									"name": "isMultipleDiscount",
									"type": "bool"
								},
								{
									"internalType": "bool",
									"name": "isApprove",
									"type": "bool"
								},
								{
									"internalType": "uint256",
									"name": "sold",
									"type": "uint256"
								}
							],
							"internalType": "struct createProductParams",
							"name": "params",
							"type": "tuple"
						},
						{
							"internalType": "uint256",
							"name": "createdAt",
							"type": "uint256"
						},
						{
							"internalType": "uint256",
							"name": "updatedAt",
							"type": "uint256"
						}
					],
					"internalType": "struct Product",
					"name": "",
					"type": "tuple"
				}
			],
			"stateMutability": "view",
			"type": "function"
		},
		{
			"inputs": [
				{
					"internalType": "uint256",
					"name": "_productID",
					"type": "uint256"
				}
			],
			"name": "getProductDetails",
			"outputs": [
				{
					"components": [
						{
							"internalType": "uint256",
							"name": "id",
							"type": "uint256"
						},
						{
							"internalType": "address",
							"name": "user",
							"type": "address"
						},
						{
							"internalType": "string",
							"name": "name",
							"type": "string"
						},
						{
							"internalType": "string",
							"name": "message",
							"type": "string"
						},
						{
							"internalType": "uint8",
							"name": "commentType",
							"type": "uint8"
						},
						{
							"internalType": "uint256",
							"name": "createdAt",
							"type": "uint256"
						},
						{
							"internalType": "uint256",
							"name": "updatedAt",
							"type": "uint256"
						},
						{
							"internalType": "uint256",
							"name": "productID",
							"type": "uint256"
						}
					],
					"internalType": "struct Comment[]",
					"name": "_comments",
					"type": "tuple[]"
				},
				{
					"components": [
						{
							"internalType": "uint256",
							"name": "id",
							"type": "uint256"
						},
						{
							"internalType": "address",
							"name": "user",
							"type": "address"
						},
						{
							"internalType": "uint256",
							"name": "rateValue",
							"type": "uint256"
						},
						{
							"internalType": "uint256",
							"name": "createdAt",
							"type": "uint256"
						}
					],
					"internalType": "struct Rating[]",
					"name": "_rating",
					"type": "tuple[]"
				},
				{
					"components": [
						{
							"internalType": "uint256",
							"name": "id",
							"type": "uint256"
						},
						{
							"internalType": "string",
							"name": "title",
							"type": "string"
						},
						{
							"internalType": "string",
							"name": "content",
							"type": "string"
						}
					],
					"internalType": "struct FAQ[]",
					"name": "_faqs",
					"type": "tuple[]"
				},
				{
					"internalType": "uint256[]",
					"name": "_productPurchaseTrend",
					"type": "uint256[]"
				},
				{
					"internalType": "uint256[]",
					"name": "_productTrend",
					"type": "uint256[]"
				},
				{
					"internalType": "uint256[]",
					"name": "_rates",
					"type": "uint256[]"
				}
			],
			"stateMutability": "view",
			"type": "function"
		},
		{
			"inputs": [
				{
					"internalType": "uint256",
					"name": "_productID",
					"type": "uint256"
				}
			],
			"name": "getProductFAQ",
			"outputs": [
				{
					"components": [
						{
							"internalType": "uint256",
							"name": "id",
							"type": "uint256"
						},
						{
							"internalType": "string",
							"name": "title",
							"type": "string"
						},
						{
							"internalType": "string",
							"name": "content",
							"type": "string"
						}
					],
					"internalType": "struct FAQ[]",
					"name": "",
					"type": "tuple[]"
				}
			],
			"stateMutability": "view",
			"type": "function"
		},
		{
			"inputs": [
				{
					"internalType": "uint256",
					"name": "_productId",
					"type": "uint256"
				}
			],
			"name": "getProductInfo",
			"outputs": [
				{
					"components": [
						{
							"components": [
								{
									"internalType": "uint256",
									"name": "id",
									"type": "uint256"
								},
								{
									"components": [
										{
											"internalType": "string",
											"name": "name",
											"type": "string"
										},
										{
											"internalType": "uint256",
											"name": "categoryID",
											"type": "uint256"
										},
										{
											"internalType": "string",
											"name": "description",
											"type": "string"
										},
										{
											"internalType": "uint256",
											"name": "retailPrice",
											"type": "uint256"
										},
										{
											"internalType": "uint256",
											"name": "vipPrice",
											"type": "uint256"
										},
										{
											"internalType": "uint256",
											"name": "memberPrice",
											"type": "uint256"
										},
										{
											"internalType": "uint256",
											"name": "reward",
											"type": "uint256"
										},
										{
											"internalType": "uint256[]",
											"name": "capacity",
											"type": "uint256[]"
										},
										{
											"internalType": "bytes[]",
											"name": "size",
											"type": "bytes[]"
										},
										{
											"internalType": "uint256",
											"name": "quantity",
											"type": "uint256"
										},
										{
											"internalType": "uint256",
											"name": "shippingFee",
											"type": "uint256"
										},
										{
											"internalType": "bytes[]",
											"name": "color",
											"type": "bytes[]"
										},
										{
											"internalType": "address",
											"name": "retailer",
											"type": "address"
										},
										{
											"internalType": "string",
											"name": "brandName",
											"type": "string"
										},
										{
											"internalType": "string",
											"name": "warranty",
											"type": "string"
										},
										{
											"internalType": "bool",
											"name": "isFlashSale",
											"type": "bool"
										},
										{
											"internalType": "bytes[]",
											"name": "images",
											"type": "bytes[]"
										},
										{
											"internalType": "string",
											"name": "videoUrl",
											"type": "string"
										},
										{
											"internalType": "uint256",
											"name": "boostTime",
											"type": "uint256"
										},
										{
											"internalType": "uint256",
											"name": "expiryTime",
											"type": "uint256"
										},
										{
											"internalType": "uint256",
											"name": "activateTime",
											"type": "uint256"
										},
										{
											"internalType": "bool",
											"name": "isMultipleDiscount",
											"type": "bool"
										},
										{
											"internalType": "bool",
											"name": "isApprove",
											"type": "bool"
										},
										{
											"internalType": "uint256",
											"name": "sold",
											"type": "uint256"
										}
									],
									"internalType": "struct createProductParams",
									"name": "params",
									"type": "tuple"
								},
								{
									"internalType": "uint256",
									"name": "createdAt",
									"type": "uint256"
								},
								{
									"internalType": "uint256",
									"name": "updatedAt",
									"type": "uint256"
								}
							],
							"internalType": "struct Product",
							"name": "product",
							"type": "tuple"
						},
						{
							"components": [
								{
									"internalType": "bytes32",
									"name": "variantID",
									"type": "bytes32"
								},
								{
									"components": [
										{
											"internalType": "uint256",
											"name": "retailPrice",
											"type": "uint256"
										},
										{
											"internalType": "uint256",
											"name": "vipPrice",
											"type": "uint256"
										},
										{
											"internalType": "uint256",
											"name": "memberPrice",
											"type": "uint256"
										},
										{
											"internalType": "uint256",
											"name": "reward",
											"type": "uint256"
										},
										{
											"internalType": "uint256",
											"name": "quantity",
											"type": "uint256"
										}
									],
									"internalType": "struct Pricing",
									"name": "priceOptions",
									"type": "tuple"
								}
							],
							"internalType": "struct Variant[]",
							"name": "variants",
							"type": "tuple[]"
						},
						{
							"components": [
								{
									"internalType": "bytes32",
									"name": "id",
									"type": "bytes32"
								},
								{
									"internalType": "string",
									"name": "key",
									"type": "string"
								},
								{
									"internalType": "string",
									"name": "value",
									"type": "string"
								}
							],
							"internalType": "struct Attribute[][]",
							"name": "attributes",
							"type": "tuple[][]"
						}
					],
					"internalType": "struct ProductInfo",
					"name": "productInfo",
					"type": "tuple"
				}
			],
			"stateMutability": "view",
			"type": "function"
		},
		{
			"inputs": [
				{
					"internalType": "uint256",
					"name": "_productID",
					"type": "uint256"
				}
			],
			"name": "getProductRate",
			"outputs": [
				{
					"components": [
						{
							"internalType": "uint256",
							"name": "id",
							"type": "uint256"
						},
						{
							"internalType": "address",
							"name": "user",
							"type": "address"
						},
						{
							"internalType": "uint256",
							"name": "rateValue",
							"type": "uint256"
						},
						{
							"internalType": "uint256",
							"name": "createdAt",
							"type": "uint256"
						}
					],
					"internalType": "struct Rating[]",
					"name": "",
					"type": "tuple[]"
				}
			],
			"stateMutability": "view",
			"type": "function"
		},
		{
			"inputs": [
				{
					"internalType": "uint256",
					"name": "_productID",
					"type": "uint256"
				},
				{
					"internalType": "uint256[]",
					"name": "commentIds",
					"type": "uint256[]"
				}
			],
			"name": "getProductReviewRate",
			"outputs": [
				{
					"internalType": "uint256[]",
					"name": "rates",
					"type": "uint256[]"
				}
			],
			"stateMutability": "view",
			"type": "function"
		},
		{
			"inputs": [],
			"name": "getProducts",
			"outputs": [
				{
					"components": [
						{
							"internalType": "uint256",
							"name": "id",
							"type": "uint256"
						},
						{
							"components": [
								{
									"internalType": "string",
									"name": "name",
									"type": "string"
								},
								{
									"internalType": "uint256",
									"name": "categoryID",
									"type": "uint256"
								},
								{
									"internalType": "string",
									"name": "description",
									"type": "string"
								},
								{
									"internalType": "uint256",
									"name": "retailPrice",
									"type": "uint256"
								},
								{
									"internalType": "uint256",
									"name": "vipPrice",
									"type": "uint256"
								},
								{
									"internalType": "uint256",
									"name": "memberPrice",
									"type": "uint256"
								},
								{
									"internalType": "uint256",
									"name": "reward",
									"type": "uint256"
								},
								{
									"internalType": "uint256[]",
									"name": "capacity",
									"type": "uint256[]"
								},
								{
									"internalType": "bytes[]",
									"name": "size",
									"type": "bytes[]"
								},
								{
									"internalType": "uint256",
									"name": "quantity",
									"type": "uint256"
								},
								{
									"internalType": "uint256",
									"name": "shippingFee",
									"type": "uint256"
								},
								{
									"internalType": "bytes[]",
									"name": "color",
									"type": "bytes[]"
								},
								{
									"internalType": "address",
									"name": "retailer",
									"type": "address"
								},
								{
									"internalType": "string",
									"name": "brandName",
									"type": "string"
								},
								{
									"internalType": "string",
									"name": "warranty",
									"type": "string"
								},
								{
									"internalType": "bool",
									"name": "isFlashSale",
									"type": "bool"
								},
								{
									"internalType": "bytes[]",
									"name": "images",
									"type": "bytes[]"
								},
								{
									"internalType": "string",
									"name": "videoUrl",
									"type": "string"
								},
								{
									"internalType": "uint256",
									"name": "boostTime",
									"type": "uint256"
								},
								{
									"internalType": "uint256",
									"name": "expiryTime",
									"type": "uint256"
								},
								{
									"internalType": "uint256",
									"name": "activateTime",
									"type": "uint256"
								},
								{
									"internalType": "bool",
									"name": "isMultipleDiscount",
									"type": "bool"
								},
								{
									"internalType": "bool",
									"name": "isApprove",
									"type": "bool"
								},
								{
									"internalType": "uint256",
									"name": "sold",
									"type": "uint256"
								}
							],
							"internalType": "struct createProductParams",
							"name": "params",
							"type": "tuple"
						},
						{
							"internalType": "uint256",
							"name": "createdAt",
							"type": "uint256"
						},
						{
							"internalType": "uint256",
							"name": "updatedAt",
							"type": "uint256"
						}
					],
					"internalType": "struct Product[]",
					"name": "",
					"type": "tuple[]"
				}
			],
			"stateMutability": "view",
			"type": "function"
		},
		{
			"inputs": [
				{
					"internalType": "address",
					"name": "_retailer",
					"type": "address"
				}
			],
			"name": "getRetailerProduct",
			"outputs": [
				{
					"components": [
						{
							"internalType": "uint256",
							"name": "id",
							"type": "uint256"
						},
						{
							"components": [
								{
									"internalType": "string",
									"name": "name",
									"type": "string"
								},
								{
									"internalType": "uint256",
									"name": "categoryID",
									"type": "uint256"
								},
								{
									"internalType": "string",
									"name": "description",
									"type": "string"
								},
								{
									"internalType": "uint256",
									"name": "retailPrice",
									"type": "uint256"
								},
								{
									"internalType": "uint256",
									"name": "vipPrice",
									"type": "uint256"
								},
								{
									"internalType": "uint256",
									"name": "memberPrice",
									"type": "uint256"
								},
								{
									"internalType": "uint256",
									"name": "reward",
									"type": "uint256"
								},
								{
									"internalType": "uint256[]",
									"name": "capacity",
									"type": "uint256[]"
								},
								{
									"internalType": "bytes[]",
									"name": "size",
									"type": "bytes[]"
								},
								{
									"internalType": "uint256",
									"name": "quantity",
									"type": "uint256"
								},
								{
									"internalType": "uint256",
									"name": "shippingFee",
									"type": "uint256"
								},
								{
									"internalType": "bytes[]",
									"name": "color",
									"type": "bytes[]"
								},
								{
									"internalType": "address",
									"name": "retailer",
									"type": "address"
								},
								{
									"internalType": "string",
									"name": "brandName",
									"type": "string"
								},
								{
									"internalType": "string",
									"name": "warranty",
									"type": "string"
								},
								{
									"internalType": "bool",
									"name": "isFlashSale",
									"type": "bool"
								},
								{
									"internalType": "bytes[]",
									"name": "images",
									"type": "bytes[]"
								},
								{
									"internalType": "string",
									"name": "videoUrl",
									"type": "string"
								},
								{
									"internalType": "uint256",
									"name": "boostTime",
									"type": "uint256"
								},
								{
									"internalType": "uint256",
									"name": "expiryTime",
									"type": "uint256"
								},
								{
									"internalType": "uint256",
									"name": "activateTime",
									"type": "uint256"
								},
								{
									"internalType": "bool",
									"name": "isMultipleDiscount",
									"type": "bool"
								},
								{
									"internalType": "bool",
									"name": "isApprove",
									"type": "bool"
								},
								{
									"internalType": "uint256",
									"name": "sold",
									"type": "uint256"
								}
							],
							"internalType": "struct createProductParams",
							"name": "params",
							"type": "tuple"
						},
						{
							"internalType": "uint256",
							"name": "createdAt",
							"type": "uint256"
						},
						{
							"internalType": "uint256",
							"name": "updatedAt",
							"type": "uint256"
						}
					],
					"internalType": "struct Product[]",
					"name": "",
					"type": "tuple[]"
				}
			],
			"stateMutability": "view",
			"type": "function"
		},
		{
			"inputs": [
				{
					"internalType": "uint256[]",
					"name": "_productIds",
					"type": "uint256[]"
				}
			],
			"name": "getRetailersByProductIds",
			"outputs": [
				{
					"internalType": "address[]",
					"name": "",
					"type": "address[]"
				}
			],
			"stateMutability": "view",
			"type": "function"
		},
		{
			"inputs": [
				{
					"internalType": "address",
					"name": "_user",
					"type": "address"
				}
			],
			"name": "getUserFavorites",
			"outputs": [
				{
					"components": [
						{
							"internalType": "uint256",
							"name": "productID",
							"type": "uint256"
						},
						{
							"internalType": "uint256",
							"name": "createdAt",
							"type": "uint256"
						}
					],
					"internalType": "struct Favorite[]",
					"name": "",
					"type": "tuple[]"
				}
			],
			"stateMutability": "view",
			"type": "function"
		},
		{
			"inputs": [
				{
					"internalType": "uint256",
					"name": "_productID",
					"type": "uint256"
				}
			],
			"name": "getUserRate",
			"outputs": [
				{
					"components": [
						{
							"internalType": "bool",
							"name": "isRated",
							"type": "bool"
						},
						{
							"internalType": "uint256",
							"name": "rateValue",
							"type": "uint256"
						}
					],
					"internalType": "struct RateValue",
					"name": "",
					"type": "tuple"
				}
			],
			"stateMutability": "view",
			"type": "function"
		},
		{
			"inputs": [
				{
					"internalType": "uint256",
					"name": "_productID",
					"type": "uint256"
				},
				{
					"internalType": "bytes32",
					"name": "_variantID",
					"type": "bytes32"
				}
			],
			"name": "getVariant",
			"outputs": [
				{
					"components": [
						{
							"internalType": "bytes32",
							"name": "variantID",
							"type": "bytes32"
						},
						{
							"components": [
								{
									"internalType": "uint256",
									"name": "retailPrice",
									"type": "uint256"
								},
								{
									"internalType": "uint256",
									"name": "vipPrice",
									"type": "uint256"
								},
								{
									"internalType": "uint256",
									"name": "memberPrice",
									"type": "uint256"
								},
								{
									"internalType": "uint256",
									"name": "reward",
									"type": "uint256"
								},
								{
									"internalType": "uint256",
									"name": "quantity",
									"type": "uint256"
								}
							],
							"internalType": "struct Pricing",
							"name": "priceOptions",
							"type": "tuple"
						}
					],
					"internalType": "struct Variant",
					"name": "",
					"type": "tuple"
				}
			],
			"stateMutability": "view",
			"type": "function"
		},
		{
			"inputs": [
				{
					"internalType": "address",
					"name": "",
					"type": "address"
				}
			],
			"name": "mAdmin",
			"outputs": [
				{
					"internalType": "bool",
					"name": "",
					"type": "bool"
				}
			],
			"stateMutability": "view",
			"type": "function"
		},
		{
			"inputs": [
				{
					"internalType": "bytes32",
					"name": "",
					"type": "bytes32"
				}
			],
			"name": "mAttribute",
			"outputs": [
				{
					"internalType": "bytes32",
					"name": "id",
					"type": "bytes32"
				},
				{
					"internalType": "string",
					"name": "key",
					"type": "string"
				},
				{
					"internalType": "string",
					"name": "value",
					"type": "string"
				}
			],
			"stateMutability": "view",
			"type": "function"
		},
		{
			"inputs": [
				{
					"internalType": "bytes",
					"name": "",
					"type": "bytes"
				}
			],
			"name": "mBrand",
			"outputs": [
				{
					"internalType": "bool",
					"name": "",
					"type": "bool"
				}
			],
			"stateMutability": "view",
			"type": "function"
		},
		{
			"inputs": [
				{
					"internalType": "uint256",
					"name": "",
					"type": "uint256"
				}
			],
			"name": "mCategory",
			"outputs": [
				{
					"internalType": "uint256",
					"name": "id",
					"type": "uint256"
				},
				{
					"internalType": "string",
					"name": "name",
					"type": "string"
				},
				{
					"internalType": "string",
					"name": "description",
					"type": "string"
				}
			],
			"stateMutability": "view",
			"type": "function"
		},
		{
			"inputs": [
				{
					"internalType": "uint256",
					"name": "",
					"type": "uint256"
				},
				{
					"internalType": "uint256",
					"name": "",
					"type": "uint256"
				}
			],
			"name": "mCategoryAttributes",
			"outputs": [
				{
					"internalType": "bytes32",
					"name": "",
					"type": "bytes32"
				}
			],
			"stateMutability": "view",
			"type": "function"
		},
		{
			"inputs": [
				{
					"internalType": "uint256",
					"name": "",
					"type": "uint256"
				}
			],
			"name": "mComment",
			"outputs": [
				{
					"internalType": "uint256",
					"name": "id",
					"type": "uint256"
				},
				{
					"internalType": "address",
					"name": "user",
					"type": "address"
				},
				{
					"internalType": "string",
					"name": "name",
					"type": "string"
				},
				{
					"internalType": "string",
					"name": "message",
					"type": "string"
				},
				{
					"internalType": "uint8",
					"name": "commentType",
					"type": "uint8"
				},
				{
					"internalType": "uint256",
					"name": "createdAt",
					"type": "uint256"
				},
				{
					"internalType": "uint256",
					"name": "updatedAt",
					"type": "uint256"
				},
				{
					"internalType": "uint256",
					"name": "productID",
					"type": "uint256"
				}
			],
			"stateMutability": "view",
			"type": "function"
		},
		{
			"inputs": [
				{
					"internalType": "uint256",
					"name": "",
					"type": "uint256"
				},
				{
					"internalType": "uint256",
					"name": "",
					"type": "uint256"
				}
			],
			"name": "mCommentOfProduct",
			"outputs": [
				{
					"internalType": "uint256",
					"name": "",
					"type": "uint256"
				}
			],
			"stateMutability": "view",
			"type": "function"
		},
		{
			"inputs": [
				{
					"internalType": "address",
					"name": "",
					"type": "address"
				}
			],
			"name": "mController",
			"outputs": [
				{
					"internalType": "bool",
					"name": "",
					"type": "bool"
				}
			],
			"stateMutability": "view",
			"type": "function"
		},
		{
			"inputs": [
				{
					"internalType": "uint256",
					"name": "",
					"type": "uint256"
				}
			],
			"name": "mFAQ",
			"outputs": [
				{
					"internalType": "uint256",
					"name": "id",
					"type": "uint256"
				},
				{
					"internalType": "string",
					"name": "title",
					"type": "string"
				},
				{
					"internalType": "string",
					"name": "content",
					"type": "string"
				}
			],
			"stateMutability": "view",
			"type": "function"
		},
		{
			"inputs": [
				{
					"internalType": "address",
					"name": "",
					"type": "address"
				},
				{
					"internalType": "uint256",
					"name": "",
					"type": "uint256"
				}
			],
			"name": "mFavorite",
			"outputs": [
				{
					"internalType": "bool",
					"name": "",
					"type": "bool"
				}
			],
			"stateMutability": "view",
			"type": "function"
		},
		{
			"inputs": [
				{
					"internalType": "address",
					"name": "",
					"type": "address"
				},
				{
					"internalType": "uint256",
					"name": "",
					"type": "uint256"
				}
			],
			"name": "mIsCorrectRetailer",
			"outputs": [
				{
					"internalType": "bool",
					"name": "",
					"type": "bool"
				}
			],
			"stateMutability": "view",
			"type": "function"
		},
		{
			"inputs": [
				{
					"internalType": "uint256",
					"name": "",
					"type": "uint256"
				}
			],
			"name": "mProduct",
			"outputs": [
				{
					"internalType": "uint256",
					"name": "id",
					"type": "uint256"
				},
				{
					"components": [
						{
							"internalType": "string",
							"name": "name",
							"type": "string"
						},
						{
							"internalType": "uint256",
							"name": "categoryID",
							"type": "uint256"
						},
						{
							"internalType": "string",
							"name": "description",
							"type": "string"
						},
						{
							"internalType": "uint256",
							"name": "retailPrice",
							"type": "uint256"
						},
						{
							"internalType": "uint256",
							"name": "vipPrice",
							"type": "uint256"
						},
						{
							"internalType": "uint256",
							"name": "memberPrice",
							"type": "uint256"
						},
						{
							"internalType": "uint256",
							"name": "reward",
							"type": "uint256"
						},
						{
							"internalType": "uint256[]",
							"name": "capacity",
							"type": "uint256[]"
						},
						{
							"internalType": "bytes[]",
							"name": "size",
							"type": "bytes[]"
						},
						{
							"internalType": "uint256",
							"name": "quantity",
							"type": "uint256"
						},
						{
							"internalType": "uint256",
							"name": "shippingFee",
							"type": "uint256"
						},
						{
							"internalType": "bytes[]",
							"name": "color",
							"type": "bytes[]"
						},
						{
							"internalType": "address",
							"name": "retailer",
							"type": "address"
						},
						{
							"internalType": "string",
							"name": "brandName",
							"type": "string"
						},
						{
							"internalType": "string",
							"name": "warranty",
							"type": "string"
						},
						{
							"internalType": "bool",
							"name": "isFlashSale",
							"type": "bool"
						},
						{
							"internalType": "bytes[]",
							"name": "images",
							"type": "bytes[]"
						},
						{
							"internalType": "string",
							"name": "videoUrl",
							"type": "string"
						},
						{
							"internalType": "uint256",
							"name": "boostTime",
							"type": "uint256"
						},
						{
							"internalType": "uint256",
							"name": "expiryTime",
							"type": "uint256"
						},
						{
							"internalType": "uint256",
							"name": "activateTime",
							"type": "uint256"
						},
						{
							"internalType": "bool",
							"name": "isMultipleDiscount",
							"type": "bool"
						},
						{
							"internalType": "bool",
							"name": "isApprove",
							"type": "bool"
						},
						{
							"internalType": "uint256",
							"name": "sold",
							"type": "uint256"
						}
					],
					"internalType": "struct createProductParams",
					"name": "params",
					"type": "tuple"
				},
				{
					"internalType": "uint256",
					"name": "createdAt",
					"type": "uint256"
				},
				{
					"internalType": "uint256",
					"name": "updatedAt",
					"type": "uint256"
				}
			],
			"stateMutability": "view",
			"type": "function"
		},
		{
			"inputs": [
				{
					"internalType": "uint256",
					"name": "",
					"type": "uint256"
				},
				{
					"internalType": "uint256",
					"name": "",
					"type": "uint256"
				}
			],
			"name": "mProductFAQ",
			"outputs": [
				{
					"internalType": "uint256",
					"name": "",
					"type": "uint256"
				}
			],
			"stateMutability": "view",
			"type": "function"
		},
		{
			"inputs": [
				{
					"internalType": "uint256",
					"name": "",
					"type": "uint256"
				},
				{
					"internalType": "uint256",
					"name": "",
					"type": "uint256"
				}
			],
			"name": "mProductRate",
			"outputs": [
				{
					"internalType": "uint256",
					"name": "",
					"type": "uint256"
				}
			],
			"stateMutability": "view",
			"type": "function"
		},
		{
			"inputs": [
				{
					"internalType": "uint256",
					"name": "",
					"type": "uint256"
				},
				{
					"internalType": "uint256",
					"name": "",
					"type": "uint256"
				}
			],
			"name": "mProductVariant",
			"outputs": [
				{
					"internalType": "bytes32",
					"name": "",
					"type": "bytes32"
				}
			],
			"stateMutability": "view",
			"type": "function"
		},
		{
			"inputs": [
				{
					"internalType": "uint256",
					"name": "",
					"type": "uint256"
				}
			],
			"name": "mRate",
			"outputs": [
				{
					"internalType": "uint256",
					"name": "id",
					"type": "uint256"
				},
				{
					"internalType": "address",
					"name": "user",
					"type": "address"
				},
				{
					"internalType": "uint256",
					"name": "rateValue",
					"type": "uint256"
				},
				{
					"internalType": "uint256",
					"name": "createdAt",
					"type": "uint256"
				}
			],
			"stateMutability": "view",
			"type": "function"
		},
		{
			"inputs": [
				{
					"internalType": "address",
					"name": "",
					"type": "address"
				},
				{
					"internalType": "uint256",
					"name": "",
					"type": "uint256"
				}
			],
			"name": "mRetailerProduct",
			"outputs": [
				{
					"internalType": "uint256",
					"name": "",
					"type": "uint256"
				}
			],
			"stateMutability": "view",
			"type": "function"
		},
		{
			"inputs": [
				{
					"internalType": "uint256",
					"name": "",
					"type": "uint256"
				},
				{
					"internalType": "uint256",
					"name": "",
					"type": "uint256"
				}
			],
			"name": "mReviewRate",
			"outputs": [
				{
					"internalType": "uint256",
					"name": "",
					"type": "uint256"
				}
			],
			"stateMutability": "view",
			"type": "function"
		},
		{
			"inputs": [
				{
					"internalType": "address",
					"name": "",
					"type": "address"
				},
				{
					"internalType": "uint256",
					"name": "",
					"type": "uint256"
				}
			],
			"name": "mUserFavorites",
			"outputs": [
				{
					"internalType": "uint256",
					"name": "productID",
					"type": "uint256"
				},
				{
					"internalType": "uint256",
					"name": "createdAt",
					"type": "uint256"
				}
			],
			"stateMutability": "view",
			"type": "function"
		},
		{
			"inputs": [
				{
					"internalType": "address",
					"name": "",
					"type": "address"
				},
				{
					"internalType": "uint256",
					"name": "",
					"type": "uint256"
				}
			],
			"name": "mUserRating",
			"outputs": [
				{
					"internalType": "bool",
					"name": "isRated",
					"type": "bool"
				},
				{
					"internalType": "uint256",
					"name": "rateValue",
					"type": "uint256"
				}
			],
			"stateMutability": "view",
			"type": "function"
		},
		{
			"inputs": [
				{
					"internalType": "uint256",
					"name": "",
					"type": "uint256"
				},
				{
					"internalType": "bytes32",
					"name": "",
					"type": "bytes32"
				}
			],
			"name": "mVariant",
			"outputs": [
				{
					"internalType": "bytes32",
					"name": "variantID",
					"type": "bytes32"
				},
				{
					"components": [
						{
							"internalType": "uint256",
							"name": "retailPrice",
							"type": "uint256"
						},
						{
							"internalType": "uint256",
							"name": "vipPrice",
							"type": "uint256"
						},
						{
							"internalType": "uint256",
							"name": "memberPrice",
							"type": "uint256"
						},
						{
							"internalType": "uint256",
							"name": "reward",
							"type": "uint256"
						},
						{
							"internalType": "uint256",
							"name": "quantity",
							"type": "uint256"
						}
					],
					"internalType": "struct Pricing",
					"name": "priceOptions",
					"type": "tuple"
				}
			],
			"stateMutability": "view",
			"type": "function"
		},
		{
			"inputs": [
				{
					"internalType": "uint256",
					"name": "",
					"type": "uint256"
				},
				{
					"internalType": "bytes32",
					"name": "",
					"type": "bytes32"
				},
				{
					"internalType": "uint256",
					"name": "",
					"type": "uint256"
				}
			],
			"name": "mVariantAttributes",
			"outputs": [
				{
					"internalType": "bytes32",
					"name": "id",
					"type": "bytes32"
				},
				{
					"internalType": "string",
					"name": "key",
					"type": "string"
				},
				{
					"internalType": "string",
					"name": "value",
					"type": "string"
				}
			],
			"stateMutability": "view",
			"type": "function"
		},
		{
			"inputs": [],
			"name": "owner",
			"outputs": [
				{
					"internalType": "address",
					"name": "",
					"type": "address"
				}
			],
			"stateMutability": "view",
			"type": "function"
		},
		{
			"inputs": [],
			"name": "productID",
			"outputs": [
				{
					"internalType": "uint256",
					"name": "",
					"type": "uint256"
				}
			],
			"stateMutability": "view",
			"type": "function"
		},
		{
			"inputs": [
				{
					"internalType": "uint256",
					"name": "",
					"type": "uint256"
				}
			],
			"name": "products",
			"outputs": [
				{
					"internalType": "uint256",
					"name": "",
					"type": "uint256"
				}
			],
			"stateMutability": "view",
			"type": "function"
		},
		{
			"inputs": [],
			"name": "ratingID",
			"outputs": [
				{
					"internalType": "uint256",
					"name": "",
					"type": "uint256"
				}
			],
			"stateMutability": "view",
			"type": "function"
		},
		{
			"inputs": [
				{
					"internalType": "address",
					"name": "user",
					"type": "address"
				}
			],
			"name": "setAdmin",
			"outputs": [
				{
					"internalType": "bool",
					"name": "",
					"type": "bool"
				}
			],
			"stateMutability": "nonpayable",
			"type": "function"
		},
		{
			"inputs": [
				{
					"internalType": "uint256",
					"name": "_productID",
					"type": "uint256"
				},
				{
					"components": [
						{
							"internalType": "string",
							"name": "name",
							"type": "string"
						},
						{
							"internalType": "uint256",
							"name": "categoryID",
							"type": "uint256"
						},
						{
							"internalType": "string",
							"name": "description",
							"type": "string"
						},
						{
							"internalType": "uint256",
							"name": "retailPrice",
							"type": "uint256"
						},
						{
							"internalType": "uint256",
							"name": "vipPrice",
							"type": "uint256"
						},
						{
							"internalType": "uint256",
							"name": "memberPrice",
							"type": "uint256"
						},
						{
							"internalType": "uint256",
							"name": "reward",
							"type": "uint256"
						},
						{
							"internalType": "uint256[]",
							"name": "capacity",
							"type": "uint256[]"
						},
						{
							"internalType": "bytes[]",
							"name": "size",
							"type": "bytes[]"
						},
						{
							"internalType": "uint256",
							"name": "quantity",
							"type": "uint256"
						},
						{
							"internalType": "uint256",
							"name": "shippingFee",
							"type": "uint256"
						},
						{
							"internalType": "bytes[]",
							"name": "color",
							"type": "bytes[]"
						},
						{
							"internalType": "address",
							"name": "retailer",
							"type": "address"
						},
						{
							"internalType": "string",
							"name": "brandName",
							"type": "string"
						},
						{
							"internalType": "string",
							"name": "warranty",
							"type": "string"
						},
						{
							"internalType": "bool",
							"name": "isFlashSale",
							"type": "bool"
						},
						{
							"internalType": "bytes[]",
							"name": "images",
							"type": "bytes[]"
						},
						{
							"internalType": "string",
							"name": "videoUrl",
							"type": "string"
						},
						{
							"internalType": "uint256",
							"name": "boostTime",
							"type": "uint256"
						},
						{
							"internalType": "uint256",
							"name": "expiryTime",
							"type": "uint256"
						},
						{
							"internalType": "uint256",
							"name": "activateTime",
							"type": "uint256"
						},
						{
							"internalType": "bool",
							"name": "isMultipleDiscount",
							"type": "bool"
						},
						{
							"internalType": "bool",
							"name": "isApprove",
							"type": "bool"
						},
						{
							"internalType": "uint256",
							"name": "sold",
							"type": "uint256"
						}
					],
					"internalType": "struct createProductParams",
					"name": "params",
					"type": "tuple"
				},
				{
					"components": [
						{
							"internalType": "bytes32",
							"name": "variantID",
							"type": "bytes32"
						},
						{
							"components": [
								{
									"internalType": "bytes32",
									"name": "id",
									"type": "bytes32"
								},
								{
									"internalType": "string",
									"name": "key",
									"type": "string"
								},
								{
									"internalType": "string",
									"name": "value",
									"type": "string"
								}
							],
							"internalType": "struct Attribute[]",
							"name": "attrs",
							"type": "tuple[]"
						},
						{
							"components": [
								{
									"internalType": "uint256",
									"name": "retailPrice",
									"type": "uint256"
								},
								{
									"internalType": "uint256",
									"name": "vipPrice",
									"type": "uint256"
								},
								{
									"internalType": "uint256",
									"name": "memberPrice",
									"type": "uint256"
								},
								{
									"internalType": "uint256",
									"name": "reward",
									"type": "uint256"
								},
								{
									"internalType": "uint256",
									"name": "quantity",
									"type": "uint256"
								}
							],
							"internalType": "struct Pricing",
							"name": "priceOptions",
							"type": "tuple"
						}
					],
					"internalType": "struct VariantParams[]",
					"name": "_variants",
					"type": "tuple[]"
				}
			],
			"name": "updateProduct",
			"outputs": [
				{
					"internalType": "bool",
					"name": "",
					"type": "bool"
				}
			],
			"stateMutability": "nonpayable",
			"type": "function"
		},
		{
			"inputs": [
				{
					"internalType": "uint256",
					"name": "_productID",
					"type": "uint256"
				},
				{
					"internalType": "bytes[]",
					"name": "_images",
					"type": "bytes[]"
				}
			],
			"name": "updateProductImages",
			"outputs": [
				{
					"internalType": "bool",
					"name": "",
					"type": "bool"
				}
			],
			"stateMutability": "nonpayable",
			"type": "function"
		},
		{
			"inputs": [
				{
					"internalType": "uint256",
					"name": "_productID",
					"type": "uint256"
				},
				{
					"internalType": "bytes32",
					"name": "_variantID",
					"type": "bytes32"
				},
				{
					"internalType": "uint256",
					"name": "updatedQuantity",
					"type": "uint256"
				},
				{
					"internalType": "uint256",
					"name": "_sold",
					"type": "uint256"
				}
			],
			"name": "updateProductQuantity",
			"outputs": [],
			"stateMutability": "nonpayable",
			"type": "function"
		},
		{
			"inputs": [
				{
					"internalType": "address",
					"name": "",
					"type": "address"
				},
				{
					"internalType": "uint256",
					"name": "",
					"type": "uint256"
				}
			],
			"name": "userConfirmedBuyThisProduct",
			"outputs": [
				{
					"internalType": "bool",
					"name": "",
					"type": "bool"
				}
			],
			"stateMutability": "view",
			"type": "function"
		}
	]
}