{
	"data": {
		"bytecode": {
			"linkReferences": {},
			"object": "60806040526040518060400160405280600481526020017f45434f4d00000000000000000000000000000000000000000000000000000000815250600c90816100489190610464565b50335f806101000a81548173ffffffffffffffffffffffffffffffffffffffff021916908373ffffffffffffffffffffffffffffffffffffffff160217905550610098335f61009d60201b60201c565b610560565b8160035f8473ffffffffffffffffffffffffffffffffffffffff1673ffffffffffffffffffffffffffffffffffffffff1681526020019081526020015f205f015f6101000a81548173ffffffffffffffffffffffffffffffffffffffff021916908373ffffffffffffffffffffffffffffffffffffffff1602179055508060035f8473ffffffffffffffffffffffffffffffffffffffff1673ffffffffffffffffffffffffffffffffffffffff1681526020019081526020015f206007015f6101000a81548160ff0219169083600281111561017c5761017b610533565b5b02179055504260035f8473ffffffffffffffffffffffffffffffffffffffff1673ffffffffffffffffffffffffffffffffffffffff1681526020019081526020015f2060080181905550600782908060018154018082558091505060019003905f5260205f20015f9091909190916101000a81548173ffffffffffffffffffffffffffffffffffffffff021916908373ffffffffffffffffffffffffffffffffffffffff1602179055505050565b5f81519050919050565b7f4e487b71000000000000000000000000000000000000000000000000000000005f52604160045260245ffd5b7f4e487b71000000000000000000000000000000000000000000000000000000005f52602260045260245ffd5b5f60028204905060018216806102a557607f821691505b6020821081036102b8576102b7610261565b5b50919050565b5f819050815f5260205f209050919050565b5f6020601f8301049050919050565b5f82821b905092915050565b5f6008830261031a7fffffffffffffffffffffffffffffffffffffffffffffffffffffffffffffffff826102df565b61032486836102df565b95508019841693508086168417925050509392505050565b5f819050919050565b5f819050919050565b5f61036861036361035e8461033c565b610345565b61033c565b9050919050565b5f819050919050565b6103818361034e565b61039561038d8261036f565b8484546102eb565b825550505050565b5f90565b6103a961039d565b6103b4818484610378565b505050565b5b818110156103d7576103cc5f826103a1565b6001810190506103ba565b5050565b601f82111561041c576103ed816102be565b6103f6846102d0565b81016020851015610405578190505b610419610411856102d0565b8301826103b9565b50505b505050565b5f82821c905092915050565b5f61043c5f1984600802610421565b1980831691505092915050565b5f610454838361042d565b9150826002028217905092915050565b61046d8261022a565b67ffffffffffffffff81111561048657610485610234565b5b610490825461028e565b61049b8282856103db565b5f60209050601f8311600181146104cc575f84156104ba578287015190505b6104c48582610449565b86555061052b565b601f1984166104da866102be565b5f5b82811015610501578489015182556001820191506020850194506020810190506104dc565b8683101561051e578489015161051a601f89168261042d565b8355505b6001600288020188555050505b505050505050565b7f4e487b71000000000000000000000000000000000000000000000000000000005f52602160045260245ffd5b6195988061056d5f395ff3fe608060405234801561000f575f80fd5b506004361061027d575f3560e01c80636386c1c71161015a5780639f4216e8116100cc578063bd0f8cbf11610085578063bd0f8cbf1461090a578063d2f0156114610926578063e00f0dae14610956578063e205d94e14610986578063e5fc4ac2146109a2578063eaf4ee9a146109c05761027d565b80639f4216e81461080b578063a36afc661461083b578063aaa3de261461086d578063b3a6404e1461088c578063b618a35f146108bc578063b814f77b146108ec5761027d565b80638da5cb5b1161011e5780638da5cb5b146107235780638fd58a7d1461074157806395564309146107715780639ddf2e95146107a15780639e47566c146107d15780639f2e6a0c146107ed5761027d565b80636386c1c71461063e578063704b6c021461066f57806372b1d4521461069f578063832880e7146106d45780638a8869e2146106f35761027d565b806330cbfb24116101f35780634b5ba409116101b75780634b5ba409146105275780634d5d6ad0146105575780634fffd6ac146105875780635182104c146105b7578063630e8b30146105f05780636321f8a71461060e5761027d565b806330cbfb241461045d57806332f394361461048d578063371c0fc7146104ab57806344089cd1146104c75780634a1f6125146104f75761027d565b80632248632a116102455780632248632a1461034b57806323398aab1461037b57806325b4436d146103ab57806327820851146103df57806327e1f7df1461040f57806327f444e41461043f5761027d565b8063025f36e514610281578063026ff05e1461029d5780630316e0eb146102bb5780630b6b8edc146102eb57806314bfd6d01461031b575b5f80fd5b61029b600480360381019061029691906168e6565b6109dc565b005b6102a5610ab4565b6040516102b2919061693e565b60405180910390f35b6102d560048036038101906102d091906169b8565b610d75565b6040516102e2919061693e565b60405180910390f35b61030560048036038101906103009190616ab3565b610dd0565b604051610312919061693e565b60405180910390f35b61033560048036038101906103309190616b29565b61117e565b6040516103429190616b63565b60405180910390f35b61036560048036038101906103609190616b7c565b6111b9565b6040516103729190616c36565b60405180910390f35b61039560048036038101906103909190616c80565b6111f2565b6040516103a2919061693e565b60405180910390f35b6103c560048036038101906103c09190616ce4565b6113e3565b6040516103d6959493929190616d22565b60405180910390f35b6103f960048036038101906103f49190616d96565b6116cd565b6040516104069190616e34565b60405180910390f35b61042960048036038101906104249190616d96565b611832565b604051610436919061693e565b60405180910390f35b610447611a9a565b6040516104549190616f62565b60405180910390f35b61047760048036038101906104729190616d96565b611bab565b604051610484919061693e565b60405180910390f35b610495611c85565b6040516104a29190616fdd565b60405180910390f35b6104c560048036038101906104c09190616ff6565b611caa565b005b6104e160048036038101906104dc9190616d96565b612097565b6040516104ee919061693e565b60405180910390f35b610511600480360381019061050c9190616d96565b612171565b60405161051e919061693e565b60405180910390f35b610541600480360381019061053c9190616d96565b612216565b60405161054e919061693e565b60405180910390f35b610571600480360381019061056c9190616d96565b6122f0565b60405161057e91906170ce565b60405180910390f35b6105a1600480360381019061059c9190616d96565b6123e2565b6040516105ae9190616f62565b60405180910390f35b6105d160048036038101906105cc9190616d96565b6124f5565b6040516105e79a99989796959493929190617105565b60405180910390f35b6105f86127b3565b60405161060591906171db565b60405180910390f35b610628600480360381019061062391906172e5565b6127d8565b604051610635919061693e565b60405180910390f35b61065860048036038101906106539190616d96565b612d9e565b6040516106669291906175b9565b60405180910390f35b61068960048036038101906106849190616d96565b6134b2565b604051610696919061693e565b60405180910390f35b6106b960048036038101906106b49190616d96565b61360a565b6040516106cb969594939291906175ee565b60405180910390f35b6106dc61368a565b6040516106ea9291906175b9565b60405180910390f35b61070d60048036038101906107089190616d96565b613d9d565b60405161071a919061693e565b60405180910390f35b61072b613e77565b6040516107389190616b63565b60405180910390f35b61075b60048036038101906107569190616d96565b613e9a565b604051610768919061693e565b60405180910390f35b61078b6004803603810190610786919061764d565b6141ed565b604051610798919061693e565b60405180910390f35b6107bb60048036038101906107b69190616d96565b6143bd565b6040516107c8919061693e565b60405180910390f35b6107eb60048036038101906107e69190617774565b6143da565b005b6107f561482d565b6040516108029190616c36565b60405180910390f35b61082560048036038101906108209190616b29565b6148b9565b6040516108329190616b63565b60405180910390f35b61085560048036038101906108509190616ce4565b6148f4565b6040516108649392919061786d565b60405180910390f35b61087561495f565b604051610883929190617af1565b60405180910390f35b6108a660048036038101906108a19190616d96565b614eb9565b6040516108b3919061693e565b60405180910390f35b6108d660048036038101906108d1919061764d565b614f34565b6040516108e3919061693e565b60405180910390f35b6108f4615126565b6040516109019190617b46565b60405180910390f35b610924600480360381019061091f9190617c1f565b61514b565b005b610940600480360381019061093b9190617f27565b615928565b60405161094d919061693e565b60405180910390f35b610970600480360381019061096b9190616d96565b615ce6565b60405161097d9190616b63565b60405180910390f35b6109a0600480360381019061099b9190617f9d565b615d4e565b005b6109aa615f7f565b6040516109b79190618029565b60405180910390f35b6109da60048036038101906109d59190618042565b615fa4565b005b60065f8373ffffffffffffffffffffffffffffffffffffffff1673ffffffffffffffffffffffffffffffffffffffff1681526020019081526020015f2081908060018154018082558091505060019003905f5260205f2090600302015f909190919091505f820151815f015f6101000a81548160ff021916908360ff160217905550602082015181600101556040820151816002015f6101000a81548173ffffffffffffffffffffffffffffffffffffffff021916908373ffffffffffffffffffffffffffffffffffffffff16021790555050505050565b5f60035f3373ffffffffffffffffffffffffffffffffffffffff1673ffffffffffffffffffffffffffffffffffffffff1681526020019081526020015f205f8082015f6101000a81549073ffffffffffffffffffffffffffffffffffffffff0219169055600182015f610b27919061657d565b600282015f610b36919061657d565b600382015f6101000a81549060ff0219169055600482015f9055600582015f610b5f919061657d565b600682015f610b6e919061657d565b600782015f6101000a81549060ff0219169055600882015f9055600982015f6101000a81549073ffffffffffffffffffffffffffffffffffffffff0219169055505060045f3373ffffffffffffffffffffffffffffffffffffffff1673ffffffffffffffffffffffffffffffffffffffff1681526020019081526020015f205f610bf891906165ba565b5f5b600780549050811015610d6d573373ffffffffffffffffffffffffffffffffffffffff1660078281548110610c3257610c31618092565b5b905f5260205f20015f9054906101000a900473ffffffffffffffffffffffffffffffffffffffff1673ffffffffffffffffffffffffffffffffffffffff1603610d605760076001600780549050610c8991906180ec565b81548110610c9a57610c99618092565b5b905f5260205f20015f9054906101000a900473ffffffffffffffffffffffffffffffffffffffff1660078281548110610cd657610cd5618092565b5b905f5260205f20015f6101000a81548173ffffffffffffffffffffffffffffffffffffffff021916908373ffffffffffffffffffffffffffffffffffffffff1602179055506007805480610d2d57610d2c61811f565b5b600190038181905f5260205f20015f6101000a81549073ffffffffffffffffffffffffffffffffffffffff021916905590555b8080600101915050610bfa565b506001905090565b5f828260035f3373ffffffffffffffffffffffffffffffffffffffff1673ffffffffffffffffffffffffffffffffffffffff1681526020019081526020015f206006019182610dc5929190618347565b506001905092915050565b5f805f9054906101000a900473ffffffffffffffffffffffffffffffffffffffff168073ffffffffffffffffffffffffffffffffffffffff163373ffffffffffffffffffffffffffffffffffffffff1614610e60576040517f08c379a0000000000000000000000000000000000000000000000000000000008152600401610e57906184aa565b60405180910390fd5b600280811115610e7357610e72616dc1565b5b60035f3373ffffffffffffffffffffffffffffffffffffffff1673ffffffffffffffffffffffffffffffffffffffff1681526020019081526020015f206007015f9054906101000a900460ff166002811115610ed257610ed1616dc1565b5b03610f12576040517f08c379a0000000000000000000000000000000000000000000000000000000008152600401610f099061855e565b60405180910390fd5b7ff59b872b58a4b9c40138ef35ea4f4f2ef4210f22be84a47a65205b6779e6fe88843385604051610f459392919061857c565b60405180910390a18360035f3373ffffffffffffffffffffffffffffffffffffffff1673ffffffffffffffffffffffffffffffffffffffff1681526020019081526020015f206001019081610f9a91906185bf565b508260035f3373ffffffffffffffffffffffffffffffffffffffff1673ffffffffffffffffffffffffffffffffffffffff1681526020019081526020015f206005019081610fe891906185bf565b50600260035f3373ffffffffffffffffffffffffffffffffffffffff1673ffffffffffffffffffffffffffffffffffffffff1681526020019081526020015f206007015f6101000a81548160ff0219169083600281111561104c5761104b616dc1565b5b02179055503360035f3373ffffffffffffffffffffffffffffffffffffffff1673ffffffffffffffffffffffffffffffffffffffff1681526020019081526020015f205f015f6101000a81548173ffffffffffffffffffffffffffffffffffffffff021916908373ffffffffffffffffffffffffffffffffffffffff1602179055504260035f3373ffffffffffffffffffffffffffffffffffffffff1673ffffffffffffffffffffffffffffffffffffffff1681526020019081526020015f2060080181905550600733908060018154018082558091505060019003905f5260205f20015f9091909190916101000a81548173ffffffffffffffffffffffffffffffffffffffff021916908373ffffffffffffffffffffffffffffffffffffffff160217905550600191505092915050565b6002818154811061118d575f80fd5b905f5260205f20015f915054906101000a900473ffffffffffffffffffffffffffffffffffffffff1681565b60605f6111c5846161d5565b905080836040516020016111da92919061883a565b60405160208183030381529060405291505092915050565b5f6001600281111561120757611206616dc1565b5b60035f3373ffffffffffffffffffffffffffffffffffffffff1673ffffffffffffffffffffffffffffffffffffffff1681526020019081526020015f206007015f9054906101000a900460ff16600281111561126657611265616dc1565b5b146112a6576040517f08c379a000000000000000000000000000000000000000000000000000000000815260040161129d9061892a565b60405180910390fd5b6040518060c0016040528086151581526020018515158152602001841515815260200183151581526020015f151581526020015f151581525060055f3373ffffffffffffffffffffffffffffffffffffffff1673ffffffffffffffffffffffffffffffffffffffff1681526020019081526020015f205f820151815f015f6101000a81548160ff0219169083151502179055506020820151815f0160016101000a81548160ff0219169083151502179055506040820151815f0160026101000a81548160ff0219169083151502179055506060820151815f0160036101000a81548160ff0219169083151502179055506080820151815f0160046101000a81548160ff02191690831515021790555060a0820151815f0160056101000a81548160ff02191690831515021790555090505060019050949350505050565b6004602052815f5260405f2081815481106113fc575f80fd5b905f5260205f2090600502015f9150915050805f01805461141c90618183565b80601f016020809104026020016040519081016040528092919081815260200182805461144890618183565b80156114935780601f1061146a57610100808354040283529160200191611493565b820191905f5260205f20905b81548152906001019060200180831161147657829003601f168201915b5050505050908060010180546114a890618183565b80601f01602080910402602001604051908101604052809291908181526020018280546114d490618183565b801561151f5780601f106114f65761010080835404028352916020019161151f565b820191905f5260205f20905b81548152906001019060200180831161150257829003601f168201915b50505050509080600201805461153490618183565b80601f016020809104026020016040519081016040528092919081815260200182805461156090618183565b80156115ab5780601f10611582576101008083540402835291602001916115ab565b820191905f5260205f20905b81548152906001019060200180831161158e57829003601f168201915b5050505050908060030180546115c090618183565b80601f01602080910402602001604051908101604052809291908181526020018280546115ec90618183565b80156116375780601f1061160e57610100808354040283529160200191611637565b820191905f5260205f20905b81548152906001019060200180831161161a57829003601f168201915b50505050509080600401805461164c90618183565b80601f016020809104026020016040519081016040528092919081815260200182805461167890618183565b80156116c35780601f1061169a576101008083540402835291602001916116c3565b820191905f5260205f20905b8154815290600101906020018083116116a657829003601f168201915b5050505050905085565b5f8073ffffffffffffffffffffffffffffffffffffffff1660035f3373ffffffffffffffffffffffffffffffffffffffff1673ffffffffffffffffffffffffffffffffffffffff1681526020019081526020015f205f015f9054906101000a900473ffffffffffffffffffffffffffffffffffffffff1673ffffffffffffffffffffffffffffffffffffffff16141561179c60026040518060400160405280601e81526020017f55736572206d75737420726567697374657220746f2067657420726f6c6500008152506111b9565b906117dd576040517f08c379a00000000000000000000000000000000000000000000000000000000081526004016117d49190616c36565b60405180910390fd5b5060035f8373ffffffffffffffffffffffffffffffffffffffff1673ffffffffffffffffffffffffffffffffffffffff1681526020019081526020015f206007015f9054906101000a900460ff169050919050565b5f805f9054906101000a900473ffffffffffffffffffffffffffffffffffffffff168073ffffffffffffffffffffffffffffffffffffffff163373ffffffffffffffffffffffffffffffffffffffff16146118c2576040517f08c379a00000000000000000000000000000000000000000000000000000000081526004016118b9906184aa565b60405180910390fd5b5f60015f8573ffffffffffffffffffffffffffffffffffffffff1673ffffffffffffffffffffffffffffffffffffffff1681526020019081526020015f205f6101000a81548160ff0219169083151502179055505f5b600280549050811015611a8f578373ffffffffffffffffffffffffffffffffffffffff16600282815481106119505761194f618092565b5b905f5260205f20015f9054906101000a900473ffffffffffffffffffffffffffffffffffffffff1673ffffffffffffffffffffffffffffffffffffffff1603611a8257600260016002805490506119a791906180ec565b815481106119b8576119b7618092565b5b905f5260205f20015f9054906101000a900473ffffffffffffffffffffffffffffffffffffffff16600282815481106119f4576119f3618092565b5b905f5260205f20015f6101000a81548173ffffffffffffffffffffffffffffffffffffffff021916908373ffffffffffffffffffffffffffffffffffffffff1602179055506002805480611a4b57611a4a61811f565b5b600190038181905f5260205f20015f6101000a81549073ffffffffffffffffffffffffffffffffffffffff02191690559055611a8f565b8080600101915050611918565b506001915050919050565b606060065f3373ffffffffffffffffffffffffffffffffffffffff1673ffffffffffffffffffffffffffffffffffffffff1681526020019081526020015f20805480602002602001604051908101604052809291908181526020015f905b82821015611ba2578382905f5260205f2090600302016040518060600160405290815f82015f9054906101000a900460ff1660ff1660ff16815260200160018201548152602001600282015f9054906101000a900473ffffffffffffffffffffffffffffffffffffffff1673ffffffffffffffffffffffffffffffffffffffff1673ffffffffffffffffffffffffffffffffffffffff168152505081526020019060010190611af8565b50505050905090565b5f805f9054906101000a900473ffffffffffffffffffffffffffffffffffffffff168073ffffffffffffffffffffffffffffffffffffffff163373ffffffffffffffffffffffffffffffffffffffff1614611c3b576040517f08c379a0000000000000000000000000000000000000000000000000000000008152600401611c32906184aa565b60405180910390fd5b8260095f6101000a81548173ffffffffffffffffffffffffffffffffffffffff021916908373ffffffffffffffffffffffffffffffffffffffff1602179055506001915050919050565b600a5f9054906101000a900473ffffffffffffffffffffffffffffffffffffffff1681565b611ddc83604051602001611cbe9190618968565b6040516020818303038152906040525f6040518060400160405280601881526020017f496e74726f647563696e67204e65772050726f647563742100000000000000008152506040518060c0016040528060868152602001619214608691396007805480602002602001604051908101604052809291908181526020018280548015611d9c57602002820191905f5260205f20905b815f9054906101000a900473ffffffffffffffffffffffffffffffffffffffff1673ffffffffffffffffffffffffffffffffffffffff1681526020019060010190808311611d53575b50505050506040518060400160405280600d81526020017f43726561746550726f647563740000000000000000000000000000000000000081525061514b565b611e8b83604051602001611df09190618968565b6040516020818303038152906040525f6040518060400160405280601c81526020017f4e65772050726f6475637420506f7374205375636365737366756c21000000008152506040518060a00160405280607b815260200161929a607b9139856040518060400160405280600d81526020017f43726561746550726f64756374000000000000000000000000000000000000008152506143da565b611f5983604051602001611e9f9190618968565b6040516020818303038152906040525f6040518060400160405280601c81526020017f4e65772050726f6475637420506f7374205375636365737366756c21000000008152506040518060a0016040528060778152602001619377607791395f8054906101000a900473ffffffffffffffffffffffffffffffffffffffff166040518060400160405280600d81526020017f43726561746550726f64756374000000000000000000000000000000000000008152506143da565b81156120925761209183604051602001611f739190618968565b6040516020818303038152906040525f6040518060400160405280601681526020017f466c6173682053616c6520537461727473204e6f7721000000000000000000008152506040518060800160405280604781526020016191cd60479139600780548060200260200160405190810160405280929190818152602001828054801561205157602002820191905f5260205f20905b815f9054906101000a900473ffffffffffffffffffffffffffffffffffffffff1673ffffffffffffffffffffffffffffffffffffffff1681526020019060010190808311612008575b50505050506040518060400160405280601281526020017f50726f6d6f74696f6e616c50726f6772616d000000000000000000000000000081525061514b565b5b505050565b5f805f9054906101000a900473ffffffffffffffffffffffffffffffffffffffff168073ffffffffffffffffffffffffffffffffffffffff163373ffffffffffffffffffffffffffffffffffffffff1614612127576040517f08c379a000000000000000000000000000000000000000000000000000000000815260040161211e906184aa565b60405180910390fd5b82600a5f6101000a81548173ffffffffffffffffffffffffffffffffffffffff021916908373ffffffffffffffffffffffffffffffffffffffff1602179055506001915050919050565b5f805f9054906101000a900473ffffffffffffffffffffffffffffffffffffffff168073ffffffffffffffffffffffffffffffffffffffff163373ffffffffffffffffffffffffffffffffffffffff1614612201576040517f08c379a00000000000000000000000000000000000000000000000000000000081526004016121f8906184aa565b60405180910390fd5b61220c83600261629f565b6001915050919050565b5f805f9054906101000a900473ffffffffffffffffffffffffffffffffffffffff168073ffffffffffffffffffffffffffffffffffffffff163373ffffffffffffffffffffffffffffffffffffffff16146122a6576040517f08c379a000000000000000000000000000000000000000000000000000000000815260040161229d906184aa565b60405180910390fd5b8260085f6101000a81548173ffffffffffffffffffffffffffffffffffffffff021916908373ffffffffffffffffffffffffffffffffffffffff1602179055506001915050919050565b6122f86165db565b60055f8373ffffffffffffffffffffffffffffffffffffffff1673ffffffffffffffffffffffffffffffffffffffff1681526020019081526020015f206040518060c00160405290815f82015f9054906101000a900460ff161515151581526020015f820160019054906101000a900460ff161515151581526020015f820160029054906101000a900460ff161515151581526020015f820160039054906101000a900460ff161515151581526020015f820160049054906101000a900460ff161515151581526020015f820160059054906101000a900460ff1615151515815250509050919050565b606060065f8373ffffffffffffffffffffffffffffffffffffffff1673ffffffffffffffffffffffffffffffffffffffff1681526020019081526020015f20805480602002602001604051908101604052809291908181526020015f905b828210156124ea578382905f5260205f2090600302016040518060600160405290815f82015f9054906101000a900460ff1660ff1660ff16815260200160018201548152602001600282015f9054906101000a900473ffffffffffffffffffffffffffffffffffffffff1673ffffffffffffffffffffffffffffffffffffffff1673ffffffffffffffffffffffffffffffffffffffff168152505081526020019060010190612440565b505050509050919050565b6003602052805f5260405f205f91509050805f015f9054906101000a900473ffffffffffffffffffffffffffffffffffffffff169080600101805461253990618183565b80601f016020809104026020016040519081016040528092919081815260200182805461256590618183565b80156125b05780601f10612587576101008083540402835291602001916125b0565b820191905f5260205f20905b81548152906001019060200180831161259357829003601f168201915b5050505050908060020180546125c590618183565b80601f01602080910402602001604051908101604052809291908181526020018280546125f190618183565b801561263c5780601f106126135761010080835404028352916020019161263c565b820191905f5260205f20905b81548152906001019060200180831161261f57829003601f168201915b505050505090806003015f9054906101000a900460ff169080600401549080600501805461266990618183565b80601f016020809104026020016040519081016040528092919081815260200182805461269590618183565b80156126e05780601f106126b7576101008083540402835291602001916126e0565b820191905f5260205f20905b8154815290600101906020018083116126c357829003601f168201915b5050505050908060060180546126f590618183565b80601f016020809104026020016040519081016040528092919081815260200182805461272190618183565b801561276c5780601f106127435761010080835404028352916020019161276c565b820191905f5260205f20905b81548152906001019060200180831161274f57829003601f168201915b505050505090806007015f9054906101000a900460ff1690806008015490806009015f9054906101000a900473ffffffffffffffffffffffffffffffffffffffff1690508a565b60095f9054906101000a900473ffffffffffffffffffffffffffffffffffffffff1681565b5f80825f0151511161281f576040517f08c379a000000000000000000000000000000000000000000000000000000000815260040161281690618a18565b60405180910390fd5b5f60035f3373ffffffffffffffffffffffffffffffffffffffff1673ffffffffffffffffffffffffffffffffffffffff1681526020019081526020015f2060080154146128a1576040517f08c379a000000000000000000000000000000000000000000000000000000000815260040161289890618aa6565b60405180910390fd5b5f73ffffffffffffffffffffffffffffffffffffffff168260a0015173ffffffffffffffffffffffffffffffffffffffff1603612913576040517f08c379a000000000000000000000000000000000000000000000000000000000815260040161290a90618b34565b60405180910390fd5b60085f9054906101000a900473ffffffffffffffffffffffffffffffffffffffff1673ffffffffffffffffffffffffffffffffffffffff16638b59d23e8360a001516040518263ffffffff1660e01b81526004016129719190616b63565b602060405180830381865afa15801561298c573d5f803e3d5ffd5b505050506040513d601f19601f820116820180604052508101906129b09190618b66565b6129ef576040517f08c379a00000000000000000000000000000000000000000000000000000000081526004016129e690618c27565b60405180910390fd5b3360035f3373ffffffffffffffffffffffffffffffffffffffff1673ffffffffffffffffffffffffffffffffffffffff1681526020019081526020015f205f015f6101000a81548173ffffffffffffffffffffffffffffffffffffffff021916908373ffffffffffffffffffffffffffffffffffffffff160217905550815f015160035f3373ffffffffffffffffffffffffffffffffffffffff1673ffffffffffffffffffffffffffffffffffffffff1681526020019081526020015f206001019081612abc91906185bf565b508160a0015160035f3373ffffffffffffffffffffffffffffffffffffffff1673ffffffffffffffffffffffffffffffffffffffff1681526020019081526020015f206009015f6101000a81548173ffffffffffffffffffffffffffffffffffffffff021916908373ffffffffffffffffffffffffffffffffffffffff160217905550816020015160035f3373ffffffffffffffffffffffffffffffffffffffff1673ffffffffffffffffffffffffffffffffffffffff1681526020019081526020015f206002019081612b9091906185bf565b50816040015160035f3373ffffffffffffffffffffffffffffffffffffffff1673ffffffffffffffffffffffffffffffffffffffff1681526020019081526020015f206003015f6101000a81548160ff021916908360ff160217905550816060015160035f3373ffffffffffffffffffffffffffffffffffffffff1673ffffffffffffffffffffffffffffffffffffffff1681526020019081526020015f2060040181905550816080015160035f3373ffffffffffffffffffffffffffffffffffffffff1673ffffffffffffffffffffffffffffffffffffffff1681526020019081526020015f206005019081612c8791906185bf565b50600160035f3373ffffffffffffffffffffffffffffffffffffffff1673ffffffffffffffffffffffffffffffffffffffff1681526020019081526020015f206007015f6101000a81548160ff02191690836002811115612ceb57612cea616dc1565b5b02179055504260035f3373ffffffffffffffffffffffffffffffffffffffff1673ffffffffffffffffffffffffffffffffffffffff1681526020019081526020015f2060080181905550600733908060018154018082558091505060019003905f5260205f20015f9091909190916101000a81548173ffffffffffffffffffffffffffffffffffffffff021916908373ffffffffffffffffffffffffffffffffffffffff16021790555060019050919050565b612da6616617565b606060035f8473ffffffffffffffffffffffffffffffffffffffff1673ffffffffffffffffffffffffffffffffffffffff1681526020019081526020015f2060045f8573ffffffffffffffffffffffffffffffffffffffff1673ffffffffffffffffffffffffffffffffffffffff1681526020019081526020015f2081604051806101400160405290815f82015f9054906101000a900473ffffffffffffffffffffffffffffffffffffffff1673ffffffffffffffffffffffffffffffffffffffff1673ffffffffffffffffffffffffffffffffffffffff168152602001600182018054612e9390618183565b80601f0160208091040260200160405190810160405280929190818152602001828054612ebf90618183565b8015612f0a5780601f10612ee157610100808354040283529160200191612f0a565b820191905f5260205f20905b815481529060010190602001808311612eed57829003601f168201915b50505050508152602001600282018054612f2390618183565b80601f0160208091040260200160405190810160405280929190818152602001828054612f4f90618183565b8015612f9a5780601f10612f7157610100808354040283529160200191612f9a565b820191905f5260205f20905b815481529060010190602001808311612f7d57829003601f168201915b50505050508152602001600382015f9054906101000a900460ff1660ff1660ff16815260200160048201548152602001600582018054612fd990618183565b80601f016020809104026020016040519081016040528092919081815260200182805461300590618183565b80156130505780601f1061302757610100808354040283529160200191613050565b820191905f5260205f20905b81548152906001019060200180831161303357829003601f168201915b5050505050815260200160068201805461306990618183565b80601f016020809104026020016040519081016040528092919081815260200182805461309590618183565b80156130e05780601f106130b7576101008083540402835291602001916130e0565b820191905f5260205f20905b8154815290600101906020018083116130c357829003601f168201915b50505050508152602001600782015f9054906101000a900460ff16600281111561310d5761310c616dc1565b5b600281111561311f5761311e616dc1565b5b815260200160088201548152602001600982015f9054906101000a900473ffffffffffffffffffffffffffffffffffffffff1673ffffffffffffffffffffffffffffffffffffffff1673ffffffffffffffffffffffffffffffffffffffff1681525050915080805480602002602001604051908101604052809291908181526020015f905b828210156134a3578382905f5260205f2090600502016040518060a00160405290815f820180546131d490618183565b80601f016020809104026020016040519081016040528092919081815260200182805461320090618183565b801561324b5780601f106132225761010080835404028352916020019161324b565b820191905f5260205f20905b81548152906001019060200180831161322e57829003601f168201915b5050505050815260200160018201805461326490618183565b80601f016020809104026020016040519081016040528092919081815260200182805461329090618183565b80156132db5780601f106132b2576101008083540402835291602001916132db565b820191905f5260205f20905b8154815290600101906020018083116132be57829003601f168201915b505050505081526020016002820180546132f490618183565b80601f016020809104026020016040519081016040528092919081815260200182805461332090618183565b801561336b5780601f106133425761010080835404028352916020019161336b565b820191905f5260205f20905b81548152906001019060200180831161334e57829003601f168201915b5050505050815260200160038201805461338490618183565b80601f01602080910402602001604051908101604052809291908181526020018280546133b090618183565b80156133fb5780601f106133d2576101008083540402835291602001916133fb565b820191905f5260205f20905b8154815290600101906020018083116133de57829003601f168201915b5050505050815260200160048201805461341490618183565b80601f016020809104026020016040519081016040528092919081815260200182805461344090618183565b801561348b5780601f106134625761010080835404028352916020019161348b565b820191905f5260205f20905b81548152906001019060200180831161346e57829003601f168201915b505050505081525050815260200190600101906131a4565b50505050905091509150915091565b5f805f9054906101000a900473ffffffffffffffffffffffffffffffffffffffff168073ffffffffffffffffffffffffffffffffffffffff163373ffffffffffffffffffffffffffffffffffffffff1614613542576040517f08c379a0000000000000000000000000000000000000000000000000000000008152600401613539906184aa565b60405180910390fd5b6001805f8573ffffffffffffffffffffffffffffffffffffffff1673ffffffffffffffffffffffffffffffffffffffff1681526020019081526020015f205f6101000a81548160ff021916908315150217905550600283908060018154018082558091505060019003905f5260205f20015f9091909190916101000a81548173ffffffffffffffffffffffffffffffffffffffff021916908373ffffffffffffffffffffffffffffffffffffffff160217905550613600835f61629f565b6001915050919050565b6005602052805f5260405f205f91509050805f015f9054906101000a900460ff1690805f0160019054906101000a900460ff1690805f0160029054906101000a900460ff1690805f0160039054906101000a900460ff1690805f0160049054906101000a900460ff1690805f0160059054906101000a900460ff16905086565b613692616617565b606060035f3373ffffffffffffffffffffffffffffffffffffffff1673ffffffffffffffffffffffffffffffffffffffff1681526020019081526020015f2060045f3373ffffffffffffffffffffffffffffffffffffffff1673ffffffffffffffffffffffffffffffffffffffff1681526020019081526020015f2081604051806101400160405290815f82015f9054906101000a900473ffffffffffffffffffffffffffffffffffffffff1673ffffffffffffffffffffffffffffffffffffffff1673ffffffffffffffffffffffffffffffffffffffff16815260200160018201805461377f90618183565b80601f01602080910402602001604051908101604052809291908181526020018280546137ab90618183565b80156137f65780601f106137cd576101008083540402835291602001916137f6565b820191905f5260205f20905b8154815290600101906020018083116137d957829003601f168201915b5050505050815260200160028201805461380f90618183565b80601f016020809104026020016040519081016040528092919081815260200182805461383b90618183565b80156138865780601f1061385d57610100808354040283529160200191613886565b820191905f5260205f20905b81548152906001019060200180831161386957829003601f168201915b50505050508152602001600382015f9054906101000a900460ff1660ff1660ff168152602001600482015481526020016005820180546138c590618183565b80601f01602080910402602001604051908101604052809291908181526020018280546138f190618183565b801561393c5780601f106139135761010080835404028352916020019161393c565b820191905f5260205f20905b81548152906001019060200180831161391f57829003601f168201915b5050505050815260200160068201805461395590618183565b80601f016020809104026020016040519081016040528092919081815260200182805461398190618183565b80156139cc5780601f106139a3576101008083540402835291602001916139cc565b820191905f5260205f20905b8154815290600101906020018083116139af57829003601f168201915b50505050508152602001600782015f9054906101000a900460ff1660028111156139f9576139f8616dc1565b5b6002811115613a0b57613a0a616dc1565b5b815260200160088201548152602001600982015f9054906101000a900473ffffffffffffffffffffffffffffffffffffffff1673ffffffffffffffffffffffffffffffffffffffff1673ffffffffffffffffffffffffffffffffffffffff1681525050915080805480602002602001604051908101604052809291908181526020015f905b82821015613d8f578382905f5260205f2090600502016040518060a00160405290815f82018054613ac090618183565b80601f0160208091040260200160405190810160405280929190818152602001828054613aec90618183565b8015613b375780601f10613b0e57610100808354040283529160200191613b37565b820191905f5260205f20905b815481529060010190602001808311613b1a57829003601f168201915b50505050508152602001600182018054613b5090618183565b80601f0160208091040260200160405190810160405280929190818152602001828054613b7c90618183565b8015613bc75780601f10613b9e57610100808354040283529160200191613bc7565b820191905f5260205f20905b815481529060010190602001808311613baa57829003601f168201915b50505050508152602001600282018054613be090618183565b80601f0160208091040260200160405190810160405280929190818152602001828054613c0c90618183565b8015613c575780601f10613c2e57610100808354040283529160200191613c57565b820191905f5260205f20905b815481529060010190602001808311613c3a57829003601f168201915b50505050508152602001600382018054613c7090618183565b80601f0160208091040260200160405190810160405280929190818152602001828054613c9c90618183565b8015613ce75780601f10613cbe57610100808354040283529160200191613ce7565b820191905f5260205f20905b815481529060010190602001808311613cca57829003601f168201915b50505050508152602001600482018054613d0090618183565b80601f0160208091040260200160405190810160405280929190818152602001828054613d2c90618183565b8015613d775780601f10613d4e57610100808354040283529160200191613d77565b820191905f5260205f20905b815481529060010190602001808311613d5a57829003601f168201915b50505050508152505081526020019060010190613a90565b505050509050915091509091565b5f805f9054906101000a900473ffffffffffffffffffffffffffffffffffffffff168073ffffffffffffffffffffffffffffffffffffffff163373ffffffffffffffffffffffffffffffffffffffff1614613e2d576040517f08c379a0000000000000000000000000000000000000000000000000000000008152600401613e24906184aa565b60405180910390fd5b82600b5f6101000a81548173ffffffffffffffffffffffffffffffffffffffff021916908373ffffffffffffffffffffffffffffffffffffffff1602179055506001915050919050565b5f8054906101000a900473ffffffffffffffffffffffffffffffffffffffff1681565b5f805f9054906101000a900473ffffffffffffffffffffffffffffffffffffffff168073ffffffffffffffffffffffffffffffffffffffff163373ffffffffffffffffffffffffffffffffffffffff1614613f2a576040517f08c379a0000000000000000000000000000000000000000000000000000000008152600401613f21906184aa565b60405180910390fd5b60035f8473ffffffffffffffffffffffffffffffffffffffff1673ffffffffffffffffffffffffffffffffffffffff1681526020019081526020015f205f8082015f6101000a81549073ffffffffffffffffffffffffffffffffffffffff0219169055600182015f613f9c919061657d565b600282015f613fab919061657d565b600382015f6101000a81549060ff0219169055600482015f9055600582015f613fd4919061657d565b600682015f613fe3919061657d565b600782015f6101000a81549060ff0219169055600882015f9055600982015f6101000a81549073ffffffffffffffffffffffffffffffffffffffff0219169055505060045f8473ffffffffffffffffffffffffffffffffffffffff1673ffffffffffffffffffffffffffffffffffffffff1681526020019081526020015f205f61406d91906165ba565b5f5b6007805490508110156141e2578373ffffffffffffffffffffffffffffffffffffffff16600782815481106140a7576140a6618092565b5b905f5260205f20015f9054906101000a900473ffffffffffffffffffffffffffffffffffffffff1673ffffffffffffffffffffffffffffffffffffffff16036141d557600760016007805490506140fe91906180ec565b8154811061410f5761410e618092565b5b905f5260205f20015f9054906101000a900473ffffffffffffffffffffffffffffffffffffffff166007828154811061414b5761414a618092565b5b905f5260205f20015f6101000a81548173ffffffffffffffffffffffffffffffffffffffff021916908373ffffffffffffffffffffffffffffffffffffffff16021790555060078054806141a2576141a161811f565b5b600190038181905f5260205f20015f6101000a81549073ffffffffffffffffffffffffffffffffffffffff021916905590555b808060010191505061406f565b506001915050919050565b5f805f9054906101000a900473ffffffffffffffffffffffffffffffffffffffff168073ffffffffffffffffffffffffffffffffffffffff163373ffffffffffffffffffffffffffffffffffffffff161461427d576040517f08c379a0000000000000000000000000000000000000000000000000000000008152600401614274906184aa565b60405180910390fd5b6040518060c001604052808915158152602001881515815260200187151581526020018615158152602001851515815260200184151581525060055f3373ffffffffffffffffffffffffffffffffffffffff1673ffffffffffffffffffffffffffffffffffffffff1681526020019081526020015f205f820151815f015f6101000a81548160ff0219169083151502179055506020820151815f0160016101000a81548160ff0219169083151502179055506040820151815f0160026101000a81548160ff0219169083151502179055506060820151815f0160036101000a81548160ff0219169083151502179055506080820151815f0160046101000a81548160ff02191690831515021790555060a0820151815f0160056101000a81548160ff02191690831515021790555090505060019150509695505050505050565b6001602052805f5260405f205f915054906101000a900460ff1681565b5f60055f8473ffffffffffffffffffffffffffffffffffffffff1673ffffffffffffffffffffffffffffffffffffffff1681526020019081526020015f206040518060c00160405290815f82015f9054906101000a900460ff161515151581526020015f820160019054906101000a900460ff161515151581526020015f820160029054906101000a900460ff161515151581526020015f820160039054906101000a900460ff161515151581526020015f820160049054906101000a900460ff161515151581526020015f820160059054906101000a900460ff16151515158152505090505f6040516020016144d090618c8f565b60405160208183030381529060405280519060200120836040516020016144f79190618ca3565b6040516020818303038152906040528051906020012014801561451b575081606001515b1561452957600190506146c9565b60405160200161453890618d03565b604051602081830303815290604052805190602001208360405160200161455f9190618ca3565b60405160208183030381529060405280519060200120148015614583575081602001515b1561459157600190506146c8565b6040516020016145a090618d61565b60405160208183030381529060405280519060200120836040516020016145c79190618ca3565b604051602081830303815290604052805190602001201480156145eb575081604001515b156145f957600190506146c7565b60405160200161460890618dbf565b604051602081830303815290604052805190602001208360405160200161462f9190618ca3565b60405160208183030381529060405280519060200120148015614653575081608001515b1561466157600190506146c6565b60405160200161467090618e1d565b60405160208183030381529060405280519060200120836040516020016146979190618ca3565b604051602081830303815290604052805190602001201480156146bb57508160a001515b156146c557600190505b5b5b5b5b8015614823575f6040518060a00160405280600c80546146e890618183565b80601f016020809104026020016040519081016040528092919081815260200182805461471490618183565b801561475f5780601f106147365761010080835404028352916020019161475f565b820191905f5260205f20905b81548152906001019060200180831161474257829003601f168201915b505050505081526020018a81526020018960ff16815260200188815260200187815250905060095f9054906101000a900473ffffffffffffffffffffffffffffffffffffffff1673ffffffffffffffffffffffffffffffffffffffff1663f5d34e6082876040518363ffffffff1660e01b81526004016147e0929190618f0b565b6020604051808303815f875af11580156147fc573d5f803e3d5ffd5b505050506040513d601f19601f820116820180604052508101906148209190618b66565b50505b5050505050505050565b600c805461483a90618183565b80601f016020809104026020016040519081016040528092919081815260200182805461486690618183565b80156148b15780601f10614888576101008083540402835291602001916148b1565b820191905f5260205f20905b81548152906001019060200180831161489457829003601f168201915b505050505081565b600781815481106148c8575f80fd5b905f5260205f20015f915054906101000a900473ffffffffffffffffffffffffffffffffffffffff1681565b6006602052815f5260405f20818154811061490d575f80fd5b905f5260205f2090600302015f9150915050805f015f9054906101000a900460ff1690806001015490806002015f9054906101000a900473ffffffffffffffffffffffffffffffffffffffff16905083565b6060805f60078054905090508067ffffffffffffffff811115614985576149846167a0565b5b6040519080825280602002602001820160405280156149be57816020015b6149ab616617565b8152602001906001900390816149a35790505b5092508067ffffffffffffffff8111156149db576149da6167a0565b5b604051908082528060200260200182016040528015614a095781602001602082028036833780820191505090505b5091505f5b81811015614eb35760035f60078381548110614a2d57614a2c618092565b5b905f5260205f20015f9054906101000a900473ffffffffffffffffffffffffffffffffffffffff1673ffffffffffffffffffffffffffffffffffffffff1673ffffffffffffffffffffffffffffffffffffffff1681526020019081526020015f20604051806101400160405290815f82015f9054906101000a900473ffffffffffffffffffffffffffffffffffffffff1673ffffffffffffffffffffffffffffffffffffffff1673ffffffffffffffffffffffffffffffffffffffff168152602001600182018054614afe90618183565b80601f0160208091040260200160405190810160405280929190818152602001828054614b2a90618183565b8015614b755780601f10614b4c57610100808354040283529160200191614b75565b820191905f5260205f20905b815481529060010190602001808311614b5857829003601f168201915b50505050508152602001600282018054614b8e90618183565b80601f0160208091040260200160405190810160405280929190818152602001828054614bba90618183565b8015614c055780601f10614bdc57610100808354040283529160200191614c05565b820191905f5260205f20905b815481529060010190602001808311614be857829003601f168201915b50505050508152602001600382015f9054906101000a900460ff1660ff1660ff16815260200160048201548152602001600582018054614c4490618183565b80601f0160208091040260200160405190810160405280929190818152602001828054614c7090618183565b8015614cbb5780601f10614c9257610100808354040283529160200191614cbb565b820191905f5260205f20905b815481529060010190602001808311614c9e57829003601f168201915b50505050508152602001600682018054614cd490618183565b80601f0160208091040260200160405190810160405280929190818152602001828054614d0090618183565b8015614d4b5780601f10614d2257610100808354040283529160200191614d4b565b820191905f5260205f20905b815481529060010190602001808311614d2e57829003601f168201915b50505050508152602001600782015f9054906101000a900460ff166002811115614d7857614d77616dc1565b5b6002811115614d8a57614d89616dc1565b5b815260200160088201548152602001600982015f9054906101000a900473ffffffffffffffffffffffffffffffffffffffff1673ffffffffffffffffffffffffffffffffffffffff1673ffffffffffffffffffffffffffffffffffffffff1681525050848281518110614e0057614dff618092565b5b602002602001018190525060065f60078381548110614e2257614e21618092565b5b905f5260205f20015f9054906101000a900473ffffffffffffffffffffffffffffffffffffffff1673ffffffffffffffffffffffffffffffffffffffff1673ffffffffffffffffffffffffffffffffffffffff1681526020019081526020015f2080549050838281518110614e9a57614e99618092565b5b6020026020010181815250508080600101915050614a0e565b50509091565b5f600280811115614ecd57614ecc616dc1565b5b60035f8473ffffffffffffffffffffffffffffffffffffffff1673ffffffffffffffffffffffffffffffffffffffff1681526020019081526020015f206007015f9054906101000a900460ff166002811115614f2c57614f2b616dc1565b5b149050919050565b5f600280811115614f4857614f47616dc1565b5b60035f3373ffffffffffffffffffffffffffffffffffffffff1673ffffffffffffffffffffffffffffffffffffffff1681526020019081526020015f206007015f9054906101000a900460ff166002811115614fa757614fa6616dc1565b5b14614fe7576040517f08c379a0000000000000000000000000000000000000000000000000000000008152600401614fde90618fcf565b60405180910390fd5b6040518060c001604052808815158152602001871515815260200186151581526020018515158152602001841515815260200183151581525060055f3373ffffffffffffffffffffffffffffffffffffffff1673ffffffffffffffffffffffffffffffffffffffff1681526020019081526020015f205f820151815f015f6101000a81548160ff0219169083151502179055506020820151815f0160016101000a81548160ff0219169083151502179055506040820151815f0160026101000a81548160ff0219169083151502179055506060820151815f0160036101000a81548160ff0219169083151502179055506080820151815f0160046101000a81548160ff02191690831515021790555060a0820151815f0160056101000a81548160ff021916908315150217905550905050600190509695505050505050565b600b5f9054906101000a900473ffffffffffffffffffffffffffffffffffffffff1681565b5f825167ffffffffffffffff811115615167576151666167a0565b5b6040519080825280602002602001820160405280156151955781602001602082028036833780820191505090505b5090505f805b84518110156156f4575f60055f8784815181106151bb576151ba618092565b5b602002602001015173ffffffffffffffffffffffffffffffffffffffff1673ffffffffffffffffffffffffffffffffffffffff1681526020019081526020015f206040518060c00160405290815f82015f9054906101000a900460ff161515151581526020015f820160019054906101000a900460ff161515151581526020015f820160029054906101000a900460ff161515151581526020015f820160039054906101000a900460ff161515151581526020015f820160049054906101000a900460ff161515151581526020015f820160059054906101000a900460ff16151515158152505090506040516020016152b390618c8f565b60405160208183030381529060405280519060200120856040516020016152da9190618ca3565b604051602081830303815290604052805190602001201480156152fe575080606001515b1561537e5785828151811061531657615315618092565b5b602002602001015184848151811061533157615330618092565b5b602002602001019073ffffffffffffffffffffffffffffffffffffffff16908173ffffffffffffffffffffffffffffffffffffffff1681525050828061537690618fed565b9350506156e6565b60405160200161538d90618d03565b60405160208183030381529060405280519060200120856040516020016153b49190618ca3565b604051602081830303815290604052805190602001201480156153d8575080602001515b15615458578582815181106153f0576153ef618092565b5b602002602001015184848151811061540b5761540a618092565b5b602002602001019073ffffffffffffffffffffffffffffffffffffffff16908173ffffffffffffffffffffffffffffffffffffffff1681525050828061545090618fed565b9350506156e5565b60405160200161546790618d61565b604051602081830303815290604052805190602001208560405160200161548e9190618ca3565b604051602081830303815290604052805190602001201480156154b2575080604001515b15615532578582815181106154ca576154c9618092565b5b60200260200101518484815181106154e5576154e4618092565b5b602002602001019073ffffffffffffffffffffffffffffffffffffffff16908173ffffffffffffffffffffffffffffffffffffffff1681525050828061552a90618fed565b9350506156e4565b60405160200161554190618dbf565b60405160208183030381529060405280519060200120856040516020016155689190618ca3565b6040516020818303038152906040528051906020012014801561558c575080608001515b1561560c578582815181106155a4576155a3618092565b5b60200260200101518484815181106155bf576155be618092565b5b602002602001019073ffffffffffffffffffffffffffffffffffffffff16908173ffffffffffffffffffffffffffffffffffffffff1681525050828061560490618fed565b9350506156e3565b60405160200161561b90618e1d565b60405160208183030381529060405280519060200120856040516020016156429190618ca3565b6040516020818303038152906040528051906020012014801561566657508060a001515b156156e25785828151811061567e5761567d618092565b5b602002602001015184848151811061569957615698618092565b5b602002602001019073ffffffffffffffffffffffffffffffffffffffff16908173ffffffffffffffffffffffffffffffffffffffff168152505082806156de90618fed565b9350505b5b5b5b5b50808060010191505061519b565b505f81111561591e575f8167ffffffffffffffff811115615718576157176167a0565b5b6040519080825280602002602001820160405280156157465781602001602082028036833780820191505090505b5090505f5b828110156157c85783818151811061576657615765618092565b5b602002602001015182828151811061578157615780618092565b5b602002602001019073ffffffffffffffffffffffffffffffffffffffff16908173ffffffffffffffffffffffffffffffffffffffff1681525050808060010191505061574b565b505f6040518060a00160405280600c80546157e290618183565b80601f016020809104026020016040519081016040528092919081815260200182805461580e90618183565b80156158595780601f1061583057610100808354040283529160200191615859565b820191905f5260205f20905b81548152906001019060200180831161583c57829003601f168201915b505050505081526020018b81526020018a60ff16815260200189815260200188815250905060095f9054906101000a900473ffffffffffffffffffffffffffffffffffffffff1673ffffffffffffffffffffffffffffffffffffffff1663191dd92182846040518363ffffffff1660e01b81526004016158da9291906190dc565b6020604051808303815f875af11580156158f6573d5f803e3d5ffd5b505050506040513d601f19601f8201168201806040525081019061591a9190618b66565b5050505b5050505050505050565b5f8073ffffffffffffffffffffffffffffffffffffffff1660035f3373ffffffffffffffffffffffffffffffffffffffff1673ffffffffffffffffffffffffffffffffffffffff1681526020019081526020015f205f015f9054906101000a900473ffffffffffffffffffffffffffffffffffffffff1673ffffffffffffffffffffffffffffffffffffffff16036159f5576040517f08c379a00000000000000000000000000000000000000000000000000000000081526004016159ec90619181565b60405180910390fd5b825f015160035f3373ffffffffffffffffffffffffffffffffffffffff1673ffffffffffffffffffffffffffffffffffffffff1681526020019081526020015f206001019081615a4591906185bf565b50826020015160035f3373ffffffffffffffffffffffffffffffffffffffff1673ffffffffffffffffffffffffffffffffffffffff1681526020019081526020015f206002019081615a9791906185bf565b50826040015160035f3373ffffffffffffffffffffffffffffffffffffffff1673ffffffffffffffffffffffffffffffffffffffff1681526020019081526020015f206003015f6101000a81548160ff021916908360ff160217905550826060015160035f3373ffffffffffffffffffffffffffffffffffffffff1673ffffffffffffffffffffffffffffffffffffffff1681526020019081526020015f2060040181905550826080015160035f3373ffffffffffffffffffffffffffffffffffffffff1673ffffffffffffffffffffffffffffffffffffffff1681526020019081526020015f206005019081615b8e91906185bf565b5060045f3373ffffffffffffffffffffffffffffffffffffffff1673ffffffffffffffffffffffffffffffffffffffff1681526020019081526020015f205f615bd791906165ba565b5f5b8251811015615cdb5760045f3373ffffffffffffffffffffffffffffffffffffffff1673ffffffffffffffffffffffffffffffffffffffff1681526020019081526020015f20838281518110615c3257615c31618092565b5b6020026020010151908060018154018082558091505060019003905f5260205f2090600502015f909190919091505f820151815f019081615c7391906185bf565b506020820151816001019081615c8991906185bf565b506040820151816002019081615c9f91906185bf565b506060820151816003019081615cb591906185bf565b506080820151816004019081615ccb91906185bf565b5050508080600101915050615bd9565b506001905092915050565b5f60035f8373ffffffffffffffffffffffffffffffffffffffff1673ffffffffffffffffffffffffffffffffffffffff1681526020019081526020015f206009015f9054906101000a900473ffffffffffffffffffffffffffffffffffffffff169050919050565b615dfd83604051602001615d629190618968565b6040516020818303038152906040525f6040518060400160405280600c81526020017f4e657720507572636861736500000000000000000000000000000000000000008152506040518060c00160405280608681526020016194dd60869139866040518060400160405280600b81526020017f4f726465725570646174650000000000000000000000000000000000000000008152506143da565b615eac83604051602001615e119190618968565b6040516020818303038152906040525f6040518060400160405280600c81526020017f4e657720507572636861736500000000000000000000000000000000000000008152506040518060a00160405280606181526020016193ee60619139856040518060400160405280601381526020017f437573746f6d65724f726465725570646174650000000000000000000000000081525061514b565b615f7a83604051602001615ec09190618968565b6040516020818303038152906040525f6040518060400160405280601281526020017f4e6577204f7264657220526563656976656400000000000000000000000000008152506040518060c00160405280608e815260200161944f608e91395f8054906101000a900473ffffffffffffffffffffffffffffffffffffffff166040518060400160405280601381526020017f437573746f6d65724f72646572557064617465000000000000000000000000008152506143da565b505050565b60085f9054906101000a900473ffffffffffffffffffffffffffffffffffffffff1681565b61605383604051602001615fb89190618968565b6040516020818303038152906040525f6040518060400160405280600c81526020017f4e657720507572636861736500000000000000000000000000000000000000008152506040518060a001604052806062815260200161931560629139856040518060400160405280601381526020017f437573746f6d65724f72646572557064617465000000000000000000000000008152506143da565b616102836040516020016160679190618968565b6040516020818303038152906040525f6040518060400160405280601381526020017f5075726368617365205375636365737366756c000000000000000000000000008152506040518060c00160405280608681526020016194dd60869139866040518060400160405280600b81526020017f4f726465725570646174650000000000000000000000000000000000000000008152506143da565b6161d0836040516020016161169190618968565b6040516020818303038152906040525f6040518060400160405280601581526020017f41205075726368617365205375636365737366756c00000000000000000000008152506040518060c00160405280608e815260200161944f608e91395f8054906101000a900473ffffffffffffffffffffffffffffffffffffffff166040518060400160405280601381526020017f437573746f6d65724f72646572557064617465000000000000000000000000008152506143da565b505050565b60605f60016161e38461642c565b0190505f8167ffffffffffffffff811115616201576162006167a0565b5b6040519080825280601f01601f1916602001820160405280156162335781602001600182028036833780820191505090505b5090505f82602001820190505b600115616294578080600190039150507f3031323334353637383961626364656600000000000000000000000000000000600a86061a8153600a85816162895761628861919f565b5b0494505f8503616240575b819350505050919050565b8160035f8473ffffffffffffffffffffffffffffffffffffffff1673ffffffffffffffffffffffffffffffffffffffff1681526020019081526020015f205f015f6101000a81548173ffffffffffffffffffffffffffffffffffffffff021916908373ffffffffffffffffffffffffffffffffffffffff1602179055508060035f8473ffffffffffffffffffffffffffffffffffffffff1673ffffffffffffffffffffffffffffffffffffffff1681526020019081526020015f206007015f6101000a81548160ff0219169083600281111561637e5761637d616dc1565b5b02179055504260035f8473ffffffffffffffffffffffffffffffffffffffff1673ffffffffffffffffffffffffffffffffffffffff1681526020019081526020015f2060080181905550600782908060018154018082558091505060019003905f5260205f20015f9091909190916101000a81548173ffffffffffffffffffffffffffffffffffffffff021916908373ffffffffffffffffffffffffffffffffffffffff1602179055505050565b5f805f90507a184f03e93ff9f4daa797ed6e38ed64bf6a1f0100000000000000008310616488577a184f03e93ff9f4daa797ed6e38ed64bf6a1f010000000000000000838161647e5761647d61919f565b5b0492506040810190505b6d04ee2d6d415b85acef810000000083106164c5576d04ee2d6d415b85acef810000000083816164bb576164ba61919f565b5b0492506020810190505b662386f26fc1000083106164f457662386f26fc1000083816164ea576164e961919f565b5b0492506010810190505b6305f5e100831061651d576305f5e10083816165135761651261919f565b5b0492506008810190505b61271083106165425761271083816165385761653761919f565b5b0492506004810190505b60648310616565576064838161655b5761655a61919f565b5b0492506002810190505b600a8310616574576001810190505b80915050919050565b50805461658990618183565b5f825580601f1061659a57506165b7565b601f0160209004905f5260205f20908101906165b691906166a5565b5b50565b5080545f8255600502905f5260205f20908101906165d891906166c0565b50565b6040518060c001604052805f151581526020015f151581526020015f151581526020015f151581526020015f151581526020015f151581525090565b6040518061014001604052805f73ffffffffffffffffffffffffffffffffffffffff16815260200160608152602001606081526020015f60ff1681526020015f815260200160608152602001606081526020015f600281111561667d5761667c616dc1565b5b81526020015f81526020015f73ffffffffffffffffffffffffffffffffffffffff1681525090565b5b808211156166bc575f815f9055506001016166a6565b5090565b5b8082111561671d575f8082015f6166d8919061657d565b600182015f6166e7919061657d565b600282015f6166f6919061657d565b600382015f616705919061657d565b600482015f616714919061657d565b506005016166c1565b5090565b5f604051905090565b5f80fd5b5f80fd5b5f73ffffffffffffffffffffffffffffffffffffffff82169050919050565b5f61675b82616732565b9050919050565b61676b81616751565b8114616775575f80fd5b50565b5f8135905061678681616762565b92915050565b5f80fd5b5f601f19601f8301169050919050565b7f4e487b71000000000000000000000000000000000000000000000000000000005f52604160045260245ffd5b6167d682616790565b810181811067ffffffffffffffff821117156167f5576167f46167a0565b5b80604052505050565b5f616807616721565b905061681382826167cd565b919050565b5f80fd5b5f60ff82169050919050565b6168318161681c565b811461683b575f80fd5b50565b5f8135905061684c81616828565b92915050565b5f819050919050565b61686481616852565b811461686e575f80fd5b50565b5f8135905061687f8161685b565b92915050565b5f6060828403121561689a5761689961678c565b5b6168a460606167fe565b90505f6168b38482850161683e565b5f8301525060206168c684828501616871565b60208301525060406168da84828501616778565b60408301525092915050565b5f80608083850312156168fc576168fb61672a565b5b5f61690985828601616778565b925050602061691a85828601616885565b9150509250929050565b5f8115159050919050565b61693881616924565b82525050565b5f6020820190506169515f83018461692f565b92915050565b5f80fd5b5f80fd5b5f80fd5b5f8083601f84011261697857616977616957565b5b8235905067ffffffffffffffff8111156169955761699461695b565b5b6020830191508360018202830111156169b1576169b061695f565b5b9250929050565b5f80602083850312156169ce576169cd61672a565b5b5f83013567ffffffffffffffff8111156169eb576169ea61672e565b5b6169f785828601616963565b92509250509250929050565b5f80fd5b5f67ffffffffffffffff821115616a2157616a206167a0565b5b616a2a82616790565b9050602081019050919050565b828183375f83830152505050565b5f616a57616a5284616a07565b6167fe565b905082815260208101848484011115616a7357616a72616a03565b5b616a7e848285616a37565b509392505050565b5f82601f830112616a9a57616a99616957565b5b8135616aaa848260208601616a45565b91505092915050565b5f8060408385031215616ac957616ac861672a565b5b5f83013567ffffffffffffffff811115616ae657616ae561672e565b5b616af285828601616a86565b925050602083013567ffffffffffffffff811115616b1357616b1261672e565b5b616b1f85828601616a86565b9150509250929050565b5f60208284031215616b3e57616b3d61672a565b5b5f616b4b84828501616871565b91505092915050565b616b5d81616751565b82525050565b5f602082019050616b765f830184616b54565b92915050565b5f8060408385031215616b9257616b9161672a565b5b5f616b9f85828601616871565b925050602083013567ffffffffffffffff811115616bc057616bbf61672e565b5b616bcc85828601616a86565b9150509250929050565b5f81519050919050565b5f82825260208201905092915050565b8281835e5f83830152505050565b5f616c0882616bd6565b616c128185616be0565b9350616c22818560208601616bf0565b616c2b81616790565b840191505092915050565b5f6020820190508181035f830152616c4e8184616bfe565b905092915050565b616c5f81616924565b8114616c69575f80fd5b50565b5f81359050616c7a81616c56565b92915050565b5f805f8060808587031215616c9857616c9761672a565b5b5f616ca587828801616c6c565b9450506020616cb687828801616c6c565b9350506040616cc787828801616c6c565b9250506060616cd887828801616c6c565b91505092959194509250565b5f8060408385031215616cfa57616cf961672a565b5b5f616d0785828601616778565b9250506020616d1885828601616871565b9150509250929050565b5f60a0820190508181035f830152616d3a8188616bfe565b90508181036020830152616d4e8187616bfe565b90508181036040830152616d628186616bfe565b90508181036060830152616d768185616bfe565b90508181036080830152616d8a8184616bfe565b90509695505050505050565b5f60208284031215616dab57616daa61672a565b5b5f616db884828501616778565b91505092915050565b7f4e487b71000000000000000000000000000000000000000000000000000000005f52602160045260245ffd5b60038110616dff57616dfe616dc1565b5b50565b5f819050616e0f82616dee565b919050565b5f616e1e82616e02565b9050919050565b616e2e81616e14565b82525050565b5f602082019050616e475f830184616e25565b92915050565b5f81519050919050565b5f82825260208201905092915050565b5f819050602082019050919050565b616e7f8161681c565b82525050565b616e8e81616852565b82525050565b616e9d81616751565b82525050565b606082015f820151616eb75f850182616e76565b506020820151616eca6020850182616e85565b506040820151616edd6040850182616e94565b50505050565b5f616eee8383616ea3565b60608301905092915050565b5f602082019050919050565b5f616f1082616e4d565b616f1a8185616e57565b9350616f2583616e67565b805f5b83811015616f55578151616f3c8882616ee3565b9750616f4783616efa565b925050600181019050616f28565b5085935050505092915050565b5f6020820190508181035f830152616f7a8184616f06565b905092915050565b5f819050919050565b5f616fa5616fa0616f9b84616732565b616f82565b616732565b9050919050565b5f616fb682616f8b565b9050919050565b5f616fc782616fac565b9050919050565b616fd781616fbd565b82525050565b5f602082019050616ff05f830184616fce565b92915050565b5f805f6060848603121561700d5761700c61672a565b5b5f61701a86828701616871565b935050602061702b86828701616c6c565b925050604061703c86828701616778565b9150509250925092565b61704f81616924565b82525050565b60c082015f8201516170695f850182617046565b50602082015161707c6020850182617046565b50604082015161708f6040850182617046565b5060608201516170a26060850182617046565b5060808201516170b56080850182617046565b5060a08201516170c860a0850182617046565b50505050565b5f60c0820190506170e15f830184617055565b92915050565b6170f08161681c565b82525050565b6170ff81616852565b82525050565b5f610140820190506171195f83018d616b54565b818103602083015261712b818c616bfe565b9050818103604083015261713f818b616bfe565b905061714e606083018a6170e7565b61715b60808301896170f6565b81810360a083015261716d8188616bfe565b905081810360c08301526171818187616bfe565b905061719060e0830186616e25565b61719e6101008301856170f6565b6171ac610120830184616b54565b9b9a5050505050505050505050565b5f6171c582616fac565b9050919050565b6171d5816171bb565b82525050565b5f6020820190506171ee5f8301846171cc565b92915050565b5f60c082840312156172095761720861678c565b5b61721360c06167fe565b90505f82013567ffffffffffffffff81111561723257617231616818565b5b61723e84828501616a86565b5f83015250602082013567ffffffffffffffff81111561726157617260616818565b5b61726d84828501616a86565b60208301525060406172818482850161683e565b604083015250606061729584828501616871565b606083015250608082013567ffffffffffffffff8111156172b9576172b8616818565b5b6172c584828501616a86565b60808301525060a06172d984828501616778565b60a08301525092915050565b5f602082840312156172fa576172f961672a565b5b5f82013567ffffffffffffffff8111156173175761731661672e565b5b617323848285016171f4565b91505092915050565b5f82825260208201905092915050565b5f61734682616bd6565b617350818561732c565b9350617360818560208601616bf0565b61736981616790565b840191505092915050565b61737d81616e14565b82525050565b5f61014083015f8301516173995f860182616e94565b50602083015184820360208601526173b1828261733c565b915050604083015184820360408601526173cb828261733c565b91505060608301516173e06060860182616e76565b5060808301516173f36080860182616e85565b5060a083015184820360a086015261740b828261733c565b91505060c083015184820360c0860152617425828261733c565b91505060e083015161743a60e0860182617374565b5061010083015161744f610100860182616e85565b50610120830151617464610120860182616e94565b508091505092915050565b5f81519050919050565b5f82825260208201905092915050565b5f819050602082019050919050565b5f60a083015f8301518482035f8601526174b2828261733c565b915050602083015184820360208601526174cc828261733c565b915050604083015184820360408601526174e6828261733c565b91505060608301518482036060860152617500828261733c565b9150506080830151848203608086015261751a828261733c565b9150508091505092915050565b5f6175328383617498565b905092915050565b5f602082019050919050565b5f6175508261746f565b61755a8185617479565b93508360208202850161756c85617489565b805f5b858110156175a757848403895281516175888582617527565b94506175938361753a565b925060208a0199505060018101905061756f565b50829750879550505050505092915050565b5f6040820190508181035f8301526175d18185617383565b905081810360208301526175e58184617546565b90509392505050565b5f60c0820190506176015f83018961692f565b61760e602083018861692f565b61761b604083018761692f565b617628606083018661692f565b617635608083018561692f565b61764260a083018461692f565b979650505050505050565b5f805f805f8060c087890312156176675761766661672a565b5b5f61767489828a01616c6c565b965050602061768589828a01616c6c565b955050604061769689828a01616c6c565b94505060606176a789828a01616c6c565b93505060806176b889828a01616c6c565b92505060a06176c989828a01616c6c565b9150509295509295509295565b5f67ffffffffffffffff8211156176f0576176ef6167a0565b5b6176f982616790565b9050602081019050919050565b5f617718617713846176d6565b6167fe565b90508281526020810184848401111561773457617733616a03565b5b61773f848285616a37565b509392505050565b5f82601f83011261775b5761775a616957565b5b813561776b848260208601617706565b91505092915050565b5f805f805f8060c0878903121561778e5761778d61672a565b5b5f87013567ffffffffffffffff8111156177ab576177aa61672e565b5b6177b789828a01617747565b96505060206177c889828a0161683e565b955050604087013567ffffffffffffffff8111156177e9576177e861672e565b5b6177f589828a01616a86565b945050606087013567ffffffffffffffff8111156178165761781561672e565b5b61782289828a01616a86565b935050608061783389828a01616778565b92505060a087013567ffffffffffffffff8111156178545761785361672e565b5b61786089828a01616a86565b9150509295509295509295565b5f6060820190506178805f8301866170e7565b61788d60208301856170f6565b61789a6040830184616b54565b949350505050565b5f81519050919050565b5f82825260208201905092915050565b5f819050602082019050919050565b5f61014083015f8301516178e15f860182616e94565b50602083015184820360208601526178f9828261733c565b91505060408301518482036040860152617913828261733c565b91505060608301516179286060860182616e76565b50608083015161793b6080860182616e85565b5060a083015184820360a0860152617953828261733c565b91505060c083015184820360c086015261796d828261733c565b91505060e083015161798260e0860182617374565b50610100830151617997610100860182616e85565b506101208301516179ac610120860182616e94565b508091505092915050565b5f6179c283836178cb565b905092915050565b5f602082019050919050565b5f6179e0826178a2565b6179ea81856178ac565b9350836020820285016179fc856178bc565b805f5b85811015617a375784840389528151617a1885826179b7565b9450617a23836179ca565b925060208a019950506001810190506179ff565b50829750879550505050505092915050565b5f81519050919050565b5f82825260208201905092915050565b5f819050602082019050919050565b5f617a7d8383616e85565b60208301905092915050565b5f602082019050919050565b5f617a9f82617a49565b617aa98185617a53565b9350617ab483617a63565b805f5b83811015617ae4578151617acb8882617a72565b9750617ad683617a89565b925050600181019050617ab7565b5085935050505092915050565b5f6040820190508181035f830152617b0981856179d6565b90508181036020830152617b1d8184617a95565b90509392505050565b5f617b3082616fac565b9050919050565b617b4081617b26565b82525050565b5f602082019050617b595f830184617b37565b92915050565b5f67ffffffffffffffff821115617b7957617b786167a0565b5b602082029050602081019050919050565b5f617b9c617b9784617b5f565b6167fe565b90508083825260208201905060208402830185811115617bbf57617bbe61695f565b5b835b81811015617be85780617bd48882616778565b845260208401935050602081019050617bc1565b5050509392505050565b5f82601f830112617c0657617c05616957565b5b8135617c16848260208601617b8a565b91505092915050565b5f805f805f8060c08789031215617c3957617c3861672a565b5b5f87013567ffffffffffffffff811115617c5657617c5561672e565b5b617c6289828a01617747565b9650506020617c7389828a0161683e565b955050604087013567ffffffffffffffff811115617c9457617c9361672e565b5b617ca089828a01616a86565b945050606087013567ffffffffffffffff811115617cc157617cc061672e565b5b617ccd89828a01616a86565b935050608087013567ffffffffffffffff811115617cee57617ced61672e565b5b617cfa89828a01617bf2565b92505060a087013567ffffffffffffffff811115617d1b57617d1a61672e565b5b617d2789828a01616a86565b9150509295509295509295565b5f67ffffffffffffffff821115617d4e57617d4d6167a0565b5b602082029050602081019050919050565b5f60a08284031215617d7457617d7361678c565b5b617d7e60a06167fe565b90505f82013567ffffffffffffffff811115617d9d57617d9c616818565b5b617da984828501616a86565b5f83015250602082013567ffffffffffffffff811115617dcc57617dcb616818565b5b617dd884828501616a86565b602083015250604082013567ffffffffffffffff811115617dfc57617dfb616818565b5b617e0884828501616a86565b604083015250606082013567ffffffffffffffff811115617e2c57617e2b616818565b5b617e3884828501616a86565b606083015250608082013567ffffffffffffffff811115617e5c57617e5b616818565b5b617e6884828501616a86565b60808301525092915050565b5f617e86617e8184617d34565b6167fe565b90508083825260208201905060208402830185811115617ea957617ea861695f565b5b835b81811015617ef057803567ffffffffffffffff811115617ece57617ecd616957565b5b808601617edb8982617d5f565b85526020850194505050602081019050617eab565b5050509392505050565b5f82601f830112617f0e57617f0d616957565b5b8135617f1e848260208601617e74565b91505092915050565b5f8060408385031215617f3d57617f3c61672a565b5b5f83013567ffffffffffffffff811115617f5a57617f5961672e565b5b617f66858286016171f4565b925050602083013567ffffffffffffffff811115617f8757617f8661672e565b5b617f9385828601617efa565b9150509250929050565b5f805f60608486031215617fb457617fb361672a565b5b5f617fc186828701616871565b9350506020617fd286828701616778565b925050604084013567ffffffffffffffff811115617ff357617ff261672e565b5b617fff86828701617bf2565b9150509250925092565b5f61801382616fac565b9050919050565b61802381618009565b82525050565b5f60208201905061803c5f83018461801a565b92915050565b5f805f606084860312156180595761805861672a565b5b5f61806686828701616871565b935050602061807786828701616778565b925050604061808886828701616778565b9150509250925092565b7f4e487b71000000000000000000000000000000000000000000000000000000005f52603260045260245ffd5b7f4e487b71000000000000000000000000000000000000000000000000000000005f52601160045260245ffd5b5f6180f682616852565b915061810183616852565b9250828203905081811115618119576181186180bf565b5b92915050565b7f4e487b71000000000000000000000000000000000000000000000000000000005f52603160045260245ffd5b5f82905092915050565b7f4e487b71000000000000000000000000000000000000000000000000000000005f52602260045260245ffd5b5f600282049050600182168061819a57607f821691505b6020821081036181ad576181ac618156565b5b50919050565b5f819050815f5260205f209050919050565b5f6020601f8301049050919050565b5f82821b905092915050565b5f6008830261820f7fffffffffffffffffffffffffffffffffffffffffffffffffffffffffffffffff826181d4565b61821986836181d4565b95508019841693508086168417925050509392505050565b5f61824b61824661824184616852565b616f82565b616852565b9050919050565b5f819050919050565b61826483618231565b61827861827082618252565b8484546181e0565b825550505050565b5f90565b61828c618280565b61829781848461825b565b505050565b5b818110156182ba576182af5f82618284565b60018101905061829d565b5050565b601f8211156182ff576182d0816181b3565b6182d9846181c5565b810160208510156182e8578190505b6182fc6182f4856181c5565b83018261829c565b50505b505050565b5f82821c905092915050565b5f61831f5f1984600802618304565b1980831691505092915050565b5f6183378383618310565b9150826002028217905092915050565b618351838361814c565b67ffffffffffffffff81111561836a576183696167a0565b5b6183748254618183565b61837f8282856182be565b5f601f8311600181146183ac575f841561839a578287013590505b6183a4858261832c565b86555061840b565b601f1984166183ba866181b3565b5f5b828110156183e1578489013582556001820191506020850194506020810190506183bc565b868310156183fe57848901356183fa601f891682618310565b8355505b6001600288020188555050505b50505050505050565b7f7b2266726f6d223a202245636f6d557365722e736f6c222c22636f6465223a205f8201527f35352c20226d657373616765223a2022596f7520617265206e6f7420616c6c6f60208201527f7765642e227d0000000000000000000000000000000000000000000000000000604082015250565b5f618494604683616be0565b915061849f82618414565b606082019050919050565b5f6020820190508181035f8301526184c181618488565b9050919050565b7f7b2266726f6d223a202245636f6d557365722e736f6c222c22636f6465223a205f8201527f312c20226d657373616765223a2022546865207573657220697320616c72656160208201527f6479207265676973746572656420617320612072657461696c65722e227d0000604082015250565b5f618548605e83616be0565b9150618553826184c8565b606082019050919050565b5f6020820190508181035f8301526185758161853c565b9050919050565b5f6060820190508181035f8301526185948186616bfe565b90506185a36020830185616b54565b81810360408301526185b58184616bfe565b9050949350505050565b6185c882616bd6565b67ffffffffffffffff8111156185e1576185e06167a0565b5b6185eb8254618183565b6185f68282856182be565b5f60209050601f831160018114618627575f8415618615578287015190505b61861f858261832c565b865550618686565b601f198416618635866181b3565b5f5b8281101561865c57848901518255600182019150602085019450602081019050618637565b868310156186795784890151618675601f891682618310565b8355505b6001600288020188555050505b505050505050565b5f81905092915050565b7f7b2266726f6d223a202245636f6d557365722e736f6c222c00000000000000005f82015250565b5f6186cc60188361868e565b91506186d782618698565b601882019050919050565b7f22636f6465223a200000000000000000000000000000000000000000000000005f82015250565b5f61871660088361868e565b9150618721826186e2565b600882019050919050565b5f61873682616bd6565b618740818561868e565b9350618750818560208601616bf0565b80840191505092915050565b7f2c200000000000000000000000000000000000000000000000000000000000005f82015250565b5f61879060028361868e565b915061879b8261875c565b600282019050919050565b7f226d657373616765223a202200000000000000000000000000000000000000005f82015250565b5f6187da600c8361868e565b91506187e5826187a6565b600c82019050919050565b7f227d0000000000000000000000000000000000000000000000000000000000005f82015250565b5f61882460028361868e565b915061882f826187f0565b600282019050919050565b5f618844826186c0565b915061884f8261870a565b915061885b828561872c565b915061886682618784565b9150618871826187ce565b915061887d828461872c565b915061888882618818565b91508190509392505050565b7f7b2266726f6d223a202245636f6d557365722e736f6c222c22636f6465223a205f8201527f35312c20226d657373616765223a2022596f7520617265206e6f74206120637560208201527f73746f6d65722e227d0000000000000000000000000000000000000000000000604082015250565b5f618914604983616be0565b915061891f82618894565b606082019050919050565b5f6020820190508181035f83015261894181618908565b9050919050565b5f819050919050565b61896261895d82616852565b618948565b82525050565b5f6189738284618951565b60208201915081905092915050565b7f7b2266726f6d223a202245636f6d557365722e736f6c222c22636f6465223a205f8201527f34372c226d657373616765223a2022496e76616c696420757365726e616d652260208201527f7d00000000000000000000000000000000000000000000000000000000000000604082015250565b5f618a02604183616be0565b9150618a0d82618982565b606082019050919050565b5f6020820190508181035f830152618a2f816189f6565b9050919050565b7f7b2266726f6d223a202245636f6d557365722e736f6c222c22636f6465223a205f8201527f3130322c20226d657373616765223a20225573657220657869737473227d0000602082015250565b5f618a90603e83616be0565b9150618a9b82618a36565b604082019050919050565b5f6020820190508181035f830152618abd81618a84565b9050919050565b7f7b2266726f6d223a202245636f6d557365722e736f6c222c22636f6465223a205f8201527f3130312c20226d657373616765223a2022506172656e7420656d707479227d00602082015250565b5f618b1e603f83616be0565b9150618b2982618ac4565b604082019050919050565b5f6020820190508181035f830152618b4b81618b12565b9050919050565b5f81519050618b6081616c56565b92915050565b5f60208284031215618b7b57618b7a61672a565b5b5f618b8884828501618b52565b91505092915050565b7f7b2266726f6d223a202245636f6d557365722e736f6c222c22636f6465223a205f8201527f3130312c20226d657373616765223a2022506172656e74206e6f74206578697360208201527f7473227d00000000000000000000000000000000000000000000000000000000604082015250565b5f618c11604483616be0565b9150618c1c82618b91565b606082019050919050565b5f6020820190508181035f830152618c3e81618c05565b9050919050565b7f43726561746550726f64756374000000000000000000000000000000000000005f82015250565b5f618c79600d8361868e565b9150618c8482618c45565b600d82019050919050565b5f618c9982618c6d565b9150819050919050565b5f618cae828461872c565b915081905092915050565b7f4f726465725570646174650000000000000000000000000000000000000000005f82015250565b5f618ced600b8361868e565b9150618cf882618cb9565b600b82019050919050565b5f618d0d82618ce1565b9150819050919050565b7f50726f6d6f74696f6e616c50726f6772616d00000000000000000000000000005f82015250565b5f618d4b60128361868e565b9150618d5682618d17565b601282019050919050565b5f618d6b82618d3f565b9150819050919050565b7f437573746f6d65724f72646572557064617465000000000000000000000000005f82015250565b5f618da960138361868e565b9150618db482618d75565b601382019050919050565b5f618dc982618d9d565b9150819050919050565b7f436f6d6d656e74557064617465000000000000000000000000000000000000005f82015250565b5f618e07600d8361868e565b9150618e1282618dd3565b600d82019050919050565b5f618e2782618dfb565b9150819050919050565b5f81519050919050565b5f82825260208201905092915050565b5f618e5582618e31565b618e5f8185618e3b565b9350618e6f818560208601616bf0565b618e7881616790565b840191505092915050565b5f60a083015f8301518482035f860152618e9d828261733c565b91505060208301518482036020860152618eb78282618e4b565b9150506040830151618ecc6040860182616e76565b5060608301518482036060860152618ee4828261733c565b91505060808301518482036080860152618efe828261733c565b9150508091505092915050565b5f6040820190508181035f830152618f238185618e83565b9050618f326020830184616b54565b9392505050565b7f7b2266726f6d223a202245636f6d557365722e736f6c222c22636f6465223a205f8201527f35312c20226d657373616765223a2022596f7520617265206e6f74206120726560208201527f7461696c65722e227d0000000000000000000000000000000000000000000000604082015250565b5f618fb9604983616be0565b9150618fc482618f39565b606082019050919050565b5f6020820190508181035f830152618fe681618fad565b9050919050565b5f618ff782616852565b91507fffffffffffffffffffffffffffffffffffffffffffffffffffffffffffffffff8203619029576190286180bf565b5b600182019050919050565b5f81519050919050565b5f82825260208201905092915050565b5f819050602082019050919050565b5f6190688383616e94565b60208301905092915050565b5f602082019050919050565b5f61908a82619034565b619094818561903e565b935061909f8361904e565b805f5b838110156190cf5781516190b6888261905d565b97506190c183619074565b9250506001810190506190a2565b5085935050505092915050565b5f6040820190508181035f8301526190f48185618e83565b905081810360208301526191088184619080565b90509392505050565b7f7b2266726f6d223a202245636f6d557365722e736f6c222c22636f6465223a205f8201527f34332c226d657373616765223a2022496e76616c69642075736572227d000000602082015250565b5f61916b603d83616be0565b915061917682619111565b604082019050919050565b5f6020820190508181035f8301526191988161915f565b9050919050565b7f4e487b71000000000000000000000000000000000000000000000000000000005f52601260045260245ffdfe4570696320536176696e677320417761697421204f757220466c6173682053616c6520697320686572652077697468206a61772d64726f7070696e6720646973636f756e747321576520617265206578636974656420746f20696e74726f647563652061206e65772070726f647563742120446f6e2774206d69737320746865206368616e636520746f20657870657269656e636520746865206c61746573742070726f64756374732e20436865636b206974206f7574206e6f7720666f72206d6f72652064657461696c732e596f7572206e65772070726f6475637420686173206265656e207375636365737366756c6c7920706f737465642120436865636b206974206f7574206e6f77206f6e20796f75722073746f7265207061676520616e642067657420726561647920746f2061747472616374206d6f726520637573746f6d6572732e596f757220637573746f6d657220686173207375636365737366756c6c7920706c6163656420616e206f7264657220666f7220796f75722070726f6475637421205468616e6b20796f7520666f7220706172746e6572696e6720776974682075732e41206e65772070726f6475637420686173206265656e207375636365737366756c6c7920706f7374656420627920612072657461696c65722120436865636b206974206f7574206f6e20746865207765627369746520616e6420656e737572652065766572797468696e6720697320696e206f72646572596f757220637573746f6d657220686173207375636365737366756c6c7920706c6163656420616e206f7264657220666f7220796f75722070726f6475637421205468616e6b20796f7520666f7220706172746e6572696e672077697468207573416e206f7264657220686173206265656e207375636365737366756c6c7920706c61636564206279206120637573746f6d657220666f72206f6e65206f6620796f75722070726f64756374732e20506c656173652072657669657720746865206f726465722064657461696c7320746f20656e737572652065766572797468696e6720697320696e206f72646572596f7572206f7264657220686173206265656e207375636365737366756c6c7920706c61636564212057652077696c6c2070726f6365737320616e64207368697020796f7572206f7264657220617320736f6f6e20617320706f737369626c652e205468616e6b20796f7520666f72207472757374696e6720616e642073686f7070696e672ea264697066735822122061b1f7b79ce93a8fa1659aa91738b167e049a033467289b798146734071fbb4964736f6c634300081a0033",
			"opcodes": "PUSH1 0x80 PUSH1 0x40 MSTORE PUSH1 0x40 MLOAD DUP1 PUSH1 0x40 ADD PUSH1 0x40 MSTORE DUP1 PUSH1 0x4 DUP2 MSTORE PUSH1 0x20 ADD PUSH32 0x45434F4D00000000000000000000000000000000000000000000000000000000 DUP2 MSTORE POP PUSH1 0xC SWAP1 DUP2 PUSH2 0x48 SWAP2 SWAP1 PUSH2 0x464 JUMP JUMPDEST POP CALLER PUSH0 DUP1 PUSH2 0x100 EXP DUP2 SLOAD DUP2 PUSH20 0xFFFFFFFFFFFFFFFFFFFFFFFFFFFFFFFFFFFFFFFF MUL NOT AND SWAP1 DUP4 PUSH20 0xFFFFFFFFFFFFFFFFFFFFFFFFFFFFFFFFFFFFFFFF AND MUL OR SWAP1 SSTORE POP PUSH2 0x98 CALLER PUSH0 PUSH2 0x9D PUSH1 0x20 SHL PUSH1 0x20 SHR JUMP JUMPDEST PUSH2 0x560 JUMP JUMPDEST DUP2 PUSH1 0x3 PUSH0 DUP5 PUSH20 0xFFFFFFFFFFFFFFFFFFFFFFFFFFFFFFFFFFFFFFFF AND PUSH20 0xFFFFFFFFFFFFFFFFFFFFFFFFFFFFFFFFFFFFFFFF AND DUP2 MSTORE PUSH1 0x20 ADD SWAP1 DUP2 MSTORE PUSH1 0x20 ADD PUSH0 KECCAK256 PUSH0 ADD PUSH0 PUSH2 0x100 EXP DUP2 SLOAD DUP2 PUSH20 0xFFFFFFFFFFFFFFFFFFFFFFFFFFFFFFFFFFFFFFFF MUL NOT AND SWAP1 DUP4 PUSH20 0xFFFFFFFFFFFFFFFFFFFFFFFFFFFFFFFFFFFFFFFF AND MUL OR SWAP1 SSTORE POP DUP1 PUSH1 0x3 PUSH0 DUP5 PUSH20 0xFFFFFFFFFFFFFFFFFFFFFFFFFFFFFFFFFFFFFFFF AND PUSH20 0xFFFFFFFFFFFFFFFFFFFFFFFFFFFFFFFFFFFFFFFF AND DUP2 MSTORE PUSH1 0x20 ADD SWAP1 DUP2 MSTORE PUSH1 0x20 ADD PUSH0 KECCAK256 PUSH1 0x7 ADD PUSH0 PUSH2 0x100 EXP DUP2 SLOAD DUP2 PUSH1 0xFF MUL NOT AND SWAP1 DUP4 PUSH1 0x2 DUP2 GT ISZERO PUSH2 0x17C JUMPI PUSH2 0x17B PUSH2 0x533 JUMP JUMPDEST JUMPDEST MUL OR SWAP1 SSTORE POP TIMESTAMP PUSH1 0x3 PUSH0 DUP5 PUSH20 0xFFFFFFFFFFFFFFFFFFFFFFFFFFFFFFFFFFFFFFFF AND PUSH20 0xFFFFFFFFFFFFFFFFFFFFFFFFFFFFFFFFFFFFFFFF AND DUP2 MSTORE PUSH1 0x20 ADD SWAP1 DUP2 MSTORE PUSH1 0x20 ADD PUSH0 KECCAK256 PUSH1 0x8 ADD DUP2 SWAP1 SSTORE POP PUSH1 0x7 DUP3 SWAP1 DUP1 PUSH1 0x1 DUP2 SLOAD ADD DUP1 DUP3 SSTORE DUP1 SWAP2 POP POP PUSH1 0x1 SWAP1 SUB SWAP1 PUSH0 MSTORE PUSH1 0x20 PUSH0 KECCAK256 ADD PUSH0 SWAP1 SWAP2 SWAP1 SWAP2 SWAP1 SWAP2 PUSH2 0x100 EXP DUP2 SLOAD DUP2 PUSH20 0xFFFFFFFFFFFFFFFFFFFFFFFFFFFFFFFFFFFFFFFF MUL NOT AND SWAP1 DUP4 PUSH20 0xFFFFFFFFFFFFFFFFFFFFFFFFFFFFFFFFFFFFFFFF AND MUL OR SWAP1 SSTORE POP POP POP JUMP JUMPDEST PUSH0 DUP2 MLOAD SWAP1 POP SWAP2 SWAP1 POP JUMP JUMPDEST PUSH32 0x4E487B7100000000000000000000000000000000000000000000000000000000 PUSH0 MSTORE PUSH1 0x41 PUSH1 0x4 MSTORE PUSH1 0x24 PUSH0 REVERT JUMPDEST PUSH32 0x4E487B7100000000000000000000000000000000000000000000000000000000 PUSH0 MSTORE PUSH1 0x22 PUSH1 0x4 MSTORE PUSH1 0x24 PUSH0 REVERT JUMPDEST PUSH0 PUSH1 0x2 DUP3 DIV SWAP1 POP PUSH1 0x1 DUP3 AND DUP1 PUSH2 0x2A5 JUMPI PUSH1 0x7F DUP3 AND SWAP2 POP JUMPDEST PUSH1 0x20 DUP3 LT DUP2 SUB PUSH2 0x2B8 JUMPI PUSH2 0x2B7 PUSH2 0x261 JUMP JUMPDEST JUMPDEST POP SWAP2 SWAP1 POP JUMP JUMPDEST PUSH0 DUP2 SWAP1 POP DUP2 PUSH0 MSTORE PUSH1 0x20 PUSH0 KECCAK256 SWAP1 POP SWAP2 SWAP1 POP JUMP JUMPDEST PUSH0 PUSH1 0x20 PUSH1 0x1F DUP4 ADD DIV SWAP1 POP SWAP2 SWAP1 POP JUMP JUMPDEST PUSH0 DUP3 DUP3 SHL SWAP1 POP SWAP3 SWAP2 POP POP JUMP JUMPDEST PUSH0 PUSH1 0x8 DUP4 MUL PUSH2 0x31A PUSH32 0xFFFFFFFFFFFFFFFFFFFFFFFFFFFFFFFFFFFFFFFFFFFFFFFFFFFFFFFFFFFFFFFF DUP3 PUSH2 0x2DF JUMP JUMPDEST PUSH2 0x324 DUP7 DUP4 PUSH2 0x2DF JUMP JUMPDEST SWAP6 POP DUP1 NOT DUP5 AND SWAP4 POP DUP1 DUP7 AND DUP5 OR SWAP3 POP POP POP SWAP4 SWAP3 POP POP POP JUMP JUMPDEST PUSH0 DUP2 SWAP1 POP SWAP2 SWAP1 POP JUMP JUMPDEST PUSH0 DUP2 SWAP1 POP SWAP2 SWAP1 POP JUMP JUMPDEST PUSH0 PUSH2 0x368 PUSH2 0x363 PUSH2 0x35E DUP5 PUSH2 0x33C JUMP JUMPDEST PUSH2 0x345 JUMP JUMPDEST PUSH2 0x33C JUMP JUMPDEST SWAP1 POP SWAP2 SWAP1 POP JUMP JUMPDEST PUSH0 DUP2 SWAP1 POP SWAP2 SWAP1 POP JUMP JUMPDEST PUSH2 0x381 DUP4 PUSH2 0x34E JUMP JUMPDEST PUSH2 0x395 PUSH2 0x38D DUP3 PUSH2 0x36F JUMP JUMPDEST DUP5 DUP5 SLOAD PUSH2 0x2EB JUMP JUMPDEST DUP3 SSTORE POP POP POP POP JUMP JUMPDEST PUSH0 SWAP1 JUMP JUMPDEST PUSH2 0x3A9 PUSH2 0x39D JUMP JUMPDEST PUSH2 0x3B4 DUP2 DUP5 DUP5 PUSH2 0x378 JUMP JUMPDEST POP POP POP JUMP JUMPDEST JUMPDEST DUP2 DUP2 LT ISZERO PUSH2 0x3D7 JUMPI PUSH2 0x3CC PUSH0 DUP3 PUSH2 0x3A1 JUMP JUMPDEST PUSH1 0x1 DUP2 ADD SWAP1 POP PUSH2 0x3BA JUMP JUMPDEST POP POP JUMP JUMPDEST PUSH1 0x1F DUP3 GT ISZERO PUSH2 0x41C JUMPI PUSH2 0x3ED DUP2 PUSH2 0x2BE JUMP JUMPDEST PUSH2 0x3F6 DUP5 PUSH2 0x2D0 JUMP JUMPDEST DUP2 ADD PUSH1 0x20 DUP6 LT ISZERO PUSH2 0x405 JUMPI DUP2 SWAP1 POP JUMPDEST PUSH2 0x419 PUSH2 0x411 DUP6 PUSH2 0x2D0 JUMP JUMPDEST DUP4 ADD DUP3 PUSH2 0x3B9 JUMP JUMPDEST POP POP JUMPDEST POP POP POP JUMP JUMPDEST PUSH0 DUP3 DUP3 SHR SWAP1 POP SWAP3 SWAP2 POP POP JUMP JUMPDEST PUSH0 PUSH2 0x43C PUSH0 NOT DUP5 PUSH1 0x8 MUL PUSH2 0x421 JUMP JUMPDEST NOT DUP1 DUP4 AND SWAP2 POP POP SWAP3 SWAP2 POP POP JUMP JUMPDEST PUSH0 PUSH2 0x454 DUP4 DUP4 PUSH2 0x42D JUMP JUMPDEST SWAP2 POP DUP3 PUSH1 0x2 MUL DUP3 OR SWAP1 POP SWAP3 SWAP2 POP POP JUMP JUMPDEST PUSH2 0x46D DUP3 PUSH2 0x22A JUMP JUMPDEST PUSH8 0xFFFFFFFFFFFFFFFF DUP2 GT ISZERO PUSH2 0x486 JUMPI PUSH2 0x485 PUSH2 0x234 JUMP JUMPDEST JUMPDEST PUSH2 0x490 DUP3 SLOAD PUSH2 0x28E JUMP JUMPDEST PUSH2 0x49B DUP3 DUP3 DUP6 PUSH2 0x3DB JUMP JUMPDEST PUSH0 PUSH1 0x20 SWAP1 POP PUSH1 0x1F DUP4 GT PUSH1 0x1 DUP2 EQ PUSH2 0x4CC JUMPI PUSH0 DUP5 ISZERO PUSH2 0x4BA JUMPI DUP3 DUP8 ADD MLOAD SWAP1 POP JUMPDEST PUSH2 0x4C4 DUP6 DUP3 PUSH2 0x449 JUMP JUMPDEST DUP7 SSTORE POP PUSH2 0x52B JUMP JUMPDEST PUSH1 0x1F NOT DUP5 AND PUSH2 0x4DA DUP7 PUSH2 0x2BE JUMP JUMPDEST PUSH0 JUMPDEST DUP3 DUP2 LT ISZERO PUSH2 0x501 JUMPI DUP5 DUP10 ADD MLOAD DUP3 SSTORE PUSH1 0x1 DUP3 ADD SWAP2 POP PUSH1 0x20 DUP6 ADD SWAP5 POP PUSH1 0x20 DUP2 ADD SWAP1 POP PUSH2 0x4DC JUMP JUMPDEST DUP7 DUP4 LT ISZERO PUSH2 0x51E JUMPI DUP5 DUP10 ADD MLOAD PUSH2 0x51A PUSH1 0x1F DUP10 AND DUP3 PUSH2 0x42D JUMP JUMPDEST DUP4 SSTORE POP JUMPDEST PUSH1 0x1 PUSH1 0x2 DUP9 MUL ADD DUP9 SSTORE POP POP POP JUMPDEST POP POP POP POP POP POP JUMP JUMPDEST PUSH32 0x4E487B7100000000000000000000000000000000000000000000000000000000 PUSH0 MSTORE PUSH1 0x21 PUSH1 0x4 MSTORE PUSH1 0x24 PUSH0 REVERT JUMPDEST PUSH2 0x9598 DUP1 PUSH2 0x56D PUSH0 CODECOPY PUSH0 RETURN INVALID PUSH1 0x80 PUSH1 0x40 MSTORE CALLVALUE DUP1 ISZERO PUSH2 0xF JUMPI PUSH0 DUP1 REVERT JUMPDEST POP PUSH1 0x4 CALLDATASIZE LT PUSH2 0x27D JUMPI PUSH0 CALLDATALOAD PUSH1 0xE0 SHR DUP1 PUSH4 0x6386C1C7 GT PUSH2 0x15A JUMPI DUP1 PUSH4 0x9F4216E8 GT PUSH2 0xCC JUMPI DUP1 PUSH4 0xBD0F8CBF GT PUSH2 0x85 JUMPI DUP1 PUSH4 0xBD0F8CBF EQ PUSH2 0x90A JUMPI DUP1 PUSH4 0xD2F01561 EQ PUSH2 0x926 JUMPI DUP1 PUSH4 0xE00F0DAE EQ PUSH2 0x956 JUMPI DUP1 PUSH4 0xE205D94E EQ PUSH2 0x986 JUMPI DUP1 PUSH4 0xE5FC4AC2 EQ PUSH2 0x9A2 JUMPI DUP1 PUSH4 0xEAF4EE9A EQ PUSH2 0x9C0 JUMPI PUSH2 0x27D JUMP JUMPDEST DUP1 PUSH4 0x9F4216E8 EQ PUSH2 0x80B JUMPI DUP1 PUSH4 0xA36AFC66 EQ PUSH2 0x83B JUMPI DUP1 PUSH4 0xAAA3DE26 EQ PUSH2 0x86D JUMPI DUP1 PUSH4 0xB3A6404E EQ PUSH2 0x88C JUMPI DUP1 PUSH4 0xB618A35F EQ PUSH2 0x8BC JUMPI DUP1 PUSH4 0xB814F77B EQ PUSH2 0x8EC JUMPI PUSH2 0x27D JUMP JUMPDEST DUP1 PUSH4 0x8DA5CB5B GT PUSH2 0x11E JUMPI DUP1 PUSH4 0x8DA5CB5B EQ PUSH2 0x723 JUMPI DUP1 PUSH4 0x8FD58A7D EQ PUSH2 0x741 JUMPI DUP1 PUSH4 0x95564309 EQ PUSH2 0x771 JUMPI DUP1 PUSH4 0x9DDF2E95 EQ PUSH2 0x7A1 JUMPI DUP1 PUSH4 0x9E47566C EQ PUSH2 0x7D1 JUMPI DUP1 PUSH4 0x9F2E6A0C EQ PUSH2 0x7ED JUMPI PUSH2 0x27D JUMP JUMPDEST DUP1 PUSH4 0x6386C1C7 EQ PUSH2 0x63E JUMPI DUP1 PUSH4 0x704B6C02 EQ PUSH2 0x66F JUMPI DUP1 PUSH4 0x72B1D452 EQ PUSH2 0x69F JUMPI DUP1 PUSH4 0x832880E7 EQ PUSH2 0x6D4 JUMPI DUP1 PUSH4 0x8A8869E2 EQ PUSH2 0x6F3 JUMPI PUSH2 0x27D JUMP JUMPDEST DUP1 PUSH4 0x30CBFB24 GT PUSH2 0x1F3 JUMPI DUP1 PUSH4 0x4B5BA409 GT PUSH2 0x1B7 JUMPI DUP1 PUSH4 0x4B5BA409 EQ PUSH2 0x527 JUMPI DUP1 PUSH4 0x4D5D6AD0 EQ PUSH2 0x557 JUMPI DUP1 PUSH4 0x4FFFD6AC EQ PUSH2 0x587 JUMPI DUP1 PUSH4 0x5182104C EQ PUSH2 0x5B7 JUMPI DUP1 PUSH4 0x630E8B30 EQ PUSH2 0x5F0 JUMPI DUP1 PUSH4 0x6321F8A7 EQ PUSH2 0x60E JUMPI PUSH2 0x27D JUMP JUMPDEST DUP1 PUSH4 0x30CBFB24 EQ PUSH2 0x45D JUMPI DUP1 PUSH4 0x32F39436 EQ PUSH2 0x48D JUMPI DUP1 PUSH4 0x371C0FC7 EQ PUSH2 0x4AB JUMPI DUP1 PUSH4 0x44089CD1 EQ PUSH2 0x4C7 JUMPI DUP1 PUSH4 0x4A1F6125 EQ PUSH2 0x4F7 JUMPI PUSH2 0x27D JUMP JUMPDEST DUP1 PUSH4 0x2248632A GT PUSH2 0x245 JUMPI DUP1 PUSH4 0x2248632A EQ PUSH2 0x34B JUMPI DUP1 PUSH4 0x23398AAB EQ PUSH2 0x37B JUMPI DUP1 PUSH4 0x25B4436D EQ PUSH2 0x3AB JUMPI DUP1 PUSH4 0x27820851 EQ PUSH2 0x3DF JUMPI DUP1 PUSH4 0x27E1F7DF EQ PUSH2 0x40F JUMPI DUP1 PUSH4 0x27F444E4 EQ PUSH2 0x43F JUMPI PUSH2 0x27D JUMP JUMPDEST DUP1 PUSH4 0x25F36E5 EQ PUSH2 0x281 JUMPI DUP1 PUSH4 0x26FF05E EQ PUSH2 0x29D JUMPI DUP1 PUSH4 0x316E0EB EQ PUSH2 0x2BB JUMPI DUP1 PUSH4 0xB6B8EDC EQ PUSH2 0x2EB JUMPI DUP1 PUSH4 0x14BFD6D0 EQ PUSH2 0x31B JUMPI JUMPDEST PUSH0 DUP1 REVERT JUMPDEST PUSH2 0x29B PUSH1 0x4 DUP1 CALLDATASIZE SUB DUP2 ADD SWAP1 PUSH2 0x296 SWAP2 SWAP1 PUSH2 0x68E6 JUMP JUMPDEST PUSH2 0x9DC JUMP JUMPDEST STOP JUMPDEST PUSH2 0x2A5 PUSH2 0xAB4 JUMP JUMPDEST PUSH1 0x40 MLOAD PUSH2 0x2B2 SWAP2 SWAP1 PUSH2 0x693E JUMP JUMPDEST PUSH1 0x40 MLOAD DUP1 SWAP2 SUB SWAP1 RETURN JUMPDEST PUSH2 0x2D5 PUSH1 0x4 DUP1 CALLDATASIZE SUB DUP2 ADD SWAP1 PUSH2 0x2D0 SWAP2 SWAP1 PUSH2 0x69B8 JUMP JUMPDEST PUSH2 0xD75 JUMP JUMPDEST PUSH1 0x40 MLOAD PUSH2 0x2E2 SWAP2 SWAP1 PUSH2 0x693E JUMP JUMPDEST PUSH1 0x40 MLOAD DUP1 SWAP2 SUB SWAP1 RETURN JUMPDEST PUSH2 0x305 PUSH1 0x4 DUP1 CALLDATASIZE SUB DUP2 ADD SWAP1 PUSH2 0x300 SWAP2 SWAP1 PUSH2 0x6AB3 JUMP JUMPDEST PUSH2 0xDD0 JUMP JUMPDEST PUSH1 0x40 MLOAD PUSH2 0x312 SWAP2 SWAP1 PUSH2 0x693E JUMP JUMPDEST PUSH1 0x40 MLOAD DUP1 SWAP2 SUB SWAP1 RETURN JUMPDEST PUSH2 0x335 PUSH1 0x4 DUP1 CALLDATASIZE SUB DUP2 ADD SWAP1 PUSH2 0x330 SWAP2 SWAP1 PUSH2 0x6B29 JUMP JUMPDEST PUSH2 0x117E JUMP JUMPDEST PUSH1 0x40 MLOAD PUSH2 0x342 SWAP2 SWAP1 PUSH2 0x6B63 JUMP JUMPDEST PUSH1 0x40 MLOAD DUP1 SWAP2 SUB SWAP1 RETURN JUMPDEST PUSH2 0x365 PUSH1 0x4 DUP1 CALLDATASIZE SUB DUP2 ADD SWAP1 PUSH2 0x360 SWAP2 SWAP1 PUSH2 0x6B7C JUMP JUMPDEST PUSH2 0x11B9 JUMP JUMPDEST PUSH1 0x40 MLOAD PUSH2 0x372 SWAP2 SWAP1 PUSH2 0x6C36 JUMP JUMPDEST PUSH1 0x40 MLOAD DUP1 SWAP2 SUB SWAP1 RETURN JUMPDEST PUSH2 0x395 PUSH1 0x4 DUP1 CALLDATASIZE SUB DUP2 ADD SWAP1 PUSH2 0x390 SWAP2 SWAP1 PUSH2 0x6C80 JUMP JUMPDEST PUSH2 0x11F2 JUMP JUMPDEST PUSH1 0x40 MLOAD PUSH2 0x3A2 SWAP2 SWAP1 PUSH2 0x693E JUMP JUMPDEST PUSH1 0x40 MLOAD DUP1 SWAP2 SUB SWAP1 RETURN JUMPDEST PUSH2 0x3C5 PUSH1 0x4 DUP1 CALLDATASIZE SUB DUP2 ADD SWAP1 PUSH2 0x3C0 SWAP2 SWAP1 PUSH2 0x6CE4 JUMP JUMPDEST PUSH2 0x13E3 JUMP JUMPDEST PUSH1 0x40 MLOAD PUSH2 0x3D6 SWAP6 SWAP5 SWAP4 SWAP3 SWAP2 SWAP1 PUSH2 0x6D22 JUMP JUMPDEST PUSH1 0x40 MLOAD DUP1 SWAP2 SUB SWAP1 RETURN JUMPDEST PUSH2 0x3F9 PUSH1 0x4 DUP1 CALLDATASIZE SUB DUP2 ADD SWAP1 PUSH2 0x3F4 SWAP2 SWAP1 PUSH2 0x6D96 JUMP JUMPDEST PUSH2 0x16CD JUMP JUMPDEST PUSH1 0x40 MLOAD PUSH2 0x406 SWAP2 SWAP1 PUSH2 0x6E34 JUMP JUMPDEST PUSH1 0x40 MLOAD DUP1 SWAP2 SUB SWAP1 RETURN JUMPDEST PUSH2 0x429 PUSH1 0x4 DUP1 CALLDATASIZE SUB DUP2 ADD SWAP1 PUSH2 0x424 SWAP2 SWAP1 PUSH2 0x6D96 JUMP JUMPDEST PUSH2 0x1832 JUMP JUMPDEST PUSH1 0x40 MLOAD PUSH2 0x436 SWAP2 SWAP1 PUSH2 0x693E JUMP JUMPDEST PUSH1 0x40 MLOAD DUP1 SWAP2 SUB SWAP1 RETURN JUMPDEST PUSH2 0x447 PUSH2 0x1A9A JUMP JUMPDEST PUSH1 0x40 MLOAD PUSH2 0x454 SWAP2 SWAP1 PUSH2 0x6F62 JUMP JUMPDEST PUSH1 0x40 MLOAD DUP1 SWAP2 SUB SWAP1 RETURN JUMPDEST PUSH2 0x477 PUSH1 0x4 DUP1 CALLDATASIZE SUB DUP2 ADD SWAP1 PUSH2 0x472 SWAP2 SWAP1 PUSH2 0x6D96 JUMP JUMPDEST PUSH2 0x1BAB JUMP JUMPDEST PUSH1 0x40 MLOAD PUSH2 0x484 SWAP2 SWAP1 PUSH2 0x693E JUMP JUMPDEST PUSH1 0x40 MLOAD DUP1 SWAP2 SUB SWAP1 RETURN JUMPDEST PUSH2 0x495 PUSH2 0x1C85 JUMP JUMPDEST PUSH1 0x40 MLOAD PUSH2 0x4A2 SWAP2 SWAP1 PUSH2 0x6FDD JUMP JUMPDEST PUSH1 0x40 MLOAD DUP1 SWAP2 SUB SWAP1 RETURN JUMPDEST PUSH2 0x4C5 PUSH1 0x4 DUP1 CALLDATASIZE SUB DUP2 ADD SWAP1 PUSH2 0x4C0 SWAP2 SWAP1 PUSH2 0x6FF6 JUMP JUMPDEST PUSH2 0x1CAA JUMP JUMPDEST STOP JUMPDEST PUSH2 0x4E1 PUSH1 0x4 DUP1 CALLDATASIZE SUB DUP2 ADD SWAP1 PUSH2 0x4DC SWAP2 SWAP1 PUSH2 0x6D96 JUMP JUMPDEST PUSH2 0x2097 JUMP JUMPDEST PUSH1 0x40 MLOAD PUSH2 0x4EE SWAP2 SWAP1 PUSH2 0x693E JUMP JUMPDEST PUSH1 0x40 MLOAD DUP1 SWAP2 SUB SWAP1 RETURN JUMPDEST PUSH2 0x511 PUSH1 0x4 DUP1 CALLDATASIZE SUB DUP2 ADD SWAP1 PUSH2 0x50C SWAP2 SWAP1 PUSH2 0x6D96 JUMP JUMPDEST PUSH2 0x2171 JUMP JUMPDEST PUSH1 0x40 MLOAD PUSH2 0x51E SWAP2 SWAP1 PUSH2 0x693E JUMP JUMPDEST PUSH1 0x40 MLOAD DUP1 SWAP2 SUB SWAP1 RETURN JUMPDEST PUSH2 0x541 PUSH1 0x4 DUP1 CALLDATASIZE SUB DUP2 ADD SWAP1 PUSH2 0x53C SWAP2 SWAP1 PUSH2 0x6D96 JUMP JUMPDEST PUSH2 0x2216 JUMP JUMPDEST PUSH1 0x40 MLOAD PUSH2 0x54E SWAP2 SWAP1 PUSH2 0x693E JUMP JUMPDEST PUSH1 0x40 MLOAD DUP1 SWAP2 SUB SWAP1 RETURN JUMPDEST PUSH2 0x571 PUSH1 0x4 DUP1 CALLDATASIZE SUB DUP2 ADD SWAP1 PUSH2 0x56C SWAP2 SWAP1 PUSH2 0x6D96 JUMP JUMPDEST PUSH2 0x22F0 JUMP JUMPDEST PUSH1 0x40 MLOAD PUSH2 0x57E SWAP2 SWAP1 PUSH2 0x70CE JUMP JUMPDEST PUSH1 0x40 MLOAD DUP1 SWAP2 SUB SWAP1 RETURN JUMPDEST PUSH2 0x5A1 PUSH1 0x4 DUP1 CALLDATASIZE SUB DUP2 ADD SWAP1 PUSH2 0x59C SWAP2 SWAP1 PUSH2 0x6D96 JUMP JUMPDEST PUSH2 0x23E2 JUMP JUMPDEST PUSH1 0x40 MLOAD PUSH2 0x5AE SWAP2 SWAP1 PUSH2 0x6F62 JUMP JUMPDEST PUSH1 0x40 MLOAD DUP1 SWAP2 SUB SWAP1 RETURN JUMPDEST PUSH2 0x5D1 PUSH1 0x4 DUP1 CALLDATASIZE SUB DUP2 ADD SWAP1 PUSH2 0x5CC SWAP2 SWAP1 PUSH2 0x6D96 JUMP JUMPDEST PUSH2 0x24F5 JUMP JUMPDEST PUSH1 0x40 MLOAD PUSH2 0x5E7 SWAP11 SWAP10 SWAP9 SWAP8 SWAP7 SWAP6 SWAP5 SWAP4 SWAP3 SWAP2 SWAP1 PUSH2 0x7105 JUMP JUMPDEST PUSH1 0x40 MLOAD DUP1 SWAP2 SUB SWAP1 RETURN JUMPDEST PUSH2 0x5F8 PUSH2 0x27B3 JUMP JUMPDEST PUSH1 0x40 MLOAD PUSH2 0x605 SWAP2 SWAP1 PUSH2 0x71DB JUMP JUMPDEST PUSH1 0x40 MLOAD DUP1 SWAP2 SUB SWAP1 RETURN JUMPDEST PUSH2 0x628 PUSH1 0x4 DUP1 CALLDATASIZE SUB DUP2 ADD SWAP1 PUSH2 0x623 SWAP2 SWAP1 PUSH2 0x72E5 JUMP JUMPDEST PUSH2 0x27D8 JUMP JUMPDEST PUSH1 0x40 MLOAD PUSH2 0x635 SWAP2 SWAP1 PUSH2 0x693E JUMP JUMPDEST PUSH1 0x40 MLOAD DUP1 SWAP2 SUB SWAP1 RETURN JUMPDEST PUSH2 0x658 PUSH1 0x4 DUP1 CALLDATASIZE SUB DUP2 ADD SWAP1 PUSH2 0x653 SWAP2 SWAP1 PUSH2 0x6D96 JUMP JUMPDEST PUSH2 0x2D9E JUMP JUMPDEST PUSH1 0x40 MLOAD PUSH2 0x666 SWAP3 SWAP2 SWAP1 PUSH2 0x75B9 JUMP JUMPDEST PUSH1 0x40 MLOAD DUP1 SWAP2 SUB SWAP1 RETURN JUMPDEST PUSH2 0x689 PUSH1 0x4 DUP1 CALLDATASIZE SUB DUP2 ADD SWAP1 PUSH2 0x684 SWAP2 SWAP1 PUSH2 0x6D96 JUMP JUMPDEST PUSH2 0x34B2 JUMP JUMPDEST PUSH1 0x40 MLOAD PUSH2 0x696 SWAP2 SWAP1 PUSH2 0x693E JUMP JUMPDEST PUSH1 0x40 MLOAD DUP1 SWAP2 SUB SWAP1 RETURN JUMPDEST PUSH2 0x6B9 PUSH1 0x4 DUP1 CALLDATASIZE SUB DUP2 ADD SWAP1 PUSH2 0x6B4 SWAP2 SWAP1 PUSH2 0x6D96 JUMP JUMPDEST PUSH2 0x360A JUMP JUMPDEST PUSH1 0x40 MLOAD PUSH2 0x6CB SWAP7 SWAP6 SWAP5 SWAP4 SWAP3 SWAP2 SWAP1 PUSH2 0x75EE JUMP JUMPDEST PUSH1 0x40 MLOAD DUP1 SWAP2 SUB SWAP1 RETURN JUMPDEST PUSH2 0x6DC PUSH2 0x368A JUMP JUMPDEST PUSH1 0x40 MLOAD PUSH2 0x6EA SWAP3 SWAP2 SWAP1 PUSH2 0x75B9 JUMP JUMPDEST PUSH1 0x40 MLOAD DUP1 SWAP2 SUB SWAP1 RETURN JUMPDEST PUSH2 0x70D PUSH1 0x4 DUP1 CALLDATASIZE SUB DUP2 ADD SWAP1 PUSH2 0x708 SWAP2 SWAP1 PUSH2 0x6D96 JUMP JUMPDEST PUSH2 0x3D9D JUMP JUMPDEST PUSH1 0x40 MLOAD PUSH2 0x71A SWAP2 SWAP1 PUSH2 0x693E JUMP JUMPDEST PUSH1 0x40 MLOAD DUP1 SWAP2 SUB SWAP1 RETURN JUMPDEST PUSH2 0x72B PUSH2 0x3E77 JUMP JUMPDEST PUSH1 0x40 MLOAD PUSH2 0x738 SWAP2 SWAP1 PUSH2 0x6B63 JUMP JUMPDEST PUSH1 0x40 MLOAD DUP1 SWAP2 SUB SWAP1 RETURN JUMPDEST PUSH2 0x75B PUSH1 0x4 DUP1 CALLDATASIZE SUB DUP2 ADD SWAP1 PUSH2 0x756 SWAP2 SWAP1 PUSH2 0x6D96 JUMP JUMPDEST PUSH2 0x3E9A JUMP JUMPDEST PUSH1 0x40 MLOAD PUSH2 0x768 SWAP2 SWAP1 PUSH2 0x693E JUMP JUMPDEST PUSH1 0x40 MLOAD DUP1 SWAP2 SUB SWAP1 RETURN JUMPDEST PUSH2 0x78B PUSH1 0x4 DUP1 CALLDATASIZE SUB DUP2 ADD SWAP1 PUSH2 0x786 SWAP2 SWAP1 PUSH2 0x764D JUMP JUMPDEST PUSH2 0x41ED JUMP JUMPDEST PUSH1 0x40 MLOAD PUSH2 0x798 SWAP2 SWAP1 PUSH2 0x693E JUMP JUMPDEST PUSH1 0x40 MLOAD DUP1 SWAP2 SUB SWAP1 RETURN JUMPDEST PUSH2 0x7BB PUSH1 0x4 DUP1 CALLDATASIZE SUB DUP2 ADD SWAP1 PUSH2 0x7B6 SWAP2 SWAP1 PUSH2 0x6D96 JUMP JUMPDEST PUSH2 0x43BD JUMP JUMPDEST PUSH1 0x40 MLOAD PUSH2 0x7C8 SWAP2 SWAP1 PUSH2 0x693E JUMP JUMPDEST PUSH1 0x40 MLOAD DUP1 SWAP2 SUB SWAP1 RETURN JUMPDEST PUSH2 0x7EB PUSH1 0x4 DUP1 CALLDATASIZE SUB DUP2 ADD SWAP1 PUSH2 0x7E6 SWAP2 SWAP1 PUSH2 0x7774 JUMP JUMPDEST PUSH2 0x43DA JUMP JUMPDEST STOP JUMPDEST PUSH2 0x7F5 PUSH2 0x482D JUMP JUMPDEST PUSH1 0x40 MLOAD PUSH2 0x802 SWAP2 SWAP1 PUSH2 0x6C36 JUMP JUMPDEST PUSH1 0x40 MLOAD DUP1 SWAP2 SUB SWAP1 RETURN JUMPDEST PUSH2 0x825 PUSH1 0x4 DUP1 CALLDATASIZE SUB DUP2 ADD SWAP1 PUSH2 0x820 SWAP2 SWAP1 PUSH2 0x6B29 JUMP JUMPDEST PUSH2 0x48B9 JUMP JUMPDEST PUSH1 0x40 MLOAD PUSH2 0x832 SWAP2 SWAP1 PUSH2 0x6B63 JUMP JUMPDEST PUSH1 0x40 MLOAD DUP1 SWAP2 SUB SWAP1 RETURN JUMPDEST PUSH2 0x855 PUSH1 0x4 DUP1 CALLDATASIZE SUB DUP2 ADD SWAP1 PUSH2 0x850 SWAP2 SWAP1 PUSH2 0x6CE4 JUMP JUMPDEST PUSH2 0x48F4 JUMP JUMPDEST PUSH1 0x40 MLOAD PUSH2 0x864 SWAP4 SWAP3 SWAP2 SWAP1 PUSH2 0x786D JUMP JUMPDEST PUSH1 0x40 MLOAD DUP1 SWAP2 SUB SWAP1 RETURN JUMPDEST PUSH2 0x875 PUSH2 0x495F JUMP JUMPDEST PUSH1 0x40 MLOAD PUSH2 0x883 SWAP3 SWAP2 SWAP1 PUSH2 0x7AF1 JUMP JUMPDEST PUSH1 0x40 MLOAD DUP1 SWAP2 SUB SWAP1 RETURN JUMPDEST PUSH2 0x8A6 PUSH1 0x4 DUP1 CALLDATASIZE SUB DUP2 ADD SWAP1 PUSH2 0x8A1 SWAP2 SWAP1 PUSH2 0x6D96 JUMP JUMPDEST PUSH2 0x4EB9 JUMP JUMPDEST PUSH1 0x40 MLOAD PUSH2 0x8B3 SWAP2 SWAP1 PUSH2 0x693E JUMP JUMPDEST PUSH1 0x40 MLOAD DUP1 SWAP2 SUB SWAP1 RETURN JUMPDEST PUSH2 0x8D6 PUSH1 0x4 DUP1 CALLDATASIZE SUB DUP2 ADD SWAP1 PUSH2 0x8D1 SWAP2 SWAP1 PUSH2 0x764D JUMP JUMPDEST PUSH2 0x4F34 JUMP JUMPDEST PUSH1 0x40 MLOAD PUSH2 0x8E3 SWAP2 SWAP1 PUSH2 0x693E JUMP JUMPDEST PUSH1 0x40 MLOAD DUP1 SWAP2 SUB SWAP1 RETURN JUMPDEST PUSH2 0x8F4 PUSH2 0x5126 JUMP JUMPDEST PUSH1 0x40 MLOAD PUSH2 0x901 SWAP2 SWAP1 PUSH2 0x7B46 JUMP JUMPDEST PUSH1 0x40 MLOAD DUP1 SWAP2 SUB SWAP1 RETURN JUMPDEST PUSH2 0x924 PUSH1 0x4 DUP1 CALLDATASIZE SUB DUP2 ADD SWAP1 PUSH2 0x91F SWAP2 SWAP1 PUSH2 0x7C1F JUMP JUMPDEST PUSH2 0x514B JUMP JUMPDEST STOP JUMPDEST PUSH2 0x940 PUSH1 0x4 DUP1 CALLDATASIZE SUB DUP2 ADD SWAP1 PUSH2 0x93B SWAP2 SWAP1 PUSH2 0x7F27 JUMP JUMPDEST PUSH2 0x5928 JUMP JUMPDEST PUSH1 0x40 MLOAD PUSH2 0x94D SWAP2 SWAP1 PUSH2 0x693E JUMP JUMPDEST PUSH1 0x40 MLOAD DUP1 SWAP2 SUB SWAP1 RETURN JUMPDEST PUSH2 0x970 PUSH1 0x4 DUP1 CALLDATASIZE SUB DUP2 ADD SWAP1 PUSH2 0x96B SWAP2 SWAP1 PUSH2 0x6D96 JUMP JUMPDEST PUSH2 0x5CE6 JUMP JUMPDEST PUSH1 0x40 MLOAD PUSH2 0x97D SWAP2 SWAP1 PUSH2 0x6B63 JUMP JUMPDEST PUSH1 0x40 MLOAD DUP1 SWAP2 SUB SWAP1 RETURN JUMPDEST PUSH2 0x9A0 PUSH1 0x4 DUP1 CALLDATASIZE SUB DUP2 ADD SWAP1 PUSH2 0x99B SWAP2 SWAP1 PUSH2 0x7F9D JUMP JUMPDEST PUSH2 0x5D4E JUMP JUMPDEST STOP JUMPDEST PUSH2 0x9AA PUSH2 0x5F7F JUMP JUMPDEST PUSH1 0x40 MLOAD PUSH2 0x9B7 SWAP2 SWAP1 PUSH2 0x8029 JUMP JUMPDEST PUSH1 0x40 MLOAD DUP1 SWAP2 SUB SWAP1 RETURN JUMPDEST PUSH2 0x9DA PUSH1 0x4 DUP1 CALLDATASIZE SUB DUP2 ADD SWAP1 PUSH2 0x9D5 SWAP2 SWAP1 PUSH2 0x8042 JUMP JUMPDEST PUSH2 0x5FA4 JUMP JUMPDEST STOP JUMPDEST PUSH1 0x6 PUSH0 DUP4 PUSH20 0xFFFFFFFFFFFFFFFFFFFFFFFFFFFFFFFFFFFFFFFF AND PUSH20 0xFFFFFFFFFFFFFFFFFFFFFFFFFFFFFFFFFFFFFFFF AND DUP2 MSTORE PUSH1 0x20 ADD SWAP1 DUP2 MSTORE PUSH1 0x20 ADD PUSH0 KECCAK256 DUP2 SWAP1 DUP1 PUSH1 0x1 DUP2 SLOAD ADD DUP1 DUP3 SSTORE DUP1 SWAP2 POP POP PUSH1 0x1 SWAP1 SUB SWAP1 PUSH0 MSTORE PUSH1 0x20 PUSH0 KECCAK256 SWAP1 PUSH1 0x3 MUL ADD PUSH0 SWAP1 SWAP2 SWAP1 SWAP2 SWAP1 SWAP2 POP PUSH0 DUP3 ADD MLOAD DUP2 PUSH0 ADD PUSH0 PUSH2 0x100 EXP DUP2 SLOAD DUP2 PUSH1 0xFF MUL NOT AND SWAP1 DUP4 PUSH1 0xFF AND MUL OR SWAP1 SSTORE POP PUSH1 0x20 DUP3 ADD MLOAD DUP2 PUSH1 0x1 ADD SSTORE PUSH1 0x40 DUP3 ADD MLOAD DUP2 PUSH1 0x2 ADD PUSH0 PUSH2 0x100 EXP DUP2 SLOAD DUP2 PUSH20 0xFFFFFFFFFFFFFFFFFFFFFFFFFFFFFFFFFFFFFFFF MUL NOT AND SWAP1 DUP4 PUSH20 0xFFFFFFFFFFFFFFFFFFFFFFFFFFFFFFFFFFFFFFFF AND MUL OR SWAP1 SSTORE POP POP POP POP POP JUMP JUMPDEST PUSH0 PUSH1 0x3 PUSH0 CALLER PUSH20 0xFFFFFFFFFFFFFFFFFFFFFFFFFFFFFFFFFFFFFFFF AND PUSH20 0xFFFFFFFFFFFFFFFFFFFFFFFFFFFFFFFFFFFFFFFF AND DUP2 MSTORE PUSH1 0x20 ADD SWAP1 DUP2 MSTORE PUSH1 0x20 ADD PUSH0 KECCAK256 PUSH0 DUP1 DUP3 ADD PUSH0 PUSH2 0x100 EXP DUP2 SLOAD SWAP1 PUSH20 0xFFFFFFFFFFFFFFFFFFFFFFFFFFFFFFFFFFFFFFFF MUL NOT AND SWAP1 SSTORE PUSH1 0x1 DUP3 ADD PUSH0 PUSH2 0xB27 SWAP2 SWAP1 PUSH2 0x657D JUMP JUMPDEST PUSH1 0x2 DUP3 ADD PUSH0 PUSH2 0xB36 SWAP2 SWAP1 PUSH2 0x657D JUMP JUMPDEST PUSH1 0x3 DUP3 ADD PUSH0 PUSH2 0x100 EXP DUP2 SLOAD SWAP1 PUSH1 0xFF MUL NOT AND SWAP1 SSTORE PUSH1 0x4 DUP3 ADD PUSH0 SWAP1 SSTORE PUSH1 0x5 DUP3 ADD PUSH0 PUSH2 0xB5F SWAP2 SWAP1 PUSH2 0x657D JUMP JUMPDEST PUSH1 0x6 DUP3 ADD PUSH0 PUSH2 0xB6E SWAP2 SWAP1 PUSH2 0x657D JUMP JUMPDEST PUSH1 0x7 DUP3 ADD PUSH0 PUSH2 0x100 EXP DUP2 SLOAD SWAP1 PUSH1 0xFF MUL NOT AND SWAP1 SSTORE PUSH1 0x8 DUP3 ADD PUSH0 SWAP1 SSTORE PUSH1 0x9 DUP3 ADD PUSH0 PUSH2 0x100 EXP DUP2 SLOAD SWAP1 PUSH20 0xFFFFFFFFFFFFFFFFFFFFFFFFFFFFFFFFFFFFFFFF MUL NOT AND SWAP1 SSTORE POP POP PUSH1 0x4 PUSH0 CALLER PUSH20 0xFFFFFFFFFFFFFFFFFFFFFFFFFFFFFFFFFFFFFFFF AND PUSH20 0xFFFFFFFFFFFFFFFFFFFFFFFFFFFFFFFFFFFFFFFF AND DUP2 MSTORE PUSH1 0x20 ADD SWAP1 DUP2 MSTORE PUSH1 0x20 ADD PUSH0 KECCAK256 PUSH0 PUSH2 0xBF8 SWAP2 SWAP1 PUSH2 0x65BA JUMP JUMPDEST PUSH0 JUMPDEST PUSH1 0x7 DUP1 SLOAD SWAP1 POP DUP2 LT ISZERO PUSH2 0xD6D JUMPI CALLER PUSH20 0xFFFFFFFFFFFFFFFFFFFFFFFFFFFFFFFFFFFFFFFF AND PUSH1 0x7 DUP3 DUP2 SLOAD DUP2 LT PUSH2 0xC32 JUMPI PUSH2 0xC31 PUSH2 0x8092 JUMP JUMPDEST JUMPDEST SWAP1 PUSH0 MSTORE PUSH1 0x20 PUSH0 KECCAK256 ADD PUSH0 SWAP1 SLOAD SWAP1 PUSH2 0x100 EXP SWAP1 DIV PUSH20 0xFFFFFFFFFFFFFFFFFFFFFFFFFFFFFFFFFFFFFFFF AND PUSH20 0xFFFFFFFFFFFFFFFFFFFFFFFFFFFFFFFFFFFFFFFF AND SUB PUSH2 0xD60 JUMPI PUSH1 0x7 PUSH1 0x1 PUSH1 0x7 DUP1 SLOAD SWAP1 POP PUSH2 0xC89 SWAP2 SWAP1 PUSH2 0x80EC JUMP JUMPDEST DUP2 SLOAD DUP2 LT PUSH2 0xC9A JUMPI PUSH2 0xC99 PUSH2 0x8092 JUMP JUMPDEST JUMPDEST SWAP1 PUSH0 MSTORE PUSH1 0x20 PUSH0 KECCAK256 ADD PUSH0 SWAP1 SLOAD SWAP1 PUSH2 0x100 EXP SWAP1 DIV PUSH20 0xFFFFFFFFFFFFFFFFFFFFFFFFFFFFFFFFFFFFFFFF AND PUSH1 0x7 DUP3 DUP2 SLOAD DUP2 LT PUSH2 0xCD6 JUMPI PUSH2 0xCD5 PUSH2 0x8092 JUMP JUMPDEST JUMPDEST SWAP1 PUSH0 MSTORE PUSH1 0x20 PUSH0 KECCAK256 ADD PUSH0 PUSH2 0x100 EXP DUP2 SLOAD DUP2 PUSH20 0xFFFFFFFFFFFFFFFFFFFFFFFFFFFFFFFFFFFFFFFF MUL NOT AND SWAP1 DUP4 PUSH20 0xFFFFFFFFFFFFFFFFFFFFFFFFFFFFFFFFFFFFFFFF AND MUL OR SWAP1 SSTORE POP PUSH1 0x7 DUP1 SLOAD DUP1 PUSH2 0xD2D JUMPI PUSH2 0xD2C PUSH2 0x811F JUMP JUMPDEST JUMPDEST PUSH1 0x1 SWAP1 SUB DUP2 DUP2 SWAP1 PUSH0 MSTORE PUSH1 0x20 PUSH0 KECCAK256 ADD PUSH0 PUSH2 0x100 EXP DUP2 SLOAD SWAP1 PUSH20 0xFFFFFFFFFFFFFFFFFFFFFFFFFFFFFFFFFFFFFFFF MUL NOT AND SWAP1 SSTORE SWAP1 SSTORE JUMPDEST DUP1 DUP1 PUSH1 0x1 ADD SWAP2 POP POP PUSH2 0xBFA JUMP JUMPDEST POP PUSH1 0x1 SWAP1 POP SWAP1 JUMP JUMPDEST PUSH0 DUP3 DUP3 PUSH1 0x3 PUSH0 CALLER PUSH20 0xFFFFFFFFFFFFFFFFFFFFFFFFFFFFFFFFFFFFFFFF AND PUSH20 0xFFFFFFFFFFFFFFFFFFFFFFFFFFFFFFFFFFFFFFFF AND DUP2 MSTORE PUSH1 0x20 ADD SWAP1 DUP2 MSTORE PUSH1 0x20 ADD PUSH0 KECCAK256 PUSH1 0x6 ADD SWAP2 DUP3 PUSH2 0xDC5 SWAP3 SWAP2 SWAP1 PUSH2 0x8347 JUMP JUMPDEST POP PUSH1 0x1 SWAP1 POP SWAP3 SWAP2 POP POP JUMP JUMPDEST PUSH0 DUP1 PUSH0 SWAP1 SLOAD SWAP1 PUSH2 0x100 EXP SWAP1 DIV PUSH20 0xFFFFFFFFFFFFFFFFFFFFFFFFFFFFFFFFFFFFFFFF AND DUP1 PUSH20 0xFFFFFFFFFFFFFFFFFFFFFFFFFFFFFFFFFFFFFFFF AND CALLER PUSH20 0xFFFFFFFFFFFFFFFFFFFFFFFFFFFFFFFFFFFFFFFF AND EQ PUSH2 0xE60 JUMPI PUSH1 0x40 MLOAD PUSH32 0x8C379A000000000000000000000000000000000000000000000000000000000 DUP2 MSTORE PUSH1 0x4 ADD PUSH2 0xE57 SWAP1 PUSH2 0x84AA JUMP JUMPDEST PUSH1 0x40 MLOAD DUP1 SWAP2 SUB SWAP1 REVERT JUMPDEST PUSH1 0x2 DUP1 DUP2 GT ISZERO PUSH2 0xE73 JUMPI PUSH2 0xE72 PUSH2 0x6DC1 JUMP JUMPDEST JUMPDEST PUSH1 0x3 PUSH0 CALLER PUSH20 0xFFFFFFFFFFFFFFFFFFFFFFFFFFFFFFFFFFFFFFFF AND PUSH20 0xFFFFFFFFFFFFFFFFFFFFFFFFFFFFFFFFFFFFFFFF AND DUP2 MSTORE PUSH1 0x20 ADD SWAP1 DUP2 MSTORE PUSH1 0x20 ADD PUSH0 KECCAK256 PUSH1 0x7 ADD PUSH0 SWAP1 SLOAD SWAP1 PUSH2 0x100 EXP SWAP1 DIV PUSH1 0xFF AND PUSH1 0x2 DUP2 GT ISZERO PUSH2 0xED2 JUMPI PUSH2 0xED1 PUSH2 0x6DC1 JUMP JUMPDEST JUMPDEST SUB PUSH2 0xF12 JUMPI PUSH1 0x40 MLOAD PUSH32 0x8C379A000000000000000000000000000000000000000000000000000000000 DUP2 MSTORE PUSH1 0x4 ADD PUSH2 0xF09 SWAP1 PUSH2 0x855E JUMP JUMPDEST PUSH1 0x40 MLOAD DUP1 SWAP2 SUB SWAP1 REVERT JUMPDEST PUSH32 0xF59B872B58A4B9C40138EF35EA4F4F2EF4210F22BE84A47A65205B6779E6FE88 DUP5 CALLER DUP6 PUSH1 0x40 MLOAD PUSH2 0xF45 SWAP4 SWAP3 SWAP2 SWAP1 PUSH2 0x857C JUMP JUMPDEST PUSH1 0x40 MLOAD DUP1 SWAP2 SUB SWAP1 LOG1 DUP4 PUSH1 0x3 PUSH0 CALLER PUSH20 0xFFFFFFFFFFFFFFFFFFFFFFFFFFFFFFFFFFFFFFFF AND PUSH20 0xFFFFFFFFFFFFFFFFFFFFFFFFFFFFFFFFFFFFFFFF AND DUP2 MSTORE PUSH1 0x20 ADD SWAP1 DUP2 MSTORE PUSH1 0x20 ADD PUSH0 KECCAK256 PUSH1 0x1 ADD SWAP1 DUP2 PUSH2 0xF9A SWAP2 SWAP1 PUSH2 0x85BF JUMP JUMPDEST POP DUP3 PUSH1 0x3 PUSH0 CALLER PUSH20 0xFFFFFFFFFFFFFFFFFFFFFFFFFFFFFFFFFFFFFFFF AND PUSH20 0xFFFFFFFFFFFFFFFFFFFFFFFFFFFFFFFFFFFFFFFF AND DUP2 MSTORE PUSH1 0x20 ADD SWAP1 DUP2 MSTORE PUSH1 0x20 ADD PUSH0 KECCAK256 PUSH1 0x5 ADD SWAP1 DUP2 PUSH2 0xFE8 SWAP2 SWAP1 PUSH2 0x85BF JUMP JUMPDEST POP PUSH1 0x2 PUSH1 0x3 PUSH0 CALLER PUSH20 0xFFFFFFFFFFFFFFFFFFFFFFFFFFFFFFFFFFFFFFFF AND PUSH20 0xFFFFFFFFFFFFFFFFFFFFFFFFFFFFFFFFFFFFFFFF AND DUP2 MSTORE PUSH1 0x20 ADD SWAP1 DUP2 MSTORE PUSH1 0x20 ADD PUSH0 KECCAK256 PUSH1 0x7 ADD PUSH0 PUSH2 0x100 EXP DUP2 SLOAD DUP2 PUSH1 0xFF MUL NOT AND SWAP1 DUP4 PUSH1 0x2 DUP2 GT ISZERO PUSH2 0x104C JUMPI PUSH2 0x104B PUSH2 0x6DC1 JUMP JUMPDEST JUMPDEST MUL OR SWAP1 SSTORE POP CALLER PUSH1 0x3 PUSH0 CALLER PUSH20 0xFFFFFFFFFFFFFFFFFFFFFFFFFFFFFFFFFFFFFFFF AND PUSH20 0xFFFFFFFFFFFFFFFFFFFFFFFFFFFFFFFFFFFFFFFF AND DUP2 MSTORE PUSH1 0x20 ADD SWAP1 DUP2 MSTORE PUSH1 0x20 ADD PUSH0 KECCAK256 PUSH0 ADD PUSH0 PUSH2 0x100 EXP DUP2 SLOAD DUP2 PUSH20 0xFFFFFFFFFFFFFFFFFFFFFFFFFFFFFFFFFFFFFFFF MUL NOT AND SWAP1 DUP4 PUSH20 0xFFFFFFFFFFFFFFFFFFFFFFFFFFFFFFFFFFFFFFFF AND MUL OR SWAP1 SSTORE POP TIMESTAMP PUSH1 0x3 PUSH0 CALLER PUSH20 0xFFFFFFFFFFFFFFFFFFFFFFFFFFFFFFFFFFFFFFFF AND PUSH20 0xFFFFFFFFFFFFFFFFFFFFFFFFFFFFFFFFFFFFFFFF AND DUP2 MSTORE PUSH1 0x20 ADD SWAP1 DUP2 MSTORE PUSH1 0x20 ADD PUSH0 KECCAK256 PUSH1 0x8 ADD DUP2 SWAP1 SSTORE POP PUSH1 0x7 CALLER SWAP1 DUP1 PUSH1 0x1 DUP2 SLOAD ADD DUP1 DUP3 SSTORE DUP1 SWAP2 POP POP PUSH1 0x1 SWAP1 SUB SWAP1 PUSH0 MSTORE PUSH1 0x20 PUSH0 KECCAK256 ADD PUSH0 SWAP1 SWAP2 SWAP1 SWAP2 SWAP1 SWAP2 PUSH2 0x100 EXP DUP2 SLOAD DUP2 PUSH20 0xFFFFFFFFFFFFFFFFFFFFFFFFFFFFFFFFFFFFFFFF MUL NOT AND SWAP1 DUP4 PUSH20 0xFFFFFFFFFFFFFFFFFFFFFFFFFFFFFFFFFFFFFFFF AND MUL OR SWAP1 SSTORE POP PUSH1 0x1 SWAP2 POP POP SWAP3 SWAP2 POP POP JUMP JUMPDEST PUSH1 0x2 DUP2 DUP2 SLOAD DUP2 LT PUSH2 0x118D JUMPI PUSH0 DUP1 REVERT JUMPDEST SWAP1 PUSH0 MSTORE PUSH1 0x20 PUSH0 KECCAK256 ADD PUSH0 SWAP2 POP SLOAD SWAP1 PUSH2 0x100 EXP SWAP1 DIV PUSH20 0xFFFFFFFFFFFFFFFFFFFFFFFFFFFFFFFFFFFFFFFF AND DUP2 JUMP JUMPDEST PUSH1 0x60 PUSH0 PUSH2 0x11C5 DUP5 PUSH2 0x61D5 JUMP JUMPDEST SWAP1 POP DUP1 DUP4 PUSH1 0x40 MLOAD PUSH1 0x20 ADD PUSH2 0x11DA SWAP3 SWAP2 SWAP1 PUSH2 0x883A JUMP JUMPDEST PUSH1 0x40 MLOAD PUSH1 0x20 DUP2 DUP4 SUB SUB DUP2 MSTORE SWAP1 PUSH1 0x40 MSTORE SWAP2 POP POP SWAP3 SWAP2 POP POP JUMP JUMPDEST PUSH0 PUSH1 0x1 PUSH1 0x2 DUP2 GT ISZERO PUSH2 0x1207 JUMPI PUSH2 0x1206 PUSH2 0x6DC1 JUMP JUMPDEST JUMPDEST PUSH1 0x3 PUSH0 CALLER PUSH20 0xFFFFFFFFFFFFFFFFFFFFFFFFFFFFFFFFFFFFFFFF AND PUSH20 0xFFFFFFFFFFFFFFFFFFFFFFFFFFFFFFFFFFFFFFFF AND DUP2 MSTORE PUSH1 0x20 ADD SWAP1 DUP2 MSTORE PUSH1 0x20 ADD PUSH0 KECCAK256 PUSH1 0x7 ADD PUSH0 SWAP1 SLOAD SWAP1 PUSH2 0x100 EXP SWAP1 DIV PUSH1 0xFF AND PUSH1 0x2 DUP2 GT ISZERO PUSH2 0x1266 JUMPI PUSH2 0x1265 PUSH2 0x6DC1 JUMP JUMPDEST JUMPDEST EQ PUSH2 0x12A6 JUMPI PUSH1 0x40 MLOAD PUSH32 0x8C379A000000000000000000000000000000000000000000000000000000000 DUP2 MSTORE PUSH1 0x4 ADD PUSH2 0x129D SWAP1 PUSH2 0x892A JUMP JUMPDEST PUSH1 0x40 MLOAD DUP1 SWAP2 SUB SWAP1 REVERT JUMPDEST PUSH1 0x40 MLOAD DUP1 PUSH1 0xC0 ADD PUSH1 0x40 MSTORE DUP1 DUP7 ISZERO ISZERO DUP2 MSTORE PUSH1 0x20 ADD DUP6 ISZERO ISZERO DUP2 MSTORE PUSH1 0x20 ADD DUP5 ISZERO ISZERO DUP2 MSTORE PUSH1 0x20 ADD DUP4 ISZERO ISZERO DUP2 MSTORE PUSH1 0x20 ADD PUSH0 ISZERO ISZERO DUP2 MSTORE PUSH1 0x20 ADD PUSH0 ISZERO ISZERO DUP2 MSTORE POP PUSH1 0x5 PUSH0 CALLER PUSH20 0xFFFFFFFFFFFFFFFFFFFFFFFFFFFFFFFFFFFFFFFF AND PUSH20 0xFFFFFFFFFFFFFFFFFFFFFFFFFFFFFFFFFFFFFFFF AND DUP2 MSTORE PUSH1 0x20 ADD SWAP1 DUP2 MSTORE PUSH1 0x20 ADD PUSH0 KECCAK256 PUSH0 DUP3 ADD MLOAD DUP2 PUSH0 ADD PUSH0 PUSH2 0x100 EXP DUP2 SLOAD DUP2 PUSH1 0xFF MUL NOT AND SWAP1 DUP4 ISZERO ISZERO MUL OR SWAP1 SSTORE POP PUSH1 0x20 DUP3 ADD MLOAD DUP2 PUSH0 ADD PUSH1 0x1 PUSH2 0x100 EXP DUP2 SLOAD DUP2 PUSH1 0xFF MUL NOT AND SWAP1 DUP4 ISZERO ISZERO MUL OR SWAP1 SSTORE POP PUSH1 0x40 DUP3 ADD MLOAD DUP2 PUSH0 ADD PUSH1 0x2 PUSH2 0x100 EXP DUP2 SLOAD DUP2 PUSH1 0xFF MUL NOT AND SWAP1 DUP4 ISZERO ISZERO MUL OR SWAP1 SSTORE POP PUSH1 0x60 DUP3 ADD MLOAD DUP2 PUSH0 ADD PUSH1 0x3 PUSH2 0x100 EXP DUP2 SLOAD DUP2 PUSH1 0xFF MUL NOT AND SWAP1 DUP4 ISZERO ISZERO MUL OR SWAP1 SSTORE POP PUSH1 0x80 DUP3 ADD MLOAD DUP2 PUSH0 ADD PUSH1 0x4 PUSH2 0x100 EXP DUP2 SLOAD DUP2 PUSH1 0xFF MUL NOT AND SWAP1 DUP4 ISZERO ISZERO MUL OR SWAP1 SSTORE POP PUSH1 0xA0 DUP3 ADD MLOAD DUP2 PUSH0 ADD PUSH1 0x5 PUSH2 0x100 EXP DUP2 SLOAD DUP2 PUSH1 0xFF MUL NOT AND SWAP1 DUP4 ISZERO ISZERO MUL OR SWAP1 SSTORE POP SWAP1 POP POP PUSH1 0x1 SWAP1 POP SWAP5 SWAP4 POP POP POP POP JUMP JUMPDEST PUSH1 0x4 PUSH1 0x20 MSTORE DUP2 PUSH0 MSTORE PUSH1 0x40 PUSH0 KECCAK256 DUP2 DUP2 SLOAD DUP2 LT PUSH2 0x13FC JUMPI PUSH0 DUP1 REVERT JUMPDEST SWAP1 PUSH0 MSTORE PUSH1 0x20 PUSH0 KECCAK256 SWAP1 PUSH1 0x5 MUL ADD PUSH0 SWAP2 POP SWAP2 POP POP DUP1 PUSH0 ADD DUP1 SLOAD PUSH2 0x141C SWAP1 PUSH2 0x8183 JUMP JUMPDEST DUP1 PUSH1 0x1F ADD PUSH1 0x20 DUP1 SWAP2 DIV MUL PUSH1 0x20 ADD PUSH1 0x40 MLOAD SWAP1 DUP2 ADD PUSH1 0x40 MSTORE DUP1 SWAP3 SWAP2 SWAP1 DUP2 DUP2 MSTORE PUSH1 0x20 ADD DUP3 DUP1 SLOAD PUSH2 0x1448 SWAP1 PUSH2 0x8183 JUMP JUMPDEST DUP1 ISZERO PUSH2 0x1493 JUMPI DUP1 PUSH1 0x1F LT PUSH2 0x146A JUMPI PUSH2 0x100 DUP1 DUP4 SLOAD DIV MUL DUP4 MSTORE SWAP2 PUSH1 0x20 ADD SWAP2 PUSH2 0x1493 JUMP JUMPDEST DUP3 ADD SWAP2 SWAP1 PUSH0 MSTORE PUSH1 0x20 PUSH0 KECCAK256 SWAP1 JUMPDEST DUP2 SLOAD DUP2 MSTORE SWAP1 PUSH1 0x1 ADD SWAP1 PUSH1 0x20 ADD DUP1 DUP4 GT PUSH2 0x1476 JUMPI DUP3 SWAP1 SUB PUSH1 0x1F AND DUP3 ADD SWAP2 JUMPDEST POP POP POP POP POP SWAP1 DUP1 PUSH1 0x1 ADD DUP1 SLOAD PUSH2 0x14A8 SWAP1 PUSH2 0x8183 JUMP JUMPDEST DUP1 PUSH1 0x1F ADD PUSH1 0x20 DUP1 SWAP2 DIV MUL PUSH1 0x20 ADD PUSH1 0x40 MLOAD SWAP1 DUP2 ADD PUSH1 0x40 MSTORE DUP1 SWAP3 SWAP2 SWAP1 DUP2 DUP2 MSTORE PUSH1 0x20 ADD DUP3 DUP1 SLOAD PUSH2 0x14D4 SWAP1 PUSH2 0x8183 JUMP JUMPDEST DUP1 ISZERO PUSH2 0x151F JUMPI DUP1 PUSH1 0x1F LT PUSH2 0x14F6 JUMPI PUSH2 0x100 DUP1 DUP4 SLOAD DIV MUL DUP4 MSTORE SWAP2 PUSH1 0x20 ADD SWAP2 PUSH2 0x151F JUMP JUMPDEST DUP3 ADD SWAP2 SWAP1 PUSH0 MSTORE PUSH1 0x20 PUSH0 KECCAK256 SWAP1 JUMPDEST DUP2 SLOAD DUP2 MSTORE SWAP1 PUSH1 0x1 ADD SWAP1 PUSH1 0x20 ADD DUP1 DUP4 GT PUSH2 0x1502 JUMPI DUP3 SWAP1 SUB PUSH1 0x1F AND DUP3 ADD SWAP2 JUMPDEST POP POP POP POP POP SWAP1 DUP1 PUSH1 0x2 ADD DUP1 SLOAD PUSH2 0x1534 SWAP1 PUSH2 0x8183 JUMP JUMPDEST DUP1 PUSH1 0x1F ADD PUSH1 0x20 DUP1 SWAP2 DIV MUL PUSH1 0x20 ADD PUSH1 0x40 MLOAD SWAP1 DUP2 ADD PUSH1 0x40 MSTORE DUP1 SWAP3 SWAP2 SWAP1 DUP2 DUP2 MSTORE PUSH1 0x20 ADD DUP3 DUP1 SLOAD PUSH2 0x1560 SWAP1 PUSH2 0x8183 JUMP JUMPDEST DUP1 ISZERO PUSH2 0x15AB JUMPI DUP1 PUSH1 0x1F LT PUSH2 0x1582 JUMPI PUSH2 0x100 DUP1 DUP4 SLOAD DIV MUL DUP4 MSTORE SWAP2 PUSH1 0x20 ADD SWAP2 PUSH2 0x15AB JUMP JUMPDEST DUP3 ADD SWAP2 SWAP1 PUSH0 MSTORE PUSH1 0x20 PUSH0 KECCAK256 SWAP1 JUMPDEST DUP2 SLOAD DUP2 MSTORE SWAP1 PUSH1 0x1 ADD SWAP1 PUSH1 0x20 ADD DUP1 DUP4 GT PUSH2 0x158E JUMPI DUP3 SWAP1 SUB PUSH1 0x1F AND DUP3 ADD SWAP2 JUMPDEST POP POP POP POP POP SWAP1 DUP1 PUSH1 0x3 ADD DUP1 SLOAD PUSH2 0x15C0 SWAP1 PUSH2 0x8183 JUMP JUMPDEST DUP1 PUSH1 0x1F ADD PUSH1 0x20 DUP1 SWAP2 DIV MUL PUSH1 0x20 ADD PUSH1 0x40 MLOAD SWAP1 DUP2 ADD PUSH1 0x40 MSTORE DUP1 SWAP3 SWAP2 SWAP1 DUP2 DUP2 MSTORE PUSH1 0x20 ADD DUP3 DUP1 SLOAD PUSH2 0x15EC SWAP1 PUSH2 0x8183 JUMP JUMPDEST DUP1 ISZERO PUSH2 0x1637 JUMPI DUP1 PUSH1 0x1F LT PUSH2 0x160E JUMPI PUSH2 0x100 DUP1 DUP4 SLOAD DIV MUL DUP4 MSTORE SWAP2 PUSH1 0x20 ADD SWAP2 PUSH2 0x1637 JUMP JUMPDEST DUP3 ADD SWAP2 SWAP1 PUSH0 MSTORE PUSH1 0x20 PUSH0 KECCAK256 SWAP1 JUMPDEST DUP2 SLOAD DUP2 MSTORE SWAP1 PUSH1 0x1 ADD SWAP1 PUSH1 0x20 ADD DUP1 DUP4 GT PUSH2 0x161A JUMPI DUP3 SWAP1 SUB PUSH1 0x1F AND DUP3 ADD SWAP2 JUMPDEST POP POP POP POP POP SWAP1 DUP1 PUSH1 0x4 ADD DUP1 SLOAD PUSH2 0x164C SWAP1 PUSH2 0x8183 JUMP JUMPDEST DUP1 PUSH1 0x1F ADD PUSH1 0x20 DUP1 SWAP2 DIV MUL PUSH1 0x20 ADD PUSH1 0x40 MLOAD SWAP1 DUP2 ADD PUSH1 0x40 MSTORE DUP1 SWAP3 SWAP2 SWAP1 DUP2 DUP2 MSTORE PUSH1 0x20 ADD DUP3 DUP1 SLOAD PUSH2 0x1678 SWAP1 PUSH2 0x8183 JUMP JUMPDEST DUP1 ISZERO PUSH2 0x16C3 JUMPI DUP1 PUSH1 0x1F LT PUSH2 0x169A JUMPI PUSH2 0x100 DUP1 DUP4 SLOAD DIV MUL DUP4 MSTORE SWAP2 PUSH1 0x20 ADD SWAP2 PUSH2 0x16C3 JUMP JUMPDEST DUP3 ADD SWAP2 SWAP1 PUSH0 MSTORE PUSH1 0x20 PUSH0 KECCAK256 SWAP1 JUMPDEST DUP2 SLOAD DUP2 MSTORE SWAP1 PUSH1 0x1 ADD SWAP1 PUSH1 0x20 ADD DUP1 DUP4 GT PUSH2 0x16A6 JUMPI DUP3 SWAP1 SUB PUSH1 0x1F AND DUP3 ADD SWAP2 JUMPDEST POP POP POP POP POP SWAP1 POP DUP6 JUMP JUMPDEST PUSH0 DUP1 PUSH20 0xFFFFFFFFFFFFFFFFFFFFFFFFFFFFFFFFFFFFFFFF AND PUSH1 0x3 PUSH0 CALLER PUSH20 0xFFFFFFFFFFFFFFFFFFFFFFFFFFFFFFFFFFFFFFFF AND PUSH20 0xFFFFFFFFFFFFFFFFFFFFFFFFFFFFFFFFFFFFFFFF AND DUP2 MSTORE PUSH1 0x20 ADD SWAP1 DUP2 MSTORE PUSH1 0x20 ADD PUSH0 KECCAK256 PUSH0 ADD PUSH0 SWAP1 SLOAD SWAP1 PUSH2 0x100 EXP SWAP1 DIV PUSH20 0xFFFFFFFFFFFFFFFFFFFFFFFFFFFFFFFFFFFFFFFF AND PUSH20 0xFFFFFFFFFFFFFFFFFFFFFFFFFFFFFFFFFFFFFFFF AND EQ ISZERO PUSH2 0x179C PUSH1 0x2 PUSH1 0x40 MLOAD DUP1 PUSH1 0x40 ADD PUSH1 0x40 MSTORE DUP1 PUSH1 0x1E DUP2 MSTORE PUSH1 0x20 ADD PUSH32 0x55736572206D75737420726567697374657220746F2067657420726F6C650000 DUP2 MSTORE POP PUSH2 0x11B9 JUMP JUMPDEST SWAP1 PUSH2 0x17DD JUMPI PUSH1 0x40 MLOAD PUSH32 0x8C379A000000000000000000000000000000000000000000000000000000000 DUP2 MSTORE PUSH1 0x4 ADD PUSH2 0x17D4 SWAP2 SWAP1 PUSH2 0x6C36 JUMP JUMPDEST PUSH1 0x40 MLOAD DUP1 SWAP2 SUB SWAP1 REVERT JUMPDEST POP PUSH1 0x3 PUSH0 DUP4 PUSH20 0xFFFFFFFFFFFFFFFFFFFFFFFFFFFFFFFFFFFFFFFF AND PUSH20 0xFFFFFFFFFFFFFFFFFFFFFFFFFFFFFFFFFFFFFFFF AND DUP2 MSTORE PUSH1 0x20 ADD SWAP1 DUP2 MSTORE PUSH1 0x20 ADD PUSH0 KECCAK256 PUSH1 0x7 ADD PUSH0 SWAP1 SLOAD SWAP1 PUSH2 0x100 EXP SWAP1 DIV PUSH1 0xFF AND SWAP1 POP SWAP2 SWAP1 POP JUMP JUMPDEST PUSH0 DUP1 PUSH0 SWAP1 SLOAD SWAP1 PUSH2 0x100 EXP SWAP1 DIV PUSH20 0xFFFFFFFFFFFFFFFFFFFFFFFFFFFFFFFFFFFFFFFF AND DUP1 PUSH20 0xFFFFFFFFFFFFFFFFFFFFFFFFFFFFFFFFFFFFFFFF AND CALLER PUSH20 0xFFFFFFFFFFFFFFFFFFFFFFFFFFFFFFFFFFFFFFFF AND EQ PUSH2 0x18C2 JUMPI PUSH1 0x40 MLOAD PUSH32 0x8C379A000000000000000000000000000000000000000000000000000000000 DUP2 MSTORE PUSH1 0x4 ADD PUSH2 0x18B9 SWAP1 PUSH2 0x84AA JUMP JUMPDEST PUSH1 0x40 MLOAD DUP1 SWAP2 SUB SWAP1 REVERT JUMPDEST PUSH0 PUSH1 0x1 PUSH0 DUP6 PUSH20 0xFFFFFFFFFFFFFFFFFFFFFFFFFFFFFFFFFFFFFFFF AND PUSH20 0xFFFFFFFFFFFFFFFFFFFFFFFFFFFFFFFFFFFFFFFF AND DUP2 MSTORE PUSH1 0x20 ADD SWAP1 DUP2 MSTORE PUSH1 0x20 ADD PUSH0 KECCAK256 PUSH0 PUSH2 0x100 EXP DUP2 SLOAD DUP2 PUSH1 0xFF MUL NOT AND SWAP1 DUP4 ISZERO ISZERO MUL OR SWAP1 SSTORE POP PUSH0 JUMPDEST PUSH1 0x2 DUP1 SLOAD SWAP1 POP DUP2 LT ISZERO PUSH2 0x1A8F JUMPI DUP4 PUSH20 0xFFFFFFFFFFFFFFFFFFFFFFFFFFFFFFFFFFFFFFFF AND PUSH1 0x2 DUP3 DUP2 SLOAD DUP2 LT PUSH2 0x1950 JUMPI PUSH2 0x194F PUSH2 0x8092 JUMP JUMPDEST JUMPDEST SWAP1 PUSH0 MSTORE PUSH1 0x20 PUSH0 KECCAK256 ADD PUSH0 SWAP1 SLOAD SWAP1 PUSH2 0x100 EXP SWAP1 DIV PUSH20 0xFFFFFFFFFFFFFFFFFFFFFFFFFFFFFFFFFFFFFFFF AND PUSH20 0xFFFFFFFFFFFFFFFFFFFFFFFFFFFFFFFFFFFFFFFF AND SUB PUSH2 0x1A82 JUMPI PUSH1 0x2 PUSH1 0x1 PUSH1 0x2 DUP1 SLOAD SWAP1 POP PUSH2 0x19A7 SWAP2 SWAP1 PUSH2 0x80EC JUMP JUMPDEST DUP2 SLOAD DUP2 LT PUSH2 0x19B8 JUMPI PUSH2 0x19B7 PUSH2 0x8092 JUMP JUMPDEST JUMPDEST SWAP1 PUSH0 MSTORE PUSH1 0x20 PUSH0 KECCAK256 ADD PUSH0 SWAP1 SLOAD SWAP1 PUSH2 0x100 EXP SWAP1 DIV PUSH20 0xFFFFFFFFFFFFFFFFFFFFFFFFFFFFFFFFFFFFFFFF AND PUSH1 0x2 DUP3 DUP2 SLOAD DUP2 LT PUSH2 0x19F4 JUMPI PUSH2 0x19F3 PUSH2 0x8092 JUMP JUMPDEST JUMPDEST SWAP1 PUSH0 MSTORE PUSH1 0x20 PUSH0 KECCAK256 ADD PUSH0 PUSH2 0x100 EXP DUP2 SLOAD DUP2 PUSH20 0xFFFFFFFFFFFFFFFFFFFFFFFFFFFFFFFFFFFFFFFF MUL NOT AND SWAP1 DUP4 PUSH20 0xFFFFFFFFFFFFFFFFFFFFFFFFFFFFFFFFFFFFFFFF AND MUL OR SWAP1 SSTORE POP PUSH1 0x2 DUP1 SLOAD DUP1 PUSH2 0x1A4B JUMPI PUSH2 0x1A4A PUSH2 0x811F JUMP JUMPDEST JUMPDEST PUSH1 0x1 SWAP1 SUB DUP2 DUP2 SWAP1 PUSH0 MSTORE PUSH1 0x20 PUSH0 KECCAK256 ADD PUSH0 PUSH2 0x100 EXP DUP2 SLOAD SWAP1 PUSH20 0xFFFFFFFFFFFFFFFFFFFFFFFFFFFFFFFFFFFFFFFF MUL NOT AND SWAP1 SSTORE SWAP1 SSTORE PUSH2 0x1A8F JUMP JUMPDEST DUP1 DUP1 PUSH1 0x1 ADD SWAP2 POP POP PUSH2 0x1918 JUMP JUMPDEST POP PUSH1 0x1 SWAP2 POP POP SWAP2 SWAP1 POP JUMP JUMPDEST PUSH1 0x60 PUSH1 0x6 PUSH0 CALLER PUSH20 0xFFFFFFFFFFFFFFFFFFFFFFFFFFFFFFFFFFFFFFFF AND PUSH20 0xFFFFFFFFFFFFFFFFFFFFFFFFFFFFFFFFFFFFFFFF AND DUP2 MSTORE PUSH1 0x20 ADD SWAP1 DUP2 MSTORE PUSH1 0x20 ADD PUSH0 KECCAK256 DUP1 SLOAD DUP1 PUSH1 0x20 MUL PUSH1 0x20 ADD PUSH1 0x40 MLOAD SWAP1 DUP2 ADD PUSH1 0x40 MSTORE DUP1 SWAP3 SWAP2 SWAP1 DUP2 DUP2 MSTORE PUSH1 0x20 ADD PUSH0 SWAP1 JUMPDEST DUP3 DUP3 LT ISZERO PUSH2 0x1BA2 JUMPI DUP4 DUP3 SWAP1 PUSH0 MSTORE PUSH1 0x20 PUSH0 KECCAK256 SWAP1 PUSH1 0x3 MUL ADD PUSH1 0x40 MLOAD DUP1 PUSH1 0x60 ADD PUSH1 0x40 MSTORE SWAP1 DUP2 PUSH0 DUP3 ADD PUSH0 SWAP1 SLOAD SWAP1 PUSH2 0x100 EXP SWAP1 DIV PUSH1 0xFF AND PUSH1 0xFF AND PUSH1 0xFF AND DUP2 MSTORE PUSH1 0x20 ADD PUSH1 0x1 DUP3 ADD SLOAD DUP2 MSTORE PUSH1 0x20 ADD PUSH1 0x2 DUP3 ADD PUSH0 SWAP1 SLOAD SWAP1 PUSH2 0x100 EXP SWAP1 DIV PUSH20 0xFFFFFFFFFFFFFFFFFFFFFFFFFFFFFFFFFFFFFFFF AND PUSH20 0xFFFFFFFFFFFFFFFFFFFFFFFFFFFFFFFFFFFFFFFF AND PUSH20 0xFFFFFFFFFFFFFFFFFFFFFFFFFFFFFFFFFFFFFFFF AND DUP2 MSTORE POP POP DUP2 MSTORE PUSH1 0x20 ADD SWAP1 PUSH1 0x1 ADD SWAP1 PUSH2 0x1AF8 JUMP JUMPDEST POP POP POP POP SWAP1 POP SWAP1 JUMP JUMPDEST PUSH0 DUP1 PUSH0 SWAP1 SLOAD SWAP1 PUSH2 0x100 EXP SWAP1 DIV PUSH20 0xFFFFFFFFFFFFFFFFFFFFFFFFFFFFFFFFFFFFFFFF AND DUP1 PUSH20 0xFFFFFFFFFFFFFFFFFFFFFFFFFFFFFFFFFFFFFFFF AND CALLER PUSH20 0xFFFFFFFFFFFFFFFFFFFFFFFFFFFFFFFFFFFFFFFF AND EQ PUSH2 0x1C3B JUMPI PUSH1 0x40 MLOAD PUSH32 0x8C379A000000000000000000000000000000000000000000000000000000000 DUP2 MSTORE PUSH1 0x4 ADD PUSH2 0x1C32 SWAP1 PUSH2 0x84AA JUMP JUMPDEST PUSH1 0x40 MLOAD DUP1 SWAP2 SUB SWAP1 REVERT JUMPDEST DUP3 PUSH1 0x9 PUSH0 PUSH2 0x100 EXP DUP2 SLOAD DUP2 PUSH20 0xFFFFFFFFFFFFFFFFFFFFFFFFFFFFFFFFFFFFFFFF MUL NOT AND SWAP1 DUP4 PUSH20 0xFFFFFFFFFFFFFFFFFFFFFFFFFFFFFFFFFFFFFFFF AND MUL OR SWAP1 SSTORE POP PUSH1 0x1 SWAP2 POP POP SWAP2 SWAP1 POP JUMP JUMPDEST PUSH1 0xA PUSH0 SWAP1 SLOAD SWAP1 PUSH2 0x100 EXP SWAP1 DIV PUSH20 0xFFFFFFFFFFFFFFFFFFFFFFFFFFFFFFFFFFFFFFFF AND DUP2 JUMP JUMPDEST PUSH2 0x1DDC DUP4 PUSH1 0x40 MLOAD PUSH1 0x20 ADD PUSH2 0x1CBE SWAP2 SWAP1 PUSH2 0x8968 JUMP JUMPDEST PUSH1 0x40 MLOAD PUSH1 0x20 DUP2 DUP4 SUB SUB DUP2 MSTORE SWAP1 PUSH1 0x40 MSTORE PUSH0 PUSH1 0x40 MLOAD DUP1 PUSH1 0x40 ADD PUSH1 0x40 MSTORE DUP1 PUSH1 0x18 DUP2 MSTORE PUSH1 0x20 ADD PUSH32 0x496E74726F647563696E67204E65772050726F64756374210000000000000000 DUP2 MSTORE POP PUSH1 0x40 MLOAD DUP1 PUSH1 0xC0 ADD PUSH1 0x40 MSTORE DUP1 PUSH1 0x86 DUP2 MSTORE PUSH1 0x20 ADD PUSH2 0x9214 PUSH1 0x86 SWAP2 CODECOPY PUSH1 0x7 DUP1 SLOAD DUP1 PUSH1 0x20 MUL PUSH1 0x20 ADD PUSH1 0x40 MLOAD SWAP1 DUP2 ADD PUSH1 0x40 MSTORE DUP1 SWAP3 SWAP2 SWAP1 DUP2 DUP2 MSTORE PUSH1 0x20 ADD DUP3 DUP1 SLOAD DUP1 ISZERO PUSH2 0x1D9C JUMPI PUSH1 0x20 MUL DUP3 ADD SWAP2 SWAP1 PUSH0 MSTORE PUSH1 0x20 PUSH0 KECCAK256 SWAP1 JUMPDEST DUP2 PUSH0 SWAP1 SLOAD SWAP1 PUSH2 0x100 EXP SWAP1 DIV PUSH20 0xFFFFFFFFFFFFFFFFFFFFFFFFFFFFFFFFFFFFFFFF AND PUSH20 0xFFFFFFFFFFFFFFFFFFFFFFFFFFFFFFFFFFFFFFFF AND DUP2 MSTORE PUSH1 0x20 ADD SWAP1 PUSH1 0x1 ADD SWAP1 DUP1 DUP4 GT PUSH2 0x1D53 JUMPI JUMPDEST POP POP POP POP POP PUSH1 0x40 MLOAD DUP1 PUSH1 0x40 ADD PUSH1 0x40 MSTORE DUP1 PUSH1 0xD DUP2 MSTORE PUSH1 0x20 ADD PUSH32 0x43726561746550726F6475637400000000000000000000000000000000000000 DUP2 MSTORE POP PUSH2 0x514B JUMP JUMPDEST PUSH2 0x1E8B DUP4 PUSH1 0x40 MLOAD PUSH1 0x20 ADD PUSH2 0x1DF0 SWAP2 SWAP1 PUSH2 0x8968 JUMP JUMPDEST PUSH1 0x40 MLOAD PUSH1 0x20 DUP2 DUP4 SUB SUB DUP2 MSTORE SWAP1 PUSH1 0x40 MSTORE PUSH0 PUSH1 0x40 MLOAD DUP1 PUSH1 0x40 ADD PUSH1 0x40 MSTORE DUP1 PUSH1 0x1C DUP2 MSTORE PUSH1 0x20 ADD PUSH32 0x4E65772050726F6475637420506F7374205375636365737366756C2100000000 DUP2 MSTORE POP PUSH1 0x40 MLOAD DUP1 PUSH1 0xA0 ADD PUSH1 0x40 MSTORE DUP1 PUSH1 0x7B DUP2 MSTORE PUSH1 0x20 ADD PUSH2 0x929A PUSH1 0x7B SWAP2 CODECOPY DUP6 PUSH1 0x40 MLOAD DUP1 PUSH1 0x40 ADD PUSH1 0x40 MSTORE DUP1 PUSH1 0xD DUP2 MSTORE PUSH1 0x20 ADD PUSH32 0x43726561746550726F6475637400000000000000000000000000000000000000 DUP2 MSTORE POP PUSH2 0x43DA JUMP JUMPDEST PUSH2 0x1F59 DUP4 PUSH1 0x40 MLOAD PUSH1 0x20 ADD PUSH2 0x1E9F SWAP2 SWAP1 PUSH2 0x8968 JUMP JUMPDEST PUSH1 0x40 MLOAD PUSH1 0x20 DUP2 DUP4 SUB SUB DUP2 MSTORE SWAP1 PUSH1 0x40 MSTORE PUSH0 PUSH1 0x40 MLOAD DUP1 PUSH1 0x40 ADD PUSH1 0x40 MSTORE DUP1 PUSH1 0x1C DUP2 MSTORE PUSH1 0x20 ADD PUSH32 0x4E65772050726F6475637420506F7374205375636365737366756C2100000000 DUP2 MSTORE POP PUSH1 0x40 MLOAD DUP1 PUSH1 0xA0 ADD PUSH1 0x40 MSTORE DUP1 PUSH1 0x77 DUP2 MSTORE PUSH1 0x20 ADD PUSH2 0x9377 PUSH1 0x77 SWAP2 CODECOPY PUSH0 DUP1 SLOAD SWAP1 PUSH2 0x100 EXP SWAP1 DIV PUSH20 0xFFFFFFFFFFFFFFFFFFFFFFFFFFFFFFFFFFFFFFFF AND PUSH1 0x40 MLOAD DUP1 PUSH1 0x40 ADD PUSH1 0x40 MSTORE DUP1 PUSH1 0xD DUP2 MSTORE PUSH1 0x20 ADD PUSH32 0x43726561746550726F6475637400000000000000000000000000000000000000 DUP2 MSTORE POP PUSH2 0x43DA JUMP JUMPDEST DUP2 ISZERO PUSH2 0x2092 JUMPI PUSH2 0x2091 DUP4 PUSH1 0x40 MLOAD PUSH1 0x20 ADD PUSH2 0x1F73 SWAP2 SWAP1 PUSH2 0x8968 JUMP JUMPDEST PUSH1 0x40 MLOAD PUSH1 0x20 DUP2 DUP4 SUB SUB DUP2 MSTORE SWAP1 PUSH1 0x40 MSTORE PUSH0 PUSH1 0x40 MLOAD DUP1 PUSH1 0x40 ADD PUSH1 0x40 MSTORE DUP1 PUSH1 0x16 DUP2 MSTORE PUSH1 0x20 ADD PUSH32 0x466C6173682053616C6520537461727473204E6F772100000000000000000000 DUP2 MSTORE POP PUSH1 0x40 MLOAD DUP1 PUSH1 0x80 ADD PUSH1 0x40 MSTORE DUP1 PUSH1 0x47 DUP2 MSTORE PUSH1 0x20 ADD PUSH2 0x91CD PUSH1 0x47 SWAP2 CODECOPY PUSH1 0x7 DUP1 SLOAD DUP1 PUSH1 0x20 MUL PUSH1 0x20 ADD PUSH1 0x40 MLOAD SWAP1 DUP2 ADD PUSH1 0x40 MSTORE DUP1 SWAP3 SWAP2 SWAP1 DUP2 DUP2 MSTORE PUSH1 0x20 ADD DUP3 DUP1 SLOAD DUP1 ISZERO PUSH2 0x2051 JUMPI PUSH1 0x20 MUL DUP3 ADD SWAP2 SWAP1 PUSH0 MSTORE PUSH1 0x20 PUSH0 KECCAK256 SWAP1 JUMPDEST DUP2 PUSH0 SWAP1 SLOAD SWAP1 PUSH2 0x100 EXP SWAP1 DIV PUSH20 0xFFFFFFFFFFFFFFFFFFFFFFFFFFFFFFFFFFFFFFFF AND PUSH20 0xFFFFFFFFFFFFFFFFFFFFFFFFFFFFFFFFFFFFFFFF AND DUP2 MSTORE PUSH1 0x20 ADD SWAP1 PUSH1 0x1 ADD SWAP1 DUP1 DUP4 GT PUSH2 0x2008 JUMPI JUMPDEST POP POP POP POP POP PUSH1 0x40 MLOAD DUP1 PUSH1 0x40 ADD PUSH1 0x40 MSTORE DUP1 PUSH1 0x12 DUP2 MSTORE PUSH1 0x20 ADD PUSH32 0x50726F6D6F74696F6E616C50726F6772616D0000000000000000000000000000 DUP2 MSTORE POP PUSH2 0x514B JUMP JUMPDEST JUMPDEST POP POP POP JUMP JUMPDEST PUSH0 DUP1 PUSH0 SWAP1 SLOAD SWAP1 PUSH2 0x100 EXP SWAP1 DIV PUSH20 0xFFFFFFFFFFFFFFFFFFFFFFFFFFFFFFFFFFFFFFFF AND DUP1 PUSH20 0xFFFFFFFFFFFFFFFFFFFFFFFFFFFFFFFFFFFFFFFF AND CALLER PUSH20 0xFFFFFFFFFFFFFFFFFFFFFFFFFFFFFFFFFFFFFFFF AND EQ PUSH2 0x2127 JUMPI PUSH1 0x40 MLOAD PUSH32 0x8C379A000000000000000000000000000000000000000000000000000000000 DUP2 MSTORE PUSH1 0x4 ADD PUSH2 0x211E SWAP1 PUSH2 0x84AA JUMP JUMPDEST PUSH1 0x40 MLOAD DUP1 SWAP2 SUB SWAP1 REVERT JUMPDEST DUP3 PUSH1 0xA PUSH0 PUSH2 0x100 EXP DUP2 SLOAD DUP2 PUSH20 0xFFFFFFFFFFFFFFFFFFFFFFFFFFFFFFFFFFFFFFFF MUL NOT AND SWAP1 DUP4 PUSH20 0xFFFFFFFFFFFFFFFFFFFFFFFFFFFFFFFFFFFFFFFF AND MUL OR SWAP1 SSTORE POP PUSH1 0x1 SWAP2 POP POP SWAP2 SWAP1 POP JUMP JUMPDEST PUSH0 DUP1 PUSH0 SWAP1 SLOAD SWAP1 PUSH2 0x100 EXP SWAP1 DIV PUSH20 0xFFFFFFFFFFFFFFFFFFFFFFFFFFFFFFFFFFFFFFFF AND DUP1 PUSH20 0xFFFFFFFFFFFFFFFFFFFFFFFFFFFFFFFFFFFFFFFF AND CALLER PUSH20 0xFFFFFFFFFFFFFFFFFFFFFFFFFFFFFFFFFFFFFFFF AND EQ PUSH2 0x2201 JUMPI PUSH1 0x40 MLOAD PUSH32 0x8C379A000000000000000000000000000000000000000000000000000000000 DUP2 MSTORE PUSH1 0x4 ADD PUSH2 0x21F8 SWAP1 PUSH2 0x84AA JUMP JUMPDEST PUSH1 0x40 MLOAD DUP1 SWAP2 SUB SWAP1 REVERT JUMPDEST PUSH2 0x220C DUP4 PUSH1 0x2 PUSH2 0x629F JUMP JUMPDEST PUSH1 0x1 SWAP2 POP POP SWAP2 SWAP1 POP JUMP JUMPDEST PUSH0 DUP1 PUSH0 SWAP1 SLOAD SWAP1 PUSH2 0x100 EXP SWAP1 DIV PUSH20 0xFFFFFFFFFFFFFFFFFFFFFFFFFFFFFFFFFFFFFFFF AND DUP1 PUSH20 0xFFFFFFFFFFFFFFFFFFFFFFFFFFFFFFFFFFFFFFFF AND CALLER PUSH20 0xFFFFFFFFFFFFFFFFFFFFFFFFFFFFFFFFFFFFFFFF AND EQ PUSH2 0x22A6 JUMPI PUSH1 0x40 MLOAD PUSH32 0x8C379A000000000000000000000000000000000000000000000000000000000 DUP2 MSTORE PUSH1 0x4 ADD PUSH2 0x229D SWAP1 PUSH2 0x84AA JUMP JUMPDEST PUSH1 0x40 MLOAD DUP1 SWAP2 SUB SWAP1 REVERT JUMPDEST DUP3 PUSH1 0x8 PUSH0 PUSH2 0x100 EXP DUP2 SLOAD DUP2 PUSH20 0xFFFFFFFFFFFFFFFFFFFFFFFFFFFFFFFFFFFFFFFF MUL NOT AND SWAP1 DUP4 PUSH20 0xFFFFFFFFFFFFFFFFFFFFFFFFFFFFFFFFFFFFFFFF AND MUL OR SWAP1 SSTORE POP PUSH1 0x1 SWAP2 POP POP SWAP2 SWAP1 POP JUMP JUMPDEST PUSH2 0x22F8 PUSH2 0x65DB JUMP JUMPDEST PUSH1 0x5 PUSH0 DUP4 PUSH20 0xFFFFFFFFFFFFFFFFFFFFFFFFFFFFFFFFFFFFFFFF AND PUSH20 0xFFFFFFFFFFFFFFFFFFFFFFFFFFFFFFFFFFFFFFFF AND DUP2 MSTORE PUSH1 0x20 ADD SWAP1 DUP2 MSTORE PUSH1 0x20 ADD PUSH0 KECCAK256 PUSH1 0x40 MLOAD DUP1 PUSH1 0xC0 ADD PUSH1 0x40 MSTORE SWAP1 DUP2 PUSH0 DUP3 ADD PUSH0 SWAP1 SLOAD SWAP1 PUSH2 0x100 EXP SWAP1 DIV PUSH1 0xFF AND ISZERO ISZERO ISZERO ISZERO DUP2 MSTORE PUSH1 0x20 ADD PUSH0 DUP3 ADD PUSH1 0x1 SWAP1 SLOAD SWAP1 PUSH2 0x100 EXP SWAP1 DIV PUSH1 0xFF AND ISZERO ISZERO ISZERO ISZERO DUP2 MSTORE PUSH1 0x20 ADD PUSH0 DUP3 ADD PUSH1 0x2 SWAP1 SLOAD SWAP1 PUSH2 0x100 EXP SWAP1 DIV PUSH1 0xFF AND ISZERO ISZERO ISZERO ISZERO DUP2 MSTORE PUSH1 0x20 ADD PUSH0 DUP3 ADD PUSH1 0x3 SWAP1 SLOAD SWAP1 PUSH2 0x100 EXP SWAP1 DIV PUSH1 0xFF AND ISZERO ISZERO ISZERO ISZERO DUP2 MSTORE PUSH1 0x20 ADD PUSH0 DUP3 ADD PUSH1 0x4 SWAP1 SLOAD SWAP1 PUSH2 0x100 EXP SWAP1 DIV PUSH1 0xFF AND ISZERO ISZERO ISZERO ISZERO DUP2 MSTORE PUSH1 0x20 ADD PUSH0 DUP3 ADD PUSH1 0x5 SWAP1 SLOAD SWAP1 PUSH2 0x100 EXP SWAP1 DIV PUSH1 0xFF AND ISZERO ISZERO ISZERO ISZERO DUP2 MSTORE POP POP SWAP1 POP SWAP2 SWAP1 POP JUMP JUMPDEST PUSH1 0x60 PUSH1 0x6 PUSH0 DUP4 PUSH20 0xFFFFFFFFFFFFFFFFFFFFFFFFFFFFFFFFFFFFFFFF AND PUSH20 0xFFFFFFFFFFFFFFFFFFFFFFFFFFFFFFFFFFFFFFFF AND DUP2 MSTORE PUSH1 0x20 ADD SWAP1 DUP2 MSTORE PUSH1 0x20 ADD PUSH0 KECCAK256 DUP1 SLOAD DUP1 PUSH1 0x20 MUL PUSH1 0x20 ADD PUSH1 0x40 MLOAD SWAP1 DUP2 ADD PUSH1 0x40 MSTORE DUP1 SWAP3 SWAP2 SWAP1 DUP2 DUP2 MSTORE PUSH1 0x20 ADD PUSH0 SWAP1 JUMPDEST DUP3 DUP3 LT ISZERO PUSH2 0x24EA JUMPI DUP4 DUP3 SWAP1 PUSH0 MSTORE PUSH1 0x20 PUSH0 KECCAK256 SWAP1 PUSH1 0x3 MUL ADD PUSH1 0x40 MLOAD DUP1 PUSH1 0x60 ADD PUSH1 0x40 MSTORE SWAP1 DUP2 PUSH0 DUP3 ADD PUSH0 SWAP1 SLOAD SWAP1 PUSH2 0x100 EXP SWAP1 DIV PUSH1 0xFF AND PUSH1 0xFF AND PUSH1 0xFF AND DUP2 MSTORE PUSH1 0x20 ADD PUSH1 0x1 DUP3 ADD SLOAD DUP2 MSTORE PUSH1 0x20 ADD PUSH1 0x2 DUP3 ADD PUSH0 SWAP1 SLOAD SWAP1 PUSH2 0x100 EXP SWAP1 DIV PUSH20 0xFFFFFFFFFFFFFFFFFFFFFFFFFFFFFFFFFFFFFFFF AND PUSH20 0xFFFFFFFFFFFFFFFFFFFFFFFFFFFFFFFFFFFFFFFF AND PUSH20 0xFFFFFFFFFFFFFFFFFFFFFFFFFFFFFFFFFFFFFFFF AND DUP2 MSTORE POP POP DUP2 MSTORE PUSH1 0x20 ADD SWAP1 PUSH1 0x1 ADD SWAP1 PUSH2 0x2440 JUMP JUMPDEST POP POP POP POP SWAP1 POP SWAP2 SWAP1 POP JUMP JUMPDEST PUSH1 0x3 PUSH1 0x20 MSTORE DUP1 PUSH0 MSTORE PUSH1 0x40 PUSH0 KECCAK256 PUSH0 SWAP2 POP SWAP1 POP DUP1 PUSH0 ADD PUSH0 SWAP1 SLOAD SWAP1 PUSH2 0x100 EXP SWAP1 DIV PUSH20 0xFFFFFFFFFFFFFFFFFFFFFFFFFFFFFFFFFFFFFFFF AND SWAP1 DUP1 PUSH1 0x1 ADD DUP1 SLOAD PUSH2 0x2539 SWAP1 PUSH2 0x8183 JUMP JUMPDEST DUP1 PUSH1 0x1F ADD PUSH1 0x20 DUP1 SWAP2 DIV MUL PUSH1 0x20 ADD PUSH1 0x40 MLOAD SWAP1 DUP2 ADD PUSH1 0x40 MSTORE DUP1 SWAP3 SWAP2 SWAP1 DUP2 DUP2 MSTORE PUSH1 0x20 ADD DUP3 DUP1 SLOAD PUSH2 0x2565 SWAP1 PUSH2 0x8183 JUMP JUMPDEST DUP1 ISZERO PUSH2 0x25B0 JUMPI DUP1 PUSH1 0x1F LT PUSH2 0x2587 JUMPI PUSH2 0x100 DUP1 DUP4 SLOAD DIV MUL DUP4 MSTORE SWAP2 PUSH1 0x20 ADD SWAP2 PUSH2 0x25B0 JUMP JUMPDEST DUP3 ADD SWAP2 SWAP1 PUSH0 MSTORE PUSH1 0x20 PUSH0 KECCAK256 SWAP1 JUMPDEST DUP2 SLOAD DUP2 MSTORE SWAP1 PUSH1 0x1 ADD SWAP1 PUSH1 0x20 ADD DUP1 DUP4 GT PUSH2 0x2593 JUMPI DUP3 SWAP1 SUB PUSH1 0x1F AND DUP3 ADD SWAP2 JUMPDEST POP POP POP POP POP SWAP1 DUP1 PUSH1 0x2 ADD DUP1 SLOAD PUSH2 0x25C5 SWAP1 PUSH2 0x8183 JUMP JUMPDEST DUP1 PUSH1 0x1F ADD PUSH1 0x20 DUP1 SWAP2 DIV MUL PUSH1 0x20 ADD PUSH1 0x40 MLOAD SWAP1 DUP2 ADD PUSH1 0x40 MSTORE DUP1 SWAP3 SWAP2 SWAP1 DUP2 DUP2 MSTORE PUSH1 0x20 ADD DUP3 DUP1 SLOAD PUSH2 0x25F1 SWAP1 PUSH2 0x8183 JUMP JUMPDEST DUP1 ISZERO PUSH2 0x263C JUMPI DUP1 PUSH1 0x1F LT PUSH2 0x2613 JUMPI PUSH2 0x100 DUP1 DUP4 SLOAD DIV MUL DUP4 MSTORE SWAP2 PUSH1 0x20 ADD SWAP2 PUSH2 0x263C JUMP JUMPDEST DUP3 ADD SWAP2 SWAP1 PUSH0 MSTORE PUSH1 0x20 PUSH0 KECCAK256 SWAP1 JUMPDEST DUP2 SLOAD DUP2 MSTORE SWAP1 PUSH1 0x1 ADD SWAP1 PUSH1 0x20 ADD DUP1 DUP4 GT PUSH2 0x261F JUMPI DUP3 SWAP1 SUB PUSH1 0x1F AND DUP3 ADD SWAP2 JUMPDEST POP POP POP POP POP SWAP1 DUP1 PUSH1 0x3 ADD PUSH0 SWAP1 SLOAD SWAP1 PUSH2 0x100 EXP SWAP1 DIV PUSH1 0xFF AND SWAP1 DUP1 PUSH1 0x4 ADD SLOAD SWAP1 DUP1 PUSH1 0x5 ADD DUP1 SLOAD PUSH2 0x2669 SWAP1 PUSH2 0x8183 JUMP JUMPDEST DUP1 PUSH1 0x1F ADD PUSH1 0x20 DUP1 SWAP2 DIV MUL PUSH1 0x20 ADD PUSH1 0x40 MLOAD SWAP1 DUP2 ADD PUSH1 0x40 MSTORE DUP1 SWAP3 SWAP2 SWAP1 DUP2 DUP2 MSTORE PUSH1 0x20 ADD DUP3 DUP1 SLOAD PUSH2 0x2695 SWAP1 PUSH2 0x8183 JUMP JUMPDEST DUP1 ISZERO PUSH2 0x26E0 JUMPI DUP1 PUSH1 0x1F LT PUSH2 0x26B7 JUMPI PUSH2 0x100 DUP1 DUP4 SLOAD DIV MUL DUP4 MSTORE SWAP2 PUSH1 0x20 ADD SWAP2 PUSH2 0x26E0 JUMP JUMPDEST DUP3 ADD SWAP2 SWAP1 PUSH0 MSTORE PUSH1 0x20 PUSH0 KECCAK256 SWAP1 JUMPDEST DUP2 SLOAD DUP2 MSTORE SWAP1 PUSH1 0x1 ADD SWAP1 PUSH1 0x20 ADD DUP1 DUP4 GT PUSH2 0x26C3 JUMPI DUP3 SWAP1 SUB PUSH1 0x1F AND DUP3 ADD SWAP2 JUMPDEST POP POP POP POP POP SWAP1 DUP1 PUSH1 0x6 ADD DUP1 SLOAD PUSH2 0x26F5 SWAP1 PUSH2 0x8183 JUMP JUMPDEST DUP1 PUSH1 0x1F ADD PUSH1 0x20 DUP1 SWAP2 DIV MUL PUSH1 0x20 ADD PUSH1 0x40 MLOAD SWAP1 DUP2 ADD PUSH1 0x40 MSTORE DUP1 SWAP3 SWAP2 SWAP1 DUP2 DUP2 MSTORE PUSH1 0x20 ADD DUP3 DUP1 SLOAD PUSH2 0x2721 SWAP1 PUSH2 0x8183 JUMP JUMPDEST DUP1 ISZERO PUSH2 0x276C JUMPI DUP1 PUSH1 0x1F LT PUSH2 0x2743 JUMPI PUSH2 0x100 DUP1 DUP4 SLOAD DIV MUL DUP4 MSTORE SWAP2 PUSH1 0x20 ADD SWAP2 PUSH2 0x276C JUMP JUMPDEST DUP3 ADD SWAP2 SWAP1 PUSH0 MSTORE PUSH1 0x20 PUSH0 KECCAK256 SWAP1 JUMPDEST DUP2 SLOAD DUP2 MSTORE SWAP1 PUSH1 0x1 ADD SWAP1 PUSH1 0x20 ADD DUP1 DUP4 GT PUSH2 0x274F JUMPI DUP3 SWAP1 SUB PUSH1 0x1F AND DUP3 ADD SWAP2 JUMPDEST POP POP POP POP POP SWAP1 DUP1 PUSH1 0x7 ADD PUSH0 SWAP1 SLOAD SWAP1 PUSH2 0x100 EXP SWAP1 DIV PUSH1 0xFF AND SWAP1 DUP1 PUSH1 0x8 ADD SLOAD SWAP1 DUP1 PUSH1 0x9 ADD PUSH0 SWAP1 SLOAD SWAP1 PUSH2 0x100 EXP SWAP1 DIV PUSH20 0xFFFFFFFFFFFFFFFFFFFFFFFFFFFFFFFFFFFFFFFF AND SWAP1 POP DUP11 JUMP JUMPDEST PUSH1 0x9 PUSH0 SWAP1 SLOAD SWAP1 PUSH2 0x100 EXP SWAP1 DIV PUSH20 0xFFFFFFFFFFFFFFFFFFFFFFFFFFFFFFFFFFFFFFFF AND DUP2 JUMP JUMPDEST PUSH0 DUP1 DUP3 PUSH0 ADD MLOAD MLOAD GT PUSH2 0x281F JUMPI PUSH1 0x40 MLOAD PUSH32 0x8C379A000000000000000000000000000000000000000000000000000000000 DUP2 MSTORE PUSH1 0x4 ADD PUSH2 0x2816 SWAP1 PUSH2 0x8A18 JUMP JUMPDEST PUSH1 0x40 MLOAD DUP1 SWAP2 SUB SWAP1 REVERT JUMPDEST PUSH0 PUSH1 0x3 PUSH0 CALLER PUSH20 0xFFFFFFFFFFFFFFFFFFFFFFFFFFFFFFFFFFFFFFFF AND PUSH20 0xFFFFFFFFFFFFFFFFFFFFFFFFFFFFFFFFFFFFFFFF AND DUP2 MSTORE PUSH1 0x20 ADD SWAP1 DUP2 MSTORE PUSH1 0x20 ADD PUSH0 KECCAK256 PUSH1 0x8 ADD SLOAD EQ PUSH2 0x28A1 JUMPI PUSH1 0x40 MLOAD PUSH32 0x8C379A000000000000000000000000000000000000000000000000000000000 DUP2 MSTORE PUSH1 0x4 ADD PUSH2 0x2898 SWAP1 PUSH2 0x8AA6 JUMP JUMPDEST PUSH1 0x40 MLOAD DUP1 SWAP2 SUB SWAP1 REVERT JUMPDEST PUSH0 PUSH20 0xFFFFFFFFFFFFFFFFFFFFFFFFFFFFFFFFFFFFFFFF AND DUP3 PUSH1 0xA0 ADD MLOAD PUSH20 0xFFFFFFFFFFFFFFFFFFFFFFFFFFFFFFFFFFFFFFFF AND SUB PUSH2 0x2913 JUMPI PUSH1 0x40 MLOAD PUSH32 0x8C379A000000000000000000000000000000000000000000000000000000000 DUP2 MSTORE PUSH1 0x4 ADD PUSH2 0x290A SWAP1 PUSH2 0x8B34 JUMP JUMPDEST PUSH1 0x40 MLOAD DUP1 SWAP2 SUB SWAP1 REVERT JUMPDEST PUSH1 0x8 PUSH0 SWAP1 SLOAD SWAP1 PUSH2 0x100 EXP SWAP1 DIV PUSH20 0xFFFFFFFFFFFFFFFFFFFFFFFFFFFFFFFFFFFFFFFF AND PUSH20 0xFFFFFFFFFFFFFFFFFFFFFFFFFFFFFFFFFFFFFFFF AND PUSH4 0x8B59D23E DUP4 PUSH1 0xA0 ADD MLOAD PUSH1 0x40 MLOAD DUP3 PUSH4 0xFFFFFFFF AND PUSH1 0xE0 SHL DUP2 MSTORE PUSH1 0x4 ADD PUSH2 0x2971 SWAP2 SWAP1 PUSH2 0x6B63 JUMP JUMPDEST PUSH1 0x20 PUSH1 0x40 MLOAD DUP1 DUP4 SUB DUP2 DUP7 GAS STATICCALL ISZERO DUP1 ISZERO PUSH2 0x298C JUMPI RETURNDATASIZE PUSH0 DUP1 RETURNDATACOPY RETURNDATASIZE PUSH0 REVERT JUMPDEST POP POP POP POP PUSH1 0x40 MLOAD RETURNDATASIZE PUSH1 0x1F NOT PUSH1 0x1F DUP3 ADD AND DUP3 ADD DUP1 PUSH1 0x40 MSTORE POP DUP2 ADD SWAP1 PUSH2 0x29B0 SWAP2 SWAP1 PUSH2 0x8B66 JUMP JUMPDEST PUSH2 0x29EF JUMPI PUSH1 0x40 MLOAD PUSH32 0x8C379A000000000000000000000000000000000000000000000000000000000 DUP2 MSTORE PUSH1 0x4 ADD PUSH2 0x29E6 SWAP1 PUSH2 0x8C27 JUMP JUMPDEST PUSH1 0x40 MLOAD DUP1 SWAP2 SUB SWAP1 REVERT JUMPDEST CALLER PUSH1 0x3 PUSH0 CALLER PUSH20 0xFFFFFFFFFFFFFFFFFFFFFFFFFFFFFFFFFFFFFFFF AND PUSH20 0xFFFFFFFFFFFFFFFFFFFFFFFFFFFFFFFFFFFFFFFF AND DUP2 MSTORE PUSH1 0x20 ADD SWAP1 DUP2 MSTORE PUSH1 0x20 ADD PUSH0 KECCAK256 PUSH0 ADD PUSH0 PUSH2 0x100 EXP DUP2 SLOAD DUP2 PUSH20 0xFFFFFFFFFFFFFFFFFFFFFFFFFFFFFFFFFFFFFFFF MUL NOT AND SWAP1 DUP4 PUSH20 0xFFFFFFFFFFFFFFFFFFFFFFFFFFFFFFFFFFFFFFFF AND MUL OR SWAP1 SSTORE POP DUP2 PUSH0 ADD MLOAD PUSH1 0x3 PUSH0 CALLER PUSH20 0xFFFFFFFFFFFFFFFFFFFFFFFFFFFFFFFFFFFFFFFF AND PUSH20 0xFFFFFFFFFFFFFFFFFFFFFFFFFFFFFFFFFFFFFFFF AND DUP2 MSTORE PUSH1 0x20 ADD SWAP1 DUP2 MSTORE PUSH1 0x20 ADD PUSH0 KECCAK256 PUSH1 0x1 ADD SWAP1 DUP2 PUSH2 0x2ABC SWAP2 SWAP1 PUSH2 0x85BF JUMP JUMPDEST POP DUP2 PUSH1 0xA0 ADD MLOAD PUSH1 0x3 PUSH0 CALLER PUSH20 0xFFFFFFFFFFFFFFFFFFFFFFFFFFFFFFFFFFFFFFFF AND PUSH20 0xFFFFFFFFFFFFFFFFFFFFFFFFFFFFFFFFFFFFFFFF AND DUP2 MSTORE PUSH1 0x20 ADD SWAP1 DUP2 MSTORE PUSH1 0x20 ADD PUSH0 KECCAK256 PUSH1 0x9 ADD PUSH0 PUSH2 0x100 EXP DUP2 SLOAD DUP2 PUSH20 0xFFFFFFFFFFFFFFFFFFFFFFFFFFFFFFFFFFFFFFFF MUL NOT AND SWAP1 DUP4 PUSH20 0xFFFFFFFFFFFFFFFFFFFFFFFFFFFFFFFFFFFFFFFF AND MUL OR SWAP1 SSTORE POP DUP2 PUSH1 0x20 ADD MLOAD PUSH1 0x3 PUSH0 CALLER PUSH20 0xFFFFFFFFFFFFFFFFFFFFFFFFFFFFFFFFFFFFFFFF AND PUSH20 0xFFFFFFFFFFFFFFFFFFFFFFFFFFFFFFFFFFFFFFFF AND DUP2 MSTORE PUSH1 0x20 ADD SWAP1 DUP2 MSTORE PUSH1 0x20 ADD PUSH0 KECCAK256 PUSH1 0x2 ADD SWAP1 DUP2 PUSH2 0x2B90 SWAP2 SWAP1 PUSH2 0x85BF JUMP JUMPDEST POP DUP2 PUSH1 0x40 ADD MLOAD PUSH1 0x3 PUSH0 CALLER PUSH20 0xFFFFFFFFFFFFFFFFFFFFFFFFFFFFFFFFFFFFFFFF AND PUSH20 0xFFFFFFFFFFFFFFFFFFFFFFFFFFFFFFFFFFFFFFFF AND DUP2 MSTORE PUSH1 0x20 ADD SWAP1 DUP2 MSTORE PUSH1 0x20 ADD PUSH0 KECCAK256 PUSH1 0x3 ADD PUSH0 PUSH2 0x100 EXP DUP2 SLOAD DUP2 PUSH1 0xFF MUL NOT AND SWAP1 DUP4 PUSH1 0xFF AND MUL OR SWAP1 SSTORE POP DUP2 PUSH1 0x60 ADD MLOAD PUSH1 0x3 PUSH0 CALLER PUSH20 0xFFFFFFFFFFFFFFFFFFFFFFFFFFFFFFFFFFFFFFFF AND PUSH20 0xFFFFFFFFFFFFFFFFFFFFFFFFFFFFFFFFFFFFFFFF AND DUP2 MSTORE PUSH1 0x20 ADD SWAP1 DUP2 MSTORE PUSH1 0x20 ADD PUSH0 KECCAK256 PUSH1 0x4 ADD DUP2 SWAP1 SSTORE POP DUP2 PUSH1 0x80 ADD MLOAD PUSH1 0x3 PUSH0 CALLER PUSH20 0xFFFFFFFFFFFFFFFFFFFFFFFFFFFFFFFFFFFFFFFF AND PUSH20 0xFFFFFFFFFFFFFFFFFFFFFFFFFFFFFFFFFFFFFFFF AND DUP2 MSTORE PUSH1 0x20 ADD SWAP1 DUP2 MSTORE PUSH1 0x20 ADD PUSH0 KECCAK256 PUSH1 0x5 ADD SWAP1 DUP2 PUSH2 0x2C87 SWAP2 SWAP1 PUSH2 0x85BF JUMP JUMPDEST POP PUSH1 0x1 PUSH1 0x3 PUSH0 CALLER PUSH20 0xFFFFFFFFFFFFFFFFFFFFFFFFFFFFFFFFFFFFFFFF AND PUSH20 0xFFFFFFFFFFFFFFFFFFFFFFFFFFFFFFFFFFFFFFFF AND DUP2 MSTORE PUSH1 0x20 ADD SWAP1 DUP2 MSTORE PUSH1 0x20 ADD PUSH0 KECCAK256 PUSH1 0x7 ADD PUSH0 PUSH2 0x100 EXP DUP2 SLOAD DUP2 PUSH1 0xFF MUL NOT AND SWAP1 DUP4 PUSH1 0x2 DUP2 GT ISZERO PUSH2 0x2CEB JUMPI PUSH2 0x2CEA PUSH2 0x6DC1 JUMP JUMPDEST JUMPDEST MUL OR SWAP1 SSTORE POP TIMESTAMP PUSH1 0x3 PUSH0 CALLER PUSH20 0xFFFFFFFFFFFFFFFFFFFFFFFFFFFFFFFFFFFFFFFF AND PUSH20 0xFFFFFFFFFFFFFFFFFFFFFFFFFFFFFFFFFFFFFFFF AND DUP2 MSTORE PUSH1 0x20 ADD SWAP1 DUP2 MSTORE PUSH1 0x20 ADD PUSH0 KECCAK256 PUSH1 0x8 ADD DUP2 SWAP1 SSTORE POP PUSH1 0x7 CALLER SWAP1 DUP1 PUSH1 0x1 DUP2 SLOAD ADD DUP1 DUP3 SSTORE DUP1 SWAP2 POP POP PUSH1 0x1 SWAP1 SUB SWAP1 PUSH0 MSTORE PUSH1 0x20 PUSH0 KECCAK256 ADD PUSH0 SWAP1 SWAP2 SWAP1 SWAP2 SWAP1 SWAP2 PUSH2 0x100 EXP DUP2 SLOAD DUP2 PUSH20 0xFFFFFFFFFFFFFFFFFFFFFFFFFFFFFFFFFFFFFFFF MUL NOT AND SWAP1 DUP4 PUSH20 0xFFFFFFFFFFFFFFFFFFFFFFFFFFFFFFFFFFFFFFFF AND MUL OR SWAP1 SSTORE POP PUSH1 0x1 SWAP1 POP SWAP2 SWAP1 POP JUMP JUMPDEST PUSH2 0x2DA6 PUSH2 0x6617 JUMP JUMPDEST PUSH1 0x60 PUSH1 0x3 PUSH0 DUP5 PUSH20 0xFFFFFFFFFFFFFFFFFFFFFFFFFFFFFFFFFFFFFFFF AND PUSH20 0xFFFFFFFFFFFFFFFFFFFFFFFFFFFFFFFFFFFFFFFF AND DUP2 MSTORE PUSH1 0x20 ADD SWAP1 DUP2 MSTORE PUSH1 0x20 ADD PUSH0 KECCAK256 PUSH1 0x4 PUSH0 DUP6 PUSH20 0xFFFFFFFFFFFFFFFFFFFFFFFFFFFFFFFFFFFFFFFF AND PUSH20 0xFFFFFFFFFFFFFFFFFFFFFFFFFFFFFFFFFFFFFFFF AND DUP2 MSTORE PUSH1 0x20 ADD SWAP1 DUP2 MSTORE PUSH1 0x20 ADD PUSH0 KECCAK256 DUP2 PUSH1 0x40 MLOAD DUP1 PUSH2 0x140 ADD PUSH1 0x40 MSTORE SWAP1 DUP2 PUSH0 DUP3 ADD PUSH0 SWAP1 SLOAD SWAP1 PUSH2 0x100 EXP SWAP1 DIV PUSH20 0xFFFFFFFFFFFFFFFFFFFFFFFFFFFFFFFFFFFFFFFF AND PUSH20 0xFFFFFFFFFFFFFFFFFFFFFFFFFFFFFFFFFFFFFFFF AND PUSH20 0xFFFFFFFFFFFFFFFFFFFFFFFFFFFFFFFFFFFFFFFF AND DUP2 MSTORE PUSH1 0x20 ADD PUSH1 0x1 DUP3 ADD DUP1 SLOAD PUSH2 0x2E93 SWAP1 PUSH2 0x8183 JUMP JUMPDEST DUP1 PUSH1 0x1F ADD PUSH1 0x20 DUP1 SWAP2 DIV MUL PUSH1 0x20 ADD PUSH1 0x40 MLOAD SWAP1 DUP2 ADD PUSH1 0x40 MSTORE DUP1 SWAP3 SWAP2 SWAP1 DUP2 DUP2 MSTORE PUSH1 0x20 ADD DUP3 DUP1 SLOAD PUSH2 0x2EBF SWAP1 PUSH2 0x8183 JUMP JUMPDEST DUP1 ISZERO PUSH2 0x2F0A JUMPI DUP1 PUSH1 0x1F LT PUSH2 0x2EE1 JUMPI PUSH2 0x100 DUP1 DUP4 SLOAD DIV MUL DUP4 MSTORE SWAP2 PUSH1 0x20 ADD SWAP2 PUSH2 0x2F0A JUMP JUMPDEST DUP3 ADD SWAP2 SWAP1 PUSH0 MSTORE PUSH1 0x20 PUSH0 KECCAK256 SWAP1 JUMPDEST DUP2 SLOAD DUP2 MSTORE SWAP1 PUSH1 0x1 ADD SWAP1 PUSH1 0x20 ADD DUP1 DUP4 GT PUSH2 0x2EED JUMPI DUP3 SWAP1 SUB PUSH1 0x1F AND DUP3 ADD SWAP2 JUMPDEST POP POP POP POP POP DUP2 MSTORE PUSH1 0x20 ADD PUSH1 0x2 DUP3 ADD DUP1 SLOAD PUSH2 0x2F23 SWAP1 PUSH2 0x8183 JUMP JUMPDEST DUP1 PUSH1 0x1F ADD PUSH1 0x20 DUP1 SWAP2 DIV MUL PUSH1 0x20 ADD PUSH1 0x40 MLOAD SWAP1 DUP2 ADD PUSH1 0x40 MSTORE DUP1 SWAP3 SWAP2 SWAP1 DUP2 DUP2 MSTORE PUSH1 0x20 ADD DUP3 DUP1 SLOAD PUSH2 0x2F4F SWAP1 PUSH2 0x8183 JUMP JUMPDEST DUP1 ISZERO PUSH2 0x2F9A JUMPI DUP1 PUSH1 0x1F LT PUSH2 0x2F71 JUMPI PUSH2 0x100 DUP1 DUP4 SLOAD DIV MUL DUP4 MSTORE SWAP2 PUSH1 0x20 ADD SWAP2 PUSH2 0x2F9A JUMP JUMPDEST DUP3 ADD SWAP2 SWAP1 PUSH0 MSTORE PUSH1 0x20 PUSH0 KECCAK256 SWAP1 JUMPDEST DUP2 SLOAD DUP2 MSTORE SWAP1 PUSH1 0x1 ADD SWAP1 PUSH1 0x20 ADD DUP1 DUP4 GT PUSH2 0x2F7D JUMPI DUP3 SWAP1 SUB PUSH1 0x1F AND DUP3 ADD SWAP2 JUMPDEST POP POP POP POP POP DUP2 MSTORE PUSH1 0x20 ADD PUSH1 0x3 DUP3 ADD PUSH0 SWAP1 SLOAD SWAP1 PUSH2 0x100 EXP SWAP1 DIV PUSH1 0xFF AND PUSH1 0xFF AND PUSH1 0xFF AND DUP2 MSTORE PUSH1 0x20 ADD PUSH1 0x4 DUP3 ADD SLOAD DUP2 MSTORE PUSH1 0x20 ADD PUSH1 0x5 DUP3 ADD DUP1 SLOAD PUSH2 0x2FD9 SWAP1 PUSH2 0x8183 JUMP JUMPDEST DUP1 PUSH1 0x1F ADD PUSH1 0x20 DUP1 SWAP2 DIV MUL PUSH1 0x20 ADD PUSH1 0x40 MLOAD SWAP1 DUP2 ADD PUSH1 0x40 MSTORE DUP1 SWAP3 SWAP2 SWAP1 DUP2 DUP2 MSTORE PUSH1 0x20 ADD DUP3 DUP1 SLOAD PUSH2 0x3005 SWAP1 PUSH2 0x8183 JUMP JUMPDEST DUP1 ISZERO PUSH2 0x3050 JUMPI DUP1 PUSH1 0x1F LT PUSH2 0x3027 JUMPI PUSH2 0x100 DUP1 DUP4 SLOAD DIV MUL DUP4 MSTORE SWAP2 PUSH1 0x20 ADD SWAP2 PUSH2 0x3050 JUMP JUMPDEST DUP3 ADD SWAP2 SWAP1 PUSH0 MSTORE PUSH1 0x20 PUSH0 KECCAK256 SWAP1 JUMPDEST DUP2 SLOAD DUP2 MSTORE SWAP1 PUSH1 0x1 ADD SWAP1 PUSH1 0x20 ADD DUP1 DUP4 GT PUSH2 0x3033 JUMPI DUP3 SWAP1 SUB PUSH1 0x1F AND DUP3 ADD SWAP2 JUMPDEST POP POP POP POP POP DUP2 MSTORE PUSH1 0x20 ADD PUSH1 0x6 DUP3 ADD DUP1 SLOAD PUSH2 0x3069 SWAP1 PUSH2 0x8183 JUMP JUMPDEST DUP1 PUSH1 0x1F ADD PUSH1 0x20 DUP1 SWAP2 DIV MUL PUSH1 0x20 ADD PUSH1 0x40 MLOAD SWAP1 DUP2 ADD PUSH1 0x40 MSTORE DUP1 SWAP3 SWAP2 SWAP1 DUP2 DUP2 MSTORE PUSH1 0x20 ADD DUP3 DUP1 SLOAD PUSH2 0x3095 SWAP1 PUSH2 0x8183 JUMP JUMPDEST DUP1 ISZERO PUSH2 0x30E0 JUMPI DUP1 PUSH1 0x1F LT PUSH2 0x30B7 JUMPI PUSH2 0x100 DUP1 DUP4 SLOAD DIV MUL DUP4 MSTORE SWAP2 PUSH1 0x20 ADD SWAP2 PUSH2 0x30E0 JUMP JUMPDEST DUP3 ADD SWAP2 SWAP1 PUSH0 MSTORE PUSH1 0x20 PUSH0 KECCAK256 SWAP1 JUMPDEST DUP2 SLOAD DUP2 MSTORE SWAP1 PUSH1 0x1 ADD SWAP1 PUSH1 0x20 ADD DUP1 DUP4 GT PUSH2 0x30C3 JUMPI DUP3 SWAP1 SUB PUSH1 0x1F AND DUP3 ADD SWAP2 JUMPDEST POP POP POP POP POP DUP2 MSTORE PUSH1 0x20 ADD PUSH1 0x7 DUP3 ADD PUSH0 SWAP1 SLOAD SWAP1 PUSH2 0x100 EXP SWAP1 DIV PUSH1 0xFF AND PUSH1 0x2 DUP2 GT ISZERO PUSH2 0x310D JUMPI PUSH2 0x310C PUSH2 0x6DC1 JUMP JUMPDEST JUMPDEST PUSH1 0x2 DUP2 GT ISZERO PUSH2 0x311F JUMPI PUSH2 0x311E PUSH2 0x6DC1 JUMP JUMPDEST JUMPDEST DUP2 MSTORE PUSH1 0x20 ADD PUSH1 0x8 DUP3 ADD SLOAD DUP2 MSTORE PUSH1 0x20 ADD PUSH1 0x9 DUP3 ADD PUSH0 SWAP1 SLOAD SWAP1 PUSH2 0x100 EXP SWAP1 DIV PUSH20 0xFFFFFFFFFFFFFFFFFFFFFFFFFFFFFFFFFFFFFFFF AND PUSH20 0xFFFFFFFFFFFFFFFFFFFFFFFFFFFFFFFFFFFFFFFF AND PUSH20 0xFFFFFFFFFFFFFFFFFFFFFFFFFFFFFFFFFFFFFFFF AND DUP2 MSTORE POP POP SWAP2 POP DUP1 DUP1 SLOAD DUP1 PUSH1 0x20 MUL PUSH1 0x20 ADD PUSH1 0x40 MLOAD SWAP1 DUP2 ADD PUSH1 0x40 MSTORE DUP1 SWAP3 SWAP2 SWAP1 DUP2 DUP2 MSTORE PUSH1 0x20 ADD PUSH0 SWAP1 JUMPDEST DUP3 DUP3 LT ISZERO PUSH2 0x34A3 JUMPI DUP4 DUP3 SWAP1 PUSH0 MSTORE PUSH1 0x20 PUSH0 KECCAK256 SWAP1 PUSH1 0x5 MUL ADD PUSH1 0x40 MLOAD DUP1 PUSH1 0xA0 ADD PUSH1 0x40 MSTORE SWAP1 DUP2 PUSH0 DUP3 ADD DUP1 SLOAD PUSH2 0x31D4 SWAP1 PUSH2 0x8183 JUMP JUMPDEST DUP1 PUSH1 0x1F ADD PUSH1 0x20 DUP1 SWAP2 DIV MUL PUSH1 0x20 ADD PUSH1 0x40 MLOAD SWAP1 DUP2 ADD PUSH1 0x40 MSTORE DUP1 SWAP3 SWAP2 SWAP1 DUP2 DUP2 MSTORE PUSH1 0x20 ADD DUP3 DUP1 SLOAD PUSH2 0x3200 SWAP1 PUSH2 0x8183 JUMP JUMPDEST DUP1 ISZERO PUSH2 0x324B JUMPI DUP1 PUSH1 0x1F LT PUSH2 0x3222 JUMPI PUSH2 0x100 DUP1 DUP4 SLOAD DIV MUL DUP4 MSTORE SWAP2 PUSH1 0x20 ADD SWAP2 PUSH2 0x324B JUMP JUMPDEST DUP3 ADD SWAP2 SWAP1 PUSH0 MSTORE PUSH1 0x20 PUSH0 KECCAK256 SWAP1 JUMPDEST DUP2 SLOAD DUP2 MSTORE SWAP1 PUSH1 0x1 ADD SWAP1 PUSH1 0x20 ADD DUP1 DUP4 GT PUSH2 0x322E JUMPI DUP3 SWAP1 SUB PUSH1 0x1F AND DUP3 ADD SWAP2 JUMPDEST POP POP POP POP POP DUP2 MSTORE PUSH1 0x20 ADD PUSH1 0x1 DUP3 ADD DUP1 SLOAD PUSH2 0x3264 SWAP1 PUSH2 0x8183 JUMP JUMPDEST DUP1 PUSH1 0x1F ADD PUSH1 0x20 DUP1 SWAP2 DIV MUL PUSH1 0x20 ADD PUSH1 0x40 MLOAD SWAP1 DUP2 ADD PUSH1 0x40 MSTORE DUP1 SWAP3 SWAP2 SWAP1 DUP2 DUP2 MSTORE PUSH1 0x20 ADD DUP3 DUP1 SLOAD PUSH2 0x3290 SWAP1 PUSH2 0x8183 JUMP JUMPDEST DUP1 ISZERO PUSH2 0x32DB JUMPI DUP1 PUSH1 0x1F LT PUSH2 0x32B2 JUMPI PUSH2 0x100 DUP1 DUP4 SLOAD DIV MUL DUP4 MSTORE SWAP2 PUSH1 0x20 ADD SWAP2 PUSH2 0x32DB JUMP JUMPDEST DUP3 ADD SWAP2 SWAP1 PUSH0 MSTORE PUSH1 0x20 PUSH0 KECCAK256 SWAP1 JUMPDEST DUP2 SLOAD DUP2 MSTORE SWAP1 PUSH1 0x1 ADD SWAP1 PUSH1 0x20 ADD DUP1 DUP4 GT PUSH2 0x32BE JUMPI DUP3 SWAP1 SUB PUSH1 0x1F AND DUP3 ADD SWAP2 JUMPDEST POP POP POP POP POP DUP2 MSTORE PUSH1 0x20 ADD PUSH1 0x2 DUP3 ADD DUP1 SLOAD PUSH2 0x32F4 SWAP1 PUSH2 0x8183 JUMP JUMPDEST DUP1 PUSH1 0x1F ADD PUSH1 0x20 DUP1 SWAP2 DIV MUL PUSH1 0x20 ADD PUSH1 0x40 MLOAD SWAP1 DUP2 ADD PUSH1 0x40 MSTORE DUP1 SWAP3 SWAP2 SWAP1 DUP2 DUP2 MSTORE PUSH1 0x20 ADD DUP3 DUP1 SLOAD PUSH2 0x3320 SWAP1 PUSH2 0x8183 JUMP JUMPDEST DUP1 ISZERO PUSH2 0x336B JUMPI DUP1 PUSH1 0x1F LT PUSH2 0x3342 JUMPI PUSH2 0x100 DUP1 DUP4 SLOAD DIV MUL DUP4 MSTORE SWAP2 PUSH1 0x20 ADD SWAP2 PUSH2 0x336B JUMP JUMPDEST DUP3 ADD SWAP2 SWAP1 PUSH0 MSTORE PUSH1 0x20 PUSH0 KECCAK256 SWAP1 JUMPDEST DUP2 SLOAD DUP2 MSTORE SWAP1 PUSH1 0x1 ADD SWAP1 PUSH1 0x20 ADD DUP1 DUP4 GT PUSH2 0x334E JUMPI DUP3 SWAP1 SUB PUSH1 0x1F AND DUP3 ADD SWAP2 JUMPDEST POP POP POP POP POP DUP2 MSTORE PUSH1 0x20 ADD PUSH1 0x3 DUP3 ADD DUP1 SLOAD PUSH2 0x3384 SWAP1 PUSH2 0x8183 JUMP JUMPDEST DUP1 PUSH1 0x1F ADD PUSH1 0x20 DUP1 SWAP2 DIV MUL PUSH1 0x20 ADD PUSH1 0x40 MLOAD SWAP1 DUP2 ADD PUSH1 0x40 MSTORE DUP1 SWAP3 SWAP2 SWAP1 DUP2 DUP2 MSTORE PUSH1 0x20 ADD DUP3 DUP1 SLOAD PUSH2 0x33B0 SWAP1 PUSH2 0x8183 JUMP JUMPDEST DUP1 ISZERO PUSH2 0x33FB JUMPI DUP1 PUSH1 0x1F LT PUSH2 0x33D2 JUMPI PUSH2 0x100 DUP1 DUP4 SLOAD DIV MUL DUP4 MSTORE SWAP2 PUSH1 0x20 ADD SWAP2 PUSH2 0x33FB JUMP JUMPDEST DUP3 ADD SWAP2 SWAP1 PUSH0 MSTORE PUSH1 0x20 PUSH0 KECCAK256 SWAP1 JUMPDEST DUP2 SLOAD DUP2 MSTORE SWAP1 PUSH1 0x1 ADD SWAP1 PUSH1 0x20 ADD DUP1 DUP4 GT PUSH2 0x33DE JUMPI DUP3 SWAP1 SUB PUSH1 0x1F AND DUP3 ADD SWAP2 JUMPDEST POP POP POP POP POP DUP2 MSTORE PUSH1 0x20 ADD PUSH1 0x4 DUP3 ADD DUP1 SLOAD PUSH2 0x3414 SWAP1 PUSH2 0x8183 JUMP JUMPDEST DUP1 PUSH1 0x1F ADD PUSH1 0x20 DUP1 SWAP2 DIV MUL PUSH1 0x20 ADD PUSH1 0x40 MLOAD SWAP1 DUP2 ADD PUSH1 0x40 MSTORE DUP1 SWAP3 SWAP2 SWAP1 DUP2 DUP2 MSTORE PUSH1 0x20 ADD DUP3 DUP1 SLOAD PUSH2 0x3440 SWAP1 PUSH2 0x8183 JUMP JUMPDEST DUP1 ISZERO PUSH2 0x348B JUMPI DUP1 PUSH1 0x1F LT PUSH2 0x3462 JUMPI PUSH2 0x100 DUP1 DUP4 SLOAD DIV MUL DUP4 MSTORE SWAP2 PUSH1 0x20 ADD SWAP2 PUSH2 0x348B JUMP JUMPDEST DUP3 ADD SWAP2 SWAP1 PUSH0 MSTORE PUSH1 0x20 PUSH0 KECCAK256 SWAP1 JUMPDEST DUP2 SLOAD DUP2 MSTORE SWAP1 PUSH1 0x1 ADD SWAP1 PUSH1 0x20 ADD DUP1 DUP4 GT PUSH2 0x346E JUMPI DUP3 SWAP1 SUB PUSH1 0x1F AND DUP3 ADD SWAP2 JUMPDEST POP POP POP POP POP DUP2 MSTORE POP POP DUP2 MSTORE PUSH1 0x20 ADD SWAP1 PUSH1 0x1 ADD SWAP1 PUSH2 0x31A4 JUMP JUMPDEST POP POP POP POP SWAP1 POP SWAP2 POP SWAP2 POP SWAP2 POP SWAP2 JUMP JUMPDEST PUSH0 DUP1 PUSH0 SWAP1 SLOAD SWAP1 PUSH2 0x100 EXP SWAP1 DIV PUSH20 0xFFFFFFFFFFFFFFFFFFFFFFFFFFFFFFFFFFFFFFFF AND DUP1 PUSH20 0xFFFFFFFFFFFFFFFFFFFFFFFFFFFFFFFFFFFFFFFF AND CALLER PUSH20 0xFFFFFFFFFFFFFFFFFFFFFFFFFFFFFFFFFFFFFFFF AND EQ PUSH2 0x3542 JUMPI PUSH1 0x40 MLOAD PUSH32 0x8C379A000000000000000000000000000000000000000000000000000000000 DUP2 MSTORE PUSH1 0x4 ADD PUSH2 0x3539 SWAP1 PUSH2 0x84AA JUMP JUMPDEST PUSH1 0x40 MLOAD DUP1 SWAP2 SUB SWAP1 REVERT JUMPDEST PUSH1 0x1 DUP1 PUSH0 DUP6 PUSH20 0xFFFFFFFFFFFFFFFFFFFFFFFFFFFFFFFFFFFFFFFF AND PUSH20 0xFFFFFFFFFFFFFFFFFFFFFFFFFFFFFFFFFFFFFFFF AND DUP2 MSTORE PUSH1 0x20 ADD SWAP1 DUP2 MSTORE PUSH1 0x20 ADD PUSH0 KECCAK256 PUSH0 PUSH2 0x100 EXP DUP2 SLOAD DUP2 PUSH1 0xFF MUL NOT AND SWAP1 DUP4 ISZERO ISZERO MUL OR SWAP1 SSTORE POP PUSH1 0x2 DUP4 SWAP1 DUP1 PUSH1 0x1 DUP2 SLOAD ADD DUP1 DUP3 SSTORE DUP1 SWAP2 POP POP PUSH1 0x1 SWAP1 SUB SWAP1 PUSH0 MSTORE PUSH1 0x20 PUSH0 KECCAK256 ADD PUSH0 SWAP1 SWAP2 SWAP1 SWAP2 SWAP1 SWAP2 PUSH2 0x100 EXP DUP2 SLOAD DUP2 PUSH20 0xFFFFFFFFFFFFFFFFFFFFFFFFFFFFFFFFFFFFFFFF MUL NOT AND SWAP1 DUP4 PUSH20 0xFFFFFFFFFFFFFFFFFFFFFFFFFFFFFFFFFFFFFFFF AND MUL OR SWAP1 SSTORE POP PUSH2 0x3600 DUP4 PUSH0 PUSH2 0x629F JUMP JUMPDEST PUSH1 0x1 SWAP2 POP POP SWAP2 SWAP1 POP JUMP JUMPDEST PUSH1 0x5 PUSH1 0x20 MSTORE DUP1 PUSH0 MSTORE PUSH1 0x40 PUSH0 KECCAK256 PUSH0 SWAP2 POP SWAP1 POP DUP1 PUSH0 ADD PUSH0 SWAP1 SLOAD SWAP1 PUSH2 0x100 EXP SWAP1 DIV PUSH1 0xFF AND SWAP1 DUP1 PUSH0 ADD PUSH1 0x1 SWAP1 SLOAD SWAP1 PUSH2 0x100 EXP SWAP1 DIV PUSH1 0xFF AND SWAP1 DUP1 PUSH0 ADD PUSH1 0x2 SWAP1 SLOAD SWAP1 PUSH2 0x100 EXP SWAP1 DIV PUSH1 0xFF AND SWAP1 DUP1 PUSH0 ADD PUSH1 0x3 SWAP1 SLOAD SWAP1 PUSH2 0x100 EXP SWAP1 DIV PUSH1 0xFF AND SWAP1 DUP1 PUSH0 ADD PUSH1 0x4 SWAP1 SLOAD SWAP1 PUSH2 0x100 EXP SWAP1 DIV PUSH1 0xFF AND SWAP1 DUP1 PUSH0 ADD PUSH1 0x5 SWAP1 SLOAD SWAP1 PUSH2 0x100 EXP SWAP1 DIV PUSH1 0xFF AND SWAP1 POP DUP7 JUMP JUMPDEST PUSH2 0x3692 PUSH2 0x6617 JUMP JUMPDEST PUSH1 0x60 PUSH1 0x3 PUSH0 CALLER PUSH20 0xFFFFFFFFFFFFFFFFFFFFFFFFFFFFFFFFFFFFFFFF AND PUSH20 0xFFFFFFFFFFFFFFFFFFFFFFFFFFFFFFFFFFFFFFFF AND DUP2 MSTORE PUSH1 0x20 ADD SWAP1 DUP2 MSTORE PUSH1 0x20 ADD PUSH0 KECCAK256 PUSH1 0x4 PUSH0 CALLER PUSH20 0xFFFFFFFFFFFFFFFFFFFFFFFFFFFFFFFFFFFFFFFF AND PUSH20 0xFFFFFFFFFFFFFFFFFFFFFFFFFFFFFFFFFFFFFFFF AND DUP2 MSTORE PUSH1 0x20 ADD SWAP1 DUP2 MSTORE PUSH1 0x20 ADD PUSH0 KECCAK256 DUP2 PUSH1 0x40 MLOAD DUP1 PUSH2 0x140 ADD PUSH1 0x40 MSTORE SWAP1 DUP2 PUSH0 DUP3 ADD PUSH0 SWAP1 SLOAD SWAP1 PUSH2 0x100 EXP SWAP1 DIV PUSH20 0xFFFFFFFFFFFFFFFFFFFFFFFFFFFFFFFFFFFFFFFF AND PUSH20 0xFFFFFFFFFFFFFFFFFFFFFFFFFFFFFFFFFFFFFFFF AND PUSH20 0xFFFFFFFFFFFFFFFFFFFFFFFFFFFFFFFFFFFFFFFF AND DUP2 MSTORE PUSH1 0x20 ADD PUSH1 0x1 DUP3 ADD DUP1 SLOAD PUSH2 0x377F SWAP1 PUSH2 0x8183 JUMP JUMPDEST DUP1 PUSH1 0x1F ADD PUSH1 0x20 DUP1 SWAP2 DIV MUL PUSH1 0x20 ADD PUSH1 0x40 MLOAD SWAP1 DUP2 ADD PUSH1 0x40 MSTORE DUP1 SWAP3 SWAP2 SWAP1 DUP2 DUP2 MSTORE PUSH1 0x20 ADD DUP3 DUP1 SLOAD PUSH2 0x37AB SWAP1 PUSH2 0x8183 JUMP JUMPDEST DUP1 ISZERO PUSH2 0x37F6 JUMPI DUP1 PUSH1 0x1F LT PUSH2 0x37CD JUMPI PUSH2 0x100 DUP1 DUP4 SLOAD DIV MUL DUP4 MSTORE SWAP2 PUSH1 0x20 ADD SWAP2 PUSH2 0x37F6 JUMP JUMPDEST DUP3 ADD SWAP2 SWAP1 PUSH0 MSTORE PUSH1 0x20 PUSH0 KECCAK256 SWAP1 JUMPDEST DUP2 SLOAD DUP2 MSTORE SWAP1 PUSH1 0x1 ADD SWAP1 PUSH1 0x20 ADD DUP1 DUP4 GT PUSH2 0x37D9 JUMPI DUP3 SWAP1 SUB PUSH1 0x1F AND DUP3 ADD SWAP2 JUMPDEST POP POP POP POP POP DUP2 MSTORE PUSH1 0x20 ADD PUSH1 0x2 DUP3 ADD DUP1 SLOAD PUSH2 0x380F SWAP1 PUSH2 0x8183 JUMP JUMPDEST DUP1 PUSH1 0x1F ADD PUSH1 0x20 DUP1 SWAP2 DIV MUL PUSH1 0x20 ADD PUSH1 0x40 MLOAD SWAP1 DUP2 ADD PUSH1 0x40 MSTORE DUP1 SWAP3 SWAP2 SWAP1 DUP2 DUP2 MSTORE PUSH1 0x20 ADD DUP3 DUP1 SLOAD PUSH2 0x383B SWAP1 PUSH2 0x8183 JUMP JUMPDEST DUP1 ISZERO PUSH2 0x3886 JUMPI DUP1 PUSH1 0x1F LT PUSH2 0x385D JUMPI PUSH2 0x100 DUP1 DUP4 SLOAD DIV MUL DUP4 MSTORE SWAP2 PUSH1 0x20 ADD SWAP2 PUSH2 0x3886 JUMP JUMPDEST DUP3 ADD SWAP2 SWAP1 PUSH0 MSTORE PUSH1 0x20 PUSH0 KECCAK256 SWAP1 JUMPDEST DUP2 SLOAD DUP2 MSTORE SWAP1 PUSH1 0x1 ADD SWAP1 PUSH1 0x20 ADD DUP1 DUP4 GT PUSH2 0x3869 JUMPI DUP3 SWAP1 SUB PUSH1 0x1F AND DUP3 ADD SWAP2 JUMPDEST POP POP POP POP POP DUP2 MSTORE PUSH1 0x20 ADD PUSH1 0x3 DUP3 ADD PUSH0 SWAP1 SLOAD SWAP1 PUSH2 0x100 EXP SWAP1 DIV PUSH1 0xFF AND PUSH1 0xFF AND PUSH1 0xFF AND DUP2 MSTORE PUSH1 0x20 ADD PUSH1 0x4 DUP3 ADD SLOAD DUP2 MSTORE PUSH1 0x20 ADD PUSH1 0x5 DUP3 ADD DUP1 SLOAD PUSH2 0x38C5 SWAP1 PUSH2 0x8183 JUMP JUMPDEST DUP1 PUSH1 0x1F ADD PUSH1 0x20 DUP1 SWAP2 DIV MUL PUSH1 0x20 ADD PUSH1 0x40 MLOAD SWAP1 DUP2 ADD PUSH1 0x40 MSTORE DUP1 SWAP3 SWAP2 SWAP1 DUP2 DUP2 MSTORE PUSH1 0x20 ADD DUP3 DUP1 SLOAD PUSH2 0x38F1 SWAP1 PUSH2 0x8183 JUMP JUMPDEST DUP1 ISZERO PUSH2 0x393C JUMPI DUP1 PUSH1 0x1F LT PUSH2 0x3913 JUMPI PUSH2 0x100 DUP1 DUP4 SLOAD DIV MUL DUP4 MSTORE SWAP2 PUSH1 0x20 ADD SWAP2 PUSH2 0x393C JUMP JUMPDEST DUP3 ADD SWAP2 SWAP1 PUSH0 MSTORE PUSH1 0x20 PUSH0 KECCAK256 SWAP1 JUMPDEST DUP2 SLOAD DUP2 MSTORE SWAP1 PUSH1 0x1 ADD SWAP1 PUSH1 0x20 ADD DUP1 DUP4 GT PUSH2 0x391F JUMPI DUP3 SWAP1 SUB PUSH1 0x1F AND DUP3 ADD SWAP2 JUMPDEST POP POP POP POP POP DUP2 MSTORE PUSH1 0x20 ADD PUSH1 0x6 DUP3 ADD DUP1 SLOAD PUSH2 0x3955 SWAP1 PUSH2 0x8183 JUMP JUMPDEST DUP1 PUSH1 0x1F ADD PUSH1 0x20 DUP1 SWAP2 DIV MUL PUSH1 0x20 ADD PUSH1 0x40 MLOAD SWAP1 DUP2 ADD PUSH1 0x40 MSTORE DUP1 SWAP3 SWAP2 SWAP1 DUP2 DUP2 MSTORE PUSH1 0x20 ADD DUP3 DUP1 SLOAD PUSH2 0x3981 SWAP1 PUSH2 0x8183 JUMP JUMPDEST DUP1 ISZERO PUSH2 0x39CC JUMPI DUP1 PUSH1 0x1F LT PUSH2 0x39A3 JUMPI PUSH2 0x100 DUP1 DUP4 SLOAD DIV MUL DUP4 MSTORE SWAP2 PUSH1 0x20 ADD SWAP2 PUSH2 0x39CC JUMP JUMPDEST DUP3 ADD SWAP2 SWAP1 PUSH0 MSTORE PUSH1 0x20 PUSH0 KECCAK256 SWAP1 JUMPDEST DUP2 SLOAD DUP2 MSTORE SWAP1 PUSH1 0x1 ADD SWAP1 PUSH1 0x20 ADD DUP1 DUP4 GT PUSH2 0x39AF JUMPI DUP3 SWAP1 SUB PUSH1 0x1F AND DUP3 ADD SWAP2 JUMPDEST POP POP POP POP POP DUP2 MSTORE PUSH1 0x20 ADD PUSH1 0x7 DUP3 ADD PUSH0 SWAP1 SLOAD SWAP1 PUSH2 0x100 EXP SWAP1 DIV PUSH1 0xFF AND PUSH1 0x2 DUP2 GT ISZERO PUSH2 0x39F9 JUMPI PUSH2 0x39F8 PUSH2 0x6DC1 JUMP JUMPDEST JUMPDEST PUSH1 0x2 DUP2 GT ISZERO PUSH2 0x3A0B JUMPI PUSH2 0x3A0A PUSH2 0x6DC1 JUMP JUMPDEST JUMPDEST DUP2 MSTORE PUSH1 0x20 ADD PUSH1 0x8 DUP3 ADD SLOAD DUP2 MSTORE PUSH1 0x20 ADD PUSH1 0x9 DUP3 ADD PUSH0 SWAP1 SLOAD SWAP1 PUSH2 0x100 EXP SWAP1 DIV PUSH20 0xFFFFFFFFFFFFFFFFFFFFFFFFFFFFFFFFFFFFFFFF AND PUSH20 0xFFFFFFFFFFFFFFFFFFFFFFFFFFFFFFFFFFFFFFFF AND PUSH20 0xFFFFFFFFFFFFFFFFFFFFFFFFFFFFFFFFFFFFFFFF AND DUP2 MSTORE POP POP SWAP2 POP DUP1 DUP1 SLOAD DUP1 PUSH1 0x20 MUL PUSH1 0x20 ADD PUSH1 0x40 MLOAD SWAP1 DUP2 ADD PUSH1 0x40 MSTORE DUP1 SWAP3 SWAP2 SWAP1 DUP2 DUP2 MSTORE PUSH1 0x20 ADD PUSH0 SWAP1 JUMPDEST DUP3 DUP3 LT ISZERO PUSH2 0x3D8F JUMPI DUP4 DUP3 SWAP1 PUSH0 MSTORE PUSH1 0x20 PUSH0 KECCAK256 SWAP1 PUSH1 0x5 MUL ADD PUSH1 0x40 MLOAD DUP1 PUSH1 0xA0 ADD PUSH1 0x40 MSTORE SWAP1 DUP2 PUSH0 DUP3 ADD DUP1 SLOAD PUSH2 0x3AC0 SWAP1 PUSH2 0x8183 JUMP JUMPDEST DUP1 PUSH1 0x1F ADD PUSH1 0x20 DUP1 SWAP2 DIV MUL PUSH1 0x20 ADD PUSH1 0x40 MLOAD SWAP1 DUP2 ADD PUSH1 0x40 MSTORE DUP1 SWAP3 SWAP2 SWAP1 DUP2 DUP2 MSTORE PUSH1 0x20 ADD DUP3 DUP1 SLOAD PUSH2 0x3AEC SWAP1 PUSH2 0x8183 JUMP JUMPDEST DUP1 ISZERO PUSH2 0x3B37 JUMPI DUP1 PUSH1 0x1F LT PUSH2 0x3B0E JUMPI PUSH2 0x100 DUP1 DUP4 SLOAD DIV MUL DUP4 MSTORE SWAP2 PUSH1 0x20 ADD SWAP2 PUSH2 0x3B37 JUMP JUMPDEST DUP3 ADD SWAP2 SWAP1 PUSH0 MSTORE PUSH1 0x20 PUSH0 KECCAK256 SWAP1 JUMPDEST DUP2 SLOAD DUP2 MSTORE SWAP1 PUSH1 0x1 ADD SWAP1 PUSH1 0x20 ADD DUP1 DUP4 GT PUSH2 0x3B1A JUMPI DUP3 SWAP1 SUB PUSH1 0x1F AND DUP3 ADD SWAP2 JUMPDEST POP POP POP POP POP DUP2 MSTORE PUSH1 0x20 ADD PUSH1 0x1 DUP3 ADD DUP1 SLOAD PUSH2 0x3B50 SWAP1 PUSH2 0x8183 JUMP JUMPDEST DUP1 PUSH1 0x1F ADD PUSH1 0x20 DUP1 SWAP2 DIV MUL PUSH1 0x20 ADD PUSH1 0x40 MLOAD SWAP1 DUP2 ADD PUSH1 0x40 MSTORE DUP1 SWAP3 SWAP2 SWAP1 DUP2 DUP2 MSTORE PUSH1 0x20 ADD DUP3 DUP1 SLOAD PUSH2 0x3B7C SWAP1 PUSH2 0x8183 JUMP JUMPDEST DUP1 ISZERO PUSH2 0x3BC7 JUMPI DUP1 PUSH1 0x1F LT PUSH2 0x3B9E JUMPI PUSH2 0x100 DUP1 DUP4 SLOAD DIV MUL DUP4 MSTORE SWAP2 PUSH1 0x20 ADD SWAP2 PUSH2 0x3BC7 JUMP JUMPDEST DUP3 ADD SWAP2 SWAP1 PUSH0 MSTORE PUSH1 0x20 PUSH0 KECCAK256 SWAP1 JUMPDEST DUP2 SLOAD DUP2 MSTORE SWAP1 PUSH1 0x1 ADD SWAP1 PUSH1 0x20 ADD DUP1 DUP4 GT PUSH2 0x3BAA JUMPI DUP3 SWAP1 SUB PUSH1 0x1F AND DUP3 ADD SWAP2 JUMPDEST POP POP POP POP POP DUP2 MSTORE PUSH1 0x20 ADD PUSH1 0x2 DUP3 ADD DUP1 SLOAD PUSH2 0x3BE0 SWAP1 PUSH2 0x8183 JUMP JUMPDEST DUP1 PUSH1 0x1F ADD PUSH1 0x20 DUP1 SWAP2 DIV MUL PUSH1 0x20 ADD PUSH1 0x40 MLOAD SWAP1 DUP2 ADD PUSH1 0x40 MSTORE DUP1 SWAP3 SWAP2 SWAP1 DUP2 DUP2 MSTORE PUSH1 0x20 ADD DUP3 DUP1 SLOAD PUSH2 0x3C0C SWAP1 PUSH2 0x8183 JUMP JUMPDEST DUP1 ISZERO PUSH2 0x3C57 JUMPI DUP1 PUSH1 0x1F LT PUSH2 0x3C2E JUMPI PUSH2 0x100 DUP1 DUP4 SLOAD DIV MUL DUP4 MSTORE SWAP2 PUSH1 0x20 ADD SWAP2 PUSH2 0x3C57 JUMP JUMPDEST DUP3 ADD SWAP2 SWAP1 PUSH0 MSTORE PUSH1 0x20 PUSH0 KECCAK256 SWAP1 JUMPDEST DUP2 SLOAD DUP2 MSTORE SWAP1 PUSH1 0x1 ADD SWAP1 PUSH1 0x20 ADD DUP1 DUP4 GT PUSH2 0x3C3A JUMPI DUP3 SWAP1 SUB PUSH1 0x1F AND DUP3 ADD SWAP2 JUMPDEST POP POP POP POP POP DUP2 MSTORE PUSH1 0x20 ADD PUSH1 0x3 DUP3 ADD DUP1 SLOAD PUSH2 0x3C70 SWAP1 PUSH2 0x8183 JUMP JUMPDEST DUP1 PUSH1 0x1F ADD PUSH1 0x20 DUP1 SWAP2 DIV MUL PUSH1 0x20 ADD PUSH1 0x40 MLOAD SWAP1 DUP2 ADD PUSH1 0x40 MSTORE DUP1 SWAP3 SWAP2 SWAP1 DUP2 DUP2 MSTORE PUSH1 0x20 ADD DUP3 DUP1 SLOAD PUSH2 0x3C9C SWAP1 PUSH2 0x8183 JUMP JUMPDEST DUP1 ISZERO PUSH2 0x3CE7 JUMPI DUP1 PUSH1 0x1F LT PUSH2 0x3CBE JUMPI PUSH2 0x100 DUP1 DUP4 SLOAD DIV MUL DUP4 MSTORE SWAP2 PUSH1 0x20 ADD SWAP2 PUSH2 0x3CE7 JUMP JUMPDEST DUP3 ADD SWAP2 SWAP1 PUSH0 MSTORE PUSH1 0x20 PUSH0 KECCAK256 SWAP1 JUMPDEST DUP2 SLOAD DUP2 MSTORE SWAP1 PUSH1 0x1 ADD SWAP1 PUSH1 0x20 ADD DUP1 DUP4 GT PUSH2 0x3CCA JUMPI DUP3 SWAP1 SUB PUSH1 0x1F AND DUP3 ADD SWAP2 JUMPDEST POP POP POP POP POP DUP2 MSTORE PUSH1 0x20 ADD PUSH1 0x4 DUP3 ADD DUP1 SLOAD PUSH2 0x3D00 SWAP1 PUSH2 0x8183 JUMP JUMPDEST DUP1 PUSH1 0x1F ADD PUSH1 0x20 DUP1 SWAP2 DIV MUL PUSH1 0x20 ADD PUSH1 0x40 MLOAD SWAP1 DUP2 ADD PUSH1 0x40 MSTORE DUP1 SWAP3 SWAP2 SWAP1 DUP2 DUP2 MSTORE PUSH1 0x20 ADD DUP3 DUP1 SLOAD PUSH2 0x3D2C SWAP1 PUSH2 0x8183 JUMP JUMPDEST DUP1 ISZERO PUSH2 0x3D77 JUMPI DUP1 PUSH1 0x1F LT PUSH2 0x3D4E JUMPI PUSH2 0x100 DUP1 DUP4 SLOAD DIV MUL DUP4 MSTORE SWAP2 PUSH1 0x20 ADD SWAP2 PUSH2 0x3D77 JUMP JUMPDEST DUP3 ADD SWAP2 SWAP1 PUSH0 MSTORE PUSH1 0x20 PUSH0 KECCAK256 SWAP1 JUMPDEST DUP2 SLOAD DUP2 MSTORE SWAP1 PUSH1 0x1 ADD SWAP1 PUSH1 0x20 ADD DUP1 DUP4 GT PUSH2 0x3D5A JUMPI DUP3 SWAP1 SUB PUSH1 0x1F AND DUP3 ADD SWAP2 JUMPDEST POP POP POP POP POP DUP2 MSTORE POP POP DUP2 MSTORE PUSH1 0x20 ADD SWAP1 PUSH1 0x1 ADD SWAP1 PUSH2 0x3A90 JUMP JUMPDEST POP POP POP POP SWAP1 POP SWAP2 POP SWAP2 POP SWAP1 SWAP2 JUMP JUMPDEST PUSH0 DUP1 PUSH0 SWAP1 SLOAD SWAP1 PUSH2 0x100 EXP SWAP1 DIV PUSH20 0xFFFFFFFFFFFFFFFFFFFFFFFFFFFFFFFFFFFFFFFF AND DUP1 PUSH20 0xFFFFFFFFFFFFFFFFFFFFFFFFFFFFFFFFFFFFFFFF AND CALLER PUSH20 0xFFFFFFFFFFFFFFFFFFFFFFFFFFFFFFFFFFFFFFFF AND EQ PUSH2 0x3E2D JUMPI PUSH1 0x40 MLOAD PUSH32 0x8C379A000000000000000000000000000000000000000000000000000000000 DUP2 MSTORE PUSH1 0x4 ADD PUSH2 0x3E24 SWAP1 PUSH2 0x84AA JUMP JUMPDEST PUSH1 0x40 MLOAD DUP1 SWAP2 SUB SWAP1 REVERT JUMPDEST DUP3 PUSH1 0xB PUSH0 PUSH2 0x100 EXP DUP2 SLOAD DUP2 PUSH20 0xFFFFFFFFFFFFFFFFFFFFFFFFFFFFFFFFFFFFFFFF MUL NOT AND SWAP1 DUP4 PUSH20 0xFFFFFFFFFFFFFFFFFFFFFFFFFFFFFFFFFFFFFFFF AND MUL OR SWAP1 SSTORE POP PUSH1 0x1 SWAP2 POP POP SWAP2 SWAP1 POP JUMP JUMPDEST PUSH0 DUP1 SLOAD SWAP1 PUSH2 0x100 EXP SWAP1 DIV PUSH20 0xFFFFFFFFFFFFFFFFFFFFFFFFFFFFFFFFFFFFFFFF AND DUP2 JUMP JUMPDEST PUSH0 DUP1 PUSH0 SWAP1 SLOAD SWAP1 PUSH2 0x100 EXP SWAP1 DIV PUSH20 0xFFFFFFFFFFFFFFFFFFFFFFFFFFFFFFFFFFFFFFFF AND DUP1 PUSH20 0xFFFFFFFFFFFFFFFFFFFFFFFFFFFFFFFFFFFFFFFF AND CALLER PUSH20 0xFFFFFFFFFFFFFFFFFFFFFFFFFFFFFFFFFFFFFFFF AND EQ PUSH2 0x3F2A JUMPI PUSH1 0x40 MLOAD PUSH32 0x8C379A000000000000000000000000000000000000000000000000000000000 DUP2 MSTORE PUSH1 0x4 ADD PUSH2 0x3F21 SWAP1 PUSH2 0x84AA JUMP JUMPDEST PUSH1 0x40 MLOAD DUP1 SWAP2 SUB SWAP1 REVERT JUMPDEST PUSH1 0x3 PUSH0 DUP5 PUSH20 0xFFFFFFFFFFFFFFFFFFFFFFFFFFFFFFFFFFFFFFFF AND PUSH20 0xFFFFFFFFFFFFFFFFFFFFFFFFFFFFFFFFFFFFFFFF AND DUP2 MSTORE PUSH1 0x20 ADD SWAP1 DUP2 MSTORE PUSH1 0x20 ADD PUSH0 KECCAK256 PUSH0 DUP1 DUP3 ADD PUSH0 PUSH2 0x100 EXP DUP2 SLOAD SWAP1 PUSH20 0xFFFFFFFFFFFFFFFFFFFFFFFFFFFFFFFFFFFFFFFF MUL NOT AND SWAP1 SSTORE PUSH1 0x1 DUP3 ADD PUSH0 PUSH2 0x3F9C SWAP2 SWAP1 PUSH2 0x657D JUMP JUMPDEST PUSH1 0x2 DUP3 ADD PUSH0 PUSH2 0x3FAB SWAP2 SWAP1 PUSH2 0x657D JUMP JUMPDEST PUSH1 0x3 DUP3 ADD PUSH0 PUSH2 0x100 EXP DUP2 SLOAD SWAP1 PUSH1 0xFF MUL NOT AND SWAP1 SSTORE PUSH1 0x4 DUP3 ADD PUSH0 SWAP1 SSTORE PUSH1 0x5 DUP3 ADD PUSH0 PUSH2 0x3FD4 SWAP2 SWAP1 PUSH2 0x657D JUMP JUMPDEST PUSH1 0x6 DUP3 ADD PUSH0 PUSH2 0x3FE3 SWAP2 SWAP1 PUSH2 0x657D JUMP JUMPDEST PUSH1 0x7 DUP3 ADD PUSH0 PUSH2 0x100 EXP DUP2 SLOAD SWAP1 PUSH1 0xFF MUL NOT AND SWAP1 SSTORE PUSH1 0x8 DUP3 ADD PUSH0 SWAP1 SSTORE PUSH1 0x9 DUP3 ADD PUSH0 PUSH2 0x100 EXP DUP2 SLOAD SWAP1 PUSH20 0xFFFFFFFFFFFFFFFFFFFFFFFFFFFFFFFFFFFFFFFF MUL NOT AND SWAP1 SSTORE POP POP PUSH1 0x4 PUSH0 DUP5 PUSH20 0xFFFFFFFFFFFFFFFFFFFFFFFFFFFFFFFFFFFFFFFF AND PUSH20 0xFFFFFFFFFFFFFFFFFFFFFFFFFFFFFFFFFFFFFFFF AND DUP2 MSTORE PUSH1 0x20 ADD SWAP1 DUP2 MSTORE PUSH1 0x20 ADD PUSH0 KECCAK256 PUSH0 PUSH2 0x406D SWAP2 SWAP1 PUSH2 0x65BA JUMP JUMPDEST PUSH0 JUMPDEST PUSH1 0x7 DUP1 SLOAD SWAP1 POP DUP2 LT ISZERO PUSH2 0x41E2 JUMPI DUP4 PUSH20 0xFFFFFFFFFFFFFFFFFFFFFFFFFFFFFFFFFFFFFFFF AND PUSH1 0x7 DUP3 DUP2 SLOAD DUP2 LT PUSH2 0x40A7 JUMPI PUSH2 0x40A6 PUSH2 0x8092 JUMP JUMPDEST JUMPDEST SWAP1 PUSH0 MSTORE PUSH1 0x20 PUSH0 KECCAK256 ADD PUSH0 SWAP1 SLOAD SWAP1 PUSH2 0x100 EXP SWAP1 DIV PUSH20 0xFFFFFFFFFFFFFFFFFFFFFFFFFFFFFFFFFFFFFFFF AND PUSH20 0xFFFFFFFFFFFFFFFFFFFFFFFFFFFFFFFFFFFFFFFF AND SUB PUSH2 0x41D5 JUMPI PUSH1 0x7 PUSH1 0x1 PUSH1 0x7 DUP1 SLOAD SWAP1 POP PUSH2 0x40FE SWAP2 SWAP1 PUSH2 0x80EC JUMP JUMPDEST DUP2 SLOAD DUP2 LT PUSH2 0x410F JUMPI PUSH2 0x410E PUSH2 0x8092 JUMP JUMPDEST JUMPDEST SWAP1 PUSH0 MSTORE PUSH1 0x20 PUSH0 KECCAK256 ADD PUSH0 SWAP1 SLOAD SWAP1 PUSH2 0x100 EXP SWAP1 DIV PUSH20 0xFFFFFFFFFFFFFFFFFFFFFFFFFFFFFFFFFFFFFFFF AND PUSH1 0x7 DUP3 DUP2 SLOAD DUP2 LT PUSH2 0x414B JUMPI PUSH2 0x414A PUSH2 0x8092 JUMP JUMPDEST JUMPDEST SWAP1 PUSH0 MSTORE PUSH1 0x20 PUSH0 KECCAK256 ADD PUSH0 PUSH2 0x100 EXP DUP2 SLOAD DUP2 PUSH20 0xFFFFFFFFFFFFFFFFFFFFFFFFFFFFFFFFFFFFFFFF MUL NOT AND SWAP1 DUP4 PUSH20 0xFFFFFFFFFFFFFFFFFFFFFFFFFFFFFFFFFFFFFFFF AND MUL OR SWAP1 SSTORE POP PUSH1 0x7 DUP1 SLOAD DUP1 PUSH2 0x41A2 JUMPI PUSH2 0x41A1 PUSH2 0x811F JUMP JUMPDEST JUMPDEST PUSH1 0x1 SWAP1 SUB DUP2 DUP2 SWAP1 PUSH0 MSTORE PUSH1 0x20 PUSH0 KECCAK256 ADD PUSH0 PUSH2 0x100 EXP DUP2 SLOAD SWAP1 PUSH20 0xFFFFFFFFFFFFFFFFFFFFFFFFFFFFFFFFFFFFFFFF MUL NOT AND SWAP1 SSTORE SWAP1 SSTORE JUMPDEST DUP1 DUP1 PUSH1 0x1 ADD SWAP2 POP POP PUSH2 0x406F JUMP JUMPDEST POP PUSH1 0x1 SWAP2 POP POP SWAP2 SWAP1 POP JUMP JUMPDEST PUSH0 DUP1 PUSH0 SWAP1 SLOAD SWAP1 PUSH2 0x100 EXP SWAP1 DIV PUSH20 0xFFFFFFFFFFFFFFFFFFFFFFFFFFFFFFFFFFFFFFFF AND DUP1 PUSH20 0xFFFFFFFFFFFFFFFFFFFFFFFFFFFFFFFFFFFFFFFF AND CALLER PUSH20 0xFFFFFFFFFFFFFFFFFFFFFFFFFFFFFFFFFFFFFFFF AND EQ PUSH2 0x427D JUMPI PUSH1 0x40 MLOAD PUSH32 0x8C379A000000000000000000000000000000000000000000000000000000000 DUP2 MSTORE PUSH1 0x4 ADD PUSH2 0x4274 SWAP1 PUSH2 0x84AA JUMP JUMPDEST PUSH1 0x40 MLOAD DUP1 SWAP2 SUB SWAP1 REVERT JUMPDEST PUSH1 0x40 MLOAD DUP1 PUSH1 0xC0 ADD PUSH1 0x40 MSTORE DUP1 DUP10 ISZERO ISZERO DUP2 MSTORE PUSH1 0x20 ADD DUP9 ISZERO ISZERO DUP2 MSTORE PUSH1 0x20 ADD DUP8 ISZERO ISZERO DUP2 MSTORE PUSH1 0x20 ADD DUP7 ISZERO ISZERO DUP2 MSTORE PUSH1 0x20 ADD DUP6 ISZERO ISZERO DUP2 MSTORE PUSH1 0x20 ADD DUP5 ISZERO ISZERO DUP2 MSTORE POP PUSH1 0x5 PUSH0 CALLER PUSH20 0xFFFFFFFFFFFFFFFFFFFFFFFFFFFFFFFFFFFFFFFF AND PUSH20 0xFFFFFFFFFFFFFFFFFFFFFFFFFFFFFFFFFFFFFFFF AND DUP2 MSTORE PUSH1 0x20 ADD SWAP1 DUP2 MSTORE PUSH1 0x20 ADD PUSH0 KECCAK256 PUSH0 DUP3 ADD MLOAD DUP2 PUSH0 ADD PUSH0 PUSH2 0x100 EXP DUP2 SLOAD DUP2 PUSH1 0xFF MUL NOT AND SWAP1 DUP4 ISZERO ISZERO MUL OR SWAP1 SSTORE POP PUSH1 0x20 DUP3 ADD MLOAD DUP2 PUSH0 ADD PUSH1 0x1 PUSH2 0x100 EXP DUP2 SLOAD DUP2 PUSH1 0xFF MUL NOT AND SWAP1 DUP4 ISZERO ISZERO MUL OR SWAP1 SSTORE POP PUSH1 0x40 DUP3 ADD MLOAD DUP2 PUSH0 ADD PUSH1 0x2 PUSH2 0x100 EXP DUP2 SLOAD DUP2 PUSH1 0xFF MUL NOT AND SWAP1 DUP4 ISZERO ISZERO MUL OR SWAP1 SSTORE POP PUSH1 0x60 DUP3 ADD MLOAD DUP2 PUSH0 ADD PUSH1 0x3 PUSH2 0x100 EXP DUP2 SLOAD DUP2 PUSH1 0xFF MUL NOT AND SWAP1 DUP4 ISZERO ISZERO MUL OR SWAP1 SSTORE POP PUSH1 0x80 DUP3 ADD MLOAD DUP2 PUSH0 ADD PUSH1 0x4 PUSH2 0x100 EXP DUP2 SLOAD DUP2 PUSH1 0xFF MUL NOT AND SWAP1 DUP4 ISZERO ISZERO MUL OR SWAP1 SSTORE POP PUSH1 0xA0 DUP3 ADD MLOAD DUP2 PUSH0 ADD PUSH1 0x5 PUSH2 0x100 EXP DUP2 SLOAD DUP2 PUSH1 0xFF MUL NOT AND SWAP1 DUP4 ISZERO ISZERO MUL OR SWAP1 SSTORE POP SWAP1 POP POP PUSH1 0x1 SWAP2 POP POP SWAP7 SWAP6 POP POP POP POP POP POP JUMP JUMPDEST PUSH1 0x1 PUSH1 0x20 MSTORE DUP1 PUSH0 MSTORE PUSH1 0x40 PUSH0 KECCAK256 PUSH0 SWAP2 POP SLOAD SWAP1 PUSH2 0x100 EXP SWAP1 DIV PUSH1 0xFF AND DUP2 JUMP JUMPDEST PUSH0 PUSH1 0x5 PUSH0 DUP5 PUSH20 0xFFFFFFFFFFFFFFFFFFFFFFFFFFFFFFFFFFFFFFFF AND PUSH20 0xFFFFFFFFFFFFFFFFFFFFFFFFFFFFFFFFFFFFFFFF AND DUP2 MSTORE PUSH1 0x20 ADD SWAP1 DUP2 MSTORE PUSH1 0x20 ADD PUSH0 KECCAK256 PUSH1 0x40 MLOAD DUP1 PUSH1 0xC0 ADD PUSH1 0x40 MSTORE SWAP1 DUP2 PUSH0 DUP3 ADD PUSH0 SWAP1 SLOAD SWAP1 PUSH2 0x100 EXP SWAP1 DIV PUSH1 0xFF AND ISZERO ISZERO ISZERO ISZERO DUP2 MSTORE PUSH1 0x20 ADD PUSH0 DUP3 ADD PUSH1 0x1 SWAP1 SLOAD SWAP1 PUSH2 0x100 EXP SWAP1 DIV PUSH1 0xFF AND ISZERO ISZERO ISZERO ISZERO DUP2 MSTORE PUSH1 0x20 ADD PUSH0 DUP3 ADD PUSH1 0x2 SWAP1 SLOAD SWAP1 PUSH2 0x100 EXP SWAP1 DIV PUSH1 0xFF AND ISZERO ISZERO ISZERO ISZERO DUP2 MSTORE PUSH1 0x20 ADD PUSH0 DUP3 ADD PUSH1 0x3 SWAP1 SLOAD SWAP1 PUSH2 0x100 EXP SWAP1 DIV PUSH1 0xFF AND ISZERO ISZERO ISZERO ISZERO DUP2 MSTORE PUSH1 0x20 ADD PUSH0 DUP3 ADD PUSH1 0x4 SWAP1 SLOAD SWAP1 PUSH2 0x100 EXP SWAP1 DIV PUSH1 0xFF AND ISZERO ISZERO ISZERO ISZERO DUP2 MSTORE PUSH1 0x20 ADD PUSH0 DUP3 ADD PUSH1 0x5 SWAP1 SLOAD SWAP1 PUSH2 0x100 EXP SWAP1 DIV PUSH1 0xFF AND ISZERO ISZERO ISZERO ISZERO DUP2 MSTORE POP POP SWAP1 POP PUSH0 PUSH1 0x40 MLOAD PUSH1 0x20 ADD PUSH2 0x44D0 SWAP1 PUSH2 0x8C8F JUMP JUMPDEST PUSH1 0x40 MLOAD PUSH1 0x20 DUP2 DUP4 SUB SUB DUP2 MSTORE SWAP1 PUSH1 0x40 MSTORE DUP1 MLOAD SWAP1 PUSH1 0x20 ADD KECCAK256 DUP4 PUSH1 0x40 MLOAD PUSH1 0x20 ADD PUSH2 0x44F7 SWAP2 SWAP1 PUSH2 0x8CA3 JUMP JUMPDEST PUSH1 0x40 MLOAD PUSH1 0x20 DUP2 DUP4 SUB SUB DUP2 MSTORE SWAP1 PUSH1 0x40 MSTORE DUP1 MLOAD SWAP1 PUSH1 0x20 ADD KECCAK256 EQ DUP1 ISZERO PUSH2 0x451B JUMPI POP DUP2 PUSH1 0x60 ADD MLOAD JUMPDEST ISZERO PUSH2 0x4529 JUMPI PUSH1 0x1 SWAP1 POP PUSH2 0x46C9 JUMP JUMPDEST PUSH1 0x40 MLOAD PUSH1 0x20 ADD PUSH2 0x4538 SWAP1 PUSH2 0x8D03 JUMP JUMPDEST PUSH1 0x40 MLOAD PUSH1 0x20 DUP2 DUP4 SUB SUB DUP2 MSTORE SWAP1 PUSH1 0x40 MSTORE DUP1 MLOAD SWAP1 PUSH1 0x20 ADD KECCAK256 DUP4 PUSH1 0x40 MLOAD PUSH1 0x20 ADD PUSH2 0x455F SWAP2 SWAP1 PUSH2 0x8CA3 JUMP JUMPDEST PUSH1 0x40 MLOAD PUSH1 0x20 DUP2 DUP4 SUB SUB DUP2 MSTORE SWAP1 PUSH1 0x40 MSTORE DUP1 MLOAD SWAP1 PUSH1 0x20 ADD KECCAK256 EQ DUP1 ISZERO PUSH2 0x4583 JUMPI POP DUP2 PUSH1 0x20 ADD MLOAD JUMPDEST ISZERO PUSH2 0x4591 JUMPI PUSH1 0x1 SWAP1 POP PUSH2 0x46C8 JUMP JUMPDEST PUSH1 0x40 MLOAD PUSH1 0x20 ADD PUSH2 0x45A0 SWAP1 PUSH2 0x8D61 JUMP JUMPDEST PUSH1 0x40 MLOAD PUSH1 0x20 DUP2 DUP4 SUB SUB DUP2 MSTORE SWAP1 PUSH1 0x40 MSTORE DUP1 MLOAD SWAP1 PUSH1 0x20 ADD KECCAK256 DUP4 PUSH1 0x40 MLOAD PUSH1 0x20 ADD PUSH2 0x45C7 SWAP2 SWAP1 PUSH2 0x8CA3 JUMP JUMPDEST PUSH1 0x40 MLOAD PUSH1 0x20 DUP2 DUP4 SUB SUB DUP2 MSTORE SWAP1 PUSH1 0x40 MSTORE DUP1 MLOAD SWAP1 PUSH1 0x20 ADD KECCAK256 EQ DUP1 ISZERO PUSH2 0x45EB JUMPI POP DUP2 PUSH1 0x40 ADD MLOAD JUMPDEST ISZERO PUSH2 0x45F9 JUMPI PUSH1 0x1 SWAP1 POP PUSH2 0x46C7 JUMP JUMPDEST PUSH1 0x40 MLOAD PUSH1 0x20 ADD PUSH2 0x4608 SWAP1 PUSH2 0x8DBF JUMP JUMPDEST PUSH1 0x40 MLOAD PUSH1 0x20 DUP2 DUP4 SUB SUB DUP2 MSTORE SWAP1 PUSH1 0x40 MSTORE DUP1 MLOAD SWAP1 PUSH1 0x20 ADD KECCAK256 DUP4 PUSH1 0x40 MLOAD PUSH1 0x20 ADD PUSH2 0x462F SWAP2 SWAP1 PUSH2 0x8CA3 JUMP JUMPDEST PUSH1 0x40 MLOAD PUSH1 0x20 DUP2 DUP4 SUB SUB DUP2 MSTORE SWAP1 PUSH1 0x40 MSTORE DUP1 MLOAD SWAP1 PUSH1 0x20 ADD KECCAK256 EQ DUP1 ISZERO PUSH2 0x4653 JUMPI POP DUP2 PUSH1 0x80 ADD MLOAD JUMPDEST ISZERO PUSH2 0x4661 JUMPI PUSH1 0x1 SWAP1 POP PUSH2 0x46C6 JUMP JUMPDEST PUSH1 0x40 MLOAD PUSH1 0x20 ADD PUSH2 0x4670 SWAP1 PUSH2 0x8E1D JUMP JUMPDEST PUSH1 0x40 MLOAD PUSH1 0x20 DUP2 DUP4 SUB SUB DUP2 MSTORE SWAP1 PUSH1 0x40 MSTORE DUP1 MLOAD SWAP1 PUSH1 0x20 ADD KECCAK256 DUP4 PUSH1 0x40 MLOAD PUSH1 0x20 ADD PUSH2 0x4697 SWAP2 SWAP1 PUSH2 0x8CA3 JUMP JUMPDEST PUSH1 0x40 MLOAD PUSH1 0x20 DUP2 DUP4 SUB SUB DUP2 MSTORE SWAP1 PUSH1 0x40 MSTORE DUP1 MLOAD SWAP1 PUSH1 0x20 ADD KECCAK256 EQ DUP1 ISZERO PUSH2 0x46BB JUMPI POP DUP2 PUSH1 0xA0 ADD MLOAD JUMPDEST ISZERO PUSH2 0x46C5 JUMPI PUSH1 0x1 SWAP1 POP JUMPDEST JUMPDEST JUMPDEST JUMPDEST JUMPDEST DUP1 ISZERO PUSH2 0x4823 JUMPI PUSH0 PUSH1 0x40 MLOAD DUP1 PUSH1 0xA0 ADD PUSH1 0x40 MSTORE DUP1 PUSH1 0xC DUP1 SLOAD PUSH2 0x46E8 SWAP1 PUSH2 0x8183 JUMP JUMPDEST DUP1 PUSH1 0x1F ADD PUSH1 0x20 DUP1 SWAP2 DIV MUL PUSH1 0x20 ADD PUSH1 0x40 MLOAD SWAP1 DUP2 ADD PUSH1 0x40 MSTORE DUP1 SWAP3 SWAP2 SWAP1 DUP2 DUP2 MSTORE PUSH1 0x20 ADD DUP3 DUP1 SLOAD PUSH2 0x4714 SWAP1 PUSH2 0x8183 JUMP JUMPDEST DUP1 ISZERO PUSH2 0x475F JUMPI DUP1 PUSH1 0x1F LT PUSH2 0x4736 JUMPI PUSH2 0x100 DUP1 DUP4 SLOAD DIV MUL DUP4 MSTORE SWAP2 PUSH1 0x20 ADD SWAP2 PUSH2 0x475F JUMP JUMPDEST DUP3 ADD SWAP2 SWAP1 PUSH0 MSTORE PUSH1 0x20 PUSH0 KECCAK256 SWAP1 JUMPDEST DUP2 SLOAD DUP2 MSTORE SWAP1 PUSH1 0x1 ADD SWAP1 PUSH1 0x20 ADD DUP1 DUP4 GT PUSH2 0x4742 JUMPI DUP3 SWAP1 SUB PUSH1 0x1F AND DUP3 ADD SWAP2 JUMPDEST POP POP POP POP POP DUP2 MSTORE PUSH1 0x20 ADD DUP11 DUP2 MSTORE PUSH1 0x20 ADD DUP10 PUSH1 0xFF AND DUP2 MSTORE PUSH1 0x20 ADD DUP9 DUP2 MSTORE PUSH1 0x20 ADD DUP8 DUP2 MSTORE POP SWAP1 POP PUSH1 0x9 PUSH0 SWAP1 SLOAD SWAP1 PUSH2 0x100 EXP SWAP1 DIV PUSH20 0xFFFFFFFFFFFFFFFFFFFFFFFFFFFFFFFFFFFFFFFF AND PUSH20 0xFFFFFFFFFFFFFFFFFFFFFFFFFFFFFFFFFFFFFFFF AND PUSH4 0xF5D34E60 DUP3 DUP8 PUSH1 0x40 MLOAD DUP4 PUSH4 0xFFFFFFFF AND PUSH1 0xE0 SHL DUP2 MSTORE PUSH1 0x4 ADD PUSH2 0x47E0 SWAP3 SWAP2 SWAP1 PUSH2 0x8F0B JUMP JUMPDEST PUSH1 0x20 PUSH1 0x40 MLOAD DUP1 DUP4 SUB DUP2 PUSH0 DUP8 GAS CALL ISZERO DUP1 ISZERO PUSH2 0x47FC JUMPI RETURNDATASIZE PUSH0 DUP1 RETURNDATACOPY RETURNDATASIZE PUSH0 REVERT JUMPDEST POP POP POP POP PUSH1 0x40 MLOAD RETURNDATASIZE PUSH1 0x1F NOT PUSH1 0x1F DUP3 ADD AND DUP3 ADD DUP1 PUSH1 0x40 MSTORE POP DUP2 ADD SWAP1 PUSH2 0x4820 SWAP2 SWAP1 PUSH2 0x8B66 JUMP JUMPDEST POP POP JUMPDEST POP POP POP POP POP POP POP POP JUMP JUMPDEST PUSH1 0xC DUP1 SLOAD PUSH2 0x483A SWAP1 PUSH2 0x8183 JUMP JUMPDEST DUP1 PUSH1 0x1F ADD PUSH1 0x20 DUP1 SWAP2 DIV MUL PUSH1 0x20 ADD PUSH1 0x40 MLOAD SWAP1 DUP2 ADD PUSH1 0x40 MSTORE DUP1 SWAP3 SWAP2 SWAP1 DUP2 DUP2 MSTORE PUSH1 0x20 ADD DUP3 DUP1 SLOAD PUSH2 0x4866 SWAP1 PUSH2 0x8183 JUMP JUMPDEST DUP1 ISZERO PUSH2 0x48B1 JUMPI DUP1 PUSH1 0x1F LT PUSH2 0x4888 JUMPI PUSH2 0x100 DUP1 DUP4 SLOAD DIV MUL DUP4 MSTORE SWAP2 PUSH1 0x20 ADD SWAP2 PUSH2 0x48B1 JUMP JUMPDEST DUP3 ADD SWAP2 SWAP1 PUSH0 MSTORE PUSH1 0x20 PUSH0 KECCAK256 SWAP1 JUMPDEST DUP2 SLOAD DUP2 MSTORE SWAP1 PUSH1 0x1 ADD SWAP1 PUSH1 0x20 ADD DUP1 DUP4 GT PUSH2 0x4894 JUMPI DUP3 SWAP1 SUB PUSH1 0x1F AND DUP3 ADD SWAP2 JUMPDEST POP POP POP POP POP DUP2 JUMP JUMPDEST PUSH1 0x7 DUP2 DUP2 SLOAD DUP2 LT PUSH2 0x48C8 JUMPI PUSH0 DUP1 REVERT JUMPDEST SWAP1 PUSH0 MSTORE PUSH1 0x20 PUSH0 KECCAK256 ADD PUSH0 SWAP2 POP SLOAD SWAP1 PUSH2 0x100 EXP SWAP1 DIV PUSH20 0xFFFFFFFFFFFFFFFFFFFFFFFFFFFFFFFFFFFFFFFF AND DUP2 JUMP JUMPDEST PUSH1 0x6 PUSH1 0x20 MSTORE DUP2 PUSH0 MSTORE PUSH1 0x40 PUSH0 KECCAK256 DUP2 DUP2 SLOAD DUP2 LT PUSH2 0x490D JUMPI PUSH0 DUP1 REVERT JUMPDEST SWAP1 PUSH0 MSTORE PUSH1 0x20 PUSH0 KECCAK256 SWAP1 PUSH1 0x3 MUL ADD PUSH0 SWAP2 POP SWAP2 POP POP DUP1 PUSH0 ADD PUSH0 SWAP1 SLOAD SWAP1 PUSH2 0x100 EXP SWAP1 DIV PUSH1 0xFF AND SWAP1 DUP1 PUSH1 0x1 ADD SLOAD SWAP1 DUP1 PUSH1 0x2 ADD PUSH0 SWAP1 SLOAD SWAP1 PUSH2 0x100 EXP SWAP1 DIV PUSH20 0xFFFFFFFFFFFFFFFFFFFFFFFFFFFFFFFFFFFFFFFF AND SWAP1 POP DUP4 JUMP JUMPDEST PUSH1 0x60 DUP1 PUSH0 PUSH1 0x7 DUP1 SLOAD SWAP1 POP SWAP1 POP DUP1 PUSH8 0xFFFFFFFFFFFFFFFF DUP2 GT ISZERO PUSH2 0x4985 JUMPI PUSH2 0x4984 PUSH2 0x67A0 JUMP JUMPDEST JUMPDEST PUSH1 0x40 MLOAD SWAP1 DUP1 DUP3 MSTORE DUP1 PUSH1 0x20 MUL PUSH1 0x20 ADD DUP3 ADD PUSH1 0x40 MSTORE DUP1 ISZERO PUSH2 0x49BE JUMPI DUP2 PUSH1 0x20 ADD JUMPDEST PUSH2 0x49AB PUSH2 0x6617 JUMP JUMPDEST DUP2 MSTORE PUSH1 0x20 ADD SWAP1 PUSH1 0x1 SWAP1 SUB SWAP1 DUP2 PUSH2 0x49A3 JUMPI SWAP1 POP JUMPDEST POP SWAP3 POP DUP1 PUSH8 0xFFFFFFFFFFFFFFFF DUP2 GT ISZERO PUSH2 0x49DB JUMPI PUSH2 0x49DA PUSH2 0x67A0 JUMP JUMPDEST JUMPDEST PUSH1 0x40 MLOAD SWAP1 DUP1 DUP3 MSTORE DUP1 PUSH1 0x20 MUL PUSH1 0x20 ADD DUP3 ADD PUSH1 0x40 MSTORE DUP1 ISZERO PUSH2 0x4A09 JUMPI DUP2 PUSH1 0x20 ADD PUSH1 0x20 DUP3 MUL DUP1 CALLDATASIZE DUP4 CALLDATACOPY DUP1 DUP3 ADD SWAP2 POP POP SWAP1 POP JUMPDEST POP SWAP2 POP PUSH0 JUMPDEST DUP2 DUP2 LT ISZERO PUSH2 0x4EB3 JUMPI PUSH1 0x3 PUSH0 PUSH1 0x7 DUP4 DUP2 SLOAD DUP2 LT PUSH2 0x4A2D JUMPI PUSH2 0x4A2C PUSH2 0x8092 JUMP JUMPDEST JUMPDEST SWAP1 PUSH0 MSTORE PUSH1 0x20 PUSH0 KECCAK256 ADD PUSH0 SWAP1 SLOAD SWAP1 PUSH2 0x100 EXP SWAP1 DIV PUSH20 0xFFFFFFFFFFFFFFFFFFFFFFFFFFFFFFFFFFFFFFFF AND PUSH20 0xFFFFFFFFFFFFFFFFFFFFFFFFFFFFFFFFFFFFFFFF AND PUSH20 0xFFFFFFFFFFFFFFFFFFFFFFFFFFFFFFFFFFFFFFFF AND DUP2 MSTORE PUSH1 0x20 ADD SWAP1 DUP2 MSTORE PUSH1 0x20 ADD PUSH0 KECCAK256 PUSH1 0x40 MLOAD DUP1 PUSH2 0x140 ADD PUSH1 0x40 MSTORE SWAP1 DUP2 PUSH0 DUP3 ADD PUSH0 SWAP1 SLOAD SWAP1 PUSH2 0x100 EXP SWAP1 DIV PUSH20 0xFFFFFFFFFFFFFFFFFFFFFFFFFFFFFFFFFFFFFFFF AND PUSH20 0xFFFFFFFFFFFFFFFFFFFFFFFFFFFFFFFFFFFFFFFF AND PUSH20 0xFFFFFFFFFFFFFFFFFFFFFFFFFFFFFFFFFFFFFFFF AND DUP2 MSTORE PUSH1 0x20 ADD PUSH1 0x1 DUP3 ADD DUP1 SLOAD PUSH2 0x4AFE SWAP1 PUSH2 0x8183 JUMP JUMPDEST DUP1 PUSH1 0x1F ADD PUSH1 0x20 DUP1 SWAP2 DIV MUL PUSH1 0x20 ADD PUSH1 0x40 MLOAD SWAP1 DUP2 ADD PUSH1 0x40 MSTORE DUP1 SWAP3 SWAP2 SWAP1 DUP2 DUP2 MSTORE PUSH1 0x20 ADD DUP3 DUP1 SLOAD PUSH2 0x4B2A SWAP1 PUSH2 0x8183 JUMP JUMPDEST DUP1 ISZERO PUSH2 0x4B75 JUMPI DUP1 PUSH1 0x1F LT PUSH2 0x4B4C JUMPI PUSH2 0x100 DUP1 DUP4 SLOAD DIV MUL DUP4 MSTORE SWAP2 PUSH1 0x20 ADD SWAP2 PUSH2 0x4B75 JUMP JUMPDEST DUP3 ADD SWAP2 SWAP1 PUSH0 MSTORE PUSH1 0x20 PUSH0 KECCAK256 SWAP1 JUMPDEST DUP2 SLOAD DUP2 MSTORE SWAP1 PUSH1 0x1 ADD SWAP1 PUSH1 0x20 ADD DUP1 DUP4 GT PUSH2 0x4B58 JUMPI DUP3 SWAP1 SUB PUSH1 0x1F AND DUP3 ADD SWAP2 JUMPDEST POP POP POP POP POP DUP2 MSTORE PUSH1 0x20 ADD PUSH1 0x2 DUP3 ADD DUP1 SLOAD PUSH2 0x4B8E SWAP1 PUSH2 0x8183 JUMP JUMPDEST DUP1 PUSH1 0x1F ADD PUSH1 0x20 DUP1 SWAP2 DIV MUL PUSH1 0x20 ADD PUSH1 0x40 MLOAD SWAP1 DUP2 ADD PUSH1 0x40 MSTORE DUP1 SWAP3 SWAP2 SWAP1 DUP2 DUP2 MSTORE PUSH1 0x20 ADD DUP3 DUP1 SLOAD PUSH2 0x4BBA SWAP1 PUSH2 0x8183 JUMP JUMPDEST DUP1 ISZERO PUSH2 0x4C05 JUMPI DUP1 PUSH1 0x1F LT PUSH2 0x4BDC JUMPI PUSH2 0x100 DUP1 DUP4 SLOAD DIV MUL DUP4 MSTORE SWAP2 PUSH1 0x20 ADD SWAP2 PUSH2 0x4C05 JUMP JUMPDEST DUP3 ADD SWAP2 SWAP1 PUSH0 MSTORE PUSH1 0x20 PUSH0 KECCAK256 SWAP1 JUMPDEST DUP2 SLOAD DUP2 MSTORE SWAP1 PUSH1 0x1 ADD SWAP1 PUSH1 0x20 ADD DUP1 DUP4 GT PUSH2 0x4BE8 JUMPI DUP3 SWAP1 SUB PUSH1 0x1F AND DUP3 ADD SWAP2 JUMPDEST POP POP POP POP POP DUP2 MSTORE PUSH1 0x20 ADD PUSH1 0x3 DUP3 ADD PUSH0 SWAP1 SLOAD SWAP1 PUSH2 0x100 EXP SWAP1 DIV PUSH1 0xFF AND PUSH1 0xFF AND PUSH1 0xFF AND DUP2 MSTORE PUSH1 0x20 ADD PUSH1 0x4 DUP3 ADD SLOAD DUP2 MSTORE PUSH1 0x20 ADD PUSH1 0x5 DUP3 ADD DUP1 SLOAD PUSH2 0x4C44 SWAP1 PUSH2 0x8183 JUMP JUMPDEST DUP1 PUSH1 0x1F ADD PUSH1 0x20 DUP1 SWAP2 DIV MUL PUSH1 0x20 ADD PUSH1 0x40 MLOAD SWAP1 DUP2 ADD PUSH1 0x40 MSTORE DUP1 SWAP3 SWAP2 SWAP1 DUP2 DUP2 MSTORE PUSH1 0x20 ADD DUP3 DUP1 SLOAD PUSH2 0x4C70 SWAP1 PUSH2 0x8183 JUMP JUMPDEST DUP1 ISZERO PUSH2 0x4CBB JUMPI DUP1 PUSH1 0x1F LT PUSH2 0x4C92 JUMPI PUSH2 0x100 DUP1 DUP4 SLOAD DIV MUL DUP4 MSTORE SWAP2 PUSH1 0x20 ADD SWAP2 PUSH2 0x4CBB JUMP JUMPDEST DUP3 ADD SWAP2 SWAP1 PUSH0 MSTORE PUSH1 0x20 PUSH0 KECCAK256 SWAP1 JUMPDEST DUP2 SLOAD DUP2 MSTORE SWAP1 PUSH1 0x1 ADD SWAP1 PUSH1 0x20 ADD DUP1 DUP4 GT PUSH2 0x4C9E JUMPI DUP3 SWAP1 SUB PUSH1 0x1F AND DUP3 ADD SWAP2 JUMPDEST POP POP POP POP POP DUP2 MSTORE PUSH1 0x20 ADD PUSH1 0x6 DUP3 ADD DUP1 SLOAD PUSH2 0x4CD4 SWAP1 PUSH2 0x8183 JUMP JUMPDEST DUP1 PUSH1 0x1F ADD PUSH1 0x20 DUP1 SWAP2 DIV MUL PUSH1 0x20 ADD PUSH1 0x40 MLOAD SWAP1 DUP2 ADD PUSH1 0x40 MSTORE DUP1 SWAP3 SWAP2 SWAP1 DUP2 DUP2 MSTORE PUSH1 0x20 ADD DUP3 DUP1 SLOAD PUSH2 0x4D00 SWAP1 PUSH2 0x8183 JUMP JUMPDEST DUP1 ISZERO PUSH2 0x4D4B JUMPI DUP1 PUSH1 0x1F LT PUSH2 0x4D22 JUMPI PUSH2 0x100 DUP1 DUP4 SLOAD DIV MUL DUP4 MSTORE SWAP2 PUSH1 0x20 ADD SWAP2 PUSH2 0x4D4B JUMP JUMPDEST DUP3 ADD SWAP2 SWAP1 PUSH0 MSTORE PUSH1 0x20 PUSH0 KECCAK256 SWAP1 JUMPDEST DUP2 SLOAD DUP2 MSTORE SWAP1 PUSH1 0x1 ADD SWAP1 PUSH1 0x20 ADD DUP1 DUP4 GT PUSH2 0x4D2E JUMPI DUP3 SWAP1 SUB PUSH1 0x1F AND DUP3 ADD SWAP2 JUMPDEST POP POP POP POP POP DUP2 MSTORE PUSH1 0x20 ADD PUSH1 0x7 DUP3 ADD PUSH0 SWAP1 SLOAD SWAP1 PUSH2 0x100 EXP SWAP1 DIV PUSH1 0xFF AND PUSH1 0x2 DUP2 GT ISZERO PUSH2 0x4D78 JUMPI PUSH2 0x4D77 PUSH2 0x6DC1 JUMP JUMPDEST JUMPDEST PUSH1 0x2 DUP2 GT ISZERO PUSH2 0x4D8A JUMPI PUSH2 0x4D89 PUSH2 0x6DC1 JUMP JUMPDEST JUMPDEST DUP2 MSTORE PUSH1 0x20 ADD PUSH1 0x8 DUP3 ADD SLOAD DUP2 MSTORE PUSH1 0x20 ADD PUSH1 0x9 DUP3 ADD PUSH0 SWAP1 SLOAD SWAP1 PUSH2 0x100 EXP SWAP1 DIV PUSH20 0xFFFFFFFFFFFFFFFFFFFFFFFFFFFFFFFFFFFFFFFF AND PUSH20 0xFFFFFFFFFFFFFFFFFFFFFFFFFFFFFFFFFFFFFFFF AND PUSH20 0xFFFFFFFFFFFFFFFFFFFFFFFFFFFFFFFFFFFFFFFF AND DUP2 MSTORE POP POP DUP5 DUP3 DUP2 MLOAD DUP2 LT PUSH2 0x4E00 JUMPI PUSH2 0x4DFF PUSH2 0x8092 JUMP JUMPDEST JUMPDEST PUSH1 0x20 MUL PUSH1 0x20 ADD ADD DUP2 SWAP1 MSTORE POP PUSH1 0x6 PUSH0 PUSH1 0x7 DUP4 DUP2 SLOAD DUP2 LT PUSH2 0x4E22 JUMPI PUSH2 0x4E21 PUSH2 0x8092 JUMP JUMPDEST JUMPDEST SWAP1 PUSH0 MSTORE PUSH1 0x20 PUSH0 KECCAK256 ADD PUSH0 SWAP1 SLOAD SWAP1 PUSH2 0x100 EXP SWAP1 DIV PUSH20 0xFFFFFFFFFFFFFFFFFFFFFFFFFFFFFFFFFFFFFFFF AND PUSH20 0xFFFFFFFFFFFFFFFFFFFFFFFFFFFFFFFFFFFFFFFF AND PUSH20 0xFFFFFFFFFFFFFFFFFFFFFFFFFFFFFFFFFFFFFFFF AND DUP2 MSTORE PUSH1 0x20 ADD SWAP1 DUP2 MSTORE PUSH1 0x20 ADD PUSH0 KECCAK256 DUP1 SLOAD SWAP1 POP DUP4 DUP3 DUP2 MLOAD DUP2 LT PUSH2 0x4E9A JUMPI PUSH2 0x4E99 PUSH2 0x8092 JUMP JUMPDEST JUMPDEST PUSH1 0x20 MUL PUSH1 0x20 ADD ADD DUP2 DUP2 MSTORE POP POP DUP1 DUP1 PUSH1 0x1 ADD SWAP2 POP POP PUSH2 0x4A0E JUMP JUMPDEST POP POP SWAP1 SWAP2 JUMP JUMPDEST PUSH0 PUSH1 0x2 DUP1 DUP2 GT ISZERO PUSH2 0x4ECD JUMPI PUSH2 0x4ECC PUSH2 0x6DC1 JUMP JUMPDEST JUMPDEST PUSH1 0x3 PUSH0 DUP5 PUSH20 0xFFFFFFFFFFFFFFFFFFFFFFFFFFFFFFFFFFFFFFFF AND PUSH20 0xFFFFFFFFFFFFFFFFFFFFFFFFFFFFFFFFFFFFFFFF AND DUP2 MSTORE PUSH1 0x20 ADD SWAP1 DUP2 MSTORE PUSH1 0x20 ADD PUSH0 KECCAK256 PUSH1 0x7 ADD PUSH0 SWAP1 SLOAD SWAP1 PUSH2 0x100 EXP SWAP1 DIV PUSH1 0xFF AND PUSH1 0x2 DUP2 GT ISZERO PUSH2 0x4F2C JUMPI PUSH2 0x4F2B PUSH2 0x6DC1 JUMP JUMPDEST JUMPDEST EQ SWAP1 POP SWAP2 SWAP1 POP JUMP JUMPDEST PUSH0 PUSH1 0x2 DUP1 DUP2 GT ISZERO PUSH2 0x4F48 JUMPI PUSH2 0x4F47 PUSH2 0x6DC1 JUMP JUMPDEST JUMPDEST PUSH1 0x3 PUSH0 CALLER PUSH20 0xFFFFFFFFFFFFFFFFFFFFFFFFFFFFFFFFFFFFFFFF AND PUSH20 0xFFFFFFFFFFFFFFFFFFFFFFFFFFFFFFFFFFFFFFFF AND DUP2 MSTORE PUSH1 0x20 ADD SWAP1 DUP2 MSTORE PUSH1 0x20 ADD PUSH0 KECCAK256 PUSH1 0x7 ADD PUSH0 SWAP1 SLOAD SWAP1 PUSH2 0x100 EXP SWAP1 DIV PUSH1 0xFF AND PUSH1 0x2 DUP2 GT ISZERO PUSH2 0x4FA7 JUMPI PUSH2 0x4FA6 PUSH2 0x6DC1 JUMP JUMPDEST JUMPDEST EQ PUSH2 0x4FE7 JUMPI PUSH1 0x40 MLOAD PUSH32 0x8C379A000000000000000000000000000000000000000000000000000000000 DUP2 MSTORE PUSH1 0x4 ADD PUSH2 0x4FDE SWAP1 PUSH2 0x8FCF JUMP JUMPDEST PUSH1 0x40 MLOAD DUP1 SWAP2 SUB SWAP1 REVERT JUMPDEST PUSH1 0x40 MLOAD DUP1 PUSH1 0xC0 ADD PUSH1 0x40 MSTORE DUP1 DUP9 ISZERO ISZERO DUP2 MSTORE PUSH1 0x20 ADD DUP8 ISZERO ISZERO DUP2 MSTORE PUSH1 0x20 ADD DUP7 ISZERO ISZERO DUP2 MSTORE PUSH1 0x20 ADD DUP6 ISZERO ISZERO DUP2 MSTORE PUSH1 0x20 ADD DUP5 ISZERO ISZERO DUP2 MSTORE PUSH1 0x20 ADD DUP4 ISZERO ISZERO DUP2 MSTORE POP PUSH1 0x5 PUSH0 CALLER PUSH20 0xFFFFFFFFFFFFFFFFFFFFFFFFFFFFFFFFFFFFFFFF AND PUSH20 0xFFFFFFFFFFFFFFFFFFFFFFFFFFFFFFFFFFFFFFFF AND DUP2 MSTORE PUSH1 0x20 ADD SWAP1 DUP2 MSTORE PUSH1 0x20 ADD PUSH0 KECCAK256 PUSH0 DUP3 ADD MLOAD DUP2 PUSH0 ADD PUSH0 PUSH2 0x100 EXP DUP2 SLOAD DUP2 PUSH1 0xFF MUL NOT AND SWAP1 DUP4 ISZERO ISZERO MUL OR SWAP1 SSTORE POP PUSH1 0x20 DUP3 ADD MLOAD DUP2 PUSH0 ADD PUSH1 0x1 PUSH2 0x100 EXP DUP2 SLOAD DUP2 PUSH1 0xFF MUL NOT AND SWAP1 DUP4 ISZERO ISZERO MUL OR SWAP1 SSTORE POP PUSH1 0x40 DUP3 ADD MLOAD DUP2 PUSH0 ADD PUSH1 0x2 PUSH2 0x100 EXP DUP2 SLOAD DUP2 PUSH1 0xFF MUL NOT AND SWAP1 DUP4 ISZERO ISZERO MUL OR SWAP1 SSTORE POP PUSH1 0x60 DUP3 ADD MLOAD DUP2 PUSH0 ADD PUSH1 0x3 PUSH2 0x100 EXP DUP2 SLOAD DUP2 PUSH1 0xFF MUL NOT AND SWAP1 DUP4 ISZERO ISZERO MUL OR SWAP1 SSTORE POP PUSH1 0x80 DUP3 ADD MLOAD DUP2 PUSH0 ADD PUSH1 0x4 PUSH2 0x100 EXP DUP2 SLOAD DUP2 PUSH1 0xFF MUL NOT AND SWAP1 DUP4 ISZERO ISZERO MUL OR SWAP1 SSTORE POP PUSH1 0xA0 DUP3 ADD MLOAD DUP2 PUSH0 ADD PUSH1 0x5 PUSH2 0x100 EXP DUP2 SLOAD DUP2 PUSH1 0xFF MUL NOT AND SWAP1 DUP4 ISZERO ISZERO MUL OR SWAP1 SSTORE POP SWAP1 POP POP PUSH1 0x1 SWAP1 POP SWAP7 SWAP6 POP POP POP POP POP POP JUMP JUMPDEST PUSH1 0xB PUSH0 SWAP1 SLOAD SWAP1 PUSH2 0x100 EXP SWAP1 DIV PUSH20 0xFFFFFFFFFFFFFFFFFFFFFFFFFFFFFFFFFFFFFFFF AND DUP2 JUMP JUMPDEST PUSH0 DUP3 MLOAD PUSH8 0xFFFFFFFFFFFFFFFF DUP2 GT ISZERO PUSH2 0x5167 JUMPI PUSH2 0x5166 PUSH2 0x67A0 JUMP JUMPDEST JUMPDEST PUSH1 0x40 MLOAD SWAP1 DUP1 DUP3 MSTORE DUP1 PUSH1 0x20 MUL PUSH1 0x20 ADD DUP3 ADD PUSH1 0x40 MSTORE DUP1 ISZERO PUSH2 0x5195 JUMPI DUP2 PUSH1 0x20 ADD PUSH1 0x20 DUP3 MUL DUP1 CALLDATASIZE DUP4 CALLDATACOPY DUP1 DUP3 ADD SWAP2 POP POP SWAP1 POP JUMPDEST POP SWAP1 POP PUSH0 DUP1 JUMPDEST DUP5 MLOAD DUP2 LT ISZERO PUSH2 0x56F4 JUMPI PUSH0 PUSH1 0x5 PUSH0 DUP8 DUP5 DUP2 MLOAD DUP2 LT PUSH2 0x51BB JUMPI PUSH2 0x51BA PUSH2 0x8092 JUMP JUMPDEST JUMPDEST PUSH1 0x20 MUL PUSH1 0x20 ADD ADD MLOAD PUSH20 0xFFFFFFFFFFFFFFFFFFFFFFFFFFFFFFFFFFFFFFFF AND PUSH20 0xFFFFFFFFFFFFFFFFFFFFFFFFFFFFFFFFFFFFFFFF AND DUP2 MSTORE PUSH1 0x20 ADD SWAP1 DUP2 MSTORE PUSH1 0x20 ADD PUSH0 KECCAK256 PUSH1 0x40 MLOAD DUP1 PUSH1 0xC0 ADD PUSH1 0x40 MSTORE SWAP1 DUP2 PUSH0 DUP3 ADD PUSH0 SWAP1 SLOAD SWAP1 PUSH2 0x100 EXP SWAP1 DIV PUSH1 0xFF AND ISZERO ISZERO ISZERO ISZERO DUP2 MSTORE PUSH1 0x20 ADD PUSH0 DUP3 ADD PUSH1 0x1 SWAP1 SLOAD SWAP1 PUSH2 0x100 EXP SWAP1 DIV PUSH1 0xFF AND ISZERO ISZERO ISZERO ISZERO DUP2 MSTORE PUSH1 0x20 ADD PUSH0 DUP3 ADD PUSH1 0x2 SWAP1 SLOAD SWAP1 PUSH2 0x100 EXP SWAP1 DIV PUSH1 0xFF AND ISZERO ISZERO ISZERO ISZERO DUP2 MSTORE PUSH1 0x20 ADD PUSH0 DUP3 ADD PUSH1 0x3 SWAP1 SLOAD SWAP1 PUSH2 0x100 EXP SWAP1 DIV PUSH1 0xFF AND ISZERO ISZERO ISZERO ISZERO DUP2 MSTORE PUSH1 0x20 ADD PUSH0 DUP3 ADD PUSH1 0x4 SWAP1 SLOAD SWAP1 PUSH2 0x100 EXP SWAP1 DIV PUSH1 0xFF AND ISZERO ISZERO ISZERO ISZERO DUP2 MSTORE PUSH1 0x20 ADD PUSH0 DUP3 ADD PUSH1 0x5 SWAP1 SLOAD SWAP1 PUSH2 0x100 EXP SWAP1 DIV PUSH1 0xFF AND ISZERO ISZERO ISZERO ISZERO DUP2 MSTORE POP POP SWAP1 POP PUSH1 0x40 MLOAD PUSH1 0x20 ADD PUSH2 0x52B3 SWAP1 PUSH2 0x8C8F JUMP JUMPDEST PUSH1 0x40 MLOAD PUSH1 0x20 DUP2 DUP4 SUB SUB DUP2 MSTORE SWAP1 PUSH1 0x40 MSTORE DUP1 MLOAD SWAP1 PUSH1 0x20 ADD KECCAK256 DUP6 PUSH1 0x40 MLOAD PUSH1 0x20 ADD PUSH2 0x52DA SWAP2 SWAP1 PUSH2 0x8CA3 JUMP JUMPDEST PUSH1 0x40 MLOAD PUSH1 0x20 DUP2 DUP4 SUB SUB DUP2 MSTORE SWAP1 PUSH1 0x40 MSTORE DUP1 MLOAD SWAP1 PUSH1 0x20 ADD KECCAK256 EQ DUP1 ISZERO PUSH2 0x52FE JUMPI POP DUP1 PUSH1 0x60 ADD MLOAD JUMPDEST ISZERO PUSH2 0x537E JUMPI DUP6 DUP3 DUP2 MLOAD DUP2 LT PUSH2 0x5316 JUMPI PUSH2 0x5315 PUSH2 0x8092 JUMP JUMPDEST JUMPDEST PUSH1 0x20 MUL PUSH1 0x20 ADD ADD MLOAD DUP5 DUP5 DUP2 MLOAD DUP2 LT PUSH2 0x5331 JUMPI PUSH2 0x5330 PUSH2 0x8092 JUMP JUMPDEST JUMPDEST PUSH1 0x20 MUL PUSH1 0x20 ADD ADD SWAP1 PUSH20 0xFFFFFFFFFFFFFFFFFFFFFFFFFFFFFFFFFFFFFFFF AND SWAP1 DUP2 PUSH20 0xFFFFFFFFFFFFFFFFFFFFFFFFFFFFFFFFFFFFFFFF AND DUP2 MSTORE POP POP DUP3 DUP1 PUSH2 0x5376 SWAP1 PUSH2 0x8FED JUMP JUMPDEST SWAP4 POP POP PUSH2 0x56E6 JUMP JUMPDEST PUSH1 0x40 MLOAD PUSH1 0x20 ADD PUSH2 0x538D SWAP1 PUSH2 0x8D03 JUMP JUMPDEST PUSH1 0x40 MLOAD PUSH1 0x20 DUP2 DUP4 SUB SUB DUP2 MSTORE SWAP1 PUSH1 0x40 MSTORE DUP1 MLOAD SWAP1 PUSH1 0x20 ADD KECCAK256 DUP6 PUSH1 0x40 MLOAD PUSH1 0x20 ADD PUSH2 0x53B4 SWAP2 SWAP1 PUSH2 0x8CA3 JUMP JUMPDEST PUSH1 0x40 MLOAD PUSH1 0x20 DUP2 DUP4 SUB SUB DUP2 MSTORE SWAP1 PUSH1 0x40 MSTORE DUP1 MLOAD SWAP1 PUSH1 0x20 ADD KECCAK256 EQ DUP1 ISZERO PUSH2 0x53D8 JUMPI POP DUP1 PUSH1 0x20 ADD MLOAD JUMPDEST ISZERO PUSH2 0x5458 JUMPI DUP6 DUP3 DUP2 MLOAD DUP2 LT PUSH2 0x53F0 JUMPI PUSH2 0x53EF PUSH2 0x8092 JUMP JUMPDEST JUMPDEST PUSH1 0x20 MUL PUSH1 0x20 ADD ADD MLOAD DUP5 DUP5 DUP2 MLOAD DUP2 LT PUSH2 0x540B JUMPI PUSH2 0x540A PUSH2 0x8092 JUMP JUMPDEST JUMPDEST PUSH1 0x20 MUL PUSH1 0x20 ADD ADD SWAP1 PUSH20 0xFFFFFFFFFFFFFFFFFFFFFFFFFFFFFFFFFFFFFFFF AND SWAP1 DUP2 PUSH20 0xFFFFFFFFFFFFFFFFFFFFFFFFFFFFFFFFFFFFFFFF AND DUP2 MSTORE POP POP DUP3 DUP1 PUSH2 0x5450 SWAP1 PUSH2 0x8FED JUMP JUMPDEST SWAP4 POP POP PUSH2 0x56E5 JUMP JUMPDEST PUSH1 0x40 MLOAD PUSH1 0x20 ADD PUSH2 0x5467 SWAP1 PUSH2 0x8D61 JUMP JUMPDEST PUSH1 0x40 MLOAD PUSH1 0x20 DUP2 DUP4 SUB SUB DUP2 MSTORE SWAP1 PUSH1 0x40 MSTORE DUP1 MLOAD SWAP1 PUSH1 0x20 ADD KECCAK256 DUP6 PUSH1 0x40 MLOAD PUSH1 0x20 ADD PUSH2 0x548E SWAP2 SWAP1 PUSH2 0x8CA3 JUMP JUMPDEST PUSH1 0x40 MLOAD PUSH1 0x20 DUP2 DUP4 SUB SUB DUP2 MSTORE SWAP1 PUSH1 0x40 MSTORE DUP1 MLOAD SWAP1 PUSH1 0x20 ADD KECCAK256 EQ DUP1 ISZERO PUSH2 0x54B2 JUMPI POP DUP1 PUSH1 0x40 ADD MLOAD JUMPDEST ISZERO PUSH2 0x5532 JUMPI DUP6 DUP3 DUP2 MLOAD DUP2 LT PUSH2 0x54CA JUMPI PUSH2 0x54C9 PUSH2 0x8092 JUMP JUMPDEST JUMPDEST PUSH1 0x20 MUL PUSH1 0x20 ADD ADD MLOAD DUP5 DUP5 DUP2 MLOAD DUP2 LT PUSH2 0x54E5 JUMPI PUSH2 0x54E4 PUSH2 0x8092 JUMP JUMPDEST JUMPDEST PUSH1 0x20 MUL PUSH1 0x20 ADD ADD SWAP1 PUSH20 0xFFFFFFFFFFFFFFFFFFFFFFFFFFFFFFFFFFFFFFFF AND SWAP1 DUP2 PUSH20 0xFFFFFFFFFFFFFFFFFFFFFFFFFFFFFFFFFFFFFFFF AND DUP2 MSTORE POP POP DUP3 DUP1 PUSH2 0x552A SWAP1 PUSH2 0x8FED JUMP JUMPDEST SWAP4 POP POP PUSH2 0x56E4 JUMP JUMPDEST PUSH1 0x40 MLOAD PUSH1 0x20 ADD PUSH2 0x5541 SWAP1 PUSH2 0x8DBF JUMP JUMPDEST PUSH1 0x40 MLOAD PUSH1 0x20 DUP2 DUP4 SUB SUB DUP2 MSTORE SWAP1 PUSH1 0x40 MSTORE DUP1 MLOAD SWAP1 PUSH1 0x20 ADD KECCAK256 DUP6 PUSH1 0x40 MLOAD PUSH1 0x20 ADD PUSH2 0x5568 SWAP2 SWAP1 PUSH2 0x8CA3 JUMP JUMPDEST PUSH1 0x40 MLOAD PUSH1 0x20 DUP2 DUP4 SUB SUB DUP2 MSTORE SWAP1 PUSH1 0x40 MSTORE DUP1 MLOAD SWAP1 PUSH1 0x20 ADD KECCAK256 EQ DUP1 ISZERO PUSH2 0x558C JUMPI POP DUP1 PUSH1 0x80 ADD MLOAD JUMPDEST ISZERO PUSH2 0x560C JUMPI DUP6 DUP3 DUP2 MLOAD DUP2 LT PUSH2 0x55A4 JUMPI PUSH2 0x55A3 PUSH2 0x8092 JUMP JUMPDEST JUMPDEST PUSH1 0x20 MUL PUSH1 0x20 ADD ADD MLOAD DUP5 DUP5 DUP2 MLOAD DUP2 LT PUSH2 0x55BF JUMPI PUSH2 0x55BE PUSH2 0x8092 JUMP JUMPDEST JUMPDEST PUSH1 0x20 MUL PUSH1 0x20 ADD ADD SWAP1 PUSH20 0xFFFFFFFFFFFFFFFFFFFFFFFFFFFFFFFFFFFFFFFF AND SWAP1 DUP2 PUSH20 0xFFFFFFFFFFFFFFFFFFFFFFFFFFFFFFFFFFFFFFFF AND DUP2 MSTORE POP POP DUP3 DUP1 PUSH2 0x5604 SWAP1 PUSH2 0x8FED JUMP JUMPDEST SWAP4 POP POP PUSH2 0x56E3 JUMP JUMPDEST PUSH1 0x40 MLOAD PUSH1 0x20 ADD PUSH2 0x561B SWAP1 PUSH2 0x8E1D JUMP JUMPDEST PUSH1 0x40 MLOAD PUSH1 0x20 DUP2 DUP4 SUB SUB DUP2 MSTORE SWAP1 PUSH1 0x40 MSTORE DUP1 MLOAD SWAP1 PUSH1 0x20 ADD KECCAK256 DUP6 PUSH1 0x40 MLOAD PUSH1 0x20 ADD PUSH2 0x5642 SWAP2 SWAP1 PUSH2 0x8CA3 JUMP JUMPDEST PUSH1 0x40 MLOAD PUSH1 0x20 DUP2 DUP4 SUB SUB DUP2 MSTORE SWAP1 PUSH1 0x40 MSTORE DUP1 MLOAD SWAP1 PUSH1 0x20 ADD KECCAK256 EQ DUP1 ISZERO PUSH2 0x5666 JUMPI POP DUP1 PUSH1 0xA0 ADD MLOAD JUMPDEST ISZERO PUSH2 0x56E2 JUMPI DUP6 DUP3 DUP2 MLOAD DUP2 LT PUSH2 0x567E JUMPI PUSH2 0x567D PUSH2 0x8092 JUMP JUMPDEST JUMPDEST PUSH1 0x20 MUL PUSH1 0x20 ADD ADD MLOAD DUP5 DUP5 DUP2 MLOAD DUP2 LT PUSH2 0x5699 JUMPI PUSH2 0x5698 PUSH2 0x8092 JUMP JUMPDEST JUMPDEST PUSH1 0x20 MUL PUSH1 0x20 ADD ADD SWAP1 PUSH20 0xFFFFFFFFFFFFFFFFFFFFFFFFFFFFFFFFFFFFFFFF AND SWAP1 DUP2 PUSH20 0xFFFFFFFFFFFFFFFFFFFFFFFFFFFFFFFFFFFFFFFF AND DUP2 MSTORE POP POP DUP3 DUP1 PUSH2 0x56DE SWAP1 PUSH2 0x8FED JUMP JUMPDEST SWAP4 POP POP JUMPDEST JUMPDEST JUMPDEST JUMPDEST JUMPDEST POP DUP1 DUP1 PUSH1 0x1 ADD SWAP2 POP POP PUSH2 0x519B JUMP JUMPDEST POP PUSH0 DUP2 GT ISZERO PUSH2 0x591E JUMPI PUSH0 DUP2 PUSH8 0xFFFFFFFFFFFFFFFF DUP2 GT ISZERO PUSH2 0x5718 JUMPI PUSH2 0x5717 PUSH2 0x67A0 JUMP JUMPDEST JUMPDEST PUSH1 0x40 MLOAD SWAP1 DUP1 DUP3 MSTORE DUP1 PUSH1 0x20 MUL PUSH1 0x20 ADD DUP3 ADD PUSH1 0x40 MSTORE DUP1 ISZERO PUSH2 0x5746 JUMPI DUP2 PUSH1 0x20 ADD PUSH1 0x20 DUP3 MUL DUP1 CALLDATASIZE DUP4 CALLDATACOPY DUP1 DUP3 ADD SWAP2 POP POP SWAP1 POP JUMPDEST POP SWAP1 POP PUSH0 JUMPDEST DUP3 DUP2 LT ISZERO PUSH2 0x57C8 JUMPI DUP4 DUP2 DUP2 MLOAD DUP2 LT PUSH2 0x5766 JUMPI PUSH2 0x5765 PUSH2 0x8092 JUMP JUMPDEST JUMPDEST PUSH1 0x20 MUL PUSH1 0x20 ADD ADD MLOAD DUP3 DUP3 DUP2 MLOAD DUP2 LT PUSH2 0x5781 JUMPI PUSH2 0x5780 PUSH2 0x8092 JUMP JUMPDEST JUMPDEST PUSH1 0x20 MUL PUSH1 0x20 ADD ADD SWAP1 PUSH20 0xFFFFFFFFFFFFFFFFFFFFFFFFFFFFFFFFFFFFFFFF AND SWAP1 DUP2 PUSH20 0xFFFFFFFFFFFFFFFFFFFFFFFFFFFFFFFFFFFFFFFF AND DUP2 MSTORE POP POP DUP1 DUP1 PUSH1 0x1 ADD SWAP2 POP POP PUSH2 0x574B JUMP JUMPDEST POP PUSH0 PUSH1 0x40 MLOAD DUP1 PUSH1 0xA0 ADD PUSH1 0x40 MSTORE DUP1 PUSH1 0xC DUP1 SLOAD PUSH2 0x57E2 SWAP1 PUSH2 0x8183 JUMP JUMPDEST DUP1 PUSH1 0x1F ADD PUSH1 0x20 DUP1 SWAP2 DIV MUL PUSH1 0x20 ADD PUSH1 0x40 MLOAD SWAP1 DUP2 ADD PUSH1 0x40 MSTORE DUP1 SWAP3 SWAP2 SWAP1 DUP2 DUP2 MSTORE PUSH1 0x20 ADD DUP3 DUP1 SLOAD PUSH2 0x580E SWAP1 PUSH2 0x8183 JUMP JUMPDEST DUP1 ISZERO PUSH2 0x5859 JUMPI DUP1 PUSH1 0x1F LT PUSH2 0x5830 JUMPI PUSH2 0x100 DUP1 DUP4 SLOAD DIV MUL DUP4 MSTORE SWAP2 PUSH1 0x20 ADD SWAP2 PUSH2 0x5859 JUMP JUMPDEST DUP3 ADD SWAP2 SWAP1 PUSH0 MSTORE PUSH1 0x20 PUSH0 KECCAK256 SWAP1 JUMPDEST DUP2 SLOAD DUP2 MSTORE SWAP1 PUSH1 0x1 ADD SWAP1 PUSH1 0x20 ADD DUP1 DUP4 GT PUSH2 0x583C JUMPI DUP3 SWAP1 SUB PUSH1 0x1F AND DUP3 ADD SWAP2 JUMPDEST POP POP POP POP POP DUP2 MSTORE PUSH1 0x20 ADD DUP12 DUP2 MSTORE PUSH1 0x20 ADD DUP11 PUSH1 0xFF AND DUP2 MSTORE PUSH1 0x20 ADD DUP10 DUP2 MSTORE PUSH1 0x20 ADD DUP9 DUP2 MSTORE POP SWAP1 POP PUSH1 0x9 PUSH0 SWAP1 SLOAD SWAP1 PUSH2 0x100 EXP SWAP1 DIV PUSH20 0xFFFFFFFFFFFFFFFFFFFFFFFFFFFFFFFFFFFFFFFF AND PUSH20 0xFFFFFFFFFFFFFFFFFFFFFFFFFFFFFFFFFFFFFFFF AND PUSH4 0x191DD921 DUP3 DUP5 PUSH1 0x40 MLOAD DUP4 PUSH4 0xFFFFFFFF AND PUSH1 0xE0 SHL DUP2 MSTORE PUSH1 0x4 ADD PUSH2 0x58DA SWAP3 SWAP2 SWAP1 PUSH2 0x90DC JUMP JUMPDEST PUSH1 0x20 PUSH1 0x40 MLOAD DUP1 DUP4 SUB DUP2 PUSH0 DUP8 GAS CALL ISZERO DUP1 ISZERO PUSH2 0x58F6 JUMPI RETURNDATASIZE PUSH0 DUP1 RETURNDATACOPY RETURNDATASIZE PUSH0 REVERT JUMPDEST POP POP POP POP PUSH1 0x40 MLOAD RETURNDATASIZE PUSH1 0x1F NOT PUSH1 0x1F DUP3 ADD AND DUP3 ADD DUP1 PUSH1 0x40 MSTORE POP DUP2 ADD SWAP1 PUSH2 0x591A SWAP2 SWAP1 PUSH2 0x8B66 JUMP JUMPDEST POP POP POP JUMPDEST POP POP POP POP POP POP POP POP JUMP JUMPDEST PUSH0 DUP1 PUSH20 0xFFFFFFFFFFFFFFFFFFFFFFFFFFFFFFFFFFFFFFFF AND PUSH1 0x3 PUSH0 CALLER PUSH20 0xFFFFFFFFFFFFFFFFFFFFFFFFFFFFFFFFFFFFFFFF AND PUSH20 0xFFFFFFFFFFFFFFFFFFFFFFFFFFFFFFFFFFFFFFFF AND DUP2 MSTORE PUSH1 0x20 ADD SWAP1 DUP2 MSTORE PUSH1 0x20 ADD PUSH0 KECCAK256 PUSH0 ADD PUSH0 SWAP1 SLOAD SWAP1 PUSH2 0x100 EXP SWAP1 DIV PUSH20 0xFFFFFFFFFFFFFFFFFFFFFFFFFFFFFFFFFFFFFFFF AND PUSH20 0xFFFFFFFFFFFFFFFFFFFFFFFFFFFFFFFFFFFFFFFF AND SUB PUSH2 0x59F5 JUMPI PUSH1 0x40 MLOAD PUSH32 0x8C379A000000000000000000000000000000000000000000000000000000000 DUP2 MSTORE PUSH1 0x4 ADD PUSH2 0x59EC SWAP1 PUSH2 0x9181 JUMP JUMPDEST PUSH1 0x40 MLOAD DUP1 SWAP2 SUB SWAP1 REVERT JUMPDEST DUP3 PUSH0 ADD MLOAD PUSH1 0x3 PUSH0 CALLER PUSH20 0xFFFFFFFFFFFFFFFFFFFFFFFFFFFFFFFFFFFFFFFF AND PUSH20 0xFFFFFFFFFFFFFFFFFFFFFFFFFFFFFFFFFFFFFFFF AND DUP2 MSTORE PUSH1 0x20 ADD SWAP1 DUP2 MSTORE PUSH1 0x20 ADD PUSH0 KECCAK256 PUSH1 0x1 ADD SWAP1 DUP2 PUSH2 0x5A45 SWAP2 SWAP1 PUSH2 0x85BF JUMP JUMPDEST POP DUP3 PUSH1 0x20 ADD MLOAD PUSH1 0x3 PUSH0 CALLER PUSH20 0xFFFFFFFFFFFFFFFFFFFFFFFFFFFFFFFFFFFFFFFF AND PUSH20 0xFFFFFFFFFFFFFFFFFFFFFFFFFFFFFFFFFFFFFFFF AND DUP2 MSTORE PUSH1 0x20 ADD SWAP1 DUP2 MSTORE PUSH1 0x20 ADD PUSH0 KECCAK256 PUSH1 0x2 ADD SWAP1 DUP2 PUSH2 0x5A97 SWAP2 SWAP1 PUSH2 0x85BF JUMP JUMPDEST POP DUP3 PUSH1 0x40 ADD MLOAD PUSH1 0x3 PUSH0 CALLER PUSH20 0xFFFFFFFFFFFFFFFFFFFFFFFFFFFFFFFFFFFFFFFF AND PUSH20 0xFFFFFFFFFFFFFFFFFFFFFFFFFFFFFFFFFFFFFFFF AND DUP2 MSTORE PUSH1 0x20 ADD SWAP1 DUP2 MSTORE PUSH1 0x20 ADD PUSH0 KECCAK256 PUSH1 0x3 ADD PUSH0 PUSH2 0x100 EXP DUP2 SLOAD DUP2 PUSH1 0xFF MUL NOT AND SWAP1 DUP4 PUSH1 0xFF AND MUL OR SWAP1 SSTORE POP DUP3 PUSH1 0x60 ADD MLOAD PUSH1 0x3 PUSH0 CALLER PUSH20 0xFFFFFFFFFFFFFFFFFFFFFFFFFFFFFFFFFFFFFFFF AND PUSH20 0xFFFFFFFFFFFFFFFFFFFFFFFFFFFFFFFFFFFFFFFF AND DUP2 MSTORE PUSH1 0x20 ADD SWAP1 DUP2 MSTORE PUSH1 0x20 ADD PUSH0 KECCAK256 PUSH1 0x4 ADD DUP2 SWAP1 SSTORE POP DUP3 PUSH1 0x80 ADD MLOAD PUSH1 0x3 PUSH0 CALLER PUSH20 0xFFFFFFFFFFFFFFFFFFFFFFFFFFFFFFFFFFFFFFFF AND PUSH20 0xFFFFFFFFFFFFFFFFFFFFFFFFFFFFFFFFFFFFFFFF AND DUP2 MSTORE PUSH1 0x20 ADD SWAP1 DUP2 MSTORE PUSH1 0x20 ADD PUSH0 KECCAK256 PUSH1 0x5 ADD SWAP1 DUP2 PUSH2 0x5B8E SWAP2 SWAP1 PUSH2 0x85BF JUMP JUMPDEST POP PUSH1 0x4 PUSH0 CALLER PUSH20 0xFFFFFFFFFFFFFFFFFFFFFFFFFFFFFFFFFFFFFFFF AND PUSH20 0xFFFFFFFFFFFFFFFFFFFFFFFFFFFFFFFFFFFFFFFF AND DUP2 MSTORE PUSH1 0x20 ADD SWAP1 DUP2 MSTORE PUSH1 0x20 ADD PUSH0 KECCAK256 PUSH0 PUSH2 0x5BD7 SWAP2 SWAP1 PUSH2 0x65BA JUMP JUMPDEST PUSH0 JUMPDEST DUP3 MLOAD DUP2 LT ISZERO PUSH2 0x5CDB JUMPI PUSH1 0x4 PUSH0 CALLER PUSH20 0xFFFFFFFFFFFFFFFFFFFFFFFFFFFFFFFFFFFFFFFF AND PUSH20 0xFFFFFFFFFFFFFFFFFFFFFFFFFFFFFFFFFFFFFFFF AND DUP2 MSTORE PUSH1 0x20 ADD SWAP1 DUP2 MSTORE PUSH1 0x20 ADD PUSH0 KECCAK256 DUP4 DUP3 DUP2 MLOAD DUP2 LT PUSH2 0x5C32 JUMPI PUSH2 0x5C31 PUSH2 0x8092 JUMP JUMPDEST JUMPDEST PUSH1 0x20 MUL PUSH1 0x20 ADD ADD MLOAD SWAP1 DUP1 PUSH1 0x1 DUP2 SLOAD ADD DUP1 DUP3 SSTORE DUP1 SWAP2 POP POP PUSH1 0x1 SWAP1 SUB SWAP1 PUSH0 MSTORE PUSH1 0x20 PUSH0 KECCAK256 SWAP1 PUSH1 0x5 MUL ADD PUSH0 SWAP1 SWAP2 SWAP1 SWAP2 SWAP1 SWAP2 POP PUSH0 DUP3 ADD MLOAD DUP2 PUSH0 ADD SWAP1 DUP2 PUSH2 0x5C73 SWAP2 SWAP1 PUSH2 0x85BF JUMP JUMPDEST POP PUSH1 0x20 DUP3 ADD MLOAD DUP2 PUSH1 0x1 ADD SWAP1 DUP2 PUSH2 0x5C89 SWAP2 SWAP1 PUSH2 0x85BF JUMP JUMPDEST POP PUSH1 0x40 DUP3 ADD MLOAD DUP2 PUSH1 0x2 ADD SWAP1 DUP2 PUSH2 0x5C9F SWAP2 SWAP1 PUSH2 0x85BF JUMP JUMPDEST POP PUSH1 0x60 DUP3 ADD MLOAD DUP2 PUSH1 0x3 ADD SWAP1 DUP2 PUSH2 0x5CB5 SWAP2 SWAP1 PUSH2 0x85BF JUMP JUMPDEST POP PUSH1 0x80 DUP3 ADD MLOAD DUP2 PUSH1 0x4 ADD SWAP1 DUP2 PUSH2 0x5CCB SWAP2 SWAP1 PUSH2 0x85BF JUMP JUMPDEST POP POP POP DUP1 DUP1 PUSH1 0x1 ADD SWAP2 POP POP PUSH2 0x5BD9 JUMP JUMPDEST POP PUSH1 0x1 SWAP1 POP SWAP3 SWAP2 POP POP JUMP JUMPDEST PUSH0 PUSH1 0x3 PUSH0 DUP4 PUSH20 0xFFFFFFFFFFFFFFFFFFFFFFFFFFFFFFFFFFFFFFFF AND PUSH20 0xFFFFFFFFFFFFFFFFFFFFFFFFFFFFFFFFFFFFFFFF AND DUP2 MSTORE PUSH1 0x20 ADD SWAP1 DUP2 MSTORE PUSH1 0x20 ADD PUSH0 KECCAK256 PUSH1 0x9 ADD PUSH0 SWAP1 SLOAD SWAP1 PUSH2 0x100 EXP SWAP1 DIV PUSH20 0xFFFFFFFFFFFFFFFFFFFFFFFFFFFFFFFFFFFFFFFF AND SWAP1 POP SWAP2 SWAP1 POP JUMP JUMPDEST PUSH2 0x5DFD DUP4 PUSH1 0x40 MLOAD PUSH1 0x20 ADD PUSH2 0x5D62 SWAP2 SWAP1 PUSH2 0x8968 JUMP JUMPDEST PUSH1 0x40 MLOAD PUSH1 0x20 DUP2 DUP4 SUB SUB DUP2 MSTORE SWAP1 PUSH1 0x40 MSTORE PUSH0 PUSH1 0x40 MLOAD DUP1 PUSH1 0x40 ADD PUSH1 0x40 MSTORE DUP1 PUSH1 0xC DUP2 MSTORE PUSH1 0x20 ADD PUSH32 0x4E65772050757263686173650000000000000000000000000000000000000000 DUP2 MSTORE POP PUSH1 0x40 MLOAD DUP1 PUSH1 0xC0 ADD PUSH1 0x40 MSTORE DUP1 PUSH1 0x86 DUP2 MSTORE PUSH1 0x20 ADD PUSH2 0x94DD PUSH1 0x86 SWAP2 CODECOPY DUP7 PUSH1 0x40 MLOAD DUP1 PUSH1 0x40 ADD PUSH1 0x40 MSTORE DUP1 PUSH1 0xB DUP2 MSTORE PUSH1 0x20 ADD PUSH32 0x4F72646572557064617465000000000000000000000000000000000000000000 DUP2 MSTORE POP PUSH2 0x43DA JUMP JUMPDEST PUSH2 0x5EAC DUP4 PUSH1 0x40 MLOAD PUSH1 0x20 ADD PUSH2 0x5E11 SWAP2 SWAP1 PUSH2 0x8968 JUMP JUMPDEST PUSH1 0x40 MLOAD PUSH1 0x20 DUP2 DUP4 SUB SUB DUP2 MSTORE SWAP1 PUSH1 0x40 MSTORE PUSH0 PUSH1 0x40 MLOAD DUP1 PUSH1 0x40 ADD PUSH1 0x40 MSTORE DUP1 PUSH1 0xC DUP2 MSTORE PUSH1 0x20 ADD PUSH32 0x4E65772050757263686173650000000000000000000000000000000000000000 DUP2 MSTORE POP PUSH1 0x40 MLOAD DUP1 PUSH1 0xA0 ADD PUSH1 0x40 MSTORE DUP1 PUSH1 0x61 DUP2 MSTORE PUSH1 0x20 ADD PUSH2 0x93EE PUSH1 0x61 SWAP2 CODECOPY DUP6 PUSH1 0x40 MLOAD DUP1 PUSH1 0x40 ADD PUSH1 0x40 MSTORE DUP1 PUSH1 0x13 DUP2 MSTORE PUSH1 0x20 ADD PUSH32 0x437573746F6D65724F7264657255706461746500000000000000000000000000 DUP2 MSTORE POP PUSH2 0x514B JUMP JUMPDEST PUSH2 0x5F7A DUP4 PUSH1 0x40 MLOAD PUSH1 0x20 ADD PUSH2 0x5EC0 SWAP2 SWAP1 PUSH2 0x8968 JUMP JUMPDEST PUSH1 0x40 MLOAD PUSH1 0x20 DUP2 DUP4 SUB SUB DUP2 MSTORE SWAP1 PUSH1 0x40 MSTORE PUSH0 PUSH1 0x40 MLOAD DUP1 PUSH1 0x40 ADD PUSH1 0x40 MSTORE DUP1 PUSH1 0x12 DUP2 MSTORE PUSH1 0x20 ADD PUSH32 0x4E6577204F726465722052656365697665640000000000000000000000000000 DUP2 MSTORE POP PUSH1 0x40 MLOAD DUP1 PUSH1 0xC0 ADD PUSH1 0x40 MSTORE DUP1 PUSH1 0x8E DUP2 MSTORE PUSH1 0x20 ADD PUSH2 0x944F PUSH1 0x8E SWAP2 CODECOPY PUSH0 DUP1 SLOAD SWAP1 PUSH2 0x100 EXP SWAP1 DIV PUSH20 0xFFFFFFFFFFFFFFFFFFFFFFFFFFFFFFFFFFFFFFFF AND PUSH1 0x40 MLOAD DUP1 PUSH1 0x40 ADD PUSH1 0x40 MSTORE DUP1 PUSH1 0x13 DUP2 MSTORE PUSH1 0x20 ADD PUSH32 0x437573746F6D65724F7264657255706461746500000000000000000000000000 DUP2 MSTORE POP PUSH2 0x43DA JUMP JUMPDEST POP POP POP JUMP JUMPDEST PUSH1 0x8 PUSH0 SWAP1 SLOAD SWAP1 PUSH2 0x100 EXP SWAP1 DIV PUSH20 0xFFFFFFFFFFFFFFFFFFFFFFFFFFFFFFFFFFFFFFFF AND DUP2 JUMP JUMPDEST PUSH2 0x6053 DUP4 PUSH1 0x40 MLOAD PUSH1 0x20 ADD PUSH2 0x5FB8 SWAP2 SWAP1 PUSH2 0x8968 JUMP JUMPDEST PUSH1 0x40 MLOAD PUSH1 0x20 DUP2 DUP4 SUB SUB DUP2 MSTORE SWAP1 PUSH1 0x40 MSTORE PUSH0 PUSH1 0x40 MLOAD DUP1 PUSH1 0x40 ADD PUSH1 0x40 MSTORE DUP1 PUSH1 0xC DUP2 MSTORE PUSH1 0x20 ADD PUSH32 0x4E65772050757263686173650000000000000000000000000000000000000000 DUP2 MSTORE POP PUSH1 0x40 MLOAD DUP1 PUSH1 0xA0 ADD PUSH1 0x40 MSTORE DUP1 PUSH1 0x62 DUP2 MSTORE PUSH1 0x20 ADD PUSH2 0x9315 PUSH1 0x62 SWAP2 CODECOPY DUP6 PUSH1 0x40 MLOAD DUP1 PUSH1 0x40 ADD PUSH1 0x40 MSTORE DUP1 PUSH1 0x13 DUP2 MSTORE PUSH1 0x20 ADD PUSH32 0x437573746F6D65724F7264657255706461746500000000000000000000000000 DUP2 MSTORE POP PUSH2 0x43DA JUMP JUMPDEST PUSH2 0x6102 DUP4 PUSH1 0x40 MLOAD PUSH1 0x20 ADD PUSH2 0x6067 SWAP2 SWAP1 PUSH2 0x8968 JUMP JUMPDEST PUSH1 0x40 MLOAD PUSH1 0x20 DUP2 DUP4 SUB SUB DUP2 MSTORE SWAP1 PUSH1 0x40 MSTORE PUSH0 PUSH1 0x40 MLOAD DUP1 PUSH1 0x40 ADD PUSH1 0x40 MSTORE DUP1 PUSH1 0x13 DUP2 MSTORE PUSH1 0x20 ADD PUSH32 0x5075726368617365205375636365737366756C00000000000000000000000000 DUP2 MSTORE POP PUSH1 0x40 MLOAD DUP1 PUSH1 0xC0 ADD PUSH1 0x40 MSTORE DUP1 PUSH1 0x86 DUP2 MSTORE PUSH1 0x20 ADD PUSH2 0x94DD PUSH1 0x86 SWAP2 CODECOPY DUP7 PUSH1 0x40 MLOAD DUP1 PUSH1 0x40 ADD PUSH1 0x40 MSTORE DUP1 PUSH1 0xB DUP2 MSTORE PUSH1 0x20 ADD PUSH32 0x4F72646572557064617465000000000000000000000000000000000000000000 DUP2 MSTORE POP PUSH2 0x43DA JUMP JUMPDEST PUSH2 0x61D0 DUP4 PUSH1 0x40 MLOAD PUSH1 0x20 ADD PUSH2 0x6116 SWAP2 SWAP1 PUSH2 0x8968 JUMP JUMPDEST PUSH1 0x40 MLOAD PUSH1 0x20 DUP2 DUP4 SUB SUB DUP2 MSTORE SWAP1 PUSH1 0x40 MSTORE PUSH0 PUSH1 0x40 MLOAD DUP1 PUSH1 0x40 ADD PUSH1 0x40 MSTORE DUP1 PUSH1 0x15 DUP2 MSTORE PUSH1 0x20 ADD PUSH32 0x41205075726368617365205375636365737366756C0000000000000000000000 DUP2 MSTORE POP PUSH1 0x40 MLOAD DUP1 PUSH1 0xC0 ADD PUSH1 0x40 MSTORE DUP1 PUSH1 0x8E DUP2 MSTORE PUSH1 0x20 ADD PUSH2 0x944F PUSH1 0x8E SWAP2 CODECOPY PUSH0 DUP1 SLOAD SWAP1 PUSH2 0x100 EXP SWAP1 DIV PUSH20 0xFFFFFFFFFFFFFFFFFFFFFFFFFFFFFFFFFFFFFFFF AND PUSH1 0x40 MLOAD DUP1 PUSH1 0x40 ADD PUSH1 0x40 MSTORE DUP1 PUSH1 0x13 DUP2 MSTORE PUSH1 0x20 ADD PUSH32 0x437573746F6D65724F7264657255706461746500000000000000000000000000 DUP2 MSTORE POP PUSH2 0x43DA JUMP JUMPDEST POP POP POP JUMP JUMPDEST PUSH1 0x60 PUSH0 PUSH1 0x1 PUSH2 0x61E3 DUP5 PUSH2 0x642C JUMP JUMPDEST ADD SWAP1 POP PUSH0 DUP2 PUSH8 0xFFFFFFFFFFFFFFFF DUP2 GT ISZERO PUSH2 0x6201 JUMPI PUSH2 0x6200 PUSH2 0x67A0 JUMP JUMPDEST JUMPDEST PUSH1 0x40 MLOAD SWAP1 DUP1 DUP3 MSTORE DUP1 PUSH1 0x1F ADD PUSH1 0x1F NOT AND PUSH1 0x20 ADD DUP3 ADD PUSH1 0x40 MSTORE DUP1 ISZERO PUSH2 0x6233 JUMPI DUP2 PUSH1 0x20 ADD PUSH1 0x1 DUP3 MUL DUP1 CALLDATASIZE DUP4 CALLDATACOPY DUP1 DUP3 ADD SWAP2 POP POP SWAP1 POP JUMPDEST POP SWAP1 POP PUSH0 DUP3 PUSH1 0x20 ADD DUP3 ADD SWAP1 POP JUMPDEST PUSH1 0x1 ISZERO PUSH2 0x6294 JUMPI DUP1 DUP1 PUSH1 0x1 SWAP1 SUB SWAP2 POP POP PUSH32 0x3031323334353637383961626364656600000000000000000000000000000000 PUSH1 0xA DUP7 MOD BYTE DUP2 MSTORE8 PUSH1 0xA DUP6 DUP2 PUSH2 0x6289 JUMPI PUSH2 0x6288 PUSH2 0x919F JUMP JUMPDEST JUMPDEST DIV SWAP5 POP PUSH0 DUP6 SUB PUSH2 0x6240 JUMPI JUMPDEST DUP2 SWAP4 POP POP POP POP SWAP2 SWAP1 POP JUMP JUMPDEST DUP2 PUSH1 0x3 PUSH0 DUP5 PUSH20 0xFFFFFFFFFFFFFFFFFFFFFFFFFFFFFFFFFFFFFFFF AND PUSH20 0xFFFFFFFFFFFFFFFFFFFFFFFFFFFFFFFFFFFFFFFF AND DUP2 MSTORE PUSH1 0x20 ADD SWAP1 DUP2 MSTORE PUSH1 0x20 ADD PUSH0 KECCAK256 PUSH0 ADD PUSH0 PUSH2 0x100 EXP DUP2 SLOAD DUP2 PUSH20 0xFFFFFFFFFFFFFFFFFFFFFFFFFFFFFFFFFFFFFFFF MUL NOT AND SWAP1 DUP4 PUSH20 0xFFFFFFFFFFFFFFFFFFFFFFFFFFFFFFFFFFFFFFFF AND MUL OR SWAP1 SSTORE POP DUP1 PUSH1 0x3 PUSH0 DUP5 PUSH20 0xFFFFFFFFFFFFFFFFFFFFFFFFFFFFFFFFFFFFFFFF AND PUSH20 0xFFFFFFFFFFFFFFFFFFFFFFFFFFFFFFFFFFFFFFFF AND DUP2 MSTORE PUSH1 0x20 ADD SWAP1 DUP2 MSTORE PUSH1 0x20 ADD PUSH0 KECCAK256 PUSH1 0x7 ADD PUSH0 PUSH2 0x100 EXP DUP2 SLOAD DUP2 PUSH1 0xFF MUL NOT AND SWAP1 DUP4 PUSH1 0x2 DUP2 GT ISZERO PUSH2 0x637E JUMPI PUSH2 0x637D PUSH2 0x6DC1 JUMP JUMPDEST JUMPDEST MUL OR SWAP1 SSTORE POP TIMESTAMP PUSH1 0x3 PUSH0 DUP5 PUSH20 0xFFFFFFFFFFFFFFFFFFFFFFFFFFFFFFFFFFFFFFFF AND PUSH20 0xFFFFFFFFFFFFFFFFFFFFFFFFFFFFFFFFFFFFFFFF AND DUP2 MSTORE PUSH1 0x20 ADD SWAP1 DUP2 MSTORE PUSH1 0x20 ADD PUSH0 KECCAK256 PUSH1 0x8 ADD DUP2 SWAP1 SSTORE POP PUSH1 0x7 DUP3 SWAP1 DUP1 PUSH1 0x1 DUP2 SLOAD ADD DUP1 DUP3 SSTORE DUP1 SWAP2 POP POP PUSH1 0x1 SWAP1 SUB SWAP1 PUSH0 MSTORE PUSH1 0x20 PUSH0 KECCAK256 ADD PUSH0 SWAP1 SWAP2 SWAP1 SWAP2 SWAP1 SWAP2 PUSH2 0x100 EXP DUP2 SLOAD DUP2 PUSH20 0xFFFFFFFFFFFFFFFFFFFFFFFFFFFFFFFFFFFFFFFF MUL NOT AND SWAP1 DUP4 PUSH20 0xFFFFFFFFFFFFFFFFFFFFFFFFFFFFFFFFFFFFFFFF AND MUL OR SWAP1 SSTORE POP POP POP JUMP JUMPDEST PUSH0 DUP1 PUSH0 SWAP1 POP PUSH27 0x184F03E93FF9F4DAA797ED6E38ED64BF6A1F010000000000000000 DUP4 LT PUSH2 0x6488 JUMPI PUSH27 0x184F03E93FF9F4DAA797ED6E38ED64BF6A1F010000000000000000 DUP4 DUP2 PUSH2 0x647E JUMPI PUSH2 0x647D PUSH2 0x919F JUMP JUMPDEST JUMPDEST DIV SWAP3 POP PUSH1 0x40 DUP2 ADD SWAP1 POP JUMPDEST PUSH14 0x4EE2D6D415B85ACEF8100000000 DUP4 LT PUSH2 0x64C5 JUMPI PUSH14 0x4EE2D6D415B85ACEF8100000000 DUP4 DUP2 PUSH2 0x64BB JUMPI PUSH2 0x64BA PUSH2 0x919F JUMP JUMPDEST JUMPDEST DIV SWAP3 POP PUSH1 0x20 DUP2 ADD SWAP1 POP JUMPDEST PUSH7 0x2386F26FC10000 DUP4 LT PUSH2 0x64F4 JUMPI PUSH7 0x2386F26FC10000 DUP4 DUP2 PUSH2 0x64EA JUMPI PUSH2 0x64E9 PUSH2 0x919F JUMP JUMPDEST JUMPDEST DIV SWAP3 POP PUSH1 0x10 DUP2 ADD SWAP1 POP JUMPDEST PUSH4 0x5F5E100 DUP4 LT PUSH2 0x651D JUMPI PUSH4 0x5F5E100 DUP4 DUP2 PUSH2 0x6513 JUMPI PUSH2 0x6512 PUSH2 0x919F JUMP JUMPDEST JUMPDEST DIV SWAP3 POP PUSH1 0x8 DUP2 ADD SWAP1 POP JUMPDEST PUSH2 0x2710 DUP4 LT PUSH2 0x6542 JUMPI PUSH2 0x2710 DUP4 DUP2 PUSH2 0x6538 JUMPI PUSH2 0x6537 PUSH2 0x919F JUMP JUMPDEST JUMPDEST DIV SWAP3 POP PUSH1 0x4 DUP2 ADD SWAP1 POP JUMPDEST PUSH1 0x64 DUP4 LT PUSH2 0x6565 JUMPI PUSH1 0x64 DUP4 DUP2 PUSH2 0x655B JUMPI PUSH2 0x655A PUSH2 0x919F JUMP JUMPDEST JUMPDEST DIV SWAP3 POP PUSH1 0x2 DUP2 ADD SWAP1 POP JUMPDEST PUSH1 0xA DUP4 LT PUSH2 0x6574 JUMPI PUSH1 0x1 DUP2 ADD SWAP1 POP JUMPDEST DUP1 SWAP2 POP POP SWAP2 SWAP1 POP JUMP JUMPDEST POP DUP1 SLOAD PUSH2 0x6589 SWAP1 PUSH2 0x8183 JUMP JUMPDEST PUSH0 DUP3 SSTORE DUP1 PUSH1 0x1F LT PUSH2 0x659A JUMPI POP PUSH2 0x65B7 JUMP JUMPDEST PUSH1 0x1F ADD PUSH1 0x20 SWAP1 DIV SWAP1 PUSH0 MSTORE PUSH1 0x20 PUSH0 KECCAK256 SWAP1 DUP2 ADD SWAP1 PUSH2 0x65B6 SWAP2 SWAP1 PUSH2 0x66A5 JUMP JUMPDEST JUMPDEST POP JUMP JUMPDEST POP DUP1 SLOAD PUSH0 DUP3 SSTORE PUSH1 0x5 MUL SWAP1 PUSH0 MSTORE PUSH1 0x20 PUSH0 KECCAK256 SWAP1 DUP2 ADD SWAP1 PUSH2 0x65D8 SWAP2 SWAP1 PUSH2 0x66C0 JUMP JUMPDEST POP JUMP JUMPDEST PUSH1 0x40 MLOAD DUP1 PUSH1 0xC0 ADD PUSH1 0x40 MSTORE DUP1 PUSH0 ISZERO ISZERO DUP2 MSTORE PUSH1 0x20 ADD PUSH0 ISZERO ISZERO DUP2 MSTORE PUSH1 0x20 ADD PUSH0 ISZERO ISZERO DUP2 MSTORE PUSH1 0x20 ADD PUSH0 ISZERO ISZERO DUP2 MSTORE PUSH1 0x20 ADD PUSH0 ISZERO ISZERO DUP2 MSTORE PUSH1 0x20 ADD PUSH0 ISZERO ISZERO DUP2 MSTORE POP SWAP1 JUMP JUMPDEST PUSH1 0x40 MLOAD DUP1 PUSH2 0x140 ADD PUSH1 0x40 MSTORE DUP1 PUSH0 PUSH20 0xFFFFFFFFFFFFFFFFFFFFFFFFFFFFFFFFFFFFFFFF AND DUP2 MSTORE PUSH1 0x20 ADD PUSH1 0x60 DUP2 MSTORE PUSH1 0x20 ADD PUSH1 0x60 DUP2 MSTORE PUSH1 0x20 ADD PUSH0 PUSH1 0xFF AND DUP2 MSTORE PUSH1 0x20 ADD PUSH0 DUP2 MSTORE PUSH1 0x20 ADD PUSH1 0x60 DUP2 MSTORE PUSH1 0x20 ADD PUSH1 0x60 DUP2 MSTORE PUSH1 0x20 ADD PUSH0 PUSH1 0x2 DUP2 GT ISZERO PUSH2 0x667D JUMPI PUSH2 0x667C PUSH2 0x6DC1 JUMP JUMPDEST JUMPDEST DUP2 MSTORE PUSH1 0x20 ADD PUSH0 DUP2 MSTORE PUSH1 0x20 ADD PUSH0 PUSH20 0xFFFFFFFFFFFFFFFFFFFFFFFFFFFFFFFFFFFFFFFF AND DUP2 MSTORE POP SWAP1 JUMP JUMPDEST JUMPDEST DUP1 DUP3 GT ISZERO PUSH2 0x66BC JUMPI PUSH0 DUP2 PUSH0 SWAP1 SSTORE POP PUSH1 0x1 ADD PUSH2 0x66A6 JUMP JUMPDEST POP SWAP1 JUMP JUMPDEST JUMPDEST DUP1 DUP3 GT ISZERO PUSH2 0x671D JUMPI PUSH0 DUP1 DUP3 ADD PUSH0 PUSH2 0x66D8 SWAP2 SWAP1 PUSH2 0x657D JUMP JUMPDEST PUSH1 0x1 DUP3 ADD PUSH0 PUSH2 0x66E7 SWAP2 SWAP1 PUSH2 0x657D JUMP JUMPDEST PUSH1 0x2 DUP3 ADD PUSH0 PUSH2 0x66F6 SWAP2 SWAP1 PUSH2 0x657D JUMP JUMPDEST PUSH1 0x3 DUP3 ADD PUSH0 PUSH2 0x6705 SWAP2 SWAP1 PUSH2 0x657D JUMP JUMPDEST PUSH1 0x4 DUP3 ADD PUSH0 PUSH2 0x6714 SWAP2 SWAP1 PUSH2 0x657D JUMP JUMPDEST POP PUSH1 0x5 ADD PUSH2 0x66C1 JUMP JUMPDEST POP SWAP1 JUMP JUMPDEST PUSH0 PUSH1 0x40 MLOAD SWAP1 POP SWAP1 JUMP JUMPDEST PUSH0 DUP1 REVERT JUMPDEST PUSH0 DUP1 REVERT JUMPDEST PUSH0 PUSH20 0xFFFFFFFFFFFFFFFFFFFFFFFFFFFFFFFFFFFFFFFF DUP3 AND SWAP1 POP SWAP2 SWAP1 POP JUMP JUMPDEST PUSH0 PUSH2 0x675B DUP3 PUSH2 0x6732 JUMP JUMPDEST SWAP1 POP SWAP2 SWAP1 POP JUMP JUMPDEST PUSH2 0x676B DUP2 PUSH2 0x6751 JUMP JUMPDEST DUP2 EQ PUSH2 0x6775 JUMPI PUSH0 DUP1 REVERT JUMPDEST POP JUMP JUMPDEST PUSH0 DUP2 CALLDATALOAD SWAP1 POP PUSH2 0x6786 DUP2 PUSH2 0x6762 JUMP JUMPDEST SWAP3 SWAP2 POP POP JUMP JUMPDEST PUSH0 DUP1 REVERT JUMPDEST PUSH0 PUSH1 0x1F NOT PUSH1 0x1F DUP4 ADD AND SWAP1 POP SWAP2 SWAP1 POP JUMP JUMPDEST PUSH32 0x4E487B7100000000000000000000000000000000000000000000000000000000 PUSH0 MSTORE PUSH1 0x41 PUSH1 0x4 MSTORE PUSH1 0x24 PUSH0 REVERT JUMPDEST PUSH2 0x67D6 DUP3 PUSH2 0x6790 JUMP JUMPDEST DUP2 ADD DUP2 DUP2 LT PUSH8 0xFFFFFFFFFFFFFFFF DUP3 GT OR ISZERO PUSH2 0x67F5 JUMPI PUSH2 0x67F4 PUSH2 0x67A0 JUMP JUMPDEST JUMPDEST DUP1 PUSH1 0x40 MSTORE POP POP POP JUMP JUMPDEST PUSH0 PUSH2 0x6807 PUSH2 0x6721 JUMP JUMPDEST SWAP1 POP PUSH2 0x6813 DUP3 DUP3 PUSH2 0x67CD JUMP JUMPDEST SWAP2 SWAP1 POP JUMP JUMPDEST PUSH0 DUP1 REVERT JUMPDEST PUSH0 PUSH1 0xFF DUP3 AND SWAP1 POP SWAP2 SWAP1 POP JUMP JUMPDEST PUSH2 0x6831 DUP2 PUSH2 0x681C JUMP JUMPDEST DUP2 EQ PUSH2 0x683B JUMPI PUSH0 DUP1 REVERT JUMPDEST POP JUMP JUMPDEST PUSH0 DUP2 CALLDATALOAD SWAP1 POP PUSH2 0x684C DUP2 PUSH2 0x6828 JUMP JUMPDEST SWAP3 SWAP2 POP POP JUMP JUMPDEST PUSH0 DUP2 SWAP1 POP SWAP2 SWAP1 POP JUMP JUMPDEST PUSH2 0x6864 DUP2 PUSH2 0x6852 JUMP JUMPDEST DUP2 EQ PUSH2 0x686E JUMPI PUSH0 DUP1 REVERT JUMPDEST POP JUMP JUMPDEST PUSH0 DUP2 CALLDATALOAD SWAP1 POP PUSH2 0x687F DUP2 PUSH2 0x685B JUMP JUMPDEST SWAP3 SWAP2 POP POP JUMP JUMPDEST PUSH0 PUSH1 0x60 DUP3 DUP5 SUB SLT ISZERO PUSH2 0x689A JUMPI PUSH2 0x6899 PUSH2 0x678C JUMP JUMPDEST JUMPDEST PUSH2 0x68A4 PUSH1 0x60 PUSH2 0x67FE JUMP JUMPDEST SWAP1 POP PUSH0 PUSH2 0x68B3 DUP5 DUP3 DUP6 ADD PUSH2 0x683E JUMP JUMPDEST PUSH0 DUP4 ADD MSTORE POP PUSH1 0x20 PUSH2 0x68C6 DUP5 DUP3 DUP6 ADD PUSH2 0x6871 JUMP JUMPDEST PUSH1 0x20 DUP4 ADD MSTORE POP PUSH1 0x40 PUSH2 0x68DA DUP5 DUP3 DUP6 ADD PUSH2 0x6778 JUMP JUMPDEST PUSH1 0x40 DUP4 ADD MSTORE POP SWAP3 SWAP2 POP POP JUMP JUMPDEST PUSH0 DUP1 PUSH1 0x80 DUP4 DUP6 SUB SLT ISZERO PUSH2 0x68FC JUMPI PUSH2 0x68FB PUSH2 0x672A JUMP JUMPDEST JUMPDEST PUSH0 PUSH2 0x6909 DUP6 DUP3 DUP7 ADD PUSH2 0x6778 JUMP JUMPDEST SWAP3 POP POP PUSH1 0x20 PUSH2 0x691A DUP6 DUP3 DUP7 ADD PUSH2 0x6885 JUMP JUMPDEST SWAP2 POP POP SWAP3 POP SWAP3 SWAP1 POP JUMP JUMPDEST PUSH0 DUP2 ISZERO ISZERO SWAP1 POP SWAP2 SWAP1 POP JUMP JUMPDEST PUSH2 0x6938 DUP2 PUSH2 0x6924 JUMP JUMPDEST DUP3 MSTORE POP POP JUMP JUMPDEST PUSH0 PUSH1 0x20 DUP3 ADD SWAP1 POP PUSH2 0x6951 PUSH0 DUP4 ADD DUP5 PUSH2 0x692F JUMP JUMPDEST SWAP3 SWAP2 POP POP JUMP JUMPDEST PUSH0 DUP1 REVERT JUMPDEST PUSH0 DUP1 REVERT JUMPDEST PUSH0 DUP1 REVERT JUMPDEST PUSH0 DUP1 DUP4 PUSH1 0x1F DUP5 ADD SLT PUSH2 0x6978 JUMPI PUSH2 0x6977 PUSH2 0x6957 JUMP JUMPDEST JUMPDEST DUP3 CALLDATALOAD SWAP1 POP PUSH8 0xFFFFFFFFFFFFFFFF DUP2 GT ISZERO PUSH2 0x6995 JUMPI PUSH2 0x6994 PUSH2 0x695B JUMP JUMPDEST JUMPDEST PUSH1 0x20 DUP4 ADD SWAP2 POP DUP4 PUSH1 0x1 DUP3 MUL DUP4 ADD GT ISZERO PUSH2 0x69B1 JUMPI PUSH2 0x69B0 PUSH2 0x695F JUMP JUMPDEST JUMPDEST SWAP3 POP SWAP3 SWAP1 POP JUMP JUMPDEST PUSH0 DUP1 PUSH1 0x20 DUP4 DUP6 SUB SLT ISZERO PUSH2 0x69CE JUMPI PUSH2 0x69CD PUSH2 0x672A JUMP JUMPDEST JUMPDEST PUSH0 DUP4 ADD CALLDATALOAD PUSH8 0xFFFFFFFFFFFFFFFF DUP2 GT ISZERO PUSH2 0x69EB JUMPI PUSH2 0x69EA PUSH2 0x672E JUMP JUMPDEST JUMPDEST PUSH2 0x69F7 DUP6 DUP3 DUP7 ADD PUSH2 0x6963 JUMP JUMPDEST SWAP3 POP SWAP3 POP POP SWAP3 POP SWAP3 SWAP1 POP JUMP JUMPDEST PUSH0 DUP1 REVERT JUMPDEST PUSH0 PUSH8 0xFFFFFFFFFFFFFFFF DUP3 GT ISZERO PUSH2 0x6A21 JUMPI PUSH2 0x6A20 PUSH2 0x67A0 JUMP JUMPDEST JUMPDEST PUSH2 0x6A2A DUP3 PUSH2 0x6790 JUMP JUMPDEST SWAP1 POP PUSH1 0x20 DUP2 ADD SWAP1 POP SWAP2 SWAP1 POP JUMP JUMPDEST DUP3 DUP2 DUP4 CALLDATACOPY PUSH0 DUP4 DUP4 ADD MSTORE POP POP POP JUMP JUMPDEST PUSH0 PUSH2 0x6A57 PUSH2 0x6A52 DUP5 PUSH2 0x6A07 JUMP JUMPDEST PUSH2 0x67FE JUMP JUMPDEST SWAP1 POP DUP3 DUP2 MSTORE PUSH1 0x20 DUP2 ADD DUP5 DUP5 DUP5 ADD GT ISZERO PUSH2 0x6A73 JUMPI PUSH2 0x6A72 PUSH2 0x6A03 JUMP JUMPDEST JUMPDEST PUSH2 0x6A7E DUP5 DUP3 DUP6 PUSH2 0x6A37 JUMP JUMPDEST POP SWAP4 SWAP3 POP POP POP JUMP JUMPDEST PUSH0 DUP3 PUSH1 0x1F DUP4 ADD SLT PUSH2 0x6A9A JUMPI PUSH2 0x6A99 PUSH2 0x6957 JUMP JUMPDEST JUMPDEST DUP2 CALLDATALOAD PUSH2 0x6AAA DUP5 DUP3 PUSH1 0x20 DUP7 ADD PUSH2 0x6A45 JUMP JUMPDEST SWAP2 POP POP SWAP3 SWAP2 POP POP JUMP JUMPDEST PUSH0 DUP1 PUSH1 0x40 DUP4 DUP6 SUB SLT ISZERO PUSH2 0x6AC9 JUMPI PUSH2 0x6AC8 PUSH2 0x672A JUMP JUMPDEST JUMPDEST PUSH0 DUP4 ADD CALLDATALOAD PUSH8 0xFFFFFFFFFFFFFFFF DUP2 GT ISZERO PUSH2 0x6AE6 JUMPI PUSH2 0x6AE5 PUSH2 0x672E JUMP JUMPDEST JUMPDEST PUSH2 0x6AF2 DUP6 DUP3 DUP7 ADD PUSH2 0x6A86 JUMP JUMPDEST SWAP3 POP POP PUSH1 0x20 DUP4 ADD CALLDATALOAD PUSH8 0xFFFFFFFFFFFFFFFF DUP2 GT ISZERO PUSH2 0x6B13 JUMPI PUSH2 0x6B12 PUSH2 0x672E JUMP JUMPDEST JUMPDEST PUSH2 0x6B1F DUP6 DUP3 DUP7 ADD PUSH2 0x6A86 JUMP JUMPDEST SWAP2 POP POP SWAP3 POP SWAP3 SWAP1 POP JUMP JUMPDEST PUSH0 PUSH1 0x20 DUP3 DUP5 SUB SLT ISZERO PUSH2 0x6B3E JUMPI PUSH2 0x6B3D PUSH2 0x672A JUMP JUMPDEST JUMPDEST PUSH0 PUSH2 0x6B4B DUP5 DUP3 DUP6 ADD PUSH2 0x6871 JUMP JUMPDEST SWAP2 POP POP SWAP3 SWAP2 POP POP JUMP JUMPDEST PUSH2 0x6B5D DUP2 PUSH2 0x6751 JUMP JUMPDEST DUP3 MSTORE POP POP JUMP JUMPDEST PUSH0 PUSH1 0x20 DUP3 ADD SWAP1 POP PUSH2 0x6B76 PUSH0 DUP4 ADD DUP5 PUSH2 0x6B54 JUMP JUMPDEST SWAP3 SWAP2 POP POP JUMP JUMPDEST PUSH0 DUP1 PUSH1 0x40 DUP4 DUP6 SUB SLT ISZERO PUSH2 0x6B92 JUMPI PUSH2 0x6B91 PUSH2 0x672A JUMP JUMPDEST JUMPDEST PUSH0 PUSH2 0x6B9F DUP6 DUP3 DUP7 ADD PUSH2 0x6871 JUMP JUMPDEST SWAP3 POP POP PUSH1 0x20 DUP4 ADD CALLDATALOAD PUSH8 0xFFFFFFFFFFFFFFFF DUP2 GT ISZERO PUSH2 0x6BC0 JUMPI PUSH2 0x6BBF PUSH2 0x672E JUMP JUMPDEST JUMPDEST PUSH2 0x6BCC DUP6 DUP3 DUP7 ADD PUSH2 0x6A86 JUMP JUMPDEST SWAP2 POP POP SWAP3 POP SWAP3 SWAP1 POP JUMP JUMPDEST PUSH0 DUP2 MLOAD SWAP1 POP SWAP2 SWAP1 POP JUMP JUMPDEST PUSH0 DUP3 DUP3 MSTORE PUSH1 0x20 DUP3 ADD SWAP1 POP SWAP3 SWAP2 POP POP JUMP JUMPDEST DUP3 DUP2 DUP4 MCOPY PUSH0 DUP4 DUP4 ADD MSTORE POP POP POP JUMP JUMPDEST PUSH0 PUSH2 0x6C08 DUP3 PUSH2 0x6BD6 JUMP JUMPDEST PUSH2 0x6C12 DUP2 DUP6 PUSH2 0x6BE0 JUMP JUMPDEST SWAP4 POP PUSH2 0x6C22 DUP2 DUP6 PUSH1 0x20 DUP7 ADD PUSH2 0x6BF0 JUMP JUMPDEST PUSH2 0x6C2B DUP2 PUSH2 0x6790 JUMP JUMPDEST DUP5 ADD SWAP2 POP POP SWAP3 SWAP2 POP POP JUMP JUMPDEST PUSH0 PUSH1 0x20 DUP3 ADD SWAP1 POP DUP2 DUP2 SUB PUSH0 DUP4 ADD MSTORE PUSH2 0x6C4E DUP2 DUP5 PUSH2 0x6BFE JUMP JUMPDEST SWAP1 POP SWAP3 SWAP2 POP POP JUMP JUMPDEST PUSH2 0x6C5F DUP2 PUSH2 0x6924 JUMP JUMPDEST DUP2 EQ PUSH2 0x6C69 JUMPI PUSH0 DUP1 REVERT JUMPDEST POP JUMP JUMPDEST PUSH0 DUP2 CALLDATALOAD SWAP1 POP PUSH2 0x6C7A DUP2 PUSH2 0x6C56 JUMP JUMPDEST SWAP3 SWAP2 POP POP JUMP JUMPDEST PUSH0 DUP1 PUSH0 DUP1 PUSH1 0x80 DUP6 DUP8 SUB SLT ISZERO PUSH2 0x6C98 JUMPI PUSH2 0x6C97 PUSH2 0x672A JUMP JUMPDEST JUMPDEST PUSH0 PUSH2 0x6CA5 DUP8 DUP3 DUP9 ADD PUSH2 0x6C6C JUMP JUMPDEST SWAP5 POP POP PUSH1 0x20 PUSH2 0x6CB6 DUP8 DUP3 DUP9 ADD PUSH2 0x6C6C JUMP JUMPDEST SWAP4 POP POP PUSH1 0x40 PUSH2 0x6CC7 DUP8 DUP3 DUP9 ADD PUSH2 0x6C6C JUMP JUMPDEST SWAP3 POP POP PUSH1 0x60 PUSH2 0x6CD8 DUP8 DUP3 DUP9 ADD PUSH2 0x6C6C JUMP JUMPDEST SWAP2 POP POP SWAP3 SWAP6 SWAP2 SWAP5 POP SWAP3 POP JUMP JUMPDEST PUSH0 DUP1 PUSH1 0x40 DUP4 DUP6 SUB SLT ISZERO PUSH2 0x6CFA JUMPI PUSH2 0x6CF9 PUSH2 0x672A JUMP JUMPDEST JUMPDEST PUSH0 PUSH2 0x6D07 DUP6 DUP3 DUP7 ADD PUSH2 0x6778 JUMP JUMPDEST SWAP3 POP POP PUSH1 0x20 PUSH2 0x6D18 DUP6 DUP3 DUP7 ADD PUSH2 0x6871 JUMP JUMPDEST SWAP2 POP POP SWAP3 POP SWAP3 SWAP1 POP JUMP JUMPDEST PUSH0 PUSH1 0xA0 DUP3 ADD SWAP1 POP DUP2 DUP2 SUB PUSH0 DUP4 ADD MSTORE PUSH2 0x6D3A DUP2 DUP9 PUSH2 0x6BFE JUMP JUMPDEST SWAP1 POP DUP2 DUP2 SUB PUSH1 0x20 DUP4 ADD MSTORE PUSH2 0x6D4E DUP2 DUP8 PUSH2 0x6BFE JUMP JUMPDEST SWAP1 POP DUP2 DUP2 SUB PUSH1 0x40 DUP4 ADD MSTORE PUSH2 0x6D62 DUP2 DUP7 PUSH2 0x6BFE JUMP JUMPDEST SWAP1 POP DUP2 DUP2 SUB PUSH1 0x60 DUP4 ADD MSTORE PUSH2 0x6D76 DUP2 DUP6 PUSH2 0x6BFE JUMP JUMPDEST SWAP1 POP DUP2 DUP2 SUB PUSH1 0x80 DUP4 ADD MSTORE PUSH2 0x6D8A DUP2 DUP5 PUSH2 0x6BFE JUMP JUMPDEST SWAP1 POP SWAP7 SWAP6 POP POP POP POP POP POP JUMP JUMPDEST PUSH0 PUSH1 0x20 DUP3 DUP5 SUB SLT ISZERO PUSH2 0x6DAB JUMPI PUSH2 0x6DAA PUSH2 0x672A JUMP JUMPDEST JUMPDEST PUSH0 PUSH2 0x6DB8 DUP5 DUP3 DUP6 ADD PUSH2 0x6778 JUMP JUMPDEST SWAP2 POP POP SWAP3 SWAP2 POP POP JUMP JUMPDEST PUSH32 0x4E487B7100000000000000000000000000000000000000000000000000000000 PUSH0 MSTORE PUSH1 0x21 PUSH1 0x4 MSTORE PUSH1 0x24 PUSH0 REVERT JUMPDEST PUSH1 0x3 DUP2 LT PUSH2 0x6DFF JUMPI PUSH2 0x6DFE PUSH2 0x6DC1 JUMP JUMPDEST JUMPDEST POP JUMP JUMPDEST PUSH0 DUP2 SWAP1 POP PUSH2 0x6E0F DUP3 PUSH2 0x6DEE JUMP JUMPDEST SWAP2 SWAP1 POP JUMP JUMPDEST PUSH0 PUSH2 0x6E1E DUP3 PUSH2 0x6E02 JUMP JUMPDEST SWAP1 POP SWAP2 SWAP1 POP JUMP JUMPDEST PUSH2 0x6E2E DUP2 PUSH2 0x6E14 JUMP JUMPDEST DUP3 MSTORE POP POP JUMP JUMPDEST PUSH0 PUSH1 0x20 DUP3 ADD SWAP1 POP PUSH2 0x6E47 PUSH0 DUP4 ADD DUP5 PUSH2 0x6E25 JUMP JUMPDEST SWAP3 SWAP2 POP POP JUMP JUMPDEST PUSH0 DUP2 MLOAD SWAP1 POP SWAP2 SWAP1 POP JUMP JUMPDEST PUSH0 DUP3 DUP3 MSTORE PUSH1 0x20 DUP3 ADD SWAP1 POP SWAP3 SWAP2 POP POP JUMP JUMPDEST PUSH0 DUP2 SWAP1 POP PUSH1 0x20 DUP3 ADD SWAP1 POP SWAP2 SWAP1 POP JUMP JUMPDEST PUSH2 0x6E7F DUP2 PUSH2 0x681C JUMP JUMPDEST DUP3 MSTORE POP POP JUMP JUMPDEST PUSH2 0x6E8E DUP2 PUSH2 0x6852 JUMP JUMPDEST DUP3 MSTORE POP POP JUMP JUMPDEST PUSH2 0x6E9D DUP2 PUSH2 0x6751 JUMP JUMPDEST DUP3 MSTORE POP POP JUMP JUMPDEST PUSH1 0x60 DUP3 ADD PUSH0 DUP3 ADD MLOAD PUSH2 0x6EB7 PUSH0 DUP6 ADD DUP3 PUSH2 0x6E76 JUMP JUMPDEST POP PUSH1 0x20 DUP3 ADD MLOAD PUSH2 0x6ECA PUSH1 0x20 DUP6 ADD DUP3 PUSH2 0x6E85 JUMP JUMPDEST POP PUSH1 0x40 DUP3 ADD MLOAD PUSH2 0x6EDD PUSH1 0x40 DUP6 ADD DUP3 PUSH2 0x6E94 JUMP JUMPDEST POP POP POP POP JUMP JUMPDEST PUSH0 PUSH2 0x6EEE DUP4 DUP4 PUSH2 0x6EA3 JUMP JUMPDEST PUSH1 0x60 DUP4 ADD SWAP1 POP SWAP3 SWAP2 POP POP JUMP JUMPDEST PUSH0 PUSH1 0x20 DUP3 ADD SWAP1 POP SWAP2 SWAP1 POP JUMP JUMPDEST PUSH0 PUSH2 0x6F10 DUP3 PUSH2 0x6E4D JUMP JUMPDEST PUSH2 0x6F1A DUP2 DUP6 PUSH2 0x6E57 JUMP JUMPDEST SWAP4 POP PUSH2 0x6F25 DUP4 PUSH2 0x6E67 JUMP JUMPDEST DUP1 PUSH0 JUMPDEST DUP4 DUP2 LT ISZERO PUSH2 0x6F55 JUMPI DUP2 MLOAD PUSH2 0x6F3C DUP9 DUP3 PUSH2 0x6EE3 JUMP JUMPDEST SWAP8 POP PUSH2 0x6F47 DUP4 PUSH2 0x6EFA JUMP JUMPDEST SWAP3 POP POP PUSH1 0x1 DUP2 ADD SWAP1 POP PUSH2 0x6F28 JUMP JUMPDEST POP DUP6 SWAP4 POP POP POP POP SWAP3 SWAP2 POP POP JUMP JUMPDEST PUSH0 PUSH1 0x20 DUP3 ADD SWAP1 POP DUP2 DUP2 SUB PUSH0 DUP4 ADD MSTORE PUSH2 0x6F7A DUP2 DUP5 PUSH2 0x6F06 JUMP JUMPDEST SWAP1 POP SWAP3 SWAP2 POP POP JUMP JUMPDEST PUSH0 DUP2 SWAP1 POP SWAP2 SWAP1 POP JUMP JUMPDEST PUSH0 PUSH2 0x6FA5 PUSH2 0x6FA0 PUSH2 0x6F9B DUP5 PUSH2 0x6732 JUMP JUMPDEST PUSH2 0x6F82 JUMP JUMPDEST PUSH2 0x6732 JUMP JUMPDEST SWAP1 POP SWAP2 SWAP1 POP JUMP JUMPDEST PUSH0 PUSH2 0x6FB6 DUP3 PUSH2 0x6F8B JUMP JUMPDEST SWAP1 POP SWAP2 SWAP1 POP JUMP JUMPDEST PUSH0 PUSH2 0x6FC7 DUP3 PUSH2 0x6FAC JUMP JUMPDEST SWAP1 POP SWAP2 SWAP1 POP JUMP JUMPDEST PUSH2 0x6FD7 DUP2 PUSH2 0x6FBD JUMP JUMPDEST DUP3 MSTORE POP POP JUMP JUMPDEST PUSH0 PUSH1 0x20 DUP3 ADD SWAP1 POP PUSH2 0x6FF0 PUSH0 DUP4 ADD DUP5 PUSH2 0x6FCE JUMP JUMPDEST SWAP3 SWAP2 POP POP JUMP JUMPDEST PUSH0 DUP1 PUSH0 PUSH1 0x60 DUP5 DUP7 SUB SLT ISZERO PUSH2 0x700D JUMPI PUSH2 0x700C PUSH2 0x672A JUMP JUMPDEST JUMPDEST PUSH0 PUSH2 0x701A DUP7 DUP3 DUP8 ADD PUSH2 0x6871 JUMP JUMPDEST SWAP4 POP POP PUSH1 0x20 PUSH2 0x702B DUP7 DUP3 DUP8 ADD PUSH2 0x6C6C JUMP JUMPDEST SWAP3 POP POP PUSH1 0x40 PUSH2 0x703C DUP7 DUP3 DUP8 ADD PUSH2 0x6778 JUMP JUMPDEST SWAP2 POP POP SWAP3 POP SWAP3 POP SWAP3 JUMP JUMPDEST PUSH2 0x704F DUP2 PUSH2 0x6924 JUMP JUMPDEST DUP3 MSTORE POP POP JUMP JUMPDEST PUSH1 0xC0 DUP3 ADD PUSH0 DUP3 ADD MLOAD PUSH2 0x7069 PUSH0 DUP6 ADD DUP3 PUSH2 0x7046 JUMP JUMPDEST POP PUSH1 0x20 DUP3 ADD MLOAD PUSH2 0x707C PUSH1 0x20 DUP6 ADD DUP3 PUSH2 0x7046 JUMP JUMPDEST POP PUSH1 0x40 DUP3 ADD MLOAD PUSH2 0x708F PUSH1 0x40 DUP6 ADD DUP3 PUSH2 0x7046 JUMP JUMPDEST POP PUSH1 0x60 DUP3 ADD MLOAD PUSH2 0x70A2 PUSH1 0x60 DUP6 ADD DUP3 PUSH2 0x7046 JUMP JUMPDEST POP PUSH1 0x80 DUP3 ADD MLOAD PUSH2 0x70B5 PUSH1 0x80 DUP6 ADD DUP3 PUSH2 0x7046 JUMP JUMPDEST POP PUSH1 0xA0 DUP3 ADD MLOAD PUSH2 0x70C8 PUSH1 0xA0 DUP6 ADD DUP3 PUSH2 0x7046 JUMP JUMPDEST POP POP POP POP JUMP JUMPDEST PUSH0 PUSH1 0xC0 DUP3 ADD SWAP1 POP PUSH2 0x70E1 PUSH0 DUP4 ADD DUP5 PUSH2 0x7055 JUMP JUMPDEST SWAP3 SWAP2 POP POP JUMP JUMPDEST PUSH2 0x70F0 DUP2 PUSH2 0x681C JUMP JUMPDEST DUP3 MSTORE POP POP JUMP JUMPDEST PUSH2 0x70FF DUP2 PUSH2 0x6852 JUMP JUMPDEST DUP3 MSTORE POP POP JUMP JUMPDEST PUSH0 PUSH2 0x140 DUP3 ADD SWAP1 POP PUSH2 0x7119 PUSH0 DUP4 ADD DUP14 PUSH2 0x6B54 JUMP JUMPDEST DUP2 DUP2 SUB PUSH1 0x20 DUP4 ADD MSTORE PUSH2 0x712B DUP2 DUP13 PUSH2 0x6BFE JUMP JUMPDEST SWAP1 POP DUP2 DUP2 SUB PUSH1 0x40 DUP4 ADD MSTORE PUSH2 0x713F DUP2 DUP12 PUSH2 0x6BFE JUMP JUMPDEST SWAP1 POP PUSH2 0x714E PUSH1 0x60 DUP4 ADD DUP11 PUSH2 0x70E7 JUMP JUMPDEST PUSH2 0x715B PUSH1 0x80 DUP4 ADD DUP10 PUSH2 0x70F6 JUMP JUMPDEST DUP2 DUP2 SUB PUSH1 0xA0 DUP4 ADD MSTORE PUSH2 0x716D DUP2 DUP9 PUSH2 0x6BFE JUMP JUMPDEST SWAP1 POP DUP2 DUP2 SUB PUSH1 0xC0 DUP4 ADD MSTORE PUSH2 0x7181 DUP2 DUP8 PUSH2 0x6BFE JUMP JUMPDEST SWAP1 POP PUSH2 0x7190 PUSH1 0xE0 DUP4 ADD DUP7 PUSH2 0x6E25 JUMP JUMPDEST PUSH2 0x719E PUSH2 0x100 DUP4 ADD DUP6 PUSH2 0x70F6 JUMP JUMPDEST PUSH2 0x71AC PUSH2 0x120 DUP4 ADD DUP5 PUSH2 0x6B54 JUMP JUMPDEST SWAP12 SWAP11 POP POP POP POP POP POP POP POP POP POP POP JUMP JUMPDEST PUSH0 PUSH2 0x71C5 DUP3 PUSH2 0x6FAC JUMP JUMPDEST SWAP1 POP SWAP2 SWAP1 POP JUMP JUMPDEST PUSH2 0x71D5 DUP2 PUSH2 0x71BB JUMP JUMPDEST DUP3 MSTORE POP POP JUMP JUMPDEST PUSH0 PUSH1 0x20 DUP3 ADD SWAP1 POP PUSH2 0x71EE PUSH0 DUP4 ADD DUP5 PUSH2 0x71CC JUMP JUMPDEST SWAP3 SWAP2 POP POP JUMP JUMPDEST PUSH0 PUSH1 0xC0 DUP3 DUP5 SUB SLT ISZERO PUSH2 0x7209 JUMPI PUSH2 0x7208 PUSH2 0x678C JUMP JUMPDEST JUMPDEST PUSH2 0x7213 PUSH1 0xC0 PUSH2 0x67FE JUMP JUMPDEST SWAP1 POP PUSH0 DUP3 ADD CALLDATALOAD PUSH8 0xFFFFFFFFFFFFFFFF DUP2 GT ISZERO PUSH2 0x7232 JUMPI PUSH2 0x7231 PUSH2 0x6818 JUMP JUMPDEST JUMPDEST PUSH2 0x723E DUP5 DUP3 DUP6 ADD PUSH2 0x6A86 JUMP JUMPDEST PUSH0 DUP4 ADD MSTORE POP PUSH1 0x20 DUP3 ADD CALLDATALOAD PUSH8 0xFFFFFFFFFFFFFFFF DUP2 GT ISZERO PUSH2 0x7261 JUMPI PUSH2 0x7260 PUSH2 0x6818 JUMP JUMPDEST JUMPDEST PUSH2 0x726D DUP5 DUP3 DUP6 ADD PUSH2 0x6A86 JUMP JUMPDEST PUSH1 0x20 DUP4 ADD MSTORE POP PUSH1 0x40 PUSH2 0x7281 DUP5 DUP3 DUP6 ADD PUSH2 0x683E JUMP JUMPDEST PUSH1 0x40 DUP4 ADD MSTORE POP PUSH1 0x60 PUSH2 0x7295 DUP5 DUP3 DUP6 ADD PUSH2 0x6871 JUMP JUMPDEST PUSH1 0x60 DUP4 ADD MSTORE POP PUSH1 0x80 DUP3 ADD CALLDATALOAD PUSH8 0xFFFFFFFFFFFFFFFF DUP2 GT ISZERO PUSH2 0x72B9 JUMPI PUSH2 0x72B8 PUSH2 0x6818 JUMP JUMPDEST JUMPDEST PUSH2 0x72C5 DUP5 DUP3 DUP6 ADD PUSH2 0x6A86 JUMP JUMPDEST PUSH1 0x80 DUP4 ADD MSTORE POP PUSH1 0xA0 PUSH2 0x72D9 DUP5 DUP3 DUP6 ADD PUSH2 0x6778 JUMP JUMPDEST PUSH1 0xA0 DUP4 ADD MSTORE POP SWAP3 SWAP2 POP POP JUMP JUMPDEST PUSH0 PUSH1 0x20 DUP3 DUP5 SUB SLT ISZERO PUSH2 0x72FA JUMPI PUSH2 0x72F9 PUSH2 0x672A JUMP JUMPDEST JUMPDEST PUSH0 DUP3 ADD CALLDATALOAD PUSH8 0xFFFFFFFFFFFFFFFF DUP2 GT ISZERO PUSH2 0x7317 JUMPI PUSH2 0x7316 PUSH2 0x672E JUMP JUMPDEST JUMPDEST PUSH2 0x7323 DUP5 DUP3 DUP6 ADD PUSH2 0x71F4 JUMP JUMPDEST SWAP2 POP POP SWAP3 SWAP2 POP POP JUMP JUMPDEST PUSH0 DUP3 DUP3 MSTORE PUSH1 0x20 DUP3 ADD SWAP1 POP SWAP3 SWAP2 POP POP JUMP JUMPDEST PUSH0 PUSH2 0x7346 DUP3 PUSH2 0x6BD6 JUMP JUMPDEST PUSH2 0x7350 DUP2 DUP6 PUSH2 0x732C JUMP JUMPDEST SWAP4 POP PUSH2 0x7360 DUP2 DUP6 PUSH1 0x20 DUP7 ADD PUSH2 0x6BF0 JUMP JUMPDEST PUSH2 0x7369 DUP2 PUSH2 0x6790 JUMP JUMPDEST DUP5 ADD SWAP2 POP POP SWAP3 SWAP2 POP POP JUMP JUMPDEST PUSH2 0x737D DUP2 PUSH2 0x6E14 JUMP JUMPDEST DUP3 MSTORE POP POP JUMP JUMPDEST PUSH0 PUSH2 0x140 DUP4 ADD PUSH0 DUP4 ADD MLOAD PUSH2 0x7399 PUSH0 DUP7 ADD DUP3 PUSH2 0x6E94 JUMP JUMPDEST POP PUSH1 0x20 DUP4 ADD MLOAD DUP5 DUP3 SUB PUSH1 0x20 DUP7 ADD MSTORE PUSH2 0x73B1 DUP3 DUP3 PUSH2 0x733C JUMP JUMPDEST SWAP2 POP POP PUSH1 0x40 DUP4 ADD MLOAD DUP5 DUP3 SUB PUSH1 0x40 DUP7 ADD MSTORE PUSH2 0x73CB DUP3 DUP3 PUSH2 0x733C JUMP JUMPDEST SWAP2 POP POP PUSH1 0x60 DUP4 ADD MLOAD PUSH2 0x73E0 PUSH1 0x60 DUP7 ADD DUP3 PUSH2 0x6E76 JUMP JUMPDEST POP PUSH1 0x80 DUP4 ADD MLOAD PUSH2 0x73F3 PUSH1 0x80 DUP7 ADD DUP3 PUSH2 0x6E85 JUMP JUMPDEST POP PUSH1 0xA0 DUP4 ADD MLOAD DUP5 DUP3 SUB PUSH1 0xA0 DUP7 ADD MSTORE PUSH2 0x740B DUP3 DUP3 PUSH2 0x733C JUMP JUMPDEST SWAP2 POP POP PUSH1 0xC0 DUP4 ADD MLOAD DUP5 DUP3 SUB PUSH1 0xC0 DUP7 ADD MSTORE PUSH2 0x7425 DUP3 DUP3 PUSH2 0x733C JUMP JUMPDEST SWAP2 POP POP PUSH1 0xE0 DUP4 ADD MLOAD PUSH2 0x743A PUSH1 0xE0 DUP7 ADD DUP3 PUSH2 0x7374 JUMP JUMPDEST POP PUSH2 0x100 DUP4 ADD MLOAD PUSH2 0x744F PUSH2 0x100 DUP7 ADD DUP3 PUSH2 0x6E85 JUMP JUMPDEST POP PUSH2 0x120 DUP4 ADD MLOAD PUSH2 0x7464 PUSH2 0x120 DUP7 ADD DUP3 PUSH2 0x6E94 JUMP JUMPDEST POP DUP1 SWAP2 POP POP SWAP3 SWAP2 POP POP JUMP JUMPDEST PUSH0 DUP2 MLOAD SWAP1 POP SWAP2 SWAP1 POP JUMP JUMPDEST PUSH0 DUP3 DUP3 MSTORE PUSH1 0x20 DUP3 ADD SWAP1 POP SWAP3 SWAP2 POP POP JUMP JUMPDEST PUSH0 DUP2 SWAP1 POP PUSH1 0x20 DUP3 ADD SWAP1 POP SWAP2 SWAP1 POP JUMP JUMPDEST PUSH0 PUSH1 0xA0 DUP4 ADD PUSH0 DUP4 ADD MLOAD DUP5 DUP3 SUB PUSH0 DUP7 ADD MSTORE PUSH2 0x74B2 DUP3 DUP3 PUSH2 0x733C JUMP JUMPDEST SWAP2 POP POP PUSH1 0x20 DUP4 ADD MLOAD DUP5 DUP3 SUB PUSH1 0x20 DUP7 ADD MSTORE PUSH2 0x74CC DUP3 DUP3 PUSH2 0x733C JUMP JUMPDEST SWAP2 POP POP PUSH1 0x40 DUP4 ADD MLOAD DUP5 DUP3 SUB PUSH1 0x40 DUP7 ADD MSTORE PUSH2 0x74E6 DUP3 DUP3 PUSH2 0x733C JUMP JUMPDEST SWAP2 POP POP PUSH1 0x60 DUP4 ADD MLOAD DUP5 DUP3 SUB PUSH1 0x60 DUP7 ADD MSTORE PUSH2 0x7500 DUP3 DUP3 PUSH2 0x733C JUMP JUMPDEST SWAP2 POP POP PUSH1 0x80 DUP4 ADD MLOAD DUP5 DUP3 SUB PUSH1 0x80 DUP7 ADD MSTORE PUSH2 0x751A DUP3 DUP3 PUSH2 0x733C JUMP JUMPDEST SWAP2 POP POP DUP1 SWAP2 POP POP SWAP3 SWAP2 POP POP JUMP JUMPDEST PUSH0 PUSH2 0x7532 DUP4 DUP4 PUSH2 0x7498 JUMP JUMPDEST SWAP1 POP SWAP3 SWAP2 POP POP JUMP JUMPDEST PUSH0 PUSH1 0x20 DUP3 ADD SWAP1 POP SWAP2 SWAP1 POP JUMP JUMPDEST PUSH0 PUSH2 0x7550 DUP3 PUSH2 0x746F JUMP JUMPDEST PUSH2 0x755A DUP2 DUP6 PUSH2 0x7479 JUMP JUMPDEST SWAP4 POP DUP4 PUSH1 0x20 DUP3 MUL DUP6 ADD PUSH2 0x756C DUP6 PUSH2 0x7489 JUMP JUMPDEST DUP1 PUSH0 JUMPDEST DUP6 DUP2 LT ISZERO PUSH2 0x75A7 JUMPI DUP5 DUP5 SUB DUP10 MSTORE DUP2 MLOAD PUSH2 0x7588 DUP6 DUP3 PUSH2 0x7527 JUMP JUMPDEST SWAP5 POP PUSH2 0x7593 DUP4 PUSH2 0x753A JUMP JUMPDEST SWAP3 POP PUSH1 0x20 DUP11 ADD SWAP10 POP POP PUSH1 0x1 DUP2 ADD SWAP1 POP PUSH2 0x756F JUMP JUMPDEST POP DUP3 SWAP8 POP DUP8 SWAP6 POP POP POP POP POP POP SWAP3 SWAP2 POP POP JUMP JUMPDEST PUSH0 PUSH1 0x40 DUP3 ADD SWAP1 POP DUP2 DUP2 SUB PUSH0 DUP4 ADD MSTORE PUSH2 0x75D1 DUP2 DUP6 PUSH2 0x7383 JUMP JUMPDEST SWAP1 POP DUP2 DUP2 SUB PUSH1 0x20 DUP4 ADD MSTORE PUSH2 0x75E5 DUP2 DUP5 PUSH2 0x7546 JUMP JUMPDEST SWAP1 POP SWAP4 SWAP3 POP POP POP JUMP JUMPDEST PUSH0 PUSH1 0xC0 DUP3 ADD SWAP1 POP PUSH2 0x7601 PUSH0 DUP4 ADD DUP10 PUSH2 0x692F JUMP JUMPDEST PUSH2 0x760E PUSH1 0x20 DUP4 ADD DUP9 PUSH2 0x692F JUMP JUMPDEST PUSH2 0x761B PUSH1 0x40 DUP4 ADD DUP8 PUSH2 0x692F JUMP JUMPDEST PUSH2 0x7628 PUSH1 0x60 DUP4 ADD DUP7 PUSH2 0x692F JUMP JUMPDEST PUSH2 0x7635 PUSH1 0x80 DUP4 ADD DUP6 PUSH2 0x692F JUMP JUMPDEST PUSH2 0x7642 PUSH1 0xA0 DUP4 ADD DUP5 PUSH2 0x692F JUMP JUMPDEST SWAP8 SWAP7 POP POP POP POP POP POP POP JUMP JUMPDEST PUSH0 DUP1 PUSH0 DUP1 PUSH0 DUP1 PUSH1 0xC0 DUP8 DUP10 SUB SLT ISZERO PUSH2 0x7667 JUMPI PUSH2 0x7666 PUSH2 0x672A JUMP JUMPDEST JUMPDEST PUSH0 PUSH2 0x7674 DUP10 DUP3 DUP11 ADD PUSH2 0x6C6C JUMP JUMPDEST SWAP7 POP POP PUSH1 0x20 PUSH2 0x7685 DUP10 DUP3 DUP11 ADD PUSH2 0x6C6C JUMP JUMPDEST SWAP6 POP POP PUSH1 0x40 PUSH2 0x7696 DUP10 DUP3 DUP11 ADD PUSH2 0x6C6C JUMP JUMPDEST SWAP5 POP POP PUSH1 0x60 PUSH2 0x76A7 DUP10 DUP3 DUP11 ADD PUSH2 0x6C6C JUMP JUMPDEST SWAP4 POP POP PUSH1 0x80 PUSH2 0x76B8 DUP10 DUP3 DUP11 ADD PUSH2 0x6C6C JUMP JUMPDEST SWAP3 POP POP PUSH1 0xA0 PUSH2 0x76C9 DUP10 DUP3 DUP11 ADD PUSH2 0x6C6C JUMP JUMPDEST SWAP2 POP POP SWAP3 SWAP6 POP SWAP3 SWAP6 POP SWAP3 SWAP6 JUMP JUMPDEST PUSH0 PUSH8 0xFFFFFFFFFFFFFFFF DUP3 GT ISZERO PUSH2 0x76F0 JUMPI PUSH2 0x76EF PUSH2 0x67A0 JUMP JUMPDEST JUMPDEST PUSH2 0x76F9 DUP3 PUSH2 0x6790 JUMP JUMPDEST SWAP1 POP PUSH1 0x20 DUP2 ADD SWAP1 POP SWAP2 SWAP1 POP JUMP JUMPDEST PUSH0 PUSH2 0x7718 PUSH2 0x7713 DUP5 PUSH2 0x76D6 JUMP JUMPDEST PUSH2 0x67FE JUMP JUMPDEST SWAP1 POP DUP3 DUP2 MSTORE PUSH1 0x20 DUP2 ADD DUP5 DUP5 DUP5 ADD GT ISZERO PUSH2 0x7734 JUMPI PUSH2 0x7733 PUSH2 0x6A03 JUMP JUMPDEST JUMPDEST PUSH2 0x773F DUP5 DUP3 DUP6 PUSH2 0x6A37 JUMP JUMPDEST POP SWAP4 SWAP3 POP POP POP JUMP JUMPDEST PUSH0 DUP3 PUSH1 0x1F DUP4 ADD SLT PUSH2 0x775B JUMPI PUSH2 0x775A PUSH2 0x6957 JUMP JUMPDEST JUMPDEST DUP2 CALLDATALOAD PUSH2 0x776B DUP5 DUP3 PUSH1 0x20 DUP7 ADD PUSH2 0x7706 JUMP JUMPDEST SWAP2 POP POP SWAP3 SWAP2 POP POP JUMP JUMPDEST PUSH0 DUP1 PUSH0 DUP1 PUSH0 DUP1 PUSH1 0xC0 DUP8 DUP10 SUB SLT ISZERO PUSH2 0x778E JUMPI PUSH2 0x778D PUSH2 0x672A JUMP JUMPDEST JUMPDEST PUSH0 DUP8 ADD CALLDATALOAD PUSH8 0xFFFFFFFFFFFFFFFF DUP2 GT ISZERO PUSH2 0x77AB JUMPI PUSH2 0x77AA PUSH2 0x672E JUMP JUMPDEST JUMPDEST PUSH2 0x77B7 DUP10 DUP3 DUP11 ADD PUSH2 0x7747 JUMP JUMPDEST SWAP7 POP POP PUSH1 0x20 PUSH2 0x77C8 DUP10 DUP3 DUP11 ADD PUSH2 0x683E JUMP JUMPDEST SWAP6 POP POP PUSH1 0x40 DUP8 ADD CALLDATALOAD PUSH8 0xFFFFFFFFFFFFFFFF DUP2 GT ISZERO PUSH2 0x77E9 JUMPI PUSH2 0x77E8 PUSH2 0x672E JUMP JUMPDEST JUMPDEST PUSH2 0x77F5 DUP10 DUP3 DUP11 ADD PUSH2 0x6A86 JUMP JUMPDEST SWAP5 POP POP PUSH1 0x60 DUP8 ADD CALLDATALOAD PUSH8 0xFFFFFFFFFFFFFFFF DUP2 GT ISZERO PUSH2 0x7816 JUMPI PUSH2 0x7815 PUSH2 0x672E JUMP JUMPDEST JUMPDEST PUSH2 0x7822 DUP10 DUP3 DUP11 ADD PUSH2 0x6A86 JUMP JUMPDEST SWAP4 POP POP PUSH1 0x80 PUSH2 0x7833 DUP10 DUP3 DUP11 ADD PUSH2 0x6778 JUMP JUMPDEST SWAP3 POP POP PUSH1 0xA0 DUP8 ADD CALLDATALOAD PUSH8 0xFFFFFFFFFFFFFFFF DUP2 GT ISZERO PUSH2 0x7854 JUMPI PUSH2 0x7853 PUSH2 0x672E JUMP JUMPDEST JUMPDEST PUSH2 0x7860 DUP10 DUP3 DUP11 ADD PUSH2 0x6A86 JUMP JUMPDEST SWAP2 POP POP SWAP3 SWAP6 POP SWAP3 SWAP6 POP SWAP3 SWAP6 JUMP JUMPDEST PUSH0 PUSH1 0x60 DUP3 ADD SWAP1 POP PUSH2 0x7880 PUSH0 DUP4 ADD DUP7 PUSH2 0x70E7 JUMP JUMPDEST PUSH2 0x788D PUSH1 0x20 DUP4 ADD DUP6 PUSH2 0x70F6 JUMP JUMPDEST PUSH2 0x789A PUSH1 0x40 DUP4 ADD DUP5 PUSH2 0x6B54 JUMP JUMPDEST SWAP5 SWAP4 POP POP POP POP JUMP JUMPDEST PUSH0 DUP2 MLOAD SWAP1 POP SWAP2 SWAP1 POP JUMP JUMPDEST PUSH0 DUP3 DUP3 MSTORE PUSH1 0x20 DUP3 ADD SWAP1 POP SWAP3 SWAP2 POP POP JUMP JUMPDEST PUSH0 DUP2 SWAP1 POP PUSH1 0x20 DUP3 ADD SWAP1 POP SWAP2 SWAP1 POP JUMP JUMPDEST PUSH0 PUSH2 0x140 DUP4 ADD PUSH0 DUP4 ADD MLOAD PUSH2 0x78E1 PUSH0 DUP7 ADD DUP3 PUSH2 0x6E94 JUMP JUMPDEST POP PUSH1 0x20 DUP4 ADD MLOAD DUP5 DUP3 SUB PUSH1 0x20 DUP7 ADD MSTORE PUSH2 0x78F9 DUP3 DUP3 PUSH2 0x733C JUMP JUMPDEST SWAP2 POP POP PUSH1 0x40 DUP4 ADD MLOAD DUP5 DUP3 SUB PUSH1 0x40 DUP7 ADD MSTORE PUSH2 0x7913 DUP3 DUP3 PUSH2 0x733C JUMP JUMPDEST SWAP2 POP POP PUSH1 0x60 DUP4 ADD MLOAD PUSH2 0x7928 PUSH1 0x60 DUP7 ADD DUP3 PUSH2 0x6E76 JUMP JUMPDEST POP PUSH1 0x80 DUP4 ADD MLOAD PUSH2 0x793B PUSH1 0x80 DUP7 ADD DUP3 PUSH2 0x6E85 JUMP JUMPDEST POP PUSH1 0xA0 DUP4 ADD MLOAD DUP5 DUP3 SUB PUSH1 0xA0 DUP7 ADD MSTORE PUSH2 0x7953 DUP3 DUP3 PUSH2 0x733C JUMP JUMPDEST SWAP2 POP POP PUSH1 0xC0 DUP4 ADD MLOAD DUP5 DUP3 SUB PUSH1 0xC0 DUP7 ADD MSTORE PUSH2 0x796D DUP3 DUP3 PUSH2 0x733C JUMP JUMPDEST SWAP2 POP POP PUSH1 0xE0 DUP4 ADD MLOAD PUSH2 0x7982 PUSH1 0xE0 DUP7 ADD DUP3 PUSH2 0x7374 JUMP JUMPDEST POP PUSH2 0x100 DUP4 ADD MLOAD PUSH2 0x7997 PUSH2 0x100 DUP7 ADD DUP3 PUSH2 0x6E85 JUMP JUMPDEST POP PUSH2 0x120 DUP4 ADD MLOAD PUSH2 0x79AC PUSH2 0x120 DUP7 ADD DUP3 PUSH2 0x6E94 JUMP JUMPDEST POP DUP1 SWAP2 POP POP SWAP3 SWAP2 POP POP JUMP JUMPDEST PUSH0 PUSH2 0x79C2 DUP4 DUP4 PUSH2 0x78CB JUMP JUMPDEST SWAP1 POP SWAP3 SWAP2 POP POP JUMP JUMPDEST PUSH0 PUSH1 0x20 DUP3 ADD SWAP1 POP SWAP2 SWAP1 POP JUMP JUMPDEST PUSH0 PUSH2 0x79E0 DUP3 PUSH2 0x78A2 JUMP JUMPDEST PUSH2 0x79EA DUP2 DUP6 PUSH2 0x78AC JUMP JUMPDEST SWAP4 POP DUP4 PUSH1 0x20 DUP3 MUL DUP6 ADD PUSH2 0x79FC DUP6 PUSH2 0x78BC JUMP JUMPDEST DUP1 PUSH0 JUMPDEST DUP6 DUP2 LT ISZERO PUSH2 0x7A37 JUMPI DUP5 DUP5 SUB DUP10 MSTORE DUP2 MLOAD PUSH2 0x7A18 DUP6 DUP3 PUSH2 0x79B7 JUMP JUMPDEST SWAP5 POP PUSH2 0x7A23 DUP4 PUSH2 0x79CA JUMP JUMPDEST SWAP3 POP PUSH1 0x20 DUP11 ADD SWAP10 POP POP PUSH1 0x1 DUP2 ADD SWAP1 POP PUSH2 0x79FF JUMP JUMPDEST POP DUP3 SWAP8 POP DUP8 SWAP6 POP POP POP POP POP POP SWAP3 SWAP2 POP POP JUMP JUMPDEST PUSH0 DUP2 MLOAD SWAP1 POP SWAP2 SWAP1 POP JUMP JUMPDEST PUSH0 DUP3 DUP3 MSTORE PUSH1 0x20 DUP3 ADD SWAP1 POP SWAP3 SWAP2 POP POP JUMP JUMPDEST PUSH0 DUP2 SWAP1 POP PUSH1 0x20 DUP3 ADD SWAP1 POP SWAP2 SWAP1 POP JUMP JUMPDEST PUSH0 PUSH2 0x7A7D DUP4 DUP4 PUSH2 0x6E85 JUMP JUMPDEST PUSH1 0x20 DUP4 ADD SWAP1 POP SWAP3 SWAP2 POP POP JUMP JUMPDEST PUSH0 PUSH1 0x20 DUP3 ADD SWAP1 POP SWAP2 SWAP1 POP JUMP JUMPDEST PUSH0 PUSH2 0x7A9F DUP3 PUSH2 0x7A49 JUMP JUMPDEST PUSH2 0x7AA9 DUP2 DUP6 PUSH2 0x7A53 JUMP JUMPDEST SWAP4 POP PUSH2 0x7AB4 DUP4 PUSH2 0x7A63 JUMP JUMPDEST DUP1 PUSH0 JUMPDEST DUP4 DUP2 LT ISZERO PUSH2 0x7AE4 JUMPI DUP2 MLOAD PUSH2 0x7ACB DUP9 DUP3 PUSH2 0x7A72 JUMP JUMPDEST SWAP8 POP PUSH2 0x7AD6 DUP4 PUSH2 0x7A89 JUMP JUMPDEST SWAP3 POP POP PUSH1 0x1 DUP2 ADD SWAP1 POP PUSH2 0x7AB7 JUMP JUMPDEST POP DUP6 SWAP4 POP POP POP POP SWAP3 SWAP2 POP POP JUMP JUMPDEST PUSH0 PUSH1 0x40 DUP3 ADD SWAP1 POP DUP2 DUP2 SUB PUSH0 DUP4 ADD MSTORE PUSH2 0x7B09 DUP2 DUP6 PUSH2 0x79D6 JUMP JUMPDEST SWAP1 POP DUP2 DUP2 SUB PUSH1 0x20 DUP4 ADD MSTORE PUSH2 0x7B1D DUP2 DUP5 PUSH2 0x7A95 JUMP JUMPDEST SWAP1 POP SWAP4 SWAP3 POP POP POP JUMP JUMPDEST PUSH0 PUSH2 0x7B30 DUP3 PUSH2 0x6FAC JUMP JUMPDEST SWAP1 POP SWAP2 SWAP1 POP JUMP JUMPDEST PUSH2 0x7B40 DUP2 PUSH2 0x7B26 JUMP JUMPDEST DUP3 MSTORE POP POP JUMP JUMPDEST PUSH0 PUSH1 0x20 DUP3 ADD SWAP1 POP PUSH2 0x7B59 PUSH0 DUP4 ADD DUP5 PUSH2 0x7B37 JUMP JUMPDEST SWAP3 SWAP2 POP POP JUMP JUMPDEST PUSH0 PUSH8 0xFFFFFFFFFFFFFFFF DUP3 GT ISZERO PUSH2 0x7B79 JUMPI PUSH2 0x7B78 PUSH2 0x67A0 JUMP JUMPDEST JUMPDEST PUSH1 0x20 DUP3 MUL SWAP1 POP PUSH1 0x20 DUP2 ADD SWAP1 POP SWAP2 SWAP1 POP JUMP JUMPDEST PUSH0 PUSH2 0x7B9C PUSH2 0x7B97 DUP5 PUSH2 0x7B5F JUMP JUMPDEST PUSH2 0x67FE JUMP JUMPDEST SWAP1 POP DUP1 DUP4 DUP3 MSTORE PUSH1 0x20 DUP3 ADD SWAP1 POP PUSH1 0x20 DUP5 MUL DUP4 ADD DUP6 DUP2 GT ISZERO PUSH2 0x7BBF JUMPI PUSH2 0x7BBE PUSH2 0x695F JUMP JUMPDEST JUMPDEST DUP4 JUMPDEST DUP2 DUP2 LT ISZERO PUSH2 0x7BE8 JUMPI DUP1 PUSH2 0x7BD4 DUP9 DUP3 PUSH2 0x6778 JUMP JUMPDEST DUP5 MSTORE PUSH1 0x20 DUP5 ADD SWAP4 POP POP PUSH1 0x20 DUP2 ADD SWAP1 POP PUSH2 0x7BC1 JUMP JUMPDEST POP POP POP SWAP4 SWAP3 POP POP POP JUMP JUMPDEST PUSH0 DUP3 PUSH1 0x1F DUP4 ADD SLT PUSH2 0x7C06 JUMPI PUSH2 0x7C05 PUSH2 0x6957 JUMP JUMPDEST JUMPDEST DUP2 CALLDATALOAD PUSH2 0x7C16 DUP5 DUP3 PUSH1 0x20 DUP7 ADD PUSH2 0x7B8A JUMP JUMPDEST SWAP2 POP POP SWAP3 SWAP2 POP POP JUMP JUMPDEST PUSH0 DUP1 PUSH0 DUP1 PUSH0 DUP1 PUSH1 0xC0 DUP8 DUP10 SUB SLT ISZERO PUSH2 0x7C39 JUMPI PUSH2 0x7C38 PUSH2 0x672A JUMP JUMPDEST JUMPDEST PUSH0 DUP8 ADD CALLDATALOAD PUSH8 0xFFFFFFFFFFFFFFFF DUP2 GT ISZERO PUSH2 0x7C56 JUMPI PUSH2 0x7C55 PUSH2 0x672E JUMP JUMPDEST JUMPDEST PUSH2 0x7C62 DUP10 DUP3 DUP11 ADD PUSH2 0x7747 JUMP JUMPDEST SWAP7 POP POP PUSH1 0x20 PUSH2 0x7C73 DUP10 DUP3 DUP11 ADD PUSH2 0x683E JUMP JUMPDEST SWAP6 POP POP PUSH1 0x40 DUP8 ADD CALLDATALOAD PUSH8 0xFFFFFFFFFFFFFFFF DUP2 GT ISZERO PUSH2 0x7C94 JUMPI PUSH2 0x7C93 PUSH2 0x672E JUMP JUMPDEST JUMPDEST PUSH2 0x7CA0 DUP10 DUP3 DUP11 ADD PUSH2 0x6A86 JUMP JUMPDEST SWAP5 POP POP PUSH1 0x60 DUP8 ADD CALLDATALOAD PUSH8 0xFFFFFFFFFFFFFFFF DUP2 GT ISZERO PUSH2 0x7CC1 JUMPI PUSH2 0x7CC0 PUSH2 0x672E JUMP JUMPDEST JUMPDEST PUSH2 0x7CCD DUP10 DUP3 DUP11 ADD PUSH2 0x6A86 JUMP JUMPDEST SWAP4 POP POP PUSH1 0x80 DUP8 ADD CALLDATALOAD PUSH8 0xFFFFFFFFFFFFFFFF DUP2 GT ISZERO PUSH2 0x7CEE JUMPI PUSH2 0x7CED PUSH2 0x672E JUMP JUMPDEST JUMPDEST PUSH2 0x7CFA DUP10 DUP3 DUP11 ADD PUSH2 0x7BF2 JUMP JUMPDEST SWAP3 POP POP PUSH1 0xA0 DUP8 ADD CALLDATALOAD PUSH8 0xFFFFFFFFFFFFFFFF DUP2 GT ISZERO PUSH2 0x7D1B JUMPI PUSH2 0x7D1A PUSH2 0x672E JUMP JUMPDEST JUMPDEST PUSH2 0x7D27 DUP10 DUP3 DUP11 ADD PUSH2 0x6A86 JUMP JUMPDEST SWAP2 POP POP SWAP3 SWAP6 POP SWAP3 SWAP6 POP SWAP3 SWAP6 JUMP JUMPDEST PUSH0 PUSH8 0xFFFFFFFFFFFFFFFF DUP3 GT ISZERO PUSH2 0x7D4E JUMPI PUSH2 0x7D4D PUSH2 0x67A0 JUMP JUMPDEST JUMPDEST PUSH1 0x20 DUP3 MUL SWAP1 POP PUSH1 0x20 DUP2 ADD SWAP1 POP SWAP2 SWAP1 POP JUMP JUMPDEST PUSH0 PUSH1 0xA0 DUP3 DUP5 SUB SLT ISZERO PUSH2 0x7D74 JUMPI PUSH2 0x7D73 PUSH2 0x678C JUMP JUMPDEST JUMPDEST PUSH2 0x7D7E PUSH1 0xA0 PUSH2 0x67FE JUMP JUMPDEST SWAP1 POP PUSH0 DUP3 ADD CALLDATALOAD PUSH8 0xFFFFFFFFFFFFFFFF DUP2 GT ISZERO PUSH2 0x7D9D JUMPI PUSH2 0x7D9C PUSH2 0x6818 JUMP JUMPDEST JUMPDEST PUSH2 0x7DA9 DUP5 DUP3 DUP6 ADD PUSH2 0x6A86 JUMP JUMPDEST PUSH0 DUP4 ADD MSTORE POP PUSH1 0x20 DUP3 ADD CALLDATALOAD PUSH8 0xFFFFFFFFFFFFFFFF DUP2 GT ISZERO PUSH2 0x7DCC JUMPI PUSH2 0x7DCB PUSH2 0x6818 JUMP JUMPDEST JUMPDEST PUSH2 0x7DD8 DUP5 DUP3 DUP6 ADD PUSH2 0x6A86 JUMP JUMPDEST PUSH1 0x20 DUP4 ADD MSTORE POP PUSH1 0x40 DUP3 ADD CALLDATALOAD PUSH8 0xFFFFFFFFFFFFFFFF DUP2 GT ISZERO PUSH2 0x7DFC JUMPI PUSH2 0x7DFB PUSH2 0x6818 JUMP JUMPDEST JUMPDEST PUSH2 0x7E08 DUP5 DUP3 DUP6 ADD PUSH2 0x6A86 JUMP JUMPDEST PUSH1 0x40 DUP4 ADD MSTORE POP PUSH1 0x60 DUP3 ADD CALLDATALOAD PUSH8 0xFFFFFFFFFFFFFFFF DUP2 GT ISZERO PUSH2 0x7E2C JUMPI PUSH2 0x7E2B PUSH2 0x6818 JUMP JUMPDEST JUMPDEST PUSH2 0x7E38 DUP5 DUP3 DUP6 ADD PUSH2 0x6A86 JUMP JUMPDEST PUSH1 0x60 DUP4 ADD MSTORE POP PUSH1 0x80 DUP3 ADD CALLDATALOAD PUSH8 0xFFFFFFFFFFFFFFFF DUP2 GT ISZERO PUSH2 0x7E5C JUMPI PUSH2 0x7E5B PUSH2 0x6818 JUMP JUMPDEST JUMPDEST PUSH2 0x7E68 DUP5 DUP3 DUP6 ADD PUSH2 0x6A86 JUMP JUMPDEST PUSH1 0x80 DUP4 ADD MSTORE POP SWAP3 SWAP2 POP POP JUMP JUMPDEST PUSH0 PUSH2 0x7E86 PUSH2 0x7E81 DUP5 PUSH2 0x7D34 JUMP JUMPDEST PUSH2 0x67FE JUMP JUMPDEST SWAP1 POP DUP1 DUP4 DUP3 MSTORE PUSH1 0x20 DUP3 ADD SWAP1 POP PUSH1 0x20 DUP5 MUL DUP4 ADD DUP6 DUP2 GT ISZERO PUSH2 0x7EA9 JUMPI PUSH2 0x7EA8 PUSH2 0x695F JUMP JUMPDEST JUMPDEST DUP4 JUMPDEST DUP2 DUP2 LT ISZERO PUSH2 0x7EF0 JUMPI DUP1 CALLDATALOAD PUSH8 0xFFFFFFFFFFFFFFFF DUP2 GT ISZERO PUSH2 0x7ECE JUMPI PUSH2 0x7ECD PUSH2 0x6957 JUMP JUMPDEST JUMPDEST DUP1 DUP7 ADD PUSH2 0x7EDB DUP10 DUP3 PUSH2 0x7D5F JUMP JUMPDEST DUP6 MSTORE PUSH1 0x20 DUP6 ADD SWAP5 POP POP POP PUSH1 0x20 DUP2 ADD SWAP1 POP PUSH2 0x7EAB JUMP JUMPDEST POP POP POP SWAP4 SWAP3 POP POP POP JUMP JUMPDEST PUSH0 DUP3 PUSH1 0x1F DUP4 ADD SLT PUSH2 0x7F0E JUMPI PUSH2 0x7F0D PUSH2 0x6957 JUMP JUMPDEST JUMPDEST DUP2 CALLDATALOAD PUSH2 0x7F1E DUP5 DUP3 PUSH1 0x20 DUP7 ADD PUSH2 0x7E74 JUMP JUMPDEST SWAP2 POP POP SWAP3 SWAP2 POP POP JUMP JUMPDEST PUSH0 DUP1 PUSH1 0x40 DUP4 DUP6 SUB SLT ISZERO PUSH2 0x7F3D JUMPI PUSH2 0x7F3C PUSH2 0x672A JUMP JUMPDEST JUMPDEST PUSH0 DUP4 ADD CALLDATALOAD PUSH8 0xFFFFFFFFFFFFFFFF DUP2 GT ISZERO PUSH2 0x7F5A JUMPI PUSH2 0x7F59 PUSH2 0x672E JUMP JUMPDEST JUMPDEST PUSH2 0x7F66 DUP6 DUP3 DUP7 ADD PUSH2 0x71F4 JUMP JUMPDEST SWAP3 POP POP PUSH1 0x20 DUP4 ADD CALLDATALOAD PUSH8 0xFFFFFFFFFFFFFFFF DUP2 GT ISZERO PUSH2 0x7F87 JUMPI PUSH2 0x7F86 PUSH2 0x672E JUMP JUMPDEST JUMPDEST PUSH2 0x7F93 DUP6 DUP3 DUP7 ADD PUSH2 0x7EFA JUMP JUMPDEST SWAP2 POP POP SWAP3 POP SWAP3 SWAP1 POP JUMP JUMPDEST PUSH0 DUP1 PUSH0 PUSH1 0x60 DUP5 DUP7 SUB SLT ISZERO PUSH2 0x7FB4 JUMPI PUSH2 0x7FB3 PUSH2 0x672A JUMP JUMPDEST JUMPDEST PUSH0 PUSH2 0x7FC1 DUP7 DUP3 DUP8 ADD PUSH2 0x6871 JUMP JUMPDEST SWAP4 POP POP PUSH1 0x20 PUSH2 0x7FD2 DUP7 DUP3 DUP8 ADD PUSH2 0x6778 JUMP JUMPDEST SWAP3 POP POP PUSH1 0x40 DUP5 ADD CALLDATALOAD PUSH8 0xFFFFFFFFFFFFFFFF DUP2 GT ISZERO PUSH2 0x7FF3 JUMPI PUSH2 0x7FF2 PUSH2 0x672E JUMP JUMPDEST JUMPDEST PUSH2 0x7FFF DUP7 DUP3 DUP8 ADD PUSH2 0x7BF2 JUMP JUMPDEST SWAP2 POP POP SWAP3 POP SWAP3 POP SWAP3 JUMP JUMPDEST PUSH0 PUSH2 0x8013 DUP3 PUSH2 0x6FAC JUMP JUMPDEST SWAP1 POP SWAP2 SWAP1 POP JUMP JUMPDEST PUSH2 0x8023 DUP2 PUSH2 0x8009 JUMP JUMPDEST DUP3 MSTORE POP POP JUMP JUMPDEST PUSH0 PUSH1 0x20 DUP3 ADD SWAP1 POP PUSH2 0x803C PUSH0 DUP4 ADD DUP5 PUSH2 0x801A JUMP JUMPDEST SWAP3 SWAP2 POP POP JUMP JUMPDEST PUSH0 DUP1 PUSH0 PUSH1 0x60 DUP5 DUP7 SUB SLT ISZERO PUSH2 0x8059 JUMPI PUSH2 0x8058 PUSH2 0x672A JUMP JUMPDEST JUMPDEST PUSH0 PUSH2 0x8066 DUP7 DUP3 DUP8 ADD PUSH2 0x6871 JUMP JUMPDEST SWAP4 POP POP PUSH1 0x20 PUSH2 0x8077 DUP7 DUP3 DUP8 ADD PUSH2 0x6778 JUMP JUMPDEST SWAP3 POP POP PUSH1 0x40 PUSH2 0x8088 DUP7 DUP3 DUP8 ADD PUSH2 0x6778 JUMP JUMPDEST SWAP2 POP POP SWAP3 POP SWAP3 POP SWAP3 JUMP JUMPDEST PUSH32 0x4E487B7100000000000000000000000000000000000000000000000000000000 PUSH0 MSTORE PUSH1 0x32 PUSH1 0x4 MSTORE PUSH1 0x24 PUSH0 REVERT JUMPDEST PUSH32 0x4E487B7100000000000000000000000000000000000000000000000000000000 PUSH0 MSTORE PUSH1 0x11 PUSH1 0x4 MSTORE PUSH1 0x24 PUSH0 REVERT JUMPDEST PUSH0 PUSH2 0x80F6 DUP3 PUSH2 0x6852 JUMP JUMPDEST SWAP2 POP PUSH2 0x8101 DUP4 PUSH2 0x6852 JUMP JUMPDEST SWAP3 POP DUP3 DUP3 SUB SWAP1 POP DUP2 DUP2 GT ISZERO PUSH2 0x8119 JUMPI PUSH2 0x8118 PUSH2 0x80BF JUMP JUMPDEST JUMPDEST SWAP3 SWAP2 POP POP JUMP JUMPDEST PUSH32 0x4E487B7100000000000000000000000000000000000000000000000000000000 PUSH0 MSTORE PUSH1 0x31 PUSH1 0x4 MSTORE PUSH1 0x24 PUSH0 REVERT JUMPDEST PUSH0 DUP3 SWAP1 POP SWAP3 SWAP2 POP POP JUMP JUMPDEST PUSH32 0x4E487B7100000000000000000000000000000000000000000000000000000000 PUSH0 MSTORE PUSH1 0x22 PUSH1 0x4 MSTORE PUSH1 0x24 PUSH0 REVERT JUMPDEST PUSH0 PUSH1 0x2 DUP3 DIV SWAP1 POP PUSH1 0x1 DUP3 AND DUP1 PUSH2 0x819A JUMPI PUSH1 0x7F DUP3 AND SWAP2 POP JUMPDEST PUSH1 0x20 DUP3 LT DUP2 SUB PUSH2 0x81AD JUMPI PUSH2 0x81AC PUSH2 0x8156 JUMP JUMPDEST JUMPDEST POP SWAP2 SWAP1 POP JUMP JUMPDEST PUSH0 DUP2 SWAP1 POP DUP2 PUSH0 MSTORE PUSH1 0x20 PUSH0 KECCAK256 SWAP1 POP SWAP2 SWAP1 POP JUMP JUMPDEST PUSH0 PUSH1 0x20 PUSH1 0x1F DUP4 ADD DIV SWAP1 POP SWAP2 SWAP1 POP JUMP JUMPDEST PUSH0 DUP3 DUP3 SHL SWAP1 POP SWAP3 SWAP2 POP POP JUMP JUMPDEST PUSH0 PUSH1 0x8 DUP4 MUL PUSH2 0x820F PUSH32 0xFFFFFFFFFFFFFFFFFFFFFFFFFFFFFFFFFFFFFFFFFFFFFFFFFFFFFFFFFFFFFFFF DUP3 PUSH2 0x81D4 JUMP JUMPDEST PUSH2 0x8219 DUP7 DUP4 PUSH2 0x81D4 JUMP JUMPDEST SWAP6 POP DUP1 NOT DUP5 AND SWAP4 POP DUP1 DUP7 AND DUP5 OR SWAP3 POP POP POP SWAP4 SWAP3 POP POP POP JUMP JUMPDEST PUSH0 PUSH2 0x824B PUSH2 0x8246 PUSH2 0x8241 DUP5 PUSH2 0x6852 JUMP JUMPDEST PUSH2 0x6F82 JUMP JUMPDEST PUSH2 0x6852 JUMP JUMPDEST SWAP1 POP SWAP2 SWAP1 POP JUMP JUMPDEST PUSH0 DUP2 SWAP1 POP SWAP2 SWAP1 POP JUMP JUMPDEST PUSH2 0x8264 DUP4 PUSH2 0x8231 JUMP JUMPDEST PUSH2 0x8278 PUSH2 0x8270 DUP3 PUSH2 0x8252 JUMP JUMPDEST DUP5 DUP5 SLOAD PUSH2 0x81E0 JUMP JUMPDEST DUP3 SSTORE POP POP POP POP JUMP JUMPDEST PUSH0 SWAP1 JUMP JUMPDEST PUSH2 0x828C PUSH2 0x8280 JUMP JUMPDEST PUSH2 0x8297 DUP2 DUP5 DUP5 PUSH2 0x825B JUMP JUMPDEST POP POP POP JUMP JUMPDEST JUMPDEST DUP2 DUP2 LT ISZERO PUSH2 0x82BA JUMPI PUSH2 0x82AF PUSH0 DUP3 PUSH2 0x8284 JUMP JUMPDEST PUSH1 0x1 DUP2 ADD SWAP1 POP PUSH2 0x829D JUMP JUMPDEST POP POP JUMP JUMPDEST PUSH1 0x1F DUP3 GT ISZERO PUSH2 0x82FF JUMPI PUSH2 0x82D0 DUP2 PUSH2 0x81B3 JUMP JUMPDEST PUSH2 0x82D9 DUP5 PUSH2 0x81C5 JUMP JUMPDEST DUP2 ADD PUSH1 0x20 DUP6 LT ISZERO PUSH2 0x82E8 JUMPI DUP2 SWAP1 POP JUMPDEST PUSH2 0x82FC PUSH2 0x82F4 DUP6 PUSH2 0x81C5 JUMP JUMPDEST DUP4 ADD DUP3 PUSH2 0x829C JUMP JUMPDEST POP POP JUMPDEST POP POP POP JUMP JUMPDEST PUSH0 DUP3 DUP3 SHR SWAP1 POP SWAP3 SWAP2 POP POP JUMP JUMPDEST PUSH0 PUSH2 0x831F PUSH0 NOT DUP5 PUSH1 0x8 MUL PUSH2 0x8304 JUMP JUMPDEST NOT DUP1 DUP4 AND SWAP2 POP POP SWAP3 SWAP2 POP POP JUMP JUMPDEST PUSH0 PUSH2 0x8337 DUP4 DUP4 PUSH2 0x8310 JUMP JUMPDEST SWAP2 POP DUP3 PUSH1 0x2 MUL DUP3 OR SWAP1 POP SWAP3 SWAP2 POP POP JUMP JUMPDEST PUSH2 0x8351 DUP4 DUP4 PUSH2 0x814C JUMP JUMPDEST PUSH8 0xFFFFFFFFFFFFFFFF DUP2 GT ISZERO PUSH2 0x836A JUMPI PUSH2 0x8369 PUSH2 0x67A0 JUMP JUMPDEST JUMPDEST PUSH2 0x8374 DUP3 SLOAD PUSH2 0x8183 JUMP JUMPDEST PUSH2 0x837F DUP3 DUP3 DUP6 PUSH2 0x82BE JUMP JUMPDEST PUSH0 PUSH1 0x1F DUP4 GT PUSH1 0x1 DUP2 EQ PUSH2 0x83AC JUMPI PUSH0 DUP5 ISZERO PUSH2 0x839A JUMPI DUP3 DUP8 ADD CALLDATALOAD SWAP1 POP JUMPDEST PUSH2 0x83A4 DUP6 DUP3 PUSH2 0x832C JUMP JUMPDEST DUP7 SSTORE POP PUSH2 0x840B JUMP JUMPDEST PUSH1 0x1F NOT DUP5 AND PUSH2 0x83BA DUP7 PUSH2 0x81B3 JUMP JUMPDEST PUSH0 JUMPDEST DUP3 DUP2 LT ISZERO PUSH2 0x83E1 JUMPI DUP5 DUP10 ADD CALLDATALOAD DUP3 SSTORE PUSH1 0x1 DUP3 ADD SWAP2 POP PUSH1 0x20 DUP6 ADD SWAP5 POP PUSH1 0x20 DUP2 ADD SWAP1 POP PUSH2 0x83BC JUMP JUMPDEST DUP7 DUP4 LT ISZERO PUSH2 0x83FE JUMPI DUP5 DUP10 ADD CALLDATALOAD PUSH2 0x83FA PUSH1 0x1F DUP10 AND DUP3 PUSH2 0x8310 JUMP JUMPDEST DUP4 SSTORE POP JUMPDEST PUSH1 0x1 PUSH1 0x2 DUP9 MUL ADD DUP9 SSTORE POP POP POP JUMPDEST POP POP POP POP POP POP POP JUMP JUMPDEST PUSH32 0x7B2266726F6D223A202245636F6D557365722E736F6C222C22636F6465223A20 PUSH0 DUP3 ADD MSTORE PUSH32 0x35352C20226D657373616765223A2022596F7520617265206E6F7420616C6C6F PUSH1 0x20 DUP3 ADD MSTORE PUSH32 0x7765642E227D0000000000000000000000000000000000000000000000000000 PUSH1 0x40 DUP3 ADD MSTORE POP JUMP JUMPDEST PUSH0 PUSH2 0x8494 PUSH1 0x46 DUP4 PUSH2 0x6BE0 JUMP JUMPDEST SWAP2 POP PUSH2 0x849F DUP3 PUSH2 0x8414 JUMP JUMPDEST PUSH1 0x60 DUP3 ADD SWAP1 POP SWAP2 SWAP1 POP JUMP JUMPDEST PUSH0 PUSH1 0x20 DUP3 ADD SWAP1 POP DUP2 DUP2 SUB PUSH0 DUP4 ADD MSTORE PUSH2 0x84C1 DUP2 PUSH2 0x8488 JUMP JUMPDEST SWAP1 POP SWAP2 SWAP1 POP JUMP JUMPDEST PUSH32 0x7B2266726F6D223A202245636F6D557365722E736F6C222C22636F6465223A20 PUSH0 DUP3 ADD MSTORE PUSH32 0x312C20226D657373616765223A2022546865207573657220697320616C726561 PUSH1 0x20 DUP3 ADD MSTORE PUSH32 0x6479207265676973746572656420617320612072657461696C65722E227D0000 PUSH1 0x40 DUP3 ADD MSTORE POP JUMP JUMPDEST PUSH0 PUSH2 0x8548 PUSH1 0x5E DUP4 PUSH2 0x6BE0 JUMP JUMPDEST SWAP2 POP PUSH2 0x8553 DUP3 PUSH2 0x84C8 JUMP JUMPDEST PUSH1 0x60 DUP3 ADD SWAP1 POP SWAP2 SWAP1 POP JUMP JUMPDEST PUSH0 PUSH1 0x20 DUP3 ADD SWAP1 POP DUP2 DUP2 SUB PUSH0 DUP4 ADD MSTORE PUSH2 0x8575 DUP2 PUSH2 0x853C JUMP JUMPDEST SWAP1 POP SWAP2 SWAP1 POP JUMP JUMPDEST PUSH0 PUSH1 0x60 DUP3 ADD SWAP1 POP DUP2 DUP2 SUB PUSH0 DUP4 ADD MSTORE PUSH2 0x8594 DUP2 DUP7 PUSH2 0x6BFE JUMP JUMPDEST SWAP1 POP PUSH2 0x85A3 PUSH1 0x20 DUP4 ADD DUP6 PUSH2 0x6B54 JUMP JUMPDEST DUP2 DUP2 SUB PUSH1 0x40 DUP4 ADD MSTORE PUSH2 0x85B5 DUP2 DUP5 PUSH2 0x6BFE JUMP JUMPDEST SWAP1 POP SWAP5 SWAP4 POP POP POP POP JUMP JUMPDEST PUSH2 0x85C8 DUP3 PUSH2 0x6BD6 JUMP JUMPDEST PUSH8 0xFFFFFFFFFFFFFFFF DUP2 GT ISZERO PUSH2 0x85E1 JUMPI PUSH2 0x85E0 PUSH2 0x67A0 JUMP JUMPDEST JUMPDEST PUSH2 0x85EB DUP3 SLOAD PUSH2 0x8183 JUMP JUMPDEST PUSH2 0x85F6 DUP3 DUP3 DUP6 PUSH2 0x82BE JUMP JUMPDEST PUSH0 PUSH1 0x20 SWAP1 POP PUSH1 0x1F DUP4 GT PUSH1 0x1 DUP2 EQ PUSH2 0x8627 JUMPI PUSH0 DUP5 ISZERO PUSH2 0x8615 JUMPI DUP3 DUP8 ADD MLOAD SWAP1 POP JUMPDEST PUSH2 0x861F DUP6 DUP3 PUSH2 0x832C JUMP JUMPDEST DUP7 SSTORE POP PUSH2 0x8686 JUMP JUMPDEST PUSH1 0x1F NOT DUP5 AND PUSH2 0x8635 DUP7 PUSH2 0x81B3 JUMP JUMPDEST PUSH0 JUMPDEST DUP3 DUP2 LT ISZERO PUSH2 0x865C JUMPI DUP5 DUP10 ADD MLOAD DUP3 SSTORE PUSH1 0x1 DUP3 ADD SWAP2 POP PUSH1 0x20 DUP6 ADD SWAP5 POP PUSH1 0x20 DUP2 ADD SWAP1 POP PUSH2 0x8637 JUMP JUMPDEST DUP7 DUP4 LT ISZERO PUSH2 0x8679 JUMPI DUP5 DUP10 ADD MLOAD PUSH2 0x8675 PUSH1 0x1F DUP10 AND DUP3 PUSH2 0x8310 JUMP JUMPDEST DUP4 SSTORE POP JUMPDEST PUSH1 0x1 PUSH1 0x2 DUP9 MUL ADD DUP9 SSTORE POP POP POP JUMPDEST POP POP POP POP POP POP JUMP JUMPDEST PUSH0 DUP2 SWAP1 POP SWAP3 SWAP2 POP POP JUMP JUMPDEST PUSH32 0x7B2266726F6D223A202245636F6D557365722E736F6C222C0000000000000000 PUSH0 DUP3 ADD MSTORE POP JUMP JUMPDEST PUSH0 PUSH2 0x86CC PUSH1 0x18 DUP4 PUSH2 0x868E JUMP JUMPDEST SWAP2 POP PUSH2 0x86D7 DUP3 PUSH2 0x8698 JUMP JUMPDEST PUSH1 0x18 DUP3 ADD SWAP1 POP SWAP2 SWAP1 POP JUMP JUMPDEST PUSH32 0x22636F6465223A20000000000000000000000000000000000000000000000000 PUSH0 DUP3 ADD MSTORE POP JUMP JUMPDEST PUSH0 PUSH2 0x8716 PUSH1 0x8 DUP4 PUSH2 0x868E JUMP JUMPDEST SWAP2 POP PUSH2 0x8721 DUP3 PUSH2 0x86E2 JUMP JUMPDEST PUSH1 0x8 DUP3 ADD SWAP1 POP SWAP2 SWAP1 POP JUMP JUMPDEST PUSH0 PUSH2 0x8736 DUP3 PUSH2 0x6BD6 JUMP JUMPDEST PUSH2 0x8740 DUP2 DUP6 PUSH2 0x868E JUMP JUMPDEST SWAP4 POP PUSH2 0x8750 DUP2 DUP6 PUSH1 0x20 DUP7 ADD PUSH2 0x6BF0 JUMP JUMPDEST DUP1 DUP5 ADD SWAP2 POP POP SWAP3 SWAP2 POP POP JUMP JUMPDEST PUSH32 0x2C20000000000000000000000000000000000000000000000000000000000000 PUSH0 DUP3 ADD MSTORE POP JUMP JUMPDEST PUSH0 PUSH2 0x8790 PUSH1 0x2 DUP4 PUSH2 0x868E JUMP JUMPDEST SWAP2 POP PUSH2 0x879B DUP3 PUSH2 0x875C JUMP JUMPDEST PUSH1 0x2 DUP3 ADD SWAP1 POP SWAP2 SWAP1 POP JUMP JUMPDEST PUSH32 0x226D657373616765223A20220000000000000000000000000000000000000000 PUSH0 DUP3 ADD MSTORE POP JUMP JUMPDEST PUSH0 PUSH2 0x87DA PUSH1 0xC DUP4 PUSH2 0x868E JUMP JUMPDEST SWAP2 POP PUSH2 0x87E5 DUP3 PUSH2 0x87A6 JUMP JUMPDEST PUSH1 0xC DUP3 ADD SWAP1 POP SWAP2 SWAP1 POP JUMP JUMPDEST PUSH32 0x227D000000000000000000000000000000000000000000000000000000000000 PUSH0 DUP3 ADD MSTORE POP JUMP JUMPDEST PUSH0 PUSH2 0x8824 PUSH1 0x2 DUP4 PUSH2 0x868E JUMP JUMPDEST SWAP2 POP PUSH2 0x882F DUP3 PUSH2 0x87F0 JUMP JUMPDEST PUSH1 0x2 DUP3 ADD SWAP1 POP SWAP2 SWAP1 POP JUMP JUMPDEST PUSH0 PUSH2 0x8844 DUP3 PUSH2 0x86C0 JUMP JUMPDEST SWAP2 POP PUSH2 0x884F DUP3 PUSH2 0x870A JUMP JUMPDEST SWAP2 POP PUSH2 0x885B DUP3 DUP6 PUSH2 0x872C JUMP JUMPDEST SWAP2 POP PUSH2 0x8866 DUP3 PUSH2 0x8784 JUMP JUMPDEST SWAP2 POP PUSH2 0x8871 DUP3 PUSH2 0x87CE JUMP JUMPDEST SWAP2 POP PUSH2 0x887D DUP3 DUP5 PUSH2 0x872C JUMP JUMPDEST SWAP2 POP PUSH2 0x8888 DUP3 PUSH2 0x8818 JUMP JUMPDEST SWAP2 POP DUP2 SWAP1 POP SWAP4 SWAP3 POP POP POP JUMP JUMPDEST PUSH32 0x7B2266726F6D223A202245636F6D557365722E736F6C222C22636F6465223A20 PUSH0 DUP3 ADD MSTORE PUSH32 0x35312C20226D657373616765223A2022596F7520617265206E6F742061206375 PUSH1 0x20 DUP3 ADD MSTORE PUSH32 0x73746F6D65722E227D0000000000000000000000000000000000000000000000 PUSH1 0x40 DUP3 ADD MSTORE POP JUMP JUMPDEST PUSH0 PUSH2 0x8914 PUSH1 0x49 DUP4 PUSH2 0x6BE0 JUMP JUMPDEST SWAP2 POP PUSH2 0x891F DUP3 PUSH2 0x8894 JUMP JUMPDEST PUSH1 0x60 DUP3 ADD SWAP1 POP SWAP2 SWAP1 POP JUMP JUMPDEST PUSH0 PUSH1 0x20 DUP3 ADD SWAP1 POP DUP2 DUP2 SUB PUSH0 DUP4 ADD MSTORE PUSH2 0x8941 DUP2 PUSH2 0x8908 JUMP JUMPDEST SWAP1 POP SWAP2 SWAP1 POP JUMP JUMPDEST PUSH0 DUP2 SWAP1 POP SWAP2 SWAP1 POP JUMP JUMPDEST PUSH2 0x8962 PUSH2 0x895D DUP3 PUSH2 0x6852 JUMP JUMPDEST PUSH2 0x8948 JUMP JUMPDEST DUP3 MSTORE POP POP JUMP JUMPDEST PUSH0 PUSH2 0x8973 DUP3 DUP5 PUSH2 0x8951 JUMP JUMPDEST PUSH1 0x20 DUP3 ADD SWAP2 POP DUP2 SWAP1 POP SWAP3 SWAP2 POP POP JUMP JUMPDEST PUSH32 0x7B2266726F6D223A202245636F6D557365722E736F6C222C22636F6465223A20 PUSH0 DUP3 ADD MSTORE PUSH32 0x34372C226D657373616765223A2022496E76616C696420757365726E616D6522 PUSH1 0x20 DUP3 ADD MSTORE PUSH32 0x7D00000000000000000000000000000000000000000000000000000000000000 PUSH1 0x40 DUP3 ADD MSTORE POP JUMP JUMPDEST PUSH0 PUSH2 0x8A02 PUSH1 0x41 DUP4 PUSH2 0x6BE0 JUMP JUMPDEST SWAP2 POP PUSH2 0x8A0D DUP3 PUSH2 0x8982 JUMP JUMPDEST PUSH1 0x60 DUP3 ADD SWAP1 POP SWAP2 SWAP1 POP JUMP JUMPDEST PUSH0 PUSH1 0x20 DUP3 ADD SWAP1 POP DUP2 DUP2 SUB PUSH0 DUP4 ADD MSTORE PUSH2 0x8A2F DUP2 PUSH2 0x89F6 JUMP JUMPDEST SWAP1 POP SWAP2 SWAP1 POP JUMP JUMPDEST PUSH32 0x7B2266726F6D223A202245636F6D557365722E736F6C222C22636F6465223A20 PUSH0 DUP3 ADD MSTORE PUSH32 0x3130322C20226D657373616765223A20225573657220657869737473227D0000 PUSH1 0x20 DUP3 ADD MSTORE POP JUMP JUMPDEST PUSH0 PUSH2 0x8A90 PUSH1 0x3E DUP4 PUSH2 0x6BE0 JUMP JUMPDEST SWAP2 POP PUSH2 0x8A9B DUP3 PUSH2 0x8A36 JUMP JUMPDEST PUSH1 0x40 DUP3 ADD SWAP1 POP SWAP2 SWAP1 POP JUMP JUMPDEST PUSH0 PUSH1 0x20 DUP3 ADD SWAP1 POP DUP2 DUP2 SUB PUSH0 DUP4 ADD MSTORE PUSH2 0x8ABD DUP2 PUSH2 0x8A84 JUMP JUMPDEST SWAP1 POP SWAP2 SWAP1 POP JUMP JUMPDEST PUSH32 0x7B2266726F6D223A202245636F6D557365722E736F6C222C22636F6465223A20 PUSH0 DUP3 ADD MSTORE PUSH32 0x3130312C20226D657373616765223A2022506172656E7420656D707479227D00 PUSH1 0x20 DUP3 ADD MSTORE POP JUMP JUMPDEST PUSH0 PUSH2 0x8B1E PUSH1 0x3F DUP4 PUSH2 0x6BE0 JUMP JUMPDEST SWAP2 POP PUSH2 0x8B29 DUP3 PUSH2 0x8AC4 JUMP JUMPDEST PUSH1 0x40 DUP3 ADD SWAP1 POP SWAP2 SWAP1 POP JUMP JUMPDEST PUSH0 PUSH1 0x20 DUP3 ADD SWAP1 POP DUP2 DUP2 SUB PUSH0 DUP4 ADD MSTORE PUSH2 0x8B4B DUP2 PUSH2 0x8B12 JUMP JUMPDEST SWAP1 POP SWAP2 SWAP1 POP JUMP JUMPDEST PUSH0 DUP2 MLOAD SWAP1 POP PUSH2 0x8B60 DUP2 PUSH2 0x6C56 JUMP JUMPDEST SWAP3 SWAP2 POP POP JUMP JUMPDEST PUSH0 PUSH1 0x20 DUP3 DUP5 SUB SLT ISZERO PUSH2 0x8B7B JUMPI PUSH2 0x8B7A PUSH2 0x672A JUMP JUMPDEST JUMPDEST PUSH0 PUSH2 0x8B88 DUP5 DUP3 DUP6 ADD PUSH2 0x8B52 JUMP JUMPDEST SWAP2 POP POP SWAP3 SWAP2 POP POP JUMP JUMPDEST PUSH32 0x7B2266726F6D223A202245636F6D557365722E736F6C222C22636F6465223A20 PUSH0 DUP3 ADD MSTORE PUSH32 0x3130312C20226D657373616765223A2022506172656E74206E6F742065786973 PUSH1 0x20 DUP3 ADD MSTORE PUSH32 0x7473227D00000000000000000000000000000000000000000000000000000000 PUSH1 0x40 DUP3 ADD MSTORE POP JUMP JUMPDEST PUSH0 PUSH2 0x8C11 PUSH1 0x44 DUP4 PUSH2 0x6BE0 JUMP JUMPDEST SWAP2 POP PUSH2 0x8C1C DUP3 PUSH2 0x8B91 JUMP JUMPDEST PUSH1 0x60 DUP3 ADD SWAP1 POP SWAP2 SWAP1 POP JUMP JUMPDEST PUSH0 PUSH1 0x20 DUP3 ADD SWAP1 POP DUP2 DUP2 SUB PUSH0 DUP4 ADD MSTORE PUSH2 0x8C3E DUP2 PUSH2 0x8C05 JUMP JUMPDEST SWAP1 POP SWAP2 SWAP1 POP JUMP JUMPDEST PUSH32 0x43726561746550726F6475637400000000000000000000000000000000000000 PUSH0 DUP3 ADD MSTORE POP JUMP JUMPDEST PUSH0 PUSH2 0x8C79 PUSH1 0xD DUP4 PUSH2 0x868E JUMP JUMPDEST SWAP2 POP PUSH2 0x8C84 DUP3 PUSH2 0x8C45 JUMP JUMPDEST PUSH1 0xD DUP3 ADD SWAP1 POP SWAP2 SWAP1 POP JUMP JUMPDEST PUSH0 PUSH2 0x8C99 DUP3 PUSH2 0x8C6D JUMP JUMPDEST SWAP2 POP DUP2 SWAP1 POP SWAP2 SWAP1 POP JUMP JUMPDEST PUSH0 PUSH2 0x8CAE DUP3 DUP5 PUSH2 0x872C JUMP JUMPDEST SWAP2 POP DUP2 SWAP1 POP SWAP3 SWAP2 POP POP JUMP JUMPDEST PUSH32 0x4F72646572557064617465000000000000000000000000000000000000000000 PUSH0 DUP3 ADD MSTORE POP JUMP JUMPDEST PUSH0 PUSH2 0x8CED PUSH1 0xB DUP4 PUSH2 0x868E JUMP JUMPDEST SWAP2 POP PUSH2 0x8CF8 DUP3 PUSH2 0x8CB9 JUMP JUMPDEST PUSH1 0xB DUP3 ADD SWAP1 POP SWAP2 SWAP1 POP JUMP JUMPDEST PUSH0 PUSH2 0x8D0D DUP3 PUSH2 0x8CE1 JUMP JUMPDEST SWAP2 POP DUP2 SWAP1 POP SWAP2 SWAP1 POP JUMP JUMPDEST PUSH32 0x50726F6D6F74696F6E616C50726F6772616D0000000000000000000000000000 PUSH0 DUP3 ADD MSTORE POP JUMP JUMPDEST PUSH0 PUSH2 0x8D4B PUSH1 0x12 DUP4 PUSH2 0x868E JUMP JUMPDEST SWAP2 POP PUSH2 0x8D56 DUP3 PUSH2 0x8D17 JUMP JUMPDEST PUSH1 0x12 DUP3 ADD SWAP1 POP SWAP2 SWAP1 POP JUMP JUMPDEST PUSH0 PUSH2 0x8D6B DUP3 PUSH2 0x8D3F JUMP JUMPDEST SWAP2 POP DUP2 SWAP1 POP SWAP2 SWAP1 POP JUMP JUMPDEST PUSH32 0x437573746F6D65724F7264657255706461746500000000000000000000000000 PUSH0 DUP3 ADD MSTORE POP JUMP JUMPDEST PUSH0 PUSH2 0x8DA9 PUSH1 0x13 DUP4 PUSH2 0x868E JUMP JUMPDEST SWAP2 POP PUSH2 0x8DB4 DUP3 PUSH2 0x8D75 JUMP JUMPDEST PUSH1 0x13 DUP3 ADD SWAP1 POP SWAP2 SWAP1 POP JUMP JUMPDEST PUSH0 PUSH2 0x8DC9 DUP3 PUSH2 0x8D9D JUMP JUMPDEST SWAP2 POP DUP2 SWAP1 POP SWAP2 SWAP1 POP JUMP JUMPDEST PUSH32 0x436F6D6D656E7455706461746500000000000000000000000000000000000000 PUSH0 DUP3 ADD MSTORE POP JUMP JUMPDEST PUSH0 PUSH2 0x8E07 PUSH1 0xD DUP4 PUSH2 0x868E JUMP JUMPDEST SWAP2 POP PUSH2 0x8E12 DUP3 PUSH2 0x8DD3 JUMP JUMPDEST PUSH1 0xD DUP3 ADD SWAP1 POP SWAP2 SWAP1 POP JUMP JUMPDEST PUSH0 PUSH2 0x8E27 DUP3 PUSH2 0x8DFB JUMP JUMPDEST SWAP2 POP DUP2 SWAP1 POP SWAP2 SWAP1 POP JUMP JUMPDEST PUSH0 DUP2 MLOAD SWAP1 POP SWAP2 SWAP1 POP JUMP JUMPDEST PUSH0 DUP3 DUP3 MSTORE PUSH1 0x20 DUP3 ADD SWAP1 POP SWAP3 SWAP2 POP POP JUMP JUMPDEST PUSH0 PUSH2 0x8E55 DUP3 PUSH2 0x8E31 JUMP JUMPDEST PUSH2 0x8E5F DUP2 DUP6 PUSH2 0x8E3B JUMP JUMPDEST SWAP4 POP PUSH2 0x8E6F DUP2 DUP6 PUSH1 0x20 DUP7 ADD PUSH2 0x6BF0 JUMP JUMPDEST PUSH2 0x8E78 DUP2 PUSH2 0x6790 JUMP JUMPDEST DUP5 ADD SWAP2 POP POP SWAP3 SWAP2 POP POP JUMP JUMPDEST PUSH0 PUSH1 0xA0 DUP4 ADD PUSH0 DUP4 ADD MLOAD DUP5 DUP3 SUB PUSH0 DUP7 ADD MSTORE PUSH2 0x8E9D DUP3 DUP3 PUSH2 0x733C JUMP JUMPDEST SWAP2 POP POP PUSH1 0x20 DUP4 ADD MLOAD DUP5 DUP3 SUB PUSH1 0x20 DUP7 ADD MSTORE PUSH2 0x8EB7 DUP3 DUP3 PUSH2 0x8E4B JUMP JUMPDEST SWAP2 POP POP PUSH1 0x40 DUP4 ADD MLOAD PUSH2 0x8ECC PUSH1 0x40 DUP7 ADD DUP3 PUSH2 0x6E76 JUMP JUMPDEST POP PUSH1 0x60 DUP4 ADD MLOAD DUP5 DUP3 SUB PUSH1 0x60 DUP7 ADD MSTORE PUSH2 0x8EE4 DUP3 DUP3 PUSH2 0x733C JUMP JUMPDEST SWAP2 POP POP PUSH1 0x80 DUP4 ADD MLOAD DUP5 DUP3 SUB PUSH1 0x80 DUP7 ADD MSTORE PUSH2 0x8EFE DUP3 DUP3 PUSH2 0x733C JUMP JUMPDEST SWAP2 POP POP DUP1 SWAP2 POP POP SWAP3 SWAP2 POP POP JUMP JUMPDEST PUSH0 PUSH1 0x40 DUP3 ADD SWAP1 POP DUP2 DUP2 SUB PUSH0 DUP4 ADD MSTORE PUSH2 0x8F23 DUP2 DUP6 PUSH2 0x8E83 JUMP JUMPDEST SWAP1 POP PUSH2 0x8F32 PUSH1 0x20 DUP4 ADD DUP5 PUSH2 0x6B54 JUMP JUMPDEST SWAP4 SWAP3 POP POP POP JUMP JUMPDEST PUSH32 0x7B2266726F6D223A202245636F6D557365722E736F6C222C22636F6465223A20 PUSH0 DUP3 ADD MSTORE PUSH32 0x35312C20226D657373616765223A2022596F7520617265206E6F742061207265 PUSH1 0x20 DUP3 ADD MSTORE PUSH32 0x7461696C65722E227D0000000000000000000000000000000000000000000000 PUSH1 0x40 DUP3 ADD MSTORE POP JUMP JUMPDEST PUSH0 PUSH2 0x8FB9 PUSH1 0x49 DUP4 PUSH2 0x6BE0 JUMP JUMPDEST SWAP2 POP PUSH2 0x8FC4 DUP3 PUSH2 0x8F39 JUMP JUMPDEST PUSH1 0x60 DUP3 ADD SWAP1 POP SWAP2 SWAP1 POP JUMP JUMPDEST PUSH0 PUSH1 0x20 DUP3 ADD SWAP1 POP DUP2 DUP2 SUB PUSH0 DUP4 ADD MSTORE PUSH2 0x8FE6 DUP2 PUSH2 0x8FAD JUMP JUMPDEST SWAP1 POP SWAP2 SWAP1 POP JUMP JUMPDEST PUSH0 PUSH2 0x8FF7 DUP3 PUSH2 0x6852 JUMP JUMPDEST SWAP2 POP PUSH32 0xFFFFFFFFFFFFFFFFFFFFFFFFFFFFFFFFFFFFFFFFFFFFFFFFFFFFFFFFFFFFFFFF DUP3 SUB PUSH2 0x9029 JUMPI PUSH2 0x9028 PUSH2 0x80BF JUMP JUMPDEST JUMPDEST PUSH1 0x1 DUP3 ADD SWAP1 POP SWAP2 SWAP1 POP JUMP JUMPDEST PUSH0 DUP2 MLOAD SWAP1 POP SWAP2 SWAP1 POP JUMP JUMPDEST PUSH0 DUP3 DUP3 MSTORE PUSH1 0x20 DUP3 ADD SWAP1 POP SWAP3 SWAP2 POP POP JUMP JUMPDEST PUSH0 DUP2 SWAP1 POP PUSH1 0x20 DUP3 ADD SWAP1 POP SWAP2 SWAP1 POP JUMP JUMPDEST PUSH0 PUSH2 0x9068 DUP4 DUP4 PUSH2 0x6E94 JUMP JUMPDEST PUSH1 0x20 DUP4 ADD SWAP1 POP SWAP3 SWAP2 POP POP JUMP JUMPDEST PUSH0 PUSH1 0x20 DUP3 ADD SWAP1 POP SWAP2 SWAP1 POP JUMP JUMPDEST PUSH0 PUSH2 0x908A DUP3 PUSH2 0x9034 JUMP JUMPDEST PUSH2 0x9094 DUP2 DUP6 PUSH2 0x903E JUMP JUMPDEST SWAP4 POP PUSH2 0x909F DUP4 PUSH2 0x904E JUMP JUMPDEST DUP1 PUSH0 JUMPDEST DUP4 DUP2 LT ISZERO PUSH2 0x90CF JUMPI DUP2 MLOAD PUSH2 0x90B6 DUP9 DUP3 PUSH2 0x905D JUMP JUMPDEST SWAP8 POP PUSH2 0x90C1 DUP4 PUSH2 0x9074 JUMP JUMPDEST SWAP3 POP POP PUSH1 0x1 DUP2 ADD SWAP1 POP PUSH2 0x90A2 JUMP JUMPDEST POP DUP6 SWAP4 POP POP POP POP SWAP3 SWAP2 POP POP JUMP JUMPDEST PUSH0 PUSH1 0x40 DUP3 ADD SWAP1 POP DUP2 DUP2 SUB PUSH0 DUP4 ADD MSTORE PUSH2 0x90F4 DUP2 DUP6 PUSH2 0x8E83 JUMP JUMPDEST SWAP1 POP DUP2 DUP2 SUB PUSH1 0x20 DUP4 ADD MSTORE PUSH2 0x9108 DUP2 DUP5 PUSH2 0x9080 JUMP JUMPDEST SWAP1 POP SWAP4 SWAP3 POP POP POP JUMP JUMPDEST PUSH32 0x7B2266726F6D223A202245636F6D557365722E736F6C222C22636F6465223A20 PUSH0 DUP3 ADD MSTORE PUSH32 0x34332C226D657373616765223A2022496E76616C69642075736572227D000000 PUSH1 0x20 DUP3 ADD MSTORE POP JUMP JUMPDEST PUSH0 PUSH2 0x916B PUSH1 0x3D DUP4 PUSH2 0x6BE0 JUMP JUMPDEST SWAP2 POP PUSH2 0x9176 DUP3 PUSH2 0x9111 JUMP JUMPDEST PUSH1 0x40 DUP3 ADD SWAP1 POP SWAP2 SWAP1 POP JUMP JUMPDEST PUSH0 PUSH1 0x20 DUP3 ADD SWAP1 POP DUP2 DUP2 SUB PUSH0 DUP4 ADD MSTORE PUSH2 0x9198 DUP2 PUSH2 0x915F JUMP JUMPDEST SWAP1 POP SWAP2 SWAP1 POP JUMP JUMPDEST PUSH32 0x4E487B7100000000000000000000000000000000000000000000000000000000 PUSH0 MSTORE PUSH1 0x12 PUSH1 0x4 MSTORE PUSH1 0x24 PUSH0 REVERT INVALID GASLIMIT PUSH17 0x696320536176696E677320417761697421 KECCAK256 0x4F PUSH22 0x7220466C6173682053616C6520697320686572652077 PUSH10 0x7468206A61772D64726F PUSH17 0x70696E6720646973636F756E7473215765 KECCAK256 PUSH2 0x7265 KECCAK256 PUSH6 0x786369746564 KECCAK256 PUSH21 0x6F20696E74726F647563652061206E65772070726F PUSH5 0x7563742120 PREVRANDAO PUSH16 0x6E2774206D6973732074686520636861 PUSH15 0x636520746F20657870657269656E63 PUSH6 0x20746865206C PUSH2 0x7465 PUSH20 0x742070726F64756374732E20436865636B206974 KECCAK256 PUSH16 0x7574206E6F7720666F72206D6F726520 PUSH5 0x657461696C PUSH20 0x2E596F7572206E65772070726F64756374206861 PUSH20 0x206265656E207375636365737366756C6C792070 PUSH16 0x737465642120436865636B206974206F PUSH22 0x74206E6F77206F6E20796F75722073746F7265207061 PUSH8 0x6520616E64206765 PUSH21 0x20726561647920746F2061747472616374206D6F72 PUSH6 0x20637573746F PUSH14 0x6572732E596F757220637573746F PUSH14 0x6572206861732073756363657373 PUSH7 0x756C6C7920706C PUSH2 0x6365 PUSH5 0x20616E206F PUSH19 0x64657220666F7220796F75722070726F647563 PUSH21 0x21205468616E6B20796F7520666F7220706172746E PUSH6 0x72696E672077 PUSH10 0x74682075732E41206E65 PUSH24 0x2070726F6475637420686173206265656E20737563636573 PUSH20 0x66756C6C7920706F737465642062792061207265 PUSH21 0x61696C65722120436865636B206974206F7574206F PUSH15 0x20746865207765627369746520616E PUSH5 0x20656E7375 PUSH19 0x652065766572797468696E6720697320696E20 PUSH16 0x72646572596F757220637573746F6D65 PUSH19 0x20686173207375636365737366756C6C792070 PUSH13 0x6163656420616E206F72646572 KECCAK256 PUSH7 0x6F7220796F7572 KECCAK256 PUSH17 0x726F6475637421205468616E6B20796F75 KECCAK256 PUSH7 0x6F722070617274 PUSH15 0x6572696E672077697468207573416E KECCAK256 PUSH16 0x7264657220686173206265656E207375 PUSH4 0x63657373 PUSH7 0x756C6C7920706C PUSH2 0x6365 PUSH5 0x2062792061 KECCAK256 PUSH4 0x7573746F PUSH14 0x657220666F72206F6E65206F6620 PUSH26 0x6F75722070726F64756374732E20506C65617365207265766965 PUSH24 0x20746865206F726465722064657461696C7320746F20656E PUSH20 0x7572652065766572797468696E6720697320696E KECCAK256 PUSH16 0x72646572596F7572206F726465722068 PUSH2 0x7320 PUSH3 0x65656E KECCAK256 PUSH20 0x75636365737366756C6C7920706C616365642120 JUMPI PUSH6 0x2077696C6C20 PUSH17 0x726F6365737320616E6420736869702079 PUSH16 0x7572206F7264657220617320736F6F6E KECCAK256 PUSH2 0x7320 PUSH17 0x6F737369626C652E205468616E6B20796F PUSH22 0x20666F72207472757374696E6720616E642073686F70 PUSH17 0x696E672EA264697066735822122061B1F7 0xB7 SWAP13 0xE9 GASPRICE DUP16 LOG1 PUSH6 0x9AA91738B167 0xE0 BLOBHASH LOG0 CALLER CHAINID PUSH19 0x89B798146734071FBB4964736F6C634300081A STOP CALLER "
		},
		"gasEstimates": {
			"creation": {
				"codeDepositCost": "7659200",
				"executionCost": "infinite",
				"totalCost": "infinite"
			},
			"external": {
				"EcomInfo()": "infinite",
				"EcomOrder()": "infinite",
				"IsRetailer(address)": "3045",
				"NOTIFIER()": "infinite",
				"Notification()": "infinite",
				"SetEcomInfo(address)": "27221",
				"SetEcomOrder(address)": "27199",
				"SetNotification(address)": "27133",
				"SetTreeCom(address)": "27132",
				"TreeCom()": "infinite",
				"addUserPayment(address,(uint8,uint256,address))": "infinite",
				"adminDeleteUser(address)": "infinite",
				"admins(uint256)": "5079",
				"deleteAdmin(address)": "infinite",
				"deleteUser()": "infinite",
				"getErrorMessage(uint256,string)": "infinite",
				"getNotificationSetting(address)": "infinite",
				"getUser()": "infinite",
				"getUserInfo(address)": "infinite",
				"getUserParent(address)": "infinite",
				"getUserPaymentHistory()": "infinite",
				"getUserPaymentHistoryInfo(address)": "infinite",
				"getUserRole(address)": "infinite",
				"getUsersInfo()": "infinite",
				"mAdmin(address)": "2944",
				"mUserAddressInfo(address,uint256)": "infinite",
				"mUserInfo(address)": "infinite",
				"mUserPaymentHistory(address,uint256)": "infinite",
				"owner()": "2550",
				"register((string,string,uint8,uint256,string,address))": "infinite",
				"registerRetailer(string,string)": "infinite",
				"sendCreateProductNotification(uint256,bool,address)": "infinite",
				"sendExecuteOrderNotification(uint256,address,address[])": "infinite",
				"sendMultipleNotification(bytes,uint8,string,string,address[],string)": "infinite",
				"sendNotification(bytes,uint8,string,string,address,string)": "infinite",
				"sendNotificationStorageOrder(uint256,address,address)": "infinite",
				"setAdmin(address)": "195374",
				"setAdminNotificationSetting(bool,bool,bool,bool,bool,bool)": "infinite",
				"setCustomerNotificationSetting(bool,bool,bool,bool)": "infinite",
				"setRetailer(address)": "122511",
				"setRetailerNotificationSetting(bool,bool,bool,bool,bool,bool)": "infinite",
				"updateUserImage(string)": "infinite",
				"updateUserInfo((string,string,uint8,uint256,string,address),(string,string,string,string,string)[])": "infinite",
				"userList(uint256)": "4989",
				"userNotificationSettings(address)": "infinite"
			},
			"internal": {
				"setUser(address,enum ROLE)": "119541"
			}
		},
		"methodIdentifiers": {
			"EcomInfo()": "b814f77b",
			"EcomOrder()": "32f39436",
			"IsRetailer(address)": "b3a6404e",
			"NOTIFIER()": "9f2e6a0c",
			"Notification()": "630e8b30",
			"SetEcomInfo(address)": "8a8869e2",
			"SetEcomOrder(address)": "44089cd1",
			"SetNotification(address)": "30cbfb24",
			"SetTreeCom(address)": "4b5ba409",
			"TreeCom()": "e5fc4ac2",
			"addUserPayment(address,(uint8,uint256,address))": "025f36e5",
			"adminDeleteUser(address)": "8fd58a7d",
			"admins(uint256)": "14bfd6d0",
			"deleteAdmin(address)": "27e1f7df",
			"deleteUser()": "026ff05e",
			"getErrorMessage(uint256,string)": "2248632a",
			"getNotificationSetting(address)": "4d5d6ad0",
			"getUser()": "832880e7",
			"getUserInfo(address)": "6386c1c7",
			"getUserParent(address)": "e00f0dae",
			"getUserPaymentHistory()": "27f444e4",
			"getUserPaymentHistoryInfo(address)": "4fffd6ac",
			"getUserRole(address)": "27820851",
			"getUsersInfo()": "aaa3de26",
			"mAdmin(address)": "9ddf2e95",
			"mUserAddressInfo(address,uint256)": "25b4436d",
			"mUserInfo(address)": "5182104c",
			"mUserPaymentHistory(address,uint256)": "a36afc66",
			"owner()": "8da5cb5b",
			"register((string,string,uint8,uint256,string,address))": "6321f8a7",
			"registerRetailer(string,string)": "0b6b8edc",
			"sendCreateProductNotification(uint256,bool,address)": "371c0fc7",
			"sendExecuteOrderNotification(uint256,address,address[])": "e205d94e",
			"sendMultipleNotification(bytes,uint8,string,string,address[],string)": "bd0f8cbf",
			"sendNotification(bytes,uint8,string,string,address,string)": "9e47566c",
			"sendNotificationStorageOrder(uint256,address,address)": "eaf4ee9a",
			"setAdmin(address)": "704b6c02",
			"setAdminNotificationSetting(bool,bool,bool,bool,bool,bool)": "95564309",
			"setCustomerNotificationSetting(bool,bool,bool,bool)": "23398aab",
			"setRetailer(address)": "4a1f6125",
			"setRetailerNotificationSetting(bool,bool,bool,bool,bool,bool)": "b618a35f",
			"updateUserImage(string)": "0316e0eb",
			"updateUserInfo((string,string,uint8,uint256,string,address),(string,string,string,string,string)[])": "d2f01561",
			"userList(uint256)": "9f4216e8",
			"userNotificationSettings(address)": "72b1d452"
		}
	},
	"abi": [
		{
			"inputs": [],
			"stateMutability": "payable",
			"type": "constructor"
		},
		{
			"anonymous": false,
			"inputs": [
				{
					"indexed": false,
					"internalType": "string",
					"name": "username",
					"type": "string"
				},
				{
					"indexed": false,
					"internalType": "address",
					"name": "user",
					"type": "address"
				},
				{
					"indexed": false,
					"internalType": "string",
					"name": "phoneNumber",
					"type": "string"
				}
			],
			"name": "eRegisterRetailer",
			"type": "event"
		},
		{
			"inputs": [],
			"name": "EcomInfo",
			"outputs": [
				{
					"internalType": "contract IEcomInfo",
					"name": "",
					"type": "address"
				}
			],
			"stateMutability": "view",
			"type": "function"
		},
		{
			"inputs": [],
			"name": "EcomOrder",
			"outputs": [
				{
					"internalType": "contract IEcomOrder",
					"name": "",
					"type": "address"
				}
			],
			"stateMutability": "view",
			"type": "function"
		},
		{
			"inputs": [
				{
					"internalType": "address",
					"name": "_user",
					"type": "address"
				}
			],
			"name": "IsRetailer",
			"outputs": [
				{
					"internalType": "bool",
					"name": "",
					"type": "bool"
				}
			],
			"stateMutability": "view",
			"type": "function"
		},
		{
			"inputs": [],
			"name": "NOTIFIER",
			"outputs": [
				{
					"internalType": "string",
					"name": "",
					"type": "string"
				}
			],
			"stateMutability": "view",
			"type": "function"
		},
		{
			"inputs": [],
			"name": "Notification",
			"outputs": [
				{
					"internalType": "contract INoti",
					"name": "",
					"type": "address"
				}
			],
			"stateMutability": "view",
			"type": "function"
		},
		{
			"inputs": [
				{
					"internalType": "address",
					"name": "_ecomInfo",
					"type": "address"
				}
			],
			"name": "SetEcomInfo",
			"outputs": [
				{
					"internalType": "bool",
					"name": "",
					"type": "bool"
				}
			],
			"stateMutability": "nonpayable",
			"type": "function"
		},
		{
			"inputs": [
				{
					"internalType": "address",
					"name": "_ecomOrder",
					"type": "address"
				}
			],
			"name": "SetEcomOrder",
			"outputs": [
				{
					"internalType": "bool",
					"name": "",
					"type": "bool"
				}
			],
			"stateMutability": "nonpayable",
			"type": "function"
		},
		{
			"inputs": [
				{
					"internalType": "address",
					"name": "_noti",
					"type": "address"
				}
			],
			"name": "SetNotification",
			"outputs": [
				{
					"internalType": "bool",
					"name": "",
					"type": "bool"
				}
			],
			"stateMutability": "nonpayable",
			"type": "function"
		},
		{
			"inputs": [
				{
					"internalType": "address",
					"name": "_po5",
					"type": "address"
				}
			],
			"name": "SetTreeCom",
			"outputs": [
				{
					"internalType": "bool",
					"name": "",
					"type": "bool"
				}
			],
			"stateMutability": "nonpayable",
			"type": "function"
		},
		{
			"inputs": [],
			"name": "TreeCom",
			"outputs": [
				{
					"internalType": "contract ITreeCom",
					"name": "",
					"type": "address"
				}
			],
			"stateMutability": "view",
			"type": "function"
		},
		{
			"inputs": [
				{
					"internalType": "address",
					"name": "_user",
					"type": "address"
				},
				{
					"components": [
						{
							"internalType": "uint8",
							"name": "paymentType",
							"type": "uint8"
						},
						{
							"internalType": "uint256",
							"name": "totalPayment",
							"type": "uint256"
						},
						{
							"internalType": "address",
							"name": "buyer",
							"type": "address"
						}
					],
					"internalType": "struct PaymentHistory",
					"name": "_payment",
					"type": "tuple"
				}
			],
			"name": "addUserPayment",
			"outputs": [],
			"stateMutability": "nonpayable",
			"type": "function"
		},
		{
			"inputs": [
				{
					"internalType": "address",
					"name": "_user",
					"type": "address"
				}
			],
			"name": "adminDeleteUser",
			"outputs": [
				{
					"internalType": "bool",
					"name": "",
					"type": "bool"
				}
			],
			"stateMutability": "nonpayable",
			"type": "function"
		},
		{
			"inputs": [
				{
					"internalType": "uint256",
					"name": "",
					"type": "uint256"
				}
			],
			"name": "admins",
			"outputs": [
				{
					"internalType": "address",
					"name": "",
					"type": "address"
				}
			],
			"stateMutability": "view",
			"type": "function"
		},
		{
			"inputs": [
				{
					"internalType": "address",
					"name": "user",
					"type": "address"
				}
			],
			"name": "deleteAdmin",
			"outputs": [
				{
					"internalType": "bool",
					"name": "",
					"type": "bool"
				}
			],
			"stateMutability": "nonpayable",
			"type": "function"
		},
		{
			"inputs": [],
			"name": "deleteUser",
			"outputs": [
				{
					"internalType": "bool",
					"name": "",
					"type": "bool"
				}
			],
			"stateMutability": "nonpayable",
			"type": "function"
		},
		{
			"inputs": [
				{
					"internalType": "uint256",
					"name": "code",
					"type": "uint256"
				},
				{
					"internalType": "string",
					"name": "message",
					"type": "string"
				}
			],
			"name": "getErrorMessage",
			"outputs": [
				{
					"internalType": "string",
					"name": "",
					"type": "string"
				}
			],
			"stateMutability": "pure",
			"type": "function"
		},
		{
			"inputs": [
				{
					"internalType": "address",
					"name": "_user",
					"type": "address"
				}
			],
			"name": "getNotificationSetting",
			"outputs": [
				{
					"components": [
						{
							"internalType": "bool",
							"name": "NotificationEmail",
							"type": "bool"
						},
						{
							"internalType": "bool",
							"name": "OrderUpdate",
							"type": "bool"
						},
						{
							"internalType": "bool",
							"name": "PromotionalProgram",
							"type": "bool"
						},
						{
							"internalType": "bool",
							"name": "CreateProduct",
							"type": "bool"
						},
						{
							"internalType": "bool",
							"name": "CustomerOrderUpdate",
							"type": "bool"
						},
						{
							"internalType": "bool",
							"name": "CommentUpdate",
							"type": "bool"
						}
					],
					"internalType": "struct NotificationSetting",
					"name": "",
					"type": "tuple"
				}
			],
			"stateMutability": "view",
			"type": "function"
		},
		{
			"inputs": [],
			"name": "getUser",
			"outputs": [
				{
					"components": [
						{
							"internalType": "address",
							"name": "user",
							"type": "address"
						},
						{
							"internalType": "string",
							"name": "fullName",
							"type": "string"
						},
						{
							"internalType": "string",
							"name": "email",
							"type": "string"
						},
						{
							"internalType": "uint8",
							"name": "gender",
							"type": "uint8"
						},
						{
							"internalType": "uint256",
							"name": "dateOfBirth",
							"type": "uint256"
						},
						{
							"internalType": "string",
							"name": "phoneNumber",
							"type": "string"
						},
						{
							"internalType": "string",
							"name": "image",
							"type": "string"
						},
						{
							"internalType": "enum ROLE",
							"name": "role",
							"type": "uint8"
						},
						{
							"internalType": "uint256",
							"name": "createdAt",
							"type": "uint256"
						},
						{
							"internalType": "address",
							"name": "parent",
							"type": "address"
						}
					],
					"internalType": "struct UserInfo",
					"name": "info",
					"type": "tuple"
				},
				{
					"components": [
						{
							"internalType": "string",
							"name": "country",
							"type": "string"
						},
						{
							"internalType": "string",
							"name": "city",
							"type": "string"
						},
						{
							"internalType": "string",
							"name": "state",
							"type": "string"
						},
						{
							"internalType": "string",
							"name": "postalCode",
							"type": "string"
						},
						{
							"internalType": "string",
							"name": "detailAddress",
							"type": "string"
						}
					],
					"internalType": "struct AddressInfo[]",
					"name": "addresses",
					"type": "tuple[]"
				}
			],
			"stateMutability": "view",
			"type": "function"
		},
		{
			"inputs": [
				{
					"internalType": "address",
					"name": "_user",
					"type": "address"
				}
			],
			"name": "getUserInfo",
			"outputs": [
				{
					"components": [
						{
							"internalType": "address",
							"name": "user",
							"type": "address"
						},
						{
							"internalType": "string",
							"name": "fullName",
							"type": "string"
						},
						{
							"internalType": "string",
							"name": "email",
							"type": "string"
						},
						{
							"internalType": "uint8",
							"name": "gender",
							"type": "uint8"
						},
						{
							"internalType": "uint256",
							"name": "dateOfBirth",
							"type": "uint256"
						},
						{
							"internalType": "string",
							"name": "phoneNumber",
							"type": "string"
						},
						{
							"internalType": "string",
							"name": "image",
							"type": "string"
						},
						{
							"internalType": "enum ROLE",
							"name": "role",
							"type": "uint8"
						},
						{
							"internalType": "uint256",
							"name": "createdAt",
							"type": "uint256"
						},
						{
							"internalType": "address",
							"name": "parent",
							"type": "address"
						}
					],
					"internalType": "struct UserInfo",
					"name": "info",
					"type": "tuple"
				},
				{
					"components": [
						{
							"internalType": "string",
							"name": "country",
							"type": "string"
						},
						{
							"internalType": "string",
							"name": "city",
							"type": "string"
						},
						{
							"internalType": "string",
							"name": "state",
							"type": "string"
						},
						{
							"internalType": "string",
							"name": "postalCode",
							"type": "string"
						},
						{
							"internalType": "string",
							"name": "detailAddress",
							"type": "string"
						}
					],
					"internalType": "struct AddressInfo[]",
					"name": "addresses",
					"type": "tuple[]"
				}
			],
			"stateMutability": "view",
			"type": "function"
		},
		{
			"inputs": [
				{
					"internalType": "address",
					"name": "_user",
					"type": "address"
				}
			],
			"name": "getUserParent",
			"outputs": [
				{
					"internalType": "address",
					"name": "",
					"type": "address"
				}
			],
			"stateMutability": "view",
			"type": "function"
		},
		{
			"inputs": [],
			"name": "getUserPaymentHistory",
			"outputs": [
				{
					"components": [
						{
							"internalType": "uint8",
							"name": "paymentType",
							"type": "uint8"
						},
						{
							"internalType": "uint256",
							"name": "totalPayment",
							"type": "uint256"
						},
						{
							"internalType": "address",
							"name": "buyer",
							"type": "address"
						}
					],
					"internalType": "struct PaymentHistory[]",
					"name": "",
					"type": "tuple[]"
				}
			],
			"stateMutability": "view",
			"type": "function"
		},
		{
			"inputs": [
				{
					"internalType": "address",
					"name": "_user",
					"type": "address"
				}
			],
			"name": "getUserPaymentHistoryInfo",
			"outputs": [
				{
					"components": [
						{
							"internalType": "uint8",
							"name": "paymentType",
							"type": "uint8"
						},
						{
							"internalType": "uint256",
							"name": "totalPayment",
							"type": "uint256"
						},
						{
							"internalType": "address",
							"name": "buyer",
							"type": "address"
						}
					],
					"internalType": "struct PaymentHistory[]",
					"name": "",
					"type": "tuple[]"
				}
			],
			"stateMutability": "view",
			"type": "function"
		},
		{
			"inputs": [
				{
					"internalType": "address",
					"name": "_user",
					"type": "address"
				}
			],
			"name": "getUserRole",
			"outputs": [
				{
					"internalType": "enum ROLE",
					"name": "",
					"type": "uint8"
				}
			],
			"stateMutability": "view",
			"type": "function"
		},
		{
			"inputs": [],
			"name": "getUsersInfo",
			"outputs": [
				{
					"components": [
						{
							"internalType": "address",
							"name": "user",
							"type": "address"
						},
						{
							"internalType": "string",
							"name": "fullName",
							"type": "string"
						},
						{
							"internalType": "string",
							"name": "email",
							"type": "string"
						},
						{
							"internalType": "uint8",
							"name": "gender",
							"type": "uint8"
						},
						{
							"internalType": "uint256",
							"name": "dateOfBirth",
							"type": "uint256"
						},
						{
							"internalType": "string",
							"name": "phoneNumber",
							"type": "string"
						},
						{
							"internalType": "string",
							"name": "image",
							"type": "string"
						},
						{
							"internalType": "enum ROLE",
							"name": "role",
							"type": "uint8"
						},
						{
							"internalType": "uint256",
							"name": "createdAt",
							"type": "uint256"
						},
						{
							"internalType": "address",
							"name": "parent",
							"type": "address"
						}
					],
					"internalType": "struct UserInfo[]",
					"name": "infos",
					"type": "tuple[]"
				},
				{
					"internalType": "uint256[]",
					"name": "purchases",
					"type": "uint256[]"
				}
			],
			"stateMutability": "view",
			"type": "function"
		},
		{
			"inputs": [
				{
					"internalType": "address",
					"name": "",
					"type": "address"
				}
			],
			"name": "mAdmin",
			"outputs": [
				{
					"internalType": "bool",
					"name": "",
					"type": "bool"
				}
			],
			"stateMutability": "view",
			"type": "function"
		},
		{
			"inputs": [
				{
					"internalType": "address",
					"name": "",
					"type": "address"
				},
				{
					"internalType": "uint256",
					"name": "",
					"type": "uint256"
				}
			],
			"name": "mUserAddressInfo",
			"outputs": [
				{
					"internalType": "string",
					"name": "country",
					"type": "string"
				},
				{
					"internalType": "string",
					"name": "city",
					"type": "string"
				},
				{
					"internalType": "string",
					"name": "state",
					"type": "string"
				},
				{
					"internalType": "string",
					"name": "postalCode",
					"type": "string"
				},
				{
					"internalType": "string",
					"name": "detailAddress",
					"type": "string"
				}
			],
			"stateMutability": "view",
			"type": "function"
		},
		{
			"inputs": [
				{
					"internalType": "address",
					"name": "",
					"type": "address"
				}
			],
			"name": "mUserInfo",
			"outputs": [
				{
					"internalType": "address",
					"name": "user",
					"type": "address"
				},
				{
					"internalType": "string",
					"name": "fullName",
					"type": "string"
				},
				{
					"internalType": "string",
					"name": "email",
					"type": "string"
				},
				{
					"internalType": "uint8",
					"name": "gender",
					"type": "uint8"
				},
				{
					"internalType": "uint256",
					"name": "dateOfBirth",
					"type": "uint256"
				},
				{
					"internalType": "string",
					"name": "phoneNumber",
					"type": "string"
				},
				{
					"internalType": "string",
					"name": "image",
					"type": "string"
				},
				{
					"internalType": "enum ROLE",
					"name": "role",
					"type": "uint8"
				},
				{
					"internalType": "uint256",
					"name": "createdAt",
					"type": "uint256"
				},
				{
					"internalType": "address",
					"name": "parent",
					"type": "address"
				}
			],
			"stateMutability": "view",
			"type": "function"
		},
		{
			"inputs": [
				{
					"internalType": "address",
					"name": "",
					"type": "address"
				},
				{
					"internalType": "uint256",
					"name": "",
					"type": "uint256"
				}
			],
			"name": "mUserPaymentHistory",
			"outputs": [
				{
					"internalType": "uint8",
					"name": "paymentType",
					"type": "uint8"
				},
				{
					"internalType": "uint256",
					"name": "totalPayment",
					"type": "uint256"
				},
				{
					"internalType": "address",
					"name": "buyer",
					"type": "address"
				}
			],
			"stateMutability": "view",
			"type": "function"
		},
		{
			"inputs": [],
			"name": "owner",
			"outputs": [
				{
					"internalType": "address",
					"name": "",
					"type": "address"
				}
			],
			"stateMutability": "view",
			"type": "function"
		},
		{
			"inputs": [
				{
					"components": [
						{
							"internalType": "string",
							"name": "fullName",
							"type": "string"
						},
						{
							"internalType": "string",
							"name": "email",
							"type": "string"
						},
						{
							"internalType": "uint8",
							"name": "gender",
							"type": "uint8"
						},
						{
							"internalType": "uint256",
							"name": "dateOfBirth",
							"type": "uint256"
						},
						{
							"internalType": "string",
							"name": "phoneNumber",
							"type": "string"
						},
						{
							"internalType": "address",
							"name": "parent",
							"type": "address"
						}
					],
					"internalType": "struct registerParams",
					"name": "params",
					"type": "tuple"
				}
			],
			"name": "register",
			"outputs": [
				{
					"internalType": "bool",
					"name": "",
					"type": "bool"
				}
			],
			"stateMutability": "nonpayable",
			"type": "function"
		},
		{
			"inputs": [
				{
					"internalType": "string",
					"name": "_username",
					"type": "string"
				},
				{
					"internalType": "string",
					"name": "_phoneNumber",
					"type": "string"
				}
			],
			"name": "registerRetailer",
			"outputs": [
				{
					"internalType": "bool",
					"name": "",
					"type": "bool"
				}
			],
			"stateMutability": "nonpayable",
			"type": "function"
		},
		{
			"inputs": [
				{
					"internalType": "uint256",
					"name": "_productID",
					"type": "uint256"
				},
				{
					"internalType": "bool",
					"name": "isFlashSale",
					"type": "bool"
				},
				{
					"internalType": "address",
					"name": "retailer",
					"type": "address"
				}
			],
			"name": "sendCreateProductNotification",
			"outputs": [],
			"stateMutability": "nonpayable",
			"type": "function"
		},
		{
			"inputs": [
				{
					"internalType": "uint256",
					"name": "_orderID",
					"type": "uint256"
				},
				{
					"internalType": "address",
					"name": "_buyer",
					"type": "address"
				},
				{
					"internalType": "address[]",
					"name": "_retailers",
					"type": "address[]"
				}
			],
			"name": "sendExecuteOrderNotification",
			"outputs": [],
			"stateMutability": "nonpayable",
			"type": "function"
		},
		{
			"inputs": [
				{
					"internalType": "bytes",
					"name": "data",
					"type": "bytes"
				},
				{
					"internalType": "uint8",
					"name": "dataStruct",
					"type": "uint8"
				},
				{
					"internalType": "string",
					"name": "title",
					"type": "string"
				},
				{
					"internalType": "string",
					"name": "body",
					"type": "string"
				},
				{
					"internalType": "address[]",
					"name": "_to",
					"type": "address[]"
				},
				{
					"internalType": "string",
					"name": "notificationType",
					"type": "string"
				}
			],
			"name": "sendMultipleNotification",
			"outputs": [],
			"stateMutability": "nonpayable",
			"type": "function"
		},
		{
			"inputs": [
				{
					"internalType": "bytes",
					"name": "data",
					"type": "bytes"
				},
				{
					"internalType": "uint8",
					"name": "dataStruct",
					"type": "uint8"
				},
				{
					"internalType": "string",
					"name": "title",
					"type": "string"
				},
				{
					"internalType": "string",
					"name": "body",
					"type": "string"
				},
				{
					"internalType": "address",
					"name": "_to",
					"type": "address"
				},
				{
					"internalType": "string",
					"name": "notificationType",
					"type": "string"
				}
			],
			"name": "sendNotification",
			"outputs": [],
			"stateMutability": "nonpayable",
			"type": "function"
		},
		{
			"inputs": [
				{
					"internalType": "uint256",
					"name": "_orderID",
					"type": "uint256"
				},
				{
					"internalType": "address",
					"name": "_user",
					"type": "address"
				},
				{
					"internalType": "address",
					"name": "_owner",
					"type": "address"
				}
			],
			"name": "sendNotificationStorageOrder",
			"outputs": [],
			"stateMutability": "nonpayable",
			"type": "function"
		},
		{
			"inputs": [
				{
					"internalType": "address",
					"name": "user",
					"type": "address"
				}
			],
			"name": "setAdmin",
			"outputs": [
				{
					"internalType": "bool",
					"name": "",
					"type": "bool"
				}
			],
			"stateMutability": "nonpayable",
			"type": "function"
		},
		{
			"inputs": [
				{
					"internalType": "bool",
					"name": "_email",
					"type": "bool"
				},
				{
					"internalType": "bool",
					"name": "_orderUpdate",
					"type": "bool"
				},
				{
					"internalType": "bool",
					"name": "_promotion",
					"type": "bool"
				},
				{
					"internalType": "bool",
					"name": "_createProduct",
					"type": "bool"
				},
				{
					"internalType": "bool",
					"name": "_customerOrderUpdate",
					"type": "bool"
				},
				{
					"internalType": "bool",
					"name": "_commentUpdate",
					"type": "bool"
				}
			],
			"name": "setAdminNotificationSetting",
			"outputs": [
				{
					"internalType": "bool",
					"name": "",
					"type": "bool"
				}
			],
			"stateMutability": "nonpayable",
			"type": "function"
		},
		{
			"inputs": [
				{
					"internalType": "bool",
					"name": "_email",
					"type": "bool"
				},
				{
					"internalType": "bool",
					"name": "_orderUpdate",
					"type": "bool"
				},
				{
					"internalType": "bool",
					"name": "_promotion",
					"type": "bool"
				},
				{
					"internalType": "bool",
					"name": "_createProduct",
					"type": "bool"
				}
			],
			"name": "setCustomerNotificationSetting",
			"outputs": [
				{
					"internalType": "bool",
					"name": "",
					"type": "bool"
				}
			],
			"stateMutability": "nonpayable",
			"type": "function"
		},
		{
			"inputs": [
				{
					"internalType": "address",
					"name": "_user",
					"type": "address"
				}
			],
			"name": "setRetailer",
			"outputs": [
				{
					"internalType": "bool",
					"name": "",
					"type": "bool"
				}
			],
			"stateMutability": "nonpayable",
			"type": "function"
		},
		{
			"inputs": [
				{
					"internalType": "bool",
					"name": "_email",
					"type": "bool"
				},
				{
					"internalType": "bool",
					"name": "_orderUpdate",
					"type": "bool"
				},
				{
					"internalType": "bool",
					"name": "_promotion",
					"type": "bool"
				},
				{
					"internalType": "bool",
					"name": "_createProduct",
					"type": "bool"
				},
				{
					"internalType": "bool",
					"name": "_customerOrderUpdate",
					"type": "bool"
				},
				{
					"internalType": "bool",
					"name": "_commentUpdate",
					"type": "bool"
				}
			],
			"name": "setRetailerNotificationSetting",
			"outputs": [
				{
					"internalType": "bool",
					"name": "",
					"type": "bool"
				}
			],
			"stateMutability": "nonpayable",
			"type": "function"
		},
		{
			"inputs": [
				{
					"internalType": "string",
					"name": "image",
					"type": "string"
				}
			],
			"name": "updateUserImage",
			"outputs": [
				{
					"internalType": "bool",
					"name": "",
					"type": "bool"
				}
			],
			"stateMutability": "nonpayable",
			"type": "function"
		},
		{
			"inputs": [
				{
					"components": [
						{
							"internalType": "string",
							"name": "fullName",
							"type": "string"
						},
						{
							"internalType": "string",
							"name": "email",
							"type": "string"
						},
						{
							"internalType": "uint8",
							"name": "gender",
							"type": "uint8"
						},
						{
							"internalType": "uint256",
							"name": "dateOfBirth",
							"type": "uint256"
						},
						{
							"internalType": "string",
							"name": "phoneNumber",
							"type": "string"
						},
						{
							"internalType": "address",
							"name": "parent",
							"type": "address"
						}
					],
					"internalType": "struct registerParams",
					"name": "params",
					"type": "tuple"
				},
				{
					"components": [
						{
							"internalType": "string",
							"name": "country",
							"type": "string"
						},
						{
							"internalType": "string",
							"name": "city",
							"type": "string"
						},
						{
							"internalType": "string",
							"name": "state",
							"type": "string"
						},
						{
							"internalType": "string",
							"name": "postalCode",
							"type": "string"
						},
						{
							"internalType": "string",
							"name": "detailAddress",
							"type": "string"
						}
					],
					"internalType": "struct AddressInfo[]",
					"name": "addressesInfo",
					"type": "tuple[]"
				}
			],
			"name": "updateUserInfo",
			"outputs": [
				{
					"internalType": "bool",
					"name": "",
					"type": "bool"
				}
			],
			"stateMutability": "nonpayable",
			"type": "function"
		},
		{
			"inputs": [
				{
					"internalType": "uint256",
					"name": "",
					"type": "uint256"
				}
			],
			"name": "userList",
			"outputs": [
				{
					"internalType": "address",
					"name": "",
					"type": "address"
				}
			],
			"stateMutability": "view",
			"type": "function"
		},
		{
			"inputs": [
				{
					"internalType": "address",
					"name": "",
					"type": "address"
				}
			],
			"name": "userNotificationSettings",
			"outputs": [
				{
					"internalType": "bool",
					"name": "NotificationEmail",
					"type": "bool"
				},
				{
					"internalType": "bool",
					"name": "OrderUpdate",
					"type": "bool"
				},
				{
					"internalType": "bool",
					"name": "PromotionalProgram",
					"type": "bool"
				},
				{
					"internalType": "bool",
					"name": "CreateProduct",
					"type": "bool"
				},
				{
					"internalType": "bool",
					"name": "CustomerOrderUpdate",
					"type": "bool"
				},
				{
					"internalType": "bool",
					"name": "CommentUpdate",
					"type": "bool"
				}
			],
			"stateMutability": "view",
			"type": "function"
		}
	]
}