{
	"data": {
		"bytecode": {
			"linkReferences": {},
			"object": "6080604052601780546001600160a01b031916331790556195ea806100235f395ff3fe608060405234801561000f575f80fd5b5060043610610264575f3560e01c8062e6af7f1461026857806302b572d6146102df578063040f1d721461030057806308a53b21146103155780631fda90a2146103385780632248632a146103585780632d8206fe146103785780632e2dc43e1461046457806330d51a3214610479578063399cfa1e1461048c57806344d80330146104ac57806346e115c0146104b45780634b5ba409146104c95780634d5c5fd7146104dc5780634e8781cd146104fc5780635a7f48f81461050f57806362de62301461052257806363c69f0814610535578063664008f81461054857806376d6e7ef146105675780637ce473451461057a578063834f9ed31461058d57806386cb0d92146105ad5780638a8869e2146105c05780638da5cb5b146105d357806393c26229146105e657806396e98874146106065780639a377a3714610652578063a354f1b214610665578063a4e176ea14610678578063a559934e1461068b578063a875588d1461069e578063ab238f1f146106b1578063b814f77b146106d1578063bfbe3ef7146106e4578063c006e9a914610703578063c54e44eb14610716578063cac0e65014610729578063cf9796ec1461073c578063cf9913641461075e578063d09ef24114610771578063d71f818114610784578063da31f88a146107a4578063ddcd6408146107c7578063e217866c146107da578063e5e00e93146107fa578063e5fc4ac21461080d578063ea68ba9914610820578063f29155ef14610833578063f894196e14610846578063fb08e12e14610859578063fb7ef37714610878578063ffafe9291461088b575b5f80fd5b6102ac61027636600461761c565b60076020525f908152604090208054600282015460039092015490916001600160a01b03811691600160a01b90910460ff169084565b604080519485526001600160a01b0390931660208501529015159183019190915260608201526080015b60405180910390f35b6102f26102ed366004617654565b61089e565b6040519081526020016102d6565b61031361030e3660046179b3565b6108c9565b005b610328610323366004617bd8565b610ae3565b60405190151581526020016102d6565b61034b610346366004617c24565b610ca3565b6040516102d69190617c6f565b61036b610366366004617cdb565b610d6f565b6040516102d69190617d4c565b6103f361038636600461761c565b600160208190525f918252604090912080549181015460028201546003830154600b840154600c850154600d860154600e870154600f88015460108901546011909901546001600160a01b039889169997909816979596949560ff8086169661010090960481169516908c565b604080519c8d526001600160a01b039b8c1660208e015299909a16988b019890985260608a0196909652608089019490945260ff92831660a089015290821660c088015260e087015261010086019190915261012085019190915216610140830152610160820152610180016102d6565b61046c610da9565b6040516102d69190617f17565b610328610487366004617f7a565b611154565b61049f61049a366004617fc6565b6111a3565b6040516102d69190617fef565b61034b61167c565b6104bc611745565b6040516102d69190618107565b6103286104d7366004617c24565b611a1f565b6013546104ef906001600160a01b031681565b6040516102d6919061815e565b61031361050a36600461761c565b611a73565b6102f261051d366004617654565b611a80565b610328610530366004617c24565b611a99565b61046c610543366004617c24565b611aed565b6102f2610556366004617c24565b60046020525f908152604090205481565b6102f26105753660046181d2565b611ef7565b61049f61058836600461839e565b612555565b6105a061059b36600461761c565b61286b565b6040516102d691906184ae565b6103286105bb3660046184ee565b612dea565b6103286105ce366004617c24565b612e2a565b6017546104ef906001600160a01b031681565b6105f96105f436600461851f565b612e7e565b6040516102d691906185de565b610635610614366004617c24565b5f60208190529081526040902080546001909101546001600160a01b031682565b604080519283526001600160a01b039091166020830152016102d6565b610328610660366004617c24565b612f6e565b6012546104ef906001600160a01b031681565b6103286106863660046184ee565b612fc2565b610328610699366004617c24565b612ff9565b6102f26106ac36600461862b565b61304d565b6106c46106bf36600461761c565b613202565b6040516102d6919061866c565b6014546104ef906001600160a01b031681565b6102f26106f236600461761c565b600a6020525f908152604090205481565b61032861071136600461761c565b613515565b6016546104ef906001600160a01b031681565b610328610737366004617c24565b6136f8565b61074f61074a36600461761c565b61374c565b6040516102d6939291906186e8565b61031361076c366004618718565b613d1f565b6106c461077f36600461761c565b613daa565b61079761079236600461761c565b6140ad565b6040516102d69190618767565b6107b76107b236600461761c565b6142cd565b6040516102d69493929190618779565b6103286107d5366004617c24565b61481d565b6107ed6107e836600461761c565b614871565b6040516102d691906187a5565b6104bc610808366004617c24565b614fb2565b6015546104ef906001600160a01b031681565b6102f261082e366004617654565b61529f565b6018546104ef906001600160a01b031681565b61031361085436600461761c565b6152b8565b6102f261086736600461761c565b5f9081526005602052604090205490565b6019546104ef906001600160a01b031681565b6105f96108993660046188d3565b615ca6565b600b602052815f5260405f2081815481106108b7575f80fd5b905f5260205f20015f91509150505481565b600d8054905f6108d883618992565b909155505060408051608081018252600d5480825260208083018681526001600160a01b03868116858701908152606086018a81525f958652600990945295909320845181559051600182015593516002850180546001600160a01b0319169190931617909155518051919283929091906003830190819061095a9082618a28565b506020820151600182019061096f9082618a28565b50604082015160028201906109849082618a28565b50606082015160038201906109999082618a28565b50608082015160048201906109ae9082618a28565b5060a082015160058201906109c39082618a28565b5060c082015160068201906109d89082618a28565b5060e082015160078201906109ed9082618a28565b506101008201516008820190610a039082618a28565b505050905050600d54600a5f8581526020019081526020015f2081905550600b5f836001600160a01b03166001600160a01b031681526020019081526020015f20600d54908060018154018082558091505060019003905f5260205f20015f90919091909150557f6cbe635891bad406edfda1cd61005929db6c504109c59b9afe10f74944de95cb600d548484875f0151886020015189604001518a606001518b608001518c60a001518d60c001518e60e001518f6101000151604051610ad59c9b9a99989796959493929190618ae2565b60405180910390a150505050565b5f83815260076020526040812060028101546001600160a01b03163314610b255760405162461bcd60e51b8152600401610b1c90618bc4565b60405180910390fd5b805415801590610b4157506002810154600160a01b900460ff16155b610bb15760405162461bcd60e51b815260206004820152605b60248201525f8051602061959583398151915260448201525f8051602061954983398151915260648201527a656c696e6b206f7220616c7265616479206578656375746564227d60281b608482015260a401610b1c565b610bba81615d71565b50610bc8600182015f617346565b610bd184615edd565b505f5b8451811015610c925781600101858281518110610bf357610bf3618c2f565b60209081029190910181015182546001810184555f9384529282902081518051929460050290910192610c2b92849290910190617364565b506020828101518051610c449260018501920190617364565b5060408201518051610c60916002840191602090910190617364565b5060608201518051610c7c916003840191602090910190617364565b5060809190910151600490910155600101610bd4565b506003018290555060019392505050565b610cab6173a9565b6001600160a01b038083165f9081526020818152604080832081516060810183528154815260018201549095168584015260028101805483518186028101860185528181529295938701949293919290919084015b82821015610d61578382905f5260205f2090600502016040518060a00160405290815f820154815260200160018201548152602001600282015481526020016003820154815260200160048201548152505081526020019060010190610d00565b505050915250909392505050565b60605f610d7b8461630c565b90508083604051602001610d90929190618c5a565b6040516020818303038152906040529150505b92915050565b6003546060906001600160401b03811115610dc657610dc661767e565b604051908082528060200260200182016040528015610dff57816020015b610dec6173d1565b815260200190600190039081610de45790505b5090505f5b6003548110156111505760015f60038381548110610e2457610e24618c2f565b5f918252602080832090910154835282810193909352604091820190208151610260810183528154815260018201546001600160a01b03908116828601526002830154168184015260038201546060820152600482018054845181870281018701909552808552919492936080860193909290830182828015610ec457602002820191905f5260205f20905b815481526020019060010190808311610eb0575b5050505050815260200160058201805480602002602001604051908101604052809291908181526020018280548015610f1a57602002820191905f5260205f20905b815481526020019060010190808311610f06575b5050505050815260200160068201805480602002602001604051908101604052809291908181526020018280548015610f7057602002820191905f5260205f20905b815481526020019060010190808311610f5c575b5050505050815260200160078201805480602002602001604051908101604052809291908181526020018280548015610fc657602002820191905f5260205f20905b815481526020019060010190808311610fb2575b505050505081526020016008820180548060200260200160405190810160405280929190818152602001828054801561101c57602002820191905f5260205f20905b815481526020019060010190808311611008575b505050505081526020016009820180548060200260200160405190810160405280929190818152602001828054801561107257602002820191905f5260205f20905b81548152602001906001019080831161105e575b50505050508152602001600a82018054806020026020016040519081016040528092919081815260200182805480156110c857602002820191905f5260205f20905b8154815260200190600101908083116110b4575b5050509183525050600b8201546020820152600c82015460ff80821660408401526101009182900481166060840152600d8401546080840152600e84015460a0840152600f84015460c084015260108401541660e0830152601190920154910152825183908390811061113d5761113d618c2f565b6020908102919091010152600101610e04565b5090565b5f808280602001905181019061116a9190618cd6565b5f818152600860205260409020600a01549091506001600160a01b0316156111955750600192915050565b505f92915050565b50919050565b6111ab617475565b601254604051632e76c56d60e21b8152600481018690525f916001600160a01b03169063b9db15b4906024015f60405180830381865afa1580156111f1573d5f803e3d5ffd5b505050506040513d5f823e601f3d908101601f191682016040526112189190810190618e4c565b6012546040516241c62960e01b81529192505f916001600160a01b03909116906241c6299061124d9089908990600401619126565b60c060405180830381865afa158015611268573d5f803e3d5ffd5b505050506040513d601f19601f8201168201806040525081019061128c9190619134565b9050815f01515f14156112c9600360405180604001604052806011815260200170141c9bd91d58dd081b9bdd08199bdd5b99607a1b815250610d6f565b906112e75760405162461bcd60e51b8152600401610b1c9190617d4c565b50805160408051808201909152601181527015985c9a585b9d081b9bdd08199bdd5b99607a1b60208201529015159061132290600690610d6f565b906113405760405162461bcd60e51b8152600401610b1c9190617d4c565b5080602001516080015184111561137060056040518060600160405280602c8152602001619569602c9139610d6f565b9061138e5760405162461bcd60e51b8152600401610b1c9190617d4c565b5060118054905f61139e83618992565b90915550506040805160a0810182526011548152602080820189905281830187905260608201889052426080830152335f90815290819052918220549091036113ef576113ea81613d1f565b611534565b5f805b335f9081526020819052604090206002015481101561149757335f90815260208190526040902060020180548a91908390811061143157611431618c2f565b905f5260205f209060050201600101541480156114815750335f90815260208190526040902060020180548991908390811061146f5761146f618c2f565b905f5260205f20906005020160030154145b1561148f5760019150611497565b6001016113f2565b5080156114bd60066040518060600160405280602a815260200161951f602a9139610d6f565b906114db5760405162461bcd60e51b8152600401610b1c9190617d4c565b5050335f9081526020818152604080832060029081018054600181810183559186529484902086516005909602019485559285015192840192909255830151908201556060820151600382015560808201516004909101555b6014546040516322a8e4eb60e21b81526001600160a01b0390911690638aa393ac9061156f9033908b908a905f9081906001906004016191b4565b5f604051808303815f87803b158015611586575f80fd5b505af1158015611598573d5f803e3d5ffd5b5050601454602086015161018001516040516322a8e4eb60e21b81526001600160a01b039092169350638aa393ac92506115df9133918c918b91905f9081906004016191b4565b5f604051808303815f87803b1580156115f6575f80fd5b505af1158015611608573d5f803e3d5ffd5b50506014546020860151610180015160405163f954ed2d60e01b81526001600160a01b03909216935063f954ed2d92506116449160040161815e565b5f604051808303815f87803b15801561165b575f80fd5b505af115801561166d573d5f803e3d5ffd5b50929998505050505050505050565b6116846173a9565b335f9081526020818152604080832081516060810183528154815260018201546001600160a01b031681850152600282018054845181870281018701865281815292969395948701949293919290919084015b82821015611738578382905f5260205f2090600502016040518060a00160405290815f8201548152602001600182015481526020016002820154815260200160038201548152602001600482015481525050815260200190600101906116d7565b5050505081525050905090565b335f90815260066020526040812054606091906001600160401b0381111561176f5761176f61767e565b6040519080825280602002602001820160405280156117a857816020015b6117956174a2565b81526020019060019003908161178d5790505b50335f9081526006602052604081209192505b8154811015611a175760075f8383815481106117d9576117d9618c2f565b905f5260205f20015481526020019081526020015f206040518060a00160405290815f820154815260200160018201805480602002602001604051908101604052809291908181526020015f905b828210156119b8578382905f5260205f2090600502016040518060a00160405290815f820180548060200260200160405190810160405280929190818152602001828054801561189457602002820191905f5260205f20905b815481526020019060010190808311611880575b50505050508152602001600182018054806020026020016040519081016040528092919081815260200182805480156118ea57602002820191905f5260205f20905b8154815260200190600101908083116118d6575b505050505081526020016002820180548060200260200160405190810160405280929190818152602001828054801561194057602002820191905f5260205f20905b81548152602001906001019080831161192c575b505050505081526020016003820180548060200260200160405190810160405280929190818152602001828054801561199657602002820191905f5260205f20905b815481526020019060010190808311611982575b5050505050815260200160048201548152505081526020019060010190611827565b5050509082525060028201546001600160a01b0381166020830152600160a01b900460ff16151560408201526003909101546060909101528351849083908110611a0457611a04618c2f565b60209081029190910101526001016117bb565b509092915050565b6017545f906001600160a01b0316338114611a4c5760405162461bcd60e51b8152600401610b1c906191fc565b601580546001600160a01b0385166001600160a01b03199091161790556001915050919050565b611a7d338261639c565b50565b6006602052815f5260405f2081815481106108b7575f80fd5b6017545f906001600160a01b0316338114611ac65760405162461bcd60e51b8152600401610b1c906191fc565b601280546001600160a01b0385166001600160a01b03199091161790556001915050919050565b6001600160a01b0381165f908152600260209081526040808320805482518185028101850190935280835260609493830182828015611b4957602002820191905f5260205f20905b815481526020019060010190808311611b35575b5050505050905080516001600160401b03811115611b6957611b6961767e565b604051908082528060200260200182016040528015611ba257816020015b611b8f6173d1565b815260200190600190039081611b875790505b5091505f5b8251811015611ef05760015f838381518110611bc557611bc5618c2f565b60209081029190910181015182528181019290925260409081015f208151610260810183528154815260018201546001600160a01b03908116828601526002830154168184015260038201546060820152600482018054845181870281018701909552808552919492936080860193909290830182828015611c6457602002820191905f5260205f20905b815481526020019060010190808311611c50575b5050505050815260200160058201805480602002602001604051908101604052809291908181526020018280548015611cba57602002820191905f5260205f20905b815481526020019060010190808311611ca6575b5050505050815260200160068201805480602002602001604051908101604052809291908181526020018280548015611d1057602002820191905f5260205f20905b815481526020019060010190808311611cfc575b5050505050815260200160078201805480602002602001604051908101604052809291908181526020018280548015611d6657602002820191905f5260205f20905b815481526020019060010190808311611d52575b5050505050815260200160088201805480602002602001604051908101604052809291908181526020018280548015611dbc57602002820191905f5260205f20905b815481526020019060010190808311611da8575b5050505050815260200160098201805480602002602001604051908101604052809291908181526020018280548015611e1257602002820191905f5260205f20905b815481526020019060010190808311611dfe575b50505050508152602001600a8201805480602002602001604051908101604052809291908181526020018280548015611e6857602002820191905f5260205f20905b815481526020019060010190808311611e54575b5050509183525050600b8201546020820152600c82015460ff80821660408401526101009182900481166060840152600d8401546080840152600e84015460a0840152600f84015460c084015260108401541660e08301526011909201549101528351849083908110611edd57611edd618c2f565b6020908102919091010152600101611ba7565b5050919050565b5f80845111611f695760405162461bcd60e51b8152602060048201526044602482018190525f805160206194a0833981519152908201527f2031312c20226d657373616765223a224f726465722068617665206e6f206974606482015263656d227d60e01b608482015260a401610b1c565b6064845110611fdb5760405162461bcd60e51b815260206004820152604560248201525f805160206194a083398151915260448201527f2031312c20226d657373616765223a224f726465722068617665206d6178206960648201526474656d227d60d81b608482015260a401610b1c565b600182606001516001811115611ff357611ff361867e565b14612017600c6040518060600160405280603581526020016194c060359139610d6f565b906120355760405162461bcd60e51b8152600401610b1c9190617d4c565b5060135460405163700786d760e11b81525f916001600160a01b03169063e00f0dae9061206690339060040161815e565b602060405180830381865afa158015612081573d5f803e3d5ffd5b505050506040513d601f19601f820116820180604052508101906120a59190619256565b90506001600160a01b038116612112576040805162461bcd60e51b81526020600482015260248101919091525f805160206194a083398151915260448201527f2031322c20226d657373616765223a2255736572206e6f74206578697374227d6064820152608401610b1c565b600e8054905f61212183618992565b91905055505f6121318633616a45565b90505f604051806102600160405280600e548152602001846001600160a01b03168152602001336001600160a01b031681526020015f81526020018360c001518152602001835f01518152602001836020015181526020018360400151815260200183606001518152602001836080015181526020018360a0015181526020018360e001518152602001866040015160018111156121d1576121d161867e565b60ff1681526020016001876040015160018111156121f1576121f161867e565b146121fd576001612200565b60045b60ff168152602001866020015181526020015f81526020015f8152602001866060015160018111156122345761223461867e565b60ff16815242602091820152600e545f9081526001808352604091829020845181558484015191810180546001600160a01b039384166001600160a01b031991821617909155928501516002820180549190931693169290921790556060830151600382015560808301518051939450849391926122ba92600485019290910190617364565b5060a082015180516122d6916005840191602090910190617364565b5060c082015180516122f2916006840191602090910190617364565b5060e0820151805161230e916007840191602090910190617364565b50610100820151805161232b916008840191602090910190617364565b506101208201518051612348916009840191602090910190617364565b50610140820151805161236591600a840191602090910190617364565b50610160820151600b820155610180820151600c820180546101a085015160ff9081166101000261ffff19909216938116939093171790556101c0830151600d8301556101e0830151600e830155610200830151600f8301556102208301516010830180549190921660ff1991909116179055610240909101516011909101555f856040015160018111156123fc576123fc61867e565b0361240e5761240e86600e54336108c9565b600e5460408051426020820152439181019190915233606082015260808101919091525f9060a00160408051601f1981840301815290829052805160209182012080835292507f4ec76446eb2af2942c36aa8107dcfb0b8549bd84d1646289d0103ab8f6bf7a4e910160405180910390a1335f908152600460205260409020819055608082015151156124db575f5b8260800151518110156124d9576124d133846080015183815181106124c4576124c4618c2f565b6020026020010151617263565b60010161249d565b505b6020918201516001600160a01b03165f908152600283526040808220600e80548254600180820185559386528786200155546003805492830190557fc2575a0e9e593c00f959f8c92f12db2869c3395a3b0502d05e2516446f71f85b90910181905583835260059094529020919091559695505050505050565b61255d617475565b5f82116125a060066040518060400160405280601f81526020017f5175616e74697479206d7573742062652067726561746572207468616e203000815250610d6f565b906125be5760405162461bcd60e51b8152600401610b1c9190617d4c565b50335f908152602081815260409182902080548351808501909452601384527210d85c9d08191bd95cc81b9bdd08195e1a5cdd606a1b92840192909252919015159061260c90600790610d6f565b9061262a5760405162461bcd60e51b8152600401610b1c9190617d4c565b505f805b6002830154811015612809578583600201828154811061265057612650618c2f565b905f5260205f2090600502015f015403612801576012546002840180545f926001600160a01b0316916241c629918590811061268e5761268e618c2f565b905f5260205f209060050201600101548660020185815481106126b3576126b3618c2f565b905f5260205f209060050201600301546040518363ffffffff1660e01b81526004016126e0929190619126565b60c060405180830381865afa1580156126fb573d5f803e3d5ffd5b505050506040513d601f19601f8201168201806040525081019061271f9190619134565b905085816020015160800151101561275060086040518060600160405280602c8152602001619569602c9139610d6f565b9061276e5760405162461bcd60e51b8152600401610b1c9190617d4c565b508584600201838154811061278557612785618c2f565b905f5260205f209060050201600201819055508360020182815481106127ad576127ad618c2f565b905f5260205f2090600502016040518060a00160405290815f820154815260200160018201548152602001600282015481526020016003820154815260200160048201548152505094506001925050612809565b60010161262e565b5080612844600960405180604001604052806016815260200175125d195b481b9bdd08199bdd5b99081a5b8818d85c9d60521b815250610d6f565b906128625760405162461bcd60e51b8152600401610b1c9190617d4c565b50505092915050565b6128736174d8565b5f828152600a60209081526040808320548352600982529182902082516080810184528154815260018201549281019290925260028101546001600160a01b031682840152825161012081019093526003810180549293919260608501929190829082906128e0906189aa565b80601f016020809104026020016040519081016040528092919081815260200182805461290c906189aa565b80156129575780601f1061292e57610100808354040283529160200191612957565b820191905f5260205f20905b81548152906001019060200180831161293a57829003601f168201915b50505050508152602001600182018054612970906189aa565b80601f016020809104026020016040519081016040528092919081815260200182805461299c906189aa565b80156129e75780601f106129be576101008083540402835291602001916129e7565b820191905f5260205f20905b8154815290600101906020018083116129ca57829003601f168201915b50505050508152602001600282018054612a00906189aa565b80601f0160208091040260200160405190810160405280929190818152602001828054612a2c906189aa565b8015612a775780601f10612a4e57610100808354040283529160200191612a77565b820191905f5260205f20905b815481529060010190602001808311612a5a57829003601f168201915b50505050508152602001600382018054612a90906189aa565b80601f0160208091040260200160405190810160405280929190818152602001828054612abc906189aa565b8015612b075780601f10612ade57610100808354040283529160200191612b07565b820191905f5260205f20905b815481529060010190602001808311612aea57829003601f168201915b50505050508152602001600482018054612b20906189aa565b80601f0160208091040260200160405190810160405280929190818152602001828054612b4c906189aa565b8015612b975780601f10612b6e57610100808354040283529160200191612b97565b820191905f5260205f20905b815481529060010190602001808311612b7a57829003601f168201915b50505050508152602001600582018054612bb0906189aa565b80601f0160208091040260200160405190810160405280929190818152602001828054612bdc906189aa565b8015612c275780601f10612bfe57610100808354040283529160200191612c27565b820191905f5260205f20905b815481529060010190602001808311612c0a57829003601f168201915b50505050508152602001600682018054612c40906189aa565b80601f0160208091040260200160405190810160405280929190818152602001828054612c6c906189aa565b8015612cb75780601f10612c8e57610100808354040283529160200191612cb7565b820191905f5260205f20905b815481529060010190602001808311612c9a57829003601f168201915b50505050508152602001600782018054612cd0906189aa565b80601f0160208091040260200160405190810160405280929190818152602001828054612cfc906189aa565b8015612d475780601f10612d1e57610100808354040283529160200191612d47565b820191905f5260205f20905b815481529060010190602001808311612d2a57829003601f168201915b50505050508152602001600882018054612d60906189aa565b80601f0160208091040260200160405190810160405280929190818152602001828054612d8c906189aa565b8015612dd75780601f10612dae57610100808354040283529160200191612dd7565b820191905f5260205f20905b815481529060010190602001808311612dba57829003601f168201915b5050509190925250505090525092915050565b5f805b8251811015612e2157612e1933848381518110612e0c57612e0c618c2f565b602002602001015161639c565b600101612ded565b50600192915050565b6017545f906001600160a01b0316338114612e575760405162461bcd60e51b8152600401610b1c906191fc565b601480546001600160a01b0385166001600160a01b03199091161790556001915050919050565b60605f82516001600160401b03811115612e9a57612e9a61767e565b604051908082528060200260200182016040528015612ed357816020015b612ec0617475565b815260200190600190039081612eb85790505b5090505f5b8351811015612f6757612f42848281518110612ef657612ef6618c2f565b60200260200101515f0151858381518110612f1357612f13618c2f565b602002602001015160200151868481518110612f3157612f31618c2f565b6020026020010151604001516111a3565b828281518110612f5457612f54618c2f565b6020908102919091010152600101612ed8565b5092915050565b6017545f906001600160a01b0316338114612f9b5760405162461bcd60e51b8152600401610b1c906191fc565b601880546001600160a01b0385166001600160a01b03199091161790556001915050919050565b5f805b8251811015612e2157612ff0838281518110612fe357612fe3618c2f565b6020026020010151613515565b50600101612fc5565b6017545f906001600160a01b03163381146130265760405162461bcd60e51b8152600401610b1c906191fc565b601980546001600160a01b0385166001600160a01b03199091161790556001915050919050565b5f80835111613092602d6040518060400160405280602081526020017f5368617265206c696e6b20706172616d73206d757374206e6f7420656d707479815250610d6f565b906130b05760405162461bcd60e51b8152600401610b1c9190617d4c565b506130ba83615edd565b50600c8054905f6130ca83618992565b91905055505f5b83518110156131a15760075f600c5481526020019081526020015f2060010184828151811061310257613102618c2f565b60209081029190910181015182546001810184555f938452928290208151805192946005029091019261313a92849290910190617364565b5060208281015180516131539260018501920190617364565b506040820151805161316f916002840191602090910190617364565b506060820151805161318b916003840191602090910190617364565b50608091909101516004909101556001016130d1565b5050600c80545f81815260076020908152604080832093845560039093018590558354825282822060020180546001600160a01b03191633908117909155825260068152918120835481546001810183559183529290912001555492915050565b61320a6173d1565b5f8281526005602090815260408083205480845260018084529382902082516102608101845281548152948101546001600160a01b039081168686015260028201541685840152600381015460608601526004810180548451818702810187019095528085529295949193608086019390928301828280156132a957602002820191905f5260205f20905b815481526020019060010190808311613295575b50505050508152602001600582018054806020026020016040519081016040528092919081815260200182805480156132ff57602002820191905f5260205f20905b8154815260200190600101908083116132eb575b505050505081526020016006820180548060200260200160405190810160405280929190818152602001828054801561335557602002820191905f5260205f20905b815481526020019060010190808311613341575b50505050508152602001600782018054806020026020016040519081016040528092919081815260200182805480156133ab57602002820191905f5260205f20905b815481526020019060010190808311613397575b505050505081526020016008820180548060200260200160405190810160405280929190818152602001828054801561340157602002820191905f5260205f20905b8154815260200190600101908083116133ed575b505050505081526020016009820180548060200260200160405190810160405280929190818152602001828054801561345757602002820191905f5260205f20905b815481526020019060010190808311613443575b50505050508152602001600a82018054806020026020016040519081016040528092919081815260200182805480156134ad57602002820191905f5260205f20905b815481526020019060010190808311613499575b5050509183525050600b8201546020820152600c82015460ff80821660408401526101009182900481166060840152600d8401546080840152600e84015460a0840152600f84015460c084015260108401541660e08301526011909201549101529392505050565b5f81815260076020526040812060028101546001600160a01b0316331461354e5760405162461bcd60e51b8152600401610b1c90618bc4565b80546135ac5760405162461bcd60e51b815260206004820152604760248201525f8051602061959583398151915260448201525f80516020619549833981519152606482015266656c696e6b227d60c81b608482015260a401610b1c565b6002810154600160a01b900460ff166135ca576135c881615d71565b505b5f5b335f908152600660205260409020548110156136b657335f90815260066020526040902080548591908390811061360557613605618c2f565b905f5260205f200154036136ae57335f908152600660205260409020805461362f90600190619271565b8154811061363f5761363f618c2f565b5f9182526020808320909101543383526006909152604090912080548390811061366b5761366b618c2f565b5f91825260208083209091019290925533815260069091526040902080548061369657613696619284565b600190038181905f5260205f20015f905590556136b6565b6001016135cc565b505f838152600760205260408120818155906136d56001830182617346565b506002810180546001600160a81b03191690555f60039091015550600192915050565b6017545f906001600160a01b03163381146137255760405162461bcd60e51b8152600401610b1c906191fc565b601380546001600160a01b0385166001600160a01b03199091161790556001915050919050565b6008602052805f5260405f205f9150905080600101604051806101200160405290815f8201805461377c906189aa565b80601f01602080910402602001604051908101604052809291908181526020018280546137a8906189aa565b80156137f35780601f106137ca576101008083540402835291602001916137f3565b820191905f5260205f20905b8154815290600101906020018083116137d657829003601f168201915b5050505050815260200160018201805461380c906189aa565b80601f0160208091040260200160405190810160405280929190818152602001828054613838906189aa565b80156138835780601f1061385a57610100808354040283529160200191613883565b820191905f5260205f20905b81548152906001019060200180831161386657829003601f168201915b5050505050815260200160028201805461389c906189aa565b80601f01602080910402602001604051908101604052809291908181526020018280546138c8906189aa565b80156139135780601f106138ea57610100808354040283529160200191613913565b820191905f5260205f20905b8154815290600101906020018083116138f657829003601f168201915b5050505050815260200160038201805461392c906189aa565b80601f0160208091040260200160405190810160405280929190818152602001828054613958906189aa565b80156139a35780601f1061397a576101008083540402835291602001916139a3565b820191905f5260205f20905b81548152906001019060200180831161398657829003601f168201915b505050505081526020016004820180546139bc906189aa565b80601f01602080910402602001604051908101604052809291908181526020018280546139e8906189aa565b8015613a335780601f10613a0a57610100808354040283529160200191613a33565b820191905f5260205f20905b815481529060010190602001808311613a1657829003601f168201915b50505050508152602001600582018054613a4c906189aa565b80601f0160208091040260200160405190810160405280929190818152602001828054613a78906189aa565b8015613ac35780601f10613a9a57610100808354040283529160200191613ac3565b820191905f5260205f20905b815481529060010190602001808311613aa657829003601f168201915b50505050508152602001600682018054613adc906189aa565b80601f0160208091040260200160405190810160405280929190818152602001828054613b08906189aa565b8015613b535780601f10613b2a57610100808354040283529160200191613b53565b820191905f5260205f20905b815481529060010190602001808311613b3657829003601f168201915b50505050508152602001600782018054613b6c906189aa565b80601f0160208091040260200160405190810160405280929190818152602001828054613b98906189aa565b8015613be35780601f10613bba57610100808354040283529160200191613be3565b820191905f5260205f20905b815481529060010190602001808311613bc657829003601f168201915b50505050508152602001600882018054613bfc906189aa565b80601f0160208091040260200160405190810160405280929190818152602001828054613c28906189aa565b8015613c735780601f10613c4a57610100808354040283529160200191613c73565b820191905f5260205f20905b815481529060010190602001808311613c5657829003601f168201915b50505091909252505050600a82015460408051608081018252600b850180548252600c8601546020830152600d86015494956001600160a01b0390941694919290919083019060ff166001811115613ccd57613ccd61867e565b6001811115613cde57613cde61867e565b81526020016002820160019054906101000a900460ff166001811115613d0657613d0661867e565b6001811115613d1757613d1761867e565b905250905083565b60108054905f613d2e83618992565b9091555050335f818152602081815260408083206010548155600180820180546001600160a01b0319169096179095556002908101805480870182559085529383902086516005909502019384559185015193830193909355918301519181019190915560608201516003820155608090910151600490910155565b613db26173d1565b5f8281526001602081815260409283902083516102608101855281548152928101546001600160a01b03908116848401526002820154168385015260038101546060840152600481018054855181850281018501909652808652939491936080860193830182828015613e4257602002820191905f5260205f20905b815481526020019060010190808311613e2e575b5050505050815260200160058201805480602002602001604051908101604052809291908181526020018280548015613e9857602002820191905f5260205f20905b815481526020019060010190808311613e84575b5050505050815260200160068201805480602002602001604051908101604052809291908181526020018280548015613eee57602002820191905f5260205f20905b815481526020019060010190808311613eda575b5050505050815260200160078201805480602002602001604051908101604052809291908181526020018280548015613f4457602002820191905f5260205f20905b815481526020019060010190808311613f30575b5050505050815260200160088201805480602002602001604051908101604052809291908181526020018280548015613f9a57602002820191905f5260205f20905b815481526020019060010190808311613f86575b5050505050815260200160098201805480602002602001604051908101604052809291908181526020018280548015613ff057602002820191905f5260205f20905b815481526020019060010190808311613fdc575b50505050508152602001600a820180548060200260200160405190810160405280929190818152602001828054801561404657602002820191905f5260205f20905b815481526020019060010190808311614032575b5050509183525050600b8201546020820152600c82015460ff80821660408401526101009182900481166060840152600d8401546080840152600e84015460a0840152600f84015460c084015260108401541660e083015260119092015491015292915050565b6140b56174a2565b60075f8381526020019081526020015f206040518060a00160405290815f820154815260200160018201805480602002602001604051908101604052809291908181526020015f905b8282101561428f578382905f5260205f2090600502016040518060a00160405290815f820180548060200260200160405190810160405280929190818152602001828054801561416b57602002820191905f5260205f20905b815481526020019060010190808311614157575b50505050508152602001600182018054806020026020016040519081016040528092919081815260200182805480156141c157602002820191905f5260205f20905b8154815260200190600101908083116141ad575b505050505081526020016002820180548060200260200160405190810160405280929190818152602001828054801561421757602002820191905f5260205f20905b815481526020019060010190808311614203575b505050505081526020016003820180548060200260200160405190810160405280929190818152602001828054801561426d57602002820191905f5260205f20905b815481526020019060010190808311614259575b50505050508152602001600482015481525050815260200190600101906140fe565b5050509082525060028201546001600160a01b0381166020830152600160a01b900460ff161515604082015260039091015460609091015292915050565b60096020525f90815260409081902080546001820154600283015484516101208101909552600384018054939592946001600160a01b039092169391929182908290614318906189aa565b80601f0160208091040260200160405190810160405280929190818152602001828054614344906189aa565b801561438f5780601f106143665761010080835404028352916020019161438f565b820191905f5260205f20905b81548152906001019060200180831161437257829003601f168201915b505050505081526020016001820180546143a8906189aa565b80601f01602080910402602001604051908101604052809291908181526020018280546143d4906189aa565b801561441f5780601f106143f65761010080835404028352916020019161441f565b820191905f5260205f20905b81548152906001019060200180831161440257829003601f168201915b50505050508152602001600282018054614438906189aa565b80601f0160208091040260200160405190810160405280929190818152602001828054614464906189aa565b80156144af5780601f10614486576101008083540402835291602001916144af565b820191905f5260205f20905b81548152906001019060200180831161449257829003601f168201915b505050505081526020016003820180546144c8906189aa565b80601f01602080910402602001604051908101604052809291908181526020018280546144f4906189aa565b801561453f5780601f106145165761010080835404028352916020019161453f565b820191905f5260205f20905b81548152906001019060200180831161452257829003601f168201915b50505050508152602001600482018054614558906189aa565b80601f0160208091040260200160405190810160405280929190818152602001828054614584906189aa565b80156145cf5780601f106145a6576101008083540402835291602001916145cf565b820191905f5260205f20905b8154815290600101906020018083116145b257829003601f168201915b505050505081526020016005820180546145e8906189aa565b80601f0160208091040260200160405190810160405280929190818152602001828054614614906189aa565b801561465f5780601f106146365761010080835404028352916020019161465f565b820191905f5260205f20905b81548152906001019060200180831161464257829003601f168201915b50505050508152602001600682018054614678906189aa565b80601f01602080910402602001604051908101604052809291908181526020018280546146a4906189aa565b80156146ef5780601f106146c6576101008083540402835291602001916146ef565b820191905f5260205f20905b8154815290600101906020018083116146d257829003601f168201915b50505050508152602001600782018054614708906189aa565b80601f0160208091040260200160405190810160405280929190818152602001828054614734906189aa565b801561477f5780601f106147565761010080835404028352916020019161477f565b820191905f5260205f20905b81548152906001019060200180831161476257829003601f168201915b50505050508152602001600882018054614798906189aa565b80601f01602080910402602001604051908101604052809291908181526020018280546147c4906189aa565b801561480f5780601f106147e65761010080835404028352916020019161480f565b820191905f5260205f20905b8154815290600101906020018083116147f257829003601f168201915b505050505081525050905084565b6017545f906001600160a01b031633811461484a5760405162461bcd60e51b8152600401610b1c906191fc565b601680546001600160a01b0385166001600160a01b03199091161790556001915050919050565b61487961750b565b5f8281526008602090815260408083208151815460a09481028201850190935260808101838152909491938593919285929185015b828210156149d9578382905f5260205f2090600502016040518060a00160405290815f820154815260200160018201548152602001600282015481526020016003820154815260200160048201805480602002602001604051908101604052809291908181526020015f905b828210156149c2578382905f5260205f20018054614937906189aa565b80601f0160208091040260200160405190810160405280929190818152602001828054614963906189aa565b80156149ae5780601f10614985576101008083540402835291602001916149ae565b820191905f5260205f20905b81548152906001019060200180831161499157829003601f168201915b50505050508152602001906001019061491a565b5050505081525050815260200190600101906148ae565b50505050815260200160018201604051806101200160405290815f82018054614a01906189aa565b80601f0160208091040260200160405190810160405280929190818152602001828054614a2d906189aa565b8015614a785780601f10614a4f57610100808354040283529160200191614a78565b820191905f5260205f20905b815481529060010190602001808311614a5b57829003601f168201915b50505050508152602001600182018054614a91906189aa565b80601f0160208091040260200160405190810160405280929190818152602001828054614abd906189aa565b8015614b085780601f10614adf57610100808354040283529160200191614b08565b820191905f5260205f20905b815481529060010190602001808311614aeb57829003601f168201915b50505050508152602001600282018054614b21906189aa565b80601f0160208091040260200160405190810160405280929190818152602001828054614b4d906189aa565b8015614b985780601f10614b6f57610100808354040283529160200191614b98565b820191905f5260205f20905b815481529060010190602001808311614b7b57829003601f168201915b50505050508152602001600382018054614bb1906189aa565b80601f0160208091040260200160405190810160405280929190818152602001828054614bdd906189aa565b8015614c285780601f10614bff57610100808354040283529160200191614c28565b820191905f5260205f20905b815481529060010190602001808311614c0b57829003601f168201915b50505050508152602001600482018054614c41906189aa565b80601f0160208091040260200160405190810160405280929190818152602001828054614c6d906189aa565b8015614cb85780601f10614c8f57610100808354040283529160200191614cb8565b820191905f5260205f20905b815481529060010190602001808311614c9b57829003601f168201915b50505050508152602001600582018054614cd1906189aa565b80601f0160208091040260200160405190810160405280929190818152602001828054614cfd906189aa565b8015614d485780601f10614d1f57610100808354040283529160200191614d48565b820191905f5260205f20905b815481529060010190602001808311614d2b57829003601f168201915b50505050508152602001600682018054614d61906189aa565b80601f0160208091040260200160405190810160405280929190818152602001828054614d8d906189aa565b8015614dd85780601f10614daf57610100808354040283529160200191614dd8565b820191905f5260205f20905b815481529060010190602001808311614dbb57829003601f168201915b50505050508152602001600782018054614df1906189aa565b80601f0160208091040260200160405190810160405280929190818152602001828054614e1d906189aa565b8015614e685780601f10614e3f57610100808354040283529160200191614e68565b820191905f5260205f20905b815481529060010190602001808311614e4b57829003601f168201915b50505050508152602001600882018054614e81906189aa565b80601f0160208091040260200160405190810160405280929190818152602001828054614ead906189aa565b8015614ef85780601f10614ecf57610100808354040283529160200191614ef8565b820191905f5260205f20905b815481529060010190602001808311614edb57829003601f168201915b505050919092525050508152600a8201546001600160a01b031660208083019190915260408051608081018252600b850180548252600c86015493820193909352600d8501549382019390929183019060ff166001811115614f5c57614f5c61867e565b6001811115614f6d57614f6d61867e565b81526020016002820160019054906101000a900460ff166001811115614f9557614f9561867e565b6001811115614fa657614fa661867e565b90525090525092915050565b6001600160a01b0381165f90815260066020526040812054606091906001600160401b03811115614fe557614fe561767e565b60405190808252806020026020018201604052801561501e57816020015b61500b6174a2565b8152602001906001900390816150035790505b506001600160a01b0384165f9081526006602052604081209192505b81548110156152965760075f83838154811061505857615058618c2f565b905f5260205f20015481526020019081526020015f206040518060a00160405290815f820154815260200160018201805480602002602001604051908101604052809291908181526020015f905b82821015615237578382905f5260205f2090600502016040518060a00160405290815f820180548060200260200160405190810160405280929190818152602001828054801561511357602002820191905f5260205f20905b8154815260200190600101908083116150ff575b505050505081526020016001820180548060200260200160405190810160405280929190818152602001828054801561516957602002820191905f5260205f20905b815481526020019060010190808311615155575b50505050508152602001600282018054806020026020016040519081016040528092919081815260200182805480156151bf57602002820191905f5260205f20905b8154815260200190600101908083116151ab575b505050505081526020016003820180548060200260200160405190810160405280929190818152602001828054801561521557602002820191905f5260205f20905b815481526020019060010190808311615201575b50505050508152602001600482015481525050815260200190600101906150a6565b5050509082525060028201546001600160a01b0381166020830152600160a01b900460ff1615156040820152600390910154606090910152835184908390811061528357615283618c2f565b602090810291909101015260010161503a565b50909392505050565b6002602052815f5260405f2081815481106108b7575f80fd5b6015546001600160a01b03163381146152e35760405162461bcd60e51b8152600401610b1c906191fc565b5f828152600560205260409020548061532f5760405162461bcd60e51b815260206004820152600e60248201526d1ddc9bdb99c81bdc99195c88125160921b6044820152606401610b1c565b5f81815260016020818152604080842081516102608101835281548152938101546001600160a01b039081168585015260028201541684830152600381015460608501526004810180548351818602810186019094528084529193608086019392908301828280156153be57602002820191905f5260205f20905b8154815260200190600101908083116153aa575b505050505081526020016005820180548060200260200160405190810160405280929190818152602001828054801561541457602002820191905f5260205f20905b815481526020019060010190808311615400575b505050505081526020016006820180548060200260200160405190810160405280929190818152602001828054801561546a57602002820191905f5260205f20905b815481526020019060010190808311615456575b50505050508152602001600782018054806020026020016040519081016040528092919081815260200182805480156154c057602002820191905f5260205f20905b8154815260200190600101908083116154ac575b505050505081526020016008820180548060200260200160405190810160405280929190818152602001828054801561551657602002820191905f5260205f20905b815481526020019060010190808311615502575b505050505081526020016009820180548060200260200160405190810160405280929190818152602001828054801561556c57602002820191905f5260205f20905b815481526020019060010190808311615558575b50505050508152602001600a82018054806020026020016040519081016040528092919081815260200182805480156155c257602002820191905f5260205f20905b8154815260200190600101908083116155ae575b5050509183525050600b8201546020820152600c82015460ff80821660408401526101009182900481166060840152600d840154608080850191909152600e85015460a0850152600f85015460c0850152601085015490911660e08401526011909301549101528101515190915061566e5760405162461bcd60e51b815260206004820152600f60248201526e3737ba103337bab7321037b93232b960891b6044820152606401610b1c565b5f5b8160a00151518160ff161015615ad55760125460a083015180515f926001600160a01b0316916241c6299160ff86169081106156ae576156ae618c2f565b60200260200101518560c001518560ff16815181106156cf576156cf618c2f565b60200260200101516040518363ffffffff1660e01b81526004016156f4929190619126565b60c060405180830381865afa15801561570f573d5f803e3d5ffd5b505050506040513d601f19601f820116820180604052508101906157339190619134565b90508260e001518260ff168151811061574e5761574e618c2f565b60200260200101518160200151608001516157699190619271565b60208201516080015260125460a084015180516001600160a01b0390921691631d068976919060ff86169081106157a2576157a2618c2f565b60200260200101518560c001518560ff16815181106157c3576157c3618c2f565b60200260200101518460200151608001518760e001518760ff16815181106157ed576157ed618c2f565b60200260200101516040518563ffffffff1660e01b815260040161582a949392919093845260208401929092526040830152606082015260800190565b5f604051808303815f87803b158015615841575f80fd5b505af1158015615853573d5f803e3d5ffd5b505060145460a086015180516001600160a01b039092169350638286980c92509060ff861690811061588757615887618c2f565b60200260200101516040518263ffffffff1660e01b81526004016158ad91815260200190565b5f604051808303815f87803b1580156158c4575f80fd5b505af11580156158d6573d5f803e3d5ffd5b5050601454602086015160a087015180516001600160a01b039093169450635b9566279350909160ff871690811061591057615910618c2f565b60200260200101516040518363ffffffff1660e01b81526004016159499291906001600160a01b03929092168252602082015260400190565b5f604051808303815f87803b158015615960575f80fd5b505af1158015615972573d5f803e3d5ffd5b506001925061597f915050565b60ff1683610180015160ff1614615a3e575f61599a8561286b565b90505f60405180604001604052808660a001518660ff16815181106159c1576159c1618c2f565b60209081029190910181015182524291015260145460608085015101516040516307a752e960e31b81529293506001600160a01b0390911691633d3a974891615a0e918590600401619298565b5f604051808303815f87803b158015615a25575f80fd5b505af1158015615a37573d5f803e3d5ffd5b5050505050505b60145460a084015180516001600160a01b039092169163b34210e1919060ff8616908110615a6e57615a6e618c2f565b60200260200101516040518263ffffffff1660e01b8152600401615a9491815260200190565b5f604051808303815f87803b158015615aab575f80fd5b505af1158015615abd573d5f803e3d5ffd5b50505050508080615acd906192c4565b915050615670565b506040805160608101825261022083015160ff90811682526101608401516020808401918252858501516001600160a01b0390811685870190815260135492880151965163025f36e560e01b815296821660048801528551909416602487015291516044860152915181166064850152919291169063025f36e5906084015f604051808303815f87803b158015615b6a575f80fd5b505af1158015615b7c573d5f803e3d5ffd5b505060135484515f87815260016020819052604091829020015460125460a089015192516366573f6160e01b81526001600160a01b03958616975063e205d94e96509394918216939116916366573f6191615bda91906004016192e2565b5f60405180830381865afa158015615bf4573d5f803e3d5ffd5b505050506040513d5f823e601f3d908101601f19168201604052615c1b9190810190619319565b6040518463ffffffff1660e01b8152600401615c39939291906193a8565b5f604051808303815f87803b158015615c50575f80fd5b505af1158015615c62573d5f803e3d5ffd5b505050507f88227f5acc5172d082ff1158c7e6b54727dddce3806e3ce09aacfbda6a8e4d3983604051615c9791815260200190565b60405180910390a15050505050565b60605f82516001600160401b03811115615cc257615cc261767e565b604051908082528060200260200182016040528015615cfb57816020015b615ce8617475565b815260200190600190039081615ce05790505b5090505f5b8351811015612f6757615d4c848281518110615d1e57615d1e618c2f565b60200260200101515f0151858381518110615d3b57615d3b618c2f565b602002602001015160200151612555565b828281518110615d5e57615d5e618c2f565b6020908102919091010152600101615d00565b5f805b6001830154811015612e21575f836001018281548110615d9657615d96618c2f565b5f918252602080832060046005909302019182015483526001905260408220909250905b6001830154811015615ed2575f836001018281548110615ddc57615ddc618c2f565b905f5260205f20015490505f845f018381548110615dfc57615dfc618c2f565b905f5260205f20015490505f856002018481548110615e1d57615e1d618c2f565b905f5260205f20015490505f5b6005860154811015615ec25783866005018281548110615e4c57615e4c618c2f565b905f5260205f200154148015615e7e575081866006018281548110615e7357615e73618c2f565b905f5260205f200154145b15615eba5782866007018281548110615e9957615e99618c2f565b905f5260205f20015f828254615eaf919061940f565b90915550615ec29050565b600101615e2a565b505060019092019150615dba9050565b505050600101615d74565b5f805b8251811015612e21575f60015f858481518110615eff57615eff618c2f565b60200260200101516080015181526020019081526020015f209050805f01545f03615f935760405162461bcd60e51b815260206004820152604b60248201525f8051602061959583398151915260448201527f223a20313030322c20226d657373616765223a224f7264657220646f6573206e60648201526a6f7420657869737473227d60a81b608482015260a401610b1c565b60018101546001600160a01b0316331461601f5760405162461bcd60e51b815260206004820152605460248201525f8051602061959583398151915260448201527f223a20313030332c20226d657373616765223a22596f7520617265206e6f74206064820152736f776e6572206f6620746865206f72646572227d60601b608482015260a401610b1c565b600c81015460ff166001146160a25760405162461bcd60e51b815260206004820152605060248201525f8051602061959583398151915260448201527f223a20313030332c20226d657373616765223a224f72646572206973206e6f7460648201526f2073746f72616765206f72646572227d60801b608482015260a401610b1c565b5f5b8483815181106160b6576160b6618c2f565b60200260200101516020015151811015616302575f8584815181106160dd576160dd618c2f565b60200260200101516020015182815181106160fa576160fa618c2f565b602002602001015190505f86858151811061611757616117618c2f565b60200260200101515f0151838151811061613357616133618c2f565b602002602001015190505f87868151811061615057616150618c2f565b602002602001015160400151848151811061616d5761616d618c2f565b602002602001015190505f805f90505b6005870154811015616292578487600501828154811061619f5761619f618c2f565b905f5260205f2001541480156161d15750828760060182815481106161c6576161c6618c2f565b905f5260205f200154145b1561628a57838760070182815481106161ec576161ec618c2f565b905f5260205f200154101561624f5760405162461bcd60e51b815260206004820152602360248201527f6e6f7420656e6f756768207175616e7469747920696e20706172656e74206f726044820152623232b960e91b6064820152608401610b1c565b8387600701828154811061626557616265618c2f565b905f5260205f20015f82825461627b9190619271565b90915550600192506162929050565b60010161617d565b50806162f25760405162461bcd60e51b815260206004820152602960248201527f70726f6475637420494420646f6573206e6f7420657869737420696e2070617260448201526832b73a1037b93232b960b91b6064820152608401610b1c565b5050600190920191506160a49050565b5050600101615ee0565b60605f61631883617271565b60010190505f816001600160401b038111156163365761633661767e565b6040519080825280601f01601f191660200182016040528015616360576020820181803683370190505b5090508181016020015b5f19016f181899199a1a9b1b9c1cb0b131b232b360811b600a86061a8153600a850494508461636a575b509392505050565b5f80805b6001600160a01b0385165f90815260208190526040902060020154811015616419576001600160a01b0385165f9081526020819052604090206002018054859190839081106163f1576163f1618c2f565b905f5260205f2090600502015f0154036164115780925060019150616419565b6001016163a0565b508061649f5760405162461bcd60e51b815260206004820152605c60248201525f8051602061959583398151915260448201527f223a2031302c20226d657373616765223a225468652063617274206974656d2060648201527b646f6573206e6f7420657869737420696e207468652063617274227d60201b608482015260a401610b1c565b6001600160a01b0384165f90815260208190526040902060020154821061652b5760405162461bcd60e51b815260206004820152604760248201525f8051602061959583398151915260448201527f223a2031312c20226d657373616765223a22496e646578206f7574206f6620626064820152666f756e6473227d60c81b608482015260a401610b1c565b6014546001600160a01b038581165f9081526020819052604090206002018054919092169163d24043cb918791908690811061656957616569618c2f565b905f5260205f209060050201600101545f60016040518563ffffffff1660e01b815260040161659b9493929190619422565b5f604051808303815f87803b1580156165b2575f80fd5b505af11580156165c4573d5f803e3d5ffd5b50506014546001600160a01b038781165f908152602081905260409020600201805491909216935063d24043cb92508791908690811061660657616606618c2f565b905f5260205f2090600502016001015460125f9054906101000a90046001600160a01b03166001600160a01b031663b9db15b45f808b6001600160a01b03166001600160a01b031681526020019081526020015f20600201888154811061666f5761666f618c2f565b905f5260205f209060050201600101546040518263ffffffff1660e01b815260040161669d91815260200190565b5f60405180830381865afa1580156166b7573d5f803e3d5ffd5b505050506040513d5f823e601f3d908101601f191682016040526166de9190810190618e4c565b6020015161018001515f6040518563ffffffff1660e01b81526004016167079493929190619422565b5f604051808303815f87803b15801561671e575f80fd5b505af1158015616730573d5f803e3d5ffd5b50506014546012546001600160a01b038881165f908152602081905260409020600201805493821695506392a198d5945091169163b9db15b491908790811061677b5761677b618c2f565b905f5260205f209060050201600101546040518263ffffffff1660e01b81526004016167a991815260200190565b5f60405180830381865afa1580156167c3573d5f803e3d5ffd5b505050506040513d5f823e601f3d908101601f191682016040526167ea9190810190618e4c565b6020015161018001516040518263ffffffff1660e01b815260040161680f919061815e565b5f604051808303815f87803b158015616826575f80fd5b505af1158015616838573d5f803e3d5ffd5b5050506001600160a01b0385165f908152602081905260409020600201546168639150600190619271565b82101561695957815b6001600160a01b0385165f9081526020819052604090206002015461689390600190619271565b811015616957576001600160a01b0385165f9081526020819052604090206002016168bf82600161940f565b815481106168cf576168cf618c2f565b905f5260205f2090600502015f80876001600160a01b03166001600160a01b031681526020019081526020015f20600201828154811061691157616911618c2f565b5f9182526020909120825460059092020190815560018083015481830155600280840154908301556003808401549083015560049283015492909101919091550161686c565b505b6001600160a01b0384165f908152602081905260409020600201546169e55760405162461bcd60e51b815260206004820152604960248201525f8051602061959583398151915260448201527f223a2031322c20226d657373616765223a224361727420697320616c726561646064820152687920656d707479227d60b81b608482015260a401610b1c565b6001600160a01b0384165f908152602081905260409020600201805480616a0e57616a0e619284565b5f8281526020812060055f199093019283020181815560018101829055600281018290556003810182905560040155905550505050565b616a8c604051806101000160405280606081526020016060815260200160608152602001606081526020016060815260200160608152602001606081526020015f81525090565b6015546040516345ace91f60e11b81525f916001600160a01b031690638b59d23e90616abc90869060040161815e565b602060405180830381865afa158015616ad7573d5f803e3d5ffd5b505050506040513d601f19601f82011682018060405250810190616afb919061944c565b8451909150806001600160401b03811115616b1857616b1861767e565b604051908082528060200260200182016040528015616b41578160200160208202803683370190505b508352806001600160401b03811115616b5c57616b5c61767e565b604051908082528060200260200182016040528015616b85578160200160208202803683370190505b506020840152806001600160401b03811115616ba357616ba361767e565b604051908082528060200260200182016040528015616bcc578160200160208202803683370190505b506040840152806001600160401b03811115616bea57616bea61767e565b604051908082528060200260200182016040528015616c13578160200160208202803683370190505b5060c0840152806001600160401b03811115616c3157616c3161767e565b604051908082528060200260200182016040528015616c5a578160200160208202803683370190505b506080840152806001600160401b03811115616c7857616c7861767e565b604051908082528060200260200182016040528015616ca1578160200160208202803683370190505b506060840152806001600160401b03811115616cbf57616cbf61767e565b604051908082528060200260200182016040528015616ce8578160200160208202803683370190505b5060a08401525f5b81811015612862575f805b6001600160a01b0387165f90815260208190526040902060020154811015616d9657878381518110616d2f57616d2f618c2f565b6020026020010151606001515f80896001600160a01b03166001600160a01b031681526020019081526020015f206002018281548110616d7157616d71618c2f565b905f5260205f2090600502015f015403616d8e5760019150616d96565b600101616cfb565b5080616e1a5760405162461bcd60e51b815260206004820152605a60248201525f8051602061959583398151915260448201527f223a2031332c20226d657373616765223a2022636172744974656d496420646f6064820152796573206e6f7420657869737420696e207468652063617274227d60301b608482015260a401610b1c565b60125487516001600160a01b039091169063b9db15b490899085908110616e4357616e43618c2f565b60200260200101515f01516040518263ffffffff1660e01b8152600401616e6c91815260200190565b5f60405180830381865afa158015616e86573d5f803e3d5ffd5b505050506040513d5f823e601f3d908101601f19168201604052616ead9190810190618e4c565b602001516102c00151616ed9600f60405180606001604052806023815260200161947d60239139610d6f565b90616ef75760405162461bcd60e51b8152600401610b1c9190617d4c565b5060125487515f916001600160a01b0316906241c629908a9086908110616f2057616f20618c2f565b60200260200101515f01518a8681518110616f3d57616f3d618c2f565b6020026020010151604001516040518363ffffffff1660e01b8152600401616f66929190619126565b60c060405180830381865afa158015616f81573d5f803e3d5ffd5b505050506040513d601f19601f82011682018060405250810190616fa59190619134565b90505f808615616fbd5750602080830151015161703b565b506020808301516040810151910151811061703b5760405162461bcd60e51b8152602060048201526044602482018190525f80516020619595833981519152908201527f223a2031332c20226d657373616765223a202277726f6e6720646966665072696064820152636365227d60e01b608482015260a401610b1c565b89858151811061704d5761704d618c2f565b602002602001015160200151816170649190619465565b8860e001818151617075919061940f565b9052506020830151608001518a518b908790811061709557617095618c2f565b60200260200101516020015111156170c6600d6040518060600160405280602a81526020016194f5602a9139610d6f565b906170e45760405162461bcd60e51b8152600401610b1c9190617d4c565b508985815181106170f7576170f7618c2f565b60200260200101515f0151885f0151868151811061711757617117618c2f565b60200260200101818152505089858151811061713557617135618c2f565b6020026020010151604001518860200151868151811061715757617157618c2f565b60200260200101818152505089858151811061717557617175618c2f565b6020026020010151602001518860400151868151811061719757617197618c2f565b60200260200101818152505081886060015186815181106171ba576171ba618c2f565b60200260200101818152505080886080015186815181106171dd576171dd618c2f565b6020026020010181815250508260200151606001518860a00151868151811061720857617208618c2f565b60200260200101818152505089858151811061722657617226618c2f565b6020026020010151606001518860c00151868151811061724857617248618c2f565b6020908102919091010152505060019092019150616cf09050565b61726d828261639c565b5050565b5f8072184f03e93ff9f4daa797ed6e38ed64bf6a1f0160401b83106172af5772184f03e93ff9f4daa797ed6e38ed64bf6a1f0160401b830492506040015b6904ee2d6d415b85acef8160201b83106172d9576904ee2d6d415b85acef8160201b830492506020015b662386f26fc1000083106172f757662386f26fc10000830492506010015b6305f5e100831061730f576305f5e100830492506008015b612710831061732357612710830492506004015b60648310617335576064830492506002015b600a8310610da35760010192915050565b5080545f8255600502905f5260205f2090810190611a7d9190617558565b828054828255905f5260205f2090810192821561739d579160200282015b8281111561739d578251825591602001919060010190617382565b506111509291506175a1565b60405180606001604052805f81526020015f6001600160a01b03168152602001606081525090565b6040518061026001604052805f81526020015f6001600160a01b031681526020015f6001600160a01b031681526020015f8152602001606081526020016060815260200160608152602001606081526020016060815260200160608152602001606081526020015f81526020015f60ff1681526020015f60ff1681526020015f80191681526020015f81526020015f81526020015f60ff1681526020015f81525090565b6040518060a001604052805f81526020015f81526020015f81526020015f80191681526020015f81525090565b6040518060a001604052805f8152602001606081526020015f6001600160a01b031681526020015f151581526020015f81525090565b60405180608001604052805f81526020015f81526020015f6001600160a01b031681526020016175066175b5565b905290565b6040518060800160405280606081526020016175256175b5565b81525f6020820152604001617506604080516080810182525f80825260208201819052909182019081526020015f905290565b80821115611150575f61756b8282617601565b617578600183015f617601565b617585600283015f617601565b617592600383015f617601565b505f6004820155600501617558565b5b80821115611150575f81556001016175a2565b6040518061012001604052806060815260200160608152602001606081526020016060815260200160608152602001606081526020016060815260200160608152602001606081525090565b5080545f8255905f5260205f2090810190611a7d91906175a1565b5f6020828403121561762c575f80fd5b5035919050565b6001600160a01b03169052565b6001600160a01b0381168114611a7d575f80fd5b5f8060408385031215617665575f80fd5b823561767081617640565b946020939093013593505050565b634e487b7160e01b5f52604160045260245ffd5b60405161012081016001600160401b03811182821017156176b5576176b561767e565b60405290565b60405160a081016001600160401b03811182821017156176b5576176b561767e565b604051608081016001600160401b03811182821017156176b5576176b561767e565b604051606081016001600160401b03811182821017156176b5576176b561767e565b604080519081016001600160401b03811182821017156176b5576176b561767e565b60405161030081016001600160401b03811182821017156176b5576176b561767e565b604051601f8201601f191681016001600160401b038111828210171561778e5761778e61767e565b604052919050565b5f6001600160401b038211156177ae576177ae61767e565b50601f01601f191660200190565b5f6177ce6177c984617796565b617766565b90508281528383830111156177e1575f80fd5b828260208301375f602084830101529392505050565b5f82601f830112617806575f80fd5b617815838335602085016177bc565b9392505050565b5f610120828403121561782d575f80fd5b617835617692565b905081356001600160401b0381111561784c575f80fd5b617858848285016177f7565b82525060208201356001600160401b03811115617873575f80fd5b61787f848285016177f7565b60208301525060408201356001600160401b0381111561789d575f80fd5b6178a9848285016177f7565b60408301525060608201356001600160401b038111156178c7575f80fd5b6178d3848285016177f7565b60608301525060808201356001600160401b038111156178f1575f80fd5b6178fd848285016177f7565b60808301525060a08201356001600160401b0381111561791b575f80fd5b617927848285016177f7565b60a08301525060c08201356001600160401b03811115617945575f80fd5b617951848285016177f7565b60c08301525060e08201356001600160401b0381111561796f575f80fd5b61797b848285016177f7565b60e0830152506101008201356001600160401b0381111561799a575f80fd5b6179a6848285016177f7565b6101008301525092915050565b5f805f606084860312156179c5575f80fd5b83356001600160401b038111156179da575f80fd5b6179e68682870161781c565b9350506020840135915060408401356179fe81617640565b809150509250925092565b5f6001600160401b03821115617a2157617a2161767e565b5060051b60200190565b5f82601f830112617a3a575f80fd5b8135617a486177c982617a09565b8082825260208201915060208360051b860101925085831115617a69575f80fd5b602085015b83811015617a86578035835260209283019201617a6e565b5095945050505050565b5f82601f830112617a9f575f80fd5b8135617aad6177c982617a09565b8082825260208201915060208360051b860101925085831115617ace575f80fd5b602085015b83811015617a865780356001600160401b03811115617af0575f80fd5b860160a0818903601f19011215617b05575f80fd5b617b0d6176bb565b60208201356001600160401b03811115617b25575f80fd5b617b348a602083860101617a2b565b82525060408201356001600160401b03811115617b4f575f80fd5b617b5e8a602083860101617a2b565b60208301525060608201356001600160401b03811115617b7c575f80fd5b617b8b8a602083860101617a2b565b60408301525060808201356001600160401b03811115617ba9575f80fd5b617bb88a602083860101617a2b565b60608301525060a091909101356080820152835260209283019201617ad3565b5f805f60608486031215617bea575f80fd5b8335925060208401356001600160401b03811115617c06575f80fd5b617c1286828701617a90565b93969395505050506040919091013590565b5f60208284031215617c34575f80fd5b813561781581617640565b80518252602081015160208301526040810151604083015260608101516060830152608081015160808301525050565b6020808252825182820152828101516001600160a01b03166040808401919091528301516060808401528051608084018190525f929190910190829060a08501905b80831015617a8657617cc4828551617c3f565b60a082019150602084019350600183019250617cb1565b5f8060408385031215617cec575f80fd5b8235915060208301356001600160401b03811115617d08575f80fd5b617d14858286016177f7565b9150509250929050565b5f81518084528060208401602086015e5f602082860101526020601f19601f83011685010191505092915050565b602081525f6178156020830184617d1e565b5f8151808452602084019350602083015f5b82811015617d8e578151865260209586019590910190600101617d70565b5093949350505050565b805182525f6020820151617daf6020850182617633565b506040820151617dc26040850182617633565b506060820151606084015260808201516102606080850152617de8610260850182617d5e565b905060a083015184820360a0860152617e018282617d5e565b91505060c083015184820360c0860152617e1b8282617d5e565b91505060e083015184820360e0860152617e358282617d5e565b915050610100830151848203610100860152617e518282617d5e565b915050610120830151848203610120860152617e6d8282617d5e565b915050610140830151848203610140860152617e898282617d5e565b915050610160830151610160850152610180830151617eae61018086018260ff169052565b506101a0830151617ec56101a086018260ff169052565b506101c08301516101c08501526101e08301516101e0850152610200830151610200850152610220830151617f0061022086018260ff169052565b506102408301516102408501528091505092915050565b5f602082016020835280845180835260408501915060408160051b8601019250602086015f5b82811015617f6e57603f19878603018452617f59858351617d98565b94506020938401939190910190600101617f3d565b50929695505050505050565b5f60208284031215617f8a575f80fd5b81356001600160401b03811115617f9f575f80fd5b8201601f81018413617faf575f80fd5b617fbe848235602084016177bc565b949350505050565b5f805f60608486031215617fd8575f80fd5b505081359360208301359350604090920135919050565b60a08101610da38284617c3f565b5f60a0830182518452602083015160a0602086015281815180845260c08701915060c08160051b88010193506020830192505f5b818110156180c85760bf198886030183528351805160a0875261805760a0880182617d5e565b9050602082015187820360208901526180708282617d5e565b9150506040820151878203604089015261808a8282617d5e565b915050606082015187820360608901526180a48282617d5e565b60809384015198909301979097525094506020938401939290920191600101618031565b5050505060408301516180de6040860182617633565b5060608301516180f2606086018215159052565b50608083015160808501528091505092915050565b5f602082016020835280845180835260408501915060408160051b8601019250602086015f5b82811015617f6e57603f19878603018452618149858351617ffd565b9450602093840193919091019060010161812d565b6001600160a01b0391909116815260200190565b60028110611a7d575f80fd5b5f6080828403121561818e575f80fd5b6181966176dd565b8235815260208084013590820152905060408201356181b481618172565b604082015260608201356181c781618172565b606082015292915050565b5f805f60c084860312156181e4575f80fd5b6001600160401b03843511156181f8575f80fd5b8335840185601f82011261820a575f80fd5b6182176177c98235617a09565b81358082526020808301929160051b840101881015618234575f80fd5b602083015b6020843560051b85010181101561835a576001600160401b038135111561825e575f80fd5b8035840160a0818b03601f19011215618275575f80fd5b61827d6176bb565b602082810135825260408084013591830191909152606080840135918301919091526080830135908201526001600160401b0360a083013511156182bf575f80fd5b602060a083013583010191508a601f8301126182d9575f80fd5b6182e66177c98335617a09565b82358082526020808301929160051b8501018d811115618304575f80fd5b602085015b81811015618343576001600160401b0381351115618325575f80fd5b6183358f602083358901016177f7565b845260209384019301618309565b505060808301525084525060209283019201618239565b50945050506001600160401b0360208501351115618376575f80fd5b618386856020860135860161781c565b9150618395856040860161817e565b90509250925092565b5f80604083850312156183af575f80fd5b50508035926020909101359150565b5f815161012084526183d4610120850182617d1e565b9050602083015184820360208601526183ed8282617d1e565b915050604083015184820360408601526184078282617d1e565b915050606083015184820360608601526184218282617d1e565b9150506080830151848203608086015261843b8282617d1e565b91505060a083015184820360a08601526184558282617d1e565b91505060c083015184820360c086015261846f8282617d1e565b91505060e083015184820360e08601526184898282617d1e565b9150506101008301518482036101008601526184a58282617d1e565b95945050505050565b60208152815160208201526020820151604082015260018060a01b0360408301511660608201525f6060830151608080840152617fbe60a08401826183be565b5f602082840312156184fe575f80fd5b81356001600160401b03811115618513575f80fd5b617fbe84828501617a2b565b5f6020828403121561852f575f80fd5b81356001600160401b03811115618544575f80fd5b8201601f81018413618554575f80fd5b80356185626177c982617a09565b80828252602082019150602060608402850101925086831115618583575f80fd5b6020840193505b828410156185d457606084880312156185a1575f80fd5b6185a96176ff565b843581526020808601358183015260408087013590830152908352606090940193919091019061858a565b9695505050505050565b602080825282518282018190525f918401906040840190835b818110156186205761860a838551617c3f565b6020939093019260a092909201916001016185f7565b509095945050505050565b5f806040838503121561863c575f80fd5b82356001600160401b03811115618651575f80fd5b61865d85828601617a90565b95602094909401359450505050565b602081525f6178156020830184617d98565b634e487b7160e01b5f52602160045260245ffd5b60028110611a7d57634e487b7160e01b5f52602160045260245ffd5b805182526020810151602083015260408101516186ca81618692565b604083015260608101516186dd81618692565b806060840152505050565b60c081525f6186fa60c08301866183be565b6001600160a01b03851660208401529050617fbe60408301846186ae565b5f60a0828403128015618729575f80fd5b506187326176bb565b823581526020808401359082015260408084013590820152606080840135908201526080928301359281019290925250919050565b602081525f6178156020830184617ffd565b84815283602082015260018060a01b0383166040820152608060608201525f6185d460808301846183be565b602081525f6101008201835160e06020850152818151808452610120860191506101208160051b87010193506020830192505f5b8181101561888c5761011f19878603018352835160a08601815187526020820151602088015260408201516040880152606082015160608801526080820151915060a0608088015280825180835260c08901915060c08160051b8a010192506020840193505f5b818110156188725760bf198a850301835261885c848651617d1e565b6020958601959094509290920191600101618840565b5091975050506020948501949390930192506001016187d9565b505050506020840151838203601f190160408501526188ab82826183be565b91505060408401516188c06060850182617633565b50606084015161639460808501826186ae565b5f602082840312156188e3575f80fd5b81356001600160401b038111156188f8575f80fd5b8201601f81018413618908575f80fd5b80356189166177c982617a09565b8082825260208201915060208360061b850101925086831115618937575f80fd5b6020840193505b828410156185d45760408488031215618955575f80fd5b61895d617721565b8435815260208086013581830152908352604090940193919091019061893e565b634e487b7160e01b5f52601160045260245ffd5b5f600182016189a3576189a361897e565b5060010190565b600181811c908216806189be57607f821691505b60208210810361119d57634e487b7160e01b5f52602260045260245ffd5b601f821115618a2357805f5260205f20601f840160051c81016020851015618a015750805b601f840160051c820191505b81811015618a20575f8155600101618a0d565b50505b505050565b81516001600160401b03811115618a4157618a4161767e565b618a5581618a4f84546189aa565b846189dc565b6020601f821160018114618a87575f8315618a705750848201515b5f19600385901b1c1916600184901b178455618a20565b5f84815260208120601f198516915b82811015618ab65787850151825560209485019460019092019101618a96565b5084821015618ad357868401515f19600387901b60f8161c191681555b50505050600190811b01905550565b8c81528b6020820152618af8604082018c617633565b61018060608201525f618b0f61018083018c617d1e565b8281036080840152618b21818c617d1e565b905082810360a0840152618b35818b617d1e565b905082810360c0840152618b49818a617d1e565b905082810360e0840152618b5d8189617d1e565b9050828103610100840152618b728188617d1e565b9050828103610120840152618b878187617d1e565b9050828103610140840152618b9c8186617d1e565b9050828103610160840152618bb18185617d1e565b9f9e505050505050505050505050505050565b60208082526058908201525f8051602061959583398151915260408201527f223a20313030322c20226d657373616765223a22596f7520617265206e6f74206060820152776f776e6572206f66207468652073686172656c696e6b227d60401b608082015260a00190565b634e487b7160e01b5f52603260045260245ffd5b5f81518060208401855e5f93019283525090919050565b781ec8999c9bdb488e88089158dbdb53dc99195c8b9cdbdb088b603a1b81526701131b7b232911d160c51b60198201525f618c986021830185618c43565b61016160f51b81526b1136b2b9b9b0b3b2911d101160a11b6002820152618cc2600e820185618c43565b61227d60f01b815260020195945050505050565b5f60208284031215618ce6575f80fd5b5051919050565b5f618cfa6177c984617796565b9050828152838383011115618d0d575f80fd5b8282602083015e5f602084830101529392505050565b5f82601f830112618d32575f80fd5b61781583835160208501618ced565b5f82601f830112618d50575f80fd5b8151618d5e6177c982617a09565b8082825260208201915060208360051b860101925085831115618d7f575f80fd5b602085015b83811015617a86578051835260209283019201618d84565b5f82601f830112618dab575f80fd5b8151618db96177c982617a09565b8082825260208201915060208360051b860101925085831115618dda575f80fd5b602085015b83811015617a865780516001600160401b03811115618dfc575f80fd5b8601603f81018813618e0c575f80fd5b618e1e88602083015160408401618ced565b84525060209283019201618ddf565b8051618e3881617640565b919050565b80518015158114618e38575f80fd5b5f60208284031215618e5c575f80fd5b81516001600160401b03811115618e71575f80fd5b820160808185031215618e82575f80fd5b618e8a6176dd565b8151815260208201516001600160401b03811115618ea6575f80fd5b82016103008187031215618eb8575f80fd5b618ec0617743565b81516001600160401b03811115618ed5575f80fd5b618ee188828501618d23565b8252506020828101519082015260408201516001600160401b03811115618f06575f80fd5b618f1288828501618d23565b604083015250606082810151908201526080808301519082015260a0808301519082015260c0808301519082015260e08201516001600160401b03811115618f58575f80fd5b618f6488828501618d41565b60e0830152506101008201516001600160401b03811115618f83575f80fd5b618f8f88828501618d9c565b61010083015250610120828101519082015261014080830151908201526101608201516001600160401b03811115618fc5575f80fd5b618fd188828501618d9c565b61016083015250618fe56101808301618e2d565b6101808201526101a08201516001600160401b03811115619004575f80fd5b61901088828501618d23565b6101a0830152506101c08201516001600160401b03811115619030575f80fd5b61903c88828501618d23565b6101c0830152506190506101e08301618e3d565b6101e08201526102008201516001600160401b0381111561906f575f80fd5b61907b88828501618d9c565b610200830152506102208201516001600160401b0381111561909b575f80fd5b6190a788828501618d23565b610220830152506102408281015190820152610260808301519082015261028080830151908201526190dc6102a08301618e3d565b6102a08201526190ef6102c08301618e3d565b6102c08201526102e09182015191810191909152602082015260408281015190820152606091820151918101919091529392505050565b918252602082015260400190565b5f81830360c081128015619146575f80fd5b5061914f617721565b8351815260a0601f1983011215619164575f80fd5b61916c6176bb565b602085810151825260408087015182840152606080880151918401919091526080808801519184019190915260a0909601519582019590955293810193909352509092915050565b6001600160a01b03878116825260208201879052604082018690528416606082015260c081016191e384618692565b83608083015282151560a0830152979650505050505050565b60208082526047908201525f805160206194a083398151915260408201527f2035352c20226d657373616765223a2022596f7520617265206e6f7420616c6c6060820152666f7765642e227d60c81b608082015260a00190565b5f60208284031215619266575f80fd5b815161781581617640565b81810381811115610da357610da361897e565b634e487b7160e01b5f52603160045260245ffd5b606081525f6192aa6060830185617d1e565b905082516020830152602083015160408301529392505050565b5f60ff821660ff81036192d9576192d961897e565b60010192915050565b602080825282518282018190525f918401906040840190835b818110156186205783518352602093840193909201916001016192fb565b5f60208284031215619329575f80fd5b81516001600160401b0381111561933e575f80fd5b8201601f8101841361934e575f80fd5b805161935c6177c982617a09565b8082825260208201915060208360051b85010192508683111561937d575f80fd5b6020840193505b828410156185d457835161939781617640565b825260209384019390910190619384565b8381526001600160a01b03831660208083019190915260606040830181905283519083018190525f918401906080840190835b818110156194025783516001600160a01b03168352602093840193909201916001016193db565b5090979650505050505050565b80820180821115610da357610da361897e565b6001600160a01b039485168152602081019390935292166040820152901515606082015260800190565b5f6020828403121561945c575f80fd5b61781582618e3d565b8082028115828204841417610da357610da361897e56fe546869732070726f6475637420686173206e6f74206265656e20617070726f7665642e7b2266726f6d223a202245636f6d4f726465722e736f6c222c22636f6465223a496e76616c6964207061796d656e7420747970652c207061796d656e7420747970652073686f756c64206d65206d6574616e6f6465526571756573746564207175616e74697479206578636565647320617661696c61626c652073746f636b50726f6475637420616e642076617269616e7420616c72656164792065786973747320696e2063617274223a20313030332c20226d657373616765223a22496e76616c69642073686172496e73756666696369656e74207175616e7469747920617661696c61626c6520666f722070757263686173657b2266726f6d223a202245636f6d50726f647563742e736f6c222c22636f6465a2646970667358221220afea109ab386e2cf7ff388fc74409d0ce4006dc2b3818898985d769f813e2f2164736f6c634300081a0033",
			"opcodes": "PUSH1 0x80 PUSH1 0x40 MSTORE PUSH1 0x17 DUP1 SLOAD PUSH1 0x1 PUSH1 0x1 PUSH1 0xA0 SHL SUB NOT AND CALLER OR SWAP1 SSTORE PUSH2 0x95EA DUP1 PUSH2 0x23 PUSH0 CODECOPY PUSH0 RETURN INVALID PUSH1 0x80 PUSH1 0x40 MSTORE CALLVALUE DUP1 ISZERO PUSH2 0xF JUMPI PUSH0 DUP1 REVERT JUMPDEST POP PUSH1 0x4 CALLDATASIZE LT PUSH2 0x264 JUMPI PUSH0 CALLDATALOAD PUSH1 0xE0 SHR DUP1 PUSH3 0xE6AF7F EQ PUSH2 0x268 JUMPI DUP1 PUSH4 0x2B572D6 EQ PUSH2 0x2DF JUMPI DUP1 PUSH4 0x40F1D72 EQ PUSH2 0x300 JUMPI DUP1 PUSH4 0x8A53B21 EQ PUSH2 0x315 JUMPI DUP1 PUSH4 0x1FDA90A2 EQ PUSH2 0x338 JUMPI DUP1 PUSH4 0x2248632A EQ PUSH2 0x358 JUMPI DUP1 PUSH4 0x2D8206FE EQ PUSH2 0x378 JUMPI DUP1 PUSH4 0x2E2DC43E EQ PUSH2 0x464 JUMPI DUP1 PUSH4 0x30D51A32 EQ PUSH2 0x479 JUMPI DUP1 PUSH4 0x399CFA1E EQ PUSH2 0x48C JUMPI DUP1 PUSH4 0x44D80330 EQ PUSH2 0x4AC JUMPI DUP1 PUSH4 0x46E115C0 EQ PUSH2 0x4B4 JUMPI DUP1 PUSH4 0x4B5BA409 EQ PUSH2 0x4C9 JUMPI DUP1 PUSH4 0x4D5C5FD7 EQ PUSH2 0x4DC JUMPI DUP1 PUSH4 0x4E8781CD EQ PUSH2 0x4FC JUMPI DUP1 PUSH4 0x5A7F48F8 EQ PUSH2 0x50F JUMPI DUP1 PUSH4 0x62DE6230 EQ PUSH2 0x522 JUMPI DUP1 PUSH4 0x63C69F08 EQ PUSH2 0x535 JUMPI DUP1 PUSH4 0x664008F8 EQ PUSH2 0x548 JUMPI DUP1 PUSH4 0x76D6E7EF EQ PUSH2 0x567 JUMPI DUP1 PUSH4 0x7CE47345 EQ PUSH2 0x57A JUMPI DUP1 PUSH4 0x834F9ED3 EQ PUSH2 0x58D JUMPI DUP1 PUSH4 0x86CB0D92 EQ PUSH2 0x5AD JUMPI DUP1 PUSH4 0x8A8869E2 EQ PUSH2 0x5C0 JUMPI DUP1 PUSH4 0x8DA5CB5B EQ PUSH2 0x5D3 JUMPI DUP1 PUSH4 0x93C26229 EQ PUSH2 0x5E6 JUMPI DUP1 PUSH4 0x96E98874 EQ PUSH2 0x606 JUMPI DUP1 PUSH4 0x9A377A37 EQ PUSH2 0x652 JUMPI DUP1 PUSH4 0xA354F1B2 EQ PUSH2 0x665 JUMPI DUP1 PUSH4 0xA4E176EA EQ PUSH2 0x678 JUMPI DUP1 PUSH4 0xA559934E EQ PUSH2 0x68B JUMPI DUP1 PUSH4 0xA875588D EQ PUSH2 0x69E JUMPI DUP1 PUSH4 0xAB238F1F EQ PUSH2 0x6B1 JUMPI DUP1 PUSH4 0xB814F77B EQ PUSH2 0x6D1 JUMPI DUP1 PUSH4 0xBFBE3EF7 EQ PUSH2 0x6E4 JUMPI DUP1 PUSH4 0xC006E9A9 EQ PUSH2 0x703 JUMPI DUP1 PUSH4 0xC54E44EB EQ PUSH2 0x716 JUMPI DUP1 PUSH4 0xCAC0E650 EQ PUSH2 0x729 JUMPI DUP1 PUSH4 0xCF9796EC EQ PUSH2 0x73C JUMPI DUP1 PUSH4 0xCF991364 EQ PUSH2 0x75E JUMPI DUP1 PUSH4 0xD09EF241 EQ PUSH2 0x771 JUMPI DUP1 PUSH4 0xD71F8181 EQ PUSH2 0x784 JUMPI DUP1 PUSH4 0xDA31F88A EQ PUSH2 0x7A4 JUMPI DUP1 PUSH4 0xDDCD6408 EQ PUSH2 0x7C7 JUMPI DUP1 PUSH4 0xE217866C EQ PUSH2 0x7DA JUMPI DUP1 PUSH4 0xE5E00E93 EQ PUSH2 0x7FA JUMPI DUP1 PUSH4 0xE5FC4AC2 EQ PUSH2 0x80D JUMPI DUP1 PUSH4 0xEA68BA99 EQ PUSH2 0x820 JUMPI DUP1 PUSH4 0xF29155EF EQ PUSH2 0x833 JUMPI DUP1 PUSH4 0xF894196E EQ PUSH2 0x846 JUMPI DUP1 PUSH4 0xFB08E12E EQ PUSH2 0x859 JUMPI DUP1 PUSH4 0xFB7EF377 EQ PUSH2 0x878 JUMPI DUP1 PUSH4 0xFFAFE929 EQ PUSH2 0x88B JUMPI JUMPDEST PUSH0 DUP1 REVERT JUMPDEST PUSH2 0x2AC PUSH2 0x276 CALLDATASIZE PUSH1 0x4 PUSH2 0x761C JUMP JUMPDEST PUSH1 0x7 PUSH1 0x20 MSTORE PUSH0 SWAP1 DUP2 MSTORE PUSH1 0x40 SWAP1 KECCAK256 DUP1 SLOAD PUSH1 0x2 DUP3 ADD SLOAD PUSH1 0x3 SWAP1 SWAP3 ADD SLOAD SWAP1 SWAP2 PUSH1 0x1 PUSH1 0x1 PUSH1 0xA0 SHL SUB DUP2 AND SWAP2 PUSH1 0x1 PUSH1 0xA0 SHL SWAP1 SWAP2 DIV PUSH1 0xFF AND SWAP1 DUP5 JUMP JUMPDEST PUSH1 0x40 DUP1 MLOAD SWAP5 DUP6 MSTORE PUSH1 0x1 PUSH1 0x1 PUSH1 0xA0 SHL SUB SWAP1 SWAP4 AND PUSH1 0x20 DUP6 ADD MSTORE SWAP1 ISZERO ISZERO SWAP2 DUP4 ADD SWAP2 SWAP1 SWAP2 MSTORE PUSH1 0x60 DUP3 ADD MSTORE PUSH1 0x80 ADD JUMPDEST PUSH1 0x40 MLOAD DUP1 SWAP2 SUB SWAP1 RETURN JUMPDEST PUSH2 0x2F2 PUSH2 0x2ED CALLDATASIZE PUSH1 0x4 PUSH2 0x7654 JUMP JUMPDEST PUSH2 0x89E JUMP JUMPDEST PUSH1 0x40 MLOAD SWAP1 DUP2 MSTORE PUSH1 0x20 ADD PUSH2 0x2D6 JUMP JUMPDEST PUSH2 0x313 PUSH2 0x30E CALLDATASIZE PUSH1 0x4 PUSH2 0x79B3 JUMP JUMPDEST PUSH2 0x8C9 JUMP JUMPDEST STOP JUMPDEST PUSH2 0x328 PUSH2 0x323 CALLDATASIZE PUSH1 0x4 PUSH2 0x7BD8 JUMP JUMPDEST PUSH2 0xAE3 JUMP JUMPDEST PUSH1 0x40 MLOAD SWAP1 ISZERO ISZERO DUP2 MSTORE PUSH1 0x20 ADD PUSH2 0x2D6 JUMP JUMPDEST PUSH2 0x34B PUSH2 0x346 CALLDATASIZE PUSH1 0x4 PUSH2 0x7C24 JUMP JUMPDEST PUSH2 0xCA3 JUMP JUMPDEST PUSH1 0x40 MLOAD PUSH2 0x2D6 SWAP2 SWAP1 PUSH2 0x7C6F JUMP JUMPDEST PUSH2 0x36B PUSH2 0x366 CALLDATASIZE PUSH1 0x4 PUSH2 0x7CDB JUMP JUMPDEST PUSH2 0xD6F JUMP JUMPDEST PUSH1 0x40 MLOAD PUSH2 0x2D6 SWAP2 SWAP1 PUSH2 0x7D4C JUMP JUMPDEST PUSH2 0x3F3 PUSH2 0x386 CALLDATASIZE PUSH1 0x4 PUSH2 0x761C JUMP JUMPDEST PUSH1 0x1 PUSH1 0x20 DUP2 SWAP1 MSTORE PUSH0 SWAP2 DUP3 MSTORE PUSH1 0x40 SWAP1 SWAP2 KECCAK256 DUP1 SLOAD SWAP2 DUP2 ADD SLOAD PUSH1 0x2 DUP3 ADD SLOAD PUSH1 0x3 DUP4 ADD SLOAD PUSH1 0xB DUP5 ADD SLOAD PUSH1 0xC DUP6 ADD SLOAD PUSH1 0xD DUP7 ADD SLOAD PUSH1 0xE DUP8 ADD SLOAD PUSH1 0xF DUP9 ADD SLOAD PUSH1 0x10 DUP10 ADD SLOAD PUSH1 0x11 SWAP1 SWAP10 ADD SLOAD PUSH1 0x1 PUSH1 0x1 PUSH1 0xA0 SHL SUB SWAP9 DUP10 AND SWAP10 SWAP8 SWAP1 SWAP9 AND SWAP8 SWAP6 SWAP7 SWAP5 SWAP6 PUSH1 0xFF DUP1 DUP7 AND SWAP7 PUSH2 0x100 SWAP1 SWAP7 DIV DUP2 AND SWAP6 AND SWAP1 DUP13 JUMP JUMPDEST PUSH1 0x40 DUP1 MLOAD SWAP13 DUP14 MSTORE PUSH1 0x1 PUSH1 0x1 PUSH1 0xA0 SHL SUB SWAP12 DUP13 AND PUSH1 0x20 DUP15 ADD MSTORE SWAP10 SWAP1 SWAP11 AND SWAP9 DUP12 ADD SWAP9 SWAP1 SWAP9 MSTORE PUSH1 0x60 DUP11 ADD SWAP7 SWAP1 SWAP7 MSTORE PUSH1 0x80 DUP10 ADD SWAP5 SWAP1 SWAP5 MSTORE PUSH1 0xFF SWAP3 DUP4 AND PUSH1 0xA0 DUP10 ADD MSTORE SWAP1 DUP3 AND PUSH1 0xC0 DUP9 ADD MSTORE PUSH1 0xE0 DUP8 ADD MSTORE PUSH2 0x100 DUP7 ADD SWAP2 SWAP1 SWAP2 MSTORE PUSH2 0x120 DUP6 ADD SWAP2 SWAP1 SWAP2 MSTORE AND PUSH2 0x140 DUP4 ADD MSTORE PUSH2 0x160 DUP3 ADD MSTORE PUSH2 0x180 ADD PUSH2 0x2D6 JUMP JUMPDEST PUSH2 0x46C PUSH2 0xDA9 JUMP JUMPDEST PUSH1 0x40 MLOAD PUSH2 0x2D6 SWAP2 SWAP1 PUSH2 0x7F17 JUMP JUMPDEST PUSH2 0x328 PUSH2 0x487 CALLDATASIZE PUSH1 0x4 PUSH2 0x7F7A JUMP JUMPDEST PUSH2 0x1154 JUMP JUMPDEST PUSH2 0x49F PUSH2 0x49A CALLDATASIZE PUSH1 0x4 PUSH2 0x7FC6 JUMP JUMPDEST PUSH2 0x11A3 JUMP JUMPDEST PUSH1 0x40 MLOAD PUSH2 0x2D6 SWAP2 SWAP1 PUSH2 0x7FEF JUMP JUMPDEST PUSH2 0x34B PUSH2 0x167C JUMP JUMPDEST PUSH2 0x4BC PUSH2 0x1745 JUMP JUMPDEST PUSH1 0x40 MLOAD PUSH2 0x2D6 SWAP2 SWAP1 PUSH2 0x8107 JUMP JUMPDEST PUSH2 0x328 PUSH2 0x4D7 CALLDATASIZE PUSH1 0x4 PUSH2 0x7C24 JUMP JUMPDEST PUSH2 0x1A1F JUMP JUMPDEST PUSH1 0x13 SLOAD PUSH2 0x4EF SWAP1 PUSH1 0x1 PUSH1 0x1 PUSH1 0xA0 SHL SUB AND DUP2 JUMP JUMPDEST PUSH1 0x40 MLOAD PUSH2 0x2D6 SWAP2 SWAP1 PUSH2 0x815E JUMP JUMPDEST PUSH2 0x313 PUSH2 0x50A CALLDATASIZE PUSH1 0x4 PUSH2 0x761C JUMP JUMPDEST PUSH2 0x1A73 JUMP JUMPDEST PUSH2 0x2F2 PUSH2 0x51D CALLDATASIZE PUSH1 0x4 PUSH2 0x7654 JUMP JUMPDEST PUSH2 0x1A80 JUMP JUMPDEST PUSH2 0x328 PUSH2 0x530 CALLDATASIZE PUSH1 0x4 PUSH2 0x7C24 JUMP JUMPDEST PUSH2 0x1A99 JUMP JUMPDEST PUSH2 0x46C PUSH2 0x543 CALLDATASIZE PUSH1 0x4 PUSH2 0x7C24 JUMP JUMPDEST PUSH2 0x1AED JUMP JUMPDEST PUSH2 0x2F2 PUSH2 0x556 CALLDATASIZE PUSH1 0x4 PUSH2 0x7C24 JUMP JUMPDEST PUSH1 0x4 PUSH1 0x20 MSTORE PUSH0 SWAP1 DUP2 MSTORE PUSH1 0x40 SWAP1 KECCAK256 SLOAD DUP2 JUMP JUMPDEST PUSH2 0x2F2 PUSH2 0x575 CALLDATASIZE PUSH1 0x4 PUSH2 0x81D2 JUMP JUMPDEST PUSH2 0x1EF7 JUMP JUMPDEST PUSH2 0x49F PUSH2 0x588 CALLDATASIZE PUSH1 0x4 PUSH2 0x839E JUMP JUMPDEST PUSH2 0x2555 JUMP JUMPDEST PUSH2 0x5A0 PUSH2 0x59B CALLDATASIZE PUSH1 0x4 PUSH2 0x761C JUMP JUMPDEST PUSH2 0x286B JUMP JUMPDEST PUSH1 0x40 MLOAD PUSH2 0x2D6 SWAP2 SWAP1 PUSH2 0x84AE JUMP JUMPDEST PUSH2 0x328 PUSH2 0x5BB CALLDATASIZE PUSH1 0x4 PUSH2 0x84EE JUMP JUMPDEST PUSH2 0x2DEA JUMP JUMPDEST PUSH2 0x328 PUSH2 0x5CE CALLDATASIZE PUSH1 0x4 PUSH2 0x7C24 JUMP JUMPDEST PUSH2 0x2E2A JUMP JUMPDEST PUSH1 0x17 SLOAD PUSH2 0x4EF SWAP1 PUSH1 0x1 PUSH1 0x1 PUSH1 0xA0 SHL SUB AND DUP2 JUMP JUMPDEST PUSH2 0x5F9 PUSH2 0x5F4 CALLDATASIZE PUSH1 0x4 PUSH2 0x851F JUMP JUMPDEST PUSH2 0x2E7E JUMP JUMPDEST PUSH1 0x40 MLOAD PUSH2 0x2D6 SWAP2 SWAP1 PUSH2 0x85DE JUMP JUMPDEST PUSH2 0x635 PUSH2 0x614 CALLDATASIZE PUSH1 0x4 PUSH2 0x7C24 JUMP JUMPDEST PUSH0 PUSH1 0x20 DUP2 SWAP1 MSTORE SWAP1 DUP2 MSTORE PUSH1 0x40 SWAP1 KECCAK256 DUP1 SLOAD PUSH1 0x1 SWAP1 SWAP2 ADD SLOAD PUSH1 0x1 PUSH1 0x1 PUSH1 0xA0 SHL SUB AND DUP3 JUMP JUMPDEST PUSH1 0x40 DUP1 MLOAD SWAP3 DUP4 MSTORE PUSH1 0x1 PUSH1 0x1 PUSH1 0xA0 SHL SUB SWAP1 SWAP2 AND PUSH1 0x20 DUP4 ADD MSTORE ADD PUSH2 0x2D6 JUMP JUMPDEST PUSH2 0x328 PUSH2 0x660 CALLDATASIZE PUSH1 0x4 PUSH2 0x7C24 JUMP JUMPDEST PUSH2 0x2F6E JUMP JUMPDEST PUSH1 0x12 SLOAD PUSH2 0x4EF SWAP1 PUSH1 0x1 PUSH1 0x1 PUSH1 0xA0 SHL SUB AND DUP2 JUMP JUMPDEST PUSH2 0x328 PUSH2 0x686 CALLDATASIZE PUSH1 0x4 PUSH2 0x84EE JUMP JUMPDEST PUSH2 0x2FC2 JUMP JUMPDEST PUSH2 0x328 PUSH2 0x699 CALLDATASIZE PUSH1 0x4 PUSH2 0x7C24 JUMP JUMPDEST PUSH2 0x2FF9 JUMP JUMPDEST PUSH2 0x2F2 PUSH2 0x6AC CALLDATASIZE PUSH1 0x4 PUSH2 0x862B JUMP JUMPDEST PUSH2 0x304D JUMP JUMPDEST PUSH2 0x6C4 PUSH2 0x6BF CALLDATASIZE PUSH1 0x4 PUSH2 0x761C JUMP JUMPDEST PUSH2 0x3202 JUMP JUMPDEST PUSH1 0x40 MLOAD PUSH2 0x2D6 SWAP2 SWAP1 PUSH2 0x866C JUMP JUMPDEST PUSH1 0x14 SLOAD PUSH2 0x4EF SWAP1 PUSH1 0x1 PUSH1 0x1 PUSH1 0xA0 SHL SUB AND DUP2 JUMP JUMPDEST PUSH2 0x2F2 PUSH2 0x6F2 CALLDATASIZE PUSH1 0x4 PUSH2 0x761C JUMP JUMPDEST PUSH1 0xA PUSH1 0x20 MSTORE PUSH0 SWAP1 DUP2 MSTORE PUSH1 0x40 SWAP1 KECCAK256 SLOAD DUP2 JUMP JUMPDEST PUSH2 0x328 PUSH2 0x711 CALLDATASIZE PUSH1 0x4 PUSH2 0x761C JUMP JUMPDEST PUSH2 0x3515 JUMP JUMPDEST PUSH1 0x16 SLOAD PUSH2 0x4EF SWAP1 PUSH1 0x1 PUSH1 0x1 PUSH1 0xA0 SHL SUB AND DUP2 JUMP JUMPDEST PUSH2 0x328 PUSH2 0x737 CALLDATASIZE PUSH1 0x4 PUSH2 0x7C24 JUMP JUMPDEST PUSH2 0x36F8 JUMP JUMPDEST PUSH2 0x74F PUSH2 0x74A CALLDATASIZE PUSH1 0x4 PUSH2 0x761C JUMP JUMPDEST PUSH2 0x374C JUMP JUMPDEST PUSH1 0x40 MLOAD PUSH2 0x2D6 SWAP4 SWAP3 SWAP2 SWAP1 PUSH2 0x86E8 JUMP JUMPDEST PUSH2 0x313 PUSH2 0x76C CALLDATASIZE PUSH1 0x4 PUSH2 0x8718 JUMP JUMPDEST PUSH2 0x3D1F JUMP JUMPDEST PUSH2 0x6C4 PUSH2 0x77F CALLDATASIZE PUSH1 0x4 PUSH2 0x761C JUMP JUMPDEST PUSH2 0x3DAA JUMP JUMPDEST PUSH2 0x797 PUSH2 0x792 CALLDATASIZE PUSH1 0x4 PUSH2 0x761C JUMP JUMPDEST PUSH2 0x40AD JUMP JUMPDEST PUSH1 0x40 MLOAD PUSH2 0x2D6 SWAP2 SWAP1 PUSH2 0x8767 JUMP JUMPDEST PUSH2 0x7B7 PUSH2 0x7B2 CALLDATASIZE PUSH1 0x4 PUSH2 0x761C JUMP JUMPDEST PUSH2 0x42CD JUMP JUMPDEST PUSH1 0x40 MLOAD PUSH2 0x2D6 SWAP5 SWAP4 SWAP3 SWAP2 SWAP1 PUSH2 0x8779 JUMP JUMPDEST PUSH2 0x328 PUSH2 0x7D5 CALLDATASIZE PUSH1 0x4 PUSH2 0x7C24 JUMP JUMPDEST PUSH2 0x481D JUMP JUMPDEST PUSH2 0x7ED PUSH2 0x7E8 CALLDATASIZE PUSH1 0x4 PUSH2 0x761C JUMP JUMPDEST PUSH2 0x4871 JUMP JUMPDEST PUSH1 0x40 MLOAD PUSH2 0x2D6 SWAP2 SWAP1 PUSH2 0x87A5 JUMP JUMPDEST PUSH2 0x4BC PUSH2 0x808 CALLDATASIZE PUSH1 0x4 PUSH2 0x7C24 JUMP JUMPDEST PUSH2 0x4FB2 JUMP JUMPDEST PUSH1 0x15 SLOAD PUSH2 0x4EF SWAP1 PUSH1 0x1 PUSH1 0x1 PUSH1 0xA0 SHL SUB AND DUP2 JUMP JUMPDEST PUSH2 0x2F2 PUSH2 0x82E CALLDATASIZE PUSH1 0x4 PUSH2 0x7654 JUMP JUMPDEST PUSH2 0x529F JUMP JUMPDEST PUSH1 0x18 SLOAD PUSH2 0x4EF SWAP1 PUSH1 0x1 PUSH1 0x1 PUSH1 0xA0 SHL SUB AND DUP2 JUMP JUMPDEST PUSH2 0x313 PUSH2 0x854 CALLDATASIZE PUSH1 0x4 PUSH2 0x761C JUMP JUMPDEST PUSH2 0x52B8 JUMP JUMPDEST PUSH2 0x2F2 PUSH2 0x867 CALLDATASIZE PUSH1 0x4 PUSH2 0x761C JUMP JUMPDEST PUSH0 SWAP1 DUP2 MSTORE PUSH1 0x5 PUSH1 0x20 MSTORE PUSH1 0x40 SWAP1 KECCAK256 SLOAD SWAP1 JUMP JUMPDEST PUSH1 0x19 SLOAD PUSH2 0x4EF SWAP1 PUSH1 0x1 PUSH1 0x1 PUSH1 0xA0 SHL SUB AND DUP2 JUMP JUMPDEST PUSH2 0x5F9 PUSH2 0x899 CALLDATASIZE PUSH1 0x4 PUSH2 0x88D3 JUMP JUMPDEST PUSH2 0x5CA6 JUMP JUMPDEST PUSH1 0xB PUSH1 0x20 MSTORE DUP2 PUSH0 MSTORE PUSH1 0x40 PUSH0 KECCAK256 DUP2 DUP2 SLOAD DUP2 LT PUSH2 0x8B7 JUMPI PUSH0 DUP1 REVERT JUMPDEST SWAP1 PUSH0 MSTORE PUSH1 0x20 PUSH0 KECCAK256 ADD PUSH0 SWAP2 POP SWAP2 POP POP SLOAD DUP2 JUMP JUMPDEST PUSH1 0xD DUP1 SLOAD SWAP1 PUSH0 PUSH2 0x8D8 DUP4 PUSH2 0x8992 JUMP JUMPDEST SWAP1 SWAP2 SSTORE POP POP PUSH1 0x40 DUP1 MLOAD PUSH1 0x80 DUP2 ADD DUP3 MSTORE PUSH1 0xD SLOAD DUP1 DUP3 MSTORE PUSH1 0x20 DUP1 DUP4 ADD DUP7 DUP2 MSTORE PUSH1 0x1 PUSH1 0x1 PUSH1 0xA0 SHL SUB DUP7 DUP2 AND DUP6 DUP8 ADD SWAP1 DUP2 MSTORE PUSH1 0x60 DUP7 ADD DUP11 DUP2 MSTORE PUSH0 SWAP6 DUP7 MSTORE PUSH1 0x9 SWAP1 SWAP5 MSTORE SWAP6 SWAP1 SWAP4 KECCAK256 DUP5 MLOAD DUP2 SSTORE SWAP1 MLOAD PUSH1 0x1 DUP3 ADD SSTORE SWAP4 MLOAD PUSH1 0x2 DUP6 ADD DUP1 SLOAD PUSH1 0x1 PUSH1 0x1 PUSH1 0xA0 SHL SUB NOT AND SWAP2 SWAP1 SWAP4 AND OR SWAP1 SWAP2 SSTORE MLOAD DUP1 MLOAD SWAP2 SWAP3 DUP4 SWAP3 SWAP1 SWAP2 SWAP1 PUSH1 0x3 DUP4 ADD SWAP1 DUP2 SWAP1 PUSH2 0x95A SWAP1 DUP3 PUSH2 0x8A28 JUMP JUMPDEST POP PUSH1 0x20 DUP3 ADD MLOAD PUSH1 0x1 DUP3 ADD SWAP1 PUSH2 0x96F SWAP1 DUP3 PUSH2 0x8A28 JUMP JUMPDEST POP PUSH1 0x40 DUP3 ADD MLOAD PUSH1 0x2 DUP3 ADD SWAP1 PUSH2 0x984 SWAP1 DUP3 PUSH2 0x8A28 JUMP JUMPDEST POP PUSH1 0x60 DUP3 ADD MLOAD PUSH1 0x3 DUP3 ADD SWAP1 PUSH2 0x999 SWAP1 DUP3 PUSH2 0x8A28 JUMP JUMPDEST POP PUSH1 0x80 DUP3 ADD MLOAD PUSH1 0x4 DUP3 ADD SWAP1 PUSH2 0x9AE SWAP1 DUP3 PUSH2 0x8A28 JUMP JUMPDEST POP PUSH1 0xA0 DUP3 ADD MLOAD PUSH1 0x5 DUP3 ADD SWAP1 PUSH2 0x9C3 SWAP1 DUP3 PUSH2 0x8A28 JUMP JUMPDEST POP PUSH1 0xC0 DUP3 ADD MLOAD PUSH1 0x6 DUP3 ADD SWAP1 PUSH2 0x9D8 SWAP1 DUP3 PUSH2 0x8A28 JUMP JUMPDEST POP PUSH1 0xE0 DUP3 ADD MLOAD PUSH1 0x7 DUP3 ADD SWAP1 PUSH2 0x9ED SWAP1 DUP3 PUSH2 0x8A28 JUMP JUMPDEST POP PUSH2 0x100 DUP3 ADD MLOAD PUSH1 0x8 DUP3 ADD SWAP1 PUSH2 0xA03 SWAP1 DUP3 PUSH2 0x8A28 JUMP JUMPDEST POP POP POP SWAP1 POP POP PUSH1 0xD SLOAD PUSH1 0xA PUSH0 DUP6 DUP2 MSTORE PUSH1 0x20 ADD SWAP1 DUP2 MSTORE PUSH1 0x20 ADD PUSH0 KECCAK256 DUP2 SWAP1 SSTORE POP PUSH1 0xB PUSH0 DUP4 PUSH1 0x1 PUSH1 0x1 PUSH1 0xA0 SHL SUB AND PUSH1 0x1 PUSH1 0x1 PUSH1 0xA0 SHL SUB AND DUP2 MSTORE PUSH1 0x20 ADD SWAP1 DUP2 MSTORE PUSH1 0x20 ADD PUSH0 KECCAK256 PUSH1 0xD SLOAD SWAP1 DUP1 PUSH1 0x1 DUP2 SLOAD ADD DUP1 DUP3 SSTORE DUP1 SWAP2 POP POP PUSH1 0x1 SWAP1 SUB SWAP1 PUSH0 MSTORE PUSH1 0x20 PUSH0 KECCAK256 ADD PUSH0 SWAP1 SWAP2 SWAP1 SWAP2 SWAP1 SWAP2 POP SSTORE PUSH32 0x6CBE635891BAD406EDFDA1CD61005929DB6C504109C59B9AFE10F74944DE95CB PUSH1 0xD SLOAD DUP5 DUP5 DUP8 PUSH0 ADD MLOAD DUP9 PUSH1 0x20 ADD MLOAD DUP10 PUSH1 0x40 ADD MLOAD DUP11 PUSH1 0x60 ADD MLOAD DUP12 PUSH1 0x80 ADD MLOAD DUP13 PUSH1 0xA0 ADD MLOAD DUP14 PUSH1 0xC0 ADD MLOAD DUP15 PUSH1 0xE0 ADD MLOAD DUP16 PUSH2 0x100 ADD MLOAD PUSH1 0x40 MLOAD PUSH2 0xAD5 SWAP13 SWAP12 SWAP11 SWAP10 SWAP9 SWAP8 SWAP7 SWAP6 SWAP5 SWAP4 SWAP3 SWAP2 SWAP1 PUSH2 0x8AE2 JUMP JUMPDEST PUSH1 0x40 MLOAD DUP1 SWAP2 SUB SWAP1 LOG1 POP POP POP POP JUMP JUMPDEST PUSH0 DUP4 DUP2 MSTORE PUSH1 0x7 PUSH1 0x20 MSTORE PUSH1 0x40 DUP2 KECCAK256 PUSH1 0x2 DUP2 ADD SLOAD PUSH1 0x1 PUSH1 0x1 PUSH1 0xA0 SHL SUB AND CALLER EQ PUSH2 0xB25 JUMPI PUSH1 0x40 MLOAD PUSH3 0x461BCD PUSH1 0xE5 SHL DUP2 MSTORE PUSH1 0x4 ADD PUSH2 0xB1C SWAP1 PUSH2 0x8BC4 JUMP JUMPDEST PUSH1 0x40 MLOAD DUP1 SWAP2 SUB SWAP1 REVERT JUMPDEST DUP1 SLOAD ISZERO DUP1 ISZERO SWAP1 PUSH2 0xB41 JUMPI POP PUSH1 0x2 DUP2 ADD SLOAD PUSH1 0x1 PUSH1 0xA0 SHL SWAP1 DIV PUSH1 0xFF AND ISZERO JUMPDEST PUSH2 0xBB1 JUMPI PUSH1 0x40 MLOAD PUSH3 0x461BCD PUSH1 0xE5 SHL DUP2 MSTORE PUSH1 0x20 PUSH1 0x4 DUP3 ADD MSTORE PUSH1 0x5B PUSH1 0x24 DUP3 ADD MSTORE PUSH0 DUP1 MLOAD PUSH1 0x20 PUSH2 0x9595 DUP4 CODECOPY DUP2 MLOAD SWAP2 MSTORE PUSH1 0x44 DUP3 ADD MSTORE PUSH0 DUP1 MLOAD PUSH1 0x20 PUSH2 0x9549 DUP4 CODECOPY DUP2 MLOAD SWAP2 MSTORE PUSH1 0x64 DUP3 ADD MSTORE PUSH27 0x656C696E6B206F7220616C7265616479206578656375746564227D PUSH1 0x28 SHL PUSH1 0x84 DUP3 ADD MSTORE PUSH1 0xA4 ADD PUSH2 0xB1C JUMP JUMPDEST PUSH2 0xBBA DUP2 PUSH2 0x5D71 JUMP JUMPDEST POP PUSH2 0xBC8 PUSH1 0x1 DUP3 ADD PUSH0 PUSH2 0x7346 JUMP JUMPDEST PUSH2 0xBD1 DUP5 PUSH2 0x5EDD JUMP JUMPDEST POP PUSH0 JUMPDEST DUP5 MLOAD DUP2 LT ISZERO PUSH2 0xC92 JUMPI DUP2 PUSH1 0x1 ADD DUP6 DUP3 DUP2 MLOAD DUP2 LT PUSH2 0xBF3 JUMPI PUSH2 0xBF3 PUSH2 0x8C2F JUMP JUMPDEST PUSH1 0x20 SWAP1 DUP2 MUL SWAP2 SWAP1 SWAP2 ADD DUP2 ADD MLOAD DUP3 SLOAD PUSH1 0x1 DUP2 ADD DUP5 SSTORE PUSH0 SWAP4 DUP5 MSTORE SWAP3 DUP3 SWAP1 KECCAK256 DUP2 MLOAD DUP1 MLOAD SWAP3 SWAP5 PUSH1 0x5 MUL SWAP1 SWAP2 ADD SWAP3 PUSH2 0xC2B SWAP3 DUP5 SWAP3 SWAP1 SWAP2 ADD SWAP1 PUSH2 0x7364 JUMP JUMPDEST POP PUSH1 0x20 DUP3 DUP2 ADD MLOAD DUP1 MLOAD PUSH2 0xC44 SWAP3 PUSH1 0x1 DUP6 ADD SWAP3 ADD SWAP1 PUSH2 0x7364 JUMP JUMPDEST POP PUSH1 0x40 DUP3 ADD MLOAD DUP1 MLOAD PUSH2 0xC60 SWAP2 PUSH1 0x2 DUP5 ADD SWAP2 PUSH1 0x20 SWAP1 SWAP2 ADD SWAP1 PUSH2 0x7364 JUMP JUMPDEST POP PUSH1 0x60 DUP3 ADD MLOAD DUP1 MLOAD PUSH2 0xC7C SWAP2 PUSH1 0x3 DUP5 ADD SWAP2 PUSH1 0x20 SWAP1 SWAP2 ADD SWAP1 PUSH2 0x7364 JUMP JUMPDEST POP PUSH1 0x80 SWAP2 SWAP1 SWAP2 ADD MLOAD PUSH1 0x4 SWAP1 SWAP2 ADD SSTORE PUSH1 0x1 ADD PUSH2 0xBD4 JUMP JUMPDEST POP PUSH1 0x3 ADD DUP3 SWAP1 SSTORE POP PUSH1 0x1 SWAP4 SWAP3 POP POP POP JUMP JUMPDEST PUSH2 0xCAB PUSH2 0x73A9 JUMP JUMPDEST PUSH1 0x1 PUSH1 0x1 PUSH1 0xA0 SHL SUB DUP1 DUP4 AND PUSH0 SWAP1 DUP2 MSTORE PUSH1 0x20 DUP2 DUP2 MSTORE PUSH1 0x40 DUP1 DUP4 KECCAK256 DUP2 MLOAD PUSH1 0x60 DUP2 ADD DUP4 MSTORE DUP2 SLOAD DUP2 MSTORE PUSH1 0x1 DUP3 ADD SLOAD SWAP1 SWAP6 AND DUP6 DUP5 ADD MSTORE PUSH1 0x2 DUP2 ADD DUP1 SLOAD DUP4 MLOAD DUP2 DUP7 MUL DUP2 ADD DUP7 ADD DUP6 MSTORE DUP2 DUP2 MSTORE SWAP3 SWAP6 SWAP4 DUP8 ADD SWAP5 SWAP3 SWAP4 SWAP2 SWAP3 SWAP1 SWAP2 SWAP1 DUP5 ADD JUMPDEST DUP3 DUP3 LT ISZERO PUSH2 0xD61 JUMPI DUP4 DUP3 SWAP1 PUSH0 MSTORE PUSH1 0x20 PUSH0 KECCAK256 SWAP1 PUSH1 0x5 MUL ADD PUSH1 0x40 MLOAD DUP1 PUSH1 0xA0 ADD PUSH1 0x40 MSTORE SWAP1 DUP2 PUSH0 DUP3 ADD SLOAD DUP2 MSTORE PUSH1 0x20 ADD PUSH1 0x1 DUP3 ADD SLOAD DUP2 MSTORE PUSH1 0x20 ADD PUSH1 0x2 DUP3 ADD SLOAD DUP2 MSTORE PUSH1 0x20 ADD PUSH1 0x3 DUP3 ADD SLOAD DUP2 MSTORE PUSH1 0x20 ADD PUSH1 0x4 DUP3 ADD SLOAD DUP2 MSTORE POP POP DUP2 MSTORE PUSH1 0x20 ADD SWAP1 PUSH1 0x1 ADD SWAP1 PUSH2 0xD00 JUMP JUMPDEST POP POP POP SWAP2 MSTORE POP SWAP1 SWAP4 SWAP3 POP POP POP JUMP JUMPDEST PUSH1 0x60 PUSH0 PUSH2 0xD7B DUP5 PUSH2 0x630C JUMP JUMPDEST SWAP1 POP DUP1 DUP4 PUSH1 0x40 MLOAD PUSH1 0x20 ADD PUSH2 0xD90 SWAP3 SWAP2 SWAP1 PUSH2 0x8C5A JUMP JUMPDEST PUSH1 0x40 MLOAD PUSH1 0x20 DUP2 DUP4 SUB SUB DUP2 MSTORE SWAP1 PUSH1 0x40 MSTORE SWAP2 POP POP JUMPDEST SWAP3 SWAP2 POP POP JUMP JUMPDEST PUSH1 0x3 SLOAD PUSH1 0x60 SWAP1 PUSH1 0x1 PUSH1 0x1 PUSH1 0x40 SHL SUB DUP2 GT ISZERO PUSH2 0xDC6 JUMPI PUSH2 0xDC6 PUSH2 0x767E JUMP JUMPDEST PUSH1 0x40 MLOAD SWAP1 DUP1 DUP3 MSTORE DUP1 PUSH1 0x20 MUL PUSH1 0x20 ADD DUP3 ADD PUSH1 0x40 MSTORE DUP1 ISZERO PUSH2 0xDFF JUMPI DUP2 PUSH1 0x20 ADD JUMPDEST PUSH2 0xDEC PUSH2 0x73D1 JUMP JUMPDEST DUP2 MSTORE PUSH1 0x20 ADD SWAP1 PUSH1 0x1 SWAP1 SUB SWAP1 DUP2 PUSH2 0xDE4 JUMPI SWAP1 POP JUMPDEST POP SWAP1 POP PUSH0 JUMPDEST PUSH1 0x3 SLOAD DUP2 LT ISZERO PUSH2 0x1150 JUMPI PUSH1 0x1 PUSH0 PUSH1 0x3 DUP4 DUP2 SLOAD DUP2 LT PUSH2 0xE24 JUMPI PUSH2 0xE24 PUSH2 0x8C2F JUMP JUMPDEST PUSH0 SWAP2 DUP3 MSTORE PUSH1 0x20 DUP1 DUP4 KECCAK256 SWAP1 SWAP2 ADD SLOAD DUP4 MSTORE DUP3 DUP2 ADD SWAP4 SWAP1 SWAP4 MSTORE PUSH1 0x40 SWAP2 DUP3 ADD SWAP1 KECCAK256 DUP2 MLOAD PUSH2 0x260 DUP2 ADD DUP4 MSTORE DUP2 SLOAD DUP2 MSTORE PUSH1 0x1 DUP3 ADD SLOAD PUSH1 0x1 PUSH1 0x1 PUSH1 0xA0 SHL SUB SWAP1 DUP2 AND DUP3 DUP7 ADD MSTORE PUSH1 0x2 DUP4 ADD SLOAD AND DUP2 DUP5 ADD MSTORE PUSH1 0x3 DUP3 ADD SLOAD PUSH1 0x60 DUP3 ADD MSTORE PUSH1 0x4 DUP3 ADD DUP1 SLOAD DUP5 MLOAD DUP2 DUP8 MUL DUP2 ADD DUP8 ADD SWAP1 SWAP6 MSTORE DUP1 DUP6 MSTORE SWAP2 SWAP5 SWAP3 SWAP4 PUSH1 0x80 DUP7 ADD SWAP4 SWAP1 SWAP3 SWAP1 DUP4 ADD DUP3 DUP3 DUP1 ISZERO PUSH2 0xEC4 JUMPI PUSH1 0x20 MUL DUP3 ADD SWAP2 SWAP1 PUSH0 MSTORE PUSH1 0x20 PUSH0 KECCAK256 SWAP1 JUMPDEST DUP2 SLOAD DUP2 MSTORE PUSH1 0x20 ADD SWAP1 PUSH1 0x1 ADD SWAP1 DUP1 DUP4 GT PUSH2 0xEB0 JUMPI JUMPDEST POP POP POP POP POP DUP2 MSTORE PUSH1 0x20 ADD PUSH1 0x5 DUP3 ADD DUP1 SLOAD DUP1 PUSH1 0x20 MUL PUSH1 0x20 ADD PUSH1 0x40 MLOAD SWAP1 DUP2 ADD PUSH1 0x40 MSTORE DUP1 SWAP3 SWAP2 SWAP1 DUP2 DUP2 MSTORE PUSH1 0x20 ADD DUP3 DUP1 SLOAD DUP1 ISZERO PUSH2 0xF1A JUMPI PUSH1 0x20 MUL DUP3 ADD SWAP2 SWAP1 PUSH0 MSTORE PUSH1 0x20 PUSH0 KECCAK256 SWAP1 JUMPDEST DUP2 SLOAD DUP2 MSTORE PUSH1 0x20 ADD SWAP1 PUSH1 0x1 ADD SWAP1 DUP1 DUP4 GT PUSH2 0xF06 JUMPI JUMPDEST POP POP POP POP POP DUP2 MSTORE PUSH1 0x20 ADD PUSH1 0x6 DUP3 ADD DUP1 SLOAD DUP1 PUSH1 0x20 MUL PUSH1 0x20 ADD PUSH1 0x40 MLOAD SWAP1 DUP2 ADD PUSH1 0x40 MSTORE DUP1 SWAP3 SWAP2 SWAP1 DUP2 DUP2 MSTORE PUSH1 0x20 ADD DUP3 DUP1 SLOAD DUP1 ISZERO PUSH2 0xF70 JUMPI PUSH1 0x20 MUL DUP3 ADD SWAP2 SWAP1 PUSH0 MSTORE PUSH1 0x20 PUSH0 KECCAK256 SWAP1 JUMPDEST DUP2 SLOAD DUP2 MSTORE PUSH1 0x20 ADD SWAP1 PUSH1 0x1 ADD SWAP1 DUP1 DUP4 GT PUSH2 0xF5C JUMPI JUMPDEST POP POP POP POP POP DUP2 MSTORE PUSH1 0x20 ADD PUSH1 0x7 DUP3 ADD DUP1 SLOAD DUP1 PUSH1 0x20 MUL PUSH1 0x20 ADD PUSH1 0x40 MLOAD SWAP1 DUP2 ADD PUSH1 0x40 MSTORE DUP1 SWAP3 SWAP2 SWAP1 DUP2 DUP2 MSTORE PUSH1 0x20 ADD DUP3 DUP1 SLOAD DUP1 ISZERO PUSH2 0xFC6 JUMPI PUSH1 0x20 MUL DUP3 ADD SWAP2 SWAP1 PUSH0 MSTORE PUSH1 0x20 PUSH0 KECCAK256 SWAP1 JUMPDEST DUP2 SLOAD DUP2 MSTORE PUSH1 0x20 ADD SWAP1 PUSH1 0x1 ADD SWAP1 DUP1 DUP4 GT PUSH2 0xFB2 JUMPI JUMPDEST POP POP POP POP POP DUP2 MSTORE PUSH1 0x20 ADD PUSH1 0x8 DUP3 ADD DUP1 SLOAD DUP1 PUSH1 0x20 MUL PUSH1 0x20 ADD PUSH1 0x40 MLOAD SWAP1 DUP2 ADD PUSH1 0x40 MSTORE DUP1 SWAP3 SWAP2 SWAP1 DUP2 DUP2 MSTORE PUSH1 0x20 ADD DUP3 DUP1 SLOAD DUP1 ISZERO PUSH2 0x101C JUMPI PUSH1 0x20 MUL DUP3 ADD SWAP2 SWAP1 PUSH0 MSTORE PUSH1 0x20 PUSH0 KECCAK256 SWAP1 JUMPDEST DUP2 SLOAD DUP2 MSTORE PUSH1 0x20 ADD SWAP1 PUSH1 0x1 ADD SWAP1 DUP1 DUP4 GT PUSH2 0x1008 JUMPI JUMPDEST POP POP POP POP POP DUP2 MSTORE PUSH1 0x20 ADD PUSH1 0x9 DUP3 ADD DUP1 SLOAD DUP1 PUSH1 0x20 MUL PUSH1 0x20 ADD PUSH1 0x40 MLOAD SWAP1 DUP2 ADD PUSH1 0x40 MSTORE DUP1 SWAP3 SWAP2 SWAP1 DUP2 DUP2 MSTORE PUSH1 0x20 ADD DUP3 DUP1 SLOAD DUP1 ISZERO PUSH2 0x1072 JUMPI PUSH1 0x20 MUL DUP3 ADD SWAP2 SWAP1 PUSH0 MSTORE PUSH1 0x20 PUSH0 KECCAK256 SWAP1 JUMPDEST DUP2 SLOAD DUP2 MSTORE PUSH1 0x20 ADD SWAP1 PUSH1 0x1 ADD SWAP1 DUP1 DUP4 GT PUSH2 0x105E JUMPI JUMPDEST POP POP POP POP POP DUP2 MSTORE PUSH1 0x20 ADD PUSH1 0xA DUP3 ADD DUP1 SLOAD DUP1 PUSH1 0x20 MUL PUSH1 0x20 ADD PUSH1 0x40 MLOAD SWAP1 DUP2 ADD PUSH1 0x40 MSTORE DUP1 SWAP3 SWAP2 SWAP1 DUP2 DUP2 MSTORE PUSH1 0x20 ADD DUP3 DUP1 SLOAD DUP1 ISZERO PUSH2 0x10C8 JUMPI PUSH1 0x20 MUL DUP3 ADD SWAP2 SWAP1 PUSH0 MSTORE PUSH1 0x20 PUSH0 KECCAK256 SWAP1 JUMPDEST DUP2 SLOAD DUP2 MSTORE PUSH1 0x20 ADD SWAP1 PUSH1 0x1 ADD SWAP1 DUP1 DUP4 GT PUSH2 0x10B4 JUMPI JUMPDEST POP POP POP SWAP2 DUP4 MSTORE POP POP PUSH1 0xB DUP3 ADD SLOAD PUSH1 0x20 DUP3 ADD MSTORE PUSH1 0xC DUP3 ADD SLOAD PUSH1 0xFF DUP1 DUP3 AND PUSH1 0x40 DUP5 ADD MSTORE PUSH2 0x100 SWAP2 DUP3 SWAP1 DIV DUP2 AND PUSH1 0x60 DUP5 ADD MSTORE PUSH1 0xD DUP5 ADD SLOAD PUSH1 0x80 DUP5 ADD MSTORE PUSH1 0xE DUP5 ADD SLOAD PUSH1 0xA0 DUP5 ADD MSTORE PUSH1 0xF DUP5 ADD SLOAD PUSH1 0xC0 DUP5 ADD MSTORE PUSH1 0x10 DUP5 ADD SLOAD AND PUSH1 0xE0 DUP4 ADD MSTORE PUSH1 0x11 SWAP1 SWAP3 ADD SLOAD SWAP2 ADD MSTORE DUP3 MLOAD DUP4 SWAP1 DUP4 SWAP1 DUP2 LT PUSH2 0x113D JUMPI PUSH2 0x113D PUSH2 0x8C2F JUMP JUMPDEST PUSH1 0x20 SWAP1 DUP2 MUL SWAP2 SWAP1 SWAP2 ADD ADD MSTORE PUSH1 0x1 ADD PUSH2 0xE04 JUMP JUMPDEST POP SWAP1 JUMP JUMPDEST PUSH0 DUP1 DUP3 DUP1 PUSH1 0x20 ADD SWAP1 MLOAD DUP2 ADD SWAP1 PUSH2 0x116A SWAP2 SWAP1 PUSH2 0x8CD6 JUMP JUMPDEST PUSH0 DUP2 DUP2 MSTORE PUSH1 0x8 PUSH1 0x20 MSTORE PUSH1 0x40 SWAP1 KECCAK256 PUSH1 0xA ADD SLOAD SWAP1 SWAP2 POP PUSH1 0x1 PUSH1 0x1 PUSH1 0xA0 SHL SUB AND ISZERO PUSH2 0x1195 JUMPI POP PUSH1 0x1 SWAP3 SWAP2 POP POP JUMP JUMPDEST POP PUSH0 SWAP3 SWAP2 POP POP JUMP JUMPDEST POP SWAP2 SWAP1 POP JUMP JUMPDEST PUSH2 0x11AB PUSH2 0x7475 JUMP JUMPDEST PUSH1 0x12 SLOAD PUSH1 0x40 MLOAD PUSH4 0x2E76C56D PUSH1 0xE2 SHL DUP2 MSTORE PUSH1 0x4 DUP2 ADD DUP7 SWAP1 MSTORE PUSH0 SWAP2 PUSH1 0x1 PUSH1 0x1 PUSH1 0xA0 SHL SUB AND SWAP1 PUSH4 0xB9DB15B4 SWAP1 PUSH1 0x24 ADD PUSH0 PUSH1 0x40 MLOAD DUP1 DUP4 SUB DUP2 DUP7 GAS STATICCALL ISZERO DUP1 ISZERO PUSH2 0x11F1 JUMPI RETURNDATASIZE PUSH0 DUP1 RETURNDATACOPY RETURNDATASIZE PUSH0 REVERT JUMPDEST POP POP POP POP PUSH1 0x40 MLOAD RETURNDATASIZE PUSH0 DUP3 RETURNDATACOPY PUSH1 0x1F RETURNDATASIZE SWAP1 DUP2 ADD PUSH1 0x1F NOT AND DUP3 ADD PUSH1 0x40 MSTORE PUSH2 0x1218 SWAP2 SWAP1 DUP2 ADD SWAP1 PUSH2 0x8E4C JUMP JUMPDEST PUSH1 0x12 SLOAD PUSH1 0x40 MLOAD PUSH3 0x41C629 PUSH1 0xE0 SHL DUP2 MSTORE SWAP2 SWAP3 POP PUSH0 SWAP2 PUSH1 0x1 PUSH1 0x1 PUSH1 0xA0 SHL SUB SWAP1 SWAP2 AND SWAP1 PUSH3 0x41C629 SWAP1 PUSH2 0x124D SWAP1 DUP10 SWAP1 DUP10 SWAP1 PUSH1 0x4 ADD PUSH2 0x9126 JUMP JUMPDEST PUSH1 0xC0 PUSH1 0x40 MLOAD DUP1 DUP4 SUB DUP2 DUP7 GAS STATICCALL ISZERO DUP1 ISZERO PUSH2 0x1268 JUMPI RETURNDATASIZE PUSH0 DUP1 RETURNDATACOPY RETURNDATASIZE PUSH0 REVERT JUMPDEST POP POP POP POP PUSH1 0x40 MLOAD RETURNDATASIZE PUSH1 0x1F NOT PUSH1 0x1F DUP3 ADD AND DUP3 ADD DUP1 PUSH1 0x40 MSTORE POP DUP2 ADD SWAP1 PUSH2 0x128C SWAP2 SWAP1 PUSH2 0x9134 JUMP JUMPDEST SWAP1 POP DUP2 PUSH0 ADD MLOAD PUSH0 EQ ISZERO PUSH2 0x12C9 PUSH1 0x3 PUSH1 0x40 MLOAD DUP1 PUSH1 0x40 ADD PUSH1 0x40 MSTORE DUP1 PUSH1 0x11 DUP2 MSTORE PUSH1 0x20 ADD PUSH17 0x141C9BD91D58DD081B9BDD08199BDD5B99 PUSH1 0x7A SHL DUP2 MSTORE POP PUSH2 0xD6F JUMP JUMPDEST SWAP1 PUSH2 0x12E7 JUMPI PUSH1 0x40 MLOAD PUSH3 0x461BCD PUSH1 0xE5 SHL DUP2 MSTORE PUSH1 0x4 ADD PUSH2 0xB1C SWAP2 SWAP1 PUSH2 0x7D4C JUMP JUMPDEST POP DUP1 MLOAD PUSH1 0x40 DUP1 MLOAD DUP1 DUP3 ADD SWAP1 SWAP2 MSTORE PUSH1 0x11 DUP2 MSTORE PUSH17 0x15985C9A585B9D081B9BDD08199BDD5B99 PUSH1 0x7A SHL PUSH1 0x20 DUP3 ADD MSTORE SWAP1 ISZERO ISZERO SWAP1 PUSH2 0x1322 SWAP1 PUSH1 0x6 SWAP1 PUSH2 0xD6F JUMP JUMPDEST SWAP1 PUSH2 0x1340 JUMPI PUSH1 0x40 MLOAD PUSH3 0x461BCD PUSH1 0xE5 SHL DUP2 MSTORE PUSH1 0x4 ADD PUSH2 0xB1C SWAP2 SWAP1 PUSH2 0x7D4C JUMP JUMPDEST POP DUP1 PUSH1 0x20 ADD MLOAD PUSH1 0x80 ADD MLOAD DUP5 GT ISZERO PUSH2 0x1370 PUSH1 0x5 PUSH1 0x40 MLOAD DUP1 PUSH1 0x60 ADD PUSH1 0x40 MSTORE DUP1 PUSH1 0x2C DUP2 MSTORE PUSH1 0x20 ADD PUSH2 0x9569 PUSH1 0x2C SWAP2 CODECOPY PUSH2 0xD6F JUMP JUMPDEST SWAP1 PUSH2 0x138E JUMPI PUSH1 0x40 MLOAD PUSH3 0x461BCD PUSH1 0xE5 SHL DUP2 MSTORE PUSH1 0x4 ADD PUSH2 0xB1C SWAP2 SWAP1 PUSH2 0x7D4C JUMP JUMPDEST POP PUSH1 0x11 DUP1 SLOAD SWAP1 PUSH0 PUSH2 0x139E DUP4 PUSH2 0x8992 JUMP JUMPDEST SWAP1 SWAP2 SSTORE POP POP PUSH1 0x40 DUP1 MLOAD PUSH1 0xA0 DUP2 ADD DUP3 MSTORE PUSH1 0x11 SLOAD DUP2 MSTORE PUSH1 0x20 DUP1 DUP3 ADD DUP10 SWAP1 MSTORE DUP2 DUP4 ADD DUP8 SWAP1 MSTORE PUSH1 0x60 DUP3 ADD DUP9 SWAP1 MSTORE TIMESTAMP PUSH1 0x80 DUP4 ADD MSTORE CALLER PUSH0 SWAP1 DUP2 MSTORE SWAP1 DUP2 SWAP1 MSTORE SWAP2 DUP3 KECCAK256 SLOAD SWAP1 SWAP2 SUB PUSH2 0x13EF JUMPI PUSH2 0x13EA DUP2 PUSH2 0x3D1F JUMP JUMPDEST PUSH2 0x1534 JUMP JUMPDEST PUSH0 DUP1 JUMPDEST CALLER PUSH0 SWAP1 DUP2 MSTORE PUSH1 0x20 DUP2 SWAP1 MSTORE PUSH1 0x40 SWAP1 KECCAK256 PUSH1 0x2 ADD SLOAD DUP2 LT ISZERO PUSH2 0x1497 JUMPI CALLER PUSH0 SWAP1 DUP2 MSTORE PUSH1 0x20 DUP2 SWAP1 MSTORE PUSH1 0x40 SWAP1 KECCAK256 PUSH1 0x2 ADD DUP1 SLOAD DUP11 SWAP2 SWAP1 DUP4 SWAP1 DUP2 LT PUSH2 0x1431 JUMPI PUSH2 0x1431 PUSH2 0x8C2F JUMP JUMPDEST SWAP1 PUSH0 MSTORE PUSH1 0x20 PUSH0 KECCAK256 SWAP1 PUSH1 0x5 MUL ADD PUSH1 0x1 ADD SLOAD EQ DUP1 ISZERO PUSH2 0x1481 JUMPI POP CALLER PUSH0 SWAP1 DUP2 MSTORE PUSH1 0x20 DUP2 SWAP1 MSTORE PUSH1 0x40 SWAP1 KECCAK256 PUSH1 0x2 ADD DUP1 SLOAD DUP10 SWAP2 SWAP1 DUP4 SWAP1 DUP2 LT PUSH2 0x146F JUMPI PUSH2 0x146F PUSH2 0x8C2F JUMP JUMPDEST SWAP1 PUSH0 MSTORE PUSH1 0x20 PUSH0 KECCAK256 SWAP1 PUSH1 0x5 MUL ADD PUSH1 0x3 ADD SLOAD EQ JUMPDEST ISZERO PUSH2 0x148F JUMPI PUSH1 0x1 SWAP2 POP PUSH2 0x1497 JUMP JUMPDEST PUSH1 0x1 ADD PUSH2 0x13F2 JUMP JUMPDEST POP DUP1 ISZERO PUSH2 0x14BD PUSH1 0x6 PUSH1 0x40 MLOAD DUP1 PUSH1 0x60 ADD PUSH1 0x40 MSTORE DUP1 PUSH1 0x2A DUP2 MSTORE PUSH1 0x20 ADD PUSH2 0x951F PUSH1 0x2A SWAP2 CODECOPY PUSH2 0xD6F JUMP JUMPDEST SWAP1 PUSH2 0x14DB JUMPI PUSH1 0x40 MLOAD PUSH3 0x461BCD PUSH1 0xE5 SHL DUP2 MSTORE PUSH1 0x4 ADD PUSH2 0xB1C SWAP2 SWAP1 PUSH2 0x7D4C JUMP JUMPDEST POP POP CALLER PUSH0 SWAP1 DUP2 MSTORE PUSH1 0x20 DUP2 DUP2 MSTORE PUSH1 0x40 DUP1 DUP4 KECCAK256 PUSH1 0x2 SWAP1 DUP2 ADD DUP1 SLOAD PUSH1 0x1 DUP2 DUP2 ADD DUP4 SSTORE SWAP2 DUP7 MSTORE SWAP5 DUP5 SWAP1 KECCAK256 DUP7 MLOAD PUSH1 0x5 SWAP1 SWAP7 MUL ADD SWAP5 DUP6 SSTORE SWAP3 DUP6 ADD MLOAD SWAP3 DUP5 ADD SWAP3 SWAP1 SWAP3 SSTORE DUP4 ADD MLOAD SWAP1 DUP3 ADD SSTORE PUSH1 0x60 DUP3 ADD MLOAD PUSH1 0x3 DUP3 ADD SSTORE PUSH1 0x80 DUP3 ADD MLOAD PUSH1 0x4 SWAP1 SWAP2 ADD SSTORE JUMPDEST PUSH1 0x14 SLOAD PUSH1 0x40 MLOAD PUSH4 0x22A8E4EB PUSH1 0xE2 SHL DUP2 MSTORE PUSH1 0x1 PUSH1 0x1 PUSH1 0xA0 SHL SUB SWAP1 SWAP2 AND SWAP1 PUSH4 0x8AA393AC SWAP1 PUSH2 0x156F SWAP1 CALLER SWAP1 DUP12 SWAP1 DUP11 SWAP1 PUSH0 SWAP1 DUP2 SWAP1 PUSH1 0x1 SWAP1 PUSH1 0x4 ADD PUSH2 0x91B4 JUMP JUMPDEST PUSH0 PUSH1 0x40 MLOAD DUP1 DUP4 SUB DUP2 PUSH0 DUP8 DUP1 EXTCODESIZE ISZERO DUP1 ISZERO PUSH2 0x1586 JUMPI PUSH0 DUP1 REVERT JUMPDEST POP GAS CALL ISZERO DUP1 ISZERO PUSH2 0x1598 JUMPI RETURNDATASIZE PUSH0 DUP1 RETURNDATACOPY RETURNDATASIZE PUSH0 REVERT JUMPDEST POP POP PUSH1 0x14 SLOAD PUSH1 0x20 DUP7 ADD MLOAD PUSH2 0x180 ADD MLOAD PUSH1 0x40 MLOAD PUSH4 0x22A8E4EB PUSH1 0xE2 SHL DUP2 MSTORE PUSH1 0x1 PUSH1 0x1 PUSH1 0xA0 SHL SUB SWAP1 SWAP3 AND SWAP4 POP PUSH4 0x8AA393AC SWAP3 POP PUSH2 0x15DF SWAP2 CALLER SWAP2 DUP13 SWAP2 DUP12 SWAP2 SWAP1 PUSH0 SWAP1 DUP2 SWAP1 PUSH1 0x4 ADD PUSH2 0x91B4 JUMP JUMPDEST PUSH0 PUSH1 0x40 MLOAD DUP1 DUP4 SUB DUP2 PUSH0 DUP8 DUP1 EXTCODESIZE ISZERO DUP1 ISZERO PUSH2 0x15F6 JUMPI PUSH0 DUP1 REVERT JUMPDEST POP GAS CALL ISZERO DUP1 ISZERO PUSH2 0x1608 JUMPI RETURNDATASIZE PUSH0 DUP1 RETURNDATACOPY RETURNDATASIZE PUSH0 REVERT JUMPDEST POP POP PUSH1 0x14 SLOAD PUSH1 0x20 DUP7 ADD MLOAD PUSH2 0x180 ADD MLOAD PUSH1 0x40 MLOAD PUSH4 0xF954ED2D PUSH1 0xE0 SHL DUP2 MSTORE PUSH1 0x1 PUSH1 0x1 PUSH1 0xA0 SHL SUB SWAP1 SWAP3 AND SWAP4 POP PUSH4 0xF954ED2D SWAP3 POP PUSH2 0x1644 SWAP2 PUSH1 0x4 ADD PUSH2 0x815E JUMP JUMPDEST PUSH0 PUSH1 0x40 MLOAD DUP1 DUP4 SUB DUP2 PUSH0 DUP8 DUP1 EXTCODESIZE ISZERO DUP1 ISZERO PUSH2 0x165B JUMPI PUSH0 DUP1 REVERT JUMPDEST POP GAS CALL ISZERO DUP1 ISZERO PUSH2 0x166D JUMPI RETURNDATASIZE PUSH0 DUP1 RETURNDATACOPY RETURNDATASIZE PUSH0 REVERT JUMPDEST POP SWAP3 SWAP10 SWAP9 POP POP POP POP POP POP POP POP POP JUMP JUMPDEST PUSH2 0x1684 PUSH2 0x73A9 JUMP JUMPDEST CALLER PUSH0 SWAP1 DUP2 MSTORE PUSH1 0x20 DUP2 DUP2 MSTORE PUSH1 0x40 DUP1 DUP4 KECCAK256 DUP2 MLOAD PUSH1 0x60 DUP2 ADD DUP4 MSTORE DUP2 SLOAD DUP2 MSTORE PUSH1 0x1 DUP3 ADD SLOAD PUSH1 0x1 PUSH1 0x1 PUSH1 0xA0 SHL SUB AND DUP2 DUP6 ADD MSTORE PUSH1 0x2 DUP3 ADD DUP1 SLOAD DUP5 MLOAD DUP2 DUP8 MUL DUP2 ADD DUP8 ADD DUP7 MSTORE DUP2 DUP2 MSTORE SWAP3 SWAP7 SWAP4 SWAP6 SWAP5 DUP8 ADD SWAP5 SWAP3 SWAP4 SWAP2 SWAP3 SWAP1 SWAP2 SWAP1 DUP5 ADD JUMPDEST DUP3 DUP3 LT ISZERO PUSH2 0x1738 JUMPI DUP4 DUP3 SWAP1 PUSH0 MSTORE PUSH1 0x20 PUSH0 KECCAK256 SWAP1 PUSH1 0x5 MUL ADD PUSH1 0x40 MLOAD DUP1 PUSH1 0xA0 ADD PUSH1 0x40 MSTORE SWAP1 DUP2 PUSH0 DUP3 ADD SLOAD DUP2 MSTORE PUSH1 0x20 ADD PUSH1 0x1 DUP3 ADD SLOAD DUP2 MSTORE PUSH1 0x20 ADD PUSH1 0x2 DUP3 ADD SLOAD DUP2 MSTORE PUSH1 0x20 ADD PUSH1 0x3 DUP3 ADD SLOAD DUP2 MSTORE PUSH1 0x20 ADD PUSH1 0x4 DUP3 ADD SLOAD DUP2 MSTORE POP POP DUP2 MSTORE PUSH1 0x20 ADD SWAP1 PUSH1 0x1 ADD SWAP1 PUSH2 0x16D7 JUMP JUMPDEST POP POP POP POP DUP2 MSTORE POP POP SWAP1 POP SWAP1 JUMP JUMPDEST CALLER PUSH0 SWAP1 DUP2 MSTORE PUSH1 0x6 PUSH1 0x20 MSTORE PUSH1 0x40 DUP2 KECCAK256 SLOAD PUSH1 0x60 SWAP2 SWAP1 PUSH1 0x1 PUSH1 0x1 PUSH1 0x40 SHL SUB DUP2 GT ISZERO PUSH2 0x176F JUMPI PUSH2 0x176F PUSH2 0x767E JUMP JUMPDEST PUSH1 0x40 MLOAD SWAP1 DUP1 DUP3 MSTORE DUP1 PUSH1 0x20 MUL PUSH1 0x20 ADD DUP3 ADD PUSH1 0x40 MSTORE DUP1 ISZERO PUSH2 0x17A8 JUMPI DUP2 PUSH1 0x20 ADD JUMPDEST PUSH2 0x1795 PUSH2 0x74A2 JUMP JUMPDEST DUP2 MSTORE PUSH1 0x20 ADD SWAP1 PUSH1 0x1 SWAP1 SUB SWAP1 DUP2 PUSH2 0x178D JUMPI SWAP1 POP JUMPDEST POP CALLER PUSH0 SWAP1 DUP2 MSTORE PUSH1 0x6 PUSH1 0x20 MSTORE PUSH1 0x40 DUP2 KECCAK256 SWAP2 SWAP3 POP JUMPDEST DUP2 SLOAD DUP2 LT ISZERO PUSH2 0x1A17 JUMPI PUSH1 0x7 PUSH0 DUP4 DUP4 DUP2 SLOAD DUP2 LT PUSH2 0x17D9 JUMPI PUSH2 0x17D9 PUSH2 0x8C2F JUMP JUMPDEST SWAP1 PUSH0 MSTORE PUSH1 0x20 PUSH0 KECCAK256 ADD SLOAD DUP2 MSTORE PUSH1 0x20 ADD SWAP1 DUP2 MSTORE PUSH1 0x20 ADD PUSH0 KECCAK256 PUSH1 0x40 MLOAD DUP1 PUSH1 0xA0 ADD PUSH1 0x40 MSTORE SWAP1 DUP2 PUSH0 DUP3 ADD SLOAD DUP2 MSTORE PUSH1 0x20 ADD PUSH1 0x1 DUP3 ADD DUP1 SLOAD DUP1 PUSH1 0x20 MUL PUSH1 0x20 ADD PUSH1 0x40 MLOAD SWAP1 DUP2 ADD PUSH1 0x40 MSTORE DUP1 SWAP3 SWAP2 SWAP1 DUP2 DUP2 MSTORE PUSH1 0x20 ADD PUSH0 SWAP1 JUMPDEST DUP3 DUP3 LT ISZERO PUSH2 0x19B8 JUMPI DUP4 DUP3 SWAP1 PUSH0 MSTORE PUSH1 0x20 PUSH0 KECCAK256 SWAP1 PUSH1 0x5 MUL ADD PUSH1 0x40 MLOAD DUP1 PUSH1 0xA0 ADD PUSH1 0x40 MSTORE SWAP1 DUP2 PUSH0 DUP3 ADD DUP1 SLOAD DUP1 PUSH1 0x20 MUL PUSH1 0x20 ADD PUSH1 0x40 MLOAD SWAP1 DUP2 ADD PUSH1 0x40 MSTORE DUP1 SWAP3 SWAP2 SWAP1 DUP2 DUP2 MSTORE PUSH1 0x20 ADD DUP3 DUP1 SLOAD DUP1 ISZERO PUSH2 0x1894 JUMPI PUSH1 0x20 MUL DUP3 ADD SWAP2 SWAP1 PUSH0 MSTORE PUSH1 0x20 PUSH0 KECCAK256 SWAP1 JUMPDEST DUP2 SLOAD DUP2 MSTORE PUSH1 0x20 ADD SWAP1 PUSH1 0x1 ADD SWAP1 DUP1 DUP4 GT PUSH2 0x1880 JUMPI JUMPDEST POP POP POP POP POP DUP2 MSTORE PUSH1 0x20 ADD PUSH1 0x1 DUP3 ADD DUP1 SLOAD DUP1 PUSH1 0x20 MUL PUSH1 0x20 ADD PUSH1 0x40 MLOAD SWAP1 DUP2 ADD PUSH1 0x40 MSTORE DUP1 SWAP3 SWAP2 SWAP1 DUP2 DUP2 MSTORE PUSH1 0x20 ADD DUP3 DUP1 SLOAD DUP1 ISZERO PUSH2 0x18EA JUMPI PUSH1 0x20 MUL DUP3 ADD SWAP2 SWAP1 PUSH0 MSTORE PUSH1 0x20 PUSH0 KECCAK256 SWAP1 JUMPDEST DUP2 SLOAD DUP2 MSTORE PUSH1 0x20 ADD SWAP1 PUSH1 0x1 ADD SWAP1 DUP1 DUP4 GT PUSH2 0x18D6 JUMPI JUMPDEST POP POP POP POP POP DUP2 MSTORE PUSH1 0x20 ADD PUSH1 0x2 DUP3 ADD DUP1 SLOAD DUP1 PUSH1 0x20 MUL PUSH1 0x20 ADD PUSH1 0x40 MLOAD SWAP1 DUP2 ADD PUSH1 0x40 MSTORE DUP1 SWAP3 SWAP2 SWAP1 DUP2 DUP2 MSTORE PUSH1 0x20 ADD DUP3 DUP1 SLOAD DUP1 ISZERO PUSH2 0x1940 JUMPI PUSH1 0x20 MUL DUP3 ADD SWAP2 SWAP1 PUSH0 MSTORE PUSH1 0x20 PUSH0 KECCAK256 SWAP1 JUMPDEST DUP2 SLOAD DUP2 MSTORE PUSH1 0x20 ADD SWAP1 PUSH1 0x1 ADD SWAP1 DUP1 DUP4 GT PUSH2 0x192C JUMPI JUMPDEST POP POP POP POP POP DUP2 MSTORE PUSH1 0x20 ADD PUSH1 0x3 DUP3 ADD DUP1 SLOAD DUP1 PUSH1 0x20 MUL PUSH1 0x20 ADD PUSH1 0x40 MLOAD SWAP1 DUP2 ADD PUSH1 0x40 MSTORE DUP1 SWAP3 SWAP2 SWAP1 DUP2 DUP2 MSTORE PUSH1 0x20 ADD DUP3 DUP1 SLOAD DUP1 ISZERO PUSH2 0x1996 JUMPI PUSH1 0x20 MUL DUP3 ADD SWAP2 SWAP1 PUSH0 MSTORE PUSH1 0x20 PUSH0 KECCAK256 SWAP1 JUMPDEST DUP2 SLOAD DUP2 MSTORE PUSH1 0x20 ADD SWAP1 PUSH1 0x1 ADD SWAP1 DUP1 DUP4 GT PUSH2 0x1982 JUMPI JUMPDEST POP POP POP POP POP DUP2 MSTORE PUSH1 0x20 ADD PUSH1 0x4 DUP3 ADD SLOAD DUP2 MSTORE POP POP DUP2 MSTORE PUSH1 0x20 ADD SWAP1 PUSH1 0x1 ADD SWAP1 PUSH2 0x1827 JUMP JUMPDEST POP POP POP SWAP1 DUP3 MSTORE POP PUSH1 0x2 DUP3 ADD SLOAD PUSH1 0x1 PUSH1 0x1 PUSH1 0xA0 SHL SUB DUP2 AND PUSH1 0x20 DUP4 ADD MSTORE PUSH1 0x1 PUSH1 0xA0 SHL SWAP1 DIV PUSH1 0xFF AND ISZERO ISZERO PUSH1 0x40 DUP3 ADD MSTORE PUSH1 0x3 SWAP1 SWAP2 ADD SLOAD PUSH1 0x60 SWAP1 SWAP2 ADD MSTORE DUP4 MLOAD DUP5 SWAP1 DUP4 SWAP1 DUP2 LT PUSH2 0x1A04 JUMPI PUSH2 0x1A04 PUSH2 0x8C2F JUMP JUMPDEST PUSH1 0x20 SWAP1 DUP2 MUL SWAP2 SWAP1 SWAP2 ADD ADD MSTORE PUSH1 0x1 ADD PUSH2 0x17BB JUMP JUMPDEST POP SWAP1 SWAP3 SWAP2 POP POP JUMP JUMPDEST PUSH1 0x17 SLOAD PUSH0 SWAP1 PUSH1 0x1 PUSH1 0x1 PUSH1 0xA0 SHL SUB AND CALLER DUP2 EQ PUSH2 0x1A4C JUMPI PUSH1 0x40 MLOAD PUSH3 0x461BCD PUSH1 0xE5 SHL DUP2 MSTORE PUSH1 0x4 ADD PUSH2 0xB1C SWAP1 PUSH2 0x91FC JUMP JUMPDEST PUSH1 0x15 DUP1 SLOAD PUSH1 0x1 PUSH1 0x1 PUSH1 0xA0 SHL SUB DUP6 AND PUSH1 0x1 PUSH1 0x1 PUSH1 0xA0 SHL SUB NOT SWAP1 SWAP2 AND OR SWAP1 SSTORE PUSH1 0x1 SWAP2 POP POP SWAP2 SWAP1 POP JUMP JUMPDEST PUSH2 0x1A7D CALLER DUP3 PUSH2 0x639C JUMP JUMPDEST POP JUMP JUMPDEST PUSH1 0x6 PUSH1 0x20 MSTORE DUP2 PUSH0 MSTORE PUSH1 0x40 PUSH0 KECCAK256 DUP2 DUP2 SLOAD DUP2 LT PUSH2 0x8B7 JUMPI PUSH0 DUP1 REVERT JUMPDEST PUSH1 0x17 SLOAD PUSH0 SWAP1 PUSH1 0x1 PUSH1 0x1 PUSH1 0xA0 SHL SUB AND CALLER DUP2 EQ PUSH2 0x1AC6 JUMPI PUSH1 0x40 MLOAD PUSH3 0x461BCD PUSH1 0xE5 SHL DUP2 MSTORE PUSH1 0x4 ADD PUSH2 0xB1C SWAP1 PUSH2 0x91FC JUMP JUMPDEST PUSH1 0x12 DUP1 SLOAD PUSH1 0x1 PUSH1 0x1 PUSH1 0xA0 SHL SUB DUP6 AND PUSH1 0x1 PUSH1 0x1 PUSH1 0xA0 SHL SUB NOT SWAP1 SWAP2 AND OR SWAP1 SSTORE PUSH1 0x1 SWAP2 POP POP SWAP2 SWAP1 POP JUMP JUMPDEST PUSH1 0x1 PUSH1 0x1 PUSH1 0xA0 SHL SUB DUP2 AND PUSH0 SWAP1 DUP2 MSTORE PUSH1 0x2 PUSH1 0x20 SWAP1 DUP2 MSTORE PUSH1 0x40 DUP1 DUP4 KECCAK256 DUP1 SLOAD DUP3 MLOAD DUP2 DUP6 MUL DUP2 ADD DUP6 ADD SWAP1 SWAP4 MSTORE DUP1 DUP4 MSTORE PUSH1 0x60 SWAP5 SWAP4 DUP4 ADD DUP3 DUP3 DUP1 ISZERO PUSH2 0x1B49 JUMPI PUSH1 0x20 MUL DUP3 ADD SWAP2 SWAP1 PUSH0 MSTORE PUSH1 0x20 PUSH0 KECCAK256 SWAP1 JUMPDEST DUP2 SLOAD DUP2 MSTORE PUSH1 0x20 ADD SWAP1 PUSH1 0x1 ADD SWAP1 DUP1 DUP4 GT PUSH2 0x1B35 JUMPI JUMPDEST POP POP POP POP POP SWAP1 POP DUP1 MLOAD PUSH1 0x1 PUSH1 0x1 PUSH1 0x40 SHL SUB DUP2 GT ISZERO PUSH2 0x1B69 JUMPI PUSH2 0x1B69 PUSH2 0x767E JUMP JUMPDEST PUSH1 0x40 MLOAD SWAP1 DUP1 DUP3 MSTORE DUP1 PUSH1 0x20 MUL PUSH1 0x20 ADD DUP3 ADD PUSH1 0x40 MSTORE DUP1 ISZERO PUSH2 0x1BA2 JUMPI DUP2 PUSH1 0x20 ADD JUMPDEST PUSH2 0x1B8F PUSH2 0x73D1 JUMP JUMPDEST DUP2 MSTORE PUSH1 0x20 ADD SWAP1 PUSH1 0x1 SWAP1 SUB SWAP1 DUP2 PUSH2 0x1B87 JUMPI SWAP1 POP JUMPDEST POP SWAP2 POP PUSH0 JUMPDEST DUP3 MLOAD DUP2 LT ISZERO PUSH2 0x1EF0 JUMPI PUSH1 0x1 PUSH0 DUP4 DUP4 DUP2 MLOAD DUP2 LT PUSH2 0x1BC5 JUMPI PUSH2 0x1BC5 PUSH2 0x8C2F JUMP JUMPDEST PUSH1 0x20 SWAP1 DUP2 MUL SWAP2 SWAP1 SWAP2 ADD DUP2 ADD MLOAD DUP3 MSTORE DUP2 DUP2 ADD SWAP3 SWAP1 SWAP3 MSTORE PUSH1 0x40 SWAP1 DUP2 ADD PUSH0 KECCAK256 DUP2 MLOAD PUSH2 0x260 DUP2 ADD DUP4 MSTORE DUP2 SLOAD DUP2 MSTORE PUSH1 0x1 DUP3 ADD SLOAD PUSH1 0x1 PUSH1 0x1 PUSH1 0xA0 SHL SUB SWAP1 DUP2 AND DUP3 DUP7 ADD MSTORE PUSH1 0x2 DUP4 ADD SLOAD AND DUP2 DUP5 ADD MSTORE PUSH1 0x3 DUP3 ADD SLOAD PUSH1 0x60 DUP3 ADD MSTORE PUSH1 0x4 DUP3 ADD DUP1 SLOAD DUP5 MLOAD DUP2 DUP8 MUL DUP2 ADD DUP8 ADD SWAP1 SWAP6 MSTORE DUP1 DUP6 MSTORE SWAP2 SWAP5 SWAP3 SWAP4 PUSH1 0x80 DUP7 ADD SWAP4 SWAP1 SWAP3 SWAP1 DUP4 ADD DUP3 DUP3 DUP1 ISZERO PUSH2 0x1C64 JUMPI PUSH1 0x20 MUL DUP3 ADD SWAP2 SWAP1 PUSH0 MSTORE PUSH1 0x20 PUSH0 KECCAK256 SWAP1 JUMPDEST DUP2 SLOAD DUP2 MSTORE PUSH1 0x20 ADD SWAP1 PUSH1 0x1 ADD SWAP1 DUP1 DUP4 GT PUSH2 0x1C50 JUMPI JUMPDEST POP POP POP POP POP DUP2 MSTORE PUSH1 0x20 ADD PUSH1 0x5 DUP3 ADD DUP1 SLOAD DUP1 PUSH1 0x20 MUL PUSH1 0x20 ADD PUSH1 0x40 MLOAD SWAP1 DUP2 ADD PUSH1 0x40 MSTORE DUP1 SWAP3 SWAP2 SWAP1 DUP2 DUP2 MSTORE PUSH1 0x20 ADD DUP3 DUP1 SLOAD DUP1 ISZERO PUSH2 0x1CBA JUMPI PUSH1 0x20 MUL DUP3 ADD SWAP2 SWAP1 PUSH0 MSTORE PUSH1 0x20 PUSH0 KECCAK256 SWAP1 JUMPDEST DUP2 SLOAD DUP2 MSTORE PUSH1 0x20 ADD SWAP1 PUSH1 0x1 ADD SWAP1 DUP1 DUP4 GT PUSH2 0x1CA6 JUMPI JUMPDEST POP POP POP POP POP DUP2 MSTORE PUSH1 0x20 ADD PUSH1 0x6 DUP3 ADD DUP1 SLOAD DUP1 PUSH1 0x20 MUL PUSH1 0x20 ADD PUSH1 0x40 MLOAD SWAP1 DUP2 ADD PUSH1 0x40 MSTORE DUP1 SWAP3 SWAP2 SWAP1 DUP2 DUP2 MSTORE PUSH1 0x20 ADD DUP3 DUP1 SLOAD DUP1 ISZERO PUSH2 0x1D10 JUMPI PUSH1 0x20 MUL DUP3 ADD SWAP2 SWAP1 PUSH0 MSTORE PUSH1 0x20 PUSH0 KECCAK256 SWAP1 JUMPDEST DUP2 SLOAD DUP2 MSTORE PUSH1 0x20 ADD SWAP1 PUSH1 0x1 ADD SWAP1 DUP1 DUP4 GT PUSH2 0x1CFC JUMPI JUMPDEST POP POP POP POP POP DUP2 MSTORE PUSH1 0x20 ADD PUSH1 0x7 DUP3 ADD DUP1 SLOAD DUP1 PUSH1 0x20 MUL PUSH1 0x20 ADD PUSH1 0x40 MLOAD SWAP1 DUP2 ADD PUSH1 0x40 MSTORE DUP1 SWAP3 SWAP2 SWAP1 DUP2 DUP2 MSTORE PUSH1 0x20 ADD DUP3 DUP1 SLOAD DUP1 ISZERO PUSH2 0x1D66 JUMPI PUSH1 0x20 MUL DUP3 ADD SWAP2 SWAP1 PUSH0 MSTORE PUSH1 0x20 PUSH0 KECCAK256 SWAP1 JUMPDEST DUP2 SLOAD DUP2 MSTORE PUSH1 0x20 ADD SWAP1 PUSH1 0x1 ADD SWAP1 DUP1 DUP4 GT PUSH2 0x1D52 JUMPI JUMPDEST POP POP POP POP POP DUP2 MSTORE PUSH1 0x20 ADD PUSH1 0x8 DUP3 ADD DUP1 SLOAD DUP1 PUSH1 0x20 MUL PUSH1 0x20 ADD PUSH1 0x40 MLOAD SWAP1 DUP2 ADD PUSH1 0x40 MSTORE DUP1 SWAP3 SWAP2 SWAP1 DUP2 DUP2 MSTORE PUSH1 0x20 ADD DUP3 DUP1 SLOAD DUP1 ISZERO PUSH2 0x1DBC JUMPI PUSH1 0x20 MUL DUP3 ADD SWAP2 SWAP1 PUSH0 MSTORE PUSH1 0x20 PUSH0 KECCAK256 SWAP1 JUMPDEST DUP2 SLOAD DUP2 MSTORE PUSH1 0x20 ADD SWAP1 PUSH1 0x1 ADD SWAP1 DUP1 DUP4 GT PUSH2 0x1DA8 JUMPI JUMPDEST POP POP POP POP POP DUP2 MSTORE PUSH1 0x20 ADD PUSH1 0x9 DUP3 ADD DUP1 SLOAD DUP1 PUSH1 0x20 MUL PUSH1 0x20 ADD PUSH1 0x40 MLOAD SWAP1 DUP2 ADD PUSH1 0x40 MSTORE DUP1 SWAP3 SWAP2 SWAP1 DUP2 DUP2 MSTORE PUSH1 0x20 ADD DUP3 DUP1 SLOAD DUP1 ISZERO PUSH2 0x1E12 JUMPI PUSH1 0x20 MUL DUP3 ADD SWAP2 SWAP1 PUSH0 MSTORE PUSH1 0x20 PUSH0 KECCAK256 SWAP1 JUMPDEST DUP2 SLOAD DUP2 MSTORE PUSH1 0x20 ADD SWAP1 PUSH1 0x1 ADD SWAP1 DUP1 DUP4 GT PUSH2 0x1DFE JUMPI JUMPDEST POP POP POP POP POP DUP2 MSTORE PUSH1 0x20 ADD PUSH1 0xA DUP3 ADD DUP1 SLOAD DUP1 PUSH1 0x20 MUL PUSH1 0x20 ADD PUSH1 0x40 MLOAD SWAP1 DUP2 ADD PUSH1 0x40 MSTORE DUP1 SWAP3 SWAP2 SWAP1 DUP2 DUP2 MSTORE PUSH1 0x20 ADD DUP3 DUP1 SLOAD DUP1 ISZERO PUSH2 0x1E68 JUMPI PUSH1 0x20 MUL DUP3 ADD SWAP2 SWAP1 PUSH0 MSTORE PUSH1 0x20 PUSH0 KECCAK256 SWAP1 JUMPDEST DUP2 SLOAD DUP2 MSTORE PUSH1 0x20 ADD SWAP1 PUSH1 0x1 ADD SWAP1 DUP1 DUP4 GT PUSH2 0x1E54 JUMPI JUMPDEST POP POP POP SWAP2 DUP4 MSTORE POP POP PUSH1 0xB DUP3 ADD SLOAD PUSH1 0x20 DUP3 ADD MSTORE PUSH1 0xC DUP3 ADD SLOAD PUSH1 0xFF DUP1 DUP3 AND PUSH1 0x40 DUP5 ADD MSTORE PUSH2 0x100 SWAP2 DUP3 SWAP1 DIV DUP2 AND PUSH1 0x60 DUP5 ADD MSTORE PUSH1 0xD DUP5 ADD SLOAD PUSH1 0x80 DUP5 ADD MSTORE PUSH1 0xE DUP5 ADD SLOAD PUSH1 0xA0 DUP5 ADD MSTORE PUSH1 0xF DUP5 ADD SLOAD PUSH1 0xC0 DUP5 ADD MSTORE PUSH1 0x10 DUP5 ADD SLOAD AND PUSH1 0xE0 DUP4 ADD MSTORE PUSH1 0x11 SWAP1 SWAP3 ADD SLOAD SWAP2 ADD MSTORE DUP4 MLOAD DUP5 SWAP1 DUP4 SWAP1 DUP2 LT PUSH2 0x1EDD JUMPI PUSH2 0x1EDD PUSH2 0x8C2F JUMP JUMPDEST PUSH1 0x20 SWAP1 DUP2 MUL SWAP2 SWAP1 SWAP2 ADD ADD MSTORE PUSH1 0x1 ADD PUSH2 0x1BA7 JUMP JUMPDEST POP POP SWAP2 SWAP1 POP JUMP JUMPDEST PUSH0 DUP1 DUP5 MLOAD GT PUSH2 0x1F69 JUMPI PUSH1 0x40 MLOAD PUSH3 0x461BCD PUSH1 0xE5 SHL DUP2 MSTORE PUSH1 0x20 PUSH1 0x4 DUP3 ADD MSTORE PUSH1 0x44 PUSH1 0x24 DUP3 ADD DUP2 SWAP1 MSTORE PUSH0 DUP1 MLOAD PUSH1 0x20 PUSH2 0x94A0 DUP4 CODECOPY DUP2 MLOAD SWAP2 MSTORE SWAP1 DUP3 ADD MSTORE PUSH32 0x2031312C20226D657373616765223A224F726465722068617665206E6F206974 PUSH1 0x64 DUP3 ADD MSTORE PUSH4 0x656D227D PUSH1 0xE0 SHL PUSH1 0x84 DUP3 ADD MSTORE PUSH1 0xA4 ADD PUSH2 0xB1C JUMP JUMPDEST PUSH1 0x64 DUP5 MLOAD LT PUSH2 0x1FDB JUMPI PUSH1 0x40 MLOAD PUSH3 0x461BCD PUSH1 0xE5 SHL DUP2 MSTORE PUSH1 0x20 PUSH1 0x4 DUP3 ADD MSTORE PUSH1 0x45 PUSH1 0x24 DUP3 ADD MSTORE PUSH0 DUP1 MLOAD PUSH1 0x20 PUSH2 0x94A0 DUP4 CODECOPY DUP2 MLOAD SWAP2 MSTORE PUSH1 0x44 DUP3 ADD MSTORE PUSH32 0x2031312C20226D657373616765223A224F726465722068617665206D61782069 PUSH1 0x64 DUP3 ADD MSTORE PUSH5 0x74656D227D PUSH1 0xD8 SHL PUSH1 0x84 DUP3 ADD MSTORE PUSH1 0xA4 ADD PUSH2 0xB1C JUMP JUMPDEST PUSH1 0x1 DUP3 PUSH1 0x60 ADD MLOAD PUSH1 0x1 DUP2 GT ISZERO PUSH2 0x1FF3 JUMPI PUSH2 0x1FF3 PUSH2 0x867E JUMP JUMPDEST EQ PUSH2 0x2017 PUSH1 0xC PUSH1 0x40 MLOAD DUP1 PUSH1 0x60 ADD PUSH1 0x40 MSTORE DUP1 PUSH1 0x35 DUP2 MSTORE PUSH1 0x20 ADD PUSH2 0x94C0 PUSH1 0x35 SWAP2 CODECOPY PUSH2 0xD6F JUMP JUMPDEST SWAP1 PUSH2 0x2035 JUMPI PUSH1 0x40 MLOAD PUSH3 0x461BCD PUSH1 0xE5 SHL DUP2 MSTORE PUSH1 0x4 ADD PUSH2 0xB1C SWAP2 SWAP1 PUSH2 0x7D4C JUMP JUMPDEST POP PUSH1 0x13 SLOAD PUSH1 0x40 MLOAD PUSH4 0x700786D7 PUSH1 0xE1 SHL DUP2 MSTORE PUSH0 SWAP2 PUSH1 0x1 PUSH1 0x1 PUSH1 0xA0 SHL SUB AND SWAP1 PUSH4 0xE00F0DAE SWAP1 PUSH2 0x2066 SWAP1 CALLER SWAP1 PUSH1 0x4 ADD PUSH2 0x815E JUMP JUMPDEST PUSH1 0x20 PUSH1 0x40 MLOAD DUP1 DUP4 SUB DUP2 DUP7 GAS STATICCALL ISZERO DUP1 ISZERO PUSH2 0x2081 JUMPI RETURNDATASIZE PUSH0 DUP1 RETURNDATACOPY RETURNDATASIZE PUSH0 REVERT JUMPDEST POP POP POP POP PUSH1 0x40 MLOAD RETURNDATASIZE PUSH1 0x1F NOT PUSH1 0x1F DUP3 ADD AND DUP3 ADD DUP1 PUSH1 0x40 MSTORE POP DUP2 ADD SWAP1 PUSH2 0x20A5 SWAP2 SWAP1 PUSH2 0x9256 JUMP JUMPDEST SWAP1 POP PUSH1 0x1 PUSH1 0x1 PUSH1 0xA0 SHL SUB DUP2 AND PUSH2 0x2112 JUMPI PUSH1 0x40 DUP1 MLOAD PUSH3 0x461BCD PUSH1 0xE5 SHL DUP2 MSTORE PUSH1 0x20 PUSH1 0x4 DUP3 ADD MSTORE PUSH1 0x24 DUP2 ADD SWAP2 SWAP1 SWAP2 MSTORE PUSH0 DUP1 MLOAD PUSH1 0x20 PUSH2 0x94A0 DUP4 CODECOPY DUP2 MLOAD SWAP2 MSTORE PUSH1 0x44 DUP3 ADD MSTORE PUSH32 0x2031322C20226D657373616765223A2255736572206E6F74206578697374227D PUSH1 0x64 DUP3 ADD MSTORE PUSH1 0x84 ADD PUSH2 0xB1C JUMP JUMPDEST PUSH1 0xE DUP1 SLOAD SWAP1 PUSH0 PUSH2 0x2121 DUP4 PUSH2 0x8992 JUMP JUMPDEST SWAP2 SWAP1 POP SSTORE POP PUSH0 PUSH2 0x2131 DUP7 CALLER PUSH2 0x6A45 JUMP JUMPDEST SWAP1 POP PUSH0 PUSH1 0x40 MLOAD DUP1 PUSH2 0x260 ADD PUSH1 0x40 MSTORE DUP1 PUSH1 0xE SLOAD DUP2 MSTORE PUSH1 0x20 ADD DUP5 PUSH1 0x1 PUSH1 0x1 PUSH1 0xA0 SHL SUB AND DUP2 MSTORE PUSH1 0x20 ADD CALLER PUSH1 0x1 PUSH1 0x1 PUSH1 0xA0 SHL SUB AND DUP2 MSTORE PUSH1 0x20 ADD PUSH0 DUP2 MSTORE PUSH1 0x20 ADD DUP4 PUSH1 0xC0 ADD MLOAD DUP2 MSTORE PUSH1 0x20 ADD DUP4 PUSH0 ADD MLOAD DUP2 MSTORE PUSH1 0x20 ADD DUP4 PUSH1 0x20 ADD MLOAD DUP2 MSTORE PUSH1 0x20 ADD DUP4 PUSH1 0x40 ADD MLOAD DUP2 MSTORE PUSH1 0x20 ADD DUP4 PUSH1 0x60 ADD MLOAD DUP2 MSTORE PUSH1 0x20 ADD DUP4 PUSH1 0x80 ADD MLOAD DUP2 MSTORE PUSH1 0x20 ADD DUP4 PUSH1 0xA0 ADD MLOAD DUP2 MSTORE PUSH1 0x20 ADD DUP4 PUSH1 0xE0 ADD MLOAD DUP2 MSTORE PUSH1 0x20 ADD DUP7 PUSH1 0x40 ADD MLOAD PUSH1 0x1 DUP2 GT ISZERO PUSH2 0x21D1 JUMPI PUSH2 0x21D1 PUSH2 0x867E JUMP JUMPDEST PUSH1 0xFF AND DUP2 MSTORE PUSH1 0x20 ADD PUSH1 0x1 DUP8 PUSH1 0x40 ADD MLOAD PUSH1 0x1 DUP2 GT ISZERO PUSH2 0x21F1 JUMPI PUSH2 0x21F1 PUSH2 0x867E JUMP JUMPDEST EQ PUSH2 0x21FD JUMPI PUSH1 0x1 PUSH2 0x2200 JUMP JUMPDEST PUSH1 0x4 JUMPDEST PUSH1 0xFF AND DUP2 MSTORE PUSH1 0x20 ADD DUP7 PUSH1 0x20 ADD MLOAD DUP2 MSTORE PUSH1 0x20 ADD PUSH0 DUP2 MSTORE PUSH1 0x20 ADD PUSH0 DUP2 MSTORE PUSH1 0x20 ADD DUP7 PUSH1 0x60 ADD MLOAD PUSH1 0x1 DUP2 GT ISZERO PUSH2 0x2234 JUMPI PUSH2 0x2234 PUSH2 0x867E JUMP JUMPDEST PUSH1 0xFF AND DUP2 MSTORE TIMESTAMP PUSH1 0x20 SWAP2 DUP3 ADD MSTORE PUSH1 0xE SLOAD PUSH0 SWAP1 DUP2 MSTORE PUSH1 0x1 DUP1 DUP4 MSTORE PUSH1 0x40 SWAP2 DUP3 SWAP1 KECCAK256 DUP5 MLOAD DUP2 SSTORE DUP5 DUP5 ADD MLOAD SWAP2 DUP2 ADD DUP1 SLOAD PUSH1 0x1 PUSH1 0x1 PUSH1 0xA0 SHL SUB SWAP4 DUP5 AND PUSH1 0x1 PUSH1 0x1 PUSH1 0xA0 SHL SUB NOT SWAP2 DUP3 AND OR SWAP1 SWAP2 SSTORE SWAP3 DUP6 ADD MLOAD PUSH1 0x2 DUP3 ADD DUP1 SLOAD SWAP2 SWAP1 SWAP4 AND SWAP4 AND SWAP3 SWAP1 SWAP3 OR SWAP1 SSTORE PUSH1 0x60 DUP4 ADD MLOAD PUSH1 0x3 DUP3 ADD SSTORE PUSH1 0x80 DUP4 ADD MLOAD DUP1 MLOAD SWAP4 SWAP5 POP DUP5 SWAP4 SWAP2 SWAP3 PUSH2 0x22BA SWAP3 PUSH1 0x4 DUP6 ADD SWAP3 SWAP1 SWAP2 ADD SWAP1 PUSH2 0x7364 JUMP JUMPDEST POP PUSH1 0xA0 DUP3 ADD MLOAD DUP1 MLOAD PUSH2 0x22D6 SWAP2 PUSH1 0x5 DUP5 ADD SWAP2 PUSH1 0x20 SWAP1 SWAP2 ADD SWAP1 PUSH2 0x7364 JUMP JUMPDEST POP PUSH1 0xC0 DUP3 ADD MLOAD DUP1 MLOAD PUSH2 0x22F2 SWAP2 PUSH1 0x6 DUP5 ADD SWAP2 PUSH1 0x20 SWAP1 SWAP2 ADD SWAP1 PUSH2 0x7364 JUMP JUMPDEST POP PUSH1 0xE0 DUP3 ADD MLOAD DUP1 MLOAD PUSH2 0x230E SWAP2 PUSH1 0x7 DUP5 ADD SWAP2 PUSH1 0x20 SWAP1 SWAP2 ADD SWAP1 PUSH2 0x7364 JUMP JUMPDEST POP PUSH2 0x100 DUP3 ADD MLOAD DUP1 MLOAD PUSH2 0x232B SWAP2 PUSH1 0x8 DUP5 ADD SWAP2 PUSH1 0x20 SWAP1 SWAP2 ADD SWAP1 PUSH2 0x7364 JUMP JUMPDEST POP PUSH2 0x120 DUP3 ADD MLOAD DUP1 MLOAD PUSH2 0x2348 SWAP2 PUSH1 0x9 DUP5 ADD SWAP2 PUSH1 0x20 SWAP1 SWAP2 ADD SWAP1 PUSH2 0x7364 JUMP JUMPDEST POP PUSH2 0x140 DUP3 ADD MLOAD DUP1 MLOAD PUSH2 0x2365 SWAP2 PUSH1 0xA DUP5 ADD SWAP2 PUSH1 0x20 SWAP1 SWAP2 ADD SWAP1 PUSH2 0x7364 JUMP JUMPDEST POP PUSH2 0x160 DUP3 ADD MLOAD PUSH1 0xB DUP3 ADD SSTORE PUSH2 0x180 DUP3 ADD MLOAD PUSH1 0xC DUP3 ADD DUP1 SLOAD PUSH2 0x1A0 DUP6 ADD MLOAD PUSH1 0xFF SWAP1 DUP2 AND PUSH2 0x100 MUL PUSH2 0xFFFF NOT SWAP1 SWAP3 AND SWAP4 DUP2 AND SWAP4 SWAP1 SWAP4 OR OR SWAP1 SSTORE PUSH2 0x1C0 DUP4 ADD MLOAD PUSH1 0xD DUP4 ADD SSTORE PUSH2 0x1E0 DUP4 ADD MLOAD PUSH1 0xE DUP4 ADD SSTORE PUSH2 0x200 DUP4 ADD MLOAD PUSH1 0xF DUP4 ADD SSTORE PUSH2 0x220 DUP4 ADD MLOAD PUSH1 0x10 DUP4 ADD DUP1 SLOAD SWAP2 SWAP1 SWAP3 AND PUSH1 0xFF NOT SWAP2 SWAP1 SWAP2 AND OR SWAP1 SSTORE PUSH2 0x240 SWAP1 SWAP2 ADD MLOAD PUSH1 0x11 SWAP1 SWAP2 ADD SSTORE PUSH0 DUP6 PUSH1 0x40 ADD MLOAD PUSH1 0x1 DUP2 GT ISZERO PUSH2 0x23FC JUMPI PUSH2 0x23FC PUSH2 0x867E JUMP JUMPDEST SUB PUSH2 0x240E JUMPI PUSH2 0x240E DUP7 PUSH1 0xE SLOAD CALLER PUSH2 0x8C9 JUMP JUMPDEST PUSH1 0xE SLOAD PUSH1 0x40 DUP1 MLOAD TIMESTAMP PUSH1 0x20 DUP3 ADD MSTORE NUMBER SWAP2 DUP2 ADD SWAP2 SWAP1 SWAP2 MSTORE CALLER PUSH1 0x60 DUP3 ADD MSTORE PUSH1 0x80 DUP2 ADD SWAP2 SWAP1 SWAP2 MSTORE PUSH0 SWAP1 PUSH1 0xA0 ADD PUSH1 0x40 DUP1 MLOAD PUSH1 0x1F NOT DUP2 DUP5 SUB ADD DUP2 MSTORE SWAP1 DUP3 SWAP1 MSTORE DUP1 MLOAD PUSH1 0x20 SWAP2 DUP3 ADD KECCAK256 DUP1 DUP4 MSTORE SWAP3 POP PUSH32 0x4EC76446EB2AF2942C36AA8107DCFB0B8549BD84D1646289D0103AB8F6BF7A4E SWAP2 ADD PUSH1 0x40 MLOAD DUP1 SWAP2 SUB SWAP1 LOG1 CALLER PUSH0 SWAP1 DUP2 MSTORE PUSH1 0x4 PUSH1 0x20 MSTORE PUSH1 0x40 SWAP1 KECCAK256 DUP2 SWAP1 SSTORE PUSH1 0x80 DUP3 ADD MLOAD MLOAD ISZERO PUSH2 0x24DB JUMPI PUSH0 JUMPDEST DUP3 PUSH1 0x80 ADD MLOAD MLOAD DUP2 LT ISZERO PUSH2 0x24D9 JUMPI PUSH2 0x24D1 CALLER DUP5 PUSH1 0x80 ADD MLOAD DUP4 DUP2 MLOAD DUP2 LT PUSH2 0x24C4 JUMPI PUSH2 0x24C4 PUSH2 0x8C2F JUMP JUMPDEST PUSH1 0x20 MUL PUSH1 0x20 ADD ADD MLOAD PUSH2 0x7263 JUMP JUMPDEST PUSH1 0x1 ADD PUSH2 0x249D JUMP JUMPDEST POP JUMPDEST PUSH1 0x20 SWAP2 DUP3 ADD MLOAD PUSH1 0x1 PUSH1 0x1 PUSH1 0xA0 SHL SUB AND PUSH0 SWAP1 DUP2 MSTORE PUSH1 0x2 DUP4 MSTORE PUSH1 0x40 DUP1 DUP3 KECCAK256 PUSH1 0xE DUP1 SLOAD DUP3 SLOAD PUSH1 0x1 DUP1 DUP3 ADD DUP6 SSTORE SWAP4 DUP7 MSTORE DUP8 DUP7 KECCAK256 ADD SSTORE SLOAD PUSH1 0x3 DUP1 SLOAD SWAP3 DUP4 ADD SWAP1 SSTORE PUSH32 0xC2575A0E9E593C00F959F8C92F12DB2869C3395A3B0502D05E2516446F71F85B SWAP1 SWAP2 ADD DUP2 SWAP1 SSTORE DUP4 DUP4 MSTORE PUSH1 0x5 SWAP1 SWAP5 MSTORE SWAP1 KECCAK256 SWAP2 SWAP1 SWAP2 SSTORE SWAP7 SWAP6 POP POP POP POP POP POP JUMP JUMPDEST PUSH2 0x255D PUSH2 0x7475 JUMP JUMPDEST PUSH0 DUP3 GT PUSH2 0x25A0 PUSH1 0x6 PUSH1 0x40 MLOAD DUP1 PUSH1 0x40 ADD PUSH1 0x40 MSTORE DUP1 PUSH1 0x1F DUP2 MSTORE PUSH1 0x20 ADD PUSH32 0x5175616E74697479206D7573742062652067726561746572207468616E203000 DUP2 MSTORE POP PUSH2 0xD6F JUMP JUMPDEST SWAP1 PUSH2 0x25BE JUMPI PUSH1 0x40 MLOAD PUSH3 0x461BCD PUSH1 0xE5 SHL DUP2 MSTORE PUSH1 0x4 ADD PUSH2 0xB1C SWAP2 SWAP1 PUSH2 0x7D4C JUMP JUMPDEST POP CALLER PUSH0 SWAP1 DUP2 MSTORE PUSH1 0x20 DUP2 DUP2 MSTORE PUSH1 0x40 SWAP2 DUP3 SWAP1 KECCAK256 DUP1 SLOAD DUP4 MLOAD DUP1 DUP6 ADD SWAP1 SWAP5 MSTORE PUSH1 0x13 DUP5 MSTORE PUSH19 0x10D85C9D08191BD95CC81B9BDD08195E1A5CDD PUSH1 0x6A SHL SWAP3 DUP5 ADD SWAP3 SWAP1 SWAP3 MSTORE SWAP2 SWAP1 ISZERO ISZERO SWAP1 PUSH2 0x260C SWAP1 PUSH1 0x7 SWAP1 PUSH2 0xD6F JUMP JUMPDEST SWAP1 PUSH2 0x262A JUMPI PUSH1 0x40 MLOAD PUSH3 0x461BCD PUSH1 0xE5 SHL DUP2 MSTORE PUSH1 0x4 ADD PUSH2 0xB1C SWAP2 SWAP1 PUSH2 0x7D4C JUMP JUMPDEST POP PUSH0 DUP1 JUMPDEST PUSH1 0x2 DUP4 ADD SLOAD DUP2 LT ISZERO PUSH2 0x2809 JUMPI DUP6 DUP4 PUSH1 0x2 ADD DUP3 DUP2 SLOAD DUP2 LT PUSH2 0x2650 JUMPI PUSH2 0x2650 PUSH2 0x8C2F JUMP JUMPDEST SWAP1 PUSH0 MSTORE PUSH1 0x20 PUSH0 KECCAK256 SWAP1 PUSH1 0x5 MUL ADD PUSH0 ADD SLOAD SUB PUSH2 0x2801 JUMPI PUSH1 0x12 SLOAD PUSH1 0x2 DUP5 ADD DUP1 SLOAD PUSH0 SWAP3 PUSH1 0x1 PUSH1 0x1 PUSH1 0xA0 SHL SUB AND SWAP2 PUSH3 0x41C629 SWAP2 DUP6 SWAP1 DUP2 LT PUSH2 0x268E JUMPI PUSH2 0x268E PUSH2 0x8C2F JUMP JUMPDEST SWAP1 PUSH0 MSTORE PUSH1 0x20 PUSH0 KECCAK256 SWAP1 PUSH1 0x5 MUL ADD PUSH1 0x1 ADD SLOAD DUP7 PUSH1 0x2 ADD DUP6 DUP2 SLOAD DUP2 LT PUSH2 0x26B3 JUMPI PUSH2 0x26B3 PUSH2 0x8C2F JUMP JUMPDEST SWAP1 PUSH0 MSTORE PUSH1 0x20 PUSH0 KECCAK256 SWAP1 PUSH1 0x5 MUL ADD PUSH1 0x3 ADD SLOAD PUSH1 0x40 MLOAD DUP4 PUSH4 0xFFFFFFFF AND PUSH1 0xE0 SHL DUP2 MSTORE PUSH1 0x4 ADD PUSH2 0x26E0 SWAP3 SWAP2 SWAP1 PUSH2 0x9126 JUMP JUMPDEST PUSH1 0xC0 PUSH1 0x40 MLOAD DUP1 DUP4 SUB DUP2 DUP7 GAS STATICCALL ISZERO DUP1 ISZERO PUSH2 0x26FB JUMPI RETURNDATASIZE PUSH0 DUP1 RETURNDATACOPY RETURNDATASIZE PUSH0 REVERT JUMPDEST POP POP POP POP PUSH1 0x40 MLOAD RETURNDATASIZE PUSH1 0x1F NOT PUSH1 0x1F DUP3 ADD AND DUP3 ADD DUP1 PUSH1 0x40 MSTORE POP DUP2 ADD SWAP1 PUSH2 0x271F SWAP2 SWAP1 PUSH2 0x9134 JUMP JUMPDEST SWAP1 POP DUP6 DUP2 PUSH1 0x20 ADD MLOAD PUSH1 0x80 ADD MLOAD LT ISZERO PUSH2 0x2750 PUSH1 0x8 PUSH1 0x40 MLOAD DUP1 PUSH1 0x60 ADD PUSH1 0x40 MSTORE DUP1 PUSH1 0x2C DUP2 MSTORE PUSH1 0x20 ADD PUSH2 0x9569 PUSH1 0x2C SWAP2 CODECOPY PUSH2 0xD6F JUMP JUMPDEST SWAP1 PUSH2 0x276E JUMPI PUSH1 0x40 MLOAD PUSH3 0x461BCD PUSH1 0xE5 SHL DUP2 MSTORE PUSH1 0x4 ADD PUSH2 0xB1C SWAP2 SWAP1 PUSH2 0x7D4C JUMP JUMPDEST POP DUP6 DUP5 PUSH1 0x2 ADD DUP4 DUP2 SLOAD DUP2 LT PUSH2 0x2785 JUMPI PUSH2 0x2785 PUSH2 0x8C2F JUMP JUMPDEST SWAP1 PUSH0 MSTORE PUSH1 0x20 PUSH0 KECCAK256 SWAP1 PUSH1 0x5 MUL ADD PUSH1 0x2 ADD DUP2 SWAP1 SSTORE POP DUP4 PUSH1 0x2 ADD DUP3 DUP2 SLOAD DUP2 LT PUSH2 0x27AD JUMPI PUSH2 0x27AD PUSH2 0x8C2F JUMP JUMPDEST SWAP1 PUSH0 MSTORE PUSH1 0x20 PUSH0 KECCAK256 SWAP1 PUSH1 0x5 MUL ADD PUSH1 0x40 MLOAD DUP1 PUSH1 0xA0 ADD PUSH1 0x40 MSTORE SWAP1 DUP2 PUSH0 DUP3 ADD SLOAD DUP2 MSTORE PUSH1 0x20 ADD PUSH1 0x1 DUP3 ADD SLOAD DUP2 MSTORE PUSH1 0x20 ADD PUSH1 0x2 DUP3 ADD SLOAD DUP2 MSTORE PUSH1 0x20 ADD PUSH1 0x3 DUP3 ADD SLOAD DUP2 MSTORE PUSH1 0x20 ADD PUSH1 0x4 DUP3 ADD SLOAD DUP2 MSTORE POP POP SWAP5 POP PUSH1 0x1 SWAP3 POP POP PUSH2 0x2809 JUMP JUMPDEST PUSH1 0x1 ADD PUSH2 0x262E JUMP JUMPDEST POP DUP1 PUSH2 0x2844 PUSH1 0x9 PUSH1 0x40 MLOAD DUP1 PUSH1 0x40 ADD PUSH1 0x40 MSTORE DUP1 PUSH1 0x16 DUP2 MSTORE PUSH1 0x20 ADD PUSH22 0x125D195B481B9BDD08199BDD5B99081A5B8818D85C9D PUSH1 0x52 SHL DUP2 MSTORE POP PUSH2 0xD6F JUMP JUMPDEST SWAP1 PUSH2 0x2862 JUMPI PUSH1 0x40 MLOAD PUSH3 0x461BCD PUSH1 0xE5 SHL DUP2 MSTORE PUSH1 0x4 ADD PUSH2 0xB1C SWAP2 SWAP1 PUSH2 0x7D4C JUMP JUMPDEST POP POP POP SWAP3 SWAP2 POP POP JUMP JUMPDEST PUSH2 0x2873 PUSH2 0x74D8 JUMP JUMPDEST PUSH0 DUP3 DUP2 MSTORE PUSH1 0xA PUSH1 0x20 SWAP1 DUP2 MSTORE PUSH1 0x40 DUP1 DUP4 KECCAK256 SLOAD DUP4 MSTORE PUSH1 0x9 DUP3 MSTORE SWAP2 DUP3 SWAP1 KECCAK256 DUP3 MLOAD PUSH1 0x80 DUP2 ADD DUP5 MSTORE DUP2 SLOAD DUP2 MSTORE PUSH1 0x1 DUP3 ADD SLOAD SWAP3 DUP2 ADD SWAP3 SWAP1 SWAP3 MSTORE PUSH1 0x2 DUP2 ADD SLOAD PUSH1 0x1 PUSH1 0x1 PUSH1 0xA0 SHL SUB AND DUP3 DUP5 ADD MSTORE DUP3 MLOAD PUSH2 0x120 DUP2 ADD SWAP1 SWAP4 MSTORE PUSH1 0x3 DUP2 ADD DUP1 SLOAD SWAP3 SWAP4 SWAP2 SWAP3 PUSH1 0x60 DUP6 ADD SWAP3 SWAP2 SWAP1 DUP3 SWAP1 DUP3 SWAP1 PUSH2 0x28E0 SWAP1 PUSH2 0x89AA JUMP JUMPDEST DUP1 PUSH1 0x1F ADD PUSH1 0x20 DUP1 SWAP2 DIV MUL PUSH1 0x20 ADD PUSH1 0x40 MLOAD SWAP1 DUP2 ADD PUSH1 0x40 MSTORE DUP1 SWAP3 SWAP2 SWAP1 DUP2 DUP2 MSTORE PUSH1 0x20 ADD DUP3 DUP1 SLOAD PUSH2 0x290C SWAP1 PUSH2 0x89AA JUMP JUMPDEST DUP1 ISZERO PUSH2 0x2957 JUMPI DUP1 PUSH1 0x1F LT PUSH2 0x292E JUMPI PUSH2 0x100 DUP1 DUP4 SLOAD DIV MUL DUP4 MSTORE SWAP2 PUSH1 0x20 ADD SWAP2 PUSH2 0x2957 JUMP JUMPDEST DUP3 ADD SWAP2 SWAP1 PUSH0 MSTORE PUSH1 0x20 PUSH0 KECCAK256 SWAP1 JUMPDEST DUP2 SLOAD DUP2 MSTORE SWAP1 PUSH1 0x1 ADD SWAP1 PUSH1 0x20 ADD DUP1 DUP4 GT PUSH2 0x293A JUMPI DUP3 SWAP1 SUB PUSH1 0x1F AND DUP3 ADD SWAP2 JUMPDEST POP POP POP POP POP DUP2 MSTORE PUSH1 0x20 ADD PUSH1 0x1 DUP3 ADD DUP1 SLOAD PUSH2 0x2970 SWAP1 PUSH2 0x89AA JUMP JUMPDEST DUP1 PUSH1 0x1F ADD PUSH1 0x20 DUP1 SWAP2 DIV MUL PUSH1 0x20 ADD PUSH1 0x40 MLOAD SWAP1 DUP2 ADD PUSH1 0x40 MSTORE DUP1 SWAP3 SWAP2 SWAP1 DUP2 DUP2 MSTORE PUSH1 0x20 ADD DUP3 DUP1 SLOAD PUSH2 0x299C SWAP1 PUSH2 0x89AA JUMP JUMPDEST DUP1 ISZERO PUSH2 0x29E7 JUMPI DUP1 PUSH1 0x1F LT PUSH2 0x29BE JUMPI PUSH2 0x100 DUP1 DUP4 SLOAD DIV MUL DUP4 MSTORE SWAP2 PUSH1 0x20 ADD SWAP2 PUSH2 0x29E7 JUMP JUMPDEST DUP3 ADD SWAP2 SWAP1 PUSH0 MSTORE PUSH1 0x20 PUSH0 KECCAK256 SWAP1 JUMPDEST DUP2 SLOAD DUP2 MSTORE SWAP1 PUSH1 0x1 ADD SWAP1 PUSH1 0x20 ADD DUP1 DUP4 GT PUSH2 0x29CA JUMPI DUP3 SWAP1 SUB PUSH1 0x1F AND DUP3 ADD SWAP2 JUMPDEST POP POP POP POP POP DUP2 MSTORE PUSH1 0x20 ADD PUSH1 0x2 DUP3 ADD DUP1 SLOAD PUSH2 0x2A00 SWAP1 PUSH2 0x89AA JUMP JUMPDEST DUP1 PUSH1 0x1F ADD PUSH1 0x20 DUP1 SWAP2 DIV MUL PUSH1 0x20 ADD PUSH1 0x40 MLOAD SWAP1 DUP2 ADD PUSH1 0x40 MSTORE DUP1 SWAP3 SWAP2 SWAP1 DUP2 DUP2 MSTORE PUSH1 0x20 ADD DUP3 DUP1 SLOAD PUSH2 0x2A2C SWAP1 PUSH2 0x89AA JUMP JUMPDEST DUP1 ISZERO PUSH2 0x2A77 JUMPI DUP1 PUSH1 0x1F LT PUSH2 0x2A4E JUMPI PUSH2 0x100 DUP1 DUP4 SLOAD DIV MUL DUP4 MSTORE SWAP2 PUSH1 0x20 ADD SWAP2 PUSH2 0x2A77 JUMP JUMPDEST DUP3 ADD SWAP2 SWAP1 PUSH0 MSTORE PUSH1 0x20 PUSH0 KECCAK256 SWAP1 JUMPDEST DUP2 SLOAD DUP2 MSTORE SWAP1 PUSH1 0x1 ADD SWAP1 PUSH1 0x20 ADD DUP1 DUP4 GT PUSH2 0x2A5A JUMPI DUP3 SWAP1 SUB PUSH1 0x1F AND DUP3 ADD SWAP2 JUMPDEST POP POP POP POP POP DUP2 MSTORE PUSH1 0x20 ADD PUSH1 0x3 DUP3 ADD DUP1 SLOAD PUSH2 0x2A90 SWAP1 PUSH2 0x89AA JUMP JUMPDEST DUP1 PUSH1 0x1F ADD PUSH1 0x20 DUP1 SWAP2 DIV MUL PUSH1 0x20 ADD PUSH1 0x40 MLOAD SWAP1 DUP2 ADD PUSH1 0x40 MSTORE DUP1 SWAP3 SWAP2 SWAP1 DUP2 DUP2 MSTORE PUSH1 0x20 ADD DUP3 DUP1 SLOAD PUSH2 0x2ABC SWAP1 PUSH2 0x89AA JUMP JUMPDEST DUP1 ISZERO PUSH2 0x2B07 JUMPI DUP1 PUSH1 0x1F LT PUSH2 0x2ADE JUMPI PUSH2 0x100 DUP1 DUP4 SLOAD DIV MUL DUP4 MSTORE SWAP2 PUSH1 0x20 ADD SWAP2 PUSH2 0x2B07 JUMP JUMPDEST DUP3 ADD SWAP2 SWAP1 PUSH0 MSTORE PUSH1 0x20 PUSH0 KECCAK256 SWAP1 JUMPDEST DUP2 SLOAD DUP2 MSTORE SWAP1 PUSH1 0x1 ADD SWAP1 PUSH1 0x20 ADD DUP1 DUP4 GT PUSH2 0x2AEA JUMPI DUP3 SWAP1 SUB PUSH1 0x1F AND DUP3 ADD SWAP2 JUMPDEST POP POP POP POP POP DUP2 MSTORE PUSH1 0x20 ADD PUSH1 0x4 DUP3 ADD DUP1 SLOAD PUSH2 0x2B20 SWAP1 PUSH2 0x89AA JUMP JUMPDEST DUP1 PUSH1 0x1F ADD PUSH1 0x20 DUP1 SWAP2 DIV MUL PUSH1 0x20 ADD PUSH1 0x40 MLOAD SWAP1 DUP2 ADD PUSH1 0x40 MSTORE DUP1 SWAP3 SWAP2 SWAP1 DUP2 DUP2 MSTORE PUSH1 0x20 ADD DUP3 DUP1 SLOAD PUSH2 0x2B4C SWAP1 PUSH2 0x89AA JUMP JUMPDEST DUP1 ISZERO PUSH2 0x2B97 JUMPI DUP1 PUSH1 0x1F LT PUSH2 0x2B6E JUMPI PUSH2 0x100 DUP1 DUP4 SLOAD DIV MUL DUP4 MSTORE SWAP2 PUSH1 0x20 ADD SWAP2 PUSH2 0x2B97 JUMP JUMPDEST DUP3 ADD SWAP2 SWAP1 PUSH0 MSTORE PUSH1 0x20 PUSH0 KECCAK256 SWAP1 JUMPDEST DUP2 SLOAD DUP2 MSTORE SWAP1 PUSH1 0x1 ADD SWAP1 PUSH1 0x20 ADD DUP1 DUP4 GT PUSH2 0x2B7A JUMPI DUP3 SWAP1 SUB PUSH1 0x1F AND DUP3 ADD SWAP2 JUMPDEST POP POP POP POP POP DUP2 MSTORE PUSH1 0x20 ADD PUSH1 0x5 DUP3 ADD DUP1 SLOAD PUSH2 0x2BB0 SWAP1 PUSH2 0x89AA JUMP JUMPDEST DUP1 PUSH1 0x1F ADD PUSH1 0x20 DUP1 SWAP2 DIV MUL PUSH1 0x20 ADD PUSH1 0x40 MLOAD SWAP1 DUP2 ADD PUSH1 0x40 MSTORE DUP1 SWAP3 SWAP2 SWAP1 DUP2 DUP2 MSTORE PUSH1 0x20 ADD DUP3 DUP1 SLOAD PUSH2 0x2BDC SWAP1 PUSH2 0x89AA JUMP JUMPDEST DUP1 ISZERO PUSH2 0x2C27 JUMPI DUP1 PUSH1 0x1F LT PUSH2 0x2BFE JUMPI PUSH2 0x100 DUP1 DUP4 SLOAD DIV MUL DUP4 MSTORE SWAP2 PUSH1 0x20 ADD SWAP2 PUSH2 0x2C27 JUMP JUMPDEST DUP3 ADD SWAP2 SWAP1 PUSH0 MSTORE PUSH1 0x20 PUSH0 KECCAK256 SWAP1 JUMPDEST DUP2 SLOAD DUP2 MSTORE SWAP1 PUSH1 0x1 ADD SWAP1 PUSH1 0x20 ADD DUP1 DUP4 GT PUSH2 0x2C0A JUMPI DUP3 SWAP1 SUB PUSH1 0x1F AND DUP3 ADD SWAP2 JUMPDEST POP POP POP POP POP DUP2 MSTORE PUSH1 0x20 ADD PUSH1 0x6 DUP3 ADD DUP1 SLOAD PUSH2 0x2C40 SWAP1 PUSH2 0x89AA JUMP JUMPDEST DUP1 PUSH1 0x1F ADD PUSH1 0x20 DUP1 SWAP2 DIV MUL PUSH1 0x20 ADD PUSH1 0x40 MLOAD SWAP1 DUP2 ADD PUSH1 0x40 MSTORE DUP1 SWAP3 SWAP2 SWAP1 DUP2 DUP2 MSTORE PUSH1 0x20 ADD DUP3 DUP1 SLOAD PUSH2 0x2C6C SWAP1 PUSH2 0x89AA JUMP JUMPDEST DUP1 ISZERO PUSH2 0x2CB7 JUMPI DUP1 PUSH1 0x1F LT PUSH2 0x2C8E JUMPI PUSH2 0x100 DUP1 DUP4 SLOAD DIV MUL DUP4 MSTORE SWAP2 PUSH1 0x20 ADD SWAP2 PUSH2 0x2CB7 JUMP JUMPDEST DUP3 ADD SWAP2 SWAP1 PUSH0 MSTORE PUSH1 0x20 PUSH0 KECCAK256 SWAP1 JUMPDEST DUP2 SLOAD DUP2 MSTORE SWAP1 PUSH1 0x1 ADD SWAP1 PUSH1 0x20 ADD DUP1 DUP4 GT PUSH2 0x2C9A JUMPI DUP3 SWAP1 SUB PUSH1 0x1F AND DUP3 ADD SWAP2 JUMPDEST POP POP POP POP POP DUP2 MSTORE PUSH1 0x20 ADD PUSH1 0x7 DUP3 ADD DUP1 SLOAD PUSH2 0x2CD0 SWAP1 PUSH2 0x89AA JUMP JUMPDEST DUP1 PUSH1 0x1F ADD PUSH1 0x20 DUP1 SWAP2 DIV MUL PUSH1 0x20 ADD PUSH1 0x40 MLOAD SWAP1 DUP2 ADD PUSH1 0x40 MSTORE DUP1 SWAP3 SWAP2 SWAP1 DUP2 DUP2 MSTORE PUSH1 0x20 ADD DUP3 DUP1 SLOAD PUSH2 0x2CFC SWAP1 PUSH2 0x89AA JUMP JUMPDEST DUP1 ISZERO PUSH2 0x2D47 JUMPI DUP1 PUSH1 0x1F LT PUSH2 0x2D1E JUMPI PUSH2 0x100 DUP1 DUP4 SLOAD DIV MUL DUP4 MSTORE SWAP2 PUSH1 0x20 ADD SWAP2 PUSH2 0x2D47 JUMP JUMPDEST DUP3 ADD SWAP2 SWAP1 PUSH0 MSTORE PUSH1 0x20 PUSH0 KECCAK256 SWAP1 JUMPDEST DUP2 SLOAD DUP2 MSTORE SWAP1 PUSH1 0x1 ADD SWAP1 PUSH1 0x20 ADD DUP1 DUP4 GT PUSH2 0x2D2A JUMPI DUP3 SWAP1 SUB PUSH1 0x1F AND DUP3 ADD SWAP2 JUMPDEST POP POP POP POP POP DUP2 MSTORE PUSH1 0x20 ADD PUSH1 0x8 DUP3 ADD DUP1 SLOAD PUSH2 0x2D60 SWAP1 PUSH2 0x89AA JUMP JUMPDEST DUP1 PUSH1 0x1F ADD PUSH1 0x20 DUP1 SWAP2 DIV MUL PUSH1 0x20 ADD PUSH1 0x40 MLOAD SWAP1 DUP2 ADD PUSH1 0x40 MSTORE DUP1 SWAP3 SWAP2 SWAP1 DUP2 DUP2 MSTORE PUSH1 0x20 ADD DUP3 DUP1 SLOAD PUSH2 0x2D8C SWAP1 PUSH2 0x89AA JUMP JUMPDEST DUP1 ISZERO PUSH2 0x2DD7 JUMPI DUP1 PUSH1 0x1F LT PUSH2 0x2DAE JUMPI PUSH2 0x100 DUP1 DUP4 SLOAD DIV MUL DUP4 MSTORE SWAP2 PUSH1 0x20 ADD SWAP2 PUSH2 0x2DD7 JUMP JUMPDEST DUP3 ADD SWAP2 SWAP1 PUSH0 MSTORE PUSH1 0x20 PUSH0 KECCAK256 SWAP1 JUMPDEST DUP2 SLOAD DUP2 MSTORE SWAP1 PUSH1 0x1 ADD SWAP1 PUSH1 0x20 ADD DUP1 DUP4 GT PUSH2 0x2DBA JUMPI DUP3 SWAP1 SUB PUSH1 0x1F AND DUP3 ADD SWAP2 JUMPDEST POP POP POP SWAP2 SWAP1 SWAP3 MSTORE POP POP POP SWAP1 MSTORE POP SWAP3 SWAP2 POP POP JUMP JUMPDEST PUSH0 DUP1 JUMPDEST DUP3 MLOAD DUP2 LT ISZERO PUSH2 0x2E21 JUMPI PUSH2 0x2E19 CALLER DUP5 DUP4 DUP2 MLOAD DUP2 LT PUSH2 0x2E0C JUMPI PUSH2 0x2E0C PUSH2 0x8C2F JUMP JUMPDEST PUSH1 0x20 MUL PUSH1 0x20 ADD ADD MLOAD PUSH2 0x639C JUMP JUMPDEST PUSH1 0x1 ADD PUSH2 0x2DED JUMP JUMPDEST POP PUSH1 0x1 SWAP3 SWAP2 POP POP JUMP JUMPDEST PUSH1 0x17 SLOAD PUSH0 SWAP1 PUSH1 0x1 PUSH1 0x1 PUSH1 0xA0 SHL SUB AND CALLER DUP2 EQ PUSH2 0x2E57 JUMPI PUSH1 0x40 MLOAD PUSH3 0x461BCD PUSH1 0xE5 SHL DUP2 MSTORE PUSH1 0x4 ADD PUSH2 0xB1C SWAP1 PUSH2 0x91FC JUMP JUMPDEST PUSH1 0x14 DUP1 SLOAD PUSH1 0x1 PUSH1 0x1 PUSH1 0xA0 SHL SUB DUP6 AND PUSH1 0x1 PUSH1 0x1 PUSH1 0xA0 SHL SUB NOT SWAP1 SWAP2 AND OR SWAP1 SSTORE PUSH1 0x1 SWAP2 POP POP SWAP2 SWAP1 POP JUMP JUMPDEST PUSH1 0x60 PUSH0 DUP3 MLOAD PUSH1 0x1 PUSH1 0x1 PUSH1 0x40 SHL SUB DUP2 GT ISZERO PUSH2 0x2E9A JUMPI PUSH2 0x2E9A PUSH2 0x767E JUMP JUMPDEST PUSH1 0x40 MLOAD SWAP1 DUP1 DUP3 MSTORE DUP1 PUSH1 0x20 MUL PUSH1 0x20 ADD DUP3 ADD PUSH1 0x40 MSTORE DUP1 ISZERO PUSH2 0x2ED3 JUMPI DUP2 PUSH1 0x20 ADD JUMPDEST PUSH2 0x2EC0 PUSH2 0x7475 JUMP JUMPDEST DUP2 MSTORE PUSH1 0x20 ADD SWAP1 PUSH1 0x1 SWAP1 SUB SWAP1 DUP2 PUSH2 0x2EB8 JUMPI SWAP1 POP JUMPDEST POP SWAP1 POP PUSH0 JUMPDEST DUP4 MLOAD DUP2 LT ISZERO PUSH2 0x2F67 JUMPI PUSH2 0x2F42 DUP5 DUP3 DUP2 MLOAD DUP2 LT PUSH2 0x2EF6 JUMPI PUSH2 0x2EF6 PUSH2 0x8C2F JUMP JUMPDEST PUSH1 0x20 MUL PUSH1 0x20 ADD ADD MLOAD PUSH0 ADD MLOAD DUP6 DUP4 DUP2 MLOAD DUP2 LT PUSH2 0x2F13 JUMPI PUSH2 0x2F13 PUSH2 0x8C2F JUMP JUMPDEST PUSH1 0x20 MUL PUSH1 0x20 ADD ADD MLOAD PUSH1 0x20 ADD MLOAD DUP7 DUP5 DUP2 MLOAD DUP2 LT PUSH2 0x2F31 JUMPI PUSH2 0x2F31 PUSH2 0x8C2F JUMP JUMPDEST PUSH1 0x20 MUL PUSH1 0x20 ADD ADD MLOAD PUSH1 0x40 ADD MLOAD PUSH2 0x11A3 JUMP JUMPDEST DUP3 DUP3 DUP2 MLOAD DUP2 LT PUSH2 0x2F54 JUMPI PUSH2 0x2F54 PUSH2 0x8C2F JUMP JUMPDEST PUSH1 0x20 SWAP1 DUP2 MUL SWAP2 SWAP1 SWAP2 ADD ADD MSTORE PUSH1 0x1 ADD PUSH2 0x2ED8 JUMP JUMPDEST POP SWAP3 SWAP2 POP POP JUMP JUMPDEST PUSH1 0x17 SLOAD PUSH0 SWAP1 PUSH1 0x1 PUSH1 0x1 PUSH1 0xA0 SHL SUB AND CALLER DUP2 EQ PUSH2 0x2F9B JUMPI PUSH1 0x40 MLOAD PUSH3 0x461BCD PUSH1 0xE5 SHL DUP2 MSTORE PUSH1 0x4 ADD PUSH2 0xB1C SWAP1 PUSH2 0x91FC JUMP JUMPDEST PUSH1 0x18 DUP1 SLOAD PUSH1 0x1 PUSH1 0x1 PUSH1 0xA0 SHL SUB DUP6 AND PUSH1 0x1 PUSH1 0x1 PUSH1 0xA0 SHL SUB NOT SWAP1 SWAP2 AND OR SWAP1 SSTORE PUSH1 0x1 SWAP2 POP POP SWAP2 SWAP1 POP JUMP JUMPDEST PUSH0 DUP1 JUMPDEST DUP3 MLOAD DUP2 LT ISZERO PUSH2 0x2E21 JUMPI PUSH2 0x2FF0 DUP4 DUP3 DUP2 MLOAD DUP2 LT PUSH2 0x2FE3 JUMPI PUSH2 0x2FE3 PUSH2 0x8C2F JUMP JUMPDEST PUSH1 0x20 MUL PUSH1 0x20 ADD ADD MLOAD PUSH2 0x3515 JUMP JUMPDEST POP PUSH1 0x1 ADD PUSH2 0x2FC5 JUMP JUMPDEST PUSH1 0x17 SLOAD PUSH0 SWAP1 PUSH1 0x1 PUSH1 0x1 PUSH1 0xA0 SHL SUB AND CALLER DUP2 EQ PUSH2 0x3026 JUMPI PUSH1 0x40 MLOAD PUSH3 0x461BCD PUSH1 0xE5 SHL DUP2 MSTORE PUSH1 0x4 ADD PUSH2 0xB1C SWAP1 PUSH2 0x91FC JUMP JUMPDEST PUSH1 0x19 DUP1 SLOAD PUSH1 0x1 PUSH1 0x1 PUSH1 0xA0 SHL SUB DUP6 AND PUSH1 0x1 PUSH1 0x1 PUSH1 0xA0 SHL SUB NOT SWAP1 SWAP2 AND OR SWAP1 SSTORE PUSH1 0x1 SWAP2 POP POP SWAP2 SWAP1 POP JUMP JUMPDEST PUSH0 DUP1 DUP4 MLOAD GT PUSH2 0x3092 PUSH1 0x2D PUSH1 0x40 MLOAD DUP1 PUSH1 0x40 ADD PUSH1 0x40 MSTORE DUP1 PUSH1 0x20 DUP2 MSTORE PUSH1 0x20 ADD PUSH32 0x5368617265206C696E6B20706172616D73206D757374206E6F7420656D707479 DUP2 MSTORE POP PUSH2 0xD6F JUMP JUMPDEST SWAP1 PUSH2 0x30B0 JUMPI PUSH1 0x40 MLOAD PUSH3 0x461BCD PUSH1 0xE5 SHL DUP2 MSTORE PUSH1 0x4 ADD PUSH2 0xB1C SWAP2 SWAP1 PUSH2 0x7D4C JUMP JUMPDEST POP PUSH2 0x30BA DUP4 PUSH2 0x5EDD JUMP JUMPDEST POP PUSH1 0xC DUP1 SLOAD SWAP1 PUSH0 PUSH2 0x30CA DUP4 PUSH2 0x8992 JUMP JUMPDEST SWAP2 SWAP1 POP SSTORE POP PUSH0 JUMPDEST DUP4 MLOAD DUP2 LT ISZERO PUSH2 0x31A1 JUMPI PUSH1 0x7 PUSH0 PUSH1 0xC SLOAD DUP2 MSTORE PUSH1 0x20 ADD SWAP1 DUP2 MSTORE PUSH1 0x20 ADD PUSH0 KECCAK256 PUSH1 0x1 ADD DUP5 DUP3 DUP2 MLOAD DUP2 LT PUSH2 0x3102 JUMPI PUSH2 0x3102 PUSH2 0x8C2F JUMP JUMPDEST PUSH1 0x20 SWAP1 DUP2 MUL SWAP2 SWAP1 SWAP2 ADD DUP2 ADD MLOAD DUP3 SLOAD PUSH1 0x1 DUP2 ADD DUP5 SSTORE PUSH0 SWAP4 DUP5 MSTORE SWAP3 DUP3 SWAP1 KECCAK256 DUP2 MLOAD DUP1 MLOAD SWAP3 SWAP5 PUSH1 0x5 MUL SWAP1 SWAP2 ADD SWAP3 PUSH2 0x313A SWAP3 DUP5 SWAP3 SWAP1 SWAP2 ADD SWAP1 PUSH2 0x7364 JUMP JUMPDEST POP PUSH1 0x20 DUP3 DUP2 ADD MLOAD DUP1 MLOAD PUSH2 0x3153 SWAP3 PUSH1 0x1 DUP6 ADD SWAP3 ADD SWAP1 PUSH2 0x7364 JUMP JUMPDEST POP PUSH1 0x40 DUP3 ADD MLOAD DUP1 MLOAD PUSH2 0x316F SWAP2 PUSH1 0x2 DUP5 ADD SWAP2 PUSH1 0x20 SWAP1 SWAP2 ADD SWAP1 PUSH2 0x7364 JUMP JUMPDEST POP PUSH1 0x60 DUP3 ADD MLOAD DUP1 MLOAD PUSH2 0x318B SWAP2 PUSH1 0x3 DUP5 ADD SWAP2 PUSH1 0x20 SWAP1 SWAP2 ADD SWAP1 PUSH2 0x7364 JUMP JUMPDEST POP PUSH1 0x80 SWAP2 SWAP1 SWAP2 ADD MLOAD PUSH1 0x4 SWAP1 SWAP2 ADD SSTORE PUSH1 0x1 ADD PUSH2 0x30D1 JUMP JUMPDEST POP POP PUSH1 0xC DUP1 SLOAD PUSH0 DUP2 DUP2 MSTORE PUSH1 0x7 PUSH1 0x20 SWAP1 DUP2 MSTORE PUSH1 0x40 DUP1 DUP4 KECCAK256 SWAP4 DUP5 SSTORE PUSH1 0x3 SWAP1 SWAP4 ADD DUP6 SWAP1 SSTORE DUP4 SLOAD DUP3 MSTORE DUP3 DUP3 KECCAK256 PUSH1 0x2 ADD DUP1 SLOAD PUSH1 0x1 PUSH1 0x1 PUSH1 0xA0 SHL SUB NOT AND CALLER SWAP1 DUP2 OR SWAP1 SWAP2 SSTORE DUP3 MSTORE PUSH1 0x6 DUP2 MSTORE SWAP2 DUP2 KECCAK256 DUP4 SLOAD DUP2 SLOAD PUSH1 0x1 DUP2 ADD DUP4 SSTORE SWAP2 DUP4 MSTORE SWAP3 SWAP1 SWAP2 KECCAK256 ADD SSTORE SLOAD SWAP3 SWAP2 POP POP JUMP JUMPDEST PUSH2 0x320A PUSH2 0x73D1 JUMP JUMPDEST PUSH0 DUP3 DUP2 MSTORE PUSH1 0x5 PUSH1 0x20 SWAP1 DUP2 MSTORE PUSH1 0x40 DUP1 DUP4 KECCAK256 SLOAD DUP1 DUP5 MSTORE PUSH1 0x1 DUP1 DUP5 MSTORE SWAP4 DUP3 SWAP1 KECCAK256 DUP3 MLOAD PUSH2 0x260 DUP2 ADD DUP5 MSTORE DUP2 SLOAD DUP2 MSTORE SWAP5 DUP2 ADD SLOAD PUSH1 0x1 PUSH1 0x1 PUSH1 0xA0 SHL SUB SWAP1 DUP2 AND DUP7 DUP7 ADD MSTORE PUSH1 0x2 DUP3 ADD SLOAD AND DUP6 DUP5 ADD MSTORE PUSH1 0x3 DUP2 ADD SLOAD PUSH1 0x60 DUP7 ADD MSTORE PUSH1 0x4 DUP2 ADD DUP1 SLOAD DUP5 MLOAD DUP2 DUP8 MUL DUP2 ADD DUP8 ADD SWAP1 SWAP6 MSTORE DUP1 DUP6 MSTORE SWAP3 SWAP6 SWAP5 SWAP2 SWAP4 PUSH1 0x80 DUP7 ADD SWAP4 SWAP1 SWAP3 DUP4 ADD DUP3 DUP3 DUP1 ISZERO PUSH2 0x32A9 JUMPI PUSH1 0x20 MUL DUP3 ADD SWAP2 SWAP1 PUSH0 MSTORE PUSH1 0x20 PUSH0 KECCAK256 SWAP1 JUMPDEST DUP2 SLOAD DUP2 MSTORE PUSH1 0x20 ADD SWAP1 PUSH1 0x1 ADD SWAP1 DUP1 DUP4 GT PUSH2 0x3295 JUMPI JUMPDEST POP POP POP POP POP DUP2 MSTORE PUSH1 0x20 ADD PUSH1 0x5 DUP3 ADD DUP1 SLOAD DUP1 PUSH1 0x20 MUL PUSH1 0x20 ADD PUSH1 0x40 MLOAD SWAP1 DUP2 ADD PUSH1 0x40 MSTORE DUP1 SWAP3 SWAP2 SWAP1 DUP2 DUP2 MSTORE PUSH1 0x20 ADD DUP3 DUP1 SLOAD DUP1 ISZERO PUSH2 0x32FF JUMPI PUSH1 0x20 MUL DUP3 ADD SWAP2 SWAP1 PUSH0 MSTORE PUSH1 0x20 PUSH0 KECCAK256 SWAP1 JUMPDEST DUP2 SLOAD DUP2 MSTORE PUSH1 0x20 ADD SWAP1 PUSH1 0x1 ADD SWAP1 DUP1 DUP4 GT PUSH2 0x32EB JUMPI JUMPDEST POP POP POP POP POP DUP2 MSTORE PUSH1 0x20 ADD PUSH1 0x6 DUP3 ADD DUP1 SLOAD DUP1 PUSH1 0x20 MUL PUSH1 0x20 ADD PUSH1 0x40 MLOAD SWAP1 DUP2 ADD PUSH1 0x40 MSTORE DUP1 SWAP3 SWAP2 SWAP1 DUP2 DUP2 MSTORE PUSH1 0x20 ADD DUP3 DUP1 SLOAD DUP1 ISZERO PUSH2 0x3355 JUMPI PUSH1 0x20 MUL DUP3 ADD SWAP2 SWAP1 PUSH0 MSTORE PUSH1 0x20 PUSH0 KECCAK256 SWAP1 JUMPDEST DUP2 SLOAD DUP2 MSTORE PUSH1 0x20 ADD SWAP1 PUSH1 0x1 ADD SWAP1 DUP1 DUP4 GT PUSH2 0x3341 JUMPI JUMPDEST POP POP POP POP POP DUP2 MSTORE PUSH1 0x20 ADD PUSH1 0x7 DUP3 ADD DUP1 SLOAD DUP1 PUSH1 0x20 MUL PUSH1 0x20 ADD PUSH1 0x40 MLOAD SWAP1 DUP2 ADD PUSH1 0x40 MSTORE DUP1 SWAP3 SWAP2 SWAP1 DUP2 DUP2 MSTORE PUSH1 0x20 ADD DUP3 DUP1 SLOAD DUP1 ISZERO PUSH2 0x33AB JUMPI PUSH1 0x20 MUL DUP3 ADD SWAP2 SWAP1 PUSH0 MSTORE PUSH1 0x20 PUSH0 KECCAK256 SWAP1 JUMPDEST DUP2 SLOAD DUP2 MSTORE PUSH1 0x20 ADD SWAP1 PUSH1 0x1 ADD SWAP1 DUP1 DUP4 GT PUSH2 0x3397 JUMPI JUMPDEST POP POP POP POP POP DUP2 MSTORE PUSH1 0x20 ADD PUSH1 0x8 DUP3 ADD DUP1 SLOAD DUP1 PUSH1 0x20 MUL PUSH1 0x20 ADD PUSH1 0x40 MLOAD SWAP1 DUP2 ADD PUSH1 0x40 MSTORE DUP1 SWAP3 SWAP2 SWAP1 DUP2 DUP2 MSTORE PUSH1 0x20 ADD DUP3 DUP1 SLOAD DUP1 ISZERO PUSH2 0x3401 JUMPI PUSH1 0x20 MUL DUP3 ADD SWAP2 SWAP1 PUSH0 MSTORE PUSH1 0x20 PUSH0 KECCAK256 SWAP1 JUMPDEST DUP2 SLOAD DUP2 MSTORE PUSH1 0x20 ADD SWAP1 PUSH1 0x1 ADD SWAP1 DUP1 DUP4 GT PUSH2 0x33ED JUMPI JUMPDEST POP POP POP POP POP DUP2 MSTORE PUSH1 0x20 ADD PUSH1 0x9 DUP3 ADD DUP1 SLOAD DUP1 PUSH1 0x20 MUL PUSH1 0x20 ADD PUSH1 0x40 MLOAD SWAP1 DUP2 ADD PUSH1 0x40 MSTORE DUP1 SWAP3 SWAP2 SWAP1 DUP2 DUP2 MSTORE PUSH1 0x20 ADD DUP3 DUP1 SLOAD DUP1 ISZERO PUSH2 0x3457 JUMPI PUSH1 0x20 MUL DUP3 ADD SWAP2 SWAP1 PUSH0 MSTORE PUSH1 0x20 PUSH0 KECCAK256 SWAP1 JUMPDEST DUP2 SLOAD DUP2 MSTORE PUSH1 0x20 ADD SWAP1 PUSH1 0x1 ADD SWAP1 DUP1 DUP4 GT PUSH2 0x3443 JUMPI JUMPDEST POP POP POP POP POP DUP2 MSTORE PUSH1 0x20 ADD PUSH1 0xA DUP3 ADD DUP1 SLOAD DUP1 PUSH1 0x20 MUL PUSH1 0x20 ADD PUSH1 0x40 MLOAD SWAP1 DUP2 ADD PUSH1 0x40 MSTORE DUP1 SWAP3 SWAP2 SWAP1 DUP2 DUP2 MSTORE PUSH1 0x20 ADD DUP3 DUP1 SLOAD DUP1 ISZERO PUSH2 0x34AD JUMPI PUSH1 0x20 MUL DUP3 ADD SWAP2 SWAP1 PUSH0 MSTORE PUSH1 0x20 PUSH0 KECCAK256 SWAP1 JUMPDEST DUP2 SLOAD DUP2 MSTORE PUSH1 0x20 ADD SWAP1 PUSH1 0x1 ADD SWAP1 DUP1 DUP4 GT PUSH2 0x3499 JUMPI JUMPDEST POP POP POP SWAP2 DUP4 MSTORE POP POP PUSH1 0xB DUP3 ADD SLOAD PUSH1 0x20 DUP3 ADD MSTORE PUSH1 0xC DUP3 ADD SLOAD PUSH1 0xFF DUP1 DUP3 AND PUSH1 0x40 DUP5 ADD MSTORE PUSH2 0x100 SWAP2 DUP3 SWAP1 DIV DUP2 AND PUSH1 0x60 DUP5 ADD MSTORE PUSH1 0xD DUP5 ADD SLOAD PUSH1 0x80 DUP5 ADD MSTORE PUSH1 0xE DUP5 ADD SLOAD PUSH1 0xA0 DUP5 ADD MSTORE PUSH1 0xF DUP5 ADD SLOAD PUSH1 0xC0 DUP5 ADD MSTORE PUSH1 0x10 DUP5 ADD SLOAD AND PUSH1 0xE0 DUP4 ADD MSTORE PUSH1 0x11 SWAP1 SWAP3 ADD SLOAD SWAP2 ADD MSTORE SWAP4 SWAP3 POP POP POP JUMP JUMPDEST PUSH0 DUP2 DUP2 MSTORE PUSH1 0x7 PUSH1 0x20 MSTORE PUSH1 0x40 DUP2 KECCAK256 PUSH1 0x2 DUP2 ADD SLOAD PUSH1 0x1 PUSH1 0x1 PUSH1 0xA0 SHL SUB AND CALLER EQ PUSH2 0x354E JUMPI PUSH1 0x40 MLOAD PUSH3 0x461BCD PUSH1 0xE5 SHL DUP2 MSTORE PUSH1 0x4 ADD PUSH2 0xB1C SWAP1 PUSH2 0x8BC4 JUMP JUMPDEST DUP1 SLOAD PUSH2 0x35AC JUMPI PUSH1 0x40 MLOAD PUSH3 0x461BCD PUSH1 0xE5 SHL DUP2 MSTORE PUSH1 0x20 PUSH1 0x4 DUP3 ADD MSTORE PUSH1 0x47 PUSH1 0x24 DUP3 ADD MSTORE PUSH0 DUP1 MLOAD PUSH1 0x20 PUSH2 0x9595 DUP4 CODECOPY DUP2 MLOAD SWAP2 MSTORE PUSH1 0x44 DUP3 ADD MSTORE PUSH0 DUP1 MLOAD PUSH1 0x20 PUSH2 0x9549 DUP4 CODECOPY DUP2 MLOAD SWAP2 MSTORE PUSH1 0x64 DUP3 ADD MSTORE PUSH7 0x656C696E6B227D PUSH1 0xC8 SHL PUSH1 0x84 DUP3 ADD MSTORE PUSH1 0xA4 ADD PUSH2 0xB1C JUMP JUMPDEST PUSH1 0x2 DUP2 ADD SLOAD PUSH1 0x1 PUSH1 0xA0 SHL SWAP1 DIV PUSH1 0xFF AND PUSH2 0x35CA JUMPI PUSH2 0x35C8 DUP2 PUSH2 0x5D71 JUMP JUMPDEST POP JUMPDEST PUSH0 JUMPDEST CALLER PUSH0 SWAP1 DUP2 MSTORE PUSH1 0x6 PUSH1 0x20 MSTORE PUSH1 0x40 SWAP1 KECCAK256 SLOAD DUP2 LT ISZERO PUSH2 0x36B6 JUMPI CALLER PUSH0 SWAP1 DUP2 MSTORE PUSH1 0x6 PUSH1 0x20 MSTORE PUSH1 0x40 SWAP1 KECCAK256 DUP1 SLOAD DUP6 SWAP2 SWAP1 DUP4 SWAP1 DUP2 LT PUSH2 0x3605 JUMPI PUSH2 0x3605 PUSH2 0x8C2F JUMP JUMPDEST SWAP1 PUSH0 MSTORE PUSH1 0x20 PUSH0 KECCAK256 ADD SLOAD SUB PUSH2 0x36AE JUMPI CALLER PUSH0 SWAP1 DUP2 MSTORE PUSH1 0x6 PUSH1 0x20 MSTORE PUSH1 0x40 SWAP1 KECCAK256 DUP1 SLOAD PUSH2 0x362F SWAP1 PUSH1 0x1 SWAP1 PUSH2 0x9271 JUMP JUMPDEST DUP2 SLOAD DUP2 LT PUSH2 0x363F JUMPI PUSH2 0x363F PUSH2 0x8C2F JUMP JUMPDEST PUSH0 SWAP2 DUP3 MSTORE PUSH1 0x20 DUP1 DUP4 KECCAK256 SWAP1 SWAP2 ADD SLOAD CALLER DUP4 MSTORE PUSH1 0x6 SWAP1 SWAP2 MSTORE PUSH1 0x40 SWAP1 SWAP2 KECCAK256 DUP1 SLOAD DUP4 SWAP1 DUP2 LT PUSH2 0x366B JUMPI PUSH2 0x366B PUSH2 0x8C2F JUMP JUMPDEST PUSH0 SWAP2 DUP3 MSTORE PUSH1 0x20 DUP1 DUP4 KECCAK256 SWAP1 SWAP2 ADD SWAP3 SWAP1 SWAP3 SSTORE CALLER DUP2 MSTORE PUSH1 0x6 SWAP1 SWAP2 MSTORE PUSH1 0x40 SWAP1 KECCAK256 DUP1 SLOAD DUP1 PUSH2 0x3696 JUMPI PUSH2 0x3696 PUSH2 0x9284 JUMP JUMPDEST PUSH1 0x1 SWAP1 SUB DUP2 DUP2 SWAP1 PUSH0 MSTORE PUSH1 0x20 PUSH0 KECCAK256 ADD PUSH0 SWAP1 SSTORE SWAP1 SSTORE PUSH2 0x36B6 JUMP JUMPDEST PUSH1 0x1 ADD PUSH2 0x35CC JUMP JUMPDEST POP PUSH0 DUP4 DUP2 MSTORE PUSH1 0x7 PUSH1 0x20 MSTORE PUSH1 0x40 DUP2 KECCAK256 DUP2 DUP2 SSTORE SWAP1 PUSH2 0x36D5 PUSH1 0x1 DUP4 ADD DUP3 PUSH2 0x7346 JUMP JUMPDEST POP PUSH1 0x2 DUP2 ADD DUP1 SLOAD PUSH1 0x1 PUSH1 0x1 PUSH1 0xA8 SHL SUB NOT AND SWAP1 SSTORE PUSH0 PUSH1 0x3 SWAP1 SWAP2 ADD SSTORE POP PUSH1 0x1 SWAP3 SWAP2 POP POP JUMP JUMPDEST PUSH1 0x17 SLOAD PUSH0 SWAP1 PUSH1 0x1 PUSH1 0x1 PUSH1 0xA0 SHL SUB AND CALLER DUP2 EQ PUSH2 0x3725 JUMPI PUSH1 0x40 MLOAD PUSH3 0x461BCD PUSH1 0xE5 SHL DUP2 MSTORE PUSH1 0x4 ADD PUSH2 0xB1C SWAP1 PUSH2 0x91FC JUMP JUMPDEST PUSH1 0x13 DUP1 SLOAD PUSH1 0x1 PUSH1 0x1 PUSH1 0xA0 SHL SUB DUP6 AND PUSH1 0x1 PUSH1 0x1 PUSH1 0xA0 SHL SUB NOT SWAP1 SWAP2 AND OR SWAP1 SSTORE PUSH1 0x1 SWAP2 POP POP SWAP2 SWAP1 POP JUMP JUMPDEST PUSH1 0x8 PUSH1 0x20 MSTORE DUP1 PUSH0 MSTORE PUSH1 0x40 PUSH0 KECCAK256 PUSH0 SWAP2 POP SWAP1 POP DUP1 PUSH1 0x1 ADD PUSH1 0x40 MLOAD DUP1 PUSH2 0x120 ADD PUSH1 0x40 MSTORE SWAP1 DUP2 PUSH0 DUP3 ADD DUP1 SLOAD PUSH2 0x377C SWAP1 PUSH2 0x89AA JUMP JUMPDEST DUP1 PUSH1 0x1F ADD PUSH1 0x20 DUP1 SWAP2 DIV MUL PUSH1 0x20 ADD PUSH1 0x40 MLOAD SWAP1 DUP2 ADD PUSH1 0x40 MSTORE DUP1 SWAP3 SWAP2 SWAP1 DUP2 DUP2 MSTORE PUSH1 0x20 ADD DUP3 DUP1 SLOAD PUSH2 0x37A8 SWAP1 PUSH2 0x89AA JUMP JUMPDEST DUP1 ISZERO PUSH2 0x37F3 JUMPI DUP1 PUSH1 0x1F LT PUSH2 0x37CA JUMPI PUSH2 0x100 DUP1 DUP4 SLOAD DIV MUL DUP4 MSTORE SWAP2 PUSH1 0x20 ADD SWAP2 PUSH2 0x37F3 JUMP JUMPDEST DUP3 ADD SWAP2 SWAP1 PUSH0 MSTORE PUSH1 0x20 PUSH0 KECCAK256 SWAP1 JUMPDEST DUP2 SLOAD DUP2 MSTORE SWAP1 PUSH1 0x1 ADD SWAP1 PUSH1 0x20 ADD DUP1 DUP4 GT PUSH2 0x37D6 JUMPI DUP3 SWAP1 SUB PUSH1 0x1F AND DUP3 ADD SWAP2 JUMPDEST POP POP POP POP POP DUP2 MSTORE PUSH1 0x20 ADD PUSH1 0x1 DUP3 ADD DUP1 SLOAD PUSH2 0x380C SWAP1 PUSH2 0x89AA JUMP JUMPDEST DUP1 PUSH1 0x1F ADD PUSH1 0x20 DUP1 SWAP2 DIV MUL PUSH1 0x20 ADD PUSH1 0x40 MLOAD SWAP1 DUP2 ADD PUSH1 0x40 MSTORE DUP1 SWAP3 SWAP2 SWAP1 DUP2 DUP2 MSTORE PUSH1 0x20 ADD DUP3 DUP1 SLOAD PUSH2 0x3838 SWAP1 PUSH2 0x89AA JUMP JUMPDEST DUP1 ISZERO PUSH2 0x3883 JUMPI DUP1 PUSH1 0x1F LT PUSH2 0x385A JUMPI PUSH2 0x100 DUP1 DUP4 SLOAD DIV MUL DUP4 MSTORE SWAP2 PUSH1 0x20 ADD SWAP2 PUSH2 0x3883 JUMP JUMPDEST DUP3 ADD SWAP2 SWAP1 PUSH0 MSTORE PUSH1 0x20 PUSH0 KECCAK256 SWAP1 JUMPDEST DUP2 SLOAD DUP2 MSTORE SWAP1 PUSH1 0x1 ADD SWAP1 PUSH1 0x20 ADD DUP1 DUP4 GT PUSH2 0x3866 JUMPI DUP3 SWAP1 SUB PUSH1 0x1F AND DUP3 ADD SWAP2 JUMPDEST POP POP POP POP POP DUP2 MSTORE PUSH1 0x20 ADD PUSH1 0x2 DUP3 ADD DUP1 SLOAD PUSH2 0x389C SWAP1 PUSH2 0x89AA JUMP JUMPDEST DUP1 PUSH1 0x1F ADD PUSH1 0x20 DUP1 SWAP2 DIV MUL PUSH1 0x20 ADD PUSH1 0x40 MLOAD SWAP1 DUP2 ADD PUSH1 0x40 MSTORE DUP1 SWAP3 SWAP2 SWAP1 DUP2 DUP2 MSTORE PUSH1 0x20 ADD DUP3 DUP1 SLOAD PUSH2 0x38C8 SWAP1 PUSH2 0x89AA JUMP JUMPDEST DUP1 ISZERO PUSH2 0x3913 JUMPI DUP1 PUSH1 0x1F LT PUSH2 0x38EA JUMPI PUSH2 0x100 DUP1 DUP4 SLOAD DIV MUL DUP4 MSTORE SWAP2 PUSH1 0x20 ADD SWAP2 PUSH2 0x3913 JUMP JUMPDEST DUP3 ADD SWAP2 SWAP1 PUSH0 MSTORE PUSH1 0x20 PUSH0 KECCAK256 SWAP1 JUMPDEST DUP2 SLOAD DUP2 MSTORE SWAP1 PUSH1 0x1 ADD SWAP1 PUSH1 0x20 ADD DUP1 DUP4 GT PUSH2 0x38F6 JUMPI DUP3 SWAP1 SUB PUSH1 0x1F AND DUP3 ADD SWAP2 JUMPDEST POP POP POP POP POP DUP2 MSTORE PUSH1 0x20 ADD PUSH1 0x3 DUP3 ADD DUP1 SLOAD PUSH2 0x392C SWAP1 PUSH2 0x89AA JUMP JUMPDEST DUP1 PUSH1 0x1F ADD PUSH1 0x20 DUP1 SWAP2 DIV MUL PUSH1 0x20 ADD PUSH1 0x40 MLOAD SWAP1 DUP2 ADD PUSH1 0x40 MSTORE DUP1 SWAP3 SWAP2 SWAP1 DUP2 DUP2 MSTORE PUSH1 0x20 ADD DUP3 DUP1 SLOAD PUSH2 0x3958 SWAP1 PUSH2 0x89AA JUMP JUMPDEST DUP1 ISZERO PUSH2 0x39A3 JUMPI DUP1 PUSH1 0x1F LT PUSH2 0x397A JUMPI PUSH2 0x100 DUP1 DUP4 SLOAD DIV MUL DUP4 MSTORE SWAP2 PUSH1 0x20 ADD SWAP2 PUSH2 0x39A3 JUMP JUMPDEST DUP3 ADD SWAP2 SWAP1 PUSH0 MSTORE PUSH1 0x20 PUSH0 KECCAK256 SWAP1 JUMPDEST DUP2 SLOAD DUP2 MSTORE SWAP1 PUSH1 0x1 ADD SWAP1 PUSH1 0x20 ADD DUP1 DUP4 GT PUSH2 0x3986 JUMPI DUP3 SWAP1 SUB PUSH1 0x1F AND DUP3 ADD SWAP2 JUMPDEST POP POP POP POP POP DUP2 MSTORE PUSH1 0x20 ADD PUSH1 0x4 DUP3 ADD DUP1 SLOAD PUSH2 0x39BC SWAP1 PUSH2 0x89AA JUMP JUMPDEST DUP1 PUSH1 0x1F ADD PUSH1 0x20 DUP1 SWAP2 DIV MUL PUSH1 0x20 ADD PUSH1 0x40 MLOAD SWAP1 DUP2 ADD PUSH1 0x40 MSTORE DUP1 SWAP3 SWAP2 SWAP1 DUP2 DUP2 MSTORE PUSH1 0x20 ADD DUP3 DUP1 SLOAD PUSH2 0x39E8 SWAP1 PUSH2 0x89AA JUMP JUMPDEST DUP1 ISZERO PUSH2 0x3A33 JUMPI DUP1 PUSH1 0x1F LT PUSH2 0x3A0A JUMPI PUSH2 0x100 DUP1 DUP4 SLOAD DIV MUL DUP4 MSTORE SWAP2 PUSH1 0x20 ADD SWAP2 PUSH2 0x3A33 JUMP JUMPDEST DUP3 ADD SWAP2 SWAP1 PUSH0 MSTORE PUSH1 0x20 PUSH0 KECCAK256 SWAP1 JUMPDEST DUP2 SLOAD DUP2 MSTORE SWAP1 PUSH1 0x1 ADD SWAP1 PUSH1 0x20 ADD DUP1 DUP4 GT PUSH2 0x3A16 JUMPI DUP3 SWAP1 SUB PUSH1 0x1F AND DUP3 ADD SWAP2 JUMPDEST POP POP POP POP POP DUP2 MSTORE PUSH1 0x20 ADD PUSH1 0x5 DUP3 ADD DUP1 SLOAD PUSH2 0x3A4C SWAP1 PUSH2 0x89AA JUMP JUMPDEST DUP1 PUSH1 0x1F ADD PUSH1 0x20 DUP1 SWAP2 DIV MUL PUSH1 0x20 ADD PUSH1 0x40 MLOAD SWAP1 DUP2 ADD PUSH1 0x40 MSTORE DUP1 SWAP3 SWAP2 SWAP1 DUP2 DUP2 MSTORE PUSH1 0x20 ADD DUP3 DUP1 SLOAD PUSH2 0x3A78 SWAP1 PUSH2 0x89AA JUMP JUMPDEST DUP1 ISZERO PUSH2 0x3AC3 JUMPI DUP1 PUSH1 0x1F LT PUSH2 0x3A9A JUMPI PUSH2 0x100 DUP1 DUP4 SLOAD DIV MUL DUP4 MSTORE SWAP2 PUSH1 0x20 ADD SWAP2 PUSH2 0x3AC3 JUMP JUMPDEST DUP3 ADD SWAP2 SWAP1 PUSH0 MSTORE PUSH1 0x20 PUSH0 KECCAK256 SWAP1 JUMPDEST DUP2 SLOAD DUP2 MSTORE SWAP1 PUSH1 0x1 ADD SWAP1 PUSH1 0x20 ADD DUP1 DUP4 GT PUSH2 0x3AA6 JUMPI DUP3 SWAP1 SUB PUSH1 0x1F AND DUP3 ADD SWAP2 JUMPDEST POP POP POP POP POP DUP2 MSTORE PUSH1 0x20 ADD PUSH1 0x6 DUP3 ADD DUP1 SLOAD PUSH2 0x3ADC SWAP1 PUSH2 0x89AA JUMP JUMPDEST DUP1 PUSH1 0x1F ADD PUSH1 0x20 DUP1 SWAP2 DIV MUL PUSH1 0x20 ADD PUSH1 0x40 MLOAD SWAP1 DUP2 ADD PUSH1 0x40 MSTORE DUP1 SWAP3 SWAP2 SWAP1 DUP2 DUP2 MSTORE PUSH1 0x20 ADD DUP3 DUP1 SLOAD PUSH2 0x3B08 SWAP1 PUSH2 0x89AA JUMP JUMPDEST DUP1 ISZERO PUSH2 0x3B53 JUMPI DUP1 PUSH1 0x1F LT PUSH2 0x3B2A JUMPI PUSH2 0x100 DUP1 DUP4 SLOAD DIV MUL DUP4 MSTORE SWAP2 PUSH1 0x20 ADD SWAP2 PUSH2 0x3B53 JUMP JUMPDEST DUP3 ADD SWAP2 SWAP1 PUSH0 MSTORE PUSH1 0x20 PUSH0 KECCAK256 SWAP1 JUMPDEST DUP2 SLOAD DUP2 MSTORE SWAP1 PUSH1 0x1 ADD SWAP1 PUSH1 0x20 ADD DUP1 DUP4 GT PUSH2 0x3B36 JUMPI DUP3 SWAP1 SUB PUSH1 0x1F AND DUP3 ADD SWAP2 JUMPDEST POP POP POP POP POP DUP2 MSTORE PUSH1 0x20 ADD PUSH1 0x7 DUP3 ADD DUP1 SLOAD PUSH2 0x3B6C SWAP1 PUSH2 0x89AA JUMP JUMPDEST DUP1 PUSH1 0x1F ADD PUSH1 0x20 DUP1 SWAP2 DIV MUL PUSH1 0x20 ADD PUSH1 0x40 MLOAD SWAP1 DUP2 ADD PUSH1 0x40 MSTORE DUP1 SWAP3 SWAP2 SWAP1 DUP2 DUP2 MSTORE PUSH1 0x20 ADD DUP3 DUP1 SLOAD PUSH2 0x3B98 SWAP1 PUSH2 0x89AA JUMP JUMPDEST DUP1 ISZERO PUSH2 0x3BE3 JUMPI DUP1 PUSH1 0x1F LT PUSH2 0x3BBA JUMPI PUSH2 0x100 DUP1 DUP4 SLOAD DIV MUL DUP4 MSTORE SWAP2 PUSH1 0x20 ADD SWAP2 PUSH2 0x3BE3 JUMP JUMPDEST DUP3 ADD SWAP2 SWAP1 PUSH0 MSTORE PUSH1 0x20 PUSH0 KECCAK256 SWAP1 JUMPDEST DUP2 SLOAD DUP2 MSTORE SWAP1 PUSH1 0x1 ADD SWAP1 PUSH1 0x20 ADD DUP1 DUP4 GT PUSH2 0x3BC6 JUMPI DUP3 SWAP1 SUB PUSH1 0x1F AND DUP3 ADD SWAP2 JUMPDEST POP POP POP POP POP DUP2 MSTORE PUSH1 0x20 ADD PUSH1 0x8 DUP3 ADD DUP1 SLOAD PUSH2 0x3BFC SWAP1 PUSH2 0x89AA JUMP JUMPDEST DUP1 PUSH1 0x1F ADD PUSH1 0x20 DUP1 SWAP2 DIV MUL PUSH1 0x20 ADD PUSH1 0x40 MLOAD SWAP1 DUP2 ADD PUSH1 0x40 MSTORE DUP1 SWAP3 SWAP2 SWAP1 DUP2 DUP2 MSTORE PUSH1 0x20 ADD DUP3 DUP1 SLOAD PUSH2 0x3C28 SWAP1 PUSH2 0x89AA JUMP JUMPDEST DUP1 ISZERO PUSH2 0x3C73 JUMPI DUP1 PUSH1 0x1F LT PUSH2 0x3C4A JUMPI PUSH2 0x100 DUP1 DUP4 SLOAD DIV MUL DUP4 MSTORE SWAP2 PUSH1 0x20 ADD SWAP2 PUSH2 0x3C73 JUMP JUMPDEST DUP3 ADD SWAP2 SWAP1 PUSH0 MSTORE PUSH1 0x20 PUSH0 KECCAK256 SWAP1 JUMPDEST DUP2 SLOAD DUP2 MSTORE SWAP1 PUSH1 0x1 ADD SWAP1 PUSH1 0x20 ADD DUP1 DUP4 GT PUSH2 0x3C56 JUMPI DUP3 SWAP1 SUB PUSH1 0x1F AND DUP3 ADD SWAP2 JUMPDEST POP POP POP SWAP2 SWAP1 SWAP3 MSTORE POP POP POP PUSH1 0xA DUP3 ADD SLOAD PUSH1 0x40 DUP1 MLOAD PUSH1 0x80 DUP2 ADD DUP3 MSTORE PUSH1 0xB DUP6 ADD DUP1 SLOAD DUP3 MSTORE PUSH1 0xC DUP7 ADD SLOAD PUSH1 0x20 DUP4 ADD MSTORE PUSH1 0xD DUP7 ADD SLOAD SWAP5 SWAP6 PUSH1 0x1 PUSH1 0x1 PUSH1 0xA0 SHL SUB SWAP1 SWAP5 AND SWAP5 SWAP2 SWAP3 SWAP1 SWAP2 SWAP1 DUP4 ADD SWAP1 PUSH1 0xFF AND PUSH1 0x1 DUP2 GT ISZERO PUSH2 0x3CCD JUMPI PUSH2 0x3CCD PUSH2 0x867E JUMP JUMPDEST PUSH1 0x1 DUP2 GT ISZERO PUSH2 0x3CDE JUMPI PUSH2 0x3CDE PUSH2 0x867E JUMP JUMPDEST DUP2 MSTORE PUSH1 0x20 ADD PUSH1 0x2 DUP3 ADD PUSH1 0x1 SWAP1 SLOAD SWAP1 PUSH2 0x100 EXP SWAP1 DIV PUSH1 0xFF AND PUSH1 0x1 DUP2 GT ISZERO PUSH2 0x3D06 JUMPI PUSH2 0x3D06 PUSH2 0x867E JUMP JUMPDEST PUSH1 0x1 DUP2 GT ISZERO PUSH2 0x3D17 JUMPI PUSH2 0x3D17 PUSH2 0x867E JUMP JUMPDEST SWAP1 MSTORE POP SWAP1 POP DUP4 JUMP JUMPDEST PUSH1 0x10 DUP1 SLOAD SWAP1 PUSH0 PUSH2 0x3D2E DUP4 PUSH2 0x8992 JUMP JUMPDEST SWAP1 SWAP2 SSTORE POP POP CALLER PUSH0 DUP2 DUP2 MSTORE PUSH1 0x20 DUP2 DUP2 MSTORE PUSH1 0x40 DUP1 DUP4 KECCAK256 PUSH1 0x10 SLOAD DUP2 SSTORE PUSH1 0x1 DUP1 DUP3 ADD DUP1 SLOAD PUSH1 0x1 PUSH1 0x1 PUSH1 0xA0 SHL SUB NOT AND SWAP1 SWAP7 OR SWAP1 SWAP6 SSTORE PUSH1 0x2 SWAP1 DUP2 ADD DUP1 SLOAD DUP1 DUP8 ADD DUP3 SSTORE SWAP1 DUP6 MSTORE SWAP4 DUP4 SWAP1 KECCAK256 DUP7 MLOAD PUSH1 0x5 SWAP1 SWAP6 MUL ADD SWAP4 DUP5 SSTORE SWAP2 DUP6 ADD MLOAD SWAP4 DUP4 ADD SWAP4 SWAP1 SWAP4 SSTORE SWAP2 DUP4 ADD MLOAD SWAP2 DUP2 ADD SWAP2 SWAP1 SWAP2 SSTORE PUSH1 0x60 DUP3 ADD MLOAD PUSH1 0x3 DUP3 ADD SSTORE PUSH1 0x80 SWAP1 SWAP2 ADD MLOAD PUSH1 0x4 SWAP1 SWAP2 ADD SSTORE JUMP JUMPDEST PUSH2 0x3DB2 PUSH2 0x73D1 JUMP JUMPDEST PUSH0 DUP3 DUP2 MSTORE PUSH1 0x1 PUSH1 0x20 DUP2 DUP2 MSTORE PUSH1 0x40 SWAP3 DUP4 SWAP1 KECCAK256 DUP4 MLOAD PUSH2 0x260 DUP2 ADD DUP6 MSTORE DUP2 SLOAD DUP2 MSTORE SWAP3 DUP2 ADD SLOAD PUSH1 0x1 PUSH1 0x1 PUSH1 0xA0 SHL SUB SWAP1 DUP2 AND DUP5 DUP5 ADD MSTORE PUSH1 0x2 DUP3 ADD SLOAD AND DUP4 DUP6 ADD MSTORE PUSH1 0x3 DUP2 ADD SLOAD PUSH1 0x60 DUP5 ADD MSTORE PUSH1 0x4 DUP2 ADD DUP1 SLOAD DUP6 MLOAD DUP2 DUP6 MUL DUP2 ADD DUP6 ADD SWAP1 SWAP7 MSTORE DUP1 DUP7 MSTORE SWAP4 SWAP5 SWAP2 SWAP4 PUSH1 0x80 DUP7 ADD SWAP4 DUP4 ADD DUP3 DUP3 DUP1 ISZERO PUSH2 0x3E42 JUMPI PUSH1 0x20 MUL DUP3 ADD SWAP2 SWAP1 PUSH0 MSTORE PUSH1 0x20 PUSH0 KECCAK256 SWAP1 JUMPDEST DUP2 SLOAD DUP2 MSTORE PUSH1 0x20 ADD SWAP1 PUSH1 0x1 ADD SWAP1 DUP1 DUP4 GT PUSH2 0x3E2E JUMPI JUMPDEST POP POP POP POP POP DUP2 MSTORE PUSH1 0x20 ADD PUSH1 0x5 DUP3 ADD DUP1 SLOAD DUP1 PUSH1 0x20 MUL PUSH1 0x20 ADD PUSH1 0x40 MLOAD SWAP1 DUP2 ADD PUSH1 0x40 MSTORE DUP1 SWAP3 SWAP2 SWAP1 DUP2 DUP2 MSTORE PUSH1 0x20 ADD DUP3 DUP1 SLOAD DUP1 ISZERO PUSH2 0x3E98 JUMPI PUSH1 0x20 MUL DUP3 ADD SWAP2 SWAP1 PUSH0 MSTORE PUSH1 0x20 PUSH0 KECCAK256 SWAP1 JUMPDEST DUP2 SLOAD DUP2 MSTORE PUSH1 0x20 ADD SWAP1 PUSH1 0x1 ADD SWAP1 DUP1 DUP4 GT PUSH2 0x3E84 JUMPI JUMPDEST POP POP POP POP POP DUP2 MSTORE PUSH1 0x20 ADD PUSH1 0x6 DUP3 ADD DUP1 SLOAD DUP1 PUSH1 0x20 MUL PUSH1 0x20 ADD PUSH1 0x40 MLOAD SWAP1 DUP2 ADD PUSH1 0x40 MSTORE DUP1 SWAP3 SWAP2 SWAP1 DUP2 DUP2 MSTORE PUSH1 0x20 ADD DUP3 DUP1 SLOAD DUP1 ISZERO PUSH2 0x3EEE JUMPI PUSH1 0x20 MUL DUP3 ADD SWAP2 SWAP1 PUSH0 MSTORE PUSH1 0x20 PUSH0 KECCAK256 SWAP1 JUMPDEST DUP2 SLOAD DUP2 MSTORE PUSH1 0x20 ADD SWAP1 PUSH1 0x1 ADD SWAP1 DUP1 DUP4 GT PUSH2 0x3EDA JUMPI JUMPDEST POP POP POP POP POP DUP2 MSTORE PUSH1 0x20 ADD PUSH1 0x7 DUP3 ADD DUP1 SLOAD DUP1 PUSH1 0x20 MUL PUSH1 0x20 ADD PUSH1 0x40 MLOAD SWAP1 DUP2 ADD PUSH1 0x40 MSTORE DUP1 SWAP3 SWAP2 SWAP1 DUP2 DUP2 MSTORE PUSH1 0x20 ADD DUP3 DUP1 SLOAD DUP1 ISZERO PUSH2 0x3F44 JUMPI PUSH1 0x20 MUL DUP3 ADD SWAP2 SWAP1 PUSH0 MSTORE PUSH1 0x20 PUSH0 KECCAK256 SWAP1 JUMPDEST DUP2 SLOAD DUP2 MSTORE PUSH1 0x20 ADD SWAP1 PUSH1 0x1 ADD SWAP1 DUP1 DUP4 GT PUSH2 0x3F30 JUMPI JUMPDEST POP POP POP POP POP DUP2 MSTORE PUSH1 0x20 ADD PUSH1 0x8 DUP3 ADD DUP1 SLOAD DUP1 PUSH1 0x20 MUL PUSH1 0x20 ADD PUSH1 0x40 MLOAD SWAP1 DUP2 ADD PUSH1 0x40 MSTORE DUP1 SWAP3 SWAP2 SWAP1 DUP2 DUP2 MSTORE PUSH1 0x20 ADD DUP3 DUP1 SLOAD DUP1 ISZERO PUSH2 0x3F9A JUMPI PUSH1 0x20 MUL DUP3 ADD SWAP2 SWAP1 PUSH0 MSTORE PUSH1 0x20 PUSH0 KECCAK256 SWAP1 JUMPDEST DUP2 SLOAD DUP2 MSTORE PUSH1 0x20 ADD SWAP1 PUSH1 0x1 ADD SWAP1 DUP1 DUP4 GT PUSH2 0x3F86 JUMPI JUMPDEST POP POP POP POP POP DUP2 MSTORE PUSH1 0x20 ADD PUSH1 0x9 DUP3 ADD DUP1 SLOAD DUP1 PUSH1 0x20 MUL PUSH1 0x20 ADD PUSH1 0x40 MLOAD SWAP1 DUP2 ADD PUSH1 0x40 MSTORE DUP1 SWAP3 SWAP2 SWAP1 DUP2 DUP2 MSTORE PUSH1 0x20 ADD DUP3 DUP1 SLOAD DUP1 ISZERO PUSH2 0x3FF0 JUMPI PUSH1 0x20 MUL DUP3 ADD SWAP2 SWAP1 PUSH0 MSTORE PUSH1 0x20 PUSH0 KECCAK256 SWAP1 JUMPDEST DUP2 SLOAD DUP2 MSTORE PUSH1 0x20 ADD SWAP1 PUSH1 0x1 ADD SWAP1 DUP1 DUP4 GT PUSH2 0x3FDC JUMPI JUMPDEST POP POP POP POP POP DUP2 MSTORE PUSH1 0x20 ADD PUSH1 0xA DUP3 ADD DUP1 SLOAD DUP1 PUSH1 0x20 MUL PUSH1 0x20 ADD PUSH1 0x40 MLOAD SWAP1 DUP2 ADD PUSH1 0x40 MSTORE DUP1 SWAP3 SWAP2 SWAP1 DUP2 DUP2 MSTORE PUSH1 0x20 ADD DUP3 DUP1 SLOAD DUP1 ISZERO PUSH2 0x4046 JUMPI PUSH1 0x20 MUL DUP3 ADD SWAP2 SWAP1 PUSH0 MSTORE PUSH1 0x20 PUSH0 KECCAK256 SWAP1 JUMPDEST DUP2 SLOAD DUP2 MSTORE PUSH1 0x20 ADD SWAP1 PUSH1 0x1 ADD SWAP1 DUP1 DUP4 GT PUSH2 0x4032 JUMPI JUMPDEST POP POP POP SWAP2 DUP4 MSTORE POP POP PUSH1 0xB DUP3 ADD SLOAD PUSH1 0x20 DUP3 ADD MSTORE PUSH1 0xC DUP3 ADD SLOAD PUSH1 0xFF DUP1 DUP3 AND PUSH1 0x40 DUP5 ADD MSTORE PUSH2 0x100 SWAP2 DUP3 SWAP1 DIV DUP2 AND PUSH1 0x60 DUP5 ADD MSTORE PUSH1 0xD DUP5 ADD SLOAD PUSH1 0x80 DUP5 ADD MSTORE PUSH1 0xE DUP5 ADD SLOAD PUSH1 0xA0 DUP5 ADD MSTORE PUSH1 0xF DUP5 ADD SLOAD PUSH1 0xC0 DUP5 ADD MSTORE PUSH1 0x10 DUP5 ADD SLOAD AND PUSH1 0xE0 DUP4 ADD MSTORE PUSH1 0x11 SWAP1 SWAP3 ADD SLOAD SWAP2 ADD MSTORE SWAP3 SWAP2 POP POP JUMP JUMPDEST PUSH2 0x40B5 PUSH2 0x74A2 JUMP JUMPDEST PUSH1 0x7 PUSH0 DUP4 DUP2 MSTORE PUSH1 0x20 ADD SWAP1 DUP2 MSTORE PUSH1 0x20 ADD PUSH0 KECCAK256 PUSH1 0x40 MLOAD DUP1 PUSH1 0xA0 ADD PUSH1 0x40 MSTORE SWAP1 DUP2 PUSH0 DUP3 ADD SLOAD DUP2 MSTORE PUSH1 0x20 ADD PUSH1 0x1 DUP3 ADD DUP1 SLOAD DUP1 PUSH1 0x20 MUL PUSH1 0x20 ADD PUSH1 0x40 MLOAD SWAP1 DUP2 ADD PUSH1 0x40 MSTORE DUP1 SWAP3 SWAP2 SWAP1 DUP2 DUP2 MSTORE PUSH1 0x20 ADD PUSH0 SWAP1 JUMPDEST DUP3 DUP3 LT ISZERO PUSH2 0x428F JUMPI DUP4 DUP3 SWAP1 PUSH0 MSTORE PUSH1 0x20 PUSH0 KECCAK256 SWAP1 PUSH1 0x5 MUL ADD PUSH1 0x40 MLOAD DUP1 PUSH1 0xA0 ADD PUSH1 0x40 MSTORE SWAP1 DUP2 PUSH0 DUP3 ADD DUP1 SLOAD DUP1 PUSH1 0x20 MUL PUSH1 0x20 ADD PUSH1 0x40 MLOAD SWAP1 DUP2 ADD PUSH1 0x40 MSTORE DUP1 SWAP3 SWAP2 SWAP1 DUP2 DUP2 MSTORE PUSH1 0x20 ADD DUP3 DUP1 SLOAD DUP1 ISZERO PUSH2 0x416B JUMPI PUSH1 0x20 MUL DUP3 ADD SWAP2 SWAP1 PUSH0 MSTORE PUSH1 0x20 PUSH0 KECCAK256 SWAP1 JUMPDEST DUP2 SLOAD DUP2 MSTORE PUSH1 0x20 ADD SWAP1 PUSH1 0x1 ADD SWAP1 DUP1 DUP4 GT PUSH2 0x4157 JUMPI JUMPDEST POP POP POP POP POP DUP2 MSTORE PUSH1 0x20 ADD PUSH1 0x1 DUP3 ADD DUP1 SLOAD DUP1 PUSH1 0x20 MUL PUSH1 0x20 ADD PUSH1 0x40 MLOAD SWAP1 DUP2 ADD PUSH1 0x40 MSTORE DUP1 SWAP3 SWAP2 SWAP1 DUP2 DUP2 MSTORE PUSH1 0x20 ADD DUP3 DUP1 SLOAD DUP1 ISZERO PUSH2 0x41C1 JUMPI PUSH1 0x20 MUL DUP3 ADD SWAP2 SWAP1 PUSH0 MSTORE PUSH1 0x20 PUSH0 KECCAK256 SWAP1 JUMPDEST DUP2 SLOAD DUP2 MSTORE PUSH1 0x20 ADD SWAP1 PUSH1 0x1 ADD SWAP1 DUP1 DUP4 GT PUSH2 0x41AD JUMPI JUMPDEST POP POP POP POP POP DUP2 MSTORE PUSH1 0x20 ADD PUSH1 0x2 DUP3 ADD DUP1 SLOAD DUP1 PUSH1 0x20 MUL PUSH1 0x20 ADD PUSH1 0x40 MLOAD SWAP1 DUP2 ADD PUSH1 0x40 MSTORE DUP1 SWAP3 SWAP2 SWAP1 DUP2 DUP2 MSTORE PUSH1 0x20 ADD DUP3 DUP1 SLOAD DUP1 ISZERO PUSH2 0x4217 JUMPI PUSH1 0x20 MUL DUP3 ADD SWAP2 SWAP1 PUSH0 MSTORE PUSH1 0x20 PUSH0 KECCAK256 SWAP1 JUMPDEST DUP2 SLOAD DUP2 MSTORE PUSH1 0x20 ADD SWAP1 PUSH1 0x1 ADD SWAP1 DUP1 DUP4 GT PUSH2 0x4203 JUMPI JUMPDEST POP POP POP POP POP DUP2 MSTORE PUSH1 0x20 ADD PUSH1 0x3 DUP3 ADD DUP1 SLOAD DUP1 PUSH1 0x20 MUL PUSH1 0x20 ADD PUSH1 0x40 MLOAD SWAP1 DUP2 ADD PUSH1 0x40 MSTORE DUP1 SWAP3 SWAP2 SWAP1 DUP2 DUP2 MSTORE PUSH1 0x20 ADD DUP3 DUP1 SLOAD DUP1 ISZERO PUSH2 0x426D JUMPI PUSH1 0x20 MUL DUP3 ADD SWAP2 SWAP1 PUSH0 MSTORE PUSH1 0x20 PUSH0 KECCAK256 SWAP1 JUMPDEST DUP2 SLOAD DUP2 MSTORE PUSH1 0x20 ADD SWAP1 PUSH1 0x1 ADD SWAP1 DUP1 DUP4 GT PUSH2 0x4259 JUMPI JUMPDEST POP POP POP POP POP DUP2 MSTORE PUSH1 0x20 ADD PUSH1 0x4 DUP3 ADD SLOAD DUP2 MSTORE POP POP DUP2 MSTORE PUSH1 0x20 ADD SWAP1 PUSH1 0x1 ADD SWAP1 PUSH2 0x40FE JUMP JUMPDEST POP POP POP SWAP1 DUP3 MSTORE POP PUSH1 0x2 DUP3 ADD SLOAD PUSH1 0x1 PUSH1 0x1 PUSH1 0xA0 SHL SUB DUP2 AND PUSH1 0x20 DUP4 ADD MSTORE PUSH1 0x1 PUSH1 0xA0 SHL SWAP1 DIV PUSH1 0xFF AND ISZERO ISZERO PUSH1 0x40 DUP3 ADD MSTORE PUSH1 0x3 SWAP1 SWAP2 ADD SLOAD PUSH1 0x60 SWAP1 SWAP2 ADD MSTORE SWAP3 SWAP2 POP POP JUMP JUMPDEST PUSH1 0x9 PUSH1 0x20 MSTORE PUSH0 SWAP1 DUP2 MSTORE PUSH1 0x40 SWAP1 DUP2 SWAP1 KECCAK256 DUP1 SLOAD PUSH1 0x1 DUP3 ADD SLOAD PUSH1 0x2 DUP4 ADD SLOAD DUP5 MLOAD PUSH2 0x120 DUP2 ADD SWAP1 SWAP6 MSTORE PUSH1 0x3 DUP5 ADD DUP1 SLOAD SWAP4 SWAP6 SWAP3 SWAP5 PUSH1 0x1 PUSH1 0x1 PUSH1 0xA0 SHL SUB SWAP1 SWAP3 AND SWAP4 SWAP2 SWAP3 SWAP2 DUP3 SWAP1 DUP3 SWAP1 PUSH2 0x4318 SWAP1 PUSH2 0x89AA JUMP JUMPDEST DUP1 PUSH1 0x1F ADD PUSH1 0x20 DUP1 SWAP2 DIV MUL PUSH1 0x20 ADD PUSH1 0x40 MLOAD SWAP1 DUP2 ADD PUSH1 0x40 MSTORE DUP1 SWAP3 SWAP2 SWAP1 DUP2 DUP2 MSTORE PUSH1 0x20 ADD DUP3 DUP1 SLOAD PUSH2 0x4344 SWAP1 PUSH2 0x89AA JUMP JUMPDEST DUP1 ISZERO PUSH2 0x438F JUMPI DUP1 PUSH1 0x1F LT PUSH2 0x4366 JUMPI PUSH2 0x100 DUP1 DUP4 SLOAD DIV MUL DUP4 MSTORE SWAP2 PUSH1 0x20 ADD SWAP2 PUSH2 0x438F JUMP JUMPDEST DUP3 ADD SWAP2 SWAP1 PUSH0 MSTORE PUSH1 0x20 PUSH0 KECCAK256 SWAP1 JUMPDEST DUP2 SLOAD DUP2 MSTORE SWAP1 PUSH1 0x1 ADD SWAP1 PUSH1 0x20 ADD DUP1 DUP4 GT PUSH2 0x4372 JUMPI DUP3 SWAP1 SUB PUSH1 0x1F AND DUP3 ADD SWAP2 JUMPDEST POP POP POP POP POP DUP2 MSTORE PUSH1 0x20 ADD PUSH1 0x1 DUP3 ADD DUP1 SLOAD PUSH2 0x43A8 SWAP1 PUSH2 0x89AA JUMP JUMPDEST DUP1 PUSH1 0x1F ADD PUSH1 0x20 DUP1 SWAP2 DIV MUL PUSH1 0x20 ADD PUSH1 0x40 MLOAD SWAP1 DUP2 ADD PUSH1 0x40 MSTORE DUP1 SWAP3 SWAP2 SWAP1 DUP2 DUP2 MSTORE PUSH1 0x20 ADD DUP3 DUP1 SLOAD PUSH2 0x43D4 SWAP1 PUSH2 0x89AA JUMP JUMPDEST DUP1 ISZERO PUSH2 0x441F JUMPI DUP1 PUSH1 0x1F LT PUSH2 0x43F6 JUMPI PUSH2 0x100 DUP1 DUP4 SLOAD DIV MUL DUP4 MSTORE SWAP2 PUSH1 0x20 ADD SWAP2 PUSH2 0x441F JUMP JUMPDEST DUP3 ADD SWAP2 SWAP1 PUSH0 MSTORE PUSH1 0x20 PUSH0 KECCAK256 SWAP1 JUMPDEST DUP2 SLOAD DUP2 MSTORE SWAP1 PUSH1 0x1 ADD SWAP1 PUSH1 0x20 ADD DUP1 DUP4 GT PUSH2 0x4402 JUMPI DUP3 SWAP1 SUB PUSH1 0x1F AND DUP3 ADD SWAP2 JUMPDEST POP POP POP POP POP DUP2 MSTORE PUSH1 0x20 ADD PUSH1 0x2 DUP3 ADD DUP1 SLOAD PUSH2 0x4438 SWAP1 PUSH2 0x89AA JUMP JUMPDEST DUP1 PUSH1 0x1F ADD PUSH1 0x20 DUP1 SWAP2 DIV MUL PUSH1 0x20 ADD PUSH1 0x40 MLOAD SWAP1 DUP2 ADD PUSH1 0x40 MSTORE DUP1 SWAP3 SWAP2 SWAP1 DUP2 DUP2 MSTORE PUSH1 0x20 ADD DUP3 DUP1 SLOAD PUSH2 0x4464 SWAP1 PUSH2 0x89AA JUMP JUMPDEST DUP1 ISZERO PUSH2 0x44AF JUMPI DUP1 PUSH1 0x1F LT PUSH2 0x4486 JUMPI PUSH2 0x100 DUP1 DUP4 SLOAD DIV MUL DUP4 MSTORE SWAP2 PUSH1 0x20 ADD SWAP2 PUSH2 0x44AF JUMP JUMPDEST DUP3 ADD SWAP2 SWAP1 PUSH0 MSTORE PUSH1 0x20 PUSH0 KECCAK256 SWAP1 JUMPDEST DUP2 SLOAD DUP2 MSTORE SWAP1 PUSH1 0x1 ADD SWAP1 PUSH1 0x20 ADD DUP1 DUP4 GT PUSH2 0x4492 JUMPI DUP3 SWAP1 SUB PUSH1 0x1F AND DUP3 ADD SWAP2 JUMPDEST POP POP POP POP POP DUP2 MSTORE PUSH1 0x20 ADD PUSH1 0x3 DUP3 ADD DUP1 SLOAD PUSH2 0x44C8 SWAP1 PUSH2 0x89AA JUMP JUMPDEST DUP1 PUSH1 0x1F ADD PUSH1 0x20 DUP1 SWAP2 DIV MUL PUSH1 0x20 ADD PUSH1 0x40 MLOAD SWAP1 DUP2 ADD PUSH1 0x40 MSTORE DUP1 SWAP3 SWAP2 SWAP1 DUP2 DUP2 MSTORE PUSH1 0x20 ADD DUP3 DUP1 SLOAD PUSH2 0x44F4 SWAP1 PUSH2 0x89AA JUMP JUMPDEST DUP1 ISZERO PUSH2 0x453F JUMPI DUP1 PUSH1 0x1F LT PUSH2 0x4516 JUMPI PUSH2 0x100 DUP1 DUP4 SLOAD DIV MUL DUP4 MSTORE SWAP2 PUSH1 0x20 ADD SWAP2 PUSH2 0x453F JUMP JUMPDEST DUP3 ADD SWAP2 SWAP1 PUSH0 MSTORE PUSH1 0x20 PUSH0 KECCAK256 SWAP1 JUMPDEST DUP2 SLOAD DUP2 MSTORE SWAP1 PUSH1 0x1 ADD SWAP1 PUSH1 0x20 ADD DUP1 DUP4 GT PUSH2 0x4522 JUMPI DUP3 SWAP1 SUB PUSH1 0x1F AND DUP3 ADD SWAP2 JUMPDEST POP POP POP POP POP DUP2 MSTORE PUSH1 0x20 ADD PUSH1 0x4 DUP3 ADD DUP1 SLOAD PUSH2 0x4558 SWAP1 PUSH2 0x89AA JUMP JUMPDEST DUP1 PUSH1 0x1F ADD PUSH1 0x20 DUP1 SWAP2 DIV MUL PUSH1 0x20 ADD PUSH1 0x40 MLOAD SWAP1 DUP2 ADD PUSH1 0x40 MSTORE DUP1 SWAP3 SWAP2 SWAP1 DUP2 DUP2 MSTORE PUSH1 0x20 ADD DUP3 DUP1 SLOAD PUSH2 0x4584 SWAP1 PUSH2 0x89AA JUMP JUMPDEST DUP1 ISZERO PUSH2 0x45CF JUMPI DUP1 PUSH1 0x1F LT PUSH2 0x45A6 JUMPI PUSH2 0x100 DUP1 DUP4 SLOAD DIV MUL DUP4 MSTORE SWAP2 PUSH1 0x20 ADD SWAP2 PUSH2 0x45CF JUMP JUMPDEST DUP3 ADD SWAP2 SWAP1 PUSH0 MSTORE PUSH1 0x20 PUSH0 KECCAK256 SWAP1 JUMPDEST DUP2 SLOAD DUP2 MSTORE SWAP1 PUSH1 0x1 ADD SWAP1 PUSH1 0x20 ADD DUP1 DUP4 GT PUSH2 0x45B2 JUMPI DUP3 SWAP1 SUB PUSH1 0x1F AND DUP3 ADD SWAP2 JUMPDEST POP POP POP POP POP DUP2 MSTORE PUSH1 0x20 ADD PUSH1 0x5 DUP3 ADD DUP1 SLOAD PUSH2 0x45E8 SWAP1 PUSH2 0x89AA JUMP JUMPDEST DUP1 PUSH1 0x1F ADD PUSH1 0x20 DUP1 SWAP2 DIV MUL PUSH1 0x20 ADD PUSH1 0x40 MLOAD SWAP1 DUP2 ADD PUSH1 0x40 MSTORE DUP1 SWAP3 SWAP2 SWAP1 DUP2 DUP2 MSTORE PUSH1 0x20 ADD DUP3 DUP1 SLOAD PUSH2 0x4614 SWAP1 PUSH2 0x89AA JUMP JUMPDEST DUP1 ISZERO PUSH2 0x465F JUMPI DUP1 PUSH1 0x1F LT PUSH2 0x4636 JUMPI PUSH2 0x100 DUP1 DUP4 SLOAD DIV MUL DUP4 MSTORE SWAP2 PUSH1 0x20 ADD SWAP2 PUSH2 0x465F JUMP JUMPDEST DUP3 ADD SWAP2 SWAP1 PUSH0 MSTORE PUSH1 0x20 PUSH0 KECCAK256 SWAP1 JUMPDEST DUP2 SLOAD DUP2 MSTORE SWAP1 PUSH1 0x1 ADD SWAP1 PUSH1 0x20 ADD DUP1 DUP4 GT PUSH2 0x4642 JUMPI DUP3 SWAP1 SUB PUSH1 0x1F AND DUP3 ADD SWAP2 JUMPDEST POP POP POP POP POP DUP2 MSTORE PUSH1 0x20 ADD PUSH1 0x6 DUP3 ADD DUP1 SLOAD PUSH2 0x4678 SWAP1 PUSH2 0x89AA JUMP JUMPDEST DUP1 PUSH1 0x1F ADD PUSH1 0x20 DUP1 SWAP2 DIV MUL PUSH1 0x20 ADD PUSH1 0x40 MLOAD SWAP1 DUP2 ADD PUSH1 0x40 MSTORE DUP1 SWAP3 SWAP2 SWAP1 DUP2 DUP2 MSTORE PUSH1 0x20 ADD DUP3 DUP1 SLOAD PUSH2 0x46A4 SWAP1 PUSH2 0x89AA JUMP JUMPDEST DUP1 ISZERO PUSH2 0x46EF JUMPI DUP1 PUSH1 0x1F LT PUSH2 0x46C6 JUMPI PUSH2 0x100 DUP1 DUP4 SLOAD DIV MUL DUP4 MSTORE SWAP2 PUSH1 0x20 ADD SWAP2 PUSH2 0x46EF JUMP JUMPDEST DUP3 ADD SWAP2 SWAP1 PUSH0 MSTORE PUSH1 0x20 PUSH0 KECCAK256 SWAP1 JUMPDEST DUP2 SLOAD DUP2 MSTORE SWAP1 PUSH1 0x1 ADD SWAP1 PUSH1 0x20 ADD DUP1 DUP4 GT PUSH2 0x46D2 JUMPI DUP3 SWAP1 SUB PUSH1 0x1F AND DUP3 ADD SWAP2 JUMPDEST POP POP POP POP POP DUP2 MSTORE PUSH1 0x20 ADD PUSH1 0x7 DUP3 ADD DUP1 SLOAD PUSH2 0x4708 SWAP1 PUSH2 0x89AA JUMP JUMPDEST DUP1 PUSH1 0x1F ADD PUSH1 0x20 DUP1 SWAP2 DIV MUL PUSH1 0x20 ADD PUSH1 0x40 MLOAD SWAP1 DUP2 ADD PUSH1 0x40 MSTORE DUP1 SWAP3 SWAP2 SWAP1 DUP2 DUP2 MSTORE PUSH1 0x20 ADD DUP3 DUP1 SLOAD PUSH2 0x4734 SWAP1 PUSH2 0x89AA JUMP JUMPDEST DUP1 ISZERO PUSH2 0x477F JUMPI DUP1 PUSH1 0x1F LT PUSH2 0x4756 JUMPI PUSH2 0x100 DUP1 DUP4 SLOAD DIV MUL DUP4 MSTORE SWAP2 PUSH1 0x20 ADD SWAP2 PUSH2 0x477F JUMP JUMPDEST DUP3 ADD SWAP2 SWAP1 PUSH0 MSTORE PUSH1 0x20 PUSH0 KECCAK256 SWAP1 JUMPDEST DUP2 SLOAD DUP2 MSTORE SWAP1 PUSH1 0x1 ADD SWAP1 PUSH1 0x20 ADD DUP1 DUP4 GT PUSH2 0x4762 JUMPI DUP3 SWAP1 SUB PUSH1 0x1F AND DUP3 ADD SWAP2 JUMPDEST POP POP POP POP POP DUP2 MSTORE PUSH1 0x20 ADD PUSH1 0x8 DUP3 ADD DUP1 SLOAD PUSH2 0x4798 SWAP1 PUSH2 0x89AA JUMP JUMPDEST DUP1 PUSH1 0x1F ADD PUSH1 0x20 DUP1 SWAP2 DIV MUL PUSH1 0x20 ADD PUSH1 0x40 MLOAD SWAP1 DUP2 ADD PUSH1 0x40 MSTORE DUP1 SWAP3 SWAP2 SWAP1 DUP2 DUP2 MSTORE PUSH1 0x20 ADD DUP3 DUP1 SLOAD PUSH2 0x47C4 SWAP1 PUSH2 0x89AA JUMP JUMPDEST DUP1 ISZERO PUSH2 0x480F JUMPI DUP1 PUSH1 0x1F LT PUSH2 0x47E6 JUMPI PUSH2 0x100 DUP1 DUP4 SLOAD DIV MUL DUP4 MSTORE SWAP2 PUSH1 0x20 ADD SWAP2 PUSH2 0x480F JUMP JUMPDEST DUP3 ADD SWAP2 SWAP1 PUSH0 MSTORE PUSH1 0x20 PUSH0 KECCAK256 SWAP1 JUMPDEST DUP2 SLOAD DUP2 MSTORE SWAP1 PUSH1 0x1 ADD SWAP1 PUSH1 0x20 ADD DUP1 DUP4 GT PUSH2 0x47F2 JUMPI DUP3 SWAP1 SUB PUSH1 0x1F AND DUP3 ADD SWAP2 JUMPDEST POP POP POP POP POP DUP2 MSTORE POP POP SWAP1 POP DUP5 JUMP JUMPDEST PUSH1 0x17 SLOAD PUSH0 SWAP1 PUSH1 0x1 PUSH1 0x1 PUSH1 0xA0 SHL SUB AND CALLER DUP2 EQ PUSH2 0x484A JUMPI PUSH1 0x40 MLOAD PUSH3 0x461BCD PUSH1 0xE5 SHL DUP2 MSTORE PUSH1 0x4 ADD PUSH2 0xB1C SWAP1 PUSH2 0x91FC JUMP JUMPDEST PUSH1 0x16 DUP1 SLOAD PUSH1 0x1 PUSH1 0x1 PUSH1 0xA0 SHL SUB DUP6 AND PUSH1 0x1 PUSH1 0x1 PUSH1 0xA0 SHL SUB NOT SWAP1 SWAP2 AND OR SWAP1 SSTORE PUSH1 0x1 SWAP2 POP POP SWAP2 SWAP1 POP JUMP JUMPDEST PUSH2 0x4879 PUSH2 0x750B JUMP JUMPDEST PUSH0 DUP3 DUP2 MSTORE PUSH1 0x8 PUSH1 0x20 SWAP1 DUP2 MSTORE PUSH1 0x40 DUP1 DUP4 KECCAK256 DUP2 MLOAD DUP2 SLOAD PUSH1 0xA0 SWAP5 DUP2 MUL DUP3 ADD DUP6 ADD SWAP1 SWAP4 MSTORE PUSH1 0x80 DUP2 ADD DUP4 DUP2 MSTORE SWAP1 SWAP5 SWAP2 SWAP4 DUP6 SWAP4 SWAP2 SWAP3 DUP6 SWAP3 SWAP2 DUP6 ADD JUMPDEST DUP3 DUP3 LT ISZERO PUSH2 0x49D9 JUMPI DUP4 DUP3 SWAP1 PUSH0 MSTORE PUSH1 0x20 PUSH0 KECCAK256 SWAP1 PUSH1 0x5 MUL ADD PUSH1 0x40 MLOAD DUP1 PUSH1 0xA0 ADD PUSH1 0x40 MSTORE SWAP1 DUP2 PUSH0 DUP3 ADD SLOAD DUP2 MSTORE PUSH1 0x20 ADD PUSH1 0x1 DUP3 ADD SLOAD DUP2 MSTORE PUSH1 0x20 ADD PUSH1 0x2 DUP3 ADD SLOAD DUP2 MSTORE PUSH1 0x20 ADD PUSH1 0x3 DUP3 ADD SLOAD DUP2 MSTORE PUSH1 0x20 ADD PUSH1 0x4 DUP3 ADD DUP1 SLOAD DUP1 PUSH1 0x20 MUL PUSH1 0x20 ADD PUSH1 0x40 MLOAD SWAP1 DUP2 ADD PUSH1 0x40 MSTORE DUP1 SWAP3 SWAP2 SWAP1 DUP2 DUP2 MSTORE PUSH1 0x20 ADD PUSH0 SWAP1 JUMPDEST DUP3 DUP3 LT ISZERO PUSH2 0x49C2 JUMPI DUP4 DUP3 SWAP1 PUSH0 MSTORE PUSH1 0x20 PUSH0 KECCAK256 ADD DUP1 SLOAD PUSH2 0x4937 SWAP1 PUSH2 0x89AA JUMP JUMPDEST DUP1 PUSH1 0x1F ADD PUSH1 0x20 DUP1 SWAP2 DIV MUL PUSH1 0x20 ADD PUSH1 0x40 MLOAD SWAP1 DUP2 ADD PUSH1 0x40 MSTORE DUP1 SWAP3 SWAP2 SWAP1 DUP2 DUP2 MSTORE PUSH1 0x20 ADD DUP3 DUP1 SLOAD PUSH2 0x4963 SWAP1 PUSH2 0x89AA JUMP JUMPDEST DUP1 ISZERO PUSH2 0x49AE JUMPI DUP1 PUSH1 0x1F LT PUSH2 0x4985 JUMPI PUSH2 0x100 DUP1 DUP4 SLOAD DIV MUL DUP4 MSTORE SWAP2 PUSH1 0x20 ADD SWAP2 PUSH2 0x49AE JUMP JUMPDEST DUP3 ADD SWAP2 SWAP1 PUSH0 MSTORE PUSH1 0x20 PUSH0 KECCAK256 SWAP1 JUMPDEST DUP2 SLOAD DUP2 MSTORE SWAP1 PUSH1 0x1 ADD SWAP1 PUSH1 0x20 ADD DUP1 DUP4 GT PUSH2 0x4991 JUMPI DUP3 SWAP1 SUB PUSH1 0x1F AND DUP3 ADD SWAP2 JUMPDEST POP POP POP POP POP DUP2 MSTORE PUSH1 0x20 ADD SWAP1 PUSH1 0x1 ADD SWAP1 PUSH2 0x491A JUMP JUMPDEST POP POP POP POP DUP2 MSTORE POP POP DUP2 MSTORE PUSH1 0x20 ADD SWAP1 PUSH1 0x1 ADD SWAP1 PUSH2 0x48AE JUMP JUMPDEST POP POP POP POP DUP2 MSTORE PUSH1 0x20 ADD PUSH1 0x1 DUP3 ADD PUSH1 0x40 MLOAD DUP1 PUSH2 0x120 ADD PUSH1 0x40 MSTORE SWAP1 DUP2 PUSH0 DUP3 ADD DUP1 SLOAD PUSH2 0x4A01 SWAP1 PUSH2 0x89AA JUMP JUMPDEST DUP1 PUSH1 0x1F ADD PUSH1 0x20 DUP1 SWAP2 DIV MUL PUSH1 0x20 ADD PUSH1 0x40 MLOAD SWAP1 DUP2 ADD PUSH1 0x40 MSTORE DUP1 SWAP3 SWAP2 SWAP1 DUP2 DUP2 MSTORE PUSH1 0x20 ADD DUP3 DUP1 SLOAD PUSH2 0x4A2D SWAP1 PUSH2 0x89AA JUMP JUMPDEST DUP1 ISZERO PUSH2 0x4A78 JUMPI DUP1 PUSH1 0x1F LT PUSH2 0x4A4F JUMPI PUSH2 0x100 DUP1 DUP4 SLOAD DIV MUL DUP4 MSTORE SWAP2 PUSH1 0x20 ADD SWAP2 PUSH2 0x4A78 JUMP JUMPDEST DUP3 ADD SWAP2 SWAP1 PUSH0 MSTORE PUSH1 0x20 PUSH0 KECCAK256 SWAP1 JUMPDEST DUP2 SLOAD DUP2 MSTORE SWAP1 PUSH1 0x1 ADD SWAP1 PUSH1 0x20 ADD DUP1 DUP4 GT PUSH2 0x4A5B JUMPI DUP3 SWAP1 SUB PUSH1 0x1F AND DUP3 ADD SWAP2 JUMPDEST POP POP POP POP POP DUP2 MSTORE PUSH1 0x20 ADD PUSH1 0x1 DUP3 ADD DUP1 SLOAD PUSH2 0x4A91 SWAP1 PUSH2 0x89AA JUMP JUMPDEST DUP1 PUSH1 0x1F ADD PUSH1 0x20 DUP1 SWAP2 DIV MUL PUSH1 0x20 ADD PUSH1 0x40 MLOAD SWAP1 DUP2 ADD PUSH1 0x40 MSTORE DUP1 SWAP3 SWAP2 SWAP1 DUP2 DUP2 MSTORE PUSH1 0x20 ADD DUP3 DUP1 SLOAD PUSH2 0x4ABD SWAP1 PUSH2 0x89AA JUMP JUMPDEST DUP1 ISZERO PUSH2 0x4B08 JUMPI DUP1 PUSH1 0x1F LT PUSH2 0x4ADF JUMPI PUSH2 0x100 DUP1 DUP4 SLOAD DIV MUL DUP4 MSTORE SWAP2 PUSH1 0x20 ADD SWAP2 PUSH2 0x4B08 JUMP JUMPDEST DUP3 ADD SWAP2 SWAP1 PUSH0 MSTORE PUSH1 0x20 PUSH0 KECCAK256 SWAP1 JUMPDEST DUP2 SLOAD DUP2 MSTORE SWAP1 PUSH1 0x1 ADD SWAP1 PUSH1 0x20 ADD DUP1 DUP4 GT PUSH2 0x4AEB JUMPI DUP3 SWAP1 SUB PUSH1 0x1F AND DUP3 ADD SWAP2 JUMPDEST POP POP POP POP POP DUP2 MSTORE PUSH1 0x20 ADD PUSH1 0x2 DUP3 ADD DUP1 SLOAD PUSH2 0x4B21 SWAP1 PUSH2 0x89AA JUMP JUMPDEST DUP1 PUSH1 0x1F ADD PUSH1 0x20 DUP1 SWAP2 DIV MUL PUSH1 0x20 ADD PUSH1 0x40 MLOAD SWAP1 DUP2 ADD PUSH1 0x40 MSTORE DUP1 SWAP3 SWAP2 SWAP1 DUP2 DUP2 MSTORE PUSH1 0x20 ADD DUP3 DUP1 SLOAD PUSH2 0x4B4D SWAP1 PUSH2 0x89AA JUMP JUMPDEST DUP1 ISZERO PUSH2 0x4B98 JUMPI DUP1 PUSH1 0x1F LT PUSH2 0x4B6F JUMPI PUSH2 0x100 DUP1 DUP4 SLOAD DIV MUL DUP4 MSTORE SWAP2 PUSH1 0x20 ADD SWAP2 PUSH2 0x4B98 JUMP JUMPDEST DUP3 ADD SWAP2 SWAP1 PUSH0 MSTORE PUSH1 0x20 PUSH0 KECCAK256 SWAP1 JUMPDEST DUP2 SLOAD DUP2 MSTORE SWAP1 PUSH1 0x1 ADD SWAP1 PUSH1 0x20 ADD DUP1 DUP4 GT PUSH2 0x4B7B JUMPI DUP3 SWAP1 SUB PUSH1 0x1F AND DUP3 ADD SWAP2 JUMPDEST POP POP POP POP POP DUP2 MSTORE PUSH1 0x20 ADD PUSH1 0x3 DUP3 ADD DUP1 SLOAD PUSH2 0x4BB1 SWAP1 PUSH2 0x89AA JUMP JUMPDEST DUP1 PUSH1 0x1F ADD PUSH1 0x20 DUP1 SWAP2 DIV MUL PUSH1 0x20 ADD PUSH1 0x40 MLOAD SWAP1 DUP2 ADD PUSH1 0x40 MSTORE DUP1 SWAP3 SWAP2 SWAP1 DUP2 DUP2 MSTORE PUSH1 0x20 ADD DUP3 DUP1 SLOAD PUSH2 0x4BDD SWAP1 PUSH2 0x89AA JUMP JUMPDEST DUP1 ISZERO PUSH2 0x4C28 JUMPI DUP1 PUSH1 0x1F LT PUSH2 0x4BFF JUMPI PUSH2 0x100 DUP1 DUP4 SLOAD DIV MUL DUP4 MSTORE SWAP2 PUSH1 0x20 ADD SWAP2 PUSH2 0x4C28 JUMP JUMPDEST DUP3 ADD SWAP2 SWAP1 PUSH0 MSTORE PUSH1 0x20 PUSH0 KECCAK256 SWAP1 JUMPDEST DUP2 SLOAD DUP2 MSTORE SWAP1 PUSH1 0x1 ADD SWAP1 PUSH1 0x20 ADD DUP1 DUP4 GT PUSH2 0x4C0B JUMPI DUP3 SWAP1 SUB PUSH1 0x1F AND DUP3 ADD SWAP2 JUMPDEST POP POP POP POP POP DUP2 MSTORE PUSH1 0x20 ADD PUSH1 0x4 DUP3 ADD DUP1 SLOAD PUSH2 0x4C41 SWAP1 PUSH2 0x89AA JUMP JUMPDEST DUP1 PUSH1 0x1F ADD PUSH1 0x20 DUP1 SWAP2 DIV MUL PUSH1 0x20 ADD PUSH1 0x40 MLOAD SWAP1 DUP2 ADD PUSH1 0x40 MSTORE DUP1 SWAP3 SWAP2 SWAP1 DUP2 DUP2 MSTORE PUSH1 0x20 ADD DUP3 DUP1 SLOAD PUSH2 0x4C6D SWAP1 PUSH2 0x89AA JUMP JUMPDEST DUP1 ISZERO PUSH2 0x4CB8 JUMPI DUP1 PUSH1 0x1F LT PUSH2 0x4C8F JUMPI PUSH2 0x100 DUP1 DUP4 SLOAD DIV MUL DUP4 MSTORE SWAP2 PUSH1 0x20 ADD SWAP2 PUSH2 0x4CB8 JUMP JUMPDEST DUP3 ADD SWAP2 SWAP1 PUSH0 MSTORE PUSH1 0x20 PUSH0 KECCAK256 SWAP1 JUMPDEST DUP2 SLOAD DUP2 MSTORE SWAP1 PUSH1 0x1 ADD SWAP1 PUSH1 0x20 ADD DUP1 DUP4 GT PUSH2 0x4C9B JUMPI DUP3 SWAP1 SUB PUSH1 0x1F AND DUP3 ADD SWAP2 JUMPDEST POP POP POP POP POP DUP2 MSTORE PUSH1 0x20 ADD PUSH1 0x5 DUP3 ADD DUP1 SLOAD PUSH2 0x4CD1 SWAP1 PUSH2 0x89AA JUMP JUMPDEST DUP1 PUSH1 0x1F ADD PUSH1 0x20 DUP1 SWAP2 DIV MUL PUSH1 0x20 ADD PUSH1 0x40 MLOAD SWAP1 DUP2 ADD PUSH1 0x40 MSTORE DUP1 SWAP3 SWAP2 SWAP1 DUP2 DUP2 MSTORE PUSH1 0x20 ADD DUP3 DUP1 SLOAD PUSH2 0x4CFD SWAP1 PUSH2 0x89AA JUMP JUMPDEST DUP1 ISZERO PUSH2 0x4D48 JUMPI DUP1 PUSH1 0x1F LT PUSH2 0x4D1F JUMPI PUSH2 0x100 DUP1 DUP4 SLOAD DIV MUL DUP4 MSTORE SWAP2 PUSH1 0x20 ADD SWAP2 PUSH2 0x4D48 JUMP JUMPDEST DUP3 ADD SWAP2 SWAP1 PUSH0 MSTORE PUSH1 0x20 PUSH0 KECCAK256 SWAP1 JUMPDEST DUP2 SLOAD DUP2 MSTORE SWAP1 PUSH1 0x1 ADD SWAP1 PUSH1 0x20 ADD DUP1 DUP4 GT PUSH2 0x4D2B JUMPI DUP3 SWAP1 SUB PUSH1 0x1F AND DUP3 ADD SWAP2 JUMPDEST POP POP POP POP POP DUP2 MSTORE PUSH1 0x20 ADD PUSH1 0x6 DUP3 ADD DUP1 SLOAD PUSH2 0x4D61 SWAP1 PUSH2 0x89AA JUMP JUMPDEST DUP1 PUSH1 0x1F ADD PUSH1 0x20 DUP1 SWAP2 DIV MUL PUSH1 0x20 ADD PUSH1 0x40 MLOAD SWAP1 DUP2 ADD PUSH1 0x40 MSTORE DUP1 SWAP3 SWAP2 SWAP1 DUP2 DUP2 MSTORE PUSH1 0x20 ADD DUP3 DUP1 SLOAD PUSH2 0x4D8D SWAP1 PUSH2 0x89AA JUMP JUMPDEST DUP1 ISZERO PUSH2 0x4DD8 JUMPI DUP1 PUSH1 0x1F LT PUSH2 0x4DAF JUMPI PUSH2 0x100 DUP1 DUP4 SLOAD DIV MUL DUP4 MSTORE SWAP2 PUSH1 0x20 ADD SWAP2 PUSH2 0x4DD8 JUMP JUMPDEST DUP3 ADD SWAP2 SWAP1 PUSH0 MSTORE PUSH1 0x20 PUSH0 KECCAK256 SWAP1 JUMPDEST DUP2 SLOAD DUP2 MSTORE SWAP1 PUSH1 0x1 ADD SWAP1 PUSH1 0x20 ADD DUP1 DUP4 GT PUSH2 0x4DBB JUMPI DUP3 SWAP1 SUB PUSH1 0x1F AND DUP3 ADD SWAP2 JUMPDEST POP POP POP POP POP DUP2 MSTORE PUSH1 0x20 ADD PUSH1 0x7 DUP3 ADD DUP1 SLOAD PUSH2 0x4DF1 SWAP1 PUSH2 0x89AA JUMP JUMPDEST DUP1 PUSH1 0x1F ADD PUSH1 0x20 DUP1 SWAP2 DIV MUL PUSH1 0x20 ADD PUSH1 0x40 MLOAD SWAP1 DUP2 ADD PUSH1 0x40 MSTORE DUP1 SWAP3 SWAP2 SWAP1 DUP2 DUP2 MSTORE PUSH1 0x20 ADD DUP3 DUP1 SLOAD PUSH2 0x4E1D SWAP1 PUSH2 0x89AA JUMP JUMPDEST DUP1 ISZERO PUSH2 0x4E68 JUMPI DUP1 PUSH1 0x1F LT PUSH2 0x4E3F JUMPI PUSH2 0x100 DUP1 DUP4 SLOAD DIV MUL DUP4 MSTORE SWAP2 PUSH1 0x20 ADD SWAP2 PUSH2 0x4E68 JUMP JUMPDEST DUP3 ADD SWAP2 SWAP1 PUSH0 MSTORE PUSH1 0x20 PUSH0 KECCAK256 SWAP1 JUMPDEST DUP2 SLOAD DUP2 MSTORE SWAP1 PUSH1 0x1 ADD SWAP1 PUSH1 0x20 ADD DUP1 DUP4 GT PUSH2 0x4E4B JUMPI DUP3 SWAP1 SUB PUSH1 0x1F AND DUP3 ADD SWAP2 JUMPDEST POP POP POP POP POP DUP2 MSTORE PUSH1 0x20 ADD PUSH1 0x8 DUP3 ADD DUP1 SLOAD PUSH2 0x4E81 SWAP1 PUSH2 0x89AA JUMP JUMPDEST DUP1 PUSH1 0x1F ADD PUSH1 0x20 DUP1 SWAP2 DIV MUL PUSH1 0x20 ADD PUSH1 0x40 MLOAD SWAP1 DUP2 ADD PUSH1 0x40 MSTORE DUP1 SWAP3 SWAP2 SWAP1 DUP2 DUP2 MSTORE PUSH1 0x20 ADD DUP3 DUP1 SLOAD PUSH2 0x4EAD SWAP1 PUSH2 0x89AA JUMP JUMPDEST DUP1 ISZERO PUSH2 0x4EF8 JUMPI DUP1 PUSH1 0x1F LT PUSH2 0x4ECF JUMPI PUSH2 0x100 DUP1 DUP4 SLOAD DIV MUL DUP4 MSTORE SWAP2 PUSH1 0x20 ADD SWAP2 PUSH2 0x4EF8 JUMP JUMPDEST DUP3 ADD SWAP2 SWAP1 PUSH0 MSTORE PUSH1 0x20 PUSH0 KECCAK256 SWAP1 JUMPDEST DUP2 SLOAD DUP2 MSTORE SWAP1 PUSH1 0x1 ADD SWAP1 PUSH1 0x20 ADD DUP1 DUP4 GT PUSH2 0x4EDB JUMPI DUP3 SWAP1 SUB PUSH1 0x1F AND DUP3 ADD SWAP2 JUMPDEST POP POP POP SWAP2 SWAP1 SWAP3 MSTORE POP POP POP DUP2 MSTORE PUSH1 0xA DUP3 ADD SLOAD PUSH1 0x1 PUSH1 0x1 PUSH1 0xA0 SHL SUB AND PUSH1 0x20 DUP1 DUP4 ADD SWAP2 SWAP1 SWAP2 MSTORE PUSH1 0x40 DUP1 MLOAD PUSH1 0x80 DUP2 ADD DUP3 MSTORE PUSH1 0xB DUP6 ADD DUP1 SLOAD DUP3 MSTORE PUSH1 0xC DUP7 ADD SLOAD SWAP4 DUP3 ADD SWAP4 SWAP1 SWAP4 MSTORE PUSH1 0xD DUP6 ADD SLOAD SWAP4 DUP3 ADD SWAP4 SWAP1 SWAP3 SWAP2 DUP4 ADD SWAP1 PUSH1 0xFF AND PUSH1 0x1 DUP2 GT ISZERO PUSH2 0x4F5C JUMPI PUSH2 0x4F5C PUSH2 0x867E JUMP JUMPDEST PUSH1 0x1 DUP2 GT ISZERO PUSH2 0x4F6D JUMPI PUSH2 0x4F6D PUSH2 0x867E JUMP JUMPDEST DUP2 MSTORE PUSH1 0x20 ADD PUSH1 0x2 DUP3 ADD PUSH1 0x1 SWAP1 SLOAD SWAP1 PUSH2 0x100 EXP SWAP1 DIV PUSH1 0xFF AND PUSH1 0x1 DUP2 GT ISZERO PUSH2 0x4F95 JUMPI PUSH2 0x4F95 PUSH2 0x867E JUMP JUMPDEST PUSH1 0x1 DUP2 GT ISZERO PUSH2 0x4FA6 JUMPI PUSH2 0x4FA6 PUSH2 0x867E JUMP JUMPDEST SWAP1 MSTORE POP SWAP1 MSTORE POP SWAP3 SWAP2 POP POP JUMP JUMPDEST PUSH1 0x1 PUSH1 0x1 PUSH1 0xA0 SHL SUB DUP2 AND PUSH0 SWAP1 DUP2 MSTORE PUSH1 0x6 PUSH1 0x20 MSTORE PUSH1 0x40 DUP2 KECCAK256 SLOAD PUSH1 0x60 SWAP2 SWAP1 PUSH1 0x1 PUSH1 0x1 PUSH1 0x40 SHL SUB DUP2 GT ISZERO PUSH2 0x4FE5 JUMPI PUSH2 0x4FE5 PUSH2 0x767E JUMP JUMPDEST PUSH1 0x40 MLOAD SWAP1 DUP1 DUP3 MSTORE DUP1 PUSH1 0x20 MUL PUSH1 0x20 ADD DUP3 ADD PUSH1 0x40 MSTORE DUP1 ISZERO PUSH2 0x501E JUMPI DUP2 PUSH1 0x20 ADD JUMPDEST PUSH2 0x500B PUSH2 0x74A2 JUMP JUMPDEST DUP2 MSTORE PUSH1 0x20 ADD SWAP1 PUSH1 0x1 SWAP1 SUB SWAP1 DUP2 PUSH2 0x5003 JUMPI SWAP1 POP JUMPDEST POP PUSH1 0x1 PUSH1 0x1 PUSH1 0xA0 SHL SUB DUP5 AND PUSH0 SWAP1 DUP2 MSTORE PUSH1 0x6 PUSH1 0x20 MSTORE PUSH1 0x40 DUP2 KECCAK256 SWAP2 SWAP3 POP JUMPDEST DUP2 SLOAD DUP2 LT ISZERO PUSH2 0x5296 JUMPI PUSH1 0x7 PUSH0 DUP4 DUP4 DUP2 SLOAD DUP2 LT PUSH2 0x5058 JUMPI PUSH2 0x5058 PUSH2 0x8C2F JUMP JUMPDEST SWAP1 PUSH0 MSTORE PUSH1 0x20 PUSH0 KECCAK256 ADD SLOAD DUP2 MSTORE PUSH1 0x20 ADD SWAP1 DUP2 MSTORE PUSH1 0x20 ADD PUSH0 KECCAK256 PUSH1 0x40 MLOAD DUP1 PUSH1 0xA0 ADD PUSH1 0x40 MSTORE SWAP1 DUP2 PUSH0 DUP3 ADD SLOAD DUP2 MSTORE PUSH1 0x20 ADD PUSH1 0x1 DUP3 ADD DUP1 SLOAD DUP1 PUSH1 0x20 MUL PUSH1 0x20 ADD PUSH1 0x40 MLOAD SWAP1 DUP2 ADD PUSH1 0x40 MSTORE DUP1 SWAP3 SWAP2 SWAP1 DUP2 DUP2 MSTORE PUSH1 0x20 ADD PUSH0 SWAP1 JUMPDEST DUP3 DUP3 LT ISZERO PUSH2 0x5237 JUMPI DUP4 DUP3 SWAP1 PUSH0 MSTORE PUSH1 0x20 PUSH0 KECCAK256 SWAP1 PUSH1 0x5 MUL ADD PUSH1 0x40 MLOAD DUP1 PUSH1 0xA0 ADD PUSH1 0x40 MSTORE SWAP1 DUP2 PUSH0 DUP3 ADD DUP1 SLOAD DUP1 PUSH1 0x20 MUL PUSH1 0x20 ADD PUSH1 0x40 MLOAD SWAP1 DUP2 ADD PUSH1 0x40 MSTORE DUP1 SWAP3 SWAP2 SWAP1 DUP2 DUP2 MSTORE PUSH1 0x20 ADD DUP3 DUP1 SLOAD DUP1 ISZERO PUSH2 0x5113 JUMPI PUSH1 0x20 MUL DUP3 ADD SWAP2 SWAP1 PUSH0 MSTORE PUSH1 0x20 PUSH0 KECCAK256 SWAP1 JUMPDEST DUP2 SLOAD DUP2 MSTORE PUSH1 0x20 ADD SWAP1 PUSH1 0x1 ADD SWAP1 DUP1 DUP4 GT PUSH2 0x50FF JUMPI JUMPDEST POP POP POP POP POP DUP2 MSTORE PUSH1 0x20 ADD PUSH1 0x1 DUP3 ADD DUP1 SLOAD DUP1 PUSH1 0x20 MUL PUSH1 0x20 ADD PUSH1 0x40 MLOAD SWAP1 DUP2 ADD PUSH1 0x40 MSTORE DUP1 SWAP3 SWAP2 SWAP1 DUP2 DUP2 MSTORE PUSH1 0x20 ADD DUP3 DUP1 SLOAD DUP1 ISZERO PUSH2 0x5169 JUMPI PUSH1 0x20 MUL DUP3 ADD SWAP2 SWAP1 PUSH0 MSTORE PUSH1 0x20 PUSH0 KECCAK256 SWAP1 JUMPDEST DUP2 SLOAD DUP2 MSTORE PUSH1 0x20 ADD SWAP1 PUSH1 0x1 ADD SWAP1 DUP1 DUP4 GT PUSH2 0x5155 JUMPI JUMPDEST POP POP POP POP POP DUP2 MSTORE PUSH1 0x20 ADD PUSH1 0x2 DUP3 ADD DUP1 SLOAD DUP1 PUSH1 0x20 MUL PUSH1 0x20 ADD PUSH1 0x40 MLOAD SWAP1 DUP2 ADD PUSH1 0x40 MSTORE DUP1 SWAP3 SWAP2 SWAP1 DUP2 DUP2 MSTORE PUSH1 0x20 ADD DUP3 DUP1 SLOAD DUP1 ISZERO PUSH2 0x51BF JUMPI PUSH1 0x20 MUL DUP3 ADD SWAP2 SWAP1 PUSH0 MSTORE PUSH1 0x20 PUSH0 KECCAK256 SWAP1 JUMPDEST DUP2 SLOAD DUP2 MSTORE PUSH1 0x20 ADD SWAP1 PUSH1 0x1 ADD SWAP1 DUP1 DUP4 GT PUSH2 0x51AB JUMPI JUMPDEST POP POP POP POP POP DUP2 MSTORE PUSH1 0x20 ADD PUSH1 0x3 DUP3 ADD DUP1 SLOAD DUP1 PUSH1 0x20 MUL PUSH1 0x20 ADD PUSH1 0x40 MLOAD SWAP1 DUP2 ADD PUSH1 0x40 MSTORE DUP1 SWAP3 SWAP2 SWAP1 DUP2 DUP2 MSTORE PUSH1 0x20 ADD DUP3 DUP1 SLOAD DUP1 ISZERO PUSH2 0x5215 JUMPI PUSH1 0x20 MUL DUP3 ADD SWAP2 SWAP1 PUSH0 MSTORE PUSH1 0x20 PUSH0 KECCAK256 SWAP1 JUMPDEST DUP2 SLOAD DUP2 MSTORE PUSH1 0x20 ADD SWAP1 PUSH1 0x1 ADD SWAP1 DUP1 DUP4 GT PUSH2 0x5201 JUMPI JUMPDEST POP POP POP POP POP DUP2 MSTORE PUSH1 0x20 ADD PUSH1 0x4 DUP3 ADD SLOAD DUP2 MSTORE POP POP DUP2 MSTORE PUSH1 0x20 ADD SWAP1 PUSH1 0x1 ADD SWAP1 PUSH2 0x50A6 JUMP JUMPDEST POP POP POP SWAP1 DUP3 MSTORE POP PUSH1 0x2 DUP3 ADD SLOAD PUSH1 0x1 PUSH1 0x1 PUSH1 0xA0 SHL SUB DUP2 AND PUSH1 0x20 DUP4 ADD MSTORE PUSH1 0x1 PUSH1 0xA0 SHL SWAP1 DIV PUSH1 0xFF AND ISZERO ISZERO PUSH1 0x40 DUP3 ADD MSTORE PUSH1 0x3 SWAP1 SWAP2 ADD SLOAD PUSH1 0x60 SWAP1 SWAP2 ADD MSTORE DUP4 MLOAD DUP5 SWAP1 DUP4 SWAP1 DUP2 LT PUSH2 0x5283 JUMPI PUSH2 0x5283 PUSH2 0x8C2F JUMP JUMPDEST PUSH1 0x20 SWAP1 DUP2 MUL SWAP2 SWAP1 SWAP2 ADD ADD MSTORE PUSH1 0x1 ADD PUSH2 0x503A JUMP JUMPDEST POP SWAP1 SWAP4 SWAP3 POP POP POP JUMP JUMPDEST PUSH1 0x2 PUSH1 0x20 MSTORE DUP2 PUSH0 MSTORE PUSH1 0x40 PUSH0 KECCAK256 DUP2 DUP2 SLOAD DUP2 LT PUSH2 0x8B7 JUMPI PUSH0 DUP1 REVERT JUMPDEST PUSH1 0x15 SLOAD PUSH1 0x1 PUSH1 0x1 PUSH1 0xA0 SHL SUB AND CALLER DUP2 EQ PUSH2 0x52E3 JUMPI PUSH1 0x40 MLOAD PUSH3 0x461BCD PUSH1 0xE5 SHL DUP2 MSTORE PUSH1 0x4 ADD PUSH2 0xB1C SWAP1 PUSH2 0x91FC JUMP JUMPDEST PUSH0 DUP3 DUP2 MSTORE PUSH1 0x5 PUSH1 0x20 MSTORE PUSH1 0x40 SWAP1 KECCAK256 SLOAD DUP1 PUSH2 0x532F JUMPI PUSH1 0x40 MLOAD PUSH3 0x461BCD PUSH1 0xE5 SHL DUP2 MSTORE PUSH1 0x20 PUSH1 0x4 DUP3 ADD MSTORE PUSH1 0xE PUSH1 0x24 DUP3 ADD MSTORE PUSH14 0x1DDC9BDB99C81BDC99195C881251 PUSH1 0x92 SHL PUSH1 0x44 DUP3 ADD MSTORE PUSH1 0x64 ADD PUSH2 0xB1C JUMP JUMPDEST PUSH0 DUP2 DUP2 MSTORE PUSH1 0x1 PUSH1 0x20 DUP2 DUP2 MSTORE PUSH1 0x40 DUP1 DUP5 KECCAK256 DUP2 MLOAD PUSH2 0x260 DUP2 ADD DUP4 MSTORE DUP2 SLOAD DUP2 MSTORE SWAP4 DUP2 ADD SLOAD PUSH1 0x1 PUSH1 0x1 PUSH1 0xA0 SHL SUB SWAP1 DUP2 AND DUP6 DUP6 ADD MSTORE PUSH1 0x2 DUP3 ADD SLOAD AND DUP5 DUP4 ADD MSTORE PUSH1 0x3 DUP2 ADD SLOAD PUSH1 0x60 DUP6 ADD MSTORE PUSH1 0x4 DUP2 ADD DUP1 SLOAD DUP4 MLOAD DUP2 DUP7 MUL DUP2 ADD DUP7 ADD SWAP1 SWAP5 MSTORE DUP1 DUP5 MSTORE SWAP2 SWAP4 PUSH1 0x80 DUP7 ADD SWAP4 SWAP3 SWAP1 DUP4 ADD DUP3 DUP3 DUP1 ISZERO PUSH2 0x53BE JUMPI PUSH1 0x20 MUL DUP3 ADD SWAP2 SWAP1 PUSH0 MSTORE PUSH1 0x20 PUSH0 KECCAK256 SWAP1 JUMPDEST DUP2 SLOAD DUP2 MSTORE PUSH1 0x20 ADD SWAP1 PUSH1 0x1 ADD SWAP1 DUP1 DUP4 GT PUSH2 0x53AA JUMPI JUMPDEST POP POP POP POP POP DUP2 MSTORE PUSH1 0x20 ADD PUSH1 0x5 DUP3 ADD DUP1 SLOAD DUP1 PUSH1 0x20 MUL PUSH1 0x20 ADD PUSH1 0x40 MLOAD SWAP1 DUP2 ADD PUSH1 0x40 MSTORE DUP1 SWAP3 SWAP2 SWAP1 DUP2 DUP2 MSTORE PUSH1 0x20 ADD DUP3 DUP1 SLOAD DUP1 ISZERO PUSH2 0x5414 JUMPI PUSH1 0x20 MUL DUP3 ADD SWAP2 SWAP1 PUSH0 MSTORE PUSH1 0x20 PUSH0 KECCAK256 SWAP1 JUMPDEST DUP2 SLOAD DUP2 MSTORE PUSH1 0x20 ADD SWAP1 PUSH1 0x1 ADD SWAP1 DUP1 DUP4 GT PUSH2 0x5400 JUMPI JUMPDEST POP POP POP POP POP DUP2 MSTORE PUSH1 0x20 ADD PUSH1 0x6 DUP3 ADD DUP1 SLOAD DUP1 PUSH1 0x20 MUL PUSH1 0x20 ADD PUSH1 0x40 MLOAD SWAP1 DUP2 ADD PUSH1 0x40 MSTORE DUP1 SWAP3 SWAP2 SWAP1 DUP2 DUP2 MSTORE PUSH1 0x20 ADD DUP3 DUP1 SLOAD DUP1 ISZERO PUSH2 0x546A JUMPI PUSH1 0x20 MUL DUP3 ADD SWAP2 SWAP1 PUSH0 MSTORE PUSH1 0x20 PUSH0 KECCAK256 SWAP1 JUMPDEST DUP2 SLOAD DUP2 MSTORE PUSH1 0x20 ADD SWAP1 PUSH1 0x1 ADD SWAP1 DUP1 DUP4 GT PUSH2 0x5456 JUMPI JUMPDEST POP POP POP POP POP DUP2 MSTORE PUSH1 0x20 ADD PUSH1 0x7 DUP3 ADD DUP1 SLOAD DUP1 PUSH1 0x20 MUL PUSH1 0x20 ADD PUSH1 0x40 MLOAD SWAP1 DUP2 ADD PUSH1 0x40 MSTORE DUP1 SWAP3 SWAP2 SWAP1 DUP2 DUP2 MSTORE PUSH1 0x20 ADD DUP3 DUP1 SLOAD DUP1 ISZERO PUSH2 0x54C0 JUMPI PUSH1 0x20 MUL DUP3 ADD SWAP2 SWAP1 PUSH0 MSTORE PUSH1 0x20 PUSH0 KECCAK256 SWAP1 JUMPDEST DUP2 SLOAD DUP2 MSTORE PUSH1 0x20 ADD SWAP1 PUSH1 0x1 ADD SWAP1 DUP1 DUP4 GT PUSH2 0x54AC JUMPI JUMPDEST POP POP POP POP POP DUP2 MSTORE PUSH1 0x20 ADD PUSH1 0x8 DUP3 ADD DUP1 SLOAD DUP1 PUSH1 0x20 MUL PUSH1 0x20 ADD PUSH1 0x40 MLOAD SWAP1 DUP2 ADD PUSH1 0x40 MSTORE DUP1 SWAP3 SWAP2 SWAP1 DUP2 DUP2 MSTORE PUSH1 0x20 ADD DUP3 DUP1 SLOAD DUP1 ISZERO PUSH2 0x5516 JUMPI PUSH1 0x20 MUL DUP3 ADD SWAP2 SWAP1 PUSH0 MSTORE PUSH1 0x20 PUSH0 KECCAK256 SWAP1 JUMPDEST DUP2 SLOAD DUP2 MSTORE PUSH1 0x20 ADD SWAP1 PUSH1 0x1 ADD SWAP1 DUP1 DUP4 GT PUSH2 0x5502 JUMPI JUMPDEST POP POP POP POP POP DUP2 MSTORE PUSH1 0x20 ADD PUSH1 0x9 DUP3 ADD DUP1 SLOAD DUP1 PUSH1 0x20 MUL PUSH1 0x20 ADD PUSH1 0x40 MLOAD SWAP1 DUP2 ADD PUSH1 0x40 MSTORE DUP1 SWAP3 SWAP2 SWAP1 DUP2 DUP2 MSTORE PUSH1 0x20 ADD DUP3 DUP1 SLOAD DUP1 ISZERO PUSH2 0x556C JUMPI PUSH1 0x20 MUL DUP3 ADD SWAP2 SWAP1 PUSH0 MSTORE PUSH1 0x20 PUSH0 KECCAK256 SWAP1 JUMPDEST DUP2 SLOAD DUP2 MSTORE PUSH1 0x20 ADD SWAP1 PUSH1 0x1 ADD SWAP1 DUP1 DUP4 GT PUSH2 0x5558 JUMPI JUMPDEST POP POP POP POP POP DUP2 MSTORE PUSH1 0x20 ADD PUSH1 0xA DUP3 ADD DUP1 SLOAD DUP1 PUSH1 0x20 MUL PUSH1 0x20 ADD PUSH1 0x40 MLOAD SWAP1 DUP2 ADD PUSH1 0x40 MSTORE DUP1 SWAP3 SWAP2 SWAP1 DUP2 DUP2 MSTORE PUSH1 0x20 ADD DUP3 DUP1 SLOAD DUP1 ISZERO PUSH2 0x55C2 JUMPI PUSH1 0x20 MUL DUP3 ADD SWAP2 SWAP1 PUSH0 MSTORE PUSH1 0x20 PUSH0 KECCAK256 SWAP1 JUMPDEST DUP2 SLOAD DUP2 MSTORE PUSH1 0x20 ADD SWAP1 PUSH1 0x1 ADD SWAP1 DUP1 DUP4 GT PUSH2 0x55AE JUMPI JUMPDEST POP POP POP SWAP2 DUP4 MSTORE POP POP PUSH1 0xB DUP3 ADD SLOAD PUSH1 0x20 DUP3 ADD MSTORE PUSH1 0xC DUP3 ADD SLOAD PUSH1 0xFF DUP1 DUP3 AND PUSH1 0x40 DUP5 ADD MSTORE PUSH2 0x100 SWAP2 DUP3 SWAP1 DIV DUP2 AND PUSH1 0x60 DUP5 ADD MSTORE PUSH1 0xD DUP5 ADD SLOAD PUSH1 0x80 DUP1 DUP6 ADD SWAP2 SWAP1 SWAP2 MSTORE PUSH1 0xE DUP6 ADD SLOAD PUSH1 0xA0 DUP6 ADD MSTORE PUSH1 0xF DUP6 ADD SLOAD PUSH1 0xC0 DUP6 ADD MSTORE PUSH1 0x10 DUP6 ADD SLOAD SWAP1 SWAP2 AND PUSH1 0xE0 DUP5 ADD MSTORE PUSH1 0x11 SWAP1 SWAP4 ADD SLOAD SWAP2 ADD MSTORE DUP2 ADD MLOAD MLOAD SWAP1 SWAP2 POP PUSH2 0x566E JUMPI PUSH1 0x40 MLOAD PUSH3 0x461BCD PUSH1 0xE5 SHL DUP2 MSTORE PUSH1 0x20 PUSH1 0x4 DUP3 ADD MSTORE PUSH1 0xF PUSH1 0x24 DUP3 ADD MSTORE PUSH15 0x3737BA103337BAB7321037B93232B9 PUSH1 0x89 SHL PUSH1 0x44 DUP3 ADD MSTORE PUSH1 0x64 ADD PUSH2 0xB1C JUMP JUMPDEST PUSH0 JUMPDEST DUP2 PUSH1 0xA0 ADD MLOAD MLOAD DUP2 PUSH1 0xFF AND LT ISZERO PUSH2 0x5AD5 JUMPI PUSH1 0x12 SLOAD PUSH1 0xA0 DUP4 ADD MLOAD DUP1 MLOAD PUSH0 SWAP3 PUSH1 0x1 PUSH1 0x1 PUSH1 0xA0 SHL SUB AND SWAP2 PUSH3 0x41C629 SWAP2 PUSH1 0xFF DUP7 AND SWAP1 DUP2 LT PUSH2 0x56AE JUMPI PUSH2 0x56AE PUSH2 0x8C2F JUMP JUMPDEST PUSH1 0x20 MUL PUSH1 0x20 ADD ADD MLOAD DUP6 PUSH1 0xC0 ADD MLOAD DUP6 PUSH1 0xFF AND DUP2 MLOAD DUP2 LT PUSH2 0x56CF JUMPI PUSH2 0x56CF PUSH2 0x8C2F JUMP JUMPDEST PUSH1 0x20 MUL PUSH1 0x20 ADD ADD MLOAD PUSH1 0x40 MLOAD DUP4 PUSH4 0xFFFFFFFF AND PUSH1 0xE0 SHL DUP2 MSTORE PUSH1 0x4 ADD PUSH2 0x56F4 SWAP3 SWAP2 SWAP1 PUSH2 0x9126 JUMP JUMPDEST PUSH1 0xC0 PUSH1 0x40 MLOAD DUP1 DUP4 SUB DUP2 DUP7 GAS STATICCALL ISZERO DUP1 ISZERO PUSH2 0x570F JUMPI RETURNDATASIZE PUSH0 DUP1 RETURNDATACOPY RETURNDATASIZE PUSH0 REVERT JUMPDEST POP POP POP POP PUSH1 0x40 MLOAD RETURNDATASIZE PUSH1 0x1F NOT PUSH1 0x1F DUP3 ADD AND DUP3 ADD DUP1 PUSH1 0x40 MSTORE POP DUP2 ADD SWAP1 PUSH2 0x5733 SWAP2 SWAP1 PUSH2 0x9134 JUMP JUMPDEST SWAP1 POP DUP3 PUSH1 0xE0 ADD MLOAD DUP3 PUSH1 0xFF AND DUP2 MLOAD DUP2 LT PUSH2 0x574E JUMPI PUSH2 0x574E PUSH2 0x8C2F JUMP JUMPDEST PUSH1 0x20 MUL PUSH1 0x20 ADD ADD MLOAD DUP2 PUSH1 0x20 ADD MLOAD PUSH1 0x80 ADD MLOAD PUSH2 0x5769 SWAP2 SWAP1 PUSH2 0x9271 JUMP JUMPDEST PUSH1 0x20 DUP3 ADD MLOAD PUSH1 0x80 ADD MSTORE PUSH1 0x12 SLOAD PUSH1 0xA0 DUP5 ADD MLOAD DUP1 MLOAD PUSH1 0x1 PUSH1 0x1 PUSH1 0xA0 SHL SUB SWAP1 SWAP3 AND SWAP2 PUSH4 0x1D068976 SWAP2 SWAP1 PUSH1 0xFF DUP7 AND SWAP1 DUP2 LT PUSH2 0x57A2 JUMPI PUSH2 0x57A2 PUSH2 0x8C2F JUMP JUMPDEST PUSH1 0x20 MUL PUSH1 0x20 ADD ADD MLOAD DUP6 PUSH1 0xC0 ADD MLOAD DUP6 PUSH1 0xFF AND DUP2 MLOAD DUP2 LT PUSH2 0x57C3 JUMPI PUSH2 0x57C3 PUSH2 0x8C2F JUMP JUMPDEST PUSH1 0x20 MUL PUSH1 0x20 ADD ADD MLOAD DUP5 PUSH1 0x20 ADD MLOAD PUSH1 0x80 ADD MLOAD DUP8 PUSH1 0xE0 ADD MLOAD DUP8 PUSH1 0xFF AND DUP2 MLOAD DUP2 LT PUSH2 0x57ED JUMPI PUSH2 0x57ED PUSH2 0x8C2F JUMP JUMPDEST PUSH1 0x20 MUL PUSH1 0x20 ADD ADD MLOAD PUSH1 0x40 MLOAD DUP6 PUSH4 0xFFFFFFFF AND PUSH1 0xE0 SHL DUP2 MSTORE PUSH1 0x4 ADD PUSH2 0x582A SWAP5 SWAP4 SWAP3 SWAP2 SWAP1 SWAP4 DUP5 MSTORE PUSH1 0x20 DUP5 ADD SWAP3 SWAP1 SWAP3 MSTORE PUSH1 0x40 DUP4 ADD MSTORE PUSH1 0x60 DUP3 ADD MSTORE PUSH1 0x80 ADD SWAP1 JUMP JUMPDEST PUSH0 PUSH1 0x40 MLOAD DUP1 DUP4 SUB DUP2 PUSH0 DUP8 DUP1 EXTCODESIZE ISZERO DUP1 ISZERO PUSH2 0x5841 JUMPI PUSH0 DUP1 REVERT JUMPDEST POP GAS CALL ISZERO DUP1 ISZERO PUSH2 0x5853 JUMPI RETURNDATASIZE PUSH0 DUP1 RETURNDATACOPY RETURNDATASIZE PUSH0 REVERT JUMPDEST POP POP PUSH1 0x14 SLOAD PUSH1 0xA0 DUP7 ADD MLOAD DUP1 MLOAD PUSH1 0x1 PUSH1 0x1 PUSH1 0xA0 SHL SUB SWAP1 SWAP3 AND SWAP4 POP PUSH4 0x8286980C SWAP3 POP SWAP1 PUSH1 0xFF DUP7 AND SWAP1 DUP2 LT PUSH2 0x5887 JUMPI PUSH2 0x5887 PUSH2 0x8C2F JUMP JUMPDEST PUSH1 0x20 MUL PUSH1 0x20 ADD ADD MLOAD PUSH1 0x40 MLOAD DUP3 PUSH4 0xFFFFFFFF AND PUSH1 0xE0 SHL DUP2 MSTORE PUSH1 0x4 ADD PUSH2 0x58AD SWAP2 DUP2 MSTORE PUSH1 0x20 ADD SWAP1 JUMP JUMPDEST PUSH0 PUSH1 0x40 MLOAD DUP1 DUP4 SUB DUP2 PUSH0 DUP8 DUP1 EXTCODESIZE ISZERO DUP1 ISZERO PUSH2 0x58C4 JUMPI PUSH0 DUP1 REVERT JUMPDEST POP GAS CALL ISZERO DUP1 ISZERO PUSH2 0x58D6 JUMPI RETURNDATASIZE PUSH0 DUP1 RETURNDATACOPY RETURNDATASIZE PUSH0 REVERT JUMPDEST POP POP PUSH1 0x14 SLOAD PUSH1 0x20 DUP7 ADD MLOAD PUSH1 0xA0 DUP8 ADD MLOAD DUP1 MLOAD PUSH1 0x1 PUSH1 0x1 PUSH1 0xA0 SHL SUB SWAP1 SWAP4 AND SWAP5 POP PUSH4 0x5B956627 SWAP4 POP SWAP1 SWAP2 PUSH1 0xFF DUP8 AND SWAP1 DUP2 LT PUSH2 0x5910 JUMPI PUSH2 0x5910 PUSH2 0x8C2F JUMP JUMPDEST PUSH1 0x20 MUL PUSH1 0x20 ADD ADD MLOAD PUSH1 0x40 MLOAD DUP4 PUSH4 0xFFFFFFFF AND PUSH1 0xE0 SHL DUP2 MSTORE PUSH1 0x4 ADD PUSH2 0x5949 SWAP3 SWAP2 SWAP1 PUSH1 0x1 PUSH1 0x1 PUSH1 0xA0 SHL SUB SWAP3 SWAP1 SWAP3 AND DUP3 MSTORE PUSH1 0x20 DUP3 ADD MSTORE PUSH1 0x40 ADD SWAP1 JUMP JUMPDEST PUSH0 PUSH1 0x40 MLOAD DUP1 DUP4 SUB DUP2 PUSH0 DUP8 DUP1 EXTCODESIZE ISZERO DUP1 ISZERO PUSH2 0x5960 JUMPI PUSH0 DUP1 REVERT JUMPDEST POP GAS CALL ISZERO DUP1 ISZERO PUSH2 0x5972 JUMPI RETURNDATASIZE PUSH0 DUP1 RETURNDATACOPY RETURNDATASIZE PUSH0 REVERT JUMPDEST POP PUSH1 0x1 SWAP3 POP PUSH2 0x597F SWAP2 POP POP JUMP JUMPDEST PUSH1 0xFF AND DUP4 PUSH2 0x180 ADD MLOAD PUSH1 0xFF AND EQ PUSH2 0x5A3E JUMPI PUSH0 PUSH2 0x599A DUP6 PUSH2 0x286B JUMP JUMPDEST SWAP1 POP PUSH0 PUSH1 0x40 MLOAD DUP1 PUSH1 0x40 ADD PUSH1 0x40 MSTORE DUP1 DUP7 PUSH1 0xA0 ADD MLOAD DUP7 PUSH1 0xFF AND DUP2 MLOAD DUP2 LT PUSH2 0x59C1 JUMPI PUSH2 0x59C1 PUSH2 0x8C2F JUMP JUMPDEST PUSH1 0x20 SWAP1 DUP2 MUL SWAP2 SWAP1 SWAP2 ADD DUP2 ADD MLOAD DUP3 MSTORE TIMESTAMP SWAP2 ADD MSTORE PUSH1 0x14 SLOAD PUSH1 0x60 DUP1 DUP6 ADD MLOAD ADD MLOAD PUSH1 0x40 MLOAD PUSH4 0x7A752E9 PUSH1 0xE3 SHL DUP2 MSTORE SWAP3 SWAP4 POP PUSH1 0x1 PUSH1 0x1 PUSH1 0xA0 SHL SUB SWAP1 SWAP2 AND SWAP2 PUSH4 0x3D3A9748 SWAP2 PUSH2 0x5A0E SWAP2 DUP6 SWAP1 PUSH1 0x4 ADD PUSH2 0x9298 JUMP JUMPDEST PUSH0 PUSH1 0x40 MLOAD DUP1 DUP4 SUB DUP2 PUSH0 DUP8 DUP1 EXTCODESIZE ISZERO DUP1 ISZERO PUSH2 0x5A25 JUMPI PUSH0 DUP1 REVERT JUMPDEST POP GAS CALL ISZERO DUP1 ISZERO PUSH2 0x5A37 JUMPI RETURNDATASIZE PUSH0 DUP1 RETURNDATACOPY RETURNDATASIZE PUSH0 REVERT JUMPDEST POP POP POP POP POP POP JUMPDEST PUSH1 0x14 SLOAD PUSH1 0xA0 DUP5 ADD MLOAD DUP1 MLOAD PUSH1 0x1 PUSH1 0x1 PUSH1 0xA0 SHL SUB SWAP1 SWAP3 AND SWAP2 PUSH4 0xB34210E1 SWAP2 SWAP1 PUSH1 0xFF DUP7 AND SWAP1 DUP2 LT PUSH2 0x5A6E JUMPI PUSH2 0x5A6E PUSH2 0x8C2F JUMP JUMPDEST PUSH1 0x20 MUL PUSH1 0x20 ADD ADD MLOAD PUSH1 0x40 MLOAD DUP3 PUSH4 0xFFFFFFFF AND PUSH1 0xE0 SHL DUP2 MSTORE PUSH1 0x4 ADD PUSH2 0x5A94 SWAP2 DUP2 MSTORE PUSH1 0x20 ADD SWAP1 JUMP JUMPDEST PUSH0 PUSH1 0x40 MLOAD DUP1 DUP4 SUB DUP2 PUSH0 DUP8 DUP1 EXTCODESIZE ISZERO DUP1 ISZERO PUSH2 0x5AAB JUMPI PUSH0 DUP1 REVERT JUMPDEST POP GAS CALL ISZERO DUP1 ISZERO PUSH2 0x5ABD JUMPI RETURNDATASIZE PUSH0 DUP1 RETURNDATACOPY RETURNDATASIZE PUSH0 REVERT JUMPDEST POP POP POP POP POP DUP1 DUP1 PUSH2 0x5ACD SWAP1 PUSH2 0x92C4 JUMP JUMPDEST SWAP2 POP POP PUSH2 0x5670 JUMP JUMPDEST POP PUSH1 0x40 DUP1 MLOAD PUSH1 0x60 DUP2 ADD DUP3 MSTORE PUSH2 0x220 DUP4 ADD MLOAD PUSH1 0xFF SWAP1 DUP2 AND DUP3 MSTORE PUSH2 0x160 DUP5 ADD MLOAD PUSH1 0x20 DUP1 DUP5 ADD SWAP2 DUP3 MSTORE DUP6 DUP6 ADD MLOAD PUSH1 0x1 PUSH1 0x1 PUSH1 0xA0 SHL SUB SWAP1 DUP2 AND DUP6 DUP8 ADD SWAP1 DUP2 MSTORE PUSH1 0x13 SLOAD SWAP3 DUP9 ADD MLOAD SWAP7 MLOAD PUSH4 0x25F36E5 PUSH1 0xE0 SHL DUP2 MSTORE SWAP7 DUP3 AND PUSH1 0x4 DUP9 ADD MSTORE DUP6 MLOAD SWAP1 SWAP5 AND PUSH1 0x24 DUP8 ADD MSTORE SWAP2 MLOAD PUSH1 0x44 DUP7 ADD MSTORE SWAP2 MLOAD DUP2 AND PUSH1 0x64 DUP6 ADD MSTORE SWAP2 SWAP3 SWAP2 AND SWAP1 PUSH4 0x25F36E5 SWAP1 PUSH1 0x84 ADD PUSH0 PUSH1 0x40 MLOAD DUP1 DUP4 SUB DUP2 PUSH0 DUP8 DUP1 EXTCODESIZE ISZERO DUP1 ISZERO PUSH2 0x5B6A JUMPI PUSH0 DUP1 REVERT JUMPDEST POP GAS CALL ISZERO DUP1 ISZERO PUSH2 0x5B7C JUMPI RETURNDATASIZE PUSH0 DUP1 RETURNDATACOPY RETURNDATASIZE PUSH0 REVERT JUMPDEST POP POP PUSH1 0x13 SLOAD DUP5 MLOAD PUSH0 DUP8 DUP2 MSTORE PUSH1 0x1 PUSH1 0x20 DUP2 SWAP1 MSTORE PUSH1 0x40 SWAP2 DUP3 SWAP1 KECCAK256 ADD SLOAD PUSH1 0x12 SLOAD PUSH1 0xA0 DUP10 ADD MLOAD SWAP3 MLOAD PUSH4 0x66573F61 PUSH1 0xE0 SHL DUP2 MSTORE PUSH1 0x1 PUSH1 0x1 PUSH1 0xA0 SHL SUB SWAP6 DUP7 AND SWAP8 POP PUSH4 0xE205D94E SWAP7 POP SWAP4 SWAP5 SWAP2 DUP3 AND SWAP4 SWAP2 AND SWAP2 PUSH4 0x66573F61 SWAP2 PUSH2 0x5BDA SWAP2 SWAP1 PUSH1 0x4 ADD PUSH2 0x92E2 JUMP JUMPDEST PUSH0 PUSH1 0x40 MLOAD DUP1 DUP4 SUB DUP2 DUP7 GAS STATICCALL ISZERO DUP1 ISZERO PUSH2 0x5BF4 JUMPI RETURNDATASIZE PUSH0 DUP1 RETURNDATACOPY RETURNDATASIZE PUSH0 REVERT JUMPDEST POP POP POP POP PUSH1 0x40 MLOAD RETURNDATASIZE PUSH0 DUP3 RETURNDATACOPY PUSH1 0x1F RETURNDATASIZE SWAP1 DUP2 ADD PUSH1 0x1F NOT AND DUP3 ADD PUSH1 0x40 MSTORE PUSH2 0x5C1B SWAP2 SWAP1 DUP2 ADD SWAP1 PUSH2 0x9319 JUMP JUMPDEST PUSH1 0x40 MLOAD DUP5 PUSH4 0xFFFFFFFF AND PUSH1 0xE0 SHL DUP2 MSTORE PUSH1 0x4 ADD PUSH2 0x5C39 SWAP4 SWAP3 SWAP2 SWAP1 PUSH2 0x93A8 JUMP JUMPDEST PUSH0 PUSH1 0x40 MLOAD DUP1 DUP4 SUB DUP2 PUSH0 DUP8 DUP1 EXTCODESIZE ISZERO DUP1 ISZERO PUSH2 0x5C50 JUMPI PUSH0 DUP1 REVERT JUMPDEST POP GAS CALL ISZERO DUP1 ISZERO PUSH2 0x5C62 JUMPI RETURNDATASIZE PUSH0 DUP1 RETURNDATACOPY RETURNDATASIZE PUSH0 REVERT JUMPDEST POP POP POP POP PUSH32 0x88227F5ACC5172D082FF1158C7E6B54727DDDCE3806E3CE09AACFBDA6A8E4D39 DUP4 PUSH1 0x40 MLOAD PUSH2 0x5C97 SWAP2 DUP2 MSTORE PUSH1 0x20 ADD SWAP1 JUMP JUMPDEST PUSH1 0x40 MLOAD DUP1 SWAP2 SUB SWAP1 LOG1 POP POP POP POP POP JUMP JUMPDEST PUSH1 0x60 PUSH0 DUP3 MLOAD PUSH1 0x1 PUSH1 0x1 PUSH1 0x40 SHL SUB DUP2 GT ISZERO PUSH2 0x5CC2 JUMPI PUSH2 0x5CC2 PUSH2 0x767E JUMP JUMPDEST PUSH1 0x40 MLOAD SWAP1 DUP1 DUP3 MSTORE DUP1 PUSH1 0x20 MUL PUSH1 0x20 ADD DUP3 ADD PUSH1 0x40 MSTORE DUP1 ISZERO PUSH2 0x5CFB JUMPI DUP2 PUSH1 0x20 ADD JUMPDEST PUSH2 0x5CE8 PUSH2 0x7475 JUMP JUMPDEST DUP2 MSTORE PUSH1 0x20 ADD SWAP1 PUSH1 0x1 SWAP1 SUB SWAP1 DUP2 PUSH2 0x5CE0 JUMPI SWAP1 POP JUMPDEST POP SWAP1 POP PUSH0 JUMPDEST DUP4 MLOAD DUP2 LT ISZERO PUSH2 0x2F67 JUMPI PUSH2 0x5D4C DUP5 DUP3 DUP2 MLOAD DUP2 LT PUSH2 0x5D1E JUMPI PUSH2 0x5D1E PUSH2 0x8C2F JUMP JUMPDEST PUSH1 0x20 MUL PUSH1 0x20 ADD ADD MLOAD PUSH0 ADD MLOAD DUP6 DUP4 DUP2 MLOAD DUP2 LT PUSH2 0x5D3B JUMPI PUSH2 0x5D3B PUSH2 0x8C2F JUMP JUMPDEST PUSH1 0x20 MUL PUSH1 0x20 ADD ADD MLOAD PUSH1 0x20 ADD MLOAD PUSH2 0x2555 JUMP JUMPDEST DUP3 DUP3 DUP2 MLOAD DUP2 LT PUSH2 0x5D5E JUMPI PUSH2 0x5D5E PUSH2 0x8C2F JUMP JUMPDEST PUSH1 0x20 SWAP1 DUP2 MUL SWAP2 SWAP1 SWAP2 ADD ADD MSTORE PUSH1 0x1 ADD PUSH2 0x5D00 JUMP JUMPDEST PUSH0 DUP1 JUMPDEST PUSH1 0x1 DUP4 ADD SLOAD DUP2 LT ISZERO PUSH2 0x2E21 JUMPI PUSH0 DUP4 PUSH1 0x1 ADD DUP3 DUP2 SLOAD DUP2 LT PUSH2 0x5D96 JUMPI PUSH2 0x5D96 PUSH2 0x8C2F JUMP JUMPDEST PUSH0 SWAP2 DUP3 MSTORE PUSH1 0x20 DUP1 DUP4 KECCAK256 PUSH1 0x4 PUSH1 0x5 SWAP1 SWAP4 MUL ADD SWAP2 DUP3 ADD SLOAD DUP4 MSTORE PUSH1 0x1 SWAP1 MSTORE PUSH1 0x40 DUP3 KECCAK256 SWAP1 SWAP3 POP SWAP1 JUMPDEST PUSH1 0x1 DUP4 ADD SLOAD DUP2 LT ISZERO PUSH2 0x5ED2 JUMPI PUSH0 DUP4 PUSH1 0x1 ADD DUP3 DUP2 SLOAD DUP2 LT PUSH2 0x5DDC JUMPI PUSH2 0x5DDC PUSH2 0x8C2F JUMP JUMPDEST SWAP1 PUSH0 MSTORE PUSH1 0x20 PUSH0 KECCAK256 ADD SLOAD SWAP1 POP PUSH0 DUP5 PUSH0 ADD DUP4 DUP2 SLOAD DUP2 LT PUSH2 0x5DFC JUMPI PUSH2 0x5DFC PUSH2 0x8C2F JUMP JUMPDEST SWAP1 PUSH0 MSTORE PUSH1 0x20 PUSH0 KECCAK256 ADD SLOAD SWAP1 POP PUSH0 DUP6 PUSH1 0x2 ADD DUP5 DUP2 SLOAD DUP2 LT PUSH2 0x5E1D JUMPI PUSH2 0x5E1D PUSH2 0x8C2F JUMP JUMPDEST SWAP1 PUSH0 MSTORE PUSH1 0x20 PUSH0 KECCAK256 ADD SLOAD SWAP1 POP PUSH0 JUMPDEST PUSH1 0x5 DUP7 ADD SLOAD DUP2 LT ISZERO PUSH2 0x5EC2 JUMPI DUP4 DUP7 PUSH1 0x5 ADD DUP3 DUP2 SLOAD DUP2 LT PUSH2 0x5E4C JUMPI PUSH2 0x5E4C PUSH2 0x8C2F JUMP JUMPDEST SWAP1 PUSH0 MSTORE PUSH1 0x20 PUSH0 KECCAK256 ADD SLOAD EQ DUP1 ISZERO PUSH2 0x5E7E JUMPI POP DUP2 DUP7 PUSH1 0x6 ADD DUP3 DUP2 SLOAD DUP2 LT PUSH2 0x5E73 JUMPI PUSH2 0x5E73 PUSH2 0x8C2F JUMP JUMPDEST SWAP1 PUSH0 MSTORE PUSH1 0x20 PUSH0 KECCAK256 ADD SLOAD EQ JUMPDEST ISZERO PUSH2 0x5EBA JUMPI DUP3 DUP7 PUSH1 0x7 ADD DUP3 DUP2 SLOAD DUP2 LT PUSH2 0x5E99 JUMPI PUSH2 0x5E99 PUSH2 0x8C2F JUMP JUMPDEST SWAP1 PUSH0 MSTORE PUSH1 0x20 PUSH0 KECCAK256 ADD PUSH0 DUP3 DUP3 SLOAD PUSH2 0x5EAF SWAP2 SWAP1 PUSH2 0x940F JUMP JUMPDEST SWAP1 SWAP2 SSTORE POP PUSH2 0x5EC2 SWAP1 POP JUMP JUMPDEST PUSH1 0x1 ADD PUSH2 0x5E2A JUMP JUMPDEST POP POP PUSH1 0x1 SWAP1 SWAP3 ADD SWAP2 POP PUSH2 0x5DBA SWAP1 POP JUMP JUMPDEST POP POP POP PUSH1 0x1 ADD PUSH2 0x5D74 JUMP JUMPDEST PUSH0 DUP1 JUMPDEST DUP3 MLOAD DUP2 LT ISZERO PUSH2 0x2E21 JUMPI PUSH0 PUSH1 0x1 PUSH0 DUP6 DUP5 DUP2 MLOAD DUP2 LT PUSH2 0x5EFF JUMPI PUSH2 0x5EFF PUSH2 0x8C2F JUMP JUMPDEST PUSH1 0x20 MUL PUSH1 0x20 ADD ADD MLOAD PUSH1 0x80 ADD MLOAD DUP2 MSTORE PUSH1 0x20 ADD SWAP1 DUP2 MSTORE PUSH1 0x20 ADD PUSH0 KECCAK256 SWAP1 POP DUP1 PUSH0 ADD SLOAD PUSH0 SUB PUSH2 0x5F93 JUMPI PUSH1 0x40 MLOAD PUSH3 0x461BCD PUSH1 0xE5 SHL DUP2 MSTORE PUSH1 0x20 PUSH1 0x4 DUP3 ADD MSTORE PUSH1 0x4B PUSH1 0x24 DUP3 ADD MSTORE PUSH0 DUP1 MLOAD PUSH1 0x20 PUSH2 0x9595 DUP4 CODECOPY DUP2 MLOAD SWAP2 MSTORE PUSH1 0x44 DUP3 ADD MSTORE PUSH32 0x223A20313030322C20226D657373616765223A224F7264657220646F6573206E PUSH1 0x64 DUP3 ADD MSTORE PUSH11 0x6F7420657869737473227D PUSH1 0xA8 SHL PUSH1 0x84 DUP3 ADD MSTORE PUSH1 0xA4 ADD PUSH2 0xB1C JUMP JUMPDEST PUSH1 0x1 DUP2 ADD SLOAD PUSH1 0x1 PUSH1 0x1 PUSH1 0xA0 SHL SUB AND CALLER EQ PUSH2 0x601F JUMPI PUSH1 0x40 MLOAD PUSH3 0x461BCD PUSH1 0xE5 SHL DUP2 MSTORE PUSH1 0x20 PUSH1 0x4 DUP3 ADD MSTORE PUSH1 0x54 PUSH1 0x24 DUP3 ADD MSTORE PUSH0 DUP1 MLOAD PUSH1 0x20 PUSH2 0x9595 DUP4 CODECOPY DUP2 MLOAD SWAP2 MSTORE PUSH1 0x44 DUP3 ADD MSTORE PUSH32 0x223A20313030332C20226D657373616765223A22596F7520617265206E6F7420 PUSH1 0x64 DUP3 ADD MSTORE PUSH20 0x6F776E6572206F6620746865206F72646572227D PUSH1 0x60 SHL PUSH1 0x84 DUP3 ADD MSTORE PUSH1 0xA4 ADD PUSH2 0xB1C JUMP JUMPDEST PUSH1 0xC DUP2 ADD SLOAD PUSH1 0xFF AND PUSH1 0x1 EQ PUSH2 0x60A2 JUMPI PUSH1 0x40 MLOAD PUSH3 0x461BCD PUSH1 0xE5 SHL DUP2 MSTORE PUSH1 0x20 PUSH1 0x4 DUP3 ADD MSTORE PUSH1 0x50 PUSH1 0x24 DUP3 ADD MSTORE PUSH0 DUP1 MLOAD PUSH1 0x20 PUSH2 0x9595 DUP4 CODECOPY DUP2 MLOAD SWAP2 MSTORE PUSH1 0x44 DUP3 ADD MSTORE PUSH32 0x223A20313030332C20226D657373616765223A224F72646572206973206E6F74 PUSH1 0x64 DUP3 ADD MSTORE PUSH16 0x2073746F72616765206F72646572227D PUSH1 0x80 SHL PUSH1 0x84 DUP3 ADD MSTORE PUSH1 0xA4 ADD PUSH2 0xB1C JUMP JUMPDEST PUSH0 JUMPDEST DUP5 DUP4 DUP2 MLOAD DUP2 LT PUSH2 0x60B6 JUMPI PUSH2 0x60B6 PUSH2 0x8C2F JUMP JUMPDEST PUSH1 0x20 MUL PUSH1 0x20 ADD ADD MLOAD PUSH1 0x20 ADD MLOAD MLOAD DUP2 LT ISZERO PUSH2 0x6302 JUMPI PUSH0 DUP6 DUP5 DUP2 MLOAD DUP2 LT PUSH2 0x60DD JUMPI PUSH2 0x60DD PUSH2 0x8C2F JUMP JUMPDEST PUSH1 0x20 MUL PUSH1 0x20 ADD ADD MLOAD PUSH1 0x20 ADD MLOAD DUP3 DUP2 MLOAD DUP2 LT PUSH2 0x60FA JUMPI PUSH2 0x60FA PUSH2 0x8C2F JUMP JUMPDEST PUSH1 0x20 MUL PUSH1 0x20 ADD ADD MLOAD SWAP1 POP PUSH0 DUP7 DUP6 DUP2 MLOAD DUP2 LT PUSH2 0x6117 JUMPI PUSH2 0x6117 PUSH2 0x8C2F JUMP JUMPDEST PUSH1 0x20 MUL PUSH1 0x20 ADD ADD MLOAD PUSH0 ADD MLOAD DUP4 DUP2 MLOAD DUP2 LT PUSH2 0x6133 JUMPI PUSH2 0x6133 PUSH2 0x8C2F JUMP JUMPDEST PUSH1 0x20 MUL PUSH1 0x20 ADD ADD MLOAD SWAP1 POP PUSH0 DUP8 DUP7 DUP2 MLOAD DUP2 LT PUSH2 0x6150 JUMPI PUSH2 0x6150 PUSH2 0x8C2F JUMP JUMPDEST PUSH1 0x20 MUL PUSH1 0x20 ADD ADD MLOAD PUSH1 0x40 ADD MLOAD DUP5 DUP2 MLOAD DUP2 LT PUSH2 0x616D JUMPI PUSH2 0x616D PUSH2 0x8C2F JUMP JUMPDEST PUSH1 0x20 MUL PUSH1 0x20 ADD ADD MLOAD SWAP1 POP PUSH0 DUP1 PUSH0 SWAP1 POP JUMPDEST PUSH1 0x5 DUP8 ADD SLOAD DUP2 LT ISZERO PUSH2 0x6292 JUMPI DUP5 DUP8 PUSH1 0x5 ADD DUP3 DUP2 SLOAD DUP2 LT PUSH2 0x619F JUMPI PUSH2 0x619F PUSH2 0x8C2F JUMP JUMPDEST SWAP1 PUSH0 MSTORE PUSH1 0x20 PUSH0 KECCAK256 ADD SLOAD EQ DUP1 ISZERO PUSH2 0x61D1 JUMPI POP DUP3 DUP8 PUSH1 0x6 ADD DUP3 DUP2 SLOAD DUP2 LT PUSH2 0x61C6 JUMPI PUSH2 0x61C6 PUSH2 0x8C2F JUMP JUMPDEST SWAP1 PUSH0 MSTORE PUSH1 0x20 PUSH0 KECCAK256 ADD SLOAD EQ JUMPDEST ISZERO PUSH2 0x628A JUMPI DUP4 DUP8 PUSH1 0x7 ADD DUP3 DUP2 SLOAD DUP2 LT PUSH2 0x61EC JUMPI PUSH2 0x61EC PUSH2 0x8C2F JUMP JUMPDEST SWAP1 PUSH0 MSTORE PUSH1 0x20 PUSH0 KECCAK256 ADD SLOAD LT ISZERO PUSH2 0x624F JUMPI PUSH1 0x40 MLOAD PUSH3 0x461BCD PUSH1 0xE5 SHL DUP2 MSTORE PUSH1 0x20 PUSH1 0x4 DUP3 ADD MSTORE PUSH1 0x23 PUSH1 0x24 DUP3 ADD MSTORE PUSH32 0x6E6F7420656E6F756768207175616E7469747920696E20706172656E74206F72 PUSH1 0x44 DUP3 ADD MSTORE PUSH3 0x3232B9 PUSH1 0xE9 SHL PUSH1 0x64 DUP3 ADD MSTORE PUSH1 0x84 ADD PUSH2 0xB1C JUMP JUMPDEST DUP4 DUP8 PUSH1 0x7 ADD DUP3 DUP2 SLOAD DUP2 LT PUSH2 0x6265 JUMPI PUSH2 0x6265 PUSH2 0x8C2F JUMP JUMPDEST SWAP1 PUSH0 MSTORE PUSH1 0x20 PUSH0 KECCAK256 ADD PUSH0 DUP3 DUP3 SLOAD PUSH2 0x627B SWAP2 SWAP1 PUSH2 0x9271 JUMP JUMPDEST SWAP1 SWAP2 SSTORE POP PUSH1 0x1 SWAP3 POP PUSH2 0x6292 SWAP1 POP JUMP JUMPDEST PUSH1 0x1 ADD PUSH2 0x617D JUMP JUMPDEST POP DUP1 PUSH2 0x62F2 JUMPI PUSH1 0x40 MLOAD PUSH3 0x461BCD PUSH1 0xE5 SHL DUP2 MSTORE PUSH1 0x20 PUSH1 0x4 DUP3 ADD MSTORE PUSH1 0x29 PUSH1 0x24 DUP3 ADD MSTORE PUSH32 0x70726F6475637420494420646F6573206E6F7420657869737420696E20706172 PUSH1 0x44 DUP3 ADD MSTORE PUSH9 0x32B73A1037B93232B9 PUSH1 0xB9 SHL PUSH1 0x64 DUP3 ADD MSTORE PUSH1 0x84 ADD PUSH2 0xB1C JUMP JUMPDEST POP POP PUSH1 0x1 SWAP1 SWAP3 ADD SWAP2 POP PUSH2 0x60A4 SWAP1 POP JUMP JUMPDEST POP POP PUSH1 0x1 ADD PUSH2 0x5EE0 JUMP JUMPDEST PUSH1 0x60 PUSH0 PUSH2 0x6318 DUP4 PUSH2 0x7271 JUMP JUMPDEST PUSH1 0x1 ADD SWAP1 POP PUSH0 DUP2 PUSH1 0x1 PUSH1 0x1 PUSH1 0x40 SHL SUB DUP2 GT ISZERO PUSH2 0x6336 JUMPI PUSH2 0x6336 PUSH2 0x767E JUMP JUMPDEST PUSH1 0x40 MLOAD SWAP1 DUP1 DUP3 MSTORE DUP1 PUSH1 0x1F ADD PUSH1 0x1F NOT AND PUSH1 0x20 ADD DUP3 ADD PUSH1 0x40 MSTORE DUP1 ISZERO PUSH2 0x6360 JUMPI PUSH1 0x20 DUP3 ADD DUP2 DUP1 CALLDATASIZE DUP4 CALLDATACOPY ADD SWAP1 POP JUMPDEST POP SWAP1 POP DUP2 DUP2 ADD PUSH1 0x20 ADD JUMPDEST PUSH0 NOT ADD PUSH16 0x181899199A1A9B1B9C1CB0B131B232B3 PUSH1 0x81 SHL PUSH1 0xA DUP7 MOD BYTE DUP2 MSTORE8 PUSH1 0xA DUP6 DIV SWAP5 POP DUP5 PUSH2 0x636A JUMPI JUMPDEST POP SWAP4 SWAP3 POP POP POP JUMP JUMPDEST PUSH0 DUP1 DUP1 JUMPDEST PUSH1 0x1 PUSH1 0x1 PUSH1 0xA0 SHL SUB DUP6 AND PUSH0 SWAP1 DUP2 MSTORE PUSH1 0x20 DUP2 SWAP1 MSTORE PUSH1 0x40 SWAP1 KECCAK256 PUSH1 0x2 ADD SLOAD DUP2 LT ISZERO PUSH2 0x6419 JUMPI PUSH1 0x1 PUSH1 0x1 PUSH1 0xA0 SHL SUB DUP6 AND PUSH0 SWAP1 DUP2 MSTORE PUSH1 0x20 DUP2 SWAP1 MSTORE PUSH1 0x40 SWAP1 KECCAK256 PUSH1 0x2 ADD DUP1 SLOAD DUP6 SWAP2 SWAP1 DUP4 SWAP1 DUP2 LT PUSH2 0x63F1 JUMPI PUSH2 0x63F1 PUSH2 0x8C2F JUMP JUMPDEST SWAP1 PUSH0 MSTORE PUSH1 0x20 PUSH0 KECCAK256 SWAP1 PUSH1 0x5 MUL ADD PUSH0 ADD SLOAD SUB PUSH2 0x6411 JUMPI DUP1 SWAP3 POP PUSH1 0x1 SWAP2 POP PUSH2 0x6419 JUMP JUMPDEST PUSH1 0x1 ADD PUSH2 0x63A0 JUMP JUMPDEST POP DUP1 PUSH2 0x649F JUMPI PUSH1 0x40 MLOAD PUSH3 0x461BCD PUSH1 0xE5 SHL DUP2 MSTORE PUSH1 0x20 PUSH1 0x4 DUP3 ADD MSTORE PUSH1 0x5C PUSH1 0x24 DUP3 ADD MSTORE PUSH0 DUP1 MLOAD PUSH1 0x20 PUSH2 0x9595 DUP4 CODECOPY DUP2 MLOAD SWAP2 MSTORE PUSH1 0x44 DUP3 ADD MSTORE PUSH32 0x223A2031302C20226D657373616765223A225468652063617274206974656D20 PUSH1 0x64 DUP3 ADD MSTORE PUSH28 0x646F6573206E6F7420657869737420696E207468652063617274227D PUSH1 0x20 SHL PUSH1 0x84 DUP3 ADD MSTORE PUSH1 0xA4 ADD PUSH2 0xB1C JUMP JUMPDEST PUSH1 0x1 PUSH1 0x1 PUSH1 0xA0 SHL SUB DUP5 AND PUSH0 SWAP1 DUP2 MSTORE PUSH1 0x20 DUP2 SWAP1 MSTORE PUSH1 0x40 SWAP1 KECCAK256 PUSH1 0x2 ADD SLOAD DUP3 LT PUSH2 0x652B JUMPI PUSH1 0x40 MLOAD PUSH3 0x461BCD PUSH1 0xE5 SHL DUP2 MSTORE PUSH1 0x20 PUSH1 0x4 DUP3 ADD MSTORE PUSH1 0x47 PUSH1 0x24 DUP3 ADD MSTORE PUSH0 DUP1 MLOAD PUSH1 0x20 PUSH2 0x9595 DUP4 CODECOPY DUP2 MLOAD SWAP2 MSTORE PUSH1 0x44 DUP3 ADD MSTORE PUSH32 0x223A2031312C20226D657373616765223A22496E646578206F7574206F662062 PUSH1 0x64 DUP3 ADD MSTORE PUSH7 0x6F756E6473227D PUSH1 0xC8 SHL PUSH1 0x84 DUP3 ADD MSTORE PUSH1 0xA4 ADD PUSH2 0xB1C JUMP JUMPDEST PUSH1 0x14 SLOAD PUSH1 0x1 PUSH1 0x1 PUSH1 0xA0 SHL SUB DUP6 DUP2 AND PUSH0 SWAP1 DUP2 MSTORE PUSH1 0x20 DUP2 SWAP1 MSTORE PUSH1 0x40 SWAP1 KECCAK256 PUSH1 0x2 ADD DUP1 SLOAD SWAP2 SWAP1 SWAP3 AND SWAP2 PUSH4 0xD24043CB SWAP2 DUP8 SWAP2 SWAP1 DUP7 SWAP1 DUP2 LT PUSH2 0x6569 JUMPI PUSH2 0x6569 PUSH2 0x8C2F JUMP JUMPDEST SWAP1 PUSH0 MSTORE PUSH1 0x20 PUSH0 KECCAK256 SWAP1 PUSH1 0x5 MUL ADD PUSH1 0x1 ADD SLOAD PUSH0 PUSH1 0x1 PUSH1 0x40 MLOAD DUP6 PUSH4 0xFFFFFFFF AND PUSH1 0xE0 SHL DUP2 MSTORE PUSH1 0x4 ADD PUSH2 0x659B SWAP5 SWAP4 SWAP3 SWAP2 SWAP1 PUSH2 0x9422 JUMP JUMPDEST PUSH0 PUSH1 0x40 MLOAD DUP1 DUP4 SUB DUP2 PUSH0 DUP8 DUP1 EXTCODESIZE ISZERO DUP1 ISZERO PUSH2 0x65B2 JUMPI PUSH0 DUP1 REVERT JUMPDEST POP GAS CALL ISZERO DUP1 ISZERO PUSH2 0x65C4 JUMPI RETURNDATASIZE PUSH0 DUP1 RETURNDATACOPY RETURNDATASIZE PUSH0 REVERT JUMPDEST POP POP PUSH1 0x14 SLOAD PUSH1 0x1 PUSH1 0x1 PUSH1 0xA0 SHL SUB DUP8 DUP2 AND PUSH0 SWAP1 DUP2 MSTORE PUSH1 0x20 DUP2 SWAP1 MSTORE PUSH1 0x40 SWAP1 KECCAK256 PUSH1 0x2 ADD DUP1 SLOAD SWAP2 SWAP1 SWAP3 AND SWAP4 POP PUSH4 0xD24043CB SWAP3 POP DUP8 SWAP2 SWAP1 DUP7 SWAP1 DUP2 LT PUSH2 0x6606 JUMPI PUSH2 0x6606 PUSH2 0x8C2F JUMP JUMPDEST SWAP1 PUSH0 MSTORE PUSH1 0x20 PUSH0 KECCAK256 SWAP1 PUSH1 0x5 MUL ADD PUSH1 0x1 ADD SLOAD PUSH1 0x12 PUSH0 SWAP1 SLOAD SWAP1 PUSH2 0x100 EXP SWAP1 DIV PUSH1 0x1 PUSH1 0x1 PUSH1 0xA0 SHL SUB AND PUSH1 0x1 PUSH1 0x1 PUSH1 0xA0 SHL SUB AND PUSH4 0xB9DB15B4 PUSH0 DUP1 DUP12 PUSH1 0x1 PUSH1 0x1 PUSH1 0xA0 SHL SUB AND PUSH1 0x1 PUSH1 0x1 PUSH1 0xA0 SHL SUB AND DUP2 MSTORE PUSH1 0x20 ADD SWAP1 DUP2 MSTORE PUSH1 0x20 ADD PUSH0 KECCAK256 PUSH1 0x2 ADD DUP9 DUP2 SLOAD DUP2 LT PUSH2 0x666F JUMPI PUSH2 0x666F PUSH2 0x8C2F JUMP JUMPDEST SWAP1 PUSH0 MSTORE PUSH1 0x20 PUSH0 KECCAK256 SWAP1 PUSH1 0x5 MUL ADD PUSH1 0x1 ADD SLOAD PUSH1 0x40 MLOAD DUP3 PUSH4 0xFFFFFFFF AND PUSH1 0xE0 SHL DUP2 MSTORE PUSH1 0x4 ADD PUSH2 0x669D SWAP2 DUP2 MSTORE PUSH1 0x20 ADD SWAP1 JUMP JUMPDEST PUSH0 PUSH1 0x40 MLOAD DUP1 DUP4 SUB DUP2 DUP7 GAS STATICCALL ISZERO DUP1 ISZERO PUSH2 0x66B7 JUMPI RETURNDATASIZE PUSH0 DUP1 RETURNDATACOPY RETURNDATASIZE PUSH0 REVERT JUMPDEST POP POP POP POP PUSH1 0x40 MLOAD RETURNDATASIZE PUSH0 DUP3 RETURNDATACOPY PUSH1 0x1F RETURNDATASIZE SWAP1 DUP2 ADD PUSH1 0x1F NOT AND DUP3 ADD PUSH1 0x40 MSTORE PUSH2 0x66DE SWAP2 SWAP1 DUP2 ADD SWAP1 PUSH2 0x8E4C JUMP JUMPDEST PUSH1 0x20 ADD MLOAD PUSH2 0x180 ADD MLOAD PUSH0 PUSH1 0x40 MLOAD DUP6 PUSH4 0xFFFFFFFF AND PUSH1 0xE0 SHL DUP2 MSTORE PUSH1 0x4 ADD PUSH2 0x6707 SWAP5 SWAP4 SWAP3 SWAP2 SWAP1 PUSH2 0x9422 JUMP JUMPDEST PUSH0 PUSH1 0x40 MLOAD DUP1 DUP4 SUB DUP2 PUSH0 DUP8 DUP1 EXTCODESIZE ISZERO DUP1 ISZERO PUSH2 0x671E JUMPI PUSH0 DUP1 REVERT JUMPDEST POP GAS CALL ISZERO DUP1 ISZERO PUSH2 0x6730 JUMPI RETURNDATASIZE PUSH0 DUP1 RETURNDATACOPY RETURNDATASIZE PUSH0 REVERT JUMPDEST POP POP PUSH1 0x14 SLOAD PUSH1 0x12 SLOAD PUSH1 0x1 PUSH1 0x1 PUSH1 0xA0 SHL SUB DUP9 DUP2 AND PUSH0 SWAP1 DUP2 MSTORE PUSH1 0x20 DUP2 SWAP1 MSTORE PUSH1 0x40 SWAP1 KECCAK256 PUSH1 0x2 ADD DUP1 SLOAD SWAP4 DUP3 AND SWAP6 POP PUSH4 0x92A198D5 SWAP5 POP SWAP2 AND SWAP2 PUSH4 0xB9DB15B4 SWAP2 SWAP1 DUP8 SWAP1 DUP2 LT PUSH2 0x677B JUMPI PUSH2 0x677B PUSH2 0x8C2F JUMP JUMPDEST SWAP1 PUSH0 MSTORE PUSH1 0x20 PUSH0 KECCAK256 SWAP1 PUSH1 0x5 MUL ADD PUSH1 0x1 ADD SLOAD PUSH1 0x40 MLOAD DUP3 PUSH4 0xFFFFFFFF AND PUSH1 0xE0 SHL DUP2 MSTORE PUSH1 0x4 ADD PUSH2 0x67A9 SWAP2 DUP2 MSTORE PUSH1 0x20 ADD SWAP1 JUMP JUMPDEST PUSH0 PUSH1 0x40 MLOAD DUP1 DUP4 SUB DUP2 DUP7 GAS STATICCALL ISZERO DUP1 ISZERO PUSH2 0x67C3 JUMPI RETURNDATASIZE PUSH0 DUP1 RETURNDATACOPY RETURNDATASIZE PUSH0 REVERT JUMPDEST POP POP POP POP PUSH1 0x40 MLOAD RETURNDATASIZE PUSH0 DUP3 RETURNDATACOPY PUSH1 0x1F RETURNDATASIZE SWAP1 DUP2 ADD PUSH1 0x1F NOT AND DUP3 ADD PUSH1 0x40 MSTORE PUSH2 0x67EA SWAP2 SWAP1 DUP2 ADD SWAP1 PUSH2 0x8E4C JUMP JUMPDEST PUSH1 0x20 ADD MLOAD PUSH2 0x180 ADD MLOAD PUSH1 0x40 MLOAD DUP3 PUSH4 0xFFFFFFFF AND PUSH1 0xE0 SHL DUP2 MSTORE PUSH1 0x4 ADD PUSH2 0x680F SWAP2 SWAP1 PUSH2 0x815E JUMP JUMPDEST PUSH0 PUSH1 0x40 MLOAD DUP1 DUP4 SUB DUP2 PUSH0 DUP8 DUP1 EXTCODESIZE ISZERO DUP1 ISZERO PUSH2 0x6826 JUMPI PUSH0 DUP1 REVERT JUMPDEST POP GAS CALL ISZERO DUP1 ISZERO PUSH2 0x6838 JUMPI RETURNDATASIZE PUSH0 DUP1 RETURNDATACOPY RETURNDATASIZE PUSH0 REVERT JUMPDEST POP POP POP PUSH1 0x1 PUSH1 0x1 PUSH1 0xA0 SHL SUB DUP6 AND PUSH0 SWAP1 DUP2 MSTORE PUSH1 0x20 DUP2 SWAP1 MSTORE PUSH1 0x40 SWAP1 KECCAK256 PUSH1 0x2 ADD SLOAD PUSH2 0x6863 SWAP2 POP PUSH1 0x1 SWAP1 PUSH2 0x9271 JUMP JUMPDEST DUP3 LT ISZERO PUSH2 0x6959 JUMPI DUP2 JUMPDEST PUSH1 0x1 PUSH1 0x1 PUSH1 0xA0 SHL SUB DUP6 AND PUSH0 SWAP1 DUP2 MSTORE PUSH1 0x20 DUP2 SWAP1 MSTORE PUSH1 0x40 SWAP1 KECCAK256 PUSH1 0x2 ADD SLOAD PUSH2 0x6893 SWAP1 PUSH1 0x1 SWAP1 PUSH2 0x9271 JUMP JUMPDEST DUP2 LT ISZERO PUSH2 0x6957 JUMPI PUSH1 0x1 PUSH1 0x1 PUSH1 0xA0 SHL SUB DUP6 AND PUSH0 SWAP1 DUP2 MSTORE PUSH1 0x20 DUP2 SWAP1 MSTORE PUSH1 0x40 SWAP1 KECCAK256 PUSH1 0x2 ADD PUSH2 0x68BF DUP3 PUSH1 0x1 PUSH2 0x940F JUMP JUMPDEST DUP2 SLOAD DUP2 LT PUSH2 0x68CF JUMPI PUSH2 0x68CF PUSH2 0x8C2F JUMP JUMPDEST SWAP1 PUSH0 MSTORE PUSH1 0x20 PUSH0 KECCAK256 SWAP1 PUSH1 0x5 MUL ADD PUSH0 DUP1 DUP8 PUSH1 0x1 PUSH1 0x1 PUSH1 0xA0 SHL SUB AND PUSH1 0x1 PUSH1 0x1 PUSH1 0xA0 SHL SUB AND DUP2 MSTORE PUSH1 0x20 ADD SWAP1 DUP2 MSTORE PUSH1 0x20 ADD PUSH0 KECCAK256 PUSH1 0x2 ADD DUP3 DUP2 SLOAD DUP2 LT PUSH2 0x6911 JUMPI PUSH2 0x6911 PUSH2 0x8C2F JUMP JUMPDEST PUSH0 SWAP2 DUP3 MSTORE PUSH1 0x20 SWAP1 SWAP2 KECCAK256 DUP3 SLOAD PUSH1 0x5 SWAP1 SWAP3 MUL ADD SWAP1 DUP2 SSTORE PUSH1 0x1 DUP1 DUP4 ADD SLOAD DUP2 DUP4 ADD SSTORE PUSH1 0x2 DUP1 DUP5 ADD SLOAD SWAP1 DUP4 ADD SSTORE PUSH1 0x3 DUP1 DUP5 ADD SLOAD SWAP1 DUP4 ADD SSTORE PUSH1 0x4 SWAP3 DUP4 ADD SLOAD SWAP3 SWAP1 SWAP2 ADD SWAP2 SWAP1 SWAP2 SSTORE ADD PUSH2 0x686C JUMP JUMPDEST POP JUMPDEST PUSH1 0x1 PUSH1 0x1 PUSH1 0xA0 SHL SUB DUP5 AND PUSH0 SWAP1 DUP2 MSTORE PUSH1 0x20 DUP2 SWAP1 MSTORE PUSH1 0x40 SWAP1 KECCAK256 PUSH1 0x2 ADD SLOAD PUSH2 0x69E5 JUMPI PUSH1 0x40 MLOAD PUSH3 0x461BCD PUSH1 0xE5 SHL DUP2 MSTORE PUSH1 0x20 PUSH1 0x4 DUP3 ADD MSTORE PUSH1 0x49 PUSH1 0x24 DUP3 ADD MSTORE PUSH0 DUP1 MLOAD PUSH1 0x20 PUSH2 0x9595 DUP4 CODECOPY DUP2 MLOAD SWAP2 MSTORE PUSH1 0x44 DUP3 ADD MSTORE PUSH32 0x223A2031322C20226D657373616765223A224361727420697320616C72656164 PUSH1 0x64 DUP3 ADD MSTORE PUSH9 0x7920656D707479227D PUSH1 0xB8 SHL PUSH1 0x84 DUP3 ADD MSTORE PUSH1 0xA4 ADD PUSH2 0xB1C JUMP JUMPDEST PUSH1 0x1 PUSH1 0x1 PUSH1 0xA0 SHL SUB DUP5 AND PUSH0 SWAP1 DUP2 MSTORE PUSH1 0x20 DUP2 SWAP1 MSTORE PUSH1 0x40 SWAP1 KECCAK256 PUSH1 0x2 ADD DUP1 SLOAD DUP1 PUSH2 0x6A0E JUMPI PUSH2 0x6A0E PUSH2 0x9284 JUMP JUMPDEST PUSH0 DUP3 DUP2 MSTORE PUSH1 0x20 DUP2 KECCAK256 PUSH1 0x5 PUSH0 NOT SWAP1 SWAP4 ADD SWAP3 DUP4 MUL ADD DUP2 DUP2 SSTORE PUSH1 0x1 DUP2 ADD DUP3 SWAP1 SSTORE PUSH1 0x2 DUP2 ADD DUP3 SWAP1 SSTORE PUSH1 0x3 DUP2 ADD DUP3 SWAP1 SSTORE PUSH1 0x4 ADD SSTORE SWAP1 SSTORE POP POP POP POP JUMP JUMPDEST PUSH2 0x6A8C PUSH1 0x40 MLOAD DUP1 PUSH2 0x100 ADD PUSH1 0x40 MSTORE DUP1 PUSH1 0x60 DUP2 MSTORE PUSH1 0x20 ADD PUSH1 0x60 DUP2 MSTORE PUSH1 0x20 ADD PUSH1 0x60 DUP2 MSTORE PUSH1 0x20 ADD PUSH1 0x60 DUP2 MSTORE PUSH1 0x20 ADD PUSH1 0x60 DUP2 MSTORE PUSH1 0x20 ADD PUSH1 0x60 DUP2 MSTORE PUSH1 0x20 ADD PUSH1 0x60 DUP2 MSTORE PUSH1 0x20 ADD PUSH0 DUP2 MSTORE POP SWAP1 JUMP JUMPDEST PUSH1 0x15 SLOAD PUSH1 0x40 MLOAD PUSH4 0x45ACE91F PUSH1 0xE1 SHL DUP2 MSTORE PUSH0 SWAP2 PUSH1 0x1 PUSH1 0x1 PUSH1 0xA0 SHL SUB AND SWAP1 PUSH4 0x8B59D23E SWAP1 PUSH2 0x6ABC SWAP1 DUP7 SWAP1 PUSH1 0x4 ADD PUSH2 0x815E JUMP JUMPDEST PUSH1 0x20 PUSH1 0x40 MLOAD DUP1 DUP4 SUB DUP2 DUP7 GAS STATICCALL ISZERO DUP1 ISZERO PUSH2 0x6AD7 JUMPI RETURNDATASIZE PUSH0 DUP1 RETURNDATACOPY RETURNDATASIZE PUSH0 REVERT JUMPDEST POP POP POP POP PUSH1 0x40 MLOAD RETURNDATASIZE PUSH1 0x1F NOT PUSH1 0x1F DUP3 ADD AND DUP3 ADD DUP1 PUSH1 0x40 MSTORE POP DUP2 ADD SWAP1 PUSH2 0x6AFB SWAP2 SWAP1 PUSH2 0x944C JUMP JUMPDEST DUP5 MLOAD SWAP1 SWAP2 POP DUP1 PUSH1 0x1 PUSH1 0x1 PUSH1 0x40 SHL SUB DUP2 GT ISZERO PUSH2 0x6B18 JUMPI PUSH2 0x6B18 PUSH2 0x767E JUMP JUMPDEST PUSH1 0x40 MLOAD SWAP1 DUP1 DUP3 MSTORE DUP1 PUSH1 0x20 MUL PUSH1 0x20 ADD DUP3 ADD PUSH1 0x40 MSTORE DUP1 ISZERO PUSH2 0x6B41 JUMPI DUP2 PUSH1 0x20 ADD PUSH1 0x20 DUP3 MUL DUP1 CALLDATASIZE DUP4 CALLDATACOPY ADD SWAP1 POP JUMPDEST POP DUP4 MSTORE DUP1 PUSH1 0x1 PUSH1 0x1 PUSH1 0x40 SHL SUB DUP2 GT ISZERO PUSH2 0x6B5C JUMPI PUSH2 0x6B5C PUSH2 0x767E JUMP JUMPDEST PUSH1 0x40 MLOAD SWAP1 DUP1 DUP3 MSTORE DUP1 PUSH1 0x20 MUL PUSH1 0x20 ADD DUP3 ADD PUSH1 0x40 MSTORE DUP1 ISZERO PUSH2 0x6B85 JUMPI DUP2 PUSH1 0x20 ADD PUSH1 0x20 DUP3 MUL DUP1 CALLDATASIZE DUP4 CALLDATACOPY ADD SWAP1 POP JUMPDEST POP PUSH1 0x20 DUP5 ADD MSTORE DUP1 PUSH1 0x1 PUSH1 0x1 PUSH1 0x40 SHL SUB DUP2 GT ISZERO PUSH2 0x6BA3 JUMPI PUSH2 0x6BA3 PUSH2 0x767E JUMP JUMPDEST PUSH1 0x40 MLOAD SWAP1 DUP1 DUP3 MSTORE DUP1 PUSH1 0x20 MUL PUSH1 0x20 ADD DUP3 ADD PUSH1 0x40 MSTORE DUP1 ISZERO PUSH2 0x6BCC JUMPI DUP2 PUSH1 0x20 ADD PUSH1 0x20 DUP3 MUL DUP1 CALLDATASIZE DUP4 CALLDATACOPY ADD SWAP1 POP JUMPDEST POP PUSH1 0x40 DUP5 ADD MSTORE DUP1 PUSH1 0x1 PUSH1 0x1 PUSH1 0x40 SHL SUB DUP2 GT ISZERO PUSH2 0x6BEA JUMPI PUSH2 0x6BEA PUSH2 0x767E JUMP JUMPDEST PUSH1 0x40 MLOAD SWAP1 DUP1 DUP3 MSTORE DUP1 PUSH1 0x20 MUL PUSH1 0x20 ADD DUP3 ADD PUSH1 0x40 MSTORE DUP1 ISZERO PUSH2 0x6C13 JUMPI DUP2 PUSH1 0x20 ADD PUSH1 0x20 DUP3 MUL DUP1 CALLDATASIZE DUP4 CALLDATACOPY ADD SWAP1 POP JUMPDEST POP PUSH1 0xC0 DUP5 ADD MSTORE DUP1 PUSH1 0x1 PUSH1 0x1 PUSH1 0x40 SHL SUB DUP2 GT ISZERO PUSH2 0x6C31 JUMPI PUSH2 0x6C31 PUSH2 0x767E JUMP JUMPDEST PUSH1 0x40 MLOAD SWAP1 DUP1 DUP3 MSTORE DUP1 PUSH1 0x20 MUL PUSH1 0x20 ADD DUP3 ADD PUSH1 0x40 MSTORE DUP1 ISZERO PUSH2 0x6C5A JUMPI DUP2 PUSH1 0x20 ADD PUSH1 0x20 DUP3 MUL DUP1 CALLDATASIZE DUP4 CALLDATACOPY ADD SWAP1 POP JUMPDEST POP PUSH1 0x80 DUP5 ADD MSTORE DUP1 PUSH1 0x1 PUSH1 0x1 PUSH1 0x40 SHL SUB DUP2 GT ISZERO PUSH2 0x6C78 JUMPI PUSH2 0x6C78 PUSH2 0x767E JUMP JUMPDEST PUSH1 0x40 MLOAD SWAP1 DUP1 DUP3 MSTORE DUP1 PUSH1 0x20 MUL PUSH1 0x20 ADD DUP3 ADD PUSH1 0x40 MSTORE DUP1 ISZERO PUSH2 0x6CA1 JUMPI DUP2 PUSH1 0x20 ADD PUSH1 0x20 DUP3 MUL DUP1 CALLDATASIZE DUP4 CALLDATACOPY ADD SWAP1 POP JUMPDEST POP PUSH1 0x60 DUP5 ADD MSTORE DUP1 PUSH1 0x1 PUSH1 0x1 PUSH1 0x40 SHL SUB DUP2 GT ISZERO PUSH2 0x6CBF JUMPI PUSH2 0x6CBF PUSH2 0x767E JUMP JUMPDEST PUSH1 0x40 MLOAD SWAP1 DUP1 DUP3 MSTORE DUP1 PUSH1 0x20 MUL PUSH1 0x20 ADD DUP3 ADD PUSH1 0x40 MSTORE DUP1 ISZERO PUSH2 0x6CE8 JUMPI DUP2 PUSH1 0x20 ADD PUSH1 0x20 DUP3 MUL DUP1 CALLDATASIZE DUP4 CALLDATACOPY ADD SWAP1 POP JUMPDEST POP PUSH1 0xA0 DUP5 ADD MSTORE PUSH0 JUMPDEST DUP2 DUP2 LT ISZERO PUSH2 0x2862 JUMPI PUSH0 DUP1 JUMPDEST PUSH1 0x1 PUSH1 0x1 PUSH1 0xA0 SHL SUB DUP8 AND PUSH0 SWAP1 DUP2 MSTORE PUSH1 0x20 DUP2 SWAP1 MSTORE PUSH1 0x40 SWAP1 KECCAK256 PUSH1 0x2 ADD SLOAD DUP2 LT ISZERO PUSH2 0x6D96 JUMPI DUP8 DUP4 DUP2 MLOAD DUP2 LT PUSH2 0x6D2F JUMPI PUSH2 0x6D2F PUSH2 0x8C2F JUMP JUMPDEST PUSH1 0x20 MUL PUSH1 0x20 ADD ADD MLOAD PUSH1 0x60 ADD MLOAD PUSH0 DUP1 DUP10 PUSH1 0x1 PUSH1 0x1 PUSH1 0xA0 SHL SUB AND PUSH1 0x1 PUSH1 0x1 PUSH1 0xA0 SHL SUB AND DUP2 MSTORE PUSH1 0x20 ADD SWAP1 DUP2 MSTORE PUSH1 0x20 ADD PUSH0 KECCAK256 PUSH1 0x2 ADD DUP3 DUP2 SLOAD DUP2 LT PUSH2 0x6D71 JUMPI PUSH2 0x6D71 PUSH2 0x8C2F JUMP JUMPDEST SWAP1 PUSH0 MSTORE PUSH1 0x20 PUSH0 KECCAK256 SWAP1 PUSH1 0x5 MUL ADD PUSH0 ADD SLOAD SUB PUSH2 0x6D8E JUMPI PUSH1 0x1 SWAP2 POP PUSH2 0x6D96 JUMP JUMPDEST PUSH1 0x1 ADD PUSH2 0x6CFB JUMP JUMPDEST POP DUP1 PUSH2 0x6E1A JUMPI PUSH1 0x40 MLOAD PUSH3 0x461BCD PUSH1 0xE5 SHL DUP2 MSTORE PUSH1 0x20 PUSH1 0x4 DUP3 ADD MSTORE PUSH1 0x5A PUSH1 0x24 DUP3 ADD MSTORE PUSH0 DUP1 MLOAD PUSH1 0x20 PUSH2 0x9595 DUP4 CODECOPY DUP2 MLOAD SWAP2 MSTORE PUSH1 0x44 DUP3 ADD MSTORE PUSH32 0x223A2031332C20226D657373616765223A2022636172744974656D496420646F PUSH1 0x64 DUP3 ADD MSTORE PUSH26 0x6573206E6F7420657869737420696E207468652063617274227D PUSH1 0x30 SHL PUSH1 0x84 DUP3 ADD MSTORE PUSH1 0xA4 ADD PUSH2 0xB1C JUMP JUMPDEST PUSH1 0x12 SLOAD DUP8 MLOAD PUSH1 0x1 PUSH1 0x1 PUSH1 0xA0 SHL SUB SWAP1 SWAP2 AND SWAP1 PUSH4 0xB9DB15B4 SWAP1 DUP10 SWAP1 DUP6 SWAP1 DUP2 LT PUSH2 0x6E43 JUMPI PUSH2 0x6E43 PUSH2 0x8C2F JUMP JUMPDEST PUSH1 0x20 MUL PUSH1 0x20 ADD ADD MLOAD PUSH0 ADD MLOAD PUSH1 0x40 MLOAD DUP3 PUSH4 0xFFFFFFFF AND PUSH1 0xE0 SHL DUP2 MSTORE PUSH1 0x4 ADD PUSH2 0x6E6C SWAP2 DUP2 MSTORE PUSH1 0x20 ADD SWAP1 JUMP JUMPDEST PUSH0 PUSH1 0x40 MLOAD DUP1 DUP4 SUB DUP2 DUP7 GAS STATICCALL ISZERO DUP1 ISZERO PUSH2 0x6E86 JUMPI RETURNDATASIZE PUSH0 DUP1 RETURNDATACOPY RETURNDATASIZE PUSH0 REVERT JUMPDEST POP POP POP POP PUSH1 0x40 MLOAD RETURNDATASIZE PUSH0 DUP3 RETURNDATACOPY PUSH1 0x1F RETURNDATASIZE SWAP1 DUP2 ADD PUSH1 0x1F NOT AND DUP3 ADD PUSH1 0x40 MSTORE PUSH2 0x6EAD SWAP2 SWAP1 DUP2 ADD SWAP1 PUSH2 0x8E4C JUMP JUMPDEST PUSH1 0x20 ADD MLOAD PUSH2 0x2C0 ADD MLOAD PUSH2 0x6ED9 PUSH1 0xF PUSH1 0x40 MLOAD DUP1 PUSH1 0x60 ADD PUSH1 0x40 MSTORE DUP1 PUSH1 0x23 DUP2 MSTORE PUSH1 0x20 ADD PUSH2 0x947D PUSH1 0x23 SWAP2 CODECOPY PUSH2 0xD6F JUMP JUMPDEST SWAP1 PUSH2 0x6EF7 JUMPI PUSH1 0x40 MLOAD PUSH3 0x461BCD PUSH1 0xE5 SHL DUP2 MSTORE PUSH1 0x4 ADD PUSH2 0xB1C SWAP2 SWAP1 PUSH2 0x7D4C JUMP JUMPDEST POP PUSH1 0x12 SLOAD DUP8 MLOAD PUSH0 SWAP2 PUSH1 0x1 PUSH1 0x1 PUSH1 0xA0 SHL SUB AND SWAP1 PUSH3 0x41C629 SWAP1 DUP11 SWAP1 DUP7 SWAP1 DUP2 LT PUSH2 0x6F20 JUMPI PUSH2 0x6F20 PUSH2 0x8C2F JUMP JUMPDEST PUSH1 0x20 MUL PUSH1 0x20 ADD ADD MLOAD PUSH0 ADD MLOAD DUP11 DUP7 DUP2 MLOAD DUP2 LT PUSH2 0x6F3D JUMPI PUSH2 0x6F3D PUSH2 0x8C2F JUMP JUMPDEST PUSH1 0x20 MUL PUSH1 0x20 ADD ADD MLOAD PUSH1 0x40 ADD MLOAD PUSH1 0x40 MLOAD DUP4 PUSH4 0xFFFFFFFF AND PUSH1 0xE0 SHL DUP2 MSTORE PUSH1 0x4 ADD PUSH2 0x6F66 SWAP3 SWAP2 SWAP1 PUSH2 0x9126 JUMP JUMPDEST PUSH1 0xC0 PUSH1 0x40 MLOAD DUP1 DUP4 SUB DUP2 DUP7 GAS STATICCALL ISZERO DUP1 ISZERO PUSH2 0x6F81 JUMPI RETURNDATASIZE PUSH0 DUP1 RETURNDATACOPY RETURNDATASIZE PUSH0 REVERT JUMPDEST POP POP POP POP PUSH1 0x40 MLOAD RETURNDATASIZE PUSH1 0x1F NOT PUSH1 0x1F DUP3 ADD AND DUP3 ADD DUP1 PUSH1 0x40 MSTORE POP DUP2 ADD SWAP1 PUSH2 0x6FA5 SWAP2 SWAP1 PUSH2 0x9134 JUMP JUMPDEST SWAP1 POP PUSH0 DUP1 DUP7 ISZERO PUSH2 0x6FBD JUMPI POP PUSH1 0x20 DUP1 DUP4 ADD MLOAD ADD MLOAD PUSH2 0x703B JUMP JUMPDEST POP PUSH1 0x20 DUP1 DUP4 ADD MLOAD PUSH1 0x40 DUP2 ADD MLOAD SWAP2 ADD MLOAD DUP2 LT PUSH2 0x703B JUMPI PUSH1 0x40 MLOAD PUSH3 0x461BCD PUSH1 0xE5 SHL DUP2 MSTORE PUSH1 0x20 PUSH1 0x4 DUP3 ADD MSTORE PUSH1 0x44 PUSH1 0x24 DUP3 ADD DUP2 SWAP1 MSTORE PUSH0 DUP1 MLOAD PUSH1 0x20 PUSH2 0x9595 DUP4 CODECOPY DUP2 MLOAD SWAP2 MSTORE SWAP1 DUP3 ADD MSTORE PUSH32 0x223A2031332C20226D657373616765223A202277726F6E672064696666507269 PUSH1 0x64 DUP3 ADD MSTORE PUSH4 0x6365227D PUSH1 0xE0 SHL PUSH1 0x84 DUP3 ADD MSTORE PUSH1 0xA4 ADD PUSH2 0xB1C JUMP JUMPDEST DUP10 DUP6 DUP2 MLOAD DUP2 LT PUSH2 0x704D JUMPI PUSH2 0x704D PUSH2 0x8C2F JUMP JUMPDEST PUSH1 0x20 MUL PUSH1 0x20 ADD ADD MLOAD PUSH1 0x20 ADD MLOAD DUP2 PUSH2 0x7064 SWAP2 SWAP1 PUSH2 0x9465 JUMP JUMPDEST DUP9 PUSH1 0xE0 ADD DUP2 DUP2 MLOAD PUSH2 0x7075 SWAP2 SWAP1 PUSH2 0x940F JUMP JUMPDEST SWAP1 MSTORE POP PUSH1 0x20 DUP4 ADD MLOAD PUSH1 0x80 ADD MLOAD DUP11 MLOAD DUP12 SWAP1 DUP8 SWAP1 DUP2 LT PUSH2 0x7095 JUMPI PUSH2 0x7095 PUSH2 0x8C2F JUMP JUMPDEST PUSH1 0x20 MUL PUSH1 0x20 ADD ADD MLOAD PUSH1 0x20 ADD MLOAD GT ISZERO PUSH2 0x70C6 PUSH1 0xD PUSH1 0x40 MLOAD DUP1 PUSH1 0x60 ADD PUSH1 0x40 MSTORE DUP1 PUSH1 0x2A DUP2 MSTORE PUSH1 0x20 ADD PUSH2 0x94F5 PUSH1 0x2A SWAP2 CODECOPY PUSH2 0xD6F JUMP JUMPDEST SWAP1 PUSH2 0x70E4 JUMPI PUSH1 0x40 MLOAD PUSH3 0x461BCD PUSH1 0xE5 SHL DUP2 MSTORE PUSH1 0x4 ADD PUSH2 0xB1C SWAP2 SWAP1 PUSH2 0x7D4C JUMP JUMPDEST POP DUP10 DUP6 DUP2 MLOAD DUP2 LT PUSH2 0x70F7 JUMPI PUSH2 0x70F7 PUSH2 0x8C2F JUMP JUMPDEST PUSH1 0x20 MUL PUSH1 0x20 ADD ADD MLOAD PUSH0 ADD MLOAD DUP9 PUSH0 ADD MLOAD DUP7 DUP2 MLOAD DUP2 LT PUSH2 0x7117 JUMPI PUSH2 0x7117 PUSH2 0x8C2F JUMP JUMPDEST PUSH1 0x20 MUL PUSH1 0x20 ADD ADD DUP2 DUP2 MSTORE POP POP DUP10 DUP6 DUP2 MLOAD DUP2 LT PUSH2 0x7135 JUMPI PUSH2 0x7135 PUSH2 0x8C2F JUMP JUMPDEST PUSH1 0x20 MUL PUSH1 0x20 ADD ADD MLOAD PUSH1 0x40 ADD MLOAD DUP9 PUSH1 0x20 ADD MLOAD DUP7 DUP2 MLOAD DUP2 LT PUSH2 0x7157 JUMPI PUSH2 0x7157 PUSH2 0x8C2F JUMP JUMPDEST PUSH1 0x20 MUL PUSH1 0x20 ADD ADD DUP2 DUP2 MSTORE POP POP DUP10 DUP6 DUP2 MLOAD DUP2 LT PUSH2 0x7175 JUMPI PUSH2 0x7175 PUSH2 0x8C2F JUMP JUMPDEST PUSH1 0x20 MUL PUSH1 0x20 ADD ADD MLOAD PUSH1 0x20 ADD MLOAD DUP9 PUSH1 0x40 ADD MLOAD DUP7 DUP2 MLOAD DUP2 LT PUSH2 0x7197 JUMPI PUSH2 0x7197 PUSH2 0x8C2F JUMP JUMPDEST PUSH1 0x20 MUL PUSH1 0x20 ADD ADD DUP2 DUP2 MSTORE POP POP DUP2 DUP9 PUSH1 0x60 ADD MLOAD DUP7 DUP2 MLOAD DUP2 LT PUSH2 0x71BA JUMPI PUSH2 0x71BA PUSH2 0x8C2F JUMP JUMPDEST PUSH1 0x20 MUL PUSH1 0x20 ADD ADD DUP2 DUP2 MSTORE POP POP DUP1 DUP9 PUSH1 0x80 ADD MLOAD DUP7 DUP2 MLOAD DUP2 LT PUSH2 0x71DD JUMPI PUSH2 0x71DD PUSH2 0x8C2F JUMP JUMPDEST PUSH1 0x20 MUL PUSH1 0x20 ADD ADD DUP2 DUP2 MSTORE POP POP DUP3 PUSH1 0x20 ADD MLOAD PUSH1 0x60 ADD MLOAD DUP9 PUSH1 0xA0 ADD MLOAD DUP7 DUP2 MLOAD DUP2 LT PUSH2 0x7208 JUMPI PUSH2 0x7208 PUSH2 0x8C2F JUMP JUMPDEST PUSH1 0x20 MUL PUSH1 0x20 ADD ADD DUP2 DUP2 MSTORE POP POP DUP10 DUP6 DUP2 MLOAD DUP2 LT PUSH2 0x7226 JUMPI PUSH2 0x7226 PUSH2 0x8C2F JUMP JUMPDEST PUSH1 0x20 MUL PUSH1 0x20 ADD ADD MLOAD PUSH1 0x60 ADD MLOAD DUP9 PUSH1 0xC0 ADD MLOAD DUP7 DUP2 MLOAD DUP2 LT PUSH2 0x7248 JUMPI PUSH2 0x7248 PUSH2 0x8C2F JUMP JUMPDEST PUSH1 0x20 SWAP1 DUP2 MUL SWAP2 SWAP1 SWAP2 ADD ADD MSTORE POP POP PUSH1 0x1 SWAP1 SWAP3 ADD SWAP2 POP PUSH2 0x6CF0 SWAP1 POP JUMP JUMPDEST PUSH2 0x726D DUP3 DUP3 PUSH2 0x639C JUMP JUMPDEST POP POP JUMP JUMPDEST PUSH0 DUP1 PUSH19 0x184F03E93FF9F4DAA797ED6E38ED64BF6A1F01 PUSH1 0x40 SHL DUP4 LT PUSH2 0x72AF JUMPI PUSH19 0x184F03E93FF9F4DAA797ED6E38ED64BF6A1F01 PUSH1 0x40 SHL DUP4 DIV SWAP3 POP PUSH1 0x40 ADD JUMPDEST PUSH10 0x4EE2D6D415B85ACEF81 PUSH1 0x20 SHL DUP4 LT PUSH2 0x72D9 JUMPI PUSH10 0x4EE2D6D415B85ACEF81 PUSH1 0x20 SHL DUP4 DIV SWAP3 POP PUSH1 0x20 ADD JUMPDEST PUSH7 0x2386F26FC10000 DUP4 LT PUSH2 0x72F7 JUMPI PUSH7 0x2386F26FC10000 DUP4 DIV SWAP3 POP PUSH1 0x10 ADD JUMPDEST PUSH4 0x5F5E100 DUP4 LT PUSH2 0x730F JUMPI PUSH4 0x5F5E100 DUP4 DIV SWAP3 POP PUSH1 0x8 ADD JUMPDEST PUSH2 0x2710 DUP4 LT PUSH2 0x7323 JUMPI PUSH2 0x2710 DUP4 DIV SWAP3 POP PUSH1 0x4 ADD JUMPDEST PUSH1 0x64 DUP4 LT PUSH2 0x7335 JUMPI PUSH1 0x64 DUP4 DIV SWAP3 POP PUSH1 0x2 ADD JUMPDEST PUSH1 0xA DUP4 LT PUSH2 0xDA3 JUMPI PUSH1 0x1 ADD SWAP3 SWAP2 POP POP JUMP JUMPDEST POP DUP1 SLOAD PUSH0 DUP3 SSTORE PUSH1 0x5 MUL SWAP1 PUSH0 MSTORE PUSH1 0x20 PUSH0 KECCAK256 SWAP1 DUP2 ADD SWAP1 PUSH2 0x1A7D SWAP2 SWAP1 PUSH2 0x7558 JUMP JUMPDEST DUP3 DUP1 SLOAD DUP3 DUP3 SSTORE SWAP1 PUSH0 MSTORE PUSH1 0x20 PUSH0 KECCAK256 SWAP1 DUP2 ADD SWAP3 DUP3 ISZERO PUSH2 0x739D JUMPI SWAP2 PUSH1 0x20 MUL DUP3 ADD JUMPDEST DUP3 DUP2 GT ISZERO PUSH2 0x739D JUMPI DUP3 MLOAD DUP3 SSTORE SWAP2 PUSH1 0x20 ADD SWAP2 SWAP1 PUSH1 0x1 ADD SWAP1 PUSH2 0x7382 JUMP JUMPDEST POP PUSH2 0x1150 SWAP3 SWAP2 POP PUSH2 0x75A1 JUMP JUMPDEST PUSH1 0x40 MLOAD DUP1 PUSH1 0x60 ADD PUSH1 0x40 MSTORE DUP1 PUSH0 DUP2 MSTORE PUSH1 0x20 ADD PUSH0 PUSH1 0x1 PUSH1 0x1 PUSH1 0xA0 SHL SUB AND DUP2 MSTORE PUSH1 0x20 ADD PUSH1 0x60 DUP2 MSTORE POP SWAP1 JUMP JUMPDEST PUSH1 0x40 MLOAD DUP1 PUSH2 0x260 ADD PUSH1 0x40 MSTORE DUP1 PUSH0 DUP2 MSTORE PUSH1 0x20 ADD PUSH0 PUSH1 0x1 PUSH1 0x1 PUSH1 0xA0 SHL SUB AND DUP2 MSTORE PUSH1 0x20 ADD PUSH0 PUSH1 0x1 PUSH1 0x1 PUSH1 0xA0 SHL SUB AND DUP2 MSTORE PUSH1 0x20 ADD PUSH0 DUP2 MSTORE PUSH1 0x20 ADD PUSH1 0x60 DUP2 MSTORE PUSH1 0x20 ADD PUSH1 0x60 DUP2 MSTORE PUSH1 0x20 ADD PUSH1 0x60 DUP2 MSTORE PUSH1 0x20 ADD PUSH1 0x60 DUP2 MSTORE PUSH1 0x20 ADD PUSH1 0x60 DUP2 MSTORE PUSH1 0x20 ADD PUSH1 0x60 DUP2 MSTORE PUSH1 0x20 ADD PUSH1 0x60 DUP2 MSTORE PUSH1 0x20 ADD PUSH0 DUP2 MSTORE PUSH1 0x20 ADD PUSH0 PUSH1 0xFF AND DUP2 MSTORE PUSH1 0x20 ADD PUSH0 PUSH1 0xFF AND DUP2 MSTORE PUSH1 0x20 ADD PUSH0 DUP1 NOT AND DUP2 MSTORE PUSH1 0x20 ADD PUSH0 DUP2 MSTORE PUSH1 0x20 ADD PUSH0 DUP2 MSTORE PUSH1 0x20 ADD PUSH0 PUSH1 0xFF AND DUP2 MSTORE PUSH1 0x20 ADD PUSH0 DUP2 MSTORE POP SWAP1 JUMP JUMPDEST PUSH1 0x40 MLOAD DUP1 PUSH1 0xA0 ADD PUSH1 0x40 MSTORE DUP1 PUSH0 DUP2 MSTORE PUSH1 0x20 ADD PUSH0 DUP2 MSTORE PUSH1 0x20 ADD PUSH0 DUP2 MSTORE PUSH1 0x20 ADD PUSH0 DUP1 NOT AND DUP2 MSTORE PUSH1 0x20 ADD PUSH0 DUP2 MSTORE POP SWAP1 JUMP JUMPDEST PUSH1 0x40 MLOAD DUP1 PUSH1 0xA0 ADD PUSH1 0x40 MSTORE DUP1 PUSH0 DUP2 MSTORE PUSH1 0x20 ADD PUSH1 0x60 DUP2 MSTORE PUSH1 0x20 ADD PUSH0 PUSH1 0x1 PUSH1 0x1 PUSH1 0xA0 SHL SUB AND DUP2 MSTORE PUSH1 0x20 ADD PUSH0 ISZERO ISZERO DUP2 MSTORE PUSH1 0x20 ADD PUSH0 DUP2 MSTORE POP SWAP1 JUMP JUMPDEST PUSH1 0x40 MLOAD DUP1 PUSH1 0x80 ADD PUSH1 0x40 MSTORE DUP1 PUSH0 DUP2 MSTORE PUSH1 0x20 ADD PUSH0 DUP2 MSTORE PUSH1 0x20 ADD PUSH0 PUSH1 0x1 PUSH1 0x1 PUSH1 0xA0 SHL SUB AND DUP2 MSTORE PUSH1 0x20 ADD PUSH2 0x7506 PUSH2 0x75B5 JUMP JUMPDEST SWAP1 MSTORE SWAP1 JUMP JUMPDEST PUSH1 0x40 MLOAD DUP1 PUSH1 0x80 ADD PUSH1 0x40 MSTORE DUP1 PUSH1 0x60 DUP2 MSTORE PUSH1 0x20 ADD PUSH2 0x7525 PUSH2 0x75B5 JUMP JUMPDEST DUP2 MSTORE PUSH0 PUSH1 0x20 DUP3 ADD MSTORE PUSH1 0x40 ADD PUSH2 0x7506 PUSH1 0x40 DUP1 MLOAD PUSH1 0x80 DUP2 ADD DUP3 MSTORE PUSH0 DUP1 DUP3 MSTORE PUSH1 0x20 DUP3 ADD DUP2 SWAP1 MSTORE SWAP1 SWAP2 DUP3 ADD SWAP1 DUP2 MSTORE PUSH1 0x20 ADD PUSH0 SWAP1 MSTORE SWAP1 JUMP JUMPDEST DUP1 DUP3 GT ISZERO PUSH2 0x1150 JUMPI PUSH0 PUSH2 0x756B DUP3 DUP3 PUSH2 0x7601 JUMP JUMPDEST PUSH2 0x7578 PUSH1 0x1 DUP4 ADD PUSH0 PUSH2 0x7601 JUMP JUMPDEST PUSH2 0x7585 PUSH1 0x2 DUP4 ADD PUSH0 PUSH2 0x7601 JUMP JUMPDEST PUSH2 0x7592 PUSH1 0x3 DUP4 ADD PUSH0 PUSH2 0x7601 JUMP JUMPDEST POP PUSH0 PUSH1 0x4 DUP3 ADD SSTORE PUSH1 0x5 ADD PUSH2 0x7558 JUMP JUMPDEST JUMPDEST DUP1 DUP3 GT ISZERO PUSH2 0x1150 JUMPI PUSH0 DUP2 SSTORE PUSH1 0x1 ADD PUSH2 0x75A2 JUMP JUMPDEST PUSH1 0x40 MLOAD DUP1 PUSH2 0x120 ADD PUSH1 0x40 MSTORE DUP1 PUSH1 0x60 DUP2 MSTORE PUSH1 0x20 ADD PUSH1 0x60 DUP2 MSTORE PUSH1 0x20 ADD PUSH1 0x60 DUP2 MSTORE PUSH1 0x20 ADD PUSH1 0x60 DUP2 MSTORE PUSH1 0x20 ADD PUSH1 0x60 DUP2 MSTORE PUSH1 0x20 ADD PUSH1 0x60 DUP2 MSTORE PUSH1 0x20 ADD PUSH1 0x60 DUP2 MSTORE PUSH1 0x20 ADD PUSH1 0x60 DUP2 MSTORE PUSH1 0x20 ADD PUSH1 0x60 DUP2 MSTORE POP SWAP1 JUMP JUMPDEST POP DUP1 SLOAD PUSH0 DUP3 SSTORE SWAP1 PUSH0 MSTORE PUSH1 0x20 PUSH0 KECCAK256 SWAP1 DUP2 ADD SWAP1 PUSH2 0x1A7D SWAP2 SWAP1 PUSH2 0x75A1 JUMP JUMPDEST PUSH0 PUSH1 0x20 DUP3 DUP5 SUB SLT ISZERO PUSH2 0x762C JUMPI PUSH0 DUP1 REVERT JUMPDEST POP CALLDATALOAD SWAP2 SWAP1 POP JUMP JUMPDEST PUSH1 0x1 PUSH1 0x1 PUSH1 0xA0 SHL SUB AND SWAP1 MSTORE JUMP JUMPDEST PUSH1 0x1 PUSH1 0x1 PUSH1 0xA0 SHL SUB DUP2 AND DUP2 EQ PUSH2 0x1A7D JUMPI PUSH0 DUP1 REVERT JUMPDEST PUSH0 DUP1 PUSH1 0x40 DUP4 DUP6 SUB SLT ISZERO PUSH2 0x7665 JUMPI PUSH0 DUP1 REVERT JUMPDEST DUP3 CALLDATALOAD PUSH2 0x7670 DUP2 PUSH2 0x7640 JUMP JUMPDEST SWAP5 PUSH1 0x20 SWAP4 SWAP1 SWAP4 ADD CALLDATALOAD SWAP4 POP POP POP JUMP JUMPDEST PUSH4 0x4E487B71 PUSH1 0xE0 SHL PUSH0 MSTORE PUSH1 0x41 PUSH1 0x4 MSTORE PUSH1 0x24 PUSH0 REVERT JUMPDEST PUSH1 0x40 MLOAD PUSH2 0x120 DUP2 ADD PUSH1 0x1 PUSH1 0x1 PUSH1 0x40 SHL SUB DUP2 GT DUP3 DUP3 LT OR ISZERO PUSH2 0x76B5 JUMPI PUSH2 0x76B5 PUSH2 0x767E JUMP JUMPDEST PUSH1 0x40 MSTORE SWAP1 JUMP JUMPDEST PUSH1 0x40 MLOAD PUSH1 0xA0 DUP2 ADD PUSH1 0x1 PUSH1 0x1 PUSH1 0x40 SHL SUB DUP2 GT DUP3 DUP3 LT OR ISZERO PUSH2 0x76B5 JUMPI PUSH2 0x76B5 PUSH2 0x767E JUMP JUMPDEST PUSH1 0x40 MLOAD PUSH1 0x80 DUP2 ADD PUSH1 0x1 PUSH1 0x1 PUSH1 0x40 SHL SUB DUP2 GT DUP3 DUP3 LT OR ISZERO PUSH2 0x76B5 JUMPI PUSH2 0x76B5 PUSH2 0x767E JUMP JUMPDEST PUSH1 0x40 MLOAD PUSH1 0x60 DUP2 ADD PUSH1 0x1 PUSH1 0x1 PUSH1 0x40 SHL SUB DUP2 GT DUP3 DUP3 LT OR ISZERO PUSH2 0x76B5 JUMPI PUSH2 0x76B5 PUSH2 0x767E JUMP JUMPDEST PUSH1 0x40 DUP1 MLOAD SWAP1 DUP2 ADD PUSH1 0x1 PUSH1 0x1 PUSH1 0x40 SHL SUB DUP2 GT DUP3 DUP3 LT OR ISZERO PUSH2 0x76B5 JUMPI PUSH2 0x76B5 PUSH2 0x767E JUMP JUMPDEST PUSH1 0x40 MLOAD PUSH2 0x300 DUP2 ADD PUSH1 0x1 PUSH1 0x1 PUSH1 0x40 SHL SUB DUP2 GT DUP3 DUP3 LT OR ISZERO PUSH2 0x76B5 JUMPI PUSH2 0x76B5 PUSH2 0x767E JUMP JUMPDEST PUSH1 0x40 MLOAD PUSH1 0x1F DUP3 ADD PUSH1 0x1F NOT AND DUP2 ADD PUSH1 0x1 PUSH1 0x1 PUSH1 0x40 SHL SUB DUP2 GT DUP3 DUP3 LT OR ISZERO PUSH2 0x778E JUMPI PUSH2 0x778E PUSH2 0x767E JUMP JUMPDEST PUSH1 0x40 MSTORE SWAP2 SWAP1 POP JUMP JUMPDEST PUSH0 PUSH1 0x1 PUSH1 0x1 PUSH1 0x40 SHL SUB DUP3 GT ISZERO PUSH2 0x77AE JUMPI PUSH2 0x77AE PUSH2 0x767E JUMP JUMPDEST POP PUSH1 0x1F ADD PUSH1 0x1F NOT AND PUSH1 0x20 ADD SWAP1 JUMP JUMPDEST PUSH0 PUSH2 0x77CE PUSH2 0x77C9 DUP5 PUSH2 0x7796 JUMP JUMPDEST PUSH2 0x7766 JUMP JUMPDEST SWAP1 POP DUP3 DUP2 MSTORE DUP4 DUP4 DUP4 ADD GT ISZERO PUSH2 0x77E1 JUMPI PUSH0 DUP1 REVERT JUMPDEST DUP3 DUP3 PUSH1 0x20 DUP4 ADD CALLDATACOPY PUSH0 PUSH1 0x20 DUP5 DUP4 ADD ADD MSTORE SWAP4 SWAP3 POP POP POP JUMP JUMPDEST PUSH0 DUP3 PUSH1 0x1F DUP4 ADD SLT PUSH2 0x7806 JUMPI PUSH0 DUP1 REVERT JUMPDEST PUSH2 0x7815 DUP4 DUP4 CALLDATALOAD PUSH1 0x20 DUP6 ADD PUSH2 0x77BC JUMP JUMPDEST SWAP4 SWAP3 POP POP POP JUMP JUMPDEST PUSH0 PUSH2 0x120 DUP3 DUP5 SUB SLT ISZERO PUSH2 0x782D JUMPI PUSH0 DUP1 REVERT JUMPDEST PUSH2 0x7835 PUSH2 0x7692 JUMP JUMPDEST SWAP1 POP DUP2 CALLDATALOAD PUSH1 0x1 PUSH1 0x1 PUSH1 0x40 SHL SUB DUP2 GT ISZERO PUSH2 0x784C JUMPI PUSH0 DUP1 REVERT JUMPDEST PUSH2 0x7858 DUP5 DUP3 DUP6 ADD PUSH2 0x77F7 JUMP JUMPDEST DUP3 MSTORE POP PUSH1 0x20 DUP3 ADD CALLDATALOAD PUSH1 0x1 PUSH1 0x1 PUSH1 0x40 SHL SUB DUP2 GT ISZERO PUSH2 0x7873 JUMPI PUSH0 DUP1 REVERT JUMPDEST PUSH2 0x787F DUP5 DUP3 DUP6 ADD PUSH2 0x77F7 JUMP JUMPDEST PUSH1 0x20 DUP4 ADD MSTORE POP PUSH1 0x40 DUP3 ADD CALLDATALOAD PUSH1 0x1 PUSH1 0x1 PUSH1 0x40 SHL SUB DUP2 GT ISZERO PUSH2 0x789D JUMPI PUSH0 DUP1 REVERT JUMPDEST PUSH2 0x78A9 DUP5 DUP3 DUP6 ADD PUSH2 0x77F7 JUMP JUMPDEST PUSH1 0x40 DUP4 ADD MSTORE POP PUSH1 0x60 DUP3 ADD CALLDATALOAD PUSH1 0x1 PUSH1 0x1 PUSH1 0x40 SHL SUB DUP2 GT ISZERO PUSH2 0x78C7 JUMPI PUSH0 DUP1 REVERT JUMPDEST PUSH2 0x78D3 DUP5 DUP3 DUP6 ADD PUSH2 0x77F7 JUMP JUMPDEST PUSH1 0x60 DUP4 ADD MSTORE POP PUSH1 0x80 DUP3 ADD CALLDATALOAD PUSH1 0x1 PUSH1 0x1 PUSH1 0x40 SHL SUB DUP2 GT ISZERO PUSH2 0x78F1 JUMPI PUSH0 DUP1 REVERT JUMPDEST PUSH2 0x78FD DUP5 DUP3 DUP6 ADD PUSH2 0x77F7 JUMP JUMPDEST PUSH1 0x80 DUP4 ADD MSTORE POP PUSH1 0xA0 DUP3 ADD CALLDATALOAD PUSH1 0x1 PUSH1 0x1 PUSH1 0x40 SHL SUB DUP2 GT ISZERO PUSH2 0x791B JUMPI PUSH0 DUP1 REVERT JUMPDEST PUSH2 0x7927 DUP5 DUP3 DUP6 ADD PUSH2 0x77F7 JUMP JUMPDEST PUSH1 0xA0 DUP4 ADD MSTORE POP PUSH1 0xC0 DUP3 ADD CALLDATALOAD PUSH1 0x1 PUSH1 0x1 PUSH1 0x40 SHL SUB DUP2 GT ISZERO PUSH2 0x7945 JUMPI PUSH0 DUP1 REVERT JUMPDEST PUSH2 0x7951 DUP5 DUP3 DUP6 ADD PUSH2 0x77F7 JUMP JUMPDEST PUSH1 0xC0 DUP4 ADD MSTORE POP PUSH1 0xE0 DUP3 ADD CALLDATALOAD PUSH1 0x1 PUSH1 0x1 PUSH1 0x40 SHL SUB DUP2 GT ISZERO PUSH2 0x796F JUMPI PUSH0 DUP1 REVERT JUMPDEST PUSH2 0x797B DUP5 DUP3 DUP6 ADD PUSH2 0x77F7 JUMP JUMPDEST PUSH1 0xE0 DUP4 ADD MSTORE POP PUSH2 0x100 DUP3 ADD CALLDATALOAD PUSH1 0x1 PUSH1 0x1 PUSH1 0x40 SHL SUB DUP2 GT ISZERO PUSH2 0x799A JUMPI PUSH0 DUP1 REVERT JUMPDEST PUSH2 0x79A6 DUP5 DUP3 DUP6 ADD PUSH2 0x77F7 JUMP JUMPDEST PUSH2 0x100 DUP4 ADD MSTORE POP SWAP3 SWAP2 POP POP JUMP JUMPDEST PUSH0 DUP1 PUSH0 PUSH1 0x60 DUP5 DUP7 SUB SLT ISZERO PUSH2 0x79C5 JUMPI PUSH0 DUP1 REVERT JUMPDEST DUP4 CALLDATALOAD PUSH1 0x1 PUSH1 0x1 PUSH1 0x40 SHL SUB DUP2 GT ISZERO PUSH2 0x79DA JUMPI PUSH0 DUP1 REVERT JUMPDEST PUSH2 0x79E6 DUP7 DUP3 DUP8 ADD PUSH2 0x781C JUMP JUMPDEST SWAP4 POP POP PUSH1 0x20 DUP5 ADD CALLDATALOAD SWAP2 POP PUSH1 0x40 DUP5 ADD CALLDATALOAD PUSH2 0x79FE DUP2 PUSH2 0x7640 JUMP JUMPDEST DUP1 SWAP2 POP POP SWAP3 POP SWAP3 POP SWAP3 JUMP JUMPDEST PUSH0 PUSH1 0x1 PUSH1 0x1 PUSH1 0x40 SHL SUB DUP3 GT ISZERO PUSH2 0x7A21 JUMPI PUSH2 0x7A21 PUSH2 0x767E JUMP JUMPDEST POP PUSH1 0x5 SHL PUSH1 0x20 ADD SWAP1 JUMP JUMPDEST PUSH0 DUP3 PUSH1 0x1F DUP4 ADD SLT PUSH2 0x7A3A JUMPI PUSH0 DUP1 REVERT JUMPDEST DUP2 CALLDATALOAD PUSH2 0x7A48 PUSH2 0x77C9 DUP3 PUSH2 0x7A09 JUMP JUMPDEST DUP1 DUP3 DUP3 MSTORE PUSH1 0x20 DUP3 ADD SWAP2 POP PUSH1 0x20 DUP4 PUSH1 0x5 SHL DUP7 ADD ADD SWAP3 POP DUP6 DUP4 GT ISZERO PUSH2 0x7A69 JUMPI PUSH0 DUP1 REVERT JUMPDEST PUSH1 0x20 DUP6 ADD JUMPDEST DUP4 DUP2 LT ISZERO PUSH2 0x7A86 JUMPI DUP1 CALLDATALOAD DUP4 MSTORE PUSH1 0x20 SWAP3 DUP4 ADD SWAP3 ADD PUSH2 0x7A6E JUMP JUMPDEST POP SWAP6 SWAP5 POP POP POP POP POP JUMP JUMPDEST PUSH0 DUP3 PUSH1 0x1F DUP4 ADD SLT PUSH2 0x7A9F JUMPI PUSH0 DUP1 REVERT JUMPDEST DUP2 CALLDATALOAD PUSH2 0x7AAD PUSH2 0x77C9 DUP3 PUSH2 0x7A09 JUMP JUMPDEST DUP1 DUP3 DUP3 MSTORE PUSH1 0x20 DUP3 ADD SWAP2 POP PUSH1 0x20 DUP4 PUSH1 0x5 SHL DUP7 ADD ADD SWAP3 POP DUP6 DUP4 GT ISZERO PUSH2 0x7ACE JUMPI PUSH0 DUP1 REVERT JUMPDEST PUSH1 0x20 DUP6 ADD JUMPDEST DUP4 DUP2 LT ISZERO PUSH2 0x7A86 JUMPI DUP1 CALLDATALOAD PUSH1 0x1 PUSH1 0x1 PUSH1 0x40 SHL SUB DUP2 GT ISZERO PUSH2 0x7AF0 JUMPI PUSH0 DUP1 REVERT JUMPDEST DUP7 ADD PUSH1 0xA0 DUP2 DUP10 SUB PUSH1 0x1F NOT ADD SLT ISZERO PUSH2 0x7B05 JUMPI PUSH0 DUP1 REVERT JUMPDEST PUSH2 0x7B0D PUSH2 0x76BB JUMP JUMPDEST PUSH1 0x20 DUP3 ADD CALLDATALOAD PUSH1 0x1 PUSH1 0x1 PUSH1 0x40 SHL SUB DUP2 GT ISZERO PUSH2 0x7B25 JUMPI PUSH0 DUP1 REVERT JUMPDEST PUSH2 0x7B34 DUP11 PUSH1 0x20 DUP4 DUP7 ADD ADD PUSH2 0x7A2B JUMP JUMPDEST DUP3 MSTORE POP PUSH1 0x40 DUP3 ADD CALLDATALOAD PUSH1 0x1 PUSH1 0x1 PUSH1 0x40 SHL SUB DUP2 GT ISZERO PUSH2 0x7B4F JUMPI PUSH0 DUP1 REVERT JUMPDEST PUSH2 0x7B5E DUP11 PUSH1 0x20 DUP4 DUP7 ADD ADD PUSH2 0x7A2B JUMP JUMPDEST PUSH1 0x20 DUP4 ADD MSTORE POP PUSH1 0x60 DUP3 ADD CALLDATALOAD PUSH1 0x1 PUSH1 0x1 PUSH1 0x40 SHL SUB DUP2 GT ISZERO PUSH2 0x7B7C JUMPI PUSH0 DUP1 REVERT JUMPDEST PUSH2 0x7B8B DUP11 PUSH1 0x20 DUP4 DUP7 ADD ADD PUSH2 0x7A2B JUMP JUMPDEST PUSH1 0x40 DUP4 ADD MSTORE POP PUSH1 0x80 DUP3 ADD CALLDATALOAD PUSH1 0x1 PUSH1 0x1 PUSH1 0x40 SHL SUB DUP2 GT ISZERO PUSH2 0x7BA9 JUMPI PUSH0 DUP1 REVERT JUMPDEST PUSH2 0x7BB8 DUP11 PUSH1 0x20 DUP4 DUP7 ADD ADD PUSH2 0x7A2B JUMP JUMPDEST PUSH1 0x60 DUP4 ADD MSTORE POP PUSH1 0xA0 SWAP2 SWAP1 SWAP2 ADD CALLDATALOAD PUSH1 0x80 DUP3 ADD MSTORE DUP4 MSTORE PUSH1 0x20 SWAP3 DUP4 ADD SWAP3 ADD PUSH2 0x7AD3 JUMP JUMPDEST PUSH0 DUP1 PUSH0 PUSH1 0x60 DUP5 DUP7 SUB SLT ISZERO PUSH2 0x7BEA JUMPI PUSH0 DUP1 REVERT JUMPDEST DUP4 CALLDATALOAD SWAP3 POP PUSH1 0x20 DUP5 ADD CALLDATALOAD PUSH1 0x1 PUSH1 0x1 PUSH1 0x40 SHL SUB DUP2 GT ISZERO PUSH2 0x7C06 JUMPI PUSH0 DUP1 REVERT JUMPDEST PUSH2 0x7C12 DUP7 DUP3 DUP8 ADD PUSH2 0x7A90 JUMP JUMPDEST SWAP4 SWAP7 SWAP4 SWAP6 POP POP POP POP PUSH1 0x40 SWAP2 SWAP1 SWAP2 ADD CALLDATALOAD SWAP1 JUMP JUMPDEST PUSH0 PUSH1 0x20 DUP3 DUP5 SUB SLT ISZERO PUSH2 0x7C34 JUMPI PUSH0 DUP1 REVERT JUMPDEST DUP2 CALLDATALOAD PUSH2 0x7815 DUP2 PUSH2 0x7640 JUMP JUMPDEST DUP1 MLOAD DUP3 MSTORE PUSH1 0x20 DUP2 ADD MLOAD PUSH1 0x20 DUP4 ADD MSTORE PUSH1 0x40 DUP2 ADD MLOAD PUSH1 0x40 DUP4 ADD MSTORE PUSH1 0x60 DUP2 ADD MLOAD PUSH1 0x60 DUP4 ADD MSTORE PUSH1 0x80 DUP2 ADD MLOAD PUSH1 0x80 DUP4 ADD MSTORE POP POP JUMP JUMPDEST PUSH1 0x20 DUP1 DUP3 MSTORE DUP3 MLOAD DUP3 DUP3 ADD MSTORE DUP3 DUP2 ADD MLOAD PUSH1 0x1 PUSH1 0x1 PUSH1 0xA0 SHL SUB AND PUSH1 0x40 DUP1 DUP5 ADD SWAP2 SWAP1 SWAP2 MSTORE DUP4 ADD MLOAD PUSH1 0x60 DUP1 DUP5 ADD MSTORE DUP1 MLOAD PUSH1 0x80 DUP5 ADD DUP2 SWAP1 MSTORE PUSH0 SWAP3 SWAP2 SWAP1 SWAP2 ADD SWAP1 DUP3 SWAP1 PUSH1 0xA0 DUP6 ADD SWAP1 JUMPDEST DUP1 DUP4 LT ISZERO PUSH2 0x7A86 JUMPI PUSH2 0x7CC4 DUP3 DUP6 MLOAD PUSH2 0x7C3F JUMP JUMPDEST PUSH1 0xA0 DUP3 ADD SWAP2 POP PUSH1 0x20 DUP5 ADD SWAP4 POP PUSH1 0x1 DUP4 ADD SWAP3 POP PUSH2 0x7CB1 JUMP JUMPDEST PUSH0 DUP1 PUSH1 0x40 DUP4 DUP6 SUB SLT ISZERO PUSH2 0x7CEC JUMPI PUSH0 DUP1 REVERT JUMPDEST DUP3 CALLDATALOAD SWAP2 POP PUSH1 0x20 DUP4 ADD CALLDATALOAD PUSH1 0x1 PUSH1 0x1 PUSH1 0x40 SHL SUB DUP2 GT ISZERO PUSH2 0x7D08 JUMPI PUSH0 DUP1 REVERT JUMPDEST PUSH2 0x7D14 DUP6 DUP3 DUP7 ADD PUSH2 0x77F7 JUMP JUMPDEST SWAP2 POP POP SWAP3 POP SWAP3 SWAP1 POP JUMP JUMPDEST PUSH0 DUP2 MLOAD DUP1 DUP5 MSTORE DUP1 PUSH1 0x20 DUP5 ADD PUSH1 0x20 DUP7 ADD MCOPY PUSH0 PUSH1 0x20 DUP3 DUP7 ADD ADD MSTORE PUSH1 0x20 PUSH1 0x1F NOT PUSH1 0x1F DUP4 ADD AND DUP6 ADD ADD SWAP2 POP POP SWAP3 SWAP2 POP POP JUMP JUMPDEST PUSH1 0x20 DUP2 MSTORE PUSH0 PUSH2 0x7815 PUSH1 0x20 DUP4 ADD DUP5 PUSH2 0x7D1E JUMP JUMPDEST PUSH0 DUP2 MLOAD DUP1 DUP5 MSTORE PUSH1 0x20 DUP5 ADD SWAP4 POP PUSH1 0x20 DUP4 ADD PUSH0 JUMPDEST DUP3 DUP2 LT ISZERO PUSH2 0x7D8E JUMPI DUP2 MLOAD DUP7 MSTORE PUSH1 0x20 SWAP6 DUP7 ADD SWAP6 SWAP1 SWAP2 ADD SWAP1 PUSH1 0x1 ADD PUSH2 0x7D70 JUMP JUMPDEST POP SWAP4 SWAP5 SWAP4 POP POP POP POP JUMP JUMPDEST DUP1 MLOAD DUP3 MSTORE PUSH0 PUSH1 0x20 DUP3 ADD MLOAD PUSH2 0x7DAF PUSH1 0x20 DUP6 ADD DUP3 PUSH2 0x7633 JUMP JUMPDEST POP PUSH1 0x40 DUP3 ADD MLOAD PUSH2 0x7DC2 PUSH1 0x40 DUP6 ADD DUP3 PUSH2 0x7633 JUMP JUMPDEST POP PUSH1 0x60 DUP3 ADD MLOAD PUSH1 0x60 DUP5 ADD MSTORE PUSH1 0x80 DUP3 ADD MLOAD PUSH2 0x260 PUSH1 0x80 DUP6 ADD MSTORE PUSH2 0x7DE8 PUSH2 0x260 DUP6 ADD DUP3 PUSH2 0x7D5E JUMP JUMPDEST SWAP1 POP PUSH1 0xA0 DUP4 ADD MLOAD DUP5 DUP3 SUB PUSH1 0xA0 DUP7 ADD MSTORE PUSH2 0x7E01 DUP3 DUP3 PUSH2 0x7D5E JUMP JUMPDEST SWAP2 POP POP PUSH1 0xC0 DUP4 ADD MLOAD DUP5 DUP3 SUB PUSH1 0xC0 DUP7 ADD MSTORE PUSH2 0x7E1B DUP3 DUP3 PUSH2 0x7D5E JUMP JUMPDEST SWAP2 POP POP PUSH1 0xE0 DUP4 ADD MLOAD DUP5 DUP3 SUB PUSH1 0xE0 DUP7 ADD MSTORE PUSH2 0x7E35 DUP3 DUP3 PUSH2 0x7D5E JUMP JUMPDEST SWAP2 POP POP PUSH2 0x100 DUP4 ADD MLOAD DUP5 DUP3 SUB PUSH2 0x100 DUP7 ADD MSTORE PUSH2 0x7E51 DUP3 DUP3 PUSH2 0x7D5E JUMP JUMPDEST SWAP2 POP POP PUSH2 0x120 DUP4 ADD MLOAD DUP5 DUP3 SUB PUSH2 0x120 DUP7 ADD MSTORE PUSH2 0x7E6D DUP3 DUP3 PUSH2 0x7D5E JUMP JUMPDEST SWAP2 POP POP PUSH2 0x140 DUP4 ADD MLOAD DUP5 DUP3 SUB PUSH2 0x140 DUP7 ADD MSTORE PUSH2 0x7E89 DUP3 DUP3 PUSH2 0x7D5E JUMP JUMPDEST SWAP2 POP POP PUSH2 0x160 DUP4 ADD MLOAD PUSH2 0x160 DUP6 ADD MSTORE PUSH2 0x180 DUP4 ADD MLOAD PUSH2 0x7EAE PUSH2 0x180 DUP7 ADD DUP3 PUSH1 0xFF AND SWAP1 MSTORE JUMP JUMPDEST POP PUSH2 0x1A0 DUP4 ADD MLOAD PUSH2 0x7EC5 PUSH2 0x1A0 DUP7 ADD DUP3 PUSH1 0xFF AND SWAP1 MSTORE JUMP JUMPDEST POP PUSH2 0x1C0 DUP4 ADD MLOAD PUSH2 0x1C0 DUP6 ADD MSTORE PUSH2 0x1E0 DUP4 ADD MLOAD PUSH2 0x1E0 DUP6 ADD MSTORE PUSH2 0x200 DUP4 ADD MLOAD PUSH2 0x200 DUP6 ADD MSTORE PUSH2 0x220 DUP4 ADD MLOAD PUSH2 0x7F00 PUSH2 0x220 DUP7 ADD DUP3 PUSH1 0xFF AND SWAP1 MSTORE JUMP JUMPDEST POP PUSH2 0x240 DUP4 ADD MLOAD PUSH2 0x240 DUP6 ADD MSTORE DUP1 SWAP2 POP POP SWAP3 SWAP2 POP POP JUMP JUMPDEST PUSH0 PUSH1 0x20 DUP3 ADD PUSH1 0x20 DUP4 MSTORE DUP1 DUP5 MLOAD DUP1 DUP4 MSTORE PUSH1 0x40 DUP6 ADD SWAP2 POP PUSH1 0x40 DUP2 PUSH1 0x5 SHL DUP7 ADD ADD SWAP3 POP PUSH1 0x20 DUP7 ADD PUSH0 JUMPDEST DUP3 DUP2 LT ISZERO PUSH2 0x7F6E JUMPI PUSH1 0x3F NOT DUP8 DUP7 SUB ADD DUP5 MSTORE PUSH2 0x7F59 DUP6 DUP4 MLOAD PUSH2 0x7D98 JUMP JUMPDEST SWAP5 POP PUSH1 0x20 SWAP4 DUP5 ADD SWAP4 SWAP2 SWAP1 SWAP2 ADD SWAP1 PUSH1 0x1 ADD PUSH2 0x7F3D JUMP JUMPDEST POP SWAP3 SWAP7 SWAP6 POP POP POP POP POP POP JUMP JUMPDEST PUSH0 PUSH1 0x20 DUP3 DUP5 SUB SLT ISZERO PUSH2 0x7F8A JUMPI PUSH0 DUP1 REVERT JUMPDEST DUP2 CALLDATALOAD PUSH1 0x1 PUSH1 0x1 PUSH1 0x40 SHL SUB DUP2 GT ISZERO PUSH2 0x7F9F JUMPI PUSH0 DUP1 REVERT JUMPDEST DUP3 ADD PUSH1 0x1F DUP2 ADD DUP5 SGT PUSH2 0x7FAF JUMPI PUSH0 DUP1 REVERT JUMPDEST PUSH2 0x7FBE DUP5 DUP3 CALLDATALOAD PUSH1 0x20 DUP5 ADD PUSH2 0x77BC JUMP JUMPDEST SWAP5 SWAP4 POP POP POP POP JUMP JUMPDEST PUSH0 DUP1 PUSH0 PUSH1 0x60 DUP5 DUP7 SUB SLT ISZERO PUSH2 0x7FD8 JUMPI PUSH0 DUP1 REVERT JUMPDEST POP POP DUP2 CALLDATALOAD SWAP4 PUSH1 0x20 DUP4 ADD CALLDATALOAD SWAP4 POP PUSH1 0x40 SWAP1 SWAP3 ADD CALLDATALOAD SWAP2 SWAP1 POP JUMP JUMPDEST PUSH1 0xA0 DUP2 ADD PUSH2 0xDA3 DUP3 DUP5 PUSH2 0x7C3F JUMP JUMPDEST PUSH0 PUSH1 0xA0 DUP4 ADD DUP3 MLOAD DUP5 MSTORE PUSH1 0x20 DUP4 ADD MLOAD PUSH1 0xA0 PUSH1 0x20 DUP7 ADD MSTORE DUP2 DUP2 MLOAD DUP1 DUP5 MSTORE PUSH1 0xC0 DUP8 ADD SWAP2 POP PUSH1 0xC0 DUP2 PUSH1 0x5 SHL DUP9 ADD ADD SWAP4 POP PUSH1 0x20 DUP4 ADD SWAP3 POP PUSH0 JUMPDEST DUP2 DUP2 LT ISZERO PUSH2 0x80C8 JUMPI PUSH1 0xBF NOT DUP9 DUP7 SUB ADD DUP4 MSTORE DUP4 MLOAD DUP1 MLOAD PUSH1 0xA0 DUP8 MSTORE PUSH2 0x8057 PUSH1 0xA0 DUP9 ADD DUP3 PUSH2 0x7D5E JUMP JUMPDEST SWAP1 POP PUSH1 0x20 DUP3 ADD MLOAD DUP8 DUP3 SUB PUSH1 0x20 DUP10 ADD MSTORE PUSH2 0x8070 DUP3 DUP3 PUSH2 0x7D5E JUMP JUMPDEST SWAP2 POP POP PUSH1 0x40 DUP3 ADD MLOAD DUP8 DUP3 SUB PUSH1 0x40 DUP10 ADD MSTORE PUSH2 0x808A DUP3 DUP3 PUSH2 0x7D5E JUMP JUMPDEST SWAP2 POP POP PUSH1 0x60 DUP3 ADD MLOAD DUP8 DUP3 SUB PUSH1 0x60 DUP10 ADD MSTORE PUSH2 0x80A4 DUP3 DUP3 PUSH2 0x7D5E JUMP JUMPDEST PUSH1 0x80 SWAP4 DUP5 ADD MLOAD SWAP9 SWAP1 SWAP4 ADD SWAP8 SWAP1 SWAP8 MSTORE POP SWAP5 POP PUSH1 0x20 SWAP4 DUP5 ADD SWAP4 SWAP3 SWAP1 SWAP3 ADD SWAP2 PUSH1 0x1 ADD PUSH2 0x8031 JUMP JUMPDEST POP POP POP POP PUSH1 0x40 DUP4 ADD MLOAD PUSH2 0x80DE PUSH1 0x40 DUP7 ADD DUP3 PUSH2 0x7633 JUMP JUMPDEST POP PUSH1 0x60 DUP4 ADD MLOAD PUSH2 0x80F2 PUSH1 0x60 DUP7 ADD DUP3 ISZERO ISZERO SWAP1 MSTORE JUMP JUMPDEST POP PUSH1 0x80 DUP4 ADD MLOAD PUSH1 0x80 DUP6 ADD MSTORE DUP1 SWAP2 POP POP SWAP3 SWAP2 POP POP JUMP JUMPDEST PUSH0 PUSH1 0x20 DUP3 ADD PUSH1 0x20 DUP4 MSTORE DUP1 DUP5 MLOAD DUP1 DUP4 MSTORE PUSH1 0x40 DUP6 ADD SWAP2 POP PUSH1 0x40 DUP2 PUSH1 0x5 SHL DUP7 ADD ADD SWAP3 POP PUSH1 0x20 DUP7 ADD PUSH0 JUMPDEST DUP3 DUP2 LT ISZERO PUSH2 0x7F6E JUMPI PUSH1 0x3F NOT DUP8 DUP7 SUB ADD DUP5 MSTORE PUSH2 0x8149 DUP6 DUP4 MLOAD PUSH2 0x7FFD JUMP JUMPDEST SWAP5 POP PUSH1 0x20 SWAP4 DUP5 ADD SWAP4 SWAP2 SWAP1 SWAP2 ADD SWAP1 PUSH1 0x1 ADD PUSH2 0x812D JUMP JUMPDEST PUSH1 0x1 PUSH1 0x1 PUSH1 0xA0 SHL SUB SWAP2 SWAP1 SWAP2 AND DUP2 MSTORE PUSH1 0x20 ADD SWAP1 JUMP JUMPDEST PUSH1 0x2 DUP2 LT PUSH2 0x1A7D JUMPI PUSH0 DUP1 REVERT JUMPDEST PUSH0 PUSH1 0x80 DUP3 DUP5 SUB SLT ISZERO PUSH2 0x818E JUMPI PUSH0 DUP1 REVERT JUMPDEST PUSH2 0x8196 PUSH2 0x76DD JUMP JUMPDEST DUP3 CALLDATALOAD DUP2 MSTORE PUSH1 0x20 DUP1 DUP5 ADD CALLDATALOAD SWAP1 DUP3 ADD MSTORE SWAP1 POP PUSH1 0x40 DUP3 ADD CALLDATALOAD PUSH2 0x81B4 DUP2 PUSH2 0x8172 JUMP JUMPDEST PUSH1 0x40 DUP3 ADD MSTORE PUSH1 0x60 DUP3 ADD CALLDATALOAD PUSH2 0x81C7 DUP2 PUSH2 0x8172 JUMP JUMPDEST PUSH1 0x60 DUP3 ADD MSTORE SWAP3 SWAP2 POP POP JUMP JUMPDEST PUSH0 DUP1 PUSH0 PUSH1 0xC0 DUP5 DUP7 SUB SLT ISZERO PUSH2 0x81E4 JUMPI PUSH0 DUP1 REVERT JUMPDEST PUSH1 0x1 PUSH1 0x1 PUSH1 0x40 SHL SUB DUP5 CALLDATALOAD GT ISZERO PUSH2 0x81F8 JUMPI PUSH0 DUP1 REVERT JUMPDEST DUP4 CALLDATALOAD DUP5 ADD DUP6 PUSH1 0x1F DUP3 ADD SLT PUSH2 0x820A JUMPI PUSH0 DUP1 REVERT JUMPDEST PUSH2 0x8217 PUSH2 0x77C9 DUP3 CALLDATALOAD PUSH2 0x7A09 JUMP JUMPDEST DUP2 CALLDATALOAD DUP1 DUP3 MSTORE PUSH1 0x20 DUP1 DUP4 ADD SWAP3 SWAP2 PUSH1 0x5 SHL DUP5 ADD ADD DUP9 LT ISZERO PUSH2 0x8234 JUMPI PUSH0 DUP1 REVERT JUMPDEST PUSH1 0x20 DUP4 ADD JUMPDEST PUSH1 0x20 DUP5 CALLDATALOAD PUSH1 0x5 SHL DUP6 ADD ADD DUP2 LT ISZERO PUSH2 0x835A JUMPI PUSH1 0x1 PUSH1 0x1 PUSH1 0x40 SHL SUB DUP2 CALLDATALOAD GT ISZERO PUSH2 0x825E JUMPI PUSH0 DUP1 REVERT JUMPDEST DUP1 CALLDATALOAD DUP5 ADD PUSH1 0xA0 DUP2 DUP12 SUB PUSH1 0x1F NOT ADD SLT ISZERO PUSH2 0x8275 JUMPI PUSH0 DUP1 REVERT JUMPDEST PUSH2 0x827D PUSH2 0x76BB JUMP JUMPDEST PUSH1 0x20 DUP3 DUP2 ADD CALLDATALOAD DUP3 MSTORE PUSH1 0x40 DUP1 DUP5 ADD CALLDATALOAD SWAP2 DUP4 ADD SWAP2 SWAP1 SWAP2 MSTORE PUSH1 0x60 DUP1 DUP5 ADD CALLDATALOAD SWAP2 DUP4 ADD SWAP2 SWAP1 SWAP2 MSTORE PUSH1 0x80 DUP4 ADD CALLDATALOAD SWAP1 DUP3 ADD MSTORE PUSH1 0x1 PUSH1 0x1 PUSH1 0x40 SHL SUB PUSH1 0xA0 DUP4 ADD CALLDATALOAD GT ISZERO PUSH2 0x82BF JUMPI PUSH0 DUP1 REVERT JUMPDEST PUSH1 0x20 PUSH1 0xA0 DUP4 ADD CALLDATALOAD DUP4 ADD ADD SWAP2 POP DUP11 PUSH1 0x1F DUP4 ADD SLT PUSH2 0x82D9 JUMPI PUSH0 DUP1 REVERT JUMPDEST PUSH2 0x82E6 PUSH2 0x77C9 DUP4 CALLDATALOAD PUSH2 0x7A09 JUMP JUMPDEST DUP3 CALLDATALOAD DUP1 DUP3 MSTORE PUSH1 0x20 DUP1 DUP4 ADD SWAP3 SWAP2 PUSH1 0x5 SHL DUP6 ADD ADD DUP14 DUP2 GT ISZERO PUSH2 0x8304 JUMPI PUSH0 DUP1 REVERT JUMPDEST PUSH1 0x20 DUP6 ADD JUMPDEST DUP2 DUP2 LT ISZERO PUSH2 0x8343 JUMPI PUSH1 0x1 PUSH1 0x1 PUSH1 0x40 SHL SUB DUP2 CALLDATALOAD GT ISZERO PUSH2 0x8325 JUMPI PUSH0 DUP1 REVERT JUMPDEST PUSH2 0x8335 DUP16 PUSH1 0x20 DUP4 CALLDATALOAD DUP10 ADD ADD PUSH2 0x77F7 JUMP JUMPDEST DUP5 MSTORE PUSH1 0x20 SWAP4 DUP5 ADD SWAP4 ADD PUSH2 0x8309 JUMP JUMPDEST POP POP PUSH1 0x80 DUP4 ADD MSTORE POP DUP5 MSTORE POP PUSH1 0x20 SWAP3 DUP4 ADD SWAP3 ADD PUSH2 0x8239 JUMP JUMPDEST POP SWAP5 POP POP POP PUSH1 0x1 PUSH1 0x1 PUSH1 0x40 SHL SUB PUSH1 0x20 DUP6 ADD CALLDATALOAD GT ISZERO PUSH2 0x8376 JUMPI PUSH0 DUP1 REVERT JUMPDEST PUSH2 0x8386 DUP6 PUSH1 0x20 DUP7 ADD CALLDATALOAD DUP7 ADD PUSH2 0x781C JUMP JUMPDEST SWAP2 POP PUSH2 0x8395 DUP6 PUSH1 0x40 DUP7 ADD PUSH2 0x817E JUMP JUMPDEST SWAP1 POP SWAP3 POP SWAP3 POP SWAP3 JUMP JUMPDEST PUSH0 DUP1 PUSH1 0x40 DUP4 DUP6 SUB SLT ISZERO PUSH2 0x83AF JUMPI PUSH0 DUP1 REVERT JUMPDEST POP POP DUP1 CALLDATALOAD SWAP3 PUSH1 0x20 SWAP1 SWAP2 ADD CALLDATALOAD SWAP2 POP JUMP JUMPDEST PUSH0 DUP2 MLOAD PUSH2 0x120 DUP5 MSTORE PUSH2 0x83D4 PUSH2 0x120 DUP6 ADD DUP3 PUSH2 0x7D1E JUMP JUMPDEST SWAP1 POP PUSH1 0x20 DUP4 ADD MLOAD DUP5 DUP3 SUB PUSH1 0x20 DUP7 ADD MSTORE PUSH2 0x83ED DUP3 DUP3 PUSH2 0x7D1E JUMP JUMPDEST SWAP2 POP POP PUSH1 0x40 DUP4 ADD MLOAD DUP5 DUP3 SUB PUSH1 0x40 DUP7 ADD MSTORE PUSH2 0x8407 DUP3 DUP3 PUSH2 0x7D1E JUMP JUMPDEST SWAP2 POP POP PUSH1 0x60 DUP4 ADD MLOAD DUP5 DUP3 SUB PUSH1 0x60 DUP7 ADD MSTORE PUSH2 0x8421 DUP3 DUP3 PUSH2 0x7D1E JUMP JUMPDEST SWAP2 POP POP PUSH1 0x80 DUP4 ADD MLOAD DUP5 DUP3 SUB PUSH1 0x80 DUP7 ADD MSTORE PUSH2 0x843B DUP3 DUP3 PUSH2 0x7D1E JUMP JUMPDEST SWAP2 POP POP PUSH1 0xA0 DUP4 ADD MLOAD DUP5 DUP3 SUB PUSH1 0xA0 DUP7 ADD MSTORE PUSH2 0x8455 DUP3 DUP3 PUSH2 0x7D1E JUMP JUMPDEST SWAP2 POP POP PUSH1 0xC0 DUP4 ADD MLOAD DUP5 DUP3 SUB PUSH1 0xC0 DUP7 ADD MSTORE PUSH2 0x846F DUP3 DUP3 PUSH2 0x7D1E JUMP JUMPDEST SWAP2 POP POP PUSH1 0xE0 DUP4 ADD MLOAD DUP5 DUP3 SUB PUSH1 0xE0 DUP7 ADD MSTORE PUSH2 0x8489 DUP3 DUP3 PUSH2 0x7D1E JUMP JUMPDEST SWAP2 POP POP PUSH2 0x100 DUP4 ADD MLOAD DUP5 DUP3 SUB PUSH2 0x100 DUP7 ADD MSTORE PUSH2 0x84A5 DUP3 DUP3 PUSH2 0x7D1E JUMP JUMPDEST SWAP6 SWAP5 POP POP POP POP POP JUMP JUMPDEST PUSH1 0x20 DUP2 MSTORE DUP2 MLOAD PUSH1 0x20 DUP3 ADD MSTORE PUSH1 0x20 DUP3 ADD MLOAD PUSH1 0x40 DUP3 ADD MSTORE PUSH1 0x1 DUP1 PUSH1 0xA0 SHL SUB PUSH1 0x40 DUP4 ADD MLOAD AND PUSH1 0x60 DUP3 ADD MSTORE PUSH0 PUSH1 0x60 DUP4 ADD MLOAD PUSH1 0x80 DUP1 DUP5 ADD MSTORE PUSH2 0x7FBE PUSH1 0xA0 DUP5 ADD DUP3 PUSH2 0x83BE JUMP JUMPDEST PUSH0 PUSH1 0x20 DUP3 DUP5 SUB SLT ISZERO PUSH2 0x84FE JUMPI PUSH0 DUP1 REVERT JUMPDEST DUP2 CALLDATALOAD PUSH1 0x1 PUSH1 0x1 PUSH1 0x40 SHL SUB DUP2 GT ISZERO PUSH2 0x8513 JUMPI PUSH0 DUP1 REVERT JUMPDEST PUSH2 0x7FBE DUP5 DUP3 DUP6 ADD PUSH2 0x7A2B JUMP JUMPDEST PUSH0 PUSH1 0x20 DUP3 DUP5 SUB SLT ISZERO PUSH2 0x852F JUMPI PUSH0 DUP1 REVERT JUMPDEST DUP2 CALLDATALOAD PUSH1 0x1 PUSH1 0x1 PUSH1 0x40 SHL SUB DUP2 GT ISZERO PUSH2 0x8544 JUMPI PUSH0 DUP1 REVERT JUMPDEST DUP3 ADD PUSH1 0x1F DUP2 ADD DUP5 SGT PUSH2 0x8554 JUMPI PUSH0 DUP1 REVERT JUMPDEST DUP1 CALLDATALOAD PUSH2 0x8562 PUSH2 0x77C9 DUP3 PUSH2 0x7A09 JUMP JUMPDEST DUP1 DUP3 DUP3 MSTORE PUSH1 0x20 DUP3 ADD SWAP2 POP PUSH1 0x20 PUSH1 0x60 DUP5 MUL DUP6 ADD ADD SWAP3 POP DUP7 DUP4 GT ISZERO PUSH2 0x8583 JUMPI PUSH0 DUP1 REVERT JUMPDEST PUSH1 0x20 DUP5 ADD SWAP4 POP JUMPDEST DUP3 DUP5 LT ISZERO PUSH2 0x85D4 JUMPI PUSH1 0x60 DUP5 DUP9 SUB SLT ISZERO PUSH2 0x85A1 JUMPI PUSH0 DUP1 REVERT JUMPDEST PUSH2 0x85A9 PUSH2 0x76FF JUMP JUMPDEST DUP5 CALLDATALOAD DUP2 MSTORE PUSH1 0x20 DUP1 DUP7 ADD CALLDATALOAD DUP2 DUP4 ADD MSTORE PUSH1 0x40 DUP1 DUP8 ADD CALLDATALOAD SWAP1 DUP4 ADD MSTORE SWAP1 DUP4 MSTORE PUSH1 0x60 SWAP1 SWAP5 ADD SWAP4 SWAP2 SWAP1 SWAP2 ADD SWAP1 PUSH2 0x858A JUMP JUMPDEST SWAP7 SWAP6 POP POP POP POP POP POP JUMP JUMPDEST PUSH1 0x20 DUP1 DUP3 MSTORE DUP3 MLOAD DUP3 DUP3 ADD DUP2 SWAP1 MSTORE PUSH0 SWAP2 DUP5 ADD SWAP1 PUSH1 0x40 DUP5 ADD SWAP1 DUP4 JUMPDEST DUP2 DUP2 LT ISZERO PUSH2 0x8620 JUMPI PUSH2 0x860A DUP4 DUP6 MLOAD PUSH2 0x7C3F JUMP JUMPDEST PUSH1 0x20 SWAP4 SWAP1 SWAP4 ADD SWAP3 PUSH1 0xA0 SWAP3 SWAP1 SWAP3 ADD SWAP2 PUSH1 0x1 ADD PUSH2 0x85F7 JUMP JUMPDEST POP SWAP1 SWAP6 SWAP5 POP POP POP POP POP JUMP JUMPDEST PUSH0 DUP1 PUSH1 0x40 DUP4 DUP6 SUB SLT ISZERO PUSH2 0x863C JUMPI PUSH0 DUP1 REVERT JUMPDEST DUP3 CALLDATALOAD PUSH1 0x1 PUSH1 0x1 PUSH1 0x40 SHL SUB DUP2 GT ISZERO PUSH2 0x8651 JUMPI PUSH0 DUP1 REVERT JUMPDEST PUSH2 0x865D DUP6 DUP3 DUP7 ADD PUSH2 0x7A90 JUMP JUMPDEST SWAP6 PUSH1 0x20 SWAP5 SWAP1 SWAP5 ADD CALLDATALOAD SWAP5 POP POP POP POP JUMP JUMPDEST PUSH1 0x20 DUP2 MSTORE PUSH0 PUSH2 0x7815 PUSH1 0x20 DUP4 ADD DUP5 PUSH2 0x7D98 JUMP JUMPDEST PUSH4 0x4E487B71 PUSH1 0xE0 SHL PUSH0 MSTORE PUSH1 0x21 PUSH1 0x4 MSTORE PUSH1 0x24 PUSH0 REVERT JUMPDEST PUSH1 0x2 DUP2 LT PUSH2 0x1A7D JUMPI PUSH4 0x4E487B71 PUSH1 0xE0 SHL PUSH0 MSTORE PUSH1 0x21 PUSH1 0x4 MSTORE PUSH1 0x24 PUSH0 REVERT JUMPDEST DUP1 MLOAD DUP3 MSTORE PUSH1 0x20 DUP2 ADD MLOAD PUSH1 0x20 DUP4 ADD MSTORE PUSH1 0x40 DUP2 ADD MLOAD PUSH2 0x86CA DUP2 PUSH2 0x8692 JUMP JUMPDEST PUSH1 0x40 DUP4 ADD MSTORE PUSH1 0x60 DUP2 ADD MLOAD PUSH2 0x86DD DUP2 PUSH2 0x8692 JUMP JUMPDEST DUP1 PUSH1 0x60 DUP5 ADD MSTORE POP POP POP JUMP JUMPDEST PUSH1 0xC0 DUP2 MSTORE PUSH0 PUSH2 0x86FA PUSH1 0xC0 DUP4 ADD DUP7 PUSH2 0x83BE JUMP JUMPDEST PUSH1 0x1 PUSH1 0x1 PUSH1 0xA0 SHL SUB DUP6 AND PUSH1 0x20 DUP5 ADD MSTORE SWAP1 POP PUSH2 0x7FBE PUSH1 0x40 DUP4 ADD DUP5 PUSH2 0x86AE JUMP JUMPDEST PUSH0 PUSH1 0xA0 DUP3 DUP5 SUB SLT DUP1 ISZERO PUSH2 0x8729 JUMPI PUSH0 DUP1 REVERT JUMPDEST POP PUSH2 0x8732 PUSH2 0x76BB JUMP JUMPDEST DUP3 CALLDATALOAD DUP2 MSTORE PUSH1 0x20 DUP1 DUP5 ADD CALLDATALOAD SWAP1 DUP3 ADD MSTORE PUSH1 0x40 DUP1 DUP5 ADD CALLDATALOAD SWAP1 DUP3 ADD MSTORE PUSH1 0x60 DUP1 DUP5 ADD CALLDATALOAD SWAP1 DUP3 ADD MSTORE PUSH1 0x80 SWAP3 DUP4 ADD CALLDATALOAD SWAP3 DUP2 ADD SWAP3 SWAP1 SWAP3 MSTORE POP SWAP2 SWAP1 POP JUMP JUMPDEST PUSH1 0x20 DUP2 MSTORE PUSH0 PUSH2 0x7815 PUSH1 0x20 DUP4 ADD DUP5 PUSH2 0x7FFD JUMP JUMPDEST DUP5 DUP2 MSTORE DUP4 PUSH1 0x20 DUP3 ADD MSTORE PUSH1 0x1 DUP1 PUSH1 0xA0 SHL SUB DUP4 AND PUSH1 0x40 DUP3 ADD MSTORE PUSH1 0x80 PUSH1 0x60 DUP3 ADD MSTORE PUSH0 PUSH2 0x85D4 PUSH1 0x80 DUP4 ADD DUP5 PUSH2 0x83BE JUMP JUMPDEST PUSH1 0x20 DUP2 MSTORE PUSH0 PUSH2 0x100 DUP3 ADD DUP4 MLOAD PUSH1 0xE0 PUSH1 0x20 DUP6 ADD MSTORE DUP2 DUP2 MLOAD DUP1 DUP5 MSTORE PUSH2 0x120 DUP7 ADD SWAP2 POP PUSH2 0x120 DUP2 PUSH1 0x5 SHL DUP8 ADD ADD SWAP4 POP PUSH1 0x20 DUP4 ADD SWAP3 POP PUSH0 JUMPDEST DUP2 DUP2 LT ISZERO PUSH2 0x888C JUMPI PUSH2 0x11F NOT DUP8 DUP7 SUB ADD DUP4 MSTORE DUP4 MLOAD PUSH1 0xA0 DUP7 ADD DUP2 MLOAD DUP8 MSTORE PUSH1 0x20 DUP3 ADD MLOAD PUSH1 0x20 DUP9 ADD MSTORE PUSH1 0x40 DUP3 ADD MLOAD PUSH1 0x40 DUP9 ADD MSTORE PUSH1 0x60 DUP3 ADD MLOAD PUSH1 0x60 DUP9 ADD MSTORE PUSH1 0x80 DUP3 ADD MLOAD SWAP2 POP PUSH1 0xA0 PUSH1 0x80 DUP9 ADD MSTORE DUP1 DUP3 MLOAD DUP1 DUP4 MSTORE PUSH1 0xC0 DUP10 ADD SWAP2 POP PUSH1 0xC0 DUP2 PUSH1 0x5 SHL DUP11 ADD ADD SWAP3 POP PUSH1 0x20 DUP5 ADD SWAP4 POP PUSH0 JUMPDEST DUP2 DUP2 LT ISZERO PUSH2 0x8872 JUMPI PUSH1 0xBF NOT DUP11 DUP6 SUB ADD DUP4 MSTORE PUSH2 0x885C DUP5 DUP7 MLOAD PUSH2 0x7D1E JUMP JUMPDEST PUSH1 0x20 SWAP6 DUP7 ADD SWAP6 SWAP1 SWAP5 POP SWAP3 SWAP1 SWAP3 ADD SWAP2 PUSH1 0x1 ADD PUSH2 0x8840 JUMP JUMPDEST POP SWAP2 SWAP8 POP POP POP PUSH1 0x20 SWAP5 DUP6 ADD SWAP5 SWAP4 SWAP1 SWAP4 ADD SWAP3 POP PUSH1 0x1 ADD PUSH2 0x87D9 JUMP JUMPDEST POP POP POP POP PUSH1 0x20 DUP5 ADD MLOAD DUP4 DUP3 SUB PUSH1 0x1F NOT ADD PUSH1 0x40 DUP6 ADD MSTORE PUSH2 0x88AB DUP3 DUP3 PUSH2 0x83BE JUMP JUMPDEST SWAP2 POP POP PUSH1 0x40 DUP5 ADD MLOAD PUSH2 0x88C0 PUSH1 0x60 DUP6 ADD DUP3 PUSH2 0x7633 JUMP JUMPDEST POP PUSH1 0x60 DUP5 ADD MLOAD PUSH2 0x6394 PUSH1 0x80 DUP6 ADD DUP3 PUSH2 0x86AE JUMP JUMPDEST PUSH0 PUSH1 0x20 DUP3 DUP5 SUB SLT ISZERO PUSH2 0x88E3 JUMPI PUSH0 DUP1 REVERT JUMPDEST DUP2 CALLDATALOAD PUSH1 0x1 PUSH1 0x1 PUSH1 0x40 SHL SUB DUP2 GT ISZERO PUSH2 0x88F8 JUMPI PUSH0 DUP1 REVERT JUMPDEST DUP3 ADD PUSH1 0x1F DUP2 ADD DUP5 SGT PUSH2 0x8908 JUMPI PUSH0 DUP1 REVERT JUMPDEST DUP1 CALLDATALOAD PUSH2 0x8916 PUSH2 0x77C9 DUP3 PUSH2 0x7A09 JUMP JUMPDEST DUP1 DUP3 DUP3 MSTORE PUSH1 0x20 DUP3 ADD SWAP2 POP PUSH1 0x20 DUP4 PUSH1 0x6 SHL DUP6 ADD ADD SWAP3 POP DUP7 DUP4 GT ISZERO PUSH2 0x8937 JUMPI PUSH0 DUP1 REVERT JUMPDEST PUSH1 0x20 DUP5 ADD SWAP4 POP JUMPDEST DUP3 DUP5 LT ISZERO PUSH2 0x85D4 JUMPI PUSH1 0x40 DUP5 DUP9 SUB SLT ISZERO PUSH2 0x8955 JUMPI PUSH0 DUP1 REVERT JUMPDEST PUSH2 0x895D PUSH2 0x7721 JUMP JUMPDEST DUP5 CALLDATALOAD DUP2 MSTORE PUSH1 0x20 DUP1 DUP7 ADD CALLDATALOAD DUP2 DUP4 ADD MSTORE SWAP1 DUP4 MSTORE PUSH1 0x40 SWAP1 SWAP5 ADD SWAP4 SWAP2 SWAP1 SWAP2 ADD SWAP1 PUSH2 0x893E JUMP JUMPDEST PUSH4 0x4E487B71 PUSH1 0xE0 SHL PUSH0 MSTORE PUSH1 0x11 PUSH1 0x4 MSTORE PUSH1 0x24 PUSH0 REVERT JUMPDEST PUSH0 PUSH1 0x1 DUP3 ADD PUSH2 0x89A3 JUMPI PUSH2 0x89A3 PUSH2 0x897E JUMP JUMPDEST POP PUSH1 0x1 ADD SWAP1 JUMP JUMPDEST PUSH1 0x1 DUP2 DUP2 SHR SWAP1 DUP3 AND DUP1 PUSH2 0x89BE JUMPI PUSH1 0x7F DUP3 AND SWAP2 POP JUMPDEST PUSH1 0x20 DUP3 LT DUP2 SUB PUSH2 0x119D JUMPI PUSH4 0x4E487B71 PUSH1 0xE0 SHL PUSH0 MSTORE PUSH1 0x22 PUSH1 0x4 MSTORE PUSH1 0x24 PUSH0 REVERT JUMPDEST PUSH1 0x1F DUP3 GT ISZERO PUSH2 0x8A23 JUMPI DUP1 PUSH0 MSTORE PUSH1 0x20 PUSH0 KECCAK256 PUSH1 0x1F DUP5 ADD PUSH1 0x5 SHR DUP2 ADD PUSH1 0x20 DUP6 LT ISZERO PUSH2 0x8A01 JUMPI POP DUP1 JUMPDEST PUSH1 0x1F DUP5 ADD PUSH1 0x5 SHR DUP3 ADD SWAP2 POP JUMPDEST DUP2 DUP2 LT ISZERO PUSH2 0x8A20 JUMPI PUSH0 DUP2 SSTORE PUSH1 0x1 ADD PUSH2 0x8A0D JUMP JUMPDEST POP POP JUMPDEST POP POP POP JUMP JUMPDEST DUP2 MLOAD PUSH1 0x1 PUSH1 0x1 PUSH1 0x40 SHL SUB DUP2 GT ISZERO PUSH2 0x8A41 JUMPI PUSH2 0x8A41 PUSH2 0x767E JUMP JUMPDEST PUSH2 0x8A55 DUP2 PUSH2 0x8A4F DUP5 SLOAD PUSH2 0x89AA JUMP JUMPDEST DUP5 PUSH2 0x89DC JUMP JUMPDEST PUSH1 0x20 PUSH1 0x1F DUP3 GT PUSH1 0x1 DUP2 EQ PUSH2 0x8A87 JUMPI PUSH0 DUP4 ISZERO PUSH2 0x8A70 JUMPI POP DUP5 DUP3 ADD MLOAD JUMPDEST PUSH0 NOT PUSH1 0x3 DUP6 SWAP1 SHL SHR NOT AND PUSH1 0x1 DUP5 SWAP1 SHL OR DUP5 SSTORE PUSH2 0x8A20 JUMP JUMPDEST PUSH0 DUP5 DUP2 MSTORE PUSH1 0x20 DUP2 KECCAK256 PUSH1 0x1F NOT DUP6 AND SWAP2 JUMPDEST DUP3 DUP2 LT ISZERO PUSH2 0x8AB6 JUMPI DUP8 DUP6 ADD MLOAD DUP3 SSTORE PUSH1 0x20 SWAP5 DUP6 ADD SWAP5 PUSH1 0x1 SWAP1 SWAP3 ADD SWAP2 ADD PUSH2 0x8A96 JUMP JUMPDEST POP DUP5 DUP3 LT ISZERO PUSH2 0x8AD3 JUMPI DUP7 DUP5 ADD MLOAD PUSH0 NOT PUSH1 0x3 DUP8 SWAP1 SHL PUSH1 0xF8 AND SHR NOT AND DUP2 SSTORE JUMPDEST POP POP POP POP PUSH1 0x1 SWAP1 DUP2 SHL ADD SWAP1 SSTORE POP JUMP JUMPDEST DUP13 DUP2 MSTORE DUP12 PUSH1 0x20 DUP3 ADD MSTORE PUSH2 0x8AF8 PUSH1 0x40 DUP3 ADD DUP13 PUSH2 0x7633 JUMP JUMPDEST PUSH2 0x180 PUSH1 0x60 DUP3 ADD MSTORE PUSH0 PUSH2 0x8B0F PUSH2 0x180 DUP4 ADD DUP13 PUSH2 0x7D1E JUMP JUMPDEST DUP3 DUP2 SUB PUSH1 0x80 DUP5 ADD MSTORE PUSH2 0x8B21 DUP2 DUP13 PUSH2 0x7D1E JUMP JUMPDEST SWAP1 POP DUP3 DUP2 SUB PUSH1 0xA0 DUP5 ADD MSTORE PUSH2 0x8B35 DUP2 DUP12 PUSH2 0x7D1E JUMP JUMPDEST SWAP1 POP DUP3 DUP2 SUB PUSH1 0xC0 DUP5 ADD MSTORE PUSH2 0x8B49 DUP2 DUP11 PUSH2 0x7D1E JUMP JUMPDEST SWAP1 POP DUP3 DUP2 SUB PUSH1 0xE0 DUP5 ADD MSTORE PUSH2 0x8B5D DUP2 DUP10 PUSH2 0x7D1E JUMP JUMPDEST SWAP1 POP DUP3 DUP2 SUB PUSH2 0x100 DUP5 ADD MSTORE PUSH2 0x8B72 DUP2 DUP9 PUSH2 0x7D1E JUMP JUMPDEST SWAP1 POP DUP3 DUP2 SUB PUSH2 0x120 DUP5 ADD MSTORE PUSH2 0x8B87 DUP2 DUP8 PUSH2 0x7D1E JUMP JUMPDEST SWAP1 POP DUP3 DUP2 SUB PUSH2 0x140 DUP5 ADD MSTORE PUSH2 0x8B9C DUP2 DUP7 PUSH2 0x7D1E JUMP JUMPDEST SWAP1 POP DUP3 DUP2 SUB PUSH2 0x160 DUP5 ADD MSTORE PUSH2 0x8BB1 DUP2 DUP6 PUSH2 0x7D1E JUMP JUMPDEST SWAP16 SWAP15 POP POP POP POP POP POP POP POP POP POP POP POP POP POP POP JUMP JUMPDEST PUSH1 0x20 DUP1 DUP3 MSTORE PUSH1 0x58 SWAP1 DUP3 ADD MSTORE PUSH0 DUP1 MLOAD PUSH1 0x20 PUSH2 0x9595 DUP4 CODECOPY DUP2 MLOAD SWAP2 MSTORE PUSH1 0x40 DUP3 ADD MSTORE PUSH32 0x223A20313030322C20226D657373616765223A22596F7520617265206E6F7420 PUSH1 0x60 DUP3 ADD MSTORE PUSH24 0x6F776E6572206F66207468652073686172656C696E6B227D PUSH1 0x40 SHL PUSH1 0x80 DUP3 ADD MSTORE PUSH1 0xA0 ADD SWAP1 JUMP JUMPDEST PUSH4 0x4E487B71 PUSH1 0xE0 SHL PUSH0 MSTORE PUSH1 0x32 PUSH1 0x4 MSTORE PUSH1 0x24 PUSH0 REVERT JUMPDEST PUSH0 DUP2 MLOAD DUP1 PUSH1 0x20 DUP5 ADD DUP6 MCOPY PUSH0 SWAP4 ADD SWAP3 DUP4 MSTORE POP SWAP1 SWAP2 SWAP1 POP JUMP JUMPDEST PUSH25 0x1EC8999C9BDB488E88089158DBDB53DC99195C8B9CDBDB088B PUSH1 0x3A SHL DUP2 MSTORE PUSH8 0x1131B7B232911D1 PUSH1 0xC5 SHL PUSH1 0x19 DUP3 ADD MSTORE PUSH0 PUSH2 0x8C98 PUSH1 0x21 DUP4 ADD DUP6 PUSH2 0x8C43 JUMP JUMPDEST PUSH2 0x161 PUSH1 0xF5 SHL DUP2 MSTORE PUSH12 0x1136B2B9B9B0B3B2911D1011 PUSH1 0xA1 SHL PUSH1 0x2 DUP3 ADD MSTORE PUSH2 0x8CC2 PUSH1 0xE DUP3 ADD DUP6 PUSH2 0x8C43 JUMP JUMPDEST PUSH2 0x227D PUSH1 0xF0 SHL DUP2 MSTORE PUSH1 0x2 ADD SWAP6 SWAP5 POP POP POP POP POP JUMP JUMPDEST PUSH0 PUSH1 0x20 DUP3 DUP5 SUB SLT ISZERO PUSH2 0x8CE6 JUMPI PUSH0 DUP1 REVERT JUMPDEST POP MLOAD SWAP2 SWAP1 POP JUMP JUMPDEST PUSH0 PUSH2 0x8CFA PUSH2 0x77C9 DUP5 PUSH2 0x7796 JUMP JUMPDEST SWAP1 POP DUP3 DUP2 MSTORE DUP4 DUP4 DUP4 ADD GT ISZERO PUSH2 0x8D0D JUMPI PUSH0 DUP1 REVERT JUMPDEST DUP3 DUP3 PUSH1 0x20 DUP4 ADD MCOPY PUSH0 PUSH1 0x20 DUP5 DUP4 ADD ADD MSTORE SWAP4 SWAP3 POP POP POP JUMP JUMPDEST PUSH0 DUP3 PUSH1 0x1F DUP4 ADD SLT PUSH2 0x8D32 JUMPI PUSH0 DUP1 REVERT JUMPDEST PUSH2 0x7815 DUP4 DUP4 MLOAD PUSH1 0x20 DUP6 ADD PUSH2 0x8CED JUMP JUMPDEST PUSH0 DUP3 PUSH1 0x1F DUP4 ADD SLT PUSH2 0x8D50 JUMPI PUSH0 DUP1 REVERT JUMPDEST DUP2 MLOAD PUSH2 0x8D5E PUSH2 0x77C9 DUP3 PUSH2 0x7A09 JUMP JUMPDEST DUP1 DUP3 DUP3 MSTORE PUSH1 0x20 DUP3 ADD SWAP2 POP PUSH1 0x20 DUP4 PUSH1 0x5 SHL DUP7 ADD ADD SWAP3 POP DUP6 DUP4 GT ISZERO PUSH2 0x8D7F JUMPI PUSH0 DUP1 REVERT JUMPDEST PUSH1 0x20 DUP6 ADD JUMPDEST DUP4 DUP2 LT ISZERO PUSH2 0x7A86 JUMPI DUP1 MLOAD DUP4 MSTORE PUSH1 0x20 SWAP3 DUP4 ADD SWAP3 ADD PUSH2 0x8D84 JUMP JUMPDEST PUSH0 DUP3 PUSH1 0x1F DUP4 ADD SLT PUSH2 0x8DAB JUMPI PUSH0 DUP1 REVERT JUMPDEST DUP2 MLOAD PUSH2 0x8DB9 PUSH2 0x77C9 DUP3 PUSH2 0x7A09 JUMP JUMPDEST DUP1 DUP3 DUP3 MSTORE PUSH1 0x20 DUP3 ADD SWAP2 POP PUSH1 0x20 DUP4 PUSH1 0x5 SHL DUP7 ADD ADD SWAP3 POP DUP6 DUP4 GT ISZERO PUSH2 0x8DDA JUMPI PUSH0 DUP1 REVERT JUMPDEST PUSH1 0x20 DUP6 ADD JUMPDEST DUP4 DUP2 LT ISZERO PUSH2 0x7A86 JUMPI DUP1 MLOAD PUSH1 0x1 PUSH1 0x1 PUSH1 0x40 SHL SUB DUP2 GT ISZERO PUSH2 0x8DFC JUMPI PUSH0 DUP1 REVERT JUMPDEST DUP7 ADD PUSH1 0x3F DUP2 ADD DUP9 SGT PUSH2 0x8E0C JUMPI PUSH0 DUP1 REVERT JUMPDEST PUSH2 0x8E1E DUP9 PUSH1 0x20 DUP4 ADD MLOAD PUSH1 0x40 DUP5 ADD PUSH2 0x8CED JUMP JUMPDEST DUP5 MSTORE POP PUSH1 0x20 SWAP3 DUP4 ADD SWAP3 ADD PUSH2 0x8DDF JUMP JUMPDEST DUP1 MLOAD PUSH2 0x8E38 DUP2 PUSH2 0x7640 JUMP JUMPDEST SWAP2 SWAP1 POP JUMP JUMPDEST DUP1 MLOAD DUP1 ISZERO ISZERO DUP2 EQ PUSH2 0x8E38 JUMPI PUSH0 DUP1 REVERT JUMPDEST PUSH0 PUSH1 0x20 DUP3 DUP5 SUB SLT ISZERO PUSH2 0x8E5C JUMPI PUSH0 DUP1 REVERT JUMPDEST DUP2 MLOAD PUSH1 0x1 PUSH1 0x1 PUSH1 0x40 SHL SUB DUP2 GT ISZERO PUSH2 0x8E71 JUMPI PUSH0 DUP1 REVERT JUMPDEST DUP3 ADD PUSH1 0x80 DUP2 DUP6 SUB SLT ISZERO PUSH2 0x8E82 JUMPI PUSH0 DUP1 REVERT JUMPDEST PUSH2 0x8E8A PUSH2 0x76DD JUMP JUMPDEST DUP2 MLOAD DUP2 MSTORE PUSH1 0x20 DUP3 ADD MLOAD PUSH1 0x1 PUSH1 0x1 PUSH1 0x40 SHL SUB DUP2 GT ISZERO PUSH2 0x8EA6 JUMPI PUSH0 DUP1 REVERT JUMPDEST DUP3 ADD PUSH2 0x300 DUP2 DUP8 SUB SLT ISZERO PUSH2 0x8EB8 JUMPI PUSH0 DUP1 REVERT JUMPDEST PUSH2 0x8EC0 PUSH2 0x7743 JUMP JUMPDEST DUP2 MLOAD PUSH1 0x1 PUSH1 0x1 PUSH1 0x40 SHL SUB DUP2 GT ISZERO PUSH2 0x8ED5 JUMPI PUSH0 DUP1 REVERT JUMPDEST PUSH2 0x8EE1 DUP9 DUP3 DUP6 ADD PUSH2 0x8D23 JUMP JUMPDEST DUP3 MSTORE POP PUSH1 0x20 DUP3 DUP2 ADD MLOAD SWAP1 DUP3 ADD MSTORE PUSH1 0x40 DUP3 ADD MLOAD PUSH1 0x1 PUSH1 0x1 PUSH1 0x40 SHL SUB DUP2 GT ISZERO PUSH2 0x8F06 JUMPI PUSH0 DUP1 REVERT JUMPDEST PUSH2 0x8F12 DUP9 DUP3 DUP6 ADD PUSH2 0x8D23 JUMP JUMPDEST PUSH1 0x40 DUP4 ADD MSTORE POP PUSH1 0x60 DUP3 DUP2 ADD MLOAD SWAP1 DUP3 ADD MSTORE PUSH1 0x80 DUP1 DUP4 ADD MLOAD SWAP1 DUP3 ADD MSTORE PUSH1 0xA0 DUP1 DUP4 ADD MLOAD SWAP1 DUP3 ADD MSTORE PUSH1 0xC0 DUP1 DUP4 ADD MLOAD SWAP1 DUP3 ADD MSTORE PUSH1 0xE0 DUP3 ADD MLOAD PUSH1 0x1 PUSH1 0x1 PUSH1 0x40 SHL SUB DUP2 GT ISZERO PUSH2 0x8F58 JUMPI PUSH0 DUP1 REVERT JUMPDEST PUSH2 0x8F64 DUP9 DUP3 DUP6 ADD PUSH2 0x8D41 JUMP JUMPDEST PUSH1 0xE0 DUP4 ADD MSTORE POP PUSH2 0x100 DUP3 ADD MLOAD PUSH1 0x1 PUSH1 0x1 PUSH1 0x40 SHL SUB DUP2 GT ISZERO PUSH2 0x8F83 JUMPI PUSH0 DUP1 REVERT JUMPDEST PUSH2 0x8F8F DUP9 DUP3 DUP6 ADD PUSH2 0x8D9C JUMP JUMPDEST PUSH2 0x100 DUP4 ADD MSTORE POP PUSH2 0x120 DUP3 DUP2 ADD MLOAD SWAP1 DUP3 ADD MSTORE PUSH2 0x140 DUP1 DUP4 ADD MLOAD SWAP1 DUP3 ADD MSTORE PUSH2 0x160 DUP3 ADD MLOAD PUSH1 0x1 PUSH1 0x1 PUSH1 0x40 SHL SUB DUP2 GT ISZERO PUSH2 0x8FC5 JUMPI PUSH0 DUP1 REVERT JUMPDEST PUSH2 0x8FD1 DUP9 DUP3 DUP6 ADD PUSH2 0x8D9C JUMP JUMPDEST PUSH2 0x160 DUP4 ADD MSTORE POP PUSH2 0x8FE5 PUSH2 0x180 DUP4 ADD PUSH2 0x8E2D JUMP JUMPDEST PUSH2 0x180 DUP3 ADD MSTORE PUSH2 0x1A0 DUP3 ADD MLOAD PUSH1 0x1 PUSH1 0x1 PUSH1 0x40 SHL SUB DUP2 GT ISZERO PUSH2 0x9004 JUMPI PUSH0 DUP1 REVERT JUMPDEST PUSH2 0x9010 DUP9 DUP3 DUP6 ADD PUSH2 0x8D23 JUMP JUMPDEST PUSH2 0x1A0 DUP4 ADD MSTORE POP PUSH2 0x1C0 DUP3 ADD MLOAD PUSH1 0x1 PUSH1 0x1 PUSH1 0x40 SHL SUB DUP2 GT ISZERO PUSH2 0x9030 JUMPI PUSH0 DUP1 REVERT JUMPDEST PUSH2 0x903C DUP9 DUP3 DUP6 ADD PUSH2 0x8D23 JUMP JUMPDEST PUSH2 0x1C0 DUP4 ADD MSTORE POP PUSH2 0x9050 PUSH2 0x1E0 DUP4 ADD PUSH2 0x8E3D JUMP JUMPDEST PUSH2 0x1E0 DUP3 ADD MSTORE PUSH2 0x200 DUP3 ADD MLOAD PUSH1 0x1 PUSH1 0x1 PUSH1 0x40 SHL SUB DUP2 GT ISZERO PUSH2 0x906F JUMPI PUSH0 DUP1 REVERT JUMPDEST PUSH2 0x907B DUP9 DUP3 DUP6 ADD PUSH2 0x8D9C JUMP JUMPDEST PUSH2 0x200 DUP4 ADD MSTORE POP PUSH2 0x220 DUP3 ADD MLOAD PUSH1 0x1 PUSH1 0x1 PUSH1 0x40 SHL SUB DUP2 GT ISZERO PUSH2 0x909B JUMPI PUSH0 DUP1 REVERT JUMPDEST PUSH2 0x90A7 DUP9 DUP3 DUP6 ADD PUSH2 0x8D23 JUMP JUMPDEST PUSH2 0x220 DUP4 ADD MSTORE POP PUSH2 0x240 DUP3 DUP2 ADD MLOAD SWAP1 DUP3 ADD MSTORE PUSH2 0x260 DUP1 DUP4 ADD MLOAD SWAP1 DUP3 ADD MSTORE PUSH2 0x280 DUP1 DUP4 ADD MLOAD SWAP1 DUP3 ADD MSTORE PUSH2 0x90DC PUSH2 0x2A0 DUP4 ADD PUSH2 0x8E3D JUMP JUMPDEST PUSH2 0x2A0 DUP3 ADD MSTORE PUSH2 0x90EF PUSH2 0x2C0 DUP4 ADD PUSH2 0x8E3D JUMP JUMPDEST PUSH2 0x2C0 DUP3 ADD MSTORE PUSH2 0x2E0 SWAP2 DUP3 ADD MLOAD SWAP2 DUP2 ADD SWAP2 SWAP1 SWAP2 MSTORE PUSH1 0x20 DUP3 ADD MSTORE PUSH1 0x40 DUP3 DUP2 ADD MLOAD SWAP1 DUP3 ADD MSTORE PUSH1 0x60 SWAP2 DUP3 ADD MLOAD SWAP2 DUP2 ADD SWAP2 SWAP1 SWAP2 MSTORE SWAP4 SWAP3 POP POP POP JUMP JUMPDEST SWAP2 DUP3 MSTORE PUSH1 0x20 DUP3 ADD MSTORE PUSH1 0x40 ADD SWAP1 JUMP JUMPDEST PUSH0 DUP2 DUP4 SUB PUSH1 0xC0 DUP2 SLT DUP1 ISZERO PUSH2 0x9146 JUMPI PUSH0 DUP1 REVERT JUMPDEST POP PUSH2 0x914F PUSH2 0x7721 JUMP JUMPDEST DUP4 MLOAD DUP2 MSTORE PUSH1 0xA0 PUSH1 0x1F NOT DUP4 ADD SLT ISZERO PUSH2 0x9164 JUMPI PUSH0 DUP1 REVERT JUMPDEST PUSH2 0x916C PUSH2 0x76BB JUMP JUMPDEST PUSH1 0x20 DUP6 DUP2 ADD MLOAD DUP3 MSTORE PUSH1 0x40 DUP1 DUP8 ADD MLOAD DUP3 DUP5 ADD MSTORE PUSH1 0x60 DUP1 DUP9 ADD MLOAD SWAP2 DUP5 ADD SWAP2 SWAP1 SWAP2 MSTORE PUSH1 0x80 DUP1 DUP9 ADD MLOAD SWAP2 DUP5 ADD SWAP2 SWAP1 SWAP2 MSTORE PUSH1 0xA0 SWAP1 SWAP7 ADD MLOAD SWAP6 DUP3 ADD SWAP6 SWAP1 SWAP6 MSTORE SWAP4 DUP2 ADD SWAP4 SWAP1 SWAP4 MSTORE POP SWAP1 SWAP3 SWAP2 POP POP JUMP JUMPDEST PUSH1 0x1 PUSH1 0x1 PUSH1 0xA0 SHL SUB DUP8 DUP2 AND DUP3 MSTORE PUSH1 0x20 DUP3 ADD DUP8 SWAP1 MSTORE PUSH1 0x40 DUP3 ADD DUP7 SWAP1 MSTORE DUP5 AND PUSH1 0x60 DUP3 ADD MSTORE PUSH1 0xC0 DUP2 ADD PUSH2 0x91E3 DUP5 PUSH2 0x8692 JUMP JUMPDEST DUP4 PUSH1 0x80 DUP4 ADD MSTORE DUP3 ISZERO ISZERO PUSH1 0xA0 DUP4 ADD MSTORE SWAP8 SWAP7 POP POP POP POP POP POP POP JUMP JUMPDEST PUSH1 0x20 DUP1 DUP3 MSTORE PUSH1 0x47 SWAP1 DUP3 ADD MSTORE PUSH0 DUP1 MLOAD PUSH1 0x20 PUSH2 0x94A0 DUP4 CODECOPY DUP2 MLOAD SWAP2 MSTORE PUSH1 0x40 DUP3 ADD MSTORE PUSH32 0x2035352C20226D657373616765223A2022596F7520617265206E6F7420616C6C PUSH1 0x60 DUP3 ADD MSTORE PUSH7 0x6F7765642E227D PUSH1 0xC8 SHL PUSH1 0x80 DUP3 ADD MSTORE PUSH1 0xA0 ADD SWAP1 JUMP JUMPDEST PUSH0 PUSH1 0x20 DUP3 DUP5 SUB SLT ISZERO PUSH2 0x9266 JUMPI PUSH0 DUP1 REVERT JUMPDEST DUP2 MLOAD PUSH2 0x7815 DUP2 PUSH2 0x7640 JUMP JUMPDEST DUP2 DUP2 SUB DUP2 DUP2 GT ISZERO PUSH2 0xDA3 JUMPI PUSH2 0xDA3 PUSH2 0x897E JUMP JUMPDEST PUSH4 0x4E487B71 PUSH1 0xE0 SHL PUSH0 MSTORE PUSH1 0x31 PUSH1 0x4 MSTORE PUSH1 0x24 PUSH0 REVERT JUMPDEST PUSH1 0x60 DUP2 MSTORE PUSH0 PUSH2 0x92AA PUSH1 0x60 DUP4 ADD DUP6 PUSH2 0x7D1E JUMP JUMPDEST SWAP1 POP DUP3 MLOAD PUSH1 0x20 DUP4 ADD MSTORE PUSH1 0x20 DUP4 ADD MLOAD PUSH1 0x40 DUP4 ADD MSTORE SWAP4 SWAP3 POP POP POP JUMP JUMPDEST PUSH0 PUSH1 0xFF DUP3 AND PUSH1 0xFF DUP2 SUB PUSH2 0x92D9 JUMPI PUSH2 0x92D9 PUSH2 0x897E JUMP JUMPDEST PUSH1 0x1 ADD SWAP3 SWAP2 POP POP JUMP JUMPDEST PUSH1 0x20 DUP1 DUP3 MSTORE DUP3 MLOAD DUP3 DUP3 ADD DUP2 SWAP1 MSTORE PUSH0 SWAP2 DUP5 ADD SWAP1 PUSH1 0x40 DUP5 ADD SWAP1 DUP4 JUMPDEST DUP2 DUP2 LT ISZERO PUSH2 0x8620 JUMPI DUP4 MLOAD DUP4 MSTORE PUSH1 0x20 SWAP4 DUP5 ADD SWAP4 SWAP1 SWAP3 ADD SWAP2 PUSH1 0x1 ADD PUSH2 0x92FB JUMP JUMPDEST PUSH0 PUSH1 0x20 DUP3 DUP5 SUB SLT ISZERO PUSH2 0x9329 JUMPI PUSH0 DUP1 REVERT JUMPDEST DUP2 MLOAD PUSH1 0x1 PUSH1 0x1 PUSH1 0x40 SHL SUB DUP2 GT ISZERO PUSH2 0x933E JUMPI PUSH0 DUP1 REVERT JUMPDEST DUP3 ADD PUSH1 0x1F DUP2 ADD DUP5 SGT PUSH2 0x934E JUMPI PUSH0 DUP1 REVERT JUMPDEST DUP1 MLOAD PUSH2 0x935C PUSH2 0x77C9 DUP3 PUSH2 0x7A09 JUMP JUMPDEST DUP1 DUP3 DUP3 MSTORE PUSH1 0x20 DUP3 ADD SWAP2 POP PUSH1 0x20 DUP4 PUSH1 0x5 SHL DUP6 ADD ADD SWAP3 POP DUP7 DUP4 GT ISZERO PUSH2 0x937D JUMPI PUSH0 DUP1 REVERT JUMPDEST PUSH1 0x20 DUP5 ADD SWAP4 POP JUMPDEST DUP3 DUP5 LT ISZERO PUSH2 0x85D4 JUMPI DUP4 MLOAD PUSH2 0x9397 DUP2 PUSH2 0x7640 JUMP JUMPDEST DUP3 MSTORE PUSH1 0x20 SWAP4 DUP5 ADD SWAP4 SWAP1 SWAP2 ADD SWAP1 PUSH2 0x9384 JUMP JUMPDEST DUP4 DUP2 MSTORE PUSH1 0x1 PUSH1 0x1 PUSH1 0xA0 SHL SUB DUP4 AND PUSH1 0x20 DUP1 DUP4 ADD SWAP2 SWAP1 SWAP2 MSTORE PUSH1 0x60 PUSH1 0x40 DUP4 ADD DUP2 SWAP1 MSTORE DUP4 MLOAD SWAP1 DUP4 ADD DUP2 SWAP1 MSTORE PUSH0 SWAP2 DUP5 ADD SWAP1 PUSH1 0x80 DUP5 ADD SWAP1 DUP4 JUMPDEST DUP2 DUP2 LT ISZERO PUSH2 0x9402 JUMPI DUP4 MLOAD PUSH1 0x1 PUSH1 0x1 PUSH1 0xA0 SHL SUB AND DUP4 MSTORE PUSH1 0x20 SWAP4 DUP5 ADD SWAP4 SWAP1 SWAP3 ADD SWAP2 PUSH1 0x1 ADD PUSH2 0x93DB JUMP JUMPDEST POP SWAP1 SWAP8 SWAP7 POP POP POP POP POP POP POP JUMP JUMPDEST DUP1 DUP3 ADD DUP1 DUP3 GT ISZERO PUSH2 0xDA3 JUMPI PUSH2 0xDA3 PUSH2 0x897E JUMP JUMPDEST PUSH1 0x1 PUSH1 0x1 PUSH1 0xA0 SHL SUB SWAP5 DUP6 AND DUP2 MSTORE PUSH1 0x20 DUP2 ADD SWAP4 SWAP1 SWAP4 MSTORE SWAP3 AND PUSH1 0x40 DUP3 ADD MSTORE SWAP1 ISZERO ISZERO PUSH1 0x60 DUP3 ADD MSTORE PUSH1 0x80 ADD SWAP1 JUMP JUMPDEST PUSH0 PUSH1 0x20 DUP3 DUP5 SUB SLT ISZERO PUSH2 0x945C JUMPI PUSH0 DUP1 REVERT JUMPDEST PUSH2 0x7815 DUP3 PUSH2 0x8E3D JUMP JUMPDEST DUP1 DUP3 MUL DUP2 ISZERO DUP3 DUP3 DIV DUP5 EQ OR PUSH2 0xDA3 JUMPI PUSH2 0xDA3 PUSH2 0x897E JUMP INVALID SLOAD PUSH9 0x69732070726F647563 PUSH21 0x20686173206E6F74206265656E20617070726F7665 PUSH5 0x2E7B226672 PUSH16 0x6D223A202245636F6D4F726465722E73 PUSH16 0x6C222C22636F6465223A496E76616C69 PUSH5 0x207061796D PUSH6 0x6E7420747970 PUSH6 0x2C207061796D PUSH6 0x6E7420747970 PUSH6 0x2073686F756C PUSH5 0x206D65206D PUSH6 0x74616E6F6465 MSTORE PUSH6 0x717565737465 PUSH5 0x207175616E PUSH21 0x697479206578636565647320617661696C61626C65 KECCAK256 PUSH20 0x746F636B50726F6475637420616E642076617269 PUSH2 0x6E74 KECCAK256 PUSH2 0x6C72 PUSH6 0x616479206578 PUSH10 0x73747320696E20636172 PUSH21 0x223A20313030332C20226D657373616765223A2249 PUSH15 0x76616C69642073686172496E737566 PUSH7 0x696369656E7420 PUSH18 0x75616E7469747920617661696C61626C6520 PUSH7 0x6F722070757263 PUSH9 0x6173657B2266726F6D 0x22 GASPRICE KECCAK256 0x22 GASLIMIT PUSH4 0x6F6D5072 PUSH16 0x647563742E736F6C222C22636F6465A2 PUSH5 0x6970667358 0x22 SLT KECCAK256 0xAF 0xEA LT SWAP11 0xB3 DUP7 0xE2 0xCF PUSH32 0xF388FC74409D0CE4006DC2B3818898985D769F813E2F2164736F6C634300081A STOP CALLER "
		},
		"gasEstimates": {
			"creation": {
				"codeDepositCost": "7675600",
				"executionCost": "34272",
				"totalCost": "7709872"
			},
			"external": {
				"CheckCallData(bytes)": "infinite",
				"ConfirmPaymentForOrderCode(bytes32)": "infinite",
				"EcomInfo()": "3064",
				"EcomProduct()": "2954",
				"EcomUser()": "2624",
				"ExecuteOrder((uint256,uint256,bytes32,uint256,string[])[],(string,string,string,string,string,string,string,string,string),(uint256,bytes32,uint8,uint8))": "infinite",
				"GetOrderInfo(uint256)": "infinite",
				"GetOrderInfoFromOrderCode(bytes32)": "infinite",
				"MasterPool()": "3460",
				"POS()": "3394",
				"SetEcomInfo(address)": "infinite",
				"SetEcomProduct(address)": "infinite",
				"SetEcomUser(address)": "infinite",
				"SetMasterPool(address)": "infinite",
				"SetPos(address)": "infinite",
				"SetTreeCom(address)": "infinite",
				"SetUsdt(address)": "infinite",
				"TreeCom()": "3350",
				"USDT()": "3130",
				"addItemToCart(uint256,bytes32,uint256)": "infinite",
				"addItemsToCart((uint256,bytes32,uint256)[])": "infinite",
				"createCart((uint256,uint256,uint256,bytes32,uint256))": "209037",
				"createShareLink((uint256[],uint256[],bytes32[],uint256[],uint256)[],uint256)": "infinite",
				"createShippingInfo((string,string,string,string,string,string,string,string,string),uint256,address)": "infinite",
				"deleteItemInCart(uint256)": "infinite",
				"deleteItemsInCart(uint256[])": "infinite",
				"deleteMultipleShareLink(uint256[])": "infinite",
				"deleteShareLink(uint256)": "infinite",
				"getErrorMessage(uint256,string)": "infinite",
				"getOrder(uint256)": "infinite",
				"getOrderCode(bytes32)": "3513",
				"getOrders()": "infinite",
				"getShareLink(uint256)": "infinite",
				"getShareLinks()": "infinite",
				"getShippingInfoByOrderID(uint256)": "infinite",
				"getUserCart()": "infinite",
				"getUserCartInfo(address)": "infinite",
				"getUserOrders(address)": "infinite",
				"getUserShareLinks(address)": "infinite",
				"mAddToOrderCode(address)": "2884",
				"mOrder(uint256)": "24021",
				"mOrderInfo(uint256)": "infinite",
				"mOrders(address,uint256)": "5743",
				"mShareLink(uint256)": "6775",
				"mShippingInfo(uint256)": "infinite",
				"mShippingInfoByAddress(address,uint256)": "4731",
				"mShippingInfoByOrder(uint256)": "3161",
				"mUserCart(address)": "5235",
				"mUserShareLink(address,uint256)": "5039",
				"owner()": "2866",
				"updateItemInCart(uint256,uint256)": "infinite",
				"updateItemsToCart((uint256,uint256)[])": "infinite",
				"updateShareLink(uint256,(uint256[],uint256[],bytes32[],uint256[],uint256)[],uint256)": "infinite"
			},
			"internal": {
				"ProcessOrder(struct CreateOrderParams memory[] memory,address)": "infinite",
				"_deleteItemInCart(address,uint256)": "infinite",
				"_deleteParamsForExecuteOrder(uint256)": "infinite",
				"checkValidShareLinkParams(struct ShareLinkParams memory[] memory)": "infinite",
				"deleteItemInCartBySmc(address,uint256)": "infinite",
				"recoverParentOrder(struct ShareLink storage pointer)": "infinite"
			}
		},
		"methodIdentifiers": {
			"CheckCallData(bytes)": "30d51a32",
			"ConfirmPaymentForOrderCode(bytes32)": "f894196e",
			"EcomInfo()": "b814f77b",
			"EcomProduct()": "a354f1b2",
			"EcomUser()": "4d5c5fd7",
			"ExecuteOrder((uint256,uint256,bytes32,uint256,string[])[],(string,string,string,string,string,string,string,string,string),(uint256,bytes32,uint8,uint8))": "76d6e7ef",
			"GetOrderInfo(uint256)": "e217866c",
			"GetOrderInfoFromOrderCode(bytes32)": "ab238f1f",
			"MasterPool()": "fb7ef377",
			"POS()": "f29155ef",
			"SetEcomInfo(address)": "8a8869e2",
			"SetEcomProduct(address)": "62de6230",
			"SetEcomUser(address)": "cac0e650",
			"SetMasterPool(address)": "a559934e",
			"SetPos(address)": "9a377a37",
			"SetTreeCom(address)": "4b5ba409",
			"SetUsdt(address)": "ddcd6408",
			"TreeCom()": "e5fc4ac2",
			"USDT()": "c54e44eb",
			"addItemToCart(uint256,bytes32,uint256)": "399cfa1e",
			"addItemsToCart((uint256,bytes32,uint256)[])": "93c26229",
			"createCart((uint256,uint256,uint256,bytes32,uint256))": "cf991364",
			"createShareLink((uint256[],uint256[],bytes32[],uint256[],uint256)[],uint256)": "a875588d",
			"createShippingInfo((string,string,string,string,string,string,string,string,string),uint256,address)": "040f1d72",
			"deleteItemInCart(uint256)": "4e8781cd",
			"deleteItemsInCart(uint256[])": "86cb0d92",
			"deleteMultipleShareLink(uint256[])": "a4e176ea",
			"deleteShareLink(uint256)": "c006e9a9",
			"getErrorMessage(uint256,string)": "2248632a",
			"getOrder(uint256)": "d09ef241",
			"getOrderCode(bytes32)": "fb08e12e",
			"getOrders()": "2e2dc43e",
			"getShareLink(uint256)": "d71f8181",
			"getShareLinks()": "46e115c0",
			"getShippingInfoByOrderID(uint256)": "834f9ed3",
			"getUserCart()": "44d80330",
			"getUserCartInfo(address)": "1fda90a2",
			"getUserOrders(address)": "63c69f08",
			"getUserShareLinks(address)": "e5e00e93",
			"mAddToOrderCode(address)": "664008f8",
			"mOrder(uint256)": "2d8206fe",
			"mOrderInfo(uint256)": "cf9796ec",
			"mOrders(address,uint256)": "ea68ba99",
			"mShareLink(uint256)": "00e6af7f",
			"mShippingInfo(uint256)": "da31f88a",
			"mShippingInfoByAddress(address,uint256)": "02b572d6",
			"mShippingInfoByOrder(uint256)": "bfbe3ef7",
			"mUserCart(address)": "96e98874",
			"mUserShareLink(address,uint256)": "5a7f48f8",
			"owner()": "8da5cb5b",
			"updateItemInCart(uint256,uint256)": "7ce47345",
			"updateItemsToCart((uint256,uint256)[])": "ffafe929",
			"updateShareLink(uint256,(uint256[],uint256[],bytes32[],uint256[],uint256)[],uint256)": "08a53b21"
		}
	},
	"abi": [
		{
			"inputs": [],
			"stateMutability": "payable",
			"type": "constructor"
		},
		{
			"anonymous": false,
			"inputs": [
				{
					"indexed": false,
					"internalType": "bytes32",
					"name": "orderCode",
					"type": "bytes32"
				}
			],
			"name": "eCreateOrder",
			"type": "event"
		},
		{
			"anonymous": false,
			"inputs": [
				{
					"indexed": false,
					"internalType": "uint256",
					"name": "id",
					"type": "uint256"
				},
				{
					"indexed": false,
					"internalType": "uint256",
					"name": "orderID",
					"type": "uint256"
				},
				{
					"indexed": false,
					"internalType": "address",
					"name": "userAddress",
					"type": "address"
				},
				{
					"indexed": false,
					"internalType": "string",
					"name": "firstName",
					"type": "string"
				},
				{
					"indexed": false,
					"internalType": "string",
					"name": "lastName",
					"type": "string"
				},
				{
					"indexed": false,
					"internalType": "string",
					"name": "email",
					"type": "string"
				},
				{
					"indexed": false,
					"internalType": "string",
					"name": "country",
					"type": "string"
				},
				{
					"indexed": false,
					"internalType": "string",
					"name": "city",
					"type": "string"
				},
				{
					"indexed": false,
					"internalType": "string",
					"name": "stateOrProvince",
					"type": "string"
				},
				{
					"indexed": false,
					"internalType": "string",
					"name": "postalCode",
					"type": "string"
				},
				{
					"indexed": false,
					"internalType": "string",
					"name": "phone",
					"type": "string"
				},
				{
					"indexed": false,
					"internalType": "string",
					"name": "addressDetail",
					"type": "string"
				}
			],
			"name": "eCreateShipping",
			"type": "event"
		},
		{
			"anonymous": false,
			"inputs": [
				{
					"indexed": false,
					"internalType": "uint256",
					"name": "id",
					"type": "uint256"
				}
			],
			"name": "eExecuteOrder",
			"type": "event"
		},
		{
			"inputs": [
				{
					"internalType": "bytes",
					"name": "callData",
					"type": "bytes"
				}
			],
			"name": "CheckCallData",
			"outputs": [
				{
					"internalType": "bool",
					"name": "",
					"type": "bool"
				}
			],
			"stateMutability": "view",
			"type": "function"
		},
		{
			"inputs": [
				{
					"internalType": "bytes32",
					"name": "orderCode",
					"type": "bytes32"
				}
			],
			"name": "ConfirmPaymentForOrderCode",
			"outputs": [],
			"stateMutability": "nonpayable",
			"type": "function"
		},
		{
			"inputs": [],
			"name": "EcomInfo",
			"outputs": [
				{
					"internalType": "contract IEcomInfo",
					"name": "",
					"type": "address"
				}
			],
			"stateMutability": "view",
			"type": "function"
		},
		{
			"inputs": [],
			"name": "EcomProduct",
			"outputs": [
				{
					"internalType": "contract IEcomProduct",
					"name": "",
					"type": "address"
				}
			],
			"stateMutability": "view",
			"type": "function"
		},
		{
			"inputs": [],
			"name": "EcomUser",
			"outputs": [
				{
					"internalType": "contract IEcomUser",
					"name": "",
					"type": "address"
				}
			],
			"stateMutability": "view",
			"type": "function"
		},
		{
			"inputs": [
				{
					"components": [
						{
							"internalType": "uint256",
							"name": "productID",
							"type": "uint256"
						},
						{
							"internalType": "uint256",
							"name": "quantity",
							"type": "uint256"
						},
						{
							"internalType": "bytes32",
							"name": "variantID",
							"type": "bytes32"
						},
						{
							"internalType": "uint256",
							"name": "cartItemId",
							"type": "uint256"
						},
						{
							"internalType": "string[]",
							"name": "discountCodes",
							"type": "string[]"
						}
					],
					"internalType": "struct CreateOrderParams[]",
					"name": "params",
					"type": "tuple[]"
				},
				{
					"components": [
						{
							"internalType": "string",
							"name": "firstName",
							"type": "string"
						},
						{
							"internalType": "string",
							"name": "lastName",
							"type": "string"
						},
						{
							"internalType": "string",
							"name": "email",
							"type": "string"
						},
						{
							"internalType": "string",
							"name": "country",
							"type": "string"
						},
						{
							"internalType": "string",
							"name": "city",
							"type": "string"
						},
						{
							"internalType": "string",
							"name": "stateOrProvince",
							"type": "string"
						},
						{
							"internalType": "string",
							"name": "postalCode",
							"type": "string"
						},
						{
							"internalType": "string",
							"name": "phone",
							"type": "string"
						},
						{
							"internalType": "string",
							"name": "addressDetail",
							"type": "string"
						}
					],
					"internalType": "struct ShippingParams",
					"name": "shippingParams",
					"type": "tuple"
				},
				{
					"components": [
						{
							"internalType": "uint256",
							"name": "totalPriceWithoutDiscount",
							"type": "uint256"
						},
						{
							"internalType": "bytes32",
							"name": "codeRef",
							"type": "bytes32"
						},
						{
							"internalType": "enum CheckoutType",
							"name": "checkoutType",
							"type": "uint8"
						},
						{
							"internalType": "enum PaymentType",
							"name": "paymentType",
							"type": "uint8"
						}
					],
					"internalType": "struct orderDetails",
					"name": "details",
					"type": "tuple"
				}
			],
			"name": "ExecuteOrder",
			"outputs": [
				{
					"internalType": "bytes32",
					"name": "",
					"type": "bytes32"
				}
			],
			"stateMutability": "nonpayable",
			"type": "function"
		},
		{
			"inputs": [
				{
					"internalType": "uint256",
					"name": "_id",
					"type": "uint256"
				}
			],
			"name": "GetOrderInfo",
			"outputs": [
				{
					"components": [
						{
							"components": [
								{
									"internalType": "uint256",
									"name": "productID",
									"type": "uint256"
								},
								{
									"internalType": "uint256",
									"name": "quantity",
									"type": "uint256"
								},
								{
									"internalType": "bytes32",
									"name": "variantID",
									"type": "bytes32"
								},
								{
									"internalType": "uint256",
									"name": "cartItemId",
									"type": "uint256"
								},
								{
									"internalType": "string[]",
									"name": "discountCodes",
									"type": "string[]"
								}
							],
							"internalType": "struct CreateOrderParams[]",
							"name": "params",
							"type": "tuple[]"
						},
						{
							"components": [
								{
									"internalType": "string",
									"name": "firstName",
									"type": "string"
								},
								{
									"internalType": "string",
									"name": "lastName",
									"type": "string"
								},
								{
									"internalType": "string",
									"name": "email",
									"type": "string"
								},
								{
									"internalType": "string",
									"name": "country",
									"type": "string"
								},
								{
									"internalType": "string",
									"name": "city",
									"type": "string"
								},
								{
									"internalType": "string",
									"name": "stateOrProvince",
									"type": "string"
								},
								{
									"internalType": "string",
									"name": "postalCode",
									"type": "string"
								},
								{
									"internalType": "string",
									"name": "phone",
									"type": "string"
								},
								{
									"internalType": "string",
									"name": "addressDetail",
									"type": "string"
								}
							],
							"internalType": "struct ShippingParams",
							"name": "shippingParams",
							"type": "tuple"
						},
						{
							"internalType": "address",
							"name": "user",
							"type": "address"
						},
						{
							"components": [
								{
									"internalType": "uint256",
									"name": "totalPriceWithoutDiscount",
									"type": "uint256"
								},
								{
									"internalType": "bytes32",
									"name": "codeRef",
									"type": "bytes32"
								},
								{
									"internalType": "enum CheckoutType",
									"name": "checkoutType",
									"type": "uint8"
								},
								{
									"internalType": "enum PaymentType",
									"name": "paymentType",
									"type": "uint8"
								}
							],
							"internalType": "struct orderDetails",
							"name": "details",
							"type": "tuple"
						}
					],
					"internalType": "struct DecodedParams",
					"name": "",
					"type": "tuple"
				}
			],
			"stateMutability": "view",
			"type": "function"
		},
		{
			"inputs": [
				{
					"internalType": "bytes32",
					"name": "_orderCode",
					"type": "bytes32"
				}
			],
			"name": "GetOrderInfoFromOrderCode",
			"outputs": [
				{
					"components": [
						{
							"internalType": "uint256",
							"name": "orderID",
							"type": "uint256"
						},
						{
							"internalType": "address",
							"name": "user",
							"type": "address"
						},
						{
							"internalType": "address",
							"name": "buyer",
							"type": "address"
						},
						{
							"internalType": "uint256",
							"name": "discountID",
							"type": "uint256"
						},
						{
							"internalType": "uint256[]",
							"name": "cartItemIds",
							"type": "uint256[]"
						},
						{
							"internalType": "uint256[]",
							"name": "productIds",
							"type": "uint256[]"
						},
						{
							"internalType": "bytes32[]",
							"name": "variantIds",
							"type": "bytes32[]"
						},
						{
							"internalType": "uint256[]",
							"name": "quantities",
							"type": "uint256[]"
						},
						{
							"internalType": "uint256[]",
							"name": "diffPrices",
							"type": "uint256[]"
						},
						{
							"internalType": "uint256[]",
							"name": "prices",
							"type": "uint256[]"
						},
						{
							"internalType": "uint256[]",
							"name": "rewards",
							"type": "uint256[]"
						},
						{
							"internalType": "uint256",
							"name": "totalPrice",
							"type": "uint256"
						},
						{
							"internalType": "uint8",
							"name": "checkoutType",
							"type": "uint8"
						},
						{
							"internalType": "uint8",
							"name": "orderStatus",
							"type": "uint8"
						},
						{
							"internalType": "bytes32",
							"name": "codeRef",
							"type": "bytes32"
						},
						{
							"internalType": "uint256",
							"name": "afterDiscountPrice",
							"type": "uint256"
						},
						{
							"internalType": "uint256",
							"name": "shippingPrice",
							"type": "uint256"
						},
						{
							"internalType": "uint8",
							"name": "paymentType",
							"type": "uint8"
						},
						{
							"internalType": "uint256",
							"name": "createdAt",
							"type": "uint256"
						}
					],
					"internalType": "struct Order",
					"name": "res",
					"type": "tuple"
				}
			],
			"stateMutability": "view",
			"type": "function"
		},
		{
			"inputs": [],
			"name": "MasterPool",
			"outputs": [
				{
					"internalType": "address",
					"name": "",
					"type": "address"
				}
			],
			"stateMutability": "view",
			"type": "function"
		},
		{
			"inputs": [],
			"name": "POS",
			"outputs": [
				{
					"internalType": "address",
					"name": "",
					"type": "address"
				}
			],
			"stateMutability": "view",
			"type": "function"
		},
		{
			"inputs": [
				{
					"internalType": "address",
					"name": "_ecomInfo",
					"type": "address"
				}
			],
			"name": "SetEcomInfo",
			"outputs": [
				{
					"internalType": "bool",
					"name": "",
					"type": "bool"
				}
			],
			"stateMutability": "nonpayable",
			"type": "function"
		},
		{
			"inputs": [
				{
					"internalType": "address",
					"name": "_ecomProduct",
					"type": "address"
				}
			],
			"name": "SetEcomProduct",
			"outputs": [
				{
					"internalType": "bool",
					"name": "",
					"type": "bool"
				}
			],
			"stateMutability": "nonpayable",
			"type": "function"
		},
		{
			"inputs": [
				{
					"internalType": "address",
					"name": "_ecomUser",
					"type": "address"
				}
			],
			"name": "SetEcomUser",
			"outputs": [
				{
					"internalType": "bool",
					"name": "",
					"type": "bool"
				}
			],
			"stateMutability": "nonpayable",
			"type": "function"
		},
		{
			"inputs": [
				{
					"internalType": "address",
					"name": "_masterPool",
					"type": "address"
				}
			],
			"name": "SetMasterPool",
			"outputs": [
				{
					"internalType": "bool",
					"name": "",
					"type": "bool"
				}
			],
			"stateMutability": "nonpayable",
			"type": "function"
		},
		{
			"inputs": [
				{
					"internalType": "address",
					"name": "_pos",
					"type": "address"
				}
			],
			"name": "SetPos",
			"outputs": [
				{
					"internalType": "bool",
					"name": "",
					"type": "bool"
				}
			],
			"stateMutability": "nonpayable",
			"type": "function"
		},
		{
			"inputs": [
				{
					"internalType": "address",
					"name": "_treecom",
					"type": "address"
				}
			],
			"name": "SetTreeCom",
			"outputs": [
				{
					"internalType": "bool",
					"name": "",
					"type": "bool"
				}
			],
			"stateMutability": "nonpayable",
			"type": "function"
		},
		{
			"inputs": [
				{
					"internalType": "address",
					"name": "_usdt",
					"type": "address"
				}
			],
			"name": "SetUsdt",
			"outputs": [
				{
					"internalType": "bool",
					"name": "",
					"type": "bool"
				}
			],
			"stateMutability": "nonpayable",
			"type": "function"
		},
		{
			"inputs": [],
			"name": "TreeCom",
			"outputs": [
				{
					"internalType": "contract ITreeCom",
					"name": "",
					"type": "address"
				}
			],
			"stateMutability": "view",
			"type": "function"
		},
		{
			"inputs": [],
			"name": "USDT",
			"outputs": [
				{
					"internalType": "contract IERC20",
					"name": "",
					"type": "address"
				}
			],
			"stateMutability": "view",
			"type": "function"
		},
		{
			"inputs": [
				{
					"internalType": "uint256",
					"name": "_productID",
					"type": "uint256"
				},
				{
					"internalType": "bytes32",
					"name": "_variantID",
					"type": "bytes32"
				},
				{
					"internalType": "uint256",
					"name": "_quantity",
					"type": "uint256"
				}
			],
			"name": "addItemToCart",
			"outputs": [
				{
					"components": [
						{
							"internalType": "uint256",
							"name": "id",
							"type": "uint256"
						},
						{
							"internalType": "uint256",
							"name": "productID",
							"type": "uint256"
						},
						{
							"internalType": "uint256",
							"name": "quantity",
							"type": "uint256"
						},
						{
							"internalType": "bytes32",
							"name": "variantID",
							"type": "bytes32"
						},
						{
							"internalType": "uint256",
							"name": "createAt",
							"type": "uint256"
						}
					],
					"internalType": "struct CartItem",
					"name": "",
					"type": "tuple"
				}
			],
			"stateMutability": "nonpayable",
			"type": "function"
		},
		{
			"inputs": [
				{
					"components": [
						{
							"internalType": "uint256",
							"name": "_productID",
							"type": "uint256"
						},
						{
							"internalType": "bytes32",
							"name": "_variantID",
							"type": "bytes32"
						},
						{
							"internalType": "uint256",
							"name": "quantity",
							"type": "uint256"
						}
					],
					"internalType": "struct AddItemToCartParams[]",
					"name": "params",
					"type": "tuple[]"
				}
			],
			"name": "addItemsToCart",
			"outputs": [
				{
					"components": [
						{
							"internalType": "uint256",
							"name": "id",
							"type": "uint256"
						},
						{
							"internalType": "uint256",
							"name": "productID",
							"type": "uint256"
						},
						{
							"internalType": "uint256",
							"name": "quantity",
							"type": "uint256"
						},
						{
							"internalType": "bytes32",
							"name": "variantID",
							"type": "bytes32"
						},
						{
							"internalType": "uint256",
							"name": "createAt",
							"type": "uint256"
						}
					],
					"internalType": "struct CartItem[]",
					"name": "_items",
					"type": "tuple[]"
				}
			],
			"stateMutability": "nonpayable",
			"type": "function"
		},
		{
			"inputs": [
				{
					"components": [
						{
							"internalType": "uint256",
							"name": "id",
							"type": "uint256"
						},
						{
							"internalType": "uint256",
							"name": "productID",
							"type": "uint256"
						},
						{
							"internalType": "uint256",
							"name": "quantity",
							"type": "uint256"
						},
						{
							"internalType": "bytes32",
							"name": "variantID",
							"type": "bytes32"
						},
						{
							"internalType": "uint256",
							"name": "createAt",
							"type": "uint256"
						}
					],
					"internalType": "struct CartItem",
					"name": "cartItem",
					"type": "tuple"
				}
			],
			"name": "createCart",
			"outputs": [],
			"stateMutability": "nonpayable",
			"type": "function"
		},
		{
			"inputs": [
				{
					"components": [
						{
							"internalType": "uint256[]",
							"name": "quantities",
							"type": "uint256[]"
						},
						{
							"internalType": "uint256[]",
							"name": "productIds",
							"type": "uint256[]"
						},
						{
							"internalType": "bytes32[]",
							"name": "variantIds",
							"type": "bytes32[]"
						},
						{
							"internalType": "uint256[]",
							"name": "prices",
							"type": "uint256[]"
						},
						{
							"internalType": "uint256",
							"name": "parentOrderID",
							"type": "uint256"
						}
					],
					"internalType": "struct ShareLinkParams[]",
					"name": "params",
					"type": "tuple[]"
				},
				{
					"internalType": "uint256",
					"name": "expiredTime",
					"type": "uint256"
				}
			],
			"name": "createShareLink",
			"outputs": [
				{
					"internalType": "uint256",
					"name": "",
					"type": "uint256"
				}
			],
			"stateMutability": "nonpayable",
			"type": "function"
		},
		{
			"inputs": [
				{
					"components": [
						{
							"internalType": "string",
							"name": "firstName",
							"type": "string"
						},
						{
							"internalType": "string",
							"name": "lastName",
							"type": "string"
						},
						{
							"internalType": "string",
							"name": "email",
							"type": "string"
						},
						{
							"internalType": "string",
							"name": "country",
							"type": "string"
						},
						{
							"internalType": "string",
							"name": "city",
							"type": "string"
						},
						{
							"internalType": "string",
							"name": "stateOrProvince",
							"type": "string"
						},
						{
							"internalType": "string",
							"name": "postalCode",
							"type": "string"
						},
						{
							"internalType": "string",
							"name": "phone",
							"type": "string"
						},
						{
							"internalType": "string",
							"name": "addressDetail",
							"type": "string"
						}
					],
					"internalType": "struct ShippingParams",
					"name": "shippingParams",
					"type": "tuple"
				},
				{
					"internalType": "uint256",
					"name": "_orderID",
					"type": "uint256"
				},
				{
					"internalType": "address",
					"name": "user",
					"type": "address"
				}
			],
			"name": "createShippingInfo",
			"outputs": [],
			"stateMutability": "nonpayable",
			"type": "function"
		},
		{
			"inputs": [
				{
					"internalType": "uint256",
					"name": "itemID",
					"type": "uint256"
				}
			],
			"name": "deleteItemInCart",
			"outputs": [],
			"stateMutability": "nonpayable",
			"type": "function"
		},
		{
			"inputs": [
				{
					"internalType": "uint256[]",
					"name": "itemIds",
					"type": "uint256[]"
				}
			],
			"name": "deleteItemsInCart",
			"outputs": [
				{
					"internalType": "bool",
					"name": "",
					"type": "bool"
				}
			],
			"stateMutability": "nonpayable",
			"type": "function"
		},
		{
			"inputs": [
				{
					"internalType": "uint256[]",
					"name": "_shareLinkIds",
					"type": "uint256[]"
				}
			],
			"name": "deleteMultipleShareLink",
			"outputs": [
				{
					"internalType": "bool",
					"name": "",
					"type": "bool"
				}
			],
			"stateMutability": "nonpayable",
			"type": "function"
		},
		{
			"inputs": [
				{
					"internalType": "uint256",
					"name": "_shareLinkID",
					"type": "uint256"
				}
			],
			"name": "deleteShareLink",
			"outputs": [
				{
					"internalType": "bool",
					"name": "",
					"type": "bool"
				}
			],
			"stateMutability": "nonpayable",
			"type": "function"
		},
		{
			"inputs": [
				{
					"internalType": "uint256",
					"name": "code",
					"type": "uint256"
				},
				{
					"internalType": "string",
					"name": "message",
					"type": "string"
				}
			],
			"name": "getErrorMessage",
			"outputs": [
				{
					"internalType": "string",
					"name": "",
					"type": "string"
				}
			],
			"stateMutability": "pure",
			"type": "function"
		},
		{
			"inputs": [
				{
					"internalType": "uint256",
					"name": "_orderID",
					"type": "uint256"
				}
			],
			"name": "getOrder",
			"outputs": [
				{
					"components": [
						{
							"internalType": "uint256",
							"name": "orderID",
							"type": "uint256"
						},
						{
							"internalType": "address",
							"name": "user",
							"type": "address"
						},
						{
							"internalType": "address",
							"name": "buyer",
							"type": "address"
						},
						{
							"internalType": "uint256",
							"name": "discountID",
							"type": "uint256"
						},
						{
							"internalType": "uint256[]",
							"name": "cartItemIds",
							"type": "uint256[]"
						},
						{
							"internalType": "uint256[]",
							"name": "productIds",
							"type": "uint256[]"
						},
						{
							"internalType": "bytes32[]",
							"name": "variantIds",
							"type": "bytes32[]"
						},
						{
							"internalType": "uint256[]",
							"name": "quantities",
							"type": "uint256[]"
						},
						{
							"internalType": "uint256[]",
							"name": "diffPrices",
							"type": "uint256[]"
						},
						{
							"internalType": "uint256[]",
							"name": "prices",
							"type": "uint256[]"
						},
						{
							"internalType": "uint256[]",
							"name": "rewards",
							"type": "uint256[]"
						},
						{
							"internalType": "uint256",
							"name": "totalPrice",
							"type": "uint256"
						},
						{
							"internalType": "uint8",
							"name": "checkoutType",
							"type": "uint8"
						},
						{
							"internalType": "uint8",
							"name": "orderStatus",
							"type": "uint8"
						},
						{
							"internalType": "bytes32",
							"name": "codeRef",
							"type": "bytes32"
						},
						{
							"internalType": "uint256",
							"name": "afterDiscountPrice",
							"type": "uint256"
						},
						{
							"internalType": "uint256",
							"name": "shippingPrice",
							"type": "uint256"
						},
						{
							"internalType": "uint8",
							"name": "paymentType",
							"type": "uint8"
						},
						{
							"internalType": "uint256",
							"name": "createdAt",
							"type": "uint256"
						}
					],
					"internalType": "struct Order",
					"name": "",
					"type": "tuple"
				}
			],
			"stateMutability": "view",
			"type": "function"
		},
		{
			"inputs": [
				{
					"internalType": "bytes32",
					"name": "orderCode",
					"type": "bytes32"
				}
			],
			"name": "getOrderCode",
			"outputs": [
				{
					"internalType": "uint256",
					"name": "",
					"type": "uint256"
				}
			],
			"stateMutability": "view",
			"type": "function"
		},
		{
			"inputs": [],
			"name": "getOrders",
			"outputs": [
				{
					"components": [
						{
							"internalType": "uint256",
							"name": "orderID",
							"type": "uint256"
						},
						{
							"internalType": "address",
							"name": "user",
							"type": "address"
						},
						{
							"internalType": "address",
							"name": "buyer",
							"type": "address"
						},
						{
							"internalType": "uint256",
							"name": "discountID",
							"type": "uint256"
						},
						{
							"internalType": "uint256[]",
							"name": "cartItemIds",
							"type": "uint256[]"
						},
						{
							"internalType": "uint256[]",
							"name": "productIds",
							"type": "uint256[]"
						},
						{
							"internalType": "bytes32[]",
							"name": "variantIds",
							"type": "bytes32[]"
						},
						{
							"internalType": "uint256[]",
							"name": "quantities",
							"type": "uint256[]"
						},
						{
							"internalType": "uint256[]",
							"name": "diffPrices",
							"type": "uint256[]"
						},
						{
							"internalType": "uint256[]",
							"name": "prices",
							"type": "uint256[]"
						},
						{
							"internalType": "uint256[]",
							"name": "rewards",
							"type": "uint256[]"
						},
						{
							"internalType": "uint256",
							"name": "totalPrice",
							"type": "uint256"
						},
						{
							"internalType": "uint8",
							"name": "checkoutType",
							"type": "uint8"
						},
						{
							"internalType": "uint8",
							"name": "orderStatus",
							"type": "uint8"
						},
						{
							"internalType": "bytes32",
							"name": "codeRef",
							"type": "bytes32"
						},
						{
							"internalType": "uint256",
							"name": "afterDiscountPrice",
							"type": "uint256"
						},
						{
							"internalType": "uint256",
							"name": "shippingPrice",
							"type": "uint256"
						},
						{
							"internalType": "uint8",
							"name": "paymentType",
							"type": "uint8"
						},
						{
							"internalType": "uint256",
							"name": "createdAt",
							"type": "uint256"
						}
					],
					"internalType": "struct Order[]",
					"name": "res",
					"type": "tuple[]"
				}
			],
			"stateMutability": "view",
			"type": "function"
		},
		{
			"inputs": [
				{
					"internalType": "uint256",
					"name": "_id",
					"type": "uint256"
				}
			],
			"name": "getShareLink",
			"outputs": [
				{
					"components": [
						{
							"internalType": "uint256",
							"name": "ID",
							"type": "uint256"
						},
						{
							"components": [
								{
									"internalType": "uint256[]",
									"name": "quantities",
									"type": "uint256[]"
								},
								{
									"internalType": "uint256[]",
									"name": "productIds",
									"type": "uint256[]"
								},
								{
									"internalType": "bytes32[]",
									"name": "variantIds",
									"type": "bytes32[]"
								},
								{
									"internalType": "uint256[]",
									"name": "prices",
									"type": "uint256[]"
								},
								{
									"internalType": "uint256",
									"name": "parentOrderID",
									"type": "uint256"
								}
							],
							"internalType": "struct ShareLinkParams[]",
							"name": "params",
							"type": "tuple[]"
						},
						{
							"internalType": "address",
							"name": "owner",
							"type": "address"
						},
						{
							"internalType": "bool",
							"name": "isExecuted",
							"type": "bool"
						},
						{
							"internalType": "uint256",
							"name": "expiredTime",
							"type": "uint256"
						}
					],
					"internalType": "struct ShareLink",
					"name": "",
					"type": "tuple"
				}
			],
			"stateMutability": "view",
			"type": "function"
		},
		{
			"inputs": [],
			"name": "getShareLinks",
			"outputs": [
				{
					"components": [
						{
							"internalType": "uint256",
							"name": "ID",
							"type": "uint256"
						},
						{
							"components": [
								{
									"internalType": "uint256[]",
									"name": "quantities",
									"type": "uint256[]"
								},
								{
									"internalType": "uint256[]",
									"name": "productIds",
									"type": "uint256[]"
								},
								{
									"internalType": "bytes32[]",
									"name": "variantIds",
									"type": "bytes32[]"
								},
								{
									"internalType": "uint256[]",
									"name": "prices",
									"type": "uint256[]"
								},
								{
									"internalType": "uint256",
									"name": "parentOrderID",
									"type": "uint256"
								}
							],
							"internalType": "struct ShareLinkParams[]",
							"name": "params",
							"type": "tuple[]"
						},
						{
							"internalType": "address",
							"name": "owner",
							"type": "address"
						},
						{
							"internalType": "bool",
							"name": "isExecuted",
							"type": "bool"
						},
						{
							"internalType": "uint256",
							"name": "expiredTime",
							"type": "uint256"
						}
					],
					"internalType": "struct ShareLink[]",
					"name": "",
					"type": "tuple[]"
				}
			],
			"stateMutability": "view",
			"type": "function"
		},
		{
			"inputs": [
				{
					"internalType": "uint256",
					"name": "_orderID",
					"type": "uint256"
				}
			],
			"name": "getShippingInfoByOrderID",
			"outputs": [
				{
					"components": [
						{
							"internalType": "uint256",
							"name": "id",
							"type": "uint256"
						},
						{
							"internalType": "uint256",
							"name": "orderID",
							"type": "uint256"
						},
						{
							"internalType": "address",
							"name": "userAddress",
							"type": "address"
						},
						{
							"components": [
								{
									"internalType": "string",
									"name": "firstName",
									"type": "string"
								},
								{
									"internalType": "string",
									"name": "lastName",
									"type": "string"
								},
								{
									"internalType": "string",
									"name": "email",
									"type": "string"
								},
								{
									"internalType": "string",
									"name": "country",
									"type": "string"
								},
								{
									"internalType": "string",
									"name": "city",
									"type": "string"
								},
								{
									"internalType": "string",
									"name": "stateOrProvince",
									"type": "string"
								},
								{
									"internalType": "string",
									"name": "postalCode",
									"type": "string"
								},
								{
									"internalType": "string",
									"name": "phone",
									"type": "string"
								},
								{
									"internalType": "string",
									"name": "addressDetail",
									"type": "string"
								}
							],
							"internalType": "struct ShippingParams",
							"name": "params",
							"type": "tuple"
						}
					],
					"internalType": "struct ShippingInfo",
					"name": "",
					"type": "tuple"
				}
			],
			"stateMutability": "view",
			"type": "function"
		},
		{
			"inputs": [],
			"name": "getUserCart",
			"outputs": [
				{
					"components": [
						{
							"internalType": "uint256",
							"name": "id",
							"type": "uint256"
						},
						{
							"internalType": "address",
							"name": "owner",
							"type": "address"
						},
						{
							"components": [
								{
									"internalType": "uint256",
									"name": "id",
									"type": "uint256"
								},
								{
									"internalType": "uint256",
									"name": "productID",
									"type": "uint256"
								},
								{
									"internalType": "uint256",
									"name": "quantity",
									"type": "uint256"
								},
								{
									"internalType": "bytes32",
									"name": "variantID",
									"type": "bytes32"
								},
								{
									"internalType": "uint256",
									"name": "createAt",
									"type": "uint256"
								}
							],
							"internalType": "struct CartItem[]",
							"name": "items",
							"type": "tuple[]"
						}
					],
					"internalType": "struct Cart",
					"name": "",
					"type": "tuple"
				}
			],
			"stateMutability": "view",
			"type": "function"
		},
		{
			"inputs": [
				{
					"internalType": "address",
					"name": "_user",
					"type": "address"
				}
			],
			"name": "getUserCartInfo",
			"outputs": [
				{
					"components": [
						{
							"internalType": "uint256",
							"name": "id",
							"type": "uint256"
						},
						{
							"internalType": "address",
							"name": "owner",
							"type": "address"
						},
						{
							"components": [
								{
									"internalType": "uint256",
									"name": "id",
									"type": "uint256"
								},
								{
									"internalType": "uint256",
									"name": "productID",
									"type": "uint256"
								},
								{
									"internalType": "uint256",
									"name": "quantity",
									"type": "uint256"
								},
								{
									"internalType": "bytes32",
									"name": "variantID",
									"type": "bytes32"
								},
								{
									"internalType": "uint256",
									"name": "createAt",
									"type": "uint256"
								}
							],
							"internalType": "struct CartItem[]",
							"name": "items",
							"type": "tuple[]"
						}
					],
					"internalType": "struct Cart",
					"name": "",
					"type": "tuple"
				}
			],
			"stateMutability": "view",
			"type": "function"
		},
		{
			"inputs": [
				{
					"internalType": "address",
					"name": "_user",
					"type": "address"
				}
			],
			"name": "getUserOrders",
			"outputs": [
				{
					"components": [
						{
							"internalType": "uint256",
							"name": "orderID",
							"type": "uint256"
						},
						{
							"internalType": "address",
							"name": "user",
							"type": "address"
						},
						{
							"internalType": "address",
							"name": "buyer",
							"type": "address"
						},
						{
							"internalType": "uint256",
							"name": "discountID",
							"type": "uint256"
						},
						{
							"internalType": "uint256[]",
							"name": "cartItemIds",
							"type": "uint256[]"
						},
						{
							"internalType": "uint256[]",
							"name": "productIds",
							"type": "uint256[]"
						},
						{
							"internalType": "bytes32[]",
							"name": "variantIds",
							"type": "bytes32[]"
						},
						{
							"internalType": "uint256[]",
							"name": "quantities",
							"type": "uint256[]"
						},
						{
							"internalType": "uint256[]",
							"name": "diffPrices",
							"type": "uint256[]"
						},
						{
							"internalType": "uint256[]",
							"name": "prices",
							"type": "uint256[]"
						},
						{
							"internalType": "uint256[]",
							"name": "rewards",
							"type": "uint256[]"
						},
						{
							"internalType": "uint256",
							"name": "totalPrice",
							"type": "uint256"
						},
						{
							"internalType": "uint8",
							"name": "checkoutType",
							"type": "uint8"
						},
						{
							"internalType": "uint8",
							"name": "orderStatus",
							"type": "uint8"
						},
						{
							"internalType": "bytes32",
							"name": "codeRef",
							"type": "bytes32"
						},
						{
							"internalType": "uint256",
							"name": "afterDiscountPrice",
							"type": "uint256"
						},
						{
							"internalType": "uint256",
							"name": "shippingPrice",
							"type": "uint256"
						},
						{
							"internalType": "uint8",
							"name": "paymentType",
							"type": "uint8"
						},
						{
							"internalType": "uint256",
							"name": "createdAt",
							"type": "uint256"
						}
					],
					"internalType": "struct Order[]",
					"name": "res",
					"type": "tuple[]"
				}
			],
			"stateMutability": "view",
			"type": "function"
		},
		{
			"inputs": [
				{
					"internalType": "address",
					"name": "_user",
					"type": "address"
				}
			],
			"name": "getUserShareLinks",
			"outputs": [
				{
					"components": [
						{
							"internalType": "uint256",
							"name": "ID",
							"type": "uint256"
						},
						{
							"components": [
								{
									"internalType": "uint256[]",
									"name": "quantities",
									"type": "uint256[]"
								},
								{
									"internalType": "uint256[]",
									"name": "productIds",
									"type": "uint256[]"
								},
								{
									"internalType": "bytes32[]",
									"name": "variantIds",
									"type": "bytes32[]"
								},
								{
									"internalType": "uint256[]",
									"name": "prices",
									"type": "uint256[]"
								},
								{
									"internalType": "uint256",
									"name": "parentOrderID",
									"type": "uint256"
								}
							],
							"internalType": "struct ShareLinkParams[]",
							"name": "params",
							"type": "tuple[]"
						},
						{
							"internalType": "address",
							"name": "owner",
							"type": "address"
						},
						{
							"internalType": "bool",
							"name": "isExecuted",
							"type": "bool"
						},
						{
							"internalType": "uint256",
							"name": "expiredTime",
							"type": "uint256"
						}
					],
					"internalType": "struct ShareLink[]",
					"name": "",
					"type": "tuple[]"
				}
			],
			"stateMutability": "view",
			"type": "function"
		},
		{
			"inputs": [
				{
					"internalType": "address",
					"name": "",
					"type": "address"
				}
			],
			"name": "mAddToOrderCode",
			"outputs": [
				{
					"internalType": "bytes32",
					"name": "",
					"type": "bytes32"
				}
			],
			"stateMutability": "view",
			"type": "function"
		},
		{
			"inputs": [
				{
					"internalType": "uint256",
					"name": "",
					"type": "uint256"
				}
			],
			"name": "mOrder",
			"outputs": [
				{
					"internalType": "uint256",
					"name": "orderID",
					"type": "uint256"
				},
				{
					"internalType": "address",
					"name": "user",
					"type": "address"
				},
				{
					"internalType": "address",
					"name": "buyer",
					"type": "address"
				},
				{
					"internalType": "uint256",
					"name": "discountID",
					"type": "uint256"
				},
				{
					"internalType": "uint256",
					"name": "totalPrice",
					"type": "uint256"
				},
				{
					"internalType": "uint8",
					"name": "checkoutType",
					"type": "uint8"
				},
				{
					"internalType": "uint8",
					"name": "orderStatus",
					"type": "uint8"
				},
				{
					"internalType": "bytes32",
					"name": "codeRef",
					"type": "bytes32"
				},
				{
					"internalType": "uint256",
					"name": "afterDiscountPrice",
					"type": "uint256"
				},
				{
					"internalType": "uint256",
					"name": "shippingPrice",
					"type": "uint256"
				},
				{
					"internalType": "uint8",
					"name": "paymentType",
					"type": "uint8"
				},
				{
					"internalType": "uint256",
					"name": "createdAt",
					"type": "uint256"
				}
			],
			"stateMutability": "view",
			"type": "function"
		},
		{
			"inputs": [
				{
					"internalType": "uint256",
					"name": "",
					"type": "uint256"
				}
			],
			"name": "mOrderInfo",
			"outputs": [
				{
					"components": [
						{
							"internalType": "string",
							"name": "firstName",
							"type": "string"
						},
						{
							"internalType": "string",
							"name": "lastName",
							"type": "string"
						},
						{
							"internalType": "string",
							"name": "email",
							"type": "string"
						},
						{
							"internalType": "string",
							"name": "country",
							"type": "string"
						},
						{
							"internalType": "string",
							"name": "city",
							"type": "string"
						},
						{
							"internalType": "string",
							"name": "stateOrProvince",
							"type": "string"
						},
						{
							"internalType": "string",
							"name": "postalCode",
							"type": "string"
						},
						{
							"internalType": "string",
							"name": "phone",
							"type": "string"
						},
						{
							"internalType": "string",
							"name": "addressDetail",
							"type": "string"
						}
					],
					"internalType": "struct ShippingParams",
					"name": "shippingParams",
					"type": "tuple"
				},
				{
					"internalType": "address",
					"name": "user",
					"type": "address"
				},
				{
					"components": [
						{
							"internalType": "uint256",
							"name": "totalPriceWithoutDiscount",
							"type": "uint256"
						},
						{
							"internalType": "bytes32",
							"name": "codeRef",
							"type": "bytes32"
						},
						{
							"internalType": "enum CheckoutType",
							"name": "checkoutType",
							"type": "uint8"
						},
						{
							"internalType": "enum PaymentType",
							"name": "paymentType",
							"type": "uint8"
						}
					],
					"internalType": "struct orderDetails",
					"name": "details",
					"type": "tuple"
				}
			],
			"stateMutability": "view",
			"type": "function"
		},
		{
			"inputs": [
				{
					"internalType": "address",
					"name": "",
					"type": "address"
				},
				{
					"internalType": "uint256",
					"name": "",
					"type": "uint256"
				}
			],
			"name": "mOrders",
			"outputs": [
				{
					"internalType": "uint256",
					"name": "",
					"type": "uint256"
				}
			],
			"stateMutability": "view",
			"type": "function"
		},
		{
			"inputs": [
				{
					"internalType": "uint256",
					"name": "",
					"type": "uint256"
				}
			],
			"name": "mShareLink",
			"outputs": [
				{
					"internalType": "uint256",
					"name": "ID",
					"type": "uint256"
				},
				{
					"internalType": "address",
					"name": "owner",
					"type": "address"
				},
				{
					"internalType": "bool",
					"name": "isExecuted",
					"type": "bool"
				},
				{
					"internalType": "uint256",
					"name": "expiredTime",
					"type": "uint256"
				}
			],
			"stateMutability": "view",
			"type": "function"
		},
		{
			"inputs": [
				{
					"internalType": "uint256",
					"name": "",
					"type": "uint256"
				}
			],
			"name": "mShippingInfo",
			"outputs": [
				{
					"internalType": "uint256",
					"name": "id",
					"type": "uint256"
				},
				{
					"internalType": "uint256",
					"name": "orderID",
					"type": "uint256"
				},
				{
					"internalType": "address",
					"name": "userAddress",
					"type": "address"
				},
				{
					"components": [
						{
							"internalType": "string",
							"name": "firstName",
							"type": "string"
						},
						{
							"internalType": "string",
							"name": "lastName",
							"type": "string"
						},
						{
							"internalType": "string",
							"name": "email",
							"type": "string"
						},
						{
							"internalType": "string",
							"name": "country",
							"type": "string"
						},
						{
							"internalType": "string",
							"name": "city",
							"type": "string"
						},
						{
							"internalType": "string",
							"name": "stateOrProvince",
							"type": "string"
						},
						{
							"internalType": "string",
							"name": "postalCode",
							"type": "string"
						},
						{
							"internalType": "string",
							"name": "phone",
							"type": "string"
						},
						{
							"internalType": "string",
							"name": "addressDetail",
							"type": "string"
						}
					],
					"internalType": "struct ShippingParams",
					"name": "params",
					"type": "tuple"
				}
			],
			"stateMutability": "view",
			"type": "function"
		},
		{
			"inputs": [
				{
					"internalType": "address",
					"name": "",
					"type": "address"
				},
				{
					"internalType": "uint256",
					"name": "",
					"type": "uint256"
				}
			],
			"name": "mShippingInfoByAddress",
			"outputs": [
				{
					"internalType": "uint256",
					"name": "",
					"type": "uint256"
				}
			],
			"stateMutability": "view",
			"type": "function"
		},
		{
			"inputs": [
				{
					"internalType": "uint256",
					"name": "",
					"type": "uint256"
				}
			],
			"name": "mShippingInfoByOrder",
			"outputs": [
				{
					"internalType": "uint256",
					"name": "",
					"type": "uint256"
				}
			],
			"stateMutability": "view",
			"type": "function"
		},
		{
			"inputs": [
				{
					"internalType": "address",
					"name": "",
					"type": "address"
				}
			],
			"name": "mUserCart",
			"outputs": [
				{
					"internalType": "uint256",
					"name": "id",
					"type": "uint256"
				},
				{
					"internalType": "address",
					"name": "owner",
					"type": "address"
				}
			],
			"stateMutability": "view",
			"type": "function"
		},
		{
			"inputs": [
				{
					"internalType": "address",
					"name": "",
					"type": "address"
				},
				{
					"internalType": "uint256",
					"name": "",
					"type": "uint256"
				}
			],
			"name": "mUserShareLink",
			"outputs": [
				{
					"internalType": "uint256",
					"name": "",
					"type": "uint256"
				}
			],
			"stateMutability": "view",
			"type": "function"
		},
		{
			"inputs": [],
			"name": "owner",
			"outputs": [
				{
					"internalType": "address",
					"name": "",
					"type": "address"
				}
			],
			"stateMutability": "view",
			"type": "function"
		},
		{
			"inputs": [
				{
					"internalType": "uint256",
					"name": "itemID",
					"type": "uint256"
				},
				{
					"internalType": "uint256",
					"name": "quantity",
					"type": "uint256"
				}
			],
			"name": "updateItemInCart",
			"outputs": [
				{
					"components": [
						{
							"internalType": "uint256",
							"name": "id",
							"type": "uint256"
						},
						{
							"internalType": "uint256",
							"name": "productID",
							"type": "uint256"
						},
						{
							"internalType": "uint256",
							"name": "quantity",
							"type": "uint256"
						},
						{
							"internalType": "bytes32",
							"name": "variantID",
							"type": "bytes32"
						},
						{
							"internalType": "uint256",
							"name": "createAt",
							"type": "uint256"
						}
					],
					"internalType": "struct CartItem",
					"name": "_item",
					"type": "tuple"
				}
			],
			"stateMutability": "nonpayable",
			"type": "function"
		},
		{
			"inputs": [
				{
					"components": [
						{
							"internalType": "uint256",
							"name": "itemID",
							"type": "uint256"
						},
						{
							"internalType": "uint256",
							"name": "quantity",
							"type": "uint256"
						}
					],
					"internalType": "struct UpdateItemsToCartParams[]",
					"name": "params",
					"type": "tuple[]"
				}
			],
			"name": "updateItemsToCart",
			"outputs": [
				{
					"components": [
						{
							"internalType": "uint256",
							"name": "id",
							"type": "uint256"
						},
						{
							"internalType": "uint256",
							"name": "productID",
							"type": "uint256"
						},
						{
							"internalType": "uint256",
							"name": "quantity",
							"type": "uint256"
						},
						{
							"internalType": "bytes32",
							"name": "variantID",
							"type": "bytes32"
						},
						{
							"internalType": "uint256",
							"name": "createAt",
							"type": "uint256"
						}
					],
					"internalType": "struct CartItem[]",
					"name": "_items",
					"type": "tuple[]"
				}
			],
			"stateMutability": "nonpayable",
			"type": "function"
		},
		{
			"inputs": [
				{
					"internalType": "uint256",
					"name": "_shareLinkID",
					"type": "uint256"
				},
				{
					"components": [
						{
							"internalType": "uint256[]",
							"name": "quantities",
							"type": "uint256[]"
						},
						{
							"internalType": "uint256[]",
							"name": "productIds",
							"type": "uint256[]"
						},
						{
							"internalType": "bytes32[]",
							"name": "variantIds",
							"type": "bytes32[]"
						},
						{
							"internalType": "uint256[]",
							"name": "prices",
							"type": "uint256[]"
						},
						{
							"internalType": "uint256",
							"name": "parentOrderID",
							"type": "uint256"
						}
					],
					"internalType": "struct ShareLinkParams[]",
					"name": "params",
					"type": "tuple[]"
				},
				{
					"internalType": "uint256",
					"name": "expiredTime",
					"type": "uint256"
				}
			],
			"name": "updateShareLink",
			"outputs": [
				{
					"internalType": "bool",
					"name": "",
					"type": "bool"
				}
			],
			"stateMutability": "nonpayable",
			"type": "function"
		}
	]
}