{
	"data": {
		"bytecode": {
			"linkReferences": {},
			"object": "60806040523360155f6101000a81548173ffffffffffffffffffffffffffffffffffffffff021916908373ffffffffffffffffffffffffffffffffffffffff160217905550600160135f3373ffffffffffffffffffffffffffffffffffffffff1673ffffffffffffffffffffffffffffffffffffffff1681526020019081526020015f205f6101000a81548160ff021916908315150217905550601433908060018154018082558091505060019003905f5260205f20015f9091909190916101000a81548173ffffffffffffffffffffffffffffffffffffffff021916908373ffffffffffffffffffffffffffffffffffffffff1602179055506192b9806101065f395ff3fe608060405234801561000f575f80fd5b50600436106103e4575f3560e01c80638aa393ac11610208578063b94aead511610123578063e27ea4a7116100b6578063f53bc6e311610085578063f53bc6e314610c89578063f554889914610ca7578063f62dd1ee14610cb1578063f857d61714610ccf578063f954ed2d14610cd9576103e4565b8063e27ea4a714610be9578063e6801ac714610c1d578063eda162e714610c4f578063edafaf6314610c6b576103e4565b8063cac0e650116100f2578063cac0e65014610b4f578063cece999f14610b7f578063d24043cb14610b9d578063d6376aea14610bb9576103e4565b8063b94aead514610ab1578063bc43b9cc14610ae1578063c0a2277114610b02578063ca6a750214610b1e576103e4565b80639ddf2e951161019b578063ac3b394f1161016a578063ac3b394f14610a4d578063ac5fae6914610a6d578063b34210e114610a8b578063b34d644a14610aa7576103e4565b80639ddf2e95146109c3578063a354f1b2146109f3578063aa29eac714610a11578063abb4ca9914610a2f576103e4565b806392a198d5116101d757806392a198d514610937578063989868ed146109535780639a761c4d146109875780639cde636e146109a5576103e4565b80638aa393ac146108b05780638da5cb5b146108cc5780638ef58635146108ea5780639075c29014610906576103e4565b8063467956ef116103035780636f2069f01161029657806379d3f7761161026557806379d3f7761461080a5780637be740c9146108285780637e0833ca146108585780638286980c1461087657806386acd56414610892576103e4565b80636f2069f014610780578063704b6c021461078a57806370e8e53c146107ba578063795ec6d4146107ea576103e4565b80635b956627116102d25780635b956627146106f857806362de6230146107145780636a7434e5146107445780636cb69f4214610760576103e4565b8063467956ef1461065b5780634d5c5fd7146106795780634e581680146106975780634fa3c56f146106c8576103e4565b806332aca62b1161037b5780633d3a97481161034a5780633d3a9748146105bf578063409b2cdf146105db5780634323323a1461060d57806344089cd11461062b576103e4565b806332aca62b1461053757806332f394361461055357806332fd98501461057157806335890aad146105a1576103e4565b80631738408d116103b75780631738408d146104975780632075bd3c146104c75780632248632a146104e95780632c9aefe914610519576103e4565b8063022de34c146103e857806313badcb81461041957806314bfd6d014610437578063158d347414610467575b5f80fd5b61040260048036038101906103fd9190615626565b610cf5565b60405161041092919061568e565b60405180910390f35b610421610d5a565b60405161042e91906156c4565b60405180910390f35b610451600480360381019061044c91906156dd565b610deb565b60405161045e9190615708565b60405180910390f35b610481600480360381019061047c9190615721565b610e26565b60405161048e91906156c4565b60405180910390f35b6104b160048036038101906104ac91906156dd565b610e51565b6040516104be91906156c4565b60405180910390f35b6104cf610e66565b6040516104e0959493929190615c07565b60405180910390f35b61050360048036038101906104fe9190615d99565b610ea6565b6040516105109190615e3b565b60405180910390f35b610521610edf565b60405161052e9190615f43565b60405180910390f35b610551600480360381019061054c91906156dd565b610f58565b005b61055b610fb6565b6040516105689190615fbe565b60405180910390f35b61058b600480360381019061058691906156dd565b610fdb565b6040516105989190615fd7565b60405180910390f35b6105a9611042565b6040516105b691906156c4565b60405180910390f35b6105d960048036038101906105d491906160a9565b611086565b005b6105f560048036038101906105f091906156dd565b6110e6565b60405161060493929190616106565b60405180910390f35b61061561111b565b60405161062291906156c4565b60405180910390f35b6106456004803603810190610640919061613b565b611121565b6040516106529190616180565b60405180910390f35b6106636111fc565b6040516106709190616199565b60405180910390f35b610681611405565b60405161068e91906161d9565b60405180910390f35b6106b160048036038101906106ac9190615626565b61142a565b6040516106bf9291906161f2565b60405180910390f35b6106e260048036038101906106dd91906156dd565b611464565b6040516106ef91906156c4565b60405180910390f35b610712600480360381019061070d9190615626565b611484565b005b61072e6004803603810190610729919061613b565b61167e565b60405161073b9190616180565b60405180910390f35b61075e60048036038101906107599190616219565b611759565b005b610768611f22565b60405161077793929190616106565b60405180910390f35b610788611fc2565b005b6107a4600480360381019061079f919061613b565b612045565b6040516107b19190616180565b60405180910390f35b6107d460048036038101906107cf91906156dd565b612195565b6040516107e19190615fd7565b60405180910390f35b6107f26121fc565b60405161080193929190616260565b60405180910390f35b610812612531565b60405161081f91906156c4565b60405180910390f35b610842600480360381019061083d919061613b565b612536565b60405161084f91906156c4565b60405180910390f35b61086061254b565b60405161086d91906156c4565b60405180910390f35b610890600480360381019061088b91906156dd565b612551565b005b61089a612659565b6040516108a791906162aa565b60405180910390f35b6108ca60048036038101906108c59190616317565b612985565b005b6108d4612d54565b6040516108e19190615708565b60405180910390f35b61090460048036038101906108ff9190616567565b612d79565b005b610920600480360381019061091b91906165ae565b6133f5565b60405161092e9291906161f2565b60405180910390f35b610951600480360381019061094c919061613b565b613447565b005b61096d60048036038101906109689190615626565b6135c2565b60405161097e959493929190616650565b60405180910390f35b61098f613746565b60405161099c9190616199565b60405180910390f35b6109ad61399d565b6040516109ba91906156c4565b60405180910390f35b6109dd60048036038101906109d8919061613b565b6139a3565b6040516109ea9190616180565b60405180910390f35b6109fb6139c0565b604051610a0891906166cf565b60405180910390f35b610a196139e5565b604051610a2691906156c4565b60405180910390f35b610a37613a29565b604051610a4491906167bd565b60405180910390f35b610a55613ad3565b604051610a6493929190616bfe565b60405180910390f35b610a75613c23565b604051610a8291906156c4565b60405180910390f35b610aa56004803603810190610aa091906156dd565b613cb5565b005b610aaf613ced565b005b610acb6004803603810190610ac69190615721565b613d06565b604051610ad891906156c4565b60405180910390f35b610ae9613d31565b604051610af99493929190616c48565b60405180910390f35b610b1c6004803603810190610b17919061613b565b613d65565b005b610b386004803603810190610b3391906156dd565b613efb565b604051610b4692919061568e565b60405180910390f35b610b696004803603810190610b64919061613b565b613f55565b604051610b769190616180565b60405180910390f35b610b87614030565b604051610b9491906156c4565b60405180910390f35b610bb76004803603810190610bb29190616c99565b614036565b005b610bd36004803603810190610bce919061613b565b614202565b604051610be091906156c4565b60405180910390f35b610c036004803603810190610bfe91906156dd565b614217565b604051610c14959493929190616650565b60405180910390f35b610c376004803603810190610c32919061613b565b614390565b604051610c4693929190616f2d565b60405180910390f35b610c696004803603810190610c64919061613b565b614606565b005b610c73614671565b604051610c8091906162aa565b60405180910390f35b610c9161494f565b604051610c9e9190615fd7565b60405180910390f35b610caf614a2e565b005b610cb9614a47565b604051610cc691906156c4565b60405180910390f35b610cd7614a4d565b005b610cf36004803603810190610cee919061613b565b614a66565b005b600d602052815f5260405f208181548110610d0e575f80fd5b905f5260205f2090600402015f9150915050805f015f9054906101000a900473ffffffffffffffffffffffffffffffffffffffff1690805f0160149054906101000a900460ff16905082565b5f60135f3373ffffffffffffffffffffffffffffffffffffffff1673ffffffffffffffffffffffffffffffffffffffff1681526020019081526020015f205f9054906101000a900460ff16610de4576040517f08c379a0000000000000000000000000000000000000000000000000000000008152600401610ddb9061700d565b60405180910390fd5b5f54905090565b60148181548110610dfa575f80fd5b905f5260205f20015f915054906101000a900473ffffffffffffffffffffffffffffffffffffffff1681565b600a602052815f5260405f208181548110610e3f575f80fd5b905f5260205f20015f91509150505481565b600e602052805f5260405f205f915090505481565b60605f80606080610e75612659565b9450610e7f610d5a565b9350610e89613c23565b9250610e93613746565b9150610e9d61494f565b90509091929394565b60605f610eb284614ad2565b90508083604051602001610ec79291906171d7565b60405160208183030381529060405291505092915050565b6060600f805480602002602001604051908101604052809291908181526020015f905b82821015610f4f578382905f5260205f2090600302016040518060600160405290815f82015481526020016001820154815260200160028201548152505081526020019060010190610f02565b50505050905090565b600e5f8281526020019081526020015f205f815480929190610f799061725e565b9190505550600a5f8281526020019081526020015f2042908060018154018082558091505060019003905f5260205f20015f909190919091505550565b60165f9054906101000a900473ffffffffffffffffffffffffffffffffffffffff1681565b6060600a5f8381526020019081526020015f2080548060200260200160405190810160405280929190818152602001828054801561103657602002820191905f5260205f20905b815481526020019060010190808311611022575b50505050509050919050565b5f60075f3373ffffffffffffffffffffffffffffffffffffffff1673ffffffffffffffffffffffffffffffffffffffff1681526020019081526020015f2054905090565b601183836040516110989291906172c9565b908152602001604051809103902081908060018154018082558091505060019003905f5260205f2090600202015f909190919091505f820151815f0155602082015181600101555050505050565b600f81815481106110f5575f80fd5b905f5260205f2090600302015f91509050805f0154908060010154908060020154905083565b60025481565b5f60155f9054906101000a900473ffffffffffffffffffffffffffffffffffffffff168073ffffffffffffffffffffffffffffffffffffffff163373ffffffffffffffffffffffffffffffffffffffff16146111b2576040517f08c379a00000000000000000000000000000000000000000000000000000000081526004016111a990617377565b60405180910390fd5b8260165f6101000a81548173ffffffffffffffffffffffffffffffffffffffff021916908373ffffffffffffffffffffffffffffffffffffffff1602179055506001915050919050565b6060600d5f3373ffffffffffffffffffffffffffffffffffffffff1673ffffffffffffffffffffffffffffffffffffffff1681526020019081526020015f20805480602002602001604051908101604052809291908181526020015f905b828210156113fc578382905f5260205f2090600402016040518060a00160405290815f82015f9054906101000a900473ffffffffffffffffffffffffffffffffffffffff1673ffffffffffffffffffffffffffffffffffffffff1673ffffffffffffffffffffffffffffffffffffffff1681526020015f820160149054906101000a900460ff1660ff1660ff1681526020016001820180548060200260200160405190810160405280929190818152602001828054801561133857602002820191905f5260205f20905b815481526020019060010190808311611324575b505050505081526020016002820180548060200260200160405190810160405280929190818152602001828054801561138e57602002820191905f5260205f20905b81548152602001906001019080831161137a575b50505050508152602001600382018054806020026020016040519081016040528092919081815260200182805480156113e457602002820191905f5260205f20905b8154815260200190600101908083116113d0575b5050505050815250508152602001906001019061125a565b50505050905090565b60185f9054906101000a900473ffffffffffffffffffffffffffffffffffffffff1681565b6010602052815f5260405f208181548110611443575f80fd5b905f5260205f2090600202015f9150915050805f0154908060010154905082565b60128181548110611473575f80fd5b905f5260205f20015f915090505481565b5f805b60105f8573ffffffffffffffffffffffffffffffffffffffff1673ffffffffffffffffffffffffffffffffffffffff1681526020019081526020015f20805490508160ff1610156115bb578260105f8673ffffffffffffffffffffffffffffffffffffffff1673ffffffffffffffffffffffffffffffffffffffff1681526020019081526020015f208260ff168154811061152557611524617395565b5b905f5260205f2090600202015f0154036115a8574260105f8673ffffffffffffffffffffffffffffffffffffffff1673ffffffffffffffffffffffffffffffffffffffff1681526020019081526020015f208260ff168154811061158c5761158b617395565b5b905f5260205f20906002020160010181905550600191506115bb565b80806115b3906173c2565b915050611487565b5080611653575f604051806040016040528084815260200142815250905060105f8573ffffffffffffffffffffffffffffffffffffffff1673ffffffffffffffffffffffffffffffffffffffff1681526020019081526020015f2081908060018154018082558091505060019003905f5260205f2090600202015f909190919091505f820151815f0155602082015181600101555050505b601242908060018154018082558091505060019003905f5260205f20015f9091909190915055505050565b5f60155f9054906101000a900473ffffffffffffffffffffffffffffffffffffffff168073ffffffffffffffffffffffffffffffffffffffff163373ffffffffffffffffffffffffffffffffffffffff161461170f576040517f08c379a000000000000000000000000000000000000000000000000000000000815260040161170690617377565b60405180910390fd5b8260175f6101000a81548173ffffffffffffffffffffffffffffffffffffffff021916908373ffffffffffffffffffffffffffffffffffffffff1602179055506001915050919050565b5f8060088054905067ffffffffffffffff81111561177a57611779615c75565b5b6040519080825280602002602001820160405280156117a85781602001602082028036833780820191505090505b5090505f5b600880549050811015611be45761186c600882815481106117d1576117d0617395565b5b905f5260205f2090600602015f0180546117ea90617417565b80601f016020809104026020016040519081016040528092919081815260200182805461181690617417565b80156118615780601f1061183857610100808354040283529160200191611861565b820191905f5260205f20905b81548152906001019060200180831161184457829003601f168201915b505050505085614b9c565b15611bd7576008818154811061188557611884617395565b5b905f5260205f2090600602016004018054905092505f5b838110156119e5575f60175f9054906101000a900473ffffffffffffffffffffffffffffffffffffffff1673ffffffffffffffffffffffffffffffffffffffff1663b9db15b4600885815481106118f6576118f5617395565b5b905f5260205f209060060201600401848154811061191757611916617395565b5b905f5260205f2001546040518263ffffffff1660e01b815260040161193c91906156c4565b5f60405180830381865afa158015611956573d5f803e3d5ffd5b505050506040513d5f823e3d601f19601f8201168201806040525081019061197e9190617ab6565b90508060200151610180015184838151811061199d5761199c617395565b5b602002602001019073ffffffffffffffffffffffffffffffffffffffff16908173ffffffffffffffffffffffffffffffffffffffff168152505050808060010191505061189c565b50600860016008805490506119fa9190617afd565b81548110611a0b57611a0a617395565b5b905f5260205f20906006020160088281548110611a2b57611a2a617395565b5b905f5260205f2090600602015f8201815f019081611a499190617cd9565b50600182015f9054906101000a900460ff16816001015f6101000a81548160ff021916908360ff1602179055506001820160019054906101000a900473ffffffffffffffffffffffffffffffffffffffff168160010160016101000a81548173ffffffffffffffffffffffffffffffffffffffff021916908373ffffffffffffffffffffffffffffffffffffffff16021790555060028201816002019081611af19190617e2b565b50600382015481600301556004820181600401908054611b129291906153c1565b506005820181600501908054611b299291906153c1565b509050506008805480611b3f57611b3e617f10565b5b600190038181905f5260205f2090600602015f8082015f611b60919061540f565b600182015f6101000a81549060ff02191690556001820160016101000a81549073ffffffffffffffffffffffffffffffffffffffff0219169055600282015f611ba9919061544c565b600382015f9055600482015f611bbf9190615489565b600582015f611bce9190615489565b50509055611be4565b80806001019150506117ad565b505f5b8151811015611f1c575f828281518110611c0457611c03617395565b5b602002602001015190505f60095f8373ffffffffffffffffffffffffffffffffffffffff1673ffffffffffffffffffffffffffffffffffffffff1681526020019081526020015f2090505f5b8180549050811015611f0c57611d0d828281548110611c7257611c71617395565b5b905f5260205f2090600602015f018054611c8b90617417565b80601f0160208091040260200160405190810160405280929190818152602001828054611cb790617417565b8015611d025780601f10611cd957610100808354040283529160200191611d02565b820191905f5260205f20905b815481529060010190602001808311611ce557829003601f168201915b505050505088614b9c565b15611eff578160018380549050611d249190617afd565b81548110611d3557611d34617395565b5b905f5260205f209060060201828281548110611d5457611d53617395565b5b905f5260205f2090600602015f8201815f019081611d729190617cd9565b50600182015f9054906101000a900460ff16816001015f6101000a81548160ff021916908360ff1602179055506001820160019054906101000a900473ffffffffffffffffffffffffffffffffffffffff168160010160016101000a81548173ffffffffffffffffffffffffffffffffffffffff021916908373ffffffffffffffffffffffffffffffffffffffff16021790555060028201816002019081611e1a9190617e2b565b50600382015481600301556004820181600401908054611e3b9291906153c1565b506005820181600501908054611e529291906153c1565b5090505081805480611e6757611e66617f10565b5b600190038181905f5260205f2090600602015f8082015f611e88919061540f565b600182015f6101000a81549060ff02191690556001820160016101000a81549073ffffffffffffffffffffffffffffffffffffffff0219169055600282015f611ed1919061544c565b600382015f9055600482015f611ee79190615489565b600582015f611ef69190615489565b50509055611f0c565b8080600101915050611c50565b5050508080600101915050611be7565b50505050565b5f805f60135f3373ffffffffffffffffffffffffffffffffffffffff1673ffffffffffffffffffffffffffffffffffffffff1681526020019081526020015f205f9054906101000a900460ff16611fae576040517f08c379a0000000000000000000000000000000000000000000000000000000008152600401611fa59061700d565b60405180910390fd5b600354600454600554925092509250909192565b5f60045411611fea60016040518060600160405280602381526020016191ef60239139610ea6565b9061202b576040517f08c379a00000000000000000000000000000000000000000000000000000000081526004016120229190615e3b565b60405180910390fd5b5060045f81548092919061203e90617f3d565b9190505550565b5f60155f9054906101000a900473ffffffffffffffffffffffffffffffffffffffff168073ffffffffffffffffffffffffffffffffffffffff163373ffffffffffffffffffffffffffffffffffffffff16146120d6576040517f08c379a00000000000000000000000000000000000000000000000000000000081526004016120cd90617377565b60405180910390fd5b600160135f8573ffffffffffffffffffffffffffffffffffffffff1673ffffffffffffffffffffffffffffffffffffffff1681526020019081526020015f205f6101000a81548160ff021916908315150217905550601483908060018154018082558091505060019003905f5260205f20015f9091909190916101000a81548173ffffffffffffffffffffffffffffffffffffffff021916908373ffffffffffffffffffffffffffffffffffffffff1602179055506001915050919050565b6060600b5f8381526020019081526020015f208054806020026020016040519081016040528092919081815260200182805480156121f057602002820191905f5260205f20905b8154815260200190600101908083116121dc575b50505050509050919050565b60608060605f60175f9054906101000a900473ffffffffffffffffffffffffffffffffffffffff1673ffffffffffffffffffffffffffffffffffffffff1663c29b2f206040518163ffffffff1660e01b81526004015f60405180830381865afa15801561226b573d5f803e3d5ffd5b505050506040513d5f823e3d601f19601f820116820180604052508101906122939190618042565b90505f815167ffffffffffffffff8111156122b1576122b0615c75565b5b6040519080825280602002602001820160405280156122df5781602001602082028036833780820191505090505b5090505f825167ffffffffffffffff8111156122fe576122fd615c75565b5b60405190808252806020026020018201604052801561232c5781602001602082028036833780820191505090505b509050825167ffffffffffffffff81111561234a57612349615c75565b5b6040519080825280602002602001820160405280156123785781602001602082028036833780820191505090505b5093505f5b83518110156125225783818151811061239957612398617395565b5b60200260200101515f01518382815181106123b7576123b6617395565b5b602002602001018181525050600e5f8583815181106123d9576123d8617395565b5b60200260200101515f015181526020019081526020015f205482828151811061240557612404617395565b5b6020026020010181815250505f600a5f86848151811061242857612427617395565b5b60200260200101515f015181526020019081526020015f208054905011156124f457600a5f8583815181106124605761245f617395565b5b60200260200101515f015181526020019081526020015f206001600a5f8785815181106124905761248f617395565b5b60200260200101515f015181526020019081526020015f20805490506124b69190617afd565b815481106124c7576124c6617395565b5b905f5260205f2001548582815181106124e3576124e2617395565b5b602002602001018181525050612515565b5f85828151811061250857612507617395565b5b6020026020010181815250505b808060010191505061237d565b50818195509550505050909192565b5f5481565b6006602052805f5260405f205f915090505481565b60045481565b5f805b600f805490508160ff1610156125e75782600f8260ff168154811061257c5761257b617395565b5b905f5260205f2090600302015f0154036125d457600f8160ff16815481106125a7576125a6617395565b5b905f5260205f2090600302016001015f8154809291906125c69061725e565b9190505550600191506125e7565b80806125df906173c2565b915050612554565b5080612655575f604051806060016040528084815260200160018152602001428152509050600f81908060018154018082558091505060019003905f5260205f2090600302015f909190919091505f820151815f015560208201518160010155604082015181600201555050505b5050565b606060135f3373ffffffffffffffffffffffffffffffffffffffff1673ffffffffffffffffffffffffffffffffffffffff1681526020019081526020015f205f9054906101000a900460ff166126e4576040517f08c379a00000000000000000000000000000000000000000000000000000000081526004016126db9061700d565b60405180910390fd5b6008805480602002602001604051908101604052809291908181526020015f905b8282101561297c578382905f5260205f2090600602016040518060e00160405290815f8201805461273590617417565b80601f016020809104026020016040519081016040528092919081815260200182805461276190617417565b80156127ac5780601f10612783576101008083540402835291602001916127ac565b820191905f5260205f20905b81548152906001019060200180831161278f57829003601f168201915b50505050508152602001600182015f9054906101000a900460ff1660ff1660ff1681526020016001820160019054906101000a900473ffffffffffffffffffffffffffffffffffffffff1673ffffffffffffffffffffffffffffffffffffffff1673ffffffffffffffffffffffffffffffffffffffff16815260200160028201805461283790617417565b80601f016020809104026020016040519081016040528092919081815260200182805461286390617417565b80156128ae5780601f10612885576101008083540402835291602001916128ae565b820191905f5260205f20905b81548152906001019060200180831161289157829003601f168201915b50505050508152602001600382015481526020016004820180548060200260200160405190810160405280929190818152602001828054801561290e57602002820191905f5260205f20905b8154815260200190600101908083116128fa575b505050505081526020016005820180548060200260200160405190810160405280929190818152602001828054801561296457602002820191905f5260205f20905b815481526020019060010190808311612950575b50505050508152505081526020019060010190612705565b50505050905090565b5f816129cd57600d5f8573ffffffffffffffffffffffffffffffffffffffff1673ffffffffffffffffffffffffffffffffffffffff1681526020019081526020015f206129d0565b600c5b90505f805b8280549050811015612c4f578873ffffffffffffffffffffffffffffffffffffffff16838281548110612a0b57612a0a617395565b5b905f5260205f2090600402015f015f9054906101000a900473ffffffffffffffffffffffffffffffffffffffff1673ffffffffffffffffffffffffffffffffffffffff1603612c4257600191505f805b848381548110612a6e57612a6d617395565b5b905f5260205f20906004020160010180549050811015612b635789858481548110612a9c57612a9b617395565b5b905f5260205f2090600402016001018281548110612abd57612abc617395565b5b905f5260205f20015403612b565742858481548110612adf57612ade617395565b5b905f5260205f2090600402016003018281548110612b0057612aff617395565b5b905f5260205f20018190555088858481548110612b2057612b1f617395565b5b905f5260205f2090600402016002018281548110612b4157612b40617395565b5b905f5260205f20018190555060019150612b63565b8080600101915050612a5b565b5080612c3c57838281548110612b7c57612b7b617395565b5b905f5260205f20906004020160010189908060018154018082558091505060019003905f5260205f20015f9091909190915055838281548110612bc257612bc1617395565b5b905f5260205f20906004020160030142908060018154018082558091505060019003905f5260205f20015f9091909190915055838281548110612c0857612c07617395565b5b905f5260205f20906004020160020188908060018154018082558091505060019003905f5260205f20015f90919091909150555b50612c4f565b80806001019150506129d5565b5080612d4a575f612c61888887614bc3565b90508281908060018154018082558091505060019003905f5260205f2090600402015f909190919091505f820151815f015f6101000a81548173ffffffffffffffffffffffffffffffffffffffff021916908373ffffffffffffffffffffffffffffffffffffffff1602179055506020820151815f0160146101000a81548160ff021916908360ff1602179055506040820151816001019080519060200190612d0b9291906154a7565b506060820151816002019080519060200190612d289291906154a7565b506080820151816003019080519060200190612d459291906154a7565b505050505b5050505050505050565b60155f9054906101000a900473ffffffffffffffffffffffffffffffffffffffff1681565b5f60175f9054906101000a900473ffffffffffffffffffffffffffffffffffffffff1673ffffffffffffffffffffffffffffffffffffffff166366573f6183606001516040518263ffffffff1660e01b8152600401612dd89190615fd7565b5f60405180830381865afa158015612df2573d5f803e3d5ffd5b505050506040513d5f823e3d601f19601f82011682018060405250810190612e1a9190618149565b90505f612e2682614d75565b90505f6040518060e00160405280855f01518152602001856020015160ff168152602001856040015173ffffffffffffffffffffffffffffffffffffffff1681526020018381526020014281526020018560600151815260200185608001518152509050600881908060018154018082558091505060019003905f5260205f2090600602015f909190919091505f820151815f019081612ec69190618190565b506020820151816001015f6101000a81548160ff021916908360ff16021790555060408201518160010160016101000a81548173ffffffffffffffffffffffffffffffffffffffff021916908373ffffffffffffffffffffffffffffffffffffffff1602179055506060820151816002019081612f43919061825f565b506080820151816003015560a0820151816004019080519060200190612f6a9291906154a7565b5060c0820151816005019080519060200190612f879291906154a7565b5050505f5b8460600151518110156133ee575f60175f9054906101000a900473ffffffffffffffffffffffffffffffffffffffff1673ffffffffffffffffffffffffffffffffffffffff1663b9db15b487606001518481518110612fee57612fed617395565b5b60200260200101516040518263ffffffff1660e01b815260040161301291906156c4565b5f60405180830381865afa15801561302c573d5f803e3d5ffd5b505050506040513d5f823e3d601f19601f820116820180604052508101906130549190617ab6565b90505f60185f9054906101000a900473ffffffffffffffffffffffffffffffffffffffff1673ffffffffffffffffffffffffffffffffffffffff16636386c1c7836020015161018001516040518263ffffffff1660e01b81526004016130ba9190615708565b5f60405180830381865afa1580156130d4573d5f803e3d5ffd5b505050506040513d5f823e3d601f19601f820116820180604052508101906130fc91906186bb565b5090505f6040518060e00160405280895f01518152602001896020015160ff168152602001896040015173ffffffffffffffffffffffffffffffffffffffff16815260200183602001516040516020016131569190615e3b565b604051602081830303815290604052815260200142815260200189606001515167ffffffffffffffff81111561318f5761318e615c75565b5b6040519080825280602002602001820160405280156131bd5781602001602082028036833780820191505090505b50815260200189606001515167ffffffffffffffff8111156131e2576131e1615c75565b5b6040519080825280602002602001820160405280156132105781602001602082028036833780820191505090505b5081525090508760600151848151811061322d5761322c617395565b5b60200260200101518160a00151858151811061324c5761324b617395565b5b6020026020010181815250508760800151848151811061326f5761326e617395565b5b60200260200101518160c00151858151811061328e5761328d617395565b5b60200260200101818152505060095f8460200151610180015173ffffffffffffffffffffffffffffffffffffffff1673ffffffffffffffffffffffffffffffffffffffff1681526020019081526020015f2081908060018154018082558091505060019003905f5260205f2090600602015f909190919091505f820151815f01908161331a9190618190565b506020820151816001015f6101000a81548160ff021916908360ff16021790555060408201518160010160016101000a81548173ffffffffffffffffffffffffffffffffffffffff021916908373ffffffffffffffffffffffffffffffffffffffff1602179055506060820151816002019081613397919061825f565b506080820151816003015560a08201518160040190805190602001906133be9291906154a7565b5060c08201518160050190805190602001906133db9291906154a7565b5050505050508080600101915050612f8c565b5050505050565b6011828051602081018201805184825260208301602085012081835280955050505050508181548110613426575f80fd5b905f5260205f2090600202015f9150915050805f0154908060010154905082565b5f6001541161346f600160405180606001604052806029815260200161921260299139610ea6565b906134b0576040517f08c379a00000000000000000000000000000000000000000000000000000000081526004016134a79190615e3b565b60405180910390fd5b505f60075f8373ffffffffffffffffffffffffffffffffffffffff1673ffffffffffffffffffffffffffffffffffffffff1681526020019081526020015f205411613514600260405180606001604052806025815260200161925f60259139610ea6565b90613555576040517f08c379a000000000000000000000000000000000000000000000000000000000815260040161354c9190615e3b565b60405180910390fd5b5060015f81548092919061356890617f3d565b919050555060075f8273ffffffffffffffffffffffffffffffffffffffff1673ffffffffffffffffffffffffffffffffffffffff1681526020019081526020015f205f8154809291906135ba90617f3d565b919050555050565b6009602052815f5260405f2081815481106135db575f80fd5b905f5260205f2090600602015f9150915050805f0180546135fb90617417565b80601f016020809104026020016040519081016040528092919081815260200182805461362790617417565b80156136725780601f1061364957610100808354040283529160200191613672565b820191905f5260205f20905b81548152906001019060200180831161365557829003601f168201915b505050505090806001015f9054906101000a900460ff16908060010160019054906101000a900473ffffffffffffffffffffffffffffffffffffffff16908060020180546136bf90617417565b80601f01602080910402602001604051908101604052809291908181526020018280546136eb90617417565b80156137365780601f1061370d57610100808354040283529160200191613736565b820191905f5260205f20905b81548152906001019060200180831161371957829003601f168201915b5050505050908060030154905085565b606060135f3373ffffffffffffffffffffffffffffffffffffffff1673ffffffffffffffffffffffffffffffffffffffff1681526020019081526020015f205f9054906101000a900460ff166137d1576040517f08c379a00000000000000000000000000000000000000000000000000000000081526004016137c89061700d565b60405180910390fd5b600c805480602002602001604051908101604052809291908181526020015f905b82821015613994578382905f5260205f2090600402016040518060a00160405290815f82015f9054906101000a900473ffffffffffffffffffffffffffffffffffffffff1673ffffffffffffffffffffffffffffffffffffffff1673ffffffffffffffffffffffffffffffffffffffff1681526020015f820160149054906101000a900460ff1660ff1660ff168152602001600182018054806020026020016040519081016040528092919081815260200182805480156138d057602002820191905f5260205f20905b8154815260200190600101908083116138bc575b505050505081526020016002820180548060200260200160405190810160405280929190818152602001828054801561392657602002820191905f5260205f20905b815481526020019060010190808311613912575b505050505081526020016003820180548060200260200160405190810160405280929190818152602001828054801561397c57602002820191905f5260205f20905b815481526020019060010190808311613968575b505050505081525050815260200190600101906137f2565b50505050905090565b60015481565b6013602052805f5260405f205f915054906101000a900460ff1681565b60175f9054906101000a900473ffffffffffffffffffffffffffffffffffffffff1681565b5f60065f3373ffffffffffffffffffffffffffffffffffffffff1673ffffffffffffffffffffffffffffffffffffffff1681526020019081526020015f2054905090565b606060105f3373ffffffffffffffffffffffffffffffffffffffff1673ffffffffffffffffffffffffffffffffffffffff1681526020019081526020015f20805480602002602001604051908101604052809291908181526020015f905b82821015613aca578382905f5260205f2090600202016040518060400160405290815f820154815260200160018201548152505081526020019060010190613a87565b50505050905090565b606080606060165f9054906101000a900473ffffffffffffffffffffffffffffffffffffffff1673ffffffffffffffffffffffffffffffffffffffff166363c69f08336040518263ffffffff1660e01b8152600401613b329190615708565b5f60405180830381865afa158015613b4c573d5f803e3d5ffd5b505050506040513d5f823e3d601f19601f82011682018060405250810190613b749190618b76565b925060185f9054906101000a900473ffffffffffffffffffffffffffffffffffffffff1673ffffffffffffffffffffffffffffffffffffffff16634fffd6ac336040518263ffffffff1660e01b8152600401613bd09190615708565b5f60405180830381865afa158015613bea573d5f803e3d5ffd5b505050506040513d5f823e3d601f19601f82011682018060405250810190613c129190618cde565b9150613c1c613a29565b9050909192565b5f60135f3373ffffffffffffffffffffffffffffffffffffffff1673ffffffffffffffffffffffffffffffffffffffff1681526020019081526020015f205f9054906101000a900460ff16613cad576040517f08c379a0000000000000000000000000000000000000000000000000000000008152600401613ca49061700d565b60405180910390fd5b600154905090565b600b5f8281526020019081526020015f2042908060018154018082558091505060019003905f5260205f20015f909190919091505550565b60055f815480929190613cff9061725e565b9190505550565b600b602052815f5260405f208181548110613d1f575f80fd5b905f5260205f20015f91509150505481565b60605f806060613d3f614671565b9350613d496139e5565b9250613d53611042565b9150613d5d6111fc565b905090919293565b5f805411613d8c600160405180606001604052806024815260200161923b60249139610ea6565b90613dcd576040517f08c379a0000000000000000000000000000000000000000000000000000000008152600401613dc49190615e3b565b60405180910390fd5b505f60065f8373ffffffffffffffffffffffffffffffffffffffff1673ffffffffffffffffffffffffffffffffffffffff1681526020019081526020015f205411613e4e60026040518060400160405280602081526020017f496e76616c696420636f756e743a2072657461696c6572206661766f72697465815250610ea6565b90613e8f576040517f08c379a0000000000000000000000000000000000000000000000000000000008152600401613e869190615e3b565b60405180910390fd5b505f80815480929190613ea190617f3d565b919050555060065f8273ffffffffffffffffffffffffffffffffffffffff1673ffffffffffffffffffffffffffffffffffffffff1681526020019081526020015f205f815480929190613ef390617f3d565b919050555050565b600c8181548110613f0a575f80fd5b905f5260205f2090600402015f91509050805f015f9054906101000a900473ffffffffffffffffffffffffffffffffffffffff1690805f0160149054906101000a900460ff16905082565b5f60155f9054906101000a900473ffffffffffffffffffffffffffffffffffffffff168073ffffffffffffffffffffffffffffffffffffffff163373ffffffffffffffffffffffffffffffffffffffff1614613fe6576040517f08c379a0000000000000000000000000000000000000000000000000000000008152600401613fdd90617377565b60405180910390fd5b8260185f6101000a81548173ffffffffffffffffffffffffffffffffffffffff021916908373ffffffffffffffffffffffffffffffffffffffff1602179055506001915050919050565b60055481565b5f8161407e57600d5f8473ffffffffffffffffffffffffffffffffffffffff1673ffffffffffffffffffffffffffffffffffffffff1681526020019081526020015f20614081565b600c5b90505f5b81805490508110156141f9578573ffffffffffffffffffffffffffffffffffffffff168282815481106140bb576140ba617395565b5b905f5260205f2090600402015f015f9054906101000a900473ffffffffffffffffffffffffffffffffffffffff1673ffffffffffffffffffffffffffffffffffffffff16036141ec575f5b82828154811061411957614118617395565b5b905f5260205f209060040201600101805490508110156141ea578583838154811061414757614146617395565b5b905f5260205f209060040201600101828154811061416857614167617395565b5b905f5260205f200154036141dd5761419e83838154811061418c5761418b617395565b5b905f5260205f20906004020182614ee8565b5f8383815481106141b2576141b1617395565b5b905f5260205f20906004020160010180549050036141d5576141d48383615086565b5b5050506141fc565b8080600101915050614106565b505b8080600101915050614085565b50505b50505050565b6007602052805f5260405f205f915090505481565b60088181548110614226575f80fd5b905f5260205f2090600602015f91509050805f01805461424590617417565b80601f016020809104026020016040519081016040528092919081815260200182805461427190617417565b80156142bc5780601f10614293576101008083540402835291602001916142bc565b820191905f5260205f20905b81548152906001019060200180831161429f57829003601f168201915b505050505090806001015f9054906101000a900460ff16908060010160019054906101000a900473ffffffffffffffffffffffffffffffffffffffff169080600201805461430990617417565b80601f016020809104026020016040519081016040528092919081815260200182805461433590617417565b80156143805780601f1061435757610100808354040283529160200191614380565b820191905f5260205f20905b81548152906001019060200180831161436357829003601f168201915b5050505050908060030154905085565b606061439a6154f2565b606060135f3373ffffffffffffffffffffffffffffffffffffffff1673ffffffffffffffffffffffffffffffffffffffff1681526020019081526020015f205f9054906101000a900460ff16614425576040517f08c379a000000000000000000000000000000000000000000000000000000000815260040161441c9061700d565b60405180910390fd5b60165f9054906101000a900473ffffffffffffffffffffffffffffffffffffffff1673ffffffffffffffffffffffffffffffffffffffff166363c69f08856040518263ffffffff1660e01b815260040161447f9190615708565b5f60405180830381865afa158015614499573d5f803e3d5ffd5b505050506040513d5f823e3d601f19601f820116820180604052508101906144c19190618b76565b925060165f9054906101000a900473ffffffffffffffffffffffffffffffffffffffff1673ffffffffffffffffffffffffffffffffffffffff16631fda90a2856040518263ffffffff1660e01b815260040161451d9190615708565b5f60405180830381865afa158015614537573d5f803e3d5ffd5b505050506040513d5f823e3d601f19601f8201168201806040525081019061455f9190618eeb565b915060175f9054906101000a900473ffffffffffffffffffffffffffffffffffffffff1673ffffffffffffffffffffffffffffffffffffffff1663c7853148856040518263ffffffff1660e01b81526004016145bb9190615708565b5f60405180830381865afa1580156145d5573d5f803e3d5ffd5b505050506040513d5f823e3d601f19601f820116820180604052508101906145fd919061903f565b90509193909250565b5f808154809291906146179061725e565b919050555060065f8273ffffffffffffffffffffffffffffffffffffffff1673ffffffffffffffffffffffffffffffffffffffff1681526020019081526020015f205f8154809291906146699061725e565b919050555050565b606060095f3373ffffffffffffffffffffffffffffffffffffffff1673ffffffffffffffffffffffffffffffffffffffff1681526020019081526020015f20805480602002602001604051908101604052809291908181526020015f905b82821015614946578382905f5260205f2090600602016040518060e00160405290815f820180546146ff90617417565b80601f016020809104026020016040519081016040528092919081815260200182805461472b90617417565b80156147765780601f1061474d57610100808354040283529160200191614776565b820191905f5260205f20905b81548152906001019060200180831161475957829003601f168201915b50505050508152602001600182015f9054906101000a900460ff1660ff1660ff1681526020016001820160019054906101000a900473ffffffffffffffffffffffffffffffffffffffff1673ffffffffffffffffffffffffffffffffffffffff1673ffffffffffffffffffffffffffffffffffffffff16815260200160028201805461480190617417565b80601f016020809104026020016040519081016040528092919081815260200182805461482d90617417565b80156148785780601f1061484f57610100808354040283529160200191614878565b820191905f5260205f20905b81548152906001019060200180831161485b57829003601f168201915b5050505050815260200160038201548152602001600482018054806020026020016040519081016040528092919081815260200182805480156148d857602002820191905f5260205f20905b8154815260200190600101908083116148c4575b505050505081526020016005820180548060200260200160405190810160405280929190818152602001828054801561492e57602002820191905f5260205f20905b81548152602001906001019080831161491a575b505050505081525050815260200190600101906146cf565b50505050905090565b606060135f3373ffffffffffffffffffffffffffffffffffffffff1673ffffffffffffffffffffffffffffffffffffffff1681526020019081526020015f205f9054906101000a900460ff166149da576040517f08c379a00000000000000000000000000000000000000000000000000000000081526004016149d19061700d565b60405180910390fd5b6012805480602002602001604051908101604052809291908181526020018280548015614a2457602002820191905f5260205f20905b815481526020019060010190808311614a10575b5050505050905090565b60035f815480929190614a409061725e565b9190505550565b60035481565b60045f815480929190614a5f9061725e565b9190505550565b60015f815480929190614a789061725e565b919050555060075f8273ffffffffffffffffffffffffffffffffffffffff1673ffffffffffffffffffffffffffffffffffffffff1681526020019081526020015f205f815480929190614aca9061725e565b919050555050565b60605f6001614ae084615270565b0190505f8167ffffffffffffffff811115614afe57614afd615c75565b5b6040519080825280601f01601f191660200182016040528015614b305781602001600182028036833780820191505090505b5090505f82602001820190505b600115614b91578080600190039150507f3031323334353637383961626364656600000000000000000000000000000000600a86061a8153600a8581614b8657614b85619086565b5b0494505f8503614b3d575b819350505050919050565b5f81518351148015614bbb575081805190602001208380519060200120145b905092915050565b614bcb615527565b5f600167ffffffffffffffff811115614be757614be6615c75565b5b604051908082528060200260200182016040528015614c155781602001602082028036833780820191505090505b5090505f600167ffffffffffffffff811115614c3457614c33615c75565b5b604051908082528060200260200182016040528015614c625781602001602082028036833780820191505090505b5090505f600167ffffffffffffffff811115614c8157614c80615c75565b5b604051908082528060200260200182016040528015614caf5781602001602082028036833780820191505090505b50905086835f81518110614cc657614cc5617395565b5b60200260200101818152505085825f81518110614ce657614ce5617395565b5b60200260200101818152505042815f81518110614d0657614d05617395565b5b6020026020010181815250505f6040518060a001604052803373ffffffffffffffffffffffffffffffffffffffff168152602001876001811115614d4d57614d4c6190b3565b5b60ff168152602001858152602001848152602001838152509050809450505050509392505050565b60605f825167ffffffffffffffff811115614d9357614d92615c75565b5b604051908082528060200260200182016040528015614dc657816020015b6060815260200190600190039081614db15790505b5090505f5b8351811015614ebf575f60185f9054906101000a900473ffffffffffffffffffffffffffffffffffffffff1673ffffffffffffffffffffffffffffffffffffffff16636386c1c7868481518110614e2557614e24617395565b5b60200260200101516040518263ffffffff1660e01b8152600401614e499190615708565b5f60405180830381865afa158015614e63573d5f803e3d5ffd5b505050506040513d5f823e3d601f19601f82011682018060405250810190614e8b91906186bb565b5090508060200151838381518110614ea657614ea5617395565b5b6020026020010181905250508080600101915050614dcb565b5080604051602001614ed1919061919b565b604051602081830303815290604052915050919050565b8160010180549050811015615082575f8190505b60018360010180549050614f109190617afd565b81101561500b5782600101600182614f2891906191bb565b81548110614f3957614f38617395565b5b905f5260205f200154836001018281548110614f5857614f57617395565b5b905f5260205f20018190555082600201600182614f7591906191bb565b81548110614f8657614f85617395565b5b905f5260205f200154836002018281548110614fa557614fa4617395565b5b905f5260205f20018190555082600301600182614fc291906191bb565b81548110614fd357614fd2617395565b5b905f5260205f200154836003018281548110614ff257614ff1617395565b5b905f5260205f2001819055508080600101915050614efc565b50816001018054806150205761501f617f10565b5b600190038181905f5260205f20015f905590558160020180548061504757615046617f10565b5b600190038181905f5260205f20015f905590558160030180548061506e5761506d617f10565b5b600190038181905f5260205f20015f905590555b5050565b818054905081101561526c575f8190505b600183805490506150a89190617afd565b8110156151dd57826001826150bd91906191bb565b815481106150ce576150cd617395565b5b905f5260205f2090600402018382815481106150ed576150ec617395565b5b905f5260205f2090600402015f82015f9054906101000a900473ffffffffffffffffffffffffffffffffffffffff16815f015f6101000a81548173ffffffffffffffffffffffffffffffffffffffff021916908373ffffffffffffffffffffffffffffffffffffffff1602179055505f820160149054906101000a900460ff16815f0160146101000a81548160ff021916908360ff160217905550600182018160010190805461519e9291906153c1565b5060028201816002019080546151b59291906153c1565b5060038201816003019080546151cc9291906153c1565b509050508080600101915050615097565b50818054806151ef576151ee617f10565b5b600190038181905f5260205f2090600402015f8082015f6101000a81549073ffffffffffffffffffffffffffffffffffffffff02191690555f820160146101000a81549060ff0219169055600182015f6152499190615489565b600282015f6152589190615489565b600382015f6152679190615489565b505090555b5050565b5f805f90507a184f03e93ff9f4daa797ed6e38ed64bf6a1f01000000000000000083106152cc577a184f03e93ff9f4daa797ed6e38ed64bf6a1f01000000000000000083816152c2576152c1619086565b5b0492506040810190505b6d04ee2d6d415b85acef81000000008310615309576d04ee2d6d415b85acef810000000083816152ff576152fe619086565b5b0492506020810190505b662386f26fc10000831061533857662386f26fc10000838161532e5761532d619086565b5b0492506010810190505b6305f5e1008310615361576305f5e100838161535757615356619086565b5b0492506008810190505b612710831061538657612710838161537c5761537b619086565b5b0492506004810190505b606483106153a9576064838161539f5761539e619086565b5b0492506002810190505b600a83106153b8576001810190505b80915050919050565b828054828255905f5260205f209081019282156153fe575f5260205f209182015b828111156153fd5782548255916001019190600101906153e2565b5b50905061540b919061556d565b5090565b50805461541b90617417565b5f825580601f1061542c5750615449565b601f0160209004905f5260205f2090810190615448919061556d565b5b50565b50805461545890617417565b5f825580601f106154695750615486565b601f0160209004905f5260205f2090810190615485919061556d565b5b50565b5080545f8255905f5260205f20908101906154a4919061556d565b50565b828054828255905f5260205f209081019282156154e1579160200282015b828111156154e05782518255916020019190600101906154c5565b5b5090506154ee919061556d565b5090565b60405180606001604052805f81526020015f73ffffffffffffffffffffffffffffffffffffffff168152602001606081525090565b6040518060a001604052805f73ffffffffffffffffffffffffffffffffffffffff1681526020015f60ff1681526020016060815260200160608152602001606081525090565b5b80821115615584575f815f90555060010161556e565b5090565b5f604051905090565b5f80fd5b5f80fd5b5f73ffffffffffffffffffffffffffffffffffffffff82169050919050565b5f6155c282615599565b9050919050565b6155d2816155b8565b81146155dc575f80fd5b50565b5f813590506155ed816155c9565b92915050565b5f819050919050565b615605816155f3565b811461560f575f80fd5b50565b5f81359050615620816155fc565b92915050565b5f806040838503121561563c5761563b615591565b5b5f615649858286016155df565b925050602061565a85828601615612565b9150509250929050565b61566d816155b8565b82525050565b5f60ff82169050919050565b61568881615673565b82525050565b5f6040820190506156a15f830185615664565b6156ae602083018461567f565b9392505050565b6156be816155f3565b82525050565b5f6020820190506156d75f8301846156b5565b92915050565b5f602082840312156156f2576156f1615591565b5b5f6156ff84828501615612565b91505092915050565b5f60208201905061571b5f830184615664565b92915050565b5f806040838503121561573757615736615591565b5b5f61574485828601615612565b925050602061575585828601615612565b9150509250929050565b5f81519050919050565b5f82825260208201905092915050565b5f819050602082019050919050565b5f81519050919050565b5f82825260208201905092915050565b8281835e5f83830152505050565b5f601f19601f8301169050919050565b5f6157ca82615788565b6157d48185615792565b93506157e48185602086016157a2565b6157ed816157b0565b840191505092915050565b61580181615673565b82525050565b615810816155b8565b82525050565b5f81519050919050565b5f82825260208201905092915050565b5f61583a82615816565b6158448185615820565b93506158548185602086016157a2565b61585d816157b0565b840191505092915050565b615871816155f3565b82525050565b5f81519050919050565b5f82825260208201905092915050565b5f819050602082019050919050565b5f6158ab8383615868565b60208301905092915050565b5f602082019050919050565b5f6158cd82615877565b6158d78185615881565b93506158e283615891565b805f5b838110156159125781516158f988826158a0565b9750615904836158b7565b9250506001810190506158e5565b5085935050505092915050565b5f60e083015f8301518482035f86015261593982826157c0565b915050602083015161594e60208601826157f8565b5060408301516159616040860182615807565b50606083015184820360608601526159798282615830565b915050608083015161598e6080860182615868565b5060a083015184820360a08601526159a682826158c3565b91505060c083015184820360c08601526159c082826158c3565b9150508091505092915050565b5f6159d8838361591f565b905092915050565b5f602082019050919050565b5f6159f68261575f565b615a008185615769565b935083602082028501615a1285615779565b805f5b85811015615a4d5784840389528151615a2e85826159cd565b9450615a39836159e0565b925060208a01995050600181019050615a15565b50829750879550505050505092915050565b5f81519050919050565b5f82825260208201905092915050565b5f819050602082019050919050565b5f60a083015f830151615a9d5f860182615807565b506020830151615ab060208601826157f8565b5060408301518482036040860152615ac882826158c3565b91505060608301518482036060860152615ae282826158c3565b91505060808301518482036080860152615afc82826158c3565b9150508091505092915050565b5f615b148383615a88565b905092915050565b5f602082019050919050565b5f615b3282615a5f565b615b3c8185615a69565b935083602082028501615b4e85615a79565b805f5b85811015615b895784840389528151615b6a8582615b09565b9450615b7583615b1c565b925060208a01995050600181019050615b51565b50829750879550505050505092915050565b5f82825260208201905092915050565b5f615bb582615877565b615bbf8185615b9b565b9350615bca83615891565b805f5b83811015615bfa578151615be188826158a0565b9750615bec836158b7565b925050600181019050615bcd565b5085935050505092915050565b5f60a0820190508181035f830152615c1f81886159ec565b9050615c2e60208301876156b5565b615c3b60408301866156b5565b8181036060830152615c4d8185615b28565b90508181036080830152615c618184615bab565b90509695505050505050565b5f80fd5b5f80fd5b7f4e487b71000000000000000000000000000000000000000000000000000000005f52604160045260245ffd5b615cab826157b0565b810181811067ffffffffffffffff82111715615cca57615cc9615c75565b5b80604052505050565b5f615cdc615588565b9050615ce88282615ca2565b919050565b5f67ffffffffffffffff821115615d0757615d06615c75565b5b615d10826157b0565b9050602081019050919050565b828183375f83830152505050565b5f615d3d615d3884615ced565b615cd3565b905082815260208101848484011115615d5957615d58615c71565b5b615d64848285615d1d565b509392505050565b5f82601f830112615d8057615d7f615c6d565b5b8135615d90848260208601615d2b565b91505092915050565b5f8060408385031215615daf57615dae615591565b5b5f615dbc85828601615612565b925050602083013567ffffffffffffffff811115615ddd57615ddc615595565b5b615de985828601615d6c565b9150509250929050565b5f82825260208201905092915050565b5f615e0d82615788565b615e178185615df3565b9350615e278185602086016157a2565b615e30816157b0565b840191505092915050565b5f6020820190508181035f830152615e538184615e03565b905092915050565b5f81519050919050565b5f82825260208201905092915050565b5f819050602082019050919050565b606082015f820151615e985f850182615868565b506020820151615eab6020850182615868565b506040820151615ebe6040850182615868565b50505050565b5f615ecf8383615e84565b60608301905092915050565b5f602082019050919050565b5f615ef182615e5b565b615efb8185615e65565b9350615f0683615e75565b805f5b83811015615f36578151615f1d8882615ec4565b9750615f2883615edb565b925050600181019050615f09565b5085935050505092915050565b5f6020820190508181035f830152615f5b8184615ee7565b905092915050565b5f819050919050565b5f615f86615f81615f7c84615599565b615f63565b615599565b9050919050565b5f615f9782615f6c565b9050919050565b5f615fa882615f8d565b9050919050565b615fb881615f9e565b82525050565b5f602082019050615fd15f830184615faf565b92915050565b5f6020820190508181035f830152615fef8184615bab565b905092915050565b5f80fd5b5f80fd5b5f8083601f84011261601457616013615c6d565b5b8235905067ffffffffffffffff81111561603157616030615ff7565b5b60208301915083600182028301111561604d5761604c615ffb565b5b9250929050565b5f80fd5b5f80fd5b5f6040828403121561607157616070616054565b5b61607b6040615cd3565b90505f61608a84828501615612565b5f83015250602061609d84828501615612565b60208301525092915050565b5f805f606084860312156160c0576160bf615591565b5b5f84013567ffffffffffffffff8111156160dd576160dc615595565b5b6160e986828701615fff565b935093505060206160fc8682870161605c565b9150509250925092565b5f6060820190506161195f8301866156b5565b61612660208301856156b5565b61613360408301846156b5565b949350505050565b5f602082840312156161505761614f615591565b5b5f61615d848285016155df565b91505092915050565b5f8115159050919050565b61617a81616166565b82525050565b5f6020820190506161935f830184616171565b92915050565b5f6020820190508181035f8301526161b18184615b28565b905092915050565b5f6161c382615f8d565b9050919050565b6161d3816161b9565b82525050565b5f6020820190506161ec5f8301846161ca565b92915050565b5f6040820190506162055f8301856156b5565b61621260208301846156b5565b9392505050565b5f6020828403121561622e5761622d615591565b5b5f82013567ffffffffffffffff81111561624b5761624a615595565b5b61625784828501615d6c565b91505092915050565b5f6060820190508181035f8301526162788186615bab565b9050818103602083015261628c8185615bab565b905081810360408301526162a08184615bab565b9050949350505050565b5f6020820190508181035f8301526162c281846159ec565b905092915050565b600281106162d6575f80fd5b50565b5f813590506162e7816162ca565b92915050565b6162f681616166565b8114616300575f80fd5b50565b5f81359050616311816162ed565b92915050565b5f805f805f8060c0878903121561633157616330615591565b5b5f61633e89828a016155df565b965050602061634f89828a01615612565b955050604061636089828a01615612565b945050606061637189828a016155df565b935050608061638289828a016162d9565b92505060a061639389828a01616303565b9150509295509295509295565b6163a981615673565b81146163b3575f80fd5b50565b5f813590506163c4816163a0565b92915050565b5f67ffffffffffffffff8211156163e4576163e3615c75565b5b602082029050602081019050919050565b5f616407616402846163ca565b615cd3565b9050808382526020820190506020840283018581111561642a57616429615ffb565b5b835b81811015616453578061643f8882615612565b84526020840193505060208101905061642c565b5050509392505050565b5f82601f83011261647157616470615c6d565b5b81356164818482602086016163f5565b91505092915050565b5f60a0828403121561649f5761649e616054565b5b6164a960a0615cd3565b90505f82013567ffffffffffffffff8111156164c8576164c7616058565b5b6164d484828501615d6c565b5f8301525060206164e7848285016163b6565b60208301525060406164fb848285016155df565b604083015250606082013567ffffffffffffffff81111561651f5761651e616058565b5b61652b8482850161645d565b606083015250608082013567ffffffffffffffff81111561654f5761654e616058565b5b61655b8482850161645d565b60808301525092915050565b5f6020828403121561657c5761657b615591565b5b5f82013567ffffffffffffffff81111561659957616598615595565b5b6165a58482850161648a565b91505092915050565b5f80604083850312156165c4576165c3615591565b5b5f83013567ffffffffffffffff8111156165e1576165e0615595565b5b6165ed85828601615d6c565b92505060206165fe85828601615612565b9150509250929050565b5f82825260208201905092915050565b5f61662282615816565b61662c8185616608565b935061663c8185602086016157a2565b616645816157b0565b840191505092915050565b5f60a0820190508181035f8301526166688188615e03565b9050616677602083018761567f565b6166846040830186615664565b81810360608301526166968185616618565b90506166a560808301846156b5565b9695505050505050565b5f6166b982615f8d565b9050919050565b6166c9816166af565b82525050565b5f6020820190506166e25f8301846166c0565b92915050565b5f81519050919050565b5f82825260208201905092915050565b5f819050602082019050919050565b604082015f8201516167255f850182615868565b5060208201516167386020850182615868565b50505050565b5f6167498383616711565b60408301905092915050565b5f602082019050919050565b5f61676b826166e8565b61677581856166f2565b935061678083616702565b805f5b838110156167b0578151616797888261673e565b97506167a283616755565b925050600181019050616783565b5085935050505092915050565b5f6020820190508181035f8301526167d58184616761565b905092915050565b5f81519050919050565b5f82825260208201905092915050565b5f819050602082019050919050565b5f81519050919050565b5f82825260208201905092915050565b5f819050602082019050919050565b5f819050919050565b6168418161682f565b82525050565b5f6168528383616838565b60208301905092915050565b5f602082019050919050565b5f61687482616806565b61687e8185616810565b935061688983616820565b805f5b838110156168b95781516168a08882616847565b97506168ab8361685e565b92505060018101905061688c565b5085935050505092915050565b5f61026083015f8301516168dc5f860182615868565b5060208301516168ef6020860182615807565b5060408301516169026040860182615807565b5060608301516169156060860182615868565b506080830151848203608086015261692d82826158c3565b91505060a083015184820360a086015261694782826158c3565b91505060c083015184820360c0860152616961828261686a565b91505060e083015184820360e086015261697b82826158c3565b91505061010083015184820361010086015261699782826158c3565b9150506101208301518482036101208601526169b382826158c3565b9150506101408301518482036101408601526169cf82826158c3565b9150506101608301516169e6610160860182615868565b506101808301516169fb6101808601826157f8565b506101a0830151616a106101a08601826157f8565b506101c0830151616a256101c0860182616838565b506101e0830151616a3a6101e0860182615868565b50610200830151616a4f610200860182615868565b50610220830151616a646102208601826157f8565b50610240830151616a79610240860182615868565b508091505092915050565b5f616a8f83836168c6565b905092915050565b5f602082019050919050565b5f616aad826167dd565b616ab781856167e7565b935083602082028501616ac9856167f7565b805f5b85811015616b045784840389528151616ae58582616a84565b9450616af083616a97565b925060208a01995050600181019050616acc565b50829750879550505050505092915050565b5f81519050919050565b5f82825260208201905092915050565b5f819050602082019050919050565b606082015f820151616b535f8501826157f8565b506020820151616b666020850182615868565b506040820151616b796040850182615807565b50505050565b5f616b8a8383616b3f565b60608301905092915050565b5f602082019050919050565b5f616bac82616b16565b616bb68185616b20565b9350616bc183616b30565b805f5b83811015616bf1578151616bd88882616b7f565b9750616be383616b96565b925050600181019050616bc4565b5085935050505092915050565b5f6060820190508181035f830152616c168186616aa3565b90508181036020830152616c2a8185616ba2565b90508181036040830152616c3e8184616761565b9050949350505050565b5f6080820190508181035f830152616c6081876159ec565b9050616c6f60208301866156b5565b616c7c60408301856156b5565b8181036060830152616c8e8184615b28565b905095945050505050565b5f805f8060808587031215616cb157616cb0615591565b5b5f616cbe878288016155df565b9450506020616ccf87828801615612565b9350506040616ce0878288016155df565b9250506060616cf187828801616303565b91505092959194509250565b5f81519050919050565b5f82825260208201905092915050565b5f819050602082019050919050565b60a082015f820151616d3a5f850182615868565b506020820151616d4d6020850182615868565b506040820151616d606040850182615868565b506060820151616d736060850182616838565b506080820151616d866080850182615868565b50505050565b5f616d978383616d26565b60a08301905092915050565b5f602082019050919050565b5f616db982616cfd565b616dc38185616d07565b9350616dce83616d17565b805f5b83811015616dfe578151616de58882616d8c565b9750616df083616da3565b925050600181019050616dd1565b5085935050505092915050565b5f606083015f830151616e205f860182615868565b506020830151616e336020860182615807565b5060408301518482036040860152616e4b8282616daf565b9150508091505092915050565b5f81519050919050565b5f82825260208201905092915050565b5f819050602082019050919050565b604082015f820151616e955f850182615868565b506020820151616ea86020850182615868565b50505050565b5f616eb98383616e81565b60408301905092915050565b5f602082019050919050565b5f616edb82616e58565b616ee58185616e62565b9350616ef083616e72565b805f5b83811015616f20578151616f078882616eae565b9750616f1283616ec5565b925050600181019050616ef3565b5085935050505092915050565b5f6060820190508181035f830152616f458186616aa3565b90508181036020830152616f598185616e0b565b90508181036040830152616f6d8184616ed1565b9050949350505050565b7f7b2266726f6d223a202245636f6d50726f647563742e736f6c222c22636f64655f8201527f223a2035332c20226d657373616765223a2022596f7520617265206e6f74206160208201527f6c6c6f7765642e227d0000000000000000000000000000000000000000000000604082015250565b5f616ff7604983615df3565b915061700282616f77565b606082019050919050565b5f6020820190508181035f83015261702481616feb565b9050919050565b5f81905092915050565b7f7b2266726f6d223a202245636f6d496e666f2e736f6c222c00000000000000005f82015250565b5f61706960188361702b565b915061707482617035565b601882019050919050565b7f22636f6465223a200000000000000000000000000000000000000000000000005f82015250565b5f6170b360088361702b565b91506170be8261707f565b600882019050919050565b5f6170d382615788565b6170dd818561702b565b93506170ed8185602086016157a2565b80840191505092915050565b7f2c200000000000000000000000000000000000000000000000000000000000005f82015250565b5f61712d60028361702b565b9150617138826170f9565b600282019050919050565b7f226d657373616765223a202200000000000000000000000000000000000000005f82015250565b5f617177600c8361702b565b915061718282617143565b600c82019050919050565b7f227d0000000000000000000000000000000000000000000000000000000000005f82015250565b5f6171c160028361702b565b91506171cc8261718d565b600282019050919050565b5f6171e18261705d565b91506171ec826170a7565b91506171f882856170c9565b915061720382617121565b915061720e8261716b565b915061721a82846170c9565b9150617225826171b5565b91508190509392505050565b7f4e487b71000000000000000000000000000000000000000000000000000000005f52601160045260245ffd5b5f617268826155f3565b91507fffffffffffffffffffffffffffffffffffffffffffffffffffffffffffffffff820361729a57617299617231565b5b600182019050919050565b5f6172b0838561702b565b93506172bd838584615d1d565b82840190509392505050565b5f6172d58284866172a5565b91508190509392505050565b7f7b2266726f6d223a202245636f6d50726f647563742e736f6c222c22636f64655f8201527f223a2035352c20226d657373616765223a2022596f7520617265206e6f74206160208201527f6c6c6f7765642e227d0000000000000000000000000000000000000000000000604082015250565b5f617361604983615df3565b915061736c826172e1565b606082019050919050565b5f6020820190508181035f83015261738e81617355565b9050919050565b7f4e487b71000000000000000000000000000000000000000000000000000000005f52603260045260245ffd5b5f6173cc82615673565b915060ff82036173df576173de617231565b5b600182019050919050565b7f4e487b71000000000000000000000000000000000000000000000000000000005f52602260045260245ffd5b5f600282049050600182168061742e57607f821691505b602082108103617441576174406173ea565b5b50919050565b5f81519050617455816155fc565b92915050565b5f61746d61746884615ced565b615cd3565b90508281526020810184848401111561748957617488615c71565b5b6174948482856157a2565b509392505050565b5f82601f8301126174b0576174af615c6d565b5b81516174c084826020860161745b565b91505092915050565b5f6174db6174d6846163ca565b615cd3565b905080838252602082019050602084028301858111156174fe576174fd615ffb565b5b835b8181101561752757806175138882617447565b845260208401935050602081019050617500565b5050509392505050565b5f82601f83011261754557617544615c6d565b5b81516175558482602086016174c9565b91505092915050565b5f67ffffffffffffffff82111561757857617577615c75565b5b602082029050602081019050919050565b5f67ffffffffffffffff8211156175a3576175a2615c75565b5b6175ac826157b0565b9050602081019050919050565b5f6175cb6175c684617589565b615cd3565b9050828152602081018484840111156175e7576175e6615c71565b5b6175f28482856157a2565b509392505050565b5f82601f83011261760e5761760d615c6d565b5b815161761e8482602086016175b9565b91505092915050565b5f6176396176348461755e565b615cd3565b9050808382526020820190506020840283018581111561765c5761765b615ffb565b5b835b818110156176a357805167ffffffffffffffff81111561768157617680615c6d565b5b80860161768e89826175fa565b8552602085019450505060208101905061765e565b5050509392505050565b5f82601f8301126176c1576176c0615c6d565b5b81516176d1848260208601617627565b91505092915050565b5f815190506176e8816155c9565b92915050565b5f815190506176fc816162ed565b92915050565b5f610300828403121561771857617717616054565b5b617723610300615cd3565b90505f82015167ffffffffffffffff81111561774257617741616058565b5b61774e8482850161749c565b5f83015250602061776184828501617447565b602083015250604082015167ffffffffffffffff81111561778557617784616058565b5b6177918482850161749c565b60408301525060606177a584828501617447565b60608301525060806177b984828501617447565b60808301525060a06177cd84828501617447565b60a08301525060c06177e184828501617447565b60c08301525060e082015167ffffffffffffffff81111561780557617804616058565b5b61781184828501617531565b60e08301525061010082015167ffffffffffffffff81111561783657617835616058565b5b617842848285016176ad565b6101008301525061012061785884828501617447565b6101208301525061014061786e84828501617447565b6101408301525061016082015167ffffffffffffffff81111561789457617893616058565b5b6178a0848285016176ad565b610160830152506101806178b6848285016176da565b610180830152506101a082015167ffffffffffffffff8111156178dc576178db616058565b5b6178e88482850161749c565b6101a0830152506101c082015167ffffffffffffffff81111561790e5761790d616058565b5b61791a8482850161749c565b6101c0830152506101e0617930848285016176ee565b6101e08301525061020082015167ffffffffffffffff81111561795657617955616058565b5b617962848285016176ad565b6102008301525061022082015167ffffffffffffffff81111561798857617987616058565b5b6179948482850161749c565b610220830152506102406179aa84828501617447565b610240830152506102606179c084828501617447565b610260830152506102806179d684828501617447565b610280830152506102a06179ec848285016176ee565b6102a0830152506102c0617a02848285016176ee565b6102c0830152506102e0617a1884828501617447565b6102e08301525092915050565b5f60808284031215617a3a57617a39616054565b5b617a446080615cd3565b90505f617a5384828501617447565b5f83015250602082015167ffffffffffffffff811115617a7657617a75616058565b5b617a8284828501617702565b6020830152506040617a9684828501617447565b6040830152506060617aaa84828501617447565b60608301525092915050565b5f60208284031215617acb57617aca615591565b5b5f82015167ffffffffffffffff811115617ae857617ae7615595565b5b617af484828501617a25565b91505092915050565b5f617b07826155f3565b9150617b12836155f3565b9250828203905081811115617b2a57617b29617231565b5b92915050565b5f81549050617b3e81617417565b9050919050565b5f819050815f5260205f209050919050565b5f6020601f8301049050919050565b5f82821b905092915050565b5f60088302617ba17fffffffffffffffffffffffffffffffffffffffffffffffffffffffffffffffff82617b66565b617bab8683617b66565b95508019841693508086168417925050509392505050565b5f617bdd617bd8617bd3846155f3565b615f63565b6155f3565b9050919050565b5f819050919050565b617bf683617bc3565b617c0a617c0282617be4565b848454617b72565b825550505050565b5f90565b617c1e617c12565b617c29818484617bed565b505050565b5b81811015617c4c57617c415f82617c16565b600181019050617c2f565b5050565b601f821115617c9157617c6281617b45565b617c6b84617b57565b81016020851015617c7a578190505b617c8e617c8685617b57565b830182617c2e565b50505b505050565b5f82821c905092915050565b5f617cb15f1984600802617c96565b1980831691505092915050565b5f617cc98383617ca2565b9150826002028217905092915050565b818103617ce7575050617dbc565b617cf082617b30565b67ffffffffffffffff811115617d0957617d08615c75565b5b617d138254617417565b617d1e828285617c50565b5f601f831160018114617d4b575f8415617d39578287015490505b617d438582617cbe565b865550617db5565b601f198416617d5987617b45565b9650617d6486617b45565b5f5b82811015617d8b57848901548255600182019150600185019450602081019050617d66565b86831015617da85784890154617da4601f891682617ca2565b8355505b6001600288020188555050505b5050505050505b565b5f81549050617dcc81617417565b9050919050565b5f819050815f5260205f209050919050565b601f821115617e2657617df781617dd3565b617e0084617b57565b81016020851015617e0f578190505b617e23617e1b85617b57565b830182617c2e565b50505b505050565b818103617e39575050617f0e565b617e4282617dbe565b67ffffffffffffffff811115617e5b57617e5a615c75565b5b617e658254617417565b617e70828285617de5565b5f601f831160018114617e9d575f8415617e8b578287015490505b617e958582617cbe565b865550617f07565b601f198416617eab87617dd3565b9650617eb686617dd3565b5f5b82811015617edd57848901548255600182019150600185019450602081019050617eb8565b86831015617efa5784890154617ef6601f891682617ca2565b8355505b6001600288020188555050505b5050505050505b565b7f4e487b71000000000000000000000000000000000000000000000000000000005f52603160045260245ffd5b5f617f47826155f3565b91505f8203617f5957617f58617231565b5b600182039050919050565b5f67ffffffffffffffff821115617f7e57617f7d615c75565b5b602082029050602081019050919050565b5f617fa1617f9c84617f64565b615cd3565b90508083825260208201905060208402830185811115617fc457617fc3615ffb565b5b835b8181101561800b57805167ffffffffffffffff811115617fe957617fe8615c6d565b5b808601617ff68982617a25565b85526020850194505050602081019050617fc6565b5050509392505050565b5f82601f83011261802957618028615c6d565b5b8151618039848260208601617f8f565b91505092915050565b5f6020828403121561805757618056615591565b5b5f82015167ffffffffffffffff81111561807457618073615595565b5b61808084828501618015565b91505092915050565b5f67ffffffffffffffff8211156180a3576180a2615c75565b5b602082029050602081019050919050565b5f6180c66180c184618089565b615cd3565b905080838252602082019050602084028301858111156180e9576180e8615ffb565b5b835b8181101561811257806180fe88826176da565b8452602084019350506020810190506180eb565b5050509392505050565b5f82601f8301126181305761812f615c6d565b5b81516181408482602086016180b4565b91505092915050565b5f6020828403121561815e5761815d615591565b5b5f82015167ffffffffffffffff81111561817b5761817a615595565b5b6181878482850161811c565b91505092915050565b61819982615788565b67ffffffffffffffff8111156181b2576181b1615c75565b5b6181bc8254617417565b6181c7828285617c50565b5f60209050601f8311600181146181f8575f84156181e6578287015190505b6181f08582617cbe565b865550618257565b601f19841661820686617b45565b5f5b8281101561822d57848901518255600182019150602085019450602081019050618208565b8683101561824a5784890151618246601f891682617ca2565b8355505b6001600288020188555050505b505050505050565b61826882615816565b67ffffffffffffffff81111561828157618280615c75565b5b61828b8254617417565b618296828285617de5565b5f60209050601f8311600181146182c7575f84156182b5578287015190505b6182bf8582617cbe565b865550618326565b601f1984166182d586617dd3565b5f5b828110156182fc578489015182556001820191506020850194506020810190506182d7565b868310156183195784890151618315601f891682617ca2565b8355505b6001600288020188555050505b505050505050565b5f8151905061833c816163a0565b92915050565b6003811061834e575f80fd5b50565b5f8151905061835f81618342565b92915050565b5f610140828403121561837b5761837a616054565b5b618386610140615cd3565b90505f618395848285016176da565b5f83015250602082015167ffffffffffffffff8111156183b8576183b7616058565b5b6183c48482850161749c565b602083015250604082015167ffffffffffffffff8111156183e8576183e7616058565b5b6183f48482850161749c565b60408301525060606184088482850161832e565b606083015250608061841c84828501617447565b60808301525060a082015167ffffffffffffffff8111156184405761843f616058565b5b61844c8482850161749c565b60a08301525060c082015167ffffffffffffffff8111156184705761846f616058565b5b61847c8482850161749c565b60c08301525060e061849084828501618351565b60e0830152506101006184a584828501617447565b610100830152506101206184bb848285016176da565b6101208301525092915050565b5f67ffffffffffffffff8211156184e2576184e1615c75565b5b602082029050602081019050919050565b5f60a0828403121561850857618507616054565b5b61851260a0615cd3565b90505f82015167ffffffffffffffff81111561853157618530616058565b5b61853d8482850161749c565b5f83015250602082015167ffffffffffffffff8111156185605761855f616058565b5b61856c8482850161749c565b602083015250604082015167ffffffffffffffff8111156185905761858f616058565b5b61859c8482850161749c565b604083015250606082015167ffffffffffffffff8111156185c0576185bf616058565b5b6185cc8482850161749c565b606083015250608082015167ffffffffffffffff8111156185f0576185ef616058565b5b6185fc8482850161749c565b60808301525092915050565b5f61861a618615846184c8565b615cd3565b9050808382526020820190506020840283018581111561863d5761863c615ffb565b5b835b8181101561868457805167ffffffffffffffff81111561866257618661615c6d565b5b80860161866f89826184f3565b8552602085019450505060208101905061863f565b5050509392505050565b5f82601f8301126186a2576186a1615c6d565b5b81516186b2848260208601618608565b91505092915050565b5f80604083850312156186d1576186d0615591565b5b5f83015167ffffffffffffffff8111156186ee576186ed615595565b5b6186fa85828601618365565b925050602083015167ffffffffffffffff81111561871b5761871a615595565b5b6187278582860161868e565b9150509250929050565b5f67ffffffffffffffff82111561874b5761874a615c75565b5b602082029050602081019050919050565b5f67ffffffffffffffff82111561877657618775615c75565b5b602082029050602081019050919050565b6187908161682f565b811461879a575f80fd5b50565b5f815190506187ab81618787565b92915050565b5f6187c36187be8461875c565b615cd3565b905080838252602082019050602084028301858111156187e6576187e5615ffb565b5b835b8181101561880f57806187fb888261879d565b8452602084019350506020810190506187e8565b5050509392505050565b5f82601f83011261882d5761882c615c6d565b5b815161883d8482602086016187b1565b91505092915050565b5f610260828403121561885c5761885b616054565b5b618867610260615cd3565b90505f61887684828501617447565b5f830152506020618889848285016176da565b602083015250604061889d848285016176da565b60408301525060606188b184828501617447565b606083015250608082015167ffffffffffffffff8111156188d5576188d4616058565b5b6188e184828501617531565b60808301525060a082015167ffffffffffffffff81111561890557618904616058565b5b61891184828501617531565b60a08301525060c082015167ffffffffffffffff81111561893557618934616058565b5b61894184828501618819565b60c08301525060e082015167ffffffffffffffff81111561896557618964616058565b5b61897184828501617531565b60e08301525061010082015167ffffffffffffffff81111561899657618995616058565b5b6189a284828501617531565b6101008301525061012082015167ffffffffffffffff8111156189c8576189c7616058565b5b6189d484828501617531565b6101208301525061014082015167ffffffffffffffff8111156189fa576189f9616058565b5b618a0684828501617531565b61014083015250610160618a1c84828501617447565b61016083015250610180618a328482850161832e565b610180830152506101a0618a488482850161832e565b6101a0830152506101c0618a5e8482850161879d565b6101c0830152506101e0618a7484828501617447565b6101e083015250610200618a8a84828501617447565b61020083015250610220618aa08482850161832e565b61022083015250610240618ab684828501617447565b6102408301525092915050565b5f618ad5618ad084618731565b615cd3565b90508083825260208201905060208402830185811115618af857618af7615ffb565b5b835b81811015618b3f57805167ffffffffffffffff811115618b1d57618b1c615c6d565b5b808601618b2a8982618846565b85526020850194505050602081019050618afa565b5050509392505050565b5f82601f830112618b5d57618b5c615c6d565b5b8151618b6d848260208601618ac3565b91505092915050565b5f60208284031215618b8b57618b8a615591565b5b5f82015167ffffffffffffffff811115618ba857618ba7615595565b5b618bb484828501618b49565b91505092915050565b5f67ffffffffffffffff821115618bd757618bd6615c75565b5b602082029050602081019050919050565b5f60608284031215618bfd57618bfc616054565b5b618c076060615cd3565b90505f618c168482850161832e565b5f830152506020618c2984828501617447565b6020830152506040618c3d848285016176da565b60408301525092915050565b5f618c5b618c5684618bbd565b615cd3565b90508083825260208201905060608402830185811115618c7e57618c7d615ffb565b5b835b81811015618ca75780618c938882618be8565b845260208401935050606081019050618c80565b5050509392505050565b5f82601f830112618cc557618cc4615c6d565b5b8151618cd5848260208601618c49565b91505092915050565b5f60208284031215618cf357618cf2615591565b5b5f82015167ffffffffffffffff811115618d1057618d0f615595565b5b618d1c84828501618cb1565b91505092915050565b5f67ffffffffffffffff821115618d3f57618d3e615c75565b5b602082029050602081019050919050565b5f60a08284031215618d6557618d64616054565b5b618d6f60a0615cd3565b90505f618d7e84828501617447565b5f830152506020618d9184828501617447565b6020830152506040618da584828501617447565b6040830152506060618db98482850161879d565b6060830152506080618dcd84828501617447565b60808301525092915050565b5f618deb618de684618d25565b615cd3565b90508083825260208201905060a08402830185811115618e0e57618e0d615ffb565b5b835b81811015618e375780618e238882618d50565b84526020840193505060a081019050618e10565b5050509392505050565b5f82601f830112618e5557618e54615c6d565b5b8151618e65848260208601618dd9565b91505092915050565b5f60608284031215618e8357618e82616054565b5b618e8d6060615cd3565b90505f618e9c84828501617447565b5f830152506020618eaf848285016176da565b602083015250604082015167ffffffffffffffff811115618ed357618ed2616058565b5b618edf84828501618e41565b60408301525092915050565b5f60208284031215618f0057618eff615591565b5b5f82015167ffffffffffffffff811115618f1d57618f1c615595565b5b618f2984828501618e6e565b91505092915050565b5f67ffffffffffffffff821115618f4c57618f4b615c75565b5b602082029050602081019050919050565b5f60408284031215618f7257618f71616054565b5b618f7c6040615cd3565b90505f618f8b84828501617447565b5f830152506020618f9e84828501617447565b60208301525092915050565b5f618fbc618fb784618f32565b615cd3565b90508083825260208201905060408402830185811115618fdf57618fde615ffb565b5b835b818110156190085780618ff48882618f5d565b845260208401935050604081019050618fe1565b5050509392505050565b5f82601f83011261902657619025615c6d565b5b8151619036848260208601618faa565b91505092915050565b5f6020828403121561905457619053615591565b5b5f82015167ffffffffffffffff81111561907157619070615595565b5b61907d84828501619012565b91505092915050565b7f4e487b71000000000000000000000000000000000000000000000000000000005f52601260045260245ffd5b7f4e487b71000000000000000000000000000000000000000000000000000000005f52602160045260245ffd5b5f81519050919050565b5f82825260208201905092915050565b5f819050602082019050919050565b5f61911483836157c0565b905092915050565b5f602082019050919050565b5f619132826190e0565b61913c81856190ea565b93508360208202850161914e856190fa565b805f5b85811015619189578484038952815161916a8582619109565b94506191758361911c565b925060208a01995050600181019050619151565b50829750879550505050505092915050565b5f6020820190508181035f8301526191b38184619128565b905092915050565b5f6191c5826155f3565b91506191d0836155f3565b92508282019050808211156191e8576191e7617231565b5b9291505056fe496e76616c696420636f756e7420746f74616c20636f6d6d656e7420616e6420666171496e76616c696420636f756e743a20746f74616c2073797374656d20616464656420746f2063617274496e76616c696420636f756e743a20746f74616c2073797374656d206661766f72697465496e76616c696420636f756e743a2072657461696c657220616464656420746f2063617274a26469706673582212205dd2685908779de98f266f424fd3a5cca5d0dd54822190976904daaf231526d064736f6c634300081a0033",
			"opcodes": "PUSH1 0x80 PUSH1 0x40 MSTORE CALLER PUSH1 0x15 PUSH0 PUSH2 0x100 EXP DUP2 SLOAD DUP2 PUSH20 0xFFFFFFFFFFFFFFFFFFFFFFFFFFFFFFFFFFFFFFFF MUL NOT AND SWAP1 DUP4 PUSH20 0xFFFFFFFFFFFFFFFFFFFFFFFFFFFFFFFFFFFFFFFF AND MUL OR SWAP1 SSTORE POP PUSH1 0x1 PUSH1 0x13 PUSH0 CALLER PUSH20 0xFFFFFFFFFFFFFFFFFFFFFFFFFFFFFFFFFFFFFFFF AND PUSH20 0xFFFFFFFFFFFFFFFFFFFFFFFFFFFFFFFFFFFFFFFF AND DUP2 MSTORE PUSH1 0x20 ADD SWAP1 DUP2 MSTORE PUSH1 0x20 ADD PUSH0 KECCAK256 PUSH0 PUSH2 0x100 EXP DUP2 SLOAD DUP2 PUSH1 0xFF MUL NOT AND SWAP1 DUP4 ISZERO ISZERO MUL OR SWAP1 SSTORE POP PUSH1 0x14 CALLER SWAP1 DUP1 PUSH1 0x1 DUP2 SLOAD ADD DUP1 DUP3 SSTORE DUP1 SWAP2 POP POP PUSH1 0x1 SWAP1 SUB SWAP1 PUSH0 MSTORE PUSH1 0x20 PUSH0 KECCAK256 ADD PUSH0 SWAP1 SWAP2 SWAP1 SWAP2 SWAP1 SWAP2 PUSH2 0x100 EXP DUP2 SLOAD DUP2 PUSH20 0xFFFFFFFFFFFFFFFFFFFFFFFFFFFFFFFFFFFFFFFF MUL NOT AND SWAP1 DUP4 PUSH20 0xFFFFFFFFFFFFFFFFFFFFFFFFFFFFFFFFFFFFFFFF AND MUL OR SWAP1 SSTORE POP PUSH2 0x92B9 DUP1 PUSH2 0x106 PUSH0 CODECOPY PUSH0 RETURN INVALID PUSH1 0x80 PUSH1 0x40 MSTORE CALLVALUE DUP1 ISZERO PUSH2 0xF JUMPI PUSH0 DUP1 REVERT JUMPDEST POP PUSH1 0x4 CALLDATASIZE LT PUSH2 0x3E4 JUMPI PUSH0 CALLDATALOAD PUSH1 0xE0 SHR DUP1 PUSH4 0x8AA393AC GT PUSH2 0x208 JUMPI DUP1 PUSH4 0xB94AEAD5 GT PUSH2 0x123 JUMPI DUP1 PUSH4 0xE27EA4A7 GT PUSH2 0xB6 JUMPI DUP1 PUSH4 0xF53BC6E3 GT PUSH2 0x85 JUMPI DUP1 PUSH4 0xF53BC6E3 EQ PUSH2 0xC89 JUMPI DUP1 PUSH4 0xF5548899 EQ PUSH2 0xCA7 JUMPI DUP1 PUSH4 0xF62DD1EE EQ PUSH2 0xCB1 JUMPI DUP1 PUSH4 0xF857D617 EQ PUSH2 0xCCF JUMPI DUP1 PUSH4 0xF954ED2D EQ PUSH2 0xCD9 JUMPI PUSH2 0x3E4 JUMP JUMPDEST DUP1 PUSH4 0xE27EA4A7 EQ PUSH2 0xBE9 JUMPI DUP1 PUSH4 0xE6801AC7 EQ PUSH2 0xC1D JUMPI DUP1 PUSH4 0xEDA162E7 EQ PUSH2 0xC4F JUMPI DUP1 PUSH4 0xEDAFAF63 EQ PUSH2 0xC6B JUMPI PUSH2 0x3E4 JUMP JUMPDEST DUP1 PUSH4 0xCAC0E650 GT PUSH2 0xF2 JUMPI DUP1 PUSH4 0xCAC0E650 EQ PUSH2 0xB4F JUMPI DUP1 PUSH4 0xCECE999F EQ PUSH2 0xB7F JUMPI DUP1 PUSH4 0xD24043CB EQ PUSH2 0xB9D JUMPI DUP1 PUSH4 0xD6376AEA EQ PUSH2 0xBB9 JUMPI PUSH2 0x3E4 JUMP JUMPDEST DUP1 PUSH4 0xB94AEAD5 EQ PUSH2 0xAB1 JUMPI DUP1 PUSH4 0xBC43B9CC EQ PUSH2 0xAE1 JUMPI DUP1 PUSH4 0xC0A22771 EQ PUSH2 0xB02 JUMPI DUP1 PUSH4 0xCA6A7502 EQ PUSH2 0xB1E JUMPI PUSH2 0x3E4 JUMP JUMPDEST DUP1 PUSH4 0x9DDF2E95 GT PUSH2 0x19B JUMPI DUP1 PUSH4 0xAC3B394F GT PUSH2 0x16A JUMPI DUP1 PUSH4 0xAC3B394F EQ PUSH2 0xA4D JUMPI DUP1 PUSH4 0xAC5FAE69 EQ PUSH2 0xA6D JUMPI DUP1 PUSH4 0xB34210E1 EQ PUSH2 0xA8B JUMPI DUP1 PUSH4 0xB34D644A EQ PUSH2 0xAA7 JUMPI PUSH2 0x3E4 JUMP JUMPDEST DUP1 PUSH4 0x9DDF2E95 EQ PUSH2 0x9C3 JUMPI DUP1 PUSH4 0xA354F1B2 EQ PUSH2 0x9F3 JUMPI DUP1 PUSH4 0xAA29EAC7 EQ PUSH2 0xA11 JUMPI DUP1 PUSH4 0xABB4CA99 EQ PUSH2 0xA2F JUMPI PUSH2 0x3E4 JUMP JUMPDEST DUP1 PUSH4 0x92A198D5 GT PUSH2 0x1D7 JUMPI DUP1 PUSH4 0x92A198D5 EQ PUSH2 0x937 JUMPI DUP1 PUSH4 0x989868ED EQ PUSH2 0x953 JUMPI DUP1 PUSH4 0x9A761C4D EQ PUSH2 0x987 JUMPI DUP1 PUSH4 0x9CDE636E EQ PUSH2 0x9A5 JUMPI PUSH2 0x3E4 JUMP JUMPDEST DUP1 PUSH4 0x8AA393AC EQ PUSH2 0x8B0 JUMPI DUP1 PUSH4 0x8DA5CB5B EQ PUSH2 0x8CC JUMPI DUP1 PUSH4 0x8EF58635 EQ PUSH2 0x8EA JUMPI DUP1 PUSH4 0x9075C290 EQ PUSH2 0x906 JUMPI PUSH2 0x3E4 JUMP JUMPDEST DUP1 PUSH4 0x467956EF GT PUSH2 0x303 JUMPI DUP1 PUSH4 0x6F2069F0 GT PUSH2 0x296 JUMPI DUP1 PUSH4 0x79D3F776 GT PUSH2 0x265 JUMPI DUP1 PUSH4 0x79D3F776 EQ PUSH2 0x80A JUMPI DUP1 PUSH4 0x7BE740C9 EQ PUSH2 0x828 JUMPI DUP1 PUSH4 0x7E0833CA EQ PUSH2 0x858 JUMPI DUP1 PUSH4 0x8286980C EQ PUSH2 0x876 JUMPI DUP1 PUSH4 0x86ACD564 EQ PUSH2 0x892 JUMPI PUSH2 0x3E4 JUMP JUMPDEST DUP1 PUSH4 0x6F2069F0 EQ PUSH2 0x780 JUMPI DUP1 PUSH4 0x704B6C02 EQ PUSH2 0x78A JUMPI DUP1 PUSH4 0x70E8E53C EQ PUSH2 0x7BA JUMPI DUP1 PUSH4 0x795EC6D4 EQ PUSH2 0x7EA JUMPI PUSH2 0x3E4 JUMP JUMPDEST DUP1 PUSH4 0x5B956627 GT PUSH2 0x2D2 JUMPI DUP1 PUSH4 0x5B956627 EQ PUSH2 0x6F8 JUMPI DUP1 PUSH4 0x62DE6230 EQ PUSH2 0x714 JUMPI DUP1 PUSH4 0x6A7434E5 EQ PUSH2 0x744 JUMPI DUP1 PUSH4 0x6CB69F42 EQ PUSH2 0x760 JUMPI PUSH2 0x3E4 JUMP JUMPDEST DUP1 PUSH4 0x467956EF EQ PUSH2 0x65B JUMPI DUP1 PUSH4 0x4D5C5FD7 EQ PUSH2 0x679 JUMPI DUP1 PUSH4 0x4E581680 EQ PUSH2 0x697 JUMPI DUP1 PUSH4 0x4FA3C56F EQ PUSH2 0x6C8 JUMPI PUSH2 0x3E4 JUMP JUMPDEST DUP1 PUSH4 0x32ACA62B GT PUSH2 0x37B JUMPI DUP1 PUSH4 0x3D3A9748 GT PUSH2 0x34A JUMPI DUP1 PUSH4 0x3D3A9748 EQ PUSH2 0x5BF JUMPI DUP1 PUSH4 0x409B2CDF EQ PUSH2 0x5DB JUMPI DUP1 PUSH4 0x4323323A EQ PUSH2 0x60D JUMPI DUP1 PUSH4 0x44089CD1 EQ PUSH2 0x62B JUMPI PUSH2 0x3E4 JUMP JUMPDEST DUP1 PUSH4 0x32ACA62B EQ PUSH2 0x537 JUMPI DUP1 PUSH4 0x32F39436 EQ PUSH2 0x553 JUMPI DUP1 PUSH4 0x32FD9850 EQ PUSH2 0x571 JUMPI DUP1 PUSH4 0x35890AAD EQ PUSH2 0x5A1 JUMPI PUSH2 0x3E4 JUMP JUMPDEST DUP1 PUSH4 0x1738408D GT PUSH2 0x3B7 JUMPI DUP1 PUSH4 0x1738408D EQ PUSH2 0x497 JUMPI DUP1 PUSH4 0x2075BD3C EQ PUSH2 0x4C7 JUMPI DUP1 PUSH4 0x2248632A EQ PUSH2 0x4E9 JUMPI DUP1 PUSH4 0x2C9AEFE9 EQ PUSH2 0x519 JUMPI PUSH2 0x3E4 JUMP JUMPDEST DUP1 PUSH4 0x22DE34C EQ PUSH2 0x3E8 JUMPI DUP1 PUSH4 0x13BADCB8 EQ PUSH2 0x419 JUMPI DUP1 PUSH4 0x14BFD6D0 EQ PUSH2 0x437 JUMPI DUP1 PUSH4 0x158D3474 EQ PUSH2 0x467 JUMPI JUMPDEST PUSH0 DUP1 REVERT JUMPDEST PUSH2 0x402 PUSH1 0x4 DUP1 CALLDATASIZE SUB DUP2 ADD SWAP1 PUSH2 0x3FD SWAP2 SWAP1 PUSH2 0x5626 JUMP JUMPDEST PUSH2 0xCF5 JUMP JUMPDEST PUSH1 0x40 MLOAD PUSH2 0x410 SWAP3 SWAP2 SWAP1 PUSH2 0x568E JUMP JUMPDEST PUSH1 0x40 MLOAD DUP1 SWAP2 SUB SWAP1 RETURN JUMPDEST PUSH2 0x421 PUSH2 0xD5A JUMP JUMPDEST PUSH1 0x40 MLOAD PUSH2 0x42E SWAP2 SWAP1 PUSH2 0x56C4 JUMP JUMPDEST PUSH1 0x40 MLOAD DUP1 SWAP2 SUB SWAP1 RETURN JUMPDEST PUSH2 0x451 PUSH1 0x4 DUP1 CALLDATASIZE SUB DUP2 ADD SWAP1 PUSH2 0x44C SWAP2 SWAP1 PUSH2 0x56DD JUMP JUMPDEST PUSH2 0xDEB JUMP JUMPDEST PUSH1 0x40 MLOAD PUSH2 0x45E SWAP2 SWAP1 PUSH2 0x5708 JUMP JUMPDEST PUSH1 0x40 MLOAD DUP1 SWAP2 SUB SWAP1 RETURN JUMPDEST PUSH2 0x481 PUSH1 0x4 DUP1 CALLDATASIZE SUB DUP2 ADD SWAP1 PUSH2 0x47C SWAP2 SWAP1 PUSH2 0x5721 JUMP JUMPDEST PUSH2 0xE26 JUMP JUMPDEST PUSH1 0x40 MLOAD PUSH2 0x48E SWAP2 SWAP1 PUSH2 0x56C4 JUMP JUMPDEST PUSH1 0x40 MLOAD DUP1 SWAP2 SUB SWAP1 RETURN JUMPDEST PUSH2 0x4B1 PUSH1 0x4 DUP1 CALLDATASIZE SUB DUP2 ADD SWAP1 PUSH2 0x4AC SWAP2 SWAP1 PUSH2 0x56DD JUMP JUMPDEST PUSH2 0xE51 JUMP JUMPDEST PUSH1 0x40 MLOAD PUSH2 0x4BE SWAP2 SWAP1 PUSH2 0x56C4 JUMP JUMPDEST PUSH1 0x40 MLOAD DUP1 SWAP2 SUB SWAP1 RETURN JUMPDEST PUSH2 0x4CF PUSH2 0xE66 JUMP JUMPDEST PUSH1 0x40 MLOAD PUSH2 0x4E0 SWAP6 SWAP5 SWAP4 SWAP3 SWAP2 SWAP1 PUSH2 0x5C07 JUMP JUMPDEST PUSH1 0x40 MLOAD DUP1 SWAP2 SUB SWAP1 RETURN JUMPDEST PUSH2 0x503 PUSH1 0x4 DUP1 CALLDATASIZE SUB DUP2 ADD SWAP1 PUSH2 0x4FE SWAP2 SWAP1 PUSH2 0x5D99 JUMP JUMPDEST PUSH2 0xEA6 JUMP JUMPDEST PUSH1 0x40 MLOAD PUSH2 0x510 SWAP2 SWAP1 PUSH2 0x5E3B JUMP JUMPDEST PUSH1 0x40 MLOAD DUP1 SWAP2 SUB SWAP1 RETURN JUMPDEST PUSH2 0x521 PUSH2 0xEDF JUMP JUMPDEST PUSH1 0x40 MLOAD PUSH2 0x52E SWAP2 SWAP1 PUSH2 0x5F43 JUMP JUMPDEST PUSH1 0x40 MLOAD DUP1 SWAP2 SUB SWAP1 RETURN JUMPDEST PUSH2 0x551 PUSH1 0x4 DUP1 CALLDATASIZE SUB DUP2 ADD SWAP1 PUSH2 0x54C SWAP2 SWAP1 PUSH2 0x56DD JUMP JUMPDEST PUSH2 0xF58 JUMP JUMPDEST STOP JUMPDEST PUSH2 0x55B PUSH2 0xFB6 JUMP JUMPDEST PUSH1 0x40 MLOAD PUSH2 0x568 SWAP2 SWAP1 PUSH2 0x5FBE JUMP JUMPDEST PUSH1 0x40 MLOAD DUP1 SWAP2 SUB SWAP1 RETURN JUMPDEST PUSH2 0x58B PUSH1 0x4 DUP1 CALLDATASIZE SUB DUP2 ADD SWAP1 PUSH2 0x586 SWAP2 SWAP1 PUSH2 0x56DD JUMP JUMPDEST PUSH2 0xFDB JUMP JUMPDEST PUSH1 0x40 MLOAD PUSH2 0x598 SWAP2 SWAP1 PUSH2 0x5FD7 JUMP JUMPDEST PUSH1 0x40 MLOAD DUP1 SWAP2 SUB SWAP1 RETURN JUMPDEST PUSH2 0x5A9 PUSH2 0x1042 JUMP JUMPDEST PUSH1 0x40 MLOAD PUSH2 0x5B6 SWAP2 SWAP1 PUSH2 0x56C4 JUMP JUMPDEST PUSH1 0x40 MLOAD DUP1 SWAP2 SUB SWAP1 RETURN JUMPDEST PUSH2 0x5D9 PUSH1 0x4 DUP1 CALLDATASIZE SUB DUP2 ADD SWAP1 PUSH2 0x5D4 SWAP2 SWAP1 PUSH2 0x60A9 JUMP JUMPDEST PUSH2 0x1086 JUMP JUMPDEST STOP JUMPDEST PUSH2 0x5F5 PUSH1 0x4 DUP1 CALLDATASIZE SUB DUP2 ADD SWAP1 PUSH2 0x5F0 SWAP2 SWAP1 PUSH2 0x56DD JUMP JUMPDEST PUSH2 0x10E6 JUMP JUMPDEST PUSH1 0x40 MLOAD PUSH2 0x604 SWAP4 SWAP3 SWAP2 SWAP1 PUSH2 0x6106 JUMP JUMPDEST PUSH1 0x40 MLOAD DUP1 SWAP2 SUB SWAP1 RETURN JUMPDEST PUSH2 0x615 PUSH2 0x111B JUMP JUMPDEST PUSH1 0x40 MLOAD PUSH2 0x622 SWAP2 SWAP1 PUSH2 0x56C4 JUMP JUMPDEST PUSH1 0x40 MLOAD DUP1 SWAP2 SUB SWAP1 RETURN JUMPDEST PUSH2 0x645 PUSH1 0x4 DUP1 CALLDATASIZE SUB DUP2 ADD SWAP1 PUSH2 0x640 SWAP2 SWAP1 PUSH2 0x613B JUMP JUMPDEST PUSH2 0x1121 JUMP JUMPDEST PUSH1 0x40 MLOAD PUSH2 0x652 SWAP2 SWAP1 PUSH2 0x6180 JUMP JUMPDEST PUSH1 0x40 MLOAD DUP1 SWAP2 SUB SWAP1 RETURN JUMPDEST PUSH2 0x663 PUSH2 0x11FC JUMP JUMPDEST PUSH1 0x40 MLOAD PUSH2 0x670 SWAP2 SWAP1 PUSH2 0x6199 JUMP JUMPDEST PUSH1 0x40 MLOAD DUP1 SWAP2 SUB SWAP1 RETURN JUMPDEST PUSH2 0x681 PUSH2 0x1405 JUMP JUMPDEST PUSH1 0x40 MLOAD PUSH2 0x68E SWAP2 SWAP1 PUSH2 0x61D9 JUMP JUMPDEST PUSH1 0x40 MLOAD DUP1 SWAP2 SUB SWAP1 RETURN JUMPDEST PUSH2 0x6B1 PUSH1 0x4 DUP1 CALLDATASIZE SUB DUP2 ADD SWAP1 PUSH2 0x6AC SWAP2 SWAP1 PUSH2 0x5626 JUMP JUMPDEST PUSH2 0x142A JUMP JUMPDEST PUSH1 0x40 MLOAD PUSH2 0x6BF SWAP3 SWAP2 SWAP1 PUSH2 0x61F2 JUMP JUMPDEST PUSH1 0x40 MLOAD DUP1 SWAP2 SUB SWAP1 RETURN JUMPDEST PUSH2 0x6E2 PUSH1 0x4 DUP1 CALLDATASIZE SUB DUP2 ADD SWAP1 PUSH2 0x6DD SWAP2 SWAP1 PUSH2 0x56DD JUMP JUMPDEST PUSH2 0x1464 JUMP JUMPDEST PUSH1 0x40 MLOAD PUSH2 0x6EF SWAP2 SWAP1 PUSH2 0x56C4 JUMP JUMPDEST PUSH1 0x40 MLOAD DUP1 SWAP2 SUB SWAP1 RETURN JUMPDEST PUSH2 0x712 PUSH1 0x4 DUP1 CALLDATASIZE SUB DUP2 ADD SWAP1 PUSH2 0x70D SWAP2 SWAP1 PUSH2 0x5626 JUMP JUMPDEST PUSH2 0x1484 JUMP JUMPDEST STOP JUMPDEST PUSH2 0x72E PUSH1 0x4 DUP1 CALLDATASIZE SUB DUP2 ADD SWAP1 PUSH2 0x729 SWAP2 SWAP1 PUSH2 0x613B JUMP JUMPDEST PUSH2 0x167E JUMP JUMPDEST PUSH1 0x40 MLOAD PUSH2 0x73B SWAP2 SWAP1 PUSH2 0x6180 JUMP JUMPDEST PUSH1 0x40 MLOAD DUP1 SWAP2 SUB SWAP1 RETURN JUMPDEST PUSH2 0x75E PUSH1 0x4 DUP1 CALLDATASIZE SUB DUP2 ADD SWAP1 PUSH2 0x759 SWAP2 SWAP1 PUSH2 0x6219 JUMP JUMPDEST PUSH2 0x1759 JUMP JUMPDEST STOP JUMPDEST PUSH2 0x768 PUSH2 0x1F22 JUMP JUMPDEST PUSH1 0x40 MLOAD PUSH2 0x777 SWAP4 SWAP3 SWAP2 SWAP1 PUSH2 0x6106 JUMP JUMPDEST PUSH1 0x40 MLOAD DUP1 SWAP2 SUB SWAP1 RETURN JUMPDEST PUSH2 0x788 PUSH2 0x1FC2 JUMP JUMPDEST STOP JUMPDEST PUSH2 0x7A4 PUSH1 0x4 DUP1 CALLDATASIZE SUB DUP2 ADD SWAP1 PUSH2 0x79F SWAP2 SWAP1 PUSH2 0x613B JUMP JUMPDEST PUSH2 0x2045 JUMP JUMPDEST PUSH1 0x40 MLOAD PUSH2 0x7B1 SWAP2 SWAP1 PUSH2 0x6180 JUMP JUMPDEST PUSH1 0x40 MLOAD DUP1 SWAP2 SUB SWAP1 RETURN JUMPDEST PUSH2 0x7D4 PUSH1 0x4 DUP1 CALLDATASIZE SUB DUP2 ADD SWAP1 PUSH2 0x7CF SWAP2 SWAP1 PUSH2 0x56DD JUMP JUMPDEST PUSH2 0x2195 JUMP JUMPDEST PUSH1 0x40 MLOAD PUSH2 0x7E1 SWAP2 SWAP1 PUSH2 0x5FD7 JUMP JUMPDEST PUSH1 0x40 MLOAD DUP1 SWAP2 SUB SWAP1 RETURN JUMPDEST PUSH2 0x7F2 PUSH2 0x21FC JUMP JUMPDEST PUSH1 0x40 MLOAD PUSH2 0x801 SWAP4 SWAP3 SWAP2 SWAP1 PUSH2 0x6260 JUMP JUMPDEST PUSH1 0x40 MLOAD DUP1 SWAP2 SUB SWAP1 RETURN JUMPDEST PUSH2 0x812 PUSH2 0x2531 JUMP JUMPDEST PUSH1 0x40 MLOAD PUSH2 0x81F SWAP2 SWAP1 PUSH2 0x56C4 JUMP JUMPDEST PUSH1 0x40 MLOAD DUP1 SWAP2 SUB SWAP1 RETURN JUMPDEST PUSH2 0x842 PUSH1 0x4 DUP1 CALLDATASIZE SUB DUP2 ADD SWAP1 PUSH2 0x83D SWAP2 SWAP1 PUSH2 0x613B JUMP JUMPDEST PUSH2 0x2536 JUMP JUMPDEST PUSH1 0x40 MLOAD PUSH2 0x84F SWAP2 SWAP1 PUSH2 0x56C4 JUMP JUMPDEST PUSH1 0x40 MLOAD DUP1 SWAP2 SUB SWAP1 RETURN JUMPDEST PUSH2 0x860 PUSH2 0x254B JUMP JUMPDEST PUSH1 0x40 MLOAD PUSH2 0x86D SWAP2 SWAP1 PUSH2 0x56C4 JUMP JUMPDEST PUSH1 0x40 MLOAD DUP1 SWAP2 SUB SWAP1 RETURN JUMPDEST PUSH2 0x890 PUSH1 0x4 DUP1 CALLDATASIZE SUB DUP2 ADD SWAP1 PUSH2 0x88B SWAP2 SWAP1 PUSH2 0x56DD JUMP JUMPDEST PUSH2 0x2551 JUMP JUMPDEST STOP JUMPDEST PUSH2 0x89A PUSH2 0x2659 JUMP JUMPDEST PUSH1 0x40 MLOAD PUSH2 0x8A7 SWAP2 SWAP1 PUSH2 0x62AA JUMP JUMPDEST PUSH1 0x40 MLOAD DUP1 SWAP2 SUB SWAP1 RETURN JUMPDEST PUSH2 0x8CA PUSH1 0x4 DUP1 CALLDATASIZE SUB DUP2 ADD SWAP1 PUSH2 0x8C5 SWAP2 SWAP1 PUSH2 0x6317 JUMP JUMPDEST PUSH2 0x2985 JUMP JUMPDEST STOP JUMPDEST PUSH2 0x8D4 PUSH2 0x2D54 JUMP JUMPDEST PUSH1 0x40 MLOAD PUSH2 0x8E1 SWAP2 SWAP1 PUSH2 0x5708 JUMP JUMPDEST PUSH1 0x40 MLOAD DUP1 SWAP2 SUB SWAP1 RETURN JUMPDEST PUSH2 0x904 PUSH1 0x4 DUP1 CALLDATASIZE SUB DUP2 ADD SWAP1 PUSH2 0x8FF SWAP2 SWAP1 PUSH2 0x6567 JUMP JUMPDEST PUSH2 0x2D79 JUMP JUMPDEST STOP JUMPDEST PUSH2 0x920 PUSH1 0x4 DUP1 CALLDATASIZE SUB DUP2 ADD SWAP1 PUSH2 0x91B SWAP2 SWAP1 PUSH2 0x65AE JUMP JUMPDEST PUSH2 0x33F5 JUMP JUMPDEST PUSH1 0x40 MLOAD PUSH2 0x92E SWAP3 SWAP2 SWAP1 PUSH2 0x61F2 JUMP JUMPDEST PUSH1 0x40 MLOAD DUP1 SWAP2 SUB SWAP1 RETURN JUMPDEST PUSH2 0x951 PUSH1 0x4 DUP1 CALLDATASIZE SUB DUP2 ADD SWAP1 PUSH2 0x94C SWAP2 SWAP1 PUSH2 0x613B JUMP JUMPDEST PUSH2 0x3447 JUMP JUMPDEST STOP JUMPDEST PUSH2 0x96D PUSH1 0x4 DUP1 CALLDATASIZE SUB DUP2 ADD SWAP1 PUSH2 0x968 SWAP2 SWAP1 PUSH2 0x5626 JUMP JUMPDEST PUSH2 0x35C2 JUMP JUMPDEST PUSH1 0x40 MLOAD PUSH2 0x97E SWAP6 SWAP5 SWAP4 SWAP3 SWAP2 SWAP1 PUSH2 0x6650 JUMP JUMPDEST PUSH1 0x40 MLOAD DUP1 SWAP2 SUB SWAP1 RETURN JUMPDEST PUSH2 0x98F PUSH2 0x3746 JUMP JUMPDEST PUSH1 0x40 MLOAD PUSH2 0x99C SWAP2 SWAP1 PUSH2 0x6199 JUMP JUMPDEST PUSH1 0x40 MLOAD DUP1 SWAP2 SUB SWAP1 RETURN JUMPDEST PUSH2 0x9AD PUSH2 0x399D JUMP JUMPDEST PUSH1 0x40 MLOAD PUSH2 0x9BA SWAP2 SWAP1 PUSH2 0x56C4 JUMP JUMPDEST PUSH1 0x40 MLOAD DUP1 SWAP2 SUB SWAP1 RETURN JUMPDEST PUSH2 0x9DD PUSH1 0x4 DUP1 CALLDATASIZE SUB DUP2 ADD SWAP1 PUSH2 0x9D8 SWAP2 SWAP1 PUSH2 0x613B JUMP JUMPDEST PUSH2 0x39A3 JUMP JUMPDEST PUSH1 0x40 MLOAD PUSH2 0x9EA SWAP2 SWAP1 PUSH2 0x6180 JUMP JUMPDEST PUSH1 0x40 MLOAD DUP1 SWAP2 SUB SWAP1 RETURN JUMPDEST PUSH2 0x9FB PUSH2 0x39C0 JUMP JUMPDEST PUSH1 0x40 MLOAD PUSH2 0xA08 SWAP2 SWAP1 PUSH2 0x66CF JUMP JUMPDEST PUSH1 0x40 MLOAD DUP1 SWAP2 SUB SWAP1 RETURN JUMPDEST PUSH2 0xA19 PUSH2 0x39E5 JUMP JUMPDEST PUSH1 0x40 MLOAD PUSH2 0xA26 SWAP2 SWAP1 PUSH2 0x56C4 JUMP JUMPDEST PUSH1 0x40 MLOAD DUP1 SWAP2 SUB SWAP1 RETURN JUMPDEST PUSH2 0xA37 PUSH2 0x3A29 JUMP JUMPDEST PUSH1 0x40 MLOAD PUSH2 0xA44 SWAP2 SWAP1 PUSH2 0x67BD JUMP JUMPDEST PUSH1 0x40 MLOAD DUP1 SWAP2 SUB SWAP1 RETURN JUMPDEST PUSH2 0xA55 PUSH2 0x3AD3 JUMP JUMPDEST PUSH1 0x40 MLOAD PUSH2 0xA64 SWAP4 SWAP3 SWAP2 SWAP1 PUSH2 0x6BFE JUMP JUMPDEST PUSH1 0x40 MLOAD DUP1 SWAP2 SUB SWAP1 RETURN JUMPDEST PUSH2 0xA75 PUSH2 0x3C23 JUMP JUMPDEST PUSH1 0x40 MLOAD PUSH2 0xA82 SWAP2 SWAP1 PUSH2 0x56C4 JUMP JUMPDEST PUSH1 0x40 MLOAD DUP1 SWAP2 SUB SWAP1 RETURN JUMPDEST PUSH2 0xAA5 PUSH1 0x4 DUP1 CALLDATASIZE SUB DUP2 ADD SWAP1 PUSH2 0xAA0 SWAP2 SWAP1 PUSH2 0x56DD JUMP JUMPDEST PUSH2 0x3CB5 JUMP JUMPDEST STOP JUMPDEST PUSH2 0xAAF PUSH2 0x3CED JUMP JUMPDEST STOP JUMPDEST PUSH2 0xACB PUSH1 0x4 DUP1 CALLDATASIZE SUB DUP2 ADD SWAP1 PUSH2 0xAC6 SWAP2 SWAP1 PUSH2 0x5721 JUMP JUMPDEST PUSH2 0x3D06 JUMP JUMPDEST PUSH1 0x40 MLOAD PUSH2 0xAD8 SWAP2 SWAP1 PUSH2 0x56C4 JUMP JUMPDEST PUSH1 0x40 MLOAD DUP1 SWAP2 SUB SWAP1 RETURN JUMPDEST PUSH2 0xAE9 PUSH2 0x3D31 JUMP JUMPDEST PUSH1 0x40 MLOAD PUSH2 0xAF9 SWAP5 SWAP4 SWAP3 SWAP2 SWAP1 PUSH2 0x6C48 JUMP JUMPDEST PUSH1 0x40 MLOAD DUP1 SWAP2 SUB SWAP1 RETURN JUMPDEST PUSH2 0xB1C PUSH1 0x4 DUP1 CALLDATASIZE SUB DUP2 ADD SWAP1 PUSH2 0xB17 SWAP2 SWAP1 PUSH2 0x613B JUMP JUMPDEST PUSH2 0x3D65 JUMP JUMPDEST STOP JUMPDEST PUSH2 0xB38 PUSH1 0x4 DUP1 CALLDATASIZE SUB DUP2 ADD SWAP1 PUSH2 0xB33 SWAP2 SWAP1 PUSH2 0x56DD JUMP JUMPDEST PUSH2 0x3EFB JUMP JUMPDEST PUSH1 0x40 MLOAD PUSH2 0xB46 SWAP3 SWAP2 SWAP1 PUSH2 0x568E JUMP JUMPDEST PUSH1 0x40 MLOAD DUP1 SWAP2 SUB SWAP1 RETURN JUMPDEST PUSH2 0xB69 PUSH1 0x4 DUP1 CALLDATASIZE SUB DUP2 ADD SWAP1 PUSH2 0xB64 SWAP2 SWAP1 PUSH2 0x613B JUMP JUMPDEST PUSH2 0x3F55 JUMP JUMPDEST PUSH1 0x40 MLOAD PUSH2 0xB76 SWAP2 SWAP1 PUSH2 0x6180 JUMP JUMPDEST PUSH1 0x40 MLOAD DUP1 SWAP2 SUB SWAP1 RETURN JUMPDEST PUSH2 0xB87 PUSH2 0x4030 JUMP JUMPDEST PUSH1 0x40 MLOAD PUSH2 0xB94 SWAP2 SWAP1 PUSH2 0x56C4 JUMP JUMPDEST PUSH1 0x40 MLOAD DUP1 SWAP2 SUB SWAP1 RETURN JUMPDEST PUSH2 0xBB7 PUSH1 0x4 DUP1 CALLDATASIZE SUB DUP2 ADD SWAP1 PUSH2 0xBB2 SWAP2 SWAP1 PUSH2 0x6C99 JUMP JUMPDEST PUSH2 0x4036 JUMP JUMPDEST STOP JUMPDEST PUSH2 0xBD3 PUSH1 0x4 DUP1 CALLDATASIZE SUB DUP2 ADD SWAP1 PUSH2 0xBCE SWAP2 SWAP1 PUSH2 0x613B JUMP JUMPDEST PUSH2 0x4202 JUMP JUMPDEST PUSH1 0x40 MLOAD PUSH2 0xBE0 SWAP2 SWAP1 PUSH2 0x56C4 JUMP JUMPDEST PUSH1 0x40 MLOAD DUP1 SWAP2 SUB SWAP1 RETURN JUMPDEST PUSH2 0xC03 PUSH1 0x4 DUP1 CALLDATASIZE SUB DUP2 ADD SWAP1 PUSH2 0xBFE SWAP2 SWAP1 PUSH2 0x56DD JUMP JUMPDEST PUSH2 0x4217 JUMP JUMPDEST PUSH1 0x40 MLOAD PUSH2 0xC14 SWAP6 SWAP5 SWAP4 SWAP3 SWAP2 SWAP1 PUSH2 0x6650 JUMP JUMPDEST PUSH1 0x40 MLOAD DUP1 SWAP2 SUB SWAP1 RETURN JUMPDEST PUSH2 0xC37 PUSH1 0x4 DUP1 CALLDATASIZE SUB DUP2 ADD SWAP1 PUSH2 0xC32 SWAP2 SWAP1 PUSH2 0x613B JUMP JUMPDEST PUSH2 0x4390 JUMP JUMPDEST PUSH1 0x40 MLOAD PUSH2 0xC46 SWAP4 SWAP3 SWAP2 SWAP1 PUSH2 0x6F2D JUMP JUMPDEST PUSH1 0x40 MLOAD DUP1 SWAP2 SUB SWAP1 RETURN JUMPDEST PUSH2 0xC69 PUSH1 0x4 DUP1 CALLDATASIZE SUB DUP2 ADD SWAP1 PUSH2 0xC64 SWAP2 SWAP1 PUSH2 0x613B JUMP JUMPDEST PUSH2 0x4606 JUMP JUMPDEST STOP JUMPDEST PUSH2 0xC73 PUSH2 0x4671 JUMP JUMPDEST PUSH1 0x40 MLOAD PUSH2 0xC80 SWAP2 SWAP1 PUSH2 0x62AA JUMP JUMPDEST PUSH1 0x40 MLOAD DUP1 SWAP2 SUB SWAP1 RETURN JUMPDEST PUSH2 0xC91 PUSH2 0x494F JUMP JUMPDEST PUSH1 0x40 MLOAD PUSH2 0xC9E SWAP2 SWAP1 PUSH2 0x5FD7 JUMP JUMPDEST PUSH1 0x40 MLOAD DUP1 SWAP2 SUB SWAP1 RETURN JUMPDEST PUSH2 0xCAF PUSH2 0x4A2E JUMP JUMPDEST STOP JUMPDEST PUSH2 0xCB9 PUSH2 0x4A47 JUMP JUMPDEST PUSH1 0x40 MLOAD PUSH2 0xCC6 SWAP2 SWAP1 PUSH2 0x56C4 JUMP JUMPDEST PUSH1 0x40 MLOAD DUP1 SWAP2 SUB SWAP1 RETURN JUMPDEST PUSH2 0xCD7 PUSH2 0x4A4D JUMP JUMPDEST STOP JUMPDEST PUSH2 0xCF3 PUSH1 0x4 DUP1 CALLDATASIZE SUB DUP2 ADD SWAP1 PUSH2 0xCEE SWAP2 SWAP1 PUSH2 0x613B JUMP JUMPDEST PUSH2 0x4A66 JUMP JUMPDEST STOP JUMPDEST PUSH1 0xD PUSH1 0x20 MSTORE DUP2 PUSH0 MSTORE PUSH1 0x40 PUSH0 KECCAK256 DUP2 DUP2 SLOAD DUP2 LT PUSH2 0xD0E JUMPI PUSH0 DUP1 REVERT JUMPDEST SWAP1 PUSH0 MSTORE PUSH1 0x20 PUSH0 KECCAK256 SWAP1 PUSH1 0x4 MUL ADD PUSH0 SWAP2 POP SWAP2 POP POP DUP1 PUSH0 ADD PUSH0 SWAP1 SLOAD SWAP1 PUSH2 0x100 EXP SWAP1 DIV PUSH20 0xFFFFFFFFFFFFFFFFFFFFFFFFFFFFFFFFFFFFFFFF AND SWAP1 DUP1 PUSH0 ADD PUSH1 0x14 SWAP1 SLOAD SWAP1 PUSH2 0x100 EXP SWAP1 DIV PUSH1 0xFF AND SWAP1 POP DUP3 JUMP JUMPDEST PUSH0 PUSH1 0x13 PUSH0 CALLER PUSH20 0xFFFFFFFFFFFFFFFFFFFFFFFFFFFFFFFFFFFFFFFF AND PUSH20 0xFFFFFFFFFFFFFFFFFFFFFFFFFFFFFFFFFFFFFFFF AND DUP2 MSTORE PUSH1 0x20 ADD SWAP1 DUP2 MSTORE PUSH1 0x20 ADD PUSH0 KECCAK256 PUSH0 SWAP1 SLOAD SWAP1 PUSH2 0x100 EXP SWAP1 DIV PUSH1 0xFF AND PUSH2 0xDE4 JUMPI PUSH1 0x40 MLOAD PUSH32 0x8C379A000000000000000000000000000000000000000000000000000000000 DUP2 MSTORE PUSH1 0x4 ADD PUSH2 0xDDB SWAP1 PUSH2 0x700D JUMP JUMPDEST PUSH1 0x40 MLOAD DUP1 SWAP2 SUB SWAP1 REVERT JUMPDEST PUSH0 SLOAD SWAP1 POP SWAP1 JUMP JUMPDEST PUSH1 0x14 DUP2 DUP2 SLOAD DUP2 LT PUSH2 0xDFA JUMPI PUSH0 DUP1 REVERT JUMPDEST SWAP1 PUSH0 MSTORE PUSH1 0x20 PUSH0 KECCAK256 ADD PUSH0 SWAP2 POP SLOAD SWAP1 PUSH2 0x100 EXP SWAP1 DIV PUSH20 0xFFFFFFFFFFFFFFFFFFFFFFFFFFFFFFFFFFFFFFFF AND DUP2 JUMP JUMPDEST PUSH1 0xA PUSH1 0x20 MSTORE DUP2 PUSH0 MSTORE PUSH1 0x40 PUSH0 KECCAK256 DUP2 DUP2 SLOAD DUP2 LT PUSH2 0xE3F JUMPI PUSH0 DUP1 REVERT JUMPDEST SWAP1 PUSH0 MSTORE PUSH1 0x20 PUSH0 KECCAK256 ADD PUSH0 SWAP2 POP SWAP2 POP POP SLOAD DUP2 JUMP JUMPDEST PUSH1 0xE PUSH1 0x20 MSTORE DUP1 PUSH0 MSTORE PUSH1 0x40 PUSH0 KECCAK256 PUSH0 SWAP2 POP SWAP1 POP SLOAD DUP2 JUMP JUMPDEST PUSH1 0x60 PUSH0 DUP1 PUSH1 0x60 DUP1 PUSH2 0xE75 PUSH2 0x2659 JUMP JUMPDEST SWAP5 POP PUSH2 0xE7F PUSH2 0xD5A JUMP JUMPDEST SWAP4 POP PUSH2 0xE89 PUSH2 0x3C23 JUMP JUMPDEST SWAP3 POP PUSH2 0xE93 PUSH2 0x3746 JUMP JUMPDEST SWAP2 POP PUSH2 0xE9D PUSH2 0x494F JUMP JUMPDEST SWAP1 POP SWAP1 SWAP2 SWAP3 SWAP4 SWAP5 JUMP JUMPDEST PUSH1 0x60 PUSH0 PUSH2 0xEB2 DUP5 PUSH2 0x4AD2 JUMP JUMPDEST SWAP1 POP DUP1 DUP4 PUSH1 0x40 MLOAD PUSH1 0x20 ADD PUSH2 0xEC7 SWAP3 SWAP2 SWAP1 PUSH2 0x71D7 JUMP JUMPDEST PUSH1 0x40 MLOAD PUSH1 0x20 DUP2 DUP4 SUB SUB DUP2 MSTORE SWAP1 PUSH1 0x40 MSTORE SWAP2 POP POP SWAP3 SWAP2 POP POP JUMP JUMPDEST PUSH1 0x60 PUSH1 0xF DUP1 SLOAD DUP1 PUSH1 0x20 MUL PUSH1 0x20 ADD PUSH1 0x40 MLOAD SWAP1 DUP2 ADD PUSH1 0x40 MSTORE DUP1 SWAP3 SWAP2 SWAP1 DUP2 DUP2 MSTORE PUSH1 0x20 ADD PUSH0 SWAP1 JUMPDEST DUP3 DUP3 LT ISZERO PUSH2 0xF4F JUMPI DUP4 DUP3 SWAP1 PUSH0 MSTORE PUSH1 0x20 PUSH0 KECCAK256 SWAP1 PUSH1 0x3 MUL ADD PUSH1 0x40 MLOAD DUP1 PUSH1 0x60 ADD PUSH1 0x40 MSTORE SWAP1 DUP2 PUSH0 DUP3 ADD SLOAD DUP2 MSTORE PUSH1 0x20 ADD PUSH1 0x1 DUP3 ADD SLOAD DUP2 MSTORE PUSH1 0x20 ADD PUSH1 0x2 DUP3 ADD SLOAD DUP2 MSTORE POP POP DUP2 MSTORE PUSH1 0x20 ADD SWAP1 PUSH1 0x1 ADD SWAP1 PUSH2 0xF02 JUMP JUMPDEST POP POP POP POP SWAP1 POP SWAP1 JUMP JUMPDEST PUSH1 0xE PUSH0 DUP3 DUP2 MSTORE PUSH1 0x20 ADD SWAP1 DUP2 MSTORE PUSH1 0x20 ADD PUSH0 KECCAK256 PUSH0 DUP2 SLOAD DUP1 SWAP3 SWAP2 SWAP1 PUSH2 0xF79 SWAP1 PUSH2 0x725E JUMP JUMPDEST SWAP2 SWAP1 POP SSTORE POP PUSH1 0xA PUSH0 DUP3 DUP2 MSTORE PUSH1 0x20 ADD SWAP1 DUP2 MSTORE PUSH1 0x20 ADD PUSH0 KECCAK256 TIMESTAMP SWAP1 DUP1 PUSH1 0x1 DUP2 SLOAD ADD DUP1 DUP3 SSTORE DUP1 SWAP2 POP POP PUSH1 0x1 SWAP1 SUB SWAP1 PUSH0 MSTORE PUSH1 0x20 PUSH0 KECCAK256 ADD PUSH0 SWAP1 SWAP2 SWAP1 SWAP2 SWAP1 SWAP2 POP SSTORE POP JUMP JUMPDEST PUSH1 0x16 PUSH0 SWAP1 SLOAD SWAP1 PUSH2 0x100 EXP SWAP1 DIV PUSH20 0xFFFFFFFFFFFFFFFFFFFFFFFFFFFFFFFFFFFFFFFF AND DUP2 JUMP JUMPDEST PUSH1 0x60 PUSH1 0xA PUSH0 DUP4 DUP2 MSTORE PUSH1 0x20 ADD SWAP1 DUP2 MSTORE PUSH1 0x20 ADD PUSH0 KECCAK256 DUP1 SLOAD DUP1 PUSH1 0x20 MUL PUSH1 0x20 ADD PUSH1 0x40 MLOAD SWAP1 DUP2 ADD PUSH1 0x40 MSTORE DUP1 SWAP3 SWAP2 SWAP1 DUP2 DUP2 MSTORE PUSH1 0x20 ADD DUP3 DUP1 SLOAD DUP1 ISZERO PUSH2 0x1036 JUMPI PUSH1 0x20 MUL DUP3 ADD SWAP2 SWAP1 PUSH0 MSTORE PUSH1 0x20 PUSH0 KECCAK256 SWAP1 JUMPDEST DUP2 SLOAD DUP2 MSTORE PUSH1 0x20 ADD SWAP1 PUSH1 0x1 ADD SWAP1 DUP1 DUP4 GT PUSH2 0x1022 JUMPI JUMPDEST POP POP POP POP POP SWAP1 POP SWAP2 SWAP1 POP JUMP JUMPDEST PUSH0 PUSH1 0x7 PUSH0 CALLER PUSH20 0xFFFFFFFFFFFFFFFFFFFFFFFFFFFFFFFFFFFFFFFF AND PUSH20 0xFFFFFFFFFFFFFFFFFFFFFFFFFFFFFFFFFFFFFFFF AND DUP2 MSTORE PUSH1 0x20 ADD SWAP1 DUP2 MSTORE PUSH1 0x20 ADD PUSH0 KECCAK256 SLOAD SWAP1 POP SWAP1 JUMP JUMPDEST PUSH1 0x11 DUP4 DUP4 PUSH1 0x40 MLOAD PUSH2 0x1098 SWAP3 SWAP2 SWAP1 PUSH2 0x72C9 JUMP JUMPDEST SWAP1 DUP2 MSTORE PUSH1 0x20 ADD PUSH1 0x40 MLOAD DUP1 SWAP2 SUB SWAP1 KECCAK256 DUP2 SWAP1 DUP1 PUSH1 0x1 DUP2 SLOAD ADD DUP1 DUP3 SSTORE DUP1 SWAP2 POP POP PUSH1 0x1 SWAP1 SUB SWAP1 PUSH0 MSTORE PUSH1 0x20 PUSH0 KECCAK256 SWAP1 PUSH1 0x2 MUL ADD PUSH0 SWAP1 SWAP2 SWAP1 SWAP2 SWAP1 SWAP2 POP PUSH0 DUP3 ADD MLOAD DUP2 PUSH0 ADD SSTORE PUSH1 0x20 DUP3 ADD MLOAD DUP2 PUSH1 0x1 ADD SSTORE POP POP POP POP POP JUMP JUMPDEST PUSH1 0xF DUP2 DUP2 SLOAD DUP2 LT PUSH2 0x10F5 JUMPI PUSH0 DUP1 REVERT JUMPDEST SWAP1 PUSH0 MSTORE PUSH1 0x20 PUSH0 KECCAK256 SWAP1 PUSH1 0x3 MUL ADD PUSH0 SWAP2 POP SWAP1 POP DUP1 PUSH0 ADD SLOAD SWAP1 DUP1 PUSH1 0x1 ADD SLOAD SWAP1 DUP1 PUSH1 0x2 ADD SLOAD SWAP1 POP DUP4 JUMP JUMPDEST PUSH1 0x2 SLOAD DUP2 JUMP JUMPDEST PUSH0 PUSH1 0x15 PUSH0 SWAP1 SLOAD SWAP1 PUSH2 0x100 EXP SWAP1 DIV PUSH20 0xFFFFFFFFFFFFFFFFFFFFFFFFFFFFFFFFFFFFFFFF AND DUP1 PUSH20 0xFFFFFFFFFFFFFFFFFFFFFFFFFFFFFFFFFFFFFFFF AND CALLER PUSH20 0xFFFFFFFFFFFFFFFFFFFFFFFFFFFFFFFFFFFFFFFF AND EQ PUSH2 0x11B2 JUMPI PUSH1 0x40 MLOAD PUSH32 0x8C379A000000000000000000000000000000000000000000000000000000000 DUP2 MSTORE PUSH1 0x4 ADD PUSH2 0x11A9 SWAP1 PUSH2 0x7377 JUMP JUMPDEST PUSH1 0x40 MLOAD DUP1 SWAP2 SUB SWAP1 REVERT JUMPDEST DUP3 PUSH1 0x16 PUSH0 PUSH2 0x100 EXP DUP2 SLOAD DUP2 PUSH20 0xFFFFFFFFFFFFFFFFFFFFFFFFFFFFFFFFFFFFFFFF MUL NOT AND SWAP1 DUP4 PUSH20 0xFFFFFFFFFFFFFFFFFFFFFFFFFFFFFFFFFFFFFFFF AND MUL OR SWAP1 SSTORE POP PUSH1 0x1 SWAP2 POP POP SWAP2 SWAP1 POP JUMP JUMPDEST PUSH1 0x60 PUSH1 0xD PUSH0 CALLER PUSH20 0xFFFFFFFFFFFFFFFFFFFFFFFFFFFFFFFFFFFFFFFF AND PUSH20 0xFFFFFFFFFFFFFFFFFFFFFFFFFFFFFFFFFFFFFFFF AND DUP2 MSTORE PUSH1 0x20 ADD SWAP1 DUP2 MSTORE PUSH1 0x20 ADD PUSH0 KECCAK256 DUP1 SLOAD DUP1 PUSH1 0x20 MUL PUSH1 0x20 ADD PUSH1 0x40 MLOAD SWAP1 DUP2 ADD PUSH1 0x40 MSTORE DUP1 SWAP3 SWAP2 SWAP1 DUP2 DUP2 MSTORE PUSH1 0x20 ADD PUSH0 SWAP1 JUMPDEST DUP3 DUP3 LT ISZERO PUSH2 0x13FC JUMPI DUP4 DUP3 SWAP1 PUSH0 MSTORE PUSH1 0x20 PUSH0 KECCAK256 SWAP1 PUSH1 0x4 MUL ADD PUSH1 0x40 MLOAD DUP1 PUSH1 0xA0 ADD PUSH1 0x40 MSTORE SWAP1 DUP2 PUSH0 DUP3 ADD PUSH0 SWAP1 SLOAD SWAP1 PUSH2 0x100 EXP SWAP1 DIV PUSH20 0xFFFFFFFFFFFFFFFFFFFFFFFFFFFFFFFFFFFFFFFF AND PUSH20 0xFFFFFFFFFFFFFFFFFFFFFFFFFFFFFFFFFFFFFFFF AND PUSH20 0xFFFFFFFFFFFFFFFFFFFFFFFFFFFFFFFFFFFFFFFF AND DUP2 MSTORE PUSH1 0x20 ADD PUSH0 DUP3 ADD PUSH1 0x14 SWAP1 SLOAD SWAP1 PUSH2 0x100 EXP SWAP1 DIV PUSH1 0xFF AND PUSH1 0xFF AND PUSH1 0xFF AND DUP2 MSTORE PUSH1 0x20 ADD PUSH1 0x1 DUP3 ADD DUP1 SLOAD DUP1 PUSH1 0x20 MUL PUSH1 0x20 ADD PUSH1 0x40 MLOAD SWAP1 DUP2 ADD PUSH1 0x40 MSTORE DUP1 SWAP3 SWAP2 SWAP1 DUP2 DUP2 MSTORE PUSH1 0x20 ADD DUP3 DUP1 SLOAD DUP1 ISZERO PUSH2 0x1338 JUMPI PUSH1 0x20 MUL DUP3 ADD SWAP2 SWAP1 PUSH0 MSTORE PUSH1 0x20 PUSH0 KECCAK256 SWAP1 JUMPDEST DUP2 SLOAD DUP2 MSTORE PUSH1 0x20 ADD SWAP1 PUSH1 0x1 ADD SWAP1 DUP1 DUP4 GT PUSH2 0x1324 JUMPI JUMPDEST POP POP POP POP POP DUP2 MSTORE PUSH1 0x20 ADD PUSH1 0x2 DUP3 ADD DUP1 SLOAD DUP1 PUSH1 0x20 MUL PUSH1 0x20 ADD PUSH1 0x40 MLOAD SWAP1 DUP2 ADD PUSH1 0x40 MSTORE DUP1 SWAP3 SWAP2 SWAP1 DUP2 DUP2 MSTORE PUSH1 0x20 ADD DUP3 DUP1 SLOAD DUP1 ISZERO PUSH2 0x138E JUMPI PUSH1 0x20 MUL DUP3 ADD SWAP2 SWAP1 PUSH0 MSTORE PUSH1 0x20 PUSH0 KECCAK256 SWAP1 JUMPDEST DUP2 SLOAD DUP2 MSTORE PUSH1 0x20 ADD SWAP1 PUSH1 0x1 ADD SWAP1 DUP1 DUP4 GT PUSH2 0x137A JUMPI JUMPDEST POP POP POP POP POP DUP2 MSTORE PUSH1 0x20 ADD PUSH1 0x3 DUP3 ADD DUP1 SLOAD DUP1 PUSH1 0x20 MUL PUSH1 0x20 ADD PUSH1 0x40 MLOAD SWAP1 DUP2 ADD PUSH1 0x40 MSTORE DUP1 SWAP3 SWAP2 SWAP1 DUP2 DUP2 MSTORE PUSH1 0x20 ADD DUP3 DUP1 SLOAD DUP1 ISZERO PUSH2 0x13E4 JUMPI PUSH1 0x20 MUL DUP3 ADD SWAP2 SWAP1 PUSH0 MSTORE PUSH1 0x20 PUSH0 KECCAK256 SWAP1 JUMPDEST DUP2 SLOAD DUP2 MSTORE PUSH1 0x20 ADD SWAP1 PUSH1 0x1 ADD SWAP1 DUP1 DUP4 GT PUSH2 0x13D0 JUMPI JUMPDEST POP POP POP POP POP DUP2 MSTORE POP POP DUP2 MSTORE PUSH1 0x20 ADD SWAP1 PUSH1 0x1 ADD SWAP1 PUSH2 0x125A JUMP JUMPDEST POP POP POP POP SWAP1 POP SWAP1 JUMP JUMPDEST PUSH1 0x18 PUSH0 SWAP1 SLOAD SWAP1 PUSH2 0x100 EXP SWAP1 DIV PUSH20 0xFFFFFFFFFFFFFFFFFFFFFFFFFFFFFFFFFFFFFFFF AND DUP2 JUMP JUMPDEST PUSH1 0x10 PUSH1 0x20 MSTORE DUP2 PUSH0 MSTORE PUSH1 0x40 PUSH0 KECCAK256 DUP2 DUP2 SLOAD DUP2 LT PUSH2 0x1443 JUMPI PUSH0 DUP1 REVERT JUMPDEST SWAP1 PUSH0 MSTORE PUSH1 0x20 PUSH0 KECCAK256 SWAP1 PUSH1 0x2 MUL ADD PUSH0 SWAP2 POP SWAP2 POP POP DUP1 PUSH0 ADD SLOAD SWAP1 DUP1 PUSH1 0x1 ADD SLOAD SWAP1 POP DUP3 JUMP JUMPDEST PUSH1 0x12 DUP2 DUP2 SLOAD DUP2 LT PUSH2 0x1473 JUMPI PUSH0 DUP1 REVERT JUMPDEST SWAP1 PUSH0 MSTORE PUSH1 0x20 PUSH0 KECCAK256 ADD PUSH0 SWAP2 POP SWAP1 POP SLOAD DUP2 JUMP JUMPDEST PUSH0 DUP1 JUMPDEST PUSH1 0x10 PUSH0 DUP6 PUSH20 0xFFFFFFFFFFFFFFFFFFFFFFFFFFFFFFFFFFFFFFFF AND PUSH20 0xFFFFFFFFFFFFFFFFFFFFFFFFFFFFFFFFFFFFFFFF AND DUP2 MSTORE PUSH1 0x20 ADD SWAP1 DUP2 MSTORE PUSH1 0x20 ADD PUSH0 KECCAK256 DUP1 SLOAD SWAP1 POP DUP2 PUSH1 0xFF AND LT ISZERO PUSH2 0x15BB JUMPI DUP3 PUSH1 0x10 PUSH0 DUP7 PUSH20 0xFFFFFFFFFFFFFFFFFFFFFFFFFFFFFFFFFFFFFFFF AND PUSH20 0xFFFFFFFFFFFFFFFFFFFFFFFFFFFFFFFFFFFFFFFF AND DUP2 MSTORE PUSH1 0x20 ADD SWAP1 DUP2 MSTORE PUSH1 0x20 ADD PUSH0 KECCAK256 DUP3 PUSH1 0xFF AND DUP2 SLOAD DUP2 LT PUSH2 0x1525 JUMPI PUSH2 0x1524 PUSH2 0x7395 JUMP JUMPDEST JUMPDEST SWAP1 PUSH0 MSTORE PUSH1 0x20 PUSH0 KECCAK256 SWAP1 PUSH1 0x2 MUL ADD PUSH0 ADD SLOAD SUB PUSH2 0x15A8 JUMPI TIMESTAMP PUSH1 0x10 PUSH0 DUP7 PUSH20 0xFFFFFFFFFFFFFFFFFFFFFFFFFFFFFFFFFFFFFFFF AND PUSH20 0xFFFFFFFFFFFFFFFFFFFFFFFFFFFFFFFFFFFFFFFF AND DUP2 MSTORE PUSH1 0x20 ADD SWAP1 DUP2 MSTORE PUSH1 0x20 ADD PUSH0 KECCAK256 DUP3 PUSH1 0xFF AND DUP2 SLOAD DUP2 LT PUSH2 0x158C JUMPI PUSH2 0x158B PUSH2 0x7395 JUMP JUMPDEST JUMPDEST SWAP1 PUSH0 MSTORE PUSH1 0x20 PUSH0 KECCAK256 SWAP1 PUSH1 0x2 MUL ADD PUSH1 0x1 ADD DUP2 SWAP1 SSTORE POP PUSH1 0x1 SWAP2 POP PUSH2 0x15BB JUMP JUMPDEST DUP1 DUP1 PUSH2 0x15B3 SWAP1 PUSH2 0x73C2 JUMP JUMPDEST SWAP2 POP POP PUSH2 0x1487 JUMP JUMPDEST POP DUP1 PUSH2 0x1653 JUMPI PUSH0 PUSH1 0x40 MLOAD DUP1 PUSH1 0x40 ADD PUSH1 0x40 MSTORE DUP1 DUP5 DUP2 MSTORE PUSH1 0x20 ADD TIMESTAMP DUP2 MSTORE POP SWAP1 POP PUSH1 0x10 PUSH0 DUP6 PUSH20 0xFFFFFFFFFFFFFFFFFFFFFFFFFFFFFFFFFFFFFFFF AND PUSH20 0xFFFFFFFFFFFFFFFFFFFFFFFFFFFFFFFFFFFFFFFF AND DUP2 MSTORE PUSH1 0x20 ADD SWAP1 DUP2 MSTORE PUSH1 0x20 ADD PUSH0 KECCAK256 DUP2 SWAP1 DUP1 PUSH1 0x1 DUP2 SLOAD ADD DUP1 DUP3 SSTORE DUP1 SWAP2 POP POP PUSH1 0x1 SWAP1 SUB SWAP1 PUSH0 MSTORE PUSH1 0x20 PUSH0 KECCAK256 SWAP1 PUSH1 0x2 MUL ADD PUSH0 SWAP1 SWAP2 SWAP1 SWAP2 SWAP1 SWAP2 POP PUSH0 DUP3 ADD MLOAD DUP2 PUSH0 ADD SSTORE PUSH1 0x20 DUP3 ADD MLOAD DUP2 PUSH1 0x1 ADD SSTORE POP POP POP JUMPDEST PUSH1 0x12 TIMESTAMP SWAP1 DUP1 PUSH1 0x1 DUP2 SLOAD ADD DUP1 DUP3 SSTORE DUP1 SWAP2 POP POP PUSH1 0x1 SWAP1 SUB SWAP1 PUSH0 MSTORE PUSH1 0x20 PUSH0 KECCAK256 ADD PUSH0 SWAP1 SWAP2 SWAP1 SWAP2 SWAP1 SWAP2 POP SSTORE POP POP POP JUMP JUMPDEST PUSH0 PUSH1 0x15 PUSH0 SWAP1 SLOAD SWAP1 PUSH2 0x100 EXP SWAP1 DIV PUSH20 0xFFFFFFFFFFFFFFFFFFFFFFFFFFFFFFFFFFFFFFFF AND DUP1 PUSH20 0xFFFFFFFFFFFFFFFFFFFFFFFFFFFFFFFFFFFFFFFF AND CALLER PUSH20 0xFFFFFFFFFFFFFFFFFFFFFFFFFFFFFFFFFFFFFFFF AND EQ PUSH2 0x170F JUMPI PUSH1 0x40 MLOAD PUSH32 0x8C379A000000000000000000000000000000000000000000000000000000000 DUP2 MSTORE PUSH1 0x4 ADD PUSH2 0x1706 SWAP1 PUSH2 0x7377 JUMP JUMPDEST PUSH1 0x40 MLOAD DUP1 SWAP2 SUB SWAP1 REVERT JUMPDEST DUP3 PUSH1 0x17 PUSH0 PUSH2 0x100 EXP DUP2 SLOAD DUP2 PUSH20 0xFFFFFFFFFFFFFFFFFFFFFFFFFFFFFFFFFFFFFFFF MUL NOT AND SWAP1 DUP4 PUSH20 0xFFFFFFFFFFFFFFFFFFFFFFFFFFFFFFFFFFFFFFFF AND MUL OR SWAP1 SSTORE POP PUSH1 0x1 SWAP2 POP POP SWAP2 SWAP1 POP JUMP JUMPDEST PUSH0 DUP1 PUSH1 0x8 DUP1 SLOAD SWAP1 POP PUSH8 0xFFFFFFFFFFFFFFFF DUP2 GT ISZERO PUSH2 0x177A JUMPI PUSH2 0x1779 PUSH2 0x5C75 JUMP JUMPDEST JUMPDEST PUSH1 0x40 MLOAD SWAP1 DUP1 DUP3 MSTORE DUP1 PUSH1 0x20 MUL PUSH1 0x20 ADD DUP3 ADD PUSH1 0x40 MSTORE DUP1 ISZERO PUSH2 0x17A8 JUMPI DUP2 PUSH1 0x20 ADD PUSH1 0x20 DUP3 MUL DUP1 CALLDATASIZE DUP4 CALLDATACOPY DUP1 DUP3 ADD SWAP2 POP POP SWAP1 POP JUMPDEST POP SWAP1 POP PUSH0 JUMPDEST PUSH1 0x8 DUP1 SLOAD SWAP1 POP DUP2 LT ISZERO PUSH2 0x1BE4 JUMPI PUSH2 0x186C PUSH1 0x8 DUP3 DUP2 SLOAD DUP2 LT PUSH2 0x17D1 JUMPI PUSH2 0x17D0 PUSH2 0x7395 JUMP JUMPDEST JUMPDEST SWAP1 PUSH0 MSTORE PUSH1 0x20 PUSH0 KECCAK256 SWAP1 PUSH1 0x6 MUL ADD PUSH0 ADD DUP1 SLOAD PUSH2 0x17EA SWAP1 PUSH2 0x7417 JUMP JUMPDEST DUP1 PUSH1 0x1F ADD PUSH1 0x20 DUP1 SWAP2 DIV MUL PUSH1 0x20 ADD PUSH1 0x40 MLOAD SWAP1 DUP2 ADD PUSH1 0x40 MSTORE DUP1 SWAP3 SWAP2 SWAP1 DUP2 DUP2 MSTORE PUSH1 0x20 ADD DUP3 DUP1 SLOAD PUSH2 0x1816 SWAP1 PUSH2 0x7417 JUMP JUMPDEST DUP1 ISZERO PUSH2 0x1861 JUMPI DUP1 PUSH1 0x1F LT PUSH2 0x1838 JUMPI PUSH2 0x100 DUP1 DUP4 SLOAD DIV MUL DUP4 MSTORE SWAP2 PUSH1 0x20 ADD SWAP2 PUSH2 0x1861 JUMP JUMPDEST DUP3 ADD SWAP2 SWAP1 PUSH0 MSTORE PUSH1 0x20 PUSH0 KECCAK256 SWAP1 JUMPDEST DUP2 SLOAD DUP2 MSTORE SWAP1 PUSH1 0x1 ADD SWAP1 PUSH1 0x20 ADD DUP1 DUP4 GT PUSH2 0x1844 JUMPI DUP3 SWAP1 SUB PUSH1 0x1F AND DUP3 ADD SWAP2 JUMPDEST POP POP POP POP POP DUP6 PUSH2 0x4B9C JUMP JUMPDEST ISZERO PUSH2 0x1BD7 JUMPI PUSH1 0x8 DUP2 DUP2 SLOAD DUP2 LT PUSH2 0x1885 JUMPI PUSH2 0x1884 PUSH2 0x7395 JUMP JUMPDEST JUMPDEST SWAP1 PUSH0 MSTORE PUSH1 0x20 PUSH0 KECCAK256 SWAP1 PUSH1 0x6 MUL ADD PUSH1 0x4 ADD DUP1 SLOAD SWAP1 POP SWAP3 POP PUSH0 JUMPDEST DUP4 DUP2 LT ISZERO PUSH2 0x19E5 JUMPI PUSH0 PUSH1 0x17 PUSH0 SWAP1 SLOAD SWAP1 PUSH2 0x100 EXP SWAP1 DIV PUSH20 0xFFFFFFFFFFFFFFFFFFFFFFFFFFFFFFFFFFFFFFFF AND PUSH20 0xFFFFFFFFFFFFFFFFFFFFFFFFFFFFFFFFFFFFFFFF AND PUSH4 0xB9DB15B4 PUSH1 0x8 DUP6 DUP2 SLOAD DUP2 LT PUSH2 0x18F6 JUMPI PUSH2 0x18F5 PUSH2 0x7395 JUMP JUMPDEST JUMPDEST SWAP1 PUSH0 MSTORE PUSH1 0x20 PUSH0 KECCAK256 SWAP1 PUSH1 0x6 MUL ADD PUSH1 0x4 ADD DUP5 DUP2 SLOAD DUP2 LT PUSH2 0x1917 JUMPI PUSH2 0x1916 PUSH2 0x7395 JUMP JUMPDEST JUMPDEST SWAP1 PUSH0 MSTORE PUSH1 0x20 PUSH0 KECCAK256 ADD SLOAD PUSH1 0x40 MLOAD DUP3 PUSH4 0xFFFFFFFF AND PUSH1 0xE0 SHL DUP2 MSTORE PUSH1 0x4 ADD PUSH2 0x193C SWAP2 SWAP1 PUSH2 0x56C4 JUMP JUMPDEST PUSH0 PUSH1 0x40 MLOAD DUP1 DUP4 SUB DUP2 DUP7 GAS STATICCALL ISZERO DUP1 ISZERO PUSH2 0x1956 JUMPI RETURNDATASIZE PUSH0 DUP1 RETURNDATACOPY RETURNDATASIZE PUSH0 REVERT JUMPDEST POP POP POP POP PUSH1 0x40 MLOAD RETURNDATASIZE PUSH0 DUP3 RETURNDATACOPY RETURNDATASIZE PUSH1 0x1F NOT PUSH1 0x1F DUP3 ADD AND DUP3 ADD DUP1 PUSH1 0x40 MSTORE POP DUP2 ADD SWAP1 PUSH2 0x197E SWAP2 SWAP1 PUSH2 0x7AB6 JUMP JUMPDEST SWAP1 POP DUP1 PUSH1 0x20 ADD MLOAD PUSH2 0x180 ADD MLOAD DUP5 DUP4 DUP2 MLOAD DUP2 LT PUSH2 0x199D JUMPI PUSH2 0x199C PUSH2 0x7395 JUMP JUMPDEST JUMPDEST PUSH1 0x20 MUL PUSH1 0x20 ADD ADD SWAP1 PUSH20 0xFFFFFFFFFFFFFFFFFFFFFFFFFFFFFFFFFFFFFFFF AND SWAP1 DUP2 PUSH20 0xFFFFFFFFFFFFFFFFFFFFFFFFFFFFFFFFFFFFFFFF AND DUP2 MSTORE POP POP POP DUP1 DUP1 PUSH1 0x1 ADD SWAP2 POP POP PUSH2 0x189C JUMP JUMPDEST POP PUSH1 0x8 PUSH1 0x1 PUSH1 0x8 DUP1 SLOAD SWAP1 POP PUSH2 0x19FA SWAP2 SWAP1 PUSH2 0x7AFD JUMP JUMPDEST DUP2 SLOAD DUP2 LT PUSH2 0x1A0B JUMPI PUSH2 0x1A0A PUSH2 0x7395 JUMP JUMPDEST JUMPDEST SWAP1 PUSH0 MSTORE PUSH1 0x20 PUSH0 KECCAK256 SWAP1 PUSH1 0x6 MUL ADD PUSH1 0x8 DUP3 DUP2 SLOAD DUP2 LT PUSH2 0x1A2B JUMPI PUSH2 0x1A2A PUSH2 0x7395 JUMP JUMPDEST JUMPDEST SWAP1 PUSH0 MSTORE PUSH1 0x20 PUSH0 KECCAK256 SWAP1 PUSH1 0x6 MUL ADD PUSH0 DUP3 ADD DUP2 PUSH0 ADD SWAP1 DUP2 PUSH2 0x1A49 SWAP2 SWAP1 PUSH2 0x7CD9 JUMP JUMPDEST POP PUSH1 0x1 DUP3 ADD PUSH0 SWAP1 SLOAD SWAP1 PUSH2 0x100 EXP SWAP1 DIV PUSH1 0xFF AND DUP2 PUSH1 0x1 ADD PUSH0 PUSH2 0x100 EXP DUP2 SLOAD DUP2 PUSH1 0xFF MUL NOT AND SWAP1 DUP4 PUSH1 0xFF AND MUL OR SWAP1 SSTORE POP PUSH1 0x1 DUP3 ADD PUSH1 0x1 SWAP1 SLOAD SWAP1 PUSH2 0x100 EXP SWAP1 DIV PUSH20 0xFFFFFFFFFFFFFFFFFFFFFFFFFFFFFFFFFFFFFFFF AND DUP2 PUSH1 0x1 ADD PUSH1 0x1 PUSH2 0x100 EXP DUP2 SLOAD DUP2 PUSH20 0xFFFFFFFFFFFFFFFFFFFFFFFFFFFFFFFFFFFFFFFF MUL NOT AND SWAP1 DUP4 PUSH20 0xFFFFFFFFFFFFFFFFFFFFFFFFFFFFFFFFFFFFFFFF AND MUL OR SWAP1 SSTORE POP PUSH1 0x2 DUP3 ADD DUP2 PUSH1 0x2 ADD SWAP1 DUP2 PUSH2 0x1AF1 SWAP2 SWAP1 PUSH2 0x7E2B JUMP JUMPDEST POP PUSH1 0x3 DUP3 ADD SLOAD DUP2 PUSH1 0x3 ADD SSTORE PUSH1 0x4 DUP3 ADD DUP2 PUSH1 0x4 ADD SWAP1 DUP1 SLOAD PUSH2 0x1B12 SWAP3 SWAP2 SWAP1 PUSH2 0x53C1 JUMP JUMPDEST POP PUSH1 0x5 DUP3 ADD DUP2 PUSH1 0x5 ADD SWAP1 DUP1 SLOAD PUSH2 0x1B29 SWAP3 SWAP2 SWAP1 PUSH2 0x53C1 JUMP JUMPDEST POP SWAP1 POP POP PUSH1 0x8 DUP1 SLOAD DUP1 PUSH2 0x1B3F JUMPI PUSH2 0x1B3E PUSH2 0x7F10 JUMP JUMPDEST JUMPDEST PUSH1 0x1 SWAP1 SUB DUP2 DUP2 SWAP1 PUSH0 MSTORE PUSH1 0x20 PUSH0 KECCAK256 SWAP1 PUSH1 0x6 MUL ADD PUSH0 DUP1 DUP3 ADD PUSH0 PUSH2 0x1B60 SWAP2 SWAP1 PUSH2 0x540F JUMP JUMPDEST PUSH1 0x1 DUP3 ADD PUSH0 PUSH2 0x100 EXP DUP2 SLOAD SWAP1 PUSH1 0xFF MUL NOT AND SWAP1 SSTORE PUSH1 0x1 DUP3 ADD PUSH1 0x1 PUSH2 0x100 EXP DUP2 SLOAD SWAP1 PUSH20 0xFFFFFFFFFFFFFFFFFFFFFFFFFFFFFFFFFFFFFFFF MUL NOT AND SWAP1 SSTORE PUSH1 0x2 DUP3 ADD PUSH0 PUSH2 0x1BA9 SWAP2 SWAP1 PUSH2 0x544C JUMP JUMPDEST PUSH1 0x3 DUP3 ADD PUSH0 SWAP1 SSTORE PUSH1 0x4 DUP3 ADD PUSH0 PUSH2 0x1BBF SWAP2 SWAP1 PUSH2 0x5489 JUMP JUMPDEST PUSH1 0x5 DUP3 ADD PUSH0 PUSH2 0x1BCE SWAP2 SWAP1 PUSH2 0x5489 JUMP JUMPDEST POP POP SWAP1 SSTORE PUSH2 0x1BE4 JUMP JUMPDEST DUP1 DUP1 PUSH1 0x1 ADD SWAP2 POP POP PUSH2 0x17AD JUMP JUMPDEST POP PUSH0 JUMPDEST DUP2 MLOAD DUP2 LT ISZERO PUSH2 0x1F1C JUMPI PUSH0 DUP3 DUP3 DUP2 MLOAD DUP2 LT PUSH2 0x1C04 JUMPI PUSH2 0x1C03 PUSH2 0x7395 JUMP JUMPDEST JUMPDEST PUSH1 0x20 MUL PUSH1 0x20 ADD ADD MLOAD SWAP1 POP PUSH0 PUSH1 0x9 PUSH0 DUP4 PUSH20 0xFFFFFFFFFFFFFFFFFFFFFFFFFFFFFFFFFFFFFFFF AND PUSH20 0xFFFFFFFFFFFFFFFFFFFFFFFFFFFFFFFFFFFFFFFF AND DUP2 MSTORE PUSH1 0x20 ADD SWAP1 DUP2 MSTORE PUSH1 0x20 ADD PUSH0 KECCAK256 SWAP1 POP PUSH0 JUMPDEST DUP2 DUP1 SLOAD SWAP1 POP DUP2 LT ISZERO PUSH2 0x1F0C JUMPI PUSH2 0x1D0D DUP3 DUP3 DUP2 SLOAD DUP2 LT PUSH2 0x1C72 JUMPI PUSH2 0x1C71 PUSH2 0x7395 JUMP JUMPDEST JUMPDEST SWAP1 PUSH0 MSTORE PUSH1 0x20 PUSH0 KECCAK256 SWAP1 PUSH1 0x6 MUL ADD PUSH0 ADD DUP1 SLOAD PUSH2 0x1C8B SWAP1 PUSH2 0x7417 JUMP JUMPDEST DUP1 PUSH1 0x1F ADD PUSH1 0x20 DUP1 SWAP2 DIV MUL PUSH1 0x20 ADD PUSH1 0x40 MLOAD SWAP1 DUP2 ADD PUSH1 0x40 MSTORE DUP1 SWAP3 SWAP2 SWAP1 DUP2 DUP2 MSTORE PUSH1 0x20 ADD DUP3 DUP1 SLOAD PUSH2 0x1CB7 SWAP1 PUSH2 0x7417 JUMP JUMPDEST DUP1 ISZERO PUSH2 0x1D02 JUMPI DUP1 PUSH1 0x1F LT PUSH2 0x1CD9 JUMPI PUSH2 0x100 DUP1 DUP4 SLOAD DIV MUL DUP4 MSTORE SWAP2 PUSH1 0x20 ADD SWAP2 PUSH2 0x1D02 JUMP JUMPDEST DUP3 ADD SWAP2 SWAP1 PUSH0 MSTORE PUSH1 0x20 PUSH0 KECCAK256 SWAP1 JUMPDEST DUP2 SLOAD DUP2 MSTORE SWAP1 PUSH1 0x1 ADD SWAP1 PUSH1 0x20 ADD DUP1 DUP4 GT PUSH2 0x1CE5 JUMPI DUP3 SWAP1 SUB PUSH1 0x1F AND DUP3 ADD SWAP2 JUMPDEST POP POP POP POP POP DUP9 PUSH2 0x4B9C JUMP JUMPDEST ISZERO PUSH2 0x1EFF JUMPI DUP2 PUSH1 0x1 DUP4 DUP1 SLOAD SWAP1 POP PUSH2 0x1D24 SWAP2 SWAP1 PUSH2 0x7AFD JUMP JUMPDEST DUP2 SLOAD DUP2 LT PUSH2 0x1D35 JUMPI PUSH2 0x1D34 PUSH2 0x7395 JUMP JUMPDEST JUMPDEST SWAP1 PUSH0 MSTORE PUSH1 0x20 PUSH0 KECCAK256 SWAP1 PUSH1 0x6 MUL ADD DUP3 DUP3 DUP2 SLOAD DUP2 LT PUSH2 0x1D54 JUMPI PUSH2 0x1D53 PUSH2 0x7395 JUMP JUMPDEST JUMPDEST SWAP1 PUSH0 MSTORE PUSH1 0x20 PUSH0 KECCAK256 SWAP1 PUSH1 0x6 MUL ADD PUSH0 DUP3 ADD DUP2 PUSH0 ADD SWAP1 DUP2 PUSH2 0x1D72 SWAP2 SWAP1 PUSH2 0x7CD9 JUMP JUMPDEST POP PUSH1 0x1 DUP3 ADD PUSH0 SWAP1 SLOAD SWAP1 PUSH2 0x100 EXP SWAP1 DIV PUSH1 0xFF AND DUP2 PUSH1 0x1 ADD PUSH0 PUSH2 0x100 EXP DUP2 SLOAD DUP2 PUSH1 0xFF MUL NOT AND SWAP1 DUP4 PUSH1 0xFF AND MUL OR SWAP1 SSTORE POP PUSH1 0x1 DUP3 ADD PUSH1 0x1 SWAP1 SLOAD SWAP1 PUSH2 0x100 EXP SWAP1 DIV PUSH20 0xFFFFFFFFFFFFFFFFFFFFFFFFFFFFFFFFFFFFFFFF AND DUP2 PUSH1 0x1 ADD PUSH1 0x1 PUSH2 0x100 EXP DUP2 SLOAD DUP2 PUSH20 0xFFFFFFFFFFFFFFFFFFFFFFFFFFFFFFFFFFFFFFFF MUL NOT AND SWAP1 DUP4 PUSH20 0xFFFFFFFFFFFFFFFFFFFFFFFFFFFFFFFFFFFFFFFF AND MUL OR SWAP1 SSTORE POP PUSH1 0x2 DUP3 ADD DUP2 PUSH1 0x2 ADD SWAP1 DUP2 PUSH2 0x1E1A SWAP2 SWAP1 PUSH2 0x7E2B JUMP JUMPDEST POP PUSH1 0x3 DUP3 ADD SLOAD DUP2 PUSH1 0x3 ADD SSTORE PUSH1 0x4 DUP3 ADD DUP2 PUSH1 0x4 ADD SWAP1 DUP1 SLOAD PUSH2 0x1E3B SWAP3 SWAP2 SWAP1 PUSH2 0x53C1 JUMP JUMPDEST POP PUSH1 0x5 DUP3 ADD DUP2 PUSH1 0x5 ADD SWAP1 DUP1 SLOAD PUSH2 0x1E52 SWAP3 SWAP2 SWAP1 PUSH2 0x53C1 JUMP JUMPDEST POP SWAP1 POP POP DUP2 DUP1 SLOAD DUP1 PUSH2 0x1E67 JUMPI PUSH2 0x1E66 PUSH2 0x7F10 JUMP JUMPDEST JUMPDEST PUSH1 0x1 SWAP1 SUB DUP2 DUP2 SWAP1 PUSH0 MSTORE PUSH1 0x20 PUSH0 KECCAK256 SWAP1 PUSH1 0x6 MUL ADD PUSH0 DUP1 DUP3 ADD PUSH0 PUSH2 0x1E88 SWAP2 SWAP1 PUSH2 0x540F JUMP JUMPDEST PUSH1 0x1 DUP3 ADD PUSH0 PUSH2 0x100 EXP DUP2 SLOAD SWAP1 PUSH1 0xFF MUL NOT AND SWAP1 SSTORE PUSH1 0x1 DUP3 ADD PUSH1 0x1 PUSH2 0x100 EXP DUP2 SLOAD SWAP1 PUSH20 0xFFFFFFFFFFFFFFFFFFFFFFFFFFFFFFFFFFFFFFFF MUL NOT AND SWAP1 SSTORE PUSH1 0x2 DUP3 ADD PUSH0 PUSH2 0x1ED1 SWAP2 SWAP1 PUSH2 0x544C JUMP JUMPDEST PUSH1 0x3 DUP3 ADD PUSH0 SWAP1 SSTORE PUSH1 0x4 DUP3 ADD PUSH0 PUSH2 0x1EE7 SWAP2 SWAP1 PUSH2 0x5489 JUMP JUMPDEST PUSH1 0x5 DUP3 ADD PUSH0 PUSH2 0x1EF6 SWAP2 SWAP1 PUSH2 0x5489 JUMP JUMPDEST POP POP SWAP1 SSTORE PUSH2 0x1F0C JUMP JUMPDEST DUP1 DUP1 PUSH1 0x1 ADD SWAP2 POP POP PUSH2 0x1C50 JUMP JUMPDEST POP POP POP DUP1 DUP1 PUSH1 0x1 ADD SWAP2 POP POP PUSH2 0x1BE7 JUMP JUMPDEST POP POP POP POP JUMP JUMPDEST PUSH0 DUP1 PUSH0 PUSH1 0x13 PUSH0 CALLER PUSH20 0xFFFFFFFFFFFFFFFFFFFFFFFFFFFFFFFFFFFFFFFF AND PUSH20 0xFFFFFFFFFFFFFFFFFFFFFFFFFFFFFFFFFFFFFFFF AND DUP2 MSTORE PUSH1 0x20 ADD SWAP1 DUP2 MSTORE PUSH1 0x20 ADD PUSH0 KECCAK256 PUSH0 SWAP1 SLOAD SWAP1 PUSH2 0x100 EXP SWAP1 DIV PUSH1 0xFF AND PUSH2 0x1FAE JUMPI PUSH1 0x40 MLOAD PUSH32 0x8C379A000000000000000000000000000000000000000000000000000000000 DUP2 MSTORE PUSH1 0x4 ADD PUSH2 0x1FA5 SWAP1 PUSH2 0x700D JUMP JUMPDEST PUSH1 0x40 MLOAD DUP1 SWAP2 SUB SWAP1 REVERT JUMPDEST PUSH1 0x3 SLOAD PUSH1 0x4 SLOAD PUSH1 0x5 SLOAD SWAP3 POP SWAP3 POP SWAP3 POP SWAP1 SWAP2 SWAP3 JUMP JUMPDEST PUSH0 PUSH1 0x4 SLOAD GT PUSH2 0x1FEA PUSH1 0x1 PUSH1 0x40 MLOAD DUP1 PUSH1 0x60 ADD PUSH1 0x40 MSTORE DUP1 PUSH1 0x23 DUP2 MSTORE PUSH1 0x20 ADD PUSH2 0x91EF PUSH1 0x23 SWAP2 CODECOPY PUSH2 0xEA6 JUMP JUMPDEST SWAP1 PUSH2 0x202B JUMPI PUSH1 0x40 MLOAD PUSH32 0x8C379A000000000000000000000000000000000000000000000000000000000 DUP2 MSTORE PUSH1 0x4 ADD PUSH2 0x2022 SWAP2 SWAP1 PUSH2 0x5E3B JUMP JUMPDEST PUSH1 0x40 MLOAD DUP1 SWAP2 SUB SWAP1 REVERT JUMPDEST POP PUSH1 0x4 PUSH0 DUP2 SLOAD DUP1 SWAP3 SWAP2 SWAP1 PUSH2 0x203E SWAP1 PUSH2 0x7F3D JUMP JUMPDEST SWAP2 SWAP1 POP SSTORE POP JUMP JUMPDEST PUSH0 PUSH1 0x15 PUSH0 SWAP1 SLOAD SWAP1 PUSH2 0x100 EXP SWAP1 DIV PUSH20 0xFFFFFFFFFFFFFFFFFFFFFFFFFFFFFFFFFFFFFFFF AND DUP1 PUSH20 0xFFFFFFFFFFFFFFFFFFFFFFFFFFFFFFFFFFFFFFFF AND CALLER PUSH20 0xFFFFFFFFFFFFFFFFFFFFFFFFFFFFFFFFFFFFFFFF AND EQ PUSH2 0x20D6 JUMPI PUSH1 0x40 MLOAD PUSH32 0x8C379A000000000000000000000000000000000000000000000000000000000 DUP2 MSTORE PUSH1 0x4 ADD PUSH2 0x20CD SWAP1 PUSH2 0x7377 JUMP JUMPDEST PUSH1 0x40 MLOAD DUP1 SWAP2 SUB SWAP1 REVERT JUMPDEST PUSH1 0x1 PUSH1 0x13 PUSH0 DUP6 PUSH20 0xFFFFFFFFFFFFFFFFFFFFFFFFFFFFFFFFFFFFFFFF AND PUSH20 0xFFFFFFFFFFFFFFFFFFFFFFFFFFFFFFFFFFFFFFFF AND DUP2 MSTORE PUSH1 0x20 ADD SWAP1 DUP2 MSTORE PUSH1 0x20 ADD PUSH0 KECCAK256 PUSH0 PUSH2 0x100 EXP DUP2 SLOAD DUP2 PUSH1 0xFF MUL NOT AND SWAP1 DUP4 ISZERO ISZERO MUL OR SWAP1 SSTORE POP PUSH1 0x14 DUP4 SWAP1 DUP1 PUSH1 0x1 DUP2 SLOAD ADD DUP1 DUP3 SSTORE DUP1 SWAP2 POP POP PUSH1 0x1 SWAP1 SUB SWAP1 PUSH0 MSTORE PUSH1 0x20 PUSH0 KECCAK256 ADD PUSH0 SWAP1 SWAP2 SWAP1 SWAP2 SWAP1 SWAP2 PUSH2 0x100 EXP DUP2 SLOAD DUP2 PUSH20 0xFFFFFFFFFFFFFFFFFFFFFFFFFFFFFFFFFFFFFFFF MUL NOT AND SWAP1 DUP4 PUSH20 0xFFFFFFFFFFFFFFFFFFFFFFFFFFFFFFFFFFFFFFFF AND MUL OR SWAP1 SSTORE POP PUSH1 0x1 SWAP2 POP POP SWAP2 SWAP1 POP JUMP JUMPDEST PUSH1 0x60 PUSH1 0xB PUSH0 DUP4 DUP2 MSTORE PUSH1 0x20 ADD SWAP1 DUP2 MSTORE PUSH1 0x20 ADD PUSH0 KECCAK256 DUP1 SLOAD DUP1 PUSH1 0x20 MUL PUSH1 0x20 ADD PUSH1 0x40 MLOAD SWAP1 DUP2 ADD PUSH1 0x40 MSTORE DUP1 SWAP3 SWAP2 SWAP1 DUP2 DUP2 MSTORE PUSH1 0x20 ADD DUP3 DUP1 SLOAD DUP1 ISZERO PUSH2 0x21F0 JUMPI PUSH1 0x20 MUL DUP3 ADD SWAP2 SWAP1 PUSH0 MSTORE PUSH1 0x20 PUSH0 KECCAK256 SWAP1 JUMPDEST DUP2 SLOAD DUP2 MSTORE PUSH1 0x20 ADD SWAP1 PUSH1 0x1 ADD SWAP1 DUP1 DUP4 GT PUSH2 0x21DC JUMPI JUMPDEST POP POP POP POP POP SWAP1 POP SWAP2 SWAP1 POP JUMP JUMPDEST PUSH1 0x60 DUP1 PUSH1 0x60 PUSH0 PUSH1 0x17 PUSH0 SWAP1 SLOAD SWAP1 PUSH2 0x100 EXP SWAP1 DIV PUSH20 0xFFFFFFFFFFFFFFFFFFFFFFFFFFFFFFFFFFFFFFFF AND PUSH20 0xFFFFFFFFFFFFFFFFFFFFFFFFFFFFFFFFFFFFFFFF AND PUSH4 0xC29B2F20 PUSH1 0x40 MLOAD DUP2 PUSH4 0xFFFFFFFF AND PUSH1 0xE0 SHL DUP2 MSTORE PUSH1 0x4 ADD PUSH0 PUSH1 0x40 MLOAD DUP1 DUP4 SUB DUP2 DUP7 GAS STATICCALL ISZERO DUP1 ISZERO PUSH2 0x226B JUMPI RETURNDATASIZE PUSH0 DUP1 RETURNDATACOPY RETURNDATASIZE PUSH0 REVERT JUMPDEST POP POP POP POP PUSH1 0x40 MLOAD RETURNDATASIZE PUSH0 DUP3 RETURNDATACOPY RETURNDATASIZE PUSH1 0x1F NOT PUSH1 0x1F DUP3 ADD AND DUP3 ADD DUP1 PUSH1 0x40 MSTORE POP DUP2 ADD SWAP1 PUSH2 0x2293 SWAP2 SWAP1 PUSH2 0x8042 JUMP JUMPDEST SWAP1 POP PUSH0 DUP2 MLOAD PUSH8 0xFFFFFFFFFFFFFFFF DUP2 GT ISZERO PUSH2 0x22B1 JUMPI PUSH2 0x22B0 PUSH2 0x5C75 JUMP JUMPDEST JUMPDEST PUSH1 0x40 MLOAD SWAP1 DUP1 DUP3 MSTORE DUP1 PUSH1 0x20 MUL PUSH1 0x20 ADD DUP3 ADD PUSH1 0x40 MSTORE DUP1 ISZERO PUSH2 0x22DF JUMPI DUP2 PUSH1 0x20 ADD PUSH1 0x20 DUP3 MUL DUP1 CALLDATASIZE DUP4 CALLDATACOPY DUP1 DUP3 ADD SWAP2 POP POP SWAP1 POP JUMPDEST POP SWAP1 POP PUSH0 DUP3 MLOAD PUSH8 0xFFFFFFFFFFFFFFFF DUP2 GT ISZERO PUSH2 0x22FE JUMPI PUSH2 0x22FD PUSH2 0x5C75 JUMP JUMPDEST JUMPDEST PUSH1 0x40 MLOAD SWAP1 DUP1 DUP3 MSTORE DUP1 PUSH1 0x20 MUL PUSH1 0x20 ADD DUP3 ADD PUSH1 0x40 MSTORE DUP1 ISZERO PUSH2 0x232C JUMPI DUP2 PUSH1 0x20 ADD PUSH1 0x20 DUP3 MUL DUP1 CALLDATASIZE DUP4 CALLDATACOPY DUP1 DUP3 ADD SWAP2 POP POP SWAP1 POP JUMPDEST POP SWAP1 POP DUP3 MLOAD PUSH8 0xFFFFFFFFFFFFFFFF DUP2 GT ISZERO PUSH2 0x234A JUMPI PUSH2 0x2349 PUSH2 0x5C75 JUMP JUMPDEST JUMPDEST PUSH1 0x40 MLOAD SWAP1 DUP1 DUP3 MSTORE DUP1 PUSH1 0x20 MUL PUSH1 0x20 ADD DUP3 ADD PUSH1 0x40 MSTORE DUP1 ISZERO PUSH2 0x2378 JUMPI DUP2 PUSH1 0x20 ADD PUSH1 0x20 DUP3 MUL DUP1 CALLDATASIZE DUP4 CALLDATACOPY DUP1 DUP3 ADD SWAP2 POP POP SWAP1 POP JUMPDEST POP SWAP4 POP PUSH0 JUMPDEST DUP4 MLOAD DUP2 LT ISZERO PUSH2 0x2522 JUMPI DUP4 DUP2 DUP2 MLOAD DUP2 LT PUSH2 0x2399 JUMPI PUSH2 0x2398 PUSH2 0x7395 JUMP JUMPDEST JUMPDEST PUSH1 0x20 MUL PUSH1 0x20 ADD ADD MLOAD PUSH0 ADD MLOAD DUP4 DUP3 DUP2 MLOAD DUP2 LT PUSH2 0x23B7 JUMPI PUSH2 0x23B6 PUSH2 0x7395 JUMP JUMPDEST JUMPDEST PUSH1 0x20 MUL PUSH1 0x20 ADD ADD DUP2 DUP2 MSTORE POP POP PUSH1 0xE PUSH0 DUP6 DUP4 DUP2 MLOAD DUP2 LT PUSH2 0x23D9 JUMPI PUSH2 0x23D8 PUSH2 0x7395 JUMP JUMPDEST JUMPDEST PUSH1 0x20 MUL PUSH1 0x20 ADD ADD MLOAD PUSH0 ADD MLOAD DUP2 MSTORE PUSH1 0x20 ADD SWAP1 DUP2 MSTORE PUSH1 0x20 ADD PUSH0 KECCAK256 SLOAD DUP3 DUP3 DUP2 MLOAD DUP2 LT PUSH2 0x2405 JUMPI PUSH2 0x2404 PUSH2 0x7395 JUMP JUMPDEST JUMPDEST PUSH1 0x20 MUL PUSH1 0x20 ADD ADD DUP2 DUP2 MSTORE POP POP PUSH0 PUSH1 0xA PUSH0 DUP7 DUP5 DUP2 MLOAD DUP2 LT PUSH2 0x2428 JUMPI PUSH2 0x2427 PUSH2 0x7395 JUMP JUMPDEST JUMPDEST PUSH1 0x20 MUL PUSH1 0x20 ADD ADD MLOAD PUSH0 ADD MLOAD DUP2 MSTORE PUSH1 0x20 ADD SWAP1 DUP2 MSTORE PUSH1 0x20 ADD PUSH0 KECCAK256 DUP1 SLOAD SWAP1 POP GT ISZERO PUSH2 0x24F4 JUMPI PUSH1 0xA PUSH0 DUP6 DUP4 DUP2 MLOAD DUP2 LT PUSH2 0x2460 JUMPI PUSH2 0x245F PUSH2 0x7395 JUMP JUMPDEST JUMPDEST PUSH1 0x20 MUL PUSH1 0x20 ADD ADD MLOAD PUSH0 ADD MLOAD DUP2 MSTORE PUSH1 0x20 ADD SWAP1 DUP2 MSTORE PUSH1 0x20 ADD PUSH0 KECCAK256 PUSH1 0x1 PUSH1 0xA PUSH0 DUP8 DUP6 DUP2 MLOAD DUP2 LT PUSH2 0x2490 JUMPI PUSH2 0x248F PUSH2 0x7395 JUMP JUMPDEST JUMPDEST PUSH1 0x20 MUL PUSH1 0x20 ADD ADD MLOAD PUSH0 ADD MLOAD DUP2 MSTORE PUSH1 0x20 ADD SWAP1 DUP2 MSTORE PUSH1 0x20 ADD PUSH0 KECCAK256 DUP1 SLOAD SWAP1 POP PUSH2 0x24B6 SWAP2 SWAP1 PUSH2 0x7AFD JUMP JUMPDEST DUP2 SLOAD DUP2 LT PUSH2 0x24C7 JUMPI PUSH2 0x24C6 PUSH2 0x7395 JUMP JUMPDEST JUMPDEST SWAP1 PUSH0 MSTORE PUSH1 0x20 PUSH0 KECCAK256 ADD SLOAD DUP6 DUP3 DUP2 MLOAD DUP2 LT PUSH2 0x24E3 JUMPI PUSH2 0x24E2 PUSH2 0x7395 JUMP JUMPDEST JUMPDEST PUSH1 0x20 MUL PUSH1 0x20 ADD ADD DUP2 DUP2 MSTORE POP POP PUSH2 0x2515 JUMP JUMPDEST PUSH0 DUP6 DUP3 DUP2 MLOAD DUP2 LT PUSH2 0x2508 JUMPI PUSH2 0x2507 PUSH2 0x7395 JUMP JUMPDEST JUMPDEST PUSH1 0x20 MUL PUSH1 0x20 ADD ADD DUP2 DUP2 MSTORE POP POP JUMPDEST DUP1 DUP1 PUSH1 0x1 ADD SWAP2 POP POP PUSH2 0x237D JUMP JUMPDEST POP DUP2 DUP2 SWAP6 POP SWAP6 POP POP POP POP SWAP1 SWAP2 SWAP3 JUMP JUMPDEST PUSH0 SLOAD DUP2 JUMP JUMPDEST PUSH1 0x6 PUSH1 0x20 MSTORE DUP1 PUSH0 MSTORE PUSH1 0x40 PUSH0 KECCAK256 PUSH0 SWAP2 POP SWAP1 POP SLOAD DUP2 JUMP JUMPDEST PUSH1 0x4 SLOAD DUP2 JUMP JUMPDEST PUSH0 DUP1 JUMPDEST PUSH1 0xF DUP1 SLOAD SWAP1 POP DUP2 PUSH1 0xFF AND LT ISZERO PUSH2 0x25E7 JUMPI DUP3 PUSH1 0xF DUP3 PUSH1 0xFF AND DUP2 SLOAD DUP2 LT PUSH2 0x257C JUMPI PUSH2 0x257B PUSH2 0x7395 JUMP JUMPDEST JUMPDEST SWAP1 PUSH0 MSTORE PUSH1 0x20 PUSH0 KECCAK256 SWAP1 PUSH1 0x3 MUL ADD PUSH0 ADD SLOAD SUB PUSH2 0x25D4 JUMPI PUSH1 0xF DUP2 PUSH1 0xFF AND DUP2 SLOAD DUP2 LT PUSH2 0x25A7 JUMPI PUSH2 0x25A6 PUSH2 0x7395 JUMP JUMPDEST JUMPDEST SWAP1 PUSH0 MSTORE PUSH1 0x20 PUSH0 KECCAK256 SWAP1 PUSH1 0x3 MUL ADD PUSH1 0x1 ADD PUSH0 DUP2 SLOAD DUP1 SWAP3 SWAP2 SWAP1 PUSH2 0x25C6 SWAP1 PUSH2 0x725E JUMP JUMPDEST SWAP2 SWAP1 POP SSTORE POP PUSH1 0x1 SWAP2 POP PUSH2 0x25E7 JUMP JUMPDEST DUP1 DUP1 PUSH2 0x25DF SWAP1 PUSH2 0x73C2 JUMP JUMPDEST SWAP2 POP POP PUSH2 0x2554 JUMP JUMPDEST POP DUP1 PUSH2 0x2655 JUMPI PUSH0 PUSH1 0x40 MLOAD DUP1 PUSH1 0x60 ADD PUSH1 0x40 MSTORE DUP1 DUP5 DUP2 MSTORE PUSH1 0x20 ADD PUSH1 0x1 DUP2 MSTORE PUSH1 0x20 ADD TIMESTAMP DUP2 MSTORE POP SWAP1 POP PUSH1 0xF DUP2 SWAP1 DUP1 PUSH1 0x1 DUP2 SLOAD ADD DUP1 DUP3 SSTORE DUP1 SWAP2 POP POP PUSH1 0x1 SWAP1 SUB SWAP1 PUSH0 MSTORE PUSH1 0x20 PUSH0 KECCAK256 SWAP1 PUSH1 0x3 MUL ADD PUSH0 SWAP1 SWAP2 SWAP1 SWAP2 SWAP1 SWAP2 POP PUSH0 DUP3 ADD MLOAD DUP2 PUSH0 ADD SSTORE PUSH1 0x20 DUP3 ADD MLOAD DUP2 PUSH1 0x1 ADD SSTORE PUSH1 0x40 DUP3 ADD MLOAD DUP2 PUSH1 0x2 ADD SSTORE POP POP POP JUMPDEST POP POP JUMP JUMPDEST PUSH1 0x60 PUSH1 0x13 PUSH0 CALLER PUSH20 0xFFFFFFFFFFFFFFFFFFFFFFFFFFFFFFFFFFFFFFFF AND PUSH20 0xFFFFFFFFFFFFFFFFFFFFFFFFFFFFFFFFFFFFFFFF AND DUP2 MSTORE PUSH1 0x20 ADD SWAP1 DUP2 MSTORE PUSH1 0x20 ADD PUSH0 KECCAK256 PUSH0 SWAP1 SLOAD SWAP1 PUSH2 0x100 EXP SWAP1 DIV PUSH1 0xFF AND PUSH2 0x26E4 JUMPI PUSH1 0x40 MLOAD PUSH32 0x8C379A000000000000000000000000000000000000000000000000000000000 DUP2 MSTORE PUSH1 0x4 ADD PUSH2 0x26DB SWAP1 PUSH2 0x700D JUMP JUMPDEST PUSH1 0x40 MLOAD DUP1 SWAP2 SUB SWAP1 REVERT JUMPDEST PUSH1 0x8 DUP1 SLOAD DUP1 PUSH1 0x20 MUL PUSH1 0x20 ADD PUSH1 0x40 MLOAD SWAP1 DUP2 ADD PUSH1 0x40 MSTORE DUP1 SWAP3 SWAP2 SWAP1 DUP2 DUP2 MSTORE PUSH1 0x20 ADD PUSH0 SWAP1 JUMPDEST DUP3 DUP3 LT ISZERO PUSH2 0x297C JUMPI DUP4 DUP3 SWAP1 PUSH0 MSTORE PUSH1 0x20 PUSH0 KECCAK256 SWAP1 PUSH1 0x6 MUL ADD PUSH1 0x40 MLOAD DUP1 PUSH1 0xE0 ADD PUSH1 0x40 MSTORE SWAP1 DUP2 PUSH0 DUP3 ADD DUP1 SLOAD PUSH2 0x2735 SWAP1 PUSH2 0x7417 JUMP JUMPDEST DUP1 PUSH1 0x1F ADD PUSH1 0x20 DUP1 SWAP2 DIV MUL PUSH1 0x20 ADD PUSH1 0x40 MLOAD SWAP1 DUP2 ADD PUSH1 0x40 MSTORE DUP1 SWAP3 SWAP2 SWAP1 DUP2 DUP2 MSTORE PUSH1 0x20 ADD DUP3 DUP1 SLOAD PUSH2 0x2761 SWAP1 PUSH2 0x7417 JUMP JUMPDEST DUP1 ISZERO PUSH2 0x27AC JUMPI DUP1 PUSH1 0x1F LT PUSH2 0x2783 JUMPI PUSH2 0x100 DUP1 DUP4 SLOAD DIV MUL DUP4 MSTORE SWAP2 PUSH1 0x20 ADD SWAP2 PUSH2 0x27AC JUMP JUMPDEST DUP3 ADD SWAP2 SWAP1 PUSH0 MSTORE PUSH1 0x20 PUSH0 KECCAK256 SWAP1 JUMPDEST DUP2 SLOAD DUP2 MSTORE SWAP1 PUSH1 0x1 ADD SWAP1 PUSH1 0x20 ADD DUP1 DUP4 GT PUSH2 0x278F JUMPI DUP3 SWAP1 SUB PUSH1 0x1F AND DUP3 ADD SWAP2 JUMPDEST POP POP POP POP POP DUP2 MSTORE PUSH1 0x20 ADD PUSH1 0x1 DUP3 ADD PUSH0 SWAP1 SLOAD SWAP1 PUSH2 0x100 EXP SWAP1 DIV PUSH1 0xFF AND PUSH1 0xFF AND PUSH1 0xFF AND DUP2 MSTORE PUSH1 0x20 ADD PUSH1 0x1 DUP3 ADD PUSH1 0x1 SWAP1 SLOAD SWAP1 PUSH2 0x100 EXP SWAP1 DIV PUSH20 0xFFFFFFFFFFFFFFFFFFFFFFFFFFFFFFFFFFFFFFFF AND PUSH20 0xFFFFFFFFFFFFFFFFFFFFFFFFFFFFFFFFFFFFFFFF AND PUSH20 0xFFFFFFFFFFFFFFFFFFFFFFFFFFFFFFFFFFFFFFFF AND DUP2 MSTORE PUSH1 0x20 ADD PUSH1 0x2 DUP3 ADD DUP1 SLOAD PUSH2 0x2837 SWAP1 PUSH2 0x7417 JUMP JUMPDEST DUP1 PUSH1 0x1F ADD PUSH1 0x20 DUP1 SWAP2 DIV MUL PUSH1 0x20 ADD PUSH1 0x40 MLOAD SWAP1 DUP2 ADD PUSH1 0x40 MSTORE DUP1 SWAP3 SWAP2 SWAP1 DUP2 DUP2 MSTORE PUSH1 0x20 ADD DUP3 DUP1 SLOAD PUSH2 0x2863 SWAP1 PUSH2 0x7417 JUMP JUMPDEST DUP1 ISZERO PUSH2 0x28AE JUMPI DUP1 PUSH1 0x1F LT PUSH2 0x2885 JUMPI PUSH2 0x100 DUP1 DUP4 SLOAD DIV MUL DUP4 MSTORE SWAP2 PUSH1 0x20 ADD SWAP2 PUSH2 0x28AE JUMP JUMPDEST DUP3 ADD SWAP2 SWAP1 PUSH0 MSTORE PUSH1 0x20 PUSH0 KECCAK256 SWAP1 JUMPDEST DUP2 SLOAD DUP2 MSTORE SWAP1 PUSH1 0x1 ADD SWAP1 PUSH1 0x20 ADD DUP1 DUP4 GT PUSH2 0x2891 JUMPI DUP3 SWAP1 SUB PUSH1 0x1F AND DUP3 ADD SWAP2 JUMPDEST POP POP POP POP POP DUP2 MSTORE PUSH1 0x20 ADD PUSH1 0x3 DUP3 ADD SLOAD DUP2 MSTORE PUSH1 0x20 ADD PUSH1 0x4 DUP3 ADD DUP1 SLOAD DUP1 PUSH1 0x20 MUL PUSH1 0x20 ADD PUSH1 0x40 MLOAD SWAP1 DUP2 ADD PUSH1 0x40 MSTORE DUP1 SWAP3 SWAP2 SWAP1 DUP2 DUP2 MSTORE PUSH1 0x20 ADD DUP3 DUP1 SLOAD DUP1 ISZERO PUSH2 0x290E JUMPI PUSH1 0x20 MUL DUP3 ADD SWAP2 SWAP1 PUSH0 MSTORE PUSH1 0x20 PUSH0 KECCAK256 SWAP1 JUMPDEST DUP2 SLOAD DUP2 MSTORE PUSH1 0x20 ADD SWAP1 PUSH1 0x1 ADD SWAP1 DUP1 DUP4 GT PUSH2 0x28FA JUMPI JUMPDEST POP POP POP POP POP DUP2 MSTORE PUSH1 0x20 ADD PUSH1 0x5 DUP3 ADD DUP1 SLOAD DUP1 PUSH1 0x20 MUL PUSH1 0x20 ADD PUSH1 0x40 MLOAD SWAP1 DUP2 ADD PUSH1 0x40 MSTORE DUP1 SWAP3 SWAP2 SWAP1 DUP2 DUP2 MSTORE PUSH1 0x20 ADD DUP3 DUP1 SLOAD DUP1 ISZERO PUSH2 0x2964 JUMPI PUSH1 0x20 MUL DUP3 ADD SWAP2 SWAP1 PUSH0 MSTORE PUSH1 0x20 PUSH0 KECCAK256 SWAP1 JUMPDEST DUP2 SLOAD DUP2 MSTORE PUSH1 0x20 ADD SWAP1 PUSH1 0x1 ADD SWAP1 DUP1 DUP4 GT PUSH2 0x2950 JUMPI JUMPDEST POP POP POP POP POP DUP2 MSTORE POP POP DUP2 MSTORE PUSH1 0x20 ADD SWAP1 PUSH1 0x1 ADD SWAP1 PUSH2 0x2705 JUMP JUMPDEST POP POP POP POP SWAP1 POP SWAP1 JUMP JUMPDEST PUSH0 DUP2 PUSH2 0x29CD JUMPI PUSH1 0xD PUSH0 DUP6 PUSH20 0xFFFFFFFFFFFFFFFFFFFFFFFFFFFFFFFFFFFFFFFF AND PUSH20 0xFFFFFFFFFFFFFFFFFFFFFFFFFFFFFFFFFFFFFFFF AND DUP2 MSTORE PUSH1 0x20 ADD SWAP1 DUP2 MSTORE PUSH1 0x20 ADD PUSH0 KECCAK256 PUSH2 0x29D0 JUMP JUMPDEST PUSH1 0xC JUMPDEST SWAP1 POP PUSH0 DUP1 JUMPDEST DUP3 DUP1 SLOAD SWAP1 POP DUP2 LT ISZERO PUSH2 0x2C4F JUMPI DUP9 PUSH20 0xFFFFFFFFFFFFFFFFFFFFFFFFFFFFFFFFFFFFFFFF AND DUP4 DUP3 DUP2 SLOAD DUP2 LT PUSH2 0x2A0B JUMPI PUSH2 0x2A0A PUSH2 0x7395 JUMP JUMPDEST JUMPDEST SWAP1 PUSH0 MSTORE PUSH1 0x20 PUSH0 KECCAK256 SWAP1 PUSH1 0x4 MUL ADD PUSH0 ADD PUSH0 SWAP1 SLOAD SWAP1 PUSH2 0x100 EXP SWAP1 DIV PUSH20 0xFFFFFFFFFFFFFFFFFFFFFFFFFFFFFFFFFFFFFFFF AND PUSH20 0xFFFFFFFFFFFFFFFFFFFFFFFFFFFFFFFFFFFFFFFF AND SUB PUSH2 0x2C42 JUMPI PUSH1 0x1 SWAP2 POP PUSH0 DUP1 JUMPDEST DUP5 DUP4 DUP2 SLOAD DUP2 LT PUSH2 0x2A6E JUMPI PUSH2 0x2A6D PUSH2 0x7395 JUMP JUMPDEST JUMPDEST SWAP1 PUSH0 MSTORE PUSH1 0x20 PUSH0 KECCAK256 SWAP1 PUSH1 0x4 MUL ADD PUSH1 0x1 ADD DUP1 SLOAD SWAP1 POP DUP2 LT ISZERO PUSH2 0x2B63 JUMPI DUP10 DUP6 DUP5 DUP2 SLOAD DUP2 LT PUSH2 0x2A9C JUMPI PUSH2 0x2A9B PUSH2 0x7395 JUMP JUMPDEST JUMPDEST SWAP1 PUSH0 MSTORE PUSH1 0x20 PUSH0 KECCAK256 SWAP1 PUSH1 0x4 MUL ADD PUSH1 0x1 ADD DUP3 DUP2 SLOAD DUP2 LT PUSH2 0x2ABD JUMPI PUSH2 0x2ABC PUSH2 0x7395 JUMP JUMPDEST JUMPDEST SWAP1 PUSH0 MSTORE PUSH1 0x20 PUSH0 KECCAK256 ADD SLOAD SUB PUSH2 0x2B56 JUMPI TIMESTAMP DUP6 DUP5 DUP2 SLOAD DUP2 LT PUSH2 0x2ADF JUMPI PUSH2 0x2ADE PUSH2 0x7395 JUMP JUMPDEST JUMPDEST SWAP1 PUSH0 MSTORE PUSH1 0x20 PUSH0 KECCAK256 SWAP1 PUSH1 0x4 MUL ADD PUSH1 0x3 ADD DUP3 DUP2 SLOAD DUP2 LT PUSH2 0x2B00 JUMPI PUSH2 0x2AFF PUSH2 0x7395 JUMP JUMPDEST JUMPDEST SWAP1 PUSH0 MSTORE PUSH1 0x20 PUSH0 KECCAK256 ADD DUP2 SWAP1 SSTORE POP DUP9 DUP6 DUP5 DUP2 SLOAD DUP2 LT PUSH2 0x2B20 JUMPI PUSH2 0x2B1F PUSH2 0x7395 JUMP JUMPDEST JUMPDEST SWAP1 PUSH0 MSTORE PUSH1 0x20 PUSH0 KECCAK256 SWAP1 PUSH1 0x4 MUL ADD PUSH1 0x2 ADD DUP3 DUP2 SLOAD DUP2 LT PUSH2 0x2B41 JUMPI PUSH2 0x2B40 PUSH2 0x7395 JUMP JUMPDEST JUMPDEST SWAP1 PUSH0 MSTORE PUSH1 0x20 PUSH0 KECCAK256 ADD DUP2 SWAP1 SSTORE POP PUSH1 0x1 SWAP2 POP PUSH2 0x2B63 JUMP JUMPDEST DUP1 DUP1 PUSH1 0x1 ADD SWAP2 POP POP PUSH2 0x2A5B JUMP JUMPDEST POP DUP1 PUSH2 0x2C3C JUMPI DUP4 DUP3 DUP2 SLOAD DUP2 LT PUSH2 0x2B7C JUMPI PUSH2 0x2B7B PUSH2 0x7395 JUMP JUMPDEST JUMPDEST SWAP1 PUSH0 MSTORE PUSH1 0x20 PUSH0 KECCAK256 SWAP1 PUSH1 0x4 MUL ADD PUSH1 0x1 ADD DUP10 SWAP1 DUP1 PUSH1 0x1 DUP2 SLOAD ADD DUP1 DUP3 SSTORE DUP1 SWAP2 POP POP PUSH1 0x1 SWAP1 SUB SWAP1 PUSH0 MSTORE PUSH1 0x20 PUSH0 KECCAK256 ADD PUSH0 SWAP1 SWAP2 SWAP1 SWAP2 SWAP1 SWAP2 POP SSTORE DUP4 DUP3 DUP2 SLOAD DUP2 LT PUSH2 0x2BC2 JUMPI PUSH2 0x2BC1 PUSH2 0x7395 JUMP JUMPDEST JUMPDEST SWAP1 PUSH0 MSTORE PUSH1 0x20 PUSH0 KECCAK256 SWAP1 PUSH1 0x4 MUL ADD PUSH1 0x3 ADD TIMESTAMP SWAP1 DUP1 PUSH1 0x1 DUP2 SLOAD ADD DUP1 DUP3 SSTORE DUP1 SWAP2 POP POP PUSH1 0x1 SWAP1 SUB SWAP1 PUSH0 MSTORE PUSH1 0x20 PUSH0 KECCAK256 ADD PUSH0 SWAP1 SWAP2 SWAP1 SWAP2 SWAP1 SWAP2 POP SSTORE DUP4 DUP3 DUP2 SLOAD DUP2 LT PUSH2 0x2C08 JUMPI PUSH2 0x2C07 PUSH2 0x7395 JUMP JUMPDEST JUMPDEST SWAP1 PUSH0 MSTORE PUSH1 0x20 PUSH0 KECCAK256 SWAP1 PUSH1 0x4 MUL ADD PUSH1 0x2 ADD DUP9 SWAP1 DUP1 PUSH1 0x1 DUP2 SLOAD ADD DUP1 DUP3 SSTORE DUP1 SWAP2 POP POP PUSH1 0x1 SWAP1 SUB SWAP1 PUSH0 MSTORE PUSH1 0x20 PUSH0 KECCAK256 ADD PUSH0 SWAP1 SWAP2 SWAP1 SWAP2 SWAP1 SWAP2 POP SSTORE JUMPDEST POP PUSH2 0x2C4F JUMP JUMPDEST DUP1 DUP1 PUSH1 0x1 ADD SWAP2 POP POP PUSH2 0x29D5 JUMP JUMPDEST POP DUP1 PUSH2 0x2D4A JUMPI PUSH0 PUSH2 0x2C61 DUP9 DUP9 DUP8 PUSH2 0x4BC3 JUMP JUMPDEST SWAP1 POP DUP3 DUP2 SWAP1 DUP1 PUSH1 0x1 DUP2 SLOAD ADD DUP1 DUP3 SSTORE DUP1 SWAP2 POP POP PUSH1 0x1 SWAP1 SUB SWAP1 PUSH0 MSTORE PUSH1 0x20 PUSH0 KECCAK256 SWAP1 PUSH1 0x4 MUL ADD PUSH0 SWAP1 SWAP2 SWAP1 SWAP2 SWAP1 SWAP2 POP PUSH0 DUP3 ADD MLOAD DUP2 PUSH0 ADD PUSH0 PUSH2 0x100 EXP DUP2 SLOAD DUP2 PUSH20 0xFFFFFFFFFFFFFFFFFFFFFFFFFFFFFFFFFFFFFFFF MUL NOT AND SWAP1 DUP4 PUSH20 0xFFFFFFFFFFFFFFFFFFFFFFFFFFFFFFFFFFFFFFFF AND MUL OR SWAP1 SSTORE POP PUSH1 0x20 DUP3 ADD MLOAD DUP2 PUSH0 ADD PUSH1 0x14 PUSH2 0x100 EXP DUP2 SLOAD DUP2 PUSH1 0xFF MUL NOT AND SWAP1 DUP4 PUSH1 0xFF AND MUL OR SWAP1 SSTORE POP PUSH1 0x40 DUP3 ADD MLOAD DUP2 PUSH1 0x1 ADD SWAP1 DUP1 MLOAD SWAP1 PUSH1 0x20 ADD SWAP1 PUSH2 0x2D0B SWAP3 SWAP2 SWAP1 PUSH2 0x54A7 JUMP JUMPDEST POP PUSH1 0x60 DUP3 ADD MLOAD DUP2 PUSH1 0x2 ADD SWAP1 DUP1 MLOAD SWAP1 PUSH1 0x20 ADD SWAP1 PUSH2 0x2D28 SWAP3 SWAP2 SWAP1 PUSH2 0x54A7 JUMP JUMPDEST POP PUSH1 0x80 DUP3 ADD MLOAD DUP2 PUSH1 0x3 ADD SWAP1 DUP1 MLOAD SWAP1 PUSH1 0x20 ADD SWAP1 PUSH2 0x2D45 SWAP3 SWAP2 SWAP1 PUSH2 0x54A7 JUMP JUMPDEST POP POP POP POP JUMPDEST POP POP POP POP POP POP POP POP JUMP JUMPDEST PUSH1 0x15 PUSH0 SWAP1 SLOAD SWAP1 PUSH2 0x100 EXP SWAP1 DIV PUSH20 0xFFFFFFFFFFFFFFFFFFFFFFFFFFFFFFFFFFFFFFFF AND DUP2 JUMP JUMPDEST PUSH0 PUSH1 0x17 PUSH0 SWAP1 SLOAD SWAP1 PUSH2 0x100 EXP SWAP1 DIV PUSH20 0xFFFFFFFFFFFFFFFFFFFFFFFFFFFFFFFFFFFFFFFF AND PUSH20 0xFFFFFFFFFFFFFFFFFFFFFFFFFFFFFFFFFFFFFFFF AND PUSH4 0x66573F61 DUP4 PUSH1 0x60 ADD MLOAD PUSH1 0x40 MLOAD DUP3 PUSH4 0xFFFFFFFF AND PUSH1 0xE0 SHL DUP2 MSTORE PUSH1 0x4 ADD PUSH2 0x2DD8 SWAP2 SWAP1 PUSH2 0x5FD7 JUMP JUMPDEST PUSH0 PUSH1 0x40 MLOAD DUP1 DUP4 SUB DUP2 DUP7 GAS STATICCALL ISZERO DUP1 ISZERO PUSH2 0x2DF2 JUMPI RETURNDATASIZE PUSH0 DUP1 RETURNDATACOPY RETURNDATASIZE PUSH0 REVERT JUMPDEST POP POP POP POP PUSH1 0x40 MLOAD RETURNDATASIZE PUSH0 DUP3 RETURNDATACOPY RETURNDATASIZE PUSH1 0x1F NOT PUSH1 0x1F DUP3 ADD AND DUP3 ADD DUP1 PUSH1 0x40 MSTORE POP DUP2 ADD SWAP1 PUSH2 0x2E1A SWAP2 SWAP1 PUSH2 0x8149 JUMP JUMPDEST SWAP1 POP PUSH0 PUSH2 0x2E26 DUP3 PUSH2 0x4D75 JUMP JUMPDEST SWAP1 POP PUSH0 PUSH1 0x40 MLOAD DUP1 PUSH1 0xE0 ADD PUSH1 0x40 MSTORE DUP1 DUP6 PUSH0 ADD MLOAD DUP2 MSTORE PUSH1 0x20 ADD DUP6 PUSH1 0x20 ADD MLOAD PUSH1 0xFF AND DUP2 MSTORE PUSH1 0x20 ADD DUP6 PUSH1 0x40 ADD MLOAD PUSH20 0xFFFFFFFFFFFFFFFFFFFFFFFFFFFFFFFFFFFFFFFF AND DUP2 MSTORE PUSH1 0x20 ADD DUP4 DUP2 MSTORE PUSH1 0x20 ADD TIMESTAMP DUP2 MSTORE PUSH1 0x20 ADD DUP6 PUSH1 0x60 ADD MLOAD DUP2 MSTORE PUSH1 0x20 ADD DUP6 PUSH1 0x80 ADD MLOAD DUP2 MSTORE POP SWAP1 POP PUSH1 0x8 DUP2 SWAP1 DUP1 PUSH1 0x1 DUP2 SLOAD ADD DUP1 DUP3 SSTORE DUP1 SWAP2 POP POP PUSH1 0x1 SWAP1 SUB SWAP1 PUSH0 MSTORE PUSH1 0x20 PUSH0 KECCAK256 SWAP1 PUSH1 0x6 MUL ADD PUSH0 SWAP1 SWAP2 SWAP1 SWAP2 SWAP1 SWAP2 POP PUSH0 DUP3 ADD MLOAD DUP2 PUSH0 ADD SWAP1 DUP2 PUSH2 0x2EC6 SWAP2 SWAP1 PUSH2 0x8190 JUMP JUMPDEST POP PUSH1 0x20 DUP3 ADD MLOAD DUP2 PUSH1 0x1 ADD PUSH0 PUSH2 0x100 EXP DUP2 SLOAD DUP2 PUSH1 0xFF MUL NOT AND SWAP1 DUP4 PUSH1 0xFF AND MUL OR SWAP1 SSTORE POP PUSH1 0x40 DUP3 ADD MLOAD DUP2 PUSH1 0x1 ADD PUSH1 0x1 PUSH2 0x100 EXP DUP2 SLOAD DUP2 PUSH20 0xFFFFFFFFFFFFFFFFFFFFFFFFFFFFFFFFFFFFFFFF MUL NOT AND SWAP1 DUP4 PUSH20 0xFFFFFFFFFFFFFFFFFFFFFFFFFFFFFFFFFFFFFFFF AND MUL OR SWAP1 SSTORE POP PUSH1 0x60 DUP3 ADD MLOAD DUP2 PUSH1 0x2 ADD SWAP1 DUP2 PUSH2 0x2F43 SWAP2 SWAP1 PUSH2 0x825F JUMP JUMPDEST POP PUSH1 0x80 DUP3 ADD MLOAD DUP2 PUSH1 0x3 ADD SSTORE PUSH1 0xA0 DUP3 ADD MLOAD DUP2 PUSH1 0x4 ADD SWAP1 DUP1 MLOAD SWAP1 PUSH1 0x20 ADD SWAP1 PUSH2 0x2F6A SWAP3 SWAP2 SWAP1 PUSH2 0x54A7 JUMP JUMPDEST POP PUSH1 0xC0 DUP3 ADD MLOAD DUP2 PUSH1 0x5 ADD SWAP1 DUP1 MLOAD SWAP1 PUSH1 0x20 ADD SWAP1 PUSH2 0x2F87 SWAP3 SWAP2 SWAP1 PUSH2 0x54A7 JUMP JUMPDEST POP POP POP PUSH0 JUMPDEST DUP5 PUSH1 0x60 ADD MLOAD MLOAD DUP2 LT ISZERO PUSH2 0x33EE JUMPI PUSH0 PUSH1 0x17 PUSH0 SWAP1 SLOAD SWAP1 PUSH2 0x100 EXP SWAP1 DIV PUSH20 0xFFFFFFFFFFFFFFFFFFFFFFFFFFFFFFFFFFFFFFFF AND PUSH20 0xFFFFFFFFFFFFFFFFFFFFFFFFFFFFFFFFFFFFFFFF AND PUSH4 0xB9DB15B4 DUP8 PUSH1 0x60 ADD MLOAD DUP5 DUP2 MLOAD DUP2 LT PUSH2 0x2FEE JUMPI PUSH2 0x2FED PUSH2 0x7395 JUMP JUMPDEST JUMPDEST PUSH1 0x20 MUL PUSH1 0x20 ADD ADD MLOAD PUSH1 0x40 MLOAD DUP3 PUSH4 0xFFFFFFFF AND PUSH1 0xE0 SHL DUP2 MSTORE PUSH1 0x4 ADD PUSH2 0x3012 SWAP2 SWAP1 PUSH2 0x56C4 JUMP JUMPDEST PUSH0 PUSH1 0x40 MLOAD DUP1 DUP4 SUB DUP2 DUP7 GAS STATICCALL ISZERO DUP1 ISZERO PUSH2 0x302C JUMPI RETURNDATASIZE PUSH0 DUP1 RETURNDATACOPY RETURNDATASIZE PUSH0 REVERT JUMPDEST POP POP POP POP PUSH1 0x40 MLOAD RETURNDATASIZE PUSH0 DUP3 RETURNDATACOPY RETURNDATASIZE PUSH1 0x1F NOT PUSH1 0x1F DUP3 ADD AND DUP3 ADD DUP1 PUSH1 0x40 MSTORE POP DUP2 ADD SWAP1 PUSH2 0x3054 SWAP2 SWAP1 PUSH2 0x7AB6 JUMP JUMPDEST SWAP1 POP PUSH0 PUSH1 0x18 PUSH0 SWAP1 SLOAD SWAP1 PUSH2 0x100 EXP SWAP1 DIV PUSH20 0xFFFFFFFFFFFFFFFFFFFFFFFFFFFFFFFFFFFFFFFF AND PUSH20 0xFFFFFFFFFFFFFFFFFFFFFFFFFFFFFFFFFFFFFFFF AND PUSH4 0x6386C1C7 DUP4 PUSH1 0x20 ADD MLOAD PUSH2 0x180 ADD MLOAD PUSH1 0x40 MLOAD DUP3 PUSH4 0xFFFFFFFF AND PUSH1 0xE0 SHL DUP2 MSTORE PUSH1 0x4 ADD PUSH2 0x30BA SWAP2 SWAP1 PUSH2 0x5708 JUMP JUMPDEST PUSH0 PUSH1 0x40 MLOAD DUP1 DUP4 SUB DUP2 DUP7 GAS STATICCALL ISZERO DUP1 ISZERO PUSH2 0x30D4 JUMPI RETURNDATASIZE PUSH0 DUP1 RETURNDATACOPY RETURNDATASIZE PUSH0 REVERT JUMPDEST POP POP POP POP PUSH1 0x40 MLOAD RETURNDATASIZE PUSH0 DUP3 RETURNDATACOPY RETURNDATASIZE PUSH1 0x1F NOT PUSH1 0x1F DUP3 ADD AND DUP3 ADD DUP1 PUSH1 0x40 MSTORE POP DUP2 ADD SWAP1 PUSH2 0x30FC SWAP2 SWAP1 PUSH2 0x86BB JUMP JUMPDEST POP SWAP1 POP PUSH0 PUSH1 0x40 MLOAD DUP1 PUSH1 0xE0 ADD PUSH1 0x40 MSTORE DUP1 DUP10 PUSH0 ADD MLOAD DUP2 MSTORE PUSH1 0x20 ADD DUP10 PUSH1 0x20 ADD MLOAD PUSH1 0xFF AND DUP2 MSTORE PUSH1 0x20 ADD DUP10 PUSH1 0x40 ADD MLOAD PUSH20 0xFFFFFFFFFFFFFFFFFFFFFFFFFFFFFFFFFFFFFFFF AND DUP2 MSTORE PUSH1 0x20 ADD DUP4 PUSH1 0x20 ADD MLOAD PUSH1 0x40 MLOAD PUSH1 0x20 ADD PUSH2 0x3156 SWAP2 SWAP1 PUSH2 0x5E3B JUMP JUMPDEST PUSH1 0x40 MLOAD PUSH1 0x20 DUP2 DUP4 SUB SUB DUP2 MSTORE SWAP1 PUSH1 0x40 MSTORE DUP2 MSTORE PUSH1 0x20 ADD TIMESTAMP DUP2 MSTORE PUSH1 0x20 ADD DUP10 PUSH1 0x60 ADD MLOAD MLOAD PUSH8 0xFFFFFFFFFFFFFFFF DUP2 GT ISZERO PUSH2 0x318F JUMPI PUSH2 0x318E PUSH2 0x5C75 JUMP JUMPDEST JUMPDEST PUSH1 0x40 MLOAD SWAP1 DUP1 DUP3 MSTORE DUP1 PUSH1 0x20 MUL PUSH1 0x20 ADD DUP3 ADD PUSH1 0x40 MSTORE DUP1 ISZERO PUSH2 0x31BD JUMPI DUP2 PUSH1 0x20 ADD PUSH1 0x20 DUP3 MUL DUP1 CALLDATASIZE DUP4 CALLDATACOPY DUP1 DUP3 ADD SWAP2 POP POP SWAP1 POP JUMPDEST POP DUP2 MSTORE PUSH1 0x20 ADD DUP10 PUSH1 0x60 ADD MLOAD MLOAD PUSH8 0xFFFFFFFFFFFFFFFF DUP2 GT ISZERO PUSH2 0x31E2 JUMPI PUSH2 0x31E1 PUSH2 0x5C75 JUMP JUMPDEST JUMPDEST PUSH1 0x40 MLOAD SWAP1 DUP1 DUP3 MSTORE DUP1 PUSH1 0x20 MUL PUSH1 0x20 ADD DUP3 ADD PUSH1 0x40 MSTORE DUP1 ISZERO PUSH2 0x3210 JUMPI DUP2 PUSH1 0x20 ADD PUSH1 0x20 DUP3 MUL DUP1 CALLDATASIZE DUP4 CALLDATACOPY DUP1 DUP3 ADD SWAP2 POP POP SWAP1 POP JUMPDEST POP DUP2 MSTORE POP SWAP1 POP DUP8 PUSH1 0x60 ADD MLOAD DUP5 DUP2 MLOAD DUP2 LT PUSH2 0x322D JUMPI PUSH2 0x322C PUSH2 0x7395 JUMP JUMPDEST JUMPDEST PUSH1 0x20 MUL PUSH1 0x20 ADD ADD MLOAD DUP2 PUSH1 0xA0 ADD MLOAD DUP6 DUP2 MLOAD DUP2 LT PUSH2 0x324C JUMPI PUSH2 0x324B PUSH2 0x7395 JUMP JUMPDEST JUMPDEST PUSH1 0x20 MUL PUSH1 0x20 ADD ADD DUP2 DUP2 MSTORE POP POP DUP8 PUSH1 0x80 ADD MLOAD DUP5 DUP2 MLOAD DUP2 LT PUSH2 0x326F JUMPI PUSH2 0x326E PUSH2 0x7395 JUMP JUMPDEST JUMPDEST PUSH1 0x20 MUL PUSH1 0x20 ADD ADD MLOAD DUP2 PUSH1 0xC0 ADD MLOAD DUP6 DUP2 MLOAD DUP2 LT PUSH2 0x328E JUMPI PUSH2 0x328D PUSH2 0x7395 JUMP JUMPDEST JUMPDEST PUSH1 0x20 MUL PUSH1 0x20 ADD ADD DUP2 DUP2 MSTORE POP POP PUSH1 0x9 PUSH0 DUP5 PUSH1 0x20 ADD MLOAD PUSH2 0x180 ADD MLOAD PUSH20 0xFFFFFFFFFFFFFFFFFFFFFFFFFFFFFFFFFFFFFFFF AND PUSH20 0xFFFFFFFFFFFFFFFFFFFFFFFFFFFFFFFFFFFFFFFF AND DUP2 MSTORE PUSH1 0x20 ADD SWAP1 DUP2 MSTORE PUSH1 0x20 ADD PUSH0 KECCAK256 DUP2 SWAP1 DUP1 PUSH1 0x1 DUP2 SLOAD ADD DUP1 DUP3 SSTORE DUP1 SWAP2 POP POP PUSH1 0x1 SWAP1 SUB SWAP1 PUSH0 MSTORE PUSH1 0x20 PUSH0 KECCAK256 SWAP1 PUSH1 0x6 MUL ADD PUSH0 SWAP1 SWAP2 SWAP1 SWAP2 SWAP1 SWAP2 POP PUSH0 DUP3 ADD MLOAD DUP2 PUSH0 ADD SWAP1 DUP2 PUSH2 0x331A SWAP2 SWAP1 PUSH2 0x8190 JUMP JUMPDEST POP PUSH1 0x20 DUP3 ADD MLOAD DUP2 PUSH1 0x1 ADD PUSH0 PUSH2 0x100 EXP DUP2 SLOAD DUP2 PUSH1 0xFF MUL NOT AND SWAP1 DUP4 PUSH1 0xFF AND MUL OR SWAP1 SSTORE POP PUSH1 0x40 DUP3 ADD MLOAD DUP2 PUSH1 0x1 ADD PUSH1 0x1 PUSH2 0x100 EXP DUP2 SLOAD DUP2 PUSH20 0xFFFFFFFFFFFFFFFFFFFFFFFFFFFFFFFFFFFFFFFF MUL NOT AND SWAP1 DUP4 PUSH20 0xFFFFFFFFFFFFFFFFFFFFFFFFFFFFFFFFFFFFFFFF AND MUL OR SWAP1 SSTORE POP PUSH1 0x60 DUP3 ADD MLOAD DUP2 PUSH1 0x2 ADD SWAP1 DUP2 PUSH2 0x3397 SWAP2 SWAP1 PUSH2 0x825F JUMP JUMPDEST POP PUSH1 0x80 DUP3 ADD MLOAD DUP2 PUSH1 0x3 ADD SSTORE PUSH1 0xA0 DUP3 ADD MLOAD DUP2 PUSH1 0x4 ADD SWAP1 DUP1 MLOAD SWAP1 PUSH1 0x20 ADD SWAP1 PUSH2 0x33BE SWAP3 SWAP2 SWAP1 PUSH2 0x54A7 JUMP JUMPDEST POP PUSH1 0xC0 DUP3 ADD MLOAD DUP2 PUSH1 0x5 ADD SWAP1 DUP1 MLOAD SWAP1 PUSH1 0x20 ADD SWAP1 PUSH2 0x33DB SWAP3 SWAP2 SWAP1 PUSH2 0x54A7 JUMP JUMPDEST POP POP POP POP POP POP DUP1 DUP1 PUSH1 0x1 ADD SWAP2 POP POP PUSH2 0x2F8C JUMP JUMPDEST POP POP POP POP POP JUMP JUMPDEST PUSH1 0x11 DUP3 DUP1 MLOAD PUSH1 0x20 DUP2 ADD DUP3 ADD DUP1 MLOAD DUP5 DUP3 MSTORE PUSH1 0x20 DUP4 ADD PUSH1 0x20 DUP6 ADD KECCAK256 DUP2 DUP4 MSTORE DUP1 SWAP6 POP POP POP POP POP POP DUP2 DUP2 SLOAD DUP2 LT PUSH2 0x3426 JUMPI PUSH0 DUP1 REVERT JUMPDEST SWAP1 PUSH0 MSTORE PUSH1 0x20 PUSH0 KECCAK256 SWAP1 PUSH1 0x2 MUL ADD PUSH0 SWAP2 POP SWAP2 POP POP DUP1 PUSH0 ADD SLOAD SWAP1 DUP1 PUSH1 0x1 ADD SLOAD SWAP1 POP DUP3 JUMP JUMPDEST PUSH0 PUSH1 0x1 SLOAD GT PUSH2 0x346F PUSH1 0x1 PUSH1 0x40 MLOAD DUP1 PUSH1 0x60 ADD PUSH1 0x40 MSTORE DUP1 PUSH1 0x29 DUP2 MSTORE PUSH1 0x20 ADD PUSH2 0x9212 PUSH1 0x29 SWAP2 CODECOPY PUSH2 0xEA6 JUMP JUMPDEST SWAP1 PUSH2 0x34B0 JUMPI PUSH1 0x40 MLOAD PUSH32 0x8C379A000000000000000000000000000000000000000000000000000000000 DUP2 MSTORE PUSH1 0x4 ADD PUSH2 0x34A7 SWAP2 SWAP1 PUSH2 0x5E3B JUMP JUMPDEST PUSH1 0x40 MLOAD DUP1 SWAP2 SUB SWAP1 REVERT JUMPDEST POP PUSH0 PUSH1 0x7 PUSH0 DUP4 PUSH20 0xFFFFFFFFFFFFFFFFFFFFFFFFFFFFFFFFFFFFFFFF AND PUSH20 0xFFFFFFFFFFFFFFFFFFFFFFFFFFFFFFFFFFFFFFFF AND DUP2 MSTORE PUSH1 0x20 ADD SWAP1 DUP2 MSTORE PUSH1 0x20 ADD PUSH0 KECCAK256 SLOAD GT PUSH2 0x3514 PUSH1 0x2 PUSH1 0x40 MLOAD DUP1 PUSH1 0x60 ADD PUSH1 0x40 MSTORE DUP1 PUSH1 0x25 DUP2 MSTORE PUSH1 0x20 ADD PUSH2 0x925F PUSH1 0x25 SWAP2 CODECOPY PUSH2 0xEA6 JUMP JUMPDEST SWAP1 PUSH2 0x3555 JUMPI PUSH1 0x40 MLOAD PUSH32 0x8C379A000000000000000000000000000000000000000000000000000000000 DUP2 MSTORE PUSH1 0x4 ADD PUSH2 0x354C SWAP2 SWAP1 PUSH2 0x5E3B JUMP JUMPDEST PUSH1 0x40 MLOAD DUP1 SWAP2 SUB SWAP1 REVERT JUMPDEST POP PUSH1 0x1 PUSH0 DUP2 SLOAD DUP1 SWAP3 SWAP2 SWAP1 PUSH2 0x3568 SWAP1 PUSH2 0x7F3D JUMP JUMPDEST SWAP2 SWAP1 POP SSTORE POP PUSH1 0x7 PUSH0 DUP3 PUSH20 0xFFFFFFFFFFFFFFFFFFFFFFFFFFFFFFFFFFFFFFFF AND PUSH20 0xFFFFFFFFFFFFFFFFFFFFFFFFFFFFFFFFFFFFFFFF AND DUP2 MSTORE PUSH1 0x20 ADD SWAP1 DUP2 MSTORE PUSH1 0x20 ADD PUSH0 KECCAK256 PUSH0 DUP2 SLOAD DUP1 SWAP3 SWAP2 SWAP1 PUSH2 0x35BA SWAP1 PUSH2 0x7F3D JUMP JUMPDEST SWAP2 SWAP1 POP SSTORE POP POP JUMP JUMPDEST PUSH1 0x9 PUSH1 0x20 MSTORE DUP2 PUSH0 MSTORE PUSH1 0x40 PUSH0 KECCAK256 DUP2 DUP2 SLOAD DUP2 LT PUSH2 0x35DB JUMPI PUSH0 DUP1 REVERT JUMPDEST SWAP1 PUSH0 MSTORE PUSH1 0x20 PUSH0 KECCAK256 SWAP1 PUSH1 0x6 MUL ADD PUSH0 SWAP2 POP SWAP2 POP POP DUP1 PUSH0 ADD DUP1 SLOAD PUSH2 0x35FB SWAP1 PUSH2 0x7417 JUMP JUMPDEST DUP1 PUSH1 0x1F ADD PUSH1 0x20 DUP1 SWAP2 DIV MUL PUSH1 0x20 ADD PUSH1 0x40 MLOAD SWAP1 DUP2 ADD PUSH1 0x40 MSTORE DUP1 SWAP3 SWAP2 SWAP1 DUP2 DUP2 MSTORE PUSH1 0x20 ADD DUP3 DUP1 SLOAD PUSH2 0x3627 SWAP1 PUSH2 0x7417 JUMP JUMPDEST DUP1 ISZERO PUSH2 0x3672 JUMPI DUP1 PUSH1 0x1F LT PUSH2 0x3649 JUMPI PUSH2 0x100 DUP1 DUP4 SLOAD DIV MUL DUP4 MSTORE SWAP2 PUSH1 0x20 ADD SWAP2 PUSH2 0x3672 JUMP JUMPDEST DUP3 ADD SWAP2 SWAP1 PUSH0 MSTORE PUSH1 0x20 PUSH0 KECCAK256 SWAP1 JUMPDEST DUP2 SLOAD DUP2 MSTORE SWAP1 PUSH1 0x1 ADD SWAP1 PUSH1 0x20 ADD DUP1 DUP4 GT PUSH2 0x3655 JUMPI DUP3 SWAP1 SUB PUSH1 0x1F AND DUP3 ADD SWAP2 JUMPDEST POP POP POP POP POP SWAP1 DUP1 PUSH1 0x1 ADD PUSH0 SWAP1 SLOAD SWAP1 PUSH2 0x100 EXP SWAP1 DIV PUSH1 0xFF AND SWAP1 DUP1 PUSH1 0x1 ADD PUSH1 0x1 SWAP1 SLOAD SWAP1 PUSH2 0x100 EXP SWAP1 DIV PUSH20 0xFFFFFFFFFFFFFFFFFFFFFFFFFFFFFFFFFFFFFFFF AND SWAP1 DUP1 PUSH1 0x2 ADD DUP1 SLOAD PUSH2 0x36BF SWAP1 PUSH2 0x7417 JUMP JUMPDEST DUP1 PUSH1 0x1F ADD PUSH1 0x20 DUP1 SWAP2 DIV MUL PUSH1 0x20 ADD PUSH1 0x40 MLOAD SWAP1 DUP2 ADD PUSH1 0x40 MSTORE DUP1 SWAP3 SWAP2 SWAP1 DUP2 DUP2 MSTORE PUSH1 0x20 ADD DUP3 DUP1 SLOAD PUSH2 0x36EB SWAP1 PUSH2 0x7417 JUMP JUMPDEST DUP1 ISZERO PUSH2 0x3736 JUMPI DUP1 PUSH1 0x1F LT PUSH2 0x370D JUMPI PUSH2 0x100 DUP1 DUP4 SLOAD DIV MUL DUP4 MSTORE SWAP2 PUSH1 0x20 ADD SWAP2 PUSH2 0x3736 JUMP JUMPDEST DUP3 ADD SWAP2 SWAP1 PUSH0 MSTORE PUSH1 0x20 PUSH0 KECCAK256 SWAP1 JUMPDEST DUP2 SLOAD DUP2 MSTORE SWAP1 PUSH1 0x1 ADD SWAP1 PUSH1 0x20 ADD DUP1 DUP4 GT PUSH2 0x3719 JUMPI DUP3 SWAP1 SUB PUSH1 0x1F AND DUP3 ADD SWAP2 JUMPDEST POP POP POP POP POP SWAP1 DUP1 PUSH1 0x3 ADD SLOAD SWAP1 POP DUP6 JUMP JUMPDEST PUSH1 0x60 PUSH1 0x13 PUSH0 CALLER PUSH20 0xFFFFFFFFFFFFFFFFFFFFFFFFFFFFFFFFFFFFFFFF AND PUSH20 0xFFFFFFFFFFFFFFFFFFFFFFFFFFFFFFFFFFFFFFFF AND DUP2 MSTORE PUSH1 0x20 ADD SWAP1 DUP2 MSTORE PUSH1 0x20 ADD PUSH0 KECCAK256 PUSH0 SWAP1 SLOAD SWAP1 PUSH2 0x100 EXP SWAP1 DIV PUSH1 0xFF AND PUSH2 0x37D1 JUMPI PUSH1 0x40 MLOAD PUSH32 0x8C379A000000000000000000000000000000000000000000000000000000000 DUP2 MSTORE PUSH1 0x4 ADD PUSH2 0x37C8 SWAP1 PUSH2 0x700D JUMP JUMPDEST PUSH1 0x40 MLOAD DUP1 SWAP2 SUB SWAP1 REVERT JUMPDEST PUSH1 0xC DUP1 SLOAD DUP1 PUSH1 0x20 MUL PUSH1 0x20 ADD PUSH1 0x40 MLOAD SWAP1 DUP2 ADD PUSH1 0x40 MSTORE DUP1 SWAP3 SWAP2 SWAP1 DUP2 DUP2 MSTORE PUSH1 0x20 ADD PUSH0 SWAP1 JUMPDEST DUP3 DUP3 LT ISZERO PUSH2 0x3994 JUMPI DUP4 DUP3 SWAP1 PUSH0 MSTORE PUSH1 0x20 PUSH0 KECCAK256 SWAP1 PUSH1 0x4 MUL ADD PUSH1 0x40 MLOAD DUP1 PUSH1 0xA0 ADD PUSH1 0x40 MSTORE SWAP1 DUP2 PUSH0 DUP3 ADD PUSH0 SWAP1 SLOAD SWAP1 PUSH2 0x100 EXP SWAP1 DIV PUSH20 0xFFFFFFFFFFFFFFFFFFFFFFFFFFFFFFFFFFFFFFFF AND PUSH20 0xFFFFFFFFFFFFFFFFFFFFFFFFFFFFFFFFFFFFFFFF AND PUSH20 0xFFFFFFFFFFFFFFFFFFFFFFFFFFFFFFFFFFFFFFFF AND DUP2 MSTORE PUSH1 0x20 ADD PUSH0 DUP3 ADD PUSH1 0x14 SWAP1 SLOAD SWAP1 PUSH2 0x100 EXP SWAP1 DIV PUSH1 0xFF AND PUSH1 0xFF AND PUSH1 0xFF AND DUP2 MSTORE PUSH1 0x20 ADD PUSH1 0x1 DUP3 ADD DUP1 SLOAD DUP1 PUSH1 0x20 MUL PUSH1 0x20 ADD PUSH1 0x40 MLOAD SWAP1 DUP2 ADD PUSH1 0x40 MSTORE DUP1 SWAP3 SWAP2 SWAP1 DUP2 DUP2 MSTORE PUSH1 0x20 ADD DUP3 DUP1 SLOAD DUP1 ISZERO PUSH2 0x38D0 JUMPI PUSH1 0x20 MUL DUP3 ADD SWAP2 SWAP1 PUSH0 MSTORE PUSH1 0x20 PUSH0 KECCAK256 SWAP1 JUMPDEST DUP2 SLOAD DUP2 MSTORE PUSH1 0x20 ADD SWAP1 PUSH1 0x1 ADD SWAP1 DUP1 DUP4 GT PUSH2 0x38BC JUMPI JUMPDEST POP POP POP POP POP DUP2 MSTORE PUSH1 0x20 ADD PUSH1 0x2 DUP3 ADD DUP1 SLOAD DUP1 PUSH1 0x20 MUL PUSH1 0x20 ADD PUSH1 0x40 MLOAD SWAP1 DUP2 ADD PUSH1 0x40 MSTORE DUP1 SWAP3 SWAP2 SWAP1 DUP2 DUP2 MSTORE PUSH1 0x20 ADD DUP3 DUP1 SLOAD DUP1 ISZERO PUSH2 0x3926 JUMPI PUSH1 0x20 MUL DUP3 ADD SWAP2 SWAP1 PUSH0 MSTORE PUSH1 0x20 PUSH0 KECCAK256 SWAP1 JUMPDEST DUP2 SLOAD DUP2 MSTORE PUSH1 0x20 ADD SWAP1 PUSH1 0x1 ADD SWAP1 DUP1 DUP4 GT PUSH2 0x3912 JUMPI JUMPDEST POP POP POP POP POP DUP2 MSTORE PUSH1 0x20 ADD PUSH1 0x3 DUP3 ADD DUP1 SLOAD DUP1 PUSH1 0x20 MUL PUSH1 0x20 ADD PUSH1 0x40 MLOAD SWAP1 DUP2 ADD PUSH1 0x40 MSTORE DUP1 SWAP3 SWAP2 SWAP1 DUP2 DUP2 MSTORE PUSH1 0x20 ADD DUP3 DUP1 SLOAD DUP1 ISZERO PUSH2 0x397C JUMPI PUSH1 0x20 MUL DUP3 ADD SWAP2 SWAP1 PUSH0 MSTORE PUSH1 0x20 PUSH0 KECCAK256 SWAP1 JUMPDEST DUP2 SLOAD DUP2 MSTORE PUSH1 0x20 ADD SWAP1 PUSH1 0x1 ADD SWAP1 DUP1 DUP4 GT PUSH2 0x3968 JUMPI JUMPDEST POP POP POP POP POP DUP2 MSTORE POP POP DUP2 MSTORE PUSH1 0x20 ADD SWAP1 PUSH1 0x1 ADD SWAP1 PUSH2 0x37F2 JUMP JUMPDEST POP POP POP POP SWAP1 POP SWAP1 JUMP JUMPDEST PUSH1 0x1 SLOAD DUP2 JUMP JUMPDEST PUSH1 0x13 PUSH1 0x20 MSTORE DUP1 PUSH0 MSTORE PUSH1 0x40 PUSH0 KECCAK256 PUSH0 SWAP2 POP SLOAD SWAP1 PUSH2 0x100 EXP SWAP1 DIV PUSH1 0xFF AND DUP2 JUMP JUMPDEST PUSH1 0x17 PUSH0 SWAP1 SLOAD SWAP1 PUSH2 0x100 EXP SWAP1 DIV PUSH20 0xFFFFFFFFFFFFFFFFFFFFFFFFFFFFFFFFFFFFFFFF AND DUP2 JUMP JUMPDEST PUSH0 PUSH1 0x6 PUSH0 CALLER PUSH20 0xFFFFFFFFFFFFFFFFFFFFFFFFFFFFFFFFFFFFFFFF AND PUSH20 0xFFFFFFFFFFFFFFFFFFFFFFFFFFFFFFFFFFFFFFFF AND DUP2 MSTORE PUSH1 0x20 ADD SWAP1 DUP2 MSTORE PUSH1 0x20 ADD PUSH0 KECCAK256 SLOAD SWAP1 POP SWAP1 JUMP JUMPDEST PUSH1 0x60 PUSH1 0x10 PUSH0 CALLER PUSH20 0xFFFFFFFFFFFFFFFFFFFFFFFFFFFFFFFFFFFFFFFF AND PUSH20 0xFFFFFFFFFFFFFFFFFFFFFFFFFFFFFFFFFFFFFFFF AND DUP2 MSTORE PUSH1 0x20 ADD SWAP1 DUP2 MSTORE PUSH1 0x20 ADD PUSH0 KECCAK256 DUP1 SLOAD DUP1 PUSH1 0x20 MUL PUSH1 0x20 ADD PUSH1 0x40 MLOAD SWAP1 DUP2 ADD PUSH1 0x40 MSTORE DUP1 SWAP3 SWAP2 SWAP1 DUP2 DUP2 MSTORE PUSH1 0x20 ADD PUSH0 SWAP1 JUMPDEST DUP3 DUP3 LT ISZERO PUSH2 0x3ACA JUMPI DUP4 DUP3 SWAP1 PUSH0 MSTORE PUSH1 0x20 PUSH0 KECCAK256 SWAP1 PUSH1 0x2 MUL ADD PUSH1 0x40 MLOAD DUP1 PUSH1 0x40 ADD PUSH1 0x40 MSTORE SWAP1 DUP2 PUSH0 DUP3 ADD SLOAD DUP2 MSTORE PUSH1 0x20 ADD PUSH1 0x1 DUP3 ADD SLOAD DUP2 MSTORE POP POP DUP2 MSTORE PUSH1 0x20 ADD SWAP1 PUSH1 0x1 ADD SWAP1 PUSH2 0x3A87 JUMP JUMPDEST POP POP POP POP SWAP1 POP SWAP1 JUMP JUMPDEST PUSH1 0x60 DUP1 PUSH1 0x60 PUSH1 0x16 PUSH0 SWAP1 SLOAD SWAP1 PUSH2 0x100 EXP SWAP1 DIV PUSH20 0xFFFFFFFFFFFFFFFFFFFFFFFFFFFFFFFFFFFFFFFF AND PUSH20 0xFFFFFFFFFFFFFFFFFFFFFFFFFFFFFFFFFFFFFFFF AND PUSH4 0x63C69F08 CALLER PUSH1 0x40 MLOAD DUP3 PUSH4 0xFFFFFFFF AND PUSH1 0xE0 SHL DUP2 MSTORE PUSH1 0x4 ADD PUSH2 0x3B32 SWAP2 SWAP1 PUSH2 0x5708 JUMP JUMPDEST PUSH0 PUSH1 0x40 MLOAD DUP1 DUP4 SUB DUP2 DUP7 GAS STATICCALL ISZERO DUP1 ISZERO PUSH2 0x3B4C JUMPI RETURNDATASIZE PUSH0 DUP1 RETURNDATACOPY RETURNDATASIZE PUSH0 REVERT JUMPDEST POP POP POP POP PUSH1 0x40 MLOAD RETURNDATASIZE PUSH0 DUP3 RETURNDATACOPY RETURNDATASIZE PUSH1 0x1F NOT PUSH1 0x1F DUP3 ADD AND DUP3 ADD DUP1 PUSH1 0x40 MSTORE POP DUP2 ADD SWAP1 PUSH2 0x3B74 SWAP2 SWAP1 PUSH2 0x8B76 JUMP JUMPDEST SWAP3 POP PUSH1 0x18 PUSH0 SWAP1 SLOAD SWAP1 PUSH2 0x100 EXP SWAP1 DIV PUSH20 0xFFFFFFFFFFFFFFFFFFFFFFFFFFFFFFFFFFFFFFFF AND PUSH20 0xFFFFFFFFFFFFFFFFFFFFFFFFFFFFFFFFFFFFFFFF AND PUSH4 0x4FFFD6AC CALLER PUSH1 0x40 MLOAD DUP3 PUSH4 0xFFFFFFFF AND PUSH1 0xE0 SHL DUP2 MSTORE PUSH1 0x4 ADD PUSH2 0x3BD0 SWAP2 SWAP1 PUSH2 0x5708 JUMP JUMPDEST PUSH0 PUSH1 0x40 MLOAD DUP1 DUP4 SUB DUP2 DUP7 GAS STATICCALL ISZERO DUP1 ISZERO PUSH2 0x3BEA JUMPI RETURNDATASIZE PUSH0 DUP1 RETURNDATACOPY RETURNDATASIZE PUSH0 REVERT JUMPDEST POP POP POP POP PUSH1 0x40 MLOAD RETURNDATASIZE PUSH0 DUP3 RETURNDATACOPY RETURNDATASIZE PUSH1 0x1F NOT PUSH1 0x1F DUP3 ADD AND DUP3 ADD DUP1 PUSH1 0x40 MSTORE POP DUP2 ADD SWAP1 PUSH2 0x3C12 SWAP2 SWAP1 PUSH2 0x8CDE JUMP JUMPDEST SWAP2 POP PUSH2 0x3C1C PUSH2 0x3A29 JUMP JUMPDEST SWAP1 POP SWAP1 SWAP2 SWAP3 JUMP JUMPDEST PUSH0 PUSH1 0x13 PUSH0 CALLER PUSH20 0xFFFFFFFFFFFFFFFFFFFFFFFFFFFFFFFFFFFFFFFF AND PUSH20 0xFFFFFFFFFFFFFFFFFFFFFFFFFFFFFFFFFFFFFFFF AND DUP2 MSTORE PUSH1 0x20 ADD SWAP1 DUP2 MSTORE PUSH1 0x20 ADD PUSH0 KECCAK256 PUSH0 SWAP1 SLOAD SWAP1 PUSH2 0x100 EXP SWAP1 DIV PUSH1 0xFF AND PUSH2 0x3CAD JUMPI PUSH1 0x40 MLOAD PUSH32 0x8C379A000000000000000000000000000000000000000000000000000000000 DUP2 MSTORE PUSH1 0x4 ADD PUSH2 0x3CA4 SWAP1 PUSH2 0x700D JUMP JUMPDEST PUSH1 0x40 MLOAD DUP1 SWAP2 SUB SWAP1 REVERT JUMPDEST PUSH1 0x1 SLOAD SWAP1 POP SWAP1 JUMP JUMPDEST PUSH1 0xB PUSH0 DUP3 DUP2 MSTORE PUSH1 0x20 ADD SWAP1 DUP2 MSTORE PUSH1 0x20 ADD PUSH0 KECCAK256 TIMESTAMP SWAP1 DUP1 PUSH1 0x1 DUP2 SLOAD ADD DUP1 DUP3 SSTORE DUP1 SWAP2 POP POP PUSH1 0x1 SWAP1 SUB SWAP1 PUSH0 MSTORE PUSH1 0x20 PUSH0 KECCAK256 ADD PUSH0 SWAP1 SWAP2 SWAP1 SWAP2 SWAP1 SWAP2 POP SSTORE POP JUMP JUMPDEST PUSH1 0x5 PUSH0 DUP2 SLOAD DUP1 SWAP3 SWAP2 SWAP1 PUSH2 0x3CFF SWAP1 PUSH2 0x725E JUMP JUMPDEST SWAP2 SWAP1 POP SSTORE POP JUMP JUMPDEST PUSH1 0xB PUSH1 0x20 MSTORE DUP2 PUSH0 MSTORE PUSH1 0x40 PUSH0 KECCAK256 DUP2 DUP2 SLOAD DUP2 LT PUSH2 0x3D1F JUMPI PUSH0 DUP1 REVERT JUMPDEST SWAP1 PUSH0 MSTORE PUSH1 0x20 PUSH0 KECCAK256 ADD PUSH0 SWAP2 POP SWAP2 POP POP SLOAD DUP2 JUMP JUMPDEST PUSH1 0x60 PUSH0 DUP1 PUSH1 0x60 PUSH2 0x3D3F PUSH2 0x4671 JUMP JUMPDEST SWAP4 POP PUSH2 0x3D49 PUSH2 0x39E5 JUMP JUMPDEST SWAP3 POP PUSH2 0x3D53 PUSH2 0x1042 JUMP JUMPDEST SWAP2 POP PUSH2 0x3D5D PUSH2 0x11FC JUMP JUMPDEST SWAP1 POP SWAP1 SWAP2 SWAP3 SWAP4 JUMP JUMPDEST PUSH0 DUP1 SLOAD GT PUSH2 0x3D8C PUSH1 0x1 PUSH1 0x40 MLOAD DUP1 PUSH1 0x60 ADD PUSH1 0x40 MSTORE DUP1 PUSH1 0x24 DUP2 MSTORE PUSH1 0x20 ADD PUSH2 0x923B PUSH1 0x24 SWAP2 CODECOPY PUSH2 0xEA6 JUMP JUMPDEST SWAP1 PUSH2 0x3DCD JUMPI PUSH1 0x40 MLOAD PUSH32 0x8C379A000000000000000000000000000000000000000000000000000000000 DUP2 MSTORE PUSH1 0x4 ADD PUSH2 0x3DC4 SWAP2 SWAP1 PUSH2 0x5E3B JUMP JUMPDEST PUSH1 0x40 MLOAD DUP1 SWAP2 SUB SWAP1 REVERT JUMPDEST POP PUSH0 PUSH1 0x6 PUSH0 DUP4 PUSH20 0xFFFFFFFFFFFFFFFFFFFFFFFFFFFFFFFFFFFFFFFF AND PUSH20 0xFFFFFFFFFFFFFFFFFFFFFFFFFFFFFFFFFFFFFFFF AND DUP2 MSTORE PUSH1 0x20 ADD SWAP1 DUP2 MSTORE PUSH1 0x20 ADD PUSH0 KECCAK256 SLOAD GT PUSH2 0x3E4E PUSH1 0x2 PUSH1 0x40 MLOAD DUP1 PUSH1 0x40 ADD PUSH1 0x40 MSTORE DUP1 PUSH1 0x20 DUP2 MSTORE PUSH1 0x20 ADD PUSH32 0x496E76616C696420636F756E743A2072657461696C6572206661766F72697465 DUP2 MSTORE POP PUSH2 0xEA6 JUMP JUMPDEST SWAP1 PUSH2 0x3E8F JUMPI PUSH1 0x40 MLOAD PUSH32 0x8C379A000000000000000000000000000000000000000000000000000000000 DUP2 MSTORE PUSH1 0x4 ADD PUSH2 0x3E86 SWAP2 SWAP1 PUSH2 0x5E3B JUMP JUMPDEST PUSH1 0x40 MLOAD DUP1 SWAP2 SUB SWAP1 REVERT JUMPDEST POP PUSH0 DUP1 DUP2 SLOAD DUP1 SWAP3 SWAP2 SWAP1 PUSH2 0x3EA1 SWAP1 PUSH2 0x7F3D JUMP JUMPDEST SWAP2 SWAP1 POP SSTORE POP PUSH1 0x6 PUSH0 DUP3 PUSH20 0xFFFFFFFFFFFFFFFFFFFFFFFFFFFFFFFFFFFFFFFF AND PUSH20 0xFFFFFFFFFFFFFFFFFFFFFFFFFFFFFFFFFFFFFFFF AND DUP2 MSTORE PUSH1 0x20 ADD SWAP1 DUP2 MSTORE PUSH1 0x20 ADD PUSH0 KECCAK256 PUSH0 DUP2 SLOAD DUP1 SWAP3 SWAP2 SWAP1 PUSH2 0x3EF3 SWAP1 PUSH2 0x7F3D JUMP JUMPDEST SWAP2 SWAP1 POP SSTORE POP POP JUMP JUMPDEST PUSH1 0xC DUP2 DUP2 SLOAD DUP2 LT PUSH2 0x3F0A JUMPI PUSH0 DUP1 REVERT JUMPDEST SWAP1 PUSH0 MSTORE PUSH1 0x20 PUSH0 KECCAK256 SWAP1 PUSH1 0x4 MUL ADD PUSH0 SWAP2 POP SWAP1 POP DUP1 PUSH0 ADD PUSH0 SWAP1 SLOAD SWAP1 PUSH2 0x100 EXP SWAP1 DIV PUSH20 0xFFFFFFFFFFFFFFFFFFFFFFFFFFFFFFFFFFFFFFFF AND SWAP1 DUP1 PUSH0 ADD PUSH1 0x14 SWAP1 SLOAD SWAP1 PUSH2 0x100 EXP SWAP1 DIV PUSH1 0xFF AND SWAP1 POP DUP3 JUMP JUMPDEST PUSH0 PUSH1 0x15 PUSH0 SWAP1 SLOAD SWAP1 PUSH2 0x100 EXP SWAP1 DIV PUSH20 0xFFFFFFFFFFFFFFFFFFFFFFFFFFFFFFFFFFFFFFFF AND DUP1 PUSH20 0xFFFFFFFFFFFFFFFFFFFFFFFFFFFFFFFFFFFFFFFF AND CALLER PUSH20 0xFFFFFFFFFFFFFFFFFFFFFFFFFFFFFFFFFFFFFFFF AND EQ PUSH2 0x3FE6 JUMPI PUSH1 0x40 MLOAD PUSH32 0x8C379A000000000000000000000000000000000000000000000000000000000 DUP2 MSTORE PUSH1 0x4 ADD PUSH2 0x3FDD SWAP1 PUSH2 0x7377 JUMP JUMPDEST PUSH1 0x40 MLOAD DUP1 SWAP2 SUB SWAP1 REVERT JUMPDEST DUP3 PUSH1 0x18 PUSH0 PUSH2 0x100 EXP DUP2 SLOAD DUP2 PUSH20 0xFFFFFFFFFFFFFFFFFFFFFFFFFFFFFFFFFFFFFFFF MUL NOT AND SWAP1 DUP4 PUSH20 0xFFFFFFFFFFFFFFFFFFFFFFFFFFFFFFFFFFFFFFFF AND MUL OR SWAP1 SSTORE POP PUSH1 0x1 SWAP2 POP POP SWAP2 SWAP1 POP JUMP JUMPDEST PUSH1 0x5 SLOAD DUP2 JUMP JUMPDEST PUSH0 DUP2 PUSH2 0x407E JUMPI PUSH1 0xD PUSH0 DUP5 PUSH20 0xFFFFFFFFFFFFFFFFFFFFFFFFFFFFFFFFFFFFFFFF AND PUSH20 0xFFFFFFFFFFFFFFFFFFFFFFFFFFFFFFFFFFFFFFFF AND DUP2 MSTORE PUSH1 0x20 ADD SWAP1 DUP2 MSTORE PUSH1 0x20 ADD PUSH0 KECCAK256 PUSH2 0x4081 JUMP JUMPDEST PUSH1 0xC JUMPDEST SWAP1 POP PUSH0 JUMPDEST DUP2 DUP1 SLOAD SWAP1 POP DUP2 LT ISZERO PUSH2 0x41F9 JUMPI DUP6 PUSH20 0xFFFFFFFFFFFFFFFFFFFFFFFFFFFFFFFFFFFFFFFF AND DUP3 DUP3 DUP2 SLOAD DUP2 LT PUSH2 0x40BB JUMPI PUSH2 0x40BA PUSH2 0x7395 JUMP JUMPDEST JUMPDEST SWAP1 PUSH0 MSTORE PUSH1 0x20 PUSH0 KECCAK256 SWAP1 PUSH1 0x4 MUL ADD PUSH0 ADD PUSH0 SWAP1 SLOAD SWAP1 PUSH2 0x100 EXP SWAP1 DIV PUSH20 0xFFFFFFFFFFFFFFFFFFFFFFFFFFFFFFFFFFFFFFFF AND PUSH20 0xFFFFFFFFFFFFFFFFFFFFFFFFFFFFFFFFFFFFFFFF AND SUB PUSH2 0x41EC JUMPI PUSH0 JUMPDEST DUP3 DUP3 DUP2 SLOAD DUP2 LT PUSH2 0x4119 JUMPI PUSH2 0x4118 PUSH2 0x7395 JUMP JUMPDEST JUMPDEST SWAP1 PUSH0 MSTORE PUSH1 0x20 PUSH0 KECCAK256 SWAP1 PUSH1 0x4 MUL ADD PUSH1 0x1 ADD DUP1 SLOAD SWAP1 POP DUP2 LT ISZERO PUSH2 0x41EA JUMPI DUP6 DUP4 DUP4 DUP2 SLOAD DUP2 LT PUSH2 0x4147 JUMPI PUSH2 0x4146 PUSH2 0x7395 JUMP JUMPDEST JUMPDEST SWAP1 PUSH0 MSTORE PUSH1 0x20 PUSH0 KECCAK256 SWAP1 PUSH1 0x4 MUL ADD PUSH1 0x1 ADD DUP3 DUP2 SLOAD DUP2 LT PUSH2 0x4168 JUMPI PUSH2 0x4167 PUSH2 0x7395 JUMP JUMPDEST JUMPDEST SWAP1 PUSH0 MSTORE PUSH1 0x20 PUSH0 KECCAK256 ADD SLOAD SUB PUSH2 0x41DD JUMPI PUSH2 0x419E DUP4 DUP4 DUP2 SLOAD DUP2 LT PUSH2 0x418C JUMPI PUSH2 0x418B PUSH2 0x7395 JUMP JUMPDEST JUMPDEST SWAP1 PUSH0 MSTORE PUSH1 0x20 PUSH0 KECCAK256 SWAP1 PUSH1 0x4 MUL ADD DUP3 PUSH2 0x4EE8 JUMP JUMPDEST PUSH0 DUP4 DUP4 DUP2 SLOAD DUP2 LT PUSH2 0x41B2 JUMPI PUSH2 0x41B1 PUSH2 0x7395 JUMP JUMPDEST JUMPDEST SWAP1 PUSH0 MSTORE PUSH1 0x20 PUSH0 KECCAK256 SWAP1 PUSH1 0x4 MUL ADD PUSH1 0x1 ADD DUP1 SLOAD SWAP1 POP SUB PUSH2 0x41D5 JUMPI PUSH2 0x41D4 DUP4 DUP4 PUSH2 0x5086 JUMP JUMPDEST JUMPDEST POP POP POP PUSH2 0x41FC JUMP JUMPDEST DUP1 DUP1 PUSH1 0x1 ADD SWAP2 POP POP PUSH2 0x4106 JUMP JUMPDEST POP JUMPDEST DUP1 DUP1 PUSH1 0x1 ADD SWAP2 POP POP PUSH2 0x4085 JUMP JUMPDEST POP POP JUMPDEST POP POP POP POP JUMP JUMPDEST PUSH1 0x7 PUSH1 0x20 MSTORE DUP1 PUSH0 MSTORE PUSH1 0x40 PUSH0 KECCAK256 PUSH0 SWAP2 POP SWAP1 POP SLOAD DUP2 JUMP JUMPDEST PUSH1 0x8 DUP2 DUP2 SLOAD DUP2 LT PUSH2 0x4226 JUMPI PUSH0 DUP1 REVERT JUMPDEST SWAP1 PUSH0 MSTORE PUSH1 0x20 PUSH0 KECCAK256 SWAP1 PUSH1 0x6 MUL ADD PUSH0 SWAP2 POP SWAP1 POP DUP1 PUSH0 ADD DUP1 SLOAD PUSH2 0x4245 SWAP1 PUSH2 0x7417 JUMP JUMPDEST DUP1 PUSH1 0x1F ADD PUSH1 0x20 DUP1 SWAP2 DIV MUL PUSH1 0x20 ADD PUSH1 0x40 MLOAD SWAP1 DUP2 ADD PUSH1 0x40 MSTORE DUP1 SWAP3 SWAP2 SWAP1 DUP2 DUP2 MSTORE PUSH1 0x20 ADD DUP3 DUP1 SLOAD PUSH2 0x4271 SWAP1 PUSH2 0x7417 JUMP JUMPDEST DUP1 ISZERO PUSH2 0x42BC JUMPI DUP1 PUSH1 0x1F LT PUSH2 0x4293 JUMPI PUSH2 0x100 DUP1 DUP4 SLOAD DIV MUL DUP4 MSTORE SWAP2 PUSH1 0x20 ADD SWAP2 PUSH2 0x42BC JUMP JUMPDEST DUP3 ADD SWAP2 SWAP1 PUSH0 MSTORE PUSH1 0x20 PUSH0 KECCAK256 SWAP1 JUMPDEST DUP2 SLOAD DUP2 MSTORE SWAP1 PUSH1 0x1 ADD SWAP1 PUSH1 0x20 ADD DUP1 DUP4 GT PUSH2 0x429F JUMPI DUP3 SWAP1 SUB PUSH1 0x1F AND DUP3 ADD SWAP2 JUMPDEST POP POP POP POP POP SWAP1 DUP1 PUSH1 0x1 ADD PUSH0 SWAP1 SLOAD SWAP1 PUSH2 0x100 EXP SWAP1 DIV PUSH1 0xFF AND SWAP1 DUP1 PUSH1 0x1 ADD PUSH1 0x1 SWAP1 SLOAD SWAP1 PUSH2 0x100 EXP SWAP1 DIV PUSH20 0xFFFFFFFFFFFFFFFFFFFFFFFFFFFFFFFFFFFFFFFF AND SWAP1 DUP1 PUSH1 0x2 ADD DUP1 SLOAD PUSH2 0x4309 SWAP1 PUSH2 0x7417 JUMP JUMPDEST DUP1 PUSH1 0x1F ADD PUSH1 0x20 DUP1 SWAP2 DIV MUL PUSH1 0x20 ADD PUSH1 0x40 MLOAD SWAP1 DUP2 ADD PUSH1 0x40 MSTORE DUP1 SWAP3 SWAP2 SWAP1 DUP2 DUP2 MSTORE PUSH1 0x20 ADD DUP3 DUP1 SLOAD PUSH2 0x4335 SWAP1 PUSH2 0x7417 JUMP JUMPDEST DUP1 ISZERO PUSH2 0x4380 JUMPI DUP1 PUSH1 0x1F LT PUSH2 0x4357 JUMPI PUSH2 0x100 DUP1 DUP4 SLOAD DIV MUL DUP4 MSTORE SWAP2 PUSH1 0x20 ADD SWAP2 PUSH2 0x4380 JUMP JUMPDEST DUP3 ADD SWAP2 SWAP1 PUSH0 MSTORE PUSH1 0x20 PUSH0 KECCAK256 SWAP1 JUMPDEST DUP2 SLOAD DUP2 MSTORE SWAP1 PUSH1 0x1 ADD SWAP1 PUSH1 0x20 ADD DUP1 DUP4 GT PUSH2 0x4363 JUMPI DUP3 SWAP1 SUB PUSH1 0x1F AND DUP3 ADD SWAP2 JUMPDEST POP POP POP POP POP SWAP1 DUP1 PUSH1 0x3 ADD SLOAD SWAP1 POP DUP6 JUMP JUMPDEST PUSH1 0x60 PUSH2 0x439A PUSH2 0x54F2 JUMP JUMPDEST PUSH1 0x60 PUSH1 0x13 PUSH0 CALLER PUSH20 0xFFFFFFFFFFFFFFFFFFFFFFFFFFFFFFFFFFFFFFFF AND PUSH20 0xFFFFFFFFFFFFFFFFFFFFFFFFFFFFFFFFFFFFFFFF AND DUP2 MSTORE PUSH1 0x20 ADD SWAP1 DUP2 MSTORE PUSH1 0x20 ADD PUSH0 KECCAK256 PUSH0 SWAP1 SLOAD SWAP1 PUSH2 0x100 EXP SWAP1 DIV PUSH1 0xFF AND PUSH2 0x4425 JUMPI PUSH1 0x40 MLOAD PUSH32 0x8C379A000000000000000000000000000000000000000000000000000000000 DUP2 MSTORE PUSH1 0x4 ADD PUSH2 0x441C SWAP1 PUSH2 0x700D JUMP JUMPDEST PUSH1 0x40 MLOAD DUP1 SWAP2 SUB SWAP1 REVERT JUMPDEST PUSH1 0x16 PUSH0 SWAP1 SLOAD SWAP1 PUSH2 0x100 EXP SWAP1 DIV PUSH20 0xFFFFFFFFFFFFFFFFFFFFFFFFFFFFFFFFFFFFFFFF AND PUSH20 0xFFFFFFFFFFFFFFFFFFFFFFFFFFFFFFFFFFFFFFFF AND PUSH4 0x63C69F08 DUP6 PUSH1 0x40 MLOAD DUP3 PUSH4 0xFFFFFFFF AND PUSH1 0xE0 SHL DUP2 MSTORE PUSH1 0x4 ADD PUSH2 0x447F SWAP2 SWAP1 PUSH2 0x5708 JUMP JUMPDEST PUSH0 PUSH1 0x40 MLOAD DUP1 DUP4 SUB DUP2 DUP7 GAS STATICCALL ISZERO DUP1 ISZERO PUSH2 0x4499 JUMPI RETURNDATASIZE PUSH0 DUP1 RETURNDATACOPY RETURNDATASIZE PUSH0 REVERT JUMPDEST POP POP POP POP PUSH1 0x40 MLOAD RETURNDATASIZE PUSH0 DUP3 RETURNDATACOPY RETURNDATASIZE PUSH1 0x1F NOT PUSH1 0x1F DUP3 ADD AND DUP3 ADD DUP1 PUSH1 0x40 MSTORE POP DUP2 ADD SWAP1 PUSH2 0x44C1 SWAP2 SWAP1 PUSH2 0x8B76 JUMP JUMPDEST SWAP3 POP PUSH1 0x16 PUSH0 SWAP1 SLOAD SWAP1 PUSH2 0x100 EXP SWAP1 DIV PUSH20 0xFFFFFFFFFFFFFFFFFFFFFFFFFFFFFFFFFFFFFFFF AND PUSH20 0xFFFFFFFFFFFFFFFFFFFFFFFFFFFFFFFFFFFFFFFF AND PUSH4 0x1FDA90A2 DUP6 PUSH1 0x40 MLOAD DUP3 PUSH4 0xFFFFFFFF AND PUSH1 0xE0 SHL DUP2 MSTORE PUSH1 0x4 ADD PUSH2 0x451D SWAP2 SWAP1 PUSH2 0x5708 JUMP JUMPDEST PUSH0 PUSH1 0x40 MLOAD DUP1 DUP4 SUB DUP2 DUP7 GAS STATICCALL ISZERO DUP1 ISZERO PUSH2 0x4537 JUMPI RETURNDATASIZE PUSH0 DUP1 RETURNDATACOPY RETURNDATASIZE PUSH0 REVERT JUMPDEST POP POP POP POP PUSH1 0x40 MLOAD RETURNDATASIZE PUSH0 DUP3 RETURNDATACOPY RETURNDATASIZE PUSH1 0x1F NOT PUSH1 0x1F DUP3 ADD AND DUP3 ADD DUP1 PUSH1 0x40 MSTORE POP DUP2 ADD SWAP1 PUSH2 0x455F SWAP2 SWAP1 PUSH2 0x8EEB JUMP JUMPDEST SWAP2 POP PUSH1 0x17 PUSH0 SWAP1 SLOAD SWAP1 PUSH2 0x100 EXP SWAP1 DIV PUSH20 0xFFFFFFFFFFFFFFFFFFFFFFFFFFFFFFFFFFFFFFFF AND PUSH20 0xFFFFFFFFFFFFFFFFFFFFFFFFFFFFFFFFFFFFFFFF AND PUSH4 0xC7853148 DUP6 PUSH1 0x40 MLOAD DUP3 PUSH4 0xFFFFFFFF AND PUSH1 0xE0 SHL DUP2 MSTORE PUSH1 0x4 ADD PUSH2 0x45BB SWAP2 SWAP1 PUSH2 0x5708 JUMP JUMPDEST PUSH0 PUSH1 0x40 MLOAD DUP1 DUP4 SUB DUP2 DUP7 GAS STATICCALL ISZERO DUP1 ISZERO PUSH2 0x45D5 JUMPI RETURNDATASIZE PUSH0 DUP1 RETURNDATACOPY RETURNDATASIZE PUSH0 REVERT JUMPDEST POP POP POP POP PUSH1 0x40 MLOAD RETURNDATASIZE PUSH0 DUP3 RETURNDATACOPY RETURNDATASIZE PUSH1 0x1F NOT PUSH1 0x1F DUP3 ADD AND DUP3 ADD DUP1 PUSH1 0x40 MSTORE POP DUP2 ADD SWAP1 PUSH2 0x45FD SWAP2 SWAP1 PUSH2 0x903F JUMP JUMPDEST SWAP1 POP SWAP2 SWAP4 SWAP1 SWAP3 POP JUMP JUMPDEST PUSH0 DUP1 DUP2 SLOAD DUP1 SWAP3 SWAP2 SWAP1 PUSH2 0x4617 SWAP1 PUSH2 0x725E JUMP JUMPDEST SWAP2 SWAP1 POP SSTORE POP PUSH1 0x6 PUSH0 DUP3 PUSH20 0xFFFFFFFFFFFFFFFFFFFFFFFFFFFFFFFFFFFFFFFF AND PUSH20 0xFFFFFFFFFFFFFFFFFFFFFFFFFFFFFFFFFFFFFFFF AND DUP2 MSTORE PUSH1 0x20 ADD SWAP1 DUP2 MSTORE PUSH1 0x20 ADD PUSH0 KECCAK256 PUSH0 DUP2 SLOAD DUP1 SWAP3 SWAP2 SWAP1 PUSH2 0x4669 SWAP1 PUSH2 0x725E JUMP JUMPDEST SWAP2 SWAP1 POP SSTORE POP POP JUMP JUMPDEST PUSH1 0x60 PUSH1 0x9 PUSH0 CALLER PUSH20 0xFFFFFFFFFFFFFFFFFFFFFFFFFFFFFFFFFFFFFFFF AND PUSH20 0xFFFFFFFFFFFFFFFFFFFFFFFFFFFFFFFFFFFFFFFF AND DUP2 MSTORE PUSH1 0x20 ADD SWAP1 DUP2 MSTORE PUSH1 0x20 ADD PUSH0 KECCAK256 DUP1 SLOAD DUP1 PUSH1 0x20 MUL PUSH1 0x20 ADD PUSH1 0x40 MLOAD SWAP1 DUP2 ADD PUSH1 0x40 MSTORE DUP1 SWAP3 SWAP2 SWAP1 DUP2 DUP2 MSTORE PUSH1 0x20 ADD PUSH0 SWAP1 JUMPDEST DUP3 DUP3 LT ISZERO PUSH2 0x4946 JUMPI DUP4 DUP3 SWAP1 PUSH0 MSTORE PUSH1 0x20 PUSH0 KECCAK256 SWAP1 PUSH1 0x6 MUL ADD PUSH1 0x40 MLOAD DUP1 PUSH1 0xE0 ADD PUSH1 0x40 MSTORE SWAP1 DUP2 PUSH0 DUP3 ADD DUP1 SLOAD PUSH2 0x46FF SWAP1 PUSH2 0x7417 JUMP JUMPDEST DUP1 PUSH1 0x1F ADD PUSH1 0x20 DUP1 SWAP2 DIV MUL PUSH1 0x20 ADD PUSH1 0x40 MLOAD SWAP1 DUP2 ADD PUSH1 0x40 MSTORE DUP1 SWAP3 SWAP2 SWAP1 DUP2 DUP2 MSTORE PUSH1 0x20 ADD DUP3 DUP1 SLOAD PUSH2 0x472B SWAP1 PUSH2 0x7417 JUMP JUMPDEST DUP1 ISZERO PUSH2 0x4776 JUMPI DUP1 PUSH1 0x1F LT PUSH2 0x474D JUMPI PUSH2 0x100 DUP1 DUP4 SLOAD DIV MUL DUP4 MSTORE SWAP2 PUSH1 0x20 ADD SWAP2 PUSH2 0x4776 JUMP JUMPDEST DUP3 ADD SWAP2 SWAP1 PUSH0 MSTORE PUSH1 0x20 PUSH0 KECCAK256 SWAP1 JUMPDEST DUP2 SLOAD DUP2 MSTORE SWAP1 PUSH1 0x1 ADD SWAP1 PUSH1 0x20 ADD DUP1 DUP4 GT PUSH2 0x4759 JUMPI DUP3 SWAP1 SUB PUSH1 0x1F AND DUP3 ADD SWAP2 JUMPDEST POP POP POP POP POP DUP2 MSTORE PUSH1 0x20 ADD PUSH1 0x1 DUP3 ADD PUSH0 SWAP1 SLOAD SWAP1 PUSH2 0x100 EXP SWAP1 DIV PUSH1 0xFF AND PUSH1 0xFF AND PUSH1 0xFF AND DUP2 MSTORE PUSH1 0x20 ADD PUSH1 0x1 DUP3 ADD PUSH1 0x1 SWAP1 SLOAD SWAP1 PUSH2 0x100 EXP SWAP1 DIV PUSH20 0xFFFFFFFFFFFFFFFFFFFFFFFFFFFFFFFFFFFFFFFF AND PUSH20 0xFFFFFFFFFFFFFFFFFFFFFFFFFFFFFFFFFFFFFFFF AND PUSH20 0xFFFFFFFFFFFFFFFFFFFFFFFFFFFFFFFFFFFFFFFF AND DUP2 MSTORE PUSH1 0x20 ADD PUSH1 0x2 DUP3 ADD DUP1 SLOAD PUSH2 0x4801 SWAP1 PUSH2 0x7417 JUMP JUMPDEST DUP1 PUSH1 0x1F ADD PUSH1 0x20 DUP1 SWAP2 DIV MUL PUSH1 0x20 ADD PUSH1 0x40 MLOAD SWAP1 DUP2 ADD PUSH1 0x40 MSTORE DUP1 SWAP3 SWAP2 SWAP1 DUP2 DUP2 MSTORE PUSH1 0x20 ADD DUP3 DUP1 SLOAD PUSH2 0x482D SWAP1 PUSH2 0x7417 JUMP JUMPDEST DUP1 ISZERO PUSH2 0x4878 JUMPI DUP1 PUSH1 0x1F LT PUSH2 0x484F JUMPI PUSH2 0x100 DUP1 DUP4 SLOAD DIV MUL DUP4 MSTORE SWAP2 PUSH1 0x20 ADD SWAP2 PUSH2 0x4878 JUMP JUMPDEST DUP3 ADD SWAP2 SWAP1 PUSH0 MSTORE PUSH1 0x20 PUSH0 KECCAK256 SWAP1 JUMPDEST DUP2 SLOAD DUP2 MSTORE SWAP1 PUSH1 0x1 ADD SWAP1 PUSH1 0x20 ADD DUP1 DUP4 GT PUSH2 0x485B JUMPI DUP3 SWAP1 SUB PUSH1 0x1F AND DUP3 ADD SWAP2 JUMPDEST POP POP POP POP POP DUP2 MSTORE PUSH1 0x20 ADD PUSH1 0x3 DUP3 ADD SLOAD DUP2 MSTORE PUSH1 0x20 ADD PUSH1 0x4 DUP3 ADD DUP1 SLOAD DUP1 PUSH1 0x20 MUL PUSH1 0x20 ADD PUSH1 0x40 MLOAD SWAP1 DUP2 ADD PUSH1 0x40 MSTORE DUP1 SWAP3 SWAP2 SWAP1 DUP2 DUP2 MSTORE PUSH1 0x20 ADD DUP3 DUP1 SLOAD DUP1 ISZERO PUSH2 0x48D8 JUMPI PUSH1 0x20 MUL DUP3 ADD SWAP2 SWAP1 PUSH0 MSTORE PUSH1 0x20 PUSH0 KECCAK256 SWAP1 JUMPDEST DUP2 SLOAD DUP2 MSTORE PUSH1 0x20 ADD SWAP1 PUSH1 0x1 ADD SWAP1 DUP1 DUP4 GT PUSH2 0x48C4 JUMPI JUMPDEST POP POP POP POP POP DUP2 MSTORE PUSH1 0x20 ADD PUSH1 0x5 DUP3 ADD DUP1 SLOAD DUP1 PUSH1 0x20 MUL PUSH1 0x20 ADD PUSH1 0x40 MLOAD SWAP1 DUP2 ADD PUSH1 0x40 MSTORE DUP1 SWAP3 SWAP2 SWAP1 DUP2 DUP2 MSTORE PUSH1 0x20 ADD DUP3 DUP1 SLOAD DUP1 ISZERO PUSH2 0x492E JUMPI PUSH1 0x20 MUL DUP3 ADD SWAP2 SWAP1 PUSH0 MSTORE PUSH1 0x20 PUSH0 KECCAK256 SWAP1 JUMPDEST DUP2 SLOAD DUP2 MSTORE PUSH1 0x20 ADD SWAP1 PUSH1 0x1 ADD SWAP1 DUP1 DUP4 GT PUSH2 0x491A JUMPI JUMPDEST POP POP POP POP POP DUP2 MSTORE POP POP DUP2 MSTORE PUSH1 0x20 ADD SWAP1 PUSH1 0x1 ADD SWAP1 PUSH2 0x46CF JUMP JUMPDEST POP POP POP POP SWAP1 POP SWAP1 JUMP JUMPDEST PUSH1 0x60 PUSH1 0x13 PUSH0 CALLER PUSH20 0xFFFFFFFFFFFFFFFFFFFFFFFFFFFFFFFFFFFFFFFF AND PUSH20 0xFFFFFFFFFFFFFFFFFFFFFFFFFFFFFFFFFFFFFFFF AND DUP2 MSTORE PUSH1 0x20 ADD SWAP1 DUP2 MSTORE PUSH1 0x20 ADD PUSH0 KECCAK256 PUSH0 SWAP1 SLOAD SWAP1 PUSH2 0x100 EXP SWAP1 DIV PUSH1 0xFF AND PUSH2 0x49DA JUMPI PUSH1 0x40 MLOAD PUSH32 0x8C379A000000000000000000000000000000000000000000000000000000000 DUP2 MSTORE PUSH1 0x4 ADD PUSH2 0x49D1 SWAP1 PUSH2 0x700D JUMP JUMPDEST PUSH1 0x40 MLOAD DUP1 SWAP2 SUB SWAP1 REVERT JUMPDEST PUSH1 0x12 DUP1 SLOAD DUP1 PUSH1 0x20 MUL PUSH1 0x20 ADD PUSH1 0x40 MLOAD SWAP1 DUP2 ADD PUSH1 0x40 MSTORE DUP1 SWAP3 SWAP2 SWAP1 DUP2 DUP2 MSTORE PUSH1 0x20 ADD DUP3 DUP1 SLOAD DUP1 ISZERO PUSH2 0x4A24 JUMPI PUSH1 0x20 MUL DUP3 ADD SWAP2 SWAP1 PUSH0 MSTORE PUSH1 0x20 PUSH0 KECCAK256 SWAP1 JUMPDEST DUP2 SLOAD DUP2 MSTORE PUSH1 0x20 ADD SWAP1 PUSH1 0x1 ADD SWAP1 DUP1 DUP4 GT PUSH2 0x4A10 JUMPI JUMPDEST POP POP POP POP POP SWAP1 POP SWAP1 JUMP JUMPDEST PUSH1 0x3 PUSH0 DUP2 SLOAD DUP1 SWAP3 SWAP2 SWAP1 PUSH2 0x4A40 SWAP1 PUSH2 0x725E JUMP JUMPDEST SWAP2 SWAP1 POP SSTORE POP JUMP JUMPDEST PUSH1 0x3 SLOAD DUP2 JUMP JUMPDEST PUSH1 0x4 PUSH0 DUP2 SLOAD DUP1 SWAP3 SWAP2 SWAP1 PUSH2 0x4A5F SWAP1 PUSH2 0x725E JUMP JUMPDEST SWAP2 SWAP1 POP SSTORE POP JUMP JUMPDEST PUSH1 0x1 PUSH0 DUP2 SLOAD DUP1 SWAP3 SWAP2 SWAP1 PUSH2 0x4A78 SWAP1 PUSH2 0x725E JUMP JUMPDEST SWAP2 SWAP1 POP SSTORE POP PUSH1 0x7 PUSH0 DUP3 PUSH20 0xFFFFFFFFFFFFFFFFFFFFFFFFFFFFFFFFFFFFFFFF AND PUSH20 0xFFFFFFFFFFFFFFFFFFFFFFFFFFFFFFFFFFFFFFFF AND DUP2 MSTORE PUSH1 0x20 ADD SWAP1 DUP2 MSTORE PUSH1 0x20 ADD PUSH0 KECCAK256 PUSH0 DUP2 SLOAD DUP1 SWAP3 SWAP2 SWAP1 PUSH2 0x4ACA SWAP1 PUSH2 0x725E JUMP JUMPDEST SWAP2 SWAP1 POP SSTORE POP POP JUMP JUMPDEST PUSH1 0x60 PUSH0 PUSH1 0x1 PUSH2 0x4AE0 DUP5 PUSH2 0x5270 JUMP JUMPDEST ADD SWAP1 POP PUSH0 DUP2 PUSH8 0xFFFFFFFFFFFFFFFF DUP2 GT ISZERO PUSH2 0x4AFE JUMPI PUSH2 0x4AFD PUSH2 0x5C75 JUMP JUMPDEST JUMPDEST PUSH1 0x40 MLOAD SWAP1 DUP1 DUP3 MSTORE DUP1 PUSH1 0x1F ADD PUSH1 0x1F NOT AND PUSH1 0x20 ADD DUP3 ADD PUSH1 0x40 MSTORE DUP1 ISZERO PUSH2 0x4B30 JUMPI DUP2 PUSH1 0x20 ADD PUSH1 0x1 DUP3 MUL DUP1 CALLDATASIZE DUP4 CALLDATACOPY DUP1 DUP3 ADD SWAP2 POP POP SWAP1 POP JUMPDEST POP SWAP1 POP PUSH0 DUP3 PUSH1 0x20 ADD DUP3 ADD SWAP1 POP JUMPDEST PUSH1 0x1 ISZERO PUSH2 0x4B91 JUMPI DUP1 DUP1 PUSH1 0x1 SWAP1 SUB SWAP2 POP POP PUSH32 0x3031323334353637383961626364656600000000000000000000000000000000 PUSH1 0xA DUP7 MOD BYTE DUP2 MSTORE8 PUSH1 0xA DUP6 DUP2 PUSH2 0x4B86 JUMPI PUSH2 0x4B85 PUSH2 0x9086 JUMP JUMPDEST JUMPDEST DIV SWAP5 POP PUSH0 DUP6 SUB PUSH2 0x4B3D JUMPI JUMPDEST DUP2 SWAP4 POP POP POP POP SWAP2 SWAP1 POP JUMP JUMPDEST PUSH0 DUP2 MLOAD DUP4 MLOAD EQ DUP1 ISZERO PUSH2 0x4BBB JUMPI POP DUP2 DUP1 MLOAD SWAP1 PUSH1 0x20 ADD KECCAK256 DUP4 DUP1 MLOAD SWAP1 PUSH1 0x20 ADD KECCAK256 EQ JUMPDEST SWAP1 POP SWAP3 SWAP2 POP POP JUMP JUMPDEST PUSH2 0x4BCB PUSH2 0x5527 JUMP JUMPDEST PUSH0 PUSH1 0x1 PUSH8 0xFFFFFFFFFFFFFFFF DUP2 GT ISZERO PUSH2 0x4BE7 JUMPI PUSH2 0x4BE6 PUSH2 0x5C75 JUMP JUMPDEST JUMPDEST PUSH1 0x40 MLOAD SWAP1 DUP1 DUP3 MSTORE DUP1 PUSH1 0x20 MUL PUSH1 0x20 ADD DUP3 ADD PUSH1 0x40 MSTORE DUP1 ISZERO PUSH2 0x4C15 JUMPI DUP2 PUSH1 0x20 ADD PUSH1 0x20 DUP3 MUL DUP1 CALLDATASIZE DUP4 CALLDATACOPY DUP1 DUP3 ADD SWAP2 POP POP SWAP1 POP JUMPDEST POP SWAP1 POP PUSH0 PUSH1 0x1 PUSH8 0xFFFFFFFFFFFFFFFF DUP2 GT ISZERO PUSH2 0x4C34 JUMPI PUSH2 0x4C33 PUSH2 0x5C75 JUMP JUMPDEST JUMPDEST PUSH1 0x40 MLOAD SWAP1 DUP1 DUP3 MSTORE DUP1 PUSH1 0x20 MUL PUSH1 0x20 ADD DUP3 ADD PUSH1 0x40 MSTORE DUP1 ISZERO PUSH2 0x4C62 JUMPI DUP2 PUSH1 0x20 ADD PUSH1 0x20 DUP3 MUL DUP1 CALLDATASIZE DUP4 CALLDATACOPY DUP1 DUP3 ADD SWAP2 POP POP SWAP1 POP JUMPDEST POP SWAP1 POP PUSH0 PUSH1 0x1 PUSH8 0xFFFFFFFFFFFFFFFF DUP2 GT ISZERO PUSH2 0x4C81 JUMPI PUSH2 0x4C80 PUSH2 0x5C75 JUMP JUMPDEST JUMPDEST PUSH1 0x40 MLOAD SWAP1 DUP1 DUP3 MSTORE DUP1 PUSH1 0x20 MUL PUSH1 0x20 ADD DUP3 ADD PUSH1 0x40 MSTORE DUP1 ISZERO PUSH2 0x4CAF JUMPI DUP2 PUSH1 0x20 ADD PUSH1 0x20 DUP3 MUL DUP1 CALLDATASIZE DUP4 CALLDATACOPY DUP1 DUP3 ADD SWAP2 POP POP SWAP1 POP JUMPDEST POP SWAP1 POP DUP7 DUP4 PUSH0 DUP2 MLOAD DUP2 LT PUSH2 0x4CC6 JUMPI PUSH2 0x4CC5 PUSH2 0x7395 JUMP JUMPDEST JUMPDEST PUSH1 0x20 MUL PUSH1 0x20 ADD ADD DUP2 DUP2 MSTORE POP POP DUP6 DUP3 PUSH0 DUP2 MLOAD DUP2 LT PUSH2 0x4CE6 JUMPI PUSH2 0x4CE5 PUSH2 0x7395 JUMP JUMPDEST JUMPDEST PUSH1 0x20 MUL PUSH1 0x20 ADD ADD DUP2 DUP2 MSTORE POP POP TIMESTAMP DUP2 PUSH0 DUP2 MLOAD DUP2 LT PUSH2 0x4D06 JUMPI PUSH2 0x4D05 PUSH2 0x7395 JUMP JUMPDEST JUMPDEST PUSH1 0x20 MUL PUSH1 0x20 ADD ADD DUP2 DUP2 MSTORE POP POP PUSH0 PUSH1 0x40 MLOAD DUP1 PUSH1 0xA0 ADD PUSH1 0x40 MSTORE DUP1 CALLER PUSH20 0xFFFFFFFFFFFFFFFFFFFFFFFFFFFFFFFFFFFFFFFF AND DUP2 MSTORE PUSH1 0x20 ADD DUP8 PUSH1 0x1 DUP2 GT ISZERO PUSH2 0x4D4D JUMPI PUSH2 0x4D4C PUSH2 0x90B3 JUMP JUMPDEST JUMPDEST PUSH1 0xFF AND DUP2 MSTORE PUSH1 0x20 ADD DUP6 DUP2 MSTORE PUSH1 0x20 ADD DUP5 DUP2 MSTORE PUSH1 0x20 ADD DUP4 DUP2 MSTORE POP SWAP1 POP DUP1 SWAP5 POP POP POP POP POP SWAP4 SWAP3 POP POP POP JUMP JUMPDEST PUSH1 0x60 PUSH0 DUP3 MLOAD PUSH8 0xFFFFFFFFFFFFFFFF DUP2 GT ISZERO PUSH2 0x4D93 JUMPI PUSH2 0x4D92 PUSH2 0x5C75 JUMP JUMPDEST JUMPDEST PUSH1 0x40 MLOAD SWAP1 DUP1 DUP3 MSTORE DUP1 PUSH1 0x20 MUL PUSH1 0x20 ADD DUP3 ADD PUSH1 0x40 MSTORE DUP1 ISZERO PUSH2 0x4DC6 JUMPI DUP2 PUSH1 0x20 ADD JUMPDEST PUSH1 0x60 DUP2 MSTORE PUSH1 0x20 ADD SWAP1 PUSH1 0x1 SWAP1 SUB SWAP1 DUP2 PUSH2 0x4DB1 JUMPI SWAP1 POP JUMPDEST POP SWAP1 POP PUSH0 JUMPDEST DUP4 MLOAD DUP2 LT ISZERO PUSH2 0x4EBF JUMPI PUSH0 PUSH1 0x18 PUSH0 SWAP1 SLOAD SWAP1 PUSH2 0x100 EXP SWAP1 DIV PUSH20 0xFFFFFFFFFFFFFFFFFFFFFFFFFFFFFFFFFFFFFFFF AND PUSH20 0xFFFFFFFFFFFFFFFFFFFFFFFFFFFFFFFFFFFFFFFF AND PUSH4 0x6386C1C7 DUP7 DUP5 DUP2 MLOAD DUP2 LT PUSH2 0x4E25 JUMPI PUSH2 0x4E24 PUSH2 0x7395 JUMP JUMPDEST JUMPDEST PUSH1 0x20 MUL PUSH1 0x20 ADD ADD MLOAD PUSH1 0x40 MLOAD DUP3 PUSH4 0xFFFFFFFF AND PUSH1 0xE0 SHL DUP2 MSTORE PUSH1 0x4 ADD PUSH2 0x4E49 SWAP2 SWAP1 PUSH2 0x5708 JUMP JUMPDEST PUSH0 PUSH1 0x40 MLOAD DUP1 DUP4 SUB DUP2 DUP7 GAS STATICCALL ISZERO DUP1 ISZERO PUSH2 0x4E63 JUMPI RETURNDATASIZE PUSH0 DUP1 RETURNDATACOPY RETURNDATASIZE PUSH0 REVERT JUMPDEST POP POP POP POP PUSH1 0x40 MLOAD RETURNDATASIZE PUSH0 DUP3 RETURNDATACOPY RETURNDATASIZE PUSH1 0x1F NOT PUSH1 0x1F DUP3 ADD AND DUP3 ADD DUP1 PUSH1 0x40 MSTORE POP DUP2 ADD SWAP1 PUSH2 0x4E8B SWAP2 SWAP1 PUSH2 0x86BB JUMP JUMPDEST POP SWAP1 POP DUP1 PUSH1 0x20 ADD MLOAD DUP4 DUP4 DUP2 MLOAD DUP2 LT PUSH2 0x4EA6 JUMPI PUSH2 0x4EA5 PUSH2 0x7395 JUMP JUMPDEST JUMPDEST PUSH1 0x20 MUL PUSH1 0x20 ADD ADD DUP2 SWAP1 MSTORE POP POP DUP1 DUP1 PUSH1 0x1 ADD SWAP2 POP POP PUSH2 0x4DCB JUMP JUMPDEST POP DUP1 PUSH1 0x40 MLOAD PUSH1 0x20 ADD PUSH2 0x4ED1 SWAP2 SWAP1 PUSH2 0x919B JUMP JUMPDEST PUSH1 0x40 MLOAD PUSH1 0x20 DUP2 DUP4 SUB SUB DUP2 MSTORE SWAP1 PUSH1 0x40 MSTORE SWAP2 POP POP SWAP2 SWAP1 POP JUMP JUMPDEST DUP2 PUSH1 0x1 ADD DUP1 SLOAD SWAP1 POP DUP2 LT ISZERO PUSH2 0x5082 JUMPI PUSH0 DUP2 SWAP1 POP JUMPDEST PUSH1 0x1 DUP4 PUSH1 0x1 ADD DUP1 SLOAD SWAP1 POP PUSH2 0x4F10 SWAP2 SWAP1 PUSH2 0x7AFD JUMP JUMPDEST DUP2 LT ISZERO PUSH2 0x500B JUMPI DUP3 PUSH1 0x1 ADD PUSH1 0x1 DUP3 PUSH2 0x4F28 SWAP2 SWAP1 PUSH2 0x91BB JUMP JUMPDEST DUP2 SLOAD DUP2 LT PUSH2 0x4F39 JUMPI PUSH2 0x4F38 PUSH2 0x7395 JUMP JUMPDEST JUMPDEST SWAP1 PUSH0 MSTORE PUSH1 0x20 PUSH0 KECCAK256 ADD SLOAD DUP4 PUSH1 0x1 ADD DUP3 DUP2 SLOAD DUP2 LT PUSH2 0x4F58 JUMPI PUSH2 0x4F57 PUSH2 0x7395 JUMP JUMPDEST JUMPDEST SWAP1 PUSH0 MSTORE PUSH1 0x20 PUSH0 KECCAK256 ADD DUP2 SWAP1 SSTORE POP DUP3 PUSH1 0x2 ADD PUSH1 0x1 DUP3 PUSH2 0x4F75 SWAP2 SWAP1 PUSH2 0x91BB JUMP JUMPDEST DUP2 SLOAD DUP2 LT PUSH2 0x4F86 JUMPI PUSH2 0x4F85 PUSH2 0x7395 JUMP JUMPDEST JUMPDEST SWAP1 PUSH0 MSTORE PUSH1 0x20 PUSH0 KECCAK256 ADD SLOAD DUP4 PUSH1 0x2 ADD DUP3 DUP2 SLOAD DUP2 LT PUSH2 0x4FA5 JUMPI PUSH2 0x4FA4 PUSH2 0x7395 JUMP JUMPDEST JUMPDEST SWAP1 PUSH0 MSTORE PUSH1 0x20 PUSH0 KECCAK256 ADD DUP2 SWAP1 SSTORE POP DUP3 PUSH1 0x3 ADD PUSH1 0x1 DUP3 PUSH2 0x4FC2 SWAP2 SWAP1 PUSH2 0x91BB JUMP JUMPDEST DUP2 SLOAD DUP2 LT PUSH2 0x4FD3 JUMPI PUSH2 0x4FD2 PUSH2 0x7395 JUMP JUMPDEST JUMPDEST SWAP1 PUSH0 MSTORE PUSH1 0x20 PUSH0 KECCAK256 ADD SLOAD DUP4 PUSH1 0x3 ADD DUP3 DUP2 SLOAD DUP2 LT PUSH2 0x4FF2 JUMPI PUSH2 0x4FF1 PUSH2 0x7395 JUMP JUMPDEST JUMPDEST SWAP1 PUSH0 MSTORE PUSH1 0x20 PUSH0 KECCAK256 ADD DUP2 SWAP1 SSTORE POP DUP1 DUP1 PUSH1 0x1 ADD SWAP2 POP POP PUSH2 0x4EFC JUMP JUMPDEST POP DUP2 PUSH1 0x1 ADD DUP1 SLOAD DUP1 PUSH2 0x5020 JUMPI PUSH2 0x501F PUSH2 0x7F10 JUMP JUMPDEST JUMPDEST PUSH1 0x1 SWAP1 SUB DUP2 DUP2 SWAP1 PUSH0 MSTORE PUSH1 0x20 PUSH0 KECCAK256 ADD PUSH0 SWAP1 SSTORE SWAP1 SSTORE DUP2 PUSH1 0x2 ADD DUP1 SLOAD DUP1 PUSH2 0x5047 JUMPI PUSH2 0x5046 PUSH2 0x7F10 JUMP JUMPDEST JUMPDEST PUSH1 0x1 SWAP1 SUB DUP2 DUP2 SWAP1 PUSH0 MSTORE PUSH1 0x20 PUSH0 KECCAK256 ADD PUSH0 SWAP1 SSTORE SWAP1 SSTORE DUP2 PUSH1 0x3 ADD DUP1 SLOAD DUP1 PUSH2 0x506E JUMPI PUSH2 0x506D PUSH2 0x7F10 JUMP JUMPDEST JUMPDEST PUSH1 0x1 SWAP1 SUB DUP2 DUP2 SWAP1 PUSH0 MSTORE PUSH1 0x20 PUSH0 KECCAK256 ADD PUSH0 SWAP1 SSTORE SWAP1 SSTORE JUMPDEST POP POP JUMP JUMPDEST DUP2 DUP1 SLOAD SWAP1 POP DUP2 LT ISZERO PUSH2 0x526C JUMPI PUSH0 DUP2 SWAP1 POP JUMPDEST PUSH1 0x1 DUP4 DUP1 SLOAD SWAP1 POP PUSH2 0x50A8 SWAP2 SWAP1 PUSH2 0x7AFD JUMP JUMPDEST DUP2 LT ISZERO PUSH2 0x51DD JUMPI DUP3 PUSH1 0x1 DUP3 PUSH2 0x50BD SWAP2 SWAP1 PUSH2 0x91BB JUMP JUMPDEST DUP2 SLOAD DUP2 LT PUSH2 0x50CE JUMPI PUSH2 0x50CD PUSH2 0x7395 JUMP JUMPDEST JUMPDEST SWAP1 PUSH0 MSTORE PUSH1 0x20 PUSH0 KECCAK256 SWAP1 PUSH1 0x4 MUL ADD DUP4 DUP3 DUP2 SLOAD DUP2 LT PUSH2 0x50ED JUMPI PUSH2 0x50EC PUSH2 0x7395 JUMP JUMPDEST JUMPDEST SWAP1 PUSH0 MSTORE PUSH1 0x20 PUSH0 KECCAK256 SWAP1 PUSH1 0x4 MUL ADD PUSH0 DUP3 ADD PUSH0 SWAP1 SLOAD SWAP1 PUSH2 0x100 EXP SWAP1 DIV PUSH20 0xFFFFFFFFFFFFFFFFFFFFFFFFFFFFFFFFFFFFFFFF AND DUP2 PUSH0 ADD PUSH0 PUSH2 0x100 EXP DUP2 SLOAD DUP2 PUSH20 0xFFFFFFFFFFFFFFFFFFFFFFFFFFFFFFFFFFFFFFFF MUL NOT AND SWAP1 DUP4 PUSH20 0xFFFFFFFFFFFFFFFFFFFFFFFFFFFFFFFFFFFFFFFF AND MUL OR SWAP1 SSTORE POP PUSH0 DUP3 ADD PUSH1 0x14 SWAP1 SLOAD SWAP1 PUSH2 0x100 EXP SWAP1 DIV PUSH1 0xFF AND DUP2 PUSH0 ADD PUSH1 0x14 PUSH2 0x100 EXP DUP2 SLOAD DUP2 PUSH1 0xFF MUL NOT AND SWAP1 DUP4 PUSH1 0xFF AND MUL OR SWAP1 SSTORE POP PUSH1 0x1 DUP3 ADD DUP2 PUSH1 0x1 ADD SWAP1 DUP1 SLOAD PUSH2 0x519E SWAP3 SWAP2 SWAP1 PUSH2 0x53C1 JUMP JUMPDEST POP PUSH1 0x2 DUP3 ADD DUP2 PUSH1 0x2 ADD SWAP1 DUP1 SLOAD PUSH2 0x51B5 SWAP3 SWAP2 SWAP1 PUSH2 0x53C1 JUMP JUMPDEST POP PUSH1 0x3 DUP3 ADD DUP2 PUSH1 0x3 ADD SWAP1 DUP1 SLOAD PUSH2 0x51CC SWAP3 SWAP2 SWAP1 PUSH2 0x53C1 JUMP JUMPDEST POP SWAP1 POP POP DUP1 DUP1 PUSH1 0x1 ADD SWAP2 POP POP PUSH2 0x5097 JUMP JUMPDEST POP DUP2 DUP1 SLOAD DUP1 PUSH2 0x51EF JUMPI PUSH2 0x51EE PUSH2 0x7F10 JUMP JUMPDEST JUMPDEST PUSH1 0x1 SWAP1 SUB DUP2 DUP2 SWAP1 PUSH0 MSTORE PUSH1 0x20 PUSH0 KECCAK256 SWAP1 PUSH1 0x4 MUL ADD PUSH0 DUP1 DUP3 ADD PUSH0 PUSH2 0x100 EXP DUP2 SLOAD SWAP1 PUSH20 0xFFFFFFFFFFFFFFFFFFFFFFFFFFFFFFFFFFFFFFFF MUL NOT AND SWAP1 SSTORE PUSH0 DUP3 ADD PUSH1 0x14 PUSH2 0x100 EXP DUP2 SLOAD SWAP1 PUSH1 0xFF MUL NOT AND SWAP1 SSTORE PUSH1 0x1 DUP3 ADD PUSH0 PUSH2 0x5249 SWAP2 SWAP1 PUSH2 0x5489 JUMP JUMPDEST PUSH1 0x2 DUP3 ADD PUSH0 PUSH2 0x5258 SWAP2 SWAP1 PUSH2 0x5489 JUMP JUMPDEST PUSH1 0x3 DUP3 ADD PUSH0 PUSH2 0x5267 SWAP2 SWAP1 PUSH2 0x5489 JUMP JUMPDEST POP POP SWAP1 SSTORE JUMPDEST POP POP JUMP JUMPDEST PUSH0 DUP1 PUSH0 SWAP1 POP PUSH27 0x184F03E93FF9F4DAA797ED6E38ED64BF6A1F010000000000000000 DUP4 LT PUSH2 0x52CC JUMPI PUSH27 0x184F03E93FF9F4DAA797ED6E38ED64BF6A1F010000000000000000 DUP4 DUP2 PUSH2 0x52C2 JUMPI PUSH2 0x52C1 PUSH2 0x9086 JUMP JUMPDEST JUMPDEST DIV SWAP3 POP PUSH1 0x40 DUP2 ADD SWAP1 POP JUMPDEST PUSH14 0x4EE2D6D415B85ACEF8100000000 DUP4 LT PUSH2 0x5309 JUMPI PUSH14 0x4EE2D6D415B85ACEF8100000000 DUP4 DUP2 PUSH2 0x52FF JUMPI PUSH2 0x52FE PUSH2 0x9086 JUMP JUMPDEST JUMPDEST DIV SWAP3 POP PUSH1 0x20 DUP2 ADD SWAP1 POP JUMPDEST PUSH7 0x2386F26FC10000 DUP4 LT PUSH2 0x5338 JUMPI PUSH7 0x2386F26FC10000 DUP4 DUP2 PUSH2 0x532E JUMPI PUSH2 0x532D PUSH2 0x9086 JUMP JUMPDEST JUMPDEST DIV SWAP3 POP PUSH1 0x10 DUP2 ADD SWAP1 POP JUMPDEST PUSH4 0x5F5E100 DUP4 LT PUSH2 0x5361 JUMPI PUSH4 0x5F5E100 DUP4 DUP2 PUSH2 0x5357 JUMPI PUSH2 0x5356 PUSH2 0x9086 JUMP JUMPDEST JUMPDEST DIV SWAP3 POP PUSH1 0x8 DUP2 ADD SWAP1 POP JUMPDEST PUSH2 0x2710 DUP4 LT PUSH2 0x5386 JUMPI PUSH2 0x2710 DUP4 DUP2 PUSH2 0x537C JUMPI PUSH2 0x537B PUSH2 0x9086 JUMP JUMPDEST JUMPDEST DIV SWAP3 POP PUSH1 0x4 DUP2 ADD SWAP1 POP JUMPDEST PUSH1 0x64 DUP4 LT PUSH2 0x53A9 JUMPI PUSH1 0x64 DUP4 DUP2 PUSH2 0x539F JUMPI PUSH2 0x539E PUSH2 0x9086 JUMP JUMPDEST JUMPDEST DIV SWAP3 POP PUSH1 0x2 DUP2 ADD SWAP1 POP JUMPDEST PUSH1 0xA DUP4 LT PUSH2 0x53B8 JUMPI PUSH1 0x1 DUP2 ADD SWAP1 POP JUMPDEST DUP1 SWAP2 POP POP SWAP2 SWAP1 POP JUMP JUMPDEST DUP3 DUP1 SLOAD DUP3 DUP3 SSTORE SWAP1 PUSH0 MSTORE PUSH1 0x20 PUSH0 KECCAK256 SWAP1 DUP2 ADD SWAP3 DUP3 ISZERO PUSH2 0x53FE JUMPI PUSH0 MSTORE PUSH1 0x20 PUSH0 KECCAK256 SWAP2 DUP3 ADD JUMPDEST DUP3 DUP2 GT ISZERO PUSH2 0x53FD JUMPI DUP3 SLOAD DUP3 SSTORE SWAP2 PUSH1 0x1 ADD SWAP2 SWAP1 PUSH1 0x1 ADD SWAP1 PUSH2 0x53E2 JUMP JUMPDEST JUMPDEST POP SWAP1 POP PUSH2 0x540B SWAP2 SWAP1 PUSH2 0x556D JUMP JUMPDEST POP SWAP1 JUMP JUMPDEST POP DUP1 SLOAD PUSH2 0x541B SWAP1 PUSH2 0x7417 JUMP JUMPDEST PUSH0 DUP3 SSTORE DUP1 PUSH1 0x1F LT PUSH2 0x542C JUMPI POP PUSH2 0x5449 JUMP JUMPDEST PUSH1 0x1F ADD PUSH1 0x20 SWAP1 DIV SWAP1 PUSH0 MSTORE PUSH1 0x20 PUSH0 KECCAK256 SWAP1 DUP2 ADD SWAP1 PUSH2 0x5448 SWAP2 SWAP1 PUSH2 0x556D JUMP JUMPDEST JUMPDEST POP JUMP JUMPDEST POP DUP1 SLOAD PUSH2 0x5458 SWAP1 PUSH2 0x7417 JUMP JUMPDEST PUSH0 DUP3 SSTORE DUP1 PUSH1 0x1F LT PUSH2 0x5469 JUMPI POP PUSH2 0x5486 JUMP JUMPDEST PUSH1 0x1F ADD PUSH1 0x20 SWAP1 DIV SWAP1 PUSH0 MSTORE PUSH1 0x20 PUSH0 KECCAK256 SWAP1 DUP2 ADD SWAP1 PUSH2 0x5485 SWAP2 SWAP1 PUSH2 0x556D JUMP JUMPDEST JUMPDEST POP JUMP JUMPDEST POP DUP1 SLOAD PUSH0 DUP3 SSTORE SWAP1 PUSH0 MSTORE PUSH1 0x20 PUSH0 KECCAK256 SWAP1 DUP2 ADD SWAP1 PUSH2 0x54A4 SWAP2 SWAP1 PUSH2 0x556D JUMP JUMPDEST POP JUMP JUMPDEST DUP3 DUP1 SLOAD DUP3 DUP3 SSTORE SWAP1 PUSH0 MSTORE PUSH1 0x20 PUSH0 KECCAK256 SWAP1 DUP2 ADD SWAP3 DUP3 ISZERO PUSH2 0x54E1 JUMPI SWAP2 PUSH1 0x20 MUL DUP3 ADD JUMPDEST DUP3 DUP2 GT ISZERO PUSH2 0x54E0 JUMPI DUP3 MLOAD DUP3 SSTORE SWAP2 PUSH1 0x20 ADD SWAP2 SWAP1 PUSH1 0x1 ADD SWAP1 PUSH2 0x54C5 JUMP JUMPDEST JUMPDEST POP SWAP1 POP PUSH2 0x54EE SWAP2 SWAP1 PUSH2 0x556D JUMP JUMPDEST POP SWAP1 JUMP JUMPDEST PUSH1 0x40 MLOAD DUP1 PUSH1 0x60 ADD PUSH1 0x40 MSTORE DUP1 PUSH0 DUP2 MSTORE PUSH1 0x20 ADD PUSH0 PUSH20 0xFFFFFFFFFFFFFFFFFFFFFFFFFFFFFFFFFFFFFFFF AND DUP2 MSTORE PUSH1 0x20 ADD PUSH1 0x60 DUP2 MSTORE POP SWAP1 JUMP JUMPDEST PUSH1 0x40 MLOAD DUP1 PUSH1 0xA0 ADD PUSH1 0x40 MSTORE DUP1 PUSH0 PUSH20 0xFFFFFFFFFFFFFFFFFFFFFFFFFFFFFFFFFFFFFFFF AND DUP2 MSTORE PUSH1 0x20 ADD PUSH0 PUSH1 0xFF AND DUP2 MSTORE PUSH1 0x20 ADD PUSH1 0x60 DUP2 MSTORE PUSH1 0x20 ADD PUSH1 0x60 DUP2 MSTORE PUSH1 0x20 ADD PUSH1 0x60 DUP2 MSTORE POP SWAP1 JUMP JUMPDEST JUMPDEST DUP1 DUP3 GT ISZERO PUSH2 0x5584 JUMPI PUSH0 DUP2 PUSH0 SWAP1 SSTORE POP PUSH1 0x1 ADD PUSH2 0x556E JUMP JUMPDEST POP SWAP1 JUMP JUMPDEST PUSH0 PUSH1 0x40 MLOAD SWAP1 POP SWAP1 JUMP JUMPDEST PUSH0 DUP1 REVERT JUMPDEST PUSH0 DUP1 REVERT JUMPDEST PUSH0 PUSH20 0xFFFFFFFFFFFFFFFFFFFFFFFFFFFFFFFFFFFFFFFF DUP3 AND SWAP1 POP SWAP2 SWAP1 POP JUMP JUMPDEST PUSH0 PUSH2 0x55C2 DUP3 PUSH2 0x5599 JUMP JUMPDEST SWAP1 POP SWAP2 SWAP1 POP JUMP JUMPDEST PUSH2 0x55D2 DUP2 PUSH2 0x55B8 JUMP JUMPDEST DUP2 EQ PUSH2 0x55DC JUMPI PUSH0 DUP1 REVERT JUMPDEST POP JUMP JUMPDEST PUSH0 DUP2 CALLDATALOAD SWAP1 POP PUSH2 0x55ED DUP2 PUSH2 0x55C9 JUMP JUMPDEST SWAP3 SWAP2 POP POP JUMP JUMPDEST PUSH0 DUP2 SWAP1 POP SWAP2 SWAP1 POP JUMP JUMPDEST PUSH2 0x5605 DUP2 PUSH2 0x55F3 JUMP JUMPDEST DUP2 EQ PUSH2 0x560F JUMPI PUSH0 DUP1 REVERT JUMPDEST POP JUMP JUMPDEST PUSH0 DUP2 CALLDATALOAD SWAP1 POP PUSH2 0x5620 DUP2 PUSH2 0x55FC JUMP JUMPDEST SWAP3 SWAP2 POP POP JUMP JUMPDEST PUSH0 DUP1 PUSH1 0x40 DUP4 DUP6 SUB SLT ISZERO PUSH2 0x563C JUMPI PUSH2 0x563B PUSH2 0x5591 JUMP JUMPDEST JUMPDEST PUSH0 PUSH2 0x5649 DUP6 DUP3 DUP7 ADD PUSH2 0x55DF JUMP JUMPDEST SWAP3 POP POP PUSH1 0x20 PUSH2 0x565A DUP6 DUP3 DUP7 ADD PUSH2 0x5612 JUMP JUMPDEST SWAP2 POP POP SWAP3 POP SWAP3 SWAP1 POP JUMP JUMPDEST PUSH2 0x566D DUP2 PUSH2 0x55B8 JUMP JUMPDEST DUP3 MSTORE POP POP JUMP JUMPDEST PUSH0 PUSH1 0xFF DUP3 AND SWAP1 POP SWAP2 SWAP1 POP JUMP JUMPDEST PUSH2 0x5688 DUP2 PUSH2 0x5673 JUMP JUMPDEST DUP3 MSTORE POP POP JUMP JUMPDEST PUSH0 PUSH1 0x40 DUP3 ADD SWAP1 POP PUSH2 0x56A1 PUSH0 DUP4 ADD DUP6 PUSH2 0x5664 JUMP JUMPDEST PUSH2 0x56AE PUSH1 0x20 DUP4 ADD DUP5 PUSH2 0x567F JUMP JUMPDEST SWAP4 SWAP3 POP POP POP JUMP JUMPDEST PUSH2 0x56BE DUP2 PUSH2 0x55F3 JUMP JUMPDEST DUP3 MSTORE POP POP JUMP JUMPDEST PUSH0 PUSH1 0x20 DUP3 ADD SWAP1 POP PUSH2 0x56D7 PUSH0 DUP4 ADD DUP5 PUSH2 0x56B5 JUMP JUMPDEST SWAP3 SWAP2 POP POP JUMP JUMPDEST PUSH0 PUSH1 0x20 DUP3 DUP5 SUB SLT ISZERO PUSH2 0x56F2 JUMPI PUSH2 0x56F1 PUSH2 0x5591 JUMP JUMPDEST JUMPDEST PUSH0 PUSH2 0x56FF DUP5 DUP3 DUP6 ADD PUSH2 0x5612 JUMP JUMPDEST SWAP2 POP POP SWAP3 SWAP2 POP POP JUMP JUMPDEST PUSH0 PUSH1 0x20 DUP3 ADD SWAP1 POP PUSH2 0x571B PUSH0 DUP4 ADD DUP5 PUSH2 0x5664 JUMP JUMPDEST SWAP3 SWAP2 POP POP JUMP JUMPDEST PUSH0 DUP1 PUSH1 0x40 DUP4 DUP6 SUB SLT ISZERO PUSH2 0x5737 JUMPI PUSH2 0x5736 PUSH2 0x5591 JUMP JUMPDEST JUMPDEST PUSH0 PUSH2 0x5744 DUP6 DUP3 DUP7 ADD PUSH2 0x5612 JUMP JUMPDEST SWAP3 POP POP PUSH1 0x20 PUSH2 0x5755 DUP6 DUP3 DUP7 ADD PUSH2 0x5612 JUMP JUMPDEST SWAP2 POP POP SWAP3 POP SWAP3 SWAP1 POP JUMP JUMPDEST PUSH0 DUP2 MLOAD SWAP1 POP SWAP2 SWAP1 POP JUMP JUMPDEST PUSH0 DUP3 DUP3 MSTORE PUSH1 0x20 DUP3 ADD SWAP1 POP SWAP3 SWAP2 POP POP JUMP JUMPDEST PUSH0 DUP2 SWAP1 POP PUSH1 0x20 DUP3 ADD SWAP1 POP SWAP2 SWAP1 POP JUMP JUMPDEST PUSH0 DUP2 MLOAD SWAP1 POP SWAP2 SWAP1 POP JUMP JUMPDEST PUSH0 DUP3 DUP3 MSTORE PUSH1 0x20 DUP3 ADD SWAP1 POP SWAP3 SWAP2 POP POP JUMP JUMPDEST DUP3 DUP2 DUP4 MCOPY PUSH0 DUP4 DUP4 ADD MSTORE POP POP POP JUMP JUMPDEST PUSH0 PUSH1 0x1F NOT PUSH1 0x1F DUP4 ADD AND SWAP1 POP SWAP2 SWAP1 POP JUMP JUMPDEST PUSH0 PUSH2 0x57CA DUP3 PUSH2 0x5788 JUMP JUMPDEST PUSH2 0x57D4 DUP2 DUP6 PUSH2 0x5792 JUMP JUMPDEST SWAP4 POP PUSH2 0x57E4 DUP2 DUP6 PUSH1 0x20 DUP7 ADD PUSH2 0x57A2 JUMP JUMPDEST PUSH2 0x57ED DUP2 PUSH2 0x57B0 JUMP JUMPDEST DUP5 ADD SWAP2 POP POP SWAP3 SWAP2 POP POP JUMP JUMPDEST PUSH2 0x5801 DUP2 PUSH2 0x5673 JUMP JUMPDEST DUP3 MSTORE POP POP JUMP JUMPDEST PUSH2 0x5810 DUP2 PUSH2 0x55B8 JUMP JUMPDEST DUP3 MSTORE POP POP JUMP JUMPDEST PUSH0 DUP2 MLOAD SWAP1 POP SWAP2 SWAP1 POP JUMP JUMPDEST PUSH0 DUP3 DUP3 MSTORE PUSH1 0x20 DUP3 ADD SWAP1 POP SWAP3 SWAP2 POP POP JUMP JUMPDEST PUSH0 PUSH2 0x583A DUP3 PUSH2 0x5816 JUMP JUMPDEST PUSH2 0x5844 DUP2 DUP6 PUSH2 0x5820 JUMP JUMPDEST SWAP4 POP PUSH2 0x5854 DUP2 DUP6 PUSH1 0x20 DUP7 ADD PUSH2 0x57A2 JUMP JUMPDEST PUSH2 0x585D DUP2 PUSH2 0x57B0 JUMP JUMPDEST DUP5 ADD SWAP2 POP POP SWAP3 SWAP2 POP POP JUMP JUMPDEST PUSH2 0x5871 DUP2 PUSH2 0x55F3 JUMP JUMPDEST DUP3 MSTORE POP POP JUMP JUMPDEST PUSH0 DUP2 MLOAD SWAP1 POP SWAP2 SWAP1 POP JUMP JUMPDEST PUSH0 DUP3 DUP3 MSTORE PUSH1 0x20 DUP3 ADD SWAP1 POP SWAP3 SWAP2 POP POP JUMP JUMPDEST PUSH0 DUP2 SWAP1 POP PUSH1 0x20 DUP3 ADD SWAP1 POP SWAP2 SWAP1 POP JUMP JUMPDEST PUSH0 PUSH2 0x58AB DUP4 DUP4 PUSH2 0x5868 JUMP JUMPDEST PUSH1 0x20 DUP4 ADD SWAP1 POP SWAP3 SWAP2 POP POP JUMP JUMPDEST PUSH0 PUSH1 0x20 DUP3 ADD SWAP1 POP SWAP2 SWAP1 POP JUMP JUMPDEST PUSH0 PUSH2 0x58CD DUP3 PUSH2 0x5877 JUMP JUMPDEST PUSH2 0x58D7 DUP2 DUP6 PUSH2 0x5881 JUMP JUMPDEST SWAP4 POP PUSH2 0x58E2 DUP4 PUSH2 0x5891 JUMP JUMPDEST DUP1 PUSH0 JUMPDEST DUP4 DUP2 LT ISZERO PUSH2 0x5912 JUMPI DUP2 MLOAD PUSH2 0x58F9 DUP9 DUP3 PUSH2 0x58A0 JUMP JUMPDEST SWAP8 POP PUSH2 0x5904 DUP4 PUSH2 0x58B7 JUMP JUMPDEST SWAP3 POP POP PUSH1 0x1 DUP2 ADD SWAP1 POP PUSH2 0x58E5 JUMP JUMPDEST POP DUP6 SWAP4 POP POP POP POP SWAP3 SWAP2 POP POP JUMP JUMPDEST PUSH0 PUSH1 0xE0 DUP4 ADD PUSH0 DUP4 ADD MLOAD DUP5 DUP3 SUB PUSH0 DUP7 ADD MSTORE PUSH2 0x5939 DUP3 DUP3 PUSH2 0x57C0 JUMP JUMPDEST SWAP2 POP POP PUSH1 0x20 DUP4 ADD MLOAD PUSH2 0x594E PUSH1 0x20 DUP7 ADD DUP3 PUSH2 0x57F8 JUMP JUMPDEST POP PUSH1 0x40 DUP4 ADD MLOAD PUSH2 0x5961 PUSH1 0x40 DUP7 ADD DUP3 PUSH2 0x5807 JUMP JUMPDEST POP PUSH1 0x60 DUP4 ADD MLOAD DUP5 DUP3 SUB PUSH1 0x60 DUP7 ADD MSTORE PUSH2 0x5979 DUP3 DUP3 PUSH2 0x5830 JUMP JUMPDEST SWAP2 POP POP PUSH1 0x80 DUP4 ADD MLOAD PUSH2 0x598E PUSH1 0x80 DUP7 ADD DUP3 PUSH2 0x5868 JUMP JUMPDEST POP PUSH1 0xA0 DUP4 ADD MLOAD DUP5 DUP3 SUB PUSH1 0xA0 DUP7 ADD MSTORE PUSH2 0x59A6 DUP3 DUP3 PUSH2 0x58C3 JUMP JUMPDEST SWAP2 POP POP PUSH1 0xC0 DUP4 ADD MLOAD DUP5 DUP3 SUB PUSH1 0xC0 DUP7 ADD MSTORE PUSH2 0x59C0 DUP3 DUP3 PUSH2 0x58C3 JUMP JUMPDEST SWAP2 POP POP DUP1 SWAP2 POP POP SWAP3 SWAP2 POP POP JUMP JUMPDEST PUSH0 PUSH2 0x59D8 DUP4 DUP4 PUSH2 0x591F JUMP JUMPDEST SWAP1 POP SWAP3 SWAP2 POP POP JUMP JUMPDEST PUSH0 PUSH1 0x20 DUP3 ADD SWAP1 POP SWAP2 SWAP1 POP JUMP JUMPDEST PUSH0 PUSH2 0x59F6 DUP3 PUSH2 0x575F JUMP JUMPDEST PUSH2 0x5A00 DUP2 DUP6 PUSH2 0x5769 JUMP JUMPDEST SWAP4 POP DUP4 PUSH1 0x20 DUP3 MUL DUP6 ADD PUSH2 0x5A12 DUP6 PUSH2 0x5779 JUMP JUMPDEST DUP1 PUSH0 JUMPDEST DUP6 DUP2 LT ISZERO PUSH2 0x5A4D JUMPI DUP5 DUP5 SUB DUP10 MSTORE DUP2 MLOAD PUSH2 0x5A2E DUP6 DUP3 PUSH2 0x59CD JUMP JUMPDEST SWAP5 POP PUSH2 0x5A39 DUP4 PUSH2 0x59E0 JUMP JUMPDEST SWAP3 POP PUSH1 0x20 DUP11 ADD SWAP10 POP POP PUSH1 0x1 DUP2 ADD SWAP1 POP PUSH2 0x5A15 JUMP JUMPDEST POP DUP3 SWAP8 POP DUP8 SWAP6 POP POP POP POP POP POP SWAP3 SWAP2 POP POP JUMP JUMPDEST PUSH0 DUP2 MLOAD SWAP1 POP SWAP2 SWAP1 POP JUMP JUMPDEST PUSH0 DUP3 DUP3 MSTORE PUSH1 0x20 DUP3 ADD SWAP1 POP SWAP3 SWAP2 POP POP JUMP JUMPDEST PUSH0 DUP2 SWAP1 POP PUSH1 0x20 DUP3 ADD SWAP1 POP SWAP2 SWAP1 POP JUMP JUMPDEST PUSH0 PUSH1 0xA0 DUP4 ADD PUSH0 DUP4 ADD MLOAD PUSH2 0x5A9D PUSH0 DUP7 ADD DUP3 PUSH2 0x5807 JUMP JUMPDEST POP PUSH1 0x20 DUP4 ADD MLOAD PUSH2 0x5AB0 PUSH1 0x20 DUP7 ADD DUP3 PUSH2 0x57F8 JUMP JUMPDEST POP PUSH1 0x40 DUP4 ADD MLOAD DUP5 DUP3 SUB PUSH1 0x40 DUP7 ADD MSTORE PUSH2 0x5AC8 DUP3 DUP3 PUSH2 0x58C3 JUMP JUMPDEST SWAP2 POP POP PUSH1 0x60 DUP4 ADD MLOAD DUP5 DUP3 SUB PUSH1 0x60 DUP7 ADD MSTORE PUSH2 0x5AE2 DUP3 DUP3 PUSH2 0x58C3 JUMP JUMPDEST SWAP2 POP POP PUSH1 0x80 DUP4 ADD MLOAD DUP5 DUP3 SUB PUSH1 0x80 DUP7 ADD MSTORE PUSH2 0x5AFC DUP3 DUP3 PUSH2 0x58C3 JUMP JUMPDEST SWAP2 POP POP DUP1 SWAP2 POP POP SWAP3 SWAP2 POP POP JUMP JUMPDEST PUSH0 PUSH2 0x5B14 DUP4 DUP4 PUSH2 0x5A88 JUMP JUMPDEST SWAP1 POP SWAP3 SWAP2 POP POP JUMP JUMPDEST PUSH0 PUSH1 0x20 DUP3 ADD SWAP1 POP SWAP2 SWAP1 POP JUMP JUMPDEST PUSH0 PUSH2 0x5B32 DUP3 PUSH2 0x5A5F JUMP JUMPDEST PUSH2 0x5B3C DUP2 DUP6 PUSH2 0x5A69 JUMP JUMPDEST SWAP4 POP DUP4 PUSH1 0x20 DUP3 MUL DUP6 ADD PUSH2 0x5B4E DUP6 PUSH2 0x5A79 JUMP JUMPDEST DUP1 PUSH0 JUMPDEST DUP6 DUP2 LT ISZERO PUSH2 0x5B89 JUMPI DUP5 DUP5 SUB DUP10 MSTORE DUP2 MLOAD PUSH2 0x5B6A DUP6 DUP3 PUSH2 0x5B09 JUMP JUMPDEST SWAP5 POP PUSH2 0x5B75 DUP4 PUSH2 0x5B1C JUMP JUMPDEST SWAP3 POP PUSH1 0x20 DUP11 ADD SWAP10 POP POP PUSH1 0x1 DUP2 ADD SWAP1 POP PUSH2 0x5B51 JUMP JUMPDEST POP DUP3 SWAP8 POP DUP8 SWAP6 POP POP POP POP POP POP SWAP3 SWAP2 POP POP JUMP JUMPDEST PUSH0 DUP3 DUP3 MSTORE PUSH1 0x20 DUP3 ADD SWAP1 POP SWAP3 SWAP2 POP POP JUMP JUMPDEST PUSH0 PUSH2 0x5BB5 DUP3 PUSH2 0x5877 JUMP JUMPDEST PUSH2 0x5BBF DUP2 DUP6 PUSH2 0x5B9B JUMP JUMPDEST SWAP4 POP PUSH2 0x5BCA DUP4 PUSH2 0x5891 JUMP JUMPDEST DUP1 PUSH0 JUMPDEST DUP4 DUP2 LT ISZERO PUSH2 0x5BFA JUMPI DUP2 MLOAD PUSH2 0x5BE1 DUP9 DUP3 PUSH2 0x58A0 JUMP JUMPDEST SWAP8 POP PUSH2 0x5BEC DUP4 PUSH2 0x58B7 JUMP JUMPDEST SWAP3 POP POP PUSH1 0x1 DUP2 ADD SWAP1 POP PUSH2 0x5BCD JUMP JUMPDEST POP DUP6 SWAP4 POP POP POP POP SWAP3 SWAP2 POP POP JUMP JUMPDEST PUSH0 PUSH1 0xA0 DUP3 ADD SWAP1 POP DUP2 DUP2 SUB PUSH0 DUP4 ADD MSTORE PUSH2 0x5C1F DUP2 DUP9 PUSH2 0x59EC JUMP JUMPDEST SWAP1 POP PUSH2 0x5C2E PUSH1 0x20 DUP4 ADD DUP8 PUSH2 0x56B5 JUMP JUMPDEST PUSH2 0x5C3B PUSH1 0x40 DUP4 ADD DUP7 PUSH2 0x56B5 JUMP JUMPDEST DUP2 DUP2 SUB PUSH1 0x60 DUP4 ADD MSTORE PUSH2 0x5C4D DUP2 DUP6 PUSH2 0x5B28 JUMP JUMPDEST SWAP1 POP DUP2 DUP2 SUB PUSH1 0x80 DUP4 ADD MSTORE PUSH2 0x5C61 DUP2 DUP5 PUSH2 0x5BAB JUMP JUMPDEST SWAP1 POP SWAP7 SWAP6 POP POP POP POP POP POP JUMP JUMPDEST PUSH0 DUP1 REVERT JUMPDEST PUSH0 DUP1 REVERT JUMPDEST PUSH32 0x4E487B7100000000000000000000000000000000000000000000000000000000 PUSH0 MSTORE PUSH1 0x41 PUSH1 0x4 MSTORE PUSH1 0x24 PUSH0 REVERT JUMPDEST PUSH2 0x5CAB DUP3 PUSH2 0x57B0 JUMP JUMPDEST DUP2 ADD DUP2 DUP2 LT PUSH8 0xFFFFFFFFFFFFFFFF DUP3 GT OR ISZERO PUSH2 0x5CCA JUMPI PUSH2 0x5CC9 PUSH2 0x5C75 JUMP JUMPDEST JUMPDEST DUP1 PUSH1 0x40 MSTORE POP POP POP JUMP JUMPDEST PUSH0 PUSH2 0x5CDC PUSH2 0x5588 JUMP JUMPDEST SWAP1 POP PUSH2 0x5CE8 DUP3 DUP3 PUSH2 0x5CA2 JUMP JUMPDEST SWAP2 SWAP1 POP JUMP JUMPDEST PUSH0 PUSH8 0xFFFFFFFFFFFFFFFF DUP3 GT ISZERO PUSH2 0x5D07 JUMPI PUSH2 0x5D06 PUSH2 0x5C75 JUMP JUMPDEST JUMPDEST PUSH2 0x5D10 DUP3 PUSH2 0x57B0 JUMP JUMPDEST SWAP1 POP PUSH1 0x20 DUP2 ADD SWAP1 POP SWAP2 SWAP1 POP JUMP JUMPDEST DUP3 DUP2 DUP4 CALLDATACOPY PUSH0 DUP4 DUP4 ADD MSTORE POP POP POP JUMP JUMPDEST PUSH0 PUSH2 0x5D3D PUSH2 0x5D38 DUP5 PUSH2 0x5CED JUMP JUMPDEST PUSH2 0x5CD3 JUMP JUMPDEST SWAP1 POP DUP3 DUP2 MSTORE PUSH1 0x20 DUP2 ADD DUP5 DUP5 DUP5 ADD GT ISZERO PUSH2 0x5D59 JUMPI PUSH2 0x5D58 PUSH2 0x5C71 JUMP JUMPDEST JUMPDEST PUSH2 0x5D64 DUP5 DUP3 DUP6 PUSH2 0x5D1D JUMP JUMPDEST POP SWAP4 SWAP3 POP POP POP JUMP JUMPDEST PUSH0 DUP3 PUSH1 0x1F DUP4 ADD SLT PUSH2 0x5D80 JUMPI PUSH2 0x5D7F PUSH2 0x5C6D JUMP JUMPDEST JUMPDEST DUP2 CALLDATALOAD PUSH2 0x5D90 DUP5 DUP3 PUSH1 0x20 DUP7 ADD PUSH2 0x5D2B JUMP JUMPDEST SWAP2 POP POP SWAP3 SWAP2 POP POP JUMP JUMPDEST PUSH0 DUP1 PUSH1 0x40 DUP4 DUP6 SUB SLT ISZERO PUSH2 0x5DAF JUMPI PUSH2 0x5DAE PUSH2 0x5591 JUMP JUMPDEST JUMPDEST PUSH0 PUSH2 0x5DBC DUP6 DUP3 DUP7 ADD PUSH2 0x5612 JUMP JUMPDEST SWAP3 POP POP PUSH1 0x20 DUP4 ADD CALLDATALOAD PUSH8 0xFFFFFFFFFFFFFFFF DUP2 GT ISZERO PUSH2 0x5DDD JUMPI PUSH2 0x5DDC PUSH2 0x5595 JUMP JUMPDEST JUMPDEST PUSH2 0x5DE9 DUP6 DUP3 DUP7 ADD PUSH2 0x5D6C JUMP JUMPDEST SWAP2 POP POP SWAP3 POP SWAP3 SWAP1 POP JUMP JUMPDEST PUSH0 DUP3 DUP3 MSTORE PUSH1 0x20 DUP3 ADD SWAP1 POP SWAP3 SWAP2 POP POP JUMP JUMPDEST PUSH0 PUSH2 0x5E0D DUP3 PUSH2 0x5788 JUMP JUMPDEST PUSH2 0x5E17 DUP2 DUP6 PUSH2 0x5DF3 JUMP JUMPDEST SWAP4 POP PUSH2 0x5E27 DUP2 DUP6 PUSH1 0x20 DUP7 ADD PUSH2 0x57A2 JUMP JUMPDEST PUSH2 0x5E30 DUP2 PUSH2 0x57B0 JUMP JUMPDEST DUP5 ADD SWAP2 POP POP SWAP3 SWAP2 POP POP JUMP JUMPDEST PUSH0 PUSH1 0x20 DUP3 ADD SWAP1 POP DUP2 DUP2 SUB PUSH0 DUP4 ADD MSTORE PUSH2 0x5E53 DUP2 DUP5 PUSH2 0x5E03 JUMP JUMPDEST SWAP1 POP SWAP3 SWAP2 POP POP JUMP JUMPDEST PUSH0 DUP2 MLOAD SWAP1 POP SWAP2 SWAP1 POP JUMP JUMPDEST PUSH0 DUP3 DUP3 MSTORE PUSH1 0x20 DUP3 ADD SWAP1 POP SWAP3 SWAP2 POP POP JUMP JUMPDEST PUSH0 DUP2 SWAP1 POP PUSH1 0x20 DUP3 ADD SWAP1 POP SWAP2 SWAP1 POP JUMP JUMPDEST PUSH1 0x60 DUP3 ADD PUSH0 DUP3 ADD MLOAD PUSH2 0x5E98 PUSH0 DUP6 ADD DUP3 PUSH2 0x5868 JUMP JUMPDEST POP PUSH1 0x20 DUP3 ADD MLOAD PUSH2 0x5EAB PUSH1 0x20 DUP6 ADD DUP3 PUSH2 0x5868 JUMP JUMPDEST POP PUSH1 0x40 DUP3 ADD MLOAD PUSH2 0x5EBE PUSH1 0x40 DUP6 ADD DUP3 PUSH2 0x5868 JUMP JUMPDEST POP POP POP POP JUMP JUMPDEST PUSH0 PUSH2 0x5ECF DUP4 DUP4 PUSH2 0x5E84 JUMP JUMPDEST PUSH1 0x60 DUP4 ADD SWAP1 POP SWAP3 SWAP2 POP POP JUMP JUMPDEST PUSH0 PUSH1 0x20 DUP3 ADD SWAP1 POP SWAP2 SWAP1 POP JUMP JUMPDEST PUSH0 PUSH2 0x5EF1 DUP3 PUSH2 0x5E5B JUMP JUMPDEST PUSH2 0x5EFB DUP2 DUP6 PUSH2 0x5E65 JUMP JUMPDEST SWAP4 POP PUSH2 0x5F06 DUP4 PUSH2 0x5E75 JUMP JUMPDEST DUP1 PUSH0 JUMPDEST DUP4 DUP2 LT ISZERO PUSH2 0x5F36 JUMPI DUP2 MLOAD PUSH2 0x5F1D DUP9 DUP3 PUSH2 0x5EC4 JUMP JUMPDEST SWAP8 POP PUSH2 0x5F28 DUP4 PUSH2 0x5EDB JUMP JUMPDEST SWAP3 POP POP PUSH1 0x1 DUP2 ADD SWAP1 POP PUSH2 0x5F09 JUMP JUMPDEST POP DUP6 SWAP4 POP POP POP POP SWAP3 SWAP2 POP POP JUMP JUMPDEST PUSH0 PUSH1 0x20 DUP3 ADD SWAP1 POP DUP2 DUP2 SUB PUSH0 DUP4 ADD MSTORE PUSH2 0x5F5B DUP2 DUP5 PUSH2 0x5EE7 JUMP JUMPDEST SWAP1 POP SWAP3 SWAP2 POP POP JUMP JUMPDEST PUSH0 DUP2 SWAP1 POP SWAP2 SWAP1 POP JUMP JUMPDEST PUSH0 PUSH2 0x5F86 PUSH2 0x5F81 PUSH2 0x5F7C DUP5 PUSH2 0x5599 JUMP JUMPDEST PUSH2 0x5F63 JUMP JUMPDEST PUSH2 0x5599 JUMP JUMPDEST SWAP1 POP SWAP2 SWAP1 POP JUMP JUMPDEST PUSH0 PUSH2 0x5F97 DUP3 PUSH2 0x5F6C JUMP JUMPDEST SWAP1 POP SWAP2 SWAP1 POP JUMP JUMPDEST PUSH0 PUSH2 0x5FA8 DUP3 PUSH2 0x5F8D JUMP JUMPDEST SWAP1 POP SWAP2 SWAP1 POP JUMP JUMPDEST PUSH2 0x5FB8 DUP2 PUSH2 0x5F9E JUMP JUMPDEST DUP3 MSTORE POP POP JUMP JUMPDEST PUSH0 PUSH1 0x20 DUP3 ADD SWAP1 POP PUSH2 0x5FD1 PUSH0 DUP4 ADD DUP5 PUSH2 0x5FAF JUMP JUMPDEST SWAP3 SWAP2 POP POP JUMP JUMPDEST PUSH0 PUSH1 0x20 DUP3 ADD SWAP1 POP DUP2 DUP2 SUB PUSH0 DUP4 ADD MSTORE PUSH2 0x5FEF DUP2 DUP5 PUSH2 0x5BAB JUMP JUMPDEST SWAP1 POP SWAP3 SWAP2 POP POP JUMP JUMPDEST PUSH0 DUP1 REVERT JUMPDEST PUSH0 DUP1 REVERT JUMPDEST PUSH0 DUP1 DUP4 PUSH1 0x1F DUP5 ADD SLT PUSH2 0x6014 JUMPI PUSH2 0x6013 PUSH2 0x5C6D JUMP JUMPDEST JUMPDEST DUP3 CALLDATALOAD SWAP1 POP PUSH8 0xFFFFFFFFFFFFFFFF DUP2 GT ISZERO PUSH2 0x6031 JUMPI PUSH2 0x6030 PUSH2 0x5FF7 JUMP JUMPDEST JUMPDEST PUSH1 0x20 DUP4 ADD SWAP2 POP DUP4 PUSH1 0x1 DUP3 MUL DUP4 ADD GT ISZERO PUSH2 0x604D JUMPI PUSH2 0x604C PUSH2 0x5FFB JUMP JUMPDEST JUMPDEST SWAP3 POP SWAP3 SWAP1 POP JUMP JUMPDEST PUSH0 DUP1 REVERT JUMPDEST PUSH0 DUP1 REVERT JUMPDEST PUSH0 PUSH1 0x40 DUP3 DUP5 SUB SLT ISZERO PUSH2 0x6071 JUMPI PUSH2 0x6070 PUSH2 0x6054 JUMP JUMPDEST JUMPDEST PUSH2 0x607B PUSH1 0x40 PUSH2 0x5CD3 JUMP JUMPDEST SWAP1 POP PUSH0 PUSH2 0x608A DUP5 DUP3 DUP6 ADD PUSH2 0x5612 JUMP JUMPDEST PUSH0 DUP4 ADD MSTORE POP PUSH1 0x20 PUSH2 0x609D DUP5 DUP3 DUP6 ADD PUSH2 0x5612 JUMP JUMPDEST PUSH1 0x20 DUP4 ADD MSTORE POP SWAP3 SWAP2 POP POP JUMP JUMPDEST PUSH0 DUP1 PUSH0 PUSH1 0x60 DUP5 DUP7 SUB SLT ISZERO PUSH2 0x60C0 JUMPI PUSH2 0x60BF PUSH2 0x5591 JUMP JUMPDEST JUMPDEST PUSH0 DUP5 ADD CALLDATALOAD PUSH8 0xFFFFFFFFFFFFFFFF DUP2 GT ISZERO PUSH2 0x60DD JUMPI PUSH2 0x60DC PUSH2 0x5595 JUMP JUMPDEST JUMPDEST PUSH2 0x60E9 DUP7 DUP3 DUP8 ADD PUSH2 0x5FFF JUMP JUMPDEST SWAP4 POP SWAP4 POP POP PUSH1 0x20 PUSH2 0x60FC DUP7 DUP3 DUP8 ADD PUSH2 0x605C JUMP JUMPDEST SWAP2 POP POP SWAP3 POP SWAP3 POP SWAP3 JUMP JUMPDEST PUSH0 PUSH1 0x60 DUP3 ADD SWAP1 POP PUSH2 0x6119 PUSH0 DUP4 ADD DUP7 PUSH2 0x56B5 JUMP JUMPDEST PUSH2 0x6126 PUSH1 0x20 DUP4 ADD DUP6 PUSH2 0x56B5 JUMP JUMPDEST PUSH2 0x6133 PUSH1 0x40 DUP4 ADD DUP5 PUSH2 0x56B5 JUMP JUMPDEST SWAP5 SWAP4 POP POP POP POP JUMP JUMPDEST PUSH0 PUSH1 0x20 DUP3 DUP5 SUB SLT ISZERO PUSH2 0x6150 JUMPI PUSH2 0x614F PUSH2 0x5591 JUMP JUMPDEST JUMPDEST PUSH0 PUSH2 0x615D DUP5 DUP3 DUP6 ADD PUSH2 0x55DF JUMP JUMPDEST SWAP2 POP POP SWAP3 SWAP2 POP POP JUMP JUMPDEST PUSH0 DUP2 ISZERO ISZERO SWAP1 POP SWAP2 SWAP1 POP JUMP JUMPDEST PUSH2 0x617A DUP2 PUSH2 0x6166 JUMP JUMPDEST DUP3 MSTORE POP POP JUMP JUMPDEST PUSH0 PUSH1 0x20 DUP3 ADD SWAP1 POP PUSH2 0x6193 PUSH0 DUP4 ADD DUP5 PUSH2 0x6171 JUMP JUMPDEST SWAP3 SWAP2 POP POP JUMP JUMPDEST PUSH0 PUSH1 0x20 DUP3 ADD SWAP1 POP DUP2 DUP2 SUB PUSH0 DUP4 ADD MSTORE PUSH2 0x61B1 DUP2 DUP5 PUSH2 0x5B28 JUMP JUMPDEST SWAP1 POP SWAP3 SWAP2 POP POP JUMP JUMPDEST PUSH0 PUSH2 0x61C3 DUP3 PUSH2 0x5F8D JUMP JUMPDEST SWAP1 POP SWAP2 SWAP1 POP JUMP JUMPDEST PUSH2 0x61D3 DUP2 PUSH2 0x61B9 JUMP JUMPDEST DUP3 MSTORE POP POP JUMP JUMPDEST PUSH0 PUSH1 0x20 DUP3 ADD SWAP1 POP PUSH2 0x61EC PUSH0 DUP4 ADD DUP5 PUSH2 0x61CA JUMP JUMPDEST SWAP3 SWAP2 POP POP JUMP JUMPDEST PUSH0 PUSH1 0x40 DUP3 ADD SWAP1 POP PUSH2 0x6205 PUSH0 DUP4 ADD DUP6 PUSH2 0x56B5 JUMP JUMPDEST PUSH2 0x6212 PUSH1 0x20 DUP4 ADD DUP5 PUSH2 0x56B5 JUMP JUMPDEST SWAP4 SWAP3 POP POP POP JUMP JUMPDEST PUSH0 PUSH1 0x20 DUP3 DUP5 SUB SLT ISZERO PUSH2 0x622E JUMPI PUSH2 0x622D PUSH2 0x5591 JUMP JUMPDEST JUMPDEST PUSH0 DUP3 ADD CALLDATALOAD PUSH8 0xFFFFFFFFFFFFFFFF DUP2 GT ISZERO PUSH2 0x624B JUMPI PUSH2 0x624A PUSH2 0x5595 JUMP JUMPDEST JUMPDEST PUSH2 0x6257 DUP5 DUP3 DUP6 ADD PUSH2 0x5D6C JUMP JUMPDEST SWAP2 POP POP SWAP3 SWAP2 POP POP JUMP JUMPDEST PUSH0 PUSH1 0x60 DUP3 ADD SWAP1 POP DUP2 DUP2 SUB PUSH0 DUP4 ADD MSTORE PUSH2 0x6278 DUP2 DUP7 PUSH2 0x5BAB JUMP JUMPDEST SWAP1 POP DUP2 DUP2 SUB PUSH1 0x20 DUP4 ADD MSTORE PUSH2 0x628C DUP2 DUP6 PUSH2 0x5BAB JUMP JUMPDEST SWAP1 POP DUP2 DUP2 SUB PUSH1 0x40 DUP4 ADD MSTORE PUSH2 0x62A0 DUP2 DUP5 PUSH2 0x5BAB JUMP JUMPDEST SWAP1 POP SWAP5 SWAP4 POP POP POP POP JUMP JUMPDEST PUSH0 PUSH1 0x20 DUP3 ADD SWAP1 POP DUP2 DUP2 SUB PUSH0 DUP4 ADD MSTORE PUSH2 0x62C2 DUP2 DUP5 PUSH2 0x59EC JUMP JUMPDEST SWAP1 POP SWAP3 SWAP2 POP POP JUMP JUMPDEST PUSH1 0x2 DUP2 LT PUSH2 0x62D6 JUMPI PUSH0 DUP1 REVERT JUMPDEST POP JUMP JUMPDEST PUSH0 DUP2 CALLDATALOAD SWAP1 POP PUSH2 0x62E7 DUP2 PUSH2 0x62CA JUMP JUMPDEST SWAP3 SWAP2 POP POP JUMP JUMPDEST PUSH2 0x62F6 DUP2 PUSH2 0x6166 JUMP JUMPDEST DUP2 EQ PUSH2 0x6300 JUMPI PUSH0 DUP1 REVERT JUMPDEST POP JUMP JUMPDEST PUSH0 DUP2 CALLDATALOAD SWAP1 POP PUSH2 0x6311 DUP2 PUSH2 0x62ED JUMP JUMPDEST SWAP3 SWAP2 POP POP JUMP JUMPDEST PUSH0 DUP1 PUSH0 DUP1 PUSH0 DUP1 PUSH1 0xC0 DUP8 DUP10 SUB SLT ISZERO PUSH2 0x6331 JUMPI PUSH2 0x6330 PUSH2 0x5591 JUMP JUMPDEST JUMPDEST PUSH0 PUSH2 0x633E DUP10 DUP3 DUP11 ADD PUSH2 0x55DF JUMP JUMPDEST SWAP7 POP POP PUSH1 0x20 PUSH2 0x634F DUP10 DUP3 DUP11 ADD PUSH2 0x5612 JUMP JUMPDEST SWAP6 POP POP PUSH1 0x40 PUSH2 0x6360 DUP10 DUP3 DUP11 ADD PUSH2 0x5612 JUMP JUMPDEST SWAP5 POP POP PUSH1 0x60 PUSH2 0x6371 DUP10 DUP3 DUP11 ADD PUSH2 0x55DF JUMP JUMPDEST SWAP4 POP POP PUSH1 0x80 PUSH2 0x6382 DUP10 DUP3 DUP11 ADD PUSH2 0x62D9 JUMP JUMPDEST SWAP3 POP POP PUSH1 0xA0 PUSH2 0x6393 DUP10 DUP3 DUP11 ADD PUSH2 0x6303 JUMP JUMPDEST SWAP2 POP POP SWAP3 SWAP6 POP SWAP3 SWAP6 POP SWAP3 SWAP6 JUMP JUMPDEST PUSH2 0x63A9 DUP2 PUSH2 0x5673 JUMP JUMPDEST DUP2 EQ PUSH2 0x63B3 JUMPI PUSH0 DUP1 REVERT JUMPDEST POP JUMP JUMPDEST PUSH0 DUP2 CALLDATALOAD SWAP1 POP PUSH2 0x63C4 DUP2 PUSH2 0x63A0 JUMP JUMPDEST SWAP3 SWAP2 POP POP JUMP JUMPDEST PUSH0 PUSH8 0xFFFFFFFFFFFFFFFF DUP3 GT ISZERO PUSH2 0x63E4 JUMPI PUSH2 0x63E3 PUSH2 0x5C75 JUMP JUMPDEST JUMPDEST PUSH1 0x20 DUP3 MUL SWAP1 POP PUSH1 0x20 DUP2 ADD SWAP1 POP SWAP2 SWAP1 POP JUMP JUMPDEST PUSH0 PUSH2 0x6407 PUSH2 0x6402 DUP5 PUSH2 0x63CA JUMP JUMPDEST PUSH2 0x5CD3 JUMP JUMPDEST SWAP1 POP DUP1 DUP4 DUP3 MSTORE PUSH1 0x20 DUP3 ADD SWAP1 POP PUSH1 0x20 DUP5 MUL DUP4 ADD DUP6 DUP2 GT ISZERO PUSH2 0x642A JUMPI PUSH2 0x6429 PUSH2 0x5FFB JUMP JUMPDEST JUMPDEST DUP4 JUMPDEST DUP2 DUP2 LT ISZERO PUSH2 0x6453 JUMPI DUP1 PUSH2 0x643F DUP9 DUP3 PUSH2 0x5612 JUMP JUMPDEST DUP5 MSTORE PUSH1 0x20 DUP5 ADD SWAP4 POP POP PUSH1 0x20 DUP2 ADD SWAP1 POP PUSH2 0x642C JUMP JUMPDEST POP POP POP SWAP4 SWAP3 POP POP POP JUMP JUMPDEST PUSH0 DUP3 PUSH1 0x1F DUP4 ADD SLT PUSH2 0x6471 JUMPI PUSH2 0x6470 PUSH2 0x5C6D JUMP JUMPDEST JUMPDEST DUP2 CALLDATALOAD PUSH2 0x6481 DUP5 DUP3 PUSH1 0x20 DUP7 ADD PUSH2 0x63F5 JUMP JUMPDEST SWAP2 POP POP SWAP3 SWAP2 POP POP JUMP JUMPDEST PUSH0 PUSH1 0xA0 DUP3 DUP5 SUB SLT ISZERO PUSH2 0x649F JUMPI PUSH2 0x649E PUSH2 0x6054 JUMP JUMPDEST JUMPDEST PUSH2 0x64A9 PUSH1 0xA0 PUSH2 0x5CD3 JUMP JUMPDEST SWAP1 POP PUSH0 DUP3 ADD CALLDATALOAD PUSH8 0xFFFFFFFFFFFFFFFF DUP2 GT ISZERO PUSH2 0x64C8 JUMPI PUSH2 0x64C7 PUSH2 0x6058 JUMP JUMPDEST JUMPDEST PUSH2 0x64D4 DUP5 DUP3 DUP6 ADD PUSH2 0x5D6C JUMP JUMPDEST PUSH0 DUP4 ADD MSTORE POP PUSH1 0x20 PUSH2 0x64E7 DUP5 DUP3 DUP6 ADD PUSH2 0x63B6 JUMP JUMPDEST PUSH1 0x20 DUP4 ADD MSTORE POP PUSH1 0x40 PUSH2 0x64FB DUP5 DUP3 DUP6 ADD PUSH2 0x55DF JUMP JUMPDEST PUSH1 0x40 DUP4 ADD MSTORE POP PUSH1 0x60 DUP3 ADD CALLDATALOAD PUSH8 0xFFFFFFFFFFFFFFFF DUP2 GT ISZERO PUSH2 0x651F JUMPI PUSH2 0x651E PUSH2 0x6058 JUMP JUMPDEST JUMPDEST PUSH2 0x652B DUP5 DUP3 DUP6 ADD PUSH2 0x645D JUMP JUMPDEST PUSH1 0x60 DUP4 ADD MSTORE POP PUSH1 0x80 DUP3 ADD CALLDATALOAD PUSH8 0xFFFFFFFFFFFFFFFF DUP2 GT ISZERO PUSH2 0x654F JUMPI PUSH2 0x654E PUSH2 0x6058 JUMP JUMPDEST JUMPDEST PUSH2 0x655B DUP5 DUP3 DUP6 ADD PUSH2 0x645D JUMP JUMPDEST PUSH1 0x80 DUP4 ADD MSTORE POP SWAP3 SWAP2 POP POP JUMP JUMPDEST PUSH0 PUSH1 0x20 DUP3 DUP5 SUB SLT ISZERO PUSH2 0x657C JUMPI PUSH2 0x657B PUSH2 0x5591 JUMP JUMPDEST JUMPDEST PUSH0 DUP3 ADD CALLDATALOAD PUSH8 0xFFFFFFFFFFFFFFFF DUP2 GT ISZERO PUSH2 0x6599 JUMPI PUSH2 0x6598 PUSH2 0x5595 JUMP JUMPDEST JUMPDEST PUSH2 0x65A5 DUP5 DUP3 DUP6 ADD PUSH2 0x648A JUMP JUMPDEST SWAP2 POP POP SWAP3 SWAP2 POP POP JUMP JUMPDEST PUSH0 DUP1 PUSH1 0x40 DUP4 DUP6 SUB SLT ISZERO PUSH2 0x65C4 JUMPI PUSH2 0x65C3 PUSH2 0x5591 JUMP JUMPDEST JUMPDEST PUSH0 DUP4 ADD CALLDATALOAD PUSH8 0xFFFFFFFFFFFFFFFF DUP2 GT ISZERO PUSH2 0x65E1 JUMPI PUSH2 0x65E0 PUSH2 0x5595 JUMP JUMPDEST JUMPDEST PUSH2 0x65ED DUP6 DUP3 DUP7 ADD PUSH2 0x5D6C JUMP JUMPDEST SWAP3 POP POP PUSH1 0x20 PUSH2 0x65FE DUP6 DUP3 DUP7 ADD PUSH2 0x5612 JUMP JUMPDEST SWAP2 POP POP SWAP3 POP SWAP3 SWAP1 POP JUMP JUMPDEST PUSH0 DUP3 DUP3 MSTORE PUSH1 0x20 DUP3 ADD SWAP1 POP SWAP3 SWAP2 POP POP JUMP JUMPDEST PUSH0 PUSH2 0x6622 DUP3 PUSH2 0x5816 JUMP JUMPDEST PUSH2 0x662C DUP2 DUP6 PUSH2 0x6608 JUMP JUMPDEST SWAP4 POP PUSH2 0x663C DUP2 DUP6 PUSH1 0x20 DUP7 ADD PUSH2 0x57A2 JUMP JUMPDEST PUSH2 0x6645 DUP2 PUSH2 0x57B0 JUMP JUMPDEST DUP5 ADD SWAP2 POP POP SWAP3 SWAP2 POP POP JUMP JUMPDEST PUSH0 PUSH1 0xA0 DUP3 ADD SWAP1 POP DUP2 DUP2 SUB PUSH0 DUP4 ADD MSTORE PUSH2 0x6668 DUP2 DUP9 PUSH2 0x5E03 JUMP JUMPDEST SWAP1 POP PUSH2 0x6677 PUSH1 0x20 DUP4 ADD DUP8 PUSH2 0x567F JUMP JUMPDEST PUSH2 0x6684 PUSH1 0x40 DUP4 ADD DUP7 PUSH2 0x5664 JUMP JUMPDEST DUP2 DUP2 SUB PUSH1 0x60 DUP4 ADD MSTORE PUSH2 0x6696 DUP2 DUP6 PUSH2 0x6618 JUMP JUMPDEST SWAP1 POP PUSH2 0x66A5 PUSH1 0x80 DUP4 ADD DUP5 PUSH2 0x56B5 JUMP JUMPDEST SWAP7 SWAP6 POP POP POP POP POP POP JUMP JUMPDEST PUSH0 PUSH2 0x66B9 DUP3 PUSH2 0x5F8D JUMP JUMPDEST SWAP1 POP SWAP2 SWAP1 POP JUMP JUMPDEST PUSH2 0x66C9 DUP2 PUSH2 0x66AF JUMP JUMPDEST DUP3 MSTORE POP POP JUMP JUMPDEST PUSH0 PUSH1 0x20 DUP3 ADD SWAP1 POP PUSH2 0x66E2 PUSH0 DUP4 ADD DUP5 PUSH2 0x66C0 JUMP JUMPDEST SWAP3 SWAP2 POP POP JUMP JUMPDEST PUSH0 DUP2 MLOAD SWAP1 POP SWAP2 SWAP1 POP JUMP JUMPDEST PUSH0 DUP3 DUP3 MSTORE PUSH1 0x20 DUP3 ADD SWAP1 POP SWAP3 SWAP2 POP POP JUMP JUMPDEST PUSH0 DUP2 SWAP1 POP PUSH1 0x20 DUP3 ADD SWAP1 POP SWAP2 SWAP1 POP JUMP JUMPDEST PUSH1 0x40 DUP3 ADD PUSH0 DUP3 ADD MLOAD PUSH2 0x6725 PUSH0 DUP6 ADD DUP3 PUSH2 0x5868 JUMP JUMPDEST POP PUSH1 0x20 DUP3 ADD MLOAD PUSH2 0x6738 PUSH1 0x20 DUP6 ADD DUP3 PUSH2 0x5868 JUMP JUMPDEST POP POP POP POP JUMP JUMPDEST PUSH0 PUSH2 0x6749 DUP4 DUP4 PUSH2 0x6711 JUMP JUMPDEST PUSH1 0x40 DUP4 ADD SWAP1 POP SWAP3 SWAP2 POP POP JUMP JUMPDEST PUSH0 PUSH1 0x20 DUP3 ADD SWAP1 POP SWAP2 SWAP1 POP JUMP JUMPDEST PUSH0 PUSH2 0x676B DUP3 PUSH2 0x66E8 JUMP JUMPDEST PUSH2 0x6775 DUP2 DUP6 PUSH2 0x66F2 JUMP JUMPDEST SWAP4 POP PUSH2 0x6780 DUP4 PUSH2 0x6702 JUMP JUMPDEST DUP1 PUSH0 JUMPDEST DUP4 DUP2 LT ISZERO PUSH2 0x67B0 JUMPI DUP2 MLOAD PUSH2 0x6797 DUP9 DUP3 PUSH2 0x673E JUMP JUMPDEST SWAP8 POP PUSH2 0x67A2 DUP4 PUSH2 0x6755 JUMP JUMPDEST SWAP3 POP POP PUSH1 0x1 DUP2 ADD SWAP1 POP PUSH2 0x6783 JUMP JUMPDEST POP DUP6 SWAP4 POP POP POP POP SWAP3 SWAP2 POP POP JUMP JUMPDEST PUSH0 PUSH1 0x20 DUP3 ADD SWAP1 POP DUP2 DUP2 SUB PUSH0 DUP4 ADD MSTORE PUSH2 0x67D5 DUP2 DUP5 PUSH2 0x6761 JUMP JUMPDEST SWAP1 POP SWAP3 SWAP2 POP POP JUMP JUMPDEST PUSH0 DUP2 MLOAD SWAP1 POP SWAP2 SWAP1 POP JUMP JUMPDEST PUSH0 DUP3 DUP3 MSTORE PUSH1 0x20 DUP3 ADD SWAP1 POP SWAP3 SWAP2 POP POP JUMP JUMPDEST PUSH0 DUP2 SWAP1 POP PUSH1 0x20 DUP3 ADD SWAP1 POP SWAP2 SWAP1 POP JUMP JUMPDEST PUSH0 DUP2 MLOAD SWAP1 POP SWAP2 SWAP1 POP JUMP JUMPDEST PUSH0 DUP3 DUP3 MSTORE PUSH1 0x20 DUP3 ADD SWAP1 POP SWAP3 SWAP2 POP POP JUMP JUMPDEST PUSH0 DUP2 SWAP1 POP PUSH1 0x20 DUP3 ADD SWAP1 POP SWAP2 SWAP1 POP JUMP JUMPDEST PUSH0 DUP2 SWAP1 POP SWAP2 SWAP1 POP JUMP JUMPDEST PUSH2 0x6841 DUP2 PUSH2 0x682F JUMP JUMPDEST DUP3 MSTORE POP POP JUMP JUMPDEST PUSH0 PUSH2 0x6852 DUP4 DUP4 PUSH2 0x6838 JUMP JUMPDEST PUSH1 0x20 DUP4 ADD SWAP1 POP SWAP3 SWAP2 POP POP JUMP JUMPDEST PUSH0 PUSH1 0x20 DUP3 ADD SWAP1 POP SWAP2 SWAP1 POP JUMP JUMPDEST PUSH0 PUSH2 0x6874 DUP3 PUSH2 0x6806 JUMP JUMPDEST PUSH2 0x687E DUP2 DUP6 PUSH2 0x6810 JUMP JUMPDEST SWAP4 POP PUSH2 0x6889 DUP4 PUSH2 0x6820 JUMP JUMPDEST DUP1 PUSH0 JUMPDEST DUP4 DUP2 LT ISZERO PUSH2 0x68B9 JUMPI DUP2 MLOAD PUSH2 0x68A0 DUP9 DUP3 PUSH2 0x6847 JUMP JUMPDEST SWAP8 POP PUSH2 0x68AB DUP4 PUSH2 0x685E JUMP JUMPDEST SWAP3 POP POP PUSH1 0x1 DUP2 ADD SWAP1 POP PUSH2 0x688C JUMP JUMPDEST POP DUP6 SWAP4 POP POP POP POP SWAP3 SWAP2 POP POP JUMP JUMPDEST PUSH0 PUSH2 0x260 DUP4 ADD PUSH0 DUP4 ADD MLOAD PUSH2 0x68DC PUSH0 DUP7 ADD DUP3 PUSH2 0x5868 JUMP JUMPDEST POP PUSH1 0x20 DUP4 ADD MLOAD PUSH2 0x68EF PUSH1 0x20 DUP7 ADD DUP3 PUSH2 0x5807 JUMP JUMPDEST POP PUSH1 0x40 DUP4 ADD MLOAD PUSH2 0x6902 PUSH1 0x40 DUP7 ADD DUP3 PUSH2 0x5807 JUMP JUMPDEST POP PUSH1 0x60 DUP4 ADD MLOAD PUSH2 0x6915 PUSH1 0x60 DUP7 ADD DUP3 PUSH2 0x5868 JUMP JUMPDEST POP PUSH1 0x80 DUP4 ADD MLOAD DUP5 DUP3 SUB PUSH1 0x80 DUP7 ADD MSTORE PUSH2 0x692D DUP3 DUP3 PUSH2 0x58C3 JUMP JUMPDEST SWAP2 POP POP PUSH1 0xA0 DUP4 ADD MLOAD DUP5 DUP3 SUB PUSH1 0xA0 DUP7 ADD MSTORE PUSH2 0x6947 DUP3 DUP3 PUSH2 0x58C3 JUMP JUMPDEST SWAP2 POP POP PUSH1 0xC0 DUP4 ADD MLOAD DUP5 DUP3 SUB PUSH1 0xC0 DUP7 ADD MSTORE PUSH2 0x6961 DUP3 DUP3 PUSH2 0x686A JUMP JUMPDEST SWAP2 POP POP PUSH1 0xE0 DUP4 ADD MLOAD DUP5 DUP3 SUB PUSH1 0xE0 DUP7 ADD MSTORE PUSH2 0x697B DUP3 DUP3 PUSH2 0x58C3 JUMP JUMPDEST SWAP2 POP POP PUSH2 0x100 DUP4 ADD MLOAD DUP5 DUP3 SUB PUSH2 0x100 DUP7 ADD MSTORE PUSH2 0x6997 DUP3 DUP3 PUSH2 0x58C3 JUMP JUMPDEST SWAP2 POP POP PUSH2 0x120 DUP4 ADD MLOAD DUP5 DUP3 SUB PUSH2 0x120 DUP7 ADD MSTORE PUSH2 0x69B3 DUP3 DUP3 PUSH2 0x58C3 JUMP JUMPDEST SWAP2 POP POP PUSH2 0x140 DUP4 ADD MLOAD DUP5 DUP3 SUB PUSH2 0x140 DUP7 ADD MSTORE PUSH2 0x69CF DUP3 DUP3 PUSH2 0x58C3 JUMP JUMPDEST SWAP2 POP POP PUSH2 0x160 DUP4 ADD MLOAD PUSH2 0x69E6 PUSH2 0x160 DUP7 ADD DUP3 PUSH2 0x5868 JUMP JUMPDEST POP PUSH2 0x180 DUP4 ADD MLOAD PUSH2 0x69FB PUSH2 0x180 DUP7 ADD DUP3 PUSH2 0x57F8 JUMP JUMPDEST POP PUSH2 0x1A0 DUP4 ADD MLOAD PUSH2 0x6A10 PUSH2 0x1A0 DUP7 ADD DUP3 PUSH2 0x57F8 JUMP JUMPDEST POP PUSH2 0x1C0 DUP4 ADD MLOAD PUSH2 0x6A25 PUSH2 0x1C0 DUP7 ADD DUP3 PUSH2 0x6838 JUMP JUMPDEST POP PUSH2 0x1E0 DUP4 ADD MLOAD PUSH2 0x6A3A PUSH2 0x1E0 DUP7 ADD DUP3 PUSH2 0x5868 JUMP JUMPDEST POP PUSH2 0x200 DUP4 ADD MLOAD PUSH2 0x6A4F PUSH2 0x200 DUP7 ADD DUP3 PUSH2 0x5868 JUMP JUMPDEST POP PUSH2 0x220 DUP4 ADD MLOAD PUSH2 0x6A64 PUSH2 0x220 DUP7 ADD DUP3 PUSH2 0x57F8 JUMP JUMPDEST POP PUSH2 0x240 DUP4 ADD MLOAD PUSH2 0x6A79 PUSH2 0x240 DUP7 ADD DUP3 PUSH2 0x5868 JUMP JUMPDEST POP DUP1 SWAP2 POP POP SWAP3 SWAP2 POP POP JUMP JUMPDEST PUSH0 PUSH2 0x6A8F DUP4 DUP4 PUSH2 0x68C6 JUMP JUMPDEST SWAP1 POP SWAP3 SWAP2 POP POP JUMP JUMPDEST PUSH0 PUSH1 0x20 DUP3 ADD SWAP1 POP SWAP2 SWAP1 POP JUMP JUMPDEST PUSH0 PUSH2 0x6AAD DUP3 PUSH2 0x67DD JUMP JUMPDEST PUSH2 0x6AB7 DUP2 DUP6 PUSH2 0x67E7 JUMP JUMPDEST SWAP4 POP DUP4 PUSH1 0x20 DUP3 MUL DUP6 ADD PUSH2 0x6AC9 DUP6 PUSH2 0x67F7 JUMP JUMPDEST DUP1 PUSH0 JUMPDEST DUP6 DUP2 LT ISZERO PUSH2 0x6B04 JUMPI DUP5 DUP5 SUB DUP10 MSTORE DUP2 MLOAD PUSH2 0x6AE5 DUP6 DUP3 PUSH2 0x6A84 JUMP JUMPDEST SWAP5 POP PUSH2 0x6AF0 DUP4 PUSH2 0x6A97 JUMP JUMPDEST SWAP3 POP PUSH1 0x20 DUP11 ADD SWAP10 POP POP PUSH1 0x1 DUP2 ADD SWAP1 POP PUSH2 0x6ACC JUMP JUMPDEST POP DUP3 SWAP8 POP DUP8 SWAP6 POP POP POP POP POP POP SWAP3 SWAP2 POP POP JUMP JUMPDEST PUSH0 DUP2 MLOAD SWAP1 POP SWAP2 SWAP1 POP JUMP JUMPDEST PUSH0 DUP3 DUP3 MSTORE PUSH1 0x20 DUP3 ADD SWAP1 POP SWAP3 SWAP2 POP POP JUMP JUMPDEST PUSH0 DUP2 SWAP1 POP PUSH1 0x20 DUP3 ADD SWAP1 POP SWAP2 SWAP1 POP JUMP JUMPDEST PUSH1 0x60 DUP3 ADD PUSH0 DUP3 ADD MLOAD PUSH2 0x6B53 PUSH0 DUP6 ADD DUP3 PUSH2 0x57F8 JUMP JUMPDEST POP PUSH1 0x20 DUP3 ADD MLOAD PUSH2 0x6B66 PUSH1 0x20 DUP6 ADD DUP3 PUSH2 0x5868 JUMP JUMPDEST POP PUSH1 0x40 DUP3 ADD MLOAD PUSH2 0x6B79 PUSH1 0x40 DUP6 ADD DUP3 PUSH2 0x5807 JUMP JUMPDEST POP POP POP POP JUMP JUMPDEST PUSH0 PUSH2 0x6B8A DUP4 DUP4 PUSH2 0x6B3F JUMP JUMPDEST PUSH1 0x60 DUP4 ADD SWAP1 POP SWAP3 SWAP2 POP POP JUMP JUMPDEST PUSH0 PUSH1 0x20 DUP3 ADD SWAP1 POP SWAP2 SWAP1 POP JUMP JUMPDEST PUSH0 PUSH2 0x6BAC DUP3 PUSH2 0x6B16 JUMP JUMPDEST PUSH2 0x6BB6 DUP2 DUP6 PUSH2 0x6B20 JUMP JUMPDEST SWAP4 POP PUSH2 0x6BC1 DUP4 PUSH2 0x6B30 JUMP JUMPDEST DUP1 PUSH0 JUMPDEST DUP4 DUP2 LT ISZERO PUSH2 0x6BF1 JUMPI DUP2 MLOAD PUSH2 0x6BD8 DUP9 DUP3 PUSH2 0x6B7F JUMP JUMPDEST SWAP8 POP PUSH2 0x6BE3 DUP4 PUSH2 0x6B96 JUMP JUMPDEST SWAP3 POP POP PUSH1 0x1 DUP2 ADD SWAP1 POP PUSH2 0x6BC4 JUMP JUMPDEST POP DUP6 SWAP4 POP POP POP POP SWAP3 SWAP2 POP POP JUMP JUMPDEST PUSH0 PUSH1 0x60 DUP3 ADD SWAP1 POP DUP2 DUP2 SUB PUSH0 DUP4 ADD MSTORE PUSH2 0x6C16 DUP2 DUP7 PUSH2 0x6AA3 JUMP JUMPDEST SWAP1 POP DUP2 DUP2 SUB PUSH1 0x20 DUP4 ADD MSTORE PUSH2 0x6C2A DUP2 DUP6 PUSH2 0x6BA2 JUMP JUMPDEST SWAP1 POP DUP2 DUP2 SUB PUSH1 0x40 DUP4 ADD MSTORE PUSH2 0x6C3E DUP2 DUP5 PUSH2 0x6761 JUMP JUMPDEST SWAP1 POP SWAP5 SWAP4 POP POP POP POP JUMP JUMPDEST PUSH0 PUSH1 0x80 DUP3 ADD SWAP1 POP DUP2 DUP2 SUB PUSH0 DUP4 ADD MSTORE PUSH2 0x6C60 DUP2 DUP8 PUSH2 0x59EC JUMP JUMPDEST SWAP1 POP PUSH2 0x6C6F PUSH1 0x20 DUP4 ADD DUP7 PUSH2 0x56B5 JUMP JUMPDEST PUSH2 0x6C7C PUSH1 0x40 DUP4 ADD DUP6 PUSH2 0x56B5 JUMP JUMPDEST DUP2 DUP2 SUB PUSH1 0x60 DUP4 ADD MSTORE PUSH2 0x6C8E DUP2 DUP5 PUSH2 0x5B28 JUMP JUMPDEST SWAP1 POP SWAP6 SWAP5 POP POP POP POP POP JUMP JUMPDEST PUSH0 DUP1 PUSH0 DUP1 PUSH1 0x80 DUP6 DUP8 SUB SLT ISZERO PUSH2 0x6CB1 JUMPI PUSH2 0x6CB0 PUSH2 0x5591 JUMP JUMPDEST JUMPDEST PUSH0 PUSH2 0x6CBE DUP8 DUP3 DUP9 ADD PUSH2 0x55DF JUMP JUMPDEST SWAP5 POP POP PUSH1 0x20 PUSH2 0x6CCF DUP8 DUP3 DUP9 ADD PUSH2 0x5612 JUMP JUMPDEST SWAP4 POP POP PUSH1 0x40 PUSH2 0x6CE0 DUP8 DUP3 DUP9 ADD PUSH2 0x55DF JUMP JUMPDEST SWAP3 POP POP PUSH1 0x60 PUSH2 0x6CF1 DUP8 DUP3 DUP9 ADD PUSH2 0x6303 JUMP JUMPDEST SWAP2 POP POP SWAP3 SWAP6 SWAP2 SWAP5 POP SWAP3 POP JUMP JUMPDEST PUSH0 DUP2 MLOAD SWAP1 POP SWAP2 SWAP1 POP JUMP JUMPDEST PUSH0 DUP3 DUP3 MSTORE PUSH1 0x20 DUP3 ADD SWAP1 POP SWAP3 SWAP2 POP POP JUMP JUMPDEST PUSH0 DUP2 SWAP1 POP PUSH1 0x20 DUP3 ADD SWAP1 POP SWAP2 SWAP1 POP JUMP JUMPDEST PUSH1 0xA0 DUP3 ADD PUSH0 DUP3 ADD MLOAD PUSH2 0x6D3A PUSH0 DUP6 ADD DUP3 PUSH2 0x5868 JUMP JUMPDEST POP PUSH1 0x20 DUP3 ADD MLOAD PUSH2 0x6D4D PUSH1 0x20 DUP6 ADD DUP3 PUSH2 0x5868 JUMP JUMPDEST POP PUSH1 0x40 DUP3 ADD MLOAD PUSH2 0x6D60 PUSH1 0x40 DUP6 ADD DUP3 PUSH2 0x5868 JUMP JUMPDEST POP PUSH1 0x60 DUP3 ADD MLOAD PUSH2 0x6D73 PUSH1 0x60 DUP6 ADD DUP3 PUSH2 0x6838 JUMP JUMPDEST POP PUSH1 0x80 DUP3 ADD MLOAD PUSH2 0x6D86 PUSH1 0x80 DUP6 ADD DUP3 PUSH2 0x5868 JUMP JUMPDEST POP POP POP POP JUMP JUMPDEST PUSH0 PUSH2 0x6D97 DUP4 DUP4 PUSH2 0x6D26 JUMP JUMPDEST PUSH1 0xA0 DUP4 ADD SWAP1 POP SWAP3 SWAP2 POP POP JUMP JUMPDEST PUSH0 PUSH1 0x20 DUP3 ADD SWAP1 POP SWAP2 SWAP1 POP JUMP JUMPDEST PUSH0 PUSH2 0x6DB9 DUP3 PUSH2 0x6CFD JUMP JUMPDEST PUSH2 0x6DC3 DUP2 DUP6 PUSH2 0x6D07 JUMP JUMPDEST SWAP4 POP PUSH2 0x6DCE DUP4 PUSH2 0x6D17 JUMP JUMPDEST DUP1 PUSH0 JUMPDEST DUP4 DUP2 LT ISZERO PUSH2 0x6DFE JUMPI DUP2 MLOAD PUSH2 0x6DE5 DUP9 DUP3 PUSH2 0x6D8C JUMP JUMPDEST SWAP8 POP PUSH2 0x6DF0 DUP4 PUSH2 0x6DA3 JUMP JUMPDEST SWAP3 POP POP PUSH1 0x1 DUP2 ADD SWAP1 POP PUSH2 0x6DD1 JUMP JUMPDEST POP DUP6 SWAP4 POP POP POP POP SWAP3 SWAP2 POP POP JUMP JUMPDEST PUSH0 PUSH1 0x60 DUP4 ADD PUSH0 DUP4 ADD MLOAD PUSH2 0x6E20 PUSH0 DUP7 ADD DUP3 PUSH2 0x5868 JUMP JUMPDEST POP PUSH1 0x20 DUP4 ADD MLOAD PUSH2 0x6E33 PUSH1 0x20 DUP7 ADD DUP3 PUSH2 0x5807 JUMP JUMPDEST POP PUSH1 0x40 DUP4 ADD MLOAD DUP5 DUP3 SUB PUSH1 0x40 DUP7 ADD MSTORE PUSH2 0x6E4B DUP3 DUP3 PUSH2 0x6DAF JUMP JUMPDEST SWAP2 POP POP DUP1 SWAP2 POP POP SWAP3 SWAP2 POP POP JUMP JUMPDEST PUSH0 DUP2 MLOAD SWAP1 POP SWAP2 SWAP1 POP JUMP JUMPDEST PUSH0 DUP3 DUP3 MSTORE PUSH1 0x20 DUP3 ADD SWAP1 POP SWAP3 SWAP2 POP POP JUMP JUMPDEST PUSH0 DUP2 SWAP1 POP PUSH1 0x20 DUP3 ADD SWAP1 POP SWAP2 SWAP1 POP JUMP JUMPDEST PUSH1 0x40 DUP3 ADD PUSH0 DUP3 ADD MLOAD PUSH2 0x6E95 PUSH0 DUP6 ADD DUP3 PUSH2 0x5868 JUMP JUMPDEST POP PUSH1 0x20 DUP3 ADD MLOAD PUSH2 0x6EA8 PUSH1 0x20 DUP6 ADD DUP3 PUSH2 0x5868 JUMP JUMPDEST POP POP POP POP JUMP JUMPDEST PUSH0 PUSH2 0x6EB9 DUP4 DUP4 PUSH2 0x6E81 JUMP JUMPDEST PUSH1 0x40 DUP4 ADD SWAP1 POP SWAP3 SWAP2 POP POP JUMP JUMPDEST PUSH0 PUSH1 0x20 DUP3 ADD SWAP1 POP SWAP2 SWAP1 POP JUMP JUMPDEST PUSH0 PUSH2 0x6EDB DUP3 PUSH2 0x6E58 JUMP JUMPDEST PUSH2 0x6EE5 DUP2 DUP6 PUSH2 0x6E62 JUMP JUMPDEST SWAP4 POP PUSH2 0x6EF0 DUP4 PUSH2 0x6E72 JUMP JUMPDEST DUP1 PUSH0 JUMPDEST DUP4 DUP2 LT ISZERO PUSH2 0x6F20 JUMPI DUP2 MLOAD PUSH2 0x6F07 DUP9 DUP3 PUSH2 0x6EAE JUMP JUMPDEST SWAP8 POP PUSH2 0x6F12 DUP4 PUSH2 0x6EC5 JUMP JUMPDEST SWAP3 POP POP PUSH1 0x1 DUP2 ADD SWAP1 POP PUSH2 0x6EF3 JUMP JUMPDEST POP DUP6 SWAP4 POP POP POP POP SWAP3 SWAP2 POP POP JUMP JUMPDEST PUSH0 PUSH1 0x60 DUP3 ADD SWAP1 POP DUP2 DUP2 SUB PUSH0 DUP4 ADD MSTORE PUSH2 0x6F45 DUP2 DUP7 PUSH2 0x6AA3 JUMP JUMPDEST SWAP1 POP DUP2 DUP2 SUB PUSH1 0x20 DUP4 ADD MSTORE PUSH2 0x6F59 DUP2 DUP6 PUSH2 0x6E0B JUMP JUMPDEST SWAP1 POP DUP2 DUP2 SUB PUSH1 0x40 DUP4 ADD MSTORE PUSH2 0x6F6D DUP2 DUP5 PUSH2 0x6ED1 JUMP JUMPDEST SWAP1 POP SWAP5 SWAP4 POP POP POP POP JUMP JUMPDEST PUSH32 0x7B2266726F6D223A202245636F6D50726F647563742E736F6C222C22636F6465 PUSH0 DUP3 ADD MSTORE PUSH32 0x223A2035332C20226D657373616765223A2022596F7520617265206E6F742061 PUSH1 0x20 DUP3 ADD MSTORE PUSH32 0x6C6C6F7765642E227D0000000000000000000000000000000000000000000000 PUSH1 0x40 DUP3 ADD MSTORE POP JUMP JUMPDEST PUSH0 PUSH2 0x6FF7 PUSH1 0x49 DUP4 PUSH2 0x5DF3 JUMP JUMPDEST SWAP2 POP PUSH2 0x7002 DUP3 PUSH2 0x6F77 JUMP JUMPDEST PUSH1 0x60 DUP3 ADD SWAP1 POP SWAP2 SWAP1 POP JUMP JUMPDEST PUSH0 PUSH1 0x20 DUP3 ADD SWAP1 POP DUP2 DUP2 SUB PUSH0 DUP4 ADD MSTORE PUSH2 0x7024 DUP2 PUSH2 0x6FEB JUMP JUMPDEST SWAP1 POP SWAP2 SWAP1 POP JUMP JUMPDEST PUSH0 DUP2 SWAP1 POP SWAP3 SWAP2 POP POP JUMP JUMPDEST PUSH32 0x7B2266726F6D223A202245636F6D496E666F2E736F6C222C0000000000000000 PUSH0 DUP3 ADD MSTORE POP JUMP JUMPDEST PUSH0 PUSH2 0x7069 PUSH1 0x18 DUP4 PUSH2 0x702B JUMP JUMPDEST SWAP2 POP PUSH2 0x7074 DUP3 PUSH2 0x7035 JUMP JUMPDEST PUSH1 0x18 DUP3 ADD SWAP1 POP SWAP2 SWAP1 POP JUMP JUMPDEST PUSH32 0x22636F6465223A20000000000000000000000000000000000000000000000000 PUSH0 DUP3 ADD MSTORE POP JUMP JUMPDEST PUSH0 PUSH2 0x70B3 PUSH1 0x8 DUP4 PUSH2 0x702B JUMP JUMPDEST SWAP2 POP PUSH2 0x70BE DUP3 PUSH2 0x707F JUMP JUMPDEST PUSH1 0x8 DUP3 ADD SWAP1 POP SWAP2 SWAP1 POP JUMP JUMPDEST PUSH0 PUSH2 0x70D3 DUP3 PUSH2 0x5788 JUMP JUMPDEST PUSH2 0x70DD DUP2 DUP6 PUSH2 0x702B JUMP JUMPDEST SWAP4 POP PUSH2 0x70ED DUP2 DUP6 PUSH1 0x20 DUP7 ADD PUSH2 0x57A2 JUMP JUMPDEST DUP1 DUP5 ADD SWAP2 POP POP SWAP3 SWAP2 POP POP JUMP JUMPDEST PUSH32 0x2C20000000000000000000000000000000000000000000000000000000000000 PUSH0 DUP3 ADD MSTORE POP JUMP JUMPDEST PUSH0 PUSH2 0x712D PUSH1 0x2 DUP4 PUSH2 0x702B JUMP JUMPDEST SWAP2 POP PUSH2 0x7138 DUP3 PUSH2 0x70F9 JUMP JUMPDEST PUSH1 0x2 DUP3 ADD SWAP1 POP SWAP2 SWAP1 POP JUMP JUMPDEST PUSH32 0x226D657373616765223A20220000000000000000000000000000000000000000 PUSH0 DUP3 ADD MSTORE POP JUMP JUMPDEST PUSH0 PUSH2 0x7177 PUSH1 0xC DUP4 PUSH2 0x702B JUMP JUMPDEST SWAP2 POP PUSH2 0x7182 DUP3 PUSH2 0x7143 JUMP JUMPDEST PUSH1 0xC DUP3 ADD SWAP1 POP SWAP2 SWAP1 POP JUMP JUMPDEST PUSH32 0x227D000000000000000000000000000000000000000000000000000000000000 PUSH0 DUP3 ADD MSTORE POP JUMP JUMPDEST PUSH0 PUSH2 0x71C1 PUSH1 0x2 DUP4 PUSH2 0x702B JUMP JUMPDEST SWAP2 POP PUSH2 0x71CC DUP3 PUSH2 0x718D JUMP JUMPDEST PUSH1 0x2 DUP3 ADD SWAP1 POP SWAP2 SWAP1 POP JUMP JUMPDEST PUSH0 PUSH2 0x71E1 DUP3 PUSH2 0x705D JUMP JUMPDEST SWAP2 POP PUSH2 0x71EC DUP3 PUSH2 0x70A7 JUMP JUMPDEST SWAP2 POP PUSH2 0x71F8 DUP3 DUP6 PUSH2 0x70C9 JUMP JUMPDEST SWAP2 POP PUSH2 0x7203 DUP3 PUSH2 0x7121 JUMP JUMPDEST SWAP2 POP PUSH2 0x720E DUP3 PUSH2 0x716B JUMP JUMPDEST SWAP2 POP PUSH2 0x721A DUP3 DUP5 PUSH2 0x70C9 JUMP JUMPDEST SWAP2 POP PUSH2 0x7225 DUP3 PUSH2 0x71B5 JUMP JUMPDEST SWAP2 POP DUP2 SWAP1 POP SWAP4 SWAP3 POP POP POP JUMP JUMPDEST PUSH32 0x4E487B7100000000000000000000000000000000000000000000000000000000 PUSH0 MSTORE PUSH1 0x11 PUSH1 0x4 MSTORE PUSH1 0x24 PUSH0 REVERT JUMPDEST PUSH0 PUSH2 0x7268 DUP3 PUSH2 0x55F3 JUMP JUMPDEST SWAP2 POP PUSH32 0xFFFFFFFFFFFFFFFFFFFFFFFFFFFFFFFFFFFFFFFFFFFFFFFFFFFFFFFFFFFFFFFF DUP3 SUB PUSH2 0x729A JUMPI PUSH2 0x7299 PUSH2 0x7231 JUMP JUMPDEST JUMPDEST PUSH1 0x1 DUP3 ADD SWAP1 POP SWAP2 SWAP1 POP JUMP JUMPDEST PUSH0 PUSH2 0x72B0 DUP4 DUP6 PUSH2 0x702B JUMP JUMPDEST SWAP4 POP PUSH2 0x72BD DUP4 DUP6 DUP5 PUSH2 0x5D1D JUMP JUMPDEST DUP3 DUP5 ADD SWAP1 POP SWAP4 SWAP3 POP POP POP JUMP JUMPDEST PUSH0 PUSH2 0x72D5 DUP3 DUP5 DUP7 PUSH2 0x72A5 JUMP JUMPDEST SWAP2 POP DUP2 SWAP1 POP SWAP4 SWAP3 POP POP POP JUMP JUMPDEST PUSH32 0x7B2266726F6D223A202245636F6D50726F647563742E736F6C222C22636F6465 PUSH0 DUP3 ADD MSTORE PUSH32 0x223A2035352C20226D657373616765223A2022596F7520617265206E6F742061 PUSH1 0x20 DUP3 ADD MSTORE PUSH32 0x6C6C6F7765642E227D0000000000000000000000000000000000000000000000 PUSH1 0x40 DUP3 ADD MSTORE POP JUMP JUMPDEST PUSH0 PUSH2 0x7361 PUSH1 0x49 DUP4 PUSH2 0x5DF3 JUMP JUMPDEST SWAP2 POP PUSH2 0x736C DUP3 PUSH2 0x72E1 JUMP JUMPDEST PUSH1 0x60 DUP3 ADD SWAP1 POP SWAP2 SWAP1 POP JUMP JUMPDEST PUSH0 PUSH1 0x20 DUP3 ADD SWAP1 POP DUP2 DUP2 SUB PUSH0 DUP4 ADD MSTORE PUSH2 0x738E DUP2 PUSH2 0x7355 JUMP JUMPDEST SWAP1 POP SWAP2 SWAP1 POP JUMP JUMPDEST PUSH32 0x4E487B7100000000000000000000000000000000000000000000000000000000 PUSH0 MSTORE PUSH1 0x32 PUSH1 0x4 MSTORE PUSH1 0x24 PUSH0 REVERT JUMPDEST PUSH0 PUSH2 0x73CC DUP3 PUSH2 0x5673 JUMP JUMPDEST SWAP2 POP PUSH1 0xFF DUP3 SUB PUSH2 0x73DF JUMPI PUSH2 0x73DE PUSH2 0x7231 JUMP JUMPDEST JUMPDEST PUSH1 0x1 DUP3 ADD SWAP1 POP SWAP2 SWAP1 POP JUMP JUMPDEST PUSH32 0x4E487B7100000000000000000000000000000000000000000000000000000000 PUSH0 MSTORE PUSH1 0x22 PUSH1 0x4 MSTORE PUSH1 0x24 PUSH0 REVERT JUMPDEST PUSH0 PUSH1 0x2 DUP3 DIV SWAP1 POP PUSH1 0x1 DUP3 AND DUP1 PUSH2 0x742E JUMPI PUSH1 0x7F DUP3 AND SWAP2 POP JUMPDEST PUSH1 0x20 DUP3 LT DUP2 SUB PUSH2 0x7441 JUMPI PUSH2 0x7440 PUSH2 0x73EA JUMP JUMPDEST JUMPDEST POP SWAP2 SWAP1 POP JUMP JUMPDEST PUSH0 DUP2 MLOAD SWAP1 POP PUSH2 0x7455 DUP2 PUSH2 0x55FC JUMP JUMPDEST SWAP3 SWAP2 POP POP JUMP JUMPDEST PUSH0 PUSH2 0x746D PUSH2 0x7468 DUP5 PUSH2 0x5CED JUMP JUMPDEST PUSH2 0x5CD3 JUMP JUMPDEST SWAP1 POP DUP3 DUP2 MSTORE PUSH1 0x20 DUP2 ADD DUP5 DUP5 DUP5 ADD GT ISZERO PUSH2 0x7489 JUMPI PUSH2 0x7488 PUSH2 0x5C71 JUMP JUMPDEST JUMPDEST PUSH2 0x7494 DUP5 DUP3 DUP6 PUSH2 0x57A2 JUMP JUMPDEST POP SWAP4 SWAP3 POP POP POP JUMP JUMPDEST PUSH0 DUP3 PUSH1 0x1F DUP4 ADD SLT PUSH2 0x74B0 JUMPI PUSH2 0x74AF PUSH2 0x5C6D JUMP JUMPDEST JUMPDEST DUP2 MLOAD PUSH2 0x74C0 DUP5 DUP3 PUSH1 0x20 DUP7 ADD PUSH2 0x745B JUMP JUMPDEST SWAP2 POP POP SWAP3 SWAP2 POP POP JUMP JUMPDEST PUSH0 PUSH2 0x74DB PUSH2 0x74D6 DUP5 PUSH2 0x63CA JUMP JUMPDEST PUSH2 0x5CD3 JUMP JUMPDEST SWAP1 POP DUP1 DUP4 DUP3 MSTORE PUSH1 0x20 DUP3 ADD SWAP1 POP PUSH1 0x20 DUP5 MUL DUP4 ADD DUP6 DUP2 GT ISZERO PUSH2 0x74FE JUMPI PUSH2 0x74FD PUSH2 0x5FFB JUMP JUMPDEST JUMPDEST DUP4 JUMPDEST DUP2 DUP2 LT ISZERO PUSH2 0x7527 JUMPI DUP1 PUSH2 0x7513 DUP9 DUP3 PUSH2 0x7447 JUMP JUMPDEST DUP5 MSTORE PUSH1 0x20 DUP5 ADD SWAP4 POP POP PUSH1 0x20 DUP2 ADD SWAP1 POP PUSH2 0x7500 JUMP JUMPDEST POP POP POP SWAP4 SWAP3 POP POP POP JUMP JUMPDEST PUSH0 DUP3 PUSH1 0x1F DUP4 ADD SLT PUSH2 0x7545 JUMPI PUSH2 0x7544 PUSH2 0x5C6D JUMP JUMPDEST JUMPDEST DUP2 MLOAD PUSH2 0x7555 DUP5 DUP3 PUSH1 0x20 DUP7 ADD PUSH2 0x74C9 JUMP JUMPDEST SWAP2 POP POP SWAP3 SWAP2 POP POP JUMP JUMPDEST PUSH0 PUSH8 0xFFFFFFFFFFFFFFFF DUP3 GT ISZERO PUSH2 0x7578 JUMPI PUSH2 0x7577 PUSH2 0x5C75 JUMP JUMPDEST JUMPDEST PUSH1 0x20 DUP3 MUL SWAP1 POP PUSH1 0x20 DUP2 ADD SWAP1 POP SWAP2 SWAP1 POP JUMP JUMPDEST PUSH0 PUSH8 0xFFFFFFFFFFFFFFFF DUP3 GT ISZERO PUSH2 0x75A3 JUMPI PUSH2 0x75A2 PUSH2 0x5C75 JUMP JUMPDEST JUMPDEST PUSH2 0x75AC DUP3 PUSH2 0x57B0 JUMP JUMPDEST SWAP1 POP PUSH1 0x20 DUP2 ADD SWAP1 POP SWAP2 SWAP1 POP JUMP JUMPDEST PUSH0 PUSH2 0x75CB PUSH2 0x75C6 DUP5 PUSH2 0x7589 JUMP JUMPDEST PUSH2 0x5CD3 JUMP JUMPDEST SWAP1 POP DUP3 DUP2 MSTORE PUSH1 0x20 DUP2 ADD DUP5 DUP5 DUP5 ADD GT ISZERO PUSH2 0x75E7 JUMPI PUSH2 0x75E6 PUSH2 0x5C71 JUMP JUMPDEST JUMPDEST PUSH2 0x75F2 DUP5 DUP3 DUP6 PUSH2 0x57A2 JUMP JUMPDEST POP SWAP4 SWAP3 POP POP POP JUMP JUMPDEST PUSH0 DUP3 PUSH1 0x1F DUP4 ADD SLT PUSH2 0x760E JUMPI PUSH2 0x760D PUSH2 0x5C6D JUMP JUMPDEST JUMPDEST DUP2 MLOAD PUSH2 0x761E DUP5 DUP3 PUSH1 0x20 DUP7 ADD PUSH2 0x75B9 JUMP JUMPDEST SWAP2 POP POP SWAP3 SWAP2 POP POP JUMP JUMPDEST PUSH0 PUSH2 0x7639 PUSH2 0x7634 DUP5 PUSH2 0x755E JUMP JUMPDEST PUSH2 0x5CD3 JUMP JUMPDEST SWAP1 POP DUP1 DUP4 DUP3 MSTORE PUSH1 0x20 DUP3 ADD SWAP1 POP PUSH1 0x20 DUP5 MUL DUP4 ADD DUP6 DUP2 GT ISZERO PUSH2 0x765C JUMPI PUSH2 0x765B PUSH2 0x5FFB JUMP JUMPDEST JUMPDEST DUP4 JUMPDEST DUP2 DUP2 LT ISZERO PUSH2 0x76A3 JUMPI DUP1 MLOAD PUSH8 0xFFFFFFFFFFFFFFFF DUP2 GT ISZERO PUSH2 0x7681 JUMPI PUSH2 0x7680 PUSH2 0x5C6D JUMP JUMPDEST JUMPDEST DUP1 DUP7 ADD PUSH2 0x768E DUP10 DUP3 PUSH2 0x75FA JUMP JUMPDEST DUP6 MSTORE PUSH1 0x20 DUP6 ADD SWAP5 POP POP POP PUSH1 0x20 DUP2 ADD SWAP1 POP PUSH2 0x765E JUMP JUMPDEST POP POP POP SWAP4 SWAP3 POP POP POP JUMP JUMPDEST PUSH0 DUP3 PUSH1 0x1F DUP4 ADD SLT PUSH2 0x76C1 JUMPI PUSH2 0x76C0 PUSH2 0x5C6D JUMP JUMPDEST JUMPDEST DUP2 MLOAD PUSH2 0x76D1 DUP5 DUP3 PUSH1 0x20 DUP7 ADD PUSH2 0x7627 JUMP JUMPDEST SWAP2 POP POP SWAP3 SWAP2 POP POP JUMP JUMPDEST PUSH0 DUP2 MLOAD SWAP1 POP PUSH2 0x76E8 DUP2 PUSH2 0x55C9 JUMP JUMPDEST SWAP3 SWAP2 POP POP JUMP JUMPDEST PUSH0 DUP2 MLOAD SWAP1 POP PUSH2 0x76FC DUP2 PUSH2 0x62ED JUMP JUMPDEST SWAP3 SWAP2 POP POP JUMP JUMPDEST PUSH0 PUSH2 0x300 DUP3 DUP5 SUB SLT ISZERO PUSH2 0x7718 JUMPI PUSH2 0x7717 PUSH2 0x6054 JUMP JUMPDEST JUMPDEST PUSH2 0x7723 PUSH2 0x300 PUSH2 0x5CD3 JUMP JUMPDEST SWAP1 POP PUSH0 DUP3 ADD MLOAD PUSH8 0xFFFFFFFFFFFFFFFF DUP2 GT ISZERO PUSH2 0x7742 JUMPI PUSH2 0x7741 PUSH2 0x6058 JUMP JUMPDEST JUMPDEST PUSH2 0x774E DUP5 DUP3 DUP6 ADD PUSH2 0x749C JUMP JUMPDEST PUSH0 DUP4 ADD MSTORE POP PUSH1 0x20 PUSH2 0x7761 DUP5 DUP3 DUP6 ADD PUSH2 0x7447 JUMP JUMPDEST PUSH1 0x20 DUP4 ADD MSTORE POP PUSH1 0x40 DUP3 ADD MLOAD PUSH8 0xFFFFFFFFFFFFFFFF DUP2 GT ISZERO PUSH2 0x7785 JUMPI PUSH2 0x7784 PUSH2 0x6058 JUMP JUMPDEST JUMPDEST PUSH2 0x7791 DUP5 DUP3 DUP6 ADD PUSH2 0x749C JUMP JUMPDEST PUSH1 0x40 DUP4 ADD MSTORE POP PUSH1 0x60 PUSH2 0x77A5 DUP5 DUP3 DUP6 ADD PUSH2 0x7447 JUMP JUMPDEST PUSH1 0x60 DUP4 ADD MSTORE POP PUSH1 0x80 PUSH2 0x77B9 DUP5 DUP3 DUP6 ADD PUSH2 0x7447 JUMP JUMPDEST PUSH1 0x80 DUP4 ADD MSTORE POP PUSH1 0xA0 PUSH2 0x77CD DUP5 DUP3 DUP6 ADD PUSH2 0x7447 JUMP JUMPDEST PUSH1 0xA0 DUP4 ADD MSTORE POP PUSH1 0xC0 PUSH2 0x77E1 DUP5 DUP3 DUP6 ADD PUSH2 0x7447 JUMP JUMPDEST PUSH1 0xC0 DUP4 ADD MSTORE POP PUSH1 0xE0 DUP3 ADD MLOAD PUSH8 0xFFFFFFFFFFFFFFFF DUP2 GT ISZERO PUSH2 0x7805 JUMPI PUSH2 0x7804 PUSH2 0x6058 JUMP JUMPDEST JUMPDEST PUSH2 0x7811 DUP5 DUP3 DUP6 ADD PUSH2 0x7531 JUMP JUMPDEST PUSH1 0xE0 DUP4 ADD MSTORE POP PUSH2 0x100 DUP3 ADD MLOAD PUSH8 0xFFFFFFFFFFFFFFFF DUP2 GT ISZERO PUSH2 0x7836 JUMPI PUSH2 0x7835 PUSH2 0x6058 JUMP JUMPDEST JUMPDEST PUSH2 0x7842 DUP5 DUP3 DUP6 ADD PUSH2 0x76AD JUMP JUMPDEST PUSH2 0x100 DUP4 ADD MSTORE POP PUSH2 0x120 PUSH2 0x7858 DUP5 DUP3 DUP6 ADD PUSH2 0x7447 JUMP JUMPDEST PUSH2 0x120 DUP4 ADD MSTORE POP PUSH2 0x140 PUSH2 0x786E DUP5 DUP3 DUP6 ADD PUSH2 0x7447 JUMP JUMPDEST PUSH2 0x140 DUP4 ADD MSTORE POP PUSH2 0x160 DUP3 ADD MLOAD PUSH8 0xFFFFFFFFFFFFFFFF DUP2 GT ISZERO PUSH2 0x7894 JUMPI PUSH2 0x7893 PUSH2 0x6058 JUMP JUMPDEST JUMPDEST PUSH2 0x78A0 DUP5 DUP3 DUP6 ADD PUSH2 0x76AD JUMP JUMPDEST PUSH2 0x160 DUP4 ADD MSTORE POP PUSH2 0x180 PUSH2 0x78B6 DUP5 DUP3 DUP6 ADD PUSH2 0x76DA JUMP JUMPDEST PUSH2 0x180 DUP4 ADD MSTORE POP PUSH2 0x1A0 DUP3 ADD MLOAD PUSH8 0xFFFFFFFFFFFFFFFF DUP2 GT ISZERO PUSH2 0x78DC JUMPI PUSH2 0x78DB PUSH2 0x6058 JUMP JUMPDEST JUMPDEST PUSH2 0x78E8 DUP5 DUP3 DUP6 ADD PUSH2 0x749C JUMP JUMPDEST PUSH2 0x1A0 DUP4 ADD MSTORE POP PUSH2 0x1C0 DUP3 ADD MLOAD PUSH8 0xFFFFFFFFFFFFFFFF DUP2 GT ISZERO PUSH2 0x790E JUMPI PUSH2 0x790D PUSH2 0x6058 JUMP JUMPDEST JUMPDEST PUSH2 0x791A DUP5 DUP3 DUP6 ADD PUSH2 0x749C JUMP JUMPDEST PUSH2 0x1C0 DUP4 ADD MSTORE POP PUSH2 0x1E0 PUSH2 0x7930 DUP5 DUP3 DUP6 ADD PUSH2 0x76EE JUMP JUMPDEST PUSH2 0x1E0 DUP4 ADD MSTORE POP PUSH2 0x200 DUP3 ADD MLOAD PUSH8 0xFFFFFFFFFFFFFFFF DUP2 GT ISZERO PUSH2 0x7956 JUMPI PUSH2 0x7955 PUSH2 0x6058 JUMP JUMPDEST JUMPDEST PUSH2 0x7962 DUP5 DUP3 DUP6 ADD PUSH2 0x76AD JUMP JUMPDEST PUSH2 0x200 DUP4 ADD MSTORE POP PUSH2 0x220 DUP3 ADD MLOAD PUSH8 0xFFFFFFFFFFFFFFFF DUP2 GT ISZERO PUSH2 0x7988 JUMPI PUSH2 0x7987 PUSH2 0x6058 JUMP JUMPDEST JUMPDEST PUSH2 0x7994 DUP5 DUP3 DUP6 ADD PUSH2 0x749C JUMP JUMPDEST PUSH2 0x220 DUP4 ADD MSTORE POP PUSH2 0x240 PUSH2 0x79AA DUP5 DUP3 DUP6 ADD PUSH2 0x7447 JUMP JUMPDEST PUSH2 0x240 DUP4 ADD MSTORE POP PUSH2 0x260 PUSH2 0x79C0 DUP5 DUP3 DUP6 ADD PUSH2 0x7447 JUMP JUMPDEST PUSH2 0x260 DUP4 ADD MSTORE POP PUSH2 0x280 PUSH2 0x79D6 DUP5 DUP3 DUP6 ADD PUSH2 0x7447 JUMP JUMPDEST PUSH2 0x280 DUP4 ADD MSTORE POP PUSH2 0x2A0 PUSH2 0x79EC DUP5 DUP3 DUP6 ADD PUSH2 0x76EE JUMP JUMPDEST PUSH2 0x2A0 DUP4 ADD MSTORE POP PUSH2 0x2C0 PUSH2 0x7A02 DUP5 DUP3 DUP6 ADD PUSH2 0x76EE JUMP JUMPDEST PUSH2 0x2C0 DUP4 ADD MSTORE POP PUSH2 0x2E0 PUSH2 0x7A18 DUP5 DUP3 DUP6 ADD PUSH2 0x7447 JUMP JUMPDEST PUSH2 0x2E0 DUP4 ADD MSTORE POP SWAP3 SWAP2 POP POP JUMP JUMPDEST PUSH0 PUSH1 0x80 DUP3 DUP5 SUB SLT ISZERO PUSH2 0x7A3A JUMPI PUSH2 0x7A39 PUSH2 0x6054 JUMP JUMPDEST JUMPDEST PUSH2 0x7A44 PUSH1 0x80 PUSH2 0x5CD3 JUMP JUMPDEST SWAP1 POP PUSH0 PUSH2 0x7A53 DUP5 DUP3 DUP6 ADD PUSH2 0x7447 JUMP JUMPDEST PUSH0 DUP4 ADD MSTORE POP PUSH1 0x20 DUP3 ADD MLOAD PUSH8 0xFFFFFFFFFFFFFFFF DUP2 GT ISZERO PUSH2 0x7A76 JUMPI PUSH2 0x7A75 PUSH2 0x6058 JUMP JUMPDEST JUMPDEST PUSH2 0x7A82 DUP5 DUP3 DUP6 ADD PUSH2 0x7702 JUMP JUMPDEST PUSH1 0x20 DUP4 ADD MSTORE POP PUSH1 0x40 PUSH2 0x7A96 DUP5 DUP3 DUP6 ADD PUSH2 0x7447 JUMP JUMPDEST PUSH1 0x40 DUP4 ADD MSTORE POP PUSH1 0x60 PUSH2 0x7AAA DUP5 DUP3 DUP6 ADD PUSH2 0x7447 JUMP JUMPDEST PUSH1 0x60 DUP4 ADD MSTORE POP SWAP3 SWAP2 POP POP JUMP JUMPDEST PUSH0 PUSH1 0x20 DUP3 DUP5 SUB SLT ISZERO PUSH2 0x7ACB JUMPI PUSH2 0x7ACA PUSH2 0x5591 JUMP JUMPDEST JUMPDEST PUSH0 DUP3 ADD MLOAD PUSH8 0xFFFFFFFFFFFFFFFF DUP2 GT ISZERO PUSH2 0x7AE8 JUMPI PUSH2 0x7AE7 PUSH2 0x5595 JUMP JUMPDEST JUMPDEST PUSH2 0x7AF4 DUP5 DUP3 DUP6 ADD PUSH2 0x7A25 JUMP JUMPDEST SWAP2 POP POP SWAP3 SWAP2 POP POP JUMP JUMPDEST PUSH0 PUSH2 0x7B07 DUP3 PUSH2 0x55F3 JUMP JUMPDEST SWAP2 POP PUSH2 0x7B12 DUP4 PUSH2 0x55F3 JUMP JUMPDEST SWAP3 POP DUP3 DUP3 SUB SWAP1 POP DUP2 DUP2 GT ISZERO PUSH2 0x7B2A JUMPI PUSH2 0x7B29 PUSH2 0x7231 JUMP JUMPDEST JUMPDEST SWAP3 SWAP2 POP POP JUMP JUMPDEST PUSH0 DUP2 SLOAD SWAP1 POP PUSH2 0x7B3E DUP2 PUSH2 0x7417 JUMP JUMPDEST SWAP1 POP SWAP2 SWAP1 POP JUMP JUMPDEST PUSH0 DUP2 SWAP1 POP DUP2 PUSH0 MSTORE PUSH1 0x20 PUSH0 KECCAK256 SWAP1 POP SWAP2 SWAP1 POP JUMP JUMPDEST PUSH0 PUSH1 0x20 PUSH1 0x1F DUP4 ADD DIV SWAP1 POP SWAP2 SWAP1 POP JUMP JUMPDEST PUSH0 DUP3 DUP3 SHL SWAP1 POP SWAP3 SWAP2 POP POP JUMP JUMPDEST PUSH0 PUSH1 0x8 DUP4 MUL PUSH2 0x7BA1 PUSH32 0xFFFFFFFFFFFFFFFFFFFFFFFFFFFFFFFFFFFFFFFFFFFFFFFFFFFFFFFFFFFFFFFF DUP3 PUSH2 0x7B66 JUMP JUMPDEST PUSH2 0x7BAB DUP7 DUP4 PUSH2 0x7B66 JUMP JUMPDEST SWAP6 POP DUP1 NOT DUP5 AND SWAP4 POP DUP1 DUP7 AND DUP5 OR SWAP3 POP POP POP SWAP4 SWAP3 POP POP POP JUMP JUMPDEST PUSH0 PUSH2 0x7BDD PUSH2 0x7BD8 PUSH2 0x7BD3 DUP5 PUSH2 0x55F3 JUMP JUMPDEST PUSH2 0x5F63 JUMP JUMPDEST PUSH2 0x55F3 JUMP JUMPDEST SWAP1 POP SWAP2 SWAP1 POP JUMP JUMPDEST PUSH0 DUP2 SWAP1 POP SWAP2 SWAP1 POP JUMP JUMPDEST PUSH2 0x7BF6 DUP4 PUSH2 0x7BC3 JUMP JUMPDEST PUSH2 0x7C0A PUSH2 0x7C02 DUP3 PUSH2 0x7BE4 JUMP JUMPDEST DUP5 DUP5 SLOAD PUSH2 0x7B72 JUMP JUMPDEST DUP3 SSTORE POP POP POP POP JUMP JUMPDEST PUSH0 SWAP1 JUMP JUMPDEST PUSH2 0x7C1E PUSH2 0x7C12 JUMP JUMPDEST PUSH2 0x7C29 DUP2 DUP5 DUP5 PUSH2 0x7BED JUMP JUMPDEST POP POP POP JUMP JUMPDEST JUMPDEST DUP2 DUP2 LT ISZERO PUSH2 0x7C4C JUMPI PUSH2 0x7C41 PUSH0 DUP3 PUSH2 0x7C16 JUMP JUMPDEST PUSH1 0x1 DUP2 ADD SWAP1 POP PUSH2 0x7C2F JUMP JUMPDEST POP POP JUMP JUMPDEST PUSH1 0x1F DUP3 GT ISZERO PUSH2 0x7C91 JUMPI PUSH2 0x7C62 DUP2 PUSH2 0x7B45 JUMP JUMPDEST PUSH2 0x7C6B DUP5 PUSH2 0x7B57 JUMP JUMPDEST DUP2 ADD PUSH1 0x20 DUP6 LT ISZERO PUSH2 0x7C7A JUMPI DUP2 SWAP1 POP JUMPDEST PUSH2 0x7C8E PUSH2 0x7C86 DUP6 PUSH2 0x7B57 JUMP JUMPDEST DUP4 ADD DUP3 PUSH2 0x7C2E JUMP JUMPDEST POP POP JUMPDEST POP POP POP JUMP JUMPDEST PUSH0 DUP3 DUP3 SHR SWAP1 POP SWAP3 SWAP2 POP POP JUMP JUMPDEST PUSH0 PUSH2 0x7CB1 PUSH0 NOT DUP5 PUSH1 0x8 MUL PUSH2 0x7C96 JUMP JUMPDEST NOT DUP1 DUP4 AND SWAP2 POP POP SWAP3 SWAP2 POP POP JUMP JUMPDEST PUSH0 PUSH2 0x7CC9 DUP4 DUP4 PUSH2 0x7CA2 JUMP JUMPDEST SWAP2 POP DUP3 PUSH1 0x2 MUL DUP3 OR SWAP1 POP SWAP3 SWAP2 POP POP JUMP JUMPDEST DUP2 DUP2 SUB PUSH2 0x7CE7 JUMPI POP POP PUSH2 0x7DBC JUMP JUMPDEST PUSH2 0x7CF0 DUP3 PUSH2 0x7B30 JUMP JUMPDEST PUSH8 0xFFFFFFFFFFFFFFFF DUP2 GT ISZERO PUSH2 0x7D09 JUMPI PUSH2 0x7D08 PUSH2 0x5C75 JUMP JUMPDEST JUMPDEST PUSH2 0x7D13 DUP3 SLOAD PUSH2 0x7417 JUMP JUMPDEST PUSH2 0x7D1E DUP3 DUP3 DUP6 PUSH2 0x7C50 JUMP JUMPDEST PUSH0 PUSH1 0x1F DUP4 GT PUSH1 0x1 DUP2 EQ PUSH2 0x7D4B JUMPI PUSH0 DUP5 ISZERO PUSH2 0x7D39 JUMPI DUP3 DUP8 ADD SLOAD SWAP1 POP JUMPDEST PUSH2 0x7D43 DUP6 DUP3 PUSH2 0x7CBE JUMP JUMPDEST DUP7 SSTORE POP PUSH2 0x7DB5 JUMP JUMPDEST PUSH1 0x1F NOT DUP5 AND PUSH2 0x7D59 DUP8 PUSH2 0x7B45 JUMP JUMPDEST SWAP7 POP PUSH2 0x7D64 DUP7 PUSH2 0x7B45 JUMP JUMPDEST PUSH0 JUMPDEST DUP3 DUP2 LT ISZERO PUSH2 0x7D8B JUMPI DUP5 DUP10 ADD SLOAD DUP3 SSTORE PUSH1 0x1 DUP3 ADD SWAP2 POP PUSH1 0x1 DUP6 ADD SWAP5 POP PUSH1 0x20 DUP2 ADD SWAP1 POP PUSH2 0x7D66 JUMP JUMPDEST DUP7 DUP4 LT ISZERO PUSH2 0x7DA8 JUMPI DUP5 DUP10 ADD SLOAD PUSH2 0x7DA4 PUSH1 0x1F DUP10 AND DUP3 PUSH2 0x7CA2 JUMP JUMPDEST DUP4 SSTORE POP JUMPDEST PUSH1 0x1 PUSH1 0x2 DUP9 MUL ADD DUP9 SSTORE POP POP POP JUMPDEST POP POP POP POP POP POP JUMPDEST JUMP JUMPDEST PUSH0 DUP2 SLOAD SWAP1 POP PUSH2 0x7DCC DUP2 PUSH2 0x7417 JUMP JUMPDEST SWAP1 POP SWAP2 SWAP1 POP JUMP JUMPDEST PUSH0 DUP2 SWAP1 POP DUP2 PUSH0 MSTORE PUSH1 0x20 PUSH0 KECCAK256 SWAP1 POP SWAP2 SWAP1 POP JUMP JUMPDEST PUSH1 0x1F DUP3 GT ISZERO PUSH2 0x7E26 JUMPI PUSH2 0x7DF7 DUP2 PUSH2 0x7DD3 JUMP JUMPDEST PUSH2 0x7E00 DUP5 PUSH2 0x7B57 JUMP JUMPDEST DUP2 ADD PUSH1 0x20 DUP6 LT ISZERO PUSH2 0x7E0F JUMPI DUP2 SWAP1 POP JUMPDEST PUSH2 0x7E23 PUSH2 0x7E1B DUP6 PUSH2 0x7B57 JUMP JUMPDEST DUP4 ADD DUP3 PUSH2 0x7C2E JUMP JUMPDEST POP POP JUMPDEST POP POP POP JUMP JUMPDEST DUP2 DUP2 SUB PUSH2 0x7E39 JUMPI POP POP PUSH2 0x7F0E JUMP JUMPDEST PUSH2 0x7E42 DUP3 PUSH2 0x7DBE JUMP JUMPDEST PUSH8 0xFFFFFFFFFFFFFFFF DUP2 GT ISZERO PUSH2 0x7E5B JUMPI PUSH2 0x7E5A PUSH2 0x5C75 JUMP JUMPDEST JUMPDEST PUSH2 0x7E65 DUP3 SLOAD PUSH2 0x7417 JUMP JUMPDEST PUSH2 0x7E70 DUP3 DUP3 DUP6 PUSH2 0x7DE5 JUMP JUMPDEST PUSH0 PUSH1 0x1F DUP4 GT PUSH1 0x1 DUP2 EQ PUSH2 0x7E9D JUMPI PUSH0 DUP5 ISZERO PUSH2 0x7E8B JUMPI DUP3 DUP8 ADD SLOAD SWAP1 POP JUMPDEST PUSH2 0x7E95 DUP6 DUP3 PUSH2 0x7CBE JUMP JUMPDEST DUP7 SSTORE POP PUSH2 0x7F07 JUMP JUMPDEST PUSH1 0x1F NOT DUP5 AND PUSH2 0x7EAB DUP8 PUSH2 0x7DD3 JUMP JUMPDEST SWAP7 POP PUSH2 0x7EB6 DUP7 PUSH2 0x7DD3 JUMP JUMPDEST PUSH0 JUMPDEST DUP3 DUP2 LT ISZERO PUSH2 0x7EDD JUMPI DUP5 DUP10 ADD SLOAD DUP3 SSTORE PUSH1 0x1 DUP3 ADD SWAP2 POP PUSH1 0x1 DUP6 ADD SWAP5 POP PUSH1 0x20 DUP2 ADD SWAP1 POP PUSH2 0x7EB8 JUMP JUMPDEST DUP7 DUP4 LT ISZERO PUSH2 0x7EFA JUMPI DUP5 DUP10 ADD SLOAD PUSH2 0x7EF6 PUSH1 0x1F DUP10 AND DUP3 PUSH2 0x7CA2 JUMP JUMPDEST DUP4 SSTORE POP JUMPDEST PUSH1 0x1 PUSH1 0x2 DUP9 MUL ADD DUP9 SSTORE POP POP POP JUMPDEST POP POP POP POP POP POP JUMPDEST JUMP JUMPDEST PUSH32 0x4E487B7100000000000000000000000000000000000000000000000000000000 PUSH0 MSTORE PUSH1 0x31 PUSH1 0x4 MSTORE PUSH1 0x24 PUSH0 REVERT JUMPDEST PUSH0 PUSH2 0x7F47 DUP3 PUSH2 0x55F3 JUMP JUMPDEST SWAP2 POP PUSH0 DUP3 SUB PUSH2 0x7F59 JUMPI PUSH2 0x7F58 PUSH2 0x7231 JUMP JUMPDEST JUMPDEST PUSH1 0x1 DUP3 SUB SWAP1 POP SWAP2 SWAP1 POP JUMP JUMPDEST PUSH0 PUSH8 0xFFFFFFFFFFFFFFFF DUP3 GT ISZERO PUSH2 0x7F7E JUMPI PUSH2 0x7F7D PUSH2 0x5C75 JUMP JUMPDEST JUMPDEST PUSH1 0x20 DUP3 MUL SWAP1 POP PUSH1 0x20 DUP2 ADD SWAP1 POP SWAP2 SWAP1 POP JUMP JUMPDEST PUSH0 PUSH2 0x7FA1 PUSH2 0x7F9C DUP5 PUSH2 0x7F64 JUMP JUMPDEST PUSH2 0x5CD3 JUMP JUMPDEST SWAP1 POP DUP1 DUP4 DUP3 MSTORE PUSH1 0x20 DUP3 ADD SWAP1 POP PUSH1 0x20 DUP5 MUL DUP4 ADD DUP6 DUP2 GT ISZERO PUSH2 0x7FC4 JUMPI PUSH2 0x7FC3 PUSH2 0x5FFB JUMP JUMPDEST JUMPDEST DUP4 JUMPDEST DUP2 DUP2 LT ISZERO PUSH2 0x800B JUMPI DUP1 MLOAD PUSH8 0xFFFFFFFFFFFFFFFF DUP2 GT ISZERO PUSH2 0x7FE9 JUMPI PUSH2 0x7FE8 PUSH2 0x5C6D JUMP JUMPDEST JUMPDEST DUP1 DUP7 ADD PUSH2 0x7FF6 DUP10 DUP3 PUSH2 0x7A25 JUMP JUMPDEST DUP6 MSTORE PUSH1 0x20 DUP6 ADD SWAP5 POP POP POP PUSH1 0x20 DUP2 ADD SWAP1 POP PUSH2 0x7FC6 JUMP JUMPDEST POP POP POP SWAP4 SWAP3 POP POP POP JUMP JUMPDEST PUSH0 DUP3 PUSH1 0x1F DUP4 ADD SLT PUSH2 0x8029 JUMPI PUSH2 0x8028 PUSH2 0x5C6D JUMP JUMPDEST JUMPDEST DUP2 MLOAD PUSH2 0x8039 DUP5 DUP3 PUSH1 0x20 DUP7 ADD PUSH2 0x7F8F JUMP JUMPDEST SWAP2 POP POP SWAP3 SWAP2 POP POP JUMP JUMPDEST PUSH0 PUSH1 0x20 DUP3 DUP5 SUB SLT ISZERO PUSH2 0x8057 JUMPI PUSH2 0x8056 PUSH2 0x5591 JUMP JUMPDEST JUMPDEST PUSH0 DUP3 ADD MLOAD PUSH8 0xFFFFFFFFFFFFFFFF DUP2 GT ISZERO PUSH2 0x8074 JUMPI PUSH2 0x8073 PUSH2 0x5595 JUMP JUMPDEST JUMPDEST PUSH2 0x8080 DUP5 DUP3 DUP6 ADD PUSH2 0x8015 JUMP JUMPDEST SWAP2 POP POP SWAP3 SWAP2 POP POP JUMP JUMPDEST PUSH0 PUSH8 0xFFFFFFFFFFFFFFFF DUP3 GT ISZERO PUSH2 0x80A3 JUMPI PUSH2 0x80A2 PUSH2 0x5C75 JUMP JUMPDEST JUMPDEST PUSH1 0x20 DUP3 MUL SWAP1 POP PUSH1 0x20 DUP2 ADD SWAP1 POP SWAP2 SWAP1 POP JUMP JUMPDEST PUSH0 PUSH2 0x80C6 PUSH2 0x80C1 DUP5 PUSH2 0x8089 JUMP JUMPDEST PUSH2 0x5CD3 JUMP JUMPDEST SWAP1 POP DUP1 DUP4 DUP3 MSTORE PUSH1 0x20 DUP3 ADD SWAP1 POP PUSH1 0x20 DUP5 MUL DUP4 ADD DUP6 DUP2 GT ISZERO PUSH2 0x80E9 JUMPI PUSH2 0x80E8 PUSH2 0x5FFB JUMP JUMPDEST JUMPDEST DUP4 JUMPDEST DUP2 DUP2 LT ISZERO PUSH2 0x8112 JUMPI DUP1 PUSH2 0x80FE DUP9 DUP3 PUSH2 0x76DA JUMP JUMPDEST DUP5 MSTORE PUSH1 0x20 DUP5 ADD SWAP4 POP POP PUSH1 0x20 DUP2 ADD SWAP1 POP PUSH2 0x80EB JUMP JUMPDEST POP POP POP SWAP4 SWAP3 POP POP POP JUMP JUMPDEST PUSH0 DUP3 PUSH1 0x1F DUP4 ADD SLT PUSH2 0x8130 JUMPI PUSH2 0x812F PUSH2 0x5C6D JUMP JUMPDEST JUMPDEST DUP2 MLOAD PUSH2 0x8140 DUP5 DUP3 PUSH1 0x20 DUP7 ADD PUSH2 0x80B4 JUMP JUMPDEST SWAP2 POP POP SWAP3 SWAP2 POP POP JUMP JUMPDEST PUSH0 PUSH1 0x20 DUP3 DUP5 SUB SLT ISZERO PUSH2 0x815E JUMPI PUSH2 0x815D PUSH2 0x5591 JUMP JUMPDEST JUMPDEST PUSH0 DUP3 ADD MLOAD PUSH8 0xFFFFFFFFFFFFFFFF DUP2 GT ISZERO PUSH2 0x817B JUMPI PUSH2 0x817A PUSH2 0x5595 JUMP JUMPDEST JUMPDEST PUSH2 0x8187 DUP5 DUP3 DUP6 ADD PUSH2 0x811C JUMP JUMPDEST SWAP2 POP POP SWAP3 SWAP2 POP POP JUMP JUMPDEST PUSH2 0x8199 DUP3 PUSH2 0x5788 JUMP JUMPDEST PUSH8 0xFFFFFFFFFFFFFFFF DUP2 GT ISZERO PUSH2 0x81B2 JUMPI PUSH2 0x81B1 PUSH2 0x5C75 JUMP JUMPDEST JUMPDEST PUSH2 0x81BC DUP3 SLOAD PUSH2 0x7417 JUMP JUMPDEST PUSH2 0x81C7 DUP3 DUP3 DUP6 PUSH2 0x7C50 JUMP JUMPDEST PUSH0 PUSH1 0x20 SWAP1 POP PUSH1 0x1F DUP4 GT PUSH1 0x1 DUP2 EQ PUSH2 0x81F8 JUMPI PUSH0 DUP5 ISZERO PUSH2 0x81E6 JUMPI DUP3 DUP8 ADD MLOAD SWAP1 POP JUMPDEST PUSH2 0x81F0 DUP6 DUP3 PUSH2 0x7CBE JUMP JUMPDEST DUP7 SSTORE POP PUSH2 0x8257 JUMP JUMPDEST PUSH1 0x1F NOT DUP5 AND PUSH2 0x8206 DUP7 PUSH2 0x7B45 JUMP JUMPDEST PUSH0 JUMPDEST DUP3 DUP2 LT ISZERO PUSH2 0x822D JUMPI DUP5 DUP10 ADD MLOAD DUP3 SSTORE PUSH1 0x1 DUP3 ADD SWAP2 POP PUSH1 0x20 DUP6 ADD SWAP5 POP PUSH1 0x20 DUP2 ADD SWAP1 POP PUSH2 0x8208 JUMP JUMPDEST DUP7 DUP4 LT ISZERO PUSH2 0x824A JUMPI DUP5 DUP10 ADD MLOAD PUSH2 0x8246 PUSH1 0x1F DUP10 AND DUP3 PUSH2 0x7CA2 JUMP JUMPDEST DUP4 SSTORE POP JUMPDEST PUSH1 0x1 PUSH1 0x2 DUP9 MUL ADD DUP9 SSTORE POP POP POP JUMPDEST POP POP POP POP POP POP JUMP JUMPDEST PUSH2 0x8268 DUP3 PUSH2 0x5816 JUMP JUMPDEST PUSH8 0xFFFFFFFFFFFFFFFF DUP2 GT ISZERO PUSH2 0x8281 JUMPI PUSH2 0x8280 PUSH2 0x5C75 JUMP JUMPDEST JUMPDEST PUSH2 0x828B DUP3 SLOAD PUSH2 0x7417 JUMP JUMPDEST PUSH2 0x8296 DUP3 DUP3 DUP6 PUSH2 0x7DE5 JUMP JUMPDEST PUSH0 PUSH1 0x20 SWAP1 POP PUSH1 0x1F DUP4 GT PUSH1 0x1 DUP2 EQ PUSH2 0x82C7 JUMPI PUSH0 DUP5 ISZERO PUSH2 0x82B5 JUMPI DUP3 DUP8 ADD MLOAD SWAP1 POP JUMPDEST PUSH2 0x82BF DUP6 DUP3 PUSH2 0x7CBE JUMP JUMPDEST DUP7 SSTORE POP PUSH2 0x8326 JUMP JUMPDEST PUSH1 0x1F NOT DUP5 AND PUSH2 0x82D5 DUP7 PUSH2 0x7DD3 JUMP JUMPDEST PUSH0 JUMPDEST DUP3 DUP2 LT ISZERO PUSH2 0x82FC JUMPI DUP5 DUP10 ADD MLOAD DUP3 SSTORE PUSH1 0x1 DUP3 ADD SWAP2 POP PUSH1 0x20 DUP6 ADD SWAP5 POP PUSH1 0x20 DUP2 ADD SWAP1 POP PUSH2 0x82D7 JUMP JUMPDEST DUP7 DUP4 LT ISZERO PUSH2 0x8319 JUMPI DUP5 DUP10 ADD MLOAD PUSH2 0x8315 PUSH1 0x1F DUP10 AND DUP3 PUSH2 0x7CA2 JUMP JUMPDEST DUP4 SSTORE POP JUMPDEST PUSH1 0x1 PUSH1 0x2 DUP9 MUL ADD DUP9 SSTORE POP POP POP JUMPDEST POP POP POP POP POP POP JUMP JUMPDEST PUSH0 DUP2 MLOAD SWAP1 POP PUSH2 0x833C DUP2 PUSH2 0x63A0 JUMP JUMPDEST SWAP3 SWAP2 POP POP JUMP JUMPDEST PUSH1 0x3 DUP2 LT PUSH2 0x834E JUMPI PUSH0 DUP1 REVERT JUMPDEST POP JUMP JUMPDEST PUSH0 DUP2 MLOAD SWAP1 POP PUSH2 0x835F DUP2 PUSH2 0x8342 JUMP JUMPDEST SWAP3 SWAP2 POP POP JUMP JUMPDEST PUSH0 PUSH2 0x140 DUP3 DUP5 SUB SLT ISZERO PUSH2 0x837B JUMPI PUSH2 0x837A PUSH2 0x6054 JUMP JUMPDEST JUMPDEST PUSH2 0x8386 PUSH2 0x140 PUSH2 0x5CD3 JUMP JUMPDEST SWAP1 POP PUSH0 PUSH2 0x8395 DUP5 DUP3 DUP6 ADD PUSH2 0x76DA JUMP JUMPDEST PUSH0 DUP4 ADD MSTORE POP PUSH1 0x20 DUP3 ADD MLOAD PUSH8 0xFFFFFFFFFFFFFFFF DUP2 GT ISZERO PUSH2 0x83B8 JUMPI PUSH2 0x83B7 PUSH2 0x6058 JUMP JUMPDEST JUMPDEST PUSH2 0x83C4 DUP5 DUP3 DUP6 ADD PUSH2 0x749C JUMP JUMPDEST PUSH1 0x20 DUP4 ADD MSTORE POP PUSH1 0x40 DUP3 ADD MLOAD PUSH8 0xFFFFFFFFFFFFFFFF DUP2 GT ISZERO PUSH2 0x83E8 JUMPI PUSH2 0x83E7 PUSH2 0x6058 JUMP JUMPDEST JUMPDEST PUSH2 0x83F4 DUP5 DUP3 DUP6 ADD PUSH2 0x749C JUMP JUMPDEST PUSH1 0x40 DUP4 ADD MSTORE POP PUSH1 0x60 PUSH2 0x8408 DUP5 DUP3 DUP6 ADD PUSH2 0x832E JUMP JUMPDEST PUSH1 0x60 DUP4 ADD MSTORE POP PUSH1 0x80 PUSH2 0x841C DUP5 DUP3 DUP6 ADD PUSH2 0x7447 JUMP JUMPDEST PUSH1 0x80 DUP4 ADD MSTORE POP PUSH1 0xA0 DUP3 ADD MLOAD PUSH8 0xFFFFFFFFFFFFFFFF DUP2 GT ISZERO PUSH2 0x8440 JUMPI PUSH2 0x843F PUSH2 0x6058 JUMP JUMPDEST JUMPDEST PUSH2 0x844C DUP5 DUP3 DUP6 ADD PUSH2 0x749C JUMP JUMPDEST PUSH1 0xA0 DUP4 ADD MSTORE POP PUSH1 0xC0 DUP3 ADD MLOAD PUSH8 0xFFFFFFFFFFFFFFFF DUP2 GT ISZERO PUSH2 0x8470 JUMPI PUSH2 0x846F PUSH2 0x6058 JUMP JUMPDEST JUMPDEST PUSH2 0x847C DUP5 DUP3 DUP6 ADD PUSH2 0x749C JUMP JUMPDEST PUSH1 0xC0 DUP4 ADD MSTORE POP PUSH1 0xE0 PUSH2 0x8490 DUP5 DUP3 DUP6 ADD PUSH2 0x8351 JUMP JUMPDEST PUSH1 0xE0 DUP4 ADD MSTORE POP PUSH2 0x100 PUSH2 0x84A5 DUP5 DUP3 DUP6 ADD PUSH2 0x7447 JUMP JUMPDEST PUSH2 0x100 DUP4 ADD MSTORE POP PUSH2 0x120 PUSH2 0x84BB DUP5 DUP3 DUP6 ADD PUSH2 0x76DA JUMP JUMPDEST PUSH2 0x120 DUP4 ADD MSTORE POP SWAP3 SWAP2 POP POP JUMP JUMPDEST PUSH0 PUSH8 0xFFFFFFFFFFFFFFFF DUP3 GT ISZERO PUSH2 0x84E2 JUMPI PUSH2 0x84E1 PUSH2 0x5C75 JUMP JUMPDEST JUMPDEST PUSH1 0x20 DUP3 MUL SWAP1 POP PUSH1 0x20 DUP2 ADD SWAP1 POP SWAP2 SWAP1 POP JUMP JUMPDEST PUSH0 PUSH1 0xA0 DUP3 DUP5 SUB SLT ISZERO PUSH2 0x8508 JUMPI PUSH2 0x8507 PUSH2 0x6054 JUMP JUMPDEST JUMPDEST PUSH2 0x8512 PUSH1 0xA0 PUSH2 0x5CD3 JUMP JUMPDEST SWAP1 POP PUSH0 DUP3 ADD MLOAD PUSH8 0xFFFFFFFFFFFFFFFF DUP2 GT ISZERO PUSH2 0x8531 JUMPI PUSH2 0x8530 PUSH2 0x6058 JUMP JUMPDEST JUMPDEST PUSH2 0x853D DUP5 DUP3 DUP6 ADD PUSH2 0x749C JUMP JUMPDEST PUSH0 DUP4 ADD MSTORE POP PUSH1 0x20 DUP3 ADD MLOAD PUSH8 0xFFFFFFFFFFFFFFFF DUP2 GT ISZERO PUSH2 0x8560 JUMPI PUSH2 0x855F PUSH2 0x6058 JUMP JUMPDEST JUMPDEST PUSH2 0x856C DUP5 DUP3 DUP6 ADD PUSH2 0x749C JUMP JUMPDEST PUSH1 0x20 DUP4 ADD MSTORE POP PUSH1 0x40 DUP3 ADD MLOAD PUSH8 0xFFFFFFFFFFFFFFFF DUP2 GT ISZERO PUSH2 0x8590 JUMPI PUSH2 0x858F PUSH2 0x6058 JUMP JUMPDEST JUMPDEST PUSH2 0x859C DUP5 DUP3 DUP6 ADD PUSH2 0x749C JUMP JUMPDEST PUSH1 0x40 DUP4 ADD MSTORE POP PUSH1 0x60 DUP3 ADD MLOAD PUSH8 0xFFFFFFFFFFFFFFFF DUP2 GT ISZERO PUSH2 0x85C0 JUMPI PUSH2 0x85BF PUSH2 0x6058 JUMP JUMPDEST JUMPDEST PUSH2 0x85CC DUP5 DUP3 DUP6 ADD PUSH2 0x749C JUMP JUMPDEST PUSH1 0x60 DUP4 ADD MSTORE POP PUSH1 0x80 DUP3 ADD MLOAD PUSH8 0xFFFFFFFFFFFFFFFF DUP2 GT ISZERO PUSH2 0x85F0 JUMPI PUSH2 0x85EF PUSH2 0x6058 JUMP JUMPDEST JUMPDEST PUSH2 0x85FC DUP5 DUP3 DUP6 ADD PUSH2 0x749C JUMP JUMPDEST PUSH1 0x80 DUP4 ADD MSTORE POP SWAP3 SWAP2 POP POP JUMP JUMPDEST PUSH0 PUSH2 0x861A PUSH2 0x8615 DUP5 PUSH2 0x84C8 JUMP JUMPDEST PUSH2 0x5CD3 JUMP JUMPDEST SWAP1 POP DUP1 DUP4 DUP3 MSTORE PUSH1 0x20 DUP3 ADD SWAP1 POP PUSH1 0x20 DUP5 MUL DUP4 ADD DUP6 DUP2 GT ISZERO PUSH2 0x863D JUMPI PUSH2 0x863C PUSH2 0x5FFB JUMP JUMPDEST JUMPDEST DUP4 JUMPDEST DUP2 DUP2 LT ISZERO PUSH2 0x8684 JUMPI DUP1 MLOAD PUSH8 0xFFFFFFFFFFFFFFFF DUP2 GT ISZERO PUSH2 0x8662 JUMPI PUSH2 0x8661 PUSH2 0x5C6D JUMP JUMPDEST JUMPDEST DUP1 DUP7 ADD PUSH2 0x866F DUP10 DUP3 PUSH2 0x84F3 JUMP JUMPDEST DUP6 MSTORE PUSH1 0x20 DUP6 ADD SWAP5 POP POP POP PUSH1 0x20 DUP2 ADD SWAP1 POP PUSH2 0x863F JUMP JUMPDEST POP POP POP SWAP4 SWAP3 POP POP POP JUMP JUMPDEST PUSH0 DUP3 PUSH1 0x1F DUP4 ADD SLT PUSH2 0x86A2 JUMPI PUSH2 0x86A1 PUSH2 0x5C6D JUMP JUMPDEST JUMPDEST DUP2 MLOAD PUSH2 0x86B2 DUP5 DUP3 PUSH1 0x20 DUP7 ADD PUSH2 0x8608 JUMP JUMPDEST SWAP2 POP POP SWAP3 SWAP2 POP POP JUMP JUMPDEST PUSH0 DUP1 PUSH1 0x40 DUP4 DUP6 SUB SLT ISZERO PUSH2 0x86D1 JUMPI PUSH2 0x86D0 PUSH2 0x5591 JUMP JUMPDEST JUMPDEST PUSH0 DUP4 ADD MLOAD PUSH8 0xFFFFFFFFFFFFFFFF DUP2 GT ISZERO PUSH2 0x86EE JUMPI PUSH2 0x86ED PUSH2 0x5595 JUMP JUMPDEST JUMPDEST PUSH2 0x86FA DUP6 DUP3 DUP7 ADD PUSH2 0x8365 JUMP JUMPDEST SWAP3 POP POP PUSH1 0x20 DUP4 ADD MLOAD PUSH8 0xFFFFFFFFFFFFFFFF DUP2 GT ISZERO PUSH2 0x871B JUMPI PUSH2 0x871A PUSH2 0x5595 JUMP JUMPDEST JUMPDEST PUSH2 0x8727 DUP6 DUP3 DUP7 ADD PUSH2 0x868E JUMP JUMPDEST SWAP2 POP POP SWAP3 POP SWAP3 SWAP1 POP JUMP JUMPDEST PUSH0 PUSH8 0xFFFFFFFFFFFFFFFF DUP3 GT ISZERO PUSH2 0x874B JUMPI PUSH2 0x874A PUSH2 0x5C75 JUMP JUMPDEST JUMPDEST PUSH1 0x20 DUP3 MUL SWAP1 POP PUSH1 0x20 DUP2 ADD SWAP1 POP SWAP2 SWAP1 POP JUMP JUMPDEST PUSH0 PUSH8 0xFFFFFFFFFFFFFFFF DUP3 GT ISZERO PUSH2 0x8776 JUMPI PUSH2 0x8775 PUSH2 0x5C75 JUMP JUMPDEST JUMPDEST PUSH1 0x20 DUP3 MUL SWAP1 POP PUSH1 0x20 DUP2 ADD SWAP1 POP SWAP2 SWAP1 POP JUMP JUMPDEST PUSH2 0x8790 DUP2 PUSH2 0x682F JUMP JUMPDEST DUP2 EQ PUSH2 0x879A JUMPI PUSH0 DUP1 REVERT JUMPDEST POP JUMP JUMPDEST PUSH0 DUP2 MLOAD SWAP1 POP PUSH2 0x87AB DUP2 PUSH2 0x8787 JUMP JUMPDEST SWAP3 SWAP2 POP POP JUMP JUMPDEST PUSH0 PUSH2 0x87C3 PUSH2 0x87BE DUP5 PUSH2 0x875C JUMP JUMPDEST PUSH2 0x5CD3 JUMP JUMPDEST SWAP1 POP DUP1 DUP4 DUP3 MSTORE PUSH1 0x20 DUP3 ADD SWAP1 POP PUSH1 0x20 DUP5 MUL DUP4 ADD DUP6 DUP2 GT ISZERO PUSH2 0x87E6 JUMPI PUSH2 0x87E5 PUSH2 0x5FFB JUMP JUMPDEST JUMPDEST DUP4 JUMPDEST DUP2 DUP2 LT ISZERO PUSH2 0x880F JUMPI DUP1 PUSH2 0x87FB DUP9 DUP3 PUSH2 0x879D JUMP JUMPDEST DUP5 MSTORE PUSH1 0x20 DUP5 ADD SWAP4 POP POP PUSH1 0x20 DUP2 ADD SWAP1 POP PUSH2 0x87E8 JUMP JUMPDEST POP POP POP SWAP4 SWAP3 POP POP POP JUMP JUMPDEST PUSH0 DUP3 PUSH1 0x1F DUP4 ADD SLT PUSH2 0x882D JUMPI PUSH2 0x882C PUSH2 0x5C6D JUMP JUMPDEST JUMPDEST DUP2 MLOAD PUSH2 0x883D DUP5 DUP3 PUSH1 0x20 DUP7 ADD PUSH2 0x87B1 JUMP JUMPDEST SWAP2 POP POP SWAP3 SWAP2 POP POP JUMP JUMPDEST PUSH0 PUSH2 0x260 DUP3 DUP5 SUB SLT ISZERO PUSH2 0x885C JUMPI PUSH2 0x885B PUSH2 0x6054 JUMP JUMPDEST JUMPDEST PUSH2 0x8867 PUSH2 0x260 PUSH2 0x5CD3 JUMP JUMPDEST SWAP1 POP PUSH0 PUSH2 0x8876 DUP5 DUP3 DUP6 ADD PUSH2 0x7447 JUMP JUMPDEST PUSH0 DUP4 ADD MSTORE POP PUSH1 0x20 PUSH2 0x8889 DUP5 DUP3 DUP6 ADD PUSH2 0x76DA JUMP JUMPDEST PUSH1 0x20 DUP4 ADD MSTORE POP PUSH1 0x40 PUSH2 0x889D DUP5 DUP3 DUP6 ADD PUSH2 0x76DA JUMP JUMPDEST PUSH1 0x40 DUP4 ADD MSTORE POP PUSH1 0x60 PUSH2 0x88B1 DUP5 DUP3 DUP6 ADD PUSH2 0x7447 JUMP JUMPDEST PUSH1 0x60 DUP4 ADD MSTORE POP PUSH1 0x80 DUP3 ADD MLOAD PUSH8 0xFFFFFFFFFFFFFFFF DUP2 GT ISZERO PUSH2 0x88D5 JUMPI PUSH2 0x88D4 PUSH2 0x6058 JUMP JUMPDEST JUMPDEST PUSH2 0x88E1 DUP5 DUP3 DUP6 ADD PUSH2 0x7531 JUMP JUMPDEST PUSH1 0x80 DUP4 ADD MSTORE POP PUSH1 0xA0 DUP3 ADD MLOAD PUSH8 0xFFFFFFFFFFFFFFFF DUP2 GT ISZERO PUSH2 0x8905 JUMPI PUSH2 0x8904 PUSH2 0x6058 JUMP JUMPDEST JUMPDEST PUSH2 0x8911 DUP5 DUP3 DUP6 ADD PUSH2 0x7531 JUMP JUMPDEST PUSH1 0xA0 DUP4 ADD MSTORE POP PUSH1 0xC0 DUP3 ADD MLOAD PUSH8 0xFFFFFFFFFFFFFFFF DUP2 GT ISZERO PUSH2 0x8935 JUMPI PUSH2 0x8934 PUSH2 0x6058 JUMP JUMPDEST JUMPDEST PUSH2 0x8941 DUP5 DUP3 DUP6 ADD PUSH2 0x8819 JUMP JUMPDEST PUSH1 0xC0 DUP4 ADD MSTORE POP PUSH1 0xE0 DUP3 ADD MLOAD PUSH8 0xFFFFFFFFFFFFFFFF DUP2 GT ISZERO PUSH2 0x8965 JUMPI PUSH2 0x8964 PUSH2 0x6058 JUMP JUMPDEST JUMPDEST PUSH2 0x8971 DUP5 DUP3 DUP6 ADD PUSH2 0x7531 JUMP JUMPDEST PUSH1 0xE0 DUP4 ADD MSTORE POP PUSH2 0x100 DUP3 ADD MLOAD PUSH8 0xFFFFFFFFFFFFFFFF DUP2 GT ISZERO PUSH2 0x8996 JUMPI PUSH2 0x8995 PUSH2 0x6058 JUMP JUMPDEST JUMPDEST PUSH2 0x89A2 DUP5 DUP3 DUP6 ADD PUSH2 0x7531 JUMP JUMPDEST PUSH2 0x100 DUP4 ADD MSTORE POP PUSH2 0x120 DUP3 ADD MLOAD PUSH8 0xFFFFFFFFFFFFFFFF DUP2 GT ISZERO PUSH2 0x89C8 JUMPI PUSH2 0x89C7 PUSH2 0x6058 JUMP JUMPDEST JUMPDEST PUSH2 0x89D4 DUP5 DUP3 DUP6 ADD PUSH2 0x7531 JUMP JUMPDEST PUSH2 0x120 DUP4 ADD MSTORE POP PUSH2 0x140 DUP3 ADD MLOAD PUSH8 0xFFFFFFFFFFFFFFFF DUP2 GT ISZERO PUSH2 0x89FA JUMPI PUSH2 0x89F9 PUSH2 0x6058 JUMP JUMPDEST JUMPDEST PUSH2 0x8A06 DUP5 DUP3 DUP6 ADD PUSH2 0x7531 JUMP JUMPDEST PUSH2 0x140 DUP4 ADD MSTORE POP PUSH2 0x160 PUSH2 0x8A1C DUP5 DUP3 DUP6 ADD PUSH2 0x7447 JUMP JUMPDEST PUSH2 0x160 DUP4 ADD MSTORE POP PUSH2 0x180 PUSH2 0x8A32 DUP5 DUP3 DUP6 ADD PUSH2 0x832E JUMP JUMPDEST PUSH2 0x180 DUP4 ADD MSTORE POP PUSH2 0x1A0 PUSH2 0x8A48 DUP5 DUP3 DUP6 ADD PUSH2 0x832E JUMP JUMPDEST PUSH2 0x1A0 DUP4 ADD MSTORE POP PUSH2 0x1C0 PUSH2 0x8A5E DUP5 DUP3 DUP6 ADD PUSH2 0x879D JUMP JUMPDEST PUSH2 0x1C0 DUP4 ADD MSTORE POP PUSH2 0x1E0 PUSH2 0x8A74 DUP5 DUP3 DUP6 ADD PUSH2 0x7447 JUMP JUMPDEST PUSH2 0x1E0 DUP4 ADD MSTORE POP PUSH2 0x200 PUSH2 0x8A8A DUP5 DUP3 DUP6 ADD PUSH2 0x7447 JUMP JUMPDEST PUSH2 0x200 DUP4 ADD MSTORE POP PUSH2 0x220 PUSH2 0x8AA0 DUP5 DUP3 DUP6 ADD PUSH2 0x832E JUMP JUMPDEST PUSH2 0x220 DUP4 ADD MSTORE POP PUSH2 0x240 PUSH2 0x8AB6 DUP5 DUP3 DUP6 ADD PUSH2 0x7447 JUMP JUMPDEST PUSH2 0x240 DUP4 ADD MSTORE POP SWAP3 SWAP2 POP POP JUMP JUMPDEST PUSH0 PUSH2 0x8AD5 PUSH2 0x8AD0 DUP5 PUSH2 0x8731 JUMP JUMPDEST PUSH2 0x5CD3 JUMP JUMPDEST SWAP1 POP DUP1 DUP4 DUP3 MSTORE PUSH1 0x20 DUP3 ADD SWAP1 POP PUSH1 0x20 DUP5 MUL DUP4 ADD DUP6 DUP2 GT ISZERO PUSH2 0x8AF8 JUMPI PUSH2 0x8AF7 PUSH2 0x5FFB JUMP JUMPDEST JUMPDEST DUP4 JUMPDEST DUP2 DUP2 LT ISZERO PUSH2 0x8B3F JUMPI DUP1 MLOAD PUSH8 0xFFFFFFFFFFFFFFFF DUP2 GT ISZERO PUSH2 0x8B1D JUMPI PUSH2 0x8B1C PUSH2 0x5C6D JUMP JUMPDEST JUMPDEST DUP1 DUP7 ADD PUSH2 0x8B2A DUP10 DUP3 PUSH2 0x8846 JUMP JUMPDEST DUP6 MSTORE PUSH1 0x20 DUP6 ADD SWAP5 POP POP POP PUSH1 0x20 DUP2 ADD SWAP1 POP PUSH2 0x8AFA JUMP JUMPDEST POP POP POP SWAP4 SWAP3 POP POP POP JUMP JUMPDEST PUSH0 DUP3 PUSH1 0x1F DUP4 ADD SLT PUSH2 0x8B5D JUMPI PUSH2 0x8B5C PUSH2 0x5C6D JUMP JUMPDEST JUMPDEST DUP2 MLOAD PUSH2 0x8B6D DUP5 DUP3 PUSH1 0x20 DUP7 ADD PUSH2 0x8AC3 JUMP JUMPDEST SWAP2 POP POP SWAP3 SWAP2 POP POP JUMP JUMPDEST PUSH0 PUSH1 0x20 DUP3 DUP5 SUB SLT ISZERO PUSH2 0x8B8B JUMPI PUSH2 0x8B8A PUSH2 0x5591 JUMP JUMPDEST JUMPDEST PUSH0 DUP3 ADD MLOAD PUSH8 0xFFFFFFFFFFFFFFFF DUP2 GT ISZERO PUSH2 0x8BA8 JUMPI PUSH2 0x8BA7 PUSH2 0x5595 JUMP JUMPDEST JUMPDEST PUSH2 0x8BB4 DUP5 DUP3 DUP6 ADD PUSH2 0x8B49 JUMP JUMPDEST SWAP2 POP POP SWAP3 SWAP2 POP POP JUMP JUMPDEST PUSH0 PUSH8 0xFFFFFFFFFFFFFFFF DUP3 GT ISZERO PUSH2 0x8BD7 JUMPI PUSH2 0x8BD6 PUSH2 0x5C75 JUMP JUMPDEST JUMPDEST PUSH1 0x20 DUP3 MUL SWAP1 POP PUSH1 0x20 DUP2 ADD SWAP1 POP SWAP2 SWAP1 POP JUMP JUMPDEST PUSH0 PUSH1 0x60 DUP3 DUP5 SUB SLT ISZERO PUSH2 0x8BFD JUMPI PUSH2 0x8BFC PUSH2 0x6054 JUMP JUMPDEST JUMPDEST PUSH2 0x8C07 PUSH1 0x60 PUSH2 0x5CD3 JUMP JUMPDEST SWAP1 POP PUSH0 PUSH2 0x8C16 DUP5 DUP3 DUP6 ADD PUSH2 0x832E JUMP JUMPDEST PUSH0 DUP4 ADD MSTORE POP PUSH1 0x20 PUSH2 0x8C29 DUP5 DUP3 DUP6 ADD PUSH2 0x7447 JUMP JUMPDEST PUSH1 0x20 DUP4 ADD MSTORE POP PUSH1 0x40 PUSH2 0x8C3D DUP5 DUP3 DUP6 ADD PUSH2 0x76DA JUMP JUMPDEST PUSH1 0x40 DUP4 ADD MSTORE POP SWAP3 SWAP2 POP POP JUMP JUMPDEST PUSH0 PUSH2 0x8C5B PUSH2 0x8C56 DUP5 PUSH2 0x8BBD JUMP JUMPDEST PUSH2 0x5CD3 JUMP JUMPDEST SWAP1 POP DUP1 DUP4 DUP3 MSTORE PUSH1 0x20 DUP3 ADD SWAP1 POP PUSH1 0x60 DUP5 MUL DUP4 ADD DUP6 DUP2 GT ISZERO PUSH2 0x8C7E JUMPI PUSH2 0x8C7D PUSH2 0x5FFB JUMP JUMPDEST JUMPDEST DUP4 JUMPDEST DUP2 DUP2 LT ISZERO PUSH2 0x8CA7 JUMPI DUP1 PUSH2 0x8C93 DUP9 DUP3 PUSH2 0x8BE8 JUMP JUMPDEST DUP5 MSTORE PUSH1 0x20 DUP5 ADD SWAP4 POP POP PUSH1 0x60 DUP2 ADD SWAP1 POP PUSH2 0x8C80 JUMP JUMPDEST POP POP POP SWAP4 SWAP3 POP POP POP JUMP JUMPDEST PUSH0 DUP3 PUSH1 0x1F DUP4 ADD SLT PUSH2 0x8CC5 JUMPI PUSH2 0x8CC4 PUSH2 0x5C6D JUMP JUMPDEST JUMPDEST DUP2 MLOAD PUSH2 0x8CD5 DUP5 DUP3 PUSH1 0x20 DUP7 ADD PUSH2 0x8C49 JUMP JUMPDEST SWAP2 POP POP SWAP3 SWAP2 POP POP JUMP JUMPDEST PUSH0 PUSH1 0x20 DUP3 DUP5 SUB SLT ISZERO PUSH2 0x8CF3 JUMPI PUSH2 0x8CF2 PUSH2 0x5591 JUMP JUMPDEST JUMPDEST PUSH0 DUP3 ADD MLOAD PUSH8 0xFFFFFFFFFFFFFFFF DUP2 GT ISZERO PUSH2 0x8D10 JUMPI PUSH2 0x8D0F PUSH2 0x5595 JUMP JUMPDEST JUMPDEST PUSH2 0x8D1C DUP5 DUP3 DUP6 ADD PUSH2 0x8CB1 JUMP JUMPDEST SWAP2 POP POP SWAP3 SWAP2 POP POP JUMP JUMPDEST PUSH0 PUSH8 0xFFFFFFFFFFFFFFFF DUP3 GT ISZERO PUSH2 0x8D3F JUMPI PUSH2 0x8D3E PUSH2 0x5C75 JUMP JUMPDEST JUMPDEST PUSH1 0x20 DUP3 MUL SWAP1 POP PUSH1 0x20 DUP2 ADD SWAP1 POP SWAP2 SWAP1 POP JUMP JUMPDEST PUSH0 PUSH1 0xA0 DUP3 DUP5 SUB SLT ISZERO PUSH2 0x8D65 JUMPI PUSH2 0x8D64 PUSH2 0x6054 JUMP JUMPDEST JUMPDEST PUSH2 0x8D6F PUSH1 0xA0 PUSH2 0x5CD3 JUMP JUMPDEST SWAP1 POP PUSH0 PUSH2 0x8D7E DUP5 DUP3 DUP6 ADD PUSH2 0x7447 JUMP JUMPDEST PUSH0 DUP4 ADD MSTORE POP PUSH1 0x20 PUSH2 0x8D91 DUP5 DUP3 DUP6 ADD PUSH2 0x7447 JUMP JUMPDEST PUSH1 0x20 DUP4 ADD MSTORE POP PUSH1 0x40 PUSH2 0x8DA5 DUP5 DUP3 DUP6 ADD PUSH2 0x7447 JUMP JUMPDEST PUSH1 0x40 DUP4 ADD MSTORE POP PUSH1 0x60 PUSH2 0x8DB9 DUP5 DUP3 DUP6 ADD PUSH2 0x879D JUMP JUMPDEST PUSH1 0x60 DUP4 ADD MSTORE POP PUSH1 0x80 PUSH2 0x8DCD DUP5 DUP3 DUP6 ADD PUSH2 0x7447 JUMP JUMPDEST PUSH1 0x80 DUP4 ADD MSTORE POP SWAP3 SWAP2 POP POP JUMP JUMPDEST PUSH0 PUSH2 0x8DEB PUSH2 0x8DE6 DUP5 PUSH2 0x8D25 JUMP JUMPDEST PUSH2 0x5CD3 JUMP JUMPDEST SWAP1 POP DUP1 DUP4 DUP3 MSTORE PUSH1 0x20 DUP3 ADD SWAP1 POP PUSH1 0xA0 DUP5 MUL DUP4 ADD DUP6 DUP2 GT ISZERO PUSH2 0x8E0E JUMPI PUSH2 0x8E0D PUSH2 0x5FFB JUMP JUMPDEST JUMPDEST DUP4 JUMPDEST DUP2 DUP2 LT ISZERO PUSH2 0x8E37 JUMPI DUP1 PUSH2 0x8E23 DUP9 DUP3 PUSH2 0x8D50 JUMP JUMPDEST DUP5 MSTORE PUSH1 0x20 DUP5 ADD SWAP4 POP POP PUSH1 0xA0 DUP2 ADD SWAP1 POP PUSH2 0x8E10 JUMP JUMPDEST POP POP POP SWAP4 SWAP3 POP POP POP JUMP JUMPDEST PUSH0 DUP3 PUSH1 0x1F DUP4 ADD SLT PUSH2 0x8E55 JUMPI PUSH2 0x8E54 PUSH2 0x5C6D JUMP JUMPDEST JUMPDEST DUP2 MLOAD PUSH2 0x8E65 DUP5 DUP3 PUSH1 0x20 DUP7 ADD PUSH2 0x8DD9 JUMP JUMPDEST SWAP2 POP POP SWAP3 SWAP2 POP POP JUMP JUMPDEST PUSH0 PUSH1 0x60 DUP3 DUP5 SUB SLT ISZERO PUSH2 0x8E83 JUMPI PUSH2 0x8E82 PUSH2 0x6054 JUMP JUMPDEST JUMPDEST PUSH2 0x8E8D PUSH1 0x60 PUSH2 0x5CD3 JUMP JUMPDEST SWAP1 POP PUSH0 PUSH2 0x8E9C DUP5 DUP3 DUP6 ADD PUSH2 0x7447 JUMP JUMPDEST PUSH0 DUP4 ADD MSTORE POP PUSH1 0x20 PUSH2 0x8EAF DUP5 DUP3 DUP6 ADD PUSH2 0x76DA JUMP JUMPDEST PUSH1 0x20 DUP4 ADD MSTORE POP PUSH1 0x40 DUP3 ADD MLOAD PUSH8 0xFFFFFFFFFFFFFFFF DUP2 GT ISZERO PUSH2 0x8ED3 JUMPI PUSH2 0x8ED2 PUSH2 0x6058 JUMP JUMPDEST JUMPDEST PUSH2 0x8EDF DUP5 DUP3 DUP6 ADD PUSH2 0x8E41 JUMP JUMPDEST PUSH1 0x40 DUP4 ADD MSTORE POP SWAP3 SWAP2 POP POP JUMP JUMPDEST PUSH0 PUSH1 0x20 DUP3 DUP5 SUB SLT ISZERO PUSH2 0x8F00 JUMPI PUSH2 0x8EFF PUSH2 0x5591 JUMP JUMPDEST JUMPDEST PUSH0 DUP3 ADD MLOAD PUSH8 0xFFFFFFFFFFFFFFFF DUP2 GT ISZERO PUSH2 0x8F1D JUMPI PUSH2 0x8F1C PUSH2 0x5595 JUMP JUMPDEST JUMPDEST PUSH2 0x8F29 DUP5 DUP3 DUP6 ADD PUSH2 0x8E6E JUMP JUMPDEST SWAP2 POP POP SWAP3 SWAP2 POP POP JUMP JUMPDEST PUSH0 PUSH8 0xFFFFFFFFFFFFFFFF DUP3 GT ISZERO PUSH2 0x8F4C JUMPI PUSH2 0x8F4B PUSH2 0x5C75 JUMP JUMPDEST JUMPDEST PUSH1 0x20 DUP3 MUL SWAP1 POP PUSH1 0x20 DUP2 ADD SWAP1 POP SWAP2 SWAP1 POP JUMP JUMPDEST PUSH0 PUSH1 0x40 DUP3 DUP5 SUB SLT ISZERO PUSH2 0x8F72 JUMPI PUSH2 0x8F71 PUSH2 0x6054 JUMP JUMPDEST JUMPDEST PUSH2 0x8F7C PUSH1 0x40 PUSH2 0x5CD3 JUMP JUMPDEST SWAP1 POP PUSH0 PUSH2 0x8F8B DUP5 DUP3 DUP6 ADD PUSH2 0x7447 JUMP JUMPDEST PUSH0 DUP4 ADD MSTORE POP PUSH1 0x20 PUSH2 0x8F9E DUP5 DUP3 DUP6 ADD PUSH2 0x7447 JUMP JUMPDEST PUSH1 0x20 DUP4 ADD MSTORE POP SWAP3 SWAP2 POP POP JUMP JUMPDEST PUSH0 PUSH2 0x8FBC PUSH2 0x8FB7 DUP5 PUSH2 0x8F32 JUMP JUMPDEST PUSH2 0x5CD3 JUMP JUMPDEST SWAP1 POP DUP1 DUP4 DUP3 MSTORE PUSH1 0x20 DUP3 ADD SWAP1 POP PUSH1 0x40 DUP5 MUL DUP4 ADD DUP6 DUP2 GT ISZERO PUSH2 0x8FDF JUMPI PUSH2 0x8FDE PUSH2 0x5FFB JUMP JUMPDEST JUMPDEST DUP4 JUMPDEST DUP2 DUP2 LT ISZERO PUSH2 0x9008 JUMPI DUP1 PUSH2 0x8FF4 DUP9 DUP3 PUSH2 0x8F5D JUMP JUMPDEST DUP5 MSTORE PUSH1 0x20 DUP5 ADD SWAP4 POP POP PUSH1 0x40 DUP2 ADD SWAP1 POP PUSH2 0x8FE1 JUMP JUMPDEST POP POP POP SWAP4 SWAP3 POP POP POP JUMP JUMPDEST PUSH0 DUP3 PUSH1 0x1F DUP4 ADD SLT PUSH2 0x9026 JUMPI PUSH2 0x9025 PUSH2 0x5C6D JUMP JUMPDEST JUMPDEST DUP2 MLOAD PUSH2 0x9036 DUP5 DUP3 PUSH1 0x20 DUP7 ADD PUSH2 0x8FAA JUMP JUMPDEST SWAP2 POP POP SWAP3 SWAP2 POP POP JUMP JUMPDEST PUSH0 PUSH1 0x20 DUP3 DUP5 SUB SLT ISZERO PUSH2 0x9054 JUMPI PUSH2 0x9053 PUSH2 0x5591 JUMP JUMPDEST JUMPDEST PUSH0 DUP3 ADD MLOAD PUSH8 0xFFFFFFFFFFFFFFFF DUP2 GT ISZERO PUSH2 0x9071 JUMPI PUSH2 0x9070 PUSH2 0x5595 JUMP JUMPDEST JUMPDEST PUSH2 0x907D DUP5 DUP3 DUP6 ADD PUSH2 0x9012 JUMP JUMPDEST SWAP2 POP POP SWAP3 SWAP2 POP POP JUMP JUMPDEST PUSH32 0x4E487B7100000000000000000000000000000000000000000000000000000000 PUSH0 MSTORE PUSH1 0x12 PUSH1 0x4 MSTORE PUSH1 0x24 PUSH0 REVERT JUMPDEST PUSH32 0x4E487B7100000000000000000000000000000000000000000000000000000000 PUSH0 MSTORE PUSH1 0x21 PUSH1 0x4 MSTORE PUSH1 0x24 PUSH0 REVERT JUMPDEST PUSH0 DUP2 MLOAD SWAP1 POP SWAP2 SWAP1 POP JUMP JUMPDEST PUSH0 DUP3 DUP3 MSTORE PUSH1 0x20 DUP3 ADD SWAP1 POP SWAP3 SWAP2 POP POP JUMP JUMPDEST PUSH0 DUP2 SWAP1 POP PUSH1 0x20 DUP3 ADD SWAP1 POP SWAP2 SWAP1 POP JUMP JUMPDEST PUSH0 PUSH2 0x9114 DUP4 DUP4 PUSH2 0x57C0 JUMP JUMPDEST SWAP1 POP SWAP3 SWAP2 POP POP JUMP JUMPDEST PUSH0 PUSH1 0x20 DUP3 ADD SWAP1 POP SWAP2 SWAP1 POP JUMP JUMPDEST PUSH0 PUSH2 0x9132 DUP3 PUSH2 0x90E0 JUMP JUMPDEST PUSH2 0x913C DUP2 DUP6 PUSH2 0x90EA JUMP JUMPDEST SWAP4 POP DUP4 PUSH1 0x20 DUP3 MUL DUP6 ADD PUSH2 0x914E DUP6 PUSH2 0x90FA JUMP JUMPDEST DUP1 PUSH0 JUMPDEST DUP6 DUP2 LT ISZERO PUSH2 0x9189 JUMPI DUP5 DUP5 SUB DUP10 MSTORE DUP2 MLOAD PUSH2 0x916A DUP6 DUP3 PUSH2 0x9109 JUMP JUMPDEST SWAP5 POP PUSH2 0x9175 DUP4 PUSH2 0x911C JUMP JUMPDEST SWAP3 POP PUSH1 0x20 DUP11 ADD SWAP10 POP POP PUSH1 0x1 DUP2 ADD SWAP1 POP PUSH2 0x9151 JUMP JUMPDEST POP DUP3 SWAP8 POP DUP8 SWAP6 POP POP POP POP POP POP SWAP3 SWAP2 POP POP JUMP JUMPDEST PUSH0 PUSH1 0x20 DUP3 ADD SWAP1 POP DUP2 DUP2 SUB PUSH0 DUP4 ADD MSTORE PUSH2 0x91B3 DUP2 DUP5 PUSH2 0x9128 JUMP JUMPDEST SWAP1 POP SWAP3 SWAP2 POP POP JUMP JUMPDEST PUSH0 PUSH2 0x91C5 DUP3 PUSH2 0x55F3 JUMP JUMPDEST SWAP2 POP PUSH2 0x91D0 DUP4 PUSH2 0x55F3 JUMP JUMPDEST SWAP3 POP DUP3 DUP3 ADD SWAP1 POP DUP1 DUP3 GT ISZERO PUSH2 0x91E8 JUMPI PUSH2 0x91E7 PUSH2 0x7231 JUMP JUMPDEST JUMPDEST SWAP3 SWAP2 POP POP JUMP INVALID BLOBHASH PUSH15 0x76616C696420636F756E7420746F74 PUSH2 0x6C20 PUSH4 0x6F6D6D65 PUSH15 0x7420616E6420666171496E76616C69 PUSH5 0x20636F756E PUSH21 0x3A20746F74616C2073797374656D20616464656420 PUSH21 0x6F2063617274496E76616C696420636F756E743A20 PUSH21 0x6F74616C2073797374656D206661766F7269746549 PUSH15 0x76616C696420636F756E743A207265 PUSH21 0x61696C657220616464656420746F2063617274A264 PUSH10 0x706673582212205DD268 MSIZE ADDMOD PUSH24 0x9DE98F266F424FD3A5CCA5D0DD54822190976904DAAF2315 0x26 0xD0 PUSH5 0x736F6C6343 STOP ADDMOD BYTE STOP CALLER "
		},
		"gasEstimates": {
			"creation": {
				"codeDepositCost": "7512200",
				"executionCost": "106953",
				"totalCost": "7619153"
			},
			"external": {
				"EcomOrder()": "infinite",
				"EcomProduct()": "infinite",
				"EcomUser()": "infinite",
				"SetEcomOrder(address)": "27221",
				"SetEcomProduct(address)": "27177",
				"SetEcomUser(address)": "27154",
				"admins(uint256)": "5058",
				"bestSellers(uint256)": "infinite",
				"createListTrackUser((string,uint8,address,uint256[],uint256[]))": "infinite",
				"decreaseTotalAddedToCart(address)": "infinite",
				"decreaseTotalCommentAndFaq()": "infinite",
				"decreaseTotalFavorite(address)": "infinite",
				"deleteListTrackUser(string)": "infinite",
				"getBestSeller()": "infinite",
				"getErrorMessage(uint256,string)": "infinite",
				"getListTrackAdmin()": "infinite",
				"getListTrackRetailer()": "infinite",
				"getListTrackUser()": "infinite",
				"getListTrackUserActivityRetailer()": "infinite",
				"getListTrackUserActivitySystem()": "infinite",
				"getListTrackUserRetailer()": "infinite",
				"getOrderHistoryDetail()": "infinite",
				"getProductPurchaseTrend(uint256)": "infinite",
				"getProductTrend(uint256)": "infinite",
				"getRecentPurchases()": "infinite",
				"getRetailerAddedToCart()": "2654",
				"getRetailerFavorite()": "2631",
				"getSystemAddedToCart()": "4760",
				"getSystemFavorite()": "4762",
				"getSystemInfo()": "infinite",
				"getSystemProductPurchase()": "infinite",
				"getTotalProductViewCount()": "infinite",
				"getUserPurchaseInfo(address)": "infinite",
				"increaseBestSeller(uint256)": "infinite",
				"increaseCountryPurchases(string,(uint256,uint256))": "infinite",
				"increaseProductPurchaseTrend(uint256)": "47007",
				"increasePurchases(address,uint256)": "infinite",
				"increaseTotalAddedToCart(address)": "infinite",
				"increaseTotalCommentAndFaq()": "24629",
				"increaseTotalFavorite(address)": "infinite",
				"listTrackUserActivityRetailer(address,uint256)": "infinite",
				"listTrackUserActivitySystem(uint256)": "7414",
				"listTrackUserSystem(uint256)": "infinite",
				"mAdmin(address)": "2901",
				"mCountryPurchases(string,uint256)": "infinite",
				"mListTrackUserRetailer(address,uint256)": "infinite",
				"mProductPurchaseTrend(uint256,uint256)": "infinite",
				"mProductSearchTrend(uint256,uint256)": "infinite",
				"mProductViewCount(uint256)": "infinite",
				"mPurchases(address,uint256)": "infinite",
				"owner()": "2599",
				"removeUserActivity(address,uint256,address,bool)": "infinite",
				"setAdmin(address)": "75841",
				"systemPurchases(uint256)": "infinite",
				"totalCommentAndFAQ()": "2536",
				"totalRetailerAddedToCart(address)": "2935",
				"totalRetailerFavorite(address)": "2891",
				"totalSystemAddedToCart()": "2559",
				"totalSystemFavorite()": "2491",
				"totalSystemProductShare()": "2514",
				"totalSystemPurchasePrice()": "2537",
				"totalSystemVisitors()": "2535",
				"trackUserActivity(address,uint256,uint256,address,uint8,bool)": "infinite",
				"updateProductShare()": "24630",
				"updateViewCount(uint256)": "infinite",
				"updateWebsiteVisitors()": "24585"
			},
			"internal": {
				"createNewUserActivity(uint256,uint256,enum TrackActivityType)": "infinite",
				"getRetailersUsername(address[] memory)": "infinite",
				"removeUserActivityItem(struct AddedToCartAndWishList storage pointer,uint256)": "infinite",
				"removeUserFromActivityList(struct AddedToCartAndWishList storage ref[] storage pointer,uint256)": "infinite"
			}
		},
		"methodIdentifiers": {
			"EcomOrder()": "32f39436",
			"EcomProduct()": "a354f1b2",
			"EcomUser()": "4d5c5fd7",
			"SetEcomOrder(address)": "44089cd1",
			"SetEcomProduct(address)": "62de6230",
			"SetEcomUser(address)": "cac0e650",
			"admins(uint256)": "14bfd6d0",
			"bestSellers(uint256)": "409b2cdf",
			"createListTrackUser((string,uint8,address,uint256[],uint256[]))": "8ef58635",
			"decreaseTotalAddedToCart(address)": "92a198d5",
			"decreaseTotalCommentAndFaq()": "6f2069f0",
			"decreaseTotalFavorite(address)": "c0a22771",
			"deleteListTrackUser(string)": "6a7434e5",
			"getBestSeller()": "2c9aefe9",
			"getErrorMessage(uint256,string)": "2248632a",
			"getListTrackAdmin()": "2075bd3c",
			"getListTrackRetailer()": "bc43b9cc",
			"getListTrackUser()": "86acd564",
			"getListTrackUserActivityRetailer()": "467956ef",
			"getListTrackUserActivitySystem()": "9a761c4d",
			"getListTrackUserRetailer()": "edafaf63",
			"getOrderHistoryDetail()": "ac3b394f",
			"getProductPurchaseTrend(uint256)": "70e8e53c",
			"getProductTrend(uint256)": "32fd9850",
			"getRecentPurchases()": "abb4ca99",
			"getRetailerAddedToCart()": "35890aad",
			"getRetailerFavorite()": "aa29eac7",
			"getSystemAddedToCart()": "ac5fae69",
			"getSystemFavorite()": "13badcb8",
			"getSystemInfo()": "6cb69f42",
			"getSystemProductPurchase()": "f53bc6e3",
			"getTotalProductViewCount()": "795ec6d4",
			"getUserPurchaseInfo(address)": "e6801ac7",
			"increaseBestSeller(uint256)": "8286980c",
			"increaseCountryPurchases(string,(uint256,uint256))": "3d3a9748",
			"increaseProductPurchaseTrend(uint256)": "b34210e1",
			"increasePurchases(address,uint256)": "5b956627",
			"increaseTotalAddedToCart(address)": "f954ed2d",
			"increaseTotalCommentAndFaq()": "f857d617",
			"increaseTotalFavorite(address)": "eda162e7",
			"listTrackUserActivityRetailer(address,uint256)": "022de34c",
			"listTrackUserActivitySystem(uint256)": "ca6a7502",
			"listTrackUserSystem(uint256)": "e27ea4a7",
			"mAdmin(address)": "9ddf2e95",
			"mCountryPurchases(string,uint256)": "9075c290",
			"mListTrackUserRetailer(address,uint256)": "989868ed",
			"mProductPurchaseTrend(uint256,uint256)": "b94aead5",
			"mProductSearchTrend(uint256,uint256)": "158d3474",
			"mProductViewCount(uint256)": "1738408d",
			"mPurchases(address,uint256)": "4e581680",
			"owner()": "8da5cb5b",
			"removeUserActivity(address,uint256,address,bool)": "d24043cb",
			"setAdmin(address)": "704b6c02",
			"systemPurchases(uint256)": "4fa3c56f",
			"totalCommentAndFAQ()": "7e0833ca",
			"totalRetailerAddedToCart(address)": "d6376aea",
			"totalRetailerFavorite(address)": "7be740c9",
			"totalSystemAddedToCart()": "9cde636e",
			"totalSystemFavorite()": "79d3f776",
			"totalSystemProductShare()": "cece999f",
			"totalSystemPurchasePrice()": "4323323a",
			"totalSystemVisitors()": "f62dd1ee",
			"trackUserActivity(address,uint256,uint256,address,uint8,bool)": "8aa393ac",
			"updateProductShare()": "b34d644a",
			"updateViewCount(uint256)": "32aca62b",
			"updateWebsiteVisitors()": "f5548899"
		}
	},
	"abi": [
		{
			"inputs": [],
			"stateMutability": "payable",
			"type": "constructor"
		},
		{
			"inputs": [],
			"name": "EcomOrder",
			"outputs": [
				{
					"internalType": "contract IEcomOrder",
					"name": "",
					"type": "address"
				}
			],
			"stateMutability": "view",
			"type": "function"
		},
		{
			"inputs": [],
			"name": "EcomProduct",
			"outputs": [
				{
					"internalType": "contract IEcomProduct",
					"name": "",
					"type": "address"
				}
			],
			"stateMutability": "view",
			"type": "function"
		},
		{
			"inputs": [],
			"name": "EcomUser",
			"outputs": [
				{
					"internalType": "contract IEcomUser",
					"name": "",
					"type": "address"
				}
			],
			"stateMutability": "view",
			"type": "function"
		},
		{
			"inputs": [
				{
					"internalType": "address",
					"name": "_ecomOrder",
					"type": "address"
				}
			],
			"name": "SetEcomOrder",
			"outputs": [
				{
					"internalType": "bool",
					"name": "",
					"type": "bool"
				}
			],
			"stateMutability": "nonpayable",
			"type": "function"
		},
		{
			"inputs": [
				{
					"internalType": "address",
					"name": "_ecomProduct",
					"type": "address"
				}
			],
			"name": "SetEcomProduct",
			"outputs": [
				{
					"internalType": "bool",
					"name": "",
					"type": "bool"
				}
			],
			"stateMutability": "nonpayable",
			"type": "function"
		},
		{
			"inputs": [
				{
					"internalType": "address",
					"name": "_ecomUser",
					"type": "address"
				}
			],
			"name": "SetEcomUser",
			"outputs": [
				{
					"internalType": "bool",
					"name": "",
					"type": "bool"
				}
			],
			"stateMutability": "nonpayable",
			"type": "function"
		},
		{
			"inputs": [
				{
					"internalType": "uint256",
					"name": "",
					"type": "uint256"
				}
			],
			"name": "admins",
			"outputs": [
				{
					"internalType": "address",
					"name": "",
					"type": "address"
				}
			],
			"stateMutability": "view",
			"type": "function"
		},
		{
			"inputs": [
				{
					"internalType": "uint256",
					"name": "",
					"type": "uint256"
				}
			],
			"name": "bestSellers",
			"outputs": [
				{
					"internalType": "uint256",
					"name": "productID",
					"type": "uint256"
				},
				{
					"internalType": "uint256",
					"name": "sold",
					"type": "uint256"
				},
				{
					"internalType": "uint256",
					"name": "timestamp",
					"type": "uint256"
				}
			],
			"stateMutability": "view",
			"type": "function"
		},
		{
			"inputs": [
				{
					"components": [
						{
							"internalType": "string",
							"name": "orderID",
							"type": "string"
						},
						{
							"internalType": "uint8",
							"name": "trackType",
							"type": "uint8"
						},
						{
							"internalType": "address",
							"name": "customer",
							"type": "address"
						},
						{
							"internalType": "uint256[]",
							"name": "productIds",
							"type": "uint256[]"
						},
						{
							"internalType": "uint256[]",
							"name": "quantities",
							"type": "uint256[]"
						}
					],
					"internalType": "struct createListTrackUserParams",
					"name": "params",
					"type": "tuple"
				}
			],
			"name": "createListTrackUser",
			"outputs": [],
			"stateMutability": "nonpayable",
			"type": "function"
		},
		{
			"inputs": [
				{
					"internalType": "address",
					"name": "_retailer",
					"type": "address"
				}
			],
			"name": "decreaseTotalAddedToCart",
			"outputs": [],
			"stateMutability": "nonpayable",
			"type": "function"
		},
		{
			"inputs": [],
			"name": "decreaseTotalCommentAndFaq",
			"outputs": [],
			"stateMutability": "nonpayable",
			"type": "function"
		},
		{
			"inputs": [
				{
					"internalType": "address",
					"name": "_retailer",
					"type": "address"
				}
			],
			"name": "decreaseTotalFavorite",
			"outputs": [],
			"stateMutability": "nonpayable",
			"type": "function"
		},
		{
			"inputs": [
				{
					"internalType": "string",
					"name": "_orderID",
					"type": "string"
				}
			],
			"name": "deleteListTrackUser",
			"outputs": [],
			"stateMutability": "nonpayable",
			"type": "function"
		},
		{
			"inputs": [],
			"name": "getBestSeller",
			"outputs": [
				{
					"components": [
						{
							"internalType": "uint256",
							"name": "productID",
							"type": "uint256"
						},
						{
							"internalType": "uint256",
							"name": "sold",
							"type": "uint256"
						},
						{
							"internalType": "uint256",
							"name": "timestamp",
							"type": "uint256"
						}
					],
					"internalType": "struct BestSeller[]",
					"name": "",
					"type": "tuple[]"
				}
			],
			"stateMutability": "view",
			"type": "function"
		},
		{
			"inputs": [
				{
					"internalType": "uint256",
					"name": "code",
					"type": "uint256"
				},
				{
					"internalType": "string",
					"name": "message",
					"type": "string"
				}
			],
			"name": "getErrorMessage",
			"outputs": [
				{
					"internalType": "string",
					"name": "",
					"type": "string"
				}
			],
			"stateMutability": "pure",
			"type": "function"
		},
		{
			"inputs": [],
			"name": "getListTrackAdmin",
			"outputs": [
				{
					"components": [
						{
							"internalType": "string",
							"name": "orderID",
							"type": "string"
						},
						{
							"internalType": "uint8",
							"name": "trackType",
							"type": "uint8"
						},
						{
							"internalType": "address",
							"name": "customer",
							"type": "address"
						},
						{
							"internalType": "bytes",
							"name": "retailerName",
							"type": "bytes"
						},
						{
							"internalType": "uint256",
							"name": "timestamp",
							"type": "uint256"
						},
						{
							"internalType": "uint256[]",
							"name": "productIds",
							"type": "uint256[]"
						},
						{
							"internalType": "uint256[]",
							"name": "quantities",
							"type": "uint256[]"
						}
					],
					"internalType": "struct ListTrackUser[]",
					"name": "_listTracks",
					"type": "tuple[]"
				},
				{
					"internalType": "uint256",
					"name": "_favorites",
					"type": "uint256"
				},
				{
					"internalType": "uint256",
					"name": "_addedToCarts",
					"type": "uint256"
				},
				{
					"components": [
						{
							"internalType": "address",
							"name": "customer",
							"type": "address"
						},
						{
							"internalType": "uint8",
							"name": "activityType",
							"type": "uint8"
						},
						{
							"internalType": "uint256[]",
							"name": "productIds",
							"type": "uint256[]"
						},
						{
							"internalType": "uint256[]",
							"name": "quantities",
							"type": "uint256[]"
						},
						{
							"internalType": "uint256[]",
							"name": "addedAt",
							"type": "uint256[]"
						}
					],
					"internalType": "struct AddedToCartAndWishList[]",
					"name": "_totalCartWishList",
					"type": "tuple[]"
				},
				{
					"internalType": "uint256[]",
					"name": "_systemPurchases",
					"type": "uint256[]"
				}
			],
			"stateMutability": "view",
			"type": "function"
		},
		{
			"inputs": [],
			"name": "getListTrackRetailer",
			"outputs": [
				{
					"components": [
						{
							"internalType": "string",
							"name": "orderID",
							"type": "string"
						},
						{
							"internalType": "uint8",
							"name": "trackType",
							"type": "uint8"
						},
						{
							"internalType": "address",
							"name": "customer",
							"type": "address"
						},
						{
							"internalType": "bytes",
							"name": "retailerName",
							"type": "bytes"
						},
						{
							"internalType": "uint256",
							"name": "timestamp",
							"type": "uint256"
						},
						{
							"internalType": "uint256[]",
							"name": "productIds",
							"type": "uint256[]"
						},
						{
							"internalType": "uint256[]",
							"name": "quantities",
							"type": "uint256[]"
						}
					],
					"internalType": "struct ListTrackUser[]",
					"name": "_listTracks",
					"type": "tuple[]"
				},
				{
					"internalType": "uint256",
					"name": "_favorites",
					"type": "uint256"
				},
				{
					"internalType": "uint256",
					"name": "_addedToCarts",
					"type": "uint256"
				},
				{
					"components": [
						{
							"internalType": "address",
							"name": "customer",
							"type": "address"
						},
						{
							"internalType": "uint8",
							"name": "activityType",
							"type": "uint8"
						},
						{
							"internalType": "uint256[]",
							"name": "productIds",
							"type": "uint256[]"
						},
						{
							"internalType": "uint256[]",
							"name": "quantities",
							"type": "uint256[]"
						},
						{
							"internalType": "uint256[]",
							"name": "addedAt",
							"type": "uint256[]"
						}
					],
					"internalType": "struct AddedToCartAndWishList[]",
					"name": "_totalCartWishList",
					"type": "tuple[]"
				}
			],
			"stateMutability": "view",
			"type": "function"
		},
		{
			"inputs": [],
			"name": "getListTrackUser",
			"outputs": [
				{
					"components": [
						{
							"internalType": "string",
							"name": "orderID",
							"type": "string"
						},
						{
							"internalType": "uint8",
							"name": "trackType",
							"type": "uint8"
						},
						{
							"internalType": "address",
							"name": "customer",
							"type": "address"
						},
						{
							"internalType": "bytes",
							"name": "retailerName",
							"type": "bytes"
						},
						{
							"internalType": "uint256",
							"name": "timestamp",
							"type": "uint256"
						},
						{
							"internalType": "uint256[]",
							"name": "productIds",
							"type": "uint256[]"
						},
						{
							"internalType": "uint256[]",
							"name": "quantities",
							"type": "uint256[]"
						}
					],
					"internalType": "struct ListTrackUser[]",
					"name": "",
					"type": "tuple[]"
				}
			],
			"stateMutability": "view",
			"type": "function"
		},
		{
			"inputs": [],
			"name": "getListTrackUserActivityRetailer",
			"outputs": [
				{
					"components": [
						{
							"internalType": "address",
							"name": "customer",
							"type": "address"
						},
						{
							"internalType": "uint8",
							"name": "activityType",
							"type": "uint8"
						},
						{
							"internalType": "uint256[]",
							"name": "productIds",
							"type": "uint256[]"
						},
						{
							"internalType": "uint256[]",
							"name": "quantities",
							"type": "uint256[]"
						},
						{
							"internalType": "uint256[]",
							"name": "addedAt",
							"type": "uint256[]"
						}
					],
					"internalType": "struct AddedToCartAndWishList[]",
					"name": "",
					"type": "tuple[]"
				}
			],
			"stateMutability": "view",
			"type": "function"
		},
		{
			"inputs": [],
			"name": "getListTrackUserActivitySystem",
			"outputs": [
				{
					"components": [
						{
							"internalType": "address",
							"name": "customer",
							"type": "address"
						},
						{
							"internalType": "uint8",
							"name": "activityType",
							"type": "uint8"
						},
						{
							"internalType": "uint256[]",
							"name": "productIds",
							"type": "uint256[]"
						},
						{
							"internalType": "uint256[]",
							"name": "quantities",
							"type": "uint256[]"
						},
						{
							"internalType": "uint256[]",
							"name": "addedAt",
							"type": "uint256[]"
						}
					],
					"internalType": "struct AddedToCartAndWishList[]",
					"name": "",
					"type": "tuple[]"
				}
			],
			"stateMutability": "view",
			"type": "function"
		},
		{
			"inputs": [],
			"name": "getListTrackUserRetailer",
			"outputs": [
				{
					"components": [
						{
							"internalType": "string",
							"name": "orderID",
							"type": "string"
						},
						{
							"internalType": "uint8",
							"name": "trackType",
							"type": "uint8"
						},
						{
							"internalType": "address",
							"name": "customer",
							"type": "address"
						},
						{
							"internalType": "bytes",
							"name": "retailerName",
							"type": "bytes"
						},
						{
							"internalType": "uint256",
							"name": "timestamp",
							"type": "uint256"
						},
						{
							"internalType": "uint256[]",
							"name": "productIds",
							"type": "uint256[]"
						},
						{
							"internalType": "uint256[]",
							"name": "quantities",
							"type": "uint256[]"
						}
					],
					"internalType": "struct ListTrackUser[]",
					"name": "",
					"type": "tuple[]"
				}
			],
			"stateMutability": "view",
			"type": "function"
		},
		{
			"inputs": [],
			"name": "getOrderHistoryDetail",
			"outputs": [
				{
					"components": [
						{
							"internalType": "uint256",
							"name": "orderID",
							"type": "uint256"
						},
						{
							"internalType": "address",
							"name": "user",
							"type": "address"
						},
						{
							"internalType": "address",
							"name": "buyer",
							"type": "address"
						},
						{
							"internalType": "uint256",
							"name": "discountID",
							"type": "uint256"
						},
						{
							"internalType": "uint256[]",
							"name": "cartItemIds",
							"type": "uint256[]"
						},
						{
							"internalType": "uint256[]",
							"name": "productIds",
							"type": "uint256[]"
						},
						{
							"internalType": "bytes32[]",
							"name": "variantIds",
							"type": "bytes32[]"
						},
						{
							"internalType": "uint256[]",
							"name": "quantities",
							"type": "uint256[]"
						},
						{
							"internalType": "uint256[]",
							"name": "diffPrices",
							"type": "uint256[]"
						},
						{
							"internalType": "uint256[]",
							"name": "prices",
							"type": "uint256[]"
						},
						{
							"internalType": "uint256[]",
							"name": "rewards",
							"type": "uint256[]"
						},
						{
							"internalType": "uint256",
							"name": "totalPrice",
							"type": "uint256"
						},
						{
							"internalType": "uint8",
							"name": "checkoutType",
							"type": "uint8"
						},
						{
							"internalType": "uint8",
							"name": "orderStatus",
							"type": "uint8"
						},
						{
							"internalType": "bytes32",
							"name": "codeRef",
							"type": "bytes32"
						},
						{
							"internalType": "uint256",
							"name": "afterDiscountPrice",
							"type": "uint256"
						},
						{
							"internalType": "uint256",
							"name": "shippingPrice",
							"type": "uint256"
						},
						{
							"internalType": "uint8",
							"name": "paymentType",
							"type": "uint8"
						},
						{
							"internalType": "uint256",
							"name": "createdAt",
							"type": "uint256"
						}
					],
					"internalType": "struct Order[]",
					"name": "_orders",
					"type": "tuple[]"
				},
				{
					"components": [
						{
							"internalType": "uint8",
							"name": "paymentType",
							"type": "uint8"
						},
						{
							"internalType": "uint256",
							"name": "totalPayment",
							"type": "uint256"
						},
						{
							"internalType": "address",
							"name": "buyer",
							"type": "address"
						}
					],
					"internalType": "struct PaymentHistory[]",
					"name": "_payments",
					"type": "tuple[]"
				},
				{
					"components": [
						{
							"internalType": "uint256",
							"name": "productID",
							"type": "uint256"
						},
						{
							"internalType": "uint256",
							"name": "buyAt",
							"type": "uint256"
						}
					],
					"internalType": "struct Purchase[]",
					"name": "_purchases",
					"type": "tuple[]"
				}
			],
			"stateMutability": "view",
			"type": "function"
		},
		{
			"inputs": [
				{
					"internalType": "uint256",
					"name": "_productID",
					"type": "uint256"
				}
			],
			"name": "getProductPurchaseTrend",
			"outputs": [
				{
					"internalType": "uint256[]",
					"name": "",
					"type": "uint256[]"
				}
			],
			"stateMutability": "view",
			"type": "function"
		},
		{
			"inputs": [
				{
					"internalType": "uint256",
					"name": "_productID",
					"type": "uint256"
				}
			],
			"name": "getProductTrend",
			"outputs": [
				{
					"internalType": "uint256[]",
					"name": "",
					"type": "uint256[]"
				}
			],
			"stateMutability": "view",
			"type": "function"
		},
		{
			"inputs": [],
			"name": "getRecentPurchases",
			"outputs": [
				{
					"components": [
						{
							"internalType": "uint256",
							"name": "productID",
							"type": "uint256"
						},
						{
							"internalType": "uint256",
							"name": "buyAt",
							"type": "uint256"
						}
					],
					"internalType": "struct Purchase[]",
					"name": "",
					"type": "tuple[]"
				}
			],
			"stateMutability": "view",
			"type": "function"
		},
		{
			"inputs": [],
			"name": "getRetailerAddedToCart",
			"outputs": [
				{
					"internalType": "uint256",
					"name": "",
					"type": "uint256"
				}
			],
			"stateMutability": "view",
			"type": "function"
		},
		{
			"inputs": [],
			"name": "getRetailerFavorite",
			"outputs": [
				{
					"internalType": "uint256",
					"name": "",
					"type": "uint256"
				}
			],
			"stateMutability": "view",
			"type": "function"
		},
		{
			"inputs": [],
			"name": "getSystemAddedToCart",
			"outputs": [
				{
					"internalType": "uint256",
					"name": "",
					"type": "uint256"
				}
			],
			"stateMutability": "view",
			"type": "function"
		},
		{
			"inputs": [],
			"name": "getSystemFavorite",
			"outputs": [
				{
					"internalType": "uint256",
					"name": "",
					"type": "uint256"
				}
			],
			"stateMutability": "view",
			"type": "function"
		},
		{
			"inputs": [],
			"name": "getSystemInfo",
			"outputs": [
				{
					"internalType": "uint256",
					"name": "totalVistors",
					"type": "uint256"
				},
				{
					"internalType": "uint256",
					"name": "totalCfs",
					"type": "uint256"
				},
				{
					"internalType": "uint256",
					"name": "totalShares",
					"type": "uint256"
				}
			],
			"stateMutability": "view",
			"type": "function"
		},
		{
			"inputs": [],
			"name": "getSystemProductPurchase",
			"outputs": [
				{
					"internalType": "uint256[]",
					"name": "",
					"type": "uint256[]"
				}
			],
			"stateMutability": "view",
			"type": "function"
		},
		{
			"inputs": [],
			"name": "getTotalProductViewCount",
			"outputs": [
				{
					"internalType": "uint256[]",
					"name": "_productIds",
					"type": "uint256[]"
				},
				{
					"internalType": "uint256[]",
					"name": "_productCount",
					"type": "uint256[]"
				},
				{
					"internalType": "uint256[]",
					"name": "_time",
					"type": "uint256[]"
				}
			],
			"stateMutability": "view",
			"type": "function"
		},
		{
			"inputs": [
				{
					"internalType": "address",
					"name": "_user",
					"type": "address"
				}
			],
			"name": "getUserPurchaseInfo",
			"outputs": [
				{
					"components": [
						{
							"internalType": "uint256",
							"name": "orderID",
							"type": "uint256"
						},
						{
							"internalType": "address",
							"name": "user",
							"type": "address"
						},
						{
							"internalType": "address",
							"name": "buyer",
							"type": "address"
						},
						{
							"internalType": "uint256",
							"name": "discountID",
							"type": "uint256"
						},
						{
							"internalType": "uint256[]",
							"name": "cartItemIds",
							"type": "uint256[]"
						},
						{
							"internalType": "uint256[]",
							"name": "productIds",
							"type": "uint256[]"
						},
						{
							"internalType": "bytes32[]",
							"name": "variantIds",
							"type": "bytes32[]"
						},
						{
							"internalType": "uint256[]",
							"name": "quantities",
							"type": "uint256[]"
						},
						{
							"internalType": "uint256[]",
							"name": "diffPrices",
							"type": "uint256[]"
						},
						{
							"internalType": "uint256[]",
							"name": "prices",
							"type": "uint256[]"
						},
						{
							"internalType": "uint256[]",
							"name": "rewards",
							"type": "uint256[]"
						},
						{
							"internalType": "uint256",
							"name": "totalPrice",
							"type": "uint256"
						},
						{
							"internalType": "uint8",
							"name": "checkoutType",
							"type": "uint8"
						},
						{
							"internalType": "uint8",
							"name": "orderStatus",
							"type": "uint8"
						},
						{
							"internalType": "bytes32",
							"name": "codeRef",
							"type": "bytes32"
						},
						{
							"internalType": "uint256",
							"name": "afterDiscountPrice",
							"type": "uint256"
						},
						{
							"internalType": "uint256",
							"name": "shippingPrice",
							"type": "uint256"
						},
						{
							"internalType": "uint8",
							"name": "paymentType",
							"type": "uint8"
						},
						{
							"internalType": "uint256",
							"name": "createdAt",
							"type": "uint256"
						}
					],
					"internalType": "struct Order[]",
					"name": "_orders",
					"type": "tuple[]"
				},
				{
					"components": [
						{
							"internalType": "uint256",
							"name": "id",
							"type": "uint256"
						},
						{
							"internalType": "address",
							"name": "owner",
							"type": "address"
						},
						{
							"components": [
								{
									"internalType": "uint256",
									"name": "id",
									"type": "uint256"
								},
								{
									"internalType": "uint256",
									"name": "productID",
									"type": "uint256"
								},
								{
									"internalType": "uint256",
									"name": "quantity",
									"type": "uint256"
								},
								{
									"internalType": "bytes32",
									"name": "variantID",
									"type": "bytes32"
								},
								{
									"internalType": "uint256",
									"name": "createAt",
									"type": "uint256"
								}
							],
							"internalType": "struct CartItem[]",
							"name": "items",
							"type": "tuple[]"
						}
					],
					"internalType": "struct Cart",
					"name": "_cart",
					"type": "tuple"
				},
				{
					"components": [
						{
							"internalType": "uint256",
							"name": "productID",
							"type": "uint256"
						},
						{
							"internalType": "uint256",
							"name": "createdAt",
							"type": "uint256"
						}
					],
					"internalType": "struct Favorite[]",
					"name": "_productIds",
					"type": "tuple[]"
				}
			],
			"stateMutability": "view",
			"type": "function"
		},
		{
			"inputs": [
				{
					"internalType": "uint256",
					"name": "_productID",
					"type": "uint256"
				}
			],
			"name": "increaseBestSeller",
			"outputs": [],
			"stateMutability": "nonpayable",
			"type": "function"
		},
		{
			"inputs": [
				{
					"internalType": "string",
					"name": "_country",
					"type": "string"
				},
				{
					"components": [
						{
							"internalType": "uint256",
							"name": "productID",
							"type": "uint256"
						},
						{
							"internalType": "uint256",
							"name": "buyAt",
							"type": "uint256"
						}
					],
					"internalType": "struct Purchase",
					"name": "_purchase",
					"type": "tuple"
				}
			],
			"name": "increaseCountryPurchases",
			"outputs": [],
			"stateMutability": "nonpayable",
			"type": "function"
		},
		{
			"inputs": [
				{
					"internalType": "uint256",
					"name": "_productID",
					"type": "uint256"
				}
			],
			"name": "increaseProductPurchaseTrend",
			"outputs": [],
			"stateMutability": "nonpayable",
			"type": "function"
		},
		{
			"inputs": [
				{
					"internalType": "address",
					"name": "user",
					"type": "address"
				},
				{
					"internalType": "uint256",
					"name": "_productID",
					"type": "uint256"
				}
			],
			"name": "increasePurchases",
			"outputs": [],
			"stateMutability": "nonpayable",
			"type": "function"
		},
		{
			"inputs": [
				{
					"internalType": "address",
					"name": "_retailer",
					"type": "address"
				}
			],
			"name": "increaseTotalAddedToCart",
			"outputs": [],
			"stateMutability": "nonpayable",
			"type": "function"
		},
		{
			"inputs": [],
			"name": "increaseTotalCommentAndFaq",
			"outputs": [],
			"stateMutability": "nonpayable",
			"type": "function"
		},
		{
			"inputs": [
				{
					"internalType": "address",
					"name": "_retailer",
					"type": "address"
				}
			],
			"name": "increaseTotalFavorite",
			"outputs": [],
			"stateMutability": "nonpayable",
			"type": "function"
		},
		{
			"inputs": [
				{
					"internalType": "address",
					"name": "",
					"type": "address"
				},
				{
					"internalType": "uint256",
					"name": "",
					"type": "uint256"
				}
			],
			"name": "listTrackUserActivityRetailer",
			"outputs": [
				{
					"internalType": "address",
					"name": "customer",
					"type": "address"
				},
				{
					"internalType": "uint8",
					"name": "activityType",
					"type": "uint8"
				}
			],
			"stateMutability": "view",
			"type": "function"
		},
		{
			"inputs": [
				{
					"internalType": "uint256",
					"name": "",
					"type": "uint256"
				}
			],
			"name": "listTrackUserActivitySystem",
			"outputs": [
				{
					"internalType": "address",
					"name": "customer",
					"type": "address"
				},
				{
					"internalType": "uint8",
					"name": "activityType",
					"type": "uint8"
				}
			],
			"stateMutability": "view",
			"type": "function"
		},
		{
			"inputs": [
				{
					"internalType": "uint256",
					"name": "",
					"type": "uint256"
				}
			],
			"name": "listTrackUserSystem",
			"outputs": [
				{
					"internalType": "string",
					"name": "orderID",
					"type": "string"
				},
				{
					"internalType": "uint8",
					"name": "trackType",
					"type": "uint8"
				},
				{
					"internalType": "address",
					"name": "customer",
					"type": "address"
				},
				{
					"internalType": "bytes",
					"name": "retailerName",
					"type": "bytes"
				},
				{
					"internalType": "uint256",
					"name": "timestamp",
					"type": "uint256"
				}
			],
			"stateMutability": "view",
			"type": "function"
		},
		{
			"inputs": [
				{
					"internalType": "address",
					"name": "",
					"type": "address"
				}
			],
			"name": "mAdmin",
			"outputs": [
				{
					"internalType": "bool",
					"name": "",
					"type": "bool"
				}
			],
			"stateMutability": "view",
			"type": "function"
		},
		{
			"inputs": [
				{
					"internalType": "string",
					"name": "",
					"type": "string"
				},
				{
					"internalType": "uint256",
					"name": "",
					"type": "uint256"
				}
			],
			"name": "mCountryPurchases",
			"outputs": [
				{
					"internalType": "uint256",
					"name": "productID",
					"type": "uint256"
				},
				{
					"internalType": "uint256",
					"name": "buyAt",
					"type": "uint256"
				}
			],
			"stateMutability": "view",
			"type": "function"
		},
		{
			"inputs": [
				{
					"internalType": "address",
					"name": "",
					"type": "address"
				},
				{
					"internalType": "uint256",
					"name": "",
					"type": "uint256"
				}
			],
			"name": "mListTrackUserRetailer",
			"outputs": [
				{
					"internalType": "string",
					"name": "orderID",
					"type": "string"
				},
				{
					"internalType": "uint8",
					"name": "trackType",
					"type": "uint8"
				},
				{
					"internalType": "address",
					"name": "customer",
					"type": "address"
				},
				{
					"internalType": "bytes",
					"name": "retailerName",
					"type": "bytes"
				},
				{
					"internalType": "uint256",
					"name": "timestamp",
					"type": "uint256"
				}
			],
			"stateMutability": "view",
			"type": "function"
		},
		{
			"inputs": [
				{
					"internalType": "uint256",
					"name": "",
					"type": "uint256"
				},
				{
					"internalType": "uint256",
					"name": "",
					"type": "uint256"
				}
			],
			"name": "mProductPurchaseTrend",
			"outputs": [
				{
					"internalType": "uint256",
					"name": "",
					"type": "uint256"
				}
			],
			"stateMutability": "view",
			"type": "function"
		},
		{
			"inputs": [
				{
					"internalType": "uint256",
					"name": "",
					"type": "uint256"
				},
				{
					"internalType": "uint256",
					"name": "",
					"type": "uint256"
				}
			],
			"name": "mProductSearchTrend",
			"outputs": [
				{
					"internalType": "uint256",
					"name": "",
					"type": "uint256"
				}
			],
			"stateMutability": "view",
			"type": "function"
		},
		{
			"inputs": [
				{
					"internalType": "uint256",
					"name": "",
					"type": "uint256"
				}
			],
			"name": "mProductViewCount",
			"outputs": [
				{
					"internalType": "uint256",
					"name": "",
					"type": "uint256"
				}
			],
			"stateMutability": "view",
			"type": "function"
		},
		{
			"inputs": [
				{
					"internalType": "address",
					"name": "",
					"type": "address"
				},
				{
					"internalType": "uint256",
					"name": "",
					"type": "uint256"
				}
			],
			"name": "mPurchases",
			"outputs": [
				{
					"internalType": "uint256",
					"name": "productID",
					"type": "uint256"
				},
				{
					"internalType": "uint256",
					"name": "buyAt",
					"type": "uint256"
				}
			],
			"stateMutability": "view",
			"type": "function"
		},
		{
			"inputs": [],
			"name": "owner",
			"outputs": [
				{
					"internalType": "address",
					"name": "",
					"type": "address"
				}
			],
			"stateMutability": "view",
			"type": "function"
		},
		{
			"inputs": [
				{
					"internalType": "address",
					"name": "user",
					"type": "address"
				},
				{
					"internalType": "uint256",
					"name": "_productID",
					"type": "uint256"
				},
				{
					"internalType": "address",
					"name": "retailer",
					"type": "address"
				},
				{
					"internalType": "bool",
					"name": "isSystem",
					"type": "bool"
				}
			],
			"name": "removeUserActivity",
			"outputs": [],
			"stateMutability": "nonpayable",
			"type": "function"
		},
		{
			"inputs": [
				{
					"internalType": "address",
					"name": "user",
					"type": "address"
				}
			],
			"name": "setAdmin",
			"outputs": [
				{
					"internalType": "bool",
					"name": "",
					"type": "bool"
				}
			],
			"stateMutability": "nonpayable",
			"type": "function"
		},
		{
			"inputs": [
				{
					"internalType": "uint256",
					"name": "",
					"type": "uint256"
				}
			],
			"name": "systemPurchases",
			"outputs": [
				{
					"internalType": "uint256",
					"name": "",
					"type": "uint256"
				}
			],
			"stateMutability": "view",
			"type": "function"
		},
		{
			"inputs": [],
			"name": "totalCommentAndFAQ",
			"outputs": [
				{
					"internalType": "uint256",
					"name": "",
					"type": "uint256"
				}
			],
			"stateMutability": "view",
			"type": "function"
		},
		{
			"inputs": [
				{
					"internalType": "address",
					"name": "",
					"type": "address"
				}
			],
			"name": "totalRetailerAddedToCart",
			"outputs": [
				{
					"internalType": "uint256",
					"name": "",
					"type": "uint256"
				}
			],
			"stateMutability": "view",
			"type": "function"
		},
		{
			"inputs": [
				{
					"internalType": "address",
					"name": "",
					"type": "address"
				}
			],
			"name": "totalRetailerFavorite",
			"outputs": [
				{
					"internalType": "uint256",
					"name": "",
					"type": "uint256"
				}
			],
			"stateMutability": "view",
			"type": "function"
		},
		{
			"inputs": [],
			"name": "totalSystemAddedToCart",
			"outputs": [
				{
					"internalType": "uint256",
					"name": "",
					"type": "uint256"
				}
			],
			"stateMutability": "view",
			"type": "function"
		},
		{
			"inputs": [],
			"name": "totalSystemFavorite",
			"outputs": [
				{
					"internalType": "uint256",
					"name": "",
					"type": "uint256"
				}
			],
			"stateMutability": "view",
			"type": "function"
		},
		{
			"inputs": [],
			"name": "totalSystemProductShare",
			"outputs": [
				{
					"internalType": "uint256",
					"name": "",
					"type": "uint256"
				}
			],
			"stateMutability": "view",
			"type": "function"
		},
		{
			"inputs": [],
			"name": "totalSystemPurchasePrice",
			"outputs": [
				{
					"internalType": "uint256",
					"name": "",
					"type": "uint256"
				}
			],
			"stateMutability": "view",
			"type": "function"
		},
		{
			"inputs": [],
			"name": "totalSystemVisitors",
			"outputs": [
				{
					"internalType": "uint256",
					"name": "",
					"type": "uint256"
				}
			],
			"stateMutability": "view",
			"type": "function"
		},
		{
			"inputs": [
				{
					"internalType": "address",
					"name": "user",
					"type": "address"
				},
				{
					"internalType": "uint256",
					"name": "_productID",
					"type": "uint256"
				},
				{
					"internalType": "uint256",
					"name": "quantity",
					"type": "uint256"
				},
				{
					"internalType": "address",
					"name": "retailer",
					"type": "address"
				},
				{
					"internalType": "enum TrackActivityType",
					"name": "activityType",
					"type": "uint8"
				},
				{
					"internalType": "bool",
					"name": "isSystem",
					"type": "bool"
				}
			],
			"name": "trackUserActivity",
			"outputs": [],
			"stateMutability": "nonpayable",
			"type": "function"
		},
		{
			"inputs": [],
			"name": "updateProductShare",
			"outputs": [],
			"stateMutability": "nonpayable",
			"type": "function"
		},
		{
			"inputs": [
				{
					"internalType": "uint256",
					"name": "_productID",
					"type": "uint256"
				}
			],
			"name": "updateViewCount",
			"outputs": [],
			"stateMutability": "nonpayable",
			"type": "function"
		},
		{
			"inputs": [],
			"name": "updateWebsiteVisitors",
			"outputs": [],
			"stateMutability": "nonpayable",
			"type": "function"
		}
	]
}