{
	"data": {
		"bytecode": {
			"linkReferences": {},
			"object": "6080604052348015600e575f80fd5b503380603357604051631e4fbdf760e01b81525f600482015260240160405180910390fd5b603a81603f565b50608e565b5f80546001600160a01b038381166001600160a01b0319831681178455604051919092169283917f8be0079c531659141344cd1fd0a4f28419497f9722a3daafe3b4186f6b6457e09190a35050565b612bbb8061009b5f395ff3fe608060405234801561000f575f80fd5b50600436106101c0575f3560e01c8063086c32e5146101c45780630870b174146101d95780630ded21b2146101ec57806317961e05146102155780631b879d6b1461022857806321e7fb581461023b57806327e235e31461024e578063301b60961461027b578063316f085f146102a3578063398da49c1461032257806356a86377146103355780636731ad1e1461034a5780636ceb37ba1461035d578063715018a61461037c5780637d9f66ae1461038457806380bc0370146103975780638da5cb5b146103ba5780639b7952a4146103c2578063a0815a54146103d5578063a472f0fb146103e8578063aad461e6146103fb578063b21ec30e1461040e578063b787d22214610421578063bd0dc97014610441578063c73ea36714610454578063c84d239b14610467578063d17aa5ca1461048a578063d3e19a571461049d578063e115dc7f146104c1578063e43ed78b146104d4578063ed4754f41461057c578063ed747e25146105ac578063ee82cfd0146105f3578063f14b8301146105fb578063f2fde38b1461060e578063f605c09514610621578063f8b2cb4f14610629578063fd3ec9d014610651575b5f80fd5b6101d76101d23660046122d6565b610664565b005b6101d76101e7366004612342565b6106f5565b6101ff6101fa366004612359565b610739565b60405161020c9190612379565b60405180910390f35b600e546101ff906001600160a01b031681565b6101ff610236366004612342565b61076d565b6101d7610249366004612359565b6107ab565b61026d61025c3660046123a3565b60036020525f908152604090205481565b60405190815260200161020c565b6101ff610289366004612342565b60056020525f90815260409020546001600160a01b031681565b6102b66102b13660046123bc565b6107f4565b60405161020c91905f61012082019050825182526020830151602083015260408301516040830152606083015160608301526080830151608083015260a083015160a083015260c083015160c083015260e083015160e083015261010083015161010083015292915050565b61026d6103303660046123ec565b610a8f565b61033d610aba565b60405161020c9190612414565b6101d7610358366004612359565b610b10565b61026d61036b366004612342565b5f9081526006602052604090205490565b6101d7610cfc565b6101d76103923660046123a3565b610d0f565b6103aa6103a53660046123bc565b610d39565b60405161020c949392919061247f565b6101ff610d96565b6101d76103d03660046123a3565b610da4565b600c546101ff906001600160a01b031681565b61026d6103f6366004612342565b610dce565b6101d7610409366004612342565b610ded565b6101d761041c3660046123bc565b610e72565b61043461042f3660046123bc565b610ffa565b60405161020c91906124b2565b6101d761044f366004612581565b6112f2565b6101d76104623660046122d6565b6115fd565b61047a6104753660046123ec565b61167a565b604051901515815260200161020c565b61047a61049836600461262d565b611711565b6104b06104ab3660046123a3565b61181b565b60405161020c959493929190612735565b6101d76104cf366004612774565b611955565b6105526104e23660046123ec565b6001600160a01b0382165f908152600260208181526040808420858552825292839020835160a081018552815480825260018301549382018490529382015494810185905260038201546060820181905260049092015460ff161515608090910181905292939195509295909350565b6040805195865260208601949094529284019190915260608301521515608082015260a00161020c565b61026d61058a3660046127c9565b600860209081525f938452604080852082529284528284209052825290205481565b6105526105ba3660046123ec565b600260208181525f9384526040808520909152918352912080546001820154928201546003830154600490930154919392909160ff1685565b600d5461026d565b61047a610609366004612342565b611a89565b6101d761061c3660046123a3565b611aa3565b61026d611ae0565b61026d6106373660046123a3565b6001600160a01b03165f9081526003602052604090205490565b61033d61065f3660046123a3565b611b13565b33321461068c5760405162461bcd60e51b815260040161068390612802565b60405180910390fd5b806106d45760405162461bcd60e51b8152602060048201526018602482015277141a1bdb99481b9d5b58995c881b9bdd08185b1b1bddd95960421b6044820152606401610683565b335f9081526004602052604090206001016106f08284836128c7565b505050565b80600d54146107325760405162461bcd60e51b81526020600482015260096024820152680dcdee840dac2e8c6d60bb1b6044820152606401610683565b505f600d55565b6001602052815f5260405f208181548110610752575f80fd5b5f918252602090912001546001600160a01b03169150829050565b5f33321461078d5760405162461bcd60e51b815260040161068390612802565b505f818152600560205260409020546001600160a01b03165b919050565b80156107d9575f81815260066020526040812080548492906107ce90849061298f565b909155506107f09050565b81600d5f8282546107ea919061298f565b90915550505b5050565b61083a6040518061012001604052805f81526020015f81526020015f81526020015f81526020015f81526020015f81526020015f81526020015f81526020015f81525090565b600c546001600160a01b031633146108645760405162461bcd60e51b8152600401610683906129a2565b6001600160a01b0384165f908152600960209081526040808320805482518185028101850190935280835291929091908301828280156108c157602002820191905f5260205f20905b8154815260200190600101908083116108ad575b505050505090505f81519050805f036108db575050610a88565b5f5b81811015610a84575f8382815181106108f8576108f86129c8565b602002602001015190508681101580156109125750858111155b15610a7b576001600160a01b0388165f908152600860209081526040808320848452825280832083805291829052909120548651879061095390839061298f565b90525060045f9081526020828152604090912054908701805161097790839061298f565b905250805f600181526020019081526020015f20548660400181815161099d919061298f565b90525060025f908152602082905260409020546060870180516109c190839061298f565b90525060035f908152602082905260409020546080870180516109e590839061298f565b90525060055f9081526020829052604090205460a087018051610a0990839061298f565b90525060065f9081526020829052604090205460c087018051610a2d90839061298f565b90525060075f9081526020829052604090205460e087018051610a5190839061298f565b90525060085f9081526020829052604090205461010087018051610a7690839061298f565b905250505b506001016108dd565b5050505b9392505050565b6007602052815f5260405f208181548110610aa8575f80fd5b905f5260205f20015f91509150505481565b6060600b805480602002602001604051908101604052809291908181526020018280548015610b0657602002820191905f5260205f20905b815481526020019060010190808311610af2575b5050505050905090565b333214610b2f5760405162461bcd60e51b815260040161068390612802565b80610b725760405162461bcd60e51b81526020600482015260136024820152721c995990dbd919481b9bdd08185b1b1bddd959606a1b6044820152606401610683565b5f828152600560205260409020546001600160a01b03163314610bcd5760405162461bcd60e51b815260206004820152601360248201527272656620636f6465206e6f742065786973747360681b6044820152606401610683565b335f908152600460205260409020548214610c285760405162461bcd60e51b815260206004820152601b60248201527a3932b31031b7b232903737ba1032bc34b9ba399034b7103ab9b2b960291b6044820152606401610683565b5f81815260056020526040808220548483529120546001600160a01b03908116911614610c8c5760405162461bcd60e51b81526020600482015260126024820152710e4cacc40c6dec8ca40dcdee840dac2e8c6d60731b6044820152606401610683565b5f818152600560205260409020546001600160a01b0316610cbf5760405162461bcd60e51b8152600401610683906129dc565b5f91825260056020908152604080842080546001600160a01b03199081169091558385528185208054339216821790558452600490915290912055565b610d04611b7c565b610d0d5f611bae565b565b610d17611b7c565b600e80546001600160a01b0319166001600160a01b0392909216919091179055565b600a602052825f5260405f20602052815f5260405f208181548110610d5c575f80fd5b5f91825260209091206004909102018054600182015460028301546003909301546001600160a01b039092169550935060ff909116915084565b5f546001600160a01b031690565b610dac611b7c565b600c80546001600160a01b0319166001600160a01b0392909216919091179055565b600b8181548110610ddd575f80fd5b5f91825260209091200154905081565b610df5611b7c565b5f81815260066020526040902054610e3c5760405162461bcd60e51b815260206004820152600a6024820152696e6f742065786973747360b01b6044820152606401610683565b5f81815260066020526040812054600d805491929091610e5d90849061298f565b90915550505f90815260066020526040812055565b600c546001600160a01b03163314610e9c5760405162461bcd60e51b8152600401610683906129a2565b5f8211610ebb5760405162461bcd60e51b815260040161068390612a13565b5f8111610eda5760405162461bcd60e51b815260040161068390612a13565b6040516001600160601b0319606085901b1660208201525f9060340160408051601f1981840301815291815281516020928301205f81815260059093529120549091506001600160a01b031615610f435760405162461bcd60e51b8152600401610683906129dc565b5f81815260056020908152604080832080546001600160a01b0319166001600160a01b038916908117909155815160a0810183528581528251808501845285815281850190815283518086018552868152828501526060820189905260808201889052918552600490935292208151815591519091906001820190610fc89082612a41565b5060408201516002820190610fdd9082612a41565b506060820151600382015560809091015160049091015550505050565b600c546060906001600160a01b031633146110275760405162461bcd60e51b8152600401610683906129a2565b6001600160a01b0384165f9081526009602090815260408083208054825181850281018501909352808352919290919083018282801561108457602002820191905f5260205f20905b815481526020019060010190808311611070575b505050505090505f81519050805f0361109e575050610a88565b60605f805b838110156112e5575f8582815181106110be576110be6129c8565b602002602001015190508881101580156110d85750878111155b156112dc576001600160a01b038a165f908152600a60209081526040808320848452825280832080548251818502810185019093528083529192909190849084015b828210156111a4575f848152602090819020604080516080810182526004860290920180546001600160a01b0316835260018101549383019390935260028301549192919083019060ff1660088111156111765761117661244b565b60088111156111875761118761244b565b81526020016003820154815250508152602001906001019061111a565b5050825192935050811590506112d9575f6111bf828761298f565b6001600160401b038111156111d6576111d6612619565b60405190808252806020026020018201604052801561122657816020015b604080516080810182525f8082526020808301829052928201819052606082015282525f199092019101816111f45790505b5090505f5b8681101561127257878181518110611245576112456129c8565b602002602001015182828151811061125f5761125f6129c8565b602090810291909101015260010161122b565b505f5b828110156112c75783818151811061128f5761128f6129c8565b60200260200101518282896112a4919061298f565b815181106112b4576112b46129c8565b6020908102919091010152600101611275565b509550856112d5828761298f565b9550505b50505b506001016110a3565b5090979650505050505050565b600c546001600160a01b0316331461131c5760405162461bcd60e51b8152600401610683906129a2565b8483146113645760405162461bcd60e51b8152602060048201526016602482015275082e4e4c2f240d8cadccee8d0e640dad2e6dac2e8c6d60531b6044820152606401610683565b5f5b858110156115f3575f858583818110611381576113816129c8565b90506020020135116113a55760405162461bcd60e51b815260040161068390612af6565b821561147a57871561142c578484828181106113c3576113c36129c8565b9050602002013560035f8989858181106113df576113df6129c8565b90506020020160208101906113f491906123a3565b6001600160a01b03166001600160a01b031681526020019081526020015f205f828254611421919061298f565b909155506115a19050565b611475878783818110611441576114416129c8565b905060200201602081019061145691906123a3565b89878785818110611469576114696129c8565b90506020020135611bfd565b6115a1565b84848281811061148c5761148c6129c8565b9050602002013560035f8989858181106114a8576114a86129c8565b90506020020160208101906114bd91906123a3565b6001600160a01b03166001600160a01b031681526020019081526020015f2054101561152b5760405162461bcd60e51b815260206004820152601d60248201527f496e73756666696369656e742062616c616e636520666f7220757365720000006044820152606401610683565b84848281811061153d5761153d6129c8565b9050602002013560035f898985818110611559576115596129c8565b905060200201602081019061156e91906123a3565b6001600160a01b03166001600160a01b031681526020019081526020015f205f82825461159b9190612b2c565b90915550505b6115eb8787838181106115b6576115b66129c8565b90506020020160208101906115cb91906123a3565b42848888868181106115df576115df6129c8565b90506020020135611d71565b600101611366565b5050505050505050565b33321461161c5760405162461bcd60e51b815260040161068390612802565b8061165e5760405162461bcd60e51b81526020600482015260126024820152716e69636b4e616d65206e6f7420616c6c6f7760701b6044820152606401610683565b335f9081526004602052604090206002016106f08284836128c7565b600c545f906001600160a01b031633146116a65760405162461bcd60e51b8152600401610683906129a2565b5f82116116b457505f61170b565b6001600160a01b0383165f908152600360205260409020548211156116da57505f61170b565b6001600160a01b0383165f9081526003602052604081208054849290611701908490612b2c565b9091555060019150505b92915050565b600c545f906001600160a01b0316331461173d5760405162461bcd60e51b8152600401610683906129a2565b5f805b8351811015611784575f61176d86868481518110611760576117606129c8565b6020026020010151611f90565b9050611779818461298f565b925050600101611740565b50600e546001600160a01b031663d9ea1b22856117a484620f4240612b3f565b6040516001600160e01b031960e085901b1681526001600160a01b03909216600483015260248201526044016020604051808303815f875af11580156117ec573d5f803e3d5ffd5b505050506040513d601f19601f820116820180604052508101906118109190612b56565b506001949350505050565b60046020525f90815260409020805460018201805491929161183c90612837565b80601f016020809104026020016040519081016040528092919081815260200182805461186890612837565b80156118b35780601f1061188a576101008083540402835291602001916118b3565b820191905f5260205f20905b81548152906001019060200180831161189657829003601f168201915b5050505050908060020180546118c890612837565b80601f01602080910402602001604051908101604052809291908181526020018280546118f490612837565b801561193f5780601f106119165761010080835404028352916020019161193f565b820191905f5260205f20905b81548152906001019060200180831161192257829003601f168201915b5050505050908060030154908060040154905085565b600c546001600160a01b0316331461197f5760405162461bcd60e51b8152600401610683906129a2565b5f831161199e5760405162461bcd60e51b815260040161068390612af6565b81156119eb57836119db576001600160a01b0385165f90815260036020526040812080548592906119d090849061298f565b90915550611a769050565b6119e6858585611bfd565b611a76565b6001600160a01b0385165f90815260036020526040902054831115611a495760405162461bcd60e51b8152602060048201526014602482015273496e73756666696369656e742062616c616e636560601b6044820152606401610683565b6001600160a01b0385165f9081526003602052604081208054859290611a70908490612b2c565b90915550505b611a8285428386611d71565b5050505050565b5f611a92611b7c565b611a9b826121e3565b506001919050565b611aab611b7c565b6001600160a01b038116611ad4575f604051631e4fbdf760e01b81526004016106839190612379565b611add81611bae565b50565b5f333214611b005760405162461bcd60e51b815260040161068390612802565b50335f9081526004602052604090205490565b6001600160a01b0381165f90815260076020908152604091829020805483518184028101840190945280845260609392830182828015611b7057602002820191905f5260205f20905b815481526020019060010190808311611b5c575b50505050509050919050565b33611b85610d96565b6001600160a01b031614610d0d573360405163118cdaa760e01b81526004016106839190612379565b5f80546001600160a01b038381166001600160a01b0319831681178455604051919092169283917f8be0079c531659141344cd1fd0a4f28419497f9722a3daafe3b4186f6b6457e09190a35050565b6001600160a01b0383165f9081526002602090815260408083208584529091528120549003611d3557425f611c3582624f1a0061298f565b90505f611c458362ed4e0061298f565b6040805160a0810182529586526020808701958652868201948552606087019283525f608088018181526001600160a01b039a909a1680825260028084528483208b8452845284832099518a5597516001808b01919091559651978901979097559251600388015597516004909601805460ff191696151596909617909555828752848120805480850182559082528782200180546001600160a01b03191685179055600b80548085019091557f0175b7a638427703f0dbe7bb9bbf987a2551717b34e79f33b5b1008d1fa01db90186905592835250600785529181208054928301815581529290922090910155565b6001600160a01b0383165f90815260026020908152604080832085845290915281208054839290611d6790849061298f565b9091555050505050565b6001600160a01b0384165f908152600860208181526040808420878552909152822091908490811115611da657611da661244b565b6008811115611db757611db761244b565b81526020019081526020015f20545f03611e5e576001600160a01b0384165f908152600960205260409020541580611e2e57506001600160a01b0384165f9081526009602052604090208054849190611e1290600190612b2c565b81548110611e2257611e226129c8565b905f5260205f20015414155b15611e5e576001600160a01b0384165f908152600960209081526040822080546001810182559083529120018390555b6001600160a01b0384165f9081526008602081815260408084208785529091528220839290918590811115611e9557611e9561244b565b6008811115611ea657611ea661244b565b81526020019081526020015f20819055505f6040518060800160405280866001600160a01b03168152602001838152602001846008811115611eea57611eea61244b565b815260209081018690526001600160a01b038781165f908152600a83526040808220898352845280822080546001808201835591845292859020865160049094020180546001600160a01b03191693909416929092178355928401518282015591830151600282018054949550859492939192909160ff1990911690836008811115611f7857611f7861244b565b02179055506060820151816003015550505050505050565b6001600160a01b0382165f90815260026020908152604080832084845290915281208054611ff85760405162461bcd60e51b815260206004820152601560248201527402737902ab63a3930a1281030bb30b4b630b136329605d1b6044820152606401610683565b600481015460ff16156120475760405162461bcd60e51b815260206004820152601760248201527602aaa2c27903430b9903132b2b71031b0b731b2b632b21604d1b6044820152606401610683565b806002015442101561209b5760405162461bcd60e51b815260206004820181905260248201527f556c7472614250206973206e6f742079657420776974686472617761626c65206044820152606401610683565b80600301544211156120e65760405162461bcd60e51b815260206004820152601460248201527302ab63a3930a128103430b99032bc3834b932b2160651b6044820152606401610683565b80546001600160a01b0385165f818152600260208181526040808420898552825280842084815560018101859055928301849055600383018490556004909201805460ff191690559282526007909252908120905b81548110156121d85785828281548110612157576121576129c8565b905f5260205f200154036121d0578154829061217590600190612b2c565b81548110612185576121856129c8565b905f5260205f2001548282815481106121a0576121a06129c8565b905f5260205f200181905550818054806121bc576121bc612b71565b600190038181905f5260205f20015f905590555b60010161213b565b509095945050505050565b5f818152600160205260409020546122335760405162461bcd60e51b815260206004820152601360248201527215551613c8191bd95cc81b9bdd08195e1a5cdd606a1b6044820152606401610683565b5f5b5f828152600160205260409020548110156107f0575f828152600160205260408120805483908110612269576122696129c8565b5f9182526020808320909101546001600160a01b0316808352600282526040808420878552909252912054909150156122cd576001600160a01b0381165f9081526002602090815260408083208684529091529020600401805460ff191660011790555b50600101612235565b5f80602083850312156122e7575f80fd5b82356001600160401b038111156122fc575f80fd5b8301601f8101851361230c575f80fd5b80356001600160401b03811115612321575f80fd5b856020828401011115612332575f80fd5b6020919091019590945092505050565b5f60208284031215612352575f80fd5b5035919050565b5f806040838503121561236a575f80fd5b50508035926020909101359150565b6001600160a01b0391909116815260200190565b80356001600160a01b03811681146107a6575f80fd5b5f602082840312156123b3575f80fd5b610a888261238d565b5f805f606084860312156123ce575f80fd5b6123d78461238d565b95602085013595506040909401359392505050565b5f80604083850312156123fd575f80fd5b6124068361238d565b946020939093013593505050565b602080825282518282018190525f918401906040840190835b818110156121d857835183526020938401939092019160010161242d565b634e487b7160e01b5f52602160045260245ffd5b6009811061247b57634e487b7160e01b5f52602160045260245ffd5b9052565b6001600160a01b038516815260208101849052608081016124a3604083018561245f565b82606083015295945050505050565b602080825282518282018190525f918401906040840190835b818110156121d857835180516001600160a01b0316845260208082015190850152604080820151906124ff9086018261245f565b5060609081015190840152602093909301926080909201916001016124cb565b5f8083601f84011261252f575f80fd5b5081356001600160401b03811115612545575f80fd5b6020830191508360208260051b850101111561255f575f80fd5b9250929050565b8015158114611add575f80fd5b8035600981106107a6575f80fd5b5f805f805f805f60a0888a031215612597575f80fd5b8735965060208801356001600160401b038111156125b3575f80fd5b6125bf8a828b0161251f565b90975095505060408801356001600160401b038111156125dd575f80fd5b6125e98a828b0161251f565b90955093505060608801356125fd81612566565b915061260b60808901612573565b905092959891949750929550565b634e487b7160e01b5f52604160045260245ffd5b5f806040838503121561263e575f80fd5b6126478361238d565b915060208301356001600160401b03811115612661575f80fd5b8301601f81018513612671575f80fd5b80356001600160401b0381111561268a5761268a612619565b604051600582901b90603f8201601f191681016001600160401b03811182821017156126b8576126b8612619565b6040529182526020818401810192908101888411156126d5575f80fd5b6020850194505b838510156126f8578435808252602095860195909350016126dc565b50809450505050509250929050565b5f81518084528060208401602086015e5f602082860101526020601f19601f83011685010191505092915050565b85815260a060208201525f61274d60a0830187612707565b828103604084015261275f8187612707565b60608401959095525050608001529392505050565b5f805f805f60a08688031215612788575f80fd5b6127918661238d565b9450602086013593506040860135925060608601356127af81612566565b91506127bd60808701612573565b90509295509295909350565b5f805f606084860312156127db575f80fd5b6127e48461238d565b9250602084013591506127f960408501612573565b90509250925092565b6020808252601b908201527a14db585c9d0818dbdb9d1c9858dd1cc81b9bdd08185b1b1bddd959602a1b604082015260600190565b600181811c9082168061284b57607f821691505b60208210810361286957634e487b7160e01b5f52602260045260245ffd5b50919050565b601f8211156106f057805f5260205f20601f840160051c810160208510156128945750805b601f840160051c820191505b81811015611a82575f81556001016128a0565b5f19600383901b1c191660019190911b1790565b6001600160401b038311156128de576128de612619565b6128f2836128ec8354612837565b8361286f565b5f601f84116001811461291e575f851561290c5750838201355b61291686826128b3565b845550611a82565b5f83815260208120601f198716915b8281101561294d578685013582556020948501946001909201910161292d565b5086821015612969575f1960f88860031b161c19848701351681555b505060018560011b0183555050505050565b634e487b7160e01b5f52601160045260245ffd5b8082018082111561170b5761170b61297b565b6020808252600c908201526b155b985d5d1a1bdc9a5e995960a21b604082015260600190565b634e487b7160e01b5f52603260045260245ffd5b6020808252601f908201527f72656620636f64652065786973747320696e20616e6f74686572207573657200604082015260600190565b6020808252601490820152736c6f6e67746974756465206e6f7420616c6c6f7760601b604082015260600190565b81516001600160401b03811115612a5a57612a5a612619565b612a6e81612a688454612837565b8461286f565b6020601f821160018114612a9b575f8315612a895750848201515b612a9384826128b3565b855550611a82565b5f84815260208120601f198516915b82811015612aca5787850151825560209485019460019092019101612aaa565b5084821015612ae757868401515f19600387901b60f8161c191681555b50505050600190811b01905550565b6020808252601c908201527b1d5c19185d194818985b185b98d94e8815dc9bdb99c8185b5bdd5b9d60221b604082015260600190565b8181038181111561170b5761170b61297b565b808202811582820484141761170b5761170b61297b565b5f60208284031215612b66575f80fd5b8151610a8881612566565b634e487b7160e01b5f52603160045260245ffdfea2646970667358221220355f3cc8d5607b4b6b9fd9d4a9936b5e8c6fd671d24d6df531c44a0f2550b61264736f6c634300081a0033",
			"opcodes": "PUSH1 0x80 PUSH1 0x40 MSTORE CALLVALUE DUP1 ISZERO PUSH1 0xE JUMPI PUSH0 DUP1 REVERT JUMPDEST POP CALLER DUP1 PUSH1 0x33 JUMPI PUSH1 0x40 MLOAD PUSH4 0x1E4FBDF7 PUSH1 0xE0 SHL DUP2 MSTORE PUSH0 PUSH1 0x4 DUP3 ADD MSTORE PUSH1 0x24 ADD PUSH1 0x40 MLOAD DUP1 SWAP2 SUB SWAP1 REVERT JUMPDEST PUSH1 0x3A DUP2 PUSH1 0x3F JUMP JUMPDEST POP PUSH1 0x8E JUMP JUMPDEST PUSH0 DUP1 SLOAD PUSH1 0x1 PUSH1 0x1 PUSH1 0xA0 SHL SUB DUP4 DUP2 AND PUSH1 0x1 PUSH1 0x1 PUSH1 0xA0 SHL SUB NOT DUP4 AND DUP2 OR DUP5 SSTORE PUSH1 0x40 MLOAD SWAP2 SWAP1 SWAP3 AND SWAP3 DUP4 SWAP2 PUSH32 0x8BE0079C531659141344CD1FD0A4F28419497F9722A3DAAFE3B4186F6B6457E0 SWAP2 SWAP1 LOG3 POP POP JUMP JUMPDEST PUSH2 0x2BBB DUP1 PUSH2 0x9B PUSH0 CODECOPY PUSH0 RETURN INVALID PUSH1 0x80 PUSH1 0x40 MSTORE CALLVALUE DUP1 ISZERO PUSH2 0xF JUMPI PUSH0 DUP1 REVERT JUMPDEST POP PUSH1 0x4 CALLDATASIZE LT PUSH2 0x1C0 JUMPI PUSH0 CALLDATALOAD PUSH1 0xE0 SHR DUP1 PUSH4 0x86C32E5 EQ PUSH2 0x1C4 JUMPI DUP1 PUSH4 0x870B174 EQ PUSH2 0x1D9 JUMPI DUP1 PUSH4 0xDED21B2 EQ PUSH2 0x1EC JUMPI DUP1 PUSH4 0x17961E05 EQ PUSH2 0x215 JUMPI DUP1 PUSH4 0x1B879D6B EQ PUSH2 0x228 JUMPI DUP1 PUSH4 0x21E7FB58 EQ PUSH2 0x23B JUMPI DUP1 PUSH4 0x27E235E3 EQ PUSH2 0x24E JUMPI DUP1 PUSH4 0x301B6096 EQ PUSH2 0x27B JUMPI DUP1 PUSH4 0x316F085F EQ PUSH2 0x2A3 JUMPI DUP1 PUSH4 0x398DA49C EQ PUSH2 0x322 JUMPI DUP1 PUSH4 0x56A86377 EQ PUSH2 0x335 JUMPI DUP1 PUSH4 0x6731AD1E EQ PUSH2 0x34A JUMPI DUP1 PUSH4 0x6CEB37BA EQ PUSH2 0x35D JUMPI DUP1 PUSH4 0x715018A6 EQ PUSH2 0x37C JUMPI DUP1 PUSH4 0x7D9F66AE EQ PUSH2 0x384 JUMPI DUP1 PUSH4 0x80BC0370 EQ PUSH2 0x397 JUMPI DUP1 PUSH4 0x8DA5CB5B EQ PUSH2 0x3BA JUMPI DUP1 PUSH4 0x9B7952A4 EQ PUSH2 0x3C2 JUMPI DUP1 PUSH4 0xA0815A54 EQ PUSH2 0x3D5 JUMPI DUP1 PUSH4 0xA472F0FB EQ PUSH2 0x3E8 JUMPI DUP1 PUSH4 0xAAD461E6 EQ PUSH2 0x3FB JUMPI DUP1 PUSH4 0xB21EC30E EQ PUSH2 0x40E JUMPI DUP1 PUSH4 0xB787D222 EQ PUSH2 0x421 JUMPI DUP1 PUSH4 0xBD0DC970 EQ PUSH2 0x441 JUMPI DUP1 PUSH4 0xC73EA367 EQ PUSH2 0x454 JUMPI DUP1 PUSH4 0xC84D239B EQ PUSH2 0x467 JUMPI DUP1 PUSH4 0xD17AA5CA EQ PUSH2 0x48A JUMPI DUP1 PUSH4 0xD3E19A57 EQ PUSH2 0x49D JUMPI DUP1 PUSH4 0xE115DC7F EQ PUSH2 0x4C1 JUMPI DUP1 PUSH4 0xE43ED78B EQ PUSH2 0x4D4 JUMPI DUP1 PUSH4 0xED4754F4 EQ PUSH2 0x57C JUMPI DUP1 PUSH4 0xED747E25 EQ PUSH2 0x5AC JUMPI DUP1 PUSH4 0xEE82CFD0 EQ PUSH2 0x5F3 JUMPI DUP1 PUSH4 0xF14B8301 EQ PUSH2 0x5FB JUMPI DUP1 PUSH4 0xF2FDE38B EQ PUSH2 0x60E JUMPI DUP1 PUSH4 0xF605C095 EQ PUSH2 0x621 JUMPI DUP1 PUSH4 0xF8B2CB4F EQ PUSH2 0x629 JUMPI DUP1 PUSH4 0xFD3EC9D0 EQ PUSH2 0x651 JUMPI JUMPDEST PUSH0 DUP1 REVERT JUMPDEST PUSH2 0x1D7 PUSH2 0x1D2 CALLDATASIZE PUSH1 0x4 PUSH2 0x22D6 JUMP JUMPDEST PUSH2 0x664 JUMP JUMPDEST STOP JUMPDEST PUSH2 0x1D7 PUSH2 0x1E7 CALLDATASIZE PUSH1 0x4 PUSH2 0x2342 JUMP JUMPDEST PUSH2 0x6F5 JUMP JUMPDEST PUSH2 0x1FF PUSH2 0x1FA CALLDATASIZE PUSH1 0x4 PUSH2 0x2359 JUMP JUMPDEST PUSH2 0x739 JUMP JUMPDEST PUSH1 0x40 MLOAD PUSH2 0x20C SWAP2 SWAP1 PUSH2 0x2379 JUMP JUMPDEST PUSH1 0x40 MLOAD DUP1 SWAP2 SUB SWAP1 RETURN JUMPDEST PUSH1 0xE SLOAD PUSH2 0x1FF SWAP1 PUSH1 0x1 PUSH1 0x1 PUSH1 0xA0 SHL SUB AND DUP2 JUMP JUMPDEST PUSH2 0x1FF PUSH2 0x236 CALLDATASIZE PUSH1 0x4 PUSH2 0x2342 JUMP JUMPDEST PUSH2 0x76D JUMP JUMPDEST PUSH2 0x1D7 PUSH2 0x249 CALLDATASIZE PUSH1 0x4 PUSH2 0x2359 JUMP JUMPDEST PUSH2 0x7AB JUMP JUMPDEST PUSH2 0x26D PUSH2 0x25C CALLDATASIZE PUSH1 0x4 PUSH2 0x23A3 JUMP JUMPDEST PUSH1 0x3 PUSH1 0x20 MSTORE PUSH0 SWAP1 DUP2 MSTORE PUSH1 0x40 SWAP1 KECCAK256 SLOAD DUP2 JUMP JUMPDEST PUSH1 0x40 MLOAD SWAP1 DUP2 MSTORE PUSH1 0x20 ADD PUSH2 0x20C JUMP JUMPDEST PUSH2 0x1FF PUSH2 0x289 CALLDATASIZE PUSH1 0x4 PUSH2 0x2342 JUMP JUMPDEST PUSH1 0x5 PUSH1 0x20 MSTORE PUSH0 SWAP1 DUP2 MSTORE PUSH1 0x40 SWAP1 KECCAK256 SLOAD PUSH1 0x1 PUSH1 0x1 PUSH1 0xA0 SHL SUB AND DUP2 JUMP JUMPDEST PUSH2 0x2B6 PUSH2 0x2B1 CALLDATASIZE PUSH1 0x4 PUSH2 0x23BC JUMP JUMPDEST PUSH2 0x7F4 JUMP JUMPDEST PUSH1 0x40 MLOAD PUSH2 0x20C SWAP2 SWAP1 PUSH0 PUSH2 0x120 DUP3 ADD SWAP1 POP DUP3 MLOAD DUP3 MSTORE PUSH1 0x20 DUP4 ADD MLOAD PUSH1 0x20 DUP4 ADD MSTORE PUSH1 0x40 DUP4 ADD MLOAD PUSH1 0x40 DUP4 ADD MSTORE PUSH1 0x60 DUP4 ADD MLOAD PUSH1 0x60 DUP4 ADD MSTORE PUSH1 0x80 DUP4 ADD MLOAD PUSH1 0x80 DUP4 ADD MSTORE PUSH1 0xA0 DUP4 ADD MLOAD PUSH1 0xA0 DUP4 ADD MSTORE PUSH1 0xC0 DUP4 ADD MLOAD PUSH1 0xC0 DUP4 ADD MSTORE PUSH1 0xE0 DUP4 ADD MLOAD PUSH1 0xE0 DUP4 ADD MSTORE PUSH2 0x100 DUP4 ADD MLOAD PUSH2 0x100 DUP4 ADD MSTORE SWAP3 SWAP2 POP POP JUMP JUMPDEST PUSH2 0x26D PUSH2 0x330 CALLDATASIZE PUSH1 0x4 PUSH2 0x23EC JUMP JUMPDEST PUSH2 0xA8F JUMP JUMPDEST PUSH2 0x33D PUSH2 0xABA JUMP JUMPDEST PUSH1 0x40 MLOAD PUSH2 0x20C SWAP2 SWAP1 PUSH2 0x2414 JUMP JUMPDEST PUSH2 0x1D7 PUSH2 0x358 CALLDATASIZE PUSH1 0x4 PUSH2 0x2359 JUMP JUMPDEST PUSH2 0xB10 JUMP JUMPDEST PUSH2 0x26D PUSH2 0x36B CALLDATASIZE PUSH1 0x4 PUSH2 0x2342 JUMP JUMPDEST PUSH0 SWAP1 DUP2 MSTORE PUSH1 0x6 PUSH1 0x20 MSTORE PUSH1 0x40 SWAP1 KECCAK256 SLOAD SWAP1 JUMP JUMPDEST PUSH2 0x1D7 PUSH2 0xCFC JUMP JUMPDEST PUSH2 0x1D7 PUSH2 0x392 CALLDATASIZE PUSH1 0x4 PUSH2 0x23A3 JUMP JUMPDEST PUSH2 0xD0F JUMP JUMPDEST PUSH2 0x3AA PUSH2 0x3A5 CALLDATASIZE PUSH1 0x4 PUSH2 0x23BC JUMP JUMPDEST PUSH2 0xD39 JUMP JUMPDEST PUSH1 0x40 MLOAD PUSH2 0x20C SWAP5 SWAP4 SWAP3 SWAP2 SWAP1 PUSH2 0x247F JUMP JUMPDEST PUSH2 0x1FF PUSH2 0xD96 JUMP JUMPDEST PUSH2 0x1D7 PUSH2 0x3D0 CALLDATASIZE PUSH1 0x4 PUSH2 0x23A3 JUMP JUMPDEST PUSH2 0xDA4 JUMP JUMPDEST PUSH1 0xC SLOAD PUSH2 0x1FF SWAP1 PUSH1 0x1 PUSH1 0x1 PUSH1 0xA0 SHL SUB AND DUP2 JUMP JUMPDEST PUSH2 0x26D PUSH2 0x3F6 CALLDATASIZE PUSH1 0x4 PUSH2 0x2342 JUMP JUMPDEST PUSH2 0xDCE JUMP JUMPDEST PUSH2 0x1D7 PUSH2 0x409 CALLDATASIZE PUSH1 0x4 PUSH2 0x2342 JUMP JUMPDEST PUSH2 0xDED JUMP JUMPDEST PUSH2 0x1D7 PUSH2 0x41C CALLDATASIZE PUSH1 0x4 PUSH2 0x23BC JUMP JUMPDEST PUSH2 0xE72 JUMP JUMPDEST PUSH2 0x434 PUSH2 0x42F CALLDATASIZE PUSH1 0x4 PUSH2 0x23BC JUMP JUMPDEST PUSH2 0xFFA JUMP JUMPDEST PUSH1 0x40 MLOAD PUSH2 0x20C SWAP2 SWAP1 PUSH2 0x24B2 JUMP JUMPDEST PUSH2 0x1D7 PUSH2 0x44F CALLDATASIZE PUSH1 0x4 PUSH2 0x2581 JUMP JUMPDEST PUSH2 0x12F2 JUMP JUMPDEST PUSH2 0x1D7 PUSH2 0x462 CALLDATASIZE PUSH1 0x4 PUSH2 0x22D6 JUMP JUMPDEST PUSH2 0x15FD JUMP JUMPDEST PUSH2 0x47A PUSH2 0x475 CALLDATASIZE PUSH1 0x4 PUSH2 0x23EC JUMP JUMPDEST PUSH2 0x167A JUMP JUMPDEST PUSH1 0x40 MLOAD SWAP1 ISZERO ISZERO DUP2 MSTORE PUSH1 0x20 ADD PUSH2 0x20C JUMP JUMPDEST PUSH2 0x47A PUSH2 0x498 CALLDATASIZE PUSH1 0x4 PUSH2 0x262D JUMP JUMPDEST PUSH2 0x1711 JUMP JUMPDEST PUSH2 0x4B0 PUSH2 0x4AB CALLDATASIZE PUSH1 0x4 PUSH2 0x23A3 JUMP JUMPDEST PUSH2 0x181B JUMP JUMPDEST PUSH1 0x40 MLOAD PUSH2 0x20C SWAP6 SWAP5 SWAP4 SWAP3 SWAP2 SWAP1 PUSH2 0x2735 JUMP JUMPDEST PUSH2 0x1D7 PUSH2 0x4CF CALLDATASIZE PUSH1 0x4 PUSH2 0x2774 JUMP JUMPDEST PUSH2 0x1955 JUMP JUMPDEST PUSH2 0x552 PUSH2 0x4E2 CALLDATASIZE PUSH1 0x4 PUSH2 0x23EC JUMP JUMPDEST PUSH1 0x1 PUSH1 0x1 PUSH1 0xA0 SHL SUB DUP3 AND PUSH0 SWAP1 DUP2 MSTORE PUSH1 0x2 PUSH1 0x20 DUP2 DUP2 MSTORE PUSH1 0x40 DUP1 DUP5 KECCAK256 DUP6 DUP6 MSTORE DUP3 MSTORE SWAP3 DUP4 SWAP1 KECCAK256 DUP4 MLOAD PUSH1 0xA0 DUP2 ADD DUP6 MSTORE DUP2 SLOAD DUP1 DUP3 MSTORE PUSH1 0x1 DUP4 ADD SLOAD SWAP4 DUP3 ADD DUP5 SWAP1 MSTORE SWAP4 DUP3 ADD SLOAD SWAP5 DUP2 ADD DUP6 SWAP1 MSTORE PUSH1 0x3 DUP3 ADD SLOAD PUSH1 0x60 DUP3 ADD DUP2 SWAP1 MSTORE PUSH1 0x4 SWAP1 SWAP3 ADD SLOAD PUSH1 0xFF AND ISZERO ISZERO PUSH1 0x80 SWAP1 SWAP2 ADD DUP2 SWAP1 MSTORE SWAP3 SWAP4 SWAP2 SWAP6 POP SWAP3 SWAP6 SWAP1 SWAP4 POP JUMP JUMPDEST PUSH1 0x40 DUP1 MLOAD SWAP6 DUP7 MSTORE PUSH1 0x20 DUP7 ADD SWAP5 SWAP1 SWAP5 MSTORE SWAP3 DUP5 ADD SWAP2 SWAP1 SWAP2 MSTORE PUSH1 0x60 DUP4 ADD MSTORE ISZERO ISZERO PUSH1 0x80 DUP3 ADD MSTORE PUSH1 0xA0 ADD PUSH2 0x20C JUMP JUMPDEST PUSH2 0x26D PUSH2 0x58A CALLDATASIZE PUSH1 0x4 PUSH2 0x27C9 JUMP JUMPDEST PUSH1 0x8 PUSH1 0x20 SWAP1 DUP2 MSTORE PUSH0 SWAP4 DUP5 MSTORE PUSH1 0x40 DUP1 DUP6 KECCAK256 DUP3 MSTORE SWAP3 DUP5 MSTORE DUP3 DUP5 KECCAK256 SWAP1 MSTORE DUP3 MSTORE SWAP1 KECCAK256 SLOAD DUP2 JUMP JUMPDEST PUSH2 0x552 PUSH2 0x5BA CALLDATASIZE PUSH1 0x4 PUSH2 0x23EC JUMP JUMPDEST PUSH1 0x2 PUSH1 0x20 DUP2 DUP2 MSTORE PUSH0 SWAP4 DUP5 MSTORE PUSH1 0x40 DUP1 DUP6 KECCAK256 SWAP1 SWAP2 MSTORE SWAP2 DUP4 MSTORE SWAP2 KECCAK256 DUP1 SLOAD PUSH1 0x1 DUP3 ADD SLOAD SWAP3 DUP3 ADD SLOAD PUSH1 0x3 DUP4 ADD SLOAD PUSH1 0x4 SWAP1 SWAP4 ADD SLOAD SWAP2 SWAP4 SWAP3 SWAP1 SWAP2 PUSH1 0xFF AND DUP6 JUMP JUMPDEST PUSH1 0xD SLOAD PUSH2 0x26D JUMP JUMPDEST PUSH2 0x47A PUSH2 0x609 CALLDATASIZE PUSH1 0x4 PUSH2 0x2342 JUMP JUMPDEST PUSH2 0x1A89 JUMP JUMPDEST PUSH2 0x1D7 PUSH2 0x61C CALLDATASIZE PUSH1 0x4 PUSH2 0x23A3 JUMP JUMPDEST PUSH2 0x1AA3 JUMP JUMPDEST PUSH2 0x26D PUSH2 0x1AE0 JUMP JUMPDEST PUSH2 0x26D PUSH2 0x637 CALLDATASIZE PUSH1 0x4 PUSH2 0x23A3 JUMP JUMPDEST PUSH1 0x1 PUSH1 0x1 PUSH1 0xA0 SHL SUB AND PUSH0 SWAP1 DUP2 MSTORE PUSH1 0x3 PUSH1 0x20 MSTORE PUSH1 0x40 SWAP1 KECCAK256 SLOAD SWAP1 JUMP JUMPDEST PUSH2 0x33D PUSH2 0x65F CALLDATASIZE PUSH1 0x4 PUSH2 0x23A3 JUMP JUMPDEST PUSH2 0x1B13 JUMP JUMPDEST CALLER ORIGIN EQ PUSH2 0x68C JUMPI PUSH1 0x40 MLOAD PUSH3 0x461BCD PUSH1 0xE5 SHL DUP2 MSTORE PUSH1 0x4 ADD PUSH2 0x683 SWAP1 PUSH2 0x2802 JUMP JUMPDEST PUSH1 0x40 MLOAD DUP1 SWAP2 SUB SWAP1 REVERT JUMPDEST DUP1 PUSH2 0x6D4 JUMPI PUSH1 0x40 MLOAD PUSH3 0x461BCD PUSH1 0xE5 SHL DUP2 MSTORE PUSH1 0x20 PUSH1 0x4 DUP3 ADD MSTORE PUSH1 0x18 PUSH1 0x24 DUP3 ADD MSTORE PUSH24 0x141A1BDB99481B9D5B58995C881B9BDD08185B1B1BDDD959 PUSH1 0x42 SHL PUSH1 0x44 DUP3 ADD MSTORE PUSH1 0x64 ADD PUSH2 0x683 JUMP JUMPDEST CALLER PUSH0 SWAP1 DUP2 MSTORE PUSH1 0x4 PUSH1 0x20 MSTORE PUSH1 0x40 SWAP1 KECCAK256 PUSH1 0x1 ADD PUSH2 0x6F0 DUP3 DUP5 DUP4 PUSH2 0x28C7 JUMP JUMPDEST POP POP POP JUMP JUMPDEST DUP1 PUSH1 0xD SLOAD EQ PUSH2 0x732 JUMPI PUSH1 0x40 MLOAD PUSH3 0x461BCD PUSH1 0xE5 SHL DUP2 MSTORE PUSH1 0x20 PUSH1 0x4 DUP3 ADD MSTORE PUSH1 0x9 PUSH1 0x24 DUP3 ADD MSTORE PUSH9 0xDCDEE840DAC2E8C6D PUSH1 0xBB SHL PUSH1 0x44 DUP3 ADD MSTORE PUSH1 0x64 ADD PUSH2 0x683 JUMP JUMPDEST POP PUSH0 PUSH1 0xD SSTORE JUMP JUMPDEST PUSH1 0x1 PUSH1 0x20 MSTORE DUP2 PUSH0 MSTORE PUSH1 0x40 PUSH0 KECCAK256 DUP2 DUP2 SLOAD DUP2 LT PUSH2 0x752 JUMPI PUSH0 DUP1 REVERT JUMPDEST PUSH0 SWAP2 DUP3 MSTORE PUSH1 0x20 SWAP1 SWAP2 KECCAK256 ADD SLOAD PUSH1 0x1 PUSH1 0x1 PUSH1 0xA0 SHL SUB AND SWAP2 POP DUP3 SWAP1 POP JUMP JUMPDEST PUSH0 CALLER ORIGIN EQ PUSH2 0x78D JUMPI PUSH1 0x40 MLOAD PUSH3 0x461BCD PUSH1 0xE5 SHL DUP2 MSTORE PUSH1 0x4 ADD PUSH2 0x683 SWAP1 PUSH2 0x2802 JUMP JUMPDEST POP PUSH0 DUP2 DUP2 MSTORE PUSH1 0x5 PUSH1 0x20 MSTORE PUSH1 0x40 SWAP1 KECCAK256 SLOAD PUSH1 0x1 PUSH1 0x1 PUSH1 0xA0 SHL SUB AND JUMPDEST SWAP2 SWAP1 POP JUMP JUMPDEST DUP1 ISZERO PUSH2 0x7D9 JUMPI PUSH0 DUP2 DUP2 MSTORE PUSH1 0x6 PUSH1 0x20 MSTORE PUSH1 0x40 DUP2 KECCAK256 DUP1 SLOAD DUP5 SWAP3 SWAP1 PUSH2 0x7CE SWAP1 DUP5 SWAP1 PUSH2 0x298F JUMP JUMPDEST SWAP1 SWAP2 SSTORE POP PUSH2 0x7F0 SWAP1 POP JUMP JUMPDEST DUP2 PUSH1 0xD PUSH0 DUP3 DUP3 SLOAD PUSH2 0x7EA SWAP2 SWAP1 PUSH2 0x298F JUMP JUMPDEST SWAP1 SWAP2 SSTORE POP POP JUMPDEST POP POP JUMP JUMPDEST PUSH2 0x83A PUSH1 0x40 MLOAD DUP1 PUSH2 0x120 ADD PUSH1 0x40 MSTORE DUP1 PUSH0 DUP2 MSTORE PUSH1 0x20 ADD PUSH0 DUP2 MSTORE PUSH1 0x20 ADD PUSH0 DUP2 MSTORE PUSH1 0x20 ADD PUSH0 DUP2 MSTORE PUSH1 0x20 ADD PUSH0 DUP2 MSTORE PUSH1 0x20 ADD PUSH0 DUP2 MSTORE PUSH1 0x20 ADD PUSH0 DUP2 MSTORE PUSH1 0x20 ADD PUSH0 DUP2 MSTORE PUSH1 0x20 ADD PUSH0 DUP2 MSTORE POP SWAP1 JUMP JUMPDEST PUSH1 0xC SLOAD PUSH1 0x1 PUSH1 0x1 PUSH1 0xA0 SHL SUB AND CALLER EQ PUSH2 0x864 JUMPI PUSH1 0x40 MLOAD PUSH3 0x461BCD PUSH1 0xE5 SHL DUP2 MSTORE PUSH1 0x4 ADD PUSH2 0x683 SWAP1 PUSH2 0x29A2 JUMP JUMPDEST PUSH1 0x1 PUSH1 0x1 PUSH1 0xA0 SHL SUB DUP5 AND PUSH0 SWAP1 DUP2 MSTORE PUSH1 0x9 PUSH1 0x20 SWAP1 DUP2 MSTORE PUSH1 0x40 DUP1 DUP4 KECCAK256 DUP1 SLOAD DUP3 MLOAD DUP2 DUP6 MUL DUP2 ADD DUP6 ADD SWAP1 SWAP4 MSTORE DUP1 DUP4 MSTORE SWAP2 SWAP3 SWAP1 SWAP2 SWAP1 DUP4 ADD DUP3 DUP3 DUP1 ISZERO PUSH2 0x8C1 JUMPI PUSH1 0x20 MUL DUP3 ADD SWAP2 SWAP1 PUSH0 MSTORE PUSH1 0x20 PUSH0 KECCAK256 SWAP1 JUMPDEST DUP2 SLOAD DUP2 MSTORE PUSH1 0x20 ADD SWAP1 PUSH1 0x1 ADD SWAP1 DUP1 DUP4 GT PUSH2 0x8AD JUMPI JUMPDEST POP POP POP POP POP SWAP1 POP PUSH0 DUP2 MLOAD SWAP1 POP DUP1 PUSH0 SUB PUSH2 0x8DB JUMPI POP POP PUSH2 0xA88 JUMP JUMPDEST PUSH0 JUMPDEST DUP2 DUP2 LT ISZERO PUSH2 0xA84 JUMPI PUSH0 DUP4 DUP3 DUP2 MLOAD DUP2 LT PUSH2 0x8F8 JUMPI PUSH2 0x8F8 PUSH2 0x29C8 JUMP JUMPDEST PUSH1 0x20 MUL PUSH1 0x20 ADD ADD MLOAD SWAP1 POP DUP7 DUP2 LT ISZERO DUP1 ISZERO PUSH2 0x912 JUMPI POP DUP6 DUP2 GT ISZERO JUMPDEST ISZERO PUSH2 0xA7B JUMPI PUSH1 0x1 PUSH1 0x1 PUSH1 0xA0 SHL SUB DUP9 AND PUSH0 SWAP1 DUP2 MSTORE PUSH1 0x8 PUSH1 0x20 SWAP1 DUP2 MSTORE PUSH1 0x40 DUP1 DUP4 KECCAK256 DUP5 DUP5 MSTORE DUP3 MSTORE DUP1 DUP4 KECCAK256 DUP4 DUP1 MSTORE SWAP2 DUP3 SWAP1 MSTORE SWAP1 SWAP2 KECCAK256 SLOAD DUP7 MLOAD DUP8 SWAP1 PUSH2 0x953 SWAP1 DUP4 SWAP1 PUSH2 0x298F JUMP JUMPDEST SWAP1 MSTORE POP PUSH1 0x4 PUSH0 SWAP1 DUP2 MSTORE PUSH1 0x20 DUP3 DUP2 MSTORE PUSH1 0x40 SWAP1 SWAP2 KECCAK256 SLOAD SWAP1 DUP8 ADD DUP1 MLOAD PUSH2 0x977 SWAP1 DUP4 SWAP1 PUSH2 0x298F JUMP JUMPDEST SWAP1 MSTORE POP DUP1 PUSH0 PUSH1 0x1 DUP2 MSTORE PUSH1 0x20 ADD SWAP1 DUP2 MSTORE PUSH1 0x20 ADD PUSH0 KECCAK256 SLOAD DUP7 PUSH1 0x40 ADD DUP2 DUP2 MLOAD PUSH2 0x99D SWAP2 SWAP1 PUSH2 0x298F JUMP JUMPDEST SWAP1 MSTORE POP PUSH1 0x2 PUSH0 SWAP1 DUP2 MSTORE PUSH1 0x20 DUP3 SWAP1 MSTORE PUSH1 0x40 SWAP1 KECCAK256 SLOAD PUSH1 0x60 DUP8 ADD DUP1 MLOAD PUSH2 0x9C1 SWAP1 DUP4 SWAP1 PUSH2 0x298F JUMP JUMPDEST SWAP1 MSTORE POP PUSH1 0x3 PUSH0 SWAP1 DUP2 MSTORE PUSH1 0x20 DUP3 SWAP1 MSTORE PUSH1 0x40 SWAP1 KECCAK256 SLOAD PUSH1 0x80 DUP8 ADD DUP1 MLOAD PUSH2 0x9E5 SWAP1 DUP4 SWAP1 PUSH2 0x298F JUMP JUMPDEST SWAP1 MSTORE POP PUSH1 0x5 PUSH0 SWAP1 DUP2 MSTORE PUSH1 0x20 DUP3 SWAP1 MSTORE PUSH1 0x40 SWAP1 KECCAK256 SLOAD PUSH1 0xA0 DUP8 ADD DUP1 MLOAD PUSH2 0xA09 SWAP1 DUP4 SWAP1 PUSH2 0x298F JUMP JUMPDEST SWAP1 MSTORE POP PUSH1 0x6 PUSH0 SWAP1 DUP2 MSTORE PUSH1 0x20 DUP3 SWAP1 MSTORE PUSH1 0x40 SWAP1 KECCAK256 SLOAD PUSH1 0xC0 DUP8 ADD DUP1 MLOAD PUSH2 0xA2D SWAP1 DUP4 SWAP1 PUSH2 0x298F JUMP JUMPDEST SWAP1 MSTORE POP PUSH1 0x7 PUSH0 SWAP1 DUP2 MSTORE PUSH1 0x20 DUP3 SWAP1 MSTORE PUSH1 0x40 SWAP1 KECCAK256 SLOAD PUSH1 0xE0 DUP8 ADD DUP1 MLOAD PUSH2 0xA51 SWAP1 DUP4 SWAP1 PUSH2 0x298F JUMP JUMPDEST SWAP1 MSTORE POP PUSH1 0x8 PUSH0 SWAP1 DUP2 MSTORE PUSH1 0x20 DUP3 SWAP1 MSTORE PUSH1 0x40 SWAP1 KECCAK256 SLOAD PUSH2 0x100 DUP8 ADD DUP1 MLOAD PUSH2 0xA76 SWAP1 DUP4 SWAP1 PUSH2 0x298F JUMP JUMPDEST SWAP1 MSTORE POP POP JUMPDEST POP PUSH1 0x1 ADD PUSH2 0x8DD JUMP JUMPDEST POP POP POP JUMPDEST SWAP4 SWAP3 POP POP POP JUMP JUMPDEST PUSH1 0x7 PUSH1 0x20 MSTORE DUP2 PUSH0 MSTORE PUSH1 0x40 PUSH0 KECCAK256 DUP2 DUP2 SLOAD DUP2 LT PUSH2 0xAA8 JUMPI PUSH0 DUP1 REVERT JUMPDEST SWAP1 PUSH0 MSTORE PUSH1 0x20 PUSH0 KECCAK256 ADD PUSH0 SWAP2 POP SWAP2 POP POP SLOAD DUP2 JUMP JUMPDEST PUSH1 0x60 PUSH1 0xB DUP1 SLOAD DUP1 PUSH1 0x20 MUL PUSH1 0x20 ADD PUSH1 0x40 MLOAD SWAP1 DUP2 ADD PUSH1 0x40 MSTORE DUP1 SWAP3 SWAP2 SWAP1 DUP2 DUP2 MSTORE PUSH1 0x20 ADD DUP3 DUP1 SLOAD DUP1 ISZERO PUSH2 0xB06 JUMPI PUSH1 0x20 MUL DUP3 ADD SWAP2 SWAP1 PUSH0 MSTORE PUSH1 0x20 PUSH0 KECCAK256 SWAP1 JUMPDEST DUP2 SLOAD DUP2 MSTORE PUSH1 0x20 ADD SWAP1 PUSH1 0x1 ADD SWAP1 DUP1 DUP4 GT PUSH2 0xAF2 JUMPI JUMPDEST POP POP POP POP POP SWAP1 POP SWAP1 JUMP JUMPDEST CALLER ORIGIN EQ PUSH2 0xB2F JUMPI PUSH1 0x40 MLOAD PUSH3 0x461BCD PUSH1 0xE5 SHL DUP2 MSTORE PUSH1 0x4 ADD PUSH2 0x683 SWAP1 PUSH2 0x2802 JUMP JUMPDEST DUP1 PUSH2 0xB72 JUMPI PUSH1 0x40 MLOAD PUSH3 0x461BCD PUSH1 0xE5 SHL DUP2 MSTORE PUSH1 0x20 PUSH1 0x4 DUP3 ADD MSTORE PUSH1 0x13 PUSH1 0x24 DUP3 ADD MSTORE PUSH19 0x1C995990DBD919481B9BDD08185B1B1BDDD959 PUSH1 0x6A SHL PUSH1 0x44 DUP3 ADD MSTORE PUSH1 0x64 ADD PUSH2 0x683 JUMP JUMPDEST PUSH0 DUP3 DUP2 MSTORE PUSH1 0x5 PUSH1 0x20 MSTORE PUSH1 0x40 SWAP1 KECCAK256 SLOAD PUSH1 0x1 PUSH1 0x1 PUSH1 0xA0 SHL SUB AND CALLER EQ PUSH2 0xBCD JUMPI PUSH1 0x40 MLOAD PUSH3 0x461BCD PUSH1 0xE5 SHL DUP2 MSTORE PUSH1 0x20 PUSH1 0x4 DUP3 ADD MSTORE PUSH1 0x13 PUSH1 0x24 DUP3 ADD MSTORE PUSH19 0x72656620636F6465206E6F7420657869737473 PUSH1 0x68 SHL PUSH1 0x44 DUP3 ADD MSTORE PUSH1 0x64 ADD PUSH2 0x683 JUMP JUMPDEST CALLER PUSH0 SWAP1 DUP2 MSTORE PUSH1 0x4 PUSH1 0x20 MSTORE PUSH1 0x40 SWAP1 KECCAK256 SLOAD DUP3 EQ PUSH2 0xC28 JUMPI PUSH1 0x40 MLOAD PUSH3 0x461BCD PUSH1 0xE5 SHL DUP2 MSTORE PUSH1 0x20 PUSH1 0x4 DUP3 ADD MSTORE PUSH1 0x1B PUSH1 0x24 DUP3 ADD MSTORE PUSH27 0x3932B31031B7B232903737BA1032BC34B9BA399034B7103AB9B2B9 PUSH1 0x29 SHL PUSH1 0x44 DUP3 ADD MSTORE PUSH1 0x64 ADD PUSH2 0x683 JUMP JUMPDEST PUSH0 DUP2 DUP2 MSTORE PUSH1 0x5 PUSH1 0x20 MSTORE PUSH1 0x40 DUP1 DUP3 KECCAK256 SLOAD DUP5 DUP4 MSTORE SWAP2 KECCAK256 SLOAD PUSH1 0x1 PUSH1 0x1 PUSH1 0xA0 SHL SUB SWAP1 DUP2 AND SWAP2 AND EQ PUSH2 0xC8C JUMPI PUSH1 0x40 MLOAD PUSH3 0x461BCD PUSH1 0xE5 SHL DUP2 MSTORE PUSH1 0x20 PUSH1 0x4 DUP3 ADD MSTORE PUSH1 0x12 PUSH1 0x24 DUP3 ADD MSTORE PUSH18 0xE4CACC40C6DEC8CA40DCDEE840DAC2E8C6D PUSH1 0x73 SHL PUSH1 0x44 DUP3 ADD MSTORE PUSH1 0x64 ADD PUSH2 0x683 JUMP JUMPDEST PUSH0 DUP2 DUP2 MSTORE PUSH1 0x5 PUSH1 0x20 MSTORE PUSH1 0x40 SWAP1 KECCAK256 SLOAD PUSH1 0x1 PUSH1 0x1 PUSH1 0xA0 SHL SUB AND PUSH2 0xCBF JUMPI PUSH1 0x40 MLOAD PUSH3 0x461BCD PUSH1 0xE5 SHL DUP2 MSTORE PUSH1 0x4 ADD PUSH2 0x683 SWAP1 PUSH2 0x29DC JUMP JUMPDEST PUSH0 SWAP2 DUP3 MSTORE PUSH1 0x5 PUSH1 0x20 SWAP1 DUP2 MSTORE PUSH1 0x40 DUP1 DUP5 KECCAK256 DUP1 SLOAD PUSH1 0x1 PUSH1 0x1 PUSH1 0xA0 SHL SUB NOT SWAP1 DUP2 AND SWAP1 SWAP2 SSTORE DUP4 DUP6 MSTORE DUP2 DUP6 KECCAK256 DUP1 SLOAD CALLER SWAP3 AND DUP3 OR SWAP1 SSTORE DUP5 MSTORE PUSH1 0x4 SWAP1 SWAP2 MSTORE SWAP1 SWAP2 KECCAK256 SSTORE JUMP JUMPDEST PUSH2 0xD04 PUSH2 0x1B7C JUMP JUMPDEST PUSH2 0xD0D PUSH0 PUSH2 0x1BAE JUMP JUMPDEST JUMP JUMPDEST PUSH2 0xD17 PUSH2 0x1B7C JUMP JUMPDEST PUSH1 0xE DUP1 SLOAD PUSH1 0x1 PUSH1 0x1 PUSH1 0xA0 SHL SUB NOT AND PUSH1 0x1 PUSH1 0x1 PUSH1 0xA0 SHL SUB SWAP3 SWAP1 SWAP3 AND SWAP2 SWAP1 SWAP2 OR SWAP1 SSTORE JUMP JUMPDEST PUSH1 0xA PUSH1 0x20 MSTORE DUP3 PUSH0 MSTORE PUSH1 0x40 PUSH0 KECCAK256 PUSH1 0x20 MSTORE DUP2 PUSH0 MSTORE PUSH1 0x40 PUSH0 KECCAK256 DUP2 DUP2 SLOAD DUP2 LT PUSH2 0xD5C JUMPI PUSH0 DUP1 REVERT JUMPDEST PUSH0 SWAP2 DUP3 MSTORE PUSH1 0x20 SWAP1 SWAP2 KECCAK256 PUSH1 0x4 SWAP1 SWAP2 MUL ADD DUP1 SLOAD PUSH1 0x1 DUP3 ADD SLOAD PUSH1 0x2 DUP4 ADD SLOAD PUSH1 0x3 SWAP1 SWAP4 ADD SLOAD PUSH1 0x1 PUSH1 0x1 PUSH1 0xA0 SHL SUB SWAP1 SWAP3 AND SWAP6 POP SWAP4 POP PUSH1 0xFF SWAP1 SWAP2 AND SWAP2 POP DUP5 JUMP JUMPDEST PUSH0 SLOAD PUSH1 0x1 PUSH1 0x1 PUSH1 0xA0 SHL SUB AND SWAP1 JUMP JUMPDEST PUSH2 0xDAC PUSH2 0x1B7C JUMP JUMPDEST PUSH1 0xC DUP1 SLOAD PUSH1 0x1 PUSH1 0x1 PUSH1 0xA0 SHL SUB NOT AND PUSH1 0x1 PUSH1 0x1 PUSH1 0xA0 SHL SUB SWAP3 SWAP1 SWAP3 AND SWAP2 SWAP1 SWAP2 OR SWAP1 SSTORE JUMP JUMPDEST PUSH1 0xB DUP2 DUP2 SLOAD DUP2 LT PUSH2 0xDDD JUMPI PUSH0 DUP1 REVERT JUMPDEST PUSH0 SWAP2 DUP3 MSTORE PUSH1 0x20 SWAP1 SWAP2 KECCAK256 ADD SLOAD SWAP1 POP DUP2 JUMP JUMPDEST PUSH2 0xDF5 PUSH2 0x1B7C JUMP JUMPDEST PUSH0 DUP2 DUP2 MSTORE PUSH1 0x6 PUSH1 0x20 MSTORE PUSH1 0x40 SWAP1 KECCAK256 SLOAD PUSH2 0xE3C JUMPI PUSH1 0x40 MLOAD PUSH3 0x461BCD PUSH1 0xE5 SHL DUP2 MSTORE PUSH1 0x20 PUSH1 0x4 DUP3 ADD MSTORE PUSH1 0xA PUSH1 0x24 DUP3 ADD MSTORE PUSH10 0x6E6F7420657869737473 PUSH1 0xB0 SHL PUSH1 0x44 DUP3 ADD MSTORE PUSH1 0x64 ADD PUSH2 0x683 JUMP JUMPDEST PUSH0 DUP2 DUP2 MSTORE PUSH1 0x6 PUSH1 0x20 MSTORE PUSH1 0x40 DUP2 KECCAK256 SLOAD PUSH1 0xD DUP1 SLOAD SWAP2 SWAP3 SWAP1 SWAP2 PUSH2 0xE5D SWAP1 DUP5 SWAP1 PUSH2 0x298F JUMP JUMPDEST SWAP1 SWAP2 SSTORE POP POP PUSH0 SWAP1 DUP2 MSTORE PUSH1 0x6 PUSH1 0x20 MSTORE PUSH1 0x40 DUP2 KECCAK256 SSTORE JUMP JUMPDEST PUSH1 0xC SLOAD PUSH1 0x1 PUSH1 0x1 PUSH1 0xA0 SHL SUB AND CALLER EQ PUSH2 0xE9C JUMPI PUSH1 0x40 MLOAD PUSH3 0x461BCD PUSH1 0xE5 SHL DUP2 MSTORE PUSH1 0x4 ADD PUSH2 0x683 SWAP1 PUSH2 0x29A2 JUMP JUMPDEST PUSH0 DUP3 GT PUSH2 0xEBB JUMPI PUSH1 0x40 MLOAD PUSH3 0x461BCD PUSH1 0xE5 SHL DUP2 MSTORE PUSH1 0x4 ADD PUSH2 0x683 SWAP1 PUSH2 0x2A13 JUMP JUMPDEST PUSH0 DUP2 GT PUSH2 0xEDA JUMPI PUSH1 0x40 MLOAD PUSH3 0x461BCD PUSH1 0xE5 SHL DUP2 MSTORE PUSH1 0x4 ADD PUSH2 0x683 SWAP1 PUSH2 0x2A13 JUMP JUMPDEST PUSH1 0x40 MLOAD PUSH1 0x1 PUSH1 0x1 PUSH1 0x60 SHL SUB NOT PUSH1 0x60 DUP6 SWAP1 SHL AND PUSH1 0x20 DUP3 ADD MSTORE PUSH0 SWAP1 PUSH1 0x34 ADD PUSH1 0x40 DUP1 MLOAD PUSH1 0x1F NOT DUP2 DUP5 SUB ADD DUP2 MSTORE SWAP2 DUP2 MSTORE DUP2 MLOAD PUSH1 0x20 SWAP3 DUP4 ADD KECCAK256 PUSH0 DUP2 DUP2 MSTORE PUSH1 0x5 SWAP1 SWAP4 MSTORE SWAP2 KECCAK256 SLOAD SWAP1 SWAP2 POP PUSH1 0x1 PUSH1 0x1 PUSH1 0xA0 SHL SUB AND ISZERO PUSH2 0xF43 JUMPI PUSH1 0x40 MLOAD PUSH3 0x461BCD PUSH1 0xE5 SHL DUP2 MSTORE PUSH1 0x4 ADD PUSH2 0x683 SWAP1 PUSH2 0x29DC JUMP JUMPDEST PUSH0 DUP2 DUP2 MSTORE PUSH1 0x5 PUSH1 0x20 SWAP1 DUP2 MSTORE PUSH1 0x40 DUP1 DUP4 KECCAK256 DUP1 SLOAD PUSH1 0x1 PUSH1 0x1 PUSH1 0xA0 SHL SUB NOT AND PUSH1 0x1 PUSH1 0x1 PUSH1 0xA0 SHL SUB DUP10 AND SWAP1 DUP2 OR SWAP1 SWAP2 SSTORE DUP2 MLOAD PUSH1 0xA0 DUP2 ADD DUP4 MSTORE DUP6 DUP2 MSTORE DUP3 MLOAD DUP1 DUP6 ADD DUP5 MSTORE DUP6 DUP2 MSTORE DUP2 DUP6 ADD SWAP1 DUP2 MSTORE DUP4 MLOAD DUP1 DUP7 ADD DUP6 MSTORE DUP7 DUP2 MSTORE DUP3 DUP6 ADD MSTORE PUSH1 0x60 DUP3 ADD DUP10 SWAP1 MSTORE PUSH1 0x80 DUP3 ADD DUP9 SWAP1 MSTORE SWAP2 DUP6 MSTORE PUSH1 0x4 SWAP1 SWAP4 MSTORE SWAP3 KECCAK256 DUP2 MLOAD DUP2 SSTORE SWAP2 MLOAD SWAP1 SWAP2 SWAP1 PUSH1 0x1 DUP3 ADD SWAP1 PUSH2 0xFC8 SWAP1 DUP3 PUSH2 0x2A41 JUMP JUMPDEST POP PUSH1 0x40 DUP3 ADD MLOAD PUSH1 0x2 DUP3 ADD SWAP1 PUSH2 0xFDD SWAP1 DUP3 PUSH2 0x2A41 JUMP JUMPDEST POP PUSH1 0x60 DUP3 ADD MLOAD PUSH1 0x3 DUP3 ADD SSTORE PUSH1 0x80 SWAP1 SWAP2 ADD MLOAD PUSH1 0x4 SWAP1 SWAP2 ADD SSTORE POP POP POP POP JUMP JUMPDEST PUSH1 0xC SLOAD PUSH1 0x60 SWAP1 PUSH1 0x1 PUSH1 0x1 PUSH1 0xA0 SHL SUB AND CALLER EQ PUSH2 0x1027 JUMPI PUSH1 0x40 MLOAD PUSH3 0x461BCD PUSH1 0xE5 SHL DUP2 MSTORE PUSH1 0x4 ADD PUSH2 0x683 SWAP1 PUSH2 0x29A2 JUMP JUMPDEST PUSH1 0x1 PUSH1 0x1 PUSH1 0xA0 SHL SUB DUP5 AND PUSH0 SWAP1 DUP2 MSTORE PUSH1 0x9 PUSH1 0x20 SWAP1 DUP2 MSTORE PUSH1 0x40 DUP1 DUP4 KECCAK256 DUP1 SLOAD DUP3 MLOAD DUP2 DUP6 MUL DUP2 ADD DUP6 ADD SWAP1 SWAP4 MSTORE DUP1 DUP4 MSTORE SWAP2 SWAP3 SWAP1 SWAP2 SWAP1 DUP4 ADD DUP3 DUP3 DUP1 ISZERO PUSH2 0x1084 JUMPI PUSH1 0x20 MUL DUP3 ADD SWAP2 SWAP1 PUSH0 MSTORE PUSH1 0x20 PUSH0 KECCAK256 SWAP1 JUMPDEST DUP2 SLOAD DUP2 MSTORE PUSH1 0x20 ADD SWAP1 PUSH1 0x1 ADD SWAP1 DUP1 DUP4 GT PUSH2 0x1070 JUMPI JUMPDEST POP POP POP POP POP SWAP1 POP PUSH0 DUP2 MLOAD SWAP1 POP DUP1 PUSH0 SUB PUSH2 0x109E JUMPI POP POP PUSH2 0xA88 JUMP JUMPDEST PUSH1 0x60 PUSH0 DUP1 JUMPDEST DUP4 DUP2 LT ISZERO PUSH2 0x12E5 JUMPI PUSH0 DUP6 DUP3 DUP2 MLOAD DUP2 LT PUSH2 0x10BE JUMPI PUSH2 0x10BE PUSH2 0x29C8 JUMP JUMPDEST PUSH1 0x20 MUL PUSH1 0x20 ADD ADD MLOAD SWAP1 POP DUP9 DUP2 LT ISZERO DUP1 ISZERO PUSH2 0x10D8 JUMPI POP DUP8 DUP2 GT ISZERO JUMPDEST ISZERO PUSH2 0x12DC JUMPI PUSH1 0x1 PUSH1 0x1 PUSH1 0xA0 SHL SUB DUP11 AND PUSH0 SWAP1 DUP2 MSTORE PUSH1 0xA PUSH1 0x20 SWAP1 DUP2 MSTORE PUSH1 0x40 DUP1 DUP4 KECCAK256 DUP5 DUP5 MSTORE DUP3 MSTORE DUP1 DUP4 KECCAK256 DUP1 SLOAD DUP3 MLOAD DUP2 DUP6 MUL DUP2 ADD DUP6 ADD SWAP1 SWAP4 MSTORE DUP1 DUP4 MSTORE SWAP2 SWAP3 SWAP1 SWAP2 SWAP1 DUP5 SWAP1 DUP5 ADD JUMPDEST DUP3 DUP3 LT ISZERO PUSH2 0x11A4 JUMPI PUSH0 DUP5 DUP2 MSTORE PUSH1 0x20 SWAP1 DUP2 SWAP1 KECCAK256 PUSH1 0x40 DUP1 MLOAD PUSH1 0x80 DUP2 ADD DUP3 MSTORE PUSH1 0x4 DUP7 MUL SWAP1 SWAP3 ADD DUP1 SLOAD PUSH1 0x1 PUSH1 0x1 PUSH1 0xA0 SHL SUB AND DUP4 MSTORE PUSH1 0x1 DUP2 ADD SLOAD SWAP4 DUP4 ADD SWAP4 SWAP1 SWAP4 MSTORE PUSH1 0x2 DUP4 ADD SLOAD SWAP2 SWAP3 SWAP2 SWAP1 DUP4 ADD SWAP1 PUSH1 0xFF AND PUSH1 0x8 DUP2 GT ISZERO PUSH2 0x1176 JUMPI PUSH2 0x1176 PUSH2 0x244B JUMP JUMPDEST PUSH1 0x8 DUP2 GT ISZERO PUSH2 0x1187 JUMPI PUSH2 0x1187 PUSH2 0x244B JUMP JUMPDEST DUP2 MSTORE PUSH1 0x20 ADD PUSH1 0x3 DUP3 ADD SLOAD DUP2 MSTORE POP POP DUP2 MSTORE PUSH1 0x20 ADD SWAP1 PUSH1 0x1 ADD SWAP1 PUSH2 0x111A JUMP JUMPDEST POP POP DUP3 MLOAD SWAP3 SWAP4 POP POP DUP2 ISZERO SWAP1 POP PUSH2 0x12D9 JUMPI PUSH0 PUSH2 0x11BF DUP3 DUP8 PUSH2 0x298F JUMP JUMPDEST PUSH1 0x1 PUSH1 0x1 PUSH1 0x40 SHL SUB DUP2 GT ISZERO PUSH2 0x11D6 JUMPI PUSH2 0x11D6 PUSH2 0x2619 JUMP JUMPDEST PUSH1 0x40 MLOAD SWAP1 DUP1 DUP3 MSTORE DUP1 PUSH1 0x20 MUL PUSH1 0x20 ADD DUP3 ADD PUSH1 0x40 MSTORE DUP1 ISZERO PUSH2 0x1226 JUMPI DUP2 PUSH1 0x20 ADD JUMPDEST PUSH1 0x40 DUP1 MLOAD PUSH1 0x80 DUP2 ADD DUP3 MSTORE PUSH0 DUP1 DUP3 MSTORE PUSH1 0x20 DUP1 DUP4 ADD DUP3 SWAP1 MSTORE SWAP3 DUP3 ADD DUP2 SWAP1 MSTORE PUSH1 0x60 DUP3 ADD MSTORE DUP3 MSTORE PUSH0 NOT SWAP1 SWAP3 ADD SWAP2 ADD DUP2 PUSH2 0x11F4 JUMPI SWAP1 POP JUMPDEST POP SWAP1 POP PUSH0 JUMPDEST DUP7 DUP2 LT ISZERO PUSH2 0x1272 JUMPI DUP8 DUP2 DUP2 MLOAD DUP2 LT PUSH2 0x1245 JUMPI PUSH2 0x1245 PUSH2 0x29C8 JUMP JUMPDEST PUSH1 0x20 MUL PUSH1 0x20 ADD ADD MLOAD DUP3 DUP3 DUP2 MLOAD DUP2 LT PUSH2 0x125F JUMPI PUSH2 0x125F PUSH2 0x29C8 JUMP JUMPDEST PUSH1 0x20 SWAP1 DUP2 MUL SWAP2 SWAP1 SWAP2 ADD ADD MSTORE PUSH1 0x1 ADD PUSH2 0x122B JUMP JUMPDEST POP PUSH0 JUMPDEST DUP3 DUP2 LT ISZERO PUSH2 0x12C7 JUMPI DUP4 DUP2 DUP2 MLOAD DUP2 LT PUSH2 0x128F JUMPI PUSH2 0x128F PUSH2 0x29C8 JUMP JUMPDEST PUSH1 0x20 MUL PUSH1 0x20 ADD ADD MLOAD DUP3 DUP3 DUP10 PUSH2 0x12A4 SWAP2 SWAP1 PUSH2 0x298F JUMP JUMPDEST DUP2 MLOAD DUP2 LT PUSH2 0x12B4 JUMPI PUSH2 0x12B4 PUSH2 0x29C8 JUMP JUMPDEST PUSH1 0x20 SWAP1 DUP2 MUL SWAP2 SWAP1 SWAP2 ADD ADD MSTORE PUSH1 0x1 ADD PUSH2 0x1275 JUMP JUMPDEST POP SWAP6 POP DUP6 PUSH2 0x12D5 DUP3 DUP8 PUSH2 0x298F JUMP JUMPDEST SWAP6 POP POP JUMPDEST POP POP JUMPDEST POP PUSH1 0x1 ADD PUSH2 0x10A3 JUMP JUMPDEST POP SWAP1 SWAP8 SWAP7 POP POP POP POP POP POP POP JUMP JUMPDEST PUSH1 0xC SLOAD PUSH1 0x1 PUSH1 0x1 PUSH1 0xA0 SHL SUB AND CALLER EQ PUSH2 0x131C JUMPI PUSH1 0x40 MLOAD PUSH3 0x461BCD PUSH1 0xE5 SHL DUP2 MSTORE PUSH1 0x4 ADD PUSH2 0x683 SWAP1 PUSH2 0x29A2 JUMP JUMPDEST DUP5 DUP4 EQ PUSH2 0x1364 JUMPI PUSH1 0x40 MLOAD PUSH3 0x461BCD PUSH1 0xE5 SHL DUP2 MSTORE PUSH1 0x20 PUSH1 0x4 DUP3 ADD MSTORE PUSH1 0x16 PUSH1 0x24 DUP3 ADD MSTORE PUSH22 0x82E4E4C2F240D8CADCCEE8D0E640DAD2E6DAC2E8C6D PUSH1 0x53 SHL PUSH1 0x44 DUP3 ADD MSTORE PUSH1 0x64 ADD PUSH2 0x683 JUMP JUMPDEST PUSH0 JUMPDEST DUP6 DUP2 LT ISZERO PUSH2 0x15F3 JUMPI PUSH0 DUP6 DUP6 DUP4 DUP2 DUP2 LT PUSH2 0x1381 JUMPI PUSH2 0x1381 PUSH2 0x29C8 JUMP JUMPDEST SWAP1 POP PUSH1 0x20 MUL ADD CALLDATALOAD GT PUSH2 0x13A5 JUMPI PUSH1 0x40 MLOAD PUSH3 0x461BCD PUSH1 0xE5 SHL DUP2 MSTORE PUSH1 0x4 ADD PUSH2 0x683 SWAP1 PUSH2 0x2AF6 JUMP JUMPDEST DUP3 ISZERO PUSH2 0x147A JUMPI DUP8 ISZERO PUSH2 0x142C JUMPI DUP5 DUP5 DUP3 DUP2 DUP2 LT PUSH2 0x13C3 JUMPI PUSH2 0x13C3 PUSH2 0x29C8 JUMP JUMPDEST SWAP1 POP PUSH1 0x20 MUL ADD CALLDATALOAD PUSH1 0x3 PUSH0 DUP10 DUP10 DUP6 DUP2 DUP2 LT PUSH2 0x13DF JUMPI PUSH2 0x13DF PUSH2 0x29C8 JUMP JUMPDEST SWAP1 POP PUSH1 0x20 MUL ADD PUSH1 0x20 DUP2 ADD SWAP1 PUSH2 0x13F4 SWAP2 SWAP1 PUSH2 0x23A3 JUMP JUMPDEST PUSH1 0x1 PUSH1 0x1 PUSH1 0xA0 SHL SUB AND PUSH1 0x1 PUSH1 0x1 PUSH1 0xA0 SHL SUB AND DUP2 MSTORE PUSH1 0x20 ADD SWAP1 DUP2 MSTORE PUSH1 0x20 ADD PUSH0 KECCAK256 PUSH0 DUP3 DUP3 SLOAD PUSH2 0x1421 SWAP2 SWAP1 PUSH2 0x298F JUMP JUMPDEST SWAP1 SWAP2 SSTORE POP PUSH2 0x15A1 SWAP1 POP JUMP JUMPDEST PUSH2 0x1475 DUP8 DUP8 DUP4 DUP2 DUP2 LT PUSH2 0x1441 JUMPI PUSH2 0x1441 PUSH2 0x29C8 JUMP JUMPDEST SWAP1 POP PUSH1 0x20 MUL ADD PUSH1 0x20 DUP2 ADD SWAP1 PUSH2 0x1456 SWAP2 SWAP1 PUSH2 0x23A3 JUMP JUMPDEST DUP10 DUP8 DUP8 DUP6 DUP2 DUP2 LT PUSH2 0x1469 JUMPI PUSH2 0x1469 PUSH2 0x29C8 JUMP JUMPDEST SWAP1 POP PUSH1 0x20 MUL ADD CALLDATALOAD PUSH2 0x1BFD JUMP JUMPDEST PUSH2 0x15A1 JUMP JUMPDEST DUP5 DUP5 DUP3 DUP2 DUP2 LT PUSH2 0x148C JUMPI PUSH2 0x148C PUSH2 0x29C8 JUMP JUMPDEST SWAP1 POP PUSH1 0x20 MUL ADD CALLDATALOAD PUSH1 0x3 PUSH0 DUP10 DUP10 DUP6 DUP2 DUP2 LT PUSH2 0x14A8 JUMPI PUSH2 0x14A8 PUSH2 0x29C8 JUMP JUMPDEST SWAP1 POP PUSH1 0x20 MUL ADD PUSH1 0x20 DUP2 ADD SWAP1 PUSH2 0x14BD SWAP2 SWAP1 PUSH2 0x23A3 JUMP JUMPDEST PUSH1 0x1 PUSH1 0x1 PUSH1 0xA0 SHL SUB AND PUSH1 0x1 PUSH1 0x1 PUSH1 0xA0 SHL SUB AND DUP2 MSTORE PUSH1 0x20 ADD SWAP1 DUP2 MSTORE PUSH1 0x20 ADD PUSH0 KECCAK256 SLOAD LT ISZERO PUSH2 0x152B JUMPI PUSH1 0x40 MLOAD PUSH3 0x461BCD PUSH1 0xE5 SHL DUP2 MSTORE PUSH1 0x20 PUSH1 0x4 DUP3 ADD MSTORE PUSH1 0x1D PUSH1 0x24 DUP3 ADD MSTORE PUSH32 0x496E73756666696369656E742062616C616E636520666F722075736572000000 PUSH1 0x44 DUP3 ADD MSTORE PUSH1 0x64 ADD PUSH2 0x683 JUMP JUMPDEST DUP5 DUP5 DUP3 DUP2 DUP2 LT PUSH2 0x153D JUMPI PUSH2 0x153D PUSH2 0x29C8 JUMP JUMPDEST SWAP1 POP PUSH1 0x20 MUL ADD CALLDATALOAD PUSH1 0x3 PUSH0 DUP10 DUP10 DUP6 DUP2 DUP2 LT PUSH2 0x1559 JUMPI PUSH2 0x1559 PUSH2 0x29C8 JUMP JUMPDEST SWAP1 POP PUSH1 0x20 MUL ADD PUSH1 0x20 DUP2 ADD SWAP1 PUSH2 0x156E SWAP2 SWAP1 PUSH2 0x23A3 JUMP JUMPDEST PUSH1 0x1 PUSH1 0x1 PUSH1 0xA0 SHL SUB AND PUSH1 0x1 PUSH1 0x1 PUSH1 0xA0 SHL SUB AND DUP2 MSTORE PUSH1 0x20 ADD SWAP1 DUP2 MSTORE PUSH1 0x20 ADD PUSH0 KECCAK256 PUSH0 DUP3 DUP3 SLOAD PUSH2 0x159B SWAP2 SWAP1 PUSH2 0x2B2C JUMP JUMPDEST SWAP1 SWAP2 SSTORE POP POP JUMPDEST PUSH2 0x15EB DUP8 DUP8 DUP4 DUP2 DUP2 LT PUSH2 0x15B6 JUMPI PUSH2 0x15B6 PUSH2 0x29C8 JUMP JUMPDEST SWAP1 POP PUSH1 0x20 MUL ADD PUSH1 0x20 DUP2 ADD SWAP1 PUSH2 0x15CB SWAP2 SWAP1 PUSH2 0x23A3 JUMP JUMPDEST TIMESTAMP DUP5 DUP9 DUP9 DUP7 DUP2 DUP2 LT PUSH2 0x15DF JUMPI PUSH2 0x15DF PUSH2 0x29C8 JUMP JUMPDEST SWAP1 POP PUSH1 0x20 MUL ADD CALLDATALOAD PUSH2 0x1D71 JUMP JUMPDEST PUSH1 0x1 ADD PUSH2 0x1366 JUMP JUMPDEST POP POP POP POP POP POP POP POP JUMP JUMPDEST CALLER ORIGIN EQ PUSH2 0x161C JUMPI PUSH1 0x40 MLOAD PUSH3 0x461BCD PUSH1 0xE5 SHL DUP2 MSTORE PUSH1 0x4 ADD PUSH2 0x683 SWAP1 PUSH2 0x2802 JUMP JUMPDEST DUP1 PUSH2 0x165E JUMPI PUSH1 0x40 MLOAD PUSH3 0x461BCD PUSH1 0xE5 SHL DUP2 MSTORE PUSH1 0x20 PUSH1 0x4 DUP3 ADD MSTORE PUSH1 0x12 PUSH1 0x24 DUP3 ADD MSTORE PUSH18 0x6E69636B4E616D65206E6F7420616C6C6F77 PUSH1 0x70 SHL PUSH1 0x44 DUP3 ADD MSTORE PUSH1 0x64 ADD PUSH2 0x683 JUMP JUMPDEST CALLER PUSH0 SWAP1 DUP2 MSTORE PUSH1 0x4 PUSH1 0x20 MSTORE PUSH1 0x40 SWAP1 KECCAK256 PUSH1 0x2 ADD PUSH2 0x6F0 DUP3 DUP5 DUP4 PUSH2 0x28C7 JUMP JUMPDEST PUSH1 0xC SLOAD PUSH0 SWAP1 PUSH1 0x1 PUSH1 0x1 PUSH1 0xA0 SHL SUB AND CALLER EQ PUSH2 0x16A6 JUMPI PUSH1 0x40 MLOAD PUSH3 0x461BCD PUSH1 0xE5 SHL DUP2 MSTORE PUSH1 0x4 ADD PUSH2 0x683 SWAP1 PUSH2 0x29A2 JUMP JUMPDEST PUSH0 DUP3 GT PUSH2 0x16B4 JUMPI POP PUSH0 PUSH2 0x170B JUMP JUMPDEST PUSH1 0x1 PUSH1 0x1 PUSH1 0xA0 SHL SUB DUP4 AND PUSH0 SWAP1 DUP2 MSTORE PUSH1 0x3 PUSH1 0x20 MSTORE PUSH1 0x40 SWAP1 KECCAK256 SLOAD DUP3 GT ISZERO PUSH2 0x16DA JUMPI POP PUSH0 PUSH2 0x170B JUMP JUMPDEST PUSH1 0x1 PUSH1 0x1 PUSH1 0xA0 SHL SUB DUP4 AND PUSH0 SWAP1 DUP2 MSTORE PUSH1 0x3 PUSH1 0x20 MSTORE PUSH1 0x40 DUP2 KECCAK256 DUP1 SLOAD DUP5 SWAP3 SWAP1 PUSH2 0x1701 SWAP1 DUP5 SWAP1 PUSH2 0x2B2C JUMP JUMPDEST SWAP1 SWAP2 SSTORE POP PUSH1 0x1 SWAP2 POP POP JUMPDEST SWAP3 SWAP2 POP POP JUMP JUMPDEST PUSH1 0xC SLOAD PUSH0 SWAP1 PUSH1 0x1 PUSH1 0x1 PUSH1 0xA0 SHL SUB AND CALLER EQ PUSH2 0x173D JUMPI PUSH1 0x40 MLOAD PUSH3 0x461BCD PUSH1 0xE5 SHL DUP2 MSTORE PUSH1 0x4 ADD PUSH2 0x683 SWAP1 PUSH2 0x29A2 JUMP JUMPDEST PUSH0 DUP1 JUMPDEST DUP4 MLOAD DUP2 LT ISZERO PUSH2 0x1784 JUMPI PUSH0 PUSH2 0x176D DUP7 DUP7 DUP5 DUP2 MLOAD DUP2 LT PUSH2 0x1760 JUMPI PUSH2 0x1760 PUSH2 0x29C8 JUMP JUMPDEST PUSH1 0x20 MUL PUSH1 0x20 ADD ADD MLOAD PUSH2 0x1F90 JUMP JUMPDEST SWAP1 POP PUSH2 0x1779 DUP2 DUP5 PUSH2 0x298F JUMP JUMPDEST SWAP3 POP POP PUSH1 0x1 ADD PUSH2 0x1740 JUMP JUMPDEST POP PUSH1 0xE SLOAD PUSH1 0x1 PUSH1 0x1 PUSH1 0xA0 SHL SUB AND PUSH4 0xD9EA1B22 DUP6 PUSH2 0x17A4 DUP5 PUSH3 0xF4240 PUSH2 0x2B3F JUMP JUMPDEST PUSH1 0x40 MLOAD PUSH1 0x1 PUSH1 0x1 PUSH1 0xE0 SHL SUB NOT PUSH1 0xE0 DUP6 SWAP1 SHL AND DUP2 MSTORE PUSH1 0x1 PUSH1 0x1 PUSH1 0xA0 SHL SUB SWAP1 SWAP3 AND PUSH1 0x4 DUP4 ADD MSTORE PUSH1 0x24 DUP3 ADD MSTORE PUSH1 0x44 ADD PUSH1 0x20 PUSH1 0x40 MLOAD DUP1 DUP4 SUB DUP2 PUSH0 DUP8 GAS CALL ISZERO DUP1 ISZERO PUSH2 0x17EC JUMPI RETURNDATASIZE PUSH0 DUP1 RETURNDATACOPY RETURNDATASIZE PUSH0 REVERT JUMPDEST POP POP POP POP PUSH1 0x40 MLOAD RETURNDATASIZE PUSH1 0x1F NOT PUSH1 0x1F DUP3 ADD AND DUP3 ADD DUP1 PUSH1 0x40 MSTORE POP DUP2 ADD SWAP1 PUSH2 0x1810 SWAP2 SWAP1 PUSH2 0x2B56 JUMP JUMPDEST POP PUSH1 0x1 SWAP5 SWAP4 POP POP POP POP JUMP JUMPDEST PUSH1 0x4 PUSH1 0x20 MSTORE PUSH0 SWAP1 DUP2 MSTORE PUSH1 0x40 SWAP1 KECCAK256 DUP1 SLOAD PUSH1 0x1 DUP3 ADD DUP1 SLOAD SWAP2 SWAP3 SWAP2 PUSH2 0x183C SWAP1 PUSH2 0x2837 JUMP JUMPDEST DUP1 PUSH1 0x1F ADD PUSH1 0x20 DUP1 SWAP2 DIV MUL PUSH1 0x20 ADD PUSH1 0x40 MLOAD SWAP1 DUP2 ADD PUSH1 0x40 MSTORE DUP1 SWAP3 SWAP2 SWAP1 DUP2 DUP2 MSTORE PUSH1 0x20 ADD DUP3 DUP1 SLOAD PUSH2 0x1868 SWAP1 PUSH2 0x2837 JUMP JUMPDEST DUP1 ISZERO PUSH2 0x18B3 JUMPI DUP1 PUSH1 0x1F LT PUSH2 0x188A JUMPI PUSH2 0x100 DUP1 DUP4 SLOAD DIV MUL DUP4 MSTORE SWAP2 PUSH1 0x20 ADD SWAP2 PUSH2 0x18B3 JUMP JUMPDEST DUP3 ADD SWAP2 SWAP1 PUSH0 MSTORE PUSH1 0x20 PUSH0 KECCAK256 SWAP1 JUMPDEST DUP2 SLOAD DUP2 MSTORE SWAP1 PUSH1 0x1 ADD SWAP1 PUSH1 0x20 ADD DUP1 DUP4 GT PUSH2 0x1896 JUMPI DUP3 SWAP1 SUB PUSH1 0x1F AND DUP3 ADD SWAP2 JUMPDEST POP POP POP POP POP SWAP1 DUP1 PUSH1 0x2 ADD DUP1 SLOAD PUSH2 0x18C8 SWAP1 PUSH2 0x2837 JUMP JUMPDEST DUP1 PUSH1 0x1F ADD PUSH1 0x20 DUP1 SWAP2 DIV MUL PUSH1 0x20 ADD PUSH1 0x40 MLOAD SWAP1 DUP2 ADD PUSH1 0x40 MSTORE DUP1 SWAP3 SWAP2 SWAP1 DUP2 DUP2 MSTORE PUSH1 0x20 ADD DUP3 DUP1 SLOAD PUSH2 0x18F4 SWAP1 PUSH2 0x2837 JUMP JUMPDEST DUP1 ISZERO PUSH2 0x193F JUMPI DUP1 PUSH1 0x1F LT PUSH2 0x1916 JUMPI PUSH2 0x100 DUP1 DUP4 SLOAD DIV MUL DUP4 MSTORE SWAP2 PUSH1 0x20 ADD SWAP2 PUSH2 0x193F JUMP JUMPDEST DUP3 ADD SWAP2 SWAP1 PUSH0 MSTORE PUSH1 0x20 PUSH0 KECCAK256 SWAP1 JUMPDEST DUP2 SLOAD DUP2 MSTORE SWAP1 PUSH1 0x1 ADD SWAP1 PUSH1 0x20 ADD DUP1 DUP4 GT PUSH2 0x1922 JUMPI DUP3 SWAP1 SUB PUSH1 0x1F AND DUP3 ADD SWAP2 JUMPDEST POP POP POP POP POP SWAP1 DUP1 PUSH1 0x3 ADD SLOAD SWAP1 DUP1 PUSH1 0x4 ADD SLOAD SWAP1 POP DUP6 JUMP JUMPDEST PUSH1 0xC SLOAD PUSH1 0x1 PUSH1 0x1 PUSH1 0xA0 SHL SUB AND CALLER EQ PUSH2 0x197F JUMPI PUSH1 0x40 MLOAD PUSH3 0x461BCD PUSH1 0xE5 SHL DUP2 MSTORE PUSH1 0x4 ADD PUSH2 0x683 SWAP1 PUSH2 0x29A2 JUMP JUMPDEST PUSH0 DUP4 GT PUSH2 0x199E JUMPI PUSH1 0x40 MLOAD PUSH3 0x461BCD PUSH1 0xE5 SHL DUP2 MSTORE PUSH1 0x4 ADD PUSH2 0x683 SWAP1 PUSH2 0x2AF6 JUMP JUMPDEST DUP2 ISZERO PUSH2 0x19EB JUMPI DUP4 PUSH2 0x19DB JUMPI PUSH1 0x1 PUSH1 0x1 PUSH1 0xA0 SHL SUB DUP6 AND PUSH0 SWAP1 DUP2 MSTORE PUSH1 0x3 PUSH1 0x20 MSTORE PUSH1 0x40 DUP2 KECCAK256 DUP1 SLOAD DUP6 SWAP3 SWAP1 PUSH2 0x19D0 SWAP1 DUP5 SWAP1 PUSH2 0x298F JUMP JUMPDEST SWAP1 SWAP2 SSTORE POP PUSH2 0x1A76 SWAP1 POP JUMP JUMPDEST PUSH2 0x19E6 DUP6 DUP6 DUP6 PUSH2 0x1BFD JUMP JUMPDEST PUSH2 0x1A76 JUMP JUMPDEST PUSH1 0x1 PUSH1 0x1 PUSH1 0xA0 SHL SUB DUP6 AND PUSH0 SWAP1 DUP2 MSTORE PUSH1 0x3 PUSH1 0x20 MSTORE PUSH1 0x40 SWAP1 KECCAK256 SLOAD DUP4 GT ISZERO PUSH2 0x1A49 JUMPI PUSH1 0x40 MLOAD PUSH3 0x461BCD PUSH1 0xE5 SHL DUP2 MSTORE PUSH1 0x20 PUSH1 0x4 DUP3 ADD MSTORE PUSH1 0x14 PUSH1 0x24 DUP3 ADD MSTORE PUSH20 0x496E73756666696369656E742062616C616E6365 PUSH1 0x60 SHL PUSH1 0x44 DUP3 ADD MSTORE PUSH1 0x64 ADD PUSH2 0x683 JUMP JUMPDEST PUSH1 0x1 PUSH1 0x1 PUSH1 0xA0 SHL SUB DUP6 AND PUSH0 SWAP1 DUP2 MSTORE PUSH1 0x3 PUSH1 0x20 MSTORE PUSH1 0x40 DUP2 KECCAK256 DUP1 SLOAD DUP6 SWAP3 SWAP1 PUSH2 0x1A70 SWAP1 DUP5 SWAP1 PUSH2 0x2B2C JUMP JUMPDEST SWAP1 SWAP2 SSTORE POP POP JUMPDEST PUSH2 0x1A82 DUP6 TIMESTAMP DUP4 DUP7 PUSH2 0x1D71 JUMP JUMPDEST POP POP POP POP POP JUMP JUMPDEST PUSH0 PUSH2 0x1A92 PUSH2 0x1B7C JUMP JUMPDEST PUSH2 0x1A9B DUP3 PUSH2 0x21E3 JUMP JUMPDEST POP PUSH1 0x1 SWAP2 SWAP1 POP JUMP JUMPDEST PUSH2 0x1AAB PUSH2 0x1B7C JUMP JUMPDEST PUSH1 0x1 PUSH1 0x1 PUSH1 0xA0 SHL SUB DUP2 AND PUSH2 0x1AD4 JUMPI PUSH0 PUSH1 0x40 MLOAD PUSH4 0x1E4FBDF7 PUSH1 0xE0 SHL DUP2 MSTORE PUSH1 0x4 ADD PUSH2 0x683 SWAP2 SWAP1 PUSH2 0x2379 JUMP JUMPDEST PUSH2 0x1ADD DUP2 PUSH2 0x1BAE JUMP JUMPDEST POP JUMP JUMPDEST PUSH0 CALLER ORIGIN EQ PUSH2 0x1B00 JUMPI PUSH1 0x40 MLOAD PUSH3 0x461BCD PUSH1 0xE5 SHL DUP2 MSTORE PUSH1 0x4 ADD PUSH2 0x683 SWAP1 PUSH2 0x2802 JUMP JUMPDEST POP CALLER PUSH0 SWAP1 DUP2 MSTORE PUSH1 0x4 PUSH1 0x20 MSTORE PUSH1 0x40 SWAP1 KECCAK256 SLOAD SWAP1 JUMP JUMPDEST PUSH1 0x1 PUSH1 0x1 PUSH1 0xA0 SHL SUB DUP2 AND PUSH0 SWAP1 DUP2 MSTORE PUSH1 0x7 PUSH1 0x20 SWAP1 DUP2 MSTORE PUSH1 0x40 SWAP2 DUP3 SWAP1 KECCAK256 DUP1 SLOAD DUP4 MLOAD DUP2 DUP5 MUL DUP2 ADD DUP5 ADD SWAP1 SWAP5 MSTORE DUP1 DUP5 MSTORE PUSH1 0x60 SWAP4 SWAP3 DUP4 ADD DUP3 DUP3 DUP1 ISZERO PUSH2 0x1B70 JUMPI PUSH1 0x20 MUL DUP3 ADD SWAP2 SWAP1 PUSH0 MSTORE PUSH1 0x20 PUSH0 KECCAK256 SWAP1 JUMPDEST DUP2 SLOAD DUP2 MSTORE PUSH1 0x20 ADD SWAP1 PUSH1 0x1 ADD SWAP1 DUP1 DUP4 GT PUSH2 0x1B5C JUMPI JUMPDEST POP POP POP POP POP SWAP1 POP SWAP2 SWAP1 POP JUMP JUMPDEST CALLER PUSH2 0x1B85 PUSH2 0xD96 JUMP JUMPDEST PUSH1 0x1 PUSH1 0x1 PUSH1 0xA0 SHL SUB AND EQ PUSH2 0xD0D JUMPI CALLER PUSH1 0x40 MLOAD PUSH4 0x118CDAA7 PUSH1 0xE0 SHL DUP2 MSTORE PUSH1 0x4 ADD PUSH2 0x683 SWAP2 SWAP1 PUSH2 0x2379 JUMP JUMPDEST PUSH0 DUP1 SLOAD PUSH1 0x1 PUSH1 0x1 PUSH1 0xA0 SHL SUB DUP4 DUP2 AND PUSH1 0x1 PUSH1 0x1 PUSH1 0xA0 SHL SUB NOT DUP4 AND DUP2 OR DUP5 SSTORE PUSH1 0x40 MLOAD SWAP2 SWAP1 SWAP3 AND SWAP3 DUP4 SWAP2 PUSH32 0x8BE0079C531659141344CD1FD0A4F28419497F9722A3DAAFE3B4186F6B6457E0 SWAP2 SWAP1 LOG3 POP POP JUMP JUMPDEST PUSH1 0x1 PUSH1 0x1 PUSH1 0xA0 SHL SUB DUP4 AND PUSH0 SWAP1 DUP2 MSTORE PUSH1 0x2 PUSH1 0x20 SWAP1 DUP2 MSTORE PUSH1 0x40 DUP1 DUP4 KECCAK256 DUP6 DUP5 MSTORE SWAP1 SWAP2 MSTORE DUP2 KECCAK256 SLOAD SWAP1 SUB PUSH2 0x1D35 JUMPI TIMESTAMP PUSH0 PUSH2 0x1C35 DUP3 PUSH3 0x4F1A00 PUSH2 0x298F JUMP JUMPDEST SWAP1 POP PUSH0 PUSH2 0x1C45 DUP4 PUSH3 0xED4E00 PUSH2 0x298F JUMP JUMPDEST PUSH1 0x40 DUP1 MLOAD PUSH1 0xA0 DUP2 ADD DUP3 MSTORE SWAP6 DUP7 MSTORE PUSH1 0x20 DUP1 DUP8 ADD SWAP6 DUP7 MSTORE DUP7 DUP3 ADD SWAP5 DUP6 MSTORE PUSH1 0x60 DUP8 ADD SWAP3 DUP4 MSTORE PUSH0 PUSH1 0x80 DUP9 ADD DUP2 DUP2 MSTORE PUSH1 0x1 PUSH1 0x1 PUSH1 0xA0 SHL SUB SWAP11 SWAP1 SWAP11 AND DUP1 DUP3 MSTORE PUSH1 0x2 DUP1 DUP5 MSTORE DUP5 DUP4 KECCAK256 DUP12 DUP5 MSTORE DUP5 MSTORE DUP5 DUP4 KECCAK256 SWAP10 MLOAD DUP11 SSTORE SWAP8 MLOAD PUSH1 0x1 DUP1 DUP12 ADD SWAP2 SWAP1 SWAP2 SSTORE SWAP7 MLOAD SWAP8 DUP10 ADD SWAP8 SWAP1 SWAP8 SSTORE SWAP3 MLOAD PUSH1 0x3 DUP9 ADD SSTORE SWAP8 MLOAD PUSH1 0x4 SWAP1 SWAP7 ADD DUP1 SLOAD PUSH1 0xFF NOT AND SWAP7 ISZERO ISZERO SWAP7 SWAP1 SWAP7 OR SWAP1 SWAP6 SSTORE DUP3 DUP8 MSTORE DUP5 DUP2 KECCAK256 DUP1 SLOAD DUP1 DUP6 ADD DUP3 SSTORE SWAP1 DUP3 MSTORE DUP8 DUP3 KECCAK256 ADD DUP1 SLOAD PUSH1 0x1 PUSH1 0x1 PUSH1 0xA0 SHL SUB NOT AND DUP6 OR SWAP1 SSTORE PUSH1 0xB DUP1 SLOAD DUP1 DUP6 ADD SWAP1 SWAP2 SSTORE PUSH32 0x175B7A638427703F0DBE7BB9BBF987A2551717B34E79F33B5B1008D1FA01DB9 ADD DUP7 SWAP1 SSTORE SWAP3 DUP4 MSTORE POP PUSH1 0x7 DUP6 MSTORE SWAP2 DUP2 KECCAK256 DUP1 SLOAD SWAP3 DUP4 ADD DUP2 SSTORE DUP2 MSTORE SWAP3 SWAP1 SWAP3 KECCAK256 SWAP1 SWAP2 ADD SSTORE JUMP JUMPDEST PUSH1 0x1 PUSH1 0x1 PUSH1 0xA0 SHL SUB DUP4 AND PUSH0 SWAP1 DUP2 MSTORE PUSH1 0x2 PUSH1 0x20 SWAP1 DUP2 MSTORE PUSH1 0x40 DUP1 DUP4 KECCAK256 DUP6 DUP5 MSTORE SWAP1 SWAP2 MSTORE DUP2 KECCAK256 DUP1 SLOAD DUP4 SWAP3 SWAP1 PUSH2 0x1D67 SWAP1 DUP5 SWAP1 PUSH2 0x298F JUMP JUMPDEST SWAP1 SWAP2 SSTORE POP POP POP POP POP JUMP JUMPDEST PUSH1 0x1 PUSH1 0x1 PUSH1 0xA0 SHL SUB DUP5 AND PUSH0 SWAP1 DUP2 MSTORE PUSH1 0x8 PUSH1 0x20 DUP2 DUP2 MSTORE PUSH1 0x40 DUP1 DUP5 KECCAK256 DUP8 DUP6 MSTORE SWAP1 SWAP2 MSTORE DUP3 KECCAK256 SWAP2 SWAP1 DUP5 SWAP1 DUP2 GT ISZERO PUSH2 0x1DA6 JUMPI PUSH2 0x1DA6 PUSH2 0x244B JUMP JUMPDEST PUSH1 0x8 DUP2 GT ISZERO PUSH2 0x1DB7 JUMPI PUSH2 0x1DB7 PUSH2 0x244B JUMP JUMPDEST DUP2 MSTORE PUSH1 0x20 ADD SWAP1 DUP2 MSTORE PUSH1 0x20 ADD PUSH0 KECCAK256 SLOAD PUSH0 SUB PUSH2 0x1E5E JUMPI PUSH1 0x1 PUSH1 0x1 PUSH1 0xA0 SHL SUB DUP5 AND PUSH0 SWAP1 DUP2 MSTORE PUSH1 0x9 PUSH1 0x20 MSTORE PUSH1 0x40 SWAP1 KECCAK256 SLOAD ISZERO DUP1 PUSH2 0x1E2E JUMPI POP PUSH1 0x1 PUSH1 0x1 PUSH1 0xA0 SHL SUB DUP5 AND PUSH0 SWAP1 DUP2 MSTORE PUSH1 0x9 PUSH1 0x20 MSTORE PUSH1 0x40 SWAP1 KECCAK256 DUP1 SLOAD DUP5 SWAP2 SWAP1 PUSH2 0x1E12 SWAP1 PUSH1 0x1 SWAP1 PUSH2 0x2B2C JUMP JUMPDEST DUP2 SLOAD DUP2 LT PUSH2 0x1E22 JUMPI PUSH2 0x1E22 PUSH2 0x29C8 JUMP JUMPDEST SWAP1 PUSH0 MSTORE PUSH1 0x20 PUSH0 KECCAK256 ADD SLOAD EQ ISZERO JUMPDEST ISZERO PUSH2 0x1E5E JUMPI PUSH1 0x1 PUSH1 0x1 PUSH1 0xA0 SHL SUB DUP5 AND PUSH0 SWAP1 DUP2 MSTORE PUSH1 0x9 PUSH1 0x20 SWAP1 DUP2 MSTORE PUSH1 0x40 DUP3 KECCAK256 DUP1 SLOAD PUSH1 0x1 DUP2 ADD DUP3 SSTORE SWAP1 DUP4 MSTORE SWAP2 KECCAK256 ADD DUP4 SWAP1 SSTORE JUMPDEST PUSH1 0x1 PUSH1 0x1 PUSH1 0xA0 SHL SUB DUP5 AND PUSH0 SWAP1 DUP2 MSTORE PUSH1 0x8 PUSH1 0x20 DUP2 DUP2 MSTORE PUSH1 0x40 DUP1 DUP5 KECCAK256 DUP8 DUP6 MSTORE SWAP1 SWAP2 MSTORE DUP3 KECCAK256 DUP4 SWAP3 SWAP1 SWAP2 DUP6 SWAP1 DUP2 GT ISZERO PUSH2 0x1E95 JUMPI PUSH2 0x1E95 PUSH2 0x244B JUMP JUMPDEST PUSH1 0x8 DUP2 GT ISZERO PUSH2 0x1EA6 JUMPI PUSH2 0x1EA6 PUSH2 0x244B JUMP JUMPDEST DUP2 MSTORE PUSH1 0x20 ADD SWAP1 DUP2 MSTORE PUSH1 0x20 ADD PUSH0 KECCAK256 DUP2 SWAP1 SSTORE POP PUSH0 PUSH1 0x40 MLOAD DUP1 PUSH1 0x80 ADD PUSH1 0x40 MSTORE DUP1 DUP7 PUSH1 0x1 PUSH1 0x1 PUSH1 0xA0 SHL SUB AND DUP2 MSTORE PUSH1 0x20 ADD DUP4 DUP2 MSTORE PUSH1 0x20 ADD DUP5 PUSH1 0x8 DUP2 GT ISZERO PUSH2 0x1EEA JUMPI PUSH2 0x1EEA PUSH2 0x244B JUMP JUMPDEST DUP2 MSTORE PUSH1 0x20 SWAP1 DUP2 ADD DUP7 SWAP1 MSTORE PUSH1 0x1 PUSH1 0x1 PUSH1 0xA0 SHL SUB DUP8 DUP2 AND PUSH0 SWAP1 DUP2 MSTORE PUSH1 0xA DUP4 MSTORE PUSH1 0x40 DUP1 DUP3 KECCAK256 DUP10 DUP4 MSTORE DUP5 MSTORE DUP1 DUP3 KECCAK256 DUP1 SLOAD PUSH1 0x1 DUP1 DUP3 ADD DUP4 SSTORE SWAP2 DUP5 MSTORE SWAP3 DUP6 SWAP1 KECCAK256 DUP7 MLOAD PUSH1 0x4 SWAP1 SWAP5 MUL ADD DUP1 SLOAD PUSH1 0x1 PUSH1 0x1 PUSH1 0xA0 SHL SUB NOT AND SWAP4 SWAP1 SWAP5 AND SWAP3 SWAP1 SWAP3 OR DUP4 SSTORE SWAP3 DUP5 ADD MLOAD DUP3 DUP3 ADD SSTORE SWAP2 DUP4 ADD MLOAD PUSH1 0x2 DUP3 ADD DUP1 SLOAD SWAP5 SWAP6 POP DUP6 SWAP5 SWAP3 SWAP4 SWAP2 SWAP3 SWAP1 SWAP2 PUSH1 0xFF NOT SWAP1 SWAP2 AND SWAP1 DUP4 PUSH1 0x8 DUP2 GT ISZERO PUSH2 0x1F78 JUMPI PUSH2 0x1F78 PUSH2 0x244B JUMP JUMPDEST MUL OR SWAP1 SSTORE POP PUSH1 0x60 DUP3 ADD MLOAD DUP2 PUSH1 0x3 ADD SSTORE POP POP POP POP POP POP POP JUMP JUMPDEST PUSH1 0x1 PUSH1 0x1 PUSH1 0xA0 SHL SUB DUP3 AND PUSH0 SWAP1 DUP2 MSTORE PUSH1 0x2 PUSH1 0x20 SWAP1 DUP2 MSTORE PUSH1 0x40 DUP1 DUP4 KECCAK256 DUP5 DUP5 MSTORE SWAP1 SWAP2 MSTORE DUP2 KECCAK256 DUP1 SLOAD PUSH2 0x1FF8 JUMPI PUSH1 0x40 MLOAD PUSH3 0x461BCD PUSH1 0xE5 SHL DUP2 MSTORE PUSH1 0x20 PUSH1 0x4 DUP3 ADD MSTORE PUSH1 0x15 PUSH1 0x24 DUP3 ADD MSTORE PUSH21 0x2737902AB63A3930A1281030BB30B4B630B136329 PUSH1 0x5D SHL PUSH1 0x44 DUP3 ADD MSTORE PUSH1 0x64 ADD PUSH2 0x683 JUMP JUMPDEST PUSH1 0x4 DUP2 ADD SLOAD PUSH1 0xFF AND ISZERO PUSH2 0x2047 JUMPI PUSH1 0x40 MLOAD PUSH3 0x461BCD PUSH1 0xE5 SHL DUP2 MSTORE PUSH1 0x20 PUSH1 0x4 DUP3 ADD MSTORE PUSH1 0x17 PUSH1 0x24 DUP3 ADD MSTORE PUSH23 0x2AAA2C27903430B9903132B2B71031B0B731B2B632B21 PUSH1 0x4D SHL PUSH1 0x44 DUP3 ADD MSTORE PUSH1 0x64 ADD PUSH2 0x683 JUMP JUMPDEST DUP1 PUSH1 0x2 ADD SLOAD TIMESTAMP LT ISZERO PUSH2 0x209B JUMPI PUSH1 0x40 MLOAD PUSH3 0x461BCD PUSH1 0xE5 SHL DUP2 MSTORE PUSH1 0x20 PUSH1 0x4 DUP3 ADD DUP2 SWAP1 MSTORE PUSH1 0x24 DUP3 ADD MSTORE PUSH32 0x556C7472614250206973206E6F742079657420776974686472617761626C6520 PUSH1 0x44 DUP3 ADD MSTORE PUSH1 0x64 ADD PUSH2 0x683 JUMP JUMPDEST DUP1 PUSH1 0x3 ADD SLOAD TIMESTAMP GT ISZERO PUSH2 0x20E6 JUMPI PUSH1 0x40 MLOAD PUSH3 0x461BCD PUSH1 0xE5 SHL DUP2 MSTORE PUSH1 0x20 PUSH1 0x4 DUP3 ADD MSTORE PUSH1 0x14 PUSH1 0x24 DUP3 ADD MSTORE PUSH20 0x2AB63A3930A128103430B99032BC3834B932B21 PUSH1 0x65 SHL PUSH1 0x44 DUP3 ADD MSTORE PUSH1 0x64 ADD PUSH2 0x683 JUMP JUMPDEST DUP1 SLOAD PUSH1 0x1 PUSH1 0x1 PUSH1 0xA0 SHL SUB DUP6 AND PUSH0 DUP2 DUP2 MSTORE PUSH1 0x2 PUSH1 0x20 DUP2 DUP2 MSTORE PUSH1 0x40 DUP1 DUP5 KECCAK256 DUP10 DUP6 MSTORE DUP3 MSTORE DUP1 DUP5 KECCAK256 DUP5 DUP2 SSTORE PUSH1 0x1 DUP2 ADD DUP6 SWAP1 SSTORE SWAP3 DUP4 ADD DUP5 SWAP1 SSTORE PUSH1 0x3 DUP4 ADD DUP5 SWAP1 SSTORE PUSH1 0x4 SWAP1 SWAP3 ADD DUP1 SLOAD PUSH1 0xFF NOT AND SWAP1 SSTORE SWAP3 DUP3 MSTORE PUSH1 0x7 SWAP1 SWAP3 MSTORE SWAP1 DUP2 KECCAK256 SWAP1 JUMPDEST DUP2 SLOAD DUP2 LT ISZERO PUSH2 0x21D8 JUMPI DUP6 DUP3 DUP3 DUP2 SLOAD DUP2 LT PUSH2 0x2157 JUMPI PUSH2 0x2157 PUSH2 0x29C8 JUMP JUMPDEST SWAP1 PUSH0 MSTORE PUSH1 0x20 PUSH0 KECCAK256 ADD SLOAD SUB PUSH2 0x21D0 JUMPI DUP2 SLOAD DUP3 SWAP1 PUSH2 0x2175 SWAP1 PUSH1 0x1 SWAP1 PUSH2 0x2B2C JUMP JUMPDEST DUP2 SLOAD DUP2 LT PUSH2 0x2185 JUMPI PUSH2 0x2185 PUSH2 0x29C8 JUMP JUMPDEST SWAP1 PUSH0 MSTORE PUSH1 0x20 PUSH0 KECCAK256 ADD SLOAD DUP3 DUP3 DUP2 SLOAD DUP2 LT PUSH2 0x21A0 JUMPI PUSH2 0x21A0 PUSH2 0x29C8 JUMP JUMPDEST SWAP1 PUSH0 MSTORE PUSH1 0x20 PUSH0 KECCAK256 ADD DUP2 SWAP1 SSTORE POP DUP2 DUP1 SLOAD DUP1 PUSH2 0x21BC JUMPI PUSH2 0x21BC PUSH2 0x2B71 JUMP JUMPDEST PUSH1 0x1 SWAP1 SUB DUP2 DUP2 SWAP1 PUSH0 MSTORE PUSH1 0x20 PUSH0 KECCAK256 ADD PUSH0 SWAP1 SSTORE SWAP1 SSTORE JUMPDEST PUSH1 0x1 ADD PUSH2 0x213B JUMP JUMPDEST POP SWAP1 SWAP6 SWAP5 POP POP POP POP POP JUMP JUMPDEST PUSH0 DUP2 DUP2 MSTORE PUSH1 0x1 PUSH1 0x20 MSTORE PUSH1 0x40 SWAP1 KECCAK256 SLOAD PUSH2 0x2233 JUMPI PUSH1 0x40 MLOAD PUSH3 0x461BCD PUSH1 0xE5 SHL DUP2 MSTORE PUSH1 0x20 PUSH1 0x4 DUP3 ADD MSTORE PUSH1 0x13 PUSH1 0x24 DUP3 ADD MSTORE PUSH19 0x15551613C8191BD95CC81B9BDD08195E1A5CDD PUSH1 0x6A SHL PUSH1 0x44 DUP3 ADD MSTORE PUSH1 0x64 ADD PUSH2 0x683 JUMP JUMPDEST PUSH0 JUMPDEST PUSH0 DUP3 DUP2 MSTORE PUSH1 0x1 PUSH1 0x20 MSTORE PUSH1 0x40 SWAP1 KECCAK256 SLOAD DUP2 LT ISZERO PUSH2 0x7F0 JUMPI PUSH0 DUP3 DUP2 MSTORE PUSH1 0x1 PUSH1 0x20 MSTORE PUSH1 0x40 DUP2 KECCAK256 DUP1 SLOAD DUP4 SWAP1 DUP2 LT PUSH2 0x2269 JUMPI PUSH2 0x2269 PUSH2 0x29C8 JUMP JUMPDEST PUSH0 SWAP2 DUP3 MSTORE PUSH1 0x20 DUP1 DUP4 KECCAK256 SWAP1 SWAP2 ADD SLOAD PUSH1 0x1 PUSH1 0x1 PUSH1 0xA0 SHL SUB AND DUP1 DUP4 MSTORE PUSH1 0x2 DUP3 MSTORE PUSH1 0x40 DUP1 DUP5 KECCAK256 DUP8 DUP6 MSTORE SWAP1 SWAP3 MSTORE SWAP2 KECCAK256 SLOAD SWAP1 SWAP2 POP ISZERO PUSH2 0x22CD JUMPI PUSH1 0x1 PUSH1 0x1 PUSH1 0xA0 SHL SUB DUP2 AND PUSH0 SWAP1 DUP2 MSTORE PUSH1 0x2 PUSH1 0x20 SWAP1 DUP2 MSTORE PUSH1 0x40 DUP1 DUP4 KECCAK256 DUP7 DUP5 MSTORE SWAP1 SWAP2 MSTORE SWAP1 KECCAK256 PUSH1 0x4 ADD DUP1 SLOAD PUSH1 0xFF NOT AND PUSH1 0x1 OR SWAP1 SSTORE JUMPDEST POP PUSH1 0x1 ADD PUSH2 0x2235 JUMP JUMPDEST PUSH0 DUP1 PUSH1 0x20 DUP4 DUP6 SUB SLT ISZERO PUSH2 0x22E7 JUMPI PUSH0 DUP1 REVERT JUMPDEST DUP3 CALLDATALOAD PUSH1 0x1 PUSH1 0x1 PUSH1 0x40 SHL SUB DUP2 GT ISZERO PUSH2 0x22FC JUMPI PUSH0 DUP1 REVERT JUMPDEST DUP4 ADD PUSH1 0x1F DUP2 ADD DUP6 SGT PUSH2 0x230C JUMPI PUSH0 DUP1 REVERT JUMPDEST DUP1 CALLDATALOAD PUSH1 0x1 PUSH1 0x1 PUSH1 0x40 SHL SUB DUP2 GT ISZERO PUSH2 0x2321 JUMPI PUSH0 DUP1 REVERT JUMPDEST DUP6 PUSH1 0x20 DUP3 DUP5 ADD ADD GT ISZERO PUSH2 0x2332 JUMPI PUSH0 DUP1 REVERT JUMPDEST PUSH1 0x20 SWAP2 SWAP1 SWAP2 ADD SWAP6 SWAP1 SWAP5 POP SWAP3 POP POP POP JUMP JUMPDEST PUSH0 PUSH1 0x20 DUP3 DUP5 SUB SLT ISZERO PUSH2 0x2352 JUMPI PUSH0 DUP1 REVERT JUMPDEST POP CALLDATALOAD SWAP2 SWAP1 POP JUMP JUMPDEST PUSH0 DUP1 PUSH1 0x40 DUP4 DUP6 SUB SLT ISZERO PUSH2 0x236A JUMPI PUSH0 DUP1 REVERT JUMPDEST POP POP DUP1 CALLDATALOAD SWAP3 PUSH1 0x20 SWAP1 SWAP2 ADD CALLDATALOAD SWAP2 POP JUMP JUMPDEST PUSH1 0x1 PUSH1 0x1 PUSH1 0xA0 SHL SUB SWAP2 SWAP1 SWAP2 AND DUP2 MSTORE PUSH1 0x20 ADD SWAP1 JUMP JUMPDEST DUP1 CALLDATALOAD PUSH1 0x1 PUSH1 0x1 PUSH1 0xA0 SHL SUB DUP2 AND DUP2 EQ PUSH2 0x7A6 JUMPI PUSH0 DUP1 REVERT JUMPDEST PUSH0 PUSH1 0x20 DUP3 DUP5 SUB SLT ISZERO PUSH2 0x23B3 JUMPI PUSH0 DUP1 REVERT JUMPDEST PUSH2 0xA88 DUP3 PUSH2 0x238D JUMP JUMPDEST PUSH0 DUP1 PUSH0 PUSH1 0x60 DUP5 DUP7 SUB SLT ISZERO PUSH2 0x23CE JUMPI PUSH0 DUP1 REVERT JUMPDEST PUSH2 0x23D7 DUP5 PUSH2 0x238D JUMP JUMPDEST SWAP6 PUSH1 0x20 DUP6 ADD CALLDATALOAD SWAP6 POP PUSH1 0x40 SWAP1 SWAP5 ADD CALLDATALOAD SWAP4 SWAP3 POP POP POP JUMP JUMPDEST PUSH0 DUP1 PUSH1 0x40 DUP4 DUP6 SUB SLT ISZERO PUSH2 0x23FD JUMPI PUSH0 DUP1 REVERT JUMPDEST PUSH2 0x2406 DUP4 PUSH2 0x238D JUMP JUMPDEST SWAP5 PUSH1 0x20 SWAP4 SWAP1 SWAP4 ADD CALLDATALOAD SWAP4 POP POP POP JUMP JUMPDEST PUSH1 0x20 DUP1 DUP3 MSTORE DUP3 MLOAD DUP3 DUP3 ADD DUP2 SWAP1 MSTORE PUSH0 SWAP2 DUP5 ADD SWAP1 PUSH1 0x40 DUP5 ADD SWAP1 DUP4 JUMPDEST DUP2 DUP2 LT ISZERO PUSH2 0x21D8 JUMPI DUP4 MLOAD DUP4 MSTORE PUSH1 0x20 SWAP4 DUP5 ADD SWAP4 SWAP1 SWAP3 ADD SWAP2 PUSH1 0x1 ADD PUSH2 0x242D JUMP JUMPDEST PUSH4 0x4E487B71 PUSH1 0xE0 SHL PUSH0 MSTORE PUSH1 0x21 PUSH1 0x4 MSTORE PUSH1 0x24 PUSH0 REVERT JUMPDEST PUSH1 0x9 DUP2 LT PUSH2 0x247B JUMPI PUSH4 0x4E487B71 PUSH1 0xE0 SHL PUSH0 MSTORE PUSH1 0x21 PUSH1 0x4 MSTORE PUSH1 0x24 PUSH0 REVERT JUMPDEST SWAP1 MSTORE JUMP JUMPDEST PUSH1 0x1 PUSH1 0x1 PUSH1 0xA0 SHL SUB DUP6 AND DUP2 MSTORE PUSH1 0x20 DUP2 ADD DUP5 SWAP1 MSTORE PUSH1 0x80 DUP2 ADD PUSH2 0x24A3 PUSH1 0x40 DUP4 ADD DUP6 PUSH2 0x245F JUMP JUMPDEST DUP3 PUSH1 0x60 DUP4 ADD MSTORE SWAP6 SWAP5 POP POP POP POP POP JUMP JUMPDEST PUSH1 0x20 DUP1 DUP3 MSTORE DUP3 MLOAD DUP3 DUP3 ADD DUP2 SWAP1 MSTORE PUSH0 SWAP2 DUP5 ADD SWAP1 PUSH1 0x40 DUP5 ADD SWAP1 DUP4 JUMPDEST DUP2 DUP2 LT ISZERO PUSH2 0x21D8 JUMPI DUP4 MLOAD DUP1 MLOAD PUSH1 0x1 PUSH1 0x1 PUSH1 0xA0 SHL SUB AND DUP5 MSTORE PUSH1 0x20 DUP1 DUP3 ADD MLOAD SWAP1 DUP6 ADD MSTORE PUSH1 0x40 DUP1 DUP3 ADD MLOAD SWAP1 PUSH2 0x24FF SWAP1 DUP7 ADD DUP3 PUSH2 0x245F JUMP JUMPDEST POP PUSH1 0x60 SWAP1 DUP2 ADD MLOAD SWAP1 DUP5 ADD MSTORE PUSH1 0x20 SWAP4 SWAP1 SWAP4 ADD SWAP3 PUSH1 0x80 SWAP1 SWAP3 ADD SWAP2 PUSH1 0x1 ADD PUSH2 0x24CB JUMP JUMPDEST PUSH0 DUP1 DUP4 PUSH1 0x1F DUP5 ADD SLT PUSH2 0x252F JUMPI PUSH0 DUP1 REVERT JUMPDEST POP DUP2 CALLDATALOAD PUSH1 0x1 PUSH1 0x1 PUSH1 0x40 SHL SUB DUP2 GT ISZERO PUSH2 0x2545 JUMPI PUSH0 DUP1 REVERT JUMPDEST PUSH1 0x20 DUP4 ADD SWAP2 POP DUP4 PUSH1 0x20 DUP3 PUSH1 0x5 SHL DUP6 ADD ADD GT ISZERO PUSH2 0x255F JUMPI PUSH0 DUP1 REVERT JUMPDEST SWAP3 POP SWAP3 SWAP1 POP JUMP JUMPDEST DUP1 ISZERO ISZERO DUP2 EQ PUSH2 0x1ADD JUMPI PUSH0 DUP1 REVERT JUMPDEST DUP1 CALLDATALOAD PUSH1 0x9 DUP2 LT PUSH2 0x7A6 JUMPI PUSH0 DUP1 REVERT JUMPDEST PUSH0 DUP1 PUSH0 DUP1 PUSH0 DUP1 PUSH0 PUSH1 0xA0 DUP9 DUP11 SUB SLT ISZERO PUSH2 0x2597 JUMPI PUSH0 DUP1 REVERT JUMPDEST DUP8 CALLDATALOAD SWAP7 POP PUSH1 0x20 DUP9 ADD CALLDATALOAD PUSH1 0x1 PUSH1 0x1 PUSH1 0x40 SHL SUB DUP2 GT ISZERO PUSH2 0x25B3 JUMPI PUSH0 DUP1 REVERT JUMPDEST PUSH2 0x25BF DUP11 DUP3 DUP12 ADD PUSH2 0x251F JUMP JUMPDEST SWAP1 SWAP8 POP SWAP6 POP POP PUSH1 0x40 DUP9 ADD CALLDATALOAD PUSH1 0x1 PUSH1 0x1 PUSH1 0x40 SHL SUB DUP2 GT ISZERO PUSH2 0x25DD JUMPI PUSH0 DUP1 REVERT JUMPDEST PUSH2 0x25E9 DUP11 DUP3 DUP12 ADD PUSH2 0x251F JUMP JUMPDEST SWAP1 SWAP6 POP SWAP4 POP POP PUSH1 0x60 DUP9 ADD CALLDATALOAD PUSH2 0x25FD DUP2 PUSH2 0x2566 JUMP JUMPDEST SWAP2 POP PUSH2 0x260B PUSH1 0x80 DUP10 ADD PUSH2 0x2573 JUMP JUMPDEST SWAP1 POP SWAP3 SWAP6 SWAP9 SWAP2 SWAP5 SWAP8 POP SWAP3 SWAP6 POP JUMP JUMPDEST PUSH4 0x4E487B71 PUSH1 0xE0 SHL PUSH0 MSTORE PUSH1 0x41 PUSH1 0x4 MSTORE PUSH1 0x24 PUSH0 REVERT JUMPDEST PUSH0 DUP1 PUSH1 0x40 DUP4 DUP6 SUB SLT ISZERO PUSH2 0x263E JUMPI PUSH0 DUP1 REVERT JUMPDEST PUSH2 0x2647 DUP4 PUSH2 0x238D JUMP JUMPDEST SWAP2 POP PUSH1 0x20 DUP4 ADD CALLDATALOAD PUSH1 0x1 PUSH1 0x1 PUSH1 0x40 SHL SUB DUP2 GT ISZERO PUSH2 0x2661 JUMPI PUSH0 DUP1 REVERT JUMPDEST DUP4 ADD PUSH1 0x1F DUP2 ADD DUP6 SGT PUSH2 0x2671 JUMPI PUSH0 DUP1 REVERT JUMPDEST DUP1 CALLDATALOAD PUSH1 0x1 PUSH1 0x1 PUSH1 0x40 SHL SUB DUP2 GT ISZERO PUSH2 0x268A JUMPI PUSH2 0x268A PUSH2 0x2619 JUMP JUMPDEST PUSH1 0x40 MLOAD PUSH1 0x5 DUP3 SWAP1 SHL SWAP1 PUSH1 0x3F DUP3 ADD PUSH1 0x1F NOT AND DUP2 ADD PUSH1 0x1 PUSH1 0x1 PUSH1 0x40 SHL SUB DUP2 GT DUP3 DUP3 LT OR ISZERO PUSH2 0x26B8 JUMPI PUSH2 0x26B8 PUSH2 0x2619 JUMP JUMPDEST PUSH1 0x40 MSTORE SWAP2 DUP3 MSTORE PUSH1 0x20 DUP2 DUP5 ADD DUP2 ADD SWAP3 SWAP1 DUP2 ADD DUP9 DUP5 GT ISZERO PUSH2 0x26D5 JUMPI PUSH0 DUP1 REVERT JUMPDEST PUSH1 0x20 DUP6 ADD SWAP5 POP JUMPDEST DUP4 DUP6 LT ISZERO PUSH2 0x26F8 JUMPI DUP5 CALLDATALOAD DUP1 DUP3 MSTORE PUSH1 0x20 SWAP6 DUP7 ADD SWAP6 SWAP1 SWAP4 POP ADD PUSH2 0x26DC JUMP JUMPDEST POP DUP1 SWAP5 POP POP POP POP POP SWAP3 POP SWAP3 SWAP1 POP JUMP JUMPDEST PUSH0 DUP2 MLOAD DUP1 DUP5 MSTORE DUP1 PUSH1 0x20 DUP5 ADD PUSH1 0x20 DUP7 ADD MCOPY PUSH0 PUSH1 0x20 DUP3 DUP7 ADD ADD MSTORE PUSH1 0x20 PUSH1 0x1F NOT PUSH1 0x1F DUP4 ADD AND DUP6 ADD ADD SWAP2 POP POP SWAP3 SWAP2 POP POP JUMP JUMPDEST DUP6 DUP2 MSTORE PUSH1 0xA0 PUSH1 0x20 DUP3 ADD MSTORE PUSH0 PUSH2 0x274D PUSH1 0xA0 DUP4 ADD DUP8 PUSH2 0x2707 JUMP JUMPDEST DUP3 DUP2 SUB PUSH1 0x40 DUP5 ADD MSTORE PUSH2 0x275F DUP2 DUP8 PUSH2 0x2707 JUMP JUMPDEST PUSH1 0x60 DUP5 ADD SWAP6 SWAP1 SWAP6 MSTORE POP POP PUSH1 0x80 ADD MSTORE SWAP4 SWAP3 POP POP POP JUMP JUMPDEST PUSH0 DUP1 PUSH0 DUP1 PUSH0 PUSH1 0xA0 DUP7 DUP9 SUB SLT ISZERO PUSH2 0x2788 JUMPI PUSH0 DUP1 REVERT JUMPDEST PUSH2 0x2791 DUP7 PUSH2 0x238D JUMP JUMPDEST SWAP5 POP PUSH1 0x20 DUP7 ADD CALLDATALOAD SWAP4 POP PUSH1 0x40 DUP7 ADD CALLDATALOAD SWAP3 POP PUSH1 0x60 DUP7 ADD CALLDATALOAD PUSH2 0x27AF DUP2 PUSH2 0x2566 JUMP JUMPDEST SWAP2 POP PUSH2 0x27BD PUSH1 0x80 DUP8 ADD PUSH2 0x2573 JUMP JUMPDEST SWAP1 POP SWAP3 SWAP6 POP SWAP3 SWAP6 SWAP1 SWAP4 POP JUMP JUMPDEST PUSH0 DUP1 PUSH0 PUSH1 0x60 DUP5 DUP7 SUB SLT ISZERO PUSH2 0x27DB JUMPI PUSH0 DUP1 REVERT JUMPDEST PUSH2 0x27E4 DUP5 PUSH2 0x238D JUMP JUMPDEST SWAP3 POP PUSH1 0x20 DUP5 ADD CALLDATALOAD SWAP2 POP PUSH2 0x27F9 PUSH1 0x40 DUP6 ADD PUSH2 0x2573 JUMP JUMPDEST SWAP1 POP SWAP3 POP SWAP3 POP SWAP3 JUMP JUMPDEST PUSH1 0x20 DUP1 DUP3 MSTORE PUSH1 0x1B SWAP1 DUP3 ADD MSTORE PUSH27 0x14DB585C9D0818DBDB9D1C9858DD1CC81B9BDD08185B1B1BDDD959 PUSH1 0x2A SHL PUSH1 0x40 DUP3 ADD MSTORE PUSH1 0x60 ADD SWAP1 JUMP JUMPDEST PUSH1 0x1 DUP2 DUP2 SHR SWAP1 DUP3 AND DUP1 PUSH2 0x284B JUMPI PUSH1 0x7F DUP3 AND SWAP2 POP JUMPDEST PUSH1 0x20 DUP3 LT DUP2 SUB PUSH2 0x2869 JUMPI PUSH4 0x4E487B71 PUSH1 0xE0 SHL PUSH0 MSTORE PUSH1 0x22 PUSH1 0x4 MSTORE PUSH1 0x24 PUSH0 REVERT JUMPDEST POP SWAP2 SWAP1 POP JUMP JUMPDEST PUSH1 0x1F DUP3 GT ISZERO PUSH2 0x6F0 JUMPI DUP1 PUSH0 MSTORE PUSH1 0x20 PUSH0 KECCAK256 PUSH1 0x1F DUP5 ADD PUSH1 0x5 SHR DUP2 ADD PUSH1 0x20 DUP6 LT ISZERO PUSH2 0x2894 JUMPI POP DUP1 JUMPDEST PUSH1 0x1F DUP5 ADD PUSH1 0x5 SHR DUP3 ADD SWAP2 POP JUMPDEST DUP2 DUP2 LT ISZERO PUSH2 0x1A82 JUMPI PUSH0 DUP2 SSTORE PUSH1 0x1 ADD PUSH2 0x28A0 JUMP JUMPDEST PUSH0 NOT PUSH1 0x3 DUP4 SWAP1 SHL SHR NOT AND PUSH1 0x1 SWAP2 SWAP1 SWAP2 SHL OR SWAP1 JUMP JUMPDEST PUSH1 0x1 PUSH1 0x1 PUSH1 0x40 SHL SUB DUP4 GT ISZERO PUSH2 0x28DE JUMPI PUSH2 0x28DE PUSH2 0x2619 JUMP JUMPDEST PUSH2 0x28F2 DUP4 PUSH2 0x28EC DUP4 SLOAD PUSH2 0x2837 JUMP JUMPDEST DUP4 PUSH2 0x286F JUMP JUMPDEST PUSH0 PUSH1 0x1F DUP5 GT PUSH1 0x1 DUP2 EQ PUSH2 0x291E JUMPI PUSH0 DUP6 ISZERO PUSH2 0x290C JUMPI POP DUP4 DUP3 ADD CALLDATALOAD JUMPDEST PUSH2 0x2916 DUP7 DUP3 PUSH2 0x28B3 JUMP JUMPDEST DUP5 SSTORE POP PUSH2 0x1A82 JUMP JUMPDEST PUSH0 DUP4 DUP2 MSTORE PUSH1 0x20 DUP2 KECCAK256 PUSH1 0x1F NOT DUP8 AND SWAP2 JUMPDEST DUP3 DUP2 LT ISZERO PUSH2 0x294D JUMPI DUP7 DUP6 ADD CALLDATALOAD DUP3 SSTORE PUSH1 0x20 SWAP5 DUP6 ADD SWAP5 PUSH1 0x1 SWAP1 SWAP3 ADD SWAP2 ADD PUSH2 0x292D JUMP JUMPDEST POP DUP7 DUP3 LT ISZERO PUSH2 0x2969 JUMPI PUSH0 NOT PUSH1 0xF8 DUP9 PUSH1 0x3 SHL AND SHR NOT DUP5 DUP8 ADD CALLDATALOAD AND DUP2 SSTORE JUMPDEST POP POP PUSH1 0x1 DUP6 PUSH1 0x1 SHL ADD DUP4 SSTORE POP POP POP POP POP JUMP JUMPDEST PUSH4 0x4E487B71 PUSH1 0xE0 SHL PUSH0 MSTORE PUSH1 0x11 PUSH1 0x4 MSTORE PUSH1 0x24 PUSH0 REVERT JUMPDEST DUP1 DUP3 ADD DUP1 DUP3 GT ISZERO PUSH2 0x170B JUMPI PUSH2 0x170B PUSH2 0x297B JUMP JUMPDEST PUSH1 0x20 DUP1 DUP3 MSTORE PUSH1 0xC SWAP1 DUP3 ADD MSTORE PUSH12 0x155B985D5D1A1BDC9A5E9959 PUSH1 0xA2 SHL PUSH1 0x40 DUP3 ADD MSTORE PUSH1 0x60 ADD SWAP1 JUMP JUMPDEST PUSH4 0x4E487B71 PUSH1 0xE0 SHL PUSH0 MSTORE PUSH1 0x32 PUSH1 0x4 MSTORE PUSH1 0x24 PUSH0 REVERT JUMPDEST PUSH1 0x20 DUP1 DUP3 MSTORE PUSH1 0x1F SWAP1 DUP3 ADD MSTORE PUSH32 0x72656620636F64652065786973747320696E20616E6F74686572207573657200 PUSH1 0x40 DUP3 ADD MSTORE PUSH1 0x60 ADD SWAP1 JUMP JUMPDEST PUSH1 0x20 DUP1 DUP3 MSTORE PUSH1 0x14 SWAP1 DUP3 ADD MSTORE PUSH20 0x6C6F6E67746974756465206E6F7420616C6C6F77 PUSH1 0x60 SHL PUSH1 0x40 DUP3 ADD MSTORE PUSH1 0x60 ADD SWAP1 JUMP JUMPDEST DUP2 MLOAD PUSH1 0x1 PUSH1 0x1 PUSH1 0x40 SHL SUB DUP2 GT ISZERO PUSH2 0x2A5A JUMPI PUSH2 0x2A5A PUSH2 0x2619 JUMP JUMPDEST PUSH2 0x2A6E DUP2 PUSH2 0x2A68 DUP5 SLOAD PUSH2 0x2837 JUMP JUMPDEST DUP5 PUSH2 0x286F JUMP JUMPDEST PUSH1 0x20 PUSH1 0x1F DUP3 GT PUSH1 0x1 DUP2 EQ PUSH2 0x2A9B JUMPI PUSH0 DUP4 ISZERO PUSH2 0x2A89 JUMPI POP DUP5 DUP3 ADD MLOAD JUMPDEST PUSH2 0x2A93 DUP5 DUP3 PUSH2 0x28B3 JUMP JUMPDEST DUP6 SSTORE POP PUSH2 0x1A82 JUMP JUMPDEST PUSH0 DUP5 DUP2 MSTORE PUSH1 0x20 DUP2 KECCAK256 PUSH1 0x1F NOT DUP6 AND SWAP2 JUMPDEST DUP3 DUP2 LT ISZERO PUSH2 0x2ACA JUMPI DUP8 DUP6 ADD MLOAD DUP3 SSTORE PUSH1 0x20 SWAP5 DUP6 ADD SWAP5 PUSH1 0x1 SWAP1 SWAP3 ADD SWAP2 ADD PUSH2 0x2AAA JUMP JUMPDEST POP DUP5 DUP3 LT ISZERO PUSH2 0x2AE7 JUMPI DUP7 DUP5 ADD MLOAD PUSH0 NOT PUSH1 0x3 DUP8 SWAP1 SHL PUSH1 0xF8 AND SHR NOT AND DUP2 SSTORE JUMPDEST POP POP POP POP PUSH1 0x1 SWAP1 DUP2 SHL ADD SWAP1 SSTORE POP JUMP JUMPDEST PUSH1 0x20 DUP1 DUP3 MSTORE PUSH1 0x1C SWAP1 DUP3 ADD MSTORE PUSH28 0x1D5C19185D194818985B185B98D94E8815DC9BDB99C8185B5BDD5B9D PUSH1 0x22 SHL PUSH1 0x40 DUP3 ADD MSTORE PUSH1 0x60 ADD SWAP1 JUMP JUMPDEST DUP2 DUP2 SUB DUP2 DUP2 GT ISZERO PUSH2 0x170B JUMPI PUSH2 0x170B PUSH2 0x297B JUMP JUMPDEST DUP1 DUP3 MUL DUP2 ISZERO DUP3 DUP3 DIV DUP5 EQ OR PUSH2 0x170B JUMPI PUSH2 0x170B PUSH2 0x297B JUMP JUMPDEST PUSH0 PUSH1 0x20 DUP3 DUP5 SUB SLT ISZERO PUSH2 0x2B66 JUMPI PUSH0 DUP1 REVERT JUMPDEST DUP2 MLOAD PUSH2 0xA88 DUP2 PUSH2 0x2566 JUMP JUMPDEST PUSH4 0x4E487B71 PUSH1 0xE0 SHL PUSH0 MSTORE PUSH1 0x31 PUSH1 0x4 MSTORE PUSH1 0x24 PUSH0 REVERT INVALID LOG2 PUSH5 0x6970667358 0x22 SLT KECCAK256 CALLDATALOAD PUSH0 EXTCODECOPY 0xC8 0xD5 PUSH1 0x7B 0x4B PUSH12 0x9FD9D4A9936B5E8C6FD671D2 0x4D PUSH14 0xF531C44A0F2550B61264736F6C63 NUMBER STOP ADDMOD BYTE STOP CALLER "
		},
		"gasEstimates": {
			"creation": {
				"codeDepositCost": "2239000",
				"executionCost": "28250",
				"totalCost": "2267250"
			},
			"external": {
				"addNationalBonusPool(uint256,bytes32)": "24736",
				"allUltraUTXO(uint256)": "4968",
				"allUserRefCodes(bytes32)": "2630",
				"balances(address)": "2626",
				"batchUpdateBalances(bytes32,address[],uint256[],bool,uint8)": "infinite",
				"cancelUltraUTXOByOwner(bytes32)": "infinite",
				"confirmUTXO(bytes32)": "36569",
				"getAllUltraUTXOs()": "infinite",
				"getBalance(address)": "3304",
				"getCommissionArrInRange(address,uint256,uint256)": "infinite",
				"getCommissionInRange(address,uint256,uint256)": "infinite",
				"getNationalBonusPool()": "2973",
				"getPendingNationalBonusPool(bytes32)": "2677",
				"getRefCode()": "3146",
				"getRefCodeToUser(bytes32)": "2607",
				"getUTXOsByUser(address)": "infinite",
				"getUltraBPInfo(address,bytes32)": "11935",
				"initUser(address,uint256,uint256)": "infinite",
				"mUserReceivedUltraUTXO(address,uint256)": "4913",
				"mUserToComInfos(address,uint256,uint256)": "11687",
				"mUserToDateToCom(address,uint256,uint8)": "infinite",
				"masterpool()": "2404",
				"nodeExtras(address)": "infinite",
				"owner()": "2698",
				"renounceOwnership()": "infinite",
				"resetNationalBonusPool(uint256)": "7349",
				"setMasterPool(address)": "27063",
				"setNickName(string)": "infinite",
				"setPhoneNumber(string)": "infinite",
				"setRefCodeToUser(bytes32,bytes32)": "82223",
				"setTreeCommissionAddress(address)": "27129",
				"transferOwnership(address)": "29100",
				"treeCommissionContract()": "2734",
				"updateBalance(address,bytes32,uint256,bool,uint8)": "infinite",
				"userUltraBP(address,bytes32)": "11819",
				"utxoToUsers(bytes32,uint256)": "4746",
				"withdrawBP(address,uint256)": "infinite",
				"withdrawUltraBP(address,bytes32[])": "infinite"
			},
			"internal": {
				"_withdrawUltraBP(address,bytes32)": "infinite",
				"addCommission(address,uint256,enum ITreeCommission.TYPE_OF_COM,uint256)": "infinite",
				"cancelUltraUTXO(bytes32)": "infinite",
				"createUltraUTXO(address,bytes32,uint256)": "26763",
				"isValidUTXO(bytes32)": "infinite"
			}
		},
		"methodIdentifiers": {
			"addNationalBonusPool(uint256,bytes32)": "21e7fb58",
			"allUltraUTXO(uint256)": "a472f0fb",
			"allUserRefCodes(bytes32)": "301b6096",
			"balances(address)": "27e235e3",
			"batchUpdateBalances(bytes32,address[],uint256[],bool,uint8)": "bd0dc970",
			"cancelUltraUTXOByOwner(bytes32)": "f14b8301",
			"confirmUTXO(bytes32)": "aad461e6",
			"getAllUltraUTXOs()": "56a86377",
			"getBalance(address)": "f8b2cb4f",
			"getCommissionArrInRange(address,uint256,uint256)": "b787d222",
			"getCommissionInRange(address,uint256,uint256)": "316f085f",
			"getNationalBonusPool()": "ee82cfd0",
			"getPendingNationalBonusPool(bytes32)": "6ceb37ba",
			"getRefCode()": "f605c095",
			"getRefCodeToUser(bytes32)": "1b879d6b",
			"getUTXOsByUser(address)": "fd3ec9d0",
			"getUltraBPInfo(address,bytes32)": "e43ed78b",
			"initUser(address,uint256,uint256)": "b21ec30e",
			"mUserReceivedUltraUTXO(address,uint256)": "398da49c",
			"mUserToComInfos(address,uint256,uint256)": "80bc0370",
			"mUserToDateToCom(address,uint256,uint8)": "ed4754f4",
			"masterpool()": "17961e05",
			"nodeExtras(address)": "d3e19a57",
			"owner()": "8da5cb5b",
			"renounceOwnership()": "715018a6",
			"resetNationalBonusPool(uint256)": "0870b174",
			"setMasterPool(address)": "7d9f66ae",
			"setNickName(string)": "c73ea367",
			"setPhoneNumber(string)": "086c32e5",
			"setRefCodeToUser(bytes32,bytes32)": "6731ad1e",
			"setTreeCommissionAddress(address)": "9b7952a4",
			"transferOwnership(address)": "f2fde38b",
			"treeCommissionContract()": "a0815a54",
			"updateBalance(address,bytes32,uint256,bool,uint8)": "e115dc7f",
			"userUltraBP(address,bytes32)": "ed747e25",
			"utxoToUsers(bytes32,uint256)": "0ded21b2",
			"withdrawBP(address,uint256)": "c84d239b",
			"withdrawUltraBP(address,bytes32[])": "d17aa5ca"
		}
	},
	"abi": [
		{
			"inputs": [],
			"stateMutability": "nonpayable",
			"type": "constructor"
		},
		{
			"inputs": [
				{
					"internalType": "address",
					"name": "owner",
					"type": "address"
				}
			],
			"name": "OwnableInvalidOwner",
			"type": "error"
		},
		{
			"inputs": [
				{
					"internalType": "address",
					"name": "account",
					"type": "address"
				}
			],
			"name": "OwnableUnauthorizedAccount",
			"type": "error"
		},
		{
			"anonymous": false,
			"inputs": [
				{
					"indexed": true,
					"internalType": "address",
					"name": "previousOwner",
					"type": "address"
				},
				{
					"indexed": true,
					"internalType": "address",
					"name": "newOwner",
					"type": "address"
				}
			],
			"name": "OwnershipTransferred",
			"type": "event"
		},
		{
			"inputs": [
				{
					"internalType": "uint256",
					"name": "amount",
					"type": "uint256"
				},
				{
					"internalType": "bytes32",
					"name": "utxoID",
					"type": "bytes32"
				}
			],
			"name": "addNationalBonusPool",
			"outputs": [],
			"stateMutability": "nonpayable",
			"type": "function"
		},
		{
			"inputs": [
				{
					"internalType": "uint256",
					"name": "",
					"type": "uint256"
				}
			],
			"name": "allUltraUTXO",
			"outputs": [
				{
					"internalType": "bytes32",
					"name": "",
					"type": "bytes32"
				}
			],
			"stateMutability": "view",
			"type": "function"
		},
		{
			"inputs": [
				{
					"internalType": "bytes32",
					"name": "",
					"type": "bytes32"
				}
			],
			"name": "allUserRefCodes",
			"outputs": [
				{
					"internalType": "address",
					"name": "",
					"type": "address"
				}
			],
			"stateMutability": "view",
			"type": "function"
		},
		{
			"inputs": [
				{
					"internalType": "address",
					"name": "",
					"type": "address"
				}
			],
			"name": "balances",
			"outputs": [
				{
					"internalType": "uint256",
					"name": "",
					"type": "uint256"
				}
			],
			"stateMutability": "view",
			"type": "function"
		},
		{
			"inputs": [
				{
					"internalType": "bytes32",
					"name": "utxoID",
					"type": "bytes32"
				},
				{
					"internalType": "address[]",
					"name": "users",
					"type": "address[]"
				},
				{
					"internalType": "uint256[]",
					"name": "amounts",
					"type": "uint256[]"
				},
				{
					"internalType": "bool",
					"name": "isAdd",
					"type": "bool"
				},
				{
					"internalType": "enum ITreeCommission.TYPE_OF_COM",
					"name": "_typ",
					"type": "uint8"
				}
			],
			"name": "batchUpdateBalances",
			"outputs": [],
			"stateMutability": "nonpayable",
			"type": "function"
		},
		{
			"inputs": [
				{
					"internalType": "bytes32",
					"name": "utxoID",
					"type": "bytes32"
				}
			],
			"name": "cancelUltraUTXOByOwner",
			"outputs": [
				{
					"internalType": "bool",
					"name": "",
					"type": "bool"
				}
			],
			"stateMutability": "nonpayable",
			"type": "function"
		},
		{
			"inputs": [
				{
					"internalType": "bytes32",
					"name": "utxoID",
					"type": "bytes32"
				}
			],
			"name": "confirmUTXO",
			"outputs": [],
			"stateMutability": "nonpayable",
			"type": "function"
		},
		{
			"inputs": [],
			"name": "getAllUltraUTXOs",
			"outputs": [
				{
					"internalType": "bytes32[]",
					"name": "",
					"type": "bytes32[]"
				}
			],
			"stateMutability": "view",
			"type": "function"
		},
		{
			"inputs": [
				{
					"internalType": "address",
					"name": "user",
					"type": "address"
				}
			],
			"name": "getBalance",
			"outputs": [
				{
					"internalType": "uint256",
					"name": "",
					"type": "uint256"
				}
			],
			"stateMutability": "view",
			"type": "function"
		},
		{
			"inputs": [
				{
					"internalType": "address",
					"name": "_user",
					"type": "address"
				},
				{
					"internalType": "uint256",
					"name": "_startDate",
					"type": "uint256"
				},
				{
					"internalType": "uint256",
					"name": "_endDate",
					"type": "uint256"
				}
			],
			"name": "getCommissionArrInRange",
			"outputs": [
				{
					"components": [
						{
							"internalType": "address",
							"name": "user",
							"type": "address"
						},
						{
							"internalType": "uint256",
							"name": "amount",
							"type": "uint256"
						},
						{
							"internalType": "enum ITreeCommission.TYPE_OF_COM",
							"name": "typ",
							"type": "uint8"
						},
						{
							"internalType": "uint256",
							"name": "createdAt",
							"type": "uint256"
						}
					],
					"internalType": "struct ITreeCommission.CommissionInfo[]",
					"name": "comInfos",
					"type": "tuple[]"
				}
			],
			"stateMutability": "view",
			"type": "function"
		},
		{
			"inputs": [
				{
					"internalType": "address",
					"name": "_user",
					"type": "address"
				},
				{
					"internalType": "uint256",
					"name": "_startDate",
					"type": "uint256"
				},
				{
					"internalType": "uint256",
					"name": "_endDate",
					"type": "uint256"
				}
			],
			"name": "getCommissionInRange",
			"outputs": [
				{
					"components": [
						{
							"internalType": "uint256",
							"name": "retailBonus",
							"type": "uint256"
						},
						{
							"internalType": "uint256",
							"name": "showroomBonus",
							"type": "uint256"
						},
						{
							"internalType": "uint256",
							"name": "daoBonus",
							"type": "uint256"
						},
						{
							"internalType": "uint256",
							"name": "otherBonus",
							"type": "uint256"
						},
						{
							"internalType": "uint256",
							"name": "activationBp",
							"type": "uint256"
						},
						{
							"internalType": "uint256",
							"name": "diffPrice",
							"type": "uint256"
						},
						{
							"internalType": "uint256",
							"name": "unilevelBonus",
							"type": "uint256"
						},
						{
							"internalType": "uint256",
							"name": "generationBonus",
							"type": "uint256"
						},
						{
							"internalType": "uint256",
							"name": "nationalBonus",
							"type": "uint256"
						}
					],
					"internalType": "struct ITreeCommission.CommissionData",
					"name": "commissionData",
					"type": "tuple"
				}
			],
			"stateMutability": "view",
			"type": "function"
		},
		{
			"inputs": [],
			"name": "getNationalBonusPool",
			"outputs": [
				{
					"internalType": "uint256",
					"name": "",
					"type": "uint256"
				}
			],
			"stateMutability": "view",
			"type": "function"
		},
		{
			"inputs": [
				{
					"internalType": "bytes32",
					"name": "utxoID",
					"type": "bytes32"
				}
			],
			"name": "getPendingNationalBonusPool",
			"outputs": [
				{
					"internalType": "uint256",
					"name": "",
					"type": "uint256"
				}
			],
			"stateMutability": "view",
			"type": "function"
		},
		{
			"inputs": [],
			"name": "getRefCode",
			"outputs": [
				{
					"internalType": "bytes32",
					"name": "",
					"type": "bytes32"
				}
			],
			"stateMutability": "view",
			"type": "function"
		},
		{
			"inputs": [
				{
					"internalType": "bytes32",
					"name": "refCode",
					"type": "bytes32"
				}
			],
			"name": "getRefCodeToUser",
			"outputs": [
				{
					"internalType": "address",
					"name": "",
					"type": "address"
				}
			],
			"stateMutability": "view",
			"type": "function"
		},
		{
			"inputs": [
				{
					"internalType": "address",
					"name": "user",
					"type": "address"
				}
			],
			"name": "getUTXOsByUser",
			"outputs": [
				{
					"internalType": "bytes32[]",
					"name": "",
					"type": "bytes32[]"
				}
			],
			"stateMutability": "view",
			"type": "function"
		},
		{
			"inputs": [
				{
					"internalType": "address",
					"name": "user",
					"type": "address"
				},
				{
					"internalType": "bytes32",
					"name": "utxoID",
					"type": "bytes32"
				}
			],
			"name": "getUltraBPInfo",
			"outputs": [
				{
					"internalType": "uint256",
					"name": "BP",
					"type": "uint256"
				},
				{
					"internalType": "uint256",
					"name": "createTime",
					"type": "uint256"
				},
				{
					"internalType": "uint256",
					"name": "activeTime",
					"type": "uint256"
				},
				{
					"internalType": "uint256",
					"name": "expiredTime",
					"type": "uint256"
				},
				{
					"internalType": "bool",
					"name": "isDeny",
					"type": "bool"
				}
			],
			"stateMutability": "view",
			"type": "function"
		},
		{
			"inputs": [
				{
					"internalType": "address",
					"name": "user",
					"type": "address"
				},
				{
					"internalType": "uint256",
					"name": "longtitude",
					"type": "uint256"
				},
				{
					"internalType": "uint256",
					"name": "lattitude",
					"type": "uint256"
				}
			],
			"name": "initUser",
			"outputs": [],
			"stateMutability": "nonpayable",
			"type": "function"
		},
		{
			"inputs": [
				{
					"internalType": "address",
					"name": "",
					"type": "address"
				},
				{
					"internalType": "uint256",
					"name": "",
					"type": "uint256"
				}
			],
			"name": "mUserReceivedUltraUTXO",
			"outputs": [
				{
					"internalType": "bytes32",
					"name": "",
					"type": "bytes32"
				}
			],
			"stateMutability": "view",
			"type": "function"
		},
		{
			"inputs": [
				{
					"internalType": "address",
					"name": "",
					"type": "address"
				},
				{
					"internalType": "uint256",
					"name": "",
					"type": "uint256"
				},
				{
					"internalType": "uint256",
					"name": "",
					"type": "uint256"
				}
			],
			"name": "mUserToComInfos",
			"outputs": [
				{
					"internalType": "address",
					"name": "user",
					"type": "address"
				},
				{
					"internalType": "uint256",
					"name": "amount",
					"type": "uint256"
				},
				{
					"internalType": "enum ITreeCommission.TYPE_OF_COM",
					"name": "typ",
					"type": "uint8"
				},
				{
					"internalType": "uint256",
					"name": "createdAt",
					"type": "uint256"
				}
			],
			"stateMutability": "view",
			"type": "function"
		},
		{
			"inputs": [
				{
					"internalType": "address",
					"name": "",
					"type": "address"
				},
				{
					"internalType": "uint256",
					"name": "",
					"type": "uint256"
				},
				{
					"internalType": "enum ITreeCommission.TYPE_OF_COM",
					"name": "",
					"type": "uint8"
				}
			],
			"name": "mUserToDateToCom",
			"outputs": [
				{
					"internalType": "uint256",
					"name": "",
					"type": "uint256"
				}
			],
			"stateMutability": "view",
			"type": "function"
		},
		{
			"inputs": [],
			"name": "masterpool",
			"outputs": [
				{
					"internalType": "address",
					"name": "",
					"type": "address"
				}
			],
			"stateMutability": "view",
			"type": "function"
		},
		{
			"inputs": [
				{
					"internalType": "address",
					"name": "",
					"type": "address"
				}
			],
			"name": "nodeExtras",
			"outputs": [
				{
					"internalType": "bytes32",
					"name": "refCode",
					"type": "bytes32"
				},
				{
					"internalType": "string",
					"name": "phoneNumber",
					"type": "string"
				},
				{
					"internalType": "string",
					"name": "nickName",
					"type": "string"
				},
				{
					"internalType": "uint256",
					"name": "longtitude",
					"type": "uint256"
				},
				{
					"internalType": "uint256",
					"name": "lattitude",
					"type": "uint256"
				}
			],
			"stateMutability": "view",
			"type": "function"
		},
		{
			"inputs": [],
			"name": "owner",
			"outputs": [
				{
					"internalType": "address",
					"name": "",
					"type": "address"
				}
			],
			"stateMutability": "view",
			"type": "function"
		},
		{
			"inputs": [],
			"name": "renounceOwnership",
			"outputs": [],
			"stateMutability": "nonpayable",
			"type": "function"
		},
		{
			"inputs": [
				{
					"internalType": "uint256",
					"name": "currentAmount",
					"type": "uint256"
				}
			],
			"name": "resetNationalBonusPool",
			"outputs": [],
			"stateMutability": "nonpayable",
			"type": "function"
		},
		{
			"inputs": [
				{
					"internalType": "address",
					"name": "_masterpool",
					"type": "address"
				}
			],
			"name": "setMasterPool",
			"outputs": [],
			"stateMutability": "nonpayable",
			"type": "function"
		},
		{
			"inputs": [
				{
					"internalType": "string",
					"name": "nickName",
					"type": "string"
				}
			],
			"name": "setNickName",
			"outputs": [],
			"stateMutability": "nonpayable",
			"type": "function"
		},
		{
			"inputs": [
				{
					"internalType": "string",
					"name": "phoneNumber",
					"type": "string"
				}
			],
			"name": "setPhoneNumber",
			"outputs": [],
			"stateMutability": "nonpayable",
			"type": "function"
		},
		{
			"inputs": [
				{
					"internalType": "bytes32",
					"name": "oldRefCode",
					"type": "bytes32"
				},
				{
					"internalType": "bytes32",
					"name": "newRefCode",
					"type": "bytes32"
				}
			],
			"name": "setRefCodeToUser",
			"outputs": [],
			"stateMutability": "nonpayable",
			"type": "function"
		},
		{
			"inputs": [
				{
					"internalType": "address",
					"name": "_treeCommissionAddress",
					"type": "address"
				}
			],
			"name": "setTreeCommissionAddress",
			"outputs": [],
			"stateMutability": "nonpayable",
			"type": "function"
		},
		{
			"inputs": [
				{
					"internalType": "address",
					"name": "newOwner",
					"type": "address"
				}
			],
			"name": "transferOwnership",
			"outputs": [],
			"stateMutability": "nonpayable",
			"type": "function"
		},
		{
			"inputs": [],
			"name": "treeCommissionContract",
			"outputs": [
				{
					"internalType": "address",
					"name": "",
					"type": "address"
				}
			],
			"stateMutability": "view",
			"type": "function"
		},
		{
			"inputs": [
				{
					"internalType": "address",
					"name": "user",
					"type": "address"
				},
				{
					"internalType": "bytes32",
					"name": "utxoID",
					"type": "bytes32"
				},
				{
					"internalType": "uint256",
					"name": "amount",
					"type": "uint256"
				},
				{
					"internalType": "bool",
					"name": "isAdd",
					"type": "bool"
				},
				{
					"internalType": "enum ITreeCommission.TYPE_OF_COM",
					"name": "_typ",
					"type": "uint8"
				}
			],
			"name": "updateBalance",
			"outputs": [],
			"stateMutability": "nonpayable",
			"type": "function"
		},
		{
			"inputs": [
				{
					"internalType": "address",
					"name": "",
					"type": "address"
				},
				{
					"internalType": "bytes32",
					"name": "",
					"type": "bytes32"
				}
			],
			"name": "userUltraBP",
			"outputs": [
				{
					"internalType": "uint256",
					"name": "BP",
					"type": "uint256"
				},
				{
					"internalType": "uint256",
					"name": "createTime",
					"type": "uint256"
				},
				{
					"internalType": "uint256",
					"name": "activeTime",
					"type": "uint256"
				},
				{
					"internalType": "uint256",
					"name": "expiredTime",
					"type": "uint256"
				},
				{
					"internalType": "bool",
					"name": "isDeny",
					"type": "bool"
				}
			],
			"stateMutability": "view",
			"type": "function"
		},
		{
			"inputs": [
				{
					"internalType": "bytes32",
					"name": "",
					"type": "bytes32"
				},
				{
					"internalType": "uint256",
					"name": "",
					"type": "uint256"
				}
			],
			"name": "utxoToUsers",
			"outputs": [
				{
					"internalType": "address",
					"name": "",
					"type": "address"
				}
			],
			"stateMutability": "view",
			"type": "function"
		},
		{
			"inputs": [
				{
					"internalType": "address",
					"name": "user",
					"type": "address"
				},
				{
					"internalType": "uint256",
					"name": "amount",
					"type": "uint256"
				}
			],
			"name": "withdrawBP",
			"outputs": [
				{
					"internalType": "bool",
					"name": "",
					"type": "bool"
				}
			],
			"stateMutability": "nonpayable",
			"type": "function"
		},
		{
			"inputs": [
				{
					"internalType": "address",
					"name": "user",
					"type": "address"
				},
				{
					"internalType": "bytes32[]",
					"name": "utxoIDArr",
					"type": "bytes32[]"
				}
			],
			"name": "withdrawUltraBP",
			"outputs": [
				{
					"internalType": "bool",
					"name": "",
					"type": "bool"
				}
			],
			"stateMutability": "nonpayable",
			"type": "function"
		}
	]
}