{
	"data": {
		"bytecode": {
			"linkReferences": {},
			"object": "6080604052348015600e575f80fd5b503380603357604051631e4fbdf760e01b81525f600482015260240160405180910390fd5b603a81603f565b50608e565b5f80546001600160a01b038381166001600160a01b0319831681178455604051919092169283917f8be0079c531659141344cd1fd0a4f28419497f9722a3daafe3b4186f6b6457e09190a35050565b611de98061009b5f395ff3fe608060405234801561000f575f80fd5b506004361061015d575f3560e01c8063086c32e5146101615780630870b174146101765780630ded21b2146101895780631b879d6b146101b257806321e7fb58146101c557806327e235e3146101d8578063301b609614610205578063361302f41461022d5780633d151e371461024057806356a86377146102535780636731ad1e146102685780636ceb37ba1461027b578063715018a61461029a5780638da5cb5b146102a25780639b7952a4146102aa578063a0815a54146102bd578063a472f0fb146102d0578063aad461e6146102e3578063b21ec30e146102f6578063c73ea36714610309578063c84d239b1461031c578063c99282f61461033f578063d3e19a5714610352578063e43ed78b14610376578063ed747e251461041e578063ee82cfd014610465578063f2fde38b1461046d578063f605c09514610480578063f8b2cb4f14610488575b5f80fd5b61017461016f3660046116d4565b6104b0565b005b610174610184366004611740565b610541565b61019c610197366004611757565b610585565b6040516101a99190611777565b60405180910390f35b61019c6101c0366004611740565b6105b9565b6101746101d3366004611757565b6105f7565b6101f76101e63660046117a1565b60046020525f908152604090205481565b6040519081526020016101a9565b61019c610213366004611740565b60066020525f90815260409020546001600160a01b031681565b61017461023b366004611817565b610640565b61017461024e36600461189d565b61092c565b61025b610ad2565b6040516101a991906118e0565b610174610276366004611757565b610b28565b6101f7610289366004611740565b5f9081526009602052604090205490565b610174610d14565b61019c610d27565b6101746102b83660046117a1565b610d35565b60075461019c906001600160a01b031681565b6101f76102de366004611740565b610d5f565b6101746102f1366004611740565b610d7e565b610174610304366004611922565b610e03565b6101746103173660046116d4565b610f8b565b61032f61032a366004611952565b611008565b60405190151581526020016101a9565b61025b61034d3660046117a1565b611096565b6103656103603660046117a1565b611222565b6040516101a99594939291906119a8565b6103f4610384366004611952565b6001600160a01b0382165f908152600260208181526040808420858552825292839020835160a081018552815480825260018301549382018490529382015494810185905260038201546060820181905260049092015460ff161515608090910181905292939195509295909350565b6040805195865260208601949094529284019190915260608301521515608082015260a0016101a9565b6103f461042c366004611952565b600260208181525f9384526040808520909152918352912080546001820154928201546003830154600490930154919392909160ff1685565b6008546101f7565b61017461047b3660046117a1565b61135c565b6101f7611399565b6101f76104963660046117a1565b6001600160a01b03165f9081526004602052604090205490565b3332146104d85760405162461bcd60e51b81526004016104cf906119e7565b60405180910390fd5b806105205760405162461bcd60e51b8152602060048201526018602482015277141a1bdb99481b9d5b58995c881b9bdd08185b1b1bddd95960421b60448201526064016104cf565b335f90815260056020526040902060010161053c828483611ac7565b505050565b806008541461057e5760405162461bcd60e51b81526020600482015260096024820152680dcdee840dac2e8c6d60bb1b60448201526064016104cf565b505f600855565b6001602052815f5260405f20818154811061059e575f80fd5b5f918252602090912001546001600160a01b03169150829050565b5f3332146105d95760405162461bcd60e51b81526004016104cf906119e7565b505f818152600660205260409020546001600160a01b03165b919050565b8015610625575f818152600960205260408120805484929061061a908490611b8f565b9091555061063c9050565b8160085f8282546106369190611b8f565b90915550505b5050565b6007546001600160a01b0316331461066a5760405162461bcd60e51b81526004016104cf90611ba2565b8382146106b25760405162461bcd60e51b8152602060048201526016602482015275082e4e4c2f240d8cadccee8d0e640dad2e6dac2e8c6d60531b60448201526064016104cf565b5f5b84811015610923575f8484838181106106cf576106cf611bc8565b90506020020135116106f35760405162461bcd60e51b81526004016104cf90611bdc565b81156107f457861561077a5783838281811061071157610711611bc8565b9050602002013560045f88888581811061072d5761072d611bc8565b905060200201602081019061074291906117a1565b6001600160a01b03166001600160a01b031681526020019081526020015f205f82825461076f9190611b8f565b9091555061091b9050565b6107a66040518060400160405280600b81526020016a191919191919191919191960a91b8152506113cc565b6107ef8686838181106107bb576107bb611bc8565b90506020020160208101906107d091906117a1565b888686858181106107e3576107e3611bc8565b9050602002013561140f565b61091b565b83838281811061080657610806611bc8565b9050602002013560045f88888581811061082257610822611bc8565b905060200201602081019061083791906117a1565b6001600160a01b03166001600160a01b031681526020019081526020015f205410156108a55760405162461bcd60e51b815260206004820152601d60248201527f496e73756666696369656e742062616c616e636520666f72207573657200000060448201526064016104cf565b8383828181106108b7576108b7611bc8565b9050602002013560045f8888858181106108d3576108d3611bc8565b90506020020160208101906108e891906117a1565b6001600160a01b03166001600160a01b031681526020019081526020015f205f8282546109159190611c12565b90915550505b6001016106b4565b50505050505050565b6007546001600160a01b031633146109565760405162461bcd60e51b81526004016104cf90611ba2565b5f82116109755760405162461bcd60e51b81526004016104cf90611bdc565b8015610a41578215610a08576109a8604051806040016040528060058152602001643b34b9b09d60d91b81525085611564565b6109d66040518060400160405280600c81526020016b3b34b9b09030b6b7bab73a1d60a11b815250836115a9565b6001600160a01b0384165f90815260046020526040812080548492906109fd908490611b8f565b90915550610acc9050565b610a3160405180604001604052806008815260200167313131313131313160c01b8152506113cc565b610a3c84848461140f565b610acc565b6001600160a01b0384165f90815260046020526040902054821115610a9f5760405162461bcd60e51b8152602060048201526014602482015273496e73756666696369656e742062616c616e636560601b60448201526064016104cf565b6001600160a01b0384165f9081526004602052604081208054849290610ac6908490611c12565b90915550505b50505050565b60606003805480602002602001604051908101604052809291908181526020018280548015610b1e57602002820191905f5260205f20905b815481526020019060010190808311610b0a575b5050505050905090565b333214610b475760405162461bcd60e51b81526004016104cf906119e7565b80610b8a5760405162461bcd60e51b81526020600482015260136024820152721c995990dbd919481b9bdd08185b1b1bddd959606a1b60448201526064016104cf565b5f828152600660205260409020546001600160a01b03163314610be55760405162461bcd60e51b815260206004820152601360248201527272656620636f6465206e6f742065786973747360681b60448201526064016104cf565b335f908152600560205260409020548214610c405760405162461bcd60e51b815260206004820152601b60248201527a3932b31031b7b232903737ba1032bc34b9ba399034b7103ab9b2b960291b60448201526064016104cf565b5f81815260066020526040808220548483529120546001600160a01b03908116911614610ca45760405162461bcd60e51b81526020600482015260126024820152710e4cacc40c6dec8ca40dcdee840dac2e8c6d60731b60448201526064016104cf565b5f818152600660205260409020546001600160a01b0316610cd75760405162461bcd60e51b81526004016104cf90611c25565b5f91825260066020908152604080842080546001600160a01b03199081169091558385528185208054339216821790558452600590915290912055565b610d1c6115ee565b610d255f611620565b565b5f546001600160a01b031690565b610d3d6115ee565b600780546001600160a01b0319166001600160a01b0392909216919091179055565b60038181548110610d6e575f80fd5b5f91825260209091200154905081565b610d866115ee565b5f81815260096020526040902054610dcd5760405162461bcd60e51b815260206004820152600a6024820152696e6f742065786973747360b01b60448201526064016104cf565b5f818152600960205260408120546008805491929091610dee908490611b8f565b90915550505f90815260096020526040812055565b6007546001600160a01b03163314610e2d5760405162461bcd60e51b81526004016104cf90611ba2565b5f8211610e4c5760405162461bcd60e51b81526004016104cf90611c5c565b5f8111610e6b5760405162461bcd60e51b81526004016104cf90611c5c565b6040516001600160601b0319606085901b1660208201525f9060340160408051601f1981840301815291815281516020928301205f81815260069093529120549091506001600160a01b031615610ed45760405162461bcd60e51b81526004016104cf90611c25565b5f81815260066020908152604080832080546001600160a01b0319166001600160a01b038916908117909155815160a0810183528581528251808501845285815281850190815283518086018552868152828501526060820189905260808201889052918552600590935292208151815591519091906001820190610f599082611c8a565b5060408201516002820190610f6e9082611c8a565b506060820151600382015560809091015160049091015550505050565b333214610faa5760405162461bcd60e51b81526004016104cf906119e7565b80610fec5760405162461bcd60e51b81526020600482015260126024820152716e69636b4e616d65206e6f7420616c6c6f7760701b60448201526064016104cf565b335f90815260056020526040902060020161053c828483611ac7565b6007545f906001600160a01b031633146110345760405162461bcd60e51b81526004016104cf90611ba2565b5f821161104257505f611090565b6001600160a01b0383165f9081526004602052604090205482111561106857505f611090565b335f9081526004602052604081208054849290611086908490611c12565b9091555060019150505b92915050565b6003546060905f906001600160401b038111156110b5576110b5611a1c565b6040519080825280602002602001820160405280156110de578160200160208202803683370190505b5090505f805b60035481101561118a576001600160a01b0385165f908152600260205260408120600380548391908590811061111c5761111c611bc8565b905f5260205f20015481526020019081526020015f205f01541115611182576003818154811061114e5761114e611bc8565b905f5260205f20015483838151811061116957611169611bc8565b60209081029190910101528161117e81611d3f565b9250505b6001016110e4565b505f816001600160401b038111156111a4576111a4611a1c565b6040519080825280602002602001820160405280156111cd578160200160208202803683370190505b5090505f5b82811015611219578381815181106111ec576111ec611bc8565b602002602001015182828151811061120657611206611bc8565b60209081029190910101526001016111d2565b50949350505050565b60056020525f90815260409020805460018201805491929161124390611a30565b80601f016020809104026020016040519081016040528092919081815260200182805461126f90611a30565b80156112ba5780601f10611291576101008083540402835291602001916112ba565b820191905f5260205f20905b81548152906001019060200180831161129d57829003601f168201915b5050505050908060020180546112cf90611a30565b80601f01602080910402602001604051908101604052809291908181526020018280546112fb90611a30565b80156113465780601f1061131d57610100808354040283529160200191611346565b820191905f5260205f20905b81548152906001019060200180831161132957829003601f168201915b5050505050908060030154908060040154905085565b6113646115ee565b6001600160a01b03811661138d575f604051631e4fbdf760e01b81526004016104cf9190611777565b61139681611620565b50565b5f3332146113b95760405162461bcd60e51b81526004016104cf906119e7565b50335f9081526005602052604090205490565b611396816040516024016113e09190611d57565b60408051601f198184030181529190526020810180516001600160e01b031663104c13eb60e21b17905261166f565b611436604051806040016040528060058152602001643ab9b2b91d60d91b81525084611564565b61143f8261168f565b6114686040518060400160405280600781526020016630b6b7bab73a1d60c91b815250826115a9565b425f61147782624f1a00611b8f565b90505f6114878362ed4e00611b8f565b6040805160a0810182529586526020808701958652868201948552606087019283525f608088018181526001600160a01b039a909a1680825260028084528483208b8452845284832099518a5597516001808b0191909155965197890197909755925160038089019190915598516004909701805460ff19169715159790971790965583865281208054808501825590825294812090940180546001600160a01b0319169093179092558454908101855593909152507fc2575a0e9e593c00f959f8c92f12db2869c3395a3b0502d05e2516446f71f85b90910155565b61063c828260405160240161157a929190611d69565b60408051601f198184030181529190526020810180516001600160e01b031663319af33360e01b17905261166f565b61063c82826040516024016115bf929190611d92565b60408051601f198184030181529190526020810180516001600160e01b03166309710a9d60e41b17905261166f565b336115f7610d27565b6001600160a01b031614610d25573360405163118cdaa760e01b81526004016104cf9190611777565b5f80546001600160a01b038381166001600160a01b0319831681178455604051919092169283917f8be0079c531659141344cd1fd0a4f28419497f9722a3daafe3b4186f6b6457e09190a35050565b80516a636f6e736f6c652e6c6f67602083015f808483855afa5050505050565b611396816040516024016116a591815260200190565b60408051601f198184030181529190526020810180516001600160e01b03166327b7cf8560e01b17905261166f565b5f80602083850312156116e5575f80fd5b82356001600160401b038111156116fa575f80fd5b8301601f8101851361170a575f80fd5b80356001600160401b0381111561171f575f80fd5b856020828401011115611730575f80fd5b6020919091019590945092505050565b5f60208284031215611750575f80fd5b5035919050565b5f8060408385031215611768575f80fd5b50508035926020909101359150565b6001600160a01b0391909116815260200190565b80356001600160a01b03811681146105f2575f80fd5b5f602082840312156117b1575f80fd5b6117ba8261178b565b9392505050565b5f8083601f8401126117d1575f80fd5b5081356001600160401b038111156117e7575f80fd5b6020830191508360208260051b8501011115611801575f80fd5b9250929050565b803580151581146105f2575f80fd5b5f805f805f806080878903121561182c575f80fd5b8635955060208701356001600160401b03811115611848575f80fd5b61185489828a016117c1565b90965094505060408701356001600160401b03811115611872575f80fd5b61187e89828a016117c1565b9094509250611891905060608801611808565b90509295509295509295565b5f805f80608085870312156118b0575f80fd5b6118b98561178b565b935060208501359250604085013591506118d560608601611808565b905092959194509250565b602080825282518282018190525f918401906040840190835b818110156119175783518352602093840193909201916001016118f9565b509095945050505050565b5f805f60608486031215611934575f80fd5b61193d8461178b565b95602085013595506040909401359392505050565b5f8060408385031215611963575f80fd5b61196c8361178b565b946020939093013593505050565b5f81518084528060208401602086015e5f602082860101526020601f19601f83011685010191505092915050565b85815260a060208201525f6119c060a083018761197a565b82810360408401526119d2818761197a565b60608401959095525050608001529392505050565b6020808252601b908201527a14db585c9d0818dbdb9d1c9858dd1cc81b9bdd08185b1b1bddd959602a1b604082015260600190565b634e487b7160e01b5f52604160045260245ffd5b600181811c90821680611a4457607f821691505b602082108103611a6257634e487b7160e01b5f52602260045260245ffd5b50919050565b601f82111561053c57805f5260205f20601f840160051c81016020851015611a8d5750805b601f840160051c820191505b81811015611aac575f8155600101611a99565b5050505050565b5f19600383901b1c191660019190911b1790565b6001600160401b03831115611ade57611ade611a1c565b611af283611aec8354611a30565b83611a68565b5f601f841160018114611b1e575f8515611b0c5750838201355b611b168682611ab3565b845550611aac565b5f83815260208120601f198716915b82811015611b4d5786850135825560209485019460019092019101611b2d565b5086821015611b69575f1960f88860031b161c19848701351681555b505060018560011b0183555050505050565b634e487b7160e01b5f52601160045260245ffd5b8082018082111561109057611090611b7b565b6020808252600c908201526b155b985d5d1a1bdc9a5e995960a21b604082015260600190565b634e487b7160e01b5f52603260045260245ffd5b6020808252601c908201527b1d5c19185d194818985b185b98d94e8815dc9bdb99c8185b5bdd5b9d60221b604082015260600190565b8181038181111561109057611090611b7b565b6020808252601f908201527f72656620636f64652065786973747320696e20616e6f74686572207573657200604082015260600190565b6020808252601490820152736c6f6e67746974756465206e6f7420616c6c6f7760601b604082015260600190565b81516001600160401b03811115611ca357611ca3611a1c565b611cb781611cb18454611a30565b84611a68565b6020601f821160018114611ce4575f8315611cd25750848201515b611cdc8482611ab3565b855550611aac565b5f84815260208120601f198516915b82811015611d135787850151825560209485019460019092019101611cf3565b5084821015611d3057868401515f19600387901b60f8161c191681555b50505050600190811b01905550565b5f60018201611d5057611d50611b7b565b5060010190565b602081525f6117ba602083018461197a565b604081525f611d7b604083018561197a565b905060018060a01b03831660208301529392505050565b604081525f611da4604083018561197a565b9050826020830152939250505056fea26469706673582212204b9be2c89ee38886b0ad6b4bcb3aa52309de439ef9304129870aeecf7c08df8964736f6c634300081a0033",
			"opcodes": "PUSH1 0x80 PUSH1 0x40 MSTORE CALLVALUE DUP1 ISZERO PUSH1 0xE JUMPI PUSH0 DUP1 REVERT JUMPDEST POP CALLER DUP1 PUSH1 0x33 JUMPI PUSH1 0x40 MLOAD PUSH4 0x1E4FBDF7 PUSH1 0xE0 SHL DUP2 MSTORE PUSH0 PUSH1 0x4 DUP3 ADD MSTORE PUSH1 0x24 ADD PUSH1 0x40 MLOAD DUP1 SWAP2 SUB SWAP1 REVERT JUMPDEST PUSH1 0x3A DUP2 PUSH1 0x3F JUMP JUMPDEST POP PUSH1 0x8E JUMP JUMPDEST PUSH0 DUP1 SLOAD PUSH1 0x1 PUSH1 0x1 PUSH1 0xA0 SHL SUB DUP4 DUP2 AND PUSH1 0x1 PUSH1 0x1 PUSH1 0xA0 SHL SUB NOT DUP4 AND DUP2 OR DUP5 SSTORE PUSH1 0x40 MLOAD SWAP2 SWAP1 SWAP3 AND SWAP3 DUP4 SWAP2 PUSH32 0x8BE0079C531659141344CD1FD0A4F28419497F9722A3DAAFE3B4186F6B6457E0 SWAP2 SWAP1 LOG3 POP POP JUMP JUMPDEST PUSH2 0x1DE9 DUP1 PUSH2 0x9B PUSH0 CODECOPY PUSH0 RETURN INVALID PUSH1 0x80 PUSH1 0x40 MSTORE CALLVALUE DUP1 ISZERO PUSH2 0xF JUMPI PUSH0 DUP1 REVERT JUMPDEST POP PUSH1 0x4 CALLDATASIZE LT PUSH2 0x15D JUMPI PUSH0 CALLDATALOAD PUSH1 0xE0 SHR DUP1 PUSH4 0x86C32E5 EQ PUSH2 0x161 JUMPI DUP1 PUSH4 0x870B174 EQ PUSH2 0x176 JUMPI DUP1 PUSH4 0xDED21B2 EQ PUSH2 0x189 JUMPI DUP1 PUSH4 0x1B879D6B EQ PUSH2 0x1B2 JUMPI DUP1 PUSH4 0x21E7FB58 EQ PUSH2 0x1C5 JUMPI DUP1 PUSH4 0x27E235E3 EQ PUSH2 0x1D8 JUMPI DUP1 PUSH4 0x301B6096 EQ PUSH2 0x205 JUMPI DUP1 PUSH4 0x361302F4 EQ PUSH2 0x22D JUMPI DUP1 PUSH4 0x3D151E37 EQ PUSH2 0x240 JUMPI DUP1 PUSH4 0x56A86377 EQ PUSH2 0x253 JUMPI DUP1 PUSH4 0x6731AD1E EQ PUSH2 0x268 JUMPI DUP1 PUSH4 0x6CEB37BA EQ PUSH2 0x27B JUMPI DUP1 PUSH4 0x715018A6 EQ PUSH2 0x29A JUMPI DUP1 PUSH4 0x8DA5CB5B EQ PUSH2 0x2A2 JUMPI DUP1 PUSH4 0x9B7952A4 EQ PUSH2 0x2AA JUMPI DUP1 PUSH4 0xA0815A54 EQ PUSH2 0x2BD JUMPI DUP1 PUSH4 0xA472F0FB EQ PUSH2 0x2D0 JUMPI DUP1 PUSH4 0xAAD461E6 EQ PUSH2 0x2E3 JUMPI DUP1 PUSH4 0xB21EC30E EQ PUSH2 0x2F6 JUMPI DUP1 PUSH4 0xC73EA367 EQ PUSH2 0x309 JUMPI DUP1 PUSH4 0xC84D239B EQ PUSH2 0x31C JUMPI DUP1 PUSH4 0xC99282F6 EQ PUSH2 0x33F JUMPI DUP1 PUSH4 0xD3E19A57 EQ PUSH2 0x352 JUMPI DUP1 PUSH4 0xE43ED78B EQ PUSH2 0x376 JUMPI DUP1 PUSH4 0xED747E25 EQ PUSH2 0x41E JUMPI DUP1 PUSH4 0xEE82CFD0 EQ PUSH2 0x465 JUMPI DUP1 PUSH4 0xF2FDE38B EQ PUSH2 0x46D JUMPI DUP1 PUSH4 0xF605C095 EQ PUSH2 0x480 JUMPI DUP1 PUSH4 0xF8B2CB4F EQ PUSH2 0x488 JUMPI JUMPDEST PUSH0 DUP1 REVERT JUMPDEST PUSH2 0x174 PUSH2 0x16F CALLDATASIZE PUSH1 0x4 PUSH2 0x16D4 JUMP JUMPDEST PUSH2 0x4B0 JUMP JUMPDEST STOP JUMPDEST PUSH2 0x174 PUSH2 0x184 CALLDATASIZE PUSH1 0x4 PUSH2 0x1740 JUMP JUMPDEST PUSH2 0x541 JUMP JUMPDEST PUSH2 0x19C PUSH2 0x197 CALLDATASIZE PUSH1 0x4 PUSH2 0x1757 JUMP JUMPDEST PUSH2 0x585 JUMP JUMPDEST PUSH1 0x40 MLOAD PUSH2 0x1A9 SWAP2 SWAP1 PUSH2 0x1777 JUMP JUMPDEST PUSH1 0x40 MLOAD DUP1 SWAP2 SUB SWAP1 RETURN JUMPDEST PUSH2 0x19C PUSH2 0x1C0 CALLDATASIZE PUSH1 0x4 PUSH2 0x1740 JUMP JUMPDEST PUSH2 0x5B9 JUMP JUMPDEST PUSH2 0x174 PUSH2 0x1D3 CALLDATASIZE PUSH1 0x4 PUSH2 0x1757 JUMP JUMPDEST PUSH2 0x5F7 JUMP JUMPDEST PUSH2 0x1F7 PUSH2 0x1E6 CALLDATASIZE PUSH1 0x4 PUSH2 0x17A1 JUMP JUMPDEST PUSH1 0x4 PUSH1 0x20 MSTORE PUSH0 SWAP1 DUP2 MSTORE PUSH1 0x40 SWAP1 KECCAK256 SLOAD DUP2 JUMP JUMPDEST PUSH1 0x40 MLOAD SWAP1 DUP2 MSTORE PUSH1 0x20 ADD PUSH2 0x1A9 JUMP JUMPDEST PUSH2 0x19C PUSH2 0x213 CALLDATASIZE PUSH1 0x4 PUSH2 0x1740 JUMP JUMPDEST PUSH1 0x6 PUSH1 0x20 MSTORE PUSH0 SWAP1 DUP2 MSTORE PUSH1 0x40 SWAP1 KECCAK256 SLOAD PUSH1 0x1 PUSH1 0x1 PUSH1 0xA0 SHL SUB AND DUP2 JUMP JUMPDEST PUSH2 0x174 PUSH2 0x23B CALLDATASIZE PUSH1 0x4 PUSH2 0x1817 JUMP JUMPDEST PUSH2 0x640 JUMP JUMPDEST PUSH2 0x174 PUSH2 0x24E CALLDATASIZE PUSH1 0x4 PUSH2 0x189D JUMP JUMPDEST PUSH2 0x92C JUMP JUMPDEST PUSH2 0x25B PUSH2 0xAD2 JUMP JUMPDEST PUSH1 0x40 MLOAD PUSH2 0x1A9 SWAP2 SWAP1 PUSH2 0x18E0 JUMP JUMPDEST PUSH2 0x174 PUSH2 0x276 CALLDATASIZE PUSH1 0x4 PUSH2 0x1757 JUMP JUMPDEST PUSH2 0xB28 JUMP JUMPDEST PUSH2 0x1F7 PUSH2 0x289 CALLDATASIZE PUSH1 0x4 PUSH2 0x1740 JUMP JUMPDEST PUSH0 SWAP1 DUP2 MSTORE PUSH1 0x9 PUSH1 0x20 MSTORE PUSH1 0x40 SWAP1 KECCAK256 SLOAD SWAP1 JUMP JUMPDEST PUSH2 0x174 PUSH2 0xD14 JUMP JUMPDEST PUSH2 0x19C PUSH2 0xD27 JUMP JUMPDEST PUSH2 0x174 PUSH2 0x2B8 CALLDATASIZE PUSH1 0x4 PUSH2 0x17A1 JUMP JUMPDEST PUSH2 0xD35 JUMP JUMPDEST PUSH1 0x7 SLOAD PUSH2 0x19C SWAP1 PUSH1 0x1 PUSH1 0x1 PUSH1 0xA0 SHL SUB AND DUP2 JUMP JUMPDEST PUSH2 0x1F7 PUSH2 0x2DE CALLDATASIZE PUSH1 0x4 PUSH2 0x1740 JUMP JUMPDEST PUSH2 0xD5F JUMP JUMPDEST PUSH2 0x174 PUSH2 0x2F1 CALLDATASIZE PUSH1 0x4 PUSH2 0x1740 JUMP JUMPDEST PUSH2 0xD7E JUMP JUMPDEST PUSH2 0x174 PUSH2 0x304 CALLDATASIZE PUSH1 0x4 PUSH2 0x1922 JUMP JUMPDEST PUSH2 0xE03 JUMP JUMPDEST PUSH2 0x174 PUSH2 0x317 CALLDATASIZE PUSH1 0x4 PUSH2 0x16D4 JUMP JUMPDEST PUSH2 0xF8B JUMP JUMPDEST PUSH2 0x32F PUSH2 0x32A CALLDATASIZE PUSH1 0x4 PUSH2 0x1952 JUMP JUMPDEST PUSH2 0x1008 JUMP JUMPDEST PUSH1 0x40 MLOAD SWAP1 ISZERO ISZERO DUP2 MSTORE PUSH1 0x20 ADD PUSH2 0x1A9 JUMP JUMPDEST PUSH2 0x25B PUSH2 0x34D CALLDATASIZE PUSH1 0x4 PUSH2 0x17A1 JUMP JUMPDEST PUSH2 0x1096 JUMP JUMPDEST PUSH2 0x365 PUSH2 0x360 CALLDATASIZE PUSH1 0x4 PUSH2 0x17A1 JUMP JUMPDEST PUSH2 0x1222 JUMP JUMPDEST PUSH1 0x40 MLOAD PUSH2 0x1A9 SWAP6 SWAP5 SWAP4 SWAP3 SWAP2 SWAP1 PUSH2 0x19A8 JUMP JUMPDEST PUSH2 0x3F4 PUSH2 0x384 CALLDATASIZE PUSH1 0x4 PUSH2 0x1952 JUMP JUMPDEST PUSH1 0x1 PUSH1 0x1 PUSH1 0xA0 SHL SUB DUP3 AND PUSH0 SWAP1 DUP2 MSTORE PUSH1 0x2 PUSH1 0x20 DUP2 DUP2 MSTORE PUSH1 0x40 DUP1 DUP5 KECCAK256 DUP6 DUP6 MSTORE DUP3 MSTORE SWAP3 DUP4 SWAP1 KECCAK256 DUP4 MLOAD PUSH1 0xA0 DUP2 ADD DUP6 MSTORE DUP2 SLOAD DUP1 DUP3 MSTORE PUSH1 0x1 DUP4 ADD SLOAD SWAP4 DUP3 ADD DUP5 SWAP1 MSTORE SWAP4 DUP3 ADD SLOAD SWAP5 DUP2 ADD DUP6 SWAP1 MSTORE PUSH1 0x3 DUP3 ADD SLOAD PUSH1 0x60 DUP3 ADD DUP2 SWAP1 MSTORE PUSH1 0x4 SWAP1 SWAP3 ADD SLOAD PUSH1 0xFF AND ISZERO ISZERO PUSH1 0x80 SWAP1 SWAP2 ADD DUP2 SWAP1 MSTORE SWAP3 SWAP4 SWAP2 SWAP6 POP SWAP3 SWAP6 SWAP1 SWAP4 POP JUMP JUMPDEST PUSH1 0x40 DUP1 MLOAD SWAP6 DUP7 MSTORE PUSH1 0x20 DUP7 ADD SWAP5 SWAP1 SWAP5 MSTORE SWAP3 DUP5 ADD SWAP2 SWAP1 SWAP2 MSTORE PUSH1 0x60 DUP4 ADD MSTORE ISZERO ISZERO PUSH1 0x80 DUP3 ADD MSTORE PUSH1 0xA0 ADD PUSH2 0x1A9 JUMP JUMPDEST PUSH2 0x3F4 PUSH2 0x42C CALLDATASIZE PUSH1 0x4 PUSH2 0x1952 JUMP JUMPDEST PUSH1 0x2 PUSH1 0x20 DUP2 DUP2 MSTORE PUSH0 SWAP4 DUP5 MSTORE PUSH1 0x40 DUP1 DUP6 KECCAK256 SWAP1 SWAP2 MSTORE SWAP2 DUP4 MSTORE SWAP2 KECCAK256 DUP1 SLOAD PUSH1 0x1 DUP3 ADD SLOAD SWAP3 DUP3 ADD SLOAD PUSH1 0x3 DUP4 ADD SLOAD PUSH1 0x4 SWAP1 SWAP4 ADD SLOAD SWAP2 SWAP4 SWAP3 SWAP1 SWAP2 PUSH1 0xFF AND DUP6 JUMP JUMPDEST PUSH1 0x8 SLOAD PUSH2 0x1F7 JUMP JUMPDEST PUSH2 0x174 PUSH2 0x47B CALLDATASIZE PUSH1 0x4 PUSH2 0x17A1 JUMP JUMPDEST PUSH2 0x135C JUMP JUMPDEST PUSH2 0x1F7 PUSH2 0x1399 JUMP JUMPDEST PUSH2 0x1F7 PUSH2 0x496 CALLDATASIZE PUSH1 0x4 PUSH2 0x17A1 JUMP JUMPDEST PUSH1 0x1 PUSH1 0x1 PUSH1 0xA0 SHL SUB AND PUSH0 SWAP1 DUP2 MSTORE PUSH1 0x4 PUSH1 0x20 MSTORE PUSH1 0x40 SWAP1 KECCAK256 SLOAD SWAP1 JUMP JUMPDEST CALLER ORIGIN EQ PUSH2 0x4D8 JUMPI PUSH1 0x40 MLOAD PUSH3 0x461BCD PUSH1 0xE5 SHL DUP2 MSTORE PUSH1 0x4 ADD PUSH2 0x4CF SWAP1 PUSH2 0x19E7 JUMP JUMPDEST PUSH1 0x40 MLOAD DUP1 SWAP2 SUB SWAP1 REVERT JUMPDEST DUP1 PUSH2 0x520 JUMPI PUSH1 0x40 MLOAD PUSH3 0x461BCD PUSH1 0xE5 SHL DUP2 MSTORE PUSH1 0x20 PUSH1 0x4 DUP3 ADD MSTORE PUSH1 0x18 PUSH1 0x24 DUP3 ADD MSTORE PUSH24 0x141A1BDB99481B9D5B58995C881B9BDD08185B1B1BDDD959 PUSH1 0x42 SHL PUSH1 0x44 DUP3 ADD MSTORE PUSH1 0x64 ADD PUSH2 0x4CF JUMP JUMPDEST CALLER PUSH0 SWAP1 DUP2 MSTORE PUSH1 0x5 PUSH1 0x20 MSTORE PUSH1 0x40 SWAP1 KECCAK256 PUSH1 0x1 ADD PUSH2 0x53C DUP3 DUP5 DUP4 PUSH2 0x1AC7 JUMP JUMPDEST POP POP POP JUMP JUMPDEST DUP1 PUSH1 0x8 SLOAD EQ PUSH2 0x57E JUMPI PUSH1 0x40 MLOAD PUSH3 0x461BCD PUSH1 0xE5 SHL DUP2 MSTORE PUSH1 0x20 PUSH1 0x4 DUP3 ADD MSTORE PUSH1 0x9 PUSH1 0x24 DUP3 ADD MSTORE PUSH9 0xDCDEE840DAC2E8C6D PUSH1 0xBB SHL PUSH1 0x44 DUP3 ADD MSTORE PUSH1 0x64 ADD PUSH2 0x4CF JUMP JUMPDEST POP PUSH0 PUSH1 0x8 SSTORE JUMP JUMPDEST PUSH1 0x1 PUSH1 0x20 MSTORE DUP2 PUSH0 MSTORE PUSH1 0x40 PUSH0 KECCAK256 DUP2 DUP2 SLOAD DUP2 LT PUSH2 0x59E JUMPI PUSH0 DUP1 REVERT JUMPDEST PUSH0 SWAP2 DUP3 MSTORE PUSH1 0x20 SWAP1 SWAP2 KECCAK256 ADD SLOAD PUSH1 0x1 PUSH1 0x1 PUSH1 0xA0 SHL SUB AND SWAP2 POP DUP3 SWAP1 POP JUMP JUMPDEST PUSH0 CALLER ORIGIN EQ PUSH2 0x5D9 JUMPI PUSH1 0x40 MLOAD PUSH3 0x461BCD PUSH1 0xE5 SHL DUP2 MSTORE PUSH1 0x4 ADD PUSH2 0x4CF SWAP1 PUSH2 0x19E7 JUMP JUMPDEST POP PUSH0 DUP2 DUP2 MSTORE PUSH1 0x6 PUSH1 0x20 MSTORE PUSH1 0x40 SWAP1 KECCAK256 SLOAD PUSH1 0x1 PUSH1 0x1 PUSH1 0xA0 SHL SUB AND JUMPDEST SWAP2 SWAP1 POP JUMP JUMPDEST DUP1 ISZERO PUSH2 0x625 JUMPI PUSH0 DUP2 DUP2 MSTORE PUSH1 0x9 PUSH1 0x20 MSTORE PUSH1 0x40 DUP2 KECCAK256 DUP1 SLOAD DUP5 SWAP3 SWAP1 PUSH2 0x61A SWAP1 DUP5 SWAP1 PUSH2 0x1B8F JUMP JUMPDEST SWAP1 SWAP2 SSTORE POP PUSH2 0x63C SWAP1 POP JUMP JUMPDEST DUP2 PUSH1 0x8 PUSH0 DUP3 DUP3 SLOAD PUSH2 0x636 SWAP2 SWAP1 PUSH2 0x1B8F JUMP JUMPDEST SWAP1 SWAP2 SSTORE POP POP JUMPDEST POP POP JUMP JUMPDEST PUSH1 0x7 SLOAD PUSH1 0x1 PUSH1 0x1 PUSH1 0xA0 SHL SUB AND CALLER EQ PUSH2 0x66A JUMPI PUSH1 0x40 MLOAD PUSH3 0x461BCD PUSH1 0xE5 SHL DUP2 MSTORE PUSH1 0x4 ADD PUSH2 0x4CF SWAP1 PUSH2 0x1BA2 JUMP JUMPDEST DUP4 DUP3 EQ PUSH2 0x6B2 JUMPI PUSH1 0x40 MLOAD PUSH3 0x461BCD PUSH1 0xE5 SHL DUP2 MSTORE PUSH1 0x20 PUSH1 0x4 DUP3 ADD MSTORE PUSH1 0x16 PUSH1 0x24 DUP3 ADD MSTORE PUSH22 0x82E4E4C2F240D8CADCCEE8D0E640DAD2E6DAC2E8C6D PUSH1 0x53 SHL PUSH1 0x44 DUP3 ADD MSTORE PUSH1 0x64 ADD PUSH2 0x4CF JUMP JUMPDEST PUSH0 JUMPDEST DUP5 DUP2 LT ISZERO PUSH2 0x923 JUMPI PUSH0 DUP5 DUP5 DUP4 DUP2 DUP2 LT PUSH2 0x6CF JUMPI PUSH2 0x6CF PUSH2 0x1BC8 JUMP JUMPDEST SWAP1 POP PUSH1 0x20 MUL ADD CALLDATALOAD GT PUSH2 0x6F3 JUMPI PUSH1 0x40 MLOAD PUSH3 0x461BCD PUSH1 0xE5 SHL DUP2 MSTORE PUSH1 0x4 ADD PUSH2 0x4CF SWAP1 PUSH2 0x1BDC JUMP JUMPDEST DUP2 ISZERO PUSH2 0x7F4 JUMPI DUP7 ISZERO PUSH2 0x77A JUMPI DUP4 DUP4 DUP3 DUP2 DUP2 LT PUSH2 0x711 JUMPI PUSH2 0x711 PUSH2 0x1BC8 JUMP JUMPDEST SWAP1 POP PUSH1 0x20 MUL ADD CALLDATALOAD PUSH1 0x4 PUSH0 DUP9 DUP9 DUP6 DUP2 DUP2 LT PUSH2 0x72D JUMPI PUSH2 0x72D PUSH2 0x1BC8 JUMP JUMPDEST SWAP1 POP PUSH1 0x20 MUL ADD PUSH1 0x20 DUP2 ADD SWAP1 PUSH2 0x742 SWAP2 SWAP1 PUSH2 0x17A1 JUMP JUMPDEST PUSH1 0x1 PUSH1 0x1 PUSH1 0xA0 SHL SUB AND PUSH1 0x1 PUSH1 0x1 PUSH1 0xA0 SHL SUB AND DUP2 MSTORE PUSH1 0x20 ADD SWAP1 DUP2 MSTORE PUSH1 0x20 ADD PUSH0 KECCAK256 PUSH0 DUP3 DUP3 SLOAD PUSH2 0x76F SWAP2 SWAP1 PUSH2 0x1B8F JUMP JUMPDEST SWAP1 SWAP2 SSTORE POP PUSH2 0x91B SWAP1 POP JUMP JUMPDEST PUSH2 0x7A6 PUSH1 0x40 MLOAD DUP1 PUSH1 0x40 ADD PUSH1 0x40 MSTORE DUP1 PUSH1 0xB DUP2 MSTORE PUSH1 0x20 ADD PUSH11 0x1919191919191919191919 PUSH1 0xA9 SHL DUP2 MSTORE POP PUSH2 0x13CC JUMP JUMPDEST PUSH2 0x7EF DUP7 DUP7 DUP4 DUP2 DUP2 LT PUSH2 0x7BB JUMPI PUSH2 0x7BB PUSH2 0x1BC8 JUMP JUMPDEST SWAP1 POP PUSH1 0x20 MUL ADD PUSH1 0x20 DUP2 ADD SWAP1 PUSH2 0x7D0 SWAP2 SWAP1 PUSH2 0x17A1 JUMP JUMPDEST DUP9 DUP7 DUP7 DUP6 DUP2 DUP2 LT PUSH2 0x7E3 JUMPI PUSH2 0x7E3 PUSH2 0x1BC8 JUMP JUMPDEST SWAP1 POP PUSH1 0x20 MUL ADD CALLDATALOAD PUSH2 0x140F JUMP JUMPDEST PUSH2 0x91B JUMP JUMPDEST DUP4 DUP4 DUP3 DUP2 DUP2 LT PUSH2 0x806 JUMPI PUSH2 0x806 PUSH2 0x1BC8 JUMP JUMPDEST SWAP1 POP PUSH1 0x20 MUL ADD CALLDATALOAD PUSH1 0x4 PUSH0 DUP9 DUP9 DUP6 DUP2 DUP2 LT PUSH2 0x822 JUMPI PUSH2 0x822 PUSH2 0x1BC8 JUMP JUMPDEST SWAP1 POP PUSH1 0x20 MUL ADD PUSH1 0x20 DUP2 ADD SWAP1 PUSH2 0x837 SWAP2 SWAP1 PUSH2 0x17A1 JUMP JUMPDEST PUSH1 0x1 PUSH1 0x1 PUSH1 0xA0 SHL SUB AND PUSH1 0x1 PUSH1 0x1 PUSH1 0xA0 SHL SUB AND DUP2 MSTORE PUSH1 0x20 ADD SWAP1 DUP2 MSTORE PUSH1 0x20 ADD PUSH0 KECCAK256 SLOAD LT ISZERO PUSH2 0x8A5 JUMPI PUSH1 0x40 MLOAD PUSH3 0x461BCD PUSH1 0xE5 SHL DUP2 MSTORE PUSH1 0x20 PUSH1 0x4 DUP3 ADD MSTORE PUSH1 0x1D PUSH1 0x24 DUP3 ADD MSTORE PUSH32 0x496E73756666696369656E742062616C616E636520666F722075736572000000 PUSH1 0x44 DUP3 ADD MSTORE PUSH1 0x64 ADD PUSH2 0x4CF JUMP JUMPDEST DUP4 DUP4 DUP3 DUP2 DUP2 LT PUSH2 0x8B7 JUMPI PUSH2 0x8B7 PUSH2 0x1BC8 JUMP JUMPDEST SWAP1 POP PUSH1 0x20 MUL ADD CALLDATALOAD PUSH1 0x4 PUSH0 DUP9 DUP9 DUP6 DUP2 DUP2 LT PUSH2 0x8D3 JUMPI PUSH2 0x8D3 PUSH2 0x1BC8 JUMP JUMPDEST SWAP1 POP PUSH1 0x20 MUL ADD PUSH1 0x20 DUP2 ADD SWAP1 PUSH2 0x8E8 SWAP2 SWAP1 PUSH2 0x17A1 JUMP JUMPDEST PUSH1 0x1 PUSH1 0x1 PUSH1 0xA0 SHL SUB AND PUSH1 0x1 PUSH1 0x1 PUSH1 0xA0 SHL SUB AND DUP2 MSTORE PUSH1 0x20 ADD SWAP1 DUP2 MSTORE PUSH1 0x20 ADD PUSH0 KECCAK256 PUSH0 DUP3 DUP3 SLOAD PUSH2 0x915 SWAP2 SWAP1 PUSH2 0x1C12 JUMP JUMPDEST SWAP1 SWAP2 SSTORE POP POP JUMPDEST PUSH1 0x1 ADD PUSH2 0x6B4 JUMP JUMPDEST POP POP POP POP POP POP POP JUMP JUMPDEST PUSH1 0x7 SLOAD PUSH1 0x1 PUSH1 0x1 PUSH1 0xA0 SHL SUB AND CALLER EQ PUSH2 0x956 JUMPI PUSH1 0x40 MLOAD PUSH3 0x461BCD PUSH1 0xE5 SHL DUP2 MSTORE PUSH1 0x4 ADD PUSH2 0x4CF SWAP1 PUSH2 0x1BA2 JUMP JUMPDEST PUSH0 DUP3 GT PUSH2 0x975 JUMPI PUSH1 0x40 MLOAD PUSH3 0x461BCD PUSH1 0xE5 SHL DUP2 MSTORE PUSH1 0x4 ADD PUSH2 0x4CF SWAP1 PUSH2 0x1BDC JUMP JUMPDEST DUP1 ISZERO PUSH2 0xA41 JUMPI DUP3 ISZERO PUSH2 0xA08 JUMPI PUSH2 0x9A8 PUSH1 0x40 MLOAD DUP1 PUSH1 0x40 ADD PUSH1 0x40 MSTORE DUP1 PUSH1 0x5 DUP2 MSTORE PUSH1 0x20 ADD PUSH5 0x3B34B9B09D PUSH1 0xD9 SHL DUP2 MSTORE POP DUP6 PUSH2 0x1564 JUMP JUMPDEST PUSH2 0x9D6 PUSH1 0x40 MLOAD DUP1 PUSH1 0x40 ADD PUSH1 0x40 MSTORE DUP1 PUSH1 0xC DUP2 MSTORE PUSH1 0x20 ADD PUSH12 0x3B34B9B09030B6B7BAB73A1D PUSH1 0xA1 SHL DUP2 MSTORE POP DUP4 PUSH2 0x15A9 JUMP JUMPDEST PUSH1 0x1 PUSH1 0x1 PUSH1 0xA0 SHL SUB DUP5 AND PUSH0 SWAP1 DUP2 MSTORE PUSH1 0x4 PUSH1 0x20 MSTORE PUSH1 0x40 DUP2 KECCAK256 DUP1 SLOAD DUP5 SWAP3 SWAP1 PUSH2 0x9FD SWAP1 DUP5 SWAP1 PUSH2 0x1B8F JUMP JUMPDEST SWAP1 SWAP2 SSTORE POP PUSH2 0xACC SWAP1 POP JUMP JUMPDEST PUSH2 0xA31 PUSH1 0x40 MLOAD DUP1 PUSH1 0x40 ADD PUSH1 0x40 MSTORE DUP1 PUSH1 0x8 DUP2 MSTORE PUSH1 0x20 ADD PUSH8 0x3131313131313131 PUSH1 0xC0 SHL DUP2 MSTORE POP PUSH2 0x13CC JUMP JUMPDEST PUSH2 0xA3C DUP5 DUP5 DUP5 PUSH2 0x140F JUMP JUMPDEST PUSH2 0xACC JUMP JUMPDEST PUSH1 0x1 PUSH1 0x1 PUSH1 0xA0 SHL SUB DUP5 AND PUSH0 SWAP1 DUP2 MSTORE PUSH1 0x4 PUSH1 0x20 MSTORE PUSH1 0x40 SWAP1 KECCAK256 SLOAD DUP3 GT ISZERO PUSH2 0xA9F JUMPI PUSH1 0x40 MLOAD PUSH3 0x461BCD PUSH1 0xE5 SHL DUP2 MSTORE PUSH1 0x20 PUSH1 0x4 DUP3 ADD MSTORE PUSH1 0x14 PUSH1 0x24 DUP3 ADD MSTORE PUSH20 0x496E73756666696369656E742062616C616E6365 PUSH1 0x60 SHL PUSH1 0x44 DUP3 ADD MSTORE PUSH1 0x64 ADD PUSH2 0x4CF JUMP JUMPDEST PUSH1 0x1 PUSH1 0x1 PUSH1 0xA0 SHL SUB DUP5 AND PUSH0 SWAP1 DUP2 MSTORE PUSH1 0x4 PUSH1 0x20 MSTORE PUSH1 0x40 DUP2 KECCAK256 DUP1 SLOAD DUP5 SWAP3 SWAP1 PUSH2 0xAC6 SWAP1 DUP5 SWAP1 PUSH2 0x1C12 JUMP JUMPDEST SWAP1 SWAP2 SSTORE POP POP JUMPDEST POP POP POP POP JUMP JUMPDEST PUSH1 0x60 PUSH1 0x3 DUP1 SLOAD DUP1 PUSH1 0x20 MUL PUSH1 0x20 ADD PUSH1 0x40 MLOAD SWAP1 DUP2 ADD PUSH1 0x40 MSTORE DUP1 SWAP3 SWAP2 SWAP1 DUP2 DUP2 MSTORE PUSH1 0x20 ADD DUP3 DUP1 SLOAD DUP1 ISZERO PUSH2 0xB1E JUMPI PUSH1 0x20 MUL DUP3 ADD SWAP2 SWAP1 PUSH0 MSTORE PUSH1 0x20 PUSH0 KECCAK256 SWAP1 JUMPDEST DUP2 SLOAD DUP2 MSTORE PUSH1 0x20 ADD SWAP1 PUSH1 0x1 ADD SWAP1 DUP1 DUP4 GT PUSH2 0xB0A JUMPI JUMPDEST POP POP POP POP POP SWAP1 POP SWAP1 JUMP JUMPDEST CALLER ORIGIN EQ PUSH2 0xB47 JUMPI PUSH1 0x40 MLOAD PUSH3 0x461BCD PUSH1 0xE5 SHL DUP2 MSTORE PUSH1 0x4 ADD PUSH2 0x4CF SWAP1 PUSH2 0x19E7 JUMP JUMPDEST DUP1 PUSH2 0xB8A JUMPI PUSH1 0x40 MLOAD PUSH3 0x461BCD PUSH1 0xE5 SHL DUP2 MSTORE PUSH1 0x20 PUSH1 0x4 DUP3 ADD MSTORE PUSH1 0x13 PUSH1 0x24 DUP3 ADD MSTORE PUSH19 0x1C995990DBD919481B9BDD08185B1B1BDDD959 PUSH1 0x6A SHL PUSH1 0x44 DUP3 ADD MSTORE PUSH1 0x64 ADD PUSH2 0x4CF JUMP JUMPDEST PUSH0 DUP3 DUP2 MSTORE PUSH1 0x6 PUSH1 0x20 MSTORE PUSH1 0x40 SWAP1 KECCAK256 SLOAD PUSH1 0x1 PUSH1 0x1 PUSH1 0xA0 SHL SUB AND CALLER EQ PUSH2 0xBE5 JUMPI PUSH1 0x40 MLOAD PUSH3 0x461BCD PUSH1 0xE5 SHL DUP2 MSTORE PUSH1 0x20 PUSH1 0x4 DUP3 ADD MSTORE PUSH1 0x13 PUSH1 0x24 DUP3 ADD MSTORE PUSH19 0x72656620636F6465206E6F7420657869737473 PUSH1 0x68 SHL PUSH1 0x44 DUP3 ADD MSTORE PUSH1 0x64 ADD PUSH2 0x4CF JUMP JUMPDEST CALLER PUSH0 SWAP1 DUP2 MSTORE PUSH1 0x5 PUSH1 0x20 MSTORE PUSH1 0x40 SWAP1 KECCAK256 SLOAD DUP3 EQ PUSH2 0xC40 JUMPI PUSH1 0x40 MLOAD PUSH3 0x461BCD PUSH1 0xE5 SHL DUP2 MSTORE PUSH1 0x20 PUSH1 0x4 DUP3 ADD MSTORE PUSH1 0x1B PUSH1 0x24 DUP3 ADD MSTORE PUSH27 0x3932B31031B7B232903737BA1032BC34B9BA399034B7103AB9B2B9 PUSH1 0x29 SHL PUSH1 0x44 DUP3 ADD MSTORE PUSH1 0x64 ADD PUSH2 0x4CF JUMP JUMPDEST PUSH0 DUP2 DUP2 MSTORE PUSH1 0x6 PUSH1 0x20 MSTORE PUSH1 0x40 DUP1 DUP3 KECCAK256 SLOAD DUP5 DUP4 MSTORE SWAP2 KECCAK256 SLOAD PUSH1 0x1 PUSH1 0x1 PUSH1 0xA0 SHL SUB SWAP1 DUP2 AND SWAP2 AND EQ PUSH2 0xCA4 JUMPI PUSH1 0x40 MLOAD PUSH3 0x461BCD PUSH1 0xE5 SHL DUP2 MSTORE PUSH1 0x20 PUSH1 0x4 DUP3 ADD MSTORE PUSH1 0x12 PUSH1 0x24 DUP3 ADD MSTORE PUSH18 0xE4CACC40C6DEC8CA40DCDEE840DAC2E8C6D PUSH1 0x73 SHL PUSH1 0x44 DUP3 ADD MSTORE PUSH1 0x64 ADD PUSH2 0x4CF JUMP JUMPDEST PUSH0 DUP2 DUP2 MSTORE PUSH1 0x6 PUSH1 0x20 MSTORE PUSH1 0x40 SWAP1 KECCAK256 SLOAD PUSH1 0x1 PUSH1 0x1 PUSH1 0xA0 SHL SUB AND PUSH2 0xCD7 JUMPI PUSH1 0x40 MLOAD PUSH3 0x461BCD PUSH1 0xE5 SHL DUP2 MSTORE PUSH1 0x4 ADD PUSH2 0x4CF SWAP1 PUSH2 0x1C25 JUMP JUMPDEST PUSH0 SWAP2 DUP3 MSTORE PUSH1 0x6 PUSH1 0x20 SWAP1 DUP2 MSTORE PUSH1 0x40 DUP1 DUP5 KECCAK256 DUP1 SLOAD PUSH1 0x1 PUSH1 0x1 PUSH1 0xA0 SHL SUB NOT SWAP1 DUP2 AND SWAP1 SWAP2 SSTORE DUP4 DUP6 MSTORE DUP2 DUP6 KECCAK256 DUP1 SLOAD CALLER SWAP3 AND DUP3 OR SWAP1 SSTORE DUP5 MSTORE PUSH1 0x5 SWAP1 SWAP2 MSTORE SWAP1 SWAP2 KECCAK256 SSTORE JUMP JUMPDEST PUSH2 0xD1C PUSH2 0x15EE JUMP JUMPDEST PUSH2 0xD25 PUSH0 PUSH2 0x1620 JUMP JUMPDEST JUMP JUMPDEST PUSH0 SLOAD PUSH1 0x1 PUSH1 0x1 PUSH1 0xA0 SHL SUB AND SWAP1 JUMP JUMPDEST PUSH2 0xD3D PUSH2 0x15EE JUMP JUMPDEST PUSH1 0x7 DUP1 SLOAD PUSH1 0x1 PUSH1 0x1 PUSH1 0xA0 SHL SUB NOT AND PUSH1 0x1 PUSH1 0x1 PUSH1 0xA0 SHL SUB SWAP3 SWAP1 SWAP3 AND SWAP2 SWAP1 SWAP2 OR SWAP1 SSTORE JUMP JUMPDEST PUSH1 0x3 DUP2 DUP2 SLOAD DUP2 LT PUSH2 0xD6E JUMPI PUSH0 DUP1 REVERT JUMPDEST PUSH0 SWAP2 DUP3 MSTORE PUSH1 0x20 SWAP1 SWAP2 KECCAK256 ADD SLOAD SWAP1 POP DUP2 JUMP JUMPDEST PUSH2 0xD86 PUSH2 0x15EE JUMP JUMPDEST PUSH0 DUP2 DUP2 MSTORE PUSH1 0x9 PUSH1 0x20 MSTORE PUSH1 0x40 SWAP1 KECCAK256 SLOAD PUSH2 0xDCD JUMPI PUSH1 0x40 MLOAD PUSH3 0x461BCD PUSH1 0xE5 SHL DUP2 MSTORE PUSH1 0x20 PUSH1 0x4 DUP3 ADD MSTORE PUSH1 0xA PUSH1 0x24 DUP3 ADD MSTORE PUSH10 0x6E6F7420657869737473 PUSH1 0xB0 SHL PUSH1 0x44 DUP3 ADD MSTORE PUSH1 0x64 ADD PUSH2 0x4CF JUMP JUMPDEST PUSH0 DUP2 DUP2 MSTORE PUSH1 0x9 PUSH1 0x20 MSTORE PUSH1 0x40 DUP2 KECCAK256 SLOAD PUSH1 0x8 DUP1 SLOAD SWAP2 SWAP3 SWAP1 SWAP2 PUSH2 0xDEE SWAP1 DUP5 SWAP1 PUSH2 0x1B8F JUMP JUMPDEST SWAP1 SWAP2 SSTORE POP POP PUSH0 SWAP1 DUP2 MSTORE PUSH1 0x9 PUSH1 0x20 MSTORE PUSH1 0x40 DUP2 KECCAK256 SSTORE JUMP JUMPDEST PUSH1 0x7 SLOAD PUSH1 0x1 PUSH1 0x1 PUSH1 0xA0 SHL SUB AND CALLER EQ PUSH2 0xE2D JUMPI PUSH1 0x40 MLOAD PUSH3 0x461BCD PUSH1 0xE5 SHL DUP2 MSTORE PUSH1 0x4 ADD PUSH2 0x4CF SWAP1 PUSH2 0x1BA2 JUMP JUMPDEST PUSH0 DUP3 GT PUSH2 0xE4C JUMPI PUSH1 0x40 MLOAD PUSH3 0x461BCD PUSH1 0xE5 SHL DUP2 MSTORE PUSH1 0x4 ADD PUSH2 0x4CF SWAP1 PUSH2 0x1C5C JUMP JUMPDEST PUSH0 DUP2 GT PUSH2 0xE6B JUMPI PUSH1 0x40 MLOAD PUSH3 0x461BCD PUSH1 0xE5 SHL DUP2 MSTORE PUSH1 0x4 ADD PUSH2 0x4CF SWAP1 PUSH2 0x1C5C JUMP JUMPDEST PUSH1 0x40 MLOAD PUSH1 0x1 PUSH1 0x1 PUSH1 0x60 SHL SUB NOT PUSH1 0x60 DUP6 SWAP1 SHL AND PUSH1 0x20 DUP3 ADD MSTORE PUSH0 SWAP1 PUSH1 0x34 ADD PUSH1 0x40 DUP1 MLOAD PUSH1 0x1F NOT DUP2 DUP5 SUB ADD DUP2 MSTORE SWAP2 DUP2 MSTORE DUP2 MLOAD PUSH1 0x20 SWAP3 DUP4 ADD KECCAK256 PUSH0 DUP2 DUP2 MSTORE PUSH1 0x6 SWAP1 SWAP4 MSTORE SWAP2 KECCAK256 SLOAD SWAP1 SWAP2 POP PUSH1 0x1 PUSH1 0x1 PUSH1 0xA0 SHL SUB AND ISZERO PUSH2 0xED4 JUMPI PUSH1 0x40 MLOAD PUSH3 0x461BCD PUSH1 0xE5 SHL DUP2 MSTORE PUSH1 0x4 ADD PUSH2 0x4CF SWAP1 PUSH2 0x1C25 JUMP JUMPDEST PUSH0 DUP2 DUP2 MSTORE PUSH1 0x6 PUSH1 0x20 SWAP1 DUP2 MSTORE PUSH1 0x40 DUP1 DUP4 KECCAK256 DUP1 SLOAD PUSH1 0x1 PUSH1 0x1 PUSH1 0xA0 SHL SUB NOT AND PUSH1 0x1 PUSH1 0x1 PUSH1 0xA0 SHL SUB DUP10 AND SWAP1 DUP2 OR SWAP1 SWAP2 SSTORE DUP2 MLOAD PUSH1 0xA0 DUP2 ADD DUP4 MSTORE DUP6 DUP2 MSTORE DUP3 MLOAD DUP1 DUP6 ADD DUP5 MSTORE DUP6 DUP2 MSTORE DUP2 DUP6 ADD SWAP1 DUP2 MSTORE DUP4 MLOAD DUP1 DUP7 ADD DUP6 MSTORE DUP7 DUP2 MSTORE DUP3 DUP6 ADD MSTORE PUSH1 0x60 DUP3 ADD DUP10 SWAP1 MSTORE PUSH1 0x80 DUP3 ADD DUP9 SWAP1 MSTORE SWAP2 DUP6 MSTORE PUSH1 0x5 SWAP1 SWAP4 MSTORE SWAP3 KECCAK256 DUP2 MLOAD DUP2 SSTORE SWAP2 MLOAD SWAP1 SWAP2 SWAP1 PUSH1 0x1 DUP3 ADD SWAP1 PUSH2 0xF59 SWAP1 DUP3 PUSH2 0x1C8A JUMP JUMPDEST POP PUSH1 0x40 DUP3 ADD MLOAD PUSH1 0x2 DUP3 ADD SWAP1 PUSH2 0xF6E SWAP1 DUP3 PUSH2 0x1C8A JUMP JUMPDEST POP PUSH1 0x60 DUP3 ADD MLOAD PUSH1 0x3 DUP3 ADD SSTORE PUSH1 0x80 SWAP1 SWAP2 ADD MLOAD PUSH1 0x4 SWAP1 SWAP2 ADD SSTORE POP POP POP POP JUMP JUMPDEST CALLER ORIGIN EQ PUSH2 0xFAA JUMPI PUSH1 0x40 MLOAD PUSH3 0x461BCD PUSH1 0xE5 SHL DUP2 MSTORE PUSH1 0x4 ADD PUSH2 0x4CF SWAP1 PUSH2 0x19E7 JUMP JUMPDEST DUP1 PUSH2 0xFEC JUMPI PUSH1 0x40 MLOAD PUSH3 0x461BCD PUSH1 0xE5 SHL DUP2 MSTORE PUSH1 0x20 PUSH1 0x4 DUP3 ADD MSTORE PUSH1 0x12 PUSH1 0x24 DUP3 ADD MSTORE PUSH18 0x6E69636B4E616D65206E6F7420616C6C6F77 PUSH1 0x70 SHL PUSH1 0x44 DUP3 ADD MSTORE PUSH1 0x64 ADD PUSH2 0x4CF JUMP JUMPDEST CALLER PUSH0 SWAP1 DUP2 MSTORE PUSH1 0x5 PUSH1 0x20 MSTORE PUSH1 0x40 SWAP1 KECCAK256 PUSH1 0x2 ADD PUSH2 0x53C DUP3 DUP5 DUP4 PUSH2 0x1AC7 JUMP JUMPDEST PUSH1 0x7 SLOAD PUSH0 SWAP1 PUSH1 0x1 PUSH1 0x1 PUSH1 0xA0 SHL SUB AND CALLER EQ PUSH2 0x1034 JUMPI PUSH1 0x40 MLOAD PUSH3 0x461BCD PUSH1 0xE5 SHL DUP2 MSTORE PUSH1 0x4 ADD PUSH2 0x4CF SWAP1 PUSH2 0x1BA2 JUMP JUMPDEST PUSH0 DUP3 GT PUSH2 0x1042 JUMPI POP PUSH0 PUSH2 0x1090 JUMP JUMPDEST PUSH1 0x1 PUSH1 0x1 PUSH1 0xA0 SHL SUB DUP4 AND PUSH0 SWAP1 DUP2 MSTORE PUSH1 0x4 PUSH1 0x20 MSTORE PUSH1 0x40 SWAP1 KECCAK256 SLOAD DUP3 GT ISZERO PUSH2 0x1068 JUMPI POP PUSH0 PUSH2 0x1090 JUMP JUMPDEST CALLER PUSH0 SWAP1 DUP2 MSTORE PUSH1 0x4 PUSH1 0x20 MSTORE PUSH1 0x40 DUP2 KECCAK256 DUP1 SLOAD DUP5 SWAP3 SWAP1 PUSH2 0x1086 SWAP1 DUP5 SWAP1 PUSH2 0x1C12 JUMP JUMPDEST SWAP1 SWAP2 SSTORE POP PUSH1 0x1 SWAP2 POP POP JUMPDEST SWAP3 SWAP2 POP POP JUMP JUMPDEST PUSH1 0x3 SLOAD PUSH1 0x60 SWAP1 PUSH0 SWAP1 PUSH1 0x1 PUSH1 0x1 PUSH1 0x40 SHL SUB DUP2 GT ISZERO PUSH2 0x10B5 JUMPI PUSH2 0x10B5 PUSH2 0x1A1C JUMP JUMPDEST PUSH1 0x40 MLOAD SWAP1 DUP1 DUP3 MSTORE DUP1 PUSH1 0x20 MUL PUSH1 0x20 ADD DUP3 ADD PUSH1 0x40 MSTORE DUP1 ISZERO PUSH2 0x10DE JUMPI DUP2 PUSH1 0x20 ADD PUSH1 0x20 DUP3 MUL DUP1 CALLDATASIZE DUP4 CALLDATACOPY ADD SWAP1 POP JUMPDEST POP SWAP1 POP PUSH0 DUP1 JUMPDEST PUSH1 0x3 SLOAD DUP2 LT ISZERO PUSH2 0x118A JUMPI PUSH1 0x1 PUSH1 0x1 PUSH1 0xA0 SHL SUB DUP6 AND PUSH0 SWAP1 DUP2 MSTORE PUSH1 0x2 PUSH1 0x20 MSTORE PUSH1 0x40 DUP2 KECCAK256 PUSH1 0x3 DUP1 SLOAD DUP4 SWAP2 SWAP1 DUP6 SWAP1 DUP2 LT PUSH2 0x111C JUMPI PUSH2 0x111C PUSH2 0x1BC8 JUMP JUMPDEST SWAP1 PUSH0 MSTORE PUSH1 0x20 PUSH0 KECCAK256 ADD SLOAD DUP2 MSTORE PUSH1 0x20 ADD SWAP1 DUP2 MSTORE PUSH1 0x20 ADD PUSH0 KECCAK256 PUSH0 ADD SLOAD GT ISZERO PUSH2 0x1182 JUMPI PUSH1 0x3 DUP2 DUP2 SLOAD DUP2 LT PUSH2 0x114E JUMPI PUSH2 0x114E PUSH2 0x1BC8 JUMP JUMPDEST SWAP1 PUSH0 MSTORE PUSH1 0x20 PUSH0 KECCAK256 ADD SLOAD DUP4 DUP4 DUP2 MLOAD DUP2 LT PUSH2 0x1169 JUMPI PUSH2 0x1169 PUSH2 0x1BC8 JUMP JUMPDEST PUSH1 0x20 SWAP1 DUP2 MUL SWAP2 SWAP1 SWAP2 ADD ADD MSTORE DUP2 PUSH2 0x117E DUP2 PUSH2 0x1D3F JUMP JUMPDEST SWAP3 POP POP JUMPDEST PUSH1 0x1 ADD PUSH2 0x10E4 JUMP JUMPDEST POP PUSH0 DUP2 PUSH1 0x1 PUSH1 0x1 PUSH1 0x40 SHL SUB DUP2 GT ISZERO PUSH2 0x11A4 JUMPI PUSH2 0x11A4 PUSH2 0x1A1C JUMP JUMPDEST PUSH1 0x40 MLOAD SWAP1 DUP1 DUP3 MSTORE DUP1 PUSH1 0x20 MUL PUSH1 0x20 ADD DUP3 ADD PUSH1 0x40 MSTORE DUP1 ISZERO PUSH2 0x11CD JUMPI DUP2 PUSH1 0x20 ADD PUSH1 0x20 DUP3 MUL DUP1 CALLDATASIZE DUP4 CALLDATACOPY ADD SWAP1 POP JUMPDEST POP SWAP1 POP PUSH0 JUMPDEST DUP3 DUP2 LT ISZERO PUSH2 0x1219 JUMPI DUP4 DUP2 DUP2 MLOAD DUP2 LT PUSH2 0x11EC JUMPI PUSH2 0x11EC PUSH2 0x1BC8 JUMP JUMPDEST PUSH1 0x20 MUL PUSH1 0x20 ADD ADD MLOAD DUP3 DUP3 DUP2 MLOAD DUP2 LT PUSH2 0x1206 JUMPI PUSH2 0x1206 PUSH2 0x1BC8 JUMP JUMPDEST PUSH1 0x20 SWAP1 DUP2 MUL SWAP2 SWAP1 SWAP2 ADD ADD MSTORE PUSH1 0x1 ADD PUSH2 0x11D2 JUMP JUMPDEST POP SWAP5 SWAP4 POP POP POP POP JUMP JUMPDEST PUSH1 0x5 PUSH1 0x20 MSTORE PUSH0 SWAP1 DUP2 MSTORE PUSH1 0x40 SWAP1 KECCAK256 DUP1 SLOAD PUSH1 0x1 DUP3 ADD DUP1 SLOAD SWAP2 SWAP3 SWAP2 PUSH2 0x1243 SWAP1 PUSH2 0x1A30 JUMP JUMPDEST DUP1 PUSH1 0x1F ADD PUSH1 0x20 DUP1 SWAP2 DIV MUL PUSH1 0x20 ADD PUSH1 0x40 MLOAD SWAP1 DUP2 ADD PUSH1 0x40 MSTORE DUP1 SWAP3 SWAP2 SWAP1 DUP2 DUP2 MSTORE PUSH1 0x20 ADD DUP3 DUP1 SLOAD PUSH2 0x126F SWAP1 PUSH2 0x1A30 JUMP JUMPDEST DUP1 ISZERO PUSH2 0x12BA JUMPI DUP1 PUSH1 0x1F LT PUSH2 0x1291 JUMPI PUSH2 0x100 DUP1 DUP4 SLOAD DIV MUL DUP4 MSTORE SWAP2 PUSH1 0x20 ADD SWAP2 PUSH2 0x12BA JUMP JUMPDEST DUP3 ADD SWAP2 SWAP1 PUSH0 MSTORE PUSH1 0x20 PUSH0 KECCAK256 SWAP1 JUMPDEST DUP2 SLOAD DUP2 MSTORE SWAP1 PUSH1 0x1 ADD SWAP1 PUSH1 0x20 ADD DUP1 DUP4 GT PUSH2 0x129D JUMPI DUP3 SWAP1 SUB PUSH1 0x1F AND DUP3 ADD SWAP2 JUMPDEST POP POP POP POP POP SWAP1 DUP1 PUSH1 0x2 ADD DUP1 SLOAD PUSH2 0x12CF SWAP1 PUSH2 0x1A30 JUMP JUMPDEST DUP1 PUSH1 0x1F ADD PUSH1 0x20 DUP1 SWAP2 DIV MUL PUSH1 0x20 ADD PUSH1 0x40 MLOAD SWAP1 DUP2 ADD PUSH1 0x40 MSTORE DUP1 SWAP3 SWAP2 SWAP1 DUP2 DUP2 MSTORE PUSH1 0x20 ADD DUP3 DUP1 SLOAD PUSH2 0x12FB SWAP1 PUSH2 0x1A30 JUMP JUMPDEST DUP1 ISZERO PUSH2 0x1346 JUMPI DUP1 PUSH1 0x1F LT PUSH2 0x131D JUMPI PUSH2 0x100 DUP1 DUP4 SLOAD DIV MUL DUP4 MSTORE SWAP2 PUSH1 0x20 ADD SWAP2 PUSH2 0x1346 JUMP JUMPDEST DUP3 ADD SWAP2 SWAP1 PUSH0 MSTORE PUSH1 0x20 PUSH0 KECCAK256 SWAP1 JUMPDEST DUP2 SLOAD DUP2 MSTORE SWAP1 PUSH1 0x1 ADD SWAP1 PUSH1 0x20 ADD DUP1 DUP4 GT PUSH2 0x1329 JUMPI DUP3 SWAP1 SUB PUSH1 0x1F AND DUP3 ADD SWAP2 JUMPDEST POP POP POP POP POP SWAP1 DUP1 PUSH1 0x3 ADD SLOAD SWAP1 DUP1 PUSH1 0x4 ADD SLOAD SWAP1 POP DUP6 JUMP JUMPDEST PUSH2 0x1364 PUSH2 0x15EE JUMP JUMPDEST PUSH1 0x1 PUSH1 0x1 PUSH1 0xA0 SHL SUB DUP2 AND PUSH2 0x138D JUMPI PUSH0 PUSH1 0x40 MLOAD PUSH4 0x1E4FBDF7 PUSH1 0xE0 SHL DUP2 MSTORE PUSH1 0x4 ADD PUSH2 0x4CF SWAP2 SWAP1 PUSH2 0x1777 JUMP JUMPDEST PUSH2 0x1396 DUP2 PUSH2 0x1620 JUMP JUMPDEST POP JUMP JUMPDEST PUSH0 CALLER ORIGIN EQ PUSH2 0x13B9 JUMPI PUSH1 0x40 MLOAD PUSH3 0x461BCD PUSH1 0xE5 SHL DUP2 MSTORE PUSH1 0x4 ADD PUSH2 0x4CF SWAP1 PUSH2 0x19E7 JUMP JUMPDEST POP CALLER PUSH0 SWAP1 DUP2 MSTORE PUSH1 0x5 PUSH1 0x20 MSTORE PUSH1 0x40 SWAP1 KECCAK256 SLOAD SWAP1 JUMP JUMPDEST PUSH2 0x1396 DUP2 PUSH1 0x40 MLOAD PUSH1 0x24 ADD PUSH2 0x13E0 SWAP2 SWAP1 PUSH2 0x1D57 JUMP JUMPDEST PUSH1 0x40 DUP1 MLOAD PUSH1 0x1F NOT DUP2 DUP5 SUB ADD DUP2 MSTORE SWAP2 SWAP1 MSTORE PUSH1 0x20 DUP2 ADD DUP1 MLOAD PUSH1 0x1 PUSH1 0x1 PUSH1 0xE0 SHL SUB AND PUSH4 0x104C13EB PUSH1 0xE2 SHL OR SWAP1 MSTORE PUSH2 0x166F JUMP JUMPDEST PUSH2 0x1436 PUSH1 0x40 MLOAD DUP1 PUSH1 0x40 ADD PUSH1 0x40 MSTORE DUP1 PUSH1 0x5 DUP2 MSTORE PUSH1 0x20 ADD PUSH5 0x3AB9B2B91D PUSH1 0xD9 SHL DUP2 MSTORE POP DUP5 PUSH2 0x1564 JUMP JUMPDEST PUSH2 0x143F DUP3 PUSH2 0x168F JUMP JUMPDEST PUSH2 0x1468 PUSH1 0x40 MLOAD DUP1 PUSH1 0x40 ADD PUSH1 0x40 MSTORE DUP1 PUSH1 0x7 DUP2 MSTORE PUSH1 0x20 ADD PUSH7 0x30B6B7BAB73A1D PUSH1 0xC9 SHL DUP2 MSTORE POP DUP3 PUSH2 0x15A9 JUMP JUMPDEST TIMESTAMP PUSH0 PUSH2 0x1477 DUP3 PUSH3 0x4F1A00 PUSH2 0x1B8F JUMP JUMPDEST SWAP1 POP PUSH0 PUSH2 0x1487 DUP4 PUSH3 0xED4E00 PUSH2 0x1B8F JUMP JUMPDEST PUSH1 0x40 DUP1 MLOAD PUSH1 0xA0 DUP2 ADD DUP3 MSTORE SWAP6 DUP7 MSTORE PUSH1 0x20 DUP1 DUP8 ADD SWAP6 DUP7 MSTORE DUP7 DUP3 ADD SWAP5 DUP6 MSTORE PUSH1 0x60 DUP8 ADD SWAP3 DUP4 MSTORE PUSH0 PUSH1 0x80 DUP9 ADD DUP2 DUP2 MSTORE PUSH1 0x1 PUSH1 0x1 PUSH1 0xA0 SHL SUB SWAP11 SWAP1 SWAP11 AND DUP1 DUP3 MSTORE PUSH1 0x2 DUP1 DUP5 MSTORE DUP5 DUP4 KECCAK256 DUP12 DUP5 MSTORE DUP5 MSTORE DUP5 DUP4 KECCAK256 SWAP10 MLOAD DUP11 SSTORE SWAP8 MLOAD PUSH1 0x1 DUP1 DUP12 ADD SWAP2 SWAP1 SWAP2 SSTORE SWAP7 MLOAD SWAP8 DUP10 ADD SWAP8 SWAP1 SWAP8 SSTORE SWAP3 MLOAD PUSH1 0x3 DUP1 DUP10 ADD SWAP2 SWAP1 SWAP2 SSTORE SWAP9 MLOAD PUSH1 0x4 SWAP1 SWAP8 ADD DUP1 SLOAD PUSH1 0xFF NOT AND SWAP8 ISZERO ISZERO SWAP8 SWAP1 SWAP8 OR SWAP1 SWAP7 SSTORE DUP4 DUP7 MSTORE DUP2 KECCAK256 DUP1 SLOAD DUP1 DUP6 ADD DUP3 SSTORE SWAP1 DUP3 MSTORE SWAP5 DUP2 KECCAK256 SWAP1 SWAP5 ADD DUP1 SLOAD PUSH1 0x1 PUSH1 0x1 PUSH1 0xA0 SHL SUB NOT AND SWAP1 SWAP4 OR SWAP1 SWAP3 SSTORE DUP5 SLOAD SWAP1 DUP2 ADD DUP6 SSTORE SWAP4 SWAP1 SWAP2 MSTORE POP PUSH32 0xC2575A0E9E593C00F959F8C92F12DB2869C3395A3B0502D05E2516446F71F85B SWAP1 SWAP2 ADD SSTORE JUMP JUMPDEST PUSH2 0x63C DUP3 DUP3 PUSH1 0x40 MLOAD PUSH1 0x24 ADD PUSH2 0x157A SWAP3 SWAP2 SWAP1 PUSH2 0x1D69 JUMP JUMPDEST PUSH1 0x40 DUP1 MLOAD PUSH1 0x1F NOT DUP2 DUP5 SUB ADD DUP2 MSTORE SWAP2 SWAP1 MSTORE PUSH1 0x20 DUP2 ADD DUP1 MLOAD PUSH1 0x1 PUSH1 0x1 PUSH1 0xE0 SHL SUB AND PUSH4 0x319AF333 PUSH1 0xE0 SHL OR SWAP1 MSTORE PUSH2 0x166F JUMP JUMPDEST PUSH2 0x63C DUP3 DUP3 PUSH1 0x40 MLOAD PUSH1 0x24 ADD PUSH2 0x15BF SWAP3 SWAP2 SWAP1 PUSH2 0x1D92 JUMP JUMPDEST PUSH1 0x40 DUP1 MLOAD PUSH1 0x1F NOT DUP2 DUP5 SUB ADD DUP2 MSTORE SWAP2 SWAP1 MSTORE PUSH1 0x20 DUP2 ADD DUP1 MLOAD PUSH1 0x1 PUSH1 0x1 PUSH1 0xE0 SHL SUB AND PUSH4 0x9710A9D PUSH1 0xE4 SHL OR SWAP1 MSTORE PUSH2 0x166F JUMP JUMPDEST CALLER PUSH2 0x15F7 PUSH2 0xD27 JUMP JUMPDEST PUSH1 0x1 PUSH1 0x1 PUSH1 0xA0 SHL SUB AND EQ PUSH2 0xD25 JUMPI CALLER PUSH1 0x40 MLOAD PUSH4 0x118CDAA7 PUSH1 0xE0 SHL DUP2 MSTORE PUSH1 0x4 ADD PUSH2 0x4CF SWAP2 SWAP1 PUSH2 0x1777 JUMP JUMPDEST PUSH0 DUP1 SLOAD PUSH1 0x1 PUSH1 0x1 PUSH1 0xA0 SHL SUB DUP4 DUP2 AND PUSH1 0x1 PUSH1 0x1 PUSH1 0xA0 SHL SUB NOT DUP4 AND DUP2 OR DUP5 SSTORE PUSH1 0x40 MLOAD SWAP2 SWAP1 SWAP3 AND SWAP3 DUP4 SWAP2 PUSH32 0x8BE0079C531659141344CD1FD0A4F28419497F9722A3DAAFE3B4186F6B6457E0 SWAP2 SWAP1 LOG3 POP POP JUMP JUMPDEST DUP1 MLOAD PUSH11 0x636F6E736F6C652E6C6F67 PUSH1 0x20 DUP4 ADD PUSH0 DUP1 DUP5 DUP4 DUP6 GAS STATICCALL POP POP POP POP POP JUMP JUMPDEST PUSH2 0x1396 DUP2 PUSH1 0x40 MLOAD PUSH1 0x24 ADD PUSH2 0x16A5 SWAP2 DUP2 MSTORE PUSH1 0x20 ADD SWAP1 JUMP JUMPDEST PUSH1 0x40 DUP1 MLOAD PUSH1 0x1F NOT DUP2 DUP5 SUB ADD DUP2 MSTORE SWAP2 SWAP1 MSTORE PUSH1 0x20 DUP2 ADD DUP1 MLOAD PUSH1 0x1 PUSH1 0x1 PUSH1 0xE0 SHL SUB AND PUSH4 0x27B7CF85 PUSH1 0xE0 SHL OR SWAP1 MSTORE PUSH2 0x166F JUMP JUMPDEST PUSH0 DUP1 PUSH1 0x20 DUP4 DUP6 SUB SLT ISZERO PUSH2 0x16E5 JUMPI PUSH0 DUP1 REVERT JUMPDEST DUP3 CALLDATALOAD PUSH1 0x1 PUSH1 0x1 PUSH1 0x40 SHL SUB DUP2 GT ISZERO PUSH2 0x16FA JUMPI PUSH0 DUP1 REVERT JUMPDEST DUP4 ADD PUSH1 0x1F DUP2 ADD DUP6 SGT PUSH2 0x170A JUMPI PUSH0 DUP1 REVERT JUMPDEST DUP1 CALLDATALOAD PUSH1 0x1 PUSH1 0x1 PUSH1 0x40 SHL SUB DUP2 GT ISZERO PUSH2 0x171F JUMPI PUSH0 DUP1 REVERT JUMPDEST DUP6 PUSH1 0x20 DUP3 DUP5 ADD ADD GT ISZERO PUSH2 0x1730 JUMPI PUSH0 DUP1 REVERT JUMPDEST PUSH1 0x20 SWAP2 SWAP1 SWAP2 ADD SWAP6 SWAP1 SWAP5 POP SWAP3 POP POP POP JUMP JUMPDEST PUSH0 PUSH1 0x20 DUP3 DUP5 SUB SLT ISZERO PUSH2 0x1750 JUMPI PUSH0 DUP1 REVERT JUMPDEST POP CALLDATALOAD SWAP2 SWAP1 POP JUMP JUMPDEST PUSH0 DUP1 PUSH1 0x40 DUP4 DUP6 SUB SLT ISZERO PUSH2 0x1768 JUMPI PUSH0 DUP1 REVERT JUMPDEST POP POP DUP1 CALLDATALOAD SWAP3 PUSH1 0x20 SWAP1 SWAP2 ADD CALLDATALOAD SWAP2 POP JUMP JUMPDEST PUSH1 0x1 PUSH1 0x1 PUSH1 0xA0 SHL SUB SWAP2 SWAP1 SWAP2 AND DUP2 MSTORE PUSH1 0x20 ADD SWAP1 JUMP JUMPDEST DUP1 CALLDATALOAD PUSH1 0x1 PUSH1 0x1 PUSH1 0xA0 SHL SUB DUP2 AND DUP2 EQ PUSH2 0x5F2 JUMPI PUSH0 DUP1 REVERT JUMPDEST PUSH0 PUSH1 0x20 DUP3 DUP5 SUB SLT ISZERO PUSH2 0x17B1 JUMPI PUSH0 DUP1 REVERT JUMPDEST PUSH2 0x17BA DUP3 PUSH2 0x178B JUMP JUMPDEST SWAP4 SWAP3 POP POP POP JUMP JUMPDEST PUSH0 DUP1 DUP4 PUSH1 0x1F DUP5 ADD SLT PUSH2 0x17D1 JUMPI PUSH0 DUP1 REVERT JUMPDEST POP DUP2 CALLDATALOAD PUSH1 0x1 PUSH1 0x1 PUSH1 0x40 SHL SUB DUP2 GT ISZERO PUSH2 0x17E7 JUMPI PUSH0 DUP1 REVERT JUMPDEST PUSH1 0x20 DUP4 ADD SWAP2 POP DUP4 PUSH1 0x20 DUP3 PUSH1 0x5 SHL DUP6 ADD ADD GT ISZERO PUSH2 0x1801 JUMPI PUSH0 DUP1 REVERT JUMPDEST SWAP3 POP SWAP3 SWAP1 POP JUMP JUMPDEST DUP1 CALLDATALOAD DUP1 ISZERO ISZERO DUP2 EQ PUSH2 0x5F2 JUMPI PUSH0 DUP1 REVERT JUMPDEST PUSH0 DUP1 PUSH0 DUP1 PUSH0 DUP1 PUSH1 0x80 DUP8 DUP10 SUB SLT ISZERO PUSH2 0x182C JUMPI PUSH0 DUP1 REVERT JUMPDEST DUP7 CALLDATALOAD SWAP6 POP PUSH1 0x20 DUP8 ADD CALLDATALOAD PUSH1 0x1 PUSH1 0x1 PUSH1 0x40 SHL SUB DUP2 GT ISZERO PUSH2 0x1848 JUMPI PUSH0 DUP1 REVERT JUMPDEST PUSH2 0x1854 DUP10 DUP3 DUP11 ADD PUSH2 0x17C1 JUMP JUMPDEST SWAP1 SWAP7 POP SWAP5 POP POP PUSH1 0x40 DUP8 ADD CALLDATALOAD PUSH1 0x1 PUSH1 0x1 PUSH1 0x40 SHL SUB DUP2 GT ISZERO PUSH2 0x1872 JUMPI PUSH0 DUP1 REVERT JUMPDEST PUSH2 0x187E DUP10 DUP3 DUP11 ADD PUSH2 0x17C1 JUMP JUMPDEST SWAP1 SWAP5 POP SWAP3 POP PUSH2 0x1891 SWAP1 POP PUSH1 0x60 DUP9 ADD PUSH2 0x1808 JUMP JUMPDEST SWAP1 POP SWAP3 SWAP6 POP SWAP3 SWAP6 POP SWAP3 SWAP6 JUMP JUMPDEST PUSH0 DUP1 PUSH0 DUP1 PUSH1 0x80 DUP6 DUP8 SUB SLT ISZERO PUSH2 0x18B0 JUMPI PUSH0 DUP1 REVERT JUMPDEST PUSH2 0x18B9 DUP6 PUSH2 0x178B JUMP JUMPDEST SWAP4 POP PUSH1 0x20 DUP6 ADD CALLDATALOAD SWAP3 POP PUSH1 0x40 DUP6 ADD CALLDATALOAD SWAP2 POP PUSH2 0x18D5 PUSH1 0x60 DUP7 ADD PUSH2 0x1808 JUMP JUMPDEST SWAP1 POP SWAP3 SWAP6 SWAP2 SWAP5 POP SWAP3 POP JUMP JUMPDEST PUSH1 0x20 DUP1 DUP3 MSTORE DUP3 MLOAD DUP3 DUP3 ADD DUP2 SWAP1 MSTORE PUSH0 SWAP2 DUP5 ADD SWAP1 PUSH1 0x40 DUP5 ADD SWAP1 DUP4 JUMPDEST DUP2 DUP2 LT ISZERO PUSH2 0x1917 JUMPI DUP4 MLOAD DUP4 MSTORE PUSH1 0x20 SWAP4 DUP5 ADD SWAP4 SWAP1 SWAP3 ADD SWAP2 PUSH1 0x1 ADD PUSH2 0x18F9 JUMP JUMPDEST POP SWAP1 SWAP6 SWAP5 POP POP POP POP POP JUMP JUMPDEST PUSH0 DUP1 PUSH0 PUSH1 0x60 DUP5 DUP7 SUB SLT ISZERO PUSH2 0x1934 JUMPI PUSH0 DUP1 REVERT JUMPDEST PUSH2 0x193D DUP5 PUSH2 0x178B JUMP JUMPDEST SWAP6 PUSH1 0x20 DUP6 ADD CALLDATALOAD SWAP6 POP PUSH1 0x40 SWAP1 SWAP5 ADD CALLDATALOAD SWAP4 SWAP3 POP POP POP JUMP JUMPDEST PUSH0 DUP1 PUSH1 0x40 DUP4 DUP6 SUB SLT ISZERO PUSH2 0x1963 JUMPI PUSH0 DUP1 REVERT JUMPDEST PUSH2 0x196C DUP4 PUSH2 0x178B JUMP JUMPDEST SWAP5 PUSH1 0x20 SWAP4 SWAP1 SWAP4 ADD CALLDATALOAD SWAP4 POP POP POP JUMP JUMPDEST PUSH0 DUP2 MLOAD DUP1 DUP5 MSTORE DUP1 PUSH1 0x20 DUP5 ADD PUSH1 0x20 DUP7 ADD MCOPY PUSH0 PUSH1 0x20 DUP3 DUP7 ADD ADD MSTORE PUSH1 0x20 PUSH1 0x1F NOT PUSH1 0x1F DUP4 ADD AND DUP6 ADD ADD SWAP2 POP POP SWAP3 SWAP2 POP POP JUMP JUMPDEST DUP6 DUP2 MSTORE PUSH1 0xA0 PUSH1 0x20 DUP3 ADD MSTORE PUSH0 PUSH2 0x19C0 PUSH1 0xA0 DUP4 ADD DUP8 PUSH2 0x197A JUMP JUMPDEST DUP3 DUP2 SUB PUSH1 0x40 DUP5 ADD MSTORE PUSH2 0x19D2 DUP2 DUP8 PUSH2 0x197A JUMP JUMPDEST PUSH1 0x60 DUP5 ADD SWAP6 SWAP1 SWAP6 MSTORE POP POP PUSH1 0x80 ADD MSTORE SWAP4 SWAP3 POP POP POP JUMP JUMPDEST PUSH1 0x20 DUP1 DUP3 MSTORE PUSH1 0x1B SWAP1 DUP3 ADD MSTORE PUSH27 0x14DB585C9D0818DBDB9D1C9858DD1CC81B9BDD08185B1B1BDDD959 PUSH1 0x2A SHL PUSH1 0x40 DUP3 ADD MSTORE PUSH1 0x60 ADD SWAP1 JUMP JUMPDEST PUSH4 0x4E487B71 PUSH1 0xE0 SHL PUSH0 MSTORE PUSH1 0x41 PUSH1 0x4 MSTORE PUSH1 0x24 PUSH0 REVERT JUMPDEST PUSH1 0x1 DUP2 DUP2 SHR SWAP1 DUP3 AND DUP1 PUSH2 0x1A44 JUMPI PUSH1 0x7F DUP3 AND SWAP2 POP JUMPDEST PUSH1 0x20 DUP3 LT DUP2 SUB PUSH2 0x1A62 JUMPI PUSH4 0x4E487B71 PUSH1 0xE0 SHL PUSH0 MSTORE PUSH1 0x22 PUSH1 0x4 MSTORE PUSH1 0x24 PUSH0 REVERT JUMPDEST POP SWAP2 SWAP1 POP JUMP JUMPDEST PUSH1 0x1F DUP3 GT ISZERO PUSH2 0x53C JUMPI DUP1 PUSH0 MSTORE PUSH1 0x20 PUSH0 KECCAK256 PUSH1 0x1F DUP5 ADD PUSH1 0x5 SHR DUP2 ADD PUSH1 0x20 DUP6 LT ISZERO PUSH2 0x1A8D JUMPI POP DUP1 JUMPDEST PUSH1 0x1F DUP5 ADD PUSH1 0x5 SHR DUP3 ADD SWAP2 POP JUMPDEST DUP2 DUP2 LT ISZERO PUSH2 0x1AAC JUMPI PUSH0 DUP2 SSTORE PUSH1 0x1 ADD PUSH2 0x1A99 JUMP JUMPDEST POP POP POP POP POP JUMP JUMPDEST PUSH0 NOT PUSH1 0x3 DUP4 SWAP1 SHL SHR NOT AND PUSH1 0x1 SWAP2 SWAP1 SWAP2 SHL OR SWAP1 JUMP JUMPDEST PUSH1 0x1 PUSH1 0x1 PUSH1 0x40 SHL SUB DUP4 GT ISZERO PUSH2 0x1ADE JUMPI PUSH2 0x1ADE PUSH2 0x1A1C JUMP JUMPDEST PUSH2 0x1AF2 DUP4 PUSH2 0x1AEC DUP4 SLOAD PUSH2 0x1A30 JUMP JUMPDEST DUP4 PUSH2 0x1A68 JUMP JUMPDEST PUSH0 PUSH1 0x1F DUP5 GT PUSH1 0x1 DUP2 EQ PUSH2 0x1B1E JUMPI PUSH0 DUP6 ISZERO PUSH2 0x1B0C JUMPI POP DUP4 DUP3 ADD CALLDATALOAD JUMPDEST PUSH2 0x1B16 DUP7 DUP3 PUSH2 0x1AB3 JUMP JUMPDEST DUP5 SSTORE POP PUSH2 0x1AAC JUMP JUMPDEST PUSH0 DUP4 DUP2 MSTORE PUSH1 0x20 DUP2 KECCAK256 PUSH1 0x1F NOT DUP8 AND SWAP2 JUMPDEST DUP3 DUP2 LT ISZERO PUSH2 0x1B4D JUMPI DUP7 DUP6 ADD CALLDATALOAD DUP3 SSTORE PUSH1 0x20 SWAP5 DUP6 ADD SWAP5 PUSH1 0x1 SWAP1 SWAP3 ADD SWAP2 ADD PUSH2 0x1B2D JUMP JUMPDEST POP DUP7 DUP3 LT ISZERO PUSH2 0x1B69 JUMPI PUSH0 NOT PUSH1 0xF8 DUP9 PUSH1 0x3 SHL AND SHR NOT DUP5 DUP8 ADD CALLDATALOAD AND DUP2 SSTORE JUMPDEST POP POP PUSH1 0x1 DUP6 PUSH1 0x1 SHL ADD DUP4 SSTORE POP POP POP POP POP JUMP JUMPDEST PUSH4 0x4E487B71 PUSH1 0xE0 SHL PUSH0 MSTORE PUSH1 0x11 PUSH1 0x4 MSTORE PUSH1 0x24 PUSH0 REVERT JUMPDEST DUP1 DUP3 ADD DUP1 DUP3 GT ISZERO PUSH2 0x1090 JUMPI PUSH2 0x1090 PUSH2 0x1B7B JUMP JUMPDEST PUSH1 0x20 DUP1 DUP3 MSTORE PUSH1 0xC SWAP1 DUP3 ADD MSTORE PUSH12 0x155B985D5D1A1BDC9A5E9959 PUSH1 0xA2 SHL PUSH1 0x40 DUP3 ADD MSTORE PUSH1 0x60 ADD SWAP1 JUMP JUMPDEST PUSH4 0x4E487B71 PUSH1 0xE0 SHL PUSH0 MSTORE PUSH1 0x32 PUSH1 0x4 MSTORE PUSH1 0x24 PUSH0 REVERT JUMPDEST PUSH1 0x20 DUP1 DUP3 MSTORE PUSH1 0x1C SWAP1 DUP3 ADD MSTORE PUSH28 0x1D5C19185D194818985B185B98D94E8815DC9BDB99C8185B5BDD5B9D PUSH1 0x22 SHL PUSH1 0x40 DUP3 ADD MSTORE PUSH1 0x60 ADD SWAP1 JUMP JUMPDEST DUP2 DUP2 SUB DUP2 DUP2 GT ISZERO PUSH2 0x1090 JUMPI PUSH2 0x1090 PUSH2 0x1B7B JUMP JUMPDEST PUSH1 0x20 DUP1 DUP3 MSTORE PUSH1 0x1F SWAP1 DUP3 ADD MSTORE PUSH32 0x72656620636F64652065786973747320696E20616E6F74686572207573657200 PUSH1 0x40 DUP3 ADD MSTORE PUSH1 0x60 ADD SWAP1 JUMP JUMPDEST PUSH1 0x20 DUP1 DUP3 MSTORE PUSH1 0x14 SWAP1 DUP3 ADD MSTORE PUSH20 0x6C6F6E67746974756465206E6F7420616C6C6F77 PUSH1 0x60 SHL PUSH1 0x40 DUP3 ADD MSTORE PUSH1 0x60 ADD SWAP1 JUMP JUMPDEST DUP2 MLOAD PUSH1 0x1 PUSH1 0x1 PUSH1 0x40 SHL SUB DUP2 GT ISZERO PUSH2 0x1CA3 JUMPI PUSH2 0x1CA3 PUSH2 0x1A1C JUMP JUMPDEST PUSH2 0x1CB7 DUP2 PUSH2 0x1CB1 DUP5 SLOAD PUSH2 0x1A30 JUMP JUMPDEST DUP5 PUSH2 0x1A68 JUMP JUMPDEST PUSH1 0x20 PUSH1 0x1F DUP3 GT PUSH1 0x1 DUP2 EQ PUSH2 0x1CE4 JUMPI PUSH0 DUP4 ISZERO PUSH2 0x1CD2 JUMPI POP DUP5 DUP3 ADD MLOAD JUMPDEST PUSH2 0x1CDC DUP5 DUP3 PUSH2 0x1AB3 JUMP JUMPDEST DUP6 SSTORE POP PUSH2 0x1AAC JUMP JUMPDEST PUSH0 DUP5 DUP2 MSTORE PUSH1 0x20 DUP2 KECCAK256 PUSH1 0x1F NOT DUP6 AND SWAP2 JUMPDEST DUP3 DUP2 LT ISZERO PUSH2 0x1D13 JUMPI DUP8 DUP6 ADD MLOAD DUP3 SSTORE PUSH1 0x20 SWAP5 DUP6 ADD SWAP5 PUSH1 0x1 SWAP1 SWAP3 ADD SWAP2 ADD PUSH2 0x1CF3 JUMP JUMPDEST POP DUP5 DUP3 LT ISZERO PUSH2 0x1D30 JUMPI DUP7 DUP5 ADD MLOAD PUSH0 NOT PUSH1 0x3 DUP8 SWAP1 SHL PUSH1 0xF8 AND SHR NOT AND DUP2 SSTORE JUMPDEST POP POP POP POP PUSH1 0x1 SWAP1 DUP2 SHL ADD SWAP1 SSTORE POP JUMP JUMPDEST PUSH0 PUSH1 0x1 DUP3 ADD PUSH2 0x1D50 JUMPI PUSH2 0x1D50 PUSH2 0x1B7B JUMP JUMPDEST POP PUSH1 0x1 ADD SWAP1 JUMP JUMPDEST PUSH1 0x20 DUP2 MSTORE PUSH0 PUSH2 0x17BA PUSH1 0x20 DUP4 ADD DUP5 PUSH2 0x197A JUMP JUMPDEST PUSH1 0x40 DUP2 MSTORE PUSH0 PUSH2 0x1D7B PUSH1 0x40 DUP4 ADD DUP6 PUSH2 0x197A JUMP JUMPDEST SWAP1 POP PUSH1 0x1 DUP1 PUSH1 0xA0 SHL SUB DUP4 AND PUSH1 0x20 DUP4 ADD MSTORE SWAP4 SWAP3 POP POP POP JUMP JUMPDEST PUSH1 0x40 DUP2 MSTORE PUSH0 PUSH2 0x1DA4 PUSH1 0x40 DUP4 ADD DUP6 PUSH2 0x197A JUMP JUMPDEST SWAP1 POP DUP3 PUSH1 0x20 DUP4 ADD MSTORE SWAP4 SWAP3 POP POP POP JUMP INVALID LOG2 PUSH5 0x6970667358 0x22 SLT KECCAK256 0x4B SWAP12 0xE2 0xC8 SWAP15 0xE3 DUP9 DUP7 0xB0 0xAD PUSH12 0x4BCB3AA52309DE439EF93041 0x29 DUP8 EXP 0xEE 0xCF PUSH29 0x8DF8964736F6C634300081A0033000000000000000000000000000000 "
		},
		"gasEstimates": {
			"creation": {
				"codeDepositCost": "1531400",
				"executionCost": "27463",
				"totalCost": "1558863"
			},
			"external": {
				"addNationalBonusPool(uint256,bytes32)": "24714",
				"allUltraUTXO(uint256)": "4902",
				"allUserRefCodes(bytes32)": "2608",
				"balances(address)": "2604",
				"batchUpdateBalances(bytes32,address[],uint256[],bool)": "infinite",
				"confirmUTXO(bytes32)": "36503",
				"getAllUltraUTXOs()": "infinite",
				"getBalance(address)": "3128",
				"getNationalBonusPool()": "2819",
				"getPendingNationalBonusPool(bytes32)": "2655",
				"getRefCode()": "2970",
				"getRefCodeToUser(bytes32)": "2585",
				"getUltraBPInfo(address,bytes32)": "11803",
				"getUserUltraUTXOs(address)": "infinite",
				"initUser(address,uint256,uint256)": "infinite",
				"nodeExtras(address)": "infinite",
				"owner()": "2632",
				"renounceOwnership()": "infinite",
				"resetNationalBonusPool(uint256)": "7349",
				"setNickName(string)": "infinite",
				"setPhoneNumber(string)": "infinite",
				"setRefCodeToUser(bytes32,bytes32)": "82201",
				"setTreeCommissionAddress(address)": "27063",
				"transferOwnership(address)": "28924",
				"treeCommissionContract()": "2668",
				"updateBalance(address,bytes32,uint256,bool)": "infinite",
				"userUltraBP(address,bytes32)": "11665",
				"utxoToUsers(bytes32,uint256)": "4746",
				"withdrawBP(address,uint256)": "infinite"
			},
			"internal": {
				"cancelUltraUTXO(bytes32)": "infinite",
				"createUltraUTXO(address,bytes32,uint256)": "infinite",
				"isValidUTXO(bytes32)": "infinite",
				"withdrawUltraBP(address,bytes32)": "infinite"
			}
		},
		"methodIdentifiers": {
			"addNationalBonusPool(uint256,bytes32)": "21e7fb58",
			"allUltraUTXO(uint256)": "a472f0fb",
			"allUserRefCodes(bytes32)": "301b6096",
			"balances(address)": "27e235e3",
			"batchUpdateBalances(bytes32,address[],uint256[],bool)": "361302f4",
			"confirmUTXO(bytes32)": "aad461e6",
			"getAllUltraUTXOs()": "56a86377",
			"getBalance(address)": "f8b2cb4f",
			"getNationalBonusPool()": "ee82cfd0",
			"getPendingNationalBonusPool(bytes32)": "6ceb37ba",
			"getRefCode()": "f605c095",
			"getRefCodeToUser(bytes32)": "1b879d6b",
			"getUltraBPInfo(address,bytes32)": "e43ed78b",
			"getUserUltraUTXOs(address)": "c99282f6",
			"initUser(address,uint256,uint256)": "b21ec30e",
			"nodeExtras(address)": "d3e19a57",
			"owner()": "8da5cb5b",
			"renounceOwnership()": "715018a6",
			"resetNationalBonusPool(uint256)": "0870b174",
			"setNickName(string)": "c73ea367",
			"setPhoneNumber(string)": "086c32e5",
			"setRefCodeToUser(bytes32,bytes32)": "6731ad1e",
			"setTreeCommissionAddress(address)": "9b7952a4",
			"transferOwnership(address)": "f2fde38b",
			"treeCommissionContract()": "a0815a54",
			"updateBalance(address,bytes32,uint256,bool)": "3d151e37",
			"userUltraBP(address,bytes32)": "ed747e25",
			"utxoToUsers(bytes32,uint256)": "0ded21b2",
			"withdrawBP(address,uint256)": "c84d239b"
		}
	},
	"abi": [
		{
			"inputs": [],
			"stateMutability": "nonpayable",
			"type": "constructor"
		},
		{
			"inputs": [
				{
					"internalType": "address",
					"name": "owner",
					"type": "address"
				}
			],
			"name": "OwnableInvalidOwner",
			"type": "error"
		},
		{
			"inputs": [
				{
					"internalType": "address",
					"name": "account",
					"type": "address"
				}
			],
			"name": "OwnableUnauthorizedAccount",
			"type": "error"
		},
		{
			"anonymous": false,
			"inputs": [
				{
					"indexed": true,
					"internalType": "address",
					"name": "previousOwner",
					"type": "address"
				},
				{
					"indexed": true,
					"internalType": "address",
					"name": "newOwner",
					"type": "address"
				}
			],
			"name": "OwnershipTransferred",
			"type": "event"
		},
		{
			"inputs": [
				{
					"internalType": "uint256",
					"name": "amount",
					"type": "uint256"
				},
				{
					"internalType": "bytes32",
					"name": "utxoID",
					"type": "bytes32"
				}
			],
			"name": "addNationalBonusPool",
			"outputs": [],
			"stateMutability": "nonpayable",
			"type": "function"
		},
		{
			"inputs": [
				{
					"internalType": "uint256",
					"name": "",
					"type": "uint256"
				}
			],
			"name": "allUltraUTXO",
			"outputs": [
				{
					"internalType": "bytes32",
					"name": "",
					"type": "bytes32"
				}
			],
			"stateMutability": "view",
			"type": "function"
		},
		{
			"inputs": [
				{
					"internalType": "bytes32",
					"name": "",
					"type": "bytes32"
				}
			],
			"name": "allUserRefCodes",
			"outputs": [
				{
					"internalType": "address",
					"name": "",
					"type": "address"
				}
			],
			"stateMutability": "view",
			"type": "function"
		},
		{
			"inputs": [
				{
					"internalType": "address",
					"name": "",
					"type": "address"
				}
			],
			"name": "balances",
			"outputs": [
				{
					"internalType": "uint256",
					"name": "",
					"type": "uint256"
				}
			],
			"stateMutability": "view",
			"type": "function"
		},
		{
			"inputs": [
				{
					"internalType": "bytes32",
					"name": "utxoID",
					"type": "bytes32"
				},
				{
					"internalType": "address[]",
					"name": "users",
					"type": "address[]"
				},
				{
					"internalType": "uint256[]",
					"name": "amounts",
					"type": "uint256[]"
				},
				{
					"internalType": "bool",
					"name": "isAdd",
					"type": "bool"
				}
			],
			"name": "batchUpdateBalances",
			"outputs": [],
			"stateMutability": "nonpayable",
			"type": "function"
		},
		{
			"inputs": [
				{
					"internalType": "bytes32",
					"name": "utxoID",
					"type": "bytes32"
				}
			],
			"name": "confirmUTXO",
			"outputs": [],
			"stateMutability": "nonpayable",
			"type": "function"
		},
		{
			"inputs": [],
			"name": "getAllUltraUTXOs",
			"outputs": [
				{
					"internalType": "bytes32[]",
					"name": "",
					"type": "bytes32[]"
				}
			],
			"stateMutability": "view",
			"type": "function"
		},
		{
			"inputs": [
				{
					"internalType": "address",
					"name": "user",
					"type": "address"
				}
			],
			"name": "getBalance",
			"outputs": [
				{
					"internalType": "uint256",
					"name": "",
					"type": "uint256"
				}
			],
			"stateMutability": "view",
			"type": "function"
		},
		{
			"inputs": [],
			"name": "getNationalBonusPool",
			"outputs": [
				{
					"internalType": "uint256",
					"name": "",
					"type": "uint256"
				}
			],
			"stateMutability": "view",
			"type": "function"
		},
		{
			"inputs": [
				{
					"internalType": "bytes32",
					"name": "utxoID",
					"type": "bytes32"
				}
			],
			"name": "getPendingNationalBonusPool",
			"outputs": [
				{
					"internalType": "uint256",
					"name": "",
					"type": "uint256"
				}
			],
			"stateMutability": "view",
			"type": "function"
		},
		{
			"inputs": [],
			"name": "getRefCode",
			"outputs": [
				{
					"internalType": "bytes32",
					"name": "",
					"type": "bytes32"
				}
			],
			"stateMutability": "view",
			"type": "function"
		},
		{
			"inputs": [
				{
					"internalType": "bytes32",
					"name": "refCode",
					"type": "bytes32"
				}
			],
			"name": "getRefCodeToUser",
			"outputs": [
				{
					"internalType": "address",
					"name": "",
					"type": "address"
				}
			],
			"stateMutability": "view",
			"type": "function"
		},
		{
			"inputs": [
				{
					"internalType": "address",
					"name": "user",
					"type": "address"
				},
				{
					"internalType": "bytes32",
					"name": "utxoID",
					"type": "bytes32"
				}
			],
			"name": "getUltraBPInfo",
			"outputs": [
				{
					"internalType": "uint256",
					"name": "BP",
					"type": "uint256"
				},
				{
					"internalType": "uint256",
					"name": "createTime",
					"type": "uint256"
				},
				{
					"internalType": "uint256",
					"name": "activeTime",
					"type": "uint256"
				},
				{
					"internalType": "uint256",
					"name": "expiredTime",
					"type": "uint256"
				},
				{
					"internalType": "bool",
					"name": "isDeny",
					"type": "bool"
				}
			],
			"stateMutability": "view",
			"type": "function"
		},
		{
			"inputs": [
				{
					"internalType": "address",
					"name": "user",
					"type": "address"
				}
			],
			"name": "getUserUltraUTXOs",
			"outputs": [
				{
					"internalType": "bytes32[]",
					"name": "",
					"type": "bytes32[]"
				}
			],
			"stateMutability": "view",
			"type": "function"
		},
		{
			"inputs": [
				{
					"internalType": "address",
					"name": "user",
					"type": "address"
				},
				{
					"internalType": "uint256",
					"name": "longtitude",
					"type": "uint256"
				},
				{
					"internalType": "uint256",
					"name": "lattitude",
					"type": "uint256"
				}
			],
			"name": "initUser",
			"outputs": [],
			"stateMutability": "nonpayable",
			"type": "function"
		},
		{
			"inputs": [
				{
					"internalType": "address",
					"name": "",
					"type": "address"
				}
			],
			"name": "nodeExtras",
			"outputs": [
				{
					"internalType": "bytes32",
					"name": "refCode",
					"type": "bytes32"
				},
				{
					"internalType": "string",
					"name": "phoneNumber",
					"type": "string"
				},
				{
					"internalType": "string",
					"name": "nickName",
					"type": "string"
				},
				{
					"internalType": "uint256",
					"name": "longtitude",
					"type": "uint256"
				},
				{
					"internalType": "uint256",
					"name": "lattitude",
					"type": "uint256"
				}
			],
			"stateMutability": "view",
			"type": "function"
		},
		{
			"inputs": [],
			"name": "owner",
			"outputs": [
				{
					"internalType": "address",
					"name": "",
					"type": "address"
				}
			],
			"stateMutability": "view",
			"type": "function"
		},
		{
			"inputs": [],
			"name": "renounceOwnership",
			"outputs": [],
			"stateMutability": "nonpayable",
			"type": "function"
		},
		{
			"inputs": [
				{
					"internalType": "uint256",
					"name": "currentAmount",
					"type": "uint256"
				}
			],
			"name": "resetNationalBonusPool",
			"outputs": [],
			"stateMutability": "nonpayable",
			"type": "function"
		},
		{
			"inputs": [
				{
					"internalType": "string",
					"name": "nickName",
					"type": "string"
				}
			],
			"name": "setNickName",
			"outputs": [],
			"stateMutability": "nonpayable",
			"type": "function"
		},
		{
			"inputs": [
				{
					"internalType": "string",
					"name": "phoneNumber",
					"type": "string"
				}
			],
			"name": "setPhoneNumber",
			"outputs": [],
			"stateMutability": "nonpayable",
			"type": "function"
		},
		{
			"inputs": [
				{
					"internalType": "bytes32",
					"name": "oldRefCode",
					"type": "bytes32"
				},
				{
					"internalType": "bytes32",
					"name": "newRefCode",
					"type": "bytes32"
				}
			],
			"name": "setRefCodeToUser",
			"outputs": [],
			"stateMutability": "nonpayable",
			"type": "function"
		},
		{
			"inputs": [
				{
					"internalType": "address",
					"name": "_treeCommissionAddress",
					"type": "address"
				}
			],
			"name": "setTreeCommissionAddress",
			"outputs": [],
			"stateMutability": "nonpayable",
			"type": "function"
		},
		{
			"inputs": [
				{
					"internalType": "address",
					"name": "newOwner",
					"type": "address"
				}
			],
			"name": "transferOwnership",
			"outputs": [],
			"stateMutability": "nonpayable",
			"type": "function"
		},
		{
			"inputs": [],
			"name": "treeCommissionContract",
			"outputs": [
				{
					"internalType": "address",
					"name": "",
					"type": "address"
				}
			],
			"stateMutability": "view",
			"type": "function"
		},
		{
			"inputs": [
				{
					"internalType": "address",
					"name": "user",
					"type": "address"
				},
				{
					"internalType": "bytes32",
					"name": "utxoID",
					"type": "bytes32"
				},
				{
					"internalType": "uint256",
					"name": "amount",
					"type": "uint256"
				},
				{
					"internalType": "bool",
					"name": "isAdd",
					"type": "bool"
				}
			],
			"name": "updateBalance",
			"outputs": [],
			"stateMutability": "nonpayable",
			"type": "function"
		},
		{
			"inputs": [
				{
					"internalType": "address",
					"name": "",
					"type": "address"
				},
				{
					"internalType": "bytes32",
					"name": "",
					"type": "bytes32"
				}
			],
			"name": "userUltraBP",
			"outputs": [
				{
					"internalType": "uint256",
					"name": "BP",
					"type": "uint256"
				},
				{
					"internalType": "uint256",
					"name": "createTime",
					"type": "uint256"
				},
				{
					"internalType": "uint256",
					"name": "activeTime",
					"type": "uint256"
				},
				{
					"internalType": "uint256",
					"name": "expiredTime",
					"type": "uint256"
				},
				{
					"internalType": "bool",
					"name": "isDeny",
					"type": "bool"
				}
			],
			"stateMutability": "view",
			"type": "function"
		},
		{
			"inputs": [
				{
					"internalType": "bytes32",
					"name": "",
					"type": "bytes32"
				},
				{
					"internalType": "uint256",
					"name": "",
					"type": "uint256"
				}
			],
			"name": "utxoToUsers",
			"outputs": [
				{
					"internalType": "address",
					"name": "",
					"type": "address"
				}
			],
			"stateMutability": "view",
			"type": "function"
		},
		{
			"inputs": [
				{
					"internalType": "address",
					"name": "user",
					"type": "address"
				},
				{
					"internalType": "uint256",
					"name": "amount",
					"type": "uint256"
				}
			],
			"name": "withdrawBP",
			"outputs": [
				{
					"internalType": "bool",
					"name": "",
					"type": "bool"
				}
			],
			"stateMutability": "nonpayable",
			"type": "function"
		}
	]
}