{
	"data": {
		"bytecode": {
			"linkReferences": {},
			"object": "608060405234801561000f575f80fd5b506040516148ad3803806148ad833981810160405281019061003191906108be565b33878781600390816100439190610b97565b5080600490816100539190610b97565b5050505f73ffffffffffffffffffffffffffffffffffffffff168173ffffffffffffffffffffffffffffffffffffffff16036100c6575f6040517f1e4fbdf70000000000000000000000000000000000000000000000000000000081526004016100bd9190610c75565b60405180910390fd5b6100d58161020760201b60201c565b5061010a336100e86102ca60201b60201c565b600a6100f49190610df6565b876100ff9190610e40565b6102d260201b60201c565b83600a8190555082600b819055508160095f6101000a81548173ffffffffffffffffffffffffffffffffffffffff021916908373ffffffffffffffffffffffffffffffffffffffff1602179055508060065f6101000a81548173ffffffffffffffffffffffffffffffffffffffff021916908373ffffffffffffffffffffffffffffffffffffffff1602179055506101a661035760201b60201c565b600160125f3373ffffffffffffffffffffffffffffffffffffffff1673ffffffffffffffffffffffffffffffffffffffff1681526020019081526020015f205f6101000a81548160ff02191690831515021790555050505050505050610f67565b5f60055f9054906101000a900473ffffffffffffffffffffffffffffffffffffffff1690508160055f6101000a81548173ffffffffffffffffffffffffffffffffffffffff021916908373ffffffffffffffffffffffffffffffffffffffff1602179055508173ffffffffffffffffffffffffffffffffffffffff168173ffffffffffffffffffffffffffffffffffffffff167f8be0079c531659141344cd1fd0a4f28419497f9722a3daafe3b4186f6b6457e060405160405180910390a35050565b5f6012905090565b5f73ffffffffffffffffffffffffffffffffffffffff168273ffffffffffffffffffffffffffffffffffffffff1603610342575f6040517fec442f050000000000000000000000000000000000000000000000000000000081526004016103399190610c75565b60405180910390fd5b6103535f83836104cb60201b60201c565b5050565b5f60065f9054906101000a900473ffffffffffffffffffffffffffffffffffffffff1673ffffffffffffffffffffffffffffffffffffffff1663ddd1b67e6040518163ffffffff1660e01b8152600401602060405180830381865afa1580156103c2573d5f803e3d5ffd5b505050506040513d601f19601f820116820180604052508101906103e69190610e81565b90506008548111156104c85760065f9054906101000a900473ffffffffffffffffffffffffffffffffffffffff1673ffffffffffffffffffffffffffffffffffffffff166327ebec606040518163ffffffff1660e01b81526004016020604051808303815f875af115801561045d573d5f803e3d5ffd5b505050506040513d601f19601f820116820180604052508101906104819190610eac565b60075f6101000a81548173ffffffffffffffffffffffffffffffffffffffff021916908373ffffffffffffffffffffffffffffffffffffffff160217905550806008819055505b50565b5f73ffffffffffffffffffffffffffffffffffffffff168373ffffffffffffffffffffffffffffffffffffffff160361051b578060025f82825461050f9190610ed7565b925050819055506105e9565b5f805f8573ffffffffffffffffffffffffffffffffffffffff1673ffffffffffffffffffffffffffffffffffffffff1681526020019081526020015f20549050818110156105a4578381836040517fe450d38c00000000000000000000000000000000000000000000000000000000815260040161059b93929190610f19565b60405180910390fd5b8181035f808673ffffffffffffffffffffffffffffffffffffffff1673ffffffffffffffffffffffffffffffffffffffff1681526020019081526020015f2081905550505b5f73ffffffffffffffffffffffffffffffffffffffff168273ffffffffffffffffffffffffffffffffffffffff1603610630578060025f828254039250508190555061067a565b805f808473ffffffffffffffffffffffffffffffffffffffff1673ffffffffffffffffffffffffffffffffffffffff1681526020019081526020015f205f82825401925050819055505b8173ffffffffffffffffffffffffffffffffffffffff168373ffffffffffffffffffffffffffffffffffffffff167fddf252ad1be2c89b69c2b068fc378daa952ba7f163c4a11628f55a4df523b3ef836040516106d79190610f4e565b60405180910390a3505050565b5f604051905090565b5f80fd5b5f80fd5b5f80fd5b5f80fd5b5f601f19601f8301169050919050565b7f4e487b71000000000000000000000000000000000000000000000000000000005f52604160045260245ffd5b610743826106fd565b810181811067ffffffffffffffff821117156107625761076161070d565b5b80604052505050565b5f6107746106e4565b9050610780828261073a565b919050565b5f67ffffffffffffffff82111561079f5761079e61070d565b5b6107a8826106fd565b9050602081019050919050565b8281835e5f83830152505050565b5f6107d56107d084610785565b61076b565b9050828152602081018484840111156107f1576107f06106f9565b5b6107fc8482856107b5565b509392505050565b5f82601f830112610818576108176106f5565b5b81516108288482602086016107c3565b91505092915050565b5f819050919050565b61084381610831565b811461084d575f80fd5b50565b5f8151905061085e8161083a565b92915050565b5f73ffffffffffffffffffffffffffffffffffffffff82169050919050565b5f61088d82610864565b9050919050565b61089d81610883565b81146108a7575f80fd5b50565b5f815190506108b881610894565b92915050565b5f805f805f805f60e0888a0312156108d9576108d86106ed565b5b5f88015167ffffffffffffffff8111156108f6576108f56106f1565b5b6109028a828b01610804565b975050602088015167ffffffffffffffff811115610923576109226106f1565b5b61092f8a828b01610804565b96505060406109408a828b01610850565b95505060606109518a828b01610850565b94505060806109628a828b01610850565b93505060a06109738a828b016108aa565b92505060c06109848a828b016108aa565b91505092959891949750929550565b5f81519050919050565b7f4e487b71000000000000000000000000000000000000000000000000000000005f52602260045260245ffd5b5f60028204905060018216806109e157607f821691505b6020821081036109f4576109f361099d565b5b50919050565b5f819050815f5260205f209050919050565b5f6020601f8301049050919050565b5f82821b905092915050565b5f60088302610a567fffffffffffffffffffffffffffffffffffffffffffffffffffffffffffffffff82610a1b565b610a608683610a1b565b95508019841693508086168417925050509392505050565b5f819050919050565b5f610a9b610a96610a9184610831565b610a78565b610831565b9050919050565b5f819050919050565b610ab483610a81565b610ac8610ac082610aa2565b848454610a27565b825550505050565b5f90565b610adc610ad0565b610ae7818484610aab565b505050565b5b81811015610b0a57610aff5f82610ad4565b600181019050610aed565b5050565b601f821115610b4f57610b20816109fa565b610b2984610a0c565b81016020851015610b38578190505b610b4c610b4485610a0c565b830182610aec565b50505b505050565b5f82821c905092915050565b5f610b6f5f1984600802610b54565b1980831691505092915050565b5f610b878383610b60565b9150826002028217905092915050565b610ba082610993565b67ffffffffffffffff811115610bb957610bb861070d565b5b610bc382546109ca565b610bce828285610b0e565b5f60209050601f831160018114610bff575f8415610bed578287015190505b610bf78582610b7c565b865550610c5e565b601f198416610c0d866109fa565b5f5b82811015610c3457848901518255600182019150602085019450602081019050610c0f565b86831015610c515784890151610c4d601f891682610b60565b8355505b6001600288020188555050505b505050505050565b610c6f81610883565b82525050565b5f602082019050610c885f830184610c66565b92915050565b7f4e487b71000000000000000000000000000000000000000000000000000000005f52601160045260245ffd5b5f8160011c9050919050565b5f808291508390505b6001851115610d1057808604811115610cec57610ceb610c8e565b5b6001851615610cfb5780820291505b8081029050610d0985610cbb565b9450610cd0565b94509492505050565b5f82610d285760019050610de3565b81610d35575f9050610de3565b8160018114610d4b5760028114610d5557610d84565b6001915050610de3565b60ff841115610d6757610d66610c8e565b5b8360020a915084821115610d7e57610d7d610c8e565b5b50610de3565b5060208310610133831016604e8410600b8410161715610db95782820a905083811115610db457610db3610c8e565b5b610de3565b610dc68484846001610cc7565b92509050818404811115610ddd57610ddc610c8e565b5b81810290505b9392505050565b5f60ff82169050919050565b5f610e0082610831565b9150610e0b83610dea565b9250610e387fffffffffffffffffffffffffffffffffffffffffffffffffffffffffffffffff8484610d19565b905092915050565b5f610e4a82610831565b9150610e5583610831565b9250828202610e6381610831565b91508282048414831517610e7a57610e79610c8e565b5b5092915050565b5f60208284031215610e9657610e956106ed565b5b5f610ea384828501610850565b91505092915050565b5f60208284031215610ec157610ec06106ed565b5b5f610ece848285016108aa565b91505092915050565b5f610ee182610831565b9150610eec83610831565b9250828201905080821115610f0457610f03610c8e565b5b92915050565b610f1381610831565b82525050565b5f606082019050610f2c5f830186610c66565b610f396020830185610f0a565b610f466040830184610f0a565b949350505050565b5f602082019050610f615f830184610f0a565b92915050565b61393980610f745f395ff3fe608060405234801561000f575f80fd5b506004361061021a575f3560e01c806373cb76ca11610123578063a98ad46c116100ab578063be6172ce1161007a578063be6172ce146105f6578063c28c267014610626578063db068e0e14610642578063dd62ed3e1461065e578063f2fde38b1461068e5761021a565b8063a98ad46c14610584578063b0f9006a146105a2578063b9303dbd146105be578063bb644776146105da5761021a565b806395d89b41116100f257806395d89b41146104f0578063a0815a541461050e578063a0de1c371461052c578063a196857914610536578063a9059cbb146105545761021a565b806373cb76ca1461047857806388f6eac7146104965780638a9731dd146104b45780638da5cb5b146104d25761021a565b806330015118116101a65780633ba0b9a9116101755780633ba0b9a9146103e657806345c91439146104045780634b0bddd21461042257806370a082311461043e578063715018a61461046e5761021a565b8063300151181461034a578063313ce5671461037a578063366a111414610398578063371047cd146103b65761021a565b806318160ddd116101ed57806318160ddd146102a657806320f1c043146102c457806323b872dd146102ce57806324d7806c146102fe57806329f94fb81461032e5761021a565b8063068651511461021e57806306fdde031461023c578063095ea7b31461025a57806313d7281e1461028a575b5f80fd5b6102266106aa565b60405161023391906128e9565b60405180910390f35b6102446106b0565b6040516102519190612972565b60405180910390f35b610274600480360381019061026f9190612a1a565b610740565b6040516102819190612a72565b60405180910390f35b6102a4600480360381019061029f9190612a8b565b610762565b005b6102ae6107ad565b6040516102bb91906128e9565b60405180910390f35b6102cc6107b6565b005b6102e860048036038101906102e39190612ab6565b61092a565b6040516102f59190612a72565b60405180910390f35b61031860048036038101906103139190612a8b565b610958565b6040516103259190612a72565b60405180910390f35b61034860048036038101906103439190612b06565b610975565b005b610364600480360381019061035f9190612a8b565b610c17565b60405161037191906128e9565b60405180910390f35b610382610c2c565b60405161038f9190612b4c565b60405180910390f35b6103a0610c34565b6040516103ad91906128e9565b60405180910390f35b6103d060048036038101906103cb9190612a8b565b610c3a565b6040516103dd91906128e9565b60405180910390f35b6103ee610c4f565b6040516103fb91906128e9565b60405180910390f35b61040c610c55565b60405161041991906128e9565b60405180910390f35b61043c60048036038101906104379190612b8f565b610c5b565b005b61045860048036038101906104539190612a8b565b610cbb565b60405161046591906128e9565b60405180910390f35b610476610d00565b005b610480610d13565b60405161048d91906128e9565b60405180910390f35b61049e610d19565b6040516104ab91906128e9565b60405180910390f35b6104bc610d1f565b6040516104c99190612bdc565b60405180910390f35b6104da610d44565b6040516104e79190612bdc565b60405180910390f35b6104f8610d6c565b6040516105059190612972565b60405180910390f35b610516610dfc565b6040516105239190612bdc565b60405180910390f35b610534610e21565b005b61053e610f7f565b60405161054b9190612c50565b60405180910390f35b61056e60048036038101906105699190612a1a565b610fa4565b60405161057b9190612a72565b60405180910390f35b61058c611107565b6040516105999190612c89565b60405180910390f35b6105bc60048036038101906105b79190612b06565b61112c565b005b6105d860048036038101906105d39190612ca2565b611426565b005b6105f460048036038101906105ef9190612b06565b6119a6565b005b610610600480360381019061060b9190612a8b565b611a77565b60405161061d91906128e9565b60405180910390f35b610640600480360381019061063b9190612b06565b611a8c565b005b61065c60048036038101906106579190612b06565b611cf5565b005b61067860048036038101906106739190612ce0565b611e08565b60405161068591906128e9565b60405180910390f35b6106a860048036038101906106a39190612a8b565b611e8a565b005b600d5481565b6060600380546106bf90612d4b565b80601f01602080910402602001604051908101604052809291908181526020018280546106eb90612d4b565b80156107365780601f1061070d57610100808354040283529160200191610736565b820191905f5260205f20905b81548152906001019060200180831161071957829003601f168201915b5050505050905090565b5f8061074a611f0e565b9050610757818585611f15565b600191505092915050565b61076a611f27565b8060135f6101000a81548173ffffffffffffffffffffffffffffffffffffffff021916908373ffffffffffffffffffffffffffffffffffffffff16021790555050565b5f600254905090565b5f60065f9054906101000a900473ffffffffffffffffffffffffffffffffffffffff1673ffffffffffffffffffffffffffffffffffffffff1663ddd1b67e6040518163ffffffff1660e01b8152600401602060405180830381865afa158015610821573d5f803e3d5ffd5b505050506040513d601f19601f820116820180604052508101906108459190612d8f565b90506008548111156109275760065f9054906101000a900473ffffffffffffffffffffffffffffffffffffffff1673ffffffffffffffffffffffffffffffffffffffff166327ebec606040518163ffffffff1660e01b81526004016020604051808303815f875af11580156108bc573d5f803e3d5ffd5b505050506040513d601f19601f820116820180604052508101906108e09190612dce565b60075f6101000a81548173ffffffffffffffffffffffffffffffffffffffff021916908373ffffffffffffffffffffffffffffffffffffffff160217905550806008819055505b50565b5f80610934611f0e565b9050610941858285611fae565b61094c858585612041565b60019150509392505050565b6012602052805f5260405f205f915054906101000a900460ff1681565b60135f9054906101000a900473ffffffffffffffffffffffffffffffffffffffff1673ffffffffffffffffffffffffffffffffffffffff163373ffffffffffffffffffffffffffffffffffffffff1614610a04576040517f08c379a00000000000000000000000000000000000000000000000000000000081526004016109fb90612e43565b60405180910390fd5b5f8111610a46576040517f08c379a0000000000000000000000000000000000000000000000000000000008152600401610a3d90612eab565b60405180910390fd5b60095f9054906101000a900473ffffffffffffffffffffffffffffffffffffffff1673ffffffffffffffffffffffffffffffffffffffff166323b872dd3330846040518463ffffffff1660e01b8152600401610aa493929190612ec9565b6020604051808303815f875af1158015610ac0573d5f803e3d5ffd5b505050506040513d601f19601f82011682018060405250810190610ae49190612f12565b610b23576040517f08c379a0000000000000000000000000000000000000000000000000000000008152600401610b1a90612f87565b60405180910390fd5b80600d5f828254610b349190612fd2565b9250508190555060075f9054906101000a900473ffffffffffffffffffffffffffffffffffffffff1673ffffffffffffffffffffffffffffffffffffffff1663ab0ee682335f846040518463ffffffff1660e01b8152600401610b999392919061304f565b5f604051808303815f87803b158015610bb0575f80fd5b505af1158015610bc2573d5f803e3d5ffd5b505050503373ffffffffffffffffffffffffffffffffffffffff167fb4a46c1bd84f6ead56b19bd0d3788d827200b4d73024081f1c083f904f68f21c82604051610c0c91906128e9565b60405180910390a250565b600f602052805f5260405f205f915090505481565b5f6012905090565b600b5481565b6011602052805f5260405f205f915090505481565b600a5481565b60085481565b610c63611f27565b8060125f8473ffffffffffffffffffffffffffffffffffffffff1673ffffffffffffffffffffffffffffffffffffffff1681526020019081526020015f205f6101000a81548160ff0219169083151502179055505050565b5f805f8373ffffffffffffffffffffffffffffffffffffffff1673ffffffffffffffffffffffffffffffffffffffff1681526020019081526020015f20549050919050565b610d08611f27565b610d115f612131565b565b600e5481565b600c5481565b60075f9054906101000a900473ffffffffffffffffffffffffffffffffffffffff1681565b5f60055f9054906101000a900473ffffffffffffffffffffffffffffffffffffffff16905090565b606060048054610d7b90612d4b565b80601f0160208091040260200160405190810160405280929190818152602001828054610da790612d4b565b8015610df25780601f10610dc957610100808354040283529160200191610df2565b820191905f5260205f20905b815481529060010190602001808311610dd557829003601f168201915b5050505050905090565b60135f9054906101000a900473ffffffffffffffffffffffffffffffffffffffff1681565b610e2a336121f4565b60075f9054906101000a900473ffffffffffffffffffffffffffffffffffffffff1673ffffffffffffffffffffffffffffffffffffffff1663ab0ee682335f600f5f3373ffffffffffffffffffffffffffffffffffffffff1673ffffffffffffffffffffffffffffffffffffffff1681526020019081526020015f20546040518463ffffffff1660e01b8152600401610ec5939291906130e1565b5f604051808303815f87803b158015610edc575f80fd5b505af1158015610eee573d5f803e3d5ffd5b505050503373ffffffffffffffffffffffffffffffffffffffff167fb0bd88cdae83f74f918eb6bf26d99dcb3c1530530f339233b029e3b6a00ac50b600f5f3373ffffffffffffffffffffffffffffffffffffffff1673ffffffffffffffffffffffffffffffffffffffff1681526020019081526020015f2054604051610f7591906128e9565b60405180910390a2565b60065f9054906101000a900473ffffffffffffffffffffffffffffffffffffffff1681565b5f81610faf33610cbb565b1015610ff0576040517f08c379a0000000000000000000000000000000000000000000000000000000008152600401610fe790613173565b60405180910390fd5b610ff9336121f4565b611002836121f4565b61100d338484612041565b60075f9054906101000a900473ffffffffffffffffffffffffffffffffffffffff1673ffffffffffffffffffffffffffffffffffffffff1663ab0ee6823385856040518463ffffffff1660e01b815260040161106b939291906131db565b5f604051808303815f87803b158015611082575f80fd5b505af1158015611094573d5f803e3d5ffd5b505050508273ffffffffffffffffffffffffffffffffffffffff163373ffffffffffffffffffffffffffffffffffffffff167f6bca8fa57973baecf480f0f784a6c6549e10cd7673db79b691a8051864dd29c9846040516110f591906128e9565b60405180910390a36001905092915050565b60095f9054906101000a900473ffffffffffffffffffffffffffffffffffffffff1681565b5f60105f3373ffffffffffffffffffffffffffffffffffffffff1673ffffffffffffffffffffffffffffffffffffffff1681526020019081526020015f2054600f5f3373ffffffffffffffffffffffffffffffffffffffff1673ffffffffffffffffffffffffffffffffffffffff1681526020019081526020015f20546111b39190613223565b90505f821180156111c45750808211155b611203576040517f08c379a00000000000000000000000000000000000000000000000000000000081526004016111fa906132a0565b60405180910390fd5b8160105f3373ffffffffffffffffffffffffffffffffffffffff1673ffffffffffffffffffffffffffffffffffffffff1681526020019081526020015f205f82825461124f9190612fd2565b9250508190555081600e5f8282546112679190612fd2565b9250508190555060095f9054906101000a900473ffffffffffffffffffffffffffffffffffffffff1673ffffffffffffffffffffffffffffffffffffffff1663a9059cbb33846040518363ffffffff1660e01b81526004016112ca9291906132be565b6020604051808303815f875af11580156112e6573d5f803e3d5ffd5b505050506040513d601f19601f8201168201806040525081019061130a9190612f12565b611349576040517f08c379a000000000000000000000000000000000000000000000000000000000815260040161134090612f87565b60405180910390fd5b60075f9054906101000a900473ffffffffffffffffffffffffffffffffffffffff1673ffffffffffffffffffffffffffffffffffffffff1663ab0ee682335f856040518463ffffffff1660e01b81526004016113a79392919061332f565b5f604051808303815f87803b1580156113be575f80fd5b505af11580156113d0573d5f803e3d5ffd5b505050503373ffffffffffffffffffffffffffffffffffffffff167fb0bd88cdae83f74f918eb6bf26d99dcb3c1530530f339233b029e3b6a00ac50b8360405161141a91906128e9565b60405180910390a25050565b5f8211611468576040517f08c379a000000000000000000000000000000000000000000000000000000000815260040161145f906133c1565b60405180910390fd5b80600a54146114ac576040517f08c379a00000000000000000000000000000000000000000000000000000000081526004016114a390613429565b60405180910390fd5b6114b5336121f4565b5f6305f5e100600a54846114c99190613447565b6114d391906134b5565b905080600b54101561151a576040517f08c379a00000000000000000000000000000000000000000000000000000000081526004016115119061352f565b60405180910390fd5b8061152b611526610d44565b610cbb565b101561156c576040517f08c379a000000000000000000000000000000000000000000000000000000000815260040161156390613597565b60405180910390fd5b5f60095f9054906101000a900473ffffffffffffffffffffffffffffffffffffffff1673ffffffffffffffffffffffffffffffffffffffff166370a08231306040518263ffffffff1660e01b81526004016115c79190612bdc565b602060405180830381865afa1580156115e2573d5f803e3d5ffd5b505050506040513d601f19601f820116820180604052508101906116069190612d8f565b905060095f9054906101000a900473ffffffffffffffffffffffffffffffffffffffff1673ffffffffffffffffffffffffffffffffffffffff166323b872dd3330876040518463ffffffff1660e01b815260040161166693929190612ec9565b6020604051808303815f875af1158015611682573d5f803e3d5ffd5b505050506040513d601f19601f820116820180604052508101906116a69190612f12565b6116e5576040517f08c379a00000000000000000000000000000000000000000000000000000000081526004016116dc90612f87565b60405180910390fd5b5f8160095f9054906101000a900473ffffffffffffffffffffffffffffffffffffffff1673ffffffffffffffffffffffffffffffffffffffff166370a08231306040518263ffffffff1660e01b81526004016117419190612bdc565b602060405180830381865afa15801561175c573d5f803e3d5ffd5b505050506040513d601f19601f820116820180604052508101906117809190612d8f565b61178a9190613223565b9050620f42408561179b9190613223565b81101580156117b85750620f4240856117b49190612fd2565b8111155b6117f7576040517f08c379a00000000000000000000000000000000000000000000000000000000081526004016117ee906135ff565b60405180910390fd5b84600c5f8282546118089190612fd2565b9250508190555082600b5f8282546118209190613223565b92505081905550611839611832610d44565b3385612041565b60075f9054906101000a900473ffffffffffffffffffffffffffffffffffffffff1673ffffffffffffffffffffffffffffffffffffffff1663ab0ee6823330866040518463ffffffff1660e01b815260040161189793929190613667565b5f604051808303815f87803b1580156118ae575f80fd5b505af11580156118c0573d5f803e3d5ffd5b5050505060075f9054906101000a900473ffffffffffffffffffffffffffffffffffffffff1673ffffffffffffffffffffffffffffffffffffffff1663ab0ee6823033886040518463ffffffff1660e01b8152600401611922939291906136f9565b5f604051808303815f87803b158015611939575f80fd5b505af115801561194b573d5f803e3d5ffd5b505050503373ffffffffffffffffffffffffffffffffffffffff167fc0bcdc28f6619d8ba6313614295a1f7b0477a1ad3f83ec463254630f3c5a306f8487604051611997929190613741565b60405180910390a25050505050565b6001151560125f3373ffffffffffffffffffffffffffffffffffffffff1673ffffffffffffffffffffffffffffffffffffffff1681526020019081526020015f205f9054906101000a900460ff16151514611a36576040517f08c379a0000000000000000000000000000000000000000000000000000000008152600401611a2d906137b2565b60405180910390fd5b80600b819055507fa1f96f7fa140217bc5d0a96ba383bef3818737e35a1f4017843a8bdd7862b86f81604051611a6c91906128e9565b60405180910390a150565b6010602052805f5260405f205f915090505481565b6001151560125f3373ffffffffffffffffffffffffffffffffffffffff1673ffffffffffffffffffffffffffffffffffffffff1681526020019081526020015f205f9054906101000a900460ff16151514611b1c576040517f08c379a0000000000000000000000000000000000000000000000000000000008152600401611b13906137b2565b60405180910390fd5b5f8111611b5e576040517f08c379a0000000000000000000000000000000000000000000000000000000008152600401611b5590612eab565b60405180910390fd5b600c54811115611ba3576040517f08c379a0000000000000000000000000000000000000000000000000000000008152600401611b9a9061381a565b60405180910390fd5b80600c5f828254611bb49190613223565b9250508190555060095f9054906101000a900473ffffffffffffffffffffffffffffffffffffffff1673ffffffffffffffffffffffffffffffffffffffff1663a9059cbb611c00610d44565b836040518363ffffffff1660e01b8152600401611c1e9291906132be565b6020604051808303815f875af1158015611c3a573d5f803e3d5ffd5b505050506040513d601f19601f82011682018060405250810190611c5e9190612f12565b611c9d576040517f08c379a0000000000000000000000000000000000000000000000000000000008152600401611c9490612f87565b60405180910390fd5b611ca5610d44565b73ffffffffffffffffffffffffffffffffffffffff167ff8447aa22b3477c5230344f1eaacdb857516c66017e96d5f556345cdd1aca11182604051611cea91906128e9565b60405180910390a250565b6001151560125f3373ffffffffffffffffffffffffffffffffffffffff1673ffffffffffffffffffffffffffffffffffffffff1681526020019081526020015f205f9054906101000a900460ff16151514611d85576040517f08c379a0000000000000000000000000000000000000000000000000000000008152600401611d7c906137b2565b60405180910390fd5b5f8111611dc7576040517f08c379a0000000000000000000000000000000000000000000000000000000008152600401611dbe90613882565b60405180910390fd5b80600a819055507f388f446e9526fe5c9af20a5919b342370c8a7c0cb05245afe1e545658fa3cdba81604051611dfd91906128e9565b60405180910390a150565b5f60015f8473ffffffffffffffffffffffffffffffffffffffff1673ffffffffffffffffffffffffffffffffffffffff1681526020019081526020015f205f8373ffffffffffffffffffffffffffffffffffffffff1673ffffffffffffffffffffffffffffffffffffffff1681526020019081526020015f2054905092915050565b611e92611f27565b5f73ffffffffffffffffffffffffffffffffffffffff168173ffffffffffffffffffffffffffffffffffffffff1603611f02575f6040517f1e4fbdf7000000000000000000000000000000000000000000000000000000008152600401611ef99190612bdc565b60405180910390fd5b611f0b81612131565b50565b5f33905090565b611f228383836001612427565b505050565b611f2f611f0e565b73ffffffffffffffffffffffffffffffffffffffff16611f4d610d44565b73ffffffffffffffffffffffffffffffffffffffff1614611fac57611f70611f0e565b6040517f118cdaa7000000000000000000000000000000000000000000000000000000008152600401611fa39190612bdc565b60405180910390fd5b565b5f611fb98484611e08565b90507fffffffffffffffffffffffffffffffffffffffffffffffffffffffffffffffff81101561203b578181101561202c578281836040517ffb8f41b2000000000000000000000000000000000000000000000000000000008152600401612023939291906138a0565b60405180910390fd5b61203a84848484035f612427565b5b50505050565b5f73ffffffffffffffffffffffffffffffffffffffff168373ffffffffffffffffffffffffffffffffffffffff16036120b1575f6040517f96c6fd1e0000000000000000000000000000000000000000000000000000000081526004016120a89190612bdc565b60405180910390fd5b5f73ffffffffffffffffffffffffffffffffffffffff168273ffffffffffffffffffffffffffffffffffffffff1603612121575f6040517fec442f050000000000000000000000000000000000000000000000000000000081526004016121189190612bdc565b60405180910390fd5b61212c8383836125f6565b505050565b5f60055f9054906101000a900473ffffffffffffffffffffffffffffffffffffffff1690508160055f6101000a81548173ffffffffffffffffffffffffffffffffffffffff021916908373ffffffffffffffffffffffffffffffffffffffff1602179055508173ffffffffffffffffffffffffffffffffffffffff168173ffffffffffffffffffffffffffffffffffffffff167f8be0079c531659141344cd1fd0a4f28419497f9722a3daafe3b4186f6b6457e060405160405180910390a35050565b5f6121fe82610cbb565b90505f6122096107ad565b90505f82148061221857505f81145b15612224575050612424565b5f60115f8573ffffffffffffffffffffffffffffffffffffffff1673ffffffffffffffffffffffffffffffffffffffff1681526020019081526020015f2054600d546122709190613223565b90505f8284836122809190613447565b61228a91906134b5565b90506122cb6040518060400160405280600a81526020017f6e657750726f6669743a000000000000000000000000000000000000000000008152508361280f565b61230a6040518060400160405280600a81526020017f7573657253746f636b3a000000000000000000000000000000000000000000008152508561280f565b6123496040518060400160405280600b81526020017f746f74616c53746f636b3a0000000000000000000000000000000000000000008152508461280f565b6123886040518060400160405280600b81526020017f7573657250726f6669743a0000000000000000000000000000000000000000008152508261280f565b80600f5f8773ffffffffffffffffffffffffffffffffffffffff1673ffffffffffffffffffffffffffffffffffffffff1681526020019081526020015f205f8282546123d49190612fd2565b92505081905550600d5460115f8773ffffffffffffffffffffffffffffffffffffffff1673ffffffffffffffffffffffffffffffffffffffff1681526020019081526020015f2081905550505050505b50565b5f73ffffffffffffffffffffffffffffffffffffffff168473ffffffffffffffffffffffffffffffffffffffff1603612497575f6040517fe602df0500000000000000000000000000000000000000000000000000000000815260040161248e9190612bdc565b60405180910390fd5b5f73ffffffffffffffffffffffffffffffffffffffff168373ffffffffffffffffffffffffffffffffffffffff1603612507575f6040517f94280d620000000000000000000000000000000000000000000000000000000081526004016124fe9190612bdc565b60405180910390fd5b8160015f8673ffffffffffffffffffffffffffffffffffffffff1673ffffffffffffffffffffffffffffffffffffffff1681526020019081526020015f205f8573ffffffffffffffffffffffffffffffffffffffff1673ffffffffffffffffffffffffffffffffffffffff1681526020019081526020015f208190555080156125f0578273ffffffffffffffffffffffffffffffffffffffff168473ffffffffffffffffffffffffffffffffffffffff167f8c5be1e5ebec7d5bd14f71427d1e84f3dd0314c0f7b2291e5b200ac8c7c3b925846040516125e791906128e9565b60405180910390a35b50505050565b5f73ffffffffffffffffffffffffffffffffffffffff168373ffffffffffffffffffffffffffffffffffffffff1603612646578060025f82825461263a9190612fd2565b92505081905550612714565b5f805f8573ffffffffffffffffffffffffffffffffffffffff1673ffffffffffffffffffffffffffffffffffffffff1681526020019081526020015f20549050818110156126cf578381836040517fe450d38c0000000000000000000000000000000000000000000000000000000081526004016126c6939291906138a0565b60405180910390fd5b8181035f808673ffffffffffffffffffffffffffffffffffffffff1673ffffffffffffffffffffffffffffffffffffffff1681526020019081526020015f2081905550505b5f73ffffffffffffffffffffffffffffffffffffffff168273ffffffffffffffffffffffffffffffffffffffff160361275b578060025f82825403925050819055506127a5565b805f808473ffffffffffffffffffffffffffffffffffffffff1673ffffffffffffffffffffffffffffffffffffffff1681526020019081526020015f205f82825401925050819055505b8173ffffffffffffffffffffffffffffffffffffffff168373ffffffffffffffffffffffffffffffffffffffff167fddf252ad1be2c89b69c2b068fc378daa952ba7f163c4a11628f55a4df523b3ef8360405161280291906128e9565b60405180910390a3505050565b6128a782826040516024016128259291906138d5565b6040516020818303038152906040527f9710a9d0000000000000000000000000000000000000000000000000000000007bffffffffffffffffffffffffffffffffffffffffffffffffffffffff19166020820180517bffffffffffffffffffffffffffffffffffffffffffffffffffffffff83818316178352505050506128ab565b5050565b5f815190505f6a636f6e736f6c652e6c6f679050602083015f808483855afa5050505050565b5f819050919050565b6128e3816128d1565b82525050565b5f6020820190506128fc5f8301846128da565b92915050565b5f81519050919050565b5f82825260208201905092915050565b8281835e5f83830152505050565b5f601f19601f8301169050919050565b5f61294482612902565b61294e818561290c565b935061295e81856020860161291c565b6129678161292a565b840191505092915050565b5f6020820190508181035f83015261298a818461293a565b905092915050565b5f80fd5b5f73ffffffffffffffffffffffffffffffffffffffff82169050919050565b5f6129bf82612996565b9050919050565b6129cf816129b5565b81146129d9575f80fd5b50565b5f813590506129ea816129c6565b92915050565b6129f9816128d1565b8114612a03575f80fd5b50565b5f81359050612a14816129f0565b92915050565b5f8060408385031215612a3057612a2f612992565b5b5f612a3d858286016129dc565b9250506020612a4e85828601612a06565b9150509250929050565b5f8115159050919050565b612a6c81612a58565b82525050565b5f602082019050612a855f830184612a63565b92915050565b5f60208284031215612aa057612a9f612992565b5b5f612aad848285016129dc565b91505092915050565b5f805f60608486031215612acd57612acc612992565b5b5f612ada868287016129dc565b9350506020612aeb868287016129dc565b9250506040612afc86828701612a06565b9150509250925092565b5f60208284031215612b1b57612b1a612992565b5b5f612b2884828501612a06565b91505092915050565b5f60ff82169050919050565b612b4681612b31565b82525050565b5f602082019050612b5f5f830184612b3d565b92915050565b612b6e81612a58565b8114612b78575f80fd5b50565b5f81359050612b8981612b65565b92915050565b5f8060408385031215612ba557612ba4612992565b5b5f612bb2858286016129dc565b9250506020612bc385828601612b7b565b9150509250929050565b612bd6816129b5565b82525050565b5f602082019050612bef5f830184612bcd565b92915050565b5f819050919050565b5f612c18612c13612c0e84612996565b612bf5565b612996565b9050919050565b5f612c2982612bfe565b9050919050565b5f612c3a82612c1f565b9050919050565b612c4a81612c30565b82525050565b5f602082019050612c635f830184612c41565b92915050565b5f612c7382612c1f565b9050919050565b612c8381612c69565b82525050565b5f602082019050612c9c5f830184612c7a565b92915050565b5f8060408385031215612cb857612cb7612992565b5b5f612cc585828601612a06565b9250506020612cd685828601612a06565b9150509250929050565b5f8060408385031215612cf657612cf5612992565b5b5f612d03858286016129dc565b9250506020612d14858286016129dc565b9150509250929050565b7f4e487b71000000000000000000000000000000000000000000000000000000005f52602260045260245ffd5b5f6002820490506001821680612d6257607f821691505b602082108103612d7557612d74612d1e565b5b50919050565b5f81519050612d89816129f0565b92915050565b5f60208284031215612da457612da3612992565b5b5f612db184828501612d7b565b91505092915050565b5f81519050612dc8816129c6565b92915050565b5f60208284031215612de357612de2612992565b5b5f612df084828501612dba565b91505092915050565b7f4e6f7420617574686f72697a65640000000000000000000000000000000000005f82015250565b5f612e2d600e8361290c565b9150612e3882612df9565b602082019050919050565b5f6020820190508181035f830152612e5a81612e21565b9050919050565b7f416d6f756e74206d7573742062652067726561746572207468616e20300000005f82015250565b5f612e95601d8361290c565b9150612ea082612e61565b602082019050919050565b5f6020820190508181035f830152612ec281612e89565b9050919050565b5f606082019050612edc5f830186612bcd565b612ee96020830185612bcd565b612ef660408301846128da565b949350505050565b5f81519050612f0c81612b65565b92915050565b5f60208284031215612f2757612f26612992565b5b5f612f3484828501612efe565b91505092915050565b7f55534454207472616e73666572206661696c65640000000000000000000000005f82015250565b5f612f7160148361290c565b9150612f7c82612f3d565b602082019050919050565b5f6020820190508181035f830152612f9e81612f65565b9050919050565b7f4e487b71000000000000000000000000000000000000000000000000000000005f52601160045260245ffd5b5f612fdc826128d1565b9150612fe7836128d1565b9250828201905080821115612fff57612ffe612fa5565b5b92915050565b7f52455741524400000000000000000000000000000000000000000000000000005f82015250565b5f61303960068361290c565b915061304482613005565b602082019050919050565b5f6080820190508181035f8301526130668161302d565b90506130756020830186612bcd565b6130826040830185612bcd565b61308f60608301846128da565b949350505050565b7f57495448445241570000000000000000000000000000000000000000000000005f82015250565b5f6130cb60088361290c565b91506130d682613097565b602082019050919050565b5f6080820190508181035f8301526130f8816130bf565b90506131076020830186612bcd565b6131146040830185612bcd565b61312160608301846128da565b949350505050565b7f4e6f7420656e6f7567682062616c616e636500000000000000000000000000005f82015250565b5f61315d60128361290c565b915061316882613129565b602082019050919050565b5f6020820190508181035f83015261318a81613151565b9050919050565b7f5452414e534645520000000000000000000000000000000000000000000000005f82015250565b5f6131c560088361290c565b91506131d082613191565b602082019050919050565b5f6080820190508181035f8301526131f2816131b9565b90506132016020830186612bcd565b61320e6040830185612bcd565b61321b60608301846128da565b949350505050565b5f61322d826128d1565b9150613238836128d1565b92508282039050818111156132505761324f612fa5565b5b92915050565b7f496e73756666696369656e7420555344542062616c616e6365000000000000005f82015250565b5f61328a60198361290c565b915061329582613256565b602082019050919050565b5f6020820190508181035f8301526132b78161327e565b9050919050565b5f6040820190506132d15f830185612bcd565b6132de60208301846128da565b9392505050565b7f434c41494d0000000000000000000000000000000000000000000000000000005f82015250565b5f61331960058361290c565b9150613324826132e5565b602082019050919050565b5f6080820190508181035f8301526133468161330d565b90506133556020830186612bcd565b6133626040830185612bcd565b61336f60608301846128da565b949350505050565b7f4d7573742073656e64205553445420746f206275792073746f636b00000000005f82015250565b5f6133ab601b8361290c565b91506133b682613377565b602082019050919050565b5f6020820190508181035f8301526133d88161339f565b9050919050565b7f45786368616e67652072617465206368616e67656400000000000000000000005f82015250565b5f61341360158361290c565b915061341e826133df565b602082019050919050565b5f6020820190508181035f83015261344081613407565b9050919050565b5f613451826128d1565b915061345c836128d1565b925082820261346a816128d1565b9150828204841483151761348157613480612fa5565b5b5092915050565b7f4e487b71000000000000000000000000000000000000000000000000000000005f52601260045260245ffd5b5f6134bf826128d1565b91506134ca836128d1565b9250826134da576134d9613488565b5b828204905092915050565b7f4e6f7420656e6f7567682073746f636b20696e20746869732073616c650000005f82015250565b5f613519601d8361290c565b9150613524826134e5565b602082019050919050565b5f6020820190508181035f8301526135468161350d565b9050919050565b7f4e6f7420656e6f7567682073746f636b20617661696c61626c650000000000005f82015250565b5f613581601a8361290c565b915061358c8261354d565b602082019050919050565b5f6020820190508181035f8301526135ae81613575565b9050919050565b7f496e636f72726563742055534454207472616e7366657220616d6f756e7400005f82015250565b5f6135e9601e8361290c565b91506135f4826135b5565b602082019050919050565b5f6020820190508181035f830152613616816135dd565b9050919050565b7f42555900000000000000000000000000000000000000000000000000000000005f82015250565b5f61365160038361290c565b915061365c8261361d565b602082019050919050565b5f6080820190508181035f83015261367e81613645565b905061368d6020830186612bcd565b61369a6040830185612bcd565b6136a760608301846128da565b949350505050565b7f53454c4c000000000000000000000000000000000000000000000000000000005f82015250565b5f6136e360048361290c565b91506136ee826136af565b602082019050919050565b5f6080820190508181035f830152613710816136d7565b905061371f6020830186612bcd565b61372c6040830185612bcd565b61373960608301846128da565b949350505050565b5f6040820190506137545f8301856128da565b61376160208301846128da565b9392505050565b7f6f6e6c792041646d696e000000000000000000000000000000000000000000005f82015250565b5f61379c600a8361290c565b91506137a782613768565b602082019050919050565b5f6020820190508181035f8301526137c981613790565b9050919050565b7f4e6f7420656e6f75676820555344542066726f6d2070757263686173657300005f82015250565b5f613804601e8361290c565b915061380f826137d0565b602082019050919050565b5f6020820190508181035f830152613831816137f8565b9050919050565b7f52617465206d7573742062652067726561746572207468616e203000000000005f82015250565b5f61386c601b8361290c565b915061387782613838565b602082019050919050565b5f6020820190508181035f83015261389981613860565b9050919050565b5f6060820190506138b35f830186612bcd565b6138c060208301856128da565b6138cd60408301846128da565b949350505050565b5f6040820190508181035f8301526138ed818561293a565b90506138fc60208301846128da565b939250505056fea26469706673582212201bc786cf3ff1b55b876cf9d47d59c3a68a74308ec29e14e14d25738d2a14850264736f6c634300081a0033",
			"opcodes": "PUSH1 0x80 PUSH1 0x40 MSTORE CALLVALUE DUP1 ISZERO PUSH2 0xF JUMPI PUSH0 DUP1 REVERT JUMPDEST POP PUSH1 0x40 MLOAD PUSH2 0x48AD CODESIZE SUB DUP1 PUSH2 0x48AD DUP4 CODECOPY DUP2 DUP2 ADD PUSH1 0x40 MSTORE DUP2 ADD SWAP1 PUSH2 0x31 SWAP2 SWAP1 PUSH2 0x8BE JUMP JUMPDEST CALLER DUP8 DUP8 DUP2 PUSH1 0x3 SWAP1 DUP2 PUSH2 0x43 SWAP2 SWAP1 PUSH2 0xB97 JUMP JUMPDEST POP DUP1 PUSH1 0x4 SWAP1 DUP2 PUSH2 0x53 SWAP2 SWAP1 PUSH2 0xB97 JUMP JUMPDEST POP POP POP PUSH0 PUSH20 0xFFFFFFFFFFFFFFFFFFFFFFFFFFFFFFFFFFFFFFFF AND DUP2 PUSH20 0xFFFFFFFFFFFFFFFFFFFFFFFFFFFFFFFFFFFFFFFF AND SUB PUSH2 0xC6 JUMPI PUSH0 PUSH1 0x40 MLOAD PUSH32 0x1E4FBDF700000000000000000000000000000000000000000000000000000000 DUP2 MSTORE PUSH1 0x4 ADD PUSH2 0xBD SWAP2 SWAP1 PUSH2 0xC75 JUMP JUMPDEST PUSH1 0x40 MLOAD DUP1 SWAP2 SUB SWAP1 REVERT JUMPDEST PUSH2 0xD5 DUP2 PUSH2 0x207 PUSH1 0x20 SHL PUSH1 0x20 SHR JUMP JUMPDEST POP PUSH2 0x10A CALLER PUSH2 0xE8 PUSH2 0x2CA PUSH1 0x20 SHL PUSH1 0x20 SHR JUMP JUMPDEST PUSH1 0xA PUSH2 0xF4 SWAP2 SWAP1 PUSH2 0xDF6 JUMP JUMPDEST DUP8 PUSH2 0xFF SWAP2 SWAP1 PUSH2 0xE40 JUMP JUMPDEST PUSH2 0x2D2 PUSH1 0x20 SHL PUSH1 0x20 SHR JUMP JUMPDEST DUP4 PUSH1 0xA DUP2 SWAP1 SSTORE POP DUP3 PUSH1 0xB DUP2 SWAP1 SSTORE POP DUP2 PUSH1 0x9 PUSH0 PUSH2 0x100 EXP DUP2 SLOAD DUP2 PUSH20 0xFFFFFFFFFFFFFFFFFFFFFFFFFFFFFFFFFFFFFFFF MUL NOT AND SWAP1 DUP4 PUSH20 0xFFFFFFFFFFFFFFFFFFFFFFFFFFFFFFFFFFFFFFFF AND MUL OR SWAP1 SSTORE POP DUP1 PUSH1 0x6 PUSH0 PUSH2 0x100 EXP DUP2 SLOAD DUP2 PUSH20 0xFFFFFFFFFFFFFFFFFFFFFFFFFFFFFFFFFFFFFFFF MUL NOT AND SWAP1 DUP4 PUSH20 0xFFFFFFFFFFFFFFFFFFFFFFFFFFFFFFFFFFFFFFFF AND MUL OR SWAP1 SSTORE POP PUSH2 0x1A6 PUSH2 0x357 PUSH1 0x20 SHL PUSH1 0x20 SHR JUMP JUMPDEST PUSH1 0x1 PUSH1 0x12 PUSH0 CALLER PUSH20 0xFFFFFFFFFFFFFFFFFFFFFFFFFFFFFFFFFFFFFFFF AND PUSH20 0xFFFFFFFFFFFFFFFFFFFFFFFFFFFFFFFFFFFFFFFF AND DUP2 MSTORE PUSH1 0x20 ADD SWAP1 DUP2 MSTORE PUSH1 0x20 ADD PUSH0 KECCAK256 PUSH0 PUSH2 0x100 EXP DUP2 SLOAD DUP2 PUSH1 0xFF MUL NOT AND SWAP1 DUP4 ISZERO ISZERO MUL OR SWAP1 SSTORE POP POP POP POP POP POP POP POP PUSH2 0xF67 JUMP JUMPDEST PUSH0 PUSH1 0x5 PUSH0 SWAP1 SLOAD SWAP1 PUSH2 0x100 EXP SWAP1 DIV PUSH20 0xFFFFFFFFFFFFFFFFFFFFFFFFFFFFFFFFFFFFFFFF AND SWAP1 POP DUP2 PUSH1 0x5 PUSH0 PUSH2 0x100 EXP DUP2 SLOAD DUP2 PUSH20 0xFFFFFFFFFFFFFFFFFFFFFFFFFFFFFFFFFFFFFFFF MUL NOT AND SWAP1 DUP4 PUSH20 0xFFFFFFFFFFFFFFFFFFFFFFFFFFFFFFFFFFFFFFFF AND MUL OR SWAP1 SSTORE POP DUP2 PUSH20 0xFFFFFFFFFFFFFFFFFFFFFFFFFFFFFFFFFFFFFFFF AND DUP2 PUSH20 0xFFFFFFFFFFFFFFFFFFFFFFFFFFFFFFFFFFFFFFFF AND PUSH32 0x8BE0079C531659141344CD1FD0A4F28419497F9722A3DAAFE3B4186F6B6457E0 PUSH1 0x40 MLOAD PUSH1 0x40 MLOAD DUP1 SWAP2 SUB SWAP1 LOG3 POP POP JUMP JUMPDEST PUSH0 PUSH1 0x12 SWAP1 POP SWAP1 JUMP JUMPDEST PUSH0 PUSH20 0xFFFFFFFFFFFFFFFFFFFFFFFFFFFFFFFFFFFFFFFF AND DUP3 PUSH20 0xFFFFFFFFFFFFFFFFFFFFFFFFFFFFFFFFFFFFFFFF AND SUB PUSH2 0x342 JUMPI PUSH0 PUSH1 0x40 MLOAD PUSH32 0xEC442F0500000000000000000000000000000000000000000000000000000000 DUP2 MSTORE PUSH1 0x4 ADD PUSH2 0x339 SWAP2 SWAP1 PUSH2 0xC75 JUMP JUMPDEST PUSH1 0x40 MLOAD DUP1 SWAP2 SUB SWAP1 REVERT JUMPDEST PUSH2 0x353 PUSH0 DUP4 DUP4 PUSH2 0x4CB PUSH1 0x20 SHL PUSH1 0x20 SHR JUMP JUMPDEST POP POP JUMP JUMPDEST PUSH0 PUSH1 0x6 PUSH0 SWAP1 SLOAD SWAP1 PUSH2 0x100 EXP SWAP1 DIV PUSH20 0xFFFFFFFFFFFFFFFFFFFFFFFFFFFFFFFFFFFFFFFF AND PUSH20 0xFFFFFFFFFFFFFFFFFFFFFFFFFFFFFFFFFFFFFFFF AND PUSH4 0xDDD1B67E PUSH1 0x40 MLOAD DUP2 PUSH4 0xFFFFFFFF AND PUSH1 0xE0 SHL DUP2 MSTORE PUSH1 0x4 ADD PUSH1 0x20 PUSH1 0x40 MLOAD DUP1 DUP4 SUB DUP2 DUP7 GAS STATICCALL ISZERO DUP1 ISZERO PUSH2 0x3C2 JUMPI RETURNDATASIZE PUSH0 DUP1 RETURNDATACOPY RETURNDATASIZE PUSH0 REVERT JUMPDEST POP POP POP POP PUSH1 0x40 MLOAD RETURNDATASIZE PUSH1 0x1F NOT PUSH1 0x1F DUP3 ADD AND DUP3 ADD DUP1 PUSH1 0x40 MSTORE POP DUP2 ADD SWAP1 PUSH2 0x3E6 SWAP2 SWAP1 PUSH2 0xE81 JUMP JUMPDEST SWAP1 POP PUSH1 0x8 SLOAD DUP2 GT ISZERO PUSH2 0x4C8 JUMPI PUSH1 0x6 PUSH0 SWAP1 SLOAD SWAP1 PUSH2 0x100 EXP SWAP1 DIV PUSH20 0xFFFFFFFFFFFFFFFFFFFFFFFFFFFFFFFFFFFFFFFF AND PUSH20 0xFFFFFFFFFFFFFFFFFFFFFFFFFFFFFFFFFFFFFFFF AND PUSH4 0x27EBEC60 PUSH1 0x40 MLOAD DUP2 PUSH4 0xFFFFFFFF AND PUSH1 0xE0 SHL DUP2 MSTORE PUSH1 0x4 ADD PUSH1 0x20 PUSH1 0x40 MLOAD DUP1 DUP4 SUB DUP2 PUSH0 DUP8 GAS CALL ISZERO DUP1 ISZERO PUSH2 0x45D JUMPI RETURNDATASIZE PUSH0 DUP1 RETURNDATACOPY RETURNDATASIZE PUSH0 REVERT JUMPDEST POP POP POP POP PUSH1 0x40 MLOAD RETURNDATASIZE PUSH1 0x1F NOT PUSH1 0x1F DUP3 ADD AND DUP3 ADD DUP1 PUSH1 0x40 MSTORE POP DUP2 ADD SWAP1 PUSH2 0x481 SWAP2 SWAP1 PUSH2 0xEAC JUMP JUMPDEST PUSH1 0x7 PUSH0 PUSH2 0x100 EXP DUP2 SLOAD DUP2 PUSH20 0xFFFFFFFFFFFFFFFFFFFFFFFFFFFFFFFFFFFFFFFF MUL NOT AND SWAP1 DUP4 PUSH20 0xFFFFFFFFFFFFFFFFFFFFFFFFFFFFFFFFFFFFFFFF AND MUL OR SWAP1 SSTORE POP DUP1 PUSH1 0x8 DUP2 SWAP1 SSTORE POP JUMPDEST POP JUMP JUMPDEST PUSH0 PUSH20 0xFFFFFFFFFFFFFFFFFFFFFFFFFFFFFFFFFFFFFFFF AND DUP4 PUSH20 0xFFFFFFFFFFFFFFFFFFFFFFFFFFFFFFFFFFFFFFFF AND SUB PUSH2 0x51B JUMPI DUP1 PUSH1 0x2 PUSH0 DUP3 DUP3 SLOAD PUSH2 0x50F SWAP2 SWAP1 PUSH2 0xED7 JUMP JUMPDEST SWAP3 POP POP DUP2 SWAP1 SSTORE POP PUSH2 0x5E9 JUMP JUMPDEST PUSH0 DUP1 PUSH0 DUP6 PUSH20 0xFFFFFFFFFFFFFFFFFFFFFFFFFFFFFFFFFFFFFFFF AND PUSH20 0xFFFFFFFFFFFFFFFFFFFFFFFFFFFFFFFFFFFFFFFF AND DUP2 MSTORE PUSH1 0x20 ADD SWAP1 DUP2 MSTORE PUSH1 0x20 ADD PUSH0 KECCAK256 SLOAD SWAP1 POP DUP2 DUP2 LT ISZERO PUSH2 0x5A4 JUMPI DUP4 DUP2 DUP4 PUSH1 0x40 MLOAD PUSH32 0xE450D38C00000000000000000000000000000000000000000000000000000000 DUP2 MSTORE PUSH1 0x4 ADD PUSH2 0x59B SWAP4 SWAP3 SWAP2 SWAP1 PUSH2 0xF19 JUMP JUMPDEST PUSH1 0x40 MLOAD DUP1 SWAP2 SUB SWAP1 REVERT JUMPDEST DUP2 DUP2 SUB PUSH0 DUP1 DUP7 PUSH20 0xFFFFFFFFFFFFFFFFFFFFFFFFFFFFFFFFFFFFFFFF AND PUSH20 0xFFFFFFFFFFFFFFFFFFFFFFFFFFFFFFFFFFFFFFFF AND DUP2 MSTORE PUSH1 0x20 ADD SWAP1 DUP2 MSTORE PUSH1 0x20 ADD PUSH0 KECCAK256 DUP2 SWAP1 SSTORE POP POP JUMPDEST PUSH0 PUSH20 0xFFFFFFFFFFFFFFFFFFFFFFFFFFFFFFFFFFFFFFFF AND DUP3 PUSH20 0xFFFFFFFFFFFFFFFFFFFFFFFFFFFFFFFFFFFFFFFF AND SUB PUSH2 0x630 JUMPI DUP1 PUSH1 0x2 PUSH0 DUP3 DUP3 SLOAD SUB SWAP3 POP POP DUP2 SWAP1 SSTORE POP PUSH2 0x67A JUMP JUMPDEST DUP1 PUSH0 DUP1 DUP5 PUSH20 0xFFFFFFFFFFFFFFFFFFFFFFFFFFFFFFFFFFFFFFFF AND PUSH20 0xFFFFFFFFFFFFFFFFFFFFFFFFFFFFFFFFFFFFFFFF AND DUP2 MSTORE PUSH1 0x20 ADD SWAP1 DUP2 MSTORE PUSH1 0x20 ADD PUSH0 KECCAK256 PUSH0 DUP3 DUP3 SLOAD ADD SWAP3 POP POP DUP2 SWAP1 SSTORE POP JUMPDEST DUP2 PUSH20 0xFFFFFFFFFFFFFFFFFFFFFFFFFFFFFFFFFFFFFFFF AND DUP4 PUSH20 0xFFFFFFFFFFFFFFFFFFFFFFFFFFFFFFFFFFFFFFFF AND PUSH32 0xDDF252AD1BE2C89B69C2B068FC378DAA952BA7F163C4A11628F55A4DF523B3EF DUP4 PUSH1 0x40 MLOAD PUSH2 0x6D7 SWAP2 SWAP1 PUSH2 0xF4E JUMP JUMPDEST PUSH1 0x40 MLOAD DUP1 SWAP2 SUB SWAP1 LOG3 POP POP POP JUMP JUMPDEST PUSH0 PUSH1 0x40 MLOAD SWAP1 POP SWAP1 JUMP JUMPDEST PUSH0 DUP1 REVERT JUMPDEST PUSH0 DUP1 REVERT JUMPDEST PUSH0 DUP1 REVERT JUMPDEST PUSH0 DUP1 REVERT JUMPDEST PUSH0 PUSH1 0x1F NOT PUSH1 0x1F DUP4 ADD AND SWAP1 POP SWAP2 SWAP1 POP JUMP JUMPDEST PUSH32 0x4E487B7100000000000000000000000000000000000000000000000000000000 PUSH0 MSTORE PUSH1 0x41 PUSH1 0x4 MSTORE PUSH1 0x24 PUSH0 REVERT JUMPDEST PUSH2 0x743 DUP3 PUSH2 0x6FD JUMP JUMPDEST DUP2 ADD DUP2 DUP2 LT PUSH8 0xFFFFFFFFFFFFFFFF DUP3 GT OR ISZERO PUSH2 0x762 JUMPI PUSH2 0x761 PUSH2 0x70D JUMP JUMPDEST JUMPDEST DUP1 PUSH1 0x40 MSTORE POP POP POP JUMP JUMPDEST PUSH0 PUSH2 0x774 PUSH2 0x6E4 JUMP JUMPDEST SWAP1 POP PUSH2 0x780 DUP3 DUP3 PUSH2 0x73A JUMP JUMPDEST SWAP2 SWAP1 POP JUMP JUMPDEST PUSH0 PUSH8 0xFFFFFFFFFFFFFFFF DUP3 GT ISZERO PUSH2 0x79F JUMPI PUSH2 0x79E PUSH2 0x70D JUMP JUMPDEST JUMPDEST PUSH2 0x7A8 DUP3 PUSH2 0x6FD JUMP JUMPDEST SWAP1 POP PUSH1 0x20 DUP2 ADD SWAP1 POP SWAP2 SWAP1 POP JUMP JUMPDEST DUP3 DUP2 DUP4 MCOPY PUSH0 DUP4 DUP4 ADD MSTORE POP POP POP JUMP JUMPDEST PUSH0 PUSH2 0x7D5 PUSH2 0x7D0 DUP5 PUSH2 0x785 JUMP JUMPDEST PUSH2 0x76B JUMP JUMPDEST SWAP1 POP DUP3 DUP2 MSTORE PUSH1 0x20 DUP2 ADD DUP5 DUP5 DUP5 ADD GT ISZERO PUSH2 0x7F1 JUMPI PUSH2 0x7F0 PUSH2 0x6F9 JUMP JUMPDEST JUMPDEST PUSH2 0x7FC DUP5 DUP3 DUP6 PUSH2 0x7B5 JUMP JUMPDEST POP SWAP4 SWAP3 POP POP POP JUMP JUMPDEST PUSH0 DUP3 PUSH1 0x1F DUP4 ADD SLT PUSH2 0x818 JUMPI PUSH2 0x817 PUSH2 0x6F5 JUMP JUMPDEST JUMPDEST DUP2 MLOAD PUSH2 0x828 DUP5 DUP3 PUSH1 0x20 DUP7 ADD PUSH2 0x7C3 JUMP JUMPDEST SWAP2 POP POP SWAP3 SWAP2 POP POP JUMP JUMPDEST PUSH0 DUP2 SWAP1 POP SWAP2 SWAP1 POP JUMP JUMPDEST PUSH2 0x843 DUP2 PUSH2 0x831 JUMP JUMPDEST DUP2 EQ PUSH2 0x84D JUMPI PUSH0 DUP1 REVERT JUMPDEST POP JUMP JUMPDEST PUSH0 DUP2 MLOAD SWAP1 POP PUSH2 0x85E DUP2 PUSH2 0x83A JUMP JUMPDEST SWAP3 SWAP2 POP POP JUMP JUMPDEST PUSH0 PUSH20 0xFFFFFFFFFFFFFFFFFFFFFFFFFFFFFFFFFFFFFFFF DUP3 AND SWAP1 POP SWAP2 SWAP1 POP JUMP JUMPDEST PUSH0 PUSH2 0x88D DUP3 PUSH2 0x864 JUMP JUMPDEST SWAP1 POP SWAP2 SWAP1 POP JUMP JUMPDEST PUSH2 0x89D DUP2 PUSH2 0x883 JUMP JUMPDEST DUP2 EQ PUSH2 0x8A7 JUMPI PUSH0 DUP1 REVERT JUMPDEST POP JUMP JUMPDEST PUSH0 DUP2 MLOAD SWAP1 POP PUSH2 0x8B8 DUP2 PUSH2 0x894 JUMP JUMPDEST SWAP3 SWAP2 POP POP JUMP JUMPDEST PUSH0 DUP1 PUSH0 DUP1 PUSH0 DUP1 PUSH0 PUSH1 0xE0 DUP9 DUP11 SUB SLT ISZERO PUSH2 0x8D9 JUMPI PUSH2 0x8D8 PUSH2 0x6ED JUMP JUMPDEST JUMPDEST PUSH0 DUP9 ADD MLOAD PUSH8 0xFFFFFFFFFFFFFFFF DUP2 GT ISZERO PUSH2 0x8F6 JUMPI PUSH2 0x8F5 PUSH2 0x6F1 JUMP JUMPDEST JUMPDEST PUSH2 0x902 DUP11 DUP3 DUP12 ADD PUSH2 0x804 JUMP JUMPDEST SWAP8 POP POP PUSH1 0x20 DUP9 ADD MLOAD PUSH8 0xFFFFFFFFFFFFFFFF DUP2 GT ISZERO PUSH2 0x923 JUMPI PUSH2 0x922 PUSH2 0x6F1 JUMP JUMPDEST JUMPDEST PUSH2 0x92F DUP11 DUP3 DUP12 ADD PUSH2 0x804 JUMP JUMPDEST SWAP7 POP POP PUSH1 0x40 PUSH2 0x940 DUP11 DUP3 DUP12 ADD PUSH2 0x850 JUMP JUMPDEST SWAP6 POP POP PUSH1 0x60 PUSH2 0x951 DUP11 DUP3 DUP12 ADD PUSH2 0x850 JUMP JUMPDEST SWAP5 POP POP PUSH1 0x80 PUSH2 0x962 DUP11 DUP3 DUP12 ADD PUSH2 0x850 JUMP JUMPDEST SWAP4 POP POP PUSH1 0xA0 PUSH2 0x973 DUP11 DUP3 DUP12 ADD PUSH2 0x8AA JUMP JUMPDEST SWAP3 POP POP PUSH1 0xC0 PUSH2 0x984 DUP11 DUP3 DUP12 ADD PUSH2 0x8AA JUMP JUMPDEST SWAP2 POP POP SWAP3 SWAP6 SWAP9 SWAP2 SWAP5 SWAP8 POP SWAP3 SWAP6 POP JUMP JUMPDEST PUSH0 DUP2 MLOAD SWAP1 POP SWAP2 SWAP1 POP JUMP JUMPDEST PUSH32 0x4E487B7100000000000000000000000000000000000000000000000000000000 PUSH0 MSTORE PUSH1 0x22 PUSH1 0x4 MSTORE PUSH1 0x24 PUSH0 REVERT JUMPDEST PUSH0 PUSH1 0x2 DUP3 DIV SWAP1 POP PUSH1 0x1 DUP3 AND DUP1 PUSH2 0x9E1 JUMPI PUSH1 0x7F DUP3 AND SWAP2 POP JUMPDEST PUSH1 0x20 DUP3 LT DUP2 SUB PUSH2 0x9F4 JUMPI PUSH2 0x9F3 PUSH2 0x99D JUMP JUMPDEST JUMPDEST POP SWAP2 SWAP1 POP JUMP JUMPDEST PUSH0 DUP2 SWAP1 POP DUP2 PUSH0 MSTORE PUSH1 0x20 PUSH0 KECCAK256 SWAP1 POP SWAP2 SWAP1 POP JUMP JUMPDEST PUSH0 PUSH1 0x20 PUSH1 0x1F DUP4 ADD DIV SWAP1 POP SWAP2 SWAP1 POP JUMP JUMPDEST PUSH0 DUP3 DUP3 SHL SWAP1 POP SWAP3 SWAP2 POP POP JUMP JUMPDEST PUSH0 PUSH1 0x8 DUP4 MUL PUSH2 0xA56 PUSH32 0xFFFFFFFFFFFFFFFFFFFFFFFFFFFFFFFFFFFFFFFFFFFFFFFFFFFFFFFFFFFFFFFF DUP3 PUSH2 0xA1B JUMP JUMPDEST PUSH2 0xA60 DUP7 DUP4 PUSH2 0xA1B JUMP JUMPDEST SWAP6 POP DUP1 NOT DUP5 AND SWAP4 POP DUP1 DUP7 AND DUP5 OR SWAP3 POP POP POP SWAP4 SWAP3 POP POP POP JUMP JUMPDEST PUSH0 DUP2 SWAP1 POP SWAP2 SWAP1 POP JUMP JUMPDEST PUSH0 PUSH2 0xA9B PUSH2 0xA96 PUSH2 0xA91 DUP5 PUSH2 0x831 JUMP JUMPDEST PUSH2 0xA78 JUMP JUMPDEST PUSH2 0x831 JUMP JUMPDEST SWAP1 POP SWAP2 SWAP1 POP JUMP JUMPDEST PUSH0 DUP2 SWAP1 POP SWAP2 SWAP1 POP JUMP JUMPDEST PUSH2 0xAB4 DUP4 PUSH2 0xA81 JUMP JUMPDEST PUSH2 0xAC8 PUSH2 0xAC0 DUP3 PUSH2 0xAA2 JUMP JUMPDEST DUP5 DUP5 SLOAD PUSH2 0xA27 JUMP JUMPDEST DUP3 SSTORE POP POP POP POP JUMP JUMPDEST PUSH0 SWAP1 JUMP JUMPDEST PUSH2 0xADC PUSH2 0xAD0 JUMP JUMPDEST PUSH2 0xAE7 DUP2 DUP5 DUP5 PUSH2 0xAAB JUMP JUMPDEST POP POP POP JUMP JUMPDEST JUMPDEST DUP2 DUP2 LT ISZERO PUSH2 0xB0A JUMPI PUSH2 0xAFF PUSH0 DUP3 PUSH2 0xAD4 JUMP JUMPDEST PUSH1 0x1 DUP2 ADD SWAP1 POP PUSH2 0xAED JUMP JUMPDEST POP POP JUMP JUMPDEST PUSH1 0x1F DUP3 GT ISZERO PUSH2 0xB4F JUMPI PUSH2 0xB20 DUP2 PUSH2 0x9FA JUMP JUMPDEST PUSH2 0xB29 DUP5 PUSH2 0xA0C JUMP JUMPDEST DUP2 ADD PUSH1 0x20 DUP6 LT ISZERO PUSH2 0xB38 JUMPI DUP2 SWAP1 POP JUMPDEST PUSH2 0xB4C PUSH2 0xB44 DUP6 PUSH2 0xA0C JUMP JUMPDEST DUP4 ADD DUP3 PUSH2 0xAEC JUMP JUMPDEST POP POP JUMPDEST POP POP POP JUMP JUMPDEST PUSH0 DUP3 DUP3 SHR SWAP1 POP SWAP3 SWAP2 POP POP JUMP JUMPDEST PUSH0 PUSH2 0xB6F PUSH0 NOT DUP5 PUSH1 0x8 MUL PUSH2 0xB54 JUMP JUMPDEST NOT DUP1 DUP4 AND SWAP2 POP POP SWAP3 SWAP2 POP POP JUMP JUMPDEST PUSH0 PUSH2 0xB87 DUP4 DUP4 PUSH2 0xB60 JUMP JUMPDEST SWAP2 POP DUP3 PUSH1 0x2 MUL DUP3 OR SWAP1 POP SWAP3 SWAP2 POP POP JUMP JUMPDEST PUSH2 0xBA0 DUP3 PUSH2 0x993 JUMP JUMPDEST PUSH8 0xFFFFFFFFFFFFFFFF DUP2 GT ISZERO PUSH2 0xBB9 JUMPI PUSH2 0xBB8 PUSH2 0x70D JUMP JUMPDEST JUMPDEST PUSH2 0xBC3 DUP3 SLOAD PUSH2 0x9CA JUMP JUMPDEST PUSH2 0xBCE DUP3 DUP3 DUP6 PUSH2 0xB0E JUMP JUMPDEST PUSH0 PUSH1 0x20 SWAP1 POP PUSH1 0x1F DUP4 GT PUSH1 0x1 DUP2 EQ PUSH2 0xBFF JUMPI PUSH0 DUP5 ISZERO PUSH2 0xBED JUMPI DUP3 DUP8 ADD MLOAD SWAP1 POP JUMPDEST PUSH2 0xBF7 DUP6 DUP3 PUSH2 0xB7C JUMP JUMPDEST DUP7 SSTORE POP PUSH2 0xC5E JUMP JUMPDEST PUSH1 0x1F NOT DUP5 AND PUSH2 0xC0D DUP7 PUSH2 0x9FA JUMP JUMPDEST PUSH0 JUMPDEST DUP3 DUP2 LT ISZERO PUSH2 0xC34 JUMPI DUP5 DUP10 ADD MLOAD DUP3 SSTORE PUSH1 0x1 DUP3 ADD SWAP2 POP PUSH1 0x20 DUP6 ADD SWAP5 POP PUSH1 0x20 DUP2 ADD SWAP1 POP PUSH2 0xC0F JUMP JUMPDEST DUP7 DUP4 LT ISZERO PUSH2 0xC51 JUMPI DUP5 DUP10 ADD MLOAD PUSH2 0xC4D PUSH1 0x1F DUP10 AND DUP3 PUSH2 0xB60 JUMP JUMPDEST DUP4 SSTORE POP JUMPDEST PUSH1 0x1 PUSH1 0x2 DUP9 MUL ADD DUP9 SSTORE POP POP POP JUMPDEST POP POP POP POP POP POP JUMP JUMPDEST PUSH2 0xC6F DUP2 PUSH2 0x883 JUMP JUMPDEST DUP3 MSTORE POP POP JUMP JUMPDEST PUSH0 PUSH1 0x20 DUP3 ADD SWAP1 POP PUSH2 0xC88 PUSH0 DUP4 ADD DUP5 PUSH2 0xC66 JUMP JUMPDEST SWAP3 SWAP2 POP POP JUMP JUMPDEST PUSH32 0x4E487B7100000000000000000000000000000000000000000000000000000000 PUSH0 MSTORE PUSH1 0x11 PUSH1 0x4 MSTORE PUSH1 0x24 PUSH0 REVERT JUMPDEST PUSH0 DUP2 PUSH1 0x1 SHR SWAP1 POP SWAP2 SWAP1 POP JUMP JUMPDEST PUSH0 DUP1 DUP3 SWAP2 POP DUP4 SWAP1 POP JUMPDEST PUSH1 0x1 DUP6 GT ISZERO PUSH2 0xD10 JUMPI DUP1 DUP7 DIV DUP2 GT ISZERO PUSH2 0xCEC JUMPI PUSH2 0xCEB PUSH2 0xC8E JUMP JUMPDEST JUMPDEST PUSH1 0x1 DUP6 AND ISZERO PUSH2 0xCFB JUMPI DUP1 DUP3 MUL SWAP2 POP JUMPDEST DUP1 DUP2 MUL SWAP1 POP PUSH2 0xD09 DUP6 PUSH2 0xCBB JUMP JUMPDEST SWAP5 POP PUSH2 0xCD0 JUMP JUMPDEST SWAP5 POP SWAP5 SWAP3 POP POP POP JUMP JUMPDEST PUSH0 DUP3 PUSH2 0xD28 JUMPI PUSH1 0x1 SWAP1 POP PUSH2 0xDE3 JUMP JUMPDEST DUP2 PUSH2 0xD35 JUMPI PUSH0 SWAP1 POP PUSH2 0xDE3 JUMP JUMPDEST DUP2 PUSH1 0x1 DUP2 EQ PUSH2 0xD4B JUMPI PUSH1 0x2 DUP2 EQ PUSH2 0xD55 JUMPI PUSH2 0xD84 JUMP JUMPDEST PUSH1 0x1 SWAP2 POP POP PUSH2 0xDE3 JUMP JUMPDEST PUSH1 0xFF DUP5 GT ISZERO PUSH2 0xD67 JUMPI PUSH2 0xD66 PUSH2 0xC8E JUMP JUMPDEST JUMPDEST DUP4 PUSH1 0x2 EXP SWAP2 POP DUP5 DUP3 GT ISZERO PUSH2 0xD7E JUMPI PUSH2 0xD7D PUSH2 0xC8E JUMP JUMPDEST JUMPDEST POP PUSH2 0xDE3 JUMP JUMPDEST POP PUSH1 0x20 DUP4 LT PUSH2 0x133 DUP4 LT AND PUSH1 0x4E DUP5 LT PUSH1 0xB DUP5 LT AND OR ISZERO PUSH2 0xDB9 JUMPI DUP3 DUP3 EXP SWAP1 POP DUP4 DUP2 GT ISZERO PUSH2 0xDB4 JUMPI PUSH2 0xDB3 PUSH2 0xC8E JUMP JUMPDEST JUMPDEST PUSH2 0xDE3 JUMP JUMPDEST PUSH2 0xDC6 DUP5 DUP5 DUP5 PUSH1 0x1 PUSH2 0xCC7 JUMP JUMPDEST SWAP3 POP SWAP1 POP DUP2 DUP5 DIV DUP2 GT ISZERO PUSH2 0xDDD JUMPI PUSH2 0xDDC PUSH2 0xC8E JUMP JUMPDEST JUMPDEST DUP2 DUP2 MUL SWAP1 POP JUMPDEST SWAP4 SWAP3 POP POP POP JUMP JUMPDEST PUSH0 PUSH1 0xFF DUP3 AND SWAP1 POP SWAP2 SWAP1 POP JUMP JUMPDEST PUSH0 PUSH2 0xE00 DUP3 PUSH2 0x831 JUMP JUMPDEST SWAP2 POP PUSH2 0xE0B DUP4 PUSH2 0xDEA JUMP JUMPDEST SWAP3 POP PUSH2 0xE38 PUSH32 0xFFFFFFFFFFFFFFFFFFFFFFFFFFFFFFFFFFFFFFFFFFFFFFFFFFFFFFFFFFFFFFFF DUP5 DUP5 PUSH2 0xD19 JUMP JUMPDEST SWAP1 POP SWAP3 SWAP2 POP POP JUMP JUMPDEST PUSH0 PUSH2 0xE4A DUP3 PUSH2 0x831 JUMP JUMPDEST SWAP2 POP PUSH2 0xE55 DUP4 PUSH2 0x831 JUMP JUMPDEST SWAP3 POP DUP3 DUP3 MUL PUSH2 0xE63 DUP2 PUSH2 0x831 JUMP JUMPDEST SWAP2 POP DUP3 DUP3 DIV DUP5 EQ DUP4 ISZERO OR PUSH2 0xE7A JUMPI PUSH2 0xE79 PUSH2 0xC8E JUMP JUMPDEST JUMPDEST POP SWAP3 SWAP2 POP POP JUMP JUMPDEST PUSH0 PUSH1 0x20 DUP3 DUP5 SUB SLT ISZERO PUSH2 0xE96 JUMPI PUSH2 0xE95 PUSH2 0x6ED JUMP JUMPDEST JUMPDEST PUSH0 PUSH2 0xEA3 DUP5 DUP3 DUP6 ADD PUSH2 0x850 JUMP JUMPDEST SWAP2 POP POP SWAP3 SWAP2 POP POP JUMP JUMPDEST PUSH0 PUSH1 0x20 DUP3 DUP5 SUB SLT ISZERO PUSH2 0xEC1 JUMPI PUSH2 0xEC0 PUSH2 0x6ED JUMP JUMPDEST JUMPDEST PUSH0 PUSH2 0xECE DUP5 DUP3 DUP6 ADD PUSH2 0x8AA JUMP JUMPDEST SWAP2 POP POP SWAP3 SWAP2 POP POP JUMP JUMPDEST PUSH0 PUSH2 0xEE1 DUP3 PUSH2 0x831 JUMP JUMPDEST SWAP2 POP PUSH2 0xEEC DUP4 PUSH2 0x831 JUMP JUMPDEST SWAP3 POP DUP3 DUP3 ADD SWAP1 POP DUP1 DUP3 GT ISZERO PUSH2 0xF04 JUMPI PUSH2 0xF03 PUSH2 0xC8E JUMP JUMPDEST JUMPDEST SWAP3 SWAP2 POP POP JUMP JUMPDEST PUSH2 0xF13 DUP2 PUSH2 0x831 JUMP JUMPDEST DUP3 MSTORE POP POP JUMP JUMPDEST PUSH0 PUSH1 0x60 DUP3 ADD SWAP1 POP PUSH2 0xF2C PUSH0 DUP4 ADD DUP7 PUSH2 0xC66 JUMP JUMPDEST PUSH2 0xF39 PUSH1 0x20 DUP4 ADD DUP6 PUSH2 0xF0A JUMP JUMPDEST PUSH2 0xF46 PUSH1 0x40 DUP4 ADD DUP5 PUSH2 0xF0A JUMP JUMPDEST SWAP5 SWAP4 POP POP POP POP JUMP JUMPDEST PUSH0 PUSH1 0x20 DUP3 ADD SWAP1 POP PUSH2 0xF61 PUSH0 DUP4 ADD DUP5 PUSH2 0xF0A JUMP JUMPDEST SWAP3 SWAP2 POP POP JUMP JUMPDEST PUSH2 0x3939 DUP1 PUSH2 0xF74 PUSH0 CODECOPY PUSH0 RETURN INVALID PUSH1 0x80 PUSH1 0x40 MSTORE CALLVALUE DUP1 ISZERO PUSH2 0xF JUMPI PUSH0 DUP1 REVERT JUMPDEST POP PUSH1 0x4 CALLDATASIZE LT PUSH2 0x21A JUMPI PUSH0 CALLDATALOAD PUSH1 0xE0 SHR DUP1 PUSH4 0x73CB76CA GT PUSH2 0x123 JUMPI DUP1 PUSH4 0xA98AD46C GT PUSH2 0xAB JUMPI DUP1 PUSH4 0xBE6172CE GT PUSH2 0x7A JUMPI DUP1 PUSH4 0xBE6172CE EQ PUSH2 0x5F6 JUMPI DUP1 PUSH4 0xC28C2670 EQ PUSH2 0x626 JUMPI DUP1 PUSH4 0xDB068E0E EQ PUSH2 0x642 JUMPI DUP1 PUSH4 0xDD62ED3E EQ PUSH2 0x65E JUMPI DUP1 PUSH4 0xF2FDE38B EQ PUSH2 0x68E JUMPI PUSH2 0x21A JUMP JUMPDEST DUP1 PUSH4 0xA98AD46C EQ PUSH2 0x584 JUMPI DUP1 PUSH4 0xB0F9006A EQ PUSH2 0x5A2 JUMPI DUP1 PUSH4 0xB9303DBD EQ PUSH2 0x5BE JUMPI DUP1 PUSH4 0xBB644776 EQ PUSH2 0x5DA JUMPI PUSH2 0x21A JUMP JUMPDEST DUP1 PUSH4 0x95D89B41 GT PUSH2 0xF2 JUMPI DUP1 PUSH4 0x95D89B41 EQ PUSH2 0x4F0 JUMPI DUP1 PUSH4 0xA0815A54 EQ PUSH2 0x50E JUMPI DUP1 PUSH4 0xA0DE1C37 EQ PUSH2 0x52C JUMPI DUP1 PUSH4 0xA1968579 EQ PUSH2 0x536 JUMPI DUP1 PUSH4 0xA9059CBB EQ PUSH2 0x554 JUMPI PUSH2 0x21A JUMP JUMPDEST DUP1 PUSH4 0x73CB76CA EQ PUSH2 0x478 JUMPI DUP1 PUSH4 0x88F6EAC7 EQ PUSH2 0x496 JUMPI DUP1 PUSH4 0x8A9731DD EQ PUSH2 0x4B4 JUMPI DUP1 PUSH4 0x8DA5CB5B EQ PUSH2 0x4D2 JUMPI PUSH2 0x21A JUMP JUMPDEST DUP1 PUSH4 0x30015118 GT PUSH2 0x1A6 JUMPI DUP1 PUSH4 0x3BA0B9A9 GT PUSH2 0x175 JUMPI DUP1 PUSH4 0x3BA0B9A9 EQ PUSH2 0x3E6 JUMPI DUP1 PUSH4 0x45C91439 EQ PUSH2 0x404 JUMPI DUP1 PUSH4 0x4B0BDDD2 EQ PUSH2 0x422 JUMPI DUP1 PUSH4 0x70A08231 EQ PUSH2 0x43E JUMPI DUP1 PUSH4 0x715018A6 EQ PUSH2 0x46E JUMPI PUSH2 0x21A JUMP JUMPDEST DUP1 PUSH4 0x30015118 EQ PUSH2 0x34A JUMPI DUP1 PUSH4 0x313CE567 EQ PUSH2 0x37A JUMPI DUP1 PUSH4 0x366A1114 EQ PUSH2 0x398 JUMPI DUP1 PUSH4 0x371047CD EQ PUSH2 0x3B6 JUMPI PUSH2 0x21A JUMP JUMPDEST DUP1 PUSH4 0x18160DDD GT PUSH2 0x1ED JUMPI DUP1 PUSH4 0x18160DDD EQ PUSH2 0x2A6 JUMPI DUP1 PUSH4 0x20F1C043 EQ PUSH2 0x2C4 JUMPI DUP1 PUSH4 0x23B872DD EQ PUSH2 0x2CE JUMPI DUP1 PUSH4 0x24D7806C EQ PUSH2 0x2FE JUMPI DUP1 PUSH4 0x29F94FB8 EQ PUSH2 0x32E JUMPI PUSH2 0x21A JUMP JUMPDEST DUP1 PUSH4 0x6865151 EQ PUSH2 0x21E JUMPI DUP1 PUSH4 0x6FDDE03 EQ PUSH2 0x23C JUMPI DUP1 PUSH4 0x95EA7B3 EQ PUSH2 0x25A JUMPI DUP1 PUSH4 0x13D7281E EQ PUSH2 0x28A JUMPI JUMPDEST PUSH0 DUP1 REVERT JUMPDEST PUSH2 0x226 PUSH2 0x6AA JUMP JUMPDEST PUSH1 0x40 MLOAD PUSH2 0x233 SWAP2 SWAP1 PUSH2 0x28E9 JUMP JUMPDEST PUSH1 0x40 MLOAD DUP1 SWAP2 SUB SWAP1 RETURN JUMPDEST PUSH2 0x244 PUSH2 0x6B0 JUMP JUMPDEST PUSH1 0x40 MLOAD PUSH2 0x251 SWAP2 SWAP1 PUSH2 0x2972 JUMP JUMPDEST PUSH1 0x40 MLOAD DUP1 SWAP2 SUB SWAP1 RETURN JUMPDEST PUSH2 0x274 PUSH1 0x4 DUP1 CALLDATASIZE SUB DUP2 ADD SWAP1 PUSH2 0x26F SWAP2 SWAP1 PUSH2 0x2A1A JUMP JUMPDEST PUSH2 0x740 JUMP JUMPDEST PUSH1 0x40 MLOAD PUSH2 0x281 SWAP2 SWAP1 PUSH2 0x2A72 JUMP JUMPDEST PUSH1 0x40 MLOAD DUP1 SWAP2 SUB SWAP1 RETURN JUMPDEST PUSH2 0x2A4 PUSH1 0x4 DUP1 CALLDATASIZE SUB DUP2 ADD SWAP1 PUSH2 0x29F SWAP2 SWAP1 PUSH2 0x2A8B JUMP JUMPDEST PUSH2 0x762 JUMP JUMPDEST STOP JUMPDEST PUSH2 0x2AE PUSH2 0x7AD JUMP JUMPDEST PUSH1 0x40 MLOAD PUSH2 0x2BB SWAP2 SWAP1 PUSH2 0x28E9 JUMP JUMPDEST PUSH1 0x40 MLOAD DUP1 SWAP2 SUB SWAP1 RETURN JUMPDEST PUSH2 0x2CC PUSH2 0x7B6 JUMP JUMPDEST STOP JUMPDEST PUSH2 0x2E8 PUSH1 0x4 DUP1 CALLDATASIZE SUB DUP2 ADD SWAP1 PUSH2 0x2E3 SWAP2 SWAP1 PUSH2 0x2AB6 JUMP JUMPDEST PUSH2 0x92A JUMP JUMPDEST PUSH1 0x40 MLOAD PUSH2 0x2F5 SWAP2 SWAP1 PUSH2 0x2A72 JUMP JUMPDEST PUSH1 0x40 MLOAD DUP1 SWAP2 SUB SWAP1 RETURN JUMPDEST PUSH2 0x318 PUSH1 0x4 DUP1 CALLDATASIZE SUB DUP2 ADD SWAP1 PUSH2 0x313 SWAP2 SWAP1 PUSH2 0x2A8B JUMP JUMPDEST PUSH2 0x958 JUMP JUMPDEST PUSH1 0x40 MLOAD PUSH2 0x325 SWAP2 SWAP1 PUSH2 0x2A72 JUMP JUMPDEST PUSH1 0x40 MLOAD DUP1 SWAP2 SUB SWAP1 RETURN JUMPDEST PUSH2 0x348 PUSH1 0x4 DUP1 CALLDATASIZE SUB DUP2 ADD SWAP1 PUSH2 0x343 SWAP2 SWAP1 PUSH2 0x2B06 JUMP JUMPDEST PUSH2 0x975 JUMP JUMPDEST STOP JUMPDEST PUSH2 0x364 PUSH1 0x4 DUP1 CALLDATASIZE SUB DUP2 ADD SWAP1 PUSH2 0x35F SWAP2 SWAP1 PUSH2 0x2A8B JUMP JUMPDEST PUSH2 0xC17 JUMP JUMPDEST PUSH1 0x40 MLOAD PUSH2 0x371 SWAP2 SWAP1 PUSH2 0x28E9 JUMP JUMPDEST PUSH1 0x40 MLOAD DUP1 SWAP2 SUB SWAP1 RETURN JUMPDEST PUSH2 0x382 PUSH2 0xC2C JUMP JUMPDEST PUSH1 0x40 MLOAD PUSH2 0x38F SWAP2 SWAP1 PUSH2 0x2B4C JUMP JUMPDEST PUSH1 0x40 MLOAD DUP1 SWAP2 SUB SWAP1 RETURN JUMPDEST PUSH2 0x3A0 PUSH2 0xC34 JUMP JUMPDEST PUSH1 0x40 MLOAD PUSH2 0x3AD SWAP2 SWAP1 PUSH2 0x28E9 JUMP JUMPDEST PUSH1 0x40 MLOAD DUP1 SWAP2 SUB SWAP1 RETURN JUMPDEST PUSH2 0x3D0 PUSH1 0x4 DUP1 CALLDATASIZE SUB DUP2 ADD SWAP1 PUSH2 0x3CB SWAP2 SWAP1 PUSH2 0x2A8B JUMP JUMPDEST PUSH2 0xC3A JUMP JUMPDEST PUSH1 0x40 MLOAD PUSH2 0x3DD SWAP2 SWAP1 PUSH2 0x28E9 JUMP JUMPDEST PUSH1 0x40 MLOAD DUP1 SWAP2 SUB SWAP1 RETURN JUMPDEST PUSH2 0x3EE PUSH2 0xC4F JUMP JUMPDEST PUSH1 0x40 MLOAD PUSH2 0x3FB SWAP2 SWAP1 PUSH2 0x28E9 JUMP JUMPDEST PUSH1 0x40 MLOAD DUP1 SWAP2 SUB SWAP1 RETURN JUMPDEST PUSH2 0x40C PUSH2 0xC55 JUMP JUMPDEST PUSH1 0x40 MLOAD PUSH2 0x419 SWAP2 SWAP1 PUSH2 0x28E9 JUMP JUMPDEST PUSH1 0x40 MLOAD DUP1 SWAP2 SUB SWAP1 RETURN JUMPDEST PUSH2 0x43C PUSH1 0x4 DUP1 CALLDATASIZE SUB DUP2 ADD SWAP1 PUSH2 0x437 SWAP2 SWAP1 PUSH2 0x2B8F JUMP JUMPDEST PUSH2 0xC5B JUMP JUMPDEST STOP JUMPDEST PUSH2 0x458 PUSH1 0x4 DUP1 CALLDATASIZE SUB DUP2 ADD SWAP1 PUSH2 0x453 SWAP2 SWAP1 PUSH2 0x2A8B JUMP JUMPDEST PUSH2 0xCBB JUMP JUMPDEST PUSH1 0x40 MLOAD PUSH2 0x465 SWAP2 SWAP1 PUSH2 0x28E9 JUMP JUMPDEST PUSH1 0x40 MLOAD DUP1 SWAP2 SUB SWAP1 RETURN JUMPDEST PUSH2 0x476 PUSH2 0xD00 JUMP JUMPDEST STOP JUMPDEST PUSH2 0x480 PUSH2 0xD13 JUMP JUMPDEST PUSH1 0x40 MLOAD PUSH2 0x48D SWAP2 SWAP1 PUSH2 0x28E9 JUMP JUMPDEST PUSH1 0x40 MLOAD DUP1 SWAP2 SUB SWAP1 RETURN JUMPDEST PUSH2 0x49E PUSH2 0xD19 JUMP JUMPDEST PUSH1 0x40 MLOAD PUSH2 0x4AB SWAP2 SWAP1 PUSH2 0x28E9 JUMP JUMPDEST PUSH1 0x40 MLOAD DUP1 SWAP2 SUB SWAP1 RETURN JUMPDEST PUSH2 0x4BC PUSH2 0xD1F JUMP JUMPDEST PUSH1 0x40 MLOAD PUSH2 0x4C9 SWAP2 SWAP1 PUSH2 0x2BDC JUMP JUMPDEST PUSH1 0x40 MLOAD DUP1 SWAP2 SUB SWAP1 RETURN JUMPDEST PUSH2 0x4DA PUSH2 0xD44 JUMP JUMPDEST PUSH1 0x40 MLOAD PUSH2 0x4E7 SWAP2 SWAP1 PUSH2 0x2BDC JUMP JUMPDEST PUSH1 0x40 MLOAD DUP1 SWAP2 SUB SWAP1 RETURN JUMPDEST PUSH2 0x4F8 PUSH2 0xD6C JUMP JUMPDEST PUSH1 0x40 MLOAD PUSH2 0x505 SWAP2 SWAP1 PUSH2 0x2972 JUMP JUMPDEST PUSH1 0x40 MLOAD DUP1 SWAP2 SUB SWAP1 RETURN JUMPDEST PUSH2 0x516 PUSH2 0xDFC JUMP JUMPDEST PUSH1 0x40 MLOAD PUSH2 0x523 SWAP2 SWAP1 PUSH2 0x2BDC JUMP JUMPDEST PUSH1 0x40 MLOAD DUP1 SWAP2 SUB SWAP1 RETURN JUMPDEST PUSH2 0x534 PUSH2 0xE21 JUMP JUMPDEST STOP JUMPDEST PUSH2 0x53E PUSH2 0xF7F JUMP JUMPDEST PUSH1 0x40 MLOAD PUSH2 0x54B SWAP2 SWAP1 PUSH2 0x2C50 JUMP JUMPDEST PUSH1 0x40 MLOAD DUP1 SWAP2 SUB SWAP1 RETURN JUMPDEST PUSH2 0x56E PUSH1 0x4 DUP1 CALLDATASIZE SUB DUP2 ADD SWAP1 PUSH2 0x569 SWAP2 SWAP1 PUSH2 0x2A1A JUMP JUMPDEST PUSH2 0xFA4 JUMP JUMPDEST PUSH1 0x40 MLOAD PUSH2 0x57B SWAP2 SWAP1 PUSH2 0x2A72 JUMP JUMPDEST PUSH1 0x40 MLOAD DUP1 SWAP2 SUB SWAP1 RETURN JUMPDEST PUSH2 0x58C PUSH2 0x1107 JUMP JUMPDEST PUSH1 0x40 MLOAD PUSH2 0x599 SWAP2 SWAP1 PUSH2 0x2C89 JUMP JUMPDEST PUSH1 0x40 MLOAD DUP1 SWAP2 SUB SWAP1 RETURN JUMPDEST PUSH2 0x5BC PUSH1 0x4 DUP1 CALLDATASIZE SUB DUP2 ADD SWAP1 PUSH2 0x5B7 SWAP2 SWAP1 PUSH2 0x2B06 JUMP JUMPDEST PUSH2 0x112C JUMP JUMPDEST STOP JUMPDEST PUSH2 0x5D8 PUSH1 0x4 DUP1 CALLDATASIZE SUB DUP2 ADD SWAP1 PUSH2 0x5D3 SWAP2 SWAP1 PUSH2 0x2CA2 JUMP JUMPDEST PUSH2 0x1426 JUMP JUMPDEST STOP JUMPDEST PUSH2 0x5F4 PUSH1 0x4 DUP1 CALLDATASIZE SUB DUP2 ADD SWAP1 PUSH2 0x5EF SWAP2 SWAP1 PUSH2 0x2B06 JUMP JUMPDEST PUSH2 0x19A6 JUMP JUMPDEST STOP JUMPDEST PUSH2 0x610 PUSH1 0x4 DUP1 CALLDATASIZE SUB DUP2 ADD SWAP1 PUSH2 0x60B SWAP2 SWAP1 PUSH2 0x2A8B JUMP JUMPDEST PUSH2 0x1A77 JUMP JUMPDEST PUSH1 0x40 MLOAD PUSH2 0x61D SWAP2 SWAP1 PUSH2 0x28E9 JUMP JUMPDEST PUSH1 0x40 MLOAD DUP1 SWAP2 SUB SWAP1 RETURN JUMPDEST PUSH2 0x640 PUSH1 0x4 DUP1 CALLDATASIZE SUB DUP2 ADD SWAP1 PUSH2 0x63B SWAP2 SWAP1 PUSH2 0x2B06 JUMP JUMPDEST PUSH2 0x1A8C JUMP JUMPDEST STOP JUMPDEST PUSH2 0x65C PUSH1 0x4 DUP1 CALLDATASIZE SUB DUP2 ADD SWAP1 PUSH2 0x657 SWAP2 SWAP1 PUSH2 0x2B06 JUMP JUMPDEST PUSH2 0x1CF5 JUMP JUMPDEST STOP JUMPDEST PUSH2 0x678 PUSH1 0x4 DUP1 CALLDATASIZE SUB DUP2 ADD SWAP1 PUSH2 0x673 SWAP2 SWAP1 PUSH2 0x2CE0 JUMP JUMPDEST PUSH2 0x1E08 JUMP JUMPDEST PUSH1 0x40 MLOAD PUSH2 0x685 SWAP2 SWAP1 PUSH2 0x28E9 JUMP JUMPDEST PUSH1 0x40 MLOAD DUP1 SWAP2 SUB SWAP1 RETURN JUMPDEST PUSH2 0x6A8 PUSH1 0x4 DUP1 CALLDATASIZE SUB DUP2 ADD SWAP1 PUSH2 0x6A3 SWAP2 SWAP1 PUSH2 0x2A8B JUMP JUMPDEST PUSH2 0x1E8A JUMP JUMPDEST STOP JUMPDEST PUSH1 0xD SLOAD DUP2 JUMP JUMPDEST PUSH1 0x60 PUSH1 0x3 DUP1 SLOAD PUSH2 0x6BF SWAP1 PUSH2 0x2D4B JUMP JUMPDEST DUP1 PUSH1 0x1F ADD PUSH1 0x20 DUP1 SWAP2 DIV MUL PUSH1 0x20 ADD PUSH1 0x40 MLOAD SWAP1 DUP2 ADD PUSH1 0x40 MSTORE DUP1 SWAP3 SWAP2 SWAP1 DUP2 DUP2 MSTORE PUSH1 0x20 ADD DUP3 DUP1 SLOAD PUSH2 0x6EB SWAP1 PUSH2 0x2D4B JUMP JUMPDEST DUP1 ISZERO PUSH2 0x736 JUMPI DUP1 PUSH1 0x1F LT PUSH2 0x70D JUMPI PUSH2 0x100 DUP1 DUP4 SLOAD DIV MUL DUP4 MSTORE SWAP2 PUSH1 0x20 ADD SWAP2 PUSH2 0x736 JUMP JUMPDEST DUP3 ADD SWAP2 SWAP1 PUSH0 MSTORE PUSH1 0x20 PUSH0 KECCAK256 SWAP1 JUMPDEST DUP2 SLOAD DUP2 MSTORE SWAP1 PUSH1 0x1 ADD SWAP1 PUSH1 0x20 ADD DUP1 DUP4 GT PUSH2 0x719 JUMPI DUP3 SWAP1 SUB PUSH1 0x1F AND DUP3 ADD SWAP2 JUMPDEST POP POP POP POP POP SWAP1 POP SWAP1 JUMP JUMPDEST PUSH0 DUP1 PUSH2 0x74A PUSH2 0x1F0E JUMP JUMPDEST SWAP1 POP PUSH2 0x757 DUP2 DUP6 DUP6 PUSH2 0x1F15 JUMP JUMPDEST PUSH1 0x1 SWAP2 POP POP SWAP3 SWAP2 POP POP JUMP JUMPDEST PUSH2 0x76A PUSH2 0x1F27 JUMP JUMPDEST DUP1 PUSH1 0x13 PUSH0 PUSH2 0x100 EXP DUP2 SLOAD DUP2 PUSH20 0xFFFFFFFFFFFFFFFFFFFFFFFFFFFFFFFFFFFFFFFF MUL NOT AND SWAP1 DUP4 PUSH20 0xFFFFFFFFFFFFFFFFFFFFFFFFFFFFFFFFFFFFFFFF AND MUL OR SWAP1 SSTORE POP POP JUMP JUMPDEST PUSH0 PUSH1 0x2 SLOAD SWAP1 POP SWAP1 JUMP JUMPDEST PUSH0 PUSH1 0x6 PUSH0 SWAP1 SLOAD SWAP1 PUSH2 0x100 EXP SWAP1 DIV PUSH20 0xFFFFFFFFFFFFFFFFFFFFFFFFFFFFFFFFFFFFFFFF AND PUSH20 0xFFFFFFFFFFFFFFFFFFFFFFFFFFFFFFFFFFFFFFFF AND PUSH4 0xDDD1B67E PUSH1 0x40 MLOAD DUP2 PUSH4 0xFFFFFFFF AND PUSH1 0xE0 SHL DUP2 MSTORE PUSH1 0x4 ADD PUSH1 0x20 PUSH1 0x40 MLOAD DUP1 DUP4 SUB DUP2 DUP7 GAS STATICCALL ISZERO DUP1 ISZERO PUSH2 0x821 JUMPI RETURNDATASIZE PUSH0 DUP1 RETURNDATACOPY RETURNDATASIZE PUSH0 REVERT JUMPDEST POP POP POP POP PUSH1 0x40 MLOAD RETURNDATASIZE PUSH1 0x1F NOT PUSH1 0x1F DUP3 ADD AND DUP3 ADD DUP1 PUSH1 0x40 MSTORE POP DUP2 ADD SWAP1 PUSH2 0x845 SWAP2 SWAP1 PUSH2 0x2D8F JUMP JUMPDEST SWAP1 POP PUSH1 0x8 SLOAD DUP2 GT ISZERO PUSH2 0x927 JUMPI PUSH1 0x6 PUSH0 SWAP1 SLOAD SWAP1 PUSH2 0x100 EXP SWAP1 DIV PUSH20 0xFFFFFFFFFFFFFFFFFFFFFFFFFFFFFFFFFFFFFFFF AND PUSH20 0xFFFFFFFFFFFFFFFFFFFFFFFFFFFFFFFFFFFFFFFF AND PUSH4 0x27EBEC60 PUSH1 0x40 MLOAD DUP2 PUSH4 0xFFFFFFFF AND PUSH1 0xE0 SHL DUP2 MSTORE PUSH1 0x4 ADD PUSH1 0x20 PUSH1 0x40 MLOAD DUP1 DUP4 SUB DUP2 PUSH0 DUP8 GAS CALL ISZERO DUP1 ISZERO PUSH2 0x8BC JUMPI RETURNDATASIZE PUSH0 DUP1 RETURNDATACOPY RETURNDATASIZE PUSH0 REVERT JUMPDEST POP POP POP POP PUSH1 0x40 MLOAD RETURNDATASIZE PUSH1 0x1F NOT PUSH1 0x1F DUP3 ADD AND DUP3 ADD DUP1 PUSH1 0x40 MSTORE POP DUP2 ADD SWAP1 PUSH2 0x8E0 SWAP2 SWAP1 PUSH2 0x2DCE JUMP JUMPDEST PUSH1 0x7 PUSH0 PUSH2 0x100 EXP DUP2 SLOAD DUP2 PUSH20 0xFFFFFFFFFFFFFFFFFFFFFFFFFFFFFFFFFFFFFFFF MUL NOT AND SWAP1 DUP4 PUSH20 0xFFFFFFFFFFFFFFFFFFFFFFFFFFFFFFFFFFFFFFFF AND MUL OR SWAP1 SSTORE POP DUP1 PUSH1 0x8 DUP2 SWAP1 SSTORE POP JUMPDEST POP JUMP JUMPDEST PUSH0 DUP1 PUSH2 0x934 PUSH2 0x1F0E JUMP JUMPDEST SWAP1 POP PUSH2 0x941 DUP6 DUP3 DUP6 PUSH2 0x1FAE JUMP JUMPDEST PUSH2 0x94C DUP6 DUP6 DUP6 PUSH2 0x2041 JUMP JUMPDEST PUSH1 0x1 SWAP2 POP POP SWAP4 SWAP3 POP POP POP JUMP JUMPDEST PUSH1 0x12 PUSH1 0x20 MSTORE DUP1 PUSH0 MSTORE PUSH1 0x40 PUSH0 KECCAK256 PUSH0 SWAP2 POP SLOAD SWAP1 PUSH2 0x100 EXP SWAP1 DIV PUSH1 0xFF AND DUP2 JUMP JUMPDEST PUSH1 0x13 PUSH0 SWAP1 SLOAD SWAP1 PUSH2 0x100 EXP SWAP1 DIV PUSH20 0xFFFFFFFFFFFFFFFFFFFFFFFFFFFFFFFFFFFFFFFF AND PUSH20 0xFFFFFFFFFFFFFFFFFFFFFFFFFFFFFFFFFFFFFFFF AND CALLER PUSH20 0xFFFFFFFFFFFFFFFFFFFFFFFFFFFFFFFFFFFFFFFF AND EQ PUSH2 0xA04 JUMPI PUSH1 0x40 MLOAD PUSH32 0x8C379A000000000000000000000000000000000000000000000000000000000 DUP2 MSTORE PUSH1 0x4 ADD PUSH2 0x9FB SWAP1 PUSH2 0x2E43 JUMP JUMPDEST PUSH1 0x40 MLOAD DUP1 SWAP2 SUB SWAP1 REVERT JUMPDEST PUSH0 DUP2 GT PUSH2 0xA46 JUMPI PUSH1 0x40 MLOAD PUSH32 0x8C379A000000000000000000000000000000000000000000000000000000000 DUP2 MSTORE PUSH1 0x4 ADD PUSH2 0xA3D SWAP1 PUSH2 0x2EAB JUMP JUMPDEST PUSH1 0x40 MLOAD DUP1 SWAP2 SUB SWAP1 REVERT JUMPDEST PUSH1 0x9 PUSH0 SWAP1 SLOAD SWAP1 PUSH2 0x100 EXP SWAP1 DIV PUSH20 0xFFFFFFFFFFFFFFFFFFFFFFFFFFFFFFFFFFFFFFFF AND PUSH20 0xFFFFFFFFFFFFFFFFFFFFFFFFFFFFFFFFFFFFFFFF AND PUSH4 0x23B872DD CALLER ADDRESS DUP5 PUSH1 0x40 MLOAD DUP5 PUSH4 0xFFFFFFFF AND PUSH1 0xE0 SHL DUP2 MSTORE PUSH1 0x4 ADD PUSH2 0xAA4 SWAP4 SWAP3 SWAP2 SWAP1 PUSH2 0x2EC9 JUMP JUMPDEST PUSH1 0x20 PUSH1 0x40 MLOAD DUP1 DUP4 SUB DUP2 PUSH0 DUP8 GAS CALL ISZERO DUP1 ISZERO PUSH2 0xAC0 JUMPI RETURNDATASIZE PUSH0 DUP1 RETURNDATACOPY RETURNDATASIZE PUSH0 REVERT JUMPDEST POP POP POP POP PUSH1 0x40 MLOAD RETURNDATASIZE PUSH1 0x1F NOT PUSH1 0x1F DUP3 ADD AND DUP3 ADD DUP1 PUSH1 0x40 MSTORE POP DUP2 ADD SWAP1 PUSH2 0xAE4 SWAP2 SWAP1 PUSH2 0x2F12 JUMP JUMPDEST PUSH2 0xB23 JUMPI PUSH1 0x40 MLOAD PUSH32 0x8C379A000000000000000000000000000000000000000000000000000000000 DUP2 MSTORE PUSH1 0x4 ADD PUSH2 0xB1A SWAP1 PUSH2 0x2F87 JUMP JUMPDEST PUSH1 0x40 MLOAD DUP1 SWAP2 SUB SWAP1 REVERT JUMPDEST DUP1 PUSH1 0xD PUSH0 DUP3 DUP3 SLOAD PUSH2 0xB34 SWAP2 SWAP1 PUSH2 0x2FD2 JUMP JUMPDEST SWAP3 POP POP DUP2 SWAP1 SSTORE POP PUSH1 0x7 PUSH0 SWAP1 SLOAD SWAP1 PUSH2 0x100 EXP SWAP1 DIV PUSH20 0xFFFFFFFFFFFFFFFFFFFFFFFFFFFFFFFFFFFFFFFF AND PUSH20 0xFFFFFFFFFFFFFFFFFFFFFFFFFFFFFFFFFFFFFFFF AND PUSH4 0xAB0EE682 CALLER PUSH0 DUP5 PUSH1 0x40 MLOAD DUP5 PUSH4 0xFFFFFFFF AND PUSH1 0xE0 SHL DUP2 MSTORE PUSH1 0x4 ADD PUSH2 0xB99 SWAP4 SWAP3 SWAP2 SWAP1 PUSH2 0x304F JUMP JUMPDEST PUSH0 PUSH1 0x40 MLOAD DUP1 DUP4 SUB DUP2 PUSH0 DUP8 DUP1 EXTCODESIZE ISZERO DUP1 ISZERO PUSH2 0xBB0 JUMPI PUSH0 DUP1 REVERT JUMPDEST POP GAS CALL ISZERO DUP1 ISZERO PUSH2 0xBC2 JUMPI RETURNDATASIZE PUSH0 DUP1 RETURNDATACOPY RETURNDATASIZE PUSH0 REVERT JUMPDEST POP POP POP POP CALLER PUSH20 0xFFFFFFFFFFFFFFFFFFFFFFFFFFFFFFFFFFFFFFFF AND PUSH32 0xB4A46C1BD84F6EAD56B19BD0D3788D827200B4D73024081F1C083F904F68F21C DUP3 PUSH1 0x40 MLOAD PUSH2 0xC0C SWAP2 SWAP1 PUSH2 0x28E9 JUMP JUMPDEST PUSH1 0x40 MLOAD DUP1 SWAP2 SUB SWAP1 LOG2 POP JUMP JUMPDEST PUSH1 0xF PUSH1 0x20 MSTORE DUP1 PUSH0 MSTORE PUSH1 0x40 PUSH0 KECCAK256 PUSH0 SWAP2 POP SWAP1 POP SLOAD DUP2 JUMP JUMPDEST PUSH0 PUSH1 0x12 SWAP1 POP SWAP1 JUMP JUMPDEST PUSH1 0xB SLOAD DUP2 JUMP JUMPDEST PUSH1 0x11 PUSH1 0x20 MSTORE DUP1 PUSH0 MSTORE PUSH1 0x40 PUSH0 KECCAK256 PUSH0 SWAP2 POP SWAP1 POP SLOAD DUP2 JUMP JUMPDEST PUSH1 0xA SLOAD DUP2 JUMP JUMPDEST PUSH1 0x8 SLOAD DUP2 JUMP JUMPDEST PUSH2 0xC63 PUSH2 0x1F27 JUMP JUMPDEST DUP1 PUSH1 0x12 PUSH0 DUP5 PUSH20 0xFFFFFFFFFFFFFFFFFFFFFFFFFFFFFFFFFFFFFFFF AND PUSH20 0xFFFFFFFFFFFFFFFFFFFFFFFFFFFFFFFFFFFFFFFF AND DUP2 MSTORE PUSH1 0x20 ADD SWAP1 DUP2 MSTORE PUSH1 0x20 ADD PUSH0 KECCAK256 PUSH0 PUSH2 0x100 EXP DUP2 SLOAD DUP2 PUSH1 0xFF MUL NOT AND SWAP1 DUP4 ISZERO ISZERO MUL OR SWAP1 SSTORE POP POP POP JUMP JUMPDEST PUSH0 DUP1 PUSH0 DUP4 PUSH20 0xFFFFFFFFFFFFFFFFFFFFFFFFFFFFFFFFFFFFFFFF AND PUSH20 0xFFFFFFFFFFFFFFFFFFFFFFFFFFFFFFFFFFFFFFFF AND DUP2 MSTORE PUSH1 0x20 ADD SWAP1 DUP2 MSTORE PUSH1 0x20 ADD PUSH0 KECCAK256 SLOAD SWAP1 POP SWAP2 SWAP1 POP JUMP JUMPDEST PUSH2 0xD08 PUSH2 0x1F27 JUMP JUMPDEST PUSH2 0xD11 PUSH0 PUSH2 0x2131 JUMP JUMPDEST JUMP JUMPDEST PUSH1 0xE SLOAD DUP2 JUMP JUMPDEST PUSH1 0xC SLOAD DUP2 JUMP JUMPDEST PUSH1 0x7 PUSH0 SWAP1 SLOAD SWAP1 PUSH2 0x100 EXP SWAP1 DIV PUSH20 0xFFFFFFFFFFFFFFFFFFFFFFFFFFFFFFFFFFFFFFFF AND DUP2 JUMP JUMPDEST PUSH0 PUSH1 0x5 PUSH0 SWAP1 SLOAD SWAP1 PUSH2 0x100 EXP SWAP1 DIV PUSH20 0xFFFFFFFFFFFFFFFFFFFFFFFFFFFFFFFFFFFFFFFF AND SWAP1 POP SWAP1 JUMP JUMPDEST PUSH1 0x60 PUSH1 0x4 DUP1 SLOAD PUSH2 0xD7B SWAP1 PUSH2 0x2D4B JUMP JUMPDEST DUP1 PUSH1 0x1F ADD PUSH1 0x20 DUP1 SWAP2 DIV MUL PUSH1 0x20 ADD PUSH1 0x40 MLOAD SWAP1 DUP2 ADD PUSH1 0x40 MSTORE DUP1 SWAP3 SWAP2 SWAP1 DUP2 DUP2 MSTORE PUSH1 0x20 ADD DUP3 DUP1 SLOAD PUSH2 0xDA7 SWAP1 PUSH2 0x2D4B JUMP JUMPDEST DUP1 ISZERO PUSH2 0xDF2 JUMPI DUP1 PUSH1 0x1F LT PUSH2 0xDC9 JUMPI PUSH2 0x100 DUP1 DUP4 SLOAD DIV MUL DUP4 MSTORE SWAP2 PUSH1 0x20 ADD SWAP2 PUSH2 0xDF2 JUMP JUMPDEST DUP3 ADD SWAP2 SWAP1 PUSH0 MSTORE PUSH1 0x20 PUSH0 KECCAK256 SWAP1 JUMPDEST DUP2 SLOAD DUP2 MSTORE SWAP1 PUSH1 0x1 ADD SWAP1 PUSH1 0x20 ADD DUP1 DUP4 GT PUSH2 0xDD5 JUMPI DUP3 SWAP1 SUB PUSH1 0x1F AND DUP3 ADD SWAP2 JUMPDEST POP POP POP POP POP SWAP1 POP SWAP1 JUMP JUMPDEST PUSH1 0x13 PUSH0 SWAP1 SLOAD SWAP1 PUSH2 0x100 EXP SWAP1 DIV PUSH20 0xFFFFFFFFFFFFFFFFFFFFFFFFFFFFFFFFFFFFFFFF AND DUP2 JUMP JUMPDEST PUSH2 0xE2A CALLER PUSH2 0x21F4 JUMP JUMPDEST PUSH1 0x7 PUSH0 SWAP1 SLOAD SWAP1 PUSH2 0x100 EXP SWAP1 DIV PUSH20 0xFFFFFFFFFFFFFFFFFFFFFFFFFFFFFFFFFFFFFFFF AND PUSH20 0xFFFFFFFFFFFFFFFFFFFFFFFFFFFFFFFFFFFFFFFF AND PUSH4 0xAB0EE682 CALLER PUSH0 PUSH1 0xF PUSH0 CALLER PUSH20 0xFFFFFFFFFFFFFFFFFFFFFFFFFFFFFFFFFFFFFFFF AND PUSH20 0xFFFFFFFFFFFFFFFFFFFFFFFFFFFFFFFFFFFFFFFF AND DUP2 MSTORE PUSH1 0x20 ADD SWAP1 DUP2 MSTORE PUSH1 0x20 ADD PUSH0 KECCAK256 SLOAD PUSH1 0x40 MLOAD DUP5 PUSH4 0xFFFFFFFF AND PUSH1 0xE0 SHL DUP2 MSTORE PUSH1 0x4 ADD PUSH2 0xEC5 SWAP4 SWAP3 SWAP2 SWAP1 PUSH2 0x30E1 JUMP JUMPDEST PUSH0 PUSH1 0x40 MLOAD DUP1 DUP4 SUB DUP2 PUSH0 DUP8 DUP1 EXTCODESIZE ISZERO DUP1 ISZERO PUSH2 0xEDC JUMPI PUSH0 DUP1 REVERT JUMPDEST POP GAS CALL ISZERO DUP1 ISZERO PUSH2 0xEEE JUMPI RETURNDATASIZE PUSH0 DUP1 RETURNDATACOPY RETURNDATASIZE PUSH0 REVERT JUMPDEST POP POP POP POP CALLER PUSH20 0xFFFFFFFFFFFFFFFFFFFFFFFFFFFFFFFFFFFFFFFF AND PUSH32 0xB0BD88CDAE83F74F918EB6BF26D99DCB3C1530530F339233B029E3B6A00AC50B PUSH1 0xF PUSH0 CALLER PUSH20 0xFFFFFFFFFFFFFFFFFFFFFFFFFFFFFFFFFFFFFFFF AND PUSH20 0xFFFFFFFFFFFFFFFFFFFFFFFFFFFFFFFFFFFFFFFF AND DUP2 MSTORE PUSH1 0x20 ADD SWAP1 DUP2 MSTORE PUSH1 0x20 ADD PUSH0 KECCAK256 SLOAD PUSH1 0x40 MLOAD PUSH2 0xF75 SWAP2 SWAP1 PUSH2 0x28E9 JUMP JUMPDEST PUSH1 0x40 MLOAD DUP1 SWAP2 SUB SWAP1 LOG2 JUMP JUMPDEST PUSH1 0x6 PUSH0 SWAP1 SLOAD SWAP1 PUSH2 0x100 EXP SWAP1 DIV PUSH20 0xFFFFFFFFFFFFFFFFFFFFFFFFFFFFFFFFFFFFFFFF AND DUP2 JUMP JUMPDEST PUSH0 DUP2 PUSH2 0xFAF CALLER PUSH2 0xCBB JUMP JUMPDEST LT ISZERO PUSH2 0xFF0 JUMPI PUSH1 0x40 MLOAD PUSH32 0x8C379A000000000000000000000000000000000000000000000000000000000 DUP2 MSTORE PUSH1 0x4 ADD PUSH2 0xFE7 SWAP1 PUSH2 0x3173 JUMP JUMPDEST PUSH1 0x40 MLOAD DUP1 SWAP2 SUB SWAP1 REVERT JUMPDEST PUSH2 0xFF9 CALLER PUSH2 0x21F4 JUMP JUMPDEST PUSH2 0x1002 DUP4 PUSH2 0x21F4 JUMP JUMPDEST PUSH2 0x100D CALLER DUP5 DUP5 PUSH2 0x2041 JUMP JUMPDEST PUSH1 0x7 PUSH0 SWAP1 SLOAD SWAP1 PUSH2 0x100 EXP SWAP1 DIV PUSH20 0xFFFFFFFFFFFFFFFFFFFFFFFFFFFFFFFFFFFFFFFF AND PUSH20 0xFFFFFFFFFFFFFFFFFFFFFFFFFFFFFFFFFFFFFFFF AND PUSH4 0xAB0EE682 CALLER DUP6 DUP6 PUSH1 0x40 MLOAD DUP5 PUSH4 0xFFFFFFFF AND PUSH1 0xE0 SHL DUP2 MSTORE PUSH1 0x4 ADD PUSH2 0x106B SWAP4 SWAP3 SWAP2 SWAP1 PUSH2 0x31DB JUMP JUMPDEST PUSH0 PUSH1 0x40 MLOAD DUP1 DUP4 SUB DUP2 PUSH0 DUP8 DUP1 EXTCODESIZE ISZERO DUP1 ISZERO PUSH2 0x1082 JUMPI PUSH0 DUP1 REVERT JUMPDEST POP GAS CALL ISZERO DUP1 ISZERO PUSH2 0x1094 JUMPI RETURNDATASIZE PUSH0 DUP1 RETURNDATACOPY RETURNDATASIZE PUSH0 REVERT JUMPDEST POP POP POP POP DUP3 PUSH20 0xFFFFFFFFFFFFFFFFFFFFFFFFFFFFFFFFFFFFFFFF AND CALLER PUSH20 0xFFFFFFFFFFFFFFFFFFFFFFFFFFFFFFFFFFFFFFFF AND PUSH32 0x6BCA8FA57973BAECF480F0F784A6C6549E10CD7673DB79B691A8051864DD29C9 DUP5 PUSH1 0x40 MLOAD PUSH2 0x10F5 SWAP2 SWAP1 PUSH2 0x28E9 JUMP JUMPDEST PUSH1 0x40 MLOAD DUP1 SWAP2 SUB SWAP1 LOG3 PUSH1 0x1 SWAP1 POP SWAP3 SWAP2 POP POP JUMP JUMPDEST PUSH1 0x9 PUSH0 SWAP1 SLOAD SWAP1 PUSH2 0x100 EXP SWAP1 DIV PUSH20 0xFFFFFFFFFFFFFFFFFFFFFFFFFFFFFFFFFFFFFFFF AND DUP2 JUMP JUMPDEST PUSH0 PUSH1 0x10 PUSH0 CALLER PUSH20 0xFFFFFFFFFFFFFFFFFFFFFFFFFFFFFFFFFFFFFFFF AND PUSH20 0xFFFFFFFFFFFFFFFFFFFFFFFFFFFFFFFFFFFFFFFF AND DUP2 MSTORE PUSH1 0x20 ADD SWAP1 DUP2 MSTORE PUSH1 0x20 ADD PUSH0 KECCAK256 SLOAD PUSH1 0xF PUSH0 CALLER PUSH20 0xFFFFFFFFFFFFFFFFFFFFFFFFFFFFFFFFFFFFFFFF AND PUSH20 0xFFFFFFFFFFFFFFFFFFFFFFFFFFFFFFFFFFFFFFFF AND DUP2 MSTORE PUSH1 0x20 ADD SWAP1 DUP2 MSTORE PUSH1 0x20 ADD PUSH0 KECCAK256 SLOAD PUSH2 0x11B3 SWAP2 SWAP1 PUSH2 0x3223 JUMP JUMPDEST SWAP1 POP PUSH0 DUP3 GT DUP1 ISZERO PUSH2 0x11C4 JUMPI POP DUP1 DUP3 GT ISZERO JUMPDEST PUSH2 0x1203 JUMPI PUSH1 0x40 MLOAD PUSH32 0x8C379A000000000000000000000000000000000000000000000000000000000 DUP2 MSTORE PUSH1 0x4 ADD PUSH2 0x11FA SWAP1 PUSH2 0x32A0 JUMP JUMPDEST PUSH1 0x40 MLOAD DUP1 SWAP2 SUB SWAP1 REVERT JUMPDEST DUP2 PUSH1 0x10 PUSH0 CALLER PUSH20 0xFFFFFFFFFFFFFFFFFFFFFFFFFFFFFFFFFFFFFFFF AND PUSH20 0xFFFFFFFFFFFFFFFFFFFFFFFFFFFFFFFFFFFFFFFF AND DUP2 MSTORE PUSH1 0x20 ADD SWAP1 DUP2 MSTORE PUSH1 0x20 ADD PUSH0 KECCAK256 PUSH0 DUP3 DUP3 SLOAD PUSH2 0x124F SWAP2 SWAP1 PUSH2 0x2FD2 JUMP JUMPDEST SWAP3 POP POP DUP2 SWAP1 SSTORE POP DUP2 PUSH1 0xE PUSH0 DUP3 DUP3 SLOAD PUSH2 0x1267 SWAP2 SWAP1 PUSH2 0x2FD2 JUMP JUMPDEST SWAP3 POP POP DUP2 SWAP1 SSTORE POP PUSH1 0x9 PUSH0 SWAP1 SLOAD SWAP1 PUSH2 0x100 EXP SWAP1 DIV PUSH20 0xFFFFFFFFFFFFFFFFFFFFFFFFFFFFFFFFFFFFFFFF AND PUSH20 0xFFFFFFFFFFFFFFFFFFFFFFFFFFFFFFFFFFFFFFFF AND PUSH4 0xA9059CBB CALLER DUP5 PUSH1 0x40 MLOAD DUP4 PUSH4 0xFFFFFFFF AND PUSH1 0xE0 SHL DUP2 MSTORE PUSH1 0x4 ADD PUSH2 0x12CA SWAP3 SWAP2 SWAP1 PUSH2 0x32BE JUMP JUMPDEST PUSH1 0x20 PUSH1 0x40 MLOAD DUP1 DUP4 SUB DUP2 PUSH0 DUP8 GAS CALL ISZERO DUP1 ISZERO PUSH2 0x12E6 JUMPI RETURNDATASIZE PUSH0 DUP1 RETURNDATACOPY RETURNDATASIZE PUSH0 REVERT JUMPDEST POP POP POP POP PUSH1 0x40 MLOAD RETURNDATASIZE PUSH1 0x1F NOT PUSH1 0x1F DUP3 ADD AND DUP3 ADD DUP1 PUSH1 0x40 MSTORE POP DUP2 ADD SWAP1 PUSH2 0x130A SWAP2 SWAP1 PUSH2 0x2F12 JUMP JUMPDEST PUSH2 0x1349 JUMPI PUSH1 0x40 MLOAD PUSH32 0x8C379A000000000000000000000000000000000000000000000000000000000 DUP2 MSTORE PUSH1 0x4 ADD PUSH2 0x1340 SWAP1 PUSH2 0x2F87 JUMP JUMPDEST PUSH1 0x40 MLOAD DUP1 SWAP2 SUB SWAP1 REVERT JUMPDEST PUSH1 0x7 PUSH0 SWAP1 SLOAD SWAP1 PUSH2 0x100 EXP SWAP1 DIV PUSH20 0xFFFFFFFFFFFFFFFFFFFFFFFFFFFFFFFFFFFFFFFF AND PUSH20 0xFFFFFFFFFFFFFFFFFFFFFFFFFFFFFFFFFFFFFFFF AND PUSH4 0xAB0EE682 CALLER PUSH0 DUP6 PUSH1 0x40 MLOAD DUP5 PUSH4 0xFFFFFFFF AND PUSH1 0xE0 SHL DUP2 MSTORE PUSH1 0x4 ADD PUSH2 0x13A7 SWAP4 SWAP3 SWAP2 SWAP1 PUSH2 0x332F JUMP JUMPDEST PUSH0 PUSH1 0x40 MLOAD DUP1 DUP4 SUB DUP2 PUSH0 DUP8 DUP1 EXTCODESIZE ISZERO DUP1 ISZERO PUSH2 0x13BE JUMPI PUSH0 DUP1 REVERT JUMPDEST POP GAS CALL ISZERO DUP1 ISZERO PUSH2 0x13D0 JUMPI RETURNDATASIZE PUSH0 DUP1 RETURNDATACOPY RETURNDATASIZE PUSH0 REVERT JUMPDEST POP POP POP POP CALLER PUSH20 0xFFFFFFFFFFFFFFFFFFFFFFFFFFFFFFFFFFFFFFFF AND PUSH32 0xB0BD88CDAE83F74F918EB6BF26D99DCB3C1530530F339233B029E3B6A00AC50B DUP4 PUSH1 0x40 MLOAD PUSH2 0x141A SWAP2 SWAP1 PUSH2 0x28E9 JUMP JUMPDEST PUSH1 0x40 MLOAD DUP1 SWAP2 SUB SWAP1 LOG2 POP POP JUMP JUMPDEST PUSH0 DUP3 GT PUSH2 0x1468 JUMPI PUSH1 0x40 MLOAD PUSH32 0x8C379A000000000000000000000000000000000000000000000000000000000 DUP2 MSTORE PUSH1 0x4 ADD PUSH2 0x145F SWAP1 PUSH2 0x33C1 JUMP JUMPDEST PUSH1 0x40 MLOAD DUP1 SWAP2 SUB SWAP1 REVERT JUMPDEST DUP1 PUSH1 0xA SLOAD EQ PUSH2 0x14AC JUMPI PUSH1 0x40 MLOAD PUSH32 0x8C379A000000000000000000000000000000000000000000000000000000000 DUP2 MSTORE PUSH1 0x4 ADD PUSH2 0x14A3 SWAP1 PUSH2 0x3429 JUMP JUMPDEST PUSH1 0x40 MLOAD DUP1 SWAP2 SUB SWAP1 REVERT JUMPDEST PUSH2 0x14B5 CALLER PUSH2 0x21F4 JUMP JUMPDEST PUSH0 PUSH4 0x5F5E100 PUSH1 0xA SLOAD DUP5 PUSH2 0x14C9 SWAP2 SWAP1 PUSH2 0x3447 JUMP JUMPDEST PUSH2 0x14D3 SWAP2 SWAP1 PUSH2 0x34B5 JUMP JUMPDEST SWAP1 POP DUP1 PUSH1 0xB SLOAD LT ISZERO PUSH2 0x151A JUMPI PUSH1 0x40 MLOAD PUSH32 0x8C379A000000000000000000000000000000000000000000000000000000000 DUP2 MSTORE PUSH1 0x4 ADD PUSH2 0x1511 SWAP1 PUSH2 0x352F JUMP JUMPDEST PUSH1 0x40 MLOAD DUP1 SWAP2 SUB SWAP1 REVERT JUMPDEST DUP1 PUSH2 0x152B PUSH2 0x1526 PUSH2 0xD44 JUMP JUMPDEST PUSH2 0xCBB JUMP JUMPDEST LT ISZERO PUSH2 0x156C JUMPI PUSH1 0x40 MLOAD PUSH32 0x8C379A000000000000000000000000000000000000000000000000000000000 DUP2 MSTORE PUSH1 0x4 ADD PUSH2 0x1563 SWAP1 PUSH2 0x3597 JUMP JUMPDEST PUSH1 0x40 MLOAD DUP1 SWAP2 SUB SWAP1 REVERT JUMPDEST PUSH0 PUSH1 0x9 PUSH0 SWAP1 SLOAD SWAP1 PUSH2 0x100 EXP SWAP1 DIV PUSH20 0xFFFFFFFFFFFFFFFFFFFFFFFFFFFFFFFFFFFFFFFF AND PUSH20 0xFFFFFFFFFFFFFFFFFFFFFFFFFFFFFFFFFFFFFFFF AND PUSH4 0x70A08231 ADDRESS PUSH1 0x40 MLOAD DUP3 PUSH4 0xFFFFFFFF AND PUSH1 0xE0 SHL DUP2 MSTORE PUSH1 0x4 ADD PUSH2 0x15C7 SWAP2 SWAP1 PUSH2 0x2BDC JUMP JUMPDEST PUSH1 0x20 PUSH1 0x40 MLOAD DUP1 DUP4 SUB DUP2 DUP7 GAS STATICCALL ISZERO DUP1 ISZERO PUSH2 0x15E2 JUMPI RETURNDATASIZE PUSH0 DUP1 RETURNDATACOPY RETURNDATASIZE PUSH0 REVERT JUMPDEST POP POP POP POP PUSH1 0x40 MLOAD RETURNDATASIZE PUSH1 0x1F NOT PUSH1 0x1F DUP3 ADD AND DUP3 ADD DUP1 PUSH1 0x40 MSTORE POP DUP2 ADD SWAP1 PUSH2 0x1606 SWAP2 SWAP1 PUSH2 0x2D8F JUMP JUMPDEST SWAP1 POP PUSH1 0x9 PUSH0 SWAP1 SLOAD SWAP1 PUSH2 0x100 EXP SWAP1 DIV PUSH20 0xFFFFFFFFFFFFFFFFFFFFFFFFFFFFFFFFFFFFFFFF AND PUSH20 0xFFFFFFFFFFFFFFFFFFFFFFFFFFFFFFFFFFFFFFFF AND PUSH4 0x23B872DD CALLER ADDRESS DUP8 PUSH1 0x40 MLOAD DUP5 PUSH4 0xFFFFFFFF AND PUSH1 0xE0 SHL DUP2 MSTORE PUSH1 0x4 ADD PUSH2 0x1666 SWAP4 SWAP3 SWAP2 SWAP1 PUSH2 0x2EC9 JUMP JUMPDEST PUSH1 0x20 PUSH1 0x40 MLOAD DUP1 DUP4 SUB DUP2 PUSH0 DUP8 GAS CALL ISZERO DUP1 ISZERO PUSH2 0x1682 JUMPI RETURNDATASIZE PUSH0 DUP1 RETURNDATACOPY RETURNDATASIZE PUSH0 REVERT JUMPDEST POP POP POP POP PUSH1 0x40 MLOAD RETURNDATASIZE PUSH1 0x1F NOT PUSH1 0x1F DUP3 ADD AND DUP3 ADD DUP1 PUSH1 0x40 MSTORE POP DUP2 ADD SWAP1 PUSH2 0x16A6 SWAP2 SWAP1 PUSH2 0x2F12 JUMP JUMPDEST PUSH2 0x16E5 JUMPI PUSH1 0x40 MLOAD PUSH32 0x8C379A000000000000000000000000000000000000000000000000000000000 DUP2 MSTORE PUSH1 0x4 ADD PUSH2 0x16DC SWAP1 PUSH2 0x2F87 JUMP JUMPDEST PUSH1 0x40 MLOAD DUP1 SWAP2 SUB SWAP1 REVERT JUMPDEST PUSH0 DUP2 PUSH1 0x9 PUSH0 SWAP1 SLOAD SWAP1 PUSH2 0x100 EXP SWAP1 DIV PUSH20 0xFFFFFFFFFFFFFFFFFFFFFFFFFFFFFFFFFFFFFFFF AND PUSH20 0xFFFFFFFFFFFFFFFFFFFFFFFFFFFFFFFFFFFFFFFF AND PUSH4 0x70A08231 ADDRESS PUSH1 0x40 MLOAD DUP3 PUSH4 0xFFFFFFFF AND PUSH1 0xE0 SHL DUP2 MSTORE PUSH1 0x4 ADD PUSH2 0x1741 SWAP2 SWAP1 PUSH2 0x2BDC JUMP JUMPDEST PUSH1 0x20 PUSH1 0x40 MLOAD DUP1 DUP4 SUB DUP2 DUP7 GAS STATICCALL ISZERO DUP1 ISZERO PUSH2 0x175C JUMPI RETURNDATASIZE PUSH0 DUP1 RETURNDATACOPY RETURNDATASIZE PUSH0 REVERT JUMPDEST POP POP POP POP PUSH1 0x40 MLOAD RETURNDATASIZE PUSH1 0x1F NOT PUSH1 0x1F DUP3 ADD AND DUP3 ADD DUP1 PUSH1 0x40 MSTORE POP DUP2 ADD SWAP1 PUSH2 0x1780 SWAP2 SWAP1 PUSH2 0x2D8F JUMP JUMPDEST PUSH2 0x178A SWAP2 SWAP1 PUSH2 0x3223 JUMP JUMPDEST SWAP1 POP PUSH3 0xF4240 DUP6 PUSH2 0x179B SWAP2 SWAP1 PUSH2 0x3223 JUMP JUMPDEST DUP2 LT ISZERO DUP1 ISZERO PUSH2 0x17B8 JUMPI POP PUSH3 0xF4240 DUP6 PUSH2 0x17B4 SWAP2 SWAP1 PUSH2 0x2FD2 JUMP JUMPDEST DUP2 GT ISZERO JUMPDEST PUSH2 0x17F7 JUMPI PUSH1 0x40 MLOAD PUSH32 0x8C379A000000000000000000000000000000000000000000000000000000000 DUP2 MSTORE PUSH1 0x4 ADD PUSH2 0x17EE SWAP1 PUSH2 0x35FF JUMP JUMPDEST PUSH1 0x40 MLOAD DUP1 SWAP2 SUB SWAP1 REVERT JUMPDEST DUP5 PUSH1 0xC PUSH0 DUP3 DUP3 SLOAD PUSH2 0x1808 SWAP2 SWAP1 PUSH2 0x2FD2 JUMP JUMPDEST SWAP3 POP POP DUP2 SWAP1 SSTORE POP DUP3 PUSH1 0xB PUSH0 DUP3 DUP3 SLOAD PUSH2 0x1820 SWAP2 SWAP1 PUSH2 0x3223 JUMP JUMPDEST SWAP3 POP POP DUP2 SWAP1 SSTORE POP PUSH2 0x1839 PUSH2 0x1832 PUSH2 0xD44 JUMP JUMPDEST CALLER DUP6 PUSH2 0x2041 JUMP JUMPDEST PUSH1 0x7 PUSH0 SWAP1 SLOAD SWAP1 PUSH2 0x100 EXP SWAP1 DIV PUSH20 0xFFFFFFFFFFFFFFFFFFFFFFFFFFFFFFFFFFFFFFFF AND PUSH20 0xFFFFFFFFFFFFFFFFFFFFFFFFFFFFFFFFFFFFFFFF AND PUSH4 0xAB0EE682 CALLER ADDRESS DUP7 PUSH1 0x40 MLOAD DUP5 PUSH4 0xFFFFFFFF AND PUSH1 0xE0 SHL DUP2 MSTORE PUSH1 0x4 ADD PUSH2 0x1897 SWAP4 SWAP3 SWAP2 SWAP1 PUSH2 0x3667 JUMP JUMPDEST PUSH0 PUSH1 0x40 MLOAD DUP1 DUP4 SUB DUP2 PUSH0 DUP8 DUP1 EXTCODESIZE ISZERO DUP1 ISZERO PUSH2 0x18AE JUMPI PUSH0 DUP1 REVERT JUMPDEST POP GAS CALL ISZERO DUP1 ISZERO PUSH2 0x18C0 JUMPI RETURNDATASIZE PUSH0 DUP1 RETURNDATACOPY RETURNDATASIZE PUSH0 REVERT JUMPDEST POP POP POP POP PUSH1 0x7 PUSH0 SWAP1 SLOAD SWAP1 PUSH2 0x100 EXP SWAP1 DIV PUSH20 0xFFFFFFFFFFFFFFFFFFFFFFFFFFFFFFFFFFFFFFFF AND PUSH20 0xFFFFFFFFFFFFFFFFFFFFFFFFFFFFFFFFFFFFFFFF AND PUSH4 0xAB0EE682 ADDRESS CALLER DUP9 PUSH1 0x40 MLOAD DUP5 PUSH4 0xFFFFFFFF AND PUSH1 0xE0 SHL DUP2 MSTORE PUSH1 0x4 ADD PUSH2 0x1922 SWAP4 SWAP3 SWAP2 SWAP1 PUSH2 0x36F9 JUMP JUMPDEST PUSH0 PUSH1 0x40 MLOAD DUP1 DUP4 SUB DUP2 PUSH0 DUP8 DUP1 EXTCODESIZE ISZERO DUP1 ISZERO PUSH2 0x1939 JUMPI PUSH0 DUP1 REVERT JUMPDEST POP GAS CALL ISZERO DUP1 ISZERO PUSH2 0x194B JUMPI RETURNDATASIZE PUSH0 DUP1 RETURNDATACOPY RETURNDATASIZE PUSH0 REVERT JUMPDEST POP POP POP POP CALLER PUSH20 0xFFFFFFFFFFFFFFFFFFFFFFFFFFFFFFFFFFFFFFFF AND PUSH32 0xC0BCDC28F6619D8BA6313614295A1F7B0477A1AD3F83EC463254630F3C5A306F DUP5 DUP8 PUSH1 0x40 MLOAD PUSH2 0x1997 SWAP3 SWAP2 SWAP1 PUSH2 0x3741 JUMP JUMPDEST PUSH1 0x40 MLOAD DUP1 SWAP2 SUB SWAP1 LOG2 POP POP POP POP POP JUMP JUMPDEST PUSH1 0x1 ISZERO ISZERO PUSH1 0x12 PUSH0 CALLER PUSH20 0xFFFFFFFFFFFFFFFFFFFFFFFFFFFFFFFFFFFFFFFF AND PUSH20 0xFFFFFFFFFFFFFFFFFFFFFFFFFFFFFFFFFFFFFFFF AND DUP2 MSTORE PUSH1 0x20 ADD SWAP1 DUP2 MSTORE PUSH1 0x20 ADD PUSH0 KECCAK256 PUSH0 SWAP1 SLOAD SWAP1 PUSH2 0x100 EXP SWAP1 DIV PUSH1 0xFF AND ISZERO ISZERO EQ PUSH2 0x1A36 JUMPI PUSH1 0x40 MLOAD PUSH32 0x8C379A000000000000000000000000000000000000000000000000000000000 DUP2 MSTORE PUSH1 0x4 ADD PUSH2 0x1A2D SWAP1 PUSH2 0x37B2 JUMP JUMPDEST PUSH1 0x40 MLOAD DUP1 SWAP2 SUB SWAP1 REVERT JUMPDEST DUP1 PUSH1 0xB DUP2 SWAP1 SSTORE POP PUSH32 0xA1F96F7FA140217BC5D0A96BA383BEF3818737E35A1F4017843A8BDD7862B86F DUP2 PUSH1 0x40 MLOAD PUSH2 0x1A6C SWAP2 SWAP1 PUSH2 0x28E9 JUMP JUMPDEST PUSH1 0x40 MLOAD DUP1 SWAP2 SUB SWAP1 LOG1 POP JUMP JUMPDEST PUSH1 0x10 PUSH1 0x20 MSTORE DUP1 PUSH0 MSTORE PUSH1 0x40 PUSH0 KECCAK256 PUSH0 SWAP2 POP SWAP1 POP SLOAD DUP2 JUMP JUMPDEST PUSH1 0x1 ISZERO ISZERO PUSH1 0x12 PUSH0 CALLER PUSH20 0xFFFFFFFFFFFFFFFFFFFFFFFFFFFFFFFFFFFFFFFF AND PUSH20 0xFFFFFFFFFFFFFFFFFFFFFFFFFFFFFFFFFFFFFFFF AND DUP2 MSTORE PUSH1 0x20 ADD SWAP1 DUP2 MSTORE PUSH1 0x20 ADD PUSH0 KECCAK256 PUSH0 SWAP1 SLOAD SWAP1 PUSH2 0x100 EXP SWAP1 DIV PUSH1 0xFF AND ISZERO ISZERO EQ PUSH2 0x1B1C JUMPI PUSH1 0x40 MLOAD PUSH32 0x8C379A000000000000000000000000000000000000000000000000000000000 DUP2 MSTORE PUSH1 0x4 ADD PUSH2 0x1B13 SWAP1 PUSH2 0x37B2 JUMP JUMPDEST PUSH1 0x40 MLOAD DUP1 SWAP2 SUB SWAP1 REVERT JUMPDEST PUSH0 DUP2 GT PUSH2 0x1B5E JUMPI PUSH1 0x40 MLOAD PUSH32 0x8C379A000000000000000000000000000000000000000000000000000000000 DUP2 MSTORE PUSH1 0x4 ADD PUSH2 0x1B55 SWAP1 PUSH2 0x2EAB JUMP JUMPDEST PUSH1 0x40 MLOAD DUP1 SWAP2 SUB SWAP1 REVERT JUMPDEST PUSH1 0xC SLOAD DUP2 GT ISZERO PUSH2 0x1BA3 JUMPI PUSH1 0x40 MLOAD PUSH32 0x8C379A000000000000000000000000000000000000000000000000000000000 DUP2 MSTORE PUSH1 0x4 ADD PUSH2 0x1B9A SWAP1 PUSH2 0x381A JUMP JUMPDEST PUSH1 0x40 MLOAD DUP1 SWAP2 SUB SWAP1 REVERT JUMPDEST DUP1 PUSH1 0xC PUSH0 DUP3 DUP3 SLOAD PUSH2 0x1BB4 SWAP2 SWAP1 PUSH2 0x3223 JUMP JUMPDEST SWAP3 POP POP DUP2 SWAP1 SSTORE POP PUSH1 0x9 PUSH0 SWAP1 SLOAD SWAP1 PUSH2 0x100 EXP SWAP1 DIV PUSH20 0xFFFFFFFFFFFFFFFFFFFFFFFFFFFFFFFFFFFFFFFF AND PUSH20 0xFFFFFFFFFFFFFFFFFFFFFFFFFFFFFFFFFFFFFFFF AND PUSH4 0xA9059CBB PUSH2 0x1C00 PUSH2 0xD44 JUMP JUMPDEST DUP4 PUSH1 0x40 MLOAD DUP4 PUSH4 0xFFFFFFFF AND PUSH1 0xE0 SHL DUP2 MSTORE PUSH1 0x4 ADD PUSH2 0x1C1E SWAP3 SWAP2 SWAP1 PUSH2 0x32BE JUMP JUMPDEST PUSH1 0x20 PUSH1 0x40 MLOAD DUP1 DUP4 SUB DUP2 PUSH0 DUP8 GAS CALL ISZERO DUP1 ISZERO PUSH2 0x1C3A JUMPI RETURNDATASIZE PUSH0 DUP1 RETURNDATACOPY RETURNDATASIZE PUSH0 REVERT JUMPDEST POP POP POP POP PUSH1 0x40 MLOAD RETURNDATASIZE PUSH1 0x1F NOT PUSH1 0x1F DUP3 ADD AND DUP3 ADD DUP1 PUSH1 0x40 MSTORE POP DUP2 ADD SWAP1 PUSH2 0x1C5E SWAP2 SWAP1 PUSH2 0x2F12 JUMP JUMPDEST PUSH2 0x1C9D JUMPI PUSH1 0x40 MLOAD PUSH32 0x8C379A000000000000000000000000000000000000000000000000000000000 DUP2 MSTORE PUSH1 0x4 ADD PUSH2 0x1C94 SWAP1 PUSH2 0x2F87 JUMP JUMPDEST PUSH1 0x40 MLOAD DUP1 SWAP2 SUB SWAP1 REVERT JUMPDEST PUSH2 0x1CA5 PUSH2 0xD44 JUMP JUMPDEST PUSH20 0xFFFFFFFFFFFFFFFFFFFFFFFFFFFFFFFFFFFFFFFF AND PUSH32 0xF8447AA22B3477C5230344F1EAACDB857516C66017E96D5F556345CDD1ACA111 DUP3 PUSH1 0x40 MLOAD PUSH2 0x1CEA SWAP2 SWAP1 PUSH2 0x28E9 JUMP JUMPDEST PUSH1 0x40 MLOAD DUP1 SWAP2 SUB SWAP1 LOG2 POP JUMP JUMPDEST PUSH1 0x1 ISZERO ISZERO PUSH1 0x12 PUSH0 CALLER PUSH20 0xFFFFFFFFFFFFFFFFFFFFFFFFFFFFFFFFFFFFFFFF AND PUSH20 0xFFFFFFFFFFFFFFFFFFFFFFFFFFFFFFFFFFFFFFFF AND DUP2 MSTORE PUSH1 0x20 ADD SWAP1 DUP2 MSTORE PUSH1 0x20 ADD PUSH0 KECCAK256 PUSH0 SWAP1 SLOAD SWAP1 PUSH2 0x100 EXP SWAP1 DIV PUSH1 0xFF AND ISZERO ISZERO EQ PUSH2 0x1D85 JUMPI PUSH1 0x40 MLOAD PUSH32 0x8C379A000000000000000000000000000000000000000000000000000000000 DUP2 MSTORE PUSH1 0x4 ADD PUSH2 0x1D7C SWAP1 PUSH2 0x37B2 JUMP JUMPDEST PUSH1 0x40 MLOAD DUP1 SWAP2 SUB SWAP1 REVERT JUMPDEST PUSH0 DUP2 GT PUSH2 0x1DC7 JUMPI PUSH1 0x40 MLOAD PUSH32 0x8C379A000000000000000000000000000000000000000000000000000000000 DUP2 MSTORE PUSH1 0x4 ADD PUSH2 0x1DBE SWAP1 PUSH2 0x3882 JUMP JUMPDEST PUSH1 0x40 MLOAD DUP1 SWAP2 SUB SWAP1 REVERT JUMPDEST DUP1 PUSH1 0xA DUP2 SWAP1 SSTORE POP PUSH32 0x388F446E9526FE5C9AF20A5919B342370C8A7C0CB05245AFE1E545658FA3CDBA DUP2 PUSH1 0x40 MLOAD PUSH2 0x1DFD SWAP2 SWAP1 PUSH2 0x28E9 JUMP JUMPDEST PUSH1 0x40 MLOAD DUP1 SWAP2 SUB SWAP1 LOG1 POP JUMP JUMPDEST PUSH0 PUSH1 0x1 PUSH0 DUP5 PUSH20 0xFFFFFFFFFFFFFFFFFFFFFFFFFFFFFFFFFFFFFFFF AND PUSH20 0xFFFFFFFFFFFFFFFFFFFFFFFFFFFFFFFFFFFFFFFF AND DUP2 MSTORE PUSH1 0x20 ADD SWAP1 DUP2 MSTORE PUSH1 0x20 ADD PUSH0 KECCAK256 PUSH0 DUP4 PUSH20 0xFFFFFFFFFFFFFFFFFFFFFFFFFFFFFFFFFFFFFFFF AND PUSH20 0xFFFFFFFFFFFFFFFFFFFFFFFFFFFFFFFFFFFFFFFF AND DUP2 MSTORE PUSH1 0x20 ADD SWAP1 DUP2 MSTORE PUSH1 0x20 ADD PUSH0 KECCAK256 SLOAD SWAP1 POP SWAP3 SWAP2 POP POP JUMP JUMPDEST PUSH2 0x1E92 PUSH2 0x1F27 JUMP JUMPDEST PUSH0 PUSH20 0xFFFFFFFFFFFFFFFFFFFFFFFFFFFFFFFFFFFFFFFF AND DUP2 PUSH20 0xFFFFFFFFFFFFFFFFFFFFFFFFFFFFFFFFFFFFFFFF AND SUB PUSH2 0x1F02 JUMPI PUSH0 PUSH1 0x40 MLOAD PUSH32 0x1E4FBDF700000000000000000000000000000000000000000000000000000000 DUP2 MSTORE PUSH1 0x4 ADD PUSH2 0x1EF9 SWAP2 SWAP1 PUSH2 0x2BDC JUMP JUMPDEST PUSH1 0x40 MLOAD DUP1 SWAP2 SUB SWAP1 REVERT JUMPDEST PUSH2 0x1F0B DUP2 PUSH2 0x2131 JUMP JUMPDEST POP JUMP JUMPDEST PUSH0 CALLER SWAP1 POP SWAP1 JUMP JUMPDEST PUSH2 0x1F22 DUP4 DUP4 DUP4 PUSH1 0x1 PUSH2 0x2427 JUMP JUMPDEST POP POP POP JUMP JUMPDEST PUSH2 0x1F2F PUSH2 0x1F0E JUMP JUMPDEST PUSH20 0xFFFFFFFFFFFFFFFFFFFFFFFFFFFFFFFFFFFFFFFF AND PUSH2 0x1F4D PUSH2 0xD44 JUMP JUMPDEST PUSH20 0xFFFFFFFFFFFFFFFFFFFFFFFFFFFFFFFFFFFFFFFF AND EQ PUSH2 0x1FAC JUMPI PUSH2 0x1F70 PUSH2 0x1F0E JUMP JUMPDEST PUSH1 0x40 MLOAD PUSH32 0x118CDAA700000000000000000000000000000000000000000000000000000000 DUP2 MSTORE PUSH1 0x4 ADD PUSH2 0x1FA3 SWAP2 SWAP1 PUSH2 0x2BDC JUMP JUMPDEST PUSH1 0x40 MLOAD DUP1 SWAP2 SUB SWAP1 REVERT JUMPDEST JUMP JUMPDEST PUSH0 PUSH2 0x1FB9 DUP5 DUP5 PUSH2 0x1E08 JUMP JUMPDEST SWAP1 POP PUSH32 0xFFFFFFFFFFFFFFFFFFFFFFFFFFFFFFFFFFFFFFFFFFFFFFFFFFFFFFFFFFFFFFFF DUP2 LT ISZERO PUSH2 0x203B JUMPI DUP2 DUP2 LT ISZERO PUSH2 0x202C JUMPI DUP3 DUP2 DUP4 PUSH1 0x40 MLOAD PUSH32 0xFB8F41B200000000000000000000000000000000000000000000000000000000 DUP2 MSTORE PUSH1 0x4 ADD PUSH2 0x2023 SWAP4 SWAP3 SWAP2 SWAP1 PUSH2 0x38A0 JUMP JUMPDEST PUSH1 0x40 MLOAD DUP1 SWAP2 SUB SWAP1 REVERT JUMPDEST PUSH2 0x203A DUP5 DUP5 DUP5 DUP5 SUB PUSH0 PUSH2 0x2427 JUMP JUMPDEST JUMPDEST POP POP POP POP JUMP JUMPDEST PUSH0 PUSH20 0xFFFFFFFFFFFFFFFFFFFFFFFFFFFFFFFFFFFFFFFF AND DUP4 PUSH20 0xFFFFFFFFFFFFFFFFFFFFFFFFFFFFFFFFFFFFFFFF AND SUB PUSH2 0x20B1 JUMPI PUSH0 PUSH1 0x40 MLOAD PUSH32 0x96C6FD1E00000000000000000000000000000000000000000000000000000000 DUP2 MSTORE PUSH1 0x4 ADD PUSH2 0x20A8 SWAP2 SWAP1 PUSH2 0x2BDC JUMP JUMPDEST PUSH1 0x40 MLOAD DUP1 SWAP2 SUB SWAP1 REVERT JUMPDEST PUSH0 PUSH20 0xFFFFFFFFFFFFFFFFFFFFFFFFFFFFFFFFFFFFFFFF AND DUP3 PUSH20 0xFFFFFFFFFFFFFFFFFFFFFFFFFFFFFFFFFFFFFFFF AND SUB PUSH2 0x2121 JUMPI PUSH0 PUSH1 0x40 MLOAD PUSH32 0xEC442F0500000000000000000000000000000000000000000000000000000000 DUP2 MSTORE PUSH1 0x4 ADD PUSH2 0x2118 SWAP2 SWAP1 PUSH2 0x2BDC JUMP JUMPDEST PUSH1 0x40 MLOAD DUP1 SWAP2 SUB SWAP1 REVERT JUMPDEST PUSH2 0x212C DUP4 DUP4 DUP4 PUSH2 0x25F6 JUMP JUMPDEST POP POP POP JUMP JUMPDEST PUSH0 PUSH1 0x5 PUSH0 SWAP1 SLOAD SWAP1 PUSH2 0x100 EXP SWAP1 DIV PUSH20 0xFFFFFFFFFFFFFFFFFFFFFFFFFFFFFFFFFFFFFFFF AND SWAP1 POP DUP2 PUSH1 0x5 PUSH0 PUSH2 0x100 EXP DUP2 SLOAD DUP2 PUSH20 0xFFFFFFFFFFFFFFFFFFFFFFFFFFFFFFFFFFFFFFFF MUL NOT AND SWAP1 DUP4 PUSH20 0xFFFFFFFFFFFFFFFFFFFFFFFFFFFFFFFFFFFFFFFF AND MUL OR SWAP1 SSTORE POP DUP2 PUSH20 0xFFFFFFFFFFFFFFFFFFFFFFFFFFFFFFFFFFFFFFFF AND DUP2 PUSH20 0xFFFFFFFFFFFFFFFFFFFFFFFFFFFFFFFFFFFFFFFF AND PUSH32 0x8BE0079C531659141344CD1FD0A4F28419497F9722A3DAAFE3B4186F6B6457E0 PUSH1 0x40 MLOAD PUSH1 0x40 MLOAD DUP1 SWAP2 SUB SWAP1 LOG3 POP POP JUMP JUMPDEST PUSH0 PUSH2 0x21FE DUP3 PUSH2 0xCBB JUMP JUMPDEST SWAP1 POP PUSH0 PUSH2 0x2209 PUSH2 0x7AD JUMP JUMPDEST SWAP1 POP PUSH0 DUP3 EQ DUP1 PUSH2 0x2218 JUMPI POP PUSH0 DUP2 EQ JUMPDEST ISZERO PUSH2 0x2224 JUMPI POP POP PUSH2 0x2424 JUMP JUMPDEST PUSH0 PUSH1 0x11 PUSH0 DUP6 PUSH20 0xFFFFFFFFFFFFFFFFFFFFFFFFFFFFFFFFFFFFFFFF AND PUSH20 0xFFFFFFFFFFFFFFFFFFFFFFFFFFFFFFFFFFFFFFFF AND DUP2 MSTORE PUSH1 0x20 ADD SWAP1 DUP2 MSTORE PUSH1 0x20 ADD PUSH0 KECCAK256 SLOAD PUSH1 0xD SLOAD PUSH2 0x2270 SWAP2 SWAP1 PUSH2 0x3223 JUMP JUMPDEST SWAP1 POP PUSH0 DUP3 DUP5 DUP4 PUSH2 0x2280 SWAP2 SWAP1 PUSH2 0x3447 JUMP JUMPDEST PUSH2 0x228A SWAP2 SWAP1 PUSH2 0x34B5 JUMP JUMPDEST SWAP1 POP PUSH2 0x22CB PUSH1 0x40 MLOAD DUP1 PUSH1 0x40 ADD PUSH1 0x40 MSTORE DUP1 PUSH1 0xA DUP2 MSTORE PUSH1 0x20 ADD PUSH32 0x6E657750726F6669743A00000000000000000000000000000000000000000000 DUP2 MSTORE POP DUP4 PUSH2 0x280F JUMP JUMPDEST PUSH2 0x230A PUSH1 0x40 MLOAD DUP1 PUSH1 0x40 ADD PUSH1 0x40 MSTORE DUP1 PUSH1 0xA DUP2 MSTORE PUSH1 0x20 ADD PUSH32 0x7573657253746F636B3A00000000000000000000000000000000000000000000 DUP2 MSTORE POP DUP6 PUSH2 0x280F JUMP JUMPDEST PUSH2 0x2349 PUSH1 0x40 MLOAD DUP1 PUSH1 0x40 ADD PUSH1 0x40 MSTORE DUP1 PUSH1 0xB DUP2 MSTORE PUSH1 0x20 ADD PUSH32 0x746F74616C53746F636B3A000000000000000000000000000000000000000000 DUP2 MSTORE POP DUP5 PUSH2 0x280F JUMP JUMPDEST PUSH2 0x2388 PUSH1 0x40 MLOAD DUP1 PUSH1 0x40 ADD PUSH1 0x40 MSTORE DUP1 PUSH1 0xB DUP2 MSTORE PUSH1 0x20 ADD PUSH32 0x7573657250726F6669743A000000000000000000000000000000000000000000 DUP2 MSTORE POP DUP3 PUSH2 0x280F JUMP JUMPDEST DUP1 PUSH1 0xF PUSH0 DUP8 PUSH20 0xFFFFFFFFFFFFFFFFFFFFFFFFFFFFFFFFFFFFFFFF AND PUSH20 0xFFFFFFFFFFFFFFFFFFFFFFFFFFFFFFFFFFFFFFFF AND DUP2 MSTORE PUSH1 0x20 ADD SWAP1 DUP2 MSTORE PUSH1 0x20 ADD PUSH0 KECCAK256 PUSH0 DUP3 DUP3 SLOAD PUSH2 0x23D4 SWAP2 SWAP1 PUSH2 0x2FD2 JUMP JUMPDEST SWAP3 POP POP DUP2 SWAP1 SSTORE POP PUSH1 0xD SLOAD PUSH1 0x11 PUSH0 DUP8 PUSH20 0xFFFFFFFFFFFFFFFFFFFFFFFFFFFFFFFFFFFFFFFF AND PUSH20 0xFFFFFFFFFFFFFFFFFFFFFFFFFFFFFFFFFFFFFFFF AND DUP2 MSTORE PUSH1 0x20 ADD SWAP1 DUP2 MSTORE PUSH1 0x20 ADD PUSH0 KECCAK256 DUP2 SWAP1 SSTORE POP POP POP POP POP JUMPDEST POP JUMP JUMPDEST PUSH0 PUSH20 0xFFFFFFFFFFFFFFFFFFFFFFFFFFFFFFFFFFFFFFFF AND DUP5 PUSH20 0xFFFFFFFFFFFFFFFFFFFFFFFFFFFFFFFFFFFFFFFF AND SUB PUSH2 0x2497 JUMPI PUSH0 PUSH1 0x40 MLOAD PUSH32 0xE602DF0500000000000000000000000000000000000000000000000000000000 DUP2 MSTORE PUSH1 0x4 ADD PUSH2 0x248E SWAP2 SWAP1 PUSH2 0x2BDC JUMP JUMPDEST PUSH1 0x40 MLOAD DUP1 SWAP2 SUB SWAP1 REVERT JUMPDEST PUSH0 PUSH20 0xFFFFFFFFFFFFFFFFFFFFFFFFFFFFFFFFFFFFFFFF AND DUP4 PUSH20 0xFFFFFFFFFFFFFFFFFFFFFFFFFFFFFFFFFFFFFFFF AND SUB PUSH2 0x2507 JUMPI PUSH0 PUSH1 0x40 MLOAD PUSH32 0x94280D6200000000000000000000000000000000000000000000000000000000 DUP2 MSTORE PUSH1 0x4 ADD PUSH2 0x24FE SWAP2 SWAP1 PUSH2 0x2BDC JUMP JUMPDEST PUSH1 0x40 MLOAD DUP1 SWAP2 SUB SWAP1 REVERT JUMPDEST DUP2 PUSH1 0x1 PUSH0 DUP7 PUSH20 0xFFFFFFFFFFFFFFFFFFFFFFFFFFFFFFFFFFFFFFFF AND PUSH20 0xFFFFFFFFFFFFFFFFFFFFFFFFFFFFFFFFFFFFFFFF AND DUP2 MSTORE PUSH1 0x20 ADD SWAP1 DUP2 MSTORE PUSH1 0x20 ADD PUSH0 KECCAK256 PUSH0 DUP6 PUSH20 0xFFFFFFFFFFFFFFFFFFFFFFFFFFFFFFFFFFFFFFFF AND PUSH20 0xFFFFFFFFFFFFFFFFFFFFFFFFFFFFFFFFFFFFFFFF AND DUP2 MSTORE PUSH1 0x20 ADD SWAP1 DUP2 MSTORE PUSH1 0x20 ADD PUSH0 KECCAK256 DUP2 SWAP1 SSTORE POP DUP1 ISZERO PUSH2 0x25F0 JUMPI DUP3 PUSH20 0xFFFFFFFFFFFFFFFFFFFFFFFFFFFFFFFFFFFFFFFF AND DUP5 PUSH20 0xFFFFFFFFFFFFFFFFFFFFFFFFFFFFFFFFFFFFFFFF AND PUSH32 0x8C5BE1E5EBEC7D5BD14F71427D1E84F3DD0314C0F7B2291E5B200AC8C7C3B925 DUP5 PUSH1 0x40 MLOAD PUSH2 0x25E7 SWAP2 SWAP1 PUSH2 0x28E9 JUMP JUMPDEST PUSH1 0x40 MLOAD DUP1 SWAP2 SUB SWAP1 LOG3 JUMPDEST POP POP POP POP JUMP JUMPDEST PUSH0 PUSH20 0xFFFFFFFFFFFFFFFFFFFFFFFFFFFFFFFFFFFFFFFF AND DUP4 PUSH20 0xFFFFFFFFFFFFFFFFFFFFFFFFFFFFFFFFFFFFFFFF AND SUB PUSH2 0x2646 JUMPI DUP1 PUSH1 0x2 PUSH0 DUP3 DUP3 SLOAD PUSH2 0x263A SWAP2 SWAP1 PUSH2 0x2FD2 JUMP JUMPDEST SWAP3 POP POP DUP2 SWAP1 SSTORE POP PUSH2 0x2714 JUMP JUMPDEST PUSH0 DUP1 PUSH0 DUP6 PUSH20 0xFFFFFFFFFFFFFFFFFFFFFFFFFFFFFFFFFFFFFFFF AND PUSH20 0xFFFFFFFFFFFFFFFFFFFFFFFFFFFFFFFFFFFFFFFF AND DUP2 MSTORE PUSH1 0x20 ADD SWAP1 DUP2 MSTORE PUSH1 0x20 ADD PUSH0 KECCAK256 SLOAD SWAP1 POP DUP2 DUP2 LT ISZERO PUSH2 0x26CF JUMPI DUP4 DUP2 DUP4 PUSH1 0x40 MLOAD PUSH32 0xE450D38C00000000000000000000000000000000000000000000000000000000 DUP2 MSTORE PUSH1 0x4 ADD PUSH2 0x26C6 SWAP4 SWAP3 SWAP2 SWAP1 PUSH2 0x38A0 JUMP JUMPDEST PUSH1 0x40 MLOAD DUP1 SWAP2 SUB SWAP1 REVERT JUMPDEST DUP2 DUP2 SUB PUSH0 DUP1 DUP7 PUSH20 0xFFFFFFFFFFFFFFFFFFFFFFFFFFFFFFFFFFFFFFFF AND PUSH20 0xFFFFFFFFFFFFFFFFFFFFFFFFFFFFFFFFFFFFFFFF AND DUP2 MSTORE PUSH1 0x20 ADD SWAP1 DUP2 MSTORE PUSH1 0x20 ADD PUSH0 KECCAK256 DUP2 SWAP1 SSTORE POP POP JUMPDEST PUSH0 PUSH20 0xFFFFFFFFFFFFFFFFFFFFFFFFFFFFFFFFFFFFFFFF AND DUP3 PUSH20 0xFFFFFFFFFFFFFFFFFFFFFFFFFFFFFFFFFFFFFFFF AND SUB PUSH2 0x275B JUMPI DUP1 PUSH1 0x2 PUSH0 DUP3 DUP3 SLOAD SUB SWAP3 POP POP DUP2 SWAP1 SSTORE POP PUSH2 0x27A5 JUMP JUMPDEST DUP1 PUSH0 DUP1 DUP5 PUSH20 0xFFFFFFFFFFFFFFFFFFFFFFFFFFFFFFFFFFFFFFFF AND PUSH20 0xFFFFFFFFFFFFFFFFFFFFFFFFFFFFFFFFFFFFFFFF AND DUP2 MSTORE PUSH1 0x20 ADD SWAP1 DUP2 MSTORE PUSH1 0x20 ADD PUSH0 KECCAK256 PUSH0 DUP3 DUP3 SLOAD ADD SWAP3 POP POP DUP2 SWAP1 SSTORE POP JUMPDEST DUP2 PUSH20 0xFFFFFFFFFFFFFFFFFFFFFFFFFFFFFFFFFFFFFFFF AND DUP4 PUSH20 0xFFFFFFFFFFFFFFFFFFFFFFFFFFFFFFFFFFFFFFFF AND PUSH32 0xDDF252AD1BE2C89B69C2B068FC378DAA952BA7F163C4A11628F55A4DF523B3EF DUP4 PUSH1 0x40 MLOAD PUSH2 0x2802 SWAP2 SWAP1 PUSH2 0x28E9 JUMP JUMPDEST PUSH1 0x40 MLOAD DUP1 SWAP2 SUB SWAP1 LOG3 POP POP POP JUMP JUMPDEST PUSH2 0x28A7 DUP3 DUP3 PUSH1 0x40 MLOAD PUSH1 0x24 ADD PUSH2 0x2825 SWAP3 SWAP2 SWAP1 PUSH2 0x38D5 JUMP JUMPDEST PUSH1 0x40 MLOAD PUSH1 0x20 DUP2 DUP4 SUB SUB DUP2 MSTORE SWAP1 PUSH1 0x40 MSTORE PUSH32 0x9710A9D000000000000000000000000000000000000000000000000000000000 PUSH28 0xFFFFFFFFFFFFFFFFFFFFFFFFFFFFFFFFFFFFFFFFFFFFFFFFFFFFFFFF NOT AND PUSH1 0x20 DUP3 ADD DUP1 MLOAD PUSH28 0xFFFFFFFFFFFFFFFFFFFFFFFFFFFFFFFFFFFFFFFFFFFFFFFFFFFFFFFF DUP4 DUP2 DUP4 AND OR DUP4 MSTORE POP POP POP POP PUSH2 0x28AB JUMP JUMPDEST POP POP JUMP JUMPDEST PUSH0 DUP2 MLOAD SWAP1 POP PUSH0 PUSH11 0x636F6E736F6C652E6C6F67 SWAP1 POP PUSH1 0x20 DUP4 ADD PUSH0 DUP1 DUP5 DUP4 DUP6 GAS STATICCALL POP POP POP POP POP JUMP JUMPDEST PUSH0 DUP2 SWAP1 POP SWAP2 SWAP1 POP JUMP JUMPDEST PUSH2 0x28E3 DUP2 PUSH2 0x28D1 JUMP JUMPDEST DUP3 MSTORE POP POP JUMP JUMPDEST PUSH0 PUSH1 0x20 DUP3 ADD SWAP1 POP PUSH2 0x28FC PUSH0 DUP4 ADD DUP5 PUSH2 0x28DA JUMP JUMPDEST SWAP3 SWAP2 POP POP JUMP JUMPDEST PUSH0 DUP2 MLOAD SWAP1 POP SWAP2 SWAP1 POP JUMP JUMPDEST PUSH0 DUP3 DUP3 MSTORE PUSH1 0x20 DUP3 ADD SWAP1 POP SWAP3 SWAP2 POP POP JUMP JUMPDEST DUP3 DUP2 DUP4 MCOPY PUSH0 DUP4 DUP4 ADD MSTORE POP POP POP JUMP JUMPDEST PUSH0 PUSH1 0x1F NOT PUSH1 0x1F DUP4 ADD AND SWAP1 POP SWAP2 SWAP1 POP JUMP JUMPDEST PUSH0 PUSH2 0x2944 DUP3 PUSH2 0x2902 JUMP JUMPDEST PUSH2 0x294E DUP2 DUP6 PUSH2 0x290C JUMP JUMPDEST SWAP4 POP PUSH2 0x295E DUP2 DUP6 PUSH1 0x20 DUP7 ADD PUSH2 0x291C JUMP JUMPDEST PUSH2 0x2967 DUP2 PUSH2 0x292A JUMP JUMPDEST DUP5 ADD SWAP2 POP POP SWAP3 SWAP2 POP POP JUMP JUMPDEST PUSH0 PUSH1 0x20 DUP3 ADD SWAP1 POP DUP2 DUP2 SUB PUSH0 DUP4 ADD MSTORE PUSH2 0x298A DUP2 DUP5 PUSH2 0x293A JUMP JUMPDEST SWAP1 POP SWAP3 SWAP2 POP POP JUMP JUMPDEST PUSH0 DUP1 REVERT JUMPDEST PUSH0 PUSH20 0xFFFFFFFFFFFFFFFFFFFFFFFFFFFFFFFFFFFFFFFF DUP3 AND SWAP1 POP SWAP2 SWAP1 POP JUMP JUMPDEST PUSH0 PUSH2 0x29BF DUP3 PUSH2 0x2996 JUMP JUMPDEST SWAP1 POP SWAP2 SWAP1 POP JUMP JUMPDEST PUSH2 0x29CF DUP2 PUSH2 0x29B5 JUMP JUMPDEST DUP2 EQ PUSH2 0x29D9 JUMPI PUSH0 DUP1 REVERT JUMPDEST POP JUMP JUMPDEST PUSH0 DUP2 CALLDATALOAD SWAP1 POP PUSH2 0x29EA DUP2 PUSH2 0x29C6 JUMP JUMPDEST SWAP3 SWAP2 POP POP JUMP JUMPDEST PUSH2 0x29F9 DUP2 PUSH2 0x28D1 JUMP JUMPDEST DUP2 EQ PUSH2 0x2A03 JUMPI PUSH0 DUP1 REVERT JUMPDEST POP JUMP JUMPDEST PUSH0 DUP2 CALLDATALOAD SWAP1 POP PUSH2 0x2A14 DUP2 PUSH2 0x29F0 JUMP JUMPDEST SWAP3 SWAP2 POP POP JUMP JUMPDEST PUSH0 DUP1 PUSH1 0x40 DUP4 DUP6 SUB SLT ISZERO PUSH2 0x2A30 JUMPI PUSH2 0x2A2F PUSH2 0x2992 JUMP JUMPDEST JUMPDEST PUSH0 PUSH2 0x2A3D DUP6 DUP3 DUP7 ADD PUSH2 0x29DC JUMP JUMPDEST SWAP3 POP POP PUSH1 0x20 PUSH2 0x2A4E DUP6 DUP3 DUP7 ADD PUSH2 0x2A06 JUMP JUMPDEST SWAP2 POP POP SWAP3 POP SWAP3 SWAP1 POP JUMP JUMPDEST PUSH0 DUP2 ISZERO ISZERO SWAP1 POP SWAP2 SWAP1 POP JUMP JUMPDEST PUSH2 0x2A6C DUP2 PUSH2 0x2A58 JUMP JUMPDEST DUP3 MSTORE POP POP JUMP JUMPDEST PUSH0 PUSH1 0x20 DUP3 ADD SWAP1 POP PUSH2 0x2A85 PUSH0 DUP4 ADD DUP5 PUSH2 0x2A63 JUMP JUMPDEST SWAP3 SWAP2 POP POP JUMP JUMPDEST PUSH0 PUSH1 0x20 DUP3 DUP5 SUB SLT ISZERO PUSH2 0x2AA0 JUMPI PUSH2 0x2A9F PUSH2 0x2992 JUMP JUMPDEST JUMPDEST PUSH0 PUSH2 0x2AAD DUP5 DUP3 DUP6 ADD PUSH2 0x29DC JUMP JUMPDEST SWAP2 POP POP SWAP3 SWAP2 POP POP JUMP JUMPDEST PUSH0 DUP1 PUSH0 PUSH1 0x60 DUP5 DUP7 SUB SLT ISZERO PUSH2 0x2ACD JUMPI PUSH2 0x2ACC PUSH2 0x2992 JUMP JUMPDEST JUMPDEST PUSH0 PUSH2 0x2ADA DUP7 DUP3 DUP8 ADD PUSH2 0x29DC JUMP JUMPDEST SWAP4 POP POP PUSH1 0x20 PUSH2 0x2AEB DUP7 DUP3 DUP8 ADD PUSH2 0x29DC JUMP JUMPDEST SWAP3 POP POP PUSH1 0x40 PUSH2 0x2AFC DUP7 DUP3 DUP8 ADD PUSH2 0x2A06 JUMP JUMPDEST SWAP2 POP POP SWAP3 POP SWAP3 POP SWAP3 JUMP JUMPDEST PUSH0 PUSH1 0x20 DUP3 DUP5 SUB SLT ISZERO PUSH2 0x2B1B JUMPI PUSH2 0x2B1A PUSH2 0x2992 JUMP JUMPDEST JUMPDEST PUSH0 PUSH2 0x2B28 DUP5 DUP3 DUP6 ADD PUSH2 0x2A06 JUMP JUMPDEST SWAP2 POP POP SWAP3 SWAP2 POP POP JUMP JUMPDEST PUSH0 PUSH1 0xFF DUP3 AND SWAP1 POP SWAP2 SWAP1 POP JUMP JUMPDEST PUSH2 0x2B46 DUP2 PUSH2 0x2B31 JUMP JUMPDEST DUP3 MSTORE POP POP JUMP JUMPDEST PUSH0 PUSH1 0x20 DUP3 ADD SWAP1 POP PUSH2 0x2B5F PUSH0 DUP4 ADD DUP5 PUSH2 0x2B3D JUMP JUMPDEST SWAP3 SWAP2 POP POP JUMP JUMPDEST PUSH2 0x2B6E DUP2 PUSH2 0x2A58 JUMP JUMPDEST DUP2 EQ PUSH2 0x2B78 JUMPI PUSH0 DUP1 REVERT JUMPDEST POP JUMP JUMPDEST PUSH0 DUP2 CALLDATALOAD SWAP1 POP PUSH2 0x2B89 DUP2 PUSH2 0x2B65 JUMP JUMPDEST SWAP3 SWAP2 POP POP JUMP JUMPDEST PUSH0 DUP1 PUSH1 0x40 DUP4 DUP6 SUB SLT ISZERO PUSH2 0x2BA5 JUMPI PUSH2 0x2BA4 PUSH2 0x2992 JUMP JUMPDEST JUMPDEST PUSH0 PUSH2 0x2BB2 DUP6 DUP3 DUP7 ADD PUSH2 0x29DC JUMP JUMPDEST SWAP3 POP POP PUSH1 0x20 PUSH2 0x2BC3 DUP6 DUP3 DUP7 ADD PUSH2 0x2B7B JUMP JUMPDEST SWAP2 POP POP SWAP3 POP SWAP3 SWAP1 POP JUMP JUMPDEST PUSH2 0x2BD6 DUP2 PUSH2 0x29B5 JUMP JUMPDEST DUP3 MSTORE POP POP JUMP JUMPDEST PUSH0 PUSH1 0x20 DUP3 ADD SWAP1 POP PUSH2 0x2BEF PUSH0 DUP4 ADD DUP5 PUSH2 0x2BCD JUMP JUMPDEST SWAP3 SWAP2 POP POP JUMP JUMPDEST PUSH0 DUP2 SWAP1 POP SWAP2 SWAP1 POP JUMP JUMPDEST PUSH0 PUSH2 0x2C18 PUSH2 0x2C13 PUSH2 0x2C0E DUP5 PUSH2 0x2996 JUMP JUMPDEST PUSH2 0x2BF5 JUMP JUMPDEST PUSH2 0x2996 JUMP JUMPDEST SWAP1 POP SWAP2 SWAP1 POP JUMP JUMPDEST PUSH0 PUSH2 0x2C29 DUP3 PUSH2 0x2BFE JUMP JUMPDEST SWAP1 POP SWAP2 SWAP1 POP JUMP JUMPDEST PUSH0 PUSH2 0x2C3A DUP3 PUSH2 0x2C1F JUMP JUMPDEST SWAP1 POP SWAP2 SWAP1 POP JUMP JUMPDEST PUSH2 0x2C4A DUP2 PUSH2 0x2C30 JUMP JUMPDEST DUP3 MSTORE POP POP JUMP JUMPDEST PUSH0 PUSH1 0x20 DUP3 ADD SWAP1 POP PUSH2 0x2C63 PUSH0 DUP4 ADD DUP5 PUSH2 0x2C41 JUMP JUMPDEST SWAP3 SWAP2 POP POP JUMP JUMPDEST PUSH0 PUSH2 0x2C73 DUP3 PUSH2 0x2C1F JUMP JUMPDEST SWAP1 POP SWAP2 SWAP1 POP JUMP JUMPDEST PUSH2 0x2C83 DUP2 PUSH2 0x2C69 JUMP JUMPDEST DUP3 MSTORE POP POP JUMP JUMPDEST PUSH0 PUSH1 0x20 DUP3 ADD SWAP1 POP PUSH2 0x2C9C PUSH0 DUP4 ADD DUP5 PUSH2 0x2C7A JUMP JUMPDEST SWAP3 SWAP2 POP POP JUMP JUMPDEST PUSH0 DUP1 PUSH1 0x40 DUP4 DUP6 SUB SLT ISZERO PUSH2 0x2CB8 JUMPI PUSH2 0x2CB7 PUSH2 0x2992 JUMP JUMPDEST JUMPDEST PUSH0 PUSH2 0x2CC5 DUP6 DUP3 DUP7 ADD PUSH2 0x2A06 JUMP JUMPDEST SWAP3 POP POP PUSH1 0x20 PUSH2 0x2CD6 DUP6 DUP3 DUP7 ADD PUSH2 0x2A06 JUMP JUMPDEST SWAP2 POP POP SWAP3 POP SWAP3 SWAP1 POP JUMP JUMPDEST PUSH0 DUP1 PUSH1 0x40 DUP4 DUP6 SUB SLT ISZERO PUSH2 0x2CF6 JUMPI PUSH2 0x2CF5 PUSH2 0x2992 JUMP JUMPDEST JUMPDEST PUSH0 PUSH2 0x2D03 DUP6 DUP3 DUP7 ADD PUSH2 0x29DC JUMP JUMPDEST SWAP3 POP POP PUSH1 0x20 PUSH2 0x2D14 DUP6 DUP3 DUP7 ADD PUSH2 0x29DC JUMP JUMPDEST SWAP2 POP POP SWAP3 POP SWAP3 SWAP1 POP JUMP JUMPDEST PUSH32 0x4E487B7100000000000000000000000000000000000000000000000000000000 PUSH0 MSTORE PUSH1 0x22 PUSH1 0x4 MSTORE PUSH1 0x24 PUSH0 REVERT JUMPDEST PUSH0 PUSH1 0x2 DUP3 DIV SWAP1 POP PUSH1 0x1 DUP3 AND DUP1 PUSH2 0x2D62 JUMPI PUSH1 0x7F DUP3 AND SWAP2 POP JUMPDEST PUSH1 0x20 DUP3 LT DUP2 SUB PUSH2 0x2D75 JUMPI PUSH2 0x2D74 PUSH2 0x2D1E JUMP JUMPDEST JUMPDEST POP SWAP2 SWAP1 POP JUMP JUMPDEST PUSH0 DUP2 MLOAD SWAP1 POP PUSH2 0x2D89 DUP2 PUSH2 0x29F0 JUMP JUMPDEST SWAP3 SWAP2 POP POP JUMP JUMPDEST PUSH0 PUSH1 0x20 DUP3 DUP5 SUB SLT ISZERO PUSH2 0x2DA4 JUMPI PUSH2 0x2DA3 PUSH2 0x2992 JUMP JUMPDEST JUMPDEST PUSH0 PUSH2 0x2DB1 DUP5 DUP3 DUP6 ADD PUSH2 0x2D7B JUMP JUMPDEST SWAP2 POP POP SWAP3 SWAP2 POP POP JUMP JUMPDEST PUSH0 DUP2 MLOAD SWAP1 POP PUSH2 0x2DC8 DUP2 PUSH2 0x29C6 JUMP JUMPDEST SWAP3 SWAP2 POP POP JUMP JUMPDEST PUSH0 PUSH1 0x20 DUP3 DUP5 SUB SLT ISZERO PUSH2 0x2DE3 JUMPI PUSH2 0x2DE2 PUSH2 0x2992 JUMP JUMPDEST JUMPDEST PUSH0 PUSH2 0x2DF0 DUP5 DUP3 DUP6 ADD PUSH2 0x2DBA JUMP JUMPDEST SWAP2 POP POP SWAP3 SWAP2 POP POP JUMP JUMPDEST PUSH32 0x4E6F7420617574686F72697A6564000000000000000000000000000000000000 PUSH0 DUP3 ADD MSTORE POP JUMP JUMPDEST PUSH0 PUSH2 0x2E2D PUSH1 0xE DUP4 PUSH2 0x290C JUMP JUMPDEST SWAP2 POP PUSH2 0x2E38 DUP3 PUSH2 0x2DF9 JUMP JUMPDEST PUSH1 0x20 DUP3 ADD SWAP1 POP SWAP2 SWAP1 POP JUMP JUMPDEST PUSH0 PUSH1 0x20 DUP3 ADD SWAP1 POP DUP2 DUP2 SUB PUSH0 DUP4 ADD MSTORE PUSH2 0x2E5A DUP2 PUSH2 0x2E21 JUMP JUMPDEST SWAP1 POP SWAP2 SWAP1 POP JUMP JUMPDEST PUSH32 0x416D6F756E74206D7573742062652067726561746572207468616E2030000000 PUSH0 DUP3 ADD MSTORE POP JUMP JUMPDEST PUSH0 PUSH2 0x2E95 PUSH1 0x1D DUP4 PUSH2 0x290C JUMP JUMPDEST SWAP2 POP PUSH2 0x2EA0 DUP3 PUSH2 0x2E61 JUMP JUMPDEST PUSH1 0x20 DUP3 ADD SWAP1 POP SWAP2 SWAP1 POP JUMP JUMPDEST PUSH0 PUSH1 0x20 DUP3 ADD SWAP1 POP DUP2 DUP2 SUB PUSH0 DUP4 ADD MSTORE PUSH2 0x2EC2 DUP2 PUSH2 0x2E89 JUMP JUMPDEST SWAP1 POP SWAP2 SWAP1 POP JUMP JUMPDEST PUSH0 PUSH1 0x60 DUP3 ADD SWAP1 POP PUSH2 0x2EDC PUSH0 DUP4 ADD DUP7 PUSH2 0x2BCD JUMP JUMPDEST PUSH2 0x2EE9 PUSH1 0x20 DUP4 ADD DUP6 PUSH2 0x2BCD JUMP JUMPDEST PUSH2 0x2EF6 PUSH1 0x40 DUP4 ADD DUP5 PUSH2 0x28DA JUMP JUMPDEST SWAP5 SWAP4 POP POP POP POP JUMP JUMPDEST PUSH0 DUP2 MLOAD SWAP1 POP PUSH2 0x2F0C DUP2 PUSH2 0x2B65 JUMP JUMPDEST SWAP3 SWAP2 POP POP JUMP JUMPDEST PUSH0 PUSH1 0x20 DUP3 DUP5 SUB SLT ISZERO PUSH2 0x2F27 JUMPI PUSH2 0x2F26 PUSH2 0x2992 JUMP JUMPDEST JUMPDEST PUSH0 PUSH2 0x2F34 DUP5 DUP3 DUP6 ADD PUSH2 0x2EFE JUMP JUMPDEST SWAP2 POP POP SWAP3 SWAP2 POP POP JUMP JUMPDEST PUSH32 0x55534454207472616E73666572206661696C6564000000000000000000000000 PUSH0 DUP3 ADD MSTORE POP JUMP JUMPDEST PUSH0 PUSH2 0x2F71 PUSH1 0x14 DUP4 PUSH2 0x290C JUMP JUMPDEST SWAP2 POP PUSH2 0x2F7C DUP3 PUSH2 0x2F3D JUMP JUMPDEST PUSH1 0x20 DUP3 ADD SWAP1 POP SWAP2 SWAP1 POP JUMP JUMPDEST PUSH0 PUSH1 0x20 DUP3 ADD SWAP1 POP DUP2 DUP2 SUB PUSH0 DUP4 ADD MSTORE PUSH2 0x2F9E DUP2 PUSH2 0x2F65 JUMP JUMPDEST SWAP1 POP SWAP2 SWAP1 POP JUMP JUMPDEST PUSH32 0x4E487B7100000000000000000000000000000000000000000000000000000000 PUSH0 MSTORE PUSH1 0x11 PUSH1 0x4 MSTORE PUSH1 0x24 PUSH0 REVERT JUMPDEST PUSH0 PUSH2 0x2FDC DUP3 PUSH2 0x28D1 JUMP JUMPDEST SWAP2 POP PUSH2 0x2FE7 DUP4 PUSH2 0x28D1 JUMP JUMPDEST SWAP3 POP DUP3 DUP3 ADD SWAP1 POP DUP1 DUP3 GT ISZERO PUSH2 0x2FFF JUMPI PUSH2 0x2FFE PUSH2 0x2FA5 JUMP JUMPDEST JUMPDEST SWAP3 SWAP2 POP POP JUMP JUMPDEST PUSH32 0x5245574152440000000000000000000000000000000000000000000000000000 PUSH0 DUP3 ADD MSTORE POP JUMP JUMPDEST PUSH0 PUSH2 0x3039 PUSH1 0x6 DUP4 PUSH2 0x290C JUMP JUMPDEST SWAP2 POP PUSH2 0x3044 DUP3 PUSH2 0x3005 JUMP JUMPDEST PUSH1 0x20 DUP3 ADD SWAP1 POP SWAP2 SWAP1 POP JUMP JUMPDEST PUSH0 PUSH1 0x80 DUP3 ADD SWAP1 POP DUP2 DUP2 SUB PUSH0 DUP4 ADD MSTORE PUSH2 0x3066 DUP2 PUSH2 0x302D JUMP JUMPDEST SWAP1 POP PUSH2 0x3075 PUSH1 0x20 DUP4 ADD DUP7 PUSH2 0x2BCD JUMP JUMPDEST PUSH2 0x3082 PUSH1 0x40 DUP4 ADD DUP6 PUSH2 0x2BCD JUMP JUMPDEST PUSH2 0x308F PUSH1 0x60 DUP4 ADD DUP5 PUSH2 0x28DA JUMP JUMPDEST SWAP5 SWAP4 POP POP POP POP JUMP JUMPDEST PUSH32 0x5749544844524157000000000000000000000000000000000000000000000000 PUSH0 DUP3 ADD MSTORE POP JUMP JUMPDEST PUSH0 PUSH2 0x30CB PUSH1 0x8 DUP4 PUSH2 0x290C JUMP JUMPDEST SWAP2 POP PUSH2 0x30D6 DUP3 PUSH2 0x3097 JUMP JUMPDEST PUSH1 0x20 DUP3 ADD SWAP1 POP SWAP2 SWAP1 POP JUMP JUMPDEST PUSH0 PUSH1 0x80 DUP3 ADD SWAP1 POP DUP2 DUP2 SUB PUSH0 DUP4 ADD MSTORE PUSH2 0x30F8 DUP2 PUSH2 0x30BF JUMP JUMPDEST SWAP1 POP PUSH2 0x3107 PUSH1 0x20 DUP4 ADD DUP7 PUSH2 0x2BCD JUMP JUMPDEST PUSH2 0x3114 PUSH1 0x40 DUP4 ADD DUP6 PUSH2 0x2BCD JUMP JUMPDEST PUSH2 0x3121 PUSH1 0x60 DUP4 ADD DUP5 PUSH2 0x28DA JUMP JUMPDEST SWAP5 SWAP4 POP POP POP POP JUMP JUMPDEST PUSH32 0x4E6F7420656E6F7567682062616C616E63650000000000000000000000000000 PUSH0 DUP3 ADD MSTORE POP JUMP JUMPDEST PUSH0 PUSH2 0x315D PUSH1 0x12 DUP4 PUSH2 0x290C JUMP JUMPDEST SWAP2 POP PUSH2 0x3168 DUP3 PUSH2 0x3129 JUMP JUMPDEST PUSH1 0x20 DUP3 ADD SWAP1 POP SWAP2 SWAP1 POP JUMP JUMPDEST PUSH0 PUSH1 0x20 DUP3 ADD SWAP1 POP DUP2 DUP2 SUB PUSH0 DUP4 ADD MSTORE PUSH2 0x318A DUP2 PUSH2 0x3151 JUMP JUMPDEST SWAP1 POP SWAP2 SWAP1 POP JUMP JUMPDEST PUSH32 0x5452414E53464552000000000000000000000000000000000000000000000000 PUSH0 DUP3 ADD MSTORE POP JUMP JUMPDEST PUSH0 PUSH2 0x31C5 PUSH1 0x8 DUP4 PUSH2 0x290C JUMP JUMPDEST SWAP2 POP PUSH2 0x31D0 DUP3 PUSH2 0x3191 JUMP JUMPDEST PUSH1 0x20 DUP3 ADD SWAP1 POP SWAP2 SWAP1 POP JUMP JUMPDEST PUSH0 PUSH1 0x80 DUP3 ADD SWAP1 POP DUP2 DUP2 SUB PUSH0 DUP4 ADD MSTORE PUSH2 0x31F2 DUP2 PUSH2 0x31B9 JUMP JUMPDEST SWAP1 POP PUSH2 0x3201 PUSH1 0x20 DUP4 ADD DUP7 PUSH2 0x2BCD JUMP JUMPDEST PUSH2 0x320E PUSH1 0x40 DUP4 ADD DUP6 PUSH2 0x2BCD JUMP JUMPDEST PUSH2 0x321B PUSH1 0x60 DUP4 ADD DUP5 PUSH2 0x28DA JUMP JUMPDEST SWAP5 SWAP4 POP POP POP POP JUMP JUMPDEST PUSH0 PUSH2 0x322D DUP3 PUSH2 0x28D1 JUMP JUMPDEST SWAP2 POP PUSH2 0x3238 DUP4 PUSH2 0x28D1 JUMP JUMPDEST SWAP3 POP DUP3 DUP3 SUB SWAP1 POP DUP2 DUP2 GT ISZERO PUSH2 0x3250 JUMPI PUSH2 0x324F PUSH2 0x2FA5 JUMP JUMPDEST JUMPDEST SWAP3 SWAP2 POP POP JUMP JUMPDEST PUSH32 0x496E73756666696369656E7420555344542062616C616E636500000000000000 PUSH0 DUP3 ADD MSTORE POP JUMP JUMPDEST PUSH0 PUSH2 0x328A PUSH1 0x19 DUP4 PUSH2 0x290C JUMP JUMPDEST SWAP2 POP PUSH2 0x3295 DUP3 PUSH2 0x3256 JUMP JUMPDEST PUSH1 0x20 DUP3 ADD SWAP1 POP SWAP2 SWAP1 POP JUMP JUMPDEST PUSH0 PUSH1 0x20 DUP3 ADD SWAP1 POP DUP2 DUP2 SUB PUSH0 DUP4 ADD MSTORE PUSH2 0x32B7 DUP2 PUSH2 0x327E JUMP JUMPDEST SWAP1 POP SWAP2 SWAP1 POP JUMP JUMPDEST PUSH0 PUSH1 0x40 DUP3 ADD SWAP1 POP PUSH2 0x32D1 PUSH0 DUP4 ADD DUP6 PUSH2 0x2BCD JUMP JUMPDEST PUSH2 0x32DE PUSH1 0x20 DUP4 ADD DUP5 PUSH2 0x28DA JUMP JUMPDEST SWAP4 SWAP3 POP POP POP JUMP JUMPDEST PUSH32 0x434C41494D000000000000000000000000000000000000000000000000000000 PUSH0 DUP3 ADD MSTORE POP JUMP JUMPDEST PUSH0 PUSH2 0x3319 PUSH1 0x5 DUP4 PUSH2 0x290C JUMP JUMPDEST SWAP2 POP PUSH2 0x3324 DUP3 PUSH2 0x32E5 JUMP JUMPDEST PUSH1 0x20 DUP3 ADD SWAP1 POP SWAP2 SWAP1 POP JUMP JUMPDEST PUSH0 PUSH1 0x80 DUP3 ADD SWAP1 POP DUP2 DUP2 SUB PUSH0 DUP4 ADD MSTORE PUSH2 0x3346 DUP2 PUSH2 0x330D JUMP JUMPDEST SWAP1 POP PUSH2 0x3355 PUSH1 0x20 DUP4 ADD DUP7 PUSH2 0x2BCD JUMP JUMPDEST PUSH2 0x3362 PUSH1 0x40 DUP4 ADD DUP6 PUSH2 0x2BCD JUMP JUMPDEST PUSH2 0x336F PUSH1 0x60 DUP4 ADD DUP5 PUSH2 0x28DA JUMP JUMPDEST SWAP5 SWAP4 POP POP POP POP JUMP JUMPDEST PUSH32 0x4D7573742073656E64205553445420746F206275792073746F636B0000000000 PUSH0 DUP3 ADD MSTORE POP JUMP JUMPDEST PUSH0 PUSH2 0x33AB PUSH1 0x1B DUP4 PUSH2 0x290C JUMP JUMPDEST SWAP2 POP PUSH2 0x33B6 DUP3 PUSH2 0x3377 JUMP JUMPDEST PUSH1 0x20 DUP3 ADD SWAP1 POP SWAP2 SWAP1 POP JUMP JUMPDEST PUSH0 PUSH1 0x20 DUP3 ADD SWAP1 POP DUP2 DUP2 SUB PUSH0 DUP4 ADD MSTORE PUSH2 0x33D8 DUP2 PUSH2 0x339F JUMP JUMPDEST SWAP1 POP SWAP2 SWAP1 POP JUMP JUMPDEST PUSH32 0x45786368616E67652072617465206368616E6765640000000000000000000000 PUSH0 DUP3 ADD MSTORE POP JUMP JUMPDEST PUSH0 PUSH2 0x3413 PUSH1 0x15 DUP4 PUSH2 0x290C JUMP JUMPDEST SWAP2 POP PUSH2 0x341E DUP3 PUSH2 0x33DF JUMP JUMPDEST PUSH1 0x20 DUP3 ADD SWAP1 POP SWAP2 SWAP1 POP JUMP JUMPDEST PUSH0 PUSH1 0x20 DUP3 ADD SWAP1 POP DUP2 DUP2 SUB PUSH0 DUP4 ADD MSTORE PUSH2 0x3440 DUP2 PUSH2 0x3407 JUMP JUMPDEST SWAP1 POP SWAP2 SWAP1 POP JUMP JUMPDEST PUSH0 PUSH2 0x3451 DUP3 PUSH2 0x28D1 JUMP JUMPDEST SWAP2 POP PUSH2 0x345C DUP4 PUSH2 0x28D1 JUMP JUMPDEST SWAP3 POP DUP3 DUP3 MUL PUSH2 0x346A DUP2 PUSH2 0x28D1 JUMP JUMPDEST SWAP2 POP DUP3 DUP3 DIV DUP5 EQ DUP4 ISZERO OR PUSH2 0x3481 JUMPI PUSH2 0x3480 PUSH2 0x2FA5 JUMP JUMPDEST JUMPDEST POP SWAP3 SWAP2 POP POP JUMP JUMPDEST PUSH32 0x4E487B7100000000000000000000000000000000000000000000000000000000 PUSH0 MSTORE PUSH1 0x12 PUSH1 0x4 MSTORE PUSH1 0x24 PUSH0 REVERT JUMPDEST PUSH0 PUSH2 0x34BF DUP3 PUSH2 0x28D1 JUMP JUMPDEST SWAP2 POP PUSH2 0x34CA DUP4 PUSH2 0x28D1 JUMP JUMPDEST SWAP3 POP DUP3 PUSH2 0x34DA JUMPI PUSH2 0x34D9 PUSH2 0x3488 JUMP JUMPDEST JUMPDEST DUP3 DUP3 DIV SWAP1 POP SWAP3 SWAP2 POP POP JUMP JUMPDEST PUSH32 0x4E6F7420656E6F7567682073746F636B20696E20746869732073616C65000000 PUSH0 DUP3 ADD MSTORE POP JUMP JUMPDEST PUSH0 PUSH2 0x3519 PUSH1 0x1D DUP4 PUSH2 0x290C JUMP JUMPDEST SWAP2 POP PUSH2 0x3524 DUP3 PUSH2 0x34E5 JUMP JUMPDEST PUSH1 0x20 DUP3 ADD SWAP1 POP SWAP2 SWAP1 POP JUMP JUMPDEST PUSH0 PUSH1 0x20 DUP3 ADD SWAP1 POP DUP2 DUP2 SUB PUSH0 DUP4 ADD MSTORE PUSH2 0x3546 DUP2 PUSH2 0x350D JUMP JUMPDEST SWAP1 POP SWAP2 SWAP1 POP JUMP JUMPDEST PUSH32 0x4E6F7420656E6F7567682073746F636B20617661696C61626C65000000000000 PUSH0 DUP3 ADD MSTORE POP JUMP JUMPDEST PUSH0 PUSH2 0x3581 PUSH1 0x1A DUP4 PUSH2 0x290C JUMP JUMPDEST SWAP2 POP PUSH2 0x358C DUP3 PUSH2 0x354D JUMP JUMPDEST PUSH1 0x20 DUP3 ADD SWAP1 POP SWAP2 SWAP1 POP JUMP JUMPDEST PUSH0 PUSH1 0x20 DUP3 ADD SWAP1 POP DUP2 DUP2 SUB PUSH0 DUP4 ADD MSTORE PUSH2 0x35AE DUP2 PUSH2 0x3575 JUMP JUMPDEST SWAP1 POP SWAP2 SWAP1 POP JUMP JUMPDEST PUSH32 0x496E636F72726563742055534454207472616E7366657220616D6F756E740000 PUSH0 DUP3 ADD MSTORE POP JUMP JUMPDEST PUSH0 PUSH2 0x35E9 PUSH1 0x1E DUP4 PUSH2 0x290C JUMP JUMPDEST SWAP2 POP PUSH2 0x35F4 DUP3 PUSH2 0x35B5 JUMP JUMPDEST PUSH1 0x20 DUP3 ADD SWAP1 POP SWAP2 SWAP1 POP JUMP JUMPDEST PUSH0 PUSH1 0x20 DUP3 ADD SWAP1 POP DUP2 DUP2 SUB PUSH0 DUP4 ADD MSTORE PUSH2 0x3616 DUP2 PUSH2 0x35DD JUMP JUMPDEST SWAP1 POP SWAP2 SWAP1 POP JUMP JUMPDEST PUSH32 0x4255590000000000000000000000000000000000000000000000000000000000 PUSH0 DUP3 ADD MSTORE POP JUMP JUMPDEST PUSH0 PUSH2 0x3651 PUSH1 0x3 DUP4 PUSH2 0x290C JUMP JUMPDEST SWAP2 POP PUSH2 0x365C DUP3 PUSH2 0x361D JUMP JUMPDEST PUSH1 0x20 DUP3 ADD SWAP1 POP SWAP2 SWAP1 POP JUMP JUMPDEST PUSH0 PUSH1 0x80 DUP3 ADD SWAP1 POP DUP2 DUP2 SUB PUSH0 DUP4 ADD MSTORE PUSH2 0x367E DUP2 PUSH2 0x3645 JUMP JUMPDEST SWAP1 POP PUSH2 0x368D PUSH1 0x20 DUP4 ADD DUP7 PUSH2 0x2BCD JUMP JUMPDEST PUSH2 0x369A PUSH1 0x40 DUP4 ADD DUP6 PUSH2 0x2BCD JUMP JUMPDEST PUSH2 0x36A7 PUSH1 0x60 DUP4 ADD DUP5 PUSH2 0x28DA JUMP JUMPDEST SWAP5 SWAP4 POP POP POP POP JUMP JUMPDEST PUSH32 0x53454C4C00000000000000000000000000000000000000000000000000000000 PUSH0 DUP3 ADD MSTORE POP JUMP JUMPDEST PUSH0 PUSH2 0x36E3 PUSH1 0x4 DUP4 PUSH2 0x290C JUMP JUMPDEST SWAP2 POP PUSH2 0x36EE DUP3 PUSH2 0x36AF JUMP JUMPDEST PUSH1 0x20 DUP3 ADD SWAP1 POP SWAP2 SWAP1 POP JUMP JUMPDEST PUSH0 PUSH1 0x80 DUP3 ADD SWAP1 POP DUP2 DUP2 SUB PUSH0 DUP4 ADD MSTORE PUSH2 0x3710 DUP2 PUSH2 0x36D7 JUMP JUMPDEST SWAP1 POP PUSH2 0x371F PUSH1 0x20 DUP4 ADD DUP7 PUSH2 0x2BCD JUMP JUMPDEST PUSH2 0x372C PUSH1 0x40 DUP4 ADD DUP6 PUSH2 0x2BCD JUMP JUMPDEST PUSH2 0x3739 PUSH1 0x60 DUP4 ADD DUP5 PUSH2 0x28DA JUMP JUMPDEST SWAP5 SWAP4 POP POP POP POP JUMP JUMPDEST PUSH0 PUSH1 0x40 DUP3 ADD SWAP1 POP PUSH2 0x3754 PUSH0 DUP4 ADD DUP6 PUSH2 0x28DA JUMP JUMPDEST PUSH2 0x3761 PUSH1 0x20 DUP4 ADD DUP5 PUSH2 0x28DA JUMP JUMPDEST SWAP4 SWAP3 POP POP POP JUMP JUMPDEST PUSH32 0x6F6E6C792041646D696E00000000000000000000000000000000000000000000 PUSH0 DUP3 ADD MSTORE POP JUMP JUMPDEST PUSH0 PUSH2 0x379C PUSH1 0xA DUP4 PUSH2 0x290C JUMP JUMPDEST SWAP2 POP PUSH2 0x37A7 DUP3 PUSH2 0x3768 JUMP JUMPDEST PUSH1 0x20 DUP3 ADD SWAP1 POP SWAP2 SWAP1 POP JUMP JUMPDEST PUSH0 PUSH1 0x20 DUP3 ADD SWAP1 POP DUP2 DUP2 SUB PUSH0 DUP4 ADD MSTORE PUSH2 0x37C9 DUP2 PUSH2 0x3790 JUMP JUMPDEST SWAP1 POP SWAP2 SWAP1 POP JUMP JUMPDEST PUSH32 0x4E6F7420656E6F75676820555344542066726F6D207075726368617365730000 PUSH0 DUP3 ADD MSTORE POP JUMP JUMPDEST PUSH0 PUSH2 0x3804 PUSH1 0x1E DUP4 PUSH2 0x290C JUMP JUMPDEST SWAP2 POP PUSH2 0x380F DUP3 PUSH2 0x37D0 JUMP JUMPDEST PUSH1 0x20 DUP3 ADD SWAP1 POP SWAP2 SWAP1 POP JUMP JUMPDEST PUSH0 PUSH1 0x20 DUP3 ADD SWAP1 POP DUP2 DUP2 SUB PUSH0 DUP4 ADD MSTORE PUSH2 0x3831 DUP2 PUSH2 0x37F8 JUMP JUMPDEST SWAP1 POP SWAP2 SWAP1 POP JUMP JUMPDEST PUSH32 0x52617465206D7573742062652067726561746572207468616E20300000000000 PUSH0 DUP3 ADD MSTORE POP JUMP JUMPDEST PUSH0 PUSH2 0x386C PUSH1 0x1B DUP4 PUSH2 0x290C JUMP JUMPDEST SWAP2 POP PUSH2 0x3877 DUP3 PUSH2 0x3838 JUMP JUMPDEST PUSH1 0x20 DUP3 ADD SWAP1 POP SWAP2 SWAP1 POP JUMP JUMPDEST PUSH0 PUSH1 0x20 DUP3 ADD SWAP1 POP DUP2 DUP2 SUB PUSH0 DUP4 ADD MSTORE PUSH2 0x3899 DUP2 PUSH2 0x3860 JUMP JUMPDEST SWAP1 POP SWAP2 SWAP1 POP JUMP JUMPDEST PUSH0 PUSH1 0x60 DUP3 ADD SWAP1 POP PUSH2 0x38B3 PUSH0 DUP4 ADD DUP7 PUSH2 0x2BCD JUMP JUMPDEST PUSH2 0x38C0 PUSH1 0x20 DUP4 ADD DUP6 PUSH2 0x28DA JUMP JUMPDEST PUSH2 0x38CD PUSH1 0x40 DUP4 ADD DUP5 PUSH2 0x28DA JUMP JUMPDEST SWAP5 SWAP4 POP POP POP POP JUMP JUMPDEST PUSH0 PUSH1 0x40 DUP3 ADD SWAP1 POP DUP2 DUP2 SUB PUSH0 DUP4 ADD MSTORE PUSH2 0x38ED DUP2 DUP6 PUSH2 0x293A JUMP JUMPDEST SWAP1 POP PUSH2 0x38FC PUSH1 0x20 DUP4 ADD DUP5 PUSH2 0x28DA JUMP JUMPDEST SWAP4 SWAP3 POP POP POP JUMP INVALID LOG2 PUSH5 0x6970667358 0x22 SLT KECCAK256 SHL 0xC7 DUP7 0xCF EXTCODEHASH CALL 0xB5 JUMPDEST DUP8 PUSH13 0xF9D47D59C3A68A74308EC29E14 0xE1 0x4D 0x25 PUSH20 0x8D2A14850264736F6C634300081A003300000000 "
		},
		"gasEstimates": {
			"creation": {
				"codeDepositCost": "2929800",
				"executionCost": "infinite",
				"totalCost": "infinite"
			},
			"external": {
				"allowance(address,address)": "infinite",
				"approve(address,uint256)": "infinite",
				"balanceOf(address)": "2940",
				"buyStock(uint256,uint256)": "infinite",
				"claimUSDT(uint256)": "infinite",
				"currentHistory()": "2598",
				"decimals()": "406",
				"exchangeRate()": "2470",
				"historyFactory()": "infinite",
				"isAdmin(address)": "2945",
				"lastTotalUSDTReceived(address)": "2914",
				"lastUpdatedMonth()": "2492",
				"name()": "infinite",
				"owner()": "2627",
				"receiveProfitFromContract(uint256)": "infinite",
				"renounceOwnership()": "infinite",
				"saleQuota()": "2515",
				"setAdmin(address,bool)": "infinite",
				"setExchangeRate(uint256)": "infinite",
				"setSaleQuota(uint256)": "infinite",
				"setTreeCom(address)": "infinite",
				"symbol()": "infinite",
				"totalSupply()": "2478",
				"totalUSDTPurchased()": "2493",
				"totalUSDTReceived()": "2472",
				"totalUSDTWithdrawn()": "2471",
				"transfer(address,uint256)": "infinite",
				"transferFrom(address,address,uint256)": "infinite",
				"transferOwnership(address)": "infinite",
				"treeCommissionContract()": "2575",
				"updateTransactionHistory()": "infinite",
				"usdtToken()": "infinite",
				"userUSDTBalance(address)": "2848",
				"userUSDTWithdrawn(address)": "2846",
				"withdrawUSDTCommission()": "infinite",
				"withdrawUSDTPurchased(uint256)": "infinite"
			},
			"internal": {
				"updateUserCommission(address)": "infinite"
			}
		},
		"methodIdentifiers": {
			"allowance(address,address)": "dd62ed3e",
			"approve(address,uint256)": "095ea7b3",
			"balanceOf(address)": "70a08231",
			"buyStock(uint256,uint256)": "b9303dbd",
			"claimUSDT(uint256)": "b0f9006a",
			"currentHistory()": "8a9731dd",
			"decimals()": "313ce567",
			"exchangeRate()": "3ba0b9a9",
			"historyFactory()": "a1968579",
			"isAdmin(address)": "24d7806c",
			"lastTotalUSDTReceived(address)": "371047cd",
			"lastUpdatedMonth()": "45c91439",
			"name()": "06fdde03",
			"owner()": "8da5cb5b",
			"receiveProfitFromContract(uint256)": "29f94fb8",
			"renounceOwnership()": "715018a6",
			"saleQuota()": "366a1114",
			"setAdmin(address,bool)": "4b0bddd2",
			"setExchangeRate(uint256)": "db068e0e",
			"setSaleQuota(uint256)": "bb644776",
			"setTreeCom(address)": "13d7281e",
			"symbol()": "95d89b41",
			"totalSupply()": "18160ddd",
			"totalUSDTPurchased()": "88f6eac7",
			"totalUSDTReceived()": "06865151",
			"totalUSDTWithdrawn()": "73cb76ca",
			"transfer(address,uint256)": "a9059cbb",
			"transferFrom(address,address,uint256)": "23b872dd",
			"transferOwnership(address)": "f2fde38b",
			"treeCommissionContract()": "a0815a54",
			"updateTransactionHistory()": "20f1c043",
			"usdtToken()": "a98ad46c",
			"userUSDTBalance(address)": "30015118",
			"userUSDTWithdrawn(address)": "be6172ce",
			"withdrawUSDTCommission()": "a0de1c37",
			"withdrawUSDTPurchased(uint256)": "c28c2670"
		}
	},
	"abi": [
		{
			"inputs": [
				{
					"internalType": "string",
					"name": "name",
					"type": "string"
				},
				{
					"internalType": "string",
					"name": "symbol",
					"type": "string"
				},
				{
					"internalType": "uint256",
					"name": "initialSupply",
					"type": "uint256"
				},
				{
					"internalType": "uint256",
					"name": "_exchangeRate",
					"type": "uint256"
				},
				{
					"internalType": "uint256",
					"name": "_saleQuota",
					"type": "uint256"
				},
				{
					"internalType": "address",
					"name": "_usdtAddress",
					"type": "address"
				},
				{
					"internalType": "address",
					"name": "_historyFactory",
					"type": "address"
				}
			],
			"stateMutability": "nonpayable",
			"type": "constructor"
		},
		{
			"inputs": [
				{
					"internalType": "address",
					"name": "spender",
					"type": "address"
				},
				{
					"internalType": "uint256",
					"name": "allowance",
					"type": "uint256"
				},
				{
					"internalType": "uint256",
					"name": "needed",
					"type": "uint256"
				}
			],
			"name": "ERC20InsufficientAllowance",
			"type": "error"
		},
		{
			"inputs": [
				{
					"internalType": "address",
					"name": "sender",
					"type": "address"
				},
				{
					"internalType": "uint256",
					"name": "balance",
					"type": "uint256"
				},
				{
					"internalType": "uint256",
					"name": "needed",
					"type": "uint256"
				}
			],
			"name": "ERC20InsufficientBalance",
			"type": "error"
		},
		{
			"inputs": [
				{
					"internalType": "address",
					"name": "approver",
					"type": "address"
				}
			],
			"name": "ERC20InvalidApprover",
			"type": "error"
		},
		{
			"inputs": [
				{
					"internalType": "address",
					"name": "receiver",
					"type": "address"
				}
			],
			"name": "ERC20InvalidReceiver",
			"type": "error"
		},
		{
			"inputs": [
				{
					"internalType": "address",
					"name": "sender",
					"type": "address"
				}
			],
			"name": "ERC20InvalidSender",
			"type": "error"
		},
		{
			"inputs": [
				{
					"internalType": "address",
					"name": "spender",
					"type": "address"
				}
			],
			"name": "ERC20InvalidSpender",
			"type": "error"
		},
		{
			"inputs": [
				{
					"internalType": "address",
					"name": "owner",
					"type": "address"
				}
			],
			"name": "OwnableInvalidOwner",
			"type": "error"
		},
		{
			"inputs": [
				{
					"internalType": "address",
					"name": "account",
					"type": "address"
				}
			],
			"name": "OwnableUnauthorizedAccount",
			"type": "error"
		},
		{
			"anonymous": false,
			"inputs": [
				{
					"indexed": true,
					"internalType": "address",
					"name": "owner",
					"type": "address"
				},
				{
					"indexed": true,
					"internalType": "address",
					"name": "spender",
					"type": "address"
				},
				{
					"indexed": false,
					"internalType": "uint256",
					"name": "value",
					"type": "uint256"
				}
			],
			"name": "Approval",
			"type": "event"
		},
		{
			"anonymous": false,
			"inputs": [
				{
					"indexed": false,
					"internalType": "uint256",
					"name": "newRate",
					"type": "uint256"
				}
			],
			"name": "ExchangeRateUpdated",
			"type": "event"
		},
		{
			"anonymous": false,
			"inputs": [
				{
					"indexed": true,
					"internalType": "address",
					"name": "previousOwner",
					"type": "address"
				},
				{
					"indexed": true,
					"internalType": "address",
					"name": "newOwner",
					"type": "address"
				}
			],
			"name": "OwnershipTransferred",
			"type": "event"
		},
		{
			"anonymous": false,
			"inputs": [
				{
					"indexed": true,
					"internalType": "address",
					"name": "source",
					"type": "address"
				},
				{
					"indexed": false,
					"internalType": "uint256",
					"name": "amount",
					"type": "uint256"
				}
			],
			"name": "ProfitReceived",
			"type": "event"
		},
		{
			"anonymous": false,
			"inputs": [
				{
					"indexed": false,
					"internalType": "uint256",
					"name": "newQuota",
					"type": "uint256"
				}
			],
			"name": "SaleQuotaUpdated",
			"type": "event"
		},
		{
			"anonymous": false,
			"inputs": [
				{
					"indexed": true,
					"internalType": "address",
					"name": "buyer",
					"type": "address"
				},
				{
					"indexed": false,
					"internalType": "uint256",
					"name": "amount",
					"type": "uint256"
				},
				{
					"indexed": false,
					"internalType": "uint256",
					"name": "usdtSpent",
					"type": "uint256"
				}
			],
			"name": "StockPurchased",
			"type": "event"
		},
		{
			"anonymous": false,
			"inputs": [
				{
					"indexed": true,
					"internalType": "address",
					"name": "from",
					"type": "address"
				},
				{
					"indexed": true,
					"internalType": "address",
					"name": "to",
					"type": "address"
				},
				{
					"indexed": false,
					"internalType": "uint256",
					"name": "amount",
					"type": "uint256"
				}
			],
			"name": "StockTransferred",
			"type": "event"
		},
		{
			"anonymous": false,
			"inputs": [
				{
					"indexed": true,
					"internalType": "address",
					"name": "from",
					"type": "address"
				},
				{
					"indexed": true,
					"internalType": "address",
					"name": "to",
					"type": "address"
				},
				{
					"indexed": false,
					"internalType": "uint256",
					"name": "value",
					"type": "uint256"
				}
			],
			"name": "Transfer",
			"type": "event"
		},
		{
			"anonymous": false,
			"inputs": [
				{
					"indexed": true,
					"internalType": "address",
					"name": "owner",
					"type": "address"
				},
				{
					"indexed": false,
					"internalType": "uint256",
					"name": "amount",
					"type": "uint256"
				}
			],
			"name": "USDTPurchaseWithdrawn",
			"type": "event"
		},
		{
			"anonymous": false,
			"inputs": [
				{
					"indexed": true,
					"internalType": "address",
					"name": "user",
					"type": "address"
				},
				{
					"indexed": false,
					"internalType": "uint256",
					"name": "amount",
					"type": "uint256"
				}
			],
			"name": "USDTWithdrawn",
			"type": "event"
		},
		{
			"inputs": [
				{
					"internalType": "address",
					"name": "owner",
					"type": "address"
				},
				{
					"internalType": "address",
					"name": "spender",
					"type": "address"
				}
			],
			"name": "allowance",
			"outputs": [
				{
					"internalType": "uint256",
					"name": "",
					"type": "uint256"
				}
			],
			"stateMutability": "view",
			"type": "function"
		},
		{
			"inputs": [
				{
					"internalType": "address",
					"name": "spender",
					"type": "address"
				},
				{
					"internalType": "uint256",
					"name": "value",
					"type": "uint256"
				}
			],
			"name": "approve",
			"outputs": [
				{
					"internalType": "bool",
					"name": "",
					"type": "bool"
				}
			],
			"stateMutability": "nonpayable",
			"type": "function"
		},
		{
			"inputs": [
				{
					"internalType": "address",
					"name": "account",
					"type": "address"
				}
			],
			"name": "balanceOf",
			"outputs": [
				{
					"internalType": "uint256",
					"name": "",
					"type": "uint256"
				}
			],
			"stateMutability": "view",
			"type": "function"
		},
		{
			"inputs": [
				{
					"internalType": "uint256",
					"name": "usdtAmount",
					"type": "uint256"
				},
				{
					"internalType": "uint256",
					"name": "expectedRate",
					"type": "uint256"
				}
			],
			"name": "buyStock",
			"outputs": [],
			"stateMutability": "nonpayable",
			"type": "function"
		},
		{
			"inputs": [
				{
					"internalType": "uint256",
					"name": "amount",
					"type": "uint256"
				}
			],
			"name": "claimUSDT",
			"outputs": [],
			"stateMutability": "nonpayable",
			"type": "function"
		},
		{
			"inputs": [],
			"name": "currentHistory",
			"outputs": [
				{
					"internalType": "address",
					"name": "",
					"type": "address"
				}
			],
			"stateMutability": "view",
			"type": "function"
		},
		{
			"inputs": [],
			"name": "decimals",
			"outputs": [
				{
					"internalType": "uint8",
					"name": "",
					"type": "uint8"
				}
			],
			"stateMutability": "view",
			"type": "function"
		},
		{
			"inputs": [],
			"name": "exchangeRate",
			"outputs": [
				{
					"internalType": "uint256",
					"name": "",
					"type": "uint256"
				}
			],
			"stateMutability": "view",
			"type": "function"
		},
		{
			"inputs": [],
			"name": "historyFactory",
			"outputs": [
				{
					"internalType": "contract TransactionHistoryFactory",
					"name": "",
					"type": "address"
				}
			],
			"stateMutability": "view",
			"type": "function"
		},
		{
			"inputs": [
				{
					"internalType": "address",
					"name": "",
					"type": "address"
				}
			],
			"name": "isAdmin",
			"outputs": [
				{
					"internalType": "bool",
					"name": "",
					"type": "bool"
				}
			],
			"stateMutability": "view",
			"type": "function"
		},
		{
			"inputs": [
				{
					"internalType": "address",
					"name": "",
					"type": "address"
				}
			],
			"name": "lastTotalUSDTReceived",
			"outputs": [
				{
					"internalType": "uint256",
					"name": "",
					"type": "uint256"
				}
			],
			"stateMutability": "view",
			"type": "function"
		},
		{
			"inputs": [],
			"name": "lastUpdatedMonth",
			"outputs": [
				{
					"internalType": "uint256",
					"name": "",
					"type": "uint256"
				}
			],
			"stateMutability": "view",
			"type": "function"
		},
		{
			"inputs": [],
			"name": "name",
			"outputs": [
				{
					"internalType": "string",
					"name": "",
					"type": "string"
				}
			],
			"stateMutability": "view",
			"type": "function"
		},
		{
			"inputs": [],
			"name": "owner",
			"outputs": [
				{
					"internalType": "address",
					"name": "",
					"type": "address"
				}
			],
			"stateMutability": "view",
			"type": "function"
		},
		{
			"inputs": [
				{
					"internalType": "uint256",
					"name": "amount",
					"type": "uint256"
				}
			],
			"name": "receiveProfitFromContract",
			"outputs": [],
			"stateMutability": "nonpayable",
			"type": "function"
		},
		{
			"inputs": [],
			"name": "renounceOwnership",
			"outputs": [],
			"stateMutability": "nonpayable",
			"type": "function"
		},
		{
			"inputs": [],
			"name": "saleQuota",
			"outputs": [
				{
					"internalType": "uint256",
					"name": "",
					"type": "uint256"
				}
			],
			"stateMutability": "view",
			"type": "function"
		},
		{
			"inputs": [
				{
					"internalType": "address",
					"name": "_admin",
					"type": "address"
				},
				{
					"internalType": "bool",
					"name": "isOk",
					"type": "bool"
				}
			],
			"name": "setAdmin",
			"outputs": [],
			"stateMutability": "nonpayable",
			"type": "function"
		},
		{
			"inputs": [
				{
					"internalType": "uint256",
					"name": "newRate",
					"type": "uint256"
				}
			],
			"name": "setExchangeRate",
			"outputs": [],
			"stateMutability": "nonpayable",
			"type": "function"
		},
		{
			"inputs": [
				{
					"internalType": "uint256",
					"name": "newQuota",
					"type": "uint256"
				}
			],
			"name": "setSaleQuota",
			"outputs": [],
			"stateMutability": "nonpayable",
			"type": "function"
		},
		{
			"inputs": [
				{
					"internalType": "address",
					"name": "_treeCom",
					"type": "address"
				}
			],
			"name": "setTreeCom",
			"outputs": [],
			"stateMutability": "nonpayable",
			"type": "function"
		},
		{
			"inputs": [],
			"name": "symbol",
			"outputs": [
				{
					"internalType": "string",
					"name": "",
					"type": "string"
				}
			],
			"stateMutability": "view",
			"type": "function"
		},
		{
			"inputs": [],
			"name": "totalSupply",
			"outputs": [
				{
					"internalType": "uint256",
					"name": "",
					"type": "uint256"
				}
			],
			"stateMutability": "view",
			"type": "function"
		},
		{
			"inputs": [],
			"name": "totalUSDTPurchased",
			"outputs": [
				{
					"internalType": "uint256",
					"name": "",
					"type": "uint256"
				}
			],
			"stateMutability": "view",
			"type": "function"
		},
		{
			"inputs": [],
			"name": "totalUSDTReceived",
			"outputs": [
				{
					"internalType": "uint256",
					"name": "",
					"type": "uint256"
				}
			],
			"stateMutability": "view",
			"type": "function"
		},
		{
			"inputs": [],
			"name": "totalUSDTWithdrawn",
			"outputs": [
				{
					"internalType": "uint256",
					"name": "",
					"type": "uint256"
				}
			],
			"stateMutability": "view",
			"type": "function"
		},
		{
			"inputs": [
				{
					"internalType": "address",
					"name": "recipient",
					"type": "address"
				},
				{
					"internalType": "uint256",
					"name": "amount",
					"type": "uint256"
				}
			],
			"name": "transfer",
			"outputs": [
				{
					"internalType": "bool",
					"name": "",
					"type": "bool"
				}
			],
			"stateMutability": "nonpayable",
			"type": "function"
		},
		{
			"inputs": [
				{
					"internalType": "address",
					"name": "from",
					"type": "address"
				},
				{
					"internalType": "address",
					"name": "to",
					"type": "address"
				},
				{
					"internalType": "uint256",
					"name": "value",
					"type": "uint256"
				}
			],
			"name": "transferFrom",
			"outputs": [
				{
					"internalType": "bool",
					"name": "",
					"type": "bool"
				}
			],
			"stateMutability": "nonpayable",
			"type": "function"
		},
		{
			"inputs": [
				{
					"internalType": "address",
					"name": "newOwner",
					"type": "address"
				}
			],
			"name": "transferOwnership",
			"outputs": [],
			"stateMutability": "nonpayable",
			"type": "function"
		},
		{
			"inputs": [],
			"name": "treeCommissionContract",
			"outputs": [
				{
					"internalType": "address",
					"name": "",
					"type": "address"
				}
			],
			"stateMutability": "view",
			"type": "function"
		},
		{
			"inputs": [],
			"name": "updateTransactionHistory",
			"outputs": [],
			"stateMutability": "nonpayable",
			"type": "function"
		},
		{
			"inputs": [],
			"name": "usdtToken",
			"outputs": [
				{
					"internalType": "contract IERC20",
					"name": "",
					"type": "address"
				}
			],
			"stateMutability": "view",
			"type": "function"
		},
		{
			"inputs": [
				{
					"internalType": "address",
					"name": "",
					"type": "address"
				}
			],
			"name": "userUSDTBalance",
			"outputs": [
				{
					"internalType": "uint256",
					"name": "",
					"type": "uint256"
				}
			],
			"stateMutability": "view",
			"type": "function"
		},
		{
			"inputs": [
				{
					"internalType": "address",
					"name": "",
					"type": "address"
				}
			],
			"name": "userUSDTWithdrawn",
			"outputs": [
				{
					"internalType": "uint256",
					"name": "",
					"type": "uint256"
				}
			],
			"stateMutability": "view",
			"type": "function"
		},
		{
			"inputs": [],
			"name": "withdrawUSDTCommission",
			"outputs": [],
			"stateMutability": "nonpayable",
			"type": "function"
		},
		{
			"inputs": [
				{
					"internalType": "uint256",
					"name": "amount",
					"type": "uint256"
				}
			],
			"name": "withdrawUSDTPurchased",
			"outputs": [],
			"stateMutability": "nonpayable",
			"type": "function"
		}
	]
}