{
	"data": {
		"bytecode": {
			"linkReferences": {},
			"object": "6080604052348015600e575f5ffd5b50600280546001600160a01b03191633179055610dac8061002e5f395ff3fe608060405234801561000f575f5ffd5b506004361061008c575f3560e01c80633206b2c61461009057806335875bcb146100bc578063663dce36146100d15780638da5cb5b146100e45780639486baae1461010f5780639d788f3214610117578063a503898f1461012a578063bd628d2614610141578063e79899bd14610149578063f8749a581461015c575b5f5ffd5b6100a361009e3660046109e5565b61016f565b6040516100b39493929190610a2a565b60405180910390f35b6100cf6100ca3660046109e5565b610346565b005b6100cf6100df3660046109e5565b610479565b6002546100f7906001600160a01b031681565b6040516001600160a01b0390911681526020016100b3565b6100cf6105c2565b6100cf610125366004610b0e565b610679565b61013360015481565b6040519081526020016100b3565b61013361075d565b6100a36101573660046109e5565b610790565b6100cf61016a3660046109e5565b6108ce565b6002545f90606090819083906001600160a01b031633146101ab5760405162461bcd60e51b81526004016101a290610b71565b60405180910390fd5b5f8581526020818152604080832081516080810190925280546001600160a01b0316825260018101805492939192918401916101e690610bb3565b80601f016020809104026020016040519081016040528092919081815260200182805461021290610bb3565b801561025d5780601f106102345761010080835404028352916020019161025d565b820191905f5260205f20905b81548152906001019060200180831161024057829003601f168201915b5050505050815260200160028201805461027690610bb3565b80601f01602080910402602001604051908101604052809291908181526020018280546102a290610bb3565b80156102ed5780601f106102c4576101008083540402835291602001916102ed565b820191905f5260205f20905b8154815290600101906020018083116102d057829003601f168201915b50505050508152602001600382015481525050905080606001515f036103255760405162461bcd60e51b81526004016101a290610beb565b80516020820151604083015160609093015191989097509195509350915050565b6002546001600160a01b031633146103705760405162461bcd60e51b81526004016101a290610b71565b5f8111801561038157506001548111155b6103c05760405162461bcd60e51b815260206004820152601060248201526f496e76616c69642049442072616e676560801b60448201526064016101a2565b5f60015b828111610440575f818152602081905260409020600301541561042e575f81815260208190526040812080546001600160a01b03191681559061040a6001830182610993565b610417600283015f610993565b505f600391909101558161042a81610c17565b9250505b8061043881610c17565b9150506103c4565b506040518281527ff2cb63b78d8deb8ea7768688011b5861c61046c02a2deaa0f6d9b9aeb48feb1f906020015b60405180910390a15050565b6002546001600160a01b031633146104a35760405162461bcd60e51b81526004016101a290610b71565b5f811180156104b25750428111155b6104f25760405162461bcd60e51b81526020600482015260116024820152700496e76616c69642074696d657374616d7607c1b60448201526064016101a2565b5f60015b6001548111610591575f818152602081905260409020600301541580159061052d57505f8181526020819052604090206003015483115b1561057f575f81815260208190526040812080546001600160a01b03191681559061055b6001830182610993565b610568600283015f610993565b505f600391909101558161057b81610c17565b9250505b8061058981610c17565b9150506104f6565b506040518281527f3e15cb9d649543f2d30d2cfadb113feee1ead6b0a85784ccc2a4ebaf2d7592349060200161046d565b6002546001600160a01b031633146105ec5760405162461bcd60e51b81526004016101a290610b71565b60015b6001548111610649575f81815260208190526040812080546001600160a01b0319168155906106216001830182610993565b61062e600283015f610993565b505f600391909101558061064181610c17565b9150506105ef565b505f60018190556040517f5d4a5bf7e3fa350c074e48720a4769ef8ec8ed5c6f2afd45efdb443909a545529190a1565b60018054905f61068883610c17565b9091555050604080516080810182523381526020808201858152828401859052426060840152600180545f9081529283905293909120825181546001600160a01b0319166001600160a01b03909116178155905191929091908201906106ee9082610c87565b50604082015160028201906107039082610c87565b5060608201518160030155905050336001600160a01b03166001547f8a02e4a6f745a51811f6d9caaa10ee71eda76ac6b96a583326d826e571a5d41384844260405161075193929190610d41565b60405180910390a35050565b6002545f906001600160a01b031633146107895760405162461bcd60e51b81526004016101a290610b71565b5060015490565b5f60208190529081526040902080546001820180546001600160a01b0390921692916107bb90610bb3565b80601f01602080910402602001604051908101604052809291908181526020018280546107e790610bb3565b80156108325780601f1061080957610100808354040283529160200191610832565b820191905f5260205f20905b81548152906001019060200180831161081557829003601f168201915b50505050509080600201805461084790610bb3565b80601f016020809104026020016040519081016040528092919081815260200182805461087390610bb3565b80156108be5780601f10610895576101008083540402835291602001916108be565b820191905f5260205f20905b8154815290600101906020018083116108a157829003601f168201915b5050505050908060030154905084565b6002546001600160a01b031633146108f85760405162461bcd60e51b81526004016101a290610b71565b5f8181526020819052604081206003015490036109275760405162461bcd60e51b81526004016101a290610beb565b5f81815260208190526040812080546001600160a01b0319168155906109506001830182610993565b61095d600283015f610993565b505f60039190910181905560405182917f54164d013fa129c530eb11c78886546a80696d23076583e33d63ed7b58e786e491a250565b50805461099f90610bb3565b5f825580601f106109ae575050565b601f0160209004905f5260205f20908101906109ca91906109cd565b50565b5b808211156109e1575f81556001016109ce565b5090565b5f602082840312156109f5575f5ffd5b5035919050565b5f81518084528060208401602086015e5f602082860101526020601f19601f83011685010191505092915050565b6001600160a01b03851681526080602082018190525f90610a4d908301866109fc565b8281036040840152610a5f81866109fc565b91505082606083015295945050505050565b634e487b7160e01b5f52604160045260245ffd5b5f82601f830112610a94575f5ffd5b81356001600160401b03811115610aad57610aad610a71565b604051601f8201601f19908116603f011681016001600160401b0381118282101715610adb57610adb610a71565b604052818152838201602001851015610af2575f5ffd5b816020850160208301375f918101602001919091529392505050565b5f5f60408385031215610b1f575f5ffd5b82356001600160401b03811115610b34575f5ffd5b610b4085828601610a85565b92505060208301356001600160401b03811115610b5b575f5ffd5b610b6785828601610a85565b9150509250929050565b60208082526022908201527f4f6e6c79206f776e65722063616e20706572666f726d2074686973206163746960408201526137b760f11b606082015260800190565b600181811c90821680610bc757607f821691505b602082108103610be557634e487b7160e01b5f52602260045260245ffd5b50919050565b602080825260129082015271131bd9c8191bd95cc81b9bdd08195e1a5cdd60721b604082015260600190565b5f60018201610c3457634e487b7160e01b5f52601160045260245ffd5b5060010190565b601f821115610c8257805f5260205f20601f840160051c81016020851015610c605750805b601f840160051c820191505b81811015610c7f575f8155600101610c6c565b50505b505050565b81516001600160401b03811115610ca057610ca0610a71565b610cb481610cae8454610bb3565b84610c3b565b6020601f821160018114610ce6575f8315610ccf5750848201515b5f19600385901b1c1916600184901b178455610c7f565b5f84815260208120601f198516915b82811015610d155787850151825560209485019460019092019101610cf5565b5084821015610d3257868401515f19600387901b60f8161c191681555b50505050600190811b01905550565b606081525f610d5360608301866109fc565b8281036020840152610d6581866109fc565b91505082604083015294935050505056fea26469706673582212200e7aacf629bb32c8e96de32874ec198beb939690d9813bbcacf00fcd6f8047e564736f6c634300081e0033",
			"opcodes": "PUSH1 0x80 PUSH1 0x40 MSTORE CALLVALUE DUP1 ISZERO PUSH1 0xE JUMPI PUSH0 PUSH0 REVERT JUMPDEST POP PUSH1 0x2 DUP1 SLOAD PUSH1 0x1 PUSH1 0x1 PUSH1 0xA0 SHL SUB NOT AND CALLER OR SWAP1 SSTORE PUSH2 0xDAC DUP1 PUSH2 0x2E PUSH0 CODECOPY PUSH0 RETURN INVALID PUSH1 0x80 PUSH1 0x40 MSTORE CALLVALUE DUP1 ISZERO PUSH2 0xF JUMPI PUSH0 PUSH0 REVERT JUMPDEST POP PUSH1 0x4 CALLDATASIZE LT PUSH2 0x8C JUMPI PUSH0 CALLDATALOAD PUSH1 0xE0 SHR DUP1 PUSH4 0x3206B2C6 EQ PUSH2 0x90 JUMPI DUP1 PUSH4 0x35875BCB EQ PUSH2 0xBC JUMPI DUP1 PUSH4 0x663DCE36 EQ PUSH2 0xD1 JUMPI DUP1 PUSH4 0x8DA5CB5B EQ PUSH2 0xE4 JUMPI DUP1 PUSH4 0x9486BAAE EQ PUSH2 0x10F JUMPI DUP1 PUSH4 0x9D788F32 EQ PUSH2 0x117 JUMPI DUP1 PUSH4 0xA503898F EQ PUSH2 0x12A JUMPI DUP1 PUSH4 0xBD628D26 EQ PUSH2 0x141 JUMPI DUP1 PUSH4 0xE79899BD EQ PUSH2 0x149 JUMPI DUP1 PUSH4 0xF8749A58 EQ PUSH2 0x15C JUMPI JUMPDEST PUSH0 PUSH0 REVERT JUMPDEST PUSH2 0xA3 PUSH2 0x9E CALLDATASIZE PUSH1 0x4 PUSH2 0x9E5 JUMP JUMPDEST PUSH2 0x16F JUMP JUMPDEST PUSH1 0x40 MLOAD PUSH2 0xB3 SWAP5 SWAP4 SWAP3 SWAP2 SWAP1 PUSH2 0xA2A JUMP JUMPDEST PUSH1 0x40 MLOAD DUP1 SWAP2 SUB SWAP1 RETURN JUMPDEST PUSH2 0xCF PUSH2 0xCA CALLDATASIZE PUSH1 0x4 PUSH2 0x9E5 JUMP JUMPDEST PUSH2 0x346 JUMP JUMPDEST STOP JUMPDEST PUSH2 0xCF PUSH2 0xDF CALLDATASIZE PUSH1 0x4 PUSH2 0x9E5 JUMP JUMPDEST PUSH2 0x479 JUMP JUMPDEST PUSH1 0x2 SLOAD PUSH2 0xF7 SWAP1 PUSH1 0x1 PUSH1 0x1 PUSH1 0xA0 SHL SUB AND DUP2 JUMP JUMPDEST PUSH1 0x40 MLOAD PUSH1 0x1 PUSH1 0x1 PUSH1 0xA0 SHL SUB SWAP1 SWAP2 AND DUP2 MSTORE PUSH1 0x20 ADD PUSH2 0xB3 JUMP JUMPDEST PUSH2 0xCF PUSH2 0x5C2 JUMP JUMPDEST PUSH2 0xCF PUSH2 0x125 CALLDATASIZE PUSH1 0x4 PUSH2 0xB0E JUMP JUMPDEST PUSH2 0x679 JUMP JUMPDEST PUSH2 0x133 PUSH1 0x1 SLOAD DUP2 JUMP JUMPDEST PUSH1 0x40 MLOAD SWAP1 DUP2 MSTORE PUSH1 0x20 ADD PUSH2 0xB3 JUMP JUMPDEST PUSH2 0x133 PUSH2 0x75D JUMP JUMPDEST PUSH2 0xA3 PUSH2 0x157 CALLDATASIZE PUSH1 0x4 PUSH2 0x9E5 JUMP JUMPDEST PUSH2 0x790 JUMP JUMPDEST PUSH2 0xCF PUSH2 0x16A CALLDATASIZE PUSH1 0x4 PUSH2 0x9E5 JUMP JUMPDEST PUSH2 0x8CE JUMP JUMPDEST PUSH1 0x2 SLOAD PUSH0 SWAP1 PUSH1 0x60 SWAP1 DUP2 SWAP1 DUP4 SWAP1 PUSH1 0x1 PUSH1 0x1 PUSH1 0xA0 SHL SUB AND CALLER EQ PUSH2 0x1AB JUMPI PUSH1 0x40 MLOAD PUSH3 0x461BCD PUSH1 0xE5 SHL DUP2 MSTORE PUSH1 0x4 ADD PUSH2 0x1A2 SWAP1 PUSH2 0xB71 JUMP JUMPDEST PUSH1 0x40 MLOAD DUP1 SWAP2 SUB SWAP1 REVERT JUMPDEST PUSH0 DUP6 DUP2 MSTORE PUSH1 0x20 DUP2 DUP2 MSTORE PUSH1 0x40 DUP1 DUP4 KECCAK256 DUP2 MLOAD PUSH1 0x80 DUP2 ADD SWAP1 SWAP3 MSTORE DUP1 SLOAD PUSH1 0x1 PUSH1 0x1 PUSH1 0xA0 SHL SUB AND DUP3 MSTORE PUSH1 0x1 DUP2 ADD DUP1 SLOAD SWAP3 SWAP4 SWAP2 SWAP3 SWAP2 DUP5 ADD SWAP2 PUSH2 0x1E6 SWAP1 PUSH2 0xBB3 JUMP JUMPDEST DUP1 PUSH1 0x1F ADD PUSH1 0x20 DUP1 SWAP2 DIV MUL PUSH1 0x20 ADD PUSH1 0x40 MLOAD SWAP1 DUP2 ADD PUSH1 0x40 MSTORE DUP1 SWAP3 SWAP2 SWAP1 DUP2 DUP2 MSTORE PUSH1 0x20 ADD DUP3 DUP1 SLOAD PUSH2 0x212 SWAP1 PUSH2 0xBB3 JUMP JUMPDEST DUP1 ISZERO PUSH2 0x25D JUMPI DUP1 PUSH1 0x1F LT PUSH2 0x234 JUMPI PUSH2 0x100 DUP1 DUP4 SLOAD DIV MUL DUP4 MSTORE SWAP2 PUSH1 0x20 ADD SWAP2 PUSH2 0x25D JUMP JUMPDEST DUP3 ADD SWAP2 SWAP1 PUSH0 MSTORE PUSH1 0x20 PUSH0 KECCAK256 SWAP1 JUMPDEST DUP2 SLOAD DUP2 MSTORE SWAP1 PUSH1 0x1 ADD SWAP1 PUSH1 0x20 ADD DUP1 DUP4 GT PUSH2 0x240 JUMPI DUP3 SWAP1 SUB PUSH1 0x1F AND DUP3 ADD SWAP2 JUMPDEST POP POP POP POP POP DUP2 MSTORE PUSH1 0x20 ADD PUSH1 0x2 DUP3 ADD DUP1 SLOAD PUSH2 0x276 SWAP1 PUSH2 0xBB3 JUMP JUMPDEST DUP1 PUSH1 0x1F ADD PUSH1 0x20 DUP1 SWAP2 DIV MUL PUSH1 0x20 ADD PUSH1 0x40 MLOAD SWAP1 DUP2 ADD PUSH1 0x40 MSTORE DUP1 SWAP3 SWAP2 SWAP1 DUP2 DUP2 MSTORE PUSH1 0x20 ADD DUP3 DUP1 SLOAD PUSH2 0x2A2 SWAP1 PUSH2 0xBB3 JUMP JUMPDEST DUP1 ISZERO PUSH2 0x2ED JUMPI DUP1 PUSH1 0x1F LT PUSH2 0x2C4 JUMPI PUSH2 0x100 DUP1 DUP4 SLOAD DIV MUL DUP4 MSTORE SWAP2 PUSH1 0x20 ADD SWAP2 PUSH2 0x2ED JUMP JUMPDEST DUP3 ADD SWAP2 SWAP1 PUSH0 MSTORE PUSH1 0x20 PUSH0 KECCAK256 SWAP1 JUMPDEST DUP2 SLOAD DUP2 MSTORE SWAP1 PUSH1 0x1 ADD SWAP1 PUSH1 0x20 ADD DUP1 DUP4 GT PUSH2 0x2D0 JUMPI DUP3 SWAP1 SUB PUSH1 0x1F AND DUP3 ADD SWAP2 JUMPDEST POP POP POP POP POP DUP2 MSTORE PUSH1 0x20 ADD PUSH1 0x3 DUP3 ADD SLOAD DUP2 MSTORE POP POP SWAP1 POP DUP1 PUSH1 0x60 ADD MLOAD PUSH0 SUB PUSH2 0x325 JUMPI PUSH1 0x40 MLOAD PUSH3 0x461BCD PUSH1 0xE5 SHL DUP2 MSTORE PUSH1 0x4 ADD PUSH2 0x1A2 SWAP1 PUSH2 0xBEB JUMP JUMPDEST DUP1 MLOAD PUSH1 0x20 DUP3 ADD MLOAD PUSH1 0x40 DUP4 ADD MLOAD PUSH1 0x60 SWAP1 SWAP4 ADD MLOAD SWAP2 SWAP9 SWAP1 SWAP8 POP SWAP2 SWAP6 POP SWAP4 POP SWAP2 POP POP JUMP JUMPDEST PUSH1 0x2 SLOAD PUSH1 0x1 PUSH1 0x1 PUSH1 0xA0 SHL SUB AND CALLER EQ PUSH2 0x370 JUMPI PUSH1 0x40 MLOAD PUSH3 0x461BCD PUSH1 0xE5 SHL DUP2 MSTORE PUSH1 0x4 ADD PUSH2 0x1A2 SWAP1 PUSH2 0xB71 JUMP JUMPDEST PUSH0 DUP2 GT DUP1 ISZERO PUSH2 0x381 JUMPI POP PUSH1 0x1 SLOAD DUP2 GT ISZERO JUMPDEST PUSH2 0x3C0 JUMPI PUSH1 0x40 MLOAD PUSH3 0x461BCD PUSH1 0xE5 SHL DUP2 MSTORE PUSH1 0x20 PUSH1 0x4 DUP3 ADD MSTORE PUSH1 0x10 PUSH1 0x24 DUP3 ADD MSTORE PUSH16 0x496E76616C69642049442072616E6765 PUSH1 0x80 SHL PUSH1 0x44 DUP3 ADD MSTORE PUSH1 0x64 ADD PUSH2 0x1A2 JUMP JUMPDEST PUSH0 PUSH1 0x1 JUMPDEST DUP3 DUP2 GT PUSH2 0x440 JUMPI PUSH0 DUP2 DUP2 MSTORE PUSH1 0x20 DUP2 SWAP1 MSTORE PUSH1 0x40 SWAP1 KECCAK256 PUSH1 0x3 ADD SLOAD ISZERO PUSH2 0x42E JUMPI PUSH0 DUP2 DUP2 MSTORE PUSH1 0x20 DUP2 SWAP1 MSTORE PUSH1 0x40 DUP2 KECCAK256 DUP1 SLOAD PUSH1 0x1 PUSH1 0x1 PUSH1 0xA0 SHL SUB NOT AND DUP2 SSTORE SWAP1 PUSH2 0x40A PUSH1 0x1 DUP4 ADD DUP3 PUSH2 0x993 JUMP JUMPDEST PUSH2 0x417 PUSH1 0x2 DUP4 ADD PUSH0 PUSH2 0x993 JUMP JUMPDEST POP PUSH0 PUSH1 0x3 SWAP2 SWAP1 SWAP2 ADD SSTORE DUP2 PUSH2 0x42A DUP2 PUSH2 0xC17 JUMP JUMPDEST SWAP3 POP POP JUMPDEST DUP1 PUSH2 0x438 DUP2 PUSH2 0xC17 JUMP JUMPDEST SWAP2 POP POP PUSH2 0x3C4 JUMP JUMPDEST POP PUSH1 0x40 MLOAD DUP3 DUP2 MSTORE PUSH32 0xF2CB63B78D8DEB8EA7768688011B5861C61046C02A2DEAA0F6D9B9AEB48FEB1F SWAP1 PUSH1 0x20 ADD JUMPDEST PUSH1 0x40 MLOAD DUP1 SWAP2 SUB SWAP1 LOG1 POP POP JUMP JUMPDEST PUSH1 0x2 SLOAD PUSH1 0x1 PUSH1 0x1 PUSH1 0xA0 SHL SUB AND CALLER EQ PUSH2 0x4A3 JUMPI PUSH1 0x40 MLOAD PUSH3 0x461BCD PUSH1 0xE5 SHL DUP2 MSTORE PUSH1 0x4 ADD PUSH2 0x1A2 SWAP1 PUSH2 0xB71 JUMP JUMPDEST PUSH0 DUP2 GT DUP1 ISZERO PUSH2 0x4B2 JUMPI POP TIMESTAMP DUP2 GT ISZERO JUMPDEST PUSH2 0x4F2 JUMPI PUSH1 0x40 MLOAD PUSH3 0x461BCD PUSH1 0xE5 SHL DUP2 MSTORE PUSH1 0x20 PUSH1 0x4 DUP3 ADD MSTORE PUSH1 0x11 PUSH1 0x24 DUP3 ADD MSTORE PUSH17 0x496E76616C69642074696D657374616D7 PUSH1 0x7C SHL PUSH1 0x44 DUP3 ADD MSTORE PUSH1 0x64 ADD PUSH2 0x1A2 JUMP JUMPDEST PUSH0 PUSH1 0x1 JUMPDEST PUSH1 0x1 SLOAD DUP2 GT PUSH2 0x591 JUMPI PUSH0 DUP2 DUP2 MSTORE PUSH1 0x20 DUP2 SWAP1 MSTORE PUSH1 0x40 SWAP1 KECCAK256 PUSH1 0x3 ADD SLOAD ISZERO DUP1 ISZERO SWAP1 PUSH2 0x52D JUMPI POP PUSH0 DUP2 DUP2 MSTORE PUSH1 0x20 DUP2 SWAP1 MSTORE PUSH1 0x40 SWAP1 KECCAK256 PUSH1 0x3 ADD SLOAD DUP4 GT JUMPDEST ISZERO PUSH2 0x57F JUMPI PUSH0 DUP2 DUP2 MSTORE PUSH1 0x20 DUP2 SWAP1 MSTORE PUSH1 0x40 DUP2 KECCAK256 DUP1 SLOAD PUSH1 0x1 PUSH1 0x1 PUSH1 0xA0 SHL SUB NOT AND DUP2 SSTORE SWAP1 PUSH2 0x55B PUSH1 0x1 DUP4 ADD DUP3 PUSH2 0x993 JUMP JUMPDEST PUSH2 0x568 PUSH1 0x2 DUP4 ADD PUSH0 PUSH2 0x993 JUMP JUMPDEST POP PUSH0 PUSH1 0x3 SWAP2 SWAP1 SWAP2 ADD SSTORE DUP2 PUSH2 0x57B DUP2 PUSH2 0xC17 JUMP JUMPDEST SWAP3 POP POP JUMPDEST DUP1 PUSH2 0x589 DUP2 PUSH2 0xC17 JUMP JUMPDEST SWAP2 POP POP PUSH2 0x4F6 JUMP JUMPDEST POP PUSH1 0x40 MLOAD DUP3 DUP2 MSTORE PUSH32 0x3E15CB9D649543F2D30D2CFADB113FEEE1EAD6B0A85784CCC2A4EBAF2D759234 SWAP1 PUSH1 0x20 ADD PUSH2 0x46D JUMP JUMPDEST PUSH1 0x2 SLOAD PUSH1 0x1 PUSH1 0x1 PUSH1 0xA0 SHL SUB AND CALLER EQ PUSH2 0x5EC JUMPI PUSH1 0x40 MLOAD PUSH3 0x461BCD PUSH1 0xE5 SHL DUP2 MSTORE PUSH1 0x4 ADD PUSH2 0x1A2 SWAP1 PUSH2 0xB71 JUMP JUMPDEST PUSH1 0x1 JUMPDEST PUSH1 0x1 SLOAD DUP2 GT PUSH2 0x649 JUMPI PUSH0 DUP2 DUP2 MSTORE PUSH1 0x20 DUP2 SWAP1 MSTORE PUSH1 0x40 DUP2 KECCAK256 DUP1 SLOAD PUSH1 0x1 PUSH1 0x1 PUSH1 0xA0 SHL SUB NOT AND DUP2 SSTORE SWAP1 PUSH2 0x621 PUSH1 0x1 DUP4 ADD DUP3 PUSH2 0x993 JUMP JUMPDEST PUSH2 0x62E PUSH1 0x2 DUP4 ADD PUSH0 PUSH2 0x993 JUMP JUMPDEST POP PUSH0 PUSH1 0x3 SWAP2 SWAP1 SWAP2 ADD SSTORE DUP1 PUSH2 0x641 DUP2 PUSH2 0xC17 JUMP JUMPDEST SWAP2 POP POP PUSH2 0x5EF JUMP JUMPDEST POP PUSH0 PUSH1 0x1 DUP2 SWAP1 SSTORE PUSH1 0x40 MLOAD PUSH32 0x5D4A5BF7E3FA350C074E48720A4769EF8EC8ED5C6F2AFD45EFDB443909A54552 SWAP2 SWAP1 LOG1 JUMP JUMPDEST PUSH1 0x1 DUP1 SLOAD SWAP1 PUSH0 PUSH2 0x688 DUP4 PUSH2 0xC17 JUMP JUMPDEST SWAP1 SWAP2 SSTORE POP POP PUSH1 0x40 DUP1 MLOAD PUSH1 0x80 DUP2 ADD DUP3 MSTORE CALLER DUP2 MSTORE PUSH1 0x20 DUP1 DUP3 ADD DUP6 DUP2 MSTORE DUP3 DUP5 ADD DUP6 SWAP1 MSTORE TIMESTAMP PUSH1 0x60 DUP5 ADD MSTORE PUSH1 0x1 DUP1 SLOAD PUSH0 SWAP1 DUP2 MSTORE SWAP3 DUP4 SWAP1 MSTORE SWAP4 SWAP1 SWAP2 KECCAK256 DUP3 MLOAD DUP2 SLOAD PUSH1 0x1 PUSH1 0x1 PUSH1 0xA0 SHL SUB NOT AND PUSH1 0x1 PUSH1 0x1 PUSH1 0xA0 SHL SUB SWAP1 SWAP2 AND OR DUP2 SSTORE SWAP1 MLOAD SWAP2 SWAP3 SWAP1 SWAP2 SWAP1 DUP3 ADD SWAP1 PUSH2 0x6EE SWAP1 DUP3 PUSH2 0xC87 JUMP JUMPDEST POP PUSH1 0x40 DUP3 ADD MLOAD PUSH1 0x2 DUP3 ADD SWAP1 PUSH2 0x703 SWAP1 DUP3 PUSH2 0xC87 JUMP JUMPDEST POP PUSH1 0x60 DUP3 ADD MLOAD DUP2 PUSH1 0x3 ADD SSTORE SWAP1 POP POP CALLER PUSH1 0x1 PUSH1 0x1 PUSH1 0xA0 SHL SUB AND PUSH1 0x1 SLOAD PUSH32 0x8A02E4A6F745A51811F6D9CAAA10EE71EDA76AC6B96A583326D826E571A5D413 DUP5 DUP5 TIMESTAMP PUSH1 0x40 MLOAD PUSH2 0x751 SWAP4 SWAP3 SWAP2 SWAP1 PUSH2 0xD41 JUMP JUMPDEST PUSH1 0x40 MLOAD DUP1 SWAP2 SUB SWAP1 LOG3 POP POP JUMP JUMPDEST PUSH1 0x2 SLOAD PUSH0 SWAP1 PUSH1 0x1 PUSH1 0x1 PUSH1 0xA0 SHL SUB AND CALLER EQ PUSH2 0x789 JUMPI PUSH1 0x40 MLOAD PUSH3 0x461BCD PUSH1 0xE5 SHL DUP2 MSTORE PUSH1 0x4 ADD PUSH2 0x1A2 SWAP1 PUSH2 0xB71 JUMP JUMPDEST POP PUSH1 0x1 SLOAD SWAP1 JUMP JUMPDEST PUSH0 PUSH1 0x20 DUP2 SWAP1 MSTORE SWAP1 DUP2 MSTORE PUSH1 0x40 SWAP1 KECCAK256 DUP1 SLOAD PUSH1 0x1 DUP3 ADD DUP1 SLOAD PUSH1 0x1 PUSH1 0x1 PUSH1 0xA0 SHL SUB SWAP1 SWAP3 AND SWAP3 SWAP2 PUSH2 0x7BB SWAP1 PUSH2 0xBB3 JUMP JUMPDEST DUP1 PUSH1 0x1F ADD PUSH1 0x20 DUP1 SWAP2 DIV MUL PUSH1 0x20 ADD PUSH1 0x40 MLOAD SWAP1 DUP2 ADD PUSH1 0x40 MSTORE DUP1 SWAP3 SWAP2 SWAP1 DUP2 DUP2 MSTORE PUSH1 0x20 ADD DUP3 DUP1 SLOAD PUSH2 0x7E7 SWAP1 PUSH2 0xBB3 JUMP JUMPDEST DUP1 ISZERO PUSH2 0x832 JUMPI DUP1 PUSH1 0x1F LT PUSH2 0x809 JUMPI PUSH2 0x100 DUP1 DUP4 SLOAD DIV MUL DUP4 MSTORE SWAP2 PUSH1 0x20 ADD SWAP2 PUSH2 0x832 JUMP JUMPDEST DUP3 ADD SWAP2 SWAP1 PUSH0 MSTORE PUSH1 0x20 PUSH0 KECCAK256 SWAP1 JUMPDEST DUP2 SLOAD DUP2 MSTORE SWAP1 PUSH1 0x1 ADD SWAP1 PUSH1 0x20 ADD DUP1 DUP4 GT PUSH2 0x815 JUMPI DUP3 SWAP1 SUB PUSH1 0x1F AND DUP3 ADD SWAP2 JUMPDEST POP POP POP POP POP SWAP1 DUP1 PUSH1 0x2 ADD DUP1 SLOAD PUSH2 0x847 SWAP1 PUSH2 0xBB3 JUMP JUMPDEST DUP1 PUSH1 0x1F ADD PUSH1 0x20 DUP1 SWAP2 DIV MUL PUSH1 0x20 ADD PUSH1 0x40 MLOAD SWAP1 DUP2 ADD PUSH1 0x40 MSTORE DUP1 SWAP3 SWAP2 SWAP1 DUP2 DUP2 MSTORE PUSH1 0x20 ADD DUP3 DUP1 SLOAD PUSH2 0x873 SWAP1 PUSH2 0xBB3 JUMP JUMPDEST DUP1 ISZERO PUSH2 0x8BE JUMPI DUP1 PUSH1 0x1F LT PUSH2 0x895 JUMPI PUSH2 0x100 DUP1 DUP4 SLOAD DIV MUL DUP4 MSTORE SWAP2 PUSH1 0x20 ADD SWAP2 PUSH2 0x8BE JUMP JUMPDEST DUP3 ADD SWAP2 SWAP1 PUSH0 MSTORE PUSH1 0x20 PUSH0 KECCAK256 SWAP1 JUMPDEST DUP2 SLOAD DUP2 MSTORE SWAP1 PUSH1 0x1 ADD SWAP1 PUSH1 0x20 ADD DUP1 DUP4 GT PUSH2 0x8A1 JUMPI DUP3 SWAP1 SUB PUSH1 0x1F AND DUP3 ADD SWAP2 JUMPDEST POP POP POP POP POP SWAP1 DUP1 PUSH1 0x3 ADD SLOAD SWAP1 POP DUP5 JUMP JUMPDEST PUSH1 0x2 SLOAD PUSH1 0x1 PUSH1 0x1 PUSH1 0xA0 SHL SUB AND CALLER EQ PUSH2 0x8F8 JUMPI PUSH1 0x40 MLOAD PUSH3 0x461BCD PUSH1 0xE5 SHL DUP2 MSTORE PUSH1 0x4 ADD PUSH2 0x1A2 SWAP1 PUSH2 0xB71 JUMP JUMPDEST PUSH0 DUP2 DUP2 MSTORE PUSH1 0x20 DUP2 SWAP1 MSTORE PUSH1 0x40 DUP2 KECCAK256 PUSH1 0x3 ADD SLOAD SWAP1 SUB PUSH2 0x927 JUMPI PUSH1 0x40 MLOAD PUSH3 0x461BCD PUSH1 0xE5 SHL DUP2 MSTORE PUSH1 0x4 ADD PUSH2 0x1A2 SWAP1 PUSH2 0xBEB JUMP JUMPDEST PUSH0 DUP2 DUP2 MSTORE PUSH1 0x20 DUP2 SWAP1 MSTORE PUSH1 0x40 DUP2 KECCAK256 DUP1 SLOAD PUSH1 0x1 PUSH1 0x1 PUSH1 0xA0 SHL SUB NOT AND DUP2 SSTORE SWAP1 PUSH2 0x950 PUSH1 0x1 DUP4 ADD DUP3 PUSH2 0x993 JUMP JUMPDEST PUSH2 0x95D PUSH1 0x2 DUP4 ADD PUSH0 PUSH2 0x993 JUMP JUMPDEST POP PUSH0 PUSH1 0x3 SWAP2 SWAP1 SWAP2 ADD DUP2 SWAP1 SSTORE PUSH1 0x40 MLOAD DUP3 SWAP2 PUSH32 0x54164D013FA129C530EB11C78886546A80696D23076583E33D63ED7B58E786E4 SWAP2 LOG2 POP JUMP JUMPDEST POP DUP1 SLOAD PUSH2 0x99F SWAP1 PUSH2 0xBB3 JUMP JUMPDEST PUSH0 DUP3 SSTORE DUP1 PUSH1 0x1F LT PUSH2 0x9AE JUMPI POP POP JUMP JUMPDEST PUSH1 0x1F ADD PUSH1 0x20 SWAP1 DIV SWAP1 PUSH0 MSTORE PUSH1 0x20 PUSH0 KECCAK256 SWAP1 DUP2 ADD SWAP1 PUSH2 0x9CA SWAP2 SWAP1 PUSH2 0x9CD JUMP JUMPDEST POP JUMP JUMPDEST JUMPDEST DUP1 DUP3 GT ISZERO PUSH2 0x9E1 JUMPI PUSH0 DUP2 SSTORE PUSH1 0x1 ADD PUSH2 0x9CE JUMP JUMPDEST POP SWAP1 JUMP JUMPDEST PUSH0 PUSH1 0x20 DUP3 DUP5 SUB SLT ISZERO PUSH2 0x9F5 JUMPI PUSH0 PUSH0 REVERT JUMPDEST POP CALLDATALOAD SWAP2 SWAP1 POP JUMP JUMPDEST PUSH0 DUP2 MLOAD DUP1 DUP5 MSTORE DUP1 PUSH1 0x20 DUP5 ADD PUSH1 0x20 DUP7 ADD MCOPY PUSH0 PUSH1 0x20 DUP3 DUP7 ADD ADD MSTORE PUSH1 0x20 PUSH1 0x1F NOT PUSH1 0x1F DUP4 ADD AND DUP6 ADD ADD SWAP2 POP POP SWAP3 SWAP2 POP POP JUMP JUMPDEST PUSH1 0x1 PUSH1 0x1 PUSH1 0xA0 SHL SUB DUP6 AND DUP2 MSTORE PUSH1 0x80 PUSH1 0x20 DUP3 ADD DUP2 SWAP1 MSTORE PUSH0 SWAP1 PUSH2 0xA4D SWAP1 DUP4 ADD DUP7 PUSH2 0x9FC JUMP JUMPDEST DUP3 DUP2 SUB PUSH1 0x40 DUP5 ADD MSTORE PUSH2 0xA5F DUP2 DUP7 PUSH2 0x9FC JUMP JUMPDEST SWAP2 POP POP DUP3 PUSH1 0x60 DUP4 ADD MSTORE SWAP6 SWAP5 POP POP POP POP POP JUMP JUMPDEST PUSH4 0x4E487B71 PUSH1 0xE0 SHL PUSH0 MSTORE PUSH1 0x41 PUSH1 0x4 MSTORE PUSH1 0x24 PUSH0 REVERT JUMPDEST PUSH0 DUP3 PUSH1 0x1F DUP4 ADD SLT PUSH2 0xA94 JUMPI PUSH0 PUSH0 REVERT JUMPDEST DUP2 CALLDATALOAD PUSH1 0x1 PUSH1 0x1 PUSH1 0x40 SHL SUB DUP2 GT ISZERO PUSH2 0xAAD JUMPI PUSH2 0xAAD PUSH2 0xA71 JUMP JUMPDEST PUSH1 0x40 MLOAD PUSH1 0x1F DUP3 ADD PUSH1 0x1F NOT SWAP1 DUP2 AND PUSH1 0x3F ADD AND DUP2 ADD PUSH1 0x1 PUSH1 0x1 PUSH1 0x40 SHL SUB DUP2 GT DUP3 DUP3 LT OR ISZERO PUSH2 0xADB JUMPI PUSH2 0xADB PUSH2 0xA71 JUMP JUMPDEST PUSH1 0x40 MSTORE DUP2 DUP2 MSTORE DUP4 DUP3 ADD PUSH1 0x20 ADD DUP6 LT ISZERO PUSH2 0xAF2 JUMPI PUSH0 PUSH0 REVERT JUMPDEST DUP2 PUSH1 0x20 DUP6 ADD PUSH1 0x20 DUP4 ADD CALLDATACOPY PUSH0 SWAP2 DUP2 ADD PUSH1 0x20 ADD SWAP2 SWAP1 SWAP2 MSTORE SWAP4 SWAP3 POP POP POP JUMP JUMPDEST PUSH0 PUSH0 PUSH1 0x40 DUP4 DUP6 SUB SLT ISZERO PUSH2 0xB1F JUMPI PUSH0 PUSH0 REVERT JUMPDEST DUP3 CALLDATALOAD PUSH1 0x1 PUSH1 0x1 PUSH1 0x40 SHL SUB DUP2 GT ISZERO PUSH2 0xB34 JUMPI PUSH0 PUSH0 REVERT JUMPDEST PUSH2 0xB40 DUP6 DUP3 DUP7 ADD PUSH2 0xA85 JUMP JUMPDEST SWAP3 POP POP PUSH1 0x20 DUP4 ADD CALLDATALOAD PUSH1 0x1 PUSH1 0x1 PUSH1 0x40 SHL SUB DUP2 GT ISZERO PUSH2 0xB5B JUMPI PUSH0 PUSH0 REVERT JUMPDEST PUSH2 0xB67 DUP6 DUP3 DUP7 ADD PUSH2 0xA85 JUMP JUMPDEST SWAP2 POP POP SWAP3 POP SWAP3 SWAP1 POP JUMP JUMPDEST PUSH1 0x20 DUP1 DUP3 MSTORE PUSH1 0x22 SWAP1 DUP3 ADD MSTORE PUSH32 0x4F6E6C79206F776E65722063616E20706572666F726D20746869732061637469 PUSH1 0x40 DUP3 ADD MSTORE PUSH2 0x37B7 PUSH1 0xF1 SHL PUSH1 0x60 DUP3 ADD MSTORE PUSH1 0x80 ADD SWAP1 JUMP JUMPDEST PUSH1 0x1 DUP2 DUP2 SHR SWAP1 DUP3 AND DUP1 PUSH2 0xBC7 JUMPI PUSH1 0x7F DUP3 AND SWAP2 POP JUMPDEST PUSH1 0x20 DUP3 LT DUP2 SUB PUSH2 0xBE5 JUMPI PUSH4 0x4E487B71 PUSH1 0xE0 SHL PUSH0 MSTORE PUSH1 0x22 PUSH1 0x4 MSTORE PUSH1 0x24 PUSH0 REVERT JUMPDEST POP SWAP2 SWAP1 POP JUMP JUMPDEST PUSH1 0x20 DUP1 DUP3 MSTORE PUSH1 0x12 SWAP1 DUP3 ADD MSTORE PUSH18 0x131BD9C8191BD95CC81B9BDD08195E1A5CDD PUSH1 0x72 SHL PUSH1 0x40 DUP3 ADD MSTORE PUSH1 0x60 ADD SWAP1 JUMP JUMPDEST PUSH0 PUSH1 0x1 DUP3 ADD PUSH2 0xC34 JUMPI PUSH4 0x4E487B71 PUSH1 0xE0 SHL PUSH0 MSTORE PUSH1 0x11 PUSH1 0x4 MSTORE PUSH1 0x24 PUSH0 REVERT JUMPDEST POP PUSH1 0x1 ADD SWAP1 JUMP JUMPDEST PUSH1 0x1F DUP3 GT ISZERO PUSH2 0xC82 JUMPI DUP1 PUSH0 MSTORE PUSH1 0x20 PUSH0 KECCAK256 PUSH1 0x1F DUP5 ADD PUSH1 0x5 SHR DUP2 ADD PUSH1 0x20 DUP6 LT ISZERO PUSH2 0xC60 JUMPI POP DUP1 JUMPDEST PUSH1 0x1F DUP5 ADD PUSH1 0x5 SHR DUP3 ADD SWAP2 POP JUMPDEST DUP2 DUP2 LT ISZERO PUSH2 0xC7F JUMPI PUSH0 DUP2 SSTORE PUSH1 0x1 ADD PUSH2 0xC6C JUMP JUMPDEST POP POP JUMPDEST POP POP POP JUMP JUMPDEST DUP2 MLOAD PUSH1 0x1 PUSH1 0x1 PUSH1 0x40 SHL SUB DUP2 GT ISZERO PUSH2 0xCA0 JUMPI PUSH2 0xCA0 PUSH2 0xA71 JUMP JUMPDEST PUSH2 0xCB4 DUP2 PUSH2 0xCAE DUP5 SLOAD PUSH2 0xBB3 JUMP JUMPDEST DUP5 PUSH2 0xC3B JUMP JUMPDEST PUSH1 0x20 PUSH1 0x1F DUP3 GT PUSH1 0x1 DUP2 EQ PUSH2 0xCE6 JUMPI PUSH0 DUP4 ISZERO PUSH2 0xCCF JUMPI POP DUP5 DUP3 ADD MLOAD JUMPDEST PUSH0 NOT PUSH1 0x3 DUP6 SWAP1 SHL SHR NOT AND PUSH1 0x1 DUP5 SWAP1 SHL OR DUP5 SSTORE PUSH2 0xC7F JUMP JUMPDEST PUSH0 DUP5 DUP2 MSTORE PUSH1 0x20 DUP2 KECCAK256 PUSH1 0x1F NOT DUP6 AND SWAP2 JUMPDEST DUP3 DUP2 LT ISZERO PUSH2 0xD15 JUMPI DUP8 DUP6 ADD MLOAD DUP3 SSTORE PUSH1 0x20 SWAP5 DUP6 ADD SWAP5 PUSH1 0x1 SWAP1 SWAP3 ADD SWAP2 ADD PUSH2 0xCF5 JUMP JUMPDEST POP DUP5 DUP3 LT ISZERO PUSH2 0xD32 JUMPI DUP7 DUP5 ADD MLOAD PUSH0 NOT PUSH1 0x3 DUP8 SWAP1 SHL PUSH1 0xF8 AND SHR NOT AND DUP2 SSTORE JUMPDEST POP POP POP POP PUSH1 0x1 SWAP1 DUP2 SHL ADD SWAP1 SSTORE POP JUMP JUMPDEST PUSH1 0x60 DUP2 MSTORE PUSH0 PUSH2 0xD53 PUSH1 0x60 DUP4 ADD DUP7 PUSH2 0x9FC JUMP JUMPDEST DUP3 DUP2 SUB PUSH1 0x20 DUP5 ADD MSTORE PUSH2 0xD65 DUP2 DUP7 PUSH2 0x9FC JUMP JUMPDEST SWAP2 POP POP DUP3 PUSH1 0x40 DUP4 ADD MSTORE SWAP5 SWAP4 POP POP POP POP JUMP INVALID LOG2 PUSH5 0x6970667358 0x22 SLT KECCAK256 0xE PUSH27 0xACF629BB32C8E96DE32874EC198BEB939690D9813BBCACF00FCD6F DUP1 SELFBALANCE JUMPF 0x6473 PUSH16 0x6C634300081E00330000000000000000 "
		},
		"gasEstimates": {
			"creation": {
				"codeDepositCost": "700000",
				"executionCost": "24967",
				"totalCost": "724967"
			},
			"external": {
				"clearLogs()": "infinite",
				"clearLogsBefore(uint256)": "infinite",
				"clearLogsUpTo(uint256)": "infinite",
				"deleteEvent(uint256)": "infinite",
				"getLog(uint256)": "infinite",
				"getTotalLogs()": "4585",
				"logCount()": "2404",
				"logs(uint256)": "infinite",
				"owner()": "2380",
				"recordEvent(string,string)": "infinite"
			}
		},
		"methodIdentifiers": {
			"clearLogs()": "9486baae",
			"clearLogsBefore(uint256)": "663dce36",
			"clearLogsUpTo(uint256)": "35875bcb",
			"deleteEvent(uint256)": "f8749a58",
			"getLog(uint256)": "3206b2c6",
			"getTotalLogs()": "bd628d26",
			"logCount()": "a503898f",
			"logs(uint256)": "e79899bd",
			"owner()": "8da5cb5b",
			"recordEvent(string,string)": "9d788f32"
		}
	},
	"abi": [
		{
			"inputs": [],
			"stateMutability": "nonpayable",
			"type": "constructor"
		},
		{
			"anonymous": false,
			"inputs": [
				{
					"indexed": true,
					"internalType": "uint256",
					"name": "logId",
					"type": "uint256"
				}
			],
			"name": "LogDeleted",
			"type": "event"
		},
		{
			"anonymous": false,
			"inputs": [
				{
					"indexed": true,
					"internalType": "uint256",
					"name": "logId",
					"type": "uint256"
				},
				{
					"indexed": true,
					"internalType": "address",
					"name": "sender",
					"type": "address"
				},
				{
					"indexed": false,
					"internalType": "string",
					"name": "eventType",
					"type": "string"
				},
				{
					"indexed": false,
					"internalType": "string",
					"name": "details",
					"type": "string"
				},
				{
					"indexed": false,
					"internalType": "uint256",
					"name": "timestamp",
					"type": "uint256"
				}
			],
			"name": "LogEvent",
			"type": "event"
		},
		{
			"anonymous": false,
			"inputs": [],
			"name": "LogsCleared",
			"type": "event"
		},
		{
			"anonymous": false,
			"inputs": [
				{
					"indexed": false,
					"internalType": "uint256",
					"name": "timestamp",
					"type": "uint256"
				}
			],
			"name": "LogsClearedBefore",
			"type": "event"
		},
		{
			"anonymous": false,
			"inputs": [
				{
					"indexed": false,
					"internalType": "uint256",
					"name": "upToId",
					"type": "uint256"
				}
			],
			"name": "LogsClearedUpTo",
			"type": "event"
		},
		{
			"inputs": [],
			"name": "clearLogs",
			"outputs": [],
			"stateMutability": "nonpayable",
			"type": "function"
		},
		{
			"inputs": [
				{
					"internalType": "uint256",
					"name": "beforeTimestamp",
					"type": "uint256"
				}
			],
			"name": "clearLogsBefore",
			"outputs": [],
			"stateMutability": "nonpayable",
			"type": "function"
		},
		{
			"inputs": [
				{
					"internalType": "uint256",
					"name": "upToId",
					"type": "uint256"
				}
			],
			"name": "clearLogsUpTo",
			"outputs": [],
			"stateMutability": "nonpayable",
			"type": "function"
		},
		{
			"inputs": [
				{
					"internalType": "uint256",
					"name": "logId",
					"type": "uint256"
				}
			],
			"name": "deleteEvent",
			"outputs": [],
			"stateMutability": "nonpayable",
			"type": "function"
		},
		{
			"inputs": [
				{
					"internalType": "uint256",
					"name": "logId",
					"type": "uint256"
				}
			],
			"name": "getLog",
			"outputs": [
				{
					"internalType": "address",
					"name": "sender",
					"type": "address"
				},
				{
					"internalType": "string",
					"name": "eventType",
					"type": "string"
				},
				{
					"internalType": "string",
					"name": "details",
					"type": "string"
				},
				{
					"internalType": "uint256",
					"name": "timestamp",
					"type": "uint256"
				}
			],
			"stateMutability": "view",
			"type": "function"
		},
		{
			"inputs": [],
			"name": "getTotalLogs",
			"outputs": [
				{
					"internalType": "uint256",
					"name": "",
					"type": "uint256"
				}
			],
			"stateMutability": "view",
			"type": "function"
		},
		{
			"inputs": [],
			"name": "logCount",
			"outputs": [
				{
					"internalType": "uint256",
					"name": "",
					"type": "uint256"
				}
			],
			"stateMutability": "view",
			"type": "function"
		},
		{
			"inputs": [
				{
					"internalType": "uint256",
					"name": "",
					"type": "uint256"
				}
			],
			"name": "logs",
			"outputs": [
				{
					"internalType": "address",
					"name": "sender",
					"type": "address"
				},
				{
					"internalType": "string",
					"name": "eventType",
					"type": "string"
				},
				{
					"internalType": "string",
					"name": "details",
					"type": "string"
				},
				{
					"internalType": "uint256",
					"name": "timestamp",
					"type": "uint256"
				}
			],
			"stateMutability": "view",
			"type": "function"
		},
		{
			"inputs": [],
			"name": "owner",
			"outputs": [
				{
					"internalType": "address",
					"name": "",
					"type": "address"
				}
			],
			"stateMutability": "view",
			"type": "function"
		},
		{
			"inputs": [
				{
					"internalType": "string",
					"name": "eventType",
					"type": "string"
				},
				{
					"internalType": "string",
					"name": "details",
					"type": "string"
				}
			],
			"name": "recordEvent",
			"outputs": [],
			"stateMutability": "nonpayable",
			"type": "function"
		}
	]
}