{
	"data": {
		"bytecode": {
			"linkReferences": {},
			"object": "6080604052348015600e575f80fd5b505f80546001600160a01b03191633179055611d448061002d5f395ff3fe608060405234801561000f575f80fd5b50600436106100a2575f3560e01c80630b75c58f146100a6578063133adab6146100eb57806324e8779f146101005780633ab0639b146101135780638da5cb5b1461011b578063cecfe0841461012d578063cef338101461014e578063d4dd4b471461016f578063e7b4cac614610182578063ee14e939146101a7578063eef814d3146101cb578063f4f97658146101e2575b5f80fd5b6100ce6100b436600461152e565b60036020525f90815260409020546001600160a01b031681565b6040516001600160a01b0390911681526020015b60405180910390f35b6100fe6100f9366004611560565b6101f5565b005b6100fe61010e36600461152e565b6102e6565b6100fe6103fc565b5f546100ce906001600160a01b031681565b61014061013b36600461161d565b6104a7565b6040519081526020016100e2565b61016161015c36600461152e565b6105bb565b6040516100e2929190611700565b6100fe61017d36600461180c565b610b64565b610195610190366004611560565b610cd1565b6040516100e2969594939291906118d1565b6101ba6101b5366004611560565b610f1c565b6040516100e2959493929190611933565b335f90815260026020526040902060040154610140565b6100fe6101f036600461161d565b611161565b5f546001600160a01b031633146102275760405162461bcd60e51b815260040161021e90611992565b60405180910390fd5b6001600160a01b0381165f9081526001602052604090206004015461025e5760405162461bcd60e51b815260040161021e906119ba565b6001600160a01b0381165f9081526001602052604081209061028082826114e4565b61028d600183015f6114e4565b61029a600283015f6114e4565b6102a7600383015f6114e4565b505f6004919091018190556040516001600160a01b038316917fae4bdf5adabafca6721399496d24fe50fb6564effcb386fbae92de33540763bc91a250565b6102ef81611244565b61030b5760405162461bcd60e51b815260040161021e906119e6565b5f818152600360205260409020546001600160a01b03168061033f5760405162461bcd60e51b815260040161021e90611a16565b6001600160a01b0381165f9081526002602052604081209061036182826114e4565b61036e600183015f6114e4565b61037b600283015f6114e4565b610388600383015f6114e4565b505f600482018190556005909101819055828152600360205260409081902080546001600160a01b0319169055516001600160a01b038216907fe9f653ab6dbfccfbf599e332a5cf4aa24c7d943d1fa32b4607a0ecc6063b3c04906103f09085815260200190565b60405180910390a25050565b5f546001600160a01b031633146104255760405162461bcd60e51b815260040161021e90611992565b335f81815260026020526040902060050154610384906104459042611a59565b11156104a4576001600160a01b0381165f9081526002602052604081209061046d82826114e4565b61047a600183015f6114e4565b610487600283015f6114e4565b610494600383015f6114e4565b505f600482018190556005909101555b50565b5f806104b16112db565b6040805160c081018252888152602080820189905281830188905260608201879052608082018490524260a0830152335f9081526002909152919091208151929350909181906105019082611af0565b50602082015160018201906105169082611af0565b506040820151600282019061052b9082611af0565b50606082015160038201906105409082611af0565b506080820151600482015560a0909101516005909101555f818152600360205260409081902080546001600160a01b0319163390811790915590517f0ec66eac7cc2b6555e1742961a9ee17e918d7ff81b635fac9cc6833245d279d6906105aa9084815260200190565b60405180910390a295945050505050565b6105ec6040518060a00160405280606081526020016060815260200160608152602001606081526020015f81525090565b6106236040518060c00160405280606081526020016060815260200160608152602001606081526020015f81526020015f81525090565b61062c83611244565b6106485760405162461bcd60e51b815260040161021e906119e6565b5f838152600360205260409020546001600160a01b03168061067c5760405162461bcd60e51b815260040161021e90611a16565b6001600160a01b0381165f908152600160209081526040808320600290925291829020825160a081019093528154919290918390829082906106bd90611a6c565b80601f01602080910402602001604051908101604052809291908181526020018280546106e990611a6c565b80156107345780601f1061070b57610100808354040283529160200191610734565b820191905f5260205f20905b81548152906001019060200180831161071757829003601f168201915b5050505050815260200160018201805461074d90611a6c565b80601f016020809104026020016040519081016040528092919081815260200182805461077990611a6c565b80156107c45780601f1061079b576101008083540402835291602001916107c4565b820191905f5260205f20905b8154815290600101906020018083116107a757829003601f168201915b505050505081526020016002820180546107dd90611a6c565b80601f016020809104026020016040519081016040528092919081815260200182805461080990611a6c565b80156108545780601f1061082b57610100808354040283529160200191610854565b820191905f5260205f20905b81548152906001019060200180831161083757829003601f168201915b5050505050815260200160038201805461086d90611a6c565b80601f016020809104026020016040519081016040528092919081815260200182805461089990611a6c565b80156108e45780601f106108bb576101008083540402835291602001916108e4565b820191905f5260205f20905b8154815290600101906020018083116108c757829003601f168201915b505050505081526020016004820154815250509150806040518060c00160405290815f8201805461091490611a6c565b80601f016020809104026020016040519081016040528092919081815260200182805461094090611a6c565b801561098b5780601f106109625761010080835404028352916020019161098b565b820191905f5260205f20905b81548152906001019060200180831161096e57829003601f168201915b505050505081526020016001820180546109a490611a6c565b80601f01602080910402602001604051908101604052809291908181526020018280546109d090611a6c565b8015610a1b5780601f106109f257610100808354040283529160200191610a1b565b820191905f5260205f20905b8154815290600101906020018083116109fe57829003601f168201915b50505050508152602001600282018054610a3490611a6c565b80601f0160208091040260200160405190810160405280929190818152602001828054610a6090611a6c565b8015610aab5780601f10610a8257610100808354040283529160200191610aab565b820191905f5260205f20905b815481529060010190602001808311610a8e57829003601f168201915b50505050508152602001600382018054610ac490611a6c565b80601f0160208091040260200160405190810160405280929190818152602001828054610af090611a6c565b8015610b3b5780601f10610b1257610100808354040283529160200191610b3b565b820191905f5260205f20905b815481529060010190602001808311610b1e57829003601f168201915b505050505081526020016004820154815260200160058201548152505090509250925050915091565b5f546001600160a01b03163314610b8d5760405162461bcd60e51b815260040161021e90611992565b6001600160a01b0385165f9081526001602052604090206004015415610bef5760405162461bcd60e51b81526020600482015260176024820152764d65726368616e7420616c72656164792065786973747360481b604482015260640161021e565b6040805160a0810182528581526020808201869052818301859052606082018490524260808301526001600160a01b0388165f90815260019091529190912081518190610c3c9082611af0565b5060208201516001820190610c519082611af0565b5060408201516002820190610c669082611af0565b5060608201516003820190610c7b9082611af0565b5060808201518160040155905050336001600160a01b03167fec31b5c87ea82f60c8bc1dd8262f275183d0d7bc8c37cdbbfd74130441818fbc85604051610cc29190611baa565b60405180910390a25050505050565b60026020525f9081526040902080548190610ceb90611a6c565b80601f0160208091040260200160405190810160405280929190818152602001828054610d1790611a6c565b8015610d625780601f10610d3957610100808354040283529160200191610d62565b820191905f5260205f20905b815481529060010190602001808311610d4557829003601f168201915b505050505090806001018054610d7790611a6c565b80601f0160208091040260200160405190810160405280929190818152602001828054610da390611a6c565b8015610dee5780601f10610dc557610100808354040283529160200191610dee565b820191905f5260205f20905b815481529060010190602001808311610dd157829003601f168201915b505050505090806002018054610e0390611a6c565b80601f0160208091040260200160405190810160405280929190818152602001828054610e2f90611a6c565b8015610e7a5780601f10610e5157610100808354040283529160200191610e7a565b820191905f5260205f20905b815481529060010190602001808311610e5d57829003601f168201915b505050505090806003018054610e8f90611a6c565b80601f0160208091040260200160405190810160405280929190818152602001828054610ebb90611a6c565b8015610f065780601f10610edd57610100808354040283529160200191610f06565b820191905f5260205f20905b815481529060010190602001808311610ee957829003601f168201915b5050505050908060040154908060050154905086565b60016020525f9081526040902080548190610f3690611a6c565b80601f0160208091040260200160405190810160405280929190818152602001828054610f6290611a6c565b8015610fad5780601f10610f8457610100808354040283529160200191610fad565b820191905f5260205f20905b815481529060010190602001808311610f9057829003601f168201915b505050505090806001018054610fc290611a6c565b80601f0160208091040260200160405190810160405280929190818152602001828054610fee90611a6c565b80156110395780601f1061101057610100808354040283529160200191611039565b820191905f5260205f20905b81548152906001019060200180831161101c57829003601f168201915b50505050509080600201805461104e90611a6c565b80601f016020809104026020016040519081016040528092919081815260200182805461107a90611a6c565b80156110c55780601f1061109c576101008083540402835291602001916110c5565b820191905f5260205f20905b8154815290600101906020018083116110a857829003601f168201915b5050505050908060030180546110da90611a6c565b80601f016020809104026020016040519081016040528092919081815260200182805461110690611a6c565b80156111515780601f1061112857610100808354040283529160200191611151565b820191905f5260205f20905b81548152906001019060200180831161113457829003601f168201915b5050505050908060040154905085565b335f9081526001602052604090206004015461118f5760405162461bcd60e51b815260040161021e906119ba565b335f9081526001602052604090206111a78582611af0565b50335f908152600160208190526040909120016111c48482611af0565b50335f9081526001602052604090206002016111e08382611af0565b50335f9081526001602052604090206003016111fc8282611af0565b50336001600160a01b03167f78664930cfae4a1eb87c094f2b3013547dbb5e6b7cc7b9f0941766060298e126856040516112369190611baa565b60405180910390a250505050565b5f6305f5e100821015801561125d5750633b9ac9ff8211155b6112a95760405162461bcd60e51b815260206004820152601e60248201527f496e76616c69642061637469766174696f6e20636f646520666f726d61740000604482015260640161021e565b5f6112b5600a84611bd0565b90505f6112c3600a85611be3565b90505f6112cf826113d0565b92909214949350505050565b5f80603c6112e98142611be3565b6112f39190611bd0565b90505f611301603c42611bd0565b90505f8161131084603c611bf6565b61131a9190611c0d565b90505f610dd461132c8361270f611bf6565b6113369190611be3565b90505f612328423360405160200161136592919091825260601b6001600160601b031916602082015260340190565b604051602081830303815290604052805190602001205f1c6113879190611bd0565b611393906103e8611c0d565b90505f6113a083836113ec565b90505f6113ac826113d0565b9050806113ba83600a611bf6565b6113c49190611c0d565b97505050505050505090565b5f600a6113dc836114b2565b6113e69190611bd0565b92915050565b5f80805b60048110156114aa575f600a6114068382611d03565b6114109088611be3565b61141a9190611bd0565b90505f600a6114298482611d03565b6114339088611be3565b61143d9190611bd0565b905061144a836002611bf6565b61145590600a611d03565b61145f9083611bf6565b61146a846002611bf6565b611475906001611c0d565b61148090600a611d03565b61148a9083611bf6565b6114949190611c0d565b61149e9085611c0d565b935050506001016113f0565b509392505050565b5f805b82156113e6576114c6600a84611bd0565b6114d09082611c0d565b90506114dd600a84611be3565b92506114b5565b5080546114f090611a6c565b5f825580601f106114ff575050565b601f0160209004905f5260205f20908101906104a491905b8082111561152a575f8155600101611517565b5090565b5f6020828403121561153e575f80fd5b5035919050565b80356001600160a01b038116811461155b575f80fd5b919050565b5f60208284031215611570575f80fd5b61157982611545565b9392505050565b634e487b7160e01b5f52604160045260245ffd5b5f82601f8301126115a3575f80fd5b81356001600160401b038111156115bc576115bc611580565b604051601f8201601f19908116603f011681016001600160401b03811182821017156115ea576115ea611580565b604052818152838201602001851015611601575f80fd5b816020850160208301375f918101602001919091529392505050565b5f805f8060808587031215611630575f80fd5b84356001600160401b03811115611645575f80fd5b61165187828801611594565b94505060208501356001600160401b0381111561166c575f80fd5b61167887828801611594565b93505060408501356001600160401b03811115611693575f80fd5b61169f87828801611594565b92505060608501356001600160401b038111156116ba575f80fd5b6116c687828801611594565b91505092959194509250565b5f81518084528060208401602086015e5f602082860101526020601f19601f83011685010191505092915050565b604081525f835160a0604084015261171b60e08401826116d2565b90506020850151603f1984830301606085015261173882826116d2565b9150506040850151603f1984830301608085015261175682826116d2565b9150506060850151603f198483030160a085015261177482826116d2565b915050608085015160c08401528281036020840152835160c0825261179c60c08301826116d2565b9050602085015182820360208401526117b582826116d2565b915050604085015182820360408401526117cf82826116d2565b915050606085015182820360608401526117e982826116d2565b9150506080850151608083015260a085015160a083015280925050509392505050565b5f805f805f60a08688031215611820575f80fd5b61182986611545565b945060208601356001600160401b03811115611843575f80fd5b61184f88828901611594565b94505060408601356001600160401b0381111561186a575f80fd5b61187688828901611594565b93505060608601356001600160401b03811115611891575f80fd5b61189d88828901611594565b92505060808601356001600160401b038111156118b8575f80fd5b6118c488828901611594565b9150509295509295909350565b60c081525f6118e360c08301896116d2565b82810360208401526118f581896116d2565b9050828103604084015261190981886116d2565b9050828103606084015261191d81876116d2565b6080840195909552505060a00152949350505050565b60a081525f61194560a08301886116d2565b828103602084015261195781886116d2565b9050828103604084015261196b81876116d2565b9050828103606084015261197f81866116d2565b9150508260808301529695505050505050565b6020808252600e908201526d139bdd08185d5d1a1bdc9a5e995960921b604082015260600190565b60208082526012908201527113595c98da185b9d081b9bdd08199bdd5b9960721b604082015260600190565b60208082526016908201527541637469766520636f6465206e6f742065786973747360501b604082015260600190565b6020808252601590820152741058dd1a5d994818dbd919481b9bdd08199bdd5b99605a1b604082015260600190565b634e487b7160e01b5f52601160045260245ffd5b818103818111156113e6576113e6611a45565b600181811c90821680611a8057607f821691505b602082108103611a9e57634e487b7160e01b5f52602260045260245ffd5b50919050565b601f821115611aeb57805f5260205f20601f840160051c81016020851015611ac95750805b601f840160051c820191505b81811015611ae8575f8155600101611ad5565b50505b505050565b81516001600160401b03811115611b0957611b09611580565b611b1d81611b178454611a6c565b84611aa4565b6020601f821160018114611b4f575f8315611b385750848201515b5f19600385901b1c1916600184901b178455611ae8565b5f84815260208120601f198516915b82811015611b7e5787850151825560209485019460019092019101611b5e565b5084821015611b9b57868401515f19600387901b60f8161c191681555b50505050600190811b01905550565b602081525f61157960208301846116d2565b634e487b7160e01b5f52601260045260245ffd5b5f82611bde57611bde611bbc565b500690565b5f82611bf157611bf1611bbc565b500490565b80820281158282048414176113e6576113e6611a45565b808201808211156113e6576113e6611a45565b6001815b6001841115611c5b57808504811115611c3f57611c3f611a45565b6001841615611c4d57908102905b60019390931c928002611c24565b935093915050565b5f82611c71575060016113e6565b81611c7d57505f6113e6565b8160018114611c935760028114611c9d57611cb9565b60019150506113e6565b60ff841115611cae57611cae611a45565b50506001821b6113e6565b5060208310610133831016604e8410600b8410161715611cdc575081810a6113e6565b611ce85f198484611c20565b805f1904821115611cfb57611cfb611a45565b029392505050565b5f6115798383611c6356fea2646970667358221220407edcd94afe370d156bd62db6d41410407f35a3c34181a1ba357a477068ad0564736f6c634300081a0033",
			"opcodes": "PUSH1 0x80 PUSH1 0x40 MSTORE CALLVALUE DUP1 ISZERO PUSH1 0xE JUMPI PUSH0 DUP1 REVERT JUMPDEST POP PUSH0 DUP1 SLOAD PUSH1 0x1 PUSH1 0x1 PUSH1 0xA0 SHL SUB NOT AND CALLER OR SWAP1 SSTORE PUSH2 0x1D44 DUP1 PUSH2 0x2D PUSH0 CODECOPY PUSH0 RETURN INVALID PUSH1 0x80 PUSH1 0x40 MSTORE CALLVALUE DUP1 ISZERO PUSH2 0xF JUMPI PUSH0 DUP1 REVERT JUMPDEST POP PUSH1 0x4 CALLDATASIZE LT PUSH2 0xA2 JUMPI PUSH0 CALLDATALOAD PUSH1 0xE0 SHR DUP1 PUSH4 0xB75C58F EQ PUSH2 0xA6 JUMPI DUP1 PUSH4 0x133ADAB6 EQ PUSH2 0xEB JUMPI DUP1 PUSH4 0x24E8779F EQ PUSH2 0x100 JUMPI DUP1 PUSH4 0x3AB0639B EQ PUSH2 0x113 JUMPI DUP1 PUSH4 0x8DA5CB5B EQ PUSH2 0x11B JUMPI DUP1 PUSH4 0xCECFE084 EQ PUSH2 0x12D JUMPI DUP1 PUSH4 0xCEF33810 EQ PUSH2 0x14E JUMPI DUP1 PUSH4 0xD4DD4B47 EQ PUSH2 0x16F JUMPI DUP1 PUSH4 0xE7B4CAC6 EQ PUSH2 0x182 JUMPI DUP1 PUSH4 0xEE14E939 EQ PUSH2 0x1A7 JUMPI DUP1 PUSH4 0xEEF814D3 EQ PUSH2 0x1CB JUMPI DUP1 PUSH4 0xF4F97658 EQ PUSH2 0x1E2 JUMPI JUMPDEST PUSH0 DUP1 REVERT JUMPDEST PUSH2 0xCE PUSH2 0xB4 CALLDATASIZE PUSH1 0x4 PUSH2 0x152E JUMP JUMPDEST PUSH1 0x3 PUSH1 0x20 MSTORE PUSH0 SWAP1 DUP2 MSTORE PUSH1 0x40 SWAP1 KECCAK256 SLOAD PUSH1 0x1 PUSH1 0x1 PUSH1 0xA0 SHL SUB AND DUP2 JUMP JUMPDEST PUSH1 0x40 MLOAD PUSH1 0x1 PUSH1 0x1 PUSH1 0xA0 SHL SUB SWAP1 SWAP2 AND DUP2 MSTORE PUSH1 0x20 ADD JUMPDEST PUSH1 0x40 MLOAD DUP1 SWAP2 SUB SWAP1 RETURN JUMPDEST PUSH2 0xFE PUSH2 0xF9 CALLDATASIZE PUSH1 0x4 PUSH2 0x1560 JUMP JUMPDEST PUSH2 0x1F5 JUMP JUMPDEST STOP JUMPDEST PUSH2 0xFE PUSH2 0x10E CALLDATASIZE PUSH1 0x4 PUSH2 0x152E JUMP JUMPDEST PUSH2 0x2E6 JUMP JUMPDEST PUSH2 0xFE PUSH2 0x3FC JUMP JUMPDEST PUSH0 SLOAD PUSH2 0xCE SWAP1 PUSH1 0x1 PUSH1 0x1 PUSH1 0xA0 SHL SUB AND DUP2 JUMP JUMPDEST PUSH2 0x140 PUSH2 0x13B CALLDATASIZE PUSH1 0x4 PUSH2 0x161D JUMP JUMPDEST PUSH2 0x4A7 JUMP JUMPDEST PUSH1 0x40 MLOAD SWAP1 DUP2 MSTORE PUSH1 0x20 ADD PUSH2 0xE2 JUMP JUMPDEST PUSH2 0x161 PUSH2 0x15C CALLDATASIZE PUSH1 0x4 PUSH2 0x152E JUMP JUMPDEST PUSH2 0x5BB JUMP JUMPDEST PUSH1 0x40 MLOAD PUSH2 0xE2 SWAP3 SWAP2 SWAP1 PUSH2 0x1700 JUMP JUMPDEST PUSH2 0xFE PUSH2 0x17D CALLDATASIZE PUSH1 0x4 PUSH2 0x180C JUMP JUMPDEST PUSH2 0xB64 JUMP JUMPDEST PUSH2 0x195 PUSH2 0x190 CALLDATASIZE PUSH1 0x4 PUSH2 0x1560 JUMP JUMPDEST PUSH2 0xCD1 JUMP JUMPDEST PUSH1 0x40 MLOAD PUSH2 0xE2 SWAP7 SWAP6 SWAP5 SWAP4 SWAP3 SWAP2 SWAP1 PUSH2 0x18D1 JUMP JUMPDEST PUSH2 0x1BA PUSH2 0x1B5 CALLDATASIZE PUSH1 0x4 PUSH2 0x1560 JUMP JUMPDEST PUSH2 0xF1C JUMP JUMPDEST PUSH1 0x40 MLOAD PUSH2 0xE2 SWAP6 SWAP5 SWAP4 SWAP3 SWAP2 SWAP1 PUSH2 0x1933 JUMP JUMPDEST CALLER PUSH0 SWAP1 DUP2 MSTORE PUSH1 0x2 PUSH1 0x20 MSTORE PUSH1 0x40 SWAP1 KECCAK256 PUSH1 0x4 ADD SLOAD PUSH2 0x140 JUMP JUMPDEST PUSH2 0xFE PUSH2 0x1F0 CALLDATASIZE PUSH1 0x4 PUSH2 0x161D JUMP JUMPDEST PUSH2 0x1161 JUMP JUMPDEST PUSH0 SLOAD PUSH1 0x1 PUSH1 0x1 PUSH1 0xA0 SHL SUB AND CALLER EQ PUSH2 0x227 JUMPI PUSH1 0x40 MLOAD PUSH3 0x461BCD PUSH1 0xE5 SHL DUP2 MSTORE PUSH1 0x4 ADD PUSH2 0x21E SWAP1 PUSH2 0x1992 JUMP JUMPDEST PUSH1 0x40 MLOAD DUP1 SWAP2 SUB SWAP1 REVERT JUMPDEST PUSH1 0x1 PUSH1 0x1 PUSH1 0xA0 SHL SUB DUP2 AND PUSH0 SWAP1 DUP2 MSTORE PUSH1 0x1 PUSH1 0x20 MSTORE PUSH1 0x40 SWAP1 KECCAK256 PUSH1 0x4 ADD SLOAD PUSH2 0x25E JUMPI PUSH1 0x40 MLOAD PUSH3 0x461BCD PUSH1 0xE5 SHL DUP2 MSTORE PUSH1 0x4 ADD PUSH2 0x21E SWAP1 PUSH2 0x19BA JUMP JUMPDEST PUSH1 0x1 PUSH1 0x1 PUSH1 0xA0 SHL SUB DUP2 AND PUSH0 SWAP1 DUP2 MSTORE PUSH1 0x1 PUSH1 0x20 MSTORE PUSH1 0x40 DUP2 KECCAK256 SWAP1 PUSH2 0x280 DUP3 DUP3 PUSH2 0x14E4 JUMP JUMPDEST PUSH2 0x28D PUSH1 0x1 DUP4 ADD PUSH0 PUSH2 0x14E4 JUMP JUMPDEST PUSH2 0x29A PUSH1 0x2 DUP4 ADD PUSH0 PUSH2 0x14E4 JUMP JUMPDEST PUSH2 0x2A7 PUSH1 0x3 DUP4 ADD PUSH0 PUSH2 0x14E4 JUMP JUMPDEST POP PUSH0 PUSH1 0x4 SWAP2 SWAP1 SWAP2 ADD DUP2 SWAP1 SSTORE PUSH1 0x40 MLOAD PUSH1 0x1 PUSH1 0x1 PUSH1 0xA0 SHL SUB DUP4 AND SWAP2 PUSH32 0xAE4BDF5ADABAFCA6721399496D24FE50FB6564EFFCB386FBAE92DE33540763BC SWAP2 LOG2 POP JUMP JUMPDEST PUSH2 0x2EF DUP2 PUSH2 0x1244 JUMP JUMPDEST PUSH2 0x30B JUMPI PUSH1 0x40 MLOAD PUSH3 0x461BCD PUSH1 0xE5 SHL DUP2 MSTORE PUSH1 0x4 ADD PUSH2 0x21E SWAP1 PUSH2 0x19E6 JUMP JUMPDEST PUSH0 DUP2 DUP2 MSTORE PUSH1 0x3 PUSH1 0x20 MSTORE PUSH1 0x40 SWAP1 KECCAK256 SLOAD PUSH1 0x1 PUSH1 0x1 PUSH1 0xA0 SHL SUB AND DUP1 PUSH2 0x33F JUMPI PUSH1 0x40 MLOAD PUSH3 0x461BCD PUSH1 0xE5 SHL DUP2 MSTORE PUSH1 0x4 ADD PUSH2 0x21E SWAP1 PUSH2 0x1A16 JUMP JUMPDEST PUSH1 0x1 PUSH1 0x1 PUSH1 0xA0 SHL SUB DUP2 AND PUSH0 SWAP1 DUP2 MSTORE PUSH1 0x2 PUSH1 0x20 MSTORE PUSH1 0x40 DUP2 KECCAK256 SWAP1 PUSH2 0x361 DUP3 DUP3 PUSH2 0x14E4 JUMP JUMPDEST PUSH2 0x36E PUSH1 0x1 DUP4 ADD PUSH0 PUSH2 0x14E4 JUMP JUMPDEST PUSH2 0x37B PUSH1 0x2 DUP4 ADD PUSH0 PUSH2 0x14E4 JUMP JUMPDEST PUSH2 0x388 PUSH1 0x3 DUP4 ADD PUSH0 PUSH2 0x14E4 JUMP JUMPDEST POP PUSH0 PUSH1 0x4 DUP3 ADD DUP2 SWAP1 SSTORE PUSH1 0x5 SWAP1 SWAP2 ADD DUP2 SWAP1 SSTORE DUP3 DUP2 MSTORE PUSH1 0x3 PUSH1 0x20 MSTORE PUSH1 0x40 SWAP1 DUP2 SWAP1 KECCAK256 DUP1 SLOAD PUSH1 0x1 PUSH1 0x1 PUSH1 0xA0 SHL SUB NOT AND SWAP1 SSTORE MLOAD PUSH1 0x1 PUSH1 0x1 PUSH1 0xA0 SHL SUB DUP3 AND SWAP1 PUSH32 0xE9F653AB6DBFCCFBF599E332A5CF4AA24C7D943D1FA32B4607A0ECC6063B3C04 SWAP1 PUSH2 0x3F0 SWAP1 DUP6 DUP2 MSTORE PUSH1 0x20 ADD SWAP1 JUMP JUMPDEST PUSH1 0x40 MLOAD DUP1 SWAP2 SUB SWAP1 LOG2 POP POP JUMP JUMPDEST PUSH0 SLOAD PUSH1 0x1 PUSH1 0x1 PUSH1 0xA0 SHL SUB AND CALLER EQ PUSH2 0x425 JUMPI PUSH1 0x40 MLOAD PUSH3 0x461BCD PUSH1 0xE5 SHL DUP2 MSTORE PUSH1 0x4 ADD PUSH2 0x21E SWAP1 PUSH2 0x1992 JUMP JUMPDEST CALLER PUSH0 DUP2 DUP2 MSTORE PUSH1 0x2 PUSH1 0x20 MSTORE PUSH1 0x40 SWAP1 KECCAK256 PUSH1 0x5 ADD SLOAD PUSH2 0x384 SWAP1 PUSH2 0x445 SWAP1 TIMESTAMP PUSH2 0x1A59 JUMP JUMPDEST GT ISZERO PUSH2 0x4A4 JUMPI PUSH1 0x1 PUSH1 0x1 PUSH1 0xA0 SHL SUB DUP2 AND PUSH0 SWAP1 DUP2 MSTORE PUSH1 0x2 PUSH1 0x20 MSTORE PUSH1 0x40 DUP2 KECCAK256 SWAP1 PUSH2 0x46D DUP3 DUP3 PUSH2 0x14E4 JUMP JUMPDEST PUSH2 0x47A PUSH1 0x1 DUP4 ADD PUSH0 PUSH2 0x14E4 JUMP JUMPDEST PUSH2 0x487 PUSH1 0x2 DUP4 ADD PUSH0 PUSH2 0x14E4 JUMP JUMPDEST PUSH2 0x494 PUSH1 0x3 DUP4 ADD PUSH0 PUSH2 0x14E4 JUMP JUMPDEST POP PUSH0 PUSH1 0x4 DUP3 ADD DUP2 SWAP1 SSTORE PUSH1 0x5 SWAP1 SWAP2 ADD SSTORE JUMPDEST POP JUMP JUMPDEST PUSH0 DUP1 PUSH2 0x4B1 PUSH2 0x12DB JUMP JUMPDEST PUSH1 0x40 DUP1 MLOAD PUSH1 0xC0 DUP2 ADD DUP3 MSTORE DUP9 DUP2 MSTORE PUSH1 0x20 DUP1 DUP3 ADD DUP10 SWAP1 MSTORE DUP2 DUP4 ADD DUP9 SWAP1 MSTORE PUSH1 0x60 DUP3 ADD DUP8 SWAP1 MSTORE PUSH1 0x80 DUP3 ADD DUP5 SWAP1 MSTORE TIMESTAMP PUSH1 0xA0 DUP4 ADD MSTORE CALLER PUSH0 SWAP1 DUP2 MSTORE PUSH1 0x2 SWAP1 SWAP2 MSTORE SWAP2 SWAP1 SWAP2 KECCAK256 DUP2 MLOAD SWAP3 SWAP4 POP SWAP1 SWAP2 DUP2 SWAP1 PUSH2 0x501 SWAP1 DUP3 PUSH2 0x1AF0 JUMP JUMPDEST POP PUSH1 0x20 DUP3 ADD MLOAD PUSH1 0x1 DUP3 ADD SWAP1 PUSH2 0x516 SWAP1 DUP3 PUSH2 0x1AF0 JUMP JUMPDEST POP PUSH1 0x40 DUP3 ADD MLOAD PUSH1 0x2 DUP3 ADD SWAP1 PUSH2 0x52B SWAP1 DUP3 PUSH2 0x1AF0 JUMP JUMPDEST POP PUSH1 0x60 DUP3 ADD MLOAD PUSH1 0x3 DUP3 ADD SWAP1 PUSH2 0x540 SWAP1 DUP3 PUSH2 0x1AF0 JUMP JUMPDEST POP PUSH1 0x80 DUP3 ADD MLOAD PUSH1 0x4 DUP3 ADD SSTORE PUSH1 0xA0 SWAP1 SWAP2 ADD MLOAD PUSH1 0x5 SWAP1 SWAP2 ADD SSTORE PUSH0 DUP2 DUP2 MSTORE PUSH1 0x3 PUSH1 0x20 MSTORE PUSH1 0x40 SWAP1 DUP2 SWAP1 KECCAK256 DUP1 SLOAD PUSH1 0x1 PUSH1 0x1 PUSH1 0xA0 SHL SUB NOT AND CALLER SWAP1 DUP2 OR SWAP1 SWAP2 SSTORE SWAP1 MLOAD PUSH32 0xEC66EAC7CC2B6555E1742961A9EE17E918D7FF81B635FAC9CC6833245D279D6 SWAP1 PUSH2 0x5AA SWAP1 DUP5 DUP2 MSTORE PUSH1 0x20 ADD SWAP1 JUMP JUMPDEST PUSH1 0x40 MLOAD DUP1 SWAP2 SUB SWAP1 LOG2 SWAP6 SWAP5 POP POP POP POP POP JUMP JUMPDEST PUSH2 0x5EC PUSH1 0x40 MLOAD DUP1 PUSH1 0xA0 ADD PUSH1 0x40 MSTORE DUP1 PUSH1 0x60 DUP2 MSTORE PUSH1 0x20 ADD PUSH1 0x60 DUP2 MSTORE PUSH1 0x20 ADD PUSH1 0x60 DUP2 MSTORE PUSH1 0x20 ADD PUSH1 0x60 DUP2 MSTORE PUSH1 0x20 ADD PUSH0 DUP2 MSTORE POP SWAP1 JUMP JUMPDEST PUSH2 0x623 PUSH1 0x40 MLOAD DUP1 PUSH1 0xC0 ADD PUSH1 0x40 MSTORE DUP1 PUSH1 0x60 DUP2 MSTORE PUSH1 0x20 ADD PUSH1 0x60 DUP2 MSTORE PUSH1 0x20 ADD PUSH1 0x60 DUP2 MSTORE PUSH1 0x20 ADD PUSH1 0x60 DUP2 MSTORE PUSH1 0x20 ADD PUSH0 DUP2 MSTORE PUSH1 0x20 ADD PUSH0 DUP2 MSTORE POP SWAP1 JUMP JUMPDEST PUSH2 0x62C DUP4 PUSH2 0x1244 JUMP JUMPDEST PUSH2 0x648 JUMPI PUSH1 0x40 MLOAD PUSH3 0x461BCD PUSH1 0xE5 SHL DUP2 MSTORE PUSH1 0x4 ADD PUSH2 0x21E SWAP1 PUSH2 0x19E6 JUMP JUMPDEST PUSH0 DUP4 DUP2 MSTORE PUSH1 0x3 PUSH1 0x20 MSTORE PUSH1 0x40 SWAP1 KECCAK256 SLOAD PUSH1 0x1 PUSH1 0x1 PUSH1 0xA0 SHL SUB AND DUP1 PUSH2 0x67C JUMPI PUSH1 0x40 MLOAD PUSH3 0x461BCD PUSH1 0xE5 SHL DUP2 MSTORE PUSH1 0x4 ADD PUSH2 0x21E SWAP1 PUSH2 0x1A16 JUMP JUMPDEST PUSH1 0x1 PUSH1 0x1 PUSH1 0xA0 SHL SUB DUP2 AND PUSH0 SWAP1 DUP2 MSTORE PUSH1 0x1 PUSH1 0x20 SWAP1 DUP2 MSTORE PUSH1 0x40 DUP1 DUP4 KECCAK256 PUSH1 0x2 SWAP1 SWAP3 MSTORE SWAP2 DUP3 SWAP1 KECCAK256 DUP3 MLOAD PUSH1 0xA0 DUP2 ADD SWAP1 SWAP4 MSTORE DUP2 SLOAD SWAP2 SWAP3 SWAP1 SWAP2 DUP4 SWAP1 DUP3 SWAP1 DUP3 SWAP1 PUSH2 0x6BD SWAP1 PUSH2 0x1A6C JUMP JUMPDEST DUP1 PUSH1 0x1F ADD PUSH1 0x20 DUP1 SWAP2 DIV MUL PUSH1 0x20 ADD PUSH1 0x40 MLOAD SWAP1 DUP2 ADD PUSH1 0x40 MSTORE DUP1 SWAP3 SWAP2 SWAP1 DUP2 DUP2 MSTORE PUSH1 0x20 ADD DUP3 DUP1 SLOAD PUSH2 0x6E9 SWAP1 PUSH2 0x1A6C JUMP JUMPDEST DUP1 ISZERO PUSH2 0x734 JUMPI DUP1 PUSH1 0x1F LT PUSH2 0x70B JUMPI PUSH2 0x100 DUP1 DUP4 SLOAD DIV MUL DUP4 MSTORE SWAP2 PUSH1 0x20 ADD SWAP2 PUSH2 0x734 JUMP JUMPDEST DUP3 ADD SWAP2 SWAP1 PUSH0 MSTORE PUSH1 0x20 PUSH0 KECCAK256 SWAP1 JUMPDEST DUP2 SLOAD DUP2 MSTORE SWAP1 PUSH1 0x1 ADD SWAP1 PUSH1 0x20 ADD DUP1 DUP4 GT PUSH2 0x717 JUMPI DUP3 SWAP1 SUB PUSH1 0x1F AND DUP3 ADD SWAP2 JUMPDEST POP POP POP POP POP DUP2 MSTORE PUSH1 0x20 ADD PUSH1 0x1 DUP3 ADD DUP1 SLOAD PUSH2 0x74D SWAP1 PUSH2 0x1A6C JUMP JUMPDEST DUP1 PUSH1 0x1F ADD PUSH1 0x20 DUP1 SWAP2 DIV MUL PUSH1 0x20 ADD PUSH1 0x40 MLOAD SWAP1 DUP2 ADD PUSH1 0x40 MSTORE DUP1 SWAP3 SWAP2 SWAP1 DUP2 DUP2 MSTORE PUSH1 0x20 ADD DUP3 DUP1 SLOAD PUSH2 0x779 SWAP1 PUSH2 0x1A6C JUMP JUMPDEST DUP1 ISZERO PUSH2 0x7C4 JUMPI DUP1 PUSH1 0x1F LT PUSH2 0x79B JUMPI PUSH2 0x100 DUP1 DUP4 SLOAD DIV MUL DUP4 MSTORE SWAP2 PUSH1 0x20 ADD SWAP2 PUSH2 0x7C4 JUMP JUMPDEST DUP3 ADD SWAP2 SWAP1 PUSH0 MSTORE PUSH1 0x20 PUSH0 KECCAK256 SWAP1 JUMPDEST DUP2 SLOAD DUP2 MSTORE SWAP1 PUSH1 0x1 ADD SWAP1 PUSH1 0x20 ADD DUP1 DUP4 GT PUSH2 0x7A7 JUMPI DUP3 SWAP1 SUB PUSH1 0x1F AND DUP3 ADD SWAP2 JUMPDEST POP POP POP POP POP DUP2 MSTORE PUSH1 0x20 ADD PUSH1 0x2 DUP3 ADD DUP1 SLOAD PUSH2 0x7DD SWAP1 PUSH2 0x1A6C JUMP JUMPDEST DUP1 PUSH1 0x1F ADD PUSH1 0x20 DUP1 SWAP2 DIV MUL PUSH1 0x20 ADD PUSH1 0x40 MLOAD SWAP1 DUP2 ADD PUSH1 0x40 MSTORE DUP1 SWAP3 SWAP2 SWAP1 DUP2 DUP2 MSTORE PUSH1 0x20 ADD DUP3 DUP1 SLOAD PUSH2 0x809 SWAP1 PUSH2 0x1A6C JUMP JUMPDEST DUP1 ISZERO PUSH2 0x854 JUMPI DUP1 PUSH1 0x1F LT PUSH2 0x82B JUMPI PUSH2 0x100 DUP1 DUP4 SLOAD DIV MUL DUP4 MSTORE SWAP2 PUSH1 0x20 ADD SWAP2 PUSH2 0x854 JUMP JUMPDEST DUP3 ADD SWAP2 SWAP1 PUSH0 MSTORE PUSH1 0x20 PUSH0 KECCAK256 SWAP1 JUMPDEST DUP2 SLOAD DUP2 MSTORE SWAP1 PUSH1 0x1 ADD SWAP1 PUSH1 0x20 ADD DUP1 DUP4 GT PUSH2 0x837 JUMPI DUP3 SWAP1 SUB PUSH1 0x1F AND DUP3 ADD SWAP2 JUMPDEST POP POP POP POP POP DUP2 MSTORE PUSH1 0x20 ADD PUSH1 0x3 DUP3 ADD DUP1 SLOAD PUSH2 0x86D SWAP1 PUSH2 0x1A6C JUMP JUMPDEST DUP1 PUSH1 0x1F ADD PUSH1 0x20 DUP1 SWAP2 DIV MUL PUSH1 0x20 ADD PUSH1 0x40 MLOAD SWAP1 DUP2 ADD PUSH1 0x40 MSTORE DUP1 SWAP3 SWAP2 SWAP1 DUP2 DUP2 MSTORE PUSH1 0x20 ADD DUP3 DUP1 SLOAD PUSH2 0x899 SWAP1 PUSH2 0x1A6C JUMP JUMPDEST DUP1 ISZERO PUSH2 0x8E4 JUMPI DUP1 PUSH1 0x1F LT PUSH2 0x8BB JUMPI PUSH2 0x100 DUP1 DUP4 SLOAD DIV MUL DUP4 MSTORE SWAP2 PUSH1 0x20 ADD SWAP2 PUSH2 0x8E4 JUMP JUMPDEST DUP3 ADD SWAP2 SWAP1 PUSH0 MSTORE PUSH1 0x20 PUSH0 KECCAK256 SWAP1 JUMPDEST DUP2 SLOAD DUP2 MSTORE SWAP1 PUSH1 0x1 ADD SWAP1 PUSH1 0x20 ADD DUP1 DUP4 GT PUSH2 0x8C7 JUMPI DUP3 SWAP1 SUB PUSH1 0x1F AND DUP3 ADD SWAP2 JUMPDEST POP POP POP POP POP DUP2 MSTORE PUSH1 0x20 ADD PUSH1 0x4 DUP3 ADD SLOAD DUP2 MSTORE POP POP SWAP2 POP DUP1 PUSH1 0x40 MLOAD DUP1 PUSH1 0xC0 ADD PUSH1 0x40 MSTORE SWAP1 DUP2 PUSH0 DUP3 ADD DUP1 SLOAD PUSH2 0x914 SWAP1 PUSH2 0x1A6C JUMP JUMPDEST DUP1 PUSH1 0x1F ADD PUSH1 0x20 DUP1 SWAP2 DIV MUL PUSH1 0x20 ADD PUSH1 0x40 MLOAD SWAP1 DUP2 ADD PUSH1 0x40 MSTORE DUP1 SWAP3 SWAP2 SWAP1 DUP2 DUP2 MSTORE PUSH1 0x20 ADD DUP3 DUP1 SLOAD PUSH2 0x940 SWAP1 PUSH2 0x1A6C JUMP JUMPDEST DUP1 ISZERO PUSH2 0x98B JUMPI DUP1 PUSH1 0x1F LT PUSH2 0x962 JUMPI PUSH2 0x100 DUP1 DUP4 SLOAD DIV MUL DUP4 MSTORE SWAP2 PUSH1 0x20 ADD SWAP2 PUSH2 0x98B JUMP JUMPDEST DUP3 ADD SWAP2 SWAP1 PUSH0 MSTORE PUSH1 0x20 PUSH0 KECCAK256 SWAP1 JUMPDEST DUP2 SLOAD DUP2 MSTORE SWAP1 PUSH1 0x1 ADD SWAP1 PUSH1 0x20 ADD DUP1 DUP4 GT PUSH2 0x96E JUMPI DUP3 SWAP1 SUB PUSH1 0x1F AND DUP3 ADD SWAP2 JUMPDEST POP POP POP POP POP DUP2 MSTORE PUSH1 0x20 ADD PUSH1 0x1 DUP3 ADD DUP1 SLOAD PUSH2 0x9A4 SWAP1 PUSH2 0x1A6C JUMP JUMPDEST DUP1 PUSH1 0x1F ADD PUSH1 0x20 DUP1 SWAP2 DIV MUL PUSH1 0x20 ADD PUSH1 0x40 MLOAD SWAP1 DUP2 ADD PUSH1 0x40 MSTORE DUP1 SWAP3 SWAP2 SWAP1 DUP2 DUP2 MSTORE PUSH1 0x20 ADD DUP3 DUP1 SLOAD PUSH2 0x9D0 SWAP1 PUSH2 0x1A6C JUMP JUMPDEST DUP1 ISZERO PUSH2 0xA1B JUMPI DUP1 PUSH1 0x1F LT PUSH2 0x9F2 JUMPI PUSH2 0x100 DUP1 DUP4 SLOAD DIV MUL DUP4 MSTORE SWAP2 PUSH1 0x20 ADD SWAP2 PUSH2 0xA1B JUMP JUMPDEST DUP3 ADD SWAP2 SWAP1 PUSH0 MSTORE PUSH1 0x20 PUSH0 KECCAK256 SWAP1 JUMPDEST DUP2 SLOAD DUP2 MSTORE SWAP1 PUSH1 0x1 ADD SWAP1 PUSH1 0x20 ADD DUP1 DUP4 GT PUSH2 0x9FE JUMPI DUP3 SWAP1 SUB PUSH1 0x1F AND DUP3 ADD SWAP2 JUMPDEST POP POP POP POP POP DUP2 MSTORE PUSH1 0x20 ADD PUSH1 0x2 DUP3 ADD DUP1 SLOAD PUSH2 0xA34 SWAP1 PUSH2 0x1A6C JUMP JUMPDEST DUP1 PUSH1 0x1F ADD PUSH1 0x20 DUP1 SWAP2 DIV MUL PUSH1 0x20 ADD PUSH1 0x40 MLOAD SWAP1 DUP2 ADD PUSH1 0x40 MSTORE DUP1 SWAP3 SWAP2 SWAP1 DUP2 DUP2 MSTORE PUSH1 0x20 ADD DUP3 DUP1 SLOAD PUSH2 0xA60 SWAP1 PUSH2 0x1A6C JUMP JUMPDEST DUP1 ISZERO PUSH2 0xAAB JUMPI DUP1 PUSH1 0x1F LT PUSH2 0xA82 JUMPI PUSH2 0x100 DUP1 DUP4 SLOAD DIV MUL DUP4 MSTORE SWAP2 PUSH1 0x20 ADD SWAP2 PUSH2 0xAAB JUMP JUMPDEST DUP3 ADD SWAP2 SWAP1 PUSH0 MSTORE PUSH1 0x20 PUSH0 KECCAK256 SWAP1 JUMPDEST DUP2 SLOAD DUP2 MSTORE SWAP1 PUSH1 0x1 ADD SWAP1 PUSH1 0x20 ADD DUP1 DUP4 GT PUSH2 0xA8E JUMPI DUP3 SWAP1 SUB PUSH1 0x1F AND DUP3 ADD SWAP2 JUMPDEST POP POP POP POP POP DUP2 MSTORE PUSH1 0x20 ADD PUSH1 0x3 DUP3 ADD DUP1 SLOAD PUSH2 0xAC4 SWAP1 PUSH2 0x1A6C JUMP JUMPDEST DUP1 PUSH1 0x1F ADD PUSH1 0x20 DUP1 SWAP2 DIV MUL PUSH1 0x20 ADD PUSH1 0x40 MLOAD SWAP1 DUP2 ADD PUSH1 0x40 MSTORE DUP1 SWAP3 SWAP2 SWAP1 DUP2 DUP2 MSTORE PUSH1 0x20 ADD DUP3 DUP1 SLOAD PUSH2 0xAF0 SWAP1 PUSH2 0x1A6C JUMP JUMPDEST DUP1 ISZERO PUSH2 0xB3B JUMPI DUP1 PUSH1 0x1F LT PUSH2 0xB12 JUMPI PUSH2 0x100 DUP1 DUP4 SLOAD DIV MUL DUP4 MSTORE SWAP2 PUSH1 0x20 ADD SWAP2 PUSH2 0xB3B JUMP JUMPDEST DUP3 ADD SWAP2 SWAP1 PUSH0 MSTORE PUSH1 0x20 PUSH0 KECCAK256 SWAP1 JUMPDEST DUP2 SLOAD DUP2 MSTORE SWAP1 PUSH1 0x1 ADD SWAP1 PUSH1 0x20 ADD DUP1 DUP4 GT PUSH2 0xB1E JUMPI DUP3 SWAP1 SUB PUSH1 0x1F AND DUP3 ADD SWAP2 JUMPDEST POP POP POP POP POP DUP2 MSTORE PUSH1 0x20 ADD PUSH1 0x4 DUP3 ADD SLOAD DUP2 MSTORE PUSH1 0x20 ADD PUSH1 0x5 DUP3 ADD SLOAD DUP2 MSTORE POP POP SWAP1 POP SWAP3 POP SWAP3 POP POP SWAP2 POP SWAP2 JUMP JUMPDEST PUSH0 SLOAD PUSH1 0x1 PUSH1 0x1 PUSH1 0xA0 SHL SUB AND CALLER EQ PUSH2 0xB8D JUMPI PUSH1 0x40 MLOAD PUSH3 0x461BCD PUSH1 0xE5 SHL DUP2 MSTORE PUSH1 0x4 ADD PUSH2 0x21E SWAP1 PUSH2 0x1992 JUMP JUMPDEST PUSH1 0x1 PUSH1 0x1 PUSH1 0xA0 SHL SUB DUP6 AND PUSH0 SWAP1 DUP2 MSTORE PUSH1 0x1 PUSH1 0x20 MSTORE PUSH1 0x40 SWAP1 KECCAK256 PUSH1 0x4 ADD SLOAD ISZERO PUSH2 0xBEF JUMPI PUSH1 0x40 MLOAD PUSH3 0x461BCD PUSH1 0xE5 SHL DUP2 MSTORE PUSH1 0x20 PUSH1 0x4 DUP3 ADD MSTORE PUSH1 0x17 PUSH1 0x24 DUP3 ADD MSTORE PUSH23 0x4D65726368616E7420616C726561647920657869737473 PUSH1 0x48 SHL PUSH1 0x44 DUP3 ADD MSTORE PUSH1 0x64 ADD PUSH2 0x21E JUMP JUMPDEST PUSH1 0x40 DUP1 MLOAD PUSH1 0xA0 DUP2 ADD DUP3 MSTORE DUP6 DUP2 MSTORE PUSH1 0x20 DUP1 DUP3 ADD DUP7 SWAP1 MSTORE DUP2 DUP4 ADD DUP6 SWAP1 MSTORE PUSH1 0x60 DUP3 ADD DUP5 SWAP1 MSTORE TIMESTAMP PUSH1 0x80 DUP4 ADD MSTORE PUSH1 0x1 PUSH1 0x1 PUSH1 0xA0 SHL SUB DUP9 AND PUSH0 SWAP1 DUP2 MSTORE PUSH1 0x1 SWAP1 SWAP2 MSTORE SWAP2 SWAP1 SWAP2 KECCAK256 DUP2 MLOAD DUP2 SWAP1 PUSH2 0xC3C SWAP1 DUP3 PUSH2 0x1AF0 JUMP JUMPDEST POP PUSH1 0x20 DUP3 ADD MLOAD PUSH1 0x1 DUP3 ADD SWAP1 PUSH2 0xC51 SWAP1 DUP3 PUSH2 0x1AF0 JUMP JUMPDEST POP PUSH1 0x40 DUP3 ADD MLOAD PUSH1 0x2 DUP3 ADD SWAP1 PUSH2 0xC66 SWAP1 DUP3 PUSH2 0x1AF0 JUMP JUMPDEST POP PUSH1 0x60 DUP3 ADD MLOAD PUSH1 0x3 DUP3 ADD SWAP1 PUSH2 0xC7B SWAP1 DUP3 PUSH2 0x1AF0 JUMP JUMPDEST POP PUSH1 0x80 DUP3 ADD MLOAD DUP2 PUSH1 0x4 ADD SSTORE SWAP1 POP POP CALLER PUSH1 0x1 PUSH1 0x1 PUSH1 0xA0 SHL SUB AND PUSH32 0xEC31B5C87EA82F60C8BC1DD8262F275183D0D7BC8C37CDBBFD74130441818FBC DUP6 PUSH1 0x40 MLOAD PUSH2 0xCC2 SWAP2 SWAP1 PUSH2 0x1BAA JUMP JUMPDEST PUSH1 0x40 MLOAD DUP1 SWAP2 SUB SWAP1 LOG2 POP POP POP POP POP JUMP JUMPDEST PUSH1 0x2 PUSH1 0x20 MSTORE PUSH0 SWAP1 DUP2 MSTORE PUSH1 0x40 SWAP1 KECCAK256 DUP1 SLOAD DUP2 SWAP1 PUSH2 0xCEB SWAP1 PUSH2 0x1A6C JUMP JUMPDEST DUP1 PUSH1 0x1F ADD PUSH1 0x20 DUP1 SWAP2 DIV MUL PUSH1 0x20 ADD PUSH1 0x40 MLOAD SWAP1 DUP2 ADD PUSH1 0x40 MSTORE DUP1 SWAP3 SWAP2 SWAP1 DUP2 DUP2 MSTORE PUSH1 0x20 ADD DUP3 DUP1 SLOAD PUSH2 0xD17 SWAP1 PUSH2 0x1A6C JUMP JUMPDEST DUP1 ISZERO PUSH2 0xD62 JUMPI DUP1 PUSH1 0x1F LT PUSH2 0xD39 JUMPI PUSH2 0x100 DUP1 DUP4 SLOAD DIV MUL DUP4 MSTORE SWAP2 PUSH1 0x20 ADD SWAP2 PUSH2 0xD62 JUMP JUMPDEST DUP3 ADD SWAP2 SWAP1 PUSH0 MSTORE PUSH1 0x20 PUSH0 KECCAK256 SWAP1 JUMPDEST DUP2 SLOAD DUP2 MSTORE SWAP1 PUSH1 0x1 ADD SWAP1 PUSH1 0x20 ADD DUP1 DUP4 GT PUSH2 0xD45 JUMPI DUP3 SWAP1 SUB PUSH1 0x1F AND DUP3 ADD SWAP2 JUMPDEST POP POP POP POP POP SWAP1 DUP1 PUSH1 0x1 ADD DUP1 SLOAD PUSH2 0xD77 SWAP1 PUSH2 0x1A6C JUMP JUMPDEST DUP1 PUSH1 0x1F ADD PUSH1 0x20 DUP1 SWAP2 DIV MUL PUSH1 0x20 ADD PUSH1 0x40 MLOAD SWAP1 DUP2 ADD PUSH1 0x40 MSTORE DUP1 SWAP3 SWAP2 SWAP1 DUP2 DUP2 MSTORE PUSH1 0x20 ADD DUP3 DUP1 SLOAD PUSH2 0xDA3 SWAP1 PUSH2 0x1A6C JUMP JUMPDEST DUP1 ISZERO PUSH2 0xDEE JUMPI DUP1 PUSH1 0x1F LT PUSH2 0xDC5 JUMPI PUSH2 0x100 DUP1 DUP4 SLOAD DIV MUL DUP4 MSTORE SWAP2 PUSH1 0x20 ADD SWAP2 PUSH2 0xDEE JUMP JUMPDEST DUP3 ADD SWAP2 SWAP1 PUSH0 MSTORE PUSH1 0x20 PUSH0 KECCAK256 SWAP1 JUMPDEST DUP2 SLOAD DUP2 MSTORE SWAP1 PUSH1 0x1 ADD SWAP1 PUSH1 0x20 ADD DUP1 DUP4 GT PUSH2 0xDD1 JUMPI DUP3 SWAP1 SUB PUSH1 0x1F AND DUP3 ADD SWAP2 JUMPDEST POP POP POP POP POP SWAP1 DUP1 PUSH1 0x2 ADD DUP1 SLOAD PUSH2 0xE03 SWAP1 PUSH2 0x1A6C JUMP JUMPDEST DUP1 PUSH1 0x1F ADD PUSH1 0x20 DUP1 SWAP2 DIV MUL PUSH1 0x20 ADD PUSH1 0x40 MLOAD SWAP1 DUP2 ADD PUSH1 0x40 MSTORE DUP1 SWAP3 SWAP2 SWAP1 DUP2 DUP2 MSTORE PUSH1 0x20 ADD DUP3 DUP1 SLOAD PUSH2 0xE2F SWAP1 PUSH2 0x1A6C JUMP JUMPDEST DUP1 ISZERO PUSH2 0xE7A JUMPI DUP1 PUSH1 0x1F LT PUSH2 0xE51 JUMPI PUSH2 0x100 DUP1 DUP4 SLOAD DIV MUL DUP4 MSTORE SWAP2 PUSH1 0x20 ADD SWAP2 PUSH2 0xE7A JUMP JUMPDEST DUP3 ADD SWAP2 SWAP1 PUSH0 MSTORE PUSH1 0x20 PUSH0 KECCAK256 SWAP1 JUMPDEST DUP2 SLOAD DUP2 MSTORE SWAP1 PUSH1 0x1 ADD SWAP1 PUSH1 0x20 ADD DUP1 DUP4 GT PUSH2 0xE5D JUMPI DUP3 SWAP1 SUB PUSH1 0x1F AND DUP3 ADD SWAP2 JUMPDEST POP POP POP POP POP SWAP1 DUP1 PUSH1 0x3 ADD DUP1 SLOAD PUSH2 0xE8F SWAP1 PUSH2 0x1A6C JUMP JUMPDEST DUP1 PUSH1 0x1F ADD PUSH1 0x20 DUP1 SWAP2 DIV MUL PUSH1 0x20 ADD PUSH1 0x40 MLOAD SWAP1 DUP2 ADD PUSH1 0x40 MSTORE DUP1 SWAP3 SWAP2 SWAP1 DUP2 DUP2 MSTORE PUSH1 0x20 ADD DUP3 DUP1 SLOAD PUSH2 0xEBB SWAP1 PUSH2 0x1A6C JUMP JUMPDEST DUP1 ISZERO PUSH2 0xF06 JUMPI DUP1 PUSH1 0x1F LT PUSH2 0xEDD JUMPI PUSH2 0x100 DUP1 DUP4 SLOAD DIV MUL DUP4 MSTORE SWAP2 PUSH1 0x20 ADD SWAP2 PUSH2 0xF06 JUMP JUMPDEST DUP3 ADD SWAP2 SWAP1 PUSH0 MSTORE PUSH1 0x20 PUSH0 KECCAK256 SWAP1 JUMPDEST DUP2 SLOAD DUP2 MSTORE SWAP1 PUSH1 0x1 ADD SWAP1 PUSH1 0x20 ADD DUP1 DUP4 GT PUSH2 0xEE9 JUMPI DUP3 SWAP1 SUB PUSH1 0x1F AND DUP3 ADD SWAP2 JUMPDEST POP POP POP POP POP SWAP1 DUP1 PUSH1 0x4 ADD SLOAD SWAP1 DUP1 PUSH1 0x5 ADD SLOAD SWAP1 POP DUP7 JUMP JUMPDEST PUSH1 0x1 PUSH1 0x20 MSTORE PUSH0 SWAP1 DUP2 MSTORE PUSH1 0x40 SWAP1 KECCAK256 DUP1 SLOAD DUP2 SWAP1 PUSH2 0xF36 SWAP1 PUSH2 0x1A6C JUMP JUMPDEST DUP1 PUSH1 0x1F ADD PUSH1 0x20 DUP1 SWAP2 DIV MUL PUSH1 0x20 ADD PUSH1 0x40 MLOAD SWAP1 DUP2 ADD PUSH1 0x40 MSTORE DUP1 SWAP3 SWAP2 SWAP1 DUP2 DUP2 MSTORE PUSH1 0x20 ADD DUP3 DUP1 SLOAD PUSH2 0xF62 SWAP1 PUSH2 0x1A6C JUMP JUMPDEST DUP1 ISZERO PUSH2 0xFAD JUMPI DUP1 PUSH1 0x1F LT PUSH2 0xF84 JUMPI PUSH2 0x100 DUP1 DUP4 SLOAD DIV MUL DUP4 MSTORE SWAP2 PUSH1 0x20 ADD SWAP2 PUSH2 0xFAD JUMP JUMPDEST DUP3 ADD SWAP2 SWAP1 PUSH0 MSTORE PUSH1 0x20 PUSH0 KECCAK256 SWAP1 JUMPDEST DUP2 SLOAD DUP2 MSTORE SWAP1 PUSH1 0x1 ADD SWAP1 PUSH1 0x20 ADD DUP1 DUP4 GT PUSH2 0xF90 JUMPI DUP3 SWAP1 SUB PUSH1 0x1F AND DUP3 ADD SWAP2 JUMPDEST POP POP POP POP POP SWAP1 DUP1 PUSH1 0x1 ADD DUP1 SLOAD PUSH2 0xFC2 SWAP1 PUSH2 0x1A6C JUMP JUMPDEST DUP1 PUSH1 0x1F ADD PUSH1 0x20 DUP1 SWAP2 DIV MUL PUSH1 0x20 ADD PUSH1 0x40 MLOAD SWAP1 DUP2 ADD PUSH1 0x40 MSTORE DUP1 SWAP3 SWAP2 SWAP1 DUP2 DUP2 MSTORE PUSH1 0x20 ADD DUP3 DUP1 SLOAD PUSH2 0xFEE SWAP1 PUSH2 0x1A6C JUMP JUMPDEST DUP1 ISZERO PUSH2 0x1039 JUMPI DUP1 PUSH1 0x1F LT PUSH2 0x1010 JUMPI PUSH2 0x100 DUP1 DUP4 SLOAD DIV MUL DUP4 MSTORE SWAP2 PUSH1 0x20 ADD SWAP2 PUSH2 0x1039 JUMP JUMPDEST DUP3 ADD SWAP2 SWAP1 PUSH0 MSTORE PUSH1 0x20 PUSH0 KECCAK256 SWAP1 JUMPDEST DUP2 SLOAD DUP2 MSTORE SWAP1 PUSH1 0x1 ADD SWAP1 PUSH1 0x20 ADD DUP1 DUP4 GT PUSH2 0x101C JUMPI DUP3 SWAP1 SUB PUSH1 0x1F AND DUP3 ADD SWAP2 JUMPDEST POP POP POP POP POP SWAP1 DUP1 PUSH1 0x2 ADD DUP1 SLOAD PUSH2 0x104E SWAP1 PUSH2 0x1A6C JUMP JUMPDEST DUP1 PUSH1 0x1F ADD PUSH1 0x20 DUP1 SWAP2 DIV MUL PUSH1 0x20 ADD PUSH1 0x40 MLOAD SWAP1 DUP2 ADD PUSH1 0x40 MSTORE DUP1 SWAP3 SWAP2 SWAP1 DUP2 DUP2 MSTORE PUSH1 0x20 ADD DUP3 DUP1 SLOAD PUSH2 0x107A SWAP1 PUSH2 0x1A6C JUMP JUMPDEST DUP1 ISZERO PUSH2 0x10C5 JUMPI DUP1 PUSH1 0x1F LT PUSH2 0x109C JUMPI PUSH2 0x100 DUP1 DUP4 SLOAD DIV MUL DUP4 MSTORE SWAP2 PUSH1 0x20 ADD SWAP2 PUSH2 0x10C5 JUMP JUMPDEST DUP3 ADD SWAP2 SWAP1 PUSH0 MSTORE PUSH1 0x20 PUSH0 KECCAK256 SWAP1 JUMPDEST DUP2 SLOAD DUP2 MSTORE SWAP1 PUSH1 0x1 ADD SWAP1 PUSH1 0x20 ADD DUP1 DUP4 GT PUSH2 0x10A8 JUMPI DUP3 SWAP1 SUB PUSH1 0x1F AND DUP3 ADD SWAP2 JUMPDEST POP POP POP POP POP SWAP1 DUP1 PUSH1 0x3 ADD DUP1 SLOAD PUSH2 0x10DA SWAP1 PUSH2 0x1A6C JUMP JUMPDEST DUP1 PUSH1 0x1F ADD PUSH1 0x20 DUP1 SWAP2 DIV MUL PUSH1 0x20 ADD PUSH1 0x40 MLOAD SWAP1 DUP2 ADD PUSH1 0x40 MSTORE DUP1 SWAP3 SWAP2 SWAP1 DUP2 DUP2 MSTORE PUSH1 0x20 ADD DUP3 DUP1 SLOAD PUSH2 0x1106 SWAP1 PUSH2 0x1A6C JUMP JUMPDEST DUP1 ISZERO PUSH2 0x1151 JUMPI DUP1 PUSH1 0x1F LT PUSH2 0x1128 JUMPI PUSH2 0x100 DUP1 DUP4 SLOAD DIV MUL DUP4 MSTORE SWAP2 PUSH1 0x20 ADD SWAP2 PUSH2 0x1151 JUMP JUMPDEST DUP3 ADD SWAP2 SWAP1 PUSH0 MSTORE PUSH1 0x20 PUSH0 KECCAK256 SWAP1 JUMPDEST DUP2 SLOAD DUP2 MSTORE SWAP1 PUSH1 0x1 ADD SWAP1 PUSH1 0x20 ADD DUP1 DUP4 GT PUSH2 0x1134 JUMPI DUP3 SWAP1 SUB PUSH1 0x1F AND DUP3 ADD SWAP2 JUMPDEST POP POP POP POP POP SWAP1 DUP1 PUSH1 0x4 ADD SLOAD SWAP1 POP DUP6 JUMP JUMPDEST CALLER PUSH0 SWAP1 DUP2 MSTORE PUSH1 0x1 PUSH1 0x20 MSTORE PUSH1 0x40 SWAP1 KECCAK256 PUSH1 0x4 ADD SLOAD PUSH2 0x118F JUMPI PUSH1 0x40 MLOAD PUSH3 0x461BCD PUSH1 0xE5 SHL DUP2 MSTORE PUSH1 0x4 ADD PUSH2 0x21E SWAP1 PUSH2 0x19BA JUMP JUMPDEST CALLER PUSH0 SWAP1 DUP2 MSTORE PUSH1 0x1 PUSH1 0x20 MSTORE PUSH1 0x40 SWAP1 KECCAK256 PUSH2 0x11A7 DUP6 DUP3 PUSH2 0x1AF0 JUMP JUMPDEST POP CALLER PUSH0 SWAP1 DUP2 MSTORE PUSH1 0x1 PUSH1 0x20 DUP2 SWAP1 MSTORE PUSH1 0x40 SWAP1 SWAP2 KECCAK256 ADD PUSH2 0x11C4 DUP5 DUP3 PUSH2 0x1AF0 JUMP JUMPDEST POP CALLER PUSH0 SWAP1 DUP2 MSTORE PUSH1 0x1 PUSH1 0x20 MSTORE PUSH1 0x40 SWAP1 KECCAK256 PUSH1 0x2 ADD PUSH2 0x11E0 DUP4 DUP3 PUSH2 0x1AF0 JUMP JUMPDEST POP CALLER PUSH0 SWAP1 DUP2 MSTORE PUSH1 0x1 PUSH1 0x20 MSTORE PUSH1 0x40 SWAP1 KECCAK256 PUSH1 0x3 ADD PUSH2 0x11FC DUP3 DUP3 PUSH2 0x1AF0 JUMP JUMPDEST POP CALLER PUSH1 0x1 PUSH1 0x1 PUSH1 0xA0 SHL SUB AND PUSH32 0x78664930CFAE4A1EB87C094F2B3013547DBB5E6B7CC7B9F0941766060298E126 DUP6 PUSH1 0x40 MLOAD PUSH2 0x1236 SWAP2 SWAP1 PUSH2 0x1BAA JUMP JUMPDEST PUSH1 0x40 MLOAD DUP1 SWAP2 SUB SWAP1 LOG2 POP POP POP POP JUMP JUMPDEST PUSH0 PUSH4 0x5F5E100 DUP3 LT ISZERO DUP1 ISZERO PUSH2 0x125D JUMPI POP PUSH4 0x3B9AC9FF DUP3 GT ISZERO JUMPDEST PUSH2 0x12A9 JUMPI PUSH1 0x40 MLOAD PUSH3 0x461BCD PUSH1 0xE5 SHL DUP2 MSTORE PUSH1 0x20 PUSH1 0x4 DUP3 ADD MSTORE PUSH1 0x1E PUSH1 0x24 DUP3 ADD MSTORE PUSH32 0x496E76616C69642061637469766174696F6E20636F646520666F726D61740000 PUSH1 0x44 DUP3 ADD MSTORE PUSH1 0x64 ADD PUSH2 0x21E JUMP JUMPDEST PUSH0 PUSH2 0x12B5 PUSH1 0xA DUP5 PUSH2 0x1BD0 JUMP JUMPDEST SWAP1 POP PUSH0 PUSH2 0x12C3 PUSH1 0xA DUP6 PUSH2 0x1BE3 JUMP JUMPDEST SWAP1 POP PUSH0 PUSH2 0x12CF DUP3 PUSH2 0x13D0 JUMP JUMPDEST SWAP3 SWAP1 SWAP3 EQ SWAP5 SWAP4 POP POP POP POP JUMP JUMPDEST PUSH0 DUP1 PUSH1 0x3C PUSH2 0x12E9 DUP2 TIMESTAMP PUSH2 0x1BE3 JUMP JUMPDEST PUSH2 0x12F3 SWAP2 SWAP1 PUSH2 0x1BD0 JUMP JUMPDEST SWAP1 POP PUSH0 PUSH2 0x1301 PUSH1 0x3C TIMESTAMP PUSH2 0x1BD0 JUMP JUMPDEST SWAP1 POP PUSH0 DUP2 PUSH2 0x1310 DUP5 PUSH1 0x3C PUSH2 0x1BF6 JUMP JUMPDEST PUSH2 0x131A SWAP2 SWAP1 PUSH2 0x1C0D JUMP JUMPDEST SWAP1 POP PUSH0 PUSH2 0xDD4 PUSH2 0x132C DUP4 PUSH2 0x270F PUSH2 0x1BF6 JUMP JUMPDEST PUSH2 0x1336 SWAP2 SWAP1 PUSH2 0x1BE3 JUMP JUMPDEST SWAP1 POP PUSH0 PUSH2 0x2328 TIMESTAMP CALLER PUSH1 0x40 MLOAD PUSH1 0x20 ADD PUSH2 0x1365 SWAP3 SWAP2 SWAP1 SWAP2 DUP3 MSTORE PUSH1 0x60 SHL PUSH1 0x1 PUSH1 0x1 PUSH1 0x60 SHL SUB NOT AND PUSH1 0x20 DUP3 ADD MSTORE PUSH1 0x34 ADD SWAP1 JUMP JUMPDEST PUSH1 0x40 MLOAD PUSH1 0x20 DUP2 DUP4 SUB SUB DUP2 MSTORE SWAP1 PUSH1 0x40 MSTORE DUP1 MLOAD SWAP1 PUSH1 0x20 ADD KECCAK256 PUSH0 SHR PUSH2 0x1387 SWAP2 SWAP1 PUSH2 0x1BD0 JUMP JUMPDEST PUSH2 0x1393 SWAP1 PUSH2 0x3E8 PUSH2 0x1C0D JUMP JUMPDEST SWAP1 POP PUSH0 PUSH2 0x13A0 DUP4 DUP4 PUSH2 0x13EC JUMP JUMPDEST SWAP1 POP PUSH0 PUSH2 0x13AC DUP3 PUSH2 0x13D0 JUMP JUMPDEST SWAP1 POP DUP1 PUSH2 0x13BA DUP4 PUSH1 0xA PUSH2 0x1BF6 JUMP JUMPDEST PUSH2 0x13C4 SWAP2 SWAP1 PUSH2 0x1C0D JUMP JUMPDEST SWAP8 POP POP POP POP POP POP POP POP SWAP1 JUMP JUMPDEST PUSH0 PUSH1 0xA PUSH2 0x13DC DUP4 PUSH2 0x14B2 JUMP JUMPDEST PUSH2 0x13E6 SWAP2 SWAP1 PUSH2 0x1BD0 JUMP JUMPDEST SWAP3 SWAP2 POP POP JUMP JUMPDEST PUSH0 DUP1 DUP1 JUMPDEST PUSH1 0x4 DUP2 LT ISZERO PUSH2 0x14AA JUMPI PUSH0 PUSH1 0xA PUSH2 0x1406 DUP4 DUP3 PUSH2 0x1D03 JUMP JUMPDEST PUSH2 0x1410 SWAP1 DUP9 PUSH2 0x1BE3 JUMP JUMPDEST PUSH2 0x141A SWAP2 SWAP1 PUSH2 0x1BD0 JUMP JUMPDEST SWAP1 POP PUSH0 PUSH1 0xA PUSH2 0x1429 DUP5 DUP3 PUSH2 0x1D03 JUMP JUMPDEST PUSH2 0x1433 SWAP1 DUP9 PUSH2 0x1BE3 JUMP JUMPDEST PUSH2 0x143D SWAP2 SWAP1 PUSH2 0x1BD0 JUMP JUMPDEST SWAP1 POP PUSH2 0x144A DUP4 PUSH1 0x2 PUSH2 0x1BF6 JUMP JUMPDEST PUSH2 0x1455 SWAP1 PUSH1 0xA PUSH2 0x1D03 JUMP JUMPDEST PUSH2 0x145F SWAP1 DUP4 PUSH2 0x1BF6 JUMP JUMPDEST PUSH2 0x146A DUP5 PUSH1 0x2 PUSH2 0x1BF6 JUMP JUMPDEST PUSH2 0x1475 SWAP1 PUSH1 0x1 PUSH2 0x1C0D JUMP JUMPDEST PUSH2 0x1480 SWAP1 PUSH1 0xA PUSH2 0x1D03 JUMP JUMPDEST PUSH2 0x148A SWAP1 DUP4 PUSH2 0x1BF6 JUMP JUMPDEST PUSH2 0x1494 SWAP2 SWAP1 PUSH2 0x1C0D JUMP JUMPDEST PUSH2 0x149E SWAP1 DUP6 PUSH2 0x1C0D JUMP JUMPDEST SWAP4 POP POP POP PUSH1 0x1 ADD PUSH2 0x13F0 JUMP JUMPDEST POP SWAP4 SWAP3 POP POP POP JUMP JUMPDEST PUSH0 DUP1 JUMPDEST DUP3 ISZERO PUSH2 0x13E6 JUMPI PUSH2 0x14C6 PUSH1 0xA DUP5 PUSH2 0x1BD0 JUMP JUMPDEST PUSH2 0x14D0 SWAP1 DUP3 PUSH2 0x1C0D JUMP JUMPDEST SWAP1 POP PUSH2 0x14DD PUSH1 0xA DUP5 PUSH2 0x1BE3 JUMP JUMPDEST SWAP3 POP PUSH2 0x14B5 JUMP JUMPDEST POP DUP1 SLOAD PUSH2 0x14F0 SWAP1 PUSH2 0x1A6C JUMP JUMPDEST PUSH0 DUP3 SSTORE DUP1 PUSH1 0x1F LT PUSH2 0x14FF JUMPI POP POP JUMP JUMPDEST PUSH1 0x1F ADD PUSH1 0x20 SWAP1 DIV SWAP1 PUSH0 MSTORE PUSH1 0x20 PUSH0 KECCAK256 SWAP1 DUP2 ADD SWAP1 PUSH2 0x4A4 SWAP2 SWAP1 JUMPDEST DUP1 DUP3 GT ISZERO PUSH2 0x152A JUMPI PUSH0 DUP2 SSTORE PUSH1 0x1 ADD PUSH2 0x1517 JUMP JUMPDEST POP SWAP1 JUMP JUMPDEST PUSH0 PUSH1 0x20 DUP3 DUP5 SUB SLT ISZERO PUSH2 0x153E JUMPI PUSH0 DUP1 REVERT JUMPDEST POP CALLDATALOAD SWAP2 SWAP1 POP JUMP JUMPDEST DUP1 CALLDATALOAD PUSH1 0x1 PUSH1 0x1 PUSH1 0xA0 SHL SUB DUP2 AND DUP2 EQ PUSH2 0x155B JUMPI PUSH0 DUP1 REVERT JUMPDEST SWAP2 SWAP1 POP JUMP JUMPDEST PUSH0 PUSH1 0x20 DUP3 DUP5 SUB SLT ISZERO PUSH2 0x1570 JUMPI PUSH0 DUP1 REVERT JUMPDEST PUSH2 0x1579 DUP3 PUSH2 0x1545 JUMP JUMPDEST SWAP4 SWAP3 POP POP POP JUMP JUMPDEST PUSH4 0x4E487B71 PUSH1 0xE0 SHL PUSH0 MSTORE PUSH1 0x41 PUSH1 0x4 MSTORE PUSH1 0x24 PUSH0 REVERT JUMPDEST PUSH0 DUP3 PUSH1 0x1F DUP4 ADD SLT PUSH2 0x15A3 JUMPI PUSH0 DUP1 REVERT JUMPDEST DUP2 CALLDATALOAD PUSH1 0x1 PUSH1 0x1 PUSH1 0x40 SHL SUB DUP2 GT ISZERO PUSH2 0x15BC JUMPI PUSH2 0x15BC PUSH2 0x1580 JUMP JUMPDEST PUSH1 0x40 MLOAD PUSH1 0x1F DUP3 ADD PUSH1 0x1F NOT SWAP1 DUP2 AND PUSH1 0x3F ADD AND DUP2 ADD PUSH1 0x1 PUSH1 0x1 PUSH1 0x40 SHL SUB DUP2 GT DUP3 DUP3 LT OR ISZERO PUSH2 0x15EA JUMPI PUSH2 0x15EA PUSH2 0x1580 JUMP JUMPDEST PUSH1 0x40 MSTORE DUP2 DUP2 MSTORE DUP4 DUP3 ADD PUSH1 0x20 ADD DUP6 LT ISZERO PUSH2 0x1601 JUMPI PUSH0 DUP1 REVERT JUMPDEST DUP2 PUSH1 0x20 DUP6 ADD PUSH1 0x20 DUP4 ADD CALLDATACOPY PUSH0 SWAP2 DUP2 ADD PUSH1 0x20 ADD SWAP2 SWAP1 SWAP2 MSTORE SWAP4 SWAP3 POP POP POP JUMP JUMPDEST PUSH0 DUP1 PUSH0 DUP1 PUSH1 0x80 DUP6 DUP8 SUB SLT ISZERO PUSH2 0x1630 JUMPI PUSH0 DUP1 REVERT JUMPDEST DUP5 CALLDATALOAD PUSH1 0x1 PUSH1 0x1 PUSH1 0x40 SHL SUB DUP2 GT ISZERO PUSH2 0x1645 JUMPI PUSH0 DUP1 REVERT JUMPDEST PUSH2 0x1651 DUP8 DUP3 DUP9 ADD PUSH2 0x1594 JUMP JUMPDEST SWAP5 POP POP PUSH1 0x20 DUP6 ADD CALLDATALOAD PUSH1 0x1 PUSH1 0x1 PUSH1 0x40 SHL SUB DUP2 GT ISZERO PUSH2 0x166C JUMPI PUSH0 DUP1 REVERT JUMPDEST PUSH2 0x1678 DUP8 DUP3 DUP9 ADD PUSH2 0x1594 JUMP JUMPDEST SWAP4 POP POP PUSH1 0x40 DUP6 ADD CALLDATALOAD PUSH1 0x1 PUSH1 0x1 PUSH1 0x40 SHL SUB DUP2 GT ISZERO PUSH2 0x1693 JUMPI PUSH0 DUP1 REVERT JUMPDEST PUSH2 0x169F DUP8 DUP3 DUP9 ADD PUSH2 0x1594 JUMP JUMPDEST SWAP3 POP POP PUSH1 0x60 DUP6 ADD CALLDATALOAD PUSH1 0x1 PUSH1 0x1 PUSH1 0x40 SHL SUB DUP2 GT ISZERO PUSH2 0x16BA JUMPI PUSH0 DUP1 REVERT JUMPDEST PUSH2 0x16C6 DUP8 DUP3 DUP9 ADD PUSH2 0x1594 JUMP JUMPDEST SWAP2 POP POP SWAP3 SWAP6 SWAP2 SWAP5 POP SWAP3 POP JUMP JUMPDEST PUSH0 DUP2 MLOAD DUP1 DUP5 MSTORE DUP1 PUSH1 0x20 DUP5 ADD PUSH1 0x20 DUP7 ADD MCOPY PUSH0 PUSH1 0x20 DUP3 DUP7 ADD ADD MSTORE PUSH1 0x20 PUSH1 0x1F NOT PUSH1 0x1F DUP4 ADD AND DUP6 ADD ADD SWAP2 POP POP SWAP3 SWAP2 POP POP JUMP JUMPDEST PUSH1 0x40 DUP2 MSTORE PUSH0 DUP4 MLOAD PUSH1 0xA0 PUSH1 0x40 DUP5 ADD MSTORE PUSH2 0x171B PUSH1 0xE0 DUP5 ADD DUP3 PUSH2 0x16D2 JUMP JUMPDEST SWAP1 POP PUSH1 0x20 DUP6 ADD MLOAD PUSH1 0x3F NOT DUP5 DUP4 SUB ADD PUSH1 0x60 DUP6 ADD MSTORE PUSH2 0x1738 DUP3 DUP3 PUSH2 0x16D2 JUMP JUMPDEST SWAP2 POP POP PUSH1 0x40 DUP6 ADD MLOAD PUSH1 0x3F NOT DUP5 DUP4 SUB ADD PUSH1 0x80 DUP6 ADD MSTORE PUSH2 0x1756 DUP3 DUP3 PUSH2 0x16D2 JUMP JUMPDEST SWAP2 POP POP PUSH1 0x60 DUP6 ADD MLOAD PUSH1 0x3F NOT DUP5 DUP4 SUB ADD PUSH1 0xA0 DUP6 ADD MSTORE PUSH2 0x1774 DUP3 DUP3 PUSH2 0x16D2 JUMP JUMPDEST SWAP2 POP POP PUSH1 0x80 DUP6 ADD MLOAD PUSH1 0xC0 DUP5 ADD MSTORE DUP3 DUP2 SUB PUSH1 0x20 DUP5 ADD MSTORE DUP4 MLOAD PUSH1 0xC0 DUP3 MSTORE PUSH2 0x179C PUSH1 0xC0 DUP4 ADD DUP3 PUSH2 0x16D2 JUMP JUMPDEST SWAP1 POP PUSH1 0x20 DUP6 ADD MLOAD DUP3 DUP3 SUB PUSH1 0x20 DUP5 ADD MSTORE PUSH2 0x17B5 DUP3 DUP3 PUSH2 0x16D2 JUMP JUMPDEST SWAP2 POP POP PUSH1 0x40 DUP6 ADD MLOAD DUP3 DUP3 SUB PUSH1 0x40 DUP5 ADD MSTORE PUSH2 0x17CF DUP3 DUP3 PUSH2 0x16D2 JUMP JUMPDEST SWAP2 POP POP PUSH1 0x60 DUP6 ADD MLOAD DUP3 DUP3 SUB PUSH1 0x60 DUP5 ADD MSTORE PUSH2 0x17E9 DUP3 DUP3 PUSH2 0x16D2 JUMP JUMPDEST SWAP2 POP POP PUSH1 0x80 DUP6 ADD MLOAD PUSH1 0x80 DUP4 ADD MSTORE PUSH1 0xA0 DUP6 ADD MLOAD PUSH1 0xA0 DUP4 ADD MSTORE DUP1 SWAP3 POP POP POP SWAP4 SWAP3 POP POP POP JUMP JUMPDEST PUSH0 DUP1 PUSH0 DUP1 PUSH0 PUSH1 0xA0 DUP7 DUP9 SUB SLT ISZERO PUSH2 0x1820 JUMPI PUSH0 DUP1 REVERT JUMPDEST PUSH2 0x1829 DUP7 PUSH2 0x1545 JUMP JUMPDEST SWAP5 POP PUSH1 0x20 DUP7 ADD CALLDATALOAD PUSH1 0x1 PUSH1 0x1 PUSH1 0x40 SHL SUB DUP2 GT ISZERO PUSH2 0x1843 JUMPI PUSH0 DUP1 REVERT JUMPDEST PUSH2 0x184F DUP9 DUP3 DUP10 ADD PUSH2 0x1594 JUMP JUMPDEST SWAP5 POP POP PUSH1 0x40 DUP7 ADD CALLDATALOAD PUSH1 0x1 PUSH1 0x1 PUSH1 0x40 SHL SUB DUP2 GT ISZERO PUSH2 0x186A JUMPI PUSH0 DUP1 REVERT JUMPDEST PUSH2 0x1876 DUP9 DUP3 DUP10 ADD PUSH2 0x1594 JUMP JUMPDEST SWAP4 POP POP PUSH1 0x60 DUP7 ADD CALLDATALOAD PUSH1 0x1 PUSH1 0x1 PUSH1 0x40 SHL SUB DUP2 GT ISZERO PUSH2 0x1891 JUMPI PUSH0 DUP1 REVERT JUMPDEST PUSH2 0x189D DUP9 DUP3 DUP10 ADD PUSH2 0x1594 JUMP JUMPDEST SWAP3 POP POP PUSH1 0x80 DUP7 ADD CALLDATALOAD PUSH1 0x1 PUSH1 0x1 PUSH1 0x40 SHL SUB DUP2 GT ISZERO PUSH2 0x18B8 JUMPI PUSH0 DUP1 REVERT JUMPDEST PUSH2 0x18C4 DUP9 DUP3 DUP10 ADD PUSH2 0x1594 JUMP JUMPDEST SWAP2 POP POP SWAP3 SWAP6 POP SWAP3 SWAP6 SWAP1 SWAP4 POP JUMP JUMPDEST PUSH1 0xC0 DUP2 MSTORE PUSH0 PUSH2 0x18E3 PUSH1 0xC0 DUP4 ADD DUP10 PUSH2 0x16D2 JUMP JUMPDEST DUP3 DUP2 SUB PUSH1 0x20 DUP5 ADD MSTORE PUSH2 0x18F5 DUP2 DUP10 PUSH2 0x16D2 JUMP JUMPDEST SWAP1 POP DUP3 DUP2 SUB PUSH1 0x40 DUP5 ADD MSTORE PUSH2 0x1909 DUP2 DUP9 PUSH2 0x16D2 JUMP JUMPDEST SWAP1 POP DUP3 DUP2 SUB PUSH1 0x60 DUP5 ADD MSTORE PUSH2 0x191D DUP2 DUP8 PUSH2 0x16D2 JUMP JUMPDEST PUSH1 0x80 DUP5 ADD SWAP6 SWAP1 SWAP6 MSTORE POP POP PUSH1 0xA0 ADD MSTORE SWAP5 SWAP4 POP POP POP POP JUMP JUMPDEST PUSH1 0xA0 DUP2 MSTORE PUSH0 PUSH2 0x1945 PUSH1 0xA0 DUP4 ADD DUP9 PUSH2 0x16D2 JUMP JUMPDEST DUP3 DUP2 SUB PUSH1 0x20 DUP5 ADD MSTORE PUSH2 0x1957 DUP2 DUP9 PUSH2 0x16D2 JUMP JUMPDEST SWAP1 POP DUP3 DUP2 SUB PUSH1 0x40 DUP5 ADD MSTORE PUSH2 0x196B DUP2 DUP8 PUSH2 0x16D2 JUMP JUMPDEST SWAP1 POP DUP3 DUP2 SUB PUSH1 0x60 DUP5 ADD MSTORE PUSH2 0x197F DUP2 DUP7 PUSH2 0x16D2 JUMP JUMPDEST SWAP2 POP POP DUP3 PUSH1 0x80 DUP4 ADD MSTORE SWAP7 SWAP6 POP POP POP POP POP POP JUMP JUMPDEST PUSH1 0x20 DUP1 DUP3 MSTORE PUSH1 0xE SWAP1 DUP3 ADD MSTORE PUSH14 0x139BDD08185D5D1A1BDC9A5E9959 PUSH1 0x92 SHL PUSH1 0x40 DUP3 ADD MSTORE PUSH1 0x60 ADD SWAP1 JUMP JUMPDEST PUSH1 0x20 DUP1 DUP3 MSTORE PUSH1 0x12 SWAP1 DUP3 ADD MSTORE PUSH18 0x13595C98DA185B9D081B9BDD08199BDD5B99 PUSH1 0x72 SHL PUSH1 0x40 DUP3 ADD MSTORE PUSH1 0x60 ADD SWAP1 JUMP JUMPDEST PUSH1 0x20 DUP1 DUP3 MSTORE PUSH1 0x16 SWAP1 DUP3 ADD MSTORE PUSH22 0x41637469766520636F6465206E6F7420657869737473 PUSH1 0x50 SHL PUSH1 0x40 DUP3 ADD MSTORE PUSH1 0x60 ADD SWAP1 JUMP JUMPDEST PUSH1 0x20 DUP1 DUP3 MSTORE PUSH1 0x15 SWAP1 DUP3 ADD MSTORE PUSH21 0x1058DD1A5D994818DBD919481B9BDD08199BDD5B99 PUSH1 0x5A SHL PUSH1 0x40 DUP3 ADD MSTORE PUSH1 0x60 ADD SWAP1 JUMP JUMPDEST PUSH4 0x4E487B71 PUSH1 0xE0 SHL PUSH0 MSTORE PUSH1 0x11 PUSH1 0x4 MSTORE PUSH1 0x24 PUSH0 REVERT JUMPDEST DUP2 DUP2 SUB DUP2 DUP2 GT ISZERO PUSH2 0x13E6 JUMPI PUSH2 0x13E6 PUSH2 0x1A45 JUMP JUMPDEST PUSH1 0x1 DUP2 DUP2 SHR SWAP1 DUP3 AND DUP1 PUSH2 0x1A80 JUMPI PUSH1 0x7F DUP3 AND SWAP2 POP JUMPDEST PUSH1 0x20 DUP3 LT DUP2 SUB PUSH2 0x1A9E JUMPI PUSH4 0x4E487B71 PUSH1 0xE0 SHL PUSH0 MSTORE PUSH1 0x22 PUSH1 0x4 MSTORE PUSH1 0x24 PUSH0 REVERT JUMPDEST POP SWAP2 SWAP1 POP JUMP JUMPDEST PUSH1 0x1F DUP3 GT ISZERO PUSH2 0x1AEB JUMPI DUP1 PUSH0 MSTORE PUSH1 0x20 PUSH0 KECCAK256 PUSH1 0x1F DUP5 ADD PUSH1 0x5 SHR DUP2 ADD PUSH1 0x20 DUP6 LT ISZERO PUSH2 0x1AC9 JUMPI POP DUP1 JUMPDEST PUSH1 0x1F DUP5 ADD PUSH1 0x5 SHR DUP3 ADD SWAP2 POP JUMPDEST DUP2 DUP2 LT ISZERO PUSH2 0x1AE8 JUMPI PUSH0 DUP2 SSTORE PUSH1 0x1 ADD PUSH2 0x1AD5 JUMP JUMPDEST POP POP JUMPDEST POP POP POP JUMP JUMPDEST DUP2 MLOAD PUSH1 0x1 PUSH1 0x1 PUSH1 0x40 SHL SUB DUP2 GT ISZERO PUSH2 0x1B09 JUMPI PUSH2 0x1B09 PUSH2 0x1580 JUMP JUMPDEST PUSH2 0x1B1D DUP2 PUSH2 0x1B17 DUP5 SLOAD PUSH2 0x1A6C JUMP JUMPDEST DUP5 PUSH2 0x1AA4 JUMP JUMPDEST PUSH1 0x20 PUSH1 0x1F DUP3 GT PUSH1 0x1 DUP2 EQ PUSH2 0x1B4F JUMPI PUSH0 DUP4 ISZERO PUSH2 0x1B38 JUMPI POP DUP5 DUP3 ADD MLOAD JUMPDEST PUSH0 NOT PUSH1 0x3 DUP6 SWAP1 SHL SHR NOT AND PUSH1 0x1 DUP5 SWAP1 SHL OR DUP5 SSTORE PUSH2 0x1AE8 JUMP JUMPDEST PUSH0 DUP5 DUP2 MSTORE PUSH1 0x20 DUP2 KECCAK256 PUSH1 0x1F NOT DUP6 AND SWAP2 JUMPDEST DUP3 DUP2 LT ISZERO PUSH2 0x1B7E JUMPI DUP8 DUP6 ADD MLOAD DUP3 SSTORE PUSH1 0x20 SWAP5 DUP6 ADD SWAP5 PUSH1 0x1 SWAP1 SWAP3 ADD SWAP2 ADD PUSH2 0x1B5E JUMP JUMPDEST POP DUP5 DUP3 LT ISZERO PUSH2 0x1B9B JUMPI DUP7 DUP5 ADD MLOAD PUSH0 NOT PUSH1 0x3 DUP8 SWAP1 SHL PUSH1 0xF8 AND SHR NOT AND DUP2 SSTORE JUMPDEST POP POP POP POP PUSH1 0x1 SWAP1 DUP2 SHL ADD SWAP1 SSTORE POP JUMP JUMPDEST PUSH1 0x20 DUP2 MSTORE PUSH0 PUSH2 0x1579 PUSH1 0x20 DUP4 ADD DUP5 PUSH2 0x16D2 JUMP JUMPDEST PUSH4 0x4E487B71 PUSH1 0xE0 SHL PUSH0 MSTORE PUSH1 0x12 PUSH1 0x4 MSTORE PUSH1 0x24 PUSH0 REVERT JUMPDEST PUSH0 DUP3 PUSH2 0x1BDE JUMPI PUSH2 0x1BDE PUSH2 0x1BBC JUMP JUMPDEST POP MOD SWAP1 JUMP JUMPDEST PUSH0 DUP3 PUSH2 0x1BF1 JUMPI PUSH2 0x1BF1 PUSH2 0x1BBC JUMP JUMPDEST POP DIV SWAP1 JUMP JUMPDEST DUP1 DUP3 MUL DUP2 ISZERO DUP3 DUP3 DIV DUP5 EQ OR PUSH2 0x13E6 JUMPI PUSH2 0x13E6 PUSH2 0x1A45 JUMP JUMPDEST DUP1 DUP3 ADD DUP1 DUP3 GT ISZERO PUSH2 0x13E6 JUMPI PUSH2 0x13E6 PUSH2 0x1A45 JUMP JUMPDEST PUSH1 0x1 DUP2 JUMPDEST PUSH1 0x1 DUP5 GT ISZERO PUSH2 0x1C5B JUMPI DUP1 DUP6 DIV DUP2 GT ISZERO PUSH2 0x1C3F JUMPI PUSH2 0x1C3F PUSH2 0x1A45 JUMP JUMPDEST PUSH1 0x1 DUP5 AND ISZERO PUSH2 0x1C4D JUMPI SWAP1 DUP2 MUL SWAP1 JUMPDEST PUSH1 0x1 SWAP4 SWAP1 SWAP4 SHR SWAP3 DUP1 MUL PUSH2 0x1C24 JUMP JUMPDEST SWAP4 POP SWAP4 SWAP2 POP POP JUMP JUMPDEST PUSH0 DUP3 PUSH2 0x1C71 JUMPI POP PUSH1 0x1 PUSH2 0x13E6 JUMP JUMPDEST DUP2 PUSH2 0x1C7D JUMPI POP PUSH0 PUSH2 0x13E6 JUMP JUMPDEST DUP2 PUSH1 0x1 DUP2 EQ PUSH2 0x1C93 JUMPI PUSH1 0x2 DUP2 EQ PUSH2 0x1C9D JUMPI PUSH2 0x1CB9 JUMP JUMPDEST PUSH1 0x1 SWAP2 POP POP PUSH2 0x13E6 JUMP JUMPDEST PUSH1 0xFF DUP5 GT ISZERO PUSH2 0x1CAE JUMPI PUSH2 0x1CAE PUSH2 0x1A45 JUMP JUMPDEST POP POP PUSH1 0x1 DUP3 SHL PUSH2 0x13E6 JUMP JUMPDEST POP PUSH1 0x20 DUP4 LT PUSH2 0x133 DUP4 LT AND PUSH1 0x4E DUP5 LT PUSH1 0xB DUP5 LT AND OR ISZERO PUSH2 0x1CDC JUMPI POP DUP2 DUP2 EXP PUSH2 0x13E6 JUMP JUMPDEST PUSH2 0x1CE8 PUSH0 NOT DUP5 DUP5 PUSH2 0x1C20 JUMP JUMPDEST DUP1 PUSH0 NOT DIV DUP3 GT ISZERO PUSH2 0x1CFB JUMPI PUSH2 0x1CFB PUSH2 0x1A45 JUMP JUMPDEST MUL SWAP4 SWAP3 POP POP POP JUMP JUMPDEST PUSH0 PUSH2 0x1579 DUP4 DUP4 PUSH2 0x1C63 JUMP INVALID LOG2 PUSH5 0x6970667358 0x22 SLT KECCAK256 BLOCKHASH PUSH31 0xDCD94AFE370D156BD62DB6D41410407F35A3C34181A1BA357A477068AD0564 PUSH20 0x6F6C634300081A00330000000000000000000000 "
		},
		"gasEstimates": {
			"creation": {
				"codeDepositCost": "1498400",
				"executionCost": "25800",
				"totalCost": "1524200"
			},
			"external": {
				"activeCodeToDevice(uint256)": "2441",
				"addMerchant(address,string,string,string,string)": "infinite",
				"devices(address)": "infinite",
				"getActiveCodeInfo(uint256)": "infinite",
				"getRegisterDevice()": "2562",
				"merchants(address)": "infinite",
				"owner()": "2390",
				"registerDevice(string,string,string,string)": "infinite",
				"removeExpiredData()": "infinite",
				"removeMerchant(address)": "infinite",
				"updateMerchant(string,string,string,string)": "infinite",
				"useActiveCodeInfo(uint256)": "infinite"
			}
		},
		"methodIdentifiers": {
			"activeCodeToDevice(uint256)": "0b75c58f",
			"addMerchant(address,string,string,string,string)": "d4dd4b47",
			"devices(address)": "e7b4cac6",
			"getActiveCodeInfo(uint256)": "cef33810",
			"getRegisterDevice()": "eef814d3",
			"merchants(address)": "ee14e939",
			"owner()": "8da5cb5b",
			"registerDevice(string,string,string,string)": "cecfe084",
			"removeExpiredData()": "3ab0639b",
			"removeMerchant(address)": "133adab6",
			"updateMerchant(string,string,string,string)": "f4f97658",
			"useActiveCodeInfo(uint256)": "24e8779f"
		}
	},
	"abi": [
		{
			"inputs": [],
			"stateMutability": "nonpayable",
			"type": "constructor"
		},
		{
			"anonymous": false,
			"inputs": [
				{
					"indexed": true,
					"internalType": "address",
					"name": "user",
					"type": "address"
				},
				{
					"indexed": false,
					"internalType": "uint256",
					"name": "activeCode",
					"type": "uint256"
				}
			],
			"name": "ActiveCodeUsed",
			"type": "event"
		},
		{
			"anonymous": false,
			"inputs": [
				{
					"indexed": true,
					"internalType": "address",
					"name": "device",
					"type": "address"
				},
				{
					"indexed": false,
					"internalType": "uint256",
					"name": "activeCode",
					"type": "uint256"
				}
			],
			"name": "DeviceRegistered",
			"type": "event"
		},
		{
			"anonymous": false,
			"inputs": [
				{
					"indexed": true,
					"internalType": "address",
					"name": "merchant",
					"type": "address"
				},
				{
					"indexed": false,
					"internalType": "string",
					"name": "domain",
					"type": "string"
				}
			],
			"name": "MerchantRegistered",
			"type": "event"
		},
		{
			"anonymous": false,
			"inputs": [
				{
					"indexed": true,
					"internalType": "address",
					"name": "merchant",
					"type": "address"
				}
			],
			"name": "MerchantRemoved",
			"type": "event"
		},
		{
			"anonymous": false,
			"inputs": [
				{
					"indexed": true,
					"internalType": "address",
					"name": "merchant",
					"type": "address"
				},
				{
					"indexed": false,
					"internalType": "string",
					"name": "domain",
					"type": "string"
				}
			],
			"name": "MerchantUpdated",
			"type": "event"
		},
		{
			"inputs": [
				{
					"internalType": "uint256",
					"name": "",
					"type": "uint256"
				}
			],
			"name": "activeCodeToDevice",
			"outputs": [
				{
					"internalType": "address",
					"name": "",
					"type": "address"
				}
			],
			"stateMutability": "view",
			"type": "function"
		},
		{
			"inputs": [
				{
					"internalType": "address",
					"name": "_merchant",
					"type": "address"
				},
				{
					"internalType": "string",
					"name": "_domain",
					"type": "string"
				},
				{
					"internalType": "string",
					"name": "_installUrl",
					"type": "string"
				},
				{
					"internalType": "string",
					"name": "_bundleId",
					"type": "string"
				},
				{
					"internalType": "string",
					"name": "_platform",
					"type": "string"
				}
			],
			"name": "addMerchant",
			"outputs": [],
			"stateMutability": "nonpayable",
			"type": "function"
		},
		{
			"inputs": [
				{
					"internalType": "address",
					"name": "",
					"type": "address"
				}
			],
			"name": "devices",
			"outputs": [
				{
					"internalType": "string",
					"name": "screenSize",
					"type": "string"
				},
				{
					"internalType": "string",
					"name": "os",
					"type": "string"
				},
				{
					"internalType": "string",
					"name": "versionOs",
					"type": "string"
				},
				{
					"internalType": "string",
					"name": "refCode",
					"type": "string"
				},
				{
					"internalType": "uint256",
					"name": "activeCode",
					"type": "uint256"
				},
				{
					"internalType": "uint256",
					"name": "timestamp",
					"type": "uint256"
				}
			],
			"stateMutability": "view",
			"type": "function"
		},
		{
			"inputs": [
				{
					"internalType": "uint256",
					"name": "_activeCode",
					"type": "uint256"
				}
			],
			"name": "getActiveCodeInfo",
			"outputs": [
				{
					"components": [
						{
							"internalType": "string",
							"name": "domain",
							"type": "string"
						},
						{
							"internalType": "string",
							"name": "installUrl",
							"type": "string"
						},
						{
							"internalType": "string",
							"name": "bundleId",
							"type": "string"
						},
						{
							"internalType": "string",
							"name": "platform",
							"type": "string"
						},
						{
							"internalType": "uint256",
							"name": "createTime",
							"type": "uint256"
						}
					],
					"internalType": "struct MerchantActiveCode.Merchant",
					"name": "",
					"type": "tuple"
				},
				{
					"components": [
						{
							"internalType": "string",
							"name": "screenSize",
							"type": "string"
						},
						{
							"internalType": "string",
							"name": "os",
							"type": "string"
						},
						{
							"internalType": "string",
							"name": "versionOs",
							"type": "string"
						},
						{
							"internalType": "string",
							"name": "refCode",
							"type": "string"
						},
						{
							"internalType": "uint256",
							"name": "activeCode",
							"type": "uint256"
						},
						{
							"internalType": "uint256",
							"name": "timestamp",
							"type": "uint256"
						}
					],
					"internalType": "struct MerchantActiveCode.Device",
					"name": "",
					"type": "tuple"
				}
			],
			"stateMutability": "view",
			"type": "function"
		},
		{
			"inputs": [],
			"name": "getRegisterDevice",
			"outputs": [
				{
					"internalType": "uint256",
					"name": "",
					"type": "uint256"
				}
			],
			"stateMutability": "view",
			"type": "function"
		},
		{
			"inputs": [
				{
					"internalType": "address",
					"name": "",
					"type": "address"
				}
			],
			"name": "merchants",
			"outputs": [
				{
					"internalType": "string",
					"name": "domain",
					"type": "string"
				},
				{
					"internalType": "string",
					"name": "installUrl",
					"type": "string"
				},
				{
					"internalType": "string",
					"name": "bundleId",
					"type": "string"
				},
				{
					"internalType": "string",
					"name": "platform",
					"type": "string"
				},
				{
					"internalType": "uint256",
					"name": "createTime",
					"type": "uint256"
				}
			],
			"stateMutability": "view",
			"type": "function"
		},
		{
			"inputs": [],
			"name": "owner",
			"outputs": [
				{
					"internalType": "address",
					"name": "",
					"type": "address"
				}
			],
			"stateMutability": "view",
			"type": "function"
		},
		{
			"inputs": [
				{
					"internalType": "string",
					"name": "_screenSize",
					"type": "string"
				},
				{
					"internalType": "string",
					"name": "_os",
					"type": "string"
				},
				{
					"internalType": "string",
					"name": "_versionOs",
					"type": "string"
				},
				{
					"internalType": "string",
					"name": "_refCode",
					"type": "string"
				}
			],
			"name": "registerDevice",
			"outputs": [
				{
					"internalType": "uint256",
					"name": "",
					"type": "uint256"
				}
			],
			"stateMutability": "nonpayable",
			"type": "function"
		},
		{
			"inputs": [],
			"name": "removeExpiredData",
			"outputs": [],
			"stateMutability": "nonpayable",
			"type": "function"
		},
		{
			"inputs": [
				{
					"internalType": "address",
					"name": "_merchant",
					"type": "address"
				}
			],
			"name": "removeMerchant",
			"outputs": [],
			"stateMutability": "nonpayable",
			"type": "function"
		},
		{
			"inputs": [
				{
					"internalType": "string",
					"name": "_domain",
					"type": "string"
				},
				{
					"internalType": "string",
					"name": "_installUrl",
					"type": "string"
				},
				{
					"internalType": "string",
					"name": "_bundleId",
					"type": "string"
				},
				{
					"internalType": "string",
					"name": "_platform",
					"type": "string"
				}
			],
			"name": "updateMerchant",
			"outputs": [],
			"stateMutability": "nonpayable",
			"type": "function"
		},
		{
			"inputs": [
				{
					"internalType": "uint256",
					"name": "_activeCode",
					"type": "uint256"
				}
			],
			"name": "useActiveCodeInfo",
			"outputs": [],
			"stateMutability": "nonpayable",
			"type": "function"
		}
	]
}