{
	"data": {
		"bytecode": {
			"linkReferences": {},
			"object": "608060405234801561000f575f80fd5b50338061003557604051631e4fbdf760e01b81525f600482015260240160405180910390fd5b61003e81610203565b5060197fcc69885fda6bcc1a4ace058b4a62bf5e179ea78fd58a1ccd71c22cc9b688792f5560327fd9d16d34ffb15ba3a3d852f0d403e2ce1d691fb54de27ac87cd2f993f3ec330f819055604b7f7dfe757ecd65cbd7922a9c0161e935dd7fdbcc0e999689c7d31633896b1fc60b5560647fedc95719e9a3b28dd8e80877cb5880a9be7de1a13fc8b05e7999683b6b5676438190557fe90b7bceb6e7df5418fb78d8ee546e97c83a08bbccc01a0644d599ccd2a7c2e08290556101f47f679795a0195a1b76cdebb7c51d74e058aee92919b8c3389af86ef24535e8a28c8190556107d07f88601476d11616a71c5be67555bd1dff4b1cbf21533d2669b768b61518cfe1c3556113887fee60d0579bcffd98e668647d59fec1ff86a7fb340ce572e844f234ae73a6918f5560036020527fa15bc60c955c405d20d9149c709e2460f1c2d9a497496a7f46004d1772c3054c8390557fc3a24b0501bd2c13a7e57f2db4369ec4c223447539fc0724a9d55ac4a06ebd4d929092557fcbc4e5fb02c3d1de23a9f1e014b4d2ee5aeaea9505df5e855c9210bf472495af5560045f527f83ec6a1f0257b830b5e016457c9cf1435391bf56cc98f369a58a54fe9377246555610252565b5f80546001600160a01b038381166001600160a01b0319831681178455604051919092169283917f8be0079c531659141344cd1fd0a4f28419497f9722a3daafe3b4186f6b6457e09190a35050565b611a2e8061025f5f395ff3fe608060405234801561000f575f80fd5b5060043610610131575f3560e01c8063018f503614610135578063046e489f146101675780630f937a0a1461017c578063108d4b4e1461018f57806312065fe0146101a257806322a493d7146101aa578063266b09d1146101bd5780633075119d146101d05780633ab32c06146101e3578063457142f5146101f657806347a1efa61461020957806351ecb8af1461022857806353a2dfc1146102475780635f0b032b146102b2578063715018a6146102d25780637cce9939146102da5780638da5cb5b146102ed578063a0815a54146102f5578063a23d431a14610308578063bdb561ad14610328578063bffc0ccd1461033b578063c849c1d01461034e578063da77abed14610361578063efcf91c714610374578063f2fde38b14610387575b5f80fd5b610154610143366004611184565b60036020525f908152604090205481565b6040519081526020015b60405180910390f35b61017a6101753660046111a4565b61039a565b005b61017a61018a3660046111bb565b6104be565b61015461019d3660046111e3565b610501565b610154610695565b61017a6101b8366004611228565b610705565b61017a6101cb366004611241565b61072f565b6101546101de366004611184565b6108e5565b61017a6101f13660046111bb565b610921565b610154610204366004611184565b61093f565b610154610217366004611184565b60016020525f908152604090205481565b610154610236366004611184565b60026020525f908152604090205481565b61029f610255366004611228565b600560208190525f91825260409091208054600182015460028301546003840154600485015494909501546001600160a01b03841695600160a01b90940460ff1694929391929087565b60405161015e97969594939291906112c6565b6102c56102c03660046111a4565b610955565b60405161015e919061130c565b61017a61097d565b6102c56102e8366004611320565b610990565b6102c5610b1b565b6006546102c5906001600160a01b031681565b61031b610316366004611320565b610b29565b60405161015e9190611340565b61017a6103363660046111bb565b610d4c565b61017a6103493660046113d9565b610d6a565b61015461035c3660046113d9565b610dab565b61015461036f3660046113d9565b610e90565b610154610382366004611184565b610f74565b61017a610395366004611228565b610f8a565b3332146103c25760405162461bcd60e51b81526004016103b9906113f3565b60405180910390fd5b335f818152600560205260409020600101548281101561041b5760405162461bcd60e51b8152602060048201526014602482015273496e73756666696369656e742062616c616e636560601b60448201526064016103b9565b6001600160a01b0382165f908152600560205260409020600301544211156104555760405162461bcd60e51b81526004016103b990611428565b6006546040516325e2dee760e01b8152600481018590526001600160a01b0384811660248301529091169081906325e2dee7906044015f604051808303815f87803b1580156104a2575f80fd5b505af11580156104b4573d5f803e3d5ffd5b5050505050505050565b6104c6610fc7565b8060025f8460048111156104dc576104dc611292565b60048111156104ed576104ed611292565b815260208101919091526040015f20555050565b5f6a05451c9a1fa35367e00000816809c2007651b2500000672b992ddfa23249d661053461052f8a89611466565b610ff9565b61053e919061148c565b61054891906114b7565b90505f6809c2007651b2500000672b992ddfa23249d661056b61052f8a89611466565b610575919061148c565b61057f91906114b7565b90505f6809c2007651b250000061059e672b992ddfa23249d68b61148c565b6105a891906114b7565b90505f6809c2007651b25000006105c7672b992ddfa23249d68a61148c565b6105d191906114b7565b90505f6105e76105e26002876114b7565b611010565b90505f6105f86105e26002876114b7565b90505f610604856110d6565b90505f610610856110d6565b90505f61061d84806114ca565b61062783856114ca565b61063191906114ca565b61063b86806114ca565b61064591906114f9565b90505f6106566105e2600284611520565b6106619060026114ca565b9050670de0b6b3a7640000610676828d6114ca565b6106809190611520565b9b505050505050505050505050949350505050565b5f3332146106b55760405162461bcd60e51b81526004016103b9906113f3565b335f818152600560205260409020600301544211156106e65760405162461bcd60e51b81526004016103b990611428565b6001600160a01b03165f90815260056020526040902060010154905090565b61070d610fc7565b600680546001600160a01b0319166001600160a01b0392909216919091179055565b610737610fc7565b6001600160a01b038581165f9081526005602052604090205416156107985760405162461bcd60e51b815260206004820152601760248201527653686f77726f6f6d20616c72656164792065786973747360481b60448201526064016103b9565b6040518060e00160405280856001600160a01b031681526020018460048111156107c4576107c4611292565b81525f6020820181905260408201526060016107e4426301e1338061154c565b8152602080820185905260409182018490526001600160a01b038089165f90815260058352929092208351815493166001600160a01b0319841681178255918401519092909183916001600160a81b03191617600160a01b83600481111561084e5761084e611292565b02179055506040820151600182810191909155606083015160028301556080830151600383015560a083015160048084019190915560c090930151600590920191909155815490810182555f919091527f8a35acfbc15ff81a39ae7d344fd709f28e8600b4aa8c65c6b64bfe7fe36bd19b0180546001600160a01b0319166001600160a01b03969096169590951790945550505050565b5f60025f8360048111156108fb576108fb611292565b600481111561090c5761090c611292565b81526020019081526020015f20549050919050565b610929610fc7565b8060015f8460048111156104dc576104dc611292565b5f60035f8360048111156108fb576108fb611292565b60048181548110610964575f80fd5b5f918252602090912001546001600160a01b0316905081565b610985610fc7565b61098e5f6110ea565b565b5f805f5b600454811015610b11575f600482815481106109b2576109b261155f565b5f918252602090912001546001600160a01b031690508015806109ee57506001600160a01b0381165f9081526005602052604090206003015442115b156109f95750610b09565b6001600160a01b0381165f90815260056020526040812054600160a01b900460ff1690816004811115610a2e57610a2e611292565b03610a3a575050610b09565b6001600160a01b0382165f908152600560208190526040822090810154600490910154610a6b918a918a9190610501565b905060035f836004811115610a8257610a82611292565b6004811115610a9357610a93611292565b81526020019081526020015f2054811015610ab357829450505050610b11565b6001600160a01b038516158015610afc575060025f836004811115610ada57610ada611292565b6004811115610aeb57610aeb611292565b81526020019081526020015f205481105b15610b05578294505b5050505b600101610994565b5090505b92915050565b5f546001600160a01b031690565b60605f82118015610b3b575060328211155b610b915760405162461bcd60e51b815260206004820152602160248201527f7061676553697a65206d757374206265206265747765656e203120616e6420356044820152600360fc1b60648201526084016103b9565b600454808410610bd457604080515f8082526020820190925290610bcb565b610bb8611139565b815260200190600190039081610bb05790505b50915050610b15565b5f610bdf848661154c565b905081811115610bec5750805b5f610bf78683611587565b6001600160401b03811115610c0e57610c0e611573565b604051908082528060200260200182016040528015610c4757816020015b610c34611139565b815260200190600190039081610c2c5790505b5090505f865b83811015610d405760055f60048381548110610c6b57610c6b61155f565b5f9182526020808320909101546001600160a01b039081168452838201949094526040928301909120825160e081019093528054938416835291929083019060ff600160a01b909104166004811115610cc657610cc6611292565b6004811115610cd757610cd7611292565b815260200160018201548152602001600282015481526020016003820154815260200160048201548152602001600582015481525050838381518110610d1f57610d1f61155f565b60200260200101819052508180610d359061159a565b925050600101610c4d565b50909695505050505050565b610d54610fc7565b8060035f8460048111156104dc576104dc611292565b610d72610fc7565b610d7f816201518061148c565b610d89904261154c565b6001600160a01b039092165f9081526005602052604090206003019190915550565b6006545f906001600160a01b03163314610dd75760405162461bcd60e51b81526004016103b9906115b2565b6001600160a01b0383165f908152600560205260409020600301544210610dff57505f610b15565b6001600160a01b0383165f9081526005602052604081206001018054849290610e2990849061154c565b90915550506001600160a01b0383165f90815260056020526040812054600160a01b900460ff1690600181836004811115610e6657610e66611292565b6004811115610e7757610e77611292565b815260208101919091526040015f205495945050505050565b6006545f906001600160a01b03163314610ebc5760405162461bcd60e51b81526004016103b9906115b2565b6001600160a01b0383165f908152600560205260409020600301544210610ee457505f610b15565b6001600160a01b0383165f9081526005602052604081206002018054849290610f0e90849061154c565b90915550506001600160a01b0383165f908152600560205260408120546001908290600160a01b900460ff166004811115610f4b57610f4b611292565b6004811115610f5c57610f5c611292565b815260208101919091526040015f2054949350505050565b5f60015f8360048111156108fb576108fb611292565b610f92610fc7565b6001600160a01b038116610fbb575f604051631e4fbdf760e01b81526004016103b9919061130c565b610fc4816110ea565b50565b33610fd0610b1b565b6001600160a01b03161461098e573360405163118cdaa760e01b81526004016103b9919061130c565b5f8082126110075781610b15565b610b15826115da565b6757325bbf446493ac90819006634000000002045f61ffff600483901c1660ff601484901c166310000000841615632000000085161515816110545760ff92909203915b5f60405180610440016040528061040481526020016115f5610404913960046002860102818101519192509063ffffffff602082901c8116908216818103890260101c5f886110a5578183036110a9565b8184015b905087156110b4575f035b637fffffff670de0b6b3a76400008202059d9c50505050505050505050505050565b5f610b156715cc96efd11924eb8301611010565b5f80546001600160a01b038381166001600160a01b0319831681178455604051919092169283917f8be0079c531659141344cd1fd0a4f28419497f9722a3daafe3b4186f6b6457e09190a35050565b6040805160e081019091525f808252602082019081526020015f81526020015f81526020015f81526020015f81526020015f81525090565b80356005811061117f575f80fd5b919050565b5f60208284031215611194575f80fd5b61119d82611171565b9392505050565b5f602082840312156111b4575f80fd5b5035919050565b5f80604083850312156111cc575f80fd5b6111d583611171565b946020939093013593505050565b5f805f80608085870312156111f6575f80fd5b5050823594602084013594506040840135936060013592509050565b80356001600160a01b038116811461117f575f80fd5b5f60208284031215611238575f80fd5b61119d82611212565b5f805f805f60a08688031215611255575f80fd5b61125e86611212565b945061126c60208701611212565b935061127a60408701611171565b94979396509394606081013594506080013592915050565b634e487b7160e01b5f52602160045260245ffd5b600581106112c257634e487b7160e01b5f52602160045260245ffd5b9052565b6001600160a01b038816815260e081016112e360208301896112a6565b60408201969096526060810194909452608084019290925260a083015260c09091015292915050565b6001600160a01b0391909116815260200190565b5f8060408385031215611331575f80fd5b50508035926020909101359150565b602080825282518282018190525f918401906040840190835b818110156113ce57835180516001600160a01b0316845260208082015190611383908601826112a6565b5060408101516040850152606081015160608501526080810151608085015260a081015160a085015260c081015160c08501525060e083019250602084019350600181019050611359565b509095945050505050565b5f80604083850312156113ea575f80fd5b6111d583611212565b6020808252601b908201527a14db585c9d0818dbdb9d1c9858dd1cc81b9bdd08185b1b1bddd959602a1b604082015260600190565b60208082526010908201526f14da1bdddc9bdbdb48195e1c1a5c995960821b604082015260600190565b634e487b7160e01b5f52601160045260245ffd5b8181035f83128015838313168383128216171561148557611485611452565b5092915050565b8082028115828204841417610b1557610b15611452565b634e487b7160e01b5f52601260045260245ffd5b5f826114c5576114c56114a3565b500490565b8082025f8212600160ff1b841416156114e5576114e5611452565b8181058314821517610b1557610b15611452565b8082018281125f83128015821682158216171561151857611518611452565b505092915050565b5f8261152e5761152e6114a3565b600160ff1b82145f198414161561154757611547611452565b500590565b80820180821115610b1557610b15611452565b634e487b7160e01b5f52603260045260245ffd5b634e487b7160e01b5f52604160045260245ffd5b81810381811115610b1557610b15611452565b5f600182016115ab576115ab611452565b5060010190565b6020808252600e908201526d139bdd08185d5d1a1bdc9a5e995960921b604082015260600190565b5f600160ff1b82016115ee576115ee611452565b505f039056fe0000000000c90f8801921d20025b26d703242abf03ed26e604b6195d057f00350647d97c0710a34507d95b9e08a2009a096a90490a3308bc0afb68050bc3ac350c8bd35e0d53db920e1bc2e40ee387660fab272b1072a0481139f0cf120116d512c8106e138edbb1145576b1151bdf8515e2144416a81305176dd9de183366e818f8b83c19bdcbf31a82a0251b4732ef1c0b826a1ccf8cb31d934fe51e56ca1e1f19f97b1fdcdc1b209f701c2161b39f2223a4c522e541af23a6887e2467775725280c5d25e845b626a8218527679df42826b92828e5714a29a3c4852a61b1012b1f34eb2bdc4e6f2c98fbba2d553afb2e110a622ecc681e2f8752623041c76030fbc54d31b54a5d326e54c73326e2c233def2873496824f354d905636041ad936ba2013376f9e46382493b038d8fe93398cdd323a402dd13af2eeb73ba51e293c56ba703d07c1d53db832a53e680b2c3f1749b73fc5ec974073f21d4121589a41ce1e64427a41d04325c13543d09aec447acd50452456bc45cd358f46756827471cece647c3c22e4869e664490f57ee49b415334a581c9d4afb6c974b9e038f4c3fdff34ce100344d8162c34e2106174ebfe8a44f5e08e24ffb654c5097fc5e5133cc9451ced46e5269126e53028517539b2aef5433027d54ca0a4a556040e255f5a4d2568a34a9571deef957b0d2555842dd5458d40e8c5964649759f3de125a8279995b1035ce5b9d11535c290acc5cb420df5d3e52365dc79d7b5e50015d5ed77c895f5e0db25fe3b38d60686cce60ec382f616f146b61f1003e6271fa6862f201ac637114cc63ef328f646c59bf64e889256563bf9165ddfbd266573cbb66cf811f6746c7d767bd0fbc683257aa68a69e806919e31f698c246b69fd614a6a6d98a36adcc9646b4af2786bb812d06c24295f6c8f351b6cf934fb6d6227f96dca0d146e30e3496e96a99c6efb5f116f5f02b16fc1938470231099708378fe70e2cbc571410804719e2cd171fa394872552c8472af05a67307c3cf735f662573b5ebd0740b53fa745f9dd074b2c8837504d3447555bd4b75a585ce75f42c0a7641af3c768e0ea576d9498877235f2c776c4eda77b417df77fab988784033287884841378c7aba17909a92c794a7c11798a23b079c89f6d7a05eeac7a4210d87a7d055a7ab6cba37aef63237b26cb4e7b5d039d7b920b887bc5e28f7bf8882f7c29fbed7c5a3d4f7c894bdd7cb727237ce3ceb17d0f42177d3980eb7d628ac57d8a5f3f7db0fdf77dd6668e7dfa98a77e1d93e97e3f57fe7e5fe4927e7f39567e9d55fb7eba3a387ed5e5c57ef0585f7f0991c37f2191b37f3857f57f4de4507f62368e7f754e7f7f872bf27f97cebc7fa736b37fb563b27fc255957fce0c3d7fd8878d7fe1c76a7fe9cbbf7ff094777ff621817ffa72d07ffd88597fff62157fffffffa26469706673582212208f9425124ee297af38f08d2fdefed28247a7af037c24c0436b39e9fc7beee12a64736f6c634300081a0033",
			"opcodes": "PUSH1 0x80 PUSH1 0x40 MSTORE CALLVALUE DUP1 ISZERO PUSH2 0xF JUMPI PUSH0 DUP1 REVERT JUMPDEST POP CALLER DUP1 PUSH2 0x35 JUMPI PUSH1 0x40 MLOAD PUSH4 0x1E4FBDF7 PUSH1 0xE0 SHL DUP2 MSTORE PUSH0 PUSH1 0x4 DUP3 ADD MSTORE PUSH1 0x24 ADD PUSH1 0x40 MLOAD DUP1 SWAP2 SUB SWAP1 REVERT JUMPDEST PUSH2 0x3E DUP2 PUSH2 0x203 JUMP JUMPDEST POP PUSH1 0x19 PUSH32 0xCC69885FDA6BCC1A4ACE058B4A62BF5E179EA78FD58A1CCD71C22CC9B688792F SSTORE PUSH1 0x32 PUSH32 0xD9D16D34FFB15BA3A3D852F0D403E2CE1D691FB54DE27AC87CD2F993F3EC330F DUP2 SWAP1 SSTORE PUSH1 0x4B PUSH32 0x7DFE757ECD65CBD7922A9C0161E935DD7FDBCC0E999689C7D31633896B1FC60B SSTORE PUSH1 0x64 PUSH32 0xEDC95719E9A3B28DD8E80877CB5880A9BE7DE1A13FC8B05E7999683B6B567643 DUP2 SWAP1 SSTORE PUSH32 0xE90B7BCEB6E7DF5418FB78D8EE546E97C83A08BBCCC01A0644D599CCD2A7C2E0 DUP3 SWAP1 SSTORE PUSH2 0x1F4 PUSH32 0x679795A0195A1B76CDEBB7C51D74E058AEE92919B8C3389AF86EF24535E8A28C DUP2 SWAP1 SSTORE PUSH2 0x7D0 PUSH32 0x88601476D11616A71C5BE67555BD1DFF4B1CBF21533D2669B768B61518CFE1C3 SSTORE PUSH2 0x1388 PUSH32 0xEE60D0579BCFFD98E668647D59FEC1FF86A7FB340CE572E844F234AE73A6918F SSTORE PUSH1 0x3 PUSH1 0x20 MSTORE PUSH32 0xA15BC60C955C405D20D9149C709E2460F1C2D9A497496A7F46004D1772C3054C DUP4 SWAP1 SSTORE PUSH32 0xC3A24B0501BD2C13A7E57F2DB4369EC4C223447539FC0724A9D55AC4A06EBD4D SWAP3 SWAP1 SWAP3 SSTORE PUSH32 0xCBC4E5FB02C3D1DE23A9F1E014B4D2EE5AEAEA9505DF5E855C9210BF472495AF SSTORE PUSH1 0x4 PUSH0 MSTORE PUSH32 0x83EC6A1F0257B830B5E016457C9CF1435391BF56CC98F369A58A54FE93772465 SSTORE PUSH2 0x252 JUMP JUMPDEST PUSH0 DUP1 SLOAD PUSH1 0x1 PUSH1 0x1 PUSH1 0xA0 SHL SUB DUP4 DUP2 AND PUSH1 0x1 PUSH1 0x1 PUSH1 0xA0 SHL SUB NOT DUP4 AND DUP2 OR DUP5 SSTORE PUSH1 0x40 MLOAD SWAP2 SWAP1 SWAP3 AND SWAP3 DUP4 SWAP2 PUSH32 0x8BE0079C531659141344CD1FD0A4F28419497F9722A3DAAFE3B4186F6B6457E0 SWAP2 SWAP1 LOG3 POP POP JUMP JUMPDEST PUSH2 0x1A2E DUP1 PUSH2 0x25F PUSH0 CODECOPY PUSH0 RETURN INVALID PUSH1 0x80 PUSH1 0x40 MSTORE CALLVALUE DUP1 ISZERO PUSH2 0xF JUMPI PUSH0 DUP1 REVERT JUMPDEST POP PUSH1 0x4 CALLDATASIZE LT PUSH2 0x131 JUMPI PUSH0 CALLDATALOAD PUSH1 0xE0 SHR DUP1 PUSH4 0x18F5036 EQ PUSH2 0x135 JUMPI DUP1 PUSH4 0x46E489F EQ PUSH2 0x167 JUMPI DUP1 PUSH4 0xF937A0A EQ PUSH2 0x17C JUMPI DUP1 PUSH4 0x108D4B4E EQ PUSH2 0x18F JUMPI DUP1 PUSH4 0x12065FE0 EQ PUSH2 0x1A2 JUMPI DUP1 PUSH4 0x22A493D7 EQ PUSH2 0x1AA JUMPI DUP1 PUSH4 0x266B09D1 EQ PUSH2 0x1BD JUMPI DUP1 PUSH4 0x3075119D EQ PUSH2 0x1D0 JUMPI DUP1 PUSH4 0x3AB32C06 EQ PUSH2 0x1E3 JUMPI DUP1 PUSH4 0x457142F5 EQ PUSH2 0x1F6 JUMPI DUP1 PUSH4 0x47A1EFA6 EQ PUSH2 0x209 JUMPI DUP1 PUSH4 0x51ECB8AF EQ PUSH2 0x228 JUMPI DUP1 PUSH4 0x53A2DFC1 EQ PUSH2 0x247 JUMPI DUP1 PUSH4 0x5F0B032B EQ PUSH2 0x2B2 JUMPI DUP1 PUSH4 0x715018A6 EQ PUSH2 0x2D2 JUMPI DUP1 PUSH4 0x7CCE9939 EQ PUSH2 0x2DA JUMPI DUP1 PUSH4 0x8DA5CB5B EQ PUSH2 0x2ED JUMPI DUP1 PUSH4 0xA0815A54 EQ PUSH2 0x2F5 JUMPI DUP1 PUSH4 0xA23D431A EQ PUSH2 0x308 JUMPI DUP1 PUSH4 0xBDB561AD EQ PUSH2 0x328 JUMPI DUP1 PUSH4 0xBFFC0CCD EQ PUSH2 0x33B JUMPI DUP1 PUSH4 0xC849C1D0 EQ PUSH2 0x34E JUMPI DUP1 PUSH4 0xDA77ABED EQ PUSH2 0x361 JUMPI DUP1 PUSH4 0xEFCF91C7 EQ PUSH2 0x374 JUMPI DUP1 PUSH4 0xF2FDE38B EQ PUSH2 0x387 JUMPI JUMPDEST PUSH0 DUP1 REVERT JUMPDEST PUSH2 0x154 PUSH2 0x143 CALLDATASIZE PUSH1 0x4 PUSH2 0x1184 JUMP JUMPDEST PUSH1 0x3 PUSH1 0x20 MSTORE PUSH0 SWAP1 DUP2 MSTORE PUSH1 0x40 SWAP1 KECCAK256 SLOAD DUP2 JUMP JUMPDEST PUSH1 0x40 MLOAD SWAP1 DUP2 MSTORE PUSH1 0x20 ADD JUMPDEST PUSH1 0x40 MLOAD DUP1 SWAP2 SUB SWAP1 RETURN JUMPDEST PUSH2 0x17A PUSH2 0x175 CALLDATASIZE PUSH1 0x4 PUSH2 0x11A4 JUMP JUMPDEST PUSH2 0x39A JUMP JUMPDEST STOP JUMPDEST PUSH2 0x17A PUSH2 0x18A CALLDATASIZE PUSH1 0x4 PUSH2 0x11BB JUMP JUMPDEST PUSH2 0x4BE JUMP JUMPDEST PUSH2 0x154 PUSH2 0x19D CALLDATASIZE PUSH1 0x4 PUSH2 0x11E3 JUMP JUMPDEST PUSH2 0x501 JUMP JUMPDEST PUSH2 0x154 PUSH2 0x695 JUMP JUMPDEST PUSH2 0x17A PUSH2 0x1B8 CALLDATASIZE PUSH1 0x4 PUSH2 0x1228 JUMP JUMPDEST PUSH2 0x705 JUMP JUMPDEST PUSH2 0x17A PUSH2 0x1CB CALLDATASIZE PUSH1 0x4 PUSH2 0x1241 JUMP JUMPDEST PUSH2 0x72F JUMP JUMPDEST PUSH2 0x154 PUSH2 0x1DE CALLDATASIZE PUSH1 0x4 PUSH2 0x1184 JUMP JUMPDEST PUSH2 0x8E5 JUMP JUMPDEST PUSH2 0x17A PUSH2 0x1F1 CALLDATASIZE PUSH1 0x4 PUSH2 0x11BB JUMP JUMPDEST PUSH2 0x921 JUMP JUMPDEST PUSH2 0x154 PUSH2 0x204 CALLDATASIZE PUSH1 0x4 PUSH2 0x1184 JUMP JUMPDEST PUSH2 0x93F JUMP JUMPDEST PUSH2 0x154 PUSH2 0x217 CALLDATASIZE PUSH1 0x4 PUSH2 0x1184 JUMP JUMPDEST PUSH1 0x1 PUSH1 0x20 MSTORE PUSH0 SWAP1 DUP2 MSTORE PUSH1 0x40 SWAP1 KECCAK256 SLOAD DUP2 JUMP JUMPDEST PUSH2 0x154 PUSH2 0x236 CALLDATASIZE PUSH1 0x4 PUSH2 0x1184 JUMP JUMPDEST PUSH1 0x2 PUSH1 0x20 MSTORE PUSH0 SWAP1 DUP2 MSTORE PUSH1 0x40 SWAP1 KECCAK256 SLOAD DUP2 JUMP JUMPDEST PUSH2 0x29F PUSH2 0x255 CALLDATASIZE PUSH1 0x4 PUSH2 0x1228 JUMP JUMPDEST PUSH1 0x5 PUSH1 0x20 DUP2 SWAP1 MSTORE PUSH0 SWAP2 DUP3 MSTORE PUSH1 0x40 SWAP1 SWAP2 KECCAK256 DUP1 SLOAD PUSH1 0x1 DUP3 ADD SLOAD PUSH1 0x2 DUP4 ADD SLOAD PUSH1 0x3 DUP5 ADD SLOAD PUSH1 0x4 DUP6 ADD SLOAD SWAP5 SWAP1 SWAP6 ADD SLOAD PUSH1 0x1 PUSH1 0x1 PUSH1 0xA0 SHL SUB DUP5 AND SWAP6 PUSH1 0x1 PUSH1 0xA0 SHL SWAP1 SWAP5 DIV PUSH1 0xFF AND SWAP5 SWAP3 SWAP4 SWAP2 SWAP3 SWAP1 DUP8 JUMP JUMPDEST PUSH1 0x40 MLOAD PUSH2 0x15E SWAP8 SWAP7 SWAP6 SWAP5 SWAP4 SWAP3 SWAP2 SWAP1 PUSH2 0x12C6 JUMP JUMPDEST PUSH2 0x2C5 PUSH2 0x2C0 CALLDATASIZE PUSH1 0x4 PUSH2 0x11A4 JUMP JUMPDEST PUSH2 0x955 JUMP JUMPDEST PUSH1 0x40 MLOAD PUSH2 0x15E SWAP2 SWAP1 PUSH2 0x130C JUMP JUMPDEST PUSH2 0x17A PUSH2 0x97D JUMP JUMPDEST PUSH2 0x2C5 PUSH2 0x2E8 CALLDATASIZE PUSH1 0x4 PUSH2 0x1320 JUMP JUMPDEST PUSH2 0x990 JUMP JUMPDEST PUSH2 0x2C5 PUSH2 0xB1B JUMP JUMPDEST PUSH1 0x6 SLOAD PUSH2 0x2C5 SWAP1 PUSH1 0x1 PUSH1 0x1 PUSH1 0xA0 SHL SUB AND DUP2 JUMP JUMPDEST PUSH2 0x31B PUSH2 0x316 CALLDATASIZE PUSH1 0x4 PUSH2 0x1320 JUMP JUMPDEST PUSH2 0xB29 JUMP JUMPDEST PUSH1 0x40 MLOAD PUSH2 0x15E SWAP2 SWAP1 PUSH2 0x1340 JUMP JUMPDEST PUSH2 0x17A PUSH2 0x336 CALLDATASIZE PUSH1 0x4 PUSH2 0x11BB JUMP JUMPDEST PUSH2 0xD4C JUMP JUMPDEST PUSH2 0x17A PUSH2 0x349 CALLDATASIZE PUSH1 0x4 PUSH2 0x13D9 JUMP JUMPDEST PUSH2 0xD6A JUMP JUMPDEST PUSH2 0x154 PUSH2 0x35C CALLDATASIZE PUSH1 0x4 PUSH2 0x13D9 JUMP JUMPDEST PUSH2 0xDAB JUMP JUMPDEST PUSH2 0x154 PUSH2 0x36F CALLDATASIZE PUSH1 0x4 PUSH2 0x13D9 JUMP JUMPDEST PUSH2 0xE90 JUMP JUMPDEST PUSH2 0x154 PUSH2 0x382 CALLDATASIZE PUSH1 0x4 PUSH2 0x1184 JUMP JUMPDEST PUSH2 0xF74 JUMP JUMPDEST PUSH2 0x17A PUSH2 0x395 CALLDATASIZE PUSH1 0x4 PUSH2 0x1228 JUMP JUMPDEST PUSH2 0xF8A JUMP JUMPDEST CALLER ORIGIN EQ PUSH2 0x3C2 JUMPI PUSH1 0x40 MLOAD PUSH3 0x461BCD PUSH1 0xE5 SHL DUP2 MSTORE PUSH1 0x4 ADD PUSH2 0x3B9 SWAP1 PUSH2 0x13F3 JUMP JUMPDEST PUSH1 0x40 MLOAD DUP1 SWAP2 SUB SWAP1 REVERT JUMPDEST CALLER PUSH0 DUP2 DUP2 MSTORE PUSH1 0x5 PUSH1 0x20 MSTORE PUSH1 0x40 SWAP1 KECCAK256 PUSH1 0x1 ADD SLOAD DUP3 DUP2 LT ISZERO PUSH2 0x41B JUMPI PUSH1 0x40 MLOAD PUSH3 0x461BCD PUSH1 0xE5 SHL DUP2 MSTORE PUSH1 0x20 PUSH1 0x4 DUP3 ADD MSTORE PUSH1 0x14 PUSH1 0x24 DUP3 ADD MSTORE PUSH20 0x496E73756666696369656E742062616C616E6365 PUSH1 0x60 SHL PUSH1 0x44 DUP3 ADD MSTORE PUSH1 0x64 ADD PUSH2 0x3B9 JUMP JUMPDEST PUSH1 0x1 PUSH1 0x1 PUSH1 0xA0 SHL SUB DUP3 AND PUSH0 SWAP1 DUP2 MSTORE PUSH1 0x5 PUSH1 0x20 MSTORE PUSH1 0x40 SWAP1 KECCAK256 PUSH1 0x3 ADD SLOAD TIMESTAMP GT ISZERO PUSH2 0x455 JUMPI PUSH1 0x40 MLOAD PUSH3 0x461BCD PUSH1 0xE5 SHL DUP2 MSTORE PUSH1 0x4 ADD PUSH2 0x3B9 SWAP1 PUSH2 0x1428 JUMP JUMPDEST PUSH1 0x6 SLOAD PUSH1 0x40 MLOAD PUSH4 0x25E2DEE7 PUSH1 0xE0 SHL DUP2 MSTORE PUSH1 0x4 DUP2 ADD DUP6 SWAP1 MSTORE PUSH1 0x1 PUSH1 0x1 PUSH1 0xA0 SHL SUB DUP5 DUP2 AND PUSH1 0x24 DUP4 ADD MSTORE SWAP1 SWAP2 AND SWAP1 DUP2 SWAP1 PUSH4 0x25E2DEE7 SWAP1 PUSH1 0x44 ADD PUSH0 PUSH1 0x40 MLOAD DUP1 DUP4 SUB DUP2 PUSH0 DUP8 DUP1 EXTCODESIZE ISZERO DUP1 ISZERO PUSH2 0x4A2 JUMPI PUSH0 DUP1 REVERT JUMPDEST POP GAS CALL ISZERO DUP1 ISZERO PUSH2 0x4B4 JUMPI RETURNDATASIZE PUSH0 DUP1 RETURNDATACOPY RETURNDATASIZE PUSH0 REVERT JUMPDEST POP POP POP POP POP POP POP POP JUMP JUMPDEST PUSH2 0x4C6 PUSH2 0xFC7 JUMP JUMPDEST DUP1 PUSH1 0x2 PUSH0 DUP5 PUSH1 0x4 DUP2 GT ISZERO PUSH2 0x4DC JUMPI PUSH2 0x4DC PUSH2 0x1292 JUMP JUMPDEST PUSH1 0x4 DUP2 GT ISZERO PUSH2 0x4ED JUMPI PUSH2 0x4ED PUSH2 0x1292 JUMP JUMPDEST DUP2 MSTORE PUSH1 0x20 DUP2 ADD SWAP2 SWAP1 SWAP2 MSTORE PUSH1 0x40 ADD PUSH0 KECCAK256 SSTORE POP POP JUMP JUMPDEST PUSH0 PUSH11 0x5451C9A1FA35367E00000 DUP2 PUSH9 0x9C2007651B2500000 PUSH8 0x2B992DDFA23249D6 PUSH2 0x534 PUSH2 0x52F DUP11 DUP10 PUSH2 0x1466 JUMP JUMPDEST PUSH2 0xFF9 JUMP JUMPDEST PUSH2 0x53E SWAP2 SWAP1 PUSH2 0x148C JUMP JUMPDEST PUSH2 0x548 SWAP2 SWAP1 PUSH2 0x14B7 JUMP JUMPDEST SWAP1 POP PUSH0 PUSH9 0x9C2007651B2500000 PUSH8 0x2B992DDFA23249D6 PUSH2 0x56B PUSH2 0x52F DUP11 DUP10 PUSH2 0x1466 JUMP JUMPDEST PUSH2 0x575 SWAP2 SWAP1 PUSH2 0x148C JUMP JUMPDEST PUSH2 0x57F SWAP2 SWAP1 PUSH2 0x14B7 JUMP JUMPDEST SWAP1 POP PUSH0 PUSH9 0x9C2007651B2500000 PUSH2 0x59E PUSH8 0x2B992DDFA23249D6 DUP12 PUSH2 0x148C JUMP JUMPDEST PUSH2 0x5A8 SWAP2 SWAP1 PUSH2 0x14B7 JUMP JUMPDEST SWAP1 POP PUSH0 PUSH9 0x9C2007651B2500000 PUSH2 0x5C7 PUSH8 0x2B992DDFA23249D6 DUP11 PUSH2 0x148C JUMP JUMPDEST PUSH2 0x5D1 SWAP2 SWAP1 PUSH2 0x14B7 JUMP JUMPDEST SWAP1 POP PUSH0 PUSH2 0x5E7 PUSH2 0x5E2 PUSH1 0x2 DUP8 PUSH2 0x14B7 JUMP JUMPDEST PUSH2 0x1010 JUMP JUMPDEST SWAP1 POP PUSH0 PUSH2 0x5F8 PUSH2 0x5E2 PUSH1 0x2 DUP8 PUSH2 0x14B7 JUMP JUMPDEST SWAP1 POP PUSH0 PUSH2 0x604 DUP6 PUSH2 0x10D6 JUMP JUMPDEST SWAP1 POP PUSH0 PUSH2 0x610 DUP6 PUSH2 0x10D6 JUMP JUMPDEST SWAP1 POP PUSH0 PUSH2 0x61D DUP5 DUP1 PUSH2 0x14CA JUMP JUMPDEST PUSH2 0x627 DUP4 DUP6 PUSH2 0x14CA JUMP JUMPDEST PUSH2 0x631 SWAP2 SWAP1 PUSH2 0x14CA JUMP JUMPDEST PUSH2 0x63B DUP7 DUP1 PUSH2 0x14CA JUMP JUMPDEST PUSH2 0x645 SWAP2 SWAP1 PUSH2 0x14F9 JUMP JUMPDEST SWAP1 POP PUSH0 PUSH2 0x656 PUSH2 0x5E2 PUSH1 0x2 DUP5 PUSH2 0x1520 JUMP JUMPDEST PUSH2 0x661 SWAP1 PUSH1 0x2 PUSH2 0x14CA JUMP JUMPDEST SWAP1 POP PUSH8 0xDE0B6B3A7640000 PUSH2 0x676 DUP3 DUP14 PUSH2 0x14CA JUMP JUMPDEST PUSH2 0x680 SWAP2 SWAP1 PUSH2 0x1520 JUMP JUMPDEST SWAP12 POP POP POP POP POP POP POP POP POP POP POP POP SWAP5 SWAP4 POP POP POP POP JUMP JUMPDEST PUSH0 CALLER ORIGIN EQ PUSH2 0x6B5 JUMPI PUSH1 0x40 MLOAD PUSH3 0x461BCD PUSH1 0xE5 SHL DUP2 MSTORE PUSH1 0x4 ADD PUSH2 0x3B9 SWAP1 PUSH2 0x13F3 JUMP JUMPDEST CALLER PUSH0 DUP2 DUP2 MSTORE PUSH1 0x5 PUSH1 0x20 MSTORE PUSH1 0x40 SWAP1 KECCAK256 PUSH1 0x3 ADD SLOAD TIMESTAMP GT ISZERO PUSH2 0x6E6 JUMPI PUSH1 0x40 MLOAD PUSH3 0x461BCD PUSH1 0xE5 SHL DUP2 MSTORE PUSH1 0x4 ADD PUSH2 0x3B9 SWAP1 PUSH2 0x1428 JUMP JUMPDEST PUSH1 0x1 PUSH1 0x1 PUSH1 0xA0 SHL SUB AND PUSH0 SWAP1 DUP2 MSTORE PUSH1 0x5 PUSH1 0x20 MSTORE PUSH1 0x40 SWAP1 KECCAK256 PUSH1 0x1 ADD SLOAD SWAP1 POP SWAP1 JUMP JUMPDEST PUSH2 0x70D PUSH2 0xFC7 JUMP JUMPDEST PUSH1 0x6 DUP1 SLOAD PUSH1 0x1 PUSH1 0x1 PUSH1 0xA0 SHL SUB NOT AND PUSH1 0x1 PUSH1 0x1 PUSH1 0xA0 SHL SUB SWAP3 SWAP1 SWAP3 AND SWAP2 SWAP1 SWAP2 OR SWAP1 SSTORE JUMP JUMPDEST PUSH2 0x737 PUSH2 0xFC7 JUMP JUMPDEST PUSH1 0x1 PUSH1 0x1 PUSH1 0xA0 SHL SUB DUP6 DUP2 AND PUSH0 SWAP1 DUP2 MSTORE PUSH1 0x5 PUSH1 0x20 MSTORE PUSH1 0x40 SWAP1 KECCAK256 SLOAD AND ISZERO PUSH2 0x798 JUMPI PUSH1 0x40 MLOAD PUSH3 0x461BCD PUSH1 0xE5 SHL DUP2 MSTORE PUSH1 0x20 PUSH1 0x4 DUP3 ADD MSTORE PUSH1 0x17 PUSH1 0x24 DUP3 ADD MSTORE PUSH23 0x53686F77726F6F6D20616C726561647920657869737473 PUSH1 0x48 SHL PUSH1 0x44 DUP3 ADD MSTORE PUSH1 0x64 ADD PUSH2 0x3B9 JUMP JUMPDEST PUSH1 0x40 MLOAD DUP1 PUSH1 0xE0 ADD PUSH1 0x40 MSTORE DUP1 DUP6 PUSH1 0x1 PUSH1 0x1 PUSH1 0xA0 SHL SUB AND DUP2 MSTORE PUSH1 0x20 ADD DUP5 PUSH1 0x4 DUP2 GT ISZERO PUSH2 0x7C4 JUMPI PUSH2 0x7C4 PUSH2 0x1292 JUMP JUMPDEST DUP2 MSTORE PUSH0 PUSH1 0x20 DUP3 ADD DUP2 SWAP1 MSTORE PUSH1 0x40 DUP3 ADD MSTORE PUSH1 0x60 ADD PUSH2 0x7E4 TIMESTAMP PUSH4 0x1E13380 PUSH2 0x154C JUMP JUMPDEST DUP2 MSTORE PUSH1 0x20 DUP1 DUP3 ADD DUP6 SWAP1 MSTORE PUSH1 0x40 SWAP2 DUP3 ADD DUP5 SWAP1 MSTORE PUSH1 0x1 PUSH1 0x1 PUSH1 0xA0 SHL SUB DUP1 DUP10 AND PUSH0 SWAP1 DUP2 MSTORE PUSH1 0x5 DUP4 MSTORE SWAP3 SWAP1 SWAP3 KECCAK256 DUP4 MLOAD DUP2 SLOAD SWAP4 AND PUSH1 0x1 PUSH1 0x1 PUSH1 0xA0 SHL SUB NOT DUP5 AND DUP2 OR DUP3 SSTORE SWAP2 DUP5 ADD MLOAD SWAP1 SWAP3 SWAP1 SWAP2 DUP4 SWAP2 PUSH1 0x1 PUSH1 0x1 PUSH1 0xA8 SHL SUB NOT AND OR PUSH1 0x1 PUSH1 0xA0 SHL DUP4 PUSH1 0x4 DUP2 GT ISZERO PUSH2 0x84E JUMPI PUSH2 0x84E PUSH2 0x1292 JUMP JUMPDEST MUL OR SWAP1 SSTORE POP PUSH1 0x40 DUP3 ADD MLOAD PUSH1 0x1 DUP3 DUP2 ADD SWAP2 SWAP1 SWAP2 SSTORE PUSH1 0x60 DUP4 ADD MLOAD PUSH1 0x2 DUP4 ADD SSTORE PUSH1 0x80 DUP4 ADD MLOAD PUSH1 0x3 DUP4 ADD SSTORE PUSH1 0xA0 DUP4 ADD MLOAD PUSH1 0x4 DUP1 DUP5 ADD SWAP2 SWAP1 SWAP2 SSTORE PUSH1 0xC0 SWAP1 SWAP4 ADD MLOAD PUSH1 0x5 SWAP1 SWAP3 ADD SWAP2 SWAP1 SWAP2 SSTORE DUP2 SLOAD SWAP1 DUP2 ADD DUP3 SSTORE PUSH0 SWAP2 SWAP1 SWAP2 MSTORE PUSH32 0x8A35ACFBC15FF81A39AE7D344FD709F28E8600B4AA8C65C6B64BFE7FE36BD19B ADD DUP1 SLOAD PUSH1 0x1 PUSH1 0x1 PUSH1 0xA0 SHL SUB NOT AND PUSH1 0x1 PUSH1 0x1 PUSH1 0xA0 SHL SUB SWAP7 SWAP1 SWAP7 AND SWAP6 SWAP1 SWAP6 OR SWAP1 SWAP5 SSTORE POP POP POP POP JUMP JUMPDEST PUSH0 PUSH1 0x2 PUSH0 DUP4 PUSH1 0x4 DUP2 GT ISZERO PUSH2 0x8FB JUMPI PUSH2 0x8FB PUSH2 0x1292 JUMP JUMPDEST PUSH1 0x4 DUP2 GT ISZERO PUSH2 0x90C JUMPI PUSH2 0x90C PUSH2 0x1292 JUMP JUMPDEST DUP2 MSTORE PUSH1 0x20 ADD SWAP1 DUP2 MSTORE PUSH1 0x20 ADD PUSH0 KECCAK256 SLOAD SWAP1 POP SWAP2 SWAP1 POP JUMP JUMPDEST PUSH2 0x929 PUSH2 0xFC7 JUMP JUMPDEST DUP1 PUSH1 0x1 PUSH0 DUP5 PUSH1 0x4 DUP2 GT ISZERO PUSH2 0x4DC JUMPI PUSH2 0x4DC PUSH2 0x1292 JUMP JUMPDEST PUSH0 PUSH1 0x3 PUSH0 DUP4 PUSH1 0x4 DUP2 GT ISZERO PUSH2 0x8FB JUMPI PUSH2 0x8FB PUSH2 0x1292 JUMP JUMPDEST PUSH1 0x4 DUP2 DUP2 SLOAD DUP2 LT PUSH2 0x964 JUMPI PUSH0 DUP1 REVERT JUMPDEST PUSH0 SWAP2 DUP3 MSTORE PUSH1 0x20 SWAP1 SWAP2 KECCAK256 ADD SLOAD PUSH1 0x1 PUSH1 0x1 PUSH1 0xA0 SHL SUB AND SWAP1 POP DUP2 JUMP JUMPDEST PUSH2 0x985 PUSH2 0xFC7 JUMP JUMPDEST PUSH2 0x98E PUSH0 PUSH2 0x10EA JUMP JUMPDEST JUMP JUMPDEST PUSH0 DUP1 PUSH0 JUMPDEST PUSH1 0x4 SLOAD DUP2 LT ISZERO PUSH2 0xB11 JUMPI PUSH0 PUSH1 0x4 DUP3 DUP2 SLOAD DUP2 LT PUSH2 0x9B2 JUMPI PUSH2 0x9B2 PUSH2 0x155F JUMP JUMPDEST PUSH0 SWAP2 DUP3 MSTORE PUSH1 0x20 SWAP1 SWAP2 KECCAK256 ADD SLOAD PUSH1 0x1 PUSH1 0x1 PUSH1 0xA0 SHL SUB AND SWAP1 POP DUP1 ISZERO DUP1 PUSH2 0x9EE JUMPI POP PUSH1 0x1 PUSH1 0x1 PUSH1 0xA0 SHL SUB DUP2 AND PUSH0 SWAP1 DUP2 MSTORE PUSH1 0x5 PUSH1 0x20 MSTORE PUSH1 0x40 SWAP1 KECCAK256 PUSH1 0x3 ADD SLOAD TIMESTAMP GT JUMPDEST ISZERO PUSH2 0x9F9 JUMPI POP PUSH2 0xB09 JUMP JUMPDEST PUSH1 0x1 PUSH1 0x1 PUSH1 0xA0 SHL SUB DUP2 AND PUSH0 SWAP1 DUP2 MSTORE PUSH1 0x5 PUSH1 0x20 MSTORE PUSH1 0x40 DUP2 KECCAK256 SLOAD PUSH1 0x1 PUSH1 0xA0 SHL SWAP1 DIV PUSH1 0xFF AND SWAP1 DUP2 PUSH1 0x4 DUP2 GT ISZERO PUSH2 0xA2E JUMPI PUSH2 0xA2E PUSH2 0x1292 JUMP JUMPDEST SUB PUSH2 0xA3A JUMPI POP POP PUSH2 0xB09 JUMP JUMPDEST PUSH1 0x1 PUSH1 0x1 PUSH1 0xA0 SHL SUB DUP3 AND PUSH0 SWAP1 DUP2 MSTORE PUSH1 0x5 PUSH1 0x20 DUP2 SWAP1 MSTORE PUSH1 0x40 DUP3 KECCAK256 SWAP1 DUP2 ADD SLOAD PUSH1 0x4 SWAP1 SWAP2 ADD SLOAD PUSH2 0xA6B SWAP2 DUP11 SWAP2 DUP11 SWAP2 SWAP1 PUSH2 0x501 JUMP JUMPDEST SWAP1 POP PUSH1 0x3 PUSH0 DUP4 PUSH1 0x4 DUP2 GT ISZERO PUSH2 0xA82 JUMPI PUSH2 0xA82 PUSH2 0x1292 JUMP JUMPDEST PUSH1 0x4 DUP2 GT ISZERO PUSH2 0xA93 JUMPI PUSH2 0xA93 PUSH2 0x1292 JUMP JUMPDEST DUP2 MSTORE PUSH1 0x20 ADD SWAP1 DUP2 MSTORE PUSH1 0x20 ADD PUSH0 KECCAK256 SLOAD DUP2 LT ISZERO PUSH2 0xAB3 JUMPI DUP3 SWAP5 POP POP POP POP PUSH2 0xB11 JUMP JUMPDEST PUSH1 0x1 PUSH1 0x1 PUSH1 0xA0 SHL SUB DUP6 AND ISZERO DUP1 ISZERO PUSH2 0xAFC JUMPI POP PUSH1 0x2 PUSH0 DUP4 PUSH1 0x4 DUP2 GT ISZERO PUSH2 0xADA JUMPI PUSH2 0xADA PUSH2 0x1292 JUMP JUMPDEST PUSH1 0x4 DUP2 GT ISZERO PUSH2 0xAEB JUMPI PUSH2 0xAEB PUSH2 0x1292 JUMP JUMPDEST DUP2 MSTORE PUSH1 0x20 ADD SWAP1 DUP2 MSTORE PUSH1 0x20 ADD PUSH0 KECCAK256 SLOAD DUP2 LT JUMPDEST ISZERO PUSH2 0xB05 JUMPI DUP3 SWAP5 POP JUMPDEST POP POP POP JUMPDEST PUSH1 0x1 ADD PUSH2 0x994 JUMP JUMPDEST POP SWAP1 POP JUMPDEST SWAP3 SWAP2 POP POP JUMP JUMPDEST PUSH0 SLOAD PUSH1 0x1 PUSH1 0x1 PUSH1 0xA0 SHL SUB AND SWAP1 JUMP JUMPDEST PUSH1 0x60 PUSH0 DUP3 GT DUP1 ISZERO PUSH2 0xB3B JUMPI POP PUSH1 0x32 DUP3 GT ISZERO JUMPDEST PUSH2 0xB91 JUMPI PUSH1 0x40 MLOAD PUSH3 0x461BCD PUSH1 0xE5 SHL DUP2 MSTORE PUSH1 0x20 PUSH1 0x4 DUP3 ADD MSTORE PUSH1 0x21 PUSH1 0x24 DUP3 ADD MSTORE PUSH32 0x7061676553697A65206D757374206265206265747765656E203120616E642035 PUSH1 0x44 DUP3 ADD MSTORE PUSH1 0x3 PUSH1 0xFC SHL PUSH1 0x64 DUP3 ADD MSTORE PUSH1 0x84 ADD PUSH2 0x3B9 JUMP JUMPDEST PUSH1 0x4 SLOAD DUP1 DUP5 LT PUSH2 0xBD4 JUMPI PUSH1 0x40 DUP1 MLOAD PUSH0 DUP1 DUP3 MSTORE PUSH1 0x20 DUP3 ADD SWAP1 SWAP3 MSTORE SWAP1 PUSH2 0xBCB JUMP JUMPDEST PUSH2 0xBB8 PUSH2 0x1139 JUMP JUMPDEST DUP2 MSTORE PUSH1 0x20 ADD SWAP1 PUSH1 0x1 SWAP1 SUB SWAP1 DUP2 PUSH2 0xBB0 JUMPI SWAP1 POP JUMPDEST POP SWAP2 POP POP PUSH2 0xB15 JUMP JUMPDEST PUSH0 PUSH2 0xBDF DUP5 DUP7 PUSH2 0x154C JUMP JUMPDEST SWAP1 POP DUP2 DUP2 GT ISZERO PUSH2 0xBEC JUMPI POP DUP1 JUMPDEST PUSH0 PUSH2 0xBF7 DUP7 DUP4 PUSH2 0x1587 JUMP JUMPDEST PUSH1 0x1 PUSH1 0x1 PUSH1 0x40 SHL SUB DUP2 GT ISZERO PUSH2 0xC0E JUMPI PUSH2 0xC0E PUSH2 0x1573 JUMP JUMPDEST PUSH1 0x40 MLOAD SWAP1 DUP1 DUP3 MSTORE DUP1 PUSH1 0x20 MUL PUSH1 0x20 ADD DUP3 ADD PUSH1 0x40 MSTORE DUP1 ISZERO PUSH2 0xC47 JUMPI DUP2 PUSH1 0x20 ADD JUMPDEST PUSH2 0xC34 PUSH2 0x1139 JUMP JUMPDEST DUP2 MSTORE PUSH1 0x20 ADD SWAP1 PUSH1 0x1 SWAP1 SUB SWAP1 DUP2 PUSH2 0xC2C JUMPI SWAP1 POP JUMPDEST POP SWAP1 POP PUSH0 DUP7 JUMPDEST DUP4 DUP2 LT ISZERO PUSH2 0xD40 JUMPI PUSH1 0x5 PUSH0 PUSH1 0x4 DUP4 DUP2 SLOAD DUP2 LT PUSH2 0xC6B JUMPI PUSH2 0xC6B PUSH2 0x155F JUMP JUMPDEST PUSH0 SWAP2 DUP3 MSTORE PUSH1 0x20 DUP1 DUP4 KECCAK256 SWAP1 SWAP2 ADD SLOAD PUSH1 0x1 PUSH1 0x1 PUSH1 0xA0 SHL SUB SWAP1 DUP2 AND DUP5 MSTORE DUP4 DUP3 ADD SWAP5 SWAP1 SWAP5 MSTORE PUSH1 0x40 SWAP3 DUP4 ADD SWAP1 SWAP2 KECCAK256 DUP3 MLOAD PUSH1 0xE0 DUP2 ADD SWAP1 SWAP4 MSTORE DUP1 SLOAD SWAP4 DUP5 AND DUP4 MSTORE SWAP2 SWAP3 SWAP1 DUP4 ADD SWAP1 PUSH1 0xFF PUSH1 0x1 PUSH1 0xA0 SHL SWAP1 SWAP2 DIV AND PUSH1 0x4 DUP2 GT ISZERO PUSH2 0xCC6 JUMPI PUSH2 0xCC6 PUSH2 0x1292 JUMP JUMPDEST PUSH1 0x4 DUP2 GT ISZERO PUSH2 0xCD7 JUMPI PUSH2 0xCD7 PUSH2 0x1292 JUMP JUMPDEST DUP2 MSTORE PUSH1 0x20 ADD PUSH1 0x1 DUP3 ADD SLOAD DUP2 MSTORE PUSH1 0x20 ADD PUSH1 0x2 DUP3 ADD SLOAD DUP2 MSTORE PUSH1 0x20 ADD PUSH1 0x3 DUP3 ADD SLOAD DUP2 MSTORE PUSH1 0x20 ADD PUSH1 0x4 DUP3 ADD SLOAD DUP2 MSTORE PUSH1 0x20 ADD PUSH1 0x5 DUP3 ADD SLOAD DUP2 MSTORE POP POP DUP4 DUP4 DUP2 MLOAD DUP2 LT PUSH2 0xD1F JUMPI PUSH2 0xD1F PUSH2 0x155F JUMP JUMPDEST PUSH1 0x20 MUL PUSH1 0x20 ADD ADD DUP2 SWAP1 MSTORE POP DUP2 DUP1 PUSH2 0xD35 SWAP1 PUSH2 0x159A JUMP JUMPDEST SWAP3 POP POP PUSH1 0x1 ADD PUSH2 0xC4D JUMP JUMPDEST POP SWAP1 SWAP7 SWAP6 POP POP POP POP POP POP JUMP JUMPDEST PUSH2 0xD54 PUSH2 0xFC7 JUMP JUMPDEST DUP1 PUSH1 0x3 PUSH0 DUP5 PUSH1 0x4 DUP2 GT ISZERO PUSH2 0x4DC JUMPI PUSH2 0x4DC PUSH2 0x1292 JUMP JUMPDEST PUSH2 0xD72 PUSH2 0xFC7 JUMP JUMPDEST PUSH2 0xD7F DUP2 PUSH3 0x15180 PUSH2 0x148C JUMP JUMPDEST PUSH2 0xD89 SWAP1 TIMESTAMP PUSH2 0x154C JUMP JUMPDEST PUSH1 0x1 PUSH1 0x1 PUSH1 0xA0 SHL SUB SWAP1 SWAP3 AND PUSH0 SWAP1 DUP2 MSTORE PUSH1 0x5 PUSH1 0x20 MSTORE PUSH1 0x40 SWAP1 KECCAK256 PUSH1 0x3 ADD SWAP2 SWAP1 SWAP2 SSTORE POP JUMP JUMPDEST PUSH1 0x6 SLOAD PUSH0 SWAP1 PUSH1 0x1 PUSH1 0x1 PUSH1 0xA0 SHL SUB AND CALLER EQ PUSH2 0xDD7 JUMPI PUSH1 0x40 MLOAD PUSH3 0x461BCD PUSH1 0xE5 SHL DUP2 MSTORE PUSH1 0x4 ADD PUSH2 0x3B9 SWAP1 PUSH2 0x15B2 JUMP JUMPDEST PUSH1 0x1 PUSH1 0x1 PUSH1 0xA0 SHL SUB DUP4 AND PUSH0 SWAP1 DUP2 MSTORE PUSH1 0x5 PUSH1 0x20 MSTORE PUSH1 0x40 SWAP1 KECCAK256 PUSH1 0x3 ADD SLOAD TIMESTAMP LT PUSH2 0xDFF JUMPI POP PUSH0 PUSH2 0xB15 JUMP JUMPDEST PUSH1 0x1 PUSH1 0x1 PUSH1 0xA0 SHL SUB DUP4 AND PUSH0 SWAP1 DUP2 MSTORE PUSH1 0x5 PUSH1 0x20 MSTORE PUSH1 0x40 DUP2 KECCAK256 PUSH1 0x1 ADD DUP1 SLOAD DUP5 SWAP3 SWAP1 PUSH2 0xE29 SWAP1 DUP5 SWAP1 PUSH2 0x154C JUMP JUMPDEST SWAP1 SWAP2 SSTORE POP POP PUSH1 0x1 PUSH1 0x1 PUSH1 0xA0 SHL SUB DUP4 AND PUSH0 SWAP1 DUP2 MSTORE PUSH1 0x5 PUSH1 0x20 MSTORE PUSH1 0x40 DUP2 KECCAK256 SLOAD PUSH1 0x1 PUSH1 0xA0 SHL SWAP1 DIV PUSH1 0xFF AND SWAP1 PUSH1 0x1 DUP2 DUP4 PUSH1 0x4 DUP2 GT ISZERO PUSH2 0xE66 JUMPI PUSH2 0xE66 PUSH2 0x1292 JUMP JUMPDEST PUSH1 0x4 DUP2 GT ISZERO PUSH2 0xE77 JUMPI PUSH2 0xE77 PUSH2 0x1292 JUMP JUMPDEST DUP2 MSTORE PUSH1 0x20 DUP2 ADD SWAP2 SWAP1 SWAP2 MSTORE PUSH1 0x40 ADD PUSH0 KECCAK256 SLOAD SWAP6 SWAP5 POP POP POP POP POP JUMP JUMPDEST PUSH1 0x6 SLOAD PUSH0 SWAP1 PUSH1 0x1 PUSH1 0x1 PUSH1 0xA0 SHL SUB AND CALLER EQ PUSH2 0xEBC JUMPI PUSH1 0x40 MLOAD PUSH3 0x461BCD PUSH1 0xE5 SHL DUP2 MSTORE PUSH1 0x4 ADD PUSH2 0x3B9 SWAP1 PUSH2 0x15B2 JUMP JUMPDEST PUSH1 0x1 PUSH1 0x1 PUSH1 0xA0 SHL SUB DUP4 AND PUSH0 SWAP1 DUP2 MSTORE PUSH1 0x5 PUSH1 0x20 MSTORE PUSH1 0x40 SWAP1 KECCAK256 PUSH1 0x3 ADD SLOAD TIMESTAMP LT PUSH2 0xEE4 JUMPI POP PUSH0 PUSH2 0xB15 JUMP JUMPDEST PUSH1 0x1 PUSH1 0x1 PUSH1 0xA0 SHL SUB DUP4 AND PUSH0 SWAP1 DUP2 MSTORE PUSH1 0x5 PUSH1 0x20 MSTORE PUSH1 0x40 DUP2 KECCAK256 PUSH1 0x2 ADD DUP1 SLOAD DUP5 SWAP3 SWAP1 PUSH2 0xF0E SWAP1 DUP5 SWAP1 PUSH2 0x154C JUMP JUMPDEST SWAP1 SWAP2 SSTORE POP POP PUSH1 0x1 PUSH1 0x1 PUSH1 0xA0 SHL SUB DUP4 AND PUSH0 SWAP1 DUP2 MSTORE PUSH1 0x5 PUSH1 0x20 MSTORE PUSH1 0x40 DUP2 KECCAK256 SLOAD PUSH1 0x1 SWAP1 DUP3 SWAP1 PUSH1 0x1 PUSH1 0xA0 SHL SWAP1 DIV PUSH1 0xFF AND PUSH1 0x4 DUP2 GT ISZERO PUSH2 0xF4B JUMPI PUSH2 0xF4B PUSH2 0x1292 JUMP JUMPDEST PUSH1 0x4 DUP2 GT ISZERO PUSH2 0xF5C JUMPI PUSH2 0xF5C PUSH2 0x1292 JUMP JUMPDEST DUP2 MSTORE PUSH1 0x20 DUP2 ADD SWAP2 SWAP1 SWAP2 MSTORE PUSH1 0x40 ADD PUSH0 KECCAK256 SLOAD SWAP5 SWAP4 POP POP POP POP JUMP JUMPDEST PUSH0 PUSH1 0x1 PUSH0 DUP4 PUSH1 0x4 DUP2 GT ISZERO PUSH2 0x8FB JUMPI PUSH2 0x8FB PUSH2 0x1292 JUMP JUMPDEST PUSH2 0xF92 PUSH2 0xFC7 JUMP JUMPDEST PUSH1 0x1 PUSH1 0x1 PUSH1 0xA0 SHL SUB DUP2 AND PUSH2 0xFBB JUMPI PUSH0 PUSH1 0x40 MLOAD PUSH4 0x1E4FBDF7 PUSH1 0xE0 SHL DUP2 MSTORE PUSH1 0x4 ADD PUSH2 0x3B9 SWAP2 SWAP1 PUSH2 0x130C JUMP JUMPDEST PUSH2 0xFC4 DUP2 PUSH2 0x10EA JUMP JUMPDEST POP JUMP JUMPDEST CALLER PUSH2 0xFD0 PUSH2 0xB1B JUMP JUMPDEST PUSH1 0x1 PUSH1 0x1 PUSH1 0xA0 SHL SUB AND EQ PUSH2 0x98E JUMPI CALLER PUSH1 0x40 MLOAD PUSH4 0x118CDAA7 PUSH1 0xE0 SHL DUP2 MSTORE PUSH1 0x4 ADD PUSH2 0x3B9 SWAP2 SWAP1 PUSH2 0x130C JUMP JUMPDEST PUSH0 DUP1 DUP3 SLT PUSH2 0x1007 JUMPI DUP2 PUSH2 0xB15 JUMP JUMPDEST PUSH2 0xB15 DUP3 PUSH2 0x15DA JUMP JUMPDEST PUSH8 0x57325BBF446493AC SWAP1 DUP2 SWAP1 MOD PUSH4 0x40000000 MUL DIV PUSH0 PUSH2 0xFFFF PUSH1 0x4 DUP4 SWAP1 SHR AND PUSH1 0xFF PUSH1 0x14 DUP5 SWAP1 SHR AND PUSH4 0x10000000 DUP5 AND ISZERO PUSH4 0x20000000 DUP6 AND ISZERO ISZERO DUP2 PUSH2 0x1054 JUMPI PUSH1 0xFF SWAP3 SWAP1 SWAP3 SUB SWAP2 JUMPDEST PUSH0 PUSH1 0x40 MLOAD DUP1 PUSH2 0x440 ADD PUSH1 0x40 MSTORE DUP1 PUSH2 0x404 DUP2 MSTORE PUSH1 0x20 ADD PUSH2 0x15F5 PUSH2 0x404 SWAP2 CODECOPY PUSH1 0x4 PUSH1 0x2 DUP7 ADD MUL DUP2 DUP2 ADD MLOAD SWAP2 SWAP3 POP SWAP1 PUSH4 0xFFFFFFFF PUSH1 0x20 DUP3 SWAP1 SHR DUP2 AND SWAP1 DUP3 AND DUP2 DUP2 SUB DUP10 MUL PUSH1 0x10 SHR PUSH0 DUP9 PUSH2 0x10A5 JUMPI DUP2 DUP4 SUB PUSH2 0x10A9 JUMP JUMPDEST DUP2 DUP5 ADD JUMPDEST SWAP1 POP DUP8 ISZERO PUSH2 0x10B4 JUMPI PUSH0 SUB JUMPDEST PUSH4 0x7FFFFFFF PUSH8 0xDE0B6B3A7640000 DUP3 MUL SDIV SWAP14 SWAP13 POP POP POP POP POP POP POP POP POP POP POP POP POP JUMP JUMPDEST PUSH0 PUSH2 0xB15 PUSH8 0x15CC96EFD11924EB DUP4 ADD PUSH2 0x1010 JUMP JUMPDEST PUSH0 DUP1 SLOAD PUSH1 0x1 PUSH1 0x1 PUSH1 0xA0 SHL SUB DUP4 DUP2 AND PUSH1 0x1 PUSH1 0x1 PUSH1 0xA0 SHL SUB NOT DUP4 AND DUP2 OR DUP5 SSTORE PUSH1 0x40 MLOAD SWAP2 SWAP1 SWAP3 AND SWAP3 DUP4 SWAP2 PUSH32 0x8BE0079C531659141344CD1FD0A4F28419497F9722A3DAAFE3B4186F6B6457E0 SWAP2 SWAP1 LOG3 POP POP JUMP JUMPDEST PUSH1 0x40 DUP1 MLOAD PUSH1 0xE0 DUP2 ADD SWAP1 SWAP2 MSTORE PUSH0 DUP1 DUP3 MSTORE PUSH1 0x20 DUP3 ADD SWAP1 DUP2 MSTORE PUSH1 0x20 ADD PUSH0 DUP2 MSTORE PUSH1 0x20 ADD PUSH0 DUP2 MSTORE PUSH1 0x20 ADD PUSH0 DUP2 MSTORE PUSH1 0x20 ADD PUSH0 DUP2 MSTORE PUSH1 0x20 ADD PUSH0 DUP2 MSTORE POP SWAP1 JUMP JUMPDEST DUP1 CALLDATALOAD PUSH1 0x5 DUP2 LT PUSH2 0x117F JUMPI PUSH0 DUP1 REVERT JUMPDEST SWAP2 SWAP1 POP JUMP JUMPDEST PUSH0 PUSH1 0x20 DUP3 DUP5 SUB SLT ISZERO PUSH2 0x1194 JUMPI PUSH0 DUP1 REVERT JUMPDEST PUSH2 0x119D DUP3 PUSH2 0x1171 JUMP JUMPDEST SWAP4 SWAP3 POP POP POP JUMP JUMPDEST PUSH0 PUSH1 0x20 DUP3 DUP5 SUB SLT ISZERO PUSH2 0x11B4 JUMPI PUSH0 DUP1 REVERT JUMPDEST POP CALLDATALOAD SWAP2 SWAP1 POP JUMP JUMPDEST PUSH0 DUP1 PUSH1 0x40 DUP4 DUP6 SUB SLT ISZERO PUSH2 0x11CC JUMPI PUSH0 DUP1 REVERT JUMPDEST PUSH2 0x11D5 DUP4 PUSH2 0x1171 JUMP JUMPDEST SWAP5 PUSH1 0x20 SWAP4 SWAP1 SWAP4 ADD CALLDATALOAD SWAP4 POP POP POP JUMP JUMPDEST PUSH0 DUP1 PUSH0 DUP1 PUSH1 0x80 DUP6 DUP8 SUB SLT ISZERO PUSH2 0x11F6 JUMPI PUSH0 DUP1 REVERT JUMPDEST POP POP DUP3 CALLDATALOAD SWAP5 PUSH1 0x20 DUP5 ADD CALLDATALOAD SWAP5 POP PUSH1 0x40 DUP5 ADD CALLDATALOAD SWAP4 PUSH1 0x60 ADD CALLDATALOAD SWAP3 POP SWAP1 POP JUMP JUMPDEST DUP1 CALLDATALOAD PUSH1 0x1 PUSH1 0x1 PUSH1 0xA0 SHL SUB DUP2 AND DUP2 EQ PUSH2 0x117F JUMPI PUSH0 DUP1 REVERT JUMPDEST PUSH0 PUSH1 0x20 DUP3 DUP5 SUB SLT ISZERO PUSH2 0x1238 JUMPI PUSH0 DUP1 REVERT JUMPDEST PUSH2 0x119D DUP3 PUSH2 0x1212 JUMP JUMPDEST PUSH0 DUP1 PUSH0 DUP1 PUSH0 PUSH1 0xA0 DUP7 DUP9 SUB SLT ISZERO PUSH2 0x1255 JUMPI PUSH0 DUP1 REVERT JUMPDEST PUSH2 0x125E DUP7 PUSH2 0x1212 JUMP JUMPDEST SWAP5 POP PUSH2 0x126C PUSH1 0x20 DUP8 ADD PUSH2 0x1212 JUMP JUMPDEST SWAP4 POP PUSH2 0x127A PUSH1 0x40 DUP8 ADD PUSH2 0x1171 JUMP JUMPDEST SWAP5 SWAP8 SWAP4 SWAP7 POP SWAP4 SWAP5 PUSH1 0x60 DUP2 ADD CALLDATALOAD SWAP5 POP PUSH1 0x80 ADD CALLDATALOAD SWAP3 SWAP2 POP POP JUMP JUMPDEST PUSH4 0x4E487B71 PUSH1 0xE0 SHL PUSH0 MSTORE PUSH1 0x21 PUSH1 0x4 MSTORE PUSH1 0x24 PUSH0 REVERT JUMPDEST PUSH1 0x5 DUP2 LT PUSH2 0x12C2 JUMPI PUSH4 0x4E487B71 PUSH1 0xE0 SHL PUSH0 MSTORE PUSH1 0x21 PUSH1 0x4 MSTORE PUSH1 0x24 PUSH0 REVERT JUMPDEST SWAP1 MSTORE JUMP JUMPDEST PUSH1 0x1 PUSH1 0x1 PUSH1 0xA0 SHL SUB DUP9 AND DUP2 MSTORE PUSH1 0xE0 DUP2 ADD PUSH2 0x12E3 PUSH1 0x20 DUP4 ADD DUP10 PUSH2 0x12A6 JUMP JUMPDEST PUSH1 0x40 DUP3 ADD SWAP7 SWAP1 SWAP7 MSTORE PUSH1 0x60 DUP2 ADD SWAP5 SWAP1 SWAP5 MSTORE PUSH1 0x80 DUP5 ADD SWAP3 SWAP1 SWAP3 MSTORE PUSH1 0xA0 DUP4 ADD MSTORE PUSH1 0xC0 SWAP1 SWAP2 ADD MSTORE SWAP3 SWAP2 POP POP JUMP JUMPDEST PUSH1 0x1 PUSH1 0x1 PUSH1 0xA0 SHL SUB SWAP2 SWAP1 SWAP2 AND DUP2 MSTORE PUSH1 0x20 ADD SWAP1 JUMP JUMPDEST PUSH0 DUP1 PUSH1 0x40 DUP4 DUP6 SUB SLT ISZERO PUSH2 0x1331 JUMPI PUSH0 DUP1 REVERT JUMPDEST POP POP DUP1 CALLDATALOAD SWAP3 PUSH1 0x20 SWAP1 SWAP2 ADD CALLDATALOAD SWAP2 POP JUMP JUMPDEST PUSH1 0x20 DUP1 DUP3 MSTORE DUP3 MLOAD DUP3 DUP3 ADD DUP2 SWAP1 MSTORE PUSH0 SWAP2 DUP5 ADD SWAP1 PUSH1 0x40 DUP5 ADD SWAP1 DUP4 JUMPDEST DUP2 DUP2 LT ISZERO PUSH2 0x13CE JUMPI DUP4 MLOAD DUP1 MLOAD PUSH1 0x1 PUSH1 0x1 PUSH1 0xA0 SHL SUB AND DUP5 MSTORE PUSH1 0x20 DUP1 DUP3 ADD MLOAD SWAP1 PUSH2 0x1383 SWAP1 DUP7 ADD DUP3 PUSH2 0x12A6 JUMP JUMPDEST POP PUSH1 0x40 DUP2 ADD MLOAD PUSH1 0x40 DUP6 ADD MSTORE PUSH1 0x60 DUP2 ADD MLOAD PUSH1 0x60 DUP6 ADD MSTORE PUSH1 0x80 DUP2 ADD MLOAD PUSH1 0x80 DUP6 ADD MSTORE PUSH1 0xA0 DUP2 ADD MLOAD PUSH1 0xA0 DUP6 ADD MSTORE PUSH1 0xC0 DUP2 ADD MLOAD PUSH1 0xC0 DUP6 ADD MSTORE POP PUSH1 0xE0 DUP4 ADD SWAP3 POP PUSH1 0x20 DUP5 ADD SWAP4 POP PUSH1 0x1 DUP2 ADD SWAP1 POP PUSH2 0x1359 JUMP JUMPDEST POP SWAP1 SWAP6 SWAP5 POP POP POP POP POP JUMP JUMPDEST PUSH0 DUP1 PUSH1 0x40 DUP4 DUP6 SUB SLT ISZERO PUSH2 0x13EA JUMPI PUSH0 DUP1 REVERT JUMPDEST PUSH2 0x11D5 DUP4 PUSH2 0x1212 JUMP JUMPDEST PUSH1 0x20 DUP1 DUP3 MSTORE PUSH1 0x1B SWAP1 DUP3 ADD MSTORE PUSH27 0x14DB585C9D0818DBDB9D1C9858DD1CC81B9BDD08185B1B1BDDD959 PUSH1 0x2A SHL PUSH1 0x40 DUP3 ADD MSTORE PUSH1 0x60 ADD SWAP1 JUMP JUMPDEST PUSH1 0x20 DUP1 DUP3 MSTORE PUSH1 0x10 SWAP1 DUP3 ADD MSTORE PUSH16 0x14DA1BDDDC9BDBDB48195E1C1A5C9959 PUSH1 0x82 SHL PUSH1 0x40 DUP3 ADD MSTORE PUSH1 0x60 ADD SWAP1 JUMP JUMPDEST PUSH4 0x4E487B71 PUSH1 0xE0 SHL PUSH0 MSTORE PUSH1 0x11 PUSH1 0x4 MSTORE PUSH1 0x24 PUSH0 REVERT JUMPDEST DUP2 DUP2 SUB PUSH0 DUP4 SLT DUP1 ISZERO DUP4 DUP4 SGT AND DUP4 DUP4 SLT DUP3 AND OR ISZERO PUSH2 0x1485 JUMPI PUSH2 0x1485 PUSH2 0x1452 JUMP JUMPDEST POP SWAP3 SWAP2 POP POP JUMP JUMPDEST DUP1 DUP3 MUL DUP2 ISZERO DUP3 DUP3 DIV DUP5 EQ OR PUSH2 0xB15 JUMPI PUSH2 0xB15 PUSH2 0x1452 JUMP JUMPDEST PUSH4 0x4E487B71 PUSH1 0xE0 SHL PUSH0 MSTORE PUSH1 0x12 PUSH1 0x4 MSTORE PUSH1 0x24 PUSH0 REVERT JUMPDEST PUSH0 DUP3 PUSH2 0x14C5 JUMPI PUSH2 0x14C5 PUSH2 0x14A3 JUMP JUMPDEST POP DIV SWAP1 JUMP JUMPDEST DUP1 DUP3 MUL PUSH0 DUP3 SLT PUSH1 0x1 PUSH1 0xFF SHL DUP5 EQ AND ISZERO PUSH2 0x14E5 JUMPI PUSH2 0x14E5 PUSH2 0x1452 JUMP JUMPDEST DUP2 DUP2 SDIV DUP4 EQ DUP3 ISZERO OR PUSH2 0xB15 JUMPI PUSH2 0xB15 PUSH2 0x1452 JUMP JUMPDEST DUP1 DUP3 ADD DUP3 DUP2 SLT PUSH0 DUP4 SLT DUP1 ISZERO DUP3 AND DUP3 ISZERO DUP3 AND OR ISZERO PUSH2 0x1518 JUMPI PUSH2 0x1518 PUSH2 0x1452 JUMP JUMPDEST POP POP SWAP3 SWAP2 POP POP JUMP JUMPDEST PUSH0 DUP3 PUSH2 0x152E JUMPI PUSH2 0x152E PUSH2 0x14A3 JUMP JUMPDEST PUSH1 0x1 PUSH1 0xFF SHL DUP3 EQ PUSH0 NOT DUP5 EQ AND ISZERO PUSH2 0x1547 JUMPI PUSH2 0x1547 PUSH2 0x1452 JUMP JUMPDEST POP SDIV SWAP1 JUMP JUMPDEST DUP1 DUP3 ADD DUP1 DUP3 GT ISZERO PUSH2 0xB15 JUMPI PUSH2 0xB15 PUSH2 0x1452 JUMP JUMPDEST PUSH4 0x4E487B71 PUSH1 0xE0 SHL PUSH0 MSTORE PUSH1 0x32 PUSH1 0x4 MSTORE PUSH1 0x24 PUSH0 REVERT JUMPDEST PUSH4 0x4E487B71 PUSH1 0xE0 SHL PUSH0 MSTORE PUSH1 0x41 PUSH1 0x4 MSTORE PUSH1 0x24 PUSH0 REVERT JUMPDEST DUP2 DUP2 SUB DUP2 DUP2 GT ISZERO PUSH2 0xB15 JUMPI PUSH2 0xB15 PUSH2 0x1452 JUMP JUMPDEST PUSH0 PUSH1 0x1 DUP3 ADD PUSH2 0x15AB JUMPI PUSH2 0x15AB PUSH2 0x1452 JUMP JUMPDEST POP PUSH1 0x1 ADD SWAP1 JUMP JUMPDEST PUSH1 0x20 DUP1 DUP3 MSTORE PUSH1 0xE SWAP1 DUP3 ADD MSTORE PUSH14 0x139BDD08185D5D1A1BDC9A5E9959 PUSH1 0x92 SHL PUSH1 0x40 DUP3 ADD MSTORE PUSH1 0x60 ADD SWAP1 JUMP JUMPDEST PUSH0 PUSH1 0x1 PUSH1 0xFF SHL DUP3 ADD PUSH2 0x15EE JUMPI PUSH2 0x15EE PUSH2 0x1452 JUMP JUMPDEST POP PUSH0 SUB SWAP1 JUMP INVALID STOP STOP STOP STOP STOP 0xC9 0xF DUP9 ADD SWAP3 SAR KECCAK256 MUL JUMPDEST 0x26 0xD7 SUB 0x24 0x2A 0xBF SUB 0xED 0x26 0xE6 DIV 0xB6 NOT TSTORE SDIV PUSH32 0x350647D97C0710A34507D95B9E08A2009A096A90490A3308BC0AFB68050BC3 0xAC CALLDATALOAD 0xC DUP12 0xD3 MCOPY 0xD MSTORE8 0xDB SWAP3 0xE SHL 0xC2 0xE4 0xE 0xE3 DUP8 PUSH7 0xFAB272B1072A0 BASEFEE GT CODECOPY CREATE 0xCF SLT ADD AND 0xD5 SLT 0xC8 LT PUSH15 0x138EDBB1145576B1151BDF8515E214 PREVRANDAO AND 0xA8 SGT SDIV OR PUSH14 0xD9DE183366E818F8B83C19BDCBF3 BYTE DUP3 LOG0 0x25 SHL SELFBALANCE ORIGIN 0xEF SHR SIGNEXTEND DUP3 PUSH11 0x1CCF8CB31D934FE51E56CA 0x1E 0x1F NOT 0xF9 PUSH28 0x1FDCDC1B209F701C2161B39F2223A4C522E541AF23A6887E24677757 0x25 0x28 0xC TSTORE 0x25 0xE8 GASLIMIT 0xB6 0x26 0xA8 0x21 DUP6 0x27 PUSH8 0x9DF42826B92828E5 PUSH18 0x4A29A3C4852A61B1012B1F34EB2BDC4E6F2C SWAP9 0xFB 0xBA 0x2D SSTORE GASPRICE 0xFB 0x2E GT EXP PUSH3 0x2ECC68 0x1E 0x2F DUP8 MSTORE PUSH3 0x3041C7 PUSH1 0x30 0xFB 0xC5 0x4D BALANCE 0xB5 BLOBBASEFEE TSTORE ORIGIN PUSH15 0x54C73326E2C233DEF2873496824F35 0x4D SWAP1 JUMP CALLDATASIZE DIV BYTE 0xD9 CALLDATASIZE 0xBA KECCAK256 SGT CALLDATACOPY PUSH16 0x9E46382493B038D8FE93398CDD323A40 0x2D 0xD1 GASPRICE CALLCODE 0xEE 0xB7 EXTCODESIZE 0xA5 0x1E 0x29 EXTCODECOPY JUMP 0xBA PUSH17 0x3D07C1D53DB832A53E680B2C3F1749B73F 0xC5 0xEC SWAP8 BLOCKHASH PUSH20 0xF21D4121589A41CE1E64427A41D04325C13543D0 SWAP11 0xEC PREVRANDAO PUSH27 0xCD50452456BC45CD358F46756827471CECE647C3C22E4869E66449 0xF JUMPI 0xEE BLOBHASH 0xB4 ISZERO CALLER BLOBBASEFEE PC SHR SWAP14 BLOBBASEFEE 0xFB PUSH13 0x974B9E038F4C3FDFF34CE10034 0x4D DUP2 PUSH3 0xC34E21 MOD OR 0x4E 0xBF 0xE8 LOG4 0x4F MCOPY ADDMOD 0xE2 0x4F 0xFB PUSH6 0x4C5097FC5E51 CALLER 0xCC SWAP5 MLOAD 0xCE 0xD4 PUSH15 0x5269126E53028517539B2AEF543302 PUSH30 0x54CA0A4A556040E255F5A4D2568A34A9571DEEF957B0D2555842DD5458D4 0xE DUP13 MSIZE PUSH5 0x649759F3DE SLT GAS DUP3 PUSH26 0x995B1035CE5B9D11535C290ACC5CB420DF5D3E52365DC79D7B5E POP ADD TSTORE MCOPY 0xD7 PUSH29 0x895F5E0DB25FE3B38D60686CCE60EC382F616F146B61F1003E6271FA68 PUSH3 0xF201AC PUSH4 0x7114CC63 0xEF ORIGIN DUP16 PUSH5 0x6C59BF64E8 DUP10 0x25 PUSH6 0x63BF9165DDFB 0xD2 PUSH7 0x573CBB66CF811F PUSH8 0x46C7D767BD0FBC68 ORIGIN JUMPI 0xAA PUSH9 0xA69E806919E31F698C 0x24 PUSH12 0x69FD614A6A6D98A36ADCC964 PUSH12 0x4AF2786BB812D06C24295F6C DUP16 CALLDATALOAD SHL PUSH13 0xF934FB6D6227F96DCA0D146E30 0xE3 BLOBHASH PUSH15 0x96A99C6EFB5F116F5F02B16FC19384 PUSH17 0x231099708378FE70E2CBC571410804719E 0x2C 0xD1 PUSH18 0xFA394872552C8472AF05A67307C3CF735F66 0x25 PUSH20 0xB5EBD0740B53FA745F9DD074B2C8837504D34475 SSTORE 0xBD 0x4B PUSH22 0xA585CE75F42C0A7641AF3C768E0EA576D9498877235F 0x2C PUSH24 0x6C4EDA77B417DF77FAB988784033287884841378C7ABA179 MULMOD 0xA9 0x2C PUSH26 0x4A7C11798A23B079C89F6D7A05EEAC7A4210D87A7D055A7AB6CB LOG3 PUSH27 0xEF63237B26CB4E7B5D039D7B920B887BC5E28F7BF8882F7C29FBED PUSH29 0x5A3D4F7C894BDD7CB727237CE3CEB17D0F42177D3980EB7D628AC57D8A PUSH0 EXTCODEHASH PUSH30 0xB0FDF77DD6668E7DFA98A77E1D93E97E3F57FE7E5FE4927E7F39567E9D55 0xFB PUSH31 0xBA3A387ED5E5C57EF0585F7F0991C37F2191B37F3857F57F4DE4507F62368E PUSH32 0x754E7F7F872BF27F97CEBC7FA736B37FB563B27FC255957FCE0C3D7FD8878D7F 0xE1 0xC7 PUSH11 0x7FE9CBBF7FF094777FF621 DUP2 PUSH32 0xFA72D07FFD88597FFF62157FFFFFFFA26469706673582212208F9425124EE297 0xAF CODESIZE CREATE DUP14 0x2F 0xDE INVALID 0xD2 DUP3 SELFBALANCE 0xA7 0xAF SUB PUSH29 0x24C0436B39E9FC7BEEE12A64736F6C634300081A003300000000000000 "
		},
		"gasEstimates": {
			"creation": {
				"codeDepositCost": "1340400",
				"executionCost": "292570",
				"totalCost": "1632970"
			},
			"external": {
				"addShowRoom(address,address,uint8,uint256,uint256)": "infinite",
				"allShowrooms(uint256)": "4899",
				"calculateDistance(uint256,uint256,uint256,uint256)": "infinite",
				"findNearestShowroom(uint256,uint256)": "infinite",
				"getBalance()": "4676",
				"getShowroomCommissionRate(uint8)": "3058",
				"getShowroomSafeRadius(uint8)": "2750",
				"getShowroomScanRadius(uint8)": "2706",
				"getShowrooms(uint256,uint256)": "3063",
				"owner()": "2698",
				"plusCommision(address,uint256)": "34030",
				"plusMember(address,uint256)": "34050",
				"renounceOwnership()": "infinite",
				"safeRadius(uint8)": "2465",
				"scanRadius(uint8)": "2707",
				"setShowroomCommissionRate(uint8,uint256)": "24909",
				"setShowroomExpiryDate(address,uint256)": "infinite",
				"setShowroomSafeRadius(uint8,uint256)": "25151",
				"setShowroomScanRadius(uint8,uint256)": "24777",
				"setTreeCommissionContract(address)": "26865",
				"showroomCommissionRates(uint8)": "2685",
				"showroomNodes(address)": "13626",
				"transferOwnership(address)": "28880",
				"treeCommissionContract()": "2712",
				"withdrawBP(uint256)": "infinite"
			},
			"internal": {
				"abs(int256)": "123"
			}
		},
		"methodIdentifiers": {
			"addShowRoom(address,address,uint8,uint256,uint256)": "266b09d1",
			"allShowrooms(uint256)": "5f0b032b",
			"calculateDistance(uint256,uint256,uint256,uint256)": "108d4b4e",
			"findNearestShowroom(uint256,uint256)": "7cce9939",
			"getBalance()": "12065fe0",
			"getShowroomCommissionRate(uint8)": "efcf91c7",
			"getShowroomSafeRadius(uint8)": "457142f5",
			"getShowroomScanRadius(uint8)": "3075119d",
			"getShowrooms(uint256,uint256)": "a23d431a",
			"owner()": "8da5cb5b",
			"plusCommision(address,uint256)": "c849c1d0",
			"plusMember(address,uint256)": "da77abed",
			"renounceOwnership()": "715018a6",
			"safeRadius(uint8)": "018f5036",
			"scanRadius(uint8)": "51ecb8af",
			"setShowroomCommissionRate(uint8,uint256)": "3ab32c06",
			"setShowroomExpiryDate(address,uint256)": "bffc0ccd",
			"setShowroomSafeRadius(uint8,uint256)": "bdb561ad",
			"setShowroomScanRadius(uint8,uint256)": "0f937a0a",
			"setTreeCommissionContract(address)": "22a493d7",
			"showroomCommissionRates(uint8)": "47a1efa6",
			"showroomNodes(address)": "53a2dfc1",
			"transferOwnership(address)": "f2fde38b",
			"treeCommissionContract()": "a0815a54",
			"withdrawBP(uint256)": "046e489f"
		}
	},
	"abi": [
		{
			"inputs": [],
			"stateMutability": "nonpayable",
			"type": "constructor"
		},
		{
			"inputs": [
				{
					"internalType": "address",
					"name": "owner",
					"type": "address"
				}
			],
			"name": "OwnableInvalidOwner",
			"type": "error"
		},
		{
			"inputs": [
				{
					"internalType": "address",
					"name": "account",
					"type": "address"
				}
			],
			"name": "OwnableUnauthorizedAccount",
			"type": "error"
		},
		{
			"anonymous": false,
			"inputs": [
				{
					"indexed": true,
					"internalType": "address",
					"name": "previousOwner",
					"type": "address"
				},
				{
					"indexed": true,
					"internalType": "address",
					"name": "newOwner",
					"type": "address"
				}
			],
			"name": "OwnershipTransferred",
			"type": "event"
		},
		{
			"anonymous": false,
			"inputs": [
				{
					"indexed": true,
					"internalType": "address",
					"name": "showroom",
					"type": "address"
				},
				{
					"indexed": true,
					"internalType": "address",
					"name": "parent",
					"type": "address"
				}
			],
			"name": "ShowroomAdded",
			"type": "event"
		},
		{
			"inputs": [
				{
					"internalType": "address",
					"name": "newShowroom",
					"type": "address"
				},
				{
					"internalType": "address",
					"name": "parent",
					"type": "address"
				},
				{
					"internalType": "enum Showroom.ShowroomTier",
					"name": "tier",
					"type": "uint8"
				},
				{
					"internalType": "uint256",
					"name": "longtitude",
					"type": "uint256"
				},
				{
					"internalType": "uint256",
					"name": "lattitude",
					"type": "uint256"
				}
			],
			"name": "addShowRoom",
			"outputs": [],
			"stateMutability": "nonpayable",
			"type": "function"
		},
		{
			"inputs": [
				{
					"internalType": "uint256",
					"name": "",
					"type": "uint256"
				}
			],
			"name": "allShowrooms",
			"outputs": [
				{
					"internalType": "address",
					"name": "",
					"type": "address"
				}
			],
			"stateMutability": "view",
			"type": "function"
		},
		{
			"inputs": [
				{
					"internalType": "uint256",
					"name": "lat1",
					"type": "uint256"
				},
				{
					"internalType": "uint256",
					"name": "lon1",
					"type": "uint256"
				},
				{
					"internalType": "uint256",
					"name": "lat2",
					"type": "uint256"
				},
				{
					"internalType": "uint256",
					"name": "lon2",
					"type": "uint256"
				}
			],
			"name": "calculateDistance",
			"outputs": [
				{
					"internalType": "uint256",
					"name": "",
					"type": "uint256"
				}
			],
			"stateMutability": "pure",
			"type": "function"
		},
		{
			"inputs": [
				{
					"internalType": "uint256",
					"name": "userLat",
					"type": "uint256"
				},
				{
					"internalType": "uint256",
					"name": "userLon",
					"type": "uint256"
				}
			],
			"name": "findNearestShowroom",
			"outputs": [
				{
					"internalType": "address",
					"name": "",
					"type": "address"
				}
			],
			"stateMutability": "view",
			"type": "function"
		},
		{
			"inputs": [],
			"name": "getBalance",
			"outputs": [
				{
					"internalType": "uint256",
					"name": "",
					"type": "uint256"
				}
			],
			"stateMutability": "view",
			"type": "function"
		},
		{
			"inputs": [
				{
					"internalType": "enum Showroom.ShowroomTier",
					"name": "tier",
					"type": "uint8"
				}
			],
			"name": "getShowroomCommissionRate",
			"outputs": [
				{
					"internalType": "uint256",
					"name": "",
					"type": "uint256"
				}
			],
			"stateMutability": "view",
			"type": "function"
		},
		{
			"inputs": [
				{
					"internalType": "enum Showroom.ShowroomTier",
					"name": "tier",
					"type": "uint8"
				}
			],
			"name": "getShowroomSafeRadius",
			"outputs": [
				{
					"internalType": "uint256",
					"name": "",
					"type": "uint256"
				}
			],
			"stateMutability": "view",
			"type": "function"
		},
		{
			"inputs": [
				{
					"internalType": "enum Showroom.ShowroomTier",
					"name": "tier",
					"type": "uint8"
				}
			],
			"name": "getShowroomScanRadius",
			"outputs": [
				{
					"internalType": "uint256",
					"name": "",
					"type": "uint256"
				}
			],
			"stateMutability": "view",
			"type": "function"
		},
		{
			"inputs": [
				{
					"internalType": "uint256",
					"name": "startIndex",
					"type": "uint256"
				},
				{
					"internalType": "uint256",
					"name": "pageSize",
					"type": "uint256"
				}
			],
			"name": "getShowrooms",
			"outputs": [
				{
					"components": [
						{
							"internalType": "address",
							"name": "parent",
							"type": "address"
						},
						{
							"internalType": "enum Showroom.ShowroomTier",
							"name": "tier",
							"type": "uint8"
						},
						{
							"internalType": "uint256",
							"name": "totalBP",
							"type": "uint256"
						},
						{
							"internalType": "uint256",
							"name": "totalMember",
							"type": "uint256"
						},
						{
							"internalType": "uint256",
							"name": "expiryDate",
							"type": "uint256"
						},
						{
							"internalType": "uint256",
							"name": "longtitude",
							"type": "uint256"
						},
						{
							"internalType": "uint256",
							"name": "lattitude",
							"type": "uint256"
						}
					],
					"internalType": "struct Showroom.ShowroomNode[]",
					"name": "",
					"type": "tuple[]"
				}
			],
			"stateMutability": "view",
			"type": "function"
		},
		{
			"inputs": [],
			"name": "owner",
			"outputs": [
				{
					"internalType": "address",
					"name": "",
					"type": "address"
				}
			],
			"stateMutability": "view",
			"type": "function"
		},
		{
			"inputs": [
				{
					"internalType": "address",
					"name": "showroom",
					"type": "address"
				},
				{
					"internalType": "uint256",
					"name": "bp",
					"type": "uint256"
				}
			],
			"name": "plusCommision",
			"outputs": [
				{
					"internalType": "uint256",
					"name": "",
					"type": "uint256"
				}
			],
			"stateMutability": "nonpayable",
			"type": "function"
		},
		{
			"inputs": [
				{
					"internalType": "address",
					"name": "showroom",
					"type": "address"
				},
				{
					"internalType": "uint256",
					"name": "totalMember",
					"type": "uint256"
				}
			],
			"name": "plusMember",
			"outputs": [
				{
					"internalType": "uint256",
					"name": "",
					"type": "uint256"
				}
			],
			"stateMutability": "nonpayable",
			"type": "function"
		},
		{
			"inputs": [],
			"name": "renounceOwnership",
			"outputs": [],
			"stateMutability": "nonpayable",
			"type": "function"
		},
		{
			"inputs": [
				{
					"internalType": "enum Showroom.ShowroomTier",
					"name": "",
					"type": "uint8"
				}
			],
			"name": "safeRadius",
			"outputs": [
				{
					"internalType": "uint256",
					"name": "",
					"type": "uint256"
				}
			],
			"stateMutability": "view",
			"type": "function"
		},
		{
			"inputs": [
				{
					"internalType": "enum Showroom.ShowroomTier",
					"name": "",
					"type": "uint8"
				}
			],
			"name": "scanRadius",
			"outputs": [
				{
					"internalType": "uint256",
					"name": "",
					"type": "uint256"
				}
			],
			"stateMutability": "view",
			"type": "function"
		},
		{
			"inputs": [
				{
					"internalType": "enum Showroom.ShowroomTier",
					"name": "tier",
					"type": "uint8"
				},
				{
					"internalType": "uint256",
					"name": "percent",
					"type": "uint256"
				}
			],
			"name": "setShowroomCommissionRate",
			"outputs": [],
			"stateMutability": "nonpayable",
			"type": "function"
		},
		{
			"inputs": [
				{
					"internalType": "address",
					"name": "showroom",
					"type": "address"
				},
				{
					"internalType": "uint256",
					"name": "changedDays",
					"type": "uint256"
				}
			],
			"name": "setShowroomExpiryDate",
			"outputs": [],
			"stateMutability": "nonpayable",
			"type": "function"
		},
		{
			"inputs": [
				{
					"internalType": "enum Showroom.ShowroomTier",
					"name": "tier",
					"type": "uint8"
				},
				{
					"internalType": "uint256",
					"name": "radius",
					"type": "uint256"
				}
			],
			"name": "setShowroomSafeRadius",
			"outputs": [],
			"stateMutability": "nonpayable",
			"type": "function"
		},
		{
			"inputs": [
				{
					"internalType": "enum Showroom.ShowroomTier",
					"name": "tier",
					"type": "uint8"
				},
				{
					"internalType": "uint256",
					"name": "radius",
					"type": "uint256"
				}
			],
			"name": "setShowroomScanRadius",
			"outputs": [],
			"stateMutability": "nonpayable",
			"type": "function"
		},
		{
			"inputs": [
				{
					"internalType": "address",
					"name": "_treeCommission",
					"type": "address"
				}
			],
			"name": "setTreeCommissionContract",
			"outputs": [],
			"stateMutability": "nonpayable",
			"type": "function"
		},
		{
			"inputs": [
				{
					"internalType": "enum Showroom.ShowroomTier",
					"name": "",
					"type": "uint8"
				}
			],
			"name": "showroomCommissionRates",
			"outputs": [
				{
					"internalType": "uint256",
					"name": "",
					"type": "uint256"
				}
			],
			"stateMutability": "view",
			"type": "function"
		},
		{
			"inputs": [
				{
					"internalType": "address",
					"name": "",
					"type": "address"
				}
			],
			"name": "showroomNodes",
			"outputs": [
				{
					"internalType": "address",
					"name": "parent",
					"type": "address"
				},
				{
					"internalType": "enum Showroom.ShowroomTier",
					"name": "tier",
					"type": "uint8"
				},
				{
					"internalType": "uint256",
					"name": "totalBP",
					"type": "uint256"
				},
				{
					"internalType": "uint256",
					"name": "totalMember",
					"type": "uint256"
				},
				{
					"internalType": "uint256",
					"name": "expiryDate",
					"type": "uint256"
				},
				{
					"internalType": "uint256",
					"name": "longtitude",
					"type": "uint256"
				},
				{
					"internalType": "uint256",
					"name": "lattitude",
					"type": "uint256"
				}
			],
			"stateMutability": "view",
			"type": "function"
		},
		{
			"inputs": [
				{
					"internalType": "address",
					"name": "newOwner",
					"type": "address"
				}
			],
			"name": "transferOwnership",
			"outputs": [],
			"stateMutability": "nonpayable",
			"type": "function"
		},
		{
			"inputs": [],
			"name": "treeCommissionContract",
			"outputs": [
				{
					"internalType": "address",
					"name": "",
					"type": "address"
				}
			],
			"stateMutability": "view",
			"type": "function"
		},
		{
			"inputs": [
				{
					"internalType": "uint256",
					"name": "amount",
					"type": "uint256"
				}
			],
			"name": "withdrawBP",
			"outputs": [],
			"stateMutability": "nonpayable",
			"type": "function"
		}
	]
}