{
	"data": {
		"bytecode": {
			"linkReferences": {},
			"object": "608060405234801561000f575f80fd5b50335f73ffffffffffffffffffffffffffffffffffffffff168173ffffffffffffffffffffffffffffffffffffffff1603610081575f6040517f1e4fbdf70000000000000000000000000000000000000000000000000000000081526004016100789190610467565b60405180910390fd5b6100908161036760201b60201c565b50601960015f600160048111156100aa576100a9610480565b5b60048111156100bc576100bb610480565b5b81526020019081526020015f2081905550603260015f600260048111156100e6576100e5610480565b5b60048111156100f8576100f7610480565b5b81526020019081526020015f2081905550604b60015f6003600481111561012257610121610480565b5b600481111561013457610133610480565b5b81526020019081526020015f2081905550606460015f60048081111561015d5761015c610480565b5b600481111561016f5761016e610480565b5b81526020019081526020015f2081905550603260025f6001600481111561019957610198610480565b5b60048111156101ab576101aa610480565b5b81526020019081526020015f20819055506101f460025f600260048111156101d6576101d5610480565b5b60048111156101e8576101e7610480565b5b81526020019081526020015f20819055506107d060025f6003600481111561021357610212610480565b5b600481111561022557610224610480565b5b81526020019081526020015f208190555061138860025f60048081111561024f5761024e610480565b5b600481111561026157610260610480565b5b81526020019081526020015f2081905550603260035f6001600481111561028b5761028a610480565b5b600481111561029d5761029c610480565b5b81526020019081526020015f2081905550603260035f600260048111156102c7576102c6610480565b5b60048111156102d9576102d8610480565b5b81526020019081526020015f2081905550606460035f6003600481111561030357610302610480565b5b600481111561031557610314610480565b5b81526020019081526020015f20819055506101f460035f60048081111561033f5761033e610480565b5b600481111561035157610350610480565b5b81526020019081526020015f20819055506104ad565b5f805f9054906101000a900473ffffffffffffffffffffffffffffffffffffffff169050815f806101000a81548173ffffffffffffffffffffffffffffffffffffffff021916908373ffffffffffffffffffffffffffffffffffffffff1602179055508173ffffffffffffffffffffffffffffffffffffffff168173ffffffffffffffffffffffffffffffffffffffff167f8be0079c531659141344cd1fd0a4f28419497f9722a3daafe3b4186f6b6457e060405160405180910390a35050565b5f73ffffffffffffffffffffffffffffffffffffffff82169050919050565b5f61045182610428565b9050919050565b61046181610447565b82525050565b5f60208201905061047a5f830184610458565b92915050565b7f4e487b71000000000000000000000000000000000000000000000000000000005f52602160045260245ffd5b612ffd806104ba5f395ff3fe608060405234801561000f575f80fd5b5060043610610171575f3560e01c806353a2dfc1116100dc578063a23d431a11610095578063c849c1d01161006f578063c849c1d014610483578063da77abed146104b3578063efcf91c7146104e3578063f2fde38b1461051357610171565b8063a23d431a1461041b578063bdb561ad1461044b578063bffc0ccd1461046757610171565b806353a2dfc11461033f5780635f0b032b14610375578063715018a6146103a55780637cce9939146103af5780638da5cb5b146103df578063a0815a54146103fd57610171565b80632c048f001161012e5780632c048f00146102475780633075119d146102635780633ab32c0614610293578063457142f5146102af57806347a1efa6146102df57806351ecb8af1461030f57610171565b8063018f5036146101755780630f937a0a146101a5578063108d4b4e146101c157806312065fe0146101f157806322a493d71461020f578063266b09d11461022b575b5f80fd5b61018f600480360381019061018a9190611da6565b61052f565b60405161019c9190611de9565b60405180910390f35b6101bf60048036038101906101ba9190611e2c565b610544565b005b6101db60048036038101906101d69190611e6a565b61058a565b6040516101e89190611de9565b60405180910390f35b6101f9610747565b6040516102069190611de9565b60405180910390f35b61022960048036038101906102249190611f28565b610884565b005b61024560048036038101906102409190611f53565b6108cf565b005b610261600480360381019061025c919061214d565b610b59565b005b61027d60048036038101906102789190611da6565b610d6b565b60405161028a9190611de9565b60405180910390f35b6102ad60048036038101906102a89190611e2c565b610da9565b005b6102c960048036038101906102c49190611da6565b610def565b6040516102d69190611de9565b60405180910390f35b6102f960048036038101906102f49190611da6565b610e2d565b6040516103069190611de9565b60405180910390f35b61032960048036038101906103249190611da6565b610e42565b6040516103369190611de9565b60405180910390f35b61035960048036038101906103549190611f28565b610e57565b60405161036c9796959493929190612229565b60405180910390f35b61038f600480360381019061038a9190612296565b610ec0565b60405161039c91906122c1565b60405180910390f35b6103ad610efb565b005b6103c960048036038101906103c491906122da565b610f0e565b6040516103d691906122c1565b60405180910390f35b6103e76111cf565b6040516103f491906122c1565b60405180910390f35b6104056111f6565b60405161041291906122c1565b60405180910390f35b610435600480360381019061043091906122da565b61121b565b6040516104429190612479565b60405180910390f35b61046560048036038101906104609190611e2c565b6114ee565b005b610481600480360381019061047c9190612499565b611534565b005b61049d60048036038101906104989190612499565b61159e565b6040516104aa9190611de9565b60405180910390f35b6104cd60048036038101906104c89190612499565b611768565b6040516104da9190611de9565b60405180910390f35b6104fd60048036038101906104f89190611da6565b61192d565b60405161050a9190611de9565b60405180910390f35b61052d60048036038101906105289190611f28565b61196b565b005b6003602052805f5260405f205f915090505481565b61054c6119ef565b8060025f846004811115610563576105626121b6565b5b6004811115610575576105746121b6565b5b81526020019081526020015f20819055505050565b5f806a05451c9a1fa35367e0000090505f6809c2007651b2500000672b992ddfa23249d66105c289886105bd919061250d565b611a76565b6105cc919061254d565b6105d691906125bb565b90505f6809c2007651b2500000672b992ddfa23249d661060089886105fb919061250d565b611a76565b61060a919061254d565b61061491906125bb565b90505f6809c2007651b2500000672b992ddfa23249d68a610635919061254d565b61063f91906125bb565b90505f6809c2007651b2500000672b992ddfa23249d689610660919061254d565b61066a91906125bb565b90505f61068260028661067d91906125bb565b611a96565b90505f61069a60028661069591906125bb565b611a96565b90505f6106a685611c20565b90505f6106b285611c20565b90505f83846106c191906125eb565b82846106cd91906125eb565b6106d791906125eb565b85866106e391906125eb565b6106ed9190612661565b90505f61070560028361070091906126a2565b611a96565b600261071191906125eb565b9050670de0b6b3a7640000818c61072891906125eb565b61073291906126a2565b9b505050505050505050505050949350505050565b5f3273ffffffffffffffffffffffffffffffffffffffff163373ffffffffffffffffffffffffffffffffffffffff16146107b6576040517f08c379a00000000000000000000000000000000000000000000000000000000081526004016107ad90612764565b60405180910390fd5b5f3390504260055f8373ffffffffffffffffffffffffffffffffffffffff1673ffffffffffffffffffffffffffffffffffffffff1681526020019081526020015f2060030154101561083d576040517f08c379a0000000000000000000000000000000000000000000000000000000008152600401610834906127cc565b60405180910390fd5b60055f8273ffffffffffffffffffffffffffffffffffffffff1673ffffffffffffffffffffffffffffffffffffffff1681526020019081526020015f206001015491505090565b61088c6119ef565b8060065f6101000a81548173ffffffffffffffffffffffffffffffffffffffff021916908373ffffffffffffffffffffffffffffffffffffffff16021790555050565b6108d76119ef565b5f73ffffffffffffffffffffffffffffffffffffffff1660055f8773ffffffffffffffffffffffffffffffffffffffff1673ffffffffffffffffffffffffffffffffffffffff1681526020019081526020015f205f015f9054906101000a900473ffffffffffffffffffffffffffffffffffffffff1673ffffffffffffffffffffffffffffffffffffffff16146109a3576040517f08c379a000000000000000000000000000000000000000000000000000000000815260040161099a90612834565b60405180910390fd5b6040518060e001604052808573ffffffffffffffffffffffffffffffffffffffff1681526020018460048111156109dd576109dc6121b6565b5b81526020015f81526020015f81526020016301e13380426109fe9190612852565b81526020018381526020018281525060055f8773ffffffffffffffffffffffffffffffffffffffff1673ffffffffffffffffffffffffffffffffffffffff1681526020019081526020015f205f820151815f015f6101000a81548173ffffffffffffffffffffffffffffffffffffffff021916908373ffffffffffffffffffffffffffffffffffffffff1602179055506020820151815f0160146101000a81548160ff02191690836004811115610ab857610ab76121b6565b5b021790555060408201518160010155606082015181600201556080820151816003015560a0820151816004015560c08201518160050155905050600485908060018154018082558091505060019003905f5260205f20015f9091909190916101000a81548173ffffffffffffffffffffffffffffffffffffffff021916908373ffffffffffffffffffffffffffffffffffffffff1602179055505050505050565b3273ffffffffffffffffffffffffffffffffffffffff163373ffffffffffffffffffffffffffffffffffffffff1614610bc7576040517f08c379a0000000000000000000000000000000000000000000000000000000008152600401610bbe90612764565b60405180910390fd5b5f3390505f60055f8373ffffffffffffffffffffffffffffffffffffffff1673ffffffffffffffffffffffffffffffffffffffff1681526020019081526020015f2060010154905083811015610c52576040517f08c379a0000000000000000000000000000000000000000000000000000000008152600401610c49906128cf565b60405180910390fd5b4260055f8473ffffffffffffffffffffffffffffffffffffffff1673ffffffffffffffffffffffffffffffffffffffff1681526020019081526020015f20600301541015610cd5576040517f08c379a0000000000000000000000000000000000000000000000000000000008152600401610ccc906127cc565b60405180910390fd5b5f60065f9054906101000a900473ffffffffffffffffffffffffffffffffffffffff1690508073ffffffffffffffffffffffffffffffffffffffff1663185807e48685876040518463ffffffff1660e01b8152600401610d37939291906129a4565b5f604051808303815f87803b158015610d4e575f80fd5b505af1158015610d60573d5f803e3d5ffd5b505050505050505050565b5f60025f836004811115610d8257610d816121b6565b5b6004811115610d9457610d936121b6565b5b81526020019081526020015f20549050919050565b610db16119ef565b8060015f846004811115610dc857610dc76121b6565b5b6004811115610dda57610dd96121b6565b5b81526020019081526020015f20819055505050565b5f60035f836004811115610e0657610e056121b6565b5b6004811115610e1857610e176121b6565b5b81526020019081526020015f20549050919050565b6001602052805f5260405f205f915090505481565b6002602052805f5260405f205f915090505481565b6005602052805f5260405f205f91509050805f015f9054906101000a900473ffffffffffffffffffffffffffffffffffffffff1690805f0160149054906101000a900460ff16908060010154908060020154908060030154908060040154908060050154905087565b60048181548110610ecf575f80fd5b905f5260205f20015f915054906101000a900473ffffffffffffffffffffffffffffffffffffffff1681565b610f036119ef565b610f0c5f611c4c565b565b5f805f5b6004805490508110156111c4575f60048281548110610f3457610f336129e0565b5b905f5260205f20015f9054906101000a900473ffffffffffffffffffffffffffffffffffffffff1690505f73ffffffffffffffffffffffffffffffffffffffff168173ffffffffffffffffffffffffffffffffffffffff161480610fd757504260055f8373ffffffffffffffffffffffffffffffffffffffff1673ffffffffffffffffffffffffffffffffffffffff1681526020019081526020015f2060030154105b15610fe257506111b7565b5f60055f8373ffffffffffffffffffffffffffffffffffffffff1673ffffffffffffffffffffffffffffffffffffffff1681526020019081526020015f205f0160149054906101000a900460ff1690505f6004811115611045576110446121b6565b5b816004811115611058576110576121b6565b5b036110645750506111b7565b5f6110f1888860055f8773ffffffffffffffffffffffffffffffffffffffff1673ffffffffffffffffffffffffffffffffffffffff1681526020019081526020015f206005015460055f8873ffffffffffffffffffffffffffffffffffffffff1673ffffffffffffffffffffffffffffffffffffffff1681526020019081526020015f206004015461058a565b905060035f836004811115611109576111086121b6565b5b600481111561111b5761111a6121b6565b5b81526020019081526020015f205481101561113b578294505050506111c4565b5f73ffffffffffffffffffffffffffffffffffffffff168573ffffffffffffffffffffffffffffffffffffffff161480156111aa575060025f836004811115611187576111866121b6565b5b6004811115611199576111986121b6565b5b81526020019081526020015f205481105b156111b3578294505b5050505b8080600101915050610f12565b508091505092915050565b5f805f9054906101000a900473ffffffffffffffffffffffffffffffffffffffff16905090565b60065f9054906101000a900473ffffffffffffffffffffffffffffffffffffffff1681565b60605f8211801561122d575060328211155b61126c576040517f08c379a000000000000000000000000000000000000000000000000000000000815260040161126390612a7d565b60405180910390fd5b5f60048054905090508084106112d8575f67ffffffffffffffff81111561129657611295611fde565b5b6040519080825280602002602001820160405280156112cf57816020015b6112bc611d14565b8152602001906001900390816112b45790505b509150506114e8565b5f83856112e59190612852565b9050818111156112f3578190505b5f85826113009190612a9b565b67ffffffffffffffff81111561131957611318611fde565b5b60405190808252806020026020018201604052801561135257816020015b61133f611d14565b8152602001906001900390816113375790505b5090505f808790505b838110156114df5760055f6004838154811061137a576113796129e0565b5b905f5260205f20015f9054906101000a900473ffffffffffffffffffffffffffffffffffffffff1673ffffffffffffffffffffffffffffffffffffffff1673ffffffffffffffffffffffffffffffffffffffff1681526020019081526020015f206040518060e00160405290815f82015f9054906101000a900473ffffffffffffffffffffffffffffffffffffffff1673ffffffffffffffffffffffffffffffffffffffff1673ffffffffffffffffffffffffffffffffffffffff1681526020015f820160149054906101000a900460ff16600481111561145e5761145d6121b6565b5b60048111156114705761146f6121b6565b5b8152602001600182015481526020016002820154815260200160038201548152602001600482015481526020016005820154815250508383815181106114b9576114b86129e0565b5b602002602001018190525081806114cf90612ace565b925050808060010191505061135b565b50819450505050505b92915050565b6114f66119ef565b8060035f84600481111561150d5761150c6121b6565b5b600481111561151f5761151e6121b6565b5b81526020019081526020015f20819055505050565b61153c6119ef565b620151808161154b919061254d565b426115569190612852565b60055f8473ffffffffffffffffffffffffffffffffffffffff1673ffffffffffffffffffffffffffffffffffffffff1681526020019081526020015f20600301819055505050565b5f60065f9054906101000a900473ffffffffffffffffffffffffffffffffffffffff1673ffffffffffffffffffffffffffffffffffffffff163373ffffffffffffffffffffffffffffffffffffffff161461162e576040517f08c379a000000000000000000000000000000000000000000000000000000000815260040161162590612b5f565b60405180910390fd5b4260055f8573ffffffffffffffffffffffffffffffffffffffff1673ffffffffffffffffffffffffffffffffffffffff1681526020019081526020015f20600301541161167d575f9050611762565b8160055f8573ffffffffffffffffffffffffffffffffffffffff1673ffffffffffffffffffffffffffffffffffffffff1681526020019081526020015f206001015f8282546116cc9190612852565b925050819055505f60055f8573ffffffffffffffffffffffffffffffffffffffff1673ffffffffffffffffffffffffffffffffffffffff1681526020019081526020015f205f0160149054906101000a900460ff1690505f60015f83600481111561173a576117396121b6565b5b600481111561174c5761174b6121b6565b5b81526020019081526020015f2054905080925050505b92915050565b5f60065f9054906101000a900473ffffffffffffffffffffffffffffffffffffffff1673ffffffffffffffffffffffffffffffffffffffff163373ffffffffffffffffffffffffffffffffffffffff16146117f8576040517f08c379a00000000000000000000000000000000000000000000000000000000081526004016117ef90612b5f565b60405180910390fd5b4260055f8573ffffffffffffffffffffffffffffffffffffffff1673ffffffffffffffffffffffffffffffffffffffff1681526020019081526020015f206003015411611847575f9050611927565b8160055f8573ffffffffffffffffffffffffffffffffffffffff1673ffffffffffffffffffffffffffffffffffffffff1681526020019081526020015f206002015f8282546118969190612852565b925050819055505f60015f60055f8773ffffffffffffffffffffffffffffffffffffffff1673ffffffffffffffffffffffffffffffffffffffff1681526020019081526020015f205f0160149054906101000a900460ff166004811115611900576118ff6121b6565b5b6004811115611912576119116121b6565b5b81526020019081526020015f20549050809150505b92915050565b5f60015f836004811115611944576119436121b6565b5b6004811115611956576119556121b6565b5b81526020019081526020015f20549050919050565b6119736119ef565b5f73ffffffffffffffffffffffffffffffffffffffff168173ffffffffffffffffffffffffffffffffffffffff16036119e3575f6040517f1e4fbdf70000000000000000000000000000000000000000000000000000000081526004016119da91906122c1565b60405180910390fd5b6119ec81611c4c565b50565b6119f7611d0d565b73ffffffffffffffffffffffffffffffffffffffff16611a156111cf565b73ffffffffffffffffffffffffffffffffffffffff1614611a7457611a38611d0d565b6040517f118cdaa7000000000000000000000000000000000000000000000000000000008152600401611a6b91906122c1565b60405180910390fd5b565b5f808212611a845781611a8f565b81611a8e90612b7d565b5b9050919050565b5f672b992ddfa23249d6600202672b992ddfa23249d66002028381611abe57611abd61258e565b5b06634000000063ffffffff160281611ad957611ad861258e565b5b0491505f600160106001901b0360106008601c030384901c1690505f600160086001901b036008601c0385901c1690505f80631000000063ffffffff1686161490505f80632000000063ffffffff1687161415905081611b3e57826001610100030392505b5f6040518061044001604052806104048152602001612bc4610404913990505f600460ff16600286010290505f8183015190505f6001600460080260ff166001901b03600460080260ff1683901c1690505f6001600460080260ff166001901b03831690505f60108a84840302901c90505f88611bbd57818303611bc1565b8184015b90508715611bef577fffffffffffffffffffffffffffffffffffffffffffffffffffffffffffffffff810290505b637fffffff670de0b6b3a7640000820281611c0d57611c0c61258e565b5b059b505050505050505050505050919050565b5f611c456002672b992ddfa23249d681611c3d57611c3c61258e565b5b048301611a96565b9050919050565b5f805f9054906101000a900473ffffffffffffffffffffffffffffffffffffffff169050815f806101000a81548173ffffffffffffffffffffffffffffffffffffffff021916908373ffffffffffffffffffffffffffffffffffffffff1602179055508173ffffffffffffffffffffffffffffffffffffffff168173ffffffffffffffffffffffffffffffffffffffff167f8be0079c531659141344cd1fd0a4f28419497f9722a3daafe3b4186f6b6457e060405160405180910390a35050565b5f33905090565b6040518060e001604052805f73ffffffffffffffffffffffffffffffffffffffff1681526020015f6004811115611d4e57611d4d6121b6565b5b81526020015f81526020015f81526020015f81526020015f81526020015f81525090565b5f604051905090565b5f80fd5b5f80fd5b60058110611d8f575f80fd5b50565b5f81359050611da081611d83565b92915050565b5f60208284031215611dbb57611dba611d7b565b5b5f611dc884828501611d92565b91505092915050565b5f819050919050565b611de381611dd1565b82525050565b5f602082019050611dfc5f830184611dda565b92915050565b611e0b81611dd1565b8114611e15575f80fd5b50565b5f81359050611e2681611e02565b92915050565b5f8060408385031215611e4257611e41611d7b565b5b5f611e4f85828601611d92565b9250506020611e6085828601611e18565b9150509250929050565b5f805f8060808587031215611e8257611e81611d7b565b5b5f611e8f87828801611e18565b9450506020611ea087828801611e18565b9350506040611eb187828801611e18565b9250506060611ec287828801611e18565b91505092959194509250565b5f73ffffffffffffffffffffffffffffffffffffffff82169050919050565b5f611ef782611ece565b9050919050565b611f0781611eed565b8114611f11575f80fd5b50565b5f81359050611f2281611efe565b92915050565b5f60208284031215611f3d57611f3c611d7b565b5b5f611f4a84828501611f14565b91505092915050565b5f805f805f60a08688031215611f6c57611f6b611d7b565b5b5f611f7988828901611f14565b9550506020611f8a88828901611f14565b9450506040611f9b88828901611d92565b9350506060611fac88828901611e18565b9250506080611fbd88828901611e18565b9150509295509295909350565b5f80fd5b5f601f19601f8301169050919050565b7f4e487b71000000000000000000000000000000000000000000000000000000005f52604160045260245ffd5b61201482611fce565b810181811067ffffffffffffffff8211171561203357612032611fde565b5b80604052505050565b5f612045611d72565b9050612051828261200b565b919050565b5f67ffffffffffffffff8211156120705761206f611fde565b5b602082029050602081019050919050565b5f80fd5b5f819050919050565b61209781612085565b81146120a1575f80fd5b50565b5f813590506120b28161208e565b92915050565b5f6120ca6120c584612056565b61203c565b905080838252602082019050602084028301858111156120ed576120ec612081565b5b835b81811015612116578061210288826120a4565b8452602084019350506020810190506120ef565b5050509392505050565b5f82601f83011261213457612133611fca565b5b81356121448482602086016120b8565b91505092915050565b5f806040838503121561216357612162611d7b565b5b5f61217085828601611e18565b925050602083013567ffffffffffffffff81111561219157612190611d7f565b5b61219d85828601612120565b9150509250929050565b6121b081611eed565b82525050565b7f4e487b71000000000000000000000000000000000000000000000000000000005f52602160045260245ffd5b600581106121f4576121f36121b6565b5b50565b5f819050612204826121e3565b919050565b5f612213826121f7565b9050919050565b61222381612209565b82525050565b5f60e08201905061223c5f83018a6121a7565b612249602083018961221a565b6122566040830188611dda565b6122636060830187611dda565b6122706080830186611dda565b61227d60a0830185611dda565b61228a60c0830184611dda565b98975050505050505050565b5f602082840312156122ab576122aa611d7b565b5b5f6122b884828501611e18565b91505092915050565b5f6020820190506122d45f8301846121a7565b92915050565b5f80604083850312156122f0576122ef611d7b565b5b5f6122fd85828601611e18565b925050602061230e85828601611e18565b9150509250929050565b5f81519050919050565b5f82825260208201905092915050565b5f819050602082019050919050565b61234a81611eed565b82525050565b61235981612209565b82525050565b61236881611dd1565b82525050565b60e082015f8201516123825f850182612341565b5060208201516123956020850182612350565b5060408201516123a8604085018261235f565b5060608201516123bb606085018261235f565b5060808201516123ce608085018261235f565b5060a08201516123e160a085018261235f565b5060c08201516123f460c085018261235f565b50505050565b5f612405838361236e565b60e08301905092915050565b5f602082019050919050565b5f61242782612318565b6124318185612322565b935061243c83612332565b805f5b8381101561246c57815161245388826123fa565b975061245e83612411565b92505060018101905061243f565b5085935050505092915050565b5f6020820190508181035f830152612491818461241d565b905092915050565b5f80604083850312156124af576124ae611d7b565b5b5f6124bc85828601611f14565b92505060206124cd85828601611e18565b9150509250929050565b5f819050919050565b7f4e487b71000000000000000000000000000000000000000000000000000000005f52601160045260245ffd5b5f612517826124d7565b9150612522836124d7565b925082820390508181125f8412168282135f851215161715612547576125466124e0565b5b92915050565b5f61255782611dd1565b915061256283611dd1565b925082820261257081611dd1565b91508282048414831517612587576125866124e0565b5b5092915050565b7f4e487b71000000000000000000000000000000000000000000000000000000005f52601260045260245ffd5b5f6125c582611dd1565b91506125d083611dd1565b9250826125e0576125df61258e565b5b828204905092915050565b5f6125f5826124d7565b9150612600836124d7565b925082820261260e816124d7565b91507f800000000000000000000000000000000000000000000000000000000000000084145f84121615612645576126446124e0565b5b828205841483151761265a576126596124e0565b5b5092915050565b5f61266b826124d7565b9150612676836124d7565b92508282019050828112155f8312168382125f84121516171561269c5761269b6124e0565b5b92915050565b5f6126ac826124d7565b91506126b7836124d7565b9250826126c7576126c661258e565b5b60015f0383147f8000000000000000000000000000000000000000000000000000000000000000831416156126ff576126fe6124e0565b5b828205905092915050565b5f82825260208201905092915050565b7f536d61727420636f6e747261637473206e6f7420616c6c6f77656400000000005f82015250565b5f61274e601b8361270a565b91506127598261271a565b602082019050919050565b5f6020820190508181035f83015261277b81612742565b9050919050565b7f53686f77726f6f6d2065787069726564000000000000000000000000000000005f82015250565b5f6127b660108361270a565b91506127c182612782565b602082019050919050565b5f6020820190508181035f8301526127e3816127aa565b9050919050565b7f53686f77726f6f6d20616c7265616479206578697374730000000000000000005f82015250565b5f61281e60178361270a565b9150612829826127ea565b602082019050919050565b5f6020820190508181035f83015261284b81612812565b9050919050565b5f61285c82611dd1565b915061286783611dd1565b925082820190508082111561287f5761287e6124e0565b5b92915050565b7f496e73756666696369656e742062616c616e63650000000000000000000000005f82015250565b5f6128b960148361270a565b91506128c482612885565b602082019050919050565b5f6020820190508181035f8301526128e6816128ad565b9050919050565b5f81519050919050565b5f82825260208201905092915050565b5f819050602082019050919050565b61291f81612085565b82525050565b5f6129308383612916565b60208301905092915050565b5f602082019050919050565b5f612952826128ed565b61295c81856128f7565b935061296783612907565b805f5b8381101561299757815161297e8882612925565b97506129898361293c565b92505060018101905061296a565b5085935050505092915050565b5f6060820190506129b75f830186611dda565b6129c460208301856121a7565b81810360408301526129d68184612948565b9050949350505050565b7f4e487b71000000000000000000000000000000000000000000000000000000005f52603260045260245ffd5b7f7061676553697a65206d757374206265206265747765656e203120616e6420355f8201527f3000000000000000000000000000000000000000000000000000000000000000602082015250565b5f612a6760218361270a565b9150612a7282612a0d565b604082019050919050565b5f6020820190508181035f830152612a9481612a5b565b9050919050565b5f612aa582611dd1565b9150612ab083611dd1565b9250828203905081811115612ac857612ac76124e0565b5b92915050565b5f612ad882611dd1565b91507fffffffffffffffffffffffffffffffffffffffffffffffffffffffffffffffff8203612b0a57612b096124e0565b5b600182019050919050565b7f4e6f7420617574686f72697a65640000000000000000000000000000000000005f82015250565b5f612b49600e8361270a565b9150612b5482612b15565b602082019050919050565b5f6020820190508181035f830152612b7681612b3d565b9050919050565b5f612b87826124d7565b91507f80000000000000000000000000000000000000000000000000000000000000008203612bb957612bb86124e0565b5b815f03905091905056fe0000000000c90f8801921d20025b26d703242abf03ed26e604b6195d057f00350647d97c0710a34507d95b9e08a2009a096a90490a3308bc0afb68050bc3ac350c8bd35e0d53db920e1bc2e40ee387660fab272b1072a0481139f0cf120116d512c8106e138edbb1145576b1151bdf8515e2144416a81305176dd9de183366e818f8b83c19bdcbf31a82a0251b4732ef1c0b826a1ccf8cb31d934fe51e56ca1e1f19f97b1fdcdc1b209f701c2161b39f2223a4c522e541af23a6887e2467775725280c5d25e845b626a8218527679df42826b92828e5714a29a3c4852a61b1012b1f34eb2bdc4e6f2c98fbba2d553afb2e110a622ecc681e2f8752623041c76030fbc54d31b54a5d326e54c73326e2c233def2873496824f354d905636041ad936ba2013376f9e46382493b038d8fe93398cdd323a402dd13af2eeb73ba51e293c56ba703d07c1d53db832a53e680b2c3f1749b73fc5ec974073f21d4121589a41ce1e64427a41d04325c13543d09aec447acd50452456bc45cd358f46756827471cece647c3c22e4869e664490f57ee49b415334a581c9d4afb6c974b9e038f4c3fdff34ce100344d8162c34e2106174ebfe8a44f5e08e24ffb654c5097fc5e5133cc9451ced46e5269126e53028517539b2aef5433027d54ca0a4a556040e255f5a4d2568a34a9571deef957b0d2555842dd5458d40e8c5964649759f3de125a8279995b1035ce5b9d11535c290acc5cb420df5d3e52365dc79d7b5e50015d5ed77c895f5e0db25fe3b38d60686cce60ec382f616f146b61f1003e6271fa6862f201ac637114cc63ef328f646c59bf64e889256563bf9165ddfbd266573cbb66cf811f6746c7d767bd0fbc683257aa68a69e806919e31f698c246b69fd614a6a6d98a36adcc9646b4af2786bb812d06c24295f6c8f351b6cf934fb6d6227f96dca0d146e30e3496e96a99c6efb5f116f5f02b16fc1938470231099708378fe70e2cbc571410804719e2cd171fa394872552c8472af05a67307c3cf735f662573b5ebd0740b53fa745f9dd074b2c8837504d3447555bd4b75a585ce75f42c0a7641af3c768e0ea576d9498877235f2c776c4eda77b417df77fab988784033287884841378c7aba17909a92c794a7c11798a23b079c89f6d7a05eeac7a4210d87a7d055a7ab6cba37aef63237b26cb4e7b5d039d7b920b887bc5e28f7bf8882f7c29fbed7c5a3d4f7c894bdd7cb727237ce3ceb17d0f42177d3980eb7d628ac57d8a5f3f7db0fdf77dd6668e7dfa98a77e1d93e97e3f57fe7e5fe4927e7f39567e9d55fb7eba3a387ed5e5c57ef0585f7f0991c37f2191b37f3857f57f4de4507f62368e7f754e7f7f872bf27f97cebc7fa736b37fb563b27fc255957fce0c3d7fd8878d7fe1c76a7fe9cbbf7ff094777ff621817ffa72d07ffd88597fff62157fffffffa2646970667358221220eb1923f41bc1ba3c908d80e815a208d18acb2adb2f15ea85f59341cdd1e6b6ae64736f6c634300081a0033",
			"opcodes": "PUSH1 0x80 PUSH1 0x40 MSTORE CALLVALUE DUP1 ISZERO PUSH2 0xF JUMPI PUSH0 DUP1 REVERT JUMPDEST POP CALLER PUSH0 PUSH20 0xFFFFFFFFFFFFFFFFFFFFFFFFFFFFFFFFFFFFFFFF AND DUP2 PUSH20 0xFFFFFFFFFFFFFFFFFFFFFFFFFFFFFFFFFFFFFFFF AND SUB PUSH2 0x81 JUMPI PUSH0 PUSH1 0x40 MLOAD PUSH32 0x1E4FBDF700000000000000000000000000000000000000000000000000000000 DUP2 MSTORE PUSH1 0x4 ADD PUSH2 0x78 SWAP2 SWAP1 PUSH2 0x467 JUMP JUMPDEST PUSH1 0x40 MLOAD DUP1 SWAP2 SUB SWAP1 REVERT JUMPDEST PUSH2 0x90 DUP2 PUSH2 0x367 PUSH1 0x20 SHL PUSH1 0x20 SHR JUMP JUMPDEST POP PUSH1 0x19 PUSH1 0x1 PUSH0 PUSH1 0x1 PUSH1 0x4 DUP2 GT ISZERO PUSH2 0xAA JUMPI PUSH2 0xA9 PUSH2 0x480 JUMP JUMPDEST JUMPDEST PUSH1 0x4 DUP2 GT ISZERO PUSH2 0xBC JUMPI PUSH2 0xBB PUSH2 0x480 JUMP JUMPDEST JUMPDEST DUP2 MSTORE PUSH1 0x20 ADD SWAP1 DUP2 MSTORE PUSH1 0x20 ADD PUSH0 KECCAK256 DUP2 SWAP1 SSTORE POP PUSH1 0x32 PUSH1 0x1 PUSH0 PUSH1 0x2 PUSH1 0x4 DUP2 GT ISZERO PUSH2 0xE6 JUMPI PUSH2 0xE5 PUSH2 0x480 JUMP JUMPDEST JUMPDEST PUSH1 0x4 DUP2 GT ISZERO PUSH2 0xF8 JUMPI PUSH2 0xF7 PUSH2 0x480 JUMP JUMPDEST JUMPDEST DUP2 MSTORE PUSH1 0x20 ADD SWAP1 DUP2 MSTORE PUSH1 0x20 ADD PUSH0 KECCAK256 DUP2 SWAP1 SSTORE POP PUSH1 0x4B PUSH1 0x1 PUSH0 PUSH1 0x3 PUSH1 0x4 DUP2 GT ISZERO PUSH2 0x122 JUMPI PUSH2 0x121 PUSH2 0x480 JUMP JUMPDEST JUMPDEST PUSH1 0x4 DUP2 GT ISZERO PUSH2 0x134 JUMPI PUSH2 0x133 PUSH2 0x480 JUMP JUMPDEST JUMPDEST DUP2 MSTORE PUSH1 0x20 ADD SWAP1 DUP2 MSTORE PUSH1 0x20 ADD PUSH0 KECCAK256 DUP2 SWAP1 SSTORE POP PUSH1 0x64 PUSH1 0x1 PUSH0 PUSH1 0x4 DUP1 DUP2 GT ISZERO PUSH2 0x15D JUMPI PUSH2 0x15C PUSH2 0x480 JUMP JUMPDEST JUMPDEST PUSH1 0x4 DUP2 GT ISZERO PUSH2 0x16F JUMPI PUSH2 0x16E PUSH2 0x480 JUMP JUMPDEST JUMPDEST DUP2 MSTORE PUSH1 0x20 ADD SWAP1 DUP2 MSTORE PUSH1 0x20 ADD PUSH0 KECCAK256 DUP2 SWAP1 SSTORE POP PUSH1 0x32 PUSH1 0x2 PUSH0 PUSH1 0x1 PUSH1 0x4 DUP2 GT ISZERO PUSH2 0x199 JUMPI PUSH2 0x198 PUSH2 0x480 JUMP JUMPDEST JUMPDEST PUSH1 0x4 DUP2 GT ISZERO PUSH2 0x1AB JUMPI PUSH2 0x1AA PUSH2 0x480 JUMP JUMPDEST JUMPDEST DUP2 MSTORE PUSH1 0x20 ADD SWAP1 DUP2 MSTORE PUSH1 0x20 ADD PUSH0 KECCAK256 DUP2 SWAP1 SSTORE POP PUSH2 0x1F4 PUSH1 0x2 PUSH0 PUSH1 0x2 PUSH1 0x4 DUP2 GT ISZERO PUSH2 0x1D6 JUMPI PUSH2 0x1D5 PUSH2 0x480 JUMP JUMPDEST JUMPDEST PUSH1 0x4 DUP2 GT ISZERO PUSH2 0x1E8 JUMPI PUSH2 0x1E7 PUSH2 0x480 JUMP JUMPDEST JUMPDEST DUP2 MSTORE PUSH1 0x20 ADD SWAP1 DUP2 MSTORE PUSH1 0x20 ADD PUSH0 KECCAK256 DUP2 SWAP1 SSTORE POP PUSH2 0x7D0 PUSH1 0x2 PUSH0 PUSH1 0x3 PUSH1 0x4 DUP2 GT ISZERO PUSH2 0x213 JUMPI PUSH2 0x212 PUSH2 0x480 JUMP JUMPDEST JUMPDEST PUSH1 0x4 DUP2 GT ISZERO PUSH2 0x225 JUMPI PUSH2 0x224 PUSH2 0x480 JUMP JUMPDEST JUMPDEST DUP2 MSTORE PUSH1 0x20 ADD SWAP1 DUP2 MSTORE PUSH1 0x20 ADD PUSH0 KECCAK256 DUP2 SWAP1 SSTORE POP PUSH2 0x1388 PUSH1 0x2 PUSH0 PUSH1 0x4 DUP1 DUP2 GT ISZERO PUSH2 0x24F JUMPI PUSH2 0x24E PUSH2 0x480 JUMP JUMPDEST JUMPDEST PUSH1 0x4 DUP2 GT ISZERO PUSH2 0x261 JUMPI PUSH2 0x260 PUSH2 0x480 JUMP JUMPDEST JUMPDEST DUP2 MSTORE PUSH1 0x20 ADD SWAP1 DUP2 MSTORE PUSH1 0x20 ADD PUSH0 KECCAK256 DUP2 SWAP1 SSTORE POP PUSH1 0x32 PUSH1 0x3 PUSH0 PUSH1 0x1 PUSH1 0x4 DUP2 GT ISZERO PUSH2 0x28B JUMPI PUSH2 0x28A PUSH2 0x480 JUMP JUMPDEST JUMPDEST PUSH1 0x4 DUP2 GT ISZERO PUSH2 0x29D JUMPI PUSH2 0x29C PUSH2 0x480 JUMP JUMPDEST JUMPDEST DUP2 MSTORE PUSH1 0x20 ADD SWAP1 DUP2 MSTORE PUSH1 0x20 ADD PUSH0 KECCAK256 DUP2 SWAP1 SSTORE POP PUSH1 0x32 PUSH1 0x3 PUSH0 PUSH1 0x2 PUSH1 0x4 DUP2 GT ISZERO PUSH2 0x2C7 JUMPI PUSH2 0x2C6 PUSH2 0x480 JUMP JUMPDEST JUMPDEST PUSH1 0x4 DUP2 GT ISZERO PUSH2 0x2D9 JUMPI PUSH2 0x2D8 PUSH2 0x480 JUMP JUMPDEST JUMPDEST DUP2 MSTORE PUSH1 0x20 ADD SWAP1 DUP2 MSTORE PUSH1 0x20 ADD PUSH0 KECCAK256 DUP2 SWAP1 SSTORE POP PUSH1 0x64 PUSH1 0x3 PUSH0 PUSH1 0x3 PUSH1 0x4 DUP2 GT ISZERO PUSH2 0x303 JUMPI PUSH2 0x302 PUSH2 0x480 JUMP JUMPDEST JUMPDEST PUSH1 0x4 DUP2 GT ISZERO PUSH2 0x315 JUMPI PUSH2 0x314 PUSH2 0x480 JUMP JUMPDEST JUMPDEST DUP2 MSTORE PUSH1 0x20 ADD SWAP1 DUP2 MSTORE PUSH1 0x20 ADD PUSH0 KECCAK256 DUP2 SWAP1 SSTORE POP PUSH2 0x1F4 PUSH1 0x3 PUSH0 PUSH1 0x4 DUP1 DUP2 GT ISZERO PUSH2 0x33F JUMPI PUSH2 0x33E PUSH2 0x480 JUMP JUMPDEST JUMPDEST PUSH1 0x4 DUP2 GT ISZERO PUSH2 0x351 JUMPI PUSH2 0x350 PUSH2 0x480 JUMP JUMPDEST JUMPDEST DUP2 MSTORE PUSH1 0x20 ADD SWAP1 DUP2 MSTORE PUSH1 0x20 ADD PUSH0 KECCAK256 DUP2 SWAP1 SSTORE POP PUSH2 0x4AD JUMP JUMPDEST PUSH0 DUP1 PUSH0 SWAP1 SLOAD SWAP1 PUSH2 0x100 EXP SWAP1 DIV PUSH20 0xFFFFFFFFFFFFFFFFFFFFFFFFFFFFFFFFFFFFFFFF AND SWAP1 POP DUP2 PUSH0 DUP1 PUSH2 0x100 EXP DUP2 SLOAD DUP2 PUSH20 0xFFFFFFFFFFFFFFFFFFFFFFFFFFFFFFFFFFFFFFFF MUL NOT AND SWAP1 DUP4 PUSH20 0xFFFFFFFFFFFFFFFFFFFFFFFFFFFFFFFFFFFFFFFF AND MUL OR SWAP1 SSTORE POP DUP2 PUSH20 0xFFFFFFFFFFFFFFFFFFFFFFFFFFFFFFFFFFFFFFFF AND DUP2 PUSH20 0xFFFFFFFFFFFFFFFFFFFFFFFFFFFFFFFFFFFFFFFF AND PUSH32 0x8BE0079C531659141344CD1FD0A4F28419497F9722A3DAAFE3B4186F6B6457E0 PUSH1 0x40 MLOAD PUSH1 0x40 MLOAD DUP1 SWAP2 SUB SWAP1 LOG3 POP POP JUMP JUMPDEST PUSH0 PUSH20 0xFFFFFFFFFFFFFFFFFFFFFFFFFFFFFFFFFFFFFFFF DUP3 AND SWAP1 POP SWAP2 SWAP1 POP JUMP JUMPDEST PUSH0 PUSH2 0x451 DUP3 PUSH2 0x428 JUMP JUMPDEST SWAP1 POP SWAP2 SWAP1 POP JUMP JUMPDEST PUSH2 0x461 DUP2 PUSH2 0x447 JUMP JUMPDEST DUP3 MSTORE POP POP JUMP JUMPDEST PUSH0 PUSH1 0x20 DUP3 ADD SWAP1 POP PUSH2 0x47A PUSH0 DUP4 ADD DUP5 PUSH2 0x458 JUMP JUMPDEST SWAP3 SWAP2 POP POP JUMP JUMPDEST PUSH32 0x4E487B7100000000000000000000000000000000000000000000000000000000 PUSH0 MSTORE PUSH1 0x21 PUSH1 0x4 MSTORE PUSH1 0x24 PUSH0 REVERT JUMPDEST PUSH2 0x2FFD DUP1 PUSH2 0x4BA PUSH0 CODECOPY PUSH0 RETURN INVALID PUSH1 0x80 PUSH1 0x40 MSTORE CALLVALUE DUP1 ISZERO PUSH2 0xF JUMPI PUSH0 DUP1 REVERT JUMPDEST POP PUSH1 0x4 CALLDATASIZE LT PUSH2 0x171 JUMPI PUSH0 CALLDATALOAD PUSH1 0xE0 SHR DUP1 PUSH4 0x53A2DFC1 GT PUSH2 0xDC JUMPI DUP1 PUSH4 0xA23D431A GT PUSH2 0x95 JUMPI DUP1 PUSH4 0xC849C1D0 GT PUSH2 0x6F JUMPI DUP1 PUSH4 0xC849C1D0 EQ PUSH2 0x483 JUMPI DUP1 PUSH4 0xDA77ABED EQ PUSH2 0x4B3 JUMPI DUP1 PUSH4 0xEFCF91C7 EQ PUSH2 0x4E3 JUMPI DUP1 PUSH4 0xF2FDE38B EQ PUSH2 0x513 JUMPI PUSH2 0x171 JUMP JUMPDEST DUP1 PUSH4 0xA23D431A EQ PUSH2 0x41B JUMPI DUP1 PUSH4 0xBDB561AD EQ PUSH2 0x44B JUMPI DUP1 PUSH4 0xBFFC0CCD EQ PUSH2 0x467 JUMPI PUSH2 0x171 JUMP JUMPDEST DUP1 PUSH4 0x53A2DFC1 EQ PUSH2 0x33F JUMPI DUP1 PUSH4 0x5F0B032B EQ PUSH2 0x375 JUMPI DUP1 PUSH4 0x715018A6 EQ PUSH2 0x3A5 JUMPI DUP1 PUSH4 0x7CCE9939 EQ PUSH2 0x3AF JUMPI DUP1 PUSH4 0x8DA5CB5B EQ PUSH2 0x3DF JUMPI DUP1 PUSH4 0xA0815A54 EQ PUSH2 0x3FD JUMPI PUSH2 0x171 JUMP JUMPDEST DUP1 PUSH4 0x2C048F00 GT PUSH2 0x12E JUMPI DUP1 PUSH4 0x2C048F00 EQ PUSH2 0x247 JUMPI DUP1 PUSH4 0x3075119D EQ PUSH2 0x263 JUMPI DUP1 PUSH4 0x3AB32C06 EQ PUSH2 0x293 JUMPI DUP1 PUSH4 0x457142F5 EQ PUSH2 0x2AF JUMPI DUP1 PUSH4 0x47A1EFA6 EQ PUSH2 0x2DF JUMPI DUP1 PUSH4 0x51ECB8AF EQ PUSH2 0x30F JUMPI PUSH2 0x171 JUMP JUMPDEST DUP1 PUSH4 0x18F5036 EQ PUSH2 0x175 JUMPI DUP1 PUSH4 0xF937A0A EQ PUSH2 0x1A5 JUMPI DUP1 PUSH4 0x108D4B4E EQ PUSH2 0x1C1 JUMPI DUP1 PUSH4 0x12065FE0 EQ PUSH2 0x1F1 JUMPI DUP1 PUSH4 0x22A493D7 EQ PUSH2 0x20F JUMPI DUP1 PUSH4 0x266B09D1 EQ PUSH2 0x22B JUMPI JUMPDEST PUSH0 DUP1 REVERT JUMPDEST PUSH2 0x18F PUSH1 0x4 DUP1 CALLDATASIZE SUB DUP2 ADD SWAP1 PUSH2 0x18A SWAP2 SWAP1 PUSH2 0x1DA6 JUMP JUMPDEST PUSH2 0x52F JUMP JUMPDEST PUSH1 0x40 MLOAD PUSH2 0x19C SWAP2 SWAP1 PUSH2 0x1DE9 JUMP JUMPDEST PUSH1 0x40 MLOAD DUP1 SWAP2 SUB SWAP1 RETURN JUMPDEST PUSH2 0x1BF PUSH1 0x4 DUP1 CALLDATASIZE SUB DUP2 ADD SWAP1 PUSH2 0x1BA SWAP2 SWAP1 PUSH2 0x1E2C JUMP JUMPDEST PUSH2 0x544 JUMP JUMPDEST STOP JUMPDEST PUSH2 0x1DB PUSH1 0x4 DUP1 CALLDATASIZE SUB DUP2 ADD SWAP1 PUSH2 0x1D6 SWAP2 SWAP1 PUSH2 0x1E6A JUMP JUMPDEST PUSH2 0x58A JUMP JUMPDEST PUSH1 0x40 MLOAD PUSH2 0x1E8 SWAP2 SWAP1 PUSH2 0x1DE9 JUMP JUMPDEST PUSH1 0x40 MLOAD DUP1 SWAP2 SUB SWAP1 RETURN JUMPDEST PUSH2 0x1F9 PUSH2 0x747 JUMP JUMPDEST PUSH1 0x40 MLOAD PUSH2 0x206 SWAP2 SWAP1 PUSH2 0x1DE9 JUMP JUMPDEST PUSH1 0x40 MLOAD DUP1 SWAP2 SUB SWAP1 RETURN JUMPDEST PUSH2 0x229 PUSH1 0x4 DUP1 CALLDATASIZE SUB DUP2 ADD SWAP1 PUSH2 0x224 SWAP2 SWAP1 PUSH2 0x1F28 JUMP JUMPDEST PUSH2 0x884 JUMP JUMPDEST STOP JUMPDEST PUSH2 0x245 PUSH1 0x4 DUP1 CALLDATASIZE SUB DUP2 ADD SWAP1 PUSH2 0x240 SWAP2 SWAP1 PUSH2 0x1F53 JUMP JUMPDEST PUSH2 0x8CF JUMP JUMPDEST STOP JUMPDEST PUSH2 0x261 PUSH1 0x4 DUP1 CALLDATASIZE SUB DUP2 ADD SWAP1 PUSH2 0x25C SWAP2 SWAP1 PUSH2 0x214D JUMP JUMPDEST PUSH2 0xB59 JUMP JUMPDEST STOP JUMPDEST PUSH2 0x27D PUSH1 0x4 DUP1 CALLDATASIZE SUB DUP2 ADD SWAP1 PUSH2 0x278 SWAP2 SWAP1 PUSH2 0x1DA6 JUMP JUMPDEST PUSH2 0xD6B JUMP JUMPDEST PUSH1 0x40 MLOAD PUSH2 0x28A SWAP2 SWAP1 PUSH2 0x1DE9 JUMP JUMPDEST PUSH1 0x40 MLOAD DUP1 SWAP2 SUB SWAP1 RETURN JUMPDEST PUSH2 0x2AD PUSH1 0x4 DUP1 CALLDATASIZE SUB DUP2 ADD SWAP1 PUSH2 0x2A8 SWAP2 SWAP1 PUSH2 0x1E2C JUMP JUMPDEST PUSH2 0xDA9 JUMP JUMPDEST STOP JUMPDEST PUSH2 0x2C9 PUSH1 0x4 DUP1 CALLDATASIZE SUB DUP2 ADD SWAP1 PUSH2 0x2C4 SWAP2 SWAP1 PUSH2 0x1DA6 JUMP JUMPDEST PUSH2 0xDEF JUMP JUMPDEST PUSH1 0x40 MLOAD PUSH2 0x2D6 SWAP2 SWAP1 PUSH2 0x1DE9 JUMP JUMPDEST PUSH1 0x40 MLOAD DUP1 SWAP2 SUB SWAP1 RETURN JUMPDEST PUSH2 0x2F9 PUSH1 0x4 DUP1 CALLDATASIZE SUB DUP2 ADD SWAP1 PUSH2 0x2F4 SWAP2 SWAP1 PUSH2 0x1DA6 JUMP JUMPDEST PUSH2 0xE2D JUMP JUMPDEST PUSH1 0x40 MLOAD PUSH2 0x306 SWAP2 SWAP1 PUSH2 0x1DE9 JUMP JUMPDEST PUSH1 0x40 MLOAD DUP1 SWAP2 SUB SWAP1 RETURN JUMPDEST PUSH2 0x329 PUSH1 0x4 DUP1 CALLDATASIZE SUB DUP2 ADD SWAP1 PUSH2 0x324 SWAP2 SWAP1 PUSH2 0x1DA6 JUMP JUMPDEST PUSH2 0xE42 JUMP JUMPDEST PUSH1 0x40 MLOAD PUSH2 0x336 SWAP2 SWAP1 PUSH2 0x1DE9 JUMP JUMPDEST PUSH1 0x40 MLOAD DUP1 SWAP2 SUB SWAP1 RETURN JUMPDEST PUSH2 0x359 PUSH1 0x4 DUP1 CALLDATASIZE SUB DUP2 ADD SWAP1 PUSH2 0x354 SWAP2 SWAP1 PUSH2 0x1F28 JUMP JUMPDEST PUSH2 0xE57 JUMP JUMPDEST PUSH1 0x40 MLOAD PUSH2 0x36C SWAP8 SWAP7 SWAP6 SWAP5 SWAP4 SWAP3 SWAP2 SWAP1 PUSH2 0x2229 JUMP JUMPDEST PUSH1 0x40 MLOAD DUP1 SWAP2 SUB SWAP1 RETURN JUMPDEST PUSH2 0x38F PUSH1 0x4 DUP1 CALLDATASIZE SUB DUP2 ADD SWAP1 PUSH2 0x38A SWAP2 SWAP1 PUSH2 0x2296 JUMP JUMPDEST PUSH2 0xEC0 JUMP JUMPDEST PUSH1 0x40 MLOAD PUSH2 0x39C SWAP2 SWAP1 PUSH2 0x22C1 JUMP JUMPDEST PUSH1 0x40 MLOAD DUP1 SWAP2 SUB SWAP1 RETURN JUMPDEST PUSH2 0x3AD PUSH2 0xEFB JUMP JUMPDEST STOP JUMPDEST PUSH2 0x3C9 PUSH1 0x4 DUP1 CALLDATASIZE SUB DUP2 ADD SWAP1 PUSH2 0x3C4 SWAP2 SWAP1 PUSH2 0x22DA JUMP JUMPDEST PUSH2 0xF0E JUMP JUMPDEST PUSH1 0x40 MLOAD PUSH2 0x3D6 SWAP2 SWAP1 PUSH2 0x22C1 JUMP JUMPDEST PUSH1 0x40 MLOAD DUP1 SWAP2 SUB SWAP1 RETURN JUMPDEST PUSH2 0x3E7 PUSH2 0x11CF JUMP JUMPDEST PUSH1 0x40 MLOAD PUSH2 0x3F4 SWAP2 SWAP1 PUSH2 0x22C1 JUMP JUMPDEST PUSH1 0x40 MLOAD DUP1 SWAP2 SUB SWAP1 RETURN JUMPDEST PUSH2 0x405 PUSH2 0x11F6 JUMP JUMPDEST PUSH1 0x40 MLOAD PUSH2 0x412 SWAP2 SWAP1 PUSH2 0x22C1 JUMP JUMPDEST PUSH1 0x40 MLOAD DUP1 SWAP2 SUB SWAP1 RETURN JUMPDEST PUSH2 0x435 PUSH1 0x4 DUP1 CALLDATASIZE SUB DUP2 ADD SWAP1 PUSH2 0x430 SWAP2 SWAP1 PUSH2 0x22DA JUMP JUMPDEST PUSH2 0x121B JUMP JUMPDEST PUSH1 0x40 MLOAD PUSH2 0x442 SWAP2 SWAP1 PUSH2 0x2479 JUMP JUMPDEST PUSH1 0x40 MLOAD DUP1 SWAP2 SUB SWAP1 RETURN JUMPDEST PUSH2 0x465 PUSH1 0x4 DUP1 CALLDATASIZE SUB DUP2 ADD SWAP1 PUSH2 0x460 SWAP2 SWAP1 PUSH2 0x1E2C JUMP JUMPDEST PUSH2 0x14EE JUMP JUMPDEST STOP JUMPDEST PUSH2 0x481 PUSH1 0x4 DUP1 CALLDATASIZE SUB DUP2 ADD SWAP1 PUSH2 0x47C SWAP2 SWAP1 PUSH2 0x2499 JUMP JUMPDEST PUSH2 0x1534 JUMP JUMPDEST STOP JUMPDEST PUSH2 0x49D PUSH1 0x4 DUP1 CALLDATASIZE SUB DUP2 ADD SWAP1 PUSH2 0x498 SWAP2 SWAP1 PUSH2 0x2499 JUMP JUMPDEST PUSH2 0x159E JUMP JUMPDEST PUSH1 0x40 MLOAD PUSH2 0x4AA SWAP2 SWAP1 PUSH2 0x1DE9 JUMP JUMPDEST PUSH1 0x40 MLOAD DUP1 SWAP2 SUB SWAP1 RETURN JUMPDEST PUSH2 0x4CD PUSH1 0x4 DUP1 CALLDATASIZE SUB DUP2 ADD SWAP1 PUSH2 0x4C8 SWAP2 SWAP1 PUSH2 0x2499 JUMP JUMPDEST PUSH2 0x1768 JUMP JUMPDEST PUSH1 0x40 MLOAD PUSH2 0x4DA SWAP2 SWAP1 PUSH2 0x1DE9 JUMP JUMPDEST PUSH1 0x40 MLOAD DUP1 SWAP2 SUB SWAP1 RETURN JUMPDEST PUSH2 0x4FD PUSH1 0x4 DUP1 CALLDATASIZE SUB DUP2 ADD SWAP1 PUSH2 0x4F8 SWAP2 SWAP1 PUSH2 0x1DA6 JUMP JUMPDEST PUSH2 0x192D JUMP JUMPDEST PUSH1 0x40 MLOAD PUSH2 0x50A SWAP2 SWAP1 PUSH2 0x1DE9 JUMP JUMPDEST PUSH1 0x40 MLOAD DUP1 SWAP2 SUB SWAP1 RETURN JUMPDEST PUSH2 0x52D PUSH1 0x4 DUP1 CALLDATASIZE SUB DUP2 ADD SWAP1 PUSH2 0x528 SWAP2 SWAP1 PUSH2 0x1F28 JUMP JUMPDEST PUSH2 0x196B JUMP JUMPDEST STOP JUMPDEST PUSH1 0x3 PUSH1 0x20 MSTORE DUP1 PUSH0 MSTORE PUSH1 0x40 PUSH0 KECCAK256 PUSH0 SWAP2 POP SWAP1 POP SLOAD DUP2 JUMP JUMPDEST PUSH2 0x54C PUSH2 0x19EF JUMP JUMPDEST DUP1 PUSH1 0x2 PUSH0 DUP5 PUSH1 0x4 DUP2 GT ISZERO PUSH2 0x563 JUMPI PUSH2 0x562 PUSH2 0x21B6 JUMP JUMPDEST JUMPDEST PUSH1 0x4 DUP2 GT ISZERO PUSH2 0x575 JUMPI PUSH2 0x574 PUSH2 0x21B6 JUMP JUMPDEST JUMPDEST DUP2 MSTORE PUSH1 0x20 ADD SWAP1 DUP2 MSTORE PUSH1 0x20 ADD PUSH0 KECCAK256 DUP2 SWAP1 SSTORE POP POP POP JUMP JUMPDEST PUSH0 DUP1 PUSH11 0x5451C9A1FA35367E00000 SWAP1 POP PUSH0 PUSH9 0x9C2007651B2500000 PUSH8 0x2B992DDFA23249D6 PUSH2 0x5C2 DUP10 DUP9 PUSH2 0x5BD SWAP2 SWAP1 PUSH2 0x250D JUMP JUMPDEST PUSH2 0x1A76 JUMP JUMPDEST PUSH2 0x5CC SWAP2 SWAP1 PUSH2 0x254D JUMP JUMPDEST PUSH2 0x5D6 SWAP2 SWAP1 PUSH2 0x25BB JUMP JUMPDEST SWAP1 POP PUSH0 PUSH9 0x9C2007651B2500000 PUSH8 0x2B992DDFA23249D6 PUSH2 0x600 DUP10 DUP9 PUSH2 0x5FB SWAP2 SWAP1 PUSH2 0x250D JUMP JUMPDEST PUSH2 0x1A76 JUMP JUMPDEST PUSH2 0x60A SWAP2 SWAP1 PUSH2 0x254D JUMP JUMPDEST PUSH2 0x614 SWAP2 SWAP1 PUSH2 0x25BB JUMP JUMPDEST SWAP1 POP PUSH0 PUSH9 0x9C2007651B2500000 PUSH8 0x2B992DDFA23249D6 DUP11 PUSH2 0x635 SWAP2 SWAP1 PUSH2 0x254D JUMP JUMPDEST PUSH2 0x63F SWAP2 SWAP1 PUSH2 0x25BB JUMP JUMPDEST SWAP1 POP PUSH0 PUSH9 0x9C2007651B2500000 PUSH8 0x2B992DDFA23249D6 DUP10 PUSH2 0x660 SWAP2 SWAP1 PUSH2 0x254D JUMP JUMPDEST PUSH2 0x66A SWAP2 SWAP1 PUSH2 0x25BB JUMP JUMPDEST SWAP1 POP PUSH0 PUSH2 0x682 PUSH1 0x2 DUP7 PUSH2 0x67D SWAP2 SWAP1 PUSH2 0x25BB JUMP JUMPDEST PUSH2 0x1A96 JUMP JUMPDEST SWAP1 POP PUSH0 PUSH2 0x69A PUSH1 0x2 DUP7 PUSH2 0x695 SWAP2 SWAP1 PUSH2 0x25BB JUMP JUMPDEST PUSH2 0x1A96 JUMP JUMPDEST SWAP1 POP PUSH0 PUSH2 0x6A6 DUP6 PUSH2 0x1C20 JUMP JUMPDEST SWAP1 POP PUSH0 PUSH2 0x6B2 DUP6 PUSH2 0x1C20 JUMP JUMPDEST SWAP1 POP PUSH0 DUP4 DUP5 PUSH2 0x6C1 SWAP2 SWAP1 PUSH2 0x25EB JUMP JUMPDEST DUP3 DUP5 PUSH2 0x6CD SWAP2 SWAP1 PUSH2 0x25EB JUMP JUMPDEST PUSH2 0x6D7 SWAP2 SWAP1 PUSH2 0x25EB JUMP JUMPDEST DUP6 DUP7 PUSH2 0x6E3 SWAP2 SWAP1 PUSH2 0x25EB JUMP JUMPDEST PUSH2 0x6ED SWAP2 SWAP1 PUSH2 0x2661 JUMP JUMPDEST SWAP1 POP PUSH0 PUSH2 0x705 PUSH1 0x2 DUP4 PUSH2 0x700 SWAP2 SWAP1 PUSH2 0x26A2 JUMP JUMPDEST PUSH2 0x1A96 JUMP JUMPDEST PUSH1 0x2 PUSH2 0x711 SWAP2 SWAP1 PUSH2 0x25EB JUMP JUMPDEST SWAP1 POP PUSH8 0xDE0B6B3A7640000 DUP2 DUP13 PUSH2 0x728 SWAP2 SWAP1 PUSH2 0x25EB JUMP JUMPDEST PUSH2 0x732 SWAP2 SWAP1 PUSH2 0x26A2 JUMP JUMPDEST SWAP12 POP POP POP POP POP POP POP POP POP POP POP POP SWAP5 SWAP4 POP POP POP POP JUMP JUMPDEST PUSH0 ORIGIN PUSH20 0xFFFFFFFFFFFFFFFFFFFFFFFFFFFFFFFFFFFFFFFF AND CALLER PUSH20 0xFFFFFFFFFFFFFFFFFFFFFFFFFFFFFFFFFFFFFFFF AND EQ PUSH2 0x7B6 JUMPI PUSH1 0x40 MLOAD PUSH32 0x8C379A000000000000000000000000000000000000000000000000000000000 DUP2 MSTORE PUSH1 0x4 ADD PUSH2 0x7AD SWAP1 PUSH2 0x2764 JUMP JUMPDEST PUSH1 0x40 MLOAD DUP1 SWAP2 SUB SWAP1 REVERT JUMPDEST PUSH0 CALLER SWAP1 POP TIMESTAMP PUSH1 0x5 PUSH0 DUP4 PUSH20 0xFFFFFFFFFFFFFFFFFFFFFFFFFFFFFFFFFFFFFFFF AND PUSH20 0xFFFFFFFFFFFFFFFFFFFFFFFFFFFFFFFFFFFFFFFF AND DUP2 MSTORE PUSH1 0x20 ADD SWAP1 DUP2 MSTORE PUSH1 0x20 ADD PUSH0 KECCAK256 PUSH1 0x3 ADD SLOAD LT ISZERO PUSH2 0x83D JUMPI PUSH1 0x40 MLOAD PUSH32 0x8C379A000000000000000000000000000000000000000000000000000000000 DUP2 MSTORE PUSH1 0x4 ADD PUSH2 0x834 SWAP1 PUSH2 0x27CC JUMP JUMPDEST PUSH1 0x40 MLOAD DUP1 SWAP2 SUB SWAP1 REVERT JUMPDEST PUSH1 0x5 PUSH0 DUP3 PUSH20 0xFFFFFFFFFFFFFFFFFFFFFFFFFFFFFFFFFFFFFFFF AND PUSH20 0xFFFFFFFFFFFFFFFFFFFFFFFFFFFFFFFFFFFFFFFF AND DUP2 MSTORE PUSH1 0x20 ADD SWAP1 DUP2 MSTORE PUSH1 0x20 ADD PUSH0 KECCAK256 PUSH1 0x1 ADD SLOAD SWAP2 POP POP SWAP1 JUMP JUMPDEST PUSH2 0x88C PUSH2 0x19EF JUMP JUMPDEST DUP1 PUSH1 0x6 PUSH0 PUSH2 0x100 EXP DUP2 SLOAD DUP2 PUSH20 0xFFFFFFFFFFFFFFFFFFFFFFFFFFFFFFFFFFFFFFFF MUL NOT AND SWAP1 DUP4 PUSH20 0xFFFFFFFFFFFFFFFFFFFFFFFFFFFFFFFFFFFFFFFF AND MUL OR SWAP1 SSTORE POP POP JUMP JUMPDEST PUSH2 0x8D7 PUSH2 0x19EF JUMP JUMPDEST PUSH0 PUSH20 0xFFFFFFFFFFFFFFFFFFFFFFFFFFFFFFFFFFFFFFFF AND PUSH1 0x5 PUSH0 DUP8 PUSH20 0xFFFFFFFFFFFFFFFFFFFFFFFFFFFFFFFFFFFFFFFF AND PUSH20 0xFFFFFFFFFFFFFFFFFFFFFFFFFFFFFFFFFFFFFFFF AND DUP2 MSTORE PUSH1 0x20 ADD SWAP1 DUP2 MSTORE PUSH1 0x20 ADD PUSH0 KECCAK256 PUSH0 ADD PUSH0 SWAP1 SLOAD SWAP1 PUSH2 0x100 EXP SWAP1 DIV PUSH20 0xFFFFFFFFFFFFFFFFFFFFFFFFFFFFFFFFFFFFFFFF AND PUSH20 0xFFFFFFFFFFFFFFFFFFFFFFFFFFFFFFFFFFFFFFFF AND EQ PUSH2 0x9A3 JUMPI PUSH1 0x40 MLOAD PUSH32 0x8C379A000000000000000000000000000000000000000000000000000000000 DUP2 MSTORE PUSH1 0x4 ADD PUSH2 0x99A SWAP1 PUSH2 0x2834 JUMP JUMPDEST PUSH1 0x40 MLOAD DUP1 SWAP2 SUB SWAP1 REVERT JUMPDEST PUSH1 0x40 MLOAD DUP1 PUSH1 0xE0 ADD PUSH1 0x40 MSTORE DUP1 DUP6 PUSH20 0xFFFFFFFFFFFFFFFFFFFFFFFFFFFFFFFFFFFFFFFF AND DUP2 MSTORE PUSH1 0x20 ADD DUP5 PUSH1 0x4 DUP2 GT ISZERO PUSH2 0x9DD JUMPI PUSH2 0x9DC PUSH2 0x21B6 JUMP JUMPDEST JUMPDEST DUP2 MSTORE PUSH1 0x20 ADD PUSH0 DUP2 MSTORE PUSH1 0x20 ADD PUSH0 DUP2 MSTORE PUSH1 0x20 ADD PUSH4 0x1E13380 TIMESTAMP PUSH2 0x9FE SWAP2 SWAP1 PUSH2 0x2852 JUMP JUMPDEST DUP2 MSTORE PUSH1 0x20 ADD DUP4 DUP2 MSTORE PUSH1 0x20 ADD DUP3 DUP2 MSTORE POP PUSH1 0x5 PUSH0 DUP8 PUSH20 0xFFFFFFFFFFFFFFFFFFFFFFFFFFFFFFFFFFFFFFFF AND PUSH20 0xFFFFFFFFFFFFFFFFFFFFFFFFFFFFFFFFFFFFFFFF AND DUP2 MSTORE PUSH1 0x20 ADD SWAP1 DUP2 MSTORE PUSH1 0x20 ADD PUSH0 KECCAK256 PUSH0 DUP3 ADD MLOAD DUP2 PUSH0 ADD PUSH0 PUSH2 0x100 EXP DUP2 SLOAD DUP2 PUSH20 0xFFFFFFFFFFFFFFFFFFFFFFFFFFFFFFFFFFFFFFFF MUL NOT AND SWAP1 DUP4 PUSH20 0xFFFFFFFFFFFFFFFFFFFFFFFFFFFFFFFFFFFFFFFF AND MUL OR SWAP1 SSTORE POP PUSH1 0x20 DUP3 ADD MLOAD DUP2 PUSH0 ADD PUSH1 0x14 PUSH2 0x100 EXP DUP2 SLOAD DUP2 PUSH1 0xFF MUL NOT AND SWAP1 DUP4 PUSH1 0x4 DUP2 GT ISZERO PUSH2 0xAB8 JUMPI PUSH2 0xAB7 PUSH2 0x21B6 JUMP JUMPDEST JUMPDEST MUL OR SWAP1 SSTORE POP PUSH1 0x40 DUP3 ADD MLOAD DUP2 PUSH1 0x1 ADD SSTORE PUSH1 0x60 DUP3 ADD MLOAD DUP2 PUSH1 0x2 ADD SSTORE PUSH1 0x80 DUP3 ADD MLOAD DUP2 PUSH1 0x3 ADD SSTORE PUSH1 0xA0 DUP3 ADD MLOAD DUP2 PUSH1 0x4 ADD SSTORE PUSH1 0xC0 DUP3 ADD MLOAD DUP2 PUSH1 0x5 ADD SSTORE SWAP1 POP POP PUSH1 0x4 DUP6 SWAP1 DUP1 PUSH1 0x1 DUP2 SLOAD ADD DUP1 DUP3 SSTORE DUP1 SWAP2 POP POP PUSH1 0x1 SWAP1 SUB SWAP1 PUSH0 MSTORE PUSH1 0x20 PUSH0 KECCAK256 ADD PUSH0 SWAP1 SWAP2 SWAP1 SWAP2 SWAP1 SWAP2 PUSH2 0x100 EXP DUP2 SLOAD DUP2 PUSH20 0xFFFFFFFFFFFFFFFFFFFFFFFFFFFFFFFFFFFFFFFF MUL NOT AND SWAP1 DUP4 PUSH20 0xFFFFFFFFFFFFFFFFFFFFFFFFFFFFFFFFFFFFFFFF AND MUL OR SWAP1 SSTORE POP POP POP POP POP POP JUMP JUMPDEST ORIGIN PUSH20 0xFFFFFFFFFFFFFFFFFFFFFFFFFFFFFFFFFFFFFFFF AND CALLER PUSH20 0xFFFFFFFFFFFFFFFFFFFFFFFFFFFFFFFFFFFFFFFF AND EQ PUSH2 0xBC7 JUMPI PUSH1 0x40 MLOAD PUSH32 0x8C379A000000000000000000000000000000000000000000000000000000000 DUP2 MSTORE PUSH1 0x4 ADD PUSH2 0xBBE SWAP1 PUSH2 0x2764 JUMP JUMPDEST PUSH1 0x40 MLOAD DUP1 SWAP2 SUB SWAP1 REVERT JUMPDEST PUSH0 CALLER SWAP1 POP PUSH0 PUSH1 0x5 PUSH0 DUP4 PUSH20 0xFFFFFFFFFFFFFFFFFFFFFFFFFFFFFFFFFFFFFFFF AND PUSH20 0xFFFFFFFFFFFFFFFFFFFFFFFFFFFFFFFFFFFFFFFF AND DUP2 MSTORE PUSH1 0x20 ADD SWAP1 DUP2 MSTORE PUSH1 0x20 ADD PUSH0 KECCAK256 PUSH1 0x1 ADD SLOAD SWAP1 POP DUP4 DUP2 LT ISZERO PUSH2 0xC52 JUMPI PUSH1 0x40 MLOAD PUSH32 0x8C379A000000000000000000000000000000000000000000000000000000000 DUP2 MSTORE PUSH1 0x4 ADD PUSH2 0xC49 SWAP1 PUSH2 0x28CF JUMP JUMPDEST PUSH1 0x40 MLOAD DUP1 SWAP2 SUB SWAP1 REVERT JUMPDEST TIMESTAMP PUSH1 0x5 PUSH0 DUP5 PUSH20 0xFFFFFFFFFFFFFFFFFFFFFFFFFFFFFFFFFFFFFFFF AND PUSH20 0xFFFFFFFFFFFFFFFFFFFFFFFFFFFFFFFFFFFFFFFF AND DUP2 MSTORE PUSH1 0x20 ADD SWAP1 DUP2 MSTORE PUSH1 0x20 ADD PUSH0 KECCAK256 PUSH1 0x3 ADD SLOAD LT ISZERO PUSH2 0xCD5 JUMPI PUSH1 0x40 MLOAD PUSH32 0x8C379A000000000000000000000000000000000000000000000000000000000 DUP2 MSTORE PUSH1 0x4 ADD PUSH2 0xCCC SWAP1 PUSH2 0x27CC JUMP JUMPDEST PUSH1 0x40 MLOAD DUP1 SWAP2 SUB SWAP1 REVERT JUMPDEST PUSH0 PUSH1 0x6 PUSH0 SWAP1 SLOAD SWAP1 PUSH2 0x100 EXP SWAP1 DIV PUSH20 0xFFFFFFFFFFFFFFFFFFFFFFFFFFFFFFFFFFFFFFFF AND SWAP1 POP DUP1 PUSH20 0xFFFFFFFFFFFFFFFFFFFFFFFFFFFFFFFFFFFFFFFF AND PUSH4 0x185807E4 DUP7 DUP6 DUP8 PUSH1 0x40 MLOAD DUP5 PUSH4 0xFFFFFFFF AND PUSH1 0xE0 SHL DUP2 MSTORE PUSH1 0x4 ADD PUSH2 0xD37 SWAP4 SWAP3 SWAP2 SWAP1 PUSH2 0x29A4 JUMP JUMPDEST PUSH0 PUSH1 0x40 MLOAD DUP1 DUP4 SUB DUP2 PUSH0 DUP8 DUP1 EXTCODESIZE ISZERO DUP1 ISZERO PUSH2 0xD4E JUMPI PUSH0 DUP1 REVERT JUMPDEST POP GAS CALL ISZERO DUP1 ISZERO PUSH2 0xD60 JUMPI RETURNDATASIZE PUSH0 DUP1 RETURNDATACOPY RETURNDATASIZE PUSH0 REVERT JUMPDEST POP POP POP POP POP POP POP POP POP JUMP JUMPDEST PUSH0 PUSH1 0x2 PUSH0 DUP4 PUSH1 0x4 DUP2 GT ISZERO PUSH2 0xD82 JUMPI PUSH2 0xD81 PUSH2 0x21B6 JUMP JUMPDEST JUMPDEST PUSH1 0x4 DUP2 GT ISZERO PUSH2 0xD94 JUMPI PUSH2 0xD93 PUSH2 0x21B6 JUMP JUMPDEST JUMPDEST DUP2 MSTORE PUSH1 0x20 ADD SWAP1 DUP2 MSTORE PUSH1 0x20 ADD PUSH0 KECCAK256 SLOAD SWAP1 POP SWAP2 SWAP1 POP JUMP JUMPDEST PUSH2 0xDB1 PUSH2 0x19EF JUMP JUMPDEST DUP1 PUSH1 0x1 PUSH0 DUP5 PUSH1 0x4 DUP2 GT ISZERO PUSH2 0xDC8 JUMPI PUSH2 0xDC7 PUSH2 0x21B6 JUMP JUMPDEST JUMPDEST PUSH1 0x4 DUP2 GT ISZERO PUSH2 0xDDA JUMPI PUSH2 0xDD9 PUSH2 0x21B6 JUMP JUMPDEST JUMPDEST DUP2 MSTORE PUSH1 0x20 ADD SWAP1 DUP2 MSTORE PUSH1 0x20 ADD PUSH0 KECCAK256 DUP2 SWAP1 SSTORE POP POP POP JUMP JUMPDEST PUSH0 PUSH1 0x3 PUSH0 DUP4 PUSH1 0x4 DUP2 GT ISZERO PUSH2 0xE06 JUMPI PUSH2 0xE05 PUSH2 0x21B6 JUMP JUMPDEST JUMPDEST PUSH1 0x4 DUP2 GT ISZERO PUSH2 0xE18 JUMPI PUSH2 0xE17 PUSH2 0x21B6 JUMP JUMPDEST JUMPDEST DUP2 MSTORE PUSH1 0x20 ADD SWAP1 DUP2 MSTORE PUSH1 0x20 ADD PUSH0 KECCAK256 SLOAD SWAP1 POP SWAP2 SWAP1 POP JUMP JUMPDEST PUSH1 0x1 PUSH1 0x20 MSTORE DUP1 PUSH0 MSTORE PUSH1 0x40 PUSH0 KECCAK256 PUSH0 SWAP2 POP SWAP1 POP SLOAD DUP2 JUMP JUMPDEST PUSH1 0x2 PUSH1 0x20 MSTORE DUP1 PUSH0 MSTORE PUSH1 0x40 PUSH0 KECCAK256 PUSH0 SWAP2 POP SWAP1 POP SLOAD DUP2 JUMP JUMPDEST PUSH1 0x5 PUSH1 0x20 MSTORE DUP1 PUSH0 MSTORE PUSH1 0x40 PUSH0 KECCAK256 PUSH0 SWAP2 POP SWAP1 POP DUP1 PUSH0 ADD PUSH0 SWAP1 SLOAD SWAP1 PUSH2 0x100 EXP SWAP1 DIV PUSH20 0xFFFFFFFFFFFFFFFFFFFFFFFFFFFFFFFFFFFFFFFF AND SWAP1 DUP1 PUSH0 ADD PUSH1 0x14 SWAP1 SLOAD SWAP1 PUSH2 0x100 EXP SWAP1 DIV PUSH1 0xFF AND SWAP1 DUP1 PUSH1 0x1 ADD SLOAD SWAP1 DUP1 PUSH1 0x2 ADD SLOAD SWAP1 DUP1 PUSH1 0x3 ADD SLOAD SWAP1 DUP1 PUSH1 0x4 ADD SLOAD SWAP1 DUP1 PUSH1 0x5 ADD SLOAD SWAP1 POP DUP8 JUMP JUMPDEST PUSH1 0x4 DUP2 DUP2 SLOAD DUP2 LT PUSH2 0xECF JUMPI PUSH0 DUP1 REVERT JUMPDEST SWAP1 PUSH0 MSTORE PUSH1 0x20 PUSH0 KECCAK256 ADD PUSH0 SWAP2 POP SLOAD SWAP1 PUSH2 0x100 EXP SWAP1 DIV PUSH20 0xFFFFFFFFFFFFFFFFFFFFFFFFFFFFFFFFFFFFFFFF AND DUP2 JUMP JUMPDEST PUSH2 0xF03 PUSH2 0x19EF JUMP JUMPDEST PUSH2 0xF0C PUSH0 PUSH2 0x1C4C JUMP JUMPDEST JUMP JUMPDEST PUSH0 DUP1 PUSH0 JUMPDEST PUSH1 0x4 DUP1 SLOAD SWAP1 POP DUP2 LT ISZERO PUSH2 0x11C4 JUMPI PUSH0 PUSH1 0x4 DUP3 DUP2 SLOAD DUP2 LT PUSH2 0xF34 JUMPI PUSH2 0xF33 PUSH2 0x29E0 JUMP JUMPDEST JUMPDEST SWAP1 PUSH0 MSTORE PUSH1 0x20 PUSH0 KECCAK256 ADD PUSH0 SWAP1 SLOAD SWAP1 PUSH2 0x100 EXP SWAP1 DIV PUSH20 0xFFFFFFFFFFFFFFFFFFFFFFFFFFFFFFFFFFFFFFFF AND SWAP1 POP PUSH0 PUSH20 0xFFFFFFFFFFFFFFFFFFFFFFFFFFFFFFFFFFFFFFFF AND DUP2 PUSH20 0xFFFFFFFFFFFFFFFFFFFFFFFFFFFFFFFFFFFFFFFF AND EQ DUP1 PUSH2 0xFD7 JUMPI POP TIMESTAMP PUSH1 0x5 PUSH0 DUP4 PUSH20 0xFFFFFFFFFFFFFFFFFFFFFFFFFFFFFFFFFFFFFFFF AND PUSH20 0xFFFFFFFFFFFFFFFFFFFFFFFFFFFFFFFFFFFFFFFF AND DUP2 MSTORE PUSH1 0x20 ADD SWAP1 DUP2 MSTORE PUSH1 0x20 ADD PUSH0 KECCAK256 PUSH1 0x3 ADD SLOAD LT JUMPDEST ISZERO PUSH2 0xFE2 JUMPI POP PUSH2 0x11B7 JUMP JUMPDEST PUSH0 PUSH1 0x5 PUSH0 DUP4 PUSH20 0xFFFFFFFFFFFFFFFFFFFFFFFFFFFFFFFFFFFFFFFF AND PUSH20 0xFFFFFFFFFFFFFFFFFFFFFFFFFFFFFFFFFFFFFFFF AND DUP2 MSTORE PUSH1 0x20 ADD SWAP1 DUP2 MSTORE PUSH1 0x20 ADD PUSH0 KECCAK256 PUSH0 ADD PUSH1 0x14 SWAP1 SLOAD SWAP1 PUSH2 0x100 EXP SWAP1 DIV PUSH1 0xFF AND SWAP1 POP PUSH0 PUSH1 0x4 DUP2 GT ISZERO PUSH2 0x1045 JUMPI PUSH2 0x1044 PUSH2 0x21B6 JUMP JUMPDEST JUMPDEST DUP2 PUSH1 0x4 DUP2 GT ISZERO PUSH2 0x1058 JUMPI PUSH2 0x1057 PUSH2 0x21B6 JUMP JUMPDEST JUMPDEST SUB PUSH2 0x1064 JUMPI POP POP PUSH2 0x11B7 JUMP JUMPDEST PUSH0 PUSH2 0x10F1 DUP9 DUP9 PUSH1 0x5 PUSH0 DUP8 PUSH20 0xFFFFFFFFFFFFFFFFFFFFFFFFFFFFFFFFFFFFFFFF AND PUSH20 0xFFFFFFFFFFFFFFFFFFFFFFFFFFFFFFFFFFFFFFFF AND DUP2 MSTORE PUSH1 0x20 ADD SWAP1 DUP2 MSTORE PUSH1 0x20 ADD PUSH0 KECCAK256 PUSH1 0x5 ADD SLOAD PUSH1 0x5 PUSH0 DUP9 PUSH20 0xFFFFFFFFFFFFFFFFFFFFFFFFFFFFFFFFFFFFFFFF AND PUSH20 0xFFFFFFFFFFFFFFFFFFFFFFFFFFFFFFFFFFFFFFFF AND DUP2 MSTORE PUSH1 0x20 ADD SWAP1 DUP2 MSTORE PUSH1 0x20 ADD PUSH0 KECCAK256 PUSH1 0x4 ADD SLOAD PUSH2 0x58A JUMP JUMPDEST SWAP1 POP PUSH1 0x3 PUSH0 DUP4 PUSH1 0x4 DUP2 GT ISZERO PUSH2 0x1109 JUMPI PUSH2 0x1108 PUSH2 0x21B6 JUMP JUMPDEST JUMPDEST PUSH1 0x4 DUP2 GT ISZERO PUSH2 0x111B JUMPI PUSH2 0x111A PUSH2 0x21B6 JUMP JUMPDEST JUMPDEST DUP2 MSTORE PUSH1 0x20 ADD SWAP1 DUP2 MSTORE PUSH1 0x20 ADD PUSH0 KECCAK256 SLOAD DUP2 LT ISZERO PUSH2 0x113B JUMPI DUP3 SWAP5 POP POP POP POP PUSH2 0x11C4 JUMP JUMPDEST PUSH0 PUSH20 0xFFFFFFFFFFFFFFFFFFFFFFFFFFFFFFFFFFFFFFFF AND DUP6 PUSH20 0xFFFFFFFFFFFFFFFFFFFFFFFFFFFFFFFFFFFFFFFF AND EQ DUP1 ISZERO PUSH2 0x11AA JUMPI POP PUSH1 0x2 PUSH0 DUP4 PUSH1 0x4 DUP2 GT ISZERO PUSH2 0x1187 JUMPI PUSH2 0x1186 PUSH2 0x21B6 JUMP JUMPDEST JUMPDEST PUSH1 0x4 DUP2 GT ISZERO PUSH2 0x1199 JUMPI PUSH2 0x1198 PUSH2 0x21B6 JUMP JUMPDEST JUMPDEST DUP2 MSTORE PUSH1 0x20 ADD SWAP1 DUP2 MSTORE PUSH1 0x20 ADD PUSH0 KECCAK256 SLOAD DUP2 LT JUMPDEST ISZERO PUSH2 0x11B3 JUMPI DUP3 SWAP5 POP JUMPDEST POP POP POP JUMPDEST DUP1 DUP1 PUSH1 0x1 ADD SWAP2 POP POP PUSH2 0xF12 JUMP JUMPDEST POP DUP1 SWAP2 POP POP SWAP3 SWAP2 POP POP JUMP JUMPDEST PUSH0 DUP1 PUSH0 SWAP1 SLOAD SWAP1 PUSH2 0x100 EXP SWAP1 DIV PUSH20 0xFFFFFFFFFFFFFFFFFFFFFFFFFFFFFFFFFFFFFFFF AND SWAP1 POP SWAP1 JUMP JUMPDEST PUSH1 0x6 PUSH0 SWAP1 SLOAD SWAP1 PUSH2 0x100 EXP SWAP1 DIV PUSH20 0xFFFFFFFFFFFFFFFFFFFFFFFFFFFFFFFFFFFFFFFF AND DUP2 JUMP JUMPDEST PUSH1 0x60 PUSH0 DUP3 GT DUP1 ISZERO PUSH2 0x122D JUMPI POP PUSH1 0x32 DUP3 GT ISZERO JUMPDEST PUSH2 0x126C JUMPI PUSH1 0x40 MLOAD PUSH32 0x8C379A000000000000000000000000000000000000000000000000000000000 DUP2 MSTORE PUSH1 0x4 ADD PUSH2 0x1263 SWAP1 PUSH2 0x2A7D JUMP JUMPDEST PUSH1 0x40 MLOAD DUP1 SWAP2 SUB SWAP1 REVERT JUMPDEST PUSH0 PUSH1 0x4 DUP1 SLOAD SWAP1 POP SWAP1 POP DUP1 DUP5 LT PUSH2 0x12D8 JUMPI PUSH0 PUSH8 0xFFFFFFFFFFFFFFFF DUP2 GT ISZERO PUSH2 0x1296 JUMPI PUSH2 0x1295 PUSH2 0x1FDE JUMP JUMPDEST JUMPDEST PUSH1 0x40 MLOAD SWAP1 DUP1 DUP3 MSTORE DUP1 PUSH1 0x20 MUL PUSH1 0x20 ADD DUP3 ADD PUSH1 0x40 MSTORE DUP1 ISZERO PUSH2 0x12CF JUMPI DUP2 PUSH1 0x20 ADD JUMPDEST PUSH2 0x12BC PUSH2 0x1D14 JUMP JUMPDEST DUP2 MSTORE PUSH1 0x20 ADD SWAP1 PUSH1 0x1 SWAP1 SUB SWAP1 DUP2 PUSH2 0x12B4 JUMPI SWAP1 POP JUMPDEST POP SWAP2 POP POP PUSH2 0x14E8 JUMP JUMPDEST PUSH0 DUP4 DUP6 PUSH2 0x12E5 SWAP2 SWAP1 PUSH2 0x2852 JUMP JUMPDEST SWAP1 POP DUP2 DUP2 GT ISZERO PUSH2 0x12F3 JUMPI DUP2 SWAP1 POP JUMPDEST PUSH0 DUP6 DUP3 PUSH2 0x1300 SWAP2 SWAP1 PUSH2 0x2A9B JUMP JUMPDEST PUSH8 0xFFFFFFFFFFFFFFFF DUP2 GT ISZERO PUSH2 0x1319 JUMPI PUSH2 0x1318 PUSH2 0x1FDE JUMP JUMPDEST JUMPDEST PUSH1 0x40 MLOAD SWAP1 DUP1 DUP3 MSTORE DUP1 PUSH1 0x20 MUL PUSH1 0x20 ADD DUP3 ADD PUSH1 0x40 MSTORE DUP1 ISZERO PUSH2 0x1352 JUMPI DUP2 PUSH1 0x20 ADD JUMPDEST PUSH2 0x133F PUSH2 0x1D14 JUMP JUMPDEST DUP2 MSTORE PUSH1 0x20 ADD SWAP1 PUSH1 0x1 SWAP1 SUB SWAP1 DUP2 PUSH2 0x1337 JUMPI SWAP1 POP JUMPDEST POP SWAP1 POP PUSH0 DUP1 DUP8 SWAP1 POP JUMPDEST DUP4 DUP2 LT ISZERO PUSH2 0x14DF JUMPI PUSH1 0x5 PUSH0 PUSH1 0x4 DUP4 DUP2 SLOAD DUP2 LT PUSH2 0x137A JUMPI PUSH2 0x1379 PUSH2 0x29E0 JUMP JUMPDEST JUMPDEST SWAP1 PUSH0 MSTORE PUSH1 0x20 PUSH0 KECCAK256 ADD PUSH0 SWAP1 SLOAD SWAP1 PUSH2 0x100 EXP SWAP1 DIV PUSH20 0xFFFFFFFFFFFFFFFFFFFFFFFFFFFFFFFFFFFFFFFF AND PUSH20 0xFFFFFFFFFFFFFFFFFFFFFFFFFFFFFFFFFFFFFFFF AND PUSH20 0xFFFFFFFFFFFFFFFFFFFFFFFFFFFFFFFFFFFFFFFF AND DUP2 MSTORE PUSH1 0x20 ADD SWAP1 DUP2 MSTORE PUSH1 0x20 ADD PUSH0 KECCAK256 PUSH1 0x40 MLOAD DUP1 PUSH1 0xE0 ADD PUSH1 0x40 MSTORE SWAP1 DUP2 PUSH0 DUP3 ADD PUSH0 SWAP1 SLOAD SWAP1 PUSH2 0x100 EXP SWAP1 DIV PUSH20 0xFFFFFFFFFFFFFFFFFFFFFFFFFFFFFFFFFFFFFFFF AND PUSH20 0xFFFFFFFFFFFFFFFFFFFFFFFFFFFFFFFFFFFFFFFF AND PUSH20 0xFFFFFFFFFFFFFFFFFFFFFFFFFFFFFFFFFFFFFFFF AND DUP2 MSTORE PUSH1 0x20 ADD PUSH0 DUP3 ADD PUSH1 0x14 SWAP1 SLOAD SWAP1 PUSH2 0x100 EXP SWAP1 DIV PUSH1 0xFF AND PUSH1 0x4 DUP2 GT ISZERO PUSH2 0x145E JUMPI PUSH2 0x145D PUSH2 0x21B6 JUMP JUMPDEST JUMPDEST PUSH1 0x4 DUP2 GT ISZERO PUSH2 0x1470 JUMPI PUSH2 0x146F PUSH2 0x21B6 JUMP JUMPDEST JUMPDEST DUP2 MSTORE PUSH1 0x20 ADD PUSH1 0x1 DUP3 ADD SLOAD DUP2 MSTORE PUSH1 0x20 ADD PUSH1 0x2 DUP3 ADD SLOAD DUP2 MSTORE PUSH1 0x20 ADD PUSH1 0x3 DUP3 ADD SLOAD DUP2 MSTORE PUSH1 0x20 ADD PUSH1 0x4 DUP3 ADD SLOAD DUP2 MSTORE PUSH1 0x20 ADD PUSH1 0x5 DUP3 ADD SLOAD DUP2 MSTORE POP POP DUP4 DUP4 DUP2 MLOAD DUP2 LT PUSH2 0x14B9 JUMPI PUSH2 0x14B8 PUSH2 0x29E0 JUMP JUMPDEST JUMPDEST PUSH1 0x20 MUL PUSH1 0x20 ADD ADD DUP2 SWAP1 MSTORE POP DUP2 DUP1 PUSH2 0x14CF SWAP1 PUSH2 0x2ACE JUMP JUMPDEST SWAP3 POP POP DUP1 DUP1 PUSH1 0x1 ADD SWAP2 POP POP PUSH2 0x135B JUMP JUMPDEST POP DUP2 SWAP5 POP POP POP POP POP JUMPDEST SWAP3 SWAP2 POP POP JUMP JUMPDEST PUSH2 0x14F6 PUSH2 0x19EF JUMP JUMPDEST DUP1 PUSH1 0x3 PUSH0 DUP5 PUSH1 0x4 DUP2 GT ISZERO PUSH2 0x150D JUMPI PUSH2 0x150C PUSH2 0x21B6 JUMP JUMPDEST JUMPDEST PUSH1 0x4 DUP2 GT ISZERO PUSH2 0x151F JUMPI PUSH2 0x151E PUSH2 0x21B6 JUMP JUMPDEST JUMPDEST DUP2 MSTORE PUSH1 0x20 ADD SWAP1 DUP2 MSTORE PUSH1 0x20 ADD PUSH0 KECCAK256 DUP2 SWAP1 SSTORE POP POP POP JUMP JUMPDEST PUSH2 0x153C PUSH2 0x19EF JUMP JUMPDEST PUSH3 0x15180 DUP2 PUSH2 0x154B SWAP2 SWAP1 PUSH2 0x254D JUMP JUMPDEST TIMESTAMP PUSH2 0x1556 SWAP2 SWAP1 PUSH2 0x2852 JUMP JUMPDEST PUSH1 0x5 PUSH0 DUP5 PUSH20 0xFFFFFFFFFFFFFFFFFFFFFFFFFFFFFFFFFFFFFFFF AND PUSH20 0xFFFFFFFFFFFFFFFFFFFFFFFFFFFFFFFFFFFFFFFF AND DUP2 MSTORE PUSH1 0x20 ADD SWAP1 DUP2 MSTORE PUSH1 0x20 ADD PUSH0 KECCAK256 PUSH1 0x3 ADD DUP2 SWAP1 SSTORE POP POP POP JUMP JUMPDEST PUSH0 PUSH1 0x6 PUSH0 SWAP1 SLOAD SWAP1 PUSH2 0x100 EXP SWAP1 DIV PUSH20 0xFFFFFFFFFFFFFFFFFFFFFFFFFFFFFFFFFFFFFFFF AND PUSH20 0xFFFFFFFFFFFFFFFFFFFFFFFFFFFFFFFFFFFFFFFF AND CALLER PUSH20 0xFFFFFFFFFFFFFFFFFFFFFFFFFFFFFFFFFFFFFFFF AND EQ PUSH2 0x162E JUMPI PUSH1 0x40 MLOAD PUSH32 0x8C379A000000000000000000000000000000000000000000000000000000000 DUP2 MSTORE PUSH1 0x4 ADD PUSH2 0x1625 SWAP1 PUSH2 0x2B5F JUMP JUMPDEST PUSH1 0x40 MLOAD DUP1 SWAP2 SUB SWAP1 REVERT JUMPDEST TIMESTAMP PUSH1 0x5 PUSH0 DUP6 PUSH20 0xFFFFFFFFFFFFFFFFFFFFFFFFFFFFFFFFFFFFFFFF AND PUSH20 0xFFFFFFFFFFFFFFFFFFFFFFFFFFFFFFFFFFFFFFFF AND DUP2 MSTORE PUSH1 0x20 ADD SWAP1 DUP2 MSTORE PUSH1 0x20 ADD PUSH0 KECCAK256 PUSH1 0x3 ADD SLOAD GT PUSH2 0x167D JUMPI PUSH0 SWAP1 POP PUSH2 0x1762 JUMP JUMPDEST DUP2 PUSH1 0x5 PUSH0 DUP6 PUSH20 0xFFFFFFFFFFFFFFFFFFFFFFFFFFFFFFFFFFFFFFFF AND PUSH20 0xFFFFFFFFFFFFFFFFFFFFFFFFFFFFFFFFFFFFFFFF AND DUP2 MSTORE PUSH1 0x20 ADD SWAP1 DUP2 MSTORE PUSH1 0x20 ADD PUSH0 KECCAK256 PUSH1 0x1 ADD PUSH0 DUP3 DUP3 SLOAD PUSH2 0x16CC SWAP2 SWAP1 PUSH2 0x2852 JUMP JUMPDEST SWAP3 POP POP DUP2 SWAP1 SSTORE POP PUSH0 PUSH1 0x5 PUSH0 DUP6 PUSH20 0xFFFFFFFFFFFFFFFFFFFFFFFFFFFFFFFFFFFFFFFF AND PUSH20 0xFFFFFFFFFFFFFFFFFFFFFFFFFFFFFFFFFFFFFFFF AND DUP2 MSTORE PUSH1 0x20 ADD SWAP1 DUP2 MSTORE PUSH1 0x20 ADD PUSH0 KECCAK256 PUSH0 ADD PUSH1 0x14 SWAP1 SLOAD SWAP1 PUSH2 0x100 EXP SWAP1 DIV PUSH1 0xFF AND SWAP1 POP PUSH0 PUSH1 0x1 PUSH0 DUP4 PUSH1 0x4 DUP2 GT ISZERO PUSH2 0x173A JUMPI PUSH2 0x1739 PUSH2 0x21B6 JUMP JUMPDEST JUMPDEST PUSH1 0x4 DUP2 GT ISZERO PUSH2 0x174C JUMPI PUSH2 0x174B PUSH2 0x21B6 JUMP JUMPDEST JUMPDEST DUP2 MSTORE PUSH1 0x20 ADD SWAP1 DUP2 MSTORE PUSH1 0x20 ADD PUSH0 KECCAK256 SLOAD SWAP1 POP DUP1 SWAP3 POP POP POP JUMPDEST SWAP3 SWAP2 POP POP JUMP JUMPDEST PUSH0 PUSH1 0x6 PUSH0 SWAP1 SLOAD SWAP1 PUSH2 0x100 EXP SWAP1 DIV PUSH20 0xFFFFFFFFFFFFFFFFFFFFFFFFFFFFFFFFFFFFFFFF AND PUSH20 0xFFFFFFFFFFFFFFFFFFFFFFFFFFFFFFFFFFFFFFFF AND CALLER PUSH20 0xFFFFFFFFFFFFFFFFFFFFFFFFFFFFFFFFFFFFFFFF AND EQ PUSH2 0x17F8 JUMPI PUSH1 0x40 MLOAD PUSH32 0x8C379A000000000000000000000000000000000000000000000000000000000 DUP2 MSTORE PUSH1 0x4 ADD PUSH2 0x17EF SWAP1 PUSH2 0x2B5F JUMP JUMPDEST PUSH1 0x40 MLOAD DUP1 SWAP2 SUB SWAP1 REVERT JUMPDEST TIMESTAMP PUSH1 0x5 PUSH0 DUP6 PUSH20 0xFFFFFFFFFFFFFFFFFFFFFFFFFFFFFFFFFFFFFFFF AND PUSH20 0xFFFFFFFFFFFFFFFFFFFFFFFFFFFFFFFFFFFFFFFF AND DUP2 MSTORE PUSH1 0x20 ADD SWAP1 DUP2 MSTORE PUSH1 0x20 ADD PUSH0 KECCAK256 PUSH1 0x3 ADD SLOAD GT PUSH2 0x1847 JUMPI PUSH0 SWAP1 POP PUSH2 0x1927 JUMP JUMPDEST DUP2 PUSH1 0x5 PUSH0 DUP6 PUSH20 0xFFFFFFFFFFFFFFFFFFFFFFFFFFFFFFFFFFFFFFFF AND PUSH20 0xFFFFFFFFFFFFFFFFFFFFFFFFFFFFFFFFFFFFFFFF AND DUP2 MSTORE PUSH1 0x20 ADD SWAP1 DUP2 MSTORE PUSH1 0x20 ADD PUSH0 KECCAK256 PUSH1 0x2 ADD PUSH0 DUP3 DUP3 SLOAD PUSH2 0x1896 SWAP2 SWAP1 PUSH2 0x2852 JUMP JUMPDEST SWAP3 POP POP DUP2 SWAP1 SSTORE POP PUSH0 PUSH1 0x1 PUSH0 PUSH1 0x5 PUSH0 DUP8 PUSH20 0xFFFFFFFFFFFFFFFFFFFFFFFFFFFFFFFFFFFFFFFF AND PUSH20 0xFFFFFFFFFFFFFFFFFFFFFFFFFFFFFFFFFFFFFFFF AND DUP2 MSTORE PUSH1 0x20 ADD SWAP1 DUP2 MSTORE PUSH1 0x20 ADD PUSH0 KECCAK256 PUSH0 ADD PUSH1 0x14 SWAP1 SLOAD SWAP1 PUSH2 0x100 EXP SWAP1 DIV PUSH1 0xFF AND PUSH1 0x4 DUP2 GT ISZERO PUSH2 0x1900 JUMPI PUSH2 0x18FF PUSH2 0x21B6 JUMP JUMPDEST JUMPDEST PUSH1 0x4 DUP2 GT ISZERO PUSH2 0x1912 JUMPI PUSH2 0x1911 PUSH2 0x21B6 JUMP JUMPDEST JUMPDEST DUP2 MSTORE PUSH1 0x20 ADD SWAP1 DUP2 MSTORE PUSH1 0x20 ADD PUSH0 KECCAK256 SLOAD SWAP1 POP DUP1 SWAP2 POP POP JUMPDEST SWAP3 SWAP2 POP POP JUMP JUMPDEST PUSH0 PUSH1 0x1 PUSH0 DUP4 PUSH1 0x4 DUP2 GT ISZERO PUSH2 0x1944 JUMPI PUSH2 0x1943 PUSH2 0x21B6 JUMP JUMPDEST JUMPDEST PUSH1 0x4 DUP2 GT ISZERO PUSH2 0x1956 JUMPI PUSH2 0x1955 PUSH2 0x21B6 JUMP JUMPDEST JUMPDEST DUP2 MSTORE PUSH1 0x20 ADD SWAP1 DUP2 MSTORE PUSH1 0x20 ADD PUSH0 KECCAK256 SLOAD SWAP1 POP SWAP2 SWAP1 POP JUMP JUMPDEST PUSH2 0x1973 PUSH2 0x19EF JUMP JUMPDEST PUSH0 PUSH20 0xFFFFFFFFFFFFFFFFFFFFFFFFFFFFFFFFFFFFFFFF AND DUP2 PUSH20 0xFFFFFFFFFFFFFFFFFFFFFFFFFFFFFFFFFFFFFFFF AND SUB PUSH2 0x19E3 JUMPI PUSH0 PUSH1 0x40 MLOAD PUSH32 0x1E4FBDF700000000000000000000000000000000000000000000000000000000 DUP2 MSTORE PUSH1 0x4 ADD PUSH2 0x19DA SWAP2 SWAP1 PUSH2 0x22C1 JUMP JUMPDEST PUSH1 0x40 MLOAD DUP1 SWAP2 SUB SWAP1 REVERT JUMPDEST PUSH2 0x19EC DUP2 PUSH2 0x1C4C JUMP JUMPDEST POP JUMP JUMPDEST PUSH2 0x19F7 PUSH2 0x1D0D JUMP JUMPDEST PUSH20 0xFFFFFFFFFFFFFFFFFFFFFFFFFFFFFFFFFFFFFFFF AND PUSH2 0x1A15 PUSH2 0x11CF JUMP JUMPDEST PUSH20 0xFFFFFFFFFFFFFFFFFFFFFFFFFFFFFFFFFFFFFFFF AND EQ PUSH2 0x1A74 JUMPI PUSH2 0x1A38 PUSH2 0x1D0D JUMP JUMPDEST PUSH1 0x40 MLOAD PUSH32 0x118CDAA700000000000000000000000000000000000000000000000000000000 DUP2 MSTORE PUSH1 0x4 ADD PUSH2 0x1A6B SWAP2 SWAP1 PUSH2 0x22C1 JUMP JUMPDEST PUSH1 0x40 MLOAD DUP1 SWAP2 SUB SWAP1 REVERT JUMPDEST JUMP JUMPDEST PUSH0 DUP1 DUP3 SLT PUSH2 0x1A84 JUMPI DUP2 PUSH2 0x1A8F JUMP JUMPDEST DUP2 PUSH2 0x1A8E SWAP1 PUSH2 0x2B7D JUMP JUMPDEST JUMPDEST SWAP1 POP SWAP2 SWAP1 POP JUMP JUMPDEST PUSH0 PUSH8 0x2B992DDFA23249D6 PUSH1 0x2 MUL PUSH8 0x2B992DDFA23249D6 PUSH1 0x2 MUL DUP4 DUP2 PUSH2 0x1ABE JUMPI PUSH2 0x1ABD PUSH2 0x258E JUMP JUMPDEST JUMPDEST MOD PUSH4 0x40000000 PUSH4 0xFFFFFFFF AND MUL DUP2 PUSH2 0x1AD9 JUMPI PUSH2 0x1AD8 PUSH2 0x258E JUMP JUMPDEST JUMPDEST DIV SWAP2 POP PUSH0 PUSH1 0x1 PUSH1 0x10 PUSH1 0x1 SWAP1 SHL SUB PUSH1 0x10 PUSH1 0x8 PUSH1 0x1C SUB SUB DUP5 SWAP1 SHR AND SWAP1 POP PUSH0 PUSH1 0x1 PUSH1 0x8 PUSH1 0x1 SWAP1 SHL SUB PUSH1 0x8 PUSH1 0x1C SUB DUP6 SWAP1 SHR AND SWAP1 POP PUSH0 DUP1 PUSH4 0x10000000 PUSH4 0xFFFFFFFF AND DUP7 AND EQ SWAP1 POP PUSH0 DUP1 PUSH4 0x20000000 PUSH4 0xFFFFFFFF AND DUP8 AND EQ ISZERO SWAP1 POP DUP2 PUSH2 0x1B3E JUMPI DUP3 PUSH1 0x1 PUSH2 0x100 SUB SUB SWAP3 POP JUMPDEST PUSH0 PUSH1 0x40 MLOAD DUP1 PUSH2 0x440 ADD PUSH1 0x40 MSTORE DUP1 PUSH2 0x404 DUP2 MSTORE PUSH1 0x20 ADD PUSH2 0x2BC4 PUSH2 0x404 SWAP2 CODECOPY SWAP1 POP PUSH0 PUSH1 0x4 PUSH1 0xFF AND PUSH1 0x2 DUP7 ADD MUL SWAP1 POP PUSH0 DUP2 DUP4 ADD MLOAD SWAP1 POP PUSH0 PUSH1 0x1 PUSH1 0x4 PUSH1 0x8 MUL PUSH1 0xFF AND PUSH1 0x1 SWAP1 SHL SUB PUSH1 0x4 PUSH1 0x8 MUL PUSH1 0xFF AND DUP4 SWAP1 SHR AND SWAP1 POP PUSH0 PUSH1 0x1 PUSH1 0x4 PUSH1 0x8 MUL PUSH1 0xFF AND PUSH1 0x1 SWAP1 SHL SUB DUP4 AND SWAP1 POP PUSH0 PUSH1 0x10 DUP11 DUP5 DUP5 SUB MUL SWAP1 SHR SWAP1 POP PUSH0 DUP9 PUSH2 0x1BBD JUMPI DUP2 DUP4 SUB PUSH2 0x1BC1 JUMP JUMPDEST DUP2 DUP5 ADD JUMPDEST SWAP1 POP DUP8 ISZERO PUSH2 0x1BEF JUMPI PUSH32 0xFFFFFFFFFFFFFFFFFFFFFFFFFFFFFFFFFFFFFFFFFFFFFFFFFFFFFFFFFFFFFFFF DUP2 MUL SWAP1 POP JUMPDEST PUSH4 0x7FFFFFFF PUSH8 0xDE0B6B3A7640000 DUP3 MUL DUP2 PUSH2 0x1C0D JUMPI PUSH2 0x1C0C PUSH2 0x258E JUMP JUMPDEST JUMPDEST SDIV SWAP12 POP POP POP POP POP POP POP POP POP POP POP POP SWAP2 SWAP1 POP JUMP JUMPDEST PUSH0 PUSH2 0x1C45 PUSH1 0x2 PUSH8 0x2B992DDFA23249D6 DUP2 PUSH2 0x1C3D JUMPI PUSH2 0x1C3C PUSH2 0x258E JUMP JUMPDEST JUMPDEST DIV DUP4 ADD PUSH2 0x1A96 JUMP JUMPDEST SWAP1 POP SWAP2 SWAP1 POP JUMP JUMPDEST PUSH0 DUP1 PUSH0 SWAP1 SLOAD SWAP1 PUSH2 0x100 EXP SWAP1 DIV PUSH20 0xFFFFFFFFFFFFFFFFFFFFFFFFFFFFFFFFFFFFFFFF AND SWAP1 POP DUP2 PUSH0 DUP1 PUSH2 0x100 EXP DUP2 SLOAD DUP2 PUSH20 0xFFFFFFFFFFFFFFFFFFFFFFFFFFFFFFFFFFFFFFFF MUL NOT AND SWAP1 DUP4 PUSH20 0xFFFFFFFFFFFFFFFFFFFFFFFFFFFFFFFFFFFFFFFF AND MUL OR SWAP1 SSTORE POP DUP2 PUSH20 0xFFFFFFFFFFFFFFFFFFFFFFFFFFFFFFFFFFFFFFFF AND DUP2 PUSH20 0xFFFFFFFFFFFFFFFFFFFFFFFFFFFFFFFFFFFFFFFF AND PUSH32 0x8BE0079C531659141344CD1FD0A4F28419497F9722A3DAAFE3B4186F6B6457E0 PUSH1 0x40 MLOAD PUSH1 0x40 MLOAD DUP1 SWAP2 SUB SWAP1 LOG3 POP POP JUMP JUMPDEST PUSH0 CALLER SWAP1 POP SWAP1 JUMP JUMPDEST PUSH1 0x40 MLOAD DUP1 PUSH1 0xE0 ADD PUSH1 0x40 MSTORE DUP1 PUSH0 PUSH20 0xFFFFFFFFFFFFFFFFFFFFFFFFFFFFFFFFFFFFFFFF AND DUP2 MSTORE PUSH1 0x20 ADD PUSH0 PUSH1 0x4 DUP2 GT ISZERO PUSH2 0x1D4E JUMPI PUSH2 0x1D4D PUSH2 0x21B6 JUMP JUMPDEST JUMPDEST DUP2 MSTORE PUSH1 0x20 ADD PUSH0 DUP2 MSTORE PUSH1 0x20 ADD PUSH0 DUP2 MSTORE PUSH1 0x20 ADD PUSH0 DUP2 MSTORE PUSH1 0x20 ADD PUSH0 DUP2 MSTORE PUSH1 0x20 ADD PUSH0 DUP2 MSTORE POP SWAP1 JUMP JUMPDEST PUSH0 PUSH1 0x40 MLOAD SWAP1 POP SWAP1 JUMP JUMPDEST PUSH0 DUP1 REVERT JUMPDEST PUSH0 DUP1 REVERT JUMPDEST PUSH1 0x5 DUP2 LT PUSH2 0x1D8F JUMPI PUSH0 DUP1 REVERT JUMPDEST POP JUMP JUMPDEST PUSH0 DUP2 CALLDATALOAD SWAP1 POP PUSH2 0x1DA0 DUP2 PUSH2 0x1D83 JUMP JUMPDEST SWAP3 SWAP2 POP POP JUMP JUMPDEST PUSH0 PUSH1 0x20 DUP3 DUP5 SUB SLT ISZERO PUSH2 0x1DBB JUMPI PUSH2 0x1DBA PUSH2 0x1D7B JUMP JUMPDEST JUMPDEST PUSH0 PUSH2 0x1DC8 DUP5 DUP3 DUP6 ADD PUSH2 0x1D92 JUMP JUMPDEST SWAP2 POP POP SWAP3 SWAP2 POP POP JUMP JUMPDEST PUSH0 DUP2 SWAP1 POP SWAP2 SWAP1 POP JUMP JUMPDEST PUSH2 0x1DE3 DUP2 PUSH2 0x1DD1 JUMP JUMPDEST DUP3 MSTORE POP POP JUMP JUMPDEST PUSH0 PUSH1 0x20 DUP3 ADD SWAP1 POP PUSH2 0x1DFC PUSH0 DUP4 ADD DUP5 PUSH2 0x1DDA JUMP JUMPDEST SWAP3 SWAP2 POP POP JUMP JUMPDEST PUSH2 0x1E0B DUP2 PUSH2 0x1DD1 JUMP JUMPDEST DUP2 EQ PUSH2 0x1E15 JUMPI PUSH0 DUP1 REVERT JUMPDEST POP JUMP JUMPDEST PUSH0 DUP2 CALLDATALOAD SWAP1 POP PUSH2 0x1E26 DUP2 PUSH2 0x1E02 JUMP JUMPDEST SWAP3 SWAP2 POP POP JUMP JUMPDEST PUSH0 DUP1 PUSH1 0x40 DUP4 DUP6 SUB SLT ISZERO PUSH2 0x1E42 JUMPI PUSH2 0x1E41 PUSH2 0x1D7B JUMP JUMPDEST JUMPDEST PUSH0 PUSH2 0x1E4F DUP6 DUP3 DUP7 ADD PUSH2 0x1D92 JUMP JUMPDEST SWAP3 POP POP PUSH1 0x20 PUSH2 0x1E60 DUP6 DUP3 DUP7 ADD PUSH2 0x1E18 JUMP JUMPDEST SWAP2 POP POP SWAP3 POP SWAP3 SWAP1 POP JUMP JUMPDEST PUSH0 DUP1 PUSH0 DUP1 PUSH1 0x80 DUP6 DUP8 SUB SLT ISZERO PUSH2 0x1E82 JUMPI PUSH2 0x1E81 PUSH2 0x1D7B JUMP JUMPDEST JUMPDEST PUSH0 PUSH2 0x1E8F DUP8 DUP3 DUP9 ADD PUSH2 0x1E18 JUMP JUMPDEST SWAP5 POP POP PUSH1 0x20 PUSH2 0x1EA0 DUP8 DUP3 DUP9 ADD PUSH2 0x1E18 JUMP JUMPDEST SWAP4 POP POP PUSH1 0x40 PUSH2 0x1EB1 DUP8 DUP3 DUP9 ADD PUSH2 0x1E18 JUMP JUMPDEST SWAP3 POP POP PUSH1 0x60 PUSH2 0x1EC2 DUP8 DUP3 DUP9 ADD PUSH2 0x1E18 JUMP JUMPDEST SWAP2 POP POP SWAP3 SWAP6 SWAP2 SWAP5 POP SWAP3 POP JUMP JUMPDEST PUSH0 PUSH20 0xFFFFFFFFFFFFFFFFFFFFFFFFFFFFFFFFFFFFFFFF DUP3 AND SWAP1 POP SWAP2 SWAP1 POP JUMP JUMPDEST PUSH0 PUSH2 0x1EF7 DUP3 PUSH2 0x1ECE JUMP JUMPDEST SWAP1 POP SWAP2 SWAP1 POP JUMP JUMPDEST PUSH2 0x1F07 DUP2 PUSH2 0x1EED JUMP JUMPDEST DUP2 EQ PUSH2 0x1F11 JUMPI PUSH0 DUP1 REVERT JUMPDEST POP JUMP JUMPDEST PUSH0 DUP2 CALLDATALOAD SWAP1 POP PUSH2 0x1F22 DUP2 PUSH2 0x1EFE JUMP JUMPDEST SWAP3 SWAP2 POP POP JUMP JUMPDEST PUSH0 PUSH1 0x20 DUP3 DUP5 SUB SLT ISZERO PUSH2 0x1F3D JUMPI PUSH2 0x1F3C PUSH2 0x1D7B JUMP JUMPDEST JUMPDEST PUSH0 PUSH2 0x1F4A DUP5 DUP3 DUP6 ADD PUSH2 0x1F14 JUMP JUMPDEST SWAP2 POP POP SWAP3 SWAP2 POP POP JUMP JUMPDEST PUSH0 DUP1 PUSH0 DUP1 PUSH0 PUSH1 0xA0 DUP7 DUP9 SUB SLT ISZERO PUSH2 0x1F6C JUMPI PUSH2 0x1F6B PUSH2 0x1D7B JUMP JUMPDEST JUMPDEST PUSH0 PUSH2 0x1F79 DUP9 DUP3 DUP10 ADD PUSH2 0x1F14 JUMP JUMPDEST SWAP6 POP POP PUSH1 0x20 PUSH2 0x1F8A DUP9 DUP3 DUP10 ADD PUSH2 0x1F14 JUMP JUMPDEST SWAP5 POP POP PUSH1 0x40 PUSH2 0x1F9B DUP9 DUP3 DUP10 ADD PUSH2 0x1D92 JUMP JUMPDEST SWAP4 POP POP PUSH1 0x60 PUSH2 0x1FAC DUP9 DUP3 DUP10 ADD PUSH2 0x1E18 JUMP JUMPDEST SWAP3 POP POP PUSH1 0x80 PUSH2 0x1FBD DUP9 DUP3 DUP10 ADD PUSH2 0x1E18 JUMP JUMPDEST SWAP2 POP POP SWAP3 SWAP6 POP SWAP3 SWAP6 SWAP1 SWAP4 POP JUMP JUMPDEST PUSH0 DUP1 REVERT JUMPDEST PUSH0 PUSH1 0x1F NOT PUSH1 0x1F DUP4 ADD AND SWAP1 POP SWAP2 SWAP1 POP JUMP JUMPDEST PUSH32 0x4E487B7100000000000000000000000000000000000000000000000000000000 PUSH0 MSTORE PUSH1 0x41 PUSH1 0x4 MSTORE PUSH1 0x24 PUSH0 REVERT JUMPDEST PUSH2 0x2014 DUP3 PUSH2 0x1FCE JUMP JUMPDEST DUP2 ADD DUP2 DUP2 LT PUSH8 0xFFFFFFFFFFFFFFFF DUP3 GT OR ISZERO PUSH2 0x2033 JUMPI PUSH2 0x2032 PUSH2 0x1FDE JUMP JUMPDEST JUMPDEST DUP1 PUSH1 0x40 MSTORE POP POP POP JUMP JUMPDEST PUSH0 PUSH2 0x2045 PUSH2 0x1D72 JUMP JUMPDEST SWAP1 POP PUSH2 0x2051 DUP3 DUP3 PUSH2 0x200B JUMP JUMPDEST SWAP2 SWAP1 POP JUMP JUMPDEST PUSH0 PUSH8 0xFFFFFFFFFFFFFFFF DUP3 GT ISZERO PUSH2 0x2070 JUMPI PUSH2 0x206F PUSH2 0x1FDE JUMP JUMPDEST JUMPDEST PUSH1 0x20 DUP3 MUL SWAP1 POP PUSH1 0x20 DUP2 ADD SWAP1 POP SWAP2 SWAP1 POP JUMP JUMPDEST PUSH0 DUP1 REVERT JUMPDEST PUSH0 DUP2 SWAP1 POP SWAP2 SWAP1 POP JUMP JUMPDEST PUSH2 0x2097 DUP2 PUSH2 0x2085 JUMP JUMPDEST DUP2 EQ PUSH2 0x20A1 JUMPI PUSH0 DUP1 REVERT JUMPDEST POP JUMP JUMPDEST PUSH0 DUP2 CALLDATALOAD SWAP1 POP PUSH2 0x20B2 DUP2 PUSH2 0x208E JUMP JUMPDEST SWAP3 SWAP2 POP POP JUMP JUMPDEST PUSH0 PUSH2 0x20CA PUSH2 0x20C5 DUP5 PUSH2 0x2056 JUMP JUMPDEST PUSH2 0x203C JUMP JUMPDEST SWAP1 POP DUP1 DUP4 DUP3 MSTORE PUSH1 0x20 DUP3 ADD SWAP1 POP PUSH1 0x20 DUP5 MUL DUP4 ADD DUP6 DUP2 GT ISZERO PUSH2 0x20ED JUMPI PUSH2 0x20EC PUSH2 0x2081 JUMP JUMPDEST JUMPDEST DUP4 JUMPDEST DUP2 DUP2 LT ISZERO PUSH2 0x2116 JUMPI DUP1 PUSH2 0x2102 DUP9 DUP3 PUSH2 0x20A4 JUMP JUMPDEST DUP5 MSTORE PUSH1 0x20 DUP5 ADD SWAP4 POP POP PUSH1 0x20 DUP2 ADD SWAP1 POP PUSH2 0x20EF JUMP JUMPDEST POP POP POP SWAP4 SWAP3 POP POP POP JUMP JUMPDEST PUSH0 DUP3 PUSH1 0x1F DUP4 ADD SLT PUSH2 0x2134 JUMPI PUSH2 0x2133 PUSH2 0x1FCA JUMP JUMPDEST JUMPDEST DUP2 CALLDATALOAD PUSH2 0x2144 DUP5 DUP3 PUSH1 0x20 DUP7 ADD PUSH2 0x20B8 JUMP JUMPDEST SWAP2 POP POP SWAP3 SWAP2 POP POP JUMP JUMPDEST PUSH0 DUP1 PUSH1 0x40 DUP4 DUP6 SUB SLT ISZERO PUSH2 0x2163 JUMPI PUSH2 0x2162 PUSH2 0x1D7B JUMP JUMPDEST JUMPDEST PUSH0 PUSH2 0x2170 DUP6 DUP3 DUP7 ADD PUSH2 0x1E18 JUMP JUMPDEST SWAP3 POP POP PUSH1 0x20 DUP4 ADD CALLDATALOAD PUSH8 0xFFFFFFFFFFFFFFFF DUP2 GT ISZERO PUSH2 0x2191 JUMPI PUSH2 0x2190 PUSH2 0x1D7F JUMP JUMPDEST JUMPDEST PUSH2 0x219D DUP6 DUP3 DUP7 ADD PUSH2 0x2120 JUMP JUMPDEST SWAP2 POP POP SWAP3 POP SWAP3 SWAP1 POP JUMP JUMPDEST PUSH2 0x21B0 DUP2 PUSH2 0x1EED JUMP JUMPDEST DUP3 MSTORE POP POP JUMP JUMPDEST PUSH32 0x4E487B7100000000000000000000000000000000000000000000000000000000 PUSH0 MSTORE PUSH1 0x21 PUSH1 0x4 MSTORE PUSH1 0x24 PUSH0 REVERT JUMPDEST PUSH1 0x5 DUP2 LT PUSH2 0x21F4 JUMPI PUSH2 0x21F3 PUSH2 0x21B6 JUMP JUMPDEST JUMPDEST POP JUMP JUMPDEST PUSH0 DUP2 SWAP1 POP PUSH2 0x2204 DUP3 PUSH2 0x21E3 JUMP JUMPDEST SWAP2 SWAP1 POP JUMP JUMPDEST PUSH0 PUSH2 0x2213 DUP3 PUSH2 0x21F7 JUMP JUMPDEST SWAP1 POP SWAP2 SWAP1 POP JUMP JUMPDEST PUSH2 0x2223 DUP2 PUSH2 0x2209 JUMP JUMPDEST DUP3 MSTORE POP POP JUMP JUMPDEST PUSH0 PUSH1 0xE0 DUP3 ADD SWAP1 POP PUSH2 0x223C PUSH0 DUP4 ADD DUP11 PUSH2 0x21A7 JUMP JUMPDEST PUSH2 0x2249 PUSH1 0x20 DUP4 ADD DUP10 PUSH2 0x221A JUMP JUMPDEST PUSH2 0x2256 PUSH1 0x40 DUP4 ADD DUP9 PUSH2 0x1DDA JUMP JUMPDEST PUSH2 0x2263 PUSH1 0x60 DUP4 ADD DUP8 PUSH2 0x1DDA JUMP JUMPDEST PUSH2 0x2270 PUSH1 0x80 DUP4 ADD DUP7 PUSH2 0x1DDA JUMP JUMPDEST PUSH2 0x227D PUSH1 0xA0 DUP4 ADD DUP6 PUSH2 0x1DDA JUMP JUMPDEST PUSH2 0x228A PUSH1 0xC0 DUP4 ADD DUP5 PUSH2 0x1DDA JUMP JUMPDEST SWAP9 SWAP8 POP POP POP POP POP POP POP POP JUMP JUMPDEST PUSH0 PUSH1 0x20 DUP3 DUP5 SUB SLT ISZERO PUSH2 0x22AB JUMPI PUSH2 0x22AA PUSH2 0x1D7B JUMP JUMPDEST JUMPDEST PUSH0 PUSH2 0x22B8 DUP5 DUP3 DUP6 ADD PUSH2 0x1E18 JUMP JUMPDEST SWAP2 POP POP SWAP3 SWAP2 POP POP JUMP JUMPDEST PUSH0 PUSH1 0x20 DUP3 ADD SWAP1 POP PUSH2 0x22D4 PUSH0 DUP4 ADD DUP5 PUSH2 0x21A7 JUMP JUMPDEST SWAP3 SWAP2 POP POP JUMP JUMPDEST PUSH0 DUP1 PUSH1 0x40 DUP4 DUP6 SUB SLT ISZERO PUSH2 0x22F0 JUMPI PUSH2 0x22EF PUSH2 0x1D7B JUMP JUMPDEST JUMPDEST PUSH0 PUSH2 0x22FD DUP6 DUP3 DUP7 ADD PUSH2 0x1E18 JUMP JUMPDEST SWAP3 POP POP PUSH1 0x20 PUSH2 0x230E DUP6 DUP3 DUP7 ADD PUSH2 0x1E18 JUMP JUMPDEST SWAP2 POP POP SWAP3 POP SWAP3 SWAP1 POP JUMP JUMPDEST PUSH0 DUP2 MLOAD SWAP1 POP SWAP2 SWAP1 POP JUMP JUMPDEST PUSH0 DUP3 DUP3 MSTORE PUSH1 0x20 DUP3 ADD SWAP1 POP SWAP3 SWAP2 POP POP JUMP JUMPDEST PUSH0 DUP2 SWAP1 POP PUSH1 0x20 DUP3 ADD SWAP1 POP SWAP2 SWAP1 POP JUMP JUMPDEST PUSH2 0x234A DUP2 PUSH2 0x1EED JUMP JUMPDEST DUP3 MSTORE POP POP JUMP JUMPDEST PUSH2 0x2359 DUP2 PUSH2 0x2209 JUMP JUMPDEST DUP3 MSTORE POP POP JUMP JUMPDEST PUSH2 0x2368 DUP2 PUSH2 0x1DD1 JUMP JUMPDEST DUP3 MSTORE POP POP JUMP JUMPDEST PUSH1 0xE0 DUP3 ADD PUSH0 DUP3 ADD MLOAD PUSH2 0x2382 PUSH0 DUP6 ADD DUP3 PUSH2 0x2341 JUMP JUMPDEST POP PUSH1 0x20 DUP3 ADD MLOAD PUSH2 0x2395 PUSH1 0x20 DUP6 ADD DUP3 PUSH2 0x2350 JUMP JUMPDEST POP PUSH1 0x40 DUP3 ADD MLOAD PUSH2 0x23A8 PUSH1 0x40 DUP6 ADD DUP3 PUSH2 0x235F JUMP JUMPDEST POP PUSH1 0x60 DUP3 ADD MLOAD PUSH2 0x23BB PUSH1 0x60 DUP6 ADD DUP3 PUSH2 0x235F JUMP JUMPDEST POP PUSH1 0x80 DUP3 ADD MLOAD PUSH2 0x23CE PUSH1 0x80 DUP6 ADD DUP3 PUSH2 0x235F JUMP JUMPDEST POP PUSH1 0xA0 DUP3 ADD MLOAD PUSH2 0x23E1 PUSH1 0xA0 DUP6 ADD DUP3 PUSH2 0x235F JUMP JUMPDEST POP PUSH1 0xC0 DUP3 ADD MLOAD PUSH2 0x23F4 PUSH1 0xC0 DUP6 ADD DUP3 PUSH2 0x235F JUMP JUMPDEST POP POP POP POP JUMP JUMPDEST PUSH0 PUSH2 0x2405 DUP4 DUP4 PUSH2 0x236E JUMP JUMPDEST PUSH1 0xE0 DUP4 ADD SWAP1 POP SWAP3 SWAP2 POP POP JUMP JUMPDEST PUSH0 PUSH1 0x20 DUP3 ADD SWAP1 POP SWAP2 SWAP1 POP JUMP JUMPDEST PUSH0 PUSH2 0x2427 DUP3 PUSH2 0x2318 JUMP JUMPDEST PUSH2 0x2431 DUP2 DUP6 PUSH2 0x2322 JUMP JUMPDEST SWAP4 POP PUSH2 0x243C DUP4 PUSH2 0x2332 JUMP JUMPDEST DUP1 PUSH0 JUMPDEST DUP4 DUP2 LT ISZERO PUSH2 0x246C JUMPI DUP2 MLOAD PUSH2 0x2453 DUP9 DUP3 PUSH2 0x23FA JUMP JUMPDEST SWAP8 POP PUSH2 0x245E DUP4 PUSH2 0x2411 JUMP JUMPDEST SWAP3 POP POP PUSH1 0x1 DUP2 ADD SWAP1 POP PUSH2 0x243F JUMP JUMPDEST POP DUP6 SWAP4 POP POP POP POP SWAP3 SWAP2 POP POP JUMP JUMPDEST PUSH0 PUSH1 0x20 DUP3 ADD SWAP1 POP DUP2 DUP2 SUB PUSH0 DUP4 ADD MSTORE PUSH2 0x2491 DUP2 DUP5 PUSH2 0x241D JUMP JUMPDEST SWAP1 POP SWAP3 SWAP2 POP POP JUMP JUMPDEST PUSH0 DUP1 PUSH1 0x40 DUP4 DUP6 SUB SLT ISZERO PUSH2 0x24AF JUMPI PUSH2 0x24AE PUSH2 0x1D7B JUMP JUMPDEST JUMPDEST PUSH0 PUSH2 0x24BC DUP6 DUP3 DUP7 ADD PUSH2 0x1F14 JUMP JUMPDEST SWAP3 POP POP PUSH1 0x20 PUSH2 0x24CD DUP6 DUP3 DUP7 ADD PUSH2 0x1E18 JUMP JUMPDEST SWAP2 POP POP SWAP3 POP SWAP3 SWAP1 POP JUMP JUMPDEST PUSH0 DUP2 SWAP1 POP SWAP2 SWAP1 POP JUMP JUMPDEST PUSH32 0x4E487B7100000000000000000000000000000000000000000000000000000000 PUSH0 MSTORE PUSH1 0x11 PUSH1 0x4 MSTORE PUSH1 0x24 PUSH0 REVERT JUMPDEST PUSH0 PUSH2 0x2517 DUP3 PUSH2 0x24D7 JUMP JUMPDEST SWAP2 POP PUSH2 0x2522 DUP4 PUSH2 0x24D7 JUMP JUMPDEST SWAP3 POP DUP3 DUP3 SUB SWAP1 POP DUP2 DUP2 SLT PUSH0 DUP5 SLT AND DUP3 DUP3 SGT PUSH0 DUP6 SLT ISZERO AND OR ISZERO PUSH2 0x2547 JUMPI PUSH2 0x2546 PUSH2 0x24E0 JUMP JUMPDEST JUMPDEST SWAP3 SWAP2 POP POP JUMP JUMPDEST PUSH0 PUSH2 0x2557 DUP3 PUSH2 0x1DD1 JUMP JUMPDEST SWAP2 POP PUSH2 0x2562 DUP4 PUSH2 0x1DD1 JUMP JUMPDEST SWAP3 POP DUP3 DUP3 MUL PUSH2 0x2570 DUP2 PUSH2 0x1DD1 JUMP JUMPDEST SWAP2 POP DUP3 DUP3 DIV DUP5 EQ DUP4 ISZERO OR PUSH2 0x2587 JUMPI PUSH2 0x2586 PUSH2 0x24E0 JUMP JUMPDEST JUMPDEST POP SWAP3 SWAP2 POP POP JUMP JUMPDEST PUSH32 0x4E487B7100000000000000000000000000000000000000000000000000000000 PUSH0 MSTORE PUSH1 0x12 PUSH1 0x4 MSTORE PUSH1 0x24 PUSH0 REVERT JUMPDEST PUSH0 PUSH2 0x25C5 DUP3 PUSH2 0x1DD1 JUMP JUMPDEST SWAP2 POP PUSH2 0x25D0 DUP4 PUSH2 0x1DD1 JUMP JUMPDEST SWAP3 POP DUP3 PUSH2 0x25E0 JUMPI PUSH2 0x25DF PUSH2 0x258E JUMP JUMPDEST JUMPDEST DUP3 DUP3 DIV SWAP1 POP SWAP3 SWAP2 POP POP JUMP JUMPDEST PUSH0 PUSH2 0x25F5 DUP3 PUSH2 0x24D7 JUMP JUMPDEST SWAP2 POP PUSH2 0x2600 DUP4 PUSH2 0x24D7 JUMP JUMPDEST SWAP3 POP DUP3 DUP3 MUL PUSH2 0x260E DUP2 PUSH2 0x24D7 JUMP JUMPDEST SWAP2 POP PUSH32 0x8000000000000000000000000000000000000000000000000000000000000000 DUP5 EQ PUSH0 DUP5 SLT AND ISZERO PUSH2 0x2645 JUMPI PUSH2 0x2644 PUSH2 0x24E0 JUMP JUMPDEST JUMPDEST DUP3 DUP3 SDIV DUP5 EQ DUP4 ISZERO OR PUSH2 0x265A JUMPI PUSH2 0x2659 PUSH2 0x24E0 JUMP JUMPDEST JUMPDEST POP SWAP3 SWAP2 POP POP JUMP JUMPDEST PUSH0 PUSH2 0x266B DUP3 PUSH2 0x24D7 JUMP JUMPDEST SWAP2 POP PUSH2 0x2676 DUP4 PUSH2 0x24D7 JUMP JUMPDEST SWAP3 POP DUP3 DUP3 ADD SWAP1 POP DUP3 DUP2 SLT ISZERO PUSH0 DUP4 SLT AND DUP4 DUP3 SLT PUSH0 DUP5 SLT ISZERO AND OR ISZERO PUSH2 0x269C JUMPI PUSH2 0x269B PUSH2 0x24E0 JUMP JUMPDEST JUMPDEST SWAP3 SWAP2 POP POP JUMP JUMPDEST PUSH0 PUSH2 0x26AC DUP3 PUSH2 0x24D7 JUMP JUMPDEST SWAP2 POP PUSH2 0x26B7 DUP4 PUSH2 0x24D7 JUMP JUMPDEST SWAP3 POP DUP3 PUSH2 0x26C7 JUMPI PUSH2 0x26C6 PUSH2 0x258E JUMP JUMPDEST JUMPDEST PUSH1 0x1 PUSH0 SUB DUP4 EQ PUSH32 0x8000000000000000000000000000000000000000000000000000000000000000 DUP4 EQ AND ISZERO PUSH2 0x26FF JUMPI PUSH2 0x26FE PUSH2 0x24E0 JUMP JUMPDEST JUMPDEST DUP3 DUP3 SDIV SWAP1 POP SWAP3 SWAP2 POP POP JUMP JUMPDEST PUSH0 DUP3 DUP3 MSTORE PUSH1 0x20 DUP3 ADD SWAP1 POP SWAP3 SWAP2 POP POP JUMP JUMPDEST PUSH32 0x536D61727420636F6E747261637473206E6F7420616C6C6F7765640000000000 PUSH0 DUP3 ADD MSTORE POP JUMP JUMPDEST PUSH0 PUSH2 0x274E PUSH1 0x1B DUP4 PUSH2 0x270A JUMP JUMPDEST SWAP2 POP PUSH2 0x2759 DUP3 PUSH2 0x271A JUMP JUMPDEST PUSH1 0x20 DUP3 ADD SWAP1 POP SWAP2 SWAP1 POP JUMP JUMPDEST PUSH0 PUSH1 0x20 DUP3 ADD SWAP1 POP DUP2 DUP2 SUB PUSH0 DUP4 ADD MSTORE PUSH2 0x277B DUP2 PUSH2 0x2742 JUMP JUMPDEST SWAP1 POP SWAP2 SWAP1 POP JUMP JUMPDEST PUSH32 0x53686F77726F6F6D206578706972656400000000000000000000000000000000 PUSH0 DUP3 ADD MSTORE POP JUMP JUMPDEST PUSH0 PUSH2 0x27B6 PUSH1 0x10 DUP4 PUSH2 0x270A JUMP JUMPDEST SWAP2 POP PUSH2 0x27C1 DUP3 PUSH2 0x2782 JUMP JUMPDEST PUSH1 0x20 DUP3 ADD SWAP1 POP SWAP2 SWAP1 POP JUMP JUMPDEST PUSH0 PUSH1 0x20 DUP3 ADD SWAP1 POP DUP2 DUP2 SUB PUSH0 DUP4 ADD MSTORE PUSH2 0x27E3 DUP2 PUSH2 0x27AA JUMP JUMPDEST SWAP1 POP SWAP2 SWAP1 POP JUMP JUMPDEST PUSH32 0x53686F77726F6F6D20616C726561647920657869737473000000000000000000 PUSH0 DUP3 ADD MSTORE POP JUMP JUMPDEST PUSH0 PUSH2 0x281E PUSH1 0x17 DUP4 PUSH2 0x270A JUMP JUMPDEST SWAP2 POP PUSH2 0x2829 DUP3 PUSH2 0x27EA JUMP JUMPDEST PUSH1 0x20 DUP3 ADD SWAP1 POP SWAP2 SWAP1 POP JUMP JUMPDEST PUSH0 PUSH1 0x20 DUP3 ADD SWAP1 POP DUP2 DUP2 SUB PUSH0 DUP4 ADD MSTORE PUSH2 0x284B DUP2 PUSH2 0x2812 JUMP JUMPDEST SWAP1 POP SWAP2 SWAP1 POP JUMP JUMPDEST PUSH0 PUSH2 0x285C DUP3 PUSH2 0x1DD1 JUMP JUMPDEST SWAP2 POP PUSH2 0x2867 DUP4 PUSH2 0x1DD1 JUMP JUMPDEST SWAP3 POP DUP3 DUP3 ADD SWAP1 POP DUP1 DUP3 GT ISZERO PUSH2 0x287F JUMPI PUSH2 0x287E PUSH2 0x24E0 JUMP JUMPDEST JUMPDEST SWAP3 SWAP2 POP POP JUMP JUMPDEST PUSH32 0x496E73756666696369656E742062616C616E6365000000000000000000000000 PUSH0 DUP3 ADD MSTORE POP JUMP JUMPDEST PUSH0 PUSH2 0x28B9 PUSH1 0x14 DUP4 PUSH2 0x270A JUMP JUMPDEST SWAP2 POP PUSH2 0x28C4 DUP3 PUSH2 0x2885 JUMP JUMPDEST PUSH1 0x20 DUP3 ADD SWAP1 POP SWAP2 SWAP1 POP JUMP JUMPDEST PUSH0 PUSH1 0x20 DUP3 ADD SWAP1 POP DUP2 DUP2 SUB PUSH0 DUP4 ADD MSTORE PUSH2 0x28E6 DUP2 PUSH2 0x28AD JUMP JUMPDEST SWAP1 POP SWAP2 SWAP1 POP JUMP JUMPDEST PUSH0 DUP2 MLOAD SWAP1 POP SWAP2 SWAP1 POP JUMP JUMPDEST PUSH0 DUP3 DUP3 MSTORE PUSH1 0x20 DUP3 ADD SWAP1 POP SWAP3 SWAP2 POP POP JUMP JUMPDEST PUSH0 DUP2 SWAP1 POP PUSH1 0x20 DUP3 ADD SWAP1 POP SWAP2 SWAP1 POP JUMP JUMPDEST PUSH2 0x291F DUP2 PUSH2 0x2085 JUMP JUMPDEST DUP3 MSTORE POP POP JUMP JUMPDEST PUSH0 PUSH2 0x2930 DUP4 DUP4 PUSH2 0x2916 JUMP JUMPDEST PUSH1 0x20 DUP4 ADD SWAP1 POP SWAP3 SWAP2 POP POP JUMP JUMPDEST PUSH0 PUSH1 0x20 DUP3 ADD SWAP1 POP SWAP2 SWAP1 POP JUMP JUMPDEST PUSH0 PUSH2 0x2952 DUP3 PUSH2 0x28ED JUMP JUMPDEST PUSH2 0x295C DUP2 DUP6 PUSH2 0x28F7 JUMP JUMPDEST SWAP4 POP PUSH2 0x2967 DUP4 PUSH2 0x2907 JUMP JUMPDEST DUP1 PUSH0 JUMPDEST DUP4 DUP2 LT ISZERO PUSH2 0x2997 JUMPI DUP2 MLOAD PUSH2 0x297E DUP9 DUP3 PUSH2 0x2925 JUMP JUMPDEST SWAP8 POP PUSH2 0x2989 DUP4 PUSH2 0x293C JUMP JUMPDEST SWAP3 POP POP PUSH1 0x1 DUP2 ADD SWAP1 POP PUSH2 0x296A JUMP JUMPDEST POP DUP6 SWAP4 POP POP POP POP SWAP3 SWAP2 POP POP JUMP JUMPDEST PUSH0 PUSH1 0x60 DUP3 ADD SWAP1 POP PUSH2 0x29B7 PUSH0 DUP4 ADD DUP7 PUSH2 0x1DDA JUMP JUMPDEST PUSH2 0x29C4 PUSH1 0x20 DUP4 ADD DUP6 PUSH2 0x21A7 JUMP JUMPDEST DUP2 DUP2 SUB PUSH1 0x40 DUP4 ADD MSTORE PUSH2 0x29D6 DUP2 DUP5 PUSH2 0x2948 JUMP JUMPDEST SWAP1 POP SWAP5 SWAP4 POP POP POP POP JUMP JUMPDEST PUSH32 0x4E487B7100000000000000000000000000000000000000000000000000000000 PUSH0 MSTORE PUSH1 0x32 PUSH1 0x4 MSTORE PUSH1 0x24 PUSH0 REVERT JUMPDEST PUSH32 0x7061676553697A65206D757374206265206265747765656E203120616E642035 PUSH0 DUP3 ADD MSTORE PUSH32 0x3000000000000000000000000000000000000000000000000000000000000000 PUSH1 0x20 DUP3 ADD MSTORE POP JUMP JUMPDEST PUSH0 PUSH2 0x2A67 PUSH1 0x21 DUP4 PUSH2 0x270A JUMP JUMPDEST SWAP2 POP PUSH2 0x2A72 DUP3 PUSH2 0x2A0D JUMP JUMPDEST PUSH1 0x40 DUP3 ADD SWAP1 POP SWAP2 SWAP1 POP JUMP JUMPDEST PUSH0 PUSH1 0x20 DUP3 ADD SWAP1 POP DUP2 DUP2 SUB PUSH0 DUP4 ADD MSTORE PUSH2 0x2A94 DUP2 PUSH2 0x2A5B JUMP JUMPDEST SWAP1 POP SWAP2 SWAP1 POP JUMP JUMPDEST PUSH0 PUSH2 0x2AA5 DUP3 PUSH2 0x1DD1 JUMP JUMPDEST SWAP2 POP PUSH2 0x2AB0 DUP4 PUSH2 0x1DD1 JUMP JUMPDEST SWAP3 POP DUP3 DUP3 SUB SWAP1 POP DUP2 DUP2 GT ISZERO PUSH2 0x2AC8 JUMPI PUSH2 0x2AC7 PUSH2 0x24E0 JUMP JUMPDEST JUMPDEST SWAP3 SWAP2 POP POP JUMP JUMPDEST PUSH0 PUSH2 0x2AD8 DUP3 PUSH2 0x1DD1 JUMP JUMPDEST SWAP2 POP PUSH32 0xFFFFFFFFFFFFFFFFFFFFFFFFFFFFFFFFFFFFFFFFFFFFFFFFFFFFFFFFFFFFFFFF DUP3 SUB PUSH2 0x2B0A JUMPI PUSH2 0x2B09 PUSH2 0x24E0 JUMP JUMPDEST JUMPDEST PUSH1 0x1 DUP3 ADD SWAP1 POP SWAP2 SWAP1 POP JUMP JUMPDEST PUSH32 0x4E6F7420617574686F72697A6564000000000000000000000000000000000000 PUSH0 DUP3 ADD MSTORE POP JUMP JUMPDEST PUSH0 PUSH2 0x2B49 PUSH1 0xE DUP4 PUSH2 0x270A JUMP JUMPDEST SWAP2 POP PUSH2 0x2B54 DUP3 PUSH2 0x2B15 JUMP JUMPDEST PUSH1 0x20 DUP3 ADD SWAP1 POP SWAP2 SWAP1 POP JUMP JUMPDEST PUSH0 PUSH1 0x20 DUP3 ADD SWAP1 POP DUP2 DUP2 SUB PUSH0 DUP4 ADD MSTORE PUSH2 0x2B76 DUP2 PUSH2 0x2B3D JUMP JUMPDEST SWAP1 POP SWAP2 SWAP1 POP JUMP JUMPDEST PUSH0 PUSH2 0x2B87 DUP3 PUSH2 0x24D7 JUMP JUMPDEST SWAP2 POP PUSH32 0x8000000000000000000000000000000000000000000000000000000000000000 DUP3 SUB PUSH2 0x2BB9 JUMPI PUSH2 0x2BB8 PUSH2 0x24E0 JUMP JUMPDEST JUMPDEST DUP2 PUSH0 SUB SWAP1 POP SWAP2 SWAP1 POP JUMP INVALID STOP STOP STOP STOP STOP 0xC9 0xF DUP9 ADD SWAP3 SAR KECCAK256 MUL JUMPDEST 0x26 0xD7 SUB 0x24 0x2A 0xBF SUB 0xED 0x26 0xE6 DIV 0xB6 NOT TSTORE SDIV PUSH32 0x350647D97C0710A34507D95B9E08A2009A096A90490A3308BC0AFB68050BC3 0xAC CALLDATALOAD 0xC DUP12 0xD3 MCOPY 0xD MSTORE8 0xDB SWAP3 0xE SHL 0xC2 0xE4 0xE 0xE3 DUP8 PUSH7 0xFAB272B1072A0 BASEFEE GT CODECOPY CREATE 0xCF SLT ADD AND 0xD5 SLT 0xC8 LT PUSH15 0x138EDBB1145576B1151BDF8515E214 PREVRANDAO AND 0xA8 SGT SDIV OR PUSH14 0xD9DE183366E818F8B83C19BDCBF3 BYTE DUP3 LOG0 0x25 SHL SELFBALANCE ORIGIN 0xEF SHR SIGNEXTEND DUP3 PUSH11 0x1CCF8CB31D934FE51E56CA 0x1E 0x1F NOT 0xF9 PUSH28 0x1FDCDC1B209F701C2161B39F2223A4C522E541AF23A6887E24677757 0x25 0x28 0xC TSTORE 0x25 0xE8 GASLIMIT 0xB6 0x26 0xA8 0x21 DUP6 0x27 PUSH8 0x9DF42826B92828E5 PUSH18 0x4A29A3C4852A61B1012B1F34EB2BDC4E6F2C SWAP9 0xFB 0xBA 0x2D SSTORE GASPRICE 0xFB 0x2E GT EXP PUSH3 0x2ECC68 0x1E 0x2F DUP8 MSTORE PUSH3 0x3041C7 PUSH1 0x30 0xFB 0xC5 0x4D BALANCE 0xB5 BLOBBASEFEE TSTORE ORIGIN PUSH15 0x54C73326E2C233DEF2873496824F35 0x4D SWAP1 JUMP CALLDATASIZE DIV BYTE 0xD9 CALLDATASIZE 0xBA KECCAK256 SGT CALLDATACOPY PUSH16 0x9E46382493B038D8FE93398CDD323A40 0x2D 0xD1 GASPRICE CALLCODE 0xEE 0xB7 EXTCODESIZE 0xA5 0x1E 0x29 EXTCODECOPY JUMP 0xBA PUSH17 0x3D07C1D53DB832A53E680B2C3F1749B73F 0xC5 0xEC SWAP8 BLOCKHASH PUSH20 0xF21D4121589A41CE1E64427A41D04325C13543D0 SWAP11 0xEC PREVRANDAO PUSH27 0xCD50452456BC45CD358F46756827471CECE647C3C22E4869E66449 0xF JUMPI 0xEE BLOBHASH 0xB4 ISZERO CALLER BLOBBASEFEE PC SHR SWAP14 BLOBBASEFEE 0xFB PUSH13 0x974B9E038F4C3FDFF34CE10034 0x4D DUP2 PUSH3 0xC34E21 MOD OR 0x4E 0xBF 0xE8 LOG4 0x4F MCOPY ADDMOD 0xE2 0x4F 0xFB PUSH6 0x4C5097FC5E51 CALLER 0xCC SWAP5 MLOAD 0xCE 0xD4 PUSH15 0x5269126E53028517539B2AEF543302 PUSH30 0x54CA0A4A556040E255F5A4D2568A34A9571DEEF957B0D2555842DD5458D4 0xE DUP13 MSIZE PUSH5 0x649759F3DE SLT GAS DUP3 PUSH26 0x995B1035CE5B9D11535C290ACC5CB420DF5D3E52365DC79D7B5E POP ADD TSTORE MCOPY 0xD7 PUSH29 0x895F5E0DB25FE3B38D60686CCE60EC382F616F146B61F1003E6271FA68 PUSH3 0xF201AC PUSH4 0x7114CC63 0xEF ORIGIN DUP16 PUSH5 0x6C59BF64E8 DUP10 0x25 PUSH6 0x63BF9165DDFB 0xD2 PUSH7 0x573CBB66CF811F PUSH8 0x46C7D767BD0FBC68 ORIGIN JUMPI 0xAA PUSH9 0xA69E806919E31F698C 0x24 PUSH12 0x69FD614A6A6D98A36ADCC964 PUSH12 0x4AF2786BB812D06C24295F6C DUP16 CALLDATALOAD SHL PUSH13 0xF934FB6D6227F96DCA0D146E30 0xE3 BLOBHASH PUSH15 0x96A99C6EFB5F116F5F02B16FC19384 PUSH17 0x231099708378FE70E2CBC571410804719E 0x2C 0xD1 PUSH18 0xFA394872552C8472AF05A67307C3CF735F66 0x25 PUSH20 0xB5EBD0740B53FA745F9DD074B2C8837504D34475 SSTORE 0xBD 0x4B PUSH22 0xA585CE75F42C0A7641AF3C768E0EA576D9498877235F 0x2C PUSH24 0x6C4EDA77B417DF77FAB988784033287884841378C7ABA179 MULMOD 0xA9 0x2C PUSH26 0x4A7C11798A23B079C89F6D7A05EEAC7A4210D87A7D055A7AB6CB LOG3 PUSH27 0xEF63237B26CB4E7B5D039D7B920B887BC5E28F7BF8882F7C29FBED PUSH29 0x5A3D4F7C894BDD7CB727237CE3CEB17D0F42177D3980EB7D628AC57D8A PUSH0 EXTCODEHASH PUSH30 0xB0FDF77DD6668E7DFA98A77E1D93E97E3F57FE7E5FE4927E7F39567E9D55 0xFB PUSH31 0xBA3A387ED5E5C57EF0585F7F0991C37F2191B37F3857F57F4DE4507F62368E PUSH32 0x754E7F7F872BF27F97CEBC7FA736B37FB563B27FC255957FCE0C3D7FD8878D7F 0xE1 0xC7 PUSH11 0x7FE9CBBF7FF094777FF621 DUP2 PUSH32 0xFA72D07FFD88597FFF62157FFFFFFFA2646970667358221220EB1923F41BC1BA EXTCODECOPY SWAP1 DUP14 DUP1 0xE8 ISZERO LOG2 ADDMOD 0xD1 DUP11 0xCB 0x2A 0xDB 0x2F ISZERO 0xEA DUP6 CREATE2 SWAP4 COINBASE 0xCD 0xD1 0xE6 0xB6 0xAE PUSH5 0x736F6C6343 STOP ADDMOD BYTE STOP CALLER "
		},
		"gasEstimates": {
			"creation": {
				"codeDepositCost": "2457000",
				"executionCost": "infinite",
				"totalCost": "infinite"
			},
			"external": {
				"addShowRoom(address,address,uint8,uint256,uint256)": "infinite",
				"allShowrooms(uint256)": "4989",
				"calculateDistance(uint256,uint256,uint256,uint256)": "infinite",
				"findNearestShowroom(uint256,uint256)": "infinite",
				"getBalance()": "4879",
				"getShowroomCommissionRate(uint8)": "2867",
				"getShowroomSafeRadius(uint8)": "2868",
				"getShowroomScanRadius(uint8)": "2824",
				"getShowrooms(uint256,uint256)": "infinite",
				"owner()": "2626",
				"plusCommision(address,uint256)": "infinite",
				"plusMember(address,uint256)": "infinite",
				"renounceOwnership()": "infinite",
				"safeRadius(uint8)": "2736",
				"scanRadius(uint8)": "2845",
				"setShowroomCommissionRate(uint8,uint256)": "infinite",
				"setShowroomExpiryDate(address,uint256)": "infinite",
				"setShowroomSafeRadius(uint8,uint256)": "infinite",
				"setShowroomScanRadius(uint8,uint256)": "infinite",
				"setTreeCommissionContract(address)": "infinite",
				"showroomCommissionRates(uint8)": "2823",
				"showroomNodes(address)": "infinite",
				"transferOwnership(address)": "infinite",
				"treeCommissionContract()": "2641",
				"withdrawBPFromShowRoom(uint256,bytes32[])": "infinite"
			},
			"internal": {
				"abs(int256)": "174"
			}
		},
		"methodIdentifiers": {
			"addShowRoom(address,address,uint8,uint256,uint256)": "266b09d1",
			"allShowrooms(uint256)": "5f0b032b",
			"calculateDistance(uint256,uint256,uint256,uint256)": "108d4b4e",
			"findNearestShowroom(uint256,uint256)": "7cce9939",
			"getBalance()": "12065fe0",
			"getShowroomCommissionRate(uint8)": "efcf91c7",
			"getShowroomSafeRadius(uint8)": "457142f5",
			"getShowroomScanRadius(uint8)": "3075119d",
			"getShowrooms(uint256,uint256)": "a23d431a",
			"owner()": "8da5cb5b",
			"plusCommision(address,uint256)": "c849c1d0",
			"plusMember(address,uint256)": "da77abed",
			"renounceOwnership()": "715018a6",
			"safeRadius(uint8)": "018f5036",
			"scanRadius(uint8)": "51ecb8af",
			"setShowroomCommissionRate(uint8,uint256)": "3ab32c06",
			"setShowroomExpiryDate(address,uint256)": "bffc0ccd",
			"setShowroomSafeRadius(uint8,uint256)": "bdb561ad",
			"setShowroomScanRadius(uint8,uint256)": "0f937a0a",
			"setTreeCommissionContract(address)": "22a493d7",
			"showroomCommissionRates(uint8)": "47a1efa6",
			"showroomNodes(address)": "53a2dfc1",
			"transferOwnership(address)": "f2fde38b",
			"treeCommissionContract()": "a0815a54",
			"withdrawBPFromShowRoom(uint256,bytes32[])": "2c048f00"
		}
	},
	"abi": [
		{
			"inputs": [],
			"stateMutability": "nonpayable",
			"type": "constructor"
		},
		{
			"inputs": [
				{
					"internalType": "address",
					"name": "owner",
					"type": "address"
				}
			],
			"name": "OwnableInvalidOwner",
			"type": "error"
		},
		{
			"inputs": [
				{
					"internalType": "address",
					"name": "account",
					"type": "address"
				}
			],
			"name": "OwnableUnauthorizedAccount",
			"type": "error"
		},
		{
			"anonymous": false,
			"inputs": [
				{
					"indexed": true,
					"internalType": "address",
					"name": "previousOwner",
					"type": "address"
				},
				{
					"indexed": true,
					"internalType": "address",
					"name": "newOwner",
					"type": "address"
				}
			],
			"name": "OwnershipTransferred",
			"type": "event"
		},
		{
			"anonymous": false,
			"inputs": [
				{
					"indexed": true,
					"internalType": "address",
					"name": "showroom",
					"type": "address"
				},
				{
					"indexed": true,
					"internalType": "address",
					"name": "parent",
					"type": "address"
				}
			],
			"name": "ShowroomAdded",
			"type": "event"
		},
		{
			"inputs": [
				{
					"internalType": "address",
					"name": "newShowroom",
					"type": "address"
				},
				{
					"internalType": "address",
					"name": "parent",
					"type": "address"
				},
				{
					"internalType": "enum Showroom.ShowroomTier",
					"name": "tier",
					"type": "uint8"
				},
				{
					"internalType": "uint256",
					"name": "longtitude",
					"type": "uint256"
				},
				{
					"internalType": "uint256",
					"name": "lattitude",
					"type": "uint256"
				}
			],
			"name": "addShowRoom",
			"outputs": [],
			"stateMutability": "nonpayable",
			"type": "function"
		},
		{
			"inputs": [
				{
					"internalType": "uint256",
					"name": "",
					"type": "uint256"
				}
			],
			"name": "allShowrooms",
			"outputs": [
				{
					"internalType": "address",
					"name": "",
					"type": "address"
				}
			],
			"stateMutability": "view",
			"type": "function"
		},
		{
			"inputs": [
				{
					"internalType": "uint256",
					"name": "lat1",
					"type": "uint256"
				},
				{
					"internalType": "uint256",
					"name": "lon1",
					"type": "uint256"
				},
				{
					"internalType": "uint256",
					"name": "lat2",
					"type": "uint256"
				},
				{
					"internalType": "uint256",
					"name": "lon2",
					"type": "uint256"
				}
			],
			"name": "calculateDistance",
			"outputs": [
				{
					"internalType": "uint256",
					"name": "",
					"type": "uint256"
				}
			],
			"stateMutability": "pure",
			"type": "function"
		},
		{
			"inputs": [
				{
					"internalType": "uint256",
					"name": "userLat",
					"type": "uint256"
				},
				{
					"internalType": "uint256",
					"name": "userLon",
					"type": "uint256"
				}
			],
			"name": "findNearestShowroom",
			"outputs": [
				{
					"internalType": "address",
					"name": "",
					"type": "address"
				}
			],
			"stateMutability": "view",
			"type": "function"
		},
		{
			"inputs": [],
			"name": "getBalance",
			"outputs": [
				{
					"internalType": "uint256",
					"name": "",
					"type": "uint256"
				}
			],
			"stateMutability": "view",
			"type": "function"
		},
		{
			"inputs": [
				{
					"internalType": "enum Showroom.ShowroomTier",
					"name": "tier",
					"type": "uint8"
				}
			],
			"name": "getShowroomCommissionRate",
			"outputs": [
				{
					"internalType": "uint256",
					"name": "",
					"type": "uint256"
				}
			],
			"stateMutability": "view",
			"type": "function"
		},
		{
			"inputs": [
				{
					"internalType": "enum Showroom.ShowroomTier",
					"name": "tier",
					"type": "uint8"
				}
			],
			"name": "getShowroomSafeRadius",
			"outputs": [
				{
					"internalType": "uint256",
					"name": "",
					"type": "uint256"
				}
			],
			"stateMutability": "view",
			"type": "function"
		},
		{
			"inputs": [
				{
					"internalType": "enum Showroom.ShowroomTier",
					"name": "tier",
					"type": "uint8"
				}
			],
			"name": "getShowroomScanRadius",
			"outputs": [
				{
					"internalType": "uint256",
					"name": "",
					"type": "uint256"
				}
			],
			"stateMutability": "view",
			"type": "function"
		},
		{
			"inputs": [
				{
					"internalType": "uint256",
					"name": "startIndex",
					"type": "uint256"
				},
				{
					"internalType": "uint256",
					"name": "pageSize",
					"type": "uint256"
				}
			],
			"name": "getShowrooms",
			"outputs": [
				{
					"components": [
						{
							"internalType": "address",
							"name": "parent",
							"type": "address"
						},
						{
							"internalType": "enum Showroom.ShowroomTier",
							"name": "tier",
							"type": "uint8"
						},
						{
							"internalType": "uint256",
							"name": "totalBP",
							"type": "uint256"
						},
						{
							"internalType": "uint256",
							"name": "totalMember",
							"type": "uint256"
						},
						{
							"internalType": "uint256",
							"name": "expiryDate",
							"type": "uint256"
						},
						{
							"internalType": "uint256",
							"name": "longtitude",
							"type": "uint256"
						},
						{
							"internalType": "uint256",
							"name": "lattitude",
							"type": "uint256"
						}
					],
					"internalType": "struct Showroom.ShowroomNode[]",
					"name": "",
					"type": "tuple[]"
				}
			],
			"stateMutability": "view",
			"type": "function"
		},
		{
			"inputs": [],
			"name": "owner",
			"outputs": [
				{
					"internalType": "address",
					"name": "",
					"type": "address"
				}
			],
			"stateMutability": "view",
			"type": "function"
		},
		{
			"inputs": [
				{
					"internalType": "address",
					"name": "showroom",
					"type": "address"
				},
				{
					"internalType": "uint256",
					"name": "bp",
					"type": "uint256"
				}
			],
			"name": "plusCommision",
			"outputs": [
				{
					"internalType": "uint256",
					"name": "",
					"type": "uint256"
				}
			],
			"stateMutability": "nonpayable",
			"type": "function"
		},
		{
			"inputs": [
				{
					"internalType": "address",
					"name": "showroom",
					"type": "address"
				},
				{
					"internalType": "uint256",
					"name": "totalMember",
					"type": "uint256"
				}
			],
			"name": "plusMember",
			"outputs": [
				{
					"internalType": "uint256",
					"name": "",
					"type": "uint256"
				}
			],
			"stateMutability": "nonpayable",
			"type": "function"
		},
		{
			"inputs": [],
			"name": "renounceOwnership",
			"outputs": [],
			"stateMutability": "nonpayable",
			"type": "function"
		},
		{
			"inputs": [
				{
					"internalType": "enum Showroom.ShowroomTier",
					"name": "",
					"type": "uint8"
				}
			],
			"name": "safeRadius",
			"outputs": [
				{
					"internalType": "uint256",
					"name": "",
					"type": "uint256"
				}
			],
			"stateMutability": "view",
			"type": "function"
		},
		{
			"inputs": [
				{
					"internalType": "enum Showroom.ShowroomTier",
					"name": "",
					"type": "uint8"
				}
			],
			"name": "scanRadius",
			"outputs": [
				{
					"internalType": "uint256",
					"name": "",
					"type": "uint256"
				}
			],
			"stateMutability": "view",
			"type": "function"
		},
		{
			"inputs": [
				{
					"internalType": "enum Showroom.ShowroomTier",
					"name": "tier",
					"type": "uint8"
				},
				{
					"internalType": "uint256",
					"name": "percent",
					"type": "uint256"
				}
			],
			"name": "setShowroomCommissionRate",
			"outputs": [],
			"stateMutability": "nonpayable",
			"type": "function"
		},
		{
			"inputs": [
				{
					"internalType": "address",
					"name": "showroom",
					"type": "address"
				},
				{
					"internalType": "uint256",
					"name": "changedDays",
					"type": "uint256"
				}
			],
			"name": "setShowroomExpiryDate",
			"outputs": [],
			"stateMutability": "nonpayable",
			"type": "function"
		},
		{
			"inputs": [
				{
					"internalType": "enum Showroom.ShowroomTier",
					"name": "tier",
					"type": "uint8"
				},
				{
					"internalType": "uint256",
					"name": "radius",
					"type": "uint256"
				}
			],
			"name": "setShowroomSafeRadius",
			"outputs": [],
			"stateMutability": "nonpayable",
			"type": "function"
		},
		{
			"inputs": [
				{
					"internalType": "enum Showroom.ShowroomTier",
					"name": "tier",
					"type": "uint8"
				},
				{
					"internalType": "uint256",
					"name": "radius",
					"type": "uint256"
				}
			],
			"name": "setShowroomScanRadius",
			"outputs": [],
			"stateMutability": "nonpayable",
			"type": "function"
		},
		{
			"inputs": [
				{
					"internalType": "address",
					"name": "_treeCommission",
					"type": "address"
				}
			],
			"name": "setTreeCommissionContract",
			"outputs": [],
			"stateMutability": "nonpayable",
			"type": "function"
		},
		{
			"inputs": [
				{
					"internalType": "enum Showroom.ShowroomTier",
					"name": "",
					"type": "uint8"
				}
			],
			"name": "showroomCommissionRates",
			"outputs": [
				{
					"internalType": "uint256",
					"name": "",
					"type": "uint256"
				}
			],
			"stateMutability": "view",
			"type": "function"
		},
		{
			"inputs": [
				{
					"internalType": "address",
					"name": "",
					"type": "address"
				}
			],
			"name": "showroomNodes",
			"outputs": [
				{
					"internalType": "address",
					"name": "parent",
					"type": "address"
				},
				{
					"internalType": "enum Showroom.ShowroomTier",
					"name": "tier",
					"type": "uint8"
				},
				{
					"internalType": "uint256",
					"name": "totalBP",
					"type": "uint256"
				},
				{
					"internalType": "uint256",
					"name": "totalMember",
					"type": "uint256"
				},
				{
					"internalType": "uint256",
					"name": "expiryDate",
					"type": "uint256"
				},
				{
					"internalType": "uint256",
					"name": "longtitude",
					"type": "uint256"
				},
				{
					"internalType": "uint256",
					"name": "lattitude",
					"type": "uint256"
				}
			],
			"stateMutability": "view",
			"type": "function"
		},
		{
			"inputs": [
				{
					"internalType": "address",
					"name": "newOwner",
					"type": "address"
				}
			],
			"name": "transferOwnership",
			"outputs": [],
			"stateMutability": "nonpayable",
			"type": "function"
		},
		{
			"inputs": [],
			"name": "treeCommissionContract",
			"outputs": [
				{
					"internalType": "address",
					"name": "",
					"type": "address"
				}
			],
			"stateMutability": "view",
			"type": "function"
		},
		{
			"inputs": [
				{
					"internalType": "uint256",
					"name": "amount",
					"type": "uint256"
				},
				{
					"internalType": "bytes32[]",
					"name": "utxoArr",
					"type": "bytes32[]"
				}
			],
			"name": "withdrawBPFromShowRoom",
			"outputs": [],
			"stateMutability": "nonpayable",
			"type": "function"
		}
	]
}