{
	"data": {
		"bytecode": {
			"linkReferences": {},
			"object": "608060405234801561000f575f80fd5b50338061003557604051631e4fbdf760e01b81525f600482015260240160405180910390fd5b61003e81610203565b5060197fcc69885fda6bcc1a4ace058b4a62bf5e179ea78fd58a1ccd71c22cc9b688792f5560327fd9d16d34ffb15ba3a3d852f0d403e2ce1d691fb54de27ac87cd2f993f3ec330f819055604b7f7dfe757ecd65cbd7922a9c0161e935dd7fdbcc0e999689c7d31633896b1fc60b5560647fedc95719e9a3b28dd8e80877cb5880a9be7de1a13fc8b05e7999683b6b5676438190557fe90b7bceb6e7df5418fb78d8ee546e97c83a08bbccc01a0644d599ccd2a7c2e08290556101f47f679795a0195a1b76cdebb7c51d74e058aee92919b8c3389af86ef24535e8a28c8190556107d07f88601476d11616a71c5be67555bd1dff4b1cbf21533d2669b768b61518cfe1c3556113887fee60d0579bcffd98e668647d59fec1ff86a7fb340ce572e844f234ae73a6918f5560036020527fa15bc60c955c405d20d9149c709e2460f1c2d9a497496a7f46004d1772c3054c8390557fc3a24b0501bd2c13a7e57f2db4369ec4c223447539fc0724a9d55ac4a06ebd4d929092557fcbc4e5fb02c3d1de23a9f1e014b4d2ee5aeaea9505df5e855c9210bf472495af5560045f527f83ec6a1f0257b830b5e016457c9cf1435391bf56cc98f369a58a54fe9377246555610252565b5f80546001600160a01b038381166001600160a01b0319831681178455604051919092169283917f8be0079c531659141344cd1fd0a4f28419497f9722a3daafe3b4186f6b6457e09190a35050565b611bcd8061025f5f395ff3fe608060405234801561000f575f80fd5b5060043610610131575f3560e01c8063018f5036146101355780630f937a0a14610167578063108d4b4e1461017c57806312065fe01461018f57806322a493d714610197578063266b09d1146101aa5780632c048f00146101bd5780633075119d146101d05780633ab32c06146101e3578063457142f5146101f657806347a1efa61461020957806351ecb8af1461022857806353a2dfc1146102475780635f0b032b146102bd578063715018a6146102dd5780637cce9939146102e55780638da5cb5b146102f8578063a0815a5414610300578063a23d431a14610313578063bdb561ad14610333578063bffc0ccd14610346578063c849c1d014610359578063da77abed1461036c578063efcf91c71461037f578063f2fde38b14610392575b5f80fd5b6101546101433660046111cf565b60036020525f908152604090205481565b6040519081526020015b60405180910390f35b61017a6101753660046111ef565b6103a5565b005b61015461018a366004611217565b6103e8565b61015461057c565b61017a6101a536600461125c565b6105f5565b61017a6101b8366004611275565b61061f565b61017a6101cb3660046112da565b6107ee565b6101546101de3660046111cf565b61090a565b61017a6101f13660046111ef565b610946565b6101546102043660046111cf565b610964565b6101546102173660046111cf565b60016020525f908152604090205481565b6101546102363660046111cf565b60026020525f908152604090205481565b6102a961025536600461125c565b600560208190525f918252604090912080546001820154600283015460038401546004850154958501546006909501546001600160a01b0380861697600160a01b90960460ff169694959394929392911688565b60405161015e9897969594939291906113e1565b6102d06102cb366004611439565b61097a565b60405161015e9190611450565b61017a6109a2565b6102d06102f3366004611464565b6109b5565b6102d0610b40565b6006546102d0906001600160a01b031681565b610326610321366004611464565b610b4e565b60405161015e9190611484565b61017a6103413660046111ef565b610d87565b61017a61035436600461152e565b610da5565b61015461036736600461152e565b610de6565b61015461037a36600461152e565b610ecb565b61015461038d3660046111cf565b610faf565b61017a6103a036600461125c565b610fc5565b6103ad611002565b8060025f8460048111156103c3576103c36113ad565b60048111156103d4576103d46113ad565b815260208101919091526040015f20555050565b5f6a05451c9a1fa35367e00000816809c2007651b2500000672b992ddfa23249d661041b6104168a8961155c565b611034565b6104259190611582565b61042f91906115ad565b90505f6809c2007651b2500000672b992ddfa23249d66104526104168a8961155c565b61045c9190611582565b61046691906115ad565b90505f6809c2007651b2500000610485672b992ddfa23249d68b611582565b61048f91906115ad565b90505f6809c2007651b25000006104ae672b992ddfa23249d68a611582565b6104b891906115ad565b90505f6104ce6104c96002876115ad565b61104b565b90505f6104df6104c96002876115ad565b90505f6104eb85611111565b90505f6104f785611111565b90505f61050484806115c0565b61050e83856115c0565b61051891906115c0565b61052286806115c0565b61052c91906115ef565b90505f61053d6104c9600284611616565b6105489060026115c0565b9050670de0b6b3a764000061055d828d6115c0565b6105679190611616565b9b505050505050505050505050949350505050565b5f3332146105a55760405162461bcd60e51b815260040161059c90611642565b60405180910390fd5b335f818152600560205260409020600301544211156105d65760405162461bcd60e51b815260040161059c90611677565b6001600160a01b03165f90815260056020526040902060010154905090565b6105fd611002565b600680546001600160a01b0319166001600160a01b0392909216919091179055565b610627611002565b6001600160a01b038581165f9081526005602052604090205416156106885760405162461bcd60e51b815260206004820152601760248201527653686f77726f6f6d20616c72656164792065786973747360481b604482015260640161059c565b604051806101000160405280856001600160a01b031681526020018460048111156106b5576106b56113ad565b81525f6020820181905260408201526060016106d5426301e133806116a1565b8152602080820185905260408083018590526001600160a01b03808a1660609094018490525f9384526005835292208351815493166001600160a01b0319841681178255918401519092909183916001600160a81b03191617600160a01b836004811115610745576107456113ad565b02179055506040820151600182810191909155606083015160028301556080830151600383015560a083015160048084019190915560c0840151600584015560e090930151600690920180546001600160a01b03199081166001600160a01b0394851617909155835491820184555f939093527f8a35acfbc15ff81a39ae7d344fd709f28e8600b4aa8c65c6b64bfe7fe36bd19b01805490921696169590951790945550505050565b33321461080d5760405162461bcd60e51b815260040161059c90611642565b335f81815260056020526040902060010154838110156108665760405162461bcd60e51b8152602060048201526014602482015273496e73756666696369656e742062616c616e636560601b604482015260640161059c565b6001600160a01b0382165f908152600560205260409020600301544211156108a05760405162461bcd60e51b815260040161059c90611677565b60065460405163061601f960e21b81526001600160a01b0390911690819063185807e4906108d6908890879089906004016116b4565b5f604051808303815f87803b1580156108ed575f80fd5b505af11580156108ff573d5f803e3d5ffd5b505050505050505050565b5f60025f836004811115610920576109206113ad565b6004811115610931576109316113ad565b81526020019081526020015f20549050919050565b61094e611002565b8060015f8460048111156103c3576103c36113ad565b5f60035f836004811115610920576109206113ad565b60048181548110610989575f80fd5b5f918252602090912001546001600160a01b0316905081565b6109aa611002565b6109b35f611125565b565b5f805f5b600454811015610b36575f600482815481106109d7576109d7611712565b5f918252602090912001546001600160a01b03169050801580610a1357506001600160a01b0381165f9081526005602052604090206003015442115b15610a1e5750610b2e565b6001600160a01b0381165f90815260056020526040812054600160a01b900460ff1690816004811115610a5357610a536113ad565b03610a5f575050610b2e565b6001600160a01b0382165f908152600560208190526040822090810154600490910154610a90918a918a91906103e8565b905060035f836004811115610aa757610aa76113ad565b6004811115610ab857610ab86113ad565b81526020019081526020015f2054811015610ad857829450505050610b36565b6001600160a01b038516158015610b21575060025f836004811115610aff57610aff6113ad565b6004811115610b1057610b106113ad565b81526020019081526020015f205481105b15610b2a578294505b5050505b6001016109b9565b5090505b92915050565b5f546001600160a01b031690565b60605f82118015610b60575060328211155b610bb65760405162461bcd60e51b815260206004820152602160248201527f7061676553697a65206d757374206265206265747765656e203120616e6420356044820152600360fc1b606482015260840161059c565b600454808410610bf957604080515f8082526020820190925290610bf0565b610bdd611174565b815260200190600190039081610bd55790505b50915050610b3a565b5f610c0484866116a1565b905081811115610c115750805b5f610c1c8683611726565b6001600160401b03811115610c3357610c336112c6565b604051908082528060200260200182016040528015610c6c57816020015b610c59611174565b815260200190600190039081610c515790505b5090505f865b83811015610d7b5760055f60048381548110610c9057610c90611712565b5f9182526020808320909101546001600160a01b039081168452838201949094526040928301909120825161010081019093528054938416835291929083019060ff600160a01b909104166004811115610cec57610cec6113ad565b6004811115610cfd57610cfd6113ad565b815260018201546020820152600282015460408201526003820154606082015260048201546080820152600582015460a08201526006909101546001600160a01b031660c0909101528351849084908110610d5a57610d5a611712565b60200260200101819052508180610d7090611739565b925050600101610c72565b50909695505050505050565b610d8f611002565b8060035f8460048111156103c3576103c36113ad565b610dad611002565b610dba8162015180611582565b610dc490426116a1565b6001600160a01b039092165f9081526005602052604090206003019190915550565b6006545f906001600160a01b03163314610e125760405162461bcd60e51b815260040161059c90611751565b6001600160a01b0383165f908152600560205260409020600301544210610e3a57505f610b3a565b6001600160a01b0383165f9081526005602052604081206001018054849290610e649084906116a1565b90915550506001600160a01b0383165f90815260056020526040812054600160a01b900460ff1690600181836004811115610ea157610ea16113ad565b6004811115610eb257610eb26113ad565b815260208101919091526040015f205495945050505050565b6006545f906001600160a01b03163314610ef75760405162461bcd60e51b815260040161059c90611751565b6001600160a01b0383165f908152600560205260409020600301544210610f1f57505f610b3a565b6001600160a01b0383165f9081526005602052604081206002018054849290610f499084906116a1565b90915550506001600160a01b0383165f908152600560205260408120546001908290600160a01b900460ff166004811115610f8657610f866113ad565b6004811115610f9757610f976113ad565b815260208101919091526040015f2054949350505050565b5f60015f836004811115610920576109206113ad565b610fcd611002565b6001600160a01b038116610ff6575f604051631e4fbdf760e01b815260040161059c9190611450565b610fff81611125565b50565b3361100b610b40565b6001600160a01b0316146109b3573360405163118cdaa760e01b815260040161059c9190611450565b5f8082126110425781610b3a565b610b3a82611779565b6757325bbf446493ac90819006634000000002045f61ffff600483901c1660ff601484901c1663100000008416156320000000851615158161108f5760ff92909203915b5f6040518061044001604052806104048152602001611794610404913960046002860102818101519192509063ffffffff602082901c8116908216818103890260101c5f886110e0578183036110e4565b8184015b905087156110ef575f035b637fffffff670de0b6b3a76400008202059d9c50505050505050505050505050565b5f610b3a6715cc96efd11924eb830161104b565b5f80546001600160a01b038381166001600160a01b0319831681178455604051919092169283917f8be0079c531659141344cd1fd0a4f28419497f9722a3daafe3b4186f6b6457e09190a35050565b6040805161010081019091525f808252602082019081526020015f81526020015f81526020015f81526020015f81526020015f81526020015f6001600160a01b031681525090565b8035600581106111ca575f80fd5b919050565b5f602082840312156111df575f80fd5b6111e8826111bc565b9392505050565b5f8060408385031215611200575f80fd5b611209836111bc565b946020939093013593505050565b5f805f806080858703121561122a575f80fd5b5050823594602084013594506040840135936060013592509050565b80356001600160a01b03811681146111ca575f80fd5b5f6020828403121561126c575f80fd5b6111e882611246565b5f805f805f60a08688031215611289575f80fd5b61129286611246565b94506112a060208701611246565b93506112ae604087016111bc565b94979396509394606081013594506080013592915050565b634e487b7160e01b5f52604160045260245ffd5b5f80604083850312156112eb575f80fd5b8235915060208301356001600160401b03811115611307575f80fd5b8301601f81018513611317575f80fd5b80356001600160401b03811115611330576113306112c6565b604051600582901b90603f8201601f191681016001600160401b038111828210171561135e5761135e6112c6565b60405291825260208184018101929081018884111561137b575f80fd5b6020850194505b8385101561139e57843580825260209586019590935001611382565b50809450505050509250929050565b634e487b7160e01b5f52602160045260245ffd5b600581106113dd57634e487b7160e01b5f52602160045260245ffd5b9052565b6001600160a01b038916815261010081016113ff602083018a6113c1565b60408201979097526060810195909552608085019390935260a084019190915260c08301526001600160a01b031660e09091015292915050565b5f60208284031215611449575f80fd5b5035919050565b6001600160a01b0391909116815260200190565b5f8060408385031215611475575f80fd5b50508035926020909101359150565b602080825282518282018190525f918401906040840190835b8181101561152357835180516001600160a01b03168452602080820151906114c7908601826113c1565b5060408181015190850152606080820151908501526080808201519085015260a0808201519085015260c0808201519085015260e0908101516001600160a01b031690840152602093909301926101009092019160010161149d565b509095945050505050565b5f806040838503121561153f575f80fd5b61120983611246565b634e487b7160e01b5f52601160045260245ffd5b8181035f83128015838313168383128216171561157b5761157b611548565b5092915050565b8082028115828204841417610b3a57610b3a611548565b634e487b7160e01b5f52601260045260245ffd5b5f826115bb576115bb611599565b500490565b8082025f8212600160ff1b841416156115db576115db611548565b8181058314821517610b3a57610b3a611548565b8082018281125f83128015821682158216171561160e5761160e611548565b505092915050565b5f8261162457611624611599565b600160ff1b82145f198414161561163d5761163d611548565b500590565b6020808252601b908201527a14db585c9d0818dbdb9d1c9858dd1cc81b9bdd08185b1b1bddd959602a1b604082015260600190565b60208082526010908201526f14da1bdddc9bdbdb48195e1c1a5c995960821b604082015260600190565b80820180821115610b3a57610b3a611548565b8381526001600160a01b03831660208083019190915260606040830181905283519083018190525f918401906080840190835b818110156117055783518352602093840193909201916001016116e7565b5090979650505050505050565b634e487b7160e01b5f52603260045260245ffd5b81810381811115610b3a57610b3a611548565b5f6001820161174a5761174a611548565b5060010190565b6020808252600e908201526d139bdd08185d5d1a1bdc9a5e995960921b604082015260600190565b5f600160ff1b820161178d5761178d611548565b505f039056fe0000000000c90f8801921d20025b26d703242abf03ed26e604b6195d057f00350647d97c0710a34507d95b9e08a2009a096a90490a3308bc0afb68050bc3ac350c8bd35e0d53db920e1bc2e40ee387660fab272b1072a0481139f0cf120116d512c8106e138edbb1145576b1151bdf8515e2144416a81305176dd9de183366e818f8b83c19bdcbf31a82a0251b4732ef1c0b826a1ccf8cb31d934fe51e56ca1e1f19f97b1fdcdc1b209f701c2161b39f2223a4c522e541af23a6887e2467775725280c5d25e845b626a8218527679df42826b92828e5714a29a3c4852a61b1012b1f34eb2bdc4e6f2c98fbba2d553afb2e110a622ecc681e2f8752623041c76030fbc54d31b54a5d326e54c73326e2c233def2873496824f354d905636041ad936ba2013376f9e46382493b038d8fe93398cdd323a402dd13af2eeb73ba51e293c56ba703d07c1d53db832a53e680b2c3f1749b73fc5ec974073f21d4121589a41ce1e64427a41d04325c13543d09aec447acd50452456bc45cd358f46756827471cece647c3c22e4869e664490f57ee49b415334a581c9d4afb6c974b9e038f4c3fdff34ce100344d8162c34e2106174ebfe8a44f5e08e24ffb654c5097fc5e5133cc9451ced46e5269126e53028517539b2aef5433027d54ca0a4a556040e255f5a4d2568a34a9571deef957b0d2555842dd5458d40e8c5964649759f3de125a8279995b1035ce5b9d11535c290acc5cb420df5d3e52365dc79d7b5e50015d5ed77c895f5e0db25fe3b38d60686cce60ec382f616f146b61f1003e6271fa6862f201ac637114cc63ef328f646c59bf64e889256563bf9165ddfbd266573cbb66cf811f6746c7d767bd0fbc683257aa68a69e806919e31f698c246b69fd614a6a6d98a36adcc9646b4af2786bb812d06c24295f6c8f351b6cf934fb6d6227f96dca0d146e30e3496e96a99c6efb5f116f5f02b16fc1938470231099708378fe70e2cbc571410804719e2cd171fa394872552c8472af05a67307c3cf735f662573b5ebd0740b53fa745f9dd074b2c8837504d3447555bd4b75a585ce75f42c0a7641af3c768e0ea576d9498877235f2c776c4eda77b417df77fab988784033287884841378c7aba17909a92c794a7c11798a23b079c89f6d7a05eeac7a4210d87a7d055a7ab6cba37aef63237b26cb4e7b5d039d7b920b887bc5e28f7bf8882f7c29fbed7c5a3d4f7c894bdd7cb727237ce3ceb17d0f42177d3980eb7d628ac57d8a5f3f7db0fdf77dd6668e7dfa98a77e1d93e97e3f57fe7e5fe4927e7f39567e9d55fb7eba3a387ed5e5c57ef0585f7f0991c37f2191b37f3857f57f4de4507f62368e7f754e7f7f872bf27f97cebc7fa736b37fb563b27fc255957fce0c3d7fd8878d7fe1c76a7fe9cbbf7ff094777ff621817ffa72d07ffd88597fff62157fffffffa2646970667358221220a636e3c6f51502c925109d4d4c3f6895225ed4a771ee460b4c025d42fd73034664736f6c634300081a0033",
			"opcodes": "PUSH1 0x80 PUSH1 0x40 MSTORE CALLVALUE DUP1 ISZERO PUSH2 0xF JUMPI PUSH0 DUP1 REVERT JUMPDEST POP CALLER DUP1 PUSH2 0x35 JUMPI PUSH1 0x40 MLOAD PUSH4 0x1E4FBDF7 PUSH1 0xE0 SHL DUP2 MSTORE PUSH0 PUSH1 0x4 DUP3 ADD MSTORE PUSH1 0x24 ADD PUSH1 0x40 MLOAD DUP1 SWAP2 SUB SWAP1 REVERT JUMPDEST PUSH2 0x3E DUP2 PUSH2 0x203 JUMP JUMPDEST POP PUSH1 0x19 PUSH32 0xCC69885FDA6BCC1A4ACE058B4A62BF5E179EA78FD58A1CCD71C22CC9B688792F SSTORE PUSH1 0x32 PUSH32 0xD9D16D34FFB15BA3A3D852F0D403E2CE1D691FB54DE27AC87CD2F993F3EC330F DUP2 SWAP1 SSTORE PUSH1 0x4B PUSH32 0x7DFE757ECD65CBD7922A9C0161E935DD7FDBCC0E999689C7D31633896B1FC60B SSTORE PUSH1 0x64 PUSH32 0xEDC95719E9A3B28DD8E80877CB5880A9BE7DE1A13FC8B05E7999683B6B567643 DUP2 SWAP1 SSTORE PUSH32 0xE90B7BCEB6E7DF5418FB78D8EE546E97C83A08BBCCC01A0644D599CCD2A7C2E0 DUP3 SWAP1 SSTORE PUSH2 0x1F4 PUSH32 0x679795A0195A1B76CDEBB7C51D74E058AEE92919B8C3389AF86EF24535E8A28C DUP2 SWAP1 SSTORE PUSH2 0x7D0 PUSH32 0x88601476D11616A71C5BE67555BD1DFF4B1CBF21533D2669B768B61518CFE1C3 SSTORE PUSH2 0x1388 PUSH32 0xEE60D0579BCFFD98E668647D59FEC1FF86A7FB340CE572E844F234AE73A6918F SSTORE PUSH1 0x3 PUSH1 0x20 MSTORE PUSH32 0xA15BC60C955C405D20D9149C709E2460F1C2D9A497496A7F46004D1772C3054C DUP4 SWAP1 SSTORE PUSH32 0xC3A24B0501BD2C13A7E57F2DB4369EC4C223447539FC0724A9D55AC4A06EBD4D SWAP3 SWAP1 SWAP3 SSTORE PUSH32 0xCBC4E5FB02C3D1DE23A9F1E014B4D2EE5AEAEA9505DF5E855C9210BF472495AF SSTORE PUSH1 0x4 PUSH0 MSTORE PUSH32 0x83EC6A1F0257B830B5E016457C9CF1435391BF56CC98F369A58A54FE93772465 SSTORE PUSH2 0x252 JUMP JUMPDEST PUSH0 DUP1 SLOAD PUSH1 0x1 PUSH1 0x1 PUSH1 0xA0 SHL SUB DUP4 DUP2 AND PUSH1 0x1 PUSH1 0x1 PUSH1 0xA0 SHL SUB NOT DUP4 AND DUP2 OR DUP5 SSTORE PUSH1 0x40 MLOAD SWAP2 SWAP1 SWAP3 AND SWAP3 DUP4 SWAP2 PUSH32 0x8BE0079C531659141344CD1FD0A4F28419497F9722A3DAAFE3B4186F6B6457E0 SWAP2 SWAP1 LOG3 POP POP JUMP JUMPDEST PUSH2 0x1BCD DUP1 PUSH2 0x25F PUSH0 CODECOPY PUSH0 RETURN INVALID PUSH1 0x80 PUSH1 0x40 MSTORE CALLVALUE DUP1 ISZERO PUSH2 0xF JUMPI PUSH0 DUP1 REVERT JUMPDEST POP PUSH1 0x4 CALLDATASIZE LT PUSH2 0x131 JUMPI PUSH0 CALLDATALOAD PUSH1 0xE0 SHR DUP1 PUSH4 0x18F5036 EQ PUSH2 0x135 JUMPI DUP1 PUSH4 0xF937A0A EQ PUSH2 0x167 JUMPI DUP1 PUSH4 0x108D4B4E EQ PUSH2 0x17C JUMPI DUP1 PUSH4 0x12065FE0 EQ PUSH2 0x18F JUMPI DUP1 PUSH4 0x22A493D7 EQ PUSH2 0x197 JUMPI DUP1 PUSH4 0x266B09D1 EQ PUSH2 0x1AA JUMPI DUP1 PUSH4 0x2C048F00 EQ PUSH2 0x1BD JUMPI DUP1 PUSH4 0x3075119D EQ PUSH2 0x1D0 JUMPI DUP1 PUSH4 0x3AB32C06 EQ PUSH2 0x1E3 JUMPI DUP1 PUSH4 0x457142F5 EQ PUSH2 0x1F6 JUMPI DUP1 PUSH4 0x47A1EFA6 EQ PUSH2 0x209 JUMPI DUP1 PUSH4 0x51ECB8AF EQ PUSH2 0x228 JUMPI DUP1 PUSH4 0x53A2DFC1 EQ PUSH2 0x247 JUMPI DUP1 PUSH4 0x5F0B032B EQ PUSH2 0x2BD JUMPI DUP1 PUSH4 0x715018A6 EQ PUSH2 0x2DD JUMPI DUP1 PUSH4 0x7CCE9939 EQ PUSH2 0x2E5 JUMPI DUP1 PUSH4 0x8DA5CB5B EQ PUSH2 0x2F8 JUMPI DUP1 PUSH4 0xA0815A54 EQ PUSH2 0x300 JUMPI DUP1 PUSH4 0xA23D431A EQ PUSH2 0x313 JUMPI DUP1 PUSH4 0xBDB561AD EQ PUSH2 0x333 JUMPI DUP1 PUSH4 0xBFFC0CCD EQ PUSH2 0x346 JUMPI DUP1 PUSH4 0xC849C1D0 EQ PUSH2 0x359 JUMPI DUP1 PUSH4 0xDA77ABED EQ PUSH2 0x36C JUMPI DUP1 PUSH4 0xEFCF91C7 EQ PUSH2 0x37F JUMPI DUP1 PUSH4 0xF2FDE38B EQ PUSH2 0x392 JUMPI JUMPDEST PUSH0 DUP1 REVERT JUMPDEST PUSH2 0x154 PUSH2 0x143 CALLDATASIZE PUSH1 0x4 PUSH2 0x11CF JUMP JUMPDEST PUSH1 0x3 PUSH1 0x20 MSTORE PUSH0 SWAP1 DUP2 MSTORE PUSH1 0x40 SWAP1 KECCAK256 SLOAD DUP2 JUMP JUMPDEST PUSH1 0x40 MLOAD SWAP1 DUP2 MSTORE PUSH1 0x20 ADD JUMPDEST PUSH1 0x40 MLOAD DUP1 SWAP2 SUB SWAP1 RETURN JUMPDEST PUSH2 0x17A PUSH2 0x175 CALLDATASIZE PUSH1 0x4 PUSH2 0x11EF JUMP JUMPDEST PUSH2 0x3A5 JUMP JUMPDEST STOP JUMPDEST PUSH2 0x154 PUSH2 0x18A CALLDATASIZE PUSH1 0x4 PUSH2 0x1217 JUMP JUMPDEST PUSH2 0x3E8 JUMP JUMPDEST PUSH2 0x154 PUSH2 0x57C JUMP JUMPDEST PUSH2 0x17A PUSH2 0x1A5 CALLDATASIZE PUSH1 0x4 PUSH2 0x125C JUMP JUMPDEST PUSH2 0x5F5 JUMP JUMPDEST PUSH2 0x17A PUSH2 0x1B8 CALLDATASIZE PUSH1 0x4 PUSH2 0x1275 JUMP JUMPDEST PUSH2 0x61F JUMP JUMPDEST PUSH2 0x17A PUSH2 0x1CB CALLDATASIZE PUSH1 0x4 PUSH2 0x12DA JUMP JUMPDEST PUSH2 0x7EE JUMP JUMPDEST PUSH2 0x154 PUSH2 0x1DE CALLDATASIZE PUSH1 0x4 PUSH2 0x11CF JUMP JUMPDEST PUSH2 0x90A JUMP JUMPDEST PUSH2 0x17A PUSH2 0x1F1 CALLDATASIZE PUSH1 0x4 PUSH2 0x11EF JUMP JUMPDEST PUSH2 0x946 JUMP JUMPDEST PUSH2 0x154 PUSH2 0x204 CALLDATASIZE PUSH1 0x4 PUSH2 0x11CF JUMP JUMPDEST PUSH2 0x964 JUMP JUMPDEST PUSH2 0x154 PUSH2 0x217 CALLDATASIZE PUSH1 0x4 PUSH2 0x11CF JUMP JUMPDEST PUSH1 0x1 PUSH1 0x20 MSTORE PUSH0 SWAP1 DUP2 MSTORE PUSH1 0x40 SWAP1 KECCAK256 SLOAD DUP2 JUMP JUMPDEST PUSH2 0x154 PUSH2 0x236 CALLDATASIZE PUSH1 0x4 PUSH2 0x11CF JUMP JUMPDEST PUSH1 0x2 PUSH1 0x20 MSTORE PUSH0 SWAP1 DUP2 MSTORE PUSH1 0x40 SWAP1 KECCAK256 SLOAD DUP2 JUMP JUMPDEST PUSH2 0x2A9 PUSH2 0x255 CALLDATASIZE PUSH1 0x4 PUSH2 0x125C JUMP JUMPDEST PUSH1 0x5 PUSH1 0x20 DUP2 SWAP1 MSTORE PUSH0 SWAP2 DUP3 MSTORE PUSH1 0x40 SWAP1 SWAP2 KECCAK256 DUP1 SLOAD PUSH1 0x1 DUP3 ADD SLOAD PUSH1 0x2 DUP4 ADD SLOAD PUSH1 0x3 DUP5 ADD SLOAD PUSH1 0x4 DUP6 ADD SLOAD SWAP6 DUP6 ADD SLOAD PUSH1 0x6 SWAP1 SWAP6 ADD SLOAD PUSH1 0x1 PUSH1 0x1 PUSH1 0xA0 SHL SUB DUP1 DUP7 AND SWAP8 PUSH1 0x1 PUSH1 0xA0 SHL SWAP1 SWAP7 DIV PUSH1 0xFF AND SWAP7 SWAP5 SWAP6 SWAP4 SWAP5 SWAP3 SWAP4 SWAP3 SWAP2 AND DUP9 JUMP JUMPDEST PUSH1 0x40 MLOAD PUSH2 0x15E SWAP9 SWAP8 SWAP7 SWAP6 SWAP5 SWAP4 SWAP3 SWAP2 SWAP1 PUSH2 0x13E1 JUMP JUMPDEST PUSH2 0x2D0 PUSH2 0x2CB CALLDATASIZE PUSH1 0x4 PUSH2 0x1439 JUMP JUMPDEST PUSH2 0x97A JUMP JUMPDEST PUSH1 0x40 MLOAD PUSH2 0x15E SWAP2 SWAP1 PUSH2 0x1450 JUMP JUMPDEST PUSH2 0x17A PUSH2 0x9A2 JUMP JUMPDEST PUSH2 0x2D0 PUSH2 0x2F3 CALLDATASIZE PUSH1 0x4 PUSH2 0x1464 JUMP JUMPDEST PUSH2 0x9B5 JUMP JUMPDEST PUSH2 0x2D0 PUSH2 0xB40 JUMP JUMPDEST PUSH1 0x6 SLOAD PUSH2 0x2D0 SWAP1 PUSH1 0x1 PUSH1 0x1 PUSH1 0xA0 SHL SUB AND DUP2 JUMP JUMPDEST PUSH2 0x326 PUSH2 0x321 CALLDATASIZE PUSH1 0x4 PUSH2 0x1464 JUMP JUMPDEST PUSH2 0xB4E JUMP JUMPDEST PUSH1 0x40 MLOAD PUSH2 0x15E SWAP2 SWAP1 PUSH2 0x1484 JUMP JUMPDEST PUSH2 0x17A PUSH2 0x341 CALLDATASIZE PUSH1 0x4 PUSH2 0x11EF JUMP JUMPDEST PUSH2 0xD87 JUMP JUMPDEST PUSH2 0x17A PUSH2 0x354 CALLDATASIZE PUSH1 0x4 PUSH2 0x152E JUMP JUMPDEST PUSH2 0xDA5 JUMP JUMPDEST PUSH2 0x154 PUSH2 0x367 CALLDATASIZE PUSH1 0x4 PUSH2 0x152E JUMP JUMPDEST PUSH2 0xDE6 JUMP JUMPDEST PUSH2 0x154 PUSH2 0x37A CALLDATASIZE PUSH1 0x4 PUSH2 0x152E JUMP JUMPDEST PUSH2 0xECB JUMP JUMPDEST PUSH2 0x154 PUSH2 0x38D CALLDATASIZE PUSH1 0x4 PUSH2 0x11CF JUMP JUMPDEST PUSH2 0xFAF JUMP JUMPDEST PUSH2 0x17A PUSH2 0x3A0 CALLDATASIZE PUSH1 0x4 PUSH2 0x125C JUMP JUMPDEST PUSH2 0xFC5 JUMP JUMPDEST PUSH2 0x3AD PUSH2 0x1002 JUMP JUMPDEST DUP1 PUSH1 0x2 PUSH0 DUP5 PUSH1 0x4 DUP2 GT ISZERO PUSH2 0x3C3 JUMPI PUSH2 0x3C3 PUSH2 0x13AD JUMP JUMPDEST PUSH1 0x4 DUP2 GT ISZERO PUSH2 0x3D4 JUMPI PUSH2 0x3D4 PUSH2 0x13AD JUMP JUMPDEST DUP2 MSTORE PUSH1 0x20 DUP2 ADD SWAP2 SWAP1 SWAP2 MSTORE PUSH1 0x40 ADD PUSH0 KECCAK256 SSTORE POP POP JUMP JUMPDEST PUSH0 PUSH11 0x5451C9A1FA35367E00000 DUP2 PUSH9 0x9C2007651B2500000 PUSH8 0x2B992DDFA23249D6 PUSH2 0x41B PUSH2 0x416 DUP11 DUP10 PUSH2 0x155C JUMP JUMPDEST PUSH2 0x1034 JUMP JUMPDEST PUSH2 0x425 SWAP2 SWAP1 PUSH2 0x1582 JUMP JUMPDEST PUSH2 0x42F SWAP2 SWAP1 PUSH2 0x15AD JUMP JUMPDEST SWAP1 POP PUSH0 PUSH9 0x9C2007651B2500000 PUSH8 0x2B992DDFA23249D6 PUSH2 0x452 PUSH2 0x416 DUP11 DUP10 PUSH2 0x155C JUMP JUMPDEST PUSH2 0x45C SWAP2 SWAP1 PUSH2 0x1582 JUMP JUMPDEST PUSH2 0x466 SWAP2 SWAP1 PUSH2 0x15AD JUMP JUMPDEST SWAP1 POP PUSH0 PUSH9 0x9C2007651B2500000 PUSH2 0x485 PUSH8 0x2B992DDFA23249D6 DUP12 PUSH2 0x1582 JUMP JUMPDEST PUSH2 0x48F SWAP2 SWAP1 PUSH2 0x15AD JUMP JUMPDEST SWAP1 POP PUSH0 PUSH9 0x9C2007651B2500000 PUSH2 0x4AE PUSH8 0x2B992DDFA23249D6 DUP11 PUSH2 0x1582 JUMP JUMPDEST PUSH2 0x4B8 SWAP2 SWAP1 PUSH2 0x15AD JUMP JUMPDEST SWAP1 POP PUSH0 PUSH2 0x4CE PUSH2 0x4C9 PUSH1 0x2 DUP8 PUSH2 0x15AD JUMP JUMPDEST PUSH2 0x104B JUMP JUMPDEST SWAP1 POP PUSH0 PUSH2 0x4DF PUSH2 0x4C9 PUSH1 0x2 DUP8 PUSH2 0x15AD JUMP JUMPDEST SWAP1 POP PUSH0 PUSH2 0x4EB DUP6 PUSH2 0x1111 JUMP JUMPDEST SWAP1 POP PUSH0 PUSH2 0x4F7 DUP6 PUSH2 0x1111 JUMP JUMPDEST SWAP1 POP PUSH0 PUSH2 0x504 DUP5 DUP1 PUSH2 0x15C0 JUMP JUMPDEST PUSH2 0x50E DUP4 DUP6 PUSH2 0x15C0 JUMP JUMPDEST PUSH2 0x518 SWAP2 SWAP1 PUSH2 0x15C0 JUMP JUMPDEST PUSH2 0x522 DUP7 DUP1 PUSH2 0x15C0 JUMP JUMPDEST PUSH2 0x52C SWAP2 SWAP1 PUSH2 0x15EF JUMP JUMPDEST SWAP1 POP PUSH0 PUSH2 0x53D PUSH2 0x4C9 PUSH1 0x2 DUP5 PUSH2 0x1616 JUMP JUMPDEST PUSH2 0x548 SWAP1 PUSH1 0x2 PUSH2 0x15C0 JUMP JUMPDEST SWAP1 POP PUSH8 0xDE0B6B3A7640000 PUSH2 0x55D DUP3 DUP14 PUSH2 0x15C0 JUMP JUMPDEST PUSH2 0x567 SWAP2 SWAP1 PUSH2 0x1616 JUMP JUMPDEST SWAP12 POP POP POP POP POP POP POP POP POP POP POP POP SWAP5 SWAP4 POP POP POP POP JUMP JUMPDEST PUSH0 CALLER ORIGIN EQ PUSH2 0x5A5 JUMPI PUSH1 0x40 MLOAD PUSH3 0x461BCD PUSH1 0xE5 SHL DUP2 MSTORE PUSH1 0x4 ADD PUSH2 0x59C SWAP1 PUSH2 0x1642 JUMP JUMPDEST PUSH1 0x40 MLOAD DUP1 SWAP2 SUB SWAP1 REVERT JUMPDEST CALLER PUSH0 DUP2 DUP2 MSTORE PUSH1 0x5 PUSH1 0x20 MSTORE PUSH1 0x40 SWAP1 KECCAK256 PUSH1 0x3 ADD SLOAD TIMESTAMP GT ISZERO PUSH2 0x5D6 JUMPI PUSH1 0x40 MLOAD PUSH3 0x461BCD PUSH1 0xE5 SHL DUP2 MSTORE PUSH1 0x4 ADD PUSH2 0x59C SWAP1 PUSH2 0x1677 JUMP JUMPDEST PUSH1 0x1 PUSH1 0x1 PUSH1 0xA0 SHL SUB AND PUSH0 SWAP1 DUP2 MSTORE PUSH1 0x5 PUSH1 0x20 MSTORE PUSH1 0x40 SWAP1 KECCAK256 PUSH1 0x1 ADD SLOAD SWAP1 POP SWAP1 JUMP JUMPDEST PUSH2 0x5FD PUSH2 0x1002 JUMP JUMPDEST PUSH1 0x6 DUP1 SLOAD PUSH1 0x1 PUSH1 0x1 PUSH1 0xA0 SHL SUB NOT AND PUSH1 0x1 PUSH1 0x1 PUSH1 0xA0 SHL SUB SWAP3 SWAP1 SWAP3 AND SWAP2 SWAP1 SWAP2 OR SWAP1 SSTORE JUMP JUMPDEST PUSH2 0x627 PUSH2 0x1002 JUMP JUMPDEST PUSH1 0x1 PUSH1 0x1 PUSH1 0xA0 SHL SUB DUP6 DUP2 AND PUSH0 SWAP1 DUP2 MSTORE PUSH1 0x5 PUSH1 0x20 MSTORE PUSH1 0x40 SWAP1 KECCAK256 SLOAD AND ISZERO PUSH2 0x688 JUMPI PUSH1 0x40 MLOAD PUSH3 0x461BCD PUSH1 0xE5 SHL DUP2 MSTORE PUSH1 0x20 PUSH1 0x4 DUP3 ADD MSTORE PUSH1 0x17 PUSH1 0x24 DUP3 ADD MSTORE PUSH23 0x53686F77726F6F6D20616C726561647920657869737473 PUSH1 0x48 SHL PUSH1 0x44 DUP3 ADD MSTORE PUSH1 0x64 ADD PUSH2 0x59C JUMP JUMPDEST PUSH1 0x40 MLOAD DUP1 PUSH2 0x100 ADD PUSH1 0x40 MSTORE DUP1 DUP6 PUSH1 0x1 PUSH1 0x1 PUSH1 0xA0 SHL SUB AND DUP2 MSTORE PUSH1 0x20 ADD DUP5 PUSH1 0x4 DUP2 GT ISZERO PUSH2 0x6B5 JUMPI PUSH2 0x6B5 PUSH2 0x13AD JUMP JUMPDEST DUP2 MSTORE PUSH0 PUSH1 0x20 DUP3 ADD DUP2 SWAP1 MSTORE PUSH1 0x40 DUP3 ADD MSTORE PUSH1 0x60 ADD PUSH2 0x6D5 TIMESTAMP PUSH4 0x1E13380 PUSH2 0x16A1 JUMP JUMPDEST DUP2 MSTORE PUSH1 0x20 DUP1 DUP3 ADD DUP6 SWAP1 MSTORE PUSH1 0x40 DUP1 DUP4 ADD DUP6 SWAP1 MSTORE PUSH1 0x1 PUSH1 0x1 PUSH1 0xA0 SHL SUB DUP1 DUP11 AND PUSH1 0x60 SWAP1 SWAP5 ADD DUP5 SWAP1 MSTORE PUSH0 SWAP4 DUP5 MSTORE PUSH1 0x5 DUP4 MSTORE SWAP3 KECCAK256 DUP4 MLOAD DUP2 SLOAD SWAP4 AND PUSH1 0x1 PUSH1 0x1 PUSH1 0xA0 SHL SUB NOT DUP5 AND DUP2 OR DUP3 SSTORE SWAP2 DUP5 ADD MLOAD SWAP1 SWAP3 SWAP1 SWAP2 DUP4 SWAP2 PUSH1 0x1 PUSH1 0x1 PUSH1 0xA8 SHL SUB NOT AND OR PUSH1 0x1 PUSH1 0xA0 SHL DUP4 PUSH1 0x4 DUP2 GT ISZERO PUSH2 0x745 JUMPI PUSH2 0x745 PUSH2 0x13AD JUMP JUMPDEST MUL OR SWAP1 SSTORE POP PUSH1 0x40 DUP3 ADD MLOAD PUSH1 0x1 DUP3 DUP2 ADD SWAP2 SWAP1 SWAP2 SSTORE PUSH1 0x60 DUP4 ADD MLOAD PUSH1 0x2 DUP4 ADD SSTORE PUSH1 0x80 DUP4 ADD MLOAD PUSH1 0x3 DUP4 ADD SSTORE PUSH1 0xA0 DUP4 ADD MLOAD PUSH1 0x4 DUP1 DUP5 ADD SWAP2 SWAP1 SWAP2 SSTORE PUSH1 0xC0 DUP5 ADD MLOAD PUSH1 0x5 DUP5 ADD SSTORE PUSH1 0xE0 SWAP1 SWAP4 ADD MLOAD PUSH1 0x6 SWAP1 SWAP3 ADD DUP1 SLOAD PUSH1 0x1 PUSH1 0x1 PUSH1 0xA0 SHL SUB NOT SWAP1 DUP2 AND PUSH1 0x1 PUSH1 0x1 PUSH1 0xA0 SHL SUB SWAP5 DUP6 AND OR SWAP1 SWAP2 SSTORE DUP4 SLOAD SWAP2 DUP3 ADD DUP5 SSTORE PUSH0 SWAP4 SWAP1 SWAP4 MSTORE PUSH32 0x8A35ACFBC15FF81A39AE7D344FD709F28E8600B4AA8C65C6B64BFE7FE36BD19B ADD DUP1 SLOAD SWAP1 SWAP3 AND SWAP7 AND SWAP6 SWAP1 SWAP6 OR SWAP1 SWAP5 SSTORE POP POP POP POP JUMP JUMPDEST CALLER ORIGIN EQ PUSH2 0x80D JUMPI PUSH1 0x40 MLOAD PUSH3 0x461BCD PUSH1 0xE5 SHL DUP2 MSTORE PUSH1 0x4 ADD PUSH2 0x59C SWAP1 PUSH2 0x1642 JUMP JUMPDEST CALLER PUSH0 DUP2 DUP2 MSTORE PUSH1 0x5 PUSH1 0x20 MSTORE PUSH1 0x40 SWAP1 KECCAK256 PUSH1 0x1 ADD SLOAD DUP4 DUP2 LT ISZERO PUSH2 0x866 JUMPI PUSH1 0x40 MLOAD PUSH3 0x461BCD PUSH1 0xE5 SHL DUP2 MSTORE PUSH1 0x20 PUSH1 0x4 DUP3 ADD MSTORE PUSH1 0x14 PUSH1 0x24 DUP3 ADD MSTORE PUSH20 0x496E73756666696369656E742062616C616E6365 PUSH1 0x60 SHL PUSH1 0x44 DUP3 ADD MSTORE PUSH1 0x64 ADD PUSH2 0x59C JUMP JUMPDEST PUSH1 0x1 PUSH1 0x1 PUSH1 0xA0 SHL SUB DUP3 AND PUSH0 SWAP1 DUP2 MSTORE PUSH1 0x5 PUSH1 0x20 MSTORE PUSH1 0x40 SWAP1 KECCAK256 PUSH1 0x3 ADD SLOAD TIMESTAMP GT ISZERO PUSH2 0x8A0 JUMPI PUSH1 0x40 MLOAD PUSH3 0x461BCD PUSH1 0xE5 SHL DUP2 MSTORE PUSH1 0x4 ADD PUSH2 0x59C SWAP1 PUSH2 0x1677 JUMP JUMPDEST PUSH1 0x6 SLOAD PUSH1 0x40 MLOAD PUSH4 0x61601F9 PUSH1 0xE2 SHL DUP2 MSTORE PUSH1 0x1 PUSH1 0x1 PUSH1 0xA0 SHL SUB SWAP1 SWAP2 AND SWAP1 DUP2 SWAP1 PUSH4 0x185807E4 SWAP1 PUSH2 0x8D6 SWAP1 DUP9 SWAP1 DUP8 SWAP1 DUP10 SWAP1 PUSH1 0x4 ADD PUSH2 0x16B4 JUMP JUMPDEST PUSH0 PUSH1 0x40 MLOAD DUP1 DUP4 SUB DUP2 PUSH0 DUP8 DUP1 EXTCODESIZE ISZERO DUP1 ISZERO PUSH2 0x8ED JUMPI PUSH0 DUP1 REVERT JUMPDEST POP GAS CALL ISZERO DUP1 ISZERO PUSH2 0x8FF JUMPI RETURNDATASIZE PUSH0 DUP1 RETURNDATACOPY RETURNDATASIZE PUSH0 REVERT JUMPDEST POP POP POP POP POP POP POP POP POP JUMP JUMPDEST PUSH0 PUSH1 0x2 PUSH0 DUP4 PUSH1 0x4 DUP2 GT ISZERO PUSH2 0x920 JUMPI PUSH2 0x920 PUSH2 0x13AD JUMP JUMPDEST PUSH1 0x4 DUP2 GT ISZERO PUSH2 0x931 JUMPI PUSH2 0x931 PUSH2 0x13AD JUMP JUMPDEST DUP2 MSTORE PUSH1 0x20 ADD SWAP1 DUP2 MSTORE PUSH1 0x20 ADD PUSH0 KECCAK256 SLOAD SWAP1 POP SWAP2 SWAP1 POP JUMP JUMPDEST PUSH2 0x94E PUSH2 0x1002 JUMP JUMPDEST DUP1 PUSH1 0x1 PUSH0 DUP5 PUSH1 0x4 DUP2 GT ISZERO PUSH2 0x3C3 JUMPI PUSH2 0x3C3 PUSH2 0x13AD JUMP JUMPDEST PUSH0 PUSH1 0x3 PUSH0 DUP4 PUSH1 0x4 DUP2 GT ISZERO PUSH2 0x920 JUMPI PUSH2 0x920 PUSH2 0x13AD JUMP JUMPDEST PUSH1 0x4 DUP2 DUP2 SLOAD DUP2 LT PUSH2 0x989 JUMPI PUSH0 DUP1 REVERT JUMPDEST PUSH0 SWAP2 DUP3 MSTORE PUSH1 0x20 SWAP1 SWAP2 KECCAK256 ADD SLOAD PUSH1 0x1 PUSH1 0x1 PUSH1 0xA0 SHL SUB AND SWAP1 POP DUP2 JUMP JUMPDEST PUSH2 0x9AA PUSH2 0x1002 JUMP JUMPDEST PUSH2 0x9B3 PUSH0 PUSH2 0x1125 JUMP JUMPDEST JUMP JUMPDEST PUSH0 DUP1 PUSH0 JUMPDEST PUSH1 0x4 SLOAD DUP2 LT ISZERO PUSH2 0xB36 JUMPI PUSH0 PUSH1 0x4 DUP3 DUP2 SLOAD DUP2 LT PUSH2 0x9D7 JUMPI PUSH2 0x9D7 PUSH2 0x1712 JUMP JUMPDEST PUSH0 SWAP2 DUP3 MSTORE PUSH1 0x20 SWAP1 SWAP2 KECCAK256 ADD SLOAD PUSH1 0x1 PUSH1 0x1 PUSH1 0xA0 SHL SUB AND SWAP1 POP DUP1 ISZERO DUP1 PUSH2 0xA13 JUMPI POP PUSH1 0x1 PUSH1 0x1 PUSH1 0xA0 SHL SUB DUP2 AND PUSH0 SWAP1 DUP2 MSTORE PUSH1 0x5 PUSH1 0x20 MSTORE PUSH1 0x40 SWAP1 KECCAK256 PUSH1 0x3 ADD SLOAD TIMESTAMP GT JUMPDEST ISZERO PUSH2 0xA1E JUMPI POP PUSH2 0xB2E JUMP JUMPDEST PUSH1 0x1 PUSH1 0x1 PUSH1 0xA0 SHL SUB DUP2 AND PUSH0 SWAP1 DUP2 MSTORE PUSH1 0x5 PUSH1 0x20 MSTORE PUSH1 0x40 DUP2 KECCAK256 SLOAD PUSH1 0x1 PUSH1 0xA0 SHL SWAP1 DIV PUSH1 0xFF AND SWAP1 DUP2 PUSH1 0x4 DUP2 GT ISZERO PUSH2 0xA53 JUMPI PUSH2 0xA53 PUSH2 0x13AD JUMP JUMPDEST SUB PUSH2 0xA5F JUMPI POP POP PUSH2 0xB2E JUMP JUMPDEST PUSH1 0x1 PUSH1 0x1 PUSH1 0xA0 SHL SUB DUP3 AND PUSH0 SWAP1 DUP2 MSTORE PUSH1 0x5 PUSH1 0x20 DUP2 SWAP1 MSTORE PUSH1 0x40 DUP3 KECCAK256 SWAP1 DUP2 ADD SLOAD PUSH1 0x4 SWAP1 SWAP2 ADD SLOAD PUSH2 0xA90 SWAP2 DUP11 SWAP2 DUP11 SWAP2 SWAP1 PUSH2 0x3E8 JUMP JUMPDEST SWAP1 POP PUSH1 0x3 PUSH0 DUP4 PUSH1 0x4 DUP2 GT ISZERO PUSH2 0xAA7 JUMPI PUSH2 0xAA7 PUSH2 0x13AD JUMP JUMPDEST PUSH1 0x4 DUP2 GT ISZERO PUSH2 0xAB8 JUMPI PUSH2 0xAB8 PUSH2 0x13AD JUMP JUMPDEST DUP2 MSTORE PUSH1 0x20 ADD SWAP1 DUP2 MSTORE PUSH1 0x20 ADD PUSH0 KECCAK256 SLOAD DUP2 LT ISZERO PUSH2 0xAD8 JUMPI DUP3 SWAP5 POP POP POP POP PUSH2 0xB36 JUMP JUMPDEST PUSH1 0x1 PUSH1 0x1 PUSH1 0xA0 SHL SUB DUP6 AND ISZERO DUP1 ISZERO PUSH2 0xB21 JUMPI POP PUSH1 0x2 PUSH0 DUP4 PUSH1 0x4 DUP2 GT ISZERO PUSH2 0xAFF JUMPI PUSH2 0xAFF PUSH2 0x13AD JUMP JUMPDEST PUSH1 0x4 DUP2 GT ISZERO PUSH2 0xB10 JUMPI PUSH2 0xB10 PUSH2 0x13AD JUMP JUMPDEST DUP2 MSTORE PUSH1 0x20 ADD SWAP1 DUP2 MSTORE PUSH1 0x20 ADD PUSH0 KECCAK256 SLOAD DUP2 LT JUMPDEST ISZERO PUSH2 0xB2A JUMPI DUP3 SWAP5 POP JUMPDEST POP POP POP JUMPDEST PUSH1 0x1 ADD PUSH2 0x9B9 JUMP JUMPDEST POP SWAP1 POP JUMPDEST SWAP3 SWAP2 POP POP JUMP JUMPDEST PUSH0 SLOAD PUSH1 0x1 PUSH1 0x1 PUSH1 0xA0 SHL SUB AND SWAP1 JUMP JUMPDEST PUSH1 0x60 PUSH0 DUP3 GT DUP1 ISZERO PUSH2 0xB60 JUMPI POP PUSH1 0x32 DUP3 GT ISZERO JUMPDEST PUSH2 0xBB6 JUMPI PUSH1 0x40 MLOAD PUSH3 0x461BCD PUSH1 0xE5 SHL DUP2 MSTORE PUSH1 0x20 PUSH1 0x4 DUP3 ADD MSTORE PUSH1 0x21 PUSH1 0x24 DUP3 ADD MSTORE PUSH32 0x7061676553697A65206D757374206265206265747765656E203120616E642035 PUSH1 0x44 DUP3 ADD MSTORE PUSH1 0x3 PUSH1 0xFC SHL PUSH1 0x64 DUP3 ADD MSTORE PUSH1 0x84 ADD PUSH2 0x59C JUMP JUMPDEST PUSH1 0x4 SLOAD DUP1 DUP5 LT PUSH2 0xBF9 JUMPI PUSH1 0x40 DUP1 MLOAD PUSH0 DUP1 DUP3 MSTORE PUSH1 0x20 DUP3 ADD SWAP1 SWAP3 MSTORE SWAP1 PUSH2 0xBF0 JUMP JUMPDEST PUSH2 0xBDD PUSH2 0x1174 JUMP JUMPDEST DUP2 MSTORE PUSH1 0x20 ADD SWAP1 PUSH1 0x1 SWAP1 SUB SWAP1 DUP2 PUSH2 0xBD5 JUMPI SWAP1 POP JUMPDEST POP SWAP2 POP POP PUSH2 0xB3A JUMP JUMPDEST PUSH0 PUSH2 0xC04 DUP5 DUP7 PUSH2 0x16A1 JUMP JUMPDEST SWAP1 POP DUP2 DUP2 GT ISZERO PUSH2 0xC11 JUMPI POP DUP1 JUMPDEST PUSH0 PUSH2 0xC1C DUP7 DUP4 PUSH2 0x1726 JUMP JUMPDEST PUSH1 0x1 PUSH1 0x1 PUSH1 0x40 SHL SUB DUP2 GT ISZERO PUSH2 0xC33 JUMPI PUSH2 0xC33 PUSH2 0x12C6 JUMP JUMPDEST PUSH1 0x40 MLOAD SWAP1 DUP1 DUP3 MSTORE DUP1 PUSH1 0x20 MUL PUSH1 0x20 ADD DUP3 ADD PUSH1 0x40 MSTORE DUP1 ISZERO PUSH2 0xC6C JUMPI DUP2 PUSH1 0x20 ADD JUMPDEST PUSH2 0xC59 PUSH2 0x1174 JUMP JUMPDEST DUP2 MSTORE PUSH1 0x20 ADD SWAP1 PUSH1 0x1 SWAP1 SUB SWAP1 DUP2 PUSH2 0xC51 JUMPI SWAP1 POP JUMPDEST POP SWAP1 POP PUSH0 DUP7 JUMPDEST DUP4 DUP2 LT ISZERO PUSH2 0xD7B JUMPI PUSH1 0x5 PUSH0 PUSH1 0x4 DUP4 DUP2 SLOAD DUP2 LT PUSH2 0xC90 JUMPI PUSH2 0xC90 PUSH2 0x1712 JUMP JUMPDEST PUSH0 SWAP2 DUP3 MSTORE PUSH1 0x20 DUP1 DUP4 KECCAK256 SWAP1 SWAP2 ADD SLOAD PUSH1 0x1 PUSH1 0x1 PUSH1 0xA0 SHL SUB SWAP1 DUP2 AND DUP5 MSTORE DUP4 DUP3 ADD SWAP5 SWAP1 SWAP5 MSTORE PUSH1 0x40 SWAP3 DUP4 ADD SWAP1 SWAP2 KECCAK256 DUP3 MLOAD PUSH2 0x100 DUP2 ADD SWAP1 SWAP4 MSTORE DUP1 SLOAD SWAP4 DUP5 AND DUP4 MSTORE SWAP2 SWAP3 SWAP1 DUP4 ADD SWAP1 PUSH1 0xFF PUSH1 0x1 PUSH1 0xA0 SHL SWAP1 SWAP2 DIV AND PUSH1 0x4 DUP2 GT ISZERO PUSH2 0xCEC JUMPI PUSH2 0xCEC PUSH2 0x13AD JUMP JUMPDEST PUSH1 0x4 DUP2 GT ISZERO PUSH2 0xCFD JUMPI PUSH2 0xCFD PUSH2 0x13AD JUMP JUMPDEST DUP2 MSTORE PUSH1 0x1 DUP3 ADD SLOAD PUSH1 0x20 DUP3 ADD MSTORE PUSH1 0x2 DUP3 ADD SLOAD PUSH1 0x40 DUP3 ADD MSTORE PUSH1 0x3 DUP3 ADD SLOAD PUSH1 0x60 DUP3 ADD MSTORE PUSH1 0x4 DUP3 ADD SLOAD PUSH1 0x80 DUP3 ADD MSTORE PUSH1 0x5 DUP3 ADD SLOAD PUSH1 0xA0 DUP3 ADD MSTORE PUSH1 0x6 SWAP1 SWAP2 ADD SLOAD PUSH1 0x1 PUSH1 0x1 PUSH1 0xA0 SHL SUB AND PUSH1 0xC0 SWAP1 SWAP2 ADD MSTORE DUP4 MLOAD DUP5 SWAP1 DUP5 SWAP1 DUP2 LT PUSH2 0xD5A JUMPI PUSH2 0xD5A PUSH2 0x1712 JUMP JUMPDEST PUSH1 0x20 MUL PUSH1 0x20 ADD ADD DUP2 SWAP1 MSTORE POP DUP2 DUP1 PUSH2 0xD70 SWAP1 PUSH2 0x1739 JUMP JUMPDEST SWAP3 POP POP PUSH1 0x1 ADD PUSH2 0xC72 JUMP JUMPDEST POP SWAP1 SWAP7 SWAP6 POP POP POP POP POP POP JUMP JUMPDEST PUSH2 0xD8F PUSH2 0x1002 JUMP JUMPDEST DUP1 PUSH1 0x3 PUSH0 DUP5 PUSH1 0x4 DUP2 GT ISZERO PUSH2 0x3C3 JUMPI PUSH2 0x3C3 PUSH2 0x13AD JUMP JUMPDEST PUSH2 0xDAD PUSH2 0x1002 JUMP JUMPDEST PUSH2 0xDBA DUP2 PUSH3 0x15180 PUSH2 0x1582 JUMP JUMPDEST PUSH2 0xDC4 SWAP1 TIMESTAMP PUSH2 0x16A1 JUMP JUMPDEST PUSH1 0x1 PUSH1 0x1 PUSH1 0xA0 SHL SUB SWAP1 SWAP3 AND PUSH0 SWAP1 DUP2 MSTORE PUSH1 0x5 PUSH1 0x20 MSTORE PUSH1 0x40 SWAP1 KECCAK256 PUSH1 0x3 ADD SWAP2 SWAP1 SWAP2 SSTORE POP JUMP JUMPDEST PUSH1 0x6 SLOAD PUSH0 SWAP1 PUSH1 0x1 PUSH1 0x1 PUSH1 0xA0 SHL SUB AND CALLER EQ PUSH2 0xE12 JUMPI PUSH1 0x40 MLOAD PUSH3 0x461BCD PUSH1 0xE5 SHL DUP2 MSTORE PUSH1 0x4 ADD PUSH2 0x59C SWAP1 PUSH2 0x1751 JUMP JUMPDEST PUSH1 0x1 PUSH1 0x1 PUSH1 0xA0 SHL SUB DUP4 AND PUSH0 SWAP1 DUP2 MSTORE PUSH1 0x5 PUSH1 0x20 MSTORE PUSH1 0x40 SWAP1 KECCAK256 PUSH1 0x3 ADD SLOAD TIMESTAMP LT PUSH2 0xE3A JUMPI POP PUSH0 PUSH2 0xB3A JUMP JUMPDEST PUSH1 0x1 PUSH1 0x1 PUSH1 0xA0 SHL SUB DUP4 AND PUSH0 SWAP1 DUP2 MSTORE PUSH1 0x5 PUSH1 0x20 MSTORE PUSH1 0x40 DUP2 KECCAK256 PUSH1 0x1 ADD DUP1 SLOAD DUP5 SWAP3 SWAP1 PUSH2 0xE64 SWAP1 DUP5 SWAP1 PUSH2 0x16A1 JUMP JUMPDEST SWAP1 SWAP2 SSTORE POP POP PUSH1 0x1 PUSH1 0x1 PUSH1 0xA0 SHL SUB DUP4 AND PUSH0 SWAP1 DUP2 MSTORE PUSH1 0x5 PUSH1 0x20 MSTORE PUSH1 0x40 DUP2 KECCAK256 SLOAD PUSH1 0x1 PUSH1 0xA0 SHL SWAP1 DIV PUSH1 0xFF AND SWAP1 PUSH1 0x1 DUP2 DUP4 PUSH1 0x4 DUP2 GT ISZERO PUSH2 0xEA1 JUMPI PUSH2 0xEA1 PUSH2 0x13AD JUMP JUMPDEST PUSH1 0x4 DUP2 GT ISZERO PUSH2 0xEB2 JUMPI PUSH2 0xEB2 PUSH2 0x13AD JUMP JUMPDEST DUP2 MSTORE PUSH1 0x20 DUP2 ADD SWAP2 SWAP1 SWAP2 MSTORE PUSH1 0x40 ADD PUSH0 KECCAK256 SLOAD SWAP6 SWAP5 POP POP POP POP POP JUMP JUMPDEST PUSH1 0x6 SLOAD PUSH0 SWAP1 PUSH1 0x1 PUSH1 0x1 PUSH1 0xA0 SHL SUB AND CALLER EQ PUSH2 0xEF7 JUMPI PUSH1 0x40 MLOAD PUSH3 0x461BCD PUSH1 0xE5 SHL DUP2 MSTORE PUSH1 0x4 ADD PUSH2 0x59C SWAP1 PUSH2 0x1751 JUMP JUMPDEST PUSH1 0x1 PUSH1 0x1 PUSH1 0xA0 SHL SUB DUP4 AND PUSH0 SWAP1 DUP2 MSTORE PUSH1 0x5 PUSH1 0x20 MSTORE PUSH1 0x40 SWAP1 KECCAK256 PUSH1 0x3 ADD SLOAD TIMESTAMP LT PUSH2 0xF1F JUMPI POP PUSH0 PUSH2 0xB3A JUMP JUMPDEST PUSH1 0x1 PUSH1 0x1 PUSH1 0xA0 SHL SUB DUP4 AND PUSH0 SWAP1 DUP2 MSTORE PUSH1 0x5 PUSH1 0x20 MSTORE PUSH1 0x40 DUP2 KECCAK256 PUSH1 0x2 ADD DUP1 SLOAD DUP5 SWAP3 SWAP1 PUSH2 0xF49 SWAP1 DUP5 SWAP1 PUSH2 0x16A1 JUMP JUMPDEST SWAP1 SWAP2 SSTORE POP POP PUSH1 0x1 PUSH1 0x1 PUSH1 0xA0 SHL SUB DUP4 AND PUSH0 SWAP1 DUP2 MSTORE PUSH1 0x5 PUSH1 0x20 MSTORE PUSH1 0x40 DUP2 KECCAK256 SLOAD PUSH1 0x1 SWAP1 DUP3 SWAP1 PUSH1 0x1 PUSH1 0xA0 SHL SWAP1 DIV PUSH1 0xFF AND PUSH1 0x4 DUP2 GT ISZERO PUSH2 0xF86 JUMPI PUSH2 0xF86 PUSH2 0x13AD JUMP JUMPDEST PUSH1 0x4 DUP2 GT ISZERO PUSH2 0xF97 JUMPI PUSH2 0xF97 PUSH2 0x13AD JUMP JUMPDEST DUP2 MSTORE PUSH1 0x20 DUP2 ADD SWAP2 SWAP1 SWAP2 MSTORE PUSH1 0x40 ADD PUSH0 KECCAK256 SLOAD SWAP5 SWAP4 POP POP POP POP JUMP JUMPDEST PUSH0 PUSH1 0x1 PUSH0 DUP4 PUSH1 0x4 DUP2 GT ISZERO PUSH2 0x920 JUMPI PUSH2 0x920 PUSH2 0x13AD JUMP JUMPDEST PUSH2 0xFCD PUSH2 0x1002 JUMP JUMPDEST PUSH1 0x1 PUSH1 0x1 PUSH1 0xA0 SHL SUB DUP2 AND PUSH2 0xFF6 JUMPI PUSH0 PUSH1 0x40 MLOAD PUSH4 0x1E4FBDF7 PUSH1 0xE0 SHL DUP2 MSTORE PUSH1 0x4 ADD PUSH2 0x59C SWAP2 SWAP1 PUSH2 0x1450 JUMP JUMPDEST PUSH2 0xFFF DUP2 PUSH2 0x1125 JUMP JUMPDEST POP JUMP JUMPDEST CALLER PUSH2 0x100B PUSH2 0xB40 JUMP JUMPDEST PUSH1 0x1 PUSH1 0x1 PUSH1 0xA0 SHL SUB AND EQ PUSH2 0x9B3 JUMPI CALLER PUSH1 0x40 MLOAD PUSH4 0x118CDAA7 PUSH1 0xE0 SHL DUP2 MSTORE PUSH1 0x4 ADD PUSH2 0x59C SWAP2 SWAP1 PUSH2 0x1450 JUMP JUMPDEST PUSH0 DUP1 DUP3 SLT PUSH2 0x1042 JUMPI DUP2 PUSH2 0xB3A JUMP JUMPDEST PUSH2 0xB3A DUP3 PUSH2 0x1779 JUMP JUMPDEST PUSH8 0x57325BBF446493AC SWAP1 DUP2 SWAP1 MOD PUSH4 0x40000000 MUL DIV PUSH0 PUSH2 0xFFFF PUSH1 0x4 DUP4 SWAP1 SHR AND PUSH1 0xFF PUSH1 0x14 DUP5 SWAP1 SHR AND PUSH4 0x10000000 DUP5 AND ISZERO PUSH4 0x20000000 DUP6 AND ISZERO ISZERO DUP2 PUSH2 0x108F JUMPI PUSH1 0xFF SWAP3 SWAP1 SWAP3 SUB SWAP2 JUMPDEST PUSH0 PUSH1 0x40 MLOAD DUP1 PUSH2 0x440 ADD PUSH1 0x40 MSTORE DUP1 PUSH2 0x404 DUP2 MSTORE PUSH1 0x20 ADD PUSH2 0x1794 PUSH2 0x404 SWAP2 CODECOPY PUSH1 0x4 PUSH1 0x2 DUP7 ADD MUL DUP2 DUP2 ADD MLOAD SWAP2 SWAP3 POP SWAP1 PUSH4 0xFFFFFFFF PUSH1 0x20 DUP3 SWAP1 SHR DUP2 AND SWAP1 DUP3 AND DUP2 DUP2 SUB DUP10 MUL PUSH1 0x10 SHR PUSH0 DUP9 PUSH2 0x10E0 JUMPI DUP2 DUP4 SUB PUSH2 0x10E4 JUMP JUMPDEST DUP2 DUP5 ADD JUMPDEST SWAP1 POP DUP8 ISZERO PUSH2 0x10EF JUMPI PUSH0 SUB JUMPDEST PUSH4 0x7FFFFFFF PUSH8 0xDE0B6B3A7640000 DUP3 MUL SDIV SWAP14 SWAP13 POP POP POP POP POP POP POP POP POP POP POP POP POP JUMP JUMPDEST PUSH0 PUSH2 0xB3A PUSH8 0x15CC96EFD11924EB DUP4 ADD PUSH2 0x104B JUMP JUMPDEST PUSH0 DUP1 SLOAD PUSH1 0x1 PUSH1 0x1 PUSH1 0xA0 SHL SUB DUP4 DUP2 AND PUSH1 0x1 PUSH1 0x1 PUSH1 0xA0 SHL SUB NOT DUP4 AND DUP2 OR DUP5 SSTORE PUSH1 0x40 MLOAD SWAP2 SWAP1 SWAP3 AND SWAP3 DUP4 SWAP2 PUSH32 0x8BE0079C531659141344CD1FD0A4F28419497F9722A3DAAFE3B4186F6B6457E0 SWAP2 SWAP1 LOG3 POP POP JUMP JUMPDEST PUSH1 0x40 DUP1 MLOAD PUSH2 0x100 DUP2 ADD SWAP1 SWAP2 MSTORE PUSH0 DUP1 DUP3 MSTORE PUSH1 0x20 DUP3 ADD SWAP1 DUP2 MSTORE PUSH1 0x20 ADD PUSH0 DUP2 MSTORE PUSH1 0x20 ADD PUSH0 DUP2 MSTORE PUSH1 0x20 ADD PUSH0 DUP2 MSTORE PUSH1 0x20 ADD PUSH0 DUP2 MSTORE PUSH1 0x20 ADD PUSH0 DUP2 MSTORE PUSH1 0x20 ADD PUSH0 PUSH1 0x1 PUSH1 0x1 PUSH1 0xA0 SHL SUB AND DUP2 MSTORE POP SWAP1 JUMP JUMPDEST DUP1 CALLDATALOAD PUSH1 0x5 DUP2 LT PUSH2 0x11CA JUMPI PUSH0 DUP1 REVERT JUMPDEST SWAP2 SWAP1 POP JUMP JUMPDEST PUSH0 PUSH1 0x20 DUP3 DUP5 SUB SLT ISZERO PUSH2 0x11DF JUMPI PUSH0 DUP1 REVERT JUMPDEST PUSH2 0x11E8 DUP3 PUSH2 0x11BC JUMP JUMPDEST SWAP4 SWAP3 POP POP POP JUMP JUMPDEST PUSH0 DUP1 PUSH1 0x40 DUP4 DUP6 SUB SLT ISZERO PUSH2 0x1200 JUMPI PUSH0 DUP1 REVERT JUMPDEST PUSH2 0x1209 DUP4 PUSH2 0x11BC JUMP JUMPDEST SWAP5 PUSH1 0x20 SWAP4 SWAP1 SWAP4 ADD CALLDATALOAD SWAP4 POP POP POP JUMP JUMPDEST PUSH0 DUP1 PUSH0 DUP1 PUSH1 0x80 DUP6 DUP8 SUB SLT ISZERO PUSH2 0x122A JUMPI PUSH0 DUP1 REVERT JUMPDEST POP POP DUP3 CALLDATALOAD SWAP5 PUSH1 0x20 DUP5 ADD CALLDATALOAD SWAP5 POP PUSH1 0x40 DUP5 ADD CALLDATALOAD SWAP4 PUSH1 0x60 ADD CALLDATALOAD SWAP3 POP SWAP1 POP JUMP JUMPDEST DUP1 CALLDATALOAD PUSH1 0x1 PUSH1 0x1 PUSH1 0xA0 SHL SUB DUP2 AND DUP2 EQ PUSH2 0x11CA JUMPI PUSH0 DUP1 REVERT JUMPDEST PUSH0 PUSH1 0x20 DUP3 DUP5 SUB SLT ISZERO PUSH2 0x126C JUMPI PUSH0 DUP1 REVERT JUMPDEST PUSH2 0x11E8 DUP3 PUSH2 0x1246 JUMP JUMPDEST PUSH0 DUP1 PUSH0 DUP1 PUSH0 PUSH1 0xA0 DUP7 DUP9 SUB SLT ISZERO PUSH2 0x1289 JUMPI PUSH0 DUP1 REVERT JUMPDEST PUSH2 0x1292 DUP7 PUSH2 0x1246 JUMP JUMPDEST SWAP5 POP PUSH2 0x12A0 PUSH1 0x20 DUP8 ADD PUSH2 0x1246 JUMP JUMPDEST SWAP4 POP PUSH2 0x12AE PUSH1 0x40 DUP8 ADD PUSH2 0x11BC JUMP JUMPDEST SWAP5 SWAP8 SWAP4 SWAP7 POP SWAP4 SWAP5 PUSH1 0x60 DUP2 ADD CALLDATALOAD SWAP5 POP PUSH1 0x80 ADD CALLDATALOAD SWAP3 SWAP2 POP POP JUMP JUMPDEST PUSH4 0x4E487B71 PUSH1 0xE0 SHL PUSH0 MSTORE PUSH1 0x41 PUSH1 0x4 MSTORE PUSH1 0x24 PUSH0 REVERT JUMPDEST PUSH0 DUP1 PUSH1 0x40 DUP4 DUP6 SUB SLT ISZERO PUSH2 0x12EB JUMPI PUSH0 DUP1 REVERT JUMPDEST DUP3 CALLDATALOAD SWAP2 POP PUSH1 0x20 DUP4 ADD CALLDATALOAD PUSH1 0x1 PUSH1 0x1 PUSH1 0x40 SHL SUB DUP2 GT ISZERO PUSH2 0x1307 JUMPI PUSH0 DUP1 REVERT JUMPDEST DUP4 ADD PUSH1 0x1F DUP2 ADD DUP6 SGT PUSH2 0x1317 JUMPI PUSH0 DUP1 REVERT JUMPDEST DUP1 CALLDATALOAD PUSH1 0x1 PUSH1 0x1 PUSH1 0x40 SHL SUB DUP2 GT ISZERO PUSH2 0x1330 JUMPI PUSH2 0x1330 PUSH2 0x12C6 JUMP JUMPDEST PUSH1 0x40 MLOAD PUSH1 0x5 DUP3 SWAP1 SHL SWAP1 PUSH1 0x3F DUP3 ADD PUSH1 0x1F NOT AND DUP2 ADD PUSH1 0x1 PUSH1 0x1 PUSH1 0x40 SHL SUB DUP2 GT DUP3 DUP3 LT OR ISZERO PUSH2 0x135E JUMPI PUSH2 0x135E PUSH2 0x12C6 JUMP JUMPDEST PUSH1 0x40 MSTORE SWAP2 DUP3 MSTORE PUSH1 0x20 DUP2 DUP5 ADD DUP2 ADD SWAP3 SWAP1 DUP2 ADD DUP9 DUP5 GT ISZERO PUSH2 0x137B JUMPI PUSH0 DUP1 REVERT JUMPDEST PUSH1 0x20 DUP6 ADD SWAP5 POP JUMPDEST DUP4 DUP6 LT ISZERO PUSH2 0x139E JUMPI DUP5 CALLDATALOAD DUP1 DUP3 MSTORE PUSH1 0x20 SWAP6 DUP7 ADD SWAP6 SWAP1 SWAP4 POP ADD PUSH2 0x1382 JUMP JUMPDEST POP DUP1 SWAP5 POP POP POP POP POP SWAP3 POP SWAP3 SWAP1 POP JUMP JUMPDEST PUSH4 0x4E487B71 PUSH1 0xE0 SHL PUSH0 MSTORE PUSH1 0x21 PUSH1 0x4 MSTORE PUSH1 0x24 PUSH0 REVERT JUMPDEST PUSH1 0x5 DUP2 LT PUSH2 0x13DD JUMPI PUSH4 0x4E487B71 PUSH1 0xE0 SHL PUSH0 MSTORE PUSH1 0x21 PUSH1 0x4 MSTORE PUSH1 0x24 PUSH0 REVERT JUMPDEST SWAP1 MSTORE JUMP JUMPDEST PUSH1 0x1 PUSH1 0x1 PUSH1 0xA0 SHL SUB DUP10 AND DUP2 MSTORE PUSH2 0x100 DUP2 ADD PUSH2 0x13FF PUSH1 0x20 DUP4 ADD DUP11 PUSH2 0x13C1 JUMP JUMPDEST PUSH1 0x40 DUP3 ADD SWAP8 SWAP1 SWAP8 MSTORE PUSH1 0x60 DUP2 ADD SWAP6 SWAP1 SWAP6 MSTORE PUSH1 0x80 DUP6 ADD SWAP4 SWAP1 SWAP4 MSTORE PUSH1 0xA0 DUP5 ADD SWAP2 SWAP1 SWAP2 MSTORE PUSH1 0xC0 DUP4 ADD MSTORE PUSH1 0x1 PUSH1 0x1 PUSH1 0xA0 SHL SUB AND PUSH1 0xE0 SWAP1 SWAP2 ADD MSTORE SWAP3 SWAP2 POP POP JUMP JUMPDEST PUSH0 PUSH1 0x20 DUP3 DUP5 SUB SLT ISZERO PUSH2 0x1449 JUMPI PUSH0 DUP1 REVERT JUMPDEST POP CALLDATALOAD SWAP2 SWAP1 POP JUMP JUMPDEST PUSH1 0x1 PUSH1 0x1 PUSH1 0xA0 SHL SUB SWAP2 SWAP1 SWAP2 AND DUP2 MSTORE PUSH1 0x20 ADD SWAP1 JUMP JUMPDEST PUSH0 DUP1 PUSH1 0x40 DUP4 DUP6 SUB SLT ISZERO PUSH2 0x1475 JUMPI PUSH0 DUP1 REVERT JUMPDEST POP POP DUP1 CALLDATALOAD SWAP3 PUSH1 0x20 SWAP1 SWAP2 ADD CALLDATALOAD SWAP2 POP JUMP JUMPDEST PUSH1 0x20 DUP1 DUP3 MSTORE DUP3 MLOAD DUP3 DUP3 ADD DUP2 SWAP1 MSTORE PUSH0 SWAP2 DUP5 ADD SWAP1 PUSH1 0x40 DUP5 ADD SWAP1 DUP4 JUMPDEST DUP2 DUP2 LT ISZERO PUSH2 0x1523 JUMPI DUP4 MLOAD DUP1 MLOAD PUSH1 0x1 PUSH1 0x1 PUSH1 0xA0 SHL SUB AND DUP5 MSTORE PUSH1 0x20 DUP1 DUP3 ADD MLOAD SWAP1 PUSH2 0x14C7 SWAP1 DUP7 ADD DUP3 PUSH2 0x13C1 JUMP JUMPDEST POP PUSH1 0x40 DUP2 DUP2 ADD MLOAD SWAP1 DUP6 ADD MSTORE PUSH1 0x60 DUP1 DUP3 ADD MLOAD SWAP1 DUP6 ADD MSTORE PUSH1 0x80 DUP1 DUP3 ADD MLOAD SWAP1 DUP6 ADD MSTORE PUSH1 0xA0 DUP1 DUP3 ADD MLOAD SWAP1 DUP6 ADD MSTORE PUSH1 0xC0 DUP1 DUP3 ADD MLOAD SWAP1 DUP6 ADD MSTORE PUSH1 0xE0 SWAP1 DUP2 ADD MLOAD PUSH1 0x1 PUSH1 0x1 PUSH1 0xA0 SHL SUB AND SWAP1 DUP5 ADD MSTORE PUSH1 0x20 SWAP4 SWAP1 SWAP4 ADD SWAP3 PUSH2 0x100 SWAP1 SWAP3 ADD SWAP2 PUSH1 0x1 ADD PUSH2 0x149D JUMP JUMPDEST POP SWAP1 SWAP6 SWAP5 POP POP POP POP POP JUMP JUMPDEST PUSH0 DUP1 PUSH1 0x40 DUP4 DUP6 SUB SLT ISZERO PUSH2 0x153F JUMPI PUSH0 DUP1 REVERT JUMPDEST PUSH2 0x1209 DUP4 PUSH2 0x1246 JUMP JUMPDEST PUSH4 0x4E487B71 PUSH1 0xE0 SHL PUSH0 MSTORE PUSH1 0x11 PUSH1 0x4 MSTORE PUSH1 0x24 PUSH0 REVERT JUMPDEST DUP2 DUP2 SUB PUSH0 DUP4 SLT DUP1 ISZERO DUP4 DUP4 SGT AND DUP4 DUP4 SLT DUP3 AND OR ISZERO PUSH2 0x157B JUMPI PUSH2 0x157B PUSH2 0x1548 JUMP JUMPDEST POP SWAP3 SWAP2 POP POP JUMP JUMPDEST DUP1 DUP3 MUL DUP2 ISZERO DUP3 DUP3 DIV DUP5 EQ OR PUSH2 0xB3A JUMPI PUSH2 0xB3A PUSH2 0x1548 JUMP JUMPDEST PUSH4 0x4E487B71 PUSH1 0xE0 SHL PUSH0 MSTORE PUSH1 0x12 PUSH1 0x4 MSTORE PUSH1 0x24 PUSH0 REVERT JUMPDEST PUSH0 DUP3 PUSH2 0x15BB JUMPI PUSH2 0x15BB PUSH2 0x1599 JUMP JUMPDEST POP DIV SWAP1 JUMP JUMPDEST DUP1 DUP3 MUL PUSH0 DUP3 SLT PUSH1 0x1 PUSH1 0xFF SHL DUP5 EQ AND ISZERO PUSH2 0x15DB JUMPI PUSH2 0x15DB PUSH2 0x1548 JUMP JUMPDEST DUP2 DUP2 SDIV DUP4 EQ DUP3 ISZERO OR PUSH2 0xB3A JUMPI PUSH2 0xB3A PUSH2 0x1548 JUMP JUMPDEST DUP1 DUP3 ADD DUP3 DUP2 SLT PUSH0 DUP4 SLT DUP1 ISZERO DUP3 AND DUP3 ISZERO DUP3 AND OR ISZERO PUSH2 0x160E JUMPI PUSH2 0x160E PUSH2 0x1548 JUMP JUMPDEST POP POP SWAP3 SWAP2 POP POP JUMP JUMPDEST PUSH0 DUP3 PUSH2 0x1624 JUMPI PUSH2 0x1624 PUSH2 0x1599 JUMP JUMPDEST PUSH1 0x1 PUSH1 0xFF SHL DUP3 EQ PUSH0 NOT DUP5 EQ AND ISZERO PUSH2 0x163D JUMPI PUSH2 0x163D PUSH2 0x1548 JUMP JUMPDEST POP SDIV SWAP1 JUMP JUMPDEST PUSH1 0x20 DUP1 DUP3 MSTORE PUSH1 0x1B SWAP1 DUP3 ADD MSTORE PUSH27 0x14DB585C9D0818DBDB9D1C9858DD1CC81B9BDD08185B1B1BDDD959 PUSH1 0x2A SHL PUSH1 0x40 DUP3 ADD MSTORE PUSH1 0x60 ADD SWAP1 JUMP JUMPDEST PUSH1 0x20 DUP1 DUP3 MSTORE PUSH1 0x10 SWAP1 DUP3 ADD MSTORE PUSH16 0x14DA1BDDDC9BDBDB48195E1C1A5C9959 PUSH1 0x82 SHL PUSH1 0x40 DUP3 ADD MSTORE PUSH1 0x60 ADD SWAP1 JUMP JUMPDEST DUP1 DUP3 ADD DUP1 DUP3 GT ISZERO PUSH2 0xB3A JUMPI PUSH2 0xB3A PUSH2 0x1548 JUMP JUMPDEST DUP4 DUP2 MSTORE PUSH1 0x1 PUSH1 0x1 PUSH1 0xA0 SHL SUB DUP4 AND PUSH1 0x20 DUP1 DUP4 ADD SWAP2 SWAP1 SWAP2 MSTORE PUSH1 0x60 PUSH1 0x40 DUP4 ADD DUP2 SWAP1 MSTORE DUP4 MLOAD SWAP1 DUP4 ADD DUP2 SWAP1 MSTORE PUSH0 SWAP2 DUP5 ADD SWAP1 PUSH1 0x80 DUP5 ADD SWAP1 DUP4 JUMPDEST DUP2 DUP2 LT ISZERO PUSH2 0x1705 JUMPI DUP4 MLOAD DUP4 MSTORE PUSH1 0x20 SWAP4 DUP5 ADD SWAP4 SWAP1 SWAP3 ADD SWAP2 PUSH1 0x1 ADD PUSH2 0x16E7 JUMP JUMPDEST POP SWAP1 SWAP8 SWAP7 POP POP POP POP POP POP POP JUMP JUMPDEST PUSH4 0x4E487B71 PUSH1 0xE0 SHL PUSH0 MSTORE PUSH1 0x32 PUSH1 0x4 MSTORE PUSH1 0x24 PUSH0 REVERT JUMPDEST DUP2 DUP2 SUB DUP2 DUP2 GT ISZERO PUSH2 0xB3A JUMPI PUSH2 0xB3A PUSH2 0x1548 JUMP JUMPDEST PUSH0 PUSH1 0x1 DUP3 ADD PUSH2 0x174A JUMPI PUSH2 0x174A PUSH2 0x1548 JUMP JUMPDEST POP PUSH1 0x1 ADD SWAP1 JUMP JUMPDEST PUSH1 0x20 DUP1 DUP3 MSTORE PUSH1 0xE SWAP1 DUP3 ADD MSTORE PUSH14 0x139BDD08185D5D1A1BDC9A5E9959 PUSH1 0x92 SHL PUSH1 0x40 DUP3 ADD MSTORE PUSH1 0x60 ADD SWAP1 JUMP JUMPDEST PUSH0 PUSH1 0x1 PUSH1 0xFF SHL DUP3 ADD PUSH2 0x178D JUMPI PUSH2 0x178D PUSH2 0x1548 JUMP JUMPDEST POP PUSH0 SUB SWAP1 JUMP INVALID STOP STOP STOP STOP STOP 0xC9 0xF DUP9 ADD SWAP3 SAR KECCAK256 MUL JUMPDEST 0x26 0xD7 SUB 0x24 0x2A 0xBF SUB 0xED 0x26 0xE6 DIV 0xB6 NOT TSTORE SDIV PUSH32 0x350647D97C0710A34507D95B9E08A2009A096A90490A3308BC0AFB68050BC3 0xAC CALLDATALOAD 0xC DUP12 0xD3 MCOPY 0xD MSTORE8 0xDB SWAP3 0xE SHL 0xC2 0xE4 0xE 0xE3 DUP8 PUSH7 0xFAB272B1072A0 BASEFEE GT CODECOPY CREATE 0xCF SLT ADD AND 0xD5 SLT 0xC8 LT PUSH15 0x138EDBB1145576B1151BDF8515E214 PREVRANDAO AND 0xA8 SGT SDIV OR PUSH14 0xD9DE183366E818F8B83C19BDCBF3 BYTE DUP3 LOG0 0x25 SHL SELFBALANCE ORIGIN 0xEF SHR SIGNEXTEND DUP3 PUSH11 0x1CCF8CB31D934FE51E56CA 0x1E 0x1F NOT 0xF9 PUSH28 0x1FDCDC1B209F701C2161B39F2223A4C522E541AF23A6887E24677757 0x25 0x28 0xC TSTORE 0x25 0xE8 GASLIMIT 0xB6 0x26 0xA8 0x21 DUP6 0x27 PUSH8 0x9DF42826B92828E5 PUSH18 0x4A29A3C4852A61B1012B1F34EB2BDC4E6F2C SWAP9 0xFB 0xBA 0x2D SSTORE GASPRICE 0xFB 0x2E GT EXP PUSH3 0x2ECC68 0x1E 0x2F DUP8 MSTORE PUSH3 0x3041C7 PUSH1 0x30 0xFB 0xC5 0x4D BALANCE 0xB5 BLOBBASEFEE TSTORE ORIGIN PUSH15 0x54C73326E2C233DEF2873496824F35 0x4D SWAP1 JUMP CALLDATASIZE DIV BYTE 0xD9 CALLDATASIZE 0xBA KECCAK256 SGT CALLDATACOPY PUSH16 0x9E46382493B038D8FE93398CDD323A40 0x2D 0xD1 GASPRICE CALLCODE 0xEE 0xB7 EXTCODESIZE 0xA5 0x1E 0x29 EXTCODECOPY JUMP 0xBA PUSH17 0x3D07C1D53DB832A53E680B2C3F1749B73F 0xC5 0xEC SWAP8 BLOCKHASH PUSH20 0xF21D4121589A41CE1E64427A41D04325C13543D0 SWAP11 0xEC PREVRANDAO PUSH27 0xCD50452456BC45CD358F46756827471CECE647C3C22E4869E66449 0xF JUMPI 0xEE BLOBHASH 0xB4 ISZERO CALLER BLOBBASEFEE PC SHR SWAP14 BLOBBASEFEE 0xFB PUSH13 0x974B9E038F4C3FDFF34CE10034 0x4D DUP2 PUSH3 0xC34E21 MOD OR 0x4E 0xBF 0xE8 LOG4 0x4F MCOPY ADDMOD 0xE2 0x4F 0xFB PUSH6 0x4C5097FC5E51 CALLER 0xCC SWAP5 MLOAD 0xCE 0xD4 PUSH15 0x5269126E53028517539B2AEF543302 PUSH30 0x54CA0A4A556040E255F5A4D2568A34A9571DEEF957B0D2555842DD5458D4 0xE DUP13 MSIZE PUSH5 0x649759F3DE SLT GAS DUP3 PUSH26 0x995B1035CE5B9D11535C290ACC5CB420DF5D3E52365DC79D7B5E POP ADD TSTORE MCOPY 0xD7 PUSH29 0x895F5E0DB25FE3B38D60686CCE60EC382F616F146B61F1003E6271FA68 PUSH3 0xF201AC PUSH4 0x7114CC63 0xEF ORIGIN DUP16 PUSH5 0x6C59BF64E8 DUP10 0x25 PUSH6 0x63BF9165DDFB 0xD2 PUSH7 0x573CBB66CF811F PUSH8 0x46C7D767BD0FBC68 ORIGIN JUMPI 0xAA PUSH9 0xA69E806919E31F698C 0x24 PUSH12 0x69FD614A6A6D98A36ADCC964 PUSH12 0x4AF2786BB812D06C24295F6C DUP16 CALLDATALOAD SHL PUSH13 0xF934FB6D6227F96DCA0D146E30 0xE3 BLOBHASH PUSH15 0x96A99C6EFB5F116F5F02B16FC19384 PUSH17 0x231099708378FE70E2CBC571410804719E 0x2C 0xD1 PUSH18 0xFA394872552C8472AF05A67307C3CF735F66 0x25 PUSH20 0xB5EBD0740B53FA745F9DD074B2C8837504D34475 SSTORE 0xBD 0x4B PUSH22 0xA585CE75F42C0A7641AF3C768E0EA576D9498877235F 0x2C PUSH24 0x6C4EDA77B417DF77FAB988784033287884841378C7ABA179 MULMOD 0xA9 0x2C PUSH26 0x4A7C11798A23B079C89F6D7A05EEAC7A4210D87A7D055A7AB6CB LOG3 PUSH27 0xEF63237B26CB4E7B5D039D7B920B887BC5E28F7BF8882F7C29FBED PUSH29 0x5A3D4F7C894BDD7CB727237CE3CEB17D0F42177D3980EB7D628AC57D8A PUSH0 EXTCODEHASH PUSH30 0xB0FDF77DD6668E7DFA98A77E1D93E97E3F57FE7E5FE4927E7F39567E9D55 0xFB PUSH31 0xBA3A387ED5E5C57EF0585F7F0991C37F2191B37F3857F57F4DE4507F62368E PUSH32 0x754E7F7F872BF27F97CEBC7FA736B37FB563B27FC255957FCE0C3D7FD8878D7F 0xE1 0xC7 PUSH11 0x7FE9CBBF7FF094777FF621 DUP2 PUSH32 0xFA72D07FFD88597FFF62157FFFFFFFA2646970667358221220A636E3C6F51502 0xC9 0x25 LT SWAP14 0x4D 0x4C EXTCODEHASH PUSH9 0x95225ED4A771EE460B 0x4C MUL TSTORE TIMESTAMP REVERT PUSH20 0x34664736F6C634300081A003300000000000000 "
		},
		"gasEstimates": {
			"creation": {
				"codeDepositCost": "1423400",
				"executionCost": "292659",
				"totalCost": "1716059"
			},
			"external": {
				"addShowRoom(address,address,uint8,uint256,uint256)": "infinite",
				"allShowrooms(uint256)": "4899",
				"calculateDistance(uint256,uint256,uint256,uint256)": "infinite",
				"findNearestShowroom(uint256,uint256)": "infinite",
				"getBalance()": "4654",
				"getShowroomCommissionRate(uint8)": "3058",
				"getShowroomSafeRadius(uint8)": "2750",
				"getShowroomScanRadius(uint8)": "2706",
				"getShowrooms(uint256,uint256)": "3063",
				"owner()": "2698",
				"plusCommision(address,uint256)": "34030",
				"plusMember(address,uint256)": "34050",
				"renounceOwnership()": "infinite",
				"safeRadius(uint8)": "2465",
				"scanRadius(uint8)": "2707",
				"setShowroomCommissionRate(uint8,uint256)": "24909",
				"setShowroomExpiryDate(address,uint256)": "infinite",
				"setShowroomSafeRadius(uint8,uint256)": "25151",
				"setShowroomScanRadius(uint8,uint256)": "24755",
				"setTreeCommissionContract(address)": "26843",
				"showroomCommissionRates(uint8)": "2685",
				"showroomNodes(address)": "15795",
				"transferOwnership(address)": "28880",
				"treeCommissionContract()": "2712",
				"withdrawBPFromShowRoom(uint256,bytes32[])": "infinite"
			},
			"internal": {
				"abs(int256)": "123"
			}
		},
		"methodIdentifiers": {
			"addShowRoom(address,address,uint8,uint256,uint256)": "266b09d1",
			"allShowrooms(uint256)": "5f0b032b",
			"calculateDistance(uint256,uint256,uint256,uint256)": "108d4b4e",
			"findNearestShowroom(uint256,uint256)": "7cce9939",
			"getBalance()": "12065fe0",
			"getShowroomCommissionRate(uint8)": "efcf91c7",
			"getShowroomSafeRadius(uint8)": "457142f5",
			"getShowroomScanRadius(uint8)": "3075119d",
			"getShowrooms(uint256,uint256)": "a23d431a",
			"owner()": "8da5cb5b",
			"plusCommision(address,uint256)": "c849c1d0",
			"plusMember(address,uint256)": "da77abed",
			"renounceOwnership()": "715018a6",
			"safeRadius(uint8)": "018f5036",
			"scanRadius(uint8)": "51ecb8af",
			"setShowroomCommissionRate(uint8,uint256)": "3ab32c06",
			"setShowroomExpiryDate(address,uint256)": "bffc0ccd",
			"setShowroomSafeRadius(uint8,uint256)": "bdb561ad",
			"setShowroomScanRadius(uint8,uint256)": "0f937a0a",
			"setTreeCommissionContract(address)": "22a493d7",
			"showroomCommissionRates(uint8)": "47a1efa6",
			"showroomNodes(address)": "53a2dfc1",
			"transferOwnership(address)": "f2fde38b",
			"treeCommissionContract()": "a0815a54",
			"withdrawBPFromShowRoom(uint256,bytes32[])": "2c048f00"
		}
	},
	"abi": [
		{
			"inputs": [],
			"stateMutability": "nonpayable",
			"type": "constructor"
		},
		{
			"inputs": [
				{
					"internalType": "address",
					"name": "owner",
					"type": "address"
				}
			],
			"name": "OwnableInvalidOwner",
			"type": "error"
		},
		{
			"inputs": [
				{
					"internalType": "address",
					"name": "account",
					"type": "address"
				}
			],
			"name": "OwnableUnauthorizedAccount",
			"type": "error"
		},
		{
			"anonymous": false,
			"inputs": [
				{
					"indexed": true,
					"internalType": "address",
					"name": "previousOwner",
					"type": "address"
				},
				{
					"indexed": true,
					"internalType": "address",
					"name": "newOwner",
					"type": "address"
				}
			],
			"name": "OwnershipTransferred",
			"type": "event"
		},
		{
			"anonymous": false,
			"inputs": [
				{
					"indexed": true,
					"internalType": "address",
					"name": "showroom",
					"type": "address"
				},
				{
					"indexed": true,
					"internalType": "address",
					"name": "parent",
					"type": "address"
				}
			],
			"name": "ShowroomAdded",
			"type": "event"
		},
		{
			"inputs": [
				{
					"internalType": "address",
					"name": "newShowroom",
					"type": "address"
				},
				{
					"internalType": "address",
					"name": "parent",
					"type": "address"
				},
				{
					"internalType": "enum Showroom.ShowroomTier",
					"name": "tier",
					"type": "uint8"
				},
				{
					"internalType": "uint256",
					"name": "longtitude",
					"type": "uint256"
				},
				{
					"internalType": "uint256",
					"name": "lattitude",
					"type": "uint256"
				}
			],
			"name": "addShowRoom",
			"outputs": [],
			"stateMutability": "nonpayable",
			"type": "function"
		},
		{
			"inputs": [
				{
					"internalType": "uint256",
					"name": "",
					"type": "uint256"
				}
			],
			"name": "allShowrooms",
			"outputs": [
				{
					"internalType": "address",
					"name": "",
					"type": "address"
				}
			],
			"stateMutability": "view",
			"type": "function"
		},
		{
			"inputs": [
				{
					"internalType": "uint256",
					"name": "lat1",
					"type": "uint256"
				},
				{
					"internalType": "uint256",
					"name": "lon1",
					"type": "uint256"
				},
				{
					"internalType": "uint256",
					"name": "lat2",
					"type": "uint256"
				},
				{
					"internalType": "uint256",
					"name": "lon2",
					"type": "uint256"
				}
			],
			"name": "calculateDistance",
			"outputs": [
				{
					"internalType": "uint256",
					"name": "",
					"type": "uint256"
				}
			],
			"stateMutability": "pure",
			"type": "function"
		},
		{
			"inputs": [
				{
					"internalType": "uint256",
					"name": "userLat",
					"type": "uint256"
				},
				{
					"internalType": "uint256",
					"name": "userLon",
					"type": "uint256"
				}
			],
			"name": "findNearestShowroom",
			"outputs": [
				{
					"internalType": "address",
					"name": "",
					"type": "address"
				}
			],
			"stateMutability": "view",
			"type": "function"
		},
		{
			"inputs": [],
			"name": "getBalance",
			"outputs": [
				{
					"internalType": "uint256",
					"name": "",
					"type": "uint256"
				}
			],
			"stateMutability": "view",
			"type": "function"
		},
		{
			"inputs": [
				{
					"internalType": "enum Showroom.ShowroomTier",
					"name": "tier",
					"type": "uint8"
				}
			],
			"name": "getShowroomCommissionRate",
			"outputs": [
				{
					"internalType": "uint256",
					"name": "",
					"type": "uint256"
				}
			],
			"stateMutability": "view",
			"type": "function"
		},
		{
			"inputs": [
				{
					"internalType": "enum Showroom.ShowroomTier",
					"name": "tier",
					"type": "uint8"
				}
			],
			"name": "getShowroomSafeRadius",
			"outputs": [
				{
					"internalType": "uint256",
					"name": "",
					"type": "uint256"
				}
			],
			"stateMutability": "view",
			"type": "function"
		},
		{
			"inputs": [
				{
					"internalType": "enum Showroom.ShowroomTier",
					"name": "tier",
					"type": "uint8"
				}
			],
			"name": "getShowroomScanRadius",
			"outputs": [
				{
					"internalType": "uint256",
					"name": "",
					"type": "uint256"
				}
			],
			"stateMutability": "view",
			"type": "function"
		},
		{
			"inputs": [
				{
					"internalType": "uint256",
					"name": "startIndex",
					"type": "uint256"
				},
				{
					"internalType": "uint256",
					"name": "pageSize",
					"type": "uint256"
				}
			],
			"name": "getShowrooms",
			"outputs": [
				{
					"components": [
						{
							"internalType": "address",
							"name": "parent",
							"type": "address"
						},
						{
							"internalType": "enum Showroom.ShowroomTier",
							"name": "tier",
							"type": "uint8"
						},
						{
							"internalType": "uint256",
							"name": "totalBP",
							"type": "uint256"
						},
						{
							"internalType": "uint256",
							"name": "totalMember",
							"type": "uint256"
						},
						{
							"internalType": "uint256",
							"name": "expiryDate",
							"type": "uint256"
						},
						{
							"internalType": "uint256",
							"name": "longtitude",
							"type": "uint256"
						},
						{
							"internalType": "uint256",
							"name": "lattitude",
							"type": "uint256"
						},
						{
							"internalType": "address",
							"name": "showroom",
							"type": "address"
						}
					],
					"internalType": "struct Showroom.ShowroomNode[]",
					"name": "",
					"type": "tuple[]"
				}
			],
			"stateMutability": "view",
			"type": "function"
		},
		{
			"inputs": [],
			"name": "owner",
			"outputs": [
				{
					"internalType": "address",
					"name": "",
					"type": "address"
				}
			],
			"stateMutability": "view",
			"type": "function"
		},
		{
			"inputs": [
				{
					"internalType": "address",
					"name": "showroom",
					"type": "address"
				},
				{
					"internalType": "uint256",
					"name": "bp",
					"type": "uint256"
				}
			],
			"name": "plusCommision",
			"outputs": [
				{
					"internalType": "uint256",
					"name": "",
					"type": "uint256"
				}
			],
			"stateMutability": "nonpayable",
			"type": "function"
		},
		{
			"inputs": [
				{
					"internalType": "address",
					"name": "showroom",
					"type": "address"
				},
				{
					"internalType": "uint256",
					"name": "totalMember",
					"type": "uint256"
				}
			],
			"name": "plusMember",
			"outputs": [
				{
					"internalType": "uint256",
					"name": "",
					"type": "uint256"
				}
			],
			"stateMutability": "nonpayable",
			"type": "function"
		},
		{
			"inputs": [],
			"name": "renounceOwnership",
			"outputs": [],
			"stateMutability": "nonpayable",
			"type": "function"
		},
		{
			"inputs": [
				{
					"internalType": "enum Showroom.ShowroomTier",
					"name": "",
					"type": "uint8"
				}
			],
			"name": "safeRadius",
			"outputs": [
				{
					"internalType": "uint256",
					"name": "",
					"type": "uint256"
				}
			],
			"stateMutability": "view",
			"type": "function"
		},
		{
			"inputs": [
				{
					"internalType": "enum Showroom.ShowroomTier",
					"name": "",
					"type": "uint8"
				}
			],
			"name": "scanRadius",
			"outputs": [
				{
					"internalType": "uint256",
					"name": "",
					"type": "uint256"
				}
			],
			"stateMutability": "view",
			"type": "function"
		},
		{
			"inputs": [
				{
					"internalType": "enum Showroom.ShowroomTier",
					"name": "tier",
					"type": "uint8"
				},
				{
					"internalType": "uint256",
					"name": "percent",
					"type": "uint256"
				}
			],
			"name": "setShowroomCommissionRate",
			"outputs": [],
			"stateMutability": "nonpayable",
			"type": "function"
		},
		{
			"inputs": [
				{
					"internalType": "address",
					"name": "showroom",
					"type": "address"
				},
				{
					"internalType": "uint256",
					"name": "changedDays",
					"type": "uint256"
				}
			],
			"name": "setShowroomExpiryDate",
			"outputs": [],
			"stateMutability": "nonpayable",
			"type": "function"
		},
		{
			"inputs": [
				{
					"internalType": "enum Showroom.ShowroomTier",
					"name": "tier",
					"type": "uint8"
				},
				{
					"internalType": "uint256",
					"name": "radius",
					"type": "uint256"
				}
			],
			"name": "setShowroomSafeRadius",
			"outputs": [],
			"stateMutability": "nonpayable",
			"type": "function"
		},
		{
			"inputs": [
				{
					"internalType": "enum Showroom.ShowroomTier",
					"name": "tier",
					"type": "uint8"
				},
				{
					"internalType": "uint256",
					"name": "radius",
					"type": "uint256"
				}
			],
			"name": "setShowroomScanRadius",
			"outputs": [],
			"stateMutability": "nonpayable",
			"type": "function"
		},
		{
			"inputs": [
				{
					"internalType": "address",
					"name": "_treeCommission",
					"type": "address"
				}
			],
			"name": "setTreeCommissionContract",
			"outputs": [],
			"stateMutability": "nonpayable",
			"type": "function"
		},
		{
			"inputs": [
				{
					"internalType": "enum Showroom.ShowroomTier",
					"name": "",
					"type": "uint8"
				}
			],
			"name": "showroomCommissionRates",
			"outputs": [
				{
					"internalType": "uint256",
					"name": "",
					"type": "uint256"
				}
			],
			"stateMutability": "view",
			"type": "function"
		},
		{
			"inputs": [
				{
					"internalType": "address",
					"name": "",
					"type": "address"
				}
			],
			"name": "showroomNodes",
			"outputs": [
				{
					"internalType": "address",
					"name": "parent",
					"type": "address"
				},
				{
					"internalType": "enum Showroom.ShowroomTier",
					"name": "tier",
					"type": "uint8"
				},
				{
					"internalType": "uint256",
					"name": "totalBP",
					"type": "uint256"
				},
				{
					"internalType": "uint256",
					"name": "totalMember",
					"type": "uint256"
				},
				{
					"internalType": "uint256",
					"name": "expiryDate",
					"type": "uint256"
				},
				{
					"internalType": "uint256",
					"name": "longtitude",
					"type": "uint256"
				},
				{
					"internalType": "uint256",
					"name": "lattitude",
					"type": "uint256"
				},
				{
					"internalType": "address",
					"name": "showroom",
					"type": "address"
				}
			],
			"stateMutability": "view",
			"type": "function"
		},
		{
			"inputs": [
				{
					"internalType": "address",
					"name": "newOwner",
					"type": "address"
				}
			],
			"name": "transferOwnership",
			"outputs": [],
			"stateMutability": "nonpayable",
			"type": "function"
		},
		{
			"inputs": [],
			"name": "treeCommissionContract",
			"outputs": [
				{
					"internalType": "address",
					"name": "",
					"type": "address"
				}
			],
			"stateMutability": "view",
			"type": "function"
		},
		{
			"inputs": [
				{
					"internalType": "uint256",
					"name": "amount",
					"type": "uint256"
				},
				{
					"internalType": "bytes32[]",
					"name": "utxoArr",
					"type": "bytes32[]"
				}
			],
			"name": "withdrawBPFromShowRoom",
			"outputs": [],
			"stateMutability": "nonpayable",
			"type": "function"
		}
	]
}