{
	"data": {
		"bytecode": {
			"linkReferences": {},
			"object": "608060405234801561000f575f80fd5b50338061003557604051631e4fbdf760e01b81525f600482015260240160405180910390fd5b61003e81610203565b5060197fcc69885fda6bcc1a4ace058b4a62bf5e179ea78fd58a1ccd71c22cc9b688792f5560327fd9d16d34ffb15ba3a3d852f0d403e2ce1d691fb54de27ac87cd2f993f3ec330f819055604b7f7dfe757ecd65cbd7922a9c0161e935dd7fdbcc0e999689c7d31633896b1fc60b5560647fedc95719e9a3b28dd8e80877cb5880a9be7de1a13fc8b05e7999683b6b5676438190557fe90b7bceb6e7df5418fb78d8ee546e97c83a08bbccc01a0644d599ccd2a7c2e08290556101f47f679795a0195a1b76cdebb7c51d74e058aee92919b8c3389af86ef24535e8a28c8190556107d07f88601476d11616a71c5be67555bd1dff4b1cbf21533d2669b768b61518cfe1c3556113887fee60d0579bcffd98e668647d59fec1ff86a7fb340ce572e844f234ae73a6918f5560036020527fa15bc60c955c405d20d9149c709e2460f1c2d9a497496a7f46004d1772c3054c8390557fc3a24b0501bd2c13a7e57f2db4369ec4c223447539fc0724a9d55ac4a06ebd4d929092557fcbc4e5fb02c3d1de23a9f1e014b4d2ee5aeaea9505df5e855c9210bf472495af5560045f527f83ec6a1f0257b830b5e016457c9cf1435391bf56cc98f369a58a54fe9377246555610252565b5f80546001600160a01b038381166001600160a01b0319831681178455604051919092169283917f8be0079c531659141344cd1fd0a4f28419497f9722a3daafe3b4186f6b6457e09190a35050565b611c7a8061025f5f395ff3fe608060405234801561000f575f80fd5b506004361061013c575f3560e01c8063018f5036146101405780630f937a0a14610172578063108d4b4e1461018757806312065fe01461019a57806322a493d7146101a2578063266b09d1146101b55780632c048f00146101c85780633075119d146101db5780633ab32c06146101ee578063457142f51461020157806347a1efa61461021457806351ecb8af1461023357806353a2dfc1146102525780635f0b032b146102c8578063715018a6146102e85780637cce9939146102f05780638da5cb5b14610303578063a0815a541461030b578063a23d431a1461031e578063bdb561ad1461033e578063bffc0ccd14610351578063c849c1d014610364578063da77abed14610377578063efcf91c71461038a578063f08ae3f01461039d578063f2fde38b146103b0575b5f80fd5b61015f61014e36600461127c565b60036020525f908152604090205481565b6040519081526020015b60405180910390f35b61018561018036600461129c565b6103c3565b005b61015f6101953660046112c4565b610406565b61015f61059a565b6101856101b0366004611309565b610613565b6101856101c3366004611322565b61063d565b6101856101d6366004611387565b61080c565b61015f6101e936600461127c565b610928565b6101856101fc36600461129c565b610964565b61015f61020f36600461127c565b610982565b61015f61022236600461127c565b60016020525f908152604090205481565b61015f61024136600461127c565b60026020525f908152604090205481565b6102b4610260366004611309565b600560208190525f918252604090912080546001820154600283015460038401546004850154958501546006909501546001600160a01b0380861697600160a01b90960460ff169694959394929392911688565b60405161016998979695949392919061148e565b6102db6102d63660046114e6565b610998565b60405161016991906114fd565b6101856109c0565b6102db6102fe366004611511565b6109d3565b6102db610b5e565b6006546102db906001600160a01b031681565b61033161032c366004611511565b610b6c565b6040516101699190611531565b61018561034c36600461129c565b610da5565b61018561035f3660046115db565b610dc3565b6101856103723660046115db565b610e04565b61015f6103853660046115db565b610ec6565b61015f61039836600461127c565b610faa565b61015f6103ab366004611309565b610fc0565b6101856103be366004611309565b611077565b6103cb6110b4565b8060025f8460048111156103e1576103e161145a565b60048111156103f2576103f261145a565b815260208101919091526040015f20555050565b5f6a05451c9a1fa35367e00000816809c2007651b2500000672b992ddfa23249d66104396104348a89611609565b6110e6565b610443919061162f565b61044d919061165a565b90505f6809c2007651b2500000672b992ddfa23249d66104706104348a89611609565b61047a919061162f565b610484919061165a565b90505f6809c2007651b25000006104a3672b992ddfa23249d68b61162f565b6104ad919061165a565b90505f6809c2007651b25000006104cc672b992ddfa23249d68a61162f565b6104d6919061165a565b90505f6104ec6104e760028761165a565b6110fd565b90505f6104fd6104e760028761165a565b90505f610509856111c3565b90505f610515856111c3565b90505f610522848061166d565b61052c838561166d565b610536919061166d565b610540868061166d565b61054a919061169c565b90505f61055b6104e76002846116c3565b61056690600261166d565b9050670de0b6b3a764000061057b828d61166d565b61058591906116c3565b9b505050505050505050505050949350505050565b5f3332146105c35760405162461bcd60e51b81526004016105ba906116ef565b60405180910390fd5b335f818152600560205260409020600301544211156105f45760405162461bcd60e51b81526004016105ba90611724565b6001600160a01b03165f90815260056020526040902060010154905090565b61061b6110b4565b600680546001600160a01b0319166001600160a01b0392909216919091179055565b6106456110b4565b6001600160a01b038581165f9081526005602052604090205416156106a65760405162461bcd60e51b815260206004820152601760248201527653686f77726f6f6d20616c72656164792065786973747360481b60448201526064016105ba565b604051806101000160405280856001600160a01b031681526020018460048111156106d3576106d361145a565b81525f6020820181905260408201526060016106f3426301e1338061174e565b8152602080820185905260408083018590526001600160a01b03808a1660609094018490525f9384526005835292208351815493166001600160a01b0319841681178255918401519092909183916001600160a81b03191617600160a01b8360048111156107635761076361145a565b02179055506040820151600182810191909155606083015160028301556080830151600383015560a083015160048084019190915560c0840151600584015560e090930151600690920180546001600160a01b03199081166001600160a01b0394851617909155835491820184555f939093527f8a35acfbc15ff81a39ae7d344fd709f28e8600b4aa8c65c6b64bfe7fe36bd19b01805490921696169590951790945550505050565b33321461082b5760405162461bcd60e51b81526004016105ba906116ef565b335f81815260056020526040902060010154838110156108845760405162461bcd60e51b8152602060048201526014602482015273496e73756666696369656e742062616c616e636560601b60448201526064016105ba565b6001600160a01b0382165f908152600560205260409020600301544211156108be5760405162461bcd60e51b81526004016105ba90611724565b60065460405163061601f960e21b81526001600160a01b0390911690819063185807e4906108f490889087908990600401611761565b5f604051808303815f87803b15801561090b575f80fd5b505af115801561091d573d5f803e3d5ffd5b505050505050505050565b5f60025f83600481111561093e5761093e61145a565b600481111561094f5761094f61145a565b81526020019081526020015f20549050919050565b61096c6110b4565b8060015f8460048111156103e1576103e161145a565b5f60035f83600481111561093e5761093e61145a565b600481815481106109a7575f80fd5b5f918252602090912001546001600160a01b0316905081565b6109c86110b4565b6109d15f6111d7565b565b5f805f5b600454811015610b54575f600482815481106109f5576109f56117bf565b5f918252602090912001546001600160a01b03169050801580610a3157506001600160a01b0381165f9081526005602052604090206003015442115b15610a3c5750610b4c565b6001600160a01b0381165f90815260056020526040812054600160a01b900460ff1690816004811115610a7157610a7161145a565b03610a7d575050610b4c565b6001600160a01b0382165f908152600560208190526040822090810154600490910154610aae918a918a9190610406565b905060035f836004811115610ac557610ac561145a565b6004811115610ad657610ad661145a565b81526020019081526020015f2054811015610af657829450505050610b54565b6001600160a01b038516158015610b3f575060025f836004811115610b1d57610b1d61145a565b6004811115610b2e57610b2e61145a565b81526020019081526020015f205481105b15610b48578294505b5050505b6001016109d7565b5090505b92915050565b5f546001600160a01b031690565b60605f82118015610b7e575060328211155b610bd45760405162461bcd60e51b815260206004820152602160248201527f7061676553697a65206d757374206265206265747765656e203120616e6420356044820152600360fc1b60648201526084016105ba565b600454808410610c1757604080515f8082526020820190925290610c0e565b610bfb611226565b815260200190600190039081610bf35790505b50915050610b58565b5f610c22848661174e565b905081811115610c2f5750805b5f610c3a86836117d3565b6001600160401b03811115610c5157610c51611373565b604051908082528060200260200182016040528015610c8a57816020015b610c77611226565b815260200190600190039081610c6f5790505b5090505f865b83811015610d995760055f60048381548110610cae57610cae6117bf565b5f9182526020808320909101546001600160a01b039081168452838201949094526040928301909120825161010081019093528054938416835291929083019060ff600160a01b909104166004811115610d0a57610d0a61145a565b6004811115610d1b57610d1b61145a565b815260018201546020820152600282015460408201526003820154606082015260048201546080820152600582015460a08201526006909101546001600160a01b031660c0909101528351849084908110610d7857610d786117bf565b60200260200101819052508180610d8e906117e6565b925050600101610c90565b50909695505050505050565b610dad6110b4565b8060035f8460048111156103e1576103e161145a565b610dcb6110b4565b610dd8816201518061162f565b610de2904261174e565b6001600160a01b039092165f9081526005602052604090206003019190915550565b6006546001600160a01b03163314610e2e5760405162461bcd60e51b81526004016105ba906117fe565b6001600160a01b0382165f90815260056020526040902060030154421115610e935760405162461bcd60e51b815260206004820152601860248201527773686f77726f6f6d206578706972657320616c726561647960401b60448201526064016105ba565b6001600160a01b0382165f9081526005602052604081206001018054839290610ebd90849061174e565b90915550505050565b6006545f906001600160a01b03163314610ef25760405162461bcd60e51b81526004016105ba906117fe565b6001600160a01b0383165f908152600560205260409020600301544210610f1a57505f610b58565b6001600160a01b0383165f9081526005602052604081206002018054849290610f4490849061174e565b90915550506001600160a01b0383165f908152600560205260408120546001908290600160a01b900460ff166004811115610f8157610f8161145a565b6004811115610f9257610f9261145a565b815260208101919091526040015f2054949350505050565b5f60015f83600481111561093e5761093e61145a565b6006545f906001600160a01b03163314610fec5760405162461bcd60e51b81526004016105ba906117fe565b6001600160a01b0382165f90815260056020526040902060030154421061101457505f919050565b6001600160a01b0382165f90815260056020526040812054600160a01b900460ff169060018183600481111561104c5761104c61145a565b600481111561105d5761105d61145a565b815260208101919091526040015f2054925050505b919050565b61107f6110b4565b6001600160a01b0381166110a8575f604051631e4fbdf760e01b81526004016105ba91906114fd565b6110b1816111d7565b50565b336110bd610b5e565b6001600160a01b0316146109d1573360405163118cdaa760e01b81526004016105ba91906114fd565b5f8082126110f45781610b58565b610b5882611826565b6757325bbf446493ac90819006634000000002045f61ffff600483901c1660ff601484901c166310000000841615632000000085161515816111415760ff92909203915b5f6040518061044001604052806104048152602001611841610404913960046002860102818101519192509063ffffffff602082901c8116908216818103890260101c5f8861119257818303611196565b8184015b905087156111a1575f035b637fffffff670de0b6b3a76400008202059d9c50505050505050505050505050565b5f610b586715cc96efd11924eb83016110fd565b5f80546001600160a01b038381166001600160a01b0319831681178455604051919092169283917f8be0079c531659141344cd1fd0a4f28419497f9722a3daafe3b4186f6b6457e09190a35050565b6040805161010081019091525f808252602082019081526020015f81526020015f81526020015f81526020015f81526020015f81526020015f6001600160a01b031681525090565b803560058110611072575f80fd5b5f6020828403121561128c575f80fd5b6112958261126e565b9392505050565b5f80604083850312156112ad575f80fd5b6112b68361126e565b946020939093013593505050565b5f805f80608085870312156112d7575f80fd5b5050823594602084013594506040840135936060013592509050565b80356001600160a01b0381168114611072575f80fd5b5f60208284031215611319575f80fd5b611295826112f3565b5f805f805f60a08688031215611336575f80fd5b61133f866112f3565b945061134d602087016112f3565b935061135b6040870161126e565b94979396509394606081013594506080013592915050565b634e487b7160e01b5f52604160045260245ffd5b5f8060408385031215611398575f80fd5b8235915060208301356001600160401b038111156113b4575f80fd5b8301601f810185136113c4575f80fd5b80356001600160401b038111156113dd576113dd611373565b604051600582901b90603f8201601f191681016001600160401b038111828210171561140b5761140b611373565b604052918252602081840181019290810188841115611428575f80fd5b6020850194505b8385101561144b5784358082526020958601959093500161142f565b50809450505050509250929050565b634e487b7160e01b5f52602160045260245ffd5b6005811061148a57634e487b7160e01b5f52602160045260245ffd5b9052565b6001600160a01b038916815261010081016114ac602083018a61146e565b60408201979097526060810195909552608085019390935260a084019190915260c08301526001600160a01b031660e09091015292915050565b5f602082840312156114f6575f80fd5b5035919050565b6001600160a01b0391909116815260200190565b5f8060408385031215611522575f80fd5b50508035926020909101359150565b602080825282518282018190525f918401906040840190835b818110156115d057835180516001600160a01b03168452602080820151906115749086018261146e565b5060408181015190850152606080820151908501526080808201519085015260a0808201519085015260c0808201519085015260e0908101516001600160a01b031690840152602093909301926101009092019160010161154a565b509095945050505050565b5f80604083850312156115ec575f80fd5b6112b6836112f3565b634e487b7160e01b5f52601160045260245ffd5b8181035f831280158383131683831282161715611628576116286115f5565b5092915050565b8082028115828204841417610b5857610b586115f5565b634e487b7160e01b5f52601260045260245ffd5b5f8261166857611668611646565b500490565b8082025f8212600160ff1b84141615611688576116886115f5565b8181058314821517610b5857610b586115f5565b8082018281125f8312801582168215821617156116bb576116bb6115f5565b505092915050565b5f826116d1576116d1611646565b600160ff1b82145f19841416156116ea576116ea6115f5565b500590565b6020808252601b908201527a14db585c9d0818dbdb9d1c9858dd1cc81b9bdd08185b1b1bddd959602a1b604082015260600190565b60208082526010908201526f14da1bdddc9bdbdb48195e1c1a5c995960821b604082015260600190565b80820180821115610b5857610b586115f5565b8381526001600160a01b03831660208083019190915260606040830181905283519083018190525f918401906080840190835b818110156117b2578351835260209384019390920191600101611794565b5090979650505050505050565b634e487b7160e01b5f52603260045260245ffd5b81810381811115610b5857610b586115f5565b5f600182016117f7576117f76115f5565b5060010190565b6020808252600e908201526d139bdd08185d5d1a1bdc9a5e995960921b604082015260600190565b5f600160ff1b820161183a5761183a6115f5565b505f039056fe0000000000c90f8801921d20025b26d703242abf03ed26e604b6195d057f00350647d97c0710a34507d95b9e08a2009a096a90490a3308bc0afb68050bc3ac350c8bd35e0d53db920e1bc2e40ee387660fab272b1072a0481139f0cf120116d512c8106e138edbb1145576b1151bdf8515e2144416a81305176dd9de183366e818f8b83c19bdcbf31a82a0251b4732ef1c0b826a1ccf8cb31d934fe51e56ca1e1f19f97b1fdcdc1b209f701c2161b39f2223a4c522e541af23a6887e2467775725280c5d25e845b626a8218527679df42826b92828e5714a29a3c4852a61b1012b1f34eb2bdc4e6f2c98fbba2d553afb2e110a622ecc681e2f8752623041c76030fbc54d31b54a5d326e54c73326e2c233def2873496824f354d905636041ad936ba2013376f9e46382493b038d8fe93398cdd323a402dd13af2eeb73ba51e293c56ba703d07c1d53db832a53e680b2c3f1749b73fc5ec974073f21d4121589a41ce1e64427a41d04325c13543d09aec447acd50452456bc45cd358f46756827471cece647c3c22e4869e664490f57ee49b415334a581c9d4afb6c974b9e038f4c3fdff34ce100344d8162c34e2106174ebfe8a44f5e08e24ffb654c5097fc5e5133cc9451ced46e5269126e53028517539b2aef5433027d54ca0a4a556040e255f5a4d2568a34a9571deef957b0d2555842dd5458d40e8c5964649759f3de125a8279995b1035ce5b9d11535c290acc5cb420df5d3e52365dc79d7b5e50015d5ed77c895f5e0db25fe3b38d60686cce60ec382f616f146b61f1003e6271fa6862f201ac637114cc63ef328f646c59bf64e889256563bf9165ddfbd266573cbb66cf811f6746c7d767bd0fbc683257aa68a69e806919e31f698c246b69fd614a6a6d98a36adcc9646b4af2786bb812d06c24295f6c8f351b6cf934fb6d6227f96dca0d146e30e3496e96a99c6efb5f116f5f02b16fc1938470231099708378fe70e2cbc571410804719e2cd171fa394872552c8472af05a67307c3cf735f662573b5ebd0740b53fa745f9dd074b2c8837504d3447555bd4b75a585ce75f42c0a7641af3c768e0ea576d9498877235f2c776c4eda77b417df77fab988784033287884841378c7aba17909a92c794a7c11798a23b079c89f6d7a05eeac7a4210d87a7d055a7ab6cba37aef63237b26cb4e7b5d039d7b920b887bc5e28f7bf8882f7c29fbed7c5a3d4f7c894bdd7cb727237ce3ceb17d0f42177d3980eb7d628ac57d8a5f3f7db0fdf77dd6668e7dfa98a77e1d93e97e3f57fe7e5fe4927e7f39567e9d55fb7eba3a387ed5e5c57ef0585f7f0991c37f2191b37f3857f57f4de4507f62368e7f754e7f7f872bf27f97cebc7fa736b37fb563b27fc255957fce0c3d7fd8878d7fe1c76a7fe9cbbf7ff094777ff621817ffa72d07ffd88597fff62157fffffffa264697066735822122090df5b1061c00607b63a529c368edaf8de7aee1c9bc5bf484bc9d0c1a93564c064736f6c634300081a0033",
			"opcodes": "PUSH1 0x80 PUSH1 0x40 MSTORE CALLVALUE DUP1 ISZERO PUSH2 0xF JUMPI PUSH0 DUP1 REVERT JUMPDEST POP CALLER DUP1 PUSH2 0x35 JUMPI PUSH1 0x40 MLOAD PUSH4 0x1E4FBDF7 PUSH1 0xE0 SHL DUP2 MSTORE PUSH0 PUSH1 0x4 DUP3 ADD MSTORE PUSH1 0x24 ADD PUSH1 0x40 MLOAD DUP1 SWAP2 SUB SWAP1 REVERT JUMPDEST PUSH2 0x3E DUP2 PUSH2 0x203 JUMP JUMPDEST POP PUSH1 0x19 PUSH32 0xCC69885FDA6BCC1A4ACE058B4A62BF5E179EA78FD58A1CCD71C22CC9B688792F SSTORE PUSH1 0x32 PUSH32 0xD9D16D34FFB15BA3A3D852F0D403E2CE1D691FB54DE27AC87CD2F993F3EC330F DUP2 SWAP1 SSTORE PUSH1 0x4B PUSH32 0x7DFE757ECD65CBD7922A9C0161E935DD7FDBCC0E999689C7D31633896B1FC60B SSTORE PUSH1 0x64 PUSH32 0xEDC95719E9A3B28DD8E80877CB5880A9BE7DE1A13FC8B05E7999683B6B567643 DUP2 SWAP1 SSTORE PUSH32 0xE90B7BCEB6E7DF5418FB78D8EE546E97C83A08BBCCC01A0644D599CCD2A7C2E0 DUP3 SWAP1 SSTORE PUSH2 0x1F4 PUSH32 0x679795A0195A1B76CDEBB7C51D74E058AEE92919B8C3389AF86EF24535E8A28C DUP2 SWAP1 SSTORE PUSH2 0x7D0 PUSH32 0x88601476D11616A71C5BE67555BD1DFF4B1CBF21533D2669B768B61518CFE1C3 SSTORE PUSH2 0x1388 PUSH32 0xEE60D0579BCFFD98E668647D59FEC1FF86A7FB340CE572E844F234AE73A6918F SSTORE PUSH1 0x3 PUSH1 0x20 MSTORE PUSH32 0xA15BC60C955C405D20D9149C709E2460F1C2D9A497496A7F46004D1772C3054C DUP4 SWAP1 SSTORE PUSH32 0xC3A24B0501BD2C13A7E57F2DB4369EC4C223447539FC0724A9D55AC4A06EBD4D SWAP3 SWAP1 SWAP3 SSTORE PUSH32 0xCBC4E5FB02C3D1DE23A9F1E014B4D2EE5AEAEA9505DF5E855C9210BF472495AF SSTORE PUSH1 0x4 PUSH0 MSTORE PUSH32 0x83EC6A1F0257B830B5E016457C9CF1435391BF56CC98F369A58A54FE93772465 SSTORE PUSH2 0x252 JUMP JUMPDEST PUSH0 DUP1 SLOAD PUSH1 0x1 PUSH1 0x1 PUSH1 0xA0 SHL SUB DUP4 DUP2 AND PUSH1 0x1 PUSH1 0x1 PUSH1 0xA0 SHL SUB NOT DUP4 AND DUP2 OR DUP5 SSTORE PUSH1 0x40 MLOAD SWAP2 SWAP1 SWAP3 AND SWAP3 DUP4 SWAP2 PUSH32 0x8BE0079C531659141344CD1FD0A4F28419497F9722A3DAAFE3B4186F6B6457E0 SWAP2 SWAP1 LOG3 POP POP JUMP JUMPDEST PUSH2 0x1C7A DUP1 PUSH2 0x25F PUSH0 CODECOPY PUSH0 RETURN INVALID PUSH1 0x80 PUSH1 0x40 MSTORE CALLVALUE DUP1 ISZERO PUSH2 0xF JUMPI PUSH0 DUP1 REVERT JUMPDEST POP PUSH1 0x4 CALLDATASIZE LT PUSH2 0x13C JUMPI PUSH0 CALLDATALOAD PUSH1 0xE0 SHR DUP1 PUSH4 0x18F5036 EQ PUSH2 0x140 JUMPI DUP1 PUSH4 0xF937A0A EQ PUSH2 0x172 JUMPI DUP1 PUSH4 0x108D4B4E EQ PUSH2 0x187 JUMPI DUP1 PUSH4 0x12065FE0 EQ PUSH2 0x19A JUMPI DUP1 PUSH4 0x22A493D7 EQ PUSH2 0x1A2 JUMPI DUP1 PUSH4 0x266B09D1 EQ PUSH2 0x1B5 JUMPI DUP1 PUSH4 0x2C048F00 EQ PUSH2 0x1C8 JUMPI DUP1 PUSH4 0x3075119D EQ PUSH2 0x1DB JUMPI DUP1 PUSH4 0x3AB32C06 EQ PUSH2 0x1EE JUMPI DUP1 PUSH4 0x457142F5 EQ PUSH2 0x201 JUMPI DUP1 PUSH4 0x47A1EFA6 EQ PUSH2 0x214 JUMPI DUP1 PUSH4 0x51ECB8AF EQ PUSH2 0x233 JUMPI DUP1 PUSH4 0x53A2DFC1 EQ PUSH2 0x252 JUMPI DUP1 PUSH4 0x5F0B032B EQ PUSH2 0x2C8 JUMPI DUP1 PUSH4 0x715018A6 EQ PUSH2 0x2E8 JUMPI DUP1 PUSH4 0x7CCE9939 EQ PUSH2 0x2F0 JUMPI DUP1 PUSH4 0x8DA5CB5B EQ PUSH2 0x303 JUMPI DUP1 PUSH4 0xA0815A54 EQ PUSH2 0x30B JUMPI DUP1 PUSH4 0xA23D431A EQ PUSH2 0x31E JUMPI DUP1 PUSH4 0xBDB561AD EQ PUSH2 0x33E JUMPI DUP1 PUSH4 0xBFFC0CCD EQ PUSH2 0x351 JUMPI DUP1 PUSH4 0xC849C1D0 EQ PUSH2 0x364 JUMPI DUP1 PUSH4 0xDA77ABED EQ PUSH2 0x377 JUMPI DUP1 PUSH4 0xEFCF91C7 EQ PUSH2 0x38A JUMPI DUP1 PUSH4 0xF08AE3F0 EQ PUSH2 0x39D JUMPI DUP1 PUSH4 0xF2FDE38B EQ PUSH2 0x3B0 JUMPI JUMPDEST PUSH0 DUP1 REVERT JUMPDEST PUSH2 0x15F PUSH2 0x14E CALLDATASIZE PUSH1 0x4 PUSH2 0x127C JUMP JUMPDEST PUSH1 0x3 PUSH1 0x20 MSTORE PUSH0 SWAP1 DUP2 MSTORE PUSH1 0x40 SWAP1 KECCAK256 SLOAD DUP2 JUMP JUMPDEST PUSH1 0x40 MLOAD SWAP1 DUP2 MSTORE PUSH1 0x20 ADD JUMPDEST PUSH1 0x40 MLOAD DUP1 SWAP2 SUB SWAP1 RETURN JUMPDEST PUSH2 0x185 PUSH2 0x180 CALLDATASIZE PUSH1 0x4 PUSH2 0x129C JUMP JUMPDEST PUSH2 0x3C3 JUMP JUMPDEST STOP JUMPDEST PUSH2 0x15F PUSH2 0x195 CALLDATASIZE PUSH1 0x4 PUSH2 0x12C4 JUMP JUMPDEST PUSH2 0x406 JUMP JUMPDEST PUSH2 0x15F PUSH2 0x59A JUMP JUMPDEST PUSH2 0x185 PUSH2 0x1B0 CALLDATASIZE PUSH1 0x4 PUSH2 0x1309 JUMP JUMPDEST PUSH2 0x613 JUMP JUMPDEST PUSH2 0x185 PUSH2 0x1C3 CALLDATASIZE PUSH1 0x4 PUSH2 0x1322 JUMP JUMPDEST PUSH2 0x63D JUMP JUMPDEST PUSH2 0x185 PUSH2 0x1D6 CALLDATASIZE PUSH1 0x4 PUSH2 0x1387 JUMP JUMPDEST PUSH2 0x80C JUMP JUMPDEST PUSH2 0x15F PUSH2 0x1E9 CALLDATASIZE PUSH1 0x4 PUSH2 0x127C JUMP JUMPDEST PUSH2 0x928 JUMP JUMPDEST PUSH2 0x185 PUSH2 0x1FC CALLDATASIZE PUSH1 0x4 PUSH2 0x129C JUMP JUMPDEST PUSH2 0x964 JUMP JUMPDEST PUSH2 0x15F PUSH2 0x20F CALLDATASIZE PUSH1 0x4 PUSH2 0x127C JUMP JUMPDEST PUSH2 0x982 JUMP JUMPDEST PUSH2 0x15F PUSH2 0x222 CALLDATASIZE PUSH1 0x4 PUSH2 0x127C JUMP JUMPDEST PUSH1 0x1 PUSH1 0x20 MSTORE PUSH0 SWAP1 DUP2 MSTORE PUSH1 0x40 SWAP1 KECCAK256 SLOAD DUP2 JUMP JUMPDEST PUSH2 0x15F PUSH2 0x241 CALLDATASIZE PUSH1 0x4 PUSH2 0x127C JUMP JUMPDEST PUSH1 0x2 PUSH1 0x20 MSTORE PUSH0 SWAP1 DUP2 MSTORE PUSH1 0x40 SWAP1 KECCAK256 SLOAD DUP2 JUMP JUMPDEST PUSH2 0x2B4 PUSH2 0x260 CALLDATASIZE PUSH1 0x4 PUSH2 0x1309 JUMP JUMPDEST PUSH1 0x5 PUSH1 0x20 DUP2 SWAP1 MSTORE PUSH0 SWAP2 DUP3 MSTORE PUSH1 0x40 SWAP1 SWAP2 KECCAK256 DUP1 SLOAD PUSH1 0x1 DUP3 ADD SLOAD PUSH1 0x2 DUP4 ADD SLOAD PUSH1 0x3 DUP5 ADD SLOAD PUSH1 0x4 DUP6 ADD SLOAD SWAP6 DUP6 ADD SLOAD PUSH1 0x6 SWAP1 SWAP6 ADD SLOAD PUSH1 0x1 PUSH1 0x1 PUSH1 0xA0 SHL SUB DUP1 DUP7 AND SWAP8 PUSH1 0x1 PUSH1 0xA0 SHL SWAP1 SWAP7 DIV PUSH1 0xFF AND SWAP7 SWAP5 SWAP6 SWAP4 SWAP5 SWAP3 SWAP4 SWAP3 SWAP2 AND DUP9 JUMP JUMPDEST PUSH1 0x40 MLOAD PUSH2 0x169 SWAP9 SWAP8 SWAP7 SWAP6 SWAP5 SWAP4 SWAP3 SWAP2 SWAP1 PUSH2 0x148E JUMP JUMPDEST PUSH2 0x2DB PUSH2 0x2D6 CALLDATASIZE PUSH1 0x4 PUSH2 0x14E6 JUMP JUMPDEST PUSH2 0x998 JUMP JUMPDEST PUSH1 0x40 MLOAD PUSH2 0x169 SWAP2 SWAP1 PUSH2 0x14FD JUMP JUMPDEST PUSH2 0x185 PUSH2 0x9C0 JUMP JUMPDEST PUSH2 0x2DB PUSH2 0x2FE CALLDATASIZE PUSH1 0x4 PUSH2 0x1511 JUMP JUMPDEST PUSH2 0x9D3 JUMP JUMPDEST PUSH2 0x2DB PUSH2 0xB5E JUMP JUMPDEST PUSH1 0x6 SLOAD PUSH2 0x2DB SWAP1 PUSH1 0x1 PUSH1 0x1 PUSH1 0xA0 SHL SUB AND DUP2 JUMP JUMPDEST PUSH2 0x331 PUSH2 0x32C CALLDATASIZE PUSH1 0x4 PUSH2 0x1511 JUMP JUMPDEST PUSH2 0xB6C JUMP JUMPDEST PUSH1 0x40 MLOAD PUSH2 0x169 SWAP2 SWAP1 PUSH2 0x1531 JUMP JUMPDEST PUSH2 0x185 PUSH2 0x34C CALLDATASIZE PUSH1 0x4 PUSH2 0x129C JUMP JUMPDEST PUSH2 0xDA5 JUMP JUMPDEST PUSH2 0x185 PUSH2 0x35F CALLDATASIZE PUSH1 0x4 PUSH2 0x15DB JUMP JUMPDEST PUSH2 0xDC3 JUMP JUMPDEST PUSH2 0x185 PUSH2 0x372 CALLDATASIZE PUSH1 0x4 PUSH2 0x15DB JUMP JUMPDEST PUSH2 0xE04 JUMP JUMPDEST PUSH2 0x15F PUSH2 0x385 CALLDATASIZE PUSH1 0x4 PUSH2 0x15DB JUMP JUMPDEST PUSH2 0xEC6 JUMP JUMPDEST PUSH2 0x15F PUSH2 0x398 CALLDATASIZE PUSH1 0x4 PUSH2 0x127C JUMP JUMPDEST PUSH2 0xFAA JUMP JUMPDEST PUSH2 0x15F PUSH2 0x3AB CALLDATASIZE PUSH1 0x4 PUSH2 0x1309 JUMP JUMPDEST PUSH2 0xFC0 JUMP JUMPDEST PUSH2 0x185 PUSH2 0x3BE CALLDATASIZE PUSH1 0x4 PUSH2 0x1309 JUMP JUMPDEST PUSH2 0x1077 JUMP JUMPDEST PUSH2 0x3CB PUSH2 0x10B4 JUMP JUMPDEST DUP1 PUSH1 0x2 PUSH0 DUP5 PUSH1 0x4 DUP2 GT ISZERO PUSH2 0x3E1 JUMPI PUSH2 0x3E1 PUSH2 0x145A JUMP JUMPDEST PUSH1 0x4 DUP2 GT ISZERO PUSH2 0x3F2 JUMPI PUSH2 0x3F2 PUSH2 0x145A JUMP JUMPDEST DUP2 MSTORE PUSH1 0x20 DUP2 ADD SWAP2 SWAP1 SWAP2 MSTORE PUSH1 0x40 ADD PUSH0 KECCAK256 SSTORE POP POP JUMP JUMPDEST PUSH0 PUSH11 0x5451C9A1FA35367E00000 DUP2 PUSH9 0x9C2007651B2500000 PUSH8 0x2B992DDFA23249D6 PUSH2 0x439 PUSH2 0x434 DUP11 DUP10 PUSH2 0x1609 JUMP JUMPDEST PUSH2 0x10E6 JUMP JUMPDEST PUSH2 0x443 SWAP2 SWAP1 PUSH2 0x162F JUMP JUMPDEST PUSH2 0x44D SWAP2 SWAP1 PUSH2 0x165A JUMP JUMPDEST SWAP1 POP PUSH0 PUSH9 0x9C2007651B2500000 PUSH8 0x2B992DDFA23249D6 PUSH2 0x470 PUSH2 0x434 DUP11 DUP10 PUSH2 0x1609 JUMP JUMPDEST PUSH2 0x47A SWAP2 SWAP1 PUSH2 0x162F JUMP JUMPDEST PUSH2 0x484 SWAP2 SWAP1 PUSH2 0x165A JUMP JUMPDEST SWAP1 POP PUSH0 PUSH9 0x9C2007651B2500000 PUSH2 0x4A3 PUSH8 0x2B992DDFA23249D6 DUP12 PUSH2 0x162F JUMP JUMPDEST PUSH2 0x4AD SWAP2 SWAP1 PUSH2 0x165A JUMP JUMPDEST SWAP1 POP PUSH0 PUSH9 0x9C2007651B2500000 PUSH2 0x4CC PUSH8 0x2B992DDFA23249D6 DUP11 PUSH2 0x162F JUMP JUMPDEST PUSH2 0x4D6 SWAP2 SWAP1 PUSH2 0x165A JUMP JUMPDEST SWAP1 POP PUSH0 PUSH2 0x4EC PUSH2 0x4E7 PUSH1 0x2 DUP8 PUSH2 0x165A JUMP JUMPDEST PUSH2 0x10FD JUMP JUMPDEST SWAP1 POP PUSH0 PUSH2 0x4FD PUSH2 0x4E7 PUSH1 0x2 DUP8 PUSH2 0x165A JUMP JUMPDEST SWAP1 POP PUSH0 PUSH2 0x509 DUP6 PUSH2 0x11C3 JUMP JUMPDEST SWAP1 POP PUSH0 PUSH2 0x515 DUP6 PUSH2 0x11C3 JUMP JUMPDEST SWAP1 POP PUSH0 PUSH2 0x522 DUP5 DUP1 PUSH2 0x166D JUMP JUMPDEST PUSH2 0x52C DUP4 DUP6 PUSH2 0x166D JUMP JUMPDEST PUSH2 0x536 SWAP2 SWAP1 PUSH2 0x166D JUMP JUMPDEST PUSH2 0x540 DUP7 DUP1 PUSH2 0x166D JUMP JUMPDEST PUSH2 0x54A SWAP2 SWAP1 PUSH2 0x169C JUMP JUMPDEST SWAP1 POP PUSH0 PUSH2 0x55B PUSH2 0x4E7 PUSH1 0x2 DUP5 PUSH2 0x16C3 JUMP JUMPDEST PUSH2 0x566 SWAP1 PUSH1 0x2 PUSH2 0x166D JUMP JUMPDEST SWAP1 POP PUSH8 0xDE0B6B3A7640000 PUSH2 0x57B DUP3 DUP14 PUSH2 0x166D JUMP JUMPDEST PUSH2 0x585 SWAP2 SWAP1 PUSH2 0x16C3 JUMP JUMPDEST SWAP12 POP POP POP POP POP POP POP POP POP POP POP POP SWAP5 SWAP4 POP POP POP POP JUMP JUMPDEST PUSH0 CALLER ORIGIN EQ PUSH2 0x5C3 JUMPI PUSH1 0x40 MLOAD PUSH3 0x461BCD PUSH1 0xE5 SHL DUP2 MSTORE PUSH1 0x4 ADD PUSH2 0x5BA SWAP1 PUSH2 0x16EF JUMP JUMPDEST PUSH1 0x40 MLOAD DUP1 SWAP2 SUB SWAP1 REVERT JUMPDEST CALLER PUSH0 DUP2 DUP2 MSTORE PUSH1 0x5 PUSH1 0x20 MSTORE PUSH1 0x40 SWAP1 KECCAK256 PUSH1 0x3 ADD SLOAD TIMESTAMP GT ISZERO PUSH2 0x5F4 JUMPI PUSH1 0x40 MLOAD PUSH3 0x461BCD PUSH1 0xE5 SHL DUP2 MSTORE PUSH1 0x4 ADD PUSH2 0x5BA SWAP1 PUSH2 0x1724 JUMP JUMPDEST PUSH1 0x1 PUSH1 0x1 PUSH1 0xA0 SHL SUB AND PUSH0 SWAP1 DUP2 MSTORE PUSH1 0x5 PUSH1 0x20 MSTORE PUSH1 0x40 SWAP1 KECCAK256 PUSH1 0x1 ADD SLOAD SWAP1 POP SWAP1 JUMP JUMPDEST PUSH2 0x61B PUSH2 0x10B4 JUMP JUMPDEST PUSH1 0x6 DUP1 SLOAD PUSH1 0x1 PUSH1 0x1 PUSH1 0xA0 SHL SUB NOT AND PUSH1 0x1 PUSH1 0x1 PUSH1 0xA0 SHL SUB SWAP3 SWAP1 SWAP3 AND SWAP2 SWAP1 SWAP2 OR SWAP1 SSTORE JUMP JUMPDEST PUSH2 0x645 PUSH2 0x10B4 JUMP JUMPDEST PUSH1 0x1 PUSH1 0x1 PUSH1 0xA0 SHL SUB DUP6 DUP2 AND PUSH0 SWAP1 DUP2 MSTORE PUSH1 0x5 PUSH1 0x20 MSTORE PUSH1 0x40 SWAP1 KECCAK256 SLOAD AND ISZERO PUSH2 0x6A6 JUMPI PUSH1 0x40 MLOAD PUSH3 0x461BCD PUSH1 0xE5 SHL DUP2 MSTORE PUSH1 0x20 PUSH1 0x4 DUP3 ADD MSTORE PUSH1 0x17 PUSH1 0x24 DUP3 ADD MSTORE PUSH23 0x53686F77726F6F6D20616C726561647920657869737473 PUSH1 0x48 SHL PUSH1 0x44 DUP3 ADD MSTORE PUSH1 0x64 ADD PUSH2 0x5BA JUMP JUMPDEST PUSH1 0x40 MLOAD DUP1 PUSH2 0x100 ADD PUSH1 0x40 MSTORE DUP1 DUP6 PUSH1 0x1 PUSH1 0x1 PUSH1 0xA0 SHL SUB AND DUP2 MSTORE PUSH1 0x20 ADD DUP5 PUSH1 0x4 DUP2 GT ISZERO PUSH2 0x6D3 JUMPI PUSH2 0x6D3 PUSH2 0x145A JUMP JUMPDEST DUP2 MSTORE PUSH0 PUSH1 0x20 DUP3 ADD DUP2 SWAP1 MSTORE PUSH1 0x40 DUP3 ADD MSTORE PUSH1 0x60 ADD PUSH2 0x6F3 TIMESTAMP PUSH4 0x1E13380 PUSH2 0x174E JUMP JUMPDEST DUP2 MSTORE PUSH1 0x20 DUP1 DUP3 ADD DUP6 SWAP1 MSTORE PUSH1 0x40 DUP1 DUP4 ADD DUP6 SWAP1 MSTORE PUSH1 0x1 PUSH1 0x1 PUSH1 0xA0 SHL SUB DUP1 DUP11 AND PUSH1 0x60 SWAP1 SWAP5 ADD DUP5 SWAP1 MSTORE PUSH0 SWAP4 DUP5 MSTORE PUSH1 0x5 DUP4 MSTORE SWAP3 KECCAK256 DUP4 MLOAD DUP2 SLOAD SWAP4 AND PUSH1 0x1 PUSH1 0x1 PUSH1 0xA0 SHL SUB NOT DUP5 AND DUP2 OR DUP3 SSTORE SWAP2 DUP5 ADD MLOAD SWAP1 SWAP3 SWAP1 SWAP2 DUP4 SWAP2 PUSH1 0x1 PUSH1 0x1 PUSH1 0xA8 SHL SUB NOT AND OR PUSH1 0x1 PUSH1 0xA0 SHL DUP4 PUSH1 0x4 DUP2 GT ISZERO PUSH2 0x763 JUMPI PUSH2 0x763 PUSH2 0x145A JUMP JUMPDEST MUL OR SWAP1 SSTORE POP PUSH1 0x40 DUP3 ADD MLOAD PUSH1 0x1 DUP3 DUP2 ADD SWAP2 SWAP1 SWAP2 SSTORE PUSH1 0x60 DUP4 ADD MLOAD PUSH1 0x2 DUP4 ADD SSTORE PUSH1 0x80 DUP4 ADD MLOAD PUSH1 0x3 DUP4 ADD SSTORE PUSH1 0xA0 DUP4 ADD MLOAD PUSH1 0x4 DUP1 DUP5 ADD SWAP2 SWAP1 SWAP2 SSTORE PUSH1 0xC0 DUP5 ADD MLOAD PUSH1 0x5 DUP5 ADD SSTORE PUSH1 0xE0 SWAP1 SWAP4 ADD MLOAD PUSH1 0x6 SWAP1 SWAP3 ADD DUP1 SLOAD PUSH1 0x1 PUSH1 0x1 PUSH1 0xA0 SHL SUB NOT SWAP1 DUP2 AND PUSH1 0x1 PUSH1 0x1 PUSH1 0xA0 SHL SUB SWAP5 DUP6 AND OR SWAP1 SWAP2 SSTORE DUP4 SLOAD SWAP2 DUP3 ADD DUP5 SSTORE PUSH0 SWAP4 SWAP1 SWAP4 MSTORE PUSH32 0x8A35ACFBC15FF81A39AE7D344FD709F28E8600B4AA8C65C6B64BFE7FE36BD19B ADD DUP1 SLOAD SWAP1 SWAP3 AND SWAP7 AND SWAP6 SWAP1 SWAP6 OR SWAP1 SWAP5 SSTORE POP POP POP POP JUMP JUMPDEST CALLER ORIGIN EQ PUSH2 0x82B JUMPI PUSH1 0x40 MLOAD PUSH3 0x461BCD PUSH1 0xE5 SHL DUP2 MSTORE PUSH1 0x4 ADD PUSH2 0x5BA SWAP1 PUSH2 0x16EF JUMP JUMPDEST CALLER PUSH0 DUP2 DUP2 MSTORE PUSH1 0x5 PUSH1 0x20 MSTORE PUSH1 0x40 SWAP1 KECCAK256 PUSH1 0x1 ADD SLOAD DUP4 DUP2 LT ISZERO PUSH2 0x884 JUMPI PUSH1 0x40 MLOAD PUSH3 0x461BCD PUSH1 0xE5 SHL DUP2 MSTORE PUSH1 0x20 PUSH1 0x4 DUP3 ADD MSTORE PUSH1 0x14 PUSH1 0x24 DUP3 ADD MSTORE PUSH20 0x496E73756666696369656E742062616C616E6365 PUSH1 0x60 SHL PUSH1 0x44 DUP3 ADD MSTORE PUSH1 0x64 ADD PUSH2 0x5BA JUMP JUMPDEST PUSH1 0x1 PUSH1 0x1 PUSH1 0xA0 SHL SUB DUP3 AND PUSH0 SWAP1 DUP2 MSTORE PUSH1 0x5 PUSH1 0x20 MSTORE PUSH1 0x40 SWAP1 KECCAK256 PUSH1 0x3 ADD SLOAD TIMESTAMP GT ISZERO PUSH2 0x8BE JUMPI PUSH1 0x40 MLOAD PUSH3 0x461BCD PUSH1 0xE5 SHL DUP2 MSTORE PUSH1 0x4 ADD PUSH2 0x5BA SWAP1 PUSH2 0x1724 JUMP JUMPDEST PUSH1 0x6 SLOAD PUSH1 0x40 MLOAD PUSH4 0x61601F9 PUSH1 0xE2 SHL DUP2 MSTORE PUSH1 0x1 PUSH1 0x1 PUSH1 0xA0 SHL SUB SWAP1 SWAP2 AND SWAP1 DUP2 SWAP1 PUSH4 0x185807E4 SWAP1 PUSH2 0x8F4 SWAP1 DUP9 SWAP1 DUP8 SWAP1 DUP10 SWAP1 PUSH1 0x4 ADD PUSH2 0x1761 JUMP JUMPDEST PUSH0 PUSH1 0x40 MLOAD DUP1 DUP4 SUB DUP2 PUSH0 DUP8 DUP1 EXTCODESIZE ISZERO DUP1 ISZERO PUSH2 0x90B JUMPI PUSH0 DUP1 REVERT JUMPDEST POP GAS CALL ISZERO DUP1 ISZERO PUSH2 0x91D JUMPI RETURNDATASIZE PUSH0 DUP1 RETURNDATACOPY RETURNDATASIZE PUSH0 REVERT JUMPDEST POP POP POP POP POP POP POP POP POP JUMP JUMPDEST PUSH0 PUSH1 0x2 PUSH0 DUP4 PUSH1 0x4 DUP2 GT ISZERO PUSH2 0x93E JUMPI PUSH2 0x93E PUSH2 0x145A JUMP JUMPDEST PUSH1 0x4 DUP2 GT ISZERO PUSH2 0x94F JUMPI PUSH2 0x94F PUSH2 0x145A JUMP JUMPDEST DUP2 MSTORE PUSH1 0x20 ADD SWAP1 DUP2 MSTORE PUSH1 0x20 ADD PUSH0 KECCAK256 SLOAD SWAP1 POP SWAP2 SWAP1 POP JUMP JUMPDEST PUSH2 0x96C PUSH2 0x10B4 JUMP JUMPDEST DUP1 PUSH1 0x1 PUSH0 DUP5 PUSH1 0x4 DUP2 GT ISZERO PUSH2 0x3E1 JUMPI PUSH2 0x3E1 PUSH2 0x145A JUMP JUMPDEST PUSH0 PUSH1 0x3 PUSH0 DUP4 PUSH1 0x4 DUP2 GT ISZERO PUSH2 0x93E JUMPI PUSH2 0x93E PUSH2 0x145A JUMP JUMPDEST PUSH1 0x4 DUP2 DUP2 SLOAD DUP2 LT PUSH2 0x9A7 JUMPI PUSH0 DUP1 REVERT JUMPDEST PUSH0 SWAP2 DUP3 MSTORE PUSH1 0x20 SWAP1 SWAP2 KECCAK256 ADD SLOAD PUSH1 0x1 PUSH1 0x1 PUSH1 0xA0 SHL SUB AND SWAP1 POP DUP2 JUMP JUMPDEST PUSH2 0x9C8 PUSH2 0x10B4 JUMP JUMPDEST PUSH2 0x9D1 PUSH0 PUSH2 0x11D7 JUMP JUMPDEST JUMP JUMPDEST PUSH0 DUP1 PUSH0 JUMPDEST PUSH1 0x4 SLOAD DUP2 LT ISZERO PUSH2 0xB54 JUMPI PUSH0 PUSH1 0x4 DUP3 DUP2 SLOAD DUP2 LT PUSH2 0x9F5 JUMPI PUSH2 0x9F5 PUSH2 0x17BF JUMP JUMPDEST PUSH0 SWAP2 DUP3 MSTORE PUSH1 0x20 SWAP1 SWAP2 KECCAK256 ADD SLOAD PUSH1 0x1 PUSH1 0x1 PUSH1 0xA0 SHL SUB AND SWAP1 POP DUP1 ISZERO DUP1 PUSH2 0xA31 JUMPI POP PUSH1 0x1 PUSH1 0x1 PUSH1 0xA0 SHL SUB DUP2 AND PUSH0 SWAP1 DUP2 MSTORE PUSH1 0x5 PUSH1 0x20 MSTORE PUSH1 0x40 SWAP1 KECCAK256 PUSH1 0x3 ADD SLOAD TIMESTAMP GT JUMPDEST ISZERO PUSH2 0xA3C JUMPI POP PUSH2 0xB4C JUMP JUMPDEST PUSH1 0x1 PUSH1 0x1 PUSH1 0xA0 SHL SUB DUP2 AND PUSH0 SWAP1 DUP2 MSTORE PUSH1 0x5 PUSH1 0x20 MSTORE PUSH1 0x40 DUP2 KECCAK256 SLOAD PUSH1 0x1 PUSH1 0xA0 SHL SWAP1 DIV PUSH1 0xFF AND SWAP1 DUP2 PUSH1 0x4 DUP2 GT ISZERO PUSH2 0xA71 JUMPI PUSH2 0xA71 PUSH2 0x145A JUMP JUMPDEST SUB PUSH2 0xA7D JUMPI POP POP PUSH2 0xB4C JUMP JUMPDEST PUSH1 0x1 PUSH1 0x1 PUSH1 0xA0 SHL SUB DUP3 AND PUSH0 SWAP1 DUP2 MSTORE PUSH1 0x5 PUSH1 0x20 DUP2 SWAP1 MSTORE PUSH1 0x40 DUP3 KECCAK256 SWAP1 DUP2 ADD SLOAD PUSH1 0x4 SWAP1 SWAP2 ADD SLOAD PUSH2 0xAAE SWAP2 DUP11 SWAP2 DUP11 SWAP2 SWAP1 PUSH2 0x406 JUMP JUMPDEST SWAP1 POP PUSH1 0x3 PUSH0 DUP4 PUSH1 0x4 DUP2 GT ISZERO PUSH2 0xAC5 JUMPI PUSH2 0xAC5 PUSH2 0x145A JUMP JUMPDEST PUSH1 0x4 DUP2 GT ISZERO PUSH2 0xAD6 JUMPI PUSH2 0xAD6 PUSH2 0x145A JUMP JUMPDEST DUP2 MSTORE PUSH1 0x20 ADD SWAP1 DUP2 MSTORE PUSH1 0x20 ADD PUSH0 KECCAK256 SLOAD DUP2 LT ISZERO PUSH2 0xAF6 JUMPI DUP3 SWAP5 POP POP POP POP PUSH2 0xB54 JUMP JUMPDEST PUSH1 0x1 PUSH1 0x1 PUSH1 0xA0 SHL SUB DUP6 AND ISZERO DUP1 ISZERO PUSH2 0xB3F JUMPI POP PUSH1 0x2 PUSH0 DUP4 PUSH1 0x4 DUP2 GT ISZERO PUSH2 0xB1D JUMPI PUSH2 0xB1D PUSH2 0x145A JUMP JUMPDEST PUSH1 0x4 DUP2 GT ISZERO PUSH2 0xB2E JUMPI PUSH2 0xB2E PUSH2 0x145A JUMP JUMPDEST DUP2 MSTORE PUSH1 0x20 ADD SWAP1 DUP2 MSTORE PUSH1 0x20 ADD PUSH0 KECCAK256 SLOAD DUP2 LT JUMPDEST ISZERO PUSH2 0xB48 JUMPI DUP3 SWAP5 POP JUMPDEST POP POP POP JUMPDEST PUSH1 0x1 ADD PUSH2 0x9D7 JUMP JUMPDEST POP SWAP1 POP JUMPDEST SWAP3 SWAP2 POP POP JUMP JUMPDEST PUSH0 SLOAD PUSH1 0x1 PUSH1 0x1 PUSH1 0xA0 SHL SUB AND SWAP1 JUMP JUMPDEST PUSH1 0x60 PUSH0 DUP3 GT DUP1 ISZERO PUSH2 0xB7E JUMPI POP PUSH1 0x32 DUP3 GT ISZERO JUMPDEST PUSH2 0xBD4 JUMPI PUSH1 0x40 MLOAD PUSH3 0x461BCD PUSH1 0xE5 SHL DUP2 MSTORE PUSH1 0x20 PUSH1 0x4 DUP3 ADD MSTORE PUSH1 0x21 PUSH1 0x24 DUP3 ADD MSTORE PUSH32 0x7061676553697A65206D757374206265206265747765656E203120616E642035 PUSH1 0x44 DUP3 ADD MSTORE PUSH1 0x3 PUSH1 0xFC SHL PUSH1 0x64 DUP3 ADD MSTORE PUSH1 0x84 ADD PUSH2 0x5BA JUMP JUMPDEST PUSH1 0x4 SLOAD DUP1 DUP5 LT PUSH2 0xC17 JUMPI PUSH1 0x40 DUP1 MLOAD PUSH0 DUP1 DUP3 MSTORE PUSH1 0x20 DUP3 ADD SWAP1 SWAP3 MSTORE SWAP1 PUSH2 0xC0E JUMP JUMPDEST PUSH2 0xBFB PUSH2 0x1226 JUMP JUMPDEST DUP2 MSTORE PUSH1 0x20 ADD SWAP1 PUSH1 0x1 SWAP1 SUB SWAP1 DUP2 PUSH2 0xBF3 JUMPI SWAP1 POP JUMPDEST POP SWAP2 POP POP PUSH2 0xB58 JUMP JUMPDEST PUSH0 PUSH2 0xC22 DUP5 DUP7 PUSH2 0x174E JUMP JUMPDEST SWAP1 POP DUP2 DUP2 GT ISZERO PUSH2 0xC2F JUMPI POP DUP1 JUMPDEST PUSH0 PUSH2 0xC3A DUP7 DUP4 PUSH2 0x17D3 JUMP JUMPDEST PUSH1 0x1 PUSH1 0x1 PUSH1 0x40 SHL SUB DUP2 GT ISZERO PUSH2 0xC51 JUMPI PUSH2 0xC51 PUSH2 0x1373 JUMP JUMPDEST PUSH1 0x40 MLOAD SWAP1 DUP1 DUP3 MSTORE DUP1 PUSH1 0x20 MUL PUSH1 0x20 ADD DUP3 ADD PUSH1 0x40 MSTORE DUP1 ISZERO PUSH2 0xC8A JUMPI DUP2 PUSH1 0x20 ADD JUMPDEST PUSH2 0xC77 PUSH2 0x1226 JUMP JUMPDEST DUP2 MSTORE PUSH1 0x20 ADD SWAP1 PUSH1 0x1 SWAP1 SUB SWAP1 DUP2 PUSH2 0xC6F JUMPI SWAP1 POP JUMPDEST POP SWAP1 POP PUSH0 DUP7 JUMPDEST DUP4 DUP2 LT ISZERO PUSH2 0xD99 JUMPI PUSH1 0x5 PUSH0 PUSH1 0x4 DUP4 DUP2 SLOAD DUP2 LT PUSH2 0xCAE JUMPI PUSH2 0xCAE PUSH2 0x17BF JUMP JUMPDEST PUSH0 SWAP2 DUP3 MSTORE PUSH1 0x20 DUP1 DUP4 KECCAK256 SWAP1 SWAP2 ADD SLOAD PUSH1 0x1 PUSH1 0x1 PUSH1 0xA0 SHL SUB SWAP1 DUP2 AND DUP5 MSTORE DUP4 DUP3 ADD SWAP5 SWAP1 SWAP5 MSTORE PUSH1 0x40 SWAP3 DUP4 ADD SWAP1 SWAP2 KECCAK256 DUP3 MLOAD PUSH2 0x100 DUP2 ADD SWAP1 SWAP4 MSTORE DUP1 SLOAD SWAP4 DUP5 AND DUP4 MSTORE SWAP2 SWAP3 SWAP1 DUP4 ADD SWAP1 PUSH1 0xFF PUSH1 0x1 PUSH1 0xA0 SHL SWAP1 SWAP2 DIV AND PUSH1 0x4 DUP2 GT ISZERO PUSH2 0xD0A JUMPI PUSH2 0xD0A PUSH2 0x145A JUMP JUMPDEST PUSH1 0x4 DUP2 GT ISZERO PUSH2 0xD1B JUMPI PUSH2 0xD1B PUSH2 0x145A JUMP JUMPDEST DUP2 MSTORE PUSH1 0x1 DUP3 ADD SLOAD PUSH1 0x20 DUP3 ADD MSTORE PUSH1 0x2 DUP3 ADD SLOAD PUSH1 0x40 DUP3 ADD MSTORE PUSH1 0x3 DUP3 ADD SLOAD PUSH1 0x60 DUP3 ADD MSTORE PUSH1 0x4 DUP3 ADD SLOAD PUSH1 0x80 DUP3 ADD MSTORE PUSH1 0x5 DUP3 ADD SLOAD PUSH1 0xA0 DUP3 ADD MSTORE PUSH1 0x6 SWAP1 SWAP2 ADD SLOAD PUSH1 0x1 PUSH1 0x1 PUSH1 0xA0 SHL SUB AND PUSH1 0xC0 SWAP1 SWAP2 ADD MSTORE DUP4 MLOAD DUP5 SWAP1 DUP5 SWAP1 DUP2 LT PUSH2 0xD78 JUMPI PUSH2 0xD78 PUSH2 0x17BF JUMP JUMPDEST PUSH1 0x20 MUL PUSH1 0x20 ADD ADD DUP2 SWAP1 MSTORE POP DUP2 DUP1 PUSH2 0xD8E SWAP1 PUSH2 0x17E6 JUMP JUMPDEST SWAP3 POP POP PUSH1 0x1 ADD PUSH2 0xC90 JUMP JUMPDEST POP SWAP1 SWAP7 SWAP6 POP POP POP POP POP POP JUMP JUMPDEST PUSH2 0xDAD PUSH2 0x10B4 JUMP JUMPDEST DUP1 PUSH1 0x3 PUSH0 DUP5 PUSH1 0x4 DUP2 GT ISZERO PUSH2 0x3E1 JUMPI PUSH2 0x3E1 PUSH2 0x145A JUMP JUMPDEST PUSH2 0xDCB PUSH2 0x10B4 JUMP JUMPDEST PUSH2 0xDD8 DUP2 PUSH3 0x15180 PUSH2 0x162F JUMP JUMPDEST PUSH2 0xDE2 SWAP1 TIMESTAMP PUSH2 0x174E JUMP JUMPDEST PUSH1 0x1 PUSH1 0x1 PUSH1 0xA0 SHL SUB SWAP1 SWAP3 AND PUSH0 SWAP1 DUP2 MSTORE PUSH1 0x5 PUSH1 0x20 MSTORE PUSH1 0x40 SWAP1 KECCAK256 PUSH1 0x3 ADD SWAP2 SWAP1 SWAP2 SSTORE POP JUMP JUMPDEST PUSH1 0x6 SLOAD PUSH1 0x1 PUSH1 0x1 PUSH1 0xA0 SHL SUB AND CALLER EQ PUSH2 0xE2E JUMPI PUSH1 0x40 MLOAD PUSH3 0x461BCD PUSH1 0xE5 SHL DUP2 MSTORE PUSH1 0x4 ADD PUSH2 0x5BA SWAP1 PUSH2 0x17FE JUMP JUMPDEST PUSH1 0x1 PUSH1 0x1 PUSH1 0xA0 SHL SUB DUP3 AND PUSH0 SWAP1 DUP2 MSTORE PUSH1 0x5 PUSH1 0x20 MSTORE PUSH1 0x40 SWAP1 KECCAK256 PUSH1 0x3 ADD SLOAD TIMESTAMP GT ISZERO PUSH2 0xE93 JUMPI PUSH1 0x40 MLOAD PUSH3 0x461BCD PUSH1 0xE5 SHL DUP2 MSTORE PUSH1 0x20 PUSH1 0x4 DUP3 ADD MSTORE PUSH1 0x18 PUSH1 0x24 DUP3 ADD MSTORE PUSH24 0x73686F77726F6F6D206578706972657320616C7265616479 PUSH1 0x40 SHL PUSH1 0x44 DUP3 ADD MSTORE PUSH1 0x64 ADD PUSH2 0x5BA JUMP JUMPDEST PUSH1 0x1 PUSH1 0x1 PUSH1 0xA0 SHL SUB DUP3 AND PUSH0 SWAP1 DUP2 MSTORE PUSH1 0x5 PUSH1 0x20 MSTORE PUSH1 0x40 DUP2 KECCAK256 PUSH1 0x1 ADD DUP1 SLOAD DUP4 SWAP3 SWAP1 PUSH2 0xEBD SWAP1 DUP5 SWAP1 PUSH2 0x174E JUMP JUMPDEST SWAP1 SWAP2 SSTORE POP POP POP POP JUMP JUMPDEST PUSH1 0x6 SLOAD PUSH0 SWAP1 PUSH1 0x1 PUSH1 0x1 PUSH1 0xA0 SHL SUB AND CALLER EQ PUSH2 0xEF2 JUMPI PUSH1 0x40 MLOAD PUSH3 0x461BCD PUSH1 0xE5 SHL DUP2 MSTORE PUSH1 0x4 ADD PUSH2 0x5BA SWAP1 PUSH2 0x17FE JUMP JUMPDEST PUSH1 0x1 PUSH1 0x1 PUSH1 0xA0 SHL SUB DUP4 AND PUSH0 SWAP1 DUP2 MSTORE PUSH1 0x5 PUSH1 0x20 MSTORE PUSH1 0x40 SWAP1 KECCAK256 PUSH1 0x3 ADD SLOAD TIMESTAMP LT PUSH2 0xF1A JUMPI POP PUSH0 PUSH2 0xB58 JUMP JUMPDEST PUSH1 0x1 PUSH1 0x1 PUSH1 0xA0 SHL SUB DUP4 AND PUSH0 SWAP1 DUP2 MSTORE PUSH1 0x5 PUSH1 0x20 MSTORE PUSH1 0x40 DUP2 KECCAK256 PUSH1 0x2 ADD DUP1 SLOAD DUP5 SWAP3 SWAP1 PUSH2 0xF44 SWAP1 DUP5 SWAP1 PUSH2 0x174E JUMP JUMPDEST SWAP1 SWAP2 SSTORE POP POP PUSH1 0x1 PUSH1 0x1 PUSH1 0xA0 SHL SUB DUP4 AND PUSH0 SWAP1 DUP2 MSTORE PUSH1 0x5 PUSH1 0x20 MSTORE PUSH1 0x40 DUP2 KECCAK256 SLOAD PUSH1 0x1 SWAP1 DUP3 SWAP1 PUSH1 0x1 PUSH1 0xA0 SHL SWAP1 DIV PUSH1 0xFF AND PUSH1 0x4 DUP2 GT ISZERO PUSH2 0xF81 JUMPI PUSH2 0xF81 PUSH2 0x145A JUMP JUMPDEST PUSH1 0x4 DUP2 GT ISZERO PUSH2 0xF92 JUMPI PUSH2 0xF92 PUSH2 0x145A JUMP JUMPDEST DUP2 MSTORE PUSH1 0x20 DUP2 ADD SWAP2 SWAP1 SWAP2 MSTORE PUSH1 0x40 ADD PUSH0 KECCAK256 SLOAD SWAP5 SWAP4 POP POP POP POP JUMP JUMPDEST PUSH0 PUSH1 0x1 PUSH0 DUP4 PUSH1 0x4 DUP2 GT ISZERO PUSH2 0x93E JUMPI PUSH2 0x93E PUSH2 0x145A JUMP JUMPDEST PUSH1 0x6 SLOAD PUSH0 SWAP1 PUSH1 0x1 PUSH1 0x1 PUSH1 0xA0 SHL SUB AND CALLER EQ PUSH2 0xFEC JUMPI PUSH1 0x40 MLOAD PUSH3 0x461BCD PUSH1 0xE5 SHL DUP2 MSTORE PUSH1 0x4 ADD PUSH2 0x5BA SWAP1 PUSH2 0x17FE JUMP JUMPDEST PUSH1 0x1 PUSH1 0x1 PUSH1 0xA0 SHL SUB DUP3 AND PUSH0 SWAP1 DUP2 MSTORE PUSH1 0x5 PUSH1 0x20 MSTORE PUSH1 0x40 SWAP1 KECCAK256 PUSH1 0x3 ADD SLOAD TIMESTAMP LT PUSH2 0x1014 JUMPI POP PUSH0 SWAP2 SWAP1 POP JUMP JUMPDEST PUSH1 0x1 PUSH1 0x1 PUSH1 0xA0 SHL SUB DUP3 AND PUSH0 SWAP1 DUP2 MSTORE PUSH1 0x5 PUSH1 0x20 MSTORE PUSH1 0x40 DUP2 KECCAK256 SLOAD PUSH1 0x1 PUSH1 0xA0 SHL SWAP1 DIV PUSH1 0xFF AND SWAP1 PUSH1 0x1 DUP2 DUP4 PUSH1 0x4 DUP2 GT ISZERO PUSH2 0x104C JUMPI PUSH2 0x104C PUSH2 0x145A JUMP JUMPDEST PUSH1 0x4 DUP2 GT ISZERO PUSH2 0x105D JUMPI PUSH2 0x105D PUSH2 0x145A JUMP JUMPDEST DUP2 MSTORE PUSH1 0x20 DUP2 ADD SWAP2 SWAP1 SWAP2 MSTORE PUSH1 0x40 ADD PUSH0 KECCAK256 SLOAD SWAP3 POP POP POP JUMPDEST SWAP2 SWAP1 POP JUMP JUMPDEST PUSH2 0x107F PUSH2 0x10B4 JUMP JUMPDEST PUSH1 0x1 PUSH1 0x1 PUSH1 0xA0 SHL SUB DUP2 AND PUSH2 0x10A8 JUMPI PUSH0 PUSH1 0x40 MLOAD PUSH4 0x1E4FBDF7 PUSH1 0xE0 SHL DUP2 MSTORE PUSH1 0x4 ADD PUSH2 0x5BA SWAP2 SWAP1 PUSH2 0x14FD JUMP JUMPDEST PUSH2 0x10B1 DUP2 PUSH2 0x11D7 JUMP JUMPDEST POP JUMP JUMPDEST CALLER PUSH2 0x10BD PUSH2 0xB5E JUMP JUMPDEST PUSH1 0x1 PUSH1 0x1 PUSH1 0xA0 SHL SUB AND EQ PUSH2 0x9D1 JUMPI CALLER PUSH1 0x40 MLOAD PUSH4 0x118CDAA7 PUSH1 0xE0 SHL DUP2 MSTORE PUSH1 0x4 ADD PUSH2 0x5BA SWAP2 SWAP1 PUSH2 0x14FD JUMP JUMPDEST PUSH0 DUP1 DUP3 SLT PUSH2 0x10F4 JUMPI DUP2 PUSH2 0xB58 JUMP JUMPDEST PUSH2 0xB58 DUP3 PUSH2 0x1826 JUMP JUMPDEST PUSH8 0x57325BBF446493AC SWAP1 DUP2 SWAP1 MOD PUSH4 0x40000000 MUL DIV PUSH0 PUSH2 0xFFFF PUSH1 0x4 DUP4 SWAP1 SHR AND PUSH1 0xFF PUSH1 0x14 DUP5 SWAP1 SHR AND PUSH4 0x10000000 DUP5 AND ISZERO PUSH4 0x20000000 DUP6 AND ISZERO ISZERO DUP2 PUSH2 0x1141 JUMPI PUSH1 0xFF SWAP3 SWAP1 SWAP3 SUB SWAP2 JUMPDEST PUSH0 PUSH1 0x40 MLOAD DUP1 PUSH2 0x440 ADD PUSH1 0x40 MSTORE DUP1 PUSH2 0x404 DUP2 MSTORE PUSH1 0x20 ADD PUSH2 0x1841 PUSH2 0x404 SWAP2 CODECOPY PUSH1 0x4 PUSH1 0x2 DUP7 ADD MUL DUP2 DUP2 ADD MLOAD SWAP2 SWAP3 POP SWAP1 PUSH4 0xFFFFFFFF PUSH1 0x20 DUP3 SWAP1 SHR DUP2 AND SWAP1 DUP3 AND DUP2 DUP2 SUB DUP10 MUL PUSH1 0x10 SHR PUSH0 DUP9 PUSH2 0x1192 JUMPI DUP2 DUP4 SUB PUSH2 0x1196 JUMP JUMPDEST DUP2 DUP5 ADD JUMPDEST SWAP1 POP DUP8 ISZERO PUSH2 0x11A1 JUMPI PUSH0 SUB JUMPDEST PUSH4 0x7FFFFFFF PUSH8 0xDE0B6B3A7640000 DUP3 MUL SDIV SWAP14 SWAP13 POP POP POP POP POP POP POP POP POP POP POP POP POP JUMP JUMPDEST PUSH0 PUSH2 0xB58 PUSH8 0x15CC96EFD11924EB DUP4 ADD PUSH2 0x10FD JUMP JUMPDEST PUSH0 DUP1 SLOAD PUSH1 0x1 PUSH1 0x1 PUSH1 0xA0 SHL SUB DUP4 DUP2 AND PUSH1 0x1 PUSH1 0x1 PUSH1 0xA0 SHL SUB NOT DUP4 AND DUP2 OR DUP5 SSTORE PUSH1 0x40 MLOAD SWAP2 SWAP1 SWAP3 AND SWAP3 DUP4 SWAP2 PUSH32 0x8BE0079C531659141344CD1FD0A4F28419497F9722A3DAAFE3B4186F6B6457E0 SWAP2 SWAP1 LOG3 POP POP JUMP JUMPDEST PUSH1 0x40 DUP1 MLOAD PUSH2 0x100 DUP2 ADD SWAP1 SWAP2 MSTORE PUSH0 DUP1 DUP3 MSTORE PUSH1 0x20 DUP3 ADD SWAP1 DUP2 MSTORE PUSH1 0x20 ADD PUSH0 DUP2 MSTORE PUSH1 0x20 ADD PUSH0 DUP2 MSTORE PUSH1 0x20 ADD PUSH0 DUP2 MSTORE PUSH1 0x20 ADD PUSH0 DUP2 MSTORE PUSH1 0x20 ADD PUSH0 DUP2 MSTORE PUSH1 0x20 ADD PUSH0 PUSH1 0x1 PUSH1 0x1 PUSH1 0xA0 SHL SUB AND DUP2 MSTORE POP SWAP1 JUMP JUMPDEST DUP1 CALLDATALOAD PUSH1 0x5 DUP2 LT PUSH2 0x1072 JUMPI PUSH0 DUP1 REVERT JUMPDEST PUSH0 PUSH1 0x20 DUP3 DUP5 SUB SLT ISZERO PUSH2 0x128C JUMPI PUSH0 DUP1 REVERT JUMPDEST PUSH2 0x1295 DUP3 PUSH2 0x126E JUMP JUMPDEST SWAP4 SWAP3 POP POP POP JUMP JUMPDEST PUSH0 DUP1 PUSH1 0x40 DUP4 DUP6 SUB SLT ISZERO PUSH2 0x12AD JUMPI PUSH0 DUP1 REVERT JUMPDEST PUSH2 0x12B6 DUP4 PUSH2 0x126E JUMP JUMPDEST SWAP5 PUSH1 0x20 SWAP4 SWAP1 SWAP4 ADD CALLDATALOAD SWAP4 POP POP POP JUMP JUMPDEST PUSH0 DUP1 PUSH0 DUP1 PUSH1 0x80 DUP6 DUP8 SUB SLT ISZERO PUSH2 0x12D7 JUMPI PUSH0 DUP1 REVERT JUMPDEST POP POP DUP3 CALLDATALOAD SWAP5 PUSH1 0x20 DUP5 ADD CALLDATALOAD SWAP5 POP PUSH1 0x40 DUP5 ADD CALLDATALOAD SWAP4 PUSH1 0x60 ADD CALLDATALOAD SWAP3 POP SWAP1 POP JUMP JUMPDEST DUP1 CALLDATALOAD PUSH1 0x1 PUSH1 0x1 PUSH1 0xA0 SHL SUB DUP2 AND DUP2 EQ PUSH2 0x1072 JUMPI PUSH0 DUP1 REVERT JUMPDEST PUSH0 PUSH1 0x20 DUP3 DUP5 SUB SLT ISZERO PUSH2 0x1319 JUMPI PUSH0 DUP1 REVERT JUMPDEST PUSH2 0x1295 DUP3 PUSH2 0x12F3 JUMP JUMPDEST PUSH0 DUP1 PUSH0 DUP1 PUSH0 PUSH1 0xA0 DUP7 DUP9 SUB SLT ISZERO PUSH2 0x1336 JUMPI PUSH0 DUP1 REVERT JUMPDEST PUSH2 0x133F DUP7 PUSH2 0x12F3 JUMP JUMPDEST SWAP5 POP PUSH2 0x134D PUSH1 0x20 DUP8 ADD PUSH2 0x12F3 JUMP JUMPDEST SWAP4 POP PUSH2 0x135B PUSH1 0x40 DUP8 ADD PUSH2 0x126E JUMP JUMPDEST SWAP5 SWAP8 SWAP4 SWAP7 POP SWAP4 SWAP5 PUSH1 0x60 DUP2 ADD CALLDATALOAD SWAP5 POP PUSH1 0x80 ADD CALLDATALOAD SWAP3 SWAP2 POP POP JUMP JUMPDEST PUSH4 0x4E487B71 PUSH1 0xE0 SHL PUSH0 MSTORE PUSH1 0x41 PUSH1 0x4 MSTORE PUSH1 0x24 PUSH0 REVERT JUMPDEST PUSH0 DUP1 PUSH1 0x40 DUP4 DUP6 SUB SLT ISZERO PUSH2 0x1398 JUMPI PUSH0 DUP1 REVERT JUMPDEST DUP3 CALLDATALOAD SWAP2 POP PUSH1 0x20 DUP4 ADD CALLDATALOAD PUSH1 0x1 PUSH1 0x1 PUSH1 0x40 SHL SUB DUP2 GT ISZERO PUSH2 0x13B4 JUMPI PUSH0 DUP1 REVERT JUMPDEST DUP4 ADD PUSH1 0x1F DUP2 ADD DUP6 SGT PUSH2 0x13C4 JUMPI PUSH0 DUP1 REVERT JUMPDEST DUP1 CALLDATALOAD PUSH1 0x1 PUSH1 0x1 PUSH1 0x40 SHL SUB DUP2 GT ISZERO PUSH2 0x13DD JUMPI PUSH2 0x13DD PUSH2 0x1373 JUMP JUMPDEST PUSH1 0x40 MLOAD PUSH1 0x5 DUP3 SWAP1 SHL SWAP1 PUSH1 0x3F DUP3 ADD PUSH1 0x1F NOT AND DUP2 ADD PUSH1 0x1 PUSH1 0x1 PUSH1 0x40 SHL SUB DUP2 GT DUP3 DUP3 LT OR ISZERO PUSH2 0x140B JUMPI PUSH2 0x140B PUSH2 0x1373 JUMP JUMPDEST PUSH1 0x40 MSTORE SWAP2 DUP3 MSTORE PUSH1 0x20 DUP2 DUP5 ADD DUP2 ADD SWAP3 SWAP1 DUP2 ADD DUP9 DUP5 GT ISZERO PUSH2 0x1428 JUMPI PUSH0 DUP1 REVERT JUMPDEST PUSH1 0x20 DUP6 ADD SWAP5 POP JUMPDEST DUP4 DUP6 LT ISZERO PUSH2 0x144B JUMPI DUP5 CALLDATALOAD DUP1 DUP3 MSTORE PUSH1 0x20 SWAP6 DUP7 ADD SWAP6 SWAP1 SWAP4 POP ADD PUSH2 0x142F JUMP JUMPDEST POP DUP1 SWAP5 POP POP POP POP POP SWAP3 POP SWAP3 SWAP1 POP JUMP JUMPDEST PUSH4 0x4E487B71 PUSH1 0xE0 SHL PUSH0 MSTORE PUSH1 0x21 PUSH1 0x4 MSTORE PUSH1 0x24 PUSH0 REVERT JUMPDEST PUSH1 0x5 DUP2 LT PUSH2 0x148A JUMPI PUSH4 0x4E487B71 PUSH1 0xE0 SHL PUSH0 MSTORE PUSH1 0x21 PUSH1 0x4 MSTORE PUSH1 0x24 PUSH0 REVERT JUMPDEST SWAP1 MSTORE JUMP JUMPDEST PUSH1 0x1 PUSH1 0x1 PUSH1 0xA0 SHL SUB DUP10 AND DUP2 MSTORE PUSH2 0x100 DUP2 ADD PUSH2 0x14AC PUSH1 0x20 DUP4 ADD DUP11 PUSH2 0x146E JUMP JUMPDEST PUSH1 0x40 DUP3 ADD SWAP8 SWAP1 SWAP8 MSTORE PUSH1 0x60 DUP2 ADD SWAP6 SWAP1 SWAP6 MSTORE PUSH1 0x80 DUP6 ADD SWAP4 SWAP1 SWAP4 MSTORE PUSH1 0xA0 DUP5 ADD SWAP2 SWAP1 SWAP2 MSTORE PUSH1 0xC0 DUP4 ADD MSTORE PUSH1 0x1 PUSH1 0x1 PUSH1 0xA0 SHL SUB AND PUSH1 0xE0 SWAP1 SWAP2 ADD MSTORE SWAP3 SWAP2 POP POP JUMP JUMPDEST PUSH0 PUSH1 0x20 DUP3 DUP5 SUB SLT ISZERO PUSH2 0x14F6 JUMPI PUSH0 DUP1 REVERT JUMPDEST POP CALLDATALOAD SWAP2 SWAP1 POP JUMP JUMPDEST PUSH1 0x1 PUSH1 0x1 PUSH1 0xA0 SHL SUB SWAP2 SWAP1 SWAP2 AND DUP2 MSTORE PUSH1 0x20 ADD SWAP1 JUMP JUMPDEST PUSH0 DUP1 PUSH1 0x40 DUP4 DUP6 SUB SLT ISZERO PUSH2 0x1522 JUMPI PUSH0 DUP1 REVERT JUMPDEST POP POP DUP1 CALLDATALOAD SWAP3 PUSH1 0x20 SWAP1 SWAP2 ADD CALLDATALOAD SWAP2 POP JUMP JUMPDEST PUSH1 0x20 DUP1 DUP3 MSTORE DUP3 MLOAD DUP3 DUP3 ADD DUP2 SWAP1 MSTORE PUSH0 SWAP2 DUP5 ADD SWAP1 PUSH1 0x40 DUP5 ADD SWAP1 DUP4 JUMPDEST DUP2 DUP2 LT ISZERO PUSH2 0x15D0 JUMPI DUP4 MLOAD DUP1 MLOAD PUSH1 0x1 PUSH1 0x1 PUSH1 0xA0 SHL SUB AND DUP5 MSTORE PUSH1 0x20 DUP1 DUP3 ADD MLOAD SWAP1 PUSH2 0x1574 SWAP1 DUP7 ADD DUP3 PUSH2 0x146E JUMP JUMPDEST POP PUSH1 0x40 DUP2 DUP2 ADD MLOAD SWAP1 DUP6 ADD MSTORE PUSH1 0x60 DUP1 DUP3 ADD MLOAD SWAP1 DUP6 ADD MSTORE PUSH1 0x80 DUP1 DUP3 ADD MLOAD SWAP1 DUP6 ADD MSTORE PUSH1 0xA0 DUP1 DUP3 ADD MLOAD SWAP1 DUP6 ADD MSTORE PUSH1 0xC0 DUP1 DUP3 ADD MLOAD SWAP1 DUP6 ADD MSTORE PUSH1 0xE0 SWAP1 DUP2 ADD MLOAD PUSH1 0x1 PUSH1 0x1 PUSH1 0xA0 SHL SUB AND SWAP1 DUP5 ADD MSTORE PUSH1 0x20 SWAP4 SWAP1 SWAP4 ADD SWAP3 PUSH2 0x100 SWAP1 SWAP3 ADD SWAP2 PUSH1 0x1 ADD PUSH2 0x154A JUMP JUMPDEST POP SWAP1 SWAP6 SWAP5 POP POP POP POP POP JUMP JUMPDEST PUSH0 DUP1 PUSH1 0x40 DUP4 DUP6 SUB SLT ISZERO PUSH2 0x15EC JUMPI PUSH0 DUP1 REVERT JUMPDEST PUSH2 0x12B6 DUP4 PUSH2 0x12F3 JUMP JUMPDEST PUSH4 0x4E487B71 PUSH1 0xE0 SHL PUSH0 MSTORE PUSH1 0x11 PUSH1 0x4 MSTORE PUSH1 0x24 PUSH0 REVERT JUMPDEST DUP2 DUP2 SUB PUSH0 DUP4 SLT DUP1 ISZERO DUP4 DUP4 SGT AND DUP4 DUP4 SLT DUP3 AND OR ISZERO PUSH2 0x1628 JUMPI PUSH2 0x1628 PUSH2 0x15F5 JUMP JUMPDEST POP SWAP3 SWAP2 POP POP JUMP JUMPDEST DUP1 DUP3 MUL DUP2 ISZERO DUP3 DUP3 DIV DUP5 EQ OR PUSH2 0xB58 JUMPI PUSH2 0xB58 PUSH2 0x15F5 JUMP JUMPDEST PUSH4 0x4E487B71 PUSH1 0xE0 SHL PUSH0 MSTORE PUSH1 0x12 PUSH1 0x4 MSTORE PUSH1 0x24 PUSH0 REVERT JUMPDEST PUSH0 DUP3 PUSH2 0x1668 JUMPI PUSH2 0x1668 PUSH2 0x1646 JUMP JUMPDEST POP DIV SWAP1 JUMP JUMPDEST DUP1 DUP3 MUL PUSH0 DUP3 SLT PUSH1 0x1 PUSH1 0xFF SHL DUP5 EQ AND ISZERO PUSH2 0x1688 JUMPI PUSH2 0x1688 PUSH2 0x15F5 JUMP JUMPDEST DUP2 DUP2 SDIV DUP4 EQ DUP3 ISZERO OR PUSH2 0xB58 JUMPI PUSH2 0xB58 PUSH2 0x15F5 JUMP JUMPDEST DUP1 DUP3 ADD DUP3 DUP2 SLT PUSH0 DUP4 SLT DUP1 ISZERO DUP3 AND DUP3 ISZERO DUP3 AND OR ISZERO PUSH2 0x16BB JUMPI PUSH2 0x16BB PUSH2 0x15F5 JUMP JUMPDEST POP POP SWAP3 SWAP2 POP POP JUMP JUMPDEST PUSH0 DUP3 PUSH2 0x16D1 JUMPI PUSH2 0x16D1 PUSH2 0x1646 JUMP JUMPDEST PUSH1 0x1 PUSH1 0xFF SHL DUP3 EQ PUSH0 NOT DUP5 EQ AND ISZERO PUSH2 0x16EA JUMPI PUSH2 0x16EA PUSH2 0x15F5 JUMP JUMPDEST POP SDIV SWAP1 JUMP JUMPDEST PUSH1 0x20 DUP1 DUP3 MSTORE PUSH1 0x1B SWAP1 DUP3 ADD MSTORE PUSH27 0x14DB585C9D0818DBDB9D1C9858DD1CC81B9BDD08185B1B1BDDD959 PUSH1 0x2A SHL PUSH1 0x40 DUP3 ADD MSTORE PUSH1 0x60 ADD SWAP1 JUMP JUMPDEST PUSH1 0x20 DUP1 DUP3 MSTORE PUSH1 0x10 SWAP1 DUP3 ADD MSTORE PUSH16 0x14DA1BDDDC9BDBDB48195E1C1A5C9959 PUSH1 0x82 SHL PUSH1 0x40 DUP3 ADD MSTORE PUSH1 0x60 ADD SWAP1 JUMP JUMPDEST DUP1 DUP3 ADD DUP1 DUP3 GT ISZERO PUSH2 0xB58 JUMPI PUSH2 0xB58 PUSH2 0x15F5 JUMP JUMPDEST DUP4 DUP2 MSTORE PUSH1 0x1 PUSH1 0x1 PUSH1 0xA0 SHL SUB DUP4 AND PUSH1 0x20 DUP1 DUP4 ADD SWAP2 SWAP1 SWAP2 MSTORE PUSH1 0x60 PUSH1 0x40 DUP4 ADD DUP2 SWAP1 MSTORE DUP4 MLOAD SWAP1 DUP4 ADD DUP2 SWAP1 MSTORE PUSH0 SWAP2 DUP5 ADD SWAP1 PUSH1 0x80 DUP5 ADD SWAP1 DUP4 JUMPDEST DUP2 DUP2 LT ISZERO PUSH2 0x17B2 JUMPI DUP4 MLOAD DUP4 MSTORE PUSH1 0x20 SWAP4 DUP5 ADD SWAP4 SWAP1 SWAP3 ADD SWAP2 PUSH1 0x1 ADD PUSH2 0x1794 JUMP JUMPDEST POP SWAP1 SWAP8 SWAP7 POP POP POP POP POP POP POP JUMP JUMPDEST PUSH4 0x4E487B71 PUSH1 0xE0 SHL PUSH0 MSTORE PUSH1 0x32 PUSH1 0x4 MSTORE PUSH1 0x24 PUSH0 REVERT JUMPDEST DUP2 DUP2 SUB DUP2 DUP2 GT ISZERO PUSH2 0xB58 JUMPI PUSH2 0xB58 PUSH2 0x15F5 JUMP JUMPDEST PUSH0 PUSH1 0x1 DUP3 ADD PUSH2 0x17F7 JUMPI PUSH2 0x17F7 PUSH2 0x15F5 JUMP JUMPDEST POP PUSH1 0x1 ADD SWAP1 JUMP JUMPDEST PUSH1 0x20 DUP1 DUP3 MSTORE PUSH1 0xE SWAP1 DUP3 ADD MSTORE PUSH14 0x139BDD08185D5D1A1BDC9A5E9959 PUSH1 0x92 SHL PUSH1 0x40 DUP3 ADD MSTORE PUSH1 0x60 ADD SWAP1 JUMP JUMPDEST PUSH0 PUSH1 0x1 PUSH1 0xFF SHL DUP3 ADD PUSH2 0x183A JUMPI PUSH2 0x183A PUSH2 0x15F5 JUMP JUMPDEST POP PUSH0 SUB SWAP1 JUMP INVALID STOP STOP STOP STOP STOP 0xC9 0xF DUP9 ADD SWAP3 SAR KECCAK256 MUL JUMPDEST 0x26 0xD7 SUB 0x24 0x2A 0xBF SUB 0xED 0x26 0xE6 DIV 0xB6 NOT TSTORE SDIV PUSH32 0x350647D97C0710A34507D95B9E08A2009A096A90490A3308BC0AFB68050BC3 0xAC CALLDATALOAD 0xC DUP12 0xD3 MCOPY 0xD MSTORE8 0xDB SWAP3 0xE SHL 0xC2 0xE4 0xE 0xE3 DUP8 PUSH7 0xFAB272B1072A0 BASEFEE GT CODECOPY CREATE 0xCF SLT ADD AND 0xD5 SLT 0xC8 LT PUSH15 0x138EDBB1145576B1151BDF8515E214 PREVRANDAO AND 0xA8 SGT SDIV OR PUSH14 0xD9DE183366E818F8B83C19BDCBF3 BYTE DUP3 LOG0 0x25 SHL SELFBALANCE ORIGIN 0xEF SHR SIGNEXTEND DUP3 PUSH11 0x1CCF8CB31D934FE51E56CA 0x1E 0x1F NOT 0xF9 PUSH28 0x1FDCDC1B209F701C2161B39F2223A4C522E541AF23A6887E24677757 0x25 0x28 0xC TSTORE 0x25 0xE8 GASLIMIT 0xB6 0x26 0xA8 0x21 DUP6 0x27 PUSH8 0x9DF42826B92828E5 PUSH18 0x4A29A3C4852A61B1012B1F34EB2BDC4E6F2C SWAP9 0xFB 0xBA 0x2D SSTORE GASPRICE 0xFB 0x2E GT EXP PUSH3 0x2ECC68 0x1E 0x2F DUP8 MSTORE PUSH3 0x3041C7 PUSH1 0x30 0xFB 0xC5 0x4D BALANCE 0xB5 BLOBBASEFEE TSTORE ORIGIN PUSH15 0x54C73326E2C233DEF2873496824F35 0x4D SWAP1 JUMP CALLDATASIZE DIV BYTE 0xD9 CALLDATASIZE 0xBA KECCAK256 SGT CALLDATACOPY PUSH16 0x9E46382493B038D8FE93398CDD323A40 0x2D 0xD1 GASPRICE CALLCODE 0xEE 0xB7 EXTCODESIZE 0xA5 0x1E 0x29 EXTCODECOPY JUMP 0xBA PUSH17 0x3D07C1D53DB832A53E680B2C3F1749B73F 0xC5 0xEC SWAP8 BLOCKHASH PUSH20 0xF21D4121589A41CE1E64427A41D04325C13543D0 SWAP11 0xEC PREVRANDAO PUSH27 0xCD50452456BC45CD358F46756827471CECE647C3C22E4869E66449 0xF JUMPI 0xEE BLOBHASH 0xB4 ISZERO CALLER BLOBBASEFEE PC SHR SWAP14 BLOBBASEFEE 0xFB PUSH13 0x974B9E038F4C3FDFF34CE10034 0x4D DUP2 PUSH3 0xC34E21 MOD OR 0x4E 0xBF 0xE8 LOG4 0x4F MCOPY ADDMOD 0xE2 0x4F 0xFB PUSH6 0x4C5097FC5E51 CALLER 0xCC SWAP5 MLOAD 0xCE 0xD4 PUSH15 0x5269126E53028517539B2AEF543302 PUSH30 0x54CA0A4A556040E255F5A4D2568A34A9571DEEF957B0D2555842DD5458D4 0xE DUP13 MSIZE PUSH5 0x649759F3DE SLT GAS DUP3 PUSH26 0x995B1035CE5B9D11535C290ACC5CB420DF5D3E52365DC79D7B5E POP ADD TSTORE MCOPY 0xD7 PUSH29 0x895F5E0DB25FE3B38D60686CCE60EC382F616F146B61F1003E6271FA68 PUSH3 0xF201AC PUSH4 0x7114CC63 0xEF ORIGIN DUP16 PUSH5 0x6C59BF64E8 DUP10 0x25 PUSH6 0x63BF9165DDFB 0xD2 PUSH7 0x573CBB66CF811F PUSH8 0x46C7D767BD0FBC68 ORIGIN JUMPI 0xAA PUSH9 0xA69E806919E31F698C 0x24 PUSH12 0x69FD614A6A6D98A36ADCC964 PUSH12 0x4AF2786BB812D06C24295F6C DUP16 CALLDATALOAD SHL PUSH13 0xF934FB6D6227F96DCA0D146E30 0xE3 BLOBHASH PUSH15 0x96A99C6EFB5F116F5F02B16FC19384 PUSH17 0x231099708378FE70E2CBC571410804719E 0x2C 0xD1 PUSH18 0xFA394872552C8472AF05A67307C3CF735F66 0x25 PUSH20 0xB5EBD0740B53FA745F9DD074B2C8837504D34475 SSTORE 0xBD 0x4B PUSH22 0xA585CE75F42C0A7641AF3C768E0EA576D9498877235F 0x2C PUSH24 0x6C4EDA77B417DF77FAB988784033287884841378C7ABA179 MULMOD 0xA9 0x2C PUSH26 0x4A7C11798A23B079C89F6D7A05EEAC7A4210D87A7D055A7AB6CB LOG3 PUSH27 0xEF63237B26CB4E7B5D039D7B920B887BC5E28F7BF8882F7C29FBED PUSH29 0x5A3D4F7C894BDD7CB727237CE3CEB17D0F42177D3980EB7D628AC57D8A PUSH0 EXTCODEHASH PUSH30 0xB0FDF77DD6668E7DFA98A77E1D93E97E3F57FE7E5FE4927E7F39567E9D55 0xFB PUSH31 0xBA3A387ED5E5C57EF0585F7F0991C37F2191B37F3857F57F4DE4507F62368E PUSH32 0x754E7F7F872BF27F97CEBC7FA736B37FB563B27FC255957FCE0C3D7FD8878D7F 0xE1 0xC7 PUSH11 0x7FE9CBBF7FF094777FF621 DUP2 PUSH32 0xFA72D07FFD88597FFF62157FFFFFFFA264697066735822122090DF5B1061C006 SMOD 0xB6 GASPRICE MSTORE SWAP13 CALLDATASIZE DUP15 0xDA 0xF8 0xDE PUSH27 0xEE1C9BC5BF484BC9D0C1A93564C064736F6C634300081A00330000 "
		},
		"gasEstimates": {
			"creation": {
				"codeDepositCost": "1458000",
				"executionCost": "292693",
				"totalCost": "1750693"
			},
			"external": {
				"addShowRoom(address,address,uint8,uint256,uint256)": "infinite",
				"allShowrooms(uint256)": "4899",
				"calculateDistance(uint256,uint256,uint256,uint256)": "infinite",
				"findNearestShowroom(uint256,uint256)": "infinite",
				"getBalance()": "4654",
				"getCommisionRate(address)": "infinite",
				"getShowroomCommissionRate(uint8)": "3058",
				"getShowroomSafeRadius(uint8)": "2750",
				"getShowroomScanRadius(uint8)": "2706",
				"getShowrooms(uint256,uint256)": "3063",
				"owner()": "2698",
				"plusCommision(address,uint256)": "29517",
				"plusMember(address,uint256)": "34050",
				"renounceOwnership()": "infinite",
				"safeRadius(uint8)": "2465",
				"scanRadius(uint8)": "2707",
				"setShowroomCommissionRate(uint8,uint256)": "24909",
				"setShowroomExpiryDate(address,uint256)": "infinite",
				"setShowroomSafeRadius(uint8,uint256)": "25151",
				"setShowroomScanRadius(uint8,uint256)": "24755",
				"setTreeCommissionContract(address)": "26843",
				"showroomCommissionRates(uint8)": "2685",
				"showroomNodes(address)": "15795",
				"transferOwnership(address)": "28902",
				"treeCommissionContract()": "2712",
				"withdrawBPFromShowRoom(uint256,bytes32[])": "infinite"
			},
			"internal": {
				"abs(int256)": "123"
			}
		},
		"methodIdentifiers": {
			"addShowRoom(address,address,uint8,uint256,uint256)": "266b09d1",
			"allShowrooms(uint256)": "5f0b032b",
			"calculateDistance(uint256,uint256,uint256,uint256)": "108d4b4e",
			"findNearestShowroom(uint256,uint256)": "7cce9939",
			"getBalance()": "12065fe0",
			"getCommisionRate(address)": "f08ae3f0",
			"getShowroomCommissionRate(uint8)": "efcf91c7",
			"getShowroomSafeRadius(uint8)": "457142f5",
			"getShowroomScanRadius(uint8)": "3075119d",
			"getShowrooms(uint256,uint256)": "a23d431a",
			"owner()": "8da5cb5b",
			"plusCommision(address,uint256)": "c849c1d0",
			"plusMember(address,uint256)": "da77abed",
			"renounceOwnership()": "715018a6",
			"safeRadius(uint8)": "018f5036",
			"scanRadius(uint8)": "51ecb8af",
			"setShowroomCommissionRate(uint8,uint256)": "3ab32c06",
			"setShowroomExpiryDate(address,uint256)": "bffc0ccd",
			"setShowroomSafeRadius(uint8,uint256)": "bdb561ad",
			"setShowroomScanRadius(uint8,uint256)": "0f937a0a",
			"setTreeCommissionContract(address)": "22a493d7",
			"showroomCommissionRates(uint8)": "47a1efa6",
			"showroomNodes(address)": "53a2dfc1",
			"transferOwnership(address)": "f2fde38b",
			"treeCommissionContract()": "a0815a54",
			"withdrawBPFromShowRoom(uint256,bytes32[])": "2c048f00"
		}
	},
	"abi": [
		{
			"inputs": [],
			"stateMutability": "nonpayable",
			"type": "constructor"
		},
		{
			"inputs": [
				{
					"internalType": "address",
					"name": "owner",
					"type": "address"
				}
			],
			"name": "OwnableInvalidOwner",
			"type": "error"
		},
		{
			"inputs": [
				{
					"internalType": "address",
					"name": "account",
					"type": "address"
				}
			],
			"name": "OwnableUnauthorizedAccount",
			"type": "error"
		},
		{
			"anonymous": false,
			"inputs": [
				{
					"indexed": true,
					"internalType": "address",
					"name": "previousOwner",
					"type": "address"
				},
				{
					"indexed": true,
					"internalType": "address",
					"name": "newOwner",
					"type": "address"
				}
			],
			"name": "OwnershipTransferred",
			"type": "event"
		},
		{
			"anonymous": false,
			"inputs": [
				{
					"indexed": true,
					"internalType": "address",
					"name": "showroom",
					"type": "address"
				},
				{
					"indexed": true,
					"internalType": "address",
					"name": "parent",
					"type": "address"
				}
			],
			"name": "ShowroomAdded",
			"type": "event"
		},
		{
			"inputs": [
				{
					"internalType": "address",
					"name": "newShowroom",
					"type": "address"
				},
				{
					"internalType": "address",
					"name": "parent",
					"type": "address"
				},
				{
					"internalType": "enum Showroom.ShowroomTier",
					"name": "tier",
					"type": "uint8"
				},
				{
					"internalType": "uint256",
					"name": "longtitude",
					"type": "uint256"
				},
				{
					"internalType": "uint256",
					"name": "lattitude",
					"type": "uint256"
				}
			],
			"name": "addShowRoom",
			"outputs": [],
			"stateMutability": "nonpayable",
			"type": "function"
		},
		{
			"inputs": [
				{
					"internalType": "uint256",
					"name": "",
					"type": "uint256"
				}
			],
			"name": "allShowrooms",
			"outputs": [
				{
					"internalType": "address",
					"name": "",
					"type": "address"
				}
			],
			"stateMutability": "view",
			"type": "function"
		},
		{
			"inputs": [
				{
					"internalType": "uint256",
					"name": "lat1",
					"type": "uint256"
				},
				{
					"internalType": "uint256",
					"name": "lon1",
					"type": "uint256"
				},
				{
					"internalType": "uint256",
					"name": "lat2",
					"type": "uint256"
				},
				{
					"internalType": "uint256",
					"name": "lon2",
					"type": "uint256"
				}
			],
			"name": "calculateDistance",
			"outputs": [
				{
					"internalType": "uint256",
					"name": "",
					"type": "uint256"
				}
			],
			"stateMutability": "pure",
			"type": "function"
		},
		{
			"inputs": [
				{
					"internalType": "uint256",
					"name": "userLat",
					"type": "uint256"
				},
				{
					"internalType": "uint256",
					"name": "userLon",
					"type": "uint256"
				}
			],
			"name": "findNearestShowroom",
			"outputs": [
				{
					"internalType": "address",
					"name": "",
					"type": "address"
				}
			],
			"stateMutability": "view",
			"type": "function"
		},
		{
			"inputs": [],
			"name": "getBalance",
			"outputs": [
				{
					"internalType": "uint256",
					"name": "",
					"type": "uint256"
				}
			],
			"stateMutability": "view",
			"type": "function"
		},
		{
			"inputs": [
				{
					"internalType": "address",
					"name": "showroom",
					"type": "address"
				}
			],
			"name": "getCommisionRate",
			"outputs": [
				{
					"internalType": "uint256",
					"name": "",
					"type": "uint256"
				}
			],
			"stateMutability": "nonpayable",
			"type": "function"
		},
		{
			"inputs": [
				{
					"internalType": "enum Showroom.ShowroomTier",
					"name": "tier",
					"type": "uint8"
				}
			],
			"name": "getShowroomCommissionRate",
			"outputs": [
				{
					"internalType": "uint256",
					"name": "",
					"type": "uint256"
				}
			],
			"stateMutability": "view",
			"type": "function"
		},
		{
			"inputs": [
				{
					"internalType": "enum Showroom.ShowroomTier",
					"name": "tier",
					"type": "uint8"
				}
			],
			"name": "getShowroomSafeRadius",
			"outputs": [
				{
					"internalType": "uint256",
					"name": "",
					"type": "uint256"
				}
			],
			"stateMutability": "view",
			"type": "function"
		},
		{
			"inputs": [
				{
					"internalType": "enum Showroom.ShowroomTier",
					"name": "tier",
					"type": "uint8"
				}
			],
			"name": "getShowroomScanRadius",
			"outputs": [
				{
					"internalType": "uint256",
					"name": "",
					"type": "uint256"
				}
			],
			"stateMutability": "view",
			"type": "function"
		},
		{
			"inputs": [
				{
					"internalType": "uint256",
					"name": "startIndex",
					"type": "uint256"
				},
				{
					"internalType": "uint256",
					"name": "pageSize",
					"type": "uint256"
				}
			],
			"name": "getShowrooms",
			"outputs": [
				{
					"components": [
						{
							"internalType": "address",
							"name": "parent",
							"type": "address"
						},
						{
							"internalType": "enum Showroom.ShowroomTier",
							"name": "tier",
							"type": "uint8"
						},
						{
							"internalType": "uint256",
							"name": "totalBP",
							"type": "uint256"
						},
						{
							"internalType": "uint256",
							"name": "totalMember",
							"type": "uint256"
						},
						{
							"internalType": "uint256",
							"name": "expiryDate",
							"type": "uint256"
						},
						{
							"internalType": "uint256",
							"name": "longtitude",
							"type": "uint256"
						},
						{
							"internalType": "uint256",
							"name": "lattitude",
							"type": "uint256"
						},
						{
							"internalType": "address",
							"name": "showroom",
							"type": "address"
						}
					],
					"internalType": "struct Showroom.ShowroomNode[]",
					"name": "",
					"type": "tuple[]"
				}
			],
			"stateMutability": "view",
			"type": "function"
		},
		{
			"inputs": [],
			"name": "owner",
			"outputs": [
				{
					"internalType": "address",
					"name": "",
					"type": "address"
				}
			],
			"stateMutability": "view",
			"type": "function"
		},
		{
			"inputs": [
				{
					"internalType": "address",
					"name": "showroom",
					"type": "address"
				},
				{
					"internalType": "uint256",
					"name": "bp",
					"type": "uint256"
				}
			],
			"name": "plusCommision",
			"outputs": [],
			"stateMutability": "nonpayable",
			"type": "function"
		},
		{
			"inputs": [
				{
					"internalType": "address",
					"name": "showroom",
					"type": "address"
				},
				{
					"internalType": "uint256",
					"name": "totalMember",
					"type": "uint256"
				}
			],
			"name": "plusMember",
			"outputs": [
				{
					"internalType": "uint256",
					"name": "",
					"type": "uint256"
				}
			],
			"stateMutability": "nonpayable",
			"type": "function"
		},
		{
			"inputs": [],
			"name": "renounceOwnership",
			"outputs": [],
			"stateMutability": "nonpayable",
			"type": "function"
		},
		{
			"inputs": [
				{
					"internalType": "enum Showroom.ShowroomTier",
					"name": "",
					"type": "uint8"
				}
			],
			"name": "safeRadius",
			"outputs": [
				{
					"internalType": "uint256",
					"name": "",
					"type": "uint256"
				}
			],
			"stateMutability": "view",
			"type": "function"
		},
		{
			"inputs": [
				{
					"internalType": "enum Showroom.ShowroomTier",
					"name": "",
					"type": "uint8"
				}
			],
			"name": "scanRadius",
			"outputs": [
				{
					"internalType": "uint256",
					"name": "",
					"type": "uint256"
				}
			],
			"stateMutability": "view",
			"type": "function"
		},
		{
			"inputs": [
				{
					"internalType": "enum Showroom.ShowroomTier",
					"name": "tier",
					"type": "uint8"
				},
				{
					"internalType": "uint256",
					"name": "percent",
					"type": "uint256"
				}
			],
			"name": "setShowroomCommissionRate",
			"outputs": [],
			"stateMutability": "nonpayable",
			"type": "function"
		},
		{
			"inputs": [
				{
					"internalType": "address",
					"name": "showroom",
					"type": "address"
				},
				{
					"internalType": "uint256",
					"name": "changedDays",
					"type": "uint256"
				}
			],
			"name": "setShowroomExpiryDate",
			"outputs": [],
			"stateMutability": "nonpayable",
			"type": "function"
		},
		{
			"inputs": [
				{
					"internalType": "enum Showroom.ShowroomTier",
					"name": "tier",
					"type": "uint8"
				},
				{
					"internalType": "uint256",
					"name": "radius",
					"type": "uint256"
				}
			],
			"name": "setShowroomSafeRadius",
			"outputs": [],
			"stateMutability": "nonpayable",
			"type": "function"
		},
		{
			"inputs": [
				{
					"internalType": "enum Showroom.ShowroomTier",
					"name": "tier",
					"type": "uint8"
				},
				{
					"internalType": "uint256",
					"name": "radius",
					"type": "uint256"
				}
			],
			"name": "setShowroomScanRadius",
			"outputs": [],
			"stateMutability": "nonpayable",
			"type": "function"
		},
		{
			"inputs": [
				{
					"internalType": "address",
					"name": "_treeCommission",
					"type": "address"
				}
			],
			"name": "setTreeCommissionContract",
			"outputs": [],
			"stateMutability": "nonpayable",
			"type": "function"
		},
		{
			"inputs": [
				{
					"internalType": "enum Showroom.ShowroomTier",
					"name": "",
					"type": "uint8"
				}
			],
			"name": "showroomCommissionRates",
			"outputs": [
				{
					"internalType": "uint256",
					"name": "",
					"type": "uint256"
				}
			],
			"stateMutability": "view",
			"type": "function"
		},
		{
			"inputs": [
				{
					"internalType": "address",
					"name": "",
					"type": "address"
				}
			],
			"name": "showroomNodes",
			"outputs": [
				{
					"internalType": "address",
					"name": "parent",
					"type": "address"
				},
				{
					"internalType": "enum Showroom.ShowroomTier",
					"name": "tier",
					"type": "uint8"
				},
				{
					"internalType": "uint256",
					"name": "totalBP",
					"type": "uint256"
				},
				{
					"internalType": "uint256",
					"name": "totalMember",
					"type": "uint256"
				},
				{
					"internalType": "uint256",
					"name": "expiryDate",
					"type": "uint256"
				},
				{
					"internalType": "uint256",
					"name": "longtitude",
					"type": "uint256"
				},
				{
					"internalType": "uint256",
					"name": "lattitude",
					"type": "uint256"
				},
				{
					"internalType": "address",
					"name": "showroom",
					"type": "address"
				}
			],
			"stateMutability": "view",
			"type": "function"
		},
		{
			"inputs": [
				{
					"internalType": "address",
					"name": "newOwner",
					"type": "address"
				}
			],
			"name": "transferOwnership",
			"outputs": [],
			"stateMutability": "nonpayable",
			"type": "function"
		},
		{
			"inputs": [],
			"name": "treeCommissionContract",
			"outputs": [
				{
					"internalType": "address",
					"name": "",
					"type": "address"
				}
			],
			"stateMutability": "view",
			"type": "function"
		},
		{
			"inputs": [
				{
					"internalType": "uint256",
					"name": "amount",
					"type": "uint256"
				},
				{
					"internalType": "bytes32[]",
					"name": "utxoArr",
					"type": "bytes32[]"
				}
			],
			"name": "withdrawBPFromShowRoom",
			"outputs": [],
			"stateMutability": "nonpayable",
			"type": "function"
		}
	]
}