{
	"data": {
		"bytecode": {
			"linkReferences": {},
			"object": "60806040526011805461ffff1916905534801561001a575f5ffd5b506040516179cb3803806179cb833981016040819052610039916101d6565b6307270e0061004c6064620f4240610278565b1061008a5760405162461bcd60e51b815260206004820152600a60248201526977726f6e6720636f646560b01b604482015260640160405180910390fd5b601b80546001600160a01b03199081166001600160a01b038a811691909117909255601c80548216898416179055601d80548216888416179055601780548216848416179055601480548216878416179055601580548216868416179055601680548216858416179055601e805482168c8416178155601f80548316938c1693909317909255601880543392169190911790556001805480820182555f8281527fb10e2d527612073b26eecdfd717e6a320cf44b4afac2b0732d9fcbe2b7fa0cf6918201558154808301835560289082015581548083018355602390820155815480830183558101929092558054808201909155601991015550506014546001600160a01b03165f908152600460205260409020600201805461ff001916610100179055506102a195505050505050565b80516001600160a01b03811681146101d1575f5ffd5b919050565b5f5f5f5f5f5f5f5f5f6101208a8c0312156101ef575f5ffd5b6101f88a6101bb565b985061020660208b016101bb565b975061021460408b016101bb565b965061022260608b016101bb565b955061023060808b016101bb565b945061023e60a08b016101bb565b935061024c60c08b016101bb565b925061025a60e08b016101bb565b91506102696101008b016101bb565b90509295985092959850929598565b808202811582820484141761029b57634e487b7160e01b5f52601160045260245ffd5b92915050565b61771d806102ae5f395ff3fe60806040526004361061019e575f3560e01c806308a851b8146101a257806310d86b1f146101c3578063185807e4146101e25780631da0073a146102015780631f01f30d1461023857806320d996d214610265578063259dbd96146102ae5780632cf899e2146102cd57806335b79c3d146102e157806338cb9134146102f557806338cc48311461033957806340d1ac1314610377578063424ad610146103a3578063432e9d88146103c257806344b89702146103e15780634a0328de14610400578063504ed7331461041f57806358979bfe146104575780635f35ca9c14610476578063614743271461049557806361a475c8146104b4578063667883f1146104df5780636c0adbbd146104fe5780638345be551461051d578063839c7ead1461053c5780638b59d23e1461054f5780638ca8107b1461056e578063964b74dd1461058d578063b35cade9146105b9578063b9bcaf02146105d8578063bcd565ba146105eb578063c2ad61e71461060a578063d7b5a2d414610695578063db499bf5146106b4578063e1ab8c6b146106c8578063e45c1b56146106ea575b5f5ffd5b3480156101ad575f5ffd5b506101c16101bc366004616647565b610709565b005b3480156101ce575f5ffd5b506101c16101dd366004616647565b61075e565b3480156101ed575f5ffd5b506101c16101fc3660046167a0565b6107b0565b34801561020c575f5ffd5b5061022061021b366004616802565b610833565b60405161022f93929190616976565b60405180910390f35b348015610243575f5ffd5b50610257610252366004616a31565b610c6c565b60405190815260200161022f565b348015610270575f5ffd5b5061029e61027f366004616647565b6001600160a01b039081165f9081526004602052604090205416151590565b604051901515815260200161022f565b3480156102b9575f5ffd5b506101c16102c8366004616a51565b6110c9565b3480156102d8575f5ffd5b506101c16113ef565b3480156102ec575f5ffd5b506101c1611432565b348015610300575f5ffd5b5061032c61030f366004616647565b6001600160a01b039081165f908152600460205260409020541690565b60405161022f9190616a8f565b348015610344575f5ffd5b5061034d61147b565b604080516001600160a01b039485168152928416602084015292169181019190915260600161022f565b348015610382575f5ffd5b50610396610391366004616aa3565b6114cd565b60405161022f9190616ae5565b3480156103ae575f5ffd5b50601f5461032c906001600160a01b031681565b3480156103cd575f5ffd5b50601e5461032c906001600160a01b031681565b3480156103ec575f5ffd5b506101c16103fb366004616b5d565b61154b565b34801561040b575f5ffd5b5061032c61041a366004616647565b6118e8565b34801561042a575f5ffd5b50610433611960565b6040805182516001600160a01b03168152602092830151928101929092520161022f565b348015610462575f5ffd5b506101c1610471366004616647565b611a03565b348015610481575f5ffd5b506101c1610490366004616baa565b611a4f565b3480156104a0575f5ffd5b506101c16104af366004616bed565b611adb565b3480156104bf575f5ffd5b50335f908152601260205260409020546001600160a01b0316151561029e565b3480156104ea575f5ffd5b50601b5461032c906001600160a01b031681565b348015610509575f5ffd5b5061029e610518366004616647565b611b68565b348015610528575f5ffd5b506101c1610537366004616c17565b611bca565b6101c161054a366004616c2e565b611cc0565b34801561055a575f5ffd5b5061029e610569366004616647565b6120a6565b348015610579575f5ffd5b506101c1610588366004616647565b612102565b348015610598575f5ffd5b506105ac6105a7366004616aa3565b61214e565b60405161022f9190616c66565b3480156105c4575f5ffd5b506101c16105d3366004616c85565b61230a565b6101c16105e6366004616bed565b61239f565b3480156105f6575f5ffd5b506101c1610605366004616a31565b6125e0565b348015610615575f5ffd5b50610629610624366004616aa3565b6127d7565b60405161022f91905f61012082019050825182526020830151602083015260408301516040830152606083015160608301526080830151608083015260a083015160a083015260c083015160c083015260e083015160e083015261010083015161010083015292915050565b3480156106a0575f5ffd5b506101c16106af366004616a31565b612891565b3480156106bf575f5ffd5b506101c1612e81565b3480156106d3575f5ffd5b506106dc612f71565b60405161022f929190616ca0565b3480156106f5575f5ffd5b506101c1610704366004616c17565b613131565b6018546001600160a01b0316331461073c5760405162461bcd60e51b815260040161073390616cc1565b60405180910390fd5b601f80546001600160a01b0319166001600160a01b0392909216919091179055565b6018546001600160a01b031633146107885760405162461bcd60e51b815260040161073390616cc1565b6001600160a01b03165f908152600460205260409020600201805461ff001916610300179055565b5f83116107cf5760405162461bcd60e51b815260040161073390616cf6565b6014546001600160a01b03163314806107f257506016546001600160a01b031633145b8061080757506015546001600160a01b031633145b6108235760405162461bcd60e51b815260040161073390616d2d565b61082e838383613461565b505050565b606080803332146108565760405162461bcd60e51b815260040161073390616d5c565b61086760048833896020602161388f565b6108a95760405162461bcd60e51b81526020600482015260136024820152722ab730baba3437b934bd32b21031b0b63632b960691b6044820152606401610733565b6001600160a01b0387165f9081526004602052604090206001015480861061094157604080515f80825260208201818152828401909352909190610903565b6108f06164a7565b8152602001906001900390816108e85790505b50604080515f8082526020820190925290610934565b6109216164cc565b8152602001906001900390816109195790505b5093509350935050610c62565b5f8161094d8789616da5565b116109585785610962565b6109628783616db8565b9050806001600160401b0381111561097c5761097c616662565b6040519080825280602002602001820160405280156109b557816020015b6109a26164a7565b81526020019060019003908161099a5790505b509350806001600160401b038111156109d0576109d0616662565b604051908082528060200260200182016040528015610a0957816020015b6109f66164cc565b8152602001906001900390816109ee5790505b509250806001600160401b03811115610a2457610a24616662565b604051908082528060200260200182016040528015610a4d578160200160208202803683370190505b5094505f5b81811015610c5e576001600160a01b038a165f908152600460205260408120600101610a7e838b616da5565b81548110610a8e57610a8e616dcb565b5f9182526020808320909101546001600160a01b03908116808452600483526040938490208451608081018652815490931683526001810180548651818702810187019097528087529296509294909385810193919290830182828015610b1c57602002820191905f5260205f20905b81546001600160a01b03168152600190910190602001808311610afe575b5050509183525050600282015460209091019060ff166007811115610b4357610b43616888565b6007811115610b5457610b54616888565b81526020016002820160019054906101000a900460ff166003811115610b7c57610b7c616888565b6003811115610b8d57610b8d616888565b81525050868381518110610ba357610ba3616dcb565b602002602001018190525060055f826001600160a01b03166001600160a01b031681526020019081526020015f206040518060a00160405290815f8201548152602001600182015481526020016002820154815260200160038201548152602001600482015481525050858381518110610c1f57610c1f616dcb565b602002602001018190525080878381518110610c3d57610c3d616dcb565b6001600160a01b039092166020928302919091019091015250600101610a52565b5050505b9450945094915050565b6018545f906001600160a01b03163314610c985760405162461bcd60e51b815260040161073390616cc1565b600e548310610cb95760405162461bcd60e51b815260040161073390616ddf565b5f8211610d125760405162461bcd60e51b815260206004820152602160248201527f42617463682073697a65206d7573742062652067726561746572207468616e206044820152600360fc1b6064820152608401610733565b600e54610d1f8482616db8565b831115610d3357610d308482616db8565b92505b5f5b8381108015610d4357508185105b156110a6575f600e8681548110610d5c57610d5c616dcb565b5f918252602090912001546001600160a01b03169050801580610d8c57506014546001600160a01b038281169116145b15610d9c575f93505050506110c3565b610daf6004600560076008600a86613a0d565b506001600160a01b038082165f90815260046020526040902054168015611084576001600160a01b0381165f9081526005602052604081206001908101805491929091610dfd908490616da5565b90915550506001600160a01b0381165f908152601a602052604090205460ff161515600114801590610e6a57506001600160a01b0382165f9081526019602052604090206001015460ff1680610e6a57506001600160a01b0382165f908152601a602052604090205460ff165b15610e92576001600160a01b0381165f908152601a60205260409020805460ff191660011790555b6001600160a01b0382165f908152601960209081526040808320838155600101805460ff19908116909155601a835281842080549091169055600990915290205415610f64576001600160a01b038083165f9081526009602052604080822054928416825281208054909190610f09908490616da5565b90915550506001600160a01b038083165f908152600960209081526040808320549385168352600a90915281208054909190610f46908490616da5565b90915550506001600160a01b0382165f908152600960205260408120555b6001600160a01b0381165f908152600460209081526040808320600190810154600590935292209091015403610fdc576001600160a01b0381165f908152600560209081526040808320600101839055601a90915290205460ff1615610fd357610fd360056004600284613b68565b610fdc81613e29565b6001600160a01b0381165f908152601a602052604090205460ff168015611037575060016001600160a01b0382165f90815260046020526040902060020154610100900460ff16600381111561103457611034616888565b14155b80156110495750611049600582614058565b15611084576001600160a01b0381165f908152600460208190526040909120600201805461ff00191661010017905561108490600c836140a1565b8661108e81616e0c565b975050828061109c90616e0c565b9350505050610d35565b8185106110b3575f6110be565b6110be856001616da5565b925050505b92915050565b3332146110e85760405162461bcd60e51b815260040161073390616d5c565b601154610100900460ff16156111105760405162461bcd60e51b815260040161073390616e24565b6001600160a01b038381165f9081526004602052604090205416156111475760405162461bcd60e51b815260040161073390616e4c565b6001600160a01b038381165f90815260126020526040902054161561117e5760405162461bcd60e51b815260040161073390616e79565b6001600160a01b038281165f90815260046020526040902054161515806111b257506014546001600160a01b038381169116145b6111ce5760405162461bcd60e51b815260040161073390616ead565b6014546001600160a01b0383811691161415806111f557506018546001600160a01b031633145b6112115760405162461bcd60e51b815260040161073390616edc565b601f5460405163700786d760e11b81526001600160a01b0390911690819063e00f0dae90611243908790600401616a8f565b602060405180830381865afa15801561125e573d5f5f3e3d5ffd5b505050506040513d601f19601f820116820180604052508101906112829190616f16565b6001600160a01b0316836001600160a01b0316146112b25760405162461bcd60e51b815260040161073390616f31565b6017546112cd906001600160a01b0316836307270e00614122565b6040518060400160405280846001600160a01b03168152602001426301e133806112f79190616da5565b90526001600160a01b038086165f818152601260209081526040808320865181549087166001600160a01b0319918216178255968301516001918201559489168352601382528220805494850181558252902090910180549092161790556113618460648461433e565b601b546016546001600160a01b039182169163e115dc7f911684606461138e620f42406307270e00616f6f565b6113989190616db8565b600160026040518663ffffffff1660e01b81526004016113bc959493929190616f82565b5f604051808303815f87803b1580156113d3575f5ffd5b505af11580156113e5573d5f5f3e3d5ffd5b5050505050505050565b6018546001600160a01b031633146114195760405162461bcd60e51b815260040161073390616cc1565b601b54611430906001600160a01b03166002614444565b565b6018546001600160a01b0316331461145c5760405162461bcd60e51b815260040161073390616cc1565b60145461143090600490600d90600b906001600160a01b0316806146b9565b6018545f90819081906001600160a01b031633146114ab5760405162461bcd60e51b815260040161073390616cc1565b50506015546016546014546001600160a01b0392831693509082169116909192565b601b54604051635bc3e91160e11b81526060916001600160a01b03169063b787d2229061150290879087908790600401616fb5565b5f60405180830381865afa15801561151c573d5f5f3e3d5ffd5b505050506040513d5f823e601f3d908101601f191682016040526115439190810190616fd6565b949350505050565b33321461156a5760405162461bcd60e51b815260040161073390616d5c565b601154610100900460ff16156115925760405162461bcd60e51b815260040161073390616e24565b6001600160a01b038581165f9081526004602052604090205416156115c95760405162461bcd60e51b815260040161073390616e4c565b6001600160a01b038581165f9081526012602052604090205416156116005760405162461bcd60e51b815260040161073390616e79565b6001600160a01b038481165f908152600460205260409020541615158061163457506014546001600160a01b038581169116145b6116505760405162461bcd60e51b815260040161073390616ead565b6014546001600160a01b03858116911614158061167757506018546001600160a01b031633145b6116935760405162461bcd60e51b815260040161073390616edc565b601f5460405163700786d760e11b81526001600160a01b0390911690819063e00f0dae906116c5908990600401616a8f565b602060405180830381865afa1580156116e0573d5f5f3e3d5ffd5b505050506040513d601f19601f820116820180604052508101906117049190616f16565b6001600160a01b0316856001600160a01b0316146117345760405162461bcd60e51b815260040161073390616f31565b60175461175c906001600160a01b0316836117576307270e006302625a00616da5565b614122565b6117688660648461433e565b601b546016546001600160a01b039182169163e115dc7f9116846064611795620f42406307270e00616f6f565b61179f9190616db8565b600160026040518663ffffffff1660e01b81526004016117c3959493929190616f82565b5f604051808303815f87803b1580156117da575f5ffd5b505af11580156117ec573d5f5f3e3d5ffd5b505060115460ff161591506118ca905057506040805160a0810182526001600160a01b038088168252868116602083019081529282018681526060830186815260808401868152600f80546001810182555f91909152945160059095025f5160206176c85f395f51905f52810180549686166001600160a01b031997881617905595515f5160206176a85f395f51905f528701805491909516951694909417909255515f5160206176885f395f51905f52840155515f5160206176685f395f51905f52830155515f5160206176485f395f51905f52909101556118e1565b6118d26149b9565b6118df8686868686614b5a565b505b5050505050565b601f5460405163700786d760e11b81525f916001600160a01b031690819063e00f0dae9061191a908690600401616a8f565b602060405180830381865afa158015611935573d5f5f3e3d5ffd5b505050506040513d601f19601f820116820180604052508101906119599190616f16565b9392505050565b604080518082019091525f80825260208201523332146119925760405162461bcd60e51b815260040161073390616d5c565b335f818152601260205260409020546001600160a01b03166119c65760405162461bcd60e51b8152600401610733906170aa565b6001600160a01b039081165f9081526012602090815260409182902082518084019093528054909316825260019092015491810191909152905090565b6018546001600160a01b03163314611a2d5760405162461bcd60e51b815260040161073390616cc1565b601780546001600160a01b0319166001600160a01b0392909216919091179055565b5f8211611a6e5760405162461bcd60e51b815260040161073390616cf6565b32331480611a8657506014546001600160a01b031633145b80611a9b57506016546001600160a01b031633145b80611ab057506015546001600160a01b031633145b611acc5760405162461bcd60e51b815260040161073390616d2d565b611ad7823383613461565b5050565b6018546001600160a01b03163314611b055760405162461bcd60e51b815260040161073390616cc1565b6001600160a01b038281165f9081526004602052604090205416611b5d5760405162461bcd60e51b815260206004820152600f60248201526e55736572206e6f742065786973747360881b6044820152606401610733565b611ad75f83836151e3565b6001600160a01b038181165f90815260046020526040812054909116158015906110c3575060016001600160a01b0383165f90815260046020526040902060020154610100900460ff166003811115611bc357611bc3616888565b1492915050565b6018546001600160a01b03163314611bf45760405162461bcd60e51b815260040161073390616cc1565b60175460165460405163095ea7b360e01b81526001600160a01b039283169263095ea7b392611c2a9291169085906004016170d7565b6020604051808303815f875af1158015611c46573d5f5f3e3d5ffd5b505050506040513d601f19601f82011682018060405250810190611c6a91906170f0565b5060165460405163053f29f760e31b8152600481018390526001600160a01b03909116906329f94fb8906024015f604051808303815f87803b158015611cae575f5ffd5b505af11580156118e1573d5f5f3e3d5ffd5b333214611cdf5760405162461bcd60e51b815260040161073390616d5c565b601154610100900460ff1615611d075760405162461bcd60e51b815260040161073390616e24565b6001600160a01b038481165f9081526012602052604090205416611d605760405162461bcd60e51b815260206004820152601060248201526f55736572206e6f742070656e64696e6760801b6044820152606401610733565b6001600160a01b0384165f90815260126020526040902060010154421115611dbf5760405162461bcd60e51b815260206004820152601260248201527113595b58995c9cda1a5c08195e1c1a5c995960721b6044820152606401610733565b6001600160a01b038085165f908152601260209081526040808320548416808452600490925290912054909116151580611e0657506014546001600160a01b038281169116145b611e225760405162461bcd60e51b815260040161073390616ead565b601754611e3d906001600160a01b0316836302625a00614122565b6001600160a01b0385165f90815260126020526040812080546001600160a01b03191681556001018190555b6001600160a01b0382165f90815260136020526040902054811015611fb1576001600160a01b038281165f90815260136020526040902080549188169183908110611eb657611eb6616dcb565b5f918252602090912001546001600160a01b031603611fa9576001600160a01b0382165f9081526013602052604090208054611ef490600190616db8565b81548110611f0457611f04616dcb565b5f9182526020808320909101546001600160a01b03858116845260139092526040909220805491909216919083908110611f4057611f40616dcb565b5f91825260208083209190910180546001600160a01b0319166001600160a01b039485161790559184168152601390915260409020805480611f8457611f8461710b565b5f8281526020902081015f1990810180546001600160a01b0319169055019055611fb1565b600101611e69565b5060115460ff161561208b576040805160a0810182526001600160a01b038088168252928316602082019081529181018681526060820186815260808301868152600f80546001810182555f91909152935160059094025f5160206176c85f395f51905f52810180549588166001600160a01b031996871617905594515f5160206176a85f395f51905f528601805491909716941693909317909455515f5160206176885f395f51905f5283015591515f5160206176685f395f51905f5282015590515f5160206176485f395f51905f52909101556120a0565b6120936149b9565b6118e18582868686614b5a565b50505050565b6001600160a01b038181165f908152600460205260408120549091161515806120e757506001600160a01b038281165f908152601260205260409020541615155b806110c35750506014546001600160a01b0390811691161490565b6018546001600160a01b0316331461212c5760405162461bcd60e51b815260040161073390616cc1565b601e80546001600160a01b0319166001600160a01b0392909216919091179055565b606033321461216f5760405162461bcd60e51b815260040161073390616d5c565b5f8211801561217f575060328211155b6121d55760405162461bcd60e51b815260206004820152602160248201527f7061676553697a65206d757374206265206265747765656e203120616e6420356044820152600360fc1b6064820152608401610733565b6001600160a01b0384165f90815260136020526040902054808410612209575050604080515f815260208101909152611959565b5f6122148486616da5565b9050818111156122215750805b5f61222c8683616db8565b6001600160401b0381111561224357612243616662565b60405190808252806020026020018201604052801561226c578160200160208202803683370190505b5090505f865b838110156122fd576001600160a01b0389165f9081526013602052604090208054829081106122a3576122a3616dcb565b905f5260205f20015f9054906101000a90046001600160a01b03168383815181106122d0576122d0616dcb565b6001600160a01b0390921660209283029190910190910152816122f281616e0c565b925050600101612272565b5090979650505050505050565b6018546001600160a01b031633146123345760405162461bcd60e51b815260040161073390616cc1565b60115460ff16156123855760405162461bcd60e51b815260206004820152601b60248201527a42617463682070726f63657373696e672069732072756e6e696e6760281b6044820152606401610733565b601180549115156101000261ff0019909216919091179055565b3332146123be5760405162461bcd60e51b815260040161073390616d5c565b601154610100900460ff16156123e65760405162461bcd60e51b815260040161073390616e24565b6001600160a01b038281165f90815260126020526040902054166124a6576001600160a01b038281165f908152600460205260409020541661243a5760405162461bcd60e51b8152600401610733906170aa565b6001600160a01b0382165f908152600560205260409020544211156124a15760405162461bcd60e51b815260206004820181905260248201527f4d656d6265727368697020657870697265642c2063616e6e6f742072656e65776044820152606401610733565b612504565b6001600160a01b038281165f9081526004602052604090205416156125045760405162461bcd60e51b8152602060048201526014602482015273557365722077726f6e672073747275637475726560601b6044820152606401610733565b60175461251f906001600160a01b0316826307270e00614122565b6001600160a01b0382165f90815260056020526040812080546301e13380929061254a908490616da5565b9091555061255c90508260648361433e565b601b546016546001600160a01b039182169163e115dc7f9116836064612589620f42406307270e00616f6f565b6125939190616db8565b600160026040518663ffffffff1660e01b81526004016125b7959493929190616f82565b5f604051808303815f87803b1580156125ce575f5ffd5b505af11580156118df573d5f5f3e3d5ffd5b6018546001600160a01b0316331461260a5760405162461bcd60e51b815260040161073390616cc1565b600354821061262b5760405162461bcd60e51b815260040161073390616ddf565b61263660025f6164f6565b6003545f906126458385616da5565b11612659576126548284616da5565b61265d565b6003545b9050825b8181101561277e575f6003828154811061267d5761267d616dcb565b5f9182526020808320909101546001600160a01b03168083526007909152604082205490925060011115806126cb57506001600160a01b0382165f908152600a602081905260409091205410155b806126ee57506001600160a01b0382165f90815260086020526040902054606411155b156126f7575060015b8061273a576001600160a01b0382165f908152600460205260408120600201805461ff00191661010083021790555061273560046005600285615249565b612747565b6127476004600c846140a1565b506001600160a01b03165f908152600760209081526040808320839055600a82528083208390556008909152812055600101612661565b505f5b6021548110156127cb5760205f602183815481106127a1576127a1616dcb565b5f91825260208083209091015483528201929092526040019020805460ff19169055600101612781565b5061082e60215f6164f6565b61281d6040518061012001604052805f81526020015f81526020015f81526020015f81526020015f81526020015f81526020015f81526020015f81526020015f81525090565b601b5460405163316f085f60e01b81526001600160a01b039091169063316f085f9061285190879087908790600401616fb5565b61012060405180830381865afa15801561286d573d5f5f3e3d5ffd5b505050506040513d601f19601f82011682018060405250810190611543919061711f565b3332146128b05760405162461bcd60e51b815260040161073390616d5c565b601154610100900460ff16156128d85760405162461bcd60e51b815260040161073390616e24565b816128f55760405162461bcd60e51b815260040161073390617198565b601e54604051637d84709760e11b8152600481018490526001600160a01b03909116905f90829063fb08e12e90602401602060405180830381865afa158015612940573d5f5f3e3d5ffd5b505050506040513d601f19601f8201168201806040525081019061296491906171c2565b9050805f036129855760405162461bcd60e51b8152600401610733906171d9565b60405163d09ef24160e01b8152600481018290525f906001600160a01b0384169063d09ef241906024015f60405180830381865afa1580156129c9573d5f5f3e3d5ffd5b505050506040513d5f823e601f3d908101601f191682016040526129f09190810190617268565b6101608101519091505f80805b846101400151518160ff161015612adc575f8561014001518260ff1681518110612a2957612a29616dcb565b602002602001015111612a6c5760405162461bcd60e51b815260206004820152600b60248201526a1c995dd85c990819985a5b60aa1b6044820152606401610733565b8461014001518160ff1681518110612a8657612a86616dcb565b602002602001015182612a999190616da5565b91508461010001518160ff1681518110612ab557612ab5616dcb565b602002602001015183612ac89190616da5565b925080612ad48161747d565b9150506129fd565b50602084015160408501516001600160a01b0380831691161482612b03620f424087616f6f565b11612b435760405162461bcd60e51b815260206004820152601060248201526f2bb937b7339031b7b6b6b4b9b9b4b7b760811b6044820152606401610733565b6001600160a01b038216612b695760405162461bcd60e51b81526004016107339061749b565b5f8511612b885760405162461bcd60e51b81526004016107339061749b565b338115612c29576001600160a01b038181165f9081526004602052604090205416151580612bce57506001600160a01b038181165f908152601260205260409020541615155b612c295760405162461bcd60e51b815260206004820152602660248201527f5573657220616c72656164792065786973747320696e20564950206f7220507260448201526537b6b7ba32b960d11b6064820152608401610733565b6001600160a01b038181165f9081526004602052604090205416612cac57506001600160a01b038083165f90815260046020526040902054839116612ca75760405162461bcd60e51b8152602060048201526014602482015273506172656e74206973206e6f742065786973747360601b6044820152606401610733565b612d82565b60016001600160a01b0382165f90815260046020526040902060020154610100900460ff166003811115612ce257612ce2616888565b14612d245760405162461bcd60e51b815260206004820152601260248201527155736572206973206e6f742061637469766560701b6044820152606401610733565b6001600160a01b038181165f90815260046020526040902054811690841614612d825760405162461bcd60e51b815260206004820152601060248201526f0a0c2e4cadce840dcdee840dac2e8c6d60831b6044820152606401610733565b601754612d99906001600160a01b03168b88614122565b604051637c4a0cb760e11b8152600481018c90526001600160a01b038a169063f894196e906024015f604051808303815f87803b158015612dd8575f5ffd5b505af1158015612dea573d5f5f3e3d5ffd5b505050506040518060800160405280858152602001868152602001826001600160a01b031681526020018b81525060225f8d81526020019081526020015f205f820151815f0155602082015181600101556040820151816002015f6101000a8154816001600160a01b0302191690836001600160a01b03160217905550606082015181600301559050505050505050505050505050565b6018546001600160a01b03163314612eab5760405162461bcd60e51b815260040161073390616cc1565b601154610100900460ff1615612ed35760405162461bcd60e51b815260040161073390616e24565b60115460ff1615612f1b5760405162461bcd60e51b8152602060048201526012602482015271416c72656164792070726f63657373696e6760701b6044820152606401610733565b6011805460ff19166001179055612f3061545e565b601e5f5b600e54811015612f5f575f612f498284610c6c565b9050805f03612f585750612f5f565b9050612f34565b6011805460ff19169055611ad76149b9565b612f796164a7565b612f816164cc565b333214612fa05760405162461bcd60e51b815260040161073390616d5c565b335f818152600460205260409020546001600160a01b0316612fd45760405162461bcd60e51b8152600401610733906170aa565b6001600160a01b038082165f9081526004602090815260409182902082516080810184528154909416845260018101805484518185028101850190955280855291938584019390929083018282801561305457602002820191905f5260205f20905b81546001600160a01b03168152600190910190602001808311613036575b5050509183525050600282015460209091019060ff16600781111561307b5761307b616888565b600781111561308c5761308c616888565b81526020016002820160019054906101000a900460ff1660038111156130b4576130b4616888565b60038111156130c5576130c5616888565b81525050925060055f826001600160a01b03166001600160a01b031681526020019081526020015f206040518060a00160405290815f82015481526020016001820154815260200160028201548152602001600382015481526020016004820154815250509150509091565b601e546001600160a01b03163381146131c05760405162461bcd60e51b815260206004820152604560248201527f7b2266726f6d223a202254726565436f6d2e736f6c222c22636f6465223a203560448201527f352c20226d657373616765223a2022596f7520617265206e6f7420616c6c6f7760648201526465642e227d60d81b608482015260a401610733565b601154610100900460ff16156131e85760405162461bcd60e51b815260040161073390616e24565b816132055760405162461bcd60e51b815260040161073390617198565b5f82815260226020526040902054806132305760405162461bcd60e51b8152600401610733906171d9565b5f838152602260205260409020600381015460018201546002909201549091906001600160a01b031681156133b35760026001600160a01b0382165f90815260046020526040902060020154610100900460ff16600381111561329557613295616888565b1461332357601b546001600160a01b031663e115dc7f828560646132bc620f424088616f6f565b6132c79060506174c1565b6132d19190616f6f565b600160056040518663ffffffff1660e01b81526004016132f5959493929190616f82565b5f604051808303815f87803b15801561330c575f5ffd5b505af115801561331e573d5f5f3e3d5ffd5b505050505b601b546015546001600160a01b039182169163e115dc7f911685606461334c620f424088616f6f565b6133579060146174c1565b6133619190616f6f565b600160056040518663ffffffff1660e01b8152600401613385959493929190616f82565b5f604051808303815f87803b15801561339c575f5ffd5b505af11580156133ae573d5f5f3e3d5ffd5b505050505b6133be81858561433e565b5f868152602260205260408082208281556001808201849055600280830180546001600160a01b0319169055600390920193909355601b54601454925163e115dc7f60e01b81526001600160a01b039182169463e115dc7f9461342c9493169289928b929190600401616f82565b5f604051808303815f87803b158015613443575f5ffd5b505af1158015613455573d5f5f3e3d5ffd5b50505050505050505050565b8051156134da57601b546040516368bd52e560e11b81526001600160a01b039091169063d17aa5ca9061349a90859085906004016174d8565b6020604051808303815f875af11580156134b6573d5f5f3e3d5ffd5b505050506040513d601f19601f820116820180604052508101906120a091906170f0565b601b5460405163f8b2cb4f60e01b81525f916001600160a01b03169063f8b2cb4f9061350a903390600401616a8f565b602060405180830381865afa158015613525573d5f5f3e3d5ffd5b505050506040513d601f19601f8201168201806040525081019061354991906171c2565b9050838110156135925760405162461bcd60e51b8152602060048201526014602482015273496e73756666696369656e742062616c616e636560601b6044820152606401610733565b601b5460405163c84d239b60e01b81526001600160a01b039091169063c84d239b906135c490339088906004016170d7565b6020604051808303815f875af11580156135e0573d5f5f3e3d5ffd5b505050506040513d601f19601f8201168201806040525081019061360491906170f0565b61365a5760405162461bcd60e51b815260206004820152602160248201527f496e73756666696369656e742062616c616e636520666f7220776974686472616044820152607760f81b6064820152608401610733565b335f908152600460205260409020600290810154610100900460ff169081600381111561368957613689616888565b141580156136a9575060038160038111156136a6576136a6616888565b14155b6136e35760405162461bcd60e51b815260206004820152600b60248201526a44656e792061636365737360a81b6044820152606401610733565b6017546040516370a0823160e01b81526001600160a01b03909116906370a0823190613713903090600401616a8f565b602060405180830381865afa15801561372e573d5f5f3e3d5ffd5b505050506040513d601f19601f8201168201806040525081019061375291906171c2565b61375f86620f42406174c1565b106137a95760405162461bcd60e51b815260206004820152601a6024820152794e6f7420656e6f756768207573647420696e2074726565436f6d60301b6044820152606401610733565b6137d56040518060400160405280600a81526020016930b6b7bab73a1036309d60b11b81525086615577565b6017546001600160a01b031663a9059cbb856137f488620f42406174c1565b6040518363ffffffff1660e01b81526004016138119291906170d7565b6020604051808303815f875af115801561382d573d5f5f3e3d5ffd5b505050506040513d601f19601f8201168201806040525081019061385191906170f0565b6118e15760405162461bcd60e51b815260206004820152600f60248201526e151c985b9cd9995c8819985a5b1959608a1b6044820152606401610733565b5f6001600160a01b0385163314806138e55750825f33876040516020016138b792919061752d565b60408051601f198184030181529181528151602092830120835290820192909252015f205460ff1615156001145b6139215760405162461bcd60e51b815260206004820152600d60248201526c139bdd081c195c9b5a5d1d1959609a1b6044820152606401610733565b5f865b6001600160a01b038116156139fd578161393d8161747d565b9250508560ff168260ff1603156139fd57866001600160a01b0316816001600160a01b03160361397257600192505050613a03565b6001600160a01b039081165f90815260208a9052604090205416613997600a8361754f565b60ff165f036139f8575f33826040516020016139b492919061752d565b60408051601f1981840301815291815281516020928301205f818152898452918220805460ff19166001908117909155885490810189558883529290912090910155505b613924565b5f925050505b9695505050505050565b6001600160a01b0381165f908152602087905260408120600290810154610100900460ff1690816003811115613a4557613a45616888565b1480613a6257506003816003811115613a6057613a60616888565b145b15613a70575f915050613a03565b6001600160a01b0383165f90815260208890526040902054421115613ac6576001600160a01b0383165f9081526020899052604090206002908101805461ff001916610100835b02179055506001915050613a03565b6001600160a01b0383165f908152602087905260409020546001111580613b0557506001600160a01b0383165f90815260208590526040902054600a11155b80613b2857506001600160a01b0383165f90815260208690526040902054606411155b15613b5b576001600160a01b0383165f90815260208990526040902060020180546001919061ff00191661010083613ab7565b505f979650505050505050565b6001600160a01b0381165f90815260208581526040808320600201549186905282206001015490919081816001600160401b03811115613baa57613baa616662565b604051908082528060200260200182016040528015613bd3578160200160208202803683370190505b5090505f5b82811015613ce0576001600160a01b0386165f908152602089905260408120600101805483908110613c0c57613c0c616dcb565b5f9182526020808320909101546001600160a01b03168083528b82526040808420928e905283206003810154600290910154919450919291613c4d91616da5565b90505f8111613c5e57505050613cd8565b6001600160a01b0383165f90815260208d9052604081206003015584518190869086908110613c8f57613c8f616dcb565b6020908102919091010152613ca48189616da5565b97506004600283015460ff166007811115613cc157613cc1616888565b1015613cd457613cd18188616da5565b96505b5050505b600101613bd8565b5083156113e5575f60056001600160a01b0387165f90815260208a9052604090206002015460ff166007811115613d1957613d19616888565b1015613d26576032613d29565b60285b60ff1690505f6064613d3b83886174c1565b613d459190616f6f565b90505f805b85811015613da75782858281518110613d6557613d65616dcb565b602002602001015111613d9157848181518110613d8457613d84616dcb565b6020026020010151613d93565b825b613d9d9083616da5565b9150600101613d4a565b506001600160a01b0388165f90815260208c90526040812060030154613dcd9083616db8565b90508015613dfe576001600160a01b0389165f90815260208d905260409020600301829055613dfe8b8d8c8c615249565b5050506001600160a01b0386165f90815260208a905260409020600401859055505050505050505050565b6001600160a01b038082165f908152600460205260409020541680613e4c575050565b6001600160a01b0381165f9081526005602052604081206001908101805491929091613e79908490616da5565b90915550506001600160a01b0381165f908152601a602052604090205460ff161515600114801590613ee657506001600160a01b0382165f9081526019602052604090206001015460ff1680613ee657506001600160a01b0382165f908152601a602052604090205460ff165b15613f0e576001600160a01b0381165f908152601a60205260409020805460ff191660011790555b6001600160a01b0382165f908152601960209081526040808320838155600101805460ff19908116909155601a835281842080549091169055600990915290205415613fe0576001600160a01b038083165f9081526009602052604080822054928416825281208054909190613f85908490616da5565b90915550506001600160a01b038083165f908152600960209081526040808320549385168352600a90915281208054909190613fc2908490616da5565b90915550506001600160a01b0382165f908152600960205260408120555b6001600160a01b0381165f908152600460209081526040808320600190810154600590935292209091015403611ad7576001600160a01b0381165f908152600560209081526040808320600101839055601a90915290205460ff161561404f5761404f60056004600284613b68565b611ad781613e29565b6001600160a01b0381165f9081526020839052604081206002015460641115806119595750506001600160a01b03165f90815260209190915260409020600301546101f4111590565b6001600160a01b0381165f908152602084905260408120600101905b81548110156118e15782845f8484815481106140db576140db616dcb565b5f918252602080832091909101546001600160a01b039081168452908301939093526040909101902080546001600160a01b031916929091169190911790556001016140bd565b8161082e576040516370a0823160e01b81525f906001600160a01b038516906370a0823190614155903090600401616a8f565b602060405180830381865afa158015614170573d5f5f3e3d5ffd5b505050506040513d601f19601f8201168201806040525081019061419491906171c2565b6040516323b872dd60e01b8152336004820152306024820152604481018490529091506001600160a01b038516906323b872dd906064016020604051808303815f875af11580156141e7573d5f5f3e3d5ffd5b505050506040513d601f19601f8201168201806040525081019061420b91906170f0565b61424e5760405162461bcd60e51b81526020600482015260146024820152731554d115081d1c985b9cd9995c8819985a5b195960621b6044820152606401610733565b6040516370a0823160e01b81525f906001600160a01b038616906370a082319061427c903090600401616a8f565b602060405180830381865afa158015614297573d5f5f3e3d5ffd5b505050506040513d601f19601f820116820180604052508101906142bb91906171c2565b90505f6142c88383616db8565b90506142d7620f424085616db8565b81101580156142f257506142ee84620f4240616da5565b8111155b6118df5760405162461bcd60e51b815260206004820152601e60248201527f496e636f72726563742055534454207472616e7366657220616d6f756e7400006044820152606401610733565b601154610100900460ff16156143665760405162461bcd60e51b815260040161073390616e24565b60115460ff161561443157604080516060810182526001600160a01b03948516815260208101938452908101918252601080546001810182555f9190915290517f1b6847dc741a1b0cd08d278845f9d819d87b734759afb55fe2de5cb82a9ae672600390920291820180546001600160a01b031916919095161790935590517f1b6847dc741a1b0cd08d278845f9d819d87b734759afb55fe2de5cb82a9ae673830155517f1b6847dc741a1b0cd08d278845f9d819d87b734759afb55fe2de5cb82a9ae67490910155565b6144396149b9565b61082e8383836155bc565b5f826001600160a01b031663ee82cfd06040518163ffffffff1660e01b8152600401602060405180830381865afa158015614481573d5f5f3e3d5ffd5b505050506040513d601f19601f820116820180604052508101906144a591906171c2565b8254909150806145035760405162461bcd60e51b815260206004820152602360248201527f4e6f204e6174696f6e616c204469726563746f727320746f206469737472696260448201526275746560e81b6064820152608401610733565b5f61450e8284616f6f565b90505f81116145535760405162461bcd60e51b8152602060048201526011602482015270125b9cdd59999a58da595b9d081c1bdbdb607a1b6044820152606401610733565b60405163021c2c5d60e21b8152600481018490526001600160a01b03861690630870b174906024015f604051808303815f87803b158015614592575f5ffd5b505af11580156145a4573d5f5f3e3d5ffd5b50606092508291505f9050805b8581101561464b578781815481106145cb576145cb616dcb565b905f5260205f20015f9054906101000a90046001600160a01b03168483815181106145f8576145f8616dcb565b60200260200101906001600160a01b031690816001600160a01b0316815250508483838151811061462b5761462b616dcb565b60209081029190910101528161464081616e0c565b9250506001016145b1565b50604051630bd0dc9760e41b81526001600160a01b0389169063bd0dc97090614682905f9087908790600190600890600401617570565b5f604051808303815f87803b158015614699575f5ffd5b505af11580156146ab573d5f5f3e3d5ffd5b505050505050505050505050565b6001600160a01b038082165f8181526020889052604090206002015460ff16918416900361470b575f5b60048160ff161015614705576146fd8684835f5f5f615b51565b6001016146e3565b5061495a565b600581600781111561471f5761471f616888565b148061473c5750600681600781111561473a5761473a616888565b145b806147585750600781600781111561475657614756616888565b145b1561488a576001600160a01b038083165f8181526020878152604080832080546001600160a01b031916909417909355899052205416806147ab5760405162461bcd60e51b8152600401610733906175d8565b5f5b60048160ff161015614883575f808060078660078111156147d0576147d0616888565b036147e257508591508190508061486a565b60068660078111156147f6576147f6616888565b03614830575050506001600160a01b038083165f9081526020898152604080832060ff86168452909152902060020154859182911661486a565b5050506001600160a01b038281165f9081526020898152604080832060ff8616845290915290206002810154600190910154869290811691165b6148788a8886868686615b51565b5050506001016147ad565b505061495a565b6001600160a01b038083165f9081526020889052604090205416806148c15760405162461bcd60e51b8152600401610733906175d8565b5f5b60048160ff1610156148e3576148db87838684615bd8565b6001016148c3565b5060048260078111156148f8576148f8616888565b0361492a576001600160a01b0383165f81815260208790526040902080546001600160a01b0319169091179055614958565b6001600160a01b038381165f90815260208790526040902080546001600160a01b0319169183169190911790555b505b6001600160a01b0382165f908152602087905260408120600101905b81548110156113e5576149b18888888886868154811061499857614998616dcb565b5f918252602090912001546001600160a01b03166146b9565b600101614976565b60115460ff1615614a065760405162461bcd60e51b81526020600482015260176024820152764261746368207570646174652069732072756e6e696e6760481b6044820152606401610733565b5f5b600f54811015614ad057614ac8600f8281548110614a2857614a28616dcb565b5f918252602090912060059091020154600f80546001600160a01b039092169184908110614a5857614a58616dcb565b905f5260205f2090600502016001015f9054906101000a90046001600160a01b0316600f8481548110614a8d57614a8d616dcb565b905f5260205f20906005020160020154600f8581548110614ab057614ab0616dcb565b905f5260205f209060050201600301545f5f1b614b5a565b600101614a08565b50614adc600f5f616514565b5f5b601054811015614b4e57614b4660108281548110614afe57614afe616dcb565b5f918252602090912060039091020154601080546001600160a01b039092169184908110614b2e57614b2e616dcb565b905f5260205f209060030201600101545f5f1b6155bc565b600101614ade565b5061143060105f616532565b601c54604051637cce993960e01b815260048101849052602481018590525f916001600160a01b031690637cce993990604401602060405180830381865afa158015614ba8573d5f5f3e3d5ffd5b505050506040513d601f19601f82011682018060405250810190614bcc9190616f16565b604080516080810182526001600160a01b03888116825282515f80825260208083018652808501928352848601829052606085018290528c8416825260048152949020835181546001600160a01b031916931692909217825551805194955091939092614c40926001850192910190616550565b50604082015160028201805460ff19166001836007811115614c6457614c64616888565b0217905550606082015160028201805461ff001916610100836003811115614c8e57614c8e616888565b02179055509050506040518060a00160405280426301e13380614cb19190616da5565b81525f60208083018290526040808401839052606080850184905260809485018490526001600160a01b038c1684526005835281842086518155868401516001820155868301516002820155908601516003820155949093015160049094019390935590519091614d379189910160609190911b6001600160601b031916815260140190565b60408051808303601f19018152908290528051602090910120601b5463180db04b60e11b8352600483018290529092505f916001600160a01b039091169063301b609690602401602060405180830381865afa158015614d99573d5f5f3e3d5ffd5b505050506040513d601f19601f82011682018060405250810190614dbd9190616f16565b6001600160a01b031614614e2d57601b5460405163590f618760e11b81526001600160a01b039091169063b21ec30e90614dff908a9089908990600401616fb5565b5f604051808303815f87803b158015614e16575f5ffd5b505af1158015614e28573d5f5f3e3d5ffd5b505050505b6001600160a01b03821615614e6a576001600160a01b038781165f90815260066020526040902080546001600160a01b0319169184169190911790555b6003805460018181019092557fc2575a0e9e593c00f959f8c92f12db2869c3395a3b0502d05e2516446f71f85b0180546001600160a01b03808b166001600160a01b0319928316811790935589165f81815260046020908152604080832087018054808901825590845282842001805490951690951790935590815260079091529081208054909190614efe908490616da5565b90915550506001600160a01b0386165f908152600960205260408120805460019290614f2b908490616da5565b90915550600190506001600160a01b0387165f90815260046020526040902060020154610100900460ff166003811115614f6757614f67616888565b14614f7e57614f796004600c88615c89565b614f80565b855b6001600160a01b038089165f818152600c602052604080822080549585166001600160a01b0319968716179055600e805460018181018355919093527fbb7b4a454dc3493923482f07822329ed19e8244eff582cc204f8554c3620c3fd9092018054909516909217909355601b54905163e115dc7f60e01b815291169163e115dc7f91615019918a918891600a91600390600401616f82565b5f604051808303815f87803b158015615030575f5ffd5b505af1158015615042573d5f5f3e3d5ffd5b505050506001600160a01b0382161561514857601c5460405163da77abed60e01b81525f916001600160a01b03169063da77abed906150889086906001906004016170d7565b6020604051808303815f875af11580156150a4573d5f5f3e3d5ffd5b505050506040513d601f19601f820116820180604052508101906150c891906171c2565b601b549091506001600160a01b031663e115dc7f848660646150eb8660146174c1565b6150f59190616f6f565b600160046040518663ffffffff1660e01b8152600401615119959493929190616f82565b5f604051808303815f87803b158015615130575f5ffd5b505af1158015615142573d5f5f3e3d5ffd5b50505050505b601b546016546001600160a01b039182169163e115dc7f91168561516e600a6014616da5565b61517f620f42406302625a00616f6f565b6151899190616db8565b600160026040518663ffffffff1660e01b81526004016151ad959493929190616f82565b5f604051808303815f87803b1580156151c4575f5ffd5b505af11580156151d6573d5f5f3e3d5ffd5b5050505050505050505050565b6001830154811061522c5760405162461bcd60e51b8152602060048201526013602482015272125b9d985b1a59081859d95b9d081b195d995b606a1b6044820152606401610733565b6001600160a01b039091165f908152602092909252604090912055565b6001600160a01b0381165f908152602084905260408120600301549061526f8684615d20565b9050620186a08210158015615285575060078110155b156152d3576001600160a01b0383165f818152602088815260408220600201805460ff19166007179055865460018101885587835291200180546001600160a01b03191690911790556118df565b61c35082101580156152e6575060068110155b1561531d576001600160a01b0383165f90815260208790526040902060020180546006919060ff19166001835b02179055506118df565b6161a88210158015615330575060058110155b15615361576001600160a01b0383165f90815260208790526040902060020180546005919060ff1916600183615313565b6127108210158015615374575060048110155b156153a5576001600160a01b0383165f90815260208790526040902060020180546004919060ff1916600183615313565b61138882101580156153b8575060038110155b156153e9576001600160a01b0383165f90815260208790526040902060020180546003919060ff1916600183615313565b6109c482101580156153fc575060028110155b1561542b576001600160a01b0383165f9081526020879052604090206002908101805460ff1916600183615313565b600181106118df5750506001600160a01b03165f908152602093909352505060409020600201805460ff19166001179055565b600e545f906001600160401b0381111561547a5761547a616662565b6040519080825280602002602001820160405280156154a3578160200160208202803683370190505b5090505f805b600e548110156155645760045f600e83815481106154c9576154c9616dcb565b5f9182526020808320909101546001600160a01b03168352820192909252604001812060010154900361555c57600e818154811061550957615509616dcb565b905f5260205f20015f9054906101000a90046001600160a01b031683838151811061553657615536616dcb565b6001600160a01b03909216602092830291909101909101528161555881616e0c565b9250505b6001016154a9565b5080825261082e600e6020840183616550565b611ad7828260405160240161558d92919061760b565b60408051601f198184030181529190526020810180516001600160e01b03166309710a9d60e41b179052615dc3565b6001600160a01b038381165f9081526012602052604090205416156155f9576001600160a01b039283165f90815260126020526040902054909216915b6001600160a01b0383165f9081526005602052604081206002018054849290615623908490616da5565b90915550506001600160a01b0383165f908152600860205260408120805484929061564f908490616da5565b90915550506001600160a01b0383165f9081526020819052604081205483908290156156be576156815f876014615de3565b92506103e8615692610145876174c1565b61569c9190616f6f565b91506103e86156ad866101136174c1565b6156b79190616f6f565b90506156dc565b6014925060646156cf8660206174c1565b6156d99190616f6f565b90505b60026001600160a01b0387165f90815260046020526040902060020154610100900460ff16600381111561571257615712616888565b1461579157601b546001600160a01b031663e115dc7f87866064615736888b6174c1565b6157409190616f6f565b60015f6040518663ffffffff1660e01b8152600401615763959493929190616f82565b5f604051808303815f87803b15801561577a575f5ffd5b505af115801561578c573d5f5f3e3d5ffd5b505050505b5f60016001600160a01b0388165f90815260046020526040902060020154610100900460ff1660038111156157c8576157c8616888565b1490506157de6004600560076008600a8c613a0d565b5080158015615820575060016001600160a01b0388165f90815260046020526040902060020154610100900460ff16600381111561581e5761581e616888565b145b15615832576158326004600c896140a1565b866001600160a01b03167fdf1ac62d04b5b70d0905c8f87d228f5da1978ab102137d771163b0ade4eb2fee8760405161586d91815260200190565b60405180910390a2601b5461589390600490600c906001600160a01b03168a878a615e2e565b61589d8784615fe1565b5f60646158ab6002866174c1565b6158b59190616f6f565b601b5460405163043cff6b60e31b815260048101839052602481018990529192506001600160a01b0316906321e7fb58906044015f604051808303815f87803b158015615900575f5ffd5b505af1158015615912573d5f5f3e3d5ffd5b505050506001600160a01b038881165f90815260066020526040902054168015615a3857601c54604051630c849c1d60e41b81525f916001600160a01b03169063c849c1d0906159689085908a906004016170d7565b6020604051808303815f875af1158015615984573d5f5f3e3d5ffd5b505050506040513d601f19601f820116820180604052508101906159a891906171c2565b90505f612710826159ba60018a6174c1565b6159c491906174c1565b6159ce9190616f6f565b601b5460405163e115dc7f60e01b81529192506001600160a01b03169063e115dc7f90615a089086908d9086906001905f90600401616f82565b5f604051808303815f87803b158015615a1f575f5ffd5b505af1158015615a31573d5f5f3e3d5ffd5b5050505050505b601b54615a5990600490600d90600b906001600160a01b03168d8d8d61605b565b601b546015546001600160a01b039182169163e115dc7f9116896064615a8060048b6174c1565b615a8a9190616f6f565b6001806040518663ffffffff1660e01b8152600401615aad959493929190616f82565b5f604051808303815f87803b158015615ac4575f5ffd5b505af1158015615ad6573d5f5f3e3d5ffd5b5050601b5460165460405163e115dc7f60e01b81526001600160a01b03928316945063e115dc7f9350615b1992909116908b908990600190600290600401616f82565b5f604051808303815f87803b158015615b30575f5ffd5b505af1158015615b42573d5f5f3e3d5ffd5b50505050505050505050505050565b604080516060810182526001600160a01b03948516815292841660208085019182529285168483019081529685165f90815297835281882060ff909616885294909152909420935184549082166001600160a01b03199182161785559151600185018054918316918416919091179055915160029093018054939092169216919091179055565b6001600160a01b038316156120a0576001600160a01b039283165f9081526020858152604080832060ff94909416808452938252808320815160608101835281548816815260018083015489168286019081526002938401548a16838601908152988a168752998552838620968652959093529220905181546001600160a01b0319908116918716919091178255955192810180548716938616939093179092559151910180549093169116179055565b6001600160a01b038082165f908152602085905260408120549091165b6001600160a01b03811615615d165760016001600160a01b0382165f90815260208790526040902060020154610100900460ff166003811115615ceb57615ceb616888565b03615cf7579050611959565b6001600160a01b039081165f9081526020859052604090205416615ca6565b505f949350505050565b6001600160a01b0381165f9081526020839052604081208190600101815b8154811015615db9576001865f848481548110615d5d57615d5d616dcb565b5f9182526020808320909101546001600160a01b0316835282019290925260400190206002015460ff610100909104166003811115615d9e57615d9e616888565b03615db15782615dad81616e0c565b9350505b600101615d3e565b5090949350505050565b80516a636f6e736f6c652e6c6f67602083015f808483855afa5050505050565b6001600160a01b0382165f9081526020849052604081205480615e065782615e25565b846001018181548110615e1b57615e1b616dcb565b905f5260205f2001545b95945050505050565b6001600160a01b038084165f908152602087905260408120549091169060019060609081905b60058460ff1611158015615e7057506001600160a01b03851615155b15615f71575f8460ff16600114615e88576005615e8b565b600a5b90505f6064615e9a838b6174c1565b615ea49190616f6f565b905060026001600160a01b0388165f90815260208f90526040902060020154610100900460ff166003811115615edc57615edc616888565b14615f405786858481518110615ef457615ef4616dcb565b60200260200101906001600160a01b031690816001600160a01b03168152505080848481518110615f2757615f27616dcb565b602090810291909101015282615f3c81616e0c565b9350505b6001600160a01b039687165f90815260208d905260409020549096169585615f678161747d565b9650505050615e54565b604051630bd0dc9760e41b81526001600160a01b038a169063bd0dc97090615fa790899087908790600190600690600401617570565b5f604051808303815f87803b158015615fbe575f5ffd5b505af1158015615fd0573d5f5f3e3d5ffd5b505050505050505050505050505050565b6001600160a01b0382165f9081526019602052604090206001015460ff1661602b576001600160a01b0382165f9081526019602052604090206001908101805460ff191690911790555b6001600160a01b0382165f9081526019602052604081208054839290616052908490616da5565b90915550505050565b6001600160a01b038084165f908152602089905260408120549091169061608289866161bd565b6001600160a01b0386165f90815260208b9052604081206002015491925060ff91821691819081908190861615616153575f935060058560078111156160ca576160ca616888565b0361610a5750506001600160a01b038581165f90815260208d8152604080832060ff8916845290915290206001810154600290910154908216911661619e565b600685600781111561611e5761611e616888565b0361614e57506001600160a01b038087165f90815260208e8152604080832060ff8a168452909152902060020154165b61619e565b505050506001600160a01b038381165f90815260208a81526040808320548d835281842060ff8816855290925290912080546001820154600290920154928416939081169291811691165b6161ad8b898b8787878761624d565b5050505050505050505050505050565b6001600160a01b0381165f9081526020839052604081206002015460ff1660078160078111156161ef576161ef616888565b036161fe5760039150506110c3565b600681600781111561621257616212616888565b036162215760029150506110c3565b600581600781111561623557616235616888565b036162445760019150506110c3565b505f9392505050565b6060805f6001600160a01b038716156162cd578683828151811061627357616273616dcb565b6001600160a01b0390921660209283029190910190910152606461629860028a6174c1565b6162a29190616f6f565b8282815181106162b4576162b4616dcb565b6020908102919091010152806162c981616e0c565b9150505b6001600160a01b0386161561634957858382815181106162ef576162ef616dcb565b6001600160a01b0390921660209283029190910190910152606461631460038a6174c1565b61631e9190616f6f565b82828151811061633057616330616dcb565b60209081029190910101528061634581616e0c565b9150505b6001600160a01b038516156163c5578483828151811061636b5761636b616dcb565b6001600160a01b0390921660209283029190910190910152606461639060038a6174c1565b61639a9190616f6f565b8282815181106163ac576163ac616dcb565b6020908102919091010152806163c181616e0c565b9150505b6001600160a01b0384161561644157838382815181106163e7576163e7616dcb565b6001600160a01b0390921660209283029190910190910152606461640c60038a6174c1565b6164169190616f6f565b82828151811061642857616428616dcb565b60209081029190910101528061643d81616e0c565b9150505b82511561345557604051630bd0dc9760e41b81526001600160a01b038b169063bd0dc9709061647e908c9087908790600190600790600401617570565b5f604051808303815f87803b158015616495575f5ffd5b505af11580156161ad573d5f5f3e3d5ffd5b604080516080810182525f80825260606020830152909182019081526020015f905290565b6040518060a001604052805f81526020015f81526020015f81526020015f81526020015f81525090565b5080545f8255905f5260205f209081019061651191906165b3565b50565b5080545f8255600502905f5260205f209081019061651191906165c7565b5080545f8255600302905f5260205f20908101906165119190616607565b828054828255905f5260205f209081019282156165a3579160200282015b828111156165a357825182546001600160a01b0319166001600160a01b0390911617825560209092019160019091019061656e565b506165af9291506165b3565b5090565b5b808211156165af575f81556001016165b4565b5b808211156165af5780546001600160a01b0319908116825560018201805490911690555f600282018190556003820181905560048201556005016165c8565b5b808211156165af5780546001600160a01b03191681555f600182018190556002820155600301616608565b6001600160a01b0381168114616511575f5ffd5b5f60208284031215616657575f5ffd5b813561195981616633565b634e487b7160e01b5f52604160045260245ffd5b604051608081016001600160401b038111828210171561669857616698616662565b60405290565b60405161012081016001600160401b038111828210171561669857616698616662565b60405161026081016001600160401b038111828210171561669857616698616662565b604051601f8201601f191681016001600160401b038111828210171561670c5761670c616662565b604052919050565b5f6001600160401b0382111561672c5761672c616662565b5060051b60200190565b5f82601f830112616745575f5ffd5b813561675861675382616714565b6166e4565b8082825260208201915060208360051b860101925085831115616779575f5ffd5b602085015b8381101561679657803583526020928301920161677e565b5095945050505050565b5f5f5f606084860312156167b2575f5ffd5b8335925060208401356167c481616633565b915060408401356001600160401b038111156167de575f5ffd5b6167ea86828701616736565b9150509250925092565b60ff81168114616511575f5ffd5b5f5f5f5f60808587031215616815575f5ffd5b843561682081616633565b93506020850135616830816167f4565b93969395505050506040820135916060013590565b5f8151808452602084019350602083015f5b8281101561687e5781516001600160a01b0316865260209586019590910190600101616857565b5093949350505050565b634e487b7160e01b5f52602160045260245ffd5b600881106168ac576168ac616888565b9052565b600481106168ac576168ac616888565b80516001600160a01b03168252602080820151608082850181905281519085018190525f929190910190829060a08601905b8083101561691d5783516001600160a01b0316825260209384019360019390930192909101906168f2565b5060408501519250616932604087018461689c565b60608501519250615e2560608701846168b0565b80518252602081015160208301526040810151604083015260608101516060830152608081015160808301525050565b606081525f6169886060830186616845565b828103602084015280855180835260208301915060208160051b840101602088015f5b838110156169dd57601f198684030185526169c78383516168c0565b60209586019590935091909101906001016169ab565b505085810360408701528651808252602091820194509250860190505f5b82811015616a2457616a0e848351616946565b60a09390930192602091909101906001016169fb565b5091979650505050505050565b5f5f60408385031215616a42575f5ffd5b50508035926020909101359150565b5f5f5f60608486031215616a63575f5ffd5b8335616a6e81616633565b92506020840135616a7e81616633565b929592945050506040919091013590565b6001600160a01b0391909116815260200190565b5f5f5f60608486031215616ab5575f5ffd5b8335616ac081616633565b95602085013595506040909401359392505050565b600981106168ac576168ac616888565b602080825282518282018190525f918401906040840190835b81811015616b5257835180516001600160a01b031684526020808201519085015260408082015190616b3290860182616ad5565b506060908101519084015260209390930192608090920191600101616afe565b509095945050505050565b5f5f5f5f5f60a08688031215616b71575f5ffd5b8535616b7c81616633565b94506020860135616b8c81616633565b94979496505050506040830135926060810135926080909101359150565b5f5f60408385031215616bbb575f5ffd5b8235915060208301356001600160401b03811115616bd7575f5ffd5b616be385828601616736565b9150509250929050565b5f5f60408385031215616bfe575f5ffd5b8235616c0981616633565b946020939093013593505050565b5f60208284031215616c27575f5ffd5b5035919050565b5f5f5f5f60808587031215616c41575f5ffd5b8435616c4c81616633565b966020860135965060408601359560600135945092505050565b602081525f6119596020830184616845565b8015158114616511575f5ffd5b5f60208284031215616c95575f5ffd5b813561195981616c78565b60c081525f616cb260c08301856168c0565b90506119596020830184616946565b6020808252818101527f4f776e61626c653a2063616c6c6572206973206e6f7420746865206f776e6572604082015260600190565b6020808252601d908201527f416d6f756e74206d7573742062652067726561746572207468616e2030000000604082015260600190565b60208082526015908201527410dbdb9d1c9858dd1cc81b9bdd08185b1b1bddd959605a1b604082015260600190565b6020808252601b908201527a14db585c9d0818dbdb9d1c9858dd1cc81b9bdd08185b1b1bddd959602a1b604082015260600190565b634e487b7160e01b5f52601160045260245ffd5b808201808211156110c3576110c3616d91565b818103818111156110c3576110c3616d91565b634e487b7160e01b5f52603260045260245ffd5b602080825260139082015272092dcecc2d8d2c840e6e8c2e4e840d2dcc8caf606b1b604082015260600190565b5f60018201616e1d57616e1d616d91565b5060010190565b6020808252600e908201526d53797374656d207570677261646560901b604082015260600190565b6020808252601390820152725573657220616c72656164792065786973747360681b604082015260600190565b6020808252601a908201527905573657220616c72656164792065786973747320696e205649560341b604082015260600190565b60208082526015908201527414185c995b9d08191bd95cc81b9bdd08195e1a5cdd605a1b604082015260600190565b60208082526010908201526f506172656e74206e6f7420616c6c6f7760801b604082015260600190565b8051616f1181616633565b919050565b5f60208284031215616f26575f5ffd5b815161195981616633565b60208082526010908201526f0e0c2e4cadce840dcdee840dac2e8c6d60831b604082015260600190565b634e487b7160e01b5f52601260045260245ffd5b5f82616f7d57616f7d616f5b565b500490565b6001600160a01b03861681526020810185905260408101849052821515606082015260a08101613a036080830184616ad5565b6001600160a01b039390931683526020830191909152604082015260600190565b5f60208284031215616fe6575f5ffd5b81516001600160401b03811115616ffb575f5ffd5b8201601f8101841361700b575f5ffd5b805161701961675382616714565b8082825260208201915060208360071b85010192508683111561703a575f5ffd5b6020840193505b82841015613a035760808488031215617058575f5ffd5b617060616676565b845161706b81616633565b815260208581015190820152604085015160098110617088575f5ffd5b6040820152606085810151908201528252608090930192602090910190617041565b602080825260139082015272155cd95c88191bd95cc81b9bdd08195e1a5cdd606a1b604082015260600190565b6001600160a01b03929092168252602082015260400190565b5f60208284031215617100575f5ffd5b815161195981616c78565b634e487b7160e01b5f52603160045260245ffd5b5f610120828403128015617131575f5ffd5b5061713a61669e565b825181526020808401519082015260408084015190820152606080840151908201526080808401519082015260a0808401519082015260c0808401519082015260e08084015190820152610100928301519281019290925250919050565b60208082526010908201526f77726f6e67206f7264657220436f646560801b604082015260600190565b5f602082840312156171d2575f5ffd5b5051919050565b6020808252600f908201526e13dc99195c881b9bdd08199bdd5b99608a1b604082015260600190565b5f82601f830112617211575f5ffd5b815161721f61675382616714565b8082825260208201915060208360051b860101925085831115617240575f5ffd5b602085015b83811015616796578051835260209283019201617245565b8051616f11816167f4565b5f60208284031215617278575f5ffd5b81516001600160401b0381111561728d575f5ffd5b8201610260818503121561729f575f5ffd5b6172a76166c1565b815181526172b760208301616f06565b60208201526172c860408301616f06565b60408201526060828101519082015260808201516001600160401b038111156172ef575f5ffd5b6172fb86828501617202565b60808301525060a08201516001600160401b03811115617319575f5ffd5b61732586828501617202565b60a08301525060c08201516001600160401b03811115617343575f5ffd5b61734f86828501617202565b60c08301525060e08201516001600160401b0381111561736d575f5ffd5b61737986828501617202565b60e0830152506101008201516001600160401b03811115617398575f5ffd5b6173a486828501617202565b610100830152506101208201516001600160401b038111156173c4575f5ffd5b6173d086828501617202565b610120830152506101408201516001600160401b038111156173f0575f5ffd5b6173fc86828501617202565b61014083015250610160828101519082015261741b610180830161725d565b61018082015261742e6101a0830161725d565b6101a08201526101c082810151908201526101e080830151908201526102008083015190820152617462610220830161725d565b61022082015261024091820151918101919091529392505050565b5f60ff821660ff810361749257617492616d91565b60010192915050565b6020808252600c908201526b15dc9bdb99c8185b5bdd5b9d60a21b604082015260600190565b80820281158282048414176110c3576110c3616d91565b6001600160a01b03831681526040602080830182905283519183018290525f91908401906060840190835b81811015617521578351835260209384019390920191600101617503565b50909695505050505050565b6001600160601b0319606093841b811682529190921b16601482015260280190565b5f60ff83168061756157617561616f5b565b8060ff84160691505092915050565b85815260a060208201525f61758860a0830187616845565b8281036040840152855180825260208088019201905f5b818110156175bd57835183526020938401939092019160010161759f565b505085151560608501529150613a0390506080830184616ad5565b602080825260199082015278506172656e74206c6f737420647572696e672072657365742160381b604082015260600190565b604081525f83518060408401528060208601606085015e5f606082850101526060601f19601f830116840101915050826020830152939250505056fe8d1108e10bcb7c27dddfc02ed9d693a074039d026cf4ea4240b40f7d581ac8068d1108e10bcb7c27dddfc02ed9d693a074039d026cf4ea4240b40f7d581ac8058d1108e10bcb7c27dddfc02ed9d693a074039d026cf4ea4240b40f7d581ac8048d1108e10bcb7c27dddfc02ed9d693a074039d026cf4ea4240b40f7d581ac8038d1108e10bcb7c27dddfc02ed9d693a074039d026cf4ea4240b40f7d581ac802a26469706673582212209b2fb6c3e3a4f61616dd459fc73b90039704cd443ac4d9fabc0a4cdc5fffff8364736f6c634300081d0033",
			"opcodes": "PUSH1 0x80 PUSH1 0x40 MSTORE PUSH1 0x11 DUP1 SLOAD PUSH2 0xFFFF NOT AND SWAP1 SSTORE CALLVALUE DUP1 ISZERO PUSH2 0x1A JUMPI PUSH0 PUSH0 REVERT JUMPDEST POP PUSH1 0x40 MLOAD PUSH2 0x79CB CODESIZE SUB DUP1 PUSH2 0x79CB DUP4 CODECOPY DUP2 ADD PUSH1 0x40 DUP2 SWAP1 MSTORE PUSH2 0x39 SWAP2 PUSH2 0x1D6 JUMP JUMPDEST PUSH4 0x7270E00 PUSH2 0x4C PUSH1 0x64 PUSH3 0xF4240 PUSH2 0x278 JUMP JUMPDEST LT PUSH2 0x8A JUMPI PUSH1 0x40 MLOAD PUSH3 0x461BCD PUSH1 0xE5 SHL DUP2 MSTORE PUSH1 0x20 PUSH1 0x4 DUP3 ADD MSTORE PUSH1 0xA PUSH1 0x24 DUP3 ADD MSTORE PUSH10 0x77726F6E6720636F6465 PUSH1 0xB0 SHL PUSH1 0x44 DUP3 ADD MSTORE PUSH1 0x64 ADD PUSH1 0x40 MLOAD DUP1 SWAP2 SUB SWAP1 REVERT JUMPDEST PUSH1 0x1B DUP1 SLOAD PUSH1 0x1 PUSH1 0x1 PUSH1 0xA0 SHL SUB NOT SWAP1 DUP2 AND PUSH1 0x1 PUSH1 0x1 PUSH1 0xA0 SHL SUB DUP11 DUP2 AND SWAP2 SWAP1 SWAP2 OR SWAP1 SWAP3 SSTORE PUSH1 0x1C DUP1 SLOAD DUP3 AND DUP10 DUP5 AND OR SWAP1 SSTORE PUSH1 0x1D DUP1 SLOAD DUP3 AND DUP9 DUP5 AND OR SWAP1 SSTORE PUSH1 0x17 DUP1 SLOAD DUP3 AND DUP5 DUP5 AND OR SWAP1 SSTORE PUSH1 0x14 DUP1 SLOAD DUP3 AND DUP8 DUP5 AND OR SWAP1 SSTORE PUSH1 0x15 DUP1 SLOAD DUP3 AND DUP7 DUP5 AND OR SWAP1 SSTORE PUSH1 0x16 DUP1 SLOAD DUP3 AND DUP6 DUP5 AND OR SWAP1 SSTORE PUSH1 0x1E DUP1 SLOAD DUP3 AND DUP13 DUP5 AND OR DUP2 SSTORE PUSH1 0x1F DUP1 SLOAD DUP4 AND SWAP4 DUP13 AND SWAP4 SWAP1 SWAP4 OR SWAP1 SWAP3 SSTORE PUSH1 0x18 DUP1 SLOAD CALLER SWAP3 AND SWAP2 SWAP1 SWAP2 OR SWAP1 SSTORE PUSH1 0x1 DUP1 SLOAD DUP1 DUP3 ADD DUP3 SSTORE PUSH0 DUP3 DUP2 MSTORE PUSH32 0xB10E2D527612073B26EECDFD717E6A320CF44B4AFAC2B0732D9FCBE2B7FA0CF6 SWAP2 DUP3 ADD SSTORE DUP2 SLOAD DUP1 DUP4 ADD DUP4 SSTORE PUSH1 0x28 SWAP1 DUP3 ADD SSTORE DUP2 SLOAD DUP1 DUP4 ADD DUP4 SSTORE PUSH1 0x23 SWAP1 DUP3 ADD SSTORE DUP2 SLOAD DUP1 DUP4 ADD DUP4 SSTORE DUP2 ADD SWAP3 SWAP1 SWAP3 SSTORE DUP1 SLOAD DUP1 DUP3 ADD SWAP1 SWAP2 SSTORE PUSH1 0x19 SWAP2 ADD SSTORE POP POP PUSH1 0x14 SLOAD PUSH1 0x1 PUSH1 0x1 PUSH1 0xA0 SHL SUB AND PUSH0 SWAP1 DUP2 MSTORE PUSH1 0x4 PUSH1 0x20 MSTORE PUSH1 0x40 SWAP1 KECCAK256 PUSH1 0x2 ADD DUP1 SLOAD PUSH2 0xFF00 NOT AND PUSH2 0x100 OR SWAP1 SSTORE POP PUSH2 0x2A1 SWAP6 POP POP POP POP POP POP JUMP JUMPDEST DUP1 MLOAD PUSH1 0x1 PUSH1 0x1 PUSH1 0xA0 SHL SUB DUP2 AND DUP2 EQ PUSH2 0x1D1 JUMPI PUSH0 PUSH0 REVERT JUMPDEST SWAP2 SWAP1 POP JUMP JUMPDEST PUSH0 PUSH0 PUSH0 PUSH0 PUSH0 PUSH0 PUSH0 PUSH0 PUSH0 PUSH2 0x120 DUP11 DUP13 SUB SLT ISZERO PUSH2 0x1EF JUMPI PUSH0 PUSH0 REVERT JUMPDEST PUSH2 0x1F8 DUP11 PUSH2 0x1BB JUMP JUMPDEST SWAP9 POP PUSH2 0x206 PUSH1 0x20 DUP12 ADD PUSH2 0x1BB JUMP JUMPDEST SWAP8 POP PUSH2 0x214 PUSH1 0x40 DUP12 ADD PUSH2 0x1BB JUMP JUMPDEST SWAP7 POP PUSH2 0x222 PUSH1 0x60 DUP12 ADD PUSH2 0x1BB JUMP JUMPDEST SWAP6 POP PUSH2 0x230 PUSH1 0x80 DUP12 ADD PUSH2 0x1BB JUMP JUMPDEST SWAP5 POP PUSH2 0x23E PUSH1 0xA0 DUP12 ADD PUSH2 0x1BB JUMP JUMPDEST SWAP4 POP PUSH2 0x24C PUSH1 0xC0 DUP12 ADD PUSH2 0x1BB JUMP JUMPDEST SWAP3 POP PUSH2 0x25A PUSH1 0xE0 DUP12 ADD PUSH2 0x1BB JUMP JUMPDEST SWAP2 POP PUSH2 0x269 PUSH2 0x100 DUP12 ADD PUSH2 0x1BB JUMP JUMPDEST SWAP1 POP SWAP3 SWAP6 SWAP9 POP SWAP3 SWAP6 SWAP9 POP SWAP3 SWAP6 SWAP9 JUMP JUMPDEST DUP1 DUP3 MUL DUP2 ISZERO DUP3 DUP3 DIV DUP5 EQ OR PUSH2 0x29B JUMPI PUSH4 0x4E487B71 PUSH1 0xE0 SHL PUSH0 MSTORE PUSH1 0x11 PUSH1 0x4 MSTORE PUSH1 0x24 PUSH0 REVERT JUMPDEST SWAP3 SWAP2 POP POP JUMP JUMPDEST PUSH2 0x771D DUP1 PUSH2 0x2AE PUSH0 CODECOPY PUSH0 RETURN INVALID PUSH1 0x80 PUSH1 0x40 MSTORE PUSH1 0x4 CALLDATASIZE LT PUSH2 0x19E JUMPI PUSH0 CALLDATALOAD PUSH1 0xE0 SHR DUP1 PUSH4 0x8A851B8 EQ PUSH2 0x1A2 JUMPI DUP1 PUSH4 0x10D86B1F EQ PUSH2 0x1C3 JUMPI DUP1 PUSH4 0x185807E4 EQ PUSH2 0x1E2 JUMPI DUP1 PUSH4 0x1DA0073A EQ PUSH2 0x201 JUMPI DUP1 PUSH4 0x1F01F30D EQ PUSH2 0x238 JUMPI DUP1 PUSH4 0x20D996D2 EQ PUSH2 0x265 JUMPI DUP1 PUSH4 0x259DBD96 EQ PUSH2 0x2AE JUMPI DUP1 PUSH4 0x2CF899E2 EQ PUSH2 0x2CD JUMPI DUP1 PUSH4 0x35B79C3D EQ PUSH2 0x2E1 JUMPI DUP1 PUSH4 0x38CB9134 EQ PUSH2 0x2F5 JUMPI DUP1 PUSH4 0x38CC4831 EQ PUSH2 0x339 JUMPI DUP1 PUSH4 0x40D1AC13 EQ PUSH2 0x377 JUMPI DUP1 PUSH4 0x424AD610 EQ PUSH2 0x3A3 JUMPI DUP1 PUSH4 0x432E9D88 EQ PUSH2 0x3C2 JUMPI DUP1 PUSH4 0x44B89702 EQ PUSH2 0x3E1 JUMPI DUP1 PUSH4 0x4A0328DE EQ PUSH2 0x400 JUMPI DUP1 PUSH4 0x504ED733 EQ PUSH2 0x41F JUMPI DUP1 PUSH4 0x58979BFE EQ PUSH2 0x457 JUMPI DUP1 PUSH4 0x5F35CA9C EQ PUSH2 0x476 JUMPI DUP1 PUSH4 0x61474327 EQ PUSH2 0x495 JUMPI DUP1 PUSH4 0x61A475C8 EQ PUSH2 0x4B4 JUMPI DUP1 PUSH4 0x667883F1 EQ PUSH2 0x4DF JUMPI DUP1 PUSH4 0x6C0ADBBD EQ PUSH2 0x4FE JUMPI DUP1 PUSH4 0x8345BE55 EQ PUSH2 0x51D JUMPI DUP1 PUSH4 0x839C7EAD EQ PUSH2 0x53C JUMPI DUP1 PUSH4 0x8B59D23E EQ PUSH2 0x54F JUMPI DUP1 PUSH4 0x8CA8107B EQ PUSH2 0x56E JUMPI DUP1 PUSH4 0x964B74DD EQ PUSH2 0x58D JUMPI DUP1 PUSH4 0xB35CADE9 EQ PUSH2 0x5B9 JUMPI DUP1 PUSH4 0xB9BCAF02 EQ PUSH2 0x5D8 JUMPI DUP1 PUSH4 0xBCD565BA EQ PUSH2 0x5EB JUMPI DUP1 PUSH4 0xC2AD61E7 EQ PUSH2 0x60A JUMPI DUP1 PUSH4 0xD7B5A2D4 EQ PUSH2 0x695 JUMPI DUP1 PUSH4 0xDB499BF5 EQ PUSH2 0x6B4 JUMPI DUP1 PUSH4 0xE1AB8C6B EQ PUSH2 0x6C8 JUMPI DUP1 PUSH4 0xE45C1B56 EQ PUSH2 0x6EA JUMPI JUMPDEST PUSH0 PUSH0 REVERT JUMPDEST CALLVALUE DUP1 ISZERO PUSH2 0x1AD JUMPI PUSH0 PUSH0 REVERT JUMPDEST POP PUSH2 0x1C1 PUSH2 0x1BC CALLDATASIZE PUSH1 0x4 PUSH2 0x6647 JUMP JUMPDEST PUSH2 0x709 JUMP JUMPDEST STOP JUMPDEST CALLVALUE DUP1 ISZERO PUSH2 0x1CE JUMPI PUSH0 PUSH0 REVERT JUMPDEST POP PUSH2 0x1C1 PUSH2 0x1DD CALLDATASIZE PUSH1 0x4 PUSH2 0x6647 JUMP JUMPDEST PUSH2 0x75E JUMP JUMPDEST CALLVALUE DUP1 ISZERO PUSH2 0x1ED JUMPI PUSH0 PUSH0 REVERT JUMPDEST POP PUSH2 0x1C1 PUSH2 0x1FC CALLDATASIZE PUSH1 0x4 PUSH2 0x67A0 JUMP JUMPDEST PUSH2 0x7B0 JUMP JUMPDEST CALLVALUE DUP1 ISZERO PUSH2 0x20C JUMPI PUSH0 PUSH0 REVERT JUMPDEST POP PUSH2 0x220 PUSH2 0x21B CALLDATASIZE PUSH1 0x4 PUSH2 0x6802 JUMP JUMPDEST PUSH2 0x833 JUMP JUMPDEST PUSH1 0x40 MLOAD PUSH2 0x22F SWAP4 SWAP3 SWAP2 SWAP1 PUSH2 0x6976 JUMP JUMPDEST PUSH1 0x40 MLOAD DUP1 SWAP2 SUB SWAP1 RETURN JUMPDEST CALLVALUE DUP1 ISZERO PUSH2 0x243 JUMPI PUSH0 PUSH0 REVERT JUMPDEST POP PUSH2 0x257 PUSH2 0x252 CALLDATASIZE PUSH1 0x4 PUSH2 0x6A31 JUMP JUMPDEST PUSH2 0xC6C JUMP JUMPDEST PUSH1 0x40 MLOAD SWAP1 DUP2 MSTORE PUSH1 0x20 ADD PUSH2 0x22F JUMP JUMPDEST CALLVALUE DUP1 ISZERO PUSH2 0x270 JUMPI PUSH0 PUSH0 REVERT JUMPDEST POP PUSH2 0x29E PUSH2 0x27F CALLDATASIZE PUSH1 0x4 PUSH2 0x6647 JUMP JUMPDEST PUSH1 0x1 PUSH1 0x1 PUSH1 0xA0 SHL SUB SWAP1 DUP2 AND PUSH0 SWAP1 DUP2 MSTORE PUSH1 0x4 PUSH1 0x20 MSTORE PUSH1 0x40 SWAP1 KECCAK256 SLOAD AND ISZERO ISZERO SWAP1 JUMP JUMPDEST PUSH1 0x40 MLOAD SWAP1 ISZERO ISZERO DUP2 MSTORE PUSH1 0x20 ADD PUSH2 0x22F JUMP JUMPDEST CALLVALUE DUP1 ISZERO PUSH2 0x2B9 JUMPI PUSH0 PUSH0 REVERT JUMPDEST POP PUSH2 0x1C1 PUSH2 0x2C8 CALLDATASIZE PUSH1 0x4 PUSH2 0x6A51 JUMP JUMPDEST PUSH2 0x10C9 JUMP JUMPDEST CALLVALUE DUP1 ISZERO PUSH2 0x2D8 JUMPI PUSH0 PUSH0 REVERT JUMPDEST POP PUSH2 0x1C1 PUSH2 0x13EF JUMP JUMPDEST CALLVALUE DUP1 ISZERO PUSH2 0x2EC JUMPI PUSH0 PUSH0 REVERT JUMPDEST POP PUSH2 0x1C1 PUSH2 0x1432 JUMP JUMPDEST CALLVALUE DUP1 ISZERO PUSH2 0x300 JUMPI PUSH0 PUSH0 REVERT JUMPDEST POP PUSH2 0x32C PUSH2 0x30F CALLDATASIZE PUSH1 0x4 PUSH2 0x6647 JUMP JUMPDEST PUSH1 0x1 PUSH1 0x1 PUSH1 0xA0 SHL SUB SWAP1 DUP2 AND PUSH0 SWAP1 DUP2 MSTORE PUSH1 0x4 PUSH1 0x20 MSTORE PUSH1 0x40 SWAP1 KECCAK256 SLOAD AND SWAP1 JUMP JUMPDEST PUSH1 0x40 MLOAD PUSH2 0x22F SWAP2 SWAP1 PUSH2 0x6A8F JUMP JUMPDEST CALLVALUE DUP1 ISZERO PUSH2 0x344 JUMPI PUSH0 PUSH0 REVERT JUMPDEST POP PUSH2 0x34D PUSH2 0x147B JUMP JUMPDEST PUSH1 0x40 DUP1 MLOAD PUSH1 0x1 PUSH1 0x1 PUSH1 0xA0 SHL SUB SWAP5 DUP6 AND DUP2 MSTORE SWAP3 DUP5 AND PUSH1 0x20 DUP5 ADD MSTORE SWAP3 AND SWAP2 DUP2 ADD SWAP2 SWAP1 SWAP2 MSTORE PUSH1 0x60 ADD PUSH2 0x22F JUMP JUMPDEST CALLVALUE DUP1 ISZERO PUSH2 0x382 JUMPI PUSH0 PUSH0 REVERT JUMPDEST POP PUSH2 0x396 PUSH2 0x391 CALLDATASIZE PUSH1 0x4 PUSH2 0x6AA3 JUMP JUMPDEST PUSH2 0x14CD JUMP JUMPDEST PUSH1 0x40 MLOAD PUSH2 0x22F SWAP2 SWAP1 PUSH2 0x6AE5 JUMP JUMPDEST CALLVALUE DUP1 ISZERO PUSH2 0x3AE JUMPI PUSH0 PUSH0 REVERT JUMPDEST POP PUSH1 0x1F SLOAD PUSH2 0x32C SWAP1 PUSH1 0x1 PUSH1 0x1 PUSH1 0xA0 SHL SUB AND DUP2 JUMP JUMPDEST CALLVALUE DUP1 ISZERO PUSH2 0x3CD JUMPI PUSH0 PUSH0 REVERT JUMPDEST POP PUSH1 0x1E SLOAD PUSH2 0x32C SWAP1 PUSH1 0x1 PUSH1 0x1 PUSH1 0xA0 SHL SUB AND DUP2 JUMP JUMPDEST CALLVALUE DUP1 ISZERO PUSH2 0x3EC JUMPI PUSH0 PUSH0 REVERT JUMPDEST POP PUSH2 0x1C1 PUSH2 0x3FB CALLDATASIZE PUSH1 0x4 PUSH2 0x6B5D JUMP JUMPDEST PUSH2 0x154B JUMP JUMPDEST CALLVALUE DUP1 ISZERO PUSH2 0x40B JUMPI PUSH0 PUSH0 REVERT JUMPDEST POP PUSH2 0x32C PUSH2 0x41A CALLDATASIZE PUSH1 0x4 PUSH2 0x6647 JUMP JUMPDEST PUSH2 0x18E8 JUMP JUMPDEST CALLVALUE DUP1 ISZERO PUSH2 0x42A JUMPI PUSH0 PUSH0 REVERT JUMPDEST POP PUSH2 0x433 PUSH2 0x1960 JUMP JUMPDEST PUSH1 0x40 DUP1 MLOAD DUP3 MLOAD PUSH1 0x1 PUSH1 0x1 PUSH1 0xA0 SHL SUB AND DUP2 MSTORE PUSH1 0x20 SWAP3 DUP4 ADD MLOAD SWAP3 DUP2 ADD SWAP3 SWAP1 SWAP3 MSTORE ADD PUSH2 0x22F JUMP JUMPDEST CALLVALUE DUP1 ISZERO PUSH2 0x462 JUMPI PUSH0 PUSH0 REVERT JUMPDEST POP PUSH2 0x1C1 PUSH2 0x471 CALLDATASIZE PUSH1 0x4 PUSH2 0x6647 JUMP JUMPDEST PUSH2 0x1A03 JUMP JUMPDEST CALLVALUE DUP1 ISZERO PUSH2 0x481 JUMPI PUSH0 PUSH0 REVERT JUMPDEST POP PUSH2 0x1C1 PUSH2 0x490 CALLDATASIZE PUSH1 0x4 PUSH2 0x6BAA JUMP JUMPDEST PUSH2 0x1A4F JUMP JUMPDEST CALLVALUE DUP1 ISZERO PUSH2 0x4A0 JUMPI PUSH0 PUSH0 REVERT JUMPDEST POP PUSH2 0x1C1 PUSH2 0x4AF CALLDATASIZE PUSH1 0x4 PUSH2 0x6BED JUMP JUMPDEST PUSH2 0x1ADB JUMP JUMPDEST CALLVALUE DUP1 ISZERO PUSH2 0x4BF JUMPI PUSH0 PUSH0 REVERT JUMPDEST POP CALLER PUSH0 SWAP1 DUP2 MSTORE PUSH1 0x12 PUSH1 0x20 MSTORE PUSH1 0x40 SWAP1 KECCAK256 SLOAD PUSH1 0x1 PUSH1 0x1 PUSH1 0xA0 SHL SUB AND ISZERO ISZERO PUSH2 0x29E JUMP JUMPDEST CALLVALUE DUP1 ISZERO PUSH2 0x4EA JUMPI PUSH0 PUSH0 REVERT JUMPDEST POP PUSH1 0x1B SLOAD PUSH2 0x32C SWAP1 PUSH1 0x1 PUSH1 0x1 PUSH1 0xA0 SHL SUB AND DUP2 JUMP JUMPDEST CALLVALUE DUP1 ISZERO PUSH2 0x509 JUMPI PUSH0 PUSH0 REVERT JUMPDEST POP PUSH2 0x29E PUSH2 0x518 CALLDATASIZE PUSH1 0x4 PUSH2 0x6647 JUMP JUMPDEST PUSH2 0x1B68 JUMP JUMPDEST CALLVALUE DUP1 ISZERO PUSH2 0x528 JUMPI PUSH0 PUSH0 REVERT JUMPDEST POP PUSH2 0x1C1 PUSH2 0x537 CALLDATASIZE PUSH1 0x4 PUSH2 0x6C17 JUMP JUMPDEST PUSH2 0x1BCA JUMP JUMPDEST PUSH2 0x1C1 PUSH2 0x54A CALLDATASIZE PUSH1 0x4 PUSH2 0x6C2E JUMP JUMPDEST PUSH2 0x1CC0 JUMP JUMPDEST CALLVALUE DUP1 ISZERO PUSH2 0x55A JUMPI PUSH0 PUSH0 REVERT JUMPDEST POP PUSH2 0x29E PUSH2 0x569 CALLDATASIZE PUSH1 0x4 PUSH2 0x6647 JUMP JUMPDEST PUSH2 0x20A6 JUMP JUMPDEST CALLVALUE DUP1 ISZERO PUSH2 0x579 JUMPI PUSH0 PUSH0 REVERT JUMPDEST POP PUSH2 0x1C1 PUSH2 0x588 CALLDATASIZE PUSH1 0x4 PUSH2 0x6647 JUMP JUMPDEST PUSH2 0x2102 JUMP JUMPDEST CALLVALUE DUP1 ISZERO PUSH2 0x598 JUMPI PUSH0 PUSH0 REVERT JUMPDEST POP PUSH2 0x5AC PUSH2 0x5A7 CALLDATASIZE PUSH1 0x4 PUSH2 0x6AA3 JUMP JUMPDEST PUSH2 0x214E JUMP JUMPDEST PUSH1 0x40 MLOAD PUSH2 0x22F SWAP2 SWAP1 PUSH2 0x6C66 JUMP JUMPDEST CALLVALUE DUP1 ISZERO PUSH2 0x5C4 JUMPI PUSH0 PUSH0 REVERT JUMPDEST POP PUSH2 0x1C1 PUSH2 0x5D3 CALLDATASIZE PUSH1 0x4 PUSH2 0x6C85 JUMP JUMPDEST PUSH2 0x230A JUMP JUMPDEST PUSH2 0x1C1 PUSH2 0x5E6 CALLDATASIZE PUSH1 0x4 PUSH2 0x6BED JUMP JUMPDEST PUSH2 0x239F JUMP JUMPDEST CALLVALUE DUP1 ISZERO PUSH2 0x5F6 JUMPI PUSH0 PUSH0 REVERT JUMPDEST POP PUSH2 0x1C1 PUSH2 0x605 CALLDATASIZE PUSH1 0x4 PUSH2 0x6A31 JUMP JUMPDEST PUSH2 0x25E0 JUMP JUMPDEST CALLVALUE DUP1 ISZERO PUSH2 0x615 JUMPI PUSH0 PUSH0 REVERT JUMPDEST POP PUSH2 0x629 PUSH2 0x624 CALLDATASIZE PUSH1 0x4 PUSH2 0x6AA3 JUMP JUMPDEST PUSH2 0x27D7 JUMP JUMPDEST PUSH1 0x40 MLOAD PUSH2 0x22F SWAP2 SWAP1 PUSH0 PUSH2 0x120 DUP3 ADD SWAP1 POP DUP3 MLOAD DUP3 MSTORE PUSH1 0x20 DUP4 ADD MLOAD PUSH1 0x20 DUP4 ADD MSTORE PUSH1 0x40 DUP4 ADD MLOAD PUSH1 0x40 DUP4 ADD MSTORE PUSH1 0x60 DUP4 ADD MLOAD PUSH1 0x60 DUP4 ADD MSTORE PUSH1 0x80 DUP4 ADD MLOAD PUSH1 0x80 DUP4 ADD MSTORE PUSH1 0xA0 DUP4 ADD MLOAD PUSH1 0xA0 DUP4 ADD MSTORE PUSH1 0xC0 DUP4 ADD MLOAD PUSH1 0xC0 DUP4 ADD MSTORE PUSH1 0xE0 DUP4 ADD MLOAD PUSH1 0xE0 DUP4 ADD MSTORE PUSH2 0x100 DUP4 ADD MLOAD PUSH2 0x100 DUP4 ADD MSTORE SWAP3 SWAP2 POP POP JUMP JUMPDEST CALLVALUE DUP1 ISZERO PUSH2 0x6A0 JUMPI PUSH0 PUSH0 REVERT JUMPDEST POP PUSH2 0x1C1 PUSH2 0x6AF CALLDATASIZE PUSH1 0x4 PUSH2 0x6A31 JUMP JUMPDEST PUSH2 0x2891 JUMP JUMPDEST CALLVALUE DUP1 ISZERO PUSH2 0x6BF JUMPI PUSH0 PUSH0 REVERT JUMPDEST POP PUSH2 0x1C1 PUSH2 0x2E81 JUMP JUMPDEST CALLVALUE DUP1 ISZERO PUSH2 0x6D3 JUMPI PUSH0 PUSH0 REVERT JUMPDEST POP PUSH2 0x6DC PUSH2 0x2F71 JUMP JUMPDEST PUSH1 0x40 MLOAD PUSH2 0x22F SWAP3 SWAP2 SWAP1 PUSH2 0x6CA0 JUMP JUMPDEST CALLVALUE DUP1 ISZERO PUSH2 0x6F5 JUMPI PUSH0 PUSH0 REVERT JUMPDEST POP PUSH2 0x1C1 PUSH2 0x704 CALLDATASIZE PUSH1 0x4 PUSH2 0x6C17 JUMP JUMPDEST PUSH2 0x3131 JUMP JUMPDEST PUSH1 0x18 SLOAD PUSH1 0x1 PUSH1 0x1 PUSH1 0xA0 SHL SUB AND CALLER EQ PUSH2 0x73C JUMPI PUSH1 0x40 MLOAD PUSH3 0x461BCD PUSH1 0xE5 SHL DUP2 MSTORE PUSH1 0x4 ADD PUSH2 0x733 SWAP1 PUSH2 0x6CC1 JUMP JUMPDEST PUSH1 0x40 MLOAD DUP1 SWAP2 SUB SWAP1 REVERT JUMPDEST PUSH1 0x1F DUP1 SLOAD PUSH1 0x1 PUSH1 0x1 PUSH1 0xA0 SHL SUB NOT AND PUSH1 0x1 PUSH1 0x1 PUSH1 0xA0 SHL SUB SWAP3 SWAP1 SWAP3 AND SWAP2 SWAP1 SWAP2 OR SWAP1 SSTORE JUMP JUMPDEST PUSH1 0x18 SLOAD PUSH1 0x1 PUSH1 0x1 PUSH1 0xA0 SHL SUB AND CALLER EQ PUSH2 0x788 JUMPI PUSH1 0x40 MLOAD PUSH3 0x461BCD PUSH1 0xE5 SHL DUP2 MSTORE PUSH1 0x4 ADD PUSH2 0x733 SWAP1 PUSH2 0x6CC1 JUMP JUMPDEST PUSH1 0x1 PUSH1 0x1 PUSH1 0xA0 SHL SUB AND PUSH0 SWAP1 DUP2 MSTORE PUSH1 0x4 PUSH1 0x20 MSTORE PUSH1 0x40 SWAP1 KECCAK256 PUSH1 0x2 ADD DUP1 SLOAD PUSH2 0xFF00 NOT AND PUSH2 0x300 OR SWAP1 SSTORE JUMP JUMPDEST PUSH0 DUP4 GT PUSH2 0x7CF JUMPI PUSH1 0x40 MLOAD PUSH3 0x461BCD PUSH1 0xE5 SHL DUP2 MSTORE PUSH1 0x4 ADD PUSH2 0x733 SWAP1 PUSH2 0x6CF6 JUMP JUMPDEST PUSH1 0x14 SLOAD PUSH1 0x1 PUSH1 0x1 PUSH1 0xA0 SHL SUB AND CALLER EQ DUP1 PUSH2 0x7F2 JUMPI POP PUSH1 0x16 SLOAD PUSH1 0x1 PUSH1 0x1 PUSH1 0xA0 SHL SUB AND CALLER EQ JUMPDEST DUP1 PUSH2 0x807 JUMPI POP PUSH1 0x15 SLOAD PUSH1 0x1 PUSH1 0x1 PUSH1 0xA0 SHL SUB AND CALLER EQ JUMPDEST PUSH2 0x823 JUMPI PUSH1 0x40 MLOAD PUSH3 0x461BCD PUSH1 0xE5 SHL DUP2 MSTORE PUSH1 0x4 ADD PUSH2 0x733 SWAP1 PUSH2 0x6D2D JUMP JUMPDEST PUSH2 0x82E DUP4 DUP4 DUP4 PUSH2 0x3461 JUMP JUMPDEST POP POP POP JUMP JUMPDEST PUSH1 0x60 DUP1 DUP1 CALLER ORIGIN EQ PUSH2 0x856 JUMPI PUSH1 0x40 MLOAD PUSH3 0x461BCD PUSH1 0xE5 SHL DUP2 MSTORE PUSH1 0x4 ADD PUSH2 0x733 SWAP1 PUSH2 0x6D5C JUMP JUMPDEST PUSH2 0x867 PUSH1 0x4 DUP9 CALLER DUP10 PUSH1 0x20 PUSH1 0x21 PUSH2 0x388F JUMP JUMPDEST PUSH2 0x8A9 JUMPI PUSH1 0x40 MLOAD PUSH3 0x461BCD PUSH1 0xE5 SHL DUP2 MSTORE PUSH1 0x20 PUSH1 0x4 DUP3 ADD MSTORE PUSH1 0x13 PUSH1 0x24 DUP3 ADD MSTORE PUSH19 0x2AB730BABA3437B934BD32B21031B0B63632B9 PUSH1 0x69 SHL PUSH1 0x44 DUP3 ADD MSTORE PUSH1 0x64 ADD PUSH2 0x733 JUMP JUMPDEST PUSH1 0x1 PUSH1 0x1 PUSH1 0xA0 SHL SUB DUP8 AND PUSH0 SWAP1 DUP2 MSTORE PUSH1 0x4 PUSH1 0x20 MSTORE PUSH1 0x40 SWAP1 KECCAK256 PUSH1 0x1 ADD SLOAD DUP1 DUP7 LT PUSH2 0x941 JUMPI PUSH1 0x40 DUP1 MLOAD PUSH0 DUP1 DUP3 MSTORE PUSH1 0x20 DUP3 ADD DUP2 DUP2 MSTORE DUP3 DUP5 ADD SWAP1 SWAP4 MSTORE SWAP1 SWAP2 SWAP1 PUSH2 0x903 JUMP JUMPDEST PUSH2 0x8F0 PUSH2 0x64A7 JUMP JUMPDEST DUP2 MSTORE PUSH1 0x20 ADD SWAP1 PUSH1 0x1 SWAP1 SUB SWAP1 DUP2 PUSH2 0x8E8 JUMPI SWAP1 POP JUMPDEST POP PUSH1 0x40 DUP1 MLOAD PUSH0 DUP1 DUP3 MSTORE PUSH1 0x20 DUP3 ADD SWAP1 SWAP3 MSTORE SWAP1 PUSH2 0x934 JUMP JUMPDEST PUSH2 0x921 PUSH2 0x64CC JUMP JUMPDEST DUP2 MSTORE PUSH1 0x20 ADD SWAP1 PUSH1 0x1 SWAP1 SUB SWAP1 DUP2 PUSH2 0x919 JUMPI SWAP1 POP JUMPDEST POP SWAP4 POP SWAP4 POP SWAP4 POP POP PUSH2 0xC62 JUMP JUMPDEST PUSH0 DUP2 PUSH2 0x94D DUP8 DUP10 PUSH2 0x6DA5 JUMP JUMPDEST GT PUSH2 0x958 JUMPI DUP6 PUSH2 0x962 JUMP JUMPDEST PUSH2 0x962 DUP8 DUP4 PUSH2 0x6DB8 JUMP JUMPDEST SWAP1 POP DUP1 PUSH1 0x1 PUSH1 0x1 PUSH1 0x40 SHL SUB DUP2 GT ISZERO PUSH2 0x97C JUMPI PUSH2 0x97C PUSH2 0x6662 JUMP JUMPDEST PUSH1 0x40 MLOAD SWAP1 DUP1 DUP3 MSTORE DUP1 PUSH1 0x20 MUL PUSH1 0x20 ADD DUP3 ADD PUSH1 0x40 MSTORE DUP1 ISZERO PUSH2 0x9B5 JUMPI DUP2 PUSH1 0x20 ADD JUMPDEST PUSH2 0x9A2 PUSH2 0x64A7 JUMP JUMPDEST DUP2 MSTORE PUSH1 0x20 ADD SWAP1 PUSH1 0x1 SWAP1 SUB SWAP1 DUP2 PUSH2 0x99A JUMPI SWAP1 POP JUMPDEST POP SWAP4 POP DUP1 PUSH1 0x1 PUSH1 0x1 PUSH1 0x40 SHL SUB DUP2 GT ISZERO PUSH2 0x9D0 JUMPI PUSH2 0x9D0 PUSH2 0x6662 JUMP JUMPDEST PUSH1 0x40 MLOAD SWAP1 DUP1 DUP3 MSTORE DUP1 PUSH1 0x20 MUL PUSH1 0x20 ADD DUP3 ADD PUSH1 0x40 MSTORE DUP1 ISZERO PUSH2 0xA09 JUMPI DUP2 PUSH1 0x20 ADD JUMPDEST PUSH2 0x9F6 PUSH2 0x64CC JUMP JUMPDEST DUP2 MSTORE PUSH1 0x20 ADD SWAP1 PUSH1 0x1 SWAP1 SUB SWAP1 DUP2 PUSH2 0x9EE JUMPI SWAP1 POP JUMPDEST POP SWAP3 POP DUP1 PUSH1 0x1 PUSH1 0x1 PUSH1 0x40 SHL SUB DUP2 GT ISZERO PUSH2 0xA24 JUMPI PUSH2 0xA24 PUSH2 0x6662 JUMP JUMPDEST PUSH1 0x40 MLOAD SWAP1 DUP1 DUP3 MSTORE DUP1 PUSH1 0x20 MUL PUSH1 0x20 ADD DUP3 ADD PUSH1 0x40 MSTORE DUP1 ISZERO PUSH2 0xA4D JUMPI DUP2 PUSH1 0x20 ADD PUSH1 0x20 DUP3 MUL DUP1 CALLDATASIZE DUP4 CALLDATACOPY ADD SWAP1 POP JUMPDEST POP SWAP5 POP PUSH0 JUMPDEST DUP2 DUP2 LT ISZERO PUSH2 0xC5E JUMPI PUSH1 0x1 PUSH1 0x1 PUSH1 0xA0 SHL SUB DUP11 AND PUSH0 SWAP1 DUP2 MSTORE PUSH1 0x4 PUSH1 0x20 MSTORE PUSH1 0x40 DUP2 KECCAK256 PUSH1 0x1 ADD PUSH2 0xA7E DUP4 DUP12 PUSH2 0x6DA5 JUMP JUMPDEST DUP2 SLOAD DUP2 LT PUSH2 0xA8E JUMPI PUSH2 0xA8E PUSH2 0x6DCB JUMP JUMPDEST PUSH0 SWAP2 DUP3 MSTORE PUSH1 0x20 DUP1 DUP4 KECCAK256 SWAP1 SWAP2 ADD SLOAD PUSH1 0x1 PUSH1 0x1 PUSH1 0xA0 SHL SUB SWAP1 DUP2 AND DUP1 DUP5 MSTORE PUSH1 0x4 DUP4 MSTORE PUSH1 0x40 SWAP4 DUP5 SWAP1 KECCAK256 DUP5 MLOAD PUSH1 0x80 DUP2 ADD DUP7 MSTORE DUP2 SLOAD SWAP1 SWAP4 AND DUP4 MSTORE PUSH1 0x1 DUP2 ADD DUP1 SLOAD DUP7 MLOAD DUP2 DUP8 MUL DUP2 ADD DUP8 ADD SWAP1 SWAP8 MSTORE DUP1 DUP8 MSTORE SWAP3 SWAP7 POP SWAP3 SWAP5 SWAP1 SWAP4 DUP6 DUP2 ADD SWAP4 SWAP2 SWAP3 SWAP1 DUP4 ADD DUP3 DUP3 DUP1 ISZERO PUSH2 0xB1C JUMPI PUSH1 0x20 MUL DUP3 ADD SWAP2 SWAP1 PUSH0 MSTORE PUSH1 0x20 PUSH0 KECCAK256 SWAP1 JUMPDEST DUP2 SLOAD PUSH1 0x1 PUSH1 0x1 PUSH1 0xA0 SHL SUB AND DUP2 MSTORE PUSH1 0x1 SWAP1 SWAP2 ADD SWAP1 PUSH1 0x20 ADD DUP1 DUP4 GT PUSH2 0xAFE JUMPI JUMPDEST POP POP POP SWAP2 DUP4 MSTORE POP POP PUSH1 0x2 DUP3 ADD SLOAD PUSH1 0x20 SWAP1 SWAP2 ADD SWAP1 PUSH1 0xFF AND PUSH1 0x7 DUP2 GT ISZERO PUSH2 0xB43 JUMPI PUSH2 0xB43 PUSH2 0x6888 JUMP JUMPDEST PUSH1 0x7 DUP2 GT ISZERO PUSH2 0xB54 JUMPI PUSH2 0xB54 PUSH2 0x6888 JUMP JUMPDEST DUP2 MSTORE PUSH1 0x20 ADD PUSH1 0x2 DUP3 ADD PUSH1 0x1 SWAP1 SLOAD SWAP1 PUSH2 0x100 EXP SWAP1 DIV PUSH1 0xFF AND PUSH1 0x3 DUP2 GT ISZERO PUSH2 0xB7C JUMPI PUSH2 0xB7C PUSH2 0x6888 JUMP JUMPDEST PUSH1 0x3 DUP2 GT ISZERO PUSH2 0xB8D JUMPI PUSH2 0xB8D PUSH2 0x6888 JUMP JUMPDEST DUP2 MSTORE POP POP DUP7 DUP4 DUP2 MLOAD DUP2 LT PUSH2 0xBA3 JUMPI PUSH2 0xBA3 PUSH2 0x6DCB JUMP JUMPDEST PUSH1 0x20 MUL PUSH1 0x20 ADD ADD DUP2 SWAP1 MSTORE POP PUSH1 0x5 PUSH0 DUP3 PUSH1 0x1 PUSH1 0x1 PUSH1 0xA0 SHL SUB AND PUSH1 0x1 PUSH1 0x1 PUSH1 0xA0 SHL SUB AND DUP2 MSTORE PUSH1 0x20 ADD SWAP1 DUP2 MSTORE PUSH1 0x20 ADD PUSH0 KECCAK256 PUSH1 0x40 MLOAD DUP1 PUSH1 0xA0 ADD PUSH1 0x40 MSTORE SWAP1 DUP2 PUSH0 DUP3 ADD SLOAD DUP2 MSTORE PUSH1 0x20 ADD PUSH1 0x1 DUP3 ADD SLOAD DUP2 MSTORE PUSH1 0x20 ADD PUSH1 0x2 DUP3 ADD SLOAD DUP2 MSTORE PUSH1 0x20 ADD PUSH1 0x3 DUP3 ADD SLOAD DUP2 MSTORE PUSH1 0x20 ADD PUSH1 0x4 DUP3 ADD SLOAD DUP2 MSTORE POP POP DUP6 DUP4 DUP2 MLOAD DUP2 LT PUSH2 0xC1F JUMPI PUSH2 0xC1F PUSH2 0x6DCB JUMP JUMPDEST PUSH1 0x20 MUL PUSH1 0x20 ADD ADD DUP2 SWAP1 MSTORE POP DUP1 DUP8 DUP4 DUP2 MLOAD DUP2 LT PUSH2 0xC3D JUMPI PUSH2 0xC3D PUSH2 0x6DCB JUMP JUMPDEST PUSH1 0x1 PUSH1 0x1 PUSH1 0xA0 SHL SUB SWAP1 SWAP3 AND PUSH1 0x20 SWAP3 DUP4 MUL SWAP2 SWAP1 SWAP2 ADD SWAP1 SWAP2 ADD MSTORE POP PUSH1 0x1 ADD PUSH2 0xA52 JUMP JUMPDEST POP POP POP JUMPDEST SWAP5 POP SWAP5 POP SWAP5 SWAP2 POP POP JUMP JUMPDEST PUSH1 0x18 SLOAD PUSH0 SWAP1 PUSH1 0x1 PUSH1 0x1 PUSH1 0xA0 SHL SUB AND CALLER EQ PUSH2 0xC98 JUMPI PUSH1 0x40 MLOAD PUSH3 0x461BCD PUSH1 0xE5 SHL DUP2 MSTORE PUSH1 0x4 ADD PUSH2 0x733 SWAP1 PUSH2 0x6CC1 JUMP JUMPDEST PUSH1 0xE SLOAD DUP4 LT PUSH2 0xCB9 JUMPI PUSH1 0x40 MLOAD PUSH3 0x461BCD PUSH1 0xE5 SHL DUP2 MSTORE PUSH1 0x4 ADD PUSH2 0x733 SWAP1 PUSH2 0x6DDF JUMP JUMPDEST PUSH0 DUP3 GT PUSH2 0xD12 JUMPI PUSH1 0x40 MLOAD PUSH3 0x461BCD PUSH1 0xE5 SHL DUP2 MSTORE PUSH1 0x20 PUSH1 0x4 DUP3 ADD MSTORE PUSH1 0x21 PUSH1 0x24 DUP3 ADD MSTORE PUSH32 0x42617463682073697A65206D7573742062652067726561746572207468616E20 PUSH1 0x44 DUP3 ADD MSTORE PUSH1 0x3 PUSH1 0xFC SHL PUSH1 0x64 DUP3 ADD MSTORE PUSH1 0x84 ADD PUSH2 0x733 JUMP JUMPDEST PUSH1 0xE SLOAD PUSH2 0xD1F DUP5 DUP3 PUSH2 0x6DB8 JUMP JUMPDEST DUP4 GT ISZERO PUSH2 0xD33 JUMPI PUSH2 0xD30 DUP5 DUP3 PUSH2 0x6DB8 JUMP JUMPDEST SWAP3 POP JUMPDEST PUSH0 JUMPDEST DUP4 DUP2 LT DUP1 ISZERO PUSH2 0xD43 JUMPI POP DUP2 DUP6 LT JUMPDEST ISZERO PUSH2 0x10A6 JUMPI PUSH0 PUSH1 0xE DUP7 DUP2 SLOAD DUP2 LT PUSH2 0xD5C JUMPI PUSH2 0xD5C PUSH2 0x6DCB JUMP JUMPDEST PUSH0 SWAP2 DUP3 MSTORE PUSH1 0x20 SWAP1 SWAP2 KECCAK256 ADD SLOAD PUSH1 0x1 PUSH1 0x1 PUSH1 0xA0 SHL SUB AND SWAP1 POP DUP1 ISZERO DUP1 PUSH2 0xD8C JUMPI POP PUSH1 0x14 SLOAD PUSH1 0x1 PUSH1 0x1 PUSH1 0xA0 SHL SUB DUP3 DUP2 AND SWAP2 AND EQ JUMPDEST ISZERO PUSH2 0xD9C JUMPI PUSH0 SWAP4 POP POP POP POP PUSH2 0x10C3 JUMP JUMPDEST PUSH2 0xDAF PUSH1 0x4 PUSH1 0x5 PUSH1 0x7 PUSH1 0x8 PUSH1 0xA DUP7 PUSH2 0x3A0D JUMP JUMPDEST POP PUSH1 0x1 PUSH1 0x1 PUSH1 0xA0 SHL SUB DUP1 DUP3 AND PUSH0 SWAP1 DUP2 MSTORE PUSH1 0x4 PUSH1 0x20 MSTORE PUSH1 0x40 SWAP1 KECCAK256 SLOAD AND DUP1 ISZERO PUSH2 0x1084 JUMPI PUSH1 0x1 PUSH1 0x1 PUSH1 0xA0 SHL SUB DUP2 AND PUSH0 SWAP1 DUP2 MSTORE PUSH1 0x5 PUSH1 0x20 MSTORE PUSH1 0x40 DUP2 KECCAK256 PUSH1 0x1 SWAP1 DUP2 ADD DUP1 SLOAD SWAP2 SWAP3 SWAP1 SWAP2 PUSH2 0xDFD SWAP1 DUP5 SWAP1 PUSH2 0x6DA5 JUMP JUMPDEST SWAP1 SWAP2 SSTORE POP POP PUSH1 0x1 PUSH1 0x1 PUSH1 0xA0 SHL SUB DUP2 AND PUSH0 SWAP1 DUP2 MSTORE PUSH1 0x1A PUSH1 0x20 MSTORE PUSH1 0x40 SWAP1 KECCAK256 SLOAD PUSH1 0xFF AND ISZERO ISZERO PUSH1 0x1 EQ DUP1 ISZERO SWAP1 PUSH2 0xE6A JUMPI POP PUSH1 0x1 PUSH1 0x1 PUSH1 0xA0 SHL SUB DUP3 AND PUSH0 SWAP1 DUP2 MSTORE PUSH1 0x19 PUSH1 0x20 MSTORE PUSH1 0x40 SWAP1 KECCAK256 PUSH1 0x1 ADD SLOAD PUSH1 0xFF AND DUP1 PUSH2 0xE6A JUMPI POP PUSH1 0x1 PUSH1 0x1 PUSH1 0xA0 SHL SUB DUP3 AND PUSH0 SWAP1 DUP2 MSTORE PUSH1 0x1A PUSH1 0x20 MSTORE PUSH1 0x40 SWAP1 KECCAK256 SLOAD PUSH1 0xFF AND JUMPDEST ISZERO PUSH2 0xE92 JUMPI PUSH1 0x1 PUSH1 0x1 PUSH1 0xA0 SHL SUB DUP2 AND PUSH0 SWAP1 DUP2 MSTORE PUSH1 0x1A PUSH1 0x20 MSTORE PUSH1 0x40 SWAP1 KECCAK256 DUP1 SLOAD PUSH1 0xFF NOT AND PUSH1 0x1 OR SWAP1 SSTORE JUMPDEST PUSH1 0x1 PUSH1 0x1 PUSH1 0xA0 SHL SUB DUP3 AND PUSH0 SWAP1 DUP2 MSTORE PUSH1 0x19 PUSH1 0x20 SWAP1 DUP2 MSTORE PUSH1 0x40 DUP1 DUP4 KECCAK256 DUP4 DUP2 SSTORE PUSH1 0x1 ADD DUP1 SLOAD PUSH1 0xFF NOT SWAP1 DUP2 AND SWAP1 SWAP2 SSTORE PUSH1 0x1A DUP4 MSTORE DUP2 DUP5 KECCAK256 DUP1 SLOAD SWAP1 SWAP2 AND SWAP1 SSTORE PUSH1 0x9 SWAP1 SWAP2 MSTORE SWAP1 KECCAK256 SLOAD ISZERO PUSH2 0xF64 JUMPI PUSH1 0x1 PUSH1 0x1 PUSH1 0xA0 SHL SUB DUP1 DUP4 AND PUSH0 SWAP1 DUP2 MSTORE PUSH1 0x9 PUSH1 0x20 MSTORE PUSH1 0x40 DUP1 DUP3 KECCAK256 SLOAD SWAP3 DUP5 AND DUP3 MSTORE DUP2 KECCAK256 DUP1 SLOAD SWAP1 SWAP2 SWAP1 PUSH2 0xF09 SWAP1 DUP5 SWAP1 PUSH2 0x6DA5 JUMP JUMPDEST SWAP1 SWAP2 SSTORE POP POP PUSH1 0x1 PUSH1 0x1 PUSH1 0xA0 SHL SUB DUP1 DUP4 AND PUSH0 SWAP1 DUP2 MSTORE PUSH1 0x9 PUSH1 0x20 SWAP1 DUP2 MSTORE PUSH1 0x40 DUP1 DUP4 KECCAK256 SLOAD SWAP4 DUP6 AND DUP4 MSTORE PUSH1 0xA SWAP1 SWAP2 MSTORE DUP2 KECCAK256 DUP1 SLOAD SWAP1 SWAP2 SWAP1 PUSH2 0xF46 SWAP1 DUP5 SWAP1 PUSH2 0x6DA5 JUMP JUMPDEST SWAP1 SWAP2 SSTORE POP POP PUSH1 0x1 PUSH1 0x1 PUSH1 0xA0 SHL SUB DUP3 AND PUSH0 SWAP1 DUP2 MSTORE PUSH1 0x9 PUSH1 0x20 MSTORE PUSH1 0x40 DUP2 KECCAK256 SSTORE JUMPDEST PUSH1 0x1 PUSH1 0x1 PUSH1 0xA0 SHL SUB DUP2 AND PUSH0 SWAP1 DUP2 MSTORE PUSH1 0x4 PUSH1 0x20 SWAP1 DUP2 MSTORE PUSH1 0x40 DUP1 DUP4 KECCAK256 PUSH1 0x1 SWAP1 DUP2 ADD SLOAD PUSH1 0x5 SWAP1 SWAP4 MSTORE SWAP3 KECCAK256 SWAP1 SWAP2 ADD SLOAD SUB PUSH2 0xFDC JUMPI PUSH1 0x1 PUSH1 0x1 PUSH1 0xA0 SHL SUB DUP2 AND PUSH0 SWAP1 DUP2 MSTORE PUSH1 0x5 PUSH1 0x20 SWAP1 DUP2 MSTORE PUSH1 0x40 DUP1 DUP4 KECCAK256 PUSH1 0x1 ADD DUP4 SWAP1 SSTORE PUSH1 0x1A SWAP1 SWAP2 MSTORE SWAP1 KECCAK256 SLOAD PUSH1 0xFF AND ISZERO PUSH2 0xFD3 JUMPI PUSH2 0xFD3 PUSH1 0x5 PUSH1 0x4 PUSH1 0x2 DUP5 PUSH2 0x3B68 JUMP JUMPDEST PUSH2 0xFDC DUP2 PUSH2 0x3E29 JUMP JUMPDEST PUSH1 0x1 PUSH1 0x1 PUSH1 0xA0 SHL SUB DUP2 AND PUSH0 SWAP1 DUP2 MSTORE PUSH1 0x1A PUSH1 0x20 MSTORE PUSH1 0x40 SWAP1 KECCAK256 SLOAD PUSH1 0xFF AND DUP1 ISZERO PUSH2 0x1037 JUMPI POP PUSH1 0x1 PUSH1 0x1 PUSH1 0x1 PUSH1 0xA0 SHL SUB DUP3 AND PUSH0 SWAP1 DUP2 MSTORE PUSH1 0x4 PUSH1 0x20 MSTORE PUSH1 0x40 SWAP1 KECCAK256 PUSH1 0x2 ADD SLOAD PUSH2 0x100 SWAP1 DIV PUSH1 0xFF AND PUSH1 0x3 DUP2 GT ISZERO PUSH2 0x1034 JUMPI PUSH2 0x1034 PUSH2 0x6888 JUMP JUMPDEST EQ ISZERO JUMPDEST DUP1 ISZERO PUSH2 0x1049 JUMPI POP PUSH2 0x1049 PUSH1 0x5 DUP3 PUSH2 0x4058 JUMP JUMPDEST ISZERO PUSH2 0x1084 JUMPI PUSH1 0x1 PUSH1 0x1 PUSH1 0xA0 SHL SUB DUP2 AND PUSH0 SWAP1 DUP2 MSTORE PUSH1 0x4 PUSH1 0x20 DUP2 SWAP1 MSTORE PUSH1 0x40 SWAP1 SWAP2 KECCAK256 PUSH1 0x2 ADD DUP1 SLOAD PUSH2 0xFF00 NOT AND PUSH2 0x100 OR SWAP1 SSTORE PUSH2 0x1084 SWAP1 PUSH1 0xC DUP4 PUSH2 0x40A1 JUMP JUMPDEST DUP7 PUSH2 0x108E DUP2 PUSH2 0x6E0C JUMP JUMPDEST SWAP8 POP POP DUP3 DUP1 PUSH2 0x109C SWAP1 PUSH2 0x6E0C JUMP JUMPDEST SWAP4 POP POP POP POP PUSH2 0xD35 JUMP JUMPDEST DUP2 DUP6 LT PUSH2 0x10B3 JUMPI PUSH0 PUSH2 0x10BE JUMP JUMPDEST PUSH2 0x10BE DUP6 PUSH1 0x1 PUSH2 0x6DA5 JUMP JUMPDEST SWAP3 POP POP POP JUMPDEST SWAP3 SWAP2 POP POP JUMP JUMPDEST CALLER ORIGIN EQ PUSH2 0x10E8 JUMPI PUSH1 0x40 MLOAD PUSH3 0x461BCD PUSH1 0xE5 SHL DUP2 MSTORE PUSH1 0x4 ADD PUSH2 0x733 SWAP1 PUSH2 0x6D5C JUMP JUMPDEST PUSH1 0x11 SLOAD PUSH2 0x100 SWAP1 DIV PUSH1 0xFF AND ISZERO PUSH2 0x1110 JUMPI PUSH1 0x40 MLOAD PUSH3 0x461BCD PUSH1 0xE5 SHL DUP2 MSTORE PUSH1 0x4 ADD PUSH2 0x733 SWAP1 PUSH2 0x6E24 JUMP JUMPDEST PUSH1 0x1 PUSH1 0x1 PUSH1 0xA0 SHL SUB DUP4 DUP2 AND PUSH0 SWAP1 DUP2 MSTORE PUSH1 0x4 PUSH1 0x20 MSTORE PUSH1 0x40 SWAP1 KECCAK256 SLOAD AND ISZERO PUSH2 0x1147 JUMPI PUSH1 0x40 MLOAD PUSH3 0x461BCD PUSH1 0xE5 SHL DUP2 MSTORE PUSH1 0x4 ADD PUSH2 0x733 SWAP1 PUSH2 0x6E4C JUMP JUMPDEST PUSH1 0x1 PUSH1 0x1 PUSH1 0xA0 SHL SUB DUP4 DUP2 AND PUSH0 SWAP1 DUP2 MSTORE PUSH1 0x12 PUSH1 0x20 MSTORE PUSH1 0x40 SWAP1 KECCAK256 SLOAD AND ISZERO PUSH2 0x117E JUMPI PUSH1 0x40 MLOAD PUSH3 0x461BCD PUSH1 0xE5 SHL DUP2 MSTORE PUSH1 0x4 ADD PUSH2 0x733 SWAP1 PUSH2 0x6E79 JUMP JUMPDEST PUSH1 0x1 PUSH1 0x1 PUSH1 0xA0 SHL SUB DUP3 DUP2 AND PUSH0 SWAP1 DUP2 MSTORE PUSH1 0x4 PUSH1 0x20 MSTORE PUSH1 0x40 SWAP1 KECCAK256 SLOAD AND ISZERO ISZERO DUP1 PUSH2 0x11B2 JUMPI POP PUSH1 0x14 SLOAD PUSH1 0x1 PUSH1 0x1 PUSH1 0xA0 SHL SUB DUP4 DUP2 AND SWAP2 AND EQ JUMPDEST PUSH2 0x11CE JUMPI PUSH1 0x40 MLOAD PUSH3 0x461BCD PUSH1 0xE5 SHL DUP2 MSTORE PUSH1 0x4 ADD PUSH2 0x733 SWAP1 PUSH2 0x6EAD JUMP JUMPDEST PUSH1 0x14 SLOAD PUSH1 0x1 PUSH1 0x1 PUSH1 0xA0 SHL SUB DUP4 DUP2 AND SWAP2 AND EQ ISZERO DUP1 PUSH2 0x11F5 JUMPI POP PUSH1 0x18 SLOAD PUSH1 0x1 PUSH1 0x1 PUSH1 0xA0 SHL SUB AND CALLER EQ JUMPDEST PUSH2 0x1211 JUMPI PUSH1 0x40 MLOAD PUSH3 0x461BCD PUSH1 0xE5 SHL DUP2 MSTORE PUSH1 0x4 ADD PUSH2 0x733 SWAP1 PUSH2 0x6EDC JUMP JUMPDEST PUSH1 0x1F SLOAD PUSH1 0x40 MLOAD PUSH4 0x700786D7 PUSH1 0xE1 SHL DUP2 MSTORE PUSH1 0x1 PUSH1 0x1 PUSH1 0xA0 SHL SUB SWAP1 SWAP2 AND SWAP1 DUP2 SWAP1 PUSH4 0xE00F0DAE SWAP1 PUSH2 0x1243 SWAP1 DUP8 SWAP1 PUSH1 0x4 ADD PUSH2 0x6A8F JUMP JUMPDEST PUSH1 0x20 PUSH1 0x40 MLOAD DUP1 DUP4 SUB DUP2 DUP7 GAS STATICCALL ISZERO DUP1 ISZERO PUSH2 0x125E JUMPI RETURNDATASIZE PUSH0 PUSH0 RETURNDATACOPY RETURNDATASIZE PUSH0 REVERT JUMPDEST POP POP POP POP PUSH1 0x40 MLOAD RETURNDATASIZE PUSH1 0x1F NOT PUSH1 0x1F DUP3 ADD AND DUP3 ADD DUP1 PUSH1 0x40 MSTORE POP DUP2 ADD SWAP1 PUSH2 0x1282 SWAP2 SWAP1 PUSH2 0x6F16 JUMP JUMPDEST PUSH1 0x1 PUSH1 0x1 PUSH1 0xA0 SHL SUB AND DUP4 PUSH1 0x1 PUSH1 0x1 PUSH1 0xA0 SHL SUB AND EQ PUSH2 0x12B2 JUMPI PUSH1 0x40 MLOAD PUSH3 0x461BCD PUSH1 0xE5 SHL DUP2 MSTORE PUSH1 0x4 ADD PUSH2 0x733 SWAP1 PUSH2 0x6F31 JUMP JUMPDEST PUSH1 0x17 SLOAD PUSH2 0x12CD SWAP1 PUSH1 0x1 PUSH1 0x1 PUSH1 0xA0 SHL SUB AND DUP4 PUSH4 0x7270E00 PUSH2 0x4122 JUMP JUMPDEST PUSH1 0x40 MLOAD DUP1 PUSH1 0x40 ADD PUSH1 0x40 MSTORE DUP1 DUP5 PUSH1 0x1 PUSH1 0x1 PUSH1 0xA0 SHL SUB AND DUP2 MSTORE PUSH1 0x20 ADD TIMESTAMP PUSH4 0x1E13380 PUSH2 0x12F7 SWAP2 SWAP1 PUSH2 0x6DA5 JUMP JUMPDEST SWAP1 MSTORE PUSH1 0x1 PUSH1 0x1 PUSH1 0xA0 SHL SUB DUP1 DUP7 AND PUSH0 DUP2 DUP2 MSTORE PUSH1 0x12 PUSH1 0x20 SWAP1 DUP2 MSTORE PUSH1 0x40 DUP1 DUP4 KECCAK256 DUP7 MLOAD DUP2 SLOAD SWAP1 DUP8 AND PUSH1 0x1 PUSH1 0x1 PUSH1 0xA0 SHL SUB NOT SWAP2 DUP3 AND OR DUP3 SSTORE SWAP7 DUP4 ADD MLOAD PUSH1 0x1 SWAP2 DUP3 ADD SSTORE SWAP5 DUP10 AND DUP4 MSTORE PUSH1 0x13 DUP3 MSTORE DUP3 KECCAK256 DUP1 SLOAD SWAP5 DUP6 ADD DUP2 SSTORE DUP3 MSTORE SWAP1 KECCAK256 SWAP1 SWAP2 ADD DUP1 SLOAD SWAP1 SWAP3 AND OR SWAP1 SSTORE PUSH2 0x1361 DUP5 PUSH1 0x64 DUP5 PUSH2 0x433E JUMP JUMPDEST PUSH1 0x1B SLOAD PUSH1 0x16 SLOAD PUSH1 0x1 PUSH1 0x1 PUSH1 0xA0 SHL SUB SWAP2 DUP3 AND SWAP2 PUSH4 0xE115DC7F SWAP2 AND DUP5 PUSH1 0x64 PUSH2 0x138E PUSH3 0xF4240 PUSH4 0x7270E00 PUSH2 0x6F6F JUMP JUMPDEST PUSH2 0x1398 SWAP2 SWAP1 PUSH2 0x6DB8 JUMP JUMPDEST PUSH1 0x1 PUSH1 0x2 PUSH1 0x40 MLOAD DUP7 PUSH4 0xFFFFFFFF AND PUSH1 0xE0 SHL DUP2 MSTORE PUSH1 0x4 ADD PUSH2 0x13BC SWAP6 SWAP5 SWAP4 SWAP3 SWAP2 SWAP1 PUSH2 0x6F82 JUMP JUMPDEST PUSH0 PUSH1 0x40 MLOAD DUP1 DUP4 SUB DUP2 PUSH0 DUP8 DUP1 EXTCODESIZE ISZERO DUP1 ISZERO PUSH2 0x13D3 JUMPI PUSH0 PUSH0 REVERT JUMPDEST POP GAS CALL ISZERO DUP1 ISZERO PUSH2 0x13E5 JUMPI RETURNDATASIZE PUSH0 PUSH0 RETURNDATACOPY RETURNDATASIZE PUSH0 REVERT JUMPDEST POP POP POP POP POP POP POP POP JUMP JUMPDEST PUSH1 0x18 SLOAD PUSH1 0x1 PUSH1 0x1 PUSH1 0xA0 SHL SUB AND CALLER EQ PUSH2 0x1419 JUMPI PUSH1 0x40 MLOAD PUSH3 0x461BCD PUSH1 0xE5 SHL DUP2 MSTORE PUSH1 0x4 ADD PUSH2 0x733 SWAP1 PUSH2 0x6CC1 JUMP JUMPDEST PUSH1 0x1B SLOAD PUSH2 0x1430 SWAP1 PUSH1 0x1 PUSH1 0x1 PUSH1 0xA0 SHL SUB AND PUSH1 0x2 PUSH2 0x4444 JUMP JUMPDEST JUMP JUMPDEST PUSH1 0x18 SLOAD PUSH1 0x1 PUSH1 0x1 PUSH1 0xA0 SHL SUB AND CALLER EQ PUSH2 0x145C JUMPI PUSH1 0x40 MLOAD PUSH3 0x461BCD PUSH1 0xE5 SHL DUP2 MSTORE PUSH1 0x4 ADD PUSH2 0x733 SWAP1 PUSH2 0x6CC1 JUMP JUMPDEST PUSH1 0x14 SLOAD PUSH2 0x1430 SWAP1 PUSH1 0x4 SWAP1 PUSH1 0xD SWAP1 PUSH1 0xB SWAP1 PUSH1 0x1 PUSH1 0x1 PUSH1 0xA0 SHL SUB AND DUP1 PUSH2 0x46B9 JUMP JUMPDEST PUSH1 0x18 SLOAD PUSH0 SWAP1 DUP2 SWAP1 DUP2 SWAP1 PUSH1 0x1 PUSH1 0x1 PUSH1 0xA0 SHL SUB AND CALLER EQ PUSH2 0x14AB JUMPI PUSH1 0x40 MLOAD PUSH3 0x461BCD PUSH1 0xE5 SHL DUP2 MSTORE PUSH1 0x4 ADD PUSH2 0x733 SWAP1 PUSH2 0x6CC1 JUMP JUMPDEST POP POP PUSH1 0x15 SLOAD PUSH1 0x16 SLOAD PUSH1 0x14 SLOAD PUSH1 0x1 PUSH1 0x1 PUSH1 0xA0 SHL SUB SWAP3 DUP4 AND SWAP4 POP SWAP1 DUP3 AND SWAP2 AND SWAP1 SWAP2 SWAP3 JUMP JUMPDEST PUSH1 0x1B SLOAD PUSH1 0x40 MLOAD PUSH4 0x5BC3E911 PUSH1 0xE1 SHL DUP2 MSTORE PUSH1 0x60 SWAP2 PUSH1 0x1 PUSH1 0x1 PUSH1 0xA0 SHL SUB AND SWAP1 PUSH4 0xB787D222 SWAP1 PUSH2 0x1502 SWAP1 DUP8 SWAP1 DUP8 SWAP1 DUP8 SWAP1 PUSH1 0x4 ADD PUSH2 0x6FB5 JUMP JUMPDEST PUSH0 PUSH1 0x40 MLOAD DUP1 DUP4 SUB DUP2 DUP7 GAS STATICCALL ISZERO DUP1 ISZERO PUSH2 0x151C JUMPI RETURNDATASIZE PUSH0 PUSH0 RETURNDATACOPY RETURNDATASIZE PUSH0 REVERT JUMPDEST POP POP POP POP PUSH1 0x40 MLOAD RETURNDATASIZE PUSH0 DUP3 RETURNDATACOPY PUSH1 0x1F RETURNDATASIZE SWAP1 DUP2 ADD PUSH1 0x1F NOT AND DUP3 ADD PUSH1 0x40 MSTORE PUSH2 0x1543 SWAP2 SWAP1 DUP2 ADD SWAP1 PUSH2 0x6FD6 JUMP JUMPDEST SWAP5 SWAP4 POP POP POP POP JUMP JUMPDEST CALLER ORIGIN EQ PUSH2 0x156A JUMPI PUSH1 0x40 MLOAD PUSH3 0x461BCD PUSH1 0xE5 SHL DUP2 MSTORE PUSH1 0x4 ADD PUSH2 0x733 SWAP1 PUSH2 0x6D5C JUMP JUMPDEST PUSH1 0x11 SLOAD PUSH2 0x100 SWAP1 DIV PUSH1 0xFF AND ISZERO PUSH2 0x1592 JUMPI PUSH1 0x40 MLOAD PUSH3 0x461BCD PUSH1 0xE5 SHL DUP2 MSTORE PUSH1 0x4 ADD PUSH2 0x733 SWAP1 PUSH2 0x6E24 JUMP JUMPDEST PUSH1 0x1 PUSH1 0x1 PUSH1 0xA0 SHL SUB DUP6 DUP2 AND PUSH0 SWAP1 DUP2 MSTORE PUSH1 0x4 PUSH1 0x20 MSTORE PUSH1 0x40 SWAP1 KECCAK256 SLOAD AND ISZERO PUSH2 0x15C9 JUMPI PUSH1 0x40 MLOAD PUSH3 0x461BCD PUSH1 0xE5 SHL DUP2 MSTORE PUSH1 0x4 ADD PUSH2 0x733 SWAP1 PUSH2 0x6E4C JUMP JUMPDEST PUSH1 0x1 PUSH1 0x1 PUSH1 0xA0 SHL SUB DUP6 DUP2 AND PUSH0 SWAP1 DUP2 MSTORE PUSH1 0x12 PUSH1 0x20 MSTORE PUSH1 0x40 SWAP1 KECCAK256 SLOAD AND ISZERO PUSH2 0x1600 JUMPI PUSH1 0x40 MLOAD PUSH3 0x461BCD PUSH1 0xE5 SHL DUP2 MSTORE PUSH1 0x4 ADD PUSH2 0x733 SWAP1 PUSH2 0x6E79 JUMP JUMPDEST PUSH1 0x1 PUSH1 0x1 PUSH1 0xA0 SHL SUB DUP5 DUP2 AND PUSH0 SWAP1 DUP2 MSTORE PUSH1 0x4 PUSH1 0x20 MSTORE PUSH1 0x40 SWAP1 KECCAK256 SLOAD AND ISZERO ISZERO DUP1 PUSH2 0x1634 JUMPI POP PUSH1 0x14 SLOAD PUSH1 0x1 PUSH1 0x1 PUSH1 0xA0 SHL SUB DUP6 DUP2 AND SWAP2 AND EQ JUMPDEST PUSH2 0x1650 JUMPI PUSH1 0x40 MLOAD PUSH3 0x461BCD PUSH1 0xE5 SHL DUP2 MSTORE PUSH1 0x4 ADD PUSH2 0x733 SWAP1 PUSH2 0x6EAD JUMP JUMPDEST PUSH1 0x14 SLOAD PUSH1 0x1 PUSH1 0x1 PUSH1 0xA0 SHL SUB DUP6 DUP2 AND SWAP2 AND EQ ISZERO DUP1 PUSH2 0x1677 JUMPI POP PUSH1 0x18 SLOAD PUSH1 0x1 PUSH1 0x1 PUSH1 0xA0 SHL SUB AND CALLER EQ JUMPDEST PUSH2 0x1693 JUMPI PUSH1 0x40 MLOAD PUSH3 0x461BCD PUSH1 0xE5 SHL DUP2 MSTORE PUSH1 0x4 ADD PUSH2 0x733 SWAP1 PUSH2 0x6EDC JUMP JUMPDEST PUSH1 0x1F SLOAD PUSH1 0x40 MLOAD PUSH4 0x700786D7 PUSH1 0xE1 SHL DUP2 MSTORE PUSH1 0x1 PUSH1 0x1 PUSH1 0xA0 SHL SUB SWAP1 SWAP2 AND SWAP1 DUP2 SWAP1 PUSH4 0xE00F0DAE SWAP1 PUSH2 0x16C5 SWAP1 DUP10 SWAP1 PUSH1 0x4 ADD PUSH2 0x6A8F JUMP JUMPDEST PUSH1 0x20 PUSH1 0x40 MLOAD DUP1 DUP4 SUB DUP2 DUP7 GAS STATICCALL ISZERO DUP1 ISZERO PUSH2 0x16E0 JUMPI RETURNDATASIZE PUSH0 PUSH0 RETURNDATACOPY RETURNDATASIZE PUSH0 REVERT JUMPDEST POP POP POP POP PUSH1 0x40 MLOAD RETURNDATASIZE PUSH1 0x1F NOT PUSH1 0x1F DUP3 ADD AND DUP3 ADD DUP1 PUSH1 0x40 MSTORE POP DUP2 ADD SWAP1 PUSH2 0x1704 SWAP2 SWAP1 PUSH2 0x6F16 JUMP JUMPDEST PUSH1 0x1 PUSH1 0x1 PUSH1 0xA0 SHL SUB AND DUP6 PUSH1 0x1 PUSH1 0x1 PUSH1 0xA0 SHL SUB AND EQ PUSH2 0x1734 JUMPI PUSH1 0x40 MLOAD PUSH3 0x461BCD PUSH1 0xE5 SHL DUP2 MSTORE PUSH1 0x4 ADD PUSH2 0x733 SWAP1 PUSH2 0x6F31 JUMP JUMPDEST PUSH1 0x17 SLOAD PUSH2 0x175C SWAP1 PUSH1 0x1 PUSH1 0x1 PUSH1 0xA0 SHL SUB AND DUP4 PUSH2 0x1757 PUSH4 0x7270E00 PUSH4 0x2625A00 PUSH2 0x6DA5 JUMP JUMPDEST PUSH2 0x4122 JUMP JUMPDEST PUSH2 0x1768 DUP7 PUSH1 0x64 DUP5 PUSH2 0x433E JUMP JUMPDEST PUSH1 0x1B SLOAD PUSH1 0x16 SLOAD PUSH1 0x1 PUSH1 0x1 PUSH1 0xA0 SHL SUB SWAP2 DUP3 AND SWAP2 PUSH4 0xE115DC7F SWAP2 AND DUP5 PUSH1 0x64 PUSH2 0x1795 PUSH3 0xF4240 PUSH4 0x7270E00 PUSH2 0x6F6F JUMP JUMPDEST PUSH2 0x179F SWAP2 SWAP1 PUSH2 0x6DB8 JUMP JUMPDEST PUSH1 0x1 PUSH1 0x2 PUSH1 0x40 MLOAD DUP7 PUSH4 0xFFFFFFFF AND PUSH1 0xE0 SHL DUP2 MSTORE PUSH1 0x4 ADD PUSH2 0x17C3 SWAP6 SWAP5 SWAP4 SWAP3 SWAP2 SWAP1 PUSH2 0x6F82 JUMP JUMPDEST PUSH0 PUSH1 0x40 MLOAD DUP1 DUP4 SUB DUP2 PUSH0 DUP8 DUP1 EXTCODESIZE ISZERO DUP1 ISZERO PUSH2 0x17DA JUMPI PUSH0 PUSH0 REVERT JUMPDEST POP GAS CALL ISZERO DUP1 ISZERO PUSH2 0x17EC JUMPI RETURNDATASIZE PUSH0 PUSH0 RETURNDATACOPY RETURNDATASIZE PUSH0 REVERT JUMPDEST POP POP PUSH1 0x11 SLOAD PUSH1 0xFF AND ISZERO SWAP2 POP PUSH2 0x18CA SWAP1 POP JUMPI POP PUSH1 0x40 DUP1 MLOAD PUSH1 0xA0 DUP2 ADD DUP3 MSTORE PUSH1 0x1 PUSH1 0x1 PUSH1 0xA0 SHL SUB DUP1 DUP9 AND DUP3 MSTORE DUP7 DUP2 AND PUSH1 0x20 DUP4 ADD SWAP1 DUP2 MSTORE SWAP3 DUP3 ADD DUP7 DUP2 MSTORE PUSH1 0x60 DUP4 ADD DUP7 DUP2 MSTORE PUSH1 0x80 DUP5 ADD DUP7 DUP2 MSTORE PUSH1 0xF DUP1 SLOAD PUSH1 0x1 DUP2 ADD DUP3 SSTORE PUSH0 SWAP2 SWAP1 SWAP2 MSTORE SWAP5 MLOAD PUSH1 0x5 SWAP1 SWAP6 MUL PUSH0 MLOAD PUSH1 0x20 PUSH2 0x76C8 PUSH0 CODECOPY PUSH0 MLOAD SWAP1 PUSH0 MSTORE DUP2 ADD DUP1 SLOAD SWAP7 DUP7 AND PUSH1 0x1 PUSH1 0x1 PUSH1 0xA0 SHL SUB NOT SWAP8 DUP9 AND OR SWAP1 SSTORE SWAP6 MLOAD PUSH0 MLOAD PUSH1 0x20 PUSH2 0x76A8 PUSH0 CODECOPY PUSH0 MLOAD SWAP1 PUSH0 MSTORE DUP8 ADD DUP1 SLOAD SWAP2 SWAP1 SWAP6 AND SWAP6 AND SWAP5 SWAP1 SWAP5 OR SWAP1 SWAP3 SSTORE MLOAD PUSH0 MLOAD PUSH1 0x20 PUSH2 0x7688 PUSH0 CODECOPY PUSH0 MLOAD SWAP1 PUSH0 MSTORE DUP5 ADD SSTORE MLOAD PUSH0 MLOAD PUSH1 0x20 PUSH2 0x7668 PUSH0 CODECOPY PUSH0 MLOAD SWAP1 PUSH0 MSTORE DUP4 ADD SSTORE MLOAD PUSH0 MLOAD PUSH1 0x20 PUSH2 0x7648 PUSH0 CODECOPY PUSH0 MLOAD SWAP1 PUSH0 MSTORE SWAP1 SWAP2 ADD SSTORE PUSH2 0x18E1 JUMP JUMPDEST PUSH2 0x18D2 PUSH2 0x49B9 JUMP JUMPDEST PUSH2 0x18DF DUP7 DUP7 DUP7 DUP7 DUP7 PUSH2 0x4B5A JUMP JUMPDEST POP JUMPDEST POP POP POP POP POP JUMP JUMPDEST PUSH1 0x1F SLOAD PUSH1 0x40 MLOAD PUSH4 0x700786D7 PUSH1 0xE1 SHL DUP2 MSTORE PUSH0 SWAP2 PUSH1 0x1 PUSH1 0x1 PUSH1 0xA0 SHL SUB AND SWAP1 DUP2 SWAP1 PUSH4 0xE00F0DAE SWAP1 PUSH2 0x191A SWAP1 DUP7 SWAP1 PUSH1 0x4 ADD PUSH2 0x6A8F JUMP JUMPDEST PUSH1 0x20 PUSH1 0x40 MLOAD DUP1 DUP4 SUB DUP2 DUP7 GAS STATICCALL ISZERO DUP1 ISZERO PUSH2 0x1935 JUMPI RETURNDATASIZE PUSH0 PUSH0 RETURNDATACOPY RETURNDATASIZE PUSH0 REVERT JUMPDEST POP POP POP POP PUSH1 0x40 MLOAD RETURNDATASIZE PUSH1 0x1F NOT PUSH1 0x1F DUP3 ADD AND DUP3 ADD DUP1 PUSH1 0x40 MSTORE POP DUP2 ADD SWAP1 PUSH2 0x1959 SWAP2 SWAP1 PUSH2 0x6F16 JUMP JUMPDEST SWAP4 SWAP3 POP POP POP JUMP JUMPDEST PUSH1 0x40 DUP1 MLOAD DUP1 DUP3 ADD SWAP1 SWAP2 MSTORE PUSH0 DUP1 DUP3 MSTORE PUSH1 0x20 DUP3 ADD MSTORE CALLER ORIGIN EQ PUSH2 0x1992 JUMPI PUSH1 0x40 MLOAD PUSH3 0x461BCD PUSH1 0xE5 SHL DUP2 MSTORE PUSH1 0x4 ADD PUSH2 0x733 SWAP1 PUSH2 0x6D5C JUMP JUMPDEST CALLER PUSH0 DUP2 DUP2 MSTORE PUSH1 0x12 PUSH1 0x20 MSTORE PUSH1 0x40 SWAP1 KECCAK256 SLOAD PUSH1 0x1 PUSH1 0x1 PUSH1 0xA0 SHL SUB AND PUSH2 0x19C6 JUMPI PUSH1 0x40 MLOAD PUSH3 0x461BCD PUSH1 0xE5 SHL DUP2 MSTORE PUSH1 0x4 ADD PUSH2 0x733 SWAP1 PUSH2 0x70AA JUMP JUMPDEST PUSH1 0x1 PUSH1 0x1 PUSH1 0xA0 SHL SUB SWAP1 DUP2 AND PUSH0 SWAP1 DUP2 MSTORE PUSH1 0x12 PUSH1 0x20 SWAP1 DUP2 MSTORE PUSH1 0x40 SWAP2 DUP3 SWAP1 KECCAK256 DUP3 MLOAD DUP1 DUP5 ADD SWAP1 SWAP4 MSTORE DUP1 SLOAD SWAP1 SWAP4 AND DUP3 MSTORE PUSH1 0x1 SWAP1 SWAP3 ADD SLOAD SWAP2 DUP2 ADD SWAP2 SWAP1 SWAP2 MSTORE SWAP1 POP SWAP1 JUMP JUMPDEST PUSH1 0x18 SLOAD PUSH1 0x1 PUSH1 0x1 PUSH1 0xA0 SHL SUB AND CALLER EQ PUSH2 0x1A2D JUMPI PUSH1 0x40 MLOAD PUSH3 0x461BCD PUSH1 0xE5 SHL DUP2 MSTORE PUSH1 0x4 ADD PUSH2 0x733 SWAP1 PUSH2 0x6CC1 JUMP JUMPDEST PUSH1 0x17 DUP1 SLOAD PUSH1 0x1 PUSH1 0x1 PUSH1 0xA0 SHL SUB NOT AND PUSH1 0x1 PUSH1 0x1 PUSH1 0xA0 SHL SUB SWAP3 SWAP1 SWAP3 AND SWAP2 SWAP1 SWAP2 OR SWAP1 SSTORE JUMP JUMPDEST PUSH0 DUP3 GT PUSH2 0x1A6E JUMPI PUSH1 0x40 MLOAD PUSH3 0x461BCD PUSH1 0xE5 SHL DUP2 MSTORE PUSH1 0x4 ADD PUSH2 0x733 SWAP1 PUSH2 0x6CF6 JUMP JUMPDEST ORIGIN CALLER EQ DUP1 PUSH2 0x1A86 JUMPI POP PUSH1 0x14 SLOAD PUSH1 0x1 PUSH1 0x1 PUSH1 0xA0 SHL SUB AND CALLER EQ JUMPDEST DUP1 PUSH2 0x1A9B JUMPI POP PUSH1 0x16 SLOAD PUSH1 0x1 PUSH1 0x1 PUSH1 0xA0 SHL SUB AND CALLER EQ JUMPDEST DUP1 PUSH2 0x1AB0 JUMPI POP PUSH1 0x15 SLOAD PUSH1 0x1 PUSH1 0x1 PUSH1 0xA0 SHL SUB AND CALLER EQ JUMPDEST PUSH2 0x1ACC JUMPI PUSH1 0x40 MLOAD PUSH3 0x461BCD PUSH1 0xE5 SHL DUP2 MSTORE PUSH1 0x4 ADD PUSH2 0x733 SWAP1 PUSH2 0x6D2D JUMP JUMPDEST PUSH2 0x1AD7 DUP3 CALLER DUP4 PUSH2 0x3461 JUMP JUMPDEST POP POP JUMP JUMPDEST PUSH1 0x18 SLOAD PUSH1 0x1 PUSH1 0x1 PUSH1 0xA0 SHL SUB AND CALLER EQ PUSH2 0x1B05 JUMPI PUSH1 0x40 MLOAD PUSH3 0x461BCD PUSH1 0xE5 SHL DUP2 MSTORE PUSH1 0x4 ADD PUSH2 0x733 SWAP1 PUSH2 0x6CC1 JUMP JUMPDEST PUSH1 0x1 PUSH1 0x1 PUSH1 0xA0 SHL SUB DUP3 DUP2 AND PUSH0 SWAP1 DUP2 MSTORE PUSH1 0x4 PUSH1 0x20 MSTORE PUSH1 0x40 SWAP1 KECCAK256 SLOAD AND PUSH2 0x1B5D JUMPI PUSH1 0x40 MLOAD PUSH3 0x461BCD PUSH1 0xE5 SHL DUP2 MSTORE PUSH1 0x20 PUSH1 0x4 DUP3 ADD MSTORE PUSH1 0xF PUSH1 0x24 DUP3 ADD MSTORE PUSH15 0x55736572206E6F7420657869737473 PUSH1 0x88 SHL PUSH1 0x44 DUP3 ADD MSTORE PUSH1 0x64 ADD PUSH2 0x733 JUMP JUMPDEST PUSH2 0x1AD7 PUSH0 DUP4 DUP4 PUSH2 0x51E3 JUMP JUMPDEST PUSH1 0x1 PUSH1 0x1 PUSH1 0xA0 SHL SUB DUP2 DUP2 AND PUSH0 SWAP1 DUP2 MSTORE PUSH1 0x4 PUSH1 0x20 MSTORE PUSH1 0x40 DUP2 KECCAK256 SLOAD SWAP1 SWAP2 AND ISZERO DUP1 ISZERO SWAP1 PUSH2 0x10C3 JUMPI POP PUSH1 0x1 PUSH1 0x1 PUSH1 0x1 PUSH1 0xA0 SHL SUB DUP4 AND PUSH0 SWAP1 DUP2 MSTORE PUSH1 0x4 PUSH1 0x20 MSTORE PUSH1 0x40 SWAP1 KECCAK256 PUSH1 0x2 ADD SLOAD PUSH2 0x100 SWAP1 DIV PUSH1 0xFF AND PUSH1 0x3 DUP2 GT ISZERO PUSH2 0x1BC3 JUMPI PUSH2 0x1BC3 PUSH2 0x6888 JUMP JUMPDEST EQ SWAP3 SWAP2 POP POP JUMP JUMPDEST PUSH1 0x18 SLOAD PUSH1 0x1 PUSH1 0x1 PUSH1 0xA0 SHL SUB AND CALLER EQ PUSH2 0x1BF4 JUMPI PUSH1 0x40 MLOAD PUSH3 0x461BCD PUSH1 0xE5 SHL DUP2 MSTORE PUSH1 0x4 ADD PUSH2 0x733 SWAP1 PUSH2 0x6CC1 JUMP JUMPDEST PUSH1 0x17 SLOAD PUSH1 0x16 SLOAD PUSH1 0x40 MLOAD PUSH4 0x95EA7B3 PUSH1 0xE0 SHL DUP2 MSTORE PUSH1 0x1 PUSH1 0x1 PUSH1 0xA0 SHL SUB SWAP3 DUP4 AND SWAP3 PUSH4 0x95EA7B3 SWAP3 PUSH2 0x1C2A SWAP3 SWAP2 AND SWAP1 DUP6 SWAP1 PUSH1 0x4 ADD PUSH2 0x70D7 JUMP JUMPDEST PUSH1 0x20 PUSH1 0x40 MLOAD DUP1 DUP4 SUB DUP2 PUSH0 DUP8 GAS CALL ISZERO DUP1 ISZERO PUSH2 0x1C46 JUMPI RETURNDATASIZE PUSH0 PUSH0 RETURNDATACOPY RETURNDATASIZE PUSH0 REVERT JUMPDEST POP POP POP POP PUSH1 0x40 MLOAD RETURNDATASIZE PUSH1 0x1F NOT PUSH1 0x1F DUP3 ADD AND DUP3 ADD DUP1 PUSH1 0x40 MSTORE POP DUP2 ADD SWAP1 PUSH2 0x1C6A SWAP2 SWAP1 PUSH2 0x70F0 JUMP JUMPDEST POP PUSH1 0x16 SLOAD PUSH1 0x40 MLOAD PUSH4 0x53F29F7 PUSH1 0xE3 SHL DUP2 MSTORE PUSH1 0x4 DUP2 ADD DUP4 SWAP1 MSTORE PUSH1 0x1 PUSH1 0x1 PUSH1 0xA0 SHL SUB SWAP1 SWAP2 AND SWAP1 PUSH4 0x29F94FB8 SWAP1 PUSH1 0x24 ADD PUSH0 PUSH1 0x40 MLOAD DUP1 DUP4 SUB DUP2 PUSH0 DUP8 DUP1 EXTCODESIZE ISZERO DUP1 ISZERO PUSH2 0x1CAE JUMPI PUSH0 PUSH0 REVERT JUMPDEST POP GAS CALL ISZERO DUP1 ISZERO PUSH2 0x18E1 JUMPI RETURNDATASIZE PUSH0 PUSH0 RETURNDATACOPY RETURNDATASIZE PUSH0 REVERT JUMPDEST CALLER ORIGIN EQ PUSH2 0x1CDF JUMPI PUSH1 0x40 MLOAD PUSH3 0x461BCD PUSH1 0xE5 SHL DUP2 MSTORE PUSH1 0x4 ADD PUSH2 0x733 SWAP1 PUSH2 0x6D5C JUMP JUMPDEST PUSH1 0x11 SLOAD PUSH2 0x100 SWAP1 DIV PUSH1 0xFF AND ISZERO PUSH2 0x1D07 JUMPI PUSH1 0x40 MLOAD PUSH3 0x461BCD PUSH1 0xE5 SHL DUP2 MSTORE PUSH1 0x4 ADD PUSH2 0x733 SWAP1 PUSH2 0x6E24 JUMP JUMPDEST PUSH1 0x1 PUSH1 0x1 PUSH1 0xA0 SHL SUB DUP5 DUP2 AND PUSH0 SWAP1 DUP2 MSTORE PUSH1 0x12 PUSH1 0x20 MSTORE PUSH1 0x40 SWAP1 KECCAK256 SLOAD AND PUSH2 0x1D60 JUMPI PUSH1 0x40 MLOAD PUSH3 0x461BCD PUSH1 0xE5 SHL DUP2 MSTORE PUSH1 0x20 PUSH1 0x4 DUP3 ADD MSTORE PUSH1 0x10 PUSH1 0x24 DUP3 ADD MSTORE PUSH16 0x55736572206E6F742070656E64696E67 PUSH1 0x80 SHL PUSH1 0x44 DUP3 ADD MSTORE PUSH1 0x64 ADD PUSH2 0x733 JUMP JUMPDEST PUSH1 0x1 PUSH1 0x1 PUSH1 0xA0 SHL SUB DUP5 AND PUSH0 SWAP1 DUP2 MSTORE PUSH1 0x12 PUSH1 0x20 MSTORE PUSH1 0x40 SWAP1 KECCAK256 PUSH1 0x1 ADD SLOAD TIMESTAMP GT ISZERO PUSH2 0x1DBF JUMPI PUSH1 0x40 MLOAD PUSH3 0x461BCD PUSH1 0xE5 SHL DUP2 MSTORE PUSH1 0x20 PUSH1 0x4 DUP3 ADD MSTORE PUSH1 0x12 PUSH1 0x24 DUP3 ADD MSTORE PUSH18 0x13595B58995C9CDA1A5C08195E1C1A5C9959 PUSH1 0x72 SHL PUSH1 0x44 DUP3 ADD MSTORE PUSH1 0x64 ADD PUSH2 0x733 JUMP JUMPDEST PUSH1 0x1 PUSH1 0x1 PUSH1 0xA0 SHL SUB DUP1 DUP6 AND PUSH0 SWAP1 DUP2 MSTORE PUSH1 0x12 PUSH1 0x20 SWAP1 DUP2 MSTORE PUSH1 0x40 DUP1 DUP4 KECCAK256 SLOAD DUP5 AND DUP1 DUP5 MSTORE PUSH1 0x4 SWAP1 SWAP3 MSTORE SWAP1 SWAP2 KECCAK256 SLOAD SWAP1 SWAP2 AND ISZERO ISZERO DUP1 PUSH2 0x1E06 JUMPI POP PUSH1 0x14 SLOAD PUSH1 0x1 PUSH1 0x1 PUSH1 0xA0 SHL SUB DUP3 DUP2 AND SWAP2 AND EQ JUMPDEST PUSH2 0x1E22 JUMPI PUSH1 0x40 MLOAD PUSH3 0x461BCD PUSH1 0xE5 SHL DUP2 MSTORE PUSH1 0x4 ADD PUSH2 0x733 SWAP1 PUSH2 0x6EAD JUMP JUMPDEST PUSH1 0x17 SLOAD PUSH2 0x1E3D SWAP1 PUSH1 0x1 PUSH1 0x1 PUSH1 0xA0 SHL SUB AND DUP4 PUSH4 0x2625A00 PUSH2 0x4122 JUMP JUMPDEST PUSH1 0x1 PUSH1 0x1 PUSH1 0xA0 SHL SUB DUP6 AND PUSH0 SWAP1 DUP2 MSTORE PUSH1 0x12 PUSH1 0x20 MSTORE PUSH1 0x40 DUP2 KECCAK256 DUP1 SLOAD PUSH1 0x1 PUSH1 0x1 PUSH1 0xA0 SHL SUB NOT AND DUP2 SSTORE PUSH1 0x1 ADD DUP2 SWAP1 SSTORE JUMPDEST PUSH1 0x1 PUSH1 0x1 PUSH1 0xA0 SHL SUB DUP3 AND PUSH0 SWAP1 DUP2 MSTORE PUSH1 0x13 PUSH1 0x20 MSTORE PUSH1 0x40 SWAP1 KECCAK256 SLOAD DUP2 LT ISZERO PUSH2 0x1FB1 JUMPI PUSH1 0x1 PUSH1 0x1 PUSH1 0xA0 SHL SUB DUP3 DUP2 AND PUSH0 SWAP1 DUP2 MSTORE PUSH1 0x13 PUSH1 0x20 MSTORE PUSH1 0x40 SWAP1 KECCAK256 DUP1 SLOAD SWAP2 DUP9 AND SWAP2 DUP4 SWAP1 DUP2 LT PUSH2 0x1EB6 JUMPI PUSH2 0x1EB6 PUSH2 0x6DCB JUMP JUMPDEST PUSH0 SWAP2 DUP3 MSTORE PUSH1 0x20 SWAP1 SWAP2 KECCAK256 ADD SLOAD PUSH1 0x1 PUSH1 0x1 PUSH1 0xA0 SHL SUB AND SUB PUSH2 0x1FA9 JUMPI PUSH1 0x1 PUSH1 0x1 PUSH1 0xA0 SHL SUB DUP3 AND PUSH0 SWAP1 DUP2 MSTORE PUSH1 0x13 PUSH1 0x20 MSTORE PUSH1 0x40 SWAP1 KECCAK256 DUP1 SLOAD PUSH2 0x1EF4 SWAP1 PUSH1 0x1 SWAP1 PUSH2 0x6DB8 JUMP JUMPDEST DUP2 SLOAD DUP2 LT PUSH2 0x1F04 JUMPI PUSH2 0x1F04 PUSH2 0x6DCB JUMP JUMPDEST PUSH0 SWAP2 DUP3 MSTORE PUSH1 0x20 DUP1 DUP4 KECCAK256 SWAP1 SWAP2 ADD SLOAD PUSH1 0x1 PUSH1 0x1 PUSH1 0xA0 SHL SUB DUP6 DUP2 AND DUP5 MSTORE PUSH1 0x13 SWAP1 SWAP3 MSTORE PUSH1 0x40 SWAP1 SWAP3 KECCAK256 DUP1 SLOAD SWAP2 SWAP1 SWAP3 AND SWAP2 SWAP1 DUP4 SWAP1 DUP2 LT PUSH2 0x1F40 JUMPI PUSH2 0x1F40 PUSH2 0x6DCB JUMP JUMPDEST PUSH0 SWAP2 DUP3 MSTORE PUSH1 0x20 DUP1 DUP4 KECCAK256 SWAP2 SWAP1 SWAP2 ADD DUP1 SLOAD PUSH1 0x1 PUSH1 0x1 PUSH1 0xA0 SHL SUB NOT AND PUSH1 0x1 PUSH1 0x1 PUSH1 0xA0 SHL SUB SWAP5 DUP6 AND OR SWAP1 SSTORE SWAP2 DUP5 AND DUP2 MSTORE PUSH1 0x13 SWAP1 SWAP2 MSTORE PUSH1 0x40 SWAP1 KECCAK256 DUP1 SLOAD DUP1 PUSH2 0x1F84 JUMPI PUSH2 0x1F84 PUSH2 0x710B JUMP JUMPDEST PUSH0 DUP3 DUP2 MSTORE PUSH1 0x20 SWAP1 KECCAK256 DUP2 ADD PUSH0 NOT SWAP1 DUP2 ADD DUP1 SLOAD PUSH1 0x1 PUSH1 0x1 PUSH1 0xA0 SHL SUB NOT AND SWAP1 SSTORE ADD SWAP1 SSTORE PUSH2 0x1FB1 JUMP JUMPDEST PUSH1 0x1 ADD PUSH2 0x1E69 JUMP JUMPDEST POP PUSH1 0x11 SLOAD PUSH1 0xFF AND ISZERO PUSH2 0x208B JUMPI PUSH1 0x40 DUP1 MLOAD PUSH1 0xA0 DUP2 ADD DUP3 MSTORE PUSH1 0x1 PUSH1 0x1 PUSH1 0xA0 SHL SUB DUP1 DUP9 AND DUP3 MSTORE SWAP3 DUP4 AND PUSH1 0x20 DUP3 ADD SWAP1 DUP2 MSTORE SWAP2 DUP2 ADD DUP7 DUP2 MSTORE PUSH1 0x60 DUP3 ADD DUP7 DUP2 MSTORE PUSH1 0x80 DUP4 ADD DUP7 DUP2 MSTORE PUSH1 0xF DUP1 SLOAD PUSH1 0x1 DUP2 ADD DUP3 SSTORE PUSH0 SWAP2 SWAP1 SWAP2 MSTORE SWAP4 MLOAD PUSH1 0x5 SWAP1 SWAP5 MUL PUSH0 MLOAD PUSH1 0x20 PUSH2 0x76C8 PUSH0 CODECOPY PUSH0 MLOAD SWAP1 PUSH0 MSTORE DUP2 ADD DUP1 SLOAD SWAP6 DUP9 AND PUSH1 0x1 PUSH1 0x1 PUSH1 0xA0 SHL SUB NOT SWAP7 DUP8 AND OR SWAP1 SSTORE SWAP5 MLOAD PUSH0 MLOAD PUSH1 0x20 PUSH2 0x76A8 PUSH0 CODECOPY PUSH0 MLOAD SWAP1 PUSH0 MSTORE DUP7 ADD DUP1 SLOAD SWAP2 SWAP1 SWAP8 AND SWAP5 AND SWAP4 SWAP1 SWAP4 OR SWAP1 SWAP5 SSTORE MLOAD PUSH0 MLOAD PUSH1 0x20 PUSH2 0x7688 PUSH0 CODECOPY PUSH0 MLOAD SWAP1 PUSH0 MSTORE DUP4 ADD SSTORE SWAP2 MLOAD PUSH0 MLOAD PUSH1 0x20 PUSH2 0x7668 PUSH0 CODECOPY PUSH0 MLOAD SWAP1 PUSH0 MSTORE DUP3 ADD SSTORE SWAP1 MLOAD PUSH0 MLOAD PUSH1 0x20 PUSH2 0x7648 PUSH0 CODECOPY PUSH0 MLOAD SWAP1 PUSH0 MSTORE SWAP1 SWAP2 ADD SSTORE PUSH2 0x20A0 JUMP JUMPDEST PUSH2 0x2093 PUSH2 0x49B9 JUMP JUMPDEST PUSH2 0x18E1 DUP6 DUP3 DUP7 DUP7 DUP7 PUSH2 0x4B5A JUMP JUMPDEST POP POP POP POP JUMP JUMPDEST PUSH1 0x1 PUSH1 0x1 PUSH1 0xA0 SHL SUB DUP2 DUP2 AND PUSH0 SWAP1 DUP2 MSTORE PUSH1 0x4 PUSH1 0x20 MSTORE PUSH1 0x40 DUP2 KECCAK256 SLOAD SWAP1 SWAP2 AND ISZERO ISZERO DUP1 PUSH2 0x20E7 JUMPI POP PUSH1 0x1 PUSH1 0x1 PUSH1 0xA0 SHL SUB DUP3 DUP2 AND PUSH0 SWAP1 DUP2 MSTORE PUSH1 0x12 PUSH1 0x20 MSTORE PUSH1 0x40 SWAP1 KECCAK256 SLOAD AND ISZERO ISZERO JUMPDEST DUP1 PUSH2 0x10C3 JUMPI POP POP PUSH1 0x14 SLOAD PUSH1 0x1 PUSH1 0x1 PUSH1 0xA0 SHL SUB SWAP1 DUP2 AND SWAP2 AND EQ SWAP1 JUMP JUMPDEST PUSH1 0x18 SLOAD PUSH1 0x1 PUSH1 0x1 PUSH1 0xA0 SHL SUB AND CALLER EQ PUSH2 0x212C JUMPI PUSH1 0x40 MLOAD PUSH3 0x461BCD PUSH1 0xE5 SHL DUP2 MSTORE PUSH1 0x4 ADD PUSH2 0x733 SWAP1 PUSH2 0x6CC1 JUMP JUMPDEST PUSH1 0x1E DUP1 SLOAD PUSH1 0x1 PUSH1 0x1 PUSH1 0xA0 SHL SUB NOT AND PUSH1 0x1 PUSH1 0x1 PUSH1 0xA0 SHL SUB SWAP3 SWAP1 SWAP3 AND SWAP2 SWAP1 SWAP2 OR SWAP1 SSTORE JUMP JUMPDEST PUSH1 0x60 CALLER ORIGIN EQ PUSH2 0x216F JUMPI PUSH1 0x40 MLOAD PUSH3 0x461BCD PUSH1 0xE5 SHL DUP2 MSTORE PUSH1 0x4 ADD PUSH2 0x733 SWAP1 PUSH2 0x6D5C JUMP JUMPDEST PUSH0 DUP3 GT DUP1 ISZERO PUSH2 0x217F JUMPI POP PUSH1 0x32 DUP3 GT ISZERO JUMPDEST PUSH2 0x21D5 JUMPI PUSH1 0x40 MLOAD PUSH3 0x461BCD PUSH1 0xE5 SHL DUP2 MSTORE PUSH1 0x20 PUSH1 0x4 DUP3 ADD MSTORE PUSH1 0x21 PUSH1 0x24 DUP3 ADD MSTORE PUSH32 0x7061676553697A65206D757374206265206265747765656E203120616E642035 PUSH1 0x44 DUP3 ADD MSTORE PUSH1 0x3 PUSH1 0xFC SHL PUSH1 0x64 DUP3 ADD MSTORE PUSH1 0x84 ADD PUSH2 0x733 JUMP JUMPDEST PUSH1 0x1 PUSH1 0x1 PUSH1 0xA0 SHL SUB DUP5 AND PUSH0 SWAP1 DUP2 MSTORE PUSH1 0x13 PUSH1 0x20 MSTORE PUSH1 0x40 SWAP1 KECCAK256 SLOAD DUP1 DUP5 LT PUSH2 0x2209 JUMPI POP POP PUSH1 0x40 DUP1 MLOAD PUSH0 DUP2 MSTORE PUSH1 0x20 DUP2 ADD SWAP1 SWAP2 MSTORE PUSH2 0x1959 JUMP JUMPDEST PUSH0 PUSH2 0x2214 DUP5 DUP7 PUSH2 0x6DA5 JUMP JUMPDEST SWAP1 POP DUP2 DUP2 GT ISZERO PUSH2 0x2221 JUMPI POP DUP1 JUMPDEST PUSH0 PUSH2 0x222C DUP7 DUP4 PUSH2 0x6DB8 JUMP JUMPDEST PUSH1 0x1 PUSH1 0x1 PUSH1 0x40 SHL SUB DUP2 GT ISZERO PUSH2 0x2243 JUMPI PUSH2 0x2243 PUSH2 0x6662 JUMP JUMPDEST PUSH1 0x40 MLOAD SWAP1 DUP1 DUP3 MSTORE DUP1 PUSH1 0x20 MUL PUSH1 0x20 ADD DUP3 ADD PUSH1 0x40 MSTORE DUP1 ISZERO PUSH2 0x226C JUMPI DUP2 PUSH1 0x20 ADD PUSH1 0x20 DUP3 MUL DUP1 CALLDATASIZE DUP4 CALLDATACOPY ADD SWAP1 POP JUMPDEST POP SWAP1 POP PUSH0 DUP7 JUMPDEST DUP4 DUP2 LT ISZERO PUSH2 0x22FD JUMPI PUSH1 0x1 PUSH1 0x1 PUSH1 0xA0 SHL SUB DUP10 AND PUSH0 SWAP1 DUP2 MSTORE PUSH1 0x13 PUSH1 0x20 MSTORE PUSH1 0x40 SWAP1 KECCAK256 DUP1 SLOAD DUP3 SWAP1 DUP2 LT PUSH2 0x22A3 JUMPI PUSH2 0x22A3 PUSH2 0x6DCB JUMP JUMPDEST SWAP1 PUSH0 MSTORE PUSH1 0x20 PUSH0 KECCAK256 ADD PUSH0 SWAP1 SLOAD SWAP1 PUSH2 0x100 EXP SWAP1 DIV PUSH1 0x1 PUSH1 0x1 PUSH1 0xA0 SHL SUB AND DUP4 DUP4 DUP2 MLOAD DUP2 LT PUSH2 0x22D0 JUMPI PUSH2 0x22D0 PUSH2 0x6DCB JUMP JUMPDEST PUSH1 0x1 PUSH1 0x1 PUSH1 0xA0 SHL SUB SWAP1 SWAP3 AND PUSH1 0x20 SWAP3 DUP4 MUL SWAP2 SWAP1 SWAP2 ADD SWAP1 SWAP2 ADD MSTORE DUP2 PUSH2 0x22F2 DUP2 PUSH2 0x6E0C JUMP JUMPDEST SWAP3 POP POP PUSH1 0x1 ADD PUSH2 0x2272 JUMP JUMPDEST POP SWAP1 SWAP8 SWAP7 POP POP POP POP POP POP POP JUMP JUMPDEST PUSH1 0x18 SLOAD PUSH1 0x1 PUSH1 0x1 PUSH1 0xA0 SHL SUB AND CALLER EQ PUSH2 0x2334 JUMPI PUSH1 0x40 MLOAD PUSH3 0x461BCD PUSH1 0xE5 SHL DUP2 MSTORE PUSH1 0x4 ADD PUSH2 0x733 SWAP1 PUSH2 0x6CC1 JUMP JUMPDEST PUSH1 0x11 SLOAD PUSH1 0xFF AND ISZERO PUSH2 0x2385 JUMPI PUSH1 0x40 MLOAD PUSH3 0x461BCD PUSH1 0xE5 SHL DUP2 MSTORE PUSH1 0x20 PUSH1 0x4 DUP3 ADD MSTORE PUSH1 0x1B PUSH1 0x24 DUP3 ADD MSTORE PUSH27 0x42617463682070726F63657373696E672069732072756E6E696E67 PUSH1 0x28 SHL PUSH1 0x44 DUP3 ADD MSTORE PUSH1 0x64 ADD PUSH2 0x733 JUMP JUMPDEST PUSH1 0x11 DUP1 SLOAD SWAP2 ISZERO ISZERO PUSH2 0x100 MUL PUSH2 0xFF00 NOT SWAP1 SWAP3 AND SWAP2 SWAP1 SWAP2 OR SWAP1 SSTORE JUMP JUMPDEST CALLER ORIGIN EQ PUSH2 0x23BE JUMPI PUSH1 0x40 MLOAD PUSH3 0x461BCD PUSH1 0xE5 SHL DUP2 MSTORE PUSH1 0x4 ADD PUSH2 0x733 SWAP1 PUSH2 0x6D5C JUMP JUMPDEST PUSH1 0x11 SLOAD PUSH2 0x100 SWAP1 DIV PUSH1 0xFF AND ISZERO PUSH2 0x23E6 JUMPI PUSH1 0x40 MLOAD PUSH3 0x461BCD PUSH1 0xE5 SHL DUP2 MSTORE PUSH1 0x4 ADD PUSH2 0x733 SWAP1 PUSH2 0x6E24 JUMP JUMPDEST PUSH1 0x1 PUSH1 0x1 PUSH1 0xA0 SHL SUB DUP3 DUP2 AND PUSH0 SWAP1 DUP2 MSTORE PUSH1 0x12 PUSH1 0x20 MSTORE PUSH1 0x40 SWAP1 KECCAK256 SLOAD AND PUSH2 0x24A6 JUMPI PUSH1 0x1 PUSH1 0x1 PUSH1 0xA0 SHL SUB DUP3 DUP2 AND PUSH0 SWAP1 DUP2 MSTORE PUSH1 0x4 PUSH1 0x20 MSTORE PUSH1 0x40 SWAP1 KECCAK256 SLOAD AND PUSH2 0x243A JUMPI PUSH1 0x40 MLOAD PUSH3 0x461BCD PUSH1 0xE5 SHL DUP2 MSTORE PUSH1 0x4 ADD PUSH2 0x733 SWAP1 PUSH2 0x70AA JUMP JUMPDEST PUSH1 0x1 PUSH1 0x1 PUSH1 0xA0 SHL SUB DUP3 AND PUSH0 SWAP1 DUP2 MSTORE PUSH1 0x5 PUSH1 0x20 MSTORE PUSH1 0x40 SWAP1 KECCAK256 SLOAD TIMESTAMP GT ISZERO PUSH2 0x24A1 JUMPI PUSH1 0x40 MLOAD PUSH3 0x461BCD PUSH1 0xE5 SHL DUP2 MSTORE PUSH1 0x20 PUSH1 0x4 DUP3 ADD DUP2 SWAP1 MSTORE PUSH1 0x24 DUP3 ADD MSTORE PUSH32 0x4D656D6265727368697020657870697265642C2063616E6E6F742072656E6577 PUSH1 0x44 DUP3 ADD MSTORE PUSH1 0x64 ADD PUSH2 0x733 JUMP JUMPDEST PUSH2 0x2504 JUMP JUMPDEST PUSH1 0x1 PUSH1 0x1 PUSH1 0xA0 SHL SUB DUP3 DUP2 AND PUSH0 SWAP1 DUP2 MSTORE PUSH1 0x4 PUSH1 0x20 MSTORE PUSH1 0x40 SWAP1 KECCAK256 SLOAD AND ISZERO PUSH2 0x2504 JUMPI PUSH1 0x40 MLOAD PUSH3 0x461BCD PUSH1 0xE5 SHL DUP2 MSTORE PUSH1 0x20 PUSH1 0x4 DUP3 ADD MSTORE PUSH1 0x14 PUSH1 0x24 DUP3 ADD MSTORE PUSH20 0x557365722077726F6E6720737472756374757265 PUSH1 0x60 SHL PUSH1 0x44 DUP3 ADD MSTORE PUSH1 0x64 ADD PUSH2 0x733 JUMP JUMPDEST PUSH1 0x17 SLOAD PUSH2 0x251F SWAP1 PUSH1 0x1 PUSH1 0x1 PUSH1 0xA0 SHL SUB AND DUP3 PUSH4 0x7270E00 PUSH2 0x4122 JUMP JUMPDEST PUSH1 0x1 PUSH1 0x1 PUSH1 0xA0 SHL SUB DUP3 AND PUSH0 SWAP1 DUP2 MSTORE PUSH1 0x5 PUSH1 0x20 MSTORE PUSH1 0x40 DUP2 KECCAK256 DUP1 SLOAD PUSH4 0x1E13380 SWAP3 SWAP1 PUSH2 0x254A SWAP1 DUP5 SWAP1 PUSH2 0x6DA5 JUMP JUMPDEST SWAP1 SWAP2 SSTORE POP PUSH2 0x255C SWAP1 POP DUP3 PUSH1 0x64 DUP4 PUSH2 0x433E JUMP JUMPDEST PUSH1 0x1B SLOAD PUSH1 0x16 SLOAD PUSH1 0x1 PUSH1 0x1 PUSH1 0xA0 SHL SUB SWAP2 DUP3 AND SWAP2 PUSH4 0xE115DC7F SWAP2 AND DUP4 PUSH1 0x64 PUSH2 0x2589 PUSH3 0xF4240 PUSH4 0x7270E00 PUSH2 0x6F6F JUMP JUMPDEST PUSH2 0x2593 SWAP2 SWAP1 PUSH2 0x6DB8 JUMP JUMPDEST PUSH1 0x1 PUSH1 0x2 PUSH1 0x40 MLOAD DUP7 PUSH4 0xFFFFFFFF AND PUSH1 0xE0 SHL DUP2 MSTORE PUSH1 0x4 ADD PUSH2 0x25B7 SWAP6 SWAP5 SWAP4 SWAP3 SWAP2 SWAP1 PUSH2 0x6F82 JUMP JUMPDEST PUSH0 PUSH1 0x40 MLOAD DUP1 DUP4 SUB DUP2 PUSH0 DUP8 DUP1 EXTCODESIZE ISZERO DUP1 ISZERO PUSH2 0x25CE JUMPI PUSH0 PUSH0 REVERT JUMPDEST POP GAS CALL ISZERO DUP1 ISZERO PUSH2 0x18DF JUMPI RETURNDATASIZE PUSH0 PUSH0 RETURNDATACOPY RETURNDATASIZE PUSH0 REVERT JUMPDEST PUSH1 0x18 SLOAD PUSH1 0x1 PUSH1 0x1 PUSH1 0xA0 SHL SUB AND CALLER EQ PUSH2 0x260A JUMPI PUSH1 0x40 MLOAD PUSH3 0x461BCD PUSH1 0xE5 SHL DUP2 MSTORE PUSH1 0x4 ADD PUSH2 0x733 SWAP1 PUSH2 0x6CC1 JUMP JUMPDEST PUSH1 0x3 SLOAD DUP3 LT PUSH2 0x262B JUMPI PUSH1 0x40 MLOAD PUSH3 0x461BCD PUSH1 0xE5 SHL DUP2 MSTORE PUSH1 0x4 ADD PUSH2 0x733 SWAP1 PUSH2 0x6DDF JUMP JUMPDEST PUSH2 0x2636 PUSH1 0x2 PUSH0 PUSH2 0x64F6 JUMP JUMPDEST PUSH1 0x3 SLOAD PUSH0 SWAP1 PUSH2 0x2645 DUP4 DUP6 PUSH2 0x6DA5 JUMP JUMPDEST GT PUSH2 0x2659 JUMPI PUSH2 0x2654 DUP3 DUP5 PUSH2 0x6DA5 JUMP JUMPDEST PUSH2 0x265D JUMP JUMPDEST PUSH1 0x3 SLOAD JUMPDEST SWAP1 POP DUP3 JUMPDEST DUP2 DUP2 LT ISZERO PUSH2 0x277E JUMPI PUSH0 PUSH1 0x3 DUP3 DUP2 SLOAD DUP2 LT PUSH2 0x267D JUMPI PUSH2 0x267D PUSH2 0x6DCB JUMP JUMPDEST PUSH0 SWAP2 DUP3 MSTORE PUSH1 0x20 DUP1 DUP4 KECCAK256 SWAP1 SWAP2 ADD SLOAD PUSH1 0x1 PUSH1 0x1 PUSH1 0xA0 SHL SUB AND DUP1 DUP4 MSTORE PUSH1 0x7 SWAP1 SWAP2 MSTORE PUSH1 0x40 DUP3 KECCAK256 SLOAD SWAP1 SWAP3 POP PUSH1 0x1 GT ISZERO DUP1 PUSH2 0x26CB JUMPI POP PUSH1 0x1 PUSH1 0x1 PUSH1 0xA0 SHL SUB DUP3 AND PUSH0 SWAP1 DUP2 MSTORE PUSH1 0xA PUSH1 0x20 DUP2 SWAP1 MSTORE PUSH1 0x40 SWAP1 SWAP2 KECCAK256 SLOAD LT ISZERO JUMPDEST DUP1 PUSH2 0x26EE JUMPI POP PUSH1 0x1 PUSH1 0x1 PUSH1 0xA0 SHL SUB DUP3 AND PUSH0 SWAP1 DUP2 MSTORE PUSH1 0x8 PUSH1 0x20 MSTORE PUSH1 0x40 SWAP1 KECCAK256 SLOAD PUSH1 0x64 GT ISZERO JUMPDEST ISZERO PUSH2 0x26F7 JUMPI POP PUSH1 0x1 JUMPDEST DUP1 PUSH2 0x273A JUMPI PUSH1 0x1 PUSH1 0x1 PUSH1 0xA0 SHL SUB DUP3 AND PUSH0 SWAP1 DUP2 MSTORE PUSH1 0x4 PUSH1 0x20 MSTORE PUSH1 0x40 DUP2 KECCAK256 PUSH1 0x2 ADD DUP1 SLOAD PUSH2 0xFF00 NOT AND PUSH2 0x100 DUP4 MUL OR SWAP1 SSTORE POP PUSH2 0x2735 PUSH1 0x4 PUSH1 0x5 PUSH1 0x2 DUP6 PUSH2 0x5249 JUMP JUMPDEST PUSH2 0x2747 JUMP JUMPDEST PUSH2 0x2747 PUSH1 0x4 PUSH1 0xC DUP5 PUSH2 0x40A1 JUMP JUMPDEST POP PUSH1 0x1 PUSH1 0x1 PUSH1 0xA0 SHL SUB AND PUSH0 SWAP1 DUP2 MSTORE PUSH1 0x7 PUSH1 0x20 SWAP1 DUP2 MSTORE PUSH1 0x40 DUP1 DUP4 KECCAK256 DUP4 SWAP1 SSTORE PUSH1 0xA DUP3 MSTORE DUP1 DUP4 KECCAK256 DUP4 SWAP1 SSTORE PUSH1 0x8 SWAP1 SWAP2 MSTORE DUP2 KECCAK256 SSTORE PUSH1 0x1 ADD PUSH2 0x2661 JUMP JUMPDEST POP PUSH0 JUMPDEST PUSH1 0x21 SLOAD DUP2 LT ISZERO PUSH2 0x27CB JUMPI PUSH1 0x20 PUSH0 PUSH1 0x21 DUP4 DUP2 SLOAD DUP2 LT PUSH2 0x27A1 JUMPI PUSH2 0x27A1 PUSH2 0x6DCB JUMP JUMPDEST PUSH0 SWAP2 DUP3 MSTORE PUSH1 0x20 DUP1 DUP4 KECCAK256 SWAP1 SWAP2 ADD SLOAD DUP4 MSTORE DUP3 ADD SWAP3 SWAP1 SWAP3 MSTORE PUSH1 0x40 ADD SWAP1 KECCAK256 DUP1 SLOAD PUSH1 0xFF NOT AND SWAP1 SSTORE PUSH1 0x1 ADD PUSH2 0x2781 JUMP JUMPDEST POP PUSH2 0x82E PUSH1 0x21 PUSH0 PUSH2 0x64F6 JUMP JUMPDEST PUSH2 0x281D PUSH1 0x40 MLOAD DUP1 PUSH2 0x120 ADD PUSH1 0x40 MSTORE DUP1 PUSH0 DUP2 MSTORE PUSH1 0x20 ADD PUSH0 DUP2 MSTORE PUSH1 0x20 ADD PUSH0 DUP2 MSTORE PUSH1 0x20 ADD PUSH0 DUP2 MSTORE PUSH1 0x20 ADD PUSH0 DUP2 MSTORE PUSH1 0x20 ADD PUSH0 DUP2 MSTORE PUSH1 0x20 ADD PUSH0 DUP2 MSTORE PUSH1 0x20 ADD PUSH0 DUP2 MSTORE PUSH1 0x20 ADD PUSH0 DUP2 MSTORE POP SWAP1 JUMP JUMPDEST PUSH1 0x1B SLOAD PUSH1 0x40 MLOAD PUSH4 0x316F085F PUSH1 0xE0 SHL DUP2 MSTORE PUSH1 0x1 PUSH1 0x1 PUSH1 0xA0 SHL SUB SWAP1 SWAP2 AND SWAP1 PUSH4 0x316F085F SWAP1 PUSH2 0x2851 SWAP1 DUP8 SWAP1 DUP8 SWAP1 DUP8 SWAP1 PUSH1 0x4 ADD PUSH2 0x6FB5 JUMP JUMPDEST PUSH2 0x120 PUSH1 0x40 MLOAD DUP1 DUP4 SUB DUP2 DUP7 GAS STATICCALL ISZERO DUP1 ISZERO PUSH2 0x286D JUMPI RETURNDATASIZE PUSH0 PUSH0 RETURNDATACOPY RETURNDATASIZE PUSH0 REVERT JUMPDEST POP POP POP POP PUSH1 0x40 MLOAD RETURNDATASIZE PUSH1 0x1F NOT PUSH1 0x1F DUP3 ADD AND DUP3 ADD DUP1 PUSH1 0x40 MSTORE POP DUP2 ADD SWAP1 PUSH2 0x1543 SWAP2 SWAP1 PUSH2 0x711F JUMP JUMPDEST CALLER ORIGIN EQ PUSH2 0x28B0 JUMPI PUSH1 0x40 MLOAD PUSH3 0x461BCD PUSH1 0xE5 SHL DUP2 MSTORE PUSH1 0x4 ADD PUSH2 0x733 SWAP1 PUSH2 0x6D5C JUMP JUMPDEST PUSH1 0x11 SLOAD PUSH2 0x100 SWAP1 DIV PUSH1 0xFF AND ISZERO PUSH2 0x28D8 JUMPI PUSH1 0x40 MLOAD PUSH3 0x461BCD PUSH1 0xE5 SHL DUP2 MSTORE PUSH1 0x4 ADD PUSH2 0x733 SWAP1 PUSH2 0x6E24 JUMP JUMPDEST DUP2 PUSH2 0x28F5 JUMPI PUSH1 0x40 MLOAD PUSH3 0x461BCD PUSH1 0xE5 SHL DUP2 MSTORE PUSH1 0x4 ADD PUSH2 0x733 SWAP1 PUSH2 0x7198 JUMP JUMPDEST PUSH1 0x1E SLOAD PUSH1 0x40 MLOAD PUSH4 0x7D847097 PUSH1 0xE1 SHL DUP2 MSTORE PUSH1 0x4 DUP2 ADD DUP5 SWAP1 MSTORE PUSH1 0x1 PUSH1 0x1 PUSH1 0xA0 SHL SUB SWAP1 SWAP2 AND SWAP1 PUSH0 SWAP1 DUP3 SWAP1 PUSH4 0xFB08E12E SWAP1 PUSH1 0x24 ADD PUSH1 0x20 PUSH1 0x40 MLOAD DUP1 DUP4 SUB DUP2 DUP7 GAS STATICCALL ISZERO DUP1 ISZERO PUSH2 0x2940 JUMPI RETURNDATASIZE PUSH0 PUSH0 RETURNDATACOPY RETURNDATASIZE PUSH0 REVERT JUMPDEST POP POP POP POP PUSH1 0x40 MLOAD RETURNDATASIZE PUSH1 0x1F NOT PUSH1 0x1F DUP3 ADD AND DUP3 ADD DUP1 PUSH1 0x40 MSTORE POP DUP2 ADD SWAP1 PUSH2 0x2964 SWAP2 SWAP1 PUSH2 0x71C2 JUMP JUMPDEST SWAP1 POP DUP1 PUSH0 SUB PUSH2 0x2985 JUMPI PUSH1 0x40 MLOAD PUSH3 0x461BCD PUSH1 0xE5 SHL DUP2 MSTORE PUSH1 0x4 ADD PUSH2 0x733 SWAP1 PUSH2 0x71D9 JUMP JUMPDEST PUSH1 0x40 MLOAD PUSH4 0xD09EF241 PUSH1 0xE0 SHL DUP2 MSTORE PUSH1 0x4 DUP2 ADD DUP3 SWAP1 MSTORE PUSH0 SWAP1 PUSH1 0x1 PUSH1 0x1 PUSH1 0xA0 SHL SUB DUP5 AND SWAP1 PUSH4 0xD09EF241 SWAP1 PUSH1 0x24 ADD PUSH0 PUSH1 0x40 MLOAD DUP1 DUP4 SUB DUP2 DUP7 GAS STATICCALL ISZERO DUP1 ISZERO PUSH2 0x29C9 JUMPI RETURNDATASIZE PUSH0 PUSH0 RETURNDATACOPY RETURNDATASIZE PUSH0 REVERT JUMPDEST POP POP POP POP PUSH1 0x40 MLOAD RETURNDATASIZE PUSH0 DUP3 RETURNDATACOPY PUSH1 0x1F RETURNDATASIZE SWAP1 DUP2 ADD PUSH1 0x1F NOT AND DUP3 ADD PUSH1 0x40 MSTORE PUSH2 0x29F0 SWAP2 SWAP1 DUP2 ADD SWAP1 PUSH2 0x7268 JUMP JUMPDEST PUSH2 0x160 DUP2 ADD MLOAD SWAP1 SWAP2 POP PUSH0 DUP1 DUP1 JUMPDEST DUP5 PUSH2 0x140 ADD MLOAD MLOAD DUP2 PUSH1 0xFF AND LT ISZERO PUSH2 0x2ADC JUMPI PUSH0 DUP6 PUSH2 0x140 ADD MLOAD DUP3 PUSH1 0xFF AND DUP2 MLOAD DUP2 LT PUSH2 0x2A29 JUMPI PUSH2 0x2A29 PUSH2 0x6DCB JUMP JUMPDEST PUSH1 0x20 MUL PUSH1 0x20 ADD ADD MLOAD GT PUSH2 0x2A6C JUMPI PUSH1 0x40 MLOAD PUSH3 0x461BCD PUSH1 0xE5 SHL DUP2 MSTORE PUSH1 0x20 PUSH1 0x4 DUP3 ADD MSTORE PUSH1 0xB PUSH1 0x24 DUP3 ADD MSTORE PUSH11 0x1C995DD85C990819985A5B PUSH1 0xAA SHL PUSH1 0x44 DUP3 ADD MSTORE PUSH1 0x64 ADD PUSH2 0x733 JUMP JUMPDEST DUP5 PUSH2 0x140 ADD MLOAD DUP2 PUSH1 0xFF AND DUP2 MLOAD DUP2 LT PUSH2 0x2A86 JUMPI PUSH2 0x2A86 PUSH2 0x6DCB JUMP JUMPDEST PUSH1 0x20 MUL PUSH1 0x20 ADD ADD MLOAD DUP3 PUSH2 0x2A99 SWAP2 SWAP1 PUSH2 0x6DA5 JUMP JUMPDEST SWAP2 POP DUP5 PUSH2 0x100 ADD MLOAD DUP2 PUSH1 0xFF AND DUP2 MLOAD DUP2 LT PUSH2 0x2AB5 JUMPI PUSH2 0x2AB5 PUSH2 0x6DCB JUMP JUMPDEST PUSH1 0x20 MUL PUSH1 0x20 ADD ADD MLOAD DUP4 PUSH2 0x2AC8 SWAP2 SWAP1 PUSH2 0x6DA5 JUMP JUMPDEST SWAP3 POP DUP1 PUSH2 0x2AD4 DUP2 PUSH2 0x747D JUMP JUMPDEST SWAP2 POP POP PUSH2 0x29FD JUMP JUMPDEST POP PUSH1 0x20 DUP5 ADD MLOAD PUSH1 0x40 DUP6 ADD MLOAD PUSH1 0x1 PUSH1 0x1 PUSH1 0xA0 SHL SUB DUP1 DUP4 AND SWAP2 AND EQ DUP3 PUSH2 0x2B03 PUSH3 0xF4240 DUP8 PUSH2 0x6F6F JUMP JUMPDEST GT PUSH2 0x2B43 JUMPI PUSH1 0x40 MLOAD PUSH3 0x461BCD PUSH1 0xE5 SHL DUP2 MSTORE PUSH1 0x20 PUSH1 0x4 DUP3 ADD MSTORE PUSH1 0x10 PUSH1 0x24 DUP3 ADD MSTORE PUSH16 0x2BB937B7339031B7B6B6B4B9B9B4B7B7 PUSH1 0x81 SHL PUSH1 0x44 DUP3 ADD MSTORE PUSH1 0x64 ADD PUSH2 0x733 JUMP JUMPDEST PUSH1 0x1 PUSH1 0x1 PUSH1 0xA0 SHL SUB DUP3 AND PUSH2 0x2B69 JUMPI PUSH1 0x40 MLOAD PUSH3 0x461BCD PUSH1 0xE5 SHL DUP2 MSTORE PUSH1 0x4 ADD PUSH2 0x733 SWAP1 PUSH2 0x749B JUMP JUMPDEST PUSH0 DUP6 GT PUSH2 0x2B88 JUMPI PUSH1 0x40 MLOAD PUSH3 0x461BCD PUSH1 0xE5 SHL DUP2 MSTORE PUSH1 0x4 ADD PUSH2 0x733 SWAP1 PUSH2 0x749B JUMP JUMPDEST CALLER DUP2 ISZERO PUSH2 0x2C29 JUMPI PUSH1 0x1 PUSH1 0x1 PUSH1 0xA0 SHL SUB DUP2 DUP2 AND PUSH0 SWAP1 DUP2 MSTORE PUSH1 0x4 PUSH1 0x20 MSTORE PUSH1 0x40 SWAP1 KECCAK256 SLOAD AND ISZERO ISZERO DUP1 PUSH2 0x2BCE JUMPI POP PUSH1 0x1 PUSH1 0x1 PUSH1 0xA0 SHL SUB DUP2 DUP2 AND PUSH0 SWAP1 DUP2 MSTORE PUSH1 0x12 PUSH1 0x20 MSTORE PUSH1 0x40 SWAP1 KECCAK256 SLOAD AND ISZERO ISZERO JUMPDEST PUSH2 0x2C29 JUMPI PUSH1 0x40 MLOAD PUSH3 0x461BCD PUSH1 0xE5 SHL DUP2 MSTORE PUSH1 0x20 PUSH1 0x4 DUP3 ADD MSTORE PUSH1 0x26 PUSH1 0x24 DUP3 ADD MSTORE PUSH32 0x5573657220616C72656164792065786973747320696E20564950206F72205072 PUSH1 0x44 DUP3 ADD MSTORE PUSH6 0x37B6B7BA32B9 PUSH1 0xD1 SHL PUSH1 0x64 DUP3 ADD MSTORE PUSH1 0x84 ADD PUSH2 0x733 JUMP JUMPDEST PUSH1 0x1 PUSH1 0x1 PUSH1 0xA0 SHL SUB DUP2 DUP2 AND PUSH0 SWAP1 DUP2 MSTORE PUSH1 0x4 PUSH1 0x20 MSTORE PUSH1 0x40 SWAP1 KECCAK256 SLOAD AND PUSH2 0x2CAC JUMPI POP PUSH1 0x1 PUSH1 0x1 PUSH1 0xA0 SHL SUB DUP1 DUP4 AND PUSH0 SWAP1 DUP2 MSTORE PUSH1 0x4 PUSH1 0x20 MSTORE PUSH1 0x40 SWAP1 KECCAK256 SLOAD DUP4 SWAP2 AND PUSH2 0x2CA7 JUMPI PUSH1 0x40 MLOAD PUSH3 0x461BCD PUSH1 0xE5 SHL DUP2 MSTORE PUSH1 0x20 PUSH1 0x4 DUP3 ADD MSTORE PUSH1 0x14 PUSH1 0x24 DUP3 ADD MSTORE PUSH20 0x506172656E74206973206E6F7420657869737473 PUSH1 0x60 SHL PUSH1 0x44 DUP3 ADD MSTORE PUSH1 0x64 ADD PUSH2 0x733 JUMP JUMPDEST PUSH2 0x2D82 JUMP JUMPDEST PUSH1 0x1 PUSH1 0x1 PUSH1 0x1 PUSH1 0xA0 SHL SUB DUP3 AND PUSH0 SWAP1 DUP2 MSTORE PUSH1 0x4 PUSH1 0x20 MSTORE PUSH1 0x40 SWAP1 KECCAK256 PUSH1 0x2 ADD SLOAD PUSH2 0x100 SWAP1 DIV PUSH1 0xFF AND PUSH1 0x3 DUP2 GT ISZERO PUSH2 0x2CE2 JUMPI PUSH2 0x2CE2 PUSH2 0x6888 JUMP JUMPDEST EQ PUSH2 0x2D24 JUMPI PUSH1 0x40 MLOAD PUSH3 0x461BCD PUSH1 0xE5 SHL DUP2 MSTORE PUSH1 0x20 PUSH1 0x4 DUP3 ADD MSTORE PUSH1 0x12 PUSH1 0x24 DUP3 ADD MSTORE PUSH18 0x55736572206973206E6F7420616374697665 PUSH1 0x70 SHL PUSH1 0x44 DUP3 ADD MSTORE PUSH1 0x64 ADD PUSH2 0x733 JUMP JUMPDEST PUSH1 0x1 PUSH1 0x1 PUSH1 0xA0 SHL SUB DUP2 DUP2 AND PUSH0 SWAP1 DUP2 MSTORE PUSH1 0x4 PUSH1 0x20 MSTORE PUSH1 0x40 SWAP1 KECCAK256 SLOAD DUP2 AND SWAP1 DUP5 AND EQ PUSH2 0x2D82 JUMPI PUSH1 0x40 MLOAD PUSH3 0x461BCD PUSH1 0xE5 SHL DUP2 MSTORE PUSH1 0x20 PUSH1 0x4 DUP3 ADD MSTORE PUSH1 0x10 PUSH1 0x24 DUP3 ADD MSTORE PUSH16 0xA0C2E4CADCE840DCDEE840DAC2E8C6D PUSH1 0x83 SHL PUSH1 0x44 DUP3 ADD MSTORE PUSH1 0x64 ADD PUSH2 0x733 JUMP JUMPDEST PUSH1 0x17 SLOAD PUSH2 0x2D99 SWAP1 PUSH1 0x1 PUSH1 0x1 PUSH1 0xA0 SHL SUB AND DUP12 DUP9 PUSH2 0x4122 JUMP JUMPDEST PUSH1 0x40 MLOAD PUSH4 0x7C4A0CB7 PUSH1 0xE1 SHL DUP2 MSTORE PUSH1 0x4 DUP2 ADD DUP13 SWAP1 MSTORE PUSH1 0x1 PUSH1 0x1 PUSH1 0xA0 SHL SUB DUP11 AND SWAP1 PUSH4 0xF894196E SWAP1 PUSH1 0x24 ADD PUSH0 PUSH1 0x40 MLOAD DUP1 DUP4 SUB DUP2 PUSH0 DUP8 DUP1 EXTCODESIZE ISZERO DUP1 ISZERO PUSH2 0x2DD8 JUMPI PUSH0 PUSH0 REVERT JUMPDEST POP GAS CALL ISZERO DUP1 ISZERO PUSH2 0x2DEA JUMPI RETURNDATASIZE PUSH0 PUSH0 RETURNDATACOPY RETURNDATASIZE PUSH0 REVERT JUMPDEST POP POP POP POP PUSH1 0x40 MLOAD DUP1 PUSH1 0x80 ADD PUSH1 0x40 MSTORE DUP1 DUP6 DUP2 MSTORE PUSH1 0x20 ADD DUP7 DUP2 MSTORE PUSH1 0x20 ADD DUP3 PUSH1 0x1 PUSH1 0x1 PUSH1 0xA0 SHL SUB AND DUP2 MSTORE PUSH1 0x20 ADD DUP12 DUP2 MSTORE POP PUSH1 0x22 PUSH0 DUP14 DUP2 MSTORE PUSH1 0x20 ADD SWAP1 DUP2 MSTORE PUSH1 0x20 ADD PUSH0 KECCAK256 PUSH0 DUP3 ADD MLOAD DUP2 PUSH0 ADD SSTORE PUSH1 0x20 DUP3 ADD MLOAD DUP2 PUSH1 0x1 ADD SSTORE PUSH1 0x40 DUP3 ADD MLOAD DUP2 PUSH1 0x2 ADD PUSH0 PUSH2 0x100 EXP DUP2 SLOAD DUP2 PUSH1 0x1 PUSH1 0x1 PUSH1 0xA0 SHL SUB MUL NOT AND SWAP1 DUP4 PUSH1 0x1 PUSH1 0x1 PUSH1 0xA0 SHL SUB AND MUL OR SWAP1 SSTORE POP PUSH1 0x60 DUP3 ADD MLOAD DUP2 PUSH1 0x3 ADD SSTORE SWAP1 POP POP POP POP POP POP POP POP POP POP POP POP POP JUMP JUMPDEST PUSH1 0x18 SLOAD PUSH1 0x1 PUSH1 0x1 PUSH1 0xA0 SHL SUB AND CALLER EQ PUSH2 0x2EAB JUMPI PUSH1 0x40 MLOAD PUSH3 0x461BCD PUSH1 0xE5 SHL DUP2 MSTORE PUSH1 0x4 ADD PUSH2 0x733 SWAP1 PUSH2 0x6CC1 JUMP JUMPDEST PUSH1 0x11 SLOAD PUSH2 0x100 SWAP1 DIV PUSH1 0xFF AND ISZERO PUSH2 0x2ED3 JUMPI PUSH1 0x40 MLOAD PUSH3 0x461BCD PUSH1 0xE5 SHL DUP2 MSTORE PUSH1 0x4 ADD PUSH2 0x733 SWAP1 PUSH2 0x6E24 JUMP JUMPDEST PUSH1 0x11 SLOAD PUSH1 0xFF AND ISZERO PUSH2 0x2F1B JUMPI PUSH1 0x40 MLOAD PUSH3 0x461BCD PUSH1 0xE5 SHL DUP2 MSTORE PUSH1 0x20 PUSH1 0x4 DUP3 ADD MSTORE PUSH1 0x12 PUSH1 0x24 DUP3 ADD MSTORE PUSH18 0x416C72656164792070726F63657373696E67 PUSH1 0x70 SHL PUSH1 0x44 DUP3 ADD MSTORE PUSH1 0x64 ADD PUSH2 0x733 JUMP JUMPDEST PUSH1 0x11 DUP1 SLOAD PUSH1 0xFF NOT AND PUSH1 0x1 OR SWAP1 SSTORE PUSH2 0x2F30 PUSH2 0x545E JUMP JUMPDEST PUSH1 0x1E PUSH0 JUMPDEST PUSH1 0xE SLOAD DUP2 LT ISZERO PUSH2 0x2F5F JUMPI PUSH0 PUSH2 0x2F49 DUP3 DUP5 PUSH2 0xC6C JUMP JUMPDEST SWAP1 POP DUP1 PUSH0 SUB PUSH2 0x2F58 JUMPI POP PUSH2 0x2F5F JUMP JUMPDEST SWAP1 POP PUSH2 0x2F34 JUMP JUMPDEST PUSH1 0x11 DUP1 SLOAD PUSH1 0xFF NOT AND SWAP1 SSTORE PUSH2 0x1AD7 PUSH2 0x49B9 JUMP JUMPDEST PUSH2 0x2F79 PUSH2 0x64A7 JUMP JUMPDEST PUSH2 0x2F81 PUSH2 0x64CC JUMP JUMPDEST CALLER ORIGIN EQ PUSH2 0x2FA0 JUMPI PUSH1 0x40 MLOAD PUSH3 0x461BCD PUSH1 0xE5 SHL DUP2 MSTORE PUSH1 0x4 ADD PUSH2 0x733 SWAP1 PUSH2 0x6D5C JUMP JUMPDEST CALLER PUSH0 DUP2 DUP2 MSTORE PUSH1 0x4 PUSH1 0x20 MSTORE PUSH1 0x40 SWAP1 KECCAK256 SLOAD PUSH1 0x1 PUSH1 0x1 PUSH1 0xA0 SHL SUB AND PUSH2 0x2FD4 JUMPI PUSH1 0x40 MLOAD PUSH3 0x461BCD PUSH1 0xE5 SHL DUP2 MSTORE PUSH1 0x4 ADD PUSH2 0x733 SWAP1 PUSH2 0x70AA JUMP JUMPDEST PUSH1 0x1 PUSH1 0x1 PUSH1 0xA0 SHL SUB DUP1 DUP3 AND PUSH0 SWAP1 DUP2 MSTORE PUSH1 0x4 PUSH1 0x20 SWAP1 DUP2 MSTORE PUSH1 0x40 SWAP2 DUP3 SWAP1 KECCAK256 DUP3 MLOAD PUSH1 0x80 DUP2 ADD DUP5 MSTORE DUP2 SLOAD SWAP1 SWAP5 AND DUP5 MSTORE PUSH1 0x1 DUP2 ADD DUP1 SLOAD DUP5 MLOAD DUP2 DUP6 MUL DUP2 ADD DUP6 ADD SWAP1 SWAP6 MSTORE DUP1 DUP6 MSTORE SWAP2 SWAP4 DUP6 DUP5 ADD SWAP4 SWAP1 SWAP3 SWAP1 DUP4 ADD DUP3 DUP3 DUP1 ISZERO PUSH2 0x3054 JUMPI PUSH1 0x20 MUL DUP3 ADD SWAP2 SWAP1 PUSH0 MSTORE PUSH1 0x20 PUSH0 KECCAK256 SWAP1 JUMPDEST DUP2 SLOAD PUSH1 0x1 PUSH1 0x1 PUSH1 0xA0 SHL SUB AND DUP2 MSTORE PUSH1 0x1 SWAP1 SWAP2 ADD SWAP1 PUSH1 0x20 ADD DUP1 DUP4 GT PUSH2 0x3036 JUMPI JUMPDEST POP POP POP SWAP2 DUP4 MSTORE POP POP PUSH1 0x2 DUP3 ADD SLOAD PUSH1 0x20 SWAP1 SWAP2 ADD SWAP1 PUSH1 0xFF AND PUSH1 0x7 DUP2 GT ISZERO PUSH2 0x307B JUMPI PUSH2 0x307B PUSH2 0x6888 JUMP JUMPDEST PUSH1 0x7 DUP2 GT ISZERO PUSH2 0x308C JUMPI PUSH2 0x308C PUSH2 0x6888 JUMP JUMPDEST DUP2 MSTORE PUSH1 0x20 ADD PUSH1 0x2 DUP3 ADD PUSH1 0x1 SWAP1 SLOAD SWAP1 PUSH2 0x100 EXP SWAP1 DIV PUSH1 0xFF AND PUSH1 0x3 DUP2 GT ISZERO PUSH2 0x30B4 JUMPI PUSH2 0x30B4 PUSH2 0x6888 JUMP JUMPDEST PUSH1 0x3 DUP2 GT ISZERO PUSH2 0x30C5 JUMPI PUSH2 0x30C5 PUSH2 0x6888 JUMP JUMPDEST DUP2 MSTORE POP POP SWAP3 POP PUSH1 0x5 PUSH0 DUP3 PUSH1 0x1 PUSH1 0x1 PUSH1 0xA0 SHL SUB AND PUSH1 0x1 PUSH1 0x1 PUSH1 0xA0 SHL SUB AND DUP2 MSTORE PUSH1 0x20 ADD SWAP1 DUP2 MSTORE PUSH1 0x20 ADD PUSH0 KECCAK256 PUSH1 0x40 MLOAD DUP1 PUSH1 0xA0 ADD PUSH1 0x40 MSTORE SWAP1 DUP2 PUSH0 DUP3 ADD SLOAD DUP2 MSTORE PUSH1 0x20 ADD PUSH1 0x1 DUP3 ADD SLOAD DUP2 MSTORE PUSH1 0x20 ADD PUSH1 0x2 DUP3 ADD SLOAD DUP2 MSTORE PUSH1 0x20 ADD PUSH1 0x3 DUP3 ADD SLOAD DUP2 MSTORE PUSH1 0x20 ADD PUSH1 0x4 DUP3 ADD SLOAD DUP2 MSTORE POP POP SWAP2 POP POP SWAP1 SWAP2 JUMP JUMPDEST PUSH1 0x1E SLOAD PUSH1 0x1 PUSH1 0x1 PUSH1 0xA0 SHL SUB AND CALLER DUP2 EQ PUSH2 0x31C0 JUMPI PUSH1 0x40 MLOAD PUSH3 0x461BCD PUSH1 0xE5 SHL DUP2 MSTORE PUSH1 0x20 PUSH1 0x4 DUP3 ADD MSTORE PUSH1 0x45 PUSH1 0x24 DUP3 ADD MSTORE PUSH32 0x7B2266726F6D223A202254726565436F6D2E736F6C222C22636F6465223A2035 PUSH1 0x44 DUP3 ADD MSTORE PUSH32 0x352C20226D657373616765223A2022596F7520617265206E6F7420616C6C6F77 PUSH1 0x64 DUP3 ADD MSTORE PUSH5 0x65642E227D PUSH1 0xD8 SHL PUSH1 0x84 DUP3 ADD MSTORE PUSH1 0xA4 ADD PUSH2 0x733 JUMP JUMPDEST PUSH1 0x11 SLOAD PUSH2 0x100 SWAP1 DIV PUSH1 0xFF AND ISZERO PUSH2 0x31E8 JUMPI PUSH1 0x40 MLOAD PUSH3 0x461BCD PUSH1 0xE5 SHL DUP2 MSTORE PUSH1 0x4 ADD PUSH2 0x733 SWAP1 PUSH2 0x6E24 JUMP JUMPDEST DUP2 PUSH2 0x3205 JUMPI PUSH1 0x40 MLOAD PUSH3 0x461BCD PUSH1 0xE5 SHL DUP2 MSTORE PUSH1 0x4 ADD PUSH2 0x733 SWAP1 PUSH2 0x7198 JUMP JUMPDEST PUSH0 DUP3 DUP2 MSTORE PUSH1 0x22 PUSH1 0x20 MSTORE PUSH1 0x40 SWAP1 KECCAK256 SLOAD DUP1 PUSH2 0x3230 JUMPI PUSH1 0x40 MLOAD PUSH3 0x461BCD PUSH1 0xE5 SHL DUP2 MSTORE PUSH1 0x4 ADD PUSH2 0x733 SWAP1 PUSH2 0x71D9 JUMP JUMPDEST PUSH0 DUP4 DUP2 MSTORE PUSH1 0x22 PUSH1 0x20 MSTORE PUSH1 0x40 SWAP1 KECCAK256 PUSH1 0x3 DUP2 ADD SLOAD PUSH1 0x1 DUP3 ADD SLOAD PUSH1 0x2 SWAP1 SWAP3 ADD SLOAD SWAP1 SWAP2 SWAP1 PUSH1 0x1 PUSH1 0x1 PUSH1 0xA0 SHL SUB AND DUP2 ISZERO PUSH2 0x33B3 JUMPI PUSH1 0x2 PUSH1 0x1 PUSH1 0x1 PUSH1 0xA0 SHL SUB DUP3 AND PUSH0 SWAP1 DUP2 MSTORE PUSH1 0x4 PUSH1 0x20 MSTORE PUSH1 0x40 SWAP1 KECCAK256 PUSH1 0x2 ADD SLOAD PUSH2 0x100 SWAP1 DIV PUSH1 0xFF AND PUSH1 0x3 DUP2 GT ISZERO PUSH2 0x3295 JUMPI PUSH2 0x3295 PUSH2 0x6888 JUMP JUMPDEST EQ PUSH2 0x3323 JUMPI PUSH1 0x1B SLOAD PUSH1 0x1 PUSH1 0x1 PUSH1 0xA0 SHL SUB AND PUSH4 0xE115DC7F DUP3 DUP6 PUSH1 0x64 PUSH2 0x32BC PUSH3 0xF4240 DUP9 PUSH2 0x6F6F JUMP JUMPDEST PUSH2 0x32C7 SWAP1 PUSH1 0x50 PUSH2 0x74C1 JUMP JUMPDEST PUSH2 0x32D1 SWAP2 SWAP1 PUSH2 0x6F6F JUMP JUMPDEST PUSH1 0x1 PUSH1 0x5 PUSH1 0x40 MLOAD DUP7 PUSH4 0xFFFFFFFF AND PUSH1 0xE0 SHL DUP2 MSTORE PUSH1 0x4 ADD PUSH2 0x32F5 SWAP6 SWAP5 SWAP4 SWAP3 SWAP2 SWAP1 PUSH2 0x6F82 JUMP JUMPDEST PUSH0 PUSH1 0x40 MLOAD DUP1 DUP4 SUB DUP2 PUSH0 DUP8 DUP1 EXTCODESIZE ISZERO DUP1 ISZERO PUSH2 0x330C JUMPI PUSH0 PUSH0 REVERT JUMPDEST POP GAS CALL ISZERO DUP1 ISZERO PUSH2 0x331E JUMPI RETURNDATASIZE PUSH0 PUSH0 RETURNDATACOPY RETURNDATASIZE PUSH0 REVERT JUMPDEST POP POP POP POP JUMPDEST PUSH1 0x1B SLOAD PUSH1 0x15 SLOAD PUSH1 0x1 PUSH1 0x1 PUSH1 0xA0 SHL SUB SWAP2 DUP3 AND SWAP2 PUSH4 0xE115DC7F SWAP2 AND DUP6 PUSH1 0x64 PUSH2 0x334C PUSH3 0xF4240 DUP9 PUSH2 0x6F6F JUMP JUMPDEST PUSH2 0x3357 SWAP1 PUSH1 0x14 PUSH2 0x74C1 JUMP JUMPDEST PUSH2 0x3361 SWAP2 SWAP1 PUSH2 0x6F6F JUMP JUMPDEST PUSH1 0x1 PUSH1 0x5 PUSH1 0x40 MLOAD DUP7 PUSH4 0xFFFFFFFF AND PUSH1 0xE0 SHL DUP2 MSTORE PUSH1 0x4 ADD PUSH2 0x3385 SWAP6 SWAP5 SWAP4 SWAP3 SWAP2 SWAP1 PUSH2 0x6F82 JUMP JUMPDEST PUSH0 PUSH1 0x40 MLOAD DUP1 DUP4 SUB DUP2 PUSH0 DUP8 DUP1 EXTCODESIZE ISZERO DUP1 ISZERO PUSH2 0x339C JUMPI PUSH0 PUSH0 REVERT JUMPDEST POP GAS CALL ISZERO DUP1 ISZERO PUSH2 0x33AE JUMPI RETURNDATASIZE PUSH0 PUSH0 RETURNDATACOPY RETURNDATASIZE PUSH0 REVERT JUMPDEST POP POP POP POP JUMPDEST PUSH2 0x33BE DUP2 DUP6 DUP6 PUSH2 0x433E JUMP JUMPDEST PUSH0 DUP7 DUP2 MSTORE PUSH1 0x22 PUSH1 0x20 MSTORE PUSH1 0x40 DUP1 DUP3 KECCAK256 DUP3 DUP2 SSTORE PUSH1 0x1 DUP1 DUP3 ADD DUP5 SWAP1 SSTORE PUSH1 0x2 DUP1 DUP4 ADD DUP1 SLOAD PUSH1 0x1 PUSH1 0x1 PUSH1 0xA0 SHL SUB NOT AND SWAP1 SSTORE PUSH1 0x3 SWAP1 SWAP3 ADD SWAP4 SWAP1 SWAP4 SSTORE PUSH1 0x1B SLOAD PUSH1 0x14 SLOAD SWAP3 MLOAD PUSH4 0xE115DC7F PUSH1 0xE0 SHL DUP2 MSTORE PUSH1 0x1 PUSH1 0x1 PUSH1 0xA0 SHL SUB SWAP2 DUP3 AND SWAP5 PUSH4 0xE115DC7F SWAP5 PUSH2 0x342C SWAP5 SWAP4 AND SWAP3 DUP10 SWAP3 DUP12 SWAP3 SWAP2 SWAP1 PUSH1 0x4 ADD PUSH2 0x6F82 JUMP JUMPDEST PUSH0 PUSH1 0x40 MLOAD DUP1 DUP4 SUB DUP2 PUSH0 DUP8 DUP1 EXTCODESIZE ISZERO DUP1 ISZERO PUSH2 0x3443 JUMPI PUSH0 PUSH0 REVERT JUMPDEST POP GAS CALL ISZERO DUP1 ISZERO PUSH2 0x3455 JUMPI RETURNDATASIZE PUSH0 PUSH0 RETURNDATACOPY RETURNDATASIZE PUSH0 REVERT JUMPDEST POP POP POP POP POP POP POP POP POP POP JUMP JUMPDEST DUP1 MLOAD ISZERO PUSH2 0x34DA JUMPI PUSH1 0x1B SLOAD PUSH1 0x40 MLOAD PUSH4 0x68BD52E5 PUSH1 0xE1 SHL DUP2 MSTORE PUSH1 0x1 PUSH1 0x1 PUSH1 0xA0 SHL SUB SWAP1 SWAP2 AND SWAP1 PUSH4 0xD17AA5CA SWAP1 PUSH2 0x349A SWAP1 DUP6 SWAP1 DUP6 SWAP1 PUSH1 0x4 ADD PUSH2 0x74D8 JUMP JUMPDEST PUSH1 0x20 PUSH1 0x40 MLOAD DUP1 DUP4 SUB DUP2 PUSH0 DUP8 GAS CALL ISZERO DUP1 ISZERO PUSH2 0x34B6 JUMPI RETURNDATASIZE PUSH0 PUSH0 RETURNDATACOPY RETURNDATASIZE PUSH0 REVERT JUMPDEST POP POP POP POP PUSH1 0x40 MLOAD RETURNDATASIZE PUSH1 0x1F NOT PUSH1 0x1F DUP3 ADD AND DUP3 ADD DUP1 PUSH1 0x40 MSTORE POP DUP2 ADD SWAP1 PUSH2 0x20A0 SWAP2 SWAP1 PUSH2 0x70F0 JUMP JUMPDEST PUSH1 0x1B SLOAD PUSH1 0x40 MLOAD PUSH4 0xF8B2CB4F PUSH1 0xE0 SHL DUP2 MSTORE PUSH0 SWAP2 PUSH1 0x1 PUSH1 0x1 PUSH1 0xA0 SHL SUB AND SWAP1 PUSH4 0xF8B2CB4F SWAP1 PUSH2 0x350A SWAP1 CALLER SWAP1 PUSH1 0x4 ADD PUSH2 0x6A8F JUMP JUMPDEST PUSH1 0x20 PUSH1 0x40 MLOAD DUP1 DUP4 SUB DUP2 DUP7 GAS STATICCALL ISZERO DUP1 ISZERO PUSH2 0x3525 JUMPI RETURNDATASIZE PUSH0 PUSH0 RETURNDATACOPY RETURNDATASIZE PUSH0 REVERT JUMPDEST POP POP POP POP PUSH1 0x40 MLOAD RETURNDATASIZE PUSH1 0x1F NOT PUSH1 0x1F DUP3 ADD AND DUP3 ADD DUP1 PUSH1 0x40 MSTORE POP DUP2 ADD SWAP1 PUSH2 0x3549 SWAP2 SWAP1 PUSH2 0x71C2 JUMP JUMPDEST SWAP1 POP DUP4 DUP2 LT ISZERO PUSH2 0x3592 JUMPI PUSH1 0x40 MLOAD PUSH3 0x461BCD PUSH1 0xE5 SHL DUP2 MSTORE PUSH1 0x20 PUSH1 0x4 DUP3 ADD MSTORE PUSH1 0x14 PUSH1 0x24 DUP3 ADD MSTORE PUSH20 0x496E73756666696369656E742062616C616E6365 PUSH1 0x60 SHL PUSH1 0x44 DUP3 ADD MSTORE PUSH1 0x64 ADD PUSH2 0x733 JUMP JUMPDEST PUSH1 0x1B SLOAD PUSH1 0x40 MLOAD PUSH4 0xC84D239B PUSH1 0xE0 SHL DUP2 MSTORE PUSH1 0x1 PUSH1 0x1 PUSH1 0xA0 SHL SUB SWAP1 SWAP2 AND SWAP1 PUSH4 0xC84D239B SWAP1 PUSH2 0x35C4 SWAP1 CALLER SWAP1 DUP9 SWAP1 PUSH1 0x4 ADD PUSH2 0x70D7 JUMP JUMPDEST PUSH1 0x20 PUSH1 0x40 MLOAD DUP1 DUP4 SUB DUP2 PUSH0 DUP8 GAS CALL ISZERO DUP1 ISZERO PUSH2 0x35E0 JUMPI RETURNDATASIZE PUSH0 PUSH0 RETURNDATACOPY RETURNDATASIZE PUSH0 REVERT JUMPDEST POP POP POP POP PUSH1 0x40 MLOAD RETURNDATASIZE PUSH1 0x1F NOT PUSH1 0x1F DUP3 ADD AND DUP3 ADD DUP1 PUSH1 0x40 MSTORE POP DUP2 ADD SWAP1 PUSH2 0x3604 SWAP2 SWAP1 PUSH2 0x70F0 JUMP JUMPDEST PUSH2 0x365A JUMPI PUSH1 0x40 MLOAD PUSH3 0x461BCD PUSH1 0xE5 SHL DUP2 MSTORE PUSH1 0x20 PUSH1 0x4 DUP3 ADD MSTORE PUSH1 0x21 PUSH1 0x24 DUP3 ADD MSTORE PUSH32 0x496E73756666696369656E742062616C616E636520666F722077697468647261 PUSH1 0x44 DUP3 ADD MSTORE PUSH1 0x77 PUSH1 0xF8 SHL PUSH1 0x64 DUP3 ADD MSTORE PUSH1 0x84 ADD PUSH2 0x733 JUMP JUMPDEST CALLER PUSH0 SWAP1 DUP2 MSTORE PUSH1 0x4 PUSH1 0x20 MSTORE PUSH1 0x40 SWAP1 KECCAK256 PUSH1 0x2 SWAP1 DUP2 ADD SLOAD PUSH2 0x100 SWAP1 DIV PUSH1 0xFF AND SWAP1 DUP2 PUSH1 0x3 DUP2 GT ISZERO PUSH2 0x3689 JUMPI PUSH2 0x3689 PUSH2 0x6888 JUMP JUMPDEST EQ ISZERO DUP1 ISZERO PUSH2 0x36A9 JUMPI POP PUSH1 0x3 DUP2 PUSH1 0x3 DUP2 GT ISZERO PUSH2 0x36A6 JUMPI PUSH2 0x36A6 PUSH2 0x6888 JUMP JUMPDEST EQ ISZERO JUMPDEST PUSH2 0x36E3 JUMPI PUSH1 0x40 MLOAD PUSH3 0x461BCD PUSH1 0xE5 SHL DUP2 MSTORE PUSH1 0x20 PUSH1 0x4 DUP3 ADD MSTORE PUSH1 0xB PUSH1 0x24 DUP3 ADD MSTORE PUSH11 0x44656E7920616363657373 PUSH1 0xA8 SHL PUSH1 0x44 DUP3 ADD MSTORE PUSH1 0x64 ADD PUSH2 0x733 JUMP JUMPDEST PUSH1 0x17 SLOAD PUSH1 0x40 MLOAD PUSH4 0x70A08231 PUSH1 0xE0 SHL DUP2 MSTORE PUSH1 0x1 PUSH1 0x1 PUSH1 0xA0 SHL SUB SWAP1 SWAP2 AND SWAP1 PUSH4 0x70A08231 SWAP1 PUSH2 0x3713 SWAP1 ADDRESS SWAP1 PUSH1 0x4 ADD PUSH2 0x6A8F JUMP JUMPDEST PUSH1 0x20 PUSH1 0x40 MLOAD DUP1 DUP4 SUB DUP2 DUP7 GAS STATICCALL ISZERO DUP1 ISZERO PUSH2 0x372E JUMPI RETURNDATASIZE PUSH0 PUSH0 RETURNDATACOPY RETURNDATASIZE PUSH0 REVERT JUMPDEST POP POP POP POP PUSH1 0x40 MLOAD RETURNDATASIZE PUSH1 0x1F NOT PUSH1 0x1F DUP3 ADD AND DUP3 ADD DUP1 PUSH1 0x40 MSTORE POP DUP2 ADD SWAP1 PUSH2 0x3752 SWAP2 SWAP1 PUSH2 0x71C2 JUMP JUMPDEST PUSH2 0x375F DUP7 PUSH3 0xF4240 PUSH2 0x74C1 JUMP JUMPDEST LT PUSH2 0x37A9 JUMPI PUSH1 0x40 MLOAD PUSH3 0x461BCD PUSH1 0xE5 SHL DUP2 MSTORE PUSH1 0x20 PUSH1 0x4 DUP3 ADD MSTORE PUSH1 0x1A PUSH1 0x24 DUP3 ADD MSTORE PUSH26 0x4E6F7420656E6F756768207573647420696E2074726565436F6D PUSH1 0x30 SHL PUSH1 0x44 DUP3 ADD MSTORE PUSH1 0x64 ADD PUSH2 0x733 JUMP JUMPDEST PUSH2 0x37D5 PUSH1 0x40 MLOAD DUP1 PUSH1 0x40 ADD PUSH1 0x40 MSTORE DUP1 PUSH1 0xA DUP2 MSTORE PUSH1 0x20 ADD PUSH10 0x30B6B7BAB73A1036309D PUSH1 0xB1 SHL DUP2 MSTORE POP DUP7 PUSH2 0x5577 JUMP JUMPDEST PUSH1 0x17 SLOAD PUSH1 0x1 PUSH1 0x1 PUSH1 0xA0 SHL SUB AND PUSH4 0xA9059CBB DUP6 PUSH2 0x37F4 DUP9 PUSH3 0xF4240 PUSH2 0x74C1 JUMP JUMPDEST PUSH1 0x40 MLOAD DUP4 PUSH4 0xFFFFFFFF AND PUSH1 0xE0 SHL DUP2 MSTORE PUSH1 0x4 ADD PUSH2 0x3811 SWAP3 SWAP2 SWAP1 PUSH2 0x70D7 JUMP JUMPDEST PUSH1 0x20 PUSH1 0x40 MLOAD DUP1 DUP4 SUB DUP2 PUSH0 DUP8 GAS CALL ISZERO DUP1 ISZERO PUSH2 0x382D JUMPI RETURNDATASIZE PUSH0 PUSH0 RETURNDATACOPY RETURNDATASIZE PUSH0 REVERT JUMPDEST POP POP POP POP PUSH1 0x40 MLOAD RETURNDATASIZE PUSH1 0x1F NOT PUSH1 0x1F DUP3 ADD AND DUP3 ADD DUP1 PUSH1 0x40 MSTORE POP DUP2 ADD SWAP1 PUSH2 0x3851 SWAP2 SWAP1 PUSH2 0x70F0 JUMP JUMPDEST PUSH2 0x18E1 JUMPI PUSH1 0x40 MLOAD PUSH3 0x461BCD PUSH1 0xE5 SHL DUP2 MSTORE PUSH1 0x20 PUSH1 0x4 DUP3 ADD MSTORE PUSH1 0xF PUSH1 0x24 DUP3 ADD MSTORE PUSH15 0x151C985B9CD9995C8819985A5B1959 PUSH1 0x8A SHL PUSH1 0x44 DUP3 ADD MSTORE PUSH1 0x64 ADD PUSH2 0x733 JUMP JUMPDEST PUSH0 PUSH1 0x1 PUSH1 0x1 PUSH1 0xA0 SHL SUB DUP6 AND CALLER EQ DUP1 PUSH2 0x38E5 JUMPI POP DUP3 PUSH0 CALLER DUP8 PUSH1 0x40 MLOAD PUSH1 0x20 ADD PUSH2 0x38B7 SWAP3 SWAP2 SWAP1 PUSH2 0x752D JUMP JUMPDEST PUSH1 0x40 DUP1 MLOAD PUSH1 0x1F NOT DUP2 DUP5 SUB ADD DUP2 MSTORE SWAP2 DUP2 MSTORE DUP2 MLOAD PUSH1 0x20 SWAP3 DUP4 ADD KECCAK256 DUP4 MSTORE SWAP1 DUP3 ADD SWAP3 SWAP1 SWAP3 MSTORE ADD PUSH0 KECCAK256 SLOAD PUSH1 0xFF AND ISZERO ISZERO PUSH1 0x1 EQ JUMPDEST PUSH2 0x3921 JUMPI PUSH1 0x40 MLOAD PUSH3 0x461BCD PUSH1 0xE5 SHL DUP2 MSTORE PUSH1 0x20 PUSH1 0x4 DUP3 ADD MSTORE PUSH1 0xD PUSH1 0x24 DUP3 ADD MSTORE PUSH13 0x139BDD081C195C9B5A5D1D1959 PUSH1 0x9A SHL PUSH1 0x44 DUP3 ADD MSTORE PUSH1 0x64 ADD PUSH2 0x733 JUMP JUMPDEST PUSH0 DUP7 JUMPDEST PUSH1 0x1 PUSH1 0x1 PUSH1 0xA0 SHL SUB DUP2 AND ISZERO PUSH2 0x39FD JUMPI DUP2 PUSH2 0x393D DUP2 PUSH2 0x747D JUMP JUMPDEST SWAP3 POP POP DUP6 PUSH1 0xFF AND DUP3 PUSH1 0xFF AND SUB ISZERO PUSH2 0x39FD JUMPI DUP7 PUSH1 0x1 PUSH1 0x1 PUSH1 0xA0 SHL SUB AND DUP2 PUSH1 0x1 PUSH1 0x1 PUSH1 0xA0 SHL SUB AND SUB PUSH2 0x3972 JUMPI PUSH1 0x1 SWAP3 POP POP POP PUSH2 0x3A03 JUMP JUMPDEST PUSH1 0x1 PUSH1 0x1 PUSH1 0xA0 SHL SUB SWAP1 DUP2 AND PUSH0 SWAP1 DUP2 MSTORE PUSH1 0x20 DUP11 SWAP1 MSTORE PUSH1 0x40 SWAP1 KECCAK256 SLOAD AND PUSH2 0x3997 PUSH1 0xA DUP4 PUSH2 0x754F JUMP JUMPDEST PUSH1 0xFF AND PUSH0 SUB PUSH2 0x39F8 JUMPI PUSH0 CALLER DUP3 PUSH1 0x40 MLOAD PUSH1 0x20 ADD PUSH2 0x39B4 SWAP3 SWAP2 SWAP1 PUSH2 0x752D JUMP JUMPDEST PUSH1 0x40 DUP1 MLOAD PUSH1 0x1F NOT DUP2 DUP5 SUB ADD DUP2 MSTORE SWAP2 DUP2 MSTORE DUP2 MLOAD PUSH1 0x20 SWAP3 DUP4 ADD KECCAK256 PUSH0 DUP2 DUP2 MSTORE DUP10 DUP5 MSTORE SWAP2 DUP3 KECCAK256 DUP1 SLOAD PUSH1 0xFF NOT AND PUSH1 0x1 SWAP1 DUP2 OR SWAP1 SWAP2 SSTORE DUP9 SLOAD SWAP1 DUP2 ADD DUP10 SSTORE DUP9 DUP4 MSTORE SWAP3 SWAP1 SWAP2 KECCAK256 SWAP1 SWAP2 ADD SSTORE POP JUMPDEST PUSH2 0x3924 JUMP JUMPDEST PUSH0 SWAP3 POP POP POP JUMPDEST SWAP7 SWAP6 POP POP POP POP POP POP JUMP JUMPDEST PUSH1 0x1 PUSH1 0x1 PUSH1 0xA0 SHL SUB DUP2 AND PUSH0 SWAP1 DUP2 MSTORE PUSH1 0x20 DUP8 SWAP1 MSTORE PUSH1 0x40 DUP2 KECCAK256 PUSH1 0x2 SWAP1 DUP2 ADD SLOAD PUSH2 0x100 SWAP1 DIV PUSH1 0xFF AND SWAP1 DUP2 PUSH1 0x3 DUP2 GT ISZERO PUSH2 0x3A45 JUMPI PUSH2 0x3A45 PUSH2 0x6888 JUMP JUMPDEST EQ DUP1 PUSH2 0x3A62 JUMPI POP PUSH1 0x3 DUP2 PUSH1 0x3 DUP2 GT ISZERO PUSH2 0x3A60 JUMPI PUSH2 0x3A60 PUSH2 0x6888 JUMP JUMPDEST EQ JUMPDEST ISZERO PUSH2 0x3A70 JUMPI PUSH0 SWAP2 POP POP PUSH2 0x3A03 JUMP JUMPDEST PUSH1 0x1 PUSH1 0x1 PUSH1 0xA0 SHL SUB DUP4 AND PUSH0 SWAP1 DUP2 MSTORE PUSH1 0x20 DUP9 SWAP1 MSTORE PUSH1 0x40 SWAP1 KECCAK256 SLOAD TIMESTAMP GT ISZERO PUSH2 0x3AC6 JUMPI PUSH1 0x1 PUSH1 0x1 PUSH1 0xA0 SHL SUB DUP4 AND PUSH0 SWAP1 DUP2 MSTORE PUSH1 0x20 DUP10 SWAP1 MSTORE PUSH1 0x40 SWAP1 KECCAK256 PUSH1 0x2 SWAP1 DUP2 ADD DUP1 SLOAD PUSH2 0xFF00 NOT AND PUSH2 0x100 DUP4 JUMPDEST MUL OR SWAP1 SSTORE POP PUSH1 0x1 SWAP2 POP POP PUSH2 0x3A03 JUMP JUMPDEST PUSH1 0x1 PUSH1 0x1 PUSH1 0xA0 SHL SUB DUP4 AND PUSH0 SWAP1 DUP2 MSTORE PUSH1 0x20 DUP8 SWAP1 MSTORE PUSH1 0x40 SWAP1 KECCAK256 SLOAD PUSH1 0x1 GT ISZERO DUP1 PUSH2 0x3B05 JUMPI POP PUSH1 0x1 PUSH1 0x1 PUSH1 0xA0 SHL SUB DUP4 AND PUSH0 SWAP1 DUP2 MSTORE PUSH1 0x20 DUP6 SWAP1 MSTORE PUSH1 0x40 SWAP1 KECCAK256 SLOAD PUSH1 0xA GT ISZERO JUMPDEST DUP1 PUSH2 0x3B28 JUMPI POP PUSH1 0x1 PUSH1 0x1 PUSH1 0xA0 SHL SUB DUP4 AND PUSH0 SWAP1 DUP2 MSTORE PUSH1 0x20 DUP7 SWAP1 MSTORE PUSH1 0x40 SWAP1 KECCAK256 SLOAD PUSH1 0x64 GT ISZERO JUMPDEST ISZERO PUSH2 0x3B5B JUMPI PUSH1 0x1 PUSH1 0x1 PUSH1 0xA0 SHL SUB DUP4 AND PUSH0 SWAP1 DUP2 MSTORE PUSH1 0x20 DUP10 SWAP1 MSTORE PUSH1 0x40 SWAP1 KECCAK256 PUSH1 0x2 ADD DUP1 SLOAD PUSH1 0x1 SWAP2 SWAP1 PUSH2 0xFF00 NOT AND PUSH2 0x100 DUP4 PUSH2 0x3AB7 JUMP JUMPDEST POP PUSH0 SWAP8 SWAP7 POP POP POP POP POP POP POP JUMP JUMPDEST PUSH1 0x1 PUSH1 0x1 PUSH1 0xA0 SHL SUB DUP2 AND PUSH0 SWAP1 DUP2 MSTORE PUSH1 0x20 DUP6 DUP2 MSTORE PUSH1 0x40 DUP1 DUP4 KECCAK256 PUSH1 0x2 ADD SLOAD SWAP2 DUP7 SWAP1 MSTORE DUP3 KECCAK256 PUSH1 0x1 ADD SLOAD SWAP1 SWAP2 SWAP1 DUP2 DUP2 PUSH1 0x1 PUSH1 0x1 PUSH1 0x40 SHL SUB DUP2 GT ISZERO PUSH2 0x3BAA JUMPI PUSH2 0x3BAA PUSH2 0x6662 JUMP JUMPDEST PUSH1 0x40 MLOAD SWAP1 DUP1 DUP3 MSTORE DUP1 PUSH1 0x20 MUL PUSH1 0x20 ADD DUP3 ADD PUSH1 0x40 MSTORE DUP1 ISZERO PUSH2 0x3BD3 JUMPI DUP2 PUSH1 0x20 ADD PUSH1 0x20 DUP3 MUL DUP1 CALLDATASIZE DUP4 CALLDATACOPY ADD SWAP1 POP JUMPDEST POP SWAP1 POP PUSH0 JUMPDEST DUP3 DUP2 LT ISZERO PUSH2 0x3CE0 JUMPI PUSH1 0x1 PUSH1 0x1 PUSH1 0xA0 SHL SUB DUP7 AND PUSH0 SWAP1 DUP2 MSTORE PUSH1 0x20 DUP10 SWAP1 MSTORE PUSH1 0x40 DUP2 KECCAK256 PUSH1 0x1 ADD DUP1 SLOAD DUP4 SWAP1 DUP2 LT PUSH2 0x3C0C JUMPI PUSH2 0x3C0C PUSH2 0x6DCB JUMP JUMPDEST PUSH0 SWAP2 DUP3 MSTORE PUSH1 0x20 DUP1 DUP4 KECCAK256 SWAP1 SWAP2 ADD SLOAD PUSH1 0x1 PUSH1 0x1 PUSH1 0xA0 SHL SUB AND DUP1 DUP4 MSTORE DUP12 DUP3 MSTORE PUSH1 0x40 DUP1 DUP5 KECCAK256 SWAP3 DUP15 SWAP1 MSTORE DUP4 KECCAK256 PUSH1 0x3 DUP2 ADD SLOAD PUSH1 0x2 SWAP1 SWAP2 ADD SLOAD SWAP2 SWAP5 POP SWAP2 SWAP3 SWAP2 PUSH2 0x3C4D SWAP2 PUSH2 0x6DA5 JUMP JUMPDEST SWAP1 POP PUSH0 DUP2 GT PUSH2 0x3C5E JUMPI POP POP POP PUSH2 0x3CD8 JUMP JUMPDEST PUSH1 0x1 PUSH1 0x1 PUSH1 0xA0 SHL SUB DUP4 AND PUSH0 SWAP1 DUP2 MSTORE PUSH1 0x20 DUP14 SWAP1 MSTORE PUSH1 0x40 DUP2 KECCAK256 PUSH1 0x3 ADD SSTORE DUP5 MLOAD DUP2 SWAP1 DUP7 SWAP1 DUP7 SWAP1 DUP2 LT PUSH2 0x3C8F JUMPI PUSH2 0x3C8F PUSH2 0x6DCB JUMP JUMPDEST PUSH1 0x20 SWAP1 DUP2 MUL SWAP2 SWAP1 SWAP2 ADD ADD MSTORE PUSH2 0x3CA4 DUP2 DUP10 PUSH2 0x6DA5 JUMP JUMPDEST SWAP8 POP PUSH1 0x4 PUSH1 0x2 DUP4 ADD SLOAD PUSH1 0xFF AND PUSH1 0x7 DUP2 GT ISZERO PUSH2 0x3CC1 JUMPI PUSH2 0x3CC1 PUSH2 0x6888 JUMP JUMPDEST LT ISZERO PUSH2 0x3CD4 JUMPI PUSH2 0x3CD1 DUP2 DUP9 PUSH2 0x6DA5 JUMP JUMPDEST SWAP7 POP JUMPDEST POP POP POP JUMPDEST PUSH1 0x1 ADD PUSH2 0x3BD8 JUMP JUMPDEST POP DUP4 ISZERO PUSH2 0x13E5 JUMPI PUSH0 PUSH1 0x5 PUSH1 0x1 PUSH1 0x1 PUSH1 0xA0 SHL SUB DUP8 AND PUSH0 SWAP1 DUP2 MSTORE PUSH1 0x20 DUP11 SWAP1 MSTORE PUSH1 0x40 SWAP1 KECCAK256 PUSH1 0x2 ADD SLOAD PUSH1 0xFF AND PUSH1 0x7 DUP2 GT ISZERO PUSH2 0x3D19 JUMPI PUSH2 0x3D19 PUSH2 0x6888 JUMP JUMPDEST LT ISZERO PUSH2 0x3D26 JUMPI PUSH1 0x32 PUSH2 0x3D29 JUMP JUMPDEST PUSH1 0x28 JUMPDEST PUSH1 0xFF AND SWAP1 POP PUSH0 PUSH1 0x64 PUSH2 0x3D3B DUP4 DUP9 PUSH2 0x74C1 JUMP JUMPDEST PUSH2 0x3D45 SWAP2 SWAP1 PUSH2 0x6F6F JUMP JUMPDEST SWAP1 POP PUSH0 DUP1 JUMPDEST DUP6 DUP2 LT ISZERO PUSH2 0x3DA7 JUMPI DUP3 DUP6 DUP3 DUP2 MLOAD DUP2 LT PUSH2 0x3D65 JUMPI PUSH2 0x3D65 PUSH2 0x6DCB JUMP JUMPDEST PUSH1 0x20 MUL PUSH1 0x20 ADD ADD MLOAD GT PUSH2 0x3D91 JUMPI DUP5 DUP2 DUP2 MLOAD DUP2 LT PUSH2 0x3D84 JUMPI PUSH2 0x3D84 PUSH2 0x6DCB JUMP JUMPDEST PUSH1 0x20 MUL PUSH1 0x20 ADD ADD MLOAD PUSH2 0x3D93 JUMP JUMPDEST DUP3 JUMPDEST PUSH2 0x3D9D SWAP1 DUP4 PUSH2 0x6DA5 JUMP JUMPDEST SWAP2 POP PUSH1 0x1 ADD PUSH2 0x3D4A JUMP JUMPDEST POP PUSH1 0x1 PUSH1 0x1 PUSH1 0xA0 SHL SUB DUP9 AND PUSH0 SWAP1 DUP2 MSTORE PUSH1 0x20 DUP13 SWAP1 MSTORE PUSH1 0x40 DUP2 KECCAK256 PUSH1 0x3 ADD SLOAD PUSH2 0x3DCD SWAP1 DUP4 PUSH2 0x6DB8 JUMP JUMPDEST SWAP1 POP DUP1 ISZERO PUSH2 0x3DFE JUMPI PUSH1 0x1 PUSH1 0x1 PUSH1 0xA0 SHL SUB DUP10 AND PUSH0 SWAP1 DUP2 MSTORE PUSH1 0x20 DUP14 SWAP1 MSTORE PUSH1 0x40 SWAP1 KECCAK256 PUSH1 0x3 ADD DUP3 SWAP1 SSTORE PUSH2 0x3DFE DUP12 DUP14 DUP13 DUP13 PUSH2 0x5249 JUMP JUMPDEST POP POP POP PUSH1 0x1 PUSH1 0x1 PUSH1 0xA0 SHL SUB DUP7 AND PUSH0 SWAP1 DUP2 MSTORE PUSH1 0x20 DUP11 SWAP1 MSTORE PUSH1 0x40 SWAP1 KECCAK256 PUSH1 0x4 ADD DUP6 SWAP1 SSTORE POP POP POP POP POP POP POP POP POP JUMP JUMPDEST PUSH1 0x1 PUSH1 0x1 PUSH1 0xA0 SHL SUB DUP1 DUP3 AND PUSH0 SWAP1 DUP2 MSTORE PUSH1 0x4 PUSH1 0x20 MSTORE PUSH1 0x40 SWAP1 KECCAK256 SLOAD AND DUP1 PUSH2 0x3E4C JUMPI POP POP JUMP JUMPDEST PUSH1 0x1 PUSH1 0x1 PUSH1 0xA0 SHL SUB DUP2 AND PUSH0 SWAP1 DUP2 MSTORE PUSH1 0x5 PUSH1 0x20 MSTORE PUSH1 0x40 DUP2 KECCAK256 PUSH1 0x1 SWAP1 DUP2 ADD DUP1 SLOAD SWAP2 SWAP3 SWAP1 SWAP2 PUSH2 0x3E79 SWAP1 DUP5 SWAP1 PUSH2 0x6DA5 JUMP JUMPDEST SWAP1 SWAP2 SSTORE POP POP PUSH1 0x1 PUSH1 0x1 PUSH1 0xA0 SHL SUB DUP2 AND PUSH0 SWAP1 DUP2 MSTORE PUSH1 0x1A PUSH1 0x20 MSTORE PUSH1 0x40 SWAP1 KECCAK256 SLOAD PUSH1 0xFF AND ISZERO ISZERO PUSH1 0x1 EQ DUP1 ISZERO SWAP1 PUSH2 0x3EE6 JUMPI POP PUSH1 0x1 PUSH1 0x1 PUSH1 0xA0 SHL SUB DUP3 AND PUSH0 SWAP1 DUP2 MSTORE PUSH1 0x19 PUSH1 0x20 MSTORE PUSH1 0x40 SWAP1 KECCAK256 PUSH1 0x1 ADD SLOAD PUSH1 0xFF AND DUP1 PUSH2 0x3EE6 JUMPI POP PUSH1 0x1 PUSH1 0x1 PUSH1 0xA0 SHL SUB DUP3 AND PUSH0 SWAP1 DUP2 MSTORE PUSH1 0x1A PUSH1 0x20 MSTORE PUSH1 0x40 SWAP1 KECCAK256 SLOAD PUSH1 0xFF AND JUMPDEST ISZERO PUSH2 0x3F0E JUMPI PUSH1 0x1 PUSH1 0x1 PUSH1 0xA0 SHL SUB DUP2 AND PUSH0 SWAP1 DUP2 MSTORE PUSH1 0x1A PUSH1 0x20 MSTORE PUSH1 0x40 SWAP1 KECCAK256 DUP1 SLOAD PUSH1 0xFF NOT AND PUSH1 0x1 OR SWAP1 SSTORE JUMPDEST PUSH1 0x1 PUSH1 0x1 PUSH1 0xA0 SHL SUB DUP3 AND PUSH0 SWAP1 DUP2 MSTORE PUSH1 0x19 PUSH1 0x20 SWAP1 DUP2 MSTORE PUSH1 0x40 DUP1 DUP4 KECCAK256 DUP4 DUP2 SSTORE PUSH1 0x1 ADD DUP1 SLOAD PUSH1 0xFF NOT SWAP1 DUP2 AND SWAP1 SWAP2 SSTORE PUSH1 0x1A DUP4 MSTORE DUP2 DUP5 KECCAK256 DUP1 SLOAD SWAP1 SWAP2 AND SWAP1 SSTORE PUSH1 0x9 SWAP1 SWAP2 MSTORE SWAP1 KECCAK256 SLOAD ISZERO PUSH2 0x3FE0 JUMPI PUSH1 0x1 PUSH1 0x1 PUSH1 0xA0 SHL SUB DUP1 DUP4 AND PUSH0 SWAP1 DUP2 MSTORE PUSH1 0x9 PUSH1 0x20 MSTORE PUSH1 0x40 DUP1 DUP3 KECCAK256 SLOAD SWAP3 DUP5 AND DUP3 MSTORE DUP2 KECCAK256 DUP1 SLOAD SWAP1 SWAP2 SWAP1 PUSH2 0x3F85 SWAP1 DUP5 SWAP1 PUSH2 0x6DA5 JUMP JUMPDEST SWAP1 SWAP2 SSTORE POP POP PUSH1 0x1 PUSH1 0x1 PUSH1 0xA0 SHL SUB DUP1 DUP4 AND PUSH0 SWAP1 DUP2 MSTORE PUSH1 0x9 PUSH1 0x20 SWAP1 DUP2 MSTORE PUSH1 0x40 DUP1 DUP4 KECCAK256 SLOAD SWAP4 DUP6 AND DUP4 MSTORE PUSH1 0xA SWAP1 SWAP2 MSTORE DUP2 KECCAK256 DUP1 SLOAD SWAP1 SWAP2 SWAP1 PUSH2 0x3FC2 SWAP1 DUP5 SWAP1 PUSH2 0x6DA5 JUMP JUMPDEST SWAP1 SWAP2 SSTORE POP POP PUSH1 0x1 PUSH1 0x1 PUSH1 0xA0 SHL SUB DUP3 AND PUSH0 SWAP1 DUP2 MSTORE PUSH1 0x9 PUSH1 0x20 MSTORE PUSH1 0x40 DUP2 KECCAK256 SSTORE JUMPDEST PUSH1 0x1 PUSH1 0x1 PUSH1 0xA0 SHL SUB DUP2 AND PUSH0 SWAP1 DUP2 MSTORE PUSH1 0x4 PUSH1 0x20 SWAP1 DUP2 MSTORE PUSH1 0x40 DUP1 DUP4 KECCAK256 PUSH1 0x1 SWAP1 DUP2 ADD SLOAD PUSH1 0x5 SWAP1 SWAP4 MSTORE SWAP3 KECCAK256 SWAP1 SWAP2 ADD SLOAD SUB PUSH2 0x1AD7 JUMPI PUSH1 0x1 PUSH1 0x1 PUSH1 0xA0 SHL SUB DUP2 AND PUSH0 SWAP1 DUP2 MSTORE PUSH1 0x5 PUSH1 0x20 SWAP1 DUP2 MSTORE PUSH1 0x40 DUP1 DUP4 KECCAK256 PUSH1 0x1 ADD DUP4 SWAP1 SSTORE PUSH1 0x1A SWAP1 SWAP2 MSTORE SWAP1 KECCAK256 SLOAD PUSH1 0xFF AND ISZERO PUSH2 0x404F JUMPI PUSH2 0x404F PUSH1 0x5 PUSH1 0x4 PUSH1 0x2 DUP5 PUSH2 0x3B68 JUMP JUMPDEST PUSH2 0x1AD7 DUP2 PUSH2 0x3E29 JUMP JUMPDEST PUSH1 0x1 PUSH1 0x1 PUSH1 0xA0 SHL SUB DUP2 AND PUSH0 SWAP1 DUP2 MSTORE PUSH1 0x20 DUP4 SWAP1 MSTORE PUSH1 0x40 DUP2 KECCAK256 PUSH1 0x2 ADD SLOAD PUSH1 0x64 GT ISZERO DUP1 PUSH2 0x1959 JUMPI POP POP PUSH1 0x1 PUSH1 0x1 PUSH1 0xA0 SHL SUB AND PUSH0 SWAP1 DUP2 MSTORE PUSH1 0x20 SWAP2 SWAP1 SWAP2 MSTORE PUSH1 0x40 SWAP1 KECCAK256 PUSH1 0x3 ADD SLOAD PUSH2 0x1F4 GT ISZERO SWAP1 JUMP JUMPDEST PUSH1 0x1 PUSH1 0x1 PUSH1 0xA0 SHL SUB DUP2 AND PUSH0 SWAP1 DUP2 MSTORE PUSH1 0x20 DUP5 SWAP1 MSTORE PUSH1 0x40 DUP2 KECCAK256 PUSH1 0x1 ADD SWAP1 JUMPDEST DUP2 SLOAD DUP2 LT ISZERO PUSH2 0x18E1 JUMPI DUP3 DUP5 PUSH0 DUP5 DUP5 DUP2 SLOAD DUP2 LT PUSH2 0x40DB JUMPI PUSH2 0x40DB PUSH2 0x6DCB JUMP JUMPDEST PUSH0 SWAP2 DUP3 MSTORE PUSH1 0x20 DUP1 DUP4 KECCAK256 SWAP2 SWAP1 SWAP2 ADD SLOAD PUSH1 0x1 PUSH1 0x1 PUSH1 0xA0 SHL SUB SWAP1 DUP2 AND DUP5 MSTORE SWAP1 DUP4 ADD SWAP4 SWAP1 SWAP4 MSTORE PUSH1 0x40 SWAP1 SWAP2 ADD SWAP1 KECCAK256 DUP1 SLOAD PUSH1 0x1 PUSH1 0x1 PUSH1 0xA0 SHL SUB NOT AND SWAP3 SWAP1 SWAP2 AND SWAP2 SWAP1 SWAP2 OR SWAP1 SSTORE PUSH1 0x1 ADD PUSH2 0x40BD JUMP JUMPDEST DUP2 PUSH2 0x82E JUMPI PUSH1 0x40 MLOAD PUSH4 0x70A08231 PUSH1 0xE0 SHL DUP2 MSTORE PUSH0 SWAP1 PUSH1 0x1 PUSH1 0x1 PUSH1 0xA0 SHL SUB DUP6 AND SWAP1 PUSH4 0x70A08231 SWAP1 PUSH2 0x4155 SWAP1 ADDRESS SWAP1 PUSH1 0x4 ADD PUSH2 0x6A8F JUMP JUMPDEST PUSH1 0x20 PUSH1 0x40 MLOAD DUP1 DUP4 SUB DUP2 DUP7 GAS STATICCALL ISZERO DUP1 ISZERO PUSH2 0x4170 JUMPI RETURNDATASIZE PUSH0 PUSH0 RETURNDATACOPY RETURNDATASIZE PUSH0 REVERT JUMPDEST POP POP POP POP PUSH1 0x40 MLOAD RETURNDATASIZE PUSH1 0x1F NOT PUSH1 0x1F DUP3 ADD AND DUP3 ADD DUP1 PUSH1 0x40 MSTORE POP DUP2 ADD SWAP1 PUSH2 0x4194 SWAP2 SWAP1 PUSH2 0x71C2 JUMP JUMPDEST PUSH1 0x40 MLOAD PUSH4 0x23B872DD PUSH1 0xE0 SHL DUP2 MSTORE CALLER PUSH1 0x4 DUP3 ADD MSTORE ADDRESS PUSH1 0x24 DUP3 ADD MSTORE PUSH1 0x44 DUP2 ADD DUP5 SWAP1 MSTORE SWAP1 SWAP2 POP PUSH1 0x1 PUSH1 0x1 PUSH1 0xA0 SHL SUB DUP6 AND SWAP1 PUSH4 0x23B872DD SWAP1 PUSH1 0x64 ADD PUSH1 0x20 PUSH1 0x40 MLOAD DUP1 DUP4 SUB DUP2 PUSH0 DUP8 GAS CALL ISZERO DUP1 ISZERO PUSH2 0x41E7 JUMPI RETURNDATASIZE PUSH0 PUSH0 RETURNDATACOPY RETURNDATASIZE PUSH0 REVERT JUMPDEST POP POP POP POP PUSH1 0x40 MLOAD RETURNDATASIZE PUSH1 0x1F NOT PUSH1 0x1F DUP3 ADD AND DUP3 ADD DUP1 PUSH1 0x40 MSTORE POP DUP2 ADD SWAP1 PUSH2 0x420B SWAP2 SWAP1 PUSH2 0x70F0 JUMP JUMPDEST PUSH2 0x424E JUMPI PUSH1 0x40 MLOAD PUSH3 0x461BCD PUSH1 0xE5 SHL DUP2 MSTORE PUSH1 0x20 PUSH1 0x4 DUP3 ADD MSTORE PUSH1 0x14 PUSH1 0x24 DUP3 ADD MSTORE PUSH20 0x1554D115081D1C985B9CD9995C8819985A5B1959 PUSH1 0x62 SHL PUSH1 0x44 DUP3 ADD MSTORE PUSH1 0x64 ADD PUSH2 0x733 JUMP JUMPDEST PUSH1 0x40 MLOAD PUSH4 0x70A08231 PUSH1 0xE0 SHL DUP2 MSTORE PUSH0 SWAP1 PUSH1 0x1 PUSH1 0x1 PUSH1 0xA0 SHL SUB DUP7 AND SWAP1 PUSH4 0x70A08231 SWAP1 PUSH2 0x427C SWAP1 ADDRESS SWAP1 PUSH1 0x4 ADD PUSH2 0x6A8F JUMP JUMPDEST PUSH1 0x20 PUSH1 0x40 MLOAD DUP1 DUP4 SUB DUP2 DUP7 GAS STATICCALL ISZERO DUP1 ISZERO PUSH2 0x4297 JUMPI RETURNDATASIZE PUSH0 PUSH0 RETURNDATACOPY RETURNDATASIZE PUSH0 REVERT JUMPDEST POP POP POP POP PUSH1 0x40 MLOAD RETURNDATASIZE PUSH1 0x1F NOT PUSH1 0x1F DUP3 ADD AND DUP3 ADD DUP1 PUSH1 0x40 MSTORE POP DUP2 ADD SWAP1 PUSH2 0x42BB SWAP2 SWAP1 PUSH2 0x71C2 JUMP JUMPDEST SWAP1 POP PUSH0 PUSH2 0x42C8 DUP4 DUP4 PUSH2 0x6DB8 JUMP JUMPDEST SWAP1 POP PUSH2 0x42D7 PUSH3 0xF4240 DUP6 PUSH2 0x6DB8 JUMP JUMPDEST DUP2 LT ISZERO DUP1 ISZERO PUSH2 0x42F2 JUMPI POP PUSH2 0x42EE DUP5 PUSH3 0xF4240 PUSH2 0x6DA5 JUMP JUMPDEST DUP2 GT ISZERO JUMPDEST PUSH2 0x18DF JUMPI PUSH1 0x40 MLOAD PUSH3 0x461BCD PUSH1 0xE5 SHL DUP2 MSTORE PUSH1 0x20 PUSH1 0x4 DUP3 ADD MSTORE PUSH1 0x1E PUSH1 0x24 DUP3 ADD MSTORE PUSH32 0x496E636F72726563742055534454207472616E7366657220616D6F756E740000 PUSH1 0x44 DUP3 ADD MSTORE PUSH1 0x64 ADD PUSH2 0x733 JUMP JUMPDEST PUSH1 0x11 SLOAD PUSH2 0x100 SWAP1 DIV PUSH1 0xFF AND ISZERO PUSH2 0x4366 JUMPI PUSH1 0x40 MLOAD PUSH3 0x461BCD PUSH1 0xE5 SHL DUP2 MSTORE PUSH1 0x4 ADD PUSH2 0x733 SWAP1 PUSH2 0x6E24 JUMP JUMPDEST PUSH1 0x11 SLOAD PUSH1 0xFF AND ISZERO PUSH2 0x4431 JUMPI PUSH1 0x40 DUP1 MLOAD PUSH1 0x60 DUP2 ADD DUP3 MSTORE PUSH1 0x1 PUSH1 0x1 PUSH1 0xA0 SHL SUB SWAP5 DUP6 AND DUP2 MSTORE PUSH1 0x20 DUP2 ADD SWAP4 DUP5 MSTORE SWAP1 DUP2 ADD SWAP2 DUP3 MSTORE PUSH1 0x10 DUP1 SLOAD PUSH1 0x1 DUP2 ADD DUP3 SSTORE PUSH0 SWAP2 SWAP1 SWAP2 MSTORE SWAP1 MLOAD PUSH32 0x1B6847DC741A1B0CD08D278845F9D819D87B734759AFB55FE2DE5CB82A9AE672 PUSH1 0x3 SWAP1 SWAP3 MUL SWAP2 DUP3 ADD DUP1 SLOAD PUSH1 0x1 PUSH1 0x1 PUSH1 0xA0 SHL SUB NOT AND SWAP2 SWAP1 SWAP6 AND OR SWAP1 SWAP4 SSTORE SWAP1 MLOAD PUSH32 0x1B6847DC741A1B0CD08D278845F9D819D87B734759AFB55FE2DE5CB82A9AE673 DUP4 ADD SSTORE MLOAD PUSH32 0x1B6847DC741A1B0CD08D278845F9D819D87B734759AFB55FE2DE5CB82A9AE674 SWAP1 SWAP2 ADD SSTORE JUMP JUMPDEST PUSH2 0x4439 PUSH2 0x49B9 JUMP JUMPDEST PUSH2 0x82E DUP4 DUP4 DUP4 PUSH2 0x55BC JUMP JUMPDEST PUSH0 DUP3 PUSH1 0x1 PUSH1 0x1 PUSH1 0xA0 SHL SUB AND PUSH4 0xEE82CFD0 PUSH1 0x40 MLOAD DUP2 PUSH4 0xFFFFFFFF AND PUSH1 0xE0 SHL DUP2 MSTORE PUSH1 0x4 ADD PUSH1 0x20 PUSH1 0x40 MLOAD DUP1 DUP4 SUB DUP2 DUP7 GAS STATICCALL ISZERO DUP1 ISZERO PUSH2 0x4481 JUMPI RETURNDATASIZE PUSH0 PUSH0 RETURNDATACOPY RETURNDATASIZE PUSH0 REVERT JUMPDEST POP POP POP POP PUSH1 0x40 MLOAD RETURNDATASIZE PUSH1 0x1F NOT PUSH1 0x1F DUP3 ADD AND DUP3 ADD DUP1 PUSH1 0x40 MSTORE POP DUP2 ADD SWAP1 PUSH2 0x44A5 SWAP2 SWAP1 PUSH2 0x71C2 JUMP JUMPDEST DUP3 SLOAD SWAP1 SWAP2 POP DUP1 PUSH2 0x4503 JUMPI PUSH1 0x40 MLOAD PUSH3 0x461BCD PUSH1 0xE5 SHL DUP2 MSTORE PUSH1 0x20 PUSH1 0x4 DUP3 ADD MSTORE PUSH1 0x23 PUSH1 0x24 DUP3 ADD MSTORE PUSH32 0x4E6F204E6174696F6E616C204469726563746F727320746F2064697374726962 PUSH1 0x44 DUP3 ADD MSTORE PUSH3 0x757465 PUSH1 0xE8 SHL PUSH1 0x64 DUP3 ADD MSTORE PUSH1 0x84 ADD PUSH2 0x733 JUMP JUMPDEST PUSH0 PUSH2 0x450E DUP3 DUP5 PUSH2 0x6F6F JUMP JUMPDEST SWAP1 POP PUSH0 DUP2 GT PUSH2 0x4553 JUMPI PUSH1 0x40 MLOAD PUSH3 0x461BCD PUSH1 0xE5 SHL DUP2 MSTORE PUSH1 0x20 PUSH1 0x4 DUP3 ADD MSTORE PUSH1 0x11 PUSH1 0x24 DUP3 ADD MSTORE PUSH17 0x125B9CDD59999A58DA595B9D081C1BDBDB PUSH1 0x7A SHL PUSH1 0x44 DUP3 ADD MSTORE PUSH1 0x64 ADD PUSH2 0x733 JUMP JUMPDEST PUSH1 0x40 MLOAD PUSH4 0x21C2C5D PUSH1 0xE2 SHL DUP2 MSTORE PUSH1 0x4 DUP2 ADD DUP5 SWAP1 MSTORE PUSH1 0x1 PUSH1 0x1 PUSH1 0xA0 SHL SUB DUP7 AND SWAP1 PUSH4 0x870B174 SWAP1 PUSH1 0x24 ADD PUSH0 PUSH1 0x40 MLOAD DUP1 DUP4 SUB DUP2 PUSH0 DUP8 DUP1 EXTCODESIZE ISZERO DUP1 ISZERO PUSH2 0x4592 JUMPI PUSH0 PUSH0 REVERT JUMPDEST POP GAS CALL ISZERO DUP1 ISZERO PUSH2 0x45A4 JUMPI RETURNDATASIZE PUSH0 PUSH0 RETURNDATACOPY RETURNDATASIZE PUSH0 REVERT JUMPDEST POP PUSH1 0x60 SWAP3 POP DUP3 SWAP2 POP PUSH0 SWAP1 POP DUP1 JUMPDEST DUP6 DUP2 LT ISZERO PUSH2 0x464B JUMPI DUP8 DUP2 DUP2 SLOAD DUP2 LT PUSH2 0x45CB JUMPI PUSH2 0x45CB PUSH2 0x6DCB JUMP JUMPDEST SWAP1 PUSH0 MSTORE PUSH1 0x20 PUSH0 KECCAK256 ADD PUSH0 SWAP1 SLOAD SWAP1 PUSH2 0x100 EXP SWAP1 DIV PUSH1 0x1 PUSH1 0x1 PUSH1 0xA0 SHL SUB AND DUP5 DUP4 DUP2 MLOAD DUP2 LT PUSH2 0x45F8 JUMPI PUSH2 0x45F8 PUSH2 0x6DCB JUMP JUMPDEST PUSH1 0x20 MUL PUSH1 0x20 ADD ADD SWAP1 PUSH1 0x1 PUSH1 0x1 PUSH1 0xA0 SHL SUB AND SWAP1 DUP2 PUSH1 0x1 PUSH1 0x1 PUSH1 0xA0 SHL SUB AND DUP2 MSTORE POP POP DUP5 DUP4 DUP4 DUP2 MLOAD DUP2 LT PUSH2 0x462B JUMPI PUSH2 0x462B PUSH2 0x6DCB JUMP JUMPDEST PUSH1 0x20 SWAP1 DUP2 MUL SWAP2 SWAP1 SWAP2 ADD ADD MSTORE DUP2 PUSH2 0x4640 DUP2 PUSH2 0x6E0C JUMP JUMPDEST SWAP3 POP POP PUSH1 0x1 ADD PUSH2 0x45B1 JUMP JUMPDEST POP PUSH1 0x40 MLOAD PUSH4 0xBD0DC97 PUSH1 0xE4 SHL DUP2 MSTORE PUSH1 0x1 PUSH1 0x1 PUSH1 0xA0 SHL SUB DUP10 AND SWAP1 PUSH4 0xBD0DC970 SWAP1 PUSH2 0x4682 SWAP1 PUSH0 SWAP1 DUP8 SWAP1 DUP8 SWAP1 PUSH1 0x1 SWAP1 PUSH1 0x8 SWAP1 PUSH1 0x4 ADD PUSH2 0x7570 JUMP JUMPDEST PUSH0 PUSH1 0x40 MLOAD DUP1 DUP4 SUB DUP2 PUSH0 DUP8 DUP1 EXTCODESIZE ISZERO DUP1 ISZERO PUSH2 0x4699 JUMPI PUSH0 PUSH0 REVERT JUMPDEST POP GAS CALL ISZERO DUP1 ISZERO PUSH2 0x46AB JUMPI RETURNDATASIZE PUSH0 PUSH0 RETURNDATACOPY RETURNDATASIZE PUSH0 REVERT JUMPDEST POP POP POP POP POP POP POP POP POP POP POP POP JUMP JUMPDEST PUSH1 0x1 PUSH1 0x1 PUSH1 0xA0 SHL SUB DUP1 DUP3 AND PUSH0 DUP2 DUP2 MSTORE PUSH1 0x20 DUP9 SWAP1 MSTORE PUSH1 0x40 SWAP1 KECCAK256 PUSH1 0x2 ADD SLOAD PUSH1 0xFF AND SWAP2 DUP5 AND SWAP1 SUB PUSH2 0x470B JUMPI PUSH0 JUMPDEST PUSH1 0x4 DUP2 PUSH1 0xFF AND LT ISZERO PUSH2 0x4705 JUMPI PUSH2 0x46FD DUP7 DUP5 DUP4 PUSH0 PUSH0 PUSH0 PUSH2 0x5B51 JUMP JUMPDEST PUSH1 0x1 ADD PUSH2 0x46E3 JUMP JUMPDEST POP PUSH2 0x495A JUMP JUMPDEST PUSH1 0x5 DUP2 PUSH1 0x7 DUP2 GT ISZERO PUSH2 0x471F JUMPI PUSH2 0x471F PUSH2 0x6888 JUMP JUMPDEST EQ DUP1 PUSH2 0x473C JUMPI POP PUSH1 0x6 DUP2 PUSH1 0x7 DUP2 GT ISZERO PUSH2 0x473A JUMPI PUSH2 0x473A PUSH2 0x6888 JUMP JUMPDEST EQ JUMPDEST DUP1 PUSH2 0x4758 JUMPI POP PUSH1 0x7 DUP2 PUSH1 0x7 DUP2 GT ISZERO PUSH2 0x4756 JUMPI PUSH2 0x4756 PUSH2 0x6888 JUMP JUMPDEST EQ JUMPDEST ISZERO PUSH2 0x488A JUMPI PUSH1 0x1 PUSH1 0x1 PUSH1 0xA0 SHL SUB DUP1 DUP4 AND PUSH0 DUP2 DUP2 MSTORE PUSH1 0x20 DUP8 DUP2 MSTORE PUSH1 0x40 DUP1 DUP4 KECCAK256 DUP1 SLOAD PUSH1 0x1 PUSH1 0x1 PUSH1 0xA0 SHL SUB NOT AND SWAP1 SWAP5 OR SWAP1 SWAP4 SSTORE DUP10 SWAP1 MSTORE KECCAK256 SLOAD AND DUP1 PUSH2 0x47AB JUMPI PUSH1 0x40 MLOAD PUSH3 0x461BCD PUSH1 0xE5 SHL DUP2 MSTORE PUSH1 0x4 ADD PUSH2 0x733 SWAP1 PUSH2 0x75D8 JUMP JUMPDEST PUSH0 JUMPDEST PUSH1 0x4 DUP2 PUSH1 0xFF AND LT ISZERO PUSH2 0x4883 JUMPI PUSH0 DUP1 DUP1 PUSH1 0x7 DUP7 PUSH1 0x7 DUP2 GT ISZERO PUSH2 0x47D0 JUMPI PUSH2 0x47D0 PUSH2 0x6888 JUMP JUMPDEST SUB PUSH2 0x47E2 JUMPI POP DUP6 SWAP2 POP DUP2 SWAP1 POP DUP1 PUSH2 0x486A JUMP JUMPDEST PUSH1 0x6 DUP7 PUSH1 0x7 DUP2 GT ISZERO PUSH2 0x47F6 JUMPI PUSH2 0x47F6 PUSH2 0x6888 JUMP JUMPDEST SUB PUSH2 0x4830 JUMPI POP POP POP PUSH1 0x1 PUSH1 0x1 PUSH1 0xA0 SHL SUB DUP1 DUP4 AND PUSH0 SWAP1 DUP2 MSTORE PUSH1 0x20 DUP10 DUP2 MSTORE PUSH1 0x40 DUP1 DUP4 KECCAK256 PUSH1 0xFF DUP7 AND DUP5 MSTORE SWAP1 SWAP2 MSTORE SWAP1 KECCAK256 PUSH1 0x2 ADD SLOAD DUP6 SWAP2 DUP3 SWAP2 AND PUSH2 0x486A JUMP JUMPDEST POP POP POP PUSH1 0x1 PUSH1 0x1 PUSH1 0xA0 SHL SUB DUP3 DUP2 AND PUSH0 SWAP1 DUP2 MSTORE PUSH1 0x20 DUP10 DUP2 MSTORE PUSH1 0x40 DUP1 DUP4 KECCAK256 PUSH1 0xFF DUP7 AND DUP5 MSTORE SWAP1 SWAP2 MSTORE SWAP1 KECCAK256 PUSH1 0x2 DUP2 ADD SLOAD PUSH1 0x1 SWAP1 SWAP2 ADD SLOAD DUP7 SWAP3 SWAP1 DUP2 AND SWAP2 AND JUMPDEST PUSH2 0x4878 DUP11 DUP9 DUP7 DUP7 DUP7 DUP7 PUSH2 0x5B51 JUMP JUMPDEST POP POP POP PUSH1 0x1 ADD PUSH2 0x47AD JUMP JUMPDEST POP POP PUSH2 0x495A JUMP JUMPDEST PUSH1 0x1 PUSH1 0x1 PUSH1 0xA0 SHL SUB DUP1 DUP4 AND PUSH0 SWAP1 DUP2 MSTORE PUSH1 0x20 DUP9 SWAP1 MSTORE PUSH1 0x40 SWAP1 KECCAK256 SLOAD AND DUP1 PUSH2 0x48C1 JUMPI PUSH1 0x40 MLOAD PUSH3 0x461BCD PUSH1 0xE5 SHL DUP2 MSTORE PUSH1 0x4 ADD PUSH2 0x733 SWAP1 PUSH2 0x75D8 JUMP JUMPDEST PUSH0 JUMPDEST PUSH1 0x4 DUP2 PUSH1 0xFF AND LT ISZERO PUSH2 0x48E3 JUMPI PUSH2 0x48DB DUP8 DUP4 DUP7 DUP5 PUSH2 0x5BD8 JUMP JUMPDEST PUSH1 0x1 ADD PUSH2 0x48C3 JUMP JUMPDEST POP PUSH1 0x4 DUP3 PUSH1 0x7 DUP2 GT ISZERO PUSH2 0x48F8 JUMPI PUSH2 0x48F8 PUSH2 0x6888 JUMP JUMPDEST SUB PUSH2 0x492A JUMPI PUSH1 0x1 PUSH1 0x1 PUSH1 0xA0 SHL SUB DUP4 AND PUSH0 DUP2 DUP2 MSTORE PUSH1 0x20 DUP8 SWAP1 MSTORE PUSH1 0x40 SWAP1 KECCAK256 DUP1 SLOAD PUSH1 0x1 PUSH1 0x1 PUSH1 0xA0 SHL SUB NOT AND SWAP1 SWAP2 OR SWAP1 SSTORE PUSH2 0x4958 JUMP JUMPDEST PUSH1 0x1 PUSH1 0x1 PUSH1 0xA0 SHL SUB DUP4 DUP2 AND PUSH0 SWAP1 DUP2 MSTORE PUSH1 0x20 DUP8 SWAP1 MSTORE PUSH1 0x40 SWAP1 KECCAK256 DUP1 SLOAD PUSH1 0x1 PUSH1 0x1 PUSH1 0xA0 SHL SUB NOT AND SWAP2 DUP4 AND SWAP2 SWAP1 SWAP2 OR SWAP1 SSTORE JUMPDEST POP JUMPDEST PUSH1 0x1 PUSH1 0x1 PUSH1 0xA0 SHL SUB DUP3 AND PUSH0 SWAP1 DUP2 MSTORE PUSH1 0x20 DUP8 SWAP1 MSTORE PUSH1 0x40 DUP2 KECCAK256 PUSH1 0x1 ADD SWAP1 JUMPDEST DUP2 SLOAD DUP2 LT ISZERO PUSH2 0x13E5 JUMPI PUSH2 0x49B1 DUP9 DUP9 DUP9 DUP9 DUP7 DUP7 DUP2 SLOAD DUP2 LT PUSH2 0x4998 JUMPI PUSH2 0x4998 PUSH2 0x6DCB JUMP JUMPDEST PUSH0 SWAP2 DUP3 MSTORE PUSH1 0x20 SWAP1 SWAP2 KECCAK256 ADD SLOAD PUSH1 0x1 PUSH1 0x1 PUSH1 0xA0 SHL SUB AND PUSH2 0x46B9 JUMP JUMPDEST PUSH1 0x1 ADD PUSH2 0x4976 JUMP JUMPDEST PUSH1 0x11 SLOAD PUSH1 0xFF AND ISZERO PUSH2 0x4A06 JUMPI PUSH1 0x40 MLOAD PUSH3 0x461BCD PUSH1 0xE5 SHL DUP2 MSTORE PUSH1 0x20 PUSH1 0x4 DUP3 ADD MSTORE PUSH1 0x17 PUSH1 0x24 DUP3 ADD MSTORE PUSH23 0x4261746368207570646174652069732072756E6E696E67 PUSH1 0x48 SHL PUSH1 0x44 DUP3 ADD MSTORE PUSH1 0x64 ADD PUSH2 0x733 JUMP JUMPDEST PUSH0 JUMPDEST PUSH1 0xF SLOAD DUP2 LT ISZERO PUSH2 0x4AD0 JUMPI PUSH2 0x4AC8 PUSH1 0xF DUP3 DUP2 SLOAD DUP2 LT PUSH2 0x4A28 JUMPI PUSH2 0x4A28 PUSH2 0x6DCB JUMP JUMPDEST PUSH0 SWAP2 DUP3 MSTORE PUSH1 0x20 SWAP1 SWAP2 KECCAK256 PUSH1 0x5 SWAP1 SWAP2 MUL ADD SLOAD PUSH1 0xF DUP1 SLOAD PUSH1 0x1 PUSH1 0x1 PUSH1 0xA0 SHL SUB SWAP1 SWAP3 AND SWAP2 DUP5 SWAP1 DUP2 LT PUSH2 0x4A58 JUMPI PUSH2 0x4A58 PUSH2 0x6DCB JUMP JUMPDEST SWAP1 PUSH0 MSTORE PUSH1 0x20 PUSH0 KECCAK256 SWAP1 PUSH1 0x5 MUL ADD PUSH1 0x1 ADD PUSH0 SWAP1 SLOAD SWAP1 PUSH2 0x100 EXP SWAP1 DIV PUSH1 0x1 PUSH1 0x1 PUSH1 0xA0 SHL SUB AND PUSH1 0xF DUP5 DUP2 SLOAD DUP2 LT PUSH2 0x4A8D JUMPI PUSH2 0x4A8D PUSH2 0x6DCB JUMP JUMPDEST SWAP1 PUSH0 MSTORE PUSH1 0x20 PUSH0 KECCAK256 SWAP1 PUSH1 0x5 MUL ADD PUSH1 0x2 ADD SLOAD PUSH1 0xF DUP6 DUP2 SLOAD DUP2 LT PUSH2 0x4AB0 JUMPI PUSH2 0x4AB0 PUSH2 0x6DCB JUMP JUMPDEST SWAP1 PUSH0 MSTORE PUSH1 0x20 PUSH0 KECCAK256 SWAP1 PUSH1 0x5 MUL ADD PUSH1 0x3 ADD SLOAD PUSH0 PUSH0 SHL PUSH2 0x4B5A JUMP JUMPDEST PUSH1 0x1 ADD PUSH2 0x4A08 JUMP JUMPDEST POP PUSH2 0x4ADC PUSH1 0xF PUSH0 PUSH2 0x6514 JUMP JUMPDEST PUSH0 JUMPDEST PUSH1 0x10 SLOAD DUP2 LT ISZERO PUSH2 0x4B4E JUMPI PUSH2 0x4B46 PUSH1 0x10 DUP3 DUP2 SLOAD DUP2 LT PUSH2 0x4AFE JUMPI PUSH2 0x4AFE PUSH2 0x6DCB JUMP JUMPDEST PUSH0 SWAP2 DUP3 MSTORE PUSH1 0x20 SWAP1 SWAP2 KECCAK256 PUSH1 0x3 SWAP1 SWAP2 MUL ADD SLOAD PUSH1 0x10 DUP1 SLOAD PUSH1 0x1 PUSH1 0x1 PUSH1 0xA0 SHL SUB SWAP1 SWAP3 AND SWAP2 DUP5 SWAP1 DUP2 LT PUSH2 0x4B2E JUMPI PUSH2 0x4B2E PUSH2 0x6DCB JUMP JUMPDEST SWAP1 PUSH0 MSTORE PUSH1 0x20 PUSH0 KECCAK256 SWAP1 PUSH1 0x3 MUL ADD PUSH1 0x1 ADD SLOAD PUSH0 PUSH0 SHL PUSH2 0x55BC JUMP JUMPDEST PUSH1 0x1 ADD PUSH2 0x4ADE JUMP JUMPDEST POP PUSH2 0x1430 PUSH1 0x10 PUSH0 PUSH2 0x6532 JUMP JUMPDEST PUSH1 0x1C SLOAD PUSH1 0x40 MLOAD PUSH4 0x7CCE9939 PUSH1 0xE0 SHL DUP2 MSTORE PUSH1 0x4 DUP2 ADD DUP5 SWAP1 MSTORE PUSH1 0x24 DUP2 ADD DUP6 SWAP1 MSTORE PUSH0 SWAP2 PUSH1 0x1 PUSH1 0x1 PUSH1 0xA0 SHL SUB AND SWAP1 PUSH4 0x7CCE9939 SWAP1 PUSH1 0x44 ADD PUSH1 0x20 PUSH1 0x40 MLOAD DUP1 DUP4 SUB DUP2 DUP7 GAS STATICCALL ISZERO DUP1 ISZERO PUSH2 0x4BA8 JUMPI RETURNDATASIZE PUSH0 PUSH0 RETURNDATACOPY RETURNDATASIZE PUSH0 REVERT JUMPDEST POP POP POP POP PUSH1 0x40 MLOAD RETURNDATASIZE PUSH1 0x1F NOT PUSH1 0x1F DUP3 ADD AND DUP3 ADD DUP1 PUSH1 0x40 MSTORE POP DUP2 ADD SWAP1 PUSH2 0x4BCC SWAP2 SWAP1 PUSH2 0x6F16 JUMP JUMPDEST PUSH1 0x40 DUP1 MLOAD PUSH1 0x80 DUP2 ADD DUP3 MSTORE PUSH1 0x1 PUSH1 0x1 PUSH1 0xA0 SHL SUB DUP9 DUP2 AND DUP3 MSTORE DUP3 MLOAD PUSH0 DUP1 DUP3 MSTORE PUSH1 0x20 DUP1 DUP4 ADD DUP7 MSTORE DUP1 DUP6 ADD SWAP3 DUP4 MSTORE DUP5 DUP7 ADD DUP3 SWAP1 MSTORE PUSH1 0x60 DUP6 ADD DUP3 SWAP1 MSTORE DUP13 DUP5 AND DUP3 MSTORE PUSH1 0x4 DUP2 MSTORE SWAP5 SWAP1 KECCAK256 DUP4 MLOAD DUP2 SLOAD PUSH1 0x1 PUSH1 0x1 PUSH1 0xA0 SHL SUB NOT AND SWAP4 AND SWAP3 SWAP1 SWAP3 OR DUP3 SSTORE MLOAD DUP1 MLOAD SWAP5 SWAP6 POP SWAP2 SWAP4 SWAP1 SWAP3 PUSH2 0x4C40 SWAP3 PUSH1 0x1 DUP6 ADD SWAP3 SWAP2 ADD SWAP1 PUSH2 0x6550 JUMP JUMPDEST POP PUSH1 0x40 DUP3 ADD MLOAD PUSH1 0x2 DUP3 ADD DUP1 SLOAD PUSH1 0xFF NOT AND PUSH1 0x1 DUP4 PUSH1 0x7 DUP2 GT ISZERO PUSH2 0x4C64 JUMPI PUSH2 0x4C64 PUSH2 0x6888 JUMP JUMPDEST MUL OR SWAP1 SSTORE POP PUSH1 0x60 DUP3 ADD MLOAD PUSH1 0x2 DUP3 ADD DUP1 SLOAD PUSH2 0xFF00 NOT AND PUSH2 0x100 DUP4 PUSH1 0x3 DUP2 GT ISZERO PUSH2 0x4C8E JUMPI PUSH2 0x4C8E PUSH2 0x6888 JUMP JUMPDEST MUL OR SWAP1 SSTORE POP SWAP1 POP POP PUSH1 0x40 MLOAD DUP1 PUSH1 0xA0 ADD PUSH1 0x40 MSTORE DUP1 TIMESTAMP PUSH4 0x1E13380 PUSH2 0x4CB1 SWAP2 SWAP1 PUSH2 0x6DA5 JUMP JUMPDEST DUP2 MSTORE PUSH0 PUSH1 0x20 DUP1 DUP4 ADD DUP3 SWAP1 MSTORE PUSH1 0x40 DUP1 DUP5 ADD DUP4 SWAP1 MSTORE PUSH1 0x60 DUP1 DUP6 ADD DUP5 SWAP1 MSTORE PUSH1 0x80 SWAP5 DUP6 ADD DUP5 SWAP1 MSTORE PUSH1 0x1 PUSH1 0x1 PUSH1 0xA0 SHL SUB DUP13 AND DUP5 MSTORE PUSH1 0x5 DUP4 MSTORE DUP2 DUP5 KECCAK256 DUP7 MLOAD DUP2 SSTORE DUP7 DUP5 ADD MLOAD PUSH1 0x1 DUP3 ADD SSTORE DUP7 DUP4 ADD MLOAD PUSH1 0x2 DUP3 ADD SSTORE SWAP1 DUP7 ADD MLOAD PUSH1 0x3 DUP3 ADD SSTORE SWAP5 SWAP1 SWAP4 ADD MLOAD PUSH1 0x4 SWAP1 SWAP5 ADD SWAP4 SWAP1 SWAP4 SSTORE SWAP1 MLOAD SWAP1 SWAP2 PUSH2 0x4D37 SWAP2 DUP10 SWAP2 ADD PUSH1 0x60 SWAP2 SWAP1 SWAP2 SHL PUSH1 0x1 PUSH1 0x1 PUSH1 0x60 SHL SUB NOT AND DUP2 MSTORE PUSH1 0x14 ADD SWAP1 JUMP JUMPDEST PUSH1 0x40 DUP1 MLOAD DUP1 DUP4 SUB PUSH1 0x1F NOT ADD DUP2 MSTORE SWAP1 DUP3 SWAP1 MSTORE DUP1 MLOAD PUSH1 0x20 SWAP1 SWAP2 ADD KECCAK256 PUSH1 0x1B SLOAD PUSH4 0x180DB04B PUSH1 0xE1 SHL DUP4 MSTORE PUSH1 0x4 DUP4 ADD DUP3 SWAP1 MSTORE SWAP1 SWAP3 POP PUSH0 SWAP2 PUSH1 0x1 PUSH1 0x1 PUSH1 0xA0 SHL SUB SWAP1 SWAP2 AND SWAP1 PUSH4 0x301B6096 SWAP1 PUSH1 0x24 ADD PUSH1 0x20 PUSH1 0x40 MLOAD DUP1 DUP4 SUB DUP2 DUP7 GAS STATICCALL ISZERO DUP1 ISZERO PUSH2 0x4D99 JUMPI RETURNDATASIZE PUSH0 PUSH0 RETURNDATACOPY RETURNDATASIZE PUSH0 REVERT JUMPDEST POP POP POP POP PUSH1 0x40 MLOAD RETURNDATASIZE PUSH1 0x1F NOT PUSH1 0x1F DUP3 ADD AND DUP3 ADD DUP1 PUSH1 0x40 MSTORE POP DUP2 ADD SWAP1 PUSH2 0x4DBD SWAP2 SWAP1 PUSH2 0x6F16 JUMP JUMPDEST PUSH1 0x1 PUSH1 0x1 PUSH1 0xA0 SHL SUB AND EQ PUSH2 0x4E2D JUMPI PUSH1 0x1B SLOAD PUSH1 0x40 MLOAD PUSH4 0x590F6187 PUSH1 0xE1 SHL DUP2 MSTORE PUSH1 0x1 PUSH1 0x1 PUSH1 0xA0 SHL SUB SWAP1 SWAP2 AND SWAP1 PUSH4 0xB21EC30E SWAP1 PUSH2 0x4DFF SWAP1 DUP11 SWAP1 DUP10 SWAP1 DUP10 SWAP1 PUSH1 0x4 ADD PUSH2 0x6FB5 JUMP JUMPDEST PUSH0 PUSH1 0x40 MLOAD DUP1 DUP4 SUB DUP2 PUSH0 DUP8 DUP1 EXTCODESIZE ISZERO DUP1 ISZERO PUSH2 0x4E16 JUMPI PUSH0 PUSH0 REVERT JUMPDEST POP GAS CALL ISZERO DUP1 ISZERO PUSH2 0x4E28 JUMPI RETURNDATASIZE PUSH0 PUSH0 RETURNDATACOPY RETURNDATASIZE PUSH0 REVERT JUMPDEST POP POP POP POP JUMPDEST PUSH1 0x1 PUSH1 0x1 PUSH1 0xA0 SHL SUB DUP3 AND ISZERO PUSH2 0x4E6A JUMPI PUSH1 0x1 PUSH1 0x1 PUSH1 0xA0 SHL SUB DUP8 DUP2 AND PUSH0 SWAP1 DUP2 MSTORE PUSH1 0x6 PUSH1 0x20 MSTORE PUSH1 0x40 SWAP1 KECCAK256 DUP1 SLOAD PUSH1 0x1 PUSH1 0x1 PUSH1 0xA0 SHL SUB NOT AND SWAP2 DUP5 AND SWAP2 SWAP1 SWAP2 OR SWAP1 SSTORE JUMPDEST PUSH1 0x3 DUP1 SLOAD PUSH1 0x1 DUP2 DUP2 ADD SWAP1 SWAP3 SSTORE PUSH32 0xC2575A0E9E593C00F959F8C92F12DB2869C3395A3B0502D05E2516446F71F85B ADD DUP1 SLOAD PUSH1 0x1 PUSH1 0x1 PUSH1 0xA0 SHL SUB DUP1 DUP12 AND PUSH1 0x1 PUSH1 0x1 PUSH1 0xA0 SHL SUB NOT SWAP3 DUP4 AND DUP2 OR SWAP1 SWAP4 SSTORE DUP10 AND PUSH0 DUP2 DUP2 MSTORE PUSH1 0x4 PUSH1 0x20 SWAP1 DUP2 MSTORE PUSH1 0x40 DUP1 DUP4 KECCAK256 DUP8 ADD DUP1 SLOAD DUP1 DUP10 ADD DUP3 SSTORE SWAP1 DUP5 MSTORE DUP3 DUP5 KECCAK256 ADD DUP1 SLOAD SWAP1 SWAP6 AND SWAP1 SWAP6 OR SWAP1 SWAP4 SSTORE SWAP1 DUP2 MSTORE PUSH1 0x7 SWAP1 SWAP2 MSTORE SWAP1 DUP2 KECCAK256 DUP1 SLOAD SWAP1 SWAP2 SWAP1 PUSH2 0x4EFE SWAP1 DUP5 SWAP1 PUSH2 0x6DA5 JUMP JUMPDEST SWAP1 SWAP2 SSTORE POP POP PUSH1 0x1 PUSH1 0x1 PUSH1 0xA0 SHL SUB DUP7 AND PUSH0 SWAP1 DUP2 MSTORE PUSH1 0x9 PUSH1 0x20 MSTORE PUSH1 0x40 DUP2 KECCAK256 DUP1 SLOAD PUSH1 0x1 SWAP3 SWAP1 PUSH2 0x4F2B SWAP1 DUP5 SWAP1 PUSH2 0x6DA5 JUMP JUMPDEST SWAP1 SWAP2 SSTORE POP PUSH1 0x1 SWAP1 POP PUSH1 0x1 PUSH1 0x1 PUSH1 0xA0 SHL SUB DUP8 AND PUSH0 SWAP1 DUP2 MSTORE PUSH1 0x4 PUSH1 0x20 MSTORE PUSH1 0x40 SWAP1 KECCAK256 PUSH1 0x2 ADD SLOAD PUSH2 0x100 SWAP1 DIV PUSH1 0xFF AND PUSH1 0x3 DUP2 GT ISZERO PUSH2 0x4F67 JUMPI PUSH2 0x4F67 PUSH2 0x6888 JUMP JUMPDEST EQ PUSH2 0x4F7E JUMPI PUSH2 0x4F79 PUSH1 0x4 PUSH1 0xC DUP9 PUSH2 0x5C89 JUMP JUMPDEST PUSH2 0x4F80 JUMP JUMPDEST DUP6 JUMPDEST PUSH1 0x1 PUSH1 0x1 PUSH1 0xA0 SHL SUB DUP1 DUP10 AND PUSH0 DUP2 DUP2 MSTORE PUSH1 0xC PUSH1 0x20 MSTORE PUSH1 0x40 DUP1 DUP3 KECCAK256 DUP1 SLOAD SWAP6 DUP6 AND PUSH1 0x1 PUSH1 0x1 PUSH1 0xA0 SHL SUB NOT SWAP7 DUP8 AND OR SWAP1 SSTORE PUSH1 0xE DUP1 SLOAD PUSH1 0x1 DUP2 DUP2 ADD DUP4 SSTORE SWAP2 SWAP1 SWAP4 MSTORE PUSH32 0xBB7B4A454DC3493923482F07822329ED19E8244EFF582CC204F8554C3620C3FD SWAP1 SWAP3 ADD DUP1 SLOAD SWAP1 SWAP6 AND SWAP1 SWAP3 OR SWAP1 SWAP4 SSTORE PUSH1 0x1B SLOAD SWAP1 MLOAD PUSH4 0xE115DC7F PUSH1 0xE0 SHL DUP2 MSTORE SWAP2 AND SWAP2 PUSH4 0xE115DC7F SWAP2 PUSH2 0x5019 SWAP2 DUP11 SWAP2 DUP9 SWAP2 PUSH1 0xA SWAP2 PUSH1 0x3 SWAP1 PUSH1 0x4 ADD PUSH2 0x6F82 JUMP JUMPDEST PUSH0 PUSH1 0x40 MLOAD DUP1 DUP4 SUB DUP2 PUSH0 DUP8 DUP1 EXTCODESIZE ISZERO DUP1 ISZERO PUSH2 0x5030 JUMPI PUSH0 PUSH0 REVERT JUMPDEST POP GAS CALL ISZERO DUP1 ISZERO PUSH2 0x5042 JUMPI RETURNDATASIZE PUSH0 PUSH0 RETURNDATACOPY RETURNDATASIZE PUSH0 REVERT JUMPDEST POP POP POP POP PUSH1 0x1 PUSH1 0x1 PUSH1 0xA0 SHL SUB DUP3 AND ISZERO PUSH2 0x5148 JUMPI PUSH1 0x1C SLOAD PUSH1 0x40 MLOAD PUSH4 0xDA77ABED PUSH1 0xE0 SHL DUP2 MSTORE PUSH0 SWAP2 PUSH1 0x1 PUSH1 0x1 PUSH1 0xA0 SHL SUB AND SWAP1 PUSH4 0xDA77ABED SWAP1 PUSH2 0x5088 SWAP1 DUP7 SWAP1 PUSH1 0x1 SWAP1 PUSH1 0x4 ADD PUSH2 0x70D7 JUMP JUMPDEST PUSH1 0x20 PUSH1 0x40 MLOAD DUP1 DUP4 SUB DUP2 PUSH0 DUP8 GAS CALL ISZERO DUP1 ISZERO PUSH2 0x50A4 JUMPI RETURNDATASIZE PUSH0 PUSH0 RETURNDATACOPY RETURNDATASIZE PUSH0 REVERT JUMPDEST POP POP POP POP PUSH1 0x40 MLOAD RETURNDATASIZE PUSH1 0x1F NOT PUSH1 0x1F DUP3 ADD AND DUP3 ADD DUP1 PUSH1 0x40 MSTORE POP DUP2 ADD SWAP1 PUSH2 0x50C8 SWAP2 SWAP1 PUSH2 0x71C2 JUMP JUMPDEST PUSH1 0x1B SLOAD SWAP1 SWAP2 POP PUSH1 0x1 PUSH1 0x1 PUSH1 0xA0 SHL SUB AND PUSH4 0xE115DC7F DUP5 DUP7 PUSH1 0x64 PUSH2 0x50EB DUP7 PUSH1 0x14 PUSH2 0x74C1 JUMP JUMPDEST PUSH2 0x50F5 SWAP2 SWAP1 PUSH2 0x6F6F JUMP JUMPDEST PUSH1 0x1 PUSH1 0x4 PUSH1 0x40 MLOAD DUP7 PUSH4 0xFFFFFFFF AND PUSH1 0xE0 SHL DUP2 MSTORE PUSH1 0x4 ADD PUSH2 0x5119 SWAP6 SWAP5 SWAP4 SWAP3 SWAP2 SWAP1 PUSH2 0x6F82 JUMP JUMPDEST PUSH0 PUSH1 0x40 MLOAD DUP1 DUP4 SUB DUP2 PUSH0 DUP8 DUP1 EXTCODESIZE ISZERO DUP1 ISZERO PUSH2 0x5130 JUMPI PUSH0 PUSH0 REVERT JUMPDEST POP GAS CALL ISZERO DUP1 ISZERO PUSH2 0x5142 JUMPI RETURNDATASIZE PUSH0 PUSH0 RETURNDATACOPY RETURNDATASIZE PUSH0 REVERT JUMPDEST POP POP POP POP POP JUMPDEST PUSH1 0x1B SLOAD PUSH1 0x16 SLOAD PUSH1 0x1 PUSH1 0x1 PUSH1 0xA0 SHL SUB SWAP2 DUP3 AND SWAP2 PUSH4 0xE115DC7F SWAP2 AND DUP6 PUSH2 0x516E PUSH1 0xA PUSH1 0x14 PUSH2 0x6DA5 JUMP JUMPDEST PUSH2 0x517F PUSH3 0xF4240 PUSH4 0x2625A00 PUSH2 0x6F6F JUMP JUMPDEST PUSH2 0x5189 SWAP2 SWAP1 PUSH2 0x6DB8 JUMP JUMPDEST PUSH1 0x1 PUSH1 0x2 PUSH1 0x40 MLOAD DUP7 PUSH4 0xFFFFFFFF AND PUSH1 0xE0 SHL DUP2 MSTORE PUSH1 0x4 ADD PUSH2 0x51AD SWAP6 SWAP5 SWAP4 SWAP3 SWAP2 SWAP1 PUSH2 0x6F82 JUMP JUMPDEST PUSH0 PUSH1 0x40 MLOAD DUP1 DUP4 SUB DUP2 PUSH0 DUP8 DUP1 EXTCODESIZE ISZERO DUP1 ISZERO PUSH2 0x51C4 JUMPI PUSH0 PUSH0 REVERT JUMPDEST POP GAS CALL ISZERO DUP1 ISZERO PUSH2 0x51D6 JUMPI RETURNDATASIZE PUSH0 PUSH0 RETURNDATACOPY RETURNDATASIZE PUSH0 REVERT JUMPDEST POP POP POP POP POP POP POP POP POP POP POP JUMP JUMPDEST PUSH1 0x1 DUP4 ADD SLOAD DUP2 LT PUSH2 0x522C JUMPI PUSH1 0x40 MLOAD PUSH3 0x461BCD PUSH1 0xE5 SHL DUP2 MSTORE PUSH1 0x20 PUSH1 0x4 DUP3 ADD MSTORE PUSH1 0x13 PUSH1 0x24 DUP3 ADD MSTORE PUSH19 0x125B9D985B1A59081859D95B9D081B195D995B PUSH1 0x6A SHL PUSH1 0x44 DUP3 ADD MSTORE PUSH1 0x64 ADD PUSH2 0x733 JUMP JUMPDEST PUSH1 0x1 PUSH1 0x1 PUSH1 0xA0 SHL SUB SWAP1 SWAP2 AND PUSH0 SWAP1 DUP2 MSTORE PUSH1 0x20 SWAP3 SWAP1 SWAP3 MSTORE PUSH1 0x40 SWAP1 SWAP2 KECCAK256 SSTORE JUMP JUMPDEST PUSH1 0x1 PUSH1 0x1 PUSH1 0xA0 SHL SUB DUP2 AND PUSH0 SWAP1 DUP2 MSTORE PUSH1 0x20 DUP5 SWAP1 MSTORE PUSH1 0x40 DUP2 KECCAK256 PUSH1 0x3 ADD SLOAD SWAP1 PUSH2 0x526F DUP7 DUP5 PUSH2 0x5D20 JUMP JUMPDEST SWAP1 POP PUSH3 0x186A0 DUP3 LT ISZERO DUP1 ISZERO PUSH2 0x5285 JUMPI POP PUSH1 0x7 DUP2 LT ISZERO JUMPDEST ISZERO PUSH2 0x52D3 JUMPI PUSH1 0x1 PUSH1 0x1 PUSH1 0xA0 SHL SUB DUP4 AND PUSH0 DUP2 DUP2 MSTORE PUSH1 0x20 DUP9 DUP2 MSTORE PUSH1 0x40 DUP3 KECCAK256 PUSH1 0x2 ADD DUP1 SLOAD PUSH1 0xFF NOT AND PUSH1 0x7 OR SWAP1 SSTORE DUP7 SLOAD PUSH1 0x1 DUP2 ADD DUP9 SSTORE DUP8 DUP4 MSTORE SWAP2 KECCAK256 ADD DUP1 SLOAD PUSH1 0x1 PUSH1 0x1 PUSH1 0xA0 SHL SUB NOT AND SWAP1 SWAP2 OR SWAP1 SSTORE PUSH2 0x18DF JUMP JUMPDEST PUSH2 0xC350 DUP3 LT ISZERO DUP1 ISZERO PUSH2 0x52E6 JUMPI POP PUSH1 0x6 DUP2 LT ISZERO JUMPDEST ISZERO PUSH2 0x531D JUMPI PUSH1 0x1 PUSH1 0x1 PUSH1 0xA0 SHL SUB DUP4 AND PUSH0 SWAP1 DUP2 MSTORE PUSH1 0x20 DUP8 SWAP1 MSTORE PUSH1 0x40 SWAP1 KECCAK256 PUSH1 0x2 ADD DUP1 SLOAD PUSH1 0x6 SWAP2 SWAP1 PUSH1 0xFF NOT AND PUSH1 0x1 DUP4 JUMPDEST MUL OR SWAP1 SSTORE POP PUSH2 0x18DF JUMP JUMPDEST PUSH2 0x61A8 DUP3 LT ISZERO DUP1 ISZERO PUSH2 0x5330 JUMPI POP PUSH1 0x5 DUP2 LT ISZERO JUMPDEST ISZERO PUSH2 0x5361 JUMPI PUSH1 0x1 PUSH1 0x1 PUSH1 0xA0 SHL SUB DUP4 AND PUSH0 SWAP1 DUP2 MSTORE PUSH1 0x20 DUP8 SWAP1 MSTORE PUSH1 0x40 SWAP1 KECCAK256 PUSH1 0x2 ADD DUP1 SLOAD PUSH1 0x5 SWAP2 SWAP1 PUSH1 0xFF NOT AND PUSH1 0x1 DUP4 PUSH2 0x5313 JUMP JUMPDEST PUSH2 0x2710 DUP3 LT ISZERO DUP1 ISZERO PUSH2 0x5374 JUMPI POP PUSH1 0x4 DUP2 LT ISZERO JUMPDEST ISZERO PUSH2 0x53A5 JUMPI PUSH1 0x1 PUSH1 0x1 PUSH1 0xA0 SHL SUB DUP4 AND PUSH0 SWAP1 DUP2 MSTORE PUSH1 0x20 DUP8 SWAP1 MSTORE PUSH1 0x40 SWAP1 KECCAK256 PUSH1 0x2 ADD DUP1 SLOAD PUSH1 0x4 SWAP2 SWAP1 PUSH1 0xFF NOT AND PUSH1 0x1 DUP4 PUSH2 0x5313 JUMP JUMPDEST PUSH2 0x1388 DUP3 LT ISZERO DUP1 ISZERO PUSH2 0x53B8 JUMPI POP PUSH1 0x3 DUP2 LT ISZERO JUMPDEST ISZERO PUSH2 0x53E9 JUMPI PUSH1 0x1 PUSH1 0x1 PUSH1 0xA0 SHL SUB DUP4 AND PUSH0 SWAP1 DUP2 MSTORE PUSH1 0x20 DUP8 SWAP1 MSTORE PUSH1 0x40 SWAP1 KECCAK256 PUSH1 0x2 ADD DUP1 SLOAD PUSH1 0x3 SWAP2 SWAP1 PUSH1 0xFF NOT AND PUSH1 0x1 DUP4 PUSH2 0x5313 JUMP JUMPDEST PUSH2 0x9C4 DUP3 LT ISZERO DUP1 ISZERO PUSH2 0x53FC JUMPI POP PUSH1 0x2 DUP2 LT ISZERO JUMPDEST ISZERO PUSH2 0x542B JUMPI PUSH1 0x1 PUSH1 0x1 PUSH1 0xA0 SHL SUB DUP4 AND PUSH0 SWAP1 DUP2 MSTORE PUSH1 0x20 DUP8 SWAP1 MSTORE PUSH1 0x40 SWAP1 KECCAK256 PUSH1 0x2 SWAP1 DUP2 ADD DUP1 SLOAD PUSH1 0xFF NOT AND PUSH1 0x1 DUP4 PUSH2 0x5313 JUMP JUMPDEST PUSH1 0x1 DUP2 LT PUSH2 0x18DF JUMPI POP POP PUSH1 0x1 PUSH1 0x1 PUSH1 0xA0 SHL SUB AND PUSH0 SWAP1 DUP2 MSTORE PUSH1 0x20 SWAP4 SWAP1 SWAP4 MSTORE POP POP PUSH1 0x40 SWAP1 KECCAK256 PUSH1 0x2 ADD DUP1 SLOAD PUSH1 0xFF NOT AND PUSH1 0x1 OR SWAP1 SSTORE JUMP JUMPDEST PUSH1 0xE SLOAD PUSH0 SWAP1 PUSH1 0x1 PUSH1 0x1 PUSH1 0x40 SHL SUB DUP2 GT ISZERO PUSH2 0x547A JUMPI PUSH2 0x547A PUSH2 0x6662 JUMP JUMPDEST PUSH1 0x40 MLOAD SWAP1 DUP1 DUP3 MSTORE DUP1 PUSH1 0x20 MUL PUSH1 0x20 ADD DUP3 ADD PUSH1 0x40 MSTORE DUP1 ISZERO PUSH2 0x54A3 JUMPI DUP2 PUSH1 0x20 ADD PUSH1 0x20 DUP3 MUL DUP1 CALLDATASIZE DUP4 CALLDATACOPY ADD SWAP1 POP JUMPDEST POP SWAP1 POP PUSH0 DUP1 JUMPDEST PUSH1 0xE SLOAD DUP2 LT ISZERO PUSH2 0x5564 JUMPI PUSH1 0x4 PUSH0 PUSH1 0xE DUP4 DUP2 SLOAD DUP2 LT PUSH2 0x54C9 JUMPI PUSH2 0x54C9 PUSH2 0x6DCB JUMP JUMPDEST PUSH0 SWAP2 DUP3 MSTORE PUSH1 0x20 DUP1 DUP4 KECCAK256 SWAP1 SWAP2 ADD SLOAD PUSH1 0x1 PUSH1 0x1 PUSH1 0xA0 SHL SUB AND DUP4 MSTORE DUP3 ADD SWAP3 SWAP1 SWAP3 MSTORE PUSH1 0x40 ADD DUP2 KECCAK256 PUSH1 0x1 ADD SLOAD SWAP1 SUB PUSH2 0x555C JUMPI PUSH1 0xE DUP2 DUP2 SLOAD DUP2 LT PUSH2 0x5509 JUMPI PUSH2 0x5509 PUSH2 0x6DCB JUMP JUMPDEST SWAP1 PUSH0 MSTORE PUSH1 0x20 PUSH0 KECCAK256 ADD PUSH0 SWAP1 SLOAD SWAP1 PUSH2 0x100 EXP SWAP1 DIV PUSH1 0x1 PUSH1 0x1 PUSH1 0xA0 SHL SUB AND DUP4 DUP4 DUP2 MLOAD DUP2 LT PUSH2 0x5536 JUMPI PUSH2 0x5536 PUSH2 0x6DCB JUMP JUMPDEST PUSH1 0x1 PUSH1 0x1 PUSH1 0xA0 SHL SUB SWAP1 SWAP3 AND PUSH1 0x20 SWAP3 DUP4 MUL SWAP2 SWAP1 SWAP2 ADD SWAP1 SWAP2 ADD MSTORE DUP2 PUSH2 0x5558 DUP2 PUSH2 0x6E0C JUMP JUMPDEST SWAP3 POP POP JUMPDEST PUSH1 0x1 ADD PUSH2 0x54A9 JUMP JUMPDEST POP DUP1 DUP3 MSTORE PUSH2 0x82E PUSH1 0xE PUSH1 0x20 DUP5 ADD DUP4 PUSH2 0x6550 JUMP JUMPDEST PUSH2 0x1AD7 DUP3 DUP3 PUSH1 0x40 MLOAD PUSH1 0x24 ADD PUSH2 0x558D SWAP3 SWAP2 SWAP1 PUSH2 0x760B JUMP JUMPDEST PUSH1 0x40 DUP1 MLOAD PUSH1 0x1F NOT DUP2 DUP5 SUB ADD DUP2 MSTORE SWAP2 SWAP1 MSTORE PUSH1 0x20 DUP2 ADD DUP1 MLOAD PUSH1 0x1 PUSH1 0x1 PUSH1 0xE0 SHL SUB AND PUSH4 0x9710A9D PUSH1 0xE4 SHL OR SWAP1 MSTORE PUSH2 0x5DC3 JUMP JUMPDEST PUSH1 0x1 PUSH1 0x1 PUSH1 0xA0 SHL SUB DUP4 DUP2 AND PUSH0 SWAP1 DUP2 MSTORE PUSH1 0x12 PUSH1 0x20 MSTORE PUSH1 0x40 SWAP1 KECCAK256 SLOAD AND ISZERO PUSH2 0x55F9 JUMPI PUSH1 0x1 PUSH1 0x1 PUSH1 0xA0 SHL SUB SWAP3 DUP4 AND PUSH0 SWAP1 DUP2 MSTORE PUSH1 0x12 PUSH1 0x20 MSTORE PUSH1 0x40 SWAP1 KECCAK256 SLOAD SWAP1 SWAP3 AND SWAP2 JUMPDEST PUSH1 0x1 PUSH1 0x1 PUSH1 0xA0 SHL SUB DUP4 AND PUSH0 SWAP1 DUP2 MSTORE PUSH1 0x5 PUSH1 0x20 MSTORE PUSH1 0x40 DUP2 KECCAK256 PUSH1 0x2 ADD DUP1 SLOAD DUP5 SWAP3 SWAP1 PUSH2 0x5623 SWAP1 DUP5 SWAP1 PUSH2 0x6DA5 JUMP JUMPDEST SWAP1 SWAP2 SSTORE POP POP PUSH1 0x1 PUSH1 0x1 PUSH1 0xA0 SHL SUB DUP4 AND PUSH0 SWAP1 DUP2 MSTORE PUSH1 0x8 PUSH1 0x20 MSTORE PUSH1 0x40 DUP2 KECCAK256 DUP1 SLOAD DUP5 SWAP3 SWAP1 PUSH2 0x564F SWAP1 DUP5 SWAP1 PUSH2 0x6DA5 JUMP JUMPDEST SWAP1 SWAP2 SSTORE POP POP PUSH1 0x1 PUSH1 0x1 PUSH1 0xA0 SHL SUB DUP4 AND PUSH0 SWAP1 DUP2 MSTORE PUSH1 0x20 DUP2 SWAP1 MSTORE PUSH1 0x40 DUP2 KECCAK256 SLOAD DUP4 SWAP1 DUP3 SWAP1 ISZERO PUSH2 0x56BE JUMPI PUSH2 0x5681 PUSH0 DUP8 PUSH1 0x14 PUSH2 0x5DE3 JUMP JUMPDEST SWAP3 POP PUSH2 0x3E8 PUSH2 0x5692 PUSH2 0x145 DUP8 PUSH2 0x74C1 JUMP JUMPDEST PUSH2 0x569C SWAP2 SWAP1 PUSH2 0x6F6F JUMP JUMPDEST SWAP2 POP PUSH2 0x3E8 PUSH2 0x56AD DUP7 PUSH2 0x113 PUSH2 0x74C1 JUMP JUMPDEST PUSH2 0x56B7 SWAP2 SWAP1 PUSH2 0x6F6F JUMP JUMPDEST SWAP1 POP PUSH2 0x56DC JUMP JUMPDEST PUSH1 0x14 SWAP3 POP PUSH1 0x64 PUSH2 0x56CF DUP7 PUSH1 0x20 PUSH2 0x74C1 JUMP JUMPDEST PUSH2 0x56D9 SWAP2 SWAP1 PUSH2 0x6F6F JUMP JUMPDEST SWAP1 POP JUMPDEST PUSH1 0x2 PUSH1 0x1 PUSH1 0x1 PUSH1 0xA0 SHL SUB DUP8 AND PUSH0 SWAP1 DUP2 MSTORE PUSH1 0x4 PUSH1 0x20 MSTORE PUSH1 0x40 SWAP1 KECCAK256 PUSH1 0x2 ADD SLOAD PUSH2 0x100 SWAP1 DIV PUSH1 0xFF AND PUSH1 0x3 DUP2 GT ISZERO PUSH2 0x5712 JUMPI PUSH2 0x5712 PUSH2 0x6888 JUMP JUMPDEST EQ PUSH2 0x5791 JUMPI PUSH1 0x1B SLOAD PUSH1 0x1 PUSH1 0x1 PUSH1 0xA0 SHL SUB AND PUSH4 0xE115DC7F DUP8 DUP7 PUSH1 0x64 PUSH2 0x5736 DUP9 DUP12 PUSH2 0x74C1 JUMP JUMPDEST PUSH2 0x5740 SWAP2 SWAP1 PUSH2 0x6F6F JUMP JUMPDEST PUSH1 0x1 PUSH0 PUSH1 0x40 MLOAD DUP7 PUSH4 0xFFFFFFFF AND PUSH1 0xE0 SHL DUP2 MSTORE PUSH1 0x4 ADD PUSH2 0x5763 SWAP6 SWAP5 SWAP4 SWAP3 SWAP2 SWAP1 PUSH2 0x6F82 JUMP JUMPDEST PUSH0 PUSH1 0x40 MLOAD DUP1 DUP4 SUB DUP2 PUSH0 DUP8 DUP1 EXTCODESIZE ISZERO DUP1 ISZERO PUSH2 0x577A JUMPI PUSH0 PUSH0 REVERT JUMPDEST POP GAS CALL ISZERO DUP1 ISZERO PUSH2 0x578C JUMPI RETURNDATASIZE PUSH0 PUSH0 RETURNDATACOPY RETURNDATASIZE PUSH0 REVERT JUMPDEST POP POP POP POP JUMPDEST PUSH0 PUSH1 0x1 PUSH1 0x1 PUSH1 0x1 PUSH1 0xA0 SHL SUB DUP9 AND PUSH0 SWAP1 DUP2 MSTORE PUSH1 0x4 PUSH1 0x20 MSTORE PUSH1 0x40 SWAP1 KECCAK256 PUSH1 0x2 ADD SLOAD PUSH2 0x100 SWAP1 DIV PUSH1 0xFF AND PUSH1 0x3 DUP2 GT ISZERO PUSH2 0x57C8 JUMPI PUSH2 0x57C8 PUSH2 0x6888 JUMP JUMPDEST EQ SWAP1 POP PUSH2 0x57DE PUSH1 0x4 PUSH1 0x5 PUSH1 0x7 PUSH1 0x8 PUSH1 0xA DUP13 PUSH2 0x3A0D JUMP JUMPDEST POP DUP1 ISZERO DUP1 ISZERO PUSH2 0x5820 JUMPI POP PUSH1 0x1 PUSH1 0x1 PUSH1 0x1 PUSH1 0xA0 SHL SUB DUP9 AND PUSH0 SWAP1 DUP2 MSTORE PUSH1 0x4 PUSH1 0x20 MSTORE PUSH1 0x40 SWAP1 KECCAK256 PUSH1 0x2 ADD SLOAD PUSH2 0x100 SWAP1 DIV PUSH1 0xFF AND PUSH1 0x3 DUP2 GT ISZERO PUSH2 0x581E JUMPI PUSH2 0x581E PUSH2 0x6888 JUMP JUMPDEST EQ JUMPDEST ISZERO PUSH2 0x5832 JUMPI PUSH2 0x5832 PUSH1 0x4 PUSH1 0xC DUP10 PUSH2 0x40A1 JUMP JUMPDEST DUP7 PUSH1 0x1 PUSH1 0x1 PUSH1 0xA0 SHL SUB AND PUSH32 0xDF1AC62D04B5B70D0905C8F87D228F5DA1978AB102137D771163B0ADE4EB2FEE DUP8 PUSH1 0x40 MLOAD PUSH2 0x586D SWAP2 DUP2 MSTORE PUSH1 0x20 ADD SWAP1 JUMP JUMPDEST PUSH1 0x40 MLOAD DUP1 SWAP2 SUB SWAP1 LOG2 PUSH1 0x1B SLOAD PUSH2 0x5893 SWAP1 PUSH1 0x4 SWAP1 PUSH1 0xC SWAP1 PUSH1 0x1 PUSH1 0x1 PUSH1 0xA0 SHL SUB AND DUP11 DUP8 DUP11 PUSH2 0x5E2E JUMP JUMPDEST PUSH2 0x589D DUP8 DUP5 PUSH2 0x5FE1 JUMP JUMPDEST PUSH0 PUSH1 0x64 PUSH2 0x58AB PUSH1 0x2 DUP7 PUSH2 0x74C1 JUMP JUMPDEST PUSH2 0x58B5 SWAP2 SWAP1 PUSH2 0x6F6F JUMP JUMPDEST PUSH1 0x1B SLOAD PUSH1 0x40 MLOAD PUSH4 0x43CFF6B PUSH1 0xE3 SHL DUP2 MSTORE PUSH1 0x4 DUP2 ADD DUP4 SWAP1 MSTORE PUSH1 0x24 DUP2 ADD DUP10 SWAP1 MSTORE SWAP2 SWAP3 POP PUSH1 0x1 PUSH1 0x1 PUSH1 0xA0 SHL SUB AND SWAP1 PUSH4 0x21E7FB58 SWAP1 PUSH1 0x44 ADD PUSH0 PUSH1 0x40 MLOAD DUP1 DUP4 SUB DUP2 PUSH0 DUP8 DUP1 EXTCODESIZE ISZERO DUP1 ISZERO PUSH2 0x5900 JUMPI PUSH0 PUSH0 REVERT JUMPDEST POP GAS CALL ISZERO DUP1 ISZERO PUSH2 0x5912 JUMPI RETURNDATASIZE PUSH0 PUSH0 RETURNDATACOPY RETURNDATASIZE PUSH0 REVERT JUMPDEST POP POP POP POP PUSH1 0x1 PUSH1 0x1 PUSH1 0xA0 SHL SUB DUP9 DUP2 AND PUSH0 SWAP1 DUP2 MSTORE PUSH1 0x6 PUSH1 0x20 MSTORE PUSH1 0x40 SWAP1 KECCAK256 SLOAD AND DUP1 ISZERO PUSH2 0x5A38 JUMPI PUSH1 0x1C SLOAD PUSH1 0x40 MLOAD PUSH4 0xC849C1D PUSH1 0xE4 SHL DUP2 MSTORE PUSH0 SWAP2 PUSH1 0x1 PUSH1 0x1 PUSH1 0xA0 SHL SUB AND SWAP1 PUSH4 0xC849C1D0 SWAP1 PUSH2 0x5968 SWAP1 DUP6 SWAP1 DUP11 SWAP1 PUSH1 0x4 ADD PUSH2 0x70D7 JUMP JUMPDEST PUSH1 0x20 PUSH1 0x40 MLOAD DUP1 DUP4 SUB DUP2 PUSH0 DUP8 GAS CALL ISZERO DUP1 ISZERO PUSH2 0x5984 JUMPI RETURNDATASIZE PUSH0 PUSH0 RETURNDATACOPY RETURNDATASIZE PUSH0 REVERT JUMPDEST POP POP POP POP PUSH1 0x40 MLOAD RETURNDATASIZE PUSH1 0x1F NOT PUSH1 0x1F DUP3 ADD AND DUP3 ADD DUP1 PUSH1 0x40 MSTORE POP DUP2 ADD SWAP1 PUSH2 0x59A8 SWAP2 SWAP1 PUSH2 0x71C2 JUMP JUMPDEST SWAP1 POP PUSH0 PUSH2 0x2710 DUP3 PUSH2 0x59BA PUSH1 0x1 DUP11 PUSH2 0x74C1 JUMP JUMPDEST PUSH2 0x59C4 SWAP2 SWAP1 PUSH2 0x74C1 JUMP JUMPDEST PUSH2 0x59CE SWAP2 SWAP1 PUSH2 0x6F6F JUMP JUMPDEST PUSH1 0x1B SLOAD PUSH1 0x40 MLOAD PUSH4 0xE115DC7F PUSH1 0xE0 SHL DUP2 MSTORE SWAP2 SWAP3 POP PUSH1 0x1 PUSH1 0x1 PUSH1 0xA0 SHL SUB AND SWAP1 PUSH4 0xE115DC7F SWAP1 PUSH2 0x5A08 SWAP1 DUP7 SWAP1 DUP14 SWAP1 DUP7 SWAP1 PUSH1 0x1 SWAP1 PUSH0 SWAP1 PUSH1 0x4 ADD PUSH2 0x6F82 JUMP JUMPDEST PUSH0 PUSH1 0x40 MLOAD DUP1 DUP4 SUB DUP2 PUSH0 DUP8 DUP1 EXTCODESIZE ISZERO DUP1 ISZERO PUSH2 0x5A1F JUMPI PUSH0 PUSH0 REVERT JUMPDEST POP GAS CALL ISZERO DUP1 ISZERO PUSH2 0x5A31 JUMPI RETURNDATASIZE PUSH0 PUSH0 RETURNDATACOPY RETURNDATASIZE PUSH0 REVERT JUMPDEST POP POP POP POP POP POP JUMPDEST PUSH1 0x1B SLOAD PUSH2 0x5A59 SWAP1 PUSH1 0x4 SWAP1 PUSH1 0xD SWAP1 PUSH1 0xB SWAP1 PUSH1 0x1 PUSH1 0x1 PUSH1 0xA0 SHL SUB AND DUP14 DUP14 DUP14 PUSH2 0x605B JUMP JUMPDEST PUSH1 0x1B SLOAD PUSH1 0x15 SLOAD PUSH1 0x1 PUSH1 0x1 PUSH1 0xA0 SHL SUB SWAP2 DUP3 AND SWAP2 PUSH4 0xE115DC7F SWAP2 AND DUP10 PUSH1 0x64 PUSH2 0x5A80 PUSH1 0x4 DUP12 PUSH2 0x74C1 JUMP JUMPDEST PUSH2 0x5A8A SWAP2 SWAP1 PUSH2 0x6F6F JUMP JUMPDEST PUSH1 0x1 DUP1 PUSH1 0x40 MLOAD DUP7 PUSH4 0xFFFFFFFF AND PUSH1 0xE0 SHL DUP2 MSTORE PUSH1 0x4 ADD PUSH2 0x5AAD SWAP6 SWAP5 SWAP4 SWAP3 SWAP2 SWAP1 PUSH2 0x6F82 JUMP JUMPDEST PUSH0 PUSH1 0x40 MLOAD DUP1 DUP4 SUB DUP2 PUSH0 DUP8 DUP1 EXTCODESIZE ISZERO DUP1 ISZERO PUSH2 0x5AC4 JUMPI PUSH0 PUSH0 REVERT JUMPDEST POP GAS CALL ISZERO DUP1 ISZERO PUSH2 0x5AD6 JUMPI RETURNDATASIZE PUSH0 PUSH0 RETURNDATACOPY RETURNDATASIZE PUSH0 REVERT JUMPDEST POP POP PUSH1 0x1B SLOAD PUSH1 0x16 SLOAD PUSH1 0x40 MLOAD PUSH4 0xE115DC7F PUSH1 0xE0 SHL DUP2 MSTORE PUSH1 0x1 PUSH1 0x1 PUSH1 0xA0 SHL SUB SWAP3 DUP4 AND SWAP5 POP PUSH4 0xE115DC7F SWAP4 POP PUSH2 0x5B19 SWAP3 SWAP1 SWAP2 AND SWAP1 DUP12 SWAP1 DUP10 SWAP1 PUSH1 0x1 SWAP1 PUSH1 0x2 SWAP1 PUSH1 0x4 ADD PUSH2 0x6F82 JUMP JUMPDEST PUSH0 PUSH1 0x40 MLOAD DUP1 DUP4 SUB DUP2 PUSH0 DUP8 DUP1 EXTCODESIZE ISZERO DUP1 ISZERO PUSH2 0x5B30 JUMPI PUSH0 PUSH0 REVERT JUMPDEST POP GAS CALL ISZERO DUP1 ISZERO PUSH2 0x5B42 JUMPI RETURNDATASIZE PUSH0 PUSH0 RETURNDATACOPY RETURNDATASIZE PUSH0 REVERT JUMPDEST POP POP POP POP POP POP POP POP POP POP POP POP POP JUMP JUMPDEST PUSH1 0x40 DUP1 MLOAD PUSH1 0x60 DUP2 ADD DUP3 MSTORE PUSH1 0x1 PUSH1 0x1 PUSH1 0xA0 SHL SUB SWAP5 DUP6 AND DUP2 MSTORE SWAP3 DUP5 AND PUSH1 0x20 DUP1 DUP6 ADD SWAP2 DUP3 MSTORE SWAP3 DUP6 AND DUP5 DUP4 ADD SWAP1 DUP2 MSTORE SWAP7 DUP6 AND PUSH0 SWAP1 DUP2 MSTORE SWAP8 DUP4 MSTORE DUP2 DUP9 KECCAK256 PUSH1 0xFF SWAP1 SWAP7 AND DUP9 MSTORE SWAP5 SWAP1 SWAP2 MSTORE SWAP1 SWAP5 KECCAK256 SWAP4 MLOAD DUP5 SLOAD SWAP1 DUP3 AND PUSH1 0x1 PUSH1 0x1 PUSH1 0xA0 SHL SUB NOT SWAP2 DUP3 AND OR DUP6 SSTORE SWAP2 MLOAD PUSH1 0x1 DUP6 ADD DUP1 SLOAD SWAP2 DUP4 AND SWAP2 DUP5 AND SWAP2 SWAP1 SWAP2 OR SWAP1 SSTORE SWAP2 MLOAD PUSH1 0x2 SWAP1 SWAP4 ADD DUP1 SLOAD SWAP4 SWAP1 SWAP3 AND SWAP3 AND SWAP2 SWAP1 SWAP2 OR SWAP1 SSTORE JUMP JUMPDEST PUSH1 0x1 PUSH1 0x1 PUSH1 0xA0 SHL SUB DUP4 AND ISZERO PUSH2 0x20A0 JUMPI PUSH1 0x1 PUSH1 0x1 PUSH1 0xA0 SHL SUB SWAP3 DUP4 AND PUSH0 SWAP1 DUP2 MSTORE PUSH1 0x20 DUP6 DUP2 MSTORE PUSH1 0x40 DUP1 DUP4 KECCAK256 PUSH1 0xFF SWAP5 SWAP1 SWAP5 AND DUP1 DUP5 MSTORE SWAP4 DUP3 MSTORE DUP1 DUP4 KECCAK256 DUP2 MLOAD PUSH1 0x60 DUP2 ADD DUP4 MSTORE DUP2 SLOAD DUP9 AND DUP2 MSTORE PUSH1 0x1 DUP1 DUP4 ADD SLOAD DUP10 AND DUP3 DUP7 ADD SWAP1 DUP2 MSTORE PUSH1 0x2 SWAP4 DUP5 ADD SLOAD DUP11 AND DUP4 DUP7 ADD SWAP1 DUP2 MSTORE SWAP9 DUP11 AND DUP8 MSTORE SWAP10 DUP6 MSTORE DUP4 DUP7 KECCAK256 SWAP7 DUP7 MSTORE SWAP6 SWAP1 SWAP4 MSTORE SWAP3 KECCAK256 SWAP1 MLOAD DUP2 SLOAD PUSH1 0x1 PUSH1 0x1 PUSH1 0xA0 SHL SUB NOT SWAP1 DUP2 AND SWAP2 DUP8 AND SWAP2 SWAP1 SWAP2 OR DUP3 SSTORE SWAP6 MLOAD SWAP3 DUP2 ADD DUP1 SLOAD DUP8 AND SWAP4 DUP7 AND SWAP4 SWAP1 SWAP4 OR SWAP1 SWAP3 SSTORE SWAP2 MLOAD SWAP2 ADD DUP1 SLOAD SWAP1 SWAP4 AND SWAP2 AND OR SWAP1 SSTORE JUMP JUMPDEST PUSH1 0x1 PUSH1 0x1 PUSH1 0xA0 SHL SUB DUP1 DUP3 AND PUSH0 SWAP1 DUP2 MSTORE PUSH1 0x20 DUP6 SWAP1 MSTORE PUSH1 0x40 DUP2 KECCAK256 SLOAD SWAP1 SWAP2 AND JUMPDEST PUSH1 0x1 PUSH1 0x1 PUSH1 0xA0 SHL SUB DUP2 AND ISZERO PUSH2 0x5D16 JUMPI PUSH1 0x1 PUSH1 0x1 PUSH1 0x1 PUSH1 0xA0 SHL SUB DUP3 AND PUSH0 SWAP1 DUP2 MSTORE PUSH1 0x20 DUP8 SWAP1 MSTORE PUSH1 0x40 SWAP1 KECCAK256 PUSH1 0x2 ADD SLOAD PUSH2 0x100 SWAP1 DIV PUSH1 0xFF AND PUSH1 0x3 DUP2 GT ISZERO PUSH2 0x5CEB JUMPI PUSH2 0x5CEB PUSH2 0x6888 JUMP JUMPDEST SUB PUSH2 0x5CF7 JUMPI SWAP1 POP PUSH2 0x1959 JUMP JUMPDEST PUSH1 0x1 PUSH1 0x1 PUSH1 0xA0 SHL SUB SWAP1 DUP2 AND PUSH0 SWAP1 DUP2 MSTORE PUSH1 0x20 DUP6 SWAP1 MSTORE PUSH1 0x40 SWAP1 KECCAK256 SLOAD AND PUSH2 0x5CA6 JUMP JUMPDEST POP PUSH0 SWAP5 SWAP4 POP POP POP POP JUMP JUMPDEST PUSH1 0x1 PUSH1 0x1 PUSH1 0xA0 SHL SUB DUP2 AND PUSH0 SWAP1 DUP2 MSTORE PUSH1 0x20 DUP4 SWAP1 MSTORE PUSH1 0x40 DUP2 KECCAK256 DUP2 SWAP1 PUSH1 0x1 ADD DUP2 JUMPDEST DUP2 SLOAD DUP2 LT ISZERO PUSH2 0x5DB9 JUMPI PUSH1 0x1 DUP7 PUSH0 DUP5 DUP5 DUP2 SLOAD DUP2 LT PUSH2 0x5D5D JUMPI PUSH2 0x5D5D PUSH2 0x6DCB JUMP JUMPDEST PUSH0 SWAP2 DUP3 MSTORE PUSH1 0x20 DUP1 DUP4 KECCAK256 SWAP1 SWAP2 ADD SLOAD PUSH1 0x1 PUSH1 0x1 PUSH1 0xA0 SHL SUB AND DUP4 MSTORE DUP3 ADD SWAP3 SWAP1 SWAP3 MSTORE PUSH1 0x40 ADD SWAP1 KECCAK256 PUSH1 0x2 ADD SLOAD PUSH1 0xFF PUSH2 0x100 SWAP1 SWAP2 DIV AND PUSH1 0x3 DUP2 GT ISZERO PUSH2 0x5D9E JUMPI PUSH2 0x5D9E PUSH2 0x6888 JUMP JUMPDEST SUB PUSH2 0x5DB1 JUMPI DUP3 PUSH2 0x5DAD DUP2 PUSH2 0x6E0C JUMP JUMPDEST SWAP4 POP POP JUMPDEST PUSH1 0x1 ADD PUSH2 0x5D3E JUMP JUMPDEST POP SWAP1 SWAP5 SWAP4 POP POP POP POP JUMP JUMPDEST DUP1 MLOAD PUSH11 0x636F6E736F6C652E6C6F67 PUSH1 0x20 DUP4 ADD PUSH0 DUP1 DUP5 DUP4 DUP6 GAS STATICCALL POP POP POP POP POP JUMP JUMPDEST PUSH1 0x1 PUSH1 0x1 PUSH1 0xA0 SHL SUB DUP3 AND PUSH0 SWAP1 DUP2 MSTORE PUSH1 0x20 DUP5 SWAP1 MSTORE PUSH1 0x40 DUP2 KECCAK256 SLOAD DUP1 PUSH2 0x5E06 JUMPI DUP3 PUSH2 0x5E25 JUMP JUMPDEST DUP5 PUSH1 0x1 ADD DUP2 DUP2 SLOAD DUP2 LT PUSH2 0x5E1B JUMPI PUSH2 0x5E1B PUSH2 0x6DCB JUMP JUMPDEST SWAP1 PUSH0 MSTORE PUSH1 0x20 PUSH0 KECCAK256 ADD SLOAD JUMPDEST SWAP6 SWAP5 POP POP POP POP POP JUMP JUMPDEST PUSH1 0x1 PUSH1 0x1 PUSH1 0xA0 SHL SUB DUP1 DUP5 AND PUSH0 SWAP1 DUP2 MSTORE PUSH1 0x20 DUP8 SWAP1 MSTORE PUSH1 0x40 DUP2 KECCAK256 SLOAD SWAP1 SWAP2 AND SWAP1 PUSH1 0x1 SWAP1 PUSH1 0x60 SWAP1 DUP2 SWAP1 JUMPDEST PUSH1 0x5 DUP5 PUSH1 0xFF AND GT ISZERO DUP1 ISZERO PUSH2 0x5E70 JUMPI POP PUSH1 0x1 PUSH1 0x1 PUSH1 0xA0 SHL SUB DUP6 AND ISZERO ISZERO JUMPDEST ISZERO PUSH2 0x5F71 JUMPI PUSH0 DUP5 PUSH1 0xFF AND PUSH1 0x1 EQ PUSH2 0x5E88 JUMPI PUSH1 0x5 PUSH2 0x5E8B JUMP JUMPDEST PUSH1 0xA JUMPDEST SWAP1 POP PUSH0 PUSH1 0x64 PUSH2 0x5E9A DUP4 DUP12 PUSH2 0x74C1 JUMP JUMPDEST PUSH2 0x5EA4 SWAP2 SWAP1 PUSH2 0x6F6F JUMP JUMPDEST SWAP1 POP PUSH1 0x2 PUSH1 0x1 PUSH1 0x1 PUSH1 0xA0 SHL SUB DUP9 AND PUSH0 SWAP1 DUP2 MSTORE PUSH1 0x20 DUP16 SWAP1 MSTORE PUSH1 0x40 SWAP1 KECCAK256 PUSH1 0x2 ADD SLOAD PUSH2 0x100 SWAP1 DIV PUSH1 0xFF AND PUSH1 0x3 DUP2 GT ISZERO PUSH2 0x5EDC JUMPI PUSH2 0x5EDC PUSH2 0x6888 JUMP JUMPDEST EQ PUSH2 0x5F40 JUMPI DUP7 DUP6 DUP5 DUP2 MLOAD DUP2 LT PUSH2 0x5EF4 JUMPI PUSH2 0x5EF4 PUSH2 0x6DCB JUMP JUMPDEST PUSH1 0x20 MUL PUSH1 0x20 ADD ADD SWAP1 PUSH1 0x1 PUSH1 0x1 PUSH1 0xA0 SHL SUB AND SWAP1 DUP2 PUSH1 0x1 PUSH1 0x1 PUSH1 0xA0 SHL SUB AND DUP2 MSTORE POP POP DUP1 DUP5 DUP5 DUP2 MLOAD DUP2 LT PUSH2 0x5F27 JUMPI PUSH2 0x5F27 PUSH2 0x6DCB JUMP JUMPDEST PUSH1 0x20 SWAP1 DUP2 MUL SWAP2 SWAP1 SWAP2 ADD ADD MSTORE DUP3 PUSH2 0x5F3C DUP2 PUSH2 0x6E0C JUMP JUMPDEST SWAP4 POP POP JUMPDEST PUSH1 0x1 PUSH1 0x1 PUSH1 0xA0 SHL SUB SWAP7 DUP8 AND PUSH0 SWAP1 DUP2 MSTORE PUSH1 0x20 DUP14 SWAP1 MSTORE PUSH1 0x40 SWAP1 KECCAK256 SLOAD SWAP1 SWAP7 AND SWAP6 DUP6 PUSH2 0x5F67 DUP2 PUSH2 0x747D JUMP JUMPDEST SWAP7 POP POP POP POP PUSH2 0x5E54 JUMP JUMPDEST PUSH1 0x40 MLOAD PUSH4 0xBD0DC97 PUSH1 0xE4 SHL DUP2 MSTORE PUSH1 0x1 PUSH1 0x1 PUSH1 0xA0 SHL SUB DUP11 AND SWAP1 PUSH4 0xBD0DC970 SWAP1 PUSH2 0x5FA7 SWAP1 DUP10 SWAP1 DUP8 SWAP1 DUP8 SWAP1 PUSH1 0x1 SWAP1 PUSH1 0x6 SWAP1 PUSH1 0x4 ADD PUSH2 0x7570 JUMP JUMPDEST PUSH0 PUSH1 0x40 MLOAD DUP1 DUP4 SUB DUP2 PUSH0 DUP8 DUP1 EXTCODESIZE ISZERO DUP1 ISZERO PUSH2 0x5FBE JUMPI PUSH0 PUSH0 REVERT JUMPDEST POP GAS CALL ISZERO DUP1 ISZERO PUSH2 0x5FD0 JUMPI RETURNDATASIZE PUSH0 PUSH0 RETURNDATACOPY RETURNDATASIZE PUSH0 REVERT JUMPDEST POP POP POP POP POP POP POP POP POP POP POP POP POP POP POP JUMP JUMPDEST PUSH1 0x1 PUSH1 0x1 PUSH1 0xA0 SHL SUB DUP3 AND PUSH0 SWAP1 DUP2 MSTORE PUSH1 0x19 PUSH1 0x20 MSTORE PUSH1 0x40 SWAP1 KECCAK256 PUSH1 0x1 ADD SLOAD PUSH1 0xFF AND PUSH2 0x602B JUMPI PUSH1 0x1 PUSH1 0x1 PUSH1 0xA0 SHL SUB DUP3 AND PUSH0 SWAP1 DUP2 MSTORE PUSH1 0x19 PUSH1 0x20 MSTORE PUSH1 0x40 SWAP1 KECCAK256 PUSH1 0x1 SWAP1 DUP2 ADD DUP1 SLOAD PUSH1 0xFF NOT AND SWAP1 SWAP2 OR SWAP1 SSTORE JUMPDEST PUSH1 0x1 PUSH1 0x1 PUSH1 0xA0 SHL SUB DUP3 AND PUSH0 SWAP1 DUP2 MSTORE PUSH1 0x19 PUSH1 0x20 MSTORE PUSH1 0x40 DUP2 KECCAK256 DUP1 SLOAD DUP4 SWAP3 SWAP1 PUSH2 0x6052 SWAP1 DUP5 SWAP1 PUSH2 0x6DA5 JUMP JUMPDEST SWAP1 SWAP2 SSTORE POP POP POP POP JUMP JUMPDEST PUSH1 0x1 PUSH1 0x1 PUSH1 0xA0 SHL SUB DUP1 DUP5 AND PUSH0 SWAP1 DUP2 MSTORE PUSH1 0x20 DUP10 SWAP1 MSTORE PUSH1 0x40 DUP2 KECCAK256 SLOAD SWAP1 SWAP2 AND SWAP1 PUSH2 0x6082 DUP10 DUP7 PUSH2 0x61BD JUMP JUMPDEST PUSH1 0x1 PUSH1 0x1 PUSH1 0xA0 SHL SUB DUP7 AND PUSH0 SWAP1 DUP2 MSTORE PUSH1 0x20 DUP12 SWAP1 MSTORE PUSH1 0x40 DUP2 KECCAK256 PUSH1 0x2 ADD SLOAD SWAP2 SWAP3 POP PUSH1 0xFF SWAP2 DUP3 AND SWAP2 DUP2 SWAP1 DUP2 SWAP1 DUP2 SWAP1 DUP7 AND ISZERO PUSH2 0x6153 JUMPI PUSH0 SWAP4 POP PUSH1 0x5 DUP6 PUSH1 0x7 DUP2 GT ISZERO PUSH2 0x60CA JUMPI PUSH2 0x60CA PUSH2 0x6888 JUMP JUMPDEST SUB PUSH2 0x610A JUMPI POP POP PUSH1 0x1 PUSH1 0x1 PUSH1 0xA0 SHL SUB DUP6 DUP2 AND PUSH0 SWAP1 DUP2 MSTORE PUSH1 0x20 DUP14 DUP2 MSTORE PUSH1 0x40 DUP1 DUP4 KECCAK256 PUSH1 0xFF DUP10 AND DUP5 MSTORE SWAP1 SWAP2 MSTORE SWAP1 KECCAK256 PUSH1 0x1 DUP2 ADD SLOAD PUSH1 0x2 SWAP1 SWAP2 ADD SLOAD SWAP1 DUP3 AND SWAP2 AND PUSH2 0x619E JUMP JUMPDEST PUSH1 0x6 DUP6 PUSH1 0x7 DUP2 GT ISZERO PUSH2 0x611E JUMPI PUSH2 0x611E PUSH2 0x6888 JUMP JUMPDEST SUB PUSH2 0x614E JUMPI POP PUSH1 0x1 PUSH1 0x1 PUSH1 0xA0 SHL SUB DUP1 DUP8 AND PUSH0 SWAP1 DUP2 MSTORE PUSH1 0x20 DUP15 DUP2 MSTORE PUSH1 0x40 DUP1 DUP4 KECCAK256 PUSH1 0xFF DUP11 AND DUP5 MSTORE SWAP1 SWAP2 MSTORE SWAP1 KECCAK256 PUSH1 0x2 ADD SLOAD AND JUMPDEST PUSH2 0x619E JUMP JUMPDEST POP POP POP POP PUSH1 0x1 PUSH1 0x1 PUSH1 0xA0 SHL SUB DUP4 DUP2 AND PUSH0 SWAP1 DUP2 MSTORE PUSH1 0x20 DUP11 DUP2 MSTORE PUSH1 0x40 DUP1 DUP4 KECCAK256 SLOAD DUP14 DUP4 MSTORE DUP2 DUP5 KECCAK256 PUSH1 0xFF DUP9 AND DUP6 MSTORE SWAP1 SWAP3 MSTORE SWAP1 SWAP2 KECCAK256 DUP1 SLOAD PUSH1 0x1 DUP3 ADD SLOAD PUSH1 0x2 SWAP1 SWAP3 ADD SLOAD SWAP3 DUP5 AND SWAP4 SWAP1 DUP2 AND SWAP3 SWAP2 DUP2 AND SWAP2 AND JUMPDEST PUSH2 0x61AD DUP12 DUP10 DUP12 DUP8 DUP8 DUP8 DUP8 PUSH2 0x624D JUMP JUMPDEST POP POP POP POP POP POP POP POP POP POP POP POP POP POP JUMP JUMPDEST PUSH1 0x1 PUSH1 0x1 PUSH1 0xA0 SHL SUB DUP2 AND PUSH0 SWAP1 DUP2 MSTORE PUSH1 0x20 DUP4 SWAP1 MSTORE PUSH1 0x40 DUP2 KECCAK256 PUSH1 0x2 ADD SLOAD PUSH1 0xFF AND PUSH1 0x7 DUP2 PUSH1 0x7 DUP2 GT ISZERO PUSH2 0x61EF JUMPI PUSH2 0x61EF PUSH2 0x6888 JUMP JUMPDEST SUB PUSH2 0x61FE JUMPI PUSH1 0x3 SWAP2 POP POP PUSH2 0x10C3 JUMP JUMPDEST PUSH1 0x6 DUP2 PUSH1 0x7 DUP2 GT ISZERO PUSH2 0x6212 JUMPI PUSH2 0x6212 PUSH2 0x6888 JUMP JUMPDEST SUB PUSH2 0x6221 JUMPI PUSH1 0x2 SWAP2 POP POP PUSH2 0x10C3 JUMP JUMPDEST PUSH1 0x5 DUP2 PUSH1 0x7 DUP2 GT ISZERO PUSH2 0x6235 JUMPI PUSH2 0x6235 PUSH2 0x6888 JUMP JUMPDEST SUB PUSH2 0x6244 JUMPI PUSH1 0x1 SWAP2 POP POP PUSH2 0x10C3 JUMP JUMPDEST POP PUSH0 SWAP4 SWAP3 POP POP POP JUMP JUMPDEST PUSH1 0x60 DUP1 PUSH0 PUSH1 0x1 PUSH1 0x1 PUSH1 0xA0 SHL SUB DUP8 AND ISZERO PUSH2 0x62CD JUMPI DUP7 DUP4 DUP3 DUP2 MLOAD DUP2 LT PUSH2 0x6273 JUMPI PUSH2 0x6273 PUSH2 0x6DCB JUMP JUMPDEST PUSH1 0x1 PUSH1 0x1 PUSH1 0xA0 SHL SUB SWAP1 SWAP3 AND PUSH1 0x20 SWAP3 DUP4 MUL SWAP2 SWAP1 SWAP2 ADD SWAP1 SWAP2 ADD MSTORE PUSH1 0x64 PUSH2 0x6298 PUSH1 0x2 DUP11 PUSH2 0x74C1 JUMP JUMPDEST PUSH2 0x62A2 SWAP2 SWAP1 PUSH2 0x6F6F JUMP JUMPDEST DUP3 DUP3 DUP2 MLOAD DUP2 LT PUSH2 0x62B4 JUMPI PUSH2 0x62B4 PUSH2 0x6DCB JUMP JUMPDEST PUSH1 0x20 SWAP1 DUP2 MUL SWAP2 SWAP1 SWAP2 ADD ADD MSTORE DUP1 PUSH2 0x62C9 DUP2 PUSH2 0x6E0C JUMP JUMPDEST SWAP2 POP POP JUMPDEST PUSH1 0x1 PUSH1 0x1 PUSH1 0xA0 SHL SUB DUP7 AND ISZERO PUSH2 0x6349 JUMPI DUP6 DUP4 DUP3 DUP2 MLOAD DUP2 LT PUSH2 0x62EF JUMPI PUSH2 0x62EF PUSH2 0x6DCB JUMP JUMPDEST PUSH1 0x1 PUSH1 0x1 PUSH1 0xA0 SHL SUB SWAP1 SWAP3 AND PUSH1 0x20 SWAP3 DUP4 MUL SWAP2 SWAP1 SWAP2 ADD SWAP1 SWAP2 ADD MSTORE PUSH1 0x64 PUSH2 0x6314 PUSH1 0x3 DUP11 PUSH2 0x74C1 JUMP JUMPDEST PUSH2 0x631E SWAP2 SWAP1 PUSH2 0x6F6F JUMP JUMPDEST DUP3 DUP3 DUP2 MLOAD DUP2 LT PUSH2 0x6330 JUMPI PUSH2 0x6330 PUSH2 0x6DCB JUMP JUMPDEST PUSH1 0x20 SWAP1 DUP2 MUL SWAP2 SWAP1 SWAP2 ADD ADD MSTORE DUP1 PUSH2 0x6345 DUP2 PUSH2 0x6E0C JUMP JUMPDEST SWAP2 POP POP JUMPDEST PUSH1 0x1 PUSH1 0x1 PUSH1 0xA0 SHL SUB DUP6 AND ISZERO PUSH2 0x63C5 JUMPI DUP5 DUP4 DUP3 DUP2 MLOAD DUP2 LT PUSH2 0x636B JUMPI PUSH2 0x636B PUSH2 0x6DCB JUMP JUMPDEST PUSH1 0x1 PUSH1 0x1 PUSH1 0xA0 SHL SUB SWAP1 SWAP3 AND PUSH1 0x20 SWAP3 DUP4 MUL SWAP2 SWAP1 SWAP2 ADD SWAP1 SWAP2 ADD MSTORE PUSH1 0x64 PUSH2 0x6390 PUSH1 0x3 DUP11 PUSH2 0x74C1 JUMP JUMPDEST PUSH2 0x639A SWAP2 SWAP1 PUSH2 0x6F6F JUMP JUMPDEST DUP3 DUP3 DUP2 MLOAD DUP2 LT PUSH2 0x63AC JUMPI PUSH2 0x63AC PUSH2 0x6DCB JUMP JUMPDEST PUSH1 0x20 SWAP1 DUP2 MUL SWAP2 SWAP1 SWAP2 ADD ADD MSTORE DUP1 PUSH2 0x63C1 DUP2 PUSH2 0x6E0C JUMP JUMPDEST SWAP2 POP POP JUMPDEST PUSH1 0x1 PUSH1 0x1 PUSH1 0xA0 SHL SUB DUP5 AND ISZERO PUSH2 0x6441 JUMPI DUP4 DUP4 DUP3 DUP2 MLOAD DUP2 LT PUSH2 0x63E7 JUMPI PUSH2 0x63E7 PUSH2 0x6DCB JUMP JUMPDEST PUSH1 0x1 PUSH1 0x1 PUSH1 0xA0 SHL SUB SWAP1 SWAP3 AND PUSH1 0x20 SWAP3 DUP4 MUL SWAP2 SWAP1 SWAP2 ADD SWAP1 SWAP2 ADD MSTORE PUSH1 0x64 PUSH2 0x640C PUSH1 0x3 DUP11 PUSH2 0x74C1 JUMP JUMPDEST PUSH2 0x6416 SWAP2 SWAP1 PUSH2 0x6F6F JUMP JUMPDEST DUP3 DUP3 DUP2 MLOAD DUP2 LT PUSH2 0x6428 JUMPI PUSH2 0x6428 PUSH2 0x6DCB JUMP JUMPDEST PUSH1 0x20 SWAP1 DUP2 MUL SWAP2 SWAP1 SWAP2 ADD ADD MSTORE DUP1 PUSH2 0x643D DUP2 PUSH2 0x6E0C JUMP JUMPDEST SWAP2 POP POP JUMPDEST DUP3 MLOAD ISZERO PUSH2 0x3455 JUMPI PUSH1 0x40 MLOAD PUSH4 0xBD0DC97 PUSH1 0xE4 SHL DUP2 MSTORE PUSH1 0x1 PUSH1 0x1 PUSH1 0xA0 SHL SUB DUP12 AND SWAP1 PUSH4 0xBD0DC970 SWAP1 PUSH2 0x647E SWAP1 DUP13 SWAP1 DUP8 SWAP1 DUP8 SWAP1 PUSH1 0x1 SWAP1 PUSH1 0x7 SWAP1 PUSH1 0x4 ADD PUSH2 0x7570 JUMP JUMPDEST PUSH0 PUSH1 0x40 MLOAD DUP1 DUP4 SUB DUP2 PUSH0 DUP8 DUP1 EXTCODESIZE ISZERO DUP1 ISZERO PUSH2 0x6495 JUMPI PUSH0 PUSH0 REVERT JUMPDEST POP GAS CALL ISZERO DUP1 ISZERO PUSH2 0x61AD JUMPI RETURNDATASIZE PUSH0 PUSH0 RETURNDATACOPY RETURNDATASIZE PUSH0 REVERT JUMPDEST PUSH1 0x40 DUP1 MLOAD PUSH1 0x80 DUP2 ADD DUP3 MSTORE PUSH0 DUP1 DUP3 MSTORE PUSH1 0x60 PUSH1 0x20 DUP4 ADD MSTORE SWAP1 SWAP2 DUP3 ADD SWAP1 DUP2 MSTORE PUSH1 0x20 ADD PUSH0 SWAP1 MSTORE SWAP1 JUMP JUMPDEST PUSH1 0x40 MLOAD DUP1 PUSH1 0xA0 ADD PUSH1 0x40 MSTORE DUP1 PUSH0 DUP2 MSTORE PUSH1 0x20 ADD PUSH0 DUP2 MSTORE PUSH1 0x20 ADD PUSH0 DUP2 MSTORE PUSH1 0x20 ADD PUSH0 DUP2 MSTORE PUSH1 0x20 ADD PUSH0 DUP2 MSTORE POP SWAP1 JUMP JUMPDEST POP DUP1 SLOAD PUSH0 DUP3 SSTORE SWAP1 PUSH0 MSTORE PUSH1 0x20 PUSH0 KECCAK256 SWAP1 DUP2 ADD SWAP1 PUSH2 0x6511 SWAP2 SWAP1 PUSH2 0x65B3 JUMP JUMPDEST POP JUMP JUMPDEST POP DUP1 SLOAD PUSH0 DUP3 SSTORE PUSH1 0x5 MUL SWAP1 PUSH0 MSTORE PUSH1 0x20 PUSH0 KECCAK256 SWAP1 DUP2 ADD SWAP1 PUSH2 0x6511 SWAP2 SWAP1 PUSH2 0x65C7 JUMP JUMPDEST POP DUP1 SLOAD PUSH0 DUP3 SSTORE PUSH1 0x3 MUL SWAP1 PUSH0 MSTORE PUSH1 0x20 PUSH0 KECCAK256 SWAP1 DUP2 ADD SWAP1 PUSH2 0x6511 SWAP2 SWAP1 PUSH2 0x6607 JUMP JUMPDEST DUP3 DUP1 SLOAD DUP3 DUP3 SSTORE SWAP1 PUSH0 MSTORE PUSH1 0x20 PUSH0 KECCAK256 SWAP1 DUP2 ADD SWAP3 DUP3 ISZERO PUSH2 0x65A3 JUMPI SWAP2 PUSH1 0x20 MUL DUP3 ADD JUMPDEST DUP3 DUP2 GT ISZERO PUSH2 0x65A3 JUMPI DUP3 MLOAD DUP3 SLOAD PUSH1 0x1 PUSH1 0x1 PUSH1 0xA0 SHL SUB NOT AND PUSH1 0x1 PUSH1 0x1 PUSH1 0xA0 SHL SUB SWAP1 SWAP2 AND OR DUP3 SSTORE PUSH1 0x20 SWAP1 SWAP3 ADD SWAP2 PUSH1 0x1 SWAP1 SWAP2 ADD SWAP1 PUSH2 0x656E JUMP JUMPDEST POP PUSH2 0x65AF SWAP3 SWAP2 POP PUSH2 0x65B3 JUMP JUMPDEST POP SWAP1 JUMP JUMPDEST JUMPDEST DUP1 DUP3 GT ISZERO PUSH2 0x65AF JUMPI PUSH0 DUP2 SSTORE PUSH1 0x1 ADD PUSH2 0x65B4 JUMP JUMPDEST JUMPDEST DUP1 DUP3 GT ISZERO PUSH2 0x65AF JUMPI DUP1 SLOAD PUSH1 0x1 PUSH1 0x1 PUSH1 0xA0 SHL SUB NOT SWAP1 DUP2 AND DUP3 SSTORE PUSH1 0x1 DUP3 ADD DUP1 SLOAD SWAP1 SWAP2 AND SWAP1 SSTORE PUSH0 PUSH1 0x2 DUP3 ADD DUP2 SWAP1 SSTORE PUSH1 0x3 DUP3 ADD DUP2 SWAP1 SSTORE PUSH1 0x4 DUP3 ADD SSTORE PUSH1 0x5 ADD PUSH2 0x65C8 JUMP JUMPDEST JUMPDEST DUP1 DUP3 GT ISZERO PUSH2 0x65AF JUMPI DUP1 SLOAD PUSH1 0x1 PUSH1 0x1 PUSH1 0xA0 SHL SUB NOT AND DUP2 SSTORE PUSH0 PUSH1 0x1 DUP3 ADD DUP2 SWAP1 SSTORE PUSH1 0x2 DUP3 ADD SSTORE PUSH1 0x3 ADD PUSH2 0x6608 JUMP JUMPDEST PUSH1 0x1 PUSH1 0x1 PUSH1 0xA0 SHL SUB DUP2 AND DUP2 EQ PUSH2 0x6511 JUMPI PUSH0 PUSH0 REVERT JUMPDEST PUSH0 PUSH1 0x20 DUP3 DUP5 SUB SLT ISZERO PUSH2 0x6657 JUMPI PUSH0 PUSH0 REVERT JUMPDEST DUP2 CALLDATALOAD PUSH2 0x1959 DUP2 PUSH2 0x6633 JUMP JUMPDEST PUSH4 0x4E487B71 PUSH1 0xE0 SHL PUSH0 MSTORE PUSH1 0x41 PUSH1 0x4 MSTORE PUSH1 0x24 PUSH0 REVERT JUMPDEST PUSH1 0x40 MLOAD PUSH1 0x80 DUP2 ADD PUSH1 0x1 PUSH1 0x1 PUSH1 0x40 SHL SUB DUP2 GT DUP3 DUP3 LT OR ISZERO PUSH2 0x6698 JUMPI PUSH2 0x6698 PUSH2 0x6662 JUMP JUMPDEST PUSH1 0x40 MSTORE SWAP1 JUMP JUMPDEST PUSH1 0x40 MLOAD PUSH2 0x120 DUP2 ADD PUSH1 0x1 PUSH1 0x1 PUSH1 0x40 SHL SUB DUP2 GT DUP3 DUP3 LT OR ISZERO PUSH2 0x6698 JUMPI PUSH2 0x6698 PUSH2 0x6662 JUMP JUMPDEST PUSH1 0x40 MLOAD PUSH2 0x260 DUP2 ADD PUSH1 0x1 PUSH1 0x1 PUSH1 0x40 SHL SUB DUP2 GT DUP3 DUP3 LT OR ISZERO PUSH2 0x6698 JUMPI PUSH2 0x6698 PUSH2 0x6662 JUMP JUMPDEST PUSH1 0x40 MLOAD PUSH1 0x1F DUP3 ADD PUSH1 0x1F NOT AND DUP2 ADD PUSH1 0x1 PUSH1 0x1 PUSH1 0x40 SHL SUB DUP2 GT DUP3 DUP3 LT OR ISZERO PUSH2 0x670C JUMPI PUSH2 0x670C PUSH2 0x6662 JUMP JUMPDEST PUSH1 0x40 MSTORE SWAP2 SWAP1 POP JUMP JUMPDEST PUSH0 PUSH1 0x1 PUSH1 0x1 PUSH1 0x40 SHL SUB DUP3 GT ISZERO PUSH2 0x672C JUMPI PUSH2 0x672C PUSH2 0x6662 JUMP JUMPDEST POP PUSH1 0x5 SHL PUSH1 0x20 ADD SWAP1 JUMP JUMPDEST PUSH0 DUP3 PUSH1 0x1F DUP4 ADD SLT PUSH2 0x6745 JUMPI PUSH0 PUSH0 REVERT JUMPDEST DUP2 CALLDATALOAD PUSH2 0x6758 PUSH2 0x6753 DUP3 PUSH2 0x6714 JUMP JUMPDEST PUSH2 0x66E4 JUMP JUMPDEST DUP1 DUP3 DUP3 MSTORE PUSH1 0x20 DUP3 ADD SWAP2 POP PUSH1 0x20 DUP4 PUSH1 0x5 SHL DUP7 ADD ADD SWAP3 POP DUP6 DUP4 GT ISZERO PUSH2 0x6779 JUMPI PUSH0 PUSH0 REVERT JUMPDEST PUSH1 0x20 DUP6 ADD JUMPDEST DUP4 DUP2 LT ISZERO PUSH2 0x6796 JUMPI DUP1 CALLDATALOAD DUP4 MSTORE PUSH1 0x20 SWAP3 DUP4 ADD SWAP3 ADD PUSH2 0x677E JUMP JUMPDEST POP SWAP6 SWAP5 POP POP POP POP POP JUMP JUMPDEST PUSH0 PUSH0 PUSH0 PUSH1 0x60 DUP5 DUP7 SUB SLT ISZERO PUSH2 0x67B2 JUMPI PUSH0 PUSH0 REVERT JUMPDEST DUP4 CALLDATALOAD SWAP3 POP PUSH1 0x20 DUP5 ADD CALLDATALOAD PUSH2 0x67C4 DUP2 PUSH2 0x6633 JUMP JUMPDEST SWAP2 POP PUSH1 0x40 DUP5 ADD CALLDATALOAD PUSH1 0x1 PUSH1 0x1 PUSH1 0x40 SHL SUB DUP2 GT ISZERO PUSH2 0x67DE JUMPI PUSH0 PUSH0 REVERT JUMPDEST PUSH2 0x67EA DUP7 DUP3 DUP8 ADD PUSH2 0x6736 JUMP JUMPDEST SWAP2 POP POP SWAP3 POP SWAP3 POP SWAP3 JUMP JUMPDEST PUSH1 0xFF DUP2 AND DUP2 EQ PUSH2 0x6511 JUMPI PUSH0 PUSH0 REVERT JUMPDEST PUSH0 PUSH0 PUSH0 PUSH0 PUSH1 0x80 DUP6 DUP8 SUB SLT ISZERO PUSH2 0x6815 JUMPI PUSH0 PUSH0 REVERT JUMPDEST DUP5 CALLDATALOAD PUSH2 0x6820 DUP2 PUSH2 0x6633 JUMP JUMPDEST SWAP4 POP PUSH1 0x20 DUP6 ADD CALLDATALOAD PUSH2 0x6830 DUP2 PUSH2 0x67F4 JUMP JUMPDEST SWAP4 SWAP7 SWAP4 SWAP6 POP POP POP POP PUSH1 0x40 DUP3 ADD CALLDATALOAD SWAP2 PUSH1 0x60 ADD CALLDATALOAD SWAP1 JUMP JUMPDEST PUSH0 DUP2 MLOAD DUP1 DUP5 MSTORE PUSH1 0x20 DUP5 ADD SWAP4 POP PUSH1 0x20 DUP4 ADD PUSH0 JUMPDEST DUP3 DUP2 LT ISZERO PUSH2 0x687E JUMPI DUP2 MLOAD PUSH1 0x1 PUSH1 0x1 PUSH1 0xA0 SHL SUB AND DUP7 MSTORE PUSH1 0x20 SWAP6 DUP7 ADD SWAP6 SWAP1 SWAP2 ADD SWAP1 PUSH1 0x1 ADD PUSH2 0x6857 JUMP JUMPDEST POP SWAP4 SWAP5 SWAP4 POP POP POP POP JUMP JUMPDEST PUSH4 0x4E487B71 PUSH1 0xE0 SHL PUSH0 MSTORE PUSH1 0x21 PUSH1 0x4 MSTORE PUSH1 0x24 PUSH0 REVERT JUMPDEST PUSH1 0x8 DUP2 LT PUSH2 0x68AC JUMPI PUSH2 0x68AC PUSH2 0x6888 JUMP JUMPDEST SWAP1 MSTORE JUMP JUMPDEST PUSH1 0x4 DUP2 LT PUSH2 0x68AC JUMPI PUSH2 0x68AC PUSH2 0x6888 JUMP JUMPDEST DUP1 MLOAD PUSH1 0x1 PUSH1 0x1 PUSH1 0xA0 SHL SUB AND DUP3 MSTORE PUSH1 0x20 DUP1 DUP3 ADD MLOAD PUSH1 0x80 DUP3 DUP6 ADD DUP2 SWAP1 MSTORE DUP2 MLOAD SWAP1 DUP6 ADD DUP2 SWAP1 MSTORE PUSH0 SWAP3 SWAP2 SWAP1 SWAP2 ADD SWAP1 DUP3 SWAP1 PUSH1 0xA0 DUP7 ADD SWAP1 JUMPDEST DUP1 DUP4 LT ISZERO PUSH2 0x691D JUMPI DUP4 MLOAD PUSH1 0x1 PUSH1 0x1 PUSH1 0xA0 SHL SUB AND DUP3 MSTORE PUSH1 0x20 SWAP4 DUP5 ADD SWAP4 PUSH1 0x1 SWAP4 SWAP1 SWAP4 ADD SWAP3 SWAP1 SWAP2 ADD SWAP1 PUSH2 0x68F2 JUMP JUMPDEST POP PUSH1 0x40 DUP6 ADD MLOAD SWAP3 POP PUSH2 0x6932 PUSH1 0x40 DUP8 ADD DUP5 PUSH2 0x689C JUMP JUMPDEST PUSH1 0x60 DUP6 ADD MLOAD SWAP3 POP PUSH2 0x5E25 PUSH1 0x60 DUP8 ADD DUP5 PUSH2 0x68B0 JUMP JUMPDEST DUP1 MLOAD DUP3 MSTORE PUSH1 0x20 DUP2 ADD MLOAD PUSH1 0x20 DUP4 ADD MSTORE PUSH1 0x40 DUP2 ADD MLOAD PUSH1 0x40 DUP4 ADD MSTORE PUSH1 0x60 DUP2 ADD MLOAD PUSH1 0x60 DUP4 ADD MSTORE PUSH1 0x80 DUP2 ADD MLOAD PUSH1 0x80 DUP4 ADD MSTORE POP POP JUMP JUMPDEST PUSH1 0x60 DUP2 MSTORE PUSH0 PUSH2 0x6988 PUSH1 0x60 DUP4 ADD DUP7 PUSH2 0x6845 JUMP JUMPDEST DUP3 DUP2 SUB PUSH1 0x20 DUP5 ADD MSTORE DUP1 DUP6 MLOAD DUP1 DUP4 MSTORE PUSH1 0x20 DUP4 ADD SWAP2 POP PUSH1 0x20 DUP2 PUSH1 0x5 SHL DUP5 ADD ADD PUSH1 0x20 DUP9 ADD PUSH0 JUMPDEST DUP4 DUP2 LT ISZERO PUSH2 0x69DD JUMPI PUSH1 0x1F NOT DUP7 DUP5 SUB ADD DUP6 MSTORE PUSH2 0x69C7 DUP4 DUP4 MLOAD PUSH2 0x68C0 JUMP JUMPDEST PUSH1 0x20 SWAP6 DUP7 ADD SWAP6 SWAP1 SWAP4 POP SWAP2 SWAP1 SWAP2 ADD SWAP1 PUSH1 0x1 ADD PUSH2 0x69AB JUMP JUMPDEST POP POP DUP6 DUP2 SUB PUSH1 0x40 DUP8 ADD MSTORE DUP7 MLOAD DUP1 DUP3 MSTORE PUSH1 0x20 SWAP2 DUP3 ADD SWAP5 POP SWAP3 POP DUP7 ADD SWAP1 POP PUSH0 JUMPDEST DUP3 DUP2 LT ISZERO PUSH2 0x6A24 JUMPI PUSH2 0x6A0E DUP5 DUP4 MLOAD PUSH2 0x6946 JUMP JUMPDEST PUSH1 0xA0 SWAP4 SWAP1 SWAP4 ADD SWAP3 PUSH1 0x20 SWAP2 SWAP1 SWAP2 ADD SWAP1 PUSH1 0x1 ADD PUSH2 0x69FB JUMP JUMPDEST POP SWAP2 SWAP8 SWAP7 POP POP POP POP POP POP POP JUMP JUMPDEST PUSH0 PUSH0 PUSH1 0x40 DUP4 DUP6 SUB SLT ISZERO PUSH2 0x6A42 JUMPI PUSH0 PUSH0 REVERT JUMPDEST POP POP DUP1 CALLDATALOAD SWAP3 PUSH1 0x20 SWAP1 SWAP2 ADD CALLDATALOAD SWAP2 POP JUMP JUMPDEST PUSH0 PUSH0 PUSH0 PUSH1 0x60 DUP5 DUP7 SUB SLT ISZERO PUSH2 0x6A63 JUMPI PUSH0 PUSH0 REVERT JUMPDEST DUP4 CALLDATALOAD PUSH2 0x6A6E DUP2 PUSH2 0x6633 JUMP JUMPDEST SWAP3 POP PUSH1 0x20 DUP5 ADD CALLDATALOAD PUSH2 0x6A7E DUP2 PUSH2 0x6633 JUMP JUMPDEST SWAP3 SWAP6 SWAP3 SWAP5 POP POP POP PUSH1 0x40 SWAP2 SWAP1 SWAP2 ADD CALLDATALOAD SWAP1 JUMP JUMPDEST PUSH1 0x1 PUSH1 0x1 PUSH1 0xA0 SHL SUB SWAP2 SWAP1 SWAP2 AND DUP2 MSTORE PUSH1 0x20 ADD SWAP1 JUMP JUMPDEST PUSH0 PUSH0 PUSH0 PUSH1 0x60 DUP5 DUP7 SUB SLT ISZERO PUSH2 0x6AB5 JUMPI PUSH0 PUSH0 REVERT JUMPDEST DUP4 CALLDATALOAD PUSH2 0x6AC0 DUP2 PUSH2 0x6633 JUMP JUMPDEST SWAP6 PUSH1 0x20 DUP6 ADD CALLDATALOAD SWAP6 POP PUSH1 0x40 SWAP1 SWAP5 ADD CALLDATALOAD SWAP4 SWAP3 POP POP POP JUMP JUMPDEST PUSH1 0x9 DUP2 LT PUSH2 0x68AC JUMPI PUSH2 0x68AC PUSH2 0x6888 JUMP JUMPDEST PUSH1 0x20 DUP1 DUP3 MSTORE DUP3 MLOAD DUP3 DUP3 ADD DUP2 SWAP1 MSTORE PUSH0 SWAP2 DUP5 ADD SWAP1 PUSH1 0x40 DUP5 ADD SWAP1 DUP4 JUMPDEST DUP2 DUP2 LT ISZERO PUSH2 0x6B52 JUMPI DUP4 MLOAD DUP1 MLOAD PUSH1 0x1 PUSH1 0x1 PUSH1 0xA0 SHL SUB AND DUP5 MSTORE PUSH1 0x20 DUP1 DUP3 ADD MLOAD SWAP1 DUP6 ADD MSTORE PUSH1 0x40 DUP1 DUP3 ADD MLOAD SWAP1 PUSH2 0x6B32 SWAP1 DUP7 ADD DUP3 PUSH2 0x6AD5 JUMP JUMPDEST POP PUSH1 0x60 SWAP1 DUP2 ADD MLOAD SWAP1 DUP5 ADD MSTORE PUSH1 0x20 SWAP4 SWAP1 SWAP4 ADD SWAP3 PUSH1 0x80 SWAP1 SWAP3 ADD SWAP2 PUSH1 0x1 ADD PUSH2 0x6AFE JUMP JUMPDEST POP SWAP1 SWAP6 SWAP5 POP POP POP POP POP JUMP JUMPDEST PUSH0 PUSH0 PUSH0 PUSH0 PUSH0 PUSH1 0xA0 DUP7 DUP9 SUB SLT ISZERO PUSH2 0x6B71 JUMPI PUSH0 PUSH0 REVERT JUMPDEST DUP6 CALLDATALOAD PUSH2 0x6B7C DUP2 PUSH2 0x6633 JUMP JUMPDEST SWAP5 POP PUSH1 0x20 DUP7 ADD CALLDATALOAD PUSH2 0x6B8C DUP2 PUSH2 0x6633 JUMP JUMPDEST SWAP5 SWAP8 SWAP5 SWAP7 POP POP POP POP PUSH1 0x40 DUP4 ADD CALLDATALOAD SWAP3 PUSH1 0x60 DUP2 ADD CALLDATALOAD SWAP3 PUSH1 0x80 SWAP1 SWAP2 ADD CALLDATALOAD SWAP2 POP JUMP JUMPDEST PUSH0 PUSH0 PUSH1 0x40 DUP4 DUP6 SUB SLT ISZERO PUSH2 0x6BBB JUMPI PUSH0 PUSH0 REVERT JUMPDEST DUP3 CALLDATALOAD SWAP2 POP PUSH1 0x20 DUP4 ADD CALLDATALOAD PUSH1 0x1 PUSH1 0x1 PUSH1 0x40 SHL SUB DUP2 GT ISZERO PUSH2 0x6BD7 JUMPI PUSH0 PUSH0 REVERT JUMPDEST PUSH2 0x6BE3 DUP6 DUP3 DUP7 ADD PUSH2 0x6736 JUMP JUMPDEST SWAP2 POP POP SWAP3 POP SWAP3 SWAP1 POP JUMP JUMPDEST PUSH0 PUSH0 PUSH1 0x40 DUP4 DUP6 SUB SLT ISZERO PUSH2 0x6BFE JUMPI PUSH0 PUSH0 REVERT JUMPDEST DUP3 CALLDATALOAD PUSH2 0x6C09 DUP2 PUSH2 0x6633 JUMP JUMPDEST SWAP5 PUSH1 0x20 SWAP4 SWAP1 SWAP4 ADD CALLDATALOAD SWAP4 POP POP POP JUMP JUMPDEST PUSH0 PUSH1 0x20 DUP3 DUP5 SUB SLT ISZERO PUSH2 0x6C27 JUMPI PUSH0 PUSH0 REVERT JUMPDEST POP CALLDATALOAD SWAP2 SWAP1 POP JUMP JUMPDEST PUSH0 PUSH0 PUSH0 PUSH0 PUSH1 0x80 DUP6 DUP8 SUB SLT ISZERO PUSH2 0x6C41 JUMPI PUSH0 PUSH0 REVERT JUMPDEST DUP5 CALLDATALOAD PUSH2 0x6C4C DUP2 PUSH2 0x6633 JUMP JUMPDEST SWAP7 PUSH1 0x20 DUP7 ADD CALLDATALOAD SWAP7 POP PUSH1 0x40 DUP7 ADD CALLDATALOAD SWAP6 PUSH1 0x60 ADD CALLDATALOAD SWAP5 POP SWAP3 POP POP POP JUMP JUMPDEST PUSH1 0x20 DUP2 MSTORE PUSH0 PUSH2 0x1959 PUSH1 0x20 DUP4 ADD DUP5 PUSH2 0x6845 JUMP JUMPDEST DUP1 ISZERO ISZERO DUP2 EQ PUSH2 0x6511 JUMPI PUSH0 PUSH0 REVERT JUMPDEST PUSH0 PUSH1 0x20 DUP3 DUP5 SUB SLT ISZERO PUSH2 0x6C95 JUMPI PUSH0 PUSH0 REVERT JUMPDEST DUP2 CALLDATALOAD PUSH2 0x1959 DUP2 PUSH2 0x6C78 JUMP JUMPDEST PUSH1 0xC0 DUP2 MSTORE PUSH0 PUSH2 0x6CB2 PUSH1 0xC0 DUP4 ADD DUP6 PUSH2 0x68C0 JUMP JUMPDEST SWAP1 POP PUSH2 0x1959 PUSH1 0x20 DUP4 ADD DUP5 PUSH2 0x6946 JUMP JUMPDEST PUSH1 0x20 DUP1 DUP3 MSTORE DUP2 DUP2 ADD MSTORE PUSH32 0x4F776E61626C653A2063616C6C6572206973206E6F7420746865206F776E6572 PUSH1 0x40 DUP3 ADD MSTORE PUSH1 0x60 ADD SWAP1 JUMP JUMPDEST PUSH1 0x20 DUP1 DUP3 MSTORE PUSH1 0x1D SWAP1 DUP3 ADD MSTORE PUSH32 0x416D6F756E74206D7573742062652067726561746572207468616E2030000000 PUSH1 0x40 DUP3 ADD MSTORE PUSH1 0x60 ADD SWAP1 JUMP JUMPDEST PUSH1 0x20 DUP1 DUP3 MSTORE PUSH1 0x15 SWAP1 DUP3 ADD MSTORE PUSH21 0x10DBDB9D1C9858DD1CC81B9BDD08185B1B1BDDD959 PUSH1 0x5A SHL PUSH1 0x40 DUP3 ADD MSTORE PUSH1 0x60 ADD SWAP1 JUMP JUMPDEST PUSH1 0x20 DUP1 DUP3 MSTORE PUSH1 0x1B SWAP1 DUP3 ADD MSTORE PUSH27 0x14DB585C9D0818DBDB9D1C9858DD1CC81B9BDD08185B1B1BDDD959 PUSH1 0x2A SHL PUSH1 0x40 DUP3 ADD MSTORE PUSH1 0x60 ADD SWAP1 JUMP JUMPDEST PUSH4 0x4E487B71 PUSH1 0xE0 SHL PUSH0 MSTORE PUSH1 0x11 PUSH1 0x4 MSTORE PUSH1 0x24 PUSH0 REVERT JUMPDEST DUP1 DUP3 ADD DUP1 DUP3 GT ISZERO PUSH2 0x10C3 JUMPI PUSH2 0x10C3 PUSH2 0x6D91 JUMP JUMPDEST DUP2 DUP2 SUB DUP2 DUP2 GT ISZERO PUSH2 0x10C3 JUMPI PUSH2 0x10C3 PUSH2 0x6D91 JUMP JUMPDEST PUSH4 0x4E487B71 PUSH1 0xE0 SHL PUSH0 MSTORE PUSH1 0x32 PUSH1 0x4 MSTORE PUSH1 0x24 PUSH0 REVERT JUMPDEST PUSH1 0x20 DUP1 DUP3 MSTORE PUSH1 0x13 SWAP1 DUP3 ADD MSTORE PUSH19 0x92DCECC2D8D2C840E6E8C2E4E840D2DCC8CAF PUSH1 0x6B SHL PUSH1 0x40 DUP3 ADD MSTORE PUSH1 0x60 ADD SWAP1 JUMP JUMPDEST PUSH0 PUSH1 0x1 DUP3 ADD PUSH2 0x6E1D JUMPI PUSH2 0x6E1D PUSH2 0x6D91 JUMP JUMPDEST POP PUSH1 0x1 ADD SWAP1 JUMP JUMPDEST PUSH1 0x20 DUP1 DUP3 MSTORE PUSH1 0xE SWAP1 DUP3 ADD MSTORE PUSH14 0x53797374656D2075706772616465 PUSH1 0x90 SHL PUSH1 0x40 DUP3 ADD MSTORE PUSH1 0x60 ADD SWAP1 JUMP JUMPDEST PUSH1 0x20 DUP1 DUP3 MSTORE PUSH1 0x13 SWAP1 DUP3 ADD MSTORE PUSH19 0x5573657220616C726561647920657869737473 PUSH1 0x68 SHL PUSH1 0x40 DUP3 ADD MSTORE PUSH1 0x60 ADD SWAP1 JUMP JUMPDEST PUSH1 0x20 DUP1 DUP3 MSTORE PUSH1 0x1A SWAP1 DUP3 ADD MSTORE PUSH26 0x5573657220616C72656164792065786973747320696E2056495 PUSH1 0x34 SHL PUSH1 0x40 DUP3 ADD MSTORE PUSH1 0x60 ADD SWAP1 JUMP JUMPDEST PUSH1 0x20 DUP1 DUP3 MSTORE PUSH1 0x15 SWAP1 DUP3 ADD MSTORE PUSH21 0x14185C995B9D08191BD95CC81B9BDD08195E1A5CDD PUSH1 0x5A SHL PUSH1 0x40 DUP3 ADD MSTORE PUSH1 0x60 ADD SWAP1 JUMP JUMPDEST PUSH1 0x20 DUP1 DUP3 MSTORE PUSH1 0x10 SWAP1 DUP3 ADD MSTORE PUSH16 0x506172656E74206E6F7420616C6C6F77 PUSH1 0x80 SHL PUSH1 0x40 DUP3 ADD MSTORE PUSH1 0x60 ADD SWAP1 JUMP JUMPDEST DUP1 MLOAD PUSH2 0x6F11 DUP2 PUSH2 0x6633 JUMP JUMPDEST SWAP2 SWAP1 POP JUMP JUMPDEST PUSH0 PUSH1 0x20 DUP3 DUP5 SUB SLT ISZERO PUSH2 0x6F26 JUMPI PUSH0 PUSH0 REVERT JUMPDEST DUP2 MLOAD PUSH2 0x1959 DUP2 PUSH2 0x6633 JUMP JUMPDEST PUSH1 0x20 DUP1 DUP3 MSTORE PUSH1 0x10 SWAP1 DUP3 ADD MSTORE PUSH16 0xE0C2E4CADCE840DCDEE840DAC2E8C6D PUSH1 0x83 SHL PUSH1 0x40 DUP3 ADD MSTORE PUSH1 0x60 ADD SWAP1 JUMP JUMPDEST PUSH4 0x4E487B71 PUSH1 0xE0 SHL PUSH0 MSTORE PUSH1 0x12 PUSH1 0x4 MSTORE PUSH1 0x24 PUSH0 REVERT JUMPDEST PUSH0 DUP3 PUSH2 0x6F7D JUMPI PUSH2 0x6F7D PUSH2 0x6F5B JUMP JUMPDEST POP DIV SWAP1 JUMP JUMPDEST PUSH1 0x1 PUSH1 0x1 PUSH1 0xA0 SHL SUB DUP7 AND DUP2 MSTORE PUSH1 0x20 DUP2 ADD DUP6 SWAP1 MSTORE PUSH1 0x40 DUP2 ADD DUP5 SWAP1 MSTORE DUP3 ISZERO ISZERO PUSH1 0x60 DUP3 ADD MSTORE PUSH1 0xA0 DUP2 ADD PUSH2 0x3A03 PUSH1 0x80 DUP4 ADD DUP5 PUSH2 0x6AD5 JUMP JUMPDEST PUSH1 0x1 PUSH1 0x1 PUSH1 0xA0 SHL SUB SWAP4 SWAP1 SWAP4 AND DUP4 MSTORE PUSH1 0x20 DUP4 ADD SWAP2 SWAP1 SWAP2 MSTORE PUSH1 0x40 DUP3 ADD MSTORE PUSH1 0x60 ADD SWAP1 JUMP JUMPDEST PUSH0 PUSH1 0x20 DUP3 DUP5 SUB SLT ISZERO PUSH2 0x6FE6 JUMPI PUSH0 PUSH0 REVERT JUMPDEST DUP2 MLOAD PUSH1 0x1 PUSH1 0x1 PUSH1 0x40 SHL SUB DUP2 GT ISZERO PUSH2 0x6FFB JUMPI PUSH0 PUSH0 REVERT JUMPDEST DUP3 ADD PUSH1 0x1F DUP2 ADD DUP5 SGT PUSH2 0x700B JUMPI PUSH0 PUSH0 REVERT JUMPDEST DUP1 MLOAD PUSH2 0x7019 PUSH2 0x6753 DUP3 PUSH2 0x6714 JUMP JUMPDEST DUP1 DUP3 DUP3 MSTORE PUSH1 0x20 DUP3 ADD SWAP2 POP PUSH1 0x20 DUP4 PUSH1 0x7 SHL DUP6 ADD ADD SWAP3 POP DUP7 DUP4 GT ISZERO PUSH2 0x703A JUMPI PUSH0 PUSH0 REVERT JUMPDEST PUSH1 0x20 DUP5 ADD SWAP4 POP JUMPDEST DUP3 DUP5 LT ISZERO PUSH2 0x3A03 JUMPI PUSH1 0x80 DUP5 DUP9 SUB SLT ISZERO PUSH2 0x7058 JUMPI PUSH0 PUSH0 REVERT JUMPDEST PUSH2 0x7060 PUSH2 0x6676 JUMP JUMPDEST DUP5 MLOAD PUSH2 0x706B DUP2 PUSH2 0x6633 JUMP JUMPDEST DUP2 MSTORE PUSH1 0x20 DUP6 DUP2 ADD MLOAD SWAP1 DUP3 ADD MSTORE PUSH1 0x40 DUP6 ADD MLOAD PUSH1 0x9 DUP2 LT PUSH2 0x7088 JUMPI PUSH0 PUSH0 REVERT JUMPDEST PUSH1 0x40 DUP3 ADD MSTORE PUSH1 0x60 DUP6 DUP2 ADD MLOAD SWAP1 DUP3 ADD MSTORE DUP3 MSTORE PUSH1 0x80 SWAP1 SWAP4 ADD SWAP3 PUSH1 0x20 SWAP1 SWAP2 ADD SWAP1 PUSH2 0x7041 JUMP JUMPDEST PUSH1 0x20 DUP1 DUP3 MSTORE PUSH1 0x13 SWAP1 DUP3 ADD MSTORE PUSH19 0x155CD95C88191BD95CC81B9BDD08195E1A5CDD PUSH1 0x6A SHL PUSH1 0x40 DUP3 ADD MSTORE PUSH1 0x60 ADD SWAP1 JUMP JUMPDEST PUSH1 0x1 PUSH1 0x1 PUSH1 0xA0 SHL SUB SWAP3 SWAP1 SWAP3 AND DUP3 MSTORE PUSH1 0x20 DUP3 ADD MSTORE PUSH1 0x40 ADD SWAP1 JUMP JUMPDEST PUSH0 PUSH1 0x20 DUP3 DUP5 SUB SLT ISZERO PUSH2 0x7100 JUMPI PUSH0 PUSH0 REVERT JUMPDEST DUP2 MLOAD PUSH2 0x1959 DUP2 PUSH2 0x6C78 JUMP JUMPDEST PUSH4 0x4E487B71 PUSH1 0xE0 SHL PUSH0 MSTORE PUSH1 0x31 PUSH1 0x4 MSTORE PUSH1 0x24 PUSH0 REVERT JUMPDEST PUSH0 PUSH2 0x120 DUP3 DUP5 SUB SLT DUP1 ISZERO PUSH2 0x7131 JUMPI PUSH0 PUSH0 REVERT JUMPDEST POP PUSH2 0x713A PUSH2 0x669E JUMP JUMPDEST DUP3 MLOAD DUP2 MSTORE PUSH1 0x20 DUP1 DUP5 ADD MLOAD SWAP1 DUP3 ADD MSTORE PUSH1 0x40 DUP1 DUP5 ADD MLOAD SWAP1 DUP3 ADD MSTORE PUSH1 0x60 DUP1 DUP5 ADD MLOAD SWAP1 DUP3 ADD MSTORE PUSH1 0x80 DUP1 DUP5 ADD MLOAD SWAP1 DUP3 ADD MSTORE PUSH1 0xA0 DUP1 DUP5 ADD MLOAD SWAP1 DUP3 ADD MSTORE PUSH1 0xC0 DUP1 DUP5 ADD MLOAD SWAP1 DUP3 ADD MSTORE PUSH1 0xE0 DUP1 DUP5 ADD MLOAD SWAP1 DUP3 ADD MSTORE PUSH2 0x100 SWAP3 DUP4 ADD MLOAD SWAP3 DUP2 ADD SWAP3 SWAP1 SWAP3 MSTORE POP SWAP2 SWAP1 POP JUMP JUMPDEST PUSH1 0x20 DUP1 DUP3 MSTORE PUSH1 0x10 SWAP1 DUP3 ADD MSTORE PUSH16 0x77726F6E67206F7264657220436F6465 PUSH1 0x80 SHL PUSH1 0x40 DUP3 ADD MSTORE PUSH1 0x60 ADD SWAP1 JUMP JUMPDEST PUSH0 PUSH1 0x20 DUP3 DUP5 SUB SLT ISZERO PUSH2 0x71D2 JUMPI PUSH0 PUSH0 REVERT JUMPDEST POP MLOAD SWAP2 SWAP1 POP JUMP JUMPDEST PUSH1 0x20 DUP1 DUP3 MSTORE PUSH1 0xF SWAP1 DUP3 ADD MSTORE PUSH15 0x13DC99195C881B9BDD08199BDD5B99 PUSH1 0x8A SHL PUSH1 0x40 DUP3 ADD MSTORE PUSH1 0x60 ADD SWAP1 JUMP JUMPDEST PUSH0 DUP3 PUSH1 0x1F DUP4 ADD SLT PUSH2 0x7211 JUMPI PUSH0 PUSH0 REVERT JUMPDEST DUP2 MLOAD PUSH2 0x721F PUSH2 0x6753 DUP3 PUSH2 0x6714 JUMP JUMPDEST DUP1 DUP3 DUP3 MSTORE PUSH1 0x20 DUP3 ADD SWAP2 POP PUSH1 0x20 DUP4 PUSH1 0x5 SHL DUP7 ADD ADD SWAP3 POP DUP6 DUP4 GT ISZERO PUSH2 0x7240 JUMPI PUSH0 PUSH0 REVERT JUMPDEST PUSH1 0x20 DUP6 ADD JUMPDEST DUP4 DUP2 LT ISZERO PUSH2 0x6796 JUMPI DUP1 MLOAD DUP4 MSTORE PUSH1 0x20 SWAP3 DUP4 ADD SWAP3 ADD PUSH2 0x7245 JUMP JUMPDEST DUP1 MLOAD PUSH2 0x6F11 DUP2 PUSH2 0x67F4 JUMP JUMPDEST PUSH0 PUSH1 0x20 DUP3 DUP5 SUB SLT ISZERO PUSH2 0x7278 JUMPI PUSH0 PUSH0 REVERT JUMPDEST DUP2 MLOAD PUSH1 0x1 PUSH1 0x1 PUSH1 0x40 SHL SUB DUP2 GT ISZERO PUSH2 0x728D JUMPI PUSH0 PUSH0 REVERT JUMPDEST DUP3 ADD PUSH2 0x260 DUP2 DUP6 SUB SLT ISZERO PUSH2 0x729F JUMPI PUSH0 PUSH0 REVERT JUMPDEST PUSH2 0x72A7 PUSH2 0x66C1 JUMP JUMPDEST DUP2 MLOAD DUP2 MSTORE PUSH2 0x72B7 PUSH1 0x20 DUP4 ADD PUSH2 0x6F06 JUMP JUMPDEST PUSH1 0x20 DUP3 ADD MSTORE PUSH2 0x72C8 PUSH1 0x40 DUP4 ADD PUSH2 0x6F06 JUMP JUMPDEST PUSH1 0x40 DUP3 ADD MSTORE PUSH1 0x60 DUP3 DUP2 ADD MLOAD SWAP1 DUP3 ADD MSTORE PUSH1 0x80 DUP3 ADD MLOAD PUSH1 0x1 PUSH1 0x1 PUSH1 0x40 SHL SUB DUP2 GT ISZERO PUSH2 0x72EF JUMPI PUSH0 PUSH0 REVERT JUMPDEST PUSH2 0x72FB DUP7 DUP3 DUP6 ADD PUSH2 0x7202 JUMP JUMPDEST PUSH1 0x80 DUP4 ADD MSTORE POP PUSH1 0xA0 DUP3 ADD MLOAD PUSH1 0x1 PUSH1 0x1 PUSH1 0x40 SHL SUB DUP2 GT ISZERO PUSH2 0x7319 JUMPI PUSH0 PUSH0 REVERT JUMPDEST PUSH2 0x7325 DUP7 DUP3 DUP6 ADD PUSH2 0x7202 JUMP JUMPDEST PUSH1 0xA0 DUP4 ADD MSTORE POP PUSH1 0xC0 DUP3 ADD MLOAD PUSH1 0x1 PUSH1 0x1 PUSH1 0x40 SHL SUB DUP2 GT ISZERO PUSH2 0x7343 JUMPI PUSH0 PUSH0 REVERT JUMPDEST PUSH2 0x734F DUP7 DUP3 DUP6 ADD PUSH2 0x7202 JUMP JUMPDEST PUSH1 0xC0 DUP4 ADD MSTORE POP PUSH1 0xE0 DUP3 ADD MLOAD PUSH1 0x1 PUSH1 0x1 PUSH1 0x40 SHL SUB DUP2 GT ISZERO PUSH2 0x736D JUMPI PUSH0 PUSH0 REVERT JUMPDEST PUSH2 0x7379 DUP7 DUP3 DUP6 ADD PUSH2 0x7202 JUMP JUMPDEST PUSH1 0xE0 DUP4 ADD MSTORE POP PUSH2 0x100 DUP3 ADD MLOAD PUSH1 0x1 PUSH1 0x1 PUSH1 0x40 SHL SUB DUP2 GT ISZERO PUSH2 0x7398 JUMPI PUSH0 PUSH0 REVERT JUMPDEST PUSH2 0x73A4 DUP7 DUP3 DUP6 ADD PUSH2 0x7202 JUMP JUMPDEST PUSH2 0x100 DUP4 ADD MSTORE POP PUSH2 0x120 DUP3 ADD MLOAD PUSH1 0x1 PUSH1 0x1 PUSH1 0x40 SHL SUB DUP2 GT ISZERO PUSH2 0x73C4 JUMPI PUSH0 PUSH0 REVERT JUMPDEST PUSH2 0x73D0 DUP7 DUP3 DUP6 ADD PUSH2 0x7202 JUMP JUMPDEST PUSH2 0x120 DUP4 ADD MSTORE POP PUSH2 0x140 DUP3 ADD MLOAD PUSH1 0x1 PUSH1 0x1 PUSH1 0x40 SHL SUB DUP2 GT ISZERO PUSH2 0x73F0 JUMPI PUSH0 PUSH0 REVERT JUMPDEST PUSH2 0x73FC DUP7 DUP3 DUP6 ADD PUSH2 0x7202 JUMP JUMPDEST PUSH2 0x140 DUP4 ADD MSTORE POP PUSH2 0x160 DUP3 DUP2 ADD MLOAD SWAP1 DUP3 ADD MSTORE PUSH2 0x741B PUSH2 0x180 DUP4 ADD PUSH2 0x725D JUMP JUMPDEST PUSH2 0x180 DUP3 ADD MSTORE PUSH2 0x742E PUSH2 0x1A0 DUP4 ADD PUSH2 0x725D JUMP JUMPDEST PUSH2 0x1A0 DUP3 ADD MSTORE PUSH2 0x1C0 DUP3 DUP2 ADD MLOAD SWAP1 DUP3 ADD MSTORE PUSH2 0x1E0 DUP1 DUP4 ADD MLOAD SWAP1 DUP3 ADD MSTORE PUSH2 0x200 DUP1 DUP4 ADD MLOAD SWAP1 DUP3 ADD MSTORE PUSH2 0x7462 PUSH2 0x220 DUP4 ADD PUSH2 0x725D JUMP JUMPDEST PUSH2 0x220 DUP3 ADD MSTORE PUSH2 0x240 SWAP2 DUP3 ADD MLOAD SWAP2 DUP2 ADD SWAP2 SWAP1 SWAP2 MSTORE SWAP4 SWAP3 POP POP POP JUMP JUMPDEST PUSH0 PUSH1 0xFF DUP3 AND PUSH1 0xFF DUP2 SUB PUSH2 0x7492 JUMPI PUSH2 0x7492 PUSH2 0x6D91 JUMP JUMPDEST PUSH1 0x1 ADD SWAP3 SWAP2 POP POP JUMP JUMPDEST PUSH1 0x20 DUP1 DUP3 MSTORE PUSH1 0xC SWAP1 DUP3 ADD MSTORE PUSH12 0x15DC9BDB99C8185B5BDD5B9D PUSH1 0xA2 SHL PUSH1 0x40 DUP3 ADD MSTORE PUSH1 0x60 ADD SWAP1 JUMP JUMPDEST DUP1 DUP3 MUL DUP2 ISZERO DUP3 DUP3 DIV DUP5 EQ OR PUSH2 0x10C3 JUMPI PUSH2 0x10C3 PUSH2 0x6D91 JUMP JUMPDEST PUSH1 0x1 PUSH1 0x1 PUSH1 0xA0 SHL SUB DUP4 AND DUP2 MSTORE PUSH1 0x40 PUSH1 0x20 DUP1 DUP4 ADD DUP3 SWAP1 MSTORE DUP4 MLOAD SWAP2 DUP4 ADD DUP3 SWAP1 MSTORE PUSH0 SWAP2 SWAP1 DUP5 ADD SWAP1 PUSH1 0x60 DUP5 ADD SWAP1 DUP4 JUMPDEST DUP2 DUP2 LT ISZERO PUSH2 0x7521 JUMPI DUP4 MLOAD DUP4 MSTORE PUSH1 0x20 SWAP4 DUP5 ADD SWAP4 SWAP1 SWAP3 ADD SWAP2 PUSH1 0x1 ADD PUSH2 0x7503 JUMP JUMPDEST POP SWAP1 SWAP7 SWAP6 POP POP POP POP POP POP JUMP JUMPDEST PUSH1 0x1 PUSH1 0x1 PUSH1 0x60 SHL SUB NOT PUSH1 0x60 SWAP4 DUP5 SHL DUP2 AND DUP3 MSTORE SWAP2 SWAP1 SWAP3 SHL AND PUSH1 0x14 DUP3 ADD MSTORE PUSH1 0x28 ADD SWAP1 JUMP JUMPDEST PUSH0 PUSH1 0xFF DUP4 AND DUP1 PUSH2 0x7561 JUMPI PUSH2 0x7561 PUSH2 0x6F5B JUMP JUMPDEST DUP1 PUSH1 0xFF DUP5 AND MOD SWAP2 POP POP SWAP3 SWAP2 POP POP JUMP JUMPDEST DUP6 DUP2 MSTORE PUSH1 0xA0 PUSH1 0x20 DUP3 ADD MSTORE PUSH0 PUSH2 0x7588 PUSH1 0xA0 DUP4 ADD DUP8 PUSH2 0x6845 JUMP JUMPDEST DUP3 DUP2 SUB PUSH1 0x40 DUP5 ADD MSTORE DUP6 MLOAD DUP1 DUP3 MSTORE PUSH1 0x20 DUP1 DUP9 ADD SWAP3 ADD SWAP1 PUSH0 JUMPDEST DUP2 DUP2 LT ISZERO PUSH2 0x75BD JUMPI DUP4 MLOAD DUP4 MSTORE PUSH1 0x20 SWAP4 DUP5 ADD SWAP4 SWAP1 SWAP3 ADD SWAP2 PUSH1 0x1 ADD PUSH2 0x759F JUMP JUMPDEST POP POP DUP6 ISZERO ISZERO PUSH1 0x60 DUP6 ADD MSTORE SWAP2 POP PUSH2 0x3A03 SWAP1 POP PUSH1 0x80 DUP4 ADD DUP5 PUSH2 0x6AD5 JUMP JUMPDEST PUSH1 0x20 DUP1 DUP3 MSTORE PUSH1 0x19 SWAP1 DUP3 ADD MSTORE PUSH25 0x506172656E74206C6F737420647572696E6720726573657421 PUSH1 0x38 SHL PUSH1 0x40 DUP3 ADD MSTORE PUSH1 0x60 ADD SWAP1 JUMP JUMPDEST PUSH1 0x40 DUP2 MSTORE PUSH0 DUP4 MLOAD DUP1 PUSH1 0x40 DUP5 ADD MSTORE DUP1 PUSH1 0x20 DUP7 ADD PUSH1 0x60 DUP6 ADD MCOPY PUSH0 PUSH1 0x60 DUP3 DUP6 ADD ADD MSTORE PUSH1 0x60 PUSH1 0x1F NOT PUSH1 0x1F DUP4 ADD AND DUP5 ADD ADD SWAP2 POP POP DUP3 PUSH1 0x20 DUP4 ADD MSTORE SWAP4 SWAP3 POP POP POP JUMP INVALID DUP14 GT ADDMOD RJUMPI 0xBCB PUSH29 0x27DDDFC02ED9D693A074039D026CF4EA4240B40F7D581AC8068D1108E1 SIGNEXTEND 0xCB PUSH29 0x27DDDFC02ED9D693A074039D026CF4EA4240B40F7D581AC8058D1108E1 SIGNEXTEND 0xCB PUSH29 0x27DDDFC02ED9D693A074039D026CF4EA4240B40F7D581AC8048D1108E1 SIGNEXTEND 0xCB PUSH29 0x27DDDFC02ED9D693A074039D026CF4EA4240B40F7D581AC8038D1108E1 SIGNEXTEND 0xCB PUSH29 0x27DDDFC02ED9D693A074039D026CF4EA4240B40F7D581AC802A2646970 PUSH7 0x73582212209B2F 0xB6 0xC3 CALLF 0xA4F6 AND AND 0xDD GASLIMIT SWAP16 0xC7 EXTCODESIZE SWAP1 SUB SWAP8 DIV 0xCD PREVRANDAO GASPRICE 0xC4 0xD9 STATICCALL 0xBC EXP 0x4C 0xDC PUSH0 SELFDESTRUCT SELFDESTRUCT DUP4 PUSH5 0x736F6C6343 STOP ADDMOD SAR STOP CALLER "
		},
		"gasEstimates": {
			"creation": {
				"codeDepositCost": "6098600",
				"executionCost": "infinite",
				"totalCost": "infinite"
			},
			"external": {
				"addPromoterMember(address,address,uint256,uint256,bytes32)": "infinite",
				"addVIPMember(address,address,bytes32)": "infinite",
				"balancesManager()": "2800",
				"banUser(address)": "26747",
				"buyProduct(bytes32,bytes32)": "infinite",
				"checkPromoter(address)": "2637",
				"dailyUpdateGenerationRank()": "infinite",
				"distributeNationalBonus()": "infinite",
				"eComOrderManagerAddress()": "2624",
				"eComUserManagerAddress()": "2602",
				"getAddress()": "8999",
				"getChildren(address,uint8,uint256,uint256)": "infinite",
				"getCommInfoUSDTInRange(address,uint256,uint256)": "infinite",
				"getCommissionUSDTInRange(address,uint256,uint256)": "infinite",
				"getPromoterInfo()": "infinite",
				"getVIPInfo()": "7262",
				"getVIPMembers(address,uint256,uint256)": "infinite",
				"hourlyBatchProcessing()": "infinite",
				"isPromoterActive(address)": "5301",
				"isVIP()": "2806",
				"isVIPOrPromoter(address)": "7471",
				"processTeamBPAndActive(uint256,uint256)": "infinite",
				"renewMembership(address,bytes32)": "infinite",
				"resetMonthlyData(uint256,uint256)": "infinite",
				"sendProfitForEStock(uint256)": "infinite",
				"setAgentLevel(address,uint256)": "29425",
				"setEcomOrder(address)": "27253",
				"setEcomUser(address)": "26681",
				"setLockData(bool)": "29395",
				"setUsdt(address)": "27055",
				"testGetNodeParent(address)": "2758",
				"testGetUserParent(address)": "infinite",
				"updateDeliveryProduct(bytes32)": "infinite",
				"upgradeToPromoter(address,uint256,uint256,bytes32)": "infinite",
				"withdrawBP(uint256,bytes32[])": "infinite",
				"withdrawBPToAnotherUser(uint256,address,bytes32[])": "infinite"
			},
			"internal": {
				"_processNewMember(address,address,uint256,uint256,bytes32)": "infinite",
				"_processPersonalSales(address,uint256,bytes32)": "infinite",
				"processParentRecursively(address)": "infinite",
				"processQueue()": "infinite",
				"recordPersonalSales(address,uint256,bytes32)": "infinite",
				"recordSales(address,uint256)": "50948",
				"updateLeafNodes()": "infinite",
				"withdrawBPToUser(uint256,address,bytes32[] memory)": "infinite"
			}
		},
		"methodIdentifiers": {
			"addPromoterMember(address,address,uint256,uint256,bytes32)": "44b89702",
			"addVIPMember(address,address,bytes32)": "259dbd96",
			"balancesManager()": "667883f1",
			"banUser(address)": "10d86b1f",
			"buyProduct(bytes32,bytes32)": "d7b5a2d4",
			"checkPromoter(address)": "20d996d2",
			"dailyUpdateGenerationRank()": "35b79c3d",
			"distributeNationalBonus()": "2cf899e2",
			"eComOrderManagerAddress()": "432e9d88",
			"eComUserManagerAddress()": "424ad610",
			"getAddress()": "38cc4831",
			"getChildren(address,uint8,uint256,uint256)": "1da0073a",
			"getCommInfoUSDTInRange(address,uint256,uint256)": "40d1ac13",
			"getCommissionUSDTInRange(address,uint256,uint256)": "c2ad61e7",
			"getPromoterInfo()": "e1ab8c6b",
			"getVIPInfo()": "504ed733",
			"getVIPMembers(address,uint256,uint256)": "964b74dd",
			"hourlyBatchProcessing()": "db499bf5",
			"isPromoterActive(address)": "6c0adbbd",
			"isVIP()": "61a475c8",
			"isVIPOrPromoter(address)": "8b59d23e",
			"processTeamBPAndActive(uint256,uint256)": "1f01f30d",
			"renewMembership(address,bytes32)": "b9bcaf02",
			"resetMonthlyData(uint256,uint256)": "bcd565ba",
			"sendProfitForEStock(uint256)": "8345be55",
			"setAgentLevel(address,uint256)": "61474327",
			"setEcomOrder(address)": "8ca8107b",
			"setEcomUser(address)": "08a851b8",
			"setLockData(bool)": "b35cade9",
			"setUsdt(address)": "58979bfe",
			"testGetNodeParent(address)": "38cb9134",
			"testGetUserParent(address)": "4a0328de",
			"updateDeliveryProduct(bytes32)": "e45c1b56",
			"upgradeToPromoter(address,uint256,uint256,bytes32)": "839c7ead",
			"withdrawBP(uint256,bytes32[])": "5f35ca9c",
			"withdrawBPToAnotherUser(uint256,address,bytes32[])": "185807e4"
		}
	},
	"abi": [
		{
			"inputs": [
				{
					"internalType": "address",
					"name": "_ecomOrderAddress",
					"type": "address"
				},
				{
					"internalType": "address",
					"name": "_ecomUserAddress",
					"type": "address"
				},
				{
					"internalType": "address",
					"name": "_balanceManagerAddress",
					"type": "address"
				},
				{
					"internalType": "address",
					"name": "_showroomAddress",
					"type": "address"
				},
				{
					"internalType": "address",
					"name": "_eventLoggerAddress",
					"type": "address"
				},
				{
					"internalType": "address",
					"name": "_rootNodeAddress",
					"type": "address"
				},
				{
					"internalType": "address",
					"name": "_daoNodeAddress",
					"type": "address"
				},
				{
					"internalType": "address",
					"name": "_stockNodeAddress",
					"type": "address"
				},
				{
					"internalType": "address",
					"name": "_usdtAddress",
					"type": "address"
				}
			],
			"stateMutability": "nonpayable",
			"type": "constructor"
		},
		{
			"anonymous": false,
			"inputs": [
				{
					"indexed": true,
					"internalType": "address",
					"name": "user",
					"type": "address"
				},
				{
					"indexed": false,
					"internalType": "uint256",
					"name": "bp",
					"type": "uint256"
				}
			],
			"name": "BPChanged",
			"type": "event"
		},
		{
			"inputs": [
				{
					"internalType": "address",
					"name": "newMember",
					"type": "address"
				},
				{
					"internalType": "address",
					"name": "parent",
					"type": "address"
				},
				{
					"internalType": "uint256",
					"name": "longtitude",
					"type": "uint256"
				},
				{
					"internalType": "uint256",
					"name": "lattitude",
					"type": "uint256"
				},
				{
					"internalType": "bytes32",
					"name": "utxoID",
					"type": "bytes32"
				}
			],
			"name": "addPromoterMember",
			"outputs": [],
			"stateMutability": "nonpayable",
			"type": "function"
		},
		{
			"inputs": [
				{
					"internalType": "address",
					"name": "newMember",
					"type": "address"
				},
				{
					"internalType": "address",
					"name": "parent",
					"type": "address"
				},
				{
					"internalType": "bytes32",
					"name": "utxoID",
					"type": "bytes32"
				}
			],
			"name": "addVIPMember",
			"outputs": [],
			"stateMutability": "nonpayable",
			"type": "function"
		},
		{
			"inputs": [],
			"name": "balancesManager",
			"outputs": [
				{
					"internalType": "contract BalancesManager",
					"name": "",
					"type": "address"
				}
			],
			"stateMutability": "view",
			"type": "function"
		},
		{
			"inputs": [
				{
					"internalType": "address",
					"name": "user",
					"type": "address"
				}
			],
			"name": "banUser",
			"outputs": [],
			"stateMutability": "nonpayable",
			"type": "function"
		},
		{
			"inputs": [
				{
					"internalType": "bytes32",
					"name": "orderCode",
					"type": "bytes32"
				},
				{
					"internalType": "bytes32",
					"name": "utxoID",
					"type": "bytes32"
				}
			],
			"name": "buyProduct",
			"outputs": [],
			"stateMutability": "nonpayable",
			"type": "function"
		},
		{
			"inputs": [
				{
					"internalType": "address",
					"name": "user",
					"type": "address"
				}
			],
			"name": "checkPromoter",
			"outputs": [
				{
					"internalType": "bool",
					"name": "",
					"type": "bool"
				}
			],
			"stateMutability": "view",
			"type": "function"
		},
		{
			"inputs": [],
			"name": "dailyUpdateGenerationRank",
			"outputs": [],
			"stateMutability": "nonpayable",
			"type": "function"
		},
		{
			"inputs": [],
			"name": "distributeNationalBonus",
			"outputs": [],
			"stateMutability": "nonpayable",
			"type": "function"
		},
		{
			"inputs": [],
			"name": "eComOrderManagerAddress",
			"outputs": [
				{
					"internalType": "address",
					"name": "",
					"type": "address"
				}
			],
			"stateMutability": "view",
			"type": "function"
		},
		{
			"inputs": [],
			"name": "eComUserManagerAddress",
			"outputs": [
				{
					"internalType": "address",
					"name": "",
					"type": "address"
				}
			],
			"stateMutability": "view",
			"type": "function"
		},
		{
			"inputs": [],
			"name": "getAddress",
			"outputs": [
				{
					"internalType": "address",
					"name": "",
					"type": "address"
				},
				{
					"internalType": "address",
					"name": "",
					"type": "address"
				},
				{
					"internalType": "address",
					"name": "",
					"type": "address"
				}
			],
			"stateMutability": "view",
			"type": "function"
		},
		{
			"inputs": [
				{
					"internalType": "address",
					"name": "user",
					"type": "address"
				},
				{
					"internalType": "uint8",
					"name": "totalLevel",
					"type": "uint8"
				},
				{
					"internalType": "uint256",
					"name": "startIndex",
					"type": "uint256"
				},
				{
					"internalType": "uint256",
					"name": "pageSize",
					"type": "uint256"
				}
			],
			"name": "getChildren",
			"outputs": [
				{
					"internalType": "address[]",
					"name": "children",
					"type": "address[]"
				},
				{
					"components": [
						{
							"internalType": "address",
							"name": "parent",
							"type": "address"
						},
						{
							"internalType": "address[]",
							"name": "children",
							"type": "address[]"
						},
						{
							"internalType": "enum TreeLib.Rank",
							"name": "rank",
							"type": "uint8"
						},
						{
							"internalType": "enum TreeLib.Status",
							"name": "status",
							"type": "uint8"
						}
					],
					"internalType": "struct TreeLib.NodeInfo[]",
					"name": "childrenInfo",
					"type": "tuple[]"
				},
				{
					"components": [
						{
							"internalType": "uint256",
							"name": "membershipExpiry",
							"type": "uint256"
						},
						{
							"internalType": "uint256",
							"name": "processedChildren",
							"type": "uint256"
						},
						{
							"internalType": "uint256",
							"name": "personalBP",
							"type": "uint256"
						},
						{
							"internalType": "uint256",
							"name": "teamBP",
							"type": "uint256"
						},
						{
							"internalType": "uint256",
							"name": "totalTeamBP",
							"type": "uint256"
						}
					],
					"internalType": "struct TreeLib.NodeData[]",
					"name": "childrenData",
					"type": "tuple[]"
				}
			],
			"stateMutability": "nonpayable",
			"type": "function"
		},
		{
			"inputs": [
				{
					"internalType": "address",
					"name": "_user",
					"type": "address"
				},
				{
					"internalType": "uint256",
					"name": "_startDate",
					"type": "uint256"
				},
				{
					"internalType": "uint256",
					"name": "_endDate",
					"type": "uint256"
				}
			],
			"name": "getCommInfoUSDTInRange",
			"outputs": [
				{
					"components": [
						{
							"internalType": "address",
							"name": "user",
							"type": "address"
						},
						{
							"internalType": "uint256",
							"name": "amount",
							"type": "uint256"
						},
						{
							"internalType": "enum ITreeCommission.TYPE_OF_COM",
							"name": "typ",
							"type": "uint8"
						},
						{
							"internalType": "uint256",
							"name": "createdAt",
							"type": "uint256"
						}
					],
					"internalType": "struct ITreeCommission.CommissionInfo[]",
					"name": "comInfos",
					"type": "tuple[]"
				}
			],
			"stateMutability": "view",
			"type": "function"
		},
		{
			"inputs": [
				{
					"internalType": "address",
					"name": "_user",
					"type": "address"
				},
				{
					"internalType": "uint256",
					"name": "_startDate",
					"type": "uint256"
				},
				{
					"internalType": "uint256",
					"name": "_endDate",
					"type": "uint256"
				}
			],
			"name": "getCommissionUSDTInRange",
			"outputs": [
				{
					"components": [
						{
							"internalType": "uint256",
							"name": "retailBonus",
							"type": "uint256"
						},
						{
							"internalType": "uint256",
							"name": "showroomBonus",
							"type": "uint256"
						},
						{
							"internalType": "uint256",
							"name": "daoBonus",
							"type": "uint256"
						},
						{
							"internalType": "uint256",
							"name": "otherBonus",
							"type": "uint256"
						},
						{
							"internalType": "uint256",
							"name": "activationBp",
							"type": "uint256"
						},
						{
							"internalType": "uint256",
							"name": "diffPrice",
							"type": "uint256"
						},
						{
							"internalType": "uint256",
							"name": "unilevelBonus",
							"type": "uint256"
						},
						{
							"internalType": "uint256",
							"name": "generationBonus",
							"type": "uint256"
						},
						{
							"internalType": "uint256",
							"name": "nationalBonus",
							"type": "uint256"
						}
					],
					"internalType": "struct ITreeCommission.CommissionData",
					"name": "commissionData",
					"type": "tuple"
				}
			],
			"stateMutability": "view",
			"type": "function"
		},
		{
			"inputs": [],
			"name": "getPromoterInfo",
			"outputs": [
				{
					"components": [
						{
							"internalType": "address",
							"name": "parent",
							"type": "address"
						},
						{
							"internalType": "address[]",
							"name": "children",
							"type": "address[]"
						},
						{
							"internalType": "enum TreeLib.Rank",
							"name": "rank",
							"type": "uint8"
						},
						{
							"internalType": "enum TreeLib.Status",
							"name": "status",
							"type": "uint8"
						}
					],
					"internalType": "struct TreeLib.NodeInfo",
					"name": "nodesUser",
					"type": "tuple"
				},
				{
					"components": [
						{
							"internalType": "uint256",
							"name": "membershipExpiry",
							"type": "uint256"
						},
						{
							"internalType": "uint256",
							"name": "processedChildren",
							"type": "uint256"
						},
						{
							"internalType": "uint256",
							"name": "personalBP",
							"type": "uint256"
						},
						{
							"internalType": "uint256",
							"name": "teamBP",
							"type": "uint256"
						},
						{
							"internalType": "uint256",
							"name": "totalTeamBP",
							"type": "uint256"
						}
					],
					"internalType": "struct TreeLib.NodeData",
					"name": "nodeDataUser",
					"type": "tuple"
				}
			],
			"stateMutability": "view",
			"type": "function"
		},
		{
			"inputs": [],
			"name": "getVIPInfo",
			"outputs": [
				{
					"components": [
						{
							"internalType": "address",
							"name": "parent",
							"type": "address"
						},
						{
							"internalType": "uint256",
							"name": "membershipExpiry",
							"type": "uint256"
						}
					],
					"internalType": "struct TreeCommission.VIPNode",
					"name": "",
					"type": "tuple"
				}
			],
			"stateMutability": "view",
			"type": "function"
		},
		{
			"inputs": [
				{
					"internalType": "address",
					"name": "user",
					"type": "address"
				},
				{
					"internalType": "uint256",
					"name": "startIndex",
					"type": "uint256"
				},
				{
					"internalType": "uint256",
					"name": "pageSize",
					"type": "uint256"
				}
			],
			"name": "getVIPMembers",
			"outputs": [
				{
					"internalType": "address[]",
					"name": "",
					"type": "address[]"
				}
			],
			"stateMutability": "view",
			"type": "function"
		},
		{
			"inputs": [],
			"name": "hourlyBatchProcessing",
			"outputs": [],
			"stateMutability": "nonpayable",
			"type": "function"
		},
		{
			"inputs": [
				{
					"internalType": "address",
					"name": "user",
					"type": "address"
				}
			],
			"name": "isPromoterActive",
			"outputs": [
				{
					"internalType": "bool",
					"name": "",
					"type": "bool"
				}
			],
			"stateMutability": "view",
			"type": "function"
		},
		{
			"inputs": [],
			"name": "isVIP",
			"outputs": [
				{
					"internalType": "bool",
					"name": "",
					"type": "bool"
				}
			],
			"stateMutability": "view",
			"type": "function"
		},
		{
			"inputs": [
				{
					"internalType": "address",
					"name": "user",
					"type": "address"
				}
			],
			"name": "isVIPOrPromoter",
			"outputs": [
				{
					"internalType": "bool",
					"name": "",
					"type": "bool"
				}
			],
			"stateMutability": "view",
			"type": "function"
		},
		{
			"inputs": [
				{
					"internalType": "uint256",
					"name": "startIndex",
					"type": "uint256"
				},
				{
					"internalType": "uint256",
					"name": "batchSize",
					"type": "uint256"
				}
			],
			"name": "processTeamBPAndActive",
			"outputs": [
				{
					"internalType": "uint256",
					"name": "nextIndex",
					"type": "uint256"
				}
			],
			"stateMutability": "nonpayable",
			"type": "function"
		},
		{
			"inputs": [
				{
					"internalType": "address",
					"name": "user",
					"type": "address"
				},
				{
					"internalType": "bytes32",
					"name": "utxoID",
					"type": "bytes32"
				}
			],
			"name": "renewMembership",
			"outputs": [],
			"stateMutability": "payable",
			"type": "function"
		},
		{
			"inputs": [
				{
					"internalType": "uint256",
					"name": "startIndex",
					"type": "uint256"
				},
				{
					"internalType": "uint256",
					"name": "batchSize",
					"type": "uint256"
				}
			],
			"name": "resetMonthlyData",
			"outputs": [],
			"stateMutability": "nonpayable",
			"type": "function"
		},
		{
			"inputs": [
				{
					"internalType": "uint256",
					"name": "amount",
					"type": "uint256"
				}
			],
			"name": "sendProfitForEStock",
			"outputs": [],
			"stateMutability": "nonpayable",
			"type": "function"
		},
		{
			"inputs": [
				{
					"internalType": "address",
					"name": "user",
					"type": "address"
				},
				{
					"internalType": "uint256",
					"name": "level",
					"type": "uint256"
				}
			],
			"name": "setAgentLevel",
			"outputs": [],
			"stateMutability": "nonpayable",
			"type": "function"
		},
		{
			"inputs": [
				{
					"internalType": "address",
					"name": "_eComOrderManagerAddress",
					"type": "address"
				}
			],
			"name": "setEcomOrder",
			"outputs": [],
			"stateMutability": "nonpayable",
			"type": "function"
		},
		{
			"inputs": [
				{
					"internalType": "address",
					"name": "_eComUserManagerAddress",
					"type": "address"
				}
			],
			"name": "setEcomUser",
			"outputs": [],
			"stateMutability": "nonpayable",
			"type": "function"
		},
		{
			"inputs": [
				{
					"internalType": "bool",
					"name": "isLock",
					"type": "bool"
				}
			],
			"name": "setLockData",
			"outputs": [],
			"stateMutability": "nonpayable",
			"type": "function"
		},
		{
			"inputs": [
				{
					"internalType": "address",
					"name": "_usdtAddress",
					"type": "address"
				}
			],
			"name": "setUsdt",
			"outputs": [],
			"stateMutability": "nonpayable",
			"type": "function"
		},
		{
			"inputs": [
				{
					"internalType": "address",
					"name": "newMember",
					"type": "address"
				}
			],
			"name": "testGetNodeParent",
			"outputs": [
				{
					"internalType": "address",
					"name": "",
					"type": "address"
				}
			],
			"stateMutability": "view",
			"type": "function"
		},
		{
			"inputs": [
				{
					"internalType": "address",
					"name": "newMember",
					"type": "address"
				}
			],
			"name": "testGetUserParent",
			"outputs": [
				{
					"internalType": "address",
					"name": "",
					"type": "address"
				}
			],
			"stateMutability": "view",
			"type": "function"
		},
		{
			"inputs": [
				{
					"internalType": "bytes32",
					"name": "orderCode",
					"type": "bytes32"
				}
			],
			"name": "updateDeliveryProduct",
			"outputs": [],
			"stateMutability": "nonpayable",
			"type": "function"
		},
		{
			"inputs": [
				{
					"internalType": "address",
					"name": "user",
					"type": "address"
				},
				{
					"internalType": "uint256",
					"name": "longtitude",
					"type": "uint256"
				},
				{
					"internalType": "uint256",
					"name": "lattitude",
					"type": "uint256"
				},
				{
					"internalType": "bytes32",
					"name": "utxoID",
					"type": "bytes32"
				}
			],
			"name": "upgradeToPromoter",
			"outputs": [],
			"stateMutability": "payable",
			"type": "function"
		},
		{
			"inputs": [
				{
					"internalType": "uint256",
					"name": "amount",
					"type": "uint256"
				},
				{
					"internalType": "bytes32[]",
					"name": "utxoArr",
					"type": "bytes32[]"
				}
			],
			"name": "withdrawBP",
			"outputs": [],
			"stateMutability": "nonpayable",
			"type": "function"
		},
		{
			"inputs": [
				{
					"internalType": "uint256",
					"name": "amount",
					"type": "uint256"
				},
				{
					"internalType": "address",
					"name": "user",
					"type": "address"
				},
				{
					"internalType": "bytes32[]",
					"name": "utxoArr",
					"type": "bytes32[]"
				}
			],
			"name": "withdrawBPToAnotherUser",
			"outputs": [],
			"stateMutability": "nonpayable",
			"type": "function"
		}
	]
}