{
	"data": {
		"bytecode": {
			"linkReferences": {},
			"object": "60b86032600b8282823980515f1a607314602657634e487b7160e01b5f525f60045260245ffd5b305f52607381538281f3fe73000000000000000000000000000000000000000030146080604052600436106050575f3560e01c8063172c0d7f146054578063d906e5c214606d578063f2e1de84146074578063fc9f00fb14607b575b5f80fd5b605b600381565b60405190815260200160405180910390f35b605b600a81565b605b600581565b605b60028156fea2646970667358221220ad5fece29b88393dcbe288d760a6a4cfb0274ec5bad46cbcf29c4d3c5ecbb6ad64736f6c634300081a0033",
			"opcodes": "PUSH1 0xB8 PUSH1 0x32 PUSH1 0xB DUP3 DUP3 DUP3 CODECOPY DUP1 MLOAD PUSH0 BYTE PUSH1 0x73 EQ PUSH1 0x26 JUMPI PUSH4 0x4E487B71 PUSH1 0xE0 SHL PUSH0 MSTORE PUSH0 PUSH1 0x4 MSTORE PUSH1 0x24 PUSH0 REVERT JUMPDEST ADDRESS PUSH0 MSTORE PUSH1 0x73 DUP2 MSTORE8 DUP3 DUP2 RETURN INVALID PUSH20 0x0 ADDRESS EQ PUSH1 0x80 PUSH1 0x40 MSTORE PUSH1 0x4 CALLDATASIZE LT PUSH1 0x50 JUMPI PUSH0 CALLDATALOAD PUSH1 0xE0 SHR DUP1 PUSH4 0x172C0D7F EQ PUSH1 0x54 JUMPI DUP1 PUSH4 0xD906E5C2 EQ PUSH1 0x6D JUMPI DUP1 PUSH4 0xF2E1DE84 EQ PUSH1 0x74 JUMPI DUP1 PUSH4 0xFC9F00FB EQ PUSH1 0x7B JUMPI JUMPDEST PUSH0 DUP1 REVERT JUMPDEST PUSH1 0x5B PUSH1 0x3 DUP2 JUMP JUMPDEST PUSH1 0x40 MLOAD SWAP1 DUP2 MSTORE PUSH1 0x20 ADD PUSH1 0x40 MLOAD DUP1 SWAP2 SUB SWAP1 RETURN JUMPDEST PUSH1 0x5B PUSH1 0xA DUP2 JUMP JUMPDEST PUSH1 0x5B PUSH1 0x5 DUP2 JUMP JUMPDEST PUSH1 0x5B PUSH1 0x2 DUP2 JUMP INVALID LOG2 PUSH5 0x6970667358 0x22 SLT KECCAK256 0xAD PUSH0 0xEC 0xE2 SWAP12 DUP9 CODECOPY RETURNDATASIZE 0xCB 0xE2 DUP9 0xD7 PUSH1 0xA6 LOG4 0xCF 0xB0 0x27 0x4E 0xC5 0xBA 0xD4 PUSH13 0xBCF29C4D3C5ECBB6AD64736F6C PUSH4 0x4300081A STOP CALLER "
		},
		"gasEstimates": {
			"creation": {
				"codeDepositCost": "36800",
				"executionCost": "117",
				"totalCost": "36917"
			},
			"external": {
				"GeB_PERCENT()": "144",
				"PGrB_PERCENT()": "210",
				"UNILEVEL_PERCENT_1()": "166",
				"UNILEVEL_PERCENT_2_TO_5()": "188"
			},
			"internal": {
				"checkActiveCondition(mapping(address => struct TreeLib.NodeData storage ref),address)": "infinite",
				"checkTransferUSDT(contract IERC20,bytes32,uint256)": "infinite",
				"countActiveLegs(mapping(address => struct TreeLib.NodeInfo storage ref),address)": "infinite",
				"distributeGenerationBonus(mapping(address => struct TreeLib.NodeInfo storage ref),mapping(address => mapping(uint8 => struct TreeLib.GenerationInfo storage ref)),mapping(address => address),contract BalancesManager,address,uint256,bytes32)": "infinite",
				"distributeGenerationBonus_batchUpdate(contract BalancesManager,bytes32,uint256,address,address,address,address)": "infinite",
				"distributeNationalBonus(contract BalancesManager,address[] storage pointer)": "infinite",
				"distributeUnilevelBonus(mapping(address => struct TreeLib.NodeInfo storage ref),mapping(address => address),contract BalancesManager,address,uint256,bytes32)": "infinite",
				"findActiveParent(mapping(address => struct TreeLib.NodeInfo storage ref),mapping(address => address),address)": "infinite",
				"getGroupRank(mapping(address => struct TreeLib.NodeInfo storage ref),address)": "infinite",
				"isDescendant(mapping(address => struct TreeLib.NodeInfo storage ref),address,address,uint8,mapping(bytes32 => bool),bytes32[] storage pointer)": "infinite",
				"isValidUTXO(bytes32)": "infinite",
				"setGenerationRank(mapping(address => mapping(uint8 => struct TreeLib.GenerationInfo storage ref)),address,uint8,address,address,address)": "infinite",
				"setInheritGenerationRank(mapping(address => mapping(uint8 => struct TreeLib.GenerationInfo storage ref)),address,address,uint8)": "infinite",
				"updateActiveParentMapping(mapping(address => struct TreeLib.NodeInfo storage ref),mapping(address => address),address)": "infinite",
				"updateActiveStatus(mapping(address => struct TreeLib.NodeInfo storage ref),mapping(address => struct TreeLib.NodeData storage ref),mapping(address => uint256),mapping(address => uint256),mapping(address => uint256),address)": "infinite",
				"updateGenerationRank(mapping(address => struct TreeLib.NodeInfo storage ref),mapping(address => mapping(uint8 => struct TreeLib.GenerationInfo storage ref)),mapping(address => address),address,address)": "infinite",
				"updateRanks(mapping(address => struct TreeLib.NodeInfo storage ref),mapping(address => struct TreeLib.NodeData storage ref),address[] storage pointer,address)": "infinite",
				"updateTeamBP(mapping(address => struct TreeLib.NodeData storage ref),mapping(address => struct TreeLib.NodeInfo storage ref),address[] storage pointer,address)": "infinite"
			}
		},
		"methodIdentifiers": {
			"GeB_PERCENT()": "172c0d7f",
			"PGrB_PERCENT()": "fc9f00fb",
			"UNILEVEL_PERCENT_1()": "d906e5c2",
			"UNILEVEL_PERCENT_2_TO_5()": "f2e1de84"
		}
	},
	"abi": [
		{
			"inputs": [],
			"name": "GeB_PERCENT",
			"outputs": [
				{
					"internalType": "uint256",
					"name": "",
					"type": "uint256"
				}
			],
			"stateMutability": "view",
			"type": "function"
		},
		{
			"inputs": [],
			"name": "PGrB_PERCENT",
			"outputs": [
				{
					"internalType": "uint256",
					"name": "",
					"type": "uint256"
				}
			],
			"stateMutability": "view",
			"type": "function"
		},
		{
			"inputs": [],
			"name": "UNILEVEL_PERCENT_1",
			"outputs": [
				{
					"internalType": "uint256",
					"name": "",
					"type": "uint256"
				}
			],
			"stateMutability": "view",
			"type": "function"
		},
		{
			"inputs": [],
			"name": "UNILEVEL_PERCENT_2_TO_5",
			"outputs": [
				{
					"internalType": "uint256",
					"name": "",
					"type": "uint256"
				}
			],
			"stateMutability": "view",
			"type": "function"
		}
	]
}