{
	"data": {
		"bytecode": {
			"linkReferences": {},
			"object": "60806040526011805461ffff1916905534801561001a575f80fd5b50604051617646380380617646833981016040819052610039916101d6565b6307270e0061004c6064620f4240610278565b1061008a5760405162461bcd60e51b815260206004820152600a60248201526977726f6e6720636f646560b01b604482015260640160405180910390fd5b601b80546001600160a01b03199081166001600160a01b038a811691909117909255601c80548216898416179055601d80548216888416179055601780548216848416179055601480548216878416179055601580548216868416179055601680548216858416179055601e805482168c8416178155601f80548316938c1693909317909255601880543392169190911790556001805480820182555f8281527fb10e2d527612073b26eecdfd717e6a320cf44b4afac2b0732d9fcbe2b7fa0cf6918201558154808301835560289082015581548083018355602390820155815480830183558101929092558054808201909155601991015550506014546001600160a01b03165f908152600460205260409020600201805461ff001916610100179055506102a195505050505050565b80516001600160a01b03811681146101d1575f80fd5b919050565b5f805f805f805f805f6101208a8c0312156101ef575f80fd5b6101f88a6101bb565b985061020660208b016101bb565b975061021460408b016101bb565b965061022260608b016101bb565b955061023060808b016101bb565b945061023e60a08b016101bb565b935061024c60c08b016101bb565b925061025a60e08b016101bb565b91506102696101008b016101bb565b90509295985092959850929598565b808202811582820484141761029b57634e487b7160e01b5f52601160045260245ffd5b92915050565b617398806102ae5f395ff3fe608060405260043610610188575f3560e01c806308a851b81461018c57806310d86b1f146101ad578063185807e4146101cc5780631da0073a146101eb5780631f01f30d1461022257806320d996d21461024f578063259dbd96146102985780632cf899e2146102b757806335b79c3d146102cb57806338cb9134146102df57806338cc483114610323578063424ad61014610361578063432e9d881461038057806344b897021461039f5780634a0328de146103be578063504ed733146103dd57806358979bfe146104155780635f35ca9c14610434578063614743271461045357806361a475c814610472578063667883f11461049d5780636c0adbbd146104bc578063839c7ead146104db5780638b59d23e146104ee5780638ca8107b1461050d578063964b74dd1461052c578063b35cade914610558578063b9bcaf0214610577578063bcd565ba1461058a578063c2ad61e7146105a9578063d7b5a2d414610634578063db499bf514610653578063e1ab8c6b14610667578063e45c1b5614610689575b5f80fd5b348015610197575f80fd5b506101ab6101a6366004616430565b6106a8565b005b3480156101b8575f80fd5b506101ab6101c7366004616430565b6106fd565b3480156101d7575f80fd5b506101ab6101e6366004616567565b61074f565b3480156101f6575f80fd5b5061020a6102053660046165c9565b6107d2565b6040516102199392919061673d565b60405180910390f35b34801561022d575f80fd5b5061024161023c3660046167f8565b610c15565b604051908152602001610219565b34801561025a575f80fd5b50610288610269366004616430565b6001600160a01b039081165f9081526004602052604090205416151590565b6040519015158152602001610219565b3480156102a3575f80fd5b506101ab6102b2366004616818565b611072565b3480156102c2575f80fd5b506101ab611398565b3480156102d6575f80fd5b506101ab6113db565b3480156102ea575f80fd5b506103166102f9366004616430565b6001600160a01b039081165f908152600460205260409020541690565b6040516102199190616856565b34801561032e575f80fd5b50610337611424565b604080516001600160a01b0394851681529284166020840152921691810191909152606001610219565b34801561036c575f80fd5b50601f54610316906001600160a01b031681565b34801561038b575f80fd5b50601e54610316906001600160a01b031681565b3480156103aa575f80fd5b506101ab6103b936600461686a565b611476565b3480156103c9575f80fd5b506103166103d8366004616430565b611866565b3480156103e8575f80fd5b506103f16118de565b6040805182516001600160a01b031681526020928301519281019290925201610219565b348015610420575f80fd5b506101ab61042f366004616430565b611981565b34801561043f575f80fd5b506101ab61044e3660046168b7565b6119cd565b34801561045e575f80fd5b506101ab61046d3660046168fa565b611a59565b34801561047d575f80fd5b50335f908152601260205260409020546001600160a01b03161515610288565b3480156104a8575f80fd5b50601b54610316906001600160a01b031681565b3480156104c7575f80fd5b506102886104d6366004616430565b611ae6565b6101ab6104e9366004616924565b611b48565b3480156104f9575f80fd5b50610288610508366004616430565b611f2e565b348015610518575f80fd5b506101ab610527366004616430565b611f8a565b348015610537575f80fd5b5061054b61054636600461695c565b611fd6565b604051610219919061698e565b348015610563575f80fd5b506101ab6105723660046169ad565b612192565b6101ab6105853660046168fa565b612227565b348015610595575f80fd5b506101ab6105a43660046167f8565b612468565b3480156105b4575f80fd5b506105c86105c336600461695c565b61265f565b60405161021991905f61012082019050825182526020830151602083015260408301516040830152606083015160608301526080830151608083015260a083015160a083015260c083015160c083015260e083015160e083015261010083015161010083015292915050565b34801561063f575f80fd5b506101ab61064e3660046167f8565b612721565b34801561065e575f80fd5b506101ab612d11565b348015610672575f80fd5b5061067b612e01565b6040516102199291906169c8565b348015610694575f80fd5b506101ab6106a33660046169e9565b612fa8565b6018546001600160a01b031633146106db5760405162461bcd60e51b81526004016106d290616a00565b60405180910390fd5b601f80546001600160a01b0319166001600160a01b0392909216919091179055565b6018546001600160a01b031633146107275760405162461bcd60e51b81526004016106d290616a00565b6001600160a01b03165f908152600460205260409020600201805461ff001916610300179055565b5f831161076e5760405162461bcd60e51b81526004016106d290616a35565b6014546001600160a01b031633148061079157506016546001600160a01b031633145b806107a657506015546001600160a01b031633145b6107c25760405162461bcd60e51b81526004016106d290616a6c565b6107cd8383836132d8565b505050565b606080803332146107f55760405162461bcd60e51b81526004016106d290616a9b565b61080660048833896020602161362b565b6108485760405162461bcd60e51b81526020600482015260136024820152722ab730baba3437b934bd32b21031b0b63632b960691b60448201526064016106d2565b6001600160a01b0387165f908152600460205260409020600101548086106108e057604080515f808252602082018181528284019093529091906108a2565b61088f616290565b8152602001906001900390816108875790505b50604080515f80825260208201909252906108d3565b6108c06162b5565b8152602001906001900390816108b85790505b5093509350935050610c0b565b5f816108ec8789616ae4565b116108f75785610901565b6109018783616af7565b90505f816001600160401b0381111561091c5761091c61644b565b60405190808252806020026020018201604052801561095557816020015b610942616290565b81526020019060019003908161093a5790505b5090505f826001600160401b038111156109715761097161644b565b6040519080825280602002602001820160405280156109aa57816020015b6109976162b5565b81526020019060019003908161098f5790505b5090505f836001600160401b038111156109c6576109c661644b565b6040519080825280602002602001820160405280156109ef578160200160208202803683370190505b5090505f5b84811015610c00576001600160a01b038d165f908152600460205260408120600101610a20838e616ae4565b81548110610a3057610a30616b0a565b5f9182526020808320909101546001600160a01b03908116808452600483526040938490208451608081018652815490931683526001810180548651818702810187019097528087529296509294909385810193919290830182828015610abe57602002820191905f5260205f20905b81546001600160a01b03168152600190910190602001808311610aa0575b5050509183525050600282015460209091019060ff166007811115610ae557610ae561664f565b6007811115610af657610af661664f565b81526020016002820160019054906101000a900460ff166003811115610b1e57610b1e61664f565b6003811115610b2f57610b2f61664f565b81525050858381518110610b4557610b45616b0a565b602002602001018190525060055f826001600160a01b03166001600160a01b031681526020019081526020015f206040518060a00160405290815f8201548152602001600182015481526020016002820154815260200160038201548152602001600482015481525050848381518110610bc157610bc1616b0a565b602002602001018190525080838381518110610bdf57610bdf616b0a565b6001600160a01b0390921660209283029190910190910152506001016109f4565b509650909450925050505b9450945094915050565b6018545f906001600160a01b03163314610c415760405162461bcd60e51b81526004016106d290616a00565b600e548310610c625760405162461bcd60e51b81526004016106d290616b1e565b5f8211610cbb5760405162461bcd60e51b815260206004820152602160248201527f42617463682073697a65206d7573742062652067726561746572207468616e206044820152600360fc1b60648201526084016106d2565b600e54610cc88482616af7565b831115610cdc57610cd98482616af7565b92505b5f5b8381108015610cec57508185105b1561104f575f600e8681548110610d0557610d05616b0a565b5f918252602090912001546001600160a01b03169050801580610d3557506014546001600160a01b038281169116145b15610d45575f935050505061106c565b610d586004600560076008600a866137a9565b506001600160a01b038082165f9081526004602052604090205416801561102d576001600160a01b0381165f9081526005602052604081206001908101805491929091610da6908490616ae4565b90915550506001600160a01b0381165f908152601a602052604090205460ff161515600114801590610e1357506001600160a01b0382165f9081526019602052604090206001015460ff1680610e1357506001600160a01b0382165f908152601a602052604090205460ff165b15610e3b576001600160a01b0381165f908152601a60205260409020805460ff191660011790555b6001600160a01b0382165f908152601960209081526040808320838155600101805460ff19908116909155601a835281842080549091169055600990915290205415610f0d576001600160a01b038083165f9081526009602052604080822054928416825281208054909190610eb2908490616ae4565b90915550506001600160a01b038083165f908152600960209081526040808320549385168352600a90915281208054909190610eef908490616ae4565b90915550506001600160a01b0382165f908152600960205260408120555b6001600160a01b0381165f908152600460209081526040808320600190810154600590935292209091015403610f85576001600160a01b0381165f908152600560209081526040808320600101839055601a90915290205460ff1615610f7c57610f7c60056004600284613904565b610f8581613bc5565b6001600160a01b0381165f908152601a602052604090205460ff168015610fe0575060016001600160a01b0382165f90815260046020526040902060020154610100900460ff166003811115610fdd57610fdd61664f565b14155b8015610ff25750610ff2600582613df4565b1561102d576001600160a01b0381165f908152600460208190526040909120600201805461ff00191661010017905561102d90600c83613e3d565b8661103781616b4b565b975050828061104590616b4b565b9350505050610cde565b81851061105c575f611067565b611067856001616ae4565b925050505b92915050565b3332146110915760405162461bcd60e51b81526004016106d290616a9b565b601154610100900460ff16156110b95760405162461bcd60e51b81526004016106d290616b63565b6001600160a01b038381165f9081526004602052604090205416156110f05760405162461bcd60e51b81526004016106d290616b8b565b6001600160a01b038381165f9081526012602052604090205416156111275760405162461bcd60e51b81526004016106d290616bb8565b6001600160a01b038281165f908152600460205260409020541615158061115b57506014546001600160a01b038381169116145b6111775760405162461bcd60e51b81526004016106d290616bec565b6014546001600160a01b03838116911614158061119e57506018546001600160a01b031633145b6111ba5760405162461bcd60e51b81526004016106d290616c1b565b601f5460405163700786d760e11b81526001600160a01b0390911690819063e00f0dae906111ec908790600401616856565b602060405180830381865afa158015611207573d5f803e3d5ffd5b505050506040513d601f19601f8201168201806040525081019061122b9190616c55565b6001600160a01b0316836001600160a01b03161461125b5760405162461bcd60e51b81526004016106d290616c70565b601754611276906001600160a01b0316836307270e00613ebe565b6040518060400160405280846001600160a01b03168152602001426301e133806112a09190616ae4565b90526001600160a01b038086165f818152601260209081526040808320865181549087166001600160a01b03199182161782559683015160019182015594891683526013825282208054948501815582529020909101805490921617905561130a846064846140da565b601b546016546001600160a01b039182169163e115dc7f9116846064611337620f42406307270e00616cae565b6113419190616af7565b600160026040518663ffffffff1660e01b8152600401611365959493929190616cd1565b5f604051808303815f87803b15801561137c575f80fd5b505af115801561138e573d5f803e3d5ffd5b5050505050505050565b6018546001600160a01b031633146113c25760405162461bcd60e51b81526004016106d290616a00565b601b546113d9906001600160a01b031660026141e0565b565b6018546001600160a01b031633146114055760405162461bcd60e51b81526004016106d290616a00565b6014546113d990600490600d90600b906001600160a01b031680614452565b6018545f90819081906001600160a01b031633146114545760405162461bcd60e51b81526004016106d290616a00565b50506015546016546014546001600160a01b0392831693509082169116909192565b3332146114955760405162461bcd60e51b81526004016106d290616a9b565b601154610100900460ff16156114bd5760405162461bcd60e51b81526004016106d290616b63565b6001600160a01b038581165f9081526004602052604090205416156114f45760405162461bcd60e51b81526004016106d290616b8b565b6001600160a01b038581165f90815260126020526040902054161561152b5760405162461bcd60e51b81526004016106d290616bb8565b6001600160a01b038481165f908152600460205260409020541615158061155f57506014546001600160a01b038581169116145b61157b5760405162461bcd60e51b81526004016106d290616bec565b6014546001600160a01b0385811691161415806115a257506018546001600160a01b031633145b6115be5760405162461bcd60e51b81526004016106d290616c1b565b601f5460405163700786d760e11b81526001600160a01b0390911690819063e00f0dae906115f0908990600401616856565b602060405180830381865afa15801561160b573d5f803e3d5ffd5b505050506040513d601f19601f8201168201806040525081019061162f9190616c55565b6001600160a01b0316856001600160a01b03161461165f5760405162461bcd60e51b81526004016106d290616c70565b601754611687906001600160a01b0316836116826307270e006302625a00616ae4565b613ebe565b611693866064846140da565b601b546016546001600160a01b039182169163e115dc7f91168460646116c0620f42406307270e00616cae565b6116ca9190616af7565b600160026040518663ffffffff1660e01b81526004016116ee959493929190616cd1565b5f604051808303815f87803b158015611705575f80fd5b505af1158015611717573d5f803e3d5ffd5b505050506117706040518060400160405280601581526020017430b232283937b6b7ba32b926b2b6b132b91036309d60591b8152506064620f42406307270e006117619190616cae565b61176b9190616af7565b614752565b60115460ff161561184857506040805160a0810182526001600160a01b038088168252868116602083019081529282018681526060830186815260808401868152600f80546001810182555f91909152945160059095025f80516020617343833981519152810180549686166001600160a01b031997881617905595515f805160206173238339815191528701805491909516951694909417909255515f80516020617303833981519152840155515f805160206172e3833981519152830155515f805160206172c38339815191529091015561185f565b611850614797565b61185d8686868686614938565b505b5050505050565b601f5460405163700786d760e11b81525f916001600160a01b031690819063e00f0dae90611898908690600401616856565b602060405180830381865afa1580156118b3573d5f803e3d5ffd5b505050506040513d601f19601f820116820180604052508101906118d79190616c55565b9392505050565b604080518082019091525f80825260208201523332146119105760405162461bcd60e51b81526004016106d290616a9b565b335f818152601260205260409020546001600160a01b03166119445760405162461bcd60e51b81526004016106d290616d04565b6001600160a01b039081165f9081526012602090815260409182902082518084019093528054909316825260019092015491810191909152905090565b6018546001600160a01b031633146119ab5760405162461bcd60e51b81526004016106d290616a00565b601780546001600160a01b0319166001600160a01b0392909216919091179055565b5f82116119ec5760405162461bcd60e51b81526004016106d290616a35565b32331480611a0457506014546001600160a01b031633145b80611a1957506016546001600160a01b031633145b80611a2e57506015546001600160a01b031633145b611a4a5760405162461bcd60e51b81526004016106d290616a6c565b611a558233836132d8565b5050565b6018546001600160a01b03163314611a835760405162461bcd60e51b81526004016106d290616a00565b6001600160a01b038281165f9081526004602052604090205416611adb5760405162461bcd60e51b815260206004820152600f60248201526e55736572206e6f742065786973747360881b60448201526064016106d2565b611a555f8383615011565b6001600160a01b038181165f908152600460205260408120549091161580159061106c575060016001600160a01b0383165f90815260046020526040902060020154610100900460ff166003811115611b4157611b4161664f565b1492915050565b333214611b675760405162461bcd60e51b81526004016106d290616a9b565b601154610100900460ff1615611b8f5760405162461bcd60e51b81526004016106d290616b63565b6001600160a01b038481165f9081526012602052604090205416611be85760405162461bcd60e51b815260206004820152601060248201526f55736572206e6f742070656e64696e6760801b60448201526064016106d2565b6001600160a01b0384165f90815260126020526040902060010154421115611c475760405162461bcd60e51b815260206004820152601260248201527113595b58995c9cda1a5c08195e1c1a5c995960721b60448201526064016106d2565b6001600160a01b038085165f908152601260209081526040808320548416808452600490925290912054909116151580611c8e57506014546001600160a01b038281169116145b611caa5760405162461bcd60e51b81526004016106d290616bec565b601754611cc5906001600160a01b0316836302625a00613ebe565b6001600160a01b0385165f90815260126020526040812080546001600160a01b03191681556001018190555b6001600160a01b0382165f90815260136020526040902054811015611e39576001600160a01b038281165f90815260136020526040902080549188169183908110611d3e57611d3e616b0a565b5f918252602090912001546001600160a01b031603611e31576001600160a01b0382165f9081526013602052604090208054611d7c90600190616af7565b81548110611d8c57611d8c616b0a565b5f9182526020808320909101546001600160a01b03858116845260139092526040909220805491909216919083908110611dc857611dc8616b0a565b5f91825260208083209190910180546001600160a01b0319166001600160a01b039485161790559184168152601390915260409020805480611e0c57611e0c616d31565b5f8281526020902081015f1990810180546001600160a01b0319169055019055611e39565b600101611cf1565b5060115460ff1615611f13576040805160a0810182526001600160a01b038088168252928316602082019081529181018681526060820186815260808301868152600f80546001810182555f91909152935160059094025f80516020617343833981519152810180549588166001600160a01b031996871617905594515f805160206173238339815191528601805491909716941693909317909455515f8051602061730383398151915283015591515f805160206172e383398151915282015590515f805160206172c383398151915290910155611f28565b611f1b614797565b61185f8582868686614938565b50505050565b6001600160a01b038181165f90815260046020526040812054909116151580611f6f57506001600160a01b038281165f908152601260205260409020541615155b8061106c5750506014546001600160a01b0390811691161490565b6018546001600160a01b03163314611fb45760405162461bcd60e51b81526004016106d290616a00565b601e80546001600160a01b0319166001600160a01b0392909216919091179055565b6060333214611ff75760405162461bcd60e51b81526004016106d290616a9b565b5f82118015612007575060328211155b61205d5760405162461bcd60e51b815260206004820152602160248201527f7061676553697a65206d757374206265206265747765656e203120616e6420356044820152600360fc1b60648201526084016106d2565b6001600160a01b0384165f90815260136020526040902054808410612091575050604080515f8152602081019091526118d7565b5f61209c8486616ae4565b9050818111156120a95750805b5f6120b48683616af7565b6001600160401b038111156120cb576120cb61644b565b6040519080825280602002602001820160405280156120f4578160200160208202803683370190505b5090505f865b83811015612185576001600160a01b0389165f90815260136020526040902080548290811061212b5761212b616b0a565b905f5260205f20015f9054906101000a90046001600160a01b031683838151811061215857612158616b0a565b6001600160a01b03909216602092830291909101909101528161217a81616b4b565b9250506001016120fa565b5090979650505050505050565b6018546001600160a01b031633146121bc5760405162461bcd60e51b81526004016106d290616a00565b60115460ff161561220d5760405162461bcd60e51b815260206004820152601b60248201527a42617463682070726f63657373696e672069732072756e6e696e6760281b60448201526064016106d2565b601180549115156101000261ff0019909216919091179055565b3332146122465760405162461bcd60e51b81526004016106d290616a9b565b601154610100900460ff161561226e5760405162461bcd60e51b81526004016106d290616b63565b6001600160a01b038281165f908152601260205260409020541661232e576001600160a01b038281165f90815260046020526040902054166122c25760405162461bcd60e51b81526004016106d290616d04565b6001600160a01b0382165f908152600560205260409020544211156123295760405162461bcd60e51b815260206004820181905260248201527f4d656d6265727368697020657870697265642c2063616e6e6f742072656e657760448201526064016106d2565b61238c565b6001600160a01b038281165f90815260046020526040902054161561238c5760405162461bcd60e51b8152602060048201526014602482015273557365722077726f6e672073747275637475726560601b60448201526064016106d2565b6017546123a7906001600160a01b0316826307270e00613ebe565b6001600160a01b0382165f90815260056020526040812080546301e1338092906123d2908490616ae4565b909155506123e49050826064836140da565b601b546016546001600160a01b039182169163e115dc7f9116836064612411620f42406307270e00616cae565b61241b9190616af7565b600160026040518663ffffffff1660e01b815260040161243f959493929190616cd1565b5f604051808303815f87803b158015612456575f80fd5b505af115801561185d573d5f803e3d5ffd5b6018546001600160a01b031633146124925760405162461bcd60e51b81526004016106d290616a00565b60035482106124b35760405162461bcd60e51b81526004016106d290616b1e565b6124be60025f6162df565b6003545f906124cd8385616ae4565b116124e1576124dc8284616ae4565b6124e5565b6003545b9050825b81811015612606575f6003828154811061250557612505616b0a565b5f9182526020808320909101546001600160a01b031680835260079091526040822054909250600111158061255357506001600160a01b0382165f908152600a602081905260409091205410155b8061257657506001600160a01b0382165f90815260086020526040902054606411155b1561257f575060015b806125c2576001600160a01b0382165f908152600460205260408120600201805461ff0019166101008302179055506125bd60046005600285615077565b6125cf565b6125cf6004600c84613e3d565b506001600160a01b03165f908152600760209081526040808320839055600a825280832083905560089091528120556001016124e9565b505f5b6021548110156126535760205f6021838154811061262957612629616b0a565b5f91825260208083209091015483528201929092526040019020805460ff19169055600101612609565b506107cd60215f6162df565b6126a56040518061012001604052805f81526020015f81526020015f81526020015f81526020015f81526020015f81526020015f81526020015f81526020015f81525090565b601b5460405163316f085f60e01b81526001600160a01b039091169063316f085f906126d990879087908790600401616d45565b61012060405180830381865afa1580156126f5573d5f803e3d5ffd5b505050506040513d601f19601f820116820180604052508101906127199190616d66565b949350505050565b3332146127405760405162461bcd60e51b81526004016106d290616a9b565b601154610100900460ff16156127685760405162461bcd60e51b81526004016106d290616b63565b816127855760405162461bcd60e51b81526004016106d290616ddf565b601e54604051637d84709760e11b8152600481018490526001600160a01b03909116905f90829063fb08e12e90602401602060405180830381865afa1580156127d0573d5f803e3d5ffd5b505050506040513d601f19601f820116820180604052508101906127f49190616e09565b9050805f036128155760405162461bcd60e51b81526004016106d290616e20565b60405163d09ef24160e01b8152600481018290525f906001600160a01b0384169063d09ef241906024015f60405180830381865afa158015612859573d5f803e3d5ffd5b505050506040513d5f823e601f3d908101601f191682016040526128809190810190616eaf565b6101608101519091505f80805b846101400151518160ff16101561296c575f8561014001518260ff16815181106128b9576128b9616b0a565b6020026020010151116128fc5760405162461bcd60e51b815260206004820152600b60248201526a1c995dd85c990819985a5b60aa1b60448201526064016106d2565b8461014001518160ff168151811061291657612916616b0a565b6020026020010151826129299190616ae4565b91508461010001518160ff168151811061294557612945616b0a565b6020026020010151836129589190616ae4565b925080612964816170c4565b91505061288d565b50602084015160408501516001600160a01b0380831691161482612993620f424087616cae565b116129d35760405162461bcd60e51b815260206004820152601060248201526f2bb937b7339031b7b6b6b4b9b9b4b7b760811b60448201526064016106d2565b6001600160a01b0382166129f95760405162461bcd60e51b81526004016106d2906170e2565b5f8511612a185760405162461bcd60e51b81526004016106d2906170e2565b338115612ab9576001600160a01b038181165f9081526004602052604090205416151580612a5e57506001600160a01b038181165f908152601260205260409020541615155b612ab95760405162461bcd60e51b815260206004820152602660248201527f5573657220616c72656164792065786973747320696e20564950206f7220507260448201526537b6b7ba32b960d11b60648201526084016106d2565b6001600160a01b038181165f9081526004602052604090205416612b3c57506001600160a01b038083165f90815260046020526040902054839116612b375760405162461bcd60e51b8152602060048201526014602482015273506172656e74206973206e6f742065786973747360601b60448201526064016106d2565b612c12565b60016001600160a01b0382165f90815260046020526040902060020154610100900460ff166003811115612b7257612b7261664f565b14612bb45760405162461bcd60e51b815260206004820152601260248201527155736572206973206e6f742061637469766560701b60448201526064016106d2565b6001600160a01b038181165f90815260046020526040902054811690841614612c125760405162461bcd60e51b815260206004820152601060248201526f0a0c2e4cadce840dcdee840dac2e8c6d60831b60448201526064016106d2565b601754612c29906001600160a01b03168b88613ebe565b604051637c4a0cb760e11b8152600481018c90526001600160a01b038a169063f894196e906024015f604051808303815f87803b158015612c68575f80fd5b505af1158015612c7a573d5f803e3d5ffd5b505050506040518060800160405280858152602001868152602001826001600160a01b031681526020018b81525060225f8d81526020019081526020015f205f820151815f0155602082015181600101556040820151816002015f6101000a8154816001600160a01b0302191690836001600160a01b03160217905550606082015181600301559050505050505050505050505050565b6018546001600160a01b03163314612d3b5760405162461bcd60e51b81526004016106d290616a00565b601154610100900460ff1615612d635760405162461bcd60e51b81526004016106d290616b63565b60115460ff1615612dab5760405162461bcd60e51b8152602060048201526012602482015271416c72656164792070726f63657373696e6760701b60448201526064016106d2565b6011805460ff19166001179055612dc061528c565b601e5f5b600e54811015612def575f612dd98284610c15565b9050805f03612de85750612def565b9050612dc4565b6011805460ff19169055611a55614797565b612e09616290565b612e116162b5565b333214612e305760405162461bcd60e51b81526004016106d290616a9b565b335f818152600460205260409020546001600160a01b0316612e645760405162461bcd60e51b81526004016106d290616d04565b6001600160a01b038082165f9081526004602090815260408083206005835292819020815160808101835284549095168552600184018054835181860281018601909452808452949591949193869385820193909291830182828015612ef157602002820191905f5260205f20905b81546001600160a01b03168152600190910190602001808311612ed3575b5050509183525050600282015460209091019060ff166007811115612f1857612f1861664f565b6007811115612f2957612f2961664f565b81526020016002820160019054906101000a900460ff166003811115612f5157612f5161664f565b6003811115612f6257612f6261664f565b9052506040805160a08101825283548152600184015460208201526002840154918101919091526003830154606082015260049092015460808301529450925050509091565b601e546001600160a01b03163381146130375760405162461bcd60e51b815260206004820152604560248201527f7b2266726f6d223a202254726565436f6d2e736f6c222c22636f6465223a203560448201527f352c20226d657373616765223a2022596f7520617265206e6f7420616c6c6f7760648201526465642e227d60d81b608482015260a4016106d2565b601154610100900460ff161561305f5760405162461bcd60e51b81526004016106d290616b63565b8161307c5760405162461bcd60e51b81526004016106d290616ddf565b5f82815260226020526040902054806130a75760405162461bcd60e51b81526004016106d290616e20565b5f838152602260205260409020600381015460018201546002909201549091906001600160a01b0316811561322a5760026001600160a01b0382165f90815260046020526040902060020154610100900460ff16600381111561310c5761310c61664f565b1461319a57601b546001600160a01b031663e115dc7f82856064613133620f424088616cae565b61313e906050617108565b6131489190616cae565b600160056040518663ffffffff1660e01b815260040161316c959493929190616cd1565b5f604051808303815f87803b158015613183575f80fd5b505af1158015613195573d5f803e3d5ffd5b505050505b601b546015546001600160a01b039182169163e115dc7f91168560646131c3620f424088616cae565b6131ce906014617108565b6131d89190616cae565b600160056040518663ffffffff1660e01b81526004016131fc959493929190616cd1565b5f604051808303815f87803b158015613213575f80fd5b505af1158015613225573d5f803e3d5ffd5b505050505b6132358185856140da565b5f868152602260205260408082208281556001808201849055600280830180546001600160a01b0319169055600390920193909355601b54601454925163e115dc7f60e01b81526001600160a01b039182169463e115dc7f946132a39493169289928b929190600401616cd1565b5f604051808303815f87803b1580156132ba575f80fd5b505af11580156132cc573d5f803e3d5ffd5b50505050505050505050565b80511561335157601b546040516368bd52e560e11b81526001600160a01b039091169063d17aa5ca90613311908590859060040161711f565b6020604051808303815f875af115801561332d573d5f803e3d5ffd5b505050506040513d601f19601f82011682018060405250810190611f289190617174565b601b5460405163f8b2cb4f60e01b81525f916001600160a01b03169063f8b2cb4f90613381903390600401616856565b602060405180830381865afa15801561339c573d5f803e3d5ffd5b505050506040513d601f19601f820116820180604052508101906133c09190616e09565b9050838110156134095760405162461bcd60e51b8152602060048201526014602482015273496e73756666696369656e742062616c616e636560601b60448201526064016106d2565b335f908152600460205260409020600290810154610100900460ff16908160038111156134385761343861664f565b14158015613458575060038160038111156134555761345561664f565b14155b6134925760405162461bcd60e51b815260206004820152600b60248201526a44656e792061636365737360a81b60448201526064016106d2565b601b5460405163c84d239b60e01b81526001600160a01b039091169063c84d239b906134c4903390899060040161718f565b6020604051808303815f875af11580156134e0573d5f803e3d5ffd5b505050506040513d601f19601f820116820180604052508101906135049190617174565b61355a5760405162461bcd60e51b815260206004820152602160248201527f496e73756666696369656e742062616c616e636520666f7220776974686472616044820152607760f81b60648201526084016106d2565b6017546001600160a01b031663a9059cbb856064613579896078617108565b61358690620f4240617108565b6135909190616cae565b6040518363ffffffff1660e01b81526004016135ad92919061718f565b6020604051808303815f875af11580156135c9573d5f803e3d5ffd5b505050506040513d601f19601f820116820180604052508101906135ed9190617174565b61185f5760405162461bcd60e51b815260206004820152600f60248201526e151c985b9cd9995c8819985a5b1959608a1b60448201526064016106d2565b5f6001600160a01b0385163314806136815750825f33876040516020016136539291906171a8565b60408051601f198184030181529181528151602092830120835290820192909252015f205460ff1615156001145b6136bd5760405162461bcd60e51b815260206004820152600d60248201526c139bdd081c195c9b5a5d1d1959609a1b60448201526064016106d2565b5f865b6001600160a01b0381161561379957816136d9816170c4565b9250508560ff168260ff16031561379957866001600160a01b0316816001600160a01b03160361370e5760019250505061379f565b6001600160a01b039081165f90815260208a9052604090205416613733600a836171ca565b60ff165f03613794575f33826040516020016137509291906171a8565b60408051601f1981840301815291815281516020928301205f818152898452918220805460ff19166001908117909155885490810189558883529290912090910155505b6136c0565b5f925050505b9695505050505050565b6001600160a01b0381165f908152602087905260408120600290810154610100900460ff16908160038111156137e1576137e161664f565b14806137fe575060038160038111156137fc576137fc61664f565b145b1561380c575f91505061379f565b6001600160a01b0383165f90815260208890526040902054421115613862576001600160a01b0383165f9081526020899052604090206002908101805461ff001916610100835b0217905550600191505061379f565b6001600160a01b0383165f9081526020879052604090205460011115806138a157506001600160a01b0383165f90815260208590526040902054600a11155b806138c457506001600160a01b0383165f90815260208690526040902054606411155b156138f7576001600160a01b0383165f90815260208990526040902060020180546001919061ff00191661010083613853565b505f979650505050505050565b6001600160a01b0381165f90815260208581526040808320600201549186905282206001015490919081816001600160401b038111156139465761394661644b565b60405190808252806020026020018201604052801561396f578160200160208202803683370190505b5090505f5b82811015613a7c576001600160a01b0386165f9081526020899052604081206001018054839081106139a8576139a8616b0a565b5f9182526020808320909101546001600160a01b03168083528b82526040808420928e9052832060038101546002909101549194509192916139e991616ae4565b90505f81116139fa57505050613a74565b6001600160a01b0383165f90815260208d9052604081206003015584518190869086908110613a2b57613a2b616b0a565b6020908102919091010152613a408189616ae4565b97506004600283015460ff166007811115613a5d57613a5d61664f565b1015613a7057613a6d8188616ae4565b96505b5050505b600101613974565b50831561138e575f60056001600160a01b0387165f90815260208a9052604090206002015460ff166007811115613ab557613ab561664f565b1015613ac2576032613ac5565b60285b60ff1690505f6064613ad78388617108565b613ae19190616cae565b90505f805b85811015613b435782858281518110613b0157613b01616b0a565b602002602001015111613b2d57848181518110613b2057613b20616b0a565b6020026020010151613b2f565b825b613b399083616ae4565b9150600101613ae6565b506001600160a01b0388165f90815260208c90526040812060030154613b699083616af7565b90508015613b9a576001600160a01b0389165f90815260208d905260409020600301829055613b9a8b8d8c8c615077565b5050506001600160a01b0386165f90815260208a905260409020600401859055505050505050505050565b6001600160a01b038082165f908152600460205260409020541680613be8575050565b6001600160a01b0381165f9081526005602052604081206001908101805491929091613c15908490616ae4565b90915550506001600160a01b0381165f908152601a602052604090205460ff161515600114801590613c8257506001600160a01b0382165f9081526019602052604090206001015460ff1680613c8257506001600160a01b0382165f908152601a602052604090205460ff165b15613caa576001600160a01b0381165f908152601a60205260409020805460ff191660011790555b6001600160a01b0382165f908152601960209081526040808320838155600101805460ff19908116909155601a835281842080549091169055600990915290205415613d7c576001600160a01b038083165f9081526009602052604080822054928416825281208054909190613d21908490616ae4565b90915550506001600160a01b038083165f908152600960209081526040808320549385168352600a90915281208054909190613d5e908490616ae4565b90915550506001600160a01b0382165f908152600960205260408120555b6001600160a01b0381165f908152600460209081526040808320600190810154600590935292209091015403611a55576001600160a01b0381165f908152600560209081526040808320600101839055601a90915290205460ff1615613deb57613deb60056004600284613904565b611a5581613bc5565b6001600160a01b0381165f9081526020839052604081206002015460641115806118d75750506001600160a01b03165f90815260209190915260409020600301546101f4111590565b6001600160a01b0381165f908152602084905260408120600101905b815481101561185f5782845f848481548110613e7757613e77616b0a565b5f918252602080832091909101546001600160a01b039081168452908301939093526040909101902080546001600160a01b03191692909116919091179055600101613e59565b816107cd576040516370a0823160e01b81525f906001600160a01b038516906370a0823190613ef1903090600401616856565b602060405180830381865afa158015613f0c573d5f803e3d5ffd5b505050506040513d601f19601f82011682018060405250810190613f309190616e09565b6040516323b872dd60e01b8152336004820152306024820152604481018490529091506001600160a01b038516906323b872dd906064016020604051808303815f875af1158015613f83573d5f803e3d5ffd5b505050506040513d601f19601f82011682018060405250810190613fa79190617174565b613fea5760405162461bcd60e51b81526020600482015260146024820152731554d115081d1c985b9cd9995c8819985a5b195960621b60448201526064016106d2565b6040516370a0823160e01b81525f906001600160a01b038616906370a0823190614018903090600401616856565b602060405180830381865afa158015614033573d5f803e3d5ffd5b505050506040513d601f19601f820116820180604052508101906140579190616e09565b90505f6140648383616af7565b9050614073620f424085616af7565b811015801561408e575061408a84620f4240616ae4565b8111155b61185d5760405162461bcd60e51b815260206004820152601e60248201527f496e636f72726563742055534454207472616e7366657220616d6f756e74000060448201526064016106d2565b601154610100900460ff16156141025760405162461bcd60e51b81526004016106d290616b63565b60115460ff16156141cd57604080516060810182526001600160a01b03948516815260208101938452908101918252601080546001810182555f9190915290517f1b6847dc741a1b0cd08d278845f9d819d87b734759afb55fe2de5cb82a9ae672600390920291820180546001600160a01b031916919095161790935590517f1b6847dc741a1b0cd08d278845f9d819d87b734759afb55fe2de5cb82a9ae673830155517f1b6847dc741a1b0cd08d278845f9d819d87b734759afb55fe2de5cb82a9ae67490910155565b6141d5614797565b6107cd8383836153a5565b5f826001600160a01b031663ee82cfd06040518163ffffffff1660e01b8152600401602060405180830381865afa15801561421d573d5f803e3d5ffd5b505050506040513d601f19601f820116820180604052508101906142419190616e09565b82549091508061429f5760405162461bcd60e51b815260206004820152602360248201527f4e6f204e6174696f6e616c204469726563746f727320746f206469737472696260448201526275746560e81b60648201526084016106d2565b5f6142aa8284616cae565b90505f81116142ef5760405162461bcd60e51b8152602060048201526011602482015270125b9cdd59999a58da595b9d081c1bdbdb607a1b60448201526064016106d2565b60405163021c2c5d60e21b8152600481018490526001600160a01b03861690630870b174906024015f604051808303815f87803b15801561432e575f80fd5b505af1158015614340573d5f803e3d5ffd5b505050506060805f805b858110156143e45787818154811061436457614364616b0a565b905f5260205f20015f9054906101000a90046001600160a01b031684838151811061439157614391616b0a565b60200260200101906001600160a01b031690816001600160a01b031681525050848383815181106143c4576143c4616b0a565b6020908102919091010152816143d981616b4b565b92505060010161434a565b50604051630bd0dc9760e41b81526001600160a01b0389169063bd0dc9709061441b905f90879087906001906008906004016171eb565b5f604051808303815f87803b158015614432575f80fd5b505af1158015614444573d5f803e3d5ffd5b505050505050505050505050565b6001600160a01b038082165f8181526020889052604090206002015460ff1691841690036144a4575f5b60048160ff16101561449e576144968684835f805f61593a565b60010161447c565b506146f3565b60058160078111156144b8576144b861664f565b14806144d5575060068160078111156144d3576144d361664f565b145b806144f1575060078160078111156144ef576144ef61664f565b145b15614623576001600160a01b038083165f8181526020878152604080832080546001600160a01b031916909417909355899052205416806145445760405162461bcd60e51b81526004016106d290617253565b5f5b60048160ff16101561461c575f808060078660078111156145695761456961664f565b0361457b575085915081905080614603565b600686600781111561458f5761458f61664f565b036145c9575050506001600160a01b038083165f9081526020898152604080832060ff861684529091529020600201548591829116614603565b5050506001600160a01b038281165f9081526020898152604080832060ff8616845290915290206002810154600190910154869290811691165b6146118a888686868661593a565b505050600101614546565b50506146f3565b6001600160a01b038083165f90815260208890526040902054168061465a5760405162461bcd60e51b81526004016106d290617253565b5f5b60048160ff16101561467c57614674878386846159c1565b60010161465c565b5060048260078111156146915761469161664f565b036146c3576001600160a01b0383165f81815260208790526040902080546001600160a01b03191690911790556146f1565b6001600160a01b038381165f90815260208790526040902080546001600160a01b0319169183169190911790555b505b6001600160a01b0382165f908152602087905260408120600101905b815481101561138e5761474a8888888886868154811061473157614731616b0a565b5f918252602090912001546001600160a01b0316614452565b60010161470f565b611a558282604051602401614768929190617286565b60408051601f198184030181529190526020810180516001600160e01b03166309710a9d60e41b179052615a72565b60115460ff16156147e45760405162461bcd60e51b81526020600482015260176024820152764261746368207570646174652069732072756e6e696e6760481b60448201526064016106d2565b5f5b600f548110156148ae576148a6600f828154811061480657614806616b0a565b5f918252602090912060059091020154600f80546001600160a01b03909216918490811061483657614836616b0a565b905f5260205f2090600502016001015f9054906101000a90046001600160a01b0316600f848154811061486b5761486b616b0a565b905f5260205f20906005020160020154600f858154811061488e5761488e616b0a565b905f5260205f209060050201600301545f801b614938565b6001016147e6565b506148ba600f5f6162fd565b5f5b60105481101561492c57614924601082815481106148dc576148dc616b0a565b5f918252602090912060039091020154601080546001600160a01b03909216918490811061490c5761490c616b0a565b905f5260205f209060030201600101545f801b6153a5565b6001016148bc565b506113d960105f61631b565b601c54604051637cce993960e01b815260048101849052602481018590525f916001600160a01b031690637cce993990604401602060405180830381865afa158015614986573d5f803e3d5ffd5b505050506040513d601f19601f820116820180604052508101906149aa9190616c55565b604080516080810182526001600160a01b03888116825282515f80825260208083018652808501928352848601829052606085018290528c8416825260048152949020835181546001600160a01b031916931692909217825551805194955091939092614a1e926001850192910190616339565b50604082015160028201805460ff19166001836007811115614a4257614a4261664f565b0217905550606082015160028201805461ff001916610100836003811115614a6c57614a6c61664f565b02179055509050506040518060a00160405280426301e13380614a8f9190616ae4565b81525f60208083018290526040808401839052606080850184905260809485018490526001600160a01b038c1684526005835281842086518155868401516001820155868301516002820155908601516003820155949093015160049094019390935590519091614b159189910160609190911b6001600160601b031916815260140190565b60408051808303601f19018152908290528051602090910120601b5463180db04b60e11b8352600483018290529092505f916001600160a01b039091169063301b609690602401602060405180830381865afa158015614b77573d5f803e3d5ffd5b505050506040513d601f19601f82011682018060405250810190614b9b9190616c55565b6001600160a01b031614614c0b57601b5460405163590f618760e11b81526001600160a01b039091169063b21ec30e90614bdd908a9089908990600401616d45565b5f604051808303815f87803b158015614bf4575f80fd5b505af1158015614c06573d5f803e3d5ffd5b505050505b6001600160a01b03821615614c48576001600160a01b038781165f90815260066020526040902080546001600160a01b0319169184169190911790555b6003805460018181019092557fc2575a0e9e593c00f959f8c92f12db2869c3395a3b0502d05e2516446f71f85b0180546001600160a01b03808b166001600160a01b0319928316811790935589165f81815260046020908152604080832087018054808901825590845282842001805490951690951790935590815260079091529081208054909190614cdc908490616ae4565b90915550506001600160a01b0386165f908152600960205260408120805460019290614d09908490616ae4565b90915550600190506001600160a01b0387165f90815260046020526040902060020154610100900460ff166003811115614d4557614d4561664f565b14614d5c57614d576004600c88615a92565b614d5e565b855b6001600160a01b038089165f818152600c602052604080822080549585166001600160a01b0319968716179055600e805460018181018355919093527fbb7b4a454dc3493923482f07822329ed19e8244eff582cc204f8554c3620c3fd9092018054909516909217909355601b54905163e115dc7f60e01b815291169163e115dc7f91614df7918a918891600a91600390600401616cd1565b5f604051808303815f87803b158015614e0e575f80fd5b505af1158015614e20573d5f803e3d5ffd5b505050506001600160a01b03821615614f2657601c5460405163da77abed60e01b81525f916001600160a01b03169063da77abed90614e6690869060019060040161718f565b6020604051808303815f875af1158015614e82573d5f803e3d5ffd5b505050506040513d601f19601f82011682018060405250810190614ea69190616e09565b601b549091506001600160a01b031663e115dc7f84866064614ec9866014617108565b614ed39190616cae565b600160046040518663ffffffff1660e01b8152600401614ef7959493929190616cd1565b5f604051808303815f87803b158015614f0e575f80fd5b505af1158015614f20573d5f803e3d5ffd5b50505050505b601b546016546001600160a01b039182169163e115dc7f911685614f4c600a6014616ae4565b614f5d620f42406302625a00616cae565b614f679190616af7565b600160026040518663ffffffff1660e01b8152600401614f8b959493929190616cd1565b5f604051808303815f87803b158015614fa2575f80fd5b505af1158015614fb4573d5f803e3d5ffd5b50505050615008604051806040016040528060158152602001742fb83937b1b2b9b9a732bba6b2b6b132b91036309d60591b815250600a6014614ff79190616ae4565b611761620f42406302625a00616cae565b50505050505050565b6001830154811061505a5760405162461bcd60e51b8152602060048201526013602482015272125b9d985b1a59081859d95b9d081b195d995b606a1b60448201526064016106d2565b6001600160a01b039091165f908152602092909252604090912055565b6001600160a01b0381165f908152602084905260408120600301549061509d8684615b29565b9050620186a082101580156150b3575060078110155b15615101576001600160a01b0383165f818152602088815260408220600201805460ff19166007179055865460018101885587835291200180546001600160a01b031916909117905561185d565b61c3508210158015615114575060068110155b1561514b576001600160a01b0383165f90815260208790526040902060020180546006919060ff19166001835b021790555061185d565b6161a8821015801561515e575060058110155b1561518f576001600160a01b0383165f90815260208790526040902060020180546005919060ff1916600183615141565b61271082101580156151a2575060048110155b156151d3576001600160a01b0383165f90815260208790526040902060020180546004919060ff1916600183615141565b61138882101580156151e6575060038110155b15615217576001600160a01b0383165f90815260208790526040902060020180546003919060ff1916600183615141565b6109c4821015801561522a575060028110155b15615259576001600160a01b0383165f9081526020879052604090206002908101805460ff1916600183615141565b6001811061185d5750506001600160a01b03165f908152602093909352505060409020600201805460ff19166001179055565b600e545f906001600160401b038111156152a8576152a861644b565b6040519080825280602002602001820160405280156152d1578160200160208202803683370190505b5090505f805b600e548110156153925760045f600e83815481106152f7576152f7616b0a565b5f9182526020808320909101546001600160a01b03168352820192909252604001812060010154900361538a57600e818154811061533757615337616b0a565b905f5260205f20015f9054906101000a90046001600160a01b031683838151811061536457615364616b0a565b6001600160a01b03909216602092830291909101909101528161538681616b4b565b9250505b6001016152d7565b508082526107cd600e6020840183616339565b6001600160a01b038381165f9081526012602052604090205416156153e2576001600160a01b039283165f90815260126020526040902054909216915b6001600160a01b0383165f908152600560205260408120600201805484929061540c908490616ae4565b90915550506001600160a01b0383165f9081526008602052604081208054849290615438908490616ae4565b90915550506001600160a01b0383165f9081526020819052604081205483908290156154a75761546a5f876014615bcc565b92506103e861547b61014587617108565b6154859190616cae565b91506103e861549686610113617108565b6154a09190616cae565b90506154c5565b6014925060646154b8866020617108565b6154c29190616cae565b90505b60026001600160a01b0387165f90815260046020526040902060020154610100900460ff1660038111156154fb576154fb61664f565b1461557a57601b546001600160a01b031663e115dc7f8786606461551f888b617108565b6155299190616cae565b60015f6040518663ffffffff1660e01b815260040161554c959493929190616cd1565b5f604051808303815f87803b158015615563575f80fd5b505af1158015615575573d5f803e3d5ffd5b505050505b5f60016001600160a01b0388165f90815260046020526040902060020154610100900460ff1660038111156155b1576155b161664f565b1490506155c76004600560076008600a8c6137a9565b5080158015615609575060016001600160a01b0388165f90815260046020526040902060020154610100900460ff1660038111156156075761560761664f565b145b1561561b5761561b6004600c89613e3d565b866001600160a01b03167fdf1ac62d04b5b70d0905c8f87d228f5da1978ab102137d771163b0ade4eb2fee8760405161565691815260200190565b60405180910390a2601b5461567c90600490600c906001600160a01b03168a878a615c17565b6156868784615dca565b5f6064615694600286617108565b61569e9190616cae565b601b5460405163043cff6b60e31b815260048101839052602481018990529192506001600160a01b0316906321e7fb58906044015f604051808303815f87803b1580156156e9575f80fd5b505af11580156156fb573d5f803e3d5ffd5b505050506001600160a01b038881165f9081526006602052604090205416801561582157601c54604051630c849c1d60e41b81525f916001600160a01b03169063c849c1d0906157519085908a9060040161718f565b6020604051808303815f875af115801561576d573d5f803e3d5ffd5b505050506040513d601f19601f820116820180604052508101906157919190616e09565b90505f612710826157a360018a617108565b6157ad9190617108565b6157b79190616cae565b601b5460405163e115dc7f60e01b81529192506001600160a01b03169063e115dc7f906157f19086908d9086906001905f90600401616cd1565b5f604051808303815f87803b158015615808575f80fd5b505af115801561581a573d5f803e3d5ffd5b5050505050505b601b5461584290600490600d90600b906001600160a01b03168d8d8d615e44565b601b546015546001600160a01b039182169163e115dc7f911689606461586960048b617108565b6158739190616cae565b6001806040518663ffffffff1660e01b8152600401615896959493929190616cd1565b5f604051808303815f87803b1580156158ad575f80fd5b505af11580156158bf573d5f803e3d5ffd5b5050601b5460165460405163e115dc7f60e01b81526001600160a01b03928316945063e115dc7f935061590292909116908b908990600190600290600401616cd1565b5f604051808303815f87803b158015615919575f80fd5b505af115801561592b573d5f803e3d5ffd5b50505050505050505050505050565b604080516060810182526001600160a01b03948516815292841660208085019182529285168483019081529685165f90815297835281882060ff909616885294909152909420935184549082166001600160a01b03199182161785559151600185018054918316918416919091179055915160029093018054939092169216919091179055565b6001600160a01b03831615611f28576001600160a01b039283165f9081526020858152604080832060ff94909416808452938252808320815160608101835281548816815260018083015489168286019081526002938401548a16838601908152988a168752998552838620968652959093529220905181546001600160a01b0319908116918716919091178255955192810180548716938616939093179092559151910180549093169116179055565b80516a636f6e736f6c652e6c6f67602083015f808483855afa5050505050565b6001600160a01b038082165f908152602085905260408120549091165b6001600160a01b03811615615b1f5760016001600160a01b0382165f90815260208790526040902060020154610100900460ff166003811115615af457615af461664f565b03615b005790506118d7565b6001600160a01b039081165f9081526020859052604090205416615aaf565b505f949350505050565b6001600160a01b0381165f9081526020839052604081208190600101815b8154811015615bc2576001865f848481548110615b6657615b66616b0a565b5f9182526020808320909101546001600160a01b0316835282019290925260400190206002015460ff610100909104166003811115615ba757615ba761664f565b03615bba5782615bb681616b4b565b9350505b600101615b47565b5090949350505050565b6001600160a01b0382165f9081526020849052604081205480615bef5782615c0e565b846001018181548110615c0457615c04616b0a565b905f5260205f2001545b95945050505050565b6001600160a01b038084165f908152602087905260408120549091169060019060609081905b60058460ff1611158015615c5957506001600160a01b03851615155b15615d5a575f8460ff16600114615c71576005615c74565b600a5b90505f6064615c83838b617108565b615c8d9190616cae565b905060026001600160a01b0388165f90815260208f90526040902060020154610100900460ff166003811115615cc557615cc561664f565b14615d295786858481518110615cdd57615cdd616b0a565b60200260200101906001600160a01b031690816001600160a01b03168152505080848481518110615d1057615d10616b0a565b602090810291909101015282615d2581616b4b565b9350505b6001600160a01b039687165f90815260208d905260409020549096169585615d50816170c4565b9650505050615c3d565b604051630bd0dc9760e41b81526001600160a01b038a169063bd0dc97090615d90908990879087906001906006906004016171eb565b5f604051808303815f87803b158015615da7575f80fd5b505af1158015615db9573d5f803e3d5ffd5b505050505050505050505050505050565b6001600160a01b0382165f9081526019602052604090206001015460ff16615e14576001600160a01b0382165f9081526019602052604090206001908101805460ff191690911790555b6001600160a01b0382165f9081526019602052604081208054839290615e3b908490616ae4565b90915550505050565b6001600160a01b038084165f9081526020899052604081205490911690615e6b8986615fa6565b6001600160a01b0386165f90815260208b9052604081206002015491925060ff91821691819081908190861615615f3c575f93506005856007811115615eb357615eb361664f565b03615ef35750506001600160a01b038581165f90815260208d8152604080832060ff89168452909152902060018101546002909101549082169116615f87565b6006856007811115615f0757615f0761664f565b03615f3757506001600160a01b038087165f90815260208e8152604080832060ff8a168452909152902060020154165b615f87565b505050506001600160a01b038381165f90815260208a81526040808320548d835281842060ff8816855290925290912080546001820154600290920154928416939081169291811691165b615f968b898b87878787616036565b5050505050505050505050505050565b6001600160a01b0381165f9081526020839052604081206002015460ff166007816007811115615fd857615fd861664f565b03615fe757600391505061106c565b6006816007811115615ffb57615ffb61664f565b0361600a57600291505061106c565b600581600781111561601e5761601e61664f565b0361602d57600191505061106c565b505f9392505050565b6060805f6001600160a01b038716156160b6578683828151811061605c5761605c616b0a565b6001600160a01b0390921660209283029190910190910152606461608160028a617108565b61608b9190616cae565b82828151811061609d5761609d616b0a565b6020908102919091010152806160b281616b4b565b9150505b6001600160a01b0386161561613257858382815181106160d8576160d8616b0a565b6001600160a01b039092166020928302919091019091015260646160fd60038a617108565b6161079190616cae565b82828151811061611957616119616b0a565b60209081029190910101528061612e81616b4b565b9150505b6001600160a01b038516156161ae578483828151811061615457616154616b0a565b6001600160a01b0390921660209283029190910190910152606461617960038a617108565b6161839190616cae565b82828151811061619557616195616b0a565b6020908102919091010152806161aa81616b4b565b9150505b6001600160a01b0384161561622a57838382815181106161d0576161d0616b0a565b6001600160a01b039092166020928302919091019091015260646161f560038a617108565b6161ff9190616cae565b82828151811061621157616211616b0a565b60209081029190910101528061622681616b4b565b9150505b8251156132cc57604051630bd0dc9760e41b81526001600160a01b038b169063bd0dc97090616267908c90879087906001906007906004016171eb565b5f604051808303815f87803b15801561627e575f80fd5b505af1158015615f96573d5f803e3d5ffd5b604080516080810182525f80825260606020830152909182019081526020015f905290565b6040518060a001604052805f81526020015f81526020015f81526020015f81526020015f81525090565b5080545f8255905f5260205f20908101906162fa919061639c565b50565b5080545f8255600502905f5260205f20908101906162fa91906163b0565b5080545f8255600302905f5260205f20908101906162fa91906163f0565b828054828255905f5260205f2090810192821561638c579160200282015b8281111561638c57825182546001600160a01b0319166001600160a01b03909116178255602090920191600190910190616357565b5061639892915061639c565b5090565b5b80821115616398575f815560010161639d565b5b808211156163985780546001600160a01b0319908116825560018201805490911690555f600282018190556003820181905560048201556005016163b1565b5b808211156163985780546001600160a01b03191681555f6001820181905560028201556003016163f1565b6001600160a01b03811681146162fa575f80fd5b5f60208284031215616440575f80fd5b81356118d78161641c565b634e487b7160e01b5f52604160045260245ffd5b60405161012081016001600160401b03811182821017156164825761648261644b565b60405290565b60405161026081016001600160401b03811182821017156164825761648261644b565b604051601f8201601f191681016001600160401b03811182821017156164d3576164d361644b565b604052919050565b5f6001600160401b038211156164f3576164f361644b565b5060051b60200190565b5f82601f83011261650c575f80fd5b813561651f61651a826164db565b6164ab565b8082825260208201915060208360051b860101925085831115616540575f80fd5b602085015b8381101561655d578035835260209283019201616545565b5095945050505050565b5f805f60608486031215616579575f80fd5b83359250602084013561658b8161641c565b915060408401356001600160401b038111156165a5575f80fd5b6165b1868287016164fd565b9150509250925092565b60ff811681146162fa575f80fd5b5f805f80608085870312156165dc575f80fd5b84356165e78161641c565b935060208501356165f7816165bb565b93969395505050506040820135916060013590565b5f8151808452602084019350602083015f5b828110156166455781516001600160a01b031686526020958601959091019060010161661e565b5093949350505050565b634e487b7160e01b5f52602160045260245ffd5b600881106166735761667361664f565b9052565b600481106166735761667361664f565b80516001600160a01b03168252602080820151608082850181905281519085018190525f929190910190829060a08601905b808310156166e45783516001600160a01b0316825260209384019360019390930192909101906166b9565b50604085015192506166f96040870184616663565b60608501519250615c0e6060870184616677565b80518252602081015160208301526040810151604083015260608101516060830152608081015160808301525050565b606081525f61674f606083018661660c565b828103602084015280855180835260208301915060208160051b840101602088015f5b838110156167a457601f1986840301855261678e838351616687565b6020958601959093509190910190600101616772565b505085810360408701528651808252602091820194509250860190505f5b828110156167eb576167d584835161670d565b60a09390930192602091909101906001016167c2565b5091979650505050505050565b5f8060408385031215616809575f80fd5b50508035926020909101359150565b5f805f6060848603121561682a575f80fd5b83356168358161641c565b925060208401356168458161641c565b929592945050506040919091013590565b6001600160a01b0391909116815260200190565b5f805f805f60a0868803121561687e575f80fd5b85356168898161641c565b945060208601356168998161641c565b94979496505050506040830135926060810135926080909101359150565b5f80604083850312156168c8575f80fd5b8235915060208301356001600160401b038111156168e4575f80fd5b6168f0858286016164fd565b9150509250929050565b5f806040838503121561690b575f80fd5b82356169168161641c565b946020939093013593505050565b5f805f8060808587031215616937575f80fd5b84356169428161641c565b966020860135965060408601359560600135945092505050565b5f805f6060848603121561696e575f80fd5b83356169798161641c565b95602085013595506040909401359392505050565b602081525f6118d7602083018461660c565b80151581146162fa575f80fd5b5f602082840312156169bd575f80fd5b81356118d7816169a0565b60c081525f6169da60c0830185616687565b90506118d7602083018461670d565b5f602082840312156169f9575f80fd5b5035919050565b6020808252818101527f4f776e61626c653a2063616c6c6572206973206e6f7420746865206f776e6572604082015260600190565b6020808252601d908201527f416d6f756e74206d7573742062652067726561746572207468616e2030000000604082015260600190565b60208082526015908201527410dbdb9d1c9858dd1cc81b9bdd08185b1b1bddd959605a1b604082015260600190565b6020808252601b908201527a14db585c9d0818dbdb9d1c9858dd1cc81b9bdd08185b1b1bddd959602a1b604082015260600190565b634e487b7160e01b5f52601160045260245ffd5b8082018082111561106c5761106c616ad0565b8181038181111561106c5761106c616ad0565b634e487b7160e01b5f52603260045260245ffd5b602080825260139082015272092dcecc2d8d2c840e6e8c2e4e840d2dcc8caf606b1b604082015260600190565b5f60018201616b5c57616b5c616ad0565b5060010190565b6020808252600e908201526d53797374656d207570677261646560901b604082015260600190565b6020808252601390820152725573657220616c72656164792065786973747360681b604082015260600190565b6020808252601a908201527905573657220616c72656164792065786973747320696e205649560341b604082015260600190565b60208082526015908201527414185c995b9d08191bd95cc81b9bdd08195e1a5cdd605a1b604082015260600190565b60208082526010908201526f506172656e74206e6f7420616c6c6f7760801b604082015260600190565b8051616c508161641c565b919050565b5f60208284031215616c65575f80fd5b81516118d78161641c565b60208082526010908201526f0e0c2e4cadce840dcdee840dac2e8c6d60831b604082015260600190565b634e487b7160e01b5f52601260045260245ffd5b5f82616cbc57616cbc616c9a565b500490565b600981106166735761667361664f565b6001600160a01b03861681526020810185905260408101849052821515606082015260a0810161379f6080830184616cc1565b602080825260139082015272155cd95c88191bd95cc81b9bdd08195e1a5cdd606a1b604082015260600190565b634e487b7160e01b5f52603160045260245ffd5b6001600160a01b039390931683526020830191909152604082015260600190565b5f610120828403128015616d78575f80fd5b50616d8161645f565b825181526020808401519082015260408084015190820152606080840151908201526080808401519082015260a0808401519082015260c0808401519082015260e08084015190820152610100928301519281019290925250919050565b60208082526010908201526f77726f6e67206f7264657220436f646560801b604082015260600190565b5f60208284031215616e19575f80fd5b5051919050565b6020808252600f908201526e13dc99195c881b9bdd08199bdd5b99608a1b604082015260600190565b5f82601f830112616e58575f80fd5b8151616e6661651a826164db565b8082825260208201915060208360051b860101925085831115616e87575f80fd5b602085015b8381101561655d578051835260209283019201616e8c565b8051616c50816165bb565b5f60208284031215616ebf575f80fd5b81516001600160401b03811115616ed4575f80fd5b82016102608185031215616ee6575f80fd5b616eee616488565b81518152616efe60208301616c45565b6020820152616f0f60408301616c45565b60408201526060828101519082015260808201516001600160401b03811115616f36575f80fd5b616f4286828501616e49565b60808301525060a08201516001600160401b03811115616f60575f80fd5b616f6c86828501616e49565b60a08301525060c08201516001600160401b03811115616f8a575f80fd5b616f9686828501616e49565b60c08301525060e08201516001600160401b03811115616fb4575f80fd5b616fc086828501616e49565b60e0830152506101008201516001600160401b03811115616fdf575f80fd5b616feb86828501616e49565b610100830152506101208201516001600160401b0381111561700b575f80fd5b61701786828501616e49565b610120830152506101408201516001600160401b03811115617037575f80fd5b61704386828501616e49565b6101408301525061016082810151908201526170626101808301616ea4565b6101808201526170756101a08301616ea4565b6101a08201526101c082810151908201526101e0808301519082015261020080830151908201526170a96102208301616ea4565b61022082015261024091820151918101919091529392505050565b5f60ff821660ff81036170d9576170d9616ad0565b60010192915050565b6020808252600c908201526b15dc9bdb99c8185b5bdd5b9d60a21b604082015260600190565b808202811582820484141761106c5761106c616ad0565b6001600160a01b03831681526040602080830182905283519183018290525f91908401906060840190835b8181101561716857835183526020938401939092019160010161714a565b50909695505050505050565b5f60208284031215617184575f80fd5b81516118d7816169a0565b6001600160a01b03929092168252602082015260400190565b6001600160601b0319606093841b811682529190921b16601482015260280190565b5f60ff8316806171dc576171dc616c9a565b8060ff84160691505092915050565b85815260a060208201525f61720360a083018761660c565b8281036040840152855180825260208088019201905f5b8181101561723857835183526020938401939092019160010161721a565b50508515156060850152915061379f90506080830184616cc1565b602080825260199082015278506172656e74206c6f737420647572696e672072657365742160381b604082015260600190565b604081525f83518060408401528060208601606085015e5f606082850101526060601f19601f830116840101915050826020830152939250505056fe8d1108e10bcb7c27dddfc02ed9d693a074039d026cf4ea4240b40f7d581ac8068d1108e10bcb7c27dddfc02ed9d693a074039d026cf4ea4240b40f7d581ac8058d1108e10bcb7c27dddfc02ed9d693a074039d026cf4ea4240b40f7d581ac8048d1108e10bcb7c27dddfc02ed9d693a074039d026cf4ea4240b40f7d581ac8038d1108e10bcb7c27dddfc02ed9d693a074039d026cf4ea4240b40f7d581ac802a2646970667358221220724d87f35ae7aa078bf191549200cb1317881e93a2d7990a773224ef5171df3564736f6c634300081a0033",
			"opcodes": "PUSH1 0x80 PUSH1 0x40 MSTORE PUSH1 0x11 DUP1 SLOAD PUSH2 0xFFFF NOT AND SWAP1 SSTORE CALLVALUE DUP1 ISZERO PUSH2 0x1A JUMPI PUSH0 DUP1 REVERT JUMPDEST POP PUSH1 0x40 MLOAD PUSH2 0x7646 CODESIZE SUB DUP1 PUSH2 0x7646 DUP4 CODECOPY DUP2 ADD PUSH1 0x40 DUP2 SWAP1 MSTORE PUSH2 0x39 SWAP2 PUSH2 0x1D6 JUMP JUMPDEST PUSH4 0x7270E00 PUSH2 0x4C PUSH1 0x64 PUSH3 0xF4240 PUSH2 0x278 JUMP JUMPDEST LT PUSH2 0x8A JUMPI PUSH1 0x40 MLOAD PUSH3 0x461BCD PUSH1 0xE5 SHL DUP2 MSTORE PUSH1 0x20 PUSH1 0x4 DUP3 ADD MSTORE PUSH1 0xA PUSH1 0x24 DUP3 ADD MSTORE PUSH10 0x77726F6E6720636F6465 PUSH1 0xB0 SHL PUSH1 0x44 DUP3 ADD MSTORE PUSH1 0x64 ADD PUSH1 0x40 MLOAD DUP1 SWAP2 SUB SWAP1 REVERT JUMPDEST PUSH1 0x1B DUP1 SLOAD PUSH1 0x1 PUSH1 0x1 PUSH1 0xA0 SHL SUB NOT SWAP1 DUP2 AND PUSH1 0x1 PUSH1 0x1 PUSH1 0xA0 SHL SUB DUP11 DUP2 AND SWAP2 SWAP1 SWAP2 OR SWAP1 SWAP3 SSTORE PUSH1 0x1C DUP1 SLOAD DUP3 AND DUP10 DUP5 AND OR SWAP1 SSTORE PUSH1 0x1D DUP1 SLOAD DUP3 AND DUP9 DUP5 AND OR SWAP1 SSTORE PUSH1 0x17 DUP1 SLOAD DUP3 AND DUP5 DUP5 AND OR SWAP1 SSTORE PUSH1 0x14 DUP1 SLOAD DUP3 AND DUP8 DUP5 AND OR SWAP1 SSTORE PUSH1 0x15 DUP1 SLOAD DUP3 AND DUP7 DUP5 AND OR SWAP1 SSTORE PUSH1 0x16 DUP1 SLOAD DUP3 AND DUP6 DUP5 AND OR SWAP1 SSTORE PUSH1 0x1E DUP1 SLOAD DUP3 AND DUP13 DUP5 AND OR DUP2 SSTORE PUSH1 0x1F DUP1 SLOAD DUP4 AND SWAP4 DUP13 AND SWAP4 SWAP1 SWAP4 OR SWAP1 SWAP3 SSTORE PUSH1 0x18 DUP1 SLOAD CALLER SWAP3 AND SWAP2 SWAP1 SWAP2 OR SWAP1 SSTORE PUSH1 0x1 DUP1 SLOAD DUP1 DUP3 ADD DUP3 SSTORE PUSH0 DUP3 DUP2 MSTORE PUSH32 0xB10E2D527612073B26EECDFD717E6A320CF44B4AFAC2B0732D9FCBE2B7FA0CF6 SWAP2 DUP3 ADD SSTORE DUP2 SLOAD DUP1 DUP4 ADD DUP4 SSTORE PUSH1 0x28 SWAP1 DUP3 ADD SSTORE DUP2 SLOAD DUP1 DUP4 ADD DUP4 SSTORE PUSH1 0x23 SWAP1 DUP3 ADD SSTORE DUP2 SLOAD DUP1 DUP4 ADD DUP4 SSTORE DUP2 ADD SWAP3 SWAP1 SWAP3 SSTORE DUP1 SLOAD DUP1 DUP3 ADD SWAP1 SWAP2 SSTORE PUSH1 0x19 SWAP2 ADD SSTORE POP POP PUSH1 0x14 SLOAD PUSH1 0x1 PUSH1 0x1 PUSH1 0xA0 SHL SUB AND PUSH0 SWAP1 DUP2 MSTORE PUSH1 0x4 PUSH1 0x20 MSTORE PUSH1 0x40 SWAP1 KECCAK256 PUSH1 0x2 ADD DUP1 SLOAD PUSH2 0xFF00 NOT AND PUSH2 0x100 OR SWAP1 SSTORE POP PUSH2 0x2A1 SWAP6 POP POP POP POP POP POP JUMP JUMPDEST DUP1 MLOAD PUSH1 0x1 PUSH1 0x1 PUSH1 0xA0 SHL SUB DUP2 AND DUP2 EQ PUSH2 0x1D1 JUMPI PUSH0 DUP1 REVERT JUMPDEST SWAP2 SWAP1 POP JUMP JUMPDEST PUSH0 DUP1 PUSH0 DUP1 PUSH0 DUP1 PUSH0 DUP1 PUSH0 PUSH2 0x120 DUP11 DUP13 SUB SLT ISZERO PUSH2 0x1EF JUMPI PUSH0 DUP1 REVERT JUMPDEST PUSH2 0x1F8 DUP11 PUSH2 0x1BB JUMP JUMPDEST SWAP9 POP PUSH2 0x206 PUSH1 0x20 DUP12 ADD PUSH2 0x1BB JUMP JUMPDEST SWAP8 POP PUSH2 0x214 PUSH1 0x40 DUP12 ADD PUSH2 0x1BB JUMP JUMPDEST SWAP7 POP PUSH2 0x222 PUSH1 0x60 DUP12 ADD PUSH2 0x1BB JUMP JUMPDEST SWAP6 POP PUSH2 0x230 PUSH1 0x80 DUP12 ADD PUSH2 0x1BB JUMP JUMPDEST SWAP5 POP PUSH2 0x23E PUSH1 0xA0 DUP12 ADD PUSH2 0x1BB JUMP JUMPDEST SWAP4 POP PUSH2 0x24C PUSH1 0xC0 DUP12 ADD PUSH2 0x1BB JUMP JUMPDEST SWAP3 POP PUSH2 0x25A PUSH1 0xE0 DUP12 ADD PUSH2 0x1BB JUMP JUMPDEST SWAP2 POP PUSH2 0x269 PUSH2 0x100 DUP12 ADD PUSH2 0x1BB JUMP JUMPDEST SWAP1 POP SWAP3 SWAP6 SWAP9 POP SWAP3 SWAP6 SWAP9 POP SWAP3 SWAP6 SWAP9 JUMP JUMPDEST DUP1 DUP3 MUL DUP2 ISZERO DUP3 DUP3 DIV DUP5 EQ OR PUSH2 0x29B JUMPI PUSH4 0x4E487B71 PUSH1 0xE0 SHL PUSH0 MSTORE PUSH1 0x11 PUSH1 0x4 MSTORE PUSH1 0x24 PUSH0 REVERT JUMPDEST SWAP3 SWAP2 POP POP JUMP JUMPDEST PUSH2 0x7398 DUP1 PUSH2 0x2AE PUSH0 CODECOPY PUSH0 RETURN INVALID PUSH1 0x80 PUSH1 0x40 MSTORE PUSH1 0x4 CALLDATASIZE LT PUSH2 0x188 JUMPI PUSH0 CALLDATALOAD PUSH1 0xE0 SHR DUP1 PUSH4 0x8A851B8 EQ PUSH2 0x18C JUMPI DUP1 PUSH4 0x10D86B1F EQ PUSH2 0x1AD JUMPI DUP1 PUSH4 0x185807E4 EQ PUSH2 0x1CC JUMPI DUP1 PUSH4 0x1DA0073A EQ PUSH2 0x1EB JUMPI DUP1 PUSH4 0x1F01F30D EQ PUSH2 0x222 JUMPI DUP1 PUSH4 0x20D996D2 EQ PUSH2 0x24F JUMPI DUP1 PUSH4 0x259DBD96 EQ PUSH2 0x298 JUMPI DUP1 PUSH4 0x2CF899E2 EQ PUSH2 0x2B7 JUMPI DUP1 PUSH4 0x35B79C3D EQ PUSH2 0x2CB JUMPI DUP1 PUSH4 0x38CB9134 EQ PUSH2 0x2DF JUMPI DUP1 PUSH4 0x38CC4831 EQ PUSH2 0x323 JUMPI DUP1 PUSH4 0x424AD610 EQ PUSH2 0x361 JUMPI DUP1 PUSH4 0x432E9D88 EQ PUSH2 0x380 JUMPI DUP1 PUSH4 0x44B89702 EQ PUSH2 0x39F JUMPI DUP1 PUSH4 0x4A0328DE EQ PUSH2 0x3BE JUMPI DUP1 PUSH4 0x504ED733 EQ PUSH2 0x3DD JUMPI DUP1 PUSH4 0x58979BFE EQ PUSH2 0x415 JUMPI DUP1 PUSH4 0x5F35CA9C EQ PUSH2 0x434 JUMPI DUP1 PUSH4 0x61474327 EQ PUSH2 0x453 JUMPI DUP1 PUSH4 0x61A475C8 EQ PUSH2 0x472 JUMPI DUP1 PUSH4 0x667883F1 EQ PUSH2 0x49D JUMPI DUP1 PUSH4 0x6C0ADBBD EQ PUSH2 0x4BC JUMPI DUP1 PUSH4 0x839C7EAD EQ PUSH2 0x4DB JUMPI DUP1 PUSH4 0x8B59D23E EQ PUSH2 0x4EE JUMPI DUP1 PUSH4 0x8CA8107B EQ PUSH2 0x50D JUMPI DUP1 PUSH4 0x964B74DD EQ PUSH2 0x52C JUMPI DUP1 PUSH4 0xB35CADE9 EQ PUSH2 0x558 JUMPI DUP1 PUSH4 0xB9BCAF02 EQ PUSH2 0x577 JUMPI DUP1 PUSH4 0xBCD565BA EQ PUSH2 0x58A JUMPI DUP1 PUSH4 0xC2AD61E7 EQ PUSH2 0x5A9 JUMPI DUP1 PUSH4 0xD7B5A2D4 EQ PUSH2 0x634 JUMPI DUP1 PUSH4 0xDB499BF5 EQ PUSH2 0x653 JUMPI DUP1 PUSH4 0xE1AB8C6B EQ PUSH2 0x667 JUMPI DUP1 PUSH4 0xE45C1B56 EQ PUSH2 0x689 JUMPI JUMPDEST PUSH0 DUP1 REVERT JUMPDEST CALLVALUE DUP1 ISZERO PUSH2 0x197 JUMPI PUSH0 DUP1 REVERT JUMPDEST POP PUSH2 0x1AB PUSH2 0x1A6 CALLDATASIZE PUSH1 0x4 PUSH2 0x6430 JUMP JUMPDEST PUSH2 0x6A8 JUMP JUMPDEST STOP JUMPDEST CALLVALUE DUP1 ISZERO PUSH2 0x1B8 JUMPI PUSH0 DUP1 REVERT JUMPDEST POP PUSH2 0x1AB PUSH2 0x1C7 CALLDATASIZE PUSH1 0x4 PUSH2 0x6430 JUMP JUMPDEST PUSH2 0x6FD JUMP JUMPDEST CALLVALUE DUP1 ISZERO PUSH2 0x1D7 JUMPI PUSH0 DUP1 REVERT JUMPDEST POP PUSH2 0x1AB PUSH2 0x1E6 CALLDATASIZE PUSH1 0x4 PUSH2 0x6567 JUMP JUMPDEST PUSH2 0x74F JUMP JUMPDEST CALLVALUE DUP1 ISZERO PUSH2 0x1F6 JUMPI PUSH0 DUP1 REVERT JUMPDEST POP PUSH2 0x20A PUSH2 0x205 CALLDATASIZE PUSH1 0x4 PUSH2 0x65C9 JUMP JUMPDEST PUSH2 0x7D2 JUMP JUMPDEST PUSH1 0x40 MLOAD PUSH2 0x219 SWAP4 SWAP3 SWAP2 SWAP1 PUSH2 0x673D JUMP JUMPDEST PUSH1 0x40 MLOAD DUP1 SWAP2 SUB SWAP1 RETURN JUMPDEST CALLVALUE DUP1 ISZERO PUSH2 0x22D JUMPI PUSH0 DUP1 REVERT JUMPDEST POP PUSH2 0x241 PUSH2 0x23C CALLDATASIZE PUSH1 0x4 PUSH2 0x67F8 JUMP JUMPDEST PUSH2 0xC15 JUMP JUMPDEST PUSH1 0x40 MLOAD SWAP1 DUP2 MSTORE PUSH1 0x20 ADD PUSH2 0x219 JUMP JUMPDEST CALLVALUE DUP1 ISZERO PUSH2 0x25A JUMPI PUSH0 DUP1 REVERT JUMPDEST POP PUSH2 0x288 PUSH2 0x269 CALLDATASIZE PUSH1 0x4 PUSH2 0x6430 JUMP JUMPDEST PUSH1 0x1 PUSH1 0x1 PUSH1 0xA0 SHL SUB SWAP1 DUP2 AND PUSH0 SWAP1 DUP2 MSTORE PUSH1 0x4 PUSH1 0x20 MSTORE PUSH1 0x40 SWAP1 KECCAK256 SLOAD AND ISZERO ISZERO SWAP1 JUMP JUMPDEST PUSH1 0x40 MLOAD SWAP1 ISZERO ISZERO DUP2 MSTORE PUSH1 0x20 ADD PUSH2 0x219 JUMP JUMPDEST CALLVALUE DUP1 ISZERO PUSH2 0x2A3 JUMPI PUSH0 DUP1 REVERT JUMPDEST POP PUSH2 0x1AB PUSH2 0x2B2 CALLDATASIZE PUSH1 0x4 PUSH2 0x6818 JUMP JUMPDEST PUSH2 0x1072 JUMP JUMPDEST CALLVALUE DUP1 ISZERO PUSH2 0x2C2 JUMPI PUSH0 DUP1 REVERT JUMPDEST POP PUSH2 0x1AB PUSH2 0x1398 JUMP JUMPDEST CALLVALUE DUP1 ISZERO PUSH2 0x2D6 JUMPI PUSH0 DUP1 REVERT JUMPDEST POP PUSH2 0x1AB PUSH2 0x13DB JUMP JUMPDEST CALLVALUE DUP1 ISZERO PUSH2 0x2EA JUMPI PUSH0 DUP1 REVERT JUMPDEST POP PUSH2 0x316 PUSH2 0x2F9 CALLDATASIZE PUSH1 0x4 PUSH2 0x6430 JUMP JUMPDEST PUSH1 0x1 PUSH1 0x1 PUSH1 0xA0 SHL SUB SWAP1 DUP2 AND PUSH0 SWAP1 DUP2 MSTORE PUSH1 0x4 PUSH1 0x20 MSTORE PUSH1 0x40 SWAP1 KECCAK256 SLOAD AND SWAP1 JUMP JUMPDEST PUSH1 0x40 MLOAD PUSH2 0x219 SWAP2 SWAP1 PUSH2 0x6856 JUMP JUMPDEST CALLVALUE DUP1 ISZERO PUSH2 0x32E JUMPI PUSH0 DUP1 REVERT JUMPDEST POP PUSH2 0x337 PUSH2 0x1424 JUMP JUMPDEST PUSH1 0x40 DUP1 MLOAD PUSH1 0x1 PUSH1 0x1 PUSH1 0xA0 SHL SUB SWAP5 DUP6 AND DUP2 MSTORE SWAP3 DUP5 AND PUSH1 0x20 DUP5 ADD MSTORE SWAP3 AND SWAP2 DUP2 ADD SWAP2 SWAP1 SWAP2 MSTORE PUSH1 0x60 ADD PUSH2 0x219 JUMP JUMPDEST CALLVALUE DUP1 ISZERO PUSH2 0x36C JUMPI PUSH0 DUP1 REVERT JUMPDEST POP PUSH1 0x1F SLOAD PUSH2 0x316 SWAP1 PUSH1 0x1 PUSH1 0x1 PUSH1 0xA0 SHL SUB AND DUP2 JUMP JUMPDEST CALLVALUE DUP1 ISZERO PUSH2 0x38B JUMPI PUSH0 DUP1 REVERT JUMPDEST POP PUSH1 0x1E SLOAD PUSH2 0x316 SWAP1 PUSH1 0x1 PUSH1 0x1 PUSH1 0xA0 SHL SUB AND DUP2 JUMP JUMPDEST CALLVALUE DUP1 ISZERO PUSH2 0x3AA JUMPI PUSH0 DUP1 REVERT JUMPDEST POP PUSH2 0x1AB PUSH2 0x3B9 CALLDATASIZE PUSH1 0x4 PUSH2 0x686A JUMP JUMPDEST PUSH2 0x1476 JUMP JUMPDEST CALLVALUE DUP1 ISZERO PUSH2 0x3C9 JUMPI PUSH0 DUP1 REVERT JUMPDEST POP PUSH2 0x316 PUSH2 0x3D8 CALLDATASIZE PUSH1 0x4 PUSH2 0x6430 JUMP JUMPDEST PUSH2 0x1866 JUMP JUMPDEST CALLVALUE DUP1 ISZERO PUSH2 0x3E8 JUMPI PUSH0 DUP1 REVERT JUMPDEST POP PUSH2 0x3F1 PUSH2 0x18DE JUMP JUMPDEST PUSH1 0x40 DUP1 MLOAD DUP3 MLOAD PUSH1 0x1 PUSH1 0x1 PUSH1 0xA0 SHL SUB AND DUP2 MSTORE PUSH1 0x20 SWAP3 DUP4 ADD MLOAD SWAP3 DUP2 ADD SWAP3 SWAP1 SWAP3 MSTORE ADD PUSH2 0x219 JUMP JUMPDEST CALLVALUE DUP1 ISZERO PUSH2 0x420 JUMPI PUSH0 DUP1 REVERT JUMPDEST POP PUSH2 0x1AB PUSH2 0x42F CALLDATASIZE PUSH1 0x4 PUSH2 0x6430 JUMP JUMPDEST PUSH2 0x1981 JUMP JUMPDEST CALLVALUE DUP1 ISZERO PUSH2 0x43F JUMPI PUSH0 DUP1 REVERT JUMPDEST POP PUSH2 0x1AB PUSH2 0x44E CALLDATASIZE PUSH1 0x4 PUSH2 0x68B7 JUMP JUMPDEST PUSH2 0x19CD JUMP JUMPDEST CALLVALUE DUP1 ISZERO PUSH2 0x45E JUMPI PUSH0 DUP1 REVERT JUMPDEST POP PUSH2 0x1AB PUSH2 0x46D CALLDATASIZE PUSH1 0x4 PUSH2 0x68FA JUMP JUMPDEST PUSH2 0x1A59 JUMP JUMPDEST CALLVALUE DUP1 ISZERO PUSH2 0x47D JUMPI PUSH0 DUP1 REVERT JUMPDEST POP CALLER PUSH0 SWAP1 DUP2 MSTORE PUSH1 0x12 PUSH1 0x20 MSTORE PUSH1 0x40 SWAP1 KECCAK256 SLOAD PUSH1 0x1 PUSH1 0x1 PUSH1 0xA0 SHL SUB AND ISZERO ISZERO PUSH2 0x288 JUMP JUMPDEST CALLVALUE DUP1 ISZERO PUSH2 0x4A8 JUMPI PUSH0 DUP1 REVERT JUMPDEST POP PUSH1 0x1B SLOAD PUSH2 0x316 SWAP1 PUSH1 0x1 PUSH1 0x1 PUSH1 0xA0 SHL SUB AND DUP2 JUMP JUMPDEST CALLVALUE DUP1 ISZERO PUSH2 0x4C7 JUMPI PUSH0 DUP1 REVERT JUMPDEST POP PUSH2 0x288 PUSH2 0x4D6 CALLDATASIZE PUSH1 0x4 PUSH2 0x6430 JUMP JUMPDEST PUSH2 0x1AE6 JUMP JUMPDEST PUSH2 0x1AB PUSH2 0x4E9 CALLDATASIZE PUSH1 0x4 PUSH2 0x6924 JUMP JUMPDEST PUSH2 0x1B48 JUMP JUMPDEST CALLVALUE DUP1 ISZERO PUSH2 0x4F9 JUMPI PUSH0 DUP1 REVERT JUMPDEST POP PUSH2 0x288 PUSH2 0x508 CALLDATASIZE PUSH1 0x4 PUSH2 0x6430 JUMP JUMPDEST PUSH2 0x1F2E JUMP JUMPDEST CALLVALUE DUP1 ISZERO PUSH2 0x518 JUMPI PUSH0 DUP1 REVERT JUMPDEST POP PUSH2 0x1AB PUSH2 0x527 CALLDATASIZE PUSH1 0x4 PUSH2 0x6430 JUMP JUMPDEST PUSH2 0x1F8A JUMP JUMPDEST CALLVALUE DUP1 ISZERO PUSH2 0x537 JUMPI PUSH0 DUP1 REVERT JUMPDEST POP PUSH2 0x54B PUSH2 0x546 CALLDATASIZE PUSH1 0x4 PUSH2 0x695C JUMP JUMPDEST PUSH2 0x1FD6 JUMP JUMPDEST PUSH1 0x40 MLOAD PUSH2 0x219 SWAP2 SWAP1 PUSH2 0x698E JUMP JUMPDEST CALLVALUE DUP1 ISZERO PUSH2 0x563 JUMPI PUSH0 DUP1 REVERT JUMPDEST POP PUSH2 0x1AB PUSH2 0x572 CALLDATASIZE PUSH1 0x4 PUSH2 0x69AD JUMP JUMPDEST PUSH2 0x2192 JUMP JUMPDEST PUSH2 0x1AB PUSH2 0x585 CALLDATASIZE PUSH1 0x4 PUSH2 0x68FA JUMP JUMPDEST PUSH2 0x2227 JUMP JUMPDEST CALLVALUE DUP1 ISZERO PUSH2 0x595 JUMPI PUSH0 DUP1 REVERT JUMPDEST POP PUSH2 0x1AB PUSH2 0x5A4 CALLDATASIZE PUSH1 0x4 PUSH2 0x67F8 JUMP JUMPDEST PUSH2 0x2468 JUMP JUMPDEST CALLVALUE DUP1 ISZERO PUSH2 0x5B4 JUMPI PUSH0 DUP1 REVERT JUMPDEST POP PUSH2 0x5C8 PUSH2 0x5C3 CALLDATASIZE PUSH1 0x4 PUSH2 0x695C JUMP JUMPDEST PUSH2 0x265F JUMP JUMPDEST PUSH1 0x40 MLOAD PUSH2 0x219 SWAP2 SWAP1 PUSH0 PUSH2 0x120 DUP3 ADD SWAP1 POP DUP3 MLOAD DUP3 MSTORE PUSH1 0x20 DUP4 ADD MLOAD PUSH1 0x20 DUP4 ADD MSTORE PUSH1 0x40 DUP4 ADD MLOAD PUSH1 0x40 DUP4 ADD MSTORE PUSH1 0x60 DUP4 ADD MLOAD PUSH1 0x60 DUP4 ADD MSTORE PUSH1 0x80 DUP4 ADD MLOAD PUSH1 0x80 DUP4 ADD MSTORE PUSH1 0xA0 DUP4 ADD MLOAD PUSH1 0xA0 DUP4 ADD MSTORE PUSH1 0xC0 DUP4 ADD MLOAD PUSH1 0xC0 DUP4 ADD MSTORE PUSH1 0xE0 DUP4 ADD MLOAD PUSH1 0xE0 DUP4 ADD MSTORE PUSH2 0x100 DUP4 ADD MLOAD PUSH2 0x100 DUP4 ADD MSTORE SWAP3 SWAP2 POP POP JUMP JUMPDEST CALLVALUE DUP1 ISZERO PUSH2 0x63F JUMPI PUSH0 DUP1 REVERT JUMPDEST POP PUSH2 0x1AB PUSH2 0x64E CALLDATASIZE PUSH1 0x4 PUSH2 0x67F8 JUMP JUMPDEST PUSH2 0x2721 JUMP JUMPDEST CALLVALUE DUP1 ISZERO PUSH2 0x65E JUMPI PUSH0 DUP1 REVERT JUMPDEST POP PUSH2 0x1AB PUSH2 0x2D11 JUMP JUMPDEST CALLVALUE DUP1 ISZERO PUSH2 0x672 JUMPI PUSH0 DUP1 REVERT JUMPDEST POP PUSH2 0x67B PUSH2 0x2E01 JUMP JUMPDEST PUSH1 0x40 MLOAD PUSH2 0x219 SWAP3 SWAP2 SWAP1 PUSH2 0x69C8 JUMP JUMPDEST CALLVALUE DUP1 ISZERO PUSH2 0x694 JUMPI PUSH0 DUP1 REVERT JUMPDEST POP PUSH2 0x1AB PUSH2 0x6A3 CALLDATASIZE PUSH1 0x4 PUSH2 0x69E9 JUMP JUMPDEST PUSH2 0x2FA8 JUMP JUMPDEST PUSH1 0x18 SLOAD PUSH1 0x1 PUSH1 0x1 PUSH1 0xA0 SHL SUB AND CALLER EQ PUSH2 0x6DB JUMPI PUSH1 0x40 MLOAD PUSH3 0x461BCD PUSH1 0xE5 SHL DUP2 MSTORE PUSH1 0x4 ADD PUSH2 0x6D2 SWAP1 PUSH2 0x6A00 JUMP JUMPDEST PUSH1 0x40 MLOAD DUP1 SWAP2 SUB SWAP1 REVERT JUMPDEST PUSH1 0x1F DUP1 SLOAD PUSH1 0x1 PUSH1 0x1 PUSH1 0xA0 SHL SUB NOT AND PUSH1 0x1 PUSH1 0x1 PUSH1 0xA0 SHL SUB SWAP3 SWAP1 SWAP3 AND SWAP2 SWAP1 SWAP2 OR SWAP1 SSTORE JUMP JUMPDEST PUSH1 0x18 SLOAD PUSH1 0x1 PUSH1 0x1 PUSH1 0xA0 SHL SUB AND CALLER EQ PUSH2 0x727 JUMPI PUSH1 0x40 MLOAD PUSH3 0x461BCD PUSH1 0xE5 SHL DUP2 MSTORE PUSH1 0x4 ADD PUSH2 0x6D2 SWAP1 PUSH2 0x6A00 JUMP JUMPDEST PUSH1 0x1 PUSH1 0x1 PUSH1 0xA0 SHL SUB AND PUSH0 SWAP1 DUP2 MSTORE PUSH1 0x4 PUSH1 0x20 MSTORE PUSH1 0x40 SWAP1 KECCAK256 PUSH1 0x2 ADD DUP1 SLOAD PUSH2 0xFF00 NOT AND PUSH2 0x300 OR SWAP1 SSTORE JUMP JUMPDEST PUSH0 DUP4 GT PUSH2 0x76E JUMPI PUSH1 0x40 MLOAD PUSH3 0x461BCD PUSH1 0xE5 SHL DUP2 MSTORE PUSH1 0x4 ADD PUSH2 0x6D2 SWAP1 PUSH2 0x6A35 JUMP JUMPDEST PUSH1 0x14 SLOAD PUSH1 0x1 PUSH1 0x1 PUSH1 0xA0 SHL SUB AND CALLER EQ DUP1 PUSH2 0x791 JUMPI POP PUSH1 0x16 SLOAD PUSH1 0x1 PUSH1 0x1 PUSH1 0xA0 SHL SUB AND CALLER EQ JUMPDEST DUP1 PUSH2 0x7A6 JUMPI POP PUSH1 0x15 SLOAD PUSH1 0x1 PUSH1 0x1 PUSH1 0xA0 SHL SUB AND CALLER EQ JUMPDEST PUSH2 0x7C2 JUMPI PUSH1 0x40 MLOAD PUSH3 0x461BCD PUSH1 0xE5 SHL DUP2 MSTORE PUSH1 0x4 ADD PUSH2 0x6D2 SWAP1 PUSH2 0x6A6C JUMP JUMPDEST PUSH2 0x7CD DUP4 DUP4 DUP4 PUSH2 0x32D8 JUMP JUMPDEST POP POP POP JUMP JUMPDEST PUSH1 0x60 DUP1 DUP1 CALLER ORIGIN EQ PUSH2 0x7F5 JUMPI PUSH1 0x40 MLOAD PUSH3 0x461BCD PUSH1 0xE5 SHL DUP2 MSTORE PUSH1 0x4 ADD PUSH2 0x6D2 SWAP1 PUSH2 0x6A9B JUMP JUMPDEST PUSH2 0x806 PUSH1 0x4 DUP9 CALLER DUP10 PUSH1 0x20 PUSH1 0x21 PUSH2 0x362B JUMP JUMPDEST PUSH2 0x848 JUMPI PUSH1 0x40 MLOAD PUSH3 0x461BCD PUSH1 0xE5 SHL DUP2 MSTORE PUSH1 0x20 PUSH1 0x4 DUP3 ADD MSTORE PUSH1 0x13 PUSH1 0x24 DUP3 ADD MSTORE PUSH19 0x2AB730BABA3437B934BD32B21031B0B63632B9 PUSH1 0x69 SHL PUSH1 0x44 DUP3 ADD MSTORE PUSH1 0x64 ADD PUSH2 0x6D2 JUMP JUMPDEST PUSH1 0x1 PUSH1 0x1 PUSH1 0xA0 SHL SUB DUP8 AND PUSH0 SWAP1 DUP2 MSTORE PUSH1 0x4 PUSH1 0x20 MSTORE PUSH1 0x40 SWAP1 KECCAK256 PUSH1 0x1 ADD SLOAD DUP1 DUP7 LT PUSH2 0x8E0 JUMPI PUSH1 0x40 DUP1 MLOAD PUSH0 DUP1 DUP3 MSTORE PUSH1 0x20 DUP3 ADD DUP2 DUP2 MSTORE DUP3 DUP5 ADD SWAP1 SWAP4 MSTORE SWAP1 SWAP2 SWAP1 PUSH2 0x8A2 JUMP JUMPDEST PUSH2 0x88F PUSH2 0x6290 JUMP JUMPDEST DUP2 MSTORE PUSH1 0x20 ADD SWAP1 PUSH1 0x1 SWAP1 SUB SWAP1 DUP2 PUSH2 0x887 JUMPI SWAP1 POP JUMPDEST POP PUSH1 0x40 DUP1 MLOAD PUSH0 DUP1 DUP3 MSTORE PUSH1 0x20 DUP3 ADD SWAP1 SWAP3 MSTORE SWAP1 PUSH2 0x8D3 JUMP JUMPDEST PUSH2 0x8C0 PUSH2 0x62B5 JUMP JUMPDEST DUP2 MSTORE PUSH1 0x20 ADD SWAP1 PUSH1 0x1 SWAP1 SUB SWAP1 DUP2 PUSH2 0x8B8 JUMPI SWAP1 POP JUMPDEST POP SWAP4 POP SWAP4 POP SWAP4 POP POP PUSH2 0xC0B JUMP JUMPDEST PUSH0 DUP2 PUSH2 0x8EC DUP8 DUP10 PUSH2 0x6AE4 JUMP JUMPDEST GT PUSH2 0x8F7 JUMPI DUP6 PUSH2 0x901 JUMP JUMPDEST PUSH2 0x901 DUP8 DUP4 PUSH2 0x6AF7 JUMP JUMPDEST SWAP1 POP PUSH0 DUP2 PUSH1 0x1 PUSH1 0x1 PUSH1 0x40 SHL SUB DUP2 GT ISZERO PUSH2 0x91C JUMPI PUSH2 0x91C PUSH2 0x644B JUMP JUMPDEST PUSH1 0x40 MLOAD SWAP1 DUP1 DUP3 MSTORE DUP1 PUSH1 0x20 MUL PUSH1 0x20 ADD DUP3 ADD PUSH1 0x40 MSTORE DUP1 ISZERO PUSH2 0x955 JUMPI DUP2 PUSH1 0x20 ADD JUMPDEST PUSH2 0x942 PUSH2 0x6290 JUMP JUMPDEST DUP2 MSTORE PUSH1 0x20 ADD SWAP1 PUSH1 0x1 SWAP1 SUB SWAP1 DUP2 PUSH2 0x93A JUMPI SWAP1 POP JUMPDEST POP SWAP1 POP PUSH0 DUP3 PUSH1 0x1 PUSH1 0x1 PUSH1 0x40 SHL SUB DUP2 GT ISZERO PUSH2 0x971 JUMPI PUSH2 0x971 PUSH2 0x644B JUMP JUMPDEST PUSH1 0x40 MLOAD SWAP1 DUP1 DUP3 MSTORE DUP1 PUSH1 0x20 MUL PUSH1 0x20 ADD DUP3 ADD PUSH1 0x40 MSTORE DUP1 ISZERO PUSH2 0x9AA JUMPI DUP2 PUSH1 0x20 ADD JUMPDEST PUSH2 0x997 PUSH2 0x62B5 JUMP JUMPDEST DUP2 MSTORE PUSH1 0x20 ADD SWAP1 PUSH1 0x1 SWAP1 SUB SWAP1 DUP2 PUSH2 0x98F JUMPI SWAP1 POP JUMPDEST POP SWAP1 POP PUSH0 DUP4 PUSH1 0x1 PUSH1 0x1 PUSH1 0x40 SHL SUB DUP2 GT ISZERO PUSH2 0x9C6 JUMPI PUSH2 0x9C6 PUSH2 0x644B JUMP JUMPDEST PUSH1 0x40 MLOAD SWAP1 DUP1 DUP3 MSTORE DUP1 PUSH1 0x20 MUL PUSH1 0x20 ADD DUP3 ADD PUSH1 0x40 MSTORE DUP1 ISZERO PUSH2 0x9EF JUMPI DUP2 PUSH1 0x20 ADD PUSH1 0x20 DUP3 MUL DUP1 CALLDATASIZE DUP4 CALLDATACOPY ADD SWAP1 POP JUMPDEST POP SWAP1 POP PUSH0 JUMPDEST DUP5 DUP2 LT ISZERO PUSH2 0xC00 JUMPI PUSH1 0x1 PUSH1 0x1 PUSH1 0xA0 SHL SUB DUP14 AND PUSH0 SWAP1 DUP2 MSTORE PUSH1 0x4 PUSH1 0x20 MSTORE PUSH1 0x40 DUP2 KECCAK256 PUSH1 0x1 ADD PUSH2 0xA20 DUP4 DUP15 PUSH2 0x6AE4 JUMP JUMPDEST DUP2 SLOAD DUP2 LT PUSH2 0xA30 JUMPI PUSH2 0xA30 PUSH2 0x6B0A JUMP JUMPDEST PUSH0 SWAP2 DUP3 MSTORE PUSH1 0x20 DUP1 DUP4 KECCAK256 SWAP1 SWAP2 ADD SLOAD PUSH1 0x1 PUSH1 0x1 PUSH1 0xA0 SHL SUB SWAP1 DUP2 AND DUP1 DUP5 MSTORE PUSH1 0x4 DUP4 MSTORE PUSH1 0x40 SWAP4 DUP5 SWAP1 KECCAK256 DUP5 MLOAD PUSH1 0x80 DUP2 ADD DUP7 MSTORE DUP2 SLOAD SWAP1 SWAP4 AND DUP4 MSTORE PUSH1 0x1 DUP2 ADD DUP1 SLOAD DUP7 MLOAD DUP2 DUP8 MUL DUP2 ADD DUP8 ADD SWAP1 SWAP8 MSTORE DUP1 DUP8 MSTORE SWAP3 SWAP7 POP SWAP3 SWAP5 SWAP1 SWAP4 DUP6 DUP2 ADD SWAP4 SWAP2 SWAP3 SWAP1 DUP4 ADD DUP3 DUP3 DUP1 ISZERO PUSH2 0xABE JUMPI PUSH1 0x20 MUL DUP3 ADD SWAP2 SWAP1 PUSH0 MSTORE PUSH1 0x20 PUSH0 KECCAK256 SWAP1 JUMPDEST DUP2 SLOAD PUSH1 0x1 PUSH1 0x1 PUSH1 0xA0 SHL SUB AND DUP2 MSTORE PUSH1 0x1 SWAP1 SWAP2 ADD SWAP1 PUSH1 0x20 ADD DUP1 DUP4 GT PUSH2 0xAA0 JUMPI JUMPDEST POP POP POP SWAP2 DUP4 MSTORE POP POP PUSH1 0x2 DUP3 ADD SLOAD PUSH1 0x20 SWAP1 SWAP2 ADD SWAP1 PUSH1 0xFF AND PUSH1 0x7 DUP2 GT ISZERO PUSH2 0xAE5 JUMPI PUSH2 0xAE5 PUSH2 0x664F JUMP JUMPDEST PUSH1 0x7 DUP2 GT ISZERO PUSH2 0xAF6 JUMPI PUSH2 0xAF6 PUSH2 0x664F JUMP JUMPDEST DUP2 MSTORE PUSH1 0x20 ADD PUSH1 0x2 DUP3 ADD PUSH1 0x1 SWAP1 SLOAD SWAP1 PUSH2 0x100 EXP SWAP1 DIV PUSH1 0xFF AND PUSH1 0x3 DUP2 GT ISZERO PUSH2 0xB1E JUMPI PUSH2 0xB1E PUSH2 0x664F JUMP JUMPDEST PUSH1 0x3 DUP2 GT ISZERO PUSH2 0xB2F JUMPI PUSH2 0xB2F PUSH2 0x664F JUMP JUMPDEST DUP2 MSTORE POP POP DUP6 DUP4 DUP2 MLOAD DUP2 LT PUSH2 0xB45 JUMPI PUSH2 0xB45 PUSH2 0x6B0A JUMP JUMPDEST PUSH1 0x20 MUL PUSH1 0x20 ADD ADD DUP2 SWAP1 MSTORE POP PUSH1 0x5 PUSH0 DUP3 PUSH1 0x1 PUSH1 0x1 PUSH1 0xA0 SHL SUB AND PUSH1 0x1 PUSH1 0x1 PUSH1 0xA0 SHL SUB AND DUP2 MSTORE PUSH1 0x20 ADD SWAP1 DUP2 MSTORE PUSH1 0x20 ADD PUSH0 KECCAK256 PUSH1 0x40 MLOAD DUP1 PUSH1 0xA0 ADD PUSH1 0x40 MSTORE SWAP1 DUP2 PUSH0 DUP3 ADD SLOAD DUP2 MSTORE PUSH1 0x20 ADD PUSH1 0x1 DUP3 ADD SLOAD DUP2 MSTORE PUSH1 0x20 ADD PUSH1 0x2 DUP3 ADD SLOAD DUP2 MSTORE PUSH1 0x20 ADD PUSH1 0x3 DUP3 ADD SLOAD DUP2 MSTORE PUSH1 0x20 ADD PUSH1 0x4 DUP3 ADD SLOAD DUP2 MSTORE POP POP DUP5 DUP4 DUP2 MLOAD DUP2 LT PUSH2 0xBC1 JUMPI PUSH2 0xBC1 PUSH2 0x6B0A JUMP JUMPDEST PUSH1 0x20 MUL PUSH1 0x20 ADD ADD DUP2 SWAP1 MSTORE POP DUP1 DUP4 DUP4 DUP2 MLOAD DUP2 LT PUSH2 0xBDF JUMPI PUSH2 0xBDF PUSH2 0x6B0A JUMP JUMPDEST PUSH1 0x1 PUSH1 0x1 PUSH1 0xA0 SHL SUB SWAP1 SWAP3 AND PUSH1 0x20 SWAP3 DUP4 MUL SWAP2 SWAP1 SWAP2 ADD SWAP1 SWAP2 ADD MSTORE POP PUSH1 0x1 ADD PUSH2 0x9F4 JUMP JUMPDEST POP SWAP7 POP SWAP1 SWAP5 POP SWAP3 POP POP POP JUMPDEST SWAP5 POP SWAP5 POP SWAP5 SWAP2 POP POP JUMP JUMPDEST PUSH1 0x18 SLOAD PUSH0 SWAP1 PUSH1 0x1 PUSH1 0x1 PUSH1 0xA0 SHL SUB AND CALLER EQ PUSH2 0xC41 JUMPI PUSH1 0x40 MLOAD PUSH3 0x461BCD PUSH1 0xE5 SHL DUP2 MSTORE PUSH1 0x4 ADD PUSH2 0x6D2 SWAP1 PUSH2 0x6A00 JUMP JUMPDEST PUSH1 0xE SLOAD DUP4 LT PUSH2 0xC62 JUMPI PUSH1 0x40 MLOAD PUSH3 0x461BCD PUSH1 0xE5 SHL DUP2 MSTORE PUSH1 0x4 ADD PUSH2 0x6D2 SWAP1 PUSH2 0x6B1E JUMP JUMPDEST PUSH0 DUP3 GT PUSH2 0xCBB JUMPI PUSH1 0x40 MLOAD PUSH3 0x461BCD PUSH1 0xE5 SHL DUP2 MSTORE PUSH1 0x20 PUSH1 0x4 DUP3 ADD MSTORE PUSH1 0x21 PUSH1 0x24 DUP3 ADD MSTORE PUSH32 0x42617463682073697A65206D7573742062652067726561746572207468616E20 PUSH1 0x44 DUP3 ADD MSTORE PUSH1 0x3 PUSH1 0xFC SHL PUSH1 0x64 DUP3 ADD MSTORE PUSH1 0x84 ADD PUSH2 0x6D2 JUMP JUMPDEST PUSH1 0xE SLOAD PUSH2 0xCC8 DUP5 DUP3 PUSH2 0x6AF7 JUMP JUMPDEST DUP4 GT ISZERO PUSH2 0xCDC JUMPI PUSH2 0xCD9 DUP5 DUP3 PUSH2 0x6AF7 JUMP JUMPDEST SWAP3 POP JUMPDEST PUSH0 JUMPDEST DUP4 DUP2 LT DUP1 ISZERO PUSH2 0xCEC JUMPI POP DUP2 DUP6 LT JUMPDEST ISZERO PUSH2 0x104F JUMPI PUSH0 PUSH1 0xE DUP7 DUP2 SLOAD DUP2 LT PUSH2 0xD05 JUMPI PUSH2 0xD05 PUSH2 0x6B0A JUMP JUMPDEST PUSH0 SWAP2 DUP3 MSTORE PUSH1 0x20 SWAP1 SWAP2 KECCAK256 ADD SLOAD PUSH1 0x1 PUSH1 0x1 PUSH1 0xA0 SHL SUB AND SWAP1 POP DUP1 ISZERO DUP1 PUSH2 0xD35 JUMPI POP PUSH1 0x14 SLOAD PUSH1 0x1 PUSH1 0x1 PUSH1 0xA0 SHL SUB DUP3 DUP2 AND SWAP2 AND EQ JUMPDEST ISZERO PUSH2 0xD45 JUMPI PUSH0 SWAP4 POP POP POP POP PUSH2 0x106C JUMP JUMPDEST PUSH2 0xD58 PUSH1 0x4 PUSH1 0x5 PUSH1 0x7 PUSH1 0x8 PUSH1 0xA DUP7 PUSH2 0x37A9 JUMP JUMPDEST POP PUSH1 0x1 PUSH1 0x1 PUSH1 0xA0 SHL SUB DUP1 DUP3 AND PUSH0 SWAP1 DUP2 MSTORE PUSH1 0x4 PUSH1 0x20 MSTORE PUSH1 0x40 SWAP1 KECCAK256 SLOAD AND DUP1 ISZERO PUSH2 0x102D JUMPI PUSH1 0x1 PUSH1 0x1 PUSH1 0xA0 SHL SUB DUP2 AND PUSH0 SWAP1 DUP2 MSTORE PUSH1 0x5 PUSH1 0x20 MSTORE PUSH1 0x40 DUP2 KECCAK256 PUSH1 0x1 SWAP1 DUP2 ADD DUP1 SLOAD SWAP2 SWAP3 SWAP1 SWAP2 PUSH2 0xDA6 SWAP1 DUP5 SWAP1 PUSH2 0x6AE4 JUMP JUMPDEST SWAP1 SWAP2 SSTORE POP POP PUSH1 0x1 PUSH1 0x1 PUSH1 0xA0 SHL SUB DUP2 AND PUSH0 SWAP1 DUP2 MSTORE PUSH1 0x1A PUSH1 0x20 MSTORE PUSH1 0x40 SWAP1 KECCAK256 SLOAD PUSH1 0xFF AND ISZERO ISZERO PUSH1 0x1 EQ DUP1 ISZERO SWAP1 PUSH2 0xE13 JUMPI POP PUSH1 0x1 PUSH1 0x1 PUSH1 0xA0 SHL SUB DUP3 AND PUSH0 SWAP1 DUP2 MSTORE PUSH1 0x19 PUSH1 0x20 MSTORE PUSH1 0x40 SWAP1 KECCAK256 PUSH1 0x1 ADD SLOAD PUSH1 0xFF AND DUP1 PUSH2 0xE13 JUMPI POP PUSH1 0x1 PUSH1 0x1 PUSH1 0xA0 SHL SUB DUP3 AND PUSH0 SWAP1 DUP2 MSTORE PUSH1 0x1A PUSH1 0x20 MSTORE PUSH1 0x40 SWAP1 KECCAK256 SLOAD PUSH1 0xFF AND JUMPDEST ISZERO PUSH2 0xE3B JUMPI PUSH1 0x1 PUSH1 0x1 PUSH1 0xA0 SHL SUB DUP2 AND PUSH0 SWAP1 DUP2 MSTORE PUSH1 0x1A PUSH1 0x20 MSTORE PUSH1 0x40 SWAP1 KECCAK256 DUP1 SLOAD PUSH1 0xFF NOT AND PUSH1 0x1 OR SWAP1 SSTORE JUMPDEST PUSH1 0x1 PUSH1 0x1 PUSH1 0xA0 SHL SUB DUP3 AND PUSH0 SWAP1 DUP2 MSTORE PUSH1 0x19 PUSH1 0x20 SWAP1 DUP2 MSTORE PUSH1 0x40 DUP1 DUP4 KECCAK256 DUP4 DUP2 SSTORE PUSH1 0x1 ADD DUP1 SLOAD PUSH1 0xFF NOT SWAP1 DUP2 AND SWAP1 SWAP2 SSTORE PUSH1 0x1A DUP4 MSTORE DUP2 DUP5 KECCAK256 DUP1 SLOAD SWAP1 SWAP2 AND SWAP1 SSTORE PUSH1 0x9 SWAP1 SWAP2 MSTORE SWAP1 KECCAK256 SLOAD ISZERO PUSH2 0xF0D JUMPI PUSH1 0x1 PUSH1 0x1 PUSH1 0xA0 SHL SUB DUP1 DUP4 AND PUSH0 SWAP1 DUP2 MSTORE PUSH1 0x9 PUSH1 0x20 MSTORE PUSH1 0x40 DUP1 DUP3 KECCAK256 SLOAD SWAP3 DUP5 AND DUP3 MSTORE DUP2 KECCAK256 DUP1 SLOAD SWAP1 SWAP2 SWAP1 PUSH2 0xEB2 SWAP1 DUP5 SWAP1 PUSH2 0x6AE4 JUMP JUMPDEST SWAP1 SWAP2 SSTORE POP POP PUSH1 0x1 PUSH1 0x1 PUSH1 0xA0 SHL SUB DUP1 DUP4 AND PUSH0 SWAP1 DUP2 MSTORE PUSH1 0x9 PUSH1 0x20 SWAP1 DUP2 MSTORE PUSH1 0x40 DUP1 DUP4 KECCAK256 SLOAD SWAP4 DUP6 AND DUP4 MSTORE PUSH1 0xA SWAP1 SWAP2 MSTORE DUP2 KECCAK256 DUP1 SLOAD SWAP1 SWAP2 SWAP1 PUSH2 0xEEF SWAP1 DUP5 SWAP1 PUSH2 0x6AE4 JUMP JUMPDEST SWAP1 SWAP2 SSTORE POP POP PUSH1 0x1 PUSH1 0x1 PUSH1 0xA0 SHL SUB DUP3 AND PUSH0 SWAP1 DUP2 MSTORE PUSH1 0x9 PUSH1 0x20 MSTORE PUSH1 0x40 DUP2 KECCAK256 SSTORE JUMPDEST PUSH1 0x1 PUSH1 0x1 PUSH1 0xA0 SHL SUB DUP2 AND PUSH0 SWAP1 DUP2 MSTORE PUSH1 0x4 PUSH1 0x20 SWAP1 DUP2 MSTORE PUSH1 0x40 DUP1 DUP4 KECCAK256 PUSH1 0x1 SWAP1 DUP2 ADD SLOAD PUSH1 0x5 SWAP1 SWAP4 MSTORE SWAP3 KECCAK256 SWAP1 SWAP2 ADD SLOAD SUB PUSH2 0xF85 JUMPI PUSH1 0x1 PUSH1 0x1 PUSH1 0xA0 SHL SUB DUP2 AND PUSH0 SWAP1 DUP2 MSTORE PUSH1 0x5 PUSH1 0x20 SWAP1 DUP2 MSTORE PUSH1 0x40 DUP1 DUP4 KECCAK256 PUSH1 0x1 ADD DUP4 SWAP1 SSTORE PUSH1 0x1A SWAP1 SWAP2 MSTORE SWAP1 KECCAK256 SLOAD PUSH1 0xFF AND ISZERO PUSH2 0xF7C JUMPI PUSH2 0xF7C PUSH1 0x5 PUSH1 0x4 PUSH1 0x2 DUP5 PUSH2 0x3904 JUMP JUMPDEST PUSH2 0xF85 DUP2 PUSH2 0x3BC5 JUMP JUMPDEST PUSH1 0x1 PUSH1 0x1 PUSH1 0xA0 SHL SUB DUP2 AND PUSH0 SWAP1 DUP2 MSTORE PUSH1 0x1A PUSH1 0x20 MSTORE PUSH1 0x40 SWAP1 KECCAK256 SLOAD PUSH1 0xFF AND DUP1 ISZERO PUSH2 0xFE0 JUMPI POP PUSH1 0x1 PUSH1 0x1 PUSH1 0x1 PUSH1 0xA0 SHL SUB DUP3 AND PUSH0 SWAP1 DUP2 MSTORE PUSH1 0x4 PUSH1 0x20 MSTORE PUSH1 0x40 SWAP1 KECCAK256 PUSH1 0x2 ADD SLOAD PUSH2 0x100 SWAP1 DIV PUSH1 0xFF AND PUSH1 0x3 DUP2 GT ISZERO PUSH2 0xFDD JUMPI PUSH2 0xFDD PUSH2 0x664F JUMP JUMPDEST EQ ISZERO JUMPDEST DUP1 ISZERO PUSH2 0xFF2 JUMPI POP PUSH2 0xFF2 PUSH1 0x5 DUP3 PUSH2 0x3DF4 JUMP JUMPDEST ISZERO PUSH2 0x102D JUMPI PUSH1 0x1 PUSH1 0x1 PUSH1 0xA0 SHL SUB DUP2 AND PUSH0 SWAP1 DUP2 MSTORE PUSH1 0x4 PUSH1 0x20 DUP2 SWAP1 MSTORE PUSH1 0x40 SWAP1 SWAP2 KECCAK256 PUSH1 0x2 ADD DUP1 SLOAD PUSH2 0xFF00 NOT AND PUSH2 0x100 OR SWAP1 SSTORE PUSH2 0x102D SWAP1 PUSH1 0xC DUP4 PUSH2 0x3E3D JUMP JUMPDEST DUP7 PUSH2 0x1037 DUP2 PUSH2 0x6B4B JUMP JUMPDEST SWAP8 POP POP DUP3 DUP1 PUSH2 0x1045 SWAP1 PUSH2 0x6B4B JUMP JUMPDEST SWAP4 POP POP POP POP PUSH2 0xCDE JUMP JUMPDEST DUP2 DUP6 LT PUSH2 0x105C JUMPI PUSH0 PUSH2 0x1067 JUMP JUMPDEST PUSH2 0x1067 DUP6 PUSH1 0x1 PUSH2 0x6AE4 JUMP JUMPDEST SWAP3 POP POP POP JUMPDEST SWAP3 SWAP2 POP POP JUMP JUMPDEST CALLER ORIGIN EQ PUSH2 0x1091 JUMPI PUSH1 0x40 MLOAD PUSH3 0x461BCD PUSH1 0xE5 SHL DUP2 MSTORE PUSH1 0x4 ADD PUSH2 0x6D2 SWAP1 PUSH2 0x6A9B JUMP JUMPDEST PUSH1 0x11 SLOAD PUSH2 0x100 SWAP1 DIV PUSH1 0xFF AND ISZERO PUSH2 0x10B9 JUMPI PUSH1 0x40 MLOAD PUSH3 0x461BCD PUSH1 0xE5 SHL DUP2 MSTORE PUSH1 0x4 ADD PUSH2 0x6D2 SWAP1 PUSH2 0x6B63 JUMP JUMPDEST PUSH1 0x1 PUSH1 0x1 PUSH1 0xA0 SHL SUB DUP4 DUP2 AND PUSH0 SWAP1 DUP2 MSTORE PUSH1 0x4 PUSH1 0x20 MSTORE PUSH1 0x40 SWAP1 KECCAK256 SLOAD AND ISZERO PUSH2 0x10F0 JUMPI PUSH1 0x40 MLOAD PUSH3 0x461BCD PUSH1 0xE5 SHL DUP2 MSTORE PUSH1 0x4 ADD PUSH2 0x6D2 SWAP1 PUSH2 0x6B8B JUMP JUMPDEST PUSH1 0x1 PUSH1 0x1 PUSH1 0xA0 SHL SUB DUP4 DUP2 AND PUSH0 SWAP1 DUP2 MSTORE PUSH1 0x12 PUSH1 0x20 MSTORE PUSH1 0x40 SWAP1 KECCAK256 SLOAD AND ISZERO PUSH2 0x1127 JUMPI PUSH1 0x40 MLOAD PUSH3 0x461BCD PUSH1 0xE5 SHL DUP2 MSTORE PUSH1 0x4 ADD PUSH2 0x6D2 SWAP1 PUSH2 0x6BB8 JUMP JUMPDEST PUSH1 0x1 PUSH1 0x1 PUSH1 0xA0 SHL SUB DUP3 DUP2 AND PUSH0 SWAP1 DUP2 MSTORE PUSH1 0x4 PUSH1 0x20 MSTORE PUSH1 0x40 SWAP1 KECCAK256 SLOAD AND ISZERO ISZERO DUP1 PUSH2 0x115B JUMPI POP PUSH1 0x14 SLOAD PUSH1 0x1 PUSH1 0x1 PUSH1 0xA0 SHL SUB DUP4 DUP2 AND SWAP2 AND EQ JUMPDEST PUSH2 0x1177 JUMPI PUSH1 0x40 MLOAD PUSH3 0x461BCD PUSH1 0xE5 SHL DUP2 MSTORE PUSH1 0x4 ADD PUSH2 0x6D2 SWAP1 PUSH2 0x6BEC JUMP JUMPDEST PUSH1 0x14 SLOAD PUSH1 0x1 PUSH1 0x1 PUSH1 0xA0 SHL SUB DUP4 DUP2 AND SWAP2 AND EQ ISZERO DUP1 PUSH2 0x119E JUMPI POP PUSH1 0x18 SLOAD PUSH1 0x1 PUSH1 0x1 PUSH1 0xA0 SHL SUB AND CALLER EQ JUMPDEST PUSH2 0x11BA JUMPI PUSH1 0x40 MLOAD PUSH3 0x461BCD PUSH1 0xE5 SHL DUP2 MSTORE PUSH1 0x4 ADD PUSH2 0x6D2 SWAP1 PUSH2 0x6C1B JUMP JUMPDEST PUSH1 0x1F SLOAD PUSH1 0x40 MLOAD PUSH4 0x700786D7 PUSH1 0xE1 SHL DUP2 MSTORE PUSH1 0x1 PUSH1 0x1 PUSH1 0xA0 SHL SUB SWAP1 SWAP2 AND SWAP1 DUP2 SWAP1 PUSH4 0xE00F0DAE SWAP1 PUSH2 0x11EC SWAP1 DUP8 SWAP1 PUSH1 0x4 ADD PUSH2 0x6856 JUMP JUMPDEST PUSH1 0x20 PUSH1 0x40 MLOAD DUP1 DUP4 SUB DUP2 DUP7 GAS STATICCALL ISZERO DUP1 ISZERO PUSH2 0x1207 JUMPI RETURNDATASIZE PUSH0 DUP1 RETURNDATACOPY RETURNDATASIZE PUSH0 REVERT JUMPDEST POP POP POP POP PUSH1 0x40 MLOAD RETURNDATASIZE PUSH1 0x1F NOT PUSH1 0x1F DUP3 ADD AND DUP3 ADD DUP1 PUSH1 0x40 MSTORE POP DUP2 ADD SWAP1 PUSH2 0x122B SWAP2 SWAP1 PUSH2 0x6C55 JUMP JUMPDEST PUSH1 0x1 PUSH1 0x1 PUSH1 0xA0 SHL SUB AND DUP4 PUSH1 0x1 PUSH1 0x1 PUSH1 0xA0 SHL SUB AND EQ PUSH2 0x125B JUMPI PUSH1 0x40 MLOAD PUSH3 0x461BCD PUSH1 0xE5 SHL DUP2 MSTORE PUSH1 0x4 ADD PUSH2 0x6D2 SWAP1 PUSH2 0x6C70 JUMP JUMPDEST PUSH1 0x17 SLOAD PUSH2 0x1276 SWAP1 PUSH1 0x1 PUSH1 0x1 PUSH1 0xA0 SHL SUB AND DUP4 PUSH4 0x7270E00 PUSH2 0x3EBE JUMP JUMPDEST PUSH1 0x40 MLOAD DUP1 PUSH1 0x40 ADD PUSH1 0x40 MSTORE DUP1 DUP5 PUSH1 0x1 PUSH1 0x1 PUSH1 0xA0 SHL SUB AND DUP2 MSTORE PUSH1 0x20 ADD TIMESTAMP PUSH4 0x1E13380 PUSH2 0x12A0 SWAP2 SWAP1 PUSH2 0x6AE4 JUMP JUMPDEST SWAP1 MSTORE PUSH1 0x1 PUSH1 0x1 PUSH1 0xA0 SHL SUB DUP1 DUP7 AND PUSH0 DUP2 DUP2 MSTORE PUSH1 0x12 PUSH1 0x20 SWAP1 DUP2 MSTORE PUSH1 0x40 DUP1 DUP4 KECCAK256 DUP7 MLOAD DUP2 SLOAD SWAP1 DUP8 AND PUSH1 0x1 PUSH1 0x1 PUSH1 0xA0 SHL SUB NOT SWAP2 DUP3 AND OR DUP3 SSTORE SWAP7 DUP4 ADD MLOAD PUSH1 0x1 SWAP2 DUP3 ADD SSTORE SWAP5 DUP10 AND DUP4 MSTORE PUSH1 0x13 DUP3 MSTORE DUP3 KECCAK256 DUP1 SLOAD SWAP5 DUP6 ADD DUP2 SSTORE DUP3 MSTORE SWAP1 KECCAK256 SWAP1 SWAP2 ADD DUP1 SLOAD SWAP1 SWAP3 AND OR SWAP1 SSTORE PUSH2 0x130A DUP5 PUSH1 0x64 DUP5 PUSH2 0x40DA JUMP JUMPDEST PUSH1 0x1B SLOAD PUSH1 0x16 SLOAD PUSH1 0x1 PUSH1 0x1 PUSH1 0xA0 SHL SUB SWAP2 DUP3 AND SWAP2 PUSH4 0xE115DC7F SWAP2 AND DUP5 PUSH1 0x64 PUSH2 0x1337 PUSH3 0xF4240 PUSH4 0x7270E00 PUSH2 0x6CAE JUMP JUMPDEST PUSH2 0x1341 SWAP2 SWAP1 PUSH2 0x6AF7 JUMP JUMPDEST PUSH1 0x1 PUSH1 0x2 PUSH1 0x40 MLOAD DUP7 PUSH4 0xFFFFFFFF AND PUSH1 0xE0 SHL DUP2 MSTORE PUSH1 0x4 ADD PUSH2 0x1365 SWAP6 SWAP5 SWAP4 SWAP3 SWAP2 SWAP1 PUSH2 0x6CD1 JUMP JUMPDEST PUSH0 PUSH1 0x40 MLOAD DUP1 DUP4 SUB DUP2 PUSH0 DUP8 DUP1 EXTCODESIZE ISZERO DUP1 ISZERO PUSH2 0x137C JUMPI PUSH0 DUP1 REVERT JUMPDEST POP GAS CALL ISZERO DUP1 ISZERO PUSH2 0x138E JUMPI RETURNDATASIZE PUSH0 DUP1 RETURNDATACOPY RETURNDATASIZE PUSH0 REVERT JUMPDEST POP POP POP POP POP POP POP POP JUMP JUMPDEST PUSH1 0x18 SLOAD PUSH1 0x1 PUSH1 0x1 PUSH1 0xA0 SHL SUB AND CALLER EQ PUSH2 0x13C2 JUMPI PUSH1 0x40 MLOAD PUSH3 0x461BCD PUSH1 0xE5 SHL DUP2 MSTORE PUSH1 0x4 ADD PUSH2 0x6D2 SWAP1 PUSH2 0x6A00 JUMP JUMPDEST PUSH1 0x1B SLOAD PUSH2 0x13D9 SWAP1 PUSH1 0x1 PUSH1 0x1 PUSH1 0xA0 SHL SUB AND PUSH1 0x2 PUSH2 0x41E0 JUMP JUMPDEST JUMP JUMPDEST PUSH1 0x18 SLOAD PUSH1 0x1 PUSH1 0x1 PUSH1 0xA0 SHL SUB AND CALLER EQ PUSH2 0x1405 JUMPI PUSH1 0x40 MLOAD PUSH3 0x461BCD PUSH1 0xE5 SHL DUP2 MSTORE PUSH1 0x4 ADD PUSH2 0x6D2 SWAP1 PUSH2 0x6A00 JUMP JUMPDEST PUSH1 0x14 SLOAD PUSH2 0x13D9 SWAP1 PUSH1 0x4 SWAP1 PUSH1 0xD SWAP1 PUSH1 0xB SWAP1 PUSH1 0x1 PUSH1 0x1 PUSH1 0xA0 SHL SUB AND DUP1 PUSH2 0x4452 JUMP JUMPDEST PUSH1 0x18 SLOAD PUSH0 SWAP1 DUP2 SWAP1 DUP2 SWAP1 PUSH1 0x1 PUSH1 0x1 PUSH1 0xA0 SHL SUB AND CALLER EQ PUSH2 0x1454 JUMPI PUSH1 0x40 MLOAD PUSH3 0x461BCD PUSH1 0xE5 SHL DUP2 MSTORE PUSH1 0x4 ADD PUSH2 0x6D2 SWAP1 PUSH2 0x6A00 JUMP JUMPDEST POP POP PUSH1 0x15 SLOAD PUSH1 0x16 SLOAD PUSH1 0x14 SLOAD PUSH1 0x1 PUSH1 0x1 PUSH1 0xA0 SHL SUB SWAP3 DUP4 AND SWAP4 POP SWAP1 DUP3 AND SWAP2 AND SWAP1 SWAP2 SWAP3 JUMP JUMPDEST CALLER ORIGIN EQ PUSH2 0x1495 JUMPI PUSH1 0x40 MLOAD PUSH3 0x461BCD PUSH1 0xE5 SHL DUP2 MSTORE PUSH1 0x4 ADD PUSH2 0x6D2 SWAP1 PUSH2 0x6A9B JUMP JUMPDEST PUSH1 0x11 SLOAD PUSH2 0x100 SWAP1 DIV PUSH1 0xFF AND ISZERO PUSH2 0x14BD JUMPI PUSH1 0x40 MLOAD PUSH3 0x461BCD PUSH1 0xE5 SHL DUP2 MSTORE PUSH1 0x4 ADD PUSH2 0x6D2 SWAP1 PUSH2 0x6B63 JUMP JUMPDEST PUSH1 0x1 PUSH1 0x1 PUSH1 0xA0 SHL SUB DUP6 DUP2 AND PUSH0 SWAP1 DUP2 MSTORE PUSH1 0x4 PUSH1 0x20 MSTORE PUSH1 0x40 SWAP1 KECCAK256 SLOAD AND ISZERO PUSH2 0x14F4 JUMPI PUSH1 0x40 MLOAD PUSH3 0x461BCD PUSH1 0xE5 SHL DUP2 MSTORE PUSH1 0x4 ADD PUSH2 0x6D2 SWAP1 PUSH2 0x6B8B JUMP JUMPDEST PUSH1 0x1 PUSH1 0x1 PUSH1 0xA0 SHL SUB DUP6 DUP2 AND PUSH0 SWAP1 DUP2 MSTORE PUSH1 0x12 PUSH1 0x20 MSTORE PUSH1 0x40 SWAP1 KECCAK256 SLOAD AND ISZERO PUSH2 0x152B JUMPI PUSH1 0x40 MLOAD PUSH3 0x461BCD PUSH1 0xE5 SHL DUP2 MSTORE PUSH1 0x4 ADD PUSH2 0x6D2 SWAP1 PUSH2 0x6BB8 JUMP JUMPDEST PUSH1 0x1 PUSH1 0x1 PUSH1 0xA0 SHL SUB DUP5 DUP2 AND PUSH0 SWAP1 DUP2 MSTORE PUSH1 0x4 PUSH1 0x20 MSTORE PUSH1 0x40 SWAP1 KECCAK256 SLOAD AND ISZERO ISZERO DUP1 PUSH2 0x155F JUMPI POP PUSH1 0x14 SLOAD PUSH1 0x1 PUSH1 0x1 PUSH1 0xA0 SHL SUB DUP6 DUP2 AND SWAP2 AND EQ JUMPDEST PUSH2 0x157B JUMPI PUSH1 0x40 MLOAD PUSH3 0x461BCD PUSH1 0xE5 SHL DUP2 MSTORE PUSH1 0x4 ADD PUSH2 0x6D2 SWAP1 PUSH2 0x6BEC JUMP JUMPDEST PUSH1 0x14 SLOAD PUSH1 0x1 PUSH1 0x1 PUSH1 0xA0 SHL SUB DUP6 DUP2 AND SWAP2 AND EQ ISZERO DUP1 PUSH2 0x15A2 JUMPI POP PUSH1 0x18 SLOAD PUSH1 0x1 PUSH1 0x1 PUSH1 0xA0 SHL SUB AND CALLER EQ JUMPDEST PUSH2 0x15BE JUMPI PUSH1 0x40 MLOAD PUSH3 0x461BCD PUSH1 0xE5 SHL DUP2 MSTORE PUSH1 0x4 ADD PUSH2 0x6D2 SWAP1 PUSH2 0x6C1B JUMP JUMPDEST PUSH1 0x1F SLOAD PUSH1 0x40 MLOAD PUSH4 0x700786D7 PUSH1 0xE1 SHL DUP2 MSTORE PUSH1 0x1 PUSH1 0x1 PUSH1 0xA0 SHL SUB SWAP1 SWAP2 AND SWAP1 DUP2 SWAP1 PUSH4 0xE00F0DAE SWAP1 PUSH2 0x15F0 SWAP1 DUP10 SWAP1 PUSH1 0x4 ADD PUSH2 0x6856 JUMP JUMPDEST PUSH1 0x20 PUSH1 0x40 MLOAD DUP1 DUP4 SUB DUP2 DUP7 GAS STATICCALL ISZERO DUP1 ISZERO PUSH2 0x160B JUMPI RETURNDATASIZE PUSH0 DUP1 RETURNDATACOPY RETURNDATASIZE PUSH0 REVERT JUMPDEST POP POP POP POP PUSH1 0x40 MLOAD RETURNDATASIZE PUSH1 0x1F NOT PUSH1 0x1F DUP3 ADD AND DUP3 ADD DUP1 PUSH1 0x40 MSTORE POP DUP2 ADD SWAP1 PUSH2 0x162F SWAP2 SWAP1 PUSH2 0x6C55 JUMP JUMPDEST PUSH1 0x1 PUSH1 0x1 PUSH1 0xA0 SHL SUB AND DUP6 PUSH1 0x1 PUSH1 0x1 PUSH1 0xA0 SHL SUB AND EQ PUSH2 0x165F JUMPI PUSH1 0x40 MLOAD PUSH3 0x461BCD PUSH1 0xE5 SHL DUP2 MSTORE PUSH1 0x4 ADD PUSH2 0x6D2 SWAP1 PUSH2 0x6C70 JUMP JUMPDEST PUSH1 0x17 SLOAD PUSH2 0x1687 SWAP1 PUSH1 0x1 PUSH1 0x1 PUSH1 0xA0 SHL SUB AND DUP4 PUSH2 0x1682 PUSH4 0x7270E00 PUSH4 0x2625A00 PUSH2 0x6AE4 JUMP JUMPDEST PUSH2 0x3EBE JUMP JUMPDEST PUSH2 0x1693 DUP7 PUSH1 0x64 DUP5 PUSH2 0x40DA JUMP JUMPDEST PUSH1 0x1B SLOAD PUSH1 0x16 SLOAD PUSH1 0x1 PUSH1 0x1 PUSH1 0xA0 SHL SUB SWAP2 DUP3 AND SWAP2 PUSH4 0xE115DC7F SWAP2 AND DUP5 PUSH1 0x64 PUSH2 0x16C0 PUSH3 0xF4240 PUSH4 0x7270E00 PUSH2 0x6CAE JUMP JUMPDEST PUSH2 0x16CA SWAP2 SWAP1 PUSH2 0x6AF7 JUMP JUMPDEST PUSH1 0x1 PUSH1 0x2 PUSH1 0x40 MLOAD DUP7 PUSH4 0xFFFFFFFF AND PUSH1 0xE0 SHL DUP2 MSTORE PUSH1 0x4 ADD PUSH2 0x16EE SWAP6 SWAP5 SWAP4 SWAP3 SWAP2 SWAP1 PUSH2 0x6CD1 JUMP JUMPDEST PUSH0 PUSH1 0x40 MLOAD DUP1 DUP4 SUB DUP2 PUSH0 DUP8 DUP1 EXTCODESIZE ISZERO DUP1 ISZERO PUSH2 0x1705 JUMPI PUSH0 DUP1 REVERT JUMPDEST POP GAS CALL ISZERO DUP1 ISZERO PUSH2 0x1717 JUMPI RETURNDATASIZE PUSH0 DUP1 RETURNDATACOPY RETURNDATASIZE PUSH0 REVERT JUMPDEST POP POP POP POP PUSH2 0x1770 PUSH1 0x40 MLOAD DUP1 PUSH1 0x40 ADD PUSH1 0x40 MSTORE DUP1 PUSH1 0x15 DUP2 MSTORE PUSH1 0x20 ADD PUSH21 0x30B232283937B6B7BA32B926B2B6B132B91036309D PUSH1 0x59 SHL DUP2 MSTORE POP PUSH1 0x64 PUSH3 0xF4240 PUSH4 0x7270E00 PUSH2 0x1761 SWAP2 SWAP1 PUSH2 0x6CAE JUMP JUMPDEST PUSH2 0x176B SWAP2 SWAP1 PUSH2 0x6AF7 JUMP JUMPDEST PUSH2 0x4752 JUMP JUMPDEST PUSH1 0x11 SLOAD PUSH1 0xFF AND ISZERO PUSH2 0x1848 JUMPI POP PUSH1 0x40 DUP1 MLOAD PUSH1 0xA0 DUP2 ADD DUP3 MSTORE PUSH1 0x1 PUSH1 0x1 PUSH1 0xA0 SHL SUB DUP1 DUP9 AND DUP3 MSTORE DUP7 DUP2 AND PUSH1 0x20 DUP4 ADD SWAP1 DUP2 MSTORE SWAP3 DUP3 ADD DUP7 DUP2 MSTORE PUSH1 0x60 DUP4 ADD DUP7 DUP2 MSTORE PUSH1 0x80 DUP5 ADD DUP7 DUP2 MSTORE PUSH1 0xF DUP1 SLOAD PUSH1 0x1 DUP2 ADD DUP3 SSTORE PUSH0 SWAP2 SWAP1 SWAP2 MSTORE SWAP5 MLOAD PUSH1 0x5 SWAP1 SWAP6 MUL PUSH0 DUP1 MLOAD PUSH1 0x20 PUSH2 0x7343 DUP4 CODECOPY DUP2 MLOAD SWAP2 MSTORE DUP2 ADD DUP1 SLOAD SWAP7 DUP7 AND PUSH1 0x1 PUSH1 0x1 PUSH1 0xA0 SHL SUB NOT SWAP8 DUP9 AND OR SWAP1 SSTORE SWAP6 MLOAD PUSH0 DUP1 MLOAD PUSH1 0x20 PUSH2 0x7323 DUP4 CODECOPY DUP2 MLOAD SWAP2 MSTORE DUP8 ADD DUP1 SLOAD SWAP2 SWAP1 SWAP6 AND SWAP6 AND SWAP5 SWAP1 SWAP5 OR SWAP1 SWAP3 SSTORE MLOAD PUSH0 DUP1 MLOAD PUSH1 0x20 PUSH2 0x7303 DUP4 CODECOPY DUP2 MLOAD SWAP2 MSTORE DUP5 ADD SSTORE MLOAD PUSH0 DUP1 MLOAD PUSH1 0x20 PUSH2 0x72E3 DUP4 CODECOPY DUP2 MLOAD SWAP2 MSTORE DUP4 ADD SSTORE MLOAD PUSH0 DUP1 MLOAD PUSH1 0x20 PUSH2 0x72C3 DUP4 CODECOPY DUP2 MLOAD SWAP2 MSTORE SWAP1 SWAP2 ADD SSTORE PUSH2 0x185F JUMP JUMPDEST PUSH2 0x1850 PUSH2 0x4797 JUMP JUMPDEST PUSH2 0x185D DUP7 DUP7 DUP7 DUP7 DUP7 PUSH2 0x4938 JUMP JUMPDEST POP JUMPDEST POP POP POP POP POP JUMP JUMPDEST PUSH1 0x1F SLOAD PUSH1 0x40 MLOAD PUSH4 0x700786D7 PUSH1 0xE1 SHL DUP2 MSTORE PUSH0 SWAP2 PUSH1 0x1 PUSH1 0x1 PUSH1 0xA0 SHL SUB AND SWAP1 DUP2 SWAP1 PUSH4 0xE00F0DAE SWAP1 PUSH2 0x1898 SWAP1 DUP7 SWAP1 PUSH1 0x4 ADD PUSH2 0x6856 JUMP JUMPDEST PUSH1 0x20 PUSH1 0x40 MLOAD DUP1 DUP4 SUB DUP2 DUP7 GAS STATICCALL ISZERO DUP1 ISZERO PUSH2 0x18B3 JUMPI RETURNDATASIZE PUSH0 DUP1 RETURNDATACOPY RETURNDATASIZE PUSH0 REVERT JUMPDEST POP POP POP POP PUSH1 0x40 MLOAD RETURNDATASIZE PUSH1 0x1F NOT PUSH1 0x1F DUP3 ADD AND DUP3 ADD DUP1 PUSH1 0x40 MSTORE POP DUP2 ADD SWAP1 PUSH2 0x18D7 SWAP2 SWAP1 PUSH2 0x6C55 JUMP JUMPDEST SWAP4 SWAP3 POP POP POP JUMP JUMPDEST PUSH1 0x40 DUP1 MLOAD DUP1 DUP3 ADD SWAP1 SWAP2 MSTORE PUSH0 DUP1 DUP3 MSTORE PUSH1 0x20 DUP3 ADD MSTORE CALLER ORIGIN EQ PUSH2 0x1910 JUMPI PUSH1 0x40 MLOAD PUSH3 0x461BCD PUSH1 0xE5 SHL DUP2 MSTORE PUSH1 0x4 ADD PUSH2 0x6D2 SWAP1 PUSH2 0x6A9B JUMP JUMPDEST CALLER PUSH0 DUP2 DUP2 MSTORE PUSH1 0x12 PUSH1 0x20 MSTORE PUSH1 0x40 SWAP1 KECCAK256 SLOAD PUSH1 0x1 PUSH1 0x1 PUSH1 0xA0 SHL SUB AND PUSH2 0x1944 JUMPI PUSH1 0x40 MLOAD PUSH3 0x461BCD PUSH1 0xE5 SHL DUP2 MSTORE PUSH1 0x4 ADD PUSH2 0x6D2 SWAP1 PUSH2 0x6D04 JUMP JUMPDEST PUSH1 0x1 PUSH1 0x1 PUSH1 0xA0 SHL SUB SWAP1 DUP2 AND PUSH0 SWAP1 DUP2 MSTORE PUSH1 0x12 PUSH1 0x20 SWAP1 DUP2 MSTORE PUSH1 0x40 SWAP2 DUP3 SWAP1 KECCAK256 DUP3 MLOAD DUP1 DUP5 ADD SWAP1 SWAP4 MSTORE DUP1 SLOAD SWAP1 SWAP4 AND DUP3 MSTORE PUSH1 0x1 SWAP1 SWAP3 ADD SLOAD SWAP2 DUP2 ADD SWAP2 SWAP1 SWAP2 MSTORE SWAP1 POP SWAP1 JUMP JUMPDEST PUSH1 0x18 SLOAD PUSH1 0x1 PUSH1 0x1 PUSH1 0xA0 SHL SUB AND CALLER EQ PUSH2 0x19AB JUMPI PUSH1 0x40 MLOAD PUSH3 0x461BCD PUSH1 0xE5 SHL DUP2 MSTORE PUSH1 0x4 ADD PUSH2 0x6D2 SWAP1 PUSH2 0x6A00 JUMP JUMPDEST PUSH1 0x17 DUP1 SLOAD PUSH1 0x1 PUSH1 0x1 PUSH1 0xA0 SHL SUB NOT AND PUSH1 0x1 PUSH1 0x1 PUSH1 0xA0 SHL SUB SWAP3 SWAP1 SWAP3 AND SWAP2 SWAP1 SWAP2 OR SWAP1 SSTORE JUMP JUMPDEST PUSH0 DUP3 GT PUSH2 0x19EC JUMPI PUSH1 0x40 MLOAD PUSH3 0x461BCD PUSH1 0xE5 SHL DUP2 MSTORE PUSH1 0x4 ADD PUSH2 0x6D2 SWAP1 PUSH2 0x6A35 JUMP JUMPDEST ORIGIN CALLER EQ DUP1 PUSH2 0x1A04 JUMPI POP PUSH1 0x14 SLOAD PUSH1 0x1 PUSH1 0x1 PUSH1 0xA0 SHL SUB AND CALLER EQ JUMPDEST DUP1 PUSH2 0x1A19 JUMPI POP PUSH1 0x16 SLOAD PUSH1 0x1 PUSH1 0x1 PUSH1 0xA0 SHL SUB AND CALLER EQ JUMPDEST DUP1 PUSH2 0x1A2E JUMPI POP PUSH1 0x15 SLOAD PUSH1 0x1 PUSH1 0x1 PUSH1 0xA0 SHL SUB AND CALLER EQ JUMPDEST PUSH2 0x1A4A JUMPI PUSH1 0x40 MLOAD PUSH3 0x461BCD PUSH1 0xE5 SHL DUP2 MSTORE PUSH1 0x4 ADD PUSH2 0x6D2 SWAP1 PUSH2 0x6A6C JUMP JUMPDEST PUSH2 0x1A55 DUP3 CALLER DUP4 PUSH2 0x32D8 JUMP JUMPDEST POP POP JUMP JUMPDEST PUSH1 0x18 SLOAD PUSH1 0x1 PUSH1 0x1 PUSH1 0xA0 SHL SUB AND CALLER EQ PUSH2 0x1A83 JUMPI PUSH1 0x40 MLOAD PUSH3 0x461BCD PUSH1 0xE5 SHL DUP2 MSTORE PUSH1 0x4 ADD PUSH2 0x6D2 SWAP1 PUSH2 0x6A00 JUMP JUMPDEST PUSH1 0x1 PUSH1 0x1 PUSH1 0xA0 SHL SUB DUP3 DUP2 AND PUSH0 SWAP1 DUP2 MSTORE PUSH1 0x4 PUSH1 0x20 MSTORE PUSH1 0x40 SWAP1 KECCAK256 SLOAD AND PUSH2 0x1ADB JUMPI PUSH1 0x40 MLOAD PUSH3 0x461BCD PUSH1 0xE5 SHL DUP2 MSTORE PUSH1 0x20 PUSH1 0x4 DUP3 ADD MSTORE PUSH1 0xF PUSH1 0x24 DUP3 ADD MSTORE PUSH15 0x55736572206E6F7420657869737473 PUSH1 0x88 SHL PUSH1 0x44 DUP3 ADD MSTORE PUSH1 0x64 ADD PUSH2 0x6D2 JUMP JUMPDEST PUSH2 0x1A55 PUSH0 DUP4 DUP4 PUSH2 0x5011 JUMP JUMPDEST PUSH1 0x1 PUSH1 0x1 PUSH1 0xA0 SHL SUB DUP2 DUP2 AND PUSH0 SWAP1 DUP2 MSTORE PUSH1 0x4 PUSH1 0x20 MSTORE PUSH1 0x40 DUP2 KECCAK256 SLOAD SWAP1 SWAP2 AND ISZERO DUP1 ISZERO SWAP1 PUSH2 0x106C JUMPI POP PUSH1 0x1 PUSH1 0x1 PUSH1 0x1 PUSH1 0xA0 SHL SUB DUP4 AND PUSH0 SWAP1 DUP2 MSTORE PUSH1 0x4 PUSH1 0x20 MSTORE PUSH1 0x40 SWAP1 KECCAK256 PUSH1 0x2 ADD SLOAD PUSH2 0x100 SWAP1 DIV PUSH1 0xFF AND PUSH1 0x3 DUP2 GT ISZERO PUSH2 0x1B41 JUMPI PUSH2 0x1B41 PUSH2 0x664F JUMP JUMPDEST EQ SWAP3 SWAP2 POP POP JUMP JUMPDEST CALLER ORIGIN EQ PUSH2 0x1B67 JUMPI PUSH1 0x40 MLOAD PUSH3 0x461BCD PUSH1 0xE5 SHL DUP2 MSTORE PUSH1 0x4 ADD PUSH2 0x6D2 SWAP1 PUSH2 0x6A9B JUMP JUMPDEST PUSH1 0x11 SLOAD PUSH2 0x100 SWAP1 DIV PUSH1 0xFF AND ISZERO PUSH2 0x1B8F JUMPI PUSH1 0x40 MLOAD PUSH3 0x461BCD PUSH1 0xE5 SHL DUP2 MSTORE PUSH1 0x4 ADD PUSH2 0x6D2 SWAP1 PUSH2 0x6B63 JUMP JUMPDEST PUSH1 0x1 PUSH1 0x1 PUSH1 0xA0 SHL SUB DUP5 DUP2 AND PUSH0 SWAP1 DUP2 MSTORE PUSH1 0x12 PUSH1 0x20 MSTORE PUSH1 0x40 SWAP1 KECCAK256 SLOAD AND PUSH2 0x1BE8 JUMPI PUSH1 0x40 MLOAD PUSH3 0x461BCD PUSH1 0xE5 SHL DUP2 MSTORE PUSH1 0x20 PUSH1 0x4 DUP3 ADD MSTORE PUSH1 0x10 PUSH1 0x24 DUP3 ADD MSTORE PUSH16 0x55736572206E6F742070656E64696E67 PUSH1 0x80 SHL PUSH1 0x44 DUP3 ADD MSTORE PUSH1 0x64 ADD PUSH2 0x6D2 JUMP JUMPDEST PUSH1 0x1 PUSH1 0x1 PUSH1 0xA0 SHL SUB DUP5 AND PUSH0 SWAP1 DUP2 MSTORE PUSH1 0x12 PUSH1 0x20 MSTORE PUSH1 0x40 SWAP1 KECCAK256 PUSH1 0x1 ADD SLOAD TIMESTAMP GT ISZERO PUSH2 0x1C47 JUMPI PUSH1 0x40 MLOAD PUSH3 0x461BCD PUSH1 0xE5 SHL DUP2 MSTORE PUSH1 0x20 PUSH1 0x4 DUP3 ADD MSTORE PUSH1 0x12 PUSH1 0x24 DUP3 ADD MSTORE PUSH18 0x13595B58995C9CDA1A5C08195E1C1A5C9959 PUSH1 0x72 SHL PUSH1 0x44 DUP3 ADD MSTORE PUSH1 0x64 ADD PUSH2 0x6D2 JUMP JUMPDEST PUSH1 0x1 PUSH1 0x1 PUSH1 0xA0 SHL SUB DUP1 DUP6 AND PUSH0 SWAP1 DUP2 MSTORE PUSH1 0x12 PUSH1 0x20 SWAP1 DUP2 MSTORE PUSH1 0x40 DUP1 DUP4 KECCAK256 SLOAD DUP5 AND DUP1 DUP5 MSTORE PUSH1 0x4 SWAP1 SWAP3 MSTORE SWAP1 SWAP2 KECCAK256 SLOAD SWAP1 SWAP2 AND ISZERO ISZERO DUP1 PUSH2 0x1C8E JUMPI POP PUSH1 0x14 SLOAD PUSH1 0x1 PUSH1 0x1 PUSH1 0xA0 SHL SUB DUP3 DUP2 AND SWAP2 AND EQ JUMPDEST PUSH2 0x1CAA JUMPI PUSH1 0x40 MLOAD PUSH3 0x461BCD PUSH1 0xE5 SHL DUP2 MSTORE PUSH1 0x4 ADD PUSH2 0x6D2 SWAP1 PUSH2 0x6BEC JUMP JUMPDEST PUSH1 0x17 SLOAD PUSH2 0x1CC5 SWAP1 PUSH1 0x1 PUSH1 0x1 PUSH1 0xA0 SHL SUB AND DUP4 PUSH4 0x2625A00 PUSH2 0x3EBE JUMP JUMPDEST PUSH1 0x1 PUSH1 0x1 PUSH1 0xA0 SHL SUB DUP6 AND PUSH0 SWAP1 DUP2 MSTORE PUSH1 0x12 PUSH1 0x20 MSTORE PUSH1 0x40 DUP2 KECCAK256 DUP1 SLOAD PUSH1 0x1 PUSH1 0x1 PUSH1 0xA0 SHL SUB NOT AND DUP2 SSTORE PUSH1 0x1 ADD DUP2 SWAP1 SSTORE JUMPDEST PUSH1 0x1 PUSH1 0x1 PUSH1 0xA0 SHL SUB DUP3 AND PUSH0 SWAP1 DUP2 MSTORE PUSH1 0x13 PUSH1 0x20 MSTORE PUSH1 0x40 SWAP1 KECCAK256 SLOAD DUP2 LT ISZERO PUSH2 0x1E39 JUMPI PUSH1 0x1 PUSH1 0x1 PUSH1 0xA0 SHL SUB DUP3 DUP2 AND PUSH0 SWAP1 DUP2 MSTORE PUSH1 0x13 PUSH1 0x20 MSTORE PUSH1 0x40 SWAP1 KECCAK256 DUP1 SLOAD SWAP2 DUP9 AND SWAP2 DUP4 SWAP1 DUP2 LT PUSH2 0x1D3E JUMPI PUSH2 0x1D3E PUSH2 0x6B0A JUMP JUMPDEST PUSH0 SWAP2 DUP3 MSTORE PUSH1 0x20 SWAP1 SWAP2 KECCAK256 ADD SLOAD PUSH1 0x1 PUSH1 0x1 PUSH1 0xA0 SHL SUB AND SUB PUSH2 0x1E31 JUMPI PUSH1 0x1 PUSH1 0x1 PUSH1 0xA0 SHL SUB DUP3 AND PUSH0 SWAP1 DUP2 MSTORE PUSH1 0x13 PUSH1 0x20 MSTORE PUSH1 0x40 SWAP1 KECCAK256 DUP1 SLOAD PUSH2 0x1D7C SWAP1 PUSH1 0x1 SWAP1 PUSH2 0x6AF7 JUMP JUMPDEST DUP2 SLOAD DUP2 LT PUSH2 0x1D8C JUMPI PUSH2 0x1D8C PUSH2 0x6B0A JUMP JUMPDEST PUSH0 SWAP2 DUP3 MSTORE PUSH1 0x20 DUP1 DUP4 KECCAK256 SWAP1 SWAP2 ADD SLOAD PUSH1 0x1 PUSH1 0x1 PUSH1 0xA0 SHL SUB DUP6 DUP2 AND DUP5 MSTORE PUSH1 0x13 SWAP1 SWAP3 MSTORE PUSH1 0x40 SWAP1 SWAP3 KECCAK256 DUP1 SLOAD SWAP2 SWAP1 SWAP3 AND SWAP2 SWAP1 DUP4 SWAP1 DUP2 LT PUSH2 0x1DC8 JUMPI PUSH2 0x1DC8 PUSH2 0x6B0A JUMP JUMPDEST PUSH0 SWAP2 DUP3 MSTORE PUSH1 0x20 DUP1 DUP4 KECCAK256 SWAP2 SWAP1 SWAP2 ADD DUP1 SLOAD PUSH1 0x1 PUSH1 0x1 PUSH1 0xA0 SHL SUB NOT AND PUSH1 0x1 PUSH1 0x1 PUSH1 0xA0 SHL SUB SWAP5 DUP6 AND OR SWAP1 SSTORE SWAP2 DUP5 AND DUP2 MSTORE PUSH1 0x13 SWAP1 SWAP2 MSTORE PUSH1 0x40 SWAP1 KECCAK256 DUP1 SLOAD DUP1 PUSH2 0x1E0C JUMPI PUSH2 0x1E0C PUSH2 0x6D31 JUMP JUMPDEST PUSH0 DUP3 DUP2 MSTORE PUSH1 0x20 SWAP1 KECCAK256 DUP2 ADD PUSH0 NOT SWAP1 DUP2 ADD DUP1 SLOAD PUSH1 0x1 PUSH1 0x1 PUSH1 0xA0 SHL SUB NOT AND SWAP1 SSTORE ADD SWAP1 SSTORE PUSH2 0x1E39 JUMP JUMPDEST PUSH1 0x1 ADD PUSH2 0x1CF1 JUMP JUMPDEST POP PUSH1 0x11 SLOAD PUSH1 0xFF AND ISZERO PUSH2 0x1F13 JUMPI PUSH1 0x40 DUP1 MLOAD PUSH1 0xA0 DUP2 ADD DUP3 MSTORE PUSH1 0x1 PUSH1 0x1 PUSH1 0xA0 SHL SUB DUP1 DUP9 AND DUP3 MSTORE SWAP3 DUP4 AND PUSH1 0x20 DUP3 ADD SWAP1 DUP2 MSTORE SWAP2 DUP2 ADD DUP7 DUP2 MSTORE PUSH1 0x60 DUP3 ADD DUP7 DUP2 MSTORE PUSH1 0x80 DUP4 ADD DUP7 DUP2 MSTORE PUSH1 0xF DUP1 SLOAD PUSH1 0x1 DUP2 ADD DUP3 SSTORE PUSH0 SWAP2 SWAP1 SWAP2 MSTORE SWAP4 MLOAD PUSH1 0x5 SWAP1 SWAP5 MUL PUSH0 DUP1 MLOAD PUSH1 0x20 PUSH2 0x7343 DUP4 CODECOPY DUP2 MLOAD SWAP2 MSTORE DUP2 ADD DUP1 SLOAD SWAP6 DUP9 AND PUSH1 0x1 PUSH1 0x1 PUSH1 0xA0 SHL SUB NOT SWAP7 DUP8 AND OR SWAP1 SSTORE SWAP5 MLOAD PUSH0 DUP1 MLOAD PUSH1 0x20 PUSH2 0x7323 DUP4 CODECOPY DUP2 MLOAD SWAP2 MSTORE DUP7 ADD DUP1 SLOAD SWAP2 SWAP1 SWAP8 AND SWAP5 AND SWAP4 SWAP1 SWAP4 OR SWAP1 SWAP5 SSTORE MLOAD PUSH0 DUP1 MLOAD PUSH1 0x20 PUSH2 0x7303 DUP4 CODECOPY DUP2 MLOAD SWAP2 MSTORE DUP4 ADD SSTORE SWAP2 MLOAD PUSH0 DUP1 MLOAD PUSH1 0x20 PUSH2 0x72E3 DUP4 CODECOPY DUP2 MLOAD SWAP2 MSTORE DUP3 ADD SSTORE SWAP1 MLOAD PUSH0 DUP1 MLOAD PUSH1 0x20 PUSH2 0x72C3 DUP4 CODECOPY DUP2 MLOAD SWAP2 MSTORE SWAP1 SWAP2 ADD SSTORE PUSH2 0x1F28 JUMP JUMPDEST PUSH2 0x1F1B PUSH2 0x4797 JUMP JUMPDEST PUSH2 0x185F DUP6 DUP3 DUP7 DUP7 DUP7 PUSH2 0x4938 JUMP JUMPDEST POP POP POP POP JUMP JUMPDEST PUSH1 0x1 PUSH1 0x1 PUSH1 0xA0 SHL SUB DUP2 DUP2 AND PUSH0 SWAP1 DUP2 MSTORE PUSH1 0x4 PUSH1 0x20 MSTORE PUSH1 0x40 DUP2 KECCAK256 SLOAD SWAP1 SWAP2 AND ISZERO ISZERO DUP1 PUSH2 0x1F6F JUMPI POP PUSH1 0x1 PUSH1 0x1 PUSH1 0xA0 SHL SUB DUP3 DUP2 AND PUSH0 SWAP1 DUP2 MSTORE PUSH1 0x12 PUSH1 0x20 MSTORE PUSH1 0x40 SWAP1 KECCAK256 SLOAD AND ISZERO ISZERO JUMPDEST DUP1 PUSH2 0x106C JUMPI POP POP PUSH1 0x14 SLOAD PUSH1 0x1 PUSH1 0x1 PUSH1 0xA0 SHL SUB SWAP1 DUP2 AND SWAP2 AND EQ SWAP1 JUMP JUMPDEST PUSH1 0x18 SLOAD PUSH1 0x1 PUSH1 0x1 PUSH1 0xA0 SHL SUB AND CALLER EQ PUSH2 0x1FB4 JUMPI PUSH1 0x40 MLOAD PUSH3 0x461BCD PUSH1 0xE5 SHL DUP2 MSTORE PUSH1 0x4 ADD PUSH2 0x6D2 SWAP1 PUSH2 0x6A00 JUMP JUMPDEST PUSH1 0x1E DUP1 SLOAD PUSH1 0x1 PUSH1 0x1 PUSH1 0xA0 SHL SUB NOT AND PUSH1 0x1 PUSH1 0x1 PUSH1 0xA0 SHL SUB SWAP3 SWAP1 SWAP3 AND SWAP2 SWAP1 SWAP2 OR SWAP1 SSTORE JUMP JUMPDEST PUSH1 0x60 CALLER ORIGIN EQ PUSH2 0x1FF7 JUMPI PUSH1 0x40 MLOAD PUSH3 0x461BCD PUSH1 0xE5 SHL DUP2 MSTORE PUSH1 0x4 ADD PUSH2 0x6D2 SWAP1 PUSH2 0x6A9B JUMP JUMPDEST PUSH0 DUP3 GT DUP1 ISZERO PUSH2 0x2007 JUMPI POP PUSH1 0x32 DUP3 GT ISZERO JUMPDEST PUSH2 0x205D JUMPI PUSH1 0x40 MLOAD PUSH3 0x461BCD PUSH1 0xE5 SHL DUP2 MSTORE PUSH1 0x20 PUSH1 0x4 DUP3 ADD MSTORE PUSH1 0x21 PUSH1 0x24 DUP3 ADD MSTORE PUSH32 0x7061676553697A65206D757374206265206265747765656E203120616E642035 PUSH1 0x44 DUP3 ADD MSTORE PUSH1 0x3 PUSH1 0xFC SHL PUSH1 0x64 DUP3 ADD MSTORE PUSH1 0x84 ADD PUSH2 0x6D2 JUMP JUMPDEST PUSH1 0x1 PUSH1 0x1 PUSH1 0xA0 SHL SUB DUP5 AND PUSH0 SWAP1 DUP2 MSTORE PUSH1 0x13 PUSH1 0x20 MSTORE PUSH1 0x40 SWAP1 KECCAK256 SLOAD DUP1 DUP5 LT PUSH2 0x2091 JUMPI POP POP PUSH1 0x40 DUP1 MLOAD PUSH0 DUP2 MSTORE PUSH1 0x20 DUP2 ADD SWAP1 SWAP2 MSTORE PUSH2 0x18D7 JUMP JUMPDEST PUSH0 PUSH2 0x209C DUP5 DUP7 PUSH2 0x6AE4 JUMP JUMPDEST SWAP1 POP DUP2 DUP2 GT ISZERO PUSH2 0x20A9 JUMPI POP DUP1 JUMPDEST PUSH0 PUSH2 0x20B4 DUP7 DUP4 PUSH2 0x6AF7 JUMP JUMPDEST PUSH1 0x1 PUSH1 0x1 PUSH1 0x40 SHL SUB DUP2 GT ISZERO PUSH2 0x20CB JUMPI PUSH2 0x20CB PUSH2 0x644B JUMP JUMPDEST PUSH1 0x40 MLOAD SWAP1 DUP1 DUP3 MSTORE DUP1 PUSH1 0x20 MUL PUSH1 0x20 ADD DUP3 ADD PUSH1 0x40 MSTORE DUP1 ISZERO PUSH2 0x20F4 JUMPI DUP2 PUSH1 0x20 ADD PUSH1 0x20 DUP3 MUL DUP1 CALLDATASIZE DUP4 CALLDATACOPY ADD SWAP1 POP JUMPDEST POP SWAP1 POP PUSH0 DUP7 JUMPDEST DUP4 DUP2 LT ISZERO PUSH2 0x2185 JUMPI PUSH1 0x1 PUSH1 0x1 PUSH1 0xA0 SHL SUB DUP10 AND PUSH0 SWAP1 DUP2 MSTORE PUSH1 0x13 PUSH1 0x20 MSTORE PUSH1 0x40 SWAP1 KECCAK256 DUP1 SLOAD DUP3 SWAP1 DUP2 LT PUSH2 0x212B JUMPI PUSH2 0x212B PUSH2 0x6B0A JUMP JUMPDEST SWAP1 PUSH0 MSTORE PUSH1 0x20 PUSH0 KECCAK256 ADD PUSH0 SWAP1 SLOAD SWAP1 PUSH2 0x100 EXP SWAP1 DIV PUSH1 0x1 PUSH1 0x1 PUSH1 0xA0 SHL SUB AND DUP4 DUP4 DUP2 MLOAD DUP2 LT PUSH2 0x2158 JUMPI PUSH2 0x2158 PUSH2 0x6B0A JUMP JUMPDEST PUSH1 0x1 PUSH1 0x1 PUSH1 0xA0 SHL SUB SWAP1 SWAP3 AND PUSH1 0x20 SWAP3 DUP4 MUL SWAP2 SWAP1 SWAP2 ADD SWAP1 SWAP2 ADD MSTORE DUP2 PUSH2 0x217A DUP2 PUSH2 0x6B4B JUMP JUMPDEST SWAP3 POP POP PUSH1 0x1 ADD PUSH2 0x20FA JUMP JUMPDEST POP SWAP1 SWAP8 SWAP7 POP POP POP POP POP POP POP JUMP JUMPDEST PUSH1 0x18 SLOAD PUSH1 0x1 PUSH1 0x1 PUSH1 0xA0 SHL SUB AND CALLER EQ PUSH2 0x21BC JUMPI PUSH1 0x40 MLOAD PUSH3 0x461BCD PUSH1 0xE5 SHL DUP2 MSTORE PUSH1 0x4 ADD PUSH2 0x6D2 SWAP1 PUSH2 0x6A00 JUMP JUMPDEST PUSH1 0x11 SLOAD PUSH1 0xFF AND ISZERO PUSH2 0x220D JUMPI PUSH1 0x40 MLOAD PUSH3 0x461BCD PUSH1 0xE5 SHL DUP2 MSTORE PUSH1 0x20 PUSH1 0x4 DUP3 ADD MSTORE PUSH1 0x1B PUSH1 0x24 DUP3 ADD MSTORE PUSH27 0x42617463682070726F63657373696E672069732072756E6E696E67 PUSH1 0x28 SHL PUSH1 0x44 DUP3 ADD MSTORE PUSH1 0x64 ADD PUSH2 0x6D2 JUMP JUMPDEST PUSH1 0x11 DUP1 SLOAD SWAP2 ISZERO ISZERO PUSH2 0x100 MUL PUSH2 0xFF00 NOT SWAP1 SWAP3 AND SWAP2 SWAP1 SWAP2 OR SWAP1 SSTORE JUMP JUMPDEST CALLER ORIGIN EQ PUSH2 0x2246 JUMPI PUSH1 0x40 MLOAD PUSH3 0x461BCD PUSH1 0xE5 SHL DUP2 MSTORE PUSH1 0x4 ADD PUSH2 0x6D2 SWAP1 PUSH2 0x6A9B JUMP JUMPDEST PUSH1 0x11 SLOAD PUSH2 0x100 SWAP1 DIV PUSH1 0xFF AND ISZERO PUSH2 0x226E JUMPI PUSH1 0x40 MLOAD PUSH3 0x461BCD PUSH1 0xE5 SHL DUP2 MSTORE PUSH1 0x4 ADD PUSH2 0x6D2 SWAP1 PUSH2 0x6B63 JUMP JUMPDEST PUSH1 0x1 PUSH1 0x1 PUSH1 0xA0 SHL SUB DUP3 DUP2 AND PUSH0 SWAP1 DUP2 MSTORE PUSH1 0x12 PUSH1 0x20 MSTORE PUSH1 0x40 SWAP1 KECCAK256 SLOAD AND PUSH2 0x232E JUMPI PUSH1 0x1 PUSH1 0x1 PUSH1 0xA0 SHL SUB DUP3 DUP2 AND PUSH0 SWAP1 DUP2 MSTORE PUSH1 0x4 PUSH1 0x20 MSTORE PUSH1 0x40 SWAP1 KECCAK256 SLOAD AND PUSH2 0x22C2 JUMPI PUSH1 0x40 MLOAD PUSH3 0x461BCD PUSH1 0xE5 SHL DUP2 MSTORE PUSH1 0x4 ADD PUSH2 0x6D2 SWAP1 PUSH2 0x6D04 JUMP JUMPDEST PUSH1 0x1 PUSH1 0x1 PUSH1 0xA0 SHL SUB DUP3 AND PUSH0 SWAP1 DUP2 MSTORE PUSH1 0x5 PUSH1 0x20 MSTORE PUSH1 0x40 SWAP1 KECCAK256 SLOAD TIMESTAMP GT ISZERO PUSH2 0x2329 JUMPI PUSH1 0x40 MLOAD PUSH3 0x461BCD PUSH1 0xE5 SHL DUP2 MSTORE PUSH1 0x20 PUSH1 0x4 DUP3 ADD DUP2 SWAP1 MSTORE PUSH1 0x24 DUP3 ADD MSTORE PUSH32 0x4D656D6265727368697020657870697265642C2063616E6E6F742072656E6577 PUSH1 0x44 DUP3 ADD MSTORE PUSH1 0x64 ADD PUSH2 0x6D2 JUMP JUMPDEST PUSH2 0x238C JUMP JUMPDEST PUSH1 0x1 PUSH1 0x1 PUSH1 0xA0 SHL SUB DUP3 DUP2 AND PUSH0 SWAP1 DUP2 MSTORE PUSH1 0x4 PUSH1 0x20 MSTORE PUSH1 0x40 SWAP1 KECCAK256 SLOAD AND ISZERO PUSH2 0x238C JUMPI PUSH1 0x40 MLOAD PUSH3 0x461BCD PUSH1 0xE5 SHL DUP2 MSTORE PUSH1 0x20 PUSH1 0x4 DUP3 ADD MSTORE PUSH1 0x14 PUSH1 0x24 DUP3 ADD MSTORE PUSH20 0x557365722077726F6E6720737472756374757265 PUSH1 0x60 SHL PUSH1 0x44 DUP3 ADD MSTORE PUSH1 0x64 ADD PUSH2 0x6D2 JUMP JUMPDEST PUSH1 0x17 SLOAD PUSH2 0x23A7 SWAP1 PUSH1 0x1 PUSH1 0x1 PUSH1 0xA0 SHL SUB AND DUP3 PUSH4 0x7270E00 PUSH2 0x3EBE JUMP JUMPDEST PUSH1 0x1 PUSH1 0x1 PUSH1 0xA0 SHL SUB DUP3 AND PUSH0 SWAP1 DUP2 MSTORE PUSH1 0x5 PUSH1 0x20 MSTORE PUSH1 0x40 DUP2 KECCAK256 DUP1 SLOAD PUSH4 0x1E13380 SWAP3 SWAP1 PUSH2 0x23D2 SWAP1 DUP5 SWAP1 PUSH2 0x6AE4 JUMP JUMPDEST SWAP1 SWAP2 SSTORE POP PUSH2 0x23E4 SWAP1 POP DUP3 PUSH1 0x64 DUP4 PUSH2 0x40DA JUMP JUMPDEST PUSH1 0x1B SLOAD PUSH1 0x16 SLOAD PUSH1 0x1 PUSH1 0x1 PUSH1 0xA0 SHL SUB SWAP2 DUP3 AND SWAP2 PUSH4 0xE115DC7F SWAP2 AND DUP4 PUSH1 0x64 PUSH2 0x2411 PUSH3 0xF4240 PUSH4 0x7270E00 PUSH2 0x6CAE JUMP JUMPDEST PUSH2 0x241B SWAP2 SWAP1 PUSH2 0x6AF7 JUMP JUMPDEST PUSH1 0x1 PUSH1 0x2 PUSH1 0x40 MLOAD DUP7 PUSH4 0xFFFFFFFF AND PUSH1 0xE0 SHL DUP2 MSTORE PUSH1 0x4 ADD PUSH2 0x243F SWAP6 SWAP5 SWAP4 SWAP3 SWAP2 SWAP1 PUSH2 0x6CD1 JUMP JUMPDEST PUSH0 PUSH1 0x40 MLOAD DUP1 DUP4 SUB DUP2 PUSH0 DUP8 DUP1 EXTCODESIZE ISZERO DUP1 ISZERO PUSH2 0x2456 JUMPI PUSH0 DUP1 REVERT JUMPDEST POP GAS CALL ISZERO DUP1 ISZERO PUSH2 0x185D JUMPI RETURNDATASIZE PUSH0 DUP1 RETURNDATACOPY RETURNDATASIZE PUSH0 REVERT JUMPDEST PUSH1 0x18 SLOAD PUSH1 0x1 PUSH1 0x1 PUSH1 0xA0 SHL SUB AND CALLER EQ PUSH2 0x2492 JUMPI PUSH1 0x40 MLOAD PUSH3 0x461BCD PUSH1 0xE5 SHL DUP2 MSTORE PUSH1 0x4 ADD PUSH2 0x6D2 SWAP1 PUSH2 0x6A00 JUMP JUMPDEST PUSH1 0x3 SLOAD DUP3 LT PUSH2 0x24B3 JUMPI PUSH1 0x40 MLOAD PUSH3 0x461BCD PUSH1 0xE5 SHL DUP2 MSTORE PUSH1 0x4 ADD PUSH2 0x6D2 SWAP1 PUSH2 0x6B1E JUMP JUMPDEST PUSH2 0x24BE PUSH1 0x2 PUSH0 PUSH2 0x62DF JUMP JUMPDEST PUSH1 0x3 SLOAD PUSH0 SWAP1 PUSH2 0x24CD DUP4 DUP6 PUSH2 0x6AE4 JUMP JUMPDEST GT PUSH2 0x24E1 JUMPI PUSH2 0x24DC DUP3 DUP5 PUSH2 0x6AE4 JUMP JUMPDEST PUSH2 0x24E5 JUMP JUMPDEST PUSH1 0x3 SLOAD JUMPDEST SWAP1 POP DUP3 JUMPDEST DUP2 DUP2 LT ISZERO PUSH2 0x2606 JUMPI PUSH0 PUSH1 0x3 DUP3 DUP2 SLOAD DUP2 LT PUSH2 0x2505 JUMPI PUSH2 0x2505 PUSH2 0x6B0A JUMP JUMPDEST PUSH0 SWAP2 DUP3 MSTORE PUSH1 0x20 DUP1 DUP4 KECCAK256 SWAP1 SWAP2 ADD SLOAD PUSH1 0x1 PUSH1 0x1 PUSH1 0xA0 SHL SUB AND DUP1 DUP4 MSTORE PUSH1 0x7 SWAP1 SWAP2 MSTORE PUSH1 0x40 DUP3 KECCAK256 SLOAD SWAP1 SWAP3 POP PUSH1 0x1 GT ISZERO DUP1 PUSH2 0x2553 JUMPI POP PUSH1 0x1 PUSH1 0x1 PUSH1 0xA0 SHL SUB DUP3 AND PUSH0 SWAP1 DUP2 MSTORE PUSH1 0xA PUSH1 0x20 DUP2 SWAP1 MSTORE PUSH1 0x40 SWAP1 SWAP2 KECCAK256 SLOAD LT ISZERO JUMPDEST DUP1 PUSH2 0x2576 JUMPI POP PUSH1 0x1 PUSH1 0x1 PUSH1 0xA0 SHL SUB DUP3 AND PUSH0 SWAP1 DUP2 MSTORE PUSH1 0x8 PUSH1 0x20 MSTORE PUSH1 0x40 SWAP1 KECCAK256 SLOAD PUSH1 0x64 GT ISZERO JUMPDEST ISZERO PUSH2 0x257F JUMPI POP PUSH1 0x1 JUMPDEST DUP1 PUSH2 0x25C2 JUMPI PUSH1 0x1 PUSH1 0x1 PUSH1 0xA0 SHL SUB DUP3 AND PUSH0 SWAP1 DUP2 MSTORE PUSH1 0x4 PUSH1 0x20 MSTORE PUSH1 0x40 DUP2 KECCAK256 PUSH1 0x2 ADD DUP1 SLOAD PUSH2 0xFF00 NOT AND PUSH2 0x100 DUP4 MUL OR SWAP1 SSTORE POP PUSH2 0x25BD PUSH1 0x4 PUSH1 0x5 PUSH1 0x2 DUP6 PUSH2 0x5077 JUMP JUMPDEST PUSH2 0x25CF JUMP JUMPDEST PUSH2 0x25CF PUSH1 0x4 PUSH1 0xC DUP5 PUSH2 0x3E3D JUMP JUMPDEST POP PUSH1 0x1 PUSH1 0x1 PUSH1 0xA0 SHL SUB AND PUSH0 SWAP1 DUP2 MSTORE PUSH1 0x7 PUSH1 0x20 SWAP1 DUP2 MSTORE PUSH1 0x40 DUP1 DUP4 KECCAK256 DUP4 SWAP1 SSTORE PUSH1 0xA DUP3 MSTORE DUP1 DUP4 KECCAK256 DUP4 SWAP1 SSTORE PUSH1 0x8 SWAP1 SWAP2 MSTORE DUP2 KECCAK256 SSTORE PUSH1 0x1 ADD PUSH2 0x24E9 JUMP JUMPDEST POP PUSH0 JUMPDEST PUSH1 0x21 SLOAD DUP2 LT ISZERO PUSH2 0x2653 JUMPI PUSH1 0x20 PUSH0 PUSH1 0x21 DUP4 DUP2 SLOAD DUP2 LT PUSH2 0x2629 JUMPI PUSH2 0x2629 PUSH2 0x6B0A JUMP JUMPDEST PUSH0 SWAP2 DUP3 MSTORE PUSH1 0x20 DUP1 DUP4 KECCAK256 SWAP1 SWAP2 ADD SLOAD DUP4 MSTORE DUP3 ADD SWAP3 SWAP1 SWAP3 MSTORE PUSH1 0x40 ADD SWAP1 KECCAK256 DUP1 SLOAD PUSH1 0xFF NOT AND SWAP1 SSTORE PUSH1 0x1 ADD PUSH2 0x2609 JUMP JUMPDEST POP PUSH2 0x7CD PUSH1 0x21 PUSH0 PUSH2 0x62DF JUMP JUMPDEST PUSH2 0x26A5 PUSH1 0x40 MLOAD DUP1 PUSH2 0x120 ADD PUSH1 0x40 MSTORE DUP1 PUSH0 DUP2 MSTORE PUSH1 0x20 ADD PUSH0 DUP2 MSTORE PUSH1 0x20 ADD PUSH0 DUP2 MSTORE PUSH1 0x20 ADD PUSH0 DUP2 MSTORE PUSH1 0x20 ADD PUSH0 DUP2 MSTORE PUSH1 0x20 ADD PUSH0 DUP2 MSTORE PUSH1 0x20 ADD PUSH0 DUP2 MSTORE PUSH1 0x20 ADD PUSH0 DUP2 MSTORE PUSH1 0x20 ADD PUSH0 DUP2 MSTORE POP SWAP1 JUMP JUMPDEST PUSH1 0x1B SLOAD PUSH1 0x40 MLOAD PUSH4 0x316F085F PUSH1 0xE0 SHL DUP2 MSTORE PUSH1 0x1 PUSH1 0x1 PUSH1 0xA0 SHL SUB SWAP1 SWAP2 AND SWAP1 PUSH4 0x316F085F SWAP1 PUSH2 0x26D9 SWAP1 DUP8 SWAP1 DUP8 SWAP1 DUP8 SWAP1 PUSH1 0x4 ADD PUSH2 0x6D45 JUMP JUMPDEST PUSH2 0x120 PUSH1 0x40 MLOAD DUP1 DUP4 SUB DUP2 DUP7 GAS STATICCALL ISZERO DUP1 ISZERO PUSH2 0x26F5 JUMPI RETURNDATASIZE PUSH0 DUP1 RETURNDATACOPY RETURNDATASIZE PUSH0 REVERT JUMPDEST POP POP POP POP PUSH1 0x40 MLOAD RETURNDATASIZE PUSH1 0x1F NOT PUSH1 0x1F DUP3 ADD AND DUP3 ADD DUP1 PUSH1 0x40 MSTORE POP DUP2 ADD SWAP1 PUSH2 0x2719 SWAP2 SWAP1 PUSH2 0x6D66 JUMP JUMPDEST SWAP5 SWAP4 POP POP POP POP JUMP JUMPDEST CALLER ORIGIN EQ PUSH2 0x2740 JUMPI PUSH1 0x40 MLOAD PUSH3 0x461BCD PUSH1 0xE5 SHL DUP2 MSTORE PUSH1 0x4 ADD PUSH2 0x6D2 SWAP1 PUSH2 0x6A9B JUMP JUMPDEST PUSH1 0x11 SLOAD PUSH2 0x100 SWAP1 DIV PUSH1 0xFF AND ISZERO PUSH2 0x2768 JUMPI PUSH1 0x40 MLOAD PUSH3 0x461BCD PUSH1 0xE5 SHL DUP2 MSTORE PUSH1 0x4 ADD PUSH2 0x6D2 SWAP1 PUSH2 0x6B63 JUMP JUMPDEST DUP2 PUSH2 0x2785 JUMPI PUSH1 0x40 MLOAD PUSH3 0x461BCD PUSH1 0xE5 SHL DUP2 MSTORE PUSH1 0x4 ADD PUSH2 0x6D2 SWAP1 PUSH2 0x6DDF JUMP JUMPDEST PUSH1 0x1E SLOAD PUSH1 0x40 MLOAD PUSH4 0x7D847097 PUSH1 0xE1 SHL DUP2 MSTORE PUSH1 0x4 DUP2 ADD DUP5 SWAP1 MSTORE PUSH1 0x1 PUSH1 0x1 PUSH1 0xA0 SHL SUB SWAP1 SWAP2 AND SWAP1 PUSH0 SWAP1 DUP3 SWAP1 PUSH4 0xFB08E12E SWAP1 PUSH1 0x24 ADD PUSH1 0x20 PUSH1 0x40 MLOAD DUP1 DUP4 SUB DUP2 DUP7 GAS STATICCALL ISZERO DUP1 ISZERO PUSH2 0x27D0 JUMPI RETURNDATASIZE PUSH0 DUP1 RETURNDATACOPY RETURNDATASIZE PUSH0 REVERT JUMPDEST POP POP POP POP PUSH1 0x40 MLOAD RETURNDATASIZE PUSH1 0x1F NOT PUSH1 0x1F DUP3 ADD AND DUP3 ADD DUP1 PUSH1 0x40 MSTORE POP DUP2 ADD SWAP1 PUSH2 0x27F4 SWAP2 SWAP1 PUSH2 0x6E09 JUMP JUMPDEST SWAP1 POP DUP1 PUSH0 SUB PUSH2 0x2815 JUMPI PUSH1 0x40 MLOAD PUSH3 0x461BCD PUSH1 0xE5 SHL DUP2 MSTORE PUSH1 0x4 ADD PUSH2 0x6D2 SWAP1 PUSH2 0x6E20 JUMP JUMPDEST PUSH1 0x40 MLOAD PUSH4 0xD09EF241 PUSH1 0xE0 SHL DUP2 MSTORE PUSH1 0x4 DUP2 ADD DUP3 SWAP1 MSTORE PUSH0 SWAP1 PUSH1 0x1 PUSH1 0x1 PUSH1 0xA0 SHL SUB DUP5 AND SWAP1 PUSH4 0xD09EF241 SWAP1 PUSH1 0x24 ADD PUSH0 PUSH1 0x40 MLOAD DUP1 DUP4 SUB DUP2 DUP7 GAS STATICCALL ISZERO DUP1 ISZERO PUSH2 0x2859 JUMPI RETURNDATASIZE PUSH0 DUP1 RETURNDATACOPY RETURNDATASIZE PUSH0 REVERT JUMPDEST POP POP POP POP PUSH1 0x40 MLOAD RETURNDATASIZE PUSH0 DUP3 RETURNDATACOPY PUSH1 0x1F RETURNDATASIZE SWAP1 DUP2 ADD PUSH1 0x1F NOT AND DUP3 ADD PUSH1 0x40 MSTORE PUSH2 0x2880 SWAP2 SWAP1 DUP2 ADD SWAP1 PUSH2 0x6EAF JUMP JUMPDEST PUSH2 0x160 DUP2 ADD MLOAD SWAP1 SWAP2 POP PUSH0 DUP1 DUP1 JUMPDEST DUP5 PUSH2 0x140 ADD MLOAD MLOAD DUP2 PUSH1 0xFF AND LT ISZERO PUSH2 0x296C JUMPI PUSH0 DUP6 PUSH2 0x140 ADD MLOAD DUP3 PUSH1 0xFF AND DUP2 MLOAD DUP2 LT PUSH2 0x28B9 JUMPI PUSH2 0x28B9 PUSH2 0x6B0A JUMP JUMPDEST PUSH1 0x20 MUL PUSH1 0x20 ADD ADD MLOAD GT PUSH2 0x28FC JUMPI PUSH1 0x40 MLOAD PUSH3 0x461BCD PUSH1 0xE5 SHL DUP2 MSTORE PUSH1 0x20 PUSH1 0x4 DUP3 ADD MSTORE PUSH1 0xB PUSH1 0x24 DUP3 ADD MSTORE PUSH11 0x1C995DD85C990819985A5B PUSH1 0xAA SHL PUSH1 0x44 DUP3 ADD MSTORE PUSH1 0x64 ADD PUSH2 0x6D2 JUMP JUMPDEST DUP5 PUSH2 0x140 ADD MLOAD DUP2 PUSH1 0xFF AND DUP2 MLOAD DUP2 LT PUSH2 0x2916 JUMPI PUSH2 0x2916 PUSH2 0x6B0A JUMP JUMPDEST PUSH1 0x20 MUL PUSH1 0x20 ADD ADD MLOAD DUP3 PUSH2 0x2929 SWAP2 SWAP1 PUSH2 0x6AE4 JUMP JUMPDEST SWAP2 POP DUP5 PUSH2 0x100 ADD MLOAD DUP2 PUSH1 0xFF AND DUP2 MLOAD DUP2 LT PUSH2 0x2945 JUMPI PUSH2 0x2945 PUSH2 0x6B0A JUMP JUMPDEST PUSH1 0x20 MUL PUSH1 0x20 ADD ADD MLOAD DUP4 PUSH2 0x2958 SWAP2 SWAP1 PUSH2 0x6AE4 JUMP JUMPDEST SWAP3 POP DUP1 PUSH2 0x2964 DUP2 PUSH2 0x70C4 JUMP JUMPDEST SWAP2 POP POP PUSH2 0x288D JUMP JUMPDEST POP PUSH1 0x20 DUP5 ADD MLOAD PUSH1 0x40 DUP6 ADD MLOAD PUSH1 0x1 PUSH1 0x1 PUSH1 0xA0 SHL SUB DUP1 DUP4 AND SWAP2 AND EQ DUP3 PUSH2 0x2993 PUSH3 0xF4240 DUP8 PUSH2 0x6CAE JUMP JUMPDEST GT PUSH2 0x29D3 JUMPI PUSH1 0x40 MLOAD PUSH3 0x461BCD PUSH1 0xE5 SHL DUP2 MSTORE PUSH1 0x20 PUSH1 0x4 DUP3 ADD MSTORE PUSH1 0x10 PUSH1 0x24 DUP3 ADD MSTORE PUSH16 0x2BB937B7339031B7B6B6B4B9B9B4B7B7 PUSH1 0x81 SHL PUSH1 0x44 DUP3 ADD MSTORE PUSH1 0x64 ADD PUSH2 0x6D2 JUMP JUMPDEST PUSH1 0x1 PUSH1 0x1 PUSH1 0xA0 SHL SUB DUP3 AND PUSH2 0x29F9 JUMPI PUSH1 0x40 MLOAD PUSH3 0x461BCD PUSH1 0xE5 SHL DUP2 MSTORE PUSH1 0x4 ADD PUSH2 0x6D2 SWAP1 PUSH2 0x70E2 JUMP JUMPDEST PUSH0 DUP6 GT PUSH2 0x2A18 JUMPI PUSH1 0x40 MLOAD PUSH3 0x461BCD PUSH1 0xE5 SHL DUP2 MSTORE PUSH1 0x4 ADD PUSH2 0x6D2 SWAP1 PUSH2 0x70E2 JUMP JUMPDEST CALLER DUP2 ISZERO PUSH2 0x2AB9 JUMPI PUSH1 0x1 PUSH1 0x1 PUSH1 0xA0 SHL SUB DUP2 DUP2 AND PUSH0 SWAP1 DUP2 MSTORE PUSH1 0x4 PUSH1 0x20 MSTORE PUSH1 0x40 SWAP1 KECCAK256 SLOAD AND ISZERO ISZERO DUP1 PUSH2 0x2A5E JUMPI POP PUSH1 0x1 PUSH1 0x1 PUSH1 0xA0 SHL SUB DUP2 DUP2 AND PUSH0 SWAP1 DUP2 MSTORE PUSH1 0x12 PUSH1 0x20 MSTORE PUSH1 0x40 SWAP1 KECCAK256 SLOAD AND ISZERO ISZERO JUMPDEST PUSH2 0x2AB9 JUMPI PUSH1 0x40 MLOAD PUSH3 0x461BCD PUSH1 0xE5 SHL DUP2 MSTORE PUSH1 0x20 PUSH1 0x4 DUP3 ADD MSTORE PUSH1 0x26 PUSH1 0x24 DUP3 ADD MSTORE PUSH32 0x5573657220616C72656164792065786973747320696E20564950206F72205072 PUSH1 0x44 DUP3 ADD MSTORE PUSH6 0x37B6B7BA32B9 PUSH1 0xD1 SHL PUSH1 0x64 DUP3 ADD MSTORE PUSH1 0x84 ADD PUSH2 0x6D2 JUMP JUMPDEST PUSH1 0x1 PUSH1 0x1 PUSH1 0xA0 SHL SUB DUP2 DUP2 AND PUSH0 SWAP1 DUP2 MSTORE PUSH1 0x4 PUSH1 0x20 MSTORE PUSH1 0x40 SWAP1 KECCAK256 SLOAD AND PUSH2 0x2B3C JUMPI POP PUSH1 0x1 PUSH1 0x1 PUSH1 0xA0 SHL SUB DUP1 DUP4 AND PUSH0 SWAP1 DUP2 MSTORE PUSH1 0x4 PUSH1 0x20 MSTORE PUSH1 0x40 SWAP1 KECCAK256 SLOAD DUP4 SWAP2 AND PUSH2 0x2B37 JUMPI PUSH1 0x40 MLOAD PUSH3 0x461BCD PUSH1 0xE5 SHL DUP2 MSTORE PUSH1 0x20 PUSH1 0x4 DUP3 ADD MSTORE PUSH1 0x14 PUSH1 0x24 DUP3 ADD MSTORE PUSH20 0x506172656E74206973206E6F7420657869737473 PUSH1 0x60 SHL PUSH1 0x44 DUP3 ADD MSTORE PUSH1 0x64 ADD PUSH2 0x6D2 JUMP JUMPDEST PUSH2 0x2C12 JUMP JUMPDEST PUSH1 0x1 PUSH1 0x1 PUSH1 0x1 PUSH1 0xA0 SHL SUB DUP3 AND PUSH0 SWAP1 DUP2 MSTORE PUSH1 0x4 PUSH1 0x20 MSTORE PUSH1 0x40 SWAP1 KECCAK256 PUSH1 0x2 ADD SLOAD PUSH2 0x100 SWAP1 DIV PUSH1 0xFF AND PUSH1 0x3 DUP2 GT ISZERO PUSH2 0x2B72 JUMPI PUSH2 0x2B72 PUSH2 0x664F JUMP JUMPDEST EQ PUSH2 0x2BB4 JUMPI PUSH1 0x40 MLOAD PUSH3 0x461BCD PUSH1 0xE5 SHL DUP2 MSTORE PUSH1 0x20 PUSH1 0x4 DUP3 ADD MSTORE PUSH1 0x12 PUSH1 0x24 DUP3 ADD MSTORE PUSH18 0x55736572206973206E6F7420616374697665 PUSH1 0x70 SHL PUSH1 0x44 DUP3 ADD MSTORE PUSH1 0x64 ADD PUSH2 0x6D2 JUMP JUMPDEST PUSH1 0x1 PUSH1 0x1 PUSH1 0xA0 SHL SUB DUP2 DUP2 AND PUSH0 SWAP1 DUP2 MSTORE PUSH1 0x4 PUSH1 0x20 MSTORE PUSH1 0x40 SWAP1 KECCAK256 SLOAD DUP2 AND SWAP1 DUP5 AND EQ PUSH2 0x2C12 JUMPI PUSH1 0x40 MLOAD PUSH3 0x461BCD PUSH1 0xE5 SHL DUP2 MSTORE PUSH1 0x20 PUSH1 0x4 DUP3 ADD MSTORE PUSH1 0x10 PUSH1 0x24 DUP3 ADD MSTORE PUSH16 0xA0C2E4CADCE840DCDEE840DAC2E8C6D PUSH1 0x83 SHL PUSH1 0x44 DUP3 ADD MSTORE PUSH1 0x64 ADD PUSH2 0x6D2 JUMP JUMPDEST PUSH1 0x17 SLOAD PUSH2 0x2C29 SWAP1 PUSH1 0x1 PUSH1 0x1 PUSH1 0xA0 SHL SUB AND DUP12 DUP9 PUSH2 0x3EBE JUMP JUMPDEST PUSH1 0x40 MLOAD PUSH4 0x7C4A0CB7 PUSH1 0xE1 SHL DUP2 MSTORE PUSH1 0x4 DUP2 ADD DUP13 SWAP1 MSTORE PUSH1 0x1 PUSH1 0x1 PUSH1 0xA0 SHL SUB DUP11 AND SWAP1 PUSH4 0xF894196E SWAP1 PUSH1 0x24 ADD PUSH0 PUSH1 0x40 MLOAD DUP1 DUP4 SUB DUP2 PUSH0 DUP8 DUP1 EXTCODESIZE ISZERO DUP1 ISZERO PUSH2 0x2C68 JUMPI PUSH0 DUP1 REVERT JUMPDEST POP GAS CALL ISZERO DUP1 ISZERO PUSH2 0x2C7A JUMPI RETURNDATASIZE PUSH0 DUP1 RETURNDATACOPY RETURNDATASIZE PUSH0 REVERT JUMPDEST POP POP POP POP PUSH1 0x40 MLOAD DUP1 PUSH1 0x80 ADD PUSH1 0x40 MSTORE DUP1 DUP6 DUP2 MSTORE PUSH1 0x20 ADD DUP7 DUP2 MSTORE PUSH1 0x20 ADD DUP3 PUSH1 0x1 PUSH1 0x1 PUSH1 0xA0 SHL SUB AND DUP2 MSTORE PUSH1 0x20 ADD DUP12 DUP2 MSTORE POP PUSH1 0x22 PUSH0 DUP14 DUP2 MSTORE PUSH1 0x20 ADD SWAP1 DUP2 MSTORE PUSH1 0x20 ADD PUSH0 KECCAK256 PUSH0 DUP3 ADD MLOAD DUP2 PUSH0 ADD SSTORE PUSH1 0x20 DUP3 ADD MLOAD DUP2 PUSH1 0x1 ADD SSTORE PUSH1 0x40 DUP3 ADD MLOAD DUP2 PUSH1 0x2 ADD PUSH0 PUSH2 0x100 EXP DUP2 SLOAD DUP2 PUSH1 0x1 PUSH1 0x1 PUSH1 0xA0 SHL SUB MUL NOT AND SWAP1 DUP4 PUSH1 0x1 PUSH1 0x1 PUSH1 0xA0 SHL SUB AND MUL OR SWAP1 SSTORE POP PUSH1 0x60 DUP3 ADD MLOAD DUP2 PUSH1 0x3 ADD SSTORE SWAP1 POP POP POP POP POP POP POP POP POP POP POP POP POP JUMP JUMPDEST PUSH1 0x18 SLOAD PUSH1 0x1 PUSH1 0x1 PUSH1 0xA0 SHL SUB AND CALLER EQ PUSH2 0x2D3B JUMPI PUSH1 0x40 MLOAD PUSH3 0x461BCD PUSH1 0xE5 SHL DUP2 MSTORE PUSH1 0x4 ADD PUSH2 0x6D2 SWAP1 PUSH2 0x6A00 JUMP JUMPDEST PUSH1 0x11 SLOAD PUSH2 0x100 SWAP1 DIV PUSH1 0xFF AND ISZERO PUSH2 0x2D63 JUMPI PUSH1 0x40 MLOAD PUSH3 0x461BCD PUSH1 0xE5 SHL DUP2 MSTORE PUSH1 0x4 ADD PUSH2 0x6D2 SWAP1 PUSH2 0x6B63 JUMP JUMPDEST PUSH1 0x11 SLOAD PUSH1 0xFF AND ISZERO PUSH2 0x2DAB JUMPI PUSH1 0x40 MLOAD PUSH3 0x461BCD PUSH1 0xE5 SHL DUP2 MSTORE PUSH1 0x20 PUSH1 0x4 DUP3 ADD MSTORE PUSH1 0x12 PUSH1 0x24 DUP3 ADD MSTORE PUSH18 0x416C72656164792070726F63657373696E67 PUSH1 0x70 SHL PUSH1 0x44 DUP3 ADD MSTORE PUSH1 0x64 ADD PUSH2 0x6D2 JUMP JUMPDEST PUSH1 0x11 DUP1 SLOAD PUSH1 0xFF NOT AND PUSH1 0x1 OR SWAP1 SSTORE PUSH2 0x2DC0 PUSH2 0x528C JUMP JUMPDEST PUSH1 0x1E PUSH0 JUMPDEST PUSH1 0xE SLOAD DUP2 LT ISZERO PUSH2 0x2DEF JUMPI PUSH0 PUSH2 0x2DD9 DUP3 DUP5 PUSH2 0xC15 JUMP JUMPDEST SWAP1 POP DUP1 PUSH0 SUB PUSH2 0x2DE8 JUMPI POP PUSH2 0x2DEF JUMP JUMPDEST SWAP1 POP PUSH2 0x2DC4 JUMP JUMPDEST PUSH1 0x11 DUP1 SLOAD PUSH1 0xFF NOT AND SWAP1 SSTORE PUSH2 0x1A55 PUSH2 0x4797 JUMP JUMPDEST PUSH2 0x2E09 PUSH2 0x6290 JUMP JUMPDEST PUSH2 0x2E11 PUSH2 0x62B5 JUMP JUMPDEST CALLER ORIGIN EQ PUSH2 0x2E30 JUMPI PUSH1 0x40 MLOAD PUSH3 0x461BCD PUSH1 0xE5 SHL DUP2 MSTORE PUSH1 0x4 ADD PUSH2 0x6D2 SWAP1 PUSH2 0x6A9B JUMP JUMPDEST CALLER PUSH0 DUP2 DUP2 MSTORE PUSH1 0x4 PUSH1 0x20 MSTORE PUSH1 0x40 SWAP1 KECCAK256 SLOAD PUSH1 0x1 PUSH1 0x1 PUSH1 0xA0 SHL SUB AND PUSH2 0x2E64 JUMPI PUSH1 0x40 MLOAD PUSH3 0x461BCD PUSH1 0xE5 SHL DUP2 MSTORE PUSH1 0x4 ADD PUSH2 0x6D2 SWAP1 PUSH2 0x6D04 JUMP JUMPDEST PUSH1 0x1 PUSH1 0x1 PUSH1 0xA0 SHL SUB DUP1 DUP3 AND PUSH0 SWAP1 DUP2 MSTORE PUSH1 0x4 PUSH1 0x20 SWAP1 DUP2 MSTORE PUSH1 0x40 DUP1 DUP4 KECCAK256 PUSH1 0x5 DUP4 MSTORE SWAP3 DUP2 SWAP1 KECCAK256 DUP2 MLOAD PUSH1 0x80 DUP2 ADD DUP4 MSTORE DUP5 SLOAD SWAP1 SWAP6 AND DUP6 MSTORE PUSH1 0x1 DUP5 ADD DUP1 SLOAD DUP4 MLOAD DUP2 DUP7 MUL DUP2 ADD DUP7 ADD SWAP1 SWAP5 MSTORE DUP1 DUP5 MSTORE SWAP5 SWAP6 SWAP2 SWAP5 SWAP2 SWAP4 DUP7 SWAP4 DUP6 DUP3 ADD SWAP4 SWAP1 SWAP3 SWAP2 DUP4 ADD DUP3 DUP3 DUP1 ISZERO PUSH2 0x2EF1 JUMPI PUSH1 0x20 MUL DUP3 ADD SWAP2 SWAP1 PUSH0 MSTORE PUSH1 0x20 PUSH0 KECCAK256 SWAP1 JUMPDEST DUP2 SLOAD PUSH1 0x1 PUSH1 0x1 PUSH1 0xA0 SHL SUB AND DUP2 MSTORE PUSH1 0x1 SWAP1 SWAP2 ADD SWAP1 PUSH1 0x20 ADD DUP1 DUP4 GT PUSH2 0x2ED3 JUMPI JUMPDEST POP POP POP SWAP2 DUP4 MSTORE POP POP PUSH1 0x2 DUP3 ADD SLOAD PUSH1 0x20 SWAP1 SWAP2 ADD SWAP1 PUSH1 0xFF AND PUSH1 0x7 DUP2 GT ISZERO PUSH2 0x2F18 JUMPI PUSH2 0x2F18 PUSH2 0x664F JUMP JUMPDEST PUSH1 0x7 DUP2 GT ISZERO PUSH2 0x2F29 JUMPI PUSH2 0x2F29 PUSH2 0x664F JUMP JUMPDEST DUP2 MSTORE PUSH1 0x20 ADD PUSH1 0x2 DUP3 ADD PUSH1 0x1 SWAP1 SLOAD SWAP1 PUSH2 0x100 EXP SWAP1 DIV PUSH1 0xFF AND PUSH1 0x3 DUP2 GT ISZERO PUSH2 0x2F51 JUMPI PUSH2 0x2F51 PUSH2 0x664F JUMP JUMPDEST PUSH1 0x3 DUP2 GT ISZERO PUSH2 0x2F62 JUMPI PUSH2 0x2F62 PUSH2 0x664F JUMP JUMPDEST SWAP1 MSTORE POP PUSH1 0x40 DUP1 MLOAD PUSH1 0xA0 DUP2 ADD DUP3 MSTORE DUP4 SLOAD DUP2 MSTORE PUSH1 0x1 DUP5 ADD SLOAD PUSH1 0x20 DUP3 ADD MSTORE PUSH1 0x2 DUP5 ADD SLOAD SWAP2 DUP2 ADD SWAP2 SWAP1 SWAP2 MSTORE PUSH1 0x3 DUP4 ADD SLOAD PUSH1 0x60 DUP3 ADD MSTORE PUSH1 0x4 SWAP1 SWAP3 ADD SLOAD PUSH1 0x80 DUP4 ADD MSTORE SWAP5 POP SWAP3 POP POP POP SWAP1 SWAP2 JUMP JUMPDEST PUSH1 0x1E SLOAD PUSH1 0x1 PUSH1 0x1 PUSH1 0xA0 SHL SUB AND CALLER DUP2 EQ PUSH2 0x3037 JUMPI PUSH1 0x40 MLOAD PUSH3 0x461BCD PUSH1 0xE5 SHL DUP2 MSTORE PUSH1 0x20 PUSH1 0x4 DUP3 ADD MSTORE PUSH1 0x45 PUSH1 0x24 DUP3 ADD MSTORE PUSH32 0x7B2266726F6D223A202254726565436F6D2E736F6C222C22636F6465223A2035 PUSH1 0x44 DUP3 ADD MSTORE PUSH32 0x352C20226D657373616765223A2022596F7520617265206E6F7420616C6C6F77 PUSH1 0x64 DUP3 ADD MSTORE PUSH5 0x65642E227D PUSH1 0xD8 SHL PUSH1 0x84 DUP3 ADD MSTORE PUSH1 0xA4 ADD PUSH2 0x6D2 JUMP JUMPDEST PUSH1 0x11 SLOAD PUSH2 0x100 SWAP1 DIV PUSH1 0xFF AND ISZERO PUSH2 0x305F JUMPI PUSH1 0x40 MLOAD PUSH3 0x461BCD PUSH1 0xE5 SHL DUP2 MSTORE PUSH1 0x4 ADD PUSH2 0x6D2 SWAP1 PUSH2 0x6B63 JUMP JUMPDEST DUP2 PUSH2 0x307C JUMPI PUSH1 0x40 MLOAD PUSH3 0x461BCD PUSH1 0xE5 SHL DUP2 MSTORE PUSH1 0x4 ADD PUSH2 0x6D2 SWAP1 PUSH2 0x6DDF JUMP JUMPDEST PUSH0 DUP3 DUP2 MSTORE PUSH1 0x22 PUSH1 0x20 MSTORE PUSH1 0x40 SWAP1 KECCAK256 SLOAD DUP1 PUSH2 0x30A7 JUMPI PUSH1 0x40 MLOAD PUSH3 0x461BCD PUSH1 0xE5 SHL DUP2 MSTORE PUSH1 0x4 ADD PUSH2 0x6D2 SWAP1 PUSH2 0x6E20 JUMP JUMPDEST PUSH0 DUP4 DUP2 MSTORE PUSH1 0x22 PUSH1 0x20 MSTORE PUSH1 0x40 SWAP1 KECCAK256 PUSH1 0x3 DUP2 ADD SLOAD PUSH1 0x1 DUP3 ADD SLOAD PUSH1 0x2 SWAP1 SWAP3 ADD SLOAD SWAP1 SWAP2 SWAP1 PUSH1 0x1 PUSH1 0x1 PUSH1 0xA0 SHL SUB AND DUP2 ISZERO PUSH2 0x322A JUMPI PUSH1 0x2 PUSH1 0x1 PUSH1 0x1 PUSH1 0xA0 SHL SUB DUP3 AND PUSH0 SWAP1 DUP2 MSTORE PUSH1 0x4 PUSH1 0x20 MSTORE PUSH1 0x40 SWAP1 KECCAK256 PUSH1 0x2 ADD SLOAD PUSH2 0x100 SWAP1 DIV PUSH1 0xFF AND PUSH1 0x3 DUP2 GT ISZERO PUSH2 0x310C JUMPI PUSH2 0x310C PUSH2 0x664F JUMP JUMPDEST EQ PUSH2 0x319A JUMPI PUSH1 0x1B SLOAD PUSH1 0x1 PUSH1 0x1 PUSH1 0xA0 SHL SUB AND PUSH4 0xE115DC7F DUP3 DUP6 PUSH1 0x64 PUSH2 0x3133 PUSH3 0xF4240 DUP9 PUSH2 0x6CAE JUMP JUMPDEST PUSH2 0x313E SWAP1 PUSH1 0x50 PUSH2 0x7108 JUMP JUMPDEST PUSH2 0x3148 SWAP2 SWAP1 PUSH2 0x6CAE JUMP JUMPDEST PUSH1 0x1 PUSH1 0x5 PUSH1 0x40 MLOAD DUP7 PUSH4 0xFFFFFFFF AND PUSH1 0xE0 SHL DUP2 MSTORE PUSH1 0x4 ADD PUSH2 0x316C SWAP6 SWAP5 SWAP4 SWAP3 SWAP2 SWAP1 PUSH2 0x6CD1 JUMP JUMPDEST PUSH0 PUSH1 0x40 MLOAD DUP1 DUP4 SUB DUP2 PUSH0 DUP8 DUP1 EXTCODESIZE ISZERO DUP1 ISZERO PUSH2 0x3183 JUMPI PUSH0 DUP1 REVERT JUMPDEST POP GAS CALL ISZERO DUP1 ISZERO PUSH2 0x3195 JUMPI RETURNDATASIZE PUSH0 DUP1 RETURNDATACOPY RETURNDATASIZE PUSH0 REVERT JUMPDEST POP POP POP POP JUMPDEST PUSH1 0x1B SLOAD PUSH1 0x15 SLOAD PUSH1 0x1 PUSH1 0x1 PUSH1 0xA0 SHL SUB SWAP2 DUP3 AND SWAP2 PUSH4 0xE115DC7F SWAP2 AND DUP6 PUSH1 0x64 PUSH2 0x31C3 PUSH3 0xF4240 DUP9 PUSH2 0x6CAE JUMP JUMPDEST PUSH2 0x31CE SWAP1 PUSH1 0x14 PUSH2 0x7108 JUMP JUMPDEST PUSH2 0x31D8 SWAP2 SWAP1 PUSH2 0x6CAE JUMP JUMPDEST PUSH1 0x1 PUSH1 0x5 PUSH1 0x40 MLOAD DUP7 PUSH4 0xFFFFFFFF AND PUSH1 0xE0 SHL DUP2 MSTORE PUSH1 0x4 ADD PUSH2 0x31FC SWAP6 SWAP5 SWAP4 SWAP3 SWAP2 SWAP1 PUSH2 0x6CD1 JUMP JUMPDEST PUSH0 PUSH1 0x40 MLOAD DUP1 DUP4 SUB DUP2 PUSH0 DUP8 DUP1 EXTCODESIZE ISZERO DUP1 ISZERO PUSH2 0x3213 JUMPI PUSH0 DUP1 REVERT JUMPDEST POP GAS CALL ISZERO DUP1 ISZERO PUSH2 0x3225 JUMPI RETURNDATASIZE PUSH0 DUP1 RETURNDATACOPY RETURNDATASIZE PUSH0 REVERT JUMPDEST POP POP POP POP JUMPDEST PUSH2 0x3235 DUP2 DUP6 DUP6 PUSH2 0x40DA JUMP JUMPDEST PUSH0 DUP7 DUP2 MSTORE PUSH1 0x22 PUSH1 0x20 MSTORE PUSH1 0x40 DUP1 DUP3 KECCAK256 DUP3 DUP2 SSTORE PUSH1 0x1 DUP1 DUP3 ADD DUP5 SWAP1 SSTORE PUSH1 0x2 DUP1 DUP4 ADD DUP1 SLOAD PUSH1 0x1 PUSH1 0x1 PUSH1 0xA0 SHL SUB NOT AND SWAP1 SSTORE PUSH1 0x3 SWAP1 SWAP3 ADD SWAP4 SWAP1 SWAP4 SSTORE PUSH1 0x1B SLOAD PUSH1 0x14 SLOAD SWAP3 MLOAD PUSH4 0xE115DC7F PUSH1 0xE0 SHL DUP2 MSTORE PUSH1 0x1 PUSH1 0x1 PUSH1 0xA0 SHL SUB SWAP2 DUP3 AND SWAP5 PUSH4 0xE115DC7F SWAP5 PUSH2 0x32A3 SWAP5 SWAP4 AND SWAP3 DUP10 SWAP3 DUP12 SWAP3 SWAP2 SWAP1 PUSH1 0x4 ADD PUSH2 0x6CD1 JUMP JUMPDEST PUSH0 PUSH1 0x40 MLOAD DUP1 DUP4 SUB DUP2 PUSH0 DUP8 DUP1 EXTCODESIZE ISZERO DUP1 ISZERO PUSH2 0x32BA JUMPI PUSH0 DUP1 REVERT JUMPDEST POP GAS CALL ISZERO DUP1 ISZERO PUSH2 0x32CC JUMPI RETURNDATASIZE PUSH0 DUP1 RETURNDATACOPY RETURNDATASIZE PUSH0 REVERT JUMPDEST POP POP POP POP POP POP POP POP POP POP JUMP JUMPDEST DUP1 MLOAD ISZERO PUSH2 0x3351 JUMPI PUSH1 0x1B SLOAD PUSH1 0x40 MLOAD PUSH4 0x68BD52E5 PUSH1 0xE1 SHL DUP2 MSTORE PUSH1 0x1 PUSH1 0x1 PUSH1 0xA0 SHL SUB SWAP1 SWAP2 AND SWAP1 PUSH4 0xD17AA5CA SWAP1 PUSH2 0x3311 SWAP1 DUP6 SWAP1 DUP6 SWAP1 PUSH1 0x4 ADD PUSH2 0x711F JUMP JUMPDEST PUSH1 0x20 PUSH1 0x40 MLOAD DUP1 DUP4 SUB DUP2 PUSH0 DUP8 GAS CALL ISZERO DUP1 ISZERO PUSH2 0x332D JUMPI RETURNDATASIZE PUSH0 DUP1 RETURNDATACOPY RETURNDATASIZE PUSH0 REVERT JUMPDEST POP POP POP POP PUSH1 0x40 MLOAD RETURNDATASIZE PUSH1 0x1F NOT PUSH1 0x1F DUP3 ADD AND DUP3 ADD DUP1 PUSH1 0x40 MSTORE POP DUP2 ADD SWAP1 PUSH2 0x1F28 SWAP2 SWAP1 PUSH2 0x7174 JUMP JUMPDEST PUSH1 0x1B SLOAD PUSH1 0x40 MLOAD PUSH4 0xF8B2CB4F PUSH1 0xE0 SHL DUP2 MSTORE PUSH0 SWAP2 PUSH1 0x1 PUSH1 0x1 PUSH1 0xA0 SHL SUB AND SWAP1 PUSH4 0xF8B2CB4F SWAP1 PUSH2 0x3381 SWAP1 CALLER SWAP1 PUSH1 0x4 ADD PUSH2 0x6856 JUMP JUMPDEST PUSH1 0x20 PUSH1 0x40 MLOAD DUP1 DUP4 SUB DUP2 DUP7 GAS STATICCALL ISZERO DUP1 ISZERO PUSH2 0x339C JUMPI RETURNDATASIZE PUSH0 DUP1 RETURNDATACOPY RETURNDATASIZE PUSH0 REVERT JUMPDEST POP POP POP POP PUSH1 0x40 MLOAD RETURNDATASIZE PUSH1 0x1F NOT PUSH1 0x1F DUP3 ADD AND DUP3 ADD DUP1 PUSH1 0x40 MSTORE POP DUP2 ADD SWAP1 PUSH2 0x33C0 SWAP2 SWAP1 PUSH2 0x6E09 JUMP JUMPDEST SWAP1 POP DUP4 DUP2 LT ISZERO PUSH2 0x3409 JUMPI PUSH1 0x40 MLOAD PUSH3 0x461BCD PUSH1 0xE5 SHL DUP2 MSTORE PUSH1 0x20 PUSH1 0x4 DUP3 ADD MSTORE PUSH1 0x14 PUSH1 0x24 DUP3 ADD MSTORE PUSH20 0x496E73756666696369656E742062616C616E6365 PUSH1 0x60 SHL PUSH1 0x44 DUP3 ADD MSTORE PUSH1 0x64 ADD PUSH2 0x6D2 JUMP JUMPDEST CALLER PUSH0 SWAP1 DUP2 MSTORE PUSH1 0x4 PUSH1 0x20 MSTORE PUSH1 0x40 SWAP1 KECCAK256 PUSH1 0x2 SWAP1 DUP2 ADD SLOAD PUSH2 0x100 SWAP1 DIV PUSH1 0xFF AND SWAP1 DUP2 PUSH1 0x3 DUP2 GT ISZERO PUSH2 0x3438 JUMPI PUSH2 0x3438 PUSH2 0x664F JUMP JUMPDEST EQ ISZERO DUP1 ISZERO PUSH2 0x3458 JUMPI POP PUSH1 0x3 DUP2 PUSH1 0x3 DUP2 GT ISZERO PUSH2 0x3455 JUMPI PUSH2 0x3455 PUSH2 0x664F JUMP JUMPDEST EQ ISZERO JUMPDEST PUSH2 0x3492 JUMPI PUSH1 0x40 MLOAD PUSH3 0x461BCD PUSH1 0xE5 SHL DUP2 MSTORE PUSH1 0x20 PUSH1 0x4 DUP3 ADD MSTORE PUSH1 0xB PUSH1 0x24 DUP3 ADD MSTORE PUSH11 0x44656E7920616363657373 PUSH1 0xA8 SHL PUSH1 0x44 DUP3 ADD MSTORE PUSH1 0x64 ADD PUSH2 0x6D2 JUMP JUMPDEST PUSH1 0x1B SLOAD PUSH1 0x40 MLOAD PUSH4 0xC84D239B PUSH1 0xE0 SHL DUP2 MSTORE PUSH1 0x1 PUSH1 0x1 PUSH1 0xA0 SHL SUB SWAP1 SWAP2 AND SWAP1 PUSH4 0xC84D239B SWAP1 PUSH2 0x34C4 SWAP1 CALLER SWAP1 DUP10 SWAP1 PUSH1 0x4 ADD PUSH2 0x718F JUMP JUMPDEST PUSH1 0x20 PUSH1 0x40 MLOAD DUP1 DUP4 SUB DUP2 PUSH0 DUP8 GAS CALL ISZERO DUP1 ISZERO PUSH2 0x34E0 JUMPI RETURNDATASIZE PUSH0 DUP1 RETURNDATACOPY RETURNDATASIZE PUSH0 REVERT JUMPDEST POP POP POP POP PUSH1 0x40 MLOAD RETURNDATASIZE PUSH1 0x1F NOT PUSH1 0x1F DUP3 ADD AND DUP3 ADD DUP1 PUSH1 0x40 MSTORE POP DUP2 ADD SWAP1 PUSH2 0x3504 SWAP2 SWAP1 PUSH2 0x7174 JUMP JUMPDEST PUSH2 0x355A JUMPI PUSH1 0x40 MLOAD PUSH3 0x461BCD PUSH1 0xE5 SHL DUP2 MSTORE PUSH1 0x20 PUSH1 0x4 DUP3 ADD MSTORE PUSH1 0x21 PUSH1 0x24 DUP3 ADD MSTORE PUSH32 0x496E73756666696369656E742062616C616E636520666F722077697468647261 PUSH1 0x44 DUP3 ADD MSTORE PUSH1 0x77 PUSH1 0xF8 SHL PUSH1 0x64 DUP3 ADD MSTORE PUSH1 0x84 ADD PUSH2 0x6D2 JUMP JUMPDEST PUSH1 0x17 SLOAD PUSH1 0x1 PUSH1 0x1 PUSH1 0xA0 SHL SUB AND PUSH4 0xA9059CBB DUP6 PUSH1 0x64 PUSH2 0x3579 DUP10 PUSH1 0x78 PUSH2 0x7108 JUMP JUMPDEST PUSH2 0x3586 SWAP1 PUSH3 0xF4240 PUSH2 0x7108 JUMP JUMPDEST PUSH2 0x3590 SWAP2 SWAP1 PUSH2 0x6CAE JUMP JUMPDEST PUSH1 0x40 MLOAD DUP4 PUSH4 0xFFFFFFFF AND PUSH1 0xE0 SHL DUP2 MSTORE PUSH1 0x4 ADD PUSH2 0x35AD SWAP3 SWAP2 SWAP1 PUSH2 0x718F JUMP JUMPDEST PUSH1 0x20 PUSH1 0x40 MLOAD DUP1 DUP4 SUB DUP2 PUSH0 DUP8 GAS CALL ISZERO DUP1 ISZERO PUSH2 0x35C9 JUMPI RETURNDATASIZE PUSH0 DUP1 RETURNDATACOPY RETURNDATASIZE PUSH0 REVERT JUMPDEST POP POP POP POP PUSH1 0x40 MLOAD RETURNDATASIZE PUSH1 0x1F NOT PUSH1 0x1F DUP3 ADD AND DUP3 ADD DUP1 PUSH1 0x40 MSTORE POP DUP2 ADD SWAP1 PUSH2 0x35ED SWAP2 SWAP1 PUSH2 0x7174 JUMP JUMPDEST PUSH2 0x185F JUMPI PUSH1 0x40 MLOAD PUSH3 0x461BCD PUSH1 0xE5 SHL DUP2 MSTORE PUSH1 0x20 PUSH1 0x4 DUP3 ADD MSTORE PUSH1 0xF PUSH1 0x24 DUP3 ADD MSTORE PUSH15 0x151C985B9CD9995C8819985A5B1959 PUSH1 0x8A SHL PUSH1 0x44 DUP3 ADD MSTORE PUSH1 0x64 ADD PUSH2 0x6D2 JUMP JUMPDEST PUSH0 PUSH1 0x1 PUSH1 0x1 PUSH1 0xA0 SHL SUB DUP6 AND CALLER EQ DUP1 PUSH2 0x3681 JUMPI POP DUP3 PUSH0 CALLER DUP8 PUSH1 0x40 MLOAD PUSH1 0x20 ADD PUSH2 0x3653 SWAP3 SWAP2 SWAP1 PUSH2 0x71A8 JUMP JUMPDEST PUSH1 0x40 DUP1 MLOAD PUSH1 0x1F NOT DUP2 DUP5 SUB ADD DUP2 MSTORE SWAP2 DUP2 MSTORE DUP2 MLOAD PUSH1 0x20 SWAP3 DUP4 ADD KECCAK256 DUP4 MSTORE SWAP1 DUP3 ADD SWAP3 SWAP1 SWAP3 MSTORE ADD PUSH0 KECCAK256 SLOAD PUSH1 0xFF AND ISZERO ISZERO PUSH1 0x1 EQ JUMPDEST PUSH2 0x36BD JUMPI PUSH1 0x40 MLOAD PUSH3 0x461BCD PUSH1 0xE5 SHL DUP2 MSTORE PUSH1 0x20 PUSH1 0x4 DUP3 ADD MSTORE PUSH1 0xD PUSH1 0x24 DUP3 ADD MSTORE PUSH13 0x139BDD081C195C9B5A5D1D1959 PUSH1 0x9A SHL PUSH1 0x44 DUP3 ADD MSTORE PUSH1 0x64 ADD PUSH2 0x6D2 JUMP JUMPDEST PUSH0 DUP7 JUMPDEST PUSH1 0x1 PUSH1 0x1 PUSH1 0xA0 SHL SUB DUP2 AND ISZERO PUSH2 0x3799 JUMPI DUP2 PUSH2 0x36D9 DUP2 PUSH2 0x70C4 JUMP JUMPDEST SWAP3 POP POP DUP6 PUSH1 0xFF AND DUP3 PUSH1 0xFF AND SUB ISZERO PUSH2 0x3799 JUMPI DUP7 PUSH1 0x1 PUSH1 0x1 PUSH1 0xA0 SHL SUB AND DUP2 PUSH1 0x1 PUSH1 0x1 PUSH1 0xA0 SHL SUB AND SUB PUSH2 0x370E JUMPI PUSH1 0x1 SWAP3 POP POP POP PUSH2 0x379F JUMP JUMPDEST PUSH1 0x1 PUSH1 0x1 PUSH1 0xA0 SHL SUB SWAP1 DUP2 AND PUSH0 SWAP1 DUP2 MSTORE PUSH1 0x20 DUP11 SWAP1 MSTORE PUSH1 0x40 SWAP1 KECCAK256 SLOAD AND PUSH2 0x3733 PUSH1 0xA DUP4 PUSH2 0x71CA JUMP JUMPDEST PUSH1 0xFF AND PUSH0 SUB PUSH2 0x3794 JUMPI PUSH0 CALLER DUP3 PUSH1 0x40 MLOAD PUSH1 0x20 ADD PUSH2 0x3750 SWAP3 SWAP2 SWAP1 PUSH2 0x71A8 JUMP JUMPDEST PUSH1 0x40 DUP1 MLOAD PUSH1 0x1F NOT DUP2 DUP5 SUB ADD DUP2 MSTORE SWAP2 DUP2 MSTORE DUP2 MLOAD PUSH1 0x20 SWAP3 DUP4 ADD KECCAK256 PUSH0 DUP2 DUP2 MSTORE DUP10 DUP5 MSTORE SWAP2 DUP3 KECCAK256 DUP1 SLOAD PUSH1 0xFF NOT AND PUSH1 0x1 SWAP1 DUP2 OR SWAP1 SWAP2 SSTORE DUP9 SLOAD SWAP1 DUP2 ADD DUP10 SSTORE DUP9 DUP4 MSTORE SWAP3 SWAP1 SWAP2 KECCAK256 SWAP1 SWAP2 ADD SSTORE POP JUMPDEST PUSH2 0x36C0 JUMP JUMPDEST PUSH0 SWAP3 POP POP POP JUMPDEST SWAP7 SWAP6 POP POP POP POP POP POP JUMP JUMPDEST PUSH1 0x1 PUSH1 0x1 PUSH1 0xA0 SHL SUB DUP2 AND PUSH0 SWAP1 DUP2 MSTORE PUSH1 0x20 DUP8 SWAP1 MSTORE PUSH1 0x40 DUP2 KECCAK256 PUSH1 0x2 SWAP1 DUP2 ADD SLOAD PUSH2 0x100 SWAP1 DIV PUSH1 0xFF AND SWAP1 DUP2 PUSH1 0x3 DUP2 GT ISZERO PUSH2 0x37E1 JUMPI PUSH2 0x37E1 PUSH2 0x664F JUMP JUMPDEST EQ DUP1 PUSH2 0x37FE JUMPI POP PUSH1 0x3 DUP2 PUSH1 0x3 DUP2 GT ISZERO PUSH2 0x37FC JUMPI PUSH2 0x37FC PUSH2 0x664F JUMP JUMPDEST EQ JUMPDEST ISZERO PUSH2 0x380C JUMPI PUSH0 SWAP2 POP POP PUSH2 0x379F JUMP JUMPDEST PUSH1 0x1 PUSH1 0x1 PUSH1 0xA0 SHL SUB DUP4 AND PUSH0 SWAP1 DUP2 MSTORE PUSH1 0x20 DUP9 SWAP1 MSTORE PUSH1 0x40 SWAP1 KECCAK256 SLOAD TIMESTAMP GT ISZERO PUSH2 0x3862 JUMPI PUSH1 0x1 PUSH1 0x1 PUSH1 0xA0 SHL SUB DUP4 AND PUSH0 SWAP1 DUP2 MSTORE PUSH1 0x20 DUP10 SWAP1 MSTORE PUSH1 0x40 SWAP1 KECCAK256 PUSH1 0x2 SWAP1 DUP2 ADD DUP1 SLOAD PUSH2 0xFF00 NOT AND PUSH2 0x100 DUP4 JUMPDEST MUL OR SWAP1 SSTORE POP PUSH1 0x1 SWAP2 POP POP PUSH2 0x379F JUMP JUMPDEST PUSH1 0x1 PUSH1 0x1 PUSH1 0xA0 SHL SUB DUP4 AND PUSH0 SWAP1 DUP2 MSTORE PUSH1 0x20 DUP8 SWAP1 MSTORE PUSH1 0x40 SWAP1 KECCAK256 SLOAD PUSH1 0x1 GT ISZERO DUP1 PUSH2 0x38A1 JUMPI POP PUSH1 0x1 PUSH1 0x1 PUSH1 0xA0 SHL SUB DUP4 AND PUSH0 SWAP1 DUP2 MSTORE PUSH1 0x20 DUP6 SWAP1 MSTORE PUSH1 0x40 SWAP1 KECCAK256 SLOAD PUSH1 0xA GT ISZERO JUMPDEST DUP1 PUSH2 0x38C4 JUMPI POP PUSH1 0x1 PUSH1 0x1 PUSH1 0xA0 SHL SUB DUP4 AND PUSH0 SWAP1 DUP2 MSTORE PUSH1 0x20 DUP7 SWAP1 MSTORE PUSH1 0x40 SWAP1 KECCAK256 SLOAD PUSH1 0x64 GT ISZERO JUMPDEST ISZERO PUSH2 0x38F7 JUMPI PUSH1 0x1 PUSH1 0x1 PUSH1 0xA0 SHL SUB DUP4 AND PUSH0 SWAP1 DUP2 MSTORE PUSH1 0x20 DUP10 SWAP1 MSTORE PUSH1 0x40 SWAP1 KECCAK256 PUSH1 0x2 ADD DUP1 SLOAD PUSH1 0x1 SWAP2 SWAP1 PUSH2 0xFF00 NOT AND PUSH2 0x100 DUP4 PUSH2 0x3853 JUMP JUMPDEST POP PUSH0 SWAP8 SWAP7 POP POP POP POP POP POP POP JUMP JUMPDEST PUSH1 0x1 PUSH1 0x1 PUSH1 0xA0 SHL SUB DUP2 AND PUSH0 SWAP1 DUP2 MSTORE PUSH1 0x20 DUP6 DUP2 MSTORE PUSH1 0x40 DUP1 DUP4 KECCAK256 PUSH1 0x2 ADD SLOAD SWAP2 DUP7 SWAP1 MSTORE DUP3 KECCAK256 PUSH1 0x1 ADD SLOAD SWAP1 SWAP2 SWAP1 DUP2 DUP2 PUSH1 0x1 PUSH1 0x1 PUSH1 0x40 SHL SUB DUP2 GT ISZERO PUSH2 0x3946 JUMPI PUSH2 0x3946 PUSH2 0x644B JUMP JUMPDEST PUSH1 0x40 MLOAD SWAP1 DUP1 DUP3 MSTORE DUP1 PUSH1 0x20 MUL PUSH1 0x20 ADD DUP3 ADD PUSH1 0x40 MSTORE DUP1 ISZERO PUSH2 0x396F JUMPI DUP2 PUSH1 0x20 ADD PUSH1 0x20 DUP3 MUL DUP1 CALLDATASIZE DUP4 CALLDATACOPY ADD SWAP1 POP JUMPDEST POP SWAP1 POP PUSH0 JUMPDEST DUP3 DUP2 LT ISZERO PUSH2 0x3A7C JUMPI PUSH1 0x1 PUSH1 0x1 PUSH1 0xA0 SHL SUB DUP7 AND PUSH0 SWAP1 DUP2 MSTORE PUSH1 0x20 DUP10 SWAP1 MSTORE PUSH1 0x40 DUP2 KECCAK256 PUSH1 0x1 ADD DUP1 SLOAD DUP4 SWAP1 DUP2 LT PUSH2 0x39A8 JUMPI PUSH2 0x39A8 PUSH2 0x6B0A JUMP JUMPDEST PUSH0 SWAP2 DUP3 MSTORE PUSH1 0x20 DUP1 DUP4 KECCAK256 SWAP1 SWAP2 ADD SLOAD PUSH1 0x1 PUSH1 0x1 PUSH1 0xA0 SHL SUB AND DUP1 DUP4 MSTORE DUP12 DUP3 MSTORE PUSH1 0x40 DUP1 DUP5 KECCAK256 SWAP3 DUP15 SWAP1 MSTORE DUP4 KECCAK256 PUSH1 0x3 DUP2 ADD SLOAD PUSH1 0x2 SWAP1 SWAP2 ADD SLOAD SWAP2 SWAP5 POP SWAP2 SWAP3 SWAP2 PUSH2 0x39E9 SWAP2 PUSH2 0x6AE4 JUMP JUMPDEST SWAP1 POP PUSH0 DUP2 GT PUSH2 0x39FA JUMPI POP POP POP PUSH2 0x3A74 JUMP JUMPDEST PUSH1 0x1 PUSH1 0x1 PUSH1 0xA0 SHL SUB DUP4 AND PUSH0 SWAP1 DUP2 MSTORE PUSH1 0x20 DUP14 SWAP1 MSTORE PUSH1 0x40 DUP2 KECCAK256 PUSH1 0x3 ADD SSTORE DUP5 MLOAD DUP2 SWAP1 DUP7 SWAP1 DUP7 SWAP1 DUP2 LT PUSH2 0x3A2B JUMPI PUSH2 0x3A2B PUSH2 0x6B0A JUMP JUMPDEST PUSH1 0x20 SWAP1 DUP2 MUL SWAP2 SWAP1 SWAP2 ADD ADD MSTORE PUSH2 0x3A40 DUP2 DUP10 PUSH2 0x6AE4 JUMP JUMPDEST SWAP8 POP PUSH1 0x4 PUSH1 0x2 DUP4 ADD SLOAD PUSH1 0xFF AND PUSH1 0x7 DUP2 GT ISZERO PUSH2 0x3A5D JUMPI PUSH2 0x3A5D PUSH2 0x664F JUMP JUMPDEST LT ISZERO PUSH2 0x3A70 JUMPI PUSH2 0x3A6D DUP2 DUP9 PUSH2 0x6AE4 JUMP JUMPDEST SWAP7 POP JUMPDEST POP POP POP JUMPDEST PUSH1 0x1 ADD PUSH2 0x3974 JUMP JUMPDEST POP DUP4 ISZERO PUSH2 0x138E JUMPI PUSH0 PUSH1 0x5 PUSH1 0x1 PUSH1 0x1 PUSH1 0xA0 SHL SUB DUP8 AND PUSH0 SWAP1 DUP2 MSTORE PUSH1 0x20 DUP11 SWAP1 MSTORE PUSH1 0x40 SWAP1 KECCAK256 PUSH1 0x2 ADD SLOAD PUSH1 0xFF AND PUSH1 0x7 DUP2 GT ISZERO PUSH2 0x3AB5 JUMPI PUSH2 0x3AB5 PUSH2 0x664F JUMP JUMPDEST LT ISZERO PUSH2 0x3AC2 JUMPI PUSH1 0x32 PUSH2 0x3AC5 JUMP JUMPDEST PUSH1 0x28 JUMPDEST PUSH1 0xFF AND SWAP1 POP PUSH0 PUSH1 0x64 PUSH2 0x3AD7 DUP4 DUP9 PUSH2 0x7108 JUMP JUMPDEST PUSH2 0x3AE1 SWAP2 SWAP1 PUSH2 0x6CAE JUMP JUMPDEST SWAP1 POP PUSH0 DUP1 JUMPDEST DUP6 DUP2 LT ISZERO PUSH2 0x3B43 JUMPI DUP3 DUP6 DUP3 DUP2 MLOAD DUP2 LT PUSH2 0x3B01 JUMPI PUSH2 0x3B01 PUSH2 0x6B0A JUMP JUMPDEST PUSH1 0x20 MUL PUSH1 0x20 ADD ADD MLOAD GT PUSH2 0x3B2D JUMPI DUP5 DUP2 DUP2 MLOAD DUP2 LT PUSH2 0x3B20 JUMPI PUSH2 0x3B20 PUSH2 0x6B0A JUMP JUMPDEST PUSH1 0x20 MUL PUSH1 0x20 ADD ADD MLOAD PUSH2 0x3B2F JUMP JUMPDEST DUP3 JUMPDEST PUSH2 0x3B39 SWAP1 DUP4 PUSH2 0x6AE4 JUMP JUMPDEST SWAP2 POP PUSH1 0x1 ADD PUSH2 0x3AE6 JUMP JUMPDEST POP PUSH1 0x1 PUSH1 0x1 PUSH1 0xA0 SHL SUB DUP9 AND PUSH0 SWAP1 DUP2 MSTORE PUSH1 0x20 DUP13 SWAP1 MSTORE PUSH1 0x40 DUP2 KECCAK256 PUSH1 0x3 ADD SLOAD PUSH2 0x3B69 SWAP1 DUP4 PUSH2 0x6AF7 JUMP JUMPDEST SWAP1 POP DUP1 ISZERO PUSH2 0x3B9A JUMPI PUSH1 0x1 PUSH1 0x1 PUSH1 0xA0 SHL SUB DUP10 AND PUSH0 SWAP1 DUP2 MSTORE PUSH1 0x20 DUP14 SWAP1 MSTORE PUSH1 0x40 SWAP1 KECCAK256 PUSH1 0x3 ADD DUP3 SWAP1 SSTORE PUSH2 0x3B9A DUP12 DUP14 DUP13 DUP13 PUSH2 0x5077 JUMP JUMPDEST POP POP POP PUSH1 0x1 PUSH1 0x1 PUSH1 0xA0 SHL SUB DUP7 AND PUSH0 SWAP1 DUP2 MSTORE PUSH1 0x20 DUP11 SWAP1 MSTORE PUSH1 0x40 SWAP1 KECCAK256 PUSH1 0x4 ADD DUP6 SWAP1 SSTORE POP POP POP POP POP POP POP POP POP JUMP JUMPDEST PUSH1 0x1 PUSH1 0x1 PUSH1 0xA0 SHL SUB DUP1 DUP3 AND PUSH0 SWAP1 DUP2 MSTORE PUSH1 0x4 PUSH1 0x20 MSTORE PUSH1 0x40 SWAP1 KECCAK256 SLOAD AND DUP1 PUSH2 0x3BE8 JUMPI POP POP JUMP JUMPDEST PUSH1 0x1 PUSH1 0x1 PUSH1 0xA0 SHL SUB DUP2 AND PUSH0 SWAP1 DUP2 MSTORE PUSH1 0x5 PUSH1 0x20 MSTORE PUSH1 0x40 DUP2 KECCAK256 PUSH1 0x1 SWAP1 DUP2 ADD DUP1 SLOAD SWAP2 SWAP3 SWAP1 SWAP2 PUSH2 0x3C15 SWAP1 DUP5 SWAP1 PUSH2 0x6AE4 JUMP JUMPDEST SWAP1 SWAP2 SSTORE POP POP PUSH1 0x1 PUSH1 0x1 PUSH1 0xA0 SHL SUB DUP2 AND PUSH0 SWAP1 DUP2 MSTORE PUSH1 0x1A PUSH1 0x20 MSTORE PUSH1 0x40 SWAP1 KECCAK256 SLOAD PUSH1 0xFF AND ISZERO ISZERO PUSH1 0x1 EQ DUP1 ISZERO SWAP1 PUSH2 0x3C82 JUMPI POP PUSH1 0x1 PUSH1 0x1 PUSH1 0xA0 SHL SUB DUP3 AND PUSH0 SWAP1 DUP2 MSTORE PUSH1 0x19 PUSH1 0x20 MSTORE PUSH1 0x40 SWAP1 KECCAK256 PUSH1 0x1 ADD SLOAD PUSH1 0xFF AND DUP1 PUSH2 0x3C82 JUMPI POP PUSH1 0x1 PUSH1 0x1 PUSH1 0xA0 SHL SUB DUP3 AND PUSH0 SWAP1 DUP2 MSTORE PUSH1 0x1A PUSH1 0x20 MSTORE PUSH1 0x40 SWAP1 KECCAK256 SLOAD PUSH1 0xFF AND JUMPDEST ISZERO PUSH2 0x3CAA JUMPI PUSH1 0x1 PUSH1 0x1 PUSH1 0xA0 SHL SUB DUP2 AND PUSH0 SWAP1 DUP2 MSTORE PUSH1 0x1A PUSH1 0x20 MSTORE PUSH1 0x40 SWAP1 KECCAK256 DUP1 SLOAD PUSH1 0xFF NOT AND PUSH1 0x1 OR SWAP1 SSTORE JUMPDEST PUSH1 0x1 PUSH1 0x1 PUSH1 0xA0 SHL SUB DUP3 AND PUSH0 SWAP1 DUP2 MSTORE PUSH1 0x19 PUSH1 0x20 SWAP1 DUP2 MSTORE PUSH1 0x40 DUP1 DUP4 KECCAK256 DUP4 DUP2 SSTORE PUSH1 0x1 ADD DUP1 SLOAD PUSH1 0xFF NOT SWAP1 DUP2 AND SWAP1 SWAP2 SSTORE PUSH1 0x1A DUP4 MSTORE DUP2 DUP5 KECCAK256 DUP1 SLOAD SWAP1 SWAP2 AND SWAP1 SSTORE PUSH1 0x9 SWAP1 SWAP2 MSTORE SWAP1 KECCAK256 SLOAD ISZERO PUSH2 0x3D7C JUMPI PUSH1 0x1 PUSH1 0x1 PUSH1 0xA0 SHL SUB DUP1 DUP4 AND PUSH0 SWAP1 DUP2 MSTORE PUSH1 0x9 PUSH1 0x20 MSTORE PUSH1 0x40 DUP1 DUP3 KECCAK256 SLOAD SWAP3 DUP5 AND DUP3 MSTORE DUP2 KECCAK256 DUP1 SLOAD SWAP1 SWAP2 SWAP1 PUSH2 0x3D21 SWAP1 DUP5 SWAP1 PUSH2 0x6AE4 JUMP JUMPDEST SWAP1 SWAP2 SSTORE POP POP PUSH1 0x1 PUSH1 0x1 PUSH1 0xA0 SHL SUB DUP1 DUP4 AND PUSH0 SWAP1 DUP2 MSTORE PUSH1 0x9 PUSH1 0x20 SWAP1 DUP2 MSTORE PUSH1 0x40 DUP1 DUP4 KECCAK256 SLOAD SWAP4 DUP6 AND DUP4 MSTORE PUSH1 0xA SWAP1 SWAP2 MSTORE DUP2 KECCAK256 DUP1 SLOAD SWAP1 SWAP2 SWAP1 PUSH2 0x3D5E SWAP1 DUP5 SWAP1 PUSH2 0x6AE4 JUMP JUMPDEST SWAP1 SWAP2 SSTORE POP POP PUSH1 0x1 PUSH1 0x1 PUSH1 0xA0 SHL SUB DUP3 AND PUSH0 SWAP1 DUP2 MSTORE PUSH1 0x9 PUSH1 0x20 MSTORE PUSH1 0x40 DUP2 KECCAK256 SSTORE JUMPDEST PUSH1 0x1 PUSH1 0x1 PUSH1 0xA0 SHL SUB DUP2 AND PUSH0 SWAP1 DUP2 MSTORE PUSH1 0x4 PUSH1 0x20 SWAP1 DUP2 MSTORE PUSH1 0x40 DUP1 DUP4 KECCAK256 PUSH1 0x1 SWAP1 DUP2 ADD SLOAD PUSH1 0x5 SWAP1 SWAP4 MSTORE SWAP3 KECCAK256 SWAP1 SWAP2 ADD SLOAD SUB PUSH2 0x1A55 JUMPI PUSH1 0x1 PUSH1 0x1 PUSH1 0xA0 SHL SUB DUP2 AND PUSH0 SWAP1 DUP2 MSTORE PUSH1 0x5 PUSH1 0x20 SWAP1 DUP2 MSTORE PUSH1 0x40 DUP1 DUP4 KECCAK256 PUSH1 0x1 ADD DUP4 SWAP1 SSTORE PUSH1 0x1A SWAP1 SWAP2 MSTORE SWAP1 KECCAK256 SLOAD PUSH1 0xFF AND ISZERO PUSH2 0x3DEB JUMPI PUSH2 0x3DEB PUSH1 0x5 PUSH1 0x4 PUSH1 0x2 DUP5 PUSH2 0x3904 JUMP JUMPDEST PUSH2 0x1A55 DUP2 PUSH2 0x3BC5 JUMP JUMPDEST PUSH1 0x1 PUSH1 0x1 PUSH1 0xA0 SHL SUB DUP2 AND PUSH0 SWAP1 DUP2 MSTORE PUSH1 0x20 DUP4 SWAP1 MSTORE PUSH1 0x40 DUP2 KECCAK256 PUSH1 0x2 ADD SLOAD PUSH1 0x64 GT ISZERO DUP1 PUSH2 0x18D7 JUMPI POP POP PUSH1 0x1 PUSH1 0x1 PUSH1 0xA0 SHL SUB AND PUSH0 SWAP1 DUP2 MSTORE PUSH1 0x20 SWAP2 SWAP1 SWAP2 MSTORE PUSH1 0x40 SWAP1 KECCAK256 PUSH1 0x3 ADD SLOAD PUSH2 0x1F4 GT ISZERO SWAP1 JUMP JUMPDEST PUSH1 0x1 PUSH1 0x1 PUSH1 0xA0 SHL SUB DUP2 AND PUSH0 SWAP1 DUP2 MSTORE PUSH1 0x20 DUP5 SWAP1 MSTORE PUSH1 0x40 DUP2 KECCAK256 PUSH1 0x1 ADD SWAP1 JUMPDEST DUP2 SLOAD DUP2 LT ISZERO PUSH2 0x185F JUMPI DUP3 DUP5 PUSH0 DUP5 DUP5 DUP2 SLOAD DUP2 LT PUSH2 0x3E77 JUMPI PUSH2 0x3E77 PUSH2 0x6B0A JUMP JUMPDEST PUSH0 SWAP2 DUP3 MSTORE PUSH1 0x20 DUP1 DUP4 KECCAK256 SWAP2 SWAP1 SWAP2 ADD SLOAD PUSH1 0x1 PUSH1 0x1 PUSH1 0xA0 SHL SUB SWAP1 DUP2 AND DUP5 MSTORE SWAP1 DUP4 ADD SWAP4 SWAP1 SWAP4 MSTORE PUSH1 0x40 SWAP1 SWAP2 ADD SWAP1 KECCAK256 DUP1 SLOAD PUSH1 0x1 PUSH1 0x1 PUSH1 0xA0 SHL SUB NOT AND SWAP3 SWAP1 SWAP2 AND SWAP2 SWAP1 SWAP2 OR SWAP1 SSTORE PUSH1 0x1 ADD PUSH2 0x3E59 JUMP JUMPDEST DUP2 PUSH2 0x7CD JUMPI PUSH1 0x40 MLOAD PUSH4 0x70A08231 PUSH1 0xE0 SHL DUP2 MSTORE PUSH0 SWAP1 PUSH1 0x1 PUSH1 0x1 PUSH1 0xA0 SHL SUB DUP6 AND SWAP1 PUSH4 0x70A08231 SWAP1 PUSH2 0x3EF1 SWAP1 ADDRESS SWAP1 PUSH1 0x4 ADD PUSH2 0x6856 JUMP JUMPDEST PUSH1 0x20 PUSH1 0x40 MLOAD DUP1 DUP4 SUB DUP2 DUP7 GAS STATICCALL ISZERO DUP1 ISZERO PUSH2 0x3F0C JUMPI RETURNDATASIZE PUSH0 DUP1 RETURNDATACOPY RETURNDATASIZE PUSH0 REVERT JUMPDEST POP POP POP POP PUSH1 0x40 MLOAD RETURNDATASIZE PUSH1 0x1F NOT PUSH1 0x1F DUP3 ADD AND DUP3 ADD DUP1 PUSH1 0x40 MSTORE POP DUP2 ADD SWAP1 PUSH2 0x3F30 SWAP2 SWAP1 PUSH2 0x6E09 JUMP JUMPDEST PUSH1 0x40 MLOAD PUSH4 0x23B872DD PUSH1 0xE0 SHL DUP2 MSTORE CALLER PUSH1 0x4 DUP3 ADD MSTORE ADDRESS PUSH1 0x24 DUP3 ADD MSTORE PUSH1 0x44 DUP2 ADD DUP5 SWAP1 MSTORE SWAP1 SWAP2 POP PUSH1 0x1 PUSH1 0x1 PUSH1 0xA0 SHL SUB DUP6 AND SWAP1 PUSH4 0x23B872DD SWAP1 PUSH1 0x64 ADD PUSH1 0x20 PUSH1 0x40 MLOAD DUP1 DUP4 SUB DUP2 PUSH0 DUP8 GAS CALL ISZERO DUP1 ISZERO PUSH2 0x3F83 JUMPI RETURNDATASIZE PUSH0 DUP1 RETURNDATACOPY RETURNDATASIZE PUSH0 REVERT JUMPDEST POP POP POP POP PUSH1 0x40 MLOAD RETURNDATASIZE PUSH1 0x1F NOT PUSH1 0x1F DUP3 ADD AND DUP3 ADD DUP1 PUSH1 0x40 MSTORE POP DUP2 ADD SWAP1 PUSH2 0x3FA7 SWAP2 SWAP1 PUSH2 0x7174 JUMP JUMPDEST PUSH2 0x3FEA JUMPI PUSH1 0x40 MLOAD PUSH3 0x461BCD PUSH1 0xE5 SHL DUP2 MSTORE PUSH1 0x20 PUSH1 0x4 DUP3 ADD MSTORE PUSH1 0x14 PUSH1 0x24 DUP3 ADD MSTORE PUSH20 0x1554D115081D1C985B9CD9995C8819985A5B1959 PUSH1 0x62 SHL PUSH1 0x44 DUP3 ADD MSTORE PUSH1 0x64 ADD PUSH2 0x6D2 JUMP JUMPDEST PUSH1 0x40 MLOAD PUSH4 0x70A08231 PUSH1 0xE0 SHL DUP2 MSTORE PUSH0 SWAP1 PUSH1 0x1 PUSH1 0x1 PUSH1 0xA0 SHL SUB DUP7 AND SWAP1 PUSH4 0x70A08231 SWAP1 PUSH2 0x4018 SWAP1 ADDRESS SWAP1 PUSH1 0x4 ADD PUSH2 0x6856 JUMP JUMPDEST PUSH1 0x20 PUSH1 0x40 MLOAD DUP1 DUP4 SUB DUP2 DUP7 GAS STATICCALL ISZERO DUP1 ISZERO PUSH2 0x4033 JUMPI RETURNDATASIZE PUSH0 DUP1 RETURNDATACOPY RETURNDATASIZE PUSH0 REVERT JUMPDEST POP POP POP POP PUSH1 0x40 MLOAD RETURNDATASIZE PUSH1 0x1F NOT PUSH1 0x1F DUP3 ADD AND DUP3 ADD DUP1 PUSH1 0x40 MSTORE POP DUP2 ADD SWAP1 PUSH2 0x4057 SWAP2 SWAP1 PUSH2 0x6E09 JUMP JUMPDEST SWAP1 POP PUSH0 PUSH2 0x4064 DUP4 DUP4 PUSH2 0x6AF7 JUMP JUMPDEST SWAP1 POP PUSH2 0x4073 PUSH3 0xF4240 DUP6 PUSH2 0x6AF7 JUMP JUMPDEST DUP2 LT ISZERO DUP1 ISZERO PUSH2 0x408E JUMPI POP PUSH2 0x408A DUP5 PUSH3 0xF4240 PUSH2 0x6AE4 JUMP JUMPDEST DUP2 GT ISZERO JUMPDEST PUSH2 0x185D JUMPI PUSH1 0x40 MLOAD PUSH3 0x461BCD PUSH1 0xE5 SHL DUP2 MSTORE PUSH1 0x20 PUSH1 0x4 DUP3 ADD MSTORE PUSH1 0x1E PUSH1 0x24 DUP3 ADD MSTORE PUSH32 0x496E636F72726563742055534454207472616E7366657220616D6F756E740000 PUSH1 0x44 DUP3 ADD MSTORE PUSH1 0x64 ADD PUSH2 0x6D2 JUMP JUMPDEST PUSH1 0x11 SLOAD PUSH2 0x100 SWAP1 DIV PUSH1 0xFF AND ISZERO PUSH2 0x4102 JUMPI PUSH1 0x40 MLOAD PUSH3 0x461BCD PUSH1 0xE5 SHL DUP2 MSTORE PUSH1 0x4 ADD PUSH2 0x6D2 SWAP1 PUSH2 0x6B63 JUMP JUMPDEST PUSH1 0x11 SLOAD PUSH1 0xFF AND ISZERO PUSH2 0x41CD JUMPI PUSH1 0x40 DUP1 MLOAD PUSH1 0x60 DUP2 ADD DUP3 MSTORE PUSH1 0x1 PUSH1 0x1 PUSH1 0xA0 SHL SUB SWAP5 DUP6 AND DUP2 MSTORE PUSH1 0x20 DUP2 ADD SWAP4 DUP5 MSTORE SWAP1 DUP2 ADD SWAP2 DUP3 MSTORE PUSH1 0x10 DUP1 SLOAD PUSH1 0x1 DUP2 ADD DUP3 SSTORE PUSH0 SWAP2 SWAP1 SWAP2 MSTORE SWAP1 MLOAD PUSH32 0x1B6847DC741A1B0CD08D278845F9D819D87B734759AFB55FE2DE5CB82A9AE672 PUSH1 0x3 SWAP1 SWAP3 MUL SWAP2 DUP3 ADD DUP1 SLOAD PUSH1 0x1 PUSH1 0x1 PUSH1 0xA0 SHL SUB NOT AND SWAP2 SWAP1 SWAP6 AND OR SWAP1 SWAP4 SSTORE SWAP1 MLOAD PUSH32 0x1B6847DC741A1B0CD08D278845F9D819D87B734759AFB55FE2DE5CB82A9AE673 DUP4 ADD SSTORE MLOAD PUSH32 0x1B6847DC741A1B0CD08D278845F9D819D87B734759AFB55FE2DE5CB82A9AE674 SWAP1 SWAP2 ADD SSTORE JUMP JUMPDEST PUSH2 0x41D5 PUSH2 0x4797 JUMP JUMPDEST PUSH2 0x7CD DUP4 DUP4 DUP4 PUSH2 0x53A5 JUMP JUMPDEST PUSH0 DUP3 PUSH1 0x1 PUSH1 0x1 PUSH1 0xA0 SHL SUB AND PUSH4 0xEE82CFD0 PUSH1 0x40 MLOAD DUP2 PUSH4 0xFFFFFFFF AND PUSH1 0xE0 SHL DUP2 MSTORE PUSH1 0x4 ADD PUSH1 0x20 PUSH1 0x40 MLOAD DUP1 DUP4 SUB DUP2 DUP7 GAS STATICCALL ISZERO DUP1 ISZERO PUSH2 0x421D JUMPI RETURNDATASIZE PUSH0 DUP1 RETURNDATACOPY RETURNDATASIZE PUSH0 REVERT JUMPDEST POP POP POP POP PUSH1 0x40 MLOAD RETURNDATASIZE PUSH1 0x1F NOT PUSH1 0x1F DUP3 ADD AND DUP3 ADD DUP1 PUSH1 0x40 MSTORE POP DUP2 ADD SWAP1 PUSH2 0x4241 SWAP2 SWAP1 PUSH2 0x6E09 JUMP JUMPDEST DUP3 SLOAD SWAP1 SWAP2 POP DUP1 PUSH2 0x429F JUMPI PUSH1 0x40 MLOAD PUSH3 0x461BCD PUSH1 0xE5 SHL DUP2 MSTORE PUSH1 0x20 PUSH1 0x4 DUP3 ADD MSTORE PUSH1 0x23 PUSH1 0x24 DUP3 ADD MSTORE PUSH32 0x4E6F204E6174696F6E616C204469726563746F727320746F2064697374726962 PUSH1 0x44 DUP3 ADD MSTORE PUSH3 0x757465 PUSH1 0xE8 SHL PUSH1 0x64 DUP3 ADD MSTORE PUSH1 0x84 ADD PUSH2 0x6D2 JUMP JUMPDEST PUSH0 PUSH2 0x42AA DUP3 DUP5 PUSH2 0x6CAE JUMP JUMPDEST SWAP1 POP PUSH0 DUP2 GT PUSH2 0x42EF JUMPI PUSH1 0x40 MLOAD PUSH3 0x461BCD PUSH1 0xE5 SHL DUP2 MSTORE PUSH1 0x20 PUSH1 0x4 DUP3 ADD MSTORE PUSH1 0x11 PUSH1 0x24 DUP3 ADD MSTORE PUSH17 0x125B9CDD59999A58DA595B9D081C1BDBDB PUSH1 0x7A SHL PUSH1 0x44 DUP3 ADD MSTORE PUSH1 0x64 ADD PUSH2 0x6D2 JUMP JUMPDEST PUSH1 0x40 MLOAD PUSH4 0x21C2C5D PUSH1 0xE2 SHL DUP2 MSTORE PUSH1 0x4 DUP2 ADD DUP5 SWAP1 MSTORE PUSH1 0x1 PUSH1 0x1 PUSH1 0xA0 SHL SUB DUP7 AND SWAP1 PUSH4 0x870B174 SWAP1 PUSH1 0x24 ADD PUSH0 PUSH1 0x40 MLOAD DUP1 DUP4 SUB DUP2 PUSH0 DUP8 DUP1 EXTCODESIZE ISZERO DUP1 ISZERO PUSH2 0x432E JUMPI PUSH0 DUP1 REVERT JUMPDEST POP GAS CALL ISZERO DUP1 ISZERO PUSH2 0x4340 JUMPI RETURNDATASIZE PUSH0 DUP1 RETURNDATACOPY RETURNDATASIZE PUSH0 REVERT JUMPDEST POP POP POP POP PUSH1 0x60 DUP1 PUSH0 DUP1 JUMPDEST DUP6 DUP2 LT ISZERO PUSH2 0x43E4 JUMPI DUP8 DUP2 DUP2 SLOAD DUP2 LT PUSH2 0x4364 JUMPI PUSH2 0x4364 PUSH2 0x6B0A JUMP JUMPDEST SWAP1 PUSH0 MSTORE PUSH1 0x20 PUSH0 KECCAK256 ADD PUSH0 SWAP1 SLOAD SWAP1 PUSH2 0x100 EXP SWAP1 DIV PUSH1 0x1 PUSH1 0x1 PUSH1 0xA0 SHL SUB AND DUP5 DUP4 DUP2 MLOAD DUP2 LT PUSH2 0x4391 JUMPI PUSH2 0x4391 PUSH2 0x6B0A JUMP JUMPDEST PUSH1 0x20 MUL PUSH1 0x20 ADD ADD SWAP1 PUSH1 0x1 PUSH1 0x1 PUSH1 0xA0 SHL SUB AND SWAP1 DUP2 PUSH1 0x1 PUSH1 0x1 PUSH1 0xA0 SHL SUB AND DUP2 MSTORE POP POP DUP5 DUP4 DUP4 DUP2 MLOAD DUP2 LT PUSH2 0x43C4 JUMPI PUSH2 0x43C4 PUSH2 0x6B0A JUMP JUMPDEST PUSH1 0x20 SWAP1 DUP2 MUL SWAP2 SWAP1 SWAP2 ADD ADD MSTORE DUP2 PUSH2 0x43D9 DUP2 PUSH2 0x6B4B JUMP JUMPDEST SWAP3 POP POP PUSH1 0x1 ADD PUSH2 0x434A JUMP JUMPDEST POP PUSH1 0x40 MLOAD PUSH4 0xBD0DC97 PUSH1 0xE4 SHL DUP2 MSTORE PUSH1 0x1 PUSH1 0x1 PUSH1 0xA0 SHL SUB DUP10 AND SWAP1 PUSH4 0xBD0DC970 SWAP1 PUSH2 0x441B SWAP1 PUSH0 SWAP1 DUP8 SWAP1 DUP8 SWAP1 PUSH1 0x1 SWAP1 PUSH1 0x8 SWAP1 PUSH1 0x4 ADD PUSH2 0x71EB JUMP JUMPDEST PUSH0 PUSH1 0x40 MLOAD DUP1 DUP4 SUB DUP2 PUSH0 DUP8 DUP1 EXTCODESIZE ISZERO DUP1 ISZERO PUSH2 0x4432 JUMPI PUSH0 DUP1 REVERT JUMPDEST POP GAS CALL ISZERO DUP1 ISZERO PUSH2 0x4444 JUMPI RETURNDATASIZE PUSH0 DUP1 RETURNDATACOPY RETURNDATASIZE PUSH0 REVERT JUMPDEST POP POP POP POP POP POP POP POP POP POP POP POP JUMP JUMPDEST PUSH1 0x1 PUSH1 0x1 PUSH1 0xA0 SHL SUB DUP1 DUP3 AND PUSH0 DUP2 DUP2 MSTORE PUSH1 0x20 DUP9 SWAP1 MSTORE PUSH1 0x40 SWAP1 KECCAK256 PUSH1 0x2 ADD SLOAD PUSH1 0xFF AND SWAP2 DUP5 AND SWAP1 SUB PUSH2 0x44A4 JUMPI PUSH0 JUMPDEST PUSH1 0x4 DUP2 PUSH1 0xFF AND LT ISZERO PUSH2 0x449E JUMPI PUSH2 0x4496 DUP7 DUP5 DUP4 PUSH0 DUP1 PUSH0 PUSH2 0x593A JUMP JUMPDEST PUSH1 0x1 ADD PUSH2 0x447C JUMP JUMPDEST POP PUSH2 0x46F3 JUMP JUMPDEST PUSH1 0x5 DUP2 PUSH1 0x7 DUP2 GT ISZERO PUSH2 0x44B8 JUMPI PUSH2 0x44B8 PUSH2 0x664F JUMP JUMPDEST EQ DUP1 PUSH2 0x44D5 JUMPI POP PUSH1 0x6 DUP2 PUSH1 0x7 DUP2 GT ISZERO PUSH2 0x44D3 JUMPI PUSH2 0x44D3 PUSH2 0x664F JUMP JUMPDEST EQ JUMPDEST DUP1 PUSH2 0x44F1 JUMPI POP PUSH1 0x7 DUP2 PUSH1 0x7 DUP2 GT ISZERO PUSH2 0x44EF JUMPI PUSH2 0x44EF PUSH2 0x664F JUMP JUMPDEST EQ JUMPDEST ISZERO PUSH2 0x4623 JUMPI PUSH1 0x1 PUSH1 0x1 PUSH1 0xA0 SHL SUB DUP1 DUP4 AND PUSH0 DUP2 DUP2 MSTORE PUSH1 0x20 DUP8 DUP2 MSTORE PUSH1 0x40 DUP1 DUP4 KECCAK256 DUP1 SLOAD PUSH1 0x1 PUSH1 0x1 PUSH1 0xA0 SHL SUB NOT AND SWAP1 SWAP5 OR SWAP1 SWAP4 SSTORE DUP10 SWAP1 MSTORE KECCAK256 SLOAD AND DUP1 PUSH2 0x4544 JUMPI PUSH1 0x40 MLOAD PUSH3 0x461BCD PUSH1 0xE5 SHL DUP2 MSTORE PUSH1 0x4 ADD PUSH2 0x6D2 SWAP1 PUSH2 0x7253 JUMP JUMPDEST PUSH0 JUMPDEST PUSH1 0x4 DUP2 PUSH1 0xFF AND LT ISZERO PUSH2 0x461C JUMPI PUSH0 DUP1 DUP1 PUSH1 0x7 DUP7 PUSH1 0x7 DUP2 GT ISZERO PUSH2 0x4569 JUMPI PUSH2 0x4569 PUSH2 0x664F JUMP JUMPDEST SUB PUSH2 0x457B JUMPI POP DUP6 SWAP2 POP DUP2 SWAP1 POP DUP1 PUSH2 0x4603 JUMP JUMPDEST PUSH1 0x6 DUP7 PUSH1 0x7 DUP2 GT ISZERO PUSH2 0x458F JUMPI PUSH2 0x458F PUSH2 0x664F JUMP JUMPDEST SUB PUSH2 0x45C9 JUMPI POP POP POP PUSH1 0x1 PUSH1 0x1 PUSH1 0xA0 SHL SUB DUP1 DUP4 AND PUSH0 SWAP1 DUP2 MSTORE PUSH1 0x20 DUP10 DUP2 MSTORE PUSH1 0x40 DUP1 DUP4 KECCAK256 PUSH1 0xFF DUP7 AND DUP5 MSTORE SWAP1 SWAP2 MSTORE SWAP1 KECCAK256 PUSH1 0x2 ADD SLOAD DUP6 SWAP2 DUP3 SWAP2 AND PUSH2 0x4603 JUMP JUMPDEST POP POP POP PUSH1 0x1 PUSH1 0x1 PUSH1 0xA0 SHL SUB DUP3 DUP2 AND PUSH0 SWAP1 DUP2 MSTORE PUSH1 0x20 DUP10 DUP2 MSTORE PUSH1 0x40 DUP1 DUP4 KECCAK256 PUSH1 0xFF DUP7 AND DUP5 MSTORE SWAP1 SWAP2 MSTORE SWAP1 KECCAK256 PUSH1 0x2 DUP2 ADD SLOAD PUSH1 0x1 SWAP1 SWAP2 ADD SLOAD DUP7 SWAP3 SWAP1 DUP2 AND SWAP2 AND JUMPDEST PUSH2 0x4611 DUP11 DUP9 DUP7 DUP7 DUP7 DUP7 PUSH2 0x593A JUMP JUMPDEST POP POP POP PUSH1 0x1 ADD PUSH2 0x4546 JUMP JUMPDEST POP POP PUSH2 0x46F3 JUMP JUMPDEST PUSH1 0x1 PUSH1 0x1 PUSH1 0xA0 SHL SUB DUP1 DUP4 AND PUSH0 SWAP1 DUP2 MSTORE PUSH1 0x20 DUP9 SWAP1 MSTORE PUSH1 0x40 SWAP1 KECCAK256 SLOAD AND DUP1 PUSH2 0x465A JUMPI PUSH1 0x40 MLOAD PUSH3 0x461BCD PUSH1 0xE5 SHL DUP2 MSTORE PUSH1 0x4 ADD PUSH2 0x6D2 SWAP1 PUSH2 0x7253 JUMP JUMPDEST PUSH0 JUMPDEST PUSH1 0x4 DUP2 PUSH1 0xFF AND LT ISZERO PUSH2 0x467C JUMPI PUSH2 0x4674 DUP8 DUP4 DUP7 DUP5 PUSH2 0x59C1 JUMP JUMPDEST PUSH1 0x1 ADD PUSH2 0x465C JUMP JUMPDEST POP PUSH1 0x4 DUP3 PUSH1 0x7 DUP2 GT ISZERO PUSH2 0x4691 JUMPI PUSH2 0x4691 PUSH2 0x664F JUMP JUMPDEST SUB PUSH2 0x46C3 JUMPI PUSH1 0x1 PUSH1 0x1 PUSH1 0xA0 SHL SUB DUP4 AND PUSH0 DUP2 DUP2 MSTORE PUSH1 0x20 DUP8 SWAP1 MSTORE PUSH1 0x40 SWAP1 KECCAK256 DUP1 SLOAD PUSH1 0x1 PUSH1 0x1 PUSH1 0xA0 SHL SUB NOT AND SWAP1 SWAP2 OR SWAP1 SSTORE PUSH2 0x46F1 JUMP JUMPDEST PUSH1 0x1 PUSH1 0x1 PUSH1 0xA0 SHL SUB DUP4 DUP2 AND PUSH0 SWAP1 DUP2 MSTORE PUSH1 0x20 DUP8 SWAP1 MSTORE PUSH1 0x40 SWAP1 KECCAK256 DUP1 SLOAD PUSH1 0x1 PUSH1 0x1 PUSH1 0xA0 SHL SUB NOT AND SWAP2 DUP4 AND SWAP2 SWAP1 SWAP2 OR SWAP1 SSTORE JUMPDEST POP JUMPDEST PUSH1 0x1 PUSH1 0x1 PUSH1 0xA0 SHL SUB DUP3 AND PUSH0 SWAP1 DUP2 MSTORE PUSH1 0x20 DUP8 SWAP1 MSTORE PUSH1 0x40 DUP2 KECCAK256 PUSH1 0x1 ADD SWAP1 JUMPDEST DUP2 SLOAD DUP2 LT ISZERO PUSH2 0x138E JUMPI PUSH2 0x474A DUP9 DUP9 DUP9 DUP9 DUP7 DUP7 DUP2 SLOAD DUP2 LT PUSH2 0x4731 JUMPI PUSH2 0x4731 PUSH2 0x6B0A JUMP JUMPDEST PUSH0 SWAP2 DUP3 MSTORE PUSH1 0x20 SWAP1 SWAP2 KECCAK256 ADD SLOAD PUSH1 0x1 PUSH1 0x1 PUSH1 0xA0 SHL SUB AND PUSH2 0x4452 JUMP JUMPDEST PUSH1 0x1 ADD PUSH2 0x470F JUMP JUMPDEST PUSH2 0x1A55 DUP3 DUP3 PUSH1 0x40 MLOAD PUSH1 0x24 ADD PUSH2 0x4768 SWAP3 SWAP2 SWAP1 PUSH2 0x7286 JUMP JUMPDEST PUSH1 0x40 DUP1 MLOAD PUSH1 0x1F NOT DUP2 DUP5 SUB ADD DUP2 MSTORE SWAP2 SWAP1 MSTORE PUSH1 0x20 DUP2 ADD DUP1 MLOAD PUSH1 0x1 PUSH1 0x1 PUSH1 0xE0 SHL SUB AND PUSH4 0x9710A9D PUSH1 0xE4 SHL OR SWAP1 MSTORE PUSH2 0x5A72 JUMP JUMPDEST PUSH1 0x11 SLOAD PUSH1 0xFF AND ISZERO PUSH2 0x47E4 JUMPI PUSH1 0x40 MLOAD PUSH3 0x461BCD PUSH1 0xE5 SHL DUP2 MSTORE PUSH1 0x20 PUSH1 0x4 DUP3 ADD MSTORE PUSH1 0x17 PUSH1 0x24 DUP3 ADD MSTORE PUSH23 0x4261746368207570646174652069732072756E6E696E67 PUSH1 0x48 SHL PUSH1 0x44 DUP3 ADD MSTORE PUSH1 0x64 ADD PUSH2 0x6D2 JUMP JUMPDEST PUSH0 JUMPDEST PUSH1 0xF SLOAD DUP2 LT ISZERO PUSH2 0x48AE JUMPI PUSH2 0x48A6 PUSH1 0xF DUP3 DUP2 SLOAD DUP2 LT PUSH2 0x4806 JUMPI PUSH2 0x4806 PUSH2 0x6B0A JUMP JUMPDEST PUSH0 SWAP2 DUP3 MSTORE PUSH1 0x20 SWAP1 SWAP2 KECCAK256 PUSH1 0x5 SWAP1 SWAP2 MUL ADD SLOAD PUSH1 0xF DUP1 SLOAD PUSH1 0x1 PUSH1 0x1 PUSH1 0xA0 SHL SUB SWAP1 SWAP3 AND SWAP2 DUP5 SWAP1 DUP2 LT PUSH2 0x4836 JUMPI PUSH2 0x4836 PUSH2 0x6B0A JUMP JUMPDEST SWAP1 PUSH0 MSTORE PUSH1 0x20 PUSH0 KECCAK256 SWAP1 PUSH1 0x5 MUL ADD PUSH1 0x1 ADD PUSH0 SWAP1 SLOAD SWAP1 PUSH2 0x100 EXP SWAP1 DIV PUSH1 0x1 PUSH1 0x1 PUSH1 0xA0 SHL SUB AND PUSH1 0xF DUP5 DUP2 SLOAD DUP2 LT PUSH2 0x486B JUMPI PUSH2 0x486B PUSH2 0x6B0A JUMP JUMPDEST SWAP1 PUSH0 MSTORE PUSH1 0x20 PUSH0 KECCAK256 SWAP1 PUSH1 0x5 MUL ADD PUSH1 0x2 ADD SLOAD PUSH1 0xF DUP6 DUP2 SLOAD DUP2 LT PUSH2 0x488E JUMPI PUSH2 0x488E PUSH2 0x6B0A JUMP JUMPDEST SWAP1 PUSH0 MSTORE PUSH1 0x20 PUSH0 KECCAK256 SWAP1 PUSH1 0x5 MUL ADD PUSH1 0x3 ADD SLOAD PUSH0 DUP1 SHL PUSH2 0x4938 JUMP JUMPDEST PUSH1 0x1 ADD PUSH2 0x47E6 JUMP JUMPDEST POP PUSH2 0x48BA PUSH1 0xF PUSH0 PUSH2 0x62FD JUMP JUMPDEST PUSH0 JUMPDEST PUSH1 0x10 SLOAD DUP2 LT ISZERO PUSH2 0x492C JUMPI PUSH2 0x4924 PUSH1 0x10 DUP3 DUP2 SLOAD DUP2 LT PUSH2 0x48DC JUMPI PUSH2 0x48DC PUSH2 0x6B0A JUMP JUMPDEST PUSH0 SWAP2 DUP3 MSTORE PUSH1 0x20 SWAP1 SWAP2 KECCAK256 PUSH1 0x3 SWAP1 SWAP2 MUL ADD SLOAD PUSH1 0x10 DUP1 SLOAD PUSH1 0x1 PUSH1 0x1 PUSH1 0xA0 SHL SUB SWAP1 SWAP3 AND SWAP2 DUP5 SWAP1 DUP2 LT PUSH2 0x490C JUMPI PUSH2 0x490C PUSH2 0x6B0A JUMP JUMPDEST SWAP1 PUSH0 MSTORE PUSH1 0x20 PUSH0 KECCAK256 SWAP1 PUSH1 0x3 MUL ADD PUSH1 0x1 ADD SLOAD PUSH0 DUP1 SHL PUSH2 0x53A5 JUMP JUMPDEST PUSH1 0x1 ADD PUSH2 0x48BC JUMP JUMPDEST POP PUSH2 0x13D9 PUSH1 0x10 PUSH0 PUSH2 0x631B JUMP JUMPDEST PUSH1 0x1C SLOAD PUSH1 0x40 MLOAD PUSH4 0x7CCE9939 PUSH1 0xE0 SHL DUP2 MSTORE PUSH1 0x4 DUP2 ADD DUP5 SWAP1 MSTORE PUSH1 0x24 DUP2 ADD DUP6 SWAP1 MSTORE PUSH0 SWAP2 PUSH1 0x1 PUSH1 0x1 PUSH1 0xA0 SHL SUB AND SWAP1 PUSH4 0x7CCE9939 SWAP1 PUSH1 0x44 ADD PUSH1 0x20 PUSH1 0x40 MLOAD DUP1 DUP4 SUB DUP2 DUP7 GAS STATICCALL ISZERO DUP1 ISZERO PUSH2 0x4986 JUMPI RETURNDATASIZE PUSH0 DUP1 RETURNDATACOPY RETURNDATASIZE PUSH0 REVERT JUMPDEST POP POP POP POP PUSH1 0x40 MLOAD RETURNDATASIZE PUSH1 0x1F NOT PUSH1 0x1F DUP3 ADD AND DUP3 ADD DUP1 PUSH1 0x40 MSTORE POP DUP2 ADD SWAP1 PUSH2 0x49AA SWAP2 SWAP1 PUSH2 0x6C55 JUMP JUMPDEST PUSH1 0x40 DUP1 MLOAD PUSH1 0x80 DUP2 ADD DUP3 MSTORE PUSH1 0x1 PUSH1 0x1 PUSH1 0xA0 SHL SUB DUP9 DUP2 AND DUP3 MSTORE DUP3 MLOAD PUSH0 DUP1 DUP3 MSTORE PUSH1 0x20 DUP1 DUP4 ADD DUP7 MSTORE DUP1 DUP6 ADD SWAP3 DUP4 MSTORE DUP5 DUP7 ADD DUP3 SWAP1 MSTORE PUSH1 0x60 DUP6 ADD DUP3 SWAP1 MSTORE DUP13 DUP5 AND DUP3 MSTORE PUSH1 0x4 DUP2 MSTORE SWAP5 SWAP1 KECCAK256 DUP4 MLOAD DUP2 SLOAD PUSH1 0x1 PUSH1 0x1 PUSH1 0xA0 SHL SUB NOT AND SWAP4 AND SWAP3 SWAP1 SWAP3 OR DUP3 SSTORE MLOAD DUP1 MLOAD SWAP5 SWAP6 POP SWAP2 SWAP4 SWAP1 SWAP3 PUSH2 0x4A1E SWAP3 PUSH1 0x1 DUP6 ADD SWAP3 SWAP2 ADD SWAP1 PUSH2 0x6339 JUMP JUMPDEST POP PUSH1 0x40 DUP3 ADD MLOAD PUSH1 0x2 DUP3 ADD DUP1 SLOAD PUSH1 0xFF NOT AND PUSH1 0x1 DUP4 PUSH1 0x7 DUP2 GT ISZERO PUSH2 0x4A42 JUMPI PUSH2 0x4A42 PUSH2 0x664F JUMP JUMPDEST MUL OR SWAP1 SSTORE POP PUSH1 0x60 DUP3 ADD MLOAD PUSH1 0x2 DUP3 ADD DUP1 SLOAD PUSH2 0xFF00 NOT AND PUSH2 0x100 DUP4 PUSH1 0x3 DUP2 GT ISZERO PUSH2 0x4A6C JUMPI PUSH2 0x4A6C PUSH2 0x664F JUMP JUMPDEST MUL OR SWAP1 SSTORE POP SWAP1 POP POP PUSH1 0x40 MLOAD DUP1 PUSH1 0xA0 ADD PUSH1 0x40 MSTORE DUP1 TIMESTAMP PUSH4 0x1E13380 PUSH2 0x4A8F SWAP2 SWAP1 PUSH2 0x6AE4 JUMP JUMPDEST DUP2 MSTORE PUSH0 PUSH1 0x20 DUP1 DUP4 ADD DUP3 SWAP1 MSTORE PUSH1 0x40 DUP1 DUP5 ADD DUP4 SWAP1 MSTORE PUSH1 0x60 DUP1 DUP6 ADD DUP5 SWAP1 MSTORE PUSH1 0x80 SWAP5 DUP6 ADD DUP5 SWAP1 MSTORE PUSH1 0x1 PUSH1 0x1 PUSH1 0xA0 SHL SUB DUP13 AND DUP5 MSTORE PUSH1 0x5 DUP4 MSTORE DUP2 DUP5 KECCAK256 DUP7 MLOAD DUP2 SSTORE DUP7 DUP5 ADD MLOAD PUSH1 0x1 DUP3 ADD SSTORE DUP7 DUP4 ADD MLOAD PUSH1 0x2 DUP3 ADD SSTORE SWAP1 DUP7 ADD MLOAD PUSH1 0x3 DUP3 ADD SSTORE SWAP5 SWAP1 SWAP4 ADD MLOAD PUSH1 0x4 SWAP1 SWAP5 ADD SWAP4 SWAP1 SWAP4 SSTORE SWAP1 MLOAD SWAP1 SWAP2 PUSH2 0x4B15 SWAP2 DUP10 SWAP2 ADD PUSH1 0x60 SWAP2 SWAP1 SWAP2 SHL PUSH1 0x1 PUSH1 0x1 PUSH1 0x60 SHL SUB NOT AND DUP2 MSTORE PUSH1 0x14 ADD SWAP1 JUMP JUMPDEST PUSH1 0x40 DUP1 MLOAD DUP1 DUP4 SUB PUSH1 0x1F NOT ADD DUP2 MSTORE SWAP1 DUP3 SWAP1 MSTORE DUP1 MLOAD PUSH1 0x20 SWAP1 SWAP2 ADD KECCAK256 PUSH1 0x1B SLOAD PUSH4 0x180DB04B PUSH1 0xE1 SHL DUP4 MSTORE PUSH1 0x4 DUP4 ADD DUP3 SWAP1 MSTORE SWAP1 SWAP3 POP PUSH0 SWAP2 PUSH1 0x1 PUSH1 0x1 PUSH1 0xA0 SHL SUB SWAP1 SWAP2 AND SWAP1 PUSH4 0x301B6096 SWAP1 PUSH1 0x24 ADD PUSH1 0x20 PUSH1 0x40 MLOAD DUP1 DUP4 SUB DUP2 DUP7 GAS STATICCALL ISZERO DUP1 ISZERO PUSH2 0x4B77 JUMPI RETURNDATASIZE PUSH0 DUP1 RETURNDATACOPY RETURNDATASIZE PUSH0 REVERT JUMPDEST POP POP POP POP PUSH1 0x40 MLOAD RETURNDATASIZE PUSH1 0x1F NOT PUSH1 0x1F DUP3 ADD AND DUP3 ADD DUP1 PUSH1 0x40 MSTORE POP DUP2 ADD SWAP1 PUSH2 0x4B9B SWAP2 SWAP1 PUSH2 0x6C55 JUMP JUMPDEST PUSH1 0x1 PUSH1 0x1 PUSH1 0xA0 SHL SUB AND EQ PUSH2 0x4C0B JUMPI PUSH1 0x1B SLOAD PUSH1 0x40 MLOAD PUSH4 0x590F6187 PUSH1 0xE1 SHL DUP2 MSTORE PUSH1 0x1 PUSH1 0x1 PUSH1 0xA0 SHL SUB SWAP1 SWAP2 AND SWAP1 PUSH4 0xB21EC30E SWAP1 PUSH2 0x4BDD SWAP1 DUP11 SWAP1 DUP10 SWAP1 DUP10 SWAP1 PUSH1 0x4 ADD PUSH2 0x6D45 JUMP JUMPDEST PUSH0 PUSH1 0x40 MLOAD DUP1 DUP4 SUB DUP2 PUSH0 DUP8 DUP1 EXTCODESIZE ISZERO DUP1 ISZERO PUSH2 0x4BF4 JUMPI PUSH0 DUP1 REVERT JUMPDEST POP GAS CALL ISZERO DUP1 ISZERO PUSH2 0x4C06 JUMPI RETURNDATASIZE PUSH0 DUP1 RETURNDATACOPY RETURNDATASIZE PUSH0 REVERT JUMPDEST POP POP POP POP JUMPDEST PUSH1 0x1 PUSH1 0x1 PUSH1 0xA0 SHL SUB DUP3 AND ISZERO PUSH2 0x4C48 JUMPI PUSH1 0x1 PUSH1 0x1 PUSH1 0xA0 SHL SUB DUP8 DUP2 AND PUSH0 SWAP1 DUP2 MSTORE PUSH1 0x6 PUSH1 0x20 MSTORE PUSH1 0x40 SWAP1 KECCAK256 DUP1 SLOAD PUSH1 0x1 PUSH1 0x1 PUSH1 0xA0 SHL SUB NOT AND SWAP2 DUP5 AND SWAP2 SWAP1 SWAP2 OR SWAP1 SSTORE JUMPDEST PUSH1 0x3 DUP1 SLOAD PUSH1 0x1 DUP2 DUP2 ADD SWAP1 SWAP3 SSTORE PUSH32 0xC2575A0E9E593C00F959F8C92F12DB2869C3395A3B0502D05E2516446F71F85B ADD DUP1 SLOAD PUSH1 0x1 PUSH1 0x1 PUSH1 0xA0 SHL SUB DUP1 DUP12 AND PUSH1 0x1 PUSH1 0x1 PUSH1 0xA0 SHL SUB NOT SWAP3 DUP4 AND DUP2 OR SWAP1 SWAP4 SSTORE DUP10 AND PUSH0 DUP2 DUP2 MSTORE PUSH1 0x4 PUSH1 0x20 SWAP1 DUP2 MSTORE PUSH1 0x40 DUP1 DUP4 KECCAK256 DUP8 ADD DUP1 SLOAD DUP1 DUP10 ADD DUP3 SSTORE SWAP1 DUP5 MSTORE DUP3 DUP5 KECCAK256 ADD DUP1 SLOAD SWAP1 SWAP6 AND SWAP1 SWAP6 OR SWAP1 SWAP4 SSTORE SWAP1 DUP2 MSTORE PUSH1 0x7 SWAP1 SWAP2 MSTORE SWAP1 DUP2 KECCAK256 DUP1 SLOAD SWAP1 SWAP2 SWAP1 PUSH2 0x4CDC SWAP1 DUP5 SWAP1 PUSH2 0x6AE4 JUMP JUMPDEST SWAP1 SWAP2 SSTORE POP POP PUSH1 0x1 PUSH1 0x1 PUSH1 0xA0 SHL SUB DUP7 AND PUSH0 SWAP1 DUP2 MSTORE PUSH1 0x9 PUSH1 0x20 MSTORE PUSH1 0x40 DUP2 KECCAK256 DUP1 SLOAD PUSH1 0x1 SWAP3 SWAP1 PUSH2 0x4D09 SWAP1 DUP5 SWAP1 PUSH2 0x6AE4 JUMP JUMPDEST SWAP1 SWAP2 SSTORE POP PUSH1 0x1 SWAP1 POP PUSH1 0x1 PUSH1 0x1 PUSH1 0xA0 SHL SUB DUP8 AND PUSH0 SWAP1 DUP2 MSTORE PUSH1 0x4 PUSH1 0x20 MSTORE PUSH1 0x40 SWAP1 KECCAK256 PUSH1 0x2 ADD SLOAD PUSH2 0x100 SWAP1 DIV PUSH1 0xFF AND PUSH1 0x3 DUP2 GT ISZERO PUSH2 0x4D45 JUMPI PUSH2 0x4D45 PUSH2 0x664F JUMP JUMPDEST EQ PUSH2 0x4D5C JUMPI PUSH2 0x4D57 PUSH1 0x4 PUSH1 0xC DUP9 PUSH2 0x5A92 JUMP JUMPDEST PUSH2 0x4D5E JUMP JUMPDEST DUP6 JUMPDEST PUSH1 0x1 PUSH1 0x1 PUSH1 0xA0 SHL SUB DUP1 DUP10 AND PUSH0 DUP2 DUP2 MSTORE PUSH1 0xC PUSH1 0x20 MSTORE PUSH1 0x40 DUP1 DUP3 KECCAK256 DUP1 SLOAD SWAP6 DUP6 AND PUSH1 0x1 PUSH1 0x1 PUSH1 0xA0 SHL SUB NOT SWAP7 DUP8 AND OR SWAP1 SSTORE PUSH1 0xE DUP1 SLOAD PUSH1 0x1 DUP2 DUP2 ADD DUP4 SSTORE SWAP2 SWAP1 SWAP4 MSTORE PUSH32 0xBB7B4A454DC3493923482F07822329ED19E8244EFF582CC204F8554C3620C3FD SWAP1 SWAP3 ADD DUP1 SLOAD SWAP1 SWAP6 AND SWAP1 SWAP3 OR SWAP1 SWAP4 SSTORE PUSH1 0x1B SLOAD SWAP1 MLOAD PUSH4 0xE115DC7F PUSH1 0xE0 SHL DUP2 MSTORE SWAP2 AND SWAP2 PUSH4 0xE115DC7F SWAP2 PUSH2 0x4DF7 SWAP2 DUP11 SWAP2 DUP9 SWAP2 PUSH1 0xA SWAP2 PUSH1 0x3 SWAP1 PUSH1 0x4 ADD PUSH2 0x6CD1 JUMP JUMPDEST PUSH0 PUSH1 0x40 MLOAD DUP1 DUP4 SUB DUP2 PUSH0 DUP8 DUP1 EXTCODESIZE ISZERO DUP1 ISZERO PUSH2 0x4E0E JUMPI PUSH0 DUP1 REVERT JUMPDEST POP GAS CALL ISZERO DUP1 ISZERO PUSH2 0x4E20 JUMPI RETURNDATASIZE PUSH0 DUP1 RETURNDATACOPY RETURNDATASIZE PUSH0 REVERT JUMPDEST POP POP POP POP PUSH1 0x1 PUSH1 0x1 PUSH1 0xA0 SHL SUB DUP3 AND ISZERO PUSH2 0x4F26 JUMPI PUSH1 0x1C SLOAD PUSH1 0x40 MLOAD PUSH4 0xDA77ABED PUSH1 0xE0 SHL DUP2 MSTORE PUSH0 SWAP2 PUSH1 0x1 PUSH1 0x1 PUSH1 0xA0 SHL SUB AND SWAP1 PUSH4 0xDA77ABED SWAP1 PUSH2 0x4E66 SWAP1 DUP7 SWAP1 PUSH1 0x1 SWAP1 PUSH1 0x4 ADD PUSH2 0x718F JUMP JUMPDEST PUSH1 0x20 PUSH1 0x40 MLOAD DUP1 DUP4 SUB DUP2 PUSH0 DUP8 GAS CALL ISZERO DUP1 ISZERO PUSH2 0x4E82 JUMPI RETURNDATASIZE PUSH0 DUP1 RETURNDATACOPY RETURNDATASIZE PUSH0 REVERT JUMPDEST POP POP POP POP PUSH1 0x40 MLOAD RETURNDATASIZE PUSH1 0x1F NOT PUSH1 0x1F DUP3 ADD AND DUP3 ADD DUP1 PUSH1 0x40 MSTORE POP DUP2 ADD SWAP1 PUSH2 0x4EA6 SWAP2 SWAP1 PUSH2 0x6E09 JUMP JUMPDEST PUSH1 0x1B SLOAD SWAP1 SWAP2 POP PUSH1 0x1 PUSH1 0x1 PUSH1 0xA0 SHL SUB AND PUSH4 0xE115DC7F DUP5 DUP7 PUSH1 0x64 PUSH2 0x4EC9 DUP7 PUSH1 0x14 PUSH2 0x7108 JUMP JUMPDEST PUSH2 0x4ED3 SWAP2 SWAP1 PUSH2 0x6CAE JUMP JUMPDEST PUSH1 0x1 PUSH1 0x4 PUSH1 0x40 MLOAD DUP7 PUSH4 0xFFFFFFFF AND PUSH1 0xE0 SHL DUP2 MSTORE PUSH1 0x4 ADD PUSH2 0x4EF7 SWAP6 SWAP5 SWAP4 SWAP3 SWAP2 SWAP1 PUSH2 0x6CD1 JUMP JUMPDEST PUSH0 PUSH1 0x40 MLOAD DUP1 DUP4 SUB DUP2 PUSH0 DUP8 DUP1 EXTCODESIZE ISZERO DUP1 ISZERO PUSH2 0x4F0E JUMPI PUSH0 DUP1 REVERT JUMPDEST POP GAS CALL ISZERO DUP1 ISZERO PUSH2 0x4F20 JUMPI RETURNDATASIZE PUSH0 DUP1 RETURNDATACOPY RETURNDATASIZE PUSH0 REVERT JUMPDEST POP POP POP POP POP JUMPDEST PUSH1 0x1B SLOAD PUSH1 0x16 SLOAD PUSH1 0x1 PUSH1 0x1 PUSH1 0xA0 SHL SUB SWAP2 DUP3 AND SWAP2 PUSH4 0xE115DC7F SWAP2 AND DUP6 PUSH2 0x4F4C PUSH1 0xA PUSH1 0x14 PUSH2 0x6AE4 JUMP JUMPDEST PUSH2 0x4F5D PUSH3 0xF4240 PUSH4 0x2625A00 PUSH2 0x6CAE JUMP JUMPDEST PUSH2 0x4F67 SWAP2 SWAP1 PUSH2 0x6AF7 JUMP JUMPDEST PUSH1 0x1 PUSH1 0x2 PUSH1 0x40 MLOAD DUP7 PUSH4 0xFFFFFFFF AND PUSH1 0xE0 SHL DUP2 MSTORE PUSH1 0x4 ADD PUSH2 0x4F8B SWAP6 SWAP5 SWAP4 SWAP3 SWAP2 SWAP1 PUSH2 0x6CD1 JUMP JUMPDEST PUSH0 PUSH1 0x40 MLOAD DUP1 DUP4 SUB DUP2 PUSH0 DUP8 DUP1 EXTCODESIZE ISZERO DUP1 ISZERO PUSH2 0x4FA2 JUMPI PUSH0 DUP1 REVERT JUMPDEST POP GAS CALL ISZERO DUP1 ISZERO PUSH2 0x4FB4 JUMPI RETURNDATASIZE PUSH0 DUP1 RETURNDATACOPY RETURNDATASIZE PUSH0 REVERT JUMPDEST POP POP POP POP PUSH2 0x5008 PUSH1 0x40 MLOAD DUP1 PUSH1 0x40 ADD PUSH1 0x40 MSTORE DUP1 PUSH1 0x15 DUP2 MSTORE PUSH1 0x20 ADD PUSH21 0x2FB83937B1B2B9B9A732BBA6B2B6B132B91036309D PUSH1 0x59 SHL DUP2 MSTORE POP PUSH1 0xA PUSH1 0x14 PUSH2 0x4FF7 SWAP2 SWAP1 PUSH2 0x6AE4 JUMP JUMPDEST PUSH2 0x1761 PUSH3 0xF4240 PUSH4 0x2625A00 PUSH2 0x6CAE JUMP JUMPDEST POP POP POP POP POP POP POP JUMP JUMPDEST PUSH1 0x1 DUP4 ADD SLOAD DUP2 LT PUSH2 0x505A JUMPI PUSH1 0x40 MLOAD PUSH3 0x461BCD PUSH1 0xE5 SHL DUP2 MSTORE PUSH1 0x20 PUSH1 0x4 DUP3 ADD MSTORE PUSH1 0x13 PUSH1 0x24 DUP3 ADD MSTORE PUSH19 0x125B9D985B1A59081859D95B9D081B195D995B PUSH1 0x6A SHL PUSH1 0x44 DUP3 ADD MSTORE PUSH1 0x64 ADD PUSH2 0x6D2 JUMP JUMPDEST PUSH1 0x1 PUSH1 0x1 PUSH1 0xA0 SHL SUB SWAP1 SWAP2 AND PUSH0 SWAP1 DUP2 MSTORE PUSH1 0x20 SWAP3 SWAP1 SWAP3 MSTORE PUSH1 0x40 SWAP1 SWAP2 KECCAK256 SSTORE JUMP JUMPDEST PUSH1 0x1 PUSH1 0x1 PUSH1 0xA0 SHL SUB DUP2 AND PUSH0 SWAP1 DUP2 MSTORE PUSH1 0x20 DUP5 SWAP1 MSTORE PUSH1 0x40 DUP2 KECCAK256 PUSH1 0x3 ADD SLOAD SWAP1 PUSH2 0x509D DUP7 DUP5 PUSH2 0x5B29 JUMP JUMPDEST SWAP1 POP PUSH3 0x186A0 DUP3 LT ISZERO DUP1 ISZERO PUSH2 0x50B3 JUMPI POP PUSH1 0x7 DUP2 LT ISZERO JUMPDEST ISZERO PUSH2 0x5101 JUMPI PUSH1 0x1 PUSH1 0x1 PUSH1 0xA0 SHL SUB DUP4 AND PUSH0 DUP2 DUP2 MSTORE PUSH1 0x20 DUP9 DUP2 MSTORE PUSH1 0x40 DUP3 KECCAK256 PUSH1 0x2 ADD DUP1 SLOAD PUSH1 0xFF NOT AND PUSH1 0x7 OR SWAP1 SSTORE DUP7 SLOAD PUSH1 0x1 DUP2 ADD DUP9 SSTORE DUP8 DUP4 MSTORE SWAP2 KECCAK256 ADD DUP1 SLOAD PUSH1 0x1 PUSH1 0x1 PUSH1 0xA0 SHL SUB NOT AND SWAP1 SWAP2 OR SWAP1 SSTORE PUSH2 0x185D JUMP JUMPDEST PUSH2 0xC350 DUP3 LT ISZERO DUP1 ISZERO PUSH2 0x5114 JUMPI POP PUSH1 0x6 DUP2 LT ISZERO JUMPDEST ISZERO PUSH2 0x514B JUMPI PUSH1 0x1 PUSH1 0x1 PUSH1 0xA0 SHL SUB DUP4 AND PUSH0 SWAP1 DUP2 MSTORE PUSH1 0x20 DUP8 SWAP1 MSTORE PUSH1 0x40 SWAP1 KECCAK256 PUSH1 0x2 ADD DUP1 SLOAD PUSH1 0x6 SWAP2 SWAP1 PUSH1 0xFF NOT AND PUSH1 0x1 DUP4 JUMPDEST MUL OR SWAP1 SSTORE POP PUSH2 0x185D JUMP JUMPDEST PUSH2 0x61A8 DUP3 LT ISZERO DUP1 ISZERO PUSH2 0x515E JUMPI POP PUSH1 0x5 DUP2 LT ISZERO JUMPDEST ISZERO PUSH2 0x518F JUMPI PUSH1 0x1 PUSH1 0x1 PUSH1 0xA0 SHL SUB DUP4 AND PUSH0 SWAP1 DUP2 MSTORE PUSH1 0x20 DUP8 SWAP1 MSTORE PUSH1 0x40 SWAP1 KECCAK256 PUSH1 0x2 ADD DUP1 SLOAD PUSH1 0x5 SWAP2 SWAP1 PUSH1 0xFF NOT AND PUSH1 0x1 DUP4 PUSH2 0x5141 JUMP JUMPDEST PUSH2 0x2710 DUP3 LT ISZERO DUP1 ISZERO PUSH2 0x51A2 JUMPI POP PUSH1 0x4 DUP2 LT ISZERO JUMPDEST ISZERO PUSH2 0x51D3 JUMPI PUSH1 0x1 PUSH1 0x1 PUSH1 0xA0 SHL SUB DUP4 AND PUSH0 SWAP1 DUP2 MSTORE PUSH1 0x20 DUP8 SWAP1 MSTORE PUSH1 0x40 SWAP1 KECCAK256 PUSH1 0x2 ADD DUP1 SLOAD PUSH1 0x4 SWAP2 SWAP1 PUSH1 0xFF NOT AND PUSH1 0x1 DUP4 PUSH2 0x5141 JUMP JUMPDEST PUSH2 0x1388 DUP3 LT ISZERO DUP1 ISZERO PUSH2 0x51E6 JUMPI POP PUSH1 0x3 DUP2 LT ISZERO JUMPDEST ISZERO PUSH2 0x5217 JUMPI PUSH1 0x1 PUSH1 0x1 PUSH1 0xA0 SHL SUB DUP4 AND PUSH0 SWAP1 DUP2 MSTORE PUSH1 0x20 DUP8 SWAP1 MSTORE PUSH1 0x40 SWAP1 KECCAK256 PUSH1 0x2 ADD DUP1 SLOAD PUSH1 0x3 SWAP2 SWAP1 PUSH1 0xFF NOT AND PUSH1 0x1 DUP4 PUSH2 0x5141 JUMP JUMPDEST PUSH2 0x9C4 DUP3 LT ISZERO DUP1 ISZERO PUSH2 0x522A JUMPI POP PUSH1 0x2 DUP2 LT ISZERO JUMPDEST ISZERO PUSH2 0x5259 JUMPI PUSH1 0x1 PUSH1 0x1 PUSH1 0xA0 SHL SUB DUP4 AND PUSH0 SWAP1 DUP2 MSTORE PUSH1 0x20 DUP8 SWAP1 MSTORE PUSH1 0x40 SWAP1 KECCAK256 PUSH1 0x2 SWAP1 DUP2 ADD DUP1 SLOAD PUSH1 0xFF NOT AND PUSH1 0x1 DUP4 PUSH2 0x5141 JUMP JUMPDEST PUSH1 0x1 DUP2 LT PUSH2 0x185D JUMPI POP POP PUSH1 0x1 PUSH1 0x1 PUSH1 0xA0 SHL SUB AND PUSH0 SWAP1 DUP2 MSTORE PUSH1 0x20 SWAP4 SWAP1 SWAP4 MSTORE POP POP PUSH1 0x40 SWAP1 KECCAK256 PUSH1 0x2 ADD DUP1 SLOAD PUSH1 0xFF NOT AND PUSH1 0x1 OR SWAP1 SSTORE JUMP JUMPDEST PUSH1 0xE SLOAD PUSH0 SWAP1 PUSH1 0x1 PUSH1 0x1 PUSH1 0x40 SHL SUB DUP2 GT ISZERO PUSH2 0x52A8 JUMPI PUSH2 0x52A8 PUSH2 0x644B JUMP JUMPDEST PUSH1 0x40 MLOAD SWAP1 DUP1 DUP3 MSTORE DUP1 PUSH1 0x20 MUL PUSH1 0x20 ADD DUP3 ADD PUSH1 0x40 MSTORE DUP1 ISZERO PUSH2 0x52D1 JUMPI DUP2 PUSH1 0x20 ADD PUSH1 0x20 DUP3 MUL DUP1 CALLDATASIZE DUP4 CALLDATACOPY ADD SWAP1 POP JUMPDEST POP SWAP1 POP PUSH0 DUP1 JUMPDEST PUSH1 0xE SLOAD DUP2 LT ISZERO PUSH2 0x5392 JUMPI PUSH1 0x4 PUSH0 PUSH1 0xE DUP4 DUP2 SLOAD DUP2 LT PUSH2 0x52F7 JUMPI PUSH2 0x52F7 PUSH2 0x6B0A JUMP JUMPDEST PUSH0 SWAP2 DUP3 MSTORE PUSH1 0x20 DUP1 DUP4 KECCAK256 SWAP1 SWAP2 ADD SLOAD PUSH1 0x1 PUSH1 0x1 PUSH1 0xA0 SHL SUB AND DUP4 MSTORE DUP3 ADD SWAP3 SWAP1 SWAP3 MSTORE PUSH1 0x40 ADD DUP2 KECCAK256 PUSH1 0x1 ADD SLOAD SWAP1 SUB PUSH2 0x538A JUMPI PUSH1 0xE DUP2 DUP2 SLOAD DUP2 LT PUSH2 0x5337 JUMPI PUSH2 0x5337 PUSH2 0x6B0A JUMP JUMPDEST SWAP1 PUSH0 MSTORE PUSH1 0x20 PUSH0 KECCAK256 ADD PUSH0 SWAP1 SLOAD SWAP1 PUSH2 0x100 EXP SWAP1 DIV PUSH1 0x1 PUSH1 0x1 PUSH1 0xA0 SHL SUB AND DUP4 DUP4 DUP2 MLOAD DUP2 LT PUSH2 0x5364 JUMPI PUSH2 0x5364 PUSH2 0x6B0A JUMP JUMPDEST PUSH1 0x1 PUSH1 0x1 PUSH1 0xA0 SHL SUB SWAP1 SWAP3 AND PUSH1 0x20 SWAP3 DUP4 MUL SWAP2 SWAP1 SWAP2 ADD SWAP1 SWAP2 ADD MSTORE DUP2 PUSH2 0x5386 DUP2 PUSH2 0x6B4B JUMP JUMPDEST SWAP3 POP POP JUMPDEST PUSH1 0x1 ADD PUSH2 0x52D7 JUMP JUMPDEST POP DUP1 DUP3 MSTORE PUSH2 0x7CD PUSH1 0xE PUSH1 0x20 DUP5 ADD DUP4 PUSH2 0x6339 JUMP JUMPDEST PUSH1 0x1 PUSH1 0x1 PUSH1 0xA0 SHL SUB DUP4 DUP2 AND PUSH0 SWAP1 DUP2 MSTORE PUSH1 0x12 PUSH1 0x20 MSTORE PUSH1 0x40 SWAP1 KECCAK256 SLOAD AND ISZERO PUSH2 0x53E2 JUMPI PUSH1 0x1 PUSH1 0x1 PUSH1 0xA0 SHL SUB SWAP3 DUP4 AND PUSH0 SWAP1 DUP2 MSTORE PUSH1 0x12 PUSH1 0x20 MSTORE PUSH1 0x40 SWAP1 KECCAK256 SLOAD SWAP1 SWAP3 AND SWAP2 JUMPDEST PUSH1 0x1 PUSH1 0x1 PUSH1 0xA0 SHL SUB DUP4 AND PUSH0 SWAP1 DUP2 MSTORE PUSH1 0x5 PUSH1 0x20 MSTORE PUSH1 0x40 DUP2 KECCAK256 PUSH1 0x2 ADD DUP1 SLOAD DUP5 SWAP3 SWAP1 PUSH2 0x540C SWAP1 DUP5 SWAP1 PUSH2 0x6AE4 JUMP JUMPDEST SWAP1 SWAP2 SSTORE POP POP PUSH1 0x1 PUSH1 0x1 PUSH1 0xA0 SHL SUB DUP4 AND PUSH0 SWAP1 DUP2 MSTORE PUSH1 0x8 PUSH1 0x20 MSTORE PUSH1 0x40 DUP2 KECCAK256 DUP1 SLOAD DUP5 SWAP3 SWAP1 PUSH2 0x5438 SWAP1 DUP5 SWAP1 PUSH2 0x6AE4 JUMP JUMPDEST SWAP1 SWAP2 SSTORE POP POP PUSH1 0x1 PUSH1 0x1 PUSH1 0xA0 SHL SUB DUP4 AND PUSH0 SWAP1 DUP2 MSTORE PUSH1 0x20 DUP2 SWAP1 MSTORE PUSH1 0x40 DUP2 KECCAK256 SLOAD DUP4 SWAP1 DUP3 SWAP1 ISZERO PUSH2 0x54A7 JUMPI PUSH2 0x546A PUSH0 DUP8 PUSH1 0x14 PUSH2 0x5BCC JUMP JUMPDEST SWAP3 POP PUSH2 0x3E8 PUSH2 0x547B PUSH2 0x145 DUP8 PUSH2 0x7108 JUMP JUMPDEST PUSH2 0x5485 SWAP2 SWAP1 PUSH2 0x6CAE JUMP JUMPDEST SWAP2 POP PUSH2 0x3E8 PUSH2 0x5496 DUP7 PUSH2 0x113 PUSH2 0x7108 JUMP JUMPDEST PUSH2 0x54A0 SWAP2 SWAP1 PUSH2 0x6CAE JUMP JUMPDEST SWAP1 POP PUSH2 0x54C5 JUMP JUMPDEST PUSH1 0x14 SWAP3 POP PUSH1 0x64 PUSH2 0x54B8 DUP7 PUSH1 0x20 PUSH2 0x7108 JUMP JUMPDEST PUSH2 0x54C2 SWAP2 SWAP1 PUSH2 0x6CAE JUMP JUMPDEST SWAP1 POP JUMPDEST PUSH1 0x2 PUSH1 0x1 PUSH1 0x1 PUSH1 0xA0 SHL SUB DUP8 AND PUSH0 SWAP1 DUP2 MSTORE PUSH1 0x4 PUSH1 0x20 MSTORE PUSH1 0x40 SWAP1 KECCAK256 PUSH1 0x2 ADD SLOAD PUSH2 0x100 SWAP1 DIV PUSH1 0xFF AND PUSH1 0x3 DUP2 GT ISZERO PUSH2 0x54FB JUMPI PUSH2 0x54FB PUSH2 0x664F JUMP JUMPDEST EQ PUSH2 0x557A JUMPI PUSH1 0x1B SLOAD PUSH1 0x1 PUSH1 0x1 PUSH1 0xA0 SHL SUB AND PUSH4 0xE115DC7F DUP8 DUP7 PUSH1 0x64 PUSH2 0x551F DUP9 DUP12 PUSH2 0x7108 JUMP JUMPDEST PUSH2 0x5529 SWAP2 SWAP1 PUSH2 0x6CAE JUMP JUMPDEST PUSH1 0x1 PUSH0 PUSH1 0x40 MLOAD DUP7 PUSH4 0xFFFFFFFF AND PUSH1 0xE0 SHL DUP2 MSTORE PUSH1 0x4 ADD PUSH2 0x554C SWAP6 SWAP5 SWAP4 SWAP3 SWAP2 SWAP1 PUSH2 0x6CD1 JUMP JUMPDEST PUSH0 PUSH1 0x40 MLOAD DUP1 DUP4 SUB DUP2 PUSH0 DUP8 DUP1 EXTCODESIZE ISZERO DUP1 ISZERO PUSH2 0x5563 JUMPI PUSH0 DUP1 REVERT JUMPDEST POP GAS CALL ISZERO DUP1 ISZERO PUSH2 0x5575 JUMPI RETURNDATASIZE PUSH0 DUP1 RETURNDATACOPY RETURNDATASIZE PUSH0 REVERT JUMPDEST POP POP POP POP JUMPDEST PUSH0 PUSH1 0x1 PUSH1 0x1 PUSH1 0x1 PUSH1 0xA0 SHL SUB DUP9 AND PUSH0 SWAP1 DUP2 MSTORE PUSH1 0x4 PUSH1 0x20 MSTORE PUSH1 0x40 SWAP1 KECCAK256 PUSH1 0x2 ADD SLOAD PUSH2 0x100 SWAP1 DIV PUSH1 0xFF AND PUSH1 0x3 DUP2 GT ISZERO PUSH2 0x55B1 JUMPI PUSH2 0x55B1 PUSH2 0x664F JUMP JUMPDEST EQ SWAP1 POP PUSH2 0x55C7 PUSH1 0x4 PUSH1 0x5 PUSH1 0x7 PUSH1 0x8 PUSH1 0xA DUP13 PUSH2 0x37A9 JUMP JUMPDEST POP DUP1 ISZERO DUP1 ISZERO PUSH2 0x5609 JUMPI POP PUSH1 0x1 PUSH1 0x1 PUSH1 0x1 PUSH1 0xA0 SHL SUB DUP9 AND PUSH0 SWAP1 DUP2 MSTORE PUSH1 0x4 PUSH1 0x20 MSTORE PUSH1 0x40 SWAP1 KECCAK256 PUSH1 0x2 ADD SLOAD PUSH2 0x100 SWAP1 DIV PUSH1 0xFF AND PUSH1 0x3 DUP2 GT ISZERO PUSH2 0x5607 JUMPI PUSH2 0x5607 PUSH2 0x664F JUMP JUMPDEST EQ JUMPDEST ISZERO PUSH2 0x561B JUMPI PUSH2 0x561B PUSH1 0x4 PUSH1 0xC DUP10 PUSH2 0x3E3D JUMP JUMPDEST DUP7 PUSH1 0x1 PUSH1 0x1 PUSH1 0xA0 SHL SUB AND PUSH32 0xDF1AC62D04B5B70D0905C8F87D228F5DA1978AB102137D771163B0ADE4EB2FEE DUP8 PUSH1 0x40 MLOAD PUSH2 0x5656 SWAP2 DUP2 MSTORE PUSH1 0x20 ADD SWAP1 JUMP JUMPDEST PUSH1 0x40 MLOAD DUP1 SWAP2 SUB SWAP1 LOG2 PUSH1 0x1B SLOAD PUSH2 0x567C SWAP1 PUSH1 0x4 SWAP1 PUSH1 0xC SWAP1 PUSH1 0x1 PUSH1 0x1 PUSH1 0xA0 SHL SUB AND DUP11 DUP8 DUP11 PUSH2 0x5C17 JUMP JUMPDEST PUSH2 0x5686 DUP8 DUP5 PUSH2 0x5DCA JUMP JUMPDEST PUSH0 PUSH1 0x64 PUSH2 0x5694 PUSH1 0x2 DUP7 PUSH2 0x7108 JUMP JUMPDEST PUSH2 0x569E SWAP2 SWAP1 PUSH2 0x6CAE JUMP JUMPDEST PUSH1 0x1B SLOAD PUSH1 0x40 MLOAD PUSH4 0x43CFF6B PUSH1 0xE3 SHL DUP2 MSTORE PUSH1 0x4 DUP2 ADD DUP4 SWAP1 MSTORE PUSH1 0x24 DUP2 ADD DUP10 SWAP1 MSTORE SWAP2 SWAP3 POP PUSH1 0x1 PUSH1 0x1 PUSH1 0xA0 SHL SUB AND SWAP1 PUSH4 0x21E7FB58 SWAP1 PUSH1 0x44 ADD PUSH0 PUSH1 0x40 MLOAD DUP1 DUP4 SUB DUP2 PUSH0 DUP8 DUP1 EXTCODESIZE ISZERO DUP1 ISZERO PUSH2 0x56E9 JUMPI PUSH0 DUP1 REVERT JUMPDEST POP GAS CALL ISZERO DUP1 ISZERO PUSH2 0x56FB JUMPI RETURNDATASIZE PUSH0 DUP1 RETURNDATACOPY RETURNDATASIZE PUSH0 REVERT JUMPDEST POP POP POP POP PUSH1 0x1 PUSH1 0x1 PUSH1 0xA0 SHL SUB DUP9 DUP2 AND PUSH0 SWAP1 DUP2 MSTORE PUSH1 0x6 PUSH1 0x20 MSTORE PUSH1 0x40 SWAP1 KECCAK256 SLOAD AND DUP1 ISZERO PUSH2 0x5821 JUMPI PUSH1 0x1C SLOAD PUSH1 0x40 MLOAD PUSH4 0xC849C1D PUSH1 0xE4 SHL DUP2 MSTORE PUSH0 SWAP2 PUSH1 0x1 PUSH1 0x1 PUSH1 0xA0 SHL SUB AND SWAP1 PUSH4 0xC849C1D0 SWAP1 PUSH2 0x5751 SWAP1 DUP6 SWAP1 DUP11 SWAP1 PUSH1 0x4 ADD PUSH2 0x718F JUMP JUMPDEST PUSH1 0x20 PUSH1 0x40 MLOAD DUP1 DUP4 SUB DUP2 PUSH0 DUP8 GAS CALL ISZERO DUP1 ISZERO PUSH2 0x576D JUMPI RETURNDATASIZE PUSH0 DUP1 RETURNDATACOPY RETURNDATASIZE PUSH0 REVERT JUMPDEST POP POP POP POP PUSH1 0x40 MLOAD RETURNDATASIZE PUSH1 0x1F NOT PUSH1 0x1F DUP3 ADD AND DUP3 ADD DUP1 PUSH1 0x40 MSTORE POP DUP2 ADD SWAP1 PUSH2 0x5791 SWAP2 SWAP1 PUSH2 0x6E09 JUMP JUMPDEST SWAP1 POP PUSH0 PUSH2 0x2710 DUP3 PUSH2 0x57A3 PUSH1 0x1 DUP11 PUSH2 0x7108 JUMP JUMPDEST PUSH2 0x57AD SWAP2 SWAP1 PUSH2 0x7108 JUMP JUMPDEST PUSH2 0x57B7 SWAP2 SWAP1 PUSH2 0x6CAE JUMP JUMPDEST PUSH1 0x1B SLOAD PUSH1 0x40 MLOAD PUSH4 0xE115DC7F PUSH1 0xE0 SHL DUP2 MSTORE SWAP2 SWAP3 POP PUSH1 0x1 PUSH1 0x1 PUSH1 0xA0 SHL SUB AND SWAP1 PUSH4 0xE115DC7F SWAP1 PUSH2 0x57F1 SWAP1 DUP7 SWAP1 DUP14 SWAP1 DUP7 SWAP1 PUSH1 0x1 SWAP1 PUSH0 SWAP1 PUSH1 0x4 ADD PUSH2 0x6CD1 JUMP JUMPDEST PUSH0 PUSH1 0x40 MLOAD DUP1 DUP4 SUB DUP2 PUSH0 DUP8 DUP1 EXTCODESIZE ISZERO DUP1 ISZERO PUSH2 0x5808 JUMPI PUSH0 DUP1 REVERT JUMPDEST POP GAS CALL ISZERO DUP1 ISZERO PUSH2 0x581A JUMPI RETURNDATASIZE PUSH0 DUP1 RETURNDATACOPY RETURNDATASIZE PUSH0 REVERT JUMPDEST POP POP POP POP POP POP JUMPDEST PUSH1 0x1B SLOAD PUSH2 0x5842 SWAP1 PUSH1 0x4 SWAP1 PUSH1 0xD SWAP1 PUSH1 0xB SWAP1 PUSH1 0x1 PUSH1 0x1 PUSH1 0xA0 SHL SUB AND DUP14 DUP14 DUP14 PUSH2 0x5E44 JUMP JUMPDEST PUSH1 0x1B SLOAD PUSH1 0x15 SLOAD PUSH1 0x1 PUSH1 0x1 PUSH1 0xA0 SHL SUB SWAP2 DUP3 AND SWAP2 PUSH4 0xE115DC7F SWAP2 AND DUP10 PUSH1 0x64 PUSH2 0x5869 PUSH1 0x4 DUP12 PUSH2 0x7108 JUMP JUMPDEST PUSH2 0x5873 SWAP2 SWAP1 PUSH2 0x6CAE JUMP JUMPDEST PUSH1 0x1 DUP1 PUSH1 0x40 MLOAD DUP7 PUSH4 0xFFFFFFFF AND PUSH1 0xE0 SHL DUP2 MSTORE PUSH1 0x4 ADD PUSH2 0x5896 SWAP6 SWAP5 SWAP4 SWAP3 SWAP2 SWAP1 PUSH2 0x6CD1 JUMP JUMPDEST PUSH0 PUSH1 0x40 MLOAD DUP1 DUP4 SUB DUP2 PUSH0 DUP8 DUP1 EXTCODESIZE ISZERO DUP1 ISZERO PUSH2 0x58AD JUMPI PUSH0 DUP1 REVERT JUMPDEST POP GAS CALL ISZERO DUP1 ISZERO PUSH2 0x58BF JUMPI RETURNDATASIZE PUSH0 DUP1 RETURNDATACOPY RETURNDATASIZE PUSH0 REVERT JUMPDEST POP POP PUSH1 0x1B SLOAD PUSH1 0x16 SLOAD PUSH1 0x40 MLOAD PUSH4 0xE115DC7F PUSH1 0xE0 SHL DUP2 MSTORE PUSH1 0x1 PUSH1 0x1 PUSH1 0xA0 SHL SUB SWAP3 DUP4 AND SWAP5 POP PUSH4 0xE115DC7F SWAP4 POP PUSH2 0x5902 SWAP3 SWAP1 SWAP2 AND SWAP1 DUP12 SWAP1 DUP10 SWAP1 PUSH1 0x1 SWAP1 PUSH1 0x2 SWAP1 PUSH1 0x4 ADD PUSH2 0x6CD1 JUMP JUMPDEST PUSH0 PUSH1 0x40 MLOAD DUP1 DUP4 SUB DUP2 PUSH0 DUP8 DUP1 EXTCODESIZE ISZERO DUP1 ISZERO PUSH2 0x5919 JUMPI PUSH0 DUP1 REVERT JUMPDEST POP GAS CALL ISZERO DUP1 ISZERO PUSH2 0x592B JUMPI RETURNDATASIZE PUSH0 DUP1 RETURNDATACOPY RETURNDATASIZE PUSH0 REVERT JUMPDEST POP POP POP POP POP POP POP POP POP POP POP POP POP JUMP JUMPDEST PUSH1 0x40 DUP1 MLOAD PUSH1 0x60 DUP2 ADD DUP3 MSTORE PUSH1 0x1 PUSH1 0x1 PUSH1 0xA0 SHL SUB SWAP5 DUP6 AND DUP2 MSTORE SWAP3 DUP5 AND PUSH1 0x20 DUP1 DUP6 ADD SWAP2 DUP3 MSTORE SWAP3 DUP6 AND DUP5 DUP4 ADD SWAP1 DUP2 MSTORE SWAP7 DUP6 AND PUSH0 SWAP1 DUP2 MSTORE SWAP8 DUP4 MSTORE DUP2 DUP9 KECCAK256 PUSH1 0xFF SWAP1 SWAP7 AND DUP9 MSTORE SWAP5 SWAP1 SWAP2 MSTORE SWAP1 SWAP5 KECCAK256 SWAP4 MLOAD DUP5 SLOAD SWAP1 DUP3 AND PUSH1 0x1 PUSH1 0x1 PUSH1 0xA0 SHL SUB NOT SWAP2 DUP3 AND OR DUP6 SSTORE SWAP2 MLOAD PUSH1 0x1 DUP6 ADD DUP1 SLOAD SWAP2 DUP4 AND SWAP2 DUP5 AND SWAP2 SWAP1 SWAP2 OR SWAP1 SSTORE SWAP2 MLOAD PUSH1 0x2 SWAP1 SWAP4 ADD DUP1 SLOAD SWAP4 SWAP1 SWAP3 AND SWAP3 AND SWAP2 SWAP1 SWAP2 OR SWAP1 SSTORE JUMP JUMPDEST PUSH1 0x1 PUSH1 0x1 PUSH1 0xA0 SHL SUB DUP4 AND ISZERO PUSH2 0x1F28 JUMPI PUSH1 0x1 PUSH1 0x1 PUSH1 0xA0 SHL SUB SWAP3 DUP4 AND PUSH0 SWAP1 DUP2 MSTORE PUSH1 0x20 DUP6 DUP2 MSTORE PUSH1 0x40 DUP1 DUP4 KECCAK256 PUSH1 0xFF SWAP5 SWAP1 SWAP5 AND DUP1 DUP5 MSTORE SWAP4 DUP3 MSTORE DUP1 DUP4 KECCAK256 DUP2 MLOAD PUSH1 0x60 DUP2 ADD DUP4 MSTORE DUP2 SLOAD DUP9 AND DUP2 MSTORE PUSH1 0x1 DUP1 DUP4 ADD SLOAD DUP10 AND DUP3 DUP7 ADD SWAP1 DUP2 MSTORE PUSH1 0x2 SWAP4 DUP5 ADD SLOAD DUP11 AND DUP4 DUP7 ADD SWAP1 DUP2 MSTORE SWAP9 DUP11 AND DUP8 MSTORE SWAP10 DUP6 MSTORE DUP4 DUP7 KECCAK256 SWAP7 DUP7 MSTORE SWAP6 SWAP1 SWAP4 MSTORE SWAP3 KECCAK256 SWAP1 MLOAD DUP2 SLOAD PUSH1 0x1 PUSH1 0x1 PUSH1 0xA0 SHL SUB NOT SWAP1 DUP2 AND SWAP2 DUP8 AND SWAP2 SWAP1 SWAP2 OR DUP3 SSTORE SWAP6 MLOAD SWAP3 DUP2 ADD DUP1 SLOAD DUP8 AND SWAP4 DUP7 AND SWAP4 SWAP1 SWAP4 OR SWAP1 SWAP3 SSTORE SWAP2 MLOAD SWAP2 ADD DUP1 SLOAD SWAP1 SWAP4 AND SWAP2 AND OR SWAP1 SSTORE JUMP JUMPDEST DUP1 MLOAD PUSH11 0x636F6E736F6C652E6C6F67 PUSH1 0x20 DUP4 ADD PUSH0 DUP1 DUP5 DUP4 DUP6 GAS STATICCALL POP POP POP POP POP JUMP JUMPDEST PUSH1 0x1 PUSH1 0x1 PUSH1 0xA0 SHL SUB DUP1 DUP3 AND PUSH0 SWAP1 DUP2 MSTORE PUSH1 0x20 DUP6 SWAP1 MSTORE PUSH1 0x40 DUP2 KECCAK256 SLOAD SWAP1 SWAP2 AND JUMPDEST PUSH1 0x1 PUSH1 0x1 PUSH1 0xA0 SHL SUB DUP2 AND ISZERO PUSH2 0x5B1F JUMPI PUSH1 0x1 PUSH1 0x1 PUSH1 0x1 PUSH1 0xA0 SHL SUB DUP3 AND PUSH0 SWAP1 DUP2 MSTORE PUSH1 0x20 DUP8 SWAP1 MSTORE PUSH1 0x40 SWAP1 KECCAK256 PUSH1 0x2 ADD SLOAD PUSH2 0x100 SWAP1 DIV PUSH1 0xFF AND PUSH1 0x3 DUP2 GT ISZERO PUSH2 0x5AF4 JUMPI PUSH2 0x5AF4 PUSH2 0x664F JUMP JUMPDEST SUB PUSH2 0x5B00 JUMPI SWAP1 POP PUSH2 0x18D7 JUMP JUMPDEST PUSH1 0x1 PUSH1 0x1 PUSH1 0xA0 SHL SUB SWAP1 DUP2 AND PUSH0 SWAP1 DUP2 MSTORE PUSH1 0x20 DUP6 SWAP1 MSTORE PUSH1 0x40 SWAP1 KECCAK256 SLOAD AND PUSH2 0x5AAF JUMP JUMPDEST POP PUSH0 SWAP5 SWAP4 POP POP POP POP JUMP JUMPDEST PUSH1 0x1 PUSH1 0x1 PUSH1 0xA0 SHL SUB DUP2 AND PUSH0 SWAP1 DUP2 MSTORE PUSH1 0x20 DUP4 SWAP1 MSTORE PUSH1 0x40 DUP2 KECCAK256 DUP2 SWAP1 PUSH1 0x1 ADD DUP2 JUMPDEST DUP2 SLOAD DUP2 LT ISZERO PUSH2 0x5BC2 JUMPI PUSH1 0x1 DUP7 PUSH0 DUP5 DUP5 DUP2 SLOAD DUP2 LT PUSH2 0x5B66 JUMPI PUSH2 0x5B66 PUSH2 0x6B0A JUMP JUMPDEST PUSH0 SWAP2 DUP3 MSTORE PUSH1 0x20 DUP1 DUP4 KECCAK256 SWAP1 SWAP2 ADD SLOAD PUSH1 0x1 PUSH1 0x1 PUSH1 0xA0 SHL SUB AND DUP4 MSTORE DUP3 ADD SWAP3 SWAP1 SWAP3 MSTORE PUSH1 0x40 ADD SWAP1 KECCAK256 PUSH1 0x2 ADD SLOAD PUSH1 0xFF PUSH2 0x100 SWAP1 SWAP2 DIV AND PUSH1 0x3 DUP2 GT ISZERO PUSH2 0x5BA7 JUMPI PUSH2 0x5BA7 PUSH2 0x664F JUMP JUMPDEST SUB PUSH2 0x5BBA JUMPI DUP3 PUSH2 0x5BB6 DUP2 PUSH2 0x6B4B JUMP JUMPDEST SWAP4 POP POP JUMPDEST PUSH1 0x1 ADD PUSH2 0x5B47 JUMP JUMPDEST POP SWAP1 SWAP5 SWAP4 POP POP POP POP JUMP JUMPDEST PUSH1 0x1 PUSH1 0x1 PUSH1 0xA0 SHL SUB DUP3 AND PUSH0 SWAP1 DUP2 MSTORE PUSH1 0x20 DUP5 SWAP1 MSTORE PUSH1 0x40 DUP2 KECCAK256 SLOAD DUP1 PUSH2 0x5BEF JUMPI DUP3 PUSH2 0x5C0E JUMP JUMPDEST DUP5 PUSH1 0x1 ADD DUP2 DUP2 SLOAD DUP2 LT PUSH2 0x5C04 JUMPI PUSH2 0x5C04 PUSH2 0x6B0A JUMP JUMPDEST SWAP1 PUSH0 MSTORE PUSH1 0x20 PUSH0 KECCAK256 ADD SLOAD JUMPDEST SWAP6 SWAP5 POP POP POP POP POP JUMP JUMPDEST PUSH1 0x1 PUSH1 0x1 PUSH1 0xA0 SHL SUB DUP1 DUP5 AND PUSH0 SWAP1 DUP2 MSTORE PUSH1 0x20 DUP8 SWAP1 MSTORE PUSH1 0x40 DUP2 KECCAK256 SLOAD SWAP1 SWAP2 AND SWAP1 PUSH1 0x1 SWAP1 PUSH1 0x60 SWAP1 DUP2 SWAP1 JUMPDEST PUSH1 0x5 DUP5 PUSH1 0xFF AND GT ISZERO DUP1 ISZERO PUSH2 0x5C59 JUMPI POP PUSH1 0x1 PUSH1 0x1 PUSH1 0xA0 SHL SUB DUP6 AND ISZERO ISZERO JUMPDEST ISZERO PUSH2 0x5D5A JUMPI PUSH0 DUP5 PUSH1 0xFF AND PUSH1 0x1 EQ PUSH2 0x5C71 JUMPI PUSH1 0x5 PUSH2 0x5C74 JUMP JUMPDEST PUSH1 0xA JUMPDEST SWAP1 POP PUSH0 PUSH1 0x64 PUSH2 0x5C83 DUP4 DUP12 PUSH2 0x7108 JUMP JUMPDEST PUSH2 0x5C8D SWAP2 SWAP1 PUSH2 0x6CAE JUMP JUMPDEST SWAP1 POP PUSH1 0x2 PUSH1 0x1 PUSH1 0x1 PUSH1 0xA0 SHL SUB DUP9 AND PUSH0 SWAP1 DUP2 MSTORE PUSH1 0x20 DUP16 SWAP1 MSTORE PUSH1 0x40 SWAP1 KECCAK256 PUSH1 0x2 ADD SLOAD PUSH2 0x100 SWAP1 DIV PUSH1 0xFF AND PUSH1 0x3 DUP2 GT ISZERO PUSH2 0x5CC5 JUMPI PUSH2 0x5CC5 PUSH2 0x664F JUMP JUMPDEST EQ PUSH2 0x5D29 JUMPI DUP7 DUP6 DUP5 DUP2 MLOAD DUP2 LT PUSH2 0x5CDD JUMPI PUSH2 0x5CDD PUSH2 0x6B0A JUMP JUMPDEST PUSH1 0x20 MUL PUSH1 0x20 ADD ADD SWAP1 PUSH1 0x1 PUSH1 0x1 PUSH1 0xA0 SHL SUB AND SWAP1 DUP2 PUSH1 0x1 PUSH1 0x1 PUSH1 0xA0 SHL SUB AND DUP2 MSTORE POP POP DUP1 DUP5 DUP5 DUP2 MLOAD DUP2 LT PUSH2 0x5D10 JUMPI PUSH2 0x5D10 PUSH2 0x6B0A JUMP JUMPDEST PUSH1 0x20 SWAP1 DUP2 MUL SWAP2 SWAP1 SWAP2 ADD ADD MSTORE DUP3 PUSH2 0x5D25 DUP2 PUSH2 0x6B4B JUMP JUMPDEST SWAP4 POP POP JUMPDEST PUSH1 0x1 PUSH1 0x1 PUSH1 0xA0 SHL SUB SWAP7 DUP8 AND PUSH0 SWAP1 DUP2 MSTORE PUSH1 0x20 DUP14 SWAP1 MSTORE PUSH1 0x40 SWAP1 KECCAK256 SLOAD SWAP1 SWAP7 AND SWAP6 DUP6 PUSH2 0x5D50 DUP2 PUSH2 0x70C4 JUMP JUMPDEST SWAP7 POP POP POP POP PUSH2 0x5C3D JUMP JUMPDEST PUSH1 0x40 MLOAD PUSH4 0xBD0DC97 PUSH1 0xE4 SHL DUP2 MSTORE PUSH1 0x1 PUSH1 0x1 PUSH1 0xA0 SHL SUB DUP11 AND SWAP1 PUSH4 0xBD0DC970 SWAP1 PUSH2 0x5D90 SWAP1 DUP10 SWAP1 DUP8 SWAP1 DUP8 SWAP1 PUSH1 0x1 SWAP1 PUSH1 0x6 SWAP1 PUSH1 0x4 ADD PUSH2 0x71EB JUMP JUMPDEST PUSH0 PUSH1 0x40 MLOAD DUP1 DUP4 SUB DUP2 PUSH0 DUP8 DUP1 EXTCODESIZE ISZERO DUP1 ISZERO PUSH2 0x5DA7 JUMPI PUSH0 DUP1 REVERT JUMPDEST POP GAS CALL ISZERO DUP1 ISZERO PUSH2 0x5DB9 JUMPI RETURNDATASIZE PUSH0 DUP1 RETURNDATACOPY RETURNDATASIZE PUSH0 REVERT JUMPDEST POP POP POP POP POP POP POP POP POP POP POP POP POP POP POP JUMP JUMPDEST PUSH1 0x1 PUSH1 0x1 PUSH1 0xA0 SHL SUB DUP3 AND PUSH0 SWAP1 DUP2 MSTORE PUSH1 0x19 PUSH1 0x20 MSTORE PUSH1 0x40 SWAP1 KECCAK256 PUSH1 0x1 ADD SLOAD PUSH1 0xFF AND PUSH2 0x5E14 JUMPI PUSH1 0x1 PUSH1 0x1 PUSH1 0xA0 SHL SUB DUP3 AND PUSH0 SWAP1 DUP2 MSTORE PUSH1 0x19 PUSH1 0x20 MSTORE PUSH1 0x40 SWAP1 KECCAK256 PUSH1 0x1 SWAP1 DUP2 ADD DUP1 SLOAD PUSH1 0xFF NOT AND SWAP1 SWAP2 OR SWAP1 SSTORE JUMPDEST PUSH1 0x1 PUSH1 0x1 PUSH1 0xA0 SHL SUB DUP3 AND PUSH0 SWAP1 DUP2 MSTORE PUSH1 0x19 PUSH1 0x20 MSTORE PUSH1 0x40 DUP2 KECCAK256 DUP1 SLOAD DUP4 SWAP3 SWAP1 PUSH2 0x5E3B SWAP1 DUP5 SWAP1 PUSH2 0x6AE4 JUMP JUMPDEST SWAP1 SWAP2 SSTORE POP POP POP POP JUMP JUMPDEST PUSH1 0x1 PUSH1 0x1 PUSH1 0xA0 SHL SUB DUP1 DUP5 AND PUSH0 SWAP1 DUP2 MSTORE PUSH1 0x20 DUP10 SWAP1 MSTORE PUSH1 0x40 DUP2 KECCAK256 SLOAD SWAP1 SWAP2 AND SWAP1 PUSH2 0x5E6B DUP10 DUP7 PUSH2 0x5FA6 JUMP JUMPDEST PUSH1 0x1 PUSH1 0x1 PUSH1 0xA0 SHL SUB DUP7 AND PUSH0 SWAP1 DUP2 MSTORE PUSH1 0x20 DUP12 SWAP1 MSTORE PUSH1 0x40 DUP2 KECCAK256 PUSH1 0x2 ADD SLOAD SWAP2 SWAP3 POP PUSH1 0xFF SWAP2 DUP3 AND SWAP2 DUP2 SWAP1 DUP2 SWAP1 DUP2 SWAP1 DUP7 AND ISZERO PUSH2 0x5F3C JUMPI PUSH0 SWAP4 POP PUSH1 0x5 DUP6 PUSH1 0x7 DUP2 GT ISZERO PUSH2 0x5EB3 JUMPI PUSH2 0x5EB3 PUSH2 0x664F JUMP JUMPDEST SUB PUSH2 0x5EF3 JUMPI POP POP PUSH1 0x1 PUSH1 0x1 PUSH1 0xA0 SHL SUB DUP6 DUP2 AND PUSH0 SWAP1 DUP2 MSTORE PUSH1 0x20 DUP14 DUP2 MSTORE PUSH1 0x40 DUP1 DUP4 KECCAK256 PUSH1 0xFF DUP10 AND DUP5 MSTORE SWAP1 SWAP2 MSTORE SWAP1 KECCAK256 PUSH1 0x1 DUP2 ADD SLOAD PUSH1 0x2 SWAP1 SWAP2 ADD SLOAD SWAP1 DUP3 AND SWAP2 AND PUSH2 0x5F87 JUMP JUMPDEST PUSH1 0x6 DUP6 PUSH1 0x7 DUP2 GT ISZERO PUSH2 0x5F07 JUMPI PUSH2 0x5F07 PUSH2 0x664F JUMP JUMPDEST SUB PUSH2 0x5F37 JUMPI POP PUSH1 0x1 PUSH1 0x1 PUSH1 0xA0 SHL SUB DUP1 DUP8 AND PUSH0 SWAP1 DUP2 MSTORE PUSH1 0x20 DUP15 DUP2 MSTORE PUSH1 0x40 DUP1 DUP4 KECCAK256 PUSH1 0xFF DUP11 AND DUP5 MSTORE SWAP1 SWAP2 MSTORE SWAP1 KECCAK256 PUSH1 0x2 ADD SLOAD AND JUMPDEST PUSH2 0x5F87 JUMP JUMPDEST POP POP POP POP PUSH1 0x1 PUSH1 0x1 PUSH1 0xA0 SHL SUB DUP4 DUP2 AND PUSH0 SWAP1 DUP2 MSTORE PUSH1 0x20 DUP11 DUP2 MSTORE PUSH1 0x40 DUP1 DUP4 KECCAK256 SLOAD DUP14 DUP4 MSTORE DUP2 DUP5 KECCAK256 PUSH1 0xFF DUP9 AND DUP6 MSTORE SWAP1 SWAP3 MSTORE SWAP1 SWAP2 KECCAK256 DUP1 SLOAD PUSH1 0x1 DUP3 ADD SLOAD PUSH1 0x2 SWAP1 SWAP3 ADD SLOAD SWAP3 DUP5 AND SWAP4 SWAP1 DUP2 AND SWAP3 SWAP2 DUP2 AND SWAP2 AND JUMPDEST PUSH2 0x5F96 DUP12 DUP10 DUP12 DUP8 DUP8 DUP8 DUP8 PUSH2 0x6036 JUMP JUMPDEST POP POP POP POP POP POP POP POP POP POP POP POP POP POP JUMP JUMPDEST PUSH1 0x1 PUSH1 0x1 PUSH1 0xA0 SHL SUB DUP2 AND PUSH0 SWAP1 DUP2 MSTORE PUSH1 0x20 DUP4 SWAP1 MSTORE PUSH1 0x40 DUP2 KECCAK256 PUSH1 0x2 ADD SLOAD PUSH1 0xFF AND PUSH1 0x7 DUP2 PUSH1 0x7 DUP2 GT ISZERO PUSH2 0x5FD8 JUMPI PUSH2 0x5FD8 PUSH2 0x664F JUMP JUMPDEST SUB PUSH2 0x5FE7 JUMPI PUSH1 0x3 SWAP2 POP POP PUSH2 0x106C JUMP JUMPDEST PUSH1 0x6 DUP2 PUSH1 0x7 DUP2 GT ISZERO PUSH2 0x5FFB JUMPI PUSH2 0x5FFB PUSH2 0x664F JUMP JUMPDEST SUB PUSH2 0x600A JUMPI PUSH1 0x2 SWAP2 POP POP PUSH2 0x106C JUMP JUMPDEST PUSH1 0x5 DUP2 PUSH1 0x7 DUP2 GT ISZERO PUSH2 0x601E JUMPI PUSH2 0x601E PUSH2 0x664F JUMP JUMPDEST SUB PUSH2 0x602D JUMPI PUSH1 0x1 SWAP2 POP POP PUSH2 0x106C JUMP JUMPDEST POP PUSH0 SWAP4 SWAP3 POP POP POP JUMP JUMPDEST PUSH1 0x60 DUP1 PUSH0 PUSH1 0x1 PUSH1 0x1 PUSH1 0xA0 SHL SUB DUP8 AND ISZERO PUSH2 0x60B6 JUMPI DUP7 DUP4 DUP3 DUP2 MLOAD DUP2 LT PUSH2 0x605C JUMPI PUSH2 0x605C PUSH2 0x6B0A JUMP JUMPDEST PUSH1 0x1 PUSH1 0x1 PUSH1 0xA0 SHL SUB SWAP1 SWAP3 AND PUSH1 0x20 SWAP3 DUP4 MUL SWAP2 SWAP1 SWAP2 ADD SWAP1 SWAP2 ADD MSTORE PUSH1 0x64 PUSH2 0x6081 PUSH1 0x2 DUP11 PUSH2 0x7108 JUMP JUMPDEST PUSH2 0x608B SWAP2 SWAP1 PUSH2 0x6CAE JUMP JUMPDEST DUP3 DUP3 DUP2 MLOAD DUP2 LT PUSH2 0x609D JUMPI PUSH2 0x609D PUSH2 0x6B0A JUMP JUMPDEST PUSH1 0x20 SWAP1 DUP2 MUL SWAP2 SWAP1 SWAP2 ADD ADD MSTORE DUP1 PUSH2 0x60B2 DUP2 PUSH2 0x6B4B JUMP JUMPDEST SWAP2 POP POP JUMPDEST PUSH1 0x1 PUSH1 0x1 PUSH1 0xA0 SHL SUB DUP7 AND ISZERO PUSH2 0x6132 JUMPI DUP6 DUP4 DUP3 DUP2 MLOAD DUP2 LT PUSH2 0x60D8 JUMPI PUSH2 0x60D8 PUSH2 0x6B0A JUMP JUMPDEST PUSH1 0x1 PUSH1 0x1 PUSH1 0xA0 SHL SUB SWAP1 SWAP3 AND PUSH1 0x20 SWAP3 DUP4 MUL SWAP2 SWAP1 SWAP2 ADD SWAP1 SWAP2 ADD MSTORE PUSH1 0x64 PUSH2 0x60FD PUSH1 0x3 DUP11 PUSH2 0x7108 JUMP JUMPDEST PUSH2 0x6107 SWAP2 SWAP1 PUSH2 0x6CAE JUMP JUMPDEST DUP3 DUP3 DUP2 MLOAD DUP2 LT PUSH2 0x6119 JUMPI PUSH2 0x6119 PUSH2 0x6B0A JUMP JUMPDEST PUSH1 0x20 SWAP1 DUP2 MUL SWAP2 SWAP1 SWAP2 ADD ADD MSTORE DUP1 PUSH2 0x612E DUP2 PUSH2 0x6B4B JUMP JUMPDEST SWAP2 POP POP JUMPDEST PUSH1 0x1 PUSH1 0x1 PUSH1 0xA0 SHL SUB DUP6 AND ISZERO PUSH2 0x61AE JUMPI DUP5 DUP4 DUP3 DUP2 MLOAD DUP2 LT PUSH2 0x6154 JUMPI PUSH2 0x6154 PUSH2 0x6B0A JUMP JUMPDEST PUSH1 0x1 PUSH1 0x1 PUSH1 0xA0 SHL SUB SWAP1 SWAP3 AND PUSH1 0x20 SWAP3 DUP4 MUL SWAP2 SWAP1 SWAP2 ADD SWAP1 SWAP2 ADD MSTORE PUSH1 0x64 PUSH2 0x6179 PUSH1 0x3 DUP11 PUSH2 0x7108 JUMP JUMPDEST PUSH2 0x6183 SWAP2 SWAP1 PUSH2 0x6CAE JUMP JUMPDEST DUP3 DUP3 DUP2 MLOAD DUP2 LT PUSH2 0x6195 JUMPI PUSH2 0x6195 PUSH2 0x6B0A JUMP JUMPDEST PUSH1 0x20 SWAP1 DUP2 MUL SWAP2 SWAP1 SWAP2 ADD ADD MSTORE DUP1 PUSH2 0x61AA DUP2 PUSH2 0x6B4B JUMP JUMPDEST SWAP2 POP POP JUMPDEST PUSH1 0x1 PUSH1 0x1 PUSH1 0xA0 SHL SUB DUP5 AND ISZERO PUSH2 0x622A JUMPI DUP4 DUP4 DUP3 DUP2 MLOAD DUP2 LT PUSH2 0x61D0 JUMPI PUSH2 0x61D0 PUSH2 0x6B0A JUMP JUMPDEST PUSH1 0x1 PUSH1 0x1 PUSH1 0xA0 SHL SUB SWAP1 SWAP3 AND PUSH1 0x20 SWAP3 DUP4 MUL SWAP2 SWAP1 SWAP2 ADD SWAP1 SWAP2 ADD MSTORE PUSH1 0x64 PUSH2 0x61F5 PUSH1 0x3 DUP11 PUSH2 0x7108 JUMP JUMPDEST PUSH2 0x61FF SWAP2 SWAP1 PUSH2 0x6CAE JUMP JUMPDEST DUP3 DUP3 DUP2 MLOAD DUP2 LT PUSH2 0x6211 JUMPI PUSH2 0x6211 PUSH2 0x6B0A JUMP JUMPDEST PUSH1 0x20 SWAP1 DUP2 MUL SWAP2 SWAP1 SWAP2 ADD ADD MSTORE DUP1 PUSH2 0x6226 DUP2 PUSH2 0x6B4B JUMP JUMPDEST SWAP2 POP POP JUMPDEST DUP3 MLOAD ISZERO PUSH2 0x32CC JUMPI PUSH1 0x40 MLOAD PUSH4 0xBD0DC97 PUSH1 0xE4 SHL DUP2 MSTORE PUSH1 0x1 PUSH1 0x1 PUSH1 0xA0 SHL SUB DUP12 AND SWAP1 PUSH4 0xBD0DC970 SWAP1 PUSH2 0x6267 SWAP1 DUP13 SWAP1 DUP8 SWAP1 DUP8 SWAP1 PUSH1 0x1 SWAP1 PUSH1 0x7 SWAP1 PUSH1 0x4 ADD PUSH2 0x71EB JUMP JUMPDEST PUSH0 PUSH1 0x40 MLOAD DUP1 DUP4 SUB DUP2 PUSH0 DUP8 DUP1 EXTCODESIZE ISZERO DUP1 ISZERO PUSH2 0x627E JUMPI PUSH0 DUP1 REVERT JUMPDEST POP GAS CALL ISZERO DUP1 ISZERO PUSH2 0x5F96 JUMPI RETURNDATASIZE PUSH0 DUP1 RETURNDATACOPY RETURNDATASIZE PUSH0 REVERT JUMPDEST PUSH1 0x40 DUP1 MLOAD PUSH1 0x80 DUP2 ADD DUP3 MSTORE PUSH0 DUP1 DUP3 MSTORE PUSH1 0x60 PUSH1 0x20 DUP4 ADD MSTORE SWAP1 SWAP2 DUP3 ADD SWAP1 DUP2 MSTORE PUSH1 0x20 ADD PUSH0 SWAP1 MSTORE SWAP1 JUMP JUMPDEST PUSH1 0x40 MLOAD DUP1 PUSH1 0xA0 ADD PUSH1 0x40 MSTORE DUP1 PUSH0 DUP2 MSTORE PUSH1 0x20 ADD PUSH0 DUP2 MSTORE PUSH1 0x20 ADD PUSH0 DUP2 MSTORE PUSH1 0x20 ADD PUSH0 DUP2 MSTORE PUSH1 0x20 ADD PUSH0 DUP2 MSTORE POP SWAP1 JUMP JUMPDEST POP DUP1 SLOAD PUSH0 DUP3 SSTORE SWAP1 PUSH0 MSTORE PUSH1 0x20 PUSH0 KECCAK256 SWAP1 DUP2 ADD SWAP1 PUSH2 0x62FA SWAP2 SWAP1 PUSH2 0x639C JUMP JUMPDEST POP JUMP JUMPDEST POP DUP1 SLOAD PUSH0 DUP3 SSTORE PUSH1 0x5 MUL SWAP1 PUSH0 MSTORE PUSH1 0x20 PUSH0 KECCAK256 SWAP1 DUP2 ADD SWAP1 PUSH2 0x62FA SWAP2 SWAP1 PUSH2 0x63B0 JUMP JUMPDEST POP DUP1 SLOAD PUSH0 DUP3 SSTORE PUSH1 0x3 MUL SWAP1 PUSH0 MSTORE PUSH1 0x20 PUSH0 KECCAK256 SWAP1 DUP2 ADD SWAP1 PUSH2 0x62FA SWAP2 SWAP1 PUSH2 0x63F0 JUMP JUMPDEST DUP3 DUP1 SLOAD DUP3 DUP3 SSTORE SWAP1 PUSH0 MSTORE PUSH1 0x20 PUSH0 KECCAK256 SWAP1 DUP2 ADD SWAP3 DUP3 ISZERO PUSH2 0x638C JUMPI SWAP2 PUSH1 0x20 MUL DUP3 ADD JUMPDEST DUP3 DUP2 GT ISZERO PUSH2 0x638C JUMPI DUP3 MLOAD DUP3 SLOAD PUSH1 0x1 PUSH1 0x1 PUSH1 0xA0 SHL SUB NOT AND PUSH1 0x1 PUSH1 0x1 PUSH1 0xA0 SHL SUB SWAP1 SWAP2 AND OR DUP3 SSTORE PUSH1 0x20 SWAP1 SWAP3 ADD SWAP2 PUSH1 0x1 SWAP1 SWAP2 ADD SWAP1 PUSH2 0x6357 JUMP JUMPDEST POP PUSH2 0x6398 SWAP3 SWAP2 POP PUSH2 0x639C JUMP JUMPDEST POP SWAP1 JUMP JUMPDEST JUMPDEST DUP1 DUP3 GT ISZERO PUSH2 0x6398 JUMPI PUSH0 DUP2 SSTORE PUSH1 0x1 ADD PUSH2 0x639D JUMP JUMPDEST JUMPDEST DUP1 DUP3 GT ISZERO PUSH2 0x6398 JUMPI DUP1 SLOAD PUSH1 0x1 PUSH1 0x1 PUSH1 0xA0 SHL SUB NOT SWAP1 DUP2 AND DUP3 SSTORE PUSH1 0x1 DUP3 ADD DUP1 SLOAD SWAP1 SWAP2 AND SWAP1 SSTORE PUSH0 PUSH1 0x2 DUP3 ADD DUP2 SWAP1 SSTORE PUSH1 0x3 DUP3 ADD DUP2 SWAP1 SSTORE PUSH1 0x4 DUP3 ADD SSTORE PUSH1 0x5 ADD PUSH2 0x63B1 JUMP JUMPDEST JUMPDEST DUP1 DUP3 GT ISZERO PUSH2 0x6398 JUMPI DUP1 SLOAD PUSH1 0x1 PUSH1 0x1 PUSH1 0xA0 SHL SUB NOT AND DUP2 SSTORE PUSH0 PUSH1 0x1 DUP3 ADD DUP2 SWAP1 SSTORE PUSH1 0x2 DUP3 ADD SSTORE PUSH1 0x3 ADD PUSH2 0x63F1 JUMP JUMPDEST PUSH1 0x1 PUSH1 0x1 PUSH1 0xA0 SHL SUB DUP2 AND DUP2 EQ PUSH2 0x62FA JUMPI PUSH0 DUP1 REVERT JUMPDEST PUSH0 PUSH1 0x20 DUP3 DUP5 SUB SLT ISZERO PUSH2 0x6440 JUMPI PUSH0 DUP1 REVERT JUMPDEST DUP2 CALLDATALOAD PUSH2 0x18D7 DUP2 PUSH2 0x641C JUMP JUMPDEST PUSH4 0x4E487B71 PUSH1 0xE0 SHL PUSH0 MSTORE PUSH1 0x41 PUSH1 0x4 MSTORE PUSH1 0x24 PUSH0 REVERT JUMPDEST PUSH1 0x40 MLOAD PUSH2 0x120 DUP2 ADD PUSH1 0x1 PUSH1 0x1 PUSH1 0x40 SHL SUB DUP2 GT DUP3 DUP3 LT OR ISZERO PUSH2 0x6482 JUMPI PUSH2 0x6482 PUSH2 0x644B JUMP JUMPDEST PUSH1 0x40 MSTORE SWAP1 JUMP JUMPDEST PUSH1 0x40 MLOAD PUSH2 0x260 DUP2 ADD PUSH1 0x1 PUSH1 0x1 PUSH1 0x40 SHL SUB DUP2 GT DUP3 DUP3 LT OR ISZERO PUSH2 0x6482 JUMPI PUSH2 0x6482 PUSH2 0x644B JUMP JUMPDEST PUSH1 0x40 MLOAD PUSH1 0x1F DUP3 ADD PUSH1 0x1F NOT AND DUP2 ADD PUSH1 0x1 PUSH1 0x1 PUSH1 0x40 SHL SUB DUP2 GT DUP3 DUP3 LT OR ISZERO PUSH2 0x64D3 JUMPI PUSH2 0x64D3 PUSH2 0x644B JUMP JUMPDEST PUSH1 0x40 MSTORE SWAP2 SWAP1 POP JUMP JUMPDEST PUSH0 PUSH1 0x1 PUSH1 0x1 PUSH1 0x40 SHL SUB DUP3 GT ISZERO PUSH2 0x64F3 JUMPI PUSH2 0x64F3 PUSH2 0x644B JUMP JUMPDEST POP PUSH1 0x5 SHL PUSH1 0x20 ADD SWAP1 JUMP JUMPDEST PUSH0 DUP3 PUSH1 0x1F DUP4 ADD SLT PUSH2 0x650C JUMPI PUSH0 DUP1 REVERT JUMPDEST DUP2 CALLDATALOAD PUSH2 0x651F PUSH2 0x651A DUP3 PUSH2 0x64DB JUMP JUMPDEST PUSH2 0x64AB JUMP JUMPDEST DUP1 DUP3 DUP3 MSTORE PUSH1 0x20 DUP3 ADD SWAP2 POP PUSH1 0x20 DUP4 PUSH1 0x5 SHL DUP7 ADD ADD SWAP3 POP DUP6 DUP4 GT ISZERO PUSH2 0x6540 JUMPI PUSH0 DUP1 REVERT JUMPDEST PUSH1 0x20 DUP6 ADD JUMPDEST DUP4 DUP2 LT ISZERO PUSH2 0x655D JUMPI DUP1 CALLDATALOAD DUP4 MSTORE PUSH1 0x20 SWAP3 DUP4 ADD SWAP3 ADD PUSH2 0x6545 JUMP JUMPDEST POP SWAP6 SWAP5 POP POP POP POP POP JUMP JUMPDEST PUSH0 DUP1 PUSH0 PUSH1 0x60 DUP5 DUP7 SUB SLT ISZERO PUSH2 0x6579 JUMPI PUSH0 DUP1 REVERT JUMPDEST DUP4 CALLDATALOAD SWAP3 POP PUSH1 0x20 DUP5 ADD CALLDATALOAD PUSH2 0x658B DUP2 PUSH2 0x641C JUMP JUMPDEST SWAP2 POP PUSH1 0x40 DUP5 ADD CALLDATALOAD PUSH1 0x1 PUSH1 0x1 PUSH1 0x40 SHL SUB DUP2 GT ISZERO PUSH2 0x65A5 JUMPI PUSH0 DUP1 REVERT JUMPDEST PUSH2 0x65B1 DUP7 DUP3 DUP8 ADD PUSH2 0x64FD JUMP JUMPDEST SWAP2 POP POP SWAP3 POP SWAP3 POP SWAP3 JUMP JUMPDEST PUSH1 0xFF DUP2 AND DUP2 EQ PUSH2 0x62FA JUMPI PUSH0 DUP1 REVERT JUMPDEST PUSH0 DUP1 PUSH0 DUP1 PUSH1 0x80 DUP6 DUP8 SUB SLT ISZERO PUSH2 0x65DC JUMPI PUSH0 DUP1 REVERT JUMPDEST DUP5 CALLDATALOAD PUSH2 0x65E7 DUP2 PUSH2 0x641C JUMP JUMPDEST SWAP4 POP PUSH1 0x20 DUP6 ADD CALLDATALOAD PUSH2 0x65F7 DUP2 PUSH2 0x65BB JUMP JUMPDEST SWAP4 SWAP7 SWAP4 SWAP6 POP POP POP POP PUSH1 0x40 DUP3 ADD CALLDATALOAD SWAP2 PUSH1 0x60 ADD CALLDATALOAD SWAP1 JUMP JUMPDEST PUSH0 DUP2 MLOAD DUP1 DUP5 MSTORE PUSH1 0x20 DUP5 ADD SWAP4 POP PUSH1 0x20 DUP4 ADD PUSH0 JUMPDEST DUP3 DUP2 LT ISZERO PUSH2 0x6645 JUMPI DUP2 MLOAD PUSH1 0x1 PUSH1 0x1 PUSH1 0xA0 SHL SUB AND DUP7 MSTORE PUSH1 0x20 SWAP6 DUP7 ADD SWAP6 SWAP1 SWAP2 ADD SWAP1 PUSH1 0x1 ADD PUSH2 0x661E JUMP JUMPDEST POP SWAP4 SWAP5 SWAP4 POP POP POP POP JUMP JUMPDEST PUSH4 0x4E487B71 PUSH1 0xE0 SHL PUSH0 MSTORE PUSH1 0x21 PUSH1 0x4 MSTORE PUSH1 0x24 PUSH0 REVERT JUMPDEST PUSH1 0x8 DUP2 LT PUSH2 0x6673 JUMPI PUSH2 0x6673 PUSH2 0x664F JUMP JUMPDEST SWAP1 MSTORE JUMP JUMPDEST PUSH1 0x4 DUP2 LT PUSH2 0x6673 JUMPI PUSH2 0x6673 PUSH2 0x664F JUMP JUMPDEST DUP1 MLOAD PUSH1 0x1 PUSH1 0x1 PUSH1 0xA0 SHL SUB AND DUP3 MSTORE PUSH1 0x20 DUP1 DUP3 ADD MLOAD PUSH1 0x80 DUP3 DUP6 ADD DUP2 SWAP1 MSTORE DUP2 MLOAD SWAP1 DUP6 ADD DUP2 SWAP1 MSTORE PUSH0 SWAP3 SWAP2 SWAP1 SWAP2 ADD SWAP1 DUP3 SWAP1 PUSH1 0xA0 DUP7 ADD SWAP1 JUMPDEST DUP1 DUP4 LT ISZERO PUSH2 0x66E4 JUMPI DUP4 MLOAD PUSH1 0x1 PUSH1 0x1 PUSH1 0xA0 SHL SUB AND DUP3 MSTORE PUSH1 0x20 SWAP4 DUP5 ADD SWAP4 PUSH1 0x1 SWAP4 SWAP1 SWAP4 ADD SWAP3 SWAP1 SWAP2 ADD SWAP1 PUSH2 0x66B9 JUMP JUMPDEST POP PUSH1 0x40 DUP6 ADD MLOAD SWAP3 POP PUSH2 0x66F9 PUSH1 0x40 DUP8 ADD DUP5 PUSH2 0x6663 JUMP JUMPDEST PUSH1 0x60 DUP6 ADD MLOAD SWAP3 POP PUSH2 0x5C0E PUSH1 0x60 DUP8 ADD DUP5 PUSH2 0x6677 JUMP JUMPDEST DUP1 MLOAD DUP3 MSTORE PUSH1 0x20 DUP2 ADD MLOAD PUSH1 0x20 DUP4 ADD MSTORE PUSH1 0x40 DUP2 ADD MLOAD PUSH1 0x40 DUP4 ADD MSTORE PUSH1 0x60 DUP2 ADD MLOAD PUSH1 0x60 DUP4 ADD MSTORE PUSH1 0x80 DUP2 ADD MLOAD PUSH1 0x80 DUP4 ADD MSTORE POP POP JUMP JUMPDEST PUSH1 0x60 DUP2 MSTORE PUSH0 PUSH2 0x674F PUSH1 0x60 DUP4 ADD DUP7 PUSH2 0x660C JUMP JUMPDEST DUP3 DUP2 SUB PUSH1 0x20 DUP5 ADD MSTORE DUP1 DUP6 MLOAD DUP1 DUP4 MSTORE PUSH1 0x20 DUP4 ADD SWAP2 POP PUSH1 0x20 DUP2 PUSH1 0x5 SHL DUP5 ADD ADD PUSH1 0x20 DUP9 ADD PUSH0 JUMPDEST DUP4 DUP2 LT ISZERO PUSH2 0x67A4 JUMPI PUSH1 0x1F NOT DUP7 DUP5 SUB ADD DUP6 MSTORE PUSH2 0x678E DUP4 DUP4 MLOAD PUSH2 0x6687 JUMP JUMPDEST PUSH1 0x20 SWAP6 DUP7 ADD SWAP6 SWAP1 SWAP4 POP SWAP2 SWAP1 SWAP2 ADD SWAP1 PUSH1 0x1 ADD PUSH2 0x6772 JUMP JUMPDEST POP POP DUP6 DUP2 SUB PUSH1 0x40 DUP8 ADD MSTORE DUP7 MLOAD DUP1 DUP3 MSTORE PUSH1 0x20 SWAP2 DUP3 ADD SWAP5 POP SWAP3 POP DUP7 ADD SWAP1 POP PUSH0 JUMPDEST DUP3 DUP2 LT ISZERO PUSH2 0x67EB JUMPI PUSH2 0x67D5 DUP5 DUP4 MLOAD PUSH2 0x670D JUMP JUMPDEST PUSH1 0xA0 SWAP4 SWAP1 SWAP4 ADD SWAP3 PUSH1 0x20 SWAP2 SWAP1 SWAP2 ADD SWAP1 PUSH1 0x1 ADD PUSH2 0x67C2 JUMP JUMPDEST POP SWAP2 SWAP8 SWAP7 POP POP POP POP POP POP POP JUMP JUMPDEST PUSH0 DUP1 PUSH1 0x40 DUP4 DUP6 SUB SLT ISZERO PUSH2 0x6809 JUMPI PUSH0 DUP1 REVERT JUMPDEST POP POP DUP1 CALLDATALOAD SWAP3 PUSH1 0x20 SWAP1 SWAP2 ADD CALLDATALOAD SWAP2 POP JUMP JUMPDEST PUSH0 DUP1 PUSH0 PUSH1 0x60 DUP5 DUP7 SUB SLT ISZERO PUSH2 0x682A JUMPI PUSH0 DUP1 REVERT JUMPDEST DUP4 CALLDATALOAD PUSH2 0x6835 DUP2 PUSH2 0x641C JUMP JUMPDEST SWAP3 POP PUSH1 0x20 DUP5 ADD CALLDATALOAD PUSH2 0x6845 DUP2 PUSH2 0x641C JUMP JUMPDEST SWAP3 SWAP6 SWAP3 SWAP5 POP POP POP PUSH1 0x40 SWAP2 SWAP1 SWAP2 ADD CALLDATALOAD SWAP1 JUMP JUMPDEST PUSH1 0x1 PUSH1 0x1 PUSH1 0xA0 SHL SUB SWAP2 SWAP1 SWAP2 AND DUP2 MSTORE PUSH1 0x20 ADD SWAP1 JUMP JUMPDEST PUSH0 DUP1 PUSH0 DUP1 PUSH0 PUSH1 0xA0 DUP7 DUP9 SUB SLT ISZERO PUSH2 0x687E JUMPI PUSH0 DUP1 REVERT JUMPDEST DUP6 CALLDATALOAD PUSH2 0x6889 DUP2 PUSH2 0x641C JUMP JUMPDEST SWAP5 POP PUSH1 0x20 DUP7 ADD CALLDATALOAD PUSH2 0x6899 DUP2 PUSH2 0x641C JUMP JUMPDEST SWAP5 SWAP8 SWAP5 SWAP7 POP POP POP POP PUSH1 0x40 DUP4 ADD CALLDATALOAD SWAP3 PUSH1 0x60 DUP2 ADD CALLDATALOAD SWAP3 PUSH1 0x80 SWAP1 SWAP2 ADD CALLDATALOAD SWAP2 POP JUMP JUMPDEST PUSH0 DUP1 PUSH1 0x40 DUP4 DUP6 SUB SLT ISZERO PUSH2 0x68C8 JUMPI PUSH0 DUP1 REVERT JUMPDEST DUP3 CALLDATALOAD SWAP2 POP PUSH1 0x20 DUP4 ADD CALLDATALOAD PUSH1 0x1 PUSH1 0x1 PUSH1 0x40 SHL SUB DUP2 GT ISZERO PUSH2 0x68E4 JUMPI PUSH0 DUP1 REVERT JUMPDEST PUSH2 0x68F0 DUP6 DUP3 DUP7 ADD PUSH2 0x64FD JUMP JUMPDEST SWAP2 POP POP SWAP3 POP SWAP3 SWAP1 POP JUMP JUMPDEST PUSH0 DUP1 PUSH1 0x40 DUP4 DUP6 SUB SLT ISZERO PUSH2 0x690B JUMPI PUSH0 DUP1 REVERT JUMPDEST DUP3 CALLDATALOAD PUSH2 0x6916 DUP2 PUSH2 0x641C JUMP JUMPDEST SWAP5 PUSH1 0x20 SWAP4 SWAP1 SWAP4 ADD CALLDATALOAD SWAP4 POP POP POP JUMP JUMPDEST PUSH0 DUP1 PUSH0 DUP1 PUSH1 0x80 DUP6 DUP8 SUB SLT ISZERO PUSH2 0x6937 JUMPI PUSH0 DUP1 REVERT JUMPDEST DUP5 CALLDATALOAD PUSH2 0x6942 DUP2 PUSH2 0x641C JUMP JUMPDEST SWAP7 PUSH1 0x20 DUP7 ADD CALLDATALOAD SWAP7 POP PUSH1 0x40 DUP7 ADD CALLDATALOAD SWAP6 PUSH1 0x60 ADD CALLDATALOAD SWAP5 POP SWAP3 POP POP POP JUMP JUMPDEST PUSH0 DUP1 PUSH0 PUSH1 0x60 DUP5 DUP7 SUB SLT ISZERO PUSH2 0x696E JUMPI PUSH0 DUP1 REVERT JUMPDEST DUP4 CALLDATALOAD PUSH2 0x6979 DUP2 PUSH2 0x641C JUMP JUMPDEST SWAP6 PUSH1 0x20 DUP6 ADD CALLDATALOAD SWAP6 POP PUSH1 0x40 SWAP1 SWAP5 ADD CALLDATALOAD SWAP4 SWAP3 POP POP POP JUMP JUMPDEST PUSH1 0x20 DUP2 MSTORE PUSH0 PUSH2 0x18D7 PUSH1 0x20 DUP4 ADD DUP5 PUSH2 0x660C JUMP JUMPDEST DUP1 ISZERO ISZERO DUP2 EQ PUSH2 0x62FA JUMPI PUSH0 DUP1 REVERT JUMPDEST PUSH0 PUSH1 0x20 DUP3 DUP5 SUB SLT ISZERO PUSH2 0x69BD JUMPI PUSH0 DUP1 REVERT JUMPDEST DUP2 CALLDATALOAD PUSH2 0x18D7 DUP2 PUSH2 0x69A0 JUMP JUMPDEST PUSH1 0xC0 DUP2 MSTORE PUSH0 PUSH2 0x69DA PUSH1 0xC0 DUP4 ADD DUP6 PUSH2 0x6687 JUMP JUMPDEST SWAP1 POP PUSH2 0x18D7 PUSH1 0x20 DUP4 ADD DUP5 PUSH2 0x670D JUMP JUMPDEST PUSH0 PUSH1 0x20 DUP3 DUP5 SUB SLT ISZERO PUSH2 0x69F9 JUMPI PUSH0 DUP1 REVERT JUMPDEST POP CALLDATALOAD SWAP2 SWAP1 POP JUMP JUMPDEST PUSH1 0x20 DUP1 DUP3 MSTORE DUP2 DUP2 ADD MSTORE PUSH32 0x4F776E61626C653A2063616C6C6572206973206E6F7420746865206F776E6572 PUSH1 0x40 DUP3 ADD MSTORE PUSH1 0x60 ADD SWAP1 JUMP JUMPDEST PUSH1 0x20 DUP1 DUP3 MSTORE PUSH1 0x1D SWAP1 DUP3 ADD MSTORE PUSH32 0x416D6F756E74206D7573742062652067726561746572207468616E2030000000 PUSH1 0x40 DUP3 ADD MSTORE PUSH1 0x60 ADD SWAP1 JUMP JUMPDEST PUSH1 0x20 DUP1 DUP3 MSTORE PUSH1 0x15 SWAP1 DUP3 ADD MSTORE PUSH21 0x10DBDB9D1C9858DD1CC81B9BDD08185B1B1BDDD959 PUSH1 0x5A SHL PUSH1 0x40 DUP3 ADD MSTORE PUSH1 0x60 ADD SWAP1 JUMP JUMPDEST PUSH1 0x20 DUP1 DUP3 MSTORE PUSH1 0x1B SWAP1 DUP3 ADD MSTORE PUSH27 0x14DB585C9D0818DBDB9D1C9858DD1CC81B9BDD08185B1B1BDDD959 PUSH1 0x2A SHL PUSH1 0x40 DUP3 ADD MSTORE PUSH1 0x60 ADD SWAP1 JUMP JUMPDEST PUSH4 0x4E487B71 PUSH1 0xE0 SHL PUSH0 MSTORE PUSH1 0x11 PUSH1 0x4 MSTORE PUSH1 0x24 PUSH0 REVERT JUMPDEST DUP1 DUP3 ADD DUP1 DUP3 GT ISZERO PUSH2 0x106C JUMPI PUSH2 0x106C PUSH2 0x6AD0 JUMP JUMPDEST DUP2 DUP2 SUB DUP2 DUP2 GT ISZERO PUSH2 0x106C JUMPI PUSH2 0x106C PUSH2 0x6AD0 JUMP JUMPDEST PUSH4 0x4E487B71 PUSH1 0xE0 SHL PUSH0 MSTORE PUSH1 0x32 PUSH1 0x4 MSTORE PUSH1 0x24 PUSH0 REVERT JUMPDEST PUSH1 0x20 DUP1 DUP3 MSTORE PUSH1 0x13 SWAP1 DUP3 ADD MSTORE PUSH19 0x92DCECC2D8D2C840E6E8C2E4E840D2DCC8CAF PUSH1 0x6B SHL PUSH1 0x40 DUP3 ADD MSTORE PUSH1 0x60 ADD SWAP1 JUMP JUMPDEST PUSH0 PUSH1 0x1 DUP3 ADD PUSH2 0x6B5C JUMPI PUSH2 0x6B5C PUSH2 0x6AD0 JUMP JUMPDEST POP PUSH1 0x1 ADD SWAP1 JUMP JUMPDEST PUSH1 0x20 DUP1 DUP3 MSTORE PUSH1 0xE SWAP1 DUP3 ADD MSTORE PUSH14 0x53797374656D2075706772616465 PUSH1 0x90 SHL PUSH1 0x40 DUP3 ADD MSTORE PUSH1 0x60 ADD SWAP1 JUMP JUMPDEST PUSH1 0x20 DUP1 DUP3 MSTORE PUSH1 0x13 SWAP1 DUP3 ADD MSTORE PUSH19 0x5573657220616C726561647920657869737473 PUSH1 0x68 SHL PUSH1 0x40 DUP3 ADD MSTORE PUSH1 0x60 ADD SWAP1 JUMP JUMPDEST PUSH1 0x20 DUP1 DUP3 MSTORE PUSH1 0x1A SWAP1 DUP3 ADD MSTORE PUSH26 0x5573657220616C72656164792065786973747320696E2056495 PUSH1 0x34 SHL PUSH1 0x40 DUP3 ADD MSTORE PUSH1 0x60 ADD SWAP1 JUMP JUMPDEST PUSH1 0x20 DUP1 DUP3 MSTORE PUSH1 0x15 SWAP1 DUP3 ADD MSTORE PUSH21 0x14185C995B9D08191BD95CC81B9BDD08195E1A5CDD PUSH1 0x5A SHL PUSH1 0x40 DUP3 ADD MSTORE PUSH1 0x60 ADD SWAP1 JUMP JUMPDEST PUSH1 0x20 DUP1 DUP3 MSTORE PUSH1 0x10 SWAP1 DUP3 ADD MSTORE PUSH16 0x506172656E74206E6F7420616C6C6F77 PUSH1 0x80 SHL PUSH1 0x40 DUP3 ADD MSTORE PUSH1 0x60 ADD SWAP1 JUMP JUMPDEST DUP1 MLOAD PUSH2 0x6C50 DUP2 PUSH2 0x641C JUMP JUMPDEST SWAP2 SWAP1 POP JUMP JUMPDEST PUSH0 PUSH1 0x20 DUP3 DUP5 SUB SLT ISZERO PUSH2 0x6C65 JUMPI PUSH0 DUP1 REVERT JUMPDEST DUP2 MLOAD PUSH2 0x18D7 DUP2 PUSH2 0x641C JUMP JUMPDEST PUSH1 0x20 DUP1 DUP3 MSTORE PUSH1 0x10 SWAP1 DUP3 ADD MSTORE PUSH16 0xE0C2E4CADCE840DCDEE840DAC2E8C6D PUSH1 0x83 SHL PUSH1 0x40 DUP3 ADD MSTORE PUSH1 0x60 ADD SWAP1 JUMP JUMPDEST PUSH4 0x4E487B71 PUSH1 0xE0 SHL PUSH0 MSTORE PUSH1 0x12 PUSH1 0x4 MSTORE PUSH1 0x24 PUSH0 REVERT JUMPDEST PUSH0 DUP3 PUSH2 0x6CBC JUMPI PUSH2 0x6CBC PUSH2 0x6C9A JUMP JUMPDEST POP DIV SWAP1 JUMP JUMPDEST PUSH1 0x9 DUP2 LT PUSH2 0x6673 JUMPI PUSH2 0x6673 PUSH2 0x664F JUMP JUMPDEST PUSH1 0x1 PUSH1 0x1 PUSH1 0xA0 SHL SUB DUP7 AND DUP2 MSTORE PUSH1 0x20 DUP2 ADD DUP6 SWAP1 MSTORE PUSH1 0x40 DUP2 ADD DUP5 SWAP1 MSTORE DUP3 ISZERO ISZERO PUSH1 0x60 DUP3 ADD MSTORE PUSH1 0xA0 DUP2 ADD PUSH2 0x379F PUSH1 0x80 DUP4 ADD DUP5 PUSH2 0x6CC1 JUMP JUMPDEST PUSH1 0x20 DUP1 DUP3 MSTORE PUSH1 0x13 SWAP1 DUP3 ADD MSTORE PUSH19 0x155CD95C88191BD95CC81B9BDD08195E1A5CDD PUSH1 0x6A SHL PUSH1 0x40 DUP3 ADD MSTORE PUSH1 0x60 ADD SWAP1 JUMP JUMPDEST PUSH4 0x4E487B71 PUSH1 0xE0 SHL PUSH0 MSTORE PUSH1 0x31 PUSH1 0x4 MSTORE PUSH1 0x24 PUSH0 REVERT JUMPDEST PUSH1 0x1 PUSH1 0x1 PUSH1 0xA0 SHL SUB SWAP4 SWAP1 SWAP4 AND DUP4 MSTORE PUSH1 0x20 DUP4 ADD SWAP2 SWAP1 SWAP2 MSTORE PUSH1 0x40 DUP3 ADD MSTORE PUSH1 0x60 ADD SWAP1 JUMP JUMPDEST PUSH0 PUSH2 0x120 DUP3 DUP5 SUB SLT DUP1 ISZERO PUSH2 0x6D78 JUMPI PUSH0 DUP1 REVERT JUMPDEST POP PUSH2 0x6D81 PUSH2 0x645F JUMP JUMPDEST DUP3 MLOAD DUP2 MSTORE PUSH1 0x20 DUP1 DUP5 ADD MLOAD SWAP1 DUP3 ADD MSTORE PUSH1 0x40 DUP1 DUP5 ADD MLOAD SWAP1 DUP3 ADD MSTORE PUSH1 0x60 DUP1 DUP5 ADD MLOAD SWAP1 DUP3 ADD MSTORE PUSH1 0x80 DUP1 DUP5 ADD MLOAD SWAP1 DUP3 ADD MSTORE PUSH1 0xA0 DUP1 DUP5 ADD MLOAD SWAP1 DUP3 ADD MSTORE PUSH1 0xC0 DUP1 DUP5 ADD MLOAD SWAP1 DUP3 ADD MSTORE PUSH1 0xE0 DUP1 DUP5 ADD MLOAD SWAP1 DUP3 ADD MSTORE PUSH2 0x100 SWAP3 DUP4 ADD MLOAD SWAP3 DUP2 ADD SWAP3 SWAP1 SWAP3 MSTORE POP SWAP2 SWAP1 POP JUMP JUMPDEST PUSH1 0x20 DUP1 DUP3 MSTORE PUSH1 0x10 SWAP1 DUP3 ADD MSTORE PUSH16 0x77726F6E67206F7264657220436F6465 PUSH1 0x80 SHL PUSH1 0x40 DUP3 ADD MSTORE PUSH1 0x60 ADD SWAP1 JUMP JUMPDEST PUSH0 PUSH1 0x20 DUP3 DUP5 SUB SLT ISZERO PUSH2 0x6E19 JUMPI PUSH0 DUP1 REVERT JUMPDEST POP MLOAD SWAP2 SWAP1 POP JUMP JUMPDEST PUSH1 0x20 DUP1 DUP3 MSTORE PUSH1 0xF SWAP1 DUP3 ADD MSTORE PUSH15 0x13DC99195C881B9BDD08199BDD5B99 PUSH1 0x8A SHL PUSH1 0x40 DUP3 ADD MSTORE PUSH1 0x60 ADD SWAP1 JUMP JUMPDEST PUSH0 DUP3 PUSH1 0x1F DUP4 ADD SLT PUSH2 0x6E58 JUMPI PUSH0 DUP1 REVERT JUMPDEST DUP2 MLOAD PUSH2 0x6E66 PUSH2 0x651A DUP3 PUSH2 0x64DB JUMP JUMPDEST DUP1 DUP3 DUP3 MSTORE PUSH1 0x20 DUP3 ADD SWAP2 POP PUSH1 0x20 DUP4 PUSH1 0x5 SHL DUP7 ADD ADD SWAP3 POP DUP6 DUP4 GT ISZERO PUSH2 0x6E87 JUMPI PUSH0 DUP1 REVERT JUMPDEST PUSH1 0x20 DUP6 ADD JUMPDEST DUP4 DUP2 LT ISZERO PUSH2 0x655D JUMPI DUP1 MLOAD DUP4 MSTORE PUSH1 0x20 SWAP3 DUP4 ADD SWAP3 ADD PUSH2 0x6E8C JUMP JUMPDEST DUP1 MLOAD PUSH2 0x6C50 DUP2 PUSH2 0x65BB JUMP JUMPDEST PUSH0 PUSH1 0x20 DUP3 DUP5 SUB SLT ISZERO PUSH2 0x6EBF JUMPI PUSH0 DUP1 REVERT JUMPDEST DUP2 MLOAD PUSH1 0x1 PUSH1 0x1 PUSH1 0x40 SHL SUB DUP2 GT ISZERO PUSH2 0x6ED4 JUMPI PUSH0 DUP1 REVERT JUMPDEST DUP3 ADD PUSH2 0x260 DUP2 DUP6 SUB SLT ISZERO PUSH2 0x6EE6 JUMPI PUSH0 DUP1 REVERT JUMPDEST PUSH2 0x6EEE PUSH2 0x6488 JUMP JUMPDEST DUP2 MLOAD DUP2 MSTORE PUSH2 0x6EFE PUSH1 0x20 DUP4 ADD PUSH2 0x6C45 JUMP JUMPDEST PUSH1 0x20 DUP3 ADD MSTORE PUSH2 0x6F0F PUSH1 0x40 DUP4 ADD PUSH2 0x6C45 JUMP JUMPDEST PUSH1 0x40 DUP3 ADD MSTORE PUSH1 0x60 DUP3 DUP2 ADD MLOAD SWAP1 DUP3 ADD MSTORE PUSH1 0x80 DUP3 ADD MLOAD PUSH1 0x1 PUSH1 0x1 PUSH1 0x40 SHL SUB DUP2 GT ISZERO PUSH2 0x6F36 JUMPI PUSH0 DUP1 REVERT JUMPDEST PUSH2 0x6F42 DUP7 DUP3 DUP6 ADD PUSH2 0x6E49 JUMP JUMPDEST PUSH1 0x80 DUP4 ADD MSTORE POP PUSH1 0xA0 DUP3 ADD MLOAD PUSH1 0x1 PUSH1 0x1 PUSH1 0x40 SHL SUB DUP2 GT ISZERO PUSH2 0x6F60 JUMPI PUSH0 DUP1 REVERT JUMPDEST PUSH2 0x6F6C DUP7 DUP3 DUP6 ADD PUSH2 0x6E49 JUMP JUMPDEST PUSH1 0xA0 DUP4 ADD MSTORE POP PUSH1 0xC0 DUP3 ADD MLOAD PUSH1 0x1 PUSH1 0x1 PUSH1 0x40 SHL SUB DUP2 GT ISZERO PUSH2 0x6F8A JUMPI PUSH0 DUP1 REVERT JUMPDEST PUSH2 0x6F96 DUP7 DUP3 DUP6 ADD PUSH2 0x6E49 JUMP JUMPDEST PUSH1 0xC0 DUP4 ADD MSTORE POP PUSH1 0xE0 DUP3 ADD MLOAD PUSH1 0x1 PUSH1 0x1 PUSH1 0x40 SHL SUB DUP2 GT ISZERO PUSH2 0x6FB4 JUMPI PUSH0 DUP1 REVERT JUMPDEST PUSH2 0x6FC0 DUP7 DUP3 DUP6 ADD PUSH2 0x6E49 JUMP JUMPDEST PUSH1 0xE0 DUP4 ADD MSTORE POP PUSH2 0x100 DUP3 ADD MLOAD PUSH1 0x1 PUSH1 0x1 PUSH1 0x40 SHL SUB DUP2 GT ISZERO PUSH2 0x6FDF JUMPI PUSH0 DUP1 REVERT JUMPDEST PUSH2 0x6FEB DUP7 DUP3 DUP6 ADD PUSH2 0x6E49 JUMP JUMPDEST PUSH2 0x100 DUP4 ADD MSTORE POP PUSH2 0x120 DUP3 ADD MLOAD PUSH1 0x1 PUSH1 0x1 PUSH1 0x40 SHL SUB DUP2 GT ISZERO PUSH2 0x700B JUMPI PUSH0 DUP1 REVERT JUMPDEST PUSH2 0x7017 DUP7 DUP3 DUP6 ADD PUSH2 0x6E49 JUMP JUMPDEST PUSH2 0x120 DUP4 ADD MSTORE POP PUSH2 0x140 DUP3 ADD MLOAD PUSH1 0x1 PUSH1 0x1 PUSH1 0x40 SHL SUB DUP2 GT ISZERO PUSH2 0x7037 JUMPI PUSH0 DUP1 REVERT JUMPDEST PUSH2 0x7043 DUP7 DUP3 DUP6 ADD PUSH2 0x6E49 JUMP JUMPDEST PUSH2 0x140 DUP4 ADD MSTORE POP PUSH2 0x160 DUP3 DUP2 ADD MLOAD SWAP1 DUP3 ADD MSTORE PUSH2 0x7062 PUSH2 0x180 DUP4 ADD PUSH2 0x6EA4 JUMP JUMPDEST PUSH2 0x180 DUP3 ADD MSTORE PUSH2 0x7075 PUSH2 0x1A0 DUP4 ADD PUSH2 0x6EA4 JUMP JUMPDEST PUSH2 0x1A0 DUP3 ADD MSTORE PUSH2 0x1C0 DUP3 DUP2 ADD MLOAD SWAP1 DUP3 ADD MSTORE PUSH2 0x1E0 DUP1 DUP4 ADD MLOAD SWAP1 DUP3 ADD MSTORE PUSH2 0x200 DUP1 DUP4 ADD MLOAD SWAP1 DUP3 ADD MSTORE PUSH2 0x70A9 PUSH2 0x220 DUP4 ADD PUSH2 0x6EA4 JUMP JUMPDEST PUSH2 0x220 DUP3 ADD MSTORE PUSH2 0x240 SWAP2 DUP3 ADD MLOAD SWAP2 DUP2 ADD SWAP2 SWAP1 SWAP2 MSTORE SWAP4 SWAP3 POP POP POP JUMP JUMPDEST PUSH0 PUSH1 0xFF DUP3 AND PUSH1 0xFF DUP2 SUB PUSH2 0x70D9 JUMPI PUSH2 0x70D9 PUSH2 0x6AD0 JUMP JUMPDEST PUSH1 0x1 ADD SWAP3 SWAP2 POP POP JUMP JUMPDEST PUSH1 0x20 DUP1 DUP3 MSTORE PUSH1 0xC SWAP1 DUP3 ADD MSTORE PUSH12 0x15DC9BDB99C8185B5BDD5B9D PUSH1 0xA2 SHL PUSH1 0x40 DUP3 ADD MSTORE PUSH1 0x60 ADD SWAP1 JUMP JUMPDEST DUP1 DUP3 MUL DUP2 ISZERO DUP3 DUP3 DIV DUP5 EQ OR PUSH2 0x106C JUMPI PUSH2 0x106C PUSH2 0x6AD0 JUMP JUMPDEST PUSH1 0x1 PUSH1 0x1 PUSH1 0xA0 SHL SUB DUP4 AND DUP2 MSTORE PUSH1 0x40 PUSH1 0x20 DUP1 DUP4 ADD DUP3 SWAP1 MSTORE DUP4 MLOAD SWAP2 DUP4 ADD DUP3 SWAP1 MSTORE PUSH0 SWAP2 SWAP1 DUP5 ADD SWAP1 PUSH1 0x60 DUP5 ADD SWAP1 DUP4 JUMPDEST DUP2 DUP2 LT ISZERO PUSH2 0x7168 JUMPI DUP4 MLOAD DUP4 MSTORE PUSH1 0x20 SWAP4 DUP5 ADD SWAP4 SWAP1 SWAP3 ADD SWAP2 PUSH1 0x1 ADD PUSH2 0x714A JUMP JUMPDEST POP SWAP1 SWAP7 SWAP6 POP POP POP POP POP POP JUMP JUMPDEST PUSH0 PUSH1 0x20 DUP3 DUP5 SUB SLT ISZERO PUSH2 0x7184 JUMPI PUSH0 DUP1 REVERT JUMPDEST DUP2 MLOAD PUSH2 0x18D7 DUP2 PUSH2 0x69A0 JUMP JUMPDEST PUSH1 0x1 PUSH1 0x1 PUSH1 0xA0 SHL SUB SWAP3 SWAP1 SWAP3 AND DUP3 MSTORE PUSH1 0x20 DUP3 ADD MSTORE PUSH1 0x40 ADD SWAP1 JUMP JUMPDEST PUSH1 0x1 PUSH1 0x1 PUSH1 0x60 SHL SUB NOT PUSH1 0x60 SWAP4 DUP5 SHL DUP2 AND DUP3 MSTORE SWAP2 SWAP1 SWAP3 SHL AND PUSH1 0x14 DUP3 ADD MSTORE PUSH1 0x28 ADD SWAP1 JUMP JUMPDEST PUSH0 PUSH1 0xFF DUP4 AND DUP1 PUSH2 0x71DC JUMPI PUSH2 0x71DC PUSH2 0x6C9A JUMP JUMPDEST DUP1 PUSH1 0xFF DUP5 AND MOD SWAP2 POP POP SWAP3 SWAP2 POP POP JUMP JUMPDEST DUP6 DUP2 MSTORE PUSH1 0xA0 PUSH1 0x20 DUP3 ADD MSTORE PUSH0 PUSH2 0x7203 PUSH1 0xA0 DUP4 ADD DUP8 PUSH2 0x660C JUMP JUMPDEST DUP3 DUP2 SUB PUSH1 0x40 DUP5 ADD MSTORE DUP6 MLOAD DUP1 DUP3 MSTORE PUSH1 0x20 DUP1 DUP9 ADD SWAP3 ADD SWAP1 PUSH0 JUMPDEST DUP2 DUP2 LT ISZERO PUSH2 0x7238 JUMPI DUP4 MLOAD DUP4 MSTORE PUSH1 0x20 SWAP4 DUP5 ADD SWAP4 SWAP1 SWAP3 ADD SWAP2 PUSH1 0x1 ADD PUSH2 0x721A JUMP JUMPDEST POP POP DUP6 ISZERO ISZERO PUSH1 0x60 DUP6 ADD MSTORE SWAP2 POP PUSH2 0x379F SWAP1 POP PUSH1 0x80 DUP4 ADD DUP5 PUSH2 0x6CC1 JUMP JUMPDEST PUSH1 0x20 DUP1 DUP3 MSTORE PUSH1 0x19 SWAP1 DUP3 ADD MSTORE PUSH25 0x506172656E74206C6F737420647572696E6720726573657421 PUSH1 0x38 SHL PUSH1 0x40 DUP3 ADD MSTORE PUSH1 0x60 ADD SWAP1 JUMP JUMPDEST PUSH1 0x40 DUP2 MSTORE PUSH0 DUP4 MLOAD DUP1 PUSH1 0x40 DUP5 ADD MSTORE DUP1 PUSH1 0x20 DUP7 ADD PUSH1 0x60 DUP6 ADD MCOPY PUSH0 PUSH1 0x60 DUP3 DUP6 ADD ADD MSTORE PUSH1 0x60 PUSH1 0x1F NOT PUSH1 0x1F DUP4 ADD AND DUP5 ADD ADD SWAP2 POP POP DUP3 PUSH1 0x20 DUP4 ADD MSTORE SWAP4 SWAP3 POP POP POP JUMP INVALID DUP14 GT ADDMOD 0xE1 SIGNEXTEND 0xCB PUSH29 0x27DDDFC02ED9D693A074039D026CF4EA4240B40F7D581AC8068D1108E1 SIGNEXTEND 0xCB PUSH29 0x27DDDFC02ED9D693A074039D026CF4EA4240B40F7D581AC8058D1108E1 SIGNEXTEND 0xCB PUSH29 0x27DDDFC02ED9D693A074039D026CF4EA4240B40F7D581AC8048D1108E1 SIGNEXTEND 0xCB PUSH29 0x27DDDFC02ED9D693A074039D026CF4EA4240B40F7D581AC8038D1108E1 SIGNEXTEND 0xCB PUSH29 0x27DDDFC02ED9D693A074039D026CF4EA4240B40F7D581AC802A2646970 PUSH7 0x7358221220724D DUP8 RETURN GAS 0xE7 0xAA SMOD DUP12 CALL SWAP2 SLOAD SWAP3 STOP 0xCB SGT OR DUP9 0x1E SWAP4 LOG2 0xD7 SWAP10 EXP PUSH24 0x3224EF5171DF3564736F6C634300081A0033000000000000 "
		},
		"gasEstimates": {
			"creation": {
				"codeDepositCost": "5918400",
				"executionCost": "infinite",
				"totalCost": "infinite"
			},
			"external": {
				"addPromoterMember(address,address,uint256,uint256,bytes32)": "infinite",
				"addVIPMember(address,address,bytes32)": "infinite",
				"balancesManager()": "2778",
				"banUser(address)": "26747",
				"buyProduct(bytes32,bytes32)": "infinite",
				"checkPromoter(address)": "2637",
				"dailyUpdateGenerationRank()": "infinite",
				"distributeNationalBonus()": "infinite",
				"eComOrderManagerAddress()": "2602",
				"eComUserManagerAddress()": "2580",
				"getAddress()": "8999",
				"getChildren(address,uint8,uint256,uint256)": "infinite",
				"getCommissionUSDTInRange(address,uint256,uint256)": "infinite",
				"getPromoterInfo()": "infinite",
				"getVIPInfo()": "7240",
				"getVIPMembers(address,uint256,uint256)": "infinite",
				"hourlyBatchProcessing()": "infinite",
				"isPromoterActive(address)": "5279",
				"isVIP()": "2784",
				"isVIPOrPromoter(address)": "7427",
				"processTeamBPAndActive(uint256,uint256)": "infinite",
				"renewMembership(address,bytes32)": "infinite",
				"resetMonthlyData(uint256,uint256)": "infinite",
				"setAgentLevel(address,uint256)": "29404",
				"setEcomOrder(address)": "27209",
				"setEcomUser(address)": "26681",
				"setLockData(bool)": "29351",
				"setUsdt(address)": "27033",
				"testGetNodeParent(address)": "2758",
				"testGetUserParent(address)": "infinite",
				"updateDeliveryProduct(bytes32)": "infinite",
				"upgradeToPromoter(address,uint256,uint256,bytes32)": "infinite",
				"withdrawBP(uint256,bytes32[])": "infinite",
				"withdrawBPToAnotherUser(uint256,address,bytes32[])": "infinite"
			},
			"internal": {
				"_processNewMember(address,address,uint256,uint256,bytes32)": "infinite",
				"_processPersonalSales(address,uint256,bytes32)": "infinite",
				"processParentRecursively(address)": "infinite",
				"processQueue()": "infinite",
				"recordPersonalSales(address,uint256,bytes32)": "infinite",
				"recordSales(address,uint256)": "50948",
				"updateLeafNodes()": "infinite",
				"withdrawBPToUser(uint256,address,bytes32[] memory)": "infinite"
			}
		},
		"methodIdentifiers": {
			"addPromoterMember(address,address,uint256,uint256,bytes32)": "44b89702",
			"addVIPMember(address,address,bytes32)": "259dbd96",
			"balancesManager()": "667883f1",
			"banUser(address)": "10d86b1f",
			"buyProduct(bytes32,bytes32)": "d7b5a2d4",
			"checkPromoter(address)": "20d996d2",
			"dailyUpdateGenerationRank()": "35b79c3d",
			"distributeNationalBonus()": "2cf899e2",
			"eComOrderManagerAddress()": "432e9d88",
			"eComUserManagerAddress()": "424ad610",
			"getAddress()": "38cc4831",
			"getChildren(address,uint8,uint256,uint256)": "1da0073a",
			"getCommissionUSDTInRange(address,uint256,uint256)": "c2ad61e7",
			"getPromoterInfo()": "e1ab8c6b",
			"getVIPInfo()": "504ed733",
			"getVIPMembers(address,uint256,uint256)": "964b74dd",
			"hourlyBatchProcessing()": "db499bf5",
			"isPromoterActive(address)": "6c0adbbd",
			"isVIP()": "61a475c8",
			"isVIPOrPromoter(address)": "8b59d23e",
			"processTeamBPAndActive(uint256,uint256)": "1f01f30d",
			"renewMembership(address,bytes32)": "b9bcaf02",
			"resetMonthlyData(uint256,uint256)": "bcd565ba",
			"setAgentLevel(address,uint256)": "61474327",
			"setEcomOrder(address)": "8ca8107b",
			"setEcomUser(address)": "08a851b8",
			"setLockData(bool)": "b35cade9",
			"setUsdt(address)": "58979bfe",
			"testGetNodeParent(address)": "38cb9134",
			"testGetUserParent(address)": "4a0328de",
			"updateDeliveryProduct(bytes32)": "e45c1b56",
			"upgradeToPromoter(address,uint256,uint256,bytes32)": "839c7ead",
			"withdrawBP(uint256,bytes32[])": "5f35ca9c",
			"withdrawBPToAnotherUser(uint256,address,bytes32[])": "185807e4"
		}
	},
	"abi": [
		{
			"inputs": [
				{
					"internalType": "address",
					"name": "_ecomOrderAddress",
					"type": "address"
				},
				{
					"internalType": "address",
					"name": "_ecomUserAddress",
					"type": "address"
				},
				{
					"internalType": "address",
					"name": "_balanceManagerAddress",
					"type": "address"
				},
				{
					"internalType": "address",
					"name": "_showroomAddress",
					"type": "address"
				},
				{
					"internalType": "address",
					"name": "_eventLoggerAddress",
					"type": "address"
				},
				{
					"internalType": "address",
					"name": "_rootNodeAddress",
					"type": "address"
				},
				{
					"internalType": "address",
					"name": "_daoNodeAddress",
					"type": "address"
				},
				{
					"internalType": "address",
					"name": "_stockNodeAddress",
					"type": "address"
				},
				{
					"internalType": "address",
					"name": "_usdtAddress",
					"type": "address"
				}
			],
			"stateMutability": "nonpayable",
			"type": "constructor"
		},
		{
			"anonymous": false,
			"inputs": [
				{
					"indexed": true,
					"internalType": "address",
					"name": "user",
					"type": "address"
				},
				{
					"indexed": false,
					"internalType": "uint256",
					"name": "bp",
					"type": "uint256"
				}
			],
			"name": "BPChanged",
			"type": "event"
		},
		{
			"inputs": [
				{
					"internalType": "address",
					"name": "newMember",
					"type": "address"
				},
				{
					"internalType": "address",
					"name": "parent",
					"type": "address"
				},
				{
					"internalType": "uint256",
					"name": "longtitude",
					"type": "uint256"
				},
				{
					"internalType": "uint256",
					"name": "lattitude",
					"type": "uint256"
				},
				{
					"internalType": "bytes32",
					"name": "utxoID",
					"type": "bytes32"
				}
			],
			"name": "addPromoterMember",
			"outputs": [],
			"stateMutability": "nonpayable",
			"type": "function"
		},
		{
			"inputs": [
				{
					"internalType": "address",
					"name": "newMember",
					"type": "address"
				},
				{
					"internalType": "address",
					"name": "parent",
					"type": "address"
				},
				{
					"internalType": "bytes32",
					"name": "utxoID",
					"type": "bytes32"
				}
			],
			"name": "addVIPMember",
			"outputs": [],
			"stateMutability": "nonpayable",
			"type": "function"
		},
		{
			"inputs": [],
			"name": "balancesManager",
			"outputs": [
				{
					"internalType": "contract BalancesManager",
					"name": "",
					"type": "address"
				}
			],
			"stateMutability": "view",
			"type": "function"
		},
		{
			"inputs": [
				{
					"internalType": "address",
					"name": "user",
					"type": "address"
				}
			],
			"name": "banUser",
			"outputs": [],
			"stateMutability": "nonpayable",
			"type": "function"
		},
		{
			"inputs": [
				{
					"internalType": "bytes32",
					"name": "orderCode",
					"type": "bytes32"
				},
				{
					"internalType": "bytes32",
					"name": "utxoID",
					"type": "bytes32"
				}
			],
			"name": "buyProduct",
			"outputs": [],
			"stateMutability": "nonpayable",
			"type": "function"
		},
		{
			"inputs": [
				{
					"internalType": "address",
					"name": "user",
					"type": "address"
				}
			],
			"name": "checkPromoter",
			"outputs": [
				{
					"internalType": "bool",
					"name": "",
					"type": "bool"
				}
			],
			"stateMutability": "view",
			"type": "function"
		},
		{
			"inputs": [],
			"name": "dailyUpdateGenerationRank",
			"outputs": [],
			"stateMutability": "nonpayable",
			"type": "function"
		},
		{
			"inputs": [],
			"name": "distributeNationalBonus",
			"outputs": [],
			"stateMutability": "nonpayable",
			"type": "function"
		},
		{
			"inputs": [],
			"name": "eComOrderManagerAddress",
			"outputs": [
				{
					"internalType": "address",
					"name": "",
					"type": "address"
				}
			],
			"stateMutability": "view",
			"type": "function"
		},
		{
			"inputs": [],
			"name": "eComUserManagerAddress",
			"outputs": [
				{
					"internalType": "address",
					"name": "",
					"type": "address"
				}
			],
			"stateMutability": "view",
			"type": "function"
		},
		{
			"inputs": [],
			"name": "getAddress",
			"outputs": [
				{
					"internalType": "address",
					"name": "",
					"type": "address"
				},
				{
					"internalType": "address",
					"name": "",
					"type": "address"
				},
				{
					"internalType": "address",
					"name": "",
					"type": "address"
				}
			],
			"stateMutability": "view",
			"type": "function"
		},
		{
			"inputs": [
				{
					"internalType": "address",
					"name": "user",
					"type": "address"
				},
				{
					"internalType": "uint8",
					"name": "totalLevel",
					"type": "uint8"
				},
				{
					"internalType": "uint256",
					"name": "startIndex",
					"type": "uint256"
				},
				{
					"internalType": "uint256",
					"name": "pageSize",
					"type": "uint256"
				}
			],
			"name": "getChildren",
			"outputs": [
				{
					"internalType": "address[]",
					"name": "",
					"type": "address[]"
				},
				{
					"components": [
						{
							"internalType": "address",
							"name": "parent",
							"type": "address"
						},
						{
							"internalType": "address[]",
							"name": "children",
							"type": "address[]"
						},
						{
							"internalType": "enum TreeLib.Rank",
							"name": "rank",
							"type": "uint8"
						},
						{
							"internalType": "enum TreeLib.Status",
							"name": "status",
							"type": "uint8"
						}
					],
					"internalType": "struct TreeLib.NodeInfo[]",
					"name": "",
					"type": "tuple[]"
				},
				{
					"components": [
						{
							"internalType": "uint256",
							"name": "membershipExpiry",
							"type": "uint256"
						},
						{
							"internalType": "uint256",
							"name": "processedChildren",
							"type": "uint256"
						},
						{
							"internalType": "uint256",
							"name": "personalBP",
							"type": "uint256"
						},
						{
							"internalType": "uint256",
							"name": "teamBP",
							"type": "uint256"
						},
						{
							"internalType": "uint256",
							"name": "totalTeamBP",
							"type": "uint256"
						}
					],
					"internalType": "struct TreeLib.NodeData[]",
					"name": "",
					"type": "tuple[]"
				}
			],
			"stateMutability": "nonpayable",
			"type": "function"
		},
		{
			"inputs": [
				{
					"internalType": "address",
					"name": "_user",
					"type": "address"
				},
				{
					"internalType": "uint256",
					"name": "_startDate",
					"type": "uint256"
				},
				{
					"internalType": "uint256",
					"name": "_endDate",
					"type": "uint256"
				}
			],
			"name": "getCommissionUSDTInRange",
			"outputs": [
				{
					"components": [
						{
							"internalType": "uint256",
							"name": "retailBonus",
							"type": "uint256"
						},
						{
							"internalType": "uint256",
							"name": "showroomBonus",
							"type": "uint256"
						},
						{
							"internalType": "uint256",
							"name": "daoBonus",
							"type": "uint256"
						},
						{
							"internalType": "uint256",
							"name": "otherBonus",
							"type": "uint256"
						},
						{
							"internalType": "uint256",
							"name": "activationBp",
							"type": "uint256"
						},
						{
							"internalType": "uint256",
							"name": "diffPrice",
							"type": "uint256"
						},
						{
							"internalType": "uint256",
							"name": "unilevelBonus",
							"type": "uint256"
						},
						{
							"internalType": "uint256",
							"name": "generationBonus",
							"type": "uint256"
						},
						{
							"internalType": "uint256",
							"name": "nationalBonus",
							"type": "uint256"
						}
					],
					"internalType": "struct ITreeCommission.CommissionData",
					"name": "commissionData",
					"type": "tuple"
				}
			],
			"stateMutability": "view",
			"type": "function"
		},
		{
			"inputs": [],
			"name": "getPromoterInfo",
			"outputs": [
				{
					"components": [
						{
							"internalType": "address",
							"name": "parent",
							"type": "address"
						},
						{
							"internalType": "address[]",
							"name": "children",
							"type": "address[]"
						},
						{
							"internalType": "enum TreeLib.Rank",
							"name": "rank",
							"type": "uint8"
						},
						{
							"internalType": "enum TreeLib.Status",
							"name": "status",
							"type": "uint8"
						}
					],
					"internalType": "struct TreeLib.NodeInfo",
					"name": "",
					"type": "tuple"
				},
				{
					"components": [
						{
							"internalType": "uint256",
							"name": "membershipExpiry",
							"type": "uint256"
						},
						{
							"internalType": "uint256",
							"name": "processedChildren",
							"type": "uint256"
						},
						{
							"internalType": "uint256",
							"name": "personalBP",
							"type": "uint256"
						},
						{
							"internalType": "uint256",
							"name": "teamBP",
							"type": "uint256"
						},
						{
							"internalType": "uint256",
							"name": "totalTeamBP",
							"type": "uint256"
						}
					],
					"internalType": "struct TreeLib.NodeData",
					"name": "",
					"type": "tuple"
				}
			],
			"stateMutability": "view",
			"type": "function"
		},
		{
			"inputs": [],
			"name": "getVIPInfo",
			"outputs": [
				{
					"components": [
						{
							"internalType": "address",
							"name": "parent",
							"type": "address"
						},
						{
							"internalType": "uint256",
							"name": "membershipExpiry",
							"type": "uint256"
						}
					],
					"internalType": "struct TreeCommission.VIPNode",
					"name": "",
					"type": "tuple"
				}
			],
			"stateMutability": "view",
			"type": "function"
		},
		{
			"inputs": [
				{
					"internalType": "address",
					"name": "user",
					"type": "address"
				},
				{
					"internalType": "uint256",
					"name": "startIndex",
					"type": "uint256"
				},
				{
					"internalType": "uint256",
					"name": "pageSize",
					"type": "uint256"
				}
			],
			"name": "getVIPMembers",
			"outputs": [
				{
					"internalType": "address[]",
					"name": "",
					"type": "address[]"
				}
			],
			"stateMutability": "view",
			"type": "function"
		},
		{
			"inputs": [],
			"name": "hourlyBatchProcessing",
			"outputs": [],
			"stateMutability": "nonpayable",
			"type": "function"
		},
		{
			"inputs": [
				{
					"internalType": "address",
					"name": "user",
					"type": "address"
				}
			],
			"name": "isPromoterActive",
			"outputs": [
				{
					"internalType": "bool",
					"name": "",
					"type": "bool"
				}
			],
			"stateMutability": "view",
			"type": "function"
		},
		{
			"inputs": [],
			"name": "isVIP",
			"outputs": [
				{
					"internalType": "bool",
					"name": "",
					"type": "bool"
				}
			],
			"stateMutability": "view",
			"type": "function"
		},
		{
			"inputs": [
				{
					"internalType": "address",
					"name": "user",
					"type": "address"
				}
			],
			"name": "isVIPOrPromoter",
			"outputs": [
				{
					"internalType": "bool",
					"name": "",
					"type": "bool"
				}
			],
			"stateMutability": "view",
			"type": "function"
		},
		{
			"inputs": [
				{
					"internalType": "uint256",
					"name": "startIndex",
					"type": "uint256"
				},
				{
					"internalType": "uint256",
					"name": "batchSize",
					"type": "uint256"
				}
			],
			"name": "processTeamBPAndActive",
			"outputs": [
				{
					"internalType": "uint256",
					"name": "nextIndex",
					"type": "uint256"
				}
			],
			"stateMutability": "nonpayable",
			"type": "function"
		},
		{
			"inputs": [
				{
					"internalType": "address",
					"name": "user",
					"type": "address"
				},
				{
					"internalType": "bytes32",
					"name": "utxoID",
					"type": "bytes32"
				}
			],
			"name": "renewMembership",
			"outputs": [],
			"stateMutability": "payable",
			"type": "function"
		},
		{
			"inputs": [
				{
					"internalType": "uint256",
					"name": "startIndex",
					"type": "uint256"
				},
				{
					"internalType": "uint256",
					"name": "batchSize",
					"type": "uint256"
				}
			],
			"name": "resetMonthlyData",
			"outputs": [],
			"stateMutability": "nonpayable",
			"type": "function"
		},
		{
			"inputs": [
				{
					"internalType": "address",
					"name": "user",
					"type": "address"
				},
				{
					"internalType": "uint256",
					"name": "level",
					"type": "uint256"
				}
			],
			"name": "setAgentLevel",
			"outputs": [],
			"stateMutability": "nonpayable",
			"type": "function"
		},
		{
			"inputs": [
				{
					"internalType": "address",
					"name": "_eComOrderManagerAddress",
					"type": "address"
				}
			],
			"name": "setEcomOrder",
			"outputs": [],
			"stateMutability": "nonpayable",
			"type": "function"
		},
		{
			"inputs": [
				{
					"internalType": "address",
					"name": "_eComUserManagerAddress",
					"type": "address"
				}
			],
			"name": "setEcomUser",
			"outputs": [],
			"stateMutability": "nonpayable",
			"type": "function"
		},
		{
			"inputs": [
				{
					"internalType": "bool",
					"name": "isLock",
					"type": "bool"
				}
			],
			"name": "setLockData",
			"outputs": [],
			"stateMutability": "nonpayable",
			"type": "function"
		},
		{
			"inputs": [
				{
					"internalType": "address",
					"name": "_usdtAddress",
					"type": "address"
				}
			],
			"name": "setUsdt",
			"outputs": [],
			"stateMutability": "nonpayable",
			"type": "function"
		},
		{
			"inputs": [
				{
					"internalType": "address",
					"name": "newMember",
					"type": "address"
				}
			],
			"name": "testGetNodeParent",
			"outputs": [
				{
					"internalType": "address",
					"name": "",
					"type": "address"
				}
			],
			"stateMutability": "view",
			"type": "function"
		},
		{
			"inputs": [
				{
					"internalType": "address",
					"name": "newMember",
					"type": "address"
				}
			],
			"name": "testGetUserParent",
			"outputs": [
				{
					"internalType": "address",
					"name": "",
					"type": "address"
				}
			],
			"stateMutability": "view",
			"type": "function"
		},
		{
			"inputs": [
				{
					"internalType": "bytes32",
					"name": "orderCode",
					"type": "bytes32"
				}
			],
			"name": "updateDeliveryProduct",
			"outputs": [],
			"stateMutability": "nonpayable",
			"type": "function"
		},
		{
			"inputs": [
				{
					"internalType": "address",
					"name": "user",
					"type": "address"
				},
				{
					"internalType": "uint256",
					"name": "longtitude",
					"type": "uint256"
				},
				{
					"internalType": "uint256",
					"name": "lattitude",
					"type": "uint256"
				},
				{
					"internalType": "bytes32",
					"name": "utxoID",
					"type": "bytes32"
				}
			],
			"name": "upgradeToPromoter",
			"outputs": [],
			"stateMutability": "payable",
			"type": "function"
		},
		{
			"inputs": [
				{
					"internalType": "uint256",
					"name": "amount",
					"type": "uint256"
				},
				{
					"internalType": "bytes32[]",
					"name": "utxoArr",
					"type": "bytes32[]"
				}
			],
			"name": "withdrawBP",
			"outputs": [],
			"stateMutability": "nonpayable",
			"type": "function"
		},
		{
			"inputs": [
				{
					"internalType": "uint256",
					"name": "amount",
					"type": "uint256"
				},
				{
					"internalType": "address",
					"name": "user",
					"type": "address"
				},
				{
					"internalType": "bytes32[]",
					"name": "utxoArr",
					"type": "bytes32[]"
				}
			],
			"name": "withdrawBPToAnotherUser",
			"outputs": [],
			"stateMutability": "nonpayable",
			"type": "function"
		}
	]
}