{
	"data": {
		"bytecode": {
			"linkReferences": {},
			"object": "60806040526011805461ffff1916905534801561001a575f5ffd5b50604051618422380380618422833981016040819052610039916101ef565b68068155a43676e000006103e861005b620186a0670de0b6b3a7640000610291565b61006591906102ba565b106100a35760405162461bcd60e51b815260206004820152600a60248201526977726f6e6720636f646560b01b604482015260640160405180910390fd5b601b80546001600160a01b03199081166001600160a01b038a811691909117909255601c80548216898416179055601d80548216888416179055601780548216848416179055601480548216878416179055601580548216868416179055601680548216858416179055601e805482168c8416178155601f80548316938c1693909317909255601880543392169190911790556001805480820182555f8281527fb10e2d527612073b26eecdfd717e6a320cf44b4afac2b0732d9fcbe2b7fa0cf6918201558154808301835560289082015581548083018355602390820155815480830183558101929092558054808201909155601991015550506014546001600160a01b03165f908152600460205260409020600201805461ff001916610100179055506102d995505050505050565b80516001600160a01b03811681146101ea575f5ffd5b919050565b5f5f5f5f5f5f5f5f5f6101208a8c031215610208575f5ffd5b6102118a6101d4565b985061021f60208b016101d4565b975061022d60408b016101d4565b965061023b60608b016101d4565b955061024960808b016101d4565b945061025760a08b016101d4565b935061026560c08b016101d4565b925061027360e08b016101d4565b91506102826101008b016101d4565b90509295985092959850929598565b80820281158282048414176102b457634e487b7160e01b5f52601160045260245ffd5b92915050565b5f826102d457634e487b7160e01b5f52601260045260245ffd5b500490565b61813c806102e65f395ff3fe6080604052600436106101bf575f3560e01c806308a851b8146101c35780630d5795b9146101e457806310d86b1f14610203578063185807e4146102225780631da0073a146102415780631f01f30d1461027857806320d996d2146102a5578063259dbd96146102ee5780632cf899e21461030d57806335b79c3d1461032157806338cb91341461033557806338cc4831146103795780633bd47c22146103b7578063405978f8146103d657806340d1ac13146103f5578063424ad61014610421578063432e9d88146104405780634a0328de1461045f578063504ed7331461047e57806358979bfe146104b65780635f35ca9c146104d557806361474327146104f457806361a475c814610513578063667883f11461053e5780636c0adbbd1461055d5780638345be551461057c5780638b59d23e1461059b5780638ca8107b146105ba578063964b74dd146105d9578063af4267ab14610605578063b35cade914610624578063b9bcaf0214610643578063bcd565ba14610656578063c2ad61e714610675578063d7b5a2d414610700578063db499bf51461071f578063e1ab8c6b14610733578063e45c1b5614610755578063e85d0a8614610774575b5f5ffd5b3480156101ce575f5ffd5b506101e26101dd366004616f06565b610787565b005b3480156101ef575f5ffd5b506101e26101fe366004616f06565b6107dc565b34801561020e575f5ffd5b506101e261021d366004616f06565b610828565b34801561022d575f5ffd5b506101e261023c36600461705f565b61087a565b34801561024c575f5ffd5b5061026061025b3660046170c1565b610912565b60405161026f93929190617235565b60405180910390f35b348015610283575f5ffd5b506102976102923660046172f0565b610d4b565b60405190815260200161026f565b3480156102b0575f5ffd5b506102de6102bf366004616f06565b6001600160a01b039081165f9081526004602052604090205416151590565b604051901515815260200161026f565b3480156102f9575f5ffd5b506101e2610308366004617310565b6111a8565b348015610318575f5ffd5b506101e26114ed565b34801561032c575f5ffd5b506101e2611530565b348015610340575f5ffd5b5061036c61034f366004616f06565b6001600160a01b039081165f908152600460205260409020541690565b60405161026f919061734e565b348015610384575f5ffd5b5061038d611579565b604080516001600160a01b039485168152928416602084015292169181019190915260600161026f565b3480156103c2575f5ffd5b506101e26103d1366004617362565b6115cb565b3480156103e1575f5ffd5b506101e26103f0366004616f06565b611a3f565b348015610400575f5ffd5b5061041461040f3660046173af565b611a8b565b60405161026f91906173f1565b34801561042c575f5ffd5b50601f5461036c906001600160a01b031681565b34801561044b575f5ffd5b50601e5461036c906001600160a01b031681565b34801561046a575f5ffd5b5061036c610479366004616f06565b611b09565b348015610489575f5ffd5b50610492611b81565b6040805182516001600160a01b03168152602092830151928101929092520161026f565b3480156104c1575f5ffd5b506101e26104d0366004616f06565b611c24565b3480156104e0575f5ffd5b506101e26104ef366004617469565b611c70565b3480156104ff575f5ffd5b506101e261050e3660046174ac565b611cfc565b34801561051e575f5ffd5b50335f908152601260205260409020546001600160a01b031615156102de565b348015610549575f5ffd5b50601b5461036c906001600160a01b031681565b348015610568575f5ffd5b506102de610577366004616f06565b611d89565b348015610587575f5ffd5b506101e26105963660046174d6565b611deb565b3480156105a6575f5ffd5b506102de6105b5366004616f06565b611f98565b3480156105c5575f5ffd5b506101e26105d4366004616f06565b611ff4565b3480156105e4575f5ffd5b506105f86105f33660046173af565b612040565b60405161026f91906174ed565b348015610610575f5ffd5b506101e261061f366004616f06565b6121fc565b34801561062f575f5ffd5b506101e261063e36600461750c565b612248565b6101e26106513660046174ac565b6122dd565b348015610661575f5ffd5b506101e26106703660046172f0565b612545565b348015610680575f5ffd5b5061069461068f3660046173af565b61273c565b60405161026f91905f61012082019050825182526020830151602083015260408301516040830152606083015160608301526080830151608083015260a083015160a083015260c083015160c083015260e083015160e083015261010083015161010083015292915050565b34801561070b575f5ffd5b506101e261071a3660046172f0565b6127f6565b34801561072a575f5ffd5b506101e2612e0a565b34801561073e575f5ffd5b50610747612efa565b60405161026f929190617527565b348015610760575f5ffd5b506101e261076f3660046174d6565b6130ba565b6101e2610782366004617548565b6133f4565b6018546001600160a01b031633146107ba5760405162461bcd60e51b81526004016107b190617580565b60405180910390fd5b601f80546001600160a01b0319166001600160a01b0392909216919091179055565b6018546001600160a01b031633146108065760405162461bcd60e51b81526004016107b190617580565b601580546001600160a01b0319166001600160a01b0392909216919091179055565b6018546001600160a01b031633146108525760405162461bcd60e51b81526004016107b190617580565b6001600160a01b03165f908152600460205260409020600201805461ff001916610300179055565b5f83116108995760405162461bcd60e51b81526004016107b1906175b5565b6014546001600160a01b03163314806108bc57506016546001600160a01b031633145b806108d157506015546001600160a01b031633145b806108e65750601c546001600160a01b031633145b6109025760405162461bcd60e51b81526004016107b1906175ec565b61090d8383836137df565b505050565b606080803332146109355760405162461bcd60e51b81526004016107b19061761b565b610946600488338960206021613db1565b6109885760405162461bcd60e51b81526020600482015260136024820152722ab730baba3437b934bd32b21031b0b63632b960691b60448201526064016107b1565b6001600160a01b0387165f90815260046020526040902060010154808610610a2057604080515f808252602082018181528284019093529091906109e2565b6109cf616d69565b8152602001906001900390816109c75790505b50604080515f8082526020820190925290610a13565b610a00616d8e565b8152602001906001900390816109f85790505b5093509350935050610d41565b5f81610a2c8789617664565b11610a375785610a41565b610a418783617677565b9050806001600160401b03811115610a5b57610a5b616f21565b604051908082528060200260200182016040528015610a9457816020015b610a81616d69565b815260200190600190039081610a795790505b509350806001600160401b03811115610aaf57610aaf616f21565b604051908082528060200260200182016040528015610ae857816020015b610ad5616d8e565b815260200190600190039081610acd5790505b509250806001600160401b03811115610b0357610b03616f21565b604051908082528060200260200182016040528015610b2c578160200160208202803683370190505b5094505f5b81811015610d3d576001600160a01b038a165f908152600460205260408120600101610b5d838b617664565b81548110610b6d57610b6d61768a565b5f9182526020808320909101546001600160a01b03908116808452600483526040938490208451608081018652815490931683526001810180548651818702810187019097528087529296509294909385810193919290830182828015610bfb57602002820191905f5260205f20905b81546001600160a01b03168152600190910190602001808311610bdd575b5050509183525050600282015460209091019060ff166007811115610c2257610c22617147565b6007811115610c3357610c33617147565b81526020016002820160019054906101000a900460ff166003811115610c5b57610c5b617147565b6003811115610c6c57610c6c617147565b81525050868381518110610c8257610c8261768a565b602002602001018190525060055f826001600160a01b03166001600160a01b031681526020019081526020015f206040518060a00160405290815f8201548152602001600182015481526020016002820154815260200160038201548152602001600482015481525050858381518110610cfe57610cfe61768a565b602002602001018190525080878381518110610d1c57610d1c61768a565b6001600160a01b039092166020928302919091019091015250600101610b31565b5050505b9450945094915050565b6018545f906001600160a01b03163314610d775760405162461bcd60e51b81526004016107b190617580565b600e548310610d985760405162461bcd60e51b81526004016107b19061769e565b5f8211610df15760405162461bcd60e51b815260206004820152602160248201527f42617463682073697a65206d7573742062652067726561746572207468616e206044820152600360fc1b60648201526084016107b1565b600e54610dfe8482617677565b831115610e1257610e0f8482617677565b92505b5f5b8381108015610e2257508185105b15611185575f600e8681548110610e3b57610e3b61768a565b5f918252602090912001546001600160a01b03169050801580610e6b57506014546001600160a01b038281169116145b15610e7b575f93505050506111a2565b610e8e6004600560076008600a86613f2f565b506001600160a01b038082165f90815260046020526040902054168015611163576001600160a01b0381165f9081526005602052604081206001908101805491929091610edc908490617664565b90915550506001600160a01b0381165f908152601a602052604090205460ff161515600114801590610f4957506001600160a01b0382165f9081526019602052604090206001015460ff1680610f4957506001600160a01b0382165f908152601a602052604090205460ff165b15610f71576001600160a01b0381165f908152601a60205260409020805460ff191660011790555b6001600160a01b0382165f908152601960209081526040808320838155600101805460ff19908116909155601a835281842080549091169055600990915290205415611043576001600160a01b038083165f9081526009602052604080822054928416825281208054909190610fe8908490617664565b90915550506001600160a01b038083165f908152600960209081526040808320549385168352600a90915281208054909190611025908490617664565b90915550506001600160a01b0382165f908152600960205260408120555b6001600160a01b0381165f9081526004602090815260408083206001908101546005909352922090910154036110bb576001600160a01b0381165f908152600560209081526040808320600101839055601a90915290205460ff16156110b2576110b2600560046002846141f6565b6110bb816144b7565b6001600160a01b0381165f908152601a602052604090205460ff168015611116575060016001600160a01b0382165f90815260046020526040902060020154610100900460ff16600381111561111357611113617147565b14155b801561112857506111286005826146e6565b15611163576001600160a01b0381165f908152600460208190526040909120600201805461ff00191661010017905561116390600c8361472f565b8661116d816176cb565b975050828061117b906176cb565b9350505050610e14565b818510611192575f61119d565b61119d856001617664565b925050505b92915050565b3332146111c75760405162461bcd60e51b81526004016107b19061761b565b601154610100900460ff16156111ef5760405162461bcd60e51b81526004016107b1906176e3565b6001600160a01b038381165f9081526004602052604090205416156112265760405162461bcd60e51b81526004016107b19061770b565b6001600160a01b038381165f90815260126020526040902054161561125d5760405162461bcd60e51b81526004016107b190617738565b6001600160a01b038281165f908152600460205260409020541615158061129157506014546001600160a01b038381169116145b6112ad5760405162461bcd60e51b81526004016107b19061776c565b6014546001600160a01b0383811691161415806112d457506018546001600160a01b031633145b6112f05760405162461bcd60e51b81526004016107b19061779b565b601f5460405163700786d760e11b81526001600160a01b0390911690819063e00f0dae9061132290879060040161734e565b602060405180830381865afa15801561133d573d5f5f3e3d5ffd5b505050506040513d601f19601f8201168201806040525081019061136191906177d5565b6001600160a01b0316836001600160a01b0316146113915760405162461bcd60e51b81526004016107b1906177f0565b6017546113b1906001600160a01b03168368068155a43676e000006147b0565b6040518060400160405280846001600160a01b03168152602001426301e133806113db9190617664565b90526001600160a01b038086165f818152601260209081526040808320865181549087166001600160a01b03199182161782559683015160019182015594891683526013825282208054948501815582529020909101805490921617905561144784620186a0846149d6565b601b546016546001600160a01b039182169163e115dc7f911684620186a0611480670de0b6b3a764000068068155a43676e0000061782e565b61148c906103e8617841565b6114969190617677565b600160026040518663ffffffff1660e01b81526004016114ba959493929190617858565b5f604051808303815f87803b1580156114d1575f5ffd5b505af11580156114e3573d5f5f3e3d5ffd5b5050505050505050565b6018546001600160a01b031633146115175760405162461bcd60e51b81526004016107b190617580565b601b5461152e906001600160a01b03166002614adc565b565b6018546001600160a01b0316331461155a5760405162461bcd60e51b81526004016107b190617580565b60145461152e90600490600d90600b906001600160a01b031680614d51565b6018545f90819081906001600160a01b031633146115a95760405162461bcd60e51b81526004016107b190617580565b50506015546016546014546001600160a01b0392831693509082169116909192565b3332146115ea5760405162461bcd60e51b81526004016107b19061761b565b601154610100900460ff16156116125760405162461bcd60e51b81526004016107b1906176e3565b6001600160a01b038581165f9081526004602052604090205416156116495760405162461bcd60e51b81526004016107b19061770b565b6001600160a01b038581165f9081526012602052604090205416156116805760405162461bcd60e51b81526004016107b190617738565b6001600160a01b038481165f90815260046020526040902054161515806116b457506014546001600160a01b038581169116145b6116d05760405162461bcd60e51b81526004016107b19061776c565b6014546001600160a01b0385811691161415806116f757506018546001600160a01b031633145b6117135760405162461bcd60e51b81526004016107b19061779b565b601f5460405163700786d760e11b81526001600160a01b0390911690819063e00f0dae9061174590899060040161734e565b602060405180830381865afa158015611760573d5f5f3e3d5ffd5b505050506040513d601f19601f8201168201806040525081019061178491906177d5565b6001600160a01b0316856001600160a01b0316146117b45760405162461bcd60e51b81526004016107b1906177f0565b6017546117e6906001600160a01b0316836117e168068155a43676e0000068022b1c8c1227a00000617664565b6147b0565b601c54604051637a5a18f760e01b815260048101859052602481018690525f916001600160a01b031690637a5a18f790604401602060405180830381865afa158015611834573d5f5f3e3d5ffd5b505050506040513d601f19601f8201168201806040525081019061185891906177d5565b90506001600160a01b03811615611897576001600160a01b038781165f90815260066020526040902080546001600160a01b0319169183169190911790555b6118a587620186a0856149d6565b601b546016546001600160a01b039182169163e115dc7f911685620186a06118de670de0b6b3a764000068068155a43676e0000061782e565b6118ea906103e8617841565b6118f49190617677565b600160026040518663ffffffff1660e01b8152600401611918959493929190617858565b5f604051808303815f87803b15801561192f575f5ffd5b505af1158015611941573d5f5f3e3d5ffd5b505060115460ff16159150611a2090505750506040805160a0810182526001600160a01b038088168252868116602083019081529282018681526060830186815260808401868152600f80546001810182555f91909152945160059095025f5160206180bf5f395f51905f52810180549686166001600160a01b031997881617905595515f51602061807d5f395f51905f528701805491909516951694909417909255515f51602061805d5f395f51905f52840155515f51602061803d5f395f51905f52830155515f51602061801d5f395f51905f5290910155611a38565b611a28615051565b611a3587878787876151f2565b50505b5050505050565b6018546001600160a01b03163314611a695760405162461bcd60e51b81526004016107b190617580565b601680546001600160a01b0319166001600160a01b0392909216919091179055565b601b54604051635bc3e91160e11b81526060916001600160a01b03169063b787d22290611ac09087908790879060040161788b565b5f60405180830381865afa158015611ada573d5f5f3e3d5ffd5b505050506040513d5f823e601f3d908101601f19168201604052611b0191908101906178ac565b949350505050565b601f5460405163700786d760e11b81525f916001600160a01b031690819063e00f0dae90611b3b90869060040161734e565b602060405180830381865afa158015611b56573d5f5f3e3d5ffd5b505050506040513d601f19601f82011682018060405250810190611b7a91906177d5565b9392505050565b604080518082019091525f8082526020820152333214611bb35760405162461bcd60e51b81526004016107b19061761b565b335f818152601260205260409020546001600160a01b0316611be75760405162461bcd60e51b81526004016107b190617980565b6001600160a01b039081165f9081526012602090815260409182902082518084019093528054909316825260019092015491810191909152905090565b6018546001600160a01b03163314611c4e5760405162461bcd60e51b81526004016107b190617580565b601780546001600160a01b0319166001600160a01b0392909216919091179055565b5f8211611c8f5760405162461bcd60e51b81526004016107b1906175b5565b32331480611ca757506014546001600160a01b031633145b80611cbc57506016546001600160a01b031633145b80611cd157506015546001600160a01b031633145b611ced5760405162461bcd60e51b81526004016107b1906175ec565b611cf88233836137df565b5050565b6018546001600160a01b03163314611d265760405162461bcd60e51b81526004016107b190617580565b6001600160a01b038281165f9081526004602052604090205416611d7e5760405162461bcd60e51b815260206004820152600f60248201526e55736572206e6f742065786973747360881b60448201526064016107b1565b611cf85f838361592e565b6001600160a01b038181165f90815260046020526040812054909116158015906111a2575060016001600160a01b0383165f90815260046020526040902060020154610100900460ff166003811115611de457611de4617147565b1492915050565b6018546001600160a01b03163314611e155760405162461bcd60e51b81526004016107b190617580565b6017546040516370a0823160e01b81526001600160a01b03909116906370a0823190611e4590309060040161734e565b602060405180830381865afa158015611e60573d5f5f3e3d5ffd5b505050506040513d601f19601f82011682018060405250810190611e8491906179ad565b811115611ecc5760405162461bcd60e51b8152602060048201526016602482015275616d6f756e74206973206f7665722062616c616e636560501b60448201526064016107b1565b60175460165460405163095ea7b360e01b81526001600160a01b039283169263095ea7b392611f029291169085906004016179c4565b6020604051808303815f875af1158015611f1e573d5f5f3e3d5ffd5b505050506040513d601f19601f82011682018060405250810190611f4291906179dd565b5060165460405163053f29f760e31b8152600481018390526001600160a01b03909116906329f94fb8906024015f604051808303815f87803b158015611f86575f5ffd5b505af1158015611a38573d5f5f3e3d5ffd5b6001600160a01b038181165f90815260046020526040812054909116151580611fd957506001600160a01b038281165f908152601260205260409020541615155b806111a25750506014546001600160a01b0390811691161490565b6018546001600160a01b0316331461201e5760405162461bcd60e51b81526004016107b190617580565b601e80546001600160a01b0319166001600160a01b0392909216919091179055565b60603332146120615760405162461bcd60e51b81526004016107b19061761b565b5f82118015612071575060328211155b6120c75760405162461bcd60e51b815260206004820152602160248201527f7061676553697a65206d757374206265206265747765656e203120616e6420356044820152600360fc1b60648201526084016107b1565b6001600160a01b0384165f908152601360205260409020548084106120fb575050604080515f815260208101909152611b7a565b5f6121068486617664565b9050818111156121135750805b5f61211e8683617677565b6001600160401b0381111561213557612135616f21565b60405190808252806020026020018201604052801561215e578160200160208202803683370190505b5090505f865b838110156121ef576001600160a01b0389165f9081526013602052604090208054829081106121955761219561768a565b905f5260205f20015f9054906101000a90046001600160a01b03168383815181106121c2576121c261768a565b6001600160a01b0390921660209283029190910190910152816121e4816176cb565b925050600101612164565b5090979650505050505050565b6018546001600160a01b031633146122265760405162461bcd60e51b81526004016107b190617580565b601c80546001600160a01b0319166001600160a01b0392909216919091179055565b6018546001600160a01b031633146122725760405162461bcd60e51b81526004016107b190617580565b60115460ff16156122c35760405162461bcd60e51b815260206004820152601b60248201527a42617463682070726f63657373696e672069732072756e6e696e6760281b60448201526064016107b1565b601180549115156101000261ff0019909216919091179055565b3332146122fc5760405162461bcd60e51b81526004016107b19061761b565b601154610100900460ff16156123245760405162461bcd60e51b81526004016107b1906176e3565b6001600160a01b038281165f90815260126020526040902054166123e4576001600160a01b038281165f90815260046020526040902054166123785760405162461bcd60e51b81526004016107b190617980565b6001600160a01b0382165f908152600560205260409020544211156123df5760405162461bcd60e51b815260206004820181905260248201527f4d656d6265727368697020657870697265642c2063616e6e6f742072656e657760448201526064016107b1565b612442565b6001600160a01b038281165f9081526004602052604090205416156124425760405162461bcd60e51b8152602060048201526014602482015273557365722077726f6e672073747275637475726560601b60448201526064016107b1565b601754612462906001600160a01b03168268068155a43676e000006147b0565b6001600160a01b0382165f90815260056020526040812080546301e13380929061248d908490617664565b909155506124a1905082620186a0836149d6565b601b546016546001600160a01b039182169163e115dc7f911683620186a06124da670de0b6b3a764000068068155a43676e0000061782e565b6124e6906103e8617841565b6124f09190617677565b600160026040518663ffffffff1660e01b8152600401612514959493929190617858565b5f604051808303815f87803b15801561252b575f5ffd5b505af115801561253d573d5f5f3e3d5ffd5b505050505050565b6018546001600160a01b0316331461256f5760405162461bcd60e51b81526004016107b190617580565b60035482106125905760405162461bcd60e51b81526004016107b19061769e565b61259b60025f616db8565b6003545f906125aa8385617664565b116125be576125b98284617664565b6125c2565b6003545b9050825b818110156126e3575f600382815481106125e2576125e261768a565b5f9182526020808320909101546001600160a01b031680835260079091526040822054909250600111158061263057506001600160a01b0382165f908152600a602081905260409091205410155b8061265357506001600160a01b0382165f90815260086020526040902054606411155b1561265c575060015b8061269f576001600160a01b0382165f908152600460205260408120600201805461ff00191661010083021790555061269a60046005600285615994565b6126ac565b6126ac6004600c8461472f565b506001600160a01b03165f908152600760209081526040808320839055600a825280832083905560089091528120556001016125c6565b505f5b6021548110156127305760205f602183815481106127065761270661768a565b5f91825260208083209091015483528201929092526040019020805460ff191690556001016126e6565b5061090d60215f616db8565b6127826040518061012001604052805f81526020015f81526020015f81526020015f81526020015f81526020015f81526020015f81526020015f81526020015f81525090565b601b5460405163316f085f60e01b81526001600160a01b039091169063316f085f906127b69087908790879060040161788b565b61012060405180830381865afa1580156127d2573d5f5f3e3d5ffd5b505050506040513d601f19601f82011682018060405250810190611b0191906179f8565b3332146128155760405162461bcd60e51b81526004016107b19061761b565b601154610100900460ff161561283d5760405162461bcd60e51b81526004016107b1906176e3565b8161285a5760405162461bcd60e51b81526004016107b190617a71565b601e54604051637d84709760e11b8152600481018490526001600160a01b03909116905f90829063fb08e12e90602401602060405180830381865afa1580156128a5573d5f5f3e3d5ffd5b505050506040513d601f19601f820116820180604052508101906128c991906179ad565b9050805f036128ea5760405162461bcd60e51b81526004016107b190617a9b565b60405163d09ef24160e01b8152600481018290525f906001600160a01b0384169063d09ef241906024015f60405180830381865afa15801561292e573d5f5f3e3d5ffd5b505050506040513d5f823e601f3d908101601f191682016040526129559190810190617b2a565b6101608101519091505f80805b846101400151518160ff161015612a41575f8561014001518260ff168151811061298e5761298e61768a565b6020026020010151116129d15760405162461bcd60e51b815260206004820152600b60248201526a1c995dd85c990819985a5b60aa1b60448201526064016107b1565b8461014001518160ff16815181106129eb576129eb61768a565b6020026020010151826129fe9190617664565b91508461010001518160ff1681518110612a1a57612a1a61768a565b602002602001015183612a2d9190617664565b925080612a3981617d3f565b915050612962565b50602084015160408501516001600160a01b0380831691161482612a6d670de0b6b3a76400008761782e565b11612aad5760405162461bcd60e51b815260206004820152601060248201526f2bb937b7339031b7b6b6b4b9b9b4b7b760811b60448201526064016107b1565b6001600160a01b038216612ad35760405162461bcd60e51b81526004016107b190617d5d565b5f8511612af25760405162461bcd60e51b81526004016107b190617d5d565b338115612b93576001600160a01b038181165f9081526004602052604090205416151580612b3857506001600160a01b038181165f908152601260205260409020541615155b612b935760405162461bcd60e51b815260206004820152602660248201527f5573657220616c72656164792065786973747320696e20564950206f7220507260448201526537b6b7ba32b960d11b60648201526084016107b1565b6001600160a01b038181165f90815260046020526040902054161580612bed575060016001600160a01b0382165f90815260046020526040902060020154610100900460ff166003811115612bea57612bea617147565b14155b15612c71575060145482906001600160a01b0380831691161480612c2957506001600160a01b038381165f908152600460205260409020541615155b612c6c5760405162461bcd60e51b8152602060048201526014602482015273506172656e74206973206e6f742065786973747360601b60448201526064016107b1565b612d05565b612ca7604051806040016040528060148152602001733ab9b2b910313abc90383937b23ab1ba1036309d60611b81525082615ba9565b6001600160a01b038181165f90815260046020526040902054811690841614612d055760405162461bcd60e51b815260206004820152601060248201526f0a0c2e4cadce840dcdee840dac2e8c6d60831b60448201526064016107b1565b601754612d1c906001600160a01b03168b886147b0565b6040516361f40dc360e11b8152600481018c90523360248201526001600160a01b038a169063c3e81b86906044015f604051808303815f87803b158015612d61575f5ffd5b505af1158015612d73573d5f5f3e3d5ffd5b505050506040518060800160405280858152602001868152602001826001600160a01b031681526020018b81525060225f8d81526020019081526020015f205f820151815f0155602082015181600101556040820151816002015f6101000a8154816001600160a01b0302191690836001600160a01b03160217905550606082015181600301559050505050505050505050505050565b6018546001600160a01b03163314612e345760405162461bcd60e51b81526004016107b190617580565b601154610100900460ff1615612e5c5760405162461bcd60e51b81526004016107b1906176e3565b60115460ff1615612ea45760405162461bcd60e51b8152602060048201526012602482015271416c72656164792070726f63657373696e6760701b60448201526064016107b1565b6011805460ff19166001179055612eb9615bee565b601e5f5b600e54811015612ee8575f612ed28284610d4b565b9050805f03612ee15750612ee8565b9050612ebd565b6011805460ff19169055611cf8615051565b612f02616d69565b612f0a616d8e565b333214612f295760405162461bcd60e51b81526004016107b19061761b565b335f818152600460205260409020546001600160a01b0316612f5d5760405162461bcd60e51b81526004016107b190617980565b6001600160a01b038082165f90815260046020908152604091829020825160808101845281549094168452600181018054845181850281018501909552808552919385840193909290830182828015612fdd57602002820191905f5260205f20905b81546001600160a01b03168152600190910190602001808311612fbf575b5050509183525050600282015460209091019060ff16600781111561300457613004617147565b600781111561301557613015617147565b81526020016002820160019054906101000a900460ff16600381111561303d5761303d617147565b600381111561304e5761304e617147565b81525050925060055f826001600160a01b03166001600160a01b031681526020019081526020015f206040518060a00160405290815f82015481526020016001820154815260200160028201548152602001600382015481526020016004820154815250509150509091565b601e546001600160a01b03163381146131495760405162461bcd60e51b815260206004820152604560248201527f7b2266726f6d223a202254726565436f6d2e736f6c222c22636f6465223a203560448201527f352c20226d657373616765223a2022596f7520617265206e6f7420616c6c6f7760648201526465642e227d60d81b608482015260a4016107b1565b601154610100900460ff16156131715760405162461bcd60e51b81526004016107b1906176e3565b8161318e5760405162461bcd60e51b81526004016107b190617a71565b5f82815260226020526040902054806131b95760405162461bcd60e51b81526004016107b190617a9b565b5f838152602260205260409020600381015460018201546002909201549091906001600160a01b031681156133465760026001600160a01b0382165f90815260046020526040902060020154610100900460ff16600381111561321e5761321e617147565b146132b157601b546001600160a01b031663e115dc7f8285606461324a670de0b6b3a76400008861782e565b613255906050617841565b61325f919061782e565b600160056040518663ffffffff1660e01b8152600401613283959493929190617858565b5f604051808303815f87803b15801561329a575f5ffd5b505af11580156132ac573d5f5f3e3d5ffd5b505050505b601b546015546001600160a01b039182169163e115dc7f91168560646132df670de0b6b3a76400008861782e565b6132ea906014617841565b6132f4919061782e565b600160056040518663ffffffff1660e01b8152600401613318959493929190617858565b5f604051808303815f87803b15801561332f575f5ffd5b505af1158015613341573d5f5f3e3d5ffd5b505050505b6133518185856149d6565b5f868152602260205260408082208281556001808201849055600280830180546001600160a01b0319169055600390920193909355601b54601454925163e115dc7f60e01b81526001600160a01b039182169463e115dc7f946133bf9493169289928b929190600401617858565b5f604051808303815f87803b1580156133d6575f5ffd5b505af11580156133e8573d5f5f3e3d5ffd5b50505050505050505050565b3332146134135760405162461bcd60e51b81526004016107b19061761b565b601154610100900460ff161561343b5760405162461bcd60e51b81526004016107b1906176e3565b6001600160a01b038481165f90815260126020526040902054166134945760405162461bcd60e51b815260206004820152601060248201526f55736572206e6f742070656e64696e6760801b60448201526064016107b1565b6001600160a01b0384165f908152601260205260409020600101544211156134f35760405162461bcd60e51b815260206004820152601260248201527113595b58995c9cda1a5c08195e1c1a5c995960721b60448201526064016107b1565b6001600160a01b038085165f90815260126020908152604080832054841680845260049092529091205490911615158061353a57506014546001600160a01b038281169116145b6135565760405162461bcd60e51b81526004016107b19061776c565b601754613576906001600160a01b03168368022b1c8c1227a000006147b0565b6001600160a01b0385165f90815260126020526040812080546001600160a01b03191681556001018190555b6001600160a01b0382165f908152601360205260409020548110156136ea576001600160a01b038281165f908152601360205260409020805491881691839081106135ef576135ef61768a565b5f918252602090912001546001600160a01b0316036136e2576001600160a01b0382165f908152601360205260409020805461362d90600190617677565b8154811061363d5761363d61768a565b5f9182526020808320909101546001600160a01b038581168452601390925260409092208054919092169190839081106136795761367961768a565b5f91825260208083209190910180546001600160a01b0319166001600160a01b0394851617905591841681526013909152604090208054806136bd576136bd617d83565b5f8281526020902081015f1990810180546001600160a01b03191690550190556136ea565b6001016135a2565b5060115460ff16156137c4576040805160a0810182526001600160a01b038088168252928316602082019081529181018681526060820186815260808301868152600f80546001810182555f91909152935160059094025f5160206180bf5f395f51905f52810180549588166001600160a01b031996871617905594515f51602061807d5f395f51905f528601805491909716941693909317909455515f51602061805d5f395f51905f5283015591515f51602061803d5f395f51905f5282015590515f51602061801d5f395f51905f52909101556137d9565b6137cc615051565b611a3885828686866151f2565b50505050565b80511561385857601b546040516368bd52e560e11b81526001600160a01b039091169063d17aa5ca906138189085908590600401617d97565b6020604051808303815f875af1158015613834573d5f5f3e3d5ffd5b505050506040513d601f19601f820116820180604052508101906137d991906179dd565b336001600160a01b03831603613aad57601b5460405163f8b2cb4f60e01b81525f916001600160a01b03169063f8b2cb4f9061389890869060040161734e565b602060405180830381865afa1580156138b3573d5f5f3e3d5ffd5b505050506040513d601f19601f820116820180604052508101906138d791906179ad565b9050838110156138f95760405162461bcd60e51b81526004016107b190617dec565b601b5460405163c84d239b60e01b81526001600160a01b039091169063c84d239b9061392b90869088906004016179c4565b6020604051808303815f875af1158015613947573d5f5f3e3d5ffd5b505050506040513d601f19601f8201168201806040525081019061396b91906179dd565b6139875760405162461bcd60e51b81526004016107b190617e1a565b6001600160a01b0383165f908152600460205260409020600290810154610100900460ff16908160038111156139bf576139bf617147565b141580156139df575060038160038111156139dc576139dc617147565b14155b6139fb5760405162461bcd60e51b81526004016107b190617e5b565b6017546040516370a0823160e01b81526001600160a01b03909116906370a0823190613a2b90309060040161734e565b602060405180830381865afa158015613a46573d5f5f3e3d5ffd5b505050506040513d601f19601f82011682018060405250810190613a6a91906179ad565b6103e8613a7f87670de0b6b3a7640000617841565b613a89919061782e565b10613aa65760405162461bcd60e51b81526004016107b190617e80565b5050613ce5565b601b5460405163f8b2cb4f60e01b81525f916001600160a01b03169063f8b2cb4f90613add90339060040161734e565b602060405180830381865afa158015613af8573d5f5f3e3d5ffd5b505050506040513d601f19601f82011682018060405250810190613b1c91906179ad565b905083811015613b3e5760405162461bcd60e51b81526004016107b190617dec565b601b5460405163c84d239b60e01b81526001600160a01b039091169063c84d239b90613b7090339088906004016179c4565b6020604051808303815f875af1158015613b8c573d5f5f3e3d5ffd5b505050506040513d601f19601f82011682018060405250810190613bb091906179dd565b613bcc5760405162461bcd60e51b81526004016107b190617e1a565b335f908152600460205260409020600290810154610100900460ff1690816003811115613bfb57613bfb617147565b14158015613c1b57506003816003811115613c1857613c18617147565b14155b613c375760405162461bcd60e51b81526004016107b190617e5b565b6017546040516370a0823160e01b81526001600160a01b03909116906370a0823190613c6790309060040161734e565b602060405180830381865afa158015613c82573d5f5f3e3d5ffd5b505050506040513d601f19601f82011682018060405250810190613ca691906179ad565b6103e8613cbb87670de0b6b3a7640000617841565b613cc5919061782e565b10613ce25760405162461bcd60e51b81526004016107b190617e80565b50505b6017546001600160a01b031663a9059cbb836103e8613d0c87670de0b6b3a7640000617841565b613d16919061782e565b6040518363ffffffff1660e01b8152600401613d339291906179c4565b6020604051808303815f875af1158015613d4f573d5f5f3e3d5ffd5b505050506040513d601f19601f82011682018060405250810190613d7391906179dd565b61090d5760405162461bcd60e51b815260206004820152600f60248201526e151c985b9cd9995c8819985a5b1959608a1b60448201526064016107b1565b5f6001600160a01b038516331480613e075750825f3387604051602001613dd9929190617eb4565b60408051601f198184030181529181528151602092830120835290820192909252015f205460ff1615156001145b613e435760405162461bcd60e51b815260206004820152600d60248201526c139bdd081c195c9b5a5d1d1959609a1b60448201526064016107b1565b5f865b6001600160a01b03811615613f1f5781613e5f81617d3f565b9250508560ff168260ff160315613f1f57866001600160a01b0316816001600160a01b031603613e9457600192505050613f25565b6001600160a01b039081165f90815260208a9052604090205416613eb9600a83617ed6565b60ff165f03613f1a575f3382604051602001613ed6929190617eb4565b60408051601f1981840301815291815281516020928301205f818152898452918220805460ff19166001908117909155885490810189558883529290912090910155505b613e46565b5f925050505b9695505050505050565b5f613f64604051806040016040528060128152602001713ab83230ba329030b1ba34bb32903230bc9d60711b81525083615ba9565b613f9d60405180606001604052806022815260200161809d602291396001600160a01b0384165f90815260208790526040902054615d07565b6001600160a01b0382165f908152602088905260409020600290810154610100900460ff1690816003811115613fd557613fd5617147565b1480613ff257506003816003811115613ff057613ff0617147565b145b15614000575f915050613f25565b6140326040518060400160405280601081526020016f313637b1b5973a34b6b2b9ba30b6b81d60811b81525042615d07565b60408051808201825260208082527f6e6f6465446174615b757365725d2e6d656d626572736869704578706972793a818301526001600160a01b0386165f908152908a905291909120546140869190615d07565b6001600160a01b0383165f90815260208890526040902054158015906140c257506001600160a01b0383165f9081526020889052604090205442115b15614126576140ef604051806040016040528060078152602001663131313131313160c91b815250615d4c565b6001600160a01b0383165f9081526020899052604090206002908101805461ff001916610100835b02179055506001915050613f25565b6001600160a01b0383165f90815260208790526040902054600111158061416557506001600160a01b0383165f90815260208590526040902054600a11155b8061418857506001600160a01b0383165f90815260208690526040902054606411155b156141e9576141bb6040518060400160405280600d81526020016c6161616161616161616161616160981b815250615d4c565b6001600160a01b0383165f90815260208990526040902060020180546001919061ff00191661010083614117565b505f979650505050505050565b6001600160a01b0381165f90815260208581526040808320600201549186905282206001015490919081816001600160401b0381111561423857614238616f21565b604051908082528060200260200182016040528015614261578160200160208202803683370190505b5090505f5b8281101561436e576001600160a01b0386165f90815260208990526040812060010180548390811061429a5761429a61768a565b5f9182526020808320909101546001600160a01b03168083528b82526040808420928e9052832060038101546002909101549194509192916142db91617664565b90505f81116142ec57505050614366565b6001600160a01b0383165f90815260208d905260408120600301558451819086908690811061431d5761431d61768a565b60209081029190910101526143328189617664565b97506004600283015460ff16600781111561434f5761434f617147565b10156143625761435f8188617664565b96505b5050505b600101614266565b5083156114e3575f60056001600160a01b0387165f90815260208a9052604090206002015460ff1660078111156143a7576143a7617147565b10156143b45760326143b7565b60285b60ff1690505f60646143c98388617841565b6143d3919061782e565b90505f805b8581101561443557828582815181106143f3576143f361768a565b60200260200101511161441f578481815181106144125761441261768a565b6020026020010151614421565b825b61442b9083617664565b91506001016143d8565b506001600160a01b0388165f90815260208c9052604081206003015461445b9083617677565b9050801561448c576001600160a01b0389165f90815260208d90526040902060030182905561448c8b8d8c8c615994565b5050506001600160a01b0386165f90815260208a905260409020600401859055505050505050505050565b6001600160a01b038082165f9081526004602052604090205416806144da575050565b6001600160a01b0381165f9081526005602052604081206001908101805491929091614507908490617664565b90915550506001600160a01b0381165f908152601a602052604090205460ff16151560011480159061457457506001600160a01b0382165f9081526019602052604090206001015460ff168061457457506001600160a01b0382165f908152601a602052604090205460ff165b1561459c576001600160a01b0381165f908152601a60205260409020805460ff191660011790555b6001600160a01b0382165f908152601960209081526040808320838155600101805460ff19908116909155601a83528184208054909116905560099091529020541561466e576001600160a01b038083165f9081526009602052604080822054928416825281208054909190614613908490617664565b90915550506001600160a01b038083165f908152600960209081526040808320549385168352600a90915281208054909190614650908490617664565b90915550506001600160a01b0382165f908152600960205260408120555b6001600160a01b0381165f908152600460209081526040808320600190810154600590935292209091015403611cf8576001600160a01b0381165f908152600560209081526040808320600101839055601a90915290205460ff16156146dd576146dd600560046002846141f6565b611cf8816144b7565b6001600160a01b0381165f908152602083905260408120600201546064111580611b7a5750506001600160a01b03165f90815260209190915260409020600301546101f4111590565b6001600160a01b0381165f908152602084905260408120600101905b8154811015611a385782845f8484815481106147695761476961768a565b5f918252602080832091909101546001600160a01b039081168452908301939093526040909101902080546001600160a01b0319169290911691909117905560010161474b565b8161090d576040516370a0823160e01b81525f906001600160a01b038516906370a08231906147e390309060040161734e565b602060405180830381865afa1580156147fe573d5f5f3e3d5ffd5b505050506040513d601f19601f8201168201806040525081019061482291906179ad565b6040516323b872dd60e01b8152336004820152306024820152604481018490529091506001600160a01b038516906323b872dd906064016020604051808303815f875af1158015614875573d5f5f3e3d5ffd5b505050506040513d601f19601f8201168201806040525081019061489991906179dd565b6148dc5760405162461bcd60e51b81526020600482015260146024820152731554d115081d1c985b9cd9995c8819985a5b195960621b60448201526064016107b1565b6040516370a0823160e01b81525f906001600160a01b038616906370a082319061490a90309060040161734e565b602060405180830381865afa158015614925573d5f5f3e3d5ffd5b505050506040513d601f19601f8201168201806040525081019061494991906179ad565b90505f6149568383617677565b905061496a670de0b6b3a764000085617677565b811015801561498a575061498684670de0b6b3a7640000617664565b8111155b61253d5760405162461bcd60e51b815260206004820152601e60248201527f496e636f72726563742055534454207472616e7366657220616d6f756e74000060448201526064016107b1565b601154610100900460ff16156149fe5760405162461bcd60e51b81526004016107b1906176e3565b60115460ff1615614ac957604080516060810182526001600160a01b03948516815260208101938452908101918252601080546001810182555f9190915290517f1b6847dc741a1b0cd08d278845f9d819d87b734759afb55fe2de5cb82a9ae672600390920291820180546001600160a01b031916919095161790935590517f1b6847dc741a1b0cd08d278845f9d819d87b734759afb55fe2de5cb82a9ae673830155517f1b6847dc741a1b0cd08d278845f9d819d87b734759afb55fe2de5cb82a9ae67490910155565b614ad1615051565b61090d838383615d92565b5f826001600160a01b031663ee82cfd06040518163ffffffff1660e01b8152600401602060405180830381865afa158015614b19573d5f5f3e3d5ffd5b505050506040513d601f19601f82011682018060405250810190614b3d91906179ad565b825490915080614b9b5760405162461bcd60e51b815260206004820152602360248201527f4e6f204e6174696f6e616c204469726563746f727320746f206469737472696260448201526275746560e81b60648201526084016107b1565b5f614ba6828461782e565b90505f8111614beb5760405162461bcd60e51b8152602060048201526011602482015270125b9cdd59999a58da595b9d081c1bdbdb607a1b60448201526064016107b1565b60405163021c2c5d60e21b8152600481018490526001600160a01b03861690630870b174906024015f604051808303815f87803b158015614c2a575f5ffd5b505af1158015614c3c573d5f5f3e3d5ffd5b50606092508291505f9050805b85811015614ce357878181548110614c6357614c6361768a565b905f5260205f20015f9054906101000a90046001600160a01b0316848381518110614c9057614c9061768a565b60200260200101906001600160a01b031690816001600160a01b03168152505084838381518110614cc357614cc361768a565b602090810291909101015281614cd8816176cb565b925050600101614c49565b50604051630bd0dc9760e41b81526001600160a01b0389169063bd0dc97090614d1a905f9087908790600190600890600401617ef7565b5f604051808303815f87803b158015614d31575f5ffd5b505af1158015614d43573d5f5f3e3d5ffd5b505050505050505050505050565b6001600160a01b038082165f8181526020889052604090206002015460ff169184169003614da3575f5b60048160ff161015614d9d57614d958684835f5f5f616413565b600101614d7b565b50614ff2565b6005816007811115614db757614db7617147565b1480614dd457506006816007811115614dd257614dd2617147565b145b80614df057506007816007811115614dee57614dee617147565b145b15614f22576001600160a01b038083165f8181526020878152604080832080546001600160a01b03191690941790935589905220541680614e435760405162461bcd60e51b81526004016107b190617f5f565b5f5b60048160ff161015614f1b575f80806007866007811115614e6857614e68617147565b03614e7a575085915081905080614f02565b6006866007811115614e8e57614e8e617147565b03614ec8575050506001600160a01b038083165f9081526020898152604080832060ff861684529091529020600201548591829116614f02565b5050506001600160a01b038281165f9081526020898152604080832060ff8616845290915290206002810154600190910154869290811691165b614f108a8886868686616413565b505050600101614e45565b5050614ff2565b6001600160a01b038083165f908152602088905260409020541680614f595760405162461bcd60e51b81526004016107b190617f5f565b5f5b60048160ff161015614f7b57614f738783868461649a565b600101614f5b565b506004826007811115614f9057614f90617147565b03614fc2576001600160a01b0383165f81815260208790526040902080546001600160a01b0319169091179055614ff0565b6001600160a01b038381165f90815260208790526040902080546001600160a01b0319169183169190911790555b505b6001600160a01b0382165f908152602087905260408120600101905b81548110156114e357615049888888888686815481106150305761503061768a565b5f918252602090912001546001600160a01b0316614d51565b60010161500e565b60115460ff161561509e5760405162461bcd60e51b81526020600482015260176024820152764261746368207570646174652069732072756e6e696e6760481b60448201526064016107b1565b5f5b600f5481101561516857615160600f82815481106150c0576150c061768a565b5f918252602090912060059091020154600f80546001600160a01b0390921691849081106150f0576150f061768a565b905f5260205f2090600502016001015f9054906101000a90046001600160a01b0316600f84815481106151255761512561768a565b905f5260205f20906005020160020154600f85815481106151485761514861768a565b905f5260205f209060050201600301545f5f1b6151f2565b6001016150a0565b50615174600f5f616dd3565b5f5b6010548110156151e6576151de601082815481106151965761519661768a565b5f918252602090912060039091020154601080546001600160a01b0390921691849081106151c6576151c661768a565b905f5260205f209060030201600101545f5f1b615d92565b600101615176565b5061152e60105f616df1565b601c54604051637a5a18f760e01b815260048101849052602481018590525f916001600160a01b031690637a5a18f790604401602060405180830381865afa158015615240573d5f5f3e3d5ffd5b505050506040513d601f19601f8201168201806040525081019061526491906177d5565b604080516080810182526001600160a01b03888116825282515f80825260208083018652808501928352848601829052606085018290528c8416825260048152949020835181546001600160a01b0319169316929092178255518051949550919390926152d8926001850192910190616e0f565b50604082015160028201805460ff191660018360078111156152fc576152fc617147565b0217905550606082015160028201805461ff00191661010083600381111561532657615326617147565b02179055509050506040518060a00160405280426301e133806153499190617664565b81525f60208083018290526040808401839052606080850184905260809485018490526001600160a01b038c1684526005835292819020855181558583015160018201558582015160028201559285015160038401559390920151600490910155815180830190925260128252713ab9b2b9103732bbb6b2b6b132b91036309d60711b908201526153da9087615ba9565b6154136040518060600160405280602881526020016180df602891396001600160a01b0388165f90815260056020526040902054615d07565b6040516001600160601b0319606088901b1660208201525f9060340160408051808303601f19018152908290528051602090910120601b5463180db04b60e11b8352600483018290529092505f916001600160a01b039091169063301b609690602401602060405180830381865afa158015615491573d5f5f3e3d5ffd5b505050506040513d601f19601f820116820180604052508101906154b591906177d5565b6001600160a01b03160361552557601b5460405163138c392360e21b81526001600160a01b0390911690634e30e48c906154f7908a908990899060040161788b565b5f604051808303815f87803b15801561550e575f5ffd5b505af1158015615520573d5f5f3e3d5ffd5b505050505b6003805460018181019092557fc2575a0e9e593c00f959f8c92f12db2869c3395a3b0502d05e2516446f71f85b0180546001600160a01b03808b166001600160a01b0319928316811790935589165f818152600460209081526040808320870180548089018255908452828420018054909516909517909355908152600790915290812080549091906155b9908490617664565b90915550506001600160a01b0386165f9081526009602052604081208054600192906155e6908490617664565b90915550600190506001600160a01b0387165f90815260046020526040902060020154610100900460ff16600381111561562257615622617147565b14615639576156346004600c8861654b565b61563b565b855b6001600160a01b038089165f818152600c602052604080822080549585166001600160a01b0319968716179055600e805460018181018355919093527fbb7b4a454dc3493923482f07822329ed19e8244eff582cc204f8554c3620c3fd9092018054909516909217909355601b54905163e115dc7f60e01b815291169163e115dc7f916156d5918a91889161271091600390600401617858565b5f604051808303815f87803b1580156156ec575f5ffd5b505af11580156156fe573d5f5f3e3d5ffd5b505050506001600160a01b0382161561587b57601c5460405163da77abed60e01b81525f916001600160a01b03169063da77abed906157449086906001906004016179c4565b6020604051808303815f875af1158015615760573d5f5f3e3d5ffd5b505050506040513d601f19601f8201168201806040525081019061578491906179ad565b601b549091506001600160a01b031663e115dc7f848660646157a886614e20617841565b6157b2919061782e565b600160046040518663ffffffff1660e01b81526004016157d6959493929190617858565b5f604051808303815f87803b1580156157ed575f5ffd5b505af11580156157ff573d5f5f3e3d5ffd5b5050601c546001600160a01b0316915063c849c1d0905084606461582585614e20617841565b61582f919061782e565b6040518363ffffffff1660e01b815260040161584c9291906179c4565b5f604051808303815f87803b158015615863575f5ffd5b505af1158015615875573d5f5f3e3d5ffd5b50505050505b601b546016546001600160a01b039182169163e115dc7f9116856158a3612710614e20617664565b6158be670de0b6b3a764000068022b1c8c1227a0000061782e565b6158ca906103e8617841565b6158d49190617677565b600160026040518663ffffffff1660e01b81526004016158f8959493929190617858565b5f604051808303815f87803b15801561590f575f5ffd5b505af1158015615921573d5f5f3e3d5ffd5b5050505050505050505050565b600183015481106159775760405162461bcd60e51b8152602060048201526013602482015272125b9d985b1a59081859d95b9d081b195d995b606a1b60448201526064016107b1565b6001600160a01b039091165f908152602092909252604090912055565b6001600160a01b0381165f90815260208490526040812060030154906159ba86846165e2565b9050620186a082101580156159d0575060078110155b15615a1e576001600160a01b0383165f818152602088815260408220600201805460ff19166007179055865460018101885587835291200180546001600160a01b031916909117905561253d565b61c3508210158015615a31575060068110155b15615a68576001600160a01b0383165f90815260208790526040902060020180546006919060ff19166001835b021790555061253d565b6161a88210158015615a7b575060058110155b15615aac576001600160a01b0383165f90815260208790526040902060020180546005919060ff1916600183615a5e565b6127108210158015615abf575060048110155b15615af0576001600160a01b0383165f90815260208790526040902060020180546004919060ff1916600183615a5e565b6113888210158015615b03575060038110155b15615b34576001600160a01b0383165f90815260208790526040902060020180546003919060ff1916600183615a5e565b6109c48210158015615b47575060028110155b15615b76576001600160a01b0383165f9081526020879052604090206002908101805460ff1916600183615a5e565b6001811061253d5750506001600160a01b03165f908152602093909352505060409020600201805460ff19166001179055565b611cf88282604051602401615bbf929190617fc0565b60408051601f198184030181529190526020810180516001600160e01b031663319af33360e01b179052616685565b600e545f906001600160401b03811115615c0a57615c0a616f21565b604051908082528060200260200182016040528015615c33578160200160208202803683370190505b5090505f805b600e54811015615cf45760045f600e8381548110615c5957615c5961768a565b5f9182526020808320909101546001600160a01b031683528201929092526040018120600101549003615cec57600e8181548110615c9957615c9961768a565b905f5260205f20015f9054906101000a90046001600160a01b0316838381518110615cc657615cc661768a565b6001600160a01b039092166020928302919091019091015281615ce8816176cb565b9250505b600101615c39565b5080825261090d600e6020840183616e0f565b611cf88282604051602401615d1d929190617fe9565b60408051601f198184030181529190526020810180516001600160e01b03166309710a9d60e41b179052616685565b615d8f81604051602401615d60919061800a565b60408051601f198184030181529190526020810180516001600160e01b031663104c13eb60e21b179052616685565b50565b6001600160a01b038381165f908152601260205260409020541615615dcf576001600160a01b039283165f90815260126020526040902054909216915b6001600160a01b0383165f9081526005602052604081206002018054849290615df9908490617664565b90915550506001600160a01b0383165f9081526008602052604081208054849290615e25908490617664565b90915550506040805180820190915260088152673ab9b2b91036309d60c11b6020820152615e539084615ba9565b615eb160405180604001604052806019815260200178383937b23ab1ba21282a3434b9a6b7b73a342dbab9b2b92e9d60391b81525060085f866001600160a01b03166001600160a01b031681526020019081526020015f2054615d07565b6001600160a01b0383165f908152602081905260408120548390829015615f1b57615ede5f8760146166a5565b92506103e8615eef61014587617841565b615ef9919061782e565b91506103e8615f0a86610113617841565b615f14919061782e565b9050615f39565b601492506064615f2c866020617841565b615f36919061782e565b90505b60026001600160a01b0387165f90815260046020526040902060020154610100900460ff166003811115615f6f57615f6f617147565b14615fee57601b546001600160a01b031663e115dc7f87866064615f93888b617841565b615f9d919061782e565b60015f6040518663ffffffff1660e01b8152600401615fc0959493929190617858565b5f604051808303815f87803b158015615fd7575f5ffd5b505af1158015615fe9573d5f5f3e3d5ffd5b505050505b5f60016001600160a01b0388165f90815260046020526040902060020154610100900460ff16600381111561602557616025617147565b14905061603b6004600560076008600a8c613f2f565b508015801561607d575060016001600160a01b0388165f90815260046020526040902060020154610100900460ff16600381111561607b5761607b617147565b145b1561608f5761608f6004600c8961472f565b866001600160a01b03167fdf1ac62d04b5b70d0905c8f87d228f5da1978ab102137d771163b0ade4eb2fee876040516160ca91815260200190565b60405180910390a2601b546160f090600490600c906001600160a01b03168a878a6166f0565b6160fa87846168a3565b5f6064616108600286617841565b616112919061782e565b601b5460405163043cff6b60e31b815260048101839052602481018990529192506001600160a01b0316906321e7fb58906044015f604051808303815f87803b15801561615d575f5ffd5b505af115801561616f573d5f5f3e3d5ffd5b505050506001600160a01b038881165f908152600660205260409020541680156162fa57601c54604051630f08ae3f60e41b81525f916001600160a01b03169063f08ae3f0906161c390859060040161734e565b6020604051808303815f875af11580156161df573d5f5f3e3d5ffd5b505050506040513d601f19601f8201168201806040525081019061620391906179ad565b90505f6127108261621560018a617841565b61621f9190617841565b616229919061782e565b905080156162f757601b5460405163e115dc7f60e01b81526001600160a01b039091169063e115dc7f9061626a9086908d9086906001905f90600401617858565b5f604051808303815f87803b158015616281575f5ffd5b505af1158015616293573d5f5f3e3d5ffd5b5050601c54604051630c849c1d60e41b81526001600160a01b03909116925063c849c1d091506162c990869085906004016179c4565b5f604051808303815f87803b1580156162e0575f5ffd5b505af11580156162f2573d5f5f3e3d5ffd5b505050505b50505b601b5461631b90600490600d90600b906001600160a01b03168d8d8d61691d565b601b546015546001600160a01b039182169163e115dc7f911689606461634260048b617841565b61634c919061782e565b6001806040518663ffffffff1660e01b815260040161636f959493929190617858565b5f604051808303815f87803b158015616386575f5ffd5b505af1158015616398573d5f5f3e3d5ffd5b5050601b5460165460405163e115dc7f60e01b81526001600160a01b03928316945063e115dc7f93506163db92909116908b908990600190600290600401617858565b5f604051808303815f87803b1580156163f2575f5ffd5b505af1158015616404573d5f5f3e3d5ffd5b50505050505050505050505050565b604080516060810182526001600160a01b03948516815292841660208085019182529285168483019081529685165f90815297835281882060ff909616885294909152909420935184549082166001600160a01b03199182161785559151600185018054918316918416919091179055915160029093018054939092169216919091179055565b6001600160a01b038316156137d9576001600160a01b039283165f9081526020858152604080832060ff94909416808452938252808320815160608101835281548816815260018083015489168286019081526002938401548a16838601908152988a168752998552838620968652959093529220905181546001600160a01b0319908116918716919091178255955192810180548716938616939093179092559151910180549093169116179055565b6001600160a01b038082165f908152602085905260408120549091165b6001600160a01b038116156165d85760016001600160a01b0382165f90815260208790526040902060020154610100900460ff1660038111156165ad576165ad617147565b036165b9579050611b7a565b6001600160a01b039081165f9081526020859052604090205416616568565b505f949350505050565b6001600160a01b0381165f9081526020839052604081208190600101815b815481101561667b576001865f84848154811061661f5761661f61768a565b5f9182526020808320909101546001600160a01b0316835282019290925260400190206002015460ff61010090910416600381111561666057616660617147565b03616673578261666f816176cb565b9350505b600101616600565b5090949350505050565b80516a636f6e736f6c652e6c6f67602083015f808483855afa5050505050565b6001600160a01b0382165f90815260208490526040812054806166c857826166e7565b8460010181815481106166dd576166dd61768a565b905f5260205f2001545b95945050505050565b6001600160a01b038084165f908152602087905260408120549091169060019060609081905b60058460ff161115801561673257506001600160a01b03851615155b15616833575f8460ff1660011461674a57600561674d565b600a5b90505f606461675c838b617841565b616766919061782e565b905060026001600160a01b0388165f90815260208f90526040902060020154610100900460ff16600381111561679e5761679e617147565b1461680257868584815181106167b6576167b661768a565b60200260200101906001600160a01b031690816001600160a01b031681525050808484815181106167e9576167e961768a565b6020908102919091010152826167fe816176cb565b9350505b6001600160a01b039687165f90815260208d90526040902054909616958561682981617d3f565b9650505050616716565b604051630bd0dc9760e41b81526001600160a01b038a169063bd0dc9709061686990899087908790600190600690600401617ef7565b5f604051808303815f87803b158015616880575f5ffd5b505af1158015616892573d5f5f3e3d5ffd5b505050505050505050505050505050565b6001600160a01b0382165f9081526019602052604090206001015460ff166168ed576001600160a01b0382165f9081526019602052604090206001908101805460ff191690911790555b6001600160a01b0382165f9081526019602052604081208054839290616914908490617664565b90915550505050565b6001600160a01b038084165f90815260208990526040812054909116906169448986616a7f565b6001600160a01b0386165f90815260208b9052604081206002015491925060ff91821691819081908190861615616a15575f9350600585600781111561698c5761698c617147565b036169cc5750506001600160a01b038581165f90815260208d8152604080832060ff89168452909152902060018101546002909101549082169116616a60565b60068560078111156169e0576169e0617147565b03616a1057506001600160a01b038087165f90815260208e8152604080832060ff8a168452909152902060020154165b616a60565b505050506001600160a01b038381165f90815260208a81526040808320548d835281842060ff8816855290925290912080546001820154600290920154928416939081169291811691165b616a6f8b898b87878787616b0f565b5050505050505050505050505050565b6001600160a01b0381165f9081526020839052604081206002015460ff166007816007811115616ab157616ab1617147565b03616ac05760039150506111a2565b6006816007811115616ad457616ad4617147565b03616ae35760029150506111a2565b6005816007811115616af757616af7617147565b03616b065760019150506111a2565b505f9392505050565b6060805f6001600160a01b03871615616b8f5786838281518110616b3557616b3561768a565b6001600160a01b03909216602092830291909101909101526064616b5a60028a617841565b616b64919061782e565b828281518110616b7657616b7661768a565b602090810291909101015280616b8b816176cb565b9150505b6001600160a01b03861615616c0b5785838281518110616bb157616bb161768a565b6001600160a01b03909216602092830291909101909101526064616bd660038a617841565b616be0919061782e565b828281518110616bf257616bf261768a565b602090810291909101015280616c07816176cb565b9150505b6001600160a01b03851615616c875784838281518110616c2d57616c2d61768a565b6001600160a01b03909216602092830291909101909101526064616c5260038a617841565b616c5c919061782e565b828281518110616c6e57616c6e61768a565b602090810291909101015280616c83816176cb565b9150505b6001600160a01b03841615616d035783838281518110616ca957616ca961768a565b6001600160a01b03909216602092830291909101909101526064616cce60038a617841565b616cd8919061782e565b828281518110616cea57616cea61768a565b602090810291909101015280616cff816176cb565b9150505b8251156133e857604051630bd0dc9760e41b81526001600160a01b038b169063bd0dc97090616d40908c9087908790600190600790600401617ef7565b5f604051808303815f87803b158015616d57575f5ffd5b505af1158015616a6f573d5f5f3e3d5ffd5b604080516080810182525f80825260606020830152909182019081526020015f905290565b6040518060a001604052805f81526020015f81526020015f81526020015f81526020015f81525090565b5080545f8255905f5260205f2090810190615d8f9190616e72565b5080545f8255600502905f5260205f2090810190615d8f9190616e86565b5080545f8255600302905f5260205f2090810190615d8f9190616ec6565b828054828255905f5260205f20908101928215616e62579160200282015b82811115616e6257825182546001600160a01b0319166001600160a01b03909116178255602090920191600190910190616e2d565b50616e6e929150616e72565b5090565b5b80821115616e6e575f8155600101616e73565b5b80821115616e6e5780546001600160a01b0319908116825560018201805490911690555f60028201819055600382018190556004820155600501616e87565b5b80821115616e6e5780546001600160a01b03191681555f600182018190556002820155600301616ec7565b6001600160a01b0381168114615d8f575f5ffd5b5f60208284031215616f16575f5ffd5b8135611b7a81616ef2565b634e487b7160e01b5f52604160045260245ffd5b604051608081016001600160401b0381118282101715616f5757616f57616f21565b60405290565b60405161012081016001600160401b0381118282101715616f5757616f57616f21565b60405161026081016001600160401b0381118282101715616f5757616f57616f21565b604051601f8201601f191681016001600160401b0381118282101715616fcb57616fcb616f21565b604052919050565b5f6001600160401b03821115616feb57616feb616f21565b5060051b60200190565b5f82601f830112617004575f5ffd5b813561701761701282616fd3565b616fa3565b8082825260208201915060208360051b860101925085831115617038575f5ffd5b602085015b8381101561705557803583526020928301920161703d565b5095945050505050565b5f5f5f60608486031215617071575f5ffd5b83359250602084013561708381616ef2565b915060408401356001600160401b0381111561709d575f5ffd5b6170a986828701616ff5565b9150509250925092565b60ff81168114615d8f575f5ffd5b5f5f5f5f608085870312156170d4575f5ffd5b84356170df81616ef2565b935060208501356170ef816170b3565b93969395505050506040820135916060013590565b5f8151808452602084019350602083015f5b8281101561713d5781516001600160a01b0316865260209586019590910190600101617116565b5093949350505050565b634e487b7160e01b5f52602160045260245ffd5b6008811061716b5761716b617147565b9052565b6004811061716b5761716b617147565b80516001600160a01b03168252602080820151608082850181905281519085018190525f929190910190829060a08601905b808310156171dc5783516001600160a01b0316825260209384019360019390930192909101906171b1565b50604085015192506171f1604087018461715b565b606085015192506166e7606087018461716f565b80518252602081015160208301526040810151604083015260608101516060830152608081015160808301525050565b606081525f6172476060830186617104565b828103602084015280855180835260208301915060208160051b840101602088015f5b8381101561729c57601f1986840301855261728683835161717f565b602095860195909350919091019060010161726a565b505085810360408701528651808252602091820194509250860190505f5b828110156172e3576172cd848351617205565b60a09390930192602091909101906001016172ba565b5091979650505050505050565b5f5f60408385031215617301575f5ffd5b50508035926020909101359150565b5f5f5f60608486031215617322575f5ffd5b833561732d81616ef2565b9250602084013561733d81616ef2565b929592945050506040919091013590565b6001600160a01b0391909116815260200190565b5f5f5f5f5f60a08688031215617376575f5ffd5b853561738181616ef2565b9450602086013561739181616ef2565b94979496505050506040830135926060810135926080909101359150565b5f5f5f606084860312156173c1575f5ffd5b83356173cc81616ef2565b95602085013595506040909401359392505050565b6009811061716b5761716b617147565b602080825282518282018190525f918401906040840190835b8181101561745e57835180516001600160a01b03168452602080820151908501526040808201519061743e908601826173e1565b50606090810151908401526020939093019260809092019160010161740a565b509095945050505050565b5f5f6040838503121561747a575f5ffd5b8235915060208301356001600160401b03811115617496575f5ffd5b6174a285828601616ff5565b9150509250929050565b5f5f604083850312156174bd575f5ffd5b82356174c881616ef2565b946020939093013593505050565b5f602082840312156174e6575f5ffd5b5035919050565b602081525f611b7a6020830184617104565b8015158114615d8f575f5ffd5b5f6020828403121561751c575f5ffd5b8135611b7a816174ff565b60c081525f61753960c083018561717f565b9050611b7a6020830184617205565b5f5f5f5f6080858703121561755b575f5ffd5b843561756681616ef2565b966020860135965060408601359560600135945092505050565b6020808252818101527f4f776e61626c653a2063616c6c6572206973206e6f7420746865206f776e6572604082015260600190565b6020808252601d908201527f416d6f756e74206d7573742062652067726561746572207468616e2030000000604082015260600190565b60208082526015908201527410dbdb9d1c9858dd1cc81b9bdd08185b1b1bddd959605a1b604082015260600190565b6020808252601b908201527a14db585c9d0818dbdb9d1c9858dd1cc81b9bdd08185b1b1bddd959602a1b604082015260600190565b634e487b7160e01b5f52601160045260245ffd5b808201808211156111a2576111a2617650565b818103818111156111a2576111a2617650565b634e487b7160e01b5f52603260045260245ffd5b602080825260139082015272092dcecc2d8d2c840e6e8c2e4e840d2dcc8caf606b1b604082015260600190565b5f600182016176dc576176dc617650565b5060010190565b6020808252600e908201526d53797374656d207570677261646560901b604082015260600190565b6020808252601390820152725573657220616c72656164792065786973747360681b604082015260600190565b6020808252601a908201527905573657220616c72656164792065786973747320696e205649560341b604082015260600190565b60208082526015908201527414185c995b9d08191bd95cc81b9bdd08195e1a5cdd605a1b604082015260600190565b60208082526010908201526f506172656e74206e6f7420616c6c6f7760801b604082015260600190565b80516177d081616ef2565b919050565b5f602082840312156177e5575f5ffd5b8151611b7a81616ef2565b60208082526010908201526f0e0c2e4cadce840dcdee840dac2e8c6d60831b604082015260600190565b634e487b7160e01b5f52601260045260245ffd5b5f8261783c5761783c61781a565b500490565b80820281158282048414176111a2576111a2617650565b6001600160a01b03861681526020810185905260408101849052821515606082015260a08101613f2560808301846173e1565b6001600160a01b039390931683526020830191909152604082015260600190565b5f602082840312156178bc575f5ffd5b81516001600160401b038111156178d1575f5ffd5b8201601f810184136178e1575f5ffd5b80516178ef61701282616fd3565b8082825260208201915060208360071b850101925086831115617910575f5ffd5b6020840193505b82841015613f25576080848803121561792e575f5ffd5b617936616f35565b845161794181616ef2565b81526020858101519082015260408501516009811061795e575f5ffd5b6040820152606085810151908201528252608090930192602090910190617917565b602080825260139082015272155cd95c88191bd95cc81b9bdd08195e1a5cdd606a1b604082015260600190565b5f602082840312156179bd575f5ffd5b5051919050565b6001600160a01b03929092168252602082015260400190565b5f602082840312156179ed575f5ffd5b8151611b7a816174ff565b5f610120828403128015617a0a575f5ffd5b50617a13616f5d565b825181526020808401519082015260408084015190820152606080840151908201526080808401519082015260a0808401519082015260c0808401519082015260e08084015190820152610100928301519281019290925250919050565b60208082526010908201526f77726f6e67206f7264657220436f646560801b604082015260600190565b6020808252600f908201526e13dc99195c881b9bdd08199bdd5b99608a1b604082015260600190565b5f82601f830112617ad3575f5ffd5b8151617ae161701282616fd3565b8082825260208201915060208360051b860101925085831115617b02575f5ffd5b602085015b83811015617055578051835260209283019201617b07565b80516177d0816170b3565b5f60208284031215617b3a575f5ffd5b81516001600160401b03811115617b4f575f5ffd5b82016102608185031215617b61575f5ffd5b617b69616f80565b81518152617b79602083016177c5565b6020820152617b8a604083016177c5565b60408201526060828101519082015260808201516001600160401b03811115617bb1575f5ffd5b617bbd86828501617ac4565b60808301525060a08201516001600160401b03811115617bdb575f5ffd5b617be786828501617ac4565b60a08301525060c08201516001600160401b03811115617c05575f5ffd5b617c1186828501617ac4565b60c08301525060e08201516001600160401b03811115617c2f575f5ffd5b617c3b86828501617ac4565b60e0830152506101008201516001600160401b03811115617c5a575f5ffd5b617c6686828501617ac4565b610100830152506101208201516001600160401b03811115617c86575f5ffd5b617c9286828501617ac4565b610120830152506101408201516001600160401b03811115617cb2575f5ffd5b617cbe86828501617ac4565b610140830152506101608281015190820152617cdd6101808301617b1f565b610180820152617cf06101a08301617b1f565b6101a08201526101c082810151908201526101e080830151908201526102008083015190820152617d246102208301617b1f565b61022082015261024091820151918101919091529392505050565b5f60ff821660ff8103617d5457617d54617650565b60010192915050565b6020808252600c908201526b15dc9bdb99c8185b5bdd5b9d60a21b604082015260600190565b634e487b7160e01b5f52603160045260245ffd5b6001600160a01b03831681526040602080830182905283519183018290525f91908401906060840190835b81811015617de0578351835260209384019390920191600101617dc2565b50909695505050505050565b602080825260149082015273496e73756666696369656e742062616c616e636560601b604082015260600190565b60208082526021908201527f496e73756666696369656e742062616c616e636520666f7220776974686472616040820152607760f81b606082015260800190565b6020808252600b908201526a44656e792061636365737360a81b604082015260600190565b6020808252601a90820152794e6f7420656e6f756768207573647420696e2074726565436f6d60301b604082015260600190565b6001600160601b0319606093841b811682529190921b16601482015260280190565b5f60ff831680617ee857617ee861781a565b8060ff84160691505092915050565b85815260a060208201525f617f0f60a0830187617104565b8281036040840152855180825260208088019201905f5b81811015617f44578351835260209384019390920191600101617f26565b505085151560608501529150613f25905060808301846173e1565b602080825260199082015278506172656e74206c6f737420647572696e672072657365742160381b604082015260600190565b5f81518084528060208401602086015e5f602082860101526020601f19601f83011685010191505092915050565b604081525f617fd26040830185617f92565b905060018060a01b03831660208301529392505050565b604081525f617ffb6040830185617f92565b90508260208301529392505050565b602081525f611b7a6020830184617f9256fe8d1108e10bcb7c27dddfc02ed9d693a074039d026cf4ea4240b40f7d581ac8068d1108e10bcb7c27dddfc02ed9d693a074039d026cf4ea4240b40f7d581ac8058d1108e10bcb7c27dddfc02ed9d693a074039d026cf4ea4240b40f7d581ac8048d1108e10bcb7c27dddfc02ed9d693a074039d026cf4ea4240b40f7d581ac8036b69656d207472612070726f647563744250546869734d6f6e74685b757365725d3a8d1108e10bcb7c27dddfc02ed9d693a074039d026cf4ea4240b40f7d581ac8026e6f6465446174615b6e65774d656d6265725d2e6d656d62657273686970457870697279206c613aa264697066735822122035f0822d645b2e3a968647572dddfffadc69cfcec551e50f421b71dd04c8cb0564736f6c634300081e0033",
			"opcodes": "PUSH1 0x80 PUSH1 0x40 MSTORE PUSH1 0x11 DUP1 SLOAD PUSH2 0xFFFF NOT AND SWAP1 SSTORE CALLVALUE DUP1 ISZERO PUSH2 0x1A JUMPI PUSH0 PUSH0 REVERT JUMPDEST POP PUSH1 0x40 MLOAD PUSH2 0x8422 CODESIZE SUB DUP1 PUSH2 0x8422 DUP4 CODECOPY DUP2 ADD PUSH1 0x40 DUP2 SWAP1 MSTORE PUSH2 0x39 SWAP2 PUSH2 0x1EF JUMP JUMPDEST PUSH9 0x68155A43676E00000 PUSH2 0x3E8 PUSH2 0x5B PUSH3 0x186A0 PUSH8 0xDE0B6B3A7640000 PUSH2 0x291 JUMP JUMPDEST PUSH2 0x65 SWAP2 SWAP1 PUSH2 0x2BA JUMP JUMPDEST LT PUSH2 0xA3 JUMPI PUSH1 0x40 MLOAD PUSH3 0x461BCD PUSH1 0xE5 SHL DUP2 MSTORE PUSH1 0x20 PUSH1 0x4 DUP3 ADD MSTORE PUSH1 0xA PUSH1 0x24 DUP3 ADD MSTORE PUSH10 0x77726F6E6720636F6465 PUSH1 0xB0 SHL PUSH1 0x44 DUP3 ADD MSTORE PUSH1 0x64 ADD PUSH1 0x40 MLOAD DUP1 SWAP2 SUB SWAP1 REVERT JUMPDEST PUSH1 0x1B DUP1 SLOAD PUSH1 0x1 PUSH1 0x1 PUSH1 0xA0 SHL SUB NOT SWAP1 DUP2 AND PUSH1 0x1 PUSH1 0x1 PUSH1 0xA0 SHL SUB DUP11 DUP2 AND SWAP2 SWAP1 SWAP2 OR SWAP1 SWAP3 SSTORE PUSH1 0x1C DUP1 SLOAD DUP3 AND DUP10 DUP5 AND OR SWAP1 SSTORE PUSH1 0x1D DUP1 SLOAD DUP3 AND DUP9 DUP5 AND OR SWAP1 SSTORE PUSH1 0x17 DUP1 SLOAD DUP3 AND DUP5 DUP5 AND OR SWAP1 SSTORE PUSH1 0x14 DUP1 SLOAD DUP3 AND DUP8 DUP5 AND OR SWAP1 SSTORE PUSH1 0x15 DUP1 SLOAD DUP3 AND DUP7 DUP5 AND OR SWAP1 SSTORE PUSH1 0x16 DUP1 SLOAD DUP3 AND DUP6 DUP5 AND OR SWAP1 SSTORE PUSH1 0x1E DUP1 SLOAD DUP3 AND DUP13 DUP5 AND OR DUP2 SSTORE PUSH1 0x1F DUP1 SLOAD DUP4 AND SWAP4 DUP13 AND SWAP4 SWAP1 SWAP4 OR SWAP1 SWAP3 SSTORE PUSH1 0x18 DUP1 SLOAD CALLER SWAP3 AND SWAP2 SWAP1 SWAP2 OR SWAP1 SSTORE PUSH1 0x1 DUP1 SLOAD DUP1 DUP3 ADD DUP3 SSTORE PUSH0 DUP3 DUP2 MSTORE PUSH32 0xB10E2D527612073B26EECDFD717E6A320CF44B4AFAC2B0732D9FCBE2B7FA0CF6 SWAP2 DUP3 ADD SSTORE DUP2 SLOAD DUP1 DUP4 ADD DUP4 SSTORE PUSH1 0x28 SWAP1 DUP3 ADD SSTORE DUP2 SLOAD DUP1 DUP4 ADD DUP4 SSTORE PUSH1 0x23 SWAP1 DUP3 ADD SSTORE DUP2 SLOAD DUP1 DUP4 ADD DUP4 SSTORE DUP2 ADD SWAP3 SWAP1 SWAP3 SSTORE DUP1 SLOAD DUP1 DUP3 ADD SWAP1 SWAP2 SSTORE PUSH1 0x19 SWAP2 ADD SSTORE POP POP PUSH1 0x14 SLOAD PUSH1 0x1 PUSH1 0x1 PUSH1 0xA0 SHL SUB AND PUSH0 SWAP1 DUP2 MSTORE PUSH1 0x4 PUSH1 0x20 MSTORE PUSH1 0x40 SWAP1 KECCAK256 PUSH1 0x2 ADD DUP1 SLOAD PUSH2 0xFF00 NOT AND PUSH2 0x100 OR SWAP1 SSTORE POP PUSH2 0x2D9 SWAP6 POP POP POP POP POP POP JUMP JUMPDEST DUP1 MLOAD PUSH1 0x1 PUSH1 0x1 PUSH1 0xA0 SHL SUB DUP2 AND DUP2 EQ PUSH2 0x1EA JUMPI PUSH0 PUSH0 REVERT JUMPDEST SWAP2 SWAP1 POP JUMP JUMPDEST PUSH0 PUSH0 PUSH0 PUSH0 PUSH0 PUSH0 PUSH0 PUSH0 PUSH0 PUSH2 0x120 DUP11 DUP13 SUB SLT ISZERO PUSH2 0x208 JUMPI PUSH0 PUSH0 REVERT JUMPDEST PUSH2 0x211 DUP11 PUSH2 0x1D4 JUMP JUMPDEST SWAP9 POP PUSH2 0x21F PUSH1 0x20 DUP12 ADD PUSH2 0x1D4 JUMP JUMPDEST SWAP8 POP PUSH2 0x22D PUSH1 0x40 DUP12 ADD PUSH2 0x1D4 JUMP JUMPDEST SWAP7 POP PUSH2 0x23B PUSH1 0x60 DUP12 ADD PUSH2 0x1D4 JUMP JUMPDEST SWAP6 POP PUSH2 0x249 PUSH1 0x80 DUP12 ADD PUSH2 0x1D4 JUMP JUMPDEST SWAP5 POP PUSH2 0x257 PUSH1 0xA0 DUP12 ADD PUSH2 0x1D4 JUMP JUMPDEST SWAP4 POP PUSH2 0x265 PUSH1 0xC0 DUP12 ADD PUSH2 0x1D4 JUMP JUMPDEST SWAP3 POP PUSH2 0x273 PUSH1 0xE0 DUP12 ADD PUSH2 0x1D4 JUMP JUMPDEST SWAP2 POP PUSH2 0x282 PUSH2 0x100 DUP12 ADD PUSH2 0x1D4 JUMP JUMPDEST SWAP1 POP SWAP3 SWAP6 SWAP9 POP SWAP3 SWAP6 SWAP9 POP SWAP3 SWAP6 SWAP9 JUMP JUMPDEST DUP1 DUP3 MUL DUP2 ISZERO DUP3 DUP3 DIV DUP5 EQ OR PUSH2 0x2B4 JUMPI PUSH4 0x4E487B71 PUSH1 0xE0 SHL PUSH0 MSTORE PUSH1 0x11 PUSH1 0x4 MSTORE PUSH1 0x24 PUSH0 REVERT JUMPDEST SWAP3 SWAP2 POP POP JUMP JUMPDEST PUSH0 DUP3 PUSH2 0x2D4 JUMPI PUSH4 0x4E487B71 PUSH1 0xE0 SHL PUSH0 MSTORE PUSH1 0x12 PUSH1 0x4 MSTORE PUSH1 0x24 PUSH0 REVERT JUMPDEST POP DIV SWAP1 JUMP JUMPDEST PUSH2 0x813C DUP1 PUSH2 0x2E6 PUSH0 CODECOPY PUSH0 RETURN INVALID PUSH1 0x80 PUSH1 0x40 MSTORE PUSH1 0x4 CALLDATASIZE LT PUSH2 0x1BF JUMPI PUSH0 CALLDATALOAD PUSH1 0xE0 SHR DUP1 PUSH4 0x8A851B8 EQ PUSH2 0x1C3 JUMPI DUP1 PUSH4 0xD5795B9 EQ PUSH2 0x1E4 JUMPI DUP1 PUSH4 0x10D86B1F EQ PUSH2 0x203 JUMPI DUP1 PUSH4 0x185807E4 EQ PUSH2 0x222 JUMPI DUP1 PUSH4 0x1DA0073A EQ PUSH2 0x241 JUMPI DUP1 PUSH4 0x1F01F30D EQ PUSH2 0x278 JUMPI DUP1 PUSH4 0x20D996D2 EQ PUSH2 0x2A5 JUMPI DUP1 PUSH4 0x259DBD96 EQ PUSH2 0x2EE JUMPI DUP1 PUSH4 0x2CF899E2 EQ PUSH2 0x30D JUMPI DUP1 PUSH4 0x35B79C3D EQ PUSH2 0x321 JUMPI DUP1 PUSH4 0x38CB9134 EQ PUSH2 0x335 JUMPI DUP1 PUSH4 0x38CC4831 EQ PUSH2 0x379 JUMPI DUP1 PUSH4 0x3BD47C22 EQ PUSH2 0x3B7 JUMPI DUP1 PUSH4 0x405978F8 EQ PUSH2 0x3D6 JUMPI DUP1 PUSH4 0x40D1AC13 EQ PUSH2 0x3F5 JUMPI DUP1 PUSH4 0x424AD610 EQ PUSH2 0x421 JUMPI DUP1 PUSH4 0x432E9D88 EQ PUSH2 0x440 JUMPI DUP1 PUSH4 0x4A0328DE EQ PUSH2 0x45F JUMPI DUP1 PUSH4 0x504ED733 EQ PUSH2 0x47E JUMPI DUP1 PUSH4 0x58979BFE EQ PUSH2 0x4B6 JUMPI DUP1 PUSH4 0x5F35CA9C EQ PUSH2 0x4D5 JUMPI DUP1 PUSH4 0x61474327 EQ PUSH2 0x4F4 JUMPI DUP1 PUSH4 0x61A475C8 EQ PUSH2 0x513 JUMPI DUP1 PUSH4 0x667883F1 EQ PUSH2 0x53E JUMPI DUP1 PUSH4 0x6C0ADBBD EQ PUSH2 0x55D JUMPI DUP1 PUSH4 0x8345BE55 EQ PUSH2 0x57C JUMPI DUP1 PUSH4 0x8B59D23E EQ PUSH2 0x59B JUMPI DUP1 PUSH4 0x8CA8107B EQ PUSH2 0x5BA JUMPI DUP1 PUSH4 0x964B74DD EQ PUSH2 0x5D9 JUMPI DUP1 PUSH4 0xAF4267AB EQ PUSH2 0x605 JUMPI DUP1 PUSH4 0xB35CADE9 EQ PUSH2 0x624 JUMPI DUP1 PUSH4 0xB9BCAF02 EQ PUSH2 0x643 JUMPI DUP1 PUSH4 0xBCD565BA EQ PUSH2 0x656 JUMPI DUP1 PUSH4 0xC2AD61E7 EQ PUSH2 0x675 JUMPI DUP1 PUSH4 0xD7B5A2D4 EQ PUSH2 0x700 JUMPI DUP1 PUSH4 0xDB499BF5 EQ PUSH2 0x71F JUMPI DUP1 PUSH4 0xE1AB8C6B EQ PUSH2 0x733 JUMPI DUP1 PUSH4 0xE45C1B56 EQ PUSH2 0x755 JUMPI DUP1 PUSH4 0xE85D0A86 EQ PUSH2 0x774 JUMPI JUMPDEST PUSH0 PUSH0 REVERT JUMPDEST CALLVALUE DUP1 ISZERO PUSH2 0x1CE JUMPI PUSH0 PUSH0 REVERT JUMPDEST POP PUSH2 0x1E2 PUSH2 0x1DD CALLDATASIZE PUSH1 0x4 PUSH2 0x6F06 JUMP JUMPDEST PUSH2 0x787 JUMP JUMPDEST STOP JUMPDEST CALLVALUE DUP1 ISZERO PUSH2 0x1EF JUMPI PUSH0 PUSH0 REVERT JUMPDEST POP PUSH2 0x1E2 PUSH2 0x1FE CALLDATASIZE PUSH1 0x4 PUSH2 0x6F06 JUMP JUMPDEST PUSH2 0x7DC JUMP JUMPDEST CALLVALUE DUP1 ISZERO PUSH2 0x20E JUMPI PUSH0 PUSH0 REVERT JUMPDEST POP PUSH2 0x1E2 PUSH2 0x21D CALLDATASIZE PUSH1 0x4 PUSH2 0x6F06 JUMP JUMPDEST PUSH2 0x828 JUMP JUMPDEST CALLVALUE DUP1 ISZERO PUSH2 0x22D JUMPI PUSH0 PUSH0 REVERT JUMPDEST POP PUSH2 0x1E2 PUSH2 0x23C CALLDATASIZE PUSH1 0x4 PUSH2 0x705F JUMP JUMPDEST PUSH2 0x87A JUMP JUMPDEST CALLVALUE DUP1 ISZERO PUSH2 0x24C JUMPI PUSH0 PUSH0 REVERT JUMPDEST POP PUSH2 0x260 PUSH2 0x25B CALLDATASIZE PUSH1 0x4 PUSH2 0x70C1 JUMP JUMPDEST PUSH2 0x912 JUMP JUMPDEST PUSH1 0x40 MLOAD PUSH2 0x26F SWAP4 SWAP3 SWAP2 SWAP1 PUSH2 0x7235 JUMP JUMPDEST PUSH1 0x40 MLOAD DUP1 SWAP2 SUB SWAP1 RETURN JUMPDEST CALLVALUE DUP1 ISZERO PUSH2 0x283 JUMPI PUSH0 PUSH0 REVERT JUMPDEST POP PUSH2 0x297 PUSH2 0x292 CALLDATASIZE PUSH1 0x4 PUSH2 0x72F0 JUMP JUMPDEST PUSH2 0xD4B JUMP JUMPDEST PUSH1 0x40 MLOAD SWAP1 DUP2 MSTORE PUSH1 0x20 ADD PUSH2 0x26F JUMP JUMPDEST CALLVALUE DUP1 ISZERO PUSH2 0x2B0 JUMPI PUSH0 PUSH0 REVERT JUMPDEST POP PUSH2 0x2DE PUSH2 0x2BF CALLDATASIZE PUSH1 0x4 PUSH2 0x6F06 JUMP JUMPDEST PUSH1 0x1 PUSH1 0x1 PUSH1 0xA0 SHL SUB SWAP1 DUP2 AND PUSH0 SWAP1 DUP2 MSTORE PUSH1 0x4 PUSH1 0x20 MSTORE PUSH1 0x40 SWAP1 KECCAK256 SLOAD AND ISZERO ISZERO SWAP1 JUMP JUMPDEST PUSH1 0x40 MLOAD SWAP1 ISZERO ISZERO DUP2 MSTORE PUSH1 0x20 ADD PUSH2 0x26F JUMP JUMPDEST CALLVALUE DUP1 ISZERO PUSH2 0x2F9 JUMPI PUSH0 PUSH0 REVERT JUMPDEST POP PUSH2 0x1E2 PUSH2 0x308 CALLDATASIZE PUSH1 0x4 PUSH2 0x7310 JUMP JUMPDEST PUSH2 0x11A8 JUMP JUMPDEST CALLVALUE DUP1 ISZERO PUSH2 0x318 JUMPI PUSH0 PUSH0 REVERT JUMPDEST POP PUSH2 0x1E2 PUSH2 0x14ED JUMP JUMPDEST CALLVALUE DUP1 ISZERO PUSH2 0x32C JUMPI PUSH0 PUSH0 REVERT JUMPDEST POP PUSH2 0x1E2 PUSH2 0x1530 JUMP JUMPDEST CALLVALUE DUP1 ISZERO PUSH2 0x340 JUMPI PUSH0 PUSH0 REVERT JUMPDEST POP PUSH2 0x36C PUSH2 0x34F CALLDATASIZE PUSH1 0x4 PUSH2 0x6F06 JUMP JUMPDEST PUSH1 0x1 PUSH1 0x1 PUSH1 0xA0 SHL SUB SWAP1 DUP2 AND PUSH0 SWAP1 DUP2 MSTORE PUSH1 0x4 PUSH1 0x20 MSTORE PUSH1 0x40 SWAP1 KECCAK256 SLOAD AND SWAP1 JUMP JUMPDEST PUSH1 0x40 MLOAD PUSH2 0x26F SWAP2 SWAP1 PUSH2 0x734E JUMP JUMPDEST CALLVALUE DUP1 ISZERO PUSH2 0x384 JUMPI PUSH0 PUSH0 REVERT JUMPDEST POP PUSH2 0x38D PUSH2 0x1579 JUMP JUMPDEST PUSH1 0x40 DUP1 MLOAD PUSH1 0x1 PUSH1 0x1 PUSH1 0xA0 SHL SUB SWAP5 DUP6 AND DUP2 MSTORE SWAP3 DUP5 AND PUSH1 0x20 DUP5 ADD MSTORE SWAP3 AND SWAP2 DUP2 ADD SWAP2 SWAP1 SWAP2 MSTORE PUSH1 0x60 ADD PUSH2 0x26F JUMP JUMPDEST CALLVALUE DUP1 ISZERO PUSH2 0x3C2 JUMPI PUSH0 PUSH0 REVERT JUMPDEST POP PUSH2 0x1E2 PUSH2 0x3D1 CALLDATASIZE PUSH1 0x4 PUSH2 0x7362 JUMP JUMPDEST PUSH2 0x15CB JUMP JUMPDEST CALLVALUE DUP1 ISZERO PUSH2 0x3E1 JUMPI PUSH0 PUSH0 REVERT JUMPDEST POP PUSH2 0x1E2 PUSH2 0x3F0 CALLDATASIZE PUSH1 0x4 PUSH2 0x6F06 JUMP JUMPDEST PUSH2 0x1A3F JUMP JUMPDEST CALLVALUE DUP1 ISZERO PUSH2 0x400 JUMPI PUSH0 PUSH0 REVERT JUMPDEST POP PUSH2 0x414 PUSH2 0x40F CALLDATASIZE PUSH1 0x4 PUSH2 0x73AF JUMP JUMPDEST PUSH2 0x1A8B JUMP JUMPDEST PUSH1 0x40 MLOAD PUSH2 0x26F SWAP2 SWAP1 PUSH2 0x73F1 JUMP JUMPDEST CALLVALUE DUP1 ISZERO PUSH2 0x42C JUMPI PUSH0 PUSH0 REVERT JUMPDEST POP PUSH1 0x1F SLOAD PUSH2 0x36C SWAP1 PUSH1 0x1 PUSH1 0x1 PUSH1 0xA0 SHL SUB AND DUP2 JUMP JUMPDEST CALLVALUE DUP1 ISZERO PUSH2 0x44B JUMPI PUSH0 PUSH0 REVERT JUMPDEST POP PUSH1 0x1E SLOAD PUSH2 0x36C SWAP1 PUSH1 0x1 PUSH1 0x1 PUSH1 0xA0 SHL SUB AND DUP2 JUMP JUMPDEST CALLVALUE DUP1 ISZERO PUSH2 0x46A JUMPI PUSH0 PUSH0 REVERT JUMPDEST POP PUSH2 0x36C PUSH2 0x479 CALLDATASIZE PUSH1 0x4 PUSH2 0x6F06 JUMP JUMPDEST PUSH2 0x1B09 JUMP JUMPDEST CALLVALUE DUP1 ISZERO PUSH2 0x489 JUMPI PUSH0 PUSH0 REVERT JUMPDEST POP PUSH2 0x492 PUSH2 0x1B81 JUMP JUMPDEST PUSH1 0x40 DUP1 MLOAD DUP3 MLOAD PUSH1 0x1 PUSH1 0x1 PUSH1 0xA0 SHL SUB AND DUP2 MSTORE PUSH1 0x20 SWAP3 DUP4 ADD MLOAD SWAP3 DUP2 ADD SWAP3 SWAP1 SWAP3 MSTORE ADD PUSH2 0x26F JUMP JUMPDEST CALLVALUE DUP1 ISZERO PUSH2 0x4C1 JUMPI PUSH0 PUSH0 REVERT JUMPDEST POP PUSH2 0x1E2 PUSH2 0x4D0 CALLDATASIZE PUSH1 0x4 PUSH2 0x6F06 JUMP JUMPDEST PUSH2 0x1C24 JUMP JUMPDEST CALLVALUE DUP1 ISZERO PUSH2 0x4E0 JUMPI PUSH0 PUSH0 REVERT JUMPDEST POP PUSH2 0x1E2 PUSH2 0x4EF CALLDATASIZE PUSH1 0x4 PUSH2 0x7469 JUMP JUMPDEST PUSH2 0x1C70 JUMP JUMPDEST CALLVALUE DUP1 ISZERO PUSH2 0x4FF JUMPI PUSH0 PUSH0 REVERT JUMPDEST POP PUSH2 0x1E2 PUSH2 0x50E CALLDATASIZE PUSH1 0x4 PUSH2 0x74AC JUMP JUMPDEST PUSH2 0x1CFC JUMP JUMPDEST CALLVALUE DUP1 ISZERO PUSH2 0x51E JUMPI PUSH0 PUSH0 REVERT JUMPDEST POP CALLER PUSH0 SWAP1 DUP2 MSTORE PUSH1 0x12 PUSH1 0x20 MSTORE PUSH1 0x40 SWAP1 KECCAK256 SLOAD PUSH1 0x1 PUSH1 0x1 PUSH1 0xA0 SHL SUB AND ISZERO ISZERO PUSH2 0x2DE JUMP JUMPDEST CALLVALUE DUP1 ISZERO PUSH2 0x549 JUMPI PUSH0 PUSH0 REVERT JUMPDEST POP PUSH1 0x1B SLOAD PUSH2 0x36C SWAP1 PUSH1 0x1 PUSH1 0x1 PUSH1 0xA0 SHL SUB AND DUP2 JUMP JUMPDEST CALLVALUE DUP1 ISZERO PUSH2 0x568 JUMPI PUSH0 PUSH0 REVERT JUMPDEST POP PUSH2 0x2DE PUSH2 0x577 CALLDATASIZE PUSH1 0x4 PUSH2 0x6F06 JUMP JUMPDEST PUSH2 0x1D89 JUMP JUMPDEST CALLVALUE DUP1 ISZERO PUSH2 0x587 JUMPI PUSH0 PUSH0 REVERT JUMPDEST POP PUSH2 0x1E2 PUSH2 0x596 CALLDATASIZE PUSH1 0x4 PUSH2 0x74D6 JUMP JUMPDEST PUSH2 0x1DEB JUMP JUMPDEST CALLVALUE DUP1 ISZERO PUSH2 0x5A6 JUMPI PUSH0 PUSH0 REVERT JUMPDEST POP PUSH2 0x2DE PUSH2 0x5B5 CALLDATASIZE PUSH1 0x4 PUSH2 0x6F06 JUMP JUMPDEST PUSH2 0x1F98 JUMP JUMPDEST CALLVALUE DUP1 ISZERO PUSH2 0x5C5 JUMPI PUSH0 PUSH0 REVERT JUMPDEST POP PUSH2 0x1E2 PUSH2 0x5D4 CALLDATASIZE PUSH1 0x4 PUSH2 0x6F06 JUMP JUMPDEST PUSH2 0x1FF4 JUMP JUMPDEST CALLVALUE DUP1 ISZERO PUSH2 0x5E4 JUMPI PUSH0 PUSH0 REVERT JUMPDEST POP PUSH2 0x5F8 PUSH2 0x5F3 CALLDATASIZE PUSH1 0x4 PUSH2 0x73AF JUMP JUMPDEST PUSH2 0x2040 JUMP JUMPDEST PUSH1 0x40 MLOAD PUSH2 0x26F SWAP2 SWAP1 PUSH2 0x74ED JUMP JUMPDEST CALLVALUE DUP1 ISZERO PUSH2 0x610 JUMPI PUSH0 PUSH0 REVERT JUMPDEST POP PUSH2 0x1E2 PUSH2 0x61F CALLDATASIZE PUSH1 0x4 PUSH2 0x6F06 JUMP JUMPDEST PUSH2 0x21FC JUMP JUMPDEST CALLVALUE DUP1 ISZERO PUSH2 0x62F JUMPI PUSH0 PUSH0 REVERT JUMPDEST POP PUSH2 0x1E2 PUSH2 0x63E CALLDATASIZE PUSH1 0x4 PUSH2 0x750C JUMP JUMPDEST PUSH2 0x2248 JUMP JUMPDEST PUSH2 0x1E2 PUSH2 0x651 CALLDATASIZE PUSH1 0x4 PUSH2 0x74AC JUMP JUMPDEST PUSH2 0x22DD JUMP JUMPDEST CALLVALUE DUP1 ISZERO PUSH2 0x661 JUMPI PUSH0 PUSH0 REVERT JUMPDEST POP PUSH2 0x1E2 PUSH2 0x670 CALLDATASIZE PUSH1 0x4 PUSH2 0x72F0 JUMP JUMPDEST PUSH2 0x2545 JUMP JUMPDEST CALLVALUE DUP1 ISZERO PUSH2 0x680 JUMPI PUSH0 PUSH0 REVERT JUMPDEST POP PUSH2 0x694 PUSH2 0x68F CALLDATASIZE PUSH1 0x4 PUSH2 0x73AF JUMP JUMPDEST PUSH2 0x273C JUMP JUMPDEST PUSH1 0x40 MLOAD PUSH2 0x26F SWAP2 SWAP1 PUSH0 PUSH2 0x120 DUP3 ADD SWAP1 POP DUP3 MLOAD DUP3 MSTORE PUSH1 0x20 DUP4 ADD MLOAD PUSH1 0x20 DUP4 ADD MSTORE PUSH1 0x40 DUP4 ADD MLOAD PUSH1 0x40 DUP4 ADD MSTORE PUSH1 0x60 DUP4 ADD MLOAD PUSH1 0x60 DUP4 ADD MSTORE PUSH1 0x80 DUP4 ADD MLOAD PUSH1 0x80 DUP4 ADD MSTORE PUSH1 0xA0 DUP4 ADD MLOAD PUSH1 0xA0 DUP4 ADD MSTORE PUSH1 0xC0 DUP4 ADD MLOAD PUSH1 0xC0 DUP4 ADD MSTORE PUSH1 0xE0 DUP4 ADD MLOAD PUSH1 0xE0 DUP4 ADD MSTORE PUSH2 0x100 DUP4 ADD MLOAD PUSH2 0x100 DUP4 ADD MSTORE SWAP3 SWAP2 POP POP JUMP JUMPDEST CALLVALUE DUP1 ISZERO PUSH2 0x70B JUMPI PUSH0 PUSH0 REVERT JUMPDEST POP PUSH2 0x1E2 PUSH2 0x71A CALLDATASIZE PUSH1 0x4 PUSH2 0x72F0 JUMP JUMPDEST PUSH2 0x27F6 JUMP JUMPDEST CALLVALUE DUP1 ISZERO PUSH2 0x72A JUMPI PUSH0 PUSH0 REVERT JUMPDEST POP PUSH2 0x1E2 PUSH2 0x2E0A JUMP JUMPDEST CALLVALUE DUP1 ISZERO PUSH2 0x73E JUMPI PUSH0 PUSH0 REVERT JUMPDEST POP PUSH2 0x747 PUSH2 0x2EFA JUMP JUMPDEST PUSH1 0x40 MLOAD PUSH2 0x26F SWAP3 SWAP2 SWAP1 PUSH2 0x7527 JUMP JUMPDEST CALLVALUE DUP1 ISZERO PUSH2 0x760 JUMPI PUSH0 PUSH0 REVERT JUMPDEST POP PUSH2 0x1E2 PUSH2 0x76F CALLDATASIZE PUSH1 0x4 PUSH2 0x74D6 JUMP JUMPDEST PUSH2 0x30BA JUMP JUMPDEST PUSH2 0x1E2 PUSH2 0x782 CALLDATASIZE PUSH1 0x4 PUSH2 0x7548 JUMP JUMPDEST PUSH2 0x33F4 JUMP JUMPDEST PUSH1 0x18 SLOAD PUSH1 0x1 PUSH1 0x1 PUSH1 0xA0 SHL SUB AND CALLER EQ PUSH2 0x7BA JUMPI PUSH1 0x40 MLOAD PUSH3 0x461BCD PUSH1 0xE5 SHL DUP2 MSTORE PUSH1 0x4 ADD PUSH2 0x7B1 SWAP1 PUSH2 0x7580 JUMP JUMPDEST PUSH1 0x40 MLOAD DUP1 SWAP2 SUB SWAP1 REVERT JUMPDEST PUSH1 0x1F DUP1 SLOAD PUSH1 0x1 PUSH1 0x1 PUSH1 0xA0 SHL SUB NOT AND PUSH1 0x1 PUSH1 0x1 PUSH1 0xA0 SHL SUB SWAP3 SWAP1 SWAP3 AND SWAP2 SWAP1 SWAP2 OR SWAP1 SSTORE JUMP JUMPDEST PUSH1 0x18 SLOAD PUSH1 0x1 PUSH1 0x1 PUSH1 0xA0 SHL SUB AND CALLER EQ PUSH2 0x806 JUMPI PUSH1 0x40 MLOAD PUSH3 0x461BCD PUSH1 0xE5 SHL DUP2 MSTORE PUSH1 0x4 ADD PUSH2 0x7B1 SWAP1 PUSH2 0x7580 JUMP JUMPDEST PUSH1 0x15 DUP1 SLOAD PUSH1 0x1 PUSH1 0x1 PUSH1 0xA0 SHL SUB NOT AND PUSH1 0x1 PUSH1 0x1 PUSH1 0xA0 SHL SUB SWAP3 SWAP1 SWAP3 AND SWAP2 SWAP1 SWAP2 OR SWAP1 SSTORE JUMP JUMPDEST PUSH1 0x18 SLOAD PUSH1 0x1 PUSH1 0x1 PUSH1 0xA0 SHL SUB AND CALLER EQ PUSH2 0x852 JUMPI PUSH1 0x40 MLOAD PUSH3 0x461BCD PUSH1 0xE5 SHL DUP2 MSTORE PUSH1 0x4 ADD PUSH2 0x7B1 SWAP1 PUSH2 0x7580 JUMP JUMPDEST PUSH1 0x1 PUSH1 0x1 PUSH1 0xA0 SHL SUB AND PUSH0 SWAP1 DUP2 MSTORE PUSH1 0x4 PUSH1 0x20 MSTORE PUSH1 0x40 SWAP1 KECCAK256 PUSH1 0x2 ADD DUP1 SLOAD PUSH2 0xFF00 NOT AND PUSH2 0x300 OR SWAP1 SSTORE JUMP JUMPDEST PUSH0 DUP4 GT PUSH2 0x899 JUMPI PUSH1 0x40 MLOAD PUSH3 0x461BCD PUSH1 0xE5 SHL DUP2 MSTORE PUSH1 0x4 ADD PUSH2 0x7B1 SWAP1 PUSH2 0x75B5 JUMP JUMPDEST PUSH1 0x14 SLOAD PUSH1 0x1 PUSH1 0x1 PUSH1 0xA0 SHL SUB AND CALLER EQ DUP1 PUSH2 0x8BC JUMPI POP PUSH1 0x16 SLOAD PUSH1 0x1 PUSH1 0x1 PUSH1 0xA0 SHL SUB AND CALLER EQ JUMPDEST DUP1 PUSH2 0x8D1 JUMPI POP PUSH1 0x15 SLOAD PUSH1 0x1 PUSH1 0x1 PUSH1 0xA0 SHL SUB AND CALLER EQ JUMPDEST DUP1 PUSH2 0x8E6 JUMPI POP PUSH1 0x1C SLOAD PUSH1 0x1 PUSH1 0x1 PUSH1 0xA0 SHL SUB AND CALLER EQ JUMPDEST PUSH2 0x902 JUMPI PUSH1 0x40 MLOAD PUSH3 0x461BCD PUSH1 0xE5 SHL DUP2 MSTORE PUSH1 0x4 ADD PUSH2 0x7B1 SWAP1 PUSH2 0x75EC JUMP JUMPDEST PUSH2 0x90D DUP4 DUP4 DUP4 PUSH2 0x37DF JUMP JUMPDEST POP POP POP JUMP JUMPDEST PUSH1 0x60 DUP1 DUP1 CALLER ORIGIN EQ PUSH2 0x935 JUMPI PUSH1 0x40 MLOAD PUSH3 0x461BCD PUSH1 0xE5 SHL DUP2 MSTORE PUSH1 0x4 ADD PUSH2 0x7B1 SWAP1 PUSH2 0x761B JUMP JUMPDEST PUSH2 0x946 PUSH1 0x4 DUP9 CALLER DUP10 PUSH1 0x20 PUSH1 0x21 PUSH2 0x3DB1 JUMP JUMPDEST PUSH2 0x988 JUMPI PUSH1 0x40 MLOAD PUSH3 0x461BCD PUSH1 0xE5 SHL DUP2 MSTORE PUSH1 0x20 PUSH1 0x4 DUP3 ADD MSTORE PUSH1 0x13 PUSH1 0x24 DUP3 ADD MSTORE PUSH19 0x2AB730BABA3437B934BD32B21031B0B63632B9 PUSH1 0x69 SHL PUSH1 0x44 DUP3 ADD MSTORE PUSH1 0x64 ADD PUSH2 0x7B1 JUMP JUMPDEST PUSH1 0x1 PUSH1 0x1 PUSH1 0xA0 SHL SUB DUP8 AND PUSH0 SWAP1 DUP2 MSTORE PUSH1 0x4 PUSH1 0x20 MSTORE PUSH1 0x40 SWAP1 KECCAK256 PUSH1 0x1 ADD SLOAD DUP1 DUP7 LT PUSH2 0xA20 JUMPI PUSH1 0x40 DUP1 MLOAD PUSH0 DUP1 DUP3 MSTORE PUSH1 0x20 DUP3 ADD DUP2 DUP2 MSTORE DUP3 DUP5 ADD SWAP1 SWAP4 MSTORE SWAP1 SWAP2 SWAP1 PUSH2 0x9E2 JUMP JUMPDEST PUSH2 0x9CF PUSH2 0x6D69 JUMP JUMPDEST DUP2 MSTORE PUSH1 0x20 ADD SWAP1 PUSH1 0x1 SWAP1 SUB SWAP1 DUP2 PUSH2 0x9C7 JUMPI SWAP1 POP JUMPDEST POP PUSH1 0x40 DUP1 MLOAD PUSH0 DUP1 DUP3 MSTORE PUSH1 0x20 DUP3 ADD SWAP1 SWAP3 MSTORE SWAP1 PUSH2 0xA13 JUMP JUMPDEST PUSH2 0xA00 PUSH2 0x6D8E JUMP JUMPDEST DUP2 MSTORE PUSH1 0x20 ADD SWAP1 PUSH1 0x1 SWAP1 SUB SWAP1 DUP2 PUSH2 0x9F8 JUMPI SWAP1 POP JUMPDEST POP SWAP4 POP SWAP4 POP SWAP4 POP POP PUSH2 0xD41 JUMP JUMPDEST PUSH0 DUP2 PUSH2 0xA2C DUP8 DUP10 PUSH2 0x7664 JUMP JUMPDEST GT PUSH2 0xA37 JUMPI DUP6 PUSH2 0xA41 JUMP JUMPDEST PUSH2 0xA41 DUP8 DUP4 PUSH2 0x7677 JUMP JUMPDEST SWAP1 POP DUP1 PUSH1 0x1 PUSH1 0x1 PUSH1 0x40 SHL SUB DUP2 GT ISZERO PUSH2 0xA5B JUMPI PUSH2 0xA5B PUSH2 0x6F21 JUMP JUMPDEST PUSH1 0x40 MLOAD SWAP1 DUP1 DUP3 MSTORE DUP1 PUSH1 0x20 MUL PUSH1 0x20 ADD DUP3 ADD PUSH1 0x40 MSTORE DUP1 ISZERO PUSH2 0xA94 JUMPI DUP2 PUSH1 0x20 ADD JUMPDEST PUSH2 0xA81 PUSH2 0x6D69 JUMP JUMPDEST DUP2 MSTORE PUSH1 0x20 ADD SWAP1 PUSH1 0x1 SWAP1 SUB SWAP1 DUP2 PUSH2 0xA79 JUMPI SWAP1 POP JUMPDEST POP SWAP4 POP DUP1 PUSH1 0x1 PUSH1 0x1 PUSH1 0x40 SHL SUB DUP2 GT ISZERO PUSH2 0xAAF JUMPI PUSH2 0xAAF PUSH2 0x6F21 JUMP JUMPDEST PUSH1 0x40 MLOAD SWAP1 DUP1 DUP3 MSTORE DUP1 PUSH1 0x20 MUL PUSH1 0x20 ADD DUP3 ADD PUSH1 0x40 MSTORE DUP1 ISZERO PUSH2 0xAE8 JUMPI DUP2 PUSH1 0x20 ADD JUMPDEST PUSH2 0xAD5 PUSH2 0x6D8E JUMP JUMPDEST DUP2 MSTORE PUSH1 0x20 ADD SWAP1 PUSH1 0x1 SWAP1 SUB SWAP1 DUP2 PUSH2 0xACD JUMPI SWAP1 POP JUMPDEST POP SWAP3 POP DUP1 PUSH1 0x1 PUSH1 0x1 PUSH1 0x40 SHL SUB DUP2 GT ISZERO PUSH2 0xB03 JUMPI PUSH2 0xB03 PUSH2 0x6F21 JUMP JUMPDEST PUSH1 0x40 MLOAD SWAP1 DUP1 DUP3 MSTORE DUP1 PUSH1 0x20 MUL PUSH1 0x20 ADD DUP3 ADD PUSH1 0x40 MSTORE DUP1 ISZERO PUSH2 0xB2C JUMPI DUP2 PUSH1 0x20 ADD PUSH1 0x20 DUP3 MUL DUP1 CALLDATASIZE DUP4 CALLDATACOPY ADD SWAP1 POP JUMPDEST POP SWAP5 POP PUSH0 JUMPDEST DUP2 DUP2 LT ISZERO PUSH2 0xD3D JUMPI PUSH1 0x1 PUSH1 0x1 PUSH1 0xA0 SHL SUB DUP11 AND PUSH0 SWAP1 DUP2 MSTORE PUSH1 0x4 PUSH1 0x20 MSTORE PUSH1 0x40 DUP2 KECCAK256 PUSH1 0x1 ADD PUSH2 0xB5D DUP4 DUP12 PUSH2 0x7664 JUMP JUMPDEST DUP2 SLOAD DUP2 LT PUSH2 0xB6D JUMPI PUSH2 0xB6D PUSH2 0x768A JUMP JUMPDEST PUSH0 SWAP2 DUP3 MSTORE PUSH1 0x20 DUP1 DUP4 KECCAK256 SWAP1 SWAP2 ADD SLOAD PUSH1 0x1 PUSH1 0x1 PUSH1 0xA0 SHL SUB SWAP1 DUP2 AND DUP1 DUP5 MSTORE PUSH1 0x4 DUP4 MSTORE PUSH1 0x40 SWAP4 DUP5 SWAP1 KECCAK256 DUP5 MLOAD PUSH1 0x80 DUP2 ADD DUP7 MSTORE DUP2 SLOAD SWAP1 SWAP4 AND DUP4 MSTORE PUSH1 0x1 DUP2 ADD DUP1 SLOAD DUP7 MLOAD DUP2 DUP8 MUL DUP2 ADD DUP8 ADD SWAP1 SWAP8 MSTORE DUP1 DUP8 MSTORE SWAP3 SWAP7 POP SWAP3 SWAP5 SWAP1 SWAP4 DUP6 DUP2 ADD SWAP4 SWAP2 SWAP3 SWAP1 DUP4 ADD DUP3 DUP3 DUP1 ISZERO PUSH2 0xBFB JUMPI PUSH1 0x20 MUL DUP3 ADD SWAP2 SWAP1 PUSH0 MSTORE PUSH1 0x20 PUSH0 KECCAK256 SWAP1 JUMPDEST DUP2 SLOAD PUSH1 0x1 PUSH1 0x1 PUSH1 0xA0 SHL SUB AND DUP2 MSTORE PUSH1 0x1 SWAP1 SWAP2 ADD SWAP1 PUSH1 0x20 ADD DUP1 DUP4 GT PUSH2 0xBDD JUMPI JUMPDEST POP POP POP SWAP2 DUP4 MSTORE POP POP PUSH1 0x2 DUP3 ADD SLOAD PUSH1 0x20 SWAP1 SWAP2 ADD SWAP1 PUSH1 0xFF AND PUSH1 0x7 DUP2 GT ISZERO PUSH2 0xC22 JUMPI PUSH2 0xC22 PUSH2 0x7147 JUMP JUMPDEST PUSH1 0x7 DUP2 GT ISZERO PUSH2 0xC33 JUMPI PUSH2 0xC33 PUSH2 0x7147 JUMP JUMPDEST DUP2 MSTORE PUSH1 0x20 ADD PUSH1 0x2 DUP3 ADD PUSH1 0x1 SWAP1 SLOAD SWAP1 PUSH2 0x100 EXP SWAP1 DIV PUSH1 0xFF AND PUSH1 0x3 DUP2 GT ISZERO PUSH2 0xC5B JUMPI PUSH2 0xC5B PUSH2 0x7147 JUMP JUMPDEST PUSH1 0x3 DUP2 GT ISZERO PUSH2 0xC6C JUMPI PUSH2 0xC6C PUSH2 0x7147 JUMP JUMPDEST DUP2 MSTORE POP POP DUP7 DUP4 DUP2 MLOAD DUP2 LT PUSH2 0xC82 JUMPI PUSH2 0xC82 PUSH2 0x768A JUMP JUMPDEST PUSH1 0x20 MUL PUSH1 0x20 ADD ADD DUP2 SWAP1 MSTORE POP PUSH1 0x5 PUSH0 DUP3 PUSH1 0x1 PUSH1 0x1 PUSH1 0xA0 SHL SUB AND PUSH1 0x1 PUSH1 0x1 PUSH1 0xA0 SHL SUB AND DUP2 MSTORE PUSH1 0x20 ADD SWAP1 DUP2 MSTORE PUSH1 0x20 ADD PUSH0 KECCAK256 PUSH1 0x40 MLOAD DUP1 PUSH1 0xA0 ADD PUSH1 0x40 MSTORE SWAP1 DUP2 PUSH0 DUP3 ADD SLOAD DUP2 MSTORE PUSH1 0x20 ADD PUSH1 0x1 DUP3 ADD SLOAD DUP2 MSTORE PUSH1 0x20 ADD PUSH1 0x2 DUP3 ADD SLOAD DUP2 MSTORE PUSH1 0x20 ADD PUSH1 0x3 DUP3 ADD SLOAD DUP2 MSTORE PUSH1 0x20 ADD PUSH1 0x4 DUP3 ADD SLOAD DUP2 MSTORE POP POP DUP6 DUP4 DUP2 MLOAD DUP2 LT PUSH2 0xCFE JUMPI PUSH2 0xCFE PUSH2 0x768A JUMP JUMPDEST PUSH1 0x20 MUL PUSH1 0x20 ADD ADD DUP2 SWAP1 MSTORE POP DUP1 DUP8 DUP4 DUP2 MLOAD DUP2 LT PUSH2 0xD1C JUMPI PUSH2 0xD1C PUSH2 0x768A JUMP JUMPDEST PUSH1 0x1 PUSH1 0x1 PUSH1 0xA0 SHL SUB SWAP1 SWAP3 AND PUSH1 0x20 SWAP3 DUP4 MUL SWAP2 SWAP1 SWAP2 ADD SWAP1 SWAP2 ADD MSTORE POP PUSH1 0x1 ADD PUSH2 0xB31 JUMP JUMPDEST POP POP POP JUMPDEST SWAP5 POP SWAP5 POP SWAP5 SWAP2 POP POP JUMP JUMPDEST PUSH1 0x18 SLOAD PUSH0 SWAP1 PUSH1 0x1 PUSH1 0x1 PUSH1 0xA0 SHL SUB AND CALLER EQ PUSH2 0xD77 JUMPI PUSH1 0x40 MLOAD PUSH3 0x461BCD PUSH1 0xE5 SHL DUP2 MSTORE PUSH1 0x4 ADD PUSH2 0x7B1 SWAP1 PUSH2 0x7580 JUMP JUMPDEST PUSH1 0xE SLOAD DUP4 LT PUSH2 0xD98 JUMPI PUSH1 0x40 MLOAD PUSH3 0x461BCD PUSH1 0xE5 SHL DUP2 MSTORE PUSH1 0x4 ADD PUSH2 0x7B1 SWAP1 PUSH2 0x769E JUMP JUMPDEST PUSH0 DUP3 GT PUSH2 0xDF1 JUMPI PUSH1 0x40 MLOAD PUSH3 0x461BCD PUSH1 0xE5 SHL DUP2 MSTORE PUSH1 0x20 PUSH1 0x4 DUP3 ADD MSTORE PUSH1 0x21 PUSH1 0x24 DUP3 ADD MSTORE PUSH32 0x42617463682073697A65206D7573742062652067726561746572207468616E20 PUSH1 0x44 DUP3 ADD MSTORE PUSH1 0x3 PUSH1 0xFC SHL PUSH1 0x64 DUP3 ADD MSTORE PUSH1 0x84 ADD PUSH2 0x7B1 JUMP JUMPDEST PUSH1 0xE SLOAD PUSH2 0xDFE DUP5 DUP3 PUSH2 0x7677 JUMP JUMPDEST DUP4 GT ISZERO PUSH2 0xE12 JUMPI PUSH2 0xE0F DUP5 DUP3 PUSH2 0x7677 JUMP JUMPDEST SWAP3 POP JUMPDEST PUSH0 JUMPDEST DUP4 DUP2 LT DUP1 ISZERO PUSH2 0xE22 JUMPI POP DUP2 DUP6 LT JUMPDEST ISZERO PUSH2 0x1185 JUMPI PUSH0 PUSH1 0xE DUP7 DUP2 SLOAD DUP2 LT PUSH2 0xE3B JUMPI PUSH2 0xE3B PUSH2 0x768A JUMP JUMPDEST PUSH0 SWAP2 DUP3 MSTORE PUSH1 0x20 SWAP1 SWAP2 KECCAK256 ADD SLOAD PUSH1 0x1 PUSH1 0x1 PUSH1 0xA0 SHL SUB AND SWAP1 POP DUP1 ISZERO DUP1 PUSH2 0xE6B JUMPI POP PUSH1 0x14 SLOAD PUSH1 0x1 PUSH1 0x1 PUSH1 0xA0 SHL SUB DUP3 DUP2 AND SWAP2 AND EQ JUMPDEST ISZERO PUSH2 0xE7B JUMPI PUSH0 SWAP4 POP POP POP POP PUSH2 0x11A2 JUMP JUMPDEST PUSH2 0xE8E PUSH1 0x4 PUSH1 0x5 PUSH1 0x7 PUSH1 0x8 PUSH1 0xA DUP7 PUSH2 0x3F2F JUMP JUMPDEST POP PUSH1 0x1 PUSH1 0x1 PUSH1 0xA0 SHL SUB DUP1 DUP3 AND PUSH0 SWAP1 DUP2 MSTORE PUSH1 0x4 PUSH1 0x20 MSTORE PUSH1 0x40 SWAP1 KECCAK256 SLOAD AND DUP1 ISZERO PUSH2 0x1163 JUMPI PUSH1 0x1 PUSH1 0x1 PUSH1 0xA0 SHL SUB DUP2 AND PUSH0 SWAP1 DUP2 MSTORE PUSH1 0x5 PUSH1 0x20 MSTORE PUSH1 0x40 DUP2 KECCAK256 PUSH1 0x1 SWAP1 DUP2 ADD DUP1 SLOAD SWAP2 SWAP3 SWAP1 SWAP2 PUSH2 0xEDC SWAP1 DUP5 SWAP1 PUSH2 0x7664 JUMP JUMPDEST SWAP1 SWAP2 SSTORE POP POP PUSH1 0x1 PUSH1 0x1 PUSH1 0xA0 SHL SUB DUP2 AND PUSH0 SWAP1 DUP2 MSTORE PUSH1 0x1A PUSH1 0x20 MSTORE PUSH1 0x40 SWAP1 KECCAK256 SLOAD PUSH1 0xFF AND ISZERO ISZERO PUSH1 0x1 EQ DUP1 ISZERO SWAP1 PUSH2 0xF49 JUMPI POP PUSH1 0x1 PUSH1 0x1 PUSH1 0xA0 SHL SUB DUP3 AND PUSH0 SWAP1 DUP2 MSTORE PUSH1 0x19 PUSH1 0x20 MSTORE PUSH1 0x40 SWAP1 KECCAK256 PUSH1 0x1 ADD SLOAD PUSH1 0xFF AND DUP1 PUSH2 0xF49 JUMPI POP PUSH1 0x1 PUSH1 0x1 PUSH1 0xA0 SHL SUB DUP3 AND PUSH0 SWAP1 DUP2 MSTORE PUSH1 0x1A PUSH1 0x20 MSTORE PUSH1 0x40 SWAP1 KECCAK256 SLOAD PUSH1 0xFF AND JUMPDEST ISZERO PUSH2 0xF71 JUMPI PUSH1 0x1 PUSH1 0x1 PUSH1 0xA0 SHL SUB DUP2 AND PUSH0 SWAP1 DUP2 MSTORE PUSH1 0x1A PUSH1 0x20 MSTORE PUSH1 0x40 SWAP1 KECCAK256 DUP1 SLOAD PUSH1 0xFF NOT AND PUSH1 0x1 OR SWAP1 SSTORE JUMPDEST PUSH1 0x1 PUSH1 0x1 PUSH1 0xA0 SHL SUB DUP3 AND PUSH0 SWAP1 DUP2 MSTORE PUSH1 0x19 PUSH1 0x20 SWAP1 DUP2 MSTORE PUSH1 0x40 DUP1 DUP4 KECCAK256 DUP4 DUP2 SSTORE PUSH1 0x1 ADD DUP1 SLOAD PUSH1 0xFF NOT SWAP1 DUP2 AND SWAP1 SWAP2 SSTORE PUSH1 0x1A DUP4 MSTORE DUP2 DUP5 KECCAK256 DUP1 SLOAD SWAP1 SWAP2 AND SWAP1 SSTORE PUSH1 0x9 SWAP1 SWAP2 MSTORE SWAP1 KECCAK256 SLOAD ISZERO PUSH2 0x1043 JUMPI PUSH1 0x1 PUSH1 0x1 PUSH1 0xA0 SHL SUB DUP1 DUP4 AND PUSH0 SWAP1 DUP2 MSTORE PUSH1 0x9 PUSH1 0x20 MSTORE PUSH1 0x40 DUP1 DUP3 KECCAK256 SLOAD SWAP3 DUP5 AND DUP3 MSTORE DUP2 KECCAK256 DUP1 SLOAD SWAP1 SWAP2 SWAP1 PUSH2 0xFE8 SWAP1 DUP5 SWAP1 PUSH2 0x7664 JUMP JUMPDEST SWAP1 SWAP2 SSTORE POP POP PUSH1 0x1 PUSH1 0x1 PUSH1 0xA0 SHL SUB DUP1 DUP4 AND PUSH0 SWAP1 DUP2 MSTORE PUSH1 0x9 PUSH1 0x20 SWAP1 DUP2 MSTORE PUSH1 0x40 DUP1 DUP4 KECCAK256 SLOAD SWAP4 DUP6 AND DUP4 MSTORE PUSH1 0xA SWAP1 SWAP2 MSTORE DUP2 KECCAK256 DUP1 SLOAD SWAP1 SWAP2 SWAP1 PUSH2 0x1025 SWAP1 DUP5 SWAP1 PUSH2 0x7664 JUMP JUMPDEST SWAP1 SWAP2 SSTORE POP POP PUSH1 0x1 PUSH1 0x1 PUSH1 0xA0 SHL SUB DUP3 AND PUSH0 SWAP1 DUP2 MSTORE PUSH1 0x9 PUSH1 0x20 MSTORE PUSH1 0x40 DUP2 KECCAK256 SSTORE JUMPDEST PUSH1 0x1 PUSH1 0x1 PUSH1 0xA0 SHL SUB DUP2 AND PUSH0 SWAP1 DUP2 MSTORE PUSH1 0x4 PUSH1 0x20 SWAP1 DUP2 MSTORE PUSH1 0x40 DUP1 DUP4 KECCAK256 PUSH1 0x1 SWAP1 DUP2 ADD SLOAD PUSH1 0x5 SWAP1 SWAP4 MSTORE SWAP3 KECCAK256 SWAP1 SWAP2 ADD SLOAD SUB PUSH2 0x10BB JUMPI PUSH1 0x1 PUSH1 0x1 PUSH1 0xA0 SHL SUB DUP2 AND PUSH0 SWAP1 DUP2 MSTORE PUSH1 0x5 PUSH1 0x20 SWAP1 DUP2 MSTORE PUSH1 0x40 DUP1 DUP4 KECCAK256 PUSH1 0x1 ADD DUP4 SWAP1 SSTORE PUSH1 0x1A SWAP1 SWAP2 MSTORE SWAP1 KECCAK256 SLOAD PUSH1 0xFF AND ISZERO PUSH2 0x10B2 JUMPI PUSH2 0x10B2 PUSH1 0x5 PUSH1 0x4 PUSH1 0x2 DUP5 PUSH2 0x41F6 JUMP JUMPDEST PUSH2 0x10BB DUP2 PUSH2 0x44B7 JUMP JUMPDEST PUSH1 0x1 PUSH1 0x1 PUSH1 0xA0 SHL SUB DUP2 AND PUSH0 SWAP1 DUP2 MSTORE PUSH1 0x1A PUSH1 0x20 MSTORE PUSH1 0x40 SWAP1 KECCAK256 SLOAD PUSH1 0xFF AND DUP1 ISZERO PUSH2 0x1116 JUMPI POP PUSH1 0x1 PUSH1 0x1 PUSH1 0x1 PUSH1 0xA0 SHL SUB DUP3 AND PUSH0 SWAP1 DUP2 MSTORE PUSH1 0x4 PUSH1 0x20 MSTORE PUSH1 0x40 SWAP1 KECCAK256 PUSH1 0x2 ADD SLOAD PUSH2 0x100 SWAP1 DIV PUSH1 0xFF AND PUSH1 0x3 DUP2 GT ISZERO PUSH2 0x1113 JUMPI PUSH2 0x1113 PUSH2 0x7147 JUMP JUMPDEST EQ ISZERO JUMPDEST DUP1 ISZERO PUSH2 0x1128 JUMPI POP PUSH2 0x1128 PUSH1 0x5 DUP3 PUSH2 0x46E6 JUMP JUMPDEST ISZERO PUSH2 0x1163 JUMPI PUSH1 0x1 PUSH1 0x1 PUSH1 0xA0 SHL SUB DUP2 AND PUSH0 SWAP1 DUP2 MSTORE PUSH1 0x4 PUSH1 0x20 DUP2 SWAP1 MSTORE PUSH1 0x40 SWAP1 SWAP2 KECCAK256 PUSH1 0x2 ADD DUP1 SLOAD PUSH2 0xFF00 NOT AND PUSH2 0x100 OR SWAP1 SSTORE PUSH2 0x1163 SWAP1 PUSH1 0xC DUP4 PUSH2 0x472F JUMP JUMPDEST DUP7 PUSH2 0x116D DUP2 PUSH2 0x76CB JUMP JUMPDEST SWAP8 POP POP DUP3 DUP1 PUSH2 0x117B SWAP1 PUSH2 0x76CB JUMP JUMPDEST SWAP4 POP POP POP POP PUSH2 0xE14 JUMP JUMPDEST DUP2 DUP6 LT PUSH2 0x1192 JUMPI PUSH0 PUSH2 0x119D JUMP JUMPDEST PUSH2 0x119D DUP6 PUSH1 0x1 PUSH2 0x7664 JUMP JUMPDEST SWAP3 POP POP POP JUMPDEST SWAP3 SWAP2 POP POP JUMP JUMPDEST CALLER ORIGIN EQ PUSH2 0x11C7 JUMPI PUSH1 0x40 MLOAD PUSH3 0x461BCD PUSH1 0xE5 SHL DUP2 MSTORE PUSH1 0x4 ADD PUSH2 0x7B1 SWAP1 PUSH2 0x761B JUMP JUMPDEST PUSH1 0x11 SLOAD PUSH2 0x100 SWAP1 DIV PUSH1 0xFF AND ISZERO PUSH2 0x11EF JUMPI PUSH1 0x40 MLOAD PUSH3 0x461BCD PUSH1 0xE5 SHL DUP2 MSTORE PUSH1 0x4 ADD PUSH2 0x7B1 SWAP1 PUSH2 0x76E3 JUMP JUMPDEST PUSH1 0x1 PUSH1 0x1 PUSH1 0xA0 SHL SUB DUP4 DUP2 AND PUSH0 SWAP1 DUP2 MSTORE PUSH1 0x4 PUSH1 0x20 MSTORE PUSH1 0x40 SWAP1 KECCAK256 SLOAD AND ISZERO PUSH2 0x1226 JUMPI PUSH1 0x40 MLOAD PUSH3 0x461BCD PUSH1 0xE5 SHL DUP2 MSTORE PUSH1 0x4 ADD PUSH2 0x7B1 SWAP1 PUSH2 0x770B JUMP JUMPDEST PUSH1 0x1 PUSH1 0x1 PUSH1 0xA0 SHL SUB DUP4 DUP2 AND PUSH0 SWAP1 DUP2 MSTORE PUSH1 0x12 PUSH1 0x20 MSTORE PUSH1 0x40 SWAP1 KECCAK256 SLOAD AND ISZERO PUSH2 0x125D JUMPI PUSH1 0x40 MLOAD PUSH3 0x461BCD PUSH1 0xE5 SHL DUP2 MSTORE PUSH1 0x4 ADD PUSH2 0x7B1 SWAP1 PUSH2 0x7738 JUMP JUMPDEST PUSH1 0x1 PUSH1 0x1 PUSH1 0xA0 SHL SUB DUP3 DUP2 AND PUSH0 SWAP1 DUP2 MSTORE PUSH1 0x4 PUSH1 0x20 MSTORE PUSH1 0x40 SWAP1 KECCAK256 SLOAD AND ISZERO ISZERO DUP1 PUSH2 0x1291 JUMPI POP PUSH1 0x14 SLOAD PUSH1 0x1 PUSH1 0x1 PUSH1 0xA0 SHL SUB DUP4 DUP2 AND SWAP2 AND EQ JUMPDEST PUSH2 0x12AD JUMPI PUSH1 0x40 MLOAD PUSH3 0x461BCD PUSH1 0xE5 SHL DUP2 MSTORE PUSH1 0x4 ADD PUSH2 0x7B1 SWAP1 PUSH2 0x776C JUMP JUMPDEST PUSH1 0x14 SLOAD PUSH1 0x1 PUSH1 0x1 PUSH1 0xA0 SHL SUB DUP4 DUP2 AND SWAP2 AND EQ ISZERO DUP1 PUSH2 0x12D4 JUMPI POP PUSH1 0x18 SLOAD PUSH1 0x1 PUSH1 0x1 PUSH1 0xA0 SHL SUB AND CALLER EQ JUMPDEST PUSH2 0x12F0 JUMPI PUSH1 0x40 MLOAD PUSH3 0x461BCD PUSH1 0xE5 SHL DUP2 MSTORE PUSH1 0x4 ADD PUSH2 0x7B1 SWAP1 PUSH2 0x779B JUMP JUMPDEST PUSH1 0x1F SLOAD PUSH1 0x40 MLOAD PUSH4 0x700786D7 PUSH1 0xE1 SHL DUP2 MSTORE PUSH1 0x1 PUSH1 0x1 PUSH1 0xA0 SHL SUB SWAP1 SWAP2 AND SWAP1 DUP2 SWAP1 PUSH4 0xE00F0DAE SWAP1 PUSH2 0x1322 SWAP1 DUP8 SWAP1 PUSH1 0x4 ADD PUSH2 0x734E JUMP JUMPDEST PUSH1 0x20 PUSH1 0x40 MLOAD DUP1 DUP4 SUB DUP2 DUP7 GAS STATICCALL ISZERO DUP1 ISZERO PUSH2 0x133D JUMPI RETURNDATASIZE PUSH0 PUSH0 RETURNDATACOPY RETURNDATASIZE PUSH0 REVERT JUMPDEST POP POP POP POP PUSH1 0x40 MLOAD RETURNDATASIZE PUSH1 0x1F NOT PUSH1 0x1F DUP3 ADD AND DUP3 ADD DUP1 PUSH1 0x40 MSTORE POP DUP2 ADD SWAP1 PUSH2 0x1361 SWAP2 SWAP1 PUSH2 0x77D5 JUMP JUMPDEST PUSH1 0x1 PUSH1 0x1 PUSH1 0xA0 SHL SUB AND DUP4 PUSH1 0x1 PUSH1 0x1 PUSH1 0xA0 SHL SUB AND EQ PUSH2 0x1391 JUMPI PUSH1 0x40 MLOAD PUSH3 0x461BCD PUSH1 0xE5 SHL DUP2 MSTORE PUSH1 0x4 ADD PUSH2 0x7B1 SWAP1 PUSH2 0x77F0 JUMP JUMPDEST PUSH1 0x17 SLOAD PUSH2 0x13B1 SWAP1 PUSH1 0x1 PUSH1 0x1 PUSH1 0xA0 SHL SUB AND DUP4 PUSH9 0x68155A43676E00000 PUSH2 0x47B0 JUMP JUMPDEST PUSH1 0x40 MLOAD DUP1 PUSH1 0x40 ADD PUSH1 0x40 MSTORE DUP1 DUP5 PUSH1 0x1 PUSH1 0x1 PUSH1 0xA0 SHL SUB AND DUP2 MSTORE PUSH1 0x20 ADD TIMESTAMP PUSH4 0x1E13380 PUSH2 0x13DB SWAP2 SWAP1 PUSH2 0x7664 JUMP JUMPDEST SWAP1 MSTORE PUSH1 0x1 PUSH1 0x1 PUSH1 0xA0 SHL SUB DUP1 DUP7 AND PUSH0 DUP2 DUP2 MSTORE PUSH1 0x12 PUSH1 0x20 SWAP1 DUP2 MSTORE PUSH1 0x40 DUP1 DUP4 KECCAK256 DUP7 MLOAD DUP2 SLOAD SWAP1 DUP8 AND PUSH1 0x1 PUSH1 0x1 PUSH1 0xA0 SHL SUB NOT SWAP2 DUP3 AND OR DUP3 SSTORE SWAP7 DUP4 ADD MLOAD PUSH1 0x1 SWAP2 DUP3 ADD SSTORE SWAP5 DUP10 AND DUP4 MSTORE PUSH1 0x13 DUP3 MSTORE DUP3 KECCAK256 DUP1 SLOAD SWAP5 DUP6 ADD DUP2 SSTORE DUP3 MSTORE SWAP1 KECCAK256 SWAP1 SWAP2 ADD DUP1 SLOAD SWAP1 SWAP3 AND OR SWAP1 SSTORE PUSH2 0x1447 DUP5 PUSH3 0x186A0 DUP5 PUSH2 0x49D6 JUMP JUMPDEST PUSH1 0x1B SLOAD PUSH1 0x16 SLOAD PUSH1 0x1 PUSH1 0x1 PUSH1 0xA0 SHL SUB SWAP2 DUP3 AND SWAP2 PUSH4 0xE115DC7F SWAP2 AND DUP5 PUSH3 0x186A0 PUSH2 0x1480 PUSH8 0xDE0B6B3A7640000 PUSH9 0x68155A43676E00000 PUSH2 0x782E JUMP JUMPDEST PUSH2 0x148C SWAP1 PUSH2 0x3E8 PUSH2 0x7841 JUMP JUMPDEST PUSH2 0x1496 SWAP2 SWAP1 PUSH2 0x7677 JUMP JUMPDEST PUSH1 0x1 PUSH1 0x2 PUSH1 0x40 MLOAD DUP7 PUSH4 0xFFFFFFFF AND PUSH1 0xE0 SHL DUP2 MSTORE PUSH1 0x4 ADD PUSH2 0x14BA SWAP6 SWAP5 SWAP4 SWAP3 SWAP2 SWAP1 PUSH2 0x7858 JUMP JUMPDEST PUSH0 PUSH1 0x40 MLOAD DUP1 DUP4 SUB DUP2 PUSH0 DUP8 DUP1 EXTCODESIZE ISZERO DUP1 ISZERO PUSH2 0x14D1 JUMPI PUSH0 PUSH0 REVERT JUMPDEST POP GAS CALL ISZERO DUP1 ISZERO PUSH2 0x14E3 JUMPI RETURNDATASIZE PUSH0 PUSH0 RETURNDATACOPY RETURNDATASIZE PUSH0 REVERT JUMPDEST POP POP POP POP POP POP POP POP JUMP JUMPDEST PUSH1 0x18 SLOAD PUSH1 0x1 PUSH1 0x1 PUSH1 0xA0 SHL SUB AND CALLER EQ PUSH2 0x1517 JUMPI PUSH1 0x40 MLOAD PUSH3 0x461BCD PUSH1 0xE5 SHL DUP2 MSTORE PUSH1 0x4 ADD PUSH2 0x7B1 SWAP1 PUSH2 0x7580 JUMP JUMPDEST PUSH1 0x1B SLOAD PUSH2 0x152E SWAP1 PUSH1 0x1 PUSH1 0x1 PUSH1 0xA0 SHL SUB AND PUSH1 0x2 PUSH2 0x4ADC JUMP JUMPDEST JUMP JUMPDEST PUSH1 0x18 SLOAD PUSH1 0x1 PUSH1 0x1 PUSH1 0xA0 SHL SUB AND CALLER EQ PUSH2 0x155A JUMPI PUSH1 0x40 MLOAD PUSH3 0x461BCD PUSH1 0xE5 SHL DUP2 MSTORE PUSH1 0x4 ADD PUSH2 0x7B1 SWAP1 PUSH2 0x7580 JUMP JUMPDEST PUSH1 0x14 SLOAD PUSH2 0x152E SWAP1 PUSH1 0x4 SWAP1 PUSH1 0xD SWAP1 PUSH1 0xB SWAP1 PUSH1 0x1 PUSH1 0x1 PUSH1 0xA0 SHL SUB AND DUP1 PUSH2 0x4D51 JUMP JUMPDEST PUSH1 0x18 SLOAD PUSH0 SWAP1 DUP2 SWAP1 DUP2 SWAP1 PUSH1 0x1 PUSH1 0x1 PUSH1 0xA0 SHL SUB AND CALLER EQ PUSH2 0x15A9 JUMPI PUSH1 0x40 MLOAD PUSH3 0x461BCD PUSH1 0xE5 SHL DUP2 MSTORE PUSH1 0x4 ADD PUSH2 0x7B1 SWAP1 PUSH2 0x7580 JUMP JUMPDEST POP POP PUSH1 0x15 SLOAD PUSH1 0x16 SLOAD PUSH1 0x14 SLOAD PUSH1 0x1 PUSH1 0x1 PUSH1 0xA0 SHL SUB SWAP3 DUP4 AND SWAP4 POP SWAP1 DUP3 AND SWAP2 AND SWAP1 SWAP2 SWAP3 JUMP JUMPDEST CALLER ORIGIN EQ PUSH2 0x15EA JUMPI PUSH1 0x40 MLOAD PUSH3 0x461BCD PUSH1 0xE5 SHL DUP2 MSTORE PUSH1 0x4 ADD PUSH2 0x7B1 SWAP1 PUSH2 0x761B JUMP JUMPDEST PUSH1 0x11 SLOAD PUSH2 0x100 SWAP1 DIV PUSH1 0xFF AND ISZERO PUSH2 0x1612 JUMPI PUSH1 0x40 MLOAD PUSH3 0x461BCD PUSH1 0xE5 SHL DUP2 MSTORE PUSH1 0x4 ADD PUSH2 0x7B1 SWAP1 PUSH2 0x76E3 JUMP JUMPDEST PUSH1 0x1 PUSH1 0x1 PUSH1 0xA0 SHL SUB DUP6 DUP2 AND PUSH0 SWAP1 DUP2 MSTORE PUSH1 0x4 PUSH1 0x20 MSTORE PUSH1 0x40 SWAP1 KECCAK256 SLOAD AND ISZERO PUSH2 0x1649 JUMPI PUSH1 0x40 MLOAD PUSH3 0x461BCD PUSH1 0xE5 SHL DUP2 MSTORE PUSH1 0x4 ADD PUSH2 0x7B1 SWAP1 PUSH2 0x770B JUMP JUMPDEST PUSH1 0x1 PUSH1 0x1 PUSH1 0xA0 SHL SUB DUP6 DUP2 AND PUSH0 SWAP1 DUP2 MSTORE PUSH1 0x12 PUSH1 0x20 MSTORE PUSH1 0x40 SWAP1 KECCAK256 SLOAD AND ISZERO PUSH2 0x1680 JUMPI PUSH1 0x40 MLOAD PUSH3 0x461BCD PUSH1 0xE5 SHL DUP2 MSTORE PUSH1 0x4 ADD PUSH2 0x7B1 SWAP1 PUSH2 0x7738 JUMP JUMPDEST PUSH1 0x1 PUSH1 0x1 PUSH1 0xA0 SHL SUB DUP5 DUP2 AND PUSH0 SWAP1 DUP2 MSTORE PUSH1 0x4 PUSH1 0x20 MSTORE PUSH1 0x40 SWAP1 KECCAK256 SLOAD AND ISZERO ISZERO DUP1 PUSH2 0x16B4 JUMPI POP PUSH1 0x14 SLOAD PUSH1 0x1 PUSH1 0x1 PUSH1 0xA0 SHL SUB DUP6 DUP2 AND SWAP2 AND EQ JUMPDEST PUSH2 0x16D0 JUMPI PUSH1 0x40 MLOAD PUSH3 0x461BCD PUSH1 0xE5 SHL DUP2 MSTORE PUSH1 0x4 ADD PUSH2 0x7B1 SWAP1 PUSH2 0x776C JUMP JUMPDEST PUSH1 0x14 SLOAD PUSH1 0x1 PUSH1 0x1 PUSH1 0xA0 SHL SUB DUP6 DUP2 AND SWAP2 AND EQ ISZERO DUP1 PUSH2 0x16F7 JUMPI POP PUSH1 0x18 SLOAD PUSH1 0x1 PUSH1 0x1 PUSH1 0xA0 SHL SUB AND CALLER EQ JUMPDEST PUSH2 0x1713 JUMPI PUSH1 0x40 MLOAD PUSH3 0x461BCD PUSH1 0xE5 SHL DUP2 MSTORE PUSH1 0x4 ADD PUSH2 0x7B1 SWAP1 PUSH2 0x779B JUMP JUMPDEST PUSH1 0x1F SLOAD PUSH1 0x40 MLOAD PUSH4 0x700786D7 PUSH1 0xE1 SHL DUP2 MSTORE PUSH1 0x1 PUSH1 0x1 PUSH1 0xA0 SHL SUB SWAP1 SWAP2 AND SWAP1 DUP2 SWAP1 PUSH4 0xE00F0DAE SWAP1 PUSH2 0x1745 SWAP1 DUP10 SWAP1 PUSH1 0x4 ADD PUSH2 0x734E JUMP JUMPDEST PUSH1 0x20 PUSH1 0x40 MLOAD DUP1 DUP4 SUB DUP2 DUP7 GAS STATICCALL ISZERO DUP1 ISZERO PUSH2 0x1760 JUMPI RETURNDATASIZE PUSH0 PUSH0 RETURNDATACOPY RETURNDATASIZE PUSH0 REVERT JUMPDEST POP POP POP POP PUSH1 0x40 MLOAD RETURNDATASIZE PUSH1 0x1F NOT PUSH1 0x1F DUP3 ADD AND DUP3 ADD DUP1 PUSH1 0x40 MSTORE POP DUP2 ADD SWAP1 PUSH2 0x1784 SWAP2 SWAP1 PUSH2 0x77D5 JUMP JUMPDEST PUSH1 0x1 PUSH1 0x1 PUSH1 0xA0 SHL SUB AND DUP6 PUSH1 0x1 PUSH1 0x1 PUSH1 0xA0 SHL SUB AND EQ PUSH2 0x17B4 JUMPI PUSH1 0x40 MLOAD PUSH3 0x461BCD PUSH1 0xE5 SHL DUP2 MSTORE PUSH1 0x4 ADD PUSH2 0x7B1 SWAP1 PUSH2 0x77F0 JUMP JUMPDEST PUSH1 0x17 SLOAD PUSH2 0x17E6 SWAP1 PUSH1 0x1 PUSH1 0x1 PUSH1 0xA0 SHL SUB AND DUP4 PUSH2 0x17E1 PUSH9 0x68155A43676E00000 PUSH9 0x22B1C8C1227A00000 PUSH2 0x7664 JUMP JUMPDEST PUSH2 0x47B0 JUMP JUMPDEST PUSH1 0x1C SLOAD PUSH1 0x40 MLOAD PUSH4 0x7A5A18F7 PUSH1 0xE0 SHL DUP2 MSTORE PUSH1 0x4 DUP2 ADD DUP6 SWAP1 MSTORE PUSH1 0x24 DUP2 ADD DUP7 SWAP1 MSTORE PUSH0 SWAP2 PUSH1 0x1 PUSH1 0x1 PUSH1 0xA0 SHL SUB AND SWAP1 PUSH4 0x7A5A18F7 SWAP1 PUSH1 0x44 ADD PUSH1 0x20 PUSH1 0x40 MLOAD DUP1 DUP4 SUB DUP2 DUP7 GAS STATICCALL ISZERO DUP1 ISZERO PUSH2 0x1834 JUMPI RETURNDATASIZE PUSH0 PUSH0 RETURNDATACOPY RETURNDATASIZE PUSH0 REVERT JUMPDEST POP POP POP POP PUSH1 0x40 MLOAD RETURNDATASIZE PUSH1 0x1F NOT PUSH1 0x1F DUP3 ADD AND DUP3 ADD DUP1 PUSH1 0x40 MSTORE POP DUP2 ADD SWAP1 PUSH2 0x1858 SWAP2 SWAP1 PUSH2 0x77D5 JUMP JUMPDEST SWAP1 POP PUSH1 0x1 PUSH1 0x1 PUSH1 0xA0 SHL SUB DUP2 AND ISZERO PUSH2 0x1897 JUMPI PUSH1 0x1 PUSH1 0x1 PUSH1 0xA0 SHL SUB DUP8 DUP2 AND PUSH0 SWAP1 DUP2 MSTORE PUSH1 0x6 PUSH1 0x20 MSTORE PUSH1 0x40 SWAP1 KECCAK256 DUP1 SLOAD PUSH1 0x1 PUSH1 0x1 PUSH1 0xA0 SHL SUB NOT AND SWAP2 DUP4 AND SWAP2 SWAP1 SWAP2 OR SWAP1 SSTORE JUMPDEST PUSH2 0x18A5 DUP8 PUSH3 0x186A0 DUP6 PUSH2 0x49D6 JUMP JUMPDEST PUSH1 0x1B SLOAD PUSH1 0x16 SLOAD PUSH1 0x1 PUSH1 0x1 PUSH1 0xA0 SHL SUB SWAP2 DUP3 AND SWAP2 PUSH4 0xE115DC7F SWAP2 AND DUP6 PUSH3 0x186A0 PUSH2 0x18DE PUSH8 0xDE0B6B3A7640000 PUSH9 0x68155A43676E00000 PUSH2 0x782E JUMP JUMPDEST PUSH2 0x18EA SWAP1 PUSH2 0x3E8 PUSH2 0x7841 JUMP JUMPDEST PUSH2 0x18F4 SWAP2 SWAP1 PUSH2 0x7677 JUMP JUMPDEST PUSH1 0x1 PUSH1 0x2 PUSH1 0x40 MLOAD DUP7 PUSH4 0xFFFFFFFF AND PUSH1 0xE0 SHL DUP2 MSTORE PUSH1 0x4 ADD PUSH2 0x1918 SWAP6 SWAP5 SWAP4 SWAP3 SWAP2 SWAP1 PUSH2 0x7858 JUMP JUMPDEST PUSH0 PUSH1 0x40 MLOAD DUP1 DUP4 SUB DUP2 PUSH0 DUP8 DUP1 EXTCODESIZE ISZERO DUP1 ISZERO PUSH2 0x192F JUMPI PUSH0 PUSH0 REVERT JUMPDEST POP GAS CALL ISZERO DUP1 ISZERO PUSH2 0x1941 JUMPI RETURNDATASIZE PUSH0 PUSH0 RETURNDATACOPY RETURNDATASIZE PUSH0 REVERT JUMPDEST POP POP PUSH1 0x11 SLOAD PUSH1 0xFF AND ISZERO SWAP2 POP PUSH2 0x1A20 SWAP1 POP JUMPI POP POP PUSH1 0x40 DUP1 MLOAD PUSH1 0xA0 DUP2 ADD DUP3 MSTORE PUSH1 0x1 PUSH1 0x1 PUSH1 0xA0 SHL SUB DUP1 DUP9 AND DUP3 MSTORE DUP7 DUP2 AND PUSH1 0x20 DUP4 ADD SWAP1 DUP2 MSTORE SWAP3 DUP3 ADD DUP7 DUP2 MSTORE PUSH1 0x60 DUP4 ADD DUP7 DUP2 MSTORE PUSH1 0x80 DUP5 ADD DUP7 DUP2 MSTORE PUSH1 0xF DUP1 SLOAD PUSH1 0x1 DUP2 ADD DUP3 SSTORE PUSH0 SWAP2 SWAP1 SWAP2 MSTORE SWAP5 MLOAD PUSH1 0x5 SWAP1 SWAP6 MUL PUSH0 MLOAD PUSH1 0x20 PUSH2 0x80BF PUSH0 CODECOPY PUSH0 MLOAD SWAP1 PUSH0 MSTORE DUP2 ADD DUP1 SLOAD SWAP7 DUP7 AND PUSH1 0x1 PUSH1 0x1 PUSH1 0xA0 SHL SUB NOT SWAP8 DUP9 AND OR SWAP1 SSTORE SWAP6 MLOAD PUSH0 MLOAD PUSH1 0x20 PUSH2 0x807D PUSH0 CODECOPY PUSH0 MLOAD SWAP1 PUSH0 MSTORE DUP8 ADD DUP1 SLOAD SWAP2 SWAP1 SWAP6 AND SWAP6 AND SWAP5 SWAP1 SWAP5 OR SWAP1 SWAP3 SSTORE MLOAD PUSH0 MLOAD PUSH1 0x20 PUSH2 0x805D PUSH0 CODECOPY PUSH0 MLOAD SWAP1 PUSH0 MSTORE DUP5 ADD SSTORE MLOAD PUSH0 MLOAD PUSH1 0x20 PUSH2 0x803D PUSH0 CODECOPY PUSH0 MLOAD SWAP1 PUSH0 MSTORE DUP4 ADD SSTORE MLOAD PUSH0 MLOAD PUSH1 0x20 PUSH2 0x801D PUSH0 CODECOPY PUSH0 MLOAD SWAP1 PUSH0 MSTORE SWAP1 SWAP2 ADD SSTORE PUSH2 0x1A38 JUMP JUMPDEST PUSH2 0x1A28 PUSH2 0x5051 JUMP JUMPDEST PUSH2 0x1A35 DUP8 DUP8 DUP8 DUP8 DUP8 PUSH2 0x51F2 JUMP JUMPDEST POP POP JUMPDEST POP POP POP POP POP JUMP JUMPDEST PUSH1 0x18 SLOAD PUSH1 0x1 PUSH1 0x1 PUSH1 0xA0 SHL SUB AND CALLER EQ PUSH2 0x1A69 JUMPI PUSH1 0x40 MLOAD PUSH3 0x461BCD PUSH1 0xE5 SHL DUP2 MSTORE PUSH1 0x4 ADD PUSH2 0x7B1 SWAP1 PUSH2 0x7580 JUMP JUMPDEST PUSH1 0x16 DUP1 SLOAD PUSH1 0x1 PUSH1 0x1 PUSH1 0xA0 SHL SUB NOT AND PUSH1 0x1 PUSH1 0x1 PUSH1 0xA0 SHL SUB SWAP3 SWAP1 SWAP3 AND SWAP2 SWAP1 SWAP2 OR SWAP1 SSTORE JUMP JUMPDEST PUSH1 0x1B SLOAD PUSH1 0x40 MLOAD PUSH4 0x5BC3E911 PUSH1 0xE1 SHL DUP2 MSTORE PUSH1 0x60 SWAP2 PUSH1 0x1 PUSH1 0x1 PUSH1 0xA0 SHL SUB AND SWAP1 PUSH4 0xB787D222 SWAP1 PUSH2 0x1AC0 SWAP1 DUP8 SWAP1 DUP8 SWAP1 DUP8 SWAP1 PUSH1 0x4 ADD PUSH2 0x788B JUMP JUMPDEST PUSH0 PUSH1 0x40 MLOAD DUP1 DUP4 SUB DUP2 DUP7 GAS STATICCALL ISZERO DUP1 ISZERO PUSH2 0x1ADA JUMPI RETURNDATASIZE PUSH0 PUSH0 RETURNDATACOPY RETURNDATASIZE PUSH0 REVERT JUMPDEST POP POP POP POP PUSH1 0x40 MLOAD RETURNDATASIZE PUSH0 DUP3 RETURNDATACOPY PUSH1 0x1F RETURNDATASIZE SWAP1 DUP2 ADD PUSH1 0x1F NOT AND DUP3 ADD PUSH1 0x40 MSTORE PUSH2 0x1B01 SWAP2 SWAP1 DUP2 ADD SWAP1 PUSH2 0x78AC JUMP JUMPDEST SWAP5 SWAP4 POP POP POP POP JUMP JUMPDEST PUSH1 0x1F SLOAD PUSH1 0x40 MLOAD PUSH4 0x700786D7 PUSH1 0xE1 SHL DUP2 MSTORE PUSH0 SWAP2 PUSH1 0x1 PUSH1 0x1 PUSH1 0xA0 SHL SUB AND SWAP1 DUP2 SWAP1 PUSH4 0xE00F0DAE SWAP1 PUSH2 0x1B3B SWAP1 DUP7 SWAP1 PUSH1 0x4 ADD PUSH2 0x734E JUMP JUMPDEST PUSH1 0x20 PUSH1 0x40 MLOAD DUP1 DUP4 SUB DUP2 DUP7 GAS STATICCALL ISZERO DUP1 ISZERO PUSH2 0x1B56 JUMPI RETURNDATASIZE PUSH0 PUSH0 RETURNDATACOPY RETURNDATASIZE PUSH0 REVERT JUMPDEST POP POP POP POP PUSH1 0x40 MLOAD RETURNDATASIZE PUSH1 0x1F NOT PUSH1 0x1F DUP3 ADD AND DUP3 ADD DUP1 PUSH1 0x40 MSTORE POP DUP2 ADD SWAP1 PUSH2 0x1B7A SWAP2 SWAP1 PUSH2 0x77D5 JUMP JUMPDEST SWAP4 SWAP3 POP POP POP JUMP JUMPDEST PUSH1 0x40 DUP1 MLOAD DUP1 DUP3 ADD SWAP1 SWAP2 MSTORE PUSH0 DUP1 DUP3 MSTORE PUSH1 0x20 DUP3 ADD MSTORE CALLER ORIGIN EQ PUSH2 0x1BB3 JUMPI PUSH1 0x40 MLOAD PUSH3 0x461BCD PUSH1 0xE5 SHL DUP2 MSTORE PUSH1 0x4 ADD PUSH2 0x7B1 SWAP1 PUSH2 0x761B JUMP JUMPDEST CALLER PUSH0 DUP2 DUP2 MSTORE PUSH1 0x12 PUSH1 0x20 MSTORE PUSH1 0x40 SWAP1 KECCAK256 SLOAD PUSH1 0x1 PUSH1 0x1 PUSH1 0xA0 SHL SUB AND PUSH2 0x1BE7 JUMPI PUSH1 0x40 MLOAD PUSH3 0x461BCD PUSH1 0xE5 SHL DUP2 MSTORE PUSH1 0x4 ADD PUSH2 0x7B1 SWAP1 PUSH2 0x7980 JUMP JUMPDEST PUSH1 0x1 PUSH1 0x1 PUSH1 0xA0 SHL SUB SWAP1 DUP2 AND PUSH0 SWAP1 DUP2 MSTORE PUSH1 0x12 PUSH1 0x20 SWAP1 DUP2 MSTORE PUSH1 0x40 SWAP2 DUP3 SWAP1 KECCAK256 DUP3 MLOAD DUP1 DUP5 ADD SWAP1 SWAP4 MSTORE DUP1 SLOAD SWAP1 SWAP4 AND DUP3 MSTORE PUSH1 0x1 SWAP1 SWAP3 ADD SLOAD SWAP2 DUP2 ADD SWAP2 SWAP1 SWAP2 MSTORE SWAP1 POP SWAP1 JUMP JUMPDEST PUSH1 0x18 SLOAD PUSH1 0x1 PUSH1 0x1 PUSH1 0xA0 SHL SUB AND CALLER EQ PUSH2 0x1C4E JUMPI PUSH1 0x40 MLOAD PUSH3 0x461BCD PUSH1 0xE5 SHL DUP2 MSTORE PUSH1 0x4 ADD PUSH2 0x7B1 SWAP1 PUSH2 0x7580 JUMP JUMPDEST PUSH1 0x17 DUP1 SLOAD PUSH1 0x1 PUSH1 0x1 PUSH1 0xA0 SHL SUB NOT AND PUSH1 0x1 PUSH1 0x1 PUSH1 0xA0 SHL SUB SWAP3 SWAP1 SWAP3 AND SWAP2 SWAP1 SWAP2 OR SWAP1 SSTORE JUMP JUMPDEST PUSH0 DUP3 GT PUSH2 0x1C8F JUMPI PUSH1 0x40 MLOAD PUSH3 0x461BCD PUSH1 0xE5 SHL DUP2 MSTORE PUSH1 0x4 ADD PUSH2 0x7B1 SWAP1 PUSH2 0x75B5 JUMP JUMPDEST ORIGIN CALLER EQ DUP1 PUSH2 0x1CA7 JUMPI POP PUSH1 0x14 SLOAD PUSH1 0x1 PUSH1 0x1 PUSH1 0xA0 SHL SUB AND CALLER EQ JUMPDEST DUP1 PUSH2 0x1CBC JUMPI POP PUSH1 0x16 SLOAD PUSH1 0x1 PUSH1 0x1 PUSH1 0xA0 SHL SUB AND CALLER EQ JUMPDEST DUP1 PUSH2 0x1CD1 JUMPI POP PUSH1 0x15 SLOAD PUSH1 0x1 PUSH1 0x1 PUSH1 0xA0 SHL SUB AND CALLER EQ JUMPDEST PUSH2 0x1CED JUMPI PUSH1 0x40 MLOAD PUSH3 0x461BCD PUSH1 0xE5 SHL DUP2 MSTORE PUSH1 0x4 ADD PUSH2 0x7B1 SWAP1 PUSH2 0x75EC JUMP JUMPDEST PUSH2 0x1CF8 DUP3 CALLER DUP4 PUSH2 0x37DF JUMP JUMPDEST POP POP JUMP JUMPDEST PUSH1 0x18 SLOAD PUSH1 0x1 PUSH1 0x1 PUSH1 0xA0 SHL SUB AND CALLER EQ PUSH2 0x1D26 JUMPI PUSH1 0x40 MLOAD PUSH3 0x461BCD PUSH1 0xE5 SHL DUP2 MSTORE PUSH1 0x4 ADD PUSH2 0x7B1 SWAP1 PUSH2 0x7580 JUMP JUMPDEST PUSH1 0x1 PUSH1 0x1 PUSH1 0xA0 SHL SUB DUP3 DUP2 AND PUSH0 SWAP1 DUP2 MSTORE PUSH1 0x4 PUSH1 0x20 MSTORE PUSH1 0x40 SWAP1 KECCAK256 SLOAD AND PUSH2 0x1D7E JUMPI PUSH1 0x40 MLOAD PUSH3 0x461BCD PUSH1 0xE5 SHL DUP2 MSTORE PUSH1 0x20 PUSH1 0x4 DUP3 ADD MSTORE PUSH1 0xF PUSH1 0x24 DUP3 ADD MSTORE PUSH15 0x55736572206E6F7420657869737473 PUSH1 0x88 SHL PUSH1 0x44 DUP3 ADD MSTORE PUSH1 0x64 ADD PUSH2 0x7B1 JUMP JUMPDEST PUSH2 0x1CF8 PUSH0 DUP4 DUP4 PUSH2 0x592E JUMP JUMPDEST PUSH1 0x1 PUSH1 0x1 PUSH1 0xA0 SHL SUB DUP2 DUP2 AND PUSH0 SWAP1 DUP2 MSTORE PUSH1 0x4 PUSH1 0x20 MSTORE PUSH1 0x40 DUP2 KECCAK256 SLOAD SWAP1 SWAP2 AND ISZERO DUP1 ISZERO SWAP1 PUSH2 0x11A2 JUMPI POP PUSH1 0x1 PUSH1 0x1 PUSH1 0x1 PUSH1 0xA0 SHL SUB DUP4 AND PUSH0 SWAP1 DUP2 MSTORE PUSH1 0x4 PUSH1 0x20 MSTORE PUSH1 0x40 SWAP1 KECCAK256 PUSH1 0x2 ADD SLOAD PUSH2 0x100 SWAP1 DIV PUSH1 0xFF AND PUSH1 0x3 DUP2 GT ISZERO PUSH2 0x1DE4 JUMPI PUSH2 0x1DE4 PUSH2 0x7147 JUMP JUMPDEST EQ SWAP3 SWAP2 POP POP JUMP JUMPDEST PUSH1 0x18 SLOAD PUSH1 0x1 PUSH1 0x1 PUSH1 0xA0 SHL SUB AND CALLER EQ PUSH2 0x1E15 JUMPI PUSH1 0x40 MLOAD PUSH3 0x461BCD PUSH1 0xE5 SHL DUP2 MSTORE PUSH1 0x4 ADD PUSH2 0x7B1 SWAP1 PUSH2 0x7580 JUMP JUMPDEST PUSH1 0x17 SLOAD PUSH1 0x40 MLOAD PUSH4 0x70A08231 PUSH1 0xE0 SHL DUP2 MSTORE PUSH1 0x1 PUSH1 0x1 PUSH1 0xA0 SHL SUB SWAP1 SWAP2 AND SWAP1 PUSH4 0x70A08231 SWAP1 PUSH2 0x1E45 SWAP1 ADDRESS SWAP1 PUSH1 0x4 ADD PUSH2 0x734E JUMP JUMPDEST PUSH1 0x20 PUSH1 0x40 MLOAD DUP1 DUP4 SUB DUP2 DUP7 GAS STATICCALL ISZERO DUP1 ISZERO PUSH2 0x1E60 JUMPI RETURNDATASIZE PUSH0 PUSH0 RETURNDATACOPY RETURNDATASIZE PUSH0 REVERT JUMPDEST POP POP POP POP PUSH1 0x40 MLOAD RETURNDATASIZE PUSH1 0x1F NOT PUSH1 0x1F DUP3 ADD AND DUP3 ADD DUP1 PUSH1 0x40 MSTORE POP DUP2 ADD SWAP1 PUSH2 0x1E84 SWAP2 SWAP1 PUSH2 0x79AD JUMP JUMPDEST DUP2 GT ISZERO PUSH2 0x1ECC JUMPI PUSH1 0x40 MLOAD PUSH3 0x461BCD PUSH1 0xE5 SHL DUP2 MSTORE PUSH1 0x20 PUSH1 0x4 DUP3 ADD MSTORE PUSH1 0x16 PUSH1 0x24 DUP3 ADD MSTORE PUSH22 0x616D6F756E74206973206F7665722062616C616E6365 PUSH1 0x50 SHL PUSH1 0x44 DUP3 ADD MSTORE PUSH1 0x64 ADD PUSH2 0x7B1 JUMP JUMPDEST PUSH1 0x17 SLOAD PUSH1 0x16 SLOAD PUSH1 0x40 MLOAD PUSH4 0x95EA7B3 PUSH1 0xE0 SHL DUP2 MSTORE PUSH1 0x1 PUSH1 0x1 PUSH1 0xA0 SHL SUB SWAP3 DUP4 AND SWAP3 PUSH4 0x95EA7B3 SWAP3 PUSH2 0x1F02 SWAP3 SWAP2 AND SWAP1 DUP6 SWAP1 PUSH1 0x4 ADD PUSH2 0x79C4 JUMP JUMPDEST PUSH1 0x20 PUSH1 0x40 MLOAD DUP1 DUP4 SUB DUP2 PUSH0 DUP8 GAS CALL ISZERO DUP1 ISZERO PUSH2 0x1F1E JUMPI RETURNDATASIZE PUSH0 PUSH0 RETURNDATACOPY RETURNDATASIZE PUSH0 REVERT JUMPDEST POP POP POP POP PUSH1 0x40 MLOAD RETURNDATASIZE PUSH1 0x1F NOT PUSH1 0x1F DUP3 ADD AND DUP3 ADD DUP1 PUSH1 0x40 MSTORE POP DUP2 ADD SWAP1 PUSH2 0x1F42 SWAP2 SWAP1 PUSH2 0x79DD JUMP JUMPDEST POP PUSH1 0x16 SLOAD PUSH1 0x40 MLOAD PUSH4 0x53F29F7 PUSH1 0xE3 SHL DUP2 MSTORE PUSH1 0x4 DUP2 ADD DUP4 SWAP1 MSTORE PUSH1 0x1 PUSH1 0x1 PUSH1 0xA0 SHL SUB SWAP1 SWAP2 AND SWAP1 PUSH4 0x29F94FB8 SWAP1 PUSH1 0x24 ADD PUSH0 PUSH1 0x40 MLOAD DUP1 DUP4 SUB DUP2 PUSH0 DUP8 DUP1 EXTCODESIZE ISZERO DUP1 ISZERO PUSH2 0x1F86 JUMPI PUSH0 PUSH0 REVERT JUMPDEST POP GAS CALL ISZERO DUP1 ISZERO PUSH2 0x1A38 JUMPI RETURNDATASIZE PUSH0 PUSH0 RETURNDATACOPY RETURNDATASIZE PUSH0 REVERT JUMPDEST PUSH1 0x1 PUSH1 0x1 PUSH1 0xA0 SHL SUB DUP2 DUP2 AND PUSH0 SWAP1 DUP2 MSTORE PUSH1 0x4 PUSH1 0x20 MSTORE PUSH1 0x40 DUP2 KECCAK256 SLOAD SWAP1 SWAP2 AND ISZERO ISZERO DUP1 PUSH2 0x1FD9 JUMPI POP PUSH1 0x1 PUSH1 0x1 PUSH1 0xA0 SHL SUB DUP3 DUP2 AND PUSH0 SWAP1 DUP2 MSTORE PUSH1 0x12 PUSH1 0x20 MSTORE PUSH1 0x40 SWAP1 KECCAK256 SLOAD AND ISZERO ISZERO JUMPDEST DUP1 PUSH2 0x11A2 JUMPI POP POP PUSH1 0x14 SLOAD PUSH1 0x1 PUSH1 0x1 PUSH1 0xA0 SHL SUB SWAP1 DUP2 AND SWAP2 AND EQ SWAP1 JUMP JUMPDEST PUSH1 0x18 SLOAD PUSH1 0x1 PUSH1 0x1 PUSH1 0xA0 SHL SUB AND CALLER EQ PUSH2 0x201E JUMPI PUSH1 0x40 MLOAD PUSH3 0x461BCD PUSH1 0xE5 SHL DUP2 MSTORE PUSH1 0x4 ADD PUSH2 0x7B1 SWAP1 PUSH2 0x7580 JUMP JUMPDEST PUSH1 0x1E DUP1 SLOAD PUSH1 0x1 PUSH1 0x1 PUSH1 0xA0 SHL SUB NOT AND PUSH1 0x1 PUSH1 0x1 PUSH1 0xA0 SHL SUB SWAP3 SWAP1 SWAP3 AND SWAP2 SWAP1 SWAP2 OR SWAP1 SSTORE JUMP JUMPDEST PUSH1 0x60 CALLER ORIGIN EQ PUSH2 0x2061 JUMPI PUSH1 0x40 MLOAD PUSH3 0x461BCD PUSH1 0xE5 SHL DUP2 MSTORE PUSH1 0x4 ADD PUSH2 0x7B1 SWAP1 PUSH2 0x761B JUMP JUMPDEST PUSH0 DUP3 GT DUP1 ISZERO PUSH2 0x2071 JUMPI POP PUSH1 0x32 DUP3 GT ISZERO JUMPDEST PUSH2 0x20C7 JUMPI PUSH1 0x40 MLOAD PUSH3 0x461BCD PUSH1 0xE5 SHL DUP2 MSTORE PUSH1 0x20 PUSH1 0x4 DUP3 ADD MSTORE PUSH1 0x21 PUSH1 0x24 DUP3 ADD MSTORE PUSH32 0x7061676553697A65206D757374206265206265747765656E203120616E642035 PUSH1 0x44 DUP3 ADD MSTORE PUSH1 0x3 PUSH1 0xFC SHL PUSH1 0x64 DUP3 ADD MSTORE PUSH1 0x84 ADD PUSH2 0x7B1 JUMP JUMPDEST PUSH1 0x1 PUSH1 0x1 PUSH1 0xA0 SHL SUB DUP5 AND PUSH0 SWAP1 DUP2 MSTORE PUSH1 0x13 PUSH1 0x20 MSTORE PUSH1 0x40 SWAP1 KECCAK256 SLOAD DUP1 DUP5 LT PUSH2 0x20FB JUMPI POP POP PUSH1 0x40 DUP1 MLOAD PUSH0 DUP2 MSTORE PUSH1 0x20 DUP2 ADD SWAP1 SWAP2 MSTORE PUSH2 0x1B7A JUMP JUMPDEST PUSH0 PUSH2 0x2106 DUP5 DUP7 PUSH2 0x7664 JUMP JUMPDEST SWAP1 POP DUP2 DUP2 GT ISZERO PUSH2 0x2113 JUMPI POP DUP1 JUMPDEST PUSH0 PUSH2 0x211E DUP7 DUP4 PUSH2 0x7677 JUMP JUMPDEST PUSH1 0x1 PUSH1 0x1 PUSH1 0x40 SHL SUB DUP2 GT ISZERO PUSH2 0x2135 JUMPI PUSH2 0x2135 PUSH2 0x6F21 JUMP JUMPDEST PUSH1 0x40 MLOAD SWAP1 DUP1 DUP3 MSTORE DUP1 PUSH1 0x20 MUL PUSH1 0x20 ADD DUP3 ADD PUSH1 0x40 MSTORE DUP1 ISZERO PUSH2 0x215E JUMPI DUP2 PUSH1 0x20 ADD PUSH1 0x20 DUP3 MUL DUP1 CALLDATASIZE DUP4 CALLDATACOPY ADD SWAP1 POP JUMPDEST POP SWAP1 POP PUSH0 DUP7 JUMPDEST DUP4 DUP2 LT ISZERO PUSH2 0x21EF JUMPI PUSH1 0x1 PUSH1 0x1 PUSH1 0xA0 SHL SUB DUP10 AND PUSH0 SWAP1 DUP2 MSTORE PUSH1 0x13 PUSH1 0x20 MSTORE PUSH1 0x40 SWAP1 KECCAK256 DUP1 SLOAD DUP3 SWAP1 DUP2 LT PUSH2 0x2195 JUMPI PUSH2 0x2195 PUSH2 0x768A JUMP JUMPDEST SWAP1 PUSH0 MSTORE PUSH1 0x20 PUSH0 KECCAK256 ADD PUSH0 SWAP1 SLOAD SWAP1 PUSH2 0x100 EXP SWAP1 DIV PUSH1 0x1 PUSH1 0x1 PUSH1 0xA0 SHL SUB AND DUP4 DUP4 DUP2 MLOAD DUP2 LT PUSH2 0x21C2 JUMPI PUSH2 0x21C2 PUSH2 0x768A JUMP JUMPDEST PUSH1 0x1 PUSH1 0x1 PUSH1 0xA0 SHL SUB SWAP1 SWAP3 AND PUSH1 0x20 SWAP3 DUP4 MUL SWAP2 SWAP1 SWAP2 ADD SWAP1 SWAP2 ADD MSTORE DUP2 PUSH2 0x21E4 DUP2 PUSH2 0x76CB JUMP JUMPDEST SWAP3 POP POP PUSH1 0x1 ADD PUSH2 0x2164 JUMP JUMPDEST POP SWAP1 SWAP8 SWAP7 POP POP POP POP POP POP POP JUMP JUMPDEST PUSH1 0x18 SLOAD PUSH1 0x1 PUSH1 0x1 PUSH1 0xA0 SHL SUB AND CALLER EQ PUSH2 0x2226 JUMPI PUSH1 0x40 MLOAD PUSH3 0x461BCD PUSH1 0xE5 SHL DUP2 MSTORE PUSH1 0x4 ADD PUSH2 0x7B1 SWAP1 PUSH2 0x7580 JUMP JUMPDEST PUSH1 0x1C DUP1 SLOAD PUSH1 0x1 PUSH1 0x1 PUSH1 0xA0 SHL SUB NOT AND PUSH1 0x1 PUSH1 0x1 PUSH1 0xA0 SHL SUB SWAP3 SWAP1 SWAP3 AND SWAP2 SWAP1 SWAP2 OR SWAP1 SSTORE JUMP JUMPDEST PUSH1 0x18 SLOAD PUSH1 0x1 PUSH1 0x1 PUSH1 0xA0 SHL SUB AND CALLER EQ PUSH2 0x2272 JUMPI PUSH1 0x40 MLOAD PUSH3 0x461BCD PUSH1 0xE5 SHL DUP2 MSTORE PUSH1 0x4 ADD PUSH2 0x7B1 SWAP1 PUSH2 0x7580 JUMP JUMPDEST PUSH1 0x11 SLOAD PUSH1 0xFF AND ISZERO PUSH2 0x22C3 JUMPI PUSH1 0x40 MLOAD PUSH3 0x461BCD PUSH1 0xE5 SHL DUP2 MSTORE PUSH1 0x20 PUSH1 0x4 DUP3 ADD MSTORE PUSH1 0x1B PUSH1 0x24 DUP3 ADD MSTORE PUSH27 0x42617463682070726F63657373696E672069732072756E6E696E67 PUSH1 0x28 SHL PUSH1 0x44 DUP3 ADD MSTORE PUSH1 0x64 ADD PUSH2 0x7B1 JUMP JUMPDEST PUSH1 0x11 DUP1 SLOAD SWAP2 ISZERO ISZERO PUSH2 0x100 MUL PUSH2 0xFF00 NOT SWAP1 SWAP3 AND SWAP2 SWAP1 SWAP2 OR SWAP1 SSTORE JUMP JUMPDEST CALLER ORIGIN EQ PUSH2 0x22FC JUMPI PUSH1 0x40 MLOAD PUSH3 0x461BCD PUSH1 0xE5 SHL DUP2 MSTORE PUSH1 0x4 ADD PUSH2 0x7B1 SWAP1 PUSH2 0x761B JUMP JUMPDEST PUSH1 0x11 SLOAD PUSH2 0x100 SWAP1 DIV PUSH1 0xFF AND ISZERO PUSH2 0x2324 JUMPI PUSH1 0x40 MLOAD PUSH3 0x461BCD PUSH1 0xE5 SHL DUP2 MSTORE PUSH1 0x4 ADD PUSH2 0x7B1 SWAP1 PUSH2 0x76E3 JUMP JUMPDEST PUSH1 0x1 PUSH1 0x1 PUSH1 0xA0 SHL SUB DUP3 DUP2 AND PUSH0 SWAP1 DUP2 MSTORE PUSH1 0x12 PUSH1 0x20 MSTORE PUSH1 0x40 SWAP1 KECCAK256 SLOAD AND PUSH2 0x23E4 JUMPI PUSH1 0x1 PUSH1 0x1 PUSH1 0xA0 SHL SUB DUP3 DUP2 AND PUSH0 SWAP1 DUP2 MSTORE PUSH1 0x4 PUSH1 0x20 MSTORE PUSH1 0x40 SWAP1 KECCAK256 SLOAD AND PUSH2 0x2378 JUMPI PUSH1 0x40 MLOAD PUSH3 0x461BCD PUSH1 0xE5 SHL DUP2 MSTORE PUSH1 0x4 ADD PUSH2 0x7B1 SWAP1 PUSH2 0x7980 JUMP JUMPDEST PUSH1 0x1 PUSH1 0x1 PUSH1 0xA0 SHL SUB DUP3 AND PUSH0 SWAP1 DUP2 MSTORE PUSH1 0x5 PUSH1 0x20 MSTORE PUSH1 0x40 SWAP1 KECCAK256 SLOAD TIMESTAMP GT ISZERO PUSH2 0x23DF JUMPI PUSH1 0x40 MLOAD PUSH3 0x461BCD PUSH1 0xE5 SHL DUP2 MSTORE PUSH1 0x20 PUSH1 0x4 DUP3 ADD DUP2 SWAP1 MSTORE PUSH1 0x24 DUP3 ADD MSTORE PUSH32 0x4D656D6265727368697020657870697265642C2063616E6E6F742072656E6577 PUSH1 0x44 DUP3 ADD MSTORE PUSH1 0x64 ADD PUSH2 0x7B1 JUMP JUMPDEST PUSH2 0x2442 JUMP JUMPDEST PUSH1 0x1 PUSH1 0x1 PUSH1 0xA0 SHL SUB DUP3 DUP2 AND PUSH0 SWAP1 DUP2 MSTORE PUSH1 0x4 PUSH1 0x20 MSTORE PUSH1 0x40 SWAP1 KECCAK256 SLOAD AND ISZERO PUSH2 0x2442 JUMPI PUSH1 0x40 MLOAD PUSH3 0x461BCD PUSH1 0xE5 SHL DUP2 MSTORE PUSH1 0x20 PUSH1 0x4 DUP3 ADD MSTORE PUSH1 0x14 PUSH1 0x24 DUP3 ADD MSTORE PUSH20 0x557365722077726F6E6720737472756374757265 PUSH1 0x60 SHL PUSH1 0x44 DUP3 ADD MSTORE PUSH1 0x64 ADD PUSH2 0x7B1 JUMP JUMPDEST PUSH1 0x17 SLOAD PUSH2 0x2462 SWAP1 PUSH1 0x1 PUSH1 0x1 PUSH1 0xA0 SHL SUB AND DUP3 PUSH9 0x68155A43676E00000 PUSH2 0x47B0 JUMP JUMPDEST PUSH1 0x1 PUSH1 0x1 PUSH1 0xA0 SHL SUB DUP3 AND PUSH0 SWAP1 DUP2 MSTORE PUSH1 0x5 PUSH1 0x20 MSTORE PUSH1 0x40 DUP2 KECCAK256 DUP1 SLOAD PUSH4 0x1E13380 SWAP3 SWAP1 PUSH2 0x248D SWAP1 DUP5 SWAP1 PUSH2 0x7664 JUMP JUMPDEST SWAP1 SWAP2 SSTORE POP PUSH2 0x24A1 SWAP1 POP DUP3 PUSH3 0x186A0 DUP4 PUSH2 0x49D6 JUMP JUMPDEST PUSH1 0x1B SLOAD PUSH1 0x16 SLOAD PUSH1 0x1 PUSH1 0x1 PUSH1 0xA0 SHL SUB SWAP2 DUP3 AND SWAP2 PUSH4 0xE115DC7F SWAP2 AND DUP4 PUSH3 0x186A0 PUSH2 0x24DA PUSH8 0xDE0B6B3A7640000 PUSH9 0x68155A43676E00000 PUSH2 0x782E JUMP JUMPDEST PUSH2 0x24E6 SWAP1 PUSH2 0x3E8 PUSH2 0x7841 JUMP JUMPDEST PUSH2 0x24F0 SWAP2 SWAP1 PUSH2 0x7677 JUMP JUMPDEST PUSH1 0x1 PUSH1 0x2 PUSH1 0x40 MLOAD DUP7 PUSH4 0xFFFFFFFF AND PUSH1 0xE0 SHL DUP2 MSTORE PUSH1 0x4 ADD PUSH2 0x2514 SWAP6 SWAP5 SWAP4 SWAP3 SWAP2 SWAP1 PUSH2 0x7858 JUMP JUMPDEST PUSH0 PUSH1 0x40 MLOAD DUP1 DUP4 SUB DUP2 PUSH0 DUP8 DUP1 EXTCODESIZE ISZERO DUP1 ISZERO PUSH2 0x252B JUMPI PUSH0 PUSH0 REVERT JUMPDEST POP GAS CALL ISZERO DUP1 ISZERO PUSH2 0x253D JUMPI RETURNDATASIZE PUSH0 PUSH0 RETURNDATACOPY RETURNDATASIZE PUSH0 REVERT JUMPDEST POP POP POP POP POP POP JUMP JUMPDEST PUSH1 0x18 SLOAD PUSH1 0x1 PUSH1 0x1 PUSH1 0xA0 SHL SUB AND CALLER EQ PUSH2 0x256F JUMPI PUSH1 0x40 MLOAD PUSH3 0x461BCD PUSH1 0xE5 SHL DUP2 MSTORE PUSH1 0x4 ADD PUSH2 0x7B1 SWAP1 PUSH2 0x7580 JUMP JUMPDEST PUSH1 0x3 SLOAD DUP3 LT PUSH2 0x2590 JUMPI PUSH1 0x40 MLOAD PUSH3 0x461BCD PUSH1 0xE5 SHL DUP2 MSTORE PUSH1 0x4 ADD PUSH2 0x7B1 SWAP1 PUSH2 0x769E JUMP JUMPDEST PUSH2 0x259B PUSH1 0x2 PUSH0 PUSH2 0x6DB8 JUMP JUMPDEST PUSH1 0x3 SLOAD PUSH0 SWAP1 PUSH2 0x25AA DUP4 DUP6 PUSH2 0x7664 JUMP JUMPDEST GT PUSH2 0x25BE JUMPI PUSH2 0x25B9 DUP3 DUP5 PUSH2 0x7664 JUMP JUMPDEST PUSH2 0x25C2 JUMP JUMPDEST PUSH1 0x3 SLOAD JUMPDEST SWAP1 POP DUP3 JUMPDEST DUP2 DUP2 LT ISZERO PUSH2 0x26E3 JUMPI PUSH0 PUSH1 0x3 DUP3 DUP2 SLOAD DUP2 LT PUSH2 0x25E2 JUMPI PUSH2 0x25E2 PUSH2 0x768A JUMP JUMPDEST PUSH0 SWAP2 DUP3 MSTORE PUSH1 0x20 DUP1 DUP4 KECCAK256 SWAP1 SWAP2 ADD SLOAD PUSH1 0x1 PUSH1 0x1 PUSH1 0xA0 SHL SUB AND DUP1 DUP4 MSTORE PUSH1 0x7 SWAP1 SWAP2 MSTORE PUSH1 0x40 DUP3 KECCAK256 SLOAD SWAP1 SWAP3 POP PUSH1 0x1 GT ISZERO DUP1 PUSH2 0x2630 JUMPI POP PUSH1 0x1 PUSH1 0x1 PUSH1 0xA0 SHL SUB DUP3 AND PUSH0 SWAP1 DUP2 MSTORE PUSH1 0xA PUSH1 0x20 DUP2 SWAP1 MSTORE PUSH1 0x40 SWAP1 SWAP2 KECCAK256 SLOAD LT ISZERO JUMPDEST DUP1 PUSH2 0x2653 JUMPI POP PUSH1 0x1 PUSH1 0x1 PUSH1 0xA0 SHL SUB DUP3 AND PUSH0 SWAP1 DUP2 MSTORE PUSH1 0x8 PUSH1 0x20 MSTORE PUSH1 0x40 SWAP1 KECCAK256 SLOAD PUSH1 0x64 GT ISZERO JUMPDEST ISZERO PUSH2 0x265C JUMPI POP PUSH1 0x1 JUMPDEST DUP1 PUSH2 0x269F JUMPI PUSH1 0x1 PUSH1 0x1 PUSH1 0xA0 SHL SUB DUP3 AND PUSH0 SWAP1 DUP2 MSTORE PUSH1 0x4 PUSH1 0x20 MSTORE PUSH1 0x40 DUP2 KECCAK256 PUSH1 0x2 ADD DUP1 SLOAD PUSH2 0xFF00 NOT AND PUSH2 0x100 DUP4 MUL OR SWAP1 SSTORE POP PUSH2 0x269A PUSH1 0x4 PUSH1 0x5 PUSH1 0x2 DUP6 PUSH2 0x5994 JUMP JUMPDEST PUSH2 0x26AC JUMP JUMPDEST PUSH2 0x26AC PUSH1 0x4 PUSH1 0xC DUP5 PUSH2 0x472F JUMP JUMPDEST POP PUSH1 0x1 PUSH1 0x1 PUSH1 0xA0 SHL SUB AND PUSH0 SWAP1 DUP2 MSTORE PUSH1 0x7 PUSH1 0x20 SWAP1 DUP2 MSTORE PUSH1 0x40 DUP1 DUP4 KECCAK256 DUP4 SWAP1 SSTORE PUSH1 0xA DUP3 MSTORE DUP1 DUP4 KECCAK256 DUP4 SWAP1 SSTORE PUSH1 0x8 SWAP1 SWAP2 MSTORE DUP2 KECCAK256 SSTORE PUSH1 0x1 ADD PUSH2 0x25C6 JUMP JUMPDEST POP PUSH0 JUMPDEST PUSH1 0x21 SLOAD DUP2 LT ISZERO PUSH2 0x2730 JUMPI PUSH1 0x20 PUSH0 PUSH1 0x21 DUP4 DUP2 SLOAD DUP2 LT PUSH2 0x2706 JUMPI PUSH2 0x2706 PUSH2 0x768A JUMP JUMPDEST PUSH0 SWAP2 DUP3 MSTORE PUSH1 0x20 DUP1 DUP4 KECCAK256 SWAP1 SWAP2 ADD SLOAD DUP4 MSTORE DUP3 ADD SWAP3 SWAP1 SWAP3 MSTORE PUSH1 0x40 ADD SWAP1 KECCAK256 DUP1 SLOAD PUSH1 0xFF NOT AND SWAP1 SSTORE PUSH1 0x1 ADD PUSH2 0x26E6 JUMP JUMPDEST POP PUSH2 0x90D PUSH1 0x21 PUSH0 PUSH2 0x6DB8 JUMP JUMPDEST PUSH2 0x2782 PUSH1 0x40 MLOAD DUP1 PUSH2 0x120 ADD PUSH1 0x40 MSTORE DUP1 PUSH0 DUP2 MSTORE PUSH1 0x20 ADD PUSH0 DUP2 MSTORE PUSH1 0x20 ADD PUSH0 DUP2 MSTORE PUSH1 0x20 ADD PUSH0 DUP2 MSTORE PUSH1 0x20 ADD PUSH0 DUP2 MSTORE PUSH1 0x20 ADD PUSH0 DUP2 MSTORE PUSH1 0x20 ADD PUSH0 DUP2 MSTORE PUSH1 0x20 ADD PUSH0 DUP2 MSTORE PUSH1 0x20 ADD PUSH0 DUP2 MSTORE POP SWAP1 JUMP JUMPDEST PUSH1 0x1B SLOAD PUSH1 0x40 MLOAD PUSH4 0x316F085F PUSH1 0xE0 SHL DUP2 MSTORE PUSH1 0x1 PUSH1 0x1 PUSH1 0xA0 SHL SUB SWAP1 SWAP2 AND SWAP1 PUSH4 0x316F085F SWAP1 PUSH2 0x27B6 SWAP1 DUP8 SWAP1 DUP8 SWAP1 DUP8 SWAP1 PUSH1 0x4 ADD PUSH2 0x788B JUMP JUMPDEST PUSH2 0x120 PUSH1 0x40 MLOAD DUP1 DUP4 SUB DUP2 DUP7 GAS STATICCALL ISZERO DUP1 ISZERO PUSH2 0x27D2 JUMPI RETURNDATASIZE PUSH0 PUSH0 RETURNDATACOPY RETURNDATASIZE PUSH0 REVERT JUMPDEST POP POP POP POP PUSH1 0x40 MLOAD RETURNDATASIZE PUSH1 0x1F NOT PUSH1 0x1F DUP3 ADD AND DUP3 ADD DUP1 PUSH1 0x40 MSTORE POP DUP2 ADD SWAP1 PUSH2 0x1B01 SWAP2 SWAP1 PUSH2 0x79F8 JUMP JUMPDEST CALLER ORIGIN EQ PUSH2 0x2815 JUMPI PUSH1 0x40 MLOAD PUSH3 0x461BCD PUSH1 0xE5 SHL DUP2 MSTORE PUSH1 0x4 ADD PUSH2 0x7B1 SWAP1 PUSH2 0x761B JUMP JUMPDEST PUSH1 0x11 SLOAD PUSH2 0x100 SWAP1 DIV PUSH1 0xFF AND ISZERO PUSH2 0x283D JUMPI PUSH1 0x40 MLOAD PUSH3 0x461BCD PUSH1 0xE5 SHL DUP2 MSTORE PUSH1 0x4 ADD PUSH2 0x7B1 SWAP1 PUSH2 0x76E3 JUMP JUMPDEST DUP2 PUSH2 0x285A JUMPI PUSH1 0x40 MLOAD PUSH3 0x461BCD PUSH1 0xE5 SHL DUP2 MSTORE PUSH1 0x4 ADD PUSH2 0x7B1 SWAP1 PUSH2 0x7A71 JUMP JUMPDEST PUSH1 0x1E SLOAD PUSH1 0x40 MLOAD PUSH4 0x7D847097 PUSH1 0xE1 SHL DUP2 MSTORE PUSH1 0x4 DUP2 ADD DUP5 SWAP1 MSTORE PUSH1 0x1 PUSH1 0x1 PUSH1 0xA0 SHL SUB SWAP1 SWAP2 AND SWAP1 PUSH0 SWAP1 DUP3 SWAP1 PUSH4 0xFB08E12E SWAP1 PUSH1 0x24 ADD PUSH1 0x20 PUSH1 0x40 MLOAD DUP1 DUP4 SUB DUP2 DUP7 GAS STATICCALL ISZERO DUP1 ISZERO PUSH2 0x28A5 JUMPI RETURNDATASIZE PUSH0 PUSH0 RETURNDATACOPY RETURNDATASIZE PUSH0 REVERT JUMPDEST POP POP POP POP PUSH1 0x40 MLOAD RETURNDATASIZE PUSH1 0x1F NOT PUSH1 0x1F DUP3 ADD AND DUP3 ADD DUP1 PUSH1 0x40 MSTORE POP DUP2 ADD SWAP1 PUSH2 0x28C9 SWAP2 SWAP1 PUSH2 0x79AD JUMP JUMPDEST SWAP1 POP DUP1 PUSH0 SUB PUSH2 0x28EA JUMPI PUSH1 0x40 MLOAD PUSH3 0x461BCD PUSH1 0xE5 SHL DUP2 MSTORE PUSH1 0x4 ADD PUSH2 0x7B1 SWAP1 PUSH2 0x7A9B JUMP JUMPDEST PUSH1 0x40 MLOAD PUSH4 0xD09EF241 PUSH1 0xE0 SHL DUP2 MSTORE PUSH1 0x4 DUP2 ADD DUP3 SWAP1 MSTORE PUSH0 SWAP1 PUSH1 0x1 PUSH1 0x1 PUSH1 0xA0 SHL SUB DUP5 AND SWAP1 PUSH4 0xD09EF241 SWAP1 PUSH1 0x24 ADD PUSH0 PUSH1 0x40 MLOAD DUP1 DUP4 SUB DUP2 DUP7 GAS STATICCALL ISZERO DUP1 ISZERO PUSH2 0x292E JUMPI RETURNDATASIZE PUSH0 PUSH0 RETURNDATACOPY RETURNDATASIZE PUSH0 REVERT JUMPDEST POP POP POP POP PUSH1 0x40 MLOAD RETURNDATASIZE PUSH0 DUP3 RETURNDATACOPY PUSH1 0x1F RETURNDATASIZE SWAP1 DUP2 ADD PUSH1 0x1F NOT AND DUP3 ADD PUSH1 0x40 MSTORE PUSH2 0x2955 SWAP2 SWAP1 DUP2 ADD SWAP1 PUSH2 0x7B2A JUMP JUMPDEST PUSH2 0x160 DUP2 ADD MLOAD SWAP1 SWAP2 POP PUSH0 DUP1 DUP1 JUMPDEST DUP5 PUSH2 0x140 ADD MLOAD MLOAD DUP2 PUSH1 0xFF AND LT ISZERO PUSH2 0x2A41 JUMPI PUSH0 DUP6 PUSH2 0x140 ADD MLOAD DUP3 PUSH1 0xFF AND DUP2 MLOAD DUP2 LT PUSH2 0x298E JUMPI PUSH2 0x298E PUSH2 0x768A JUMP JUMPDEST PUSH1 0x20 MUL PUSH1 0x20 ADD ADD MLOAD GT PUSH2 0x29D1 JUMPI PUSH1 0x40 MLOAD PUSH3 0x461BCD PUSH1 0xE5 SHL DUP2 MSTORE PUSH1 0x20 PUSH1 0x4 DUP3 ADD MSTORE PUSH1 0xB PUSH1 0x24 DUP3 ADD MSTORE PUSH11 0x1C995DD85C990819985A5B PUSH1 0xAA SHL PUSH1 0x44 DUP3 ADD MSTORE PUSH1 0x64 ADD PUSH2 0x7B1 JUMP JUMPDEST DUP5 PUSH2 0x140 ADD MLOAD DUP2 PUSH1 0xFF AND DUP2 MLOAD DUP2 LT PUSH2 0x29EB JUMPI PUSH2 0x29EB PUSH2 0x768A JUMP JUMPDEST PUSH1 0x20 MUL PUSH1 0x20 ADD ADD MLOAD DUP3 PUSH2 0x29FE SWAP2 SWAP1 PUSH2 0x7664 JUMP JUMPDEST SWAP2 POP DUP5 PUSH2 0x100 ADD MLOAD DUP2 PUSH1 0xFF AND DUP2 MLOAD DUP2 LT PUSH2 0x2A1A JUMPI PUSH2 0x2A1A PUSH2 0x768A JUMP JUMPDEST PUSH1 0x20 MUL PUSH1 0x20 ADD ADD MLOAD DUP4 PUSH2 0x2A2D SWAP2 SWAP1 PUSH2 0x7664 JUMP JUMPDEST SWAP3 POP DUP1 PUSH2 0x2A39 DUP2 PUSH2 0x7D3F JUMP JUMPDEST SWAP2 POP POP PUSH2 0x2962 JUMP JUMPDEST POP PUSH1 0x20 DUP5 ADD MLOAD PUSH1 0x40 DUP6 ADD MLOAD PUSH1 0x1 PUSH1 0x1 PUSH1 0xA0 SHL SUB DUP1 DUP4 AND SWAP2 AND EQ DUP3 PUSH2 0x2A6D PUSH8 0xDE0B6B3A7640000 DUP8 PUSH2 0x782E JUMP JUMPDEST GT PUSH2 0x2AAD JUMPI PUSH1 0x40 MLOAD PUSH3 0x461BCD PUSH1 0xE5 SHL DUP2 MSTORE PUSH1 0x20 PUSH1 0x4 DUP3 ADD MSTORE PUSH1 0x10 PUSH1 0x24 DUP3 ADD MSTORE PUSH16 0x2BB937B7339031B7B6B6B4B9B9B4B7B7 PUSH1 0x81 SHL PUSH1 0x44 DUP3 ADD MSTORE PUSH1 0x64 ADD PUSH2 0x7B1 JUMP JUMPDEST PUSH1 0x1 PUSH1 0x1 PUSH1 0xA0 SHL SUB DUP3 AND PUSH2 0x2AD3 JUMPI PUSH1 0x40 MLOAD PUSH3 0x461BCD PUSH1 0xE5 SHL DUP2 MSTORE PUSH1 0x4 ADD PUSH2 0x7B1 SWAP1 PUSH2 0x7D5D JUMP JUMPDEST PUSH0 DUP6 GT PUSH2 0x2AF2 JUMPI PUSH1 0x40 MLOAD PUSH3 0x461BCD PUSH1 0xE5 SHL DUP2 MSTORE PUSH1 0x4 ADD PUSH2 0x7B1 SWAP1 PUSH2 0x7D5D JUMP JUMPDEST CALLER DUP2 ISZERO PUSH2 0x2B93 JUMPI PUSH1 0x1 PUSH1 0x1 PUSH1 0xA0 SHL SUB DUP2 DUP2 AND PUSH0 SWAP1 DUP2 MSTORE PUSH1 0x4 PUSH1 0x20 MSTORE PUSH1 0x40 SWAP1 KECCAK256 SLOAD AND ISZERO ISZERO DUP1 PUSH2 0x2B38 JUMPI POP PUSH1 0x1 PUSH1 0x1 PUSH1 0xA0 SHL SUB DUP2 DUP2 AND PUSH0 SWAP1 DUP2 MSTORE PUSH1 0x12 PUSH1 0x20 MSTORE PUSH1 0x40 SWAP1 KECCAK256 SLOAD AND ISZERO ISZERO JUMPDEST PUSH2 0x2B93 JUMPI PUSH1 0x40 MLOAD PUSH3 0x461BCD PUSH1 0xE5 SHL DUP2 MSTORE PUSH1 0x20 PUSH1 0x4 DUP3 ADD MSTORE PUSH1 0x26 PUSH1 0x24 DUP3 ADD MSTORE PUSH32 0x5573657220616C72656164792065786973747320696E20564950206F72205072 PUSH1 0x44 DUP3 ADD MSTORE PUSH6 0x37B6B7BA32B9 PUSH1 0xD1 SHL PUSH1 0x64 DUP3 ADD MSTORE PUSH1 0x84 ADD PUSH2 0x7B1 JUMP JUMPDEST PUSH1 0x1 PUSH1 0x1 PUSH1 0xA0 SHL SUB DUP2 DUP2 AND PUSH0 SWAP1 DUP2 MSTORE PUSH1 0x4 PUSH1 0x20 MSTORE PUSH1 0x40 SWAP1 KECCAK256 SLOAD AND ISZERO DUP1 PUSH2 0x2BED JUMPI POP PUSH1 0x1 PUSH1 0x1 PUSH1 0x1 PUSH1 0xA0 SHL SUB DUP3 AND PUSH0 SWAP1 DUP2 MSTORE PUSH1 0x4 PUSH1 0x20 MSTORE PUSH1 0x40 SWAP1 KECCAK256 PUSH1 0x2 ADD SLOAD PUSH2 0x100 SWAP1 DIV PUSH1 0xFF AND PUSH1 0x3 DUP2 GT ISZERO PUSH2 0x2BEA JUMPI PUSH2 0x2BEA PUSH2 0x7147 JUMP JUMPDEST EQ ISZERO JUMPDEST ISZERO PUSH2 0x2C71 JUMPI POP PUSH1 0x14 SLOAD DUP3 SWAP1 PUSH1 0x1 PUSH1 0x1 PUSH1 0xA0 SHL SUB DUP1 DUP4 AND SWAP2 AND EQ DUP1 PUSH2 0x2C29 JUMPI POP PUSH1 0x1 PUSH1 0x1 PUSH1 0xA0 SHL SUB DUP4 DUP2 AND PUSH0 SWAP1 DUP2 MSTORE PUSH1 0x4 PUSH1 0x20 MSTORE PUSH1 0x40 SWAP1 KECCAK256 SLOAD AND ISZERO ISZERO JUMPDEST PUSH2 0x2C6C JUMPI PUSH1 0x40 MLOAD PUSH3 0x461BCD PUSH1 0xE5 SHL DUP2 MSTORE PUSH1 0x20 PUSH1 0x4 DUP3 ADD MSTORE PUSH1 0x14 PUSH1 0x24 DUP3 ADD MSTORE PUSH20 0x506172656E74206973206E6F7420657869737473 PUSH1 0x60 SHL PUSH1 0x44 DUP3 ADD MSTORE PUSH1 0x64 ADD PUSH2 0x7B1 JUMP JUMPDEST PUSH2 0x2D05 JUMP JUMPDEST PUSH2 0x2CA7 PUSH1 0x40 MLOAD DUP1 PUSH1 0x40 ADD PUSH1 0x40 MSTORE DUP1 PUSH1 0x14 DUP2 MSTORE PUSH1 0x20 ADD PUSH20 0x3AB9B2B910313ABC90383937B23AB1BA1036309D PUSH1 0x61 SHL DUP2 MSTORE POP DUP3 PUSH2 0x5BA9 JUMP JUMPDEST PUSH1 0x1 PUSH1 0x1 PUSH1 0xA0 SHL SUB DUP2 DUP2 AND PUSH0 SWAP1 DUP2 MSTORE PUSH1 0x4 PUSH1 0x20 MSTORE PUSH1 0x40 SWAP1 KECCAK256 SLOAD DUP2 AND SWAP1 DUP5 AND EQ PUSH2 0x2D05 JUMPI PUSH1 0x40 MLOAD PUSH3 0x461BCD PUSH1 0xE5 SHL DUP2 MSTORE PUSH1 0x20 PUSH1 0x4 DUP3 ADD MSTORE PUSH1 0x10 PUSH1 0x24 DUP3 ADD MSTORE PUSH16 0xA0C2E4CADCE840DCDEE840DAC2E8C6D PUSH1 0x83 SHL PUSH1 0x44 DUP3 ADD MSTORE PUSH1 0x64 ADD PUSH2 0x7B1 JUMP JUMPDEST PUSH1 0x17 SLOAD PUSH2 0x2D1C SWAP1 PUSH1 0x1 PUSH1 0x1 PUSH1 0xA0 SHL SUB AND DUP12 DUP9 PUSH2 0x47B0 JUMP JUMPDEST PUSH1 0x40 MLOAD PUSH4 0x61F40DC3 PUSH1 0xE1 SHL DUP2 MSTORE PUSH1 0x4 DUP2 ADD DUP13 SWAP1 MSTORE CALLER PUSH1 0x24 DUP3 ADD MSTORE PUSH1 0x1 PUSH1 0x1 PUSH1 0xA0 SHL SUB DUP11 AND SWAP1 PUSH4 0xC3E81B86 SWAP1 PUSH1 0x44 ADD PUSH0 PUSH1 0x40 MLOAD DUP1 DUP4 SUB DUP2 PUSH0 DUP8 DUP1 EXTCODESIZE ISZERO DUP1 ISZERO PUSH2 0x2D61 JUMPI PUSH0 PUSH0 REVERT JUMPDEST POP GAS CALL ISZERO DUP1 ISZERO PUSH2 0x2D73 JUMPI RETURNDATASIZE PUSH0 PUSH0 RETURNDATACOPY RETURNDATASIZE PUSH0 REVERT JUMPDEST POP POP POP POP PUSH1 0x40 MLOAD DUP1 PUSH1 0x80 ADD PUSH1 0x40 MSTORE DUP1 DUP6 DUP2 MSTORE PUSH1 0x20 ADD DUP7 DUP2 MSTORE PUSH1 0x20 ADD DUP3 PUSH1 0x1 PUSH1 0x1 PUSH1 0xA0 SHL SUB AND DUP2 MSTORE PUSH1 0x20 ADD DUP12 DUP2 MSTORE POP PUSH1 0x22 PUSH0 DUP14 DUP2 MSTORE PUSH1 0x20 ADD SWAP1 DUP2 MSTORE PUSH1 0x20 ADD PUSH0 KECCAK256 PUSH0 DUP3 ADD MLOAD DUP2 PUSH0 ADD SSTORE PUSH1 0x20 DUP3 ADD MLOAD DUP2 PUSH1 0x1 ADD SSTORE PUSH1 0x40 DUP3 ADD MLOAD DUP2 PUSH1 0x2 ADD PUSH0 PUSH2 0x100 EXP DUP2 SLOAD DUP2 PUSH1 0x1 PUSH1 0x1 PUSH1 0xA0 SHL SUB MUL NOT AND SWAP1 DUP4 PUSH1 0x1 PUSH1 0x1 PUSH1 0xA0 SHL SUB AND MUL OR SWAP1 SSTORE POP PUSH1 0x60 DUP3 ADD MLOAD DUP2 PUSH1 0x3 ADD SSTORE SWAP1 POP POP POP POP POP POP POP POP POP POP POP POP POP JUMP JUMPDEST PUSH1 0x18 SLOAD PUSH1 0x1 PUSH1 0x1 PUSH1 0xA0 SHL SUB AND CALLER EQ PUSH2 0x2E34 JUMPI PUSH1 0x40 MLOAD PUSH3 0x461BCD PUSH1 0xE5 SHL DUP2 MSTORE PUSH1 0x4 ADD PUSH2 0x7B1 SWAP1 PUSH2 0x7580 JUMP JUMPDEST PUSH1 0x11 SLOAD PUSH2 0x100 SWAP1 DIV PUSH1 0xFF AND ISZERO PUSH2 0x2E5C JUMPI PUSH1 0x40 MLOAD PUSH3 0x461BCD PUSH1 0xE5 SHL DUP2 MSTORE PUSH1 0x4 ADD PUSH2 0x7B1 SWAP1 PUSH2 0x76E3 JUMP JUMPDEST PUSH1 0x11 SLOAD PUSH1 0xFF AND ISZERO PUSH2 0x2EA4 JUMPI PUSH1 0x40 MLOAD PUSH3 0x461BCD PUSH1 0xE5 SHL DUP2 MSTORE PUSH1 0x20 PUSH1 0x4 DUP3 ADD MSTORE PUSH1 0x12 PUSH1 0x24 DUP3 ADD MSTORE PUSH18 0x416C72656164792070726F63657373696E67 PUSH1 0x70 SHL PUSH1 0x44 DUP3 ADD MSTORE PUSH1 0x64 ADD PUSH2 0x7B1 JUMP JUMPDEST PUSH1 0x11 DUP1 SLOAD PUSH1 0xFF NOT AND PUSH1 0x1 OR SWAP1 SSTORE PUSH2 0x2EB9 PUSH2 0x5BEE JUMP JUMPDEST PUSH1 0x1E PUSH0 JUMPDEST PUSH1 0xE SLOAD DUP2 LT ISZERO PUSH2 0x2EE8 JUMPI PUSH0 PUSH2 0x2ED2 DUP3 DUP5 PUSH2 0xD4B JUMP JUMPDEST SWAP1 POP DUP1 PUSH0 SUB PUSH2 0x2EE1 JUMPI POP PUSH2 0x2EE8 JUMP JUMPDEST SWAP1 POP PUSH2 0x2EBD JUMP JUMPDEST PUSH1 0x11 DUP1 SLOAD PUSH1 0xFF NOT AND SWAP1 SSTORE PUSH2 0x1CF8 PUSH2 0x5051 JUMP JUMPDEST PUSH2 0x2F02 PUSH2 0x6D69 JUMP JUMPDEST PUSH2 0x2F0A PUSH2 0x6D8E JUMP JUMPDEST CALLER ORIGIN EQ PUSH2 0x2F29 JUMPI PUSH1 0x40 MLOAD PUSH3 0x461BCD PUSH1 0xE5 SHL DUP2 MSTORE PUSH1 0x4 ADD PUSH2 0x7B1 SWAP1 PUSH2 0x761B JUMP JUMPDEST CALLER PUSH0 DUP2 DUP2 MSTORE PUSH1 0x4 PUSH1 0x20 MSTORE PUSH1 0x40 SWAP1 KECCAK256 SLOAD PUSH1 0x1 PUSH1 0x1 PUSH1 0xA0 SHL SUB AND PUSH2 0x2F5D JUMPI PUSH1 0x40 MLOAD PUSH3 0x461BCD PUSH1 0xE5 SHL DUP2 MSTORE PUSH1 0x4 ADD PUSH2 0x7B1 SWAP1 PUSH2 0x7980 JUMP JUMPDEST PUSH1 0x1 PUSH1 0x1 PUSH1 0xA0 SHL SUB DUP1 DUP3 AND PUSH0 SWAP1 DUP2 MSTORE PUSH1 0x4 PUSH1 0x20 SWAP1 DUP2 MSTORE PUSH1 0x40 SWAP2 DUP3 SWAP1 KECCAK256 DUP3 MLOAD PUSH1 0x80 DUP2 ADD DUP5 MSTORE DUP2 SLOAD SWAP1 SWAP5 AND DUP5 MSTORE PUSH1 0x1 DUP2 ADD DUP1 SLOAD DUP5 MLOAD DUP2 DUP6 MUL DUP2 ADD DUP6 ADD SWAP1 SWAP6 MSTORE DUP1 DUP6 MSTORE SWAP2 SWAP4 DUP6 DUP5 ADD SWAP4 SWAP1 SWAP3 SWAP1 DUP4 ADD DUP3 DUP3 DUP1 ISZERO PUSH2 0x2FDD JUMPI PUSH1 0x20 MUL DUP3 ADD SWAP2 SWAP1 PUSH0 MSTORE PUSH1 0x20 PUSH0 KECCAK256 SWAP1 JUMPDEST DUP2 SLOAD PUSH1 0x1 PUSH1 0x1 PUSH1 0xA0 SHL SUB AND DUP2 MSTORE PUSH1 0x1 SWAP1 SWAP2 ADD SWAP1 PUSH1 0x20 ADD DUP1 DUP4 GT PUSH2 0x2FBF JUMPI JUMPDEST POP POP POP SWAP2 DUP4 MSTORE POP POP PUSH1 0x2 DUP3 ADD SLOAD PUSH1 0x20 SWAP1 SWAP2 ADD SWAP1 PUSH1 0xFF AND PUSH1 0x7 DUP2 GT ISZERO PUSH2 0x3004 JUMPI PUSH2 0x3004 PUSH2 0x7147 JUMP JUMPDEST PUSH1 0x7 DUP2 GT ISZERO PUSH2 0x3015 JUMPI PUSH2 0x3015 PUSH2 0x7147 JUMP JUMPDEST DUP2 MSTORE PUSH1 0x20 ADD PUSH1 0x2 DUP3 ADD PUSH1 0x1 SWAP1 SLOAD SWAP1 PUSH2 0x100 EXP SWAP1 DIV PUSH1 0xFF AND PUSH1 0x3 DUP2 GT ISZERO PUSH2 0x303D JUMPI PUSH2 0x303D PUSH2 0x7147 JUMP JUMPDEST PUSH1 0x3 DUP2 GT ISZERO PUSH2 0x304E JUMPI PUSH2 0x304E PUSH2 0x7147 JUMP JUMPDEST DUP2 MSTORE POP POP SWAP3 POP PUSH1 0x5 PUSH0 DUP3 PUSH1 0x1 PUSH1 0x1 PUSH1 0xA0 SHL SUB AND PUSH1 0x1 PUSH1 0x1 PUSH1 0xA0 SHL SUB AND DUP2 MSTORE PUSH1 0x20 ADD SWAP1 DUP2 MSTORE PUSH1 0x20 ADD PUSH0 KECCAK256 PUSH1 0x40 MLOAD DUP1 PUSH1 0xA0 ADD PUSH1 0x40 MSTORE SWAP1 DUP2 PUSH0 DUP3 ADD SLOAD DUP2 MSTORE PUSH1 0x20 ADD PUSH1 0x1 DUP3 ADD SLOAD DUP2 MSTORE PUSH1 0x20 ADD PUSH1 0x2 DUP3 ADD SLOAD DUP2 MSTORE PUSH1 0x20 ADD PUSH1 0x3 DUP3 ADD SLOAD DUP2 MSTORE PUSH1 0x20 ADD PUSH1 0x4 DUP3 ADD SLOAD DUP2 MSTORE POP POP SWAP2 POP POP SWAP1 SWAP2 JUMP JUMPDEST PUSH1 0x1E SLOAD PUSH1 0x1 PUSH1 0x1 PUSH1 0xA0 SHL SUB AND CALLER DUP2 EQ PUSH2 0x3149 JUMPI PUSH1 0x40 MLOAD PUSH3 0x461BCD PUSH1 0xE5 SHL DUP2 MSTORE PUSH1 0x20 PUSH1 0x4 DUP3 ADD MSTORE PUSH1 0x45 PUSH1 0x24 DUP3 ADD MSTORE PUSH32 0x7B2266726F6D223A202254726565436F6D2E736F6C222C22636F6465223A2035 PUSH1 0x44 DUP3 ADD MSTORE PUSH32 0x352C20226D657373616765223A2022596F7520617265206E6F7420616C6C6F77 PUSH1 0x64 DUP3 ADD MSTORE PUSH5 0x65642E227D PUSH1 0xD8 SHL PUSH1 0x84 DUP3 ADD MSTORE PUSH1 0xA4 ADD PUSH2 0x7B1 JUMP JUMPDEST PUSH1 0x11 SLOAD PUSH2 0x100 SWAP1 DIV PUSH1 0xFF AND ISZERO PUSH2 0x3171 JUMPI PUSH1 0x40 MLOAD PUSH3 0x461BCD PUSH1 0xE5 SHL DUP2 MSTORE PUSH1 0x4 ADD PUSH2 0x7B1 SWAP1 PUSH2 0x76E3 JUMP JUMPDEST DUP2 PUSH2 0x318E JUMPI PUSH1 0x40 MLOAD PUSH3 0x461BCD PUSH1 0xE5 SHL DUP2 MSTORE PUSH1 0x4 ADD PUSH2 0x7B1 SWAP1 PUSH2 0x7A71 JUMP JUMPDEST PUSH0 DUP3 DUP2 MSTORE PUSH1 0x22 PUSH1 0x20 MSTORE PUSH1 0x40 SWAP1 KECCAK256 SLOAD DUP1 PUSH2 0x31B9 JUMPI PUSH1 0x40 MLOAD PUSH3 0x461BCD PUSH1 0xE5 SHL DUP2 MSTORE PUSH1 0x4 ADD PUSH2 0x7B1 SWAP1 PUSH2 0x7A9B JUMP JUMPDEST PUSH0 DUP4 DUP2 MSTORE PUSH1 0x22 PUSH1 0x20 MSTORE PUSH1 0x40 SWAP1 KECCAK256 PUSH1 0x3 DUP2 ADD SLOAD PUSH1 0x1 DUP3 ADD SLOAD PUSH1 0x2 SWAP1 SWAP3 ADD SLOAD SWAP1 SWAP2 SWAP1 PUSH1 0x1 PUSH1 0x1 PUSH1 0xA0 SHL SUB AND DUP2 ISZERO PUSH2 0x3346 JUMPI PUSH1 0x2 PUSH1 0x1 PUSH1 0x1 PUSH1 0xA0 SHL SUB DUP3 AND PUSH0 SWAP1 DUP2 MSTORE PUSH1 0x4 PUSH1 0x20 MSTORE PUSH1 0x40 SWAP1 KECCAK256 PUSH1 0x2 ADD SLOAD PUSH2 0x100 SWAP1 DIV PUSH1 0xFF AND PUSH1 0x3 DUP2 GT ISZERO PUSH2 0x321E JUMPI PUSH2 0x321E PUSH2 0x7147 JUMP JUMPDEST EQ PUSH2 0x32B1 JUMPI PUSH1 0x1B SLOAD PUSH1 0x1 PUSH1 0x1 PUSH1 0xA0 SHL SUB AND PUSH4 0xE115DC7F DUP3 DUP6 PUSH1 0x64 PUSH2 0x324A PUSH8 0xDE0B6B3A7640000 DUP9 PUSH2 0x782E JUMP JUMPDEST PUSH2 0x3255 SWAP1 PUSH1 0x50 PUSH2 0x7841 JUMP JUMPDEST PUSH2 0x325F SWAP2 SWAP1 PUSH2 0x782E JUMP JUMPDEST PUSH1 0x1 PUSH1 0x5 PUSH1 0x40 MLOAD DUP7 PUSH4 0xFFFFFFFF AND PUSH1 0xE0 SHL DUP2 MSTORE PUSH1 0x4 ADD PUSH2 0x3283 SWAP6 SWAP5 SWAP4 SWAP3 SWAP2 SWAP1 PUSH2 0x7858 JUMP JUMPDEST PUSH0 PUSH1 0x40 MLOAD DUP1 DUP4 SUB DUP2 PUSH0 DUP8 DUP1 EXTCODESIZE ISZERO DUP1 ISZERO PUSH2 0x329A JUMPI PUSH0 PUSH0 REVERT JUMPDEST POP GAS CALL ISZERO DUP1 ISZERO PUSH2 0x32AC JUMPI RETURNDATASIZE PUSH0 PUSH0 RETURNDATACOPY RETURNDATASIZE PUSH0 REVERT JUMPDEST POP POP POP POP JUMPDEST PUSH1 0x1B SLOAD PUSH1 0x15 SLOAD PUSH1 0x1 PUSH1 0x1 PUSH1 0xA0 SHL SUB SWAP2 DUP3 AND SWAP2 PUSH4 0xE115DC7F SWAP2 AND DUP6 PUSH1 0x64 PUSH2 0x32DF PUSH8 0xDE0B6B3A7640000 DUP9 PUSH2 0x782E JUMP JUMPDEST PUSH2 0x32EA SWAP1 PUSH1 0x14 PUSH2 0x7841 JUMP JUMPDEST PUSH2 0x32F4 SWAP2 SWAP1 PUSH2 0x782E JUMP JUMPDEST PUSH1 0x1 PUSH1 0x5 PUSH1 0x40 MLOAD DUP7 PUSH4 0xFFFFFFFF AND PUSH1 0xE0 SHL DUP2 MSTORE PUSH1 0x4 ADD PUSH2 0x3318 SWAP6 SWAP5 SWAP4 SWAP3 SWAP2 SWAP1 PUSH2 0x7858 JUMP JUMPDEST PUSH0 PUSH1 0x40 MLOAD DUP1 DUP4 SUB DUP2 PUSH0 DUP8 DUP1 EXTCODESIZE ISZERO DUP1 ISZERO PUSH2 0x332F JUMPI PUSH0 PUSH0 REVERT JUMPDEST POP GAS CALL ISZERO DUP1 ISZERO PUSH2 0x3341 JUMPI RETURNDATASIZE PUSH0 PUSH0 RETURNDATACOPY RETURNDATASIZE PUSH0 REVERT JUMPDEST POP POP POP POP JUMPDEST PUSH2 0x3351 DUP2 DUP6 DUP6 PUSH2 0x49D6 JUMP JUMPDEST PUSH0 DUP7 DUP2 MSTORE PUSH1 0x22 PUSH1 0x20 MSTORE PUSH1 0x40 DUP1 DUP3 KECCAK256 DUP3 DUP2 SSTORE PUSH1 0x1 DUP1 DUP3 ADD DUP5 SWAP1 SSTORE PUSH1 0x2 DUP1 DUP4 ADD DUP1 SLOAD PUSH1 0x1 PUSH1 0x1 PUSH1 0xA0 SHL SUB NOT AND SWAP1 SSTORE PUSH1 0x3 SWAP1 SWAP3 ADD SWAP4 SWAP1 SWAP4 SSTORE PUSH1 0x1B SLOAD PUSH1 0x14 SLOAD SWAP3 MLOAD PUSH4 0xE115DC7F PUSH1 0xE0 SHL DUP2 MSTORE PUSH1 0x1 PUSH1 0x1 PUSH1 0xA0 SHL SUB SWAP2 DUP3 AND SWAP5 PUSH4 0xE115DC7F SWAP5 PUSH2 0x33BF SWAP5 SWAP4 AND SWAP3 DUP10 SWAP3 DUP12 SWAP3 SWAP2 SWAP1 PUSH1 0x4 ADD PUSH2 0x7858 JUMP JUMPDEST PUSH0 PUSH1 0x40 MLOAD DUP1 DUP4 SUB DUP2 PUSH0 DUP8 DUP1 EXTCODESIZE ISZERO DUP1 ISZERO PUSH2 0x33D6 JUMPI PUSH0 PUSH0 REVERT JUMPDEST POP GAS CALL ISZERO DUP1 ISZERO PUSH2 0x33E8 JUMPI RETURNDATASIZE PUSH0 PUSH0 RETURNDATACOPY RETURNDATASIZE PUSH0 REVERT JUMPDEST POP POP POP POP POP POP POP POP POP POP JUMP JUMPDEST CALLER ORIGIN EQ PUSH2 0x3413 JUMPI PUSH1 0x40 MLOAD PUSH3 0x461BCD PUSH1 0xE5 SHL DUP2 MSTORE PUSH1 0x4 ADD PUSH2 0x7B1 SWAP1 PUSH2 0x761B JUMP JUMPDEST PUSH1 0x11 SLOAD PUSH2 0x100 SWAP1 DIV PUSH1 0xFF AND ISZERO PUSH2 0x343B JUMPI PUSH1 0x40 MLOAD PUSH3 0x461BCD PUSH1 0xE5 SHL DUP2 MSTORE PUSH1 0x4 ADD PUSH2 0x7B1 SWAP1 PUSH2 0x76E3 JUMP JUMPDEST PUSH1 0x1 PUSH1 0x1 PUSH1 0xA0 SHL SUB DUP5 DUP2 AND PUSH0 SWAP1 DUP2 MSTORE PUSH1 0x12 PUSH1 0x20 MSTORE PUSH1 0x40 SWAP1 KECCAK256 SLOAD AND PUSH2 0x3494 JUMPI PUSH1 0x40 MLOAD PUSH3 0x461BCD PUSH1 0xE5 SHL DUP2 MSTORE PUSH1 0x20 PUSH1 0x4 DUP3 ADD MSTORE PUSH1 0x10 PUSH1 0x24 DUP3 ADD MSTORE PUSH16 0x55736572206E6F742070656E64696E67 PUSH1 0x80 SHL PUSH1 0x44 DUP3 ADD MSTORE PUSH1 0x64 ADD PUSH2 0x7B1 JUMP JUMPDEST PUSH1 0x1 PUSH1 0x1 PUSH1 0xA0 SHL SUB DUP5 AND PUSH0 SWAP1 DUP2 MSTORE PUSH1 0x12 PUSH1 0x20 MSTORE PUSH1 0x40 SWAP1 KECCAK256 PUSH1 0x1 ADD SLOAD TIMESTAMP GT ISZERO PUSH2 0x34F3 JUMPI PUSH1 0x40 MLOAD PUSH3 0x461BCD PUSH1 0xE5 SHL DUP2 MSTORE PUSH1 0x20 PUSH1 0x4 DUP3 ADD MSTORE PUSH1 0x12 PUSH1 0x24 DUP3 ADD MSTORE PUSH18 0x13595B58995C9CDA1A5C08195E1C1A5C9959 PUSH1 0x72 SHL PUSH1 0x44 DUP3 ADD MSTORE PUSH1 0x64 ADD PUSH2 0x7B1 JUMP JUMPDEST PUSH1 0x1 PUSH1 0x1 PUSH1 0xA0 SHL SUB DUP1 DUP6 AND PUSH0 SWAP1 DUP2 MSTORE PUSH1 0x12 PUSH1 0x20 SWAP1 DUP2 MSTORE PUSH1 0x40 DUP1 DUP4 KECCAK256 SLOAD DUP5 AND DUP1 DUP5 MSTORE PUSH1 0x4 SWAP1 SWAP3 MSTORE SWAP1 SWAP2 KECCAK256 SLOAD SWAP1 SWAP2 AND ISZERO ISZERO DUP1 PUSH2 0x353A JUMPI POP PUSH1 0x14 SLOAD PUSH1 0x1 PUSH1 0x1 PUSH1 0xA0 SHL SUB DUP3 DUP2 AND SWAP2 AND EQ JUMPDEST PUSH2 0x3556 JUMPI PUSH1 0x40 MLOAD PUSH3 0x461BCD PUSH1 0xE5 SHL DUP2 MSTORE PUSH1 0x4 ADD PUSH2 0x7B1 SWAP1 PUSH2 0x776C JUMP JUMPDEST PUSH1 0x17 SLOAD PUSH2 0x3576 SWAP1 PUSH1 0x1 PUSH1 0x1 PUSH1 0xA0 SHL SUB AND DUP4 PUSH9 0x22B1C8C1227A00000 PUSH2 0x47B0 JUMP JUMPDEST PUSH1 0x1 PUSH1 0x1 PUSH1 0xA0 SHL SUB DUP6 AND PUSH0 SWAP1 DUP2 MSTORE PUSH1 0x12 PUSH1 0x20 MSTORE PUSH1 0x40 DUP2 KECCAK256 DUP1 SLOAD PUSH1 0x1 PUSH1 0x1 PUSH1 0xA0 SHL SUB NOT AND DUP2 SSTORE PUSH1 0x1 ADD DUP2 SWAP1 SSTORE JUMPDEST PUSH1 0x1 PUSH1 0x1 PUSH1 0xA0 SHL SUB DUP3 AND PUSH0 SWAP1 DUP2 MSTORE PUSH1 0x13 PUSH1 0x20 MSTORE PUSH1 0x40 SWAP1 KECCAK256 SLOAD DUP2 LT ISZERO PUSH2 0x36EA JUMPI PUSH1 0x1 PUSH1 0x1 PUSH1 0xA0 SHL SUB DUP3 DUP2 AND PUSH0 SWAP1 DUP2 MSTORE PUSH1 0x13 PUSH1 0x20 MSTORE PUSH1 0x40 SWAP1 KECCAK256 DUP1 SLOAD SWAP2 DUP9 AND SWAP2 DUP4 SWAP1 DUP2 LT PUSH2 0x35EF JUMPI PUSH2 0x35EF PUSH2 0x768A JUMP JUMPDEST PUSH0 SWAP2 DUP3 MSTORE PUSH1 0x20 SWAP1 SWAP2 KECCAK256 ADD SLOAD PUSH1 0x1 PUSH1 0x1 PUSH1 0xA0 SHL SUB AND SUB PUSH2 0x36E2 JUMPI PUSH1 0x1 PUSH1 0x1 PUSH1 0xA0 SHL SUB DUP3 AND PUSH0 SWAP1 DUP2 MSTORE PUSH1 0x13 PUSH1 0x20 MSTORE PUSH1 0x40 SWAP1 KECCAK256 DUP1 SLOAD PUSH2 0x362D SWAP1 PUSH1 0x1 SWAP1 PUSH2 0x7677 JUMP JUMPDEST DUP2 SLOAD DUP2 LT PUSH2 0x363D JUMPI PUSH2 0x363D PUSH2 0x768A JUMP JUMPDEST PUSH0 SWAP2 DUP3 MSTORE PUSH1 0x20 DUP1 DUP4 KECCAK256 SWAP1 SWAP2 ADD SLOAD PUSH1 0x1 PUSH1 0x1 PUSH1 0xA0 SHL SUB DUP6 DUP2 AND DUP5 MSTORE PUSH1 0x13 SWAP1 SWAP3 MSTORE PUSH1 0x40 SWAP1 SWAP3 KECCAK256 DUP1 SLOAD SWAP2 SWAP1 SWAP3 AND SWAP2 SWAP1 DUP4 SWAP1 DUP2 LT PUSH2 0x3679 JUMPI PUSH2 0x3679 PUSH2 0x768A JUMP JUMPDEST PUSH0 SWAP2 DUP3 MSTORE PUSH1 0x20 DUP1 DUP4 KECCAK256 SWAP2 SWAP1 SWAP2 ADD DUP1 SLOAD PUSH1 0x1 PUSH1 0x1 PUSH1 0xA0 SHL SUB NOT AND PUSH1 0x1 PUSH1 0x1 PUSH1 0xA0 SHL SUB SWAP5 DUP6 AND OR SWAP1 SSTORE SWAP2 DUP5 AND DUP2 MSTORE PUSH1 0x13 SWAP1 SWAP2 MSTORE PUSH1 0x40 SWAP1 KECCAK256 DUP1 SLOAD DUP1 PUSH2 0x36BD JUMPI PUSH2 0x36BD PUSH2 0x7D83 JUMP JUMPDEST PUSH0 DUP3 DUP2 MSTORE PUSH1 0x20 SWAP1 KECCAK256 DUP2 ADD PUSH0 NOT SWAP1 DUP2 ADD DUP1 SLOAD PUSH1 0x1 PUSH1 0x1 PUSH1 0xA0 SHL SUB NOT AND SWAP1 SSTORE ADD SWAP1 SSTORE PUSH2 0x36EA JUMP JUMPDEST PUSH1 0x1 ADD PUSH2 0x35A2 JUMP JUMPDEST POP PUSH1 0x11 SLOAD PUSH1 0xFF AND ISZERO PUSH2 0x37C4 JUMPI PUSH1 0x40 DUP1 MLOAD PUSH1 0xA0 DUP2 ADD DUP3 MSTORE PUSH1 0x1 PUSH1 0x1 PUSH1 0xA0 SHL SUB DUP1 DUP9 AND DUP3 MSTORE SWAP3 DUP4 AND PUSH1 0x20 DUP3 ADD SWAP1 DUP2 MSTORE SWAP2 DUP2 ADD DUP7 DUP2 MSTORE PUSH1 0x60 DUP3 ADD DUP7 DUP2 MSTORE PUSH1 0x80 DUP4 ADD DUP7 DUP2 MSTORE PUSH1 0xF DUP1 SLOAD PUSH1 0x1 DUP2 ADD DUP3 SSTORE PUSH0 SWAP2 SWAP1 SWAP2 MSTORE SWAP4 MLOAD PUSH1 0x5 SWAP1 SWAP5 MUL PUSH0 MLOAD PUSH1 0x20 PUSH2 0x80BF PUSH0 CODECOPY PUSH0 MLOAD SWAP1 PUSH0 MSTORE DUP2 ADD DUP1 SLOAD SWAP6 DUP9 AND PUSH1 0x1 PUSH1 0x1 PUSH1 0xA0 SHL SUB NOT SWAP7 DUP8 AND OR SWAP1 SSTORE SWAP5 MLOAD PUSH0 MLOAD PUSH1 0x20 PUSH2 0x807D PUSH0 CODECOPY PUSH0 MLOAD SWAP1 PUSH0 MSTORE DUP7 ADD DUP1 SLOAD SWAP2 SWAP1 SWAP8 AND SWAP5 AND SWAP4 SWAP1 SWAP4 OR SWAP1 SWAP5 SSTORE MLOAD PUSH0 MLOAD PUSH1 0x20 PUSH2 0x805D PUSH0 CODECOPY PUSH0 MLOAD SWAP1 PUSH0 MSTORE DUP4 ADD SSTORE SWAP2 MLOAD PUSH0 MLOAD PUSH1 0x20 PUSH2 0x803D PUSH0 CODECOPY PUSH0 MLOAD SWAP1 PUSH0 MSTORE DUP3 ADD SSTORE SWAP1 MLOAD PUSH0 MLOAD PUSH1 0x20 PUSH2 0x801D PUSH0 CODECOPY PUSH0 MLOAD SWAP1 PUSH0 MSTORE SWAP1 SWAP2 ADD SSTORE PUSH2 0x37D9 JUMP JUMPDEST PUSH2 0x37CC PUSH2 0x5051 JUMP JUMPDEST PUSH2 0x1A38 DUP6 DUP3 DUP7 DUP7 DUP7 PUSH2 0x51F2 JUMP JUMPDEST POP POP POP POP JUMP JUMPDEST DUP1 MLOAD ISZERO PUSH2 0x3858 JUMPI PUSH1 0x1B SLOAD PUSH1 0x40 MLOAD PUSH4 0x68BD52E5 PUSH1 0xE1 SHL DUP2 MSTORE PUSH1 0x1 PUSH1 0x1 PUSH1 0xA0 SHL SUB SWAP1 SWAP2 AND SWAP1 PUSH4 0xD17AA5CA SWAP1 PUSH2 0x3818 SWAP1 DUP6 SWAP1 DUP6 SWAP1 PUSH1 0x4 ADD PUSH2 0x7D97 JUMP JUMPDEST PUSH1 0x20 PUSH1 0x40 MLOAD DUP1 DUP4 SUB DUP2 PUSH0 DUP8 GAS CALL ISZERO DUP1 ISZERO PUSH2 0x3834 JUMPI RETURNDATASIZE PUSH0 PUSH0 RETURNDATACOPY RETURNDATASIZE PUSH0 REVERT JUMPDEST POP POP POP POP PUSH1 0x40 MLOAD RETURNDATASIZE PUSH1 0x1F NOT PUSH1 0x1F DUP3 ADD AND DUP3 ADD DUP1 PUSH1 0x40 MSTORE POP DUP2 ADD SWAP1 PUSH2 0x37D9 SWAP2 SWAP1 PUSH2 0x79DD JUMP JUMPDEST CALLER PUSH1 0x1 PUSH1 0x1 PUSH1 0xA0 SHL SUB DUP4 AND SUB PUSH2 0x3AAD JUMPI PUSH1 0x1B SLOAD PUSH1 0x40 MLOAD PUSH4 0xF8B2CB4F PUSH1 0xE0 SHL DUP2 MSTORE PUSH0 SWAP2 PUSH1 0x1 PUSH1 0x1 PUSH1 0xA0 SHL SUB AND SWAP1 PUSH4 0xF8B2CB4F SWAP1 PUSH2 0x3898 SWAP1 DUP7 SWAP1 PUSH1 0x4 ADD PUSH2 0x734E JUMP JUMPDEST PUSH1 0x20 PUSH1 0x40 MLOAD DUP1 DUP4 SUB DUP2 DUP7 GAS STATICCALL ISZERO DUP1 ISZERO PUSH2 0x38B3 JUMPI RETURNDATASIZE PUSH0 PUSH0 RETURNDATACOPY RETURNDATASIZE PUSH0 REVERT JUMPDEST POP POP POP POP PUSH1 0x40 MLOAD RETURNDATASIZE PUSH1 0x1F NOT PUSH1 0x1F DUP3 ADD AND DUP3 ADD DUP1 PUSH1 0x40 MSTORE POP DUP2 ADD SWAP1 PUSH2 0x38D7 SWAP2 SWAP1 PUSH2 0x79AD JUMP JUMPDEST SWAP1 POP DUP4 DUP2 LT ISZERO PUSH2 0x38F9 JUMPI PUSH1 0x40 MLOAD PUSH3 0x461BCD PUSH1 0xE5 SHL DUP2 MSTORE PUSH1 0x4 ADD PUSH2 0x7B1 SWAP1 PUSH2 0x7DEC JUMP JUMPDEST PUSH1 0x1B SLOAD PUSH1 0x40 MLOAD PUSH4 0xC84D239B PUSH1 0xE0 SHL DUP2 MSTORE PUSH1 0x1 PUSH1 0x1 PUSH1 0xA0 SHL SUB SWAP1 SWAP2 AND SWAP1 PUSH4 0xC84D239B SWAP1 PUSH2 0x392B SWAP1 DUP7 SWAP1 DUP9 SWAP1 PUSH1 0x4 ADD PUSH2 0x79C4 JUMP JUMPDEST PUSH1 0x20 PUSH1 0x40 MLOAD DUP1 DUP4 SUB DUP2 PUSH0 DUP8 GAS CALL ISZERO DUP1 ISZERO PUSH2 0x3947 JUMPI RETURNDATASIZE PUSH0 PUSH0 RETURNDATACOPY RETURNDATASIZE PUSH0 REVERT JUMPDEST POP POP POP POP PUSH1 0x40 MLOAD RETURNDATASIZE PUSH1 0x1F NOT PUSH1 0x1F DUP3 ADD AND DUP3 ADD DUP1 PUSH1 0x40 MSTORE POP DUP2 ADD SWAP1 PUSH2 0x396B SWAP2 SWAP1 PUSH2 0x79DD JUMP JUMPDEST PUSH2 0x3987 JUMPI PUSH1 0x40 MLOAD PUSH3 0x461BCD PUSH1 0xE5 SHL DUP2 MSTORE PUSH1 0x4 ADD PUSH2 0x7B1 SWAP1 PUSH2 0x7E1A JUMP JUMPDEST PUSH1 0x1 PUSH1 0x1 PUSH1 0xA0 SHL SUB DUP4 AND PUSH0 SWAP1 DUP2 MSTORE PUSH1 0x4 PUSH1 0x20 MSTORE PUSH1 0x40 SWAP1 KECCAK256 PUSH1 0x2 SWAP1 DUP2 ADD SLOAD PUSH2 0x100 SWAP1 DIV PUSH1 0xFF AND SWAP1 DUP2 PUSH1 0x3 DUP2 GT ISZERO PUSH2 0x39BF JUMPI PUSH2 0x39BF PUSH2 0x7147 JUMP JUMPDEST EQ ISZERO DUP1 ISZERO PUSH2 0x39DF JUMPI POP PUSH1 0x3 DUP2 PUSH1 0x3 DUP2 GT ISZERO PUSH2 0x39DC JUMPI PUSH2 0x39DC PUSH2 0x7147 JUMP JUMPDEST EQ ISZERO JUMPDEST PUSH2 0x39FB JUMPI PUSH1 0x40 MLOAD PUSH3 0x461BCD PUSH1 0xE5 SHL DUP2 MSTORE PUSH1 0x4 ADD PUSH2 0x7B1 SWAP1 PUSH2 0x7E5B JUMP JUMPDEST PUSH1 0x17 SLOAD PUSH1 0x40 MLOAD PUSH4 0x70A08231 PUSH1 0xE0 SHL DUP2 MSTORE PUSH1 0x1 PUSH1 0x1 PUSH1 0xA0 SHL SUB SWAP1 SWAP2 AND SWAP1 PUSH4 0x70A08231 SWAP1 PUSH2 0x3A2B SWAP1 ADDRESS SWAP1 PUSH1 0x4 ADD PUSH2 0x734E JUMP JUMPDEST PUSH1 0x20 PUSH1 0x40 MLOAD DUP1 DUP4 SUB DUP2 DUP7 GAS STATICCALL ISZERO DUP1 ISZERO PUSH2 0x3A46 JUMPI RETURNDATASIZE PUSH0 PUSH0 RETURNDATACOPY RETURNDATASIZE PUSH0 REVERT JUMPDEST POP POP POP POP PUSH1 0x40 MLOAD RETURNDATASIZE PUSH1 0x1F NOT PUSH1 0x1F DUP3 ADD AND DUP3 ADD DUP1 PUSH1 0x40 MSTORE POP DUP2 ADD SWAP1 PUSH2 0x3A6A SWAP2 SWAP1 PUSH2 0x79AD JUMP JUMPDEST PUSH2 0x3E8 PUSH2 0x3A7F DUP8 PUSH8 0xDE0B6B3A7640000 PUSH2 0x7841 JUMP JUMPDEST PUSH2 0x3A89 SWAP2 SWAP1 PUSH2 0x782E JUMP JUMPDEST LT PUSH2 0x3AA6 JUMPI PUSH1 0x40 MLOAD PUSH3 0x461BCD PUSH1 0xE5 SHL DUP2 MSTORE PUSH1 0x4 ADD PUSH2 0x7B1 SWAP1 PUSH2 0x7E80 JUMP JUMPDEST POP POP PUSH2 0x3CE5 JUMP JUMPDEST PUSH1 0x1B SLOAD PUSH1 0x40 MLOAD PUSH4 0xF8B2CB4F PUSH1 0xE0 SHL DUP2 MSTORE PUSH0 SWAP2 PUSH1 0x1 PUSH1 0x1 PUSH1 0xA0 SHL SUB AND SWAP1 PUSH4 0xF8B2CB4F SWAP1 PUSH2 0x3ADD SWAP1 CALLER SWAP1 PUSH1 0x4 ADD PUSH2 0x734E JUMP JUMPDEST PUSH1 0x20 PUSH1 0x40 MLOAD DUP1 DUP4 SUB DUP2 DUP7 GAS STATICCALL ISZERO DUP1 ISZERO PUSH2 0x3AF8 JUMPI RETURNDATASIZE PUSH0 PUSH0 RETURNDATACOPY RETURNDATASIZE PUSH0 REVERT JUMPDEST POP POP POP POP PUSH1 0x40 MLOAD RETURNDATASIZE PUSH1 0x1F NOT PUSH1 0x1F DUP3 ADD AND DUP3 ADD DUP1 PUSH1 0x40 MSTORE POP DUP2 ADD SWAP1 PUSH2 0x3B1C SWAP2 SWAP1 PUSH2 0x79AD JUMP JUMPDEST SWAP1 POP DUP4 DUP2 LT ISZERO PUSH2 0x3B3E JUMPI PUSH1 0x40 MLOAD PUSH3 0x461BCD PUSH1 0xE5 SHL DUP2 MSTORE PUSH1 0x4 ADD PUSH2 0x7B1 SWAP1 PUSH2 0x7DEC JUMP JUMPDEST PUSH1 0x1B SLOAD PUSH1 0x40 MLOAD PUSH4 0xC84D239B PUSH1 0xE0 SHL DUP2 MSTORE PUSH1 0x1 PUSH1 0x1 PUSH1 0xA0 SHL SUB SWAP1 SWAP2 AND SWAP1 PUSH4 0xC84D239B SWAP1 PUSH2 0x3B70 SWAP1 CALLER SWAP1 DUP9 SWAP1 PUSH1 0x4 ADD PUSH2 0x79C4 JUMP JUMPDEST PUSH1 0x20 PUSH1 0x40 MLOAD DUP1 DUP4 SUB DUP2 PUSH0 DUP8 GAS CALL ISZERO DUP1 ISZERO PUSH2 0x3B8C JUMPI RETURNDATASIZE PUSH0 PUSH0 RETURNDATACOPY RETURNDATASIZE PUSH0 REVERT JUMPDEST POP POP POP POP PUSH1 0x40 MLOAD RETURNDATASIZE PUSH1 0x1F NOT PUSH1 0x1F DUP3 ADD AND DUP3 ADD DUP1 PUSH1 0x40 MSTORE POP DUP2 ADD SWAP1 PUSH2 0x3BB0 SWAP2 SWAP1 PUSH2 0x79DD JUMP JUMPDEST PUSH2 0x3BCC JUMPI PUSH1 0x40 MLOAD PUSH3 0x461BCD PUSH1 0xE5 SHL DUP2 MSTORE PUSH1 0x4 ADD PUSH2 0x7B1 SWAP1 PUSH2 0x7E1A JUMP JUMPDEST CALLER PUSH0 SWAP1 DUP2 MSTORE PUSH1 0x4 PUSH1 0x20 MSTORE PUSH1 0x40 SWAP1 KECCAK256 PUSH1 0x2 SWAP1 DUP2 ADD SLOAD PUSH2 0x100 SWAP1 DIV PUSH1 0xFF AND SWAP1 DUP2 PUSH1 0x3 DUP2 GT ISZERO PUSH2 0x3BFB JUMPI PUSH2 0x3BFB PUSH2 0x7147 JUMP JUMPDEST EQ ISZERO DUP1 ISZERO PUSH2 0x3C1B JUMPI POP PUSH1 0x3 DUP2 PUSH1 0x3 DUP2 GT ISZERO PUSH2 0x3C18 JUMPI PUSH2 0x3C18 PUSH2 0x7147 JUMP JUMPDEST EQ ISZERO JUMPDEST PUSH2 0x3C37 JUMPI PUSH1 0x40 MLOAD PUSH3 0x461BCD PUSH1 0xE5 SHL DUP2 MSTORE PUSH1 0x4 ADD PUSH2 0x7B1 SWAP1 PUSH2 0x7E5B JUMP JUMPDEST PUSH1 0x17 SLOAD PUSH1 0x40 MLOAD PUSH4 0x70A08231 PUSH1 0xE0 SHL DUP2 MSTORE PUSH1 0x1 PUSH1 0x1 PUSH1 0xA0 SHL SUB SWAP1 SWAP2 AND SWAP1 PUSH4 0x70A08231 SWAP1 PUSH2 0x3C67 SWAP1 ADDRESS SWAP1 PUSH1 0x4 ADD PUSH2 0x734E JUMP JUMPDEST PUSH1 0x20 PUSH1 0x40 MLOAD DUP1 DUP4 SUB DUP2 DUP7 GAS STATICCALL ISZERO DUP1 ISZERO PUSH2 0x3C82 JUMPI RETURNDATASIZE PUSH0 PUSH0 RETURNDATACOPY RETURNDATASIZE PUSH0 REVERT JUMPDEST POP POP POP POP PUSH1 0x40 MLOAD RETURNDATASIZE PUSH1 0x1F NOT PUSH1 0x1F DUP3 ADD AND DUP3 ADD DUP1 PUSH1 0x40 MSTORE POP DUP2 ADD SWAP1 PUSH2 0x3CA6 SWAP2 SWAP1 PUSH2 0x79AD JUMP JUMPDEST PUSH2 0x3E8 PUSH2 0x3CBB DUP8 PUSH8 0xDE0B6B3A7640000 PUSH2 0x7841 JUMP JUMPDEST PUSH2 0x3CC5 SWAP2 SWAP1 PUSH2 0x782E JUMP JUMPDEST LT PUSH2 0x3CE2 JUMPI PUSH1 0x40 MLOAD PUSH3 0x461BCD PUSH1 0xE5 SHL DUP2 MSTORE PUSH1 0x4 ADD PUSH2 0x7B1 SWAP1 PUSH2 0x7E80 JUMP JUMPDEST POP POP JUMPDEST PUSH1 0x17 SLOAD PUSH1 0x1 PUSH1 0x1 PUSH1 0xA0 SHL SUB AND PUSH4 0xA9059CBB DUP4 PUSH2 0x3E8 PUSH2 0x3D0C DUP8 PUSH8 0xDE0B6B3A7640000 PUSH2 0x7841 JUMP JUMPDEST PUSH2 0x3D16 SWAP2 SWAP1 PUSH2 0x782E JUMP JUMPDEST PUSH1 0x40 MLOAD DUP4 PUSH4 0xFFFFFFFF AND PUSH1 0xE0 SHL DUP2 MSTORE PUSH1 0x4 ADD PUSH2 0x3D33 SWAP3 SWAP2 SWAP1 PUSH2 0x79C4 JUMP JUMPDEST PUSH1 0x20 PUSH1 0x40 MLOAD DUP1 DUP4 SUB DUP2 PUSH0 DUP8 GAS CALL ISZERO DUP1 ISZERO PUSH2 0x3D4F JUMPI RETURNDATASIZE PUSH0 PUSH0 RETURNDATACOPY RETURNDATASIZE PUSH0 REVERT JUMPDEST POP POP POP POP PUSH1 0x40 MLOAD RETURNDATASIZE PUSH1 0x1F NOT PUSH1 0x1F DUP3 ADD AND DUP3 ADD DUP1 PUSH1 0x40 MSTORE POP DUP2 ADD SWAP1 PUSH2 0x3D73 SWAP2 SWAP1 PUSH2 0x79DD JUMP JUMPDEST PUSH2 0x90D JUMPI PUSH1 0x40 MLOAD PUSH3 0x461BCD PUSH1 0xE5 SHL DUP2 MSTORE PUSH1 0x20 PUSH1 0x4 DUP3 ADD MSTORE PUSH1 0xF PUSH1 0x24 DUP3 ADD MSTORE PUSH15 0x151C985B9CD9995C8819985A5B1959 PUSH1 0x8A SHL PUSH1 0x44 DUP3 ADD MSTORE PUSH1 0x64 ADD PUSH2 0x7B1 JUMP JUMPDEST PUSH0 PUSH1 0x1 PUSH1 0x1 PUSH1 0xA0 SHL SUB DUP6 AND CALLER EQ DUP1 PUSH2 0x3E07 JUMPI POP DUP3 PUSH0 CALLER DUP8 PUSH1 0x40 MLOAD PUSH1 0x20 ADD PUSH2 0x3DD9 SWAP3 SWAP2 SWAP1 PUSH2 0x7EB4 JUMP JUMPDEST PUSH1 0x40 DUP1 MLOAD PUSH1 0x1F NOT DUP2 DUP5 SUB ADD DUP2 MSTORE SWAP2 DUP2 MSTORE DUP2 MLOAD PUSH1 0x20 SWAP3 DUP4 ADD KECCAK256 DUP4 MSTORE SWAP1 DUP3 ADD SWAP3 SWAP1 SWAP3 MSTORE ADD PUSH0 KECCAK256 SLOAD PUSH1 0xFF AND ISZERO ISZERO PUSH1 0x1 EQ JUMPDEST PUSH2 0x3E43 JUMPI PUSH1 0x40 MLOAD PUSH3 0x461BCD PUSH1 0xE5 SHL DUP2 MSTORE PUSH1 0x20 PUSH1 0x4 DUP3 ADD MSTORE PUSH1 0xD PUSH1 0x24 DUP3 ADD MSTORE PUSH13 0x139BDD081C195C9B5A5D1D1959 PUSH1 0x9A SHL PUSH1 0x44 DUP3 ADD MSTORE PUSH1 0x64 ADD PUSH2 0x7B1 JUMP JUMPDEST PUSH0 DUP7 JUMPDEST PUSH1 0x1 PUSH1 0x1 PUSH1 0xA0 SHL SUB DUP2 AND ISZERO PUSH2 0x3F1F JUMPI DUP2 PUSH2 0x3E5F DUP2 PUSH2 0x7D3F JUMP JUMPDEST SWAP3 POP POP DUP6 PUSH1 0xFF AND DUP3 PUSH1 0xFF AND SUB ISZERO PUSH2 0x3F1F JUMPI DUP7 PUSH1 0x1 PUSH1 0x1 PUSH1 0xA0 SHL SUB AND DUP2 PUSH1 0x1 PUSH1 0x1 PUSH1 0xA0 SHL SUB AND SUB PUSH2 0x3E94 JUMPI PUSH1 0x1 SWAP3 POP POP POP PUSH2 0x3F25 JUMP JUMPDEST PUSH1 0x1 PUSH1 0x1 PUSH1 0xA0 SHL SUB SWAP1 DUP2 AND PUSH0 SWAP1 DUP2 MSTORE PUSH1 0x20 DUP11 SWAP1 MSTORE PUSH1 0x40 SWAP1 KECCAK256 SLOAD AND PUSH2 0x3EB9 PUSH1 0xA DUP4 PUSH2 0x7ED6 JUMP JUMPDEST PUSH1 0xFF AND PUSH0 SUB PUSH2 0x3F1A JUMPI PUSH0 CALLER DUP3 PUSH1 0x40 MLOAD PUSH1 0x20 ADD PUSH2 0x3ED6 SWAP3 SWAP2 SWAP1 PUSH2 0x7EB4 JUMP JUMPDEST PUSH1 0x40 DUP1 MLOAD PUSH1 0x1F NOT DUP2 DUP5 SUB ADD DUP2 MSTORE SWAP2 DUP2 MSTORE DUP2 MLOAD PUSH1 0x20 SWAP3 DUP4 ADD KECCAK256 PUSH0 DUP2 DUP2 MSTORE DUP10 DUP5 MSTORE SWAP2 DUP3 KECCAK256 DUP1 SLOAD PUSH1 0xFF NOT AND PUSH1 0x1 SWAP1 DUP2 OR SWAP1 SWAP2 SSTORE DUP9 SLOAD SWAP1 DUP2 ADD DUP10 SSTORE DUP9 DUP4 MSTORE SWAP3 SWAP1 SWAP2 KECCAK256 SWAP1 SWAP2 ADD SSTORE POP JUMPDEST PUSH2 0x3E46 JUMP JUMPDEST PUSH0 SWAP3 POP POP POP JUMPDEST SWAP7 SWAP6 POP POP POP POP POP POP JUMP JUMPDEST PUSH0 PUSH2 0x3F64 PUSH1 0x40 MLOAD DUP1 PUSH1 0x40 ADD PUSH1 0x40 MSTORE DUP1 PUSH1 0x12 DUP2 MSTORE PUSH1 0x20 ADD PUSH18 0x3AB83230BA329030B1BA34BB32903230BC9D PUSH1 0x71 SHL DUP2 MSTORE POP DUP4 PUSH2 0x5BA9 JUMP JUMPDEST PUSH2 0x3F9D PUSH1 0x40 MLOAD DUP1 PUSH1 0x60 ADD PUSH1 0x40 MSTORE DUP1 PUSH1 0x22 DUP2 MSTORE PUSH1 0x20 ADD PUSH2 0x809D PUSH1 0x22 SWAP2 CODECOPY PUSH1 0x1 PUSH1 0x1 PUSH1 0xA0 SHL SUB DUP5 AND PUSH0 SWAP1 DUP2 MSTORE PUSH1 0x20 DUP8 SWAP1 MSTORE PUSH1 0x40 SWAP1 KECCAK256 SLOAD PUSH2 0x5D07 JUMP JUMPDEST PUSH1 0x1 PUSH1 0x1 PUSH1 0xA0 SHL SUB DUP3 AND PUSH0 SWAP1 DUP2 MSTORE PUSH1 0x20 DUP9 SWAP1 MSTORE PUSH1 0x40 SWAP1 KECCAK256 PUSH1 0x2 SWAP1 DUP2 ADD SLOAD PUSH2 0x100 SWAP1 DIV PUSH1 0xFF AND SWAP1 DUP2 PUSH1 0x3 DUP2 GT ISZERO PUSH2 0x3FD5 JUMPI PUSH2 0x3FD5 PUSH2 0x7147 JUMP JUMPDEST EQ DUP1 PUSH2 0x3FF2 JUMPI POP PUSH1 0x3 DUP2 PUSH1 0x3 DUP2 GT ISZERO PUSH2 0x3FF0 JUMPI PUSH2 0x3FF0 PUSH2 0x7147 JUMP JUMPDEST EQ JUMPDEST ISZERO PUSH2 0x4000 JUMPI PUSH0 SWAP2 POP POP PUSH2 0x3F25 JUMP JUMPDEST PUSH2 0x4032 PUSH1 0x40 MLOAD DUP1 PUSH1 0x40 ADD PUSH1 0x40 MSTORE DUP1 PUSH1 0x10 DUP2 MSTORE PUSH1 0x20 ADD PUSH16 0x313637B1B5973A34B6B2B9BA30B6B81D PUSH1 0x81 SHL DUP2 MSTORE POP TIMESTAMP PUSH2 0x5D07 JUMP JUMPDEST PUSH1 0x40 DUP1 MLOAD DUP1 DUP3 ADD DUP3 MSTORE PUSH1 0x20 DUP1 DUP3 MSTORE PUSH32 0x6E6F6465446174615B757365725D2E6D656D626572736869704578706972793A DUP2 DUP4 ADD MSTORE PUSH1 0x1 PUSH1 0x1 PUSH1 0xA0 SHL SUB DUP7 AND PUSH0 SWAP1 DUP2 MSTORE SWAP1 DUP11 SWAP1 MSTORE SWAP2 SWAP1 SWAP2 KECCAK256 SLOAD PUSH2 0x4086 SWAP2 SWAP1 PUSH2 0x5D07 JUMP JUMPDEST PUSH1 0x1 PUSH1 0x1 PUSH1 0xA0 SHL SUB DUP4 AND PUSH0 SWAP1 DUP2 MSTORE PUSH1 0x20 DUP9 SWAP1 MSTORE PUSH1 0x40 SWAP1 KECCAK256 SLOAD ISZERO DUP1 ISZERO SWAP1 PUSH2 0x40C2 JUMPI POP PUSH1 0x1 PUSH1 0x1 PUSH1 0xA0 SHL SUB DUP4 AND PUSH0 SWAP1 DUP2 MSTORE PUSH1 0x20 DUP9 SWAP1 MSTORE PUSH1 0x40 SWAP1 KECCAK256 SLOAD TIMESTAMP GT JUMPDEST ISZERO PUSH2 0x4126 JUMPI PUSH2 0x40EF PUSH1 0x40 MLOAD DUP1 PUSH1 0x40 ADD PUSH1 0x40 MSTORE DUP1 PUSH1 0x7 DUP2 MSTORE PUSH1 0x20 ADD PUSH7 0x31313131313131 PUSH1 0xC9 SHL DUP2 MSTORE POP PUSH2 0x5D4C JUMP JUMPDEST PUSH1 0x1 PUSH1 0x1 PUSH1 0xA0 SHL SUB DUP4 AND PUSH0 SWAP1 DUP2 MSTORE PUSH1 0x20 DUP10 SWAP1 MSTORE PUSH1 0x40 SWAP1 KECCAK256 PUSH1 0x2 SWAP1 DUP2 ADD DUP1 SLOAD PUSH2 0xFF00 NOT AND PUSH2 0x100 DUP4 JUMPDEST MUL OR SWAP1 SSTORE POP PUSH1 0x1 SWAP2 POP POP PUSH2 0x3F25 JUMP JUMPDEST PUSH1 0x1 PUSH1 0x1 PUSH1 0xA0 SHL SUB DUP4 AND PUSH0 SWAP1 DUP2 MSTORE PUSH1 0x20 DUP8 SWAP1 MSTORE PUSH1 0x40 SWAP1 KECCAK256 SLOAD PUSH1 0x1 GT ISZERO DUP1 PUSH2 0x4165 JUMPI POP PUSH1 0x1 PUSH1 0x1 PUSH1 0xA0 SHL SUB DUP4 AND PUSH0 SWAP1 DUP2 MSTORE PUSH1 0x20 DUP6 SWAP1 MSTORE PUSH1 0x40 SWAP1 KECCAK256 SLOAD PUSH1 0xA GT ISZERO JUMPDEST DUP1 PUSH2 0x4188 JUMPI POP PUSH1 0x1 PUSH1 0x1 PUSH1 0xA0 SHL SUB DUP4 AND PUSH0 SWAP1 DUP2 MSTORE PUSH1 0x20 DUP7 SWAP1 MSTORE PUSH1 0x40 SWAP1 KECCAK256 SLOAD PUSH1 0x64 GT ISZERO JUMPDEST ISZERO PUSH2 0x41E9 JUMPI PUSH2 0x41BB PUSH1 0x40 MLOAD DUP1 PUSH1 0x40 ADD PUSH1 0x40 MSTORE DUP1 PUSH1 0xD DUP2 MSTORE PUSH1 0x20 ADD PUSH13 0x61616161616161616161616161 PUSH1 0x98 SHL DUP2 MSTORE POP PUSH2 0x5D4C JUMP JUMPDEST PUSH1 0x1 PUSH1 0x1 PUSH1 0xA0 SHL SUB DUP4 AND PUSH0 SWAP1 DUP2 MSTORE PUSH1 0x20 DUP10 SWAP1 MSTORE PUSH1 0x40 SWAP1 KECCAK256 PUSH1 0x2 ADD DUP1 SLOAD PUSH1 0x1 SWAP2 SWAP1 PUSH2 0xFF00 NOT AND PUSH2 0x100 DUP4 PUSH2 0x4117 JUMP JUMPDEST POP PUSH0 SWAP8 SWAP7 POP POP POP POP POP POP POP JUMP JUMPDEST PUSH1 0x1 PUSH1 0x1 PUSH1 0xA0 SHL SUB DUP2 AND PUSH0 SWAP1 DUP2 MSTORE PUSH1 0x20 DUP6 DUP2 MSTORE PUSH1 0x40 DUP1 DUP4 KECCAK256 PUSH1 0x2 ADD SLOAD SWAP2 DUP7 SWAP1 MSTORE DUP3 KECCAK256 PUSH1 0x1 ADD SLOAD SWAP1 SWAP2 SWAP1 DUP2 DUP2 PUSH1 0x1 PUSH1 0x1 PUSH1 0x40 SHL SUB DUP2 GT ISZERO PUSH2 0x4238 JUMPI PUSH2 0x4238 PUSH2 0x6F21 JUMP JUMPDEST PUSH1 0x40 MLOAD SWAP1 DUP1 DUP3 MSTORE DUP1 PUSH1 0x20 MUL PUSH1 0x20 ADD DUP3 ADD PUSH1 0x40 MSTORE DUP1 ISZERO PUSH2 0x4261 JUMPI DUP2 PUSH1 0x20 ADD PUSH1 0x20 DUP3 MUL DUP1 CALLDATASIZE DUP4 CALLDATACOPY ADD SWAP1 POP JUMPDEST POP SWAP1 POP PUSH0 JUMPDEST DUP3 DUP2 LT ISZERO PUSH2 0x436E JUMPI PUSH1 0x1 PUSH1 0x1 PUSH1 0xA0 SHL SUB DUP7 AND PUSH0 SWAP1 DUP2 MSTORE PUSH1 0x20 DUP10 SWAP1 MSTORE PUSH1 0x40 DUP2 KECCAK256 PUSH1 0x1 ADD DUP1 SLOAD DUP4 SWAP1 DUP2 LT PUSH2 0x429A JUMPI PUSH2 0x429A PUSH2 0x768A JUMP JUMPDEST PUSH0 SWAP2 DUP3 MSTORE PUSH1 0x20 DUP1 DUP4 KECCAK256 SWAP1 SWAP2 ADD SLOAD PUSH1 0x1 PUSH1 0x1 PUSH1 0xA0 SHL SUB AND DUP1 DUP4 MSTORE DUP12 DUP3 MSTORE PUSH1 0x40 DUP1 DUP5 KECCAK256 SWAP3 DUP15 SWAP1 MSTORE DUP4 KECCAK256 PUSH1 0x3 DUP2 ADD SLOAD PUSH1 0x2 SWAP1 SWAP2 ADD SLOAD SWAP2 SWAP5 POP SWAP2 SWAP3 SWAP2 PUSH2 0x42DB SWAP2 PUSH2 0x7664 JUMP JUMPDEST SWAP1 POP PUSH0 DUP2 GT PUSH2 0x42EC JUMPI POP POP POP PUSH2 0x4366 JUMP JUMPDEST PUSH1 0x1 PUSH1 0x1 PUSH1 0xA0 SHL SUB DUP4 AND PUSH0 SWAP1 DUP2 MSTORE PUSH1 0x20 DUP14 SWAP1 MSTORE PUSH1 0x40 DUP2 KECCAK256 PUSH1 0x3 ADD SSTORE DUP5 MLOAD DUP2 SWAP1 DUP7 SWAP1 DUP7 SWAP1 DUP2 LT PUSH2 0x431D JUMPI PUSH2 0x431D PUSH2 0x768A JUMP JUMPDEST PUSH1 0x20 SWAP1 DUP2 MUL SWAP2 SWAP1 SWAP2 ADD ADD MSTORE PUSH2 0x4332 DUP2 DUP10 PUSH2 0x7664 JUMP JUMPDEST SWAP8 POP PUSH1 0x4 PUSH1 0x2 DUP4 ADD SLOAD PUSH1 0xFF AND PUSH1 0x7 DUP2 GT ISZERO PUSH2 0x434F JUMPI PUSH2 0x434F PUSH2 0x7147 JUMP JUMPDEST LT ISZERO PUSH2 0x4362 JUMPI PUSH2 0x435F DUP2 DUP9 PUSH2 0x7664 JUMP JUMPDEST SWAP7 POP JUMPDEST POP POP POP JUMPDEST PUSH1 0x1 ADD PUSH2 0x4266 JUMP JUMPDEST POP DUP4 ISZERO PUSH2 0x14E3 JUMPI PUSH0 PUSH1 0x5 PUSH1 0x1 PUSH1 0x1 PUSH1 0xA0 SHL SUB DUP8 AND PUSH0 SWAP1 DUP2 MSTORE PUSH1 0x20 DUP11 SWAP1 MSTORE PUSH1 0x40 SWAP1 KECCAK256 PUSH1 0x2 ADD SLOAD PUSH1 0xFF AND PUSH1 0x7 DUP2 GT ISZERO PUSH2 0x43A7 JUMPI PUSH2 0x43A7 PUSH2 0x7147 JUMP JUMPDEST LT ISZERO PUSH2 0x43B4 JUMPI PUSH1 0x32 PUSH2 0x43B7 JUMP JUMPDEST PUSH1 0x28 JUMPDEST PUSH1 0xFF AND SWAP1 POP PUSH0 PUSH1 0x64 PUSH2 0x43C9 DUP4 DUP9 PUSH2 0x7841 JUMP JUMPDEST PUSH2 0x43D3 SWAP2 SWAP1 PUSH2 0x782E JUMP JUMPDEST SWAP1 POP PUSH0 DUP1 JUMPDEST DUP6 DUP2 LT ISZERO PUSH2 0x4435 JUMPI DUP3 DUP6 DUP3 DUP2 MLOAD DUP2 LT PUSH2 0x43F3 JUMPI PUSH2 0x43F3 PUSH2 0x768A JUMP JUMPDEST PUSH1 0x20 MUL PUSH1 0x20 ADD ADD MLOAD GT PUSH2 0x441F JUMPI DUP5 DUP2 DUP2 MLOAD DUP2 LT PUSH2 0x4412 JUMPI PUSH2 0x4412 PUSH2 0x768A JUMP JUMPDEST PUSH1 0x20 MUL PUSH1 0x20 ADD ADD MLOAD PUSH2 0x4421 JUMP JUMPDEST DUP3 JUMPDEST PUSH2 0x442B SWAP1 DUP4 PUSH2 0x7664 JUMP JUMPDEST SWAP2 POP PUSH1 0x1 ADD PUSH2 0x43D8 JUMP JUMPDEST POP PUSH1 0x1 PUSH1 0x1 PUSH1 0xA0 SHL SUB DUP9 AND PUSH0 SWAP1 DUP2 MSTORE PUSH1 0x20 DUP13 SWAP1 MSTORE PUSH1 0x40 DUP2 KECCAK256 PUSH1 0x3 ADD SLOAD PUSH2 0x445B SWAP1 DUP4 PUSH2 0x7677 JUMP JUMPDEST SWAP1 POP DUP1 ISZERO PUSH2 0x448C JUMPI PUSH1 0x1 PUSH1 0x1 PUSH1 0xA0 SHL SUB DUP10 AND PUSH0 SWAP1 DUP2 MSTORE PUSH1 0x20 DUP14 SWAP1 MSTORE PUSH1 0x40 SWAP1 KECCAK256 PUSH1 0x3 ADD DUP3 SWAP1 SSTORE PUSH2 0x448C DUP12 DUP14 DUP13 DUP13 PUSH2 0x5994 JUMP JUMPDEST POP POP POP PUSH1 0x1 PUSH1 0x1 PUSH1 0xA0 SHL SUB DUP7 AND PUSH0 SWAP1 DUP2 MSTORE PUSH1 0x20 DUP11 SWAP1 MSTORE PUSH1 0x40 SWAP1 KECCAK256 PUSH1 0x4 ADD DUP6 SWAP1 SSTORE POP POP POP POP POP POP POP POP POP JUMP JUMPDEST PUSH1 0x1 PUSH1 0x1 PUSH1 0xA0 SHL SUB DUP1 DUP3 AND PUSH0 SWAP1 DUP2 MSTORE PUSH1 0x4 PUSH1 0x20 MSTORE PUSH1 0x40 SWAP1 KECCAK256 SLOAD AND DUP1 PUSH2 0x44DA JUMPI POP POP JUMP JUMPDEST PUSH1 0x1 PUSH1 0x1 PUSH1 0xA0 SHL SUB DUP2 AND PUSH0 SWAP1 DUP2 MSTORE PUSH1 0x5 PUSH1 0x20 MSTORE PUSH1 0x40 DUP2 KECCAK256 PUSH1 0x1 SWAP1 DUP2 ADD DUP1 SLOAD SWAP2 SWAP3 SWAP1 SWAP2 PUSH2 0x4507 SWAP1 DUP5 SWAP1 PUSH2 0x7664 JUMP JUMPDEST SWAP1 SWAP2 SSTORE POP POP PUSH1 0x1 PUSH1 0x1 PUSH1 0xA0 SHL SUB DUP2 AND PUSH0 SWAP1 DUP2 MSTORE PUSH1 0x1A PUSH1 0x20 MSTORE PUSH1 0x40 SWAP1 KECCAK256 SLOAD PUSH1 0xFF AND ISZERO ISZERO PUSH1 0x1 EQ DUP1 ISZERO SWAP1 PUSH2 0x4574 JUMPI POP PUSH1 0x1 PUSH1 0x1 PUSH1 0xA0 SHL SUB DUP3 AND PUSH0 SWAP1 DUP2 MSTORE PUSH1 0x19 PUSH1 0x20 MSTORE PUSH1 0x40 SWAP1 KECCAK256 PUSH1 0x1 ADD SLOAD PUSH1 0xFF AND DUP1 PUSH2 0x4574 JUMPI POP PUSH1 0x1 PUSH1 0x1 PUSH1 0xA0 SHL SUB DUP3 AND PUSH0 SWAP1 DUP2 MSTORE PUSH1 0x1A PUSH1 0x20 MSTORE PUSH1 0x40 SWAP1 KECCAK256 SLOAD PUSH1 0xFF AND JUMPDEST ISZERO PUSH2 0x459C JUMPI PUSH1 0x1 PUSH1 0x1 PUSH1 0xA0 SHL SUB DUP2 AND PUSH0 SWAP1 DUP2 MSTORE PUSH1 0x1A PUSH1 0x20 MSTORE PUSH1 0x40 SWAP1 KECCAK256 DUP1 SLOAD PUSH1 0xFF NOT AND PUSH1 0x1 OR SWAP1 SSTORE JUMPDEST PUSH1 0x1 PUSH1 0x1 PUSH1 0xA0 SHL SUB DUP3 AND PUSH0 SWAP1 DUP2 MSTORE PUSH1 0x19 PUSH1 0x20 SWAP1 DUP2 MSTORE PUSH1 0x40 DUP1 DUP4 KECCAK256 DUP4 DUP2 SSTORE PUSH1 0x1 ADD DUP1 SLOAD PUSH1 0xFF NOT SWAP1 DUP2 AND SWAP1 SWAP2 SSTORE PUSH1 0x1A DUP4 MSTORE DUP2 DUP5 KECCAK256 DUP1 SLOAD SWAP1 SWAP2 AND SWAP1 SSTORE PUSH1 0x9 SWAP1 SWAP2 MSTORE SWAP1 KECCAK256 SLOAD ISZERO PUSH2 0x466E JUMPI PUSH1 0x1 PUSH1 0x1 PUSH1 0xA0 SHL SUB DUP1 DUP4 AND PUSH0 SWAP1 DUP2 MSTORE PUSH1 0x9 PUSH1 0x20 MSTORE PUSH1 0x40 DUP1 DUP3 KECCAK256 SLOAD SWAP3 DUP5 AND DUP3 MSTORE DUP2 KECCAK256 DUP1 SLOAD SWAP1 SWAP2 SWAP1 PUSH2 0x4613 SWAP1 DUP5 SWAP1 PUSH2 0x7664 JUMP JUMPDEST SWAP1 SWAP2 SSTORE POP POP PUSH1 0x1 PUSH1 0x1 PUSH1 0xA0 SHL SUB DUP1 DUP4 AND PUSH0 SWAP1 DUP2 MSTORE PUSH1 0x9 PUSH1 0x20 SWAP1 DUP2 MSTORE PUSH1 0x40 DUP1 DUP4 KECCAK256 SLOAD SWAP4 DUP6 AND DUP4 MSTORE PUSH1 0xA SWAP1 SWAP2 MSTORE DUP2 KECCAK256 DUP1 SLOAD SWAP1 SWAP2 SWAP1 PUSH2 0x4650 SWAP1 DUP5 SWAP1 PUSH2 0x7664 JUMP JUMPDEST SWAP1 SWAP2 SSTORE POP POP PUSH1 0x1 PUSH1 0x1 PUSH1 0xA0 SHL SUB DUP3 AND PUSH0 SWAP1 DUP2 MSTORE PUSH1 0x9 PUSH1 0x20 MSTORE PUSH1 0x40 DUP2 KECCAK256 SSTORE JUMPDEST PUSH1 0x1 PUSH1 0x1 PUSH1 0xA0 SHL SUB DUP2 AND PUSH0 SWAP1 DUP2 MSTORE PUSH1 0x4 PUSH1 0x20 SWAP1 DUP2 MSTORE PUSH1 0x40 DUP1 DUP4 KECCAK256 PUSH1 0x1 SWAP1 DUP2 ADD SLOAD PUSH1 0x5 SWAP1 SWAP4 MSTORE SWAP3 KECCAK256 SWAP1 SWAP2 ADD SLOAD SUB PUSH2 0x1CF8 JUMPI PUSH1 0x1 PUSH1 0x1 PUSH1 0xA0 SHL SUB DUP2 AND PUSH0 SWAP1 DUP2 MSTORE PUSH1 0x5 PUSH1 0x20 SWAP1 DUP2 MSTORE PUSH1 0x40 DUP1 DUP4 KECCAK256 PUSH1 0x1 ADD DUP4 SWAP1 SSTORE PUSH1 0x1A SWAP1 SWAP2 MSTORE SWAP1 KECCAK256 SLOAD PUSH1 0xFF AND ISZERO PUSH2 0x46DD JUMPI PUSH2 0x46DD PUSH1 0x5 PUSH1 0x4 PUSH1 0x2 DUP5 PUSH2 0x41F6 JUMP JUMPDEST PUSH2 0x1CF8 DUP2 PUSH2 0x44B7 JUMP JUMPDEST PUSH1 0x1 PUSH1 0x1 PUSH1 0xA0 SHL SUB DUP2 AND PUSH0 SWAP1 DUP2 MSTORE PUSH1 0x20 DUP4 SWAP1 MSTORE PUSH1 0x40 DUP2 KECCAK256 PUSH1 0x2 ADD SLOAD PUSH1 0x64 GT ISZERO DUP1 PUSH2 0x1B7A JUMPI POP POP PUSH1 0x1 PUSH1 0x1 PUSH1 0xA0 SHL SUB AND PUSH0 SWAP1 DUP2 MSTORE PUSH1 0x20 SWAP2 SWAP1 SWAP2 MSTORE PUSH1 0x40 SWAP1 KECCAK256 PUSH1 0x3 ADD SLOAD PUSH2 0x1F4 GT ISZERO SWAP1 JUMP JUMPDEST PUSH1 0x1 PUSH1 0x1 PUSH1 0xA0 SHL SUB DUP2 AND PUSH0 SWAP1 DUP2 MSTORE PUSH1 0x20 DUP5 SWAP1 MSTORE PUSH1 0x40 DUP2 KECCAK256 PUSH1 0x1 ADD SWAP1 JUMPDEST DUP2 SLOAD DUP2 LT ISZERO PUSH2 0x1A38 JUMPI DUP3 DUP5 PUSH0 DUP5 DUP5 DUP2 SLOAD DUP2 LT PUSH2 0x4769 JUMPI PUSH2 0x4769 PUSH2 0x768A JUMP JUMPDEST PUSH0 SWAP2 DUP3 MSTORE PUSH1 0x20 DUP1 DUP4 KECCAK256 SWAP2 SWAP1 SWAP2 ADD SLOAD PUSH1 0x1 PUSH1 0x1 PUSH1 0xA0 SHL SUB SWAP1 DUP2 AND DUP5 MSTORE SWAP1 DUP4 ADD SWAP4 SWAP1 SWAP4 MSTORE PUSH1 0x40 SWAP1 SWAP2 ADD SWAP1 KECCAK256 DUP1 SLOAD PUSH1 0x1 PUSH1 0x1 PUSH1 0xA0 SHL SUB NOT AND SWAP3 SWAP1 SWAP2 AND SWAP2 SWAP1 SWAP2 OR SWAP1 SSTORE PUSH1 0x1 ADD PUSH2 0x474B JUMP JUMPDEST DUP2 PUSH2 0x90D JUMPI PUSH1 0x40 MLOAD PUSH4 0x70A08231 PUSH1 0xE0 SHL DUP2 MSTORE PUSH0 SWAP1 PUSH1 0x1 PUSH1 0x1 PUSH1 0xA0 SHL SUB DUP6 AND SWAP1 PUSH4 0x70A08231 SWAP1 PUSH2 0x47E3 SWAP1 ADDRESS SWAP1 PUSH1 0x4 ADD PUSH2 0x734E JUMP JUMPDEST PUSH1 0x20 PUSH1 0x40 MLOAD DUP1 DUP4 SUB DUP2 DUP7 GAS STATICCALL ISZERO DUP1 ISZERO PUSH2 0x47FE JUMPI RETURNDATASIZE PUSH0 PUSH0 RETURNDATACOPY RETURNDATASIZE PUSH0 REVERT JUMPDEST POP POP POP POP PUSH1 0x40 MLOAD RETURNDATASIZE PUSH1 0x1F NOT PUSH1 0x1F DUP3 ADD AND DUP3 ADD DUP1 PUSH1 0x40 MSTORE POP DUP2 ADD SWAP1 PUSH2 0x4822 SWAP2 SWAP1 PUSH2 0x79AD JUMP JUMPDEST PUSH1 0x40 MLOAD PUSH4 0x23B872DD PUSH1 0xE0 SHL DUP2 MSTORE CALLER PUSH1 0x4 DUP3 ADD MSTORE ADDRESS PUSH1 0x24 DUP3 ADD MSTORE PUSH1 0x44 DUP2 ADD DUP5 SWAP1 MSTORE SWAP1 SWAP2 POP PUSH1 0x1 PUSH1 0x1 PUSH1 0xA0 SHL SUB DUP6 AND SWAP1 PUSH4 0x23B872DD SWAP1 PUSH1 0x64 ADD PUSH1 0x20 PUSH1 0x40 MLOAD DUP1 DUP4 SUB DUP2 PUSH0 DUP8 GAS CALL ISZERO DUP1 ISZERO PUSH2 0x4875 JUMPI RETURNDATASIZE PUSH0 PUSH0 RETURNDATACOPY RETURNDATASIZE PUSH0 REVERT JUMPDEST POP POP POP POP PUSH1 0x40 MLOAD RETURNDATASIZE PUSH1 0x1F NOT PUSH1 0x1F DUP3 ADD AND DUP3 ADD DUP1 PUSH1 0x40 MSTORE POP DUP2 ADD SWAP1 PUSH2 0x4899 SWAP2 SWAP1 PUSH2 0x79DD JUMP JUMPDEST PUSH2 0x48DC JUMPI PUSH1 0x40 MLOAD PUSH3 0x461BCD PUSH1 0xE5 SHL DUP2 MSTORE PUSH1 0x20 PUSH1 0x4 DUP3 ADD MSTORE PUSH1 0x14 PUSH1 0x24 DUP3 ADD MSTORE PUSH20 0x1554D115081D1C985B9CD9995C8819985A5B1959 PUSH1 0x62 SHL PUSH1 0x44 DUP3 ADD MSTORE PUSH1 0x64 ADD PUSH2 0x7B1 JUMP JUMPDEST PUSH1 0x40 MLOAD PUSH4 0x70A08231 PUSH1 0xE0 SHL DUP2 MSTORE PUSH0 SWAP1 PUSH1 0x1 PUSH1 0x1 PUSH1 0xA0 SHL SUB DUP7 AND SWAP1 PUSH4 0x70A08231 SWAP1 PUSH2 0x490A SWAP1 ADDRESS SWAP1 PUSH1 0x4 ADD PUSH2 0x734E JUMP JUMPDEST PUSH1 0x20 PUSH1 0x40 MLOAD DUP1 DUP4 SUB DUP2 DUP7 GAS STATICCALL ISZERO DUP1 ISZERO PUSH2 0x4925 JUMPI RETURNDATASIZE PUSH0 PUSH0 RETURNDATACOPY RETURNDATASIZE PUSH0 REVERT JUMPDEST POP POP POP POP PUSH1 0x40 MLOAD RETURNDATASIZE PUSH1 0x1F NOT PUSH1 0x1F DUP3 ADD AND DUP3 ADD DUP1 PUSH1 0x40 MSTORE POP DUP2 ADD SWAP1 PUSH2 0x4949 SWAP2 SWAP1 PUSH2 0x79AD JUMP JUMPDEST SWAP1 POP PUSH0 PUSH2 0x4956 DUP4 DUP4 PUSH2 0x7677 JUMP JUMPDEST SWAP1 POP PUSH2 0x496A PUSH8 0xDE0B6B3A7640000 DUP6 PUSH2 0x7677 JUMP JUMPDEST DUP2 LT ISZERO DUP1 ISZERO PUSH2 0x498A JUMPI POP PUSH2 0x4986 DUP5 PUSH8 0xDE0B6B3A7640000 PUSH2 0x7664 JUMP JUMPDEST DUP2 GT ISZERO JUMPDEST PUSH2 0x253D JUMPI PUSH1 0x40 MLOAD PUSH3 0x461BCD PUSH1 0xE5 SHL DUP2 MSTORE PUSH1 0x20 PUSH1 0x4 DUP3 ADD MSTORE PUSH1 0x1E PUSH1 0x24 DUP3 ADD MSTORE PUSH32 0x496E636F72726563742055534454207472616E7366657220616D6F756E740000 PUSH1 0x44 DUP3 ADD MSTORE PUSH1 0x64 ADD PUSH2 0x7B1 JUMP JUMPDEST PUSH1 0x11 SLOAD PUSH2 0x100 SWAP1 DIV PUSH1 0xFF AND ISZERO PUSH2 0x49FE JUMPI PUSH1 0x40 MLOAD PUSH3 0x461BCD PUSH1 0xE5 SHL DUP2 MSTORE PUSH1 0x4 ADD PUSH2 0x7B1 SWAP1 PUSH2 0x76E3 JUMP JUMPDEST PUSH1 0x11 SLOAD PUSH1 0xFF AND ISZERO PUSH2 0x4AC9 JUMPI PUSH1 0x40 DUP1 MLOAD PUSH1 0x60 DUP2 ADD DUP3 MSTORE PUSH1 0x1 PUSH1 0x1 PUSH1 0xA0 SHL SUB SWAP5 DUP6 AND DUP2 MSTORE PUSH1 0x20 DUP2 ADD SWAP4 DUP5 MSTORE SWAP1 DUP2 ADD SWAP2 DUP3 MSTORE PUSH1 0x10 DUP1 SLOAD PUSH1 0x1 DUP2 ADD DUP3 SSTORE PUSH0 SWAP2 SWAP1 SWAP2 MSTORE SWAP1 MLOAD PUSH32 0x1B6847DC741A1B0CD08D278845F9D819D87B734759AFB55FE2DE5CB82A9AE672 PUSH1 0x3 SWAP1 SWAP3 MUL SWAP2 DUP3 ADD DUP1 SLOAD PUSH1 0x1 PUSH1 0x1 PUSH1 0xA0 SHL SUB NOT AND SWAP2 SWAP1 SWAP6 AND OR SWAP1 SWAP4 SSTORE SWAP1 MLOAD PUSH32 0x1B6847DC741A1B0CD08D278845F9D819D87B734759AFB55FE2DE5CB82A9AE673 DUP4 ADD SSTORE MLOAD PUSH32 0x1B6847DC741A1B0CD08D278845F9D819D87B734759AFB55FE2DE5CB82A9AE674 SWAP1 SWAP2 ADD SSTORE JUMP JUMPDEST PUSH2 0x4AD1 PUSH2 0x5051 JUMP JUMPDEST PUSH2 0x90D DUP4 DUP4 DUP4 PUSH2 0x5D92 JUMP JUMPDEST PUSH0 DUP3 PUSH1 0x1 PUSH1 0x1 PUSH1 0xA0 SHL SUB AND PUSH4 0xEE82CFD0 PUSH1 0x40 MLOAD DUP2 PUSH4 0xFFFFFFFF AND PUSH1 0xE0 SHL DUP2 MSTORE PUSH1 0x4 ADD PUSH1 0x20 PUSH1 0x40 MLOAD DUP1 DUP4 SUB DUP2 DUP7 GAS STATICCALL ISZERO DUP1 ISZERO PUSH2 0x4B19 JUMPI RETURNDATASIZE PUSH0 PUSH0 RETURNDATACOPY RETURNDATASIZE PUSH0 REVERT JUMPDEST POP POP POP POP PUSH1 0x40 MLOAD RETURNDATASIZE PUSH1 0x1F NOT PUSH1 0x1F DUP3 ADD AND DUP3 ADD DUP1 PUSH1 0x40 MSTORE POP DUP2 ADD SWAP1 PUSH2 0x4B3D SWAP2 SWAP1 PUSH2 0x79AD JUMP JUMPDEST DUP3 SLOAD SWAP1 SWAP2 POP DUP1 PUSH2 0x4B9B JUMPI PUSH1 0x40 MLOAD PUSH3 0x461BCD PUSH1 0xE5 SHL DUP2 MSTORE PUSH1 0x20 PUSH1 0x4 DUP3 ADD MSTORE PUSH1 0x23 PUSH1 0x24 DUP3 ADD MSTORE PUSH32 0x4E6F204E6174696F6E616C204469726563746F727320746F2064697374726962 PUSH1 0x44 DUP3 ADD MSTORE PUSH3 0x757465 PUSH1 0xE8 SHL PUSH1 0x64 DUP3 ADD MSTORE PUSH1 0x84 ADD PUSH2 0x7B1 JUMP JUMPDEST PUSH0 PUSH2 0x4BA6 DUP3 DUP5 PUSH2 0x782E JUMP JUMPDEST SWAP1 POP PUSH0 DUP2 GT PUSH2 0x4BEB JUMPI PUSH1 0x40 MLOAD PUSH3 0x461BCD PUSH1 0xE5 SHL DUP2 MSTORE PUSH1 0x20 PUSH1 0x4 DUP3 ADD MSTORE PUSH1 0x11 PUSH1 0x24 DUP3 ADD MSTORE PUSH17 0x125B9CDD59999A58DA595B9D081C1BDBDB PUSH1 0x7A SHL PUSH1 0x44 DUP3 ADD MSTORE PUSH1 0x64 ADD PUSH2 0x7B1 JUMP JUMPDEST PUSH1 0x40 MLOAD PUSH4 0x21C2C5D PUSH1 0xE2 SHL DUP2 MSTORE PUSH1 0x4 DUP2 ADD DUP5 SWAP1 MSTORE PUSH1 0x1 PUSH1 0x1 PUSH1 0xA0 SHL SUB DUP7 AND SWAP1 PUSH4 0x870B174 SWAP1 PUSH1 0x24 ADD PUSH0 PUSH1 0x40 MLOAD DUP1 DUP4 SUB DUP2 PUSH0 DUP8 DUP1 EXTCODESIZE ISZERO DUP1 ISZERO PUSH2 0x4C2A JUMPI PUSH0 PUSH0 REVERT JUMPDEST POP GAS CALL ISZERO DUP1 ISZERO PUSH2 0x4C3C JUMPI RETURNDATASIZE PUSH0 PUSH0 RETURNDATACOPY RETURNDATASIZE PUSH0 REVERT JUMPDEST POP PUSH1 0x60 SWAP3 POP DUP3 SWAP2 POP PUSH0 SWAP1 POP DUP1 JUMPDEST DUP6 DUP2 LT ISZERO PUSH2 0x4CE3 JUMPI DUP8 DUP2 DUP2 SLOAD DUP2 LT PUSH2 0x4C63 JUMPI PUSH2 0x4C63 PUSH2 0x768A JUMP JUMPDEST SWAP1 PUSH0 MSTORE PUSH1 0x20 PUSH0 KECCAK256 ADD PUSH0 SWAP1 SLOAD SWAP1 PUSH2 0x100 EXP SWAP1 DIV PUSH1 0x1 PUSH1 0x1 PUSH1 0xA0 SHL SUB AND DUP5 DUP4 DUP2 MLOAD DUP2 LT PUSH2 0x4C90 JUMPI PUSH2 0x4C90 PUSH2 0x768A JUMP JUMPDEST PUSH1 0x20 MUL PUSH1 0x20 ADD ADD SWAP1 PUSH1 0x1 PUSH1 0x1 PUSH1 0xA0 SHL SUB AND SWAP1 DUP2 PUSH1 0x1 PUSH1 0x1 PUSH1 0xA0 SHL SUB AND DUP2 MSTORE POP POP DUP5 DUP4 DUP4 DUP2 MLOAD DUP2 LT PUSH2 0x4CC3 JUMPI PUSH2 0x4CC3 PUSH2 0x768A JUMP JUMPDEST PUSH1 0x20 SWAP1 DUP2 MUL SWAP2 SWAP1 SWAP2 ADD ADD MSTORE DUP2 PUSH2 0x4CD8 DUP2 PUSH2 0x76CB JUMP JUMPDEST SWAP3 POP POP PUSH1 0x1 ADD PUSH2 0x4C49 JUMP JUMPDEST POP PUSH1 0x40 MLOAD PUSH4 0xBD0DC97 PUSH1 0xE4 SHL DUP2 MSTORE PUSH1 0x1 PUSH1 0x1 PUSH1 0xA0 SHL SUB DUP10 AND SWAP1 PUSH4 0xBD0DC970 SWAP1 PUSH2 0x4D1A SWAP1 PUSH0 SWAP1 DUP8 SWAP1 DUP8 SWAP1 PUSH1 0x1 SWAP1 PUSH1 0x8 SWAP1 PUSH1 0x4 ADD PUSH2 0x7EF7 JUMP JUMPDEST PUSH0 PUSH1 0x40 MLOAD DUP1 DUP4 SUB DUP2 PUSH0 DUP8 DUP1 EXTCODESIZE ISZERO DUP1 ISZERO PUSH2 0x4D31 JUMPI PUSH0 PUSH0 REVERT JUMPDEST POP GAS CALL ISZERO DUP1 ISZERO PUSH2 0x4D43 JUMPI RETURNDATASIZE PUSH0 PUSH0 RETURNDATACOPY RETURNDATASIZE PUSH0 REVERT JUMPDEST POP POP POP POP POP POP POP POP POP POP POP POP JUMP JUMPDEST PUSH1 0x1 PUSH1 0x1 PUSH1 0xA0 SHL SUB DUP1 DUP3 AND PUSH0 DUP2 DUP2 MSTORE PUSH1 0x20 DUP9 SWAP1 MSTORE PUSH1 0x40 SWAP1 KECCAK256 PUSH1 0x2 ADD SLOAD PUSH1 0xFF AND SWAP2 DUP5 AND SWAP1 SUB PUSH2 0x4DA3 JUMPI PUSH0 JUMPDEST PUSH1 0x4 DUP2 PUSH1 0xFF AND LT ISZERO PUSH2 0x4D9D JUMPI PUSH2 0x4D95 DUP7 DUP5 DUP4 PUSH0 PUSH0 PUSH0 PUSH2 0x6413 JUMP JUMPDEST PUSH1 0x1 ADD PUSH2 0x4D7B JUMP JUMPDEST POP PUSH2 0x4FF2 JUMP JUMPDEST PUSH1 0x5 DUP2 PUSH1 0x7 DUP2 GT ISZERO PUSH2 0x4DB7 JUMPI PUSH2 0x4DB7 PUSH2 0x7147 JUMP JUMPDEST EQ DUP1 PUSH2 0x4DD4 JUMPI POP PUSH1 0x6 DUP2 PUSH1 0x7 DUP2 GT ISZERO PUSH2 0x4DD2 JUMPI PUSH2 0x4DD2 PUSH2 0x7147 JUMP JUMPDEST EQ JUMPDEST DUP1 PUSH2 0x4DF0 JUMPI POP PUSH1 0x7 DUP2 PUSH1 0x7 DUP2 GT ISZERO PUSH2 0x4DEE JUMPI PUSH2 0x4DEE PUSH2 0x7147 JUMP JUMPDEST EQ JUMPDEST ISZERO PUSH2 0x4F22 JUMPI PUSH1 0x1 PUSH1 0x1 PUSH1 0xA0 SHL SUB DUP1 DUP4 AND PUSH0 DUP2 DUP2 MSTORE PUSH1 0x20 DUP8 DUP2 MSTORE PUSH1 0x40 DUP1 DUP4 KECCAK256 DUP1 SLOAD PUSH1 0x1 PUSH1 0x1 PUSH1 0xA0 SHL SUB NOT AND SWAP1 SWAP5 OR SWAP1 SWAP4 SSTORE DUP10 SWAP1 MSTORE KECCAK256 SLOAD AND DUP1 PUSH2 0x4E43 JUMPI PUSH1 0x40 MLOAD PUSH3 0x461BCD PUSH1 0xE5 SHL DUP2 MSTORE PUSH1 0x4 ADD PUSH2 0x7B1 SWAP1 PUSH2 0x7F5F JUMP JUMPDEST PUSH0 JUMPDEST PUSH1 0x4 DUP2 PUSH1 0xFF AND LT ISZERO PUSH2 0x4F1B JUMPI PUSH0 DUP1 DUP1 PUSH1 0x7 DUP7 PUSH1 0x7 DUP2 GT ISZERO PUSH2 0x4E68 JUMPI PUSH2 0x4E68 PUSH2 0x7147 JUMP JUMPDEST SUB PUSH2 0x4E7A JUMPI POP DUP6 SWAP2 POP DUP2 SWAP1 POP DUP1 PUSH2 0x4F02 JUMP JUMPDEST PUSH1 0x6 DUP7 PUSH1 0x7 DUP2 GT ISZERO PUSH2 0x4E8E JUMPI PUSH2 0x4E8E PUSH2 0x7147 JUMP JUMPDEST SUB PUSH2 0x4EC8 JUMPI POP POP POP PUSH1 0x1 PUSH1 0x1 PUSH1 0xA0 SHL SUB DUP1 DUP4 AND PUSH0 SWAP1 DUP2 MSTORE PUSH1 0x20 DUP10 DUP2 MSTORE PUSH1 0x40 DUP1 DUP4 KECCAK256 PUSH1 0xFF DUP7 AND DUP5 MSTORE SWAP1 SWAP2 MSTORE SWAP1 KECCAK256 PUSH1 0x2 ADD SLOAD DUP6 SWAP2 DUP3 SWAP2 AND PUSH2 0x4F02 JUMP JUMPDEST POP POP POP PUSH1 0x1 PUSH1 0x1 PUSH1 0xA0 SHL SUB DUP3 DUP2 AND PUSH0 SWAP1 DUP2 MSTORE PUSH1 0x20 DUP10 DUP2 MSTORE PUSH1 0x40 DUP1 DUP4 KECCAK256 PUSH1 0xFF DUP7 AND DUP5 MSTORE SWAP1 SWAP2 MSTORE SWAP1 KECCAK256 PUSH1 0x2 DUP2 ADD SLOAD PUSH1 0x1 SWAP1 SWAP2 ADD SLOAD DUP7 SWAP3 SWAP1 DUP2 AND SWAP2 AND JUMPDEST PUSH2 0x4F10 DUP11 DUP9 DUP7 DUP7 DUP7 DUP7 PUSH2 0x6413 JUMP JUMPDEST POP POP POP PUSH1 0x1 ADD PUSH2 0x4E45 JUMP JUMPDEST POP POP PUSH2 0x4FF2 JUMP JUMPDEST PUSH1 0x1 PUSH1 0x1 PUSH1 0xA0 SHL SUB DUP1 DUP4 AND PUSH0 SWAP1 DUP2 MSTORE PUSH1 0x20 DUP9 SWAP1 MSTORE PUSH1 0x40 SWAP1 KECCAK256 SLOAD AND DUP1 PUSH2 0x4F59 JUMPI PUSH1 0x40 MLOAD PUSH3 0x461BCD PUSH1 0xE5 SHL DUP2 MSTORE PUSH1 0x4 ADD PUSH2 0x7B1 SWAP1 PUSH2 0x7F5F JUMP JUMPDEST PUSH0 JUMPDEST PUSH1 0x4 DUP2 PUSH1 0xFF AND LT ISZERO PUSH2 0x4F7B JUMPI PUSH2 0x4F73 DUP8 DUP4 DUP7 DUP5 PUSH2 0x649A JUMP JUMPDEST PUSH1 0x1 ADD PUSH2 0x4F5B JUMP JUMPDEST POP PUSH1 0x4 DUP3 PUSH1 0x7 DUP2 GT ISZERO PUSH2 0x4F90 JUMPI PUSH2 0x4F90 PUSH2 0x7147 JUMP JUMPDEST SUB PUSH2 0x4FC2 JUMPI PUSH1 0x1 PUSH1 0x1 PUSH1 0xA0 SHL SUB DUP4 AND PUSH0 DUP2 DUP2 MSTORE PUSH1 0x20 DUP8 SWAP1 MSTORE PUSH1 0x40 SWAP1 KECCAK256 DUP1 SLOAD PUSH1 0x1 PUSH1 0x1 PUSH1 0xA0 SHL SUB NOT AND SWAP1 SWAP2 OR SWAP1 SSTORE PUSH2 0x4FF0 JUMP JUMPDEST PUSH1 0x1 PUSH1 0x1 PUSH1 0xA0 SHL SUB DUP4 DUP2 AND PUSH0 SWAP1 DUP2 MSTORE PUSH1 0x20 DUP8 SWAP1 MSTORE PUSH1 0x40 SWAP1 KECCAK256 DUP1 SLOAD PUSH1 0x1 PUSH1 0x1 PUSH1 0xA0 SHL SUB NOT AND SWAP2 DUP4 AND SWAP2 SWAP1 SWAP2 OR SWAP1 SSTORE JUMPDEST POP JUMPDEST PUSH1 0x1 PUSH1 0x1 PUSH1 0xA0 SHL SUB DUP3 AND PUSH0 SWAP1 DUP2 MSTORE PUSH1 0x20 DUP8 SWAP1 MSTORE PUSH1 0x40 DUP2 KECCAK256 PUSH1 0x1 ADD SWAP1 JUMPDEST DUP2 SLOAD DUP2 LT ISZERO PUSH2 0x14E3 JUMPI PUSH2 0x5049 DUP9 DUP9 DUP9 DUP9 DUP7 DUP7 DUP2 SLOAD DUP2 LT PUSH2 0x5030 JUMPI PUSH2 0x5030 PUSH2 0x768A JUMP JUMPDEST PUSH0 SWAP2 DUP3 MSTORE PUSH1 0x20 SWAP1 SWAP2 KECCAK256 ADD SLOAD PUSH1 0x1 PUSH1 0x1 PUSH1 0xA0 SHL SUB AND PUSH2 0x4D51 JUMP JUMPDEST PUSH1 0x1 ADD PUSH2 0x500E JUMP JUMPDEST PUSH1 0x11 SLOAD PUSH1 0xFF AND ISZERO PUSH2 0x509E JUMPI PUSH1 0x40 MLOAD PUSH3 0x461BCD PUSH1 0xE5 SHL DUP2 MSTORE PUSH1 0x20 PUSH1 0x4 DUP3 ADD MSTORE PUSH1 0x17 PUSH1 0x24 DUP3 ADD MSTORE PUSH23 0x4261746368207570646174652069732072756E6E696E67 PUSH1 0x48 SHL PUSH1 0x44 DUP3 ADD MSTORE PUSH1 0x64 ADD PUSH2 0x7B1 JUMP JUMPDEST PUSH0 JUMPDEST PUSH1 0xF SLOAD DUP2 LT ISZERO PUSH2 0x5168 JUMPI PUSH2 0x5160 PUSH1 0xF DUP3 DUP2 SLOAD DUP2 LT PUSH2 0x50C0 JUMPI PUSH2 0x50C0 PUSH2 0x768A JUMP JUMPDEST PUSH0 SWAP2 DUP3 MSTORE PUSH1 0x20 SWAP1 SWAP2 KECCAK256 PUSH1 0x5 SWAP1 SWAP2 MUL ADD SLOAD PUSH1 0xF DUP1 SLOAD PUSH1 0x1 PUSH1 0x1 PUSH1 0xA0 SHL SUB SWAP1 SWAP3 AND SWAP2 DUP5 SWAP1 DUP2 LT PUSH2 0x50F0 JUMPI PUSH2 0x50F0 PUSH2 0x768A JUMP JUMPDEST SWAP1 PUSH0 MSTORE PUSH1 0x20 PUSH0 KECCAK256 SWAP1 PUSH1 0x5 MUL ADD PUSH1 0x1 ADD PUSH0 SWAP1 SLOAD SWAP1 PUSH2 0x100 EXP SWAP1 DIV PUSH1 0x1 PUSH1 0x1 PUSH1 0xA0 SHL SUB AND PUSH1 0xF DUP5 DUP2 SLOAD DUP2 LT PUSH2 0x5125 JUMPI PUSH2 0x5125 PUSH2 0x768A JUMP JUMPDEST SWAP1 PUSH0 MSTORE PUSH1 0x20 PUSH0 KECCAK256 SWAP1 PUSH1 0x5 MUL ADD PUSH1 0x2 ADD SLOAD PUSH1 0xF DUP6 DUP2 SLOAD DUP2 LT PUSH2 0x5148 JUMPI PUSH2 0x5148 PUSH2 0x768A JUMP JUMPDEST SWAP1 PUSH0 MSTORE PUSH1 0x20 PUSH0 KECCAK256 SWAP1 PUSH1 0x5 MUL ADD PUSH1 0x3 ADD SLOAD PUSH0 PUSH0 SHL PUSH2 0x51F2 JUMP JUMPDEST PUSH1 0x1 ADD PUSH2 0x50A0 JUMP JUMPDEST POP PUSH2 0x5174 PUSH1 0xF PUSH0 PUSH2 0x6DD3 JUMP JUMPDEST PUSH0 JUMPDEST PUSH1 0x10 SLOAD DUP2 LT ISZERO PUSH2 0x51E6 JUMPI PUSH2 0x51DE PUSH1 0x10 DUP3 DUP2 SLOAD DUP2 LT PUSH2 0x5196 JUMPI PUSH2 0x5196 PUSH2 0x768A JUMP JUMPDEST PUSH0 SWAP2 DUP3 MSTORE PUSH1 0x20 SWAP1 SWAP2 KECCAK256 PUSH1 0x3 SWAP1 SWAP2 MUL ADD SLOAD PUSH1 0x10 DUP1 SLOAD PUSH1 0x1 PUSH1 0x1 PUSH1 0xA0 SHL SUB SWAP1 SWAP3 AND SWAP2 DUP5 SWAP1 DUP2 LT PUSH2 0x51C6 JUMPI PUSH2 0x51C6 PUSH2 0x768A JUMP JUMPDEST SWAP1 PUSH0 MSTORE PUSH1 0x20 PUSH0 KECCAK256 SWAP1 PUSH1 0x3 MUL ADD PUSH1 0x1 ADD SLOAD PUSH0 PUSH0 SHL PUSH2 0x5D92 JUMP JUMPDEST PUSH1 0x1 ADD PUSH2 0x5176 JUMP JUMPDEST POP PUSH2 0x152E PUSH1 0x10 PUSH0 PUSH2 0x6DF1 JUMP JUMPDEST PUSH1 0x1C SLOAD PUSH1 0x40 MLOAD PUSH4 0x7A5A18F7 PUSH1 0xE0 SHL DUP2 MSTORE PUSH1 0x4 DUP2 ADD DUP5 SWAP1 MSTORE PUSH1 0x24 DUP2 ADD DUP6 SWAP1 MSTORE PUSH0 SWAP2 PUSH1 0x1 PUSH1 0x1 PUSH1 0xA0 SHL SUB AND SWAP1 PUSH4 0x7A5A18F7 SWAP1 PUSH1 0x44 ADD PUSH1 0x20 PUSH1 0x40 MLOAD DUP1 DUP4 SUB DUP2 DUP7 GAS STATICCALL ISZERO DUP1 ISZERO PUSH2 0x5240 JUMPI RETURNDATASIZE PUSH0 PUSH0 RETURNDATACOPY RETURNDATASIZE PUSH0 REVERT JUMPDEST POP POP POP POP PUSH1 0x40 MLOAD RETURNDATASIZE PUSH1 0x1F NOT PUSH1 0x1F DUP3 ADD AND DUP3 ADD DUP1 PUSH1 0x40 MSTORE POP DUP2 ADD SWAP1 PUSH2 0x5264 SWAP2 SWAP1 PUSH2 0x77D5 JUMP JUMPDEST PUSH1 0x40 DUP1 MLOAD PUSH1 0x80 DUP2 ADD DUP3 MSTORE PUSH1 0x1 PUSH1 0x1 PUSH1 0xA0 SHL SUB DUP9 DUP2 AND DUP3 MSTORE DUP3 MLOAD PUSH0 DUP1 DUP3 MSTORE PUSH1 0x20 DUP1 DUP4 ADD DUP7 MSTORE DUP1 DUP6 ADD SWAP3 DUP4 MSTORE DUP5 DUP7 ADD DUP3 SWAP1 MSTORE PUSH1 0x60 DUP6 ADD DUP3 SWAP1 MSTORE DUP13 DUP5 AND DUP3 MSTORE PUSH1 0x4 DUP2 MSTORE SWAP5 SWAP1 KECCAK256 DUP4 MLOAD DUP2 SLOAD PUSH1 0x1 PUSH1 0x1 PUSH1 0xA0 SHL SUB NOT AND SWAP4 AND SWAP3 SWAP1 SWAP3 OR DUP3 SSTORE MLOAD DUP1 MLOAD SWAP5 SWAP6 POP SWAP2 SWAP4 SWAP1 SWAP3 PUSH2 0x52D8 SWAP3 PUSH1 0x1 DUP6 ADD SWAP3 SWAP2 ADD SWAP1 PUSH2 0x6E0F JUMP JUMPDEST POP PUSH1 0x40 DUP3 ADD MLOAD PUSH1 0x2 DUP3 ADD DUP1 SLOAD PUSH1 0xFF NOT AND PUSH1 0x1 DUP4 PUSH1 0x7 DUP2 GT ISZERO PUSH2 0x52FC JUMPI PUSH2 0x52FC PUSH2 0x7147 JUMP JUMPDEST MUL OR SWAP1 SSTORE POP PUSH1 0x60 DUP3 ADD MLOAD PUSH1 0x2 DUP3 ADD DUP1 SLOAD PUSH2 0xFF00 NOT AND PUSH2 0x100 DUP4 PUSH1 0x3 DUP2 GT ISZERO PUSH2 0x5326 JUMPI PUSH2 0x5326 PUSH2 0x7147 JUMP JUMPDEST MUL OR SWAP1 SSTORE POP SWAP1 POP POP PUSH1 0x40 MLOAD DUP1 PUSH1 0xA0 ADD PUSH1 0x40 MSTORE DUP1 TIMESTAMP PUSH4 0x1E13380 PUSH2 0x5349 SWAP2 SWAP1 PUSH2 0x7664 JUMP JUMPDEST DUP2 MSTORE PUSH0 PUSH1 0x20 DUP1 DUP4 ADD DUP3 SWAP1 MSTORE PUSH1 0x40 DUP1 DUP5 ADD DUP4 SWAP1 MSTORE PUSH1 0x60 DUP1 DUP6 ADD DUP5 SWAP1 MSTORE PUSH1 0x80 SWAP5 DUP6 ADD DUP5 SWAP1 MSTORE PUSH1 0x1 PUSH1 0x1 PUSH1 0xA0 SHL SUB DUP13 AND DUP5 MSTORE PUSH1 0x5 DUP4 MSTORE SWAP3 DUP2 SWAP1 KECCAK256 DUP6 MLOAD DUP2 SSTORE DUP6 DUP4 ADD MLOAD PUSH1 0x1 DUP3 ADD SSTORE DUP6 DUP3 ADD MLOAD PUSH1 0x2 DUP3 ADD SSTORE SWAP3 DUP6 ADD MLOAD PUSH1 0x3 DUP5 ADD SSTORE SWAP4 SWAP1 SWAP3 ADD MLOAD PUSH1 0x4 SWAP1 SWAP2 ADD SSTORE DUP2 MLOAD DUP1 DUP4 ADD SWAP1 SWAP3 MSTORE PUSH1 0x12 DUP3 MSTORE PUSH18 0x3AB9B2B9103732BBB6B2B6B132B91036309D PUSH1 0x71 SHL SWAP1 DUP3 ADD MSTORE PUSH2 0x53DA SWAP1 DUP8 PUSH2 0x5BA9 JUMP JUMPDEST PUSH2 0x5413 PUSH1 0x40 MLOAD DUP1 PUSH1 0x60 ADD PUSH1 0x40 MSTORE DUP1 PUSH1 0x28 DUP2 MSTORE PUSH1 0x20 ADD PUSH2 0x80DF PUSH1 0x28 SWAP2 CODECOPY PUSH1 0x1 PUSH1 0x1 PUSH1 0xA0 SHL SUB DUP9 AND PUSH0 SWAP1 DUP2 MSTORE PUSH1 0x5 PUSH1 0x20 MSTORE PUSH1 0x40 SWAP1 KECCAK256 SLOAD PUSH2 0x5D07 JUMP JUMPDEST PUSH1 0x40 MLOAD PUSH1 0x1 PUSH1 0x1 PUSH1 0x60 SHL SUB NOT PUSH1 0x60 DUP9 SWAP1 SHL AND PUSH1 0x20 DUP3 ADD MSTORE PUSH0 SWAP1 PUSH1 0x34 ADD PUSH1 0x40 DUP1 MLOAD DUP1 DUP4 SUB PUSH1 0x1F NOT ADD DUP2 MSTORE SWAP1 DUP3 SWAP1 MSTORE DUP1 MLOAD PUSH1 0x20 SWAP1 SWAP2 ADD KECCAK256 PUSH1 0x1B SLOAD PUSH4 0x180DB04B PUSH1 0xE1 SHL DUP4 MSTORE PUSH1 0x4 DUP4 ADD DUP3 SWAP1 MSTORE SWAP1 SWAP3 POP PUSH0 SWAP2 PUSH1 0x1 PUSH1 0x1 PUSH1 0xA0 SHL SUB SWAP1 SWAP2 AND SWAP1 PUSH4 0x301B6096 SWAP1 PUSH1 0x24 ADD PUSH1 0x20 PUSH1 0x40 MLOAD DUP1 DUP4 SUB DUP2 DUP7 GAS STATICCALL ISZERO DUP1 ISZERO PUSH2 0x5491 JUMPI RETURNDATASIZE PUSH0 PUSH0 RETURNDATACOPY RETURNDATASIZE PUSH0 REVERT JUMPDEST POP POP POP POP PUSH1 0x40 MLOAD RETURNDATASIZE PUSH1 0x1F NOT PUSH1 0x1F DUP3 ADD AND DUP3 ADD DUP1 PUSH1 0x40 MSTORE POP DUP2 ADD SWAP1 PUSH2 0x54B5 SWAP2 SWAP1 PUSH2 0x77D5 JUMP JUMPDEST PUSH1 0x1 PUSH1 0x1 PUSH1 0xA0 SHL SUB AND SUB PUSH2 0x5525 JUMPI PUSH1 0x1B SLOAD PUSH1 0x40 MLOAD PUSH4 0x138C3923 PUSH1 0xE2 SHL DUP2 MSTORE PUSH1 0x1 PUSH1 0x1 PUSH1 0xA0 SHL SUB SWAP1 SWAP2 AND SWAP1 PUSH4 0x4E30E48C SWAP1 PUSH2 0x54F7 SWAP1 DUP11 SWAP1 DUP10 SWAP1 DUP10 SWAP1 PUSH1 0x4 ADD PUSH2 0x788B JUMP JUMPDEST PUSH0 PUSH1 0x40 MLOAD DUP1 DUP4 SUB DUP2 PUSH0 DUP8 DUP1 EXTCODESIZE ISZERO DUP1 ISZERO PUSH2 0x550E JUMPI PUSH0 PUSH0 REVERT JUMPDEST POP GAS CALL ISZERO DUP1 ISZERO PUSH2 0x5520 JUMPI RETURNDATASIZE PUSH0 PUSH0 RETURNDATACOPY RETURNDATASIZE PUSH0 REVERT JUMPDEST POP POP POP POP JUMPDEST PUSH1 0x3 DUP1 SLOAD PUSH1 0x1 DUP2 DUP2 ADD SWAP1 SWAP3 SSTORE PUSH32 0xC2575A0E9E593C00F959F8C92F12DB2869C3395A3B0502D05E2516446F71F85B ADD DUP1 SLOAD PUSH1 0x1 PUSH1 0x1 PUSH1 0xA0 SHL SUB DUP1 DUP12 AND PUSH1 0x1 PUSH1 0x1 PUSH1 0xA0 SHL SUB NOT SWAP3 DUP4 AND DUP2 OR SWAP1 SWAP4 SSTORE DUP10 AND PUSH0 DUP2 DUP2 MSTORE PUSH1 0x4 PUSH1 0x20 SWAP1 DUP2 MSTORE PUSH1 0x40 DUP1 DUP4 KECCAK256 DUP8 ADD DUP1 SLOAD DUP1 DUP10 ADD DUP3 SSTORE SWAP1 DUP5 MSTORE DUP3 DUP5 KECCAK256 ADD DUP1 SLOAD SWAP1 SWAP6 AND SWAP1 SWAP6 OR SWAP1 SWAP4 SSTORE SWAP1 DUP2 MSTORE PUSH1 0x7 SWAP1 SWAP2 MSTORE SWAP1 DUP2 KECCAK256 DUP1 SLOAD SWAP1 SWAP2 SWAP1 PUSH2 0x55B9 SWAP1 DUP5 SWAP1 PUSH2 0x7664 JUMP JUMPDEST SWAP1 SWAP2 SSTORE POP POP PUSH1 0x1 PUSH1 0x1 PUSH1 0xA0 SHL SUB DUP7 AND PUSH0 SWAP1 DUP2 MSTORE PUSH1 0x9 PUSH1 0x20 MSTORE PUSH1 0x40 DUP2 KECCAK256 DUP1 SLOAD PUSH1 0x1 SWAP3 SWAP1 PUSH2 0x55E6 SWAP1 DUP5 SWAP1 PUSH2 0x7664 JUMP JUMPDEST SWAP1 SWAP2 SSTORE POP PUSH1 0x1 SWAP1 POP PUSH1 0x1 PUSH1 0x1 PUSH1 0xA0 SHL SUB DUP8 AND PUSH0 SWAP1 DUP2 MSTORE PUSH1 0x4 PUSH1 0x20 MSTORE PUSH1 0x40 SWAP1 KECCAK256 PUSH1 0x2 ADD SLOAD PUSH2 0x100 SWAP1 DIV PUSH1 0xFF AND PUSH1 0x3 DUP2 GT ISZERO PUSH2 0x5622 JUMPI PUSH2 0x5622 PUSH2 0x7147 JUMP JUMPDEST EQ PUSH2 0x5639 JUMPI PUSH2 0x5634 PUSH1 0x4 PUSH1 0xC DUP9 PUSH2 0x654B JUMP JUMPDEST PUSH2 0x563B JUMP JUMPDEST DUP6 JUMPDEST PUSH1 0x1 PUSH1 0x1 PUSH1 0xA0 SHL SUB DUP1 DUP10 AND PUSH0 DUP2 DUP2 MSTORE PUSH1 0xC PUSH1 0x20 MSTORE PUSH1 0x40 DUP1 DUP3 KECCAK256 DUP1 SLOAD SWAP6 DUP6 AND PUSH1 0x1 PUSH1 0x1 PUSH1 0xA0 SHL SUB NOT SWAP7 DUP8 AND OR SWAP1 SSTORE PUSH1 0xE DUP1 SLOAD PUSH1 0x1 DUP2 DUP2 ADD DUP4 SSTORE SWAP2 SWAP1 SWAP4 MSTORE PUSH32 0xBB7B4A454DC3493923482F07822329ED19E8244EFF582CC204F8554C3620C3FD SWAP1 SWAP3 ADD DUP1 SLOAD SWAP1 SWAP6 AND SWAP1 SWAP3 OR SWAP1 SWAP4 SSTORE PUSH1 0x1B SLOAD SWAP1 MLOAD PUSH4 0xE115DC7F PUSH1 0xE0 SHL DUP2 MSTORE SWAP2 AND SWAP2 PUSH4 0xE115DC7F SWAP2 PUSH2 0x56D5 SWAP2 DUP11 SWAP2 DUP9 SWAP2 PUSH2 0x2710 SWAP2 PUSH1 0x3 SWAP1 PUSH1 0x4 ADD PUSH2 0x7858 JUMP JUMPDEST PUSH0 PUSH1 0x40 MLOAD DUP1 DUP4 SUB DUP2 PUSH0 DUP8 DUP1 EXTCODESIZE ISZERO DUP1 ISZERO PUSH2 0x56EC JUMPI PUSH0 PUSH0 REVERT JUMPDEST POP GAS CALL ISZERO DUP1 ISZERO PUSH2 0x56FE JUMPI RETURNDATASIZE PUSH0 PUSH0 RETURNDATACOPY RETURNDATASIZE PUSH0 REVERT JUMPDEST POP POP POP POP PUSH1 0x1 PUSH1 0x1 PUSH1 0xA0 SHL SUB DUP3 AND ISZERO PUSH2 0x587B JUMPI PUSH1 0x1C SLOAD PUSH1 0x40 MLOAD PUSH4 0xDA77ABED PUSH1 0xE0 SHL DUP2 MSTORE PUSH0 SWAP2 PUSH1 0x1 PUSH1 0x1 PUSH1 0xA0 SHL SUB AND SWAP1 PUSH4 0xDA77ABED SWAP1 PUSH2 0x5744 SWAP1 DUP7 SWAP1 PUSH1 0x1 SWAP1 PUSH1 0x4 ADD PUSH2 0x79C4 JUMP JUMPDEST PUSH1 0x20 PUSH1 0x40 MLOAD DUP1 DUP4 SUB DUP2 PUSH0 DUP8 GAS CALL ISZERO DUP1 ISZERO PUSH2 0x5760 JUMPI RETURNDATASIZE PUSH0 PUSH0 RETURNDATACOPY RETURNDATASIZE PUSH0 REVERT JUMPDEST POP POP POP POP PUSH1 0x40 MLOAD RETURNDATASIZE PUSH1 0x1F NOT PUSH1 0x1F DUP3 ADD AND DUP3 ADD DUP1 PUSH1 0x40 MSTORE POP DUP2 ADD SWAP1 PUSH2 0x5784 SWAP2 SWAP1 PUSH2 0x79AD JUMP JUMPDEST PUSH1 0x1B SLOAD SWAP1 SWAP2 POP PUSH1 0x1 PUSH1 0x1 PUSH1 0xA0 SHL SUB AND PUSH4 0xE115DC7F DUP5 DUP7 PUSH1 0x64 PUSH2 0x57A8 DUP7 PUSH2 0x4E20 PUSH2 0x7841 JUMP JUMPDEST PUSH2 0x57B2 SWAP2 SWAP1 PUSH2 0x782E JUMP JUMPDEST PUSH1 0x1 PUSH1 0x4 PUSH1 0x40 MLOAD DUP7 PUSH4 0xFFFFFFFF AND PUSH1 0xE0 SHL DUP2 MSTORE PUSH1 0x4 ADD PUSH2 0x57D6 SWAP6 SWAP5 SWAP4 SWAP3 SWAP2 SWAP1 PUSH2 0x7858 JUMP JUMPDEST PUSH0 PUSH1 0x40 MLOAD DUP1 DUP4 SUB DUP2 PUSH0 DUP8 DUP1 EXTCODESIZE ISZERO DUP1 ISZERO PUSH2 0x57ED JUMPI PUSH0 PUSH0 REVERT JUMPDEST POP GAS CALL ISZERO DUP1 ISZERO PUSH2 0x57FF JUMPI RETURNDATASIZE PUSH0 PUSH0 RETURNDATACOPY RETURNDATASIZE PUSH0 REVERT JUMPDEST POP POP PUSH1 0x1C SLOAD PUSH1 0x1 PUSH1 0x1 PUSH1 0xA0 SHL SUB AND SWAP2 POP PUSH4 0xC849C1D0 SWAP1 POP DUP5 PUSH1 0x64 PUSH2 0x5825 DUP6 PUSH2 0x4E20 PUSH2 0x7841 JUMP JUMPDEST PUSH2 0x582F SWAP2 SWAP1 PUSH2 0x782E JUMP JUMPDEST PUSH1 0x40 MLOAD DUP4 PUSH4 0xFFFFFFFF AND PUSH1 0xE0 SHL DUP2 MSTORE PUSH1 0x4 ADD PUSH2 0x584C SWAP3 SWAP2 SWAP1 PUSH2 0x79C4 JUMP JUMPDEST PUSH0 PUSH1 0x40 MLOAD DUP1 DUP4 SUB DUP2 PUSH0 DUP8 DUP1 EXTCODESIZE ISZERO DUP1 ISZERO PUSH2 0x5863 JUMPI PUSH0 PUSH0 REVERT JUMPDEST POP GAS CALL ISZERO DUP1 ISZERO PUSH2 0x5875 JUMPI RETURNDATASIZE PUSH0 PUSH0 RETURNDATACOPY RETURNDATASIZE PUSH0 REVERT JUMPDEST POP POP POP POP POP JUMPDEST PUSH1 0x1B SLOAD PUSH1 0x16 SLOAD PUSH1 0x1 PUSH1 0x1 PUSH1 0xA0 SHL SUB SWAP2 DUP3 AND SWAP2 PUSH4 0xE115DC7F SWAP2 AND DUP6 PUSH2 0x58A3 PUSH2 0x2710 PUSH2 0x4E20 PUSH2 0x7664 JUMP JUMPDEST PUSH2 0x58BE PUSH8 0xDE0B6B3A7640000 PUSH9 0x22B1C8C1227A00000 PUSH2 0x782E JUMP JUMPDEST PUSH2 0x58CA SWAP1 PUSH2 0x3E8 PUSH2 0x7841 JUMP JUMPDEST PUSH2 0x58D4 SWAP2 SWAP1 PUSH2 0x7677 JUMP JUMPDEST PUSH1 0x1 PUSH1 0x2 PUSH1 0x40 MLOAD DUP7 PUSH4 0xFFFFFFFF AND PUSH1 0xE0 SHL DUP2 MSTORE PUSH1 0x4 ADD PUSH2 0x58F8 SWAP6 SWAP5 SWAP4 SWAP3 SWAP2 SWAP1 PUSH2 0x7858 JUMP JUMPDEST PUSH0 PUSH1 0x40 MLOAD DUP1 DUP4 SUB DUP2 PUSH0 DUP8 DUP1 EXTCODESIZE ISZERO DUP1 ISZERO PUSH2 0x590F JUMPI PUSH0 PUSH0 REVERT JUMPDEST POP GAS CALL ISZERO DUP1 ISZERO PUSH2 0x5921 JUMPI RETURNDATASIZE PUSH0 PUSH0 RETURNDATACOPY RETURNDATASIZE PUSH0 REVERT JUMPDEST POP POP POP POP POP POP POP POP POP POP POP JUMP JUMPDEST PUSH1 0x1 DUP4 ADD SLOAD DUP2 LT PUSH2 0x5977 JUMPI PUSH1 0x40 MLOAD PUSH3 0x461BCD PUSH1 0xE5 SHL DUP2 MSTORE PUSH1 0x20 PUSH1 0x4 DUP3 ADD MSTORE PUSH1 0x13 PUSH1 0x24 DUP3 ADD MSTORE PUSH19 0x125B9D985B1A59081859D95B9D081B195D995B PUSH1 0x6A SHL PUSH1 0x44 DUP3 ADD MSTORE PUSH1 0x64 ADD PUSH2 0x7B1 JUMP JUMPDEST PUSH1 0x1 PUSH1 0x1 PUSH1 0xA0 SHL SUB SWAP1 SWAP2 AND PUSH0 SWAP1 DUP2 MSTORE PUSH1 0x20 SWAP3 SWAP1 SWAP3 MSTORE PUSH1 0x40 SWAP1 SWAP2 KECCAK256 SSTORE JUMP JUMPDEST PUSH1 0x1 PUSH1 0x1 PUSH1 0xA0 SHL SUB DUP2 AND PUSH0 SWAP1 DUP2 MSTORE PUSH1 0x20 DUP5 SWAP1 MSTORE PUSH1 0x40 DUP2 KECCAK256 PUSH1 0x3 ADD SLOAD SWAP1 PUSH2 0x59BA DUP7 DUP5 PUSH2 0x65E2 JUMP JUMPDEST SWAP1 POP PUSH3 0x186A0 DUP3 LT ISZERO DUP1 ISZERO PUSH2 0x59D0 JUMPI POP PUSH1 0x7 DUP2 LT ISZERO JUMPDEST ISZERO PUSH2 0x5A1E JUMPI PUSH1 0x1 PUSH1 0x1 PUSH1 0xA0 SHL SUB DUP4 AND PUSH0 DUP2 DUP2 MSTORE PUSH1 0x20 DUP9 DUP2 MSTORE PUSH1 0x40 DUP3 KECCAK256 PUSH1 0x2 ADD DUP1 SLOAD PUSH1 0xFF NOT AND PUSH1 0x7 OR SWAP1 SSTORE DUP7 SLOAD PUSH1 0x1 DUP2 ADD DUP9 SSTORE DUP8 DUP4 MSTORE SWAP2 KECCAK256 ADD DUP1 SLOAD PUSH1 0x1 PUSH1 0x1 PUSH1 0xA0 SHL SUB NOT AND SWAP1 SWAP2 OR SWAP1 SSTORE PUSH2 0x253D JUMP JUMPDEST PUSH2 0xC350 DUP3 LT ISZERO DUP1 ISZERO PUSH2 0x5A31 JUMPI POP PUSH1 0x6 DUP2 LT ISZERO JUMPDEST ISZERO PUSH2 0x5A68 JUMPI PUSH1 0x1 PUSH1 0x1 PUSH1 0xA0 SHL SUB DUP4 AND PUSH0 SWAP1 DUP2 MSTORE PUSH1 0x20 DUP8 SWAP1 MSTORE PUSH1 0x40 SWAP1 KECCAK256 PUSH1 0x2 ADD DUP1 SLOAD PUSH1 0x6 SWAP2 SWAP1 PUSH1 0xFF NOT AND PUSH1 0x1 DUP4 JUMPDEST MUL OR SWAP1 SSTORE POP PUSH2 0x253D JUMP JUMPDEST PUSH2 0x61A8 DUP3 LT ISZERO DUP1 ISZERO PUSH2 0x5A7B JUMPI POP PUSH1 0x5 DUP2 LT ISZERO JUMPDEST ISZERO PUSH2 0x5AAC JUMPI PUSH1 0x1 PUSH1 0x1 PUSH1 0xA0 SHL SUB DUP4 AND PUSH0 SWAP1 DUP2 MSTORE PUSH1 0x20 DUP8 SWAP1 MSTORE PUSH1 0x40 SWAP1 KECCAK256 PUSH1 0x2 ADD DUP1 SLOAD PUSH1 0x5 SWAP2 SWAP1 PUSH1 0xFF NOT AND PUSH1 0x1 DUP4 PUSH2 0x5A5E JUMP JUMPDEST PUSH2 0x2710 DUP3 LT ISZERO DUP1 ISZERO PUSH2 0x5ABF JUMPI POP PUSH1 0x4 DUP2 LT ISZERO JUMPDEST ISZERO PUSH2 0x5AF0 JUMPI PUSH1 0x1 PUSH1 0x1 PUSH1 0xA0 SHL SUB DUP4 AND PUSH0 SWAP1 DUP2 MSTORE PUSH1 0x20 DUP8 SWAP1 MSTORE PUSH1 0x40 SWAP1 KECCAK256 PUSH1 0x2 ADD DUP1 SLOAD PUSH1 0x4 SWAP2 SWAP1 PUSH1 0xFF NOT AND PUSH1 0x1 DUP4 PUSH2 0x5A5E JUMP JUMPDEST PUSH2 0x1388 DUP3 LT ISZERO DUP1 ISZERO PUSH2 0x5B03 JUMPI POP PUSH1 0x3 DUP2 LT ISZERO JUMPDEST ISZERO PUSH2 0x5B34 JUMPI PUSH1 0x1 PUSH1 0x1 PUSH1 0xA0 SHL SUB DUP4 AND PUSH0 SWAP1 DUP2 MSTORE PUSH1 0x20 DUP8 SWAP1 MSTORE PUSH1 0x40 SWAP1 KECCAK256 PUSH1 0x2 ADD DUP1 SLOAD PUSH1 0x3 SWAP2 SWAP1 PUSH1 0xFF NOT AND PUSH1 0x1 DUP4 PUSH2 0x5A5E JUMP JUMPDEST PUSH2 0x9C4 DUP3 LT ISZERO DUP1 ISZERO PUSH2 0x5B47 JUMPI POP PUSH1 0x2 DUP2 LT ISZERO JUMPDEST ISZERO PUSH2 0x5B76 JUMPI PUSH1 0x1 PUSH1 0x1 PUSH1 0xA0 SHL SUB DUP4 AND PUSH0 SWAP1 DUP2 MSTORE PUSH1 0x20 DUP8 SWAP1 MSTORE PUSH1 0x40 SWAP1 KECCAK256 PUSH1 0x2 SWAP1 DUP2 ADD DUP1 SLOAD PUSH1 0xFF NOT AND PUSH1 0x1 DUP4 PUSH2 0x5A5E JUMP JUMPDEST PUSH1 0x1 DUP2 LT PUSH2 0x253D JUMPI POP POP PUSH1 0x1 PUSH1 0x1 PUSH1 0xA0 SHL SUB AND PUSH0 SWAP1 DUP2 MSTORE PUSH1 0x20 SWAP4 SWAP1 SWAP4 MSTORE POP POP PUSH1 0x40 SWAP1 KECCAK256 PUSH1 0x2 ADD DUP1 SLOAD PUSH1 0xFF NOT AND PUSH1 0x1 OR SWAP1 SSTORE JUMP JUMPDEST PUSH2 0x1CF8 DUP3 DUP3 PUSH1 0x40 MLOAD PUSH1 0x24 ADD PUSH2 0x5BBF SWAP3 SWAP2 SWAP1 PUSH2 0x7FC0 JUMP JUMPDEST PUSH1 0x40 DUP1 MLOAD PUSH1 0x1F NOT DUP2 DUP5 SUB ADD DUP2 MSTORE SWAP2 SWAP1 MSTORE PUSH1 0x20 DUP2 ADD DUP1 MLOAD PUSH1 0x1 PUSH1 0x1 PUSH1 0xE0 SHL SUB AND PUSH4 0x319AF333 PUSH1 0xE0 SHL OR SWAP1 MSTORE PUSH2 0x6685 JUMP JUMPDEST PUSH1 0xE SLOAD PUSH0 SWAP1 PUSH1 0x1 PUSH1 0x1 PUSH1 0x40 SHL SUB DUP2 GT ISZERO PUSH2 0x5C0A JUMPI PUSH2 0x5C0A PUSH2 0x6F21 JUMP JUMPDEST PUSH1 0x40 MLOAD SWAP1 DUP1 DUP3 MSTORE DUP1 PUSH1 0x20 MUL PUSH1 0x20 ADD DUP3 ADD PUSH1 0x40 MSTORE DUP1 ISZERO PUSH2 0x5C33 JUMPI DUP2 PUSH1 0x20 ADD PUSH1 0x20 DUP3 MUL DUP1 CALLDATASIZE DUP4 CALLDATACOPY ADD SWAP1 POP JUMPDEST POP SWAP1 POP PUSH0 DUP1 JUMPDEST PUSH1 0xE SLOAD DUP2 LT ISZERO PUSH2 0x5CF4 JUMPI PUSH1 0x4 PUSH0 PUSH1 0xE DUP4 DUP2 SLOAD DUP2 LT PUSH2 0x5C59 JUMPI PUSH2 0x5C59 PUSH2 0x768A JUMP JUMPDEST PUSH0 SWAP2 DUP3 MSTORE PUSH1 0x20 DUP1 DUP4 KECCAK256 SWAP1 SWAP2 ADD SLOAD PUSH1 0x1 PUSH1 0x1 PUSH1 0xA0 SHL SUB AND DUP4 MSTORE DUP3 ADD SWAP3 SWAP1 SWAP3 MSTORE PUSH1 0x40 ADD DUP2 KECCAK256 PUSH1 0x1 ADD SLOAD SWAP1 SUB PUSH2 0x5CEC JUMPI PUSH1 0xE DUP2 DUP2 SLOAD DUP2 LT PUSH2 0x5C99 JUMPI PUSH2 0x5C99 PUSH2 0x768A JUMP JUMPDEST SWAP1 PUSH0 MSTORE PUSH1 0x20 PUSH0 KECCAK256 ADD PUSH0 SWAP1 SLOAD SWAP1 PUSH2 0x100 EXP SWAP1 DIV PUSH1 0x1 PUSH1 0x1 PUSH1 0xA0 SHL SUB AND DUP4 DUP4 DUP2 MLOAD DUP2 LT PUSH2 0x5CC6 JUMPI PUSH2 0x5CC6 PUSH2 0x768A JUMP JUMPDEST PUSH1 0x1 PUSH1 0x1 PUSH1 0xA0 SHL SUB SWAP1 SWAP3 AND PUSH1 0x20 SWAP3 DUP4 MUL SWAP2 SWAP1 SWAP2 ADD SWAP1 SWAP2 ADD MSTORE DUP2 PUSH2 0x5CE8 DUP2 PUSH2 0x76CB JUMP JUMPDEST SWAP3 POP POP JUMPDEST PUSH1 0x1 ADD PUSH2 0x5C39 JUMP JUMPDEST POP DUP1 DUP3 MSTORE PUSH2 0x90D PUSH1 0xE PUSH1 0x20 DUP5 ADD DUP4 PUSH2 0x6E0F JUMP JUMPDEST PUSH2 0x1CF8 DUP3 DUP3 PUSH1 0x40 MLOAD PUSH1 0x24 ADD PUSH2 0x5D1D SWAP3 SWAP2 SWAP1 PUSH2 0x7FE9 JUMP JUMPDEST PUSH1 0x40 DUP1 MLOAD PUSH1 0x1F NOT DUP2 DUP5 SUB ADD DUP2 MSTORE SWAP2 SWAP1 MSTORE PUSH1 0x20 DUP2 ADD DUP1 MLOAD PUSH1 0x1 PUSH1 0x1 PUSH1 0xE0 SHL SUB AND PUSH4 0x9710A9D PUSH1 0xE4 SHL OR SWAP1 MSTORE PUSH2 0x6685 JUMP JUMPDEST PUSH2 0x5D8F DUP2 PUSH1 0x40 MLOAD PUSH1 0x24 ADD PUSH2 0x5D60 SWAP2 SWAP1 PUSH2 0x800A JUMP JUMPDEST PUSH1 0x40 DUP1 MLOAD PUSH1 0x1F NOT DUP2 DUP5 SUB ADD DUP2 MSTORE SWAP2 SWAP1 MSTORE PUSH1 0x20 DUP2 ADD DUP1 MLOAD PUSH1 0x1 PUSH1 0x1 PUSH1 0xE0 SHL SUB AND PUSH4 0x104C13EB PUSH1 0xE2 SHL OR SWAP1 MSTORE PUSH2 0x6685 JUMP JUMPDEST POP JUMP JUMPDEST PUSH1 0x1 PUSH1 0x1 PUSH1 0xA0 SHL SUB DUP4 DUP2 AND PUSH0 SWAP1 DUP2 MSTORE PUSH1 0x12 PUSH1 0x20 MSTORE PUSH1 0x40 SWAP1 KECCAK256 SLOAD AND ISZERO PUSH2 0x5DCF JUMPI PUSH1 0x1 PUSH1 0x1 PUSH1 0xA0 SHL SUB SWAP3 DUP4 AND PUSH0 SWAP1 DUP2 MSTORE PUSH1 0x12 PUSH1 0x20 MSTORE PUSH1 0x40 SWAP1 KECCAK256 SLOAD SWAP1 SWAP3 AND SWAP2 JUMPDEST PUSH1 0x1 PUSH1 0x1 PUSH1 0xA0 SHL SUB DUP4 AND PUSH0 SWAP1 DUP2 MSTORE PUSH1 0x5 PUSH1 0x20 MSTORE PUSH1 0x40 DUP2 KECCAK256 PUSH1 0x2 ADD DUP1 SLOAD DUP5 SWAP3 SWAP1 PUSH2 0x5DF9 SWAP1 DUP5 SWAP1 PUSH2 0x7664 JUMP JUMPDEST SWAP1 SWAP2 SSTORE POP POP PUSH1 0x1 PUSH1 0x1 PUSH1 0xA0 SHL SUB DUP4 AND PUSH0 SWAP1 DUP2 MSTORE PUSH1 0x8 PUSH1 0x20 MSTORE PUSH1 0x40 DUP2 KECCAK256 DUP1 SLOAD DUP5 SWAP3 SWAP1 PUSH2 0x5E25 SWAP1 DUP5 SWAP1 PUSH2 0x7664 JUMP JUMPDEST SWAP1 SWAP2 SSTORE POP POP PUSH1 0x40 DUP1 MLOAD DUP1 DUP3 ADD SWAP1 SWAP2 MSTORE PUSH1 0x8 DUP2 MSTORE PUSH8 0x3AB9B2B91036309D PUSH1 0xC1 SHL PUSH1 0x20 DUP3 ADD MSTORE PUSH2 0x5E53 SWAP1 DUP5 PUSH2 0x5BA9 JUMP JUMPDEST PUSH2 0x5EB1 PUSH1 0x40 MLOAD DUP1 PUSH1 0x40 ADD PUSH1 0x40 MSTORE DUP1 PUSH1 0x19 DUP2 MSTORE PUSH1 0x20 ADD PUSH25 0x383937B23AB1BA21282A3434B9A6B7B73A342DBAB9B2B92E9D PUSH1 0x39 SHL DUP2 MSTORE POP PUSH1 0x8 PUSH0 DUP7 PUSH1 0x1 PUSH1 0x1 PUSH1 0xA0 SHL SUB AND PUSH1 0x1 PUSH1 0x1 PUSH1 0xA0 SHL SUB AND DUP2 MSTORE PUSH1 0x20 ADD SWAP1 DUP2 MSTORE PUSH1 0x20 ADD PUSH0 KECCAK256 SLOAD PUSH2 0x5D07 JUMP JUMPDEST PUSH1 0x1 PUSH1 0x1 PUSH1 0xA0 SHL SUB DUP4 AND PUSH0 SWAP1 DUP2 MSTORE PUSH1 0x20 DUP2 SWAP1 MSTORE PUSH1 0x40 DUP2 KECCAK256 SLOAD DUP4 SWAP1 DUP3 SWAP1 ISZERO PUSH2 0x5F1B JUMPI PUSH2 0x5EDE PUSH0 DUP8 PUSH1 0x14 PUSH2 0x66A5 JUMP JUMPDEST SWAP3 POP PUSH2 0x3E8 PUSH2 0x5EEF PUSH2 0x145 DUP8 PUSH2 0x7841 JUMP JUMPDEST PUSH2 0x5EF9 SWAP2 SWAP1 PUSH2 0x782E JUMP JUMPDEST SWAP2 POP PUSH2 0x3E8 PUSH2 0x5F0A DUP7 PUSH2 0x113 PUSH2 0x7841 JUMP JUMPDEST PUSH2 0x5F14 SWAP2 SWAP1 PUSH2 0x782E JUMP JUMPDEST SWAP1 POP PUSH2 0x5F39 JUMP JUMPDEST PUSH1 0x14 SWAP3 POP PUSH1 0x64 PUSH2 0x5F2C DUP7 PUSH1 0x20 PUSH2 0x7841 JUMP JUMPDEST PUSH2 0x5F36 SWAP2 SWAP1 PUSH2 0x782E JUMP JUMPDEST SWAP1 POP JUMPDEST PUSH1 0x2 PUSH1 0x1 PUSH1 0x1 PUSH1 0xA0 SHL SUB DUP8 AND PUSH0 SWAP1 DUP2 MSTORE PUSH1 0x4 PUSH1 0x20 MSTORE PUSH1 0x40 SWAP1 KECCAK256 PUSH1 0x2 ADD SLOAD PUSH2 0x100 SWAP1 DIV PUSH1 0xFF AND PUSH1 0x3 DUP2 GT ISZERO PUSH2 0x5F6F JUMPI PUSH2 0x5F6F PUSH2 0x7147 JUMP JUMPDEST EQ PUSH2 0x5FEE JUMPI PUSH1 0x1B SLOAD PUSH1 0x1 PUSH1 0x1 PUSH1 0xA0 SHL SUB AND PUSH4 0xE115DC7F DUP8 DUP7 PUSH1 0x64 PUSH2 0x5F93 DUP9 DUP12 PUSH2 0x7841 JUMP JUMPDEST PUSH2 0x5F9D SWAP2 SWAP1 PUSH2 0x782E JUMP JUMPDEST PUSH1 0x1 PUSH0 PUSH1 0x40 MLOAD DUP7 PUSH4 0xFFFFFFFF AND PUSH1 0xE0 SHL DUP2 MSTORE PUSH1 0x4 ADD PUSH2 0x5FC0 SWAP6 SWAP5 SWAP4 SWAP3 SWAP2 SWAP1 PUSH2 0x7858 JUMP JUMPDEST PUSH0 PUSH1 0x40 MLOAD DUP1 DUP4 SUB DUP2 PUSH0 DUP8 DUP1 EXTCODESIZE ISZERO DUP1 ISZERO PUSH2 0x5FD7 JUMPI PUSH0 PUSH0 REVERT JUMPDEST POP GAS CALL ISZERO DUP1 ISZERO PUSH2 0x5FE9 JUMPI RETURNDATASIZE PUSH0 PUSH0 RETURNDATACOPY RETURNDATASIZE PUSH0 REVERT JUMPDEST POP POP POP POP JUMPDEST PUSH0 PUSH1 0x1 PUSH1 0x1 PUSH1 0x1 PUSH1 0xA0 SHL SUB DUP9 AND PUSH0 SWAP1 DUP2 MSTORE PUSH1 0x4 PUSH1 0x20 MSTORE PUSH1 0x40 SWAP1 KECCAK256 PUSH1 0x2 ADD SLOAD PUSH2 0x100 SWAP1 DIV PUSH1 0xFF AND PUSH1 0x3 DUP2 GT ISZERO PUSH2 0x6025 JUMPI PUSH2 0x6025 PUSH2 0x7147 JUMP JUMPDEST EQ SWAP1 POP PUSH2 0x603B PUSH1 0x4 PUSH1 0x5 PUSH1 0x7 PUSH1 0x8 PUSH1 0xA DUP13 PUSH2 0x3F2F JUMP JUMPDEST POP DUP1 ISZERO DUP1 ISZERO PUSH2 0x607D JUMPI POP PUSH1 0x1 PUSH1 0x1 PUSH1 0x1 PUSH1 0xA0 SHL SUB DUP9 AND PUSH0 SWAP1 DUP2 MSTORE PUSH1 0x4 PUSH1 0x20 MSTORE PUSH1 0x40 SWAP1 KECCAK256 PUSH1 0x2 ADD SLOAD PUSH2 0x100 SWAP1 DIV PUSH1 0xFF AND PUSH1 0x3 DUP2 GT ISZERO PUSH2 0x607B JUMPI PUSH2 0x607B PUSH2 0x7147 JUMP JUMPDEST EQ JUMPDEST ISZERO PUSH2 0x608F JUMPI PUSH2 0x608F PUSH1 0x4 PUSH1 0xC DUP10 PUSH2 0x472F JUMP JUMPDEST DUP7 PUSH1 0x1 PUSH1 0x1 PUSH1 0xA0 SHL SUB AND PUSH32 0xDF1AC62D04B5B70D0905C8F87D228F5DA1978AB102137D771163B0ADE4EB2FEE DUP8 PUSH1 0x40 MLOAD PUSH2 0x60CA SWAP2 DUP2 MSTORE PUSH1 0x20 ADD SWAP1 JUMP JUMPDEST PUSH1 0x40 MLOAD DUP1 SWAP2 SUB SWAP1 LOG2 PUSH1 0x1B SLOAD PUSH2 0x60F0 SWAP1 PUSH1 0x4 SWAP1 PUSH1 0xC SWAP1 PUSH1 0x1 PUSH1 0x1 PUSH1 0xA0 SHL SUB AND DUP11 DUP8 DUP11 PUSH2 0x66F0 JUMP JUMPDEST PUSH2 0x60FA DUP8 DUP5 PUSH2 0x68A3 JUMP JUMPDEST PUSH0 PUSH1 0x64 PUSH2 0x6108 PUSH1 0x2 DUP7 PUSH2 0x7841 JUMP JUMPDEST PUSH2 0x6112 SWAP2 SWAP1 PUSH2 0x782E JUMP JUMPDEST PUSH1 0x1B SLOAD PUSH1 0x40 MLOAD PUSH4 0x43CFF6B PUSH1 0xE3 SHL DUP2 MSTORE PUSH1 0x4 DUP2 ADD DUP4 SWAP1 MSTORE PUSH1 0x24 DUP2 ADD DUP10 SWAP1 MSTORE SWAP2 SWAP3 POP PUSH1 0x1 PUSH1 0x1 PUSH1 0xA0 SHL SUB AND SWAP1 PUSH4 0x21E7FB58 SWAP1 PUSH1 0x44 ADD PUSH0 PUSH1 0x40 MLOAD DUP1 DUP4 SUB DUP2 PUSH0 DUP8 DUP1 EXTCODESIZE ISZERO DUP1 ISZERO PUSH2 0x615D JUMPI PUSH0 PUSH0 REVERT JUMPDEST POP GAS CALL ISZERO DUP1 ISZERO PUSH2 0x616F JUMPI RETURNDATASIZE PUSH0 PUSH0 RETURNDATACOPY RETURNDATASIZE PUSH0 REVERT JUMPDEST POP POP POP POP PUSH1 0x1 PUSH1 0x1 PUSH1 0xA0 SHL SUB DUP9 DUP2 AND PUSH0 SWAP1 DUP2 MSTORE PUSH1 0x6 PUSH1 0x20 MSTORE PUSH1 0x40 SWAP1 KECCAK256 SLOAD AND DUP1 ISZERO PUSH2 0x62FA JUMPI PUSH1 0x1C SLOAD PUSH1 0x40 MLOAD PUSH4 0xF08AE3F PUSH1 0xE4 SHL DUP2 MSTORE PUSH0 SWAP2 PUSH1 0x1 PUSH1 0x1 PUSH1 0xA0 SHL SUB AND SWAP1 PUSH4 0xF08AE3F0 SWAP1 PUSH2 0x61C3 SWAP1 DUP6 SWAP1 PUSH1 0x4 ADD PUSH2 0x734E JUMP JUMPDEST PUSH1 0x20 PUSH1 0x40 MLOAD DUP1 DUP4 SUB DUP2 PUSH0 DUP8 GAS CALL ISZERO DUP1 ISZERO PUSH2 0x61DF JUMPI RETURNDATASIZE PUSH0 PUSH0 RETURNDATACOPY RETURNDATASIZE PUSH0 REVERT JUMPDEST POP POP POP POP PUSH1 0x40 MLOAD RETURNDATASIZE PUSH1 0x1F NOT PUSH1 0x1F DUP3 ADD AND DUP3 ADD DUP1 PUSH1 0x40 MSTORE POP DUP2 ADD SWAP1 PUSH2 0x6203 SWAP2 SWAP1 PUSH2 0x79AD JUMP JUMPDEST SWAP1 POP PUSH0 PUSH2 0x2710 DUP3 PUSH2 0x6215 PUSH1 0x1 DUP11 PUSH2 0x7841 JUMP JUMPDEST PUSH2 0x621F SWAP2 SWAP1 PUSH2 0x7841 JUMP JUMPDEST PUSH2 0x6229 SWAP2 SWAP1 PUSH2 0x782E JUMP JUMPDEST SWAP1 POP DUP1 ISZERO PUSH2 0x62F7 JUMPI PUSH1 0x1B SLOAD PUSH1 0x40 MLOAD PUSH4 0xE115DC7F PUSH1 0xE0 SHL DUP2 MSTORE PUSH1 0x1 PUSH1 0x1 PUSH1 0xA0 SHL SUB SWAP1 SWAP2 AND SWAP1 PUSH4 0xE115DC7F SWAP1 PUSH2 0x626A SWAP1 DUP7 SWAP1 DUP14 SWAP1 DUP7 SWAP1 PUSH1 0x1 SWAP1 PUSH0 SWAP1 PUSH1 0x4 ADD PUSH2 0x7858 JUMP JUMPDEST PUSH0 PUSH1 0x40 MLOAD DUP1 DUP4 SUB DUP2 PUSH0 DUP8 DUP1 EXTCODESIZE ISZERO DUP1 ISZERO PUSH2 0x6281 JUMPI PUSH0 PUSH0 REVERT JUMPDEST POP GAS CALL ISZERO DUP1 ISZERO PUSH2 0x6293 JUMPI RETURNDATASIZE PUSH0 PUSH0 RETURNDATACOPY RETURNDATASIZE PUSH0 REVERT JUMPDEST POP POP PUSH1 0x1C SLOAD PUSH1 0x40 MLOAD PUSH4 0xC849C1D PUSH1 0xE4 SHL DUP2 MSTORE PUSH1 0x1 PUSH1 0x1 PUSH1 0xA0 SHL SUB SWAP1 SWAP2 AND SWAP3 POP PUSH4 0xC849C1D0 SWAP2 POP PUSH2 0x62C9 SWAP1 DUP7 SWAP1 DUP6 SWAP1 PUSH1 0x4 ADD PUSH2 0x79C4 JUMP JUMPDEST PUSH0 PUSH1 0x40 MLOAD DUP1 DUP4 SUB DUP2 PUSH0 DUP8 DUP1 EXTCODESIZE ISZERO DUP1 ISZERO PUSH2 0x62E0 JUMPI PUSH0 PUSH0 REVERT JUMPDEST POP GAS CALL ISZERO DUP1 ISZERO PUSH2 0x62F2 JUMPI RETURNDATASIZE PUSH0 PUSH0 RETURNDATACOPY RETURNDATASIZE PUSH0 REVERT JUMPDEST POP POP POP POP JUMPDEST POP POP JUMPDEST PUSH1 0x1B SLOAD PUSH2 0x631B SWAP1 PUSH1 0x4 SWAP1 PUSH1 0xD SWAP1 PUSH1 0xB SWAP1 PUSH1 0x1 PUSH1 0x1 PUSH1 0xA0 SHL SUB AND DUP14 DUP14 DUP14 PUSH2 0x691D JUMP JUMPDEST PUSH1 0x1B SLOAD PUSH1 0x15 SLOAD PUSH1 0x1 PUSH1 0x1 PUSH1 0xA0 SHL SUB SWAP2 DUP3 AND SWAP2 PUSH4 0xE115DC7F SWAP2 AND DUP10 PUSH1 0x64 PUSH2 0x6342 PUSH1 0x4 DUP12 PUSH2 0x7841 JUMP JUMPDEST PUSH2 0x634C SWAP2 SWAP1 PUSH2 0x782E JUMP JUMPDEST PUSH1 0x1 DUP1 PUSH1 0x40 MLOAD DUP7 PUSH4 0xFFFFFFFF AND PUSH1 0xE0 SHL DUP2 MSTORE PUSH1 0x4 ADD PUSH2 0x636F SWAP6 SWAP5 SWAP4 SWAP3 SWAP2 SWAP1 PUSH2 0x7858 JUMP JUMPDEST PUSH0 PUSH1 0x40 MLOAD DUP1 DUP4 SUB DUP2 PUSH0 DUP8 DUP1 EXTCODESIZE ISZERO DUP1 ISZERO PUSH2 0x6386 JUMPI PUSH0 PUSH0 REVERT JUMPDEST POP GAS CALL ISZERO DUP1 ISZERO PUSH2 0x6398 JUMPI RETURNDATASIZE PUSH0 PUSH0 RETURNDATACOPY RETURNDATASIZE PUSH0 REVERT JUMPDEST POP POP PUSH1 0x1B SLOAD PUSH1 0x16 SLOAD PUSH1 0x40 MLOAD PUSH4 0xE115DC7F PUSH1 0xE0 SHL DUP2 MSTORE PUSH1 0x1 PUSH1 0x1 PUSH1 0xA0 SHL SUB SWAP3 DUP4 AND SWAP5 POP PUSH4 0xE115DC7F SWAP4 POP PUSH2 0x63DB SWAP3 SWAP1 SWAP2 AND SWAP1 DUP12 SWAP1 DUP10 SWAP1 PUSH1 0x1 SWAP1 PUSH1 0x2 SWAP1 PUSH1 0x4 ADD PUSH2 0x7858 JUMP JUMPDEST PUSH0 PUSH1 0x40 MLOAD DUP1 DUP4 SUB DUP2 PUSH0 DUP8 DUP1 EXTCODESIZE ISZERO DUP1 ISZERO PUSH2 0x63F2 JUMPI PUSH0 PUSH0 REVERT JUMPDEST POP GAS CALL ISZERO DUP1 ISZERO PUSH2 0x6404 JUMPI RETURNDATASIZE PUSH0 PUSH0 RETURNDATACOPY RETURNDATASIZE PUSH0 REVERT JUMPDEST POP POP POP POP POP POP POP POP POP POP POP POP POP JUMP JUMPDEST PUSH1 0x40 DUP1 MLOAD PUSH1 0x60 DUP2 ADD DUP3 MSTORE PUSH1 0x1 PUSH1 0x1 PUSH1 0xA0 SHL SUB SWAP5 DUP6 AND DUP2 MSTORE SWAP3 DUP5 AND PUSH1 0x20 DUP1 DUP6 ADD SWAP2 DUP3 MSTORE SWAP3 DUP6 AND DUP5 DUP4 ADD SWAP1 DUP2 MSTORE SWAP7 DUP6 AND PUSH0 SWAP1 DUP2 MSTORE SWAP8 DUP4 MSTORE DUP2 DUP9 KECCAK256 PUSH1 0xFF SWAP1 SWAP7 AND DUP9 MSTORE SWAP5 SWAP1 SWAP2 MSTORE SWAP1 SWAP5 KECCAK256 SWAP4 MLOAD DUP5 SLOAD SWAP1 DUP3 AND PUSH1 0x1 PUSH1 0x1 PUSH1 0xA0 SHL SUB NOT SWAP2 DUP3 AND OR DUP6 SSTORE SWAP2 MLOAD PUSH1 0x1 DUP6 ADD DUP1 SLOAD SWAP2 DUP4 AND SWAP2 DUP5 AND SWAP2 SWAP1 SWAP2 OR SWAP1 SSTORE SWAP2 MLOAD PUSH1 0x2 SWAP1 SWAP4 ADD DUP1 SLOAD SWAP4 SWAP1 SWAP3 AND SWAP3 AND SWAP2 SWAP1 SWAP2 OR SWAP1 SSTORE JUMP JUMPDEST PUSH1 0x1 PUSH1 0x1 PUSH1 0xA0 SHL SUB DUP4 AND ISZERO PUSH2 0x37D9 JUMPI PUSH1 0x1 PUSH1 0x1 PUSH1 0xA0 SHL SUB SWAP3 DUP4 AND PUSH0 SWAP1 DUP2 MSTORE PUSH1 0x20 DUP6 DUP2 MSTORE PUSH1 0x40 DUP1 DUP4 KECCAK256 PUSH1 0xFF SWAP5 SWAP1 SWAP5 AND DUP1 DUP5 MSTORE SWAP4 DUP3 MSTORE DUP1 DUP4 KECCAK256 DUP2 MLOAD PUSH1 0x60 DUP2 ADD DUP4 MSTORE DUP2 SLOAD DUP9 AND DUP2 MSTORE PUSH1 0x1 DUP1 DUP4 ADD SLOAD DUP10 AND DUP3 DUP7 ADD SWAP1 DUP2 MSTORE PUSH1 0x2 SWAP4 DUP5 ADD SLOAD DUP11 AND DUP4 DUP7 ADD SWAP1 DUP2 MSTORE SWAP9 DUP11 AND DUP8 MSTORE SWAP10 DUP6 MSTORE DUP4 DUP7 KECCAK256 SWAP7 DUP7 MSTORE SWAP6 SWAP1 SWAP4 MSTORE SWAP3 KECCAK256 SWAP1 MLOAD DUP2 SLOAD PUSH1 0x1 PUSH1 0x1 PUSH1 0xA0 SHL SUB NOT SWAP1 DUP2 AND SWAP2 DUP8 AND SWAP2 SWAP1 SWAP2 OR DUP3 SSTORE SWAP6 MLOAD SWAP3 DUP2 ADD DUP1 SLOAD DUP8 AND SWAP4 DUP7 AND SWAP4 SWAP1 SWAP4 OR SWAP1 SWAP3 SSTORE SWAP2 MLOAD SWAP2 ADD DUP1 SLOAD SWAP1 SWAP4 AND SWAP2 AND OR SWAP1 SSTORE JUMP JUMPDEST PUSH1 0x1 PUSH1 0x1 PUSH1 0xA0 SHL SUB DUP1 DUP3 AND PUSH0 SWAP1 DUP2 MSTORE PUSH1 0x20 DUP6 SWAP1 MSTORE PUSH1 0x40 DUP2 KECCAK256 SLOAD SWAP1 SWAP2 AND JUMPDEST PUSH1 0x1 PUSH1 0x1 PUSH1 0xA0 SHL SUB DUP2 AND ISZERO PUSH2 0x65D8 JUMPI PUSH1 0x1 PUSH1 0x1 PUSH1 0x1 PUSH1 0xA0 SHL SUB DUP3 AND PUSH0 SWAP1 DUP2 MSTORE PUSH1 0x20 DUP8 SWAP1 MSTORE PUSH1 0x40 SWAP1 KECCAK256 PUSH1 0x2 ADD SLOAD PUSH2 0x100 SWAP1 DIV PUSH1 0xFF AND PUSH1 0x3 DUP2 GT ISZERO PUSH2 0x65AD JUMPI PUSH2 0x65AD PUSH2 0x7147 JUMP JUMPDEST SUB PUSH2 0x65B9 JUMPI SWAP1 POP PUSH2 0x1B7A JUMP JUMPDEST PUSH1 0x1 PUSH1 0x1 PUSH1 0xA0 SHL SUB SWAP1 DUP2 AND PUSH0 SWAP1 DUP2 MSTORE PUSH1 0x20 DUP6 SWAP1 MSTORE PUSH1 0x40 SWAP1 KECCAK256 SLOAD AND PUSH2 0x6568 JUMP JUMPDEST POP PUSH0 SWAP5 SWAP4 POP POP POP POP JUMP JUMPDEST PUSH1 0x1 PUSH1 0x1 PUSH1 0xA0 SHL SUB DUP2 AND PUSH0 SWAP1 DUP2 MSTORE PUSH1 0x20 DUP4 SWAP1 MSTORE PUSH1 0x40 DUP2 KECCAK256 DUP2 SWAP1 PUSH1 0x1 ADD DUP2 JUMPDEST DUP2 SLOAD DUP2 LT ISZERO PUSH2 0x667B JUMPI PUSH1 0x1 DUP7 PUSH0 DUP5 DUP5 DUP2 SLOAD DUP2 LT PUSH2 0x661F JUMPI PUSH2 0x661F PUSH2 0x768A JUMP JUMPDEST PUSH0 SWAP2 DUP3 MSTORE PUSH1 0x20 DUP1 DUP4 KECCAK256 SWAP1 SWAP2 ADD SLOAD PUSH1 0x1 PUSH1 0x1 PUSH1 0xA0 SHL SUB AND DUP4 MSTORE DUP3 ADD SWAP3 SWAP1 SWAP3 MSTORE PUSH1 0x40 ADD SWAP1 KECCAK256 PUSH1 0x2 ADD SLOAD PUSH1 0xFF PUSH2 0x100 SWAP1 SWAP2 DIV AND PUSH1 0x3 DUP2 GT ISZERO PUSH2 0x6660 JUMPI PUSH2 0x6660 PUSH2 0x7147 JUMP JUMPDEST SUB PUSH2 0x6673 JUMPI DUP3 PUSH2 0x666F DUP2 PUSH2 0x76CB JUMP JUMPDEST SWAP4 POP POP JUMPDEST PUSH1 0x1 ADD PUSH2 0x6600 JUMP JUMPDEST POP SWAP1 SWAP5 SWAP4 POP POP POP POP JUMP JUMPDEST DUP1 MLOAD PUSH11 0x636F6E736F6C652E6C6F67 PUSH1 0x20 DUP4 ADD PUSH0 DUP1 DUP5 DUP4 DUP6 GAS STATICCALL POP POP POP POP POP JUMP JUMPDEST PUSH1 0x1 PUSH1 0x1 PUSH1 0xA0 SHL SUB DUP3 AND PUSH0 SWAP1 DUP2 MSTORE PUSH1 0x20 DUP5 SWAP1 MSTORE PUSH1 0x40 DUP2 KECCAK256 SLOAD DUP1 PUSH2 0x66C8 JUMPI DUP3 PUSH2 0x66E7 JUMP JUMPDEST DUP5 PUSH1 0x1 ADD DUP2 DUP2 SLOAD DUP2 LT PUSH2 0x66DD JUMPI PUSH2 0x66DD PUSH2 0x768A JUMP JUMPDEST SWAP1 PUSH0 MSTORE PUSH1 0x20 PUSH0 KECCAK256 ADD SLOAD JUMPDEST SWAP6 SWAP5 POP POP POP POP POP JUMP JUMPDEST PUSH1 0x1 PUSH1 0x1 PUSH1 0xA0 SHL SUB DUP1 DUP5 AND PUSH0 SWAP1 DUP2 MSTORE PUSH1 0x20 DUP8 SWAP1 MSTORE PUSH1 0x40 DUP2 KECCAK256 SLOAD SWAP1 SWAP2 AND SWAP1 PUSH1 0x1 SWAP1 PUSH1 0x60 SWAP1 DUP2 SWAP1 JUMPDEST PUSH1 0x5 DUP5 PUSH1 0xFF AND GT ISZERO DUP1 ISZERO PUSH2 0x6732 JUMPI POP PUSH1 0x1 PUSH1 0x1 PUSH1 0xA0 SHL SUB DUP6 AND ISZERO ISZERO JUMPDEST ISZERO PUSH2 0x6833 JUMPI PUSH0 DUP5 PUSH1 0xFF AND PUSH1 0x1 EQ PUSH2 0x674A JUMPI PUSH1 0x5 PUSH2 0x674D JUMP JUMPDEST PUSH1 0xA JUMPDEST SWAP1 POP PUSH0 PUSH1 0x64 PUSH2 0x675C DUP4 DUP12 PUSH2 0x7841 JUMP JUMPDEST PUSH2 0x6766 SWAP2 SWAP1 PUSH2 0x782E JUMP JUMPDEST SWAP1 POP PUSH1 0x2 PUSH1 0x1 PUSH1 0x1 PUSH1 0xA0 SHL SUB DUP9 AND PUSH0 SWAP1 DUP2 MSTORE PUSH1 0x20 DUP16 SWAP1 MSTORE PUSH1 0x40 SWAP1 KECCAK256 PUSH1 0x2 ADD SLOAD PUSH2 0x100 SWAP1 DIV PUSH1 0xFF AND PUSH1 0x3 DUP2 GT ISZERO PUSH2 0x679E JUMPI PUSH2 0x679E PUSH2 0x7147 JUMP JUMPDEST EQ PUSH2 0x6802 JUMPI DUP7 DUP6 DUP5 DUP2 MLOAD DUP2 LT PUSH2 0x67B6 JUMPI PUSH2 0x67B6 PUSH2 0x768A JUMP JUMPDEST PUSH1 0x20 MUL PUSH1 0x20 ADD ADD SWAP1 PUSH1 0x1 PUSH1 0x1 PUSH1 0xA0 SHL SUB AND SWAP1 DUP2 PUSH1 0x1 PUSH1 0x1 PUSH1 0xA0 SHL SUB AND DUP2 MSTORE POP POP DUP1 DUP5 DUP5 DUP2 MLOAD DUP2 LT PUSH2 0x67E9 JUMPI PUSH2 0x67E9 PUSH2 0x768A JUMP JUMPDEST PUSH1 0x20 SWAP1 DUP2 MUL SWAP2 SWAP1 SWAP2 ADD ADD MSTORE DUP3 PUSH2 0x67FE DUP2 PUSH2 0x76CB JUMP JUMPDEST SWAP4 POP POP JUMPDEST PUSH1 0x1 PUSH1 0x1 PUSH1 0xA0 SHL SUB SWAP7 DUP8 AND PUSH0 SWAP1 DUP2 MSTORE PUSH1 0x20 DUP14 SWAP1 MSTORE PUSH1 0x40 SWAP1 KECCAK256 SLOAD SWAP1 SWAP7 AND SWAP6 DUP6 PUSH2 0x6829 DUP2 PUSH2 0x7D3F JUMP JUMPDEST SWAP7 POP POP POP POP PUSH2 0x6716 JUMP JUMPDEST PUSH1 0x40 MLOAD PUSH4 0xBD0DC97 PUSH1 0xE4 SHL DUP2 MSTORE PUSH1 0x1 PUSH1 0x1 PUSH1 0xA0 SHL SUB DUP11 AND SWAP1 PUSH4 0xBD0DC970 SWAP1 PUSH2 0x6869 SWAP1 DUP10 SWAP1 DUP8 SWAP1 DUP8 SWAP1 PUSH1 0x1 SWAP1 PUSH1 0x6 SWAP1 PUSH1 0x4 ADD PUSH2 0x7EF7 JUMP JUMPDEST PUSH0 PUSH1 0x40 MLOAD DUP1 DUP4 SUB DUP2 PUSH0 DUP8 DUP1 EXTCODESIZE ISZERO DUP1 ISZERO PUSH2 0x6880 JUMPI PUSH0 PUSH0 REVERT JUMPDEST POP GAS CALL ISZERO DUP1 ISZERO PUSH2 0x6892 JUMPI RETURNDATASIZE PUSH0 PUSH0 RETURNDATACOPY RETURNDATASIZE PUSH0 REVERT JUMPDEST POP POP POP POP POP POP POP POP POP POP POP POP POP POP POP JUMP JUMPDEST PUSH1 0x1 PUSH1 0x1 PUSH1 0xA0 SHL SUB DUP3 AND PUSH0 SWAP1 DUP2 MSTORE PUSH1 0x19 PUSH1 0x20 MSTORE PUSH1 0x40 SWAP1 KECCAK256 PUSH1 0x1 ADD SLOAD PUSH1 0xFF AND PUSH2 0x68ED JUMPI PUSH1 0x1 PUSH1 0x1 PUSH1 0xA0 SHL SUB DUP3 AND PUSH0 SWAP1 DUP2 MSTORE PUSH1 0x19 PUSH1 0x20 MSTORE PUSH1 0x40 SWAP1 KECCAK256 PUSH1 0x1 SWAP1 DUP2 ADD DUP1 SLOAD PUSH1 0xFF NOT AND SWAP1 SWAP2 OR SWAP1 SSTORE JUMPDEST PUSH1 0x1 PUSH1 0x1 PUSH1 0xA0 SHL SUB DUP3 AND PUSH0 SWAP1 DUP2 MSTORE PUSH1 0x19 PUSH1 0x20 MSTORE PUSH1 0x40 DUP2 KECCAK256 DUP1 SLOAD DUP4 SWAP3 SWAP1 PUSH2 0x6914 SWAP1 DUP5 SWAP1 PUSH2 0x7664 JUMP JUMPDEST SWAP1 SWAP2 SSTORE POP POP POP POP JUMP JUMPDEST PUSH1 0x1 PUSH1 0x1 PUSH1 0xA0 SHL SUB DUP1 DUP5 AND PUSH0 SWAP1 DUP2 MSTORE PUSH1 0x20 DUP10 SWAP1 MSTORE PUSH1 0x40 DUP2 KECCAK256 SLOAD SWAP1 SWAP2 AND SWAP1 PUSH2 0x6944 DUP10 DUP7 PUSH2 0x6A7F JUMP JUMPDEST PUSH1 0x1 PUSH1 0x1 PUSH1 0xA0 SHL SUB DUP7 AND PUSH0 SWAP1 DUP2 MSTORE PUSH1 0x20 DUP12 SWAP1 MSTORE PUSH1 0x40 DUP2 KECCAK256 PUSH1 0x2 ADD SLOAD SWAP2 SWAP3 POP PUSH1 0xFF SWAP2 DUP3 AND SWAP2 DUP2 SWAP1 DUP2 SWAP1 DUP2 SWAP1 DUP7 AND ISZERO PUSH2 0x6A15 JUMPI PUSH0 SWAP4 POP PUSH1 0x5 DUP6 PUSH1 0x7 DUP2 GT ISZERO PUSH2 0x698C JUMPI PUSH2 0x698C PUSH2 0x7147 JUMP JUMPDEST SUB PUSH2 0x69CC JUMPI POP POP PUSH1 0x1 PUSH1 0x1 PUSH1 0xA0 SHL SUB DUP6 DUP2 AND PUSH0 SWAP1 DUP2 MSTORE PUSH1 0x20 DUP14 DUP2 MSTORE PUSH1 0x40 DUP1 DUP4 KECCAK256 PUSH1 0xFF DUP10 AND DUP5 MSTORE SWAP1 SWAP2 MSTORE SWAP1 KECCAK256 PUSH1 0x1 DUP2 ADD SLOAD PUSH1 0x2 SWAP1 SWAP2 ADD SLOAD SWAP1 DUP3 AND SWAP2 AND PUSH2 0x6A60 JUMP JUMPDEST PUSH1 0x6 DUP6 PUSH1 0x7 DUP2 GT ISZERO PUSH2 0x69E0 JUMPI PUSH2 0x69E0 PUSH2 0x7147 JUMP JUMPDEST SUB PUSH2 0x6A10 JUMPI POP PUSH1 0x1 PUSH1 0x1 PUSH1 0xA0 SHL SUB DUP1 DUP8 AND PUSH0 SWAP1 DUP2 MSTORE PUSH1 0x20 DUP15 DUP2 MSTORE PUSH1 0x40 DUP1 DUP4 KECCAK256 PUSH1 0xFF DUP11 AND DUP5 MSTORE SWAP1 SWAP2 MSTORE SWAP1 KECCAK256 PUSH1 0x2 ADD SLOAD AND JUMPDEST PUSH2 0x6A60 JUMP JUMPDEST POP POP POP POP PUSH1 0x1 PUSH1 0x1 PUSH1 0xA0 SHL SUB DUP4 DUP2 AND PUSH0 SWAP1 DUP2 MSTORE PUSH1 0x20 DUP11 DUP2 MSTORE PUSH1 0x40 DUP1 DUP4 KECCAK256 SLOAD DUP14 DUP4 MSTORE DUP2 DUP5 KECCAK256 PUSH1 0xFF DUP9 AND DUP6 MSTORE SWAP1 SWAP3 MSTORE SWAP1 SWAP2 KECCAK256 DUP1 SLOAD PUSH1 0x1 DUP3 ADD SLOAD PUSH1 0x2 SWAP1 SWAP3 ADD SLOAD SWAP3 DUP5 AND SWAP4 SWAP1 DUP2 AND SWAP3 SWAP2 DUP2 AND SWAP2 AND JUMPDEST PUSH2 0x6A6F DUP12 DUP10 DUP12 DUP8 DUP8 DUP8 DUP8 PUSH2 0x6B0F JUMP JUMPDEST POP POP POP POP POP POP POP POP POP POP POP POP POP POP JUMP JUMPDEST PUSH1 0x1 PUSH1 0x1 PUSH1 0xA0 SHL SUB DUP2 AND PUSH0 SWAP1 DUP2 MSTORE PUSH1 0x20 DUP4 SWAP1 MSTORE PUSH1 0x40 DUP2 KECCAK256 PUSH1 0x2 ADD SLOAD PUSH1 0xFF AND PUSH1 0x7 DUP2 PUSH1 0x7 DUP2 GT ISZERO PUSH2 0x6AB1 JUMPI PUSH2 0x6AB1 PUSH2 0x7147 JUMP JUMPDEST SUB PUSH2 0x6AC0 JUMPI PUSH1 0x3 SWAP2 POP POP PUSH2 0x11A2 JUMP JUMPDEST PUSH1 0x6 DUP2 PUSH1 0x7 DUP2 GT ISZERO PUSH2 0x6AD4 JUMPI PUSH2 0x6AD4 PUSH2 0x7147 JUMP JUMPDEST SUB PUSH2 0x6AE3 JUMPI PUSH1 0x2 SWAP2 POP POP PUSH2 0x11A2 JUMP JUMPDEST PUSH1 0x5 DUP2 PUSH1 0x7 DUP2 GT ISZERO PUSH2 0x6AF7 JUMPI PUSH2 0x6AF7 PUSH2 0x7147 JUMP JUMPDEST SUB PUSH2 0x6B06 JUMPI PUSH1 0x1 SWAP2 POP POP PUSH2 0x11A2 JUMP JUMPDEST POP PUSH0 SWAP4 SWAP3 POP POP POP JUMP JUMPDEST PUSH1 0x60 DUP1 PUSH0 PUSH1 0x1 PUSH1 0x1 PUSH1 0xA0 SHL SUB DUP8 AND ISZERO PUSH2 0x6B8F JUMPI DUP7 DUP4 DUP3 DUP2 MLOAD DUP2 LT PUSH2 0x6B35 JUMPI PUSH2 0x6B35 PUSH2 0x768A JUMP JUMPDEST PUSH1 0x1 PUSH1 0x1 PUSH1 0xA0 SHL SUB SWAP1 SWAP3 AND PUSH1 0x20 SWAP3 DUP4 MUL SWAP2 SWAP1 SWAP2 ADD SWAP1 SWAP2 ADD MSTORE PUSH1 0x64 PUSH2 0x6B5A PUSH1 0x2 DUP11 PUSH2 0x7841 JUMP JUMPDEST PUSH2 0x6B64 SWAP2 SWAP1 PUSH2 0x782E JUMP JUMPDEST DUP3 DUP3 DUP2 MLOAD DUP2 LT PUSH2 0x6B76 JUMPI PUSH2 0x6B76 PUSH2 0x768A JUMP JUMPDEST PUSH1 0x20 SWAP1 DUP2 MUL SWAP2 SWAP1 SWAP2 ADD ADD MSTORE DUP1 PUSH2 0x6B8B DUP2 PUSH2 0x76CB JUMP JUMPDEST SWAP2 POP POP JUMPDEST PUSH1 0x1 PUSH1 0x1 PUSH1 0xA0 SHL SUB DUP7 AND ISZERO PUSH2 0x6C0B JUMPI DUP6 DUP4 DUP3 DUP2 MLOAD DUP2 LT PUSH2 0x6BB1 JUMPI PUSH2 0x6BB1 PUSH2 0x768A JUMP JUMPDEST PUSH1 0x1 PUSH1 0x1 PUSH1 0xA0 SHL SUB SWAP1 SWAP3 AND PUSH1 0x20 SWAP3 DUP4 MUL SWAP2 SWAP1 SWAP2 ADD SWAP1 SWAP2 ADD MSTORE PUSH1 0x64 PUSH2 0x6BD6 PUSH1 0x3 DUP11 PUSH2 0x7841 JUMP JUMPDEST PUSH2 0x6BE0 SWAP2 SWAP1 PUSH2 0x782E JUMP JUMPDEST DUP3 DUP3 DUP2 MLOAD DUP2 LT PUSH2 0x6BF2 JUMPI PUSH2 0x6BF2 PUSH2 0x768A JUMP JUMPDEST PUSH1 0x20 SWAP1 DUP2 MUL SWAP2 SWAP1 SWAP2 ADD ADD MSTORE DUP1 PUSH2 0x6C07 DUP2 PUSH2 0x76CB JUMP JUMPDEST SWAP2 POP POP JUMPDEST PUSH1 0x1 PUSH1 0x1 PUSH1 0xA0 SHL SUB DUP6 AND ISZERO PUSH2 0x6C87 JUMPI DUP5 DUP4 DUP3 DUP2 MLOAD DUP2 LT PUSH2 0x6C2D JUMPI PUSH2 0x6C2D PUSH2 0x768A JUMP JUMPDEST PUSH1 0x1 PUSH1 0x1 PUSH1 0xA0 SHL SUB SWAP1 SWAP3 AND PUSH1 0x20 SWAP3 DUP4 MUL SWAP2 SWAP1 SWAP2 ADD SWAP1 SWAP2 ADD MSTORE PUSH1 0x64 PUSH2 0x6C52 PUSH1 0x3 DUP11 PUSH2 0x7841 JUMP JUMPDEST PUSH2 0x6C5C SWAP2 SWAP1 PUSH2 0x782E JUMP JUMPDEST DUP3 DUP3 DUP2 MLOAD DUP2 LT PUSH2 0x6C6E JUMPI PUSH2 0x6C6E PUSH2 0x768A JUMP JUMPDEST PUSH1 0x20 SWAP1 DUP2 MUL SWAP2 SWAP1 SWAP2 ADD ADD MSTORE DUP1 PUSH2 0x6C83 DUP2 PUSH2 0x76CB JUMP JUMPDEST SWAP2 POP POP JUMPDEST PUSH1 0x1 PUSH1 0x1 PUSH1 0xA0 SHL SUB DUP5 AND ISZERO PUSH2 0x6D03 JUMPI DUP4 DUP4 DUP3 DUP2 MLOAD DUP2 LT PUSH2 0x6CA9 JUMPI PUSH2 0x6CA9 PUSH2 0x768A JUMP JUMPDEST PUSH1 0x1 PUSH1 0x1 PUSH1 0xA0 SHL SUB SWAP1 SWAP3 AND PUSH1 0x20 SWAP3 DUP4 MUL SWAP2 SWAP1 SWAP2 ADD SWAP1 SWAP2 ADD MSTORE PUSH1 0x64 PUSH2 0x6CCE PUSH1 0x3 DUP11 PUSH2 0x7841 JUMP JUMPDEST PUSH2 0x6CD8 SWAP2 SWAP1 PUSH2 0x782E JUMP JUMPDEST DUP3 DUP3 DUP2 MLOAD DUP2 LT PUSH2 0x6CEA JUMPI PUSH2 0x6CEA PUSH2 0x768A JUMP JUMPDEST PUSH1 0x20 SWAP1 DUP2 MUL SWAP2 SWAP1 SWAP2 ADD ADD MSTORE DUP1 PUSH2 0x6CFF DUP2 PUSH2 0x76CB JUMP JUMPDEST SWAP2 POP POP JUMPDEST DUP3 MLOAD ISZERO PUSH2 0x33E8 JUMPI PUSH1 0x40 MLOAD PUSH4 0xBD0DC97 PUSH1 0xE4 SHL DUP2 MSTORE PUSH1 0x1 PUSH1 0x1 PUSH1 0xA0 SHL SUB DUP12 AND SWAP1 PUSH4 0xBD0DC970 SWAP1 PUSH2 0x6D40 SWAP1 DUP13 SWAP1 DUP8 SWAP1 DUP8 SWAP1 PUSH1 0x1 SWAP1 PUSH1 0x7 SWAP1 PUSH1 0x4 ADD PUSH2 0x7EF7 JUMP JUMPDEST PUSH0 PUSH1 0x40 MLOAD DUP1 DUP4 SUB DUP2 PUSH0 DUP8 DUP1 EXTCODESIZE ISZERO DUP1 ISZERO PUSH2 0x6D57 JUMPI PUSH0 PUSH0 REVERT JUMPDEST POP GAS CALL ISZERO DUP1 ISZERO PUSH2 0x6A6F JUMPI RETURNDATASIZE PUSH0 PUSH0 RETURNDATACOPY RETURNDATASIZE PUSH0 REVERT JUMPDEST PUSH1 0x40 DUP1 MLOAD PUSH1 0x80 DUP2 ADD DUP3 MSTORE PUSH0 DUP1 DUP3 MSTORE PUSH1 0x60 PUSH1 0x20 DUP4 ADD MSTORE SWAP1 SWAP2 DUP3 ADD SWAP1 DUP2 MSTORE PUSH1 0x20 ADD PUSH0 SWAP1 MSTORE SWAP1 JUMP JUMPDEST PUSH1 0x40 MLOAD DUP1 PUSH1 0xA0 ADD PUSH1 0x40 MSTORE DUP1 PUSH0 DUP2 MSTORE PUSH1 0x20 ADD PUSH0 DUP2 MSTORE PUSH1 0x20 ADD PUSH0 DUP2 MSTORE PUSH1 0x20 ADD PUSH0 DUP2 MSTORE PUSH1 0x20 ADD PUSH0 DUP2 MSTORE POP SWAP1 JUMP JUMPDEST POP DUP1 SLOAD PUSH0 DUP3 SSTORE SWAP1 PUSH0 MSTORE PUSH1 0x20 PUSH0 KECCAK256 SWAP1 DUP2 ADD SWAP1 PUSH2 0x5D8F SWAP2 SWAP1 PUSH2 0x6E72 JUMP JUMPDEST POP DUP1 SLOAD PUSH0 DUP3 SSTORE PUSH1 0x5 MUL SWAP1 PUSH0 MSTORE PUSH1 0x20 PUSH0 KECCAK256 SWAP1 DUP2 ADD SWAP1 PUSH2 0x5D8F SWAP2 SWAP1 PUSH2 0x6E86 JUMP JUMPDEST POP DUP1 SLOAD PUSH0 DUP3 SSTORE PUSH1 0x3 MUL SWAP1 PUSH0 MSTORE PUSH1 0x20 PUSH0 KECCAK256 SWAP1 DUP2 ADD SWAP1 PUSH2 0x5D8F SWAP2 SWAP1 PUSH2 0x6EC6 JUMP JUMPDEST DUP3 DUP1 SLOAD DUP3 DUP3 SSTORE SWAP1 PUSH0 MSTORE PUSH1 0x20 PUSH0 KECCAK256 SWAP1 DUP2 ADD SWAP3 DUP3 ISZERO PUSH2 0x6E62 JUMPI SWAP2 PUSH1 0x20 MUL DUP3 ADD JUMPDEST DUP3 DUP2 GT ISZERO PUSH2 0x6E62 JUMPI DUP3 MLOAD DUP3 SLOAD PUSH1 0x1 PUSH1 0x1 PUSH1 0xA0 SHL SUB NOT AND PUSH1 0x1 PUSH1 0x1 PUSH1 0xA0 SHL SUB SWAP1 SWAP2 AND OR DUP3 SSTORE PUSH1 0x20 SWAP1 SWAP3 ADD SWAP2 PUSH1 0x1 SWAP1 SWAP2 ADD SWAP1 PUSH2 0x6E2D JUMP JUMPDEST POP PUSH2 0x6E6E SWAP3 SWAP2 POP PUSH2 0x6E72 JUMP JUMPDEST POP SWAP1 JUMP JUMPDEST JUMPDEST DUP1 DUP3 GT ISZERO PUSH2 0x6E6E JUMPI PUSH0 DUP2 SSTORE PUSH1 0x1 ADD PUSH2 0x6E73 JUMP JUMPDEST JUMPDEST DUP1 DUP3 GT ISZERO PUSH2 0x6E6E JUMPI DUP1 SLOAD PUSH1 0x1 PUSH1 0x1 PUSH1 0xA0 SHL SUB NOT SWAP1 DUP2 AND DUP3 SSTORE PUSH1 0x1 DUP3 ADD DUP1 SLOAD SWAP1 SWAP2 AND SWAP1 SSTORE PUSH0 PUSH1 0x2 DUP3 ADD DUP2 SWAP1 SSTORE PUSH1 0x3 DUP3 ADD DUP2 SWAP1 SSTORE PUSH1 0x4 DUP3 ADD SSTORE PUSH1 0x5 ADD PUSH2 0x6E87 JUMP JUMPDEST JUMPDEST DUP1 DUP3 GT ISZERO PUSH2 0x6E6E JUMPI DUP1 SLOAD PUSH1 0x1 PUSH1 0x1 PUSH1 0xA0 SHL SUB NOT AND DUP2 SSTORE PUSH0 PUSH1 0x1 DUP3 ADD DUP2 SWAP1 SSTORE PUSH1 0x2 DUP3 ADD SSTORE PUSH1 0x3 ADD PUSH2 0x6EC7 JUMP JUMPDEST PUSH1 0x1 PUSH1 0x1 PUSH1 0xA0 SHL SUB DUP2 AND DUP2 EQ PUSH2 0x5D8F JUMPI PUSH0 PUSH0 REVERT JUMPDEST PUSH0 PUSH1 0x20 DUP3 DUP5 SUB SLT ISZERO PUSH2 0x6F16 JUMPI PUSH0 PUSH0 REVERT JUMPDEST DUP2 CALLDATALOAD PUSH2 0x1B7A DUP2 PUSH2 0x6EF2 JUMP JUMPDEST PUSH4 0x4E487B71 PUSH1 0xE0 SHL PUSH0 MSTORE PUSH1 0x41 PUSH1 0x4 MSTORE PUSH1 0x24 PUSH0 REVERT JUMPDEST PUSH1 0x40 MLOAD PUSH1 0x80 DUP2 ADD PUSH1 0x1 PUSH1 0x1 PUSH1 0x40 SHL SUB DUP2 GT DUP3 DUP3 LT OR ISZERO PUSH2 0x6F57 JUMPI PUSH2 0x6F57 PUSH2 0x6F21 JUMP JUMPDEST PUSH1 0x40 MSTORE SWAP1 JUMP JUMPDEST PUSH1 0x40 MLOAD PUSH2 0x120 DUP2 ADD PUSH1 0x1 PUSH1 0x1 PUSH1 0x40 SHL SUB DUP2 GT DUP3 DUP3 LT OR ISZERO PUSH2 0x6F57 JUMPI PUSH2 0x6F57 PUSH2 0x6F21 JUMP JUMPDEST PUSH1 0x40 MLOAD PUSH2 0x260 DUP2 ADD PUSH1 0x1 PUSH1 0x1 PUSH1 0x40 SHL SUB DUP2 GT DUP3 DUP3 LT OR ISZERO PUSH2 0x6F57 JUMPI PUSH2 0x6F57 PUSH2 0x6F21 JUMP JUMPDEST PUSH1 0x40 MLOAD PUSH1 0x1F DUP3 ADD PUSH1 0x1F NOT AND DUP2 ADD PUSH1 0x1 PUSH1 0x1 PUSH1 0x40 SHL SUB DUP2 GT DUP3 DUP3 LT OR ISZERO PUSH2 0x6FCB JUMPI PUSH2 0x6FCB PUSH2 0x6F21 JUMP JUMPDEST PUSH1 0x40 MSTORE SWAP2 SWAP1 POP JUMP JUMPDEST PUSH0 PUSH1 0x1 PUSH1 0x1 PUSH1 0x40 SHL SUB DUP3 GT ISZERO PUSH2 0x6FEB JUMPI PUSH2 0x6FEB PUSH2 0x6F21 JUMP JUMPDEST POP PUSH1 0x5 SHL PUSH1 0x20 ADD SWAP1 JUMP JUMPDEST PUSH0 DUP3 PUSH1 0x1F DUP4 ADD SLT PUSH2 0x7004 JUMPI PUSH0 PUSH0 REVERT JUMPDEST DUP2 CALLDATALOAD PUSH2 0x7017 PUSH2 0x7012 DUP3 PUSH2 0x6FD3 JUMP JUMPDEST PUSH2 0x6FA3 JUMP JUMPDEST DUP1 DUP3 DUP3 MSTORE PUSH1 0x20 DUP3 ADD SWAP2 POP PUSH1 0x20 DUP4 PUSH1 0x5 SHL DUP7 ADD ADD SWAP3 POP DUP6 DUP4 GT ISZERO PUSH2 0x7038 JUMPI PUSH0 PUSH0 REVERT JUMPDEST PUSH1 0x20 DUP6 ADD JUMPDEST DUP4 DUP2 LT ISZERO PUSH2 0x7055 JUMPI DUP1 CALLDATALOAD DUP4 MSTORE PUSH1 0x20 SWAP3 DUP4 ADD SWAP3 ADD PUSH2 0x703D JUMP JUMPDEST POP SWAP6 SWAP5 POP POP POP POP POP JUMP JUMPDEST PUSH0 PUSH0 PUSH0 PUSH1 0x60 DUP5 DUP7 SUB SLT ISZERO PUSH2 0x7071 JUMPI PUSH0 PUSH0 REVERT JUMPDEST DUP4 CALLDATALOAD SWAP3 POP PUSH1 0x20 DUP5 ADD CALLDATALOAD PUSH2 0x7083 DUP2 PUSH2 0x6EF2 JUMP JUMPDEST SWAP2 POP PUSH1 0x40 DUP5 ADD CALLDATALOAD PUSH1 0x1 PUSH1 0x1 PUSH1 0x40 SHL SUB DUP2 GT ISZERO PUSH2 0x709D JUMPI PUSH0 PUSH0 REVERT JUMPDEST PUSH2 0x70A9 DUP7 DUP3 DUP8 ADD PUSH2 0x6FF5 JUMP JUMPDEST SWAP2 POP POP SWAP3 POP SWAP3 POP SWAP3 JUMP JUMPDEST PUSH1 0xFF DUP2 AND DUP2 EQ PUSH2 0x5D8F JUMPI PUSH0 PUSH0 REVERT JUMPDEST PUSH0 PUSH0 PUSH0 PUSH0 PUSH1 0x80 DUP6 DUP8 SUB SLT ISZERO PUSH2 0x70D4 JUMPI PUSH0 PUSH0 REVERT JUMPDEST DUP5 CALLDATALOAD PUSH2 0x70DF DUP2 PUSH2 0x6EF2 JUMP JUMPDEST SWAP4 POP PUSH1 0x20 DUP6 ADD CALLDATALOAD PUSH2 0x70EF DUP2 PUSH2 0x70B3 JUMP JUMPDEST SWAP4 SWAP7 SWAP4 SWAP6 POP POP POP POP PUSH1 0x40 DUP3 ADD CALLDATALOAD SWAP2 PUSH1 0x60 ADD CALLDATALOAD SWAP1 JUMP JUMPDEST PUSH0 DUP2 MLOAD DUP1 DUP5 MSTORE PUSH1 0x20 DUP5 ADD SWAP4 POP PUSH1 0x20 DUP4 ADD PUSH0 JUMPDEST DUP3 DUP2 LT ISZERO PUSH2 0x713D JUMPI DUP2 MLOAD PUSH1 0x1 PUSH1 0x1 PUSH1 0xA0 SHL SUB AND DUP7 MSTORE PUSH1 0x20 SWAP6 DUP7 ADD SWAP6 SWAP1 SWAP2 ADD SWAP1 PUSH1 0x1 ADD PUSH2 0x7116 JUMP JUMPDEST POP SWAP4 SWAP5 SWAP4 POP POP POP POP JUMP JUMPDEST PUSH4 0x4E487B71 PUSH1 0xE0 SHL PUSH0 MSTORE PUSH1 0x21 PUSH1 0x4 MSTORE PUSH1 0x24 PUSH0 REVERT JUMPDEST PUSH1 0x8 DUP2 LT PUSH2 0x716B JUMPI PUSH2 0x716B PUSH2 0x7147 JUMP JUMPDEST SWAP1 MSTORE JUMP JUMPDEST PUSH1 0x4 DUP2 LT PUSH2 0x716B JUMPI PUSH2 0x716B PUSH2 0x7147 JUMP JUMPDEST DUP1 MLOAD PUSH1 0x1 PUSH1 0x1 PUSH1 0xA0 SHL SUB AND DUP3 MSTORE PUSH1 0x20 DUP1 DUP3 ADD MLOAD PUSH1 0x80 DUP3 DUP6 ADD DUP2 SWAP1 MSTORE DUP2 MLOAD SWAP1 DUP6 ADD DUP2 SWAP1 MSTORE PUSH0 SWAP3 SWAP2 SWAP1 SWAP2 ADD SWAP1 DUP3 SWAP1 PUSH1 0xA0 DUP7 ADD SWAP1 JUMPDEST DUP1 DUP4 LT ISZERO PUSH2 0x71DC JUMPI DUP4 MLOAD PUSH1 0x1 PUSH1 0x1 PUSH1 0xA0 SHL SUB AND DUP3 MSTORE PUSH1 0x20 SWAP4 DUP5 ADD SWAP4 PUSH1 0x1 SWAP4 SWAP1 SWAP4 ADD SWAP3 SWAP1 SWAP2 ADD SWAP1 PUSH2 0x71B1 JUMP JUMPDEST POP PUSH1 0x40 DUP6 ADD MLOAD SWAP3 POP PUSH2 0x71F1 PUSH1 0x40 DUP8 ADD DUP5 PUSH2 0x715B JUMP JUMPDEST PUSH1 0x60 DUP6 ADD MLOAD SWAP3 POP PUSH2 0x66E7 PUSH1 0x60 DUP8 ADD DUP5 PUSH2 0x716F JUMP JUMPDEST DUP1 MLOAD DUP3 MSTORE PUSH1 0x20 DUP2 ADD MLOAD PUSH1 0x20 DUP4 ADD MSTORE PUSH1 0x40 DUP2 ADD MLOAD PUSH1 0x40 DUP4 ADD MSTORE PUSH1 0x60 DUP2 ADD MLOAD PUSH1 0x60 DUP4 ADD MSTORE PUSH1 0x80 DUP2 ADD MLOAD PUSH1 0x80 DUP4 ADD MSTORE POP POP JUMP JUMPDEST PUSH1 0x60 DUP2 MSTORE PUSH0 PUSH2 0x7247 PUSH1 0x60 DUP4 ADD DUP7 PUSH2 0x7104 JUMP JUMPDEST DUP3 DUP2 SUB PUSH1 0x20 DUP5 ADD MSTORE DUP1 DUP6 MLOAD DUP1 DUP4 MSTORE PUSH1 0x20 DUP4 ADD SWAP2 POP PUSH1 0x20 DUP2 PUSH1 0x5 SHL DUP5 ADD ADD PUSH1 0x20 DUP9 ADD PUSH0 JUMPDEST DUP4 DUP2 LT ISZERO PUSH2 0x729C JUMPI PUSH1 0x1F NOT DUP7 DUP5 SUB ADD DUP6 MSTORE PUSH2 0x7286 DUP4 DUP4 MLOAD PUSH2 0x717F JUMP JUMPDEST PUSH1 0x20 SWAP6 DUP7 ADD SWAP6 SWAP1 SWAP4 POP SWAP2 SWAP1 SWAP2 ADD SWAP1 PUSH1 0x1 ADD PUSH2 0x726A JUMP JUMPDEST POP POP DUP6 DUP2 SUB PUSH1 0x40 DUP8 ADD MSTORE DUP7 MLOAD DUP1 DUP3 MSTORE PUSH1 0x20 SWAP2 DUP3 ADD SWAP5 POP SWAP3 POP DUP7 ADD SWAP1 POP PUSH0 JUMPDEST DUP3 DUP2 LT ISZERO PUSH2 0x72E3 JUMPI PUSH2 0x72CD DUP5 DUP4 MLOAD PUSH2 0x7205 JUMP JUMPDEST PUSH1 0xA0 SWAP4 SWAP1 SWAP4 ADD SWAP3 PUSH1 0x20 SWAP2 SWAP1 SWAP2 ADD SWAP1 PUSH1 0x1 ADD PUSH2 0x72BA JUMP JUMPDEST POP SWAP2 SWAP8 SWAP7 POP POP POP POP POP POP POP JUMP JUMPDEST PUSH0 PUSH0 PUSH1 0x40 DUP4 DUP6 SUB SLT ISZERO PUSH2 0x7301 JUMPI PUSH0 PUSH0 REVERT JUMPDEST POP POP DUP1 CALLDATALOAD SWAP3 PUSH1 0x20 SWAP1 SWAP2 ADD CALLDATALOAD SWAP2 POP JUMP JUMPDEST PUSH0 PUSH0 PUSH0 PUSH1 0x60 DUP5 DUP7 SUB SLT ISZERO PUSH2 0x7322 JUMPI PUSH0 PUSH0 REVERT JUMPDEST DUP4 CALLDATALOAD PUSH2 0x732D DUP2 PUSH2 0x6EF2 JUMP JUMPDEST SWAP3 POP PUSH1 0x20 DUP5 ADD CALLDATALOAD PUSH2 0x733D DUP2 PUSH2 0x6EF2 JUMP JUMPDEST SWAP3 SWAP6 SWAP3 SWAP5 POP POP POP PUSH1 0x40 SWAP2 SWAP1 SWAP2 ADD CALLDATALOAD SWAP1 JUMP JUMPDEST PUSH1 0x1 PUSH1 0x1 PUSH1 0xA0 SHL SUB SWAP2 SWAP1 SWAP2 AND DUP2 MSTORE PUSH1 0x20 ADD SWAP1 JUMP JUMPDEST PUSH0 PUSH0 PUSH0 PUSH0 PUSH0 PUSH1 0xA0 DUP7 DUP9 SUB SLT ISZERO PUSH2 0x7376 JUMPI PUSH0 PUSH0 REVERT JUMPDEST DUP6 CALLDATALOAD PUSH2 0x7381 DUP2 PUSH2 0x6EF2 JUMP JUMPDEST SWAP5 POP PUSH1 0x20 DUP7 ADD CALLDATALOAD PUSH2 0x7391 DUP2 PUSH2 0x6EF2 JUMP JUMPDEST SWAP5 SWAP8 SWAP5 SWAP7 POP POP POP POP PUSH1 0x40 DUP4 ADD CALLDATALOAD SWAP3 PUSH1 0x60 DUP2 ADD CALLDATALOAD SWAP3 PUSH1 0x80 SWAP1 SWAP2 ADD CALLDATALOAD SWAP2 POP JUMP JUMPDEST PUSH0 PUSH0 PUSH0 PUSH1 0x60 DUP5 DUP7 SUB SLT ISZERO PUSH2 0x73C1 JUMPI PUSH0 PUSH0 REVERT JUMPDEST DUP4 CALLDATALOAD PUSH2 0x73CC DUP2 PUSH2 0x6EF2 JUMP JUMPDEST SWAP6 PUSH1 0x20 DUP6 ADD CALLDATALOAD SWAP6 POP PUSH1 0x40 SWAP1 SWAP5 ADD CALLDATALOAD SWAP4 SWAP3 POP POP POP JUMP JUMPDEST PUSH1 0x9 DUP2 LT PUSH2 0x716B JUMPI PUSH2 0x716B PUSH2 0x7147 JUMP JUMPDEST PUSH1 0x20 DUP1 DUP3 MSTORE DUP3 MLOAD DUP3 DUP3 ADD DUP2 SWAP1 MSTORE PUSH0 SWAP2 DUP5 ADD SWAP1 PUSH1 0x40 DUP5 ADD SWAP1 DUP4 JUMPDEST DUP2 DUP2 LT ISZERO PUSH2 0x745E JUMPI DUP4 MLOAD DUP1 MLOAD PUSH1 0x1 PUSH1 0x1 PUSH1 0xA0 SHL SUB AND DUP5 MSTORE PUSH1 0x20 DUP1 DUP3 ADD MLOAD SWAP1 DUP6 ADD MSTORE PUSH1 0x40 DUP1 DUP3 ADD MLOAD SWAP1 PUSH2 0x743E SWAP1 DUP7 ADD DUP3 PUSH2 0x73E1 JUMP JUMPDEST POP PUSH1 0x60 SWAP1 DUP2 ADD MLOAD SWAP1 DUP5 ADD MSTORE PUSH1 0x20 SWAP4 SWAP1 SWAP4 ADD SWAP3 PUSH1 0x80 SWAP1 SWAP3 ADD SWAP2 PUSH1 0x1 ADD PUSH2 0x740A JUMP JUMPDEST POP SWAP1 SWAP6 SWAP5 POP POP POP POP POP JUMP JUMPDEST PUSH0 PUSH0 PUSH1 0x40 DUP4 DUP6 SUB SLT ISZERO PUSH2 0x747A JUMPI PUSH0 PUSH0 REVERT JUMPDEST DUP3 CALLDATALOAD SWAP2 POP PUSH1 0x20 DUP4 ADD CALLDATALOAD PUSH1 0x1 PUSH1 0x1 PUSH1 0x40 SHL SUB DUP2 GT ISZERO PUSH2 0x7496 JUMPI PUSH0 PUSH0 REVERT JUMPDEST PUSH2 0x74A2 DUP6 DUP3 DUP7 ADD PUSH2 0x6FF5 JUMP JUMPDEST SWAP2 POP POP SWAP3 POP SWAP3 SWAP1 POP JUMP JUMPDEST PUSH0 PUSH0 PUSH1 0x40 DUP4 DUP6 SUB SLT ISZERO PUSH2 0x74BD JUMPI PUSH0 PUSH0 REVERT JUMPDEST DUP3 CALLDATALOAD PUSH2 0x74C8 DUP2 PUSH2 0x6EF2 JUMP JUMPDEST SWAP5 PUSH1 0x20 SWAP4 SWAP1 SWAP4 ADD CALLDATALOAD SWAP4 POP POP POP JUMP JUMPDEST PUSH0 PUSH1 0x20 DUP3 DUP5 SUB SLT ISZERO PUSH2 0x74E6 JUMPI PUSH0 PUSH0 REVERT JUMPDEST POP CALLDATALOAD SWAP2 SWAP1 POP JUMP JUMPDEST PUSH1 0x20 DUP2 MSTORE PUSH0 PUSH2 0x1B7A PUSH1 0x20 DUP4 ADD DUP5 PUSH2 0x7104 JUMP JUMPDEST DUP1 ISZERO ISZERO DUP2 EQ PUSH2 0x5D8F JUMPI PUSH0 PUSH0 REVERT JUMPDEST PUSH0 PUSH1 0x20 DUP3 DUP5 SUB SLT ISZERO PUSH2 0x751C JUMPI PUSH0 PUSH0 REVERT JUMPDEST DUP2 CALLDATALOAD PUSH2 0x1B7A DUP2 PUSH2 0x74FF JUMP JUMPDEST PUSH1 0xC0 DUP2 MSTORE PUSH0 PUSH2 0x7539 PUSH1 0xC0 DUP4 ADD DUP6 PUSH2 0x717F JUMP JUMPDEST SWAP1 POP PUSH2 0x1B7A PUSH1 0x20 DUP4 ADD DUP5 PUSH2 0x7205 JUMP JUMPDEST PUSH0 PUSH0 PUSH0 PUSH0 PUSH1 0x80 DUP6 DUP8 SUB SLT ISZERO PUSH2 0x755B JUMPI PUSH0 PUSH0 REVERT JUMPDEST DUP5 CALLDATALOAD PUSH2 0x7566 DUP2 PUSH2 0x6EF2 JUMP JUMPDEST SWAP7 PUSH1 0x20 DUP7 ADD CALLDATALOAD SWAP7 POP PUSH1 0x40 DUP7 ADD CALLDATALOAD SWAP6 PUSH1 0x60 ADD CALLDATALOAD SWAP5 POP SWAP3 POP POP POP JUMP JUMPDEST PUSH1 0x20 DUP1 DUP3 MSTORE DUP2 DUP2 ADD MSTORE PUSH32 0x4F776E61626C653A2063616C6C6572206973206E6F7420746865206F776E6572 PUSH1 0x40 DUP3 ADD MSTORE PUSH1 0x60 ADD SWAP1 JUMP JUMPDEST PUSH1 0x20 DUP1 DUP3 MSTORE PUSH1 0x1D SWAP1 DUP3 ADD MSTORE PUSH32 0x416D6F756E74206D7573742062652067726561746572207468616E2030000000 PUSH1 0x40 DUP3 ADD MSTORE PUSH1 0x60 ADD SWAP1 JUMP JUMPDEST PUSH1 0x20 DUP1 DUP3 MSTORE PUSH1 0x15 SWAP1 DUP3 ADD MSTORE PUSH21 0x10DBDB9D1C9858DD1CC81B9BDD08185B1B1BDDD959 PUSH1 0x5A SHL PUSH1 0x40 DUP3 ADD MSTORE PUSH1 0x60 ADD SWAP1 JUMP JUMPDEST PUSH1 0x20 DUP1 DUP3 MSTORE PUSH1 0x1B SWAP1 DUP3 ADD MSTORE PUSH27 0x14DB585C9D0818DBDB9D1C9858DD1CC81B9BDD08185B1B1BDDD959 PUSH1 0x2A SHL PUSH1 0x40 DUP3 ADD MSTORE PUSH1 0x60 ADD SWAP1 JUMP JUMPDEST PUSH4 0x4E487B71 PUSH1 0xE0 SHL PUSH0 MSTORE PUSH1 0x11 PUSH1 0x4 MSTORE PUSH1 0x24 PUSH0 REVERT JUMPDEST DUP1 DUP3 ADD DUP1 DUP3 GT ISZERO PUSH2 0x11A2 JUMPI PUSH2 0x11A2 PUSH2 0x7650 JUMP JUMPDEST DUP2 DUP2 SUB DUP2 DUP2 GT ISZERO PUSH2 0x11A2 JUMPI PUSH2 0x11A2 PUSH2 0x7650 JUMP JUMPDEST PUSH4 0x4E487B71 PUSH1 0xE0 SHL PUSH0 MSTORE PUSH1 0x32 PUSH1 0x4 MSTORE PUSH1 0x24 PUSH0 REVERT JUMPDEST PUSH1 0x20 DUP1 DUP3 MSTORE PUSH1 0x13 SWAP1 DUP3 ADD MSTORE PUSH19 0x92DCECC2D8D2C840E6E8C2E4E840D2DCC8CAF PUSH1 0x6B SHL PUSH1 0x40 DUP3 ADD MSTORE PUSH1 0x60 ADD SWAP1 JUMP JUMPDEST PUSH0 PUSH1 0x1 DUP3 ADD PUSH2 0x76DC JUMPI PUSH2 0x76DC PUSH2 0x7650 JUMP JUMPDEST POP PUSH1 0x1 ADD SWAP1 JUMP JUMPDEST PUSH1 0x20 DUP1 DUP3 MSTORE PUSH1 0xE SWAP1 DUP3 ADD MSTORE PUSH14 0x53797374656D2075706772616465 PUSH1 0x90 SHL PUSH1 0x40 DUP3 ADD MSTORE PUSH1 0x60 ADD SWAP1 JUMP JUMPDEST PUSH1 0x20 DUP1 DUP3 MSTORE PUSH1 0x13 SWAP1 DUP3 ADD MSTORE PUSH19 0x5573657220616C726561647920657869737473 PUSH1 0x68 SHL PUSH1 0x40 DUP3 ADD MSTORE PUSH1 0x60 ADD SWAP1 JUMP JUMPDEST PUSH1 0x20 DUP1 DUP3 MSTORE PUSH1 0x1A SWAP1 DUP3 ADD MSTORE PUSH26 0x5573657220616C72656164792065786973747320696E2056495 PUSH1 0x34 SHL PUSH1 0x40 DUP3 ADD MSTORE PUSH1 0x60 ADD SWAP1 JUMP JUMPDEST PUSH1 0x20 DUP1 DUP3 MSTORE PUSH1 0x15 SWAP1 DUP3 ADD MSTORE PUSH21 0x14185C995B9D08191BD95CC81B9BDD08195E1A5CDD PUSH1 0x5A SHL PUSH1 0x40 DUP3 ADD MSTORE PUSH1 0x60 ADD SWAP1 JUMP JUMPDEST PUSH1 0x20 DUP1 DUP3 MSTORE PUSH1 0x10 SWAP1 DUP3 ADD MSTORE PUSH16 0x506172656E74206E6F7420616C6C6F77 PUSH1 0x80 SHL PUSH1 0x40 DUP3 ADD MSTORE PUSH1 0x60 ADD SWAP1 JUMP JUMPDEST DUP1 MLOAD PUSH2 0x77D0 DUP2 PUSH2 0x6EF2 JUMP JUMPDEST SWAP2 SWAP1 POP JUMP JUMPDEST PUSH0 PUSH1 0x20 DUP3 DUP5 SUB SLT ISZERO PUSH2 0x77E5 JUMPI PUSH0 PUSH0 REVERT JUMPDEST DUP2 MLOAD PUSH2 0x1B7A DUP2 PUSH2 0x6EF2 JUMP JUMPDEST PUSH1 0x20 DUP1 DUP3 MSTORE PUSH1 0x10 SWAP1 DUP3 ADD MSTORE PUSH16 0xE0C2E4CADCE840DCDEE840DAC2E8C6D PUSH1 0x83 SHL PUSH1 0x40 DUP3 ADD MSTORE PUSH1 0x60 ADD SWAP1 JUMP JUMPDEST PUSH4 0x4E487B71 PUSH1 0xE0 SHL PUSH0 MSTORE PUSH1 0x12 PUSH1 0x4 MSTORE PUSH1 0x24 PUSH0 REVERT JUMPDEST PUSH0 DUP3 PUSH2 0x783C JUMPI PUSH2 0x783C PUSH2 0x781A JUMP JUMPDEST POP DIV SWAP1 JUMP JUMPDEST DUP1 DUP3 MUL DUP2 ISZERO DUP3 DUP3 DIV DUP5 EQ OR PUSH2 0x11A2 JUMPI PUSH2 0x11A2 PUSH2 0x7650 JUMP JUMPDEST PUSH1 0x1 PUSH1 0x1 PUSH1 0xA0 SHL SUB DUP7 AND DUP2 MSTORE PUSH1 0x20 DUP2 ADD DUP6 SWAP1 MSTORE PUSH1 0x40 DUP2 ADD DUP5 SWAP1 MSTORE DUP3 ISZERO ISZERO PUSH1 0x60 DUP3 ADD MSTORE PUSH1 0xA0 DUP2 ADD PUSH2 0x3F25 PUSH1 0x80 DUP4 ADD DUP5 PUSH2 0x73E1 JUMP JUMPDEST PUSH1 0x1 PUSH1 0x1 PUSH1 0xA0 SHL SUB SWAP4 SWAP1 SWAP4 AND DUP4 MSTORE PUSH1 0x20 DUP4 ADD SWAP2 SWAP1 SWAP2 MSTORE PUSH1 0x40 DUP3 ADD MSTORE PUSH1 0x60 ADD SWAP1 JUMP JUMPDEST PUSH0 PUSH1 0x20 DUP3 DUP5 SUB SLT ISZERO PUSH2 0x78BC JUMPI PUSH0 PUSH0 REVERT JUMPDEST DUP2 MLOAD PUSH1 0x1 PUSH1 0x1 PUSH1 0x40 SHL SUB DUP2 GT ISZERO PUSH2 0x78D1 JUMPI PUSH0 PUSH0 REVERT JUMPDEST DUP3 ADD PUSH1 0x1F DUP2 ADD DUP5 SGT PUSH2 0x78E1 JUMPI PUSH0 PUSH0 REVERT JUMPDEST DUP1 MLOAD PUSH2 0x78EF PUSH2 0x7012 DUP3 PUSH2 0x6FD3 JUMP JUMPDEST DUP1 DUP3 DUP3 MSTORE PUSH1 0x20 DUP3 ADD SWAP2 POP PUSH1 0x20 DUP4 PUSH1 0x7 SHL DUP6 ADD ADD SWAP3 POP DUP7 DUP4 GT ISZERO PUSH2 0x7910 JUMPI PUSH0 PUSH0 REVERT JUMPDEST PUSH1 0x20 DUP5 ADD SWAP4 POP JUMPDEST DUP3 DUP5 LT ISZERO PUSH2 0x3F25 JUMPI PUSH1 0x80 DUP5 DUP9 SUB SLT ISZERO PUSH2 0x792E JUMPI PUSH0 PUSH0 REVERT JUMPDEST PUSH2 0x7936 PUSH2 0x6F35 JUMP JUMPDEST DUP5 MLOAD PUSH2 0x7941 DUP2 PUSH2 0x6EF2 JUMP JUMPDEST DUP2 MSTORE PUSH1 0x20 DUP6 DUP2 ADD MLOAD SWAP1 DUP3 ADD MSTORE PUSH1 0x40 DUP6 ADD MLOAD PUSH1 0x9 DUP2 LT PUSH2 0x795E JUMPI PUSH0 PUSH0 REVERT JUMPDEST PUSH1 0x40 DUP3 ADD MSTORE PUSH1 0x60 DUP6 DUP2 ADD MLOAD SWAP1 DUP3 ADD MSTORE DUP3 MSTORE PUSH1 0x80 SWAP1 SWAP4 ADD SWAP3 PUSH1 0x20 SWAP1 SWAP2 ADD SWAP1 PUSH2 0x7917 JUMP JUMPDEST PUSH1 0x20 DUP1 DUP3 MSTORE PUSH1 0x13 SWAP1 DUP3 ADD MSTORE PUSH19 0x155CD95C88191BD95CC81B9BDD08195E1A5CDD PUSH1 0x6A SHL PUSH1 0x40 DUP3 ADD MSTORE PUSH1 0x60 ADD SWAP1 JUMP JUMPDEST PUSH0 PUSH1 0x20 DUP3 DUP5 SUB SLT ISZERO PUSH2 0x79BD JUMPI PUSH0 PUSH0 REVERT JUMPDEST POP MLOAD SWAP2 SWAP1 POP JUMP JUMPDEST PUSH1 0x1 PUSH1 0x1 PUSH1 0xA0 SHL SUB SWAP3 SWAP1 SWAP3 AND DUP3 MSTORE PUSH1 0x20 DUP3 ADD MSTORE PUSH1 0x40 ADD SWAP1 JUMP JUMPDEST PUSH0 PUSH1 0x20 DUP3 DUP5 SUB SLT ISZERO PUSH2 0x79ED JUMPI PUSH0 PUSH0 REVERT JUMPDEST DUP2 MLOAD PUSH2 0x1B7A DUP2 PUSH2 0x74FF JUMP JUMPDEST PUSH0 PUSH2 0x120 DUP3 DUP5 SUB SLT DUP1 ISZERO PUSH2 0x7A0A JUMPI PUSH0 PUSH0 REVERT JUMPDEST POP PUSH2 0x7A13 PUSH2 0x6F5D JUMP JUMPDEST DUP3 MLOAD DUP2 MSTORE PUSH1 0x20 DUP1 DUP5 ADD MLOAD SWAP1 DUP3 ADD MSTORE PUSH1 0x40 DUP1 DUP5 ADD MLOAD SWAP1 DUP3 ADD MSTORE PUSH1 0x60 DUP1 DUP5 ADD MLOAD SWAP1 DUP3 ADD MSTORE PUSH1 0x80 DUP1 DUP5 ADD MLOAD SWAP1 DUP3 ADD MSTORE PUSH1 0xA0 DUP1 DUP5 ADD MLOAD SWAP1 DUP3 ADD MSTORE PUSH1 0xC0 DUP1 DUP5 ADD MLOAD SWAP1 DUP3 ADD MSTORE PUSH1 0xE0 DUP1 DUP5 ADD MLOAD SWAP1 DUP3 ADD MSTORE PUSH2 0x100 SWAP3 DUP4 ADD MLOAD SWAP3 DUP2 ADD SWAP3 SWAP1 SWAP3 MSTORE POP SWAP2 SWAP1 POP JUMP JUMPDEST PUSH1 0x20 DUP1 DUP3 MSTORE PUSH1 0x10 SWAP1 DUP3 ADD MSTORE PUSH16 0x77726F6E67206F7264657220436F6465 PUSH1 0x80 SHL PUSH1 0x40 DUP3 ADD MSTORE PUSH1 0x60 ADD SWAP1 JUMP JUMPDEST PUSH1 0x20 DUP1 DUP3 MSTORE PUSH1 0xF SWAP1 DUP3 ADD MSTORE PUSH15 0x13DC99195C881B9BDD08199BDD5B99 PUSH1 0x8A SHL PUSH1 0x40 DUP3 ADD MSTORE PUSH1 0x60 ADD SWAP1 JUMP JUMPDEST PUSH0 DUP3 PUSH1 0x1F DUP4 ADD SLT PUSH2 0x7AD3 JUMPI PUSH0 PUSH0 REVERT JUMPDEST DUP2 MLOAD PUSH2 0x7AE1 PUSH2 0x7012 DUP3 PUSH2 0x6FD3 JUMP JUMPDEST DUP1 DUP3 DUP3 MSTORE PUSH1 0x20 DUP3 ADD SWAP2 POP PUSH1 0x20 DUP4 PUSH1 0x5 SHL DUP7 ADD ADD SWAP3 POP DUP6 DUP4 GT ISZERO PUSH2 0x7B02 JUMPI PUSH0 PUSH0 REVERT JUMPDEST PUSH1 0x20 DUP6 ADD JUMPDEST DUP4 DUP2 LT ISZERO PUSH2 0x7055 JUMPI DUP1 MLOAD DUP4 MSTORE PUSH1 0x20 SWAP3 DUP4 ADD SWAP3 ADD PUSH2 0x7B07 JUMP JUMPDEST DUP1 MLOAD PUSH2 0x77D0 DUP2 PUSH2 0x70B3 JUMP JUMPDEST PUSH0 PUSH1 0x20 DUP3 DUP5 SUB SLT ISZERO PUSH2 0x7B3A JUMPI PUSH0 PUSH0 REVERT JUMPDEST DUP2 MLOAD PUSH1 0x1 PUSH1 0x1 PUSH1 0x40 SHL SUB DUP2 GT ISZERO PUSH2 0x7B4F JUMPI PUSH0 PUSH0 REVERT JUMPDEST DUP3 ADD PUSH2 0x260 DUP2 DUP6 SUB SLT ISZERO PUSH2 0x7B61 JUMPI PUSH0 PUSH0 REVERT JUMPDEST PUSH2 0x7B69 PUSH2 0x6F80 JUMP JUMPDEST DUP2 MLOAD DUP2 MSTORE PUSH2 0x7B79 PUSH1 0x20 DUP4 ADD PUSH2 0x77C5 JUMP JUMPDEST PUSH1 0x20 DUP3 ADD MSTORE PUSH2 0x7B8A PUSH1 0x40 DUP4 ADD PUSH2 0x77C5 JUMP JUMPDEST PUSH1 0x40 DUP3 ADD MSTORE PUSH1 0x60 DUP3 DUP2 ADD MLOAD SWAP1 DUP3 ADD MSTORE PUSH1 0x80 DUP3 ADD MLOAD PUSH1 0x1 PUSH1 0x1 PUSH1 0x40 SHL SUB DUP2 GT ISZERO PUSH2 0x7BB1 JUMPI PUSH0 PUSH0 REVERT JUMPDEST PUSH2 0x7BBD DUP7 DUP3 DUP6 ADD PUSH2 0x7AC4 JUMP JUMPDEST PUSH1 0x80 DUP4 ADD MSTORE POP PUSH1 0xA0 DUP3 ADD MLOAD PUSH1 0x1 PUSH1 0x1 PUSH1 0x40 SHL SUB DUP2 GT ISZERO PUSH2 0x7BDB JUMPI PUSH0 PUSH0 REVERT JUMPDEST PUSH2 0x7BE7 DUP7 DUP3 DUP6 ADD PUSH2 0x7AC4 JUMP JUMPDEST PUSH1 0xA0 DUP4 ADD MSTORE POP PUSH1 0xC0 DUP3 ADD MLOAD PUSH1 0x1 PUSH1 0x1 PUSH1 0x40 SHL SUB DUP2 GT ISZERO PUSH2 0x7C05 JUMPI PUSH0 PUSH0 REVERT JUMPDEST PUSH2 0x7C11 DUP7 DUP3 DUP6 ADD PUSH2 0x7AC4 JUMP JUMPDEST PUSH1 0xC0 DUP4 ADD MSTORE POP PUSH1 0xE0 DUP3 ADD MLOAD PUSH1 0x1 PUSH1 0x1 PUSH1 0x40 SHL SUB DUP2 GT ISZERO PUSH2 0x7C2F JUMPI PUSH0 PUSH0 REVERT JUMPDEST PUSH2 0x7C3B DUP7 DUP3 DUP6 ADD PUSH2 0x7AC4 JUMP JUMPDEST PUSH1 0xE0 DUP4 ADD MSTORE POP PUSH2 0x100 DUP3 ADD MLOAD PUSH1 0x1 PUSH1 0x1 PUSH1 0x40 SHL SUB DUP2 GT ISZERO PUSH2 0x7C5A JUMPI PUSH0 PUSH0 REVERT JUMPDEST PUSH2 0x7C66 DUP7 DUP3 DUP6 ADD PUSH2 0x7AC4 JUMP JUMPDEST PUSH2 0x100 DUP4 ADD MSTORE POP PUSH2 0x120 DUP3 ADD MLOAD PUSH1 0x1 PUSH1 0x1 PUSH1 0x40 SHL SUB DUP2 GT ISZERO PUSH2 0x7C86 JUMPI PUSH0 PUSH0 REVERT JUMPDEST PUSH2 0x7C92 DUP7 DUP3 DUP6 ADD PUSH2 0x7AC4 JUMP JUMPDEST PUSH2 0x120 DUP4 ADD MSTORE POP PUSH2 0x140 DUP3 ADD MLOAD PUSH1 0x1 PUSH1 0x1 PUSH1 0x40 SHL SUB DUP2 GT ISZERO PUSH2 0x7CB2 JUMPI PUSH0 PUSH0 REVERT JUMPDEST PUSH2 0x7CBE DUP7 DUP3 DUP6 ADD PUSH2 0x7AC4 JUMP JUMPDEST PUSH2 0x140 DUP4 ADD MSTORE POP PUSH2 0x160 DUP3 DUP2 ADD MLOAD SWAP1 DUP3 ADD MSTORE PUSH2 0x7CDD PUSH2 0x180 DUP4 ADD PUSH2 0x7B1F JUMP JUMPDEST PUSH2 0x180 DUP3 ADD MSTORE PUSH2 0x7CF0 PUSH2 0x1A0 DUP4 ADD PUSH2 0x7B1F JUMP JUMPDEST PUSH2 0x1A0 DUP3 ADD MSTORE PUSH2 0x1C0 DUP3 DUP2 ADD MLOAD SWAP1 DUP3 ADD MSTORE PUSH2 0x1E0 DUP1 DUP4 ADD MLOAD SWAP1 DUP3 ADD MSTORE PUSH2 0x200 DUP1 DUP4 ADD MLOAD SWAP1 DUP3 ADD MSTORE PUSH2 0x7D24 PUSH2 0x220 DUP4 ADD PUSH2 0x7B1F JUMP JUMPDEST PUSH2 0x220 DUP3 ADD MSTORE PUSH2 0x240 SWAP2 DUP3 ADD MLOAD SWAP2 DUP2 ADD SWAP2 SWAP1 SWAP2 MSTORE SWAP4 SWAP3 POP POP POP JUMP JUMPDEST PUSH0 PUSH1 0xFF DUP3 AND PUSH1 0xFF DUP2 SUB PUSH2 0x7D54 JUMPI PUSH2 0x7D54 PUSH2 0x7650 JUMP JUMPDEST PUSH1 0x1 ADD SWAP3 SWAP2 POP POP JUMP JUMPDEST PUSH1 0x20 DUP1 DUP3 MSTORE PUSH1 0xC SWAP1 DUP3 ADD MSTORE PUSH12 0x15DC9BDB99C8185B5BDD5B9D PUSH1 0xA2 SHL PUSH1 0x40 DUP3 ADD MSTORE PUSH1 0x60 ADD SWAP1 JUMP JUMPDEST PUSH4 0x4E487B71 PUSH1 0xE0 SHL PUSH0 MSTORE PUSH1 0x31 PUSH1 0x4 MSTORE PUSH1 0x24 PUSH0 REVERT JUMPDEST PUSH1 0x1 PUSH1 0x1 PUSH1 0xA0 SHL SUB DUP4 AND DUP2 MSTORE PUSH1 0x40 PUSH1 0x20 DUP1 DUP4 ADD DUP3 SWAP1 MSTORE DUP4 MLOAD SWAP2 DUP4 ADD DUP3 SWAP1 MSTORE PUSH0 SWAP2 SWAP1 DUP5 ADD SWAP1 PUSH1 0x60 DUP5 ADD SWAP1 DUP4 JUMPDEST DUP2 DUP2 LT ISZERO PUSH2 0x7DE0 JUMPI DUP4 MLOAD DUP4 MSTORE PUSH1 0x20 SWAP4 DUP5 ADD SWAP4 SWAP1 SWAP3 ADD SWAP2 PUSH1 0x1 ADD PUSH2 0x7DC2 JUMP JUMPDEST POP SWAP1 SWAP7 SWAP6 POP POP POP POP POP POP JUMP JUMPDEST PUSH1 0x20 DUP1 DUP3 MSTORE PUSH1 0x14 SWAP1 DUP3 ADD MSTORE PUSH20 0x496E73756666696369656E742062616C616E6365 PUSH1 0x60 SHL PUSH1 0x40 DUP3 ADD MSTORE PUSH1 0x60 ADD SWAP1 JUMP JUMPDEST PUSH1 0x20 DUP1 DUP3 MSTORE PUSH1 0x21 SWAP1 DUP3 ADD MSTORE PUSH32 0x496E73756666696369656E742062616C616E636520666F722077697468647261 PUSH1 0x40 DUP3 ADD MSTORE PUSH1 0x77 PUSH1 0xF8 SHL PUSH1 0x60 DUP3 ADD MSTORE PUSH1 0x80 ADD SWAP1 JUMP JUMPDEST PUSH1 0x20 DUP1 DUP3 MSTORE PUSH1 0xB SWAP1 DUP3 ADD MSTORE PUSH11 0x44656E7920616363657373 PUSH1 0xA8 SHL PUSH1 0x40 DUP3 ADD MSTORE PUSH1 0x60 ADD SWAP1 JUMP JUMPDEST PUSH1 0x20 DUP1 DUP3 MSTORE PUSH1 0x1A SWAP1 DUP3 ADD MSTORE PUSH26 0x4E6F7420656E6F756768207573647420696E2074726565436F6D PUSH1 0x30 SHL PUSH1 0x40 DUP3 ADD MSTORE PUSH1 0x60 ADD SWAP1 JUMP JUMPDEST PUSH1 0x1 PUSH1 0x1 PUSH1 0x60 SHL SUB NOT PUSH1 0x60 SWAP4 DUP5 SHL DUP2 AND DUP3 MSTORE SWAP2 SWAP1 SWAP3 SHL AND PUSH1 0x14 DUP3 ADD MSTORE PUSH1 0x28 ADD SWAP1 JUMP JUMPDEST PUSH0 PUSH1 0xFF DUP4 AND DUP1 PUSH2 0x7EE8 JUMPI PUSH2 0x7EE8 PUSH2 0x781A JUMP JUMPDEST DUP1 PUSH1 0xFF DUP5 AND MOD SWAP2 POP POP SWAP3 SWAP2 POP POP JUMP JUMPDEST DUP6 DUP2 MSTORE PUSH1 0xA0 PUSH1 0x20 DUP3 ADD MSTORE PUSH0 PUSH2 0x7F0F PUSH1 0xA0 DUP4 ADD DUP8 PUSH2 0x7104 JUMP JUMPDEST DUP3 DUP2 SUB PUSH1 0x40 DUP5 ADD MSTORE DUP6 MLOAD DUP1 DUP3 MSTORE PUSH1 0x20 DUP1 DUP9 ADD SWAP3 ADD SWAP1 PUSH0 JUMPDEST DUP2 DUP2 LT ISZERO PUSH2 0x7F44 JUMPI DUP4 MLOAD DUP4 MSTORE PUSH1 0x20 SWAP4 DUP5 ADD SWAP4 SWAP1 SWAP3 ADD SWAP2 PUSH1 0x1 ADD PUSH2 0x7F26 JUMP JUMPDEST POP POP DUP6 ISZERO ISZERO PUSH1 0x60 DUP6 ADD MSTORE SWAP2 POP PUSH2 0x3F25 SWAP1 POP PUSH1 0x80 DUP4 ADD DUP5 PUSH2 0x73E1 JUMP JUMPDEST PUSH1 0x20 DUP1 DUP3 MSTORE PUSH1 0x19 SWAP1 DUP3 ADD MSTORE PUSH25 0x506172656E74206C6F737420647572696E6720726573657421 PUSH1 0x38 SHL PUSH1 0x40 DUP3 ADD MSTORE PUSH1 0x60 ADD SWAP1 JUMP JUMPDEST PUSH0 DUP2 MLOAD DUP1 DUP5 MSTORE DUP1 PUSH1 0x20 DUP5 ADD PUSH1 0x20 DUP7 ADD MCOPY PUSH0 PUSH1 0x20 DUP3 DUP7 ADD ADD MSTORE PUSH1 0x20 PUSH1 0x1F NOT PUSH1 0x1F DUP4 ADD AND DUP6 ADD ADD SWAP2 POP POP SWAP3 SWAP2 POP POP JUMP JUMPDEST PUSH1 0x40 DUP2 MSTORE PUSH0 PUSH2 0x7FD2 PUSH1 0x40 DUP4 ADD DUP6 PUSH2 0x7F92 JUMP JUMPDEST SWAP1 POP PUSH1 0x1 DUP1 PUSH1 0xA0 SHL SUB DUP4 AND PUSH1 0x20 DUP4 ADD MSTORE SWAP4 SWAP3 POP POP POP JUMP JUMPDEST PUSH1 0x40 DUP2 MSTORE PUSH0 PUSH2 0x7FFB PUSH1 0x40 DUP4 ADD DUP6 PUSH2 0x7F92 JUMP JUMPDEST SWAP1 POP DUP3 PUSH1 0x20 DUP4 ADD MSTORE SWAP4 SWAP3 POP POP POP JUMP JUMPDEST PUSH1 0x20 DUP2 MSTORE PUSH0 PUSH2 0x1B7A PUSH1 0x20 DUP4 ADD DUP5 PUSH2 0x7F92 JUMP INVALID DUP14 GT ADDMOD RJUMPI 0xBCB PUSH29 0x27DDDFC02ED9D693A074039D026CF4EA4240B40F7D581AC8068D1108E1 SIGNEXTEND 0xCB PUSH29 0x27DDDFC02ED9D693A074039D026CF4EA4240B40F7D581AC8058D1108E1 SIGNEXTEND 0xCB PUSH29 0x27DDDFC02ED9D693A074039D026CF4EA4240B40F7D581AC8048D1108E1 SIGNEXTEND 0xCB PUSH29 0x27DDDFC02ED9D693A074039D026CF4EA4240B40F7D581AC8036B69656D KECCAK256 PUSH21 0x72612070726F647563744250546869734D6F6E7468 JUMPDEST PUSH22 0x7365725D3A8D1108E10BCB7C27DDDFC02ED9D693A074 SUB SWAP14 MUL PUSH13 0xF4EA4240B40F7D581AC8026E6F PUSH5 0x6544617461 JUMPDEST PUSH15 0x65774D656D6265725D2E6D656D6265 PUSH19 0x73686970457870697279206C613AA264697066 PUSH20 0x5822122035F0822D645B2E3A968647572DDDFFFA 0xDC PUSH10 0xCFCEC551E50F421B71DD DIV 0xC8 0xCB SDIV PUSH5 0x736F6C6343 STOP ADDMOD 0x1E STOP CALLER "
		},
		"gasEstimates": {
			"creation": {
				"codeDepositCost": "6616800",
				"executionCost": "infinite",
				"totalCost": "infinite"
			},
			"external": {
				"addPromoterMember(address,address,int256,int256,bytes32)": "infinite",
				"addVIPMember(address,address,bytes32)": "infinite",
				"balancesManager()": "2844",
				"banUser(address)": "26769",
				"buyProduct(bytes32,bytes32)": "infinite",
				"checkPromoter(address)": "2659",
				"dailyUpdateGenerationRank()": "infinite",
				"distributeNationalBonus()": "infinite",
				"eComOrderManagerAddress()": "2690",
				"eComUserManagerAddress()": "2668",
				"getAddress()": "9021",
				"getChildren(address,uint8,uint256,uint256)": "infinite",
				"getCommInfoUSDTInRange(address,uint256,uint256)": "infinite",
				"getCommissionUSDTInRange(address,uint256,uint256)": "infinite",
				"getPromoterInfo()": "infinite",
				"getVIPInfo()": "7306",
				"getVIPMembers(address,uint256,uint256)": "infinite",
				"hourlyBatchProcessing()": "infinite",
				"isPromoterActive(address)": "5345",
				"isVIP()": "2850",
				"isVIPOrPromoter(address)": "7493",
				"processTeamBPAndActive(uint256,uint256)": "infinite",
				"renewMembership(address,bytes32)": "infinite",
				"resetMonthlyData(uint256,uint256)": "infinite",
				"sendProfitForEStock(uint256)": "infinite",
				"setAgentLevel(address,uint256)": "29469",
				"setDaoNode(address)": "26703",
				"setEcomOrder(address)": "27275",
				"setEcomUser(address)": "26681",
				"setLockData(bool)": "29439",
				"setShowroom(address)": "27319",
				"setStockNode(address)": "26967",
				"setUsdt(address)": "27099",
				"testGetNodeParent(address)": "2780",
				"testGetUserParent(address)": "infinite",
				"updateDeliveryProduct(bytes32)": "infinite",
				"upgradeToPromoter(address,int256,int256,bytes32)": "infinite",
				"withdrawBP(uint256,bytes32[])": "infinite",
				"withdrawBPToAnotherUser(uint256,address,bytes32[])": "infinite"
			},
			"internal": {
				"_processNewMember(address,address,int256,int256,bytes32)": "infinite",
				"_processPersonalSales(address,uint256,bytes32)": "infinite",
				"processParentRecursively(address)": "infinite",
				"processQueue()": "infinite",
				"recordPersonalSales(address,uint256,bytes32)": "infinite",
				"recordSales(address,uint256)": "50948",
				"updateLeafNodes()": "infinite",
				"withdrawBPToUser(uint256,address,bytes32[] memory)": "infinite"
			}
		},
		"methodIdentifiers": {
			"addPromoterMember(address,address,int256,int256,bytes32)": "3bd47c22",
			"addVIPMember(address,address,bytes32)": "259dbd96",
			"balancesManager()": "667883f1",
			"banUser(address)": "10d86b1f",
			"buyProduct(bytes32,bytes32)": "d7b5a2d4",
			"checkPromoter(address)": "20d996d2",
			"dailyUpdateGenerationRank()": "35b79c3d",
			"distributeNationalBonus()": "2cf899e2",
			"eComOrderManagerAddress()": "432e9d88",
			"eComUserManagerAddress()": "424ad610",
			"getAddress()": "38cc4831",
			"getChildren(address,uint8,uint256,uint256)": "1da0073a",
			"getCommInfoUSDTInRange(address,uint256,uint256)": "40d1ac13",
			"getCommissionUSDTInRange(address,uint256,uint256)": "c2ad61e7",
			"getPromoterInfo()": "e1ab8c6b",
			"getVIPInfo()": "504ed733",
			"getVIPMembers(address,uint256,uint256)": "964b74dd",
			"hourlyBatchProcessing()": "db499bf5",
			"isPromoterActive(address)": "6c0adbbd",
			"isVIP()": "61a475c8",
			"isVIPOrPromoter(address)": "8b59d23e",
			"processTeamBPAndActive(uint256,uint256)": "1f01f30d",
			"renewMembership(address,bytes32)": "b9bcaf02",
			"resetMonthlyData(uint256,uint256)": "bcd565ba",
			"sendProfitForEStock(uint256)": "8345be55",
			"setAgentLevel(address,uint256)": "61474327",
			"setDaoNode(address)": "0d5795b9",
			"setEcomOrder(address)": "8ca8107b",
			"setEcomUser(address)": "08a851b8",
			"setLockData(bool)": "b35cade9",
			"setShowroom(address)": "af4267ab",
			"setStockNode(address)": "405978f8",
			"setUsdt(address)": "58979bfe",
			"testGetNodeParent(address)": "38cb9134",
			"testGetUserParent(address)": "4a0328de",
			"updateDeliveryProduct(bytes32)": "e45c1b56",
			"upgradeToPromoter(address,int256,int256,bytes32)": "e85d0a86",
			"withdrawBP(uint256,bytes32[])": "5f35ca9c",
			"withdrawBPToAnotherUser(uint256,address,bytes32[])": "185807e4"
		}
	},
	"abi": [
		{
			"inputs": [
				{
					"internalType": "address",
					"name": "_ecomOrderAddress",
					"type": "address"
				},
				{
					"internalType": "address",
					"name": "_ecomUserAddress",
					"type": "address"
				},
				{
					"internalType": "address",
					"name": "_balanceManagerAddress",
					"type": "address"
				},
				{
					"internalType": "address",
					"name": "_showroomAddress",
					"type": "address"
				},
				{
					"internalType": "address",
					"name": "_eventLoggerAddress",
					"type": "address"
				},
				{
					"internalType": "address",
					"name": "_rootNodeAddress",
					"type": "address"
				},
				{
					"internalType": "address",
					"name": "_daoNodeAddress",
					"type": "address"
				},
				{
					"internalType": "address",
					"name": "_stockNodeAddress",
					"type": "address"
				},
				{
					"internalType": "address",
					"name": "_usdtAddress",
					"type": "address"
				}
			],
			"stateMutability": "nonpayable",
			"type": "constructor"
		},
		{
			"anonymous": false,
			"inputs": [
				{
					"indexed": true,
					"internalType": "address",
					"name": "user",
					"type": "address"
				},
				{
					"indexed": false,
					"internalType": "uint256",
					"name": "bp",
					"type": "uint256"
				}
			],
			"name": "BPChanged",
			"type": "event"
		},
		{
			"inputs": [
				{
					"internalType": "address",
					"name": "newMember",
					"type": "address"
				},
				{
					"internalType": "address",
					"name": "parent",
					"type": "address"
				},
				{
					"internalType": "int256",
					"name": "longtitude",
					"type": "int256"
				},
				{
					"internalType": "int256",
					"name": "lattitude",
					"type": "int256"
				},
				{
					"internalType": "bytes32",
					"name": "utxoID",
					"type": "bytes32"
				}
			],
			"name": "addPromoterMember",
			"outputs": [],
			"stateMutability": "nonpayable",
			"type": "function"
		},
		{
			"inputs": [
				{
					"internalType": "address",
					"name": "newMember",
					"type": "address"
				},
				{
					"internalType": "address",
					"name": "parent",
					"type": "address"
				},
				{
					"internalType": "bytes32",
					"name": "utxoID",
					"type": "bytes32"
				}
			],
			"name": "addVIPMember",
			"outputs": [],
			"stateMutability": "nonpayable",
			"type": "function"
		},
		{
			"inputs": [],
			"name": "balancesManager",
			"outputs": [
				{
					"internalType": "contract BalancesManager",
					"name": "",
					"type": "address"
				}
			],
			"stateMutability": "view",
			"type": "function"
		},
		{
			"inputs": [
				{
					"internalType": "address",
					"name": "user",
					"type": "address"
				}
			],
			"name": "banUser",
			"outputs": [],
			"stateMutability": "nonpayable",
			"type": "function"
		},
		{
			"inputs": [
				{
					"internalType": "bytes32",
					"name": "orderCode",
					"type": "bytes32"
				},
				{
					"internalType": "bytes32",
					"name": "utxoID",
					"type": "bytes32"
				}
			],
			"name": "buyProduct",
			"outputs": [],
			"stateMutability": "nonpayable",
			"type": "function"
		},
		{
			"inputs": [
				{
					"internalType": "address",
					"name": "user",
					"type": "address"
				}
			],
			"name": "checkPromoter",
			"outputs": [
				{
					"internalType": "bool",
					"name": "",
					"type": "bool"
				}
			],
			"stateMutability": "view",
			"type": "function"
		},
		{
			"inputs": [],
			"name": "dailyUpdateGenerationRank",
			"outputs": [],
			"stateMutability": "nonpayable",
			"type": "function"
		},
		{
			"inputs": [],
			"name": "distributeNationalBonus",
			"outputs": [],
			"stateMutability": "nonpayable",
			"type": "function"
		},
		{
			"inputs": [],
			"name": "eComOrderManagerAddress",
			"outputs": [
				{
					"internalType": "address",
					"name": "",
					"type": "address"
				}
			],
			"stateMutability": "view",
			"type": "function"
		},
		{
			"inputs": [],
			"name": "eComUserManagerAddress",
			"outputs": [
				{
					"internalType": "address",
					"name": "",
					"type": "address"
				}
			],
			"stateMutability": "view",
			"type": "function"
		},
		{
			"inputs": [],
			"name": "getAddress",
			"outputs": [
				{
					"internalType": "address",
					"name": "",
					"type": "address"
				},
				{
					"internalType": "address",
					"name": "",
					"type": "address"
				},
				{
					"internalType": "address",
					"name": "",
					"type": "address"
				}
			],
			"stateMutability": "view",
			"type": "function"
		},
		{
			"inputs": [
				{
					"internalType": "address",
					"name": "user",
					"type": "address"
				},
				{
					"internalType": "uint8",
					"name": "totalLevel",
					"type": "uint8"
				},
				{
					"internalType": "uint256",
					"name": "startIndex",
					"type": "uint256"
				},
				{
					"internalType": "uint256",
					"name": "pageSize",
					"type": "uint256"
				}
			],
			"name": "getChildren",
			"outputs": [
				{
					"internalType": "address[]",
					"name": "children",
					"type": "address[]"
				},
				{
					"components": [
						{
							"internalType": "address",
							"name": "parent",
							"type": "address"
						},
						{
							"internalType": "address[]",
							"name": "children",
							"type": "address[]"
						},
						{
							"internalType": "enum TreeLib.Rank",
							"name": "rank",
							"type": "uint8"
						},
						{
							"internalType": "enum TreeLib.Status",
							"name": "status",
							"type": "uint8"
						}
					],
					"internalType": "struct TreeLib.NodeInfo[]",
					"name": "childrenInfo",
					"type": "tuple[]"
				},
				{
					"components": [
						{
							"internalType": "uint256",
							"name": "membershipExpiry",
							"type": "uint256"
						},
						{
							"internalType": "uint256",
							"name": "processedChildren",
							"type": "uint256"
						},
						{
							"internalType": "uint256",
							"name": "personalBP",
							"type": "uint256"
						},
						{
							"internalType": "uint256",
							"name": "teamBP",
							"type": "uint256"
						},
						{
							"internalType": "uint256",
							"name": "totalTeamBP",
							"type": "uint256"
						}
					],
					"internalType": "struct TreeLib.NodeData[]",
					"name": "childrenData",
					"type": "tuple[]"
				}
			],
			"stateMutability": "nonpayable",
			"type": "function"
		},
		{
			"inputs": [
				{
					"internalType": "address",
					"name": "_user",
					"type": "address"
				},
				{
					"internalType": "uint256",
					"name": "_startDate",
					"type": "uint256"
				},
				{
					"internalType": "uint256",
					"name": "_endDate",
					"type": "uint256"
				}
			],
			"name": "getCommInfoUSDTInRange",
			"outputs": [
				{
					"components": [
						{
							"internalType": "address",
							"name": "user",
							"type": "address"
						},
						{
							"internalType": "uint256",
							"name": "amount",
							"type": "uint256"
						},
						{
							"internalType": "enum ITreeCommission.TYPE_OF_COM",
							"name": "typ",
							"type": "uint8"
						},
						{
							"internalType": "uint256",
							"name": "createdAt",
							"type": "uint256"
						}
					],
					"internalType": "struct ITreeCommission.CommissionInfo[]",
					"name": "comInfos",
					"type": "tuple[]"
				}
			],
			"stateMutability": "view",
			"type": "function"
		},
		{
			"inputs": [
				{
					"internalType": "address",
					"name": "_user",
					"type": "address"
				},
				{
					"internalType": "uint256",
					"name": "_startDate",
					"type": "uint256"
				},
				{
					"internalType": "uint256",
					"name": "_endDate",
					"type": "uint256"
				}
			],
			"name": "getCommissionUSDTInRange",
			"outputs": [
				{
					"components": [
						{
							"internalType": "uint256",
							"name": "retailBonus",
							"type": "uint256"
						},
						{
							"internalType": "uint256",
							"name": "showroomBonus",
							"type": "uint256"
						},
						{
							"internalType": "uint256",
							"name": "daoBonus",
							"type": "uint256"
						},
						{
							"internalType": "uint256",
							"name": "otherBonus",
							"type": "uint256"
						},
						{
							"internalType": "uint256",
							"name": "activationBp",
							"type": "uint256"
						},
						{
							"internalType": "uint256",
							"name": "diffPrice",
							"type": "uint256"
						},
						{
							"internalType": "uint256",
							"name": "unilevelBonus",
							"type": "uint256"
						},
						{
							"internalType": "uint256",
							"name": "generationBonus",
							"type": "uint256"
						},
						{
							"internalType": "uint256",
							"name": "nationalBonus",
							"type": "uint256"
						}
					],
					"internalType": "struct ITreeCommission.CommissionData",
					"name": "commissionData",
					"type": "tuple"
				}
			],
			"stateMutability": "view",
			"type": "function"
		},
		{
			"inputs": [],
			"name": "getPromoterInfo",
			"outputs": [
				{
					"components": [
						{
							"internalType": "address",
							"name": "parent",
							"type": "address"
						},
						{
							"internalType": "address[]",
							"name": "children",
							"type": "address[]"
						},
						{
							"internalType": "enum TreeLib.Rank",
							"name": "rank",
							"type": "uint8"
						},
						{
							"internalType": "enum TreeLib.Status",
							"name": "status",
							"type": "uint8"
						}
					],
					"internalType": "struct TreeLib.NodeInfo",
					"name": "nodesUser",
					"type": "tuple"
				},
				{
					"components": [
						{
							"internalType": "uint256",
							"name": "membershipExpiry",
							"type": "uint256"
						},
						{
							"internalType": "uint256",
							"name": "processedChildren",
							"type": "uint256"
						},
						{
							"internalType": "uint256",
							"name": "personalBP",
							"type": "uint256"
						},
						{
							"internalType": "uint256",
							"name": "teamBP",
							"type": "uint256"
						},
						{
							"internalType": "uint256",
							"name": "totalTeamBP",
							"type": "uint256"
						}
					],
					"internalType": "struct TreeLib.NodeData",
					"name": "nodeDataUser",
					"type": "tuple"
				}
			],
			"stateMutability": "view",
			"type": "function"
		},
		{
			"inputs": [],
			"name": "getVIPInfo",
			"outputs": [
				{
					"components": [
						{
							"internalType": "address",
							"name": "parent",
							"type": "address"
						},
						{
							"internalType": "uint256",
							"name": "membershipExpiry",
							"type": "uint256"
						}
					],
					"internalType": "struct TreeCommission.VIPNode",
					"name": "",
					"type": "tuple"
				}
			],
			"stateMutability": "view",
			"type": "function"
		},
		{
			"inputs": [
				{
					"internalType": "address",
					"name": "user",
					"type": "address"
				},
				{
					"internalType": "uint256",
					"name": "startIndex",
					"type": "uint256"
				},
				{
					"internalType": "uint256",
					"name": "pageSize",
					"type": "uint256"
				}
			],
			"name": "getVIPMembers",
			"outputs": [
				{
					"internalType": "address[]",
					"name": "",
					"type": "address[]"
				}
			],
			"stateMutability": "view",
			"type": "function"
		},
		{
			"inputs": [],
			"name": "hourlyBatchProcessing",
			"outputs": [],
			"stateMutability": "nonpayable",
			"type": "function"
		},
		{
			"inputs": [
				{
					"internalType": "address",
					"name": "user",
					"type": "address"
				}
			],
			"name": "isPromoterActive",
			"outputs": [
				{
					"internalType": "bool",
					"name": "",
					"type": "bool"
				}
			],
			"stateMutability": "view",
			"type": "function"
		},
		{
			"inputs": [],
			"name": "isVIP",
			"outputs": [
				{
					"internalType": "bool",
					"name": "",
					"type": "bool"
				}
			],
			"stateMutability": "view",
			"type": "function"
		},
		{
			"inputs": [
				{
					"internalType": "address",
					"name": "user",
					"type": "address"
				}
			],
			"name": "isVIPOrPromoter",
			"outputs": [
				{
					"internalType": "bool",
					"name": "",
					"type": "bool"
				}
			],
			"stateMutability": "view",
			"type": "function"
		},
		{
			"inputs": [
				{
					"internalType": "uint256",
					"name": "startIndex",
					"type": "uint256"
				},
				{
					"internalType": "uint256",
					"name": "batchSize",
					"type": "uint256"
				}
			],
			"name": "processTeamBPAndActive",
			"outputs": [
				{
					"internalType": "uint256",
					"name": "nextIndex",
					"type": "uint256"
				}
			],
			"stateMutability": "nonpayable",
			"type": "function"
		},
		{
			"inputs": [
				{
					"internalType": "address",
					"name": "user",
					"type": "address"
				},
				{
					"internalType": "bytes32",
					"name": "utxoID",
					"type": "bytes32"
				}
			],
			"name": "renewMembership",
			"outputs": [],
			"stateMutability": "payable",
			"type": "function"
		},
		{
			"inputs": [
				{
					"internalType": "uint256",
					"name": "startIndex",
					"type": "uint256"
				},
				{
					"internalType": "uint256",
					"name": "batchSize",
					"type": "uint256"
				}
			],
			"name": "resetMonthlyData",
			"outputs": [],
			"stateMutability": "nonpayable",
			"type": "function"
		},
		{
			"inputs": [
				{
					"internalType": "uint256",
					"name": "amount",
					"type": "uint256"
				}
			],
			"name": "sendProfitForEStock",
			"outputs": [],
			"stateMutability": "nonpayable",
			"type": "function"
		},
		{
			"inputs": [
				{
					"internalType": "address",
					"name": "user",
					"type": "address"
				},
				{
					"internalType": "uint256",
					"name": "level",
					"type": "uint256"
				}
			],
			"name": "setAgentLevel",
			"outputs": [],
			"stateMutability": "nonpayable",
			"type": "function"
		},
		{
			"inputs": [
				{
					"internalType": "address",
					"name": "_daoNodeAddress",
					"type": "address"
				}
			],
			"name": "setDaoNode",
			"outputs": [],
			"stateMutability": "nonpayable",
			"type": "function"
		},
		{
			"inputs": [
				{
					"internalType": "address",
					"name": "_eComOrderManagerAddress",
					"type": "address"
				}
			],
			"name": "setEcomOrder",
			"outputs": [],
			"stateMutability": "nonpayable",
			"type": "function"
		},
		{
			"inputs": [
				{
					"internalType": "address",
					"name": "_eComUserManagerAddress",
					"type": "address"
				}
			],
			"name": "setEcomUser",
			"outputs": [],
			"stateMutability": "nonpayable",
			"type": "function"
		},
		{
			"inputs": [
				{
					"internalType": "bool",
					"name": "isLock",
					"type": "bool"
				}
			],
			"name": "setLockData",
			"outputs": [],
			"stateMutability": "nonpayable",
			"type": "function"
		},
		{
			"inputs": [
				{
					"internalType": "address",
					"name": "_showroom",
					"type": "address"
				}
			],
			"name": "setShowroom",
			"outputs": [],
			"stateMutability": "nonpayable",
			"type": "function"
		},
		{
			"inputs": [
				{
					"internalType": "address",
					"name": "_stockNodeAddress",
					"type": "address"
				}
			],
			"name": "setStockNode",
			"outputs": [],
			"stateMutability": "nonpayable",
			"type": "function"
		},
		{
			"inputs": [
				{
					"internalType": "address",
					"name": "_usdtAddress",
					"type": "address"
				}
			],
			"name": "setUsdt",
			"outputs": [],
			"stateMutability": "nonpayable",
			"type": "function"
		},
		{
			"inputs": [
				{
					"internalType": "address",
					"name": "newMember",
					"type": "address"
				}
			],
			"name": "testGetNodeParent",
			"outputs": [
				{
					"internalType": "address",
					"name": "",
					"type": "address"
				}
			],
			"stateMutability": "view",
			"type": "function"
		},
		{
			"inputs": [
				{
					"internalType": "address",
					"name": "newMember",
					"type": "address"
				}
			],
			"name": "testGetUserParent",
			"outputs": [
				{
					"internalType": "address",
					"name": "",
					"type": "address"
				}
			],
			"stateMutability": "view",
			"type": "function"
		},
		{
			"inputs": [
				{
					"internalType": "bytes32",
					"name": "orderCode",
					"type": "bytes32"
				}
			],
			"name": "updateDeliveryProduct",
			"outputs": [],
			"stateMutability": "nonpayable",
			"type": "function"
		},
		{
			"inputs": [
				{
					"internalType": "address",
					"name": "user",
					"type": "address"
				},
				{
					"internalType": "int256",
					"name": "longtitude",
					"type": "int256"
				},
				{
					"internalType": "int256",
					"name": "lattitude",
					"type": "int256"
				},
				{
					"internalType": "bytes32",
					"name": "utxoID",
					"type": "bytes32"
				}
			],
			"name": "upgradeToPromoter",
			"outputs": [],
			"stateMutability": "payable",
			"type": "function"
		},
		{
			"inputs": [
				{
					"internalType": "uint256",
					"name": "amount",
					"type": "uint256"
				},
				{
					"internalType": "bytes32[]",
					"name": "utxoArr",
					"type": "bytes32[]"
				}
			],
			"name": "withdrawBP",
			"outputs": [],
			"stateMutability": "nonpayable",
			"type": "function"
		},
		{
			"inputs": [
				{
					"internalType": "uint256",
					"name": "amount",
					"type": "uint256"
				},
				{
					"internalType": "address",
					"name": "user",
					"type": "address"
				},
				{
					"internalType": "bytes32[]",
					"name": "utxoArr",
					"type": "bytes32[]"
				}
			],
			"name": "withdrawBPToAnotherUser",
			"outputs": [],
			"stateMutability": "nonpayable",
			"type": "function"
		}
	]
}