{
	"data": {
		"bytecode": {
			"linkReferences": {},
			"object": "60806040526011805461ffff1916905534801561001a575f80fd5b50604051617cd7380380617cd7833981016040819052610039916101d6565b6307270e0061004c6064620f4240610278565b1061008a5760405162461bcd60e51b815260206004820152600a60248201526977726f6e6720636f646560b01b604482015260640160405180910390fd5b601b80546001600160a01b03199081166001600160a01b038a811691909117909255601c80548216898416179055601d80548216888416179055601780548216848416179055601480548216878416179055601580548216868416179055601680548216858416179055601e805482168c8416178155601f80548316938c1693909317909255601880543392169190911790556001805480820182555f8281527fb10e2d527612073b26eecdfd717e6a320cf44b4afac2b0732d9fcbe2b7fa0cf6918201558154808301835560289082015581548083018355602390820155815480830183558101929092558054808201909155601991015550506014546001600160a01b03165f908152600460205260409020600201805461ff001916610100179055506102a195505050505050565b80516001600160a01b03811681146101d1575f80fd5b919050565b5f805f805f805f805f6101208a8c0312156101ef575f80fd5b6101f88a6101bb565b985061020660208b016101bb565b975061021460408b016101bb565b965061022260608b016101bb565b955061023060808b016101bb565b945061023e60a08b016101bb565b935061024c60c08b016101bb565b925061025a60e08b016101bb565b91506102696101008b016101bb565b90509295985092959850929598565b808202811582820484141761029b57634e487b7160e01b5f52601160045260245ffd5b92915050565b617a29806102ae5f395ff3fe6080604052600436106101b4575f3560e01c806308a851b8146101b85780630d5795b9146101d957806310d86b1f146101f8578063185807e4146102175780631da0073a146102365780631f01f30d1461026d57806320d996d21461029a578063259dbd96146102e35780632cf899e21461030257806335b79c3d1461031657806338cb91341461032a57806338cc48311461036e578063405978f8146103ac57806340d1ac13146103cb578063424ad610146103f7578063432e9d881461041657806344b89702146104355780634a0328de14610454578063504ed7331461047357806358979bfe146104ab5780635f35ca9c146104ca57806361474327146104e957806361a475c814610508578063667883f1146105335780636c0adbbd146105525780638345be5514610571578063839c7ead146105905780638b59d23e146105a35780638ca8107b146105c2578063964b74dd146105e1578063b35cade91461060d578063b9bcaf021461062c578063bcd565ba1461063f578063c2ad61e71461065e578063d7b5a2d4146106e9578063db499bf514610708578063e1ab8c6b1461071c578063e45c1b561461073e575b5f80fd5b3480156101c3575f80fd5b506101d76101d2366004616917565b61075d565b005b3480156101e4575f80fd5b506101d76101f3366004616917565b6107b2565b348015610203575f80fd5b506101d7610212366004616917565b6107fe565b348015610222575f80fd5b506101d7610231366004616a70565b610850565b348015610241575f80fd5b50610255610250366004616ad2565b6108d3565b60405161026493929190616c46565b60405180910390f35b348015610278575f80fd5b5061028c610287366004616d01565b610d0c565b604051908152602001610264565b3480156102a5575f80fd5b506102d36102b4366004616917565b6001600160a01b039081165f9081526004602052604090205416151590565b6040519015158152602001610264565b3480156102ee575f80fd5b506101d76102fd366004616d21565b611169565b34801561030d575f80fd5b506101d761148f565b348015610321575f80fd5b506101d76114d2565b348015610335575f80fd5b50610361610344366004616917565b6001600160a01b039081165f908152600460205260409020541690565b6040516102649190616d5f565b348015610379575f80fd5b5061038261151b565b604080516001600160a01b0394851681529284166020840152921691810191909152606001610264565b3480156103b7575f80fd5b506101d76103c6366004616917565b61156d565b3480156103d6575f80fd5b506103ea6103e5366004616d73565b6115b9565b6040516102649190616db5565b348015610402575f80fd5b50601f54610361906001600160a01b031681565b348015610421575f80fd5b50601e54610361906001600160a01b031681565b348015610440575f80fd5b506101d761044f366004616e2d565b611637565b34801561045f575f80fd5b5061036161046e366004616917565b611a87565b34801561047e575f80fd5b50610487611aff565b6040805182516001600160a01b031681526020928301519281019290925201610264565b3480156104b6575f80fd5b506101d76104c5366004616917565b611ba2565b3480156104d5575f80fd5b506101d76104e4366004616e7a565b611bee565b3480156104f4575f80fd5b506101d7610503366004616ebd565b611c7a565b348015610513575f80fd5b50335f908152601260205260409020546001600160a01b031615156102d3565b34801561053e575f80fd5b50601b54610361906001600160a01b031681565b34801561055d575f80fd5b506102d361056c366004616917565b611d07565b34801561057c575f80fd5b506101d761058b366004616ee7565b611d69565b6101d761059e366004616efe565b611f16565b3480156105ae575f80fd5b506102d36105bd366004616917565b6122fc565b3480156105cd575f80fd5b506101d76105dc366004616917565b612358565b3480156105ec575f80fd5b506106006105fb366004616d73565b6123a4565b6040516102649190616f36565b348015610618575f80fd5b506101d7610627366004616f55565b612560565b6101d761063a366004616ebd565b6125f5565b34801561064a575f80fd5b506101d7610659366004616d01565b61283e565b348015610669575f80fd5b5061067d610678366004616d73565b612a35565b60405161026491905f61012082019050825182526020830151602083015260408301516040830152606083015160608301526080830151608083015260a083015160a083015260c083015160c083015260e083015160e083015261010083015161010083015292915050565b3480156106f4575f80fd5b506101d7610703366004616d01565b612aef565b348015610713575f80fd5b506101d761310b565b348015610727575f80fd5b506107306131fb565b604051610264929190616f70565b348015610749575f80fd5b506101d7610758366004616ee7565b6133bb565b6018546001600160a01b031633146107905760405162461bcd60e51b815260040161078790616f91565b60405180910390fd5b601f80546001600160a01b0319166001600160a01b0392909216919091179055565b6018546001600160a01b031633146107dc5760405162461bcd60e51b815260040161078790616f91565b601580546001600160a01b0319166001600160a01b0392909216919091179055565b6018546001600160a01b031633146108285760405162461bcd60e51b815260040161078790616f91565b6001600160a01b03165f908152600460205260409020600201805461ff001916610300179055565b5f831161086f5760405162461bcd60e51b815260040161078790616fc6565b6014546001600160a01b031633148061089257506016546001600160a01b031633145b806108a757506015546001600160a01b031633145b6108c35760405162461bcd60e51b815260040161078790616ffd565b6108ce8383836136eb565b505050565b606080803332146108f65760405162461bcd60e51b81526004016107879061702c565b610907600488338960206021613aed565b6109495760405162461bcd60e51b81526020600482015260136024820152722ab730baba3437b934bd32b21031b0b63632b960691b6044820152606401610787565b6001600160a01b0387165f908152600460205260409020600101548086106109e157604080515f808252602082018181528284019093529091906109a3565b610990616777565b8152602001906001900390816109885790505b50604080515f80825260208201909252906109d4565b6109c161679c565b8152602001906001900390816109b95790505b5093509350935050610d02565b5f816109ed8789617075565b116109f85785610a02565b610a028783617088565b9050806001600160401b03811115610a1c57610a1c616932565b604051908082528060200260200182016040528015610a5557816020015b610a42616777565b815260200190600190039081610a3a5790505b509350806001600160401b03811115610a7057610a70616932565b604051908082528060200260200182016040528015610aa957816020015b610a9661679c565b815260200190600190039081610a8e5790505b509250806001600160401b03811115610ac457610ac4616932565b604051908082528060200260200182016040528015610aed578160200160208202803683370190505b5094505f5b81811015610cfe576001600160a01b038a165f908152600460205260408120600101610b1e838b617075565b81548110610b2e57610b2e61709b565b5f9182526020808320909101546001600160a01b03908116808452600483526040938490208451608081018652815490931683526001810180548651818702810187019097528087529296509294909385810193919290830182828015610bbc57602002820191905f5260205f20905b81546001600160a01b03168152600190910190602001808311610b9e575b5050509183525050600282015460209091019060ff166007811115610be357610be3616b58565b6007811115610bf457610bf4616b58565b81526020016002820160019054906101000a900460ff166003811115610c1c57610c1c616b58565b6003811115610c2d57610c2d616b58565b81525050868381518110610c4357610c4361709b565b602002602001018190525060055f826001600160a01b03166001600160a01b031681526020019081526020015f206040518060a00160405290815f8201548152602001600182015481526020016002820154815260200160038201548152602001600482015481525050858381518110610cbf57610cbf61709b565b602002602001018190525080878381518110610cdd57610cdd61709b565b6001600160a01b039092166020928302919091019091015250600101610af2565b5050505b9450945094915050565b6018545f906001600160a01b03163314610d385760405162461bcd60e51b815260040161078790616f91565b600e548310610d595760405162461bcd60e51b8152600401610787906170af565b5f8211610db25760405162461bcd60e51b815260206004820152602160248201527f42617463682073697a65206d7573742062652067726561746572207468616e206044820152600360fc1b6064820152608401610787565b600e54610dbf8482617088565b831115610dd357610dd08482617088565b92505b5f5b8381108015610de357508185105b15611146575f600e8681548110610dfc57610dfc61709b565b5f918252602090912001546001600160a01b03169050801580610e2c57506014546001600160a01b038281169116145b15610e3c575f9350505050611163565b610e4f6004600560076008600a86613c6b565b506001600160a01b038082165f90815260046020526040902054168015611124576001600160a01b0381165f9081526005602052604081206001908101805491929091610e9d908490617075565b90915550506001600160a01b0381165f908152601a602052604090205460ff161515600114801590610f0a57506001600160a01b0382165f9081526019602052604090206001015460ff1680610f0a57506001600160a01b0382165f908152601a602052604090205460ff165b15610f32576001600160a01b0381165f908152601a60205260409020805460ff191660011790555b6001600160a01b0382165f908152601960209081526040808320838155600101805460ff19908116909155601a835281842080549091169055600990915290205415611004576001600160a01b038083165f9081526009602052604080822054928416825281208054909190610fa9908490617075565b90915550506001600160a01b038083165f908152600960209081526040808320549385168352600a90915281208054909190610fe6908490617075565b90915550506001600160a01b0382165f908152600960205260408120555b6001600160a01b0381165f90815260046020908152604080832060019081015460059093529220909101540361107c576001600160a01b0381165f908152600560209081526040808320600101839055601a90915290205460ff16156110735761107360056004600284613dc6565b61107c81614087565b6001600160a01b0381165f908152601a602052604090205460ff1680156110d7575060016001600160a01b0382165f90815260046020526040902060020154610100900460ff1660038111156110d4576110d4616b58565b14155b80156110e957506110e96005826142b6565b15611124576001600160a01b0381165f908152600460208190526040909120600201805461ff00191661010017905561112490600c836142ff565b8661112e816170dc565b975050828061113c906170dc565b9350505050610dd5565b818510611153575f61115e565b61115e856001617075565b925050505b92915050565b3332146111885760405162461bcd60e51b81526004016107879061702c565b601154610100900460ff16156111b05760405162461bcd60e51b8152600401610787906170f4565b6001600160a01b038381165f9081526004602052604090205416156111e75760405162461bcd60e51b81526004016107879061711c565b6001600160a01b038381165f90815260126020526040902054161561121e5760405162461bcd60e51b815260040161078790617149565b6001600160a01b038281165f908152600460205260409020541615158061125257506014546001600160a01b038381169116145b61126e5760405162461bcd60e51b81526004016107879061717d565b6014546001600160a01b03838116911614158061129557506018546001600160a01b031633145b6112b15760405162461bcd60e51b8152600401610787906171ac565b601f5460405163700786d760e11b81526001600160a01b0390911690819063e00f0dae906112e3908790600401616d5f565b602060405180830381865afa1580156112fe573d5f803e3d5ffd5b505050506040513d601f19601f8201168201806040525081019061132291906171e6565b6001600160a01b0316836001600160a01b0316146113525760405162461bcd60e51b815260040161078790617201565b60175461136d906001600160a01b0316836307270e00614380565b6040518060400160405280846001600160a01b03168152602001426301e133806113979190617075565b90526001600160a01b038086165f818152601260209081526040808320865181549087166001600160a01b0319918216178255968301516001918201559489168352601382528220805494850181558252902090910180549092161790556114018460648461459c565b601b546016546001600160a01b039182169163e115dc7f911684606461142e620f42406307270e0061723f565b6114389190617088565b600160026040518663ffffffff1660e01b815260040161145c959493929190617252565b5f604051808303815f87803b158015611473575f80fd5b505af1158015611485573d5f803e3d5ffd5b5050505050505050565b6018546001600160a01b031633146114b95760405162461bcd60e51b815260040161078790616f91565b601b546114d0906001600160a01b031660026146a2565b565b6018546001600160a01b031633146114fc5760405162461bcd60e51b815260040161078790616f91565b6014546114d090600490600d90600b906001600160a01b031680614914565b6018545f90819081906001600160a01b0316331461154b5760405162461bcd60e51b815260040161078790616f91565b50506015546016546014546001600160a01b0392831693509082169116909192565b6018546001600160a01b031633146115975760405162461bcd60e51b815260040161078790616f91565b601680546001600160a01b0319166001600160a01b0392909216919091179055565b601b54604051635bc3e91160e11b81526060916001600160a01b03169063b787d222906115ee90879087908790600401617285565b5f60405180830381865afa158015611608573d5f803e3d5ffd5b505050506040513d5f823e601f3d908101601f1916820160405261162f91908101906172a6565b949350505050565b3332146116565760405162461bcd60e51b81526004016107879061702c565b601154610100900460ff161561167e5760405162461bcd60e51b8152600401610787906170f4565b6001600160a01b038581165f9081526004602052604090205416156116b55760405162461bcd60e51b81526004016107879061711c565b6001600160a01b038581165f9081526012602052604090205416156116ec5760405162461bcd60e51b815260040161078790617149565b6001600160a01b038481165f908152600460205260409020541615158061172057506014546001600160a01b038581169116145b61173c5760405162461bcd60e51b81526004016107879061717d565b6014546001600160a01b03858116911614158061176357506018546001600160a01b031633145b61177f5760405162461bcd60e51b8152600401610787906171ac565b601f5460405163700786d760e11b81526001600160a01b0390911690819063e00f0dae906117b1908990600401616d5f565b602060405180830381865afa1580156117cc573d5f803e3d5ffd5b505050506040513d601f19601f820116820180604052508101906117f091906171e6565b6001600160a01b0316856001600160a01b0316146118205760405162461bcd60e51b815260040161078790617201565b601754611848906001600160a01b0316836118436307270e006302625a00617075565b614380565b601c54604051637cce993960e01b815260048101859052602481018690525f916001600160a01b031690637cce993990604401602060405180830381865afa158015611896573d5f803e3d5ffd5b505050506040513d601f19601f820116820180604052508101906118ba91906171e6565b90506001600160a01b038116156118f9576001600160a01b038781165f90815260066020526040902080546001600160a01b0319169183169190911790555b6119058760648561459c565b601b546016546001600160a01b039182169163e115dc7f9116856064611932620f42406307270e0061723f565b61193c9190617088565b600160026040518663ffffffff1660e01b8152600401611960959493929190617252565b5f604051808303815f87803b158015611977575f80fd5b505af1158015611989573d5f803e3d5ffd5b505060115460ff16159150611a6890505750506040805160a0810182526001600160a01b038088168252868116602083019081529282018681526060830186815260808401868152600f80546001810182555f91909152945160059095025f805160206179d4833981519152810180549686166001600160a01b031997881617905595515f805160206179b48339815191528701805491909516951694909417909255515f80516020617994833981519152840155515f80516020617974833981519152830155515f8051602061795483398151915290910155611a80565b611a70614c14565b611a7d8787878787614db5565b50505b5050505050565b601f5460405163700786d760e11b81525f916001600160a01b031690819063e00f0dae90611ab9908690600401616d5f565b602060405180830381865afa158015611ad4573d5f803e3d5ffd5b505050506040513d601f19601f82011682018060405250810190611af891906171e6565b9392505050565b604080518082019091525f8082526020820152333214611b315760405162461bcd60e51b81526004016107879061702c565b335f818152601260205260409020546001600160a01b0316611b655760405162461bcd60e51b81526004016107879061737a565b6001600160a01b039081165f9081526012602090815260409182902082518084019093528054909316825260019092015491810191909152905090565b6018546001600160a01b03163314611bcc5760405162461bcd60e51b815260040161078790616f91565b601780546001600160a01b0319166001600160a01b0392909216919091179055565b5f8211611c0d5760405162461bcd60e51b815260040161078790616fc6565b32331480611c2557506014546001600160a01b031633145b80611c3a57506016546001600160a01b031633145b80611c4f57506015546001600160a01b031633145b611c6b5760405162461bcd60e51b815260040161078790616ffd565b611c768233836136eb565b5050565b6018546001600160a01b03163314611ca45760405162461bcd60e51b815260040161078790616f91565b6001600160a01b038281165f9081526004602052604090205416611cfc5760405162461bcd60e51b815260206004820152600f60248201526e55736572206e6f742065786973747360881b6044820152606401610787565b611c765f8383615401565b6001600160a01b038181165f9081526004602052604081205490911615801590611163575060016001600160a01b0383165f90815260046020526040902060020154610100900460ff166003811115611d6257611d62616b58565b1492915050565b6018546001600160a01b03163314611d935760405162461bcd60e51b815260040161078790616f91565b6017546040516370a0823160e01b81526001600160a01b03909116906370a0823190611dc3903090600401616d5f565b602060405180830381865afa158015611dde573d5f803e3d5ffd5b505050506040513d601f19601f82011682018060405250810190611e0291906173a7565b811115611e4a5760405162461bcd60e51b8152602060048201526016602482015275616d6f756e74206973206f7665722062616c616e636560501b6044820152606401610787565b60175460165460405163095ea7b360e01b81526001600160a01b039283169263095ea7b392611e809291169085906004016173be565b6020604051808303815f875af1158015611e9c573d5f803e3d5ffd5b505050506040513d601f19601f82011682018060405250810190611ec091906173d7565b5060165460405163053f29f760e31b8152600481018390526001600160a01b03909116906329f94fb8906024015f604051808303815f87803b158015611f04575f80fd5b505af1158015611a80573d5f803e3d5ffd5b333214611f355760405162461bcd60e51b81526004016107879061702c565b601154610100900460ff1615611f5d5760405162461bcd60e51b8152600401610787906170f4565b6001600160a01b038481165f9081526012602052604090205416611fb65760405162461bcd60e51b815260206004820152601060248201526f55736572206e6f742070656e64696e6760801b6044820152606401610787565b6001600160a01b0384165f908152601260205260409020600101544211156120155760405162461bcd60e51b815260206004820152601260248201527113595b58995c9cda1a5c08195e1c1a5c995960721b6044820152606401610787565b6001600160a01b038085165f90815260126020908152604080832054841680845260049092529091205490911615158061205c57506014546001600160a01b038281169116145b6120785760405162461bcd60e51b81526004016107879061717d565b601754612093906001600160a01b0316836302625a00614380565b6001600160a01b0385165f90815260126020526040812080546001600160a01b03191681556001018190555b6001600160a01b0382165f90815260136020526040902054811015612207576001600160a01b038281165f9081526013602052604090208054918816918390811061210c5761210c61709b565b5f918252602090912001546001600160a01b0316036121ff576001600160a01b0382165f908152601360205260409020805461214a90600190617088565b8154811061215a5761215a61709b565b5f9182526020808320909101546001600160a01b038581168452601390925260409092208054919092169190839081106121965761219661709b565b5f91825260208083209190910180546001600160a01b0319166001600160a01b0394851617905591841681526013909152604090208054806121da576121da6173f2565b5f8281526020902081015f1990810180546001600160a01b0319169055019055612207565b6001016120bf565b5060115460ff16156122e1576040805160a0810182526001600160a01b038088168252928316602082019081529181018681526060820186815260808301868152600f80546001810182555f91909152935160059094025f805160206179d4833981519152810180549588166001600160a01b031996871617905594515f805160206179b48339815191528601805491909716941693909317909455515f8051602061799483398151915283015591515f8051602061797483398151915282015590515f80516020617954833981519152909101556122f6565b6122e9614c14565b611a808582868686614db5565b50505050565b6001600160a01b038181165f9081526004602052604081205490911615158061233d57506001600160a01b038281165f908152601260205260409020541615155b806111635750506014546001600160a01b0390811691161490565b6018546001600160a01b031633146123825760405162461bcd60e51b815260040161078790616f91565b601e80546001600160a01b0319166001600160a01b0392909216919091179055565b60603332146123c55760405162461bcd60e51b81526004016107879061702c565b5f821180156123d5575060328211155b61242b5760405162461bcd60e51b815260206004820152602160248201527f7061676553697a65206d757374206265206265747765656e203120616e6420356044820152600360fc1b6064820152608401610787565b6001600160a01b0384165f9081526013602052604090205480841061245f575050604080515f815260208101909152611af8565b5f61246a8486617075565b9050818111156124775750805b5f6124828683617088565b6001600160401b0381111561249957612499616932565b6040519080825280602002602001820160405280156124c2578160200160208202803683370190505b5090505f865b83811015612553576001600160a01b0389165f9081526013602052604090208054829081106124f9576124f961709b565b905f5260205f20015f9054906101000a90046001600160a01b03168383815181106125265761252661709b565b6001600160a01b039092166020928302919091019091015281612548816170dc565b9250506001016124c8565b5090979650505050505050565b6018546001600160a01b0316331461258a5760405162461bcd60e51b815260040161078790616f91565b60115460ff16156125db5760405162461bcd60e51b815260206004820152601b60248201527a42617463682070726f63657373696e672069732072756e6e696e6760281b6044820152606401610787565b601180549115156101000261ff0019909216919091179055565b3332146126145760405162461bcd60e51b81526004016107879061702c565b601154610100900460ff161561263c5760405162461bcd60e51b8152600401610787906170f4565b6001600160a01b038281165f90815260126020526040902054166126fc576001600160a01b038281165f90815260046020526040902054166126905760405162461bcd60e51b81526004016107879061737a565b6001600160a01b0382165f908152600560205260409020544211156126f75760405162461bcd60e51b815260206004820181905260248201527f4d656d6265727368697020657870697265642c2063616e6e6f742072656e65776044820152606401610787565b61275a565b6001600160a01b038281165f90815260046020526040902054161561275a5760405162461bcd60e51b8152602060048201526014602482015273557365722077726f6e672073747275637475726560601b6044820152606401610787565b601754612775906001600160a01b0316826307270e00614380565b6001600160a01b0382165f90815260056020526040812080546301e1338092906127a0908490617075565b909155506127b290508260648361459c565b601b546016546001600160a01b039182169163e115dc7f91168360646127df620f42406307270e0061723f565b6127e99190617088565b600160026040518663ffffffff1660e01b815260040161280d959493929190617252565b5f604051808303815f87803b158015612824575f80fd5b505af1158015612836573d5f803e3d5ffd5b505050505050565b6018546001600160a01b031633146128685760405162461bcd60e51b815260040161078790616f91565b60035482106128895760405162461bcd60e51b8152600401610787906170af565b61289460025f6167c6565b6003545f906128a38385617075565b116128b7576128b28284617075565b6128bb565b6003545b9050825b818110156129dc575f600382815481106128db576128db61709b565b5f9182526020808320909101546001600160a01b031680835260079091526040822054909250600111158061292957506001600160a01b0382165f908152600a602081905260409091205410155b8061294c57506001600160a01b0382165f90815260086020526040902054606411155b15612955575060015b80612998576001600160a01b0382165f908152600460205260408120600201805461ff00191661010083021790555061299360046005600285615467565b6129a5565b6129a56004600c846142ff565b506001600160a01b03165f908152600760209081526040808320839055600a825280832083905560089091528120556001016128bf565b505f5b602154811015612a295760205f602183815481106129ff576129ff61709b565b5f91825260208083209091015483528201929092526040019020805460ff191690556001016129df565b506108ce60215f6167c6565b612a7b6040518061012001604052805f81526020015f81526020015f81526020015f81526020015f81526020015f81526020015f81526020015f81526020015f81525090565b601b5460405163316f085f60e01b81526001600160a01b039091169063316f085f90612aaf90879087908790600401617285565b61012060405180830381865afa158015612acb573d5f803e3d5ffd5b505050506040513d601f19601f8201168201806040525081019061162f9190617406565b333214612b0e5760405162461bcd60e51b81526004016107879061702c565b601154610100900460ff1615612b365760405162461bcd60e51b8152600401610787906170f4565b81612b535760405162461bcd60e51b81526004016107879061747f565b601e54604051637d84709760e11b8152600481018490526001600160a01b03909116905f90829063fb08e12e90602401602060405180830381865afa158015612b9e573d5f803e3d5ffd5b505050506040513d601f19601f82011682018060405250810190612bc291906173a7565b9050805f03612be35760405162461bcd60e51b8152600401610787906174a9565b60405163d09ef24160e01b8152600481018290525f906001600160a01b0384169063d09ef241906024015f60405180830381865afa158015612c27573d5f803e3d5ffd5b505050506040513d5f823e601f3d908101601f19168201604052612c4e9190810190617538565b6101608101519091505f80805b846101400151518160ff161015612d3a575f8561014001518260ff1681518110612c8757612c8761709b565b602002602001015111612cca5760405162461bcd60e51b815260206004820152600b60248201526a1c995dd85c990819985a5b60aa1b6044820152606401610787565b8461014001518160ff1681518110612ce457612ce461709b565b602002602001015182612cf79190617075565b91508461010001518160ff1681518110612d1357612d1361709b565b602002602001015183612d269190617075565b925080612d328161774d565b915050612c5b565b50602084015160408501516001600160a01b0380831691161482612d61620f42408761723f565b11612da15760405162461bcd60e51b815260206004820152601060248201526f2bb937b7339031b7b6b6b4b9b9b4b7b760811b6044820152606401610787565b6001600160a01b038216612dc75760405162461bcd60e51b81526004016107879061776b565b5f8511612de65760405162461bcd60e51b81526004016107879061776b565b338115612e87576001600160a01b038181165f9081526004602052604090205416151580612e2c57506001600160a01b038181165f908152601260205260409020541615155b612e875760405162461bcd60e51b815260206004820152602660248201527f5573657220616c72656164792065786973747320696e20564950206f7220507260448201526537b6b7ba32b960d11b6064820152608401610787565b6001600160a01b038181165f9081526004602052604090205416612f3657829050612ed46040518060400160405280600a8152602001693830b932b73a1036309d60b11b8152508461567c565b6001600160a01b038381165f9081526004602052604090205416612f315760405162461bcd60e51b8152602060048201526014602482015273506172656e74206973206e6f742065786973747360601b6044820152606401610787565b61300c565b60016001600160a01b0382165f90815260046020526040902060020154610100900460ff166003811115612f6c57612f6c616b58565b14612fae5760405162461bcd60e51b815260206004820152601260248201527155736572206973206e6f742061637469766560701b6044820152606401610787565b6001600160a01b038181165f9081526004602052604090205481169084161461300c5760405162461bcd60e51b815260206004820152601060248201526f0a0c2e4cadce840dcdee840dac2e8c6d60831b6044820152606401610787565b601754613023906001600160a01b03168b88614380565b604051637c4a0cb760e11b8152600481018c90526001600160a01b038a169063f894196e906024015f604051808303815f87803b158015613062575f80fd5b505af1158015613074573d5f803e3d5ffd5b505050506040518060800160405280858152602001868152602001826001600160a01b031681526020018b81525060225f8d81526020019081526020015f205f820151815f0155602082015181600101556040820151816002015f6101000a8154816001600160a01b0302191690836001600160a01b03160217905550606082015181600301559050505050505050505050505050565b6018546001600160a01b031633146131355760405162461bcd60e51b815260040161078790616f91565b601154610100900460ff161561315d5760405162461bcd60e51b8152600401610787906170f4565b60115460ff16156131a55760405162461bcd60e51b8152602060048201526012602482015271416c72656164792070726f63657373696e6760701b6044820152606401610787565b6011805460ff191660011790556131ba6156c1565b601e5f5b600e548110156131e9575f6131d38284610d0c565b9050805f036131e257506131e9565b90506131be565b6011805460ff19169055611c76614c14565b613203616777565b61320b61679c565b33321461322a5760405162461bcd60e51b81526004016107879061702c565b335f818152600460205260409020546001600160a01b031661325e5760405162461bcd60e51b81526004016107879061737a565b6001600160a01b038082165f908152600460209081526040918290208251608081018452815490941684526001810180548451818502810185019095528085529193858401939092908301828280156132de57602002820191905f5260205f20905b81546001600160a01b031681526001909101906020018083116132c0575b5050509183525050600282015460209091019060ff16600781111561330557613305616b58565b600781111561331657613316616b58565b81526020016002820160019054906101000a900460ff16600381111561333e5761333e616b58565b600381111561334f5761334f616b58565b81525050925060055f826001600160a01b03166001600160a01b031681526020019081526020015f206040518060a00160405290815f82015481526020016001820154815260200160028201548152602001600382015481526020016004820154815250509150509091565b601e546001600160a01b031633811461344a5760405162461bcd60e51b815260206004820152604560248201527f7b2266726f6d223a202254726565436f6d2e736f6c222c22636f6465223a203560448201527f352c20226d657373616765223a2022596f7520617265206e6f7420616c6c6f7760648201526465642e227d60d81b608482015260a401610787565b601154610100900460ff16156134725760405162461bcd60e51b8152600401610787906170f4565b8161348f5760405162461bcd60e51b81526004016107879061747f565b5f82815260226020526040902054806134ba5760405162461bcd60e51b8152600401610787906174a9565b5f838152602260205260409020600381015460018201546002909201549091906001600160a01b0316811561363d5760026001600160a01b0382165f90815260046020526040902060020154610100900460ff16600381111561351f5761351f616b58565b146135ad57601b546001600160a01b031663e115dc7f82856064613546620f42408861723f565b613551906050617791565b61355b919061723f565b600160056040518663ffffffff1660e01b815260040161357f959493929190617252565b5f604051808303815f87803b158015613596575f80fd5b505af11580156135a8573d5f803e3d5ffd5b505050505b601b546015546001600160a01b039182169163e115dc7f91168560646135d6620f42408861723f565b6135e1906014617791565b6135eb919061723f565b600160056040518663ffffffff1660e01b815260040161360f959493929190617252565b5f604051808303815f87803b158015613626575f80fd5b505af1158015613638573d5f803e3d5ffd5b505050505b61364881858561459c565b5f868152602260205260408082208281556001808201849055600280830180546001600160a01b0319169055600390920193909355601b54601454925163e115dc7f60e01b81526001600160a01b039182169463e115dc7f946136b69493169289928b929190600401617252565b5f604051808303815f87803b1580156136cd575f80fd5b505af11580156136df573d5f803e3d5ffd5b50505050505050505050565b80511561376457601b546040516368bd52e560e11b81526001600160a01b039091169063d17aa5ca9061372490859085906004016177a8565b6020604051808303815f875af1158015613740573d5f803e3d5ffd5b505050506040513d601f19601f820116820180604052508101906122f691906173d7565b601b5460405163f8b2cb4f60e01b81525f916001600160a01b03169063f8b2cb4f90613794903390600401616d5f565b602060405180830381865afa1580156137af573d5f803e3d5ffd5b505050506040513d601f19601f820116820180604052508101906137d391906173a7565b90508381101561381c5760405162461bcd60e51b8152602060048201526014602482015273496e73756666696369656e742062616c616e636560601b6044820152606401610787565b601b5460405163c84d239b60e01b81526001600160a01b039091169063c84d239b9061384e90339088906004016173be565b6020604051808303815f875af115801561386a573d5f803e3d5ffd5b505050506040513d601f19601f8201168201806040525081019061388e91906173d7565b6138e45760405162461bcd60e51b815260206004820152602160248201527f496e73756666696369656e742062616c616e636520666f7220776974686472616044820152607760f81b6064820152608401610787565b335f908152600460205260409020600290810154610100900460ff169081600381111561391357613913616b58565b141580156139335750600381600381111561393057613930616b58565b14155b61396d5760405162461bcd60e51b815260206004820152600b60248201526a44656e792061636365737360a81b6044820152606401610787565b6017546040516370a0823160e01b81526001600160a01b03909116906370a082319061399d903090600401616d5f565b602060405180830381865afa1580156139b8573d5f803e3d5ffd5b505050506040513d601f19601f820116820180604052508101906139dc91906173a7565b6139e986620f4240617791565b10613a335760405162461bcd60e51b815260206004820152601a6024820152794e6f7420656e6f756768207573647420696e2074726565436f6d60301b6044820152606401610787565b6017546001600160a01b031663a9059cbb85613a5288620f4240617791565b6040518363ffffffff1660e01b8152600401613a6f9291906173be565b6020604051808303815f875af1158015613a8b573d5f803e3d5ffd5b505050506040513d601f19601f82011682018060405250810190613aaf91906173d7565b611a805760405162461bcd60e51b815260206004820152600f60248201526e151c985b9cd9995c8819985a5b1959608a1b6044820152606401610787565b5f6001600160a01b038516331480613b435750825f3387604051602001613b159291906177fd565b60408051601f198184030181529181528151602092830120835290820192909252015f205460ff1615156001145b613b7f5760405162461bcd60e51b815260206004820152600d60248201526c139bdd081c195c9b5a5d1d1959609a1b6044820152606401610787565b5f865b6001600160a01b03811615613c5b5781613b9b8161774d565b9250508560ff168260ff160315613c5b57866001600160a01b0316816001600160a01b031603613bd057600192505050613c61565b6001600160a01b039081165f90815260208a9052604090205416613bf5600a8361781f565b60ff165f03613c56575f3382604051602001613c129291906177fd565b60408051601f1981840301815291815281516020928301205f818152898452918220805460ff19166001908117909155885490810189558883529290912090910155505b613b82565b5f925050505b9695505050505050565b6001600160a01b0381165f908152602087905260408120600290810154610100900460ff1690816003811115613ca357613ca3616b58565b1480613cc057506003816003811115613cbe57613cbe616b58565b145b15613cce575f915050613c61565b6001600160a01b0383165f90815260208890526040902054421115613d24576001600160a01b0383165f9081526020899052604090206002908101805461ff001916610100835b02179055506001915050613c61565b6001600160a01b0383165f908152602087905260409020546001111580613d6357506001600160a01b0383165f90815260208590526040902054600a11155b80613d8657506001600160a01b0383165f90815260208690526040902054606411155b15613db9576001600160a01b0383165f90815260208990526040902060020180546001919061ff00191661010083613d15565b505f979650505050505050565b6001600160a01b0381165f90815260208581526040808320600201549186905282206001015490919081816001600160401b03811115613e0857613e08616932565b604051908082528060200260200182016040528015613e31578160200160208202803683370190505b5090505f5b82811015613f3e576001600160a01b0386165f908152602089905260408120600101805483908110613e6a57613e6a61709b565b5f9182526020808320909101546001600160a01b03168083528b82526040808420928e905283206003810154600290910154919450919291613eab91617075565b90505f8111613ebc57505050613f36565b6001600160a01b0383165f90815260208d9052604081206003015584518190869086908110613eed57613eed61709b565b6020908102919091010152613f028189617075565b97506004600283015460ff166007811115613f1f57613f1f616b58565b1015613f3257613f2f8188617075565b96505b5050505b600101613e36565b508315611485575f60056001600160a01b0387165f90815260208a9052604090206002015460ff166007811115613f7757613f77616b58565b1015613f84576032613f87565b60285b60ff1690505f6064613f998388617791565b613fa3919061723f565b90505f805b858110156140055782858281518110613fc357613fc361709b565b602002602001015111613fef57848181518110613fe257613fe261709b565b6020026020010151613ff1565b825b613ffb9083617075565b9150600101613fa8565b506001600160a01b0388165f90815260208c9052604081206003015461402b9083617088565b9050801561405c576001600160a01b0389165f90815260208d90526040902060030182905561405c8b8d8c8c615467565b5050506001600160a01b0386165f90815260208a905260409020600401859055505050505050505050565b6001600160a01b038082165f9081526004602052604090205416806140aa575050565b6001600160a01b0381165f90815260056020526040812060019081018054919290916140d7908490617075565b90915550506001600160a01b0381165f908152601a602052604090205460ff16151560011480159061414457506001600160a01b0382165f9081526019602052604090206001015460ff168061414457506001600160a01b0382165f908152601a602052604090205460ff165b1561416c576001600160a01b0381165f908152601a60205260409020805460ff191660011790555b6001600160a01b0382165f908152601960209081526040808320838155600101805460ff19908116909155601a83528184208054909116905560099091529020541561423e576001600160a01b038083165f90815260096020526040808220549284168252812080549091906141e3908490617075565b90915550506001600160a01b038083165f908152600960209081526040808320549385168352600a90915281208054909190614220908490617075565b90915550506001600160a01b0382165f908152600960205260408120555b6001600160a01b0381165f908152600460209081526040808320600190810154600590935292209091015403611c76576001600160a01b0381165f908152600560209081526040808320600101839055601a90915290205460ff16156142ad576142ad60056004600284613dc6565b611c7681614087565b6001600160a01b0381165f908152602083905260408120600201546064111580611af85750506001600160a01b03165f90815260209190915260409020600301546101f4111590565b6001600160a01b0381165f908152602084905260408120600101905b8154811015611a805782845f8484815481106143395761433961709b565b5f918252602080832091909101546001600160a01b039081168452908301939093526040909101902080546001600160a01b0319169290911691909117905560010161431b565b816108ce576040516370a0823160e01b81525f906001600160a01b038516906370a08231906143b3903090600401616d5f565b602060405180830381865afa1580156143ce573d5f803e3d5ffd5b505050506040513d601f19601f820116820180604052508101906143f291906173a7565b6040516323b872dd60e01b8152336004820152306024820152604481018490529091506001600160a01b038516906323b872dd906064016020604051808303815f875af1158015614445573d5f803e3d5ffd5b505050506040513d601f19601f8201168201806040525081019061446991906173d7565b6144ac5760405162461bcd60e51b81526020600482015260146024820152731554d115081d1c985b9cd9995c8819985a5b195960621b6044820152606401610787565b6040516370a0823160e01b81525f906001600160a01b038616906370a08231906144da903090600401616d5f565b602060405180830381865afa1580156144f5573d5f803e3d5ffd5b505050506040513d601f19601f8201168201806040525081019061451991906173a7565b90505f6145268383617088565b9050614535620f424085617088565b8110158015614550575061454c84620f4240617075565b8111155b6128365760405162461bcd60e51b815260206004820152601e60248201527f496e636f72726563742055534454207472616e7366657220616d6f756e7400006044820152606401610787565b601154610100900460ff16156145c45760405162461bcd60e51b8152600401610787906170f4565b60115460ff161561468f57604080516060810182526001600160a01b03948516815260208101938452908101918252601080546001810182555f9190915290517f1b6847dc741a1b0cd08d278845f9d819d87b734759afb55fe2de5cb82a9ae672600390920291820180546001600160a01b031916919095161790935590517f1b6847dc741a1b0cd08d278845f9d819d87b734759afb55fe2de5cb82a9ae673830155517f1b6847dc741a1b0cd08d278845f9d819d87b734759afb55fe2de5cb82a9ae67490910155565b614697614c14565b6108ce8383836157da565b5f826001600160a01b031663ee82cfd06040518163ffffffff1660e01b8152600401602060405180830381865afa1580156146df573d5f803e3d5ffd5b505050506040513d601f19601f8201168201806040525081019061470391906173a7565b8254909150806147615760405162461bcd60e51b815260206004820152602360248201527f4e6f204e6174696f6e616c204469726563746f727320746f206469737472696260448201526275746560e81b6064820152608401610787565b5f61476c828461723f565b90505f81116147b15760405162461bcd60e51b8152602060048201526011602482015270125b9cdd59999a58da595b9d081c1bdbdb607a1b6044820152606401610787565b60405163021c2c5d60e21b8152600481018490526001600160a01b03861690630870b174906024015f604051808303815f87803b1580156147f0575f80fd5b505af1158015614802573d5f803e3d5ffd5b505050506060805f805b858110156148a6578781815481106148265761482661709b565b905f5260205f20015f9054906101000a90046001600160a01b03168483815181106148535761485361709b565b60200260200101906001600160a01b031690816001600160a01b031681525050848383815181106148865761488661709b565b60209081029190910101528161489b816170dc565b92505060010161480c565b50604051630bd0dc9760e41b81526001600160a01b0389169063bd0dc970906148dd905f9087908790600190600890600401617840565b5f604051808303815f87803b1580156148f4575f80fd5b505af1158015614906573d5f803e3d5ffd5b505050505050505050505050565b6001600160a01b038082165f8181526020889052604090206002015460ff169184169003614966575f5b60048160ff161015614960576149588684835f805f615da6565b60010161493e565b50614bb5565b600581600781111561497a5761497a616b58565b14806149975750600681600781111561499557614995616b58565b145b806149b3575060078160078111156149b1576149b1616b58565b145b15614ae5576001600160a01b038083165f8181526020878152604080832080546001600160a01b03191690941790935589905220541680614a065760405162461bcd60e51b8152600401610787906178a8565b5f5b60048160ff161015614ade575f80806007866007811115614a2b57614a2b616b58565b03614a3d575085915081905080614ac5565b6006866007811115614a5157614a51616b58565b03614a8b575050506001600160a01b038083165f9081526020898152604080832060ff861684529091529020600201548591829116614ac5565b5050506001600160a01b038281165f9081526020898152604080832060ff8616845290915290206002810154600190910154869290811691165b614ad38a8886868686615da6565b505050600101614a08565b5050614bb5565b6001600160a01b038083165f908152602088905260409020541680614b1c5760405162461bcd60e51b8152600401610787906178a8565b5f5b60048160ff161015614b3e57614b3687838684615e2d565b600101614b1e565b506004826007811115614b5357614b53616b58565b03614b85576001600160a01b0383165f81815260208790526040902080546001600160a01b0319169091179055614bb3565b6001600160a01b038381165f90815260208790526040902080546001600160a01b0319169183169190911790555b505b6001600160a01b0382165f908152602087905260408120600101905b815481101561148557614c0c88888888868681548110614bf357614bf361709b565b5f918252602090912001546001600160a01b0316614914565b600101614bd1565b60115460ff1615614c615760405162461bcd60e51b81526020600482015260176024820152764261746368207570646174652069732072756e6e696e6760481b6044820152606401610787565b5f5b600f54811015614d2b57614d23600f8281548110614c8357614c8361709b565b5f918252602090912060059091020154600f80546001600160a01b039092169184908110614cb357614cb361709b565b905f5260205f2090600502016001015f9054906101000a90046001600160a01b0316600f8481548110614ce857614ce861709b565b905f5260205f20906005020160020154600f8581548110614d0b57614d0b61709b565b905f5260205f209060050201600301545f801b614db5565b600101614c63565b50614d37600f5f6167e4565b5f5b601054811015614da957614da160108281548110614d5957614d5961709b565b5f918252602090912060039091020154601080546001600160a01b039092169184908110614d8957614d8961709b565b905f5260205f209060030201600101545f801b6157da565b600101614d39565b506114d060105f616802565b601c54604051637cce993960e01b815260048101849052602481018590525f916001600160a01b031690637cce993990604401602060405180830381865afa158015614e03573d5f803e3d5ffd5b505050506040513d601f19601f82011682018060405250810190614e2791906171e6565b604080516080810182526001600160a01b03888116825282515f80825260208083018652808501928352848601829052606085018290528c8416825260048152949020835181546001600160a01b031916931692909217825551805194955091939092614e9b926001850192910190616820565b50604082015160028201805460ff19166001836007811115614ebf57614ebf616b58565b0217905550606082015160028201805461ff001916610100836003811115614ee957614ee9616b58565b02179055509050506040518060a00160405280426301e13380614f0c9190617075565b81525f60208083018290526040808401839052606080850184905260809485018490526001600160a01b038c1684526005835281842086518155868401516001820155868301516002820155908601516003820155949093015160049094019390935590519091614f929189910160609190911b6001600160601b031916815260140190565b60408051808303601f19018152908290528051602090910120601b5463180db04b60e11b8352600483018290529092505f916001600160a01b039091169063301b609690602401602060405180830381865afa158015614ff4573d5f803e3d5ffd5b505050506040513d601f19601f8201168201806040525081019061501891906171e6565b6001600160a01b03160361508857601b5460405163590f618760e11b81526001600160a01b039091169063b21ec30e9061505a908a9089908990600401617285565b5f604051808303815f87803b158015615071575f80fd5b505af1158015615083573d5f803e3d5ffd5b505050505b6003805460018181019092557fc2575a0e9e593c00f959f8c92f12db2869c3395a3b0502d05e2516446f71f85b0180546001600160a01b03808b166001600160a01b0319928316811790935589165f8181526004602090815260408083208701805480890182559084528284200180549095169095179093559081526007909152908120805490919061511c908490617075565b90915550506001600160a01b0386165f908152600960205260408120805460019290615149908490617075565b90915550600190506001600160a01b0387165f90815260046020526040902060020154610100900460ff16600381111561518557615185616b58565b1461519c576151976004600c88615ede565b61519e565b855b6001600160a01b038089165f818152600c602052604080822080549585166001600160a01b0319968716179055600e805460018181018355919093527fbb7b4a454dc3493923482f07822329ed19e8244eff582cc204f8554c3620c3fd9092018054909516909217909355601b54905163e115dc7f60e01b815291169163e115dc7f91615237918a918891600a91600390600401617252565b5f604051808303815f87803b15801561524e575f80fd5b505af1158015615260573d5f803e3d5ffd5b505050506001600160a01b0382161561536657601c5460405163da77abed60e01b81525f916001600160a01b03169063da77abed906152a69086906001906004016173be565b6020604051808303815f875af11580156152c2573d5f803e3d5ffd5b505050506040513d601f19601f820116820180604052508101906152e691906173a7565b601b549091506001600160a01b031663e115dc7f84866064615309866014617791565b615313919061723f565b600160046040518663ffffffff1660e01b8152600401615337959493929190617252565b5f604051808303815f87803b15801561534e575f80fd5b505af1158015615360573d5f803e3d5ffd5b50505050505b601b546016546001600160a01b039182169163e115dc7f91168561538c600a6014617075565b61539d620f42406302625a0061723f565b6153a79190617088565b600160026040518663ffffffff1660e01b81526004016153cb959493929190617252565b5f604051808303815f87803b1580156153e2575f80fd5b505af11580156153f4573d5f803e3d5ffd5b5050505050505050505050565b6001830154811061544a5760405162461bcd60e51b8152602060048201526013602482015272125b9d985b1a59081859d95b9d081b195d995b606a1b6044820152606401610787565b6001600160a01b039091165f908152602092909252604090912055565b6001600160a01b0381165f908152602084905260408120600301549061548d8684615f75565b9050620186a082101580156154a3575060078110155b156154f1576001600160a01b0383165f818152602088815260408220600201805460ff19166007179055865460018101885587835291200180546001600160a01b0319169091179055612836565b61c3508210158015615504575060068110155b1561553b576001600160a01b0383165f90815260208790526040902060020180546006919060ff19166001835b0217905550612836565b6161a8821015801561554e575060058110155b1561557f576001600160a01b0383165f90815260208790526040902060020180546005919060ff1916600183615531565b6127108210158015615592575060048110155b156155c3576001600160a01b0383165f90815260208790526040902060020180546004919060ff1916600183615531565b61138882101580156155d6575060038110155b15615607576001600160a01b0383165f90815260208790526040902060020180546003919060ff1916600183615531565b6109c4821015801561561a575060028110155b15615649576001600160a01b0383165f9081526020879052604090206002908101805460ff1916600183615531565b600181106128365750506001600160a01b03165f908152602093909352505060409020600201805460ff19166001179055565b611c768282604051602401615692929190617909565b60408051601f198184030181529190526020810180516001600160e01b031663319af33360e01b179052616018565b600e545f906001600160401b038111156156dd576156dd616932565b604051908082528060200260200182016040528015615706578160200160208202803683370190505b5090505f805b600e548110156157c75760045f600e838154811061572c5761572c61709b565b5f9182526020808320909101546001600160a01b0316835282019290925260400181206001015490036157bf57600e818154811061576c5761576c61709b565b905f5260205f20015f9054906101000a90046001600160a01b03168383815181106157995761579961709b565b6001600160a01b0390921660209283029190910190910152816157bb816170dc565b9250505b60010161570c565b508082526108ce600e6020840183616820565b6001600160a01b038381165f908152601260205260409020541615615817576001600160a01b039283165f90815260126020526040902054909216915b6001600160a01b0383165f9081526005602052604081206002018054849290615841908490617075565b90915550506001600160a01b0383165f908152600860205260408120805484929061586d908490617075565b90915550506001600160a01b0383165f9081526020819052604081205483908290156158dc5761589f5f876014616038565b92506103e86158b061014587617791565b6158ba919061723f565b91506103e86158cb86610113617791565b6158d5919061723f565b90506158fa565b6014925060646158ed866020617791565b6158f7919061723f565b90505b60026001600160a01b0387165f90815260046020526040902060020154610100900460ff16600381111561593057615930616b58565b146159af57601b546001600160a01b031663e115dc7f87866064615954888b617791565b61595e919061723f565b60015f6040518663ffffffff1660e01b8152600401615981959493929190617252565b5f604051808303815f87803b158015615998575f80fd5b505af11580156159aa573d5f803e3d5ffd5b505050505b5f60016001600160a01b0388165f90815260046020526040902060020154610100900460ff1660038111156159e6576159e6616b58565b1490506159fc6004600560076008600a8c613c6b565b5080158015615a3e575060016001600160a01b0388165f90815260046020526040902060020154610100900460ff166003811115615a3c57615a3c616b58565b145b15615a5057615a506004600c896142ff565b866001600160a01b03167fdf1ac62d04b5b70d0905c8f87d228f5da1978ab102137d771163b0ade4eb2fee87604051615a8b91815260200190565b60405180910390a2601b54615ab190600490600c906001600160a01b03168a878a616083565b615abb878461626c565b5f6064615ac9600286617791565b615ad3919061723f565b601b5460405163043cff6b60e31b815260048101839052602481018990529192506001600160a01b0316906321e7fb58906044015f604051808303815f87803b158015615b1e575f80fd5b505af1158015615b30573d5f803e3d5ffd5b505050506001600160a01b038881165f90815260066020526040902054168015615c8d57601c54604051630c849c1d60e41b81525f916001600160a01b03169063c849c1d090615b869085908a906004016173be565b6020604051808303815f875af1158015615ba2573d5f803e3d5ffd5b505050506040513d601f19601f82011682018060405250810190615bc691906173a7565b90505f61271082615bd860018a617791565b615be29190617791565b615bec919061723f565b9050615c1d6040518060400160405280600d81526020016c30b6b7bab73a2128103630901d60991b815250826162e6565b8015615c8a57601b5460405163e115dc7f60e01b81526001600160a01b039091169063e115dc7f90615c5c9086908d9086906001905f90600401617252565b5f604051808303815f87803b158015615c73575f80fd5b505af1158015615c85573d5f803e3d5ffd5b505050505b50505b601b54615cae90600490600d90600b906001600160a01b03168d8d8d61632b565b601b546015546001600160a01b039182169163e115dc7f9116896064615cd560048b617791565b615cdf919061723f565b6001806040518663ffffffff1660e01b8152600401615d02959493929190617252565b5f604051808303815f87803b158015615d19575f80fd5b505af1158015615d2b573d5f803e3d5ffd5b5050601b5460165460405163e115dc7f60e01b81526001600160a01b03928316945063e115dc7f9350615d6e92909116908b908990600190600290600401617252565b5f604051808303815f87803b158015615d85575f80fd5b505af1158015615d97573d5f803e3d5ffd5b50505050505050505050505050565b604080516060810182526001600160a01b03948516815292841660208085019182529285168483019081529685165f90815297835281882060ff909616885294909152909420935184549082166001600160a01b03199182161785559151600185018054918316918416919091179055915160029093018054939092169216919091179055565b6001600160a01b038316156122f6576001600160a01b039283165f9081526020858152604080832060ff94909416808452938252808320815160608101835281548816815260018083015489168286019081526002938401548a16838601908152988a168752998552838620968652959093529220905181546001600160a01b0319908116918716919091178255955192810180548716938616939093179092559151910180549093169116179055565b6001600160a01b038082165f908152602085905260408120549091165b6001600160a01b03811615615f6b5760016001600160a01b0382165f90815260208790526040902060020154610100900460ff166003811115615f4057615f40616b58565b03615f4c579050611af8565b6001600160a01b039081165f9081526020859052604090205416615efb565b505f949350505050565b6001600160a01b0381165f9081526020839052604081208190600101815b815481101561600e576001865f848481548110615fb257615fb261709b565b5f9182526020808320909101546001600160a01b0316835282019290925260400190206002015460ff610100909104166003811115615ff357615ff3616b58565b036160065782616002816170dc565b9350505b600101615f93565b5090949350505050565b80516a636f6e736f6c652e6c6f67602083015f808483855afa5050505050565b6001600160a01b0382165f908152602084905260408120548061605b578261607a565b8460010181815481106160705761607061709b565b905f5260205f2001545b95945050505050565b6001600160a01b038084165f9081526020878152604091829020548251808401909352601483527330b1ba34bb32a830b932b73a26b0b83834b7339d60611b91830191909152909116906001906160da908361567c565b6060805f5b60058460ff16111580156160fb57506001600160a01b03851615155b156161fc575f8460ff16600114616113576005616116565b600a5b90505f6064616125838b617791565b61612f919061723f565b905060026001600160a01b0388165f90815260208f90526040902060020154610100900460ff16600381111561616757616167616b58565b146161cb578685848151811061617f5761617f61709b565b60200260200101906001600160a01b031690816001600160a01b031681525050808484815181106161b2576161b261709b565b6020908102919091010152826161c7816170dc565b9350505b6001600160a01b039687165f90815260208d9052604090205490961695856161f28161774d565b96505050506160df565b604051630bd0dc9760e41b81526001600160a01b038a169063bd0dc9709061623290899087908790600190600690600401617840565b5f604051808303815f87803b158015616249575f80fd5b505af115801561625b573d5f803e3d5ffd5b505050505050505050505050505050565b6001600160a01b0382165f9081526019602052604090206001015460ff166162b6576001600160a01b0382165f9081526019602052604090206001908101805460ff191690911790555b6001600160a01b0382165f90815260196020526040812080548392906162dd908490617075565b90915550505050565b611c7682826040516024016162fc929190617932565b60408051601f198184030181529190526020810180516001600160e01b03166309710a9d60e41b179052616018565b6001600160a01b038084165f9081526020899052604081205490911690616352898661648d565b6001600160a01b0386165f90815260208b9052604081206002015491925060ff91821691819081908190861615616423575f9350600585600781111561639a5761639a616b58565b036163da5750506001600160a01b038581165f90815260208d8152604080832060ff8916845290915290206001810154600290910154908216911661646e565b60068560078111156163ee576163ee616b58565b0361641e57506001600160a01b038087165f90815260208e8152604080832060ff8a168452909152902060020154165b61646e565b505050506001600160a01b038381165f90815260208a81526040808320548d835281842060ff8816855290925290912080546001820154600290920154928416939081169291811691165b61647d8b898b8787878761651d565b5050505050505050505050505050565b6001600160a01b0381165f9081526020839052604081206002015460ff1660078160078111156164bf576164bf616b58565b036164ce576003915050611163565b60068160078111156164e2576164e2616b58565b036164f1576002915050611163565b600581600781111561650557616505616b58565b03616514576001915050611163565b505f9392505050565b6060805f6001600160a01b0387161561659d57868382815181106165435761654361709b565b6001600160a01b0390921660209283029190910190910152606461656860028a617791565b616572919061723f565b8282815181106165845761658461709b565b602090810291909101015280616599816170dc565b9150505b6001600160a01b0386161561661957858382815181106165bf576165bf61709b565b6001600160a01b039092166020928302919091019091015260646165e460038a617791565b6165ee919061723f565b8282815181106166005761660061709b565b602090810291909101015280616615816170dc565b9150505b6001600160a01b03851615616695578483828151811061663b5761663b61709b565b6001600160a01b0390921660209283029190910190910152606461666060038a617791565b61666a919061723f565b82828151811061667c5761667c61709b565b602090810291909101015280616691816170dc565b9150505b6001600160a01b0384161561671157838382815181106166b7576166b761709b565b6001600160a01b039092166020928302919091019091015260646166dc60038a617791565b6166e6919061723f565b8282815181106166f8576166f861709b565b60209081029190910101528061670d816170dc565b9150505b8251156136df57604051630bd0dc9760e41b81526001600160a01b038b169063bd0dc9709061674e908c9087908790600190600790600401617840565b5f604051808303815f87803b158015616765575f80fd5b505af115801561647d573d5f803e3d5ffd5b604080516080810182525f80825260606020830152909182019081526020015f905290565b6040518060a001604052805f81526020015f81526020015f81526020015f81526020015f81525090565b5080545f8255905f5260205f20908101906167e19190616883565b50565b5080545f8255600502905f5260205f20908101906167e19190616897565b5080545f8255600302905f5260205f20908101906167e191906168d7565b828054828255905f5260205f20908101928215616873579160200282015b8281111561687357825182546001600160a01b0319166001600160a01b0390911617825560209092019160019091019061683e565b5061687f929150616883565b5090565b5b8082111561687f575f8155600101616884565b5b8082111561687f5780546001600160a01b0319908116825560018201805490911690555f60028201819055600382018190556004820155600501616898565b5b8082111561687f5780546001600160a01b03191681555f6001820181905560028201556003016168d8565b6001600160a01b03811681146167e1575f80fd5b5f60208284031215616927575f80fd5b8135611af881616903565b634e487b7160e01b5f52604160045260245ffd5b604051608081016001600160401b038111828210171561696857616968616932565b60405290565b60405161012081016001600160401b038111828210171561696857616968616932565b60405161026081016001600160401b038111828210171561696857616968616932565b604051601f8201601f191681016001600160401b03811182821017156169dc576169dc616932565b604052919050565b5f6001600160401b038211156169fc576169fc616932565b5060051b60200190565b5f82601f830112616a15575f80fd5b8135616a28616a23826169e4565b6169b4565b8082825260208201915060208360051b860101925085831115616a49575f80fd5b602085015b83811015616a66578035835260209283019201616a4e565b5095945050505050565b5f805f60608486031215616a82575f80fd5b833592506020840135616a9481616903565b915060408401356001600160401b03811115616aae575f80fd5b616aba86828701616a06565b9150509250925092565b60ff811681146167e1575f80fd5b5f805f8060808587031215616ae5575f80fd5b8435616af081616903565b93506020850135616b0081616ac4565b93969395505050506040820135916060013590565b5f8151808452602084019350602083015f5b82811015616b4e5781516001600160a01b0316865260209586019590910190600101616b27565b5093949350505050565b634e487b7160e01b5f52602160045260245ffd5b60088110616b7c57616b7c616b58565b9052565b60048110616b7c57616b7c616b58565b80516001600160a01b03168252602080820151608082850181905281519085018190525f929190910190829060a08601905b80831015616bed5783516001600160a01b031682526020938401936001939093019290910190616bc2565b5060408501519250616c026040870184616b6c565b6060850151925061607a6060870184616b80565b80518252602081015160208301526040810151604083015260608101516060830152608081015160808301525050565b606081525f616c586060830186616b15565b828103602084015280855180835260208301915060208160051b840101602088015f5b83811015616cad57601f19868403018552616c97838351616b90565b6020958601959093509190910190600101616c7b565b505085810360408701528651808252602091820194509250860190505f5b82811015616cf457616cde848351616c16565b60a0939093019260209190910190600101616ccb565b5091979650505050505050565b5f8060408385031215616d12575f80fd5b50508035926020909101359150565b5f805f60608486031215616d33575f80fd5b8335616d3e81616903565b92506020840135616d4e81616903565b929592945050506040919091013590565b6001600160a01b0391909116815260200190565b5f805f60608486031215616d85575f80fd5b8335616d9081616903565b95602085013595506040909401359392505050565b60098110616b7c57616b7c616b58565b602080825282518282018190525f918401906040840190835b81811015616e2257835180516001600160a01b031684526020808201519085015260408082015190616e0290860182616da5565b506060908101519084015260209390930192608090920191600101616dce565b509095945050505050565b5f805f805f60a08688031215616e41575f80fd5b8535616e4c81616903565b94506020860135616e5c81616903565b94979496505050506040830135926060810135926080909101359150565b5f8060408385031215616e8b575f80fd5b8235915060208301356001600160401b03811115616ea7575f80fd5b616eb385828601616a06565b9150509250929050565b5f8060408385031215616ece575f80fd5b8235616ed981616903565b946020939093013593505050565b5f60208284031215616ef7575f80fd5b5035919050565b5f805f8060808587031215616f11575f80fd5b8435616f1c81616903565b966020860135965060408601359560600135945092505050565b602081525f611af86020830184616b15565b80151581146167e1575f80fd5b5f60208284031215616f65575f80fd5b8135611af881616f48565b60c081525f616f8260c0830185616b90565b9050611af86020830184616c16565b6020808252818101527f4f776e61626c653a2063616c6c6572206973206e6f7420746865206f776e6572604082015260600190565b6020808252601d908201527f416d6f756e74206d7573742062652067726561746572207468616e2030000000604082015260600190565b60208082526015908201527410dbdb9d1c9858dd1cc81b9bdd08185b1b1bddd959605a1b604082015260600190565b6020808252601b908201527a14db585c9d0818dbdb9d1c9858dd1cc81b9bdd08185b1b1bddd959602a1b604082015260600190565b634e487b7160e01b5f52601160045260245ffd5b8082018082111561116357611163617061565b8181038181111561116357611163617061565b634e487b7160e01b5f52603260045260245ffd5b602080825260139082015272092dcecc2d8d2c840e6e8c2e4e840d2dcc8caf606b1b604082015260600190565b5f600182016170ed576170ed617061565b5060010190565b6020808252600e908201526d53797374656d207570677261646560901b604082015260600190565b6020808252601390820152725573657220616c72656164792065786973747360681b604082015260600190565b6020808252601a908201527905573657220616c72656164792065786973747320696e205649560341b604082015260600190565b60208082526015908201527414185c995b9d08191bd95cc81b9bdd08195e1a5cdd605a1b604082015260600190565b60208082526010908201526f506172656e74206e6f7420616c6c6f7760801b604082015260600190565b80516171e181616903565b919050565b5f602082840312156171f6575f80fd5b8151611af881616903565b60208082526010908201526f0e0c2e4cadce840dcdee840dac2e8c6d60831b604082015260600190565b634e487b7160e01b5f52601260045260245ffd5b5f8261724d5761724d61722b565b500490565b6001600160a01b03861681526020810185905260408101849052821515606082015260a08101613c616080830184616da5565b6001600160a01b039390931683526020830191909152604082015260600190565b5f602082840312156172b6575f80fd5b81516001600160401b038111156172cb575f80fd5b8201601f810184136172db575f80fd5b80516172e9616a23826169e4565b8082825260208201915060208360071b85010192508683111561730a575f80fd5b6020840193505b82841015613c615760808488031215617328575f80fd5b617330616946565b845161733b81616903565b815260208581015190820152604085015160098110617358575f80fd5b6040820152606085810151908201528252608090930192602090910190617311565b602080825260139082015272155cd95c88191bd95cc81b9bdd08195e1a5cdd606a1b604082015260600190565b5f602082840312156173b7575f80fd5b5051919050565b6001600160a01b03929092168252602082015260400190565b5f602082840312156173e7575f80fd5b8151611af881616f48565b634e487b7160e01b5f52603160045260245ffd5b5f610120828403128015617418575f80fd5b5061742161696e565b825181526020808401519082015260408084015190820152606080840151908201526080808401519082015260a0808401519082015260c0808401519082015260e08084015190820152610100928301519281019290925250919050565b60208082526010908201526f77726f6e67206f7264657220436f646560801b604082015260600190565b6020808252600f908201526e13dc99195c881b9bdd08199bdd5b99608a1b604082015260600190565b5f82601f8301126174e1575f80fd5b81516174ef616a23826169e4565b8082825260208201915060208360051b860101925085831115617510575f80fd5b602085015b83811015616a66578051835260209283019201617515565b80516171e181616ac4565b5f60208284031215617548575f80fd5b81516001600160401b0381111561755d575f80fd5b8201610260818503121561756f575f80fd5b617577616991565b81518152617587602083016171d6565b6020820152617598604083016171d6565b60408201526060828101519082015260808201516001600160401b038111156175bf575f80fd5b6175cb868285016174d2565b60808301525060a08201516001600160401b038111156175e9575f80fd5b6175f5868285016174d2565b60a08301525060c08201516001600160401b03811115617613575f80fd5b61761f868285016174d2565b60c08301525060e08201516001600160401b0381111561763d575f80fd5b617649868285016174d2565b60e0830152506101008201516001600160401b03811115617668575f80fd5b617674868285016174d2565b610100830152506101208201516001600160401b03811115617694575f80fd5b6176a0868285016174d2565b610120830152506101408201516001600160401b038111156176c0575f80fd5b6176cc868285016174d2565b6101408301525061016082810151908201526176eb610180830161752d565b6101808201526176fe6101a0830161752d565b6101a08201526101c082810151908201526101e080830151908201526102008083015190820152617732610220830161752d565b61022082015261024091820151918101919091529392505050565b5f60ff821660ff810361776257617762617061565b60010192915050565b6020808252600c908201526b15dc9bdb99c8185b5bdd5b9d60a21b604082015260600190565b808202811582820484141761116357611163617061565b6001600160a01b03831681526040602080830182905283519183018290525f91908401906060840190835b818110156177f15783518352602093840193909201916001016177d3565b50909695505050505050565b6001600160601b0319606093841b811682529190921b16601482015260280190565b5f60ff8316806178315761783161722b565b8060ff84160691505092915050565b85815260a060208201525f61785860a0830187616b15565b8281036040840152855180825260208088019201905f5b8181101561788d57835183526020938401939092019160010161786f565b505085151560608501529150613c6190506080830184616da5565b602080825260199082015278506172656e74206c6f737420647572696e672072657365742160381b604082015260600190565b5f81518084528060208401602086015e5f602082860101526020601f19601f83011685010191505092915050565b604081525f61791b60408301856178db565b905060018060a01b03831660208301529392505050565b604081525f61794460408301856178db565b9050826020830152939250505056fe8d1108e10bcb7c27dddfc02ed9d693a074039d026cf4ea4240b40f7d581ac8068d1108e10bcb7c27dddfc02ed9d693a074039d026cf4ea4240b40f7d581ac8058d1108e10bcb7c27dddfc02ed9d693a074039d026cf4ea4240b40f7d581ac8048d1108e10bcb7c27dddfc02ed9d693a074039d026cf4ea4240b40f7d581ac8038d1108e10bcb7c27dddfc02ed9d693a074039d026cf4ea4240b40f7d581ac802a26469706673582212205fb69026161a4431d7d735b6a765280e7b856f21ef823a8bcd090b1ae0d9b7a164736f6c634300081a0033",
			"opcodes": "PUSH1 0x80 PUSH1 0x40 MSTORE PUSH1 0x11 DUP1 SLOAD PUSH2 0xFFFF NOT AND SWAP1 SSTORE CALLVALUE DUP1 ISZERO PUSH2 0x1A JUMPI PUSH0 DUP1 REVERT JUMPDEST POP PUSH1 0x40 MLOAD PUSH2 0x7CD7 CODESIZE SUB DUP1 PUSH2 0x7CD7 DUP4 CODECOPY DUP2 ADD PUSH1 0x40 DUP2 SWAP1 MSTORE PUSH2 0x39 SWAP2 PUSH2 0x1D6 JUMP JUMPDEST PUSH4 0x7270E00 PUSH2 0x4C PUSH1 0x64 PUSH3 0xF4240 PUSH2 0x278 JUMP JUMPDEST LT PUSH2 0x8A JUMPI PUSH1 0x40 MLOAD PUSH3 0x461BCD PUSH1 0xE5 SHL DUP2 MSTORE PUSH1 0x20 PUSH1 0x4 DUP3 ADD MSTORE PUSH1 0xA PUSH1 0x24 DUP3 ADD MSTORE PUSH10 0x77726F6E6720636F6465 PUSH1 0xB0 SHL PUSH1 0x44 DUP3 ADD MSTORE PUSH1 0x64 ADD PUSH1 0x40 MLOAD DUP1 SWAP2 SUB SWAP1 REVERT JUMPDEST PUSH1 0x1B DUP1 SLOAD PUSH1 0x1 PUSH1 0x1 PUSH1 0xA0 SHL SUB NOT SWAP1 DUP2 AND PUSH1 0x1 PUSH1 0x1 PUSH1 0xA0 SHL SUB DUP11 DUP2 AND SWAP2 SWAP1 SWAP2 OR SWAP1 SWAP3 SSTORE PUSH1 0x1C DUP1 SLOAD DUP3 AND DUP10 DUP5 AND OR SWAP1 SSTORE PUSH1 0x1D DUP1 SLOAD DUP3 AND DUP9 DUP5 AND OR SWAP1 SSTORE PUSH1 0x17 DUP1 SLOAD DUP3 AND DUP5 DUP5 AND OR SWAP1 SSTORE PUSH1 0x14 DUP1 SLOAD DUP3 AND DUP8 DUP5 AND OR SWAP1 SSTORE PUSH1 0x15 DUP1 SLOAD DUP3 AND DUP7 DUP5 AND OR SWAP1 SSTORE PUSH1 0x16 DUP1 SLOAD DUP3 AND DUP6 DUP5 AND OR SWAP1 SSTORE PUSH1 0x1E DUP1 SLOAD DUP3 AND DUP13 DUP5 AND OR DUP2 SSTORE PUSH1 0x1F DUP1 SLOAD DUP4 AND SWAP4 DUP13 AND SWAP4 SWAP1 SWAP4 OR SWAP1 SWAP3 SSTORE PUSH1 0x18 DUP1 SLOAD CALLER SWAP3 AND SWAP2 SWAP1 SWAP2 OR SWAP1 SSTORE PUSH1 0x1 DUP1 SLOAD DUP1 DUP3 ADD DUP3 SSTORE PUSH0 DUP3 DUP2 MSTORE PUSH32 0xB10E2D527612073B26EECDFD717E6A320CF44B4AFAC2B0732D9FCBE2B7FA0CF6 SWAP2 DUP3 ADD SSTORE DUP2 SLOAD DUP1 DUP4 ADD DUP4 SSTORE PUSH1 0x28 SWAP1 DUP3 ADD SSTORE DUP2 SLOAD DUP1 DUP4 ADD DUP4 SSTORE PUSH1 0x23 SWAP1 DUP3 ADD SSTORE DUP2 SLOAD DUP1 DUP4 ADD DUP4 SSTORE DUP2 ADD SWAP3 SWAP1 SWAP3 SSTORE DUP1 SLOAD DUP1 DUP3 ADD SWAP1 SWAP2 SSTORE PUSH1 0x19 SWAP2 ADD SSTORE POP POP PUSH1 0x14 SLOAD PUSH1 0x1 PUSH1 0x1 PUSH1 0xA0 SHL SUB AND PUSH0 SWAP1 DUP2 MSTORE PUSH1 0x4 PUSH1 0x20 MSTORE PUSH1 0x40 SWAP1 KECCAK256 PUSH1 0x2 ADD DUP1 SLOAD PUSH2 0xFF00 NOT AND PUSH2 0x100 OR SWAP1 SSTORE POP PUSH2 0x2A1 SWAP6 POP POP POP POP POP POP JUMP JUMPDEST DUP1 MLOAD PUSH1 0x1 PUSH1 0x1 PUSH1 0xA0 SHL SUB DUP2 AND DUP2 EQ PUSH2 0x1D1 JUMPI PUSH0 DUP1 REVERT JUMPDEST SWAP2 SWAP1 POP JUMP JUMPDEST PUSH0 DUP1 PUSH0 DUP1 PUSH0 DUP1 PUSH0 DUP1 PUSH0 PUSH2 0x120 DUP11 DUP13 SUB SLT ISZERO PUSH2 0x1EF JUMPI PUSH0 DUP1 REVERT JUMPDEST PUSH2 0x1F8 DUP11 PUSH2 0x1BB JUMP JUMPDEST SWAP9 POP PUSH2 0x206 PUSH1 0x20 DUP12 ADD PUSH2 0x1BB JUMP JUMPDEST SWAP8 POP PUSH2 0x214 PUSH1 0x40 DUP12 ADD PUSH2 0x1BB JUMP JUMPDEST SWAP7 POP PUSH2 0x222 PUSH1 0x60 DUP12 ADD PUSH2 0x1BB JUMP JUMPDEST SWAP6 POP PUSH2 0x230 PUSH1 0x80 DUP12 ADD PUSH2 0x1BB JUMP JUMPDEST SWAP5 POP PUSH2 0x23E PUSH1 0xA0 DUP12 ADD PUSH2 0x1BB JUMP JUMPDEST SWAP4 POP PUSH2 0x24C PUSH1 0xC0 DUP12 ADD PUSH2 0x1BB JUMP JUMPDEST SWAP3 POP PUSH2 0x25A PUSH1 0xE0 DUP12 ADD PUSH2 0x1BB JUMP JUMPDEST SWAP2 POP PUSH2 0x269 PUSH2 0x100 DUP12 ADD PUSH2 0x1BB JUMP JUMPDEST SWAP1 POP SWAP3 SWAP6 SWAP9 POP SWAP3 SWAP6 SWAP9 POP SWAP3 SWAP6 SWAP9 JUMP JUMPDEST DUP1 DUP3 MUL DUP2 ISZERO DUP3 DUP3 DIV DUP5 EQ OR PUSH2 0x29B JUMPI PUSH4 0x4E487B71 PUSH1 0xE0 SHL PUSH0 MSTORE PUSH1 0x11 PUSH1 0x4 MSTORE PUSH1 0x24 PUSH0 REVERT JUMPDEST SWAP3 SWAP2 POP POP JUMP JUMPDEST PUSH2 0x7A29 DUP1 PUSH2 0x2AE PUSH0 CODECOPY PUSH0 RETURN INVALID PUSH1 0x80 PUSH1 0x40 MSTORE PUSH1 0x4 CALLDATASIZE LT PUSH2 0x1B4 JUMPI PUSH0 CALLDATALOAD PUSH1 0xE0 SHR DUP1 PUSH4 0x8A851B8 EQ PUSH2 0x1B8 JUMPI DUP1 PUSH4 0xD5795B9 EQ PUSH2 0x1D9 JUMPI DUP1 PUSH4 0x10D86B1F EQ PUSH2 0x1F8 JUMPI DUP1 PUSH4 0x185807E4 EQ PUSH2 0x217 JUMPI DUP1 PUSH4 0x1DA0073A EQ PUSH2 0x236 JUMPI DUP1 PUSH4 0x1F01F30D EQ PUSH2 0x26D JUMPI DUP1 PUSH4 0x20D996D2 EQ PUSH2 0x29A JUMPI DUP1 PUSH4 0x259DBD96 EQ PUSH2 0x2E3 JUMPI DUP1 PUSH4 0x2CF899E2 EQ PUSH2 0x302 JUMPI DUP1 PUSH4 0x35B79C3D EQ PUSH2 0x316 JUMPI DUP1 PUSH4 0x38CB9134 EQ PUSH2 0x32A JUMPI DUP1 PUSH4 0x38CC4831 EQ PUSH2 0x36E JUMPI DUP1 PUSH4 0x405978F8 EQ PUSH2 0x3AC JUMPI DUP1 PUSH4 0x40D1AC13 EQ PUSH2 0x3CB JUMPI DUP1 PUSH4 0x424AD610 EQ PUSH2 0x3F7 JUMPI DUP1 PUSH4 0x432E9D88 EQ PUSH2 0x416 JUMPI DUP1 PUSH4 0x44B89702 EQ PUSH2 0x435 JUMPI DUP1 PUSH4 0x4A0328DE EQ PUSH2 0x454 JUMPI DUP1 PUSH4 0x504ED733 EQ PUSH2 0x473 JUMPI DUP1 PUSH4 0x58979BFE EQ PUSH2 0x4AB JUMPI DUP1 PUSH4 0x5F35CA9C EQ PUSH2 0x4CA JUMPI DUP1 PUSH4 0x61474327 EQ PUSH2 0x4E9 JUMPI DUP1 PUSH4 0x61A475C8 EQ PUSH2 0x508 JUMPI DUP1 PUSH4 0x667883F1 EQ PUSH2 0x533 JUMPI DUP1 PUSH4 0x6C0ADBBD EQ PUSH2 0x552 JUMPI DUP1 PUSH4 0x8345BE55 EQ PUSH2 0x571 JUMPI DUP1 PUSH4 0x839C7EAD EQ PUSH2 0x590 JUMPI DUP1 PUSH4 0x8B59D23E EQ PUSH2 0x5A3 JUMPI DUP1 PUSH4 0x8CA8107B EQ PUSH2 0x5C2 JUMPI DUP1 PUSH4 0x964B74DD EQ PUSH2 0x5E1 JUMPI DUP1 PUSH4 0xB35CADE9 EQ PUSH2 0x60D JUMPI DUP1 PUSH4 0xB9BCAF02 EQ PUSH2 0x62C JUMPI DUP1 PUSH4 0xBCD565BA EQ PUSH2 0x63F JUMPI DUP1 PUSH4 0xC2AD61E7 EQ PUSH2 0x65E JUMPI DUP1 PUSH4 0xD7B5A2D4 EQ PUSH2 0x6E9 JUMPI DUP1 PUSH4 0xDB499BF5 EQ PUSH2 0x708 JUMPI DUP1 PUSH4 0xE1AB8C6B EQ PUSH2 0x71C JUMPI DUP1 PUSH4 0xE45C1B56 EQ PUSH2 0x73E JUMPI JUMPDEST PUSH0 DUP1 REVERT JUMPDEST CALLVALUE DUP1 ISZERO PUSH2 0x1C3 JUMPI PUSH0 DUP1 REVERT JUMPDEST POP PUSH2 0x1D7 PUSH2 0x1D2 CALLDATASIZE PUSH1 0x4 PUSH2 0x6917 JUMP JUMPDEST PUSH2 0x75D JUMP JUMPDEST STOP JUMPDEST CALLVALUE DUP1 ISZERO PUSH2 0x1E4 JUMPI PUSH0 DUP1 REVERT JUMPDEST POP PUSH2 0x1D7 PUSH2 0x1F3 CALLDATASIZE PUSH1 0x4 PUSH2 0x6917 JUMP JUMPDEST PUSH2 0x7B2 JUMP JUMPDEST CALLVALUE DUP1 ISZERO PUSH2 0x203 JUMPI PUSH0 DUP1 REVERT JUMPDEST POP PUSH2 0x1D7 PUSH2 0x212 CALLDATASIZE PUSH1 0x4 PUSH2 0x6917 JUMP JUMPDEST PUSH2 0x7FE JUMP JUMPDEST CALLVALUE DUP1 ISZERO PUSH2 0x222 JUMPI PUSH0 DUP1 REVERT JUMPDEST POP PUSH2 0x1D7 PUSH2 0x231 CALLDATASIZE PUSH1 0x4 PUSH2 0x6A70 JUMP JUMPDEST PUSH2 0x850 JUMP JUMPDEST CALLVALUE DUP1 ISZERO PUSH2 0x241 JUMPI PUSH0 DUP1 REVERT JUMPDEST POP PUSH2 0x255 PUSH2 0x250 CALLDATASIZE PUSH1 0x4 PUSH2 0x6AD2 JUMP JUMPDEST PUSH2 0x8D3 JUMP JUMPDEST PUSH1 0x40 MLOAD PUSH2 0x264 SWAP4 SWAP3 SWAP2 SWAP1 PUSH2 0x6C46 JUMP JUMPDEST PUSH1 0x40 MLOAD DUP1 SWAP2 SUB SWAP1 RETURN JUMPDEST CALLVALUE DUP1 ISZERO PUSH2 0x278 JUMPI PUSH0 DUP1 REVERT JUMPDEST POP PUSH2 0x28C PUSH2 0x287 CALLDATASIZE PUSH1 0x4 PUSH2 0x6D01 JUMP JUMPDEST PUSH2 0xD0C JUMP JUMPDEST PUSH1 0x40 MLOAD SWAP1 DUP2 MSTORE PUSH1 0x20 ADD PUSH2 0x264 JUMP JUMPDEST CALLVALUE DUP1 ISZERO PUSH2 0x2A5 JUMPI PUSH0 DUP1 REVERT JUMPDEST POP PUSH2 0x2D3 PUSH2 0x2B4 CALLDATASIZE PUSH1 0x4 PUSH2 0x6917 JUMP JUMPDEST PUSH1 0x1 PUSH1 0x1 PUSH1 0xA0 SHL SUB SWAP1 DUP2 AND PUSH0 SWAP1 DUP2 MSTORE PUSH1 0x4 PUSH1 0x20 MSTORE PUSH1 0x40 SWAP1 KECCAK256 SLOAD AND ISZERO ISZERO SWAP1 JUMP JUMPDEST PUSH1 0x40 MLOAD SWAP1 ISZERO ISZERO DUP2 MSTORE PUSH1 0x20 ADD PUSH2 0x264 JUMP JUMPDEST CALLVALUE DUP1 ISZERO PUSH2 0x2EE JUMPI PUSH0 DUP1 REVERT JUMPDEST POP PUSH2 0x1D7 PUSH2 0x2FD CALLDATASIZE PUSH1 0x4 PUSH2 0x6D21 JUMP JUMPDEST PUSH2 0x1169 JUMP JUMPDEST CALLVALUE DUP1 ISZERO PUSH2 0x30D JUMPI PUSH0 DUP1 REVERT JUMPDEST POP PUSH2 0x1D7 PUSH2 0x148F JUMP JUMPDEST CALLVALUE DUP1 ISZERO PUSH2 0x321 JUMPI PUSH0 DUP1 REVERT JUMPDEST POP PUSH2 0x1D7 PUSH2 0x14D2 JUMP JUMPDEST CALLVALUE DUP1 ISZERO PUSH2 0x335 JUMPI PUSH0 DUP1 REVERT JUMPDEST POP PUSH2 0x361 PUSH2 0x344 CALLDATASIZE PUSH1 0x4 PUSH2 0x6917 JUMP JUMPDEST PUSH1 0x1 PUSH1 0x1 PUSH1 0xA0 SHL SUB SWAP1 DUP2 AND PUSH0 SWAP1 DUP2 MSTORE PUSH1 0x4 PUSH1 0x20 MSTORE PUSH1 0x40 SWAP1 KECCAK256 SLOAD AND SWAP1 JUMP JUMPDEST PUSH1 0x40 MLOAD PUSH2 0x264 SWAP2 SWAP1 PUSH2 0x6D5F JUMP JUMPDEST CALLVALUE DUP1 ISZERO PUSH2 0x379 JUMPI PUSH0 DUP1 REVERT JUMPDEST POP PUSH2 0x382 PUSH2 0x151B JUMP JUMPDEST PUSH1 0x40 DUP1 MLOAD PUSH1 0x1 PUSH1 0x1 PUSH1 0xA0 SHL SUB SWAP5 DUP6 AND DUP2 MSTORE SWAP3 DUP5 AND PUSH1 0x20 DUP5 ADD MSTORE SWAP3 AND SWAP2 DUP2 ADD SWAP2 SWAP1 SWAP2 MSTORE PUSH1 0x60 ADD PUSH2 0x264 JUMP JUMPDEST CALLVALUE DUP1 ISZERO PUSH2 0x3B7 JUMPI PUSH0 DUP1 REVERT JUMPDEST POP PUSH2 0x1D7 PUSH2 0x3C6 CALLDATASIZE PUSH1 0x4 PUSH2 0x6917 JUMP JUMPDEST PUSH2 0x156D JUMP JUMPDEST CALLVALUE DUP1 ISZERO PUSH2 0x3D6 JUMPI PUSH0 DUP1 REVERT JUMPDEST POP PUSH2 0x3EA PUSH2 0x3E5 CALLDATASIZE PUSH1 0x4 PUSH2 0x6D73 JUMP JUMPDEST PUSH2 0x15B9 JUMP JUMPDEST PUSH1 0x40 MLOAD PUSH2 0x264 SWAP2 SWAP1 PUSH2 0x6DB5 JUMP JUMPDEST CALLVALUE DUP1 ISZERO PUSH2 0x402 JUMPI PUSH0 DUP1 REVERT JUMPDEST POP PUSH1 0x1F SLOAD PUSH2 0x361 SWAP1 PUSH1 0x1 PUSH1 0x1 PUSH1 0xA0 SHL SUB AND DUP2 JUMP JUMPDEST CALLVALUE DUP1 ISZERO PUSH2 0x421 JUMPI PUSH0 DUP1 REVERT JUMPDEST POP PUSH1 0x1E SLOAD PUSH2 0x361 SWAP1 PUSH1 0x1 PUSH1 0x1 PUSH1 0xA0 SHL SUB AND DUP2 JUMP JUMPDEST CALLVALUE DUP1 ISZERO PUSH2 0x440 JUMPI PUSH0 DUP1 REVERT JUMPDEST POP PUSH2 0x1D7 PUSH2 0x44F CALLDATASIZE PUSH1 0x4 PUSH2 0x6E2D JUMP JUMPDEST PUSH2 0x1637 JUMP JUMPDEST CALLVALUE DUP1 ISZERO PUSH2 0x45F JUMPI PUSH0 DUP1 REVERT JUMPDEST POP PUSH2 0x361 PUSH2 0x46E CALLDATASIZE PUSH1 0x4 PUSH2 0x6917 JUMP JUMPDEST PUSH2 0x1A87 JUMP JUMPDEST CALLVALUE DUP1 ISZERO PUSH2 0x47E JUMPI PUSH0 DUP1 REVERT JUMPDEST POP PUSH2 0x487 PUSH2 0x1AFF JUMP JUMPDEST PUSH1 0x40 DUP1 MLOAD DUP3 MLOAD PUSH1 0x1 PUSH1 0x1 PUSH1 0xA0 SHL SUB AND DUP2 MSTORE PUSH1 0x20 SWAP3 DUP4 ADD MLOAD SWAP3 DUP2 ADD SWAP3 SWAP1 SWAP3 MSTORE ADD PUSH2 0x264 JUMP JUMPDEST CALLVALUE DUP1 ISZERO PUSH2 0x4B6 JUMPI PUSH0 DUP1 REVERT JUMPDEST POP PUSH2 0x1D7 PUSH2 0x4C5 CALLDATASIZE PUSH1 0x4 PUSH2 0x6917 JUMP JUMPDEST PUSH2 0x1BA2 JUMP JUMPDEST CALLVALUE DUP1 ISZERO PUSH2 0x4D5 JUMPI PUSH0 DUP1 REVERT JUMPDEST POP PUSH2 0x1D7 PUSH2 0x4E4 CALLDATASIZE PUSH1 0x4 PUSH2 0x6E7A JUMP JUMPDEST PUSH2 0x1BEE JUMP JUMPDEST CALLVALUE DUP1 ISZERO PUSH2 0x4F4 JUMPI PUSH0 DUP1 REVERT JUMPDEST POP PUSH2 0x1D7 PUSH2 0x503 CALLDATASIZE PUSH1 0x4 PUSH2 0x6EBD JUMP JUMPDEST PUSH2 0x1C7A JUMP JUMPDEST CALLVALUE DUP1 ISZERO PUSH2 0x513 JUMPI PUSH0 DUP1 REVERT JUMPDEST POP CALLER PUSH0 SWAP1 DUP2 MSTORE PUSH1 0x12 PUSH1 0x20 MSTORE PUSH1 0x40 SWAP1 KECCAK256 SLOAD PUSH1 0x1 PUSH1 0x1 PUSH1 0xA0 SHL SUB AND ISZERO ISZERO PUSH2 0x2D3 JUMP JUMPDEST CALLVALUE DUP1 ISZERO PUSH2 0x53E JUMPI PUSH0 DUP1 REVERT JUMPDEST POP PUSH1 0x1B SLOAD PUSH2 0x361 SWAP1 PUSH1 0x1 PUSH1 0x1 PUSH1 0xA0 SHL SUB AND DUP2 JUMP JUMPDEST CALLVALUE DUP1 ISZERO PUSH2 0x55D JUMPI PUSH0 DUP1 REVERT JUMPDEST POP PUSH2 0x2D3 PUSH2 0x56C CALLDATASIZE PUSH1 0x4 PUSH2 0x6917 JUMP JUMPDEST PUSH2 0x1D07 JUMP JUMPDEST CALLVALUE DUP1 ISZERO PUSH2 0x57C JUMPI PUSH0 DUP1 REVERT JUMPDEST POP PUSH2 0x1D7 PUSH2 0x58B CALLDATASIZE PUSH1 0x4 PUSH2 0x6EE7 JUMP JUMPDEST PUSH2 0x1D69 JUMP JUMPDEST PUSH2 0x1D7 PUSH2 0x59E CALLDATASIZE PUSH1 0x4 PUSH2 0x6EFE JUMP JUMPDEST PUSH2 0x1F16 JUMP JUMPDEST CALLVALUE DUP1 ISZERO PUSH2 0x5AE JUMPI PUSH0 DUP1 REVERT JUMPDEST POP PUSH2 0x2D3 PUSH2 0x5BD CALLDATASIZE PUSH1 0x4 PUSH2 0x6917 JUMP JUMPDEST PUSH2 0x22FC JUMP JUMPDEST CALLVALUE DUP1 ISZERO PUSH2 0x5CD JUMPI PUSH0 DUP1 REVERT JUMPDEST POP PUSH2 0x1D7 PUSH2 0x5DC CALLDATASIZE PUSH1 0x4 PUSH2 0x6917 JUMP JUMPDEST PUSH2 0x2358 JUMP JUMPDEST CALLVALUE DUP1 ISZERO PUSH2 0x5EC JUMPI PUSH0 DUP1 REVERT JUMPDEST POP PUSH2 0x600 PUSH2 0x5FB CALLDATASIZE PUSH1 0x4 PUSH2 0x6D73 JUMP JUMPDEST PUSH2 0x23A4 JUMP JUMPDEST PUSH1 0x40 MLOAD PUSH2 0x264 SWAP2 SWAP1 PUSH2 0x6F36 JUMP JUMPDEST CALLVALUE DUP1 ISZERO PUSH2 0x618 JUMPI PUSH0 DUP1 REVERT JUMPDEST POP PUSH2 0x1D7 PUSH2 0x627 CALLDATASIZE PUSH1 0x4 PUSH2 0x6F55 JUMP JUMPDEST PUSH2 0x2560 JUMP JUMPDEST PUSH2 0x1D7 PUSH2 0x63A CALLDATASIZE PUSH1 0x4 PUSH2 0x6EBD JUMP JUMPDEST PUSH2 0x25F5 JUMP JUMPDEST CALLVALUE DUP1 ISZERO PUSH2 0x64A JUMPI PUSH0 DUP1 REVERT JUMPDEST POP PUSH2 0x1D7 PUSH2 0x659 CALLDATASIZE PUSH1 0x4 PUSH2 0x6D01 JUMP JUMPDEST PUSH2 0x283E JUMP JUMPDEST CALLVALUE DUP1 ISZERO PUSH2 0x669 JUMPI PUSH0 DUP1 REVERT JUMPDEST POP PUSH2 0x67D PUSH2 0x678 CALLDATASIZE PUSH1 0x4 PUSH2 0x6D73 JUMP JUMPDEST PUSH2 0x2A35 JUMP JUMPDEST PUSH1 0x40 MLOAD PUSH2 0x264 SWAP2 SWAP1 PUSH0 PUSH2 0x120 DUP3 ADD SWAP1 POP DUP3 MLOAD DUP3 MSTORE PUSH1 0x20 DUP4 ADD MLOAD PUSH1 0x20 DUP4 ADD MSTORE PUSH1 0x40 DUP4 ADD MLOAD PUSH1 0x40 DUP4 ADD MSTORE PUSH1 0x60 DUP4 ADD MLOAD PUSH1 0x60 DUP4 ADD MSTORE PUSH1 0x80 DUP4 ADD MLOAD PUSH1 0x80 DUP4 ADD MSTORE PUSH1 0xA0 DUP4 ADD MLOAD PUSH1 0xA0 DUP4 ADD MSTORE PUSH1 0xC0 DUP4 ADD MLOAD PUSH1 0xC0 DUP4 ADD MSTORE PUSH1 0xE0 DUP4 ADD MLOAD PUSH1 0xE0 DUP4 ADD MSTORE PUSH2 0x100 DUP4 ADD MLOAD PUSH2 0x100 DUP4 ADD MSTORE SWAP3 SWAP2 POP POP JUMP JUMPDEST CALLVALUE DUP1 ISZERO PUSH2 0x6F4 JUMPI PUSH0 DUP1 REVERT JUMPDEST POP PUSH2 0x1D7 PUSH2 0x703 CALLDATASIZE PUSH1 0x4 PUSH2 0x6D01 JUMP JUMPDEST PUSH2 0x2AEF JUMP JUMPDEST CALLVALUE DUP1 ISZERO PUSH2 0x713 JUMPI PUSH0 DUP1 REVERT JUMPDEST POP PUSH2 0x1D7 PUSH2 0x310B JUMP JUMPDEST CALLVALUE DUP1 ISZERO PUSH2 0x727 JUMPI PUSH0 DUP1 REVERT JUMPDEST POP PUSH2 0x730 PUSH2 0x31FB JUMP JUMPDEST PUSH1 0x40 MLOAD PUSH2 0x264 SWAP3 SWAP2 SWAP1 PUSH2 0x6F70 JUMP JUMPDEST CALLVALUE DUP1 ISZERO PUSH2 0x749 JUMPI PUSH0 DUP1 REVERT JUMPDEST POP PUSH2 0x1D7 PUSH2 0x758 CALLDATASIZE PUSH1 0x4 PUSH2 0x6EE7 JUMP JUMPDEST PUSH2 0x33BB JUMP JUMPDEST PUSH1 0x18 SLOAD PUSH1 0x1 PUSH1 0x1 PUSH1 0xA0 SHL SUB AND CALLER EQ PUSH2 0x790 JUMPI PUSH1 0x40 MLOAD PUSH3 0x461BCD PUSH1 0xE5 SHL DUP2 MSTORE PUSH1 0x4 ADD PUSH2 0x787 SWAP1 PUSH2 0x6F91 JUMP JUMPDEST PUSH1 0x40 MLOAD DUP1 SWAP2 SUB SWAP1 REVERT JUMPDEST PUSH1 0x1F DUP1 SLOAD PUSH1 0x1 PUSH1 0x1 PUSH1 0xA0 SHL SUB NOT AND PUSH1 0x1 PUSH1 0x1 PUSH1 0xA0 SHL SUB SWAP3 SWAP1 SWAP3 AND SWAP2 SWAP1 SWAP2 OR SWAP1 SSTORE JUMP JUMPDEST PUSH1 0x18 SLOAD PUSH1 0x1 PUSH1 0x1 PUSH1 0xA0 SHL SUB AND CALLER EQ PUSH2 0x7DC JUMPI PUSH1 0x40 MLOAD PUSH3 0x461BCD PUSH1 0xE5 SHL DUP2 MSTORE PUSH1 0x4 ADD PUSH2 0x787 SWAP1 PUSH2 0x6F91 JUMP JUMPDEST PUSH1 0x15 DUP1 SLOAD PUSH1 0x1 PUSH1 0x1 PUSH1 0xA0 SHL SUB NOT AND PUSH1 0x1 PUSH1 0x1 PUSH1 0xA0 SHL SUB SWAP3 SWAP1 SWAP3 AND SWAP2 SWAP1 SWAP2 OR SWAP1 SSTORE JUMP JUMPDEST PUSH1 0x18 SLOAD PUSH1 0x1 PUSH1 0x1 PUSH1 0xA0 SHL SUB AND CALLER EQ PUSH2 0x828 JUMPI PUSH1 0x40 MLOAD PUSH3 0x461BCD PUSH1 0xE5 SHL DUP2 MSTORE PUSH1 0x4 ADD PUSH2 0x787 SWAP1 PUSH2 0x6F91 JUMP JUMPDEST PUSH1 0x1 PUSH1 0x1 PUSH1 0xA0 SHL SUB AND PUSH0 SWAP1 DUP2 MSTORE PUSH1 0x4 PUSH1 0x20 MSTORE PUSH1 0x40 SWAP1 KECCAK256 PUSH1 0x2 ADD DUP1 SLOAD PUSH2 0xFF00 NOT AND PUSH2 0x300 OR SWAP1 SSTORE JUMP JUMPDEST PUSH0 DUP4 GT PUSH2 0x86F JUMPI PUSH1 0x40 MLOAD PUSH3 0x461BCD PUSH1 0xE5 SHL DUP2 MSTORE PUSH1 0x4 ADD PUSH2 0x787 SWAP1 PUSH2 0x6FC6 JUMP JUMPDEST PUSH1 0x14 SLOAD PUSH1 0x1 PUSH1 0x1 PUSH1 0xA0 SHL SUB AND CALLER EQ DUP1 PUSH2 0x892 JUMPI POP PUSH1 0x16 SLOAD PUSH1 0x1 PUSH1 0x1 PUSH1 0xA0 SHL SUB AND CALLER EQ JUMPDEST DUP1 PUSH2 0x8A7 JUMPI POP PUSH1 0x15 SLOAD PUSH1 0x1 PUSH1 0x1 PUSH1 0xA0 SHL SUB AND CALLER EQ JUMPDEST PUSH2 0x8C3 JUMPI PUSH1 0x40 MLOAD PUSH3 0x461BCD PUSH1 0xE5 SHL DUP2 MSTORE PUSH1 0x4 ADD PUSH2 0x787 SWAP1 PUSH2 0x6FFD JUMP JUMPDEST PUSH2 0x8CE DUP4 DUP4 DUP4 PUSH2 0x36EB JUMP JUMPDEST POP POP POP JUMP JUMPDEST PUSH1 0x60 DUP1 DUP1 CALLER ORIGIN EQ PUSH2 0x8F6 JUMPI PUSH1 0x40 MLOAD PUSH3 0x461BCD PUSH1 0xE5 SHL DUP2 MSTORE PUSH1 0x4 ADD PUSH2 0x787 SWAP1 PUSH2 0x702C JUMP JUMPDEST PUSH2 0x907 PUSH1 0x4 DUP9 CALLER DUP10 PUSH1 0x20 PUSH1 0x21 PUSH2 0x3AED JUMP JUMPDEST PUSH2 0x949 JUMPI PUSH1 0x40 MLOAD PUSH3 0x461BCD PUSH1 0xE5 SHL DUP2 MSTORE PUSH1 0x20 PUSH1 0x4 DUP3 ADD MSTORE PUSH1 0x13 PUSH1 0x24 DUP3 ADD MSTORE PUSH19 0x2AB730BABA3437B934BD32B21031B0B63632B9 PUSH1 0x69 SHL PUSH1 0x44 DUP3 ADD MSTORE PUSH1 0x64 ADD PUSH2 0x787 JUMP JUMPDEST PUSH1 0x1 PUSH1 0x1 PUSH1 0xA0 SHL SUB DUP8 AND PUSH0 SWAP1 DUP2 MSTORE PUSH1 0x4 PUSH1 0x20 MSTORE PUSH1 0x40 SWAP1 KECCAK256 PUSH1 0x1 ADD SLOAD DUP1 DUP7 LT PUSH2 0x9E1 JUMPI PUSH1 0x40 DUP1 MLOAD PUSH0 DUP1 DUP3 MSTORE PUSH1 0x20 DUP3 ADD DUP2 DUP2 MSTORE DUP3 DUP5 ADD SWAP1 SWAP4 MSTORE SWAP1 SWAP2 SWAP1 PUSH2 0x9A3 JUMP JUMPDEST PUSH2 0x990 PUSH2 0x6777 JUMP JUMPDEST DUP2 MSTORE PUSH1 0x20 ADD SWAP1 PUSH1 0x1 SWAP1 SUB SWAP1 DUP2 PUSH2 0x988 JUMPI SWAP1 POP JUMPDEST POP PUSH1 0x40 DUP1 MLOAD PUSH0 DUP1 DUP3 MSTORE PUSH1 0x20 DUP3 ADD SWAP1 SWAP3 MSTORE SWAP1 PUSH2 0x9D4 JUMP JUMPDEST PUSH2 0x9C1 PUSH2 0x679C JUMP JUMPDEST DUP2 MSTORE PUSH1 0x20 ADD SWAP1 PUSH1 0x1 SWAP1 SUB SWAP1 DUP2 PUSH2 0x9B9 JUMPI SWAP1 POP JUMPDEST POP SWAP4 POP SWAP4 POP SWAP4 POP POP PUSH2 0xD02 JUMP JUMPDEST PUSH0 DUP2 PUSH2 0x9ED DUP8 DUP10 PUSH2 0x7075 JUMP JUMPDEST GT PUSH2 0x9F8 JUMPI DUP6 PUSH2 0xA02 JUMP JUMPDEST PUSH2 0xA02 DUP8 DUP4 PUSH2 0x7088 JUMP JUMPDEST SWAP1 POP DUP1 PUSH1 0x1 PUSH1 0x1 PUSH1 0x40 SHL SUB DUP2 GT ISZERO PUSH2 0xA1C JUMPI PUSH2 0xA1C PUSH2 0x6932 JUMP JUMPDEST PUSH1 0x40 MLOAD SWAP1 DUP1 DUP3 MSTORE DUP1 PUSH1 0x20 MUL PUSH1 0x20 ADD DUP3 ADD PUSH1 0x40 MSTORE DUP1 ISZERO PUSH2 0xA55 JUMPI DUP2 PUSH1 0x20 ADD JUMPDEST PUSH2 0xA42 PUSH2 0x6777 JUMP JUMPDEST DUP2 MSTORE PUSH1 0x20 ADD SWAP1 PUSH1 0x1 SWAP1 SUB SWAP1 DUP2 PUSH2 0xA3A JUMPI SWAP1 POP JUMPDEST POP SWAP4 POP DUP1 PUSH1 0x1 PUSH1 0x1 PUSH1 0x40 SHL SUB DUP2 GT ISZERO PUSH2 0xA70 JUMPI PUSH2 0xA70 PUSH2 0x6932 JUMP JUMPDEST PUSH1 0x40 MLOAD SWAP1 DUP1 DUP3 MSTORE DUP1 PUSH1 0x20 MUL PUSH1 0x20 ADD DUP3 ADD PUSH1 0x40 MSTORE DUP1 ISZERO PUSH2 0xAA9 JUMPI DUP2 PUSH1 0x20 ADD JUMPDEST PUSH2 0xA96 PUSH2 0x679C JUMP JUMPDEST DUP2 MSTORE PUSH1 0x20 ADD SWAP1 PUSH1 0x1 SWAP1 SUB SWAP1 DUP2 PUSH2 0xA8E JUMPI SWAP1 POP JUMPDEST POP SWAP3 POP DUP1 PUSH1 0x1 PUSH1 0x1 PUSH1 0x40 SHL SUB DUP2 GT ISZERO PUSH2 0xAC4 JUMPI PUSH2 0xAC4 PUSH2 0x6932 JUMP JUMPDEST PUSH1 0x40 MLOAD SWAP1 DUP1 DUP3 MSTORE DUP1 PUSH1 0x20 MUL PUSH1 0x20 ADD DUP3 ADD PUSH1 0x40 MSTORE DUP1 ISZERO PUSH2 0xAED JUMPI DUP2 PUSH1 0x20 ADD PUSH1 0x20 DUP3 MUL DUP1 CALLDATASIZE DUP4 CALLDATACOPY ADD SWAP1 POP JUMPDEST POP SWAP5 POP PUSH0 JUMPDEST DUP2 DUP2 LT ISZERO PUSH2 0xCFE JUMPI PUSH1 0x1 PUSH1 0x1 PUSH1 0xA0 SHL SUB DUP11 AND PUSH0 SWAP1 DUP2 MSTORE PUSH1 0x4 PUSH1 0x20 MSTORE PUSH1 0x40 DUP2 KECCAK256 PUSH1 0x1 ADD PUSH2 0xB1E DUP4 DUP12 PUSH2 0x7075 JUMP JUMPDEST DUP2 SLOAD DUP2 LT PUSH2 0xB2E JUMPI PUSH2 0xB2E PUSH2 0x709B JUMP JUMPDEST PUSH0 SWAP2 DUP3 MSTORE PUSH1 0x20 DUP1 DUP4 KECCAK256 SWAP1 SWAP2 ADD SLOAD PUSH1 0x1 PUSH1 0x1 PUSH1 0xA0 SHL SUB SWAP1 DUP2 AND DUP1 DUP5 MSTORE PUSH1 0x4 DUP4 MSTORE PUSH1 0x40 SWAP4 DUP5 SWAP1 KECCAK256 DUP5 MLOAD PUSH1 0x80 DUP2 ADD DUP7 MSTORE DUP2 SLOAD SWAP1 SWAP4 AND DUP4 MSTORE PUSH1 0x1 DUP2 ADD DUP1 SLOAD DUP7 MLOAD DUP2 DUP8 MUL DUP2 ADD DUP8 ADD SWAP1 SWAP8 MSTORE DUP1 DUP8 MSTORE SWAP3 SWAP7 POP SWAP3 SWAP5 SWAP1 SWAP4 DUP6 DUP2 ADD SWAP4 SWAP2 SWAP3 SWAP1 DUP4 ADD DUP3 DUP3 DUP1 ISZERO PUSH2 0xBBC JUMPI PUSH1 0x20 MUL DUP3 ADD SWAP2 SWAP1 PUSH0 MSTORE PUSH1 0x20 PUSH0 KECCAK256 SWAP1 JUMPDEST DUP2 SLOAD PUSH1 0x1 PUSH1 0x1 PUSH1 0xA0 SHL SUB AND DUP2 MSTORE PUSH1 0x1 SWAP1 SWAP2 ADD SWAP1 PUSH1 0x20 ADD DUP1 DUP4 GT PUSH2 0xB9E JUMPI JUMPDEST POP POP POP SWAP2 DUP4 MSTORE POP POP PUSH1 0x2 DUP3 ADD SLOAD PUSH1 0x20 SWAP1 SWAP2 ADD SWAP1 PUSH1 0xFF AND PUSH1 0x7 DUP2 GT ISZERO PUSH2 0xBE3 JUMPI PUSH2 0xBE3 PUSH2 0x6B58 JUMP JUMPDEST PUSH1 0x7 DUP2 GT ISZERO PUSH2 0xBF4 JUMPI PUSH2 0xBF4 PUSH2 0x6B58 JUMP JUMPDEST DUP2 MSTORE PUSH1 0x20 ADD PUSH1 0x2 DUP3 ADD PUSH1 0x1 SWAP1 SLOAD SWAP1 PUSH2 0x100 EXP SWAP1 DIV PUSH1 0xFF AND PUSH1 0x3 DUP2 GT ISZERO PUSH2 0xC1C JUMPI PUSH2 0xC1C PUSH2 0x6B58 JUMP JUMPDEST PUSH1 0x3 DUP2 GT ISZERO PUSH2 0xC2D JUMPI PUSH2 0xC2D PUSH2 0x6B58 JUMP JUMPDEST DUP2 MSTORE POP POP DUP7 DUP4 DUP2 MLOAD DUP2 LT PUSH2 0xC43 JUMPI PUSH2 0xC43 PUSH2 0x709B JUMP JUMPDEST PUSH1 0x20 MUL PUSH1 0x20 ADD ADD DUP2 SWAP1 MSTORE POP PUSH1 0x5 PUSH0 DUP3 PUSH1 0x1 PUSH1 0x1 PUSH1 0xA0 SHL SUB AND PUSH1 0x1 PUSH1 0x1 PUSH1 0xA0 SHL SUB AND DUP2 MSTORE PUSH1 0x20 ADD SWAP1 DUP2 MSTORE PUSH1 0x20 ADD PUSH0 KECCAK256 PUSH1 0x40 MLOAD DUP1 PUSH1 0xA0 ADD PUSH1 0x40 MSTORE SWAP1 DUP2 PUSH0 DUP3 ADD SLOAD DUP2 MSTORE PUSH1 0x20 ADD PUSH1 0x1 DUP3 ADD SLOAD DUP2 MSTORE PUSH1 0x20 ADD PUSH1 0x2 DUP3 ADD SLOAD DUP2 MSTORE PUSH1 0x20 ADD PUSH1 0x3 DUP3 ADD SLOAD DUP2 MSTORE PUSH1 0x20 ADD PUSH1 0x4 DUP3 ADD SLOAD DUP2 MSTORE POP POP DUP6 DUP4 DUP2 MLOAD DUP2 LT PUSH2 0xCBF JUMPI PUSH2 0xCBF PUSH2 0x709B JUMP JUMPDEST PUSH1 0x20 MUL PUSH1 0x20 ADD ADD DUP2 SWAP1 MSTORE POP DUP1 DUP8 DUP4 DUP2 MLOAD DUP2 LT PUSH2 0xCDD JUMPI PUSH2 0xCDD PUSH2 0x709B JUMP JUMPDEST PUSH1 0x1 PUSH1 0x1 PUSH1 0xA0 SHL SUB SWAP1 SWAP3 AND PUSH1 0x20 SWAP3 DUP4 MUL SWAP2 SWAP1 SWAP2 ADD SWAP1 SWAP2 ADD MSTORE POP PUSH1 0x1 ADD PUSH2 0xAF2 JUMP JUMPDEST POP POP POP JUMPDEST SWAP5 POP SWAP5 POP SWAP5 SWAP2 POP POP JUMP JUMPDEST PUSH1 0x18 SLOAD PUSH0 SWAP1 PUSH1 0x1 PUSH1 0x1 PUSH1 0xA0 SHL SUB AND CALLER EQ PUSH2 0xD38 JUMPI PUSH1 0x40 MLOAD PUSH3 0x461BCD PUSH1 0xE5 SHL DUP2 MSTORE PUSH1 0x4 ADD PUSH2 0x787 SWAP1 PUSH2 0x6F91 JUMP JUMPDEST PUSH1 0xE SLOAD DUP4 LT PUSH2 0xD59 JUMPI PUSH1 0x40 MLOAD PUSH3 0x461BCD PUSH1 0xE5 SHL DUP2 MSTORE PUSH1 0x4 ADD PUSH2 0x787 SWAP1 PUSH2 0x70AF JUMP JUMPDEST PUSH0 DUP3 GT PUSH2 0xDB2 JUMPI PUSH1 0x40 MLOAD PUSH3 0x461BCD PUSH1 0xE5 SHL DUP2 MSTORE PUSH1 0x20 PUSH1 0x4 DUP3 ADD MSTORE PUSH1 0x21 PUSH1 0x24 DUP3 ADD MSTORE PUSH32 0x42617463682073697A65206D7573742062652067726561746572207468616E20 PUSH1 0x44 DUP3 ADD MSTORE PUSH1 0x3 PUSH1 0xFC SHL PUSH1 0x64 DUP3 ADD MSTORE PUSH1 0x84 ADD PUSH2 0x787 JUMP JUMPDEST PUSH1 0xE SLOAD PUSH2 0xDBF DUP5 DUP3 PUSH2 0x7088 JUMP JUMPDEST DUP4 GT ISZERO PUSH2 0xDD3 JUMPI PUSH2 0xDD0 DUP5 DUP3 PUSH2 0x7088 JUMP JUMPDEST SWAP3 POP JUMPDEST PUSH0 JUMPDEST DUP4 DUP2 LT DUP1 ISZERO PUSH2 0xDE3 JUMPI POP DUP2 DUP6 LT JUMPDEST ISZERO PUSH2 0x1146 JUMPI PUSH0 PUSH1 0xE DUP7 DUP2 SLOAD DUP2 LT PUSH2 0xDFC JUMPI PUSH2 0xDFC PUSH2 0x709B JUMP JUMPDEST PUSH0 SWAP2 DUP3 MSTORE PUSH1 0x20 SWAP1 SWAP2 KECCAK256 ADD SLOAD PUSH1 0x1 PUSH1 0x1 PUSH1 0xA0 SHL SUB AND SWAP1 POP DUP1 ISZERO DUP1 PUSH2 0xE2C JUMPI POP PUSH1 0x14 SLOAD PUSH1 0x1 PUSH1 0x1 PUSH1 0xA0 SHL SUB DUP3 DUP2 AND SWAP2 AND EQ JUMPDEST ISZERO PUSH2 0xE3C JUMPI PUSH0 SWAP4 POP POP POP POP PUSH2 0x1163 JUMP JUMPDEST PUSH2 0xE4F PUSH1 0x4 PUSH1 0x5 PUSH1 0x7 PUSH1 0x8 PUSH1 0xA DUP7 PUSH2 0x3C6B JUMP JUMPDEST POP PUSH1 0x1 PUSH1 0x1 PUSH1 0xA0 SHL SUB DUP1 DUP3 AND PUSH0 SWAP1 DUP2 MSTORE PUSH1 0x4 PUSH1 0x20 MSTORE PUSH1 0x40 SWAP1 KECCAK256 SLOAD AND DUP1 ISZERO PUSH2 0x1124 JUMPI PUSH1 0x1 PUSH1 0x1 PUSH1 0xA0 SHL SUB DUP2 AND PUSH0 SWAP1 DUP2 MSTORE PUSH1 0x5 PUSH1 0x20 MSTORE PUSH1 0x40 DUP2 KECCAK256 PUSH1 0x1 SWAP1 DUP2 ADD DUP1 SLOAD SWAP2 SWAP3 SWAP1 SWAP2 PUSH2 0xE9D SWAP1 DUP5 SWAP1 PUSH2 0x7075 JUMP JUMPDEST SWAP1 SWAP2 SSTORE POP POP PUSH1 0x1 PUSH1 0x1 PUSH1 0xA0 SHL SUB DUP2 AND PUSH0 SWAP1 DUP2 MSTORE PUSH1 0x1A PUSH1 0x20 MSTORE PUSH1 0x40 SWAP1 KECCAK256 SLOAD PUSH1 0xFF AND ISZERO ISZERO PUSH1 0x1 EQ DUP1 ISZERO SWAP1 PUSH2 0xF0A JUMPI POP PUSH1 0x1 PUSH1 0x1 PUSH1 0xA0 SHL SUB DUP3 AND PUSH0 SWAP1 DUP2 MSTORE PUSH1 0x19 PUSH1 0x20 MSTORE PUSH1 0x40 SWAP1 KECCAK256 PUSH1 0x1 ADD SLOAD PUSH1 0xFF AND DUP1 PUSH2 0xF0A JUMPI POP PUSH1 0x1 PUSH1 0x1 PUSH1 0xA0 SHL SUB DUP3 AND PUSH0 SWAP1 DUP2 MSTORE PUSH1 0x1A PUSH1 0x20 MSTORE PUSH1 0x40 SWAP1 KECCAK256 SLOAD PUSH1 0xFF AND JUMPDEST ISZERO PUSH2 0xF32 JUMPI PUSH1 0x1 PUSH1 0x1 PUSH1 0xA0 SHL SUB DUP2 AND PUSH0 SWAP1 DUP2 MSTORE PUSH1 0x1A PUSH1 0x20 MSTORE PUSH1 0x40 SWAP1 KECCAK256 DUP1 SLOAD PUSH1 0xFF NOT AND PUSH1 0x1 OR SWAP1 SSTORE JUMPDEST PUSH1 0x1 PUSH1 0x1 PUSH1 0xA0 SHL SUB DUP3 AND PUSH0 SWAP1 DUP2 MSTORE PUSH1 0x19 PUSH1 0x20 SWAP1 DUP2 MSTORE PUSH1 0x40 DUP1 DUP4 KECCAK256 DUP4 DUP2 SSTORE PUSH1 0x1 ADD DUP1 SLOAD PUSH1 0xFF NOT SWAP1 DUP2 AND SWAP1 SWAP2 SSTORE PUSH1 0x1A DUP4 MSTORE DUP2 DUP5 KECCAK256 DUP1 SLOAD SWAP1 SWAP2 AND SWAP1 SSTORE PUSH1 0x9 SWAP1 SWAP2 MSTORE SWAP1 KECCAK256 SLOAD ISZERO PUSH2 0x1004 JUMPI PUSH1 0x1 PUSH1 0x1 PUSH1 0xA0 SHL SUB DUP1 DUP4 AND PUSH0 SWAP1 DUP2 MSTORE PUSH1 0x9 PUSH1 0x20 MSTORE PUSH1 0x40 DUP1 DUP3 KECCAK256 SLOAD SWAP3 DUP5 AND DUP3 MSTORE DUP2 KECCAK256 DUP1 SLOAD SWAP1 SWAP2 SWAP1 PUSH2 0xFA9 SWAP1 DUP5 SWAP1 PUSH2 0x7075 JUMP JUMPDEST SWAP1 SWAP2 SSTORE POP POP PUSH1 0x1 PUSH1 0x1 PUSH1 0xA0 SHL SUB DUP1 DUP4 AND PUSH0 SWAP1 DUP2 MSTORE PUSH1 0x9 PUSH1 0x20 SWAP1 DUP2 MSTORE PUSH1 0x40 DUP1 DUP4 KECCAK256 SLOAD SWAP4 DUP6 AND DUP4 MSTORE PUSH1 0xA SWAP1 SWAP2 MSTORE DUP2 KECCAK256 DUP1 SLOAD SWAP1 SWAP2 SWAP1 PUSH2 0xFE6 SWAP1 DUP5 SWAP1 PUSH2 0x7075 JUMP JUMPDEST SWAP1 SWAP2 SSTORE POP POP PUSH1 0x1 PUSH1 0x1 PUSH1 0xA0 SHL SUB DUP3 AND PUSH0 SWAP1 DUP2 MSTORE PUSH1 0x9 PUSH1 0x20 MSTORE PUSH1 0x40 DUP2 KECCAK256 SSTORE JUMPDEST PUSH1 0x1 PUSH1 0x1 PUSH1 0xA0 SHL SUB DUP2 AND PUSH0 SWAP1 DUP2 MSTORE PUSH1 0x4 PUSH1 0x20 SWAP1 DUP2 MSTORE PUSH1 0x40 DUP1 DUP4 KECCAK256 PUSH1 0x1 SWAP1 DUP2 ADD SLOAD PUSH1 0x5 SWAP1 SWAP4 MSTORE SWAP3 KECCAK256 SWAP1 SWAP2 ADD SLOAD SUB PUSH2 0x107C JUMPI PUSH1 0x1 PUSH1 0x1 PUSH1 0xA0 SHL SUB DUP2 AND PUSH0 SWAP1 DUP2 MSTORE PUSH1 0x5 PUSH1 0x20 SWAP1 DUP2 MSTORE PUSH1 0x40 DUP1 DUP4 KECCAK256 PUSH1 0x1 ADD DUP4 SWAP1 SSTORE PUSH1 0x1A SWAP1 SWAP2 MSTORE SWAP1 KECCAK256 SLOAD PUSH1 0xFF AND ISZERO PUSH2 0x1073 JUMPI PUSH2 0x1073 PUSH1 0x5 PUSH1 0x4 PUSH1 0x2 DUP5 PUSH2 0x3DC6 JUMP JUMPDEST PUSH2 0x107C DUP2 PUSH2 0x4087 JUMP JUMPDEST PUSH1 0x1 PUSH1 0x1 PUSH1 0xA0 SHL SUB DUP2 AND PUSH0 SWAP1 DUP2 MSTORE PUSH1 0x1A PUSH1 0x20 MSTORE PUSH1 0x40 SWAP1 KECCAK256 SLOAD PUSH1 0xFF AND DUP1 ISZERO PUSH2 0x10D7 JUMPI POP PUSH1 0x1 PUSH1 0x1 PUSH1 0x1 PUSH1 0xA0 SHL SUB DUP3 AND PUSH0 SWAP1 DUP2 MSTORE PUSH1 0x4 PUSH1 0x20 MSTORE PUSH1 0x40 SWAP1 KECCAK256 PUSH1 0x2 ADD SLOAD PUSH2 0x100 SWAP1 DIV PUSH1 0xFF AND PUSH1 0x3 DUP2 GT ISZERO PUSH2 0x10D4 JUMPI PUSH2 0x10D4 PUSH2 0x6B58 JUMP JUMPDEST EQ ISZERO JUMPDEST DUP1 ISZERO PUSH2 0x10E9 JUMPI POP PUSH2 0x10E9 PUSH1 0x5 DUP3 PUSH2 0x42B6 JUMP JUMPDEST ISZERO PUSH2 0x1124 JUMPI PUSH1 0x1 PUSH1 0x1 PUSH1 0xA0 SHL SUB DUP2 AND PUSH0 SWAP1 DUP2 MSTORE PUSH1 0x4 PUSH1 0x20 DUP2 SWAP1 MSTORE PUSH1 0x40 SWAP1 SWAP2 KECCAK256 PUSH1 0x2 ADD DUP1 SLOAD PUSH2 0xFF00 NOT AND PUSH2 0x100 OR SWAP1 SSTORE PUSH2 0x1124 SWAP1 PUSH1 0xC DUP4 PUSH2 0x42FF JUMP JUMPDEST DUP7 PUSH2 0x112E DUP2 PUSH2 0x70DC JUMP JUMPDEST SWAP8 POP POP DUP3 DUP1 PUSH2 0x113C SWAP1 PUSH2 0x70DC JUMP JUMPDEST SWAP4 POP POP POP POP PUSH2 0xDD5 JUMP JUMPDEST DUP2 DUP6 LT PUSH2 0x1153 JUMPI PUSH0 PUSH2 0x115E JUMP JUMPDEST PUSH2 0x115E DUP6 PUSH1 0x1 PUSH2 0x7075 JUMP JUMPDEST SWAP3 POP POP POP JUMPDEST SWAP3 SWAP2 POP POP JUMP JUMPDEST CALLER ORIGIN EQ PUSH2 0x1188 JUMPI PUSH1 0x40 MLOAD PUSH3 0x461BCD PUSH1 0xE5 SHL DUP2 MSTORE PUSH1 0x4 ADD PUSH2 0x787 SWAP1 PUSH2 0x702C JUMP JUMPDEST PUSH1 0x11 SLOAD PUSH2 0x100 SWAP1 DIV PUSH1 0xFF AND ISZERO PUSH2 0x11B0 JUMPI PUSH1 0x40 MLOAD PUSH3 0x461BCD PUSH1 0xE5 SHL DUP2 MSTORE PUSH1 0x4 ADD PUSH2 0x787 SWAP1 PUSH2 0x70F4 JUMP JUMPDEST PUSH1 0x1 PUSH1 0x1 PUSH1 0xA0 SHL SUB DUP4 DUP2 AND PUSH0 SWAP1 DUP2 MSTORE PUSH1 0x4 PUSH1 0x20 MSTORE PUSH1 0x40 SWAP1 KECCAK256 SLOAD AND ISZERO PUSH2 0x11E7 JUMPI PUSH1 0x40 MLOAD PUSH3 0x461BCD PUSH1 0xE5 SHL DUP2 MSTORE PUSH1 0x4 ADD PUSH2 0x787 SWAP1 PUSH2 0x711C JUMP JUMPDEST PUSH1 0x1 PUSH1 0x1 PUSH1 0xA0 SHL SUB DUP4 DUP2 AND PUSH0 SWAP1 DUP2 MSTORE PUSH1 0x12 PUSH1 0x20 MSTORE PUSH1 0x40 SWAP1 KECCAK256 SLOAD AND ISZERO PUSH2 0x121E JUMPI PUSH1 0x40 MLOAD PUSH3 0x461BCD PUSH1 0xE5 SHL DUP2 MSTORE PUSH1 0x4 ADD PUSH2 0x787 SWAP1 PUSH2 0x7149 JUMP JUMPDEST PUSH1 0x1 PUSH1 0x1 PUSH1 0xA0 SHL SUB DUP3 DUP2 AND PUSH0 SWAP1 DUP2 MSTORE PUSH1 0x4 PUSH1 0x20 MSTORE PUSH1 0x40 SWAP1 KECCAK256 SLOAD AND ISZERO ISZERO DUP1 PUSH2 0x1252 JUMPI POP PUSH1 0x14 SLOAD PUSH1 0x1 PUSH1 0x1 PUSH1 0xA0 SHL SUB DUP4 DUP2 AND SWAP2 AND EQ JUMPDEST PUSH2 0x126E JUMPI PUSH1 0x40 MLOAD PUSH3 0x461BCD PUSH1 0xE5 SHL DUP2 MSTORE PUSH1 0x4 ADD PUSH2 0x787 SWAP1 PUSH2 0x717D JUMP JUMPDEST PUSH1 0x14 SLOAD PUSH1 0x1 PUSH1 0x1 PUSH1 0xA0 SHL SUB DUP4 DUP2 AND SWAP2 AND EQ ISZERO DUP1 PUSH2 0x1295 JUMPI POP PUSH1 0x18 SLOAD PUSH1 0x1 PUSH1 0x1 PUSH1 0xA0 SHL SUB AND CALLER EQ JUMPDEST PUSH2 0x12B1 JUMPI PUSH1 0x40 MLOAD PUSH3 0x461BCD PUSH1 0xE5 SHL DUP2 MSTORE PUSH1 0x4 ADD PUSH2 0x787 SWAP1 PUSH2 0x71AC JUMP JUMPDEST PUSH1 0x1F SLOAD PUSH1 0x40 MLOAD PUSH4 0x700786D7 PUSH1 0xE1 SHL DUP2 MSTORE PUSH1 0x1 PUSH1 0x1 PUSH1 0xA0 SHL SUB SWAP1 SWAP2 AND SWAP1 DUP2 SWAP1 PUSH4 0xE00F0DAE SWAP1 PUSH2 0x12E3 SWAP1 DUP8 SWAP1 PUSH1 0x4 ADD PUSH2 0x6D5F JUMP JUMPDEST PUSH1 0x20 PUSH1 0x40 MLOAD DUP1 DUP4 SUB DUP2 DUP7 GAS STATICCALL ISZERO DUP1 ISZERO PUSH2 0x12FE JUMPI RETURNDATASIZE PUSH0 DUP1 RETURNDATACOPY RETURNDATASIZE PUSH0 REVERT JUMPDEST POP POP POP POP PUSH1 0x40 MLOAD RETURNDATASIZE PUSH1 0x1F NOT PUSH1 0x1F DUP3 ADD AND DUP3 ADD DUP1 PUSH1 0x40 MSTORE POP DUP2 ADD SWAP1 PUSH2 0x1322 SWAP2 SWAP1 PUSH2 0x71E6 JUMP JUMPDEST PUSH1 0x1 PUSH1 0x1 PUSH1 0xA0 SHL SUB AND DUP4 PUSH1 0x1 PUSH1 0x1 PUSH1 0xA0 SHL SUB AND EQ PUSH2 0x1352 JUMPI PUSH1 0x40 MLOAD PUSH3 0x461BCD PUSH1 0xE5 SHL DUP2 MSTORE PUSH1 0x4 ADD PUSH2 0x787 SWAP1 PUSH2 0x7201 JUMP JUMPDEST PUSH1 0x17 SLOAD PUSH2 0x136D SWAP1 PUSH1 0x1 PUSH1 0x1 PUSH1 0xA0 SHL SUB AND DUP4 PUSH4 0x7270E00 PUSH2 0x4380 JUMP JUMPDEST PUSH1 0x40 MLOAD DUP1 PUSH1 0x40 ADD PUSH1 0x40 MSTORE DUP1 DUP5 PUSH1 0x1 PUSH1 0x1 PUSH1 0xA0 SHL SUB AND DUP2 MSTORE PUSH1 0x20 ADD TIMESTAMP PUSH4 0x1E13380 PUSH2 0x1397 SWAP2 SWAP1 PUSH2 0x7075 JUMP JUMPDEST SWAP1 MSTORE PUSH1 0x1 PUSH1 0x1 PUSH1 0xA0 SHL SUB DUP1 DUP7 AND PUSH0 DUP2 DUP2 MSTORE PUSH1 0x12 PUSH1 0x20 SWAP1 DUP2 MSTORE PUSH1 0x40 DUP1 DUP4 KECCAK256 DUP7 MLOAD DUP2 SLOAD SWAP1 DUP8 AND PUSH1 0x1 PUSH1 0x1 PUSH1 0xA0 SHL SUB NOT SWAP2 DUP3 AND OR DUP3 SSTORE SWAP7 DUP4 ADD MLOAD PUSH1 0x1 SWAP2 DUP3 ADD SSTORE SWAP5 DUP10 AND DUP4 MSTORE PUSH1 0x13 DUP3 MSTORE DUP3 KECCAK256 DUP1 SLOAD SWAP5 DUP6 ADD DUP2 SSTORE DUP3 MSTORE SWAP1 KECCAK256 SWAP1 SWAP2 ADD DUP1 SLOAD SWAP1 SWAP3 AND OR SWAP1 SSTORE PUSH2 0x1401 DUP5 PUSH1 0x64 DUP5 PUSH2 0x459C JUMP JUMPDEST PUSH1 0x1B SLOAD PUSH1 0x16 SLOAD PUSH1 0x1 PUSH1 0x1 PUSH1 0xA0 SHL SUB SWAP2 DUP3 AND SWAP2 PUSH4 0xE115DC7F SWAP2 AND DUP5 PUSH1 0x64 PUSH2 0x142E PUSH3 0xF4240 PUSH4 0x7270E00 PUSH2 0x723F JUMP JUMPDEST PUSH2 0x1438 SWAP2 SWAP1 PUSH2 0x7088 JUMP JUMPDEST PUSH1 0x1 PUSH1 0x2 PUSH1 0x40 MLOAD DUP7 PUSH4 0xFFFFFFFF AND PUSH1 0xE0 SHL DUP2 MSTORE PUSH1 0x4 ADD PUSH2 0x145C SWAP6 SWAP5 SWAP4 SWAP3 SWAP2 SWAP1 PUSH2 0x7252 JUMP JUMPDEST PUSH0 PUSH1 0x40 MLOAD DUP1 DUP4 SUB DUP2 PUSH0 DUP8 DUP1 EXTCODESIZE ISZERO DUP1 ISZERO PUSH2 0x1473 JUMPI PUSH0 DUP1 REVERT JUMPDEST POP GAS CALL ISZERO DUP1 ISZERO PUSH2 0x1485 JUMPI RETURNDATASIZE PUSH0 DUP1 RETURNDATACOPY RETURNDATASIZE PUSH0 REVERT JUMPDEST POP POP POP POP POP POP POP POP JUMP JUMPDEST PUSH1 0x18 SLOAD PUSH1 0x1 PUSH1 0x1 PUSH1 0xA0 SHL SUB AND CALLER EQ PUSH2 0x14B9 JUMPI PUSH1 0x40 MLOAD PUSH3 0x461BCD PUSH1 0xE5 SHL DUP2 MSTORE PUSH1 0x4 ADD PUSH2 0x787 SWAP1 PUSH2 0x6F91 JUMP JUMPDEST PUSH1 0x1B SLOAD PUSH2 0x14D0 SWAP1 PUSH1 0x1 PUSH1 0x1 PUSH1 0xA0 SHL SUB AND PUSH1 0x2 PUSH2 0x46A2 JUMP JUMPDEST JUMP JUMPDEST PUSH1 0x18 SLOAD PUSH1 0x1 PUSH1 0x1 PUSH1 0xA0 SHL SUB AND CALLER EQ PUSH2 0x14FC JUMPI PUSH1 0x40 MLOAD PUSH3 0x461BCD PUSH1 0xE5 SHL DUP2 MSTORE PUSH1 0x4 ADD PUSH2 0x787 SWAP1 PUSH2 0x6F91 JUMP JUMPDEST PUSH1 0x14 SLOAD PUSH2 0x14D0 SWAP1 PUSH1 0x4 SWAP1 PUSH1 0xD SWAP1 PUSH1 0xB SWAP1 PUSH1 0x1 PUSH1 0x1 PUSH1 0xA0 SHL SUB AND DUP1 PUSH2 0x4914 JUMP JUMPDEST PUSH1 0x18 SLOAD PUSH0 SWAP1 DUP2 SWAP1 DUP2 SWAP1 PUSH1 0x1 PUSH1 0x1 PUSH1 0xA0 SHL SUB AND CALLER EQ PUSH2 0x154B JUMPI PUSH1 0x40 MLOAD PUSH3 0x461BCD PUSH1 0xE5 SHL DUP2 MSTORE PUSH1 0x4 ADD PUSH2 0x787 SWAP1 PUSH2 0x6F91 JUMP JUMPDEST POP POP PUSH1 0x15 SLOAD PUSH1 0x16 SLOAD PUSH1 0x14 SLOAD PUSH1 0x1 PUSH1 0x1 PUSH1 0xA0 SHL SUB SWAP3 DUP4 AND SWAP4 POP SWAP1 DUP3 AND SWAP2 AND SWAP1 SWAP2 SWAP3 JUMP JUMPDEST PUSH1 0x18 SLOAD PUSH1 0x1 PUSH1 0x1 PUSH1 0xA0 SHL SUB AND CALLER EQ PUSH2 0x1597 JUMPI PUSH1 0x40 MLOAD PUSH3 0x461BCD PUSH1 0xE5 SHL DUP2 MSTORE PUSH1 0x4 ADD PUSH2 0x787 SWAP1 PUSH2 0x6F91 JUMP JUMPDEST PUSH1 0x16 DUP1 SLOAD PUSH1 0x1 PUSH1 0x1 PUSH1 0xA0 SHL SUB NOT AND PUSH1 0x1 PUSH1 0x1 PUSH1 0xA0 SHL SUB SWAP3 SWAP1 SWAP3 AND SWAP2 SWAP1 SWAP2 OR SWAP1 SSTORE JUMP JUMPDEST PUSH1 0x1B SLOAD PUSH1 0x40 MLOAD PUSH4 0x5BC3E911 PUSH1 0xE1 SHL DUP2 MSTORE PUSH1 0x60 SWAP2 PUSH1 0x1 PUSH1 0x1 PUSH1 0xA0 SHL SUB AND SWAP1 PUSH4 0xB787D222 SWAP1 PUSH2 0x15EE SWAP1 DUP8 SWAP1 DUP8 SWAP1 DUP8 SWAP1 PUSH1 0x4 ADD PUSH2 0x7285 JUMP JUMPDEST PUSH0 PUSH1 0x40 MLOAD DUP1 DUP4 SUB DUP2 DUP7 GAS STATICCALL ISZERO DUP1 ISZERO PUSH2 0x1608 JUMPI RETURNDATASIZE PUSH0 DUP1 RETURNDATACOPY RETURNDATASIZE PUSH0 REVERT JUMPDEST POP POP POP POP PUSH1 0x40 MLOAD RETURNDATASIZE PUSH0 DUP3 RETURNDATACOPY PUSH1 0x1F RETURNDATASIZE SWAP1 DUP2 ADD PUSH1 0x1F NOT AND DUP3 ADD PUSH1 0x40 MSTORE PUSH2 0x162F SWAP2 SWAP1 DUP2 ADD SWAP1 PUSH2 0x72A6 JUMP JUMPDEST SWAP5 SWAP4 POP POP POP POP JUMP JUMPDEST CALLER ORIGIN EQ PUSH2 0x1656 JUMPI PUSH1 0x40 MLOAD PUSH3 0x461BCD PUSH1 0xE5 SHL DUP2 MSTORE PUSH1 0x4 ADD PUSH2 0x787 SWAP1 PUSH2 0x702C JUMP JUMPDEST PUSH1 0x11 SLOAD PUSH2 0x100 SWAP1 DIV PUSH1 0xFF AND ISZERO PUSH2 0x167E JUMPI PUSH1 0x40 MLOAD PUSH3 0x461BCD PUSH1 0xE5 SHL DUP2 MSTORE PUSH1 0x4 ADD PUSH2 0x787 SWAP1 PUSH2 0x70F4 JUMP JUMPDEST PUSH1 0x1 PUSH1 0x1 PUSH1 0xA0 SHL SUB DUP6 DUP2 AND PUSH0 SWAP1 DUP2 MSTORE PUSH1 0x4 PUSH1 0x20 MSTORE PUSH1 0x40 SWAP1 KECCAK256 SLOAD AND ISZERO PUSH2 0x16B5 JUMPI PUSH1 0x40 MLOAD PUSH3 0x461BCD PUSH1 0xE5 SHL DUP2 MSTORE PUSH1 0x4 ADD PUSH2 0x787 SWAP1 PUSH2 0x711C JUMP JUMPDEST PUSH1 0x1 PUSH1 0x1 PUSH1 0xA0 SHL SUB DUP6 DUP2 AND PUSH0 SWAP1 DUP2 MSTORE PUSH1 0x12 PUSH1 0x20 MSTORE PUSH1 0x40 SWAP1 KECCAK256 SLOAD AND ISZERO PUSH2 0x16EC JUMPI PUSH1 0x40 MLOAD PUSH3 0x461BCD PUSH1 0xE5 SHL DUP2 MSTORE PUSH1 0x4 ADD PUSH2 0x787 SWAP1 PUSH2 0x7149 JUMP JUMPDEST PUSH1 0x1 PUSH1 0x1 PUSH1 0xA0 SHL SUB DUP5 DUP2 AND PUSH0 SWAP1 DUP2 MSTORE PUSH1 0x4 PUSH1 0x20 MSTORE PUSH1 0x40 SWAP1 KECCAK256 SLOAD AND ISZERO ISZERO DUP1 PUSH2 0x1720 JUMPI POP PUSH1 0x14 SLOAD PUSH1 0x1 PUSH1 0x1 PUSH1 0xA0 SHL SUB DUP6 DUP2 AND SWAP2 AND EQ JUMPDEST PUSH2 0x173C JUMPI PUSH1 0x40 MLOAD PUSH3 0x461BCD PUSH1 0xE5 SHL DUP2 MSTORE PUSH1 0x4 ADD PUSH2 0x787 SWAP1 PUSH2 0x717D JUMP JUMPDEST PUSH1 0x14 SLOAD PUSH1 0x1 PUSH1 0x1 PUSH1 0xA0 SHL SUB DUP6 DUP2 AND SWAP2 AND EQ ISZERO DUP1 PUSH2 0x1763 JUMPI POP PUSH1 0x18 SLOAD PUSH1 0x1 PUSH1 0x1 PUSH1 0xA0 SHL SUB AND CALLER EQ JUMPDEST PUSH2 0x177F JUMPI PUSH1 0x40 MLOAD PUSH3 0x461BCD PUSH1 0xE5 SHL DUP2 MSTORE PUSH1 0x4 ADD PUSH2 0x787 SWAP1 PUSH2 0x71AC JUMP JUMPDEST PUSH1 0x1F SLOAD PUSH1 0x40 MLOAD PUSH4 0x700786D7 PUSH1 0xE1 SHL DUP2 MSTORE PUSH1 0x1 PUSH1 0x1 PUSH1 0xA0 SHL SUB SWAP1 SWAP2 AND SWAP1 DUP2 SWAP1 PUSH4 0xE00F0DAE SWAP1 PUSH2 0x17B1 SWAP1 DUP10 SWAP1 PUSH1 0x4 ADD PUSH2 0x6D5F JUMP JUMPDEST PUSH1 0x20 PUSH1 0x40 MLOAD DUP1 DUP4 SUB DUP2 DUP7 GAS STATICCALL ISZERO DUP1 ISZERO PUSH2 0x17CC JUMPI RETURNDATASIZE PUSH0 DUP1 RETURNDATACOPY RETURNDATASIZE PUSH0 REVERT JUMPDEST POP POP POP POP PUSH1 0x40 MLOAD RETURNDATASIZE PUSH1 0x1F NOT PUSH1 0x1F DUP3 ADD AND DUP3 ADD DUP1 PUSH1 0x40 MSTORE POP DUP2 ADD SWAP1 PUSH2 0x17F0 SWAP2 SWAP1 PUSH2 0x71E6 JUMP JUMPDEST PUSH1 0x1 PUSH1 0x1 PUSH1 0xA0 SHL SUB AND DUP6 PUSH1 0x1 PUSH1 0x1 PUSH1 0xA0 SHL SUB AND EQ PUSH2 0x1820 JUMPI PUSH1 0x40 MLOAD PUSH3 0x461BCD PUSH1 0xE5 SHL DUP2 MSTORE PUSH1 0x4 ADD PUSH2 0x787 SWAP1 PUSH2 0x7201 JUMP JUMPDEST PUSH1 0x17 SLOAD PUSH2 0x1848 SWAP1 PUSH1 0x1 PUSH1 0x1 PUSH1 0xA0 SHL SUB AND DUP4 PUSH2 0x1843 PUSH4 0x7270E00 PUSH4 0x2625A00 PUSH2 0x7075 JUMP JUMPDEST PUSH2 0x4380 JUMP JUMPDEST PUSH1 0x1C SLOAD PUSH1 0x40 MLOAD PUSH4 0x7CCE9939 PUSH1 0xE0 SHL DUP2 MSTORE PUSH1 0x4 DUP2 ADD DUP6 SWAP1 MSTORE PUSH1 0x24 DUP2 ADD DUP7 SWAP1 MSTORE PUSH0 SWAP2 PUSH1 0x1 PUSH1 0x1 PUSH1 0xA0 SHL SUB AND SWAP1 PUSH4 0x7CCE9939 SWAP1 PUSH1 0x44 ADD PUSH1 0x20 PUSH1 0x40 MLOAD DUP1 DUP4 SUB DUP2 DUP7 GAS STATICCALL ISZERO DUP1 ISZERO PUSH2 0x1896 JUMPI RETURNDATASIZE PUSH0 DUP1 RETURNDATACOPY RETURNDATASIZE PUSH0 REVERT JUMPDEST POP POP POP POP PUSH1 0x40 MLOAD RETURNDATASIZE PUSH1 0x1F NOT PUSH1 0x1F DUP3 ADD AND DUP3 ADD DUP1 PUSH1 0x40 MSTORE POP DUP2 ADD SWAP1 PUSH2 0x18BA SWAP2 SWAP1 PUSH2 0x71E6 JUMP JUMPDEST SWAP1 POP PUSH1 0x1 PUSH1 0x1 PUSH1 0xA0 SHL SUB DUP2 AND ISZERO PUSH2 0x18F9 JUMPI PUSH1 0x1 PUSH1 0x1 PUSH1 0xA0 SHL SUB DUP8 DUP2 AND PUSH0 SWAP1 DUP2 MSTORE PUSH1 0x6 PUSH1 0x20 MSTORE PUSH1 0x40 SWAP1 KECCAK256 DUP1 SLOAD PUSH1 0x1 PUSH1 0x1 PUSH1 0xA0 SHL SUB NOT AND SWAP2 DUP4 AND SWAP2 SWAP1 SWAP2 OR SWAP1 SSTORE JUMPDEST PUSH2 0x1905 DUP8 PUSH1 0x64 DUP6 PUSH2 0x459C JUMP JUMPDEST PUSH1 0x1B SLOAD PUSH1 0x16 SLOAD PUSH1 0x1 PUSH1 0x1 PUSH1 0xA0 SHL SUB SWAP2 DUP3 AND SWAP2 PUSH4 0xE115DC7F SWAP2 AND DUP6 PUSH1 0x64 PUSH2 0x1932 PUSH3 0xF4240 PUSH4 0x7270E00 PUSH2 0x723F JUMP JUMPDEST PUSH2 0x193C SWAP2 SWAP1 PUSH2 0x7088 JUMP JUMPDEST PUSH1 0x1 PUSH1 0x2 PUSH1 0x40 MLOAD DUP7 PUSH4 0xFFFFFFFF AND PUSH1 0xE0 SHL DUP2 MSTORE PUSH1 0x4 ADD PUSH2 0x1960 SWAP6 SWAP5 SWAP4 SWAP3 SWAP2 SWAP1 PUSH2 0x7252 JUMP JUMPDEST PUSH0 PUSH1 0x40 MLOAD DUP1 DUP4 SUB DUP2 PUSH0 DUP8 DUP1 EXTCODESIZE ISZERO DUP1 ISZERO PUSH2 0x1977 JUMPI PUSH0 DUP1 REVERT JUMPDEST POP GAS CALL ISZERO DUP1 ISZERO PUSH2 0x1989 JUMPI RETURNDATASIZE PUSH0 DUP1 RETURNDATACOPY RETURNDATASIZE PUSH0 REVERT JUMPDEST POP POP PUSH1 0x11 SLOAD PUSH1 0xFF AND ISZERO SWAP2 POP PUSH2 0x1A68 SWAP1 POP JUMPI POP POP PUSH1 0x40 DUP1 MLOAD PUSH1 0xA0 DUP2 ADD DUP3 MSTORE PUSH1 0x1 PUSH1 0x1 PUSH1 0xA0 SHL SUB DUP1 DUP9 AND DUP3 MSTORE DUP7 DUP2 AND PUSH1 0x20 DUP4 ADD SWAP1 DUP2 MSTORE SWAP3 DUP3 ADD DUP7 DUP2 MSTORE PUSH1 0x60 DUP4 ADD DUP7 DUP2 MSTORE PUSH1 0x80 DUP5 ADD DUP7 DUP2 MSTORE PUSH1 0xF DUP1 SLOAD PUSH1 0x1 DUP2 ADD DUP3 SSTORE PUSH0 SWAP2 SWAP1 SWAP2 MSTORE SWAP5 MLOAD PUSH1 0x5 SWAP1 SWAP6 MUL PUSH0 DUP1 MLOAD PUSH1 0x20 PUSH2 0x79D4 DUP4 CODECOPY DUP2 MLOAD SWAP2 MSTORE DUP2 ADD DUP1 SLOAD SWAP7 DUP7 AND PUSH1 0x1 PUSH1 0x1 PUSH1 0xA0 SHL SUB NOT SWAP8 DUP9 AND OR SWAP1 SSTORE SWAP6 MLOAD PUSH0 DUP1 MLOAD PUSH1 0x20 PUSH2 0x79B4 DUP4 CODECOPY DUP2 MLOAD SWAP2 MSTORE DUP8 ADD DUP1 SLOAD SWAP2 SWAP1 SWAP6 AND SWAP6 AND SWAP5 SWAP1 SWAP5 OR SWAP1 SWAP3 SSTORE MLOAD PUSH0 DUP1 MLOAD PUSH1 0x20 PUSH2 0x7994 DUP4 CODECOPY DUP2 MLOAD SWAP2 MSTORE DUP5 ADD SSTORE MLOAD PUSH0 DUP1 MLOAD PUSH1 0x20 PUSH2 0x7974 DUP4 CODECOPY DUP2 MLOAD SWAP2 MSTORE DUP4 ADD SSTORE MLOAD PUSH0 DUP1 MLOAD PUSH1 0x20 PUSH2 0x7954 DUP4 CODECOPY DUP2 MLOAD SWAP2 MSTORE SWAP1 SWAP2 ADD SSTORE PUSH2 0x1A80 JUMP JUMPDEST PUSH2 0x1A70 PUSH2 0x4C14 JUMP JUMPDEST PUSH2 0x1A7D DUP8 DUP8 DUP8 DUP8 DUP8 PUSH2 0x4DB5 JUMP JUMPDEST POP POP JUMPDEST POP POP POP POP POP JUMP JUMPDEST PUSH1 0x1F SLOAD PUSH1 0x40 MLOAD PUSH4 0x700786D7 PUSH1 0xE1 SHL DUP2 MSTORE PUSH0 SWAP2 PUSH1 0x1 PUSH1 0x1 PUSH1 0xA0 SHL SUB AND SWAP1 DUP2 SWAP1 PUSH4 0xE00F0DAE SWAP1 PUSH2 0x1AB9 SWAP1 DUP7 SWAP1 PUSH1 0x4 ADD PUSH2 0x6D5F JUMP JUMPDEST PUSH1 0x20 PUSH1 0x40 MLOAD DUP1 DUP4 SUB DUP2 DUP7 GAS STATICCALL ISZERO DUP1 ISZERO PUSH2 0x1AD4 JUMPI RETURNDATASIZE PUSH0 DUP1 RETURNDATACOPY RETURNDATASIZE PUSH0 REVERT JUMPDEST POP POP POP POP PUSH1 0x40 MLOAD RETURNDATASIZE PUSH1 0x1F NOT PUSH1 0x1F DUP3 ADD AND DUP3 ADD DUP1 PUSH1 0x40 MSTORE POP DUP2 ADD SWAP1 PUSH2 0x1AF8 SWAP2 SWAP1 PUSH2 0x71E6 JUMP JUMPDEST SWAP4 SWAP3 POP POP POP JUMP JUMPDEST PUSH1 0x40 DUP1 MLOAD DUP1 DUP3 ADD SWAP1 SWAP2 MSTORE PUSH0 DUP1 DUP3 MSTORE PUSH1 0x20 DUP3 ADD MSTORE CALLER ORIGIN EQ PUSH2 0x1B31 JUMPI PUSH1 0x40 MLOAD PUSH3 0x461BCD PUSH1 0xE5 SHL DUP2 MSTORE PUSH1 0x4 ADD PUSH2 0x787 SWAP1 PUSH2 0x702C JUMP JUMPDEST CALLER PUSH0 DUP2 DUP2 MSTORE PUSH1 0x12 PUSH1 0x20 MSTORE PUSH1 0x40 SWAP1 KECCAK256 SLOAD PUSH1 0x1 PUSH1 0x1 PUSH1 0xA0 SHL SUB AND PUSH2 0x1B65 JUMPI PUSH1 0x40 MLOAD PUSH3 0x461BCD PUSH1 0xE5 SHL DUP2 MSTORE PUSH1 0x4 ADD PUSH2 0x787 SWAP1 PUSH2 0x737A JUMP JUMPDEST PUSH1 0x1 PUSH1 0x1 PUSH1 0xA0 SHL SUB SWAP1 DUP2 AND PUSH0 SWAP1 DUP2 MSTORE PUSH1 0x12 PUSH1 0x20 SWAP1 DUP2 MSTORE PUSH1 0x40 SWAP2 DUP3 SWAP1 KECCAK256 DUP3 MLOAD DUP1 DUP5 ADD SWAP1 SWAP4 MSTORE DUP1 SLOAD SWAP1 SWAP4 AND DUP3 MSTORE PUSH1 0x1 SWAP1 SWAP3 ADD SLOAD SWAP2 DUP2 ADD SWAP2 SWAP1 SWAP2 MSTORE SWAP1 POP SWAP1 JUMP JUMPDEST PUSH1 0x18 SLOAD PUSH1 0x1 PUSH1 0x1 PUSH1 0xA0 SHL SUB AND CALLER EQ PUSH2 0x1BCC JUMPI PUSH1 0x40 MLOAD PUSH3 0x461BCD PUSH1 0xE5 SHL DUP2 MSTORE PUSH1 0x4 ADD PUSH2 0x787 SWAP1 PUSH2 0x6F91 JUMP JUMPDEST PUSH1 0x17 DUP1 SLOAD PUSH1 0x1 PUSH1 0x1 PUSH1 0xA0 SHL SUB NOT AND PUSH1 0x1 PUSH1 0x1 PUSH1 0xA0 SHL SUB SWAP3 SWAP1 SWAP3 AND SWAP2 SWAP1 SWAP2 OR SWAP1 SSTORE JUMP JUMPDEST PUSH0 DUP3 GT PUSH2 0x1C0D JUMPI PUSH1 0x40 MLOAD PUSH3 0x461BCD PUSH1 0xE5 SHL DUP2 MSTORE PUSH1 0x4 ADD PUSH2 0x787 SWAP1 PUSH2 0x6FC6 JUMP JUMPDEST ORIGIN CALLER EQ DUP1 PUSH2 0x1C25 JUMPI POP PUSH1 0x14 SLOAD PUSH1 0x1 PUSH1 0x1 PUSH1 0xA0 SHL SUB AND CALLER EQ JUMPDEST DUP1 PUSH2 0x1C3A JUMPI POP PUSH1 0x16 SLOAD PUSH1 0x1 PUSH1 0x1 PUSH1 0xA0 SHL SUB AND CALLER EQ JUMPDEST DUP1 PUSH2 0x1C4F JUMPI POP PUSH1 0x15 SLOAD PUSH1 0x1 PUSH1 0x1 PUSH1 0xA0 SHL SUB AND CALLER EQ JUMPDEST PUSH2 0x1C6B JUMPI PUSH1 0x40 MLOAD PUSH3 0x461BCD PUSH1 0xE5 SHL DUP2 MSTORE PUSH1 0x4 ADD PUSH2 0x787 SWAP1 PUSH2 0x6FFD JUMP JUMPDEST PUSH2 0x1C76 DUP3 CALLER DUP4 PUSH2 0x36EB JUMP JUMPDEST POP POP JUMP JUMPDEST PUSH1 0x18 SLOAD PUSH1 0x1 PUSH1 0x1 PUSH1 0xA0 SHL SUB AND CALLER EQ PUSH2 0x1CA4 JUMPI PUSH1 0x40 MLOAD PUSH3 0x461BCD PUSH1 0xE5 SHL DUP2 MSTORE PUSH1 0x4 ADD PUSH2 0x787 SWAP1 PUSH2 0x6F91 JUMP JUMPDEST PUSH1 0x1 PUSH1 0x1 PUSH1 0xA0 SHL SUB DUP3 DUP2 AND PUSH0 SWAP1 DUP2 MSTORE PUSH1 0x4 PUSH1 0x20 MSTORE PUSH1 0x40 SWAP1 KECCAK256 SLOAD AND PUSH2 0x1CFC JUMPI PUSH1 0x40 MLOAD PUSH3 0x461BCD PUSH1 0xE5 SHL DUP2 MSTORE PUSH1 0x20 PUSH1 0x4 DUP3 ADD MSTORE PUSH1 0xF PUSH1 0x24 DUP3 ADD MSTORE PUSH15 0x55736572206E6F7420657869737473 PUSH1 0x88 SHL PUSH1 0x44 DUP3 ADD MSTORE PUSH1 0x64 ADD PUSH2 0x787 JUMP JUMPDEST PUSH2 0x1C76 PUSH0 DUP4 DUP4 PUSH2 0x5401 JUMP JUMPDEST PUSH1 0x1 PUSH1 0x1 PUSH1 0xA0 SHL SUB DUP2 DUP2 AND PUSH0 SWAP1 DUP2 MSTORE PUSH1 0x4 PUSH1 0x20 MSTORE PUSH1 0x40 DUP2 KECCAK256 SLOAD SWAP1 SWAP2 AND ISZERO DUP1 ISZERO SWAP1 PUSH2 0x1163 JUMPI POP PUSH1 0x1 PUSH1 0x1 PUSH1 0x1 PUSH1 0xA0 SHL SUB DUP4 AND PUSH0 SWAP1 DUP2 MSTORE PUSH1 0x4 PUSH1 0x20 MSTORE PUSH1 0x40 SWAP1 KECCAK256 PUSH1 0x2 ADD SLOAD PUSH2 0x100 SWAP1 DIV PUSH1 0xFF AND PUSH1 0x3 DUP2 GT ISZERO PUSH2 0x1D62 JUMPI PUSH2 0x1D62 PUSH2 0x6B58 JUMP JUMPDEST EQ SWAP3 SWAP2 POP POP JUMP JUMPDEST PUSH1 0x18 SLOAD PUSH1 0x1 PUSH1 0x1 PUSH1 0xA0 SHL SUB AND CALLER EQ PUSH2 0x1D93 JUMPI PUSH1 0x40 MLOAD PUSH3 0x461BCD PUSH1 0xE5 SHL DUP2 MSTORE PUSH1 0x4 ADD PUSH2 0x787 SWAP1 PUSH2 0x6F91 JUMP JUMPDEST PUSH1 0x17 SLOAD PUSH1 0x40 MLOAD PUSH4 0x70A08231 PUSH1 0xE0 SHL DUP2 MSTORE PUSH1 0x1 PUSH1 0x1 PUSH1 0xA0 SHL SUB SWAP1 SWAP2 AND SWAP1 PUSH4 0x70A08231 SWAP1 PUSH2 0x1DC3 SWAP1 ADDRESS SWAP1 PUSH1 0x4 ADD PUSH2 0x6D5F JUMP JUMPDEST PUSH1 0x20 PUSH1 0x40 MLOAD DUP1 DUP4 SUB DUP2 DUP7 GAS STATICCALL ISZERO DUP1 ISZERO PUSH2 0x1DDE JUMPI RETURNDATASIZE PUSH0 DUP1 RETURNDATACOPY RETURNDATASIZE PUSH0 REVERT JUMPDEST POP POP POP POP PUSH1 0x40 MLOAD RETURNDATASIZE PUSH1 0x1F NOT PUSH1 0x1F DUP3 ADD AND DUP3 ADD DUP1 PUSH1 0x40 MSTORE POP DUP2 ADD SWAP1 PUSH2 0x1E02 SWAP2 SWAP1 PUSH2 0x73A7 JUMP JUMPDEST DUP2 GT ISZERO PUSH2 0x1E4A JUMPI PUSH1 0x40 MLOAD PUSH3 0x461BCD PUSH1 0xE5 SHL DUP2 MSTORE PUSH1 0x20 PUSH1 0x4 DUP3 ADD MSTORE PUSH1 0x16 PUSH1 0x24 DUP3 ADD MSTORE PUSH22 0x616D6F756E74206973206F7665722062616C616E6365 PUSH1 0x50 SHL PUSH1 0x44 DUP3 ADD MSTORE PUSH1 0x64 ADD PUSH2 0x787 JUMP JUMPDEST PUSH1 0x17 SLOAD PUSH1 0x16 SLOAD PUSH1 0x40 MLOAD PUSH4 0x95EA7B3 PUSH1 0xE0 SHL DUP2 MSTORE PUSH1 0x1 PUSH1 0x1 PUSH1 0xA0 SHL SUB SWAP3 DUP4 AND SWAP3 PUSH4 0x95EA7B3 SWAP3 PUSH2 0x1E80 SWAP3 SWAP2 AND SWAP1 DUP6 SWAP1 PUSH1 0x4 ADD PUSH2 0x73BE JUMP JUMPDEST PUSH1 0x20 PUSH1 0x40 MLOAD DUP1 DUP4 SUB DUP2 PUSH0 DUP8 GAS CALL ISZERO DUP1 ISZERO PUSH2 0x1E9C JUMPI RETURNDATASIZE PUSH0 DUP1 RETURNDATACOPY RETURNDATASIZE PUSH0 REVERT JUMPDEST POP POP POP POP PUSH1 0x40 MLOAD RETURNDATASIZE PUSH1 0x1F NOT PUSH1 0x1F DUP3 ADD AND DUP3 ADD DUP1 PUSH1 0x40 MSTORE POP DUP2 ADD SWAP1 PUSH2 0x1EC0 SWAP2 SWAP1 PUSH2 0x73D7 JUMP JUMPDEST POP PUSH1 0x16 SLOAD PUSH1 0x40 MLOAD PUSH4 0x53F29F7 PUSH1 0xE3 SHL DUP2 MSTORE PUSH1 0x4 DUP2 ADD DUP4 SWAP1 MSTORE PUSH1 0x1 PUSH1 0x1 PUSH1 0xA0 SHL SUB SWAP1 SWAP2 AND SWAP1 PUSH4 0x29F94FB8 SWAP1 PUSH1 0x24 ADD PUSH0 PUSH1 0x40 MLOAD DUP1 DUP4 SUB DUP2 PUSH0 DUP8 DUP1 EXTCODESIZE ISZERO DUP1 ISZERO PUSH2 0x1F04 JUMPI PUSH0 DUP1 REVERT JUMPDEST POP GAS CALL ISZERO DUP1 ISZERO PUSH2 0x1A80 JUMPI RETURNDATASIZE PUSH0 DUP1 RETURNDATACOPY RETURNDATASIZE PUSH0 REVERT JUMPDEST CALLER ORIGIN EQ PUSH2 0x1F35 JUMPI PUSH1 0x40 MLOAD PUSH3 0x461BCD PUSH1 0xE5 SHL DUP2 MSTORE PUSH1 0x4 ADD PUSH2 0x787 SWAP1 PUSH2 0x702C JUMP JUMPDEST PUSH1 0x11 SLOAD PUSH2 0x100 SWAP1 DIV PUSH1 0xFF AND ISZERO PUSH2 0x1F5D JUMPI PUSH1 0x40 MLOAD PUSH3 0x461BCD PUSH1 0xE5 SHL DUP2 MSTORE PUSH1 0x4 ADD PUSH2 0x787 SWAP1 PUSH2 0x70F4 JUMP JUMPDEST PUSH1 0x1 PUSH1 0x1 PUSH1 0xA0 SHL SUB DUP5 DUP2 AND PUSH0 SWAP1 DUP2 MSTORE PUSH1 0x12 PUSH1 0x20 MSTORE PUSH1 0x40 SWAP1 KECCAK256 SLOAD AND PUSH2 0x1FB6 JUMPI PUSH1 0x40 MLOAD PUSH3 0x461BCD PUSH1 0xE5 SHL DUP2 MSTORE PUSH1 0x20 PUSH1 0x4 DUP3 ADD MSTORE PUSH1 0x10 PUSH1 0x24 DUP3 ADD MSTORE PUSH16 0x55736572206E6F742070656E64696E67 PUSH1 0x80 SHL PUSH1 0x44 DUP3 ADD MSTORE PUSH1 0x64 ADD PUSH2 0x787 JUMP JUMPDEST PUSH1 0x1 PUSH1 0x1 PUSH1 0xA0 SHL SUB DUP5 AND PUSH0 SWAP1 DUP2 MSTORE PUSH1 0x12 PUSH1 0x20 MSTORE PUSH1 0x40 SWAP1 KECCAK256 PUSH1 0x1 ADD SLOAD TIMESTAMP GT ISZERO PUSH2 0x2015 JUMPI PUSH1 0x40 MLOAD PUSH3 0x461BCD PUSH1 0xE5 SHL DUP2 MSTORE PUSH1 0x20 PUSH1 0x4 DUP3 ADD MSTORE PUSH1 0x12 PUSH1 0x24 DUP3 ADD MSTORE PUSH18 0x13595B58995C9CDA1A5C08195E1C1A5C9959 PUSH1 0x72 SHL PUSH1 0x44 DUP3 ADD MSTORE PUSH1 0x64 ADD PUSH2 0x787 JUMP JUMPDEST PUSH1 0x1 PUSH1 0x1 PUSH1 0xA0 SHL SUB DUP1 DUP6 AND PUSH0 SWAP1 DUP2 MSTORE PUSH1 0x12 PUSH1 0x20 SWAP1 DUP2 MSTORE PUSH1 0x40 DUP1 DUP4 KECCAK256 SLOAD DUP5 AND DUP1 DUP5 MSTORE PUSH1 0x4 SWAP1 SWAP3 MSTORE SWAP1 SWAP2 KECCAK256 SLOAD SWAP1 SWAP2 AND ISZERO ISZERO DUP1 PUSH2 0x205C JUMPI POP PUSH1 0x14 SLOAD PUSH1 0x1 PUSH1 0x1 PUSH1 0xA0 SHL SUB DUP3 DUP2 AND SWAP2 AND EQ JUMPDEST PUSH2 0x2078 JUMPI PUSH1 0x40 MLOAD PUSH3 0x461BCD PUSH1 0xE5 SHL DUP2 MSTORE PUSH1 0x4 ADD PUSH2 0x787 SWAP1 PUSH2 0x717D JUMP JUMPDEST PUSH1 0x17 SLOAD PUSH2 0x2093 SWAP1 PUSH1 0x1 PUSH1 0x1 PUSH1 0xA0 SHL SUB AND DUP4 PUSH4 0x2625A00 PUSH2 0x4380 JUMP JUMPDEST PUSH1 0x1 PUSH1 0x1 PUSH1 0xA0 SHL SUB DUP6 AND PUSH0 SWAP1 DUP2 MSTORE PUSH1 0x12 PUSH1 0x20 MSTORE PUSH1 0x40 DUP2 KECCAK256 DUP1 SLOAD PUSH1 0x1 PUSH1 0x1 PUSH1 0xA0 SHL SUB NOT AND DUP2 SSTORE PUSH1 0x1 ADD DUP2 SWAP1 SSTORE JUMPDEST PUSH1 0x1 PUSH1 0x1 PUSH1 0xA0 SHL SUB DUP3 AND PUSH0 SWAP1 DUP2 MSTORE PUSH1 0x13 PUSH1 0x20 MSTORE PUSH1 0x40 SWAP1 KECCAK256 SLOAD DUP2 LT ISZERO PUSH2 0x2207 JUMPI PUSH1 0x1 PUSH1 0x1 PUSH1 0xA0 SHL SUB DUP3 DUP2 AND PUSH0 SWAP1 DUP2 MSTORE PUSH1 0x13 PUSH1 0x20 MSTORE PUSH1 0x40 SWAP1 KECCAK256 DUP1 SLOAD SWAP2 DUP9 AND SWAP2 DUP4 SWAP1 DUP2 LT PUSH2 0x210C JUMPI PUSH2 0x210C PUSH2 0x709B JUMP JUMPDEST PUSH0 SWAP2 DUP3 MSTORE PUSH1 0x20 SWAP1 SWAP2 KECCAK256 ADD SLOAD PUSH1 0x1 PUSH1 0x1 PUSH1 0xA0 SHL SUB AND SUB PUSH2 0x21FF JUMPI PUSH1 0x1 PUSH1 0x1 PUSH1 0xA0 SHL SUB DUP3 AND PUSH0 SWAP1 DUP2 MSTORE PUSH1 0x13 PUSH1 0x20 MSTORE PUSH1 0x40 SWAP1 KECCAK256 DUP1 SLOAD PUSH2 0x214A SWAP1 PUSH1 0x1 SWAP1 PUSH2 0x7088 JUMP JUMPDEST DUP2 SLOAD DUP2 LT PUSH2 0x215A JUMPI PUSH2 0x215A PUSH2 0x709B JUMP JUMPDEST PUSH0 SWAP2 DUP3 MSTORE PUSH1 0x20 DUP1 DUP4 KECCAK256 SWAP1 SWAP2 ADD SLOAD PUSH1 0x1 PUSH1 0x1 PUSH1 0xA0 SHL SUB DUP6 DUP2 AND DUP5 MSTORE PUSH1 0x13 SWAP1 SWAP3 MSTORE PUSH1 0x40 SWAP1 SWAP3 KECCAK256 DUP1 SLOAD SWAP2 SWAP1 SWAP3 AND SWAP2 SWAP1 DUP4 SWAP1 DUP2 LT PUSH2 0x2196 JUMPI PUSH2 0x2196 PUSH2 0x709B JUMP JUMPDEST PUSH0 SWAP2 DUP3 MSTORE PUSH1 0x20 DUP1 DUP4 KECCAK256 SWAP2 SWAP1 SWAP2 ADD DUP1 SLOAD PUSH1 0x1 PUSH1 0x1 PUSH1 0xA0 SHL SUB NOT AND PUSH1 0x1 PUSH1 0x1 PUSH1 0xA0 SHL SUB SWAP5 DUP6 AND OR SWAP1 SSTORE SWAP2 DUP5 AND DUP2 MSTORE PUSH1 0x13 SWAP1 SWAP2 MSTORE PUSH1 0x40 SWAP1 KECCAK256 DUP1 SLOAD DUP1 PUSH2 0x21DA JUMPI PUSH2 0x21DA PUSH2 0x73F2 JUMP JUMPDEST PUSH0 DUP3 DUP2 MSTORE PUSH1 0x20 SWAP1 KECCAK256 DUP2 ADD PUSH0 NOT SWAP1 DUP2 ADD DUP1 SLOAD PUSH1 0x1 PUSH1 0x1 PUSH1 0xA0 SHL SUB NOT AND SWAP1 SSTORE ADD SWAP1 SSTORE PUSH2 0x2207 JUMP JUMPDEST PUSH1 0x1 ADD PUSH2 0x20BF JUMP JUMPDEST POP PUSH1 0x11 SLOAD PUSH1 0xFF AND ISZERO PUSH2 0x22E1 JUMPI PUSH1 0x40 DUP1 MLOAD PUSH1 0xA0 DUP2 ADD DUP3 MSTORE PUSH1 0x1 PUSH1 0x1 PUSH1 0xA0 SHL SUB DUP1 DUP9 AND DUP3 MSTORE SWAP3 DUP4 AND PUSH1 0x20 DUP3 ADD SWAP1 DUP2 MSTORE SWAP2 DUP2 ADD DUP7 DUP2 MSTORE PUSH1 0x60 DUP3 ADD DUP7 DUP2 MSTORE PUSH1 0x80 DUP4 ADD DUP7 DUP2 MSTORE PUSH1 0xF DUP1 SLOAD PUSH1 0x1 DUP2 ADD DUP3 SSTORE PUSH0 SWAP2 SWAP1 SWAP2 MSTORE SWAP4 MLOAD PUSH1 0x5 SWAP1 SWAP5 MUL PUSH0 DUP1 MLOAD PUSH1 0x20 PUSH2 0x79D4 DUP4 CODECOPY DUP2 MLOAD SWAP2 MSTORE DUP2 ADD DUP1 SLOAD SWAP6 DUP9 AND PUSH1 0x1 PUSH1 0x1 PUSH1 0xA0 SHL SUB NOT SWAP7 DUP8 AND OR SWAP1 SSTORE SWAP5 MLOAD PUSH0 DUP1 MLOAD PUSH1 0x20 PUSH2 0x79B4 DUP4 CODECOPY DUP2 MLOAD SWAP2 MSTORE DUP7 ADD DUP1 SLOAD SWAP2 SWAP1 SWAP8 AND SWAP5 AND SWAP4 SWAP1 SWAP4 OR SWAP1 SWAP5 SSTORE MLOAD PUSH0 DUP1 MLOAD PUSH1 0x20 PUSH2 0x7994 DUP4 CODECOPY DUP2 MLOAD SWAP2 MSTORE DUP4 ADD SSTORE SWAP2 MLOAD PUSH0 DUP1 MLOAD PUSH1 0x20 PUSH2 0x7974 DUP4 CODECOPY DUP2 MLOAD SWAP2 MSTORE DUP3 ADD SSTORE SWAP1 MLOAD PUSH0 DUP1 MLOAD PUSH1 0x20 PUSH2 0x7954 DUP4 CODECOPY DUP2 MLOAD SWAP2 MSTORE SWAP1 SWAP2 ADD SSTORE PUSH2 0x22F6 JUMP JUMPDEST PUSH2 0x22E9 PUSH2 0x4C14 JUMP JUMPDEST PUSH2 0x1A80 DUP6 DUP3 DUP7 DUP7 DUP7 PUSH2 0x4DB5 JUMP JUMPDEST POP POP POP POP JUMP JUMPDEST PUSH1 0x1 PUSH1 0x1 PUSH1 0xA0 SHL SUB DUP2 DUP2 AND PUSH0 SWAP1 DUP2 MSTORE PUSH1 0x4 PUSH1 0x20 MSTORE PUSH1 0x40 DUP2 KECCAK256 SLOAD SWAP1 SWAP2 AND ISZERO ISZERO DUP1 PUSH2 0x233D JUMPI POP PUSH1 0x1 PUSH1 0x1 PUSH1 0xA0 SHL SUB DUP3 DUP2 AND PUSH0 SWAP1 DUP2 MSTORE PUSH1 0x12 PUSH1 0x20 MSTORE PUSH1 0x40 SWAP1 KECCAK256 SLOAD AND ISZERO ISZERO JUMPDEST DUP1 PUSH2 0x1163 JUMPI POP POP PUSH1 0x14 SLOAD PUSH1 0x1 PUSH1 0x1 PUSH1 0xA0 SHL SUB SWAP1 DUP2 AND SWAP2 AND EQ SWAP1 JUMP JUMPDEST PUSH1 0x18 SLOAD PUSH1 0x1 PUSH1 0x1 PUSH1 0xA0 SHL SUB AND CALLER EQ PUSH2 0x2382 JUMPI PUSH1 0x40 MLOAD PUSH3 0x461BCD PUSH1 0xE5 SHL DUP2 MSTORE PUSH1 0x4 ADD PUSH2 0x787 SWAP1 PUSH2 0x6F91 JUMP JUMPDEST PUSH1 0x1E DUP1 SLOAD PUSH1 0x1 PUSH1 0x1 PUSH1 0xA0 SHL SUB NOT AND PUSH1 0x1 PUSH1 0x1 PUSH1 0xA0 SHL SUB SWAP3 SWAP1 SWAP3 AND SWAP2 SWAP1 SWAP2 OR SWAP1 SSTORE JUMP JUMPDEST PUSH1 0x60 CALLER ORIGIN EQ PUSH2 0x23C5 JUMPI PUSH1 0x40 MLOAD PUSH3 0x461BCD PUSH1 0xE5 SHL DUP2 MSTORE PUSH1 0x4 ADD PUSH2 0x787 SWAP1 PUSH2 0x702C JUMP JUMPDEST PUSH0 DUP3 GT DUP1 ISZERO PUSH2 0x23D5 JUMPI POP PUSH1 0x32 DUP3 GT ISZERO JUMPDEST PUSH2 0x242B JUMPI PUSH1 0x40 MLOAD PUSH3 0x461BCD PUSH1 0xE5 SHL DUP2 MSTORE PUSH1 0x20 PUSH1 0x4 DUP3 ADD MSTORE PUSH1 0x21 PUSH1 0x24 DUP3 ADD MSTORE PUSH32 0x7061676553697A65206D757374206265206265747765656E203120616E642035 PUSH1 0x44 DUP3 ADD MSTORE PUSH1 0x3 PUSH1 0xFC SHL PUSH1 0x64 DUP3 ADD MSTORE PUSH1 0x84 ADD PUSH2 0x787 JUMP JUMPDEST PUSH1 0x1 PUSH1 0x1 PUSH1 0xA0 SHL SUB DUP5 AND PUSH0 SWAP1 DUP2 MSTORE PUSH1 0x13 PUSH1 0x20 MSTORE PUSH1 0x40 SWAP1 KECCAK256 SLOAD DUP1 DUP5 LT PUSH2 0x245F JUMPI POP POP PUSH1 0x40 DUP1 MLOAD PUSH0 DUP2 MSTORE PUSH1 0x20 DUP2 ADD SWAP1 SWAP2 MSTORE PUSH2 0x1AF8 JUMP JUMPDEST PUSH0 PUSH2 0x246A DUP5 DUP7 PUSH2 0x7075 JUMP JUMPDEST SWAP1 POP DUP2 DUP2 GT ISZERO PUSH2 0x2477 JUMPI POP DUP1 JUMPDEST PUSH0 PUSH2 0x2482 DUP7 DUP4 PUSH2 0x7088 JUMP JUMPDEST PUSH1 0x1 PUSH1 0x1 PUSH1 0x40 SHL SUB DUP2 GT ISZERO PUSH2 0x2499 JUMPI PUSH2 0x2499 PUSH2 0x6932 JUMP JUMPDEST PUSH1 0x40 MLOAD SWAP1 DUP1 DUP3 MSTORE DUP1 PUSH1 0x20 MUL PUSH1 0x20 ADD DUP3 ADD PUSH1 0x40 MSTORE DUP1 ISZERO PUSH2 0x24C2 JUMPI DUP2 PUSH1 0x20 ADD PUSH1 0x20 DUP3 MUL DUP1 CALLDATASIZE DUP4 CALLDATACOPY ADD SWAP1 POP JUMPDEST POP SWAP1 POP PUSH0 DUP7 JUMPDEST DUP4 DUP2 LT ISZERO PUSH2 0x2553 JUMPI PUSH1 0x1 PUSH1 0x1 PUSH1 0xA0 SHL SUB DUP10 AND PUSH0 SWAP1 DUP2 MSTORE PUSH1 0x13 PUSH1 0x20 MSTORE PUSH1 0x40 SWAP1 KECCAK256 DUP1 SLOAD DUP3 SWAP1 DUP2 LT PUSH2 0x24F9 JUMPI PUSH2 0x24F9 PUSH2 0x709B JUMP JUMPDEST SWAP1 PUSH0 MSTORE PUSH1 0x20 PUSH0 KECCAK256 ADD PUSH0 SWAP1 SLOAD SWAP1 PUSH2 0x100 EXP SWAP1 DIV PUSH1 0x1 PUSH1 0x1 PUSH1 0xA0 SHL SUB AND DUP4 DUP4 DUP2 MLOAD DUP2 LT PUSH2 0x2526 JUMPI PUSH2 0x2526 PUSH2 0x709B JUMP JUMPDEST PUSH1 0x1 PUSH1 0x1 PUSH1 0xA0 SHL SUB SWAP1 SWAP3 AND PUSH1 0x20 SWAP3 DUP4 MUL SWAP2 SWAP1 SWAP2 ADD SWAP1 SWAP2 ADD MSTORE DUP2 PUSH2 0x2548 DUP2 PUSH2 0x70DC JUMP JUMPDEST SWAP3 POP POP PUSH1 0x1 ADD PUSH2 0x24C8 JUMP JUMPDEST POP SWAP1 SWAP8 SWAP7 POP POP POP POP POP POP POP JUMP JUMPDEST PUSH1 0x18 SLOAD PUSH1 0x1 PUSH1 0x1 PUSH1 0xA0 SHL SUB AND CALLER EQ PUSH2 0x258A JUMPI PUSH1 0x40 MLOAD PUSH3 0x461BCD PUSH1 0xE5 SHL DUP2 MSTORE PUSH1 0x4 ADD PUSH2 0x787 SWAP1 PUSH2 0x6F91 JUMP JUMPDEST PUSH1 0x11 SLOAD PUSH1 0xFF AND ISZERO PUSH2 0x25DB JUMPI PUSH1 0x40 MLOAD PUSH3 0x461BCD PUSH1 0xE5 SHL DUP2 MSTORE PUSH1 0x20 PUSH1 0x4 DUP3 ADD MSTORE PUSH1 0x1B PUSH1 0x24 DUP3 ADD MSTORE PUSH27 0x42617463682070726F63657373696E672069732072756E6E696E67 PUSH1 0x28 SHL PUSH1 0x44 DUP3 ADD MSTORE PUSH1 0x64 ADD PUSH2 0x787 JUMP JUMPDEST PUSH1 0x11 DUP1 SLOAD SWAP2 ISZERO ISZERO PUSH2 0x100 MUL PUSH2 0xFF00 NOT SWAP1 SWAP3 AND SWAP2 SWAP1 SWAP2 OR SWAP1 SSTORE JUMP JUMPDEST CALLER ORIGIN EQ PUSH2 0x2614 JUMPI PUSH1 0x40 MLOAD PUSH3 0x461BCD PUSH1 0xE5 SHL DUP2 MSTORE PUSH1 0x4 ADD PUSH2 0x787 SWAP1 PUSH2 0x702C JUMP JUMPDEST PUSH1 0x11 SLOAD PUSH2 0x100 SWAP1 DIV PUSH1 0xFF AND ISZERO PUSH2 0x263C JUMPI PUSH1 0x40 MLOAD PUSH3 0x461BCD PUSH1 0xE5 SHL DUP2 MSTORE PUSH1 0x4 ADD PUSH2 0x787 SWAP1 PUSH2 0x70F4 JUMP JUMPDEST PUSH1 0x1 PUSH1 0x1 PUSH1 0xA0 SHL SUB DUP3 DUP2 AND PUSH0 SWAP1 DUP2 MSTORE PUSH1 0x12 PUSH1 0x20 MSTORE PUSH1 0x40 SWAP1 KECCAK256 SLOAD AND PUSH2 0x26FC JUMPI PUSH1 0x1 PUSH1 0x1 PUSH1 0xA0 SHL SUB DUP3 DUP2 AND PUSH0 SWAP1 DUP2 MSTORE PUSH1 0x4 PUSH1 0x20 MSTORE PUSH1 0x40 SWAP1 KECCAK256 SLOAD AND PUSH2 0x2690 JUMPI PUSH1 0x40 MLOAD PUSH3 0x461BCD PUSH1 0xE5 SHL DUP2 MSTORE PUSH1 0x4 ADD PUSH2 0x787 SWAP1 PUSH2 0x737A JUMP JUMPDEST PUSH1 0x1 PUSH1 0x1 PUSH1 0xA0 SHL SUB DUP3 AND PUSH0 SWAP1 DUP2 MSTORE PUSH1 0x5 PUSH1 0x20 MSTORE PUSH1 0x40 SWAP1 KECCAK256 SLOAD TIMESTAMP GT ISZERO PUSH2 0x26F7 JUMPI PUSH1 0x40 MLOAD PUSH3 0x461BCD PUSH1 0xE5 SHL DUP2 MSTORE PUSH1 0x20 PUSH1 0x4 DUP3 ADD DUP2 SWAP1 MSTORE PUSH1 0x24 DUP3 ADD MSTORE PUSH32 0x4D656D6265727368697020657870697265642C2063616E6E6F742072656E6577 PUSH1 0x44 DUP3 ADD MSTORE PUSH1 0x64 ADD PUSH2 0x787 JUMP JUMPDEST PUSH2 0x275A JUMP JUMPDEST PUSH1 0x1 PUSH1 0x1 PUSH1 0xA0 SHL SUB DUP3 DUP2 AND PUSH0 SWAP1 DUP2 MSTORE PUSH1 0x4 PUSH1 0x20 MSTORE PUSH1 0x40 SWAP1 KECCAK256 SLOAD AND ISZERO PUSH2 0x275A JUMPI PUSH1 0x40 MLOAD PUSH3 0x461BCD PUSH1 0xE5 SHL DUP2 MSTORE PUSH1 0x20 PUSH1 0x4 DUP3 ADD MSTORE PUSH1 0x14 PUSH1 0x24 DUP3 ADD MSTORE PUSH20 0x557365722077726F6E6720737472756374757265 PUSH1 0x60 SHL PUSH1 0x44 DUP3 ADD MSTORE PUSH1 0x64 ADD PUSH2 0x787 JUMP JUMPDEST PUSH1 0x17 SLOAD PUSH2 0x2775 SWAP1 PUSH1 0x1 PUSH1 0x1 PUSH1 0xA0 SHL SUB AND DUP3 PUSH4 0x7270E00 PUSH2 0x4380 JUMP JUMPDEST PUSH1 0x1 PUSH1 0x1 PUSH1 0xA0 SHL SUB DUP3 AND PUSH0 SWAP1 DUP2 MSTORE PUSH1 0x5 PUSH1 0x20 MSTORE PUSH1 0x40 DUP2 KECCAK256 DUP1 SLOAD PUSH4 0x1E13380 SWAP3 SWAP1 PUSH2 0x27A0 SWAP1 DUP5 SWAP1 PUSH2 0x7075 JUMP JUMPDEST SWAP1 SWAP2 SSTORE POP PUSH2 0x27B2 SWAP1 POP DUP3 PUSH1 0x64 DUP4 PUSH2 0x459C JUMP JUMPDEST PUSH1 0x1B SLOAD PUSH1 0x16 SLOAD PUSH1 0x1 PUSH1 0x1 PUSH1 0xA0 SHL SUB SWAP2 DUP3 AND SWAP2 PUSH4 0xE115DC7F SWAP2 AND DUP4 PUSH1 0x64 PUSH2 0x27DF PUSH3 0xF4240 PUSH4 0x7270E00 PUSH2 0x723F JUMP JUMPDEST PUSH2 0x27E9 SWAP2 SWAP1 PUSH2 0x7088 JUMP JUMPDEST PUSH1 0x1 PUSH1 0x2 PUSH1 0x40 MLOAD DUP7 PUSH4 0xFFFFFFFF AND PUSH1 0xE0 SHL DUP2 MSTORE PUSH1 0x4 ADD PUSH2 0x280D SWAP6 SWAP5 SWAP4 SWAP3 SWAP2 SWAP1 PUSH2 0x7252 JUMP JUMPDEST PUSH0 PUSH1 0x40 MLOAD DUP1 DUP4 SUB DUP2 PUSH0 DUP8 DUP1 EXTCODESIZE ISZERO DUP1 ISZERO PUSH2 0x2824 JUMPI PUSH0 DUP1 REVERT JUMPDEST POP GAS CALL ISZERO DUP1 ISZERO PUSH2 0x2836 JUMPI RETURNDATASIZE PUSH0 DUP1 RETURNDATACOPY RETURNDATASIZE PUSH0 REVERT JUMPDEST POP POP POP POP POP POP JUMP JUMPDEST PUSH1 0x18 SLOAD PUSH1 0x1 PUSH1 0x1 PUSH1 0xA0 SHL SUB AND CALLER EQ PUSH2 0x2868 JUMPI PUSH1 0x40 MLOAD PUSH3 0x461BCD PUSH1 0xE5 SHL DUP2 MSTORE PUSH1 0x4 ADD PUSH2 0x787 SWAP1 PUSH2 0x6F91 JUMP JUMPDEST PUSH1 0x3 SLOAD DUP3 LT PUSH2 0x2889 JUMPI PUSH1 0x40 MLOAD PUSH3 0x461BCD PUSH1 0xE5 SHL DUP2 MSTORE PUSH1 0x4 ADD PUSH2 0x787 SWAP1 PUSH2 0x70AF JUMP JUMPDEST PUSH2 0x2894 PUSH1 0x2 PUSH0 PUSH2 0x67C6 JUMP JUMPDEST PUSH1 0x3 SLOAD PUSH0 SWAP1 PUSH2 0x28A3 DUP4 DUP6 PUSH2 0x7075 JUMP JUMPDEST GT PUSH2 0x28B7 JUMPI PUSH2 0x28B2 DUP3 DUP5 PUSH2 0x7075 JUMP JUMPDEST PUSH2 0x28BB JUMP JUMPDEST PUSH1 0x3 SLOAD JUMPDEST SWAP1 POP DUP3 JUMPDEST DUP2 DUP2 LT ISZERO PUSH2 0x29DC JUMPI PUSH0 PUSH1 0x3 DUP3 DUP2 SLOAD DUP2 LT PUSH2 0x28DB JUMPI PUSH2 0x28DB PUSH2 0x709B JUMP JUMPDEST PUSH0 SWAP2 DUP3 MSTORE PUSH1 0x20 DUP1 DUP4 KECCAK256 SWAP1 SWAP2 ADD SLOAD PUSH1 0x1 PUSH1 0x1 PUSH1 0xA0 SHL SUB AND DUP1 DUP4 MSTORE PUSH1 0x7 SWAP1 SWAP2 MSTORE PUSH1 0x40 DUP3 KECCAK256 SLOAD SWAP1 SWAP3 POP PUSH1 0x1 GT ISZERO DUP1 PUSH2 0x2929 JUMPI POP PUSH1 0x1 PUSH1 0x1 PUSH1 0xA0 SHL SUB DUP3 AND PUSH0 SWAP1 DUP2 MSTORE PUSH1 0xA PUSH1 0x20 DUP2 SWAP1 MSTORE PUSH1 0x40 SWAP1 SWAP2 KECCAK256 SLOAD LT ISZERO JUMPDEST DUP1 PUSH2 0x294C JUMPI POP PUSH1 0x1 PUSH1 0x1 PUSH1 0xA0 SHL SUB DUP3 AND PUSH0 SWAP1 DUP2 MSTORE PUSH1 0x8 PUSH1 0x20 MSTORE PUSH1 0x40 SWAP1 KECCAK256 SLOAD PUSH1 0x64 GT ISZERO JUMPDEST ISZERO PUSH2 0x2955 JUMPI POP PUSH1 0x1 JUMPDEST DUP1 PUSH2 0x2998 JUMPI PUSH1 0x1 PUSH1 0x1 PUSH1 0xA0 SHL SUB DUP3 AND PUSH0 SWAP1 DUP2 MSTORE PUSH1 0x4 PUSH1 0x20 MSTORE PUSH1 0x40 DUP2 KECCAK256 PUSH1 0x2 ADD DUP1 SLOAD PUSH2 0xFF00 NOT AND PUSH2 0x100 DUP4 MUL OR SWAP1 SSTORE POP PUSH2 0x2993 PUSH1 0x4 PUSH1 0x5 PUSH1 0x2 DUP6 PUSH2 0x5467 JUMP JUMPDEST PUSH2 0x29A5 JUMP JUMPDEST PUSH2 0x29A5 PUSH1 0x4 PUSH1 0xC DUP5 PUSH2 0x42FF JUMP JUMPDEST POP PUSH1 0x1 PUSH1 0x1 PUSH1 0xA0 SHL SUB AND PUSH0 SWAP1 DUP2 MSTORE PUSH1 0x7 PUSH1 0x20 SWAP1 DUP2 MSTORE PUSH1 0x40 DUP1 DUP4 KECCAK256 DUP4 SWAP1 SSTORE PUSH1 0xA DUP3 MSTORE DUP1 DUP4 KECCAK256 DUP4 SWAP1 SSTORE PUSH1 0x8 SWAP1 SWAP2 MSTORE DUP2 KECCAK256 SSTORE PUSH1 0x1 ADD PUSH2 0x28BF JUMP JUMPDEST POP PUSH0 JUMPDEST PUSH1 0x21 SLOAD DUP2 LT ISZERO PUSH2 0x2A29 JUMPI PUSH1 0x20 PUSH0 PUSH1 0x21 DUP4 DUP2 SLOAD DUP2 LT PUSH2 0x29FF JUMPI PUSH2 0x29FF PUSH2 0x709B JUMP JUMPDEST PUSH0 SWAP2 DUP3 MSTORE PUSH1 0x20 DUP1 DUP4 KECCAK256 SWAP1 SWAP2 ADD SLOAD DUP4 MSTORE DUP3 ADD SWAP3 SWAP1 SWAP3 MSTORE PUSH1 0x40 ADD SWAP1 KECCAK256 DUP1 SLOAD PUSH1 0xFF NOT AND SWAP1 SSTORE PUSH1 0x1 ADD PUSH2 0x29DF JUMP JUMPDEST POP PUSH2 0x8CE PUSH1 0x21 PUSH0 PUSH2 0x67C6 JUMP JUMPDEST PUSH2 0x2A7B PUSH1 0x40 MLOAD DUP1 PUSH2 0x120 ADD PUSH1 0x40 MSTORE DUP1 PUSH0 DUP2 MSTORE PUSH1 0x20 ADD PUSH0 DUP2 MSTORE PUSH1 0x20 ADD PUSH0 DUP2 MSTORE PUSH1 0x20 ADD PUSH0 DUP2 MSTORE PUSH1 0x20 ADD PUSH0 DUP2 MSTORE PUSH1 0x20 ADD PUSH0 DUP2 MSTORE PUSH1 0x20 ADD PUSH0 DUP2 MSTORE PUSH1 0x20 ADD PUSH0 DUP2 MSTORE PUSH1 0x20 ADD PUSH0 DUP2 MSTORE POP SWAP1 JUMP JUMPDEST PUSH1 0x1B SLOAD PUSH1 0x40 MLOAD PUSH4 0x316F085F PUSH1 0xE0 SHL DUP2 MSTORE PUSH1 0x1 PUSH1 0x1 PUSH1 0xA0 SHL SUB SWAP1 SWAP2 AND SWAP1 PUSH4 0x316F085F SWAP1 PUSH2 0x2AAF SWAP1 DUP8 SWAP1 DUP8 SWAP1 DUP8 SWAP1 PUSH1 0x4 ADD PUSH2 0x7285 JUMP JUMPDEST PUSH2 0x120 PUSH1 0x40 MLOAD DUP1 DUP4 SUB DUP2 DUP7 GAS STATICCALL ISZERO DUP1 ISZERO PUSH2 0x2ACB JUMPI RETURNDATASIZE PUSH0 DUP1 RETURNDATACOPY RETURNDATASIZE PUSH0 REVERT JUMPDEST POP POP POP POP PUSH1 0x40 MLOAD RETURNDATASIZE PUSH1 0x1F NOT PUSH1 0x1F DUP3 ADD AND DUP3 ADD DUP1 PUSH1 0x40 MSTORE POP DUP2 ADD SWAP1 PUSH2 0x162F SWAP2 SWAP1 PUSH2 0x7406 JUMP JUMPDEST CALLER ORIGIN EQ PUSH2 0x2B0E JUMPI PUSH1 0x40 MLOAD PUSH3 0x461BCD PUSH1 0xE5 SHL DUP2 MSTORE PUSH1 0x4 ADD PUSH2 0x787 SWAP1 PUSH2 0x702C JUMP JUMPDEST PUSH1 0x11 SLOAD PUSH2 0x100 SWAP1 DIV PUSH1 0xFF AND ISZERO PUSH2 0x2B36 JUMPI PUSH1 0x40 MLOAD PUSH3 0x461BCD PUSH1 0xE5 SHL DUP2 MSTORE PUSH1 0x4 ADD PUSH2 0x787 SWAP1 PUSH2 0x70F4 JUMP JUMPDEST DUP2 PUSH2 0x2B53 JUMPI PUSH1 0x40 MLOAD PUSH3 0x461BCD PUSH1 0xE5 SHL DUP2 MSTORE PUSH1 0x4 ADD PUSH2 0x787 SWAP1 PUSH2 0x747F JUMP JUMPDEST PUSH1 0x1E SLOAD PUSH1 0x40 MLOAD PUSH4 0x7D847097 PUSH1 0xE1 SHL DUP2 MSTORE PUSH1 0x4 DUP2 ADD DUP5 SWAP1 MSTORE PUSH1 0x1 PUSH1 0x1 PUSH1 0xA0 SHL SUB SWAP1 SWAP2 AND SWAP1 PUSH0 SWAP1 DUP3 SWAP1 PUSH4 0xFB08E12E SWAP1 PUSH1 0x24 ADD PUSH1 0x20 PUSH1 0x40 MLOAD DUP1 DUP4 SUB DUP2 DUP7 GAS STATICCALL ISZERO DUP1 ISZERO PUSH2 0x2B9E JUMPI RETURNDATASIZE PUSH0 DUP1 RETURNDATACOPY RETURNDATASIZE PUSH0 REVERT JUMPDEST POP POP POP POP PUSH1 0x40 MLOAD RETURNDATASIZE PUSH1 0x1F NOT PUSH1 0x1F DUP3 ADD AND DUP3 ADD DUP1 PUSH1 0x40 MSTORE POP DUP2 ADD SWAP1 PUSH2 0x2BC2 SWAP2 SWAP1 PUSH2 0x73A7 JUMP JUMPDEST SWAP1 POP DUP1 PUSH0 SUB PUSH2 0x2BE3 JUMPI PUSH1 0x40 MLOAD PUSH3 0x461BCD PUSH1 0xE5 SHL DUP2 MSTORE PUSH1 0x4 ADD PUSH2 0x787 SWAP1 PUSH2 0x74A9 JUMP JUMPDEST PUSH1 0x40 MLOAD PUSH4 0xD09EF241 PUSH1 0xE0 SHL DUP2 MSTORE PUSH1 0x4 DUP2 ADD DUP3 SWAP1 MSTORE PUSH0 SWAP1 PUSH1 0x1 PUSH1 0x1 PUSH1 0xA0 SHL SUB DUP5 AND SWAP1 PUSH4 0xD09EF241 SWAP1 PUSH1 0x24 ADD PUSH0 PUSH1 0x40 MLOAD DUP1 DUP4 SUB DUP2 DUP7 GAS STATICCALL ISZERO DUP1 ISZERO PUSH2 0x2C27 JUMPI RETURNDATASIZE PUSH0 DUP1 RETURNDATACOPY RETURNDATASIZE PUSH0 REVERT JUMPDEST POP POP POP POP PUSH1 0x40 MLOAD RETURNDATASIZE PUSH0 DUP3 RETURNDATACOPY PUSH1 0x1F RETURNDATASIZE SWAP1 DUP2 ADD PUSH1 0x1F NOT AND DUP3 ADD PUSH1 0x40 MSTORE PUSH2 0x2C4E SWAP2 SWAP1 DUP2 ADD SWAP1 PUSH2 0x7538 JUMP JUMPDEST PUSH2 0x160 DUP2 ADD MLOAD SWAP1 SWAP2 POP PUSH0 DUP1 DUP1 JUMPDEST DUP5 PUSH2 0x140 ADD MLOAD MLOAD DUP2 PUSH1 0xFF AND LT ISZERO PUSH2 0x2D3A JUMPI PUSH0 DUP6 PUSH2 0x140 ADD MLOAD DUP3 PUSH1 0xFF AND DUP2 MLOAD DUP2 LT PUSH2 0x2C87 JUMPI PUSH2 0x2C87 PUSH2 0x709B JUMP JUMPDEST PUSH1 0x20 MUL PUSH1 0x20 ADD ADD MLOAD GT PUSH2 0x2CCA JUMPI PUSH1 0x40 MLOAD PUSH3 0x461BCD PUSH1 0xE5 SHL DUP2 MSTORE PUSH1 0x20 PUSH1 0x4 DUP3 ADD MSTORE PUSH1 0xB PUSH1 0x24 DUP3 ADD MSTORE PUSH11 0x1C995DD85C990819985A5B PUSH1 0xAA SHL PUSH1 0x44 DUP3 ADD MSTORE PUSH1 0x64 ADD PUSH2 0x787 JUMP JUMPDEST DUP5 PUSH2 0x140 ADD MLOAD DUP2 PUSH1 0xFF AND DUP2 MLOAD DUP2 LT PUSH2 0x2CE4 JUMPI PUSH2 0x2CE4 PUSH2 0x709B JUMP JUMPDEST PUSH1 0x20 MUL PUSH1 0x20 ADD ADD MLOAD DUP3 PUSH2 0x2CF7 SWAP2 SWAP1 PUSH2 0x7075 JUMP JUMPDEST SWAP2 POP DUP5 PUSH2 0x100 ADD MLOAD DUP2 PUSH1 0xFF AND DUP2 MLOAD DUP2 LT PUSH2 0x2D13 JUMPI PUSH2 0x2D13 PUSH2 0x709B JUMP JUMPDEST PUSH1 0x20 MUL PUSH1 0x20 ADD ADD MLOAD DUP4 PUSH2 0x2D26 SWAP2 SWAP1 PUSH2 0x7075 JUMP JUMPDEST SWAP3 POP DUP1 PUSH2 0x2D32 DUP2 PUSH2 0x774D JUMP JUMPDEST SWAP2 POP POP PUSH2 0x2C5B JUMP JUMPDEST POP PUSH1 0x20 DUP5 ADD MLOAD PUSH1 0x40 DUP6 ADD MLOAD PUSH1 0x1 PUSH1 0x1 PUSH1 0xA0 SHL SUB DUP1 DUP4 AND SWAP2 AND EQ DUP3 PUSH2 0x2D61 PUSH3 0xF4240 DUP8 PUSH2 0x723F JUMP JUMPDEST GT PUSH2 0x2DA1 JUMPI PUSH1 0x40 MLOAD PUSH3 0x461BCD PUSH1 0xE5 SHL DUP2 MSTORE PUSH1 0x20 PUSH1 0x4 DUP3 ADD MSTORE PUSH1 0x10 PUSH1 0x24 DUP3 ADD MSTORE PUSH16 0x2BB937B7339031B7B6B6B4B9B9B4B7B7 PUSH1 0x81 SHL PUSH1 0x44 DUP3 ADD MSTORE PUSH1 0x64 ADD PUSH2 0x787 JUMP JUMPDEST PUSH1 0x1 PUSH1 0x1 PUSH1 0xA0 SHL SUB DUP3 AND PUSH2 0x2DC7 JUMPI PUSH1 0x40 MLOAD PUSH3 0x461BCD PUSH1 0xE5 SHL DUP2 MSTORE PUSH1 0x4 ADD PUSH2 0x787 SWAP1 PUSH2 0x776B JUMP JUMPDEST PUSH0 DUP6 GT PUSH2 0x2DE6 JUMPI PUSH1 0x40 MLOAD PUSH3 0x461BCD PUSH1 0xE5 SHL DUP2 MSTORE PUSH1 0x4 ADD PUSH2 0x787 SWAP1 PUSH2 0x776B JUMP JUMPDEST CALLER DUP2 ISZERO PUSH2 0x2E87 JUMPI PUSH1 0x1 PUSH1 0x1 PUSH1 0xA0 SHL SUB DUP2 DUP2 AND PUSH0 SWAP1 DUP2 MSTORE PUSH1 0x4 PUSH1 0x20 MSTORE PUSH1 0x40 SWAP1 KECCAK256 SLOAD AND ISZERO ISZERO DUP1 PUSH2 0x2E2C JUMPI POP PUSH1 0x1 PUSH1 0x1 PUSH1 0xA0 SHL SUB DUP2 DUP2 AND PUSH0 SWAP1 DUP2 MSTORE PUSH1 0x12 PUSH1 0x20 MSTORE PUSH1 0x40 SWAP1 KECCAK256 SLOAD AND ISZERO ISZERO JUMPDEST PUSH2 0x2E87 JUMPI PUSH1 0x40 MLOAD PUSH3 0x461BCD PUSH1 0xE5 SHL DUP2 MSTORE PUSH1 0x20 PUSH1 0x4 DUP3 ADD MSTORE PUSH1 0x26 PUSH1 0x24 DUP3 ADD MSTORE PUSH32 0x5573657220616C72656164792065786973747320696E20564950206F72205072 PUSH1 0x44 DUP3 ADD MSTORE PUSH6 0x37B6B7BA32B9 PUSH1 0xD1 SHL PUSH1 0x64 DUP3 ADD MSTORE PUSH1 0x84 ADD PUSH2 0x787 JUMP JUMPDEST PUSH1 0x1 PUSH1 0x1 PUSH1 0xA0 SHL SUB DUP2 DUP2 AND PUSH0 SWAP1 DUP2 MSTORE PUSH1 0x4 PUSH1 0x20 MSTORE PUSH1 0x40 SWAP1 KECCAK256 SLOAD AND PUSH2 0x2F36 JUMPI DUP3 SWAP1 POP PUSH2 0x2ED4 PUSH1 0x40 MLOAD DUP1 PUSH1 0x40 ADD PUSH1 0x40 MSTORE DUP1 PUSH1 0xA DUP2 MSTORE PUSH1 0x20 ADD PUSH10 0x3830B932B73A1036309D PUSH1 0xB1 SHL DUP2 MSTORE POP DUP5 PUSH2 0x567C JUMP JUMPDEST PUSH1 0x1 PUSH1 0x1 PUSH1 0xA0 SHL SUB DUP4 DUP2 AND PUSH0 SWAP1 DUP2 MSTORE PUSH1 0x4 PUSH1 0x20 MSTORE PUSH1 0x40 SWAP1 KECCAK256 SLOAD AND PUSH2 0x2F31 JUMPI PUSH1 0x40 MLOAD PUSH3 0x461BCD PUSH1 0xE5 SHL DUP2 MSTORE PUSH1 0x20 PUSH1 0x4 DUP3 ADD MSTORE PUSH1 0x14 PUSH1 0x24 DUP3 ADD MSTORE PUSH20 0x506172656E74206973206E6F7420657869737473 PUSH1 0x60 SHL PUSH1 0x44 DUP3 ADD MSTORE PUSH1 0x64 ADD PUSH2 0x787 JUMP JUMPDEST PUSH2 0x300C JUMP JUMPDEST PUSH1 0x1 PUSH1 0x1 PUSH1 0x1 PUSH1 0xA0 SHL SUB DUP3 AND PUSH0 SWAP1 DUP2 MSTORE PUSH1 0x4 PUSH1 0x20 MSTORE PUSH1 0x40 SWAP1 KECCAK256 PUSH1 0x2 ADD SLOAD PUSH2 0x100 SWAP1 DIV PUSH1 0xFF AND PUSH1 0x3 DUP2 GT ISZERO PUSH2 0x2F6C JUMPI PUSH2 0x2F6C PUSH2 0x6B58 JUMP JUMPDEST EQ PUSH2 0x2FAE JUMPI PUSH1 0x40 MLOAD PUSH3 0x461BCD PUSH1 0xE5 SHL DUP2 MSTORE PUSH1 0x20 PUSH1 0x4 DUP3 ADD MSTORE PUSH1 0x12 PUSH1 0x24 DUP3 ADD MSTORE PUSH18 0x55736572206973206E6F7420616374697665 PUSH1 0x70 SHL PUSH1 0x44 DUP3 ADD MSTORE PUSH1 0x64 ADD PUSH2 0x787 JUMP JUMPDEST PUSH1 0x1 PUSH1 0x1 PUSH1 0xA0 SHL SUB DUP2 DUP2 AND PUSH0 SWAP1 DUP2 MSTORE PUSH1 0x4 PUSH1 0x20 MSTORE PUSH1 0x40 SWAP1 KECCAK256 SLOAD DUP2 AND SWAP1 DUP5 AND EQ PUSH2 0x300C JUMPI PUSH1 0x40 MLOAD PUSH3 0x461BCD PUSH1 0xE5 SHL DUP2 MSTORE PUSH1 0x20 PUSH1 0x4 DUP3 ADD MSTORE PUSH1 0x10 PUSH1 0x24 DUP3 ADD MSTORE PUSH16 0xA0C2E4CADCE840DCDEE840DAC2E8C6D PUSH1 0x83 SHL PUSH1 0x44 DUP3 ADD MSTORE PUSH1 0x64 ADD PUSH2 0x787 JUMP JUMPDEST PUSH1 0x17 SLOAD PUSH2 0x3023 SWAP1 PUSH1 0x1 PUSH1 0x1 PUSH1 0xA0 SHL SUB AND DUP12 DUP9 PUSH2 0x4380 JUMP JUMPDEST PUSH1 0x40 MLOAD PUSH4 0x7C4A0CB7 PUSH1 0xE1 SHL DUP2 MSTORE PUSH1 0x4 DUP2 ADD DUP13 SWAP1 MSTORE PUSH1 0x1 PUSH1 0x1 PUSH1 0xA0 SHL SUB DUP11 AND SWAP1 PUSH4 0xF894196E SWAP1 PUSH1 0x24 ADD PUSH0 PUSH1 0x40 MLOAD DUP1 DUP4 SUB DUP2 PUSH0 DUP8 DUP1 EXTCODESIZE ISZERO DUP1 ISZERO PUSH2 0x3062 JUMPI PUSH0 DUP1 REVERT JUMPDEST POP GAS CALL ISZERO DUP1 ISZERO PUSH2 0x3074 JUMPI RETURNDATASIZE PUSH0 DUP1 RETURNDATACOPY RETURNDATASIZE PUSH0 REVERT JUMPDEST POP POP POP POP PUSH1 0x40 MLOAD DUP1 PUSH1 0x80 ADD PUSH1 0x40 MSTORE DUP1 DUP6 DUP2 MSTORE PUSH1 0x20 ADD DUP7 DUP2 MSTORE PUSH1 0x20 ADD DUP3 PUSH1 0x1 PUSH1 0x1 PUSH1 0xA0 SHL SUB AND DUP2 MSTORE PUSH1 0x20 ADD DUP12 DUP2 MSTORE POP PUSH1 0x22 PUSH0 DUP14 DUP2 MSTORE PUSH1 0x20 ADD SWAP1 DUP2 MSTORE PUSH1 0x20 ADD PUSH0 KECCAK256 PUSH0 DUP3 ADD MLOAD DUP2 PUSH0 ADD SSTORE PUSH1 0x20 DUP3 ADD MLOAD DUP2 PUSH1 0x1 ADD SSTORE PUSH1 0x40 DUP3 ADD MLOAD DUP2 PUSH1 0x2 ADD PUSH0 PUSH2 0x100 EXP DUP2 SLOAD DUP2 PUSH1 0x1 PUSH1 0x1 PUSH1 0xA0 SHL SUB MUL NOT AND SWAP1 DUP4 PUSH1 0x1 PUSH1 0x1 PUSH1 0xA0 SHL SUB AND MUL OR SWAP1 SSTORE POP PUSH1 0x60 DUP3 ADD MLOAD DUP2 PUSH1 0x3 ADD SSTORE SWAP1 POP POP POP POP POP POP POP POP POP POP POP POP POP JUMP JUMPDEST PUSH1 0x18 SLOAD PUSH1 0x1 PUSH1 0x1 PUSH1 0xA0 SHL SUB AND CALLER EQ PUSH2 0x3135 JUMPI PUSH1 0x40 MLOAD PUSH3 0x461BCD PUSH1 0xE5 SHL DUP2 MSTORE PUSH1 0x4 ADD PUSH2 0x787 SWAP1 PUSH2 0x6F91 JUMP JUMPDEST PUSH1 0x11 SLOAD PUSH2 0x100 SWAP1 DIV PUSH1 0xFF AND ISZERO PUSH2 0x315D JUMPI PUSH1 0x40 MLOAD PUSH3 0x461BCD PUSH1 0xE5 SHL DUP2 MSTORE PUSH1 0x4 ADD PUSH2 0x787 SWAP1 PUSH2 0x70F4 JUMP JUMPDEST PUSH1 0x11 SLOAD PUSH1 0xFF AND ISZERO PUSH2 0x31A5 JUMPI PUSH1 0x40 MLOAD PUSH3 0x461BCD PUSH1 0xE5 SHL DUP2 MSTORE PUSH1 0x20 PUSH1 0x4 DUP3 ADD MSTORE PUSH1 0x12 PUSH1 0x24 DUP3 ADD MSTORE PUSH18 0x416C72656164792070726F63657373696E67 PUSH1 0x70 SHL PUSH1 0x44 DUP3 ADD MSTORE PUSH1 0x64 ADD PUSH2 0x787 JUMP JUMPDEST PUSH1 0x11 DUP1 SLOAD PUSH1 0xFF NOT AND PUSH1 0x1 OR SWAP1 SSTORE PUSH2 0x31BA PUSH2 0x56C1 JUMP JUMPDEST PUSH1 0x1E PUSH0 JUMPDEST PUSH1 0xE SLOAD DUP2 LT ISZERO PUSH2 0x31E9 JUMPI PUSH0 PUSH2 0x31D3 DUP3 DUP5 PUSH2 0xD0C JUMP JUMPDEST SWAP1 POP DUP1 PUSH0 SUB PUSH2 0x31E2 JUMPI POP PUSH2 0x31E9 JUMP JUMPDEST SWAP1 POP PUSH2 0x31BE JUMP JUMPDEST PUSH1 0x11 DUP1 SLOAD PUSH1 0xFF NOT AND SWAP1 SSTORE PUSH2 0x1C76 PUSH2 0x4C14 JUMP JUMPDEST PUSH2 0x3203 PUSH2 0x6777 JUMP JUMPDEST PUSH2 0x320B PUSH2 0x679C JUMP JUMPDEST CALLER ORIGIN EQ PUSH2 0x322A JUMPI PUSH1 0x40 MLOAD PUSH3 0x461BCD PUSH1 0xE5 SHL DUP2 MSTORE PUSH1 0x4 ADD PUSH2 0x787 SWAP1 PUSH2 0x702C JUMP JUMPDEST CALLER PUSH0 DUP2 DUP2 MSTORE PUSH1 0x4 PUSH1 0x20 MSTORE PUSH1 0x40 SWAP1 KECCAK256 SLOAD PUSH1 0x1 PUSH1 0x1 PUSH1 0xA0 SHL SUB AND PUSH2 0x325E JUMPI PUSH1 0x40 MLOAD PUSH3 0x461BCD PUSH1 0xE5 SHL DUP2 MSTORE PUSH1 0x4 ADD PUSH2 0x787 SWAP1 PUSH2 0x737A JUMP JUMPDEST PUSH1 0x1 PUSH1 0x1 PUSH1 0xA0 SHL SUB DUP1 DUP3 AND PUSH0 SWAP1 DUP2 MSTORE PUSH1 0x4 PUSH1 0x20 SWAP1 DUP2 MSTORE PUSH1 0x40 SWAP2 DUP3 SWAP1 KECCAK256 DUP3 MLOAD PUSH1 0x80 DUP2 ADD DUP5 MSTORE DUP2 SLOAD SWAP1 SWAP5 AND DUP5 MSTORE PUSH1 0x1 DUP2 ADD DUP1 SLOAD DUP5 MLOAD DUP2 DUP6 MUL DUP2 ADD DUP6 ADD SWAP1 SWAP6 MSTORE DUP1 DUP6 MSTORE SWAP2 SWAP4 DUP6 DUP5 ADD SWAP4 SWAP1 SWAP3 SWAP1 DUP4 ADD DUP3 DUP3 DUP1 ISZERO PUSH2 0x32DE JUMPI PUSH1 0x20 MUL DUP3 ADD SWAP2 SWAP1 PUSH0 MSTORE PUSH1 0x20 PUSH0 KECCAK256 SWAP1 JUMPDEST DUP2 SLOAD PUSH1 0x1 PUSH1 0x1 PUSH1 0xA0 SHL SUB AND DUP2 MSTORE PUSH1 0x1 SWAP1 SWAP2 ADD SWAP1 PUSH1 0x20 ADD DUP1 DUP4 GT PUSH2 0x32C0 JUMPI JUMPDEST POP POP POP SWAP2 DUP4 MSTORE POP POP PUSH1 0x2 DUP3 ADD SLOAD PUSH1 0x20 SWAP1 SWAP2 ADD SWAP1 PUSH1 0xFF AND PUSH1 0x7 DUP2 GT ISZERO PUSH2 0x3305 JUMPI PUSH2 0x3305 PUSH2 0x6B58 JUMP JUMPDEST PUSH1 0x7 DUP2 GT ISZERO PUSH2 0x3316 JUMPI PUSH2 0x3316 PUSH2 0x6B58 JUMP JUMPDEST DUP2 MSTORE PUSH1 0x20 ADD PUSH1 0x2 DUP3 ADD PUSH1 0x1 SWAP1 SLOAD SWAP1 PUSH2 0x100 EXP SWAP1 DIV PUSH1 0xFF AND PUSH1 0x3 DUP2 GT ISZERO PUSH2 0x333E JUMPI PUSH2 0x333E PUSH2 0x6B58 JUMP JUMPDEST PUSH1 0x3 DUP2 GT ISZERO PUSH2 0x334F JUMPI PUSH2 0x334F PUSH2 0x6B58 JUMP JUMPDEST DUP2 MSTORE POP POP SWAP3 POP PUSH1 0x5 PUSH0 DUP3 PUSH1 0x1 PUSH1 0x1 PUSH1 0xA0 SHL SUB AND PUSH1 0x1 PUSH1 0x1 PUSH1 0xA0 SHL SUB AND DUP2 MSTORE PUSH1 0x20 ADD SWAP1 DUP2 MSTORE PUSH1 0x20 ADD PUSH0 KECCAK256 PUSH1 0x40 MLOAD DUP1 PUSH1 0xA0 ADD PUSH1 0x40 MSTORE SWAP1 DUP2 PUSH0 DUP3 ADD SLOAD DUP2 MSTORE PUSH1 0x20 ADD PUSH1 0x1 DUP3 ADD SLOAD DUP2 MSTORE PUSH1 0x20 ADD PUSH1 0x2 DUP3 ADD SLOAD DUP2 MSTORE PUSH1 0x20 ADD PUSH1 0x3 DUP3 ADD SLOAD DUP2 MSTORE PUSH1 0x20 ADD PUSH1 0x4 DUP3 ADD SLOAD DUP2 MSTORE POP POP SWAP2 POP POP SWAP1 SWAP2 JUMP JUMPDEST PUSH1 0x1E SLOAD PUSH1 0x1 PUSH1 0x1 PUSH1 0xA0 SHL SUB AND CALLER DUP2 EQ PUSH2 0x344A JUMPI PUSH1 0x40 MLOAD PUSH3 0x461BCD PUSH1 0xE5 SHL DUP2 MSTORE PUSH1 0x20 PUSH1 0x4 DUP3 ADD MSTORE PUSH1 0x45 PUSH1 0x24 DUP3 ADD MSTORE PUSH32 0x7B2266726F6D223A202254726565436F6D2E736F6C222C22636F6465223A2035 PUSH1 0x44 DUP3 ADD MSTORE PUSH32 0x352C20226D657373616765223A2022596F7520617265206E6F7420616C6C6F77 PUSH1 0x64 DUP3 ADD MSTORE PUSH5 0x65642E227D PUSH1 0xD8 SHL PUSH1 0x84 DUP3 ADD MSTORE PUSH1 0xA4 ADD PUSH2 0x787 JUMP JUMPDEST PUSH1 0x11 SLOAD PUSH2 0x100 SWAP1 DIV PUSH1 0xFF AND ISZERO PUSH2 0x3472 JUMPI PUSH1 0x40 MLOAD PUSH3 0x461BCD PUSH1 0xE5 SHL DUP2 MSTORE PUSH1 0x4 ADD PUSH2 0x787 SWAP1 PUSH2 0x70F4 JUMP JUMPDEST DUP2 PUSH2 0x348F JUMPI PUSH1 0x40 MLOAD PUSH3 0x461BCD PUSH1 0xE5 SHL DUP2 MSTORE PUSH1 0x4 ADD PUSH2 0x787 SWAP1 PUSH2 0x747F JUMP JUMPDEST PUSH0 DUP3 DUP2 MSTORE PUSH1 0x22 PUSH1 0x20 MSTORE PUSH1 0x40 SWAP1 KECCAK256 SLOAD DUP1 PUSH2 0x34BA JUMPI PUSH1 0x40 MLOAD PUSH3 0x461BCD PUSH1 0xE5 SHL DUP2 MSTORE PUSH1 0x4 ADD PUSH2 0x787 SWAP1 PUSH2 0x74A9 JUMP JUMPDEST PUSH0 DUP4 DUP2 MSTORE PUSH1 0x22 PUSH1 0x20 MSTORE PUSH1 0x40 SWAP1 KECCAK256 PUSH1 0x3 DUP2 ADD SLOAD PUSH1 0x1 DUP3 ADD SLOAD PUSH1 0x2 SWAP1 SWAP3 ADD SLOAD SWAP1 SWAP2 SWAP1 PUSH1 0x1 PUSH1 0x1 PUSH1 0xA0 SHL SUB AND DUP2 ISZERO PUSH2 0x363D JUMPI PUSH1 0x2 PUSH1 0x1 PUSH1 0x1 PUSH1 0xA0 SHL SUB DUP3 AND PUSH0 SWAP1 DUP2 MSTORE PUSH1 0x4 PUSH1 0x20 MSTORE PUSH1 0x40 SWAP1 KECCAK256 PUSH1 0x2 ADD SLOAD PUSH2 0x100 SWAP1 DIV PUSH1 0xFF AND PUSH1 0x3 DUP2 GT ISZERO PUSH2 0x351F JUMPI PUSH2 0x351F PUSH2 0x6B58 JUMP JUMPDEST EQ PUSH2 0x35AD JUMPI PUSH1 0x1B SLOAD PUSH1 0x1 PUSH1 0x1 PUSH1 0xA0 SHL SUB AND PUSH4 0xE115DC7F DUP3 DUP6 PUSH1 0x64 PUSH2 0x3546 PUSH3 0xF4240 DUP9 PUSH2 0x723F JUMP JUMPDEST PUSH2 0x3551 SWAP1 PUSH1 0x50 PUSH2 0x7791 JUMP JUMPDEST PUSH2 0x355B SWAP2 SWAP1 PUSH2 0x723F JUMP JUMPDEST PUSH1 0x1 PUSH1 0x5 PUSH1 0x40 MLOAD DUP7 PUSH4 0xFFFFFFFF AND PUSH1 0xE0 SHL DUP2 MSTORE PUSH1 0x4 ADD PUSH2 0x357F SWAP6 SWAP5 SWAP4 SWAP3 SWAP2 SWAP1 PUSH2 0x7252 JUMP JUMPDEST PUSH0 PUSH1 0x40 MLOAD DUP1 DUP4 SUB DUP2 PUSH0 DUP8 DUP1 EXTCODESIZE ISZERO DUP1 ISZERO PUSH2 0x3596 JUMPI PUSH0 DUP1 REVERT JUMPDEST POP GAS CALL ISZERO DUP1 ISZERO PUSH2 0x35A8 JUMPI RETURNDATASIZE PUSH0 DUP1 RETURNDATACOPY RETURNDATASIZE PUSH0 REVERT JUMPDEST POP POP POP POP JUMPDEST PUSH1 0x1B SLOAD PUSH1 0x15 SLOAD PUSH1 0x1 PUSH1 0x1 PUSH1 0xA0 SHL SUB SWAP2 DUP3 AND SWAP2 PUSH4 0xE115DC7F SWAP2 AND DUP6 PUSH1 0x64 PUSH2 0x35D6 PUSH3 0xF4240 DUP9 PUSH2 0x723F JUMP JUMPDEST PUSH2 0x35E1 SWAP1 PUSH1 0x14 PUSH2 0x7791 JUMP JUMPDEST PUSH2 0x35EB SWAP2 SWAP1 PUSH2 0x723F JUMP JUMPDEST PUSH1 0x1 PUSH1 0x5 PUSH1 0x40 MLOAD DUP7 PUSH4 0xFFFFFFFF AND PUSH1 0xE0 SHL DUP2 MSTORE PUSH1 0x4 ADD PUSH2 0x360F SWAP6 SWAP5 SWAP4 SWAP3 SWAP2 SWAP1 PUSH2 0x7252 JUMP JUMPDEST PUSH0 PUSH1 0x40 MLOAD DUP1 DUP4 SUB DUP2 PUSH0 DUP8 DUP1 EXTCODESIZE ISZERO DUP1 ISZERO PUSH2 0x3626 JUMPI PUSH0 DUP1 REVERT JUMPDEST POP GAS CALL ISZERO DUP1 ISZERO PUSH2 0x3638 JUMPI RETURNDATASIZE PUSH0 DUP1 RETURNDATACOPY RETURNDATASIZE PUSH0 REVERT JUMPDEST POP POP POP POP JUMPDEST PUSH2 0x3648 DUP2 DUP6 DUP6 PUSH2 0x459C JUMP JUMPDEST PUSH0 DUP7 DUP2 MSTORE PUSH1 0x22 PUSH1 0x20 MSTORE PUSH1 0x40 DUP1 DUP3 KECCAK256 DUP3 DUP2 SSTORE PUSH1 0x1 DUP1 DUP3 ADD DUP5 SWAP1 SSTORE PUSH1 0x2 DUP1 DUP4 ADD DUP1 SLOAD PUSH1 0x1 PUSH1 0x1 PUSH1 0xA0 SHL SUB NOT AND SWAP1 SSTORE PUSH1 0x3 SWAP1 SWAP3 ADD SWAP4 SWAP1 SWAP4 SSTORE PUSH1 0x1B SLOAD PUSH1 0x14 SLOAD SWAP3 MLOAD PUSH4 0xE115DC7F PUSH1 0xE0 SHL DUP2 MSTORE PUSH1 0x1 PUSH1 0x1 PUSH1 0xA0 SHL SUB SWAP2 DUP3 AND SWAP5 PUSH4 0xE115DC7F SWAP5 PUSH2 0x36B6 SWAP5 SWAP4 AND SWAP3 DUP10 SWAP3 DUP12 SWAP3 SWAP2 SWAP1 PUSH1 0x4 ADD PUSH2 0x7252 JUMP JUMPDEST PUSH0 PUSH1 0x40 MLOAD DUP1 DUP4 SUB DUP2 PUSH0 DUP8 DUP1 EXTCODESIZE ISZERO DUP1 ISZERO PUSH2 0x36CD JUMPI PUSH0 DUP1 REVERT JUMPDEST POP GAS CALL ISZERO DUP1 ISZERO PUSH2 0x36DF JUMPI RETURNDATASIZE PUSH0 DUP1 RETURNDATACOPY RETURNDATASIZE PUSH0 REVERT JUMPDEST POP POP POP POP POP POP POP POP POP POP JUMP JUMPDEST DUP1 MLOAD ISZERO PUSH2 0x3764 JUMPI PUSH1 0x1B SLOAD PUSH1 0x40 MLOAD PUSH4 0x68BD52E5 PUSH1 0xE1 SHL DUP2 MSTORE PUSH1 0x1 PUSH1 0x1 PUSH1 0xA0 SHL SUB SWAP1 SWAP2 AND SWAP1 PUSH4 0xD17AA5CA SWAP1 PUSH2 0x3724 SWAP1 DUP6 SWAP1 DUP6 SWAP1 PUSH1 0x4 ADD PUSH2 0x77A8 JUMP JUMPDEST PUSH1 0x20 PUSH1 0x40 MLOAD DUP1 DUP4 SUB DUP2 PUSH0 DUP8 GAS CALL ISZERO DUP1 ISZERO PUSH2 0x3740 JUMPI RETURNDATASIZE PUSH0 DUP1 RETURNDATACOPY RETURNDATASIZE PUSH0 REVERT JUMPDEST POP POP POP POP PUSH1 0x40 MLOAD RETURNDATASIZE PUSH1 0x1F NOT PUSH1 0x1F DUP3 ADD AND DUP3 ADD DUP1 PUSH1 0x40 MSTORE POP DUP2 ADD SWAP1 PUSH2 0x22F6 SWAP2 SWAP1 PUSH2 0x73D7 JUMP JUMPDEST PUSH1 0x1B SLOAD PUSH1 0x40 MLOAD PUSH4 0xF8B2CB4F PUSH1 0xE0 SHL DUP2 MSTORE PUSH0 SWAP2 PUSH1 0x1 PUSH1 0x1 PUSH1 0xA0 SHL SUB AND SWAP1 PUSH4 0xF8B2CB4F SWAP1 PUSH2 0x3794 SWAP1 CALLER SWAP1 PUSH1 0x4 ADD PUSH2 0x6D5F JUMP JUMPDEST PUSH1 0x20 PUSH1 0x40 MLOAD DUP1 DUP4 SUB DUP2 DUP7 GAS STATICCALL ISZERO DUP1 ISZERO PUSH2 0x37AF JUMPI RETURNDATASIZE PUSH0 DUP1 RETURNDATACOPY RETURNDATASIZE PUSH0 REVERT JUMPDEST POP POP POP POP PUSH1 0x40 MLOAD RETURNDATASIZE PUSH1 0x1F NOT PUSH1 0x1F DUP3 ADD AND DUP3 ADD DUP1 PUSH1 0x40 MSTORE POP DUP2 ADD SWAP1 PUSH2 0x37D3 SWAP2 SWAP1 PUSH2 0x73A7 JUMP JUMPDEST SWAP1 POP DUP4 DUP2 LT ISZERO PUSH2 0x381C JUMPI PUSH1 0x40 MLOAD PUSH3 0x461BCD PUSH1 0xE5 SHL DUP2 MSTORE PUSH1 0x20 PUSH1 0x4 DUP3 ADD MSTORE PUSH1 0x14 PUSH1 0x24 DUP3 ADD MSTORE PUSH20 0x496E73756666696369656E742062616C616E6365 PUSH1 0x60 SHL PUSH1 0x44 DUP3 ADD MSTORE PUSH1 0x64 ADD PUSH2 0x787 JUMP JUMPDEST PUSH1 0x1B SLOAD PUSH1 0x40 MLOAD PUSH4 0xC84D239B PUSH1 0xE0 SHL DUP2 MSTORE PUSH1 0x1 PUSH1 0x1 PUSH1 0xA0 SHL SUB SWAP1 SWAP2 AND SWAP1 PUSH4 0xC84D239B SWAP1 PUSH2 0x384E SWAP1 CALLER SWAP1 DUP9 SWAP1 PUSH1 0x4 ADD PUSH2 0x73BE JUMP JUMPDEST PUSH1 0x20 PUSH1 0x40 MLOAD DUP1 DUP4 SUB DUP2 PUSH0 DUP8 GAS CALL ISZERO DUP1 ISZERO PUSH2 0x386A JUMPI RETURNDATASIZE PUSH0 DUP1 RETURNDATACOPY RETURNDATASIZE PUSH0 REVERT JUMPDEST POP POP POP POP PUSH1 0x40 MLOAD RETURNDATASIZE PUSH1 0x1F NOT PUSH1 0x1F DUP3 ADD AND DUP3 ADD DUP1 PUSH1 0x40 MSTORE POP DUP2 ADD SWAP1 PUSH2 0x388E SWAP2 SWAP1 PUSH2 0x73D7 JUMP JUMPDEST PUSH2 0x38E4 JUMPI PUSH1 0x40 MLOAD PUSH3 0x461BCD PUSH1 0xE5 SHL DUP2 MSTORE PUSH1 0x20 PUSH1 0x4 DUP3 ADD MSTORE PUSH1 0x21 PUSH1 0x24 DUP3 ADD MSTORE PUSH32 0x496E73756666696369656E742062616C616E636520666F722077697468647261 PUSH1 0x44 DUP3 ADD MSTORE PUSH1 0x77 PUSH1 0xF8 SHL PUSH1 0x64 DUP3 ADD MSTORE PUSH1 0x84 ADD PUSH2 0x787 JUMP JUMPDEST CALLER PUSH0 SWAP1 DUP2 MSTORE PUSH1 0x4 PUSH1 0x20 MSTORE PUSH1 0x40 SWAP1 KECCAK256 PUSH1 0x2 SWAP1 DUP2 ADD SLOAD PUSH2 0x100 SWAP1 DIV PUSH1 0xFF AND SWAP1 DUP2 PUSH1 0x3 DUP2 GT ISZERO PUSH2 0x3913 JUMPI PUSH2 0x3913 PUSH2 0x6B58 JUMP JUMPDEST EQ ISZERO DUP1 ISZERO PUSH2 0x3933 JUMPI POP PUSH1 0x3 DUP2 PUSH1 0x3 DUP2 GT ISZERO PUSH2 0x3930 JUMPI PUSH2 0x3930 PUSH2 0x6B58 JUMP JUMPDEST EQ ISZERO JUMPDEST PUSH2 0x396D JUMPI PUSH1 0x40 MLOAD PUSH3 0x461BCD PUSH1 0xE5 SHL DUP2 MSTORE PUSH1 0x20 PUSH1 0x4 DUP3 ADD MSTORE PUSH1 0xB PUSH1 0x24 DUP3 ADD MSTORE PUSH11 0x44656E7920616363657373 PUSH1 0xA8 SHL PUSH1 0x44 DUP3 ADD MSTORE PUSH1 0x64 ADD PUSH2 0x787 JUMP JUMPDEST PUSH1 0x17 SLOAD PUSH1 0x40 MLOAD PUSH4 0x70A08231 PUSH1 0xE0 SHL DUP2 MSTORE PUSH1 0x1 PUSH1 0x1 PUSH1 0xA0 SHL SUB SWAP1 SWAP2 AND SWAP1 PUSH4 0x70A08231 SWAP1 PUSH2 0x399D SWAP1 ADDRESS SWAP1 PUSH1 0x4 ADD PUSH2 0x6D5F JUMP JUMPDEST PUSH1 0x20 PUSH1 0x40 MLOAD DUP1 DUP4 SUB DUP2 DUP7 GAS STATICCALL ISZERO DUP1 ISZERO PUSH2 0x39B8 JUMPI RETURNDATASIZE PUSH0 DUP1 RETURNDATACOPY RETURNDATASIZE PUSH0 REVERT JUMPDEST POP POP POP POP PUSH1 0x40 MLOAD RETURNDATASIZE PUSH1 0x1F NOT PUSH1 0x1F DUP3 ADD AND DUP3 ADD DUP1 PUSH1 0x40 MSTORE POP DUP2 ADD SWAP1 PUSH2 0x39DC SWAP2 SWAP1 PUSH2 0x73A7 JUMP JUMPDEST PUSH2 0x39E9 DUP7 PUSH3 0xF4240 PUSH2 0x7791 JUMP JUMPDEST LT PUSH2 0x3A33 JUMPI PUSH1 0x40 MLOAD PUSH3 0x461BCD PUSH1 0xE5 SHL DUP2 MSTORE PUSH1 0x20 PUSH1 0x4 DUP3 ADD MSTORE PUSH1 0x1A PUSH1 0x24 DUP3 ADD MSTORE PUSH26 0x4E6F7420656E6F756768207573647420696E2074726565436F6D PUSH1 0x30 SHL PUSH1 0x44 DUP3 ADD MSTORE PUSH1 0x64 ADD PUSH2 0x787 JUMP JUMPDEST PUSH1 0x17 SLOAD PUSH1 0x1 PUSH1 0x1 PUSH1 0xA0 SHL SUB AND PUSH4 0xA9059CBB DUP6 PUSH2 0x3A52 DUP9 PUSH3 0xF4240 PUSH2 0x7791 JUMP JUMPDEST PUSH1 0x40 MLOAD DUP4 PUSH4 0xFFFFFFFF AND PUSH1 0xE0 SHL DUP2 MSTORE PUSH1 0x4 ADD PUSH2 0x3A6F SWAP3 SWAP2 SWAP1 PUSH2 0x73BE JUMP JUMPDEST PUSH1 0x20 PUSH1 0x40 MLOAD DUP1 DUP4 SUB DUP2 PUSH0 DUP8 GAS CALL ISZERO DUP1 ISZERO PUSH2 0x3A8B JUMPI RETURNDATASIZE PUSH0 DUP1 RETURNDATACOPY RETURNDATASIZE PUSH0 REVERT JUMPDEST POP POP POP POP PUSH1 0x40 MLOAD RETURNDATASIZE PUSH1 0x1F NOT PUSH1 0x1F DUP3 ADD AND DUP3 ADD DUP1 PUSH1 0x40 MSTORE POP DUP2 ADD SWAP1 PUSH2 0x3AAF SWAP2 SWAP1 PUSH2 0x73D7 JUMP JUMPDEST PUSH2 0x1A80 JUMPI PUSH1 0x40 MLOAD PUSH3 0x461BCD PUSH1 0xE5 SHL DUP2 MSTORE PUSH1 0x20 PUSH1 0x4 DUP3 ADD MSTORE PUSH1 0xF PUSH1 0x24 DUP3 ADD MSTORE PUSH15 0x151C985B9CD9995C8819985A5B1959 PUSH1 0x8A SHL PUSH1 0x44 DUP3 ADD MSTORE PUSH1 0x64 ADD PUSH2 0x787 JUMP JUMPDEST PUSH0 PUSH1 0x1 PUSH1 0x1 PUSH1 0xA0 SHL SUB DUP6 AND CALLER EQ DUP1 PUSH2 0x3B43 JUMPI POP DUP3 PUSH0 CALLER DUP8 PUSH1 0x40 MLOAD PUSH1 0x20 ADD PUSH2 0x3B15 SWAP3 SWAP2 SWAP1 PUSH2 0x77FD JUMP JUMPDEST PUSH1 0x40 DUP1 MLOAD PUSH1 0x1F NOT DUP2 DUP5 SUB ADD DUP2 MSTORE SWAP2 DUP2 MSTORE DUP2 MLOAD PUSH1 0x20 SWAP3 DUP4 ADD KECCAK256 DUP4 MSTORE SWAP1 DUP3 ADD SWAP3 SWAP1 SWAP3 MSTORE ADD PUSH0 KECCAK256 SLOAD PUSH1 0xFF AND ISZERO ISZERO PUSH1 0x1 EQ JUMPDEST PUSH2 0x3B7F JUMPI PUSH1 0x40 MLOAD PUSH3 0x461BCD PUSH1 0xE5 SHL DUP2 MSTORE PUSH1 0x20 PUSH1 0x4 DUP3 ADD MSTORE PUSH1 0xD PUSH1 0x24 DUP3 ADD MSTORE PUSH13 0x139BDD081C195C9B5A5D1D1959 PUSH1 0x9A SHL PUSH1 0x44 DUP3 ADD MSTORE PUSH1 0x64 ADD PUSH2 0x787 JUMP JUMPDEST PUSH0 DUP7 JUMPDEST PUSH1 0x1 PUSH1 0x1 PUSH1 0xA0 SHL SUB DUP2 AND ISZERO PUSH2 0x3C5B JUMPI DUP2 PUSH2 0x3B9B DUP2 PUSH2 0x774D JUMP JUMPDEST SWAP3 POP POP DUP6 PUSH1 0xFF AND DUP3 PUSH1 0xFF AND SUB ISZERO PUSH2 0x3C5B JUMPI DUP7 PUSH1 0x1 PUSH1 0x1 PUSH1 0xA0 SHL SUB AND DUP2 PUSH1 0x1 PUSH1 0x1 PUSH1 0xA0 SHL SUB AND SUB PUSH2 0x3BD0 JUMPI PUSH1 0x1 SWAP3 POP POP POP PUSH2 0x3C61 JUMP JUMPDEST PUSH1 0x1 PUSH1 0x1 PUSH1 0xA0 SHL SUB SWAP1 DUP2 AND PUSH0 SWAP1 DUP2 MSTORE PUSH1 0x20 DUP11 SWAP1 MSTORE PUSH1 0x40 SWAP1 KECCAK256 SLOAD AND PUSH2 0x3BF5 PUSH1 0xA DUP4 PUSH2 0x781F JUMP JUMPDEST PUSH1 0xFF AND PUSH0 SUB PUSH2 0x3C56 JUMPI PUSH0 CALLER DUP3 PUSH1 0x40 MLOAD PUSH1 0x20 ADD PUSH2 0x3C12 SWAP3 SWAP2 SWAP1 PUSH2 0x77FD JUMP JUMPDEST PUSH1 0x40 DUP1 MLOAD PUSH1 0x1F NOT DUP2 DUP5 SUB ADD DUP2 MSTORE SWAP2 DUP2 MSTORE DUP2 MLOAD PUSH1 0x20 SWAP3 DUP4 ADD KECCAK256 PUSH0 DUP2 DUP2 MSTORE DUP10 DUP5 MSTORE SWAP2 DUP3 KECCAK256 DUP1 SLOAD PUSH1 0xFF NOT AND PUSH1 0x1 SWAP1 DUP2 OR SWAP1 SWAP2 SSTORE DUP9 SLOAD SWAP1 DUP2 ADD DUP10 SSTORE DUP9 DUP4 MSTORE SWAP3 SWAP1 SWAP2 KECCAK256 SWAP1 SWAP2 ADD SSTORE POP JUMPDEST PUSH2 0x3B82 JUMP JUMPDEST PUSH0 SWAP3 POP POP POP JUMPDEST SWAP7 SWAP6 POP POP POP POP POP POP JUMP JUMPDEST PUSH1 0x1 PUSH1 0x1 PUSH1 0xA0 SHL SUB DUP2 AND PUSH0 SWAP1 DUP2 MSTORE PUSH1 0x20 DUP8 SWAP1 MSTORE PUSH1 0x40 DUP2 KECCAK256 PUSH1 0x2 SWAP1 DUP2 ADD SLOAD PUSH2 0x100 SWAP1 DIV PUSH1 0xFF AND SWAP1 DUP2 PUSH1 0x3 DUP2 GT ISZERO PUSH2 0x3CA3 JUMPI PUSH2 0x3CA3 PUSH2 0x6B58 JUMP JUMPDEST EQ DUP1 PUSH2 0x3CC0 JUMPI POP PUSH1 0x3 DUP2 PUSH1 0x3 DUP2 GT ISZERO PUSH2 0x3CBE JUMPI PUSH2 0x3CBE PUSH2 0x6B58 JUMP JUMPDEST EQ JUMPDEST ISZERO PUSH2 0x3CCE JUMPI PUSH0 SWAP2 POP POP PUSH2 0x3C61 JUMP JUMPDEST PUSH1 0x1 PUSH1 0x1 PUSH1 0xA0 SHL SUB DUP4 AND PUSH0 SWAP1 DUP2 MSTORE PUSH1 0x20 DUP9 SWAP1 MSTORE PUSH1 0x40 SWAP1 KECCAK256 SLOAD TIMESTAMP GT ISZERO PUSH2 0x3D24 JUMPI PUSH1 0x1 PUSH1 0x1 PUSH1 0xA0 SHL SUB DUP4 AND PUSH0 SWAP1 DUP2 MSTORE PUSH1 0x20 DUP10 SWAP1 MSTORE PUSH1 0x40 SWAP1 KECCAK256 PUSH1 0x2 SWAP1 DUP2 ADD DUP1 SLOAD PUSH2 0xFF00 NOT AND PUSH2 0x100 DUP4 JUMPDEST MUL OR SWAP1 SSTORE POP PUSH1 0x1 SWAP2 POP POP PUSH2 0x3C61 JUMP JUMPDEST PUSH1 0x1 PUSH1 0x1 PUSH1 0xA0 SHL SUB DUP4 AND PUSH0 SWAP1 DUP2 MSTORE PUSH1 0x20 DUP8 SWAP1 MSTORE PUSH1 0x40 SWAP1 KECCAK256 SLOAD PUSH1 0x1 GT ISZERO DUP1 PUSH2 0x3D63 JUMPI POP PUSH1 0x1 PUSH1 0x1 PUSH1 0xA0 SHL SUB DUP4 AND PUSH0 SWAP1 DUP2 MSTORE PUSH1 0x20 DUP6 SWAP1 MSTORE PUSH1 0x40 SWAP1 KECCAK256 SLOAD PUSH1 0xA GT ISZERO JUMPDEST DUP1 PUSH2 0x3D86 JUMPI POP PUSH1 0x1 PUSH1 0x1 PUSH1 0xA0 SHL SUB DUP4 AND PUSH0 SWAP1 DUP2 MSTORE PUSH1 0x20 DUP7 SWAP1 MSTORE PUSH1 0x40 SWAP1 KECCAK256 SLOAD PUSH1 0x64 GT ISZERO JUMPDEST ISZERO PUSH2 0x3DB9 JUMPI PUSH1 0x1 PUSH1 0x1 PUSH1 0xA0 SHL SUB DUP4 AND PUSH0 SWAP1 DUP2 MSTORE PUSH1 0x20 DUP10 SWAP1 MSTORE PUSH1 0x40 SWAP1 KECCAK256 PUSH1 0x2 ADD DUP1 SLOAD PUSH1 0x1 SWAP2 SWAP1 PUSH2 0xFF00 NOT AND PUSH2 0x100 DUP4 PUSH2 0x3D15 JUMP JUMPDEST POP PUSH0 SWAP8 SWAP7 POP POP POP POP POP POP POP JUMP JUMPDEST PUSH1 0x1 PUSH1 0x1 PUSH1 0xA0 SHL SUB DUP2 AND PUSH0 SWAP1 DUP2 MSTORE PUSH1 0x20 DUP6 DUP2 MSTORE PUSH1 0x40 DUP1 DUP4 KECCAK256 PUSH1 0x2 ADD SLOAD SWAP2 DUP7 SWAP1 MSTORE DUP3 KECCAK256 PUSH1 0x1 ADD SLOAD SWAP1 SWAP2 SWAP1 DUP2 DUP2 PUSH1 0x1 PUSH1 0x1 PUSH1 0x40 SHL SUB DUP2 GT ISZERO PUSH2 0x3E08 JUMPI PUSH2 0x3E08 PUSH2 0x6932 JUMP JUMPDEST PUSH1 0x40 MLOAD SWAP1 DUP1 DUP3 MSTORE DUP1 PUSH1 0x20 MUL PUSH1 0x20 ADD DUP3 ADD PUSH1 0x40 MSTORE DUP1 ISZERO PUSH2 0x3E31 JUMPI DUP2 PUSH1 0x20 ADD PUSH1 0x20 DUP3 MUL DUP1 CALLDATASIZE DUP4 CALLDATACOPY ADD SWAP1 POP JUMPDEST POP SWAP1 POP PUSH0 JUMPDEST DUP3 DUP2 LT ISZERO PUSH2 0x3F3E JUMPI PUSH1 0x1 PUSH1 0x1 PUSH1 0xA0 SHL SUB DUP7 AND PUSH0 SWAP1 DUP2 MSTORE PUSH1 0x20 DUP10 SWAP1 MSTORE PUSH1 0x40 DUP2 KECCAK256 PUSH1 0x1 ADD DUP1 SLOAD DUP4 SWAP1 DUP2 LT PUSH2 0x3E6A JUMPI PUSH2 0x3E6A PUSH2 0x709B JUMP JUMPDEST PUSH0 SWAP2 DUP3 MSTORE PUSH1 0x20 DUP1 DUP4 KECCAK256 SWAP1 SWAP2 ADD SLOAD PUSH1 0x1 PUSH1 0x1 PUSH1 0xA0 SHL SUB AND DUP1 DUP4 MSTORE DUP12 DUP3 MSTORE PUSH1 0x40 DUP1 DUP5 KECCAK256 SWAP3 DUP15 SWAP1 MSTORE DUP4 KECCAK256 PUSH1 0x3 DUP2 ADD SLOAD PUSH1 0x2 SWAP1 SWAP2 ADD SLOAD SWAP2 SWAP5 POP SWAP2 SWAP3 SWAP2 PUSH2 0x3EAB SWAP2 PUSH2 0x7075 JUMP JUMPDEST SWAP1 POP PUSH0 DUP2 GT PUSH2 0x3EBC JUMPI POP POP POP PUSH2 0x3F36 JUMP JUMPDEST PUSH1 0x1 PUSH1 0x1 PUSH1 0xA0 SHL SUB DUP4 AND PUSH0 SWAP1 DUP2 MSTORE PUSH1 0x20 DUP14 SWAP1 MSTORE PUSH1 0x40 DUP2 KECCAK256 PUSH1 0x3 ADD SSTORE DUP5 MLOAD DUP2 SWAP1 DUP7 SWAP1 DUP7 SWAP1 DUP2 LT PUSH2 0x3EED JUMPI PUSH2 0x3EED PUSH2 0x709B JUMP JUMPDEST PUSH1 0x20 SWAP1 DUP2 MUL SWAP2 SWAP1 SWAP2 ADD ADD MSTORE PUSH2 0x3F02 DUP2 DUP10 PUSH2 0x7075 JUMP JUMPDEST SWAP8 POP PUSH1 0x4 PUSH1 0x2 DUP4 ADD SLOAD PUSH1 0xFF AND PUSH1 0x7 DUP2 GT ISZERO PUSH2 0x3F1F JUMPI PUSH2 0x3F1F PUSH2 0x6B58 JUMP JUMPDEST LT ISZERO PUSH2 0x3F32 JUMPI PUSH2 0x3F2F DUP2 DUP9 PUSH2 0x7075 JUMP JUMPDEST SWAP7 POP JUMPDEST POP POP POP JUMPDEST PUSH1 0x1 ADD PUSH2 0x3E36 JUMP JUMPDEST POP DUP4 ISZERO PUSH2 0x1485 JUMPI PUSH0 PUSH1 0x5 PUSH1 0x1 PUSH1 0x1 PUSH1 0xA0 SHL SUB DUP8 AND PUSH0 SWAP1 DUP2 MSTORE PUSH1 0x20 DUP11 SWAP1 MSTORE PUSH1 0x40 SWAP1 KECCAK256 PUSH1 0x2 ADD SLOAD PUSH1 0xFF AND PUSH1 0x7 DUP2 GT ISZERO PUSH2 0x3F77 JUMPI PUSH2 0x3F77 PUSH2 0x6B58 JUMP JUMPDEST LT ISZERO PUSH2 0x3F84 JUMPI PUSH1 0x32 PUSH2 0x3F87 JUMP JUMPDEST PUSH1 0x28 JUMPDEST PUSH1 0xFF AND SWAP1 POP PUSH0 PUSH1 0x64 PUSH2 0x3F99 DUP4 DUP9 PUSH2 0x7791 JUMP JUMPDEST PUSH2 0x3FA3 SWAP2 SWAP1 PUSH2 0x723F JUMP JUMPDEST SWAP1 POP PUSH0 DUP1 JUMPDEST DUP6 DUP2 LT ISZERO PUSH2 0x4005 JUMPI DUP3 DUP6 DUP3 DUP2 MLOAD DUP2 LT PUSH2 0x3FC3 JUMPI PUSH2 0x3FC3 PUSH2 0x709B JUMP JUMPDEST PUSH1 0x20 MUL PUSH1 0x20 ADD ADD MLOAD GT PUSH2 0x3FEF JUMPI DUP5 DUP2 DUP2 MLOAD DUP2 LT PUSH2 0x3FE2 JUMPI PUSH2 0x3FE2 PUSH2 0x709B JUMP JUMPDEST PUSH1 0x20 MUL PUSH1 0x20 ADD ADD MLOAD PUSH2 0x3FF1 JUMP JUMPDEST DUP3 JUMPDEST PUSH2 0x3FFB SWAP1 DUP4 PUSH2 0x7075 JUMP JUMPDEST SWAP2 POP PUSH1 0x1 ADD PUSH2 0x3FA8 JUMP JUMPDEST POP PUSH1 0x1 PUSH1 0x1 PUSH1 0xA0 SHL SUB DUP9 AND PUSH0 SWAP1 DUP2 MSTORE PUSH1 0x20 DUP13 SWAP1 MSTORE PUSH1 0x40 DUP2 KECCAK256 PUSH1 0x3 ADD SLOAD PUSH2 0x402B SWAP1 DUP4 PUSH2 0x7088 JUMP JUMPDEST SWAP1 POP DUP1 ISZERO PUSH2 0x405C JUMPI PUSH1 0x1 PUSH1 0x1 PUSH1 0xA0 SHL SUB DUP10 AND PUSH0 SWAP1 DUP2 MSTORE PUSH1 0x20 DUP14 SWAP1 MSTORE PUSH1 0x40 SWAP1 KECCAK256 PUSH1 0x3 ADD DUP3 SWAP1 SSTORE PUSH2 0x405C DUP12 DUP14 DUP13 DUP13 PUSH2 0x5467 JUMP JUMPDEST POP POP POP PUSH1 0x1 PUSH1 0x1 PUSH1 0xA0 SHL SUB DUP7 AND PUSH0 SWAP1 DUP2 MSTORE PUSH1 0x20 DUP11 SWAP1 MSTORE PUSH1 0x40 SWAP1 KECCAK256 PUSH1 0x4 ADD DUP6 SWAP1 SSTORE POP POP POP POP POP POP POP POP POP JUMP JUMPDEST PUSH1 0x1 PUSH1 0x1 PUSH1 0xA0 SHL SUB DUP1 DUP3 AND PUSH0 SWAP1 DUP2 MSTORE PUSH1 0x4 PUSH1 0x20 MSTORE PUSH1 0x40 SWAP1 KECCAK256 SLOAD AND DUP1 PUSH2 0x40AA JUMPI POP POP JUMP JUMPDEST PUSH1 0x1 PUSH1 0x1 PUSH1 0xA0 SHL SUB DUP2 AND PUSH0 SWAP1 DUP2 MSTORE PUSH1 0x5 PUSH1 0x20 MSTORE PUSH1 0x40 DUP2 KECCAK256 PUSH1 0x1 SWAP1 DUP2 ADD DUP1 SLOAD SWAP2 SWAP3 SWAP1 SWAP2 PUSH2 0x40D7 SWAP1 DUP5 SWAP1 PUSH2 0x7075 JUMP JUMPDEST SWAP1 SWAP2 SSTORE POP POP PUSH1 0x1 PUSH1 0x1 PUSH1 0xA0 SHL SUB DUP2 AND PUSH0 SWAP1 DUP2 MSTORE PUSH1 0x1A PUSH1 0x20 MSTORE PUSH1 0x40 SWAP1 KECCAK256 SLOAD PUSH1 0xFF AND ISZERO ISZERO PUSH1 0x1 EQ DUP1 ISZERO SWAP1 PUSH2 0x4144 JUMPI POP PUSH1 0x1 PUSH1 0x1 PUSH1 0xA0 SHL SUB DUP3 AND PUSH0 SWAP1 DUP2 MSTORE PUSH1 0x19 PUSH1 0x20 MSTORE PUSH1 0x40 SWAP1 KECCAK256 PUSH1 0x1 ADD SLOAD PUSH1 0xFF AND DUP1 PUSH2 0x4144 JUMPI POP PUSH1 0x1 PUSH1 0x1 PUSH1 0xA0 SHL SUB DUP3 AND PUSH0 SWAP1 DUP2 MSTORE PUSH1 0x1A PUSH1 0x20 MSTORE PUSH1 0x40 SWAP1 KECCAK256 SLOAD PUSH1 0xFF AND JUMPDEST ISZERO PUSH2 0x416C JUMPI PUSH1 0x1 PUSH1 0x1 PUSH1 0xA0 SHL SUB DUP2 AND PUSH0 SWAP1 DUP2 MSTORE PUSH1 0x1A PUSH1 0x20 MSTORE PUSH1 0x40 SWAP1 KECCAK256 DUP1 SLOAD PUSH1 0xFF NOT AND PUSH1 0x1 OR SWAP1 SSTORE JUMPDEST PUSH1 0x1 PUSH1 0x1 PUSH1 0xA0 SHL SUB DUP3 AND PUSH0 SWAP1 DUP2 MSTORE PUSH1 0x19 PUSH1 0x20 SWAP1 DUP2 MSTORE PUSH1 0x40 DUP1 DUP4 KECCAK256 DUP4 DUP2 SSTORE PUSH1 0x1 ADD DUP1 SLOAD PUSH1 0xFF NOT SWAP1 DUP2 AND SWAP1 SWAP2 SSTORE PUSH1 0x1A DUP4 MSTORE DUP2 DUP5 KECCAK256 DUP1 SLOAD SWAP1 SWAP2 AND SWAP1 SSTORE PUSH1 0x9 SWAP1 SWAP2 MSTORE SWAP1 KECCAK256 SLOAD ISZERO PUSH2 0x423E JUMPI PUSH1 0x1 PUSH1 0x1 PUSH1 0xA0 SHL SUB DUP1 DUP4 AND PUSH0 SWAP1 DUP2 MSTORE PUSH1 0x9 PUSH1 0x20 MSTORE PUSH1 0x40 DUP1 DUP3 KECCAK256 SLOAD SWAP3 DUP5 AND DUP3 MSTORE DUP2 KECCAK256 DUP1 SLOAD SWAP1 SWAP2 SWAP1 PUSH2 0x41E3 SWAP1 DUP5 SWAP1 PUSH2 0x7075 JUMP JUMPDEST SWAP1 SWAP2 SSTORE POP POP PUSH1 0x1 PUSH1 0x1 PUSH1 0xA0 SHL SUB DUP1 DUP4 AND PUSH0 SWAP1 DUP2 MSTORE PUSH1 0x9 PUSH1 0x20 SWAP1 DUP2 MSTORE PUSH1 0x40 DUP1 DUP4 KECCAK256 SLOAD SWAP4 DUP6 AND DUP4 MSTORE PUSH1 0xA SWAP1 SWAP2 MSTORE DUP2 KECCAK256 DUP1 SLOAD SWAP1 SWAP2 SWAP1 PUSH2 0x4220 SWAP1 DUP5 SWAP1 PUSH2 0x7075 JUMP JUMPDEST SWAP1 SWAP2 SSTORE POP POP PUSH1 0x1 PUSH1 0x1 PUSH1 0xA0 SHL SUB DUP3 AND PUSH0 SWAP1 DUP2 MSTORE PUSH1 0x9 PUSH1 0x20 MSTORE PUSH1 0x40 DUP2 KECCAK256 SSTORE JUMPDEST PUSH1 0x1 PUSH1 0x1 PUSH1 0xA0 SHL SUB DUP2 AND PUSH0 SWAP1 DUP2 MSTORE PUSH1 0x4 PUSH1 0x20 SWAP1 DUP2 MSTORE PUSH1 0x40 DUP1 DUP4 KECCAK256 PUSH1 0x1 SWAP1 DUP2 ADD SLOAD PUSH1 0x5 SWAP1 SWAP4 MSTORE SWAP3 KECCAK256 SWAP1 SWAP2 ADD SLOAD SUB PUSH2 0x1C76 JUMPI PUSH1 0x1 PUSH1 0x1 PUSH1 0xA0 SHL SUB DUP2 AND PUSH0 SWAP1 DUP2 MSTORE PUSH1 0x5 PUSH1 0x20 SWAP1 DUP2 MSTORE PUSH1 0x40 DUP1 DUP4 KECCAK256 PUSH1 0x1 ADD DUP4 SWAP1 SSTORE PUSH1 0x1A SWAP1 SWAP2 MSTORE SWAP1 KECCAK256 SLOAD PUSH1 0xFF AND ISZERO PUSH2 0x42AD JUMPI PUSH2 0x42AD PUSH1 0x5 PUSH1 0x4 PUSH1 0x2 DUP5 PUSH2 0x3DC6 JUMP JUMPDEST PUSH2 0x1C76 DUP2 PUSH2 0x4087 JUMP JUMPDEST PUSH1 0x1 PUSH1 0x1 PUSH1 0xA0 SHL SUB DUP2 AND PUSH0 SWAP1 DUP2 MSTORE PUSH1 0x20 DUP4 SWAP1 MSTORE PUSH1 0x40 DUP2 KECCAK256 PUSH1 0x2 ADD SLOAD PUSH1 0x64 GT ISZERO DUP1 PUSH2 0x1AF8 JUMPI POP POP PUSH1 0x1 PUSH1 0x1 PUSH1 0xA0 SHL SUB AND PUSH0 SWAP1 DUP2 MSTORE PUSH1 0x20 SWAP2 SWAP1 SWAP2 MSTORE PUSH1 0x40 SWAP1 KECCAK256 PUSH1 0x3 ADD SLOAD PUSH2 0x1F4 GT ISZERO SWAP1 JUMP JUMPDEST PUSH1 0x1 PUSH1 0x1 PUSH1 0xA0 SHL SUB DUP2 AND PUSH0 SWAP1 DUP2 MSTORE PUSH1 0x20 DUP5 SWAP1 MSTORE PUSH1 0x40 DUP2 KECCAK256 PUSH1 0x1 ADD SWAP1 JUMPDEST DUP2 SLOAD DUP2 LT ISZERO PUSH2 0x1A80 JUMPI DUP3 DUP5 PUSH0 DUP5 DUP5 DUP2 SLOAD DUP2 LT PUSH2 0x4339 JUMPI PUSH2 0x4339 PUSH2 0x709B JUMP JUMPDEST PUSH0 SWAP2 DUP3 MSTORE PUSH1 0x20 DUP1 DUP4 KECCAK256 SWAP2 SWAP1 SWAP2 ADD SLOAD PUSH1 0x1 PUSH1 0x1 PUSH1 0xA0 SHL SUB SWAP1 DUP2 AND DUP5 MSTORE SWAP1 DUP4 ADD SWAP4 SWAP1 SWAP4 MSTORE PUSH1 0x40 SWAP1 SWAP2 ADD SWAP1 KECCAK256 DUP1 SLOAD PUSH1 0x1 PUSH1 0x1 PUSH1 0xA0 SHL SUB NOT AND SWAP3 SWAP1 SWAP2 AND SWAP2 SWAP1 SWAP2 OR SWAP1 SSTORE PUSH1 0x1 ADD PUSH2 0x431B JUMP JUMPDEST DUP2 PUSH2 0x8CE JUMPI PUSH1 0x40 MLOAD PUSH4 0x70A08231 PUSH1 0xE0 SHL DUP2 MSTORE PUSH0 SWAP1 PUSH1 0x1 PUSH1 0x1 PUSH1 0xA0 SHL SUB DUP6 AND SWAP1 PUSH4 0x70A08231 SWAP1 PUSH2 0x43B3 SWAP1 ADDRESS SWAP1 PUSH1 0x4 ADD PUSH2 0x6D5F JUMP JUMPDEST PUSH1 0x20 PUSH1 0x40 MLOAD DUP1 DUP4 SUB DUP2 DUP7 GAS STATICCALL ISZERO DUP1 ISZERO PUSH2 0x43CE JUMPI RETURNDATASIZE PUSH0 DUP1 RETURNDATACOPY RETURNDATASIZE PUSH0 REVERT JUMPDEST POP POP POP POP PUSH1 0x40 MLOAD RETURNDATASIZE PUSH1 0x1F NOT PUSH1 0x1F DUP3 ADD AND DUP3 ADD DUP1 PUSH1 0x40 MSTORE POP DUP2 ADD SWAP1 PUSH2 0x43F2 SWAP2 SWAP1 PUSH2 0x73A7 JUMP JUMPDEST PUSH1 0x40 MLOAD PUSH4 0x23B872DD PUSH1 0xE0 SHL DUP2 MSTORE CALLER PUSH1 0x4 DUP3 ADD MSTORE ADDRESS PUSH1 0x24 DUP3 ADD MSTORE PUSH1 0x44 DUP2 ADD DUP5 SWAP1 MSTORE SWAP1 SWAP2 POP PUSH1 0x1 PUSH1 0x1 PUSH1 0xA0 SHL SUB DUP6 AND SWAP1 PUSH4 0x23B872DD SWAP1 PUSH1 0x64 ADD PUSH1 0x20 PUSH1 0x40 MLOAD DUP1 DUP4 SUB DUP2 PUSH0 DUP8 GAS CALL ISZERO DUP1 ISZERO PUSH2 0x4445 JUMPI RETURNDATASIZE PUSH0 DUP1 RETURNDATACOPY RETURNDATASIZE PUSH0 REVERT JUMPDEST POP POP POP POP PUSH1 0x40 MLOAD RETURNDATASIZE PUSH1 0x1F NOT PUSH1 0x1F DUP3 ADD AND DUP3 ADD DUP1 PUSH1 0x40 MSTORE POP DUP2 ADD SWAP1 PUSH2 0x4469 SWAP2 SWAP1 PUSH2 0x73D7 JUMP JUMPDEST PUSH2 0x44AC JUMPI PUSH1 0x40 MLOAD PUSH3 0x461BCD PUSH1 0xE5 SHL DUP2 MSTORE PUSH1 0x20 PUSH1 0x4 DUP3 ADD MSTORE PUSH1 0x14 PUSH1 0x24 DUP3 ADD MSTORE PUSH20 0x1554D115081D1C985B9CD9995C8819985A5B1959 PUSH1 0x62 SHL PUSH1 0x44 DUP3 ADD MSTORE PUSH1 0x64 ADD PUSH2 0x787 JUMP JUMPDEST PUSH1 0x40 MLOAD PUSH4 0x70A08231 PUSH1 0xE0 SHL DUP2 MSTORE PUSH0 SWAP1 PUSH1 0x1 PUSH1 0x1 PUSH1 0xA0 SHL SUB DUP7 AND SWAP1 PUSH4 0x70A08231 SWAP1 PUSH2 0x44DA SWAP1 ADDRESS SWAP1 PUSH1 0x4 ADD PUSH2 0x6D5F JUMP JUMPDEST PUSH1 0x20 PUSH1 0x40 MLOAD DUP1 DUP4 SUB DUP2 DUP7 GAS STATICCALL ISZERO DUP1 ISZERO PUSH2 0x44F5 JUMPI RETURNDATASIZE PUSH0 DUP1 RETURNDATACOPY RETURNDATASIZE PUSH0 REVERT JUMPDEST POP POP POP POP PUSH1 0x40 MLOAD RETURNDATASIZE PUSH1 0x1F NOT PUSH1 0x1F DUP3 ADD AND DUP3 ADD DUP1 PUSH1 0x40 MSTORE POP DUP2 ADD SWAP1 PUSH2 0x4519 SWAP2 SWAP1 PUSH2 0x73A7 JUMP JUMPDEST SWAP1 POP PUSH0 PUSH2 0x4526 DUP4 DUP4 PUSH2 0x7088 JUMP JUMPDEST SWAP1 POP PUSH2 0x4535 PUSH3 0xF4240 DUP6 PUSH2 0x7088 JUMP JUMPDEST DUP2 LT ISZERO DUP1 ISZERO PUSH2 0x4550 JUMPI POP PUSH2 0x454C DUP5 PUSH3 0xF4240 PUSH2 0x7075 JUMP JUMPDEST DUP2 GT ISZERO JUMPDEST PUSH2 0x2836 JUMPI PUSH1 0x40 MLOAD PUSH3 0x461BCD PUSH1 0xE5 SHL DUP2 MSTORE PUSH1 0x20 PUSH1 0x4 DUP3 ADD MSTORE PUSH1 0x1E PUSH1 0x24 DUP3 ADD MSTORE PUSH32 0x496E636F72726563742055534454207472616E7366657220616D6F756E740000 PUSH1 0x44 DUP3 ADD MSTORE PUSH1 0x64 ADD PUSH2 0x787 JUMP JUMPDEST PUSH1 0x11 SLOAD PUSH2 0x100 SWAP1 DIV PUSH1 0xFF AND ISZERO PUSH2 0x45C4 JUMPI PUSH1 0x40 MLOAD PUSH3 0x461BCD PUSH1 0xE5 SHL DUP2 MSTORE PUSH1 0x4 ADD PUSH2 0x787 SWAP1 PUSH2 0x70F4 JUMP JUMPDEST PUSH1 0x11 SLOAD PUSH1 0xFF AND ISZERO PUSH2 0x468F JUMPI PUSH1 0x40 DUP1 MLOAD PUSH1 0x60 DUP2 ADD DUP3 MSTORE PUSH1 0x1 PUSH1 0x1 PUSH1 0xA0 SHL SUB SWAP5 DUP6 AND DUP2 MSTORE PUSH1 0x20 DUP2 ADD SWAP4 DUP5 MSTORE SWAP1 DUP2 ADD SWAP2 DUP3 MSTORE PUSH1 0x10 DUP1 SLOAD PUSH1 0x1 DUP2 ADD DUP3 SSTORE PUSH0 SWAP2 SWAP1 SWAP2 MSTORE SWAP1 MLOAD PUSH32 0x1B6847DC741A1B0CD08D278845F9D819D87B734759AFB55FE2DE5CB82A9AE672 PUSH1 0x3 SWAP1 SWAP3 MUL SWAP2 DUP3 ADD DUP1 SLOAD PUSH1 0x1 PUSH1 0x1 PUSH1 0xA0 SHL SUB NOT AND SWAP2 SWAP1 SWAP6 AND OR SWAP1 SWAP4 SSTORE SWAP1 MLOAD PUSH32 0x1B6847DC741A1B0CD08D278845F9D819D87B734759AFB55FE2DE5CB82A9AE673 DUP4 ADD SSTORE MLOAD PUSH32 0x1B6847DC741A1B0CD08D278845F9D819D87B734759AFB55FE2DE5CB82A9AE674 SWAP1 SWAP2 ADD SSTORE JUMP JUMPDEST PUSH2 0x4697 PUSH2 0x4C14 JUMP JUMPDEST PUSH2 0x8CE DUP4 DUP4 DUP4 PUSH2 0x57DA JUMP JUMPDEST PUSH0 DUP3 PUSH1 0x1 PUSH1 0x1 PUSH1 0xA0 SHL SUB AND PUSH4 0xEE82CFD0 PUSH1 0x40 MLOAD DUP2 PUSH4 0xFFFFFFFF AND PUSH1 0xE0 SHL DUP2 MSTORE PUSH1 0x4 ADD PUSH1 0x20 PUSH1 0x40 MLOAD DUP1 DUP4 SUB DUP2 DUP7 GAS STATICCALL ISZERO DUP1 ISZERO PUSH2 0x46DF JUMPI RETURNDATASIZE PUSH0 DUP1 RETURNDATACOPY RETURNDATASIZE PUSH0 REVERT JUMPDEST POP POP POP POP PUSH1 0x40 MLOAD RETURNDATASIZE PUSH1 0x1F NOT PUSH1 0x1F DUP3 ADD AND DUP3 ADD DUP1 PUSH1 0x40 MSTORE POP DUP2 ADD SWAP1 PUSH2 0x4703 SWAP2 SWAP1 PUSH2 0x73A7 JUMP JUMPDEST DUP3 SLOAD SWAP1 SWAP2 POP DUP1 PUSH2 0x4761 JUMPI PUSH1 0x40 MLOAD PUSH3 0x461BCD PUSH1 0xE5 SHL DUP2 MSTORE PUSH1 0x20 PUSH1 0x4 DUP3 ADD MSTORE PUSH1 0x23 PUSH1 0x24 DUP3 ADD MSTORE PUSH32 0x4E6F204E6174696F6E616C204469726563746F727320746F2064697374726962 PUSH1 0x44 DUP3 ADD MSTORE PUSH3 0x757465 PUSH1 0xE8 SHL PUSH1 0x64 DUP3 ADD MSTORE PUSH1 0x84 ADD PUSH2 0x787 JUMP JUMPDEST PUSH0 PUSH2 0x476C DUP3 DUP5 PUSH2 0x723F JUMP JUMPDEST SWAP1 POP PUSH0 DUP2 GT PUSH2 0x47B1 JUMPI PUSH1 0x40 MLOAD PUSH3 0x461BCD PUSH1 0xE5 SHL DUP2 MSTORE PUSH1 0x20 PUSH1 0x4 DUP3 ADD MSTORE PUSH1 0x11 PUSH1 0x24 DUP3 ADD MSTORE PUSH17 0x125B9CDD59999A58DA595B9D081C1BDBDB PUSH1 0x7A SHL PUSH1 0x44 DUP3 ADD MSTORE PUSH1 0x64 ADD PUSH2 0x787 JUMP JUMPDEST PUSH1 0x40 MLOAD PUSH4 0x21C2C5D PUSH1 0xE2 SHL DUP2 MSTORE PUSH1 0x4 DUP2 ADD DUP5 SWAP1 MSTORE PUSH1 0x1 PUSH1 0x1 PUSH1 0xA0 SHL SUB DUP7 AND SWAP1 PUSH4 0x870B174 SWAP1 PUSH1 0x24 ADD PUSH0 PUSH1 0x40 MLOAD DUP1 DUP4 SUB DUP2 PUSH0 DUP8 DUP1 EXTCODESIZE ISZERO DUP1 ISZERO PUSH2 0x47F0 JUMPI PUSH0 DUP1 REVERT JUMPDEST POP GAS CALL ISZERO DUP1 ISZERO PUSH2 0x4802 JUMPI RETURNDATASIZE PUSH0 DUP1 RETURNDATACOPY RETURNDATASIZE PUSH0 REVERT JUMPDEST POP POP POP POP PUSH1 0x60 DUP1 PUSH0 DUP1 JUMPDEST DUP6 DUP2 LT ISZERO PUSH2 0x48A6 JUMPI DUP8 DUP2 DUP2 SLOAD DUP2 LT PUSH2 0x4826 JUMPI PUSH2 0x4826 PUSH2 0x709B JUMP JUMPDEST SWAP1 PUSH0 MSTORE PUSH1 0x20 PUSH0 KECCAK256 ADD PUSH0 SWAP1 SLOAD SWAP1 PUSH2 0x100 EXP SWAP1 DIV PUSH1 0x1 PUSH1 0x1 PUSH1 0xA0 SHL SUB AND DUP5 DUP4 DUP2 MLOAD DUP2 LT PUSH2 0x4853 JUMPI PUSH2 0x4853 PUSH2 0x709B JUMP JUMPDEST PUSH1 0x20 MUL PUSH1 0x20 ADD ADD SWAP1 PUSH1 0x1 PUSH1 0x1 PUSH1 0xA0 SHL SUB AND SWAP1 DUP2 PUSH1 0x1 PUSH1 0x1 PUSH1 0xA0 SHL SUB AND DUP2 MSTORE POP POP DUP5 DUP4 DUP4 DUP2 MLOAD DUP2 LT PUSH2 0x4886 JUMPI PUSH2 0x4886 PUSH2 0x709B JUMP JUMPDEST PUSH1 0x20 SWAP1 DUP2 MUL SWAP2 SWAP1 SWAP2 ADD ADD MSTORE DUP2 PUSH2 0x489B DUP2 PUSH2 0x70DC JUMP JUMPDEST SWAP3 POP POP PUSH1 0x1 ADD PUSH2 0x480C JUMP JUMPDEST POP PUSH1 0x40 MLOAD PUSH4 0xBD0DC97 PUSH1 0xE4 SHL DUP2 MSTORE PUSH1 0x1 PUSH1 0x1 PUSH1 0xA0 SHL SUB DUP10 AND SWAP1 PUSH4 0xBD0DC970 SWAP1 PUSH2 0x48DD SWAP1 PUSH0 SWAP1 DUP8 SWAP1 DUP8 SWAP1 PUSH1 0x1 SWAP1 PUSH1 0x8 SWAP1 PUSH1 0x4 ADD PUSH2 0x7840 JUMP JUMPDEST PUSH0 PUSH1 0x40 MLOAD DUP1 DUP4 SUB DUP2 PUSH0 DUP8 DUP1 EXTCODESIZE ISZERO DUP1 ISZERO PUSH2 0x48F4 JUMPI PUSH0 DUP1 REVERT JUMPDEST POP GAS CALL ISZERO DUP1 ISZERO PUSH2 0x4906 JUMPI RETURNDATASIZE PUSH0 DUP1 RETURNDATACOPY RETURNDATASIZE PUSH0 REVERT JUMPDEST POP POP POP POP POP POP POP POP POP POP POP POP JUMP JUMPDEST PUSH1 0x1 PUSH1 0x1 PUSH1 0xA0 SHL SUB DUP1 DUP3 AND PUSH0 DUP2 DUP2 MSTORE PUSH1 0x20 DUP9 SWAP1 MSTORE PUSH1 0x40 SWAP1 KECCAK256 PUSH1 0x2 ADD SLOAD PUSH1 0xFF AND SWAP2 DUP5 AND SWAP1 SUB PUSH2 0x4966 JUMPI PUSH0 JUMPDEST PUSH1 0x4 DUP2 PUSH1 0xFF AND LT ISZERO PUSH2 0x4960 JUMPI PUSH2 0x4958 DUP7 DUP5 DUP4 PUSH0 DUP1 PUSH0 PUSH2 0x5DA6 JUMP JUMPDEST PUSH1 0x1 ADD PUSH2 0x493E JUMP JUMPDEST POP PUSH2 0x4BB5 JUMP JUMPDEST PUSH1 0x5 DUP2 PUSH1 0x7 DUP2 GT ISZERO PUSH2 0x497A JUMPI PUSH2 0x497A PUSH2 0x6B58 JUMP JUMPDEST EQ DUP1 PUSH2 0x4997 JUMPI POP PUSH1 0x6 DUP2 PUSH1 0x7 DUP2 GT ISZERO PUSH2 0x4995 JUMPI PUSH2 0x4995 PUSH2 0x6B58 JUMP JUMPDEST EQ JUMPDEST DUP1 PUSH2 0x49B3 JUMPI POP PUSH1 0x7 DUP2 PUSH1 0x7 DUP2 GT ISZERO PUSH2 0x49B1 JUMPI PUSH2 0x49B1 PUSH2 0x6B58 JUMP JUMPDEST EQ JUMPDEST ISZERO PUSH2 0x4AE5 JUMPI PUSH1 0x1 PUSH1 0x1 PUSH1 0xA0 SHL SUB DUP1 DUP4 AND PUSH0 DUP2 DUP2 MSTORE PUSH1 0x20 DUP8 DUP2 MSTORE PUSH1 0x40 DUP1 DUP4 KECCAK256 DUP1 SLOAD PUSH1 0x1 PUSH1 0x1 PUSH1 0xA0 SHL SUB NOT AND SWAP1 SWAP5 OR SWAP1 SWAP4 SSTORE DUP10 SWAP1 MSTORE KECCAK256 SLOAD AND DUP1 PUSH2 0x4A06 JUMPI PUSH1 0x40 MLOAD PUSH3 0x461BCD PUSH1 0xE5 SHL DUP2 MSTORE PUSH1 0x4 ADD PUSH2 0x787 SWAP1 PUSH2 0x78A8 JUMP JUMPDEST PUSH0 JUMPDEST PUSH1 0x4 DUP2 PUSH1 0xFF AND LT ISZERO PUSH2 0x4ADE JUMPI PUSH0 DUP1 DUP1 PUSH1 0x7 DUP7 PUSH1 0x7 DUP2 GT ISZERO PUSH2 0x4A2B JUMPI PUSH2 0x4A2B PUSH2 0x6B58 JUMP JUMPDEST SUB PUSH2 0x4A3D JUMPI POP DUP6 SWAP2 POP DUP2 SWAP1 POP DUP1 PUSH2 0x4AC5 JUMP JUMPDEST PUSH1 0x6 DUP7 PUSH1 0x7 DUP2 GT ISZERO PUSH2 0x4A51 JUMPI PUSH2 0x4A51 PUSH2 0x6B58 JUMP JUMPDEST SUB PUSH2 0x4A8B JUMPI POP POP POP PUSH1 0x1 PUSH1 0x1 PUSH1 0xA0 SHL SUB DUP1 DUP4 AND PUSH0 SWAP1 DUP2 MSTORE PUSH1 0x20 DUP10 DUP2 MSTORE PUSH1 0x40 DUP1 DUP4 KECCAK256 PUSH1 0xFF DUP7 AND DUP5 MSTORE SWAP1 SWAP2 MSTORE SWAP1 KECCAK256 PUSH1 0x2 ADD SLOAD DUP6 SWAP2 DUP3 SWAP2 AND PUSH2 0x4AC5 JUMP JUMPDEST POP POP POP PUSH1 0x1 PUSH1 0x1 PUSH1 0xA0 SHL SUB DUP3 DUP2 AND PUSH0 SWAP1 DUP2 MSTORE PUSH1 0x20 DUP10 DUP2 MSTORE PUSH1 0x40 DUP1 DUP4 KECCAK256 PUSH1 0xFF DUP7 AND DUP5 MSTORE SWAP1 SWAP2 MSTORE SWAP1 KECCAK256 PUSH1 0x2 DUP2 ADD SLOAD PUSH1 0x1 SWAP1 SWAP2 ADD SLOAD DUP7 SWAP3 SWAP1 DUP2 AND SWAP2 AND JUMPDEST PUSH2 0x4AD3 DUP11 DUP9 DUP7 DUP7 DUP7 DUP7 PUSH2 0x5DA6 JUMP JUMPDEST POP POP POP PUSH1 0x1 ADD PUSH2 0x4A08 JUMP JUMPDEST POP POP PUSH2 0x4BB5 JUMP JUMPDEST PUSH1 0x1 PUSH1 0x1 PUSH1 0xA0 SHL SUB DUP1 DUP4 AND PUSH0 SWAP1 DUP2 MSTORE PUSH1 0x20 DUP9 SWAP1 MSTORE PUSH1 0x40 SWAP1 KECCAK256 SLOAD AND DUP1 PUSH2 0x4B1C JUMPI PUSH1 0x40 MLOAD PUSH3 0x461BCD PUSH1 0xE5 SHL DUP2 MSTORE PUSH1 0x4 ADD PUSH2 0x787 SWAP1 PUSH2 0x78A8 JUMP JUMPDEST PUSH0 JUMPDEST PUSH1 0x4 DUP2 PUSH1 0xFF AND LT ISZERO PUSH2 0x4B3E JUMPI PUSH2 0x4B36 DUP8 DUP4 DUP7 DUP5 PUSH2 0x5E2D JUMP JUMPDEST PUSH1 0x1 ADD PUSH2 0x4B1E JUMP JUMPDEST POP PUSH1 0x4 DUP3 PUSH1 0x7 DUP2 GT ISZERO PUSH2 0x4B53 JUMPI PUSH2 0x4B53 PUSH2 0x6B58 JUMP JUMPDEST SUB PUSH2 0x4B85 JUMPI PUSH1 0x1 PUSH1 0x1 PUSH1 0xA0 SHL SUB DUP4 AND PUSH0 DUP2 DUP2 MSTORE PUSH1 0x20 DUP8 SWAP1 MSTORE PUSH1 0x40 SWAP1 KECCAK256 DUP1 SLOAD PUSH1 0x1 PUSH1 0x1 PUSH1 0xA0 SHL SUB NOT AND SWAP1 SWAP2 OR SWAP1 SSTORE PUSH2 0x4BB3 JUMP JUMPDEST PUSH1 0x1 PUSH1 0x1 PUSH1 0xA0 SHL SUB DUP4 DUP2 AND PUSH0 SWAP1 DUP2 MSTORE PUSH1 0x20 DUP8 SWAP1 MSTORE PUSH1 0x40 SWAP1 KECCAK256 DUP1 SLOAD PUSH1 0x1 PUSH1 0x1 PUSH1 0xA0 SHL SUB NOT AND SWAP2 DUP4 AND SWAP2 SWAP1 SWAP2 OR SWAP1 SSTORE JUMPDEST POP JUMPDEST PUSH1 0x1 PUSH1 0x1 PUSH1 0xA0 SHL SUB DUP3 AND PUSH0 SWAP1 DUP2 MSTORE PUSH1 0x20 DUP8 SWAP1 MSTORE PUSH1 0x40 DUP2 KECCAK256 PUSH1 0x1 ADD SWAP1 JUMPDEST DUP2 SLOAD DUP2 LT ISZERO PUSH2 0x1485 JUMPI PUSH2 0x4C0C DUP9 DUP9 DUP9 DUP9 DUP7 DUP7 DUP2 SLOAD DUP2 LT PUSH2 0x4BF3 JUMPI PUSH2 0x4BF3 PUSH2 0x709B JUMP JUMPDEST PUSH0 SWAP2 DUP3 MSTORE PUSH1 0x20 SWAP1 SWAP2 KECCAK256 ADD SLOAD PUSH1 0x1 PUSH1 0x1 PUSH1 0xA0 SHL SUB AND PUSH2 0x4914 JUMP JUMPDEST PUSH1 0x1 ADD PUSH2 0x4BD1 JUMP JUMPDEST PUSH1 0x11 SLOAD PUSH1 0xFF AND ISZERO PUSH2 0x4C61 JUMPI PUSH1 0x40 MLOAD PUSH3 0x461BCD PUSH1 0xE5 SHL DUP2 MSTORE PUSH1 0x20 PUSH1 0x4 DUP3 ADD MSTORE PUSH1 0x17 PUSH1 0x24 DUP3 ADD MSTORE PUSH23 0x4261746368207570646174652069732072756E6E696E67 PUSH1 0x48 SHL PUSH1 0x44 DUP3 ADD MSTORE PUSH1 0x64 ADD PUSH2 0x787 JUMP JUMPDEST PUSH0 JUMPDEST PUSH1 0xF SLOAD DUP2 LT ISZERO PUSH2 0x4D2B JUMPI PUSH2 0x4D23 PUSH1 0xF DUP3 DUP2 SLOAD DUP2 LT PUSH2 0x4C83 JUMPI PUSH2 0x4C83 PUSH2 0x709B JUMP JUMPDEST PUSH0 SWAP2 DUP3 MSTORE PUSH1 0x20 SWAP1 SWAP2 KECCAK256 PUSH1 0x5 SWAP1 SWAP2 MUL ADD SLOAD PUSH1 0xF DUP1 SLOAD PUSH1 0x1 PUSH1 0x1 PUSH1 0xA0 SHL SUB SWAP1 SWAP3 AND SWAP2 DUP5 SWAP1 DUP2 LT PUSH2 0x4CB3 JUMPI PUSH2 0x4CB3 PUSH2 0x709B JUMP JUMPDEST SWAP1 PUSH0 MSTORE PUSH1 0x20 PUSH0 KECCAK256 SWAP1 PUSH1 0x5 MUL ADD PUSH1 0x1 ADD PUSH0 SWAP1 SLOAD SWAP1 PUSH2 0x100 EXP SWAP1 DIV PUSH1 0x1 PUSH1 0x1 PUSH1 0xA0 SHL SUB AND PUSH1 0xF DUP5 DUP2 SLOAD DUP2 LT PUSH2 0x4CE8 JUMPI PUSH2 0x4CE8 PUSH2 0x709B JUMP JUMPDEST SWAP1 PUSH0 MSTORE PUSH1 0x20 PUSH0 KECCAK256 SWAP1 PUSH1 0x5 MUL ADD PUSH1 0x2 ADD SLOAD PUSH1 0xF DUP6 DUP2 SLOAD DUP2 LT PUSH2 0x4D0B JUMPI PUSH2 0x4D0B PUSH2 0x709B JUMP JUMPDEST SWAP1 PUSH0 MSTORE PUSH1 0x20 PUSH0 KECCAK256 SWAP1 PUSH1 0x5 MUL ADD PUSH1 0x3 ADD SLOAD PUSH0 DUP1 SHL PUSH2 0x4DB5 JUMP JUMPDEST PUSH1 0x1 ADD PUSH2 0x4C63 JUMP JUMPDEST POP PUSH2 0x4D37 PUSH1 0xF PUSH0 PUSH2 0x67E4 JUMP JUMPDEST PUSH0 JUMPDEST PUSH1 0x10 SLOAD DUP2 LT ISZERO PUSH2 0x4DA9 JUMPI PUSH2 0x4DA1 PUSH1 0x10 DUP3 DUP2 SLOAD DUP2 LT PUSH2 0x4D59 JUMPI PUSH2 0x4D59 PUSH2 0x709B JUMP JUMPDEST PUSH0 SWAP2 DUP3 MSTORE PUSH1 0x20 SWAP1 SWAP2 KECCAK256 PUSH1 0x3 SWAP1 SWAP2 MUL ADD SLOAD PUSH1 0x10 DUP1 SLOAD PUSH1 0x1 PUSH1 0x1 PUSH1 0xA0 SHL SUB SWAP1 SWAP3 AND SWAP2 DUP5 SWAP1 DUP2 LT PUSH2 0x4D89 JUMPI PUSH2 0x4D89 PUSH2 0x709B JUMP JUMPDEST SWAP1 PUSH0 MSTORE PUSH1 0x20 PUSH0 KECCAK256 SWAP1 PUSH1 0x3 MUL ADD PUSH1 0x1 ADD SLOAD PUSH0 DUP1 SHL PUSH2 0x57DA JUMP JUMPDEST PUSH1 0x1 ADD PUSH2 0x4D39 JUMP JUMPDEST POP PUSH2 0x14D0 PUSH1 0x10 PUSH0 PUSH2 0x6802 JUMP JUMPDEST PUSH1 0x1C SLOAD PUSH1 0x40 MLOAD PUSH4 0x7CCE9939 PUSH1 0xE0 SHL DUP2 MSTORE PUSH1 0x4 DUP2 ADD DUP5 SWAP1 MSTORE PUSH1 0x24 DUP2 ADD DUP6 SWAP1 MSTORE PUSH0 SWAP2 PUSH1 0x1 PUSH1 0x1 PUSH1 0xA0 SHL SUB AND SWAP1 PUSH4 0x7CCE9939 SWAP1 PUSH1 0x44 ADD PUSH1 0x20 PUSH1 0x40 MLOAD DUP1 DUP4 SUB DUP2 DUP7 GAS STATICCALL ISZERO DUP1 ISZERO PUSH2 0x4E03 JUMPI RETURNDATASIZE PUSH0 DUP1 RETURNDATACOPY RETURNDATASIZE PUSH0 REVERT JUMPDEST POP POP POP POP PUSH1 0x40 MLOAD RETURNDATASIZE PUSH1 0x1F NOT PUSH1 0x1F DUP3 ADD AND DUP3 ADD DUP1 PUSH1 0x40 MSTORE POP DUP2 ADD SWAP1 PUSH2 0x4E27 SWAP2 SWAP1 PUSH2 0x71E6 JUMP JUMPDEST PUSH1 0x40 DUP1 MLOAD PUSH1 0x80 DUP2 ADD DUP3 MSTORE PUSH1 0x1 PUSH1 0x1 PUSH1 0xA0 SHL SUB DUP9 DUP2 AND DUP3 MSTORE DUP3 MLOAD PUSH0 DUP1 DUP3 MSTORE PUSH1 0x20 DUP1 DUP4 ADD DUP7 MSTORE DUP1 DUP6 ADD SWAP3 DUP4 MSTORE DUP5 DUP7 ADD DUP3 SWAP1 MSTORE PUSH1 0x60 DUP6 ADD DUP3 SWAP1 MSTORE DUP13 DUP5 AND DUP3 MSTORE PUSH1 0x4 DUP2 MSTORE SWAP5 SWAP1 KECCAK256 DUP4 MLOAD DUP2 SLOAD PUSH1 0x1 PUSH1 0x1 PUSH1 0xA0 SHL SUB NOT AND SWAP4 AND SWAP3 SWAP1 SWAP3 OR DUP3 SSTORE MLOAD DUP1 MLOAD SWAP5 SWAP6 POP SWAP2 SWAP4 SWAP1 SWAP3 PUSH2 0x4E9B SWAP3 PUSH1 0x1 DUP6 ADD SWAP3 SWAP2 ADD SWAP1 PUSH2 0x6820 JUMP JUMPDEST POP PUSH1 0x40 DUP3 ADD MLOAD PUSH1 0x2 DUP3 ADD DUP1 SLOAD PUSH1 0xFF NOT AND PUSH1 0x1 DUP4 PUSH1 0x7 DUP2 GT ISZERO PUSH2 0x4EBF JUMPI PUSH2 0x4EBF PUSH2 0x6B58 JUMP JUMPDEST MUL OR SWAP1 SSTORE POP PUSH1 0x60 DUP3 ADD MLOAD PUSH1 0x2 DUP3 ADD DUP1 SLOAD PUSH2 0xFF00 NOT AND PUSH2 0x100 DUP4 PUSH1 0x3 DUP2 GT ISZERO PUSH2 0x4EE9 JUMPI PUSH2 0x4EE9 PUSH2 0x6B58 JUMP JUMPDEST MUL OR SWAP1 SSTORE POP SWAP1 POP POP PUSH1 0x40 MLOAD DUP1 PUSH1 0xA0 ADD PUSH1 0x40 MSTORE DUP1 TIMESTAMP PUSH4 0x1E13380 PUSH2 0x4F0C SWAP2 SWAP1 PUSH2 0x7075 JUMP JUMPDEST DUP2 MSTORE PUSH0 PUSH1 0x20 DUP1 DUP4 ADD DUP3 SWAP1 MSTORE PUSH1 0x40 DUP1 DUP5 ADD DUP4 SWAP1 MSTORE PUSH1 0x60 DUP1 DUP6 ADD DUP5 SWAP1 MSTORE PUSH1 0x80 SWAP5 DUP6 ADD DUP5 SWAP1 MSTORE PUSH1 0x1 PUSH1 0x1 PUSH1 0xA0 SHL SUB DUP13 AND DUP5 MSTORE PUSH1 0x5 DUP4 MSTORE DUP2 DUP5 KECCAK256 DUP7 MLOAD DUP2 SSTORE DUP7 DUP5 ADD MLOAD PUSH1 0x1 DUP3 ADD SSTORE DUP7 DUP4 ADD MLOAD PUSH1 0x2 DUP3 ADD SSTORE SWAP1 DUP7 ADD MLOAD PUSH1 0x3 DUP3 ADD SSTORE SWAP5 SWAP1 SWAP4 ADD MLOAD PUSH1 0x4 SWAP1 SWAP5 ADD SWAP4 SWAP1 SWAP4 SSTORE SWAP1 MLOAD SWAP1 SWAP2 PUSH2 0x4F92 SWAP2 DUP10 SWAP2 ADD PUSH1 0x60 SWAP2 SWAP1 SWAP2 SHL PUSH1 0x1 PUSH1 0x1 PUSH1 0x60 SHL SUB NOT AND DUP2 MSTORE PUSH1 0x14 ADD SWAP1 JUMP JUMPDEST PUSH1 0x40 DUP1 MLOAD DUP1 DUP4 SUB PUSH1 0x1F NOT ADD DUP2 MSTORE SWAP1 DUP3 SWAP1 MSTORE DUP1 MLOAD PUSH1 0x20 SWAP1 SWAP2 ADD KECCAK256 PUSH1 0x1B SLOAD PUSH4 0x180DB04B PUSH1 0xE1 SHL DUP4 MSTORE PUSH1 0x4 DUP4 ADD DUP3 SWAP1 MSTORE SWAP1 SWAP3 POP PUSH0 SWAP2 PUSH1 0x1 PUSH1 0x1 PUSH1 0xA0 SHL SUB SWAP1 SWAP2 AND SWAP1 PUSH4 0x301B6096 SWAP1 PUSH1 0x24 ADD PUSH1 0x20 PUSH1 0x40 MLOAD DUP1 DUP4 SUB DUP2 DUP7 GAS STATICCALL ISZERO DUP1 ISZERO PUSH2 0x4FF4 JUMPI RETURNDATASIZE PUSH0 DUP1 RETURNDATACOPY RETURNDATASIZE PUSH0 REVERT JUMPDEST POP POP POP POP PUSH1 0x40 MLOAD RETURNDATASIZE PUSH1 0x1F NOT PUSH1 0x1F DUP3 ADD AND DUP3 ADD DUP1 PUSH1 0x40 MSTORE POP DUP2 ADD SWAP1 PUSH2 0x5018 SWAP2 SWAP1 PUSH2 0x71E6 JUMP JUMPDEST PUSH1 0x1 PUSH1 0x1 PUSH1 0xA0 SHL SUB AND SUB PUSH2 0x5088 JUMPI PUSH1 0x1B SLOAD PUSH1 0x40 MLOAD PUSH4 0x590F6187 PUSH1 0xE1 SHL DUP2 MSTORE PUSH1 0x1 PUSH1 0x1 PUSH1 0xA0 SHL SUB SWAP1 SWAP2 AND SWAP1 PUSH4 0xB21EC30E SWAP1 PUSH2 0x505A SWAP1 DUP11 SWAP1 DUP10 SWAP1 DUP10 SWAP1 PUSH1 0x4 ADD PUSH2 0x7285 JUMP JUMPDEST PUSH0 PUSH1 0x40 MLOAD DUP1 DUP4 SUB DUP2 PUSH0 DUP8 DUP1 EXTCODESIZE ISZERO DUP1 ISZERO PUSH2 0x5071 JUMPI PUSH0 DUP1 REVERT JUMPDEST POP GAS CALL ISZERO DUP1 ISZERO PUSH2 0x5083 JUMPI RETURNDATASIZE PUSH0 DUP1 RETURNDATACOPY RETURNDATASIZE PUSH0 REVERT JUMPDEST POP POP POP POP JUMPDEST PUSH1 0x3 DUP1 SLOAD PUSH1 0x1 DUP2 DUP2 ADD SWAP1 SWAP3 SSTORE PUSH32 0xC2575A0E9E593C00F959F8C92F12DB2869C3395A3B0502D05E2516446F71F85B ADD DUP1 SLOAD PUSH1 0x1 PUSH1 0x1 PUSH1 0xA0 SHL SUB DUP1 DUP12 AND PUSH1 0x1 PUSH1 0x1 PUSH1 0xA0 SHL SUB NOT SWAP3 DUP4 AND DUP2 OR SWAP1 SWAP4 SSTORE DUP10 AND PUSH0 DUP2 DUP2 MSTORE PUSH1 0x4 PUSH1 0x20 SWAP1 DUP2 MSTORE PUSH1 0x40 DUP1 DUP4 KECCAK256 DUP8 ADD DUP1 SLOAD DUP1 DUP10 ADD DUP3 SSTORE SWAP1 DUP5 MSTORE DUP3 DUP5 KECCAK256 ADD DUP1 SLOAD SWAP1 SWAP6 AND SWAP1 SWAP6 OR SWAP1 SWAP4 SSTORE SWAP1 DUP2 MSTORE PUSH1 0x7 SWAP1 SWAP2 MSTORE SWAP1 DUP2 KECCAK256 DUP1 SLOAD SWAP1 SWAP2 SWAP1 PUSH2 0x511C SWAP1 DUP5 SWAP1 PUSH2 0x7075 JUMP JUMPDEST SWAP1 SWAP2 SSTORE POP POP PUSH1 0x1 PUSH1 0x1 PUSH1 0xA0 SHL SUB DUP7 AND PUSH0 SWAP1 DUP2 MSTORE PUSH1 0x9 PUSH1 0x20 MSTORE PUSH1 0x40 DUP2 KECCAK256 DUP1 SLOAD PUSH1 0x1 SWAP3 SWAP1 PUSH2 0x5149 SWAP1 DUP5 SWAP1 PUSH2 0x7075 JUMP JUMPDEST SWAP1 SWAP2 SSTORE POP PUSH1 0x1 SWAP1 POP PUSH1 0x1 PUSH1 0x1 PUSH1 0xA0 SHL SUB DUP8 AND PUSH0 SWAP1 DUP2 MSTORE PUSH1 0x4 PUSH1 0x20 MSTORE PUSH1 0x40 SWAP1 KECCAK256 PUSH1 0x2 ADD SLOAD PUSH2 0x100 SWAP1 DIV PUSH1 0xFF AND PUSH1 0x3 DUP2 GT ISZERO PUSH2 0x5185 JUMPI PUSH2 0x5185 PUSH2 0x6B58 JUMP JUMPDEST EQ PUSH2 0x519C JUMPI PUSH2 0x5197 PUSH1 0x4 PUSH1 0xC DUP9 PUSH2 0x5EDE JUMP JUMPDEST PUSH2 0x519E JUMP JUMPDEST DUP6 JUMPDEST PUSH1 0x1 PUSH1 0x1 PUSH1 0xA0 SHL SUB DUP1 DUP10 AND PUSH0 DUP2 DUP2 MSTORE PUSH1 0xC PUSH1 0x20 MSTORE PUSH1 0x40 DUP1 DUP3 KECCAK256 DUP1 SLOAD SWAP6 DUP6 AND PUSH1 0x1 PUSH1 0x1 PUSH1 0xA0 SHL SUB NOT SWAP7 DUP8 AND OR SWAP1 SSTORE PUSH1 0xE DUP1 SLOAD PUSH1 0x1 DUP2 DUP2 ADD DUP4 SSTORE SWAP2 SWAP1 SWAP4 MSTORE PUSH32 0xBB7B4A454DC3493923482F07822329ED19E8244EFF582CC204F8554C3620C3FD SWAP1 SWAP3 ADD DUP1 SLOAD SWAP1 SWAP6 AND SWAP1 SWAP3 OR SWAP1 SWAP4 SSTORE PUSH1 0x1B SLOAD SWAP1 MLOAD PUSH4 0xE115DC7F PUSH1 0xE0 SHL DUP2 MSTORE SWAP2 AND SWAP2 PUSH4 0xE115DC7F SWAP2 PUSH2 0x5237 SWAP2 DUP11 SWAP2 DUP9 SWAP2 PUSH1 0xA SWAP2 PUSH1 0x3 SWAP1 PUSH1 0x4 ADD PUSH2 0x7252 JUMP JUMPDEST PUSH0 PUSH1 0x40 MLOAD DUP1 DUP4 SUB DUP2 PUSH0 DUP8 DUP1 EXTCODESIZE ISZERO DUP1 ISZERO PUSH2 0x524E JUMPI PUSH0 DUP1 REVERT JUMPDEST POP GAS CALL ISZERO DUP1 ISZERO PUSH2 0x5260 JUMPI RETURNDATASIZE PUSH0 DUP1 RETURNDATACOPY RETURNDATASIZE PUSH0 REVERT JUMPDEST POP POP POP POP PUSH1 0x1 PUSH1 0x1 PUSH1 0xA0 SHL SUB DUP3 AND ISZERO PUSH2 0x5366 JUMPI PUSH1 0x1C SLOAD PUSH1 0x40 MLOAD PUSH4 0xDA77ABED PUSH1 0xE0 SHL DUP2 MSTORE PUSH0 SWAP2 PUSH1 0x1 PUSH1 0x1 PUSH1 0xA0 SHL SUB AND SWAP1 PUSH4 0xDA77ABED SWAP1 PUSH2 0x52A6 SWAP1 DUP7 SWAP1 PUSH1 0x1 SWAP1 PUSH1 0x4 ADD PUSH2 0x73BE JUMP JUMPDEST PUSH1 0x20 PUSH1 0x40 MLOAD DUP1 DUP4 SUB DUP2 PUSH0 DUP8 GAS CALL ISZERO DUP1 ISZERO PUSH2 0x52C2 JUMPI RETURNDATASIZE PUSH0 DUP1 RETURNDATACOPY RETURNDATASIZE PUSH0 REVERT JUMPDEST POP POP POP POP PUSH1 0x40 MLOAD RETURNDATASIZE PUSH1 0x1F NOT PUSH1 0x1F DUP3 ADD AND DUP3 ADD DUP1 PUSH1 0x40 MSTORE POP DUP2 ADD SWAP1 PUSH2 0x52E6 SWAP2 SWAP1 PUSH2 0x73A7 JUMP JUMPDEST PUSH1 0x1B SLOAD SWAP1 SWAP2 POP PUSH1 0x1 PUSH1 0x1 PUSH1 0xA0 SHL SUB AND PUSH4 0xE115DC7F DUP5 DUP7 PUSH1 0x64 PUSH2 0x5309 DUP7 PUSH1 0x14 PUSH2 0x7791 JUMP JUMPDEST PUSH2 0x5313 SWAP2 SWAP1 PUSH2 0x723F JUMP JUMPDEST PUSH1 0x1 PUSH1 0x4 PUSH1 0x40 MLOAD DUP7 PUSH4 0xFFFFFFFF AND PUSH1 0xE0 SHL DUP2 MSTORE PUSH1 0x4 ADD PUSH2 0x5337 SWAP6 SWAP5 SWAP4 SWAP3 SWAP2 SWAP1 PUSH2 0x7252 JUMP JUMPDEST PUSH0 PUSH1 0x40 MLOAD DUP1 DUP4 SUB DUP2 PUSH0 DUP8 DUP1 EXTCODESIZE ISZERO DUP1 ISZERO PUSH2 0x534E JUMPI PUSH0 DUP1 REVERT JUMPDEST POP GAS CALL ISZERO DUP1 ISZERO PUSH2 0x5360 JUMPI RETURNDATASIZE PUSH0 DUP1 RETURNDATACOPY RETURNDATASIZE PUSH0 REVERT JUMPDEST POP POP POP POP POP JUMPDEST PUSH1 0x1B SLOAD PUSH1 0x16 SLOAD PUSH1 0x1 PUSH1 0x1 PUSH1 0xA0 SHL SUB SWAP2 DUP3 AND SWAP2 PUSH4 0xE115DC7F SWAP2 AND DUP6 PUSH2 0x538C PUSH1 0xA PUSH1 0x14 PUSH2 0x7075 JUMP JUMPDEST PUSH2 0x539D PUSH3 0xF4240 PUSH4 0x2625A00 PUSH2 0x723F JUMP JUMPDEST PUSH2 0x53A7 SWAP2 SWAP1 PUSH2 0x7088 JUMP JUMPDEST PUSH1 0x1 PUSH1 0x2 PUSH1 0x40 MLOAD DUP7 PUSH4 0xFFFFFFFF AND PUSH1 0xE0 SHL DUP2 MSTORE PUSH1 0x4 ADD PUSH2 0x53CB SWAP6 SWAP5 SWAP4 SWAP3 SWAP2 SWAP1 PUSH2 0x7252 JUMP JUMPDEST PUSH0 PUSH1 0x40 MLOAD DUP1 DUP4 SUB DUP2 PUSH0 DUP8 DUP1 EXTCODESIZE ISZERO DUP1 ISZERO PUSH2 0x53E2 JUMPI PUSH0 DUP1 REVERT JUMPDEST POP GAS CALL ISZERO DUP1 ISZERO PUSH2 0x53F4 JUMPI RETURNDATASIZE PUSH0 DUP1 RETURNDATACOPY RETURNDATASIZE PUSH0 REVERT JUMPDEST POP POP POP POP POP POP POP POP POP POP POP JUMP JUMPDEST PUSH1 0x1 DUP4 ADD SLOAD DUP2 LT PUSH2 0x544A JUMPI PUSH1 0x40 MLOAD PUSH3 0x461BCD PUSH1 0xE5 SHL DUP2 MSTORE PUSH1 0x20 PUSH1 0x4 DUP3 ADD MSTORE PUSH1 0x13 PUSH1 0x24 DUP3 ADD MSTORE PUSH19 0x125B9D985B1A59081859D95B9D081B195D995B PUSH1 0x6A SHL PUSH1 0x44 DUP3 ADD MSTORE PUSH1 0x64 ADD PUSH2 0x787 JUMP JUMPDEST PUSH1 0x1 PUSH1 0x1 PUSH1 0xA0 SHL SUB SWAP1 SWAP2 AND PUSH0 SWAP1 DUP2 MSTORE PUSH1 0x20 SWAP3 SWAP1 SWAP3 MSTORE PUSH1 0x40 SWAP1 SWAP2 KECCAK256 SSTORE JUMP JUMPDEST PUSH1 0x1 PUSH1 0x1 PUSH1 0xA0 SHL SUB DUP2 AND PUSH0 SWAP1 DUP2 MSTORE PUSH1 0x20 DUP5 SWAP1 MSTORE PUSH1 0x40 DUP2 KECCAK256 PUSH1 0x3 ADD SLOAD SWAP1 PUSH2 0x548D DUP7 DUP5 PUSH2 0x5F75 JUMP JUMPDEST SWAP1 POP PUSH3 0x186A0 DUP3 LT ISZERO DUP1 ISZERO PUSH2 0x54A3 JUMPI POP PUSH1 0x7 DUP2 LT ISZERO JUMPDEST ISZERO PUSH2 0x54F1 JUMPI PUSH1 0x1 PUSH1 0x1 PUSH1 0xA0 SHL SUB DUP4 AND PUSH0 DUP2 DUP2 MSTORE PUSH1 0x20 DUP9 DUP2 MSTORE PUSH1 0x40 DUP3 KECCAK256 PUSH1 0x2 ADD DUP1 SLOAD PUSH1 0xFF NOT AND PUSH1 0x7 OR SWAP1 SSTORE DUP7 SLOAD PUSH1 0x1 DUP2 ADD DUP9 SSTORE DUP8 DUP4 MSTORE SWAP2 KECCAK256 ADD DUP1 SLOAD PUSH1 0x1 PUSH1 0x1 PUSH1 0xA0 SHL SUB NOT AND SWAP1 SWAP2 OR SWAP1 SSTORE PUSH2 0x2836 JUMP JUMPDEST PUSH2 0xC350 DUP3 LT ISZERO DUP1 ISZERO PUSH2 0x5504 JUMPI POP PUSH1 0x6 DUP2 LT ISZERO JUMPDEST ISZERO PUSH2 0x553B JUMPI PUSH1 0x1 PUSH1 0x1 PUSH1 0xA0 SHL SUB DUP4 AND PUSH0 SWAP1 DUP2 MSTORE PUSH1 0x20 DUP8 SWAP1 MSTORE PUSH1 0x40 SWAP1 KECCAK256 PUSH1 0x2 ADD DUP1 SLOAD PUSH1 0x6 SWAP2 SWAP1 PUSH1 0xFF NOT AND PUSH1 0x1 DUP4 JUMPDEST MUL OR SWAP1 SSTORE POP PUSH2 0x2836 JUMP JUMPDEST PUSH2 0x61A8 DUP3 LT ISZERO DUP1 ISZERO PUSH2 0x554E JUMPI POP PUSH1 0x5 DUP2 LT ISZERO JUMPDEST ISZERO PUSH2 0x557F JUMPI PUSH1 0x1 PUSH1 0x1 PUSH1 0xA0 SHL SUB DUP4 AND PUSH0 SWAP1 DUP2 MSTORE PUSH1 0x20 DUP8 SWAP1 MSTORE PUSH1 0x40 SWAP1 KECCAK256 PUSH1 0x2 ADD DUP1 SLOAD PUSH1 0x5 SWAP2 SWAP1 PUSH1 0xFF NOT AND PUSH1 0x1 DUP4 PUSH2 0x5531 JUMP JUMPDEST PUSH2 0x2710 DUP3 LT ISZERO DUP1 ISZERO PUSH2 0x5592 JUMPI POP PUSH1 0x4 DUP2 LT ISZERO JUMPDEST ISZERO PUSH2 0x55C3 JUMPI PUSH1 0x1 PUSH1 0x1 PUSH1 0xA0 SHL SUB DUP4 AND PUSH0 SWAP1 DUP2 MSTORE PUSH1 0x20 DUP8 SWAP1 MSTORE PUSH1 0x40 SWAP1 KECCAK256 PUSH1 0x2 ADD DUP1 SLOAD PUSH1 0x4 SWAP2 SWAP1 PUSH1 0xFF NOT AND PUSH1 0x1 DUP4 PUSH2 0x5531 JUMP JUMPDEST PUSH2 0x1388 DUP3 LT ISZERO DUP1 ISZERO PUSH2 0x55D6 JUMPI POP PUSH1 0x3 DUP2 LT ISZERO JUMPDEST ISZERO PUSH2 0x5607 JUMPI PUSH1 0x1 PUSH1 0x1 PUSH1 0xA0 SHL SUB DUP4 AND PUSH0 SWAP1 DUP2 MSTORE PUSH1 0x20 DUP8 SWAP1 MSTORE PUSH1 0x40 SWAP1 KECCAK256 PUSH1 0x2 ADD DUP1 SLOAD PUSH1 0x3 SWAP2 SWAP1 PUSH1 0xFF NOT AND PUSH1 0x1 DUP4 PUSH2 0x5531 JUMP JUMPDEST PUSH2 0x9C4 DUP3 LT ISZERO DUP1 ISZERO PUSH2 0x561A JUMPI POP PUSH1 0x2 DUP2 LT ISZERO JUMPDEST ISZERO PUSH2 0x5649 JUMPI PUSH1 0x1 PUSH1 0x1 PUSH1 0xA0 SHL SUB DUP4 AND PUSH0 SWAP1 DUP2 MSTORE PUSH1 0x20 DUP8 SWAP1 MSTORE PUSH1 0x40 SWAP1 KECCAK256 PUSH1 0x2 SWAP1 DUP2 ADD DUP1 SLOAD PUSH1 0xFF NOT AND PUSH1 0x1 DUP4 PUSH2 0x5531 JUMP JUMPDEST PUSH1 0x1 DUP2 LT PUSH2 0x2836 JUMPI POP POP PUSH1 0x1 PUSH1 0x1 PUSH1 0xA0 SHL SUB AND PUSH0 SWAP1 DUP2 MSTORE PUSH1 0x20 SWAP4 SWAP1 SWAP4 MSTORE POP POP PUSH1 0x40 SWAP1 KECCAK256 PUSH1 0x2 ADD DUP1 SLOAD PUSH1 0xFF NOT AND PUSH1 0x1 OR SWAP1 SSTORE JUMP JUMPDEST PUSH2 0x1C76 DUP3 DUP3 PUSH1 0x40 MLOAD PUSH1 0x24 ADD PUSH2 0x5692 SWAP3 SWAP2 SWAP1 PUSH2 0x7909 JUMP JUMPDEST PUSH1 0x40 DUP1 MLOAD PUSH1 0x1F NOT DUP2 DUP5 SUB ADD DUP2 MSTORE SWAP2 SWAP1 MSTORE PUSH1 0x20 DUP2 ADD DUP1 MLOAD PUSH1 0x1 PUSH1 0x1 PUSH1 0xE0 SHL SUB AND PUSH4 0x319AF333 PUSH1 0xE0 SHL OR SWAP1 MSTORE PUSH2 0x6018 JUMP JUMPDEST PUSH1 0xE SLOAD PUSH0 SWAP1 PUSH1 0x1 PUSH1 0x1 PUSH1 0x40 SHL SUB DUP2 GT ISZERO PUSH2 0x56DD JUMPI PUSH2 0x56DD PUSH2 0x6932 JUMP JUMPDEST PUSH1 0x40 MLOAD SWAP1 DUP1 DUP3 MSTORE DUP1 PUSH1 0x20 MUL PUSH1 0x20 ADD DUP3 ADD PUSH1 0x40 MSTORE DUP1 ISZERO PUSH2 0x5706 JUMPI DUP2 PUSH1 0x20 ADD PUSH1 0x20 DUP3 MUL DUP1 CALLDATASIZE DUP4 CALLDATACOPY ADD SWAP1 POP JUMPDEST POP SWAP1 POP PUSH0 DUP1 JUMPDEST PUSH1 0xE SLOAD DUP2 LT ISZERO PUSH2 0x57C7 JUMPI PUSH1 0x4 PUSH0 PUSH1 0xE DUP4 DUP2 SLOAD DUP2 LT PUSH2 0x572C JUMPI PUSH2 0x572C PUSH2 0x709B JUMP JUMPDEST PUSH0 SWAP2 DUP3 MSTORE PUSH1 0x20 DUP1 DUP4 KECCAK256 SWAP1 SWAP2 ADD SLOAD PUSH1 0x1 PUSH1 0x1 PUSH1 0xA0 SHL SUB AND DUP4 MSTORE DUP3 ADD SWAP3 SWAP1 SWAP3 MSTORE PUSH1 0x40 ADD DUP2 KECCAK256 PUSH1 0x1 ADD SLOAD SWAP1 SUB PUSH2 0x57BF JUMPI PUSH1 0xE DUP2 DUP2 SLOAD DUP2 LT PUSH2 0x576C JUMPI PUSH2 0x576C PUSH2 0x709B JUMP JUMPDEST SWAP1 PUSH0 MSTORE PUSH1 0x20 PUSH0 KECCAK256 ADD PUSH0 SWAP1 SLOAD SWAP1 PUSH2 0x100 EXP SWAP1 DIV PUSH1 0x1 PUSH1 0x1 PUSH1 0xA0 SHL SUB AND DUP4 DUP4 DUP2 MLOAD DUP2 LT PUSH2 0x5799 JUMPI PUSH2 0x5799 PUSH2 0x709B JUMP JUMPDEST PUSH1 0x1 PUSH1 0x1 PUSH1 0xA0 SHL SUB SWAP1 SWAP3 AND PUSH1 0x20 SWAP3 DUP4 MUL SWAP2 SWAP1 SWAP2 ADD SWAP1 SWAP2 ADD MSTORE DUP2 PUSH2 0x57BB DUP2 PUSH2 0x70DC JUMP JUMPDEST SWAP3 POP POP JUMPDEST PUSH1 0x1 ADD PUSH2 0x570C JUMP JUMPDEST POP DUP1 DUP3 MSTORE PUSH2 0x8CE PUSH1 0xE PUSH1 0x20 DUP5 ADD DUP4 PUSH2 0x6820 JUMP JUMPDEST PUSH1 0x1 PUSH1 0x1 PUSH1 0xA0 SHL SUB DUP4 DUP2 AND PUSH0 SWAP1 DUP2 MSTORE PUSH1 0x12 PUSH1 0x20 MSTORE PUSH1 0x40 SWAP1 KECCAK256 SLOAD AND ISZERO PUSH2 0x5817 JUMPI PUSH1 0x1 PUSH1 0x1 PUSH1 0xA0 SHL SUB SWAP3 DUP4 AND PUSH0 SWAP1 DUP2 MSTORE PUSH1 0x12 PUSH1 0x20 MSTORE PUSH1 0x40 SWAP1 KECCAK256 SLOAD SWAP1 SWAP3 AND SWAP2 JUMPDEST PUSH1 0x1 PUSH1 0x1 PUSH1 0xA0 SHL SUB DUP4 AND PUSH0 SWAP1 DUP2 MSTORE PUSH1 0x5 PUSH1 0x20 MSTORE PUSH1 0x40 DUP2 KECCAK256 PUSH1 0x2 ADD DUP1 SLOAD DUP5 SWAP3 SWAP1 PUSH2 0x5841 SWAP1 DUP5 SWAP1 PUSH2 0x7075 JUMP JUMPDEST SWAP1 SWAP2 SSTORE POP POP PUSH1 0x1 PUSH1 0x1 PUSH1 0xA0 SHL SUB DUP4 AND PUSH0 SWAP1 DUP2 MSTORE PUSH1 0x8 PUSH1 0x20 MSTORE PUSH1 0x40 DUP2 KECCAK256 DUP1 SLOAD DUP5 SWAP3 SWAP1 PUSH2 0x586D SWAP1 DUP5 SWAP1 PUSH2 0x7075 JUMP JUMPDEST SWAP1 SWAP2 SSTORE POP POP PUSH1 0x1 PUSH1 0x1 PUSH1 0xA0 SHL SUB DUP4 AND PUSH0 SWAP1 DUP2 MSTORE PUSH1 0x20 DUP2 SWAP1 MSTORE PUSH1 0x40 DUP2 KECCAK256 SLOAD DUP4 SWAP1 DUP3 SWAP1 ISZERO PUSH2 0x58DC JUMPI PUSH2 0x589F PUSH0 DUP8 PUSH1 0x14 PUSH2 0x6038 JUMP JUMPDEST SWAP3 POP PUSH2 0x3E8 PUSH2 0x58B0 PUSH2 0x145 DUP8 PUSH2 0x7791 JUMP JUMPDEST PUSH2 0x58BA SWAP2 SWAP1 PUSH2 0x723F JUMP JUMPDEST SWAP2 POP PUSH2 0x3E8 PUSH2 0x58CB DUP7 PUSH2 0x113 PUSH2 0x7791 JUMP JUMPDEST PUSH2 0x58D5 SWAP2 SWAP1 PUSH2 0x723F JUMP JUMPDEST SWAP1 POP PUSH2 0x58FA JUMP JUMPDEST PUSH1 0x14 SWAP3 POP PUSH1 0x64 PUSH2 0x58ED DUP7 PUSH1 0x20 PUSH2 0x7791 JUMP JUMPDEST PUSH2 0x58F7 SWAP2 SWAP1 PUSH2 0x723F JUMP JUMPDEST SWAP1 POP JUMPDEST PUSH1 0x2 PUSH1 0x1 PUSH1 0x1 PUSH1 0xA0 SHL SUB DUP8 AND PUSH0 SWAP1 DUP2 MSTORE PUSH1 0x4 PUSH1 0x20 MSTORE PUSH1 0x40 SWAP1 KECCAK256 PUSH1 0x2 ADD SLOAD PUSH2 0x100 SWAP1 DIV PUSH1 0xFF AND PUSH1 0x3 DUP2 GT ISZERO PUSH2 0x5930 JUMPI PUSH2 0x5930 PUSH2 0x6B58 JUMP JUMPDEST EQ PUSH2 0x59AF JUMPI PUSH1 0x1B SLOAD PUSH1 0x1 PUSH1 0x1 PUSH1 0xA0 SHL SUB AND PUSH4 0xE115DC7F DUP8 DUP7 PUSH1 0x64 PUSH2 0x5954 DUP9 DUP12 PUSH2 0x7791 JUMP JUMPDEST PUSH2 0x595E SWAP2 SWAP1 PUSH2 0x723F JUMP JUMPDEST PUSH1 0x1 PUSH0 PUSH1 0x40 MLOAD DUP7 PUSH4 0xFFFFFFFF AND PUSH1 0xE0 SHL DUP2 MSTORE PUSH1 0x4 ADD PUSH2 0x5981 SWAP6 SWAP5 SWAP4 SWAP3 SWAP2 SWAP1 PUSH2 0x7252 JUMP JUMPDEST PUSH0 PUSH1 0x40 MLOAD DUP1 DUP4 SUB DUP2 PUSH0 DUP8 DUP1 EXTCODESIZE ISZERO DUP1 ISZERO PUSH2 0x5998 JUMPI PUSH0 DUP1 REVERT JUMPDEST POP GAS CALL ISZERO DUP1 ISZERO PUSH2 0x59AA JUMPI RETURNDATASIZE PUSH0 DUP1 RETURNDATACOPY RETURNDATASIZE PUSH0 REVERT JUMPDEST POP POP POP POP JUMPDEST PUSH0 PUSH1 0x1 PUSH1 0x1 PUSH1 0x1 PUSH1 0xA0 SHL SUB DUP9 AND PUSH0 SWAP1 DUP2 MSTORE PUSH1 0x4 PUSH1 0x20 MSTORE PUSH1 0x40 SWAP1 KECCAK256 PUSH1 0x2 ADD SLOAD PUSH2 0x100 SWAP1 DIV PUSH1 0xFF AND PUSH1 0x3 DUP2 GT ISZERO PUSH2 0x59E6 JUMPI PUSH2 0x59E6 PUSH2 0x6B58 JUMP JUMPDEST EQ SWAP1 POP PUSH2 0x59FC PUSH1 0x4 PUSH1 0x5 PUSH1 0x7 PUSH1 0x8 PUSH1 0xA DUP13 PUSH2 0x3C6B JUMP JUMPDEST POP DUP1 ISZERO DUP1 ISZERO PUSH2 0x5A3E JUMPI POP PUSH1 0x1 PUSH1 0x1 PUSH1 0x1 PUSH1 0xA0 SHL SUB DUP9 AND PUSH0 SWAP1 DUP2 MSTORE PUSH1 0x4 PUSH1 0x20 MSTORE PUSH1 0x40 SWAP1 KECCAK256 PUSH1 0x2 ADD SLOAD PUSH2 0x100 SWAP1 DIV PUSH1 0xFF AND PUSH1 0x3 DUP2 GT ISZERO PUSH2 0x5A3C JUMPI PUSH2 0x5A3C PUSH2 0x6B58 JUMP JUMPDEST EQ JUMPDEST ISZERO PUSH2 0x5A50 JUMPI PUSH2 0x5A50 PUSH1 0x4 PUSH1 0xC DUP10 PUSH2 0x42FF JUMP JUMPDEST DUP7 PUSH1 0x1 PUSH1 0x1 PUSH1 0xA0 SHL SUB AND PUSH32 0xDF1AC62D04B5B70D0905C8F87D228F5DA1978AB102137D771163B0ADE4EB2FEE DUP8 PUSH1 0x40 MLOAD PUSH2 0x5A8B SWAP2 DUP2 MSTORE PUSH1 0x20 ADD SWAP1 JUMP JUMPDEST PUSH1 0x40 MLOAD DUP1 SWAP2 SUB SWAP1 LOG2 PUSH1 0x1B SLOAD PUSH2 0x5AB1 SWAP1 PUSH1 0x4 SWAP1 PUSH1 0xC SWAP1 PUSH1 0x1 PUSH1 0x1 PUSH1 0xA0 SHL SUB AND DUP11 DUP8 DUP11 PUSH2 0x6083 JUMP JUMPDEST PUSH2 0x5ABB DUP8 DUP5 PUSH2 0x626C JUMP JUMPDEST PUSH0 PUSH1 0x64 PUSH2 0x5AC9 PUSH1 0x2 DUP7 PUSH2 0x7791 JUMP JUMPDEST PUSH2 0x5AD3 SWAP2 SWAP1 PUSH2 0x723F JUMP JUMPDEST PUSH1 0x1B SLOAD PUSH1 0x40 MLOAD PUSH4 0x43CFF6B PUSH1 0xE3 SHL DUP2 MSTORE PUSH1 0x4 DUP2 ADD DUP4 SWAP1 MSTORE PUSH1 0x24 DUP2 ADD DUP10 SWAP1 MSTORE SWAP2 SWAP3 POP PUSH1 0x1 PUSH1 0x1 PUSH1 0xA0 SHL SUB AND SWAP1 PUSH4 0x21E7FB58 SWAP1 PUSH1 0x44 ADD PUSH0 PUSH1 0x40 MLOAD DUP1 DUP4 SUB DUP2 PUSH0 DUP8 DUP1 EXTCODESIZE ISZERO DUP1 ISZERO PUSH2 0x5B1E JUMPI PUSH0 DUP1 REVERT JUMPDEST POP GAS CALL ISZERO DUP1 ISZERO PUSH2 0x5B30 JUMPI RETURNDATASIZE PUSH0 DUP1 RETURNDATACOPY RETURNDATASIZE PUSH0 REVERT JUMPDEST POP POP POP POP PUSH1 0x1 PUSH1 0x1 PUSH1 0xA0 SHL SUB DUP9 DUP2 AND PUSH0 SWAP1 DUP2 MSTORE PUSH1 0x6 PUSH1 0x20 MSTORE PUSH1 0x40 SWAP1 KECCAK256 SLOAD AND DUP1 ISZERO PUSH2 0x5C8D JUMPI PUSH1 0x1C SLOAD PUSH1 0x40 MLOAD PUSH4 0xC849C1D PUSH1 0xE4 SHL DUP2 MSTORE PUSH0 SWAP2 PUSH1 0x1 PUSH1 0x1 PUSH1 0xA0 SHL SUB AND SWAP1 PUSH4 0xC849C1D0 SWAP1 PUSH2 0x5B86 SWAP1 DUP6 SWAP1 DUP11 SWAP1 PUSH1 0x4 ADD PUSH2 0x73BE JUMP JUMPDEST PUSH1 0x20 PUSH1 0x40 MLOAD DUP1 DUP4 SUB DUP2 PUSH0 DUP8 GAS CALL ISZERO DUP1 ISZERO PUSH2 0x5BA2 JUMPI RETURNDATASIZE PUSH0 DUP1 RETURNDATACOPY RETURNDATASIZE PUSH0 REVERT JUMPDEST POP POP POP POP PUSH1 0x40 MLOAD RETURNDATASIZE PUSH1 0x1F NOT PUSH1 0x1F DUP3 ADD AND DUP3 ADD DUP1 PUSH1 0x40 MSTORE POP DUP2 ADD SWAP1 PUSH2 0x5BC6 SWAP2 SWAP1 PUSH2 0x73A7 JUMP JUMPDEST SWAP1 POP PUSH0 PUSH2 0x2710 DUP3 PUSH2 0x5BD8 PUSH1 0x1 DUP11 PUSH2 0x7791 JUMP JUMPDEST PUSH2 0x5BE2 SWAP2 SWAP1 PUSH2 0x7791 JUMP JUMPDEST PUSH2 0x5BEC SWAP2 SWAP1 PUSH2 0x723F JUMP JUMPDEST SWAP1 POP PUSH2 0x5C1D PUSH1 0x40 MLOAD DUP1 PUSH1 0x40 ADD PUSH1 0x40 MSTORE DUP1 PUSH1 0xD DUP2 MSTORE PUSH1 0x20 ADD PUSH13 0x30B6B7BAB73A2128103630901D PUSH1 0x99 SHL DUP2 MSTORE POP DUP3 PUSH2 0x62E6 JUMP JUMPDEST DUP1 ISZERO PUSH2 0x5C8A JUMPI PUSH1 0x1B SLOAD PUSH1 0x40 MLOAD PUSH4 0xE115DC7F PUSH1 0xE0 SHL DUP2 MSTORE PUSH1 0x1 PUSH1 0x1 PUSH1 0xA0 SHL SUB SWAP1 SWAP2 AND SWAP1 PUSH4 0xE115DC7F SWAP1 PUSH2 0x5C5C SWAP1 DUP7 SWAP1 DUP14 SWAP1 DUP7 SWAP1 PUSH1 0x1 SWAP1 PUSH0 SWAP1 PUSH1 0x4 ADD PUSH2 0x7252 JUMP JUMPDEST PUSH0 PUSH1 0x40 MLOAD DUP1 DUP4 SUB DUP2 PUSH0 DUP8 DUP1 EXTCODESIZE ISZERO DUP1 ISZERO PUSH2 0x5C73 JUMPI PUSH0 DUP1 REVERT JUMPDEST POP GAS CALL ISZERO DUP1 ISZERO PUSH2 0x5C85 JUMPI RETURNDATASIZE PUSH0 DUP1 RETURNDATACOPY RETURNDATASIZE PUSH0 REVERT JUMPDEST POP POP POP POP JUMPDEST POP POP JUMPDEST PUSH1 0x1B SLOAD PUSH2 0x5CAE SWAP1 PUSH1 0x4 SWAP1 PUSH1 0xD SWAP1 PUSH1 0xB SWAP1 PUSH1 0x1 PUSH1 0x1 PUSH1 0xA0 SHL SUB AND DUP14 DUP14 DUP14 PUSH2 0x632B JUMP JUMPDEST PUSH1 0x1B SLOAD PUSH1 0x15 SLOAD PUSH1 0x1 PUSH1 0x1 PUSH1 0xA0 SHL SUB SWAP2 DUP3 AND SWAP2 PUSH4 0xE115DC7F SWAP2 AND DUP10 PUSH1 0x64 PUSH2 0x5CD5 PUSH1 0x4 DUP12 PUSH2 0x7791 JUMP JUMPDEST PUSH2 0x5CDF SWAP2 SWAP1 PUSH2 0x723F JUMP JUMPDEST PUSH1 0x1 DUP1 PUSH1 0x40 MLOAD DUP7 PUSH4 0xFFFFFFFF AND PUSH1 0xE0 SHL DUP2 MSTORE PUSH1 0x4 ADD PUSH2 0x5D02 SWAP6 SWAP5 SWAP4 SWAP3 SWAP2 SWAP1 PUSH2 0x7252 JUMP JUMPDEST PUSH0 PUSH1 0x40 MLOAD DUP1 DUP4 SUB DUP2 PUSH0 DUP8 DUP1 EXTCODESIZE ISZERO DUP1 ISZERO PUSH2 0x5D19 JUMPI PUSH0 DUP1 REVERT JUMPDEST POP GAS CALL ISZERO DUP1 ISZERO PUSH2 0x5D2B JUMPI RETURNDATASIZE PUSH0 DUP1 RETURNDATACOPY RETURNDATASIZE PUSH0 REVERT JUMPDEST POP POP PUSH1 0x1B SLOAD PUSH1 0x16 SLOAD PUSH1 0x40 MLOAD PUSH4 0xE115DC7F PUSH1 0xE0 SHL DUP2 MSTORE PUSH1 0x1 PUSH1 0x1 PUSH1 0xA0 SHL SUB SWAP3 DUP4 AND SWAP5 POP PUSH4 0xE115DC7F SWAP4 POP PUSH2 0x5D6E SWAP3 SWAP1 SWAP2 AND SWAP1 DUP12 SWAP1 DUP10 SWAP1 PUSH1 0x1 SWAP1 PUSH1 0x2 SWAP1 PUSH1 0x4 ADD PUSH2 0x7252 JUMP JUMPDEST PUSH0 PUSH1 0x40 MLOAD DUP1 DUP4 SUB DUP2 PUSH0 DUP8 DUP1 EXTCODESIZE ISZERO DUP1 ISZERO PUSH2 0x5D85 JUMPI PUSH0 DUP1 REVERT JUMPDEST POP GAS CALL ISZERO DUP1 ISZERO PUSH2 0x5D97 JUMPI RETURNDATASIZE PUSH0 DUP1 RETURNDATACOPY RETURNDATASIZE PUSH0 REVERT JUMPDEST POP POP POP POP POP POP POP POP POP POP POP POP POP JUMP JUMPDEST PUSH1 0x40 DUP1 MLOAD PUSH1 0x60 DUP2 ADD DUP3 MSTORE PUSH1 0x1 PUSH1 0x1 PUSH1 0xA0 SHL SUB SWAP5 DUP6 AND DUP2 MSTORE SWAP3 DUP5 AND PUSH1 0x20 DUP1 DUP6 ADD SWAP2 DUP3 MSTORE SWAP3 DUP6 AND DUP5 DUP4 ADD SWAP1 DUP2 MSTORE SWAP7 DUP6 AND PUSH0 SWAP1 DUP2 MSTORE SWAP8 DUP4 MSTORE DUP2 DUP9 KECCAK256 PUSH1 0xFF SWAP1 SWAP7 AND DUP9 MSTORE SWAP5 SWAP1 SWAP2 MSTORE SWAP1 SWAP5 KECCAK256 SWAP4 MLOAD DUP5 SLOAD SWAP1 DUP3 AND PUSH1 0x1 PUSH1 0x1 PUSH1 0xA0 SHL SUB NOT SWAP2 DUP3 AND OR DUP6 SSTORE SWAP2 MLOAD PUSH1 0x1 DUP6 ADD DUP1 SLOAD SWAP2 DUP4 AND SWAP2 DUP5 AND SWAP2 SWAP1 SWAP2 OR SWAP1 SSTORE SWAP2 MLOAD PUSH1 0x2 SWAP1 SWAP4 ADD DUP1 SLOAD SWAP4 SWAP1 SWAP3 AND SWAP3 AND SWAP2 SWAP1 SWAP2 OR SWAP1 SSTORE JUMP JUMPDEST PUSH1 0x1 PUSH1 0x1 PUSH1 0xA0 SHL SUB DUP4 AND ISZERO PUSH2 0x22F6 JUMPI PUSH1 0x1 PUSH1 0x1 PUSH1 0xA0 SHL SUB SWAP3 DUP4 AND PUSH0 SWAP1 DUP2 MSTORE PUSH1 0x20 DUP6 DUP2 MSTORE PUSH1 0x40 DUP1 DUP4 KECCAK256 PUSH1 0xFF SWAP5 SWAP1 SWAP5 AND DUP1 DUP5 MSTORE SWAP4 DUP3 MSTORE DUP1 DUP4 KECCAK256 DUP2 MLOAD PUSH1 0x60 DUP2 ADD DUP4 MSTORE DUP2 SLOAD DUP9 AND DUP2 MSTORE PUSH1 0x1 DUP1 DUP4 ADD SLOAD DUP10 AND DUP3 DUP7 ADD SWAP1 DUP2 MSTORE PUSH1 0x2 SWAP4 DUP5 ADD SLOAD DUP11 AND DUP4 DUP7 ADD SWAP1 DUP2 MSTORE SWAP9 DUP11 AND DUP8 MSTORE SWAP10 DUP6 MSTORE DUP4 DUP7 KECCAK256 SWAP7 DUP7 MSTORE SWAP6 SWAP1 SWAP4 MSTORE SWAP3 KECCAK256 SWAP1 MLOAD DUP2 SLOAD PUSH1 0x1 PUSH1 0x1 PUSH1 0xA0 SHL SUB NOT SWAP1 DUP2 AND SWAP2 DUP8 AND SWAP2 SWAP1 SWAP2 OR DUP3 SSTORE SWAP6 MLOAD SWAP3 DUP2 ADD DUP1 SLOAD DUP8 AND SWAP4 DUP7 AND SWAP4 SWAP1 SWAP4 OR SWAP1 SWAP3 SSTORE SWAP2 MLOAD SWAP2 ADD DUP1 SLOAD SWAP1 SWAP4 AND SWAP2 AND OR SWAP1 SSTORE JUMP JUMPDEST PUSH1 0x1 PUSH1 0x1 PUSH1 0xA0 SHL SUB DUP1 DUP3 AND PUSH0 SWAP1 DUP2 MSTORE PUSH1 0x20 DUP6 SWAP1 MSTORE PUSH1 0x40 DUP2 KECCAK256 SLOAD SWAP1 SWAP2 AND JUMPDEST PUSH1 0x1 PUSH1 0x1 PUSH1 0xA0 SHL SUB DUP2 AND ISZERO PUSH2 0x5F6B JUMPI PUSH1 0x1 PUSH1 0x1 PUSH1 0x1 PUSH1 0xA0 SHL SUB DUP3 AND PUSH0 SWAP1 DUP2 MSTORE PUSH1 0x20 DUP8 SWAP1 MSTORE PUSH1 0x40 SWAP1 KECCAK256 PUSH1 0x2 ADD SLOAD PUSH2 0x100 SWAP1 DIV PUSH1 0xFF AND PUSH1 0x3 DUP2 GT ISZERO PUSH2 0x5F40 JUMPI PUSH2 0x5F40 PUSH2 0x6B58 JUMP JUMPDEST SUB PUSH2 0x5F4C JUMPI SWAP1 POP PUSH2 0x1AF8 JUMP JUMPDEST PUSH1 0x1 PUSH1 0x1 PUSH1 0xA0 SHL SUB SWAP1 DUP2 AND PUSH0 SWAP1 DUP2 MSTORE PUSH1 0x20 DUP6 SWAP1 MSTORE PUSH1 0x40 SWAP1 KECCAK256 SLOAD AND PUSH2 0x5EFB JUMP JUMPDEST POP PUSH0 SWAP5 SWAP4 POP POP POP POP JUMP JUMPDEST PUSH1 0x1 PUSH1 0x1 PUSH1 0xA0 SHL SUB DUP2 AND PUSH0 SWAP1 DUP2 MSTORE PUSH1 0x20 DUP4 SWAP1 MSTORE PUSH1 0x40 DUP2 KECCAK256 DUP2 SWAP1 PUSH1 0x1 ADD DUP2 JUMPDEST DUP2 SLOAD DUP2 LT ISZERO PUSH2 0x600E JUMPI PUSH1 0x1 DUP7 PUSH0 DUP5 DUP5 DUP2 SLOAD DUP2 LT PUSH2 0x5FB2 JUMPI PUSH2 0x5FB2 PUSH2 0x709B JUMP JUMPDEST PUSH0 SWAP2 DUP3 MSTORE PUSH1 0x20 DUP1 DUP4 KECCAK256 SWAP1 SWAP2 ADD SLOAD PUSH1 0x1 PUSH1 0x1 PUSH1 0xA0 SHL SUB AND DUP4 MSTORE DUP3 ADD SWAP3 SWAP1 SWAP3 MSTORE PUSH1 0x40 ADD SWAP1 KECCAK256 PUSH1 0x2 ADD SLOAD PUSH1 0xFF PUSH2 0x100 SWAP1 SWAP2 DIV AND PUSH1 0x3 DUP2 GT ISZERO PUSH2 0x5FF3 JUMPI PUSH2 0x5FF3 PUSH2 0x6B58 JUMP JUMPDEST SUB PUSH2 0x6006 JUMPI DUP3 PUSH2 0x6002 DUP2 PUSH2 0x70DC JUMP JUMPDEST SWAP4 POP POP JUMPDEST PUSH1 0x1 ADD PUSH2 0x5F93 JUMP JUMPDEST POP SWAP1 SWAP5 SWAP4 POP POP POP POP JUMP JUMPDEST DUP1 MLOAD PUSH11 0x636F6E736F6C652E6C6F67 PUSH1 0x20 DUP4 ADD PUSH0 DUP1 DUP5 DUP4 DUP6 GAS STATICCALL POP POP POP POP POP JUMP JUMPDEST PUSH1 0x1 PUSH1 0x1 PUSH1 0xA0 SHL SUB DUP3 AND PUSH0 SWAP1 DUP2 MSTORE PUSH1 0x20 DUP5 SWAP1 MSTORE PUSH1 0x40 DUP2 KECCAK256 SLOAD DUP1 PUSH2 0x605B JUMPI DUP3 PUSH2 0x607A JUMP JUMPDEST DUP5 PUSH1 0x1 ADD DUP2 DUP2 SLOAD DUP2 LT PUSH2 0x6070 JUMPI PUSH2 0x6070 PUSH2 0x709B JUMP JUMPDEST SWAP1 PUSH0 MSTORE PUSH1 0x20 PUSH0 KECCAK256 ADD SLOAD JUMPDEST SWAP6 SWAP5 POP POP POP POP POP JUMP JUMPDEST PUSH1 0x1 PUSH1 0x1 PUSH1 0xA0 SHL SUB DUP1 DUP5 AND PUSH0 SWAP1 DUP2 MSTORE PUSH1 0x20 DUP8 DUP2 MSTORE PUSH1 0x40 SWAP2 DUP3 SWAP1 KECCAK256 SLOAD DUP3 MLOAD DUP1 DUP5 ADD SWAP1 SWAP4 MSTORE PUSH1 0x14 DUP4 MSTORE PUSH20 0x30B1BA34BB32A830B932B73A26B0B83834B7339D PUSH1 0x61 SHL SWAP2 DUP4 ADD SWAP2 SWAP1 SWAP2 MSTORE SWAP1 SWAP2 AND SWAP1 PUSH1 0x1 SWAP1 PUSH2 0x60DA SWAP1 DUP4 PUSH2 0x567C JUMP JUMPDEST PUSH1 0x60 DUP1 PUSH0 JUMPDEST PUSH1 0x5 DUP5 PUSH1 0xFF AND GT ISZERO DUP1 ISZERO PUSH2 0x60FB JUMPI POP PUSH1 0x1 PUSH1 0x1 PUSH1 0xA0 SHL SUB DUP6 AND ISZERO ISZERO JUMPDEST ISZERO PUSH2 0x61FC JUMPI PUSH0 DUP5 PUSH1 0xFF AND PUSH1 0x1 EQ PUSH2 0x6113 JUMPI PUSH1 0x5 PUSH2 0x6116 JUMP JUMPDEST PUSH1 0xA JUMPDEST SWAP1 POP PUSH0 PUSH1 0x64 PUSH2 0x6125 DUP4 DUP12 PUSH2 0x7791 JUMP JUMPDEST PUSH2 0x612F SWAP2 SWAP1 PUSH2 0x723F JUMP JUMPDEST SWAP1 POP PUSH1 0x2 PUSH1 0x1 PUSH1 0x1 PUSH1 0xA0 SHL SUB DUP9 AND PUSH0 SWAP1 DUP2 MSTORE PUSH1 0x20 DUP16 SWAP1 MSTORE PUSH1 0x40 SWAP1 KECCAK256 PUSH1 0x2 ADD SLOAD PUSH2 0x100 SWAP1 DIV PUSH1 0xFF AND PUSH1 0x3 DUP2 GT ISZERO PUSH2 0x6167 JUMPI PUSH2 0x6167 PUSH2 0x6B58 JUMP JUMPDEST EQ PUSH2 0x61CB JUMPI DUP7 DUP6 DUP5 DUP2 MLOAD DUP2 LT PUSH2 0x617F JUMPI PUSH2 0x617F PUSH2 0x709B JUMP JUMPDEST PUSH1 0x20 MUL PUSH1 0x20 ADD ADD SWAP1 PUSH1 0x1 PUSH1 0x1 PUSH1 0xA0 SHL SUB AND SWAP1 DUP2 PUSH1 0x1 PUSH1 0x1 PUSH1 0xA0 SHL SUB AND DUP2 MSTORE POP POP DUP1 DUP5 DUP5 DUP2 MLOAD DUP2 LT PUSH2 0x61B2 JUMPI PUSH2 0x61B2 PUSH2 0x709B JUMP JUMPDEST PUSH1 0x20 SWAP1 DUP2 MUL SWAP2 SWAP1 SWAP2 ADD ADD MSTORE DUP3 PUSH2 0x61C7 DUP2 PUSH2 0x70DC JUMP JUMPDEST SWAP4 POP POP JUMPDEST PUSH1 0x1 PUSH1 0x1 PUSH1 0xA0 SHL SUB SWAP7 DUP8 AND PUSH0 SWAP1 DUP2 MSTORE PUSH1 0x20 DUP14 SWAP1 MSTORE PUSH1 0x40 SWAP1 KECCAK256 SLOAD SWAP1 SWAP7 AND SWAP6 DUP6 PUSH2 0x61F2 DUP2 PUSH2 0x774D JUMP JUMPDEST SWAP7 POP POP POP POP PUSH2 0x60DF JUMP JUMPDEST PUSH1 0x40 MLOAD PUSH4 0xBD0DC97 PUSH1 0xE4 SHL DUP2 MSTORE PUSH1 0x1 PUSH1 0x1 PUSH1 0xA0 SHL SUB DUP11 AND SWAP1 PUSH4 0xBD0DC970 SWAP1 PUSH2 0x6232 SWAP1 DUP10 SWAP1 DUP8 SWAP1 DUP8 SWAP1 PUSH1 0x1 SWAP1 PUSH1 0x6 SWAP1 PUSH1 0x4 ADD PUSH2 0x7840 JUMP JUMPDEST PUSH0 PUSH1 0x40 MLOAD DUP1 DUP4 SUB DUP2 PUSH0 DUP8 DUP1 EXTCODESIZE ISZERO DUP1 ISZERO PUSH2 0x6249 JUMPI PUSH0 DUP1 REVERT JUMPDEST POP GAS CALL ISZERO DUP1 ISZERO PUSH2 0x625B JUMPI RETURNDATASIZE PUSH0 DUP1 RETURNDATACOPY RETURNDATASIZE PUSH0 REVERT JUMPDEST POP POP POP POP POP POP POP POP POP POP POP POP POP POP POP JUMP JUMPDEST PUSH1 0x1 PUSH1 0x1 PUSH1 0xA0 SHL SUB DUP3 AND PUSH0 SWAP1 DUP2 MSTORE PUSH1 0x19 PUSH1 0x20 MSTORE PUSH1 0x40 SWAP1 KECCAK256 PUSH1 0x1 ADD SLOAD PUSH1 0xFF AND PUSH2 0x62B6 JUMPI PUSH1 0x1 PUSH1 0x1 PUSH1 0xA0 SHL SUB DUP3 AND PUSH0 SWAP1 DUP2 MSTORE PUSH1 0x19 PUSH1 0x20 MSTORE PUSH1 0x40 SWAP1 KECCAK256 PUSH1 0x1 SWAP1 DUP2 ADD DUP1 SLOAD PUSH1 0xFF NOT AND SWAP1 SWAP2 OR SWAP1 SSTORE JUMPDEST PUSH1 0x1 PUSH1 0x1 PUSH1 0xA0 SHL SUB DUP3 AND PUSH0 SWAP1 DUP2 MSTORE PUSH1 0x19 PUSH1 0x20 MSTORE PUSH1 0x40 DUP2 KECCAK256 DUP1 SLOAD DUP4 SWAP3 SWAP1 PUSH2 0x62DD SWAP1 DUP5 SWAP1 PUSH2 0x7075 JUMP JUMPDEST SWAP1 SWAP2 SSTORE POP POP POP POP JUMP JUMPDEST PUSH2 0x1C76 DUP3 DUP3 PUSH1 0x40 MLOAD PUSH1 0x24 ADD PUSH2 0x62FC SWAP3 SWAP2 SWAP1 PUSH2 0x7932 JUMP JUMPDEST PUSH1 0x40 DUP1 MLOAD PUSH1 0x1F NOT DUP2 DUP5 SUB ADD DUP2 MSTORE SWAP2 SWAP1 MSTORE PUSH1 0x20 DUP2 ADD DUP1 MLOAD PUSH1 0x1 PUSH1 0x1 PUSH1 0xE0 SHL SUB AND PUSH4 0x9710A9D PUSH1 0xE4 SHL OR SWAP1 MSTORE PUSH2 0x6018 JUMP JUMPDEST PUSH1 0x1 PUSH1 0x1 PUSH1 0xA0 SHL SUB DUP1 DUP5 AND PUSH0 SWAP1 DUP2 MSTORE PUSH1 0x20 DUP10 SWAP1 MSTORE PUSH1 0x40 DUP2 KECCAK256 SLOAD SWAP1 SWAP2 AND SWAP1 PUSH2 0x6352 DUP10 DUP7 PUSH2 0x648D JUMP JUMPDEST PUSH1 0x1 PUSH1 0x1 PUSH1 0xA0 SHL SUB DUP7 AND PUSH0 SWAP1 DUP2 MSTORE PUSH1 0x20 DUP12 SWAP1 MSTORE PUSH1 0x40 DUP2 KECCAK256 PUSH1 0x2 ADD SLOAD SWAP2 SWAP3 POP PUSH1 0xFF SWAP2 DUP3 AND SWAP2 DUP2 SWAP1 DUP2 SWAP1 DUP2 SWAP1 DUP7 AND ISZERO PUSH2 0x6423 JUMPI PUSH0 SWAP4 POP PUSH1 0x5 DUP6 PUSH1 0x7 DUP2 GT ISZERO PUSH2 0x639A JUMPI PUSH2 0x639A PUSH2 0x6B58 JUMP JUMPDEST SUB PUSH2 0x63DA JUMPI POP POP PUSH1 0x1 PUSH1 0x1 PUSH1 0xA0 SHL SUB DUP6 DUP2 AND PUSH0 SWAP1 DUP2 MSTORE PUSH1 0x20 DUP14 DUP2 MSTORE PUSH1 0x40 DUP1 DUP4 KECCAK256 PUSH1 0xFF DUP10 AND DUP5 MSTORE SWAP1 SWAP2 MSTORE SWAP1 KECCAK256 PUSH1 0x1 DUP2 ADD SLOAD PUSH1 0x2 SWAP1 SWAP2 ADD SLOAD SWAP1 DUP3 AND SWAP2 AND PUSH2 0x646E JUMP JUMPDEST PUSH1 0x6 DUP6 PUSH1 0x7 DUP2 GT ISZERO PUSH2 0x63EE JUMPI PUSH2 0x63EE PUSH2 0x6B58 JUMP JUMPDEST SUB PUSH2 0x641E JUMPI POP PUSH1 0x1 PUSH1 0x1 PUSH1 0xA0 SHL SUB DUP1 DUP8 AND PUSH0 SWAP1 DUP2 MSTORE PUSH1 0x20 DUP15 DUP2 MSTORE PUSH1 0x40 DUP1 DUP4 KECCAK256 PUSH1 0xFF DUP11 AND DUP5 MSTORE SWAP1 SWAP2 MSTORE SWAP1 KECCAK256 PUSH1 0x2 ADD SLOAD AND JUMPDEST PUSH2 0x646E JUMP JUMPDEST POP POP POP POP PUSH1 0x1 PUSH1 0x1 PUSH1 0xA0 SHL SUB DUP4 DUP2 AND PUSH0 SWAP1 DUP2 MSTORE PUSH1 0x20 DUP11 DUP2 MSTORE PUSH1 0x40 DUP1 DUP4 KECCAK256 SLOAD DUP14 DUP4 MSTORE DUP2 DUP5 KECCAK256 PUSH1 0xFF DUP9 AND DUP6 MSTORE SWAP1 SWAP3 MSTORE SWAP1 SWAP2 KECCAK256 DUP1 SLOAD PUSH1 0x1 DUP3 ADD SLOAD PUSH1 0x2 SWAP1 SWAP3 ADD SLOAD SWAP3 DUP5 AND SWAP4 SWAP1 DUP2 AND SWAP3 SWAP2 DUP2 AND SWAP2 AND JUMPDEST PUSH2 0x647D DUP12 DUP10 DUP12 DUP8 DUP8 DUP8 DUP8 PUSH2 0x651D JUMP JUMPDEST POP POP POP POP POP POP POP POP POP POP POP POP POP POP JUMP JUMPDEST PUSH1 0x1 PUSH1 0x1 PUSH1 0xA0 SHL SUB DUP2 AND PUSH0 SWAP1 DUP2 MSTORE PUSH1 0x20 DUP4 SWAP1 MSTORE PUSH1 0x40 DUP2 KECCAK256 PUSH1 0x2 ADD SLOAD PUSH1 0xFF AND PUSH1 0x7 DUP2 PUSH1 0x7 DUP2 GT ISZERO PUSH2 0x64BF JUMPI PUSH2 0x64BF PUSH2 0x6B58 JUMP JUMPDEST SUB PUSH2 0x64CE JUMPI PUSH1 0x3 SWAP2 POP POP PUSH2 0x1163 JUMP JUMPDEST PUSH1 0x6 DUP2 PUSH1 0x7 DUP2 GT ISZERO PUSH2 0x64E2 JUMPI PUSH2 0x64E2 PUSH2 0x6B58 JUMP JUMPDEST SUB PUSH2 0x64F1 JUMPI PUSH1 0x2 SWAP2 POP POP PUSH2 0x1163 JUMP JUMPDEST PUSH1 0x5 DUP2 PUSH1 0x7 DUP2 GT ISZERO PUSH2 0x6505 JUMPI PUSH2 0x6505 PUSH2 0x6B58 JUMP JUMPDEST SUB PUSH2 0x6514 JUMPI PUSH1 0x1 SWAP2 POP POP PUSH2 0x1163 JUMP JUMPDEST POP PUSH0 SWAP4 SWAP3 POP POP POP JUMP JUMPDEST PUSH1 0x60 DUP1 PUSH0 PUSH1 0x1 PUSH1 0x1 PUSH1 0xA0 SHL SUB DUP8 AND ISZERO PUSH2 0x659D JUMPI DUP7 DUP4 DUP3 DUP2 MLOAD DUP2 LT PUSH2 0x6543 JUMPI PUSH2 0x6543 PUSH2 0x709B JUMP JUMPDEST PUSH1 0x1 PUSH1 0x1 PUSH1 0xA0 SHL SUB SWAP1 SWAP3 AND PUSH1 0x20 SWAP3 DUP4 MUL SWAP2 SWAP1 SWAP2 ADD SWAP1 SWAP2 ADD MSTORE PUSH1 0x64 PUSH2 0x6568 PUSH1 0x2 DUP11 PUSH2 0x7791 JUMP JUMPDEST PUSH2 0x6572 SWAP2 SWAP1 PUSH2 0x723F JUMP JUMPDEST DUP3 DUP3 DUP2 MLOAD DUP2 LT PUSH2 0x6584 JUMPI PUSH2 0x6584 PUSH2 0x709B JUMP JUMPDEST PUSH1 0x20 SWAP1 DUP2 MUL SWAP2 SWAP1 SWAP2 ADD ADD MSTORE DUP1 PUSH2 0x6599 DUP2 PUSH2 0x70DC JUMP JUMPDEST SWAP2 POP POP JUMPDEST PUSH1 0x1 PUSH1 0x1 PUSH1 0xA0 SHL SUB DUP7 AND ISZERO PUSH2 0x6619 JUMPI DUP6 DUP4 DUP3 DUP2 MLOAD DUP2 LT PUSH2 0x65BF JUMPI PUSH2 0x65BF PUSH2 0x709B JUMP JUMPDEST PUSH1 0x1 PUSH1 0x1 PUSH1 0xA0 SHL SUB SWAP1 SWAP3 AND PUSH1 0x20 SWAP3 DUP4 MUL SWAP2 SWAP1 SWAP2 ADD SWAP1 SWAP2 ADD MSTORE PUSH1 0x64 PUSH2 0x65E4 PUSH1 0x3 DUP11 PUSH2 0x7791 JUMP JUMPDEST PUSH2 0x65EE SWAP2 SWAP1 PUSH2 0x723F JUMP JUMPDEST DUP3 DUP3 DUP2 MLOAD DUP2 LT PUSH2 0x6600 JUMPI PUSH2 0x6600 PUSH2 0x709B JUMP JUMPDEST PUSH1 0x20 SWAP1 DUP2 MUL SWAP2 SWAP1 SWAP2 ADD ADD MSTORE DUP1 PUSH2 0x6615 DUP2 PUSH2 0x70DC JUMP JUMPDEST SWAP2 POP POP JUMPDEST PUSH1 0x1 PUSH1 0x1 PUSH1 0xA0 SHL SUB DUP6 AND ISZERO PUSH2 0x6695 JUMPI DUP5 DUP4 DUP3 DUP2 MLOAD DUP2 LT PUSH2 0x663B JUMPI PUSH2 0x663B PUSH2 0x709B JUMP JUMPDEST PUSH1 0x1 PUSH1 0x1 PUSH1 0xA0 SHL SUB SWAP1 SWAP3 AND PUSH1 0x20 SWAP3 DUP4 MUL SWAP2 SWAP1 SWAP2 ADD SWAP1 SWAP2 ADD MSTORE PUSH1 0x64 PUSH2 0x6660 PUSH1 0x3 DUP11 PUSH2 0x7791 JUMP JUMPDEST PUSH2 0x666A SWAP2 SWAP1 PUSH2 0x723F JUMP JUMPDEST DUP3 DUP3 DUP2 MLOAD DUP2 LT PUSH2 0x667C JUMPI PUSH2 0x667C PUSH2 0x709B JUMP JUMPDEST PUSH1 0x20 SWAP1 DUP2 MUL SWAP2 SWAP1 SWAP2 ADD ADD MSTORE DUP1 PUSH2 0x6691 DUP2 PUSH2 0x70DC JUMP JUMPDEST SWAP2 POP POP JUMPDEST PUSH1 0x1 PUSH1 0x1 PUSH1 0xA0 SHL SUB DUP5 AND ISZERO PUSH2 0x6711 JUMPI DUP4 DUP4 DUP3 DUP2 MLOAD DUP2 LT PUSH2 0x66B7 JUMPI PUSH2 0x66B7 PUSH2 0x709B JUMP JUMPDEST PUSH1 0x1 PUSH1 0x1 PUSH1 0xA0 SHL SUB SWAP1 SWAP3 AND PUSH1 0x20 SWAP3 DUP4 MUL SWAP2 SWAP1 SWAP2 ADD SWAP1 SWAP2 ADD MSTORE PUSH1 0x64 PUSH2 0x66DC PUSH1 0x3 DUP11 PUSH2 0x7791 JUMP JUMPDEST PUSH2 0x66E6 SWAP2 SWAP1 PUSH2 0x723F JUMP JUMPDEST DUP3 DUP3 DUP2 MLOAD DUP2 LT PUSH2 0x66F8 JUMPI PUSH2 0x66F8 PUSH2 0x709B JUMP JUMPDEST PUSH1 0x20 SWAP1 DUP2 MUL SWAP2 SWAP1 SWAP2 ADD ADD MSTORE DUP1 PUSH2 0x670D DUP2 PUSH2 0x70DC JUMP JUMPDEST SWAP2 POP POP JUMPDEST DUP3 MLOAD ISZERO PUSH2 0x36DF JUMPI PUSH1 0x40 MLOAD PUSH4 0xBD0DC97 PUSH1 0xE4 SHL DUP2 MSTORE PUSH1 0x1 PUSH1 0x1 PUSH1 0xA0 SHL SUB DUP12 AND SWAP1 PUSH4 0xBD0DC970 SWAP1 PUSH2 0x674E SWAP1 DUP13 SWAP1 DUP8 SWAP1 DUP8 SWAP1 PUSH1 0x1 SWAP1 PUSH1 0x7 SWAP1 PUSH1 0x4 ADD PUSH2 0x7840 JUMP JUMPDEST PUSH0 PUSH1 0x40 MLOAD DUP1 DUP4 SUB DUP2 PUSH0 DUP8 DUP1 EXTCODESIZE ISZERO DUP1 ISZERO PUSH2 0x6765 JUMPI PUSH0 DUP1 REVERT JUMPDEST POP GAS CALL ISZERO DUP1 ISZERO PUSH2 0x647D JUMPI RETURNDATASIZE PUSH0 DUP1 RETURNDATACOPY RETURNDATASIZE PUSH0 REVERT JUMPDEST PUSH1 0x40 DUP1 MLOAD PUSH1 0x80 DUP2 ADD DUP3 MSTORE PUSH0 DUP1 DUP3 MSTORE PUSH1 0x60 PUSH1 0x20 DUP4 ADD MSTORE SWAP1 SWAP2 DUP3 ADD SWAP1 DUP2 MSTORE PUSH1 0x20 ADD PUSH0 SWAP1 MSTORE SWAP1 JUMP JUMPDEST PUSH1 0x40 MLOAD DUP1 PUSH1 0xA0 ADD PUSH1 0x40 MSTORE DUP1 PUSH0 DUP2 MSTORE PUSH1 0x20 ADD PUSH0 DUP2 MSTORE PUSH1 0x20 ADD PUSH0 DUP2 MSTORE PUSH1 0x20 ADD PUSH0 DUP2 MSTORE PUSH1 0x20 ADD PUSH0 DUP2 MSTORE POP SWAP1 JUMP JUMPDEST POP DUP1 SLOAD PUSH0 DUP3 SSTORE SWAP1 PUSH0 MSTORE PUSH1 0x20 PUSH0 KECCAK256 SWAP1 DUP2 ADD SWAP1 PUSH2 0x67E1 SWAP2 SWAP1 PUSH2 0x6883 JUMP JUMPDEST POP JUMP JUMPDEST POP DUP1 SLOAD PUSH0 DUP3 SSTORE PUSH1 0x5 MUL SWAP1 PUSH0 MSTORE PUSH1 0x20 PUSH0 KECCAK256 SWAP1 DUP2 ADD SWAP1 PUSH2 0x67E1 SWAP2 SWAP1 PUSH2 0x6897 JUMP JUMPDEST POP DUP1 SLOAD PUSH0 DUP3 SSTORE PUSH1 0x3 MUL SWAP1 PUSH0 MSTORE PUSH1 0x20 PUSH0 KECCAK256 SWAP1 DUP2 ADD SWAP1 PUSH2 0x67E1 SWAP2 SWAP1 PUSH2 0x68D7 JUMP JUMPDEST DUP3 DUP1 SLOAD DUP3 DUP3 SSTORE SWAP1 PUSH0 MSTORE PUSH1 0x20 PUSH0 KECCAK256 SWAP1 DUP2 ADD SWAP3 DUP3 ISZERO PUSH2 0x6873 JUMPI SWAP2 PUSH1 0x20 MUL DUP3 ADD JUMPDEST DUP3 DUP2 GT ISZERO PUSH2 0x6873 JUMPI DUP3 MLOAD DUP3 SLOAD PUSH1 0x1 PUSH1 0x1 PUSH1 0xA0 SHL SUB NOT AND PUSH1 0x1 PUSH1 0x1 PUSH1 0xA0 SHL SUB SWAP1 SWAP2 AND OR DUP3 SSTORE PUSH1 0x20 SWAP1 SWAP3 ADD SWAP2 PUSH1 0x1 SWAP1 SWAP2 ADD SWAP1 PUSH2 0x683E JUMP JUMPDEST POP PUSH2 0x687F SWAP3 SWAP2 POP PUSH2 0x6883 JUMP JUMPDEST POP SWAP1 JUMP JUMPDEST JUMPDEST DUP1 DUP3 GT ISZERO PUSH2 0x687F JUMPI PUSH0 DUP2 SSTORE PUSH1 0x1 ADD PUSH2 0x6884 JUMP JUMPDEST JUMPDEST DUP1 DUP3 GT ISZERO PUSH2 0x687F JUMPI DUP1 SLOAD PUSH1 0x1 PUSH1 0x1 PUSH1 0xA0 SHL SUB NOT SWAP1 DUP2 AND DUP3 SSTORE PUSH1 0x1 DUP3 ADD DUP1 SLOAD SWAP1 SWAP2 AND SWAP1 SSTORE PUSH0 PUSH1 0x2 DUP3 ADD DUP2 SWAP1 SSTORE PUSH1 0x3 DUP3 ADD DUP2 SWAP1 SSTORE PUSH1 0x4 DUP3 ADD SSTORE PUSH1 0x5 ADD PUSH2 0x6898 JUMP JUMPDEST JUMPDEST DUP1 DUP3 GT ISZERO PUSH2 0x687F JUMPI DUP1 SLOAD PUSH1 0x1 PUSH1 0x1 PUSH1 0xA0 SHL SUB NOT AND DUP2 SSTORE PUSH0 PUSH1 0x1 DUP3 ADD DUP2 SWAP1 SSTORE PUSH1 0x2 DUP3 ADD SSTORE PUSH1 0x3 ADD PUSH2 0x68D8 JUMP JUMPDEST PUSH1 0x1 PUSH1 0x1 PUSH1 0xA0 SHL SUB DUP2 AND DUP2 EQ PUSH2 0x67E1 JUMPI PUSH0 DUP1 REVERT JUMPDEST PUSH0 PUSH1 0x20 DUP3 DUP5 SUB SLT ISZERO PUSH2 0x6927 JUMPI PUSH0 DUP1 REVERT JUMPDEST DUP2 CALLDATALOAD PUSH2 0x1AF8 DUP2 PUSH2 0x6903 JUMP JUMPDEST PUSH4 0x4E487B71 PUSH1 0xE0 SHL PUSH0 MSTORE PUSH1 0x41 PUSH1 0x4 MSTORE PUSH1 0x24 PUSH0 REVERT JUMPDEST PUSH1 0x40 MLOAD PUSH1 0x80 DUP2 ADD PUSH1 0x1 PUSH1 0x1 PUSH1 0x40 SHL SUB DUP2 GT DUP3 DUP3 LT OR ISZERO PUSH2 0x6968 JUMPI PUSH2 0x6968 PUSH2 0x6932 JUMP JUMPDEST PUSH1 0x40 MSTORE SWAP1 JUMP JUMPDEST PUSH1 0x40 MLOAD PUSH2 0x120 DUP2 ADD PUSH1 0x1 PUSH1 0x1 PUSH1 0x40 SHL SUB DUP2 GT DUP3 DUP3 LT OR ISZERO PUSH2 0x6968 JUMPI PUSH2 0x6968 PUSH2 0x6932 JUMP JUMPDEST PUSH1 0x40 MLOAD PUSH2 0x260 DUP2 ADD PUSH1 0x1 PUSH1 0x1 PUSH1 0x40 SHL SUB DUP2 GT DUP3 DUP3 LT OR ISZERO PUSH2 0x6968 JUMPI PUSH2 0x6968 PUSH2 0x6932 JUMP JUMPDEST PUSH1 0x40 MLOAD PUSH1 0x1F DUP3 ADD PUSH1 0x1F NOT AND DUP2 ADD PUSH1 0x1 PUSH1 0x1 PUSH1 0x40 SHL SUB DUP2 GT DUP3 DUP3 LT OR ISZERO PUSH2 0x69DC JUMPI PUSH2 0x69DC PUSH2 0x6932 JUMP JUMPDEST PUSH1 0x40 MSTORE SWAP2 SWAP1 POP JUMP JUMPDEST PUSH0 PUSH1 0x1 PUSH1 0x1 PUSH1 0x40 SHL SUB DUP3 GT ISZERO PUSH2 0x69FC JUMPI PUSH2 0x69FC PUSH2 0x6932 JUMP JUMPDEST POP PUSH1 0x5 SHL PUSH1 0x20 ADD SWAP1 JUMP JUMPDEST PUSH0 DUP3 PUSH1 0x1F DUP4 ADD SLT PUSH2 0x6A15 JUMPI PUSH0 DUP1 REVERT JUMPDEST DUP2 CALLDATALOAD PUSH2 0x6A28 PUSH2 0x6A23 DUP3 PUSH2 0x69E4 JUMP JUMPDEST PUSH2 0x69B4 JUMP JUMPDEST DUP1 DUP3 DUP3 MSTORE PUSH1 0x20 DUP3 ADD SWAP2 POP PUSH1 0x20 DUP4 PUSH1 0x5 SHL DUP7 ADD ADD SWAP3 POP DUP6 DUP4 GT ISZERO PUSH2 0x6A49 JUMPI PUSH0 DUP1 REVERT JUMPDEST PUSH1 0x20 DUP6 ADD JUMPDEST DUP4 DUP2 LT ISZERO PUSH2 0x6A66 JUMPI DUP1 CALLDATALOAD DUP4 MSTORE PUSH1 0x20 SWAP3 DUP4 ADD SWAP3 ADD PUSH2 0x6A4E JUMP JUMPDEST POP SWAP6 SWAP5 POP POP POP POP POP JUMP JUMPDEST PUSH0 DUP1 PUSH0 PUSH1 0x60 DUP5 DUP7 SUB SLT ISZERO PUSH2 0x6A82 JUMPI PUSH0 DUP1 REVERT JUMPDEST DUP4 CALLDATALOAD SWAP3 POP PUSH1 0x20 DUP5 ADD CALLDATALOAD PUSH2 0x6A94 DUP2 PUSH2 0x6903 JUMP JUMPDEST SWAP2 POP PUSH1 0x40 DUP5 ADD CALLDATALOAD PUSH1 0x1 PUSH1 0x1 PUSH1 0x40 SHL SUB DUP2 GT ISZERO PUSH2 0x6AAE JUMPI PUSH0 DUP1 REVERT JUMPDEST PUSH2 0x6ABA DUP7 DUP3 DUP8 ADD PUSH2 0x6A06 JUMP JUMPDEST SWAP2 POP POP SWAP3 POP SWAP3 POP SWAP3 JUMP JUMPDEST PUSH1 0xFF DUP2 AND DUP2 EQ PUSH2 0x67E1 JUMPI PUSH0 DUP1 REVERT JUMPDEST PUSH0 DUP1 PUSH0 DUP1 PUSH1 0x80 DUP6 DUP8 SUB SLT ISZERO PUSH2 0x6AE5 JUMPI PUSH0 DUP1 REVERT JUMPDEST DUP5 CALLDATALOAD PUSH2 0x6AF0 DUP2 PUSH2 0x6903 JUMP JUMPDEST SWAP4 POP PUSH1 0x20 DUP6 ADD CALLDATALOAD PUSH2 0x6B00 DUP2 PUSH2 0x6AC4 JUMP JUMPDEST SWAP4 SWAP7 SWAP4 SWAP6 POP POP POP POP PUSH1 0x40 DUP3 ADD CALLDATALOAD SWAP2 PUSH1 0x60 ADD CALLDATALOAD SWAP1 JUMP JUMPDEST PUSH0 DUP2 MLOAD DUP1 DUP5 MSTORE PUSH1 0x20 DUP5 ADD SWAP4 POP PUSH1 0x20 DUP4 ADD PUSH0 JUMPDEST DUP3 DUP2 LT ISZERO PUSH2 0x6B4E JUMPI DUP2 MLOAD PUSH1 0x1 PUSH1 0x1 PUSH1 0xA0 SHL SUB AND DUP7 MSTORE PUSH1 0x20 SWAP6 DUP7 ADD SWAP6 SWAP1 SWAP2 ADD SWAP1 PUSH1 0x1 ADD PUSH2 0x6B27 JUMP JUMPDEST POP SWAP4 SWAP5 SWAP4 POP POP POP POP JUMP JUMPDEST PUSH4 0x4E487B71 PUSH1 0xE0 SHL PUSH0 MSTORE PUSH1 0x21 PUSH1 0x4 MSTORE PUSH1 0x24 PUSH0 REVERT JUMPDEST PUSH1 0x8 DUP2 LT PUSH2 0x6B7C JUMPI PUSH2 0x6B7C PUSH2 0x6B58 JUMP JUMPDEST SWAP1 MSTORE JUMP JUMPDEST PUSH1 0x4 DUP2 LT PUSH2 0x6B7C JUMPI PUSH2 0x6B7C PUSH2 0x6B58 JUMP JUMPDEST DUP1 MLOAD PUSH1 0x1 PUSH1 0x1 PUSH1 0xA0 SHL SUB AND DUP3 MSTORE PUSH1 0x20 DUP1 DUP3 ADD MLOAD PUSH1 0x80 DUP3 DUP6 ADD DUP2 SWAP1 MSTORE DUP2 MLOAD SWAP1 DUP6 ADD DUP2 SWAP1 MSTORE PUSH0 SWAP3 SWAP2 SWAP1 SWAP2 ADD SWAP1 DUP3 SWAP1 PUSH1 0xA0 DUP7 ADD SWAP1 JUMPDEST DUP1 DUP4 LT ISZERO PUSH2 0x6BED JUMPI DUP4 MLOAD PUSH1 0x1 PUSH1 0x1 PUSH1 0xA0 SHL SUB AND DUP3 MSTORE PUSH1 0x20 SWAP4 DUP5 ADD SWAP4 PUSH1 0x1 SWAP4 SWAP1 SWAP4 ADD SWAP3 SWAP1 SWAP2 ADD SWAP1 PUSH2 0x6BC2 JUMP JUMPDEST POP PUSH1 0x40 DUP6 ADD MLOAD SWAP3 POP PUSH2 0x6C02 PUSH1 0x40 DUP8 ADD DUP5 PUSH2 0x6B6C JUMP JUMPDEST PUSH1 0x60 DUP6 ADD MLOAD SWAP3 POP PUSH2 0x607A PUSH1 0x60 DUP8 ADD DUP5 PUSH2 0x6B80 JUMP JUMPDEST DUP1 MLOAD DUP3 MSTORE PUSH1 0x20 DUP2 ADD MLOAD PUSH1 0x20 DUP4 ADD MSTORE PUSH1 0x40 DUP2 ADD MLOAD PUSH1 0x40 DUP4 ADD MSTORE PUSH1 0x60 DUP2 ADD MLOAD PUSH1 0x60 DUP4 ADD MSTORE PUSH1 0x80 DUP2 ADD MLOAD PUSH1 0x80 DUP4 ADD MSTORE POP POP JUMP JUMPDEST PUSH1 0x60 DUP2 MSTORE PUSH0 PUSH2 0x6C58 PUSH1 0x60 DUP4 ADD DUP7 PUSH2 0x6B15 JUMP JUMPDEST DUP3 DUP2 SUB PUSH1 0x20 DUP5 ADD MSTORE DUP1 DUP6 MLOAD DUP1 DUP4 MSTORE PUSH1 0x20 DUP4 ADD SWAP2 POP PUSH1 0x20 DUP2 PUSH1 0x5 SHL DUP5 ADD ADD PUSH1 0x20 DUP9 ADD PUSH0 JUMPDEST DUP4 DUP2 LT ISZERO PUSH2 0x6CAD JUMPI PUSH1 0x1F NOT DUP7 DUP5 SUB ADD DUP6 MSTORE PUSH2 0x6C97 DUP4 DUP4 MLOAD PUSH2 0x6B90 JUMP JUMPDEST PUSH1 0x20 SWAP6 DUP7 ADD SWAP6 SWAP1 SWAP4 POP SWAP2 SWAP1 SWAP2 ADD SWAP1 PUSH1 0x1 ADD PUSH2 0x6C7B JUMP JUMPDEST POP POP DUP6 DUP2 SUB PUSH1 0x40 DUP8 ADD MSTORE DUP7 MLOAD DUP1 DUP3 MSTORE PUSH1 0x20 SWAP2 DUP3 ADD SWAP5 POP SWAP3 POP DUP7 ADD SWAP1 POP PUSH0 JUMPDEST DUP3 DUP2 LT ISZERO PUSH2 0x6CF4 JUMPI PUSH2 0x6CDE DUP5 DUP4 MLOAD PUSH2 0x6C16 JUMP JUMPDEST PUSH1 0xA0 SWAP4 SWAP1 SWAP4 ADD SWAP3 PUSH1 0x20 SWAP2 SWAP1 SWAP2 ADD SWAP1 PUSH1 0x1 ADD PUSH2 0x6CCB JUMP JUMPDEST POP SWAP2 SWAP8 SWAP7 POP POP POP POP POP POP POP JUMP JUMPDEST PUSH0 DUP1 PUSH1 0x40 DUP4 DUP6 SUB SLT ISZERO PUSH2 0x6D12 JUMPI PUSH0 DUP1 REVERT JUMPDEST POP POP DUP1 CALLDATALOAD SWAP3 PUSH1 0x20 SWAP1 SWAP2 ADD CALLDATALOAD SWAP2 POP JUMP JUMPDEST PUSH0 DUP1 PUSH0 PUSH1 0x60 DUP5 DUP7 SUB SLT ISZERO PUSH2 0x6D33 JUMPI PUSH0 DUP1 REVERT JUMPDEST DUP4 CALLDATALOAD PUSH2 0x6D3E DUP2 PUSH2 0x6903 JUMP JUMPDEST SWAP3 POP PUSH1 0x20 DUP5 ADD CALLDATALOAD PUSH2 0x6D4E DUP2 PUSH2 0x6903 JUMP JUMPDEST SWAP3 SWAP6 SWAP3 SWAP5 POP POP POP PUSH1 0x40 SWAP2 SWAP1 SWAP2 ADD CALLDATALOAD SWAP1 JUMP JUMPDEST PUSH1 0x1 PUSH1 0x1 PUSH1 0xA0 SHL SUB SWAP2 SWAP1 SWAP2 AND DUP2 MSTORE PUSH1 0x20 ADD SWAP1 JUMP JUMPDEST PUSH0 DUP1 PUSH0 PUSH1 0x60 DUP5 DUP7 SUB SLT ISZERO PUSH2 0x6D85 JUMPI PUSH0 DUP1 REVERT JUMPDEST DUP4 CALLDATALOAD PUSH2 0x6D90 DUP2 PUSH2 0x6903 JUMP JUMPDEST SWAP6 PUSH1 0x20 DUP6 ADD CALLDATALOAD SWAP6 POP PUSH1 0x40 SWAP1 SWAP5 ADD CALLDATALOAD SWAP4 SWAP3 POP POP POP JUMP JUMPDEST PUSH1 0x9 DUP2 LT PUSH2 0x6B7C JUMPI PUSH2 0x6B7C PUSH2 0x6B58 JUMP JUMPDEST PUSH1 0x20 DUP1 DUP3 MSTORE DUP3 MLOAD DUP3 DUP3 ADD DUP2 SWAP1 MSTORE PUSH0 SWAP2 DUP5 ADD SWAP1 PUSH1 0x40 DUP5 ADD SWAP1 DUP4 JUMPDEST DUP2 DUP2 LT ISZERO PUSH2 0x6E22 JUMPI DUP4 MLOAD DUP1 MLOAD PUSH1 0x1 PUSH1 0x1 PUSH1 0xA0 SHL SUB AND DUP5 MSTORE PUSH1 0x20 DUP1 DUP3 ADD MLOAD SWAP1 DUP6 ADD MSTORE PUSH1 0x40 DUP1 DUP3 ADD MLOAD SWAP1 PUSH2 0x6E02 SWAP1 DUP7 ADD DUP3 PUSH2 0x6DA5 JUMP JUMPDEST POP PUSH1 0x60 SWAP1 DUP2 ADD MLOAD SWAP1 DUP5 ADD MSTORE PUSH1 0x20 SWAP4 SWAP1 SWAP4 ADD SWAP3 PUSH1 0x80 SWAP1 SWAP3 ADD SWAP2 PUSH1 0x1 ADD PUSH2 0x6DCE JUMP JUMPDEST POP SWAP1 SWAP6 SWAP5 POP POP POP POP POP JUMP JUMPDEST PUSH0 DUP1 PUSH0 DUP1 PUSH0 PUSH1 0xA0 DUP7 DUP9 SUB SLT ISZERO PUSH2 0x6E41 JUMPI PUSH0 DUP1 REVERT JUMPDEST DUP6 CALLDATALOAD PUSH2 0x6E4C DUP2 PUSH2 0x6903 JUMP JUMPDEST SWAP5 POP PUSH1 0x20 DUP7 ADD CALLDATALOAD PUSH2 0x6E5C DUP2 PUSH2 0x6903 JUMP JUMPDEST SWAP5 SWAP8 SWAP5 SWAP7 POP POP POP POP PUSH1 0x40 DUP4 ADD CALLDATALOAD SWAP3 PUSH1 0x60 DUP2 ADD CALLDATALOAD SWAP3 PUSH1 0x80 SWAP1 SWAP2 ADD CALLDATALOAD SWAP2 POP JUMP JUMPDEST PUSH0 DUP1 PUSH1 0x40 DUP4 DUP6 SUB SLT ISZERO PUSH2 0x6E8B JUMPI PUSH0 DUP1 REVERT JUMPDEST DUP3 CALLDATALOAD SWAP2 POP PUSH1 0x20 DUP4 ADD CALLDATALOAD PUSH1 0x1 PUSH1 0x1 PUSH1 0x40 SHL SUB DUP2 GT ISZERO PUSH2 0x6EA7 JUMPI PUSH0 DUP1 REVERT JUMPDEST PUSH2 0x6EB3 DUP6 DUP3 DUP7 ADD PUSH2 0x6A06 JUMP JUMPDEST SWAP2 POP POP SWAP3 POP SWAP3 SWAP1 POP JUMP JUMPDEST PUSH0 DUP1 PUSH1 0x40 DUP4 DUP6 SUB SLT ISZERO PUSH2 0x6ECE JUMPI PUSH0 DUP1 REVERT JUMPDEST DUP3 CALLDATALOAD PUSH2 0x6ED9 DUP2 PUSH2 0x6903 JUMP JUMPDEST SWAP5 PUSH1 0x20 SWAP4 SWAP1 SWAP4 ADD CALLDATALOAD SWAP4 POP POP POP JUMP JUMPDEST PUSH0 PUSH1 0x20 DUP3 DUP5 SUB SLT ISZERO PUSH2 0x6EF7 JUMPI PUSH0 DUP1 REVERT JUMPDEST POP CALLDATALOAD SWAP2 SWAP1 POP JUMP JUMPDEST PUSH0 DUP1 PUSH0 DUP1 PUSH1 0x80 DUP6 DUP8 SUB SLT ISZERO PUSH2 0x6F11 JUMPI PUSH0 DUP1 REVERT JUMPDEST DUP5 CALLDATALOAD PUSH2 0x6F1C DUP2 PUSH2 0x6903 JUMP JUMPDEST SWAP7 PUSH1 0x20 DUP7 ADD CALLDATALOAD SWAP7 POP PUSH1 0x40 DUP7 ADD CALLDATALOAD SWAP6 PUSH1 0x60 ADD CALLDATALOAD SWAP5 POP SWAP3 POP POP POP JUMP JUMPDEST PUSH1 0x20 DUP2 MSTORE PUSH0 PUSH2 0x1AF8 PUSH1 0x20 DUP4 ADD DUP5 PUSH2 0x6B15 JUMP JUMPDEST DUP1 ISZERO ISZERO DUP2 EQ PUSH2 0x67E1 JUMPI PUSH0 DUP1 REVERT JUMPDEST PUSH0 PUSH1 0x20 DUP3 DUP5 SUB SLT ISZERO PUSH2 0x6F65 JUMPI PUSH0 DUP1 REVERT JUMPDEST DUP2 CALLDATALOAD PUSH2 0x1AF8 DUP2 PUSH2 0x6F48 JUMP JUMPDEST PUSH1 0xC0 DUP2 MSTORE PUSH0 PUSH2 0x6F82 PUSH1 0xC0 DUP4 ADD DUP6 PUSH2 0x6B90 JUMP JUMPDEST SWAP1 POP PUSH2 0x1AF8 PUSH1 0x20 DUP4 ADD DUP5 PUSH2 0x6C16 JUMP JUMPDEST PUSH1 0x20 DUP1 DUP3 MSTORE DUP2 DUP2 ADD MSTORE PUSH32 0x4F776E61626C653A2063616C6C6572206973206E6F7420746865206F776E6572 PUSH1 0x40 DUP3 ADD MSTORE PUSH1 0x60 ADD SWAP1 JUMP JUMPDEST PUSH1 0x20 DUP1 DUP3 MSTORE PUSH1 0x1D SWAP1 DUP3 ADD MSTORE PUSH32 0x416D6F756E74206D7573742062652067726561746572207468616E2030000000 PUSH1 0x40 DUP3 ADD MSTORE PUSH1 0x60 ADD SWAP1 JUMP JUMPDEST PUSH1 0x20 DUP1 DUP3 MSTORE PUSH1 0x15 SWAP1 DUP3 ADD MSTORE PUSH21 0x10DBDB9D1C9858DD1CC81B9BDD08185B1B1BDDD959 PUSH1 0x5A SHL PUSH1 0x40 DUP3 ADD MSTORE PUSH1 0x60 ADD SWAP1 JUMP JUMPDEST PUSH1 0x20 DUP1 DUP3 MSTORE PUSH1 0x1B SWAP1 DUP3 ADD MSTORE PUSH27 0x14DB585C9D0818DBDB9D1C9858DD1CC81B9BDD08185B1B1BDDD959 PUSH1 0x2A SHL PUSH1 0x40 DUP3 ADD MSTORE PUSH1 0x60 ADD SWAP1 JUMP JUMPDEST PUSH4 0x4E487B71 PUSH1 0xE0 SHL PUSH0 MSTORE PUSH1 0x11 PUSH1 0x4 MSTORE PUSH1 0x24 PUSH0 REVERT JUMPDEST DUP1 DUP3 ADD DUP1 DUP3 GT ISZERO PUSH2 0x1163 JUMPI PUSH2 0x1163 PUSH2 0x7061 JUMP JUMPDEST DUP2 DUP2 SUB DUP2 DUP2 GT ISZERO PUSH2 0x1163 JUMPI PUSH2 0x1163 PUSH2 0x7061 JUMP JUMPDEST PUSH4 0x4E487B71 PUSH1 0xE0 SHL PUSH0 MSTORE PUSH1 0x32 PUSH1 0x4 MSTORE PUSH1 0x24 PUSH0 REVERT JUMPDEST PUSH1 0x20 DUP1 DUP3 MSTORE PUSH1 0x13 SWAP1 DUP3 ADD MSTORE PUSH19 0x92DCECC2D8D2C840E6E8C2E4E840D2DCC8CAF PUSH1 0x6B SHL PUSH1 0x40 DUP3 ADD MSTORE PUSH1 0x60 ADD SWAP1 JUMP JUMPDEST PUSH0 PUSH1 0x1 DUP3 ADD PUSH2 0x70ED JUMPI PUSH2 0x70ED PUSH2 0x7061 JUMP JUMPDEST POP PUSH1 0x1 ADD SWAP1 JUMP JUMPDEST PUSH1 0x20 DUP1 DUP3 MSTORE PUSH1 0xE SWAP1 DUP3 ADD MSTORE PUSH14 0x53797374656D2075706772616465 PUSH1 0x90 SHL PUSH1 0x40 DUP3 ADD MSTORE PUSH1 0x60 ADD SWAP1 JUMP JUMPDEST PUSH1 0x20 DUP1 DUP3 MSTORE PUSH1 0x13 SWAP1 DUP3 ADD MSTORE PUSH19 0x5573657220616C726561647920657869737473 PUSH1 0x68 SHL PUSH1 0x40 DUP3 ADD MSTORE PUSH1 0x60 ADD SWAP1 JUMP JUMPDEST PUSH1 0x20 DUP1 DUP3 MSTORE PUSH1 0x1A SWAP1 DUP3 ADD MSTORE PUSH26 0x5573657220616C72656164792065786973747320696E2056495 PUSH1 0x34 SHL PUSH1 0x40 DUP3 ADD MSTORE PUSH1 0x60 ADD SWAP1 JUMP JUMPDEST PUSH1 0x20 DUP1 DUP3 MSTORE PUSH1 0x15 SWAP1 DUP3 ADD MSTORE PUSH21 0x14185C995B9D08191BD95CC81B9BDD08195E1A5CDD PUSH1 0x5A SHL PUSH1 0x40 DUP3 ADD MSTORE PUSH1 0x60 ADD SWAP1 JUMP JUMPDEST PUSH1 0x20 DUP1 DUP3 MSTORE PUSH1 0x10 SWAP1 DUP3 ADD MSTORE PUSH16 0x506172656E74206E6F7420616C6C6F77 PUSH1 0x80 SHL PUSH1 0x40 DUP3 ADD MSTORE PUSH1 0x60 ADD SWAP1 JUMP JUMPDEST DUP1 MLOAD PUSH2 0x71E1 DUP2 PUSH2 0x6903 JUMP JUMPDEST SWAP2 SWAP1 POP JUMP JUMPDEST PUSH0 PUSH1 0x20 DUP3 DUP5 SUB SLT ISZERO PUSH2 0x71F6 JUMPI PUSH0 DUP1 REVERT JUMPDEST DUP2 MLOAD PUSH2 0x1AF8 DUP2 PUSH2 0x6903 JUMP JUMPDEST PUSH1 0x20 DUP1 DUP3 MSTORE PUSH1 0x10 SWAP1 DUP3 ADD MSTORE PUSH16 0xE0C2E4CADCE840DCDEE840DAC2E8C6D PUSH1 0x83 SHL PUSH1 0x40 DUP3 ADD MSTORE PUSH1 0x60 ADD SWAP1 JUMP JUMPDEST PUSH4 0x4E487B71 PUSH1 0xE0 SHL PUSH0 MSTORE PUSH1 0x12 PUSH1 0x4 MSTORE PUSH1 0x24 PUSH0 REVERT JUMPDEST PUSH0 DUP3 PUSH2 0x724D JUMPI PUSH2 0x724D PUSH2 0x722B JUMP JUMPDEST POP DIV SWAP1 JUMP JUMPDEST PUSH1 0x1 PUSH1 0x1 PUSH1 0xA0 SHL SUB DUP7 AND DUP2 MSTORE PUSH1 0x20 DUP2 ADD DUP6 SWAP1 MSTORE PUSH1 0x40 DUP2 ADD DUP5 SWAP1 MSTORE DUP3 ISZERO ISZERO PUSH1 0x60 DUP3 ADD MSTORE PUSH1 0xA0 DUP2 ADD PUSH2 0x3C61 PUSH1 0x80 DUP4 ADD DUP5 PUSH2 0x6DA5 JUMP JUMPDEST PUSH1 0x1 PUSH1 0x1 PUSH1 0xA0 SHL SUB SWAP4 SWAP1 SWAP4 AND DUP4 MSTORE PUSH1 0x20 DUP4 ADD SWAP2 SWAP1 SWAP2 MSTORE PUSH1 0x40 DUP3 ADD MSTORE PUSH1 0x60 ADD SWAP1 JUMP JUMPDEST PUSH0 PUSH1 0x20 DUP3 DUP5 SUB SLT ISZERO PUSH2 0x72B6 JUMPI PUSH0 DUP1 REVERT JUMPDEST DUP2 MLOAD PUSH1 0x1 PUSH1 0x1 PUSH1 0x40 SHL SUB DUP2 GT ISZERO PUSH2 0x72CB JUMPI PUSH0 DUP1 REVERT JUMPDEST DUP3 ADD PUSH1 0x1F DUP2 ADD DUP5 SGT PUSH2 0x72DB JUMPI PUSH0 DUP1 REVERT JUMPDEST DUP1 MLOAD PUSH2 0x72E9 PUSH2 0x6A23 DUP3 PUSH2 0x69E4 JUMP JUMPDEST DUP1 DUP3 DUP3 MSTORE PUSH1 0x20 DUP3 ADD SWAP2 POP PUSH1 0x20 DUP4 PUSH1 0x7 SHL DUP6 ADD ADD SWAP3 POP DUP7 DUP4 GT ISZERO PUSH2 0x730A JUMPI PUSH0 DUP1 REVERT JUMPDEST PUSH1 0x20 DUP5 ADD SWAP4 POP JUMPDEST DUP3 DUP5 LT ISZERO PUSH2 0x3C61 JUMPI PUSH1 0x80 DUP5 DUP9 SUB SLT ISZERO PUSH2 0x7328 JUMPI PUSH0 DUP1 REVERT JUMPDEST PUSH2 0x7330 PUSH2 0x6946 JUMP JUMPDEST DUP5 MLOAD PUSH2 0x733B DUP2 PUSH2 0x6903 JUMP JUMPDEST DUP2 MSTORE PUSH1 0x20 DUP6 DUP2 ADD MLOAD SWAP1 DUP3 ADD MSTORE PUSH1 0x40 DUP6 ADD MLOAD PUSH1 0x9 DUP2 LT PUSH2 0x7358 JUMPI PUSH0 DUP1 REVERT JUMPDEST PUSH1 0x40 DUP3 ADD MSTORE PUSH1 0x60 DUP6 DUP2 ADD MLOAD SWAP1 DUP3 ADD MSTORE DUP3 MSTORE PUSH1 0x80 SWAP1 SWAP4 ADD SWAP3 PUSH1 0x20 SWAP1 SWAP2 ADD SWAP1 PUSH2 0x7311 JUMP JUMPDEST PUSH1 0x20 DUP1 DUP3 MSTORE PUSH1 0x13 SWAP1 DUP3 ADD MSTORE PUSH19 0x155CD95C88191BD95CC81B9BDD08195E1A5CDD PUSH1 0x6A SHL PUSH1 0x40 DUP3 ADD MSTORE PUSH1 0x60 ADD SWAP1 JUMP JUMPDEST PUSH0 PUSH1 0x20 DUP3 DUP5 SUB SLT ISZERO PUSH2 0x73B7 JUMPI PUSH0 DUP1 REVERT JUMPDEST POP MLOAD SWAP2 SWAP1 POP JUMP JUMPDEST PUSH1 0x1 PUSH1 0x1 PUSH1 0xA0 SHL SUB SWAP3 SWAP1 SWAP3 AND DUP3 MSTORE PUSH1 0x20 DUP3 ADD MSTORE PUSH1 0x40 ADD SWAP1 JUMP JUMPDEST PUSH0 PUSH1 0x20 DUP3 DUP5 SUB SLT ISZERO PUSH2 0x73E7 JUMPI PUSH0 DUP1 REVERT JUMPDEST DUP2 MLOAD PUSH2 0x1AF8 DUP2 PUSH2 0x6F48 JUMP JUMPDEST PUSH4 0x4E487B71 PUSH1 0xE0 SHL PUSH0 MSTORE PUSH1 0x31 PUSH1 0x4 MSTORE PUSH1 0x24 PUSH0 REVERT JUMPDEST PUSH0 PUSH2 0x120 DUP3 DUP5 SUB SLT DUP1 ISZERO PUSH2 0x7418 JUMPI PUSH0 DUP1 REVERT JUMPDEST POP PUSH2 0x7421 PUSH2 0x696E JUMP JUMPDEST DUP3 MLOAD DUP2 MSTORE PUSH1 0x20 DUP1 DUP5 ADD MLOAD SWAP1 DUP3 ADD MSTORE PUSH1 0x40 DUP1 DUP5 ADD MLOAD SWAP1 DUP3 ADD MSTORE PUSH1 0x60 DUP1 DUP5 ADD MLOAD SWAP1 DUP3 ADD MSTORE PUSH1 0x80 DUP1 DUP5 ADD MLOAD SWAP1 DUP3 ADD MSTORE PUSH1 0xA0 DUP1 DUP5 ADD MLOAD SWAP1 DUP3 ADD MSTORE PUSH1 0xC0 DUP1 DUP5 ADD MLOAD SWAP1 DUP3 ADD MSTORE PUSH1 0xE0 DUP1 DUP5 ADD MLOAD SWAP1 DUP3 ADD MSTORE PUSH2 0x100 SWAP3 DUP4 ADD MLOAD SWAP3 DUP2 ADD SWAP3 SWAP1 SWAP3 MSTORE POP SWAP2 SWAP1 POP JUMP JUMPDEST PUSH1 0x20 DUP1 DUP3 MSTORE PUSH1 0x10 SWAP1 DUP3 ADD MSTORE PUSH16 0x77726F6E67206F7264657220436F6465 PUSH1 0x80 SHL PUSH1 0x40 DUP3 ADD MSTORE PUSH1 0x60 ADD SWAP1 JUMP JUMPDEST PUSH1 0x20 DUP1 DUP3 MSTORE PUSH1 0xF SWAP1 DUP3 ADD MSTORE PUSH15 0x13DC99195C881B9BDD08199BDD5B99 PUSH1 0x8A SHL PUSH1 0x40 DUP3 ADD MSTORE PUSH1 0x60 ADD SWAP1 JUMP JUMPDEST PUSH0 DUP3 PUSH1 0x1F DUP4 ADD SLT PUSH2 0x74E1 JUMPI PUSH0 DUP1 REVERT JUMPDEST DUP2 MLOAD PUSH2 0x74EF PUSH2 0x6A23 DUP3 PUSH2 0x69E4 JUMP JUMPDEST DUP1 DUP3 DUP3 MSTORE PUSH1 0x20 DUP3 ADD SWAP2 POP PUSH1 0x20 DUP4 PUSH1 0x5 SHL DUP7 ADD ADD SWAP3 POP DUP6 DUP4 GT ISZERO PUSH2 0x7510 JUMPI PUSH0 DUP1 REVERT JUMPDEST PUSH1 0x20 DUP6 ADD JUMPDEST DUP4 DUP2 LT ISZERO PUSH2 0x6A66 JUMPI DUP1 MLOAD DUP4 MSTORE PUSH1 0x20 SWAP3 DUP4 ADD SWAP3 ADD PUSH2 0x7515 JUMP JUMPDEST DUP1 MLOAD PUSH2 0x71E1 DUP2 PUSH2 0x6AC4 JUMP JUMPDEST PUSH0 PUSH1 0x20 DUP3 DUP5 SUB SLT ISZERO PUSH2 0x7548 JUMPI PUSH0 DUP1 REVERT JUMPDEST DUP2 MLOAD PUSH1 0x1 PUSH1 0x1 PUSH1 0x40 SHL SUB DUP2 GT ISZERO PUSH2 0x755D JUMPI PUSH0 DUP1 REVERT JUMPDEST DUP3 ADD PUSH2 0x260 DUP2 DUP6 SUB SLT ISZERO PUSH2 0x756F JUMPI PUSH0 DUP1 REVERT JUMPDEST PUSH2 0x7577 PUSH2 0x6991 JUMP JUMPDEST DUP2 MLOAD DUP2 MSTORE PUSH2 0x7587 PUSH1 0x20 DUP4 ADD PUSH2 0x71D6 JUMP JUMPDEST PUSH1 0x20 DUP3 ADD MSTORE PUSH2 0x7598 PUSH1 0x40 DUP4 ADD PUSH2 0x71D6 JUMP JUMPDEST PUSH1 0x40 DUP3 ADD MSTORE PUSH1 0x60 DUP3 DUP2 ADD MLOAD SWAP1 DUP3 ADD MSTORE PUSH1 0x80 DUP3 ADD MLOAD PUSH1 0x1 PUSH1 0x1 PUSH1 0x40 SHL SUB DUP2 GT ISZERO PUSH2 0x75BF JUMPI PUSH0 DUP1 REVERT JUMPDEST PUSH2 0x75CB DUP7 DUP3 DUP6 ADD PUSH2 0x74D2 JUMP JUMPDEST PUSH1 0x80 DUP4 ADD MSTORE POP PUSH1 0xA0 DUP3 ADD MLOAD PUSH1 0x1 PUSH1 0x1 PUSH1 0x40 SHL SUB DUP2 GT ISZERO PUSH2 0x75E9 JUMPI PUSH0 DUP1 REVERT JUMPDEST PUSH2 0x75F5 DUP7 DUP3 DUP6 ADD PUSH2 0x74D2 JUMP JUMPDEST PUSH1 0xA0 DUP4 ADD MSTORE POP PUSH1 0xC0 DUP3 ADD MLOAD PUSH1 0x1 PUSH1 0x1 PUSH1 0x40 SHL SUB DUP2 GT ISZERO PUSH2 0x7613 JUMPI PUSH0 DUP1 REVERT JUMPDEST PUSH2 0x761F DUP7 DUP3 DUP6 ADD PUSH2 0x74D2 JUMP JUMPDEST PUSH1 0xC0 DUP4 ADD MSTORE POP PUSH1 0xE0 DUP3 ADD MLOAD PUSH1 0x1 PUSH1 0x1 PUSH1 0x40 SHL SUB DUP2 GT ISZERO PUSH2 0x763D JUMPI PUSH0 DUP1 REVERT JUMPDEST PUSH2 0x7649 DUP7 DUP3 DUP6 ADD PUSH2 0x74D2 JUMP JUMPDEST PUSH1 0xE0 DUP4 ADD MSTORE POP PUSH2 0x100 DUP3 ADD MLOAD PUSH1 0x1 PUSH1 0x1 PUSH1 0x40 SHL SUB DUP2 GT ISZERO PUSH2 0x7668 JUMPI PUSH0 DUP1 REVERT JUMPDEST PUSH2 0x7674 DUP7 DUP3 DUP6 ADD PUSH2 0x74D2 JUMP JUMPDEST PUSH2 0x100 DUP4 ADD MSTORE POP PUSH2 0x120 DUP3 ADD MLOAD PUSH1 0x1 PUSH1 0x1 PUSH1 0x40 SHL SUB DUP2 GT ISZERO PUSH2 0x7694 JUMPI PUSH0 DUP1 REVERT JUMPDEST PUSH2 0x76A0 DUP7 DUP3 DUP6 ADD PUSH2 0x74D2 JUMP JUMPDEST PUSH2 0x120 DUP4 ADD MSTORE POP PUSH2 0x140 DUP3 ADD MLOAD PUSH1 0x1 PUSH1 0x1 PUSH1 0x40 SHL SUB DUP2 GT ISZERO PUSH2 0x76C0 JUMPI PUSH0 DUP1 REVERT JUMPDEST PUSH2 0x76CC DUP7 DUP3 DUP6 ADD PUSH2 0x74D2 JUMP JUMPDEST PUSH2 0x140 DUP4 ADD MSTORE POP PUSH2 0x160 DUP3 DUP2 ADD MLOAD SWAP1 DUP3 ADD MSTORE PUSH2 0x76EB PUSH2 0x180 DUP4 ADD PUSH2 0x752D JUMP JUMPDEST PUSH2 0x180 DUP3 ADD MSTORE PUSH2 0x76FE PUSH2 0x1A0 DUP4 ADD PUSH2 0x752D JUMP JUMPDEST PUSH2 0x1A0 DUP3 ADD MSTORE PUSH2 0x1C0 DUP3 DUP2 ADD MLOAD SWAP1 DUP3 ADD MSTORE PUSH2 0x1E0 DUP1 DUP4 ADD MLOAD SWAP1 DUP3 ADD MSTORE PUSH2 0x200 DUP1 DUP4 ADD MLOAD SWAP1 DUP3 ADD MSTORE PUSH2 0x7732 PUSH2 0x220 DUP4 ADD PUSH2 0x752D JUMP JUMPDEST PUSH2 0x220 DUP3 ADD MSTORE PUSH2 0x240 SWAP2 DUP3 ADD MLOAD SWAP2 DUP2 ADD SWAP2 SWAP1 SWAP2 MSTORE SWAP4 SWAP3 POP POP POP JUMP JUMPDEST PUSH0 PUSH1 0xFF DUP3 AND PUSH1 0xFF DUP2 SUB PUSH2 0x7762 JUMPI PUSH2 0x7762 PUSH2 0x7061 JUMP JUMPDEST PUSH1 0x1 ADD SWAP3 SWAP2 POP POP JUMP JUMPDEST PUSH1 0x20 DUP1 DUP3 MSTORE PUSH1 0xC SWAP1 DUP3 ADD MSTORE PUSH12 0x15DC9BDB99C8185B5BDD5B9D PUSH1 0xA2 SHL PUSH1 0x40 DUP3 ADD MSTORE PUSH1 0x60 ADD SWAP1 JUMP JUMPDEST DUP1 DUP3 MUL DUP2 ISZERO DUP3 DUP3 DIV DUP5 EQ OR PUSH2 0x1163 JUMPI PUSH2 0x1163 PUSH2 0x7061 JUMP JUMPDEST PUSH1 0x1 PUSH1 0x1 PUSH1 0xA0 SHL SUB DUP4 AND DUP2 MSTORE PUSH1 0x40 PUSH1 0x20 DUP1 DUP4 ADD DUP3 SWAP1 MSTORE DUP4 MLOAD SWAP2 DUP4 ADD DUP3 SWAP1 MSTORE PUSH0 SWAP2 SWAP1 DUP5 ADD SWAP1 PUSH1 0x60 DUP5 ADD SWAP1 DUP4 JUMPDEST DUP2 DUP2 LT ISZERO PUSH2 0x77F1 JUMPI DUP4 MLOAD DUP4 MSTORE PUSH1 0x20 SWAP4 DUP5 ADD SWAP4 SWAP1 SWAP3 ADD SWAP2 PUSH1 0x1 ADD PUSH2 0x77D3 JUMP JUMPDEST POP SWAP1 SWAP7 SWAP6 POP POP POP POP POP POP JUMP JUMPDEST PUSH1 0x1 PUSH1 0x1 PUSH1 0x60 SHL SUB NOT PUSH1 0x60 SWAP4 DUP5 SHL DUP2 AND DUP3 MSTORE SWAP2 SWAP1 SWAP3 SHL AND PUSH1 0x14 DUP3 ADD MSTORE PUSH1 0x28 ADD SWAP1 JUMP JUMPDEST PUSH0 PUSH1 0xFF DUP4 AND DUP1 PUSH2 0x7831 JUMPI PUSH2 0x7831 PUSH2 0x722B JUMP JUMPDEST DUP1 PUSH1 0xFF DUP5 AND MOD SWAP2 POP POP SWAP3 SWAP2 POP POP JUMP JUMPDEST DUP6 DUP2 MSTORE PUSH1 0xA0 PUSH1 0x20 DUP3 ADD MSTORE PUSH0 PUSH2 0x7858 PUSH1 0xA0 DUP4 ADD DUP8 PUSH2 0x6B15 JUMP JUMPDEST DUP3 DUP2 SUB PUSH1 0x40 DUP5 ADD MSTORE DUP6 MLOAD DUP1 DUP3 MSTORE PUSH1 0x20 DUP1 DUP9 ADD SWAP3 ADD SWAP1 PUSH0 JUMPDEST DUP2 DUP2 LT ISZERO PUSH2 0x788D JUMPI DUP4 MLOAD DUP4 MSTORE PUSH1 0x20 SWAP4 DUP5 ADD SWAP4 SWAP1 SWAP3 ADD SWAP2 PUSH1 0x1 ADD PUSH2 0x786F JUMP JUMPDEST POP POP DUP6 ISZERO ISZERO PUSH1 0x60 DUP6 ADD MSTORE SWAP2 POP PUSH2 0x3C61 SWAP1 POP PUSH1 0x80 DUP4 ADD DUP5 PUSH2 0x6DA5 JUMP JUMPDEST PUSH1 0x20 DUP1 DUP3 MSTORE PUSH1 0x19 SWAP1 DUP3 ADD MSTORE PUSH25 0x506172656E74206C6F737420647572696E6720726573657421 PUSH1 0x38 SHL PUSH1 0x40 DUP3 ADD MSTORE PUSH1 0x60 ADD SWAP1 JUMP JUMPDEST PUSH0 DUP2 MLOAD DUP1 DUP5 MSTORE DUP1 PUSH1 0x20 DUP5 ADD PUSH1 0x20 DUP7 ADD MCOPY PUSH0 PUSH1 0x20 DUP3 DUP7 ADD ADD MSTORE PUSH1 0x20 PUSH1 0x1F NOT PUSH1 0x1F DUP4 ADD AND DUP6 ADD ADD SWAP2 POP POP SWAP3 SWAP2 POP POP JUMP JUMPDEST PUSH1 0x40 DUP2 MSTORE PUSH0 PUSH2 0x791B PUSH1 0x40 DUP4 ADD DUP6 PUSH2 0x78DB JUMP JUMPDEST SWAP1 POP PUSH1 0x1 DUP1 PUSH1 0xA0 SHL SUB DUP4 AND PUSH1 0x20 DUP4 ADD MSTORE SWAP4 SWAP3 POP POP POP JUMP JUMPDEST PUSH1 0x40 DUP2 MSTORE PUSH0 PUSH2 0x7944 PUSH1 0x40 DUP4 ADD DUP6 PUSH2 0x78DB JUMP JUMPDEST SWAP1 POP DUP3 PUSH1 0x20 DUP4 ADD MSTORE SWAP4 SWAP3 POP POP POP JUMP INVALID DUP14 GT ADDMOD 0xE1 SIGNEXTEND 0xCB PUSH29 0x27DDDFC02ED9D693A074039D026CF4EA4240B40F7D581AC8068D1108E1 SIGNEXTEND 0xCB PUSH29 0x27DDDFC02ED9D693A074039D026CF4EA4240B40F7D581AC8058D1108E1 SIGNEXTEND 0xCB PUSH29 0x27DDDFC02ED9D693A074039D026CF4EA4240B40F7D581AC8048D1108E1 SIGNEXTEND 0xCB PUSH29 0x27DDDFC02ED9D693A074039D026CF4EA4240B40F7D581AC8038D1108E1 SIGNEXTEND 0xCB PUSH29 0x27DDDFC02ED9D693A074039D026CF4EA4240B40F7D581AC802A2646970 PUSH7 0x73582212205FB6 SWAP1 0x26 AND BYTE PREVRANDAO BALANCE 0xD7 0xD7 CALLDATALOAD 0xB6 0xA7 PUSH6 0x280E7B856F21 0xEF DUP3 GASPRICE DUP12 0xCD MULMOD SIGNEXTEND BYTE 0xE0 0xD9 0xB7 LOG1 PUSH5 0x736F6C6343 STOP ADDMOD BYTE STOP CALLER "
		},
		"gasEstimates": {
			"creation": {
				"codeDepositCost": "6254600",
				"executionCost": "infinite",
				"totalCost": "infinite"
			},
			"external": {
				"addPromoterMember(address,address,uint256,uint256,bytes32)": "infinite",
				"addVIPMember(address,address,bytes32)": "infinite",
				"balancesManager()": "2844",
				"banUser(address)": "26769",
				"buyProduct(bytes32,bytes32)": "infinite",
				"checkPromoter(address)": "2659",
				"dailyUpdateGenerationRank()": "infinite",
				"distributeNationalBonus()": "infinite",
				"eComOrderManagerAddress()": "2668",
				"eComUserManagerAddress()": "2646",
				"getAddress()": "9021",
				"getChildren(address,uint8,uint256,uint256)": "infinite",
				"getCommInfoUSDTInRange(address,uint256,uint256)": "infinite",
				"getCommissionUSDTInRange(address,uint256,uint256)": "infinite",
				"getPromoterInfo()": "infinite",
				"getVIPInfo()": "7306",
				"getVIPMembers(address,uint256,uint256)": "infinite",
				"hourlyBatchProcessing()": "infinite",
				"isPromoterActive(address)": "5345",
				"isVIP()": "2850",
				"isVIPOrPromoter(address)": "7515",
				"processTeamBPAndActive(uint256,uint256)": "infinite",
				"renewMembership(address,bytes32)": "infinite",
				"resetMonthlyData(uint256,uint256)": "infinite",
				"sendProfitForEStock(uint256)": "infinite",
				"setAgentLevel(address,uint256)": "29470",
				"setDaoNode(address)": "26703",
				"setEcomOrder(address)": "27297",
				"setEcomUser(address)": "26681",
				"setLockData(bool)": "29439",
				"setStockNode(address)": "26945",
				"setUsdt(address)": "27099",
				"testGetNodeParent(address)": "2780",
				"testGetUserParent(address)": "infinite",
				"updateDeliveryProduct(bytes32)": "infinite",
				"upgradeToPromoter(address,uint256,uint256,bytes32)": "infinite",
				"withdrawBP(uint256,bytes32[])": "infinite",
				"withdrawBPToAnotherUser(uint256,address,bytes32[])": "infinite"
			},
			"internal": {
				"_processNewMember(address,address,uint256,uint256,bytes32)": "infinite",
				"_processPersonalSales(address,uint256,bytes32)": "infinite",
				"processParentRecursively(address)": "infinite",
				"processQueue()": "infinite",
				"recordPersonalSales(address,uint256,bytes32)": "infinite",
				"recordSales(address,uint256)": "50948",
				"updateLeafNodes()": "infinite",
				"withdrawBPToUser(uint256,address,bytes32[] memory)": "infinite"
			}
		},
		"methodIdentifiers": {
			"addPromoterMember(address,address,uint256,uint256,bytes32)": "44b89702",
			"addVIPMember(address,address,bytes32)": "259dbd96",
			"balancesManager()": "667883f1",
			"banUser(address)": "10d86b1f",
			"buyProduct(bytes32,bytes32)": "d7b5a2d4",
			"checkPromoter(address)": "20d996d2",
			"dailyUpdateGenerationRank()": "35b79c3d",
			"distributeNationalBonus()": "2cf899e2",
			"eComOrderManagerAddress()": "432e9d88",
			"eComUserManagerAddress()": "424ad610",
			"getAddress()": "38cc4831",
			"getChildren(address,uint8,uint256,uint256)": "1da0073a",
			"getCommInfoUSDTInRange(address,uint256,uint256)": "40d1ac13",
			"getCommissionUSDTInRange(address,uint256,uint256)": "c2ad61e7",
			"getPromoterInfo()": "e1ab8c6b",
			"getVIPInfo()": "504ed733",
			"getVIPMembers(address,uint256,uint256)": "964b74dd",
			"hourlyBatchProcessing()": "db499bf5",
			"isPromoterActive(address)": "6c0adbbd",
			"isVIP()": "61a475c8",
			"isVIPOrPromoter(address)": "8b59d23e",
			"processTeamBPAndActive(uint256,uint256)": "1f01f30d",
			"renewMembership(address,bytes32)": "b9bcaf02",
			"resetMonthlyData(uint256,uint256)": "bcd565ba",
			"sendProfitForEStock(uint256)": "8345be55",
			"setAgentLevel(address,uint256)": "61474327",
			"setDaoNode(address)": "0d5795b9",
			"setEcomOrder(address)": "8ca8107b",
			"setEcomUser(address)": "08a851b8",
			"setLockData(bool)": "b35cade9",
			"setStockNode(address)": "405978f8",
			"setUsdt(address)": "58979bfe",
			"testGetNodeParent(address)": "38cb9134",
			"testGetUserParent(address)": "4a0328de",
			"updateDeliveryProduct(bytes32)": "e45c1b56",
			"upgradeToPromoter(address,uint256,uint256,bytes32)": "839c7ead",
			"withdrawBP(uint256,bytes32[])": "5f35ca9c",
			"withdrawBPToAnotherUser(uint256,address,bytes32[])": "185807e4"
		}
	},
	"abi": [
		{
			"inputs": [
				{
					"internalType": "address",
					"name": "_ecomOrderAddress",
					"type": "address"
				},
				{
					"internalType": "address",
					"name": "_ecomUserAddress",
					"type": "address"
				},
				{
					"internalType": "address",
					"name": "_balanceManagerAddress",
					"type": "address"
				},
				{
					"internalType": "address",
					"name": "_showroomAddress",
					"type": "address"
				},
				{
					"internalType": "address",
					"name": "_eventLoggerAddress",
					"type": "address"
				},
				{
					"internalType": "address",
					"name": "_rootNodeAddress",
					"type": "address"
				},
				{
					"internalType": "address",
					"name": "_daoNodeAddress",
					"type": "address"
				},
				{
					"internalType": "address",
					"name": "_stockNodeAddress",
					"type": "address"
				},
				{
					"internalType": "address",
					"name": "_usdtAddress",
					"type": "address"
				}
			],
			"stateMutability": "nonpayable",
			"type": "constructor"
		},
		{
			"anonymous": false,
			"inputs": [
				{
					"indexed": true,
					"internalType": "address",
					"name": "user",
					"type": "address"
				},
				{
					"indexed": false,
					"internalType": "uint256",
					"name": "bp",
					"type": "uint256"
				}
			],
			"name": "BPChanged",
			"type": "event"
		},
		{
			"inputs": [
				{
					"internalType": "address",
					"name": "newMember",
					"type": "address"
				},
				{
					"internalType": "address",
					"name": "parent",
					"type": "address"
				},
				{
					"internalType": "uint256",
					"name": "longtitude",
					"type": "uint256"
				},
				{
					"internalType": "uint256",
					"name": "lattitude",
					"type": "uint256"
				},
				{
					"internalType": "bytes32",
					"name": "utxoID",
					"type": "bytes32"
				}
			],
			"name": "addPromoterMember",
			"outputs": [],
			"stateMutability": "nonpayable",
			"type": "function"
		},
		{
			"inputs": [
				{
					"internalType": "address",
					"name": "newMember",
					"type": "address"
				},
				{
					"internalType": "address",
					"name": "parent",
					"type": "address"
				},
				{
					"internalType": "bytes32",
					"name": "utxoID",
					"type": "bytes32"
				}
			],
			"name": "addVIPMember",
			"outputs": [],
			"stateMutability": "nonpayable",
			"type": "function"
		},
		{
			"inputs": [],
			"name": "balancesManager",
			"outputs": [
				{
					"internalType": "contract BalancesManager",
					"name": "",
					"type": "address"
				}
			],
			"stateMutability": "view",
			"type": "function"
		},
		{
			"inputs": [
				{
					"internalType": "address",
					"name": "user",
					"type": "address"
				}
			],
			"name": "banUser",
			"outputs": [],
			"stateMutability": "nonpayable",
			"type": "function"
		},
		{
			"inputs": [
				{
					"internalType": "bytes32",
					"name": "orderCode",
					"type": "bytes32"
				},
				{
					"internalType": "bytes32",
					"name": "utxoID",
					"type": "bytes32"
				}
			],
			"name": "buyProduct",
			"outputs": [],
			"stateMutability": "nonpayable",
			"type": "function"
		},
		{
			"inputs": [
				{
					"internalType": "address",
					"name": "user",
					"type": "address"
				}
			],
			"name": "checkPromoter",
			"outputs": [
				{
					"internalType": "bool",
					"name": "",
					"type": "bool"
				}
			],
			"stateMutability": "view",
			"type": "function"
		},
		{
			"inputs": [],
			"name": "dailyUpdateGenerationRank",
			"outputs": [],
			"stateMutability": "nonpayable",
			"type": "function"
		},
		{
			"inputs": [],
			"name": "distributeNationalBonus",
			"outputs": [],
			"stateMutability": "nonpayable",
			"type": "function"
		},
		{
			"inputs": [],
			"name": "eComOrderManagerAddress",
			"outputs": [
				{
					"internalType": "address",
					"name": "",
					"type": "address"
				}
			],
			"stateMutability": "view",
			"type": "function"
		},
		{
			"inputs": [],
			"name": "eComUserManagerAddress",
			"outputs": [
				{
					"internalType": "address",
					"name": "",
					"type": "address"
				}
			],
			"stateMutability": "view",
			"type": "function"
		},
		{
			"inputs": [],
			"name": "getAddress",
			"outputs": [
				{
					"internalType": "address",
					"name": "",
					"type": "address"
				},
				{
					"internalType": "address",
					"name": "",
					"type": "address"
				},
				{
					"internalType": "address",
					"name": "",
					"type": "address"
				}
			],
			"stateMutability": "view",
			"type": "function"
		},
		{
			"inputs": [
				{
					"internalType": "address",
					"name": "user",
					"type": "address"
				},
				{
					"internalType": "uint8",
					"name": "totalLevel",
					"type": "uint8"
				},
				{
					"internalType": "uint256",
					"name": "startIndex",
					"type": "uint256"
				},
				{
					"internalType": "uint256",
					"name": "pageSize",
					"type": "uint256"
				}
			],
			"name": "getChildren",
			"outputs": [
				{
					"internalType": "address[]",
					"name": "children",
					"type": "address[]"
				},
				{
					"components": [
						{
							"internalType": "address",
							"name": "parent",
							"type": "address"
						},
						{
							"internalType": "address[]",
							"name": "children",
							"type": "address[]"
						},
						{
							"internalType": "enum TreeLib.Rank",
							"name": "rank",
							"type": "uint8"
						},
						{
							"internalType": "enum TreeLib.Status",
							"name": "status",
							"type": "uint8"
						}
					],
					"internalType": "struct TreeLib.NodeInfo[]",
					"name": "childrenInfo",
					"type": "tuple[]"
				},
				{
					"components": [
						{
							"internalType": "uint256",
							"name": "membershipExpiry",
							"type": "uint256"
						},
						{
							"internalType": "uint256",
							"name": "processedChildren",
							"type": "uint256"
						},
						{
							"internalType": "uint256",
							"name": "personalBP",
							"type": "uint256"
						},
						{
							"internalType": "uint256",
							"name": "teamBP",
							"type": "uint256"
						},
						{
							"internalType": "uint256",
							"name": "totalTeamBP",
							"type": "uint256"
						}
					],
					"internalType": "struct TreeLib.NodeData[]",
					"name": "childrenData",
					"type": "tuple[]"
				}
			],
			"stateMutability": "nonpayable",
			"type": "function"
		},
		{
			"inputs": [
				{
					"internalType": "address",
					"name": "_user",
					"type": "address"
				},
				{
					"internalType": "uint256",
					"name": "_startDate",
					"type": "uint256"
				},
				{
					"internalType": "uint256",
					"name": "_endDate",
					"type": "uint256"
				}
			],
			"name": "getCommInfoUSDTInRange",
			"outputs": [
				{
					"components": [
						{
							"internalType": "address",
							"name": "user",
							"type": "address"
						},
						{
							"internalType": "uint256",
							"name": "amount",
							"type": "uint256"
						},
						{
							"internalType": "enum ITreeCommission.TYPE_OF_COM",
							"name": "typ",
							"type": "uint8"
						},
						{
							"internalType": "uint256",
							"name": "createdAt",
							"type": "uint256"
						}
					],
					"internalType": "struct ITreeCommission.CommissionInfo[]",
					"name": "comInfos",
					"type": "tuple[]"
				}
			],
			"stateMutability": "view",
			"type": "function"
		},
		{
			"inputs": [
				{
					"internalType": "address",
					"name": "_user",
					"type": "address"
				},
				{
					"internalType": "uint256",
					"name": "_startDate",
					"type": "uint256"
				},
				{
					"internalType": "uint256",
					"name": "_endDate",
					"type": "uint256"
				}
			],
			"name": "getCommissionUSDTInRange",
			"outputs": [
				{
					"components": [
						{
							"internalType": "uint256",
							"name": "retailBonus",
							"type": "uint256"
						},
						{
							"internalType": "uint256",
							"name": "showroomBonus",
							"type": "uint256"
						},
						{
							"internalType": "uint256",
							"name": "daoBonus",
							"type": "uint256"
						},
						{
							"internalType": "uint256",
							"name": "otherBonus",
							"type": "uint256"
						},
						{
							"internalType": "uint256",
							"name": "activationBp",
							"type": "uint256"
						},
						{
							"internalType": "uint256",
							"name": "diffPrice",
							"type": "uint256"
						},
						{
							"internalType": "uint256",
							"name": "unilevelBonus",
							"type": "uint256"
						},
						{
							"internalType": "uint256",
							"name": "generationBonus",
							"type": "uint256"
						},
						{
							"internalType": "uint256",
							"name": "nationalBonus",
							"type": "uint256"
						}
					],
					"internalType": "struct ITreeCommission.CommissionData",
					"name": "commissionData",
					"type": "tuple"
				}
			],
			"stateMutability": "view",
			"type": "function"
		},
		{
			"inputs": [],
			"name": "getPromoterInfo",
			"outputs": [
				{
					"components": [
						{
							"internalType": "address",
							"name": "parent",
							"type": "address"
						},
						{
							"internalType": "address[]",
							"name": "children",
							"type": "address[]"
						},
						{
							"internalType": "enum TreeLib.Rank",
							"name": "rank",
							"type": "uint8"
						},
						{
							"internalType": "enum TreeLib.Status",
							"name": "status",
							"type": "uint8"
						}
					],
					"internalType": "struct TreeLib.NodeInfo",
					"name": "nodesUser",
					"type": "tuple"
				},
				{
					"components": [
						{
							"internalType": "uint256",
							"name": "membershipExpiry",
							"type": "uint256"
						},
						{
							"internalType": "uint256",
							"name": "processedChildren",
							"type": "uint256"
						},
						{
							"internalType": "uint256",
							"name": "personalBP",
							"type": "uint256"
						},
						{
							"internalType": "uint256",
							"name": "teamBP",
							"type": "uint256"
						},
						{
							"internalType": "uint256",
							"name": "totalTeamBP",
							"type": "uint256"
						}
					],
					"internalType": "struct TreeLib.NodeData",
					"name": "nodeDataUser",
					"type": "tuple"
				}
			],
			"stateMutability": "view",
			"type": "function"
		},
		{
			"inputs": [],
			"name": "getVIPInfo",
			"outputs": [
				{
					"components": [
						{
							"internalType": "address",
							"name": "parent",
							"type": "address"
						},
						{
							"internalType": "uint256",
							"name": "membershipExpiry",
							"type": "uint256"
						}
					],
					"internalType": "struct TreeCommission.VIPNode",
					"name": "",
					"type": "tuple"
				}
			],
			"stateMutability": "view",
			"type": "function"
		},
		{
			"inputs": [
				{
					"internalType": "address",
					"name": "user",
					"type": "address"
				},
				{
					"internalType": "uint256",
					"name": "startIndex",
					"type": "uint256"
				},
				{
					"internalType": "uint256",
					"name": "pageSize",
					"type": "uint256"
				}
			],
			"name": "getVIPMembers",
			"outputs": [
				{
					"internalType": "address[]",
					"name": "",
					"type": "address[]"
				}
			],
			"stateMutability": "view",
			"type": "function"
		},
		{
			"inputs": [],
			"name": "hourlyBatchProcessing",
			"outputs": [],
			"stateMutability": "nonpayable",
			"type": "function"
		},
		{
			"inputs": [
				{
					"internalType": "address",
					"name": "user",
					"type": "address"
				}
			],
			"name": "isPromoterActive",
			"outputs": [
				{
					"internalType": "bool",
					"name": "",
					"type": "bool"
				}
			],
			"stateMutability": "view",
			"type": "function"
		},
		{
			"inputs": [],
			"name": "isVIP",
			"outputs": [
				{
					"internalType": "bool",
					"name": "",
					"type": "bool"
				}
			],
			"stateMutability": "view",
			"type": "function"
		},
		{
			"inputs": [
				{
					"internalType": "address",
					"name": "user",
					"type": "address"
				}
			],
			"name": "isVIPOrPromoter",
			"outputs": [
				{
					"internalType": "bool",
					"name": "",
					"type": "bool"
				}
			],
			"stateMutability": "view",
			"type": "function"
		},
		{
			"inputs": [
				{
					"internalType": "uint256",
					"name": "startIndex",
					"type": "uint256"
				},
				{
					"internalType": "uint256",
					"name": "batchSize",
					"type": "uint256"
				}
			],
			"name": "processTeamBPAndActive",
			"outputs": [
				{
					"internalType": "uint256",
					"name": "nextIndex",
					"type": "uint256"
				}
			],
			"stateMutability": "nonpayable",
			"type": "function"
		},
		{
			"inputs": [
				{
					"internalType": "address",
					"name": "user",
					"type": "address"
				},
				{
					"internalType": "bytes32",
					"name": "utxoID",
					"type": "bytes32"
				}
			],
			"name": "renewMembership",
			"outputs": [],
			"stateMutability": "payable",
			"type": "function"
		},
		{
			"inputs": [
				{
					"internalType": "uint256",
					"name": "startIndex",
					"type": "uint256"
				},
				{
					"internalType": "uint256",
					"name": "batchSize",
					"type": "uint256"
				}
			],
			"name": "resetMonthlyData",
			"outputs": [],
			"stateMutability": "nonpayable",
			"type": "function"
		},
		{
			"inputs": [
				{
					"internalType": "uint256",
					"name": "amount",
					"type": "uint256"
				}
			],
			"name": "sendProfitForEStock",
			"outputs": [],
			"stateMutability": "nonpayable",
			"type": "function"
		},
		{
			"inputs": [
				{
					"internalType": "address",
					"name": "user",
					"type": "address"
				},
				{
					"internalType": "uint256",
					"name": "level",
					"type": "uint256"
				}
			],
			"name": "setAgentLevel",
			"outputs": [],
			"stateMutability": "nonpayable",
			"type": "function"
		},
		{
			"inputs": [
				{
					"internalType": "address",
					"name": "_daoNodeAddress",
					"type": "address"
				}
			],
			"name": "setDaoNode",
			"outputs": [],
			"stateMutability": "nonpayable",
			"type": "function"
		},
		{
			"inputs": [
				{
					"internalType": "address",
					"name": "_eComOrderManagerAddress",
					"type": "address"
				}
			],
			"name": "setEcomOrder",
			"outputs": [],
			"stateMutability": "nonpayable",
			"type": "function"
		},
		{
			"inputs": [
				{
					"internalType": "address",
					"name": "_eComUserManagerAddress",
					"type": "address"
				}
			],
			"name": "setEcomUser",
			"outputs": [],
			"stateMutability": "nonpayable",
			"type": "function"
		},
		{
			"inputs": [
				{
					"internalType": "bool",
					"name": "isLock",
					"type": "bool"
				}
			],
			"name": "setLockData",
			"outputs": [],
			"stateMutability": "nonpayable",
			"type": "function"
		},
		{
			"inputs": [
				{
					"internalType": "address",
					"name": "_stockNodeAddress",
					"type": "address"
				}
			],
			"name": "setStockNode",
			"outputs": [],
			"stateMutability": "nonpayable",
			"type": "function"
		},
		{
			"inputs": [
				{
					"internalType": "address",
					"name": "_usdtAddress",
					"type": "address"
				}
			],
			"name": "setUsdt",
			"outputs": [],
			"stateMutability": "nonpayable",
			"type": "function"
		},
		{
			"inputs": [
				{
					"internalType": "address",
					"name": "newMember",
					"type": "address"
				}
			],
			"name": "testGetNodeParent",
			"outputs": [
				{
					"internalType": "address",
					"name": "",
					"type": "address"
				}
			],
			"stateMutability": "view",
			"type": "function"
		},
		{
			"inputs": [
				{
					"internalType": "address",
					"name": "newMember",
					"type": "address"
				}
			],
			"name": "testGetUserParent",
			"outputs": [
				{
					"internalType": "address",
					"name": "",
					"type": "address"
				}
			],
			"stateMutability": "view",
			"type": "function"
		},
		{
			"inputs": [
				{
					"internalType": "bytes32",
					"name": "orderCode",
					"type": "bytes32"
				}
			],
			"name": "updateDeliveryProduct",
			"outputs": [],
			"stateMutability": "nonpayable",
			"type": "function"
		},
		{
			"inputs": [
				{
					"internalType": "address",
					"name": "user",
					"type": "address"
				},
				{
					"internalType": "uint256",
					"name": "longtitude",
					"type": "uint256"
				},
				{
					"internalType": "uint256",
					"name": "lattitude",
					"type": "uint256"
				},
				{
					"internalType": "bytes32",
					"name": "utxoID",
					"type": "bytes32"
				}
			],
			"name": "upgradeToPromoter",
			"outputs": [],
			"stateMutability": "payable",
			"type": "function"
		},
		{
			"inputs": [
				{
					"internalType": "uint256",
					"name": "amount",
					"type": "uint256"
				},
				{
					"internalType": "bytes32[]",
					"name": "utxoArr",
					"type": "bytes32[]"
				}
			],
			"name": "withdrawBP",
			"outputs": [],
			"stateMutability": "nonpayable",
			"type": "function"
		},
		{
			"inputs": [
				{
					"internalType": "uint256",
					"name": "amount",
					"type": "uint256"
				},
				{
					"internalType": "address",
					"name": "user",
					"type": "address"
				},
				{
					"internalType": "bytes32[]",
					"name": "utxoArr",
					"type": "bytes32[]"
				}
			],
			"name": "withdrawBPToAnotherUser",
			"outputs": [],
			"stateMutability": "nonpayable",
			"type": "function"
		}
	]
}