{
	"src/ecom/libs/date.sol": {
		"DateTimeTZ": {
			"abi": [
				{
					"inputs": [
						{
							"internalType": "uint256",
							"name": "timestamp",
							"type": "uint256"
						},
						{
							"internalType": "uint256",
							"name": "_days",
							"type": "uint256"
						}
					],
					"name": "addDays",
					"outputs": [
						{
							"internalType": "uint256",
							"name": "newTimestamp",
							"type": "uint256"
						}
					],
					"stateMutability": "pure",
					"type": "function"
				},
				{
					"inputs": [
						{
							"internalType": "uint256",
							"name": "timestamp",
							"type": "uint256"
						},
						{
							"internalType": "int256",
							"name": "tz",
							"type": "int256"
						}
					],
					"name": "addTimezone",
					"outputs": [
						{
							"internalType": "uint256",
							"name": "",
							"type": "uint256"
						}
					],
					"stateMutability": "pure",
					"type": "function"
				},
				{
					"inputs": [
						{
							"internalType": "uint256",
							"name": "_ymd",
							"type": "uint256"
						}
					],
					"name": "extractYMD",
					"outputs": [
						{
							"internalType": "uint256",
							"name": "year",
							"type": "uint256"
						},
						{
							"internalType": "uint256",
							"name": "month",
							"type": "uint256"
						},
						{
							"internalType": "uint256",
							"name": "day",
							"type": "uint256"
						}
					],
					"stateMutability": "pure",
					"type": "function"
				},
				{
					"inputs": [
						{
							"internalType": "uint256",
							"name": "_ymd",
							"type": "uint256"
						},
						{
							"internalType": "int256",
							"name": "tz",
							"type": "int256"
						}
					],
					"name": "getDayOfWeekFromYMD",
					"outputs": [
						{
							"internalType": "uint256",
							"name": "dayOfWeek",
							"type": "uint256"
						}
					],
					"stateMutability": "pure",
					"type": "function"
				},
				{
					"inputs": [
						{
							"internalType": "uint256",
							"name": "year",
							"type": "uint256"
						},
						{
							"internalType": "uint256",
							"name": "month",
							"type": "uint256"
						}
					],
					"name": "getDaysInMonth",
					"outputs": [
						{
							"internalType": "uint256",
							"name": "daysInMonth",
							"type": "uint256"
						}
					],
					"stateMutability": "pure",
					"type": "function"
				},
				{
					"inputs": [
						{
							"internalType": "uint256",
							"name": "timestamp",
							"type": "uint256"
						},
						{
							"internalType": "int256",
							"name": "tz",
							"type": "int256"
						}
					],
					"name": "getEndOfDate",
					"outputs": [
						{
							"internalType": "uint256",
							"name": "endOfDate",
							"type": "uint256"
						}
					],
					"stateMutability": "pure",
					"type": "function"
				},
				{
					"inputs": [
						{
							"internalType": "uint256",
							"name": "timestamp",
							"type": "uint256"
						},
						{
							"internalType": "int256",
							"name": "tz",
							"type": "int256"
						}
					],
					"name": "getStartOfDate",
					"outputs": [
						{
							"internalType": "uint256",
							"name": "startOfDate",
							"type": "uint256"
						}
					],
					"stateMutability": "pure",
					"type": "function"
				},
				{
					"inputs": [
						{
							"internalType": "uint256",
							"name": "timestamp",
							"type": "uint256"
						},
						{
							"internalType": "int256",
							"name": "tz",
							"type": "int256"
						}
					],
					"name": "getYM",
					"outputs": [
						{
							"internalType": "uint256",
							"name": "",
							"type": "uint256"
						}
					],
					"stateMutability": "pure",
					"type": "function"
				},
				{
					"inputs": [
						{
							"internalType": "uint256",
							"name": "timestamp",
							"type": "uint256"
						},
						{
							"internalType": "int256",
							"name": "tz",
							"type": "int256"
						}
					],
					"name": "getYMD",
					"outputs": [
						{
							"internalType": "uint256",
							"name": "",
							"type": "uint256"
						}
					],
					"stateMutability": "pure",
					"type": "function"
				},
				{
					"inputs": [
						{
							"internalType": "uint256",
							"name": "timestamp",
							"type": "uint256"
						},
						{
							"internalType": "int256",
							"name": "tz",
							"type": "int256"
						}
					],
					"name": "getYYYYMMDDAndTime",
					"outputs": [
						{
							"internalType": "uint256",
							"name": "ymd",
							"type": "uint256"
						},
						{
							"internalType": "uint256",
							"name": "time",
							"type": "uint256"
						}
					],
					"stateMutability": "pure",
					"type": "function"
				},
				{
					"inputs": [
						{
							"internalType": "uint256",
							"name": "timestamp",
							"type": "uint256"
						},
						{
							"internalType": "uint256",
							"name": "_days",
							"type": "uint256"
						}
					],
					"name": "subDays",
					"outputs": [
						{
							"internalType": "uint256",
							"name": "newTimestamp",
							"type": "uint256"
						}
					],
					"stateMutability": "pure",
					"type": "function"
				},
				{
					"inputs": [
						{
							"internalType": "uint256",
							"name": "year",
							"type": "uint256"
						},
						{
							"internalType": "uint256",
							"name": "month",
							"type": "uint256"
						},
						{
							"internalType": "uint256",
							"name": "day",
							"type": "uint256"
						},
						{
							"internalType": "int256",
							"name": "tz",
							"type": "int256"
						}
					],
					"name": "timestampFromDate",
					"outputs": [
						{
							"internalType": "uint256",
							"name": "timestamp",
							"type": "uint256"
						}
					],
					"stateMutability": "pure",
					"type": "function"
				},
				{
					"inputs": [
						{
							"internalType": "uint256",
							"name": "year",
							"type": "uint256"
						},
						{
							"internalType": "uint256",
							"name": "month",
							"type": "uint256"
						},
						{
							"internalType": "uint256",
							"name": "day",
							"type": "uint256"
						},
						{
							"internalType": "uint256",
							"name": "hour",
							"type": "uint256"
						},
						{
							"internalType": "uint256",
							"name": "minute",
							"type": "uint256"
						},
						{
							"internalType": "uint256",
							"name": "second",
							"type": "uint256"
						},
						{
							"internalType": "int256",
							"name": "tz",
							"type": "int256"
						}
					],
					"name": "timestampFromDateTime",
					"outputs": [
						{
							"internalType": "uint256",
							"name": "timestamp",
							"type": "uint256"
						}
					],
					"stateMutability": "pure",
					"type": "function"
				},
				{
					"inputs": [
						{
							"internalType": "uint256",
							"name": "_ymd",
							"type": "uint256"
						},
						{
							"internalType": "int256",
							"name": "tz",
							"type": "int256"
						}
					],
					"name": "timestampFromYMD",
					"outputs": [
						{
							"internalType": "uint256",
							"name": "timestamp",
							"type": "uint256"
						}
					],
					"stateMutability": "pure",
					"type": "function"
				},
				{
					"inputs": [
						{
							"internalType": "uint256",
							"name": "year",
							"type": "uint256"
						},
						{
							"internalType": "uint256",
							"name": "month",
							"type": "uint256"
						},
						{
							"internalType": "uint256",
							"name": "day",
							"type": "uint256"
						},
						{
							"internalType": "int256",
							"name": "tz",
							"type": "int256"
						}
					],
					"name": "timestampFromYMD",
					"outputs": [
						{
							"internalType": "uint256",
							"name": "timestamp",
							"type": "uint256"
						}
					],
					"stateMutability": "pure",
					"type": "function"
				},
				{
					"inputs": [
						{
							"internalType": "uint256",
							"name": "timestamp",
							"type": "uint256"
						},
						{
							"internalType": "int256",
							"name": "tz",
							"type": "int256"
						}
					],
					"name": "timestampToDate",
					"outputs": [
						{
							"internalType": "uint256",
							"name": "year",
							"type": "uint256"
						},
						{
							"internalType": "uint256",
							"name": "month",
							"type": "uint256"
						},
						{
							"internalType": "uint256",
							"name": "day",
							"type": "uint256"
						}
					],
					"stateMutability": "pure",
					"type": "function"
				},
				{
					"inputs": [
						{
							"internalType": "uint256",
							"name": "timestamp",
							"type": "uint256"
						},
						{
							"internalType": "int256",
							"name": "tz",
							"type": "int256"
						}
					],
					"name": "timestampToDateAndTimeString",
					"outputs": [
						{
							"internalType": "string",
							"name": "date",
							"type": "string"
						},
						{
							"internalType": "string",
							"name": "time",
							"type": "string"
						}
					],
					"stateMutability": "pure",
					"type": "function"
				},
				{
					"inputs": [
						{
							"internalType": "uint256",
							"name": "timestamp",
							"type": "uint256"
						},
						{
							"internalType": "int256",
							"name": "tz",
							"type": "int256"
						}
					],
					"name": "timestampToDateTime",
					"outputs": [
						{
							"internalType": "uint256",
							"name": "year",
							"type": "uint256"
						},
						{
							"internalType": "uint256",
							"name": "month",
							"type": "uint256"
						},
						{
							"internalType": "uint256",
							"name": "day",
							"type": "uint256"
						},
						{
							"internalType": "uint256",
							"name": "hour",
							"type": "uint256"
						},
						{
							"internalType": "uint256",
							"name": "minute",
							"type": "uint256"
						},
						{
							"internalType": "uint256",
							"name": "second",
							"type": "uint256"
						}
					],
					"stateMutability": "pure",
					"type": "function"
				},
				{
					"inputs": [
						{
							"internalType": "uint256",
							"name": "timestamp",
							"type": "uint256"
						},
						{
							"internalType": "int256",
							"name": "tz",
							"type": "int256"
						}
					],
					"name": "timestampToDetailString",
					"outputs": [
						{
							"internalType": "string",
							"name": "",
							"type": "string"
						}
					],
					"stateMutability": "pure",
					"type": "function"
				},
				{
					"inputs": [
						{
							"internalType": "uint256",
							"name": "timestamp",
							"type": "uint256"
						},
						{
							"internalType": "int256",
							"name": "tz",
							"type": "int256"
						}
					],
					"name": "timestampToString",
					"outputs": [
						{
							"internalType": "string",
							"name": "",
							"type": "string"
						}
					],
					"stateMutability": "pure",
					"type": "function"
				},
				{
					"inputs": [
						{
							"internalType": "uint256",
							"name": "ymd",
							"type": "uint256"
						}
					],
					"name": "ymdToString",
					"outputs": [
						{
							"internalType": "string",
							"name": "",
							"type": "string"
						}
					],
					"stateMutability": "pure",
					"type": "function"
				}
			],
			"devdoc": {
				"details": "WRAPUP FUNC FOR DateTime Lib With TimeZone # #####################################################",
				"kind": "dev",
				"methods": {},
				"version": 1
			},
			"evm": {
				"assembly": "    /* \"src/ecom/libs/date.sol\":349:6270  contract DateTimeTZ {... */\n  mstore(0x40, 0x80)\n  callvalue\n  dup1\n  iszero\n  tag_1\n  jumpi\n  0x00\n  dup1\n  revert\ntag_1:\n  pop\n  dataSize(sub_0)\n  dup1\n  dataOffset(sub_0)\n  0x00\n  codecopy\n  0x00\n  return\nstop\n\nsub_0: assembly {\n        /* \"src/ecom/libs/date.sol\":349:6270  contract DateTimeTZ {... */\n      mstore(0x40, 0x80)\n      callvalue\n      dup1\n      iszero\n      tag_1\n      jumpi\n      0x00\n      dup1\n      revert\n    tag_1:\n      pop\n      jumpi(tag_2, lt(calldatasize, 0x04))\n      shr(0xe0, calldataload(0x00))\n      dup1\n      0x7bbb7570\n      gt\n      tag_24\n      jumpi\n      dup1\n      0xbe9afac7\n      gt\n      tag_25\n      jumpi\n      dup1\n      0xbe9afac7\n      eq\n      tag_18\n      jumpi\n      dup1\n      0xc0ad3328\n      eq\n      tag_19\n      jumpi\n      dup1\n      0xc7b6fd6a\n      eq\n      tag_20\n      jumpi\n      dup1\n      0xc8dc5a22\n      eq\n      tag_21\n      jumpi\n      dup1\n      0xcf6a169c\n      eq\n      tag_22\n      jumpi\n      dup1\n      0xeee32dff\n      eq\n      tag_23\n      jumpi\n      jump(tag_2)\n    tag_25:\n      dup1\n      0x7bbb7570\n      eq\n      tag_13\n      jumpi\n      dup1\n      0x84a98eb9\n      eq\n      tag_14\n      jumpi\n      dup1\n      0x90c9f844\n      eq\n      tag_15\n      jumpi\n      dup1\n      0xa2df2245\n      eq\n      tag_16\n      jumpi\n      dup1\n      0xa434f137\n      eq\n      tag_17\n      jumpi\n      jump(tag_2)\n    tag_24:\n      dup1\n      0x56551f26\n      gt\n      tag_26\n      jumpi\n      dup1\n      0x56551f26\n      eq\n      tag_8\n      jumpi\n      dup1\n      0x576b2641\n      eq\n      tag_9\n      jumpi\n      dup1\n      0x6986182d\n      eq\n      tag_10\n      jumpi\n      dup1\n      0x6afa9dc5\n      eq\n      tag_11\n      jumpi\n      dup1\n      0x7217523c\n      eq\n      tag_12\n      jumpi\n      jump(tag_2)\n    tag_26:\n      dup1\n      0x09d308ce\n      eq\n      tag_3\n      jumpi\n      dup1\n      0x11f90965\n      eq\n      tag_4\n      jumpi\n      dup1\n      0x126a4bf3\n      eq\n      tag_5\n      jumpi\n      dup1\n      0x4b31311a\n      eq\n      tag_6\n      jumpi\n      dup1\n      0x4c323edd\n      eq\n      tag_7\n      jumpi\n    tag_2:\n      0x00\n      dup1\n      revert\n        /* \"src/ecom/libs/date.sol\":1604:1786  function getYMD(uint timestamp, int tz)  public pure returns (uint) {... */\n    tag_3:\n      tag_27\n      0x04\n      dup1\n      calldatasize\n      sub\n      dup2\n      add\n      swap1\n      tag_28\n      swap2\n      swap1\n      tag_29\n      jump\t// in\n    tag_28:\n      tag_30\n      jump\t// in\n    tag_27:\n      mload(0x40)\n      tag_31\n      swap2\n      swap1\n      tag_32\n      jump\t// in\n    tag_31:\n      mload(0x40)\n      dup1\n      swap2\n      sub\n      swap1\n      return\n        /* \"src/ecom/libs/date.sol\":5641:6268  function timestampToDateAndTimeString(uint timestamp, int tz) public pure returns (string memory date, string memory time) {... */\n    tag_4:\n      tag_33\n      0x04\n      dup1\n      calldatasize\n      sub\n      dup2\n      add\n      swap1\n      tag_34\n      swap2\n      swap1\n      tag_29\n      jump\t// in\n    tag_34:\n      tag_35\n      jump\t// in\n    tag_33:\n      mload(0x40)\n      tag_36\n      swap3\n      swap2\n      swap1\n      tag_37\n      jump\t// in\n    tag_36:\n      mload(0x40)\n      dup1\n      swap2\n      sub\n      swap1\n      return\n        /* \"src/ecom/libs/date.sol\":808:1045  function addTimezone(uint timestamp, int tz) public pure returns (uint) {... */\n    tag_5:\n      tag_38\n      0x04\n      dup1\n      calldatasize\n      sub\n      dup2\n      add\n      swap1\n      tag_39\n      swap2\n      swap1\n      tag_29\n      jump\t// in\n    tag_39:\n      tag_40\n      jump\t// in\n    tag_38:\n      mload(0x40)\n      tag_41\n      swap2\n      swap1\n      tag_32\n      jump\t// in\n    tag_41:\n      mload(0x40)\n      dup1\n      swap2\n      sub\n      swap1\n      return\n        /* \"src/ecom/libs/date.sol\":4904:5151  function ymdToString(uint ymd) public pure returns (string memory) {... */\n    tag_6:\n      tag_42\n      0x04\n      dup1\n      calldatasize\n      sub\n      dup2\n      add\n      swap1\n      tag_43\n      swap2\n      swap1\n      tag_44\n      jump\t// in\n    tag_43:\n      tag_45\n      jump\t// in\n    tag_42:\n      mload(0x40)\n      tag_46\n      swap2\n      swap1\n      tag_47\n      jump\t// in\n    tag_46:\n      mload(0x40)\n      dup1\n      swap2\n      sub\n      swap1\n      return\n        /* \"src/ecom/libs/date.sol\":4414:4610  function getYYYYMMDDAndTime(uint timestamp, int tz) public pure returns (uint ymd, uint time) {... */\n    tag_7:\n      tag_48\n      0x04\n      dup1\n      calldatasize\n      sub\n      dup2\n      add\n      swap1\n      tag_49\n      swap2\n      swap1\n      tag_29\n      jump\t// in\n    tag_49:\n      tag_50\n      jump\t// in\n    tag_48:\n      mload(0x40)\n      tag_51\n      swap3\n      swap2\n      swap1\n      tag_52\n      jump\t// in\n    tag_51:\n      mload(0x40)\n      dup1\n      swap2\n      sub\n      swap1\n      return\n        /* \"src/ecom/libs/date.sol\":3608:3815  function timestampFromYMD(uint _ymd, int tz) public pure returns (uint timestamp) {... */\n    tag_8:\n      tag_53\n      0x04\n      dup1\n      calldatasize\n      sub\n      dup2\n      add\n      swap1\n      tag_54\n      swap2\n      swap1\n      tag_29\n      jump\t// in\n    tag_54:\n      tag_55\n      jump\t// in\n    tag_53:\n      mload(0x40)\n      tag_56\n      swap2\n      swap1\n      tag_32\n      jump\t// in\n    tag_56:\n      mload(0x40)\n      dup1\n      swap2\n      sub\n      swap1\n      return\n        /* \"src/ecom/libs/date.sol\":2818:2997  function getEndOfDate(uint timestamp, int tz) public pure returns (uint endOfDate) {... */\n    tag_9:\n      tag_57\n      0x04\n      dup1\n      calldatasize\n      sub\n      dup2\n      add\n      swap1\n      tag_58\n      swap2\n      swap1\n      tag_29\n      jump\t// in\n    tag_58:\n      tag_59\n      jump\t// in\n    tag_57:\n      mload(0x40)\n      tag_60\n      swap2\n      swap1\n      tag_32\n      jump\t// in\n    tag_60:\n      mload(0x40)\n      dup1\n      swap2\n      sub\n      swap1\n      return\n        /* \"src/ecom/libs/date.sol\":2579:2812  function getStartOfDate(uint timestamp, int tz) public pure returns (uint startOfDate) {... */\n    tag_10:\n      tag_61\n      0x04\n      dup1\n      calldatasize\n      sub\n      dup2\n      add\n      swap1\n      tag_62\n      swap2\n      swap1\n      tag_29\n      jump\t// in\n    tag_62:\n      tag_63\n      jump\t// in\n    tag_61:\n      mload(0x40)\n      tag_64\n      swap2\n      swap1\n      tag_32\n      jump\t// in\n    tag_64:\n      mload(0x40)\n      dup1\n      swap2\n      sub\n      swap1\n      return\n        /* \"src/ecom/libs/date.sol\":5157:5635  function timestampToDetailString(uint timestamp, int tz) public pure returns (string memory) {... */\n    tag_11:\n      tag_65\n      0x04\n      dup1\n      calldatasize\n      sub\n      dup2\n      add\n      swap1\n      tag_66\n      swap2\n      swap1\n      tag_29\n      jump\t// in\n    tag_66:\n      tag_67\n      jump\t// in\n    tag_65:\n      mload(0x40)\n      tag_68\n      swap2\n      swap1\n      tag_47\n      jump\t// in\n    tag_68:\n      mload(0x40)\n      dup1\n      swap2\n      sub\n      swap1\n      return\n        /* \"src/ecom/libs/date.sol\":3003:3205  function addDays(uint timestamp, uint _days) public pure returns (uint newTimestamp) {... */\n    tag_12:\n      tag_69\n      0x04\n      dup1\n      calldatasize\n      sub\n      dup2\n      add\n      swap1\n      tag_70\n      swap2\n      swap1\n      tag_71\n      jump\t// in\n    tag_70:\n      tag_72\n      jump\t// in\n    tag_69:\n      mload(0x40)\n      tag_73\n      swap2\n      swap1\n      tag_32\n      jump\t// in\n    tag_73:\n      mload(0x40)\n      dup1\n      swap2\n      sub\n      swap1\n      return\n        /* \"src/ecom/libs/date.sol\":3419:3602  function extractYMD(uint _ymd) public pure returns (uint year, uint month, uint day) {... */\n    tag_13:\n      tag_74\n      0x04\n      dup1\n      calldatasize\n      sub\n      dup2\n      add\n      swap1\n      tag_75\n      swap2\n      swap1\n      tag_44\n      jump\t// in\n    tag_75:\n      tag_76\n      jump\t// in\n    tag_74:\n      mload(0x40)\n      tag_77\n      swap4\n      swap3\n      swap2\n      swap1\n      tag_78\n      jump\t// in\n    tag_77:\n      mload(0x40)\n      dup1\n      swap2\n      sub\n      swap1\n      return\n        /* \"src/ecom/libs/date.sol\":1350:1598  function timestampToDate(uint timestamp, int tz) public pure returns (uint year, uint month, uint day) {... */\n    tag_14:\n      tag_79\n      0x04\n      dup1\n      calldatasize\n      sub\n      dup2\n      add\n      swap1\n      tag_80\n      swap2\n      swap1\n      tag_29\n      jump\t// in\n    tag_80:\n      tag_81\n      jump\t// in\n    tag_79:\n      mload(0x40)\n      tag_82\n      swap4\n      swap3\n      swap2\n      swap1\n      tag_78\n      jump\t// in\n    tag_82:\n      mload(0x40)\n      dup1\n      swap2\n      sub\n      swap1\n      return\n        /* \"src/ecom/libs/date.sol\":2241:2573  function timestampFromDateTime(uint year, uint month, uint day, uint hour, uint minute, uint second, int tz) public pure returns (uint timestamp) {... */\n    tag_15:\n      tag_83\n      0x04\n      dup1\n      calldatasize\n      sub\n      dup2\n      add\n      swap1\n      tag_84\n      swap2\n      swap1\n      tag_85\n      jump\t// in\n    tag_84:\n      tag_86\n      jump\t// in\n    tag_83:\n      mload(0x40)\n      tag_87\n      swap2\n      swap1\n      tag_32\n      jump\t// in\n    tag_87:\n      mload(0x40)\n      dup1\n      swap2\n      sub\n      swap1\n      return\n        /* \"src/ecom/libs/date.sol\":1051:1344  function timestampToDateTime(uint timestamp, int tz) public pure returns (uint year, uint month, uint day, uint hour, uint minute, uint second) {... */\n    tag_16:\n      tag_88\n      0x04\n      dup1\n      calldatasize\n      sub\n      dup2\n      add\n      swap1\n      tag_89\n      swap2\n      swap1\n      tag_29\n      jump\t// in\n    tag_89:\n      tag_90\n      jump\t// in\n    tag_88:\n      mload(0x40)\n      tag_91\n      swap7\n      swap6\n      swap5\n      swap4\n      swap3\n      swap2\n      swap1\n      tag_92\n      jump\t// in\n    tag_91:\n      mload(0x40)\n      dup1\n      swap2\n      sub\n      swap1\n      return\n        /* \"src/ecom/libs/date.sol\":3820:3987  function timestampFromYMD(uint year, uint month, uint day, int tz) public pure returns (uint timestamp) {... */\n    tag_17:\n      tag_93\n      0x04\n      dup1\n      calldatasize\n      sub\n      dup2\n      add\n      swap1\n      tag_94\n      swap2\n      swap1\n      tag_95\n      jump\t// in\n    tag_94:\n      tag_96\n      jump\t// in\n    tag_93:\n      mload(0x40)\n      tag_97\n      swap2\n      swap1\n      tag_32\n      jump\t// in\n    tag_97:\n      mload(0x40)\n      dup1\n      swap2\n      sub\n      swap1\n      return\n        /* \"src/ecom/libs/date.sol\":3993:4153  function getDaysInMonth(uint year, uint month) public pure returns (uint daysInMonth) {... */\n    tag_18:\n      tag_98\n      0x04\n      dup1\n      calldatasize\n      sub\n      dup2\n      add\n      swap1\n      tag_99\n      swap2\n      swap1\n      tag_71\n      jump\t// in\n    tag_99:\n      tag_100\n      jump\t// in\n    tag_98:\n      mload(0x40)\n      tag_101\n      swap2\n      swap1\n      tag_32\n      jump\t// in\n    tag_101:\n      mload(0x40)\n      dup1\n      swap2\n      sub\n      swap1\n      return\n        /* \"src/ecom/libs/date.sol\":1961:2235  function timestampFromDate(uint year, uint month, uint day, int tz) public pure returns (uint timestamp) {... */\n    tag_19:\n      tag_102\n      0x04\n      dup1\n      calldatasize\n      sub\n      dup2\n      add\n      swap1\n      tag_103\n      swap2\n      swap1\n      tag_95\n      jump\t// in\n    tag_103:\n      tag_104\n      jump\t// in\n    tag_102:\n      mload(0x40)\n      tag_105\n      swap2\n      swap1\n      tag_32\n      jump\t// in\n    tag_105:\n      mload(0x40)\n      dup1\n      swap2\n      sub\n      swap1\n      return\n        /* \"src/ecom/libs/date.sol\":3211:3413  function subDays(uint timestamp, uint _days) public pure returns (uint newTimestamp) {... */\n    tag_20:\n      tag_106\n      0x04\n      dup1\n      calldatasize\n      sub\n      dup2\n      add\n      swap1\n      tag_107\n      swap2\n      swap1\n      tag_71\n      jump\t// in\n    tag_107:\n      tag_108\n      jump\t// in\n    tag_106:\n      mload(0x40)\n      tag_109\n      swap2\n      swap1\n      tag_32\n      jump\t// in\n    tag_109:\n      mload(0x40)\n      dup1\n      swap2\n      sub\n      swap1\n      return\n        /* \"src/ecom/libs/date.sol\":1792:1955  function getYM(uint timestamp, int tz)  public pure returns (uint) {... */\n    tag_21:\n      tag_110\n      0x04\n      dup1\n      calldatasize\n      sub\n      dup2\n      add\n      swap1\n      tag_111\n      swap2\n      swap1\n      tag_29\n      jump\t// in\n    tag_111:\n      tag_112\n      jump\t// in\n    tag_110:\n      mload(0x40)\n      tag_113\n      swap2\n      swap1\n      tag_32\n      jump\t// in\n    tag_113:\n      mload(0x40)\n      dup1\n      swap2\n      sub\n      swap1\n      return\n        /* \"src/ecom/libs/date.sol\":4616:4898  function timestampToString(uint timestamp, int tz) public pure returns (string memory) {... */\n    tag_22:\n      tag_114\n      0x04\n      dup1\n      calldatasize\n      sub\n      dup2\n      add\n      swap1\n      tag_115\n      swap2\n      swap1\n      tag_29\n      jump\t// in\n    tag_115:\n      tag_116\n      jump\t// in\n    tag_114:\n      mload(0x40)\n      tag_117\n      swap2\n      swap1\n      tag_47\n      jump\t// in\n    tag_117:\n      mload(0x40)\n      dup1\n      swap2\n      sub\n      swap1\n      return\n        /* \"src/ecom/libs/date.sol\":4159:4408  function getDayOfWeekFromYMD(uint _ymd, int tz) public pure returns (uint dayOfWeek) {... */\n    tag_23:\n      tag_118\n      0x04\n      dup1\n      calldatasize\n      sub\n      dup2\n      add\n      swap1\n      tag_119\n      swap2\n      swap1\n      tag_29\n      jump\t// in\n    tag_119:\n      tag_120\n      jump\t// in\n    tag_118:\n      mload(0x40)\n      tag_121\n      swap2\n      swap1\n      tag_32\n      jump\t// in\n    tag_121:\n      mload(0x40)\n      dup1\n      swap2\n      sub\n      swap1\n      return\n        /* \"src/ecom/libs/date.sol\":1604:1786  function getYMD(uint timestamp, int tz)  public pure returns (uint) {... */\n    tag_30:\n        /* \"src/ecom/libs/date.sol\":1666:1670  uint */\n      0x00\n        /* \"src/ecom/libs/date.sol\":1683:1689  uint y */\n      dup1\n        /* \"src/ecom/libs/date.sol\":1691:1697  uint m */\n      0x00\n        /* \"src/ecom/libs/date.sol\":1699:1705  uint d */\n      dup1\n        /* \"src/ecom/libs/date.sol\":1709:1739  timestampToDate(timestamp, tz) */\n      tag_123\n        /* \"src/ecom/libs/date.sol\":1725:1734  timestamp */\n      dup7\n        /* \"src/ecom/libs/date.sol\":1736:1738  tz */\n      dup7\n        /* \"src/ecom/libs/date.sol\":1709:1724  timestampToDate */\n      tag_81\n        /* \"src/ecom/libs/date.sol\":1709:1739  timestampToDate(timestamp, tz) */\n      jump\t// in\n    tag_123:\n        /* \"src/ecom/libs/date.sol\":1682:1739  (uint y, uint m, uint d) = timestampToDate(timestamp, tz) */\n      swap3\n      pop\n      swap3\n      pop\n      swap3\n      pop\n        /* \"src/ecom/libs/date.sol\":1778:1779  d */\n      dup1\n        /* \"src/ecom/libs/date.sol\":1772:1775  100 */\n      0x64\n        /* \"src/ecom/libs/date.sol\":1768:1769  m */\n      dup4\n        /* \"src/ecom/libs/date.sol\":1768:1775  m * 100 */\n      tag_124\n      swap2\n      swap1\n      tag_125\n      jump\t// in\n    tag_124:\n        /* \"src/ecom/libs/date.sol\":1760:1765  10000 */\n      0x2710\n        /* \"src/ecom/libs/date.sol\":1756:1757  y */\n      dup6\n        /* \"src/ecom/libs/date.sol\":1756:1765  y * 10000 */\n      tag_126\n      swap2\n      swap1\n      tag_125\n      jump\t// in\n    tag_126:\n        /* \"src/ecom/libs/date.sol\":1756:1775  y * 10000 + m * 100 */\n      tag_127\n      swap2\n      swap1\n      tag_128\n      jump\t// in\n    tag_127:\n        /* \"src/ecom/libs/date.sol\":1756:1779  y * 10000 + m * 100 + d */\n      tag_129\n      swap2\n      swap1\n      tag_128\n      jump\t// in\n    tag_129:\n        /* \"src/ecom/libs/date.sol\":1749:1779  return y * 10000 + m * 100 + d */\n      swap4\n      pop\n      pop\n      pop\n      pop\n        /* \"src/ecom/libs/date.sol\":1604:1786  function getYMD(uint timestamp, int tz)  public pure returns (uint) {... */\n      swap3\n      swap2\n      pop\n      pop\n      jump\t// out\n        /* \"src/ecom/libs/date.sol\":5641:6268  function timestampToDateAndTimeString(uint timestamp, int tz) public pure returns (string memory date, string memory time) {... */\n    tag_35:\n        /* \"src/ecom/libs/date.sol\":5724:5742  string memory date */\n      0x60\n        /* \"src/ecom/libs/date.sol\":5744:5762  string memory time */\n      dup1\n        /* \"src/ecom/libs/date.sol\":5775:5784  uint year */\n      0x00\n        /* \"src/ecom/libs/date.sol\":5786:5796  uint month */\n      dup1\n        /* \"src/ecom/libs/date.sol\":5798:5806  uint day */\n      0x00\n        /* \"src/ecom/libs/date.sol\":5808:5817  uint hour */\n      dup1\n        /* \"src/ecom/libs/date.sol\":5819:5830  uint minute */\n      0x00\n        /* \"src/ecom/libs/date.sol\":5835:5869  timestampToDateTime(timestamp, tz) */\n      tag_131\n        /* \"src/ecom/libs/date.sol\":5855:5864  timestamp */\n      dup10\n        /* \"src/ecom/libs/date.sol\":5866:5868  tz */\n      dup10\n        /* \"src/ecom/libs/date.sol\":5835:5854  timestampToDateTime */\n      tag_90\n        /* \"src/ecom/libs/date.sol\":5835:5869  timestampToDateTime(timestamp, tz) */\n      jump\t// in\n    tag_131:\n        /* \"src/ecom/libs/date.sol\":5774:5869  (uint year, uint month, uint day, uint hour, uint minute,) = timestampToDateTime(timestamp, tz) */\n      pop\n      swap5\n      pop\n      swap5\n      pop\n      swap5\n      pop\n      swap5\n      pop\n      swap5\n      pop\n        /* \"src/ecom/libs/date.sol\":5900:5921  Strings.toString(day) */\n      tag_132\n        /* \"src/ecom/libs/date.sol\":5917:5920  day */\n      dup4\n        /* \"src/ecom/libs/date.sol\":5900:5916  Strings.toString */\n      tag_133\n        /* \"src/ecom/libs/date.sol\":5900:5921  Strings.toString(day) */\n      jump\t// in\n    tag_132:\n        /* \"src/ecom/libs/date.sol\":5928:5951  Strings.toString(month) */\n      tag_134\n        /* \"src/ecom/libs/date.sol\":5945:5950  month */\n      dup6\n        /* \"src/ecom/libs/date.sol\":5928:5944  Strings.toString */\n      tag_133\n        /* \"src/ecom/libs/date.sol\":5928:5951  Strings.toString(month) */\n      jump\t// in\n    tag_134:\n        /* \"src/ecom/libs/date.sol\":5958:5980  Strings.toString(year) */\n      tag_135\n        /* \"src/ecom/libs/date.sol\":5975:5979  year */\n      dup8\n        /* \"src/ecom/libs/date.sol\":5958:5974  Strings.toString */\n      tag_133\n        /* \"src/ecom/libs/date.sol\":5958:5980  Strings.toString(year) */\n      jump\t// in\n    tag_135:\n        /* \"src/ecom/libs/date.sol\":5886:5981  string.concat(Strings.toString(day), \"/\", Strings.toString(month), \"/\", Strings.toString(year)) */\n      add(0x20, mload(0x40))\n      tag_136\n      swap4\n      swap3\n      swap2\n      swap1\n      tag_137\n      jump\t// in\n    tag_136:\n      mload(0x40)\n      0x20\n      dup2\n      dup4\n      sub\n      sub\n      dup2\n      mstore\n      swap1\n      0x40\n      mstore\n        /* \"src/ecom/libs/date.sol\":5879:5981  date = string.concat(Strings.toString(day), \"/\", Strings.toString(month), \"/\", Strings.toString(year)) */\n      swap7\n      pop\n        /* \"src/ecom/libs/date.sol\":6003:6005  12 */\n      0x0c\n        /* \"src/ecom/libs/date.sol\":5996:6000  hour */\n      dup3\n        /* \"src/ecom/libs/date.sol\":5996:6005  hour > 12 */\n      gt\n        /* \"src/ecom/libs/date.sol\":5992:6232  if (hour > 12) {... */\n      iszero\n      tag_138\n      jumpi\n        /* \"src/ecom/libs/date.sol\":6042:6069  Strings.toString(hour - 12) */\n      tag_139\n        /* \"src/ecom/libs/date.sol\":6066:6068  12 */\n      0x0c\n        /* \"src/ecom/libs/date.sol\":6059:6063  hour */\n      dup4\n        /* \"src/ecom/libs/date.sol\":6059:6068  hour - 12 */\n      tag_140\n      swap2\n      swap1\n      tag_141\n      jump\t// in\n    tag_140:\n        /* \"src/ecom/libs/date.sol\":6042:6058  Strings.toString */\n      tag_133\n        /* \"src/ecom/libs/date.sol\":6042:6069  Strings.toString(hour - 12) */\n      jump\t// in\n    tag_139:\n        /* \"src/ecom/libs/date.sol\":6076:6100  Strings.toString(minute) */\n      tag_142\n        /* \"src/ecom/libs/date.sol\":6093:6099  minute */\n      dup3\n        /* \"src/ecom/libs/date.sol\":6076:6092  Strings.toString */\n      tag_133\n        /* \"src/ecom/libs/date.sol\":6076:6100  Strings.toString(minute) */\n      jump\t// in\n    tag_142:\n        /* \"src/ecom/libs/date.sol\":6028:6108  string.concat(Strings.toString(hour - 12), \":\", Strings.toString(minute), \" PM\") */\n      add(0x20, mload(0x40))\n      tag_143\n      swap3\n      swap2\n      swap1\n      tag_144\n      jump\t// in\n    tag_143:\n      mload(0x40)\n      0x20\n      dup2\n      dup4\n      sub\n      sub\n      dup2\n      mstore\n      swap1\n      0x40\n      mstore\n        /* \"src/ecom/libs/date.sol\":6021:6108  time = string.concat(Strings.toString(hour - 12), \":\", Strings.toString(minute), \" PM\") */\n      swap6\n      pop\n        /* \"src/ecom/libs/date.sol\":5992:6232  if (hour > 12) {... */\n      jump(tag_145)\n    tag_138:\n        /* \"src/ecom/libs/date.sol\":6160:6182  Strings.toString(hour) */\n      tag_146\n        /* \"src/ecom/libs/date.sol\":6177:6181  hour */\n      dup3\n        /* \"src/ecom/libs/date.sol\":6160:6176  Strings.toString */\n      tag_133\n        /* \"src/ecom/libs/date.sol\":6160:6182  Strings.toString(hour) */\n      jump\t// in\n    tag_146:\n        /* \"src/ecom/libs/date.sol\":6189:6213  Strings.toString(minute) */\n      tag_147\n        /* \"src/ecom/libs/date.sol\":6206:6212  minute */\n      dup3\n        /* \"src/ecom/libs/date.sol\":6189:6205  Strings.toString */\n      tag_133\n        /* \"src/ecom/libs/date.sol\":6189:6213  Strings.toString(minute) */\n      jump\t// in\n    tag_147:\n        /* \"src/ecom/libs/date.sol\":6146:6221  string.concat(Strings.toString(hour), \":\", Strings.toString(minute), \" AM\") */\n      add(0x20, mload(0x40))\n      tag_148\n      swap3\n      swap2\n      swap1\n      tag_149\n      jump\t// in\n    tag_148:\n      mload(0x40)\n      0x20\n      dup2\n      dup4\n      sub\n      sub\n      dup2\n      mstore\n      swap1\n      0x40\n      mstore\n        /* \"src/ecom/libs/date.sol\":6139:6221  time = string.concat(Strings.toString(hour), \":\", Strings.toString(minute), \" AM\") */\n      swap6\n      pop\n        /* \"src/ecom/libs/date.sol\":5992:6232  if (hour > 12) {... */\n    tag_145:\n        /* \"src/ecom/libs/date.sol\":6242:6261  return (date, time) */\n      pop\n      pop\n      pop\n      pop\n      pop\n        /* \"src/ecom/libs/date.sol\":5641:6268  function timestampToDateAndTimeString(uint timestamp, int tz) public pure returns (string memory date, string memory time) {... */\n      swap3\n      pop\n      swap3\n      swap1\n      pop\n      jump\t// out\n        /* \"src/ecom/libs/date.sol\":808:1045  function addTimezone(uint timestamp, int tz) public pure returns (uint) {... */\n    tag_40:\n        /* \"src/ecom/libs/date.sol\":874:878  uint */\n      0x00\n        /* \"src/ecom/libs/date.sol\":890:906  int newTimestamp */\n      dup1\n        /* \"src/ecom/libs/date.sol\":966:968  tz */\n      dup3\n        /* \"src/ecom/libs/DateTimeLibrary.sol\":1123:1130  60 * 60 */\n      0x0e10\n        /* \"src/ecom/libs/date.sol\":926:968  int(DateTimeLibrary.SECONDS_PER_HOUR) * tz */\n      tag_151\n      swap2\n      swap1\n      tag_152\n      jump\t// in\n    tag_151:\n        /* \"src/ecom/libs/date.sol\":913:922  timestamp */\n      dup5\n        /* \"src/ecom/libs/date.sol\":909:968  int(timestamp) + int(DateTimeLibrary.SECONDS_PER_HOUR) * tz */\n      tag_153\n      swap2\n      swap1\n      tag_154\n      jump\t// in\n    tag_153:\n        /* \"src/ecom/libs/date.sol\":890:968  int newTimestamp = int(timestamp) + int(DateTimeLibrary.SECONDS_PER_HOUR) * tz */\n      swap1\n      pop\n        /* \"src/ecom/libs/date.sol\":1001:1002  0 */\n      0x00\n        /* \"src/ecom/libs/date.sol\":986:998  newTimestamp */\n      dup2\n        /* \"src/ecom/libs/date.sol\":986:1002  newTimestamp > 0 */\n      sgt\n        /* \"src/ecom/libs/date.sol\":978:1003  require(newTimestamp > 0) */\n      tag_155\n      jumpi\n      0x00\n      dup1\n      revert\n    tag_155:\n        /* \"src/ecom/libs/date.sol\":1025:1037  newTimestamp */\n      dup1\n        /* \"src/ecom/libs/date.sol\":1013:1038  return uint(newTimestamp) */\n      swap2\n      pop\n      pop\n        /* \"src/ecom/libs/date.sol\":808:1045  function addTimezone(uint timestamp, int tz) public pure returns (uint) {... */\n      swap3\n      swap2\n      pop\n      pop\n      jump\t// out\n        /* \"src/ecom/libs/date.sol\":4904:5151  function ymdToString(uint ymd) public pure returns (string memory) {... */\n    tag_45:\n        /* \"src/ecom/libs/date.sol\":4956:4969  string memory */\n      0x60\n        /* \"src/ecom/libs/date.sol\":4982:4991  uint year */\n      0x00\n        /* \"src/ecom/libs/date.sol\":4993:5003  uint month */\n      dup1\n        /* \"src/ecom/libs/date.sol\":5005:5013  uint day */\n      0x00\n        /* \"src/ecom/libs/date.sol\":5017:5032  extractYMD(ymd) */\n      tag_157\n        /* \"src/ecom/libs/date.sol\":5028:5031  ymd */\n      dup6\n        /* \"src/ecom/libs/date.sol\":5017:5027  extractYMD */\n      tag_76\n        /* \"src/ecom/libs/date.sol\":5017:5032  extractYMD(ymd) */\n      jump\t// in\n    tag_157:\n        /* \"src/ecom/libs/date.sol\":4981:5032  (uint year, uint month, uint day) = extractYMD(ymd) */\n      swap3\n      pop\n      swap3\n      pop\n      swap3\n      pop\n        /* \"src/ecom/libs/date.sol\":5063:5084  Strings.toString(day) */\n      tag_158\n        /* \"src/ecom/libs/date.sol\":5080:5083  day */\n      dup2\n        /* \"src/ecom/libs/date.sol\":5063:5079  Strings.toString */\n      tag_133\n        /* \"src/ecom/libs/date.sol\":5063:5084  Strings.toString(day) */\n      jump\t// in\n    tag_158:\n        /* \"src/ecom/libs/date.sol\":5091:5114  Strings.toString(month) */\n      tag_159\n        /* \"src/ecom/libs/date.sol\":5108:5113  month */\n      dup4\n        /* \"src/ecom/libs/date.sol\":5091:5107  Strings.toString */\n      tag_133\n        /* \"src/ecom/libs/date.sol\":5091:5114  Strings.toString(month) */\n      jump\t// in\n    tag_159:\n        /* \"src/ecom/libs/date.sol\":5121:5143  Strings.toString(year) */\n      tag_160\n        /* \"src/ecom/libs/date.sol\":5138:5142  year */\n      dup6\n        /* \"src/ecom/libs/date.sol\":5121:5137  Strings.toString */\n      tag_133\n        /* \"src/ecom/libs/date.sol\":5121:5143  Strings.toString(year) */\n      jump\t// in\n    tag_160:\n        /* \"src/ecom/libs/date.sol\":5049:5144  string.concat(Strings.toString(day), \"/\", Strings.toString(month), \"/\", Strings.toString(year)) */\n      add(0x20, mload(0x40))\n      tag_161\n      swap4\n      swap3\n      swap2\n      swap1\n      tag_137\n      jump\t// in\n    tag_161:\n      mload(0x40)\n      0x20\n      dup2\n      dup4\n      sub\n      sub\n      dup2\n      mstore\n      swap1\n      0x40\n      mstore\n        /* \"src/ecom/libs/date.sol\":5042:5144  return string.concat(Strings.toString(day), \"/\", Strings.toString(month), \"/\", Strings.toString(year)) */\n      swap4\n      pop\n      pop\n      pop\n      pop\n        /* \"src/ecom/libs/date.sol\":4904:5151  function ymdToString(uint ymd) public pure returns (string memory) {... */\n      swap2\n      swap1\n      pop\n      jump\t// out\n        /* \"src/ecom/libs/date.sol\":4414:4610  function getYYYYMMDDAndTime(uint timestamp, int tz) public pure returns (uint ymd, uint time) {... */\n    tag_50:\n        /* \"src/ecom/libs/date.sol\":4487:4495  uint ymd */\n      0x00\n        /* \"src/ecom/libs/date.sol\":4497:4506  uint time */\n      dup1\n        /* \"src/ecom/libs/date.sol\":4524:4545  getYMD(timestamp, tz) */\n      tag_163\n        /* \"src/ecom/libs/date.sol\":4531:4540  timestamp */\n      dup5\n        /* \"src/ecom/libs/date.sol\":4542:4544  tz */\n      dup5\n        /* \"src/ecom/libs/date.sol\":4524:4530  getYMD */\n      tag_30\n        /* \"src/ecom/libs/date.sol\":4524:4545  getYMD(timestamp, tz) */\n      jump\t// in\n    tag_163:\n        /* \"src/ecom/libs/date.sol\":4518:4545  ymd = getYMD(timestamp, tz) */\n      swap2\n      pop\n        /* \"src/ecom/libs/date.sol\":4574:4603  getStartOfDate(timestamp, tz) */\n      tag_164\n        /* \"src/ecom/libs/date.sol\":4589:4598  timestamp */\n      dup5\n        /* \"src/ecom/libs/date.sol\":4600:4602  tz */\n      dup5\n        /* \"src/ecom/libs/date.sol\":4574:4588  getStartOfDate */\n      tag_63\n        /* \"src/ecom/libs/date.sol\":4574:4603  getStartOfDate(timestamp, tz) */\n      jump\t// in\n    tag_164:\n        /* \"src/ecom/libs/date.sol\":4562:4571  timestamp */\n      dup5\n        /* \"src/ecom/libs/date.sol\":4562:4603  timestamp - getStartOfDate(timestamp, tz) */\n      tag_165\n      swap2\n      swap1\n      tag_141\n      jump\t// in\n    tag_165:\n        /* \"src/ecom/libs/date.sol\":4555:4603  time = timestamp - getStartOfDate(timestamp, tz) */\n      swap1\n      pop\n        /* \"src/ecom/libs/date.sol\":4414:4610  function getYYYYMMDDAndTime(uint timestamp, int tz) public pure returns (uint ymd, uint time) {... */\n      swap3\n      pop\n      swap3\n      swap1\n      pop\n      jump\t// out\n        /* \"src/ecom/libs/date.sol\":3608:3815  function timestampFromYMD(uint _ymd, int tz) public pure returns (uint timestamp) {... */\n    tag_55:\n        /* \"src/ecom/libs/date.sol\":3674:3688  uint timestamp */\n      0x00\n        /* \"src/ecom/libs/date.sol\":3701:3710  uint year */\n      dup1\n        /* \"src/ecom/libs/date.sol\":3712:3722  uint month */\n      0x00\n        /* \"src/ecom/libs/date.sol\":3724:3732  uint day */\n      dup1\n        /* \"src/ecom/libs/date.sol\":3736:3752  extractYMD(_ymd) */\n      tag_167\n        /* \"src/ecom/libs/date.sol\":3747:3751  _ymd */\n      dup7\n        /* \"src/ecom/libs/date.sol\":3736:3746  extractYMD */\n      tag_76\n        /* \"src/ecom/libs/date.sol\":3736:3752  extractYMD(_ymd) */\n      jump\t// in\n    tag_167:\n        /* \"src/ecom/libs/date.sol\":3700:3752  (uint year, uint month, uint day) = extractYMD(_ymd) */\n      swap3\n      pop\n      swap3\n      pop\n      swap3\n      pop\n        /* \"src/ecom/libs/date.sol\":3769:3808  timestampFromDate(year, month, day, tz) */\n      tag_168\n        /* \"src/ecom/libs/date.sol\":3787:3791  year */\n      dup4\n        /* \"src/ecom/libs/date.sol\":3793:3798  month */\n      dup4\n        /* \"src/ecom/libs/date.sol\":3800:3803  day */\n      dup4\n        /* \"src/ecom/libs/date.sol\":3805:3807  tz */\n      dup9\n        /* \"src/ecom/libs/date.sol\":3769:3786  timestampFromDate */\n      tag_104\n        /* \"src/ecom/libs/date.sol\":3769:3808  timestampFromDate(year, month, day, tz) */\n      jump\t// in\n    tag_168:\n        /* \"src/ecom/libs/date.sol\":3762:3808  return timestampFromDate(year, month, day, tz) */\n      swap4\n      pop\n      pop\n      pop\n      pop\n        /* \"src/ecom/libs/date.sol\":3608:3815  function timestampFromYMD(uint _ymd, int tz) public pure returns (uint timestamp) {... */\n      swap3\n      swap2\n      pop\n      pop\n      jump\t// out\n        /* \"src/ecom/libs/date.sol\":2818:2997  function getEndOfDate(uint timestamp, int tz) public pure returns (uint endOfDate) {... */\n    tag_59:\n        /* \"src/ecom/libs/date.sol\":2885:2899  uint endOfDate */\n      0x00\n        /* \"src/ecom/libs/date.sol\":2989:2990  1 */\n      0x01\n        /* \"src/ecom/libs/DateTimeLibrary.sol\":1072:1084  24 * 60 * 60 */\n      0x015180\n        /* \"src/ecom/libs/date.sol\":2923:2952  getStartOfDate(timestamp, tz) */\n      tag_170\n        /* \"src/ecom/libs/date.sol\":2938:2947  timestamp */\n      dup6\n        /* \"src/ecom/libs/date.sol\":2949:2951  tz */\n      dup6\n        /* \"src/ecom/libs/date.sol\":2923:2937  getStartOfDate */\n      tag_63\n        /* \"src/ecom/libs/date.sol\":2923:2952  getStartOfDate(timestamp, tz) */\n      jump\t// in\n    tag_170:\n        /* \"src/ecom/libs/date.sol\":2923:2986  getStartOfDate(timestamp, tz) + DateTimeLibrary.SECONDS_PER_DAY */\n      tag_171\n      swap2\n      swap1\n      tag_128\n      jump\t// in\n    tag_171:\n        /* \"src/ecom/libs/date.sol\":2923:2990  getStartOfDate(timestamp, tz) + DateTimeLibrary.SECONDS_PER_DAY - 1 */\n      tag_172\n      swap2\n      swap1\n      tag_141\n      jump\t// in\n    tag_172:\n        /* \"src/ecom/libs/date.sol\":2911:2990  endOfDate = getStartOfDate(timestamp, tz) + DateTimeLibrary.SECONDS_PER_DAY - 1 */\n      swap1\n      pop\n        /* \"src/ecom/libs/date.sol\":2818:2997  function getEndOfDate(uint timestamp, int tz) public pure returns (uint endOfDate) {... */\n      swap3\n      swap2\n      pop\n      pop\n      jump\t// out\n        /* \"src/ecom/libs/date.sol\":2579:2812  function getStartOfDate(uint timestamp, int tz) public pure returns (uint startOfDate) {... */\n    tag_63:\n        /* \"src/ecom/libs/date.sol\":2648:2664  uint startOfDate */\n      0x00\n        /* \"src/ecom/libs/date.sol\":2677:2686  uint year */\n      dup1\n        /* \"src/ecom/libs/date.sol\":2688:2698  uint month */\n      0x00\n        /* \"src/ecom/libs/date.sol\":2700:2708  uint day */\n      dup1\n        /* \"src/ecom/libs/date.sol\":2712:2742  timestampToDate(timestamp, tz) */\n      tag_174\n        /* \"src/ecom/libs/date.sol\":2728:2737  timestamp */\n      dup7\n        /* \"src/ecom/libs/date.sol\":2739:2741  tz */\n      dup7\n        /* \"src/ecom/libs/date.sol\":2712:2727  timestampToDate */\n      tag_81\n        /* \"src/ecom/libs/date.sol\":2712:2742  timestampToDate(timestamp, tz) */\n      jump\t// in\n    tag_174:\n        /* \"src/ecom/libs/date.sol\":2676:2742  (uint year, uint month, uint day) = timestampToDate(timestamp, tz) */\n      swap3\n      pop\n      swap3\n      pop\n      swap3\n      pop\n        /* \"src/ecom/libs/date.sol\":2766:2805  timestampFromDate(year, month, day, tz) */\n      tag_175\n        /* \"src/ecom/libs/date.sol\":2784:2788  year */\n      dup4\n        /* \"src/ecom/libs/date.sol\":2790:2795  month */\n      dup4\n        /* \"src/ecom/libs/date.sol\":2797:2800  day */\n      dup4\n        /* \"src/ecom/libs/date.sol\":2802:2804  tz */\n      dup9\n        /* \"src/ecom/libs/date.sol\":2766:2783  timestampFromDate */\n      tag_104\n        /* \"src/ecom/libs/date.sol\":2766:2805  timestampFromDate(year, month, day, tz) */\n      jump\t// in\n    tag_175:\n        /* \"src/ecom/libs/date.sol\":2752:2805  startOfDate = timestampFromDate(year, month, day, tz) */\n      swap4\n      pop\n        /* \"src/ecom/libs/date.sol\":2666:2812  {... */\n      pop\n      pop\n      pop\n        /* \"src/ecom/libs/date.sol\":2579:2812  function getStartOfDate(uint timestamp, int tz) public pure returns (uint startOfDate) {... */\n      swap3\n      swap2\n      pop\n      pop\n      jump\t// out\n        /* \"src/ecom/libs/date.sol\":5157:5635  function timestampToDetailString(uint timestamp, int tz) public pure returns (string memory) {... */\n    tag_67:\n        /* \"src/ecom/libs/date.sol\":5235:5248  string memory */\n      0x60\n        /* \"src/ecom/libs/date.sol\":5261:5270  uint year */\n      0x00\n        /* \"src/ecom/libs/date.sol\":5272:5282  uint month */\n      dup1\n        /* \"src/ecom/libs/date.sol\":5284:5292  uint day */\n      0x00\n        /* \"src/ecom/libs/date.sol\":5294:5303  uint hour */\n      dup1\n        /* \"src/ecom/libs/date.sol\":5305:5316  uint minute */\n      0x00\n        /* \"src/ecom/libs/date.sol\":5321:5355  timestampToDateTime(timestamp, tz) */\n      tag_177\n        /* \"src/ecom/libs/date.sol\":5341:5350  timestamp */\n      dup9\n        /* \"src/ecom/libs/date.sol\":5352:5354  tz */\n      dup9\n        /* \"src/ecom/libs/date.sol\":5321:5340  timestampToDateTime */\n      tag_90\n        /* \"src/ecom/libs/date.sol\":5321:5355  timestampToDateTime(timestamp, tz) */\n      jump\t// in\n    tag_177:\n        /* \"src/ecom/libs/date.sol\":5260:5355  (uint year, uint month, uint day, uint hour, uint minute,) = timestampToDateTime(timestamp, tz) */\n      pop\n      swap5\n      pop\n      swap5\n      pop\n      swap5\n      pop\n      swap5\n      pop\n      swap5\n      pop\n        /* \"src/ecom/libs/date.sol\":5365:5383  string memory date */\n      0x00\n        /* \"src/ecom/libs/date.sol\":5400:5421  Strings.toString(day) */\n      tag_178\n        /* \"src/ecom/libs/date.sol\":5417:5420  day */\n      dup5\n        /* \"src/ecom/libs/date.sol\":5400:5416  Strings.toString */\n      tag_133\n        /* \"src/ecom/libs/date.sol\":5400:5421  Strings.toString(day) */\n      jump\t// in\n    tag_178:\n        /* \"src/ecom/libs/date.sol\":5428:5451  Strings.toString(month) */\n      tag_179\n        /* \"src/ecom/libs/date.sol\":5445:5450  month */\n      dup7\n        /* \"src/ecom/libs/date.sol\":5428:5444  Strings.toString */\n      tag_133\n        /* \"src/ecom/libs/date.sol\":5428:5451  Strings.toString(month) */\n      jump\t// in\n    tag_179:\n        /* \"src/ecom/libs/date.sol\":5458:5480  Strings.toString(year) */\n      tag_180\n        /* \"src/ecom/libs/date.sol\":5475:5479  year */\n      dup9\n        /* \"src/ecom/libs/date.sol\":5458:5474  Strings.toString */\n      tag_133\n        /* \"src/ecom/libs/date.sol\":5458:5480  Strings.toString(year) */\n      jump\t// in\n    tag_180:\n        /* \"src/ecom/libs/date.sol\":5386:5481  string.concat(Strings.toString(day), \"/\", Strings.toString(month), \"/\", Strings.toString(year)) */\n      add(0x20, mload(0x40))\n      tag_181\n      swap4\n      swap3\n      swap2\n      swap1\n      tag_137\n      jump\t// in\n    tag_181:\n      mload(0x40)\n      0x20\n      dup2\n      dup4\n      sub\n      sub\n      dup2\n      mstore\n      swap1\n      0x40\n      mstore\n        /* \"src/ecom/libs/date.sol\":5365:5481  string memory date = string.concat(Strings.toString(day), \"/\", Strings.toString(month), \"/\", Strings.toString(year)) */\n      swap1\n      pop\n        /* \"src/ecom/libs/date.sol\":5491:5509  string memory time */\n      0x00\n        /* \"src/ecom/libs/date.sol\":5526:5548  Strings.toString(hour) */\n      tag_182\n        /* \"src/ecom/libs/date.sol\":5543:5547  hour */\n      dup5\n        /* \"src/ecom/libs/date.sol\":5526:5542  Strings.toString */\n      tag_133\n        /* \"src/ecom/libs/date.sol\":5526:5548  Strings.toString(hour) */\n      jump\t// in\n    tag_182:\n        /* \"src/ecom/libs/date.sol\":5555:5579  Strings.toString(minute) */\n      tag_183\n        /* \"src/ecom/libs/date.sol\":5572:5578  minute */\n      dup5\n        /* \"src/ecom/libs/date.sol\":5555:5571  Strings.toString */\n      tag_133\n        /* \"src/ecom/libs/date.sol\":5555:5579  Strings.toString(minute) */\n      jump\t// in\n    tag_183:\n        /* \"src/ecom/libs/date.sol\":5512:5580  string.concat(Strings.toString(hour), \":\", Strings.toString(minute)) */\n      add(0x20, mload(0x40))\n      tag_184\n      swap3\n      swap2\n      swap1\n      tag_185\n      jump\t// in\n    tag_184:\n      mload(0x40)\n      0x20\n      dup2\n      dup4\n      sub\n      sub\n      dup2\n      mstore\n      swap1\n      0x40\n      mstore\n        /* \"src/ecom/libs/date.sol\":5491:5580  string memory time = string.concat(Strings.toString(hour), \":\", Strings.toString(minute)) */\n      swap1\n      pop\n        /* \"src/ecom/libs/date.sol\":5612:5616  time */\n      dup1\n        /* \"src/ecom/libs/date.sol\":5623:5627  date */\n      dup3\n        /* \"src/ecom/libs/date.sol\":5598:5628  string.concat(time, \" \", date) */\n      add(0x20, mload(0x40))\n      tag_186\n      swap3\n      swap2\n      swap1\n      tag_187\n      jump\t// in\n    tag_186:\n      mload(0x40)\n      0x20\n      dup2\n      dup4\n      sub\n      sub\n      dup2\n      mstore\n      swap1\n      0x40\n      mstore\n        /* \"src/ecom/libs/date.sol\":5591:5628  return string.concat(time, \" \", date) */\n      swap8\n      pop\n      pop\n      pop\n      pop\n      pop\n      pop\n      pop\n      pop\n        /* \"src/ecom/libs/date.sol\":5157:5635  function timestampToDetailString(uint timestamp, int tz) public pure returns (string memory) {... */\n      swap3\n      swap2\n      pop\n      pop\n      jump\t// out\n        /* \"src/ecom/libs/date.sol\":3003:3205  function addDays(uint timestamp, uint _days) public pure returns (uint newTimestamp) {... */\n    tag_72:\n        /* \"src/ecom/libs/date.sol\":3069:3086  uint newTimestamp */\n      0x00\n        /* \"src/ecom/libs/date.sol\":3113:3154  DateTimeLibrary.addDays(timestamp, _days) */\n      tag_189\n        /* \"src/ecom/libs/date.sol\":3137:3146  timestamp */\n      dup4\n        /* \"src/ecom/libs/date.sol\":3148:3153  _days */\n      dup4\n        /* \"src/ecom/libs/date.sol\":3113:3136  DateTimeLibrary.addDays */\n      tag_190\n        /* \"src/ecom/libs/date.sol\":3113:3154  DateTimeLibrary.addDays(timestamp, _days) */\n      jump\t// in\n    tag_189:\n        /* \"src/ecom/libs/date.sol\":3098:3154  newTimestamp = DateTimeLibrary.addDays(timestamp, _days) */\n      swap1\n      pop\n        /* \"src/ecom/libs/date.sol\":3188:3197  timestamp */\n      dup3\n        /* \"src/ecom/libs/date.sol\":3172:3184  newTimestamp */\n      dup2\n        /* \"src/ecom/libs/date.sol\":3172:3197  newTimestamp >= timestamp */\n      lt\n      iszero\n        /* \"src/ecom/libs/date.sol\":3164:3198  require(newTimestamp >= timestamp) */\n      tag_191\n      jumpi\n      0x00\n      dup1\n      revert\n    tag_191:\n        /* \"src/ecom/libs/date.sol\":3003:3205  function addDays(uint timestamp, uint _days) public pure returns (uint newTimestamp) {... */\n      swap3\n      swap2\n      pop\n      pop\n      jump\t// out\n        /* \"src/ecom/libs/date.sol\":3419:3602  function extractYMD(uint _ymd) public pure returns (uint year, uint month, uint day) {... */\n    tag_76:\n        /* \"src/ecom/libs/date.sol\":3471:3480  uint year */\n      0x00\n        /* \"src/ecom/libs/date.sol\":3482:3492  uint month */\n      dup1\n        /* \"src/ecom/libs/date.sol\":3494:3502  uint day */\n      0x00\n        /* \"src/ecom/libs/date.sol\":3528:3533  10000 */\n      0x2710\n        /* \"src/ecom/libs/date.sol\":3521:3525  _ymd */\n      dup5\n        /* \"src/ecom/libs/date.sol\":3521:3533  _ymd / 10000 */\n      tag_193\n      swap2\n      swap1\n      tag_194\n      jump\t// in\n    tag_193:\n        /* \"src/ecom/libs/date.sol\":3514:3533  year = _ymd / 10000 */\n      swap3\n      pop\n        /* \"src/ecom/libs/date.sol\":3566:3569  100 */\n      0x64\n        /* \"src/ecom/libs/date.sol\":3559:3562  100 */\n      dup1\n        /* \"src/ecom/libs/date.sol\":3552:3556  _ymd */\n      dup6\n        /* \"src/ecom/libs/date.sol\":3552:3562  _ymd / 100 */\n      tag_195\n      swap2\n      swap1\n      tag_194\n      jump\t// in\n    tag_195:\n        /* \"src/ecom/libs/date.sol\":3551:3569  (_ymd / 100) % 100 */\n      tag_196\n      swap2\n      swap1\n      tag_197\n      jump\t// in\n    tag_196:\n        /* \"src/ecom/libs/date.sol\":3543:3569  month = (_ymd / 100) % 100 */\n      swap2\n      pop\n        /* \"src/ecom/libs/date.sol\":3592:3595  100 */\n      0x64\n        /* \"src/ecom/libs/date.sol\":3585:3589  _ymd */\n      dup5\n        /* \"src/ecom/libs/date.sol\":3585:3595  _ymd % 100 */\n      tag_198\n      swap2\n      swap1\n      tag_197\n      jump\t// in\n    tag_198:\n        /* \"src/ecom/libs/date.sol\":3579:3595  day = _ymd % 100 */\n      swap1\n      pop\n        /* \"src/ecom/libs/date.sol\":3419:3602  function extractYMD(uint _ymd) public pure returns (uint year, uint month, uint day) {... */\n      swap2\n      swap4\n      swap1\n      swap3\n      pop\n      jump\t// out\n        /* \"src/ecom/libs/date.sol\":1350:1598  function timestampToDate(uint timestamp, int tz) public pure returns (uint year, uint month, uint day) {... */\n    tag_81:\n        /* \"src/ecom/libs/date.sol\":1420:1429  uint year */\n      0x00\n        /* \"src/ecom/libs/date.sol\":1431:1441  uint month */\n      dup1\n        /* \"src/ecom/libs/date.sol\":1443:1451  uint day */\n      0x00\n        /* \"src/ecom/libs/date.sol\":1506:1532  addTimezone(timestamp, tz) */\n      tag_200\n        /* \"src/ecom/libs/date.sol\":1518:1527  timestamp */\n      dup6\n        /* \"src/ecom/libs/date.sol\":1529:1531  tz */\n      dup6\n        /* \"src/ecom/libs/date.sol\":1506:1517  addTimezone */\n      tag_40\n        /* \"src/ecom/libs/date.sol\":1506:1532  addTimezone(timestamp, tz) */\n      jump\t// in\n    tag_200:\n        /* \"src/ecom/libs/date.sol\":1494:1532  timestamp = addTimezone(timestamp, tz) */\n      swap5\n      pop\n        /* \"src/ecom/libs/date.sol\":1549:1591  DateTimeLibrary.timestampToDate(timestamp) */\n      tag_201\n        /* \"src/ecom/libs/date.sol\":1581:1590  timestamp */\n      dup6\n        /* \"src/ecom/libs/date.sol\":1549:1580  DateTimeLibrary.timestampToDate */\n      tag_202\n        /* \"src/ecom/libs/date.sol\":1549:1591  DateTimeLibrary.timestampToDate(timestamp) */\n      jump\t// in\n    tag_201:\n        /* \"src/ecom/libs/date.sol\":1542:1591  return DateTimeLibrary.timestampToDate(timestamp) */\n      swap3\n      pop\n      swap3\n      pop\n      swap3\n      pop\n        /* \"src/ecom/libs/date.sol\":1350:1598  function timestampToDate(uint timestamp, int tz) public pure returns (uint year, uint month, uint day) {... */\n      swap3\n      pop\n      swap3\n      pop\n      swap3\n      jump\t// out\n        /* \"src/ecom/libs/date.sol\":2241:2573  function timestampFromDateTime(uint year, uint month, uint day, uint hour, uint minute, uint second, int tz) public pure returns (uint timestamp) {... */\n    tag_86:\n        /* \"src/ecom/libs/date.sol\":2371:2385  uint timestamp */\n      0x00\n        /* \"src/ecom/libs/date.sol\":2409:2486  DateTimeLibrary.timestampFromDateTime(year, month, day, hour, minute, second) */\n      tag_204\n        /* \"src/ecom/libs/date.sol\":2447:2451  year */\n      dup9\n        /* \"src/ecom/libs/date.sol\":2453:2458  month */\n      dup9\n        /* \"src/ecom/libs/date.sol\":2460:2463  day */\n      dup9\n        /* \"src/ecom/libs/date.sol\":2465:2469  hour */\n      dup9\n        /* \"src/ecom/libs/date.sol\":2471:2477  minute */\n      dup9\n        /* \"src/ecom/libs/date.sol\":2479:2485  second */\n      dup9\n        /* \"src/ecom/libs/date.sol\":2409:2446  DateTimeLibrary.timestampFromDateTime */\n      tag_205\n        /* \"src/ecom/libs/date.sol\":2409:2486  DateTimeLibrary.timestampFromDateTime(year, month, day, hour, minute, second) */\n      jump\t// in\n    tag_204:\n        /* \"src/ecom/libs/date.sol\":2397:2486  timestamp = DateTimeLibrary.timestampFromDateTime(year, month, day, hour, minute, second) */\n      swap1\n      pop\n        /* \"src/ecom/libs/date.sol\":2539:2566  addTimezone(timestamp, -tz) */\n      tag_206\n        /* \"src/ecom/libs/date.sol\":2551:2560  timestamp */\n      dup2\n        /* \"src/ecom/libs/date.sol\":2563:2565  tz */\n      dup4\n        /* \"src/ecom/libs/date.sol\":2562:2565  -tz */\n      tag_207\n      swap1\n      tag_208\n      jump\t// in\n    tag_207:\n        /* \"src/ecom/libs/date.sol\":2539:2550  addTimezone */\n      tag_40\n        /* \"src/ecom/libs/date.sol\":2539:2566  addTimezone(timestamp, -tz) */\n      jump\t// in\n    tag_206:\n        /* \"src/ecom/libs/date.sol\":2527:2566  timestamp = addTimezone(timestamp, -tz) */\n      swap1\n      pop\n        /* \"src/ecom/libs/date.sol\":2241:2573  function timestampFromDateTime(uint year, uint month, uint day, uint hour, uint minute, uint second, int tz) public pure returns (uint timestamp) {... */\n      swap8\n      swap7\n      pop\n      pop\n      pop\n      pop\n      pop\n      pop\n      pop\n      jump\t// out\n        /* \"src/ecom/libs/date.sol\":1051:1344  function timestampToDateTime(uint timestamp, int tz) public pure returns (uint year, uint month, uint day, uint hour, uint minute, uint second) {... */\n    tag_90:\n        /* \"src/ecom/libs/date.sol\":1125:1134  uint year */\n      0x00\n        /* \"src/ecom/libs/date.sol\":1136:1146  uint month */\n      dup1\n        /* \"src/ecom/libs/date.sol\":1148:1156  uint day */\n      0x00\n        /* \"src/ecom/libs/date.sol\":1158:1167  uint hour */\n      dup1\n        /* \"src/ecom/libs/date.sol\":1169:1180  uint minute */\n      0x00\n        /* \"src/ecom/libs/date.sol\":1182:1193  uint second */\n      dup1\n        /* \"src/ecom/libs/date.sol\":1248:1274  addTimezone(timestamp, tz) */\n      tag_210\n        /* \"src/ecom/libs/date.sol\":1260:1269  timestamp */\n      dup9\n        /* \"src/ecom/libs/date.sol\":1271:1273  tz */\n      dup9\n        /* \"src/ecom/libs/date.sol\":1248:1259  addTimezone */\n      tag_40\n        /* \"src/ecom/libs/date.sol\":1248:1274  addTimezone(timestamp, tz) */\n      jump\t// in\n    tag_210:\n        /* \"src/ecom/libs/date.sol\":1236:1274  timestamp = addTimezone(timestamp, tz) */\n      swap8\n      pop\n        /* \"src/ecom/libs/date.sol\":1291:1337  DateTimeLibrary.timestampToDateTime(timestamp) */\n      tag_211\n        /* \"src/ecom/libs/date.sol\":1327:1336  timestamp */\n      dup9\n        /* \"src/ecom/libs/date.sol\":1291:1326  DateTimeLibrary.timestampToDateTime */\n      tag_212\n        /* \"src/ecom/libs/date.sol\":1291:1337  DateTimeLibrary.timestampToDateTime(timestamp) */\n      jump\t// in\n    tag_211:\n        /* \"src/ecom/libs/date.sol\":1284:1337  return DateTimeLibrary.timestampToDateTime(timestamp) */\n      swap6\n      pop\n      swap6\n      pop\n      swap6\n      pop\n      swap6\n      pop\n      swap6\n      pop\n      swap6\n      pop\n        /* \"src/ecom/libs/date.sol\":1051:1344  function timestampToDateTime(uint timestamp, int tz) public pure returns (uint year, uint month, uint day, uint hour, uint minute, uint second) {... */\n      swap3\n      swap6\n      pop\n      swap3\n      swap6\n      pop\n      swap3\n      swap6\n      jump\t// out\n        /* \"src/ecom/libs/date.sol\":3820:3987  function timestampFromYMD(uint year, uint month, uint day, int tz) public pure returns (uint timestamp) {... */\n    tag_96:\n        /* \"src/ecom/libs/date.sol\":3908:3922  uint timestamp */\n      0x00\n        /* \"src/ecom/libs/date.sol\":3941:3980  timestampFromDate(year, month, day, tz) */\n      tag_214\n        /* \"src/ecom/libs/date.sol\":3959:3963  year */\n      dup6\n        /* \"src/ecom/libs/date.sol\":3965:3970  month */\n      dup6\n        /* \"src/ecom/libs/date.sol\":3972:3975  day */\n      dup6\n        /* \"src/ecom/libs/date.sol\":3977:3979  tz */\n      dup6\n        /* \"src/ecom/libs/date.sol\":3941:3958  timestampFromDate */\n      tag_104\n        /* \"src/ecom/libs/date.sol\":3941:3980  timestampFromDate(year, month, day, tz) */\n      jump\t// in\n    tag_214:\n        /* \"src/ecom/libs/date.sol\":3934:3980  return timestampFromDate(year, month, day, tz) */\n      swap1\n      pop\n        /* \"src/ecom/libs/date.sol\":3820:3987  function timestampFromYMD(uint year, uint month, uint day, int tz) public pure returns (uint timestamp) {... */\n      swap5\n      swap4\n      pop\n      pop\n      pop\n      pop\n      jump\t// out\n        /* \"src/ecom/libs/date.sol\":3993:4153  function getDaysInMonth(uint year, uint month) public pure returns (uint daysInMonth) {... */\n    tag_100:\n        /* \"src/ecom/libs/date.sol\":4061:4077  uint daysInMonth */\n      0x00\n        /* \"src/ecom/libs/date.sol\":4103:4146  DateTimeLibrary.getDaysInMonth(year, month) */\n      tag_216\n        /* \"src/ecom/libs/date.sol\":4134:4138  year */\n      dup4\n        /* \"src/ecom/libs/date.sol\":4140:4145  month */\n      dup4\n        /* \"src/ecom/libs/date.sol\":4103:4133  DateTimeLibrary.getDaysInMonth */\n      tag_217\n        /* \"src/ecom/libs/date.sol\":4103:4146  DateTimeLibrary.getDaysInMonth(year, month) */\n      jump\t// in\n    tag_216:\n        /* \"src/ecom/libs/date.sol\":4089:4146  daysInMonth = DateTimeLibrary.getDaysInMonth(year, month) */\n      swap1\n      pop\n        /* \"src/ecom/libs/date.sol\":3993:4153  function getDaysInMonth(uint year, uint month) public pure returns (uint daysInMonth) {... */\n      swap3\n      swap2\n      pop\n      pop\n      jump\t// out\n        /* \"src/ecom/libs/date.sol\":1961:2235  function timestampFromDate(uint year, uint month, uint day, int tz) public pure returns (uint timestamp) {... */\n    tag_104:\n        /* \"src/ecom/libs/date.sol\":2050:2064  uint timestamp */\n      0x00\n        /* \"src/ecom/libs/date.sol\":2088:2139  DateTimeLibrary.timestampFromDate(year, month, day) */\n      tag_219\n        /* \"src/ecom/libs/date.sol\":2122:2126  year */\n      dup6\n        /* \"src/ecom/libs/date.sol\":2128:2133  month */\n      dup6\n        /* \"src/ecom/libs/date.sol\":2135:2138  day */\n      dup6\n        /* \"src/ecom/libs/date.sol\":2088:2121  DateTimeLibrary.timestampFromDate */\n      tag_220\n        /* \"src/ecom/libs/date.sol\":2088:2139  DateTimeLibrary.timestampFromDate(year, month, day) */\n      jump\t// in\n    tag_219:\n        /* \"src/ecom/libs/date.sol\":2076:2139  timestamp = DateTimeLibrary.timestampFromDate(year, month, day) */\n      swap1\n      pop\n        /* \"src/ecom/libs/date.sol\":2201:2228  addTimezone(timestamp, -tz) */\n      tag_221\n        /* \"src/ecom/libs/date.sol\":2213:2222  timestamp */\n      dup2\n        /* \"src/ecom/libs/date.sol\":2225:2227  tz */\n      dup4\n        /* \"src/ecom/libs/date.sol\":2224:2227  -tz */\n      tag_222\n      swap1\n      tag_208\n      jump\t// in\n    tag_222:\n        /* \"src/ecom/libs/date.sol\":2201:2212  addTimezone */\n      tag_40\n        /* \"src/ecom/libs/date.sol\":2201:2228  addTimezone(timestamp, -tz) */\n      jump\t// in\n    tag_221:\n        /* \"src/ecom/libs/date.sol\":2189:2228  timestamp = addTimezone(timestamp, -tz) */\n      swap1\n      pop\n        /* \"src/ecom/libs/date.sol\":1961:2235  function timestampFromDate(uint year, uint month, uint day, int tz) public pure returns (uint timestamp) {... */\n      swap5\n      swap4\n      pop\n      pop\n      pop\n      pop\n      jump\t// out\n        /* \"src/ecom/libs/date.sol\":3211:3413  function subDays(uint timestamp, uint _days) public pure returns (uint newTimestamp) {... */\n    tag_108:\n        /* \"src/ecom/libs/date.sol\":3277:3294  uint newTimestamp */\n      0x00\n        /* \"src/ecom/libs/date.sol\":3321:3362  DateTimeLibrary.subDays(timestamp, _days) */\n      tag_224\n        /* \"src/ecom/libs/date.sol\":3345:3354  timestamp */\n      dup4\n        /* \"src/ecom/libs/date.sol\":3356:3361  _days */\n      dup4\n        /* \"src/ecom/libs/date.sol\":3321:3344  DateTimeLibrary.subDays */\n      tag_225\n        /* \"src/ecom/libs/date.sol\":3321:3362  DateTimeLibrary.subDays(timestamp, _days) */\n      jump\t// in\n    tag_224:\n        /* \"src/ecom/libs/date.sol\":3306:3362  newTimestamp = DateTimeLibrary.subDays(timestamp, _days) */\n      swap1\n      pop\n        /* \"src/ecom/libs/date.sol\":3396:3405  timestamp */\n      dup3\n        /* \"src/ecom/libs/date.sol\":3380:3392  newTimestamp */\n      dup2\n        /* \"src/ecom/libs/date.sol\":3380:3405  newTimestamp <= timestamp */\n      gt\n      iszero\n        /* \"src/ecom/libs/date.sol\":3372:3406  require(newTimestamp <= timestamp) */\n      tag_226\n      jumpi\n      0x00\n      dup1\n      revert\n    tag_226:\n        /* \"src/ecom/libs/date.sol\":3211:3413  function subDays(uint timestamp, uint _days) public pure returns (uint newTimestamp) {... */\n      swap3\n      swap2\n      pop\n      pop\n      jump\t// out\n        /* \"src/ecom/libs/date.sol\":1792:1955  function getYM(uint timestamp, int tz)  public pure returns (uint) {... */\n    tag_112:\n        /* \"src/ecom/libs/date.sol\":1853:1857  uint */\n      0x00\n        /* \"src/ecom/libs/date.sol\":1870:1876  uint y */\n      dup1\n        /* \"src/ecom/libs/date.sol\":1878:1884  uint m */\n      0x00\n        /* \"src/ecom/libs/date.sol\":1890:1920  timestampToDate(timestamp, tz) */\n      tag_228\n        /* \"src/ecom/libs/date.sol\":1906:1915  timestamp */\n      dup6\n        /* \"src/ecom/libs/date.sol\":1917:1919  tz */\n      dup6\n        /* \"src/ecom/libs/date.sol\":1890:1905  timestampToDate */\n      tag_81\n        /* \"src/ecom/libs/date.sol\":1890:1920  timestampToDate(timestamp, tz) */\n      jump\t// in\n    tag_228:\n        /* \"src/ecom/libs/date.sol\":1869:1920  (uint y, uint m, ) = timestampToDate(timestamp, tz) */\n      pop\n      swap2\n      pop\n      swap2\n      pop\n        /* \"src/ecom/libs/date.sol\":1947:1948  m */\n      dup1\n        /* \"src/ecom/libs/date.sol\":1941:1944  100 */\n      0x64\n        /* \"src/ecom/libs/date.sol\":1937:1938  y */\n      dup4\n        /* \"src/ecom/libs/date.sol\":1937:1944  y * 100 */\n      tag_229\n      swap2\n      swap1\n      tag_125\n      jump\t// in\n    tag_229:\n        /* \"src/ecom/libs/date.sol\":1937:1948  y * 100 + m */\n      tag_230\n      swap2\n      swap1\n      tag_128\n      jump\t// in\n    tag_230:\n        /* \"src/ecom/libs/date.sol\":1930:1948  return y * 100 + m */\n      swap3\n      pop\n      pop\n      pop\n        /* \"src/ecom/libs/date.sol\":1792:1955  function getYM(uint timestamp, int tz)  public pure returns (uint) {... */\n      swap3\n      swap2\n      pop\n      pop\n      jump\t// out\n        /* \"src/ecom/libs/date.sol\":4616:4898  function timestampToString(uint timestamp, int tz) public pure returns (string memory) {... */\n    tag_116:\n        /* \"src/ecom/libs/date.sol\":4688:4701  string memory */\n      0x60\n        /* \"src/ecom/libs/date.sol\":4714:4723  uint year */\n      0x00\n        /* \"src/ecom/libs/date.sol\":4725:4735  uint month */\n      dup1\n        /* \"src/ecom/libs/date.sol\":4737:4745  uint day */\n      0x00\n        /* \"src/ecom/libs/date.sol\":4749:4779  timestampToDate(timestamp, tz) */\n      tag_232\n        /* \"src/ecom/libs/date.sol\":4765:4774  timestamp */\n      dup7\n        /* \"src/ecom/libs/date.sol\":4776:4778  tz */\n      dup7\n        /* \"src/ecom/libs/date.sol\":4749:4764  timestampToDate */\n      tag_81\n        /* \"src/ecom/libs/date.sol\":4749:4779  timestampToDate(timestamp, tz) */\n      jump\t// in\n    tag_232:\n        /* \"src/ecom/libs/date.sol\":4713:4779  (uint year, uint month, uint day) = timestampToDate(timestamp, tz) */\n      swap3\n      pop\n      swap3\n      pop\n      swap3\n      pop\n        /* \"src/ecom/libs/date.sol\":4810:4831  Strings.toString(day) */\n      tag_233\n        /* \"src/ecom/libs/date.sol\":4827:4830  day */\n      dup2\n        /* \"src/ecom/libs/date.sol\":4810:4826  Strings.toString */\n      tag_133\n        /* \"src/ecom/libs/date.sol\":4810:4831  Strings.toString(day) */\n      jump\t// in\n    tag_233:\n        /* \"src/ecom/libs/date.sol\":4838:4861  Strings.toString(month) */\n      tag_234\n        /* \"src/ecom/libs/date.sol\":4855:4860  month */\n      dup4\n        /* \"src/ecom/libs/date.sol\":4838:4854  Strings.toString */\n      tag_133\n        /* \"src/ecom/libs/date.sol\":4838:4861  Strings.toString(month) */\n      jump\t// in\n    tag_234:\n        /* \"src/ecom/libs/date.sol\":4868:4890  Strings.toString(year) */\n      tag_235\n        /* \"src/ecom/libs/date.sol\":4885:4889  year */\n      dup6\n        /* \"src/ecom/libs/date.sol\":4868:4884  Strings.toString */\n      tag_133\n        /* \"src/ecom/libs/date.sol\":4868:4890  Strings.toString(year) */\n      jump\t// in\n    tag_235:\n        /* \"src/ecom/libs/date.sol\":4796:4891  string.concat(Strings.toString(day), \"/\", Strings.toString(month), \"/\", Strings.toString(year)) */\n      add(0x20, mload(0x40))\n      tag_236\n      swap4\n      swap3\n      swap2\n      swap1\n      tag_137\n      jump\t// in\n    tag_236:\n      mload(0x40)\n      0x20\n      dup2\n      dup4\n      sub\n      sub\n      dup2\n      mstore\n      swap1\n      0x40\n      mstore\n        /* \"src/ecom/libs/date.sol\":4789:4891  return string.concat(Strings.toString(day), \"/\", Strings.toString(month), \"/\", Strings.toString(year)) */\n      swap4\n      pop\n      pop\n      pop\n      pop\n        /* \"src/ecom/libs/date.sol\":4616:4898  function timestampToString(uint timestamp, int tz) public pure returns (string memory) {... */\n      swap3\n      swap2\n      pop\n      pop\n      jump\t// out\n        /* \"src/ecom/libs/date.sol\":4159:4408  function getDayOfWeekFromYMD(uint _ymd, int tz) public pure returns (uint dayOfWeek) {... */\n    tag_120:\n        /* \"src/ecom/libs/date.sol\":4228:4242  uint dayOfWeek */\n      0x00\n        /* \"src/ecom/libs/date.sol\":4254:4268  uint timestamp */\n      dup1\n        /* \"src/ecom/libs/date.sol\":4271:4297  timestampFromYMD(_ymd, tz) */\n      tag_238\n        /* \"src/ecom/libs/date.sol\":4288:4292  _ymd */\n      dup5\n        /* \"src/ecom/libs/date.sol\":4294:4296  tz */\n      dup5\n        /* \"src/ecom/libs/date.sol\":4271:4287  timestampFromYMD */\n      tag_55\n        /* \"src/ecom/libs/date.sol\":4271:4297  timestampFromYMD(_ymd, tz) */\n      jump\t// in\n    tag_238:\n        /* \"src/ecom/libs/date.sol\":4254:4297  uint timestamp = timestampFromYMD(_ymd, tz) */\n      swap1\n      pop\n        /* \"src/ecom/libs/date.sol\":4319:4345  addTimezone(timestamp, tz) */\n      tag_239\n        /* \"src/ecom/libs/date.sol\":4331:4340  timestamp */\n      dup2\n        /* \"src/ecom/libs/date.sol\":4342:4344  tz */\n      dup5\n        /* \"src/ecom/libs/date.sol\":4319:4330  addTimezone */\n      tag_40\n        /* \"src/ecom/libs/date.sol\":4319:4345  addTimezone(timestamp, tz) */\n      jump\t// in\n    tag_239:\n        /* \"src/ecom/libs/date.sol\":4307:4345  timestamp = addTimezone(timestamp, tz) */\n      swap1\n      pop\n        /* \"src/ecom/libs/date.sol\":4362:4401  DateTimeLibrary.getDayOfWeek(timestamp) */\n      tag_240\n        /* \"src/ecom/libs/date.sol\":4391:4400  timestamp */\n      dup2\n        /* \"src/ecom/libs/date.sol\":4362:4390  DateTimeLibrary.getDayOfWeek */\n      tag_241\n        /* \"src/ecom/libs/date.sol\":4362:4401  DateTimeLibrary.getDayOfWeek(timestamp) */\n      jump\t// in\n    tag_240:\n        /* \"src/ecom/libs/date.sol\":4355:4401  return DateTimeLibrary.getDayOfWeek(timestamp) */\n      swap2\n      pop\n      pop\n        /* \"src/ecom/libs/date.sol\":4159:4408  function getDayOfWeekFromYMD(uint _ymd, int tz) public pure returns (uint dayOfWeek) {... */\n      swap3\n      swap2\n      pop\n      pop\n      jump\t// out\n        /* \"@openzeppelin/contracts@v4.9.0/utils/Strings.sol\":447:1143  function toString(uint256 value) internal pure returns (string memory) {... */\n    tag_133:\n        /* \"@openzeppelin/contracts@v4.9.0/utils/Strings.sol\":503:516  string memory */\n      0x60\n        /* \"@openzeppelin/contracts@v4.9.0/utils/Strings.sol\":552:566  uint256 length */\n      0x00\n        /* \"@openzeppelin/contracts@v4.9.0/utils/Strings.sol\":589:590  1 */\n      0x01\n        /* \"@openzeppelin/contracts@v4.9.0/utils/Strings.sol\":569:586  Math.log10(value) */\n      tag_243\n        /* \"@openzeppelin/contracts@v4.9.0/utils/Strings.sol\":580:585  value */\n      dup5\n        /* \"@openzeppelin/contracts@v4.9.0/utils/Strings.sol\":569:579  Math.log10 */\n      tag_244\n        /* \"@openzeppelin/contracts@v4.9.0/utils/Strings.sol\":569:586  Math.log10(value) */\n      jump\t// in\n    tag_243:\n        /* \"@openzeppelin/contracts@v4.9.0/utils/Strings.sol\":569:590  Math.log10(value) + 1 */\n      add\n        /* \"@openzeppelin/contracts@v4.9.0/utils/Strings.sol\":552:590  uint256 length = Math.log10(value) + 1 */\n      swap1\n      pop\n        /* \"@openzeppelin/contracts@v4.9.0/utils/Strings.sol\":604:624  string memory buffer */\n      0x00\n        /* \"@openzeppelin/contracts@v4.9.0/utils/Strings.sol\":638:644  length */\n      dup2\n        /* \"@openzeppelin/contracts@v4.9.0/utils/Strings.sol\":627:645  new string(length) */\n      0xffffffffffffffff\n      dup2\n      gt\n      iszero\n      tag_245\n      jumpi\n      tag_246\n      tag_247\n      jump\t// in\n    tag_246:\n    tag_245:\n      mload(0x40)\n      swap1\n      dup1\n      dup3\n      mstore\n      dup1\n      0x1f\n      add\n      not(0x1f)\n      and\n      0x20\n      add\n      dup3\n      add\n      0x40\n      mstore\n      dup1\n      iszero\n      tag_248\n      jumpi\n      dup2\n      0x20\n      add\n      0x01\n      dup3\n      mul\n      dup1\n      calldatasize\n      dup4\n      calldatacopy\n      dup1\n      dup3\n      add\n      swap2\n      pop\n      pop\n      swap1\n      pop\n    tag_248:\n      pop\n        /* \"@openzeppelin/contracts@v4.9.0/utils/Strings.sol\":604:645  string memory buffer = new string(length) */\n      swap1\n      pop\n        /* \"@openzeppelin/contracts@v4.9.0/utils/Strings.sol\":659:670  uint256 ptr */\n      0x00\n        /* \"@openzeppelin/contracts@v4.9.0/utils/Strings.sol\":785:791  length */\n      dup3\n        /* \"@openzeppelin/contracts@v4.9.0/utils/Strings.sol\":781:783  32 */\n      0x20\n        /* \"@openzeppelin/contracts@v4.9.0/utils/Strings.sol\":777:792  add(32, length) */\n      add\n        /* \"@openzeppelin/contracts@v4.9.0/utils/Strings.sol\":769:775  buffer */\n      dup3\n        /* \"@openzeppelin/contracts@v4.9.0/utils/Strings.sol\":765:793  add(buffer, add(32, length)) */\n      add\n        /* \"@openzeppelin/contracts@v4.9.0/utils/Strings.sol\":758:793  ptr := add(buffer, add(32, length)) */\n      swap1\n      pop\n        /* \"@openzeppelin/contracts@v4.9.0/utils/Strings.sol\":820:1100  while (true) {... */\n    tag_249:\n        /* \"@openzeppelin/contracts@v4.9.0/utils/Strings.sol\":827:831  true */\n      0x01\n        /* \"@openzeppelin/contracts@v4.9.0/utils/Strings.sol\":820:1100  while (true) {... */\n      iszero\n      tag_250\n      jumpi\n        /* \"@openzeppelin/contracts@v4.9.0/utils/Strings.sol\":851:856  ptr-- */\n      dup1\n      dup1\n      0x01\n      swap1\n      sub\n      swap2\n      pop\n      pop\n        /* \"@openzeppelin/contracts@v4.9.0/utils/Strings.sol\":990:998  _SYMBOLS */\n      0x3031323334353637383961626364656600000000000000000000000000000000\n        /* \"@openzeppelin/contracts@v4.9.0/utils/Strings.sol\":985:987  10 */\n      0x0a\n        /* \"@openzeppelin/contracts@v4.9.0/utils/Strings.sol\":978:983  value */\n      dup7\n        /* \"@openzeppelin/contracts@v4.9.0/utils/Strings.sol\":974:988  mod(value, 10) */\n      mod\n        /* \"@openzeppelin/contracts@v4.9.0/utils/Strings.sol\":969:999  byte(mod(value, 10), _SYMBOLS) */\n      byte\n        /* \"@openzeppelin/contracts@v4.9.0/utils/Strings.sol\":964:967  ptr */\n      dup2\n        /* \"@openzeppelin/contracts@v4.9.0/utils/Strings.sol\":956:1000  mstore8(ptr, byte(mod(value, 10), _SYMBOLS)) */\n      mstore8\n        /* \"@openzeppelin/contracts@v4.9.0/utils/Strings.sol\":1044:1046  10 */\n      0x0a\n        /* \"@openzeppelin/contracts@v4.9.0/utils/Strings.sol\":1035:1046  value /= 10 */\n      dup6\n      dup2\n      tag_251\n      jumpi\n      tag_252\n      tag_253\n      jump\t// in\n    tag_252:\n    tag_251:\n      div\n      swap5\n      pop\n        /* \"@openzeppelin/contracts@v4.9.0/utils/Strings.sol\":1077:1078  0 */\n      0x00\n        /* \"@openzeppelin/contracts@v4.9.0/utils/Strings.sol\":1068:1073  value */\n      dup6\n        /* \"@openzeppelin/contracts@v4.9.0/utils/Strings.sol\":1068:1078  value == 0 */\n      sub\n        /* \"@openzeppelin/contracts@v4.9.0/utils/Strings.sol\":820:1100  while (true) {... */\n      tag_249\n        /* \"@openzeppelin/contracts@v4.9.0/utils/Strings.sol\":1064:1085  if (value == 0) break */\n      jumpi\n        /* \"@openzeppelin/contracts@v4.9.0/utils/Strings.sol\":820:1100  while (true) {... */\n    tag_250:\n        /* \"@openzeppelin/contracts@v4.9.0/utils/Strings.sol\":1120:1126  buffer */\n      dup2\n        /* \"@openzeppelin/contracts@v4.9.0/utils/Strings.sol\":1113:1126  return buffer */\n      swap4\n      pop\n      pop\n      pop\n      pop\n        /* \"@openzeppelin/contracts@v4.9.0/utils/Strings.sol\":447:1143  function toString(uint256 value) internal pure returns (string memory) {... */\n      swap2\n      swap1\n      pop\n      jump\t// out\n        /* \"src/ecom/libs/DateTimeLibrary.sol\":9314:9512  function addDays(uint timestamp, uint _days) internal pure returns (uint newTimestamp) {... */\n    tag_190:\n        /* \"src/ecom/libs/DateTimeLibrary.sol\":9382:9399  uint newTimestamp */\n      0x00\n        /* \"src/ecom/libs/DateTimeLibrary.sol\":1072:1084  24 * 60 * 60 */\n      0x015180\n        /* \"src/ecom/libs/DateTimeLibrary.sol\":9438:9443  _days */\n      dup3\n        /* \"src/ecom/libs/DateTimeLibrary.sol\":9438:9461  _days * SECONDS_PER_DAY */\n      tag_256\n      swap2\n      swap1\n      tag_125\n      jump\t// in\n    tag_256:\n        /* \"src/ecom/libs/DateTimeLibrary.sol\":9426:9435  timestamp */\n      dup4\n        /* \"src/ecom/libs/DateTimeLibrary.sol\":9426:9461  timestamp + _days * SECONDS_PER_DAY */\n      tag_257\n      swap2\n      swap1\n      tag_128\n      jump\t// in\n    tag_257:\n        /* \"src/ecom/libs/DateTimeLibrary.sol\":9411:9461  newTimestamp = timestamp + _days * SECONDS_PER_DAY */\n      swap1\n      pop\n        /* \"src/ecom/libs/DateTimeLibrary.sol\":9495:9504  timestamp */\n      dup3\n        /* \"src/ecom/libs/DateTimeLibrary.sol\":9479:9491  newTimestamp */\n      dup2\n        /* \"src/ecom/libs/DateTimeLibrary.sol\":9479:9504  newTimestamp >= timestamp */\n      lt\n      iszero\n        /* \"src/ecom/libs/DateTimeLibrary.sol\":9471:9505  require(newTimestamp >= timestamp) */\n      tag_258\n      jumpi\n      0x00\n      dup1\n      revert\n    tag_258:\n        /* \"src/ecom/libs/DateTimeLibrary.sol\":9314:9512  function addDays(uint timestamp, uint _days) internal pure returns (uint newTimestamp) {... */\n      swap3\n      swap2\n      pop\n      pop\n      jump\t// out\n        /* \"src/ecom/libs/DateTimeLibrary.sol\":4519:4694  function timestampToDate(uint timestamp) internal pure returns (uint year, uint month, uint day) {... */\n    tag_202:\n        /* \"src/ecom/libs/DateTimeLibrary.sol\":4583:4592  uint year */\n      0x00\n        /* \"src/ecom/libs/DateTimeLibrary.sol\":4594:4604  uint month */\n      dup1\n        /* \"src/ecom/libs/DateTimeLibrary.sol\":4606:4614  uint day */\n      0x00\n        /* \"src/ecom/libs/DateTimeLibrary.sol\":4647:4687  _daysToDate(timestamp / SECONDS_PER_DAY) */\n      tag_260\n        /* \"src/ecom/libs/DateTimeLibrary.sol\":1072:1084  24 * 60 * 60 */\n      0x015180\n        /* \"src/ecom/libs/DateTimeLibrary.sol\":4659:4668  timestamp */\n      dup6\n        /* \"src/ecom/libs/DateTimeLibrary.sol\":4659:4686  timestamp / SECONDS_PER_DAY */\n      tag_261\n      swap2\n      swap1\n      tag_194\n      jump\t// in\n    tag_261:\n        /* \"src/ecom/libs/DateTimeLibrary.sol\":4647:4658  _daysToDate */\n      tag_262\n        /* \"src/ecom/libs/DateTimeLibrary.sol\":4647:4687  _daysToDate(timestamp / SECONDS_PER_DAY) */\n      jump\t// in\n    tag_260:\n        /* \"src/ecom/libs/DateTimeLibrary.sol\":4626:4687  (year, month, day) = _daysToDate(timestamp / SECONDS_PER_DAY) */\n      dup1\n      swap4\n      pop\n      dup2\n      swap5\n      pop\n      dup3\n      swap6\n      pop\n      pop\n      pop\n      pop\n        /* \"src/ecom/libs/DateTimeLibrary.sol\":4519:4694  function timestampToDate(uint timestamp) internal pure returns (uint year, uint month, uint day) {... */\n      swap2\n      swap4\n      swap1\n      swap3\n      pop\n      jump\t// out\n        /* \"src/ecom/libs/DateTimeLibrary.sol\":4231:4514  function timestampFromDateTime(uint year, uint month, uint day, uint hour, uint minute, uint second) internal pure returns (uint timestamp) {... */\n    tag_205:\n        /* \"src/ecom/libs/DateTimeLibrary.sol\":4355:4369  uint timestamp */\n      0x00\n        /* \"src/ecom/libs/DateTimeLibrary.sol\":4501:4507  second */\n      dup2\n        /* \"src/ecom/libs/DateTimeLibrary.sol\":1215:1217  60 */\n      0x3c\n        /* \"src/ecom/libs/DateTimeLibrary.sol\":4471:4477  minute */\n      dup5\n        /* \"src/ecom/libs/DateTimeLibrary.sol\":4471:4498  minute * SECONDS_PER_MINUTE */\n      tag_264\n      swap2\n      swap1\n      tag_125\n      jump\t// in\n    tag_264:\n        /* \"src/ecom/libs/DateTimeLibrary.sol\":1123:1130  60 * 60 */\n      0x0e10\n        /* \"src/ecom/libs/DateTimeLibrary.sol\":4445:4449  hour */\n      dup7\n        /* \"src/ecom/libs/DateTimeLibrary.sol\":4445:4468  hour * SECONDS_PER_HOUR */\n      tag_265\n      swap2\n      swap1\n      tag_125\n      jump\t// in\n    tag_265:\n        /* \"src/ecom/libs/DateTimeLibrary.sol\":1072:1084  24 * 60 * 60 */\n      0x015180\n        /* \"src/ecom/libs/DateTimeLibrary.sol\":4393:4424  _daysFromDate(year, month, day) */\n      tag_266\n        /* \"src/ecom/libs/DateTimeLibrary.sol\":4407:4411  year */\n      dup12\n        /* \"src/ecom/libs/DateTimeLibrary.sol\":4413:4418  month */\n      dup12\n        /* \"src/ecom/libs/DateTimeLibrary.sol\":4420:4423  day */\n      dup12\n        /* \"src/ecom/libs/DateTimeLibrary.sol\":4393:4406  _daysFromDate */\n      tag_267\n        /* \"src/ecom/libs/DateTimeLibrary.sol\":4393:4424  _daysFromDate(year, month, day) */\n      jump\t// in\n    tag_266:\n        /* \"src/ecom/libs/DateTimeLibrary.sol\":4393:4442  _daysFromDate(year, month, day) * SECONDS_PER_DAY */\n      tag_268\n      swap2\n      swap1\n      tag_125\n      jump\t// in\n    tag_268:\n        /* \"src/ecom/libs/DateTimeLibrary.sol\":4393:4468  _daysFromDate(year, month, day) * SECONDS_PER_DAY + hour * SECONDS_PER_HOUR */\n      tag_269\n      swap2\n      swap1\n      tag_128\n      jump\t// in\n    tag_269:\n        /* \"src/ecom/libs/DateTimeLibrary.sol\":4393:4498  _daysFromDate(year, month, day) * SECONDS_PER_DAY + hour * SECONDS_PER_HOUR + minute * SECONDS_PER_MINUTE */\n      tag_270\n      swap2\n      swap1\n      tag_128\n      jump\t// in\n    tag_270:\n        /* \"src/ecom/libs/DateTimeLibrary.sol\":4393:4507  _daysFromDate(year, month, day) * SECONDS_PER_DAY + hour * SECONDS_PER_HOUR + minute * SECONDS_PER_MINUTE + second */\n      tag_271\n      swap2\n      swap1\n      tag_128\n      jump\t// in\n    tag_271:\n        /* \"src/ecom/libs/DateTimeLibrary.sol\":4381:4507  timestamp = _daysFromDate(year, month, day) * SECONDS_PER_DAY + hour * SECONDS_PER_HOUR + minute * SECONDS_PER_MINUTE + second */\n      swap1\n      pop\n        /* \"src/ecom/libs/DateTimeLibrary.sol\":4231:4514  function timestampFromDateTime(uint year, uint month, uint day, uint hour, uint minute, uint second) internal pure returns (uint timestamp) {... */\n      swap7\n      swap6\n      pop\n      pop\n      pop\n      pop\n      pop\n      pop\n      jump\t// out\n        /* \"src/ecom/libs/DateTimeLibrary.sol\":4699:5132  function timestampToDateTime(uint timestamp) internal pure returns (uint year, uint month, uint day, uint hour, uint minute, uint second) {... */\n    tag_212:\n        /* \"src/ecom/libs/DateTimeLibrary.sol\":4767:4776  uint year */\n      0x00\n        /* \"src/ecom/libs/DateTimeLibrary.sol\":4778:4788  uint month */\n      dup1\n        /* \"src/ecom/libs/DateTimeLibrary.sol\":4790:4798  uint day */\n      0x00\n        /* \"src/ecom/libs/DateTimeLibrary.sol\":4800:4809  uint hour */\n      dup1\n        /* \"src/ecom/libs/DateTimeLibrary.sol\":4811:4822  uint minute */\n      0x00\n        /* \"src/ecom/libs/DateTimeLibrary.sol\":4824:4835  uint second */\n      dup1\n        /* \"src/ecom/libs/DateTimeLibrary.sol\":4868:4908  _daysToDate(timestamp / SECONDS_PER_DAY) */\n      tag_273\n        /* \"src/ecom/libs/DateTimeLibrary.sol\":1072:1084  24 * 60 * 60 */\n      0x015180\n        /* \"src/ecom/libs/DateTimeLibrary.sol\":4880:4889  timestamp */\n      dup9\n        /* \"src/ecom/libs/DateTimeLibrary.sol\":4880:4907  timestamp / SECONDS_PER_DAY */\n      tag_274\n      swap2\n      swap1\n      tag_194\n      jump\t// in\n    tag_274:\n        /* \"src/ecom/libs/DateTimeLibrary.sol\":4868:4879  _daysToDate */\n      tag_262\n        /* \"src/ecom/libs/DateTimeLibrary.sol\":4868:4908  _daysToDate(timestamp / SECONDS_PER_DAY) */\n      jump\t// in\n    tag_273:\n        /* \"src/ecom/libs/DateTimeLibrary.sol\":4847:4908  (year, month, day) = _daysToDate(timestamp / SECONDS_PER_DAY) */\n      dup1\n      swap7\n      pop\n      dup2\n      swap8\n      pop\n      dup3\n      swap9\n      pop\n      pop\n      pop\n      pop\n        /* \"src/ecom/libs/DateTimeLibrary.sol\":4918:4927  uint secs */\n      0x00\n        /* \"src/ecom/libs/DateTimeLibrary.sol\":1072:1084  24 * 60 * 60 */\n      0x015180\n        /* \"src/ecom/libs/DateTimeLibrary.sol\":4930:4939  timestamp */\n      dup9\n        /* \"src/ecom/libs/DateTimeLibrary.sol\":4930:4957  timestamp % SECONDS_PER_DAY */\n      tag_275\n      swap2\n      swap1\n      tag_197\n      jump\t// in\n    tag_275:\n        /* \"src/ecom/libs/DateTimeLibrary.sol\":4918:4957  uint secs = timestamp % SECONDS_PER_DAY */\n      swap1\n      pop\n        /* \"src/ecom/libs/DateTimeLibrary.sol\":1123:1130  60 * 60 */\n      0x0e10\n        /* \"src/ecom/libs/DateTimeLibrary.sol\":4974:4978  secs */\n      dup2\n        /* \"src/ecom/libs/DateTimeLibrary.sol\":4974:4997  secs / SECONDS_PER_HOUR */\n      tag_276\n      swap2\n      swap1\n      tag_194\n      jump\t// in\n    tag_276:\n        /* \"src/ecom/libs/DateTimeLibrary.sol\":4967:4997  hour = secs / SECONDS_PER_HOUR */\n      swap4\n      pop\n        /* \"src/ecom/libs/DateTimeLibrary.sol\":1123:1130  60 * 60 */\n      0x0e10\n        /* \"src/ecom/libs/DateTimeLibrary.sol\":5014:5018  secs */\n      dup2\n        /* \"src/ecom/libs/DateTimeLibrary.sol\":5014:5037  secs % SECONDS_PER_HOUR */\n      tag_277\n      swap2\n      swap1\n      tag_197\n      jump\t// in\n    tag_277:\n        /* \"src/ecom/libs/DateTimeLibrary.sol\":5007:5037  secs = secs % SECONDS_PER_HOUR */\n      swap1\n      pop\n        /* \"src/ecom/libs/DateTimeLibrary.sol\":1215:1217  60 */\n      0x3c\n        /* \"src/ecom/libs/DateTimeLibrary.sol\":5056:5060  secs */\n      dup2\n        /* \"src/ecom/libs/DateTimeLibrary.sol\":5056:5081  secs / SECONDS_PER_MINUTE */\n      tag_278\n      swap2\n      swap1\n      tag_194\n      jump\t// in\n    tag_278:\n        /* \"src/ecom/libs/DateTimeLibrary.sol\":5047:5081  minute = secs / SECONDS_PER_MINUTE */\n      swap3\n      pop\n        /* \"src/ecom/libs/DateTimeLibrary.sol\":1215:1217  60 */\n      0x3c\n        /* \"src/ecom/libs/DateTimeLibrary.sol\":5100:5104  secs */\n      dup2\n        /* \"src/ecom/libs/DateTimeLibrary.sol\":5100:5125  secs % SECONDS_PER_MINUTE */\n      tag_279\n      swap2\n      swap1\n      tag_197\n      jump\t// in\n    tag_279:\n        /* \"src/ecom/libs/DateTimeLibrary.sol\":5091:5125  second = secs % SECONDS_PER_MINUTE */\n      swap2\n      pop\n        /* \"src/ecom/libs/DateTimeLibrary.sol\":4837:5132  {... */\n      pop\n        /* \"src/ecom/libs/DateTimeLibrary.sol\":4699:5132  function timestampToDateTime(uint timestamp) internal pure returns (uint year, uint month, uint day, uint hour, uint minute, uint second) {... */\n      swap2\n      swap4\n      swap6\n      pop\n      swap2\n      swap4\n      swap6\n      jump\t// out\n        /* \"src/ecom/libs/DateTimeLibrary.sol\":6609:6756  function getDaysInMonth(uint year, uint month) internal pure returns (uint daysInMonth) {... */\n    tag_217:\n        /* \"src/ecom/libs/DateTimeLibrary.sol\":6679:6695  uint daysInMonth */\n      0x00\n        /* \"src/ecom/libs/DateTimeLibrary.sol\":6721:6749  _getDaysInMonth(year, month) */\n      tag_281\n        /* \"src/ecom/libs/DateTimeLibrary.sol\":6737:6741  year */\n      dup4\n        /* \"src/ecom/libs/DateTimeLibrary.sol\":6743:6748  month */\n      dup4\n        /* \"src/ecom/libs/DateTimeLibrary.sol\":6721:6736  _getDaysInMonth */\n      tag_282\n        /* \"src/ecom/libs/DateTimeLibrary.sol\":6721:6749  _getDaysInMonth(year, month) */\n      jump\t// in\n    tag_281:\n        /* \"src/ecom/libs/DateTimeLibrary.sol\":6707:6749  daysInMonth = _getDaysInMonth(year, month) */\n      swap1\n      pop\n        /* \"src/ecom/libs/DateTimeLibrary.sol\":6609:6756  function getDaysInMonth(uint year, uint month) internal pure returns (uint daysInMonth) {... */\n      swap3\n      swap2\n      pop\n      pop\n      jump\t// out\n        /* \"src/ecom/libs/DateTimeLibrary.sol\":4049:4226  function timestampFromDate(uint year, uint month, uint day) internal pure returns (uint timestamp) {... */\n    tag_220:\n        /* \"src/ecom/libs/DateTimeLibrary.sol\":4132:4146  uint timestamp */\n      0x00\n        /* \"src/ecom/libs/DateTimeLibrary.sol\":1072:1084  24 * 60 * 60 */\n      0x015180\n        /* \"src/ecom/libs/DateTimeLibrary.sol\":4170:4201  _daysFromDate(year, month, day) */\n      tag_284\n        /* \"src/ecom/libs/DateTimeLibrary.sol\":4184:4188  year */\n      dup6\n        /* \"src/ecom/libs/DateTimeLibrary.sol\":4190:4195  month */\n      dup6\n        /* \"src/ecom/libs/DateTimeLibrary.sol\":4197:4200  day */\n      dup6\n        /* \"src/ecom/libs/DateTimeLibrary.sol\":4170:4183  _daysFromDate */\n      tag_267\n        /* \"src/ecom/libs/DateTimeLibrary.sol\":4170:4201  _daysFromDate(year, month, day) */\n      jump\t// in\n    tag_284:\n        /* \"src/ecom/libs/DateTimeLibrary.sol\":4170:4219  _daysFromDate(year, month, day) * SECONDS_PER_DAY */\n      tag_285\n      swap2\n      swap1\n      tag_125\n      jump\t// in\n    tag_285:\n        /* \"src/ecom/libs/DateTimeLibrary.sol\":4158:4219  timestamp = _daysFromDate(year, month, day) * SECONDS_PER_DAY */\n      swap1\n      pop\n        /* \"src/ecom/libs/DateTimeLibrary.sol\":4049:4226  function timestampFromDate(uint year, uint month, uint day) internal pure returns (uint timestamp) {... */\n      swap4\n      swap3\n      pop\n      pop\n      pop\n      jump\t// out\n        /* \"src/ecom/libs/DateTimeLibrary.sol\":11219:11417  function subDays(uint timestamp, uint _days) internal pure returns (uint newTimestamp) {... */\n    tag_225:\n        /* \"src/ecom/libs/DateTimeLibrary.sol\":11287:11304  uint newTimestamp */\n      0x00\n        /* \"src/ecom/libs/DateTimeLibrary.sol\":1072:1084  24 * 60 * 60 */\n      0x015180\n        /* \"src/ecom/libs/DateTimeLibrary.sol\":11343:11348  _days */\n      dup3\n        /* \"src/ecom/libs/DateTimeLibrary.sol\":11343:11366  _days * SECONDS_PER_DAY */\n      tag_287\n      swap2\n      swap1\n      tag_125\n      jump\t// in\n    tag_287:\n        /* \"src/ecom/libs/DateTimeLibrary.sol\":11331:11340  timestamp */\n      dup4\n        /* \"src/ecom/libs/DateTimeLibrary.sol\":11331:11366  timestamp - _days * SECONDS_PER_DAY */\n      tag_288\n      swap2\n      swap1\n      tag_141\n      jump\t// in\n    tag_288:\n        /* \"src/ecom/libs/DateTimeLibrary.sol\":11316:11366  newTimestamp = timestamp - _days * SECONDS_PER_DAY */\n      swap1\n      pop\n        /* \"src/ecom/libs/DateTimeLibrary.sol\":11400:11409  timestamp */\n      dup3\n        /* \"src/ecom/libs/DateTimeLibrary.sol\":11384:11396  newTimestamp */\n      dup2\n        /* \"src/ecom/libs/DateTimeLibrary.sol\":11384:11409  newTimestamp <= timestamp */\n      gt\n      iszero\n        /* \"src/ecom/libs/DateTimeLibrary.sol\":11376:11410  require(newTimestamp <= timestamp) */\n      tag_289\n      jumpi\n      0x00\n      dup1\n      revert\n    tag_289:\n        /* \"src/ecom/libs/DateTimeLibrary.sol\":11219:11417  function subDays(uint timestamp, uint _days) internal pure returns (uint newTimestamp) {... */\n      swap3\n      swap2\n      pop\n      pop\n      jump\t// out\n        /* \"src/ecom/libs/DateTimeLibrary.sol\":7179:7354  function getDayOfWeek(uint timestamp) internal pure returns (uint dayOfWeek) {... */\n    tag_241:\n        /* \"src/ecom/libs/DateTimeLibrary.sol\":7240:7254  uint dayOfWeek */\n      0x00\n        /* \"src/ecom/libs/DateTimeLibrary.sol\":7266:7276  uint _days */\n      dup1\n        /* \"src/ecom/libs/DateTimeLibrary.sol\":1072:1084  24 * 60 * 60 */\n      0x015180\n        /* \"src/ecom/libs/DateTimeLibrary.sol\":7279:7288  timestamp */\n      dup4\n        /* \"src/ecom/libs/DateTimeLibrary.sol\":7279:7306  timestamp / SECONDS_PER_DAY */\n      tag_291\n      swap2\n      swap1\n      tag_194\n      jump\t// in\n    tag_291:\n        /* \"src/ecom/libs/DateTimeLibrary.sol\":7266:7306  uint _days = timestamp / SECONDS_PER_DAY */\n      swap1\n      pop\n        /* \"src/ecom/libs/DateTimeLibrary.sol\":7346:7347  1 */\n      0x01\n        /* \"src/ecom/libs/DateTimeLibrary.sol\":7342:7343  7 */\n      0x07\n        /* \"src/ecom/libs/DateTimeLibrary.sol\":7337:7338  3 */\n      0x03\n        /* \"src/ecom/libs/DateTimeLibrary.sol\":7329:7334  _days */\n      dup4\n        /* \"src/ecom/libs/DateTimeLibrary.sol\":7329:7338  _days + 3 */\n      tag_292\n      swap2\n      swap1\n      tag_128\n      jump\t// in\n    tag_292:\n        /* \"src/ecom/libs/DateTimeLibrary.sol\":7328:7343  (_days + 3) % 7 */\n      tag_293\n      swap2\n      swap1\n      tag_197\n      jump\t// in\n    tag_293:\n        /* \"src/ecom/libs/DateTimeLibrary.sol\":7328:7347  (_days + 3) % 7 + 1 */\n      tag_294\n      swap2\n      swap1\n      tag_128\n      jump\t// in\n    tag_294:\n        /* \"src/ecom/libs/DateTimeLibrary.sol\":7316:7347  dayOfWeek = (_days + 3) % 7 + 1 */\n      swap2\n      pop\n        /* \"src/ecom/libs/DateTimeLibrary.sol\":7256:7354  {... */\n      pop\n        /* \"src/ecom/libs/DateTimeLibrary.sol\":7179:7354  function getDayOfWeek(uint timestamp) internal pure returns (uint dayOfWeek) {... */\n      swap2\n      swap1\n      pop\n      jump\t// out\n        /* \"@openzeppelin/contracts@v4.9.0/utils/math/Math.sol\":10139:11055  function log10(uint256 value) internal pure returns (uint256) {... */\n    tag_244:\n        /* \"@openzeppelin/contracts@v4.9.0/utils/math/Math.sol\":10192:10199  uint256 */\n      0x00\n        /* \"@openzeppelin/contracts@v4.9.0/utils/math/Math.sol\":10211:10225  uint256 result */\n      dup1\n        /* \"@openzeppelin/contracts@v4.9.0/utils/math/Math.sol\":10228:10229  0 */\n      0x00\n        /* \"@openzeppelin/contracts@v4.9.0/utils/math/Math.sol\":10211:10229  uint256 result = 0 */\n      swap1\n      pop\n        /* \"@openzeppelin/contracts@v4.9.0/utils/math/Math.sol\":10276:10284  10 ** 64 */\n      0x184f03e93ff9f4daa797ed6e38ed64bf6a1f010000000000000000\n        /* \"@openzeppelin/contracts@v4.9.0/utils/math/Math.sol\":10267:10272  value */\n      dup4\n        /* \"@openzeppelin/contracts@v4.9.0/utils/math/Math.sol\":10267:10284  value >= 10 ** 64 */\n      lt\n        /* \"@openzeppelin/contracts@v4.9.0/utils/math/Math.sol\":10263:10366  if (value >= 10 ** 64) {... */\n      tag_296\n      jumpi\n        /* \"@openzeppelin/contracts@v4.9.0/utils/math/Math.sol\":10313:10321  10 ** 64 */\n      0x184f03e93ff9f4daa797ed6e38ed64bf6a1f010000000000000000\n        /* \"@openzeppelin/contracts@v4.9.0/utils/math/Math.sol\":10304:10321  value /= 10 ** 64 */\n      dup4\n      dup2\n      tag_297\n      jumpi\n      tag_298\n      tag_253\n      jump\t// in\n    tag_298:\n    tag_297:\n      div\n      swap3\n      pop\n        /* \"@openzeppelin/contracts@v4.9.0/utils/math/Math.sol\":10349:10351  64 */\n      0x40\n        /* \"@openzeppelin/contracts@v4.9.0/utils/math/Math.sol\":10339:10351  result += 64 */\n      dup2\n      add\n      swap1\n      pop\n        /* \"@openzeppelin/contracts@v4.9.0/utils/math/Math.sol\":10263:10366  if (value >= 10 ** 64) {... */\n    tag_296:\n        /* \"@openzeppelin/contracts@v4.9.0/utils/math/Math.sol\":10392:10400  10 ** 32 */\n      0x04ee2d6d415b85acef8100000000\n        /* \"@openzeppelin/contracts@v4.9.0/utils/math/Math.sol\":10383:10388  value */\n      dup4\n        /* \"@openzeppelin/contracts@v4.9.0/utils/math/Math.sol\":10383:10400  value >= 10 ** 32 */\n      lt\n        /* \"@openzeppelin/contracts@v4.9.0/utils/math/Math.sol\":10379:10482  if (value >= 10 ** 32) {... */\n      tag_299\n      jumpi\n        /* \"@openzeppelin/contracts@v4.9.0/utils/math/Math.sol\":10429:10437  10 ** 32 */\n      0x04ee2d6d415b85acef8100000000\n        /* \"@openzeppelin/contracts@v4.9.0/utils/math/Math.sol\":10420:10437  value /= 10 ** 32 */\n      dup4\n      dup2\n      tag_300\n      jumpi\n      tag_301\n      tag_253\n      jump\t// in\n    tag_301:\n    tag_300:\n      div\n      swap3\n      pop\n        /* \"@openzeppelin/contracts@v4.9.0/utils/math/Math.sol\":10465:10467  32 */\n      0x20\n        /* \"@openzeppelin/contracts@v4.9.0/utils/math/Math.sol\":10455:10467  result += 32 */\n      dup2\n      add\n      swap1\n      pop\n        /* \"@openzeppelin/contracts@v4.9.0/utils/math/Math.sol\":10379:10482  if (value >= 10 ** 32) {... */\n    tag_299:\n        /* \"@openzeppelin/contracts@v4.9.0/utils/math/Math.sol\":10508:10516  10 ** 16 */\n      0x2386f26fc10000\n        /* \"@openzeppelin/contracts@v4.9.0/utils/math/Math.sol\":10499:10504  value */\n      dup4\n        /* \"@openzeppelin/contracts@v4.9.0/utils/math/Math.sol\":10499:10516  value >= 10 ** 16 */\n      lt\n        /* \"@openzeppelin/contracts@v4.9.0/utils/math/Math.sol\":10495:10598  if (value >= 10 ** 16) {... */\n      tag_302\n      jumpi\n        /* \"@openzeppelin/contracts@v4.9.0/utils/math/Math.sol\":10545:10553  10 ** 16 */\n      0x2386f26fc10000\n        /* \"@openzeppelin/contracts@v4.9.0/utils/math/Math.sol\":10536:10553  value /= 10 ** 16 */\n      dup4\n      dup2\n      tag_303\n      jumpi\n      tag_304\n      tag_253\n      jump\t// in\n    tag_304:\n    tag_303:\n      div\n      swap3\n      pop\n        /* \"@openzeppelin/contracts@v4.9.0/utils/math/Math.sol\":10581:10583  16 */\n      0x10\n        /* \"@openzeppelin/contracts@v4.9.0/utils/math/Math.sol\":10571:10583  result += 16 */\n      dup2\n      add\n      swap1\n      pop\n        /* \"@openzeppelin/contracts@v4.9.0/utils/math/Math.sol\":10495:10598  if (value >= 10 ** 16) {... */\n    tag_302:\n        /* \"@openzeppelin/contracts@v4.9.0/utils/math/Math.sol\":10624:10631  10 ** 8 */\n      0x05f5e100\n        /* \"@openzeppelin/contracts@v4.9.0/utils/math/Math.sol\":10615:10620  value */\n      dup4\n        /* \"@openzeppelin/contracts@v4.9.0/utils/math/Math.sol\":10615:10631  value >= 10 ** 8 */\n      lt\n        /* \"@openzeppelin/contracts@v4.9.0/utils/math/Math.sol\":10611:10711  if (value >= 10 ** 8) {... */\n      tag_305\n      jumpi\n        /* \"@openzeppelin/contracts@v4.9.0/utils/math/Math.sol\":10660:10667  10 ** 8 */\n      0x05f5e100\n        /* \"@openzeppelin/contracts@v4.9.0/utils/math/Math.sol\":10651:10667  value /= 10 ** 8 */\n      dup4\n      dup2\n      tag_306\n      jumpi\n      tag_307\n      tag_253\n      jump\t// in\n    tag_307:\n    tag_306:\n      div\n      swap3\n      pop\n        /* \"@openzeppelin/contracts@v4.9.0/utils/math/Math.sol\":10695:10696  8 */\n      0x08\n        /* \"@openzeppelin/contracts@v4.9.0/utils/math/Math.sol\":10685:10696  result += 8 */\n      dup2\n      add\n      swap1\n      pop\n        /* \"@openzeppelin/contracts@v4.9.0/utils/math/Math.sol\":10611:10711  if (value >= 10 ** 8) {... */\n    tag_305:\n        /* \"@openzeppelin/contracts@v4.9.0/utils/math/Math.sol\":10737:10744  10 ** 4 */\n      0x2710\n        /* \"@openzeppelin/contracts@v4.9.0/utils/math/Math.sol\":10728:10733  value */\n      dup4\n        /* \"@openzeppelin/contracts@v4.9.0/utils/math/Math.sol\":10728:10744  value >= 10 ** 4 */\n      lt\n        /* \"@openzeppelin/contracts@v4.9.0/utils/math/Math.sol\":10724:10824  if (value >= 10 ** 4) {... */\n      tag_308\n      jumpi\n        /* \"@openzeppelin/contracts@v4.9.0/utils/math/Math.sol\":10773:10780  10 ** 4 */\n      0x2710\n        /* \"@openzeppelin/contracts@v4.9.0/utils/math/Math.sol\":10764:10780  value /= 10 ** 4 */\n      dup4\n      dup2\n      tag_309\n      jumpi\n      tag_310\n      tag_253\n      jump\t// in\n    tag_310:\n    tag_309:\n      div\n      swap3\n      pop\n        /* \"@openzeppelin/contracts@v4.9.0/utils/math/Math.sol\":10808:10809  4 */\n      0x04\n        /* \"@openzeppelin/contracts@v4.9.0/utils/math/Math.sol\":10798:10809  result += 4 */\n      dup2\n      add\n      swap1\n      pop\n        /* \"@openzeppelin/contracts@v4.9.0/utils/math/Math.sol\":10724:10824  if (value >= 10 ** 4) {... */\n    tag_308:\n        /* \"@openzeppelin/contracts@v4.9.0/utils/math/Math.sol\":10850:10857  10 ** 2 */\n      0x64\n        /* \"@openzeppelin/contracts@v4.9.0/utils/math/Math.sol\":10841:10846  value */\n      dup4\n        /* \"@openzeppelin/contracts@v4.9.0/utils/math/Math.sol\":10841:10857  value >= 10 ** 2 */\n      lt\n        /* \"@openzeppelin/contracts@v4.9.0/utils/math/Math.sol\":10837:10937  if (value >= 10 ** 2) {... */\n      tag_311\n      jumpi\n        /* \"@openzeppelin/contracts@v4.9.0/utils/math/Math.sol\":10886:10893  10 ** 2 */\n      0x64\n        /* \"@openzeppelin/contracts@v4.9.0/utils/math/Math.sol\":10877:10893  value /= 10 ** 2 */\n      dup4\n      dup2\n      tag_312\n      jumpi\n      tag_313\n      tag_253\n      jump\t// in\n    tag_313:\n    tag_312:\n      div\n      swap3\n      pop\n        /* \"@openzeppelin/contracts@v4.9.0/utils/math/Math.sol\":10921:10922  2 */\n      0x02\n        /* \"@openzeppelin/contracts@v4.9.0/utils/math/Math.sol\":10911:10922  result += 2 */\n      dup2\n      add\n      swap1\n      pop\n        /* \"@openzeppelin/contracts@v4.9.0/utils/math/Math.sol\":10837:10937  if (value >= 10 ** 2) {... */\n    tag_311:\n        /* \"@openzeppelin/contracts@v4.9.0/utils/math/Math.sol\":10963:10970  10 ** 1 */\n      0x0a\n        /* \"@openzeppelin/contracts@v4.9.0/utils/math/Math.sol\":10954:10959  value */\n      dup4\n        /* \"@openzeppelin/contracts@v4.9.0/utils/math/Math.sol\":10954:10970  value >= 10 ** 1 */\n      lt\n        /* \"@openzeppelin/contracts@v4.9.0/utils/math/Math.sol\":10950:11016  if (value >= 10 ** 1) {... */\n      tag_314\n      jumpi\n        /* \"@openzeppelin/contracts@v4.9.0/utils/math/Math.sol\":11000:11001  1 */\n      0x01\n        /* \"@openzeppelin/contracts@v4.9.0/utils/math/Math.sol\":10990:11001  result += 1 */\n      dup2\n      add\n      swap1\n      pop\n        /* \"@openzeppelin/contracts@v4.9.0/utils/math/Math.sol\":10950:11016  if (value >= 10 ** 1) {... */\n    tag_314:\n        /* \"@openzeppelin/contracts@v4.9.0/utils/math/Math.sol\":11042:11048  result */\n      dup1\n        /* \"@openzeppelin/contracts@v4.9.0/utils/math/Math.sol\":11035:11048  return result */\n      swap2\n      pop\n      pop\n        /* \"@openzeppelin/contracts@v4.9.0/utils/math/Math.sol\":10139:11055  function log10(uint256 value) internal pure returns (uint256) {... */\n      swap2\n      swap1\n      pop\n      jump\t// out\n        /* \"src/ecom/libs/DateTimeLibrary.sol\":3438:4043  function _daysToDate(uint _days) internal pure returns (uint year, uint month, uint day) {... */\n    tag_262:\n        /* \"src/ecom/libs/DateTimeLibrary.sol\":3494:3503  uint year */\n      0x00\n        /* \"src/ecom/libs/DateTimeLibrary.sol\":3505:3515  uint month */\n      dup1\n        /* \"src/ecom/libs/DateTimeLibrary.sol\":3517:3525  uint day */\n      0x00\n        /* \"src/ecom/libs/DateTimeLibrary.sol\":3537:3547  int __days */\n      dup1\n        /* \"src/ecom/libs/DateTimeLibrary.sol\":3554:3559  _days */\n      dup5\n        /* \"src/ecom/libs/DateTimeLibrary.sol\":3537:3560  int __days = int(_days) */\n      swap1\n      pop\n        /* \"src/ecom/libs/DateTimeLibrary.sol\":3571:3576  int L */\n      0x00\n        /* \"src/ecom/libs/DateTimeLibrary.sol\":1253:1260  2440588 */\n      0x253d8c\n        /* \"src/ecom/libs/DateTimeLibrary.sol\":3588:3593  68569 */\n      0x010bd9\n        /* \"src/ecom/libs/DateTimeLibrary.sol\":3579:3585  __days */\n      dup4\n        /* \"src/ecom/libs/DateTimeLibrary.sol\":3579:3593  __days + 68569 */\n      tag_316\n      swap2\n      swap1\n      tag_154\n      jump\t// in\n    tag_316:\n        /* \"src/ecom/libs/DateTimeLibrary.sol\":3579:3610  __days + 68569 + OFFSET19700101 */\n      tag_317\n      swap2\n      swap1\n      tag_154\n      jump\t// in\n    tag_317:\n        /* \"src/ecom/libs/DateTimeLibrary.sol\":3571:3610  int L = __days + 68569 + OFFSET19700101 */\n      swap1\n      pop\n        /* \"src/ecom/libs/DateTimeLibrary.sol\":3620:3625  int N */\n      0x00\n        /* \"src/ecom/libs/DateTimeLibrary.sol\":3636:3642  146097 */\n      0x023ab1\n        /* \"src/ecom/libs/DateTimeLibrary.sol\":3632:3633  L */\n      dup3\n        /* \"src/ecom/libs/DateTimeLibrary.sol\":3628:3629  4 */\n      0x04\n        /* \"src/ecom/libs/DateTimeLibrary.sol\":3628:3633  4 * L */\n      tag_318\n      swap2\n      swap1\n      tag_152\n      jump\t// in\n    tag_318:\n        /* \"src/ecom/libs/DateTimeLibrary.sol\":3628:3642  4 * L / 146097 */\n      tag_319\n      swap2\n      swap1\n      tag_320\n      jump\t// in\n    tag_319:\n        /* \"src/ecom/libs/DateTimeLibrary.sol\":3620:3642  int N = 4 * L / 146097 */\n      swap1\n      pop\n        /* \"src/ecom/libs/DateTimeLibrary.sol\":3679:3680  4 */\n      0x04\n        /* \"src/ecom/libs/DateTimeLibrary.sol\":3674:3675  3 */\n      0x03\n        /* \"src/ecom/libs/DateTimeLibrary.sol\":3670:3671  N */\n      dup3\n        /* \"src/ecom/libs/DateTimeLibrary.sol\":3661:3667  146097 */\n      0x023ab1\n        /* \"src/ecom/libs/DateTimeLibrary.sol\":3661:3671  146097 * N */\n      tag_321\n      swap2\n      swap1\n      tag_152\n      jump\t// in\n    tag_321:\n        /* \"src/ecom/libs/DateTimeLibrary.sol\":3661:3675  146097 * N + 3 */\n      tag_322\n      swap2\n      swap1\n      tag_154\n      jump\t// in\n    tag_322:\n        /* \"src/ecom/libs/DateTimeLibrary.sol\":3660:3680  (146097 * N + 3) / 4 */\n      tag_323\n      swap2\n      swap1\n      tag_320\n      jump\t// in\n    tag_323:\n        /* \"src/ecom/libs/DateTimeLibrary.sol\":3656:3657  L */\n      dup3\n        /* \"src/ecom/libs/DateTimeLibrary.sol\":3656:3680  L - (146097 * N + 3) / 4 */\n      tag_324\n      swap2\n      swap1\n      tag_325\n      jump\t// in\n    tag_324:\n        /* \"src/ecom/libs/DateTimeLibrary.sol\":3652:3680  L = L - (146097 * N + 3) / 4 */\n      swap2\n      pop\n        /* \"src/ecom/libs/DateTimeLibrary.sol\":3690:3699  int _year */\n      0x00\n        /* \"src/ecom/libs/DateTimeLibrary.sol\":3719:3726  1461001 */\n      0x164b09\n        /* \"src/ecom/libs/DateTimeLibrary.sol\":3714:3715  1 */\n      0x01\n        /* \"src/ecom/libs/DateTimeLibrary.sol\":3710:3711  L */\n      dup5\n        /* \"src/ecom/libs/DateTimeLibrary.sol\":3710:3715  L + 1 */\n      tag_326\n      swap2\n      swap1\n      tag_154\n      jump\t// in\n    tag_326:\n        /* \"src/ecom/libs/DateTimeLibrary.sol\":3702:3706  4000 */\n      0x0fa0\n        /* \"src/ecom/libs/DateTimeLibrary.sol\":3702:3716  4000 * (L + 1) */\n      tag_327\n      swap2\n      swap1\n      tag_152\n      jump\t// in\n    tag_327:\n        /* \"src/ecom/libs/DateTimeLibrary.sol\":3702:3726  4000 * (L + 1) / 1461001 */\n      tag_328\n      swap2\n      swap1\n      tag_320\n      jump\t// in\n    tag_328:\n        /* \"src/ecom/libs/DateTimeLibrary.sol\":3690:3726  int _year = 4000 * (L + 1) / 1461001 */\n      swap1\n      pop\n        /* \"src/ecom/libs/DateTimeLibrary.sol\":3763:3765  31 */\n      0x1f\n        /* \"src/ecom/libs/DateTimeLibrary.sol\":3759:3760  4 */\n      0x04\n        /* \"src/ecom/libs/DateTimeLibrary.sol\":3751:3756  _year */\n      dup3\n        /* \"src/ecom/libs/DateTimeLibrary.sol\":3744:3748  1461 */\n      0x05b5\n        /* \"src/ecom/libs/DateTimeLibrary.sol\":3744:3756  1461 * _year */\n      tag_329\n      swap2\n      swap1\n      tag_152\n      jump\t// in\n    tag_329:\n        /* \"src/ecom/libs/DateTimeLibrary.sol\":3744:3760  1461 * _year / 4 */\n      tag_330\n      swap2\n      swap1\n      tag_320\n      jump\t// in\n    tag_330:\n        /* \"src/ecom/libs/DateTimeLibrary.sol\":3740:3741  L */\n      dup5\n        /* \"src/ecom/libs/DateTimeLibrary.sol\":3740:3760  L - 1461 * _year / 4 */\n      tag_331\n      swap2\n      swap1\n      tag_325\n      jump\t// in\n    tag_331:\n        /* \"src/ecom/libs/DateTimeLibrary.sol\":3740:3765  L - 1461 * _year / 4 + 31 */\n      tag_332\n      swap2\n      swap1\n      tag_154\n      jump\t// in\n    tag_332:\n        /* \"src/ecom/libs/DateTimeLibrary.sol\":3736:3765  L = L - 1461 * _year / 4 + 31 */\n      swap3\n      pop\n        /* \"src/ecom/libs/DateTimeLibrary.sol\":3775:3785  int _month */\n      0x00\n        /* \"src/ecom/libs/DateTimeLibrary.sol\":3797:3801  2447 */\n      0x098f\n        /* \"src/ecom/libs/DateTimeLibrary.sol\":3793:3794  L */\n      dup5\n        /* \"src/ecom/libs/DateTimeLibrary.sol\":3788:3790  80 */\n      0x50\n        /* \"src/ecom/libs/DateTimeLibrary.sol\":3788:3794  80 * L */\n      tag_333\n      swap2\n      swap1\n      tag_152\n      jump\t// in\n    tag_333:\n        /* \"src/ecom/libs/DateTimeLibrary.sol\":3788:3801  80 * L / 2447 */\n      tag_334\n      swap2\n      swap1\n      tag_320\n      jump\t// in\n    tag_334:\n        /* \"src/ecom/libs/DateTimeLibrary.sol\":3775:3801  int _month = 80 * L / 2447 */\n      swap1\n      pop\n        /* \"src/ecom/libs/DateTimeLibrary.sol\":3811:3819  int _day */\n      0x00\n        /* \"src/ecom/libs/DateTimeLibrary.sol\":3842:3844  80 */\n      0x50\n        /* \"src/ecom/libs/DateTimeLibrary.sol\":3833:3839  _month */\n      dup3\n        /* \"src/ecom/libs/DateTimeLibrary.sol\":3826:3830  2447 */\n      0x098f\n        /* \"src/ecom/libs/DateTimeLibrary.sol\":3826:3839  2447 * _month */\n      tag_335\n      swap2\n      swap1\n      tag_152\n      jump\t// in\n    tag_335:\n        /* \"src/ecom/libs/DateTimeLibrary.sol\":3826:3844  2447 * _month / 80 */\n      tag_336\n      swap2\n      swap1\n      tag_320\n      jump\t// in\n    tag_336:\n        /* \"src/ecom/libs/DateTimeLibrary.sol\":3822:3823  L */\n      dup6\n        /* \"src/ecom/libs/DateTimeLibrary.sol\":3822:3844  L - 2447 * _month / 80 */\n      tag_337\n      swap2\n      swap1\n      tag_325\n      jump\t// in\n    tag_337:\n        /* \"src/ecom/libs/DateTimeLibrary.sol\":3811:3844  int _day = L - 2447 * _month / 80 */\n      swap1\n      pop\n        /* \"src/ecom/libs/DateTimeLibrary.sol\":3867:3869  11 */\n      0x0b\n        /* \"src/ecom/libs/DateTimeLibrary.sol\":3858:3864  _month */\n      dup3\n        /* \"src/ecom/libs/DateTimeLibrary.sol\":3858:3869  _month / 11 */\n      tag_338\n      swap2\n      swap1\n      tag_320\n      jump\t// in\n    tag_338:\n        /* \"src/ecom/libs/DateTimeLibrary.sol\":3854:3869  L = _month / 11 */\n      swap5\n      pop\n        /* \"src/ecom/libs/DateTimeLibrary.sol\":3906:3907  L */\n      dup5\n        /* \"src/ecom/libs/DateTimeLibrary.sol\":3901:3903  12 */\n      0x0c\n        /* \"src/ecom/libs/DateTimeLibrary.sol\":3901:3907  12 * L */\n      tag_339\n      swap2\n      swap1\n      tag_152\n      jump\t// in\n    tag_339:\n        /* \"src/ecom/libs/DateTimeLibrary.sol\":3897:3898  2 */\n      0x02\n        /* \"src/ecom/libs/DateTimeLibrary.sol\":3888:3894  _month */\n      dup4\n        /* \"src/ecom/libs/DateTimeLibrary.sol\":3888:3898  _month + 2 */\n      tag_340\n      swap2\n      swap1\n      tag_154\n      jump\t// in\n    tag_340:\n        /* \"src/ecom/libs/DateTimeLibrary.sol\":3888:3907  _month + 2 - 12 * L */\n      tag_341\n      swap2\n      swap1\n      tag_325\n      jump\t// in\n    tag_341:\n        /* \"src/ecom/libs/DateTimeLibrary.sol\":3879:3907  _month = _month + 2 - 12 * L */\n      swap2\n      pop\n        /* \"src/ecom/libs/DateTimeLibrary.sol\":3950:3951  L */\n      dup5\n        /* \"src/ecom/libs/DateTimeLibrary.sol\":3942:3947  _year */\n      dup4\n        /* \"src/ecom/libs/DateTimeLibrary.sol\":3936:3938  49 */\n      0x31\n        /* \"src/ecom/libs/DateTimeLibrary.sol\":3932:3933  N */\n      dup7\n        /* \"src/ecom/libs/DateTimeLibrary.sol\":3932:3938  N - 49 */\n      tag_342\n      swap2\n      swap1\n      tag_325\n      jump\t// in\n    tag_342:\n        /* \"src/ecom/libs/DateTimeLibrary.sol\":3925:3928  100 */\n      0x64\n        /* \"src/ecom/libs/DateTimeLibrary.sol\":3925:3939  100 * (N - 49) */\n      tag_343\n      swap2\n      swap1\n      tag_152\n      jump\t// in\n    tag_343:\n        /* \"src/ecom/libs/DateTimeLibrary.sol\":3925:3947  100 * (N - 49) + _year */\n      tag_344\n      swap2\n      swap1\n      tag_154\n      jump\t// in\n    tag_344:\n        /* \"src/ecom/libs/DateTimeLibrary.sol\":3925:3951  100 * (N - 49) + _year + L */\n      tag_345\n      swap2\n      swap1\n      tag_154\n      jump\t// in\n    tag_345:\n        /* \"src/ecom/libs/DateTimeLibrary.sol\":3917:3951  _year = 100 * (N - 49) + _year + L */\n      swap3\n      pop\n        /* \"src/ecom/libs/DateTimeLibrary.sol\":3974:3979  _year */\n      dup3\n        /* \"src/ecom/libs/DateTimeLibrary.sol\":3962:3980  year = uint(_year) */\n      swap9\n      pop\n        /* \"src/ecom/libs/DateTimeLibrary.sol\":4003:4009  _month */\n      dup2\n        /* \"src/ecom/libs/DateTimeLibrary.sol\":3990:4010  month = uint(_month) */\n      swap8\n      pop\n        /* \"src/ecom/libs/DateTimeLibrary.sol\":4031:4035  _day */\n      dup1\n        /* \"src/ecom/libs/DateTimeLibrary.sol\":4020:4036  day = uint(_day) */\n      swap7\n      pop\n        /* \"src/ecom/libs/DateTimeLibrary.sol\":3527:4043  {... */\n      pop\n      pop\n      pop\n      pop\n      pop\n      pop\n        /* \"src/ecom/libs/DateTimeLibrary.sol\":3438:4043  function _daysToDate(uint _days) internal pure returns (uint year, uint month, uint day) {... */\n      swap2\n      swap4\n      swap1\n      swap3\n      pop\n      jump\t// out\n        /* \"src/ecom/libs/DateTimeLibrary.sol\":2174:2685  function _daysFromDate(uint year, uint month, uint day) internal pure returns (uint _days) {... */\n    tag_267:\n        /* \"src/ecom/libs/DateTimeLibrary.sol\":2253:2263  uint _days */\n      0x00\n        /* \"src/ecom/libs/DateTimeLibrary.sol\":2291:2295  1970 */\n      0x07b2\n        /* \"src/ecom/libs/DateTimeLibrary.sol\":2283:2287  year */\n      dup5\n        /* \"src/ecom/libs/DateTimeLibrary.sol\":2283:2295  year >= 1970 */\n      lt\n      iszero\n        /* \"src/ecom/libs/DateTimeLibrary.sol\":2275:2296  require(year >= 1970) */\n      tag_347\n      jumpi\n      0x00\n      dup1\n      revert\n    tag_347:\n        /* \"src/ecom/libs/DateTimeLibrary.sol\":2306:2315  int _year */\n      0x00\n        /* \"src/ecom/libs/DateTimeLibrary.sol\":2322:2326  year */\n      dup5\n        /* \"src/ecom/libs/DateTimeLibrary.sol\":2306:2327  int _year = int(year) */\n      swap1\n      pop\n        /* \"src/ecom/libs/DateTimeLibrary.sol\":2337:2347  int _month */\n      0x00\n        /* \"src/ecom/libs/DateTimeLibrary.sol\":2354:2359  month */\n      dup5\n        /* \"src/ecom/libs/DateTimeLibrary.sol\":2337:2360  int _month = int(month) */\n      swap1\n      pop\n        /* \"src/ecom/libs/DateTimeLibrary.sol\":2370:2378  int _day */\n      0x00\n        /* \"src/ecom/libs/DateTimeLibrary.sol\":2385:2388  day */\n      dup5\n        /* \"src/ecom/libs/DateTimeLibrary.sol\":2370:2389  int _day = int(day) */\n      swap1\n      pop\n        /* \"src/ecom/libs/DateTimeLibrary.sol\":2400:2410  int __days */\n      0x00\n        /* \"src/ecom/libs/DateTimeLibrary.sol\":1253:1260  2440588 */\n      0x253d8c\n        /* \"src/ecom/libs/DateTimeLibrary.sol\":2619:2620  4 */\n      0x04\n        /* \"src/ecom/libs/DateTimeLibrary.sol\":2612:2615  100 */\n      0x64\n        /* \"src/ecom/libs/DateTimeLibrary.sol\":2606:2608  12 */\n      0x0c\n        /* \"src/ecom/libs/DateTimeLibrary.sol\":2600:2602  14 */\n      0x0e\n        /* \"src/ecom/libs/DateTimeLibrary.sol\":2591:2597  _month */\n      dup8\n        /* \"src/ecom/libs/DateTimeLibrary.sol\":2591:2602  _month - 14 */\n      tag_348\n      swap2\n      swap1\n      tag_325\n      jump\t// in\n    tag_348:\n        /* \"src/ecom/libs/DateTimeLibrary.sol\":2590:2608  (_month - 14) / 12 */\n      tag_349\n      swap2\n      swap1\n      tag_320\n      jump\t// in\n    tag_349:\n        /* \"src/ecom/libs/DateTimeLibrary.sol\":2583:2587  4900 */\n      0x1324\n        /* \"src/ecom/libs/DateTimeLibrary.sol\":2575:2580  _year */\n      dup9\n        /* \"src/ecom/libs/DateTimeLibrary.sol\":2575:2587  _year + 4900 */\n      tag_350\n      swap2\n      swap1\n      tag_154\n      jump\t// in\n    tag_350:\n        /* \"src/ecom/libs/DateTimeLibrary.sol\":2575:2608  _year + 4900 + (_month - 14) / 12 */\n      tag_351\n      swap2\n      swap1\n      tag_154\n      jump\t// in\n    tag_351:\n        /* \"src/ecom/libs/DateTimeLibrary.sol\":2574:2615  (_year + 4900 + (_month - 14) / 12) / 100 */\n      tag_352\n      swap2\n      swap1\n      tag_320\n      jump\t// in\n    tag_352:\n        /* \"src/ecom/libs/DateTimeLibrary.sol\":2569:2570  3 */\n      0x03\n        /* \"src/ecom/libs/DateTimeLibrary.sol\":2569:2616  3 * ((_year + 4900 + (_month - 14) / 12) / 100) */\n      tag_353\n      swap2\n      swap1\n      tag_152\n      jump\t// in\n    tag_353:\n        /* \"src/ecom/libs/DateTimeLibrary.sol\":2569:2620  3 * ((_year + 4900 + (_month - 14) / 12) / 100) / 4 */\n      tag_354\n      swap2\n      swap1\n      tag_320\n      jump\t// in\n    tag_354:\n        /* \"src/ecom/libs/DateTimeLibrary.sol\":2554:2556  12 */\n      0x0c\n        /* \"src/ecom/libs/DateTimeLibrary.sol\":2548:2550  12 */\n      dup1\n        /* \"src/ecom/libs/DateTimeLibrary.sol\":2543:2545  12 */\n      0x0c\n        /* \"src/ecom/libs/DateTimeLibrary.sol\":2537:2539  14 */\n      0x0e\n        /* \"src/ecom/libs/DateTimeLibrary.sol\":2528:2534  _month */\n      dup9\n        /* \"src/ecom/libs/DateTimeLibrary.sol\":2528:2539  _month - 14 */\n      tag_355\n      swap2\n      swap1\n      tag_325\n      jump\t// in\n    tag_355:\n        /* \"src/ecom/libs/DateTimeLibrary.sol\":2527:2545  (_month - 14) / 12 */\n      tag_356\n      swap2\n      swap1\n      tag_320\n      jump\t// in\n    tag_356:\n        /* \"src/ecom/libs/DateTimeLibrary.sol\":2527:2550  (_month - 14) / 12 * 12 */\n      tag_357\n      swap2\n      swap1\n      tag_152\n      jump\t// in\n    tag_357:\n        /* \"src/ecom/libs/DateTimeLibrary.sol\":2523:2524  2 */\n      0x02\n        /* \"src/ecom/libs/DateTimeLibrary.sol\":2514:2520  _month */\n      dup8\n        /* \"src/ecom/libs/DateTimeLibrary.sol\":2514:2524  _month - 2 */\n      tag_358\n      swap2\n      swap1\n      tag_325\n      jump\t// in\n    tag_358:\n        /* \"src/ecom/libs/DateTimeLibrary.sol\":2514:2550  _month - 2 - (_month - 14) / 12 * 12 */\n      tag_359\n      swap2\n      swap1\n      tag_325\n      jump\t// in\n    tag_359:\n        /* \"src/ecom/libs/DateTimeLibrary.sol\":2507:2510  367 */\n      0x016f\n        /* \"src/ecom/libs/DateTimeLibrary.sol\":2507:2551  367 * (_month - 2 - (_month - 14) / 12 * 12) */\n      tag_360\n      swap2\n      swap1\n      tag_152\n      jump\t// in\n    tag_360:\n        /* \"src/ecom/libs/DateTimeLibrary.sol\":2507:2556  367 * (_month - 2 - (_month - 14) / 12 * 12) / 12 */\n      tag_361\n      swap2\n      swap1\n      tag_320\n      jump\t// in\n    tag_361:\n        /* \"src/ecom/libs/DateTimeLibrary.sol\":2493:2494  4 */\n      0x04\n        /* \"src/ecom/libs/DateTimeLibrary.sol\":2487:2489  12 */\n      0x0c\n        /* \"src/ecom/libs/DateTimeLibrary.sol\":2481:2483  14 */\n      0x0e\n        /* \"src/ecom/libs/DateTimeLibrary.sol\":2472:2478  _month */\n      dup9\n        /* \"src/ecom/libs/DateTimeLibrary.sol\":2472:2483  _month - 14 */\n      tag_362\n      swap2\n      swap1\n      tag_325\n      jump\t// in\n    tag_362:\n        /* \"src/ecom/libs/DateTimeLibrary.sol\":2471:2489  (_month - 14) / 12 */\n      tag_363\n      swap2\n      swap1\n      tag_320\n      jump\t// in\n    tag_363:\n        /* \"src/ecom/libs/DateTimeLibrary.sol\":2464:2468  4800 */\n      0x12c0\n        /* \"src/ecom/libs/DateTimeLibrary.sol\":2456:2461  _year */\n      dup10\n        /* \"src/ecom/libs/DateTimeLibrary.sol\":2456:2468  _year + 4800 */\n      tag_364\n      swap2\n      swap1\n      tag_154\n      jump\t// in\n    tag_364:\n        /* \"src/ecom/libs/DateTimeLibrary.sol\":2456:2489  _year + 4800 + (_month - 14) / 12 */\n      tag_365\n      swap2\n      swap1\n      tag_154\n      jump\t// in\n    tag_365:\n        /* \"src/ecom/libs/DateTimeLibrary.sol\":2448:2452  1461 */\n      0x05b5\n        /* \"src/ecom/libs/DateTimeLibrary.sol\":2448:2490  1461 * (_year + 4800 + (_month - 14) / 12) */\n      tag_366\n      swap2\n      swap1\n      tag_152\n      jump\t// in\n    tag_366:\n        /* \"src/ecom/libs/DateTimeLibrary.sol\":2448:2494  1461 * (_year + 4800 + (_month - 14) / 12) / 4 */\n      tag_367\n      swap2\n      swap1\n      tag_320\n      jump\t// in\n    tag_367:\n        /* \"src/ecom/libs/DateTimeLibrary.sol\":2430:2435  32075 */\n      0x7d4b\n        /* \"src/ecom/libs/DateTimeLibrary.sol\":2413:2417  _day */\n      dup7\n        /* \"src/ecom/libs/DateTimeLibrary.sol\":2413:2435  _day... */\n      tag_368\n      swap2\n      swap1\n      tag_325\n      jump\t// in\n    tag_368:\n        /* \"src/ecom/libs/DateTimeLibrary.sol\":2413:2494  _day... */\n      tag_369\n      swap2\n      swap1\n      tag_154\n      jump\t// in\n    tag_369:\n        /* \"src/ecom/libs/DateTimeLibrary.sol\":2413:2556  _day... */\n      tag_370\n      swap2\n      swap1\n      tag_154\n      jump\t// in\n    tag_370:\n        /* \"src/ecom/libs/DateTimeLibrary.sol\":2413:2620  _day... */\n      tag_371\n      swap2\n      swap1\n      tag_325\n      jump\t// in\n    tag_371:\n        /* \"src/ecom/libs/DateTimeLibrary.sol\":2413:2647  _day... */\n      tag_372\n      swap2\n      swap1\n      tag_325\n      jump\t// in\n    tag_372:\n        /* \"src/ecom/libs/DateTimeLibrary.sol\":2400:2647  int __days = _day... */\n      swap1\n      pop\n        /* \"src/ecom/libs/DateTimeLibrary.sol\":2671:2677  __days */\n      dup1\n        /* \"src/ecom/libs/DateTimeLibrary.sol\":2658:2678  _days = uint(__days) */\n      swap5\n      pop\n        /* \"src/ecom/libs/DateTimeLibrary.sol\":2265:2685  {... */\n      pop\n      pop\n      pop\n      pop\n        /* \"src/ecom/libs/DateTimeLibrary.sol\":2174:2685  function _daysFromDate(uint year, uint month, uint day) internal pure returns (uint _days) {... */\n      swap4\n      swap3\n      pop\n      pop\n      pop\n      jump\t// out\n        /* \"src/ecom/libs/DateTimeLibrary.sol\":6761:7144  function _getDaysInMonth(uint year, uint month) internal pure returns (uint daysInMonth) {... */\n    tag_282:\n        /* \"src/ecom/libs/DateTimeLibrary.sol\":6832:6848  uint daysInMonth */\n      0x00\n        /* \"src/ecom/libs/DateTimeLibrary.sol\":6873:6874  1 */\n      0x01\n        /* \"src/ecom/libs/DateTimeLibrary.sol\":6864:6869  month */\n      dup3\n        /* \"src/ecom/libs/DateTimeLibrary.sol\":6864:6874  month == 1 */\n      eq\n        /* \"src/ecom/libs/DateTimeLibrary.sol\":6864:6888  month == 1 || month == 3 */\n      dup1\n      tag_374\n      jumpi\n      pop\n        /* \"src/ecom/libs/DateTimeLibrary.sol\":6887:6888  3 */\n      0x03\n        /* \"src/ecom/libs/DateTimeLibrary.sol\":6878:6883  month */\n      dup3\n        /* \"src/ecom/libs/DateTimeLibrary.sol\":6878:6888  month == 3 */\n      eq\n        /* \"src/ecom/libs/DateTimeLibrary.sol\":6864:6888  month == 1 || month == 3 */\n    tag_374:\n        /* \"src/ecom/libs/DateTimeLibrary.sol\":6864:6902  month == 1 || month == 3 || month == 5 */\n      dup1\n      tag_375\n      jumpi\n      pop\n        /* \"src/ecom/libs/DateTimeLibrary.sol\":6901:6902  5 */\n      0x05\n        /* \"src/ecom/libs/DateTimeLibrary.sol\":6892:6897  month */\n      dup3\n        /* \"src/ecom/libs/DateTimeLibrary.sol\":6892:6902  month == 5 */\n      eq\n        /* \"src/ecom/libs/DateTimeLibrary.sol\":6864:6902  month == 1 || month == 3 || month == 5 */\n    tag_375:\n        /* \"src/ecom/libs/DateTimeLibrary.sol\":6864:6916  month == 1 || month == 3 || month == 5 || month == 7 */\n      dup1\n      tag_376\n      jumpi\n      pop\n        /* \"src/ecom/libs/DateTimeLibrary.sol\":6915:6916  7 */\n      0x07\n        /* \"src/ecom/libs/DateTimeLibrary.sol\":6906:6911  month */\n      dup3\n        /* \"src/ecom/libs/DateTimeLibrary.sol\":6906:6916  month == 7 */\n      eq\n        /* \"src/ecom/libs/DateTimeLibrary.sol\":6864:6916  month == 1 || month == 3 || month == 5 || month == 7 */\n    tag_376:\n        /* \"src/ecom/libs/DateTimeLibrary.sol\":6864:6930  month == 1 || month == 3 || month == 5 || month == 7 || month == 8 */\n      dup1\n      tag_377\n      jumpi\n      pop\n        /* \"src/ecom/libs/DateTimeLibrary.sol\":6929:6930  8 */\n      0x08\n        /* \"src/ecom/libs/DateTimeLibrary.sol\":6920:6925  month */\n      dup3\n        /* \"src/ecom/libs/DateTimeLibrary.sol\":6920:6930  month == 8 */\n      eq\n        /* \"src/ecom/libs/DateTimeLibrary.sol\":6864:6930  month == 1 || month == 3 || month == 5 || month == 7 || month == 8 */\n    tag_377:\n        /* \"src/ecom/libs/DateTimeLibrary.sol\":6864:6945  month == 1 || month == 3 || month == 5 || month == 7 || month == 8 || month == 10 */\n      dup1\n      tag_378\n      jumpi\n      pop\n        /* \"src/ecom/libs/DateTimeLibrary.sol\":6943:6945  10 */\n      0x0a\n        /* \"src/ecom/libs/DateTimeLibrary.sol\":6934:6939  month */\n      dup3\n        /* \"src/ecom/libs/DateTimeLibrary.sol\":6934:6945  month == 10 */\n      eq\n        /* \"src/ecom/libs/DateTimeLibrary.sol\":6864:6945  month == 1 || month == 3 || month == 5 || month == 7 || month == 8 || month == 10 */\n    tag_378:\n        /* \"src/ecom/libs/DateTimeLibrary.sol\":6864:6960  month == 1 || month == 3 || month == 5 || month == 7 || month == 8 || month == 10 || month == 12 */\n      dup1\n      tag_379\n      jumpi\n      pop\n        /* \"src/ecom/libs/DateTimeLibrary.sol\":6958:6960  12 */\n      0x0c\n        /* \"src/ecom/libs/DateTimeLibrary.sol\":6949:6954  month */\n      dup3\n        /* \"src/ecom/libs/DateTimeLibrary.sol\":6949:6960  month == 12 */\n      eq\n        /* \"src/ecom/libs/DateTimeLibrary.sol\":6864:6960  month == 1 || month == 3 || month == 5 || month == 7 || month == 8 || month == 10 || month == 12 */\n    tag_379:\n        /* \"src/ecom/libs/DateTimeLibrary.sol\":6860:7138  if (month == 1 || month == 3 || month == 5 || month == 7 || month == 8 || month == 10 || month == 12) {... */\n      iszero\n      tag_380\n      jumpi\n        /* \"src/ecom/libs/DateTimeLibrary.sol\":6990:6992  31 */\n      0x1f\n        /* \"src/ecom/libs/DateTimeLibrary.sol\":6976:6992  daysInMonth = 31 */\n      swap1\n      pop\n        /* \"src/ecom/libs/DateTimeLibrary.sol\":6860:7138  if (month == 1 || month == 3 || month == 5 || month == 7 || month == 8 || month == 10 || month == 12) {... */\n      jump(tag_381)\n    tag_380:\n        /* \"src/ecom/libs/DateTimeLibrary.sol\":7022:7023  2 */\n      0x02\n        /* \"src/ecom/libs/DateTimeLibrary.sol\":7013:7018  month */\n      dup3\n        /* \"src/ecom/libs/DateTimeLibrary.sol\":7013:7023  month != 2 */\n      eq\n        /* \"src/ecom/libs/DateTimeLibrary.sol\":7009:7138  if (month != 2) {... */\n      tag_382\n      jumpi\n        /* \"src/ecom/libs/DateTimeLibrary.sol\":7053:7055  30 */\n      0x1e\n        /* \"src/ecom/libs/DateTimeLibrary.sol\":7039:7055  daysInMonth = 30 */\n      swap1\n      pop\n        /* \"src/ecom/libs/DateTimeLibrary.sol\":7009:7138  if (month != 2) {... */\n      jump(tag_383)\n    tag_382:\n        /* \"src/ecom/libs/DateTimeLibrary.sol\":7100:7117  _isLeapYear(year) */\n      tag_384\n        /* \"src/ecom/libs/DateTimeLibrary.sol\":7112:7116  year */\n      dup4\n        /* \"src/ecom/libs/DateTimeLibrary.sol\":7100:7111  _isLeapYear */\n      tag_385\n        /* \"src/ecom/libs/DateTimeLibrary.sol\":7100:7117  _isLeapYear(year) */\n      jump\t// in\n    tag_384:\n        /* \"src/ecom/libs/DateTimeLibrary.sol\":7100:7127  _isLeapYear(year) ? 29 : 28 */\n      tag_386\n      jumpi\n        /* \"src/ecom/libs/DateTimeLibrary.sol\":7125:7127  28 */\n      0x1c\n        /* \"src/ecom/libs/DateTimeLibrary.sol\":7100:7127  _isLeapYear(year) ? 29 : 28 */\n      jump(tag_387)\n    tag_386:\n        /* \"src/ecom/libs/DateTimeLibrary.sol\":7120:7122  29 */\n      0x1d\n        /* \"src/ecom/libs/DateTimeLibrary.sol\":7100:7127  _isLeapYear(year) ? 29 : 28 */\n    tag_387:\n        /* \"src/ecom/libs/DateTimeLibrary.sol\":7086:7127  daysInMonth = _isLeapYear(year) ? 29 : 28 */\n      0xff\n      and\n      swap1\n      pop\n        /* \"src/ecom/libs/DateTimeLibrary.sol\":7009:7138  if (month != 2) {... */\n    tag_383:\n        /* \"src/ecom/libs/DateTimeLibrary.sol\":6860:7138  if (month == 1 || month == 3 || month == 5 || month == 7 || month == 8 || month == 10 || month == 12) {... */\n    tag_381:\n        /* \"src/ecom/libs/DateTimeLibrary.sol\":6761:7144  function _getDaysInMonth(uint year, uint month) internal pure returns (uint daysInMonth) {... */\n      swap3\n      swap2\n      pop\n      pop\n      jump\t// out\n        /* \"src/ecom/libs/DateTimeLibrary.sol\":5949:6106  function _isLeapYear(uint year) internal pure returns (bool leapYear) {... */\n    tag_385:\n        /* \"src/ecom/libs/DateTimeLibrary.sol\":6004:6017  bool leapYear */\n      0x00\n        /* \"src/ecom/libs/DateTimeLibrary.sol\":6054:6055  0 */\n      dup1\n        /* \"src/ecom/libs/DateTimeLibrary.sol\":6049:6050  4 */\n      0x04\n        /* \"src/ecom/libs/DateTimeLibrary.sol\":6042:6046  year */\n      dup4\n        /* \"src/ecom/libs/DateTimeLibrary.sol\":6042:6050  year % 4 */\n      tag_389\n      swap2\n      swap1\n      tag_197\n      jump\t// in\n    tag_389:\n        /* \"src/ecom/libs/DateTimeLibrary.sol\":6042:6055  year % 4 == 0 */\n      eq\n        /* \"src/ecom/libs/DateTimeLibrary.sol\":6041:6077  (year % 4 == 0) && (year % 100 != 0) */\n      dup1\n      iszero\n      tag_390\n      jumpi\n      pop\n        /* \"src/ecom/libs/DateTimeLibrary.sol\":6075:6076  0 */\n      0x00\n        /* \"src/ecom/libs/DateTimeLibrary.sol\":6068:6071  100 */\n      0x64\n        /* \"src/ecom/libs/DateTimeLibrary.sol\":6061:6065  year */\n      dup4\n        /* \"src/ecom/libs/DateTimeLibrary.sol\":6061:6071  year % 100 */\n      tag_391\n      swap2\n      swap1\n      tag_197\n      jump\t// in\n    tag_391:\n        /* \"src/ecom/libs/DateTimeLibrary.sol\":6061:6076  year % 100 != 0 */\n      eq\n      iszero\n        /* \"src/ecom/libs/DateTimeLibrary.sol\":6041:6077  (year % 4 == 0) && (year % 100 != 0) */\n    tag_390:\n        /* \"src/ecom/libs/DateTimeLibrary.sol\":6040:6099  ((year % 4 == 0) && (year % 100 != 0)) || (year % 400 == 0) */\n      dup1\n      tag_392\n      jumpi\n      pop\n        /* \"src/ecom/libs/DateTimeLibrary.sol\":6097:6098  0 */\n      0x00\n        /* \"src/ecom/libs/DateTimeLibrary.sol\":6090:6093  400 */\n      0x0190\n        /* \"src/ecom/libs/DateTimeLibrary.sol\":6083:6087  year */\n      dup4\n        /* \"src/ecom/libs/DateTimeLibrary.sol\":6083:6093  year % 400 */\n      tag_393\n      swap2\n      swap1\n      tag_197\n      jump\t// in\n    tag_393:\n        /* \"src/ecom/libs/DateTimeLibrary.sol\":6083:6098  year % 400 == 0 */\n      eq\n        /* \"src/ecom/libs/DateTimeLibrary.sol\":6040:6099  ((year % 4 == 0) && (year % 100 != 0)) || (year % 400 == 0) */\n    tag_392:\n        /* \"src/ecom/libs/DateTimeLibrary.sol\":6029:6099  leapYear = ((year % 4 == 0) && (year % 100 != 0)) || (year % 400 == 0) */\n      swap1\n      pop\n        /* \"src/ecom/libs/DateTimeLibrary.sol\":5949:6106  function _isLeapYear(uint year) internal pure returns (bool leapYear) {... */\n      swap2\n      swap1\n      pop\n      jump\t// out\n        /* \"#utility.yul\":88:205   */\n    tag_395:\n        /* \"#utility.yul\":197:198   */\n      0x00\n        /* \"#utility.yul\":194:195   */\n      dup1\n        /* \"#utility.yul\":187:199   */\n      revert\n        /* \"#utility.yul\":334:411   */\n    tag_397:\n        /* \"#utility.yul\":371:378   */\n      0x00\n        /* \"#utility.yul\":400:405   */\n      dup2\n        /* \"#utility.yul\":389:405   */\n      swap1\n      pop\n        /* \"#utility.yul\":334:411   */\n      swap2\n      swap1\n      pop\n      jump\t// out\n        /* \"#utility.yul\":417:539   */\n    tag_398:\n        /* \"#utility.yul\":490:514   */\n      tag_423\n        /* \"#utility.yul\":508:513   */\n      dup2\n        /* \"#utility.yul\":490:514   */\n      tag_397\n      jump\t// in\n    tag_423:\n        /* \"#utility.yul\":483:488   */\n      dup2\n        /* \"#utility.yul\":480:515   */\n      eq\n        /* \"#utility.yul\":470:533   */\n      tag_424\n      jumpi\n        /* \"#utility.yul\":529:530   */\n      0x00\n        /* \"#utility.yul\":526:527   */\n      dup1\n        /* \"#utility.yul\":519:531   */\n      revert\n        /* \"#utility.yul\":470:533   */\n    tag_424:\n        /* \"#utility.yul\":417:539   */\n      pop\n      jump\t// out\n        /* \"#utility.yul\":545:684   */\n    tag_399:\n        /* \"#utility.yul\":591:596   */\n      0x00\n        /* \"#utility.yul\":629:635   */\n      dup2\n        /* \"#utility.yul\":616:636   */\n      calldataload\n        /* \"#utility.yul\":607:636   */\n      swap1\n      pop\n        /* \"#utility.yul\":645:678   */\n      tag_426\n        /* \"#utility.yul\":672:677   */\n      dup2\n        /* \"#utility.yul\":645:678   */\n      tag_398\n      jump\t// in\n    tag_426:\n        /* \"#utility.yul\":545:684   */\n      swap3\n      swap2\n      pop\n      pop\n      jump\t// out\n        /* \"#utility.yul\":690:766   */\n    tag_400:\n        /* \"#utility.yul\":726:733   */\n      0x00\n        /* \"#utility.yul\":755:760   */\n      dup2\n        /* \"#utility.yul\":744:760   */\n      swap1\n      pop\n        /* \"#utility.yul\":690:766   */\n      swap2\n      swap1\n      pop\n      jump\t// out\n        /* \"#utility.yul\":772:892   */\n    tag_401:\n        /* \"#utility.yul\":844:867   */\n      tag_429\n        /* \"#utility.yul\":861:866   */\n      dup2\n        /* \"#utility.yul\":844:867   */\n      tag_400\n      jump\t// in\n    tag_429:\n        /* \"#utility.yul\":837:842   */\n      dup2\n        /* \"#utility.yul\":834:868   */\n      eq\n        /* \"#utility.yul\":824:886   */\n      tag_430\n      jumpi\n        /* \"#utility.yul\":882:883   */\n      0x00\n        /* \"#utility.yul\":879:880   */\n      dup1\n        /* \"#utility.yul\":872:884   */\n      revert\n        /* \"#utility.yul\":824:886   */\n    tag_430:\n        /* \"#utility.yul\":772:892   */\n      pop\n      jump\t// out\n        /* \"#utility.yul\":898:1035   */\n    tag_402:\n        /* \"#utility.yul\":943:948   */\n      0x00\n        /* \"#utility.yul\":981:987   */\n      dup2\n        /* \"#utility.yul\":968:988   */\n      calldataload\n        /* \"#utility.yul\":959:988   */\n      swap1\n      pop\n        /* \"#utility.yul\":997:1029   */\n      tag_432\n        /* \"#utility.yul\":1023:1028   */\n      dup2\n        /* \"#utility.yul\":997:1029   */\n      tag_401\n      jump\t// in\n    tag_432:\n        /* \"#utility.yul\":898:1035   */\n      swap3\n      swap2\n      pop\n      pop\n      jump\t// out\n        /* \"#utility.yul\":1041:1513   */\n    tag_29:\n        /* \"#utility.yul\":1108:1114   */\n      0x00\n        /* \"#utility.yul\":1116:1122   */\n      dup1\n        /* \"#utility.yul\":1165:1167   */\n      0x40\n        /* \"#utility.yul\":1153:1162   */\n      dup4\n        /* \"#utility.yul\":1144:1151   */\n      dup6\n        /* \"#utility.yul\":1140:1163   */\n      sub\n        /* \"#utility.yul\":1136:1168   */\n      slt\n        /* \"#utility.yul\":1133:1252   */\n      iszero\n      tag_434\n      jumpi\n        /* \"#utility.yul\":1171:1250   */\n      tag_435\n      tag_395\n      jump\t// in\n    tag_435:\n        /* \"#utility.yul\":1133:1252   */\n    tag_434:\n        /* \"#utility.yul\":1291:1292   */\n      0x00\n        /* \"#utility.yul\":1316:1369   */\n      tag_436\n        /* \"#utility.yul\":1361:1368   */\n      dup6\n        /* \"#utility.yul\":1352:1358   */\n      dup3\n        /* \"#utility.yul\":1341:1350   */\n      dup7\n        /* \"#utility.yul\":1337:1359   */\n      add\n        /* \"#utility.yul\":1316:1369   */\n      tag_399\n      jump\t// in\n    tag_436:\n        /* \"#utility.yul\":1306:1369   */\n      swap3\n      pop\n        /* \"#utility.yul\":1262:1379   */\n      pop\n        /* \"#utility.yul\":1418:1420   */\n      0x20\n        /* \"#utility.yul\":1444:1496   */\n      tag_437\n        /* \"#utility.yul\":1488:1495   */\n      dup6\n        /* \"#utility.yul\":1479:1485   */\n      dup3\n        /* \"#utility.yul\":1468:1477   */\n      dup7\n        /* \"#utility.yul\":1464:1486   */\n      add\n        /* \"#utility.yul\":1444:1496   */\n      tag_402\n      jump\t// in\n    tag_437:\n        /* \"#utility.yul\":1434:1496   */\n      swap2\n      pop\n        /* \"#utility.yul\":1389:1506   */\n      pop\n        /* \"#utility.yul\":1041:1513   */\n      swap3\n      pop\n      swap3\n      swap1\n      pop\n      jump\t// out\n        /* \"#utility.yul\":1519:1637   */\n    tag_403:\n        /* \"#utility.yul\":1606:1630   */\n      tag_439\n        /* \"#utility.yul\":1624:1629   */\n      dup2\n        /* \"#utility.yul\":1606:1630   */\n      tag_397\n      jump\t// in\n    tag_439:\n        /* \"#utility.yul\":1601:1604   */\n      dup3\n        /* \"#utility.yul\":1594:1631   */\n      mstore\n        /* \"#utility.yul\":1519:1637   */\n      pop\n      pop\n      jump\t// out\n        /* \"#utility.yul\":1643:1865   */\n    tag_32:\n        /* \"#utility.yul\":1736:1740   */\n      0x00\n        /* \"#utility.yul\":1774:1776   */\n      0x20\n        /* \"#utility.yul\":1763:1772   */\n      dup3\n        /* \"#utility.yul\":1759:1777   */\n      add\n        /* \"#utility.yul\":1751:1777   */\n      swap1\n      pop\n        /* \"#utility.yul\":1787:1858   */\n      tag_441\n        /* \"#utility.yul\":1855:1856   */\n      0x00\n        /* \"#utility.yul\":1844:1853   */\n      dup4\n        /* \"#utility.yul\":1840:1857   */\n      add\n        /* \"#utility.yul\":1831:1837   */\n      dup5\n        /* \"#utility.yul\":1787:1858   */\n      tag_403\n      jump\t// in\n    tag_441:\n        /* \"#utility.yul\":1643:1865   */\n      swap3\n      swap2\n      pop\n      pop\n      jump\t// out\n        /* \"#utility.yul\":1871:1970   */\n    tag_404:\n        /* \"#utility.yul\":1923:1929   */\n      0x00\n        /* \"#utility.yul\":1957:1962   */\n      dup2\n        /* \"#utility.yul\":1951:1963   */\n      mload\n        /* \"#utility.yul\":1941:1963   */\n      swap1\n      pop\n        /* \"#utility.yul\":1871:1970   */\n      swap2\n      swap1\n      pop\n      jump\t// out\n        /* \"#utility.yul\":1976:2145   */\n    tag_405:\n        /* \"#utility.yul\":2060:2071   */\n      0x00\n        /* \"#utility.yul\":2094:2100   */\n      dup3\n        /* \"#utility.yul\":2089:2092   */\n      dup3\n        /* \"#utility.yul\":2082:2101   */\n      mstore\n        /* \"#utility.yul\":2134:2138   */\n      0x20\n        /* \"#utility.yul\":2129:2132   */\n      dup3\n        /* \"#utility.yul\":2125:2139   */\n      add\n        /* \"#utility.yul\":2110:2139   */\n      swap1\n      pop\n        /* \"#utility.yul\":1976:2145   */\n      swap3\n      swap2\n      pop\n      pop\n      jump\t// out\n        /* \"#utility.yul\":2151:2397   */\n    tag_406:\n        /* \"#utility.yul\":2232:2233   */\n      0x00\n        /* \"#utility.yul\":2242:2355   */\n    tag_445:\n        /* \"#utility.yul\":2256:2262   */\n      dup4\n        /* \"#utility.yul\":2253:2254   */\n      dup2\n        /* \"#utility.yul\":2250:2263   */\n      lt\n        /* \"#utility.yul\":2242:2355   */\n      iszero\n      tag_447\n      jumpi\n        /* \"#utility.yul\":2341:2342   */\n      dup1\n        /* \"#utility.yul\":2336:2339   */\n      dup3\n        /* \"#utility.yul\":2332:2343   */\n      add\n        /* \"#utility.yul\":2326:2344   */\n      mload\n        /* \"#utility.yul\":2322:2323   */\n      dup2\n        /* \"#utility.yul\":2317:2320   */\n      dup5\n        /* \"#utility.yul\":2313:2324   */\n      add\n        /* \"#utility.yul\":2306:2345   */\n      mstore\n        /* \"#utility.yul\":2278:2280   */\n      0x20\n        /* \"#utility.yul\":2275:2276   */\n      dup2\n        /* \"#utility.yul\":2271:2281   */\n      add\n        /* \"#utility.yul\":2266:2281   */\n      swap1\n      pop\n        /* \"#utility.yul\":2242:2355   */\n      jump(tag_445)\n    tag_447:\n        /* \"#utility.yul\":2389:2390   */\n      0x00\n        /* \"#utility.yul\":2380:2386   */\n      dup5\n        /* \"#utility.yul\":2375:2378   */\n      dup5\n        /* \"#utility.yul\":2371:2387   */\n      add\n        /* \"#utility.yul\":2364:2391   */\n      mstore\n        /* \"#utility.yul\":2213:2397   */\n      pop\n        /* \"#utility.yul\":2151:2397   */\n      pop\n      pop\n      pop\n      jump\t// out\n        /* \"#utility.yul\":2403:2505   */\n    tag_407:\n        /* \"#utility.yul\":2444:2450   */\n      0x00\n        /* \"#utility.yul\":2495:2497   */\n      0x1f\n        /* \"#utility.yul\":2491:2498   */\n      not\n        /* \"#utility.yul\":2486:2488   */\n      0x1f\n        /* \"#utility.yul\":2479:2484   */\n      dup4\n        /* \"#utility.yul\":2475:2489   */\n      add\n        /* \"#utility.yul\":2471:2499   */\n      and\n        /* \"#utility.yul\":2461:2499   */\n      swap1\n      pop\n        /* \"#utility.yul\":2403:2505   */\n      swap2\n      swap1\n      pop\n      jump\t// out\n        /* \"#utility.yul\":2511:2888   */\n    tag_408:\n        /* \"#utility.yul\":2599:2602   */\n      0x00\n        /* \"#utility.yul\":2627:2666   */\n      tag_450\n        /* \"#utility.yul\":2660:2665   */\n      dup3\n        /* \"#utility.yul\":2627:2666   */\n      tag_404\n      jump\t// in\n    tag_450:\n        /* \"#utility.yul\":2682:2753   */\n      tag_451\n        /* \"#utility.yul\":2746:2752   */\n      dup2\n        /* \"#utility.yul\":2741:2744   */\n      dup6\n        /* \"#utility.yul\":2682:2753   */\n      tag_405\n      jump\t// in\n    tag_451:\n        /* \"#utility.yul\":2675:2753   */\n      swap4\n      pop\n        /* \"#utility.yul\":2762:2827   */\n      tag_452\n        /* \"#utility.yul\":2820:2826   */\n      dup2\n        /* \"#utility.yul\":2815:2818   */\n      dup6\n        /* \"#utility.yul\":2808:2812   */\n      0x20\n        /* \"#utility.yul\":2801:2806   */\n      dup7\n        /* \"#utility.yul\":2797:2813   */\n      add\n        /* \"#utility.yul\":2762:2827   */\n      tag_406\n      jump\t// in\n    tag_452:\n        /* \"#utility.yul\":2852:2881   */\n      tag_453\n        /* \"#utility.yul\":2874:2880   */\n      dup2\n        /* \"#utility.yul\":2852:2881   */\n      tag_407\n      jump\t// in\n    tag_453:\n        /* \"#utility.yul\":2847:2850   */\n      dup5\n        /* \"#utility.yul\":2843:2882   */\n      add\n        /* \"#utility.yul\":2836:2882   */\n      swap2\n      pop\n        /* \"#utility.yul\":2603:2888   */\n      pop\n        /* \"#utility.yul\":2511:2888   */\n      swap3\n      swap2\n      pop\n      pop\n      jump\t// out\n        /* \"#utility.yul\":2894:3408   */\n    tag_37:\n        /* \"#utility.yul\":3055:3059   */\n      0x00\n        /* \"#utility.yul\":3093:3095   */\n      0x40\n        /* \"#utility.yul\":3082:3091   */\n      dup3\n        /* \"#utility.yul\":3078:3096   */\n      add\n        /* \"#utility.yul\":3070:3096   */\n      swap1\n      pop\n        /* \"#utility.yul\":3142:3151   */\n      dup2\n        /* \"#utility.yul\":3136:3140   */\n      dup2\n        /* \"#utility.yul\":3132:3152   */\n      sub\n        /* \"#utility.yul\":3128:3129   */\n      0x00\n        /* \"#utility.yul\":3117:3126   */\n      dup4\n        /* \"#utility.yul\":3113:3130   */\n      add\n        /* \"#utility.yul\":3106:3153   */\n      mstore\n        /* \"#utility.yul\":3170:3248   */\n      tag_455\n        /* \"#utility.yul\":3243:3247   */\n      dup2\n        /* \"#utility.yul\":3234:3240   */\n      dup6\n        /* \"#utility.yul\":3170:3248   */\n      tag_408\n      jump\t// in\n    tag_455:\n        /* \"#utility.yul\":3162:3248   */\n      swap1\n      pop\n        /* \"#utility.yul\":3295:3304   */\n      dup2\n        /* \"#utility.yul\":3289:3293   */\n      dup2\n        /* \"#utility.yul\":3285:3305   */\n      sub\n        /* \"#utility.yul\":3280:3282   */\n      0x20\n        /* \"#utility.yul\":3269:3278   */\n      dup4\n        /* \"#utility.yul\":3265:3283   */\n      add\n        /* \"#utility.yul\":3258:3306   */\n      mstore\n        /* \"#utility.yul\":3323:3401   */\n      tag_456\n        /* \"#utility.yul\":3396:3400   */\n      dup2\n        /* \"#utility.yul\":3387:3393   */\n      dup5\n        /* \"#utility.yul\":3323:3401   */\n      tag_408\n      jump\t// in\n    tag_456:\n        /* \"#utility.yul\":3315:3401   */\n      swap1\n      pop\n        /* \"#utility.yul\":2894:3408   */\n      swap4\n      swap3\n      pop\n      pop\n      pop\n      jump\t// out\n        /* \"#utility.yul\":3414:3743   */\n    tag_44:\n        /* \"#utility.yul\":3473:3479   */\n      0x00\n        /* \"#utility.yul\":3522:3524   */\n      0x20\n        /* \"#utility.yul\":3510:3519   */\n      dup3\n        /* \"#utility.yul\":3501:3508   */\n      dup5\n        /* \"#utility.yul\":3497:3520   */\n      sub\n        /* \"#utility.yul\":3493:3525   */\n      slt\n        /* \"#utility.yul\":3490:3609   */\n      iszero\n      tag_458\n      jumpi\n        /* \"#utility.yul\":3528:3607   */\n      tag_459\n      tag_395\n      jump\t// in\n    tag_459:\n        /* \"#utility.yul\":3490:3609   */\n    tag_458:\n        /* \"#utility.yul\":3648:3649   */\n      0x00\n        /* \"#utility.yul\":3673:3726   */\n      tag_460\n        /* \"#utility.yul\":3718:3725   */\n      dup5\n        /* \"#utility.yul\":3709:3715   */\n      dup3\n        /* \"#utility.yul\":3698:3707   */\n      dup6\n        /* \"#utility.yul\":3694:3716   */\n      add\n        /* \"#utility.yul\":3673:3726   */\n      tag_399\n      jump\t// in\n    tag_460:\n        /* \"#utility.yul\":3663:3726   */\n      swap2\n      pop\n        /* \"#utility.yul\":3619:3736   */\n      pop\n        /* \"#utility.yul\":3414:3743   */\n      swap3\n      swap2\n      pop\n      pop\n      jump\t// out\n        /* \"#utility.yul\":3749:4062   */\n    tag_47:\n        /* \"#utility.yul\":3862:3866   */\n      0x00\n        /* \"#utility.yul\":3900:3902   */\n      0x20\n        /* \"#utility.yul\":3889:3898   */\n      dup3\n        /* \"#utility.yul\":3885:3903   */\n      add\n        /* \"#utility.yul\":3877:3903   */\n      swap1\n      pop\n        /* \"#utility.yul\":3949:3958   */\n      dup2\n        /* \"#utility.yul\":3943:3947   */\n      dup2\n        /* \"#utility.yul\":3939:3959   */\n      sub\n        /* \"#utility.yul\":3935:3936   */\n      0x00\n        /* \"#utility.yul\":3924:3933   */\n      dup4\n        /* \"#utility.yul\":3920:3937   */\n      add\n        /* \"#utility.yul\":3913:3960   */\n      mstore\n        /* \"#utility.yul\":3977:4055   */\n      tag_462\n        /* \"#utility.yul\":4050:4054   */\n      dup2\n        /* \"#utility.yul\":4041:4047   */\n      dup5\n        /* \"#utility.yul\":3977:4055   */\n      tag_408\n      jump\t// in\n    tag_462:\n        /* \"#utility.yul\":3969:4055   */\n      swap1\n      pop\n        /* \"#utility.yul\":3749:4062   */\n      swap3\n      swap2\n      pop\n      pop\n      jump\t// out\n        /* \"#utility.yul\":4068:4400   */\n    tag_52:\n        /* \"#utility.yul\":4189:4193   */\n      0x00\n        /* \"#utility.yul\":4227:4229   */\n      0x40\n        /* \"#utility.yul\":4216:4225   */\n      dup3\n        /* \"#utility.yul\":4212:4230   */\n      add\n        /* \"#utility.yul\":4204:4230   */\n      swap1\n      pop\n        /* \"#utility.yul\":4240:4311   */\n      tag_464\n        /* \"#utility.yul\":4308:4309   */\n      0x00\n        /* \"#utility.yul\":4297:4306   */\n      dup4\n        /* \"#utility.yul\":4293:4310   */\n      add\n        /* \"#utility.yul\":4284:4290   */\n      dup6\n        /* \"#utility.yul\":4240:4311   */\n      tag_403\n      jump\t// in\n    tag_464:\n        /* \"#utility.yul\":4321:4393   */\n      tag_465\n        /* \"#utility.yul\":4389:4391   */\n      0x20\n        /* \"#utility.yul\":4378:4387   */\n      dup4\n        /* \"#utility.yul\":4374:4392   */\n      add\n        /* \"#utility.yul\":4365:4371   */\n      dup5\n        /* \"#utility.yul\":4321:4393   */\n      tag_403\n      jump\t// in\n    tag_465:\n        /* \"#utility.yul\":4068:4400   */\n      swap4\n      swap3\n      pop\n      pop\n      pop\n      jump\t// out\n        /* \"#utility.yul\":4406:4880   */\n    tag_71:\n        /* \"#utility.yul\":4474:4480   */\n      0x00\n        /* \"#utility.yul\":4482:4488   */\n      dup1\n        /* \"#utility.yul\":4531:4533   */\n      0x40\n        /* \"#utility.yul\":4519:4528   */\n      dup4\n        /* \"#utility.yul\":4510:4517   */\n      dup6\n        /* \"#utility.yul\":4506:4529   */\n      sub\n        /* \"#utility.yul\":4502:4534   */\n      slt\n        /* \"#utility.yul\":4499:4618   */\n      iszero\n      tag_467\n      jumpi\n        /* \"#utility.yul\":4537:4616   */\n      tag_468\n      tag_395\n      jump\t// in\n    tag_468:\n        /* \"#utility.yul\":4499:4618   */\n    tag_467:\n        /* \"#utility.yul\":4657:4658   */\n      0x00\n        /* \"#utility.yul\":4682:4735   */\n      tag_469\n        /* \"#utility.yul\":4727:4734   */\n      dup6\n        /* \"#utility.yul\":4718:4724   */\n      dup3\n        /* \"#utility.yul\":4707:4716   */\n      dup7\n        /* \"#utility.yul\":4703:4725   */\n      add\n        /* \"#utility.yul\":4682:4735   */\n      tag_399\n      jump\t// in\n    tag_469:\n        /* \"#utility.yul\":4672:4735   */\n      swap3\n      pop\n        /* \"#utility.yul\":4628:4745   */\n      pop\n        /* \"#utility.yul\":4784:4786   */\n      0x20\n        /* \"#utility.yul\":4810:4863   */\n      tag_470\n        /* \"#utility.yul\":4855:4862   */\n      dup6\n        /* \"#utility.yul\":4846:4852   */\n      dup3\n        /* \"#utility.yul\":4835:4844   */\n      dup7\n        /* \"#utility.yul\":4831:4853   */\n      add\n        /* \"#utility.yul\":4810:4863   */\n      tag_399\n      jump\t// in\n    tag_470:\n        /* \"#utility.yul\":4800:4863   */\n      swap2\n      pop\n        /* \"#utility.yul\":4755:4873   */\n      pop\n        /* \"#utility.yul\":4406:4880   */\n      swap3\n      pop\n      swap3\n      swap1\n      pop\n      jump\t// out\n        /* \"#utility.yul\":4886:5328   */\n    tag_78:\n        /* \"#utility.yul\":5035:5039   */\n      0x00\n        /* \"#utility.yul\":5073:5075   */\n      0x60\n        /* \"#utility.yul\":5062:5071   */\n      dup3\n        /* \"#utility.yul\":5058:5076   */\n      add\n        /* \"#utility.yul\":5050:5076   */\n      swap1\n      pop\n        /* \"#utility.yul\":5086:5157   */\n      tag_472\n        /* \"#utility.yul\":5154:5155   */\n      0x00\n        /* \"#utility.yul\":5143:5152   */\n      dup4\n        /* \"#utility.yul\":5139:5156   */\n      add\n        /* \"#utility.yul\":5130:5136   */\n      dup7\n        /* \"#utility.yul\":5086:5157   */\n      tag_403\n      jump\t// in\n    tag_472:\n        /* \"#utility.yul\":5167:5239   */\n      tag_473\n        /* \"#utility.yul\":5235:5237   */\n      0x20\n        /* \"#utility.yul\":5224:5233   */\n      dup4\n        /* \"#utility.yul\":5220:5238   */\n      add\n        /* \"#utility.yul\":5211:5217   */\n      dup6\n        /* \"#utility.yul\":5167:5239   */\n      tag_403\n      jump\t// in\n    tag_473:\n        /* \"#utility.yul\":5249:5321   */\n      tag_474\n        /* \"#utility.yul\":5317:5319   */\n      0x40\n        /* \"#utility.yul\":5306:5315   */\n      dup4\n        /* \"#utility.yul\":5302:5320   */\n      add\n        /* \"#utility.yul\":5293:5299   */\n      dup5\n        /* \"#utility.yul\":5249:5321   */\n      tag_403\n      jump\t// in\n    tag_474:\n        /* \"#utility.yul\":4886:5328   */\n      swap5\n      swap4\n      pop\n      pop\n      pop\n      pop\n      jump\t// out\n        /* \"#utility.yul\":5334:6535   */\n    tag_85:\n        /* \"#utility.yul\":5446:5452   */\n      0x00\n        /* \"#utility.yul\":5454:5460   */\n      dup1\n        /* \"#utility.yul\":5462:5468   */\n      0x00\n        /* \"#utility.yul\":5470:5476   */\n      dup1\n        /* \"#utility.yul\":5478:5484   */\n      0x00\n        /* \"#utility.yul\":5486:5492   */\n      dup1\n        /* \"#utility.yul\":5494:5500   */\n      0x00\n        /* \"#utility.yul\":5543:5546   */\n      0xe0\n        /* \"#utility.yul\":5531:5540   */\n      dup9\n        /* \"#utility.yul\":5522:5529   */\n      dup11\n        /* \"#utility.yul\":5518:5541   */\n      sub\n        /* \"#utility.yul\":5514:5547   */\n      slt\n        /* \"#utility.yul\":5511:5631   */\n      iszero\n      tag_476\n      jumpi\n        /* \"#utility.yul\":5550:5629   */\n      tag_477\n      tag_395\n      jump\t// in\n    tag_477:\n        /* \"#utility.yul\":5511:5631   */\n    tag_476:\n        /* \"#utility.yul\":5670:5671   */\n      0x00\n        /* \"#utility.yul\":5695:5748   */\n      tag_478\n        /* \"#utility.yul\":5740:5747   */\n      dup11\n        /* \"#utility.yul\":5731:5737   */\n      dup3\n        /* \"#utility.yul\":5720:5729   */\n      dup12\n        /* \"#utility.yul\":5716:5738   */\n      add\n        /* \"#utility.yul\":5695:5748   */\n      tag_399\n      jump\t// in\n    tag_478:\n        /* \"#utility.yul\":5685:5748   */\n      swap8\n      pop\n        /* \"#utility.yul\":5641:5758   */\n      pop\n        /* \"#utility.yul\":5797:5799   */\n      0x20\n        /* \"#utility.yul\":5823:5876   */\n      tag_479\n        /* \"#utility.yul\":5868:5875   */\n      dup11\n        /* \"#utility.yul\":5859:5865   */\n      dup3\n        /* \"#utility.yul\":5848:5857   */\n      dup12\n        /* \"#utility.yul\":5844:5866   */\n      add\n        /* \"#utility.yul\":5823:5876   */\n      tag_399\n      jump\t// in\n    tag_479:\n        /* \"#utility.yul\":5813:5876   */\n      swap7\n      pop\n        /* \"#utility.yul\":5768:5886   */\n      pop\n        /* \"#utility.yul\":5925:5927   */\n      0x40\n        /* \"#utility.yul\":5951:6004   */\n      tag_480\n        /* \"#utility.yul\":5996:6003   */\n      dup11\n        /* \"#utility.yul\":5987:5993   */\n      dup3\n        /* \"#utility.yul\":5976:5985   */\n      dup12\n        /* \"#utility.yul\":5972:5994   */\n      add\n        /* \"#utility.yul\":5951:6004   */\n      tag_399\n      jump\t// in\n    tag_480:\n        /* \"#utility.yul\":5941:6004   */\n      swap6\n      pop\n        /* \"#utility.yul\":5896:6014   */\n      pop\n        /* \"#utility.yul\":6053:6055   */\n      0x60\n        /* \"#utility.yul\":6079:6132   */\n      tag_481\n        /* \"#utility.yul\":6124:6131   */\n      dup11\n        /* \"#utility.yul\":6115:6121   */\n      dup3\n        /* \"#utility.yul\":6104:6113   */\n      dup12\n        /* \"#utility.yul\":6100:6122   */\n      add\n        /* \"#utility.yul\":6079:6132   */\n      tag_399\n      jump\t// in\n    tag_481:\n        /* \"#utility.yul\":6069:6132   */\n      swap5\n      pop\n        /* \"#utility.yul\":6024:6142   */\n      pop\n        /* \"#utility.yul\":6181:6184   */\n      0x80\n        /* \"#utility.yul\":6208:6261   */\n      tag_482\n        /* \"#utility.yul\":6253:6260   */\n      dup11\n        /* \"#utility.yul\":6244:6250   */\n      dup3\n        /* \"#utility.yul\":6233:6242   */\n      dup12\n        /* \"#utility.yul\":6229:6251   */\n      add\n        /* \"#utility.yul\":6208:6261   */\n      tag_399\n      jump\t// in\n    tag_482:\n        /* \"#utility.yul\":6198:6261   */\n      swap4\n      pop\n        /* \"#utility.yul\":6152:6271   */\n      pop\n        /* \"#utility.yul\":6310:6313   */\n      0xa0\n        /* \"#utility.yul\":6337:6390   */\n      tag_483\n        /* \"#utility.yul\":6382:6389   */\n      dup11\n        /* \"#utility.yul\":6373:6379   */\n      dup3\n        /* \"#utility.yul\":6362:6371   */\n      dup12\n        /* \"#utility.yul\":6358:6380   */\n      add\n        /* \"#utility.yul\":6337:6390   */\n      tag_399\n      jump\t// in\n    tag_483:\n        /* \"#utility.yul\":6327:6390   */\n      swap3\n      pop\n        /* \"#utility.yul\":6281:6400   */\n      pop\n        /* \"#utility.yul\":6439:6442   */\n      0xc0\n        /* \"#utility.yul\":6466:6518   */\n      tag_484\n        /* \"#utility.yul\":6510:6517   */\n      dup11\n        /* \"#utility.yul\":6501:6507   */\n      dup3\n        /* \"#utility.yul\":6490:6499   */\n      dup12\n        /* \"#utility.yul\":6486:6508   */\n      add\n        /* \"#utility.yul\":6466:6518   */\n      tag_402\n      jump\t// in\n    tag_484:\n        /* \"#utility.yul\":6456:6518   */\n      swap2\n      pop\n        /* \"#utility.yul\":6410:6528   */\n      pop\n        /* \"#utility.yul\":5334:6535   */\n      swap3\n      swap6\n      swap9\n      swap2\n      swap5\n      swap8\n      pop\n      swap3\n      swap6\n      pop\n      jump\t// out\n        /* \"#utility.yul\":6541:7316   */\n    tag_92:\n        /* \"#utility.yul\":6774:6778   */\n      0x00\n        /* \"#utility.yul\":6812:6815   */\n      0xc0\n        /* \"#utility.yul\":6801:6810   */\n      dup3\n        /* \"#utility.yul\":6797:6816   */\n      add\n        /* \"#utility.yul\":6789:6816   */\n      swap1\n      pop\n        /* \"#utility.yul\":6826:6897   */\n      tag_486\n        /* \"#utility.yul\":6894:6895   */\n      0x00\n        /* \"#utility.yul\":6883:6892   */\n      dup4\n        /* \"#utility.yul\":6879:6896   */\n      add\n        /* \"#utility.yul\":6870:6876   */\n      dup10\n        /* \"#utility.yul\":6826:6897   */\n      tag_403\n      jump\t// in\n    tag_486:\n        /* \"#utility.yul\":6907:6979   */\n      tag_487\n        /* \"#utility.yul\":6975:6977   */\n      0x20\n        /* \"#utility.yul\":6964:6973   */\n      dup4\n        /* \"#utility.yul\":6960:6978   */\n      add\n        /* \"#utility.yul\":6951:6957   */\n      dup9\n        /* \"#utility.yul\":6907:6979   */\n      tag_403\n      jump\t// in\n    tag_487:\n        /* \"#utility.yul\":6989:7061   */\n      tag_488\n        /* \"#utility.yul\":7057:7059   */\n      0x40\n        /* \"#utility.yul\":7046:7055   */\n      dup4\n        /* \"#utility.yul\":7042:7060   */\n      add\n        /* \"#utility.yul\":7033:7039   */\n      dup8\n        /* \"#utility.yul\":6989:7061   */\n      tag_403\n      jump\t// in\n    tag_488:\n        /* \"#utility.yul\":7071:7143   */\n      tag_489\n        /* \"#utility.yul\":7139:7141   */\n      0x60\n        /* \"#utility.yul\":7128:7137   */\n      dup4\n        /* \"#utility.yul\":7124:7142   */\n      add\n        /* \"#utility.yul\":7115:7121   */\n      dup7\n        /* \"#utility.yul\":7071:7143   */\n      tag_403\n      jump\t// in\n    tag_489:\n        /* \"#utility.yul\":7153:7226   */\n      tag_490\n        /* \"#utility.yul\":7221:7224   */\n      0x80\n        /* \"#utility.yul\":7210:7219   */\n      dup4\n        /* \"#utility.yul\":7206:7225   */\n      add\n        /* \"#utility.yul\":7197:7203   */\n      dup6\n        /* \"#utility.yul\":7153:7226   */\n      tag_403\n      jump\t// in\n    tag_490:\n        /* \"#utility.yul\":7236:7309   */\n      tag_491\n        /* \"#utility.yul\":7304:7307   */\n      0xa0\n        /* \"#utility.yul\":7293:7302   */\n      dup4\n        /* \"#utility.yul\":7289:7308   */\n      add\n        /* \"#utility.yul\":7280:7286   */\n      dup5\n        /* \"#utility.yul\":7236:7309   */\n      tag_403\n      jump\t// in\n    tag_491:\n        /* \"#utility.yul\":6541:7316   */\n      swap8\n      swap7\n      pop\n      pop\n      pop\n      pop\n      pop\n      pop\n      pop\n      jump\t// out\n        /* \"#utility.yul\":7322:8085   */\n    tag_95:\n        /* \"#utility.yul\":7407:7413   */\n      0x00\n        /* \"#utility.yul\":7415:7421   */\n      dup1\n        /* \"#utility.yul\":7423:7429   */\n      0x00\n        /* \"#utility.yul\":7431:7437   */\n      dup1\n        /* \"#utility.yul\":7480:7483   */\n      0x80\n        /* \"#utility.yul\":7468:7477   */\n      dup6\n        /* \"#utility.yul\":7459:7466   */\n      dup8\n        /* \"#utility.yul\":7455:7478   */\n      sub\n        /* \"#utility.yul\":7451:7484   */\n      slt\n        /* \"#utility.yul\":7448:7568   */\n      iszero\n      tag_493\n      jumpi\n        /* \"#utility.yul\":7487:7566   */\n      tag_494\n      tag_395\n      jump\t// in\n    tag_494:\n        /* \"#utility.yul\":7448:7568   */\n    tag_493:\n        /* \"#utility.yul\":7607:7608   */\n      0x00\n        /* \"#utility.yul\":7632:7685   */\n      tag_495\n        /* \"#utility.yul\":7677:7684   */\n      dup8\n        /* \"#utility.yul\":7668:7674   */\n      dup3\n        /* \"#utility.yul\":7657:7666   */\n      dup9\n        /* \"#utility.yul\":7653:7675   */\n      add\n        /* \"#utility.yul\":7632:7685   */\n      tag_399\n      jump\t// in\n    tag_495:\n        /* \"#utility.yul\":7622:7685   */\n      swap5\n      pop\n        /* \"#utility.yul\":7578:7695   */\n      pop\n        /* \"#utility.yul\":7734:7736   */\n      0x20\n        /* \"#utility.yul\":7760:7813   */\n      tag_496\n        /* \"#utility.yul\":7805:7812   */\n      dup8\n        /* \"#utility.yul\":7796:7802   */\n      dup3\n        /* \"#utility.yul\":7785:7794   */\n      dup9\n        /* \"#utility.yul\":7781:7803   */\n      add\n        /* \"#utility.yul\":7760:7813   */\n      tag_399\n      jump\t// in\n    tag_496:\n        /* \"#utility.yul\":7750:7813   */\n      swap4\n      pop\n        /* \"#utility.yul\":7705:7823   */\n      pop\n        /* \"#utility.yul\":7862:7864   */\n      0x40\n        /* \"#utility.yul\":7888:7941   */\n      tag_497\n        /* \"#utility.yul\":7933:7940   */\n      dup8\n        /* \"#utility.yul\":7924:7930   */\n      dup3\n        /* \"#utility.yul\":7913:7922   */\n      dup9\n        /* \"#utility.yul\":7909:7931   */\n      add\n        /* \"#utility.yul\":7888:7941   */\n      tag_399\n      jump\t// in\n    tag_497:\n        /* \"#utility.yul\":7878:7941   */\n      swap3\n      pop\n        /* \"#utility.yul\":7833:7951   */\n      pop\n        /* \"#utility.yul\":7990:7992   */\n      0x60\n        /* \"#utility.yul\":8016:8068   */\n      tag_498\n        /* \"#utility.yul\":8060:8067   */\n      dup8\n        /* \"#utility.yul\":8051:8057   */\n      dup3\n        /* \"#utility.yul\":8040:8049   */\n      dup9\n        /* \"#utility.yul\":8036:8058   */\n      add\n        /* \"#utility.yul\":8016:8068   */\n      tag_402\n      jump\t// in\n    tag_498:\n        /* \"#utility.yul\":8006:8068   */\n      swap2\n      pop\n        /* \"#utility.yul\":7961:8078   */\n      pop\n        /* \"#utility.yul\":7322:8085   */\n      swap3\n      swap6\n      swap2\n      swap5\n      pop\n      swap3\n      pop\n      jump\t// out\n        /* \"#utility.yul\":8091:8271   */\n    tag_409:\n        /* \"#utility.yul\":8139:8216   */\n      0x4e487b7100000000000000000000000000000000000000000000000000000000\n        /* \"#utility.yul\":8136:8137   */\n      0x00\n        /* \"#utility.yul\":8129:8217   */\n      mstore\n        /* \"#utility.yul\":8236:8240   */\n      0x11\n        /* \"#utility.yul\":8233:8234   */\n      0x04\n        /* \"#utility.yul\":8226:8241   */\n      mstore\n        /* \"#utility.yul\":8260:8264   */\n      0x24\n        /* \"#utility.yul\":8257:8258   */\n      0x00\n        /* \"#utility.yul\":8250:8265   */\n      revert\n        /* \"#utility.yul\":8277:8687   */\n    tag_125:\n        /* \"#utility.yul\":8317:8324   */\n      0x00\n        /* \"#utility.yul\":8340:8360   */\n      tag_501\n        /* \"#utility.yul\":8358:8359   */\n      dup3\n        /* \"#utility.yul\":8340:8360   */\n      tag_397\n      jump\t// in\n    tag_501:\n        /* \"#utility.yul\":8335:8360   */\n      swap2\n      pop\n        /* \"#utility.yul\":8374:8394   */\n      tag_502\n        /* \"#utility.yul\":8392:8393   */\n      dup4\n        /* \"#utility.yul\":8374:8394   */\n      tag_397\n      jump\t// in\n    tag_502:\n        /* \"#utility.yul\":8369:8394   */\n      swap3\n      pop\n        /* \"#utility.yul\":8429:8430   */\n      dup3\n        /* \"#utility.yul\":8426:8427   */\n      dup3\n        /* \"#utility.yul\":8422:8431   */\n      mul\n        /* \"#utility.yul\":8451:8481   */\n      tag_503\n        /* \"#utility.yul\":8469:8480   */\n      dup2\n        /* \"#utility.yul\":8451:8481   */\n      tag_397\n      jump\t// in\n    tag_503:\n        /* \"#utility.yul\":8440:8481   */\n      swap2\n      pop\n        /* \"#utility.yul\":8630:8631   */\n      dup3\n        /* \"#utility.yul\":8621:8628   */\n      dup3\n        /* \"#utility.yul\":8617:8632   */\n      div\n        /* \"#utility.yul\":8614:8615   */\n      dup5\n        /* \"#utility.yul\":8611:8633   */\n      eq\n        /* \"#utility.yul\":8591:8592   */\n      dup4\n        /* \"#utility.yul\":8584:8593   */\n      iszero\n        /* \"#utility.yul\":8564:8647   */\n      or\n        /* \"#utility.yul\":8541:8680   */\n      tag_504\n      jumpi\n        /* \"#utility.yul\":8660:8678   */\n      tag_505\n      tag_409\n      jump\t// in\n    tag_505:\n        /* \"#utility.yul\":8541:8680   */\n    tag_504:\n        /* \"#utility.yul\":8325:8687   */\n      pop\n        /* \"#utility.yul\":8277:8687   */\n      swap3\n      swap2\n      pop\n      pop\n      jump\t// out\n        /* \"#utility.yul\":8693:8884   */\n    tag_128:\n        /* \"#utility.yul\":8733:8736   */\n      0x00\n        /* \"#utility.yul\":8752:8772   */\n      tag_507\n        /* \"#utility.yul\":8770:8771   */\n      dup3\n        /* \"#utility.yul\":8752:8772   */\n      tag_397\n      jump\t// in\n    tag_507:\n        /* \"#utility.yul\":8747:8772   */\n      swap2\n      pop\n        /* \"#utility.yul\":8786:8806   */\n      tag_508\n        /* \"#utility.yul\":8804:8805   */\n      dup4\n        /* \"#utility.yul\":8786:8806   */\n      tag_397\n      jump\t// in\n    tag_508:\n        /* \"#utility.yul\":8781:8806   */\n      swap3\n      pop\n        /* \"#utility.yul\":8829:8830   */\n      dup3\n        /* \"#utility.yul\":8826:8827   */\n      dup3\n        /* \"#utility.yul\":8822:8831   */\n      add\n        /* \"#utility.yul\":8815:8831   */\n      swap1\n      pop\n        /* \"#utility.yul\":8850:8853   */\n      dup1\n        /* \"#utility.yul\":8847:8848   */\n      dup3\n        /* \"#utility.yul\":8844:8854   */\n      gt\n        /* \"#utility.yul\":8841:8877   */\n      iszero\n      tag_509\n      jumpi\n        /* \"#utility.yul\":8857:8875   */\n      tag_510\n      tag_409\n      jump\t// in\n    tag_510:\n        /* \"#utility.yul\":8841:8877   */\n    tag_509:\n        /* \"#utility.yul\":8693:8884   */\n      swap3\n      swap2\n      pop\n      pop\n      jump\t// out\n        /* \"#utility.yul\":8890:9038   */\n    tag_410:\n        /* \"#utility.yul\":8992:9003   */\n      0x00\n        /* \"#utility.yul\":9029:9032   */\n      dup2\n        /* \"#utility.yul\":9014:9032   */\n      swap1\n      pop\n        /* \"#utility.yul\":8890:9038   */\n      swap3\n      swap2\n      pop\n      pop\n      jump\t// out\n        /* \"#utility.yul\":9044:9434   */\n    tag_411:\n        /* \"#utility.yul\":9150:9153   */\n      0x00\n        /* \"#utility.yul\":9178:9217   */\n      tag_513\n        /* \"#utility.yul\":9211:9216   */\n      dup3\n        /* \"#utility.yul\":9178:9217   */\n      tag_404\n      jump\t// in\n    tag_513:\n        /* \"#utility.yul\":9233:9322   */\n      tag_514\n        /* \"#utility.yul\":9315:9321   */\n      dup2\n        /* \"#utility.yul\":9310:9313   */\n      dup6\n        /* \"#utility.yul\":9233:9322   */\n      tag_410\n      jump\t// in\n    tag_514:\n        /* \"#utility.yul\":9226:9322   */\n      swap4\n      pop\n        /* \"#utility.yul\":9331:9396   */\n      tag_515\n        /* \"#utility.yul\":9389:9395   */\n      dup2\n        /* \"#utility.yul\":9384:9387   */\n      dup6\n        /* \"#utility.yul\":9377:9381   */\n      0x20\n        /* \"#utility.yul\":9370:9375   */\n      dup7\n        /* \"#utility.yul\":9366:9382   */\n      add\n        /* \"#utility.yul\":9331:9396   */\n      tag_406\n      jump\t// in\n    tag_515:\n        /* \"#utility.yul\":9421:9427   */\n      dup1\n        /* \"#utility.yul\":9416:9419   */\n      dup5\n        /* \"#utility.yul\":9412:9428   */\n      add\n        /* \"#utility.yul\":9405:9428   */\n      swap2\n      pop\n        /* \"#utility.yul\":9154:9434   */\n      pop\n        /* \"#utility.yul\":9044:9434   */\n      swap3\n      swap2\n      pop\n      pop\n      jump\t// out\n        /* \"#utility.yul\":9440:9618   */\n    tag_412:\n        /* \"#utility.yul\":9608:9611   */\n      0x2f00000000000000000000000000000000000000000000000000000000000000\n        /* \"#utility.yul\":9603:9606   */\n      dup2\n        /* \"#utility.yul\":9596:9612   */\n      mstore\n        /* \"#utility.yul\":9440:9618   */\n      pop\n      jump\t// out\n        /* \"#utility.yul\":9624:10747   */\n    tag_137:\n        /* \"#utility.yul\":10032:10035   */\n      0x00\n        /* \"#utility.yul\":10054:10149   */\n      tag_518\n        /* \"#utility.yul\":10145:10148   */\n      dup3\n        /* \"#utility.yul\":10136:10142   */\n      dup7\n        /* \"#utility.yul\":10054:10149   */\n      tag_411\n      jump\t// in\n    tag_518:\n        /* \"#utility.yul\":10047:10149   */\n      swap2\n      pop\n        /* \"#utility.yul\":10159:10296   */\n      tag_519\n        /* \"#utility.yul\":10292:10295   */\n      dup3\n        /* \"#utility.yul\":10159:10296   */\n      tag_412\n      jump\t// in\n    tag_519:\n        /* \"#utility.yul\":10321:10322   */\n      0x01\n        /* \"#utility.yul\":10316:10319   */\n      dup3\n        /* \"#utility.yul\":10312:10323   */\n      add\n        /* \"#utility.yul\":10305:10323   */\n      swap2\n      pop\n        /* \"#utility.yul\":10340:10435   */\n      tag_520\n        /* \"#utility.yul\":10431:10434   */\n      dup3\n        /* \"#utility.yul\":10422:10428   */\n      dup6\n        /* \"#utility.yul\":10340:10435   */\n      tag_411\n      jump\t// in\n    tag_520:\n        /* \"#utility.yul\":10333:10435   */\n      swap2\n      pop\n        /* \"#utility.yul\":10445:10582   */\n      tag_521\n        /* \"#utility.yul\":10578:10581   */\n      dup3\n        /* \"#utility.yul\":10445:10582   */\n      tag_412\n      jump\t// in\n    tag_521:\n        /* \"#utility.yul\":10607:10608   */\n      0x01\n        /* \"#utility.yul\":10602:10605   */\n      dup3\n        /* \"#utility.yul\":10598:10609   */\n      add\n        /* \"#utility.yul\":10591:10609   */\n      swap2\n      pop\n        /* \"#utility.yul\":10626:10721   */\n      tag_522\n        /* \"#utility.yul\":10717:10720   */\n      dup3\n        /* \"#utility.yul\":10708:10714   */\n      dup5\n        /* \"#utility.yul\":10626:10721   */\n      tag_411\n      jump\t// in\n    tag_522:\n        /* \"#utility.yul\":10619:10721   */\n      swap2\n      pop\n        /* \"#utility.yul\":10738:10741   */\n      dup2\n        /* \"#utility.yul\":10731:10741   */\n      swap1\n      pop\n        /* \"#utility.yul\":9624:10747   */\n      swap5\n      swap4\n      pop\n      pop\n      pop\n      pop\n      jump\t// out\n        /* \"#utility.yul\":10753:10947   */\n    tag_141:\n        /* \"#utility.yul\":10793:10797   */\n      0x00\n        /* \"#utility.yul\":10813:10833   */\n      tag_524\n        /* \"#utility.yul\":10831:10832   */\n      dup3\n        /* \"#utility.yul\":10813:10833   */\n      tag_397\n      jump\t// in\n    tag_524:\n        /* \"#utility.yul\":10808:10833   */\n      swap2\n      pop\n        /* \"#utility.yul\":10847:10867   */\n      tag_525\n        /* \"#utility.yul\":10865:10866   */\n      dup4\n        /* \"#utility.yul\":10847:10867   */\n      tag_397\n      jump\t// in\n    tag_525:\n        /* \"#utility.yul\":10842:10867   */\n      swap3\n      pop\n        /* \"#utility.yul\":10891:10892   */\n      dup3\n        /* \"#utility.yul\":10888:10889   */\n      dup3\n        /* \"#utility.yul\":10884:10893   */\n      sub\n        /* \"#utility.yul\":10876:10893   */\n      swap1\n      pop\n        /* \"#utility.yul\":10915:10916   */\n      dup2\n        /* \"#utility.yul\":10909:10913   */\n      dup2\n        /* \"#utility.yul\":10906:10917   */\n      gt\n        /* \"#utility.yul\":10903:10940   */\n      iszero\n      tag_526\n      jumpi\n        /* \"#utility.yul\":10920:10938   */\n      tag_527\n      tag_409\n      jump\t// in\n    tag_527:\n        /* \"#utility.yul\":10903:10940   */\n    tag_526:\n        /* \"#utility.yul\":10753:10947   */\n      swap3\n      swap2\n      pop\n      pop\n      jump\t// out\n        /* \"#utility.yul\":10953:11131   */\n    tag_413:\n        /* \"#utility.yul\":11121:11124   */\n      0x3a00000000000000000000000000000000000000000000000000000000000000\n        /* \"#utility.yul\":11116:11119   */\n      dup2\n        /* \"#utility.yul\":11109:11125   */\n      mstore\n        /* \"#utility.yul\":10953:11131   */\n      pop\n      jump\t// out\n        /* \"#utility.yul\":11137:11317   */\n    tag_414:\n        /* \"#utility.yul\":11305:11310   */\n      0x20504d0000000000000000000000000000000000000000000000000000000000\n        /* \"#utility.yul\":11300:11303   */\n      dup2\n        /* \"#utility.yul\":11293:11311   */\n      mstore\n        /* \"#utility.yul\":11137:11317   */\n      pop\n      jump\t// out\n        /* \"#utility.yul\":11323:12286   */\n    tag_144:\n        /* \"#utility.yul\":11683:11686   */\n      0x00\n        /* \"#utility.yul\":11705:11800   */\n      tag_531\n        /* \"#utility.yul\":11796:11799   */\n      dup3\n        /* \"#utility.yul\":11787:11793   */\n      dup6\n        /* \"#utility.yul\":11705:11800   */\n      tag_411\n      jump\t// in\n    tag_531:\n        /* \"#utility.yul\":11698:11800   */\n      swap2\n      pop\n        /* \"#utility.yul\":11810:11947   */\n      tag_532\n        /* \"#utility.yul\":11943:11946   */\n      dup3\n        /* \"#utility.yul\":11810:11947   */\n      tag_413\n      jump\t// in\n    tag_532:\n        /* \"#utility.yul\":11972:11973   */\n      0x01\n        /* \"#utility.yul\":11967:11970   */\n      dup3\n        /* \"#utility.yul\":11963:11974   */\n      add\n        /* \"#utility.yul\":11956:11974   */\n      swap2\n      pop\n        /* \"#utility.yul\":11991:12086   */\n      tag_533\n        /* \"#utility.yul\":12082:12085   */\n      dup3\n        /* \"#utility.yul\":12073:12079   */\n      dup5\n        /* \"#utility.yul\":11991:12086   */\n      tag_411\n      jump\t// in\n    tag_533:\n        /* \"#utility.yul\":11984:12086   */\n      swap2\n      pop\n        /* \"#utility.yul\":12096:12233   */\n      tag_534\n        /* \"#utility.yul\":12229:12232   */\n      dup3\n        /* \"#utility.yul\":12096:12233   */\n      tag_414\n      jump\t// in\n    tag_534:\n        /* \"#utility.yul\":12258:12259   */\n      0x03\n        /* \"#utility.yul\":12253:12256   */\n      dup3\n        /* \"#utility.yul\":12249:12260   */\n      add\n        /* \"#utility.yul\":12242:12260   */\n      swap2\n      pop\n        /* \"#utility.yul\":12277:12280   */\n      dup2\n        /* \"#utility.yul\":12270:12280   */\n      swap1\n      pop\n        /* \"#utility.yul\":11323:12286   */\n      swap4\n      swap3\n      pop\n      pop\n      pop\n      jump\t// out\n        /* \"#utility.yul\":12292:12472   */\n    tag_415:\n        /* \"#utility.yul\":12460:12465   */\n      0x20414d0000000000000000000000000000000000000000000000000000000000\n        /* \"#utility.yul\":12455:12458   */\n      dup2\n        /* \"#utility.yul\":12448:12466   */\n      mstore\n        /* \"#utility.yul\":12292:12472   */\n      pop\n      jump\t// out\n        /* \"#utility.yul\":12478:13441   */\n    tag_149:\n        /* \"#utility.yul\":12838:12841   */\n      0x00\n        /* \"#utility.yul\":12860:12955   */\n      tag_537\n        /* \"#utility.yul\":12951:12954   */\n      dup3\n        /* \"#utility.yul\":12942:12948   */\n      dup6\n        /* \"#utility.yul\":12860:12955   */\n      tag_411\n      jump\t// in\n    tag_537:\n        /* \"#utility.yul\":12853:12955   */\n      swap2\n      pop\n        /* \"#utility.yul\":12965:13102   */\n      tag_538\n        /* \"#utility.yul\":13098:13101   */\n      dup3\n        /* \"#utility.yul\":12965:13102   */\n      tag_413\n      jump\t// in\n    tag_538:\n        /* \"#utility.yul\":13127:13128   */\n      0x01\n        /* \"#utility.yul\":13122:13125   */\n      dup3\n        /* \"#utility.yul\":13118:13129   */\n      add\n        /* \"#utility.yul\":13111:13129   */\n      swap2\n      pop\n        /* \"#utility.yul\":13146:13241   */\n      tag_539\n        /* \"#utility.yul\":13237:13240   */\n      dup3\n        /* \"#utility.yul\":13228:13234   */\n      dup5\n        /* \"#utility.yul\":13146:13241   */\n      tag_411\n      jump\t// in\n    tag_539:\n        /* \"#utility.yul\":13139:13241   */\n      swap2\n      pop\n        /* \"#utility.yul\":13251:13388   */\n      tag_540\n        /* \"#utility.yul\":13384:13387   */\n      dup3\n        /* \"#utility.yul\":13251:13388   */\n      tag_415\n      jump\t// in\n    tag_540:\n        /* \"#utility.yul\":13413:13414   */\n      0x03\n        /* \"#utility.yul\":13408:13411   */\n      dup3\n        /* \"#utility.yul\":13404:13415   */\n      add\n        /* \"#utility.yul\":13397:13415   */\n      swap2\n      pop\n        /* \"#utility.yul\":13432:13435   */\n      dup2\n        /* \"#utility.yul\":13425:13435   */\n      swap1\n      pop\n        /* \"#utility.yul\":12478:13441   */\n      swap4\n      swap3\n      pop\n      pop\n      pop\n      jump\t// out\n        /* \"#utility.yul\":13447:14003   */\n    tag_152:\n        /* \"#utility.yul\":13486:13493   */\n      0x00\n        /* \"#utility.yul\":13509:13528   */\n      tag_542\n        /* \"#utility.yul\":13526:13527   */\n      dup3\n        /* \"#utility.yul\":13509:13528   */\n      tag_400\n      jump\t// in\n    tag_542:\n        /* \"#utility.yul\":13504:13528   */\n      swap2\n      pop\n        /* \"#utility.yul\":13542:13561   */\n      tag_543\n        /* \"#utility.yul\":13559:13560   */\n      dup4\n        /* \"#utility.yul\":13542:13561   */\n      tag_400\n      jump\t// in\n    tag_543:\n        /* \"#utility.yul\":13537:13561   */\n      swap3\n      pop\n        /* \"#utility.yul\":13596:13597   */\n      dup3\n        /* \"#utility.yul\":13593:13594   */\n      dup3\n        /* \"#utility.yul\":13589:13598   */\n      mul\n        /* \"#utility.yul\":13618:13647   */\n      tag_544\n        /* \"#utility.yul\":13635:13646   */\n      dup2\n        /* \"#utility.yul\":13618:13647   */\n      tag_400\n      jump\t// in\n    tag_544:\n        /* \"#utility.yul\":13607:13647   */\n      swap2\n      pop\n        /* \"#utility.yul\":13705:13771   */\n      0x8000000000000000000000000000000000000000000000000000000000000000\n        /* \"#utility.yul\":13702:13703   */\n      dup5\n        /* \"#utility.yul\":13699:13772   */\n      eq\n        /* \"#utility.yul\":13695:13696   */\n      0x00\n        /* \"#utility.yul\":13692:13693   */\n      dup5\n        /* \"#utility.yul\":13688:13697   */\n      slt\n        /* \"#utility.yul\":13684:13773   */\n      and\n        /* \"#utility.yul\":13681:13796   */\n      iszero\n      tag_545\n      jumpi\n        /* \"#utility.yul\":13776:13794   */\n      tag_546\n      tag_409\n      jump\t// in\n    tag_546:\n        /* \"#utility.yul\":13681:13796   */\n    tag_545:\n        /* \"#utility.yul\":13946:13947   */\n      dup3\n        /* \"#utility.yul\":13937:13944   */\n      dup3\n        /* \"#utility.yul\":13932:13948   */\n      sdiv\n        /* \"#utility.yul\":13929:13930   */\n      dup5\n        /* \"#utility.yul\":13926:13949   */\n      eq\n        /* \"#utility.yul\":13906:13907   */\n      dup4\n        /* \"#utility.yul\":13899:13908   */\n      iszero\n        /* \"#utility.yul\":13879:13963   */\n      or\n        /* \"#utility.yul\":13856:13996   */\n      tag_547\n      jumpi\n        /* \"#utility.yul\":13976:13994   */\n      tag_548\n      tag_409\n      jump\t// in\n    tag_548:\n        /* \"#utility.yul\":13856:13996   */\n    tag_547:\n        /* \"#utility.yul\":13494:14003   */\n      pop\n        /* \"#utility.yul\":13447:14003   */\n      swap3\n      swap2\n      pop\n      pop\n      jump\t// out\n        /* \"#utility.yul\":14009:14384   */\n    tag_154:\n        /* \"#utility.yul\":14048:14051   */\n      0x00\n        /* \"#utility.yul\":14067:14086   */\n      tag_550\n        /* \"#utility.yul\":14084:14085   */\n      dup3\n        /* \"#utility.yul\":14067:14086   */\n      tag_400\n      jump\t// in\n    tag_550:\n        /* \"#utility.yul\":14062:14086   */\n      swap2\n      pop\n        /* \"#utility.yul\":14100:14119   */\n      tag_551\n        /* \"#utility.yul\":14117:14118   */\n      dup4\n        /* \"#utility.yul\":14100:14119   */\n      tag_400\n      jump\t// in\n    tag_551:\n        /* \"#utility.yul\":14095:14119   */\n      swap3\n      pop\n        /* \"#utility.yul\":14142:14143   */\n      dup3\n        /* \"#utility.yul\":14139:14140   */\n      dup3\n        /* \"#utility.yul\":14135:14144   */\n      add\n        /* \"#utility.yul\":14128:14144   */\n      swap1\n      pop\n        /* \"#utility.yul\":14340:14341   */\n      dup3\n        /* \"#utility.yul\":14335:14338   */\n      dup2\n        /* \"#utility.yul\":14331:14342   */\n      slt\n        /* \"#utility.yul\":14324:14343   */\n      iszero\n        /* \"#utility.yul\":14320:14321   */\n      0x00\n        /* \"#utility.yul\":14317:14318   */\n      dup4\n        /* \"#utility.yul\":14313:14322   */\n      slt\n        /* \"#utility.yul\":14309:14344   */\n      and\n        /* \"#utility.yul\":14292:14293   */\n      dup4\n        /* \"#utility.yul\":14287:14290   */\n      dup3\n        /* \"#utility.yul\":14283:14294   */\n      slt\n        /* \"#utility.yul\":14278:14279   */\n      0x00\n        /* \"#utility.yul\":14275:14276   */\n      dup5\n        /* \"#utility.yul\":14271:14280   */\n      slt\n        /* \"#utility.yul\":14264:14281   */\n      iszero\n        /* \"#utility.yul\":14260:14295   */\n      and\n        /* \"#utility.yul\":14244:14354   */\n      or\n        /* \"#utility.yul\":14241:14377   */\n      iszero\n      tag_552\n      jumpi\n        /* \"#utility.yul\":14357:14375   */\n      tag_553\n      tag_409\n      jump\t// in\n    tag_553:\n        /* \"#utility.yul\":14241:14377   */\n    tag_552:\n        /* \"#utility.yul\":14009:14384   */\n      swap3\n      swap2\n      pop\n      pop\n      jump\t// out\n        /* \"#utility.yul\":14390:15089   */\n    tag_185:\n        /* \"#utility.yul\":14660:14663   */\n      0x00\n        /* \"#utility.yul\":14682:14777   */\n      tag_555\n        /* \"#utility.yul\":14773:14776   */\n      dup3\n        /* \"#utility.yul\":14764:14770   */\n      dup6\n        /* \"#utility.yul\":14682:14777   */\n      tag_411\n      jump\t// in\n    tag_555:\n        /* \"#utility.yul\":14675:14777   */\n      swap2\n      pop\n        /* \"#utility.yul\":14787:14924   */\n      tag_556\n        /* \"#utility.yul\":14920:14923   */\n      dup3\n        /* \"#utility.yul\":14787:14924   */\n      tag_413\n      jump\t// in\n    tag_556:\n        /* \"#utility.yul\":14949:14950   */\n      0x01\n        /* \"#utility.yul\":14944:14947   */\n      dup3\n        /* \"#utility.yul\":14940:14951   */\n      add\n        /* \"#utility.yul\":14933:14951   */\n      swap2\n      pop\n        /* \"#utility.yul\":14968:15063   */\n      tag_557\n        /* \"#utility.yul\":15059:15062   */\n      dup3\n        /* \"#utility.yul\":15050:15056   */\n      dup5\n        /* \"#utility.yul\":14968:15063   */\n      tag_411\n      jump\t// in\n    tag_557:\n        /* \"#utility.yul\":14961:15063   */\n      swap2\n      pop\n        /* \"#utility.yul\":15080:15083   */\n      dup2\n        /* \"#utility.yul\":15073:15083   */\n      swap1\n      pop\n        /* \"#utility.yul\":14390:15089   */\n      swap4\n      swap3\n      pop\n      pop\n      pop\n      jump\t// out\n        /* \"#utility.yul\":15095:15273   */\n    tag_416:\n        /* \"#utility.yul\":15263:15266   */\n      0x2000000000000000000000000000000000000000000000000000000000000000\n        /* \"#utility.yul\":15258:15261   */\n      dup2\n        /* \"#utility.yul\":15251:15267   */\n      mstore\n        /* \"#utility.yul\":15095:15273   */\n      pop\n      jump\t// out\n        /* \"#utility.yul\":15279:15978   */\n    tag_187:\n        /* \"#utility.yul\":15549:15552   */\n      0x00\n        /* \"#utility.yul\":15571:15666   */\n      tag_560\n        /* \"#utility.yul\":15662:15665   */\n      dup3\n        /* \"#utility.yul\":15653:15659   */\n      dup6\n        /* \"#utility.yul\":15571:15666   */\n      tag_411\n      jump\t// in\n    tag_560:\n        /* \"#utility.yul\":15564:15666   */\n      swap2\n      pop\n        /* \"#utility.yul\":15676:15813   */\n      tag_561\n        /* \"#utility.yul\":15809:15812   */\n      dup3\n        /* \"#utility.yul\":15676:15813   */\n      tag_416\n      jump\t// in\n    tag_561:\n        /* \"#utility.yul\":15838:15839   */\n      0x01\n        /* \"#utility.yul\":15833:15836   */\n      dup3\n        /* \"#utility.yul\":15829:15840   */\n      add\n        /* \"#utility.yul\":15822:15840   */\n      swap2\n      pop\n        /* \"#utility.yul\":15857:15952   */\n      tag_562\n        /* \"#utility.yul\":15948:15951   */\n      dup3\n        /* \"#utility.yul\":15939:15945   */\n      dup5\n        /* \"#utility.yul\":15857:15952   */\n      tag_411\n      jump\t// in\n    tag_562:\n        /* \"#utility.yul\":15850:15952   */\n      swap2\n      pop\n        /* \"#utility.yul\":15969:15972   */\n      dup2\n        /* \"#utility.yul\":15962:15972   */\n      swap1\n      pop\n        /* \"#utility.yul\":15279:15978   */\n      swap4\n      swap3\n      pop\n      pop\n      pop\n      jump\t// out\n        /* \"#utility.yul\":15984:16164   */\n    tag_253:\n        /* \"#utility.yul\":16032:16109   */\n      0x4e487b7100000000000000000000000000000000000000000000000000000000\n        /* \"#utility.yul\":16029:16030   */\n      0x00\n        /* \"#utility.yul\":16022:16110   */\n      mstore\n        /* \"#utility.yul\":16129:16133   */\n      0x12\n        /* \"#utility.yul\":16126:16127   */\n      0x04\n        /* \"#utility.yul\":16119:16134   */\n      mstore\n        /* \"#utility.yul\":16153:16157   */\n      0x24\n        /* \"#utility.yul\":16150:16151   */\n      0x00\n        /* \"#utility.yul\":16143:16158   */\n      revert\n        /* \"#utility.yul\":16170:16355   */\n    tag_194:\n        /* \"#utility.yul\":16210:16211   */\n      0x00\n        /* \"#utility.yul\":16227:16247   */\n      tag_565\n        /* \"#utility.yul\":16245:16246   */\n      dup3\n        /* \"#utility.yul\":16227:16247   */\n      tag_397\n      jump\t// in\n    tag_565:\n        /* \"#utility.yul\":16222:16247   */\n      swap2\n      pop\n        /* \"#utility.yul\":16261:16281   */\n      tag_566\n        /* \"#utility.yul\":16279:16280   */\n      dup4\n        /* \"#utility.yul\":16261:16281   */\n      tag_397\n      jump\t// in\n    tag_566:\n        /* \"#utility.yul\":16256:16281   */\n      swap3\n      pop\n        /* \"#utility.yul\":16300:16301   */\n      dup3\n        /* \"#utility.yul\":16290:16325   */\n      tag_567\n      jumpi\n        /* \"#utility.yul\":16305:16323   */\n      tag_568\n      tag_253\n      jump\t// in\n    tag_568:\n        /* \"#utility.yul\":16290:16325   */\n    tag_567:\n        /* \"#utility.yul\":16347:16348   */\n      dup3\n        /* \"#utility.yul\":16344:16345   */\n      dup3\n        /* \"#utility.yul\":16340:16349   */\n      div\n        /* \"#utility.yul\":16335:16349   */\n      swap1\n      pop\n        /* \"#utility.yul\":16170:16355   */\n      swap3\n      swap2\n      pop\n      pop\n      jump\t// out\n        /* \"#utility.yul\":16361:16537   */\n    tag_197:\n        /* \"#utility.yul\":16393:16394   */\n      0x00\n        /* \"#utility.yul\":16410:16430   */\n      tag_570\n        /* \"#utility.yul\":16428:16429   */\n      dup3\n        /* \"#utility.yul\":16410:16430   */\n      tag_397\n      jump\t// in\n    tag_570:\n        /* \"#utility.yul\":16405:16430   */\n      swap2\n      pop\n        /* \"#utility.yul\":16444:16464   */\n      tag_571\n        /* \"#utility.yul\":16462:16463   */\n      dup4\n        /* \"#utility.yul\":16444:16464   */\n      tag_397\n      jump\t// in\n    tag_571:\n        /* \"#utility.yul\":16439:16464   */\n      swap3\n      pop\n        /* \"#utility.yul\":16483:16484   */\n      dup3\n        /* \"#utility.yul\":16473:16508   */\n      tag_572\n      jumpi\n        /* \"#utility.yul\":16488:16506   */\n      tag_573\n      tag_253\n      jump\t// in\n    tag_573:\n        /* \"#utility.yul\":16473:16508   */\n    tag_572:\n        /* \"#utility.yul\":16529:16530   */\n      dup3\n        /* \"#utility.yul\":16526:16527   */\n      dup3\n        /* \"#utility.yul\":16522:16531   */\n      mod\n        /* \"#utility.yul\":16517:16531   */\n      swap1\n      pop\n        /* \"#utility.yul\":16361:16537   */\n      swap3\n      swap2\n      pop\n      pop\n      jump\t// out\n        /* \"#utility.yul\":16543:16771   */\n    tag_208:\n        /* \"#utility.yul\":16578:16581   */\n      0x00\n        /* \"#utility.yul\":16601:16624   */\n      tag_575\n        /* \"#utility.yul\":16618:16623   */\n      dup3\n        /* \"#utility.yul\":16601:16624   */\n      tag_400\n      jump\t// in\n    tag_575:\n        /* \"#utility.yul\":16592:16624   */\n      swap2\n      pop\n        /* \"#utility.yul\":16646:16712   */\n      0x8000000000000000000000000000000000000000000000000000000000000000\n        /* \"#utility.yul\":16639:16644   */\n      dup3\n        /* \"#utility.yul\":16636:16713   */\n      sub\n        /* \"#utility.yul\":16633:16736   */\n      tag_576\n      jumpi\n        /* \"#utility.yul\":16716:16734   */\n      tag_577\n      tag_409\n      jump\t// in\n    tag_577:\n        /* \"#utility.yul\":16633:16736   */\n    tag_576:\n        /* \"#utility.yul\":16759:16764   */\n      dup2\n        /* \"#utility.yul\":16756:16757   */\n      0x00\n        /* \"#utility.yul\":16752:16765   */\n      sub\n        /* \"#utility.yul\":16745:16765   */\n      swap1\n      pop\n        /* \"#utility.yul\":16543:16771   */\n      swap2\n      swap1\n      pop\n      jump\t// out\n        /* \"#utility.yul\":16777:16957   */\n    tag_247:\n        /* \"#utility.yul\":16825:16902   */\n      0x4e487b7100000000000000000000000000000000000000000000000000000000\n        /* \"#utility.yul\":16822:16823   */\n      0x00\n        /* \"#utility.yul\":16815:16903   */\n      mstore\n        /* \"#utility.yul\":16922:16926   */\n      0x41\n        /* \"#utility.yul\":16919:16920   */\n      0x04\n        /* \"#utility.yul\":16912:16927   */\n      mstore\n        /* \"#utility.yul\":16946:16950   */\n      0x24\n        /* \"#utility.yul\":16943:16944   */\n      0x00\n        /* \"#utility.yul\":16936:16951   */\n      revert\n        /* \"#utility.yul\":16963:17348   */\n    tag_320:\n        /* \"#utility.yul\":17002:17003   */\n      0x00\n        /* \"#utility.yul\":17019:17038   */\n      tag_580\n        /* \"#utility.yul\":17036:17037   */\n      dup3\n        /* \"#utility.yul\":17019:17038   */\n      tag_400\n      jump\t// in\n    tag_580:\n        /* \"#utility.yul\":17014:17038   */\n      swap2\n      pop\n        /* \"#utility.yul\":17052:17071   */\n      tag_581\n        /* \"#utility.yul\":17069:17070   */\n      dup4\n        /* \"#utility.yul\":17052:17071   */\n      tag_400\n      jump\t// in\n    tag_581:\n        /* \"#utility.yul\":17047:17071   */\n      swap3\n      pop\n        /* \"#utility.yul\":17090:17091   */\n      dup3\n        /* \"#utility.yul\":17080:17115   */\n      tag_582\n      jumpi\n        /* \"#utility.yul\":17095:17113   */\n      tag_583\n      tag_253\n      jump\t// in\n    tag_583:\n        /* \"#utility.yul\":17080:17115   */\n    tag_582:\n        /* \"#utility.yul\":17281:17282   */\n      0x01\n        /* \"#utility.yul\":17278:17279   */\n      0x00\n        /* \"#utility.yul\":17274:17283   */\n      sub\n        /* \"#utility.yul\":17271:17272   */\n      dup4\n        /* \"#utility.yul\":17268:17284   */\n      eq\n        /* \"#utility.yul\":17187:17253   */\n      0x8000000000000000000000000000000000000000000000000000000000000000\n        /* \"#utility.yul\":17184:17185   */\n      dup4\n        /* \"#utility.yul\":17181:17254   */\n      eq\n        /* \"#utility.yul\":17164:17294   */\n      and\n        /* \"#utility.yul\":17161:17317   */\n      iszero\n      tag_584\n      jumpi\n        /* \"#utility.yul\":17297:17315   */\n      tag_585\n      tag_409\n      jump\t// in\n    tag_585:\n        /* \"#utility.yul\":17161:17317   */\n    tag_584:\n        /* \"#utility.yul\":17340:17341   */\n      dup3\n        /* \"#utility.yul\":17337:17338   */\n      dup3\n        /* \"#utility.yul\":17332:17342   */\n      sdiv\n        /* \"#utility.yul\":17327:17342   */\n      swap1\n      pop\n        /* \"#utility.yul\":16963:17348   */\n      swap3\n      swap2\n      pop\n      pop\n      jump\t// out\n        /* \"#utility.yul\":17354:17726   */\n    tag_325:\n        /* \"#utility.yul\":17393:17397   */\n      0x00\n        /* \"#utility.yul\":17413:17432   */\n      tag_587\n        /* \"#utility.yul\":17430:17431   */\n      dup3\n        /* \"#utility.yul\":17413:17432   */\n      tag_400\n      jump\t// in\n    tag_587:\n        /* \"#utility.yul\":17408:17432   */\n      swap2\n      pop\n        /* \"#utility.yul\":17446:17465   */\n      tag_588\n        /* \"#utility.yul\":17463:17464   */\n      dup4\n        /* \"#utility.yul\":17446:17465   */\n      tag_400\n      jump\t// in\n    tag_588:\n        /* \"#utility.yul\":17441:17465   */\n      swap3\n      pop\n        /* \"#utility.yul\":17489:17490   */\n      dup3\n        /* \"#utility.yul\":17486:17487   */\n      dup3\n        /* \"#utility.yul\":17482:17491   */\n      sub\n        /* \"#utility.yul\":17474:17491   */\n      swap1\n      pop\n        /* \"#utility.yul\":17683:17684   */\n      dup2\n        /* \"#utility.yul\":17677:17681   */\n      dup2\n        /* \"#utility.yul\":17673:17685   */\n      slt\n        /* \"#utility.yul\":17669:17670   */\n      0x00\n        /* \"#utility.yul\":17666:17667   */\n      dup5\n        /* \"#utility.yul\":17662:17671   */\n      slt\n        /* \"#utility.yul\":17658:17686   */\n      and\n        /* \"#utility.yul\":17641:17642   */\n      dup3\n        /* \"#utility.yul\":17635:17639   */\n      dup3\n        /* \"#utility.yul\":17631:17643   */\n      sgt\n        /* \"#utility.yul\":17626:17627   */\n      0x00\n        /* \"#utility.yul\":17623:17624   */\n      dup6\n        /* \"#utility.yul\":17619:17628   */\n      slt\n        /* \"#utility.yul\":17612:17629   */\n      iszero\n        /* \"#utility.yul\":17608:17644   */\n      and\n        /* \"#utility.yul\":17592:17696   */\n      or\n        /* \"#utility.yul\":17589:17719   */\n      iszero\n      tag_589\n      jumpi\n        /* \"#utility.yul\":17699:17717   */\n      tag_590\n      tag_409\n      jump\t// in\n    tag_590:\n        /* \"#utility.yul\":17589:17719   */\n    tag_589:\n        /* \"#utility.yul\":17354:17726   */\n      swap3\n      swap2\n      pop\n      pop\n      jump\t// out\n\n    auxdata: 0xa264697066735822122020a5b983e925535bea0ca2a8d1533a6999ea51d2480e985a56b664cb922eb3fe64736f6c63430008130033\n}\n",
				"bytecode": {
					"linkReferences": {},
					"object": "608060405234801561001057600080fd5b50611c40806100206000396000f3fe608060405234801561001057600080fd5b50600436106101375760003560e01c80637bbb7570116100b8578063be9afac71161007c578063be9afac714610417578063c0ad332814610447578063c7b6fd6a14610477578063c8dc5a22146104a7578063cf6a169c146104d7578063eee32dff1461050757610137565b80637bbb75701461031e57806384a98eb91461035057806390c9f84414610382578063a2df2245146103b2578063a434f137146103e757610137565b806356551f26116100ff57806356551f261461022e578063576b26411461025e5780636986182d1461028e5780636afa9dc5146102be5780637217523c146102ee57610137565b806309d308ce1461013c57806311f909651461016c578063126a4bf31461019d5780634b31311a146101cd5780634c323edd146101fd575b600080fd5b61015660048036038101906101519190611303565b610537565b6040516101639190611352565b60405180910390f35b61018660048036038101906101819190611303565b610588565b6040516101949291906113fd565b60405180910390f35b6101b760048036038101906101b29190611303565b610675565b6040516101c49190611352565b60405180910390f35b6101e760048036038101906101e29190611434565b6106aa565b6040516101f49190611461565b60405180910390f35b61021760048036038101906102129190611303565b610706565b604051610225929190611483565b60405180910390f35b61024860048036038101906102439190611303565b610733565b6040516102559190611352565b60405180910390f35b61027860048036038101906102739190611303565b61075f565b6040516102859190611352565b60405180910390f35b6102a860048036038101906102a39190611303565b61078d565b6040516102b59190611352565b60405180910390f35b6102d860048036038101906102d39190611303565b6107ba565b6040516102e59190611461565b60405180910390f35b610308600480360381019061030391906114ac565b610880565b6040516103159190611352565b60405180910390f35b61033860048036038101906103339190611434565b6108a1565b604051610347939291906114ec565b60405180910390f35b61036a60048036038101906103659190611303565b6108e6565b604051610379939291906114ec565b60405180910390f35b61039c60048036038101906103979190611523565b61090d565b6040516103a99190611352565b60405180910390f35b6103cc60048036038101906103c79190611303565b61093f565b6040516103de969594939291906115c5565b60405180910390f35b61040160048036038101906103fc9190611626565b610973565b60405161040e9190611352565b60405180910390f35b610431600480360381019061042c91906114ac565b61098b565b60405161043e9190611352565b60405180910390f35b610461600480360381019061045c9190611626565b61099f565b60405161046e9190611352565b60405180910390f35b610491600480360381019061048c91906114ac565b6109cb565b60405161049e9190611352565b60405180910390f35b6104c160048036038101906104bc9190611303565b6109ec565b6040516104ce9190611352565b60405180910390f35b6104f160048036038101906104ec9190611303565b610a22565b6040516104fe9190611461565b60405180910390f35b610521600480360381019061051c9190611303565b610a80565b60405161052e9190611352565b60405180910390f35b60008060008061054786866108e6565b9250925092508060648361055b91906116bc565b6127108561056991906116bc565b61057391906116fe565b61057d91906116fe565b935050505092915050565b606080600080600080600061059d898961093f565b50945094509450945094506105b183610aad565b6105ba85610aad565b6105c387610aad565b6040516020016105d593929190611794565b6040516020818303038152906040529650600c82111561063457610604600c836105ff91906117e3565b610aad565b61060d82610aad565b60405160200161061e929190611863565b6040516020818303038152906040529550610669565b61063d82610aad565b61064682610aad565b6040516020016106579291906118cb565b60405160208183030381529060405295505b50505050509250929050565b60008082610e10610686919061190d565b846106919190611985565b9050600081136106a057600080fd5b8091505092915050565b606060008060006106ba856108a1565b9250925092506106c981610aad565b6106d283610aad565b6106db85610aad565b6040516020016106ed93929190611794565b6040516020818303038152906040529350505050919050565b6000806107138484610537565b915061071f848461078d565b8461072a91906117e3565b90509250929050565b600080600080610742866108a1565b9250925092506107548383838861099f565b935050505092915050565b6000600162015180610771858561078d565b61077b91906116fe565b61078591906117e3565b905092915050565b60008060008061079d86866108e6565b9250925092506107af8383838861099f565b935050505092915050565b606060008060008060006107ce888861093f565b509450945094509450945060006107e484610aad565b6107ed86610aad565b6107f688610aad565b60405160200161080893929190611794565b6040516020818303038152906040529050600061082484610aad565b61082d84610aad565b60405160200161083e9291906119c9565b60405160208183030381529060405290508082604051602001610862929190611a22565b60405160208183030381529060405297505050505050505092915050565b600061088c8383610b7b565b90508281101561089b57600080fd5b92915050565b6000806000612710846108b49190611a84565b9250606480856108c49190611a84565b6108ce9190611ab5565b91506064846108dd9190611ab5565b90509193909250565b60008060006108f58585610675565b945061090085610bac565b9250925092509250925092565b600061091d888888888888610bdb565b9050610932818361092d90611ae6565b610675565b9050979650505050505050565b6000806000806000806109528888610675565b975061095d88610c3c565b9550955095509550955095509295509295509295565b60006109818585858561099f565b9050949350505050565b60006109978383610cc3565b905092915050565b60006109ac858585610cd7565b90506109c181836109bc90611ae6565b610675565b9050949350505050565b60006109d78383610cfb565b9050828111156109e657600080fd5b92915050565b60008060006109fb85856108e6565b509150915080606483610a0e91906116bc565b610a1891906116fe565b9250505092915050565b60606000806000610a3386866108e6565b925092509250610a4281610aad565b610a4b83610aad565b610a5485610aad565b604051602001610a6693929190611794565b604051602081830303815290604052935050505092915050565b600080610a8d8484610733565b9050610a998184610675565b9050610aa481610d2c565b91505092915050565b606060006001610abc84610d6d565b01905060008167ffffffffffffffff811115610adb57610ada611b2e565b5b6040519080825280601f01601f191660200182016040528015610b0d5781602001600182028036833780820191505090505b509050600082602001820190505b600115610b70578080600190039150507f3031323334353637383961626364656600000000000000000000000000000000600a86061a8153600a8581610b6457610b63611a55565b5b04945060008503610b1b575b819350505050919050565b60006201518082610b8c91906116bc565b83610b9791906116fe565b905082811015610ba657600080fd5b92915050565b6000806000610bc86201518085610bc39190611a84565b610ec0565b8093508194508295505050509193909250565b600081603c84610beb91906116bc565b610e1086610bf991906116bc565b62015180610c088b8b8b61105f565b610c1291906116bc565b610c1c91906116fe565b610c2691906116fe565b610c3091906116fe565b90509695505050505050565b600080600080600080610c5c6201518088610c579190611a84565b610ec0565b80965081975082985050505060006201518088610c799190611ab5565b9050610e1081610c899190611a84565b9350610e1081610c999190611ab5565b9050603c81610ca89190611a84565b9250603c81610cb79190611ab5565b91505091939550919395565b6000610ccf83836111be565b905092915050565b600062015180610ce885858561105f565b610cf291906116bc565b90509392505050565b60006201518082610d0c91906116bc565b83610d1791906117e3565b905082811115610d2657600080fd5b92915050565b6000806201518083610d3e9190611a84565b905060016007600383610d5191906116fe565b610d5b9190611ab5565b610d6591906116fe565b915050919050565b600080600090507a184f03e93ff9f4daa797ed6e38ed64bf6a1f0100000000000000008310610dcb577a184f03e93ff9f4daa797ed6e38ed64bf6a1f0100000000000000008381610dc157610dc0611a55565b5b0492506040810190505b6d04ee2d6d415b85acef81000000008310610e08576d04ee2d6d415b85acef81000000008381610dfe57610dfd611a55565b5b0492506020810190505b662386f26fc100008310610e3757662386f26fc100008381610e2d57610e2c611a55565b5b0492506010810190505b6305f5e1008310610e60576305f5e1008381610e5657610e55611a55565b5b0492506008810190505b6127108310610e85576127108381610e7b57610e7a611a55565b5b0492506004810190505b60648310610ea85760648381610e9e57610e9d611a55565b5b0492506002810190505b600a8310610eb7576001810190505b80915050919050565b600080600080849050600062253d8c62010bd983610ede9190611985565b610ee89190611985565b9050600062023ab1826004610efd919061190d565b610f079190611b5d565b9050600460038262023ab1610f1c919061190d565b610f269190611985565b610f309190611b5d565b82610f3b9190611bc7565b9150600062164b09600184610f509190611985565b610fa0610f5d919061190d565b610f679190611b5d565b9050601f6004826105b5610f7b919061190d565b610f859190611b5d565b84610f909190611bc7565b610f9a9190611985565b9250600061098f846050610fae919061190d565b610fb89190611b5d565b9050600060508261098f610fcc919061190d565b610fd69190611b5d565b85610fe19190611bc7565b9050600b82610ff09190611b5d565b945084600c610fff919061190d565b60028361100c9190611985565b6110169190611bc7565b915084836031866110279190611bc7565b6064611033919061190d565b61103d9190611985565b6110479190611985565b92508298508197508096505050505050509193909250565b60006107b284101561107057600080fd5b600084905060008490506000849050600062253d8c60046064600c600e876110989190611bc7565b6110a29190611b5d565b611324886110b09190611985565b6110ba9190611985565b6110c49190611b5d565b60036110d0919061190d565b6110da9190611b5d565b600c80600c600e886110ec9190611bc7565b6110f69190611b5d565b611100919061190d565b60028761110d9190611bc7565b6111179190611bc7565b61016f611124919061190d565b61112e9190611b5d565b6004600c600e8861113f9190611bc7565b6111499190611b5d565b6112c0896111579190611985565b6111619190611985565b6105b561116e919061190d565b6111789190611b5d565b617d4b866111869190611bc7565b6111909190611985565b61119a9190611985565b6111a49190611bc7565b6111ae9190611bc7565b9050809450505050509392505050565b600060018214806111cf5750600382145b806111da5750600582145b806111e55750600782145b806111f05750600882145b806111fb5750600a82145b806112065750600c82145b1561121457601f9050611243565b6002821461122557601e9050611242565b61122e83611249565b61123957601c61123c565b601d5b60ff1690505b5b92915050565b6000806004836112599190611ab5565b148015611273575060006064836112709190611ab5565b14155b8061128b57506000610190836112899190611ab5565b145b9050919050565b600080fd5b6000819050919050565b6112aa81611297565b81146112b557600080fd5b50565b6000813590506112c7816112a1565b92915050565b6000819050919050565b6112e0816112cd565b81146112eb57600080fd5b50565b6000813590506112fd816112d7565b92915050565b6000806040838503121561131a57611319611292565b5b6000611328858286016112b8565b9250506020611339858286016112ee565b9150509250929050565b61134c81611297565b82525050565b60006020820190506113676000830184611343565b92915050565b600081519050919050565b600082825260208201905092915050565b60005b838110156113a757808201518184015260208101905061138c565b60008484015250505050565b6000601f19601f8301169050919050565b60006113cf8261136d565b6113d98185611378565b93506113e9818560208601611389565b6113f2816113b3565b840191505092915050565b6000604082019050818103600083015261141781856113c4565b9050818103602083015261142b81846113c4565b90509392505050565b60006020828403121561144a57611449611292565b5b6000611458848285016112b8565b91505092915050565b6000602082019050818103600083015261147b81846113c4565b905092915050565b60006040820190506114986000830185611343565b6114a56020830184611343565b9392505050565b600080604083850312156114c3576114c2611292565b5b60006114d1858286016112b8565b92505060206114e2858286016112b8565b9150509250929050565b60006060820190506115016000830186611343565b61150e6020830185611343565b61151b6040830184611343565b949350505050565b600080600080600080600060e0888a03121561154257611541611292565b5b60006115508a828b016112b8565b97505060206115618a828b016112b8565b96505060406115728a828b016112b8565b95505060606115838a828b016112b8565b94505060806115948a828b016112b8565b93505060a06115a58a828b016112b8565b92505060c06115b68a828b016112ee565b91505092959891949750929550565b600060c0820190506115da6000830189611343565b6115e76020830188611343565b6115f46040830187611343565b6116016060830186611343565b61160e6080830185611343565b61161b60a0830184611343565b979650505050505050565b600080600080608085870312156116405761163f611292565b5b600061164e878288016112b8565b945050602061165f878288016112b8565b9350506040611670878288016112b8565b9250506060611681878288016112ee565b91505092959194509250565b7f4e487b7100000000000000000000000000000000000000000000000000000000600052601160045260246000fd5b60006116c782611297565b91506116d283611297565b92508282026116e081611297565b915082820484148315176116f7576116f661168d565b5b5092915050565b600061170982611297565b915061171483611297565b925082820190508082111561172c5761172b61168d565b5b92915050565b600081905092915050565b60006117488261136d565b6117528185611732565b9350611762818560208601611389565b80840191505092915050565b7f2f00000000000000000000000000000000000000000000000000000000000000815250565b60006117a0828661173d565b91506117ab8261176e565b6001820191506117bb828561173d565b91506117c68261176e565b6001820191506117d6828461173d565b9150819050949350505050565b60006117ee82611297565b91506117f983611297565b92508282039050818111156118115761181061168d565b5b92915050565b7f3a00000000000000000000000000000000000000000000000000000000000000815250565b7f20504d0000000000000000000000000000000000000000000000000000000000815250565b600061186f828561173d565b915061187a82611817565b60018201915061188a828461173d565b91506118958261183d565b6003820191508190509392505050565b7f20414d0000000000000000000000000000000000000000000000000000000000815250565b60006118d7828561173d565b91506118e282611817565b6001820191506118f2828461173d565b91506118fd826118a5565b6003820191508190509392505050565b6000611918826112cd565b9150611923836112cd565b9250828202611931816112cd565b91507f800000000000000000000000000000000000000000000000000000000000000084146000841216156119695761196861168d565b5b828205841483151761197e5761197d61168d565b5b5092915050565b6000611990826112cd565b915061199b836112cd565b9250828201905082811215600083121683821260008412151617156119c3576119c261168d565b5b92915050565b60006119d5828561173d565b91506119e082611817565b6001820191506119f0828461173d565b91508190509392505050565b7f2000000000000000000000000000000000000000000000000000000000000000815250565b6000611a2e828561173d565b9150611a39826119fc565b600182019150611a49828461173d565b91508190509392505050565b7f4e487b7100000000000000000000000000000000000000000000000000000000600052601260045260246000fd5b6000611a8f82611297565b9150611a9a83611297565b925082611aaa57611aa9611a55565b5b828204905092915050565b6000611ac082611297565b9150611acb83611297565b925082611adb57611ada611a55565b5b828206905092915050565b6000611af1826112cd565b91507f80000000000000000000000000000000000000000000000000000000000000008203611b2357611b2261168d565b5b816000039050919050565b7f4e487b7100000000000000000000000000000000000000000000000000000000600052604160045260246000fd5b6000611b68826112cd565b9150611b73836112cd565b925082611b8357611b82611a55565b5b600160000383147f800000000000000000000000000000000000000000000000000000000000000083141615611bbc57611bbb61168d565b5b828205905092915050565b6000611bd2826112cd565b9150611bdd836112cd565b9250828203905081811260008412168282136000851215161715611c0457611c0361168d565b5b9291505056fea264697066735822122020a5b983e925535bea0ca2a8d1533a6999ea51d2480e985a56b664cb922eb3fe64736f6c63430008130033",
					"opcodes": "PUSH1 0x80 PUSH1 0x40 MSTORE CALLVALUE DUP1 ISZERO PUSH2 0x10 JUMPI PUSH1 0x0 DUP1 REVERT JUMPDEST POP PUSH2 0x1C40 DUP1 PUSH2 0x20 PUSH1 0x0 CODECOPY PUSH1 0x0 RETURN INVALID PUSH1 0x80 PUSH1 0x40 MSTORE CALLVALUE DUP1 ISZERO PUSH2 0x10 JUMPI PUSH1 0x0 DUP1 REVERT JUMPDEST POP PUSH1 0x4 CALLDATASIZE LT PUSH2 0x137 JUMPI PUSH1 0x0 CALLDATALOAD PUSH1 0xE0 SHR DUP1 PUSH4 0x7BBB7570 GT PUSH2 0xB8 JUMPI DUP1 PUSH4 0xBE9AFAC7 GT PUSH2 0x7C JUMPI DUP1 PUSH4 0xBE9AFAC7 EQ PUSH2 0x417 JUMPI DUP1 PUSH4 0xC0AD3328 EQ PUSH2 0x447 JUMPI DUP1 PUSH4 0xC7B6FD6A EQ PUSH2 0x477 JUMPI DUP1 PUSH4 0xC8DC5A22 EQ PUSH2 0x4A7 JUMPI DUP1 PUSH4 0xCF6A169C EQ PUSH2 0x4D7 JUMPI DUP1 PUSH4 0xEEE32DFF EQ PUSH2 0x507 JUMPI PUSH2 0x137 JUMP JUMPDEST DUP1 PUSH4 0x7BBB7570 EQ PUSH2 0x31E JUMPI DUP1 PUSH4 0x84A98EB9 EQ PUSH2 0x350 JUMPI DUP1 PUSH4 0x90C9F844 EQ PUSH2 0x382 JUMPI DUP1 PUSH4 0xA2DF2245 EQ PUSH2 0x3B2 JUMPI DUP1 PUSH4 0xA434F137 EQ PUSH2 0x3E7 JUMPI PUSH2 0x137 JUMP JUMPDEST DUP1 PUSH4 0x56551F26 GT PUSH2 0xFF JUMPI DUP1 PUSH4 0x56551F26 EQ PUSH2 0x22E JUMPI DUP1 PUSH4 0x576B2641 EQ PUSH2 0x25E JUMPI DUP1 PUSH4 0x6986182D EQ PUSH2 0x28E JUMPI DUP1 PUSH4 0x6AFA9DC5 EQ PUSH2 0x2BE JUMPI DUP1 PUSH4 0x7217523C EQ PUSH2 0x2EE JUMPI PUSH2 0x137 JUMP JUMPDEST DUP1 PUSH4 0x9D308CE EQ PUSH2 0x13C JUMPI DUP1 PUSH4 0x11F90965 EQ PUSH2 0x16C JUMPI DUP1 PUSH4 0x126A4BF3 EQ PUSH2 0x19D JUMPI DUP1 PUSH4 0x4B31311A EQ PUSH2 0x1CD JUMPI DUP1 PUSH4 0x4C323EDD EQ PUSH2 0x1FD JUMPI JUMPDEST PUSH1 0x0 DUP1 REVERT JUMPDEST PUSH2 0x156 PUSH1 0x4 DUP1 CALLDATASIZE SUB DUP2 ADD SWAP1 PUSH2 0x151 SWAP2 SWAP1 PUSH2 0x1303 JUMP JUMPDEST PUSH2 0x537 JUMP JUMPDEST PUSH1 0x40 MLOAD PUSH2 0x163 SWAP2 SWAP1 PUSH2 0x1352 JUMP JUMPDEST PUSH1 0x40 MLOAD DUP1 SWAP2 SUB SWAP1 RETURN JUMPDEST PUSH2 0x186 PUSH1 0x4 DUP1 CALLDATASIZE SUB DUP2 ADD SWAP1 PUSH2 0x181 SWAP2 SWAP1 PUSH2 0x1303 JUMP JUMPDEST PUSH2 0x588 JUMP JUMPDEST PUSH1 0x40 MLOAD PUSH2 0x194 SWAP3 SWAP2 SWAP1 PUSH2 0x13FD JUMP JUMPDEST PUSH1 0x40 MLOAD DUP1 SWAP2 SUB SWAP1 RETURN JUMPDEST PUSH2 0x1B7 PUSH1 0x4 DUP1 CALLDATASIZE SUB DUP2 ADD SWAP1 PUSH2 0x1B2 SWAP2 SWAP1 PUSH2 0x1303 JUMP JUMPDEST PUSH2 0x675 JUMP JUMPDEST PUSH1 0x40 MLOAD PUSH2 0x1C4 SWAP2 SWAP1 PUSH2 0x1352 JUMP JUMPDEST PUSH1 0x40 MLOAD DUP1 SWAP2 SUB SWAP1 RETURN JUMPDEST PUSH2 0x1E7 PUSH1 0x4 DUP1 CALLDATASIZE SUB DUP2 ADD SWAP1 PUSH2 0x1E2 SWAP2 SWAP1 PUSH2 0x1434 JUMP JUMPDEST PUSH2 0x6AA JUMP JUMPDEST PUSH1 0x40 MLOAD PUSH2 0x1F4 SWAP2 SWAP1 PUSH2 0x1461 JUMP JUMPDEST PUSH1 0x40 MLOAD DUP1 SWAP2 SUB SWAP1 RETURN JUMPDEST PUSH2 0x217 PUSH1 0x4 DUP1 CALLDATASIZE SUB DUP2 ADD SWAP1 PUSH2 0x212 SWAP2 SWAP1 PUSH2 0x1303 JUMP JUMPDEST PUSH2 0x706 JUMP JUMPDEST PUSH1 0x40 MLOAD PUSH2 0x225 SWAP3 SWAP2 SWAP1 PUSH2 0x1483 JUMP JUMPDEST PUSH1 0x40 MLOAD DUP1 SWAP2 SUB SWAP1 RETURN JUMPDEST PUSH2 0x248 PUSH1 0x4 DUP1 CALLDATASIZE SUB DUP2 ADD SWAP1 PUSH2 0x243 SWAP2 SWAP1 PUSH2 0x1303 JUMP JUMPDEST PUSH2 0x733 JUMP JUMPDEST PUSH1 0x40 MLOAD PUSH2 0x255 SWAP2 SWAP1 PUSH2 0x1352 JUMP JUMPDEST PUSH1 0x40 MLOAD DUP1 SWAP2 SUB SWAP1 RETURN JUMPDEST PUSH2 0x278 PUSH1 0x4 DUP1 CALLDATASIZE SUB DUP2 ADD SWAP1 PUSH2 0x273 SWAP2 SWAP1 PUSH2 0x1303 JUMP JUMPDEST PUSH2 0x75F JUMP JUMPDEST PUSH1 0x40 MLOAD PUSH2 0x285 SWAP2 SWAP1 PUSH2 0x1352 JUMP JUMPDEST PUSH1 0x40 MLOAD DUP1 SWAP2 SUB SWAP1 RETURN JUMPDEST PUSH2 0x2A8 PUSH1 0x4 DUP1 CALLDATASIZE SUB DUP2 ADD SWAP1 PUSH2 0x2A3 SWAP2 SWAP1 PUSH2 0x1303 JUMP JUMPDEST PUSH2 0x78D JUMP JUMPDEST PUSH1 0x40 MLOAD PUSH2 0x2B5 SWAP2 SWAP1 PUSH2 0x1352 JUMP JUMPDEST PUSH1 0x40 MLOAD DUP1 SWAP2 SUB SWAP1 RETURN JUMPDEST PUSH2 0x2D8 PUSH1 0x4 DUP1 CALLDATASIZE SUB DUP2 ADD SWAP1 PUSH2 0x2D3 SWAP2 SWAP1 PUSH2 0x1303 JUMP JUMPDEST PUSH2 0x7BA JUMP JUMPDEST PUSH1 0x40 MLOAD PUSH2 0x2E5 SWAP2 SWAP1 PUSH2 0x1461 JUMP JUMPDEST PUSH1 0x40 MLOAD DUP1 SWAP2 SUB SWAP1 RETURN JUMPDEST PUSH2 0x308 PUSH1 0x4 DUP1 CALLDATASIZE SUB DUP2 ADD SWAP1 PUSH2 0x303 SWAP2 SWAP1 PUSH2 0x14AC JUMP JUMPDEST PUSH2 0x880 JUMP JUMPDEST PUSH1 0x40 MLOAD PUSH2 0x315 SWAP2 SWAP1 PUSH2 0x1352 JUMP JUMPDEST PUSH1 0x40 MLOAD DUP1 SWAP2 SUB SWAP1 RETURN JUMPDEST PUSH2 0x338 PUSH1 0x4 DUP1 CALLDATASIZE SUB DUP2 ADD SWAP1 PUSH2 0x333 SWAP2 SWAP1 PUSH2 0x1434 JUMP JUMPDEST PUSH2 0x8A1 JUMP JUMPDEST PUSH1 0x40 MLOAD PUSH2 0x347 SWAP4 SWAP3 SWAP2 SWAP1 PUSH2 0x14EC JUMP JUMPDEST PUSH1 0x40 MLOAD DUP1 SWAP2 SUB SWAP1 RETURN JUMPDEST PUSH2 0x36A PUSH1 0x4 DUP1 CALLDATASIZE SUB DUP2 ADD SWAP1 PUSH2 0x365 SWAP2 SWAP1 PUSH2 0x1303 JUMP JUMPDEST PUSH2 0x8E6 JUMP JUMPDEST PUSH1 0x40 MLOAD PUSH2 0x379 SWAP4 SWAP3 SWAP2 SWAP1 PUSH2 0x14EC JUMP JUMPDEST PUSH1 0x40 MLOAD DUP1 SWAP2 SUB SWAP1 RETURN JUMPDEST PUSH2 0x39C PUSH1 0x4 DUP1 CALLDATASIZE SUB DUP2 ADD SWAP1 PUSH2 0x397 SWAP2 SWAP1 PUSH2 0x1523 JUMP JUMPDEST PUSH2 0x90D JUMP JUMPDEST PUSH1 0x40 MLOAD PUSH2 0x3A9 SWAP2 SWAP1 PUSH2 0x1352 JUMP JUMPDEST PUSH1 0x40 MLOAD DUP1 SWAP2 SUB SWAP1 RETURN JUMPDEST PUSH2 0x3CC PUSH1 0x4 DUP1 CALLDATASIZE SUB DUP2 ADD SWAP1 PUSH2 0x3C7 SWAP2 SWAP1 PUSH2 0x1303 JUMP JUMPDEST PUSH2 0x93F JUMP JUMPDEST PUSH1 0x40 MLOAD PUSH2 0x3DE SWAP7 SWAP6 SWAP5 SWAP4 SWAP3 SWAP2 SWAP1 PUSH2 0x15C5 JUMP JUMPDEST PUSH1 0x40 MLOAD DUP1 SWAP2 SUB SWAP1 RETURN JUMPDEST PUSH2 0x401 PUSH1 0x4 DUP1 CALLDATASIZE SUB DUP2 ADD SWAP1 PUSH2 0x3FC SWAP2 SWAP1 PUSH2 0x1626 JUMP JUMPDEST PUSH2 0x973 JUMP JUMPDEST PUSH1 0x40 MLOAD PUSH2 0x40E SWAP2 SWAP1 PUSH2 0x1352 JUMP JUMPDEST PUSH1 0x40 MLOAD DUP1 SWAP2 SUB SWAP1 RETURN JUMPDEST PUSH2 0x431 PUSH1 0x4 DUP1 CALLDATASIZE SUB DUP2 ADD SWAP1 PUSH2 0x42C SWAP2 SWAP1 PUSH2 0x14AC JUMP JUMPDEST PUSH2 0x98B JUMP JUMPDEST PUSH1 0x40 MLOAD PUSH2 0x43E SWAP2 SWAP1 PUSH2 0x1352 JUMP JUMPDEST PUSH1 0x40 MLOAD DUP1 SWAP2 SUB SWAP1 RETURN JUMPDEST PUSH2 0x461 PUSH1 0x4 DUP1 CALLDATASIZE SUB DUP2 ADD SWAP1 PUSH2 0x45C SWAP2 SWAP1 PUSH2 0x1626 JUMP JUMPDEST PUSH2 0x99F JUMP JUMPDEST PUSH1 0x40 MLOAD PUSH2 0x46E SWAP2 SWAP1 PUSH2 0x1352 JUMP JUMPDEST PUSH1 0x40 MLOAD DUP1 SWAP2 SUB SWAP1 RETURN JUMPDEST PUSH2 0x491 PUSH1 0x4 DUP1 CALLDATASIZE SUB DUP2 ADD SWAP1 PUSH2 0x48C SWAP2 SWAP1 PUSH2 0x14AC JUMP JUMPDEST PUSH2 0x9CB JUMP JUMPDEST PUSH1 0x40 MLOAD PUSH2 0x49E SWAP2 SWAP1 PUSH2 0x1352 JUMP JUMPDEST PUSH1 0x40 MLOAD DUP1 SWAP2 SUB SWAP1 RETURN JUMPDEST PUSH2 0x4C1 PUSH1 0x4 DUP1 CALLDATASIZE SUB DUP2 ADD SWAP1 PUSH2 0x4BC SWAP2 SWAP1 PUSH2 0x1303 JUMP JUMPDEST PUSH2 0x9EC JUMP JUMPDEST PUSH1 0x40 MLOAD PUSH2 0x4CE SWAP2 SWAP1 PUSH2 0x1352 JUMP JUMPDEST PUSH1 0x40 MLOAD DUP1 SWAP2 SUB SWAP1 RETURN JUMPDEST PUSH2 0x4F1 PUSH1 0x4 DUP1 CALLDATASIZE SUB DUP2 ADD SWAP1 PUSH2 0x4EC SWAP2 SWAP1 PUSH2 0x1303 JUMP JUMPDEST PUSH2 0xA22 JUMP JUMPDEST PUSH1 0x40 MLOAD PUSH2 0x4FE SWAP2 SWAP1 PUSH2 0x1461 JUMP JUMPDEST PUSH1 0x40 MLOAD DUP1 SWAP2 SUB SWAP1 RETURN JUMPDEST PUSH2 0x521 PUSH1 0x4 DUP1 CALLDATASIZE SUB DUP2 ADD SWAP1 PUSH2 0x51C SWAP2 SWAP1 PUSH2 0x1303 JUMP JUMPDEST PUSH2 0xA80 JUMP JUMPDEST PUSH1 0x40 MLOAD PUSH2 0x52E SWAP2 SWAP1 PUSH2 0x1352 JUMP JUMPDEST PUSH1 0x40 MLOAD DUP1 SWAP2 SUB SWAP1 RETURN JUMPDEST PUSH1 0x0 DUP1 PUSH1 0x0 DUP1 PUSH2 0x547 DUP7 DUP7 PUSH2 0x8E6 JUMP JUMPDEST SWAP3 POP SWAP3 POP SWAP3 POP DUP1 PUSH1 0x64 DUP4 PUSH2 0x55B SWAP2 SWAP1 PUSH2 0x16BC JUMP JUMPDEST PUSH2 0x2710 DUP6 PUSH2 0x569 SWAP2 SWAP1 PUSH2 0x16BC JUMP JUMPDEST PUSH2 0x573 SWAP2 SWAP1 PUSH2 0x16FE JUMP JUMPDEST PUSH2 0x57D SWAP2 SWAP1 PUSH2 0x16FE JUMP JUMPDEST SWAP4 POP POP POP POP SWAP3 SWAP2 POP POP JUMP JUMPDEST PUSH1 0x60 DUP1 PUSH1 0x0 DUP1 PUSH1 0x0 DUP1 PUSH1 0x0 PUSH2 0x59D DUP10 DUP10 PUSH2 0x93F JUMP JUMPDEST POP SWAP5 POP SWAP5 POP SWAP5 POP SWAP5 POP SWAP5 POP PUSH2 0x5B1 DUP4 PUSH2 0xAAD JUMP JUMPDEST PUSH2 0x5BA DUP6 PUSH2 0xAAD JUMP JUMPDEST PUSH2 0x5C3 DUP8 PUSH2 0xAAD JUMP JUMPDEST PUSH1 0x40 MLOAD PUSH1 0x20 ADD PUSH2 0x5D5 SWAP4 SWAP3 SWAP2 SWAP1 PUSH2 0x1794 JUMP JUMPDEST PUSH1 0x40 MLOAD PUSH1 0x20 DUP2 DUP4 SUB SUB DUP2 MSTORE SWAP1 PUSH1 0x40 MSTORE SWAP7 POP PUSH1 0xC DUP3 GT ISZERO PUSH2 0x634 JUMPI PUSH2 0x604 PUSH1 0xC DUP4 PUSH2 0x5FF SWAP2 SWAP1 PUSH2 0x17E3 JUMP JUMPDEST PUSH2 0xAAD JUMP JUMPDEST PUSH2 0x60D DUP3 PUSH2 0xAAD JUMP JUMPDEST PUSH1 0x40 MLOAD PUSH1 0x20 ADD PUSH2 0x61E SWAP3 SWAP2 SWAP1 PUSH2 0x1863 JUMP JUMPDEST PUSH1 0x40 MLOAD PUSH1 0x20 DUP2 DUP4 SUB SUB DUP2 MSTORE SWAP1 PUSH1 0x40 MSTORE SWAP6 POP PUSH2 0x669 JUMP JUMPDEST PUSH2 0x63D DUP3 PUSH2 0xAAD JUMP JUMPDEST PUSH2 0x646 DUP3 PUSH2 0xAAD JUMP JUMPDEST PUSH1 0x40 MLOAD PUSH1 0x20 ADD PUSH2 0x657 SWAP3 SWAP2 SWAP1 PUSH2 0x18CB JUMP JUMPDEST PUSH1 0x40 MLOAD PUSH1 0x20 DUP2 DUP4 SUB SUB DUP2 MSTORE SWAP1 PUSH1 0x40 MSTORE SWAP6 POP JUMPDEST POP POP POP POP POP SWAP3 POP SWAP3 SWAP1 POP JUMP JUMPDEST PUSH1 0x0 DUP1 DUP3 PUSH2 0xE10 PUSH2 0x686 SWAP2 SWAP1 PUSH2 0x190D JUMP JUMPDEST DUP5 PUSH2 0x691 SWAP2 SWAP1 PUSH2 0x1985 JUMP JUMPDEST SWAP1 POP PUSH1 0x0 DUP2 SGT PUSH2 0x6A0 JUMPI PUSH1 0x0 DUP1 REVERT JUMPDEST DUP1 SWAP2 POP POP SWAP3 SWAP2 POP POP JUMP JUMPDEST PUSH1 0x60 PUSH1 0x0 DUP1 PUSH1 0x0 PUSH2 0x6BA DUP6 PUSH2 0x8A1 JUMP JUMPDEST SWAP3 POP SWAP3 POP SWAP3 POP PUSH2 0x6C9 DUP2 PUSH2 0xAAD JUMP JUMPDEST PUSH2 0x6D2 DUP4 PUSH2 0xAAD JUMP JUMPDEST PUSH2 0x6DB DUP6 PUSH2 0xAAD JUMP JUMPDEST PUSH1 0x40 MLOAD PUSH1 0x20 ADD PUSH2 0x6ED SWAP4 SWAP3 SWAP2 SWAP1 PUSH2 0x1794 JUMP JUMPDEST PUSH1 0x40 MLOAD PUSH1 0x20 DUP2 DUP4 SUB SUB DUP2 MSTORE SWAP1 PUSH1 0x40 MSTORE SWAP4 POP POP POP POP SWAP2 SWAP1 POP JUMP JUMPDEST PUSH1 0x0 DUP1 PUSH2 0x713 DUP5 DUP5 PUSH2 0x537 JUMP JUMPDEST SWAP2 POP PUSH2 0x71F DUP5 DUP5 PUSH2 0x78D JUMP JUMPDEST DUP5 PUSH2 0x72A SWAP2 SWAP1 PUSH2 0x17E3 JUMP JUMPDEST SWAP1 POP SWAP3 POP SWAP3 SWAP1 POP JUMP JUMPDEST PUSH1 0x0 DUP1 PUSH1 0x0 DUP1 PUSH2 0x742 DUP7 PUSH2 0x8A1 JUMP JUMPDEST SWAP3 POP SWAP3 POP SWAP3 POP PUSH2 0x754 DUP4 DUP4 DUP4 DUP9 PUSH2 0x99F JUMP JUMPDEST SWAP4 POP POP POP POP SWAP3 SWAP2 POP POP JUMP JUMPDEST PUSH1 0x0 PUSH1 0x1 PUSH3 0x15180 PUSH2 0x771 DUP6 DUP6 PUSH2 0x78D JUMP JUMPDEST PUSH2 0x77B SWAP2 SWAP1 PUSH2 0x16FE JUMP JUMPDEST PUSH2 0x785 SWAP2 SWAP1 PUSH2 0x17E3 JUMP JUMPDEST SWAP1 POP SWAP3 SWAP2 POP POP JUMP JUMPDEST PUSH1 0x0 DUP1 PUSH1 0x0 DUP1 PUSH2 0x79D DUP7 DUP7 PUSH2 0x8E6 JUMP JUMPDEST SWAP3 POP SWAP3 POP SWAP3 POP PUSH2 0x7AF DUP4 DUP4 DUP4 DUP9 PUSH2 0x99F JUMP JUMPDEST SWAP4 POP POP POP POP SWAP3 SWAP2 POP POP JUMP JUMPDEST PUSH1 0x60 PUSH1 0x0 DUP1 PUSH1 0x0 DUP1 PUSH1 0x0 PUSH2 0x7CE DUP9 DUP9 PUSH2 0x93F JUMP JUMPDEST POP SWAP5 POP SWAP5 POP SWAP5 POP SWAP5 POP SWAP5 POP PUSH1 0x0 PUSH2 0x7E4 DUP5 PUSH2 0xAAD JUMP JUMPDEST PUSH2 0x7ED DUP7 PUSH2 0xAAD JUMP JUMPDEST PUSH2 0x7F6 DUP9 PUSH2 0xAAD JUMP JUMPDEST PUSH1 0x40 MLOAD PUSH1 0x20 ADD PUSH2 0x808 SWAP4 SWAP3 SWAP2 SWAP1 PUSH2 0x1794 JUMP JUMPDEST PUSH1 0x40 MLOAD PUSH1 0x20 DUP2 DUP4 SUB SUB DUP2 MSTORE SWAP1 PUSH1 0x40 MSTORE SWAP1 POP PUSH1 0x0 PUSH2 0x824 DUP5 PUSH2 0xAAD JUMP JUMPDEST PUSH2 0x82D DUP5 PUSH2 0xAAD JUMP JUMPDEST PUSH1 0x40 MLOAD PUSH1 0x20 ADD PUSH2 0x83E SWAP3 SWAP2 SWAP1 PUSH2 0x19C9 JUMP JUMPDEST PUSH1 0x40 MLOAD PUSH1 0x20 DUP2 DUP4 SUB SUB DUP2 MSTORE SWAP1 PUSH1 0x40 MSTORE SWAP1 POP DUP1 DUP3 PUSH1 0x40 MLOAD PUSH1 0x20 ADD PUSH2 0x862 SWAP3 SWAP2 SWAP1 PUSH2 0x1A22 JUMP JUMPDEST PUSH1 0x40 MLOAD PUSH1 0x20 DUP2 DUP4 SUB SUB DUP2 MSTORE SWAP1 PUSH1 0x40 MSTORE SWAP8 POP POP POP POP POP POP POP POP SWAP3 SWAP2 POP POP JUMP JUMPDEST PUSH1 0x0 PUSH2 0x88C DUP4 DUP4 PUSH2 0xB7B JUMP JUMPDEST SWAP1 POP DUP3 DUP2 LT ISZERO PUSH2 0x89B JUMPI PUSH1 0x0 DUP1 REVERT JUMPDEST SWAP3 SWAP2 POP POP JUMP JUMPDEST PUSH1 0x0 DUP1 PUSH1 0x0 PUSH2 0x2710 DUP5 PUSH2 0x8B4 SWAP2 SWAP1 PUSH2 0x1A84 JUMP JUMPDEST SWAP3 POP PUSH1 0x64 DUP1 DUP6 PUSH2 0x8C4 SWAP2 SWAP1 PUSH2 0x1A84 JUMP JUMPDEST PUSH2 0x8CE SWAP2 SWAP1 PUSH2 0x1AB5 JUMP JUMPDEST SWAP2 POP PUSH1 0x64 DUP5 PUSH2 0x8DD SWAP2 SWAP1 PUSH2 0x1AB5 JUMP JUMPDEST SWAP1 POP SWAP2 SWAP4 SWAP1 SWAP3 POP JUMP JUMPDEST PUSH1 0x0 DUP1 PUSH1 0x0 PUSH2 0x8F5 DUP6 DUP6 PUSH2 0x675 JUMP JUMPDEST SWAP5 POP PUSH2 0x900 DUP6 PUSH2 0xBAC JUMP JUMPDEST SWAP3 POP SWAP3 POP SWAP3 POP SWAP3 POP SWAP3 POP SWAP3 JUMP JUMPDEST PUSH1 0x0 PUSH2 0x91D DUP9 DUP9 DUP9 DUP9 DUP9 DUP9 PUSH2 0xBDB JUMP JUMPDEST SWAP1 POP PUSH2 0x932 DUP2 DUP4 PUSH2 0x92D SWAP1 PUSH2 0x1AE6 JUMP JUMPDEST PUSH2 0x675 JUMP JUMPDEST SWAP1 POP SWAP8 SWAP7 POP POP POP POP POP POP POP JUMP JUMPDEST PUSH1 0x0 DUP1 PUSH1 0x0 DUP1 PUSH1 0x0 DUP1 PUSH2 0x952 DUP9 DUP9 PUSH2 0x675 JUMP JUMPDEST SWAP8 POP PUSH2 0x95D DUP9 PUSH2 0xC3C JUMP JUMPDEST SWAP6 POP SWAP6 POP SWAP6 POP SWAP6 POP SWAP6 POP SWAP6 POP SWAP3 SWAP6 POP SWAP3 SWAP6 POP SWAP3 SWAP6 JUMP JUMPDEST PUSH1 0x0 PUSH2 0x981 DUP6 DUP6 DUP6 DUP6 PUSH2 0x99F JUMP JUMPDEST SWAP1 POP SWAP5 SWAP4 POP POP POP POP JUMP JUMPDEST PUSH1 0x0 PUSH2 0x997 DUP4 DUP4 PUSH2 0xCC3 JUMP JUMPDEST SWAP1 POP SWAP3 SWAP2 POP POP JUMP JUMPDEST PUSH1 0x0 PUSH2 0x9AC DUP6 DUP6 DUP6 PUSH2 0xCD7 JUMP JUMPDEST SWAP1 POP PUSH2 0x9C1 DUP2 DUP4 PUSH2 0x9BC SWAP1 PUSH2 0x1AE6 JUMP JUMPDEST PUSH2 0x675 JUMP JUMPDEST SWAP1 POP SWAP5 SWAP4 POP POP POP POP JUMP JUMPDEST PUSH1 0x0 PUSH2 0x9D7 DUP4 DUP4 PUSH2 0xCFB JUMP JUMPDEST SWAP1 POP DUP3 DUP2 GT ISZERO PUSH2 0x9E6 JUMPI PUSH1 0x0 DUP1 REVERT JUMPDEST SWAP3 SWAP2 POP POP JUMP JUMPDEST PUSH1 0x0 DUP1 PUSH1 0x0 PUSH2 0x9FB DUP6 DUP6 PUSH2 0x8E6 JUMP JUMPDEST POP SWAP2 POP SWAP2 POP DUP1 PUSH1 0x64 DUP4 PUSH2 0xA0E SWAP2 SWAP1 PUSH2 0x16BC JUMP JUMPDEST PUSH2 0xA18 SWAP2 SWAP1 PUSH2 0x16FE JUMP JUMPDEST SWAP3 POP POP POP SWAP3 SWAP2 POP POP JUMP JUMPDEST PUSH1 0x60 PUSH1 0x0 DUP1 PUSH1 0x0 PUSH2 0xA33 DUP7 DUP7 PUSH2 0x8E6 JUMP JUMPDEST SWAP3 POP SWAP3 POP SWAP3 POP PUSH2 0xA42 DUP2 PUSH2 0xAAD JUMP JUMPDEST PUSH2 0xA4B DUP4 PUSH2 0xAAD JUMP JUMPDEST PUSH2 0xA54 DUP6 PUSH2 0xAAD JUMP JUMPDEST PUSH1 0x40 MLOAD PUSH1 0x20 ADD PUSH2 0xA66 SWAP4 SWAP3 SWAP2 SWAP1 PUSH2 0x1794 JUMP JUMPDEST PUSH1 0x40 MLOAD PUSH1 0x20 DUP2 DUP4 SUB SUB DUP2 MSTORE SWAP1 PUSH1 0x40 MSTORE SWAP4 POP POP POP POP SWAP3 SWAP2 POP POP JUMP JUMPDEST PUSH1 0x0 DUP1 PUSH2 0xA8D DUP5 DUP5 PUSH2 0x733 JUMP JUMPDEST SWAP1 POP PUSH2 0xA99 DUP2 DUP5 PUSH2 0x675 JUMP JUMPDEST SWAP1 POP PUSH2 0xAA4 DUP2 PUSH2 0xD2C JUMP JUMPDEST SWAP2 POP POP SWAP3 SWAP2 POP POP JUMP JUMPDEST PUSH1 0x60 PUSH1 0x0 PUSH1 0x1 PUSH2 0xABC DUP5 PUSH2 0xD6D JUMP JUMPDEST ADD SWAP1 POP PUSH1 0x0 DUP2 PUSH8 0xFFFFFFFFFFFFFFFF DUP2 GT ISZERO PUSH2 0xADB JUMPI PUSH2 0xADA PUSH2 0x1B2E JUMP JUMPDEST JUMPDEST PUSH1 0x40 MLOAD SWAP1 DUP1 DUP3 MSTORE DUP1 PUSH1 0x1F ADD PUSH1 0x1F NOT AND PUSH1 0x20 ADD DUP3 ADD PUSH1 0x40 MSTORE DUP1 ISZERO PUSH2 0xB0D JUMPI DUP2 PUSH1 0x20 ADD PUSH1 0x1 DUP3 MUL DUP1 CALLDATASIZE DUP4 CALLDATACOPY DUP1 DUP3 ADD SWAP2 POP POP SWAP1 POP JUMPDEST POP SWAP1 POP PUSH1 0x0 DUP3 PUSH1 0x20 ADD DUP3 ADD SWAP1 POP JUMPDEST PUSH1 0x1 ISZERO PUSH2 0xB70 JUMPI DUP1 DUP1 PUSH1 0x1 SWAP1 SUB SWAP2 POP POP PUSH32 0x3031323334353637383961626364656600000000000000000000000000000000 PUSH1 0xA DUP7 MOD BYTE DUP2 MSTORE8 PUSH1 0xA DUP6 DUP2 PUSH2 0xB64 JUMPI PUSH2 0xB63 PUSH2 0x1A55 JUMP JUMPDEST JUMPDEST DIV SWAP5 POP PUSH1 0x0 DUP6 SUB PUSH2 0xB1B JUMPI JUMPDEST DUP2 SWAP4 POP POP POP POP SWAP2 SWAP1 POP JUMP JUMPDEST PUSH1 0x0 PUSH3 0x15180 DUP3 PUSH2 0xB8C SWAP2 SWAP1 PUSH2 0x16BC JUMP JUMPDEST DUP4 PUSH2 0xB97 SWAP2 SWAP1 PUSH2 0x16FE JUMP JUMPDEST SWAP1 POP DUP3 DUP2 LT ISZERO PUSH2 0xBA6 JUMPI PUSH1 0x0 DUP1 REVERT JUMPDEST SWAP3 SWAP2 POP POP JUMP JUMPDEST PUSH1 0x0 DUP1 PUSH1 0x0 PUSH2 0xBC8 PUSH3 0x15180 DUP6 PUSH2 0xBC3 SWAP2 SWAP1 PUSH2 0x1A84 JUMP JUMPDEST PUSH2 0xEC0 JUMP JUMPDEST DUP1 SWAP4 POP DUP2 SWAP5 POP DUP3 SWAP6 POP POP POP POP SWAP2 SWAP4 SWAP1 SWAP3 POP JUMP JUMPDEST PUSH1 0x0 DUP2 PUSH1 0x3C DUP5 PUSH2 0xBEB SWAP2 SWAP1 PUSH2 0x16BC JUMP JUMPDEST PUSH2 0xE10 DUP7 PUSH2 0xBF9 SWAP2 SWAP1 PUSH2 0x16BC JUMP JUMPDEST PUSH3 0x15180 PUSH2 0xC08 DUP12 DUP12 DUP12 PUSH2 0x105F JUMP JUMPDEST PUSH2 0xC12 SWAP2 SWAP1 PUSH2 0x16BC JUMP JUMPDEST PUSH2 0xC1C SWAP2 SWAP1 PUSH2 0x16FE JUMP JUMPDEST PUSH2 0xC26 SWAP2 SWAP1 PUSH2 0x16FE JUMP JUMPDEST PUSH2 0xC30 SWAP2 SWAP1 PUSH2 0x16FE JUMP JUMPDEST SWAP1 POP SWAP7 SWAP6 POP POP POP POP POP POP JUMP JUMPDEST PUSH1 0x0 DUP1 PUSH1 0x0 DUP1 PUSH1 0x0 DUP1 PUSH2 0xC5C PUSH3 0x15180 DUP9 PUSH2 0xC57 SWAP2 SWAP1 PUSH2 0x1A84 JUMP JUMPDEST PUSH2 0xEC0 JUMP JUMPDEST DUP1 SWAP7 POP DUP2 SWAP8 POP DUP3 SWAP9 POP POP POP POP PUSH1 0x0 PUSH3 0x15180 DUP9 PUSH2 0xC79 SWAP2 SWAP1 PUSH2 0x1AB5 JUMP JUMPDEST SWAP1 POP PUSH2 0xE10 DUP2 PUSH2 0xC89 SWAP2 SWAP1 PUSH2 0x1A84 JUMP JUMPDEST SWAP4 POP PUSH2 0xE10 DUP2 PUSH2 0xC99 SWAP2 SWAP1 PUSH2 0x1AB5 JUMP JUMPDEST SWAP1 POP PUSH1 0x3C DUP2 PUSH2 0xCA8 SWAP2 SWAP1 PUSH2 0x1A84 JUMP JUMPDEST SWAP3 POP PUSH1 0x3C DUP2 PUSH2 0xCB7 SWAP2 SWAP1 PUSH2 0x1AB5 JUMP JUMPDEST SWAP2 POP POP SWAP2 SWAP4 SWAP6 POP SWAP2 SWAP4 SWAP6 JUMP JUMPDEST PUSH1 0x0 PUSH2 0xCCF DUP4 DUP4 PUSH2 0x11BE JUMP JUMPDEST SWAP1 POP SWAP3 SWAP2 POP POP JUMP JUMPDEST PUSH1 0x0 PUSH3 0x15180 PUSH2 0xCE8 DUP6 DUP6 DUP6 PUSH2 0x105F JUMP JUMPDEST PUSH2 0xCF2 SWAP2 SWAP1 PUSH2 0x16BC JUMP JUMPDEST SWAP1 POP SWAP4 SWAP3 POP POP POP JUMP JUMPDEST PUSH1 0x0 PUSH3 0x15180 DUP3 PUSH2 0xD0C SWAP2 SWAP1 PUSH2 0x16BC JUMP JUMPDEST DUP4 PUSH2 0xD17 SWAP2 SWAP1 PUSH2 0x17E3 JUMP JUMPDEST SWAP1 POP DUP3 DUP2 GT ISZERO PUSH2 0xD26 JUMPI PUSH1 0x0 DUP1 REVERT JUMPDEST SWAP3 SWAP2 POP POP JUMP JUMPDEST PUSH1 0x0 DUP1 PUSH3 0x15180 DUP4 PUSH2 0xD3E SWAP2 SWAP1 PUSH2 0x1A84 JUMP JUMPDEST SWAP1 POP PUSH1 0x1 PUSH1 0x7 PUSH1 0x3 DUP4 PUSH2 0xD51 SWAP2 SWAP1 PUSH2 0x16FE JUMP JUMPDEST PUSH2 0xD5B SWAP2 SWAP1 PUSH2 0x1AB5 JUMP JUMPDEST PUSH2 0xD65 SWAP2 SWAP1 PUSH2 0x16FE JUMP JUMPDEST SWAP2 POP POP SWAP2 SWAP1 POP JUMP JUMPDEST PUSH1 0x0 DUP1 PUSH1 0x0 SWAP1 POP PUSH27 0x184F03E93FF9F4DAA797ED6E38ED64BF6A1F010000000000000000 DUP4 LT PUSH2 0xDCB JUMPI PUSH27 0x184F03E93FF9F4DAA797ED6E38ED64BF6A1F010000000000000000 DUP4 DUP2 PUSH2 0xDC1 JUMPI PUSH2 0xDC0 PUSH2 0x1A55 JUMP JUMPDEST JUMPDEST DIV SWAP3 POP PUSH1 0x40 DUP2 ADD SWAP1 POP JUMPDEST PUSH14 0x4EE2D6D415B85ACEF8100000000 DUP4 LT PUSH2 0xE08 JUMPI PUSH14 0x4EE2D6D415B85ACEF8100000000 DUP4 DUP2 PUSH2 0xDFE JUMPI PUSH2 0xDFD PUSH2 0x1A55 JUMP JUMPDEST JUMPDEST DIV SWAP3 POP PUSH1 0x20 DUP2 ADD SWAP1 POP JUMPDEST PUSH7 0x2386F26FC10000 DUP4 LT PUSH2 0xE37 JUMPI PUSH7 0x2386F26FC10000 DUP4 DUP2 PUSH2 0xE2D JUMPI PUSH2 0xE2C PUSH2 0x1A55 JUMP JUMPDEST JUMPDEST DIV SWAP3 POP PUSH1 0x10 DUP2 ADD SWAP1 POP JUMPDEST PUSH4 0x5F5E100 DUP4 LT PUSH2 0xE60 JUMPI PUSH4 0x5F5E100 DUP4 DUP2 PUSH2 0xE56 JUMPI PUSH2 0xE55 PUSH2 0x1A55 JUMP JUMPDEST JUMPDEST DIV SWAP3 POP PUSH1 0x8 DUP2 ADD SWAP1 POP JUMPDEST PUSH2 0x2710 DUP4 LT PUSH2 0xE85 JUMPI PUSH2 0x2710 DUP4 DUP2 PUSH2 0xE7B JUMPI PUSH2 0xE7A PUSH2 0x1A55 JUMP JUMPDEST JUMPDEST DIV SWAP3 POP PUSH1 0x4 DUP2 ADD SWAP1 POP JUMPDEST PUSH1 0x64 DUP4 LT PUSH2 0xEA8 JUMPI PUSH1 0x64 DUP4 DUP2 PUSH2 0xE9E JUMPI PUSH2 0xE9D PUSH2 0x1A55 JUMP JUMPDEST JUMPDEST DIV SWAP3 POP PUSH1 0x2 DUP2 ADD SWAP1 POP JUMPDEST PUSH1 0xA DUP4 LT PUSH2 0xEB7 JUMPI PUSH1 0x1 DUP2 ADD SWAP1 POP JUMPDEST DUP1 SWAP2 POP POP SWAP2 SWAP1 POP JUMP JUMPDEST PUSH1 0x0 DUP1 PUSH1 0x0 DUP1 DUP5 SWAP1 POP PUSH1 0x0 PUSH3 0x253D8C PUSH3 0x10BD9 DUP4 PUSH2 0xEDE SWAP2 SWAP1 PUSH2 0x1985 JUMP JUMPDEST PUSH2 0xEE8 SWAP2 SWAP1 PUSH2 0x1985 JUMP JUMPDEST SWAP1 POP PUSH1 0x0 PUSH3 0x23AB1 DUP3 PUSH1 0x4 PUSH2 0xEFD SWAP2 SWAP1 PUSH2 0x190D JUMP JUMPDEST PUSH2 0xF07 SWAP2 SWAP1 PUSH2 0x1B5D JUMP JUMPDEST SWAP1 POP PUSH1 0x4 PUSH1 0x3 DUP3 PUSH3 0x23AB1 PUSH2 0xF1C SWAP2 SWAP1 PUSH2 0x190D JUMP JUMPDEST PUSH2 0xF26 SWAP2 SWAP1 PUSH2 0x1985 JUMP JUMPDEST PUSH2 0xF30 SWAP2 SWAP1 PUSH2 0x1B5D JUMP JUMPDEST DUP3 PUSH2 0xF3B SWAP2 SWAP1 PUSH2 0x1BC7 JUMP JUMPDEST SWAP2 POP PUSH1 0x0 PUSH3 0x164B09 PUSH1 0x1 DUP5 PUSH2 0xF50 SWAP2 SWAP1 PUSH2 0x1985 JUMP JUMPDEST PUSH2 0xFA0 PUSH2 0xF5D SWAP2 SWAP1 PUSH2 0x190D JUMP JUMPDEST PUSH2 0xF67 SWAP2 SWAP1 PUSH2 0x1B5D JUMP JUMPDEST SWAP1 POP PUSH1 0x1F PUSH1 0x4 DUP3 PUSH2 0x5B5 PUSH2 0xF7B SWAP2 SWAP1 PUSH2 0x190D JUMP JUMPDEST PUSH2 0xF85 SWAP2 SWAP1 PUSH2 0x1B5D JUMP JUMPDEST DUP5 PUSH2 0xF90 SWAP2 SWAP1 PUSH2 0x1BC7 JUMP JUMPDEST PUSH2 0xF9A SWAP2 SWAP1 PUSH2 0x1985 JUMP JUMPDEST SWAP3 POP PUSH1 0x0 PUSH2 0x98F DUP5 PUSH1 0x50 PUSH2 0xFAE SWAP2 SWAP1 PUSH2 0x190D JUMP JUMPDEST PUSH2 0xFB8 SWAP2 SWAP1 PUSH2 0x1B5D JUMP JUMPDEST SWAP1 POP PUSH1 0x0 PUSH1 0x50 DUP3 PUSH2 0x98F PUSH2 0xFCC SWAP2 SWAP1 PUSH2 0x190D JUMP JUMPDEST PUSH2 0xFD6 SWAP2 SWAP1 PUSH2 0x1B5D JUMP JUMPDEST DUP6 PUSH2 0xFE1 SWAP2 SWAP1 PUSH2 0x1BC7 JUMP JUMPDEST SWAP1 POP PUSH1 0xB DUP3 PUSH2 0xFF0 SWAP2 SWAP1 PUSH2 0x1B5D JUMP JUMPDEST SWAP5 POP DUP5 PUSH1 0xC PUSH2 0xFFF SWAP2 SWAP1 PUSH2 0x190D JUMP JUMPDEST PUSH1 0x2 DUP4 PUSH2 0x100C SWAP2 SWAP1 PUSH2 0x1985 JUMP JUMPDEST PUSH2 0x1016 SWAP2 SWAP1 PUSH2 0x1BC7 JUMP JUMPDEST SWAP2 POP DUP5 DUP4 PUSH1 0x31 DUP7 PUSH2 0x1027 SWAP2 SWAP1 PUSH2 0x1BC7 JUMP JUMPDEST PUSH1 0x64 PUSH2 0x1033 SWAP2 SWAP1 PUSH2 0x190D JUMP JUMPDEST PUSH2 0x103D SWAP2 SWAP1 PUSH2 0x1985 JUMP JUMPDEST PUSH2 0x1047 SWAP2 SWAP1 PUSH2 0x1985 JUMP JUMPDEST SWAP3 POP DUP3 SWAP9 POP DUP2 SWAP8 POP DUP1 SWAP7 POP POP POP POP POP POP POP SWAP2 SWAP4 SWAP1 SWAP3 POP JUMP JUMPDEST PUSH1 0x0 PUSH2 0x7B2 DUP5 LT ISZERO PUSH2 0x1070 JUMPI PUSH1 0x0 DUP1 REVERT JUMPDEST PUSH1 0x0 DUP5 SWAP1 POP PUSH1 0x0 DUP5 SWAP1 POP PUSH1 0x0 DUP5 SWAP1 POP PUSH1 0x0 PUSH3 0x253D8C PUSH1 0x4 PUSH1 0x64 PUSH1 0xC PUSH1 0xE DUP8 PUSH2 0x1098 SWAP2 SWAP1 PUSH2 0x1BC7 JUMP JUMPDEST PUSH2 0x10A2 SWAP2 SWAP1 PUSH2 0x1B5D JUMP JUMPDEST PUSH2 0x1324 DUP9 PUSH2 0x10B0 SWAP2 SWAP1 PUSH2 0x1985 JUMP JUMPDEST PUSH2 0x10BA SWAP2 SWAP1 PUSH2 0x1985 JUMP JUMPDEST PUSH2 0x10C4 SWAP2 SWAP1 PUSH2 0x1B5D JUMP JUMPDEST PUSH1 0x3 PUSH2 0x10D0 SWAP2 SWAP1 PUSH2 0x190D JUMP JUMPDEST PUSH2 0x10DA SWAP2 SWAP1 PUSH2 0x1B5D JUMP JUMPDEST PUSH1 0xC DUP1 PUSH1 0xC PUSH1 0xE DUP9 PUSH2 0x10EC SWAP2 SWAP1 PUSH2 0x1BC7 JUMP JUMPDEST PUSH2 0x10F6 SWAP2 SWAP1 PUSH2 0x1B5D JUMP JUMPDEST PUSH2 0x1100 SWAP2 SWAP1 PUSH2 0x190D JUMP JUMPDEST PUSH1 0x2 DUP8 PUSH2 0x110D SWAP2 SWAP1 PUSH2 0x1BC7 JUMP JUMPDEST PUSH2 0x1117 SWAP2 SWAP1 PUSH2 0x1BC7 JUMP JUMPDEST PUSH2 0x16F PUSH2 0x1124 SWAP2 SWAP1 PUSH2 0x190D JUMP JUMPDEST PUSH2 0x112E SWAP2 SWAP1 PUSH2 0x1B5D JUMP JUMPDEST PUSH1 0x4 PUSH1 0xC PUSH1 0xE DUP9 PUSH2 0x113F SWAP2 SWAP1 PUSH2 0x1BC7 JUMP JUMPDEST PUSH2 0x1149 SWAP2 SWAP1 PUSH2 0x1B5D JUMP JUMPDEST PUSH2 0x12C0 DUP10 PUSH2 0x1157 SWAP2 SWAP1 PUSH2 0x1985 JUMP JUMPDEST PUSH2 0x1161 SWAP2 SWAP1 PUSH2 0x1985 JUMP JUMPDEST PUSH2 0x5B5 PUSH2 0x116E SWAP2 SWAP1 PUSH2 0x190D JUMP JUMPDEST PUSH2 0x1178 SWAP2 SWAP1 PUSH2 0x1B5D JUMP JUMPDEST PUSH2 0x7D4B DUP7 PUSH2 0x1186 SWAP2 SWAP1 PUSH2 0x1BC7 JUMP JUMPDEST PUSH2 0x1190 SWAP2 SWAP1 PUSH2 0x1985 JUMP JUMPDEST PUSH2 0x119A SWAP2 SWAP1 PUSH2 0x1985 JUMP JUMPDEST PUSH2 0x11A4 SWAP2 SWAP1 PUSH2 0x1BC7 JUMP JUMPDEST PUSH2 0x11AE SWAP2 SWAP1 PUSH2 0x1BC7 JUMP JUMPDEST SWAP1 POP DUP1 SWAP5 POP POP POP POP POP SWAP4 SWAP3 POP POP POP JUMP JUMPDEST PUSH1 0x0 PUSH1 0x1 DUP3 EQ DUP1 PUSH2 0x11CF JUMPI POP PUSH1 0x3 DUP3 EQ JUMPDEST DUP1 PUSH2 0x11DA JUMPI POP PUSH1 0x5 DUP3 EQ JUMPDEST DUP1 PUSH2 0x11E5 JUMPI POP PUSH1 0x7 DUP3 EQ JUMPDEST DUP1 PUSH2 0x11F0 JUMPI POP PUSH1 0x8 DUP3 EQ JUMPDEST DUP1 PUSH2 0x11FB JUMPI POP PUSH1 0xA DUP3 EQ JUMPDEST DUP1 PUSH2 0x1206 JUMPI POP PUSH1 0xC DUP3 EQ JUMPDEST ISZERO PUSH2 0x1214 JUMPI PUSH1 0x1F SWAP1 POP PUSH2 0x1243 JUMP JUMPDEST PUSH1 0x2 DUP3 EQ PUSH2 0x1225 JUMPI PUSH1 0x1E SWAP1 POP PUSH2 0x1242 JUMP JUMPDEST PUSH2 0x122E DUP4 PUSH2 0x1249 JUMP JUMPDEST PUSH2 0x1239 JUMPI PUSH1 0x1C PUSH2 0x123C JUMP JUMPDEST PUSH1 0x1D JUMPDEST PUSH1 0xFF AND SWAP1 POP JUMPDEST JUMPDEST SWAP3 SWAP2 POP POP JUMP JUMPDEST PUSH1 0x0 DUP1 PUSH1 0x4 DUP4 PUSH2 0x1259 SWAP2 SWAP1 PUSH2 0x1AB5 JUMP JUMPDEST EQ DUP1 ISZERO PUSH2 0x1273 JUMPI POP PUSH1 0x0 PUSH1 0x64 DUP4 PUSH2 0x1270 SWAP2 SWAP1 PUSH2 0x1AB5 JUMP JUMPDEST EQ ISZERO JUMPDEST DUP1 PUSH2 0x128B JUMPI POP PUSH1 0x0 PUSH2 0x190 DUP4 PUSH2 0x1289 SWAP2 SWAP1 PUSH2 0x1AB5 JUMP JUMPDEST EQ JUMPDEST SWAP1 POP SWAP2 SWAP1 POP JUMP JUMPDEST PUSH1 0x0 DUP1 REVERT JUMPDEST PUSH1 0x0 DUP2 SWAP1 POP SWAP2 SWAP1 POP JUMP JUMPDEST PUSH2 0x12AA DUP2 PUSH2 0x1297 JUMP JUMPDEST DUP2 EQ PUSH2 0x12B5 JUMPI PUSH1 0x0 DUP1 REVERT JUMPDEST POP JUMP JUMPDEST PUSH1 0x0 DUP2 CALLDATALOAD SWAP1 POP PUSH2 0x12C7 DUP2 PUSH2 0x12A1 JUMP JUMPDEST SWAP3 SWAP2 POP POP JUMP JUMPDEST PUSH1 0x0 DUP2 SWAP1 POP SWAP2 SWAP1 POP JUMP JUMPDEST PUSH2 0x12E0 DUP2 PUSH2 0x12CD JUMP JUMPDEST DUP2 EQ PUSH2 0x12EB JUMPI PUSH1 0x0 DUP1 REVERT JUMPDEST POP JUMP JUMPDEST PUSH1 0x0 DUP2 CALLDATALOAD SWAP1 POP PUSH2 0x12FD DUP2 PUSH2 0x12D7 JUMP JUMPDEST SWAP3 SWAP2 POP POP JUMP JUMPDEST PUSH1 0x0 DUP1 PUSH1 0x40 DUP4 DUP6 SUB SLT ISZERO PUSH2 0x131A JUMPI PUSH2 0x1319 PUSH2 0x1292 JUMP JUMPDEST JUMPDEST PUSH1 0x0 PUSH2 0x1328 DUP6 DUP3 DUP7 ADD PUSH2 0x12B8 JUMP JUMPDEST SWAP3 POP POP PUSH1 0x20 PUSH2 0x1339 DUP6 DUP3 DUP7 ADD PUSH2 0x12EE JUMP JUMPDEST SWAP2 POP POP SWAP3 POP SWAP3 SWAP1 POP JUMP JUMPDEST PUSH2 0x134C DUP2 PUSH2 0x1297 JUMP JUMPDEST DUP3 MSTORE POP POP JUMP JUMPDEST PUSH1 0x0 PUSH1 0x20 DUP3 ADD SWAP1 POP PUSH2 0x1367 PUSH1 0x0 DUP4 ADD DUP5 PUSH2 0x1343 JUMP JUMPDEST SWAP3 SWAP2 POP POP JUMP JUMPDEST PUSH1 0x0 DUP2 MLOAD SWAP1 POP SWAP2 SWAP1 POP JUMP JUMPDEST PUSH1 0x0 DUP3 DUP3 MSTORE PUSH1 0x20 DUP3 ADD SWAP1 POP SWAP3 SWAP2 POP POP JUMP JUMPDEST PUSH1 0x0 JUMPDEST DUP4 DUP2 LT ISZERO PUSH2 0x13A7 JUMPI DUP1 DUP3 ADD MLOAD DUP2 DUP5 ADD MSTORE PUSH1 0x20 DUP2 ADD SWAP1 POP PUSH2 0x138C JUMP JUMPDEST PUSH1 0x0 DUP5 DUP5 ADD MSTORE POP POP POP POP JUMP JUMPDEST PUSH1 0x0 PUSH1 0x1F NOT PUSH1 0x1F DUP4 ADD AND SWAP1 POP SWAP2 SWAP1 POP JUMP JUMPDEST PUSH1 0x0 PUSH2 0x13CF DUP3 PUSH2 0x136D JUMP JUMPDEST PUSH2 0x13D9 DUP2 DUP6 PUSH2 0x1378 JUMP JUMPDEST SWAP4 POP PUSH2 0x13E9 DUP2 DUP6 PUSH1 0x20 DUP7 ADD PUSH2 0x1389 JUMP JUMPDEST PUSH2 0x13F2 DUP2 PUSH2 0x13B3 JUMP JUMPDEST DUP5 ADD SWAP2 POP POP SWAP3 SWAP2 POP POP JUMP JUMPDEST PUSH1 0x0 PUSH1 0x40 DUP3 ADD SWAP1 POP DUP2 DUP2 SUB PUSH1 0x0 DUP4 ADD MSTORE PUSH2 0x1417 DUP2 DUP6 PUSH2 0x13C4 JUMP JUMPDEST SWAP1 POP DUP2 DUP2 SUB PUSH1 0x20 DUP4 ADD MSTORE PUSH2 0x142B DUP2 DUP5 PUSH2 0x13C4 JUMP JUMPDEST SWAP1 POP SWAP4 SWAP3 POP POP POP JUMP JUMPDEST PUSH1 0x0 PUSH1 0x20 DUP3 DUP5 SUB SLT ISZERO PUSH2 0x144A JUMPI PUSH2 0x1449 PUSH2 0x1292 JUMP JUMPDEST JUMPDEST PUSH1 0x0 PUSH2 0x1458 DUP5 DUP3 DUP6 ADD PUSH2 0x12B8 JUMP JUMPDEST SWAP2 POP POP SWAP3 SWAP2 POP POP JUMP JUMPDEST PUSH1 0x0 PUSH1 0x20 DUP3 ADD SWAP1 POP DUP2 DUP2 SUB PUSH1 0x0 DUP4 ADD MSTORE PUSH2 0x147B DUP2 DUP5 PUSH2 0x13C4 JUMP JUMPDEST SWAP1 POP SWAP3 SWAP2 POP POP JUMP JUMPDEST PUSH1 0x0 PUSH1 0x40 DUP3 ADD SWAP1 POP PUSH2 0x1498 PUSH1 0x0 DUP4 ADD DUP6 PUSH2 0x1343 JUMP JUMPDEST PUSH2 0x14A5 PUSH1 0x20 DUP4 ADD DUP5 PUSH2 0x1343 JUMP JUMPDEST SWAP4 SWAP3 POP POP POP JUMP JUMPDEST PUSH1 0x0 DUP1 PUSH1 0x40 DUP4 DUP6 SUB SLT ISZERO PUSH2 0x14C3 JUMPI PUSH2 0x14C2 PUSH2 0x1292 JUMP JUMPDEST JUMPDEST PUSH1 0x0 PUSH2 0x14D1 DUP6 DUP3 DUP7 ADD PUSH2 0x12B8 JUMP JUMPDEST SWAP3 POP POP PUSH1 0x20 PUSH2 0x14E2 DUP6 DUP3 DUP7 ADD PUSH2 0x12B8 JUMP JUMPDEST SWAP2 POP POP SWAP3 POP SWAP3 SWAP1 POP JUMP JUMPDEST PUSH1 0x0 PUSH1 0x60 DUP3 ADD SWAP1 POP PUSH2 0x1501 PUSH1 0x0 DUP4 ADD DUP7 PUSH2 0x1343 JUMP JUMPDEST PUSH2 0x150E PUSH1 0x20 DUP4 ADD DUP6 PUSH2 0x1343 JUMP JUMPDEST PUSH2 0x151B PUSH1 0x40 DUP4 ADD DUP5 PUSH2 0x1343 JUMP JUMPDEST SWAP5 SWAP4 POP POP POP POP JUMP JUMPDEST PUSH1 0x0 DUP1 PUSH1 0x0 DUP1 PUSH1 0x0 DUP1 PUSH1 0x0 PUSH1 0xE0 DUP9 DUP11 SUB SLT ISZERO PUSH2 0x1542 JUMPI PUSH2 0x1541 PUSH2 0x1292 JUMP JUMPDEST JUMPDEST PUSH1 0x0 PUSH2 0x1550 DUP11 DUP3 DUP12 ADD PUSH2 0x12B8 JUMP JUMPDEST SWAP8 POP POP PUSH1 0x20 PUSH2 0x1561 DUP11 DUP3 DUP12 ADD PUSH2 0x12B8 JUMP JUMPDEST SWAP7 POP POP PUSH1 0x40 PUSH2 0x1572 DUP11 DUP3 DUP12 ADD PUSH2 0x12B8 JUMP JUMPDEST SWAP6 POP POP PUSH1 0x60 PUSH2 0x1583 DUP11 DUP3 DUP12 ADD PUSH2 0x12B8 JUMP JUMPDEST SWAP5 POP POP PUSH1 0x80 PUSH2 0x1594 DUP11 DUP3 DUP12 ADD PUSH2 0x12B8 JUMP JUMPDEST SWAP4 POP POP PUSH1 0xA0 PUSH2 0x15A5 DUP11 DUP3 DUP12 ADD PUSH2 0x12B8 JUMP JUMPDEST SWAP3 POP POP PUSH1 0xC0 PUSH2 0x15B6 DUP11 DUP3 DUP12 ADD PUSH2 0x12EE JUMP JUMPDEST SWAP2 POP POP SWAP3 SWAP6 SWAP9 SWAP2 SWAP5 SWAP8 POP SWAP3 SWAP6 POP JUMP JUMPDEST PUSH1 0x0 PUSH1 0xC0 DUP3 ADD SWAP1 POP PUSH2 0x15DA PUSH1 0x0 DUP4 ADD DUP10 PUSH2 0x1343 JUMP JUMPDEST PUSH2 0x15E7 PUSH1 0x20 DUP4 ADD DUP9 PUSH2 0x1343 JUMP JUMPDEST PUSH2 0x15F4 PUSH1 0x40 DUP4 ADD DUP8 PUSH2 0x1343 JUMP JUMPDEST PUSH2 0x1601 PUSH1 0x60 DUP4 ADD DUP7 PUSH2 0x1343 JUMP JUMPDEST PUSH2 0x160E PUSH1 0x80 DUP4 ADD DUP6 PUSH2 0x1343 JUMP JUMPDEST PUSH2 0x161B PUSH1 0xA0 DUP4 ADD DUP5 PUSH2 0x1343 JUMP JUMPDEST SWAP8 SWAP7 POP POP POP POP POP POP POP JUMP JUMPDEST PUSH1 0x0 DUP1 PUSH1 0x0 DUP1 PUSH1 0x80 DUP6 DUP8 SUB SLT ISZERO PUSH2 0x1640 JUMPI PUSH2 0x163F PUSH2 0x1292 JUMP JUMPDEST JUMPDEST PUSH1 0x0 PUSH2 0x164E DUP8 DUP3 DUP9 ADD PUSH2 0x12B8 JUMP JUMPDEST SWAP5 POP POP PUSH1 0x20 PUSH2 0x165F DUP8 DUP3 DUP9 ADD PUSH2 0x12B8 JUMP JUMPDEST SWAP4 POP POP PUSH1 0x40 PUSH2 0x1670 DUP8 DUP3 DUP9 ADD PUSH2 0x12B8 JUMP JUMPDEST SWAP3 POP POP PUSH1 0x60 PUSH2 0x1681 DUP8 DUP3 DUP9 ADD PUSH2 0x12EE JUMP JUMPDEST SWAP2 POP POP SWAP3 SWAP6 SWAP2 SWAP5 POP SWAP3 POP JUMP JUMPDEST PUSH32 0x4E487B7100000000000000000000000000000000000000000000000000000000 PUSH1 0x0 MSTORE PUSH1 0x11 PUSH1 0x4 MSTORE PUSH1 0x24 PUSH1 0x0 REVERT JUMPDEST PUSH1 0x0 PUSH2 0x16C7 DUP3 PUSH2 0x1297 JUMP JUMPDEST SWAP2 POP PUSH2 0x16D2 DUP4 PUSH2 0x1297 JUMP JUMPDEST SWAP3 POP DUP3 DUP3 MUL PUSH2 0x16E0 DUP2 PUSH2 0x1297 JUMP JUMPDEST SWAP2 POP DUP3 DUP3 DIV DUP5 EQ DUP4 ISZERO OR PUSH2 0x16F7 JUMPI PUSH2 0x16F6 PUSH2 0x168D JUMP JUMPDEST JUMPDEST POP SWAP3 SWAP2 POP POP JUMP JUMPDEST PUSH1 0x0 PUSH2 0x1709 DUP3 PUSH2 0x1297 JUMP JUMPDEST SWAP2 POP PUSH2 0x1714 DUP4 PUSH2 0x1297 JUMP JUMPDEST SWAP3 POP DUP3 DUP3 ADD SWAP1 POP DUP1 DUP3 GT ISZERO PUSH2 0x172C JUMPI PUSH2 0x172B PUSH2 0x168D JUMP JUMPDEST JUMPDEST SWAP3 SWAP2 POP POP JUMP JUMPDEST PUSH1 0x0 DUP2 SWAP1 POP SWAP3 SWAP2 POP POP JUMP JUMPDEST PUSH1 0x0 PUSH2 0x1748 DUP3 PUSH2 0x136D JUMP JUMPDEST PUSH2 0x1752 DUP2 DUP6 PUSH2 0x1732 JUMP JUMPDEST SWAP4 POP PUSH2 0x1762 DUP2 DUP6 PUSH1 0x20 DUP7 ADD PUSH2 0x1389 JUMP JUMPDEST DUP1 DUP5 ADD SWAP2 POP POP SWAP3 SWAP2 POP POP JUMP JUMPDEST PUSH32 0x2F00000000000000000000000000000000000000000000000000000000000000 DUP2 MSTORE POP JUMP JUMPDEST PUSH1 0x0 PUSH2 0x17A0 DUP3 DUP7 PUSH2 0x173D JUMP JUMPDEST SWAP2 POP PUSH2 0x17AB DUP3 PUSH2 0x176E JUMP JUMPDEST PUSH1 0x1 DUP3 ADD SWAP2 POP PUSH2 0x17BB DUP3 DUP6 PUSH2 0x173D JUMP JUMPDEST SWAP2 POP PUSH2 0x17C6 DUP3 PUSH2 0x176E JUMP JUMPDEST PUSH1 0x1 DUP3 ADD SWAP2 POP PUSH2 0x17D6 DUP3 DUP5 PUSH2 0x173D JUMP JUMPDEST SWAP2 POP DUP2 SWAP1 POP SWAP5 SWAP4 POP POP POP POP JUMP JUMPDEST PUSH1 0x0 PUSH2 0x17EE DUP3 PUSH2 0x1297 JUMP JUMPDEST SWAP2 POP PUSH2 0x17F9 DUP4 PUSH2 0x1297 JUMP JUMPDEST SWAP3 POP DUP3 DUP3 SUB SWAP1 POP DUP2 DUP2 GT ISZERO PUSH2 0x1811 JUMPI PUSH2 0x1810 PUSH2 0x168D JUMP JUMPDEST JUMPDEST SWAP3 SWAP2 POP POP JUMP JUMPDEST PUSH32 0x3A00000000000000000000000000000000000000000000000000000000000000 DUP2 MSTORE POP JUMP JUMPDEST PUSH32 0x20504D0000000000000000000000000000000000000000000000000000000000 DUP2 MSTORE POP JUMP JUMPDEST PUSH1 0x0 PUSH2 0x186F DUP3 DUP6 PUSH2 0x173D JUMP JUMPDEST SWAP2 POP PUSH2 0x187A DUP3 PUSH2 0x1817 JUMP JUMPDEST PUSH1 0x1 DUP3 ADD SWAP2 POP PUSH2 0x188A DUP3 DUP5 PUSH2 0x173D JUMP JUMPDEST SWAP2 POP PUSH2 0x1895 DUP3 PUSH2 0x183D JUMP JUMPDEST PUSH1 0x3 DUP3 ADD SWAP2 POP DUP2 SWAP1 POP SWAP4 SWAP3 POP POP POP JUMP JUMPDEST PUSH32 0x20414D0000000000000000000000000000000000000000000000000000000000 DUP2 MSTORE POP JUMP JUMPDEST PUSH1 0x0 PUSH2 0x18D7 DUP3 DUP6 PUSH2 0x173D JUMP JUMPDEST SWAP2 POP PUSH2 0x18E2 DUP3 PUSH2 0x1817 JUMP JUMPDEST PUSH1 0x1 DUP3 ADD SWAP2 POP PUSH2 0x18F2 DUP3 DUP5 PUSH2 0x173D JUMP JUMPDEST SWAP2 POP PUSH2 0x18FD DUP3 PUSH2 0x18A5 JUMP JUMPDEST PUSH1 0x3 DUP3 ADD SWAP2 POP DUP2 SWAP1 POP SWAP4 SWAP3 POP POP POP JUMP JUMPDEST PUSH1 0x0 PUSH2 0x1918 DUP3 PUSH2 0x12CD JUMP JUMPDEST SWAP2 POP PUSH2 0x1923 DUP4 PUSH2 0x12CD JUMP JUMPDEST SWAP3 POP DUP3 DUP3 MUL PUSH2 0x1931 DUP2 PUSH2 0x12CD JUMP JUMPDEST SWAP2 POP PUSH32 0x8000000000000000000000000000000000000000000000000000000000000000 DUP5 EQ PUSH1 0x0 DUP5 SLT AND ISZERO PUSH2 0x1969 JUMPI PUSH2 0x1968 PUSH2 0x168D JUMP JUMPDEST JUMPDEST DUP3 DUP3 SDIV DUP5 EQ DUP4 ISZERO OR PUSH2 0x197E JUMPI PUSH2 0x197D PUSH2 0x168D JUMP JUMPDEST JUMPDEST POP SWAP3 SWAP2 POP POP JUMP JUMPDEST PUSH1 0x0 PUSH2 0x1990 DUP3 PUSH2 0x12CD JUMP JUMPDEST SWAP2 POP PUSH2 0x199B DUP4 PUSH2 0x12CD JUMP JUMPDEST SWAP3 POP DUP3 DUP3 ADD SWAP1 POP DUP3 DUP2 SLT ISZERO PUSH1 0x0 DUP4 SLT AND DUP4 DUP3 SLT PUSH1 0x0 DUP5 SLT ISZERO AND OR ISZERO PUSH2 0x19C3 JUMPI PUSH2 0x19C2 PUSH2 0x168D JUMP JUMPDEST JUMPDEST SWAP3 SWAP2 POP POP JUMP JUMPDEST PUSH1 0x0 PUSH2 0x19D5 DUP3 DUP6 PUSH2 0x173D JUMP JUMPDEST SWAP2 POP PUSH2 0x19E0 DUP3 PUSH2 0x1817 JUMP JUMPDEST PUSH1 0x1 DUP3 ADD SWAP2 POP PUSH2 0x19F0 DUP3 DUP5 PUSH2 0x173D JUMP JUMPDEST SWAP2 POP DUP2 SWAP1 POP SWAP4 SWAP3 POP POP POP JUMP JUMPDEST PUSH32 0x2000000000000000000000000000000000000000000000000000000000000000 DUP2 MSTORE POP JUMP JUMPDEST PUSH1 0x0 PUSH2 0x1A2E DUP3 DUP6 PUSH2 0x173D JUMP JUMPDEST SWAP2 POP PUSH2 0x1A39 DUP3 PUSH2 0x19FC JUMP JUMPDEST PUSH1 0x1 DUP3 ADD SWAP2 POP PUSH2 0x1A49 DUP3 DUP5 PUSH2 0x173D JUMP JUMPDEST SWAP2 POP DUP2 SWAP1 POP SWAP4 SWAP3 POP POP POP JUMP JUMPDEST PUSH32 0x4E487B7100000000000000000000000000000000000000000000000000000000 PUSH1 0x0 MSTORE PUSH1 0x12 PUSH1 0x4 MSTORE PUSH1 0x24 PUSH1 0x0 REVERT JUMPDEST PUSH1 0x0 PUSH2 0x1A8F DUP3 PUSH2 0x1297 JUMP JUMPDEST SWAP2 POP PUSH2 0x1A9A DUP4 PUSH2 0x1297 JUMP JUMPDEST SWAP3 POP DUP3 PUSH2 0x1AAA JUMPI PUSH2 0x1AA9 PUSH2 0x1A55 JUMP JUMPDEST JUMPDEST DUP3 DUP3 DIV SWAP1 POP SWAP3 SWAP2 POP POP JUMP JUMPDEST PUSH1 0x0 PUSH2 0x1AC0 DUP3 PUSH2 0x1297 JUMP JUMPDEST SWAP2 POP PUSH2 0x1ACB DUP4 PUSH2 0x1297 JUMP JUMPDEST SWAP3 POP DUP3 PUSH2 0x1ADB JUMPI PUSH2 0x1ADA PUSH2 0x1A55 JUMP JUMPDEST JUMPDEST DUP3 DUP3 MOD SWAP1 POP SWAP3 SWAP2 POP POP JUMP JUMPDEST PUSH1 0x0 PUSH2 0x1AF1 DUP3 PUSH2 0x12CD JUMP JUMPDEST SWAP2 POP PUSH32 0x8000000000000000000000000000000000000000000000000000000000000000 DUP3 SUB PUSH2 0x1B23 JUMPI PUSH2 0x1B22 PUSH2 0x168D JUMP JUMPDEST JUMPDEST DUP2 PUSH1 0x0 SUB SWAP1 POP SWAP2 SWAP1 POP JUMP JUMPDEST PUSH32 0x4E487B7100000000000000000000000000000000000000000000000000000000 PUSH1 0x0 MSTORE PUSH1 0x41 PUSH1 0x4 MSTORE PUSH1 0x24 PUSH1 0x0 REVERT JUMPDEST PUSH1 0x0 PUSH2 0x1B68 DUP3 PUSH2 0x12CD JUMP JUMPDEST SWAP2 POP PUSH2 0x1B73 DUP4 PUSH2 0x12CD JUMP JUMPDEST SWAP3 POP DUP3 PUSH2 0x1B83 JUMPI PUSH2 0x1B82 PUSH2 0x1A55 JUMP JUMPDEST JUMPDEST PUSH1 0x1 PUSH1 0x0 SUB DUP4 EQ PUSH32 0x8000000000000000000000000000000000000000000000000000000000000000 DUP4 EQ AND ISZERO PUSH2 0x1BBC JUMPI PUSH2 0x1BBB PUSH2 0x168D JUMP JUMPDEST JUMPDEST DUP3 DUP3 SDIV SWAP1 POP SWAP3 SWAP2 POP POP JUMP JUMPDEST PUSH1 0x0 PUSH2 0x1BD2 DUP3 PUSH2 0x12CD JUMP JUMPDEST SWAP2 POP PUSH2 0x1BDD DUP4 PUSH2 0x12CD JUMP JUMPDEST SWAP3 POP DUP3 DUP3 SUB SWAP1 POP DUP2 DUP2 SLT PUSH1 0x0 DUP5 SLT AND DUP3 DUP3 SGT PUSH1 0x0 DUP6 SLT ISZERO AND OR ISZERO PUSH2 0x1C04 JUMPI PUSH2 0x1C03 PUSH2 0x168D JUMP JUMPDEST JUMPDEST SWAP3 SWAP2 POP POP JUMP INVALID LOG2 PUSH5 0x6970667358 0x22 SLT KECCAK256 KECCAK256 0xA5 0xB9 DUP4 0xE9 0x25 MSTORE8 JUMPDEST 0xEA 0xC LOG2 0xA8 0xD1 MSTORE8 GASPRICE PUSH10 0x99EA51D2480E985A56B6 PUSH5 0xCB922EB3FE PUSH5 0x736F6C6343 STOP ADDMOD SGT STOP CALLER "
				},
				"gasEstimates": {
					"creation": {
						"codeDepositCost": "1446400",
						"executionCost": "1506",
						"totalCost": "1447906"
					},
					"external": {
						"addDays(uint256,uint256)": "infinite",
						"addTimezone(uint256,int256)": "infinite",
						"extractYMD(uint256)": "infinite",
						"getDayOfWeekFromYMD(uint256,int256)": "infinite",
						"getDaysInMonth(uint256,uint256)": "infinite",
						"getEndOfDate(uint256,int256)": "infinite",
						"getStartOfDate(uint256,int256)": "infinite",
						"getYM(uint256,int256)": "infinite",
						"getYMD(uint256,int256)": "infinite",
						"getYYYYMMDDAndTime(uint256,int256)": "infinite",
						"subDays(uint256,uint256)": "infinite",
						"timestampFromDate(uint256,uint256,uint256,int256)": "infinite",
						"timestampFromDateTime(uint256,uint256,uint256,uint256,uint256,uint256,int256)": "infinite",
						"timestampFromYMD(uint256,int256)": "infinite",
						"timestampFromYMD(uint256,uint256,uint256,int256)": "infinite",
						"timestampToDate(uint256,int256)": "infinite",
						"timestampToDateAndTimeString(uint256,int256)": "infinite",
						"timestampToDateTime(uint256,int256)": "infinite",
						"timestampToDetailString(uint256,int256)": "infinite",
						"timestampToString(uint256,int256)": "infinite",
						"ymdToString(uint256)": "infinite"
					}
				},
				"methodIdentifiers": {
					"addDays(uint256,uint256)": "7217523c",
					"addTimezone(uint256,int256)": "126a4bf3",
					"extractYMD(uint256)": "7bbb7570",
					"getDayOfWeekFromYMD(uint256,int256)": "eee32dff",
					"getDaysInMonth(uint256,uint256)": "be9afac7",
					"getEndOfDate(uint256,int256)": "576b2641",
					"getStartOfDate(uint256,int256)": "6986182d",
					"getYM(uint256,int256)": "c8dc5a22",
					"getYMD(uint256,int256)": "09d308ce",
					"getYYYYMMDDAndTime(uint256,int256)": "4c323edd",
					"subDays(uint256,uint256)": "c7b6fd6a",
					"timestampFromDate(uint256,uint256,uint256,int256)": "c0ad3328",
					"timestampFromDateTime(uint256,uint256,uint256,uint256,uint256,uint256,int256)": "90c9f844",
					"timestampFromYMD(uint256,int256)": "56551f26",
					"timestampFromYMD(uint256,uint256,uint256,int256)": "a434f137",
					"timestampToDate(uint256,int256)": "84a98eb9",
					"timestampToDateAndTimeString(uint256,int256)": "11f90965",
					"timestampToDateTime(uint256,int256)": "a2df2245",
					"timestampToDetailString(uint256,int256)": "6afa9dc5",
					"timestampToString(uint256,int256)": "cf6a169c",
					"ymdToString(uint256)": "4b31311a"
				}
			},
			"storageLayout": {
				"storage": [],
				"types": null
			},
			"userdoc": {
				"kind": "user",
				"methods": {},
				"notice": "#####################################################",
				"version": 1
			}
		}
	}
}