{
	"src/ecom/Noti.sol": {
		"NotificationManager": {
			"abi": [
				{
					"inputs": [],
					"stateMutability": "payable",
					"type": "constructor"
				},
				{
					"anonymous": false,
					"inputs": [
						{
							"indexed": true,
							"internalType": "address",
							"name": "dapp",
							"type": "address"
						},
						{
							"indexed": true,
							"internalType": "address",
							"name": "user",
							"type": "address"
						},
						{
							"indexed": false,
							"internalType": "string",
							"name": "encryptedToken",
							"type": "string"
						},
						{
							"indexed": false,
							"internalType": "uint8",
							"name": "platform",
							"type": "uint8"
						}
					],
					"name": "DeviceTokenRegistered",
					"type": "event"
				},
				{
					"anonymous": false,
					"inputs": [
						{
							"indexed": true,
							"internalType": "address",
							"name": "dapp",
							"type": "address"
						},
						{
							"indexed": true,
							"internalType": "address",
							"name": "user",
							"type": "address"
						},
						{
							"indexed": false,
							"internalType": "string",
							"name": "title",
							"type": "string"
						},
						{
							"indexed": false,
							"internalType": "string",
							"name": "body",
							"type": "string"
						},
						{
							"indexed": false,
							"internalType": "uint256",
							"name": "atTime",
							"type": "uint256"
						}
					],
					"name": "NotificationSent",
					"type": "event"
				},
				{
					"inputs": [
						{
							"components": [
								{
									"internalType": "string",
									"name": "title",
									"type": "string"
								},
								{
									"internalType": "string",
									"name": "body",
									"type": "string"
								}
							],
							"internalType": "struct NotiParams",
							"name": "params",
							"type": "tuple"
						},
						{
							"internalType": "address[]",
							"name": "_to",
							"type": "address[]"
						}
					],
					"name": "AddMultipleNoti",
					"outputs": [],
					"stateMutability": "nonpayable",
					"type": "function"
				},
				{
					"inputs": [
						{
							"components": [
								{
									"internalType": "string",
									"name": "title",
									"type": "string"
								},
								{
									"internalType": "string",
									"name": "body",
									"type": "string"
								}
							],
							"internalType": "struct NotiParams",
							"name": "params",
							"type": "tuple"
						},
						{
							"internalType": "address",
							"name": "_to",
							"type": "address"
						}
					],
					"name": "AddNoti",
					"outputs": [
						{
							"internalType": "bool",
							"name": "",
							"type": "bool"
						}
					],
					"stateMutability": "nonpayable",
					"type": "function"
				},
				{
					"inputs": [
						{
							"internalType": "address",
							"name": "_newAdmin",
							"type": "address"
						},
						{
							"internalType": "bool",
							"name": "add",
							"type": "bool"
						}
					],
					"name": "SetAdmin",
					"outputs": [],
					"stateMutability": "nonpayable",
					"type": "function"
				},
				{
					"inputs": [
						{
							"internalType": "address",
							"name": "dapp",
							"type": "address"
						}
					],
					"name": "addSystemDApp",
					"outputs": [],
					"stateMutability": "nonpayable",
					"type": "function"
				},
				{
					"inputs": [
						{
							"internalType": "address",
							"name": "_user",
							"type": "address"
						}
					],
					"name": "getAllDAppsPermissionByUser",
					"outputs": [
						{
							"internalType": "address[]",
							"name": "list",
							"type": "address[]"
						}
					],
					"stateMutability": "view",
					"type": "function"
				},
				{
					"inputs": [],
					"name": "getAllSystemDApps",
					"outputs": [
						{
							"internalType": "address[]",
							"name": "",
							"type": "address[]"
						}
					],
					"stateMutability": "view",
					"type": "function"
				},
				{
					"inputs": [
						{
							"internalType": "address",
							"name": "",
							"type": "address"
						}
					],
					"name": "isAdmin",
					"outputs": [
						{
							"internalType": "bool",
							"name": "",
							"type": "bool"
						}
					],
					"stateMutability": "view",
					"type": "function"
				},
				{
					"inputs": [
						{
							"internalType": "address",
							"name": "",
							"type": "address"
						},
						{
							"internalType": "address",
							"name": "",
							"type": "address"
						}
					],
					"name": "mDappUserToPermission",
					"outputs": [
						{
							"internalType": "bool",
							"name": "",
							"type": "bool"
						}
					],
					"stateMutability": "view",
					"type": "function"
				},
				{
					"inputs": [
						{
							"internalType": "address",
							"name": "",
							"type": "address"
						}
					],
					"name": "mSystemDApps",
					"outputs": [
						{
							"internalType": "bool",
							"name": "",
							"type": "bool"
						}
					],
					"stateMutability": "view",
					"type": "function"
				},
				{
					"inputs": [
						{
							"internalType": "address",
							"name": "",
							"type": "address"
						},
						{
							"internalType": "uint256",
							"name": "",
							"type": "uint256"
						}
					],
					"name": "mUserToDApps",
					"outputs": [
						{
							"internalType": "address",
							"name": "",
							"type": "address"
						}
					],
					"stateMutability": "view",
					"type": "function"
				},
				{
					"inputs": [],
					"name": "owner",
					"outputs": [
						{
							"internalType": "address",
							"name": "",
							"type": "address"
						}
					],
					"stateMutability": "view",
					"type": "function"
				},
				{
					"inputs": [
						{
							"internalType": "address",
							"name": "dapp",
							"type": "address"
						},
						{
							"internalType": "string",
							"name": "encryptedToken",
							"type": "string"
						},
						{
							"internalType": "enum PlatformEnum",
							"name": "_platform",
							"type": "uint8"
						}
					],
					"name": "registerDeviceToken",
					"outputs": [],
					"stateMutability": "nonpayable",
					"type": "function"
				},
				{
					"inputs": [
						{
							"internalType": "address",
							"name": "dapp",
							"type": "address"
						}
					],
					"name": "removeSystemDApp",
					"outputs": [],
					"stateMutability": "nonpayable",
					"type": "function"
				},
				{
					"inputs": [
						{
							"internalType": "address",
							"name": "dapp",
							"type": "address"
						}
					],
					"name": "revokeDAppPermission",
					"outputs": [],
					"stateMutability": "nonpayable",
					"type": "function"
				},
				{
					"inputs": [
						{
							"internalType": "uint256",
							"name": "",
							"type": "uint256"
						}
					],
					"name": "systemDApps",
					"outputs": [
						{
							"internalType": "address",
							"name": "",
							"type": "address"
						}
					],
					"stateMutability": "view",
					"type": "function"
				}
			],
			"devdoc": {
				"kind": "dev",
				"methods": {},
				"version": 1
			},
			"evm": {
				"assembly": "    /* \"src/ecom/Noti.sol\":89:3713  contract NotificationManager {... */\n  0x80\n  0x40\n  swap1\n  dup2\n  mstore\n    /* \"src/ecom/Noti.sol\":1246:1251  owner */\n  0x00\n    /* \"src/ecom/Noti.sol\":1246:1264  owner = msg.sender */\n  dup1\n  sload\n  not(sub(shl(0xa0, 0x01), 0x01))\n  and\n    /* \"src/ecom/Noti.sol\":1254:1264  msg.sender */\n  caller\n    /* \"src/ecom/Noti.sol\":1246:1264  owner = msg.sender */\n  swap1\n  dup2\n  or\n  dup3\n  sstore\n    /* \"src/ecom/Noti.sol\":1299:1318  isAdmin[msg.sender] */\n  dup2\n  mstore\n    /* \"src/ecom/Noti.sol\":1299:1306  isAdmin */\n  0x05\n    /* \"src/ecom/Noti.sol\":1299:1318  isAdmin[msg.sender] */\n  0x20\n  mstore\n  keccak256\n    /* \"src/ecom/Noti.sol\":1299:1324  isAdmin[msg.sender]= true */\n  dup1\n  sload\n  not(0xff)\n  and\n    /* \"src/ecom/Noti.sol\":1246:1264  owner = msg.sender */\n  0x01\n    /* \"src/ecom/Noti.sol\":1299:1324  isAdmin[msg.sender]= true */\n  or\n  swap1\n  sstore\n    /* \"src/ecom/Noti.sol\":89:3713  contract NotificationManager {... */\n  dataSize(sub_0)\n  dup1\n  dataOffset(sub_0)\n  0x00\n  codecopy\n  0x00\n  return\nstop\n\nsub_0: assembly {\n        /* \"src/ecom/Noti.sol\":89:3713  contract NotificationManager {... */\n      mstore(0x40, 0x80)\n      callvalue\n      dup1\n      iszero\n      tag_1\n      jumpi\n      revert(0x00, 0x00)\n    tag_1:\n      pop\n      jumpi(tag_2, lt(calldatasize, 0x04))\n      shr(0xe0, calldataload(0x00))\n      dup1\n      0x15f4f823\n      eq\n      tag_3\n      jumpi\n      dup1\n      0x192de59a\n      eq\n      tag_4\n      jumpi\n      dup1\n      0x24d7806c\n      eq\n      tag_5\n      jumpi\n      dup1\n      0x33158b13\n      eq\n      tag_6\n      jumpi\n      dup1\n      0x35c48ef6\n      eq\n      tag_7\n      jumpi\n      dup1\n      0x55a5194b\n      eq\n      tag_8\n      jumpi\n      dup1\n      0x564c2298\n      eq\n      tag_9\n      jumpi\n      dup1\n      0x7effb463\n      eq\n      tag_10\n      jumpi\n      dup1\n      0x8da5cb5b\n      eq\n      tag_11\n      jumpi\n      dup1\n      0x90cc9603\n      eq\n      tag_12\n      jumpi\n      dup1\n      0xd895af3d\n      eq\n      tag_13\n      jumpi\n      dup1\n      0xe7cd1385\n      eq\n      tag_14\n      jumpi\n      dup1\n      0xf8dbc9e8\n      eq\n      tag_15\n      jumpi\n      dup1\n      0xfe477261\n      eq\n      tag_16\n      jumpi\n      dup1\n      0xff10f086\n      eq\n      tag_17\n      jumpi\n    tag_2:\n      revert(0x00, 0x00)\n        /* \"src/ecom/Noti.sol\":544:588  mapping(address => bool) public mSystemDApps */\n    tag_3:\n      tag_18\n      tag_19\n      calldatasize\n      0x04\n      tag_20\n      jump\t// in\n    tag_19:\n      mstore(0x20, 0x02)\n      0x00\n      swap1\n      dup2\n      mstore\n      0x40\n      swap1\n      keccak256\n      sload\n      0xff\n      and\n      dup2\n      jump\n    tag_18:\n      mload(0x40)\n        /* \"#utility.yul\":548:562   */\n      swap1\n      iszero\n        /* \"#utility.yul\":541:563   */\n      iszero\n        /* \"#utility.yul\":523:564   */\n      dup2\n      mstore\n        /* \"#utility.yul\":511:513   */\n      0x20\n        /* \"#utility.yul\":496:514   */\n      add\n        /* \"src/ecom/Noti.sol\":544:588  mapping(address => bool) public mSystemDApps */\n    tag_22:\n      mload(0x40)\n      dup1\n      swap2\n      sub\n      swap1\n      return\n        /* \"src/ecom/Noti.sol\":628:677  mapping(address => address[]) public mUserToDApps */\n    tag_4:\n      tag_24\n      tag_25\n      calldatasize\n      0x04\n      tag_26\n      jump\t// in\n    tag_25:\n      tag_27\n      jump\t// in\n    tag_24:\n      mload(0x40)\n      sub(shl(0xa0, 0x01), 0x01)\n        /* \"#utility.yul\":1044:1076   */\n      swap1\n      swap2\n      and\n        /* \"#utility.yul\":1026:1077   */\n      dup2\n      mstore\n        /* \"#utility.yul\":1014:1016   */\n      0x20\n        /* \"#utility.yul\":999:1017   */\n      add\n        /* \"src/ecom/Noti.sol\":628:677  mapping(address => address[]) public mUserToDApps */\n      tag_22\n        /* \"#utility.yul\":880:1083   */\n      jump\n        /* \"src/ecom/Noti.sol\":683:722  mapping(address => bool) public isAdmin */\n    tag_5:\n      tag_18\n      tag_31\n      calldatasize\n      0x04\n      tag_20\n      jump\t// in\n    tag_31:\n      mstore(0x20, 0x05)\n      0x00\n      swap1\n      dup2\n      mstore\n      0x40\n      swap1\n      keccak256\n      sload\n      0xff\n      and\n      dup2\n      jump\n        /* \"src/ecom/Noti.sol\":2342:2832  function revokeDAppPermission(address dapp) external {... */\n    tag_6:\n      tag_34\n      tag_35\n      calldatasize\n      0x04\n      tag_20\n      jump\t// in\n    tag_35:\n      tag_36\n      jump\t// in\n    tag_34:\n      stop\n        /* \"src/ecom/Noti.sol\":594:622  address[] public systemDApps */\n    tag_7:\n      tag_24\n      tag_38\n      calldatasize\n      0x04\n      tag_39\n      jump\t// in\n    tag_38:\n      tag_40\n      jump\t// in\n        /* \"src/ecom/Noti.sol\":1336:1442  function SetAdmin(address _newAdmin, bool add) external onlyOwner{... */\n    tag_8:\n      tag_34\n      tag_43\n      calldatasize\n      0x04\n      tag_44\n      jump\t// in\n    tag_43:\n      tag_45\n      jump\t// in\n        /* \"src/ecom/Noti.sol\":464:537  mapping(address => mapping(address => bool)) public mDappUserToPermission */\n    tag_9:\n      tag_18\n      tag_47\n      calldatasize\n      0x04\n      tag_48\n      jump\t// in\n    tag_47:\n      0x01\n      0x20\n      swap1\n      dup2\n      mstore\n      0x00\n      swap3\n      dup4\n      mstore\n      0x40\n      dup1\n      dup5\n      keccak256\n      swap1\n      swap2\n      mstore\n      swap1\n      dup3\n      mstore\n      swap1\n      keccak256\n      sload\n      0xff\n      and\n      dup2\n      jump\n        /* \"src/ecom/Noti.sol\":1583:1897  function removeSystemDApp(address dapp) external onlyAdmin {... */\n    tag_10:\n      tag_34\n      tag_52\n      calldatasize\n      0x04\n      tag_20\n      jump\t// in\n    tag_52:\n      tag_53\n      jump\t// in\n        /* \"src/ecom/Noti.sol\":124:144  address public owner */\n    tag_11:\n      sload(0x00)\n      tag_24\n      swap1\n      sub(shl(0xa0, 0x01), 0x01)\n      and\n      dup2\n      jump\n        /* \"src/ecom/Noti.sol\":3451:3710  function AddMultipleNoti(... */\n    tag_12:\n      tag_34\n      tag_58\n      calldatasize\n      0x04\n      tag_59\n      jump\t// in\n    tag_58:\n      tag_60\n      jump\t// in\n        /* \"src/ecom/Noti.sol\":2009:2336  function registerDeviceToken(address dapp, string calldata encryptedToken,PlatformEnum _platform) external {... */\n    tag_13:\n      tag_34\n      tag_62\n      calldatasize\n      0x04\n      tag_63\n      jump\t// in\n    tag_62:\n      tag_64\n      jump\t// in\n        /* \"src/ecom/Noti.sol\":1902:2004  function getAllSystemDApps()external view returns(address[] memory){... */\n    tag_14:\n      tag_65\n      tag_66\n      jump\t// in\n    tag_65:\n      mload(0x40)\n      tag_22\n      swap2\n      swap1\n      tag_68\n      jump\t// in\n        /* \"src/ecom/Noti.sol\":2837:3123  function getAllDAppsPermissionByUser(address _user) external view returns(address[] memory list){... */\n    tag_15:\n      tag_65\n      tag_70\n      calldatasize\n      0x04\n      tag_20\n      jump\t// in\n    tag_70:\n      tag_71\n      jump\t// in\n        /* \"src/ecom/Noti.sol\":3129:3444  function AddNoti(... */\n    tag_16:\n      tag_18\n      tag_74\n      calldatasize\n      0x04\n      tag_75\n      jump\t// in\n    tag_74:\n      tag_76\n      jump\t// in\n        /* \"src/ecom/Noti.sol\":1447:1577  function addSystemDApp(address dapp) external onlyAdmin {... */\n    tag_17:\n      tag_34\n      tag_79\n      calldatasize\n      0x04\n      tag_20\n      jump\t// in\n    tag_79:\n      tag_80\n      jump\t// in\n        /* \"src/ecom/Noti.sol\":628:677  mapping(address => address[]) public mUserToDApps */\n    tag_27:\n      mstore(0x20, 0x04)\n      dup2\n      0x00\n      mstore\n      keccak256(0x00, 0x40)\n      dup2\n      dup2\n      sload\n      dup2\n      lt\n      tag_81\n      jumpi\n      0x00\n      dup1\n      revert\n    tag_81:\n      0x00\n      swap2\n      dup3\n      mstore\n      0x20\n      swap1\n      swap2\n      keccak256\n      add\n      sload\n      sub(shl(0xa0, 0x01), 0x01)\n      and\n      swap2\n      pop\n      dup3\n      swap1\n      pop\n      jump\t// out\n        /* \"src/ecom/Noti.sol\":2342:2832  function revokeDAppPermission(address dapp) external {... */\n    tag_36:\n      sub(shl(0xa0, 0x01), 0x01)\n        /* \"src/ecom/Noti.sol\":2426:2453  mDappUserToPermission[dapp] */\n      dup2\n      and\n      0x00\n      swap1\n      dup2\n      mstore\n        /* \"src/ecom/Noti.sol\":2426:2447  mDappUserToPermission */\n      0x01\n        /* \"src/ecom/Noti.sol\":2426:2453  mDappUserToPermission[dapp] */\n      0x20\n      swap1\n      dup2\n      mstore\n      0x40\n      dup1\n      dup4\n      keccak256\n        /* \"src/ecom/Noti.sol\":2454:2464  msg.sender */\n      caller\n        /* \"src/ecom/Noti.sol\":2426:2465  mDappUserToPermission[dapp][msg.sender] */\n      dup5\n      mstore\n      swap1\n      swap2\n      mstore\n      swap1\n      keccak256\n      sload\n      0xff\n      and\n        /* \"src/ecom/Noti.sol\":2405:2532  require(... */\n      tag_84\n      jumpi\n      mload(0x40)\n      shl(0xe5, 0x461bcd)\n      dup2\n      mstore\n        /* \"#utility.yul\":6968:6970   */\n      0x20\n        /* \"src/ecom/Noti.sol\":2405:2532  require(... */\n      0x04\n      dup3\n      add\n        /* \"#utility.yul\":6950:6971   */\n      mstore\n        /* \"#utility.yul\":7007:7009   */\n      0x29\n        /* \"#utility.yul\":6987:7005   */\n      0x24\n      dup3\n      add\n        /* \"#utility.yul\":6980:7010   */\n      mstore\n        /* \"#utility.yul\":7046:7080   */\n      0x44657669636520746f6b656e206e6f74207265676973746572656420666f7220\n        /* \"#utility.yul\":7026:7044   */\n      0x44\n      dup3\n      add\n        /* \"#utility.yul\":7019:7081   */\n      mstore\n      shl(0xbc, 0x074686973204441707)\n        /* \"#utility.yul\":7097:7115   */\n      0x64\n      dup3\n      add\n        /* \"#utility.yul\":7090:7129   */\n      mstore\n        /* \"#utility.yul\":7146:7165   */\n      0x84\n      add\n        /* \"src/ecom/Noti.sol\":2405:2532  require(... */\n    tag_85:\n      mload(0x40)\n      dup1\n      swap2\n      sub\n      swap1\n      revert\n    tag_84:\n      sub(shl(0xa0, 0x01), 0x01)\n        /* \"src/ecom/Noti.sol\":2542:2569  mDappUserToPermission[dapp] */\n      dup2\n      and\n        /* \"src/ecom/Noti.sol\":2584:2589  false */\n      0x00\n        /* \"src/ecom/Noti.sol\":2542:2569  mDappUserToPermission[dapp] */\n      swap1\n      dup2\n      mstore\n        /* \"src/ecom/Noti.sol\":2542:2563  mDappUserToPermission */\n      0x01\n        /* \"src/ecom/Noti.sol\":2542:2569  mDappUserToPermission[dapp] */\n      0x20\n      swap1\n      dup2\n      mstore\n      0x40\n      dup1\n      dup4\n      keccak256\n        /* \"src/ecom/Noti.sol\":2570:2580  msg.sender */\n      caller\n        /* \"src/ecom/Noti.sol\":2542:2581  mDappUserToPermission[dapp][msg.sender] */\n      dup5\n      mstore\n      dup3\n      mstore\n      dup1\n      dup4\n      keccak256\n        /* \"src/ecom/Noti.sol\":2542:2589  mDappUserToPermission[dapp][msg.sender] = false */\n      dup1\n      sload\n      not(0xff)\n      and\n      swap1\n      sstore\n        /* \"src/ecom/Noti.sol\":2625:2637  mUserToDApps */\n      0x04\n        /* \"src/ecom/Noti.sol\":2625:2649  mUserToDApps[msg.sender] */\n      swap1\n      swap2\n      mstore\n      dup2\n      keccak256\n      swap1\n        /* \"src/ecom/Noti.sol\":2659:2826  for(uint i;i<dapps.length;i++){... */\n    tag_87:\n        /* \"src/ecom/Noti.sol\":2672:2684  dapps.length */\n      dup2\n      sload\n        /* \"src/ecom/Noti.sol\":2670:2684  i<dapps.length */\n      dup2\n      lt\n        /* \"src/ecom/Noti.sol\":2659:2826  for(uint i;i<dapps.length;i++){... */\n      iszero\n      tag_88\n      jumpi\n        /* \"src/ecom/Noti.sol\":2715:2720  dapps */\n      dup2\n        /* \"src/ecom/Noti.sol\":2721:2722  i */\n      dup2\n        /* \"src/ecom/Noti.sol\":2715:2723  dapps[i] */\n      dup2\n      sload\n      dup2\n      lt\n      tag_91\n      jumpi\n      tag_91\n      tag_92\n      jump\t// in\n    tag_91:\n      0x00\n      swap2\n      dup3\n      mstore\n      0x20\n      swap1\n      swap2\n      keccak256\n      add\n      sload\n      sub(shl(0xa0, 0x01), 0x01)\n      swap1\n      dup2\n      and\n        /* \"src/ecom/Noti.sol\":2707:2723  dapp == dapps[i] */\n      swap1\n      dup5\n      and\n      sub\n        /* \"src/ecom/Noti.sol\":2703:2791  if (dapp == dapps[i]){... */\n      tag_94\n      jumpi\n        /* \"src/ecom/Noti.sol\":2759:2771  dapps.length */\n      dup2\n      sload\n        /* \"src/ecom/Noti.sol\":2753:2758  dapps */\n      dup3\n      swap1\n        /* \"src/ecom/Noti.sol\":2759:2775  dapps.length - 1 */\n      tag_95\n      swap1\n        /* \"src/ecom/Noti.sol\":2774:2775  1 */\n      0x01\n      swap1\n        /* \"src/ecom/Noti.sol\":2759:2775  dapps.length - 1 */\n      tag_96\n      jump\t// in\n    tag_95:\n        /* \"src/ecom/Noti.sol\":2753:2776  dapps[dapps.length - 1] */\n      dup2\n      sload\n      dup2\n      lt\n      tag_98\n      jumpi\n      tag_98\n      tag_92\n      jump\t// in\n    tag_98:\n      swap1\n      0x00\n      mstore\n      keccak256(0x00, 0x20)\n      add\n      0x00\n      swap1\n      sload\n      swap1\n      0x0100\n      exp\n      swap1\n      div\n      sub(shl(0xa0, 0x01), 0x01)\n      and\n        /* \"src/ecom/Noti.sol\":2742:2747  dapps */\n      dup3\n        /* \"src/ecom/Noti.sol\":2748:2749  i */\n      dup3\n        /* \"src/ecom/Noti.sol\":2742:2750  dapps[i] */\n      dup2\n      sload\n      dup2\n      lt\n      tag_101\n      jumpi\n      tag_101\n      tag_92\n      jump\t// in\n    tag_101:\n      swap1\n      0x00\n      mstore\n      keccak256(0x00, 0x20)\n      add\n      0x00\n        /* \"src/ecom/Noti.sol\":2742:2776  dapps[i] = dapps[dapps.length - 1] */\n      0x0100\n      exp\n      dup2\n      sload\n      dup2\n      sub(shl(0xa0, 0x01), 0x01)\n      mul\n      not\n      and\n      swap1\n      dup4\n      sub(shl(0xa0, 0x01), 0x01)\n      and\n      mul\n      or\n      swap1\n      sstore\n      pop\n        /* \"src/ecom/Noti.sol\":2703:2791  if (dapp == dapps[i]){... */\n    tag_94:\n        /* \"src/ecom/Noti.sol\":2804:2809  dapps */\n      dup2\n        /* \"src/ecom/Noti.sol\":2804:2815  dapps.pop() */\n      dup1\n      sload\n      dup1\n      tag_104\n      jumpi\n      tag_104\n      tag_105\n      jump\t// in\n    tag_104:\n      0x00\n      dup3\n      dup2\n      mstore\n      0x20\n      swap1\n      keccak256\n      dup2\n      add\n      not(0x00)\n      swap1\n      dup2\n      add\n      dup1\n      sload\n      not(sub(shl(0xa0, 0x01), 0x01))\n      and\n      swap1\n      sstore\n      add\n      swap1\n      sstore\n      0x01\n        /* \"src/ecom/Noti.sol\":2685:2688  i++ */\n      add\n        /* \"src/ecom/Noti.sol\":2659:2826  for(uint i;i<dapps.length;i++){... */\n      jump(tag_87)\n    tag_88:\n      pop\n        /* \"src/ecom/Noti.sol\":2395:2832  {... */\n      pop\n        /* \"src/ecom/Noti.sol\":2342:2832  function revokeDAppPermission(address dapp) external {... */\n      pop\n      jump\t// out\n        /* \"src/ecom/Noti.sol\":594:622  address[] public systemDApps */\n    tag_40:\n      0x03\n      dup2\n      dup2\n      sload\n      dup2\n      lt\n      tag_107\n      jumpi\n      0x00\n      dup1\n      revert\n    tag_107:\n      0x00\n      swap2\n      dup3\n      mstore\n      0x20\n      swap1\n      swap2\n      keccak256\n      add\n      sload\n      sub(shl(0xa0, 0x01), 0x01)\n      and\n      swap1\n      pop\n      dup2\n      jump\t// out\n        /* \"src/ecom/Noti.sol\":1336:1442  function SetAdmin(address _newAdmin, bool add) external onlyOwner{... */\n    tag_45:\n        /* \"src/ecom/Noti.sol\":1150:1155  owner */\n      and(sub(shl(0xa0, 0x01), 0x01), sload(0x00))\n        /* \"src/ecom/Noti.sol\":1136:1146  msg.sender */\n      caller\n        /* \"src/ecom/Noti.sol\":1136:1155  msg.sender == owner */\n      eq\n        /* \"src/ecom/Noti.sol\":1116:1191  require(... */\n      tag_110\n      jumpi\n      mload(0x40)\n      shl(0xe5, 0x461bcd)\n      dup2\n      mstore\n        /* \"#utility.yul\":7872:7874   */\n      0x20\n        /* \"src/ecom/Noti.sol\":1116:1191  require(... */\n      0x04\n      dup3\n      add\n        /* \"#utility.yul\":7854:7875   */\n      mstore\n        /* \"#utility.yul\":7911:7913   */\n      0x0a\n        /* \"#utility.yul\":7891:7909   */\n      0x24\n      dup3\n      add\n        /* \"#utility.yul\":7884:7914   */\n      mstore\n      shl(0xb1, 0x37b7363c9037bbb732b9)\n        /* \"#utility.yul\":7930:7948   */\n      0x44\n      dup3\n      add\n        /* \"#utility.yul\":7923:7963   */\n      mstore\n        /* \"#utility.yul\":7980:7998   */\n      0x64\n      add\n        /* \"src/ecom/Noti.sol\":1116:1191  require(... */\n      tag_85\n        /* \"#utility.yul\":7670:8004   */\n      jump\n        /* \"src/ecom/Noti.sol\":1116:1191  require(... */\n    tag_110:\n      sub(shl(0xa0, 0x01), 0x01)\n        /* \"src/ecom/Noti.sol\":1411:1429  isAdmin[_newAdmin] */\n      swap2\n      swap1\n      swap2\n      and\n      0x00\n      swap1\n      dup2\n      mstore\n        /* \"src/ecom/Noti.sol\":1411:1418  isAdmin */\n      0x05\n        /* \"src/ecom/Noti.sol\":1411:1429  isAdmin[_newAdmin] */\n      0x20\n      mstore\n      0x40\n      swap1\n      keccak256\n        /* \"src/ecom/Noti.sol\":1411:1435  isAdmin[_newAdmin] = add */\n      dup1\n      sload\n      not(0xff)\n      and\n      swap2\n      iszero\n      iszero\n      swap2\n      swap1\n      swap2\n      or\n      swap1\n      sstore\n        /* \"src/ecom/Noti.sol\":1336:1442  function SetAdmin(address _newAdmin, bool add) external onlyOwner{... */\n      jump\t// out\n        /* \"src/ecom/Noti.sol\":1583:1897  function removeSystemDApp(address dapp) external onlyAdmin {... */\n    tag_53:\n        /* \"src/ecom/Noti.sol\":775:785  msg.sender */\n      caller\n        /* \"src/ecom/Noti.sol\":767:786  isAdmin[msg.sender] */\n      0x00\n      swap1\n      dup2\n      mstore\n        /* \"src/ecom/Noti.sol\":767:774  isAdmin */\n      0x05\n        /* \"src/ecom/Noti.sol\":767:786  isAdmin[msg.sender] */\n      0x20\n      mstore\n      0x40\n      swap1\n      keccak256\n      sload\n      0xff\n      and\n        /* \"src/ecom/Noti.sol\":767:794  isAdmin[msg.sender] == true */\n      iszero\n      iszero\n        /* \"src/ecom/Noti.sol\":767:786  isAdmin[msg.sender] */\n      0x01\n        /* \"src/ecom/Noti.sol\":767:794  isAdmin[msg.sender] == true */\n      eq\n        /* \"src/ecom/Noti.sol\":759:833  require(isAdmin[msg.sender] == true, \"Only admin can perform this action\") */\n      tag_115\n      jumpi\n      mload(0x40)\n      shl(0xe5, 0x461bcd)\n      dup2\n      mstore\n      0x04\n      add\n      tag_85\n      swap1\n      tag_117\n      jump\t// in\n    tag_115:\n      sub(shl(0xa0, 0x01), 0x01)\n        /* \"src/ecom/Noti.sol\":1652:1670  mSystemDApps[dapp] */\n      dup2\n      and\n        /* \"src/ecom/Noti.sol\":1673:1678  false */\n      0x00\n        /* \"src/ecom/Noti.sol\":1652:1670  mSystemDApps[dapp] */\n      swap1\n      dup2\n      mstore\n        /* \"src/ecom/Noti.sol\":1652:1664  mSystemDApps */\n      0x02\n        /* \"src/ecom/Noti.sol\":1652:1670  mSystemDApps[dapp] */\n      0x20\n      mstore\n      0x40\n      dup2\n      keccak256\n        /* \"src/ecom/Noti.sol\":1652:1678  mSystemDApps[dapp] = false */\n      dup1\n      sload\n      not(0xff)\n      and\n      swap1\n      sstore\n        /* \"src/ecom/Noti.sol\":1688:1891  for(uint i;i<systemDApps.length;i++){... */\n    tag_119:\n        /* \"src/ecom/Noti.sol\":1701:1712  systemDApps */\n      0x03\n        /* \"src/ecom/Noti.sol\":1701:1719  systemDApps.length */\n      sload\n        /* \"src/ecom/Noti.sol\":1699:1719  i<systemDApps.length */\n      dup2\n      lt\n        /* \"src/ecom/Noti.sol\":1688:1891  for(uint i;i<systemDApps.length;i++){... */\n      iszero\n      tag_120\n      jumpi\n        /* \"src/ecom/Noti.sol\":1750:1761  systemDApps */\n      0x03\n        /* \"src/ecom/Noti.sol\":1762:1763  i */\n      dup2\n        /* \"src/ecom/Noti.sol\":1750:1764  systemDApps[i] */\n      dup2\n      sload\n      dup2\n      lt\n      tag_123\n      jumpi\n      tag_123\n      tag_92\n      jump\t// in\n    tag_123:\n      0x00\n      swap2\n      dup3\n      mstore\n      0x20\n      swap1\n      swap2\n      keccak256\n      add\n      sload\n      sub(shl(0xa0, 0x01), 0x01)\n      swap1\n      dup2\n      and\n        /* \"src/ecom/Noti.sol\":1742:1764  dapp == systemDApps[i] */\n      swap1\n      dup4\n      and\n      sub\n        /* \"src/ecom/Noti.sol\":1738:1850  if (dapp == systemDApps[i]){... */\n      tag_125\n      jumpi\n        /* \"src/ecom/Noti.sol\":1800:1811  systemDApps */\n      0x03\n        /* \"src/ecom/Noti.sol\":1812:1830  systemDApps.length */\n      dup1\n      sload\n        /* \"src/ecom/Noti.sol\":1812:1834  systemDApps.length - 1 */\n      tag_126\n      swap1\n        /* \"src/ecom/Noti.sol\":1833:1834  1 */\n      0x01\n      swap1\n        /* \"src/ecom/Noti.sol\":1812:1834  systemDApps.length - 1 */\n      tag_96\n      jump\t// in\n    tag_126:\n        /* \"src/ecom/Noti.sol\":1800:1835  systemDApps[systemDApps.length - 1] */\n      dup2\n      sload\n      dup2\n      lt\n      tag_128\n      jumpi\n      tag_128\n      tag_92\n      jump\t// in\n    tag_128:\n      0x00\n      swap2\n      dup3\n      mstore\n      0x20\n      swap1\n      swap2\n      keccak256\n      add\n      sload\n        /* \"src/ecom/Noti.sol\":1783:1794  systemDApps */\n      0x03\n        /* \"src/ecom/Noti.sol\":1783:1797  systemDApps[i] */\n      dup1\n      sload\n      sub(shl(0xa0, 0x01), 0x01)\n        /* \"src/ecom/Noti.sol\":1800:1835  systemDApps[systemDApps.length - 1] */\n      swap1\n      swap3\n      and\n      swap2\n        /* \"src/ecom/Noti.sol\":1795:1796  i */\n      dup4\n      swap1\n        /* \"src/ecom/Noti.sol\":1783:1797  systemDApps[i] */\n      dup2\n      lt\n      tag_131\n      jumpi\n      tag_131\n      tag_92\n      jump\t// in\n    tag_131:\n      swap1\n      0x00\n      mstore\n      keccak256(0x00, 0x20)\n      add\n      0x00\n        /* \"src/ecom/Noti.sol\":1783:1835  systemDApps[i] = systemDApps[systemDApps.length - 1] */\n      0x0100\n      exp\n      dup2\n      sload\n      dup2\n      sub(shl(0xa0, 0x01), 0x01)\n      mul\n      not\n      and\n      swap1\n      dup4\n      sub(shl(0xa0, 0x01), 0x01)\n      and\n      mul\n      or\n      swap1\n      sstore\n      pop\n        /* \"src/ecom/Noti.sol\":1738:1850  if (dapp == systemDApps[i]){... */\n    tag_125:\n        /* \"src/ecom/Noti.sol\":1863:1874  systemDApps */\n      0x03\n        /* \"src/ecom/Noti.sol\":1863:1880  systemDApps.pop() */\n      dup1\n      sload\n      dup1\n      tag_134\n      jumpi\n      tag_134\n      tag_105\n      jump\t// in\n    tag_134:\n      0x00\n      dup3\n      dup2\n      mstore\n      0x20\n      swap1\n      keccak256\n      dup2\n      add\n      not(0x00)\n      swap1\n      dup2\n      add\n      dup1\n      sload\n      not(sub(shl(0xa0, 0x01), 0x01))\n      and\n      swap1\n      sstore\n      add\n      swap1\n      sstore\n      0x01\n        /* \"src/ecom/Noti.sol\":1720:1723  i++ */\n      add\n        /* \"src/ecom/Noti.sol\":1688:1891  for(uint i;i<systemDApps.length;i++){... */\n      jump(tag_119)\n    tag_120:\n      pop\n        /* \"src/ecom/Noti.sol\":1583:1897  function removeSystemDApp(address dapp) external onlyAdmin {... */\n      pop\n      jump\t// out\n        /* \"src/ecom/Noti.sol\":3451:3710  function AddMultipleNoti(... */\n    tag_60:\n        /* \"src/ecom/Noti.sol\":3587:3588  0 */\n      0x00\n        /* \"src/ecom/Noti.sol\":3575:3578  _to */\n      dup2\n        /* \"src/ecom/Noti.sol\":3575:3585  _to.length */\n      mload\n        /* \"src/ecom/Noti.sol\":3575:3588  _to.length >0 */\n      gt\n        /* \"src/ecom/Noti.sol\":3567:3608  require(_to.length >0,\"to list is empty\") */\n      tag_137\n      jumpi\n      mload(0x40)\n      shl(0xe5, 0x461bcd)\n      dup2\n      mstore\n        /* \"#utility.yul\":8614:8616   */\n      0x20\n        /* \"src/ecom/Noti.sol\":3567:3608  require(_to.length >0,\"to list is empty\") */\n      0x04\n      dup3\n      add\n        /* \"#utility.yul\":8596:8617   */\n      mstore\n        /* \"#utility.yul\":8653:8655   */\n      0x10\n        /* \"#utility.yul\":8633:8651   */\n      0x24\n      dup3\n      add\n        /* \"#utility.yul\":8626:8656   */\n      mstore\n      shl(0x80, 0x746f206c69737420697320656d707479)\n        /* \"#utility.yul\":8672:8690   */\n      0x44\n      dup3\n      add\n        /* \"#utility.yul\":8665:8711   */\n      mstore\n        /* \"#utility.yul\":8728:8746   */\n      0x64\n      add\n        /* \"src/ecom/Noti.sol\":3567:3608  require(_to.length >0,\"to list is empty\") */\n      tag_85\n        /* \"#utility.yul\":8412:8752   */\n      jump\n        /* \"src/ecom/Noti.sol\":3567:3608  require(_to.length >0,\"to list is empty\") */\n    tag_137:\n        /* \"src/ecom/Noti.sol\":3628:3634  uint i */\n      0x00\n        /* \"src/ecom/Noti.sol\":3623:3704  for (uint i =0 ;i<_to.length;i++) {... */\n    tag_140:\n        /* \"src/ecom/Noti.sol\":3641:3644  _to */\n      dup2\n        /* \"src/ecom/Noti.sol\":3641:3651  _to.length */\n      mload\n        /* \"src/ecom/Noti.sol\":3639:3640  i */\n      dup2\n        /* \"src/ecom/Noti.sol\":3639:3651  i<_to.length */\n      lt\n        /* \"src/ecom/Noti.sol\":3623:3704  for (uint i =0 ;i<_to.length;i++) {... */\n      iszero\n      tag_88\n      jumpi\n        /* \"src/ecom/Noti.sol\":3671:3693  AddNoti(params,_to[i]) */\n      tag_143\n        /* \"src/ecom/Noti.sol\":3679:3685  params */\n      dup4\n        /* \"src/ecom/Noti.sol\":3686:3689  _to */\n      dup4\n        /* \"src/ecom/Noti.sol\":3690:3691  i */\n      dup4\n        /* \"src/ecom/Noti.sol\":3686:3692  _to[i] */\n      dup2\n      mload\n      dup2\n      lt\n      tag_145\n      jumpi\n      tag_145\n      tag_92\n      jump\t// in\n    tag_145:\n      0x20\n      mul\n      0x20\n      add\n      add\n      mload\n        /* \"src/ecom/Noti.sol\":3671:3678  AddNoti */\n      tag_76\n        /* \"src/ecom/Noti.sol\":3671:3693  AddNoti(params,_to[i]) */\n      jump\t// in\n    tag_143:\n      pop\n        /* \"src/ecom/Noti.sol\":3652:3655  i++ */\n      0x01\n      add\n        /* \"src/ecom/Noti.sol\":3623:3704  for (uint i =0 ;i<_to.length;i++) {... */\n      jump(tag_140)\n        /* \"src/ecom/Noti.sol\":2009:2336  function registerDeviceToken(address dapp, string calldata encryptedToken,PlatformEnum _platform) external {... */\n    tag_64:\n      sub(shl(0xa0, 0x01), 0x01)\n        /* \"src/ecom/Noti.sol\":2126:2153  mDappUserToPermission[dapp] */\n      dup5\n      and\n      0x00\n      dup2\n      dup2\n      mstore\n        /* \"src/ecom/Noti.sol\":2168:2172  true */\n      0x01\n        /* \"src/ecom/Noti.sol\":2126:2153  mDappUserToPermission[dapp] */\n      0x20\n      dup2\n      dup2\n      mstore\n      0x40\n      dup1\n      dup5\n      keccak256\n        /* \"src/ecom/Noti.sol\":2154:2164  msg.sender */\n      caller\n        /* \"src/ecom/Noti.sol\":2126:2165  mDappUserToPermission[dapp][msg.sender] */\n      dup1\n      dup7\n      mstore\n      swap3\n      mstore\n      swap1\n      swap3\n      keccak256\n        /* \"src/ecom/Noti.sol\":2126:2172  mDappUserToPermission[dapp][msg.sender] = true */\n      dup1\n      sload\n      not(0xff)\n      and\n      swap1\n      swap2\n      or\n      swap1\n      sstore\n        /* \"src/ecom/Noti.sol\":2154:2164  msg.sender */\n      swap1\n        /* \"src/ecom/Noti.sol\":2212:2284  DeviceTokenRegistered(dapp, msg.sender, encryptedToken,uint8(_platform)) */\n      0x5823619587beb5fa20e5571f107471a637e72721a9719da0fc8c26d5ae85b63e\n        /* \"src/ecom/Noti.sol\":2252:2266  encryptedToken */\n      dup6\n      dup6\n        /* \"src/ecom/Noti.sol\":2273:2282  _platform */\n      dup6\n        /* \"src/ecom/Noti.sol\":2267:2283  uint8(_platform) */\n      0x02\n      dup2\n      gt\n      iszero\n      tag_148\n      jumpi\n      tag_148\n      tag_149\n      jump\t// in\n    tag_148:\n        /* \"src/ecom/Noti.sol\":2212:2284  DeviceTokenRegistered(dapp, msg.sender, encryptedToken,uint8(_platform)) */\n      mload(0x40)\n      tag_150\n      swap4\n      swap3\n      swap2\n      swap1\n      tag_151\n      jump\t// in\n    tag_150:\n      mload(0x40)\n      dup1\n      swap2\n      sub\n      swap1\n      log3\n      pop\n      pop\n        /* \"src/ecom/Noti.sol\":2307:2317  msg.sender */\n      caller\n        /* \"src/ecom/Noti.sol\":2294:2318  mUserToDApps[msg.sender] */\n      0x00\n      swap1\n      dup2\n      mstore\n        /* \"src/ecom/Noti.sol\":2294:2306  mUserToDApps */\n      0x04\n        /* \"src/ecom/Noti.sol\":2294:2318  mUserToDApps[msg.sender] */\n      0x20\n      swap1\n      dup2\n      mstore\n      0x40\n      dup3\n      keccak256\n        /* \"src/ecom/Noti.sol\":2294:2329  mUserToDApps[msg.sender].push(dapp) */\n      dup1\n      sload\n      0x01\n      dup2\n      add\n      dup3\n      sstore\n      swap1\n      dup4\n      mstore\n      swap2\n      keccak256\n      add\n      dup1\n      sload\n      not(sub(shl(0xa0, 0x01), 0x01))\n      and\n      sub(shl(0xa0, 0x01), 0x01)\n      swap4\n      swap1\n      swap4\n      and\n      swap3\n      swap1\n      swap3\n      or\n      swap1\n      swap2\n      sstore\n      pop\n        /* \"src/ecom/Noti.sol\":2009:2336  function registerDeviceToken(address dapp, string calldata encryptedToken,PlatformEnum _platform) external {... */\n      jump\t// out\n        /* \"src/ecom/Noti.sol\":1902:2004  function getAllSystemDApps()external view returns(address[] memory){... */\n    tag_66:\n        /* \"src/ecom/Noti.sol\":1952:1968  address[] memory */\n      0x60\n        /* \"src/ecom/Noti.sol\":1986:1997  systemDApps */\n      0x03\n        /* \"src/ecom/Noti.sol\":1979:1997  return systemDApps */\n      dup1\n      sload\n      dup1\n      0x20\n      mul\n      0x20\n      add\n      mload(0x40)\n      swap1\n      dup2\n      add\n      0x40\n      mstore\n      dup1\n      swap3\n      swap2\n      swap1\n      dup2\n      dup2\n      mstore\n      0x20\n      add\n      dup3\n      dup1\n      sload\n      dup1\n      iszero\n      tag_154\n      jumpi\n      0x20\n      mul\n      dup3\n      add\n      swap2\n      swap1\n      0x00\n      mstore\n      keccak256(0x00, 0x20)\n      swap1\n    tag_155:\n      dup2\n      sload\n      sub(shl(0xa0, 0x01), 0x01)\n      and\n      dup2\n      mstore\n      0x01\n      swap1\n      swap2\n      add\n      swap1\n      0x20\n      add\n      dup1\n      dup4\n      gt\n      tag_155\n      jumpi\n    tag_154:\n      pop\n      pop\n      pop\n      pop\n      pop\n      swap1\n      pop\n        /* \"src/ecom/Noti.sol\":1902:2004  function getAllSystemDApps()external view returns(address[] memory){... */\n      swap1\n      jump\t// out\n        /* \"src/ecom/Noti.sol\":2837:3123  function getAllDAppsPermissionByUser(address _user) external view returns(address[] memory list){... */\n    tag_71:\n      sub(shl(0xa0, 0x01), 0x01)\n        /* \"src/ecom/Noti.sol\":2969:2988  mUserToDApps[_user] */\n      dup2\n      and\n        /* \"src/ecom/Noti.sol\":2943:2966  address[] storage dapps */\n      0x00\n        /* \"src/ecom/Noti.sol\":2969:2988  mUserToDApps[_user] */\n      swap1\n      dup2\n      mstore\n        /* \"src/ecom/Noti.sol\":2969:2981  mUserToDApps */\n      0x04\n        /* \"src/ecom/Noti.sol\":2969:2988  mUserToDApps[_user] */\n      0x20\n      mstore\n      0x40\n      swap1\n      keccak256\n        /* \"src/ecom/Noti.sol\":3019:3031  dapps.length */\n      dup1\n      sload\n        /* \"src/ecom/Noti.sol\":2911:2932  address[] memory list */\n      0x60\n      swap2\n        /* \"src/ecom/Noti.sol\":2969:2988  mUserToDApps[_user] */\n      swap1\n      sub(shl(0x40, 0x01), 0x01)\n        /* \"src/ecom/Noti.sol\":3005:3032  new address[](dapps.length) */\n      dup2\n      gt\n      iszero\n      tag_158\n      jumpi\n      tag_158\n      tag_159\n      jump\t// in\n    tag_158:\n      mload(0x40)\n      swap1\n      dup1\n      dup3\n      mstore\n      dup1\n      0x20\n      mul\n      0x20\n      add\n      dup3\n      add\n      0x40\n      mstore\n      dup1\n      iszero\n      tag_160\n      jumpi\n      dup2\n      0x20\n      add\n      0x20\n      dup3\n      mul\n      dup1\n      calldatasize\n      dup4\n      calldatacopy\n      add\n      swap1\n      pop\n    tag_160:\n      pop\n        /* \"src/ecom/Noti.sol\":2998:3032  list = new address[](dapps.length) */\n      swap2\n      pop\n        /* \"src/ecom/Noti.sol\":3046:3052  uint i */\n      0x00\n        /* \"src/ecom/Noti.sol\":3042:3117  for(uint i; i< dapps.length;i++){... */\n    tag_161:\n        /* \"src/ecom/Noti.sol\":3057:3069  dapps.length */\n      dup2\n      sload\n        /* \"src/ecom/Noti.sol\":3054:3069  i< dapps.length */\n      dup2\n      lt\n        /* \"src/ecom/Noti.sol\":3042:3117  for(uint i; i< dapps.length;i++){... */\n      iszero\n      tag_162\n      jumpi\n        /* \"src/ecom/Noti.sol\":3098:3103  dapps */\n      dup2\n        /* \"src/ecom/Noti.sol\":3104:3105  i */\n      dup2\n        /* \"src/ecom/Noti.sol\":3098:3106  dapps[i] */\n      dup2\n      sload\n      dup2\n      lt\n      tag_165\n      jumpi\n      tag_165\n      tag_92\n      jump\t// in\n    tag_165:\n      swap1\n      0x00\n      mstore\n      keccak256(0x00, 0x20)\n      add\n      0x00\n      swap1\n      sload\n      swap1\n      0x0100\n      exp\n      swap1\n      div\n      sub(shl(0xa0, 0x01), 0x01)\n      and\n        /* \"src/ecom/Noti.sol\":3088:3092  list */\n      dup4\n        /* \"src/ecom/Noti.sol\":3093:3094  i */\n      dup3\n        /* \"src/ecom/Noti.sol\":3088:3095  list[i] */\n      dup2\n      mload\n      dup2\n      lt\n      tag_168\n      jumpi\n      tag_168\n      tag_92\n      jump\t// in\n    tag_168:\n      sub(shl(0xa0, 0x01), 0x01)\n        /* \"src/ecom/Noti.sol\":3088:3106  list[i] = dapps[i] */\n      swap1\n      swap3\n      and\n        /* \"src/ecom/Noti.sol\":3088:3095  list[i] */\n      0x20\n      swap3\n      dup4\n      mul\n      swap2\n      swap1\n      swap2\n      add\n      swap1\n      swap2\n      add\n        /* \"src/ecom/Noti.sol\":3088:3106  list[i] = dapps[i] */\n      mstore\n        /* \"src/ecom/Noti.sol\":3070:3073  i++ */\n      0x01\n      add\n        /* \"src/ecom/Noti.sol\":3042:3117  for(uint i; i< dapps.length;i++){... */\n      jump(tag_161)\n    tag_162:\n      pop\n        /* \"src/ecom/Noti.sol\":2933:3123  {... */\n      pop\n        /* \"src/ecom/Noti.sol\":2837:3123  function getAllDAppsPermissionByUser(address _user) external view returns(address[] memory list){... */\n      swap2\n      swap1\n      pop\n      jump\t// out\n        /* \"src/ecom/Noti.sol\":3129:3444  function AddNoti(... */\n    tag_76:\n        /* \"src/ecom/Noti.sol\":943:953  msg.sender */\n      caller\n        /* \"src/ecom/Noti.sol\":3246:3250  bool */\n      0x00\n        /* \"src/ecom/Noti.sol\":930:954  mSystemDApps[msg.sender] */\n      swap1\n      dup2\n      mstore\n        /* \"src/ecom/Noti.sol\":930:942  mSystemDApps */\n      0x02\n        /* \"src/ecom/Noti.sol\":930:954  mSystemDApps[msg.sender] */\n      0x20\n      mstore\n      0x40\n      dup2\n      keccak256\n      sload\n        /* \"src/ecom/Noti.sol\":3233:3236  _to */\n      dup3\n      swap1\n        /* \"src/ecom/Noti.sol\":930:954  mSystemDApps[msg.sender] */\n      0xff\n      and\n      dup1\n        /* \"src/ecom/Noti.sol\":930:997  mSystemDApps[msg.sender] || mDappUserToPermission[msg.sender][user] */\n      tag_170\n      jumpi\n      pop\n        /* \"src/ecom/Noti.sol\":980:990  msg.sender */\n      caller\n        /* \"src/ecom/Noti.sol\":958:991  mDappUserToPermission[msg.sender] */\n      0x00\n      swap1\n      dup2\n      mstore\n        /* \"src/ecom/Noti.sol\":958:979  mDappUserToPermission */\n      0x01\n        /* \"src/ecom/Noti.sol\":958:991  mDappUserToPermission[msg.sender] */\n      0x20\n      swap1\n      dup2\n      mstore\n      0x40\n      dup1\n      dup4\n      keccak256\n      sub(shl(0xa0, 0x01), 0x01)\n        /* \"src/ecom/Noti.sol\":958:997  mDappUserToPermission[msg.sender][user] */\n      dup6\n      and\n      dup5\n      mstore\n      swap1\n      swap2\n      mstore\n      swap1\n      keccak256\n      sload\n      0xff\n      and\n        /* \"src/ecom/Noti.sol\":930:997  mSystemDApps[msg.sender] || mDappUserToPermission[msg.sender][user] */\n    tag_170:\n        /* \"src/ecom/Noti.sol\":909:1064  require(... */\n      tag_171\n      jumpi\n      mload(0x40)\n      shl(0xe5, 0x461bcd)\n      dup2\n      mstore\n        /* \"#utility.yul\":9566:9568   */\n      0x20\n        /* \"src/ecom/Noti.sol\":909:1064  require(... */\n      0x04\n      dup3\n      add\n        /* \"#utility.yul\":9548:9569   */\n      mstore\n        /* \"#utility.yul\":9605:9607   */\n      0x29\n        /* \"#utility.yul\":9585:9603   */\n      0x24\n      dup3\n      add\n        /* \"#utility.yul\":9578:9608   */\n      mstore\n        /* \"#utility.yul\":9644:9678   */\n      0x44417070206e6f7420617574686f72697a656420746f2073656e64206e6f7469\n        /* \"#utility.yul\":9624:9642   */\n      0x44\n      dup3\n      add\n        /* \"#utility.yul\":9617:9679   */\n      mstore\n      shl(0xb8, 0x6669636174696f6e73)\n        /* \"#utility.yul\":9695:9713   */\n      0x64\n      dup3\n      add\n        /* \"#utility.yul\":9688:9727   */\n      mstore\n        /* \"#utility.yul\":9744:9763   */\n      0x84\n      add\n        /* \"src/ecom/Noti.sol\":909:1064  require(... */\n      tag_85\n        /* \"#utility.yul\":9364:9769   */\n      jump\n        /* \"src/ecom/Noti.sol\":909:1064  require(... */\n    tag_171:\n        /* \"src/ecom/Noti.sol\":3340:3352  params.title */\n      dup4\n      mload\n        /* \"src/ecom/Noti.sol\":3366:3377  params.body */\n      0x20\n      dup6\n      add\n      mload\n        /* \"src/ecom/Noti.sol\":3267:3416  NotificationSent(... */\n      mload(0x40)\n      sub(shl(0xa0, 0x01), 0x01)\n      dup7\n      and\n      swap3\n        /* \"src/ecom/Noti.sol\":3297:3307  msg.sender */\n      caller\n      swap3\n        /* \"src/ecom/Noti.sol\":3267:3416  NotificationSent(... */\n      0x88bfbf59f1056861b7a45a80f3a65d9fd26efcaf5cd77ac42dc88d2da5f5cbca\n      swap3\n      tag_175\n      swap3\n        /* \"src/ecom/Noti.sol\":3340:3352  params.title */\n      swap2\n        /* \"src/ecom/Noti.sol\":3366:3377  params.body */\n      swap1\n        /* \"src/ecom/Noti.sol\":3391:3406  block.timestamp */\n      timestamp\n      swap1\n        /* \"src/ecom/Noti.sol\":3267:3416  NotificationSent(... */\n      tag_176\n      jump\t// in\n    tag_175:\n      mload(0x40)\n      dup1\n      swap2\n      sub\n      swap1\n      log3\n      pop\n        /* \"src/ecom/Noti.sol\":3433:3437  true */\n      0x01\n      swap4\n        /* \"src/ecom/Noti.sol\":3129:3444  function AddNoti(... */\n      swap3\n      pop\n      pop\n      pop\n      jump\t// out\n        /* \"src/ecom/Noti.sol\":1447:1577  function addSystemDApp(address dapp) external onlyAdmin {... */\n    tag_80:\n        /* \"src/ecom/Noti.sol\":775:785  msg.sender */\n      caller\n        /* \"src/ecom/Noti.sol\":767:786  isAdmin[msg.sender] */\n      0x00\n      swap1\n      dup2\n      mstore\n        /* \"src/ecom/Noti.sol\":767:774  isAdmin */\n      0x05\n        /* \"src/ecom/Noti.sol\":767:786  isAdmin[msg.sender] */\n      0x20\n      mstore\n      0x40\n      swap1\n      keccak256\n      sload\n      0xff\n      and\n        /* \"src/ecom/Noti.sol\":767:794  isAdmin[msg.sender] == true */\n      iszero\n      iszero\n        /* \"src/ecom/Noti.sol\":767:786  isAdmin[msg.sender] */\n      0x01\n        /* \"src/ecom/Noti.sol\":767:794  isAdmin[msg.sender] == true */\n      eq\n        /* \"src/ecom/Noti.sol\":759:833  require(isAdmin[msg.sender] == true, \"Only admin can perform this action\") */\n      tag_178\n      jumpi\n      mload(0x40)\n      shl(0xe5, 0x461bcd)\n      dup2\n      mstore\n      0x04\n      add\n      tag_85\n      swap1\n      tag_117\n      jump\t// in\n    tag_178:\n      sub(shl(0xa0, 0x01), 0x01)\n        /* \"src/ecom/Noti.sol\":1513:1531  mSystemDApps[dapp] */\n      and\n      0x00\n      dup2\n      dup2\n      mstore\n        /* \"src/ecom/Noti.sol\":1513:1525  mSystemDApps */\n      0x02\n        /* \"src/ecom/Noti.sol\":1513:1531  mSystemDApps[dapp] */\n      0x20\n      mstore\n      0x40\n      dup2\n      keccak256\n        /* \"src/ecom/Noti.sol\":1513:1538  mSystemDApps[dapp] = true */\n      dup1\n      sload\n      not(0xff)\n      and\n        /* \"src/ecom/Noti.sol\":1534:1538  true */\n      0x01\n        /* \"src/ecom/Noti.sol\":1513:1538  mSystemDApps[dapp] = true */\n      swap1\n      dup2\n      or\n      swap1\n      swap2\n      sstore\n        /* \"src/ecom/Noti.sol\":1548:1559  systemDApps */\n      0x03\n        /* \"src/ecom/Noti.sol\":1548:1570  systemDApps.push(dapp) */\n      dup1\n      sload\n      swap2\n      dup3\n      add\n      dup2\n      sstore\n      swap1\n      swap2\n      mstore\n      0xc2575a0e9e593c00f959f8c92f12db2869c3395a3b0502d05e2516446f71f85b\n      add\n      dup1\n      sload\n      not(sub(shl(0xa0, 0x01), 0x01))\n      and\n      swap1\n      swap2\n      or\n      swap1\n      sstore\n        /* \"src/ecom/Noti.sol\":1447:1577  function addSystemDApp(address dapp) external onlyAdmin {... */\n      jump\t// out\n        /* \"#utility.yul\":14:187   */\n    tag_182:\n        /* \"#utility.yul\":82:102   */\n      dup1\n      calldataload\n      sub(shl(0xa0, 0x01), 0x01)\n        /* \"#utility.yul\":131:162   */\n      dup2\n      and\n        /* \"#utility.yul\":121:163   */\n      dup2\n      eq\n        /* \"#utility.yul\":111:181   */\n      tag_189\n      jumpi\n        /* \"#utility.yul\":177:178   */\n      0x00\n        /* \"#utility.yul\":174:175   */\n      0x00\n        /* \"#utility.yul\":167:179   */\n      revert\n        /* \"#utility.yul\":111:181   */\n    tag_189:\n        /* \"#utility.yul\":14:187   */\n      swap2\n      swap1\n      pop\n      jump\t// out\n        /* \"#utility.yul\":192:378   */\n    tag_20:\n        /* \"#utility.yul\":251:257   */\n      0x00\n        /* \"#utility.yul\":304:306   */\n      0x20\n        /* \"#utility.yul\":292:301   */\n      dup3\n        /* \"#utility.yul\":283:290   */\n      dup5\n        /* \"#utility.yul\":279:302   */\n      sub\n        /* \"#utility.yul\":275:307   */\n      slt\n        /* \"#utility.yul\":272:324   */\n      iszero\n      tag_191\n      jumpi\n        /* \"#utility.yul\":320:321   */\n      0x00\n        /* \"#utility.yul\":317:318   */\n      0x00\n        /* \"#utility.yul\":310:322   */\n      revert\n        /* \"#utility.yul\":272:324   */\n    tag_191:\n        /* \"#utility.yul\":343:372   */\n      tag_192\n        /* \"#utility.yul\":362:371   */\n      dup3\n        /* \"#utility.yul\":343:372   */\n      tag_182\n      jump\t// in\n    tag_192:\n        /* \"#utility.yul\":333:372   */\n      swap4\n        /* \"#utility.yul\":192:378   */\n      swap3\n      pop\n      pop\n      pop\n      jump\t// out\n        /* \"#utility.yul\":575:875   */\n    tag_26:\n        /* \"#utility.yul\":643:649   */\n      0x00\n        /* \"#utility.yul\":651:657   */\n      0x00\n        /* \"#utility.yul\":704:706   */\n      0x40\n        /* \"#utility.yul\":692:701   */\n      dup4\n        /* \"#utility.yul\":683:690   */\n      dup6\n        /* \"#utility.yul\":679:702   */\n      sub\n        /* \"#utility.yul\":675:707   */\n      slt\n        /* \"#utility.yul\":672:724   */\n      iszero\n      tag_195\n      jumpi\n        /* \"#utility.yul\":720:721   */\n      0x00\n        /* \"#utility.yul\":717:718   */\n      0x00\n        /* \"#utility.yul\":710:722   */\n      revert\n        /* \"#utility.yul\":672:724   */\n    tag_195:\n        /* \"#utility.yul\":743:772   */\n      tag_196\n        /* \"#utility.yul\":762:771   */\n      dup4\n        /* \"#utility.yul\":743:772   */\n      tag_182\n      jump\t// in\n    tag_196:\n        /* \"#utility.yul\":733:772   */\n      swap5\n        /* \"#utility.yul\":841:843   */\n      0x20\n        /* \"#utility.yul\":826:844   */\n      swap4\n      swap1\n      swap4\n      add\n        /* \"#utility.yul\":813:845   */\n      calldataload\n      swap4\n      pop\n      pop\n      pop\n        /* \"#utility.yul\":575:875   */\n      jump\t// out\n        /* \"#utility.yul\":1088:1314   */\n    tag_39:\n        /* \"#utility.yul\":1147:1153   */\n      0x00\n        /* \"#utility.yul\":1200:1202   */\n      0x20\n        /* \"#utility.yul\":1188:1197   */\n      dup3\n        /* \"#utility.yul\":1179:1186   */\n      dup5\n        /* \"#utility.yul\":1175:1198   */\n      sub\n        /* \"#utility.yul\":1171:1203   */\n      slt\n        /* \"#utility.yul\":1168:1220   */\n      iszero\n      tag_199\n      jumpi\n        /* \"#utility.yul\":1216:1217   */\n      0x00\n        /* \"#utility.yul\":1213:1214   */\n      0x00\n        /* \"#utility.yul\":1206:1218   */\n      revert\n        /* \"#utility.yul\":1168:1220   */\n    tag_199:\n      pop\n        /* \"#utility.yul\":1261:1284   */\n      calldataload\n      swap2\n        /* \"#utility.yul\":1088:1314   */\n      swap1\n      pop\n      jump\t// out\n        /* \"#utility.yul\":1319:1666   */\n    tag_44:\n        /* \"#utility.yul\":1384:1390   */\n      0x00\n        /* \"#utility.yul\":1392:1398   */\n      0x00\n        /* \"#utility.yul\":1445:1447   */\n      0x40\n        /* \"#utility.yul\":1433:1442   */\n      dup4\n        /* \"#utility.yul\":1424:1431   */\n      dup6\n        /* \"#utility.yul\":1420:1443   */\n      sub\n        /* \"#utility.yul\":1416:1448   */\n      slt\n        /* \"#utility.yul\":1413:1465   */\n      iszero\n      tag_201\n      jumpi\n        /* \"#utility.yul\":1461:1462   */\n      0x00\n        /* \"#utility.yul\":1458:1459   */\n      0x00\n        /* \"#utility.yul\":1451:1463   */\n      revert\n        /* \"#utility.yul\":1413:1465   */\n    tag_201:\n        /* \"#utility.yul\":1484:1513   */\n      tag_202\n        /* \"#utility.yul\":1503:1512   */\n      dup4\n        /* \"#utility.yul\":1484:1513   */\n      tag_182\n      jump\t// in\n    tag_202:\n        /* \"#utility.yul\":1474:1513   */\n      swap2\n      pop\n        /* \"#utility.yul\":1563:1565   */\n      0x20\n        /* \"#utility.yul\":1552:1561   */\n      dup4\n        /* \"#utility.yul\":1548:1566   */\n      add\n        /* \"#utility.yul\":1535:1567   */\n      calldataload\n        /* \"#utility.yul\":1610:1615   */\n      dup1\n        /* \"#utility.yul\":1603:1616   */\n      iszero\n        /* \"#utility.yul\":1596:1617   */\n      iszero\n        /* \"#utility.yul\":1589:1594   */\n      dup2\n        /* \"#utility.yul\":1586:1618   */\n      eq\n        /* \"#utility.yul\":1576:1636   */\n      tag_203\n      jumpi\n        /* \"#utility.yul\":1632:1633   */\n      0x00\n        /* \"#utility.yul\":1629:1630   */\n      0x00\n        /* \"#utility.yul\":1622:1634   */\n      revert\n        /* \"#utility.yul\":1576:1636   */\n    tag_203:\n        /* \"#utility.yul\":1655:1660   */\n      dup1\n        /* \"#utility.yul\":1645:1660   */\n      swap2\n      pop\n      pop\n        /* \"#utility.yul\":1319:1666   */\n      swap3\n      pop\n      swap3\n      swap1\n      pop\n      jump\t// out\n        /* \"#utility.yul\":1671:1931   */\n    tag_48:\n        /* \"#utility.yul\":1739:1745   */\n      0x00\n        /* \"#utility.yul\":1747:1753   */\n      0x00\n        /* \"#utility.yul\":1800:1802   */\n      0x40\n        /* \"#utility.yul\":1788:1797   */\n      dup4\n        /* \"#utility.yul\":1779:1786   */\n      dup6\n        /* \"#utility.yul\":1775:1798   */\n      sub\n        /* \"#utility.yul\":1771:1803   */\n      slt\n        /* \"#utility.yul\":1768:1820   */\n      iszero\n      tag_205\n      jumpi\n        /* \"#utility.yul\":1816:1817   */\n      0x00\n        /* \"#utility.yul\":1813:1814   */\n      0x00\n        /* \"#utility.yul\":1806:1818   */\n      revert\n        /* \"#utility.yul\":1768:1820   */\n    tag_205:\n        /* \"#utility.yul\":1839:1868   */\n      tag_206\n        /* \"#utility.yul\":1858:1867   */\n      dup4\n        /* \"#utility.yul\":1839:1868   */\n      tag_182\n      jump\t// in\n    tag_206:\n        /* \"#utility.yul\":1829:1868   */\n      swap2\n      pop\n        /* \"#utility.yul\":1887:1925   */\n      tag_207\n        /* \"#utility.yul\":1921:1923   */\n      0x20\n        /* \"#utility.yul\":1910:1919   */\n      dup5\n        /* \"#utility.yul\":1906:1924   */\n      add\n        /* \"#utility.yul\":1887:1925   */\n      tag_182\n      jump\t// in\n    tag_207:\n        /* \"#utility.yul\":1877:1925   */\n      swap1\n      pop\n        /* \"#utility.yul\":1671:1931   */\n      swap3\n      pop\n      swap3\n      swap1\n      pop\n      jump\t// out\n        /* \"#utility.yul\":1936:2063   */\n    tag_159:\n        /* \"#utility.yul\":1997:2007   */\n      0x4e487b71\n        /* \"#utility.yul\":1992:1995   */\n      0xe0\n        /* \"#utility.yul\":1988:2008   */\n      shl\n        /* \"#utility.yul\":1985:1986   */\n      0x00\n        /* \"#utility.yul\":1978:2009   */\n      mstore\n        /* \"#utility.yul\":2028:2032   */\n      0x41\n        /* \"#utility.yul\":2025:2026   */\n      0x04\n        /* \"#utility.yul\":2018:2033   */\n      mstore\n        /* \"#utility.yul\":2052:2056   */\n      0x24\n        /* \"#utility.yul\":2049:2050   */\n      0x00\n        /* \"#utility.yul\":2042:2057   */\n      revert\n        /* \"#utility.yul\":2068:2343   */\n    tag_183:\n        /* \"#utility.yul\":2139:2141   */\n      0x40\n        /* \"#utility.yul\":2133:2142   */\n      mload\n        /* \"#utility.yul\":2204:2206   */\n      0x1f\n        /* \"#utility.yul\":2185:2198   */\n      dup3\n      add\n      not(0x1f)\n        /* \"#utility.yul\":2181:2208   */\n      and\n        /* \"#utility.yul\":2169:2209   */\n      dup2\n      add\n      sub(shl(0x40, 0x01), 0x01)\n        /* \"#utility.yul\":2224:2258   */\n      dup2\n      gt\n        /* \"#utility.yul\":2260:2282   */\n      dup3\n      dup3\n      lt\n        /* \"#utility.yul\":2221:2283   */\n      or\n        /* \"#utility.yul\":2218:2306   */\n      iszero\n      tag_211\n      jumpi\n        /* \"#utility.yul\":2286:2304   */\n      tag_211\n      tag_159\n      jump\t// in\n    tag_211:\n        /* \"#utility.yul\":2322:2324   */\n      0x40\n        /* \"#utility.yul\":2315:2337   */\n      mstore\n        /* \"#utility.yul\":2068:2343   */\n      swap2\n      swap1\n      pop\n      jump\t// out\n        /* \"#utility.yul\":2348:2907   */\n    tag_184:\n        /* \"#utility.yul\":2391:2396   */\n      0x00\n        /* \"#utility.yul\":2444:2447   */\n      dup3\n        /* \"#utility.yul\":2437:2441   */\n      0x1f\n        /* \"#utility.yul\":2429:2435   */\n      dup4\n        /* \"#utility.yul\":2425:2442   */\n      add\n        /* \"#utility.yul\":2421:2448   */\n      slt\n        /* \"#utility.yul\":2411:2466   */\n      tag_213\n      jumpi\n        /* \"#utility.yul\":2462:2463   */\n      0x00\n        /* \"#utility.yul\":2459:2460   */\n      0x00\n        /* \"#utility.yul\":2452:2464   */\n      revert\n        /* \"#utility.yul\":2411:2466   */\n    tag_213:\n        /* \"#utility.yul\":2489:2509   */\n      dup2\n      calldataload\n      sub(shl(0x40, 0x01), 0x01)\n        /* \"#utility.yul\":2521:2551   */\n      dup2\n      gt\n        /* \"#utility.yul\":2518:2574   */\n      iszero\n      tag_215\n      jumpi\n        /* \"#utility.yul\":2554:2572   */\n      tag_215\n      tag_159\n      jump\t// in\n    tag_215:\n        /* \"#utility.yul\":2598:2657   */\n      tag_216\n        /* \"#utility.yul\":2645:2647   */\n      0x1f\n        /* \"#utility.yul\":2622:2639   */\n      dup3\n      add\n      not(0x1f)\n        /* \"#utility.yul\":2618:2649   */\n      and\n        /* \"#utility.yul\":2651:2655   */\n      0x20\n        /* \"#utility.yul\":2614:2656   */\n      add\n        /* \"#utility.yul\":2598:2657   */\n      tag_183\n      jump\t// in\n    tag_216:\n        /* \"#utility.yul\":2682:2688   */\n      dup2\n        /* \"#utility.yul\":2673:2680   */\n      dup2\n        /* \"#utility.yul\":2666:2689   */\n      mstore\n        /* \"#utility.yul\":2736:2739   */\n      dup5\n        /* \"#utility.yul\":2729:2733   */\n      0x20\n        /* \"#utility.yul\":2720:2726   */\n      dup4\n        /* \"#utility.yul\":2712:2718   */\n      dup7\n        /* \"#utility.yul\":2708:2727   */\n      add\n        /* \"#utility.yul\":2704:2734   */\n      add\n        /* \"#utility.yul\":2701:2740   */\n      gt\n        /* \"#utility.yul\":2698:2757   */\n      iszero\n      tag_217\n      jumpi\n        /* \"#utility.yul\":2753:2754   */\n      0x00\n        /* \"#utility.yul\":2750:2751   */\n      0x00\n        /* \"#utility.yul\":2743:2755   */\n      revert\n        /* \"#utility.yul\":2698:2757   */\n    tag_217:\n        /* \"#utility.yul\":2818:2824   */\n      dup2\n        /* \"#utility.yul\":2811:2815   */\n      0x20\n        /* \"#utility.yul\":2803:2809   */\n      dup6\n        /* \"#utility.yul\":2799:2816   */\n      add\n        /* \"#utility.yul\":2792:2796   */\n      0x20\n        /* \"#utility.yul\":2783:2790   */\n      dup4\n        /* \"#utility.yul\":2779:2797   */\n      add\n        /* \"#utility.yul\":2766:2825   */\n      calldatacopy\n        /* \"#utility.yul\":2874:2875   */\n      0x00\n        /* \"#utility.yul\":2845:2865   */\n      swap2\n      dup2\n      add\n        /* \"#utility.yul\":2867:2871   */\n      0x20\n        /* \"#utility.yul\":2841:2872   */\n      add\n        /* \"#utility.yul\":2834:2876   */\n      swap2\n      swap1\n      swap2\n      mstore\n        /* \"#utility.yul\":2849:2856   */\n      swap4\n        /* \"#utility.yul\":2348:2907   */\n      swap3\n      pop\n      pop\n      pop\n      jump\t// out\n        /* \"#utility.yul\":2912:3673   */\n    tag_185:\n        /* \"#utility.yul\":2969:2974   */\n      0x00\n        /* \"#utility.yul\":3017:3021   */\n      0x40\n        /* \"#utility.yul\":3005:3014   */\n      dup3\n        /* \"#utility.yul\":3000:3003   */\n      dup5\n        /* \"#utility.yul\":2996:3015   */\n      sub\n        /* \"#utility.yul\":2992:3022   */\n      slt\n        /* \"#utility.yul\":2989:3039   */\n      iszero\n      tag_219\n      jumpi\n        /* \"#utility.yul\":3035:3036   */\n      0x00\n        /* \"#utility.yul\":3032:3033   */\n      0x00\n        /* \"#utility.yul\":3025:3037   */\n      revert\n        /* \"#utility.yul\":2989:3039   */\n    tag_219:\n        /* \"#utility.yul\":3088:3092   */\n      0x40\n        /* \"#utility.yul\":3082:3093   */\n      dup1\n      mload\n      swap1\n        /* \"#utility.yul\":3120:3137   */\n      dup2\n      add\n      sub(shl(0x40, 0x01), 0x01)\n        /* \"#utility.yul\":3152:3186   */\n      dup2\n      gt\n        /* \"#utility.yul\":3188:3210   */\n      dup3\n      dup3\n      lt\n        /* \"#utility.yul\":3149:3211   */\n      or\n        /* \"#utility.yul\":3146:3234   */\n      iszero\n      tag_221\n      jumpi\n        /* \"#utility.yul\":3214:3232   */\n      tag_221\n      tag_159\n      jump\t// in\n    tag_221:\n        /* \"#utility.yul\":3250:3254   */\n      0x40\n        /* \"#utility.yul\":3243:3267   */\n      mstore\n        /* \"#utility.yul\":3285:3291   */\n      swap1\n      pop\n      dup1\n        /* \"#utility.yul\":3314:3337   */\n      dup3\n      calldataload\n      sub(shl(0x40, 0x01), 0x01)\n        /* \"#utility.yul\":3349:3379   */\n      dup2\n      gt\n        /* \"#utility.yul\":3346:3396   */\n      iszero\n      tag_222\n      jumpi\n        /* \"#utility.yul\":3392:3393   */\n      0x00\n        /* \"#utility.yul\":3389:3390   */\n      0x00\n        /* \"#utility.yul\":3382:3394   */\n      revert\n        /* \"#utility.yul\":3346:3396   */\n    tag_222:\n        /* \"#utility.yul\":3420:3466   */\n      tag_223\n        /* \"#utility.yul\":3462:3465   */\n      dup6\n        /* \"#utility.yul\":3453:3459   */\n      dup3\n        /* \"#utility.yul\":3442:3451   */\n      dup7\n        /* \"#utility.yul\":3438:3460   */\n      add\n        /* \"#utility.yul\":3420:3466   */\n      tag_184\n      jump\t// in\n    tag_223:\n        /* \"#utility.yul\":3405:3467   */\n      dup3\n      mstore\n      pop\n        /* \"#utility.yul\":3520:3522   */\n      0x20\n        /* \"#utility.yul\":3505:3523   */\n      dup4\n      add\n        /* \"#utility.yul\":3492:3524   */\n      calldataload\n      sub(shl(0x40, 0x01), 0x01)\n        /* \"#utility.yul\":3536:3568   */\n      dup2\n      gt\n        /* \"#utility.yul\":3533:3585   */\n      iszero\n      tag_224\n      jumpi\n        /* \"#utility.yul\":3581:3582   */\n      0x00\n        /* \"#utility.yul\":3578:3579   */\n      0x00\n        /* \"#utility.yul\":3571:3583   */\n      revert\n        /* \"#utility.yul\":3533:3585   */\n    tag_224:\n        /* \"#utility.yul\":3618:3666   */\n      tag_225\n        /* \"#utility.yul\":3662:3665   */\n      dup6\n        /* \"#utility.yul\":3651:3659   */\n      dup3\n        /* \"#utility.yul\":3640:3649   */\n      dup7\n        /* \"#utility.yul\":3636:3660   */\n      add\n        /* \"#utility.yul\":3618:3666   */\n      tag_184\n      jump\t// in\n    tag_225:\n        /* \"#utility.yul\":3613:3615   */\n      0x20\n        /* \"#utility.yul\":3605:3611   */\n      dup4\n        /* \"#utility.yul\":3601:3616   */\n      add\n        /* \"#utility.yul\":3594:3667   */\n      mstore\n      pop\n      pop\n        /* \"#utility.yul\":2912:3673   */\n      swap3\n      swap2\n      pop\n      pop\n      jump\t// out\n        /* \"#utility.yul\":3678:4864   */\n    tag_59:\n        /* \"#utility.yul\":3798:3804   */\n      0x00\n        /* \"#utility.yul\":3806:3812   */\n      0x00\n        /* \"#utility.yul\":3859:3861   */\n      0x40\n        /* \"#utility.yul\":3847:3856   */\n      dup4\n        /* \"#utility.yul\":3838:3845   */\n      dup6\n        /* \"#utility.yul\":3834:3857   */\n      sub\n        /* \"#utility.yul\":3830:3862   */\n      slt\n        /* \"#utility.yul\":3827:3879   */\n      iszero\n      tag_227\n      jumpi\n        /* \"#utility.yul\":3875:3876   */\n      0x00\n        /* \"#utility.yul\":3872:3873   */\n      0x00\n        /* \"#utility.yul\":3865:3877   */\n      revert\n        /* \"#utility.yul\":3827:3879   */\n    tag_227:\n        /* \"#utility.yul\":3902:3925   */\n      dup3\n      calldataload\n      sub(shl(0x40, 0x01), 0x01)\n        /* \"#utility.yul\":3937:3967   */\n      dup2\n      gt\n        /* \"#utility.yul\":3934:3984   */\n      iszero\n      tag_228\n      jumpi\n        /* \"#utility.yul\":3980:3981   */\n      0x00\n        /* \"#utility.yul\":3977:3978   */\n      0x00\n        /* \"#utility.yul\":3970:3982   */\n      revert\n        /* \"#utility.yul\":3934:3984   */\n    tag_228:\n        /* \"#utility.yul\":4003:4064   */\n      tag_229\n        /* \"#utility.yul\":4056:4063   */\n      dup6\n        /* \"#utility.yul\":4047:4053   */\n      dup3\n        /* \"#utility.yul\":4036:4045   */\n      dup7\n        /* \"#utility.yul\":4032:4054   */\n      add\n        /* \"#utility.yul\":4003:4064   */\n      tag_185\n      jump\t// in\n    tag_229:\n        /* \"#utility.yul\":3993:4064   */\n      swap3\n      pop\n      pop\n        /* \"#utility.yul\":4117:4119   */\n      0x20\n        /* \"#utility.yul\":4102:4120   */\n      dup4\n      add\n        /* \"#utility.yul\":4089:4121   */\n      calldataload\n      sub(shl(0x40, 0x01), 0x01)\n        /* \"#utility.yul\":4133:4165   */\n      dup2\n      gt\n        /* \"#utility.yul\":4130:4182   */\n      iszero\n      tag_230\n      jumpi\n        /* \"#utility.yul\":4178:4179   */\n      0x00\n        /* \"#utility.yul\":4175:4176   */\n      0x00\n        /* \"#utility.yul\":4168:4180   */\n      revert\n        /* \"#utility.yul\":4130:4182   */\n    tag_230:\n        /* \"#utility.yul\":4201:4225   */\n      dup4\n      add\n        /* \"#utility.yul\":4256:4260   */\n      0x1f\n        /* \"#utility.yul\":4248:4261   */\n      dup2\n      add\n        /* \"#utility.yul\":4244:4271   */\n      dup6\n      sgt\n        /* \"#utility.yul\":4234:4289   */\n      tag_231\n      jumpi\n        /* \"#utility.yul\":4285:4286   */\n      0x00\n        /* \"#utility.yul\":4282:4283   */\n      0x00\n        /* \"#utility.yul\":4275:4287   */\n      revert\n        /* \"#utility.yul\":4234:4289   */\n    tag_231:\n        /* \"#utility.yul\":4312:4328   */\n      dup1\n      calldataload\n      sub(shl(0x40, 0x01), 0x01)\n        /* \"#utility.yul\":4340:4370   */\n      dup2\n      gt\n        /* \"#utility.yul\":4337:4393   */\n      iszero\n      tag_233\n      jumpi\n        /* \"#utility.yul\":4373:4391   */\n      tag_233\n      tag_159\n      jump\t// in\n    tag_233:\n        /* \"#utility.yul\":4419:4425   */\n      dup1\n        /* \"#utility.yul\":4416:4417   */\n      0x05\n        /* \"#utility.yul\":4412:4426   */\n      shl\n        /* \"#utility.yul\":4446:4474   */\n      tag_234\n        /* \"#utility.yul\":4470:4472   */\n      0x20\n        /* \"#utility.yul\":4466:4468   */\n      dup3\n        /* \"#utility.yul\":4462:4473   */\n      add\n        /* \"#utility.yul\":4446:4474   */\n      tag_183\n      jump\t// in\n    tag_234:\n        /* \"#utility.yul\":4508:4527   */\n      swap2\n      dup3\n      mstore\n        /* \"#utility.yul\":4552:4554   */\n      0x20\n        /* \"#utility.yul\":4582:4593   */\n      dup2\n      dup5\n      add\n        /* \"#utility.yul\":4578:4598   */\n      dup2\n      add\n      swap3\n        /* \"#utility.yul\":4543:4555   */\n      swap1\n      dup2\n      add\n      swap1\n        /* \"#utility.yul\":4610:4629   */\n      dup9\n      dup5\n      gt\n        /* \"#utility.yul\":4607:4646   */\n      iszero\n      tag_235\n      jumpi\n        /* \"#utility.yul\":4642:4643   */\n      0x00\n        /* \"#utility.yul\":4639:4640   */\n      0x00\n        /* \"#utility.yul\":4632:4644   */\n      revert\n        /* \"#utility.yul\":4607:4646   */\n    tag_235:\n        /* \"#utility.yul\":4674:4676   */\n      0x20\n        /* \"#utility.yul\":4670:4672   */\n      dup6\n        /* \"#utility.yul\":4666:4677   */\n      add\n        /* \"#utility.yul\":4655:4677   */\n      swap5\n      pop\n        /* \"#utility.yul\":4686:4834   */\n    tag_236:\n        /* \"#utility.yul\":4702:4708   */\n      dup4\n        /* \"#utility.yul\":4697:4700   */\n      dup6\n        /* \"#utility.yul\":4694:4709   */\n      lt\n        /* \"#utility.yul\":4686:4834   */\n      iszero\n      tag_238\n      jumpi\n        /* \"#utility.yul\":4768:4791   */\n      tag_239\n        /* \"#utility.yul\":4787:4790   */\n      dup6\n        /* \"#utility.yul\":4768:4791   */\n      tag_182\n      jump\t// in\n    tag_239:\n        /* \"#utility.yul\":4756:4792   */\n      dup3\n      mstore\n        /* \"#utility.yul\":4821:4823   */\n      0x20\n        /* \"#utility.yul\":4719:4731   */\n      swap5\n      dup6\n      add\n      swap5\n        /* \"#utility.yul\":4812:4824   */\n      swap1\n      swap2\n      add\n      swap1\n        /* \"#utility.yul\":4686:4834   */\n      jump(tag_236)\n    tag_238:\n        /* \"#utility.yul\":4853:4858   */\n      dup1\n        /* \"#utility.yul\":4843:4858   */\n      swap6\n      pop\n      pop\n      pop\n      pop\n      pop\n      pop\n        /* \"#utility.yul\":3678:4864   */\n      swap3\n      pop\n      swap3\n      swap1\n      pop\n      jump\t// out\n        /* \"#utility.yul\":4869:5690   */\n    tag_63:\n        /* \"#utility.yul\":4974:4980   */\n      0x00\n        /* \"#utility.yul\":4982:4988   */\n      0x00\n        /* \"#utility.yul\":4990:4996   */\n      0x00\n        /* \"#utility.yul\":4998:5004   */\n      0x00\n        /* \"#utility.yul\":5051:5053   */\n      0x60\n        /* \"#utility.yul\":5039:5048   */\n      dup6\n        /* \"#utility.yul\":5030:5037   */\n      dup8\n        /* \"#utility.yul\":5026:5049   */\n      sub\n        /* \"#utility.yul\":5022:5054   */\n      slt\n        /* \"#utility.yul\":5019:5071   */\n      iszero\n      tag_241\n      jumpi\n        /* \"#utility.yul\":5067:5068   */\n      0x00\n        /* \"#utility.yul\":5064:5065   */\n      0x00\n        /* \"#utility.yul\":5057:5069   */\n      revert\n        /* \"#utility.yul\":5019:5071   */\n    tag_241:\n        /* \"#utility.yul\":5090:5119   */\n      tag_242\n        /* \"#utility.yul\":5109:5118   */\n      dup6\n        /* \"#utility.yul\":5090:5119   */\n      tag_182\n      jump\t// in\n    tag_242:\n        /* \"#utility.yul\":5080:5119   */\n      swap4\n      pop\n        /* \"#utility.yul\":5170:5172   */\n      0x20\n        /* \"#utility.yul\":5155:5173   */\n      dup6\n      add\n        /* \"#utility.yul\":5142:5174   */\n      calldataload\n      sub(shl(0x40, 0x01), 0x01)\n        /* \"#utility.yul\":5186:5216   */\n      dup2\n      gt\n        /* \"#utility.yul\":5183:5233   */\n      iszero\n      tag_243\n      jumpi\n        /* \"#utility.yul\":5229:5230   */\n      0x00\n        /* \"#utility.yul\":5226:5227   */\n      0x00\n        /* \"#utility.yul\":5219:5231   */\n      revert\n        /* \"#utility.yul\":5183:5233   */\n    tag_243:\n        /* \"#utility.yul\":5252:5274   */\n      dup6\n      add\n        /* \"#utility.yul\":5305:5309   */\n      0x1f\n        /* \"#utility.yul\":5297:5310   */\n      dup2\n      add\n        /* \"#utility.yul\":5293:5320   */\n      dup8\n      sgt\n        /* \"#utility.yul\":5283:5338   */\n      tag_244\n      jumpi\n        /* \"#utility.yul\":5334:5335   */\n      0x00\n        /* \"#utility.yul\":5331:5332   */\n      0x00\n        /* \"#utility.yul\":5324:5336   */\n      revert\n        /* \"#utility.yul\":5283:5338   */\n    tag_244:\n        /* \"#utility.yul\":5361:5377   */\n      dup1\n      calldataload\n      sub(shl(0x40, 0x01), 0x01)\n        /* \"#utility.yul\":5389:5419   */\n      dup2\n      gt\n        /* \"#utility.yul\":5386:5436   */\n      iszero\n      tag_245\n      jumpi\n        /* \"#utility.yul\":5432:5433   */\n      0x00\n        /* \"#utility.yul\":5429:5430   */\n      0x00\n        /* \"#utility.yul\":5422:5434   */\n      revert\n        /* \"#utility.yul\":5386:5436   */\n    tag_245:\n        /* \"#utility.yul\":5477:5484   */\n      dup8\n        /* \"#utility.yul\":5472:5474   */\n      0x20\n        /* \"#utility.yul\":5463:5469   */\n      dup3\n        /* \"#utility.yul\":5459:5461   */\n      dup5\n        /* \"#utility.yul\":5455:5470   */\n      add\n        /* \"#utility.yul\":5451:5475   */\n      add\n        /* \"#utility.yul\":5448:5485   */\n      gt\n        /* \"#utility.yul\":5445:5502   */\n      iszero\n      tag_246\n      jumpi\n        /* \"#utility.yul\":5498:5499   */\n      0x00\n        /* \"#utility.yul\":5495:5496   */\n      0x00\n        /* \"#utility.yul\":5488:5500   */\n      revert\n        /* \"#utility.yul\":5445:5502   */\n    tag_246:\n        /* \"#utility.yul\":5529:5531   */\n      0x20\n        /* \"#utility.yul\":5521:5532   */\n      swap2\n      swap1\n      swap2\n      add\n      swap4\n      pop\n        /* \"#utility.yul\":5551:5557   */\n      swap2\n      pop\n        /* \"#utility.yul\":5607:5609   */\n      0x40\n        /* \"#utility.yul\":5592:5610   */\n      dup6\n      add\n        /* \"#utility.yul\":5579:5611   */\n      calldataload\n        /* \"#utility.yul\":5640:5641   */\n      0x03\n        /* \"#utility.yul\":5630:5642   */\n      dup2\n      lt\n        /* \"#utility.yul\":5620:5660   */\n      tag_247\n      jumpi\n        /* \"#utility.yul\":5656:5657   */\n      0x00\n        /* \"#utility.yul\":5653:5654   */\n      0x00\n        /* \"#utility.yul\":5646:5658   */\n      revert\n        /* \"#utility.yul\":5620:5660   */\n    tag_247:\n        /* \"#utility.yul\":4869:5690   */\n      swap4\n      swap7\n      swap3\n      swap6\n      pop\n      swap1\n      swap4\n      pop\n      pop\n      jump\t// out\n        /* \"#utility.yul\":5695:6332   */\n    tag_68:\n        /* \"#utility.yul\":5885:5887   */\n      0x20\n        /* \"#utility.yul\":5897:5918   */\n      dup1\n      dup3\n      mstore\n        /* \"#utility.yul\":5967:5980   */\n      dup3\n      mload\n        /* \"#utility.yul\":5870:5888   */\n      dup3\n      dup3\n      add\n        /* \"#utility.yul\":5989:6011   */\n      dup2\n      swap1\n      mstore\n        /* \"#utility.yul\":5837:5841   */\n      0x00\n      swap2\n        /* \"#utility.yul\":6068:6083   */\n      dup5\n      add\n      swap1\n        /* \"#utility.yul\":6042:6044   */\n      0x40\n        /* \"#utility.yul\":6027:6045   */\n      dup5\n      add\n      swap1\n        /* \"#utility.yul\":5837:5841   */\n      dup4\n        /* \"#utility.yul\":6111:6306   */\n    tag_249:\n        /* \"#utility.yul\":6125:6131   */\n      dup2\n        /* \"#utility.yul\":6122:6123   */\n      dup2\n        /* \"#utility.yul\":6119:6132   */\n      lt\n        /* \"#utility.yul\":6111:6306   */\n      iszero\n      tag_251\n      jumpi\n        /* \"#utility.yul\":6190:6203   */\n      dup4\n      mload\n      sub(shl(0xa0, 0x01), 0x01)\n        /* \"#utility.yul\":6186:6225   */\n      and\n        /* \"#utility.yul\":6174:6226   */\n      dup4\n      mstore\n        /* \"#utility.yul\":6255:6257   */\n      0x20\n        /* \"#utility.yul\":6281:6296   */\n      swap4\n      dup5\n      add\n      swap4\n        /* \"#utility.yul\":6246:6258   */\n      swap1\n      swap3\n      add\n      swap2\n        /* \"#utility.yul\":6222:6223   */\n      0x01\n        /* \"#utility.yul\":6140:6149   */\n      add\n        /* \"#utility.yul\":6111:6306   */\n      jump(tag_249)\n    tag_251:\n      pop\n        /* \"#utility.yul\":6323:6326   */\n      swap1\n      swap6\n        /* \"#utility.yul\":5695:6332   */\n      swap5\n      pop\n      pop\n      pop\n      pop\n      pop\n      jump\t// out\n        /* \"#utility.yul\":6337:6761   */\n    tag_75:\n        /* \"#utility.yul\":6432:6438   */\n      0x00\n        /* \"#utility.yul\":6440:6446   */\n      0x00\n        /* \"#utility.yul\":6493:6495   */\n      0x40\n        /* \"#utility.yul\":6481:6490   */\n      dup4\n        /* \"#utility.yul\":6472:6479   */\n      dup6\n        /* \"#utility.yul\":6468:6491   */\n      sub\n        /* \"#utility.yul\":6464:6496   */\n      slt\n        /* \"#utility.yul\":6461:6513   */\n      iszero\n      tag_253\n      jumpi\n        /* \"#utility.yul\":6509:6510   */\n      0x00\n        /* \"#utility.yul\":6506:6507   */\n      0x00\n        /* \"#utility.yul\":6499:6511   */\n      revert\n        /* \"#utility.yul\":6461:6513   */\n    tag_253:\n        /* \"#utility.yul\":6536:6559   */\n      dup3\n      calldataload\n      sub(shl(0x40, 0x01), 0x01)\n        /* \"#utility.yul\":6571:6601   */\n      dup2\n      gt\n        /* \"#utility.yul\":6568:6618   */\n      iszero\n      tag_254\n      jumpi\n        /* \"#utility.yul\":6614:6615   */\n      0x00\n        /* \"#utility.yul\":6611:6612   */\n      0x00\n        /* \"#utility.yul\":6604:6616   */\n      revert\n        /* \"#utility.yul\":6568:6618   */\n    tag_254:\n        /* \"#utility.yul\":6637:6698   */\n      tag_255\n        /* \"#utility.yul\":6690:6697   */\n      dup6\n        /* \"#utility.yul\":6681:6687   */\n      dup3\n        /* \"#utility.yul\":6670:6679   */\n      dup7\n        /* \"#utility.yul\":6666:6688   */\n      add\n        /* \"#utility.yul\":6637:6698   */\n      tag_185\n      jump\t// in\n    tag_255:\n        /* \"#utility.yul\":6627:6698   */\n      swap3\n      pop\n      pop\n        /* \"#utility.yul\":6717:6755   */\n      tag_207\n        /* \"#utility.yul\":6751:6753   */\n      0x20\n        /* \"#utility.yul\":6740:6749   */\n      dup5\n        /* \"#utility.yul\":6736:6754   */\n      add\n        /* \"#utility.yul\":6717:6755   */\n      tag_182\n      jump\t// in\n        /* \"#utility.yul\":7176:7303   */\n    tag_92:\n        /* \"#utility.yul\":7237:7247   */\n      0x4e487b71\n        /* \"#utility.yul\":7232:7235   */\n      0xe0\n        /* \"#utility.yul\":7228:7248   */\n      shl\n        /* \"#utility.yul\":7225:7226   */\n      0x00\n        /* \"#utility.yul\":7218:7249   */\n      mstore\n        /* \"#utility.yul\":7268:7272   */\n      0x32\n        /* \"#utility.yul\":7265:7266   */\n      0x04\n        /* \"#utility.yul\":7258:7273   */\n      mstore\n        /* \"#utility.yul\":7292:7296   */\n      0x24\n        /* \"#utility.yul\":7289:7290   */\n      0x00\n        /* \"#utility.yul\":7282:7297   */\n      revert\n        /* \"#utility.yul\":7308:7533   */\n    tag_96:\n        /* \"#utility.yul\":7375:7384   */\n      dup2\n      dup2\n      sub\n        /* \"#utility.yul\":7396:7407   */\n      dup2\n      dup2\n      gt\n        /* \"#utility.yul\":7393:7527   */\n      iszero\n      tag_260\n      jumpi\n        /* \"#utility.yul\":7449:7459   */\n      0x4e487b71\n        /* \"#utility.yul\":7444:7447   */\n      0xe0\n        /* \"#utility.yul\":7440:7460   */\n      shl\n        /* \"#utility.yul\":7437:7438   */\n      0x00\n        /* \"#utility.yul\":7430:7461   */\n      mstore\n        /* \"#utility.yul\":7484:7488   */\n      0x11\n        /* \"#utility.yul\":7481:7482   */\n      0x04\n        /* \"#utility.yul\":7474:7489   */\n      mstore\n        /* \"#utility.yul\":7512:7516   */\n      0x24\n        /* \"#utility.yul\":7509:7510   */\n      0x00\n        /* \"#utility.yul\":7502:7517   */\n      revert\n        /* \"#utility.yul\":7393:7527   */\n    tag_260:\n        /* \"#utility.yul\":7308:7533   */\n      swap3\n      swap2\n      pop\n      pop\n      jump\t// out\n        /* \"#utility.yul\":7538:7665   */\n    tag_105:\n        /* \"#utility.yul\":7599:7609   */\n      0x4e487b71\n        /* \"#utility.yul\":7594:7597   */\n      0xe0\n        /* \"#utility.yul\":7590:7610   */\n      shl\n        /* \"#utility.yul\":7587:7588   */\n      0x00\n        /* \"#utility.yul\":7580:7611   */\n      mstore\n        /* \"#utility.yul\":7630:7634   */\n      0x31\n        /* \"#utility.yul\":7627:7628   */\n      0x04\n        /* \"#utility.yul\":7620:7635   */\n      mstore\n        /* \"#utility.yul\":7654:7658   */\n      0x24\n        /* \"#utility.yul\":7651:7652   */\n      0x00\n        /* \"#utility.yul\":7644:7659   */\n      revert\n        /* \"#utility.yul\":8009:8407   */\n    tag_117:\n        /* \"#utility.yul\":8211:8213   */\n      0x20\n        /* \"#utility.yul\":8193:8214   */\n      dup1\n      dup3\n      mstore\n        /* \"#utility.yul\":8250:8252   */\n      0x22\n        /* \"#utility.yul\":8230:8248   */\n      swap1\n      dup3\n      add\n        /* \"#utility.yul\":8223:8253   */\n      mstore\n        /* \"#utility.yul\":8289:8323   */\n      0x4f6e6c792061646d696e2063616e20706572666f726d20746869732061637469\n        /* \"#utility.yul\":8284:8286   */\n      0x40\n        /* \"#utility.yul\":8269:8287   */\n      dup3\n      add\n        /* \"#utility.yul\":8262:8324   */\n      mstore\n      shl(0xf1, 0x37b7)\n        /* \"#utility.yul\":8355:8357   */\n      0x60\n        /* \"#utility.yul\":8340:8358   */\n      dup3\n      add\n        /* \"#utility.yul\":8333:8365   */\n      mstore\n        /* \"#utility.yul\":8397:8400   */\n      0x80\n        /* \"#utility.yul\":8382:8401   */\n      add\n      swap1\n        /* \"#utility.yul\":8009:8407   */\n      jump\t// out\n        /* \"#utility.yul\":8757:8884   */\n    tag_149:\n        /* \"#utility.yul\":8818:8828   */\n      0x4e487b71\n        /* \"#utility.yul\":8813:8816   */\n      0xe0\n        /* \"#utility.yul\":8809:8829   */\n      shl\n        /* \"#utility.yul\":8806:8807   */\n      0x00\n        /* \"#utility.yul\":8799:8830   */\n      mstore\n        /* \"#utility.yul\":8849:8853   */\n      0x21\n        /* \"#utility.yul\":8846:8847   */\n      0x04\n        /* \"#utility.yul\":8839:8854   */\n      mstore\n        /* \"#utility.yul\":8873:8877   */\n      0x24\n        /* \"#utility.yul\":8870:8871   */\n      0x00\n        /* \"#utility.yul\":8863:8878   */\n      revert\n        /* \"#utility.yul\":8889:9359   */\n    tag_151:\n        /* \"#utility.yul\":9072:9074   */\n      0x40\n        /* \"#utility.yul\":9061:9070   */\n      dup2\n        /* \"#utility.yul\":9054:9075   */\n      mstore\n        /* \"#utility.yul\":9111:9117   */\n      dup3\n        /* \"#utility.yul\":9106:9108   */\n      0x40\n        /* \"#utility.yul\":9095:9104   */\n      dup3\n        /* \"#utility.yul\":9091:9109   */\n      add\n        /* \"#utility.yul\":9084:9118   */\n      mstore\n        /* \"#utility.yul\":9168:9174   */\n      dup3\n        /* \"#utility.yul\":9160:9166   */\n      dup5\n        /* \"#utility.yul\":9155:9157   */\n      0x60\n        /* \"#utility.yul\":9144:9153   */\n      dup4\n        /* \"#utility.yul\":9140:9158   */\n      add\n        /* \"#utility.yul\":9127:9175   */\n      calldatacopy\n        /* \"#utility.yul\":9224:9225   */\n      0x00\n        /* \"#utility.yul\":9219:9221   */\n      0x60\n        /* \"#utility.yul\":9210:9216   */\n      dup5\n        /* \"#utility.yul\":9199:9208   */\n      dup4\n        /* \"#utility.yul\":9195:9217   */\n      add\n        /* \"#utility.yul\":9191:9222   */\n      add\n        /* \"#utility.yul\":9184:9226   */\n      mstore\n        /* \"#utility.yul\":9035:9039   */\n      0x00\n        /* \"#utility.yul\":9294:9296   */\n      0x60\n        /* \"#utility.yul\":9287:9289   */\n      0x1f\n        /* \"#utility.yul\":9283:9290   */\n      not\n        /* \"#utility.yul\":9278:9280   */\n      0x1f\n        /* \"#utility.yul\":9270:9276   */\n      dup7\n        /* \"#utility.yul\":9266:9281   */\n      add\n        /* \"#utility.yul\":9262:9291   */\n      and\n        /* \"#utility.yul\":9251:9260   */\n      dup4\n        /* \"#utility.yul\":9247:9292   */\n      add\n        /* \"#utility.yul\":9243:9297   */\n      add\n        /* \"#utility.yul\":9235:9297   */\n      swap1\n      pop\n        /* \"#utility.yul\":9347:9351   */\n      0xff\n        /* \"#utility.yul\":9339:9345   */\n      dup4\n        /* \"#utility.yul\":9335:9352   */\n      and\n        /* \"#utility.yul\":9328:9332   */\n      0x20\n        /* \"#utility.yul\":9317:9326   */\n      dup4\n        /* \"#utility.yul\":9313:9333   */\n      add\n        /* \"#utility.yul\":9306:9353   */\n      mstore\n        /* \"#utility.yul\":8889:9359   */\n      swap5\n      swap4\n      pop\n      pop\n      pop\n      pop\n      jump\t// out\n        /* \"#utility.yul\":9774:10063   */\n    tag_186:\n        /* \"#utility.yul\":9816:9819   */\n      0x00\n        /* \"#utility.yul\":9854:9859   */\n      dup2\n        /* \"#utility.yul\":9848:9860   */\n      mload\n        /* \"#utility.yul\":9881:9887   */\n      dup1\n        /* \"#utility.yul\":9876:9879   */\n      dup5\n        /* \"#utility.yul\":9869:9888   */\n      mstore\n        /* \"#utility.yul\":9937:9943   */\n      dup1\n        /* \"#utility.yul\":9930:9934   */\n      0x20\n        /* \"#utility.yul\":9923:9928   */\n      dup5\n        /* \"#utility.yul\":9919:9935   */\n      add\n        /* \"#utility.yul\":9912:9916   */\n      0x20\n        /* \"#utility.yul\":9907:9910   */\n      dup7\n        /* \"#utility.yul\":9903:9917   */\n      add\n        /* \"#utility.yul\":9897:9944   */\n      mcopy\n        /* \"#utility.yul\":9989:9990   */\n      0x00\n        /* \"#utility.yul\":9982:9986   */\n      0x20\n        /* \"#utility.yul\":9973:9979   */\n      dup3\n        /* \"#utility.yul\":9968:9971   */\n      dup7\n        /* \"#utility.yul\":9964:9980   */\n      add\n        /* \"#utility.yul\":9960:9987   */\n      add\n        /* \"#utility.yul\":9953:9991   */\n      mstore\n        /* \"#utility.yul\":10052:10056   */\n      0x20\n        /* \"#utility.yul\":10045:10047   */\n      0x1f\n        /* \"#utility.yul\":10041:10048   */\n      not\n        /* \"#utility.yul\":10036:10038   */\n      0x1f\n        /* \"#utility.yul\":10028:10034   */\n      dup4\n        /* \"#utility.yul\":10024:10039   */\n      add\n        /* \"#utility.yul\":10020:10049   */\n      and\n        /* \"#utility.yul\":10015:10018   */\n      dup6\n        /* \"#utility.yul\":10011:10050   */\n      add\n        /* \"#utility.yul\":10007:10057   */\n      add\n        /* \"#utility.yul\":10000:10057   */\n      swap2\n      pop\n      pop\n        /* \"#utility.yul\":9774:10063   */\n      swap3\n      swap2\n      pop\n      pop\n      jump\t// out\n        /* \"#utility.yul\":10068:10522   */\n    tag_176:\n        /* \"#utility.yul\":10293:10295   */\n      0x60\n        /* \"#utility.yul\":10282:10291   */\n      dup2\n        /* \"#utility.yul\":10275:10296   */\n      mstore\n        /* \"#utility.yul\":10256:10260   */\n      0x00\n        /* \"#utility.yul\":10319:10364   */\n      tag_270\n        /* \"#utility.yul\":10360:10362   */\n      0x60\n        /* \"#utility.yul\":10349:10358   */\n      dup4\n        /* \"#utility.yul\":10345:10363   */\n      add\n        /* \"#utility.yul\":10337:10343   */\n      dup7\n        /* \"#utility.yul\":10319:10364   */\n      tag_186\n      jump\t// in\n    tag_270:\n        /* \"#utility.yul\":10412:10421   */\n      dup3\n        /* \"#utility.yul\":10404:10410   */\n      dup2\n        /* \"#utility.yul\":10400:10422   */\n      sub\n        /* \"#utility.yul\":10395:10397   */\n      0x20\n        /* \"#utility.yul\":10384:10393   */\n      dup5\n        /* \"#utility.yul\":10380:10398   */\n      add\n        /* \"#utility.yul\":10373:10423   */\n      mstore\n        /* \"#utility.yul\":10440:10473   */\n      tag_271\n        /* \"#utility.yul\":10466:10472   */\n      dup2\n        /* \"#utility.yul\":10458:10464   */\n      dup7\n        /* \"#utility.yul\":10440:10473   */\n      tag_186\n      jump\t// in\n    tag_271:\n        /* \"#utility.yul\":10432:10473   */\n      swap2\n      pop\n      pop\n        /* \"#utility.yul\":10509:10515   */\n      dup3\n        /* \"#utility.yul\":10504:10506   */\n      0x40\n        /* \"#utility.yul\":10493:10502   */\n      dup4\n        /* \"#utility.yul\":10489:10507   */\n      add\n        /* \"#utility.yul\":10482:10516   */\n      mstore\n        /* \"#utility.yul\":10068:10522   */\n      swap5\n      swap4\n      pop\n      pop\n      pop\n      pop\n      jump\t// out\n\n    auxdata: 0xa264697066735822122037f50b276c143d98db39533dc90f2946262f66540781d4e454e1cb4915a3d93564736f6c634300081d0033\n}\n",
				"bytecode": {
					"linkReferences": {},
					"object": "608060409081525f80546001600160a01b0319163390811782558152600560205220805460ff19166001179055610f89806100395f395ff3fe608060405234801561000f575f5ffd5b50600436106100c3575f3560e01c806315f4f823146100c7578063192de59a146100fe57806324d7806c1461012957806333158b131461014b57806335c48ef61461016057806355a5194b14610173578063564c2298146101865780637effb463146101b35780638da5cb5b146101c657806390cc9603146101d8578063d895af3d146101eb578063e7cd1385146101fe578063f8dbc9e814610213578063fe47726114610226578063ff10f08614610239575b5f5ffd5b6100e96100d5366004610a17565b60026020525f908152604090205460ff1681565b60405190151581526020015b60405180910390f35b61011161010c366004610a37565b61024c565b6040516001600160a01b0390911681526020016100f5565b6100e9610137366004610a17565b60056020525f908152604090205460ff1681565b61015e610159366004610a17565b610280565b005b61011161016e366004610a5f565b61042b565b61015e610181366004610a76565b610453565b6100e9610194366004610aaf565b600160209081525f928352604080842090915290825290205460ff1681565b61015e6101c1366004610a17565b6104c3565b5f54610111906001600160a01b031681565b61015e6101e6366004610c1c565b610605565b61015e6101f9366004610cf5565b61067f565b61020661073c565b6040516100f59190610d87565b610206610221366004610a17565b61079c565b6100e9610234366004610dd2565b61086d565b61015e610247366004610a17565b610964565b6004602052815f5260405f208181548110610265575f80fd5b5f918252602090912001546001600160a01b03169150829050565b6001600160a01b0381165f90815260016020908152604080832033845290915290205460ff166103095760405162461bcd60e51b815260206004820152602960248201527f44657669636520746f6b656e206e6f74207265676973746572656420666f722060448201526807468697320444170760bc1b60648201526084015b60405180910390fd5b6001600160a01b0381165f9081526001602090815260408083203384528252808320805460ff1916905560049091528120905b81548110156104265781818154811061035757610357610e13565b5f918252602090912001546001600160a01b03908116908416036103ee578154829061038590600190610e27565b8154811061039557610395610e13565b905f5260205f20015f9054906101000a90046001600160a01b03168282815481106103c2576103c2610e13565b905f5260205f20015f6101000a8154816001600160a01b0302191690836001600160a01b031602179055505b818054806103fe576103fe610e4c565b5f8281526020902081015f1990810180546001600160a01b031916905501905560010161033c565b505050565b6003818154811061043a575f80fd5b5f918252602090912001546001600160a01b0316905081565b5f546001600160a01b031633146104995760405162461bcd60e51b815260206004820152600a60248201526937b7363c9037bbb732b960b11b6044820152606401610300565b6001600160a01b03919091165f908152600560205260409020805460ff1916911515919091179055565b335f9081526005602052604090205460ff1615156001146104f65760405162461bcd60e51b815260040161030090610e60565b6001600160a01b0381165f908152600260205260408120805460ff191690555b600354811015610601576003818154811061053357610533610e13565b5f918252602090912001546001600160a01b03908116908316036105c8576003805461056190600190610e27565b8154811061057157610571610e13565b5f91825260209091200154600380546001600160a01b03909216918390811061059c5761059c610e13565b905f5260205f20015f6101000a8154816001600160a01b0302191690836001600160a01b031602179055505b60038054806105d9576105d9610e4c565b5f8281526020902081015f1990810180546001600160a01b0319169055019055600101610516565b5050565b5f8151116106485760405162461bcd60e51b815260206004820152601060248201526f746f206c69737420697320656d70747960801b6044820152606401610300565b5f5b8151811015610426576106768383838151811061066957610669610e13565b602002602001015161086d565b5060010161064a565b6001600160a01b0384165f818152600160208181526040808420338086529252909220805460ff19169091179055907f5823619587beb5fa20e5571f107471a637e72721a9719da0fc8c26d5ae85b63e85858560028111156106e3576106e3610ea2565b6040516106f293929190610eb6565b60405180910390a35050335f9081526004602090815260408220805460018101825590835291200180546001600160a01b0319166001600160a01b03939093169290921790915550565b6060600380548060200260200160405190810160405280929190818152602001828054801561079257602002820191905f5260205f20905b81546001600160a01b03168152600190910190602001808311610774575b5050505050905090565b6001600160a01b0381165f9081526004602052604090208054606091906001600160401b038111156107d0576107d0610ae0565b6040519080825280602002602001820160405280156107f9578160200160208202803683370190505b5091505f5b81548110156108665781818154811061081957610819610e13565b905f5260205f20015f9054906101000a90046001600160a01b031683828151811061084657610846610e13565b6001600160a01b03909216602092830291909101909101526001016107fe565b5050919050565b335f90815260026020526040812054829060ff16806108ae5750335f9081526001602090815260408083206001600160a01b038516845290915290205460ff165b61090c5760405162461bcd60e51b815260206004820152602960248201527f44417070206e6f7420617574686f72697a656420746f2073656e64206e6f74696044820152686669636174696f6e7360b81b6064820152608401610300565b835160208501516040516001600160a01b0386169233927f88bfbf59f1056861b7a45a80f3a65d9fd26efcaf5cd77ac42dc88d2da5f5cbca926109529291904290610f1e565b60405180910390a35060019392505050565b335f9081526005602052604090205460ff1615156001146109975760405162461bcd60e51b815260040161030090610e60565b6001600160a01b03165f818152600260205260408120805460ff191660019081179091556003805491820181559091527fc2575a0e9e593c00f959f8c92f12db2869c3395a3b0502d05e2516446f71f85b0180546001600160a01b0319169091179055565b80356001600160a01b0381168114610a12575f5ffd5b919050565b5f60208284031215610a27575f5ffd5b610a30826109fc565b9392505050565b5f5f60408385031215610a48575f5ffd5b610a51836109fc565b946020939093013593505050565b5f60208284031215610a6f575f5ffd5b5035919050565b5f5f60408385031215610a87575f5ffd5b610a90836109fc565b915060208301358015158114610aa4575f5ffd5b809150509250929050565b5f5f60408385031215610ac0575f5ffd5b610ac9836109fc565b9150610ad7602084016109fc565b90509250929050565b634e487b7160e01b5f52604160045260245ffd5b604051601f8201601f191681016001600160401b0381118282101715610b1c57610b1c610ae0565b604052919050565b5f82601f830112610b33575f5ffd5b81356001600160401b03811115610b4c57610b4c610ae0565b610b5f601f8201601f1916602001610af4565b818152846020838601011115610b73575f5ffd5b816020850160208301375f918101602001919091529392505050565b5f60408284031215610b9f575f5ffd5b604080519081016001600160401b0381118282101715610bc157610bc1610ae0565b60405290508082356001600160401b03811115610bdc575f5ffd5b610be885828601610b24565b82525060208301356001600160401b03811115610c03575f5ffd5b610c0f85828601610b24565b6020830152505092915050565b5f5f60408385031215610c2d575f5ffd5b82356001600160401b03811115610c42575f5ffd5b610c4e85828601610b8f565b92505060208301356001600160401b03811115610c69575f5ffd5b8301601f81018513610c79575f5ffd5b80356001600160401b03811115610c9257610c92610ae0565b8060051b610ca260208201610af4565b91825260208184018101929081019088841115610cbd575f5ffd5b6020850194505b83851015610ce657610cd5856109fc565b825260209485019490910190610cc4565b80955050505050509250929050565b5f5f5f5f60608587031215610d08575f5ffd5b610d11856109fc565b935060208501356001600160401b03811115610d2b575f5ffd5b8501601f81018713610d3b575f5ffd5b80356001600160401b03811115610d50575f5ffd5b876020828401011115610d61575f5ffd5b60209190910193509150604085013560038110610d7c575f5ffd5b939692955090935050565b602080825282518282018190525f918401906040840190835b81811015610dc75783516001600160a01b0316835260209384019390920191600101610da0565b509095945050505050565b5f5f60408385031215610de3575f5ffd5b82356001600160401b03811115610df8575f5ffd5b610e0485828601610b8f565b925050610ad7602084016109fc565b634e487b7160e01b5f52603260045260245ffd5b81810381811115610e4657634e487b7160e01b5f52601160045260245ffd5b92915050565b634e487b7160e01b5f52603160045260245ffd5b60208082526022908201527f4f6e6c792061646d696e2063616e20706572666f726d2074686973206163746960408201526137b760f11b606082015260800190565b634e487b7160e01b5f52602160045260245ffd5b60408152826040820152828460608301375f606084830101525f6060601f19601f860116830101905060ff83166020830152949350505050565b5f81518084528060208401602086015e5f602082860101526020601f19601f83011685010191505092915050565b606081525f610f306060830186610ef0565b8281036020840152610f428186610ef0565b91505082604083015294935050505056fea264697066735822122037f50b276c143d98db39533dc90f2946262f66540781d4e454e1cb4915a3d93564736f6c634300081d0033",
					"opcodes": "PUSH1 0x80 PUSH1 0x40 SWAP1 DUP2 MSTORE PUSH0 DUP1 SLOAD PUSH1 0x1 PUSH1 0x1 PUSH1 0xA0 SHL SUB NOT AND CALLER SWAP1 DUP2 OR DUP3 SSTORE DUP2 MSTORE PUSH1 0x5 PUSH1 0x20 MSTORE KECCAK256 DUP1 SLOAD PUSH1 0xFF NOT AND PUSH1 0x1 OR SWAP1 SSTORE PUSH2 0xF89 DUP1 PUSH2 0x39 PUSH0 CODECOPY PUSH0 RETURN INVALID PUSH1 0x80 PUSH1 0x40 MSTORE CALLVALUE DUP1 ISZERO PUSH2 0xF JUMPI PUSH0 PUSH0 REVERT JUMPDEST POP PUSH1 0x4 CALLDATASIZE LT PUSH2 0xC3 JUMPI PUSH0 CALLDATALOAD PUSH1 0xE0 SHR DUP1 PUSH4 0x15F4F823 EQ PUSH2 0xC7 JUMPI DUP1 PUSH4 0x192DE59A EQ PUSH2 0xFE JUMPI DUP1 PUSH4 0x24D7806C EQ PUSH2 0x129 JUMPI DUP1 PUSH4 0x33158B13 EQ PUSH2 0x14B JUMPI DUP1 PUSH4 0x35C48EF6 EQ PUSH2 0x160 JUMPI DUP1 PUSH4 0x55A5194B EQ PUSH2 0x173 JUMPI DUP1 PUSH4 0x564C2298 EQ PUSH2 0x186 JUMPI DUP1 PUSH4 0x7EFFB463 EQ PUSH2 0x1B3 JUMPI DUP1 PUSH4 0x8DA5CB5B EQ PUSH2 0x1C6 JUMPI DUP1 PUSH4 0x90CC9603 EQ PUSH2 0x1D8 JUMPI DUP1 PUSH4 0xD895AF3D EQ PUSH2 0x1EB JUMPI DUP1 PUSH4 0xE7CD1385 EQ PUSH2 0x1FE JUMPI DUP1 PUSH4 0xF8DBC9E8 EQ PUSH2 0x213 JUMPI DUP1 PUSH4 0xFE477261 EQ PUSH2 0x226 JUMPI DUP1 PUSH4 0xFF10F086 EQ PUSH2 0x239 JUMPI JUMPDEST PUSH0 PUSH0 REVERT JUMPDEST PUSH2 0xE9 PUSH2 0xD5 CALLDATASIZE PUSH1 0x4 PUSH2 0xA17 JUMP JUMPDEST PUSH1 0x2 PUSH1 0x20 MSTORE PUSH0 SWAP1 DUP2 MSTORE PUSH1 0x40 SWAP1 KECCAK256 SLOAD PUSH1 0xFF AND DUP2 JUMP JUMPDEST PUSH1 0x40 MLOAD SWAP1 ISZERO ISZERO DUP2 MSTORE PUSH1 0x20 ADD JUMPDEST PUSH1 0x40 MLOAD DUP1 SWAP2 SUB SWAP1 RETURN JUMPDEST PUSH2 0x111 PUSH2 0x10C CALLDATASIZE PUSH1 0x4 PUSH2 0xA37 JUMP JUMPDEST PUSH2 0x24C JUMP JUMPDEST PUSH1 0x40 MLOAD PUSH1 0x1 PUSH1 0x1 PUSH1 0xA0 SHL SUB SWAP1 SWAP2 AND DUP2 MSTORE PUSH1 0x20 ADD PUSH2 0xF5 JUMP JUMPDEST PUSH2 0xE9 PUSH2 0x137 CALLDATASIZE PUSH1 0x4 PUSH2 0xA17 JUMP JUMPDEST PUSH1 0x5 PUSH1 0x20 MSTORE PUSH0 SWAP1 DUP2 MSTORE PUSH1 0x40 SWAP1 KECCAK256 SLOAD PUSH1 0xFF AND DUP2 JUMP JUMPDEST PUSH2 0x15E PUSH2 0x159 CALLDATASIZE PUSH1 0x4 PUSH2 0xA17 JUMP JUMPDEST PUSH2 0x280 JUMP JUMPDEST STOP JUMPDEST PUSH2 0x111 PUSH2 0x16E CALLDATASIZE PUSH1 0x4 PUSH2 0xA5F JUMP JUMPDEST PUSH2 0x42B JUMP JUMPDEST PUSH2 0x15E PUSH2 0x181 CALLDATASIZE PUSH1 0x4 PUSH2 0xA76 JUMP JUMPDEST PUSH2 0x453 JUMP JUMPDEST PUSH2 0xE9 PUSH2 0x194 CALLDATASIZE PUSH1 0x4 PUSH2 0xAAF JUMP JUMPDEST PUSH1 0x1 PUSH1 0x20 SWAP1 DUP2 MSTORE PUSH0 SWAP3 DUP4 MSTORE PUSH1 0x40 DUP1 DUP5 KECCAK256 SWAP1 SWAP2 MSTORE SWAP1 DUP3 MSTORE SWAP1 KECCAK256 SLOAD PUSH1 0xFF AND DUP2 JUMP JUMPDEST PUSH2 0x15E PUSH2 0x1C1 CALLDATASIZE PUSH1 0x4 PUSH2 0xA17 JUMP JUMPDEST PUSH2 0x4C3 JUMP JUMPDEST PUSH0 SLOAD PUSH2 0x111 SWAP1 PUSH1 0x1 PUSH1 0x1 PUSH1 0xA0 SHL SUB AND DUP2 JUMP JUMPDEST PUSH2 0x15E PUSH2 0x1E6 CALLDATASIZE PUSH1 0x4 PUSH2 0xC1C JUMP JUMPDEST PUSH2 0x605 JUMP JUMPDEST PUSH2 0x15E PUSH2 0x1F9 CALLDATASIZE PUSH1 0x4 PUSH2 0xCF5 JUMP JUMPDEST PUSH2 0x67F JUMP JUMPDEST PUSH2 0x206 PUSH2 0x73C JUMP JUMPDEST PUSH1 0x40 MLOAD PUSH2 0xF5 SWAP2 SWAP1 PUSH2 0xD87 JUMP JUMPDEST PUSH2 0x206 PUSH2 0x221 CALLDATASIZE PUSH1 0x4 PUSH2 0xA17 JUMP JUMPDEST PUSH2 0x79C JUMP JUMPDEST PUSH2 0xE9 PUSH2 0x234 CALLDATASIZE PUSH1 0x4 PUSH2 0xDD2 JUMP JUMPDEST PUSH2 0x86D JUMP JUMPDEST PUSH2 0x15E PUSH2 0x247 CALLDATASIZE PUSH1 0x4 PUSH2 0xA17 JUMP JUMPDEST PUSH2 0x964 JUMP JUMPDEST PUSH1 0x4 PUSH1 0x20 MSTORE DUP2 PUSH0 MSTORE PUSH1 0x40 PUSH0 KECCAK256 DUP2 DUP2 SLOAD DUP2 LT PUSH2 0x265 JUMPI PUSH0 DUP1 REVERT JUMPDEST PUSH0 SWAP2 DUP3 MSTORE PUSH1 0x20 SWAP1 SWAP2 KECCAK256 ADD SLOAD PUSH1 0x1 PUSH1 0x1 PUSH1 0xA0 SHL SUB AND SWAP2 POP DUP3 SWAP1 POP JUMP JUMPDEST PUSH1 0x1 PUSH1 0x1 PUSH1 0xA0 SHL SUB DUP2 AND PUSH0 SWAP1 DUP2 MSTORE PUSH1 0x1 PUSH1 0x20 SWAP1 DUP2 MSTORE PUSH1 0x40 DUP1 DUP4 KECCAK256 CALLER DUP5 MSTORE SWAP1 SWAP2 MSTORE SWAP1 KECCAK256 SLOAD PUSH1 0xFF AND PUSH2 0x309 JUMPI PUSH1 0x40 MLOAD PUSH3 0x461BCD PUSH1 0xE5 SHL DUP2 MSTORE PUSH1 0x20 PUSH1 0x4 DUP3 ADD MSTORE PUSH1 0x29 PUSH1 0x24 DUP3 ADD MSTORE PUSH32 0x44657669636520746F6B656E206E6F74207265676973746572656420666F7220 PUSH1 0x44 DUP3 ADD MSTORE PUSH9 0x74686973204441707 PUSH1 0xBC SHL PUSH1 0x64 DUP3 ADD MSTORE PUSH1 0x84 ADD JUMPDEST PUSH1 0x40 MLOAD DUP1 SWAP2 SUB SWAP1 REVERT JUMPDEST PUSH1 0x1 PUSH1 0x1 PUSH1 0xA0 SHL SUB DUP2 AND PUSH0 SWAP1 DUP2 MSTORE PUSH1 0x1 PUSH1 0x20 SWAP1 DUP2 MSTORE PUSH1 0x40 DUP1 DUP4 KECCAK256 CALLER DUP5 MSTORE DUP3 MSTORE DUP1 DUP4 KECCAK256 DUP1 SLOAD PUSH1 0xFF NOT AND SWAP1 SSTORE PUSH1 0x4 SWAP1 SWAP2 MSTORE DUP2 KECCAK256 SWAP1 JUMPDEST DUP2 SLOAD DUP2 LT ISZERO PUSH2 0x426 JUMPI DUP2 DUP2 DUP2 SLOAD DUP2 LT PUSH2 0x357 JUMPI PUSH2 0x357 PUSH2 0xE13 JUMP JUMPDEST PUSH0 SWAP2 DUP3 MSTORE PUSH1 0x20 SWAP1 SWAP2 KECCAK256 ADD SLOAD PUSH1 0x1 PUSH1 0x1 PUSH1 0xA0 SHL SUB SWAP1 DUP2 AND SWAP1 DUP5 AND SUB PUSH2 0x3EE JUMPI DUP2 SLOAD DUP3 SWAP1 PUSH2 0x385 SWAP1 PUSH1 0x1 SWAP1 PUSH2 0xE27 JUMP JUMPDEST DUP2 SLOAD DUP2 LT PUSH2 0x395 JUMPI PUSH2 0x395 PUSH2 0xE13 JUMP JUMPDEST SWAP1 PUSH0 MSTORE PUSH1 0x20 PUSH0 KECCAK256 ADD PUSH0 SWAP1 SLOAD SWAP1 PUSH2 0x100 EXP SWAP1 DIV PUSH1 0x1 PUSH1 0x1 PUSH1 0xA0 SHL SUB AND DUP3 DUP3 DUP2 SLOAD DUP2 LT PUSH2 0x3C2 JUMPI PUSH2 0x3C2 PUSH2 0xE13 JUMP JUMPDEST SWAP1 PUSH0 MSTORE PUSH1 0x20 PUSH0 KECCAK256 ADD PUSH0 PUSH2 0x100 EXP DUP2 SLOAD DUP2 PUSH1 0x1 PUSH1 0x1 PUSH1 0xA0 SHL SUB MUL NOT AND SWAP1 DUP4 PUSH1 0x1 PUSH1 0x1 PUSH1 0xA0 SHL SUB AND MUL OR SWAP1 SSTORE POP JUMPDEST DUP2 DUP1 SLOAD DUP1 PUSH2 0x3FE JUMPI PUSH2 0x3FE PUSH2 0xE4C JUMP JUMPDEST PUSH0 DUP3 DUP2 MSTORE PUSH1 0x20 SWAP1 KECCAK256 DUP2 ADD PUSH0 NOT SWAP1 DUP2 ADD DUP1 SLOAD PUSH1 0x1 PUSH1 0x1 PUSH1 0xA0 SHL SUB NOT AND SWAP1 SSTORE ADD SWAP1 SSTORE PUSH1 0x1 ADD PUSH2 0x33C JUMP JUMPDEST POP POP POP JUMP JUMPDEST PUSH1 0x3 DUP2 DUP2 SLOAD DUP2 LT PUSH2 0x43A JUMPI PUSH0 DUP1 REVERT JUMPDEST PUSH0 SWAP2 DUP3 MSTORE PUSH1 0x20 SWAP1 SWAP2 KECCAK256 ADD SLOAD PUSH1 0x1 PUSH1 0x1 PUSH1 0xA0 SHL SUB AND SWAP1 POP DUP2 JUMP JUMPDEST PUSH0 SLOAD PUSH1 0x1 PUSH1 0x1 PUSH1 0xA0 SHL SUB AND CALLER EQ PUSH2 0x499 JUMPI PUSH1 0x40 MLOAD PUSH3 0x461BCD PUSH1 0xE5 SHL DUP2 MSTORE PUSH1 0x20 PUSH1 0x4 DUP3 ADD MSTORE PUSH1 0xA PUSH1 0x24 DUP3 ADD MSTORE PUSH10 0x37B7363C9037BBB732B9 PUSH1 0xB1 SHL PUSH1 0x44 DUP3 ADD MSTORE PUSH1 0x64 ADD PUSH2 0x300 JUMP JUMPDEST PUSH1 0x1 PUSH1 0x1 PUSH1 0xA0 SHL SUB SWAP2 SWAP1 SWAP2 AND PUSH0 SWAP1 DUP2 MSTORE PUSH1 0x5 PUSH1 0x20 MSTORE PUSH1 0x40 SWAP1 KECCAK256 DUP1 SLOAD PUSH1 0xFF NOT AND SWAP2 ISZERO ISZERO SWAP2 SWAP1 SWAP2 OR SWAP1 SSTORE JUMP JUMPDEST CALLER PUSH0 SWAP1 DUP2 MSTORE PUSH1 0x5 PUSH1 0x20 MSTORE PUSH1 0x40 SWAP1 KECCAK256 SLOAD PUSH1 0xFF AND ISZERO ISZERO PUSH1 0x1 EQ PUSH2 0x4F6 JUMPI PUSH1 0x40 MLOAD PUSH3 0x461BCD PUSH1 0xE5 SHL DUP2 MSTORE PUSH1 0x4 ADD PUSH2 0x300 SWAP1 PUSH2 0xE60 JUMP JUMPDEST PUSH1 0x1 PUSH1 0x1 PUSH1 0xA0 SHL SUB DUP2 AND PUSH0 SWAP1 DUP2 MSTORE PUSH1 0x2 PUSH1 0x20 MSTORE PUSH1 0x40 DUP2 KECCAK256 DUP1 SLOAD PUSH1 0xFF NOT AND SWAP1 SSTORE JUMPDEST PUSH1 0x3 SLOAD DUP2 LT ISZERO PUSH2 0x601 JUMPI PUSH1 0x3 DUP2 DUP2 SLOAD DUP2 LT PUSH2 0x533 JUMPI PUSH2 0x533 PUSH2 0xE13 JUMP JUMPDEST PUSH0 SWAP2 DUP3 MSTORE PUSH1 0x20 SWAP1 SWAP2 KECCAK256 ADD SLOAD PUSH1 0x1 PUSH1 0x1 PUSH1 0xA0 SHL SUB SWAP1 DUP2 AND SWAP1 DUP4 AND SUB PUSH2 0x5C8 JUMPI PUSH1 0x3 DUP1 SLOAD PUSH2 0x561 SWAP1 PUSH1 0x1 SWAP1 PUSH2 0xE27 JUMP JUMPDEST DUP2 SLOAD DUP2 LT PUSH2 0x571 JUMPI PUSH2 0x571 PUSH2 0xE13 JUMP JUMPDEST PUSH0 SWAP2 DUP3 MSTORE PUSH1 0x20 SWAP1 SWAP2 KECCAK256 ADD SLOAD PUSH1 0x3 DUP1 SLOAD PUSH1 0x1 PUSH1 0x1 PUSH1 0xA0 SHL SUB SWAP1 SWAP3 AND SWAP2 DUP4 SWAP1 DUP2 LT PUSH2 0x59C JUMPI PUSH2 0x59C PUSH2 0xE13 JUMP JUMPDEST SWAP1 PUSH0 MSTORE PUSH1 0x20 PUSH0 KECCAK256 ADD PUSH0 PUSH2 0x100 EXP DUP2 SLOAD DUP2 PUSH1 0x1 PUSH1 0x1 PUSH1 0xA0 SHL SUB MUL NOT AND SWAP1 DUP4 PUSH1 0x1 PUSH1 0x1 PUSH1 0xA0 SHL SUB AND MUL OR SWAP1 SSTORE POP JUMPDEST PUSH1 0x3 DUP1 SLOAD DUP1 PUSH2 0x5D9 JUMPI PUSH2 0x5D9 PUSH2 0xE4C JUMP JUMPDEST PUSH0 DUP3 DUP2 MSTORE PUSH1 0x20 SWAP1 KECCAK256 DUP2 ADD PUSH0 NOT SWAP1 DUP2 ADD DUP1 SLOAD PUSH1 0x1 PUSH1 0x1 PUSH1 0xA0 SHL SUB NOT AND SWAP1 SSTORE ADD SWAP1 SSTORE PUSH1 0x1 ADD PUSH2 0x516 JUMP JUMPDEST POP POP JUMP JUMPDEST PUSH0 DUP2 MLOAD GT PUSH2 0x648 JUMPI PUSH1 0x40 MLOAD PUSH3 0x461BCD PUSH1 0xE5 SHL DUP2 MSTORE PUSH1 0x20 PUSH1 0x4 DUP3 ADD MSTORE PUSH1 0x10 PUSH1 0x24 DUP3 ADD MSTORE PUSH16 0x746F206C69737420697320656D707479 PUSH1 0x80 SHL PUSH1 0x44 DUP3 ADD MSTORE PUSH1 0x64 ADD PUSH2 0x300 JUMP JUMPDEST PUSH0 JUMPDEST DUP2 MLOAD DUP2 LT ISZERO PUSH2 0x426 JUMPI PUSH2 0x676 DUP4 DUP4 DUP4 DUP2 MLOAD DUP2 LT PUSH2 0x669 JUMPI PUSH2 0x669 PUSH2 0xE13 JUMP JUMPDEST PUSH1 0x20 MUL PUSH1 0x20 ADD ADD MLOAD PUSH2 0x86D JUMP JUMPDEST POP PUSH1 0x1 ADD PUSH2 0x64A JUMP JUMPDEST PUSH1 0x1 PUSH1 0x1 PUSH1 0xA0 SHL SUB DUP5 AND PUSH0 DUP2 DUP2 MSTORE PUSH1 0x1 PUSH1 0x20 DUP2 DUP2 MSTORE PUSH1 0x40 DUP1 DUP5 KECCAK256 CALLER DUP1 DUP7 MSTORE SWAP3 MSTORE SWAP1 SWAP3 KECCAK256 DUP1 SLOAD PUSH1 0xFF NOT AND SWAP1 SWAP2 OR SWAP1 SSTORE SWAP1 PUSH32 0x5823619587BEB5FA20E5571F107471A637E72721A9719DA0FC8C26D5AE85B63E DUP6 DUP6 DUP6 PUSH1 0x2 DUP2 GT ISZERO PUSH2 0x6E3 JUMPI PUSH2 0x6E3 PUSH2 0xEA2 JUMP JUMPDEST PUSH1 0x40 MLOAD PUSH2 0x6F2 SWAP4 SWAP3 SWAP2 SWAP1 PUSH2 0xEB6 JUMP JUMPDEST PUSH1 0x40 MLOAD DUP1 SWAP2 SUB SWAP1 LOG3 POP POP CALLER PUSH0 SWAP1 DUP2 MSTORE PUSH1 0x4 PUSH1 0x20 SWAP1 DUP2 MSTORE PUSH1 0x40 DUP3 KECCAK256 DUP1 SLOAD PUSH1 0x1 DUP2 ADD DUP3 SSTORE SWAP1 DUP4 MSTORE SWAP2 KECCAK256 ADD DUP1 SLOAD PUSH1 0x1 PUSH1 0x1 PUSH1 0xA0 SHL SUB NOT AND PUSH1 0x1 PUSH1 0x1 PUSH1 0xA0 SHL SUB SWAP4 SWAP1 SWAP4 AND SWAP3 SWAP1 SWAP3 OR SWAP1 SWAP2 SSTORE POP JUMP JUMPDEST PUSH1 0x60 PUSH1 0x3 DUP1 SLOAD DUP1 PUSH1 0x20 MUL PUSH1 0x20 ADD PUSH1 0x40 MLOAD SWAP1 DUP2 ADD PUSH1 0x40 MSTORE DUP1 SWAP3 SWAP2 SWAP1 DUP2 DUP2 MSTORE PUSH1 0x20 ADD DUP3 DUP1 SLOAD DUP1 ISZERO PUSH2 0x792 JUMPI PUSH1 0x20 MUL DUP3 ADD SWAP2 SWAP1 PUSH0 MSTORE PUSH1 0x20 PUSH0 KECCAK256 SWAP1 JUMPDEST DUP2 SLOAD PUSH1 0x1 PUSH1 0x1 PUSH1 0xA0 SHL SUB AND DUP2 MSTORE PUSH1 0x1 SWAP1 SWAP2 ADD SWAP1 PUSH1 0x20 ADD DUP1 DUP4 GT PUSH2 0x774 JUMPI JUMPDEST POP POP POP POP POP SWAP1 POP SWAP1 JUMP JUMPDEST PUSH1 0x1 PUSH1 0x1 PUSH1 0xA0 SHL SUB DUP2 AND PUSH0 SWAP1 DUP2 MSTORE PUSH1 0x4 PUSH1 0x20 MSTORE PUSH1 0x40 SWAP1 KECCAK256 DUP1 SLOAD PUSH1 0x60 SWAP2 SWAP1 PUSH1 0x1 PUSH1 0x1 PUSH1 0x40 SHL SUB DUP2 GT ISZERO PUSH2 0x7D0 JUMPI PUSH2 0x7D0 PUSH2 0xAE0 JUMP JUMPDEST PUSH1 0x40 MLOAD SWAP1 DUP1 DUP3 MSTORE DUP1 PUSH1 0x20 MUL PUSH1 0x20 ADD DUP3 ADD PUSH1 0x40 MSTORE DUP1 ISZERO PUSH2 0x7F9 JUMPI DUP2 PUSH1 0x20 ADD PUSH1 0x20 DUP3 MUL DUP1 CALLDATASIZE DUP4 CALLDATACOPY ADD SWAP1 POP JUMPDEST POP SWAP2 POP PUSH0 JUMPDEST DUP2 SLOAD DUP2 LT ISZERO PUSH2 0x866 JUMPI DUP2 DUP2 DUP2 SLOAD DUP2 LT PUSH2 0x819 JUMPI PUSH2 0x819 PUSH2 0xE13 JUMP JUMPDEST SWAP1 PUSH0 MSTORE PUSH1 0x20 PUSH0 KECCAK256 ADD PUSH0 SWAP1 SLOAD SWAP1 PUSH2 0x100 EXP SWAP1 DIV PUSH1 0x1 PUSH1 0x1 PUSH1 0xA0 SHL SUB AND DUP4 DUP3 DUP2 MLOAD DUP2 LT PUSH2 0x846 JUMPI PUSH2 0x846 PUSH2 0xE13 JUMP JUMPDEST PUSH1 0x1 PUSH1 0x1 PUSH1 0xA0 SHL SUB SWAP1 SWAP3 AND PUSH1 0x20 SWAP3 DUP4 MUL SWAP2 SWAP1 SWAP2 ADD SWAP1 SWAP2 ADD MSTORE PUSH1 0x1 ADD PUSH2 0x7FE JUMP JUMPDEST POP POP SWAP2 SWAP1 POP JUMP JUMPDEST CALLER PUSH0 SWAP1 DUP2 MSTORE PUSH1 0x2 PUSH1 0x20 MSTORE PUSH1 0x40 DUP2 KECCAK256 SLOAD DUP3 SWAP1 PUSH1 0xFF AND DUP1 PUSH2 0x8AE JUMPI POP CALLER PUSH0 SWAP1 DUP2 MSTORE PUSH1 0x1 PUSH1 0x20 SWAP1 DUP2 MSTORE PUSH1 0x40 DUP1 DUP4 KECCAK256 PUSH1 0x1 PUSH1 0x1 PUSH1 0xA0 SHL SUB DUP6 AND DUP5 MSTORE SWAP1 SWAP2 MSTORE SWAP1 KECCAK256 SLOAD PUSH1 0xFF AND JUMPDEST PUSH2 0x90C JUMPI PUSH1 0x40 MLOAD PUSH3 0x461BCD PUSH1 0xE5 SHL DUP2 MSTORE PUSH1 0x20 PUSH1 0x4 DUP3 ADD MSTORE PUSH1 0x29 PUSH1 0x24 DUP3 ADD MSTORE PUSH32 0x44417070206E6F7420617574686F72697A656420746F2073656E64206E6F7469 PUSH1 0x44 DUP3 ADD MSTORE PUSH9 0x6669636174696F6E73 PUSH1 0xB8 SHL PUSH1 0x64 DUP3 ADD MSTORE PUSH1 0x84 ADD PUSH2 0x300 JUMP JUMPDEST DUP4 MLOAD PUSH1 0x20 DUP6 ADD MLOAD PUSH1 0x40 MLOAD PUSH1 0x1 PUSH1 0x1 PUSH1 0xA0 SHL SUB DUP7 AND SWAP3 CALLER SWAP3 PUSH32 0x88BFBF59F1056861B7A45A80F3A65D9FD26EFCAF5CD77AC42DC88D2DA5F5CBCA SWAP3 PUSH2 0x952 SWAP3 SWAP2 SWAP1 TIMESTAMP SWAP1 PUSH2 0xF1E JUMP JUMPDEST PUSH1 0x40 MLOAD DUP1 SWAP2 SUB SWAP1 LOG3 POP PUSH1 0x1 SWAP4 SWAP3 POP POP POP JUMP JUMPDEST CALLER PUSH0 SWAP1 DUP2 MSTORE PUSH1 0x5 PUSH1 0x20 MSTORE PUSH1 0x40 SWAP1 KECCAK256 SLOAD PUSH1 0xFF AND ISZERO ISZERO PUSH1 0x1 EQ PUSH2 0x997 JUMPI PUSH1 0x40 MLOAD PUSH3 0x461BCD PUSH1 0xE5 SHL DUP2 MSTORE PUSH1 0x4 ADD PUSH2 0x300 SWAP1 PUSH2 0xE60 JUMP JUMPDEST PUSH1 0x1 PUSH1 0x1 PUSH1 0xA0 SHL SUB AND PUSH0 DUP2 DUP2 MSTORE PUSH1 0x2 PUSH1 0x20 MSTORE PUSH1 0x40 DUP2 KECCAK256 DUP1 SLOAD PUSH1 0xFF NOT AND PUSH1 0x1 SWAP1 DUP2 OR SWAP1 SWAP2 SSTORE PUSH1 0x3 DUP1 SLOAD SWAP2 DUP3 ADD DUP2 SSTORE SWAP1 SWAP2 MSTORE PUSH32 0xC2575A0E9E593C00F959F8C92F12DB2869C3395A3B0502D05E2516446F71F85B ADD DUP1 SLOAD PUSH1 0x1 PUSH1 0x1 PUSH1 0xA0 SHL SUB NOT AND SWAP1 SWAP2 OR SWAP1 SSTORE JUMP JUMPDEST DUP1 CALLDATALOAD PUSH1 0x1 PUSH1 0x1 PUSH1 0xA0 SHL SUB DUP2 AND DUP2 EQ PUSH2 0xA12 JUMPI PUSH0 PUSH0 REVERT JUMPDEST SWAP2 SWAP1 POP JUMP JUMPDEST PUSH0 PUSH1 0x20 DUP3 DUP5 SUB SLT ISZERO PUSH2 0xA27 JUMPI PUSH0 PUSH0 REVERT JUMPDEST PUSH2 0xA30 DUP3 PUSH2 0x9FC JUMP JUMPDEST SWAP4 SWAP3 POP POP POP JUMP JUMPDEST PUSH0 PUSH0 PUSH1 0x40 DUP4 DUP6 SUB SLT ISZERO PUSH2 0xA48 JUMPI PUSH0 PUSH0 REVERT JUMPDEST PUSH2 0xA51 DUP4 PUSH2 0x9FC JUMP JUMPDEST SWAP5 PUSH1 0x20 SWAP4 SWAP1 SWAP4 ADD CALLDATALOAD SWAP4 POP POP POP JUMP JUMPDEST PUSH0 PUSH1 0x20 DUP3 DUP5 SUB SLT ISZERO PUSH2 0xA6F JUMPI PUSH0 PUSH0 REVERT JUMPDEST POP CALLDATALOAD SWAP2 SWAP1 POP JUMP JUMPDEST PUSH0 PUSH0 PUSH1 0x40 DUP4 DUP6 SUB SLT ISZERO PUSH2 0xA87 JUMPI PUSH0 PUSH0 REVERT JUMPDEST PUSH2 0xA90 DUP4 PUSH2 0x9FC JUMP JUMPDEST SWAP2 POP PUSH1 0x20 DUP4 ADD CALLDATALOAD DUP1 ISZERO ISZERO DUP2 EQ PUSH2 0xAA4 JUMPI PUSH0 PUSH0 REVERT JUMPDEST DUP1 SWAP2 POP POP SWAP3 POP SWAP3 SWAP1 POP JUMP JUMPDEST PUSH0 PUSH0 PUSH1 0x40 DUP4 DUP6 SUB SLT ISZERO PUSH2 0xAC0 JUMPI PUSH0 PUSH0 REVERT JUMPDEST PUSH2 0xAC9 DUP4 PUSH2 0x9FC JUMP JUMPDEST SWAP2 POP PUSH2 0xAD7 PUSH1 0x20 DUP5 ADD PUSH2 0x9FC JUMP JUMPDEST SWAP1 POP SWAP3 POP SWAP3 SWAP1 POP JUMP JUMPDEST PUSH4 0x4E487B71 PUSH1 0xE0 SHL PUSH0 MSTORE PUSH1 0x41 PUSH1 0x4 MSTORE PUSH1 0x24 PUSH0 REVERT JUMPDEST PUSH1 0x40 MLOAD PUSH1 0x1F DUP3 ADD PUSH1 0x1F NOT AND DUP2 ADD PUSH1 0x1 PUSH1 0x1 PUSH1 0x40 SHL SUB DUP2 GT DUP3 DUP3 LT OR ISZERO PUSH2 0xB1C JUMPI PUSH2 0xB1C PUSH2 0xAE0 JUMP JUMPDEST PUSH1 0x40 MSTORE SWAP2 SWAP1 POP JUMP JUMPDEST PUSH0 DUP3 PUSH1 0x1F DUP4 ADD SLT PUSH2 0xB33 JUMPI PUSH0 PUSH0 REVERT JUMPDEST DUP2 CALLDATALOAD PUSH1 0x1 PUSH1 0x1 PUSH1 0x40 SHL SUB DUP2 GT ISZERO PUSH2 0xB4C JUMPI PUSH2 0xB4C PUSH2 0xAE0 JUMP JUMPDEST PUSH2 0xB5F PUSH1 0x1F DUP3 ADD PUSH1 0x1F NOT AND PUSH1 0x20 ADD PUSH2 0xAF4 JUMP JUMPDEST DUP2 DUP2 MSTORE DUP5 PUSH1 0x20 DUP4 DUP7 ADD ADD GT ISZERO PUSH2 0xB73 JUMPI PUSH0 PUSH0 REVERT JUMPDEST DUP2 PUSH1 0x20 DUP6 ADD PUSH1 0x20 DUP4 ADD CALLDATACOPY PUSH0 SWAP2 DUP2 ADD PUSH1 0x20 ADD SWAP2 SWAP1 SWAP2 MSTORE SWAP4 SWAP3 POP POP POP JUMP JUMPDEST PUSH0 PUSH1 0x40 DUP3 DUP5 SUB SLT ISZERO PUSH2 0xB9F JUMPI PUSH0 PUSH0 REVERT JUMPDEST PUSH1 0x40 DUP1 MLOAD SWAP1 DUP2 ADD PUSH1 0x1 PUSH1 0x1 PUSH1 0x40 SHL SUB DUP2 GT DUP3 DUP3 LT OR ISZERO PUSH2 0xBC1 JUMPI PUSH2 0xBC1 PUSH2 0xAE0 JUMP JUMPDEST PUSH1 0x40 MSTORE SWAP1 POP DUP1 DUP3 CALLDATALOAD PUSH1 0x1 PUSH1 0x1 PUSH1 0x40 SHL SUB DUP2 GT ISZERO PUSH2 0xBDC JUMPI PUSH0 PUSH0 REVERT JUMPDEST PUSH2 0xBE8 DUP6 DUP3 DUP7 ADD PUSH2 0xB24 JUMP JUMPDEST DUP3 MSTORE POP PUSH1 0x20 DUP4 ADD CALLDATALOAD PUSH1 0x1 PUSH1 0x1 PUSH1 0x40 SHL SUB DUP2 GT ISZERO PUSH2 0xC03 JUMPI PUSH0 PUSH0 REVERT JUMPDEST PUSH2 0xC0F DUP6 DUP3 DUP7 ADD PUSH2 0xB24 JUMP JUMPDEST PUSH1 0x20 DUP4 ADD MSTORE POP POP SWAP3 SWAP2 POP POP JUMP JUMPDEST PUSH0 PUSH0 PUSH1 0x40 DUP4 DUP6 SUB SLT ISZERO PUSH2 0xC2D JUMPI PUSH0 PUSH0 REVERT JUMPDEST DUP3 CALLDATALOAD PUSH1 0x1 PUSH1 0x1 PUSH1 0x40 SHL SUB DUP2 GT ISZERO PUSH2 0xC42 JUMPI PUSH0 PUSH0 REVERT JUMPDEST PUSH2 0xC4E DUP6 DUP3 DUP7 ADD PUSH2 0xB8F JUMP JUMPDEST SWAP3 POP POP PUSH1 0x20 DUP4 ADD CALLDATALOAD PUSH1 0x1 PUSH1 0x1 PUSH1 0x40 SHL SUB DUP2 GT ISZERO PUSH2 0xC69 JUMPI PUSH0 PUSH0 REVERT JUMPDEST DUP4 ADD PUSH1 0x1F DUP2 ADD DUP6 SGT PUSH2 0xC79 JUMPI PUSH0 PUSH0 REVERT JUMPDEST DUP1 CALLDATALOAD PUSH1 0x1 PUSH1 0x1 PUSH1 0x40 SHL SUB DUP2 GT ISZERO PUSH2 0xC92 JUMPI PUSH2 0xC92 PUSH2 0xAE0 JUMP JUMPDEST DUP1 PUSH1 0x5 SHL PUSH2 0xCA2 PUSH1 0x20 DUP3 ADD PUSH2 0xAF4 JUMP JUMPDEST SWAP2 DUP3 MSTORE PUSH1 0x20 DUP2 DUP5 ADD DUP2 ADD SWAP3 SWAP1 DUP2 ADD SWAP1 DUP9 DUP5 GT ISZERO PUSH2 0xCBD JUMPI PUSH0 PUSH0 REVERT JUMPDEST PUSH1 0x20 DUP6 ADD SWAP5 POP JUMPDEST DUP4 DUP6 LT ISZERO PUSH2 0xCE6 JUMPI PUSH2 0xCD5 DUP6 PUSH2 0x9FC JUMP JUMPDEST DUP3 MSTORE PUSH1 0x20 SWAP5 DUP6 ADD SWAP5 SWAP1 SWAP2 ADD SWAP1 PUSH2 0xCC4 JUMP JUMPDEST DUP1 SWAP6 POP POP POP POP POP POP SWAP3 POP SWAP3 SWAP1 POP JUMP JUMPDEST PUSH0 PUSH0 PUSH0 PUSH0 PUSH1 0x60 DUP6 DUP8 SUB SLT ISZERO PUSH2 0xD08 JUMPI PUSH0 PUSH0 REVERT JUMPDEST PUSH2 0xD11 DUP6 PUSH2 0x9FC JUMP JUMPDEST SWAP4 POP PUSH1 0x20 DUP6 ADD CALLDATALOAD PUSH1 0x1 PUSH1 0x1 PUSH1 0x40 SHL SUB DUP2 GT ISZERO PUSH2 0xD2B JUMPI PUSH0 PUSH0 REVERT JUMPDEST DUP6 ADD PUSH1 0x1F DUP2 ADD DUP8 SGT PUSH2 0xD3B JUMPI PUSH0 PUSH0 REVERT JUMPDEST DUP1 CALLDATALOAD PUSH1 0x1 PUSH1 0x1 PUSH1 0x40 SHL SUB DUP2 GT ISZERO PUSH2 0xD50 JUMPI PUSH0 PUSH0 REVERT JUMPDEST DUP8 PUSH1 0x20 DUP3 DUP5 ADD ADD GT ISZERO PUSH2 0xD61 JUMPI PUSH0 PUSH0 REVERT JUMPDEST PUSH1 0x20 SWAP2 SWAP1 SWAP2 ADD SWAP4 POP SWAP2 POP PUSH1 0x40 DUP6 ADD CALLDATALOAD PUSH1 0x3 DUP2 LT PUSH2 0xD7C JUMPI PUSH0 PUSH0 REVERT JUMPDEST SWAP4 SWAP7 SWAP3 SWAP6 POP SWAP1 SWAP4 POP POP JUMP JUMPDEST PUSH1 0x20 DUP1 DUP3 MSTORE DUP3 MLOAD DUP3 DUP3 ADD DUP2 SWAP1 MSTORE PUSH0 SWAP2 DUP5 ADD SWAP1 PUSH1 0x40 DUP5 ADD SWAP1 DUP4 JUMPDEST DUP2 DUP2 LT ISZERO PUSH2 0xDC7 JUMPI DUP4 MLOAD PUSH1 0x1 PUSH1 0x1 PUSH1 0xA0 SHL SUB AND DUP4 MSTORE PUSH1 0x20 SWAP4 DUP5 ADD SWAP4 SWAP1 SWAP3 ADD SWAP2 PUSH1 0x1 ADD PUSH2 0xDA0 JUMP JUMPDEST POP SWAP1 SWAP6 SWAP5 POP POP POP POP POP JUMP JUMPDEST PUSH0 PUSH0 PUSH1 0x40 DUP4 DUP6 SUB SLT ISZERO PUSH2 0xDE3 JUMPI PUSH0 PUSH0 REVERT JUMPDEST DUP3 CALLDATALOAD PUSH1 0x1 PUSH1 0x1 PUSH1 0x40 SHL SUB DUP2 GT ISZERO PUSH2 0xDF8 JUMPI PUSH0 PUSH0 REVERT JUMPDEST PUSH2 0xE04 DUP6 DUP3 DUP7 ADD PUSH2 0xB8F JUMP JUMPDEST SWAP3 POP POP PUSH2 0xAD7 PUSH1 0x20 DUP5 ADD PUSH2 0x9FC JUMP JUMPDEST PUSH4 0x4E487B71 PUSH1 0xE0 SHL PUSH0 MSTORE PUSH1 0x32 PUSH1 0x4 MSTORE PUSH1 0x24 PUSH0 REVERT JUMPDEST DUP2 DUP2 SUB DUP2 DUP2 GT ISZERO PUSH2 0xE46 JUMPI PUSH4 0x4E487B71 PUSH1 0xE0 SHL PUSH0 MSTORE PUSH1 0x11 PUSH1 0x4 MSTORE PUSH1 0x24 PUSH0 REVERT JUMPDEST SWAP3 SWAP2 POP POP JUMP JUMPDEST PUSH4 0x4E487B71 PUSH1 0xE0 SHL PUSH0 MSTORE PUSH1 0x31 PUSH1 0x4 MSTORE PUSH1 0x24 PUSH0 REVERT JUMPDEST PUSH1 0x20 DUP1 DUP3 MSTORE PUSH1 0x22 SWAP1 DUP3 ADD MSTORE PUSH32 0x4F6E6C792061646D696E2063616E20706572666F726D20746869732061637469 PUSH1 0x40 DUP3 ADD MSTORE PUSH2 0x37B7 PUSH1 0xF1 SHL PUSH1 0x60 DUP3 ADD MSTORE PUSH1 0x80 ADD SWAP1 JUMP JUMPDEST PUSH4 0x4E487B71 PUSH1 0xE0 SHL PUSH0 MSTORE PUSH1 0x21 PUSH1 0x4 MSTORE PUSH1 0x24 PUSH0 REVERT JUMPDEST PUSH1 0x40 DUP2 MSTORE DUP3 PUSH1 0x40 DUP3 ADD MSTORE DUP3 DUP5 PUSH1 0x60 DUP4 ADD CALLDATACOPY PUSH0 PUSH1 0x60 DUP5 DUP4 ADD ADD MSTORE PUSH0 PUSH1 0x60 PUSH1 0x1F NOT PUSH1 0x1F DUP7 ADD AND DUP4 ADD ADD SWAP1 POP PUSH1 0xFF DUP4 AND PUSH1 0x20 DUP4 ADD MSTORE SWAP5 SWAP4 POP POP POP POP JUMP JUMPDEST PUSH0 DUP2 MLOAD DUP1 DUP5 MSTORE DUP1 PUSH1 0x20 DUP5 ADD PUSH1 0x20 DUP7 ADD MCOPY PUSH0 PUSH1 0x20 DUP3 DUP7 ADD ADD MSTORE PUSH1 0x20 PUSH1 0x1F NOT PUSH1 0x1F DUP4 ADD AND DUP6 ADD ADD SWAP2 POP POP SWAP3 SWAP2 POP POP JUMP JUMPDEST PUSH1 0x60 DUP2 MSTORE PUSH0 PUSH2 0xF30 PUSH1 0x60 DUP4 ADD DUP7 PUSH2 0xEF0 JUMP JUMPDEST DUP3 DUP2 SUB PUSH1 0x20 DUP5 ADD MSTORE PUSH2 0xF42 DUP2 DUP7 PUSH2 0xEF0 JUMP JUMPDEST SWAP2 POP POP DUP3 PUSH1 0x40 DUP4 ADD MSTORE SWAP5 SWAP4 POP POP POP POP JUMP INVALID LOG2 PUSH5 0x6970667358 0x22 SLT KECCAK256 CALLDATACOPY CREATE2 SIGNEXTEND 0x27 PUSH13 0x143D98DB39533DC90F2946262F PUSH7 0x540781D4E454E1 0xCB BLOBHASH ISZERO LOG3 0xD9 CALLDATALOAD PUSH5 0x736F6C6343 STOP ADDMOD SAR STOP CALLER "
				},
				"gasEstimates": {
					"creation": {
						"codeDepositCost": "795400",
						"executionCost": "49329",
						"totalCost": "844729"
					},
					"external": {
						"AddMultipleNoti((string,string),address[])": "infinite",
						"AddNoti((string,string),address)": "infinite",
						"SetAdmin(address,bool)": "26917",
						"addSystemDApp(address)": "75573",
						"getAllDAppsPermissionByUser(address)": "infinite",
						"getAllSystemDApps()": "infinite",
						"isAdmin(address)": "2539",
						"mDappUserToPermission(address,address)": "infinite",
						"mSystemDApps(address)": "2495",
						"mUserToDApps(address,uint256)": "4778",
						"owner()": "2489",
						"registerDeviceToken(address,string,uint8)": "infinite",
						"removeSystemDApp(address)": "infinite",
						"revokeDAppPermission(address)": "infinite",
						"systemDApps(uint256)": "4677"
					}
				},
				"methodIdentifiers": {
					"AddMultipleNoti((string,string),address[])": "90cc9603",
					"AddNoti((string,string),address)": "fe477261",
					"SetAdmin(address,bool)": "55a5194b",
					"addSystemDApp(address)": "ff10f086",
					"getAllDAppsPermissionByUser(address)": "f8dbc9e8",
					"getAllSystemDApps()": "e7cd1385",
					"isAdmin(address)": "24d7806c",
					"mDappUserToPermission(address,address)": "564c2298",
					"mSystemDApps(address)": "15f4f823",
					"mUserToDApps(address,uint256)": "192de59a",
					"owner()": "8da5cb5b",
					"registerDeviceToken(address,string,uint8)": "d895af3d",
					"removeSystemDApp(address)": "7effb463",
					"revokeDAppPermission(address)": "33158b13",
					"systemDApps(uint256)": "35c48ef6"
				}
			},
			"storageLayout": {
				"storage": [
					{
						"astId": 4,
						"contract": "src/ecom/Noti.sol:NotificationManager",
						"label": "owner",
						"offset": 0,
						"slot": "0",
						"type": "t_address"
					},
					{
						"astId": 32,
						"contract": "src/ecom/Noti.sol:NotificationManager",
						"label": "mDappUserToPermission",
						"offset": 0,
						"slot": "1",
						"type": "t_mapping(t_address,t_mapping(t_address,t_bool))"
					},
					{
						"astId": 36,
						"contract": "src/ecom/Noti.sol:NotificationManager",
						"label": "mSystemDApps",
						"offset": 0,
						"slot": "2",
						"type": "t_mapping(t_address,t_bool)"
					},
					{
						"astId": 39,
						"contract": "src/ecom/Noti.sol:NotificationManager",
						"label": "systemDApps",
						"offset": 0,
						"slot": "3",
						"type": "t_array(t_address)dyn_storage"
					},
					{
						"astId": 44,
						"contract": "src/ecom/Noti.sol:NotificationManager",
						"label": "mUserToDApps",
						"offset": 0,
						"slot": "4",
						"type": "t_mapping(t_address,t_array(t_address)dyn_storage)"
					},
					{
						"astId": 48,
						"contract": "src/ecom/Noti.sol:NotificationManager",
						"label": "isAdmin",
						"offset": 0,
						"slot": "5",
						"type": "t_mapping(t_address,t_bool)"
					}
				],
				"types": {
					"t_address": {
						"encoding": "inplace",
						"label": "address",
						"numberOfBytes": "20"
					},
					"t_array(t_address)dyn_storage": {
						"base": "t_address",
						"encoding": "dynamic_array",
						"label": "address[]",
						"numberOfBytes": "32"
					},
					"t_bool": {
						"encoding": "inplace",
						"label": "bool",
						"numberOfBytes": "1"
					},
					"t_mapping(t_address,t_array(t_address)dyn_storage)": {
						"encoding": "mapping",
						"key": "t_address",
						"label": "mapping(address => address[])",
						"numberOfBytes": "32",
						"value": "t_array(t_address)dyn_storage"
					},
					"t_mapping(t_address,t_bool)": {
						"encoding": "mapping",
						"key": "t_address",
						"label": "mapping(address => bool)",
						"numberOfBytes": "32",
						"value": "t_bool"
					},
					"t_mapping(t_address,t_mapping(t_address,t_bool))": {
						"encoding": "mapping",
						"key": "t_address",
						"label": "mapping(address => mapping(address => bool))",
						"numberOfBytes": "32",
						"value": "t_mapping(t_address,t_bool)"
					}
				}
			},
			"userdoc": {
				"kind": "user",
				"methods": {},
				"version": 1
			}
		}
	}
}